{
	"data": {
		"bytecode": {
			"linkReferences": {},
			"object": "60806040526040518060600160405280602281526020016200373a60229139600590816200002e919062000427565b503480156200003c57600080fd5b506040516200375c3803806200375c833981810160405281019062000062919062000672565b6200007a6301ffc9a760e01b620000d660201b60201c565b81600990816200008b919062000427565b5080600a90816200009d919062000427565b50620000b663d9b67a2660e01b620000d660201b60201c565b620000ce630e89341c60e01b620000d660201b60201c565b50506200077a565b63ffffffff60e01b817bffffffffffffffffffffffffffffffffffffffffffffffffffffffff19160362000141576040517f08c379a0000000000000000000000000000000000000000000000000000000008152600401620001389062000758565b60405180910390fd5b6001600080837bffffffffffffffffffffffffffffffffffffffffffffffffffffffff19167bffffffffffffffffffffffffffffffffffffffffffffffffffffffff1916815260200190815260200160002060006101000a81548160ff02191690831515021790555050565b600081519050919050565b7f4e487b7100000000000000000000000000000000000000000000000000000000600052604160045260246000fd5b7f4e487b7100000000000000000000000000000000000000000000000000000000600052602260045260246000fd5b600060028204905060018216806200022f57607f821691505b602082108103620002455762000244620001e7565b5b50919050565b60008190508160005260206000209050919050565b60006020601f8301049050919050565b600082821b905092915050565b600060088302620002af7fffffffffffffffffffffffffffffffffffffffffffffffffffffffffffffffff8262000270565b620002bb868362000270565b95508019841693508086168417925050509392505050565b6000819050919050565b6000819050919050565b60006200030862000302620002fc84620002d3565b620002dd565b620002d3565b9050919050565b6000819050919050565b6200032483620002e7565b6200033c62000333826200030f565b8484546200027d565b825550505050565b600090565b6200035362000344565b6200036081848462000319565b505050565b5b8181101562000388576200037c60008262000349565b60018101905062000366565b5050565b601f821115620003d757620003a1816200024b565b620003ac8462000260565b81016020851015620003bc578190505b620003d4620003cb8562000260565b83018262000365565b50505b505050565b600082821c905092915050565b6000620003fc60001984600802620003dc565b1980831691505092915050565b6000620004178383620003e9565b9150826002028217905092915050565b6200043282620001ad565b67ffffffffffffffff8111156200044e576200044d620001b8565b5b6200045a825462000216565b620004678282856200038c565b600060209050601f8311600181146200049f57600084156200048a578287015190505b62000496858262000409565b86555062000506565b601f198416620004af866200024b565b60005b82811015620004d957848901518255600182019150602085019450602081019050620004b2565b86831015620004f95784890151620004f5601f891682620003e9565b8355505b6001600288020188555050505b505050505050565b6000604051905090565b600080fd5b600080fd5b600080fd5b600080fd5b6000601f19601f8301169050919050565b62000548826200052c565b810181811067ffffffffffffffff821117156200056a5762000569620001b8565b5b80604052505050565b60006200057f6200050e565b90506200058d82826200053d565b919050565b600067ffffffffffffffff821115620005b057620005af620001b8565b5b620005bb826200052c565b9050602081019050919050565b60005b83811015620005e8578082015181840152602081019050620005cb565b60008484015250505050565b60006200060b620006058462000592565b62000573565b9050828152602081018484840111156200062a576200062962000527565b5b62000637848285620005c8565b509392505050565b600082601f83011262000657576200065662000522565b5b815162000669848260208601620005f4565b91505092915050565b600080604083850312156200068c576200068b62000518565b5b600083015167ffffffffffffffff811115620006ad57620006ac6200051d565b5b620006bb858286016200063f565b925050602083015167ffffffffffffffff811115620006df57620006de6200051d565b5b620006ed858286016200063f565b9150509250929050565b600082825260208201905092915050565b7f4552433136353a20696e76616c696420696e7465726661636520696400000000600082015250565b600062000740601c83620006f7565b91506200074d8262000708565b602082019050919050565b60006020820190508181036000830152620007738162000731565b9050919050565b612fb0806200078a6000396000f3fe608060405234801561001057600080fd5b50600436106100ce5760003560e01c8063a22cb4651161008c578063c87b56dd11610066578063c87b56dd14610225578063d48e638a14610255578063e985e9c514610285578063f242432a146102b5576100ce565b8063a22cb465146101bb578063c0ac9983146101d7578063c57dc235146101f5576100ce565b8062fdd58e146100d357806301ffc9a71461010357806306fdde03146101335780632eb2c2d6146101515780634e1273f41461016d57806395d89b411461019d575b600080fd5b6100ed60048036038101906100e89190611add565b6102d1565b6040516100fa9190611b2c565b60405180910390f35b61011d60048036038101906101189190611b9f565b6103e3565b60405161012a9190611be7565b60405180910390f35b61013b61044a565b6040516101489190611c92565b60405180910390f35b61016b60048036038101906101669190611eb1565b6104dc565b005b61018760048036038101906101829190612043565b6108b0565b6040516101949190612179565b60405180910390f35b6101a5610a99565b6040516101b29190611c92565b60405180910390f35b6101d560048036038101906101d091906121c7565b610b2b565b005b6101df610cab565b6040516101ec9190611c92565b60405180910390f35b61020f600480360381019061020a9190612207565b610d39565b60405161021c9190611b2c565b60405180910390f35b61023f600480360381019061023a9190612207565b610d56565b60405161024c9190611c92565b60405180910390f35b61026f600480360381019061026a9190612207565b610f4b565b60405161027c9190612243565b60405180910390f35b61029f600480360381019061029a919061225e565b610f88565b6040516102ac9190611be7565b60405180910390f35b6102cf60048036038101906102ca919061229e565b61101c565b005b60006102dc8261135e565b61031b576040517f08c379a0000000000000000000000000000000000000000000000000000000008152600401610312906123a7565b60405180910390fd5b600073ffffffffffffffffffffffffffffffffffffffff168373ffffffffffffffffffffffffffffffffffffffff160361038a576040517f08c379a000000000000000000000000000000000000000000000000000000000815260040161038190612439565b60405180910390fd5b6003600083815260200190815260200160002060008473ffffffffffffffffffffffffffffffffffffffff1673ffffffffffffffffffffffffffffffffffffffff16815260200190815260200160002054905092915050565b6000806000837bffffffffffffffffffffffffffffffffffffffffffffffffffffffff19167bffffffffffffffffffffffffffffffffffffffffffffffffffffffff1916815260200190815260200160002060009054906101000a900460ff169050919050565b60606009805461045990612488565b80601f016020809104026020016040519081016040528092919081815260200182805461048590612488565b80156104d25780601f106104a7576101008083540402835291602001916104d2565b820191906000526020600020905b8154815290600101906020018083116104b557829003601f168201915b5050505050905090565b8151835114610520576040517f08c379a00000000000000000000000000000000000000000000000000000000081526004016105179061252b565b60405180910390fd5b600073ffffffffffffffffffffffffffffffffffffffff168473ffffffffffffffffffffffffffffffffffffffff160361058f576040517f08c379a0000000000000000000000000000000000000000000000000000000008152600401610586906125bd565b60405180910390fd5b61059761137b565b73ffffffffffffffffffffffffffffffffffffffff168573ffffffffffffffffffffffffffffffffffffffff1614806105dd57506105dc856105d761137b565b610f88565b5b61061c576040517f08c379a00000000000000000000000000000000000000000000000000000000081526004016106139061264f565b60405180910390fd5b600061062661137b565b9050610636818787878787611383565b60005b845181101561081b5760008582815181106106575761065661266f565b5b6020026020010151905060008583815181106106765761067561266f565b5b602002602001015190506106fd816040518060600160405280602a8152602001612f51602a91396003600086815260200190815260200160002060008d73ffffffffffffffffffffffffffffffffffffffff1673ffffffffffffffffffffffffffffffffffffffff1681526020019081526020016000205461138b9092919063ffffffff16565b6003600084815260200190815260200160002060008b73ffffffffffffffffffffffffffffffffffffffff1673ffffffffffffffffffffffffffffffffffffffff168152602001908152602001600020819055506107b4816003600085815260200190815260200160002060008b73ffffffffffffffffffffffffffffffffffffffff1673ffffffffffffffffffffffffffffffffffffffff168152602001908152602001600020546113ef90919063ffffffff16565b6003600084815260200190815260200160002060008a73ffffffffffffffffffffffffffffffffffffffff1673ffffffffffffffffffffffffffffffffffffffff16815260200190815260200160002081905550505080610814906126cd565b9050610639565b508473ffffffffffffffffffffffffffffffffffffffff168673ffffffffffffffffffffffffffffffffffffffff168273ffffffffffffffffffffffffffffffffffffffff167f4a39dc06d4c0dbc64b70af90fd698a233a518aa5d07e595d983b8c0526c8f7fb8787604051610892929190612715565b60405180910390a46108a881878787878761144d565b505050505050565b606081518351146108f6576040517f08c379a00000000000000000000000000000000000000000000000000000000081526004016108ed906127be565b60405180910390fd5b6000835167ffffffffffffffff81111561091357610912611cb9565b5b6040519080825280602002602001820160405280156109415781602001602082028036833780820191505090505b50905060005b8451811015610a8e57600073ffffffffffffffffffffffffffffffffffffffff1685828151811061097b5761097a61266f565b5b602002602001015173ffffffffffffffffffffffffffffffffffffffff16036109d9576040517f08c379a00000000000000000000000000000000000000000000000000000000081526004016109d090612850565b60405180910390fd5b600360008583815181106109f0576109ef61266f565b5b602002602001015181526020019081526020016000206000868381518110610a1b57610a1a61266f565b5b602002602001015173ffffffffffffffffffffffffffffffffffffffff1673ffffffffffffffffffffffffffffffffffffffff16815260200190815260200160002054828281518110610a7157610a7061266f565b5b60200260200101818152505080610a87906126cd565b9050610947565b508091505092915050565b6060600a8054610aa890612488565b80601f0160208091040260200160405190810160405280929190818152602001828054610ad490612488565b8015610b215780601f10610af657610100808354040283529160200191610b21565b820191906000526020600020905b815481529060010190602001808311610b0457829003601f168201915b5050505050905090565b8173ffffffffffffffffffffffffffffffffffffffff16610b4a61137b565b73ffffffffffffffffffffffffffffffffffffffff1603610ba0576040517f08c379a0000000000000000000000000000000000000000000000000000000008152600401610b97906128e2565b60405180910390fd5b8060046000610bad61137b565b73ffffffffffffffffffffffffffffffffffffffff1673ffffffffffffffffffffffffffffffffffffffff16815260200190815260200160002060008473ffffffffffffffffffffffffffffffffffffffff1673ffffffffffffffffffffffffffffffffffffffff16815260200190815260200160002060006101000a81548160ff0219169083151502179055508173ffffffffffffffffffffffffffffffffffffffff16610c5a61137b565b73ffffffffffffffffffffffffffffffffffffffff167f17307eab39ab6107e8899845ad3d59bd9653f200f220920489ca2b5937696c3183604051610c9f9190611be7565b60405180910390a35050565b60058054610cb890612488565b80601f0160208091040260200160405190810160405280929190818152602001828054610ce490612488565b8015610d315780601f10610d0657610100808354040283529160200191610d31565b820191906000526020600020905b815481529060010190602001808311610d1457829003601f168201915b505050505081565b600060026000838152602001908152602001600020549050919050565b6060610d618261135e565b610da0576040517f08c379a0000000000000000000000000000000000000000000000000000000008152600401610d9790612974565b60405180910390fd5b6000600660008481526020019081526020016000208054610dc090612488565b80601f0160208091040260200160405190810160405280929190818152602001828054610dec90612488565b8015610e395780601f10610e0e57610100808354040283529160200191610e39565b820191906000526020600020905b815481529060010190602001808311610e1c57829003601f168201915b50505050509050600060058054610e4f90612488565b80601f0160208091040260200160405190810160405280929190818152602001828054610e7b90612488565b8015610ec85780601f10610e9d57610100808354040283529160200191610ec8565b820191906000526020600020905b815481529060010190602001808311610eab57829003601f168201915b505050505090506000815103610ee2578192505050610f46565b600082511115610f17578082604051602001610eff9291906129d0565b60405160208183030381529060405292505050610f46565b80610f2185611624565b604051602001610f329291906129d0565b604051602081830303815290604052925050505b919050565b60006001600083815260200190815260200160002060009054906101000a900473ffffffffffffffffffffffffffffffffffffffff169050919050565b6000600460008473ffffffffffffffffffffffffffffffffffffffff1673ffffffffffffffffffffffffffffffffffffffff16815260200190815260200160002060008373ffffffffffffffffffffffffffffffffffffffff1673ffffffffffffffffffffffffffffffffffffffff16815260200190815260200160002060009054906101000a900460ff16905092915050565b600073ffffffffffffffffffffffffffffffffffffffff168473ffffffffffffffffffffffffffffffffffffffff160361108b576040517f08c379a0000000000000000000000000000000000000000000000000000000008152600401611082906125bd565b60405180910390fd5b61109361137b565b73ffffffffffffffffffffffffffffffffffffffff168573ffffffffffffffffffffffffffffffffffffffff1614806110d957506110d8856110d361137b565b610f88565b5b611118576040517f08c379a000000000000000000000000000000000000000000000000000000000815260040161110f90612a66565b60405180910390fd5b600061112261137b565b905061114281878761113388611784565b61113c88611784565b87611383565b6111bf836040518060600160405280602a8152602001612f51602a91396003600088815260200190815260200160002060008a73ffffffffffffffffffffffffffffffffffffffff1673ffffffffffffffffffffffffffffffffffffffff1681526020019081526020016000205461138b9092919063ffffffff16565b6003600086815260200190815260200160002060008873ffffffffffffffffffffffffffffffffffffffff1673ffffffffffffffffffffffffffffffffffffffff16815260200190815260200160002081905550611276836003600087815260200190815260200160002060008873ffffffffffffffffffffffffffffffffffffffff1673ffffffffffffffffffffffffffffffffffffffff168152602001908152602001600020546113ef90919063ffffffff16565b6003600086815260200190815260200160002060008773ffffffffffffffffffffffffffffffffffffffff1673ffffffffffffffffffffffffffffffffffffffff168152602001908152602001600020819055508473ffffffffffffffffffffffffffffffffffffffff168673ffffffffffffffffffffffffffffffffffffffff168273ffffffffffffffffffffffffffffffffffffffff167fc3d58168c5ae7397731d063d5bbf3d657854427343f4c083240f7aacaa2d0f628787604051611340929190612a86565b60405180910390a46113568187878787876117fe565b505050505050565b60006113748260076119d590919063ffffffff16565b9050919050565b600033905090565b505050505050565b60008383111582906113d3576040517f08c379a00000000000000000000000000000000000000000000000000000000081526004016113ca9190611c92565b60405180910390fd5b50600083856113e29190612aaf565b9050809150509392505050565b60008082846113fe9190612ae3565b905083811015611443576040517f08c379a000000000000000000000000000000000000000000000000000000000815260040161143a90612b63565b60405180910390fd5b8091505092915050565b61146c8473ffffffffffffffffffffffffffffffffffffffff166119ef565b1561161c578373ffffffffffffffffffffffffffffffffffffffff1663bc197c8187878686866040518663ffffffff1660e01b81526004016114b2959493929190612bd8565b6020604051808303816000875af19250505080156114ee57506040513d601f19601f820116820180604052508101906114eb9190612c55565b60015b611593576114fa612c8f565b806308c379a003611556575061150e612cb1565b806115195750611558565b806040517f08c379a000000000000000000000000000000000000000000000000000000000815260040161154d9190611c92565b60405180910390fd5b505b6040517f08c379a000000000000000000000000000000000000000000000000000000000815260040161158a90612db3565b60405180910390fd5b63bc197c8160e01b7bffffffffffffffffffffffffffffffffffffffffffffffffffffffff1916817bffffffffffffffffffffffffffffffffffffffffffffffffffffffff19161461161a576040517f08c379a000000000000000000000000000000000000000000000000000000000815260040161161190612e45565b60405180910390fd5b505b505050505050565b60606000820361166b576040518060400160405280600181526020017f3000000000000000000000000000000000000000000000000000000000000000815250905061177f565b600082905060005b6000821461169d578080611686906126cd565b915050600a826116969190612e94565b9150611673565b60008167ffffffffffffffff8111156116b9576116b8611cb9565b5b6040519080825280601f01601f1916602001820160405280156116eb5781602001600182028036833780820191505090505b5090505b60008514611778576001826117049190612aaf565b9150600a856117139190612ec5565b603061171f9190612ae3565b60f81b8183815181106117355761173461266f565b5b60200101907effffffffffffffffffffffffffffffffffffffffffffffffffffffffffffff1916908160001a905350600a856117719190612e94565b94506116ef565b8093505050505b919050565b60606000600167ffffffffffffffff8111156117a3576117a2611cb9565b5b6040519080825280602002602001820160405280156117d15781602001602082028036833780820191505090505b50905082816000815181106117e9576117e861266f565b5b60200260200101818152505080915050919050565b61181d8473ffffffffffffffffffffffffffffffffffffffff166119ef565b156119cd578373ffffffffffffffffffffffffffffffffffffffff1663f23a6e6187878686866040518663ffffffff1660e01b8152600401611863959493929190612ef6565b6020604051808303816000875af192505050801561189f57506040513d601f19601f8201168201806040525081019061189c9190612c55565b60015b611944576118ab612c8f565b806308c379a00361190757506118bf612cb1565b806118ca5750611909565b806040517f08c379a00000000000000000000000000000000000000000000000000000000081526004016118fe9190611c92565b60405180910390fd5b505b6040517f08c379a000000000000000000000000000000000000000000000000000000000815260040161193b90612db3565b60405180910390fd5b63f23a6e6160e01b7bffffffffffffffffffffffffffffffffffffffffffffffffffffffff1916817bffffffffffffffffffffffffffffffffffffffffffffffffffffffff1916146119cb576040517f08c379a00000000000000000000000000000000000000000000000000000000081526004016119c290612e45565b60405180910390fd5b505b505050505050565b60006119e7836000018360001b611a12565b905092915050565b6000808273ffffffffffffffffffffffffffffffffffffffff163b119050919050565b600080836001016000848152602001908152602001600020541415905092915050565b6000604051905090565b600080fd5b600080fd5b600073ffffffffffffffffffffffffffffffffffffffff82169050919050565b6000611a7482611a49565b9050919050565b611a8481611a69565b8114611a8f57600080fd5b50565b600081359050611aa181611a7b565b92915050565b6000819050919050565b611aba81611aa7565b8114611ac557600080fd5b50565b600081359050611ad781611ab1565b92915050565b60008060408385031215611af457611af3611a3f565b5b6000611b0285828601611a92565b9250506020611b1385828601611ac8565b9150509250929050565b611b2681611aa7565b82525050565b6000602082019050611b416000830184611b1d565b92915050565b60007fffffffff0000000000000000000000000000000000000000000000000000000082169050919050565b611b7c81611b47565b8114611b8757600080fd5b50565b600081359050611b9981611b73565b92915050565b600060208284031215611bb557611bb4611a3f565b5b6000611bc384828501611b8a565b91505092915050565b60008115159050919050565b611be181611bcc565b82525050565b6000602082019050611bfc6000830184611bd8565b92915050565b600081519050919050565b600082825260208201905092915050565b60005b83811015611c3c578082015181840152602081019050611c21565b60008484015250505050565b6000601f19601f8301169050919050565b6000611c6482611c02565b611c6e8185611c0d565b9350611c7e818560208601611c1e565b611c8781611c48565b840191505092915050565b60006020820190508181036000830152611cac8184611c59565b905092915050565b600080fd5b7f4e487b7100000000000000000000000000000000000000000000000000000000600052604160045260246000fd5b611cf182611c48565b810181811067ffffffffffffffff82111715611d1057611d0f611cb9565b5b80604052505050565b6000611d23611a35565b9050611d2f8282611ce8565b919050565b600067ffffffffffffffff821115611d4f57611d4e611cb9565b5b602082029050602081019050919050565b600080fd5b6000611d78611d7384611d34565b611d19565b90508083825260208201905060208402830185811115611d9b57611d9a611d60565b5b835b81811015611dc45780611db08882611ac8565b845260208401935050602081019050611d9d565b5050509392505050565b600082601f830112611de357611de2611cb4565b5b8135611df3848260208601611d65565b91505092915050565b600080fd5b600067ffffffffffffffff821115611e1c57611e1b611cb9565b5b611e2582611c48565b9050602081019050919050565b82818337600083830152505050565b6000611e54611e4f84611e01565b611d19565b905082815260208101848484011115611e7057611e6f611dfc565b5b611e7b848285611e32565b509392505050565b600082601f830112611e9857611e97611cb4565b5b8135611ea8848260208601611e41565b91505092915050565b600080600080600060a08688031215611ecd57611ecc611a3f565b5b6000611edb88828901611a92565b9550506020611eec88828901611a92565b945050604086013567ffffffffffffffff811115611f0d57611f0c611a44565b5b611f1988828901611dce565b935050606086013567ffffffffffffffff811115611f3a57611f39611a44565b5b611f4688828901611dce565b925050608086013567ffffffffffffffff811115611f6757611f66611a44565b5b611f7388828901611e83565b9150509295509295909350565b600067ffffffffffffffff821115611f9b57611f9a611cb9565b5b602082029050602081019050919050565b6000611fbf611fba84611f80565b611d19565b90508083825260208201905060208402830185811115611fe257611fe1611d60565b5b835b8181101561200b5780611ff78882611a92565b845260208401935050602081019050611fe4565b5050509392505050565b600082601f83011261202a57612029611cb4565b5b813561203a848260208601611fac565b91505092915050565b6000806040838503121561205a57612059611a3f565b5b600083013567ffffffffffffffff81111561207857612077611a44565b5b61208485828601612015565b925050602083013567ffffffffffffffff8111156120a5576120a4611a44565b5b6120b185828601611dce565b9150509250929050565b600081519050919050565b600082825260208201905092915050565b6000819050602082019050919050565b6120f081611aa7565b82525050565b600061210283836120e7565b60208301905092915050565b6000602082019050919050565b6000612126826120bb565b61213081856120c6565b935061213b836120d7565b8060005b8381101561216c57815161215388826120f6565b975061215e8361210e565b92505060018101905061213f565b5085935050505092915050565b60006020820190508181036000830152612193818461211b565b905092915050565b6121a481611bcc565b81146121af57600080fd5b50565b6000813590506121c18161219b565b92915050565b600080604083850312156121de576121dd611a3f565b5b60006121ec85828601611a92565b92505060206121fd858286016121b2565b9150509250929050565b60006020828403121561221d5761221c611a3f565b5b600061222b84828501611ac8565b91505092915050565b61223d81611a69565b82525050565b60006020820190506122586000830184612234565b92915050565b6000806040838503121561227557612274611a3f565b5b600061228385828601611a92565b925050602061229485828601611a92565b9150509250929050565b600080600080600060a086880312156122ba576122b9611a3f565b5b60006122c888828901611a92565b95505060206122d988828901611a92565b94505060406122ea88828901611ac8565b93505060606122fb88828901611ac8565b925050608086013567ffffffffffffffff81111561231c5761231b611a44565b5b61232888828901611e83565b9150509295509295909350565b7f455243313135354d657461646174613a2062616c616e6365207175657279206660008201527f6f72206e6f6e6578697374656e7420746f6b656e000000000000000000000000602082015250565b6000612391603483611c0d565b915061239c82612335565b604082019050919050565b600060208201905081810360008301526123c081612384565b9050919050565b7f455243313135353a2062616c616e636520717565727920666f7220746865207a60008201527f65726f2061646472657373000000000000000000000000000000000000000000602082015250565b6000612423602b83611c0d565b915061242e826123c7565b604082019050919050565b6000602082019050818103600083015261245281612416565b9050919050565b7f4e487b7100000000000000000000000000000000000000000000000000000000600052602260045260246000fd5b600060028204905060018216806124a057607f821691505b6020821081036124b3576124b2612459565b5b50919050565b7f455243313135353a2069647320616e6420616d6f756e7473206c656e6774682060008201527f6d69736d61746368000000000000000000000000000000000000000000000000602082015250565b6000612515602883611c0d565b9150612520826124b9565b604082019050919050565b6000602082019050818103600083015261254481612508565b9050919050565b7f455243313135353a207472616e7366657220746f20746865207a65726f20616460008201527f6472657373000000000000000000000000000000000000000000000000000000602082015250565b60006125a7602583611c0d565b91506125b28261254b565b604082019050919050565b600060208201905081810360008301526125d68161259a565b9050919050565b7f455243313135353a207472616e736665722063616c6c6572206973206e6f742060008201527f6f776e6572206e6f7220617070726f7665640000000000000000000000000000602082015250565b6000612639603283611c0d565b9150612644826125dd565b604082019050919050565b600060208201905081810360008301526126688161262c565b9050919050565b7f4e487b7100000000000000000000000000000000000000000000000000000000600052603260045260246000fd5b7f4e487b7100000000000000000000000000000000000000000000000000000000600052601160045260246000fd5b60006126d882611aa7565b91507fffffffffffffffffffffffffffffffffffffffffffffffffffffffffffffffff820361270a5761270961269e565b5b600182019050919050565b6000604082019050818103600083015261272f818561211b565b90508181036020830152612743818461211b565b90509392505050565b7f455243313135353a206163636f756e747320616e6420696473206c656e67746860008201527f206d69736d617463680000000000000000000000000000000000000000000000602082015250565b60006127a8602983611c0d565b91506127b38261274c565b604082019050919050565b600060208201905081810360008301526127d78161279b565b9050919050565b7f455243313135353a2062617463682062616c616e636520717565727920666f7260008201527f20746865207a65726f2061646472657373000000000000000000000000000000602082015250565b600061283a603183611c0d565b9150612845826127de565b604082019050919050565b600060208201905081810360008301526128698161282d565b9050919050565b7f455243313135353a2073657474696e6720617070726f76616c2073746174757360008201527f20666f722073656c660000000000000000000000000000000000000000000000602082015250565b60006128cc602983611c0d565b91506128d782612870565b604082019050919050565b600060208201905081810360008301526128fb816128bf565b9050919050565b7f455243313135354d657461646174613a2055524920717565727920666f72206e60008201527f6f6e6578697374656e7420746f6b656e00000000000000000000000000000000602082015250565b600061295e603083611c0d565b915061296982612902565b604082019050919050565b6000602082019050818103600083015261298d81612951565b9050919050565b600081905092915050565b60006129aa82611c02565b6129b48185612994565b93506129c4818560208601611c1e565b80840191505092915050565b60006129dc828561299f565b91506129e8828461299f565b91508190509392505050565b7f455243313135353a2063616c6c6572206973206e6f74206f776e6572206e6f7260008201527f20617070726f7665640000000000000000000000000000000000000000000000602082015250565b6000612a50602983611c0d565b9150612a5b826129f4565b604082019050919050565b60006020820190508181036000830152612a7f81612a43565b9050919050565b6000604082019050612a9b6000830185611b1d565b612aa86020830184611b1d565b9392505050565b6000612aba82611aa7565b9150612ac583611aa7565b9250828203905081811115612add57612adc61269e565b5b92915050565b6000612aee82611aa7565b9150612af983611aa7565b9250828201905080821115612b1157612b1061269e565b5b92915050565b7f536166654d6174683a206164646974696f6e206f766572666c6f770000000000600082015250565b6000612b4d601b83611c0d565b9150612b5882612b17565b602082019050919050565b60006020820190508181036000830152612b7c81612b40565b9050919050565b600081519050919050565b600082825260208201905092915050565b6000612baa82612b83565b612bb48185612b8e565b9350612bc4818560208601611c1e565b612bcd81611c48565b840191505092915050565b600060a082019050612bed6000830188612234565b612bfa6020830187612234565b8181036040830152612c0c818661211b565b90508181036060830152612c20818561211b565b90508181036080830152612c348184612b9f565b90509695505050505050565b600081519050612c4f81611b73565b92915050565b600060208284031215612c6b57612c6a611a3f565b5b6000612c7984828501612c40565b91505092915050565b60008160e01c9050919050565b600060033d1115612cae5760046000803e612cab600051612c82565b90505b90565b600060443d10612d3e57612cc3611a35565b60043d036004823e80513d602482011167ffffffffffffffff82111715612ceb575050612d3e565b808201805167ffffffffffffffff811115612d095750505050612d3e565b80602083010160043d038501811115612d26575050505050612d3e565b612d3582602001850186611ce8565b82955050505050505b90565b7f455243313135353a207472616e7366657220746f206e6f6e204552433131353560008201527f526563656976657220696d706c656d656e746572000000000000000000000000602082015250565b6000612d9d603483611c0d565b9150612da882612d41565b604082019050919050565b60006020820190508181036000830152612dcc81612d90565b9050919050565b7f455243313135353a204552433131353552656365697665722072656a6563746560008201527f6420746f6b656e73000000000000000000000000000000000000000000000000602082015250565b6000612e2f602883611c0d565b9150612e3a82612dd3565b604082019050919050565b60006020820190508181036000830152612e5e81612e22565b9050919050565b7f4e487b7100000000000000000000000000000000000000000000000000000000600052601260045260246000fd5b6000612e9f82611aa7565b9150612eaa83611aa7565b925082612eba57612eb9612e65565b5b828204905092915050565b6000612ed082611aa7565b9150612edb83611aa7565b925082612eeb57612eea612e65565b5b828206905092915050565b600060a082019050612f0b6000830188612234565b612f186020830187612234565b612f256040830186611b1d565b612f326060830185611b1d565b8181036080830152612f448184612b9f565b9050969550505050505056fe455243313135353a20696e73756666696369656e742062616c616e636520666f72207472616e73666572a2646970667358221220f1ca3888ef49aee561688efd1fe667157359814a7fff22e3b1eba68b9668308464736f6c6343000810003368747470733a2f2f676174657761792e70696e6174612e636c6f75642f697066732f",
			"opcodes": "PUSH1 0x80 PUSH1 0x40 MSTORE PUSH1 0x40 MLOAD DUP1 PUSH1 0x60 ADD PUSH1 0x40 MSTORE DUP1 PUSH1 0x22 DUP2 MSTORE PUSH1 0x20 ADD PUSH3 0x373A PUSH1 0x22 SWAP2 CODECOPY PUSH1 0x5 SWAP1 DUP2 PUSH3 0x2E SWAP2 SWAP1 PUSH3 0x427 JUMP JUMPDEST POP CALLVALUE DUP1 ISZERO PUSH3 0x3C JUMPI PUSH1 0x0 DUP1 REVERT JUMPDEST POP PUSH1 0x40 MLOAD PUSH3 0x375C CODESIZE SUB DUP1 PUSH3 0x375C DUP4 CODECOPY DUP2 DUP2 ADD PUSH1 0x40 MSTORE DUP2 ADD SWAP1 PUSH3 0x62 SWAP2 SWAP1 PUSH3 0x672 JUMP JUMPDEST PUSH3 0x7A PUSH4 0x1FFC9A7 PUSH1 0xE0 SHL PUSH3 0xD6 PUSH1 0x20 SHL PUSH1 0x20 SHR JUMP JUMPDEST DUP2 PUSH1 0x9 SWAP1 DUP2 PUSH3 0x8B SWAP2 SWAP1 PUSH3 0x427 JUMP JUMPDEST POP DUP1 PUSH1 0xA SWAP1 DUP2 PUSH3 0x9D SWAP2 SWAP1 PUSH3 0x427 JUMP JUMPDEST POP PUSH3 0xB6 PUSH4 0xD9B67A26 PUSH1 0xE0 SHL PUSH3 0xD6 PUSH1 0x20 SHL PUSH1 0x20 SHR JUMP JUMPDEST PUSH3 0xCE PUSH4 0xE89341C PUSH1 0xE0 SHL PUSH3 0xD6 PUSH1 0x20 SHL PUSH1 0x20 SHR JUMP JUMPDEST POP POP PUSH3 0x77A JUMP JUMPDEST PUSH4 0xFFFFFFFF PUSH1 0xE0 SHL DUP2 PUSH28 0xFFFFFFFFFFFFFFFFFFFFFFFFFFFFFFFFFFFFFFFFFFFFFFFFFFFFFFFF NOT AND SUB PUSH3 0x141 JUMPI PUSH1 0x40 MLOAD PUSH32 0x8C379A000000000000000000000000000000000000000000000000000000000 DUP2 MSTORE PUSH1 0x4 ADD PUSH3 0x138 SWAP1 PUSH3 0x758 JUMP JUMPDEST PUSH1 0x40 MLOAD DUP1 SWAP2 SUB SWAP1 REVERT JUMPDEST PUSH1 0x1 PUSH1 0x0 DUP1 DUP4 PUSH28 0xFFFFFFFFFFFFFFFFFFFFFFFFFFFFFFFFFFFFFFFFFFFFFFFFFFFFFFFF NOT AND PUSH28 0xFFFFFFFFFFFFFFFFFFFFFFFFFFFFFFFFFFFFFFFFFFFFFFFFFFFFFFFF NOT AND DUP2 MSTORE PUSH1 0x20 ADD SWAP1 DUP2 MSTORE PUSH1 0x20 ADD PUSH1 0x0 KECCAK256 PUSH1 0x0 PUSH2 0x100 EXP DUP2 SLOAD DUP2 PUSH1 0xFF MUL NOT AND SWAP1 DUP4 ISZERO ISZERO MUL OR SWAP1 SSTORE POP POP JUMP JUMPDEST PUSH1 0x0 DUP2 MLOAD SWAP1 POP SWAP2 SWAP1 POP JUMP JUMPDEST PUSH32 0x4E487B7100000000000000000000000000000000000000000000000000000000 PUSH1 0x0 MSTORE PUSH1 0x41 PUSH1 0x4 MSTORE PUSH1 0x24 PUSH1 0x0 REVERT JUMPDEST PUSH32 0x4E487B7100000000000000000000000000000000000000000000000000000000 PUSH1 0x0 MSTORE PUSH1 0x22 PUSH1 0x4 MSTORE PUSH1 0x24 PUSH1 0x0 REVERT JUMPDEST PUSH1 0x0 PUSH1 0x2 DUP3 DIV SWAP1 POP PUSH1 0x1 DUP3 AND DUP1 PUSH3 0x22F JUMPI PUSH1 0x7F DUP3 AND SWAP2 POP JUMPDEST PUSH1 0x20 DUP3 LT DUP2 SUB PUSH3 0x245 JUMPI PUSH3 0x244 PUSH3 0x1E7 JUMP JUMPDEST JUMPDEST POP SWAP2 SWAP1 POP JUMP JUMPDEST PUSH1 0x0 DUP2 SWAP1 POP DUP2 PUSH1 0x0 MSTORE PUSH1 0x20 PUSH1 0x0 KECCAK256 SWAP1 POP SWAP2 SWAP1 POP JUMP JUMPDEST PUSH1 0x0 PUSH1 0x20 PUSH1 0x1F DUP4 ADD DIV SWAP1 POP SWAP2 SWAP1 POP JUMP JUMPDEST PUSH1 0x0 DUP3 DUP3 SHL SWAP1 POP SWAP3 SWAP2 POP POP JUMP JUMPDEST PUSH1 0x0 PUSH1 0x8 DUP4 MUL PUSH3 0x2AF PUSH32 0xFFFFFFFFFFFFFFFFFFFFFFFFFFFFFFFFFFFFFFFFFFFFFFFFFFFFFFFFFFFFFFFF DUP3 PUSH3 0x270 JUMP JUMPDEST PUSH3 0x2BB DUP7 DUP4 PUSH3 0x270 JUMP JUMPDEST SWAP6 POP DUP1 NOT DUP5 AND SWAP4 POP DUP1 DUP7 AND DUP5 OR SWAP3 POP POP POP SWAP4 SWAP3 POP POP POP JUMP JUMPDEST PUSH1 0x0 DUP2 SWAP1 POP SWAP2 SWAP1 POP JUMP JUMPDEST PUSH1 0x0 DUP2 SWAP1 POP SWAP2 SWAP1 POP JUMP JUMPDEST PUSH1 0x0 PUSH3 0x308 PUSH3 0x302 PUSH3 0x2FC DUP5 PUSH3 0x2D3 JUMP JUMPDEST PUSH3 0x2DD JUMP JUMPDEST PUSH3 0x2D3 JUMP JUMPDEST SWAP1 POP SWAP2 SWAP1 POP JUMP JUMPDEST PUSH1 0x0 DUP2 SWAP1 POP SWAP2 SWAP1 POP JUMP JUMPDEST PUSH3 0x324 DUP4 PUSH3 0x2E7 JUMP JUMPDEST PUSH3 0x33C PUSH3 0x333 DUP3 PUSH3 0x30F JUMP JUMPDEST DUP5 DUP5 SLOAD PUSH3 0x27D JUMP JUMPDEST DUP3 SSTORE POP POP POP POP JUMP JUMPDEST PUSH1 0x0 SWAP1 JUMP JUMPDEST PUSH3 0x353 PUSH3 0x344 JUMP JUMPDEST PUSH3 0x360 DUP2 DUP5 DUP5 PUSH3 0x319 JUMP JUMPDEST POP POP POP JUMP JUMPDEST JUMPDEST DUP2 DUP2 LT ISZERO PUSH3 0x388 JUMPI PUSH3 0x37C PUSH1 0x0 DUP3 PUSH3 0x349 JUMP JUMPDEST PUSH1 0x1 DUP2 ADD SWAP1 POP PUSH3 0x366 JUMP JUMPDEST POP POP JUMP JUMPDEST PUSH1 0x1F DUP3 GT ISZERO PUSH3 0x3D7 JUMPI PUSH3 0x3A1 DUP2 PUSH3 0x24B JUMP JUMPDEST PUSH3 0x3AC DUP5 PUSH3 0x260 JUMP JUMPDEST DUP2 ADD PUSH1 0x20 DUP6 LT ISZERO PUSH3 0x3BC JUMPI DUP2 SWAP1 POP JUMPDEST PUSH3 0x3D4 PUSH3 0x3CB DUP6 PUSH3 0x260 JUMP JUMPDEST DUP4 ADD DUP3 PUSH3 0x365 JUMP JUMPDEST POP POP JUMPDEST POP POP POP JUMP JUMPDEST PUSH1 0x0 DUP3 DUP3 SHR SWAP1 POP SWAP3 SWAP2 POP POP JUMP JUMPDEST PUSH1 0x0 PUSH3 0x3FC PUSH1 0x0 NOT DUP5 PUSH1 0x8 MUL PUSH3 0x3DC JUMP JUMPDEST NOT DUP1 DUP4 AND SWAP2 POP POP SWAP3 SWAP2 POP POP JUMP JUMPDEST PUSH1 0x0 PUSH3 0x417 DUP4 DUP4 PUSH3 0x3E9 JUMP JUMPDEST SWAP2 POP DUP3 PUSH1 0x2 MUL DUP3 OR SWAP1 POP SWAP3 SWAP2 POP POP JUMP JUMPDEST PUSH3 0x432 DUP3 PUSH3 0x1AD JUMP JUMPDEST PUSH8 0xFFFFFFFFFFFFFFFF DUP2 GT ISZERO PUSH3 0x44E JUMPI PUSH3 0x44D PUSH3 0x1B8 JUMP JUMPDEST JUMPDEST PUSH3 0x45A DUP3 SLOAD PUSH3 0x216 JUMP JUMPDEST PUSH3 0x467 DUP3 DUP3 DUP6 PUSH3 0x38C JUMP JUMPDEST PUSH1 0x0 PUSH1 0x20 SWAP1 POP PUSH1 0x1F DUP4 GT PUSH1 0x1 DUP2 EQ PUSH3 0x49F JUMPI PUSH1 0x0 DUP5 ISZERO PUSH3 0x48A JUMPI DUP3 DUP8 ADD MLOAD SWAP1 POP JUMPDEST PUSH3 0x496 DUP6 DUP3 PUSH3 0x409 JUMP JUMPDEST DUP7 SSTORE POP PUSH3 0x506 JUMP JUMPDEST PUSH1 0x1F NOT DUP5 AND PUSH3 0x4AF DUP7 PUSH3 0x24B JUMP JUMPDEST PUSH1 0x0 JUMPDEST DUP3 DUP2 LT ISZERO PUSH3 0x4D9 JUMPI DUP5 DUP10 ADD MLOAD DUP3 SSTORE PUSH1 0x1 DUP3 ADD SWAP2 POP PUSH1 0x20 DUP6 ADD SWAP5 POP PUSH1 0x20 DUP2 ADD SWAP1 POP PUSH3 0x4B2 JUMP JUMPDEST DUP7 DUP4 LT ISZERO PUSH3 0x4F9 JUMPI DUP5 DUP10 ADD MLOAD PUSH3 0x4F5 PUSH1 0x1F DUP10 AND DUP3 PUSH3 0x3E9 JUMP JUMPDEST DUP4 SSTORE POP JUMPDEST PUSH1 0x1 PUSH1 0x2 DUP9 MUL ADD DUP9 SSTORE POP POP POP JUMPDEST POP POP POP POP POP POP JUMP JUMPDEST PUSH1 0x0 PUSH1 0x40 MLOAD SWAP1 POP SWAP1 JUMP JUMPDEST PUSH1 0x0 DUP1 REVERT JUMPDEST PUSH1 0x0 DUP1 REVERT JUMPDEST PUSH1 0x0 DUP1 REVERT JUMPDEST PUSH1 0x0 DUP1 REVERT JUMPDEST PUSH1 0x0 PUSH1 0x1F NOT PUSH1 0x1F DUP4 ADD AND SWAP1 POP SWAP2 SWAP1 POP JUMP JUMPDEST PUSH3 0x548 DUP3 PUSH3 0x52C JUMP JUMPDEST DUP2 ADD DUP2 DUP2 LT PUSH8 0xFFFFFFFFFFFFFFFF DUP3 GT OR ISZERO PUSH3 0x56A JUMPI PUSH3 0x569 PUSH3 0x1B8 JUMP JUMPDEST JUMPDEST DUP1 PUSH1 0x40 MSTORE POP POP POP JUMP JUMPDEST PUSH1 0x0 PUSH3 0x57F PUSH3 0x50E JUMP JUMPDEST SWAP1 POP PUSH3 0x58D DUP3 DUP3 PUSH3 0x53D JUMP JUMPDEST SWAP2 SWAP1 POP JUMP JUMPDEST PUSH1 0x0 PUSH8 0xFFFFFFFFFFFFFFFF DUP3 GT ISZERO PUSH3 0x5B0 JUMPI PUSH3 0x5AF PUSH3 0x1B8 JUMP JUMPDEST JUMPDEST PUSH3 0x5BB DUP3 PUSH3 0x52C JUMP JUMPDEST SWAP1 POP PUSH1 0x20 DUP2 ADD SWAP1 POP SWAP2 SWAP1 POP JUMP JUMPDEST PUSH1 0x0 JUMPDEST DUP4 DUP2 LT ISZERO PUSH3 0x5E8 JUMPI DUP1 DUP3 ADD MLOAD DUP2 DUP5 ADD MSTORE PUSH1 0x20 DUP2 ADD SWAP1 POP PUSH3 0x5CB JUMP JUMPDEST PUSH1 0x0 DUP5 DUP5 ADD MSTORE POP POP POP POP JUMP JUMPDEST PUSH1 0x0 PUSH3 0x60B PUSH3 0x605 DUP5 PUSH3 0x592 JUMP JUMPDEST PUSH3 0x573 JUMP JUMPDEST SWAP1 POP DUP3 DUP2 MSTORE PUSH1 0x20 DUP2 ADD DUP5 DUP5 DUP5 ADD GT ISZERO PUSH3 0x62A JUMPI PUSH3 0x629 PUSH3 0x527 JUMP JUMPDEST JUMPDEST PUSH3 0x637 DUP5 DUP3 DUP6 PUSH3 0x5C8 JUMP JUMPDEST POP SWAP4 SWAP3 POP POP POP JUMP JUMPDEST PUSH1 0x0 DUP3 PUSH1 0x1F DUP4 ADD SLT PUSH3 0x657 JUMPI PUSH3 0x656 PUSH3 0x522 JUMP JUMPDEST JUMPDEST DUP2 MLOAD PUSH3 0x669 DUP5 DUP3 PUSH1 0x20 DUP7 ADD PUSH3 0x5F4 JUMP JUMPDEST SWAP2 POP POP SWAP3 SWAP2 POP POP JUMP JUMPDEST PUSH1 0x0 DUP1 PUSH1 0x40 DUP4 DUP6 SUB SLT ISZERO PUSH3 0x68C JUMPI PUSH3 0x68B PUSH3 0x518 JUMP JUMPDEST JUMPDEST PUSH1 0x0 DUP4 ADD MLOAD PUSH8 0xFFFFFFFFFFFFFFFF DUP2 GT ISZERO PUSH3 0x6AD JUMPI PUSH3 0x6AC PUSH3 0x51D JUMP JUMPDEST JUMPDEST PUSH3 0x6BB DUP6 DUP3 DUP7 ADD PUSH3 0x63F JUMP JUMPDEST SWAP3 POP POP PUSH1 0x20 DUP4 ADD MLOAD PUSH8 0xFFFFFFFFFFFFFFFF DUP2 GT ISZERO PUSH3 0x6DF JUMPI PUSH3 0x6DE PUSH3 0x51D JUMP JUMPDEST JUMPDEST PUSH3 0x6ED DUP6 DUP3 DUP7 ADD PUSH3 0x63F JUMP JUMPDEST SWAP2 POP POP SWAP3 POP SWAP3 SWAP1 POP JUMP JUMPDEST PUSH1 0x0 DUP3 DUP3 MSTORE PUSH1 0x20 DUP3 ADD SWAP1 POP SWAP3 SWAP2 POP POP JUMP JUMPDEST PUSH32 0x4552433136353A20696E76616C696420696E7465726661636520696400000000 PUSH1 0x0 DUP3 ADD MSTORE POP JUMP JUMPDEST PUSH1 0x0 PUSH3 0x740 PUSH1 0x1C DUP4 PUSH3 0x6F7 JUMP JUMPDEST SWAP2 POP PUSH3 0x74D DUP3 PUSH3 0x708 JUMP JUMPDEST PUSH1 0x20 DUP3 ADD SWAP1 POP SWAP2 SWAP1 POP JUMP JUMPDEST PUSH1 0x0 PUSH1 0x20 DUP3 ADD SWAP1 POP DUP2 DUP2 SUB PUSH1 0x0 DUP4 ADD MSTORE PUSH3 0x773 DUP2 PUSH3 0x731 JUMP JUMPDEST SWAP1 POP SWAP2 SWAP1 POP JUMP JUMPDEST PUSH2 0x2FB0 DUP1 PUSH3 0x78A PUSH1 0x0 CODECOPY PUSH1 0x0 RETURN INVALID PUSH1 0x80 PUSH1 0x40 MSTORE CALLVALUE DUP1 ISZERO PUSH2 0x10 JUMPI PUSH1 0x0 DUP1 REVERT JUMPDEST POP PUSH1 0x4 CALLDATASIZE LT PUSH2 0xCE JUMPI PUSH1 0x0 CALLDATALOAD PUSH1 0xE0 SHR DUP1 PUSH4 0xA22CB465 GT PUSH2 0x8C JUMPI DUP1 PUSH4 0xC87B56DD GT PUSH2 0x66 JUMPI DUP1 PUSH4 0xC87B56DD EQ PUSH2 0x225 JUMPI DUP1 PUSH4 0xD48E638A EQ PUSH2 0x255 JUMPI DUP1 PUSH4 0xE985E9C5 EQ PUSH2 0x285 JUMPI DUP1 PUSH4 0xF242432A EQ PUSH2 0x2B5 JUMPI PUSH2 0xCE JUMP JUMPDEST DUP1 PUSH4 0xA22CB465 EQ PUSH2 0x1BB JUMPI DUP1 PUSH4 0xC0AC9983 EQ PUSH2 0x1D7 JUMPI DUP1 PUSH4 0xC57DC235 EQ PUSH2 0x1F5 JUMPI PUSH2 0xCE JUMP JUMPDEST DUP1 PUSH3 0xFDD58E EQ PUSH2 0xD3 JUMPI DUP1 PUSH4 0x1FFC9A7 EQ PUSH2 0x103 JUMPI DUP1 PUSH4 0x6FDDE03 EQ PUSH2 0x133 JUMPI DUP1 PUSH4 0x2EB2C2D6 EQ PUSH2 0x151 JUMPI DUP1 PUSH4 0x4E1273F4 EQ PUSH2 0x16D JUMPI DUP1 PUSH4 0x95D89B41 EQ PUSH2 0x19D JUMPI JUMPDEST PUSH1 0x0 DUP1 REVERT JUMPDEST PUSH2 0xED PUSH1 0x4 DUP1 CALLDATASIZE SUB DUP2 ADD SWAP1 PUSH2 0xE8 SWAP2 SWAP1 PUSH2 0x1ADD JUMP JUMPDEST PUSH2 0x2D1 JUMP JUMPDEST PUSH1 0x40 MLOAD PUSH2 0xFA SWAP2 SWAP1 PUSH2 0x1B2C JUMP JUMPDEST PUSH1 0x40 MLOAD DUP1 SWAP2 SUB SWAP1 RETURN JUMPDEST PUSH2 0x11D PUSH1 0x4 DUP1 CALLDATASIZE SUB DUP2 ADD SWAP1 PUSH2 0x118 SWAP2 SWAP1 PUSH2 0x1B9F JUMP JUMPDEST PUSH2 0x3E3 JUMP JUMPDEST PUSH1 0x40 MLOAD PUSH2 0x12A SWAP2 SWAP1 PUSH2 0x1BE7 JUMP JUMPDEST PUSH1 0x40 MLOAD DUP1 SWAP2 SUB SWAP1 RETURN JUMPDEST PUSH2 0x13B PUSH2 0x44A JUMP JUMPDEST PUSH1 0x40 MLOAD PUSH2 0x148 SWAP2 SWAP1 PUSH2 0x1C92 JUMP JUMPDEST PUSH1 0x40 MLOAD DUP1 SWAP2 SUB SWAP1 RETURN JUMPDEST PUSH2 0x16B PUSH1 0x4 DUP1 CALLDATASIZE SUB DUP2 ADD SWAP1 PUSH2 0x166 SWAP2 SWAP1 PUSH2 0x1EB1 JUMP JUMPDEST PUSH2 0x4DC JUMP JUMPDEST STOP JUMPDEST PUSH2 0x187 PUSH1 0x4 DUP1 CALLDATASIZE SUB DUP2 ADD SWAP1 PUSH2 0x182 SWAP2 SWAP1 PUSH2 0x2043 JUMP JUMPDEST PUSH2 0x8B0 JUMP JUMPDEST PUSH1 0x40 MLOAD PUSH2 0x194 SWAP2 SWAP1 PUSH2 0x2179 JUMP JUMPDEST PUSH1 0x40 MLOAD DUP1 SWAP2 SUB SWAP1 RETURN JUMPDEST PUSH2 0x1A5 PUSH2 0xA99 JUMP JUMPDEST PUSH1 0x40 MLOAD PUSH2 0x1B2 SWAP2 SWAP1 PUSH2 0x1C92 JUMP JUMPDEST PUSH1 0x40 MLOAD DUP1 SWAP2 SUB SWAP1 RETURN JUMPDEST PUSH2 0x1D5 PUSH1 0x4 DUP1 CALLDATASIZE SUB DUP2 ADD SWAP1 PUSH2 0x1D0 SWAP2 SWAP1 PUSH2 0x21C7 JUMP JUMPDEST PUSH2 0xB2B JUMP JUMPDEST STOP JUMPDEST PUSH2 0x1DF PUSH2 0xCAB JUMP JUMPDEST PUSH1 0x40 MLOAD PUSH2 0x1EC SWAP2 SWAP1 PUSH2 0x1C92 JUMP JUMPDEST PUSH1 0x40 MLOAD DUP1 SWAP2 SUB SWAP1 RETURN JUMPDEST PUSH2 0x20F PUSH1 0x4 DUP1 CALLDATASIZE SUB DUP2 ADD SWAP1 PUSH2 0x20A SWAP2 SWAP1 PUSH2 0x2207 JUMP JUMPDEST PUSH2 0xD39 JUMP JUMPDEST PUSH1 0x40 MLOAD PUSH2 0x21C SWAP2 SWAP1 PUSH2 0x1B2C JUMP JUMPDEST PUSH1 0x40 MLOAD DUP1 SWAP2 SUB SWAP1 RETURN JUMPDEST PUSH2 0x23F PUSH1 0x4 DUP1 CALLDATASIZE SUB DUP2 ADD SWAP1 PUSH2 0x23A SWAP2 SWAP1 PUSH2 0x2207 JUMP JUMPDEST PUSH2 0xD56 JUMP JUMPDEST PUSH1 0x40 MLOAD PUSH2 0x24C SWAP2 SWAP1 PUSH2 0x1C92 JUMP JUMPDEST PUSH1 0x40 MLOAD DUP1 SWAP2 SUB SWAP1 RETURN JUMPDEST PUSH2 0x26F PUSH1 0x4 DUP1 CALLDATASIZE SUB DUP2 ADD SWAP1 PUSH2 0x26A SWAP2 SWAP1 PUSH2 0x2207 JUMP JUMPDEST PUSH2 0xF4B JUMP JUMPDEST PUSH1 0x40 MLOAD PUSH2 0x27C SWAP2 SWAP1 PUSH2 0x2243 JUMP JUMPDEST PUSH1 0x40 MLOAD DUP1 SWAP2 SUB SWAP1 RETURN JUMPDEST PUSH2 0x29F PUSH1 0x4 DUP1 CALLDATASIZE SUB DUP2 ADD SWAP1 PUSH2 0x29A SWAP2 SWAP1 PUSH2 0x225E JUMP JUMPDEST PUSH2 0xF88 JUMP JUMPDEST PUSH1 0x40 MLOAD PUSH2 0x2AC SWAP2 SWAP1 PUSH2 0x1BE7 JUMP JUMPDEST PUSH1 0x40 MLOAD DUP1 SWAP2 SUB SWAP1 RETURN JUMPDEST PUSH2 0x2CF PUSH1 0x4 DUP1 CALLDATASIZE SUB DUP2 ADD SWAP1 PUSH2 0x2CA SWAP2 SWAP1 PUSH2 0x229E JUMP JUMPDEST PUSH2 0x101C JUMP JUMPDEST STOP JUMPDEST PUSH1 0x0 PUSH2 0x2DC DUP3 PUSH2 0x135E JUMP JUMPDEST PUSH2 0x31B JUMPI PUSH1 0x40 MLOAD PUSH32 0x8C379A000000000000000000000000000000000000000000000000000000000 DUP2 MSTORE PUSH1 0x4 ADD PUSH2 0x312 SWAP1 PUSH2 0x23A7 JUMP JUMPDEST PUSH1 0x40 MLOAD DUP1 SWAP2 SUB SWAP1 REVERT JUMPDEST PUSH1 0x0 PUSH20 0xFFFFFFFFFFFFFFFFFFFFFFFFFFFFFFFFFFFFFFFF AND DUP4 PUSH20 0xFFFFFFFFFFFFFFFFFFFFFFFFFFFFFFFFFFFFFFFF AND SUB PUSH2 0x38A JUMPI PUSH1 0x40 MLOAD PUSH32 0x8C379A000000000000000000000000000000000000000000000000000000000 DUP2 MSTORE PUSH1 0x4 ADD PUSH2 0x381 SWAP1 PUSH2 0x2439 JUMP JUMPDEST PUSH1 0x40 MLOAD DUP1 SWAP2 SUB SWAP1 REVERT JUMPDEST PUSH1 0x3 PUSH1 0x0 DUP4 DUP2 MSTORE PUSH1 0x20 ADD SWAP1 DUP2 MSTORE PUSH1 0x20 ADD PUSH1 0x0 KECCAK256 PUSH1 0x0 DUP5 PUSH20 0xFFFFFFFFFFFFFFFFFFFFFFFFFFFFFFFFFFFFFFFF AND PUSH20 0xFFFFFFFFFFFFFFFFFFFFFFFFFFFFFFFFFFFFFFFF AND DUP2 MSTORE PUSH1 0x20 ADD SWAP1 DUP2 MSTORE PUSH1 0x20 ADD PUSH1 0x0 KECCAK256 SLOAD SWAP1 POP SWAP3 SWAP2 POP POP JUMP JUMPDEST PUSH1 0x0 DUP1 PUSH1 0x0 DUP4 PUSH28 0xFFFFFFFFFFFFFFFFFFFFFFFFFFFFFFFFFFFFFFFFFFFFFFFFFFFFFFFF NOT AND PUSH28 0xFFFFFFFFFFFFFFFFFFFFFFFFFFFFFFFFFFFFFFFFFFFFFFFFFFFFFFFF NOT AND DUP2 MSTORE PUSH1 0x20 ADD SWAP1 DUP2 MSTORE PUSH1 0x20 ADD PUSH1 0x0 KECCAK256 PUSH1 0x0 SWAP1 SLOAD SWAP1 PUSH2 0x100 EXP SWAP1 DIV PUSH1 0xFF AND SWAP1 POP SWAP2 SWAP1 POP JUMP JUMPDEST PUSH1 0x60 PUSH1 0x9 DUP1 SLOAD PUSH2 0x459 SWAP1 PUSH2 0x2488 JUMP JUMPDEST DUP1 PUSH1 0x1F ADD PUSH1 0x20 DUP1 SWAP2 DIV MUL PUSH1 0x20 ADD PUSH1 0x40 MLOAD SWAP1 DUP2 ADD PUSH1 0x40 MSTORE DUP1 SWAP3 SWAP2 SWAP1 DUP2 DUP2 MSTORE PUSH1 0x20 ADD DUP3 DUP1 SLOAD PUSH2 0x485 SWAP1 PUSH2 0x2488 JUMP JUMPDEST DUP1 ISZERO PUSH2 0x4D2 JUMPI DUP1 PUSH1 0x1F LT PUSH2 0x4A7 JUMPI PUSH2 0x100 DUP1 DUP4 SLOAD DIV MUL DUP4 MSTORE SWAP2 PUSH1 0x20 ADD SWAP2 PUSH2 0x4D2 JUMP JUMPDEST DUP3 ADD SWAP2 SWAP1 PUSH1 0x0 MSTORE PUSH1 0x20 PUSH1 0x0 KECCAK256 SWAP1 JUMPDEST DUP2 SLOAD DUP2 MSTORE SWAP1 PUSH1 0x1 ADD SWAP1 PUSH1 0x20 ADD DUP1 DUP4 GT PUSH2 0x4B5 JUMPI DUP3 SWAP1 SUB PUSH1 0x1F AND DUP3 ADD SWAP2 JUMPDEST POP POP POP POP POP SWAP1 POP SWAP1 JUMP JUMPDEST DUP2 MLOAD DUP4 MLOAD EQ PUSH2 0x520 JUMPI PUSH1 0x40 MLOAD PUSH32 0x8C379A000000000000000000000000000000000000000000000000000000000 DUP2 MSTORE PUSH1 0x4 ADD PUSH2 0x517 SWAP1 PUSH2 0x252B JUMP JUMPDEST PUSH1 0x40 MLOAD DUP1 SWAP2 SUB SWAP1 REVERT JUMPDEST PUSH1 0x0 PUSH20 0xFFFFFFFFFFFFFFFFFFFFFFFFFFFFFFFFFFFFFFFF AND DUP5 PUSH20 0xFFFFFFFFFFFFFFFFFFFFFFFFFFFFFFFFFFFFFFFF AND SUB PUSH2 0x58F JUMPI PUSH1 0x40 MLOAD PUSH32 0x8C379A000000000000000000000000000000000000000000000000000000000 DUP2 MSTORE PUSH1 0x4 ADD PUSH2 0x586 SWAP1 PUSH2 0x25BD JUMP JUMPDEST PUSH1 0x40 MLOAD DUP1 SWAP2 SUB SWAP1 REVERT JUMPDEST PUSH2 0x597 PUSH2 0x137B JUMP JUMPDEST PUSH20 0xFFFFFFFFFFFFFFFFFFFFFFFFFFFFFFFFFFFFFFFF AND DUP6 PUSH20 0xFFFFFFFFFFFFFFFFFFFFFFFFFFFFFFFFFFFFFFFF AND EQ DUP1 PUSH2 0x5DD JUMPI POP PUSH2 0x5DC DUP6 PUSH2 0x5D7 PUSH2 0x137B JUMP JUMPDEST PUSH2 0xF88 JUMP JUMPDEST JUMPDEST PUSH2 0x61C JUMPI PUSH1 0x40 MLOAD PUSH32 0x8C379A000000000000000000000000000000000000000000000000000000000 DUP2 MSTORE PUSH1 0x4 ADD PUSH2 0x613 SWAP1 PUSH2 0x264F JUMP JUMPDEST PUSH1 0x40 MLOAD DUP1 SWAP2 SUB SWAP1 REVERT JUMPDEST PUSH1 0x0 PUSH2 0x626 PUSH2 0x137B JUMP JUMPDEST SWAP1 POP PUSH2 0x636 DUP2 DUP8 DUP8 DUP8 DUP8 DUP8 PUSH2 0x1383 JUMP JUMPDEST PUSH1 0x0 JUMPDEST DUP5 MLOAD DUP2 LT ISZERO PUSH2 0x81B JUMPI PUSH1 0x0 DUP6 DUP3 DUP2 MLOAD DUP2 LT PUSH2 0x657 JUMPI PUSH2 0x656 PUSH2 0x266F JUMP JUMPDEST JUMPDEST PUSH1 0x20 MUL PUSH1 0x20 ADD ADD MLOAD SWAP1 POP PUSH1 0x0 DUP6 DUP4 DUP2 MLOAD DUP2 LT PUSH2 0x676 JUMPI PUSH2 0x675 PUSH2 0x266F JUMP JUMPDEST JUMPDEST PUSH1 0x20 MUL PUSH1 0x20 ADD ADD MLOAD SWAP1 POP PUSH2 0x6FD DUP2 PUSH1 0x40 MLOAD DUP1 PUSH1 0x60 ADD PUSH1 0x40 MSTORE DUP1 PUSH1 0x2A DUP2 MSTORE PUSH1 0x20 ADD PUSH2 0x2F51 PUSH1 0x2A SWAP2 CODECOPY PUSH1 0x3 PUSH1 0x0 DUP7 DUP2 MSTORE PUSH1 0x20 ADD SWAP1 DUP2 MSTORE PUSH1 0x20 ADD PUSH1 0x0 KECCAK256 PUSH1 0x0 DUP14 PUSH20 0xFFFFFFFFFFFFFFFFFFFFFFFFFFFFFFFFFFFFFFFF AND PUSH20 0xFFFFFFFFFFFFFFFFFFFFFFFFFFFFFFFFFFFFFFFF AND DUP2 MSTORE PUSH1 0x20 ADD SWAP1 DUP2 MSTORE PUSH1 0x20 ADD PUSH1 0x0 KECCAK256 SLOAD PUSH2 0x138B SWAP1 SWAP3 SWAP2 SWAP1 PUSH4 0xFFFFFFFF AND JUMP JUMPDEST PUSH1 0x3 PUSH1 0x0 DUP5 DUP2 MSTORE PUSH1 0x20 ADD SWAP1 DUP2 MSTORE PUSH1 0x20 ADD PUSH1 0x0 KECCAK256 PUSH1 0x0 DUP12 PUSH20 0xFFFFFFFFFFFFFFFFFFFFFFFFFFFFFFFFFFFFFFFF AND PUSH20 0xFFFFFFFFFFFFFFFFFFFFFFFFFFFFFFFFFFFFFFFF AND DUP2 MSTORE PUSH1 0x20 ADD SWAP1 DUP2 MSTORE PUSH1 0x20 ADD PUSH1 0x0 KECCAK256 DUP2 SWAP1 SSTORE POP PUSH2 0x7B4 DUP2 PUSH1 0x3 PUSH1 0x0 DUP6 DUP2 MSTORE PUSH1 0x20 ADD SWAP1 DUP2 MSTORE PUSH1 0x20 ADD PUSH1 0x0 KECCAK256 PUSH1 0x0 DUP12 PUSH20 0xFFFFFFFFFFFFFFFFFFFFFFFFFFFFFFFFFFFFFFFF AND PUSH20 0xFFFFFFFFFFFFFFFFFFFFFFFFFFFFFFFFFFFFFFFF AND DUP2 MSTORE PUSH1 0x20 ADD SWAP1 DUP2 MSTORE PUSH1 0x20 ADD PUSH1 0x0 KECCAK256 SLOAD PUSH2 0x13EF SWAP1 SWAP2 SWAP1 PUSH4 0xFFFFFFFF AND JUMP JUMPDEST PUSH1 0x3 PUSH1 0x0 DUP5 DUP2 MSTORE PUSH1 0x20 ADD SWAP1 DUP2 MSTORE PUSH1 0x20 ADD PUSH1 0x0 KECCAK256 PUSH1 0x0 DUP11 PUSH20 0xFFFFFFFFFFFFFFFFFFFFFFFFFFFFFFFFFFFFFFFF AND PUSH20 0xFFFFFFFFFFFFFFFFFFFFFFFFFFFFFFFFFFFFFFFF AND DUP2 MSTORE PUSH1 0x20 ADD SWAP1 DUP2 MSTORE PUSH1 0x20 ADD PUSH1 0x0 KECCAK256 DUP2 SWAP1 SSTORE POP POP POP DUP1 PUSH2 0x814 SWAP1 PUSH2 0x26CD JUMP JUMPDEST SWAP1 POP PUSH2 0x639 JUMP JUMPDEST POP DUP5 PUSH20 0xFFFFFFFFFFFFFFFFFFFFFFFFFFFFFFFFFFFFFFFF AND DUP7 PUSH20 0xFFFFFFFFFFFFFFFFFFFFFFFFFFFFFFFFFFFFFFFF AND DUP3 PUSH20 0xFFFFFFFFFFFFFFFFFFFFFFFFFFFFFFFFFFFFFFFF AND PUSH32 0x4A39DC06D4C0DBC64B70AF90FD698A233A518AA5D07E595D983B8C0526C8F7FB DUP8 DUP8 PUSH1 0x40 MLOAD PUSH2 0x892 SWAP3 SWAP2 SWAP1 PUSH2 0x2715 JUMP JUMPDEST PUSH1 0x40 MLOAD DUP1 SWAP2 SUB SWAP1 LOG4 PUSH2 0x8A8 DUP2 DUP8 DUP8 DUP8 DUP8 DUP8 PUSH2 0x144D JUMP JUMPDEST POP POP POP POP POP POP JUMP JUMPDEST PUSH1 0x60 DUP2 MLOAD DUP4 MLOAD EQ PUSH2 0x8F6 JUMPI PUSH1 0x40 MLOAD PUSH32 0x8C379A000000000000000000000000000000000000000000000000000000000 DUP2 MSTORE PUSH1 0x4 ADD PUSH2 0x8ED SWAP1 PUSH2 0x27BE JUMP JUMPDEST PUSH1 0x40 MLOAD DUP1 SWAP2 SUB SWAP1 REVERT JUMPDEST PUSH1 0x0 DUP4 MLOAD PUSH8 0xFFFFFFFFFFFFFFFF DUP2 GT ISZERO PUSH2 0x913 JUMPI PUSH2 0x912 PUSH2 0x1CB9 JUMP JUMPDEST JUMPDEST PUSH1 0x40 MLOAD SWAP1 DUP1 DUP3 MSTORE DUP1 PUSH1 0x20 MUL PUSH1 0x20 ADD DUP3 ADD PUSH1 0x40 MSTORE DUP1 ISZERO PUSH2 0x941 JUMPI DUP2 PUSH1 0x20 ADD PUSH1 0x20 DUP3 MUL DUP1 CALLDATASIZE DUP4 CALLDATACOPY DUP1 DUP3 ADD SWAP2 POP POP SWAP1 POP JUMPDEST POP SWAP1 POP PUSH1 0x0 JUMPDEST DUP5 MLOAD DUP2 LT ISZERO PUSH2 0xA8E JUMPI PUSH1 0x0 PUSH20 0xFFFFFFFFFFFFFFFFFFFFFFFFFFFFFFFFFFFFFFFF AND DUP6 DUP3 DUP2 MLOAD DUP2 LT PUSH2 0x97B JUMPI PUSH2 0x97A PUSH2 0x266F JUMP JUMPDEST JUMPDEST PUSH1 0x20 MUL PUSH1 0x20 ADD ADD MLOAD PUSH20 0xFFFFFFFFFFFFFFFFFFFFFFFFFFFFFFFFFFFFFFFF AND SUB PUSH2 0x9D9 JUMPI PUSH1 0x40 MLOAD PUSH32 0x8C379A000000000000000000000000000000000000000000000000000000000 DUP2 MSTORE PUSH1 0x4 ADD PUSH2 0x9D0 SWAP1 PUSH2 0x2850 JUMP JUMPDEST PUSH1 0x40 MLOAD DUP1 SWAP2 SUB SWAP1 REVERT JUMPDEST PUSH1 0x3 PUSH1 0x0 DUP6 DUP4 DUP2 MLOAD DUP2 LT PUSH2 0x9F0 JUMPI PUSH2 0x9EF PUSH2 0x266F JUMP JUMPDEST JUMPDEST PUSH1 0x20 MUL PUSH1 0x20 ADD ADD MLOAD DUP2 MSTORE PUSH1 0x20 ADD SWAP1 DUP2 MSTORE PUSH1 0x20 ADD PUSH1 0x0 KECCAK256 PUSH1 0x0 DUP7 DUP4 DUP2 MLOAD DUP2 LT PUSH2 0xA1B JUMPI PUSH2 0xA1A PUSH2 0x266F JUMP JUMPDEST JUMPDEST PUSH1 0x20 MUL PUSH1 0x20 ADD ADD MLOAD PUSH20 0xFFFFFFFFFFFFFFFFFFFFFFFFFFFFFFFFFFFFFFFF AND PUSH20 0xFFFFFFFFFFFFFFFFFFFFFFFFFFFFFFFFFFFFFFFF AND DUP2 MSTORE PUSH1 0x20 ADD SWAP1 DUP2 MSTORE PUSH1 0x20 ADD PUSH1 0x0 KECCAK256 SLOAD DUP3 DUP3 DUP2 MLOAD DUP2 LT PUSH2 0xA71 JUMPI PUSH2 0xA70 PUSH2 0x266F JUMP JUMPDEST JUMPDEST PUSH1 0x20 MUL PUSH1 0x20 ADD ADD DUP2 DUP2 MSTORE POP POP DUP1 PUSH2 0xA87 SWAP1 PUSH2 0x26CD JUMP JUMPDEST SWAP1 POP PUSH2 0x947 JUMP JUMPDEST POP DUP1 SWAP2 POP POP SWAP3 SWAP2 POP POP JUMP JUMPDEST PUSH1 0x60 PUSH1 0xA DUP1 SLOAD PUSH2 0xAA8 SWAP1 PUSH2 0x2488 JUMP JUMPDEST DUP1 PUSH1 0x1F ADD PUSH1 0x20 DUP1 SWAP2 DIV MUL PUSH1 0x20 ADD PUSH1 0x40 MLOAD SWAP1 DUP2 ADD PUSH1 0x40 MSTORE DUP1 SWAP3 SWAP2 SWAP1 DUP2 DUP2 MSTORE PUSH1 0x20 ADD DUP3 DUP1 SLOAD PUSH2 0xAD4 SWAP1 PUSH2 0x2488 JUMP JUMPDEST DUP1 ISZERO PUSH2 0xB21 JUMPI DUP1 PUSH1 0x1F LT PUSH2 0xAF6 JUMPI PUSH2 0x100 DUP1 DUP4 SLOAD DIV MUL DUP4 MSTORE SWAP2 PUSH1 0x20 ADD SWAP2 PUSH2 0xB21 JUMP JUMPDEST DUP3 ADD SWAP2 SWAP1 PUSH1 0x0 MSTORE PUSH1 0x20 PUSH1 0x0 KECCAK256 SWAP1 JUMPDEST DUP2 SLOAD DUP2 MSTORE SWAP1 PUSH1 0x1 ADD SWAP1 PUSH1 0x20 ADD DUP1 DUP4 GT PUSH2 0xB04 JUMPI DUP3 SWAP1 SUB PUSH1 0x1F AND DUP3 ADD SWAP2 JUMPDEST POP POP POP POP POP SWAP1 POP SWAP1 JUMP JUMPDEST DUP2 PUSH20 0xFFFFFFFFFFFFFFFFFFFFFFFFFFFFFFFFFFFFFFFF AND PUSH2 0xB4A PUSH2 0x137B JUMP JUMPDEST PUSH20 0xFFFFFFFFFFFFFFFFFFFFFFFFFFFFFFFFFFFFFFFF AND SUB PUSH2 0xBA0 JUMPI PUSH1 0x40 MLOAD PUSH32 0x8C379A000000000000000000000000000000000000000000000000000000000 DUP2 MSTORE PUSH1 0x4 ADD PUSH2 0xB97 SWAP1 PUSH2 0x28E2 JUMP JUMPDEST PUSH1 0x40 MLOAD DUP1 SWAP2 SUB SWAP1 REVERT JUMPDEST DUP1 PUSH1 0x4 PUSH1 0x0 PUSH2 0xBAD PUSH2 0x137B JUMP JUMPDEST PUSH20 0xFFFFFFFFFFFFFFFFFFFFFFFFFFFFFFFFFFFFFFFF AND PUSH20 0xFFFFFFFFFFFFFFFFFFFFFFFFFFFFFFFFFFFFFFFF AND DUP2 MSTORE PUSH1 0x20 ADD SWAP1 DUP2 MSTORE PUSH1 0x20 ADD PUSH1 0x0 KECCAK256 PUSH1 0x0 DUP5 PUSH20 0xFFFFFFFFFFFFFFFFFFFFFFFFFFFFFFFFFFFFFFFF AND PUSH20 0xFFFFFFFFFFFFFFFFFFFFFFFFFFFFFFFFFFFFFFFF AND DUP2 MSTORE PUSH1 0x20 ADD SWAP1 DUP2 MSTORE PUSH1 0x20 ADD PUSH1 0x0 KECCAK256 PUSH1 0x0 PUSH2 0x100 EXP DUP2 SLOAD DUP2 PUSH1 0xFF MUL NOT AND SWAP1 DUP4 ISZERO ISZERO MUL OR SWAP1 SSTORE POP DUP2 PUSH20 0xFFFFFFFFFFFFFFFFFFFFFFFFFFFFFFFFFFFFFFFF AND PUSH2 0xC5A PUSH2 0x137B JUMP JUMPDEST PUSH20 0xFFFFFFFFFFFFFFFFFFFFFFFFFFFFFFFFFFFFFFFF AND PUSH32 0x17307EAB39AB6107E8899845AD3D59BD9653F200F220920489CA2B5937696C31 DUP4 PUSH1 0x40 MLOAD PUSH2 0xC9F SWAP2 SWAP1 PUSH2 0x1BE7 JUMP JUMPDEST PUSH1 0x40 MLOAD DUP1 SWAP2 SUB SWAP1 LOG3 POP POP JUMP JUMPDEST PUSH1 0x5 DUP1 SLOAD PUSH2 0xCB8 SWAP1 PUSH2 0x2488 JUMP JUMPDEST DUP1 PUSH1 0x1F ADD PUSH1 0x20 DUP1 SWAP2 DIV MUL PUSH1 0x20 ADD PUSH1 0x40 MLOAD SWAP1 DUP2 ADD PUSH1 0x40 MSTORE DUP1 SWAP3 SWAP2 SWAP1 DUP2 DUP2 MSTORE PUSH1 0x20 ADD DUP3 DUP1 SLOAD PUSH2 0xCE4 SWAP1 PUSH2 0x2488 JUMP JUMPDEST DUP1 ISZERO PUSH2 0xD31 JUMPI DUP1 PUSH1 0x1F LT PUSH2 0xD06 JUMPI PUSH2 0x100 DUP1 DUP4 SLOAD DIV MUL DUP4 MSTORE SWAP2 PUSH1 0x20 ADD SWAP2 PUSH2 0xD31 JUMP JUMPDEST DUP3 ADD SWAP2 SWAP1 PUSH1 0x0 MSTORE PUSH1 0x20 PUSH1 0x0 KECCAK256 SWAP1 JUMPDEST DUP2 SLOAD DUP2 MSTORE SWAP1 PUSH1 0x1 ADD SWAP1 PUSH1 0x20 ADD DUP1 DUP4 GT PUSH2 0xD14 JUMPI DUP3 SWAP1 SUB PUSH1 0x1F AND DUP3 ADD SWAP2 JUMPDEST POP POP POP POP POP DUP2 JUMP JUMPDEST PUSH1 0x0 PUSH1 0x2 PUSH1 0x0 DUP4 DUP2 MSTORE PUSH1 0x20 ADD SWAP1 DUP2 MSTORE PUSH1 0x20 ADD PUSH1 0x0 KECCAK256 SLOAD SWAP1 POP SWAP2 SWAP1 POP JUMP JUMPDEST PUSH1 0x60 PUSH2 0xD61 DUP3 PUSH2 0x135E JUMP JUMPDEST PUSH2 0xDA0 JUMPI PUSH1 0x40 MLOAD PUSH32 0x8C379A000000000000000000000000000000000000000000000000000000000 DUP2 MSTORE PUSH1 0x4 ADD PUSH2 0xD97 SWAP1 PUSH2 0x2974 JUMP JUMPDEST PUSH1 0x40 MLOAD DUP1 SWAP2 SUB SWAP1 REVERT JUMPDEST PUSH1 0x0 PUSH1 0x6 PUSH1 0x0 DUP5 DUP2 MSTORE PUSH1 0x20 ADD SWAP1 DUP2 MSTORE PUSH1 0x20 ADD PUSH1 0x0 KECCAK256 DUP1 SLOAD PUSH2 0xDC0 SWAP1 PUSH2 0x2488 JUMP JUMPDEST DUP1 PUSH1 0x1F ADD PUSH1 0x20 DUP1 SWAP2 DIV MUL PUSH1 0x20 ADD PUSH1 0x40 MLOAD SWAP1 DUP2 ADD PUSH1 0x40 MSTORE DUP1 SWAP3 SWAP2 SWAP1 DUP2 DUP2 MSTORE PUSH1 0x20 ADD DUP3 DUP1 SLOAD PUSH2 0xDEC SWAP1 PUSH2 0x2488 JUMP JUMPDEST DUP1 ISZERO PUSH2 0xE39 JUMPI DUP1 PUSH1 0x1F LT PUSH2 0xE0E JUMPI PUSH2 0x100 DUP1 DUP4 SLOAD DIV MUL DUP4 MSTORE SWAP2 PUSH1 0x20 ADD SWAP2 PUSH2 0xE39 JUMP JUMPDEST DUP3 ADD SWAP2 SWAP1 PUSH1 0x0 MSTORE PUSH1 0x20 PUSH1 0x0 KECCAK256 SWAP1 JUMPDEST DUP2 SLOAD DUP2 MSTORE SWAP1 PUSH1 0x1 ADD SWAP1 PUSH1 0x20 ADD DUP1 DUP4 GT PUSH2 0xE1C JUMPI DUP3 SWAP1 SUB PUSH1 0x1F AND DUP3 ADD SWAP2 JUMPDEST POP POP POP POP POP SWAP1 POP PUSH1 0x0 PUSH1 0x5 DUP1 SLOAD PUSH2 0xE4F SWAP1 PUSH2 0x2488 JUMP JUMPDEST DUP1 PUSH1 0x1F ADD PUSH1 0x20 DUP1 SWAP2 DIV MUL PUSH1 0x20 ADD PUSH1 0x40 MLOAD SWAP1 DUP2 ADD PUSH1 0x40 MSTORE DUP1 SWAP3 SWAP2 SWAP1 DUP2 DUP2 MSTORE PUSH1 0x20 ADD DUP3 DUP1 SLOAD PUSH2 0xE7B SWAP1 PUSH2 0x2488 JUMP JUMPDEST DUP1 ISZERO PUSH2 0xEC8 JUMPI DUP1 PUSH1 0x1F LT PUSH2 0xE9D JUMPI PUSH2 0x100 DUP1 DUP4 SLOAD DIV MUL DUP4 MSTORE SWAP2 PUSH1 0x20 ADD SWAP2 PUSH2 0xEC8 JUMP JUMPDEST DUP3 ADD SWAP2 SWAP1 PUSH1 0x0 MSTORE PUSH1 0x20 PUSH1 0x0 KECCAK256 SWAP1 JUMPDEST DUP2 SLOAD DUP2 MSTORE SWAP1 PUSH1 0x1 ADD SWAP1 PUSH1 0x20 ADD DUP1 DUP4 GT PUSH2 0xEAB JUMPI DUP3 SWAP1 SUB PUSH1 0x1F AND DUP3 ADD SWAP2 JUMPDEST POP POP POP POP POP SWAP1 POP PUSH1 0x0 DUP2 MLOAD SUB PUSH2 0xEE2 JUMPI DUP2 SWAP3 POP POP POP PUSH2 0xF46 JUMP JUMPDEST PUSH1 0x0 DUP3 MLOAD GT ISZERO PUSH2 0xF17 JUMPI DUP1 DUP3 PUSH1 0x40 MLOAD PUSH1 0x20 ADD PUSH2 0xEFF SWAP3 SWAP2 SWAP1 PUSH2 0x29D0 JUMP JUMPDEST PUSH1 0x40 MLOAD PUSH1 0x20 DUP2 DUP4 SUB SUB DUP2 MSTORE SWAP1 PUSH1 0x40 MSTORE SWAP3 POP POP POP PUSH2 0xF46 JUMP JUMPDEST DUP1 PUSH2 0xF21 DUP6 PUSH2 0x1624 JUMP JUMPDEST PUSH1 0x40 MLOAD PUSH1 0x20 ADD PUSH2 0xF32 SWAP3 SWAP2 SWAP1 PUSH2 0x29D0 JUMP JUMPDEST PUSH1 0x40 MLOAD PUSH1 0x20 DUP2 DUP4 SUB SUB DUP2 MSTORE SWAP1 PUSH1 0x40 MSTORE SWAP3 POP POP POP JUMPDEST SWAP2 SWAP1 POP JUMP JUMPDEST PUSH1 0x0 PUSH1 0x1 PUSH1 0x0 DUP4 DUP2 MSTORE PUSH1 0x20 ADD SWAP1 DUP2 MSTORE PUSH1 0x20 ADD PUSH1 0x0 KECCAK256 PUSH1 0x0 SWAP1 SLOAD SWAP1 PUSH2 0x100 EXP SWAP1 DIV PUSH20 0xFFFFFFFFFFFFFFFFFFFFFFFFFFFFFFFFFFFFFFFF AND SWAP1 POP SWAP2 SWAP1 POP JUMP JUMPDEST PUSH1 0x0 PUSH1 0x4 PUSH1 0x0 DUP5 PUSH20 0xFFFFFFFFFFFFFFFFFFFFFFFFFFFFFFFFFFFFFFFF AND PUSH20 0xFFFFFFFFFFFFFFFFFFFFFFFFFFFFFFFFFFFFFFFF AND DUP2 MSTORE PUSH1 0x20 ADD SWAP1 DUP2 MSTORE PUSH1 0x20 ADD PUSH1 0x0 KECCAK256 PUSH1 0x0 DUP4 PUSH20 0xFFFFFFFFFFFFFFFFFFFFFFFFFFFFFFFFFFFFFFFF AND PUSH20 0xFFFFFFFFFFFFFFFFFFFFFFFFFFFFFFFFFFFFFFFF AND DUP2 MSTORE PUSH1 0x20 ADD SWAP1 DUP2 MSTORE PUSH1 0x20 ADD PUSH1 0x0 KECCAK256 PUSH1 0x0 SWAP1 SLOAD SWAP1 PUSH2 0x100 EXP SWAP1 DIV PUSH1 0xFF AND SWAP1 POP SWAP3 SWAP2 POP POP JUMP JUMPDEST PUSH1 0x0 PUSH20 0xFFFFFFFFFFFFFFFFFFFFFFFFFFFFFFFFFFFFFFFF AND DUP5 PUSH20 0xFFFFFFFFFFFFFFFFFFFFFFFFFFFFFFFFFFFFFFFF AND SUB PUSH2 0x108B JUMPI PUSH1 0x40 MLOAD PUSH32 0x8C379A000000000000000000000000000000000000000000000000000000000 DUP2 MSTORE PUSH1 0x4 ADD PUSH2 0x1082 SWAP1 PUSH2 0x25BD JUMP JUMPDEST PUSH1 0x40 MLOAD DUP1 SWAP2 SUB SWAP1 REVERT JUMPDEST PUSH2 0x1093 PUSH2 0x137B JUMP JUMPDEST PUSH20 0xFFFFFFFFFFFFFFFFFFFFFFFFFFFFFFFFFFFFFFFF AND DUP6 PUSH20 0xFFFFFFFFFFFFFFFFFFFFFFFFFFFFFFFFFFFFFFFF AND EQ DUP1 PUSH2 0x10D9 JUMPI POP PUSH2 0x10D8 DUP6 PUSH2 0x10D3 PUSH2 0x137B JUMP JUMPDEST PUSH2 0xF88 JUMP JUMPDEST JUMPDEST PUSH2 0x1118 JUMPI PUSH1 0x40 MLOAD PUSH32 0x8C379A000000000000000000000000000000000000000000000000000000000 DUP2 MSTORE PUSH1 0x4 ADD PUSH2 0x110F SWAP1 PUSH2 0x2A66 JUMP JUMPDEST PUSH1 0x40 MLOAD DUP1 SWAP2 SUB SWAP1 REVERT JUMPDEST PUSH1 0x0 PUSH2 0x1122 PUSH2 0x137B JUMP JUMPDEST SWAP1 POP PUSH2 0x1142 DUP2 DUP8 DUP8 PUSH2 0x1133 DUP9 PUSH2 0x1784 JUMP JUMPDEST PUSH2 0x113C DUP9 PUSH2 0x1784 JUMP JUMPDEST DUP8 PUSH2 0x1383 JUMP JUMPDEST PUSH2 0x11BF DUP4 PUSH1 0x40 MLOAD DUP1 PUSH1 0x60 ADD PUSH1 0x40 MSTORE DUP1 PUSH1 0x2A DUP2 MSTORE PUSH1 0x20 ADD PUSH2 0x2F51 PUSH1 0x2A SWAP2 CODECOPY PUSH1 0x3 PUSH1 0x0 DUP9 DUP2 MSTORE PUSH1 0x20 ADD SWAP1 DUP2 MSTORE PUSH1 0x20 ADD PUSH1 0x0 KECCAK256 PUSH1 0x0 DUP11 PUSH20 0xFFFFFFFFFFFFFFFFFFFFFFFFFFFFFFFFFFFFFFFF AND PUSH20 0xFFFFFFFFFFFFFFFFFFFFFFFFFFFFFFFFFFFFFFFF AND DUP2 MSTORE PUSH1 0x20 ADD SWAP1 DUP2 MSTORE PUSH1 0x20 ADD PUSH1 0x0 KECCAK256 SLOAD PUSH2 0x138B SWAP1 SWAP3 SWAP2 SWAP1 PUSH4 0xFFFFFFFF AND JUMP JUMPDEST PUSH1 0x3 PUSH1 0x0 DUP7 DUP2 MSTORE PUSH1 0x20 ADD SWAP1 DUP2 MSTORE PUSH1 0x20 ADD PUSH1 0x0 KECCAK256 PUSH1 0x0 DUP9 PUSH20 0xFFFFFFFFFFFFFFFFFFFFFFFFFFFFFFFFFFFFFFFF AND PUSH20 0xFFFFFFFFFFFFFFFFFFFFFFFFFFFFFFFFFFFFFFFF AND DUP2 MSTORE PUSH1 0x20 ADD SWAP1 DUP2 MSTORE PUSH1 0x20 ADD PUSH1 0x0 KECCAK256 DUP2 SWAP1 SSTORE POP PUSH2 0x1276 DUP4 PUSH1 0x3 PUSH1 0x0 DUP8 DUP2 MSTORE PUSH1 0x20 ADD SWAP1 DUP2 MSTORE PUSH1 0x20 ADD PUSH1 0x0 KECCAK256 PUSH1 0x0 DUP9 PUSH20 0xFFFFFFFFFFFFFFFFFFFFFFFFFFFFFFFFFFFFFFFF AND PUSH20 0xFFFFFFFFFFFFFFFFFFFFFFFFFFFFFFFFFFFFFFFF AND DUP2 MSTORE PUSH1 0x20 ADD SWAP1 DUP2 MSTORE PUSH1 0x20 ADD PUSH1 0x0 KECCAK256 SLOAD PUSH2 0x13EF SWAP1 SWAP2 SWAP1 PUSH4 0xFFFFFFFF AND JUMP JUMPDEST PUSH1 0x3 PUSH1 0x0 DUP7 DUP2 MSTORE PUSH1 0x20 ADD SWAP1 DUP2 MSTORE PUSH1 0x20 ADD PUSH1 0x0 KECCAK256 PUSH1 0x0 DUP8 PUSH20 0xFFFFFFFFFFFFFFFFFFFFFFFFFFFFFFFFFFFFFFFF AND PUSH20 0xFFFFFFFFFFFFFFFFFFFFFFFFFFFFFFFFFFFFFFFF AND DUP2 MSTORE PUSH1 0x20 ADD SWAP1 DUP2 MSTORE PUSH1 0x20 ADD PUSH1 0x0 KECCAK256 DUP2 SWAP1 SSTORE POP DUP5 PUSH20 0xFFFFFFFFFFFFFFFFFFFFFFFFFFFFFFFFFFFFFFFF AND DUP7 PUSH20 0xFFFFFFFFFFFFFFFFFFFFFFFFFFFFFFFFFFFFFFFF AND DUP3 PUSH20 0xFFFFFFFFFFFFFFFFFFFFFFFFFFFFFFFFFFFFFFFF AND PUSH32 0xC3D58168C5AE7397731D063D5BBF3D657854427343F4C083240F7AACAA2D0F62 DUP8 DUP8 PUSH1 0x40 MLOAD PUSH2 0x1340 SWAP3 SWAP2 SWAP1 PUSH2 0x2A86 JUMP JUMPDEST PUSH1 0x40 MLOAD DUP1 SWAP2 SUB SWAP1 LOG4 PUSH2 0x1356 DUP2 DUP8 DUP8 DUP8 DUP8 DUP8 PUSH2 0x17FE JUMP JUMPDEST POP POP POP POP POP POP JUMP JUMPDEST PUSH1 0x0 PUSH2 0x1374 DUP3 PUSH1 0x7 PUSH2 0x19D5 SWAP1 SWAP2 SWAP1 PUSH4 0xFFFFFFFF AND JUMP JUMPDEST SWAP1 POP SWAP2 SWAP1 POP JUMP JUMPDEST PUSH1 0x0 CALLER SWAP1 POP SWAP1 JUMP JUMPDEST POP POP POP POP POP POP JUMP JUMPDEST PUSH1 0x0 DUP4 DUP4 GT ISZERO DUP3 SWAP1 PUSH2 0x13D3 JUMPI PUSH1 0x40 MLOAD PUSH32 0x8C379A000000000000000000000000000000000000000000000000000000000 DUP2 MSTORE PUSH1 0x4 ADD PUSH2 0x13CA SWAP2 SWAP1 PUSH2 0x1C92 JUMP JUMPDEST PUSH1 0x40 MLOAD DUP1 SWAP2 SUB SWAP1 REVERT JUMPDEST POP PUSH1 0x0 DUP4 DUP6 PUSH2 0x13E2 SWAP2 SWAP1 PUSH2 0x2AAF JUMP JUMPDEST SWAP1 POP DUP1 SWAP2 POP POP SWAP4 SWAP3 POP POP POP JUMP JUMPDEST PUSH1 0x0 DUP1 DUP3 DUP5 PUSH2 0x13FE SWAP2 SWAP1 PUSH2 0x2AE3 JUMP JUMPDEST SWAP1 POP DUP4 DUP2 LT ISZERO PUSH2 0x1443 JUMPI PUSH1 0x40 MLOAD PUSH32 0x8C379A000000000000000000000000000000000000000000000000000000000 DUP2 MSTORE PUSH1 0x4 ADD PUSH2 0x143A SWAP1 PUSH2 0x2B63 JUMP JUMPDEST PUSH1 0x40 MLOAD DUP1 SWAP2 SUB SWAP1 REVERT JUMPDEST DUP1 SWAP2 POP POP SWAP3 SWAP2 POP POP JUMP JUMPDEST PUSH2 0x146C DUP5 PUSH20 0xFFFFFFFFFFFFFFFFFFFFFFFFFFFFFFFFFFFFFFFF AND PUSH2 0x19EF JUMP JUMPDEST ISZERO PUSH2 0x161C JUMPI DUP4 PUSH20 0xFFFFFFFFFFFFFFFFFFFFFFFFFFFFFFFFFFFFFFFF AND PUSH4 0xBC197C81 DUP8 DUP8 DUP7 DUP7 DUP7 PUSH1 0x40 MLOAD DUP7 PUSH4 0xFFFFFFFF AND PUSH1 0xE0 SHL DUP2 MSTORE PUSH1 0x4 ADD PUSH2 0x14B2 SWAP6 SWAP5 SWAP4 SWAP3 SWAP2 SWAP1 PUSH2 0x2BD8 JUMP JUMPDEST PUSH1 0x20 PUSH1 0x40 MLOAD DUP1 DUP4 SUB DUP2 PUSH1 0x0 DUP8 GAS CALL SWAP3 POP POP POP DUP1 ISZERO PUSH2 0x14EE JUMPI POP PUSH1 0x40 MLOAD RETURNDATASIZE PUSH1 0x1F NOT PUSH1 0x1F DUP3 ADD AND DUP3 ADD DUP1 PUSH1 0x40 MSTORE POP DUP2 ADD SWAP1 PUSH2 0x14EB SWAP2 SWAP1 PUSH2 0x2C55 JUMP JUMPDEST PUSH1 0x1 JUMPDEST PUSH2 0x1593 JUMPI PUSH2 0x14FA PUSH2 0x2C8F JUMP JUMPDEST DUP1 PUSH4 0x8C379A0 SUB PUSH2 0x1556 JUMPI POP PUSH2 0x150E PUSH2 0x2CB1 JUMP JUMPDEST DUP1 PUSH2 0x1519 JUMPI POP PUSH2 0x1558 JUMP JUMPDEST DUP1 PUSH1 0x40 MLOAD PUSH32 0x8C379A000000000000000000000000000000000000000000000000000000000 DUP2 MSTORE PUSH1 0x4 ADD PUSH2 0x154D SWAP2 SWAP1 PUSH2 0x1C92 JUMP JUMPDEST PUSH1 0x40 MLOAD DUP1 SWAP2 SUB SWAP1 REVERT JUMPDEST POP JUMPDEST PUSH1 0x40 MLOAD PUSH32 0x8C379A000000000000000000000000000000000000000000000000000000000 DUP2 MSTORE PUSH1 0x4 ADD PUSH2 0x158A SWAP1 PUSH2 0x2DB3 JUMP JUMPDEST PUSH1 0x40 MLOAD DUP1 SWAP2 SUB SWAP1 REVERT JUMPDEST PUSH4 0xBC197C81 PUSH1 0xE0 SHL PUSH28 0xFFFFFFFFFFFFFFFFFFFFFFFFFFFFFFFFFFFFFFFFFFFFFFFFFFFFFFFF NOT AND DUP2 PUSH28 0xFFFFFFFFFFFFFFFFFFFFFFFFFFFFFFFFFFFFFFFFFFFFFFFFFFFFFFFF NOT AND EQ PUSH2 0x161A JUMPI PUSH1 0x40 MLOAD PUSH32 0x8C379A000000000000000000000000000000000000000000000000000000000 DUP2 MSTORE PUSH1 0x4 ADD PUSH2 0x1611 SWAP1 PUSH2 0x2E45 JUMP JUMPDEST PUSH1 0x40 MLOAD DUP1 SWAP2 SUB SWAP1 REVERT JUMPDEST POP JUMPDEST POP POP POP POP POP POP JUMP JUMPDEST PUSH1 0x60 PUSH1 0x0 DUP3 SUB PUSH2 0x166B JUMPI PUSH1 0x40 MLOAD DUP1 PUSH1 0x40 ADD PUSH1 0x40 MSTORE DUP1 PUSH1 0x1 DUP2 MSTORE PUSH1 0x20 ADD PUSH32 0x3000000000000000000000000000000000000000000000000000000000000000 DUP2 MSTORE POP SWAP1 POP PUSH2 0x177F JUMP JUMPDEST PUSH1 0x0 DUP3 SWAP1 POP PUSH1 0x0 JUMPDEST PUSH1 0x0 DUP3 EQ PUSH2 0x169D JUMPI DUP1 DUP1 PUSH2 0x1686 SWAP1 PUSH2 0x26CD JUMP JUMPDEST SWAP2 POP POP PUSH1 0xA DUP3 PUSH2 0x1696 SWAP2 SWAP1 PUSH2 0x2E94 JUMP JUMPDEST SWAP2 POP PUSH2 0x1673 JUMP JUMPDEST PUSH1 0x0 DUP2 PUSH8 0xFFFFFFFFFFFFFFFF DUP2 GT ISZERO PUSH2 0x16B9 JUMPI PUSH2 0x16B8 PUSH2 0x1CB9 JUMP JUMPDEST JUMPDEST PUSH1 0x40 MLOAD SWAP1 DUP1 DUP3 MSTORE DUP1 PUSH1 0x1F ADD PUSH1 0x1F NOT AND PUSH1 0x20 ADD DUP3 ADD PUSH1 0x40 MSTORE DUP1 ISZERO PUSH2 0x16EB JUMPI DUP2 PUSH1 0x20 ADD PUSH1 0x1 DUP3 MUL DUP1 CALLDATASIZE DUP4 CALLDATACOPY DUP1 DUP3 ADD SWAP2 POP POP SWAP1 POP JUMPDEST POP SWAP1 POP JUMPDEST PUSH1 0x0 DUP6 EQ PUSH2 0x1778 JUMPI PUSH1 0x1 DUP3 PUSH2 0x1704 SWAP2 SWAP1 PUSH2 0x2AAF JUMP JUMPDEST SWAP2 POP PUSH1 0xA DUP6 PUSH2 0x1713 SWAP2 SWAP1 PUSH2 0x2EC5 JUMP JUMPDEST PUSH1 0x30 PUSH2 0x171F SWAP2 SWAP1 PUSH2 0x2AE3 JUMP JUMPDEST PUSH1 0xF8 SHL DUP2 DUP4 DUP2 MLOAD DUP2 LT PUSH2 0x1735 JUMPI PUSH2 0x1734 PUSH2 0x266F JUMP JUMPDEST JUMPDEST PUSH1 0x20 ADD ADD SWAP1 PUSH31 0xFFFFFFFFFFFFFFFFFFFFFFFFFFFFFFFFFFFFFFFFFFFFFFFFFFFFFFFFFFFFFF NOT AND SWAP1 DUP2 PUSH1 0x0 BYTE SWAP1 MSTORE8 POP PUSH1 0xA DUP6 PUSH2 0x1771 SWAP2 SWAP1 PUSH2 0x2E94 JUMP JUMPDEST SWAP5 POP PUSH2 0x16EF JUMP JUMPDEST DUP1 SWAP4 POP POP POP POP JUMPDEST SWAP2 SWAP1 POP JUMP JUMPDEST PUSH1 0x60 PUSH1 0x0 PUSH1 0x1 PUSH8 0xFFFFFFFFFFFFFFFF DUP2 GT ISZERO PUSH2 0x17A3 JUMPI PUSH2 0x17A2 PUSH2 0x1CB9 JUMP JUMPDEST JUMPDEST PUSH1 0x40 MLOAD SWAP1 DUP1 DUP3 MSTORE DUP1 PUSH1 0x20 MUL PUSH1 0x20 ADD DUP3 ADD PUSH1 0x40 MSTORE DUP1 ISZERO PUSH2 0x17D1 JUMPI DUP2 PUSH1 0x20 ADD PUSH1 0x20 DUP3 MUL DUP1 CALLDATASIZE DUP4 CALLDATACOPY DUP1 DUP3 ADD SWAP2 POP POP SWAP1 POP JUMPDEST POP SWAP1 POP DUP3 DUP2 PUSH1 0x0 DUP2 MLOAD DUP2 LT PUSH2 0x17E9 JUMPI PUSH2 0x17E8 PUSH2 0x266F JUMP JUMPDEST JUMPDEST PUSH1 0x20 MUL PUSH1 0x20 ADD ADD DUP2 DUP2 MSTORE POP POP DUP1 SWAP2 POP POP SWAP2 SWAP1 POP JUMP JUMPDEST PUSH2 0x181D DUP5 PUSH20 0xFFFFFFFFFFFFFFFFFFFFFFFFFFFFFFFFFFFFFFFF AND PUSH2 0x19EF JUMP JUMPDEST ISZERO PUSH2 0x19CD JUMPI DUP4 PUSH20 0xFFFFFFFFFFFFFFFFFFFFFFFFFFFFFFFFFFFFFFFF AND PUSH4 0xF23A6E61 DUP8 DUP8 DUP7 DUP7 DUP7 PUSH1 0x40 MLOAD DUP7 PUSH4 0xFFFFFFFF AND PUSH1 0xE0 SHL DUP2 MSTORE PUSH1 0x4 ADD PUSH2 0x1863 SWAP6 SWAP5 SWAP4 SWAP3 SWAP2 SWAP1 PUSH2 0x2EF6 JUMP JUMPDEST PUSH1 0x20 PUSH1 0x40 MLOAD DUP1 DUP4 SUB DUP2 PUSH1 0x0 DUP8 GAS CALL SWAP3 POP POP POP DUP1 ISZERO PUSH2 0x189F JUMPI POP PUSH1 0x40 MLOAD RETURNDATASIZE PUSH1 0x1F NOT PUSH1 0x1F DUP3 ADD AND DUP3 ADD DUP1 PUSH1 0x40 MSTORE POP DUP2 ADD SWAP1 PUSH2 0x189C SWAP2 SWAP1 PUSH2 0x2C55 JUMP JUMPDEST PUSH1 0x1 JUMPDEST PUSH2 0x1944 JUMPI PUSH2 0x18AB PUSH2 0x2C8F JUMP JUMPDEST DUP1 PUSH4 0x8C379A0 SUB PUSH2 0x1907 JUMPI POP PUSH2 0x18BF PUSH2 0x2CB1 JUMP JUMPDEST DUP1 PUSH2 0x18CA JUMPI POP PUSH2 0x1909 JUMP JUMPDEST DUP1 PUSH1 0x40 MLOAD PUSH32 0x8C379A000000000000000000000000000000000000000000000000000000000 DUP2 MSTORE PUSH1 0x4 ADD PUSH2 0x18FE SWAP2 SWAP1 PUSH2 0x1C92 JUMP JUMPDEST PUSH1 0x40 MLOAD DUP1 SWAP2 SUB SWAP1 REVERT JUMPDEST POP JUMPDEST PUSH1 0x40 MLOAD PUSH32 0x8C379A000000000000000000000000000000000000000000000000000000000 DUP2 MSTORE PUSH1 0x4 ADD PUSH2 0x193B SWAP1 PUSH2 0x2DB3 JUMP JUMPDEST PUSH1 0x40 MLOAD DUP1 SWAP2 SUB SWAP1 REVERT JUMPDEST PUSH4 0xF23A6E61 PUSH1 0xE0 SHL PUSH28 0xFFFFFFFFFFFFFFFFFFFFFFFFFFFFFFFFFFFFFFFFFFFFFFFFFFFFFFFF NOT AND DUP2 PUSH28 0xFFFFFFFFFFFFFFFFFFFFFFFFFFFFFFFFFFFFFFFFFFFFFFFFFFFFFFFF NOT AND EQ PUSH2 0x19CB JUMPI PUSH1 0x40 MLOAD PUSH32 0x8C379A000000000000000000000000000000000000000000000000000000000 DUP2 MSTORE PUSH1 0x4 ADD PUSH2 0x19C2 SWAP1 PUSH2 0x2E45 JUMP JUMPDEST PUSH1 0x40 MLOAD DUP1 SWAP2 SUB SWAP1 REVERT JUMPDEST POP JUMPDEST POP POP POP POP POP POP JUMP JUMPDEST PUSH1 0x0 PUSH2 0x19E7 DUP4 PUSH1 0x0 ADD DUP4 PUSH1 0x0 SHL PUSH2 0x1A12 JUMP JUMPDEST SWAP1 POP SWAP3 SWAP2 POP POP JUMP JUMPDEST PUSH1 0x0 DUP1 DUP3 PUSH20 0xFFFFFFFFFFFFFFFFFFFFFFFFFFFFFFFFFFFFFFFF AND EXTCODESIZE GT SWAP1 POP SWAP2 SWAP1 POP JUMP JUMPDEST PUSH1 0x0 DUP1 DUP4 PUSH1 0x1 ADD PUSH1 0x0 DUP5 DUP2 MSTORE PUSH1 0x20 ADD SWAP1 DUP2 MSTORE PUSH1 0x20 ADD PUSH1 0x0 KECCAK256 SLOAD EQ ISZERO SWAP1 POP SWAP3 SWAP2 POP POP JUMP JUMPDEST PUSH1 0x0 PUSH1 0x40 MLOAD SWAP1 POP SWAP1 JUMP JUMPDEST PUSH1 0x0 DUP1 REVERT JUMPDEST PUSH1 0x0 DUP1 REVERT JUMPDEST PUSH1 0x0 PUSH20 0xFFFFFFFFFFFFFFFFFFFFFFFFFFFFFFFFFFFFFFFF DUP3 AND SWAP1 POP SWAP2 SWAP1 POP JUMP JUMPDEST PUSH1 0x0 PUSH2 0x1A74 DUP3 PUSH2 0x1A49 JUMP JUMPDEST SWAP1 POP SWAP2 SWAP1 POP JUMP JUMPDEST PUSH2 0x1A84 DUP2 PUSH2 0x1A69 JUMP JUMPDEST DUP2 EQ PUSH2 0x1A8F JUMPI PUSH1 0x0 DUP1 REVERT JUMPDEST POP JUMP JUMPDEST PUSH1 0x0 DUP2 CALLDATALOAD SWAP1 POP PUSH2 0x1AA1 DUP2 PUSH2 0x1A7B JUMP JUMPDEST SWAP3 SWAP2 POP POP JUMP JUMPDEST PUSH1 0x0 DUP2 SWAP1 POP SWAP2 SWAP1 POP JUMP JUMPDEST PUSH2 0x1ABA DUP2 PUSH2 0x1AA7 JUMP JUMPDEST DUP2 EQ PUSH2 0x1AC5 JUMPI PUSH1 0x0 DUP1 REVERT JUMPDEST POP JUMP JUMPDEST PUSH1 0x0 DUP2 CALLDATALOAD SWAP1 POP PUSH2 0x1AD7 DUP2 PUSH2 0x1AB1 JUMP JUMPDEST SWAP3 SWAP2 POP POP JUMP JUMPDEST PUSH1 0x0 DUP1 PUSH1 0x40 DUP4 DUP6 SUB SLT ISZERO PUSH2 0x1AF4 JUMPI PUSH2 0x1AF3 PUSH2 0x1A3F JUMP JUMPDEST JUMPDEST PUSH1 0x0 PUSH2 0x1B02 DUP6 DUP3 DUP7 ADD PUSH2 0x1A92 JUMP JUMPDEST SWAP3 POP POP PUSH1 0x20 PUSH2 0x1B13 DUP6 DUP3 DUP7 ADD PUSH2 0x1AC8 JUMP JUMPDEST SWAP2 POP POP SWAP3 POP SWAP3 SWAP1 POP JUMP JUMPDEST PUSH2 0x1B26 DUP2 PUSH2 0x1AA7 JUMP JUMPDEST DUP3 MSTORE POP POP JUMP JUMPDEST PUSH1 0x0 PUSH1 0x20 DUP3 ADD SWAP1 POP PUSH2 0x1B41 PUSH1 0x0 DUP4 ADD DUP5 PUSH2 0x1B1D JUMP JUMPDEST SWAP3 SWAP2 POP POP JUMP JUMPDEST PUSH1 0x0 PUSH32 0xFFFFFFFF00000000000000000000000000000000000000000000000000000000 DUP3 AND SWAP1 POP SWAP2 SWAP1 POP JUMP JUMPDEST PUSH2 0x1B7C DUP2 PUSH2 0x1B47 JUMP JUMPDEST DUP2 EQ PUSH2 0x1B87 JUMPI PUSH1 0x0 DUP1 REVERT JUMPDEST POP JUMP JUMPDEST PUSH1 0x0 DUP2 CALLDATALOAD SWAP1 POP PUSH2 0x1B99 DUP2 PUSH2 0x1B73 JUMP JUMPDEST SWAP3 SWAP2 POP POP JUMP JUMPDEST PUSH1 0x0 PUSH1 0x20 DUP3 DUP5 SUB SLT ISZERO PUSH2 0x1BB5 JUMPI PUSH2 0x1BB4 PUSH2 0x1A3F JUMP JUMPDEST JUMPDEST PUSH1 0x0 PUSH2 0x1BC3 DUP5 DUP3 DUP6 ADD PUSH2 0x1B8A JUMP JUMPDEST SWAP2 POP POP SWAP3 SWAP2 POP POP JUMP JUMPDEST PUSH1 0x0 DUP2 ISZERO ISZERO SWAP1 POP SWAP2 SWAP1 POP JUMP JUMPDEST PUSH2 0x1BE1 DUP2 PUSH2 0x1BCC JUMP JUMPDEST DUP3 MSTORE POP POP JUMP JUMPDEST PUSH1 0x0 PUSH1 0x20 DUP3 ADD SWAP1 POP PUSH2 0x1BFC PUSH1 0x0 DUP4 ADD DUP5 PUSH2 0x1BD8 JUMP JUMPDEST SWAP3 SWAP2 POP POP JUMP JUMPDEST PUSH1 0x0 DUP2 MLOAD SWAP1 POP SWAP2 SWAP1 POP JUMP JUMPDEST PUSH1 0x0 DUP3 DUP3 MSTORE PUSH1 0x20 DUP3 ADD SWAP1 POP SWAP3 SWAP2 POP POP JUMP JUMPDEST PUSH1 0x0 JUMPDEST DUP4 DUP2 LT ISZERO PUSH2 0x1C3C JUMPI DUP1 DUP3 ADD MLOAD DUP2 DUP5 ADD MSTORE PUSH1 0x20 DUP2 ADD SWAP1 POP PUSH2 0x1C21 JUMP JUMPDEST PUSH1 0x0 DUP5 DUP5 ADD MSTORE POP POP POP POP JUMP JUMPDEST PUSH1 0x0 PUSH1 0x1F NOT PUSH1 0x1F DUP4 ADD AND SWAP1 POP SWAP2 SWAP1 POP JUMP JUMPDEST PUSH1 0x0 PUSH2 0x1C64 DUP3 PUSH2 0x1C02 JUMP JUMPDEST PUSH2 0x1C6E DUP2 DUP6 PUSH2 0x1C0D JUMP JUMPDEST SWAP4 POP PUSH2 0x1C7E DUP2 DUP6 PUSH1 0x20 DUP7 ADD PUSH2 0x1C1E JUMP JUMPDEST PUSH2 0x1C87 DUP2 PUSH2 0x1C48 JUMP JUMPDEST DUP5 ADD SWAP2 POP POP SWAP3 SWAP2 POP POP JUMP JUMPDEST PUSH1 0x0 PUSH1 0x20 DUP3 ADD SWAP1 POP DUP2 DUP2 SUB PUSH1 0x0 DUP4 ADD MSTORE PUSH2 0x1CAC DUP2 DUP5 PUSH2 0x1C59 JUMP JUMPDEST SWAP1 POP SWAP3 SWAP2 POP POP JUMP JUMPDEST PUSH1 0x0 DUP1 REVERT JUMPDEST PUSH32 0x4E487B7100000000000000000000000000000000000000000000000000000000 PUSH1 0x0 MSTORE PUSH1 0x41 PUSH1 0x4 MSTORE PUSH1 0x24 PUSH1 0x0 REVERT JUMPDEST PUSH2 0x1CF1 DUP3 PUSH2 0x1C48 JUMP JUMPDEST DUP2 ADD DUP2 DUP2 LT PUSH8 0xFFFFFFFFFFFFFFFF DUP3 GT OR ISZERO PUSH2 0x1D10 JUMPI PUSH2 0x1D0F PUSH2 0x1CB9 JUMP JUMPDEST JUMPDEST DUP1 PUSH1 0x40 MSTORE POP POP POP JUMP JUMPDEST PUSH1 0x0 PUSH2 0x1D23 PUSH2 0x1A35 JUMP JUMPDEST SWAP1 POP PUSH2 0x1D2F DUP3 DUP3 PUSH2 0x1CE8 JUMP JUMPDEST SWAP2 SWAP1 POP JUMP JUMPDEST PUSH1 0x0 PUSH8 0xFFFFFFFFFFFFFFFF DUP3 GT ISZERO PUSH2 0x1D4F JUMPI PUSH2 0x1D4E PUSH2 0x1CB9 JUMP JUMPDEST JUMPDEST PUSH1 0x20 DUP3 MUL SWAP1 POP PUSH1 0x20 DUP2 ADD SWAP1 POP SWAP2 SWAP1 POP JUMP JUMPDEST PUSH1 0x0 DUP1 REVERT JUMPDEST PUSH1 0x0 PUSH2 0x1D78 PUSH2 0x1D73 DUP5 PUSH2 0x1D34 JUMP JUMPDEST PUSH2 0x1D19 JUMP JUMPDEST SWAP1 POP DUP1 DUP4 DUP3 MSTORE PUSH1 0x20 DUP3 ADD SWAP1 POP PUSH1 0x20 DUP5 MUL DUP4 ADD DUP6 DUP2 GT ISZERO PUSH2 0x1D9B JUMPI PUSH2 0x1D9A PUSH2 0x1D60 JUMP JUMPDEST JUMPDEST DUP4 JUMPDEST DUP2 DUP2 LT ISZERO PUSH2 0x1DC4 JUMPI DUP1 PUSH2 0x1DB0 DUP9 DUP3 PUSH2 0x1AC8 JUMP JUMPDEST DUP5 MSTORE PUSH1 0x20 DUP5 ADD SWAP4 POP POP PUSH1 0x20 DUP2 ADD SWAP1 POP PUSH2 0x1D9D JUMP JUMPDEST POP POP POP SWAP4 SWAP3 POP POP POP JUMP JUMPDEST PUSH1 0x0 DUP3 PUSH1 0x1F DUP4 ADD SLT PUSH2 0x1DE3 JUMPI PUSH2 0x1DE2 PUSH2 0x1CB4 JUMP JUMPDEST JUMPDEST DUP2 CALLDATALOAD PUSH2 0x1DF3 DUP5 DUP3 PUSH1 0x20 DUP7 ADD PUSH2 0x1D65 JUMP JUMPDEST SWAP2 POP POP SWAP3 SWAP2 POP POP JUMP JUMPDEST PUSH1 0x0 DUP1 REVERT JUMPDEST PUSH1 0x0 PUSH8 0xFFFFFFFFFFFFFFFF DUP3 GT ISZERO PUSH2 0x1E1C JUMPI PUSH2 0x1E1B PUSH2 0x1CB9 JUMP JUMPDEST JUMPDEST PUSH2 0x1E25 DUP3 PUSH2 0x1C48 JUMP JUMPDEST SWAP1 POP PUSH1 0x20 DUP2 ADD SWAP1 POP SWAP2 SWAP1 POP JUMP JUMPDEST DUP3 DUP2 DUP4 CALLDATACOPY PUSH1 0x0 DUP4 DUP4 ADD MSTORE POP POP POP JUMP JUMPDEST PUSH1 0x0 PUSH2 0x1E54 PUSH2 0x1E4F DUP5 PUSH2 0x1E01 JUMP JUMPDEST PUSH2 0x1D19 JUMP JUMPDEST SWAP1 POP DUP3 DUP2 MSTORE PUSH1 0x20 DUP2 ADD DUP5 DUP5 DUP5 ADD GT ISZERO PUSH2 0x1E70 JUMPI PUSH2 0x1E6F PUSH2 0x1DFC JUMP JUMPDEST JUMPDEST PUSH2 0x1E7B DUP5 DUP3 DUP6 PUSH2 0x1E32 JUMP JUMPDEST POP SWAP4 SWAP3 POP POP POP JUMP JUMPDEST PUSH1 0x0 DUP3 PUSH1 0x1F DUP4 ADD SLT PUSH2 0x1E98 JUMPI PUSH2 0x1E97 PUSH2 0x1CB4 JUMP JUMPDEST JUMPDEST DUP2 CALLDATALOAD PUSH2 0x1EA8 DUP5 DUP3 PUSH1 0x20 DUP7 ADD PUSH2 0x1E41 JUMP JUMPDEST SWAP2 POP POP SWAP3 SWAP2 POP POP JUMP JUMPDEST PUSH1 0x0 DUP1 PUSH1 0x0 DUP1 PUSH1 0x0 PUSH1 0xA0 DUP7 DUP9 SUB SLT ISZERO PUSH2 0x1ECD JUMPI PUSH2 0x1ECC PUSH2 0x1A3F JUMP JUMPDEST JUMPDEST PUSH1 0x0 PUSH2 0x1EDB DUP9 DUP3 DUP10 ADD PUSH2 0x1A92 JUMP JUMPDEST SWAP6 POP POP PUSH1 0x20 PUSH2 0x1EEC DUP9 DUP3 DUP10 ADD PUSH2 0x1A92 JUMP JUMPDEST SWAP5 POP POP PUSH1 0x40 DUP7 ADD CALLDATALOAD PUSH8 0xFFFFFFFFFFFFFFFF DUP2 GT ISZERO PUSH2 0x1F0D JUMPI PUSH2 0x1F0C PUSH2 0x1A44 JUMP JUMPDEST JUMPDEST PUSH2 0x1F19 DUP9 DUP3 DUP10 ADD PUSH2 0x1DCE JUMP JUMPDEST SWAP4 POP POP PUSH1 0x60 DUP7 ADD CALLDATALOAD PUSH8 0xFFFFFFFFFFFFFFFF DUP2 GT ISZERO PUSH2 0x1F3A JUMPI PUSH2 0x1F39 PUSH2 0x1A44 JUMP JUMPDEST JUMPDEST PUSH2 0x1F46 DUP9 DUP3 DUP10 ADD PUSH2 0x1DCE JUMP JUMPDEST SWAP3 POP POP PUSH1 0x80 DUP7 ADD CALLDATALOAD PUSH8 0xFFFFFFFFFFFFFFFF DUP2 GT ISZERO PUSH2 0x1F67 JUMPI PUSH2 0x1F66 PUSH2 0x1A44 JUMP JUMPDEST JUMPDEST PUSH2 0x1F73 DUP9 DUP3 DUP10 ADD PUSH2 0x1E83 JUMP JUMPDEST SWAP2 POP POP SWAP3 SWAP6 POP SWAP3 SWAP6 SWAP1 SWAP4 POP JUMP JUMPDEST PUSH1 0x0 PUSH8 0xFFFFFFFFFFFFFFFF DUP3 GT ISZERO PUSH2 0x1F9B JUMPI PUSH2 0x1F9A PUSH2 0x1CB9 JUMP JUMPDEST JUMPDEST PUSH1 0x20 DUP3 MUL SWAP1 POP PUSH1 0x20 DUP2 ADD SWAP1 POP SWAP2 SWAP1 POP JUMP JUMPDEST PUSH1 0x0 PUSH2 0x1FBF PUSH2 0x1FBA DUP5 PUSH2 0x1F80 JUMP JUMPDEST PUSH2 0x1D19 JUMP JUMPDEST SWAP1 POP DUP1 DUP4 DUP3 MSTORE PUSH1 0x20 DUP3 ADD SWAP1 POP PUSH1 0x20 DUP5 MUL DUP4 ADD DUP6 DUP2 GT ISZERO PUSH2 0x1FE2 JUMPI PUSH2 0x1FE1 PUSH2 0x1D60 JUMP JUMPDEST JUMPDEST DUP4 JUMPDEST DUP2 DUP2 LT ISZERO PUSH2 0x200B JUMPI DUP1 PUSH2 0x1FF7 DUP9 DUP3 PUSH2 0x1A92 JUMP JUMPDEST DUP5 MSTORE PUSH1 0x20 DUP5 ADD SWAP4 POP POP PUSH1 0x20 DUP2 ADD SWAP1 POP PUSH2 0x1FE4 JUMP JUMPDEST POP POP POP SWAP4 SWAP3 POP POP POP JUMP JUMPDEST PUSH1 0x0 DUP3 PUSH1 0x1F DUP4 ADD SLT PUSH2 0x202A JUMPI PUSH2 0x2029 PUSH2 0x1CB4 JUMP JUMPDEST JUMPDEST DUP2 CALLDATALOAD PUSH2 0x203A DUP5 DUP3 PUSH1 0x20 DUP7 ADD PUSH2 0x1FAC JUMP JUMPDEST SWAP2 POP POP SWAP3 SWAP2 POP POP JUMP JUMPDEST PUSH1 0x0 DUP1 PUSH1 0x40 DUP4 DUP6 SUB SLT ISZERO PUSH2 0x205A JUMPI PUSH2 0x2059 PUSH2 0x1A3F JUMP JUMPDEST JUMPDEST PUSH1 0x0 DUP4 ADD CALLDATALOAD PUSH8 0xFFFFFFFFFFFFFFFF DUP2 GT ISZERO PUSH2 0x2078 JUMPI PUSH2 0x2077 PUSH2 0x1A44 JUMP JUMPDEST JUMPDEST PUSH2 0x2084 DUP6 DUP3 DUP7 ADD PUSH2 0x2015 JUMP JUMPDEST SWAP3 POP POP PUSH1 0x20 DUP4 ADD CALLDATALOAD PUSH8 0xFFFFFFFFFFFFFFFF DUP2 GT ISZERO PUSH2 0x20A5 JUMPI PUSH2 0x20A4 PUSH2 0x1A44 JUMP JUMPDEST JUMPDEST PUSH2 0x20B1 DUP6 DUP3 DUP7 ADD PUSH2 0x1DCE JUMP JUMPDEST SWAP2 POP POP SWAP3 POP SWAP3 SWAP1 POP JUMP JUMPDEST PUSH1 0x0 DUP2 MLOAD SWAP1 POP SWAP2 SWAP1 POP JUMP JUMPDEST PUSH1 0x0 DUP3 DUP3 MSTORE PUSH1 0x20 DUP3 ADD SWAP1 POP SWAP3 SWAP2 POP POP JUMP JUMPDEST PUSH1 0x0 DUP2 SWAP1 POP PUSH1 0x20 DUP3 ADD SWAP1 POP SWAP2 SWAP1 POP JUMP JUMPDEST PUSH2 0x20F0 DUP2 PUSH2 0x1AA7 JUMP JUMPDEST DUP3 MSTORE POP POP JUMP JUMPDEST PUSH1 0x0 PUSH2 0x2102 DUP4 DUP4 PUSH2 0x20E7 JUMP JUMPDEST PUSH1 0x20 DUP4 ADD SWAP1 POP SWAP3 SWAP2 POP POP JUMP JUMPDEST PUSH1 0x0 PUSH1 0x20 DUP3 ADD SWAP1 POP SWAP2 SWAP1 POP JUMP JUMPDEST PUSH1 0x0 PUSH2 0x2126 DUP3 PUSH2 0x20BB JUMP JUMPDEST PUSH2 0x2130 DUP2 DUP6 PUSH2 0x20C6 JUMP JUMPDEST SWAP4 POP PUSH2 0x213B DUP4 PUSH2 0x20D7 JUMP JUMPDEST DUP1 PUSH1 0x0 JUMPDEST DUP4 DUP2 LT ISZERO PUSH2 0x216C JUMPI DUP2 MLOAD PUSH2 0x2153 DUP9 DUP3 PUSH2 0x20F6 JUMP JUMPDEST SWAP8 POP PUSH2 0x215E DUP4 PUSH2 0x210E JUMP JUMPDEST SWAP3 POP POP PUSH1 0x1 DUP2 ADD SWAP1 POP PUSH2 0x213F JUMP JUMPDEST POP DUP6 SWAP4 POP POP POP POP SWAP3 SWAP2 POP POP JUMP JUMPDEST PUSH1 0x0 PUSH1 0x20 DUP3 ADD SWAP1 POP DUP2 DUP2 SUB PUSH1 0x0 DUP4 ADD MSTORE PUSH2 0x2193 DUP2 DUP5 PUSH2 0x211B JUMP JUMPDEST SWAP1 POP SWAP3 SWAP2 POP POP JUMP JUMPDEST PUSH2 0x21A4 DUP2 PUSH2 0x1BCC JUMP JUMPDEST DUP2 EQ PUSH2 0x21AF JUMPI PUSH1 0x0 DUP1 REVERT JUMPDEST POP JUMP JUMPDEST PUSH1 0x0 DUP2 CALLDATALOAD SWAP1 POP PUSH2 0x21C1 DUP2 PUSH2 0x219B JUMP JUMPDEST SWAP3 SWAP2 POP POP JUMP JUMPDEST PUSH1 0x0 DUP1 PUSH1 0x40 DUP4 DUP6 SUB SLT ISZERO PUSH2 0x21DE JUMPI PUSH2 0x21DD PUSH2 0x1A3F JUMP JUMPDEST JUMPDEST PUSH1 0x0 PUSH2 0x21EC DUP6 DUP3 DUP7 ADD PUSH2 0x1A92 JUMP JUMPDEST SWAP3 POP POP PUSH1 0x20 PUSH2 0x21FD DUP6 DUP3 DUP7 ADD PUSH2 0x21B2 JUMP JUMPDEST SWAP2 POP POP SWAP3 POP SWAP3 SWAP1 POP JUMP JUMPDEST PUSH1 0x0 PUSH1 0x20 DUP3 DUP5 SUB SLT ISZERO PUSH2 0x221D JUMPI PUSH2 0x221C PUSH2 0x1A3F JUMP JUMPDEST JUMPDEST PUSH1 0x0 PUSH2 0x222B DUP5 DUP3 DUP6 ADD PUSH2 0x1AC8 JUMP JUMPDEST SWAP2 POP POP SWAP3 SWAP2 POP POP JUMP JUMPDEST PUSH2 0x223D DUP2 PUSH2 0x1A69 JUMP JUMPDEST DUP3 MSTORE POP POP JUMP JUMPDEST PUSH1 0x0 PUSH1 0x20 DUP3 ADD SWAP1 POP PUSH2 0x2258 PUSH1 0x0 DUP4 ADD DUP5 PUSH2 0x2234 JUMP JUMPDEST SWAP3 SWAP2 POP POP JUMP JUMPDEST PUSH1 0x0 DUP1 PUSH1 0x40 DUP4 DUP6 SUB SLT ISZERO PUSH2 0x2275 JUMPI PUSH2 0x2274 PUSH2 0x1A3F JUMP JUMPDEST JUMPDEST PUSH1 0x0 PUSH2 0x2283 DUP6 DUP3 DUP7 ADD PUSH2 0x1A92 JUMP JUMPDEST SWAP3 POP POP PUSH1 0x20 PUSH2 0x2294 DUP6 DUP3 DUP7 ADD PUSH2 0x1A92 JUMP JUMPDEST SWAP2 POP POP SWAP3 POP SWAP3 SWAP1 POP JUMP JUMPDEST PUSH1 0x0 DUP1 PUSH1 0x0 DUP1 PUSH1 0x0 PUSH1 0xA0 DUP7 DUP9 SUB SLT ISZERO PUSH2 0x22BA JUMPI PUSH2 0x22B9 PUSH2 0x1A3F JUMP JUMPDEST JUMPDEST PUSH1 0x0 PUSH2 0x22C8 DUP9 DUP3 DUP10 ADD PUSH2 0x1A92 JUMP JUMPDEST SWAP6 POP POP PUSH1 0x20 PUSH2 0x22D9 DUP9 DUP3 DUP10 ADD PUSH2 0x1A92 JUMP JUMPDEST SWAP5 POP POP PUSH1 0x40 PUSH2 0x22EA DUP9 DUP3 DUP10 ADD PUSH2 0x1AC8 JUMP JUMPDEST SWAP4 POP POP PUSH1 0x60 PUSH2 0x22FB DUP9 DUP3 DUP10 ADD PUSH2 0x1AC8 JUMP JUMPDEST SWAP3 POP POP PUSH1 0x80 DUP7 ADD CALLDATALOAD PUSH8 0xFFFFFFFFFFFFFFFF DUP2 GT ISZERO PUSH2 0x231C JUMPI PUSH2 0x231B PUSH2 0x1A44 JUMP JUMPDEST JUMPDEST PUSH2 0x2328 DUP9 DUP3 DUP10 ADD PUSH2 0x1E83 JUMP JUMPDEST SWAP2 POP POP SWAP3 SWAP6 POP SWAP3 SWAP6 SWAP1 SWAP4 POP JUMP JUMPDEST PUSH32 0x455243313135354D657461646174613A2062616C616E63652071756572792066 PUSH1 0x0 DUP3 ADD MSTORE PUSH32 0x6F72206E6F6E6578697374656E7420746F6B656E000000000000000000000000 PUSH1 0x20 DUP3 ADD MSTORE POP JUMP JUMPDEST PUSH1 0x0 PUSH2 0x2391 PUSH1 0x34 DUP4 PUSH2 0x1C0D JUMP JUMPDEST SWAP2 POP PUSH2 0x239C DUP3 PUSH2 0x2335 JUMP JUMPDEST PUSH1 0x40 DUP3 ADD SWAP1 POP SWAP2 SWAP1 POP JUMP JUMPDEST PUSH1 0x0 PUSH1 0x20 DUP3 ADD SWAP1 POP DUP2 DUP2 SUB PUSH1 0x0 DUP4 ADD MSTORE PUSH2 0x23C0 DUP2 PUSH2 0x2384 JUMP JUMPDEST SWAP1 POP SWAP2 SWAP1 POP JUMP JUMPDEST PUSH32 0x455243313135353A2062616C616E636520717565727920666F7220746865207A PUSH1 0x0 DUP3 ADD MSTORE PUSH32 0x65726F2061646472657373000000000000000000000000000000000000000000 PUSH1 0x20 DUP3 ADD MSTORE POP JUMP JUMPDEST PUSH1 0x0 PUSH2 0x2423 PUSH1 0x2B DUP4 PUSH2 0x1C0D JUMP JUMPDEST SWAP2 POP PUSH2 0x242E DUP3 PUSH2 0x23C7 JUMP JUMPDEST PUSH1 0x40 DUP3 ADD SWAP1 POP SWAP2 SWAP1 POP JUMP JUMPDEST PUSH1 0x0 PUSH1 0x20 DUP3 ADD SWAP1 POP DUP2 DUP2 SUB PUSH1 0x0 DUP4 ADD MSTORE PUSH2 0x2452 DUP2 PUSH2 0x2416 JUMP JUMPDEST SWAP1 POP SWAP2 SWAP1 POP JUMP JUMPDEST PUSH32 0x4E487B7100000000000000000000000000000000000000000000000000000000 PUSH1 0x0 MSTORE PUSH1 0x22 PUSH1 0x4 MSTORE PUSH1 0x24 PUSH1 0x0 REVERT JUMPDEST PUSH1 0x0 PUSH1 0x2 DUP3 DIV SWAP1 POP PUSH1 0x1 DUP3 AND DUP1 PUSH2 0x24A0 JUMPI PUSH1 0x7F DUP3 AND SWAP2 POP JUMPDEST PUSH1 0x20 DUP3 LT DUP2 SUB PUSH2 0x24B3 JUMPI PUSH2 0x24B2 PUSH2 0x2459 JUMP JUMPDEST JUMPDEST POP SWAP2 SWAP1 POP JUMP JUMPDEST PUSH32 0x455243313135353A2069647320616E6420616D6F756E7473206C656E67746820 PUSH1 0x0 DUP3 ADD MSTORE PUSH32 0x6D69736D61746368000000000000000000000000000000000000000000000000 PUSH1 0x20 DUP3 ADD MSTORE POP JUMP JUMPDEST PUSH1 0x0 PUSH2 0x2515 PUSH1 0x28 DUP4 PUSH2 0x1C0D JUMP JUMPDEST SWAP2 POP PUSH2 0x2520 DUP3 PUSH2 0x24B9 JUMP JUMPDEST PUSH1 0x40 DUP3 ADD SWAP1 POP SWAP2 SWAP1 POP JUMP JUMPDEST PUSH1 0x0 PUSH1 0x20 DUP3 ADD SWAP1 POP DUP2 DUP2 SUB PUSH1 0x0 DUP4 ADD MSTORE PUSH2 0x2544 DUP2 PUSH2 0x2508 JUMP JUMPDEST SWAP1 POP SWAP2 SWAP1 POP JUMP JUMPDEST PUSH32 0x455243313135353A207472616E7366657220746F20746865207A65726F206164 PUSH1 0x0 DUP3 ADD MSTORE PUSH32 0x6472657373000000000000000000000000000000000000000000000000000000 PUSH1 0x20 DUP3 ADD MSTORE POP JUMP JUMPDEST PUSH1 0x0 PUSH2 0x25A7 PUSH1 0x25 DUP4 PUSH2 0x1C0D JUMP JUMPDEST SWAP2 POP PUSH2 0x25B2 DUP3 PUSH2 0x254B JUMP JUMPDEST PUSH1 0x40 DUP3 ADD SWAP1 POP SWAP2 SWAP1 POP JUMP JUMPDEST PUSH1 0x0 PUSH1 0x20 DUP3 ADD SWAP1 POP DUP2 DUP2 SUB PUSH1 0x0 DUP4 ADD MSTORE PUSH2 0x25D6 DUP2 PUSH2 0x259A JUMP JUMPDEST SWAP1 POP SWAP2 SWAP1 POP JUMP JUMPDEST PUSH32 0x455243313135353A207472616E736665722063616C6C6572206973206E6F7420 PUSH1 0x0 DUP3 ADD MSTORE PUSH32 0x6F776E6572206E6F7220617070726F7665640000000000000000000000000000 PUSH1 0x20 DUP3 ADD MSTORE POP JUMP JUMPDEST PUSH1 0x0 PUSH2 0x2639 PUSH1 0x32 DUP4 PUSH2 0x1C0D JUMP JUMPDEST SWAP2 POP PUSH2 0x2644 DUP3 PUSH2 0x25DD JUMP JUMPDEST PUSH1 0x40 DUP3 ADD SWAP1 POP SWAP2 SWAP1 POP JUMP JUMPDEST PUSH1 0x0 PUSH1 0x20 DUP3 ADD SWAP1 POP DUP2 DUP2 SUB PUSH1 0x0 DUP4 ADD MSTORE PUSH2 0x2668 DUP2 PUSH2 0x262C JUMP JUMPDEST SWAP1 POP SWAP2 SWAP1 POP JUMP JUMPDEST PUSH32 0x4E487B7100000000000000000000000000000000000000000000000000000000 PUSH1 0x0 MSTORE PUSH1 0x32 PUSH1 0x4 MSTORE PUSH1 0x24 PUSH1 0x0 REVERT JUMPDEST PUSH32 0x4E487B7100000000000000000000000000000000000000000000000000000000 PUSH1 0x0 MSTORE PUSH1 0x11 PUSH1 0x4 MSTORE PUSH1 0x24 PUSH1 0x0 REVERT JUMPDEST PUSH1 0x0 PUSH2 0x26D8 DUP3 PUSH2 0x1AA7 JUMP JUMPDEST SWAP2 POP PUSH32 0xFFFFFFFFFFFFFFFFFFFFFFFFFFFFFFFFFFFFFFFFFFFFFFFFFFFFFFFFFFFFFFFF DUP3 SUB PUSH2 0x270A JUMPI PUSH2 0x2709 PUSH2 0x269E JUMP JUMPDEST JUMPDEST PUSH1 0x1 DUP3 ADD SWAP1 POP SWAP2 SWAP1 POP JUMP JUMPDEST PUSH1 0x0 PUSH1 0x40 DUP3 ADD SWAP1 POP DUP2 DUP2 SUB PUSH1 0x0 DUP4 ADD MSTORE PUSH2 0x272F DUP2 DUP6 PUSH2 0x211B JUMP JUMPDEST SWAP1 POP DUP2 DUP2 SUB PUSH1 0x20 DUP4 ADD MSTORE PUSH2 0x2743 DUP2 DUP5 PUSH2 0x211B JUMP JUMPDEST SWAP1 POP SWAP4 SWAP3 POP POP POP JUMP JUMPDEST PUSH32 0x455243313135353A206163636F756E747320616E6420696473206C656E677468 PUSH1 0x0 DUP3 ADD MSTORE PUSH32 0x206D69736D617463680000000000000000000000000000000000000000000000 PUSH1 0x20 DUP3 ADD MSTORE POP JUMP JUMPDEST PUSH1 0x0 PUSH2 0x27A8 PUSH1 0x29 DUP4 PUSH2 0x1C0D JUMP JUMPDEST SWAP2 POP PUSH2 0x27B3 DUP3 PUSH2 0x274C JUMP JUMPDEST PUSH1 0x40 DUP3 ADD SWAP1 POP SWAP2 SWAP1 POP JUMP JUMPDEST PUSH1 0x0 PUSH1 0x20 DUP3 ADD SWAP1 POP DUP2 DUP2 SUB PUSH1 0x0 DUP4 ADD MSTORE PUSH2 0x27D7 DUP2 PUSH2 0x279B JUMP JUMPDEST SWAP1 POP SWAP2 SWAP1 POP JUMP JUMPDEST PUSH32 0x455243313135353A2062617463682062616C616E636520717565727920666F72 PUSH1 0x0 DUP3 ADD MSTORE PUSH32 0x20746865207A65726F2061646472657373000000000000000000000000000000 PUSH1 0x20 DUP3 ADD MSTORE POP JUMP JUMPDEST PUSH1 0x0 PUSH2 0x283A PUSH1 0x31 DUP4 PUSH2 0x1C0D JUMP JUMPDEST SWAP2 POP PUSH2 0x2845 DUP3 PUSH2 0x27DE JUMP JUMPDEST PUSH1 0x40 DUP3 ADD SWAP1 POP SWAP2 SWAP1 POP JUMP JUMPDEST PUSH1 0x0 PUSH1 0x20 DUP3 ADD SWAP1 POP DUP2 DUP2 SUB PUSH1 0x0 DUP4 ADD MSTORE PUSH2 0x2869 DUP2 PUSH2 0x282D JUMP JUMPDEST SWAP1 POP SWAP2 SWAP1 POP JUMP JUMPDEST PUSH32 0x455243313135353A2073657474696E6720617070726F76616C20737461747573 PUSH1 0x0 DUP3 ADD MSTORE PUSH32 0x20666F722073656C660000000000000000000000000000000000000000000000 PUSH1 0x20 DUP3 ADD MSTORE POP JUMP JUMPDEST PUSH1 0x0 PUSH2 0x28CC PUSH1 0x29 DUP4 PUSH2 0x1C0D JUMP JUMPDEST SWAP2 POP PUSH2 0x28D7 DUP3 PUSH2 0x2870 JUMP JUMPDEST PUSH1 0x40 DUP3 ADD SWAP1 POP SWAP2 SWAP1 POP JUMP JUMPDEST PUSH1 0x0 PUSH1 0x20 DUP3 ADD SWAP1 POP DUP2 DUP2 SUB PUSH1 0x0 DUP4 ADD MSTORE PUSH2 0x28FB DUP2 PUSH2 0x28BF JUMP JUMPDEST SWAP1 POP SWAP2 SWAP1 POP JUMP JUMPDEST PUSH32 0x455243313135354D657461646174613A2055524920717565727920666F72206E PUSH1 0x0 DUP3 ADD MSTORE PUSH32 0x6F6E6578697374656E7420746F6B656E00000000000000000000000000000000 PUSH1 0x20 DUP3 ADD MSTORE POP JUMP JUMPDEST PUSH1 0x0 PUSH2 0x295E PUSH1 0x30 DUP4 PUSH2 0x1C0D JUMP JUMPDEST SWAP2 POP PUSH2 0x2969 DUP3 PUSH2 0x2902 JUMP JUMPDEST PUSH1 0x40 DUP3 ADD SWAP1 POP SWAP2 SWAP1 POP JUMP JUMPDEST PUSH1 0x0 PUSH1 0x20 DUP3 ADD SWAP1 POP DUP2 DUP2 SUB PUSH1 0x0 DUP4 ADD MSTORE PUSH2 0x298D DUP2 PUSH2 0x2951 JUMP JUMPDEST SWAP1 POP SWAP2 SWAP1 POP JUMP JUMPDEST PUSH1 0x0 DUP2 SWAP1 POP SWAP3 SWAP2 POP POP JUMP JUMPDEST PUSH1 0x0 PUSH2 0x29AA DUP3 PUSH2 0x1C02 JUMP JUMPDEST PUSH2 0x29B4 DUP2 DUP6 PUSH2 0x2994 JUMP JUMPDEST SWAP4 POP PUSH2 0x29C4 DUP2 DUP6 PUSH1 0x20 DUP7 ADD PUSH2 0x1C1E JUMP JUMPDEST DUP1 DUP5 ADD SWAP2 POP POP SWAP3 SWAP2 POP POP JUMP JUMPDEST PUSH1 0x0 PUSH2 0x29DC DUP3 DUP6 PUSH2 0x299F JUMP JUMPDEST SWAP2 POP PUSH2 0x29E8 DUP3 DUP5 PUSH2 0x299F JUMP JUMPDEST SWAP2 POP DUP2 SWAP1 POP SWAP4 SWAP3 POP POP POP JUMP JUMPDEST PUSH32 0x455243313135353A2063616C6C6572206973206E6F74206F776E6572206E6F72 PUSH1 0x0 DUP3 ADD MSTORE PUSH32 0x20617070726F7665640000000000000000000000000000000000000000000000 PUSH1 0x20 DUP3 ADD MSTORE POP JUMP JUMPDEST PUSH1 0x0 PUSH2 0x2A50 PUSH1 0x29 DUP4 PUSH2 0x1C0D JUMP JUMPDEST SWAP2 POP PUSH2 0x2A5B DUP3 PUSH2 0x29F4 JUMP JUMPDEST PUSH1 0x40 DUP3 ADD SWAP1 POP SWAP2 SWAP1 POP JUMP JUMPDEST PUSH1 0x0 PUSH1 0x20 DUP3 ADD SWAP1 POP DUP2 DUP2 SUB PUSH1 0x0 DUP4 ADD MSTORE PUSH2 0x2A7F DUP2 PUSH2 0x2A43 JUMP JUMPDEST SWAP1 POP SWAP2 SWAP1 POP JUMP JUMPDEST PUSH1 0x0 PUSH1 0x40 DUP3 ADD SWAP1 POP PUSH2 0x2A9B PUSH1 0x0 DUP4 ADD DUP6 PUSH2 0x1B1D JUMP JUMPDEST PUSH2 0x2AA8 PUSH1 0x20 DUP4 ADD DUP5 PUSH2 0x1B1D JUMP JUMPDEST SWAP4 SWAP3 POP POP POP JUMP JUMPDEST PUSH1 0x0 PUSH2 0x2ABA DUP3 PUSH2 0x1AA7 JUMP JUMPDEST SWAP2 POP PUSH2 0x2AC5 DUP4 PUSH2 0x1AA7 JUMP JUMPDEST SWAP3 POP DUP3 DUP3 SUB SWAP1 POP DUP2 DUP2 GT ISZERO PUSH2 0x2ADD JUMPI PUSH2 0x2ADC PUSH2 0x269E JUMP JUMPDEST JUMPDEST SWAP3 SWAP2 POP POP JUMP JUMPDEST PUSH1 0x0 PUSH2 0x2AEE DUP3 PUSH2 0x1AA7 JUMP JUMPDEST SWAP2 POP PUSH2 0x2AF9 DUP4 PUSH2 0x1AA7 JUMP JUMPDEST SWAP3 POP DUP3 DUP3 ADD SWAP1 POP DUP1 DUP3 GT ISZERO PUSH2 0x2B11 JUMPI PUSH2 0x2B10 PUSH2 0x269E JUMP JUMPDEST JUMPDEST SWAP3 SWAP2 POP POP JUMP JUMPDEST PUSH32 0x536166654D6174683A206164646974696F6E206F766572666C6F770000000000 PUSH1 0x0 DUP3 ADD MSTORE POP JUMP JUMPDEST PUSH1 0x0 PUSH2 0x2B4D PUSH1 0x1B DUP4 PUSH2 0x1C0D JUMP JUMPDEST SWAP2 POP PUSH2 0x2B58 DUP3 PUSH2 0x2B17 JUMP JUMPDEST PUSH1 0x20 DUP3 ADD SWAP1 POP SWAP2 SWAP1 POP JUMP JUMPDEST PUSH1 0x0 PUSH1 0x20 DUP3 ADD SWAP1 POP DUP2 DUP2 SUB PUSH1 0x0 DUP4 ADD MSTORE PUSH2 0x2B7C DUP2 PUSH2 0x2B40 JUMP JUMPDEST SWAP1 POP SWAP2 SWAP1 POP JUMP JUMPDEST PUSH1 0x0 DUP2 MLOAD SWAP1 POP SWAP2 SWAP1 POP JUMP JUMPDEST PUSH1 0x0 DUP3 DUP3 MSTORE PUSH1 0x20 DUP3 ADD SWAP1 POP SWAP3 SWAP2 POP POP JUMP JUMPDEST PUSH1 0x0 PUSH2 0x2BAA DUP3 PUSH2 0x2B83 JUMP JUMPDEST PUSH2 0x2BB4 DUP2 DUP6 PUSH2 0x2B8E JUMP JUMPDEST SWAP4 POP PUSH2 0x2BC4 DUP2 DUP6 PUSH1 0x20 DUP7 ADD PUSH2 0x1C1E JUMP JUMPDEST PUSH2 0x2BCD DUP2 PUSH2 0x1C48 JUMP JUMPDEST DUP5 ADD SWAP2 POP POP SWAP3 SWAP2 POP POP JUMP JUMPDEST PUSH1 0x0 PUSH1 0xA0 DUP3 ADD SWAP1 POP PUSH2 0x2BED PUSH1 0x0 DUP4 ADD DUP9 PUSH2 0x2234 JUMP JUMPDEST PUSH2 0x2BFA PUSH1 0x20 DUP4 ADD DUP8 PUSH2 0x2234 JUMP JUMPDEST DUP2 DUP2 SUB PUSH1 0x40 DUP4 ADD MSTORE PUSH2 0x2C0C DUP2 DUP7 PUSH2 0x211B JUMP JUMPDEST SWAP1 POP DUP2 DUP2 SUB PUSH1 0x60 DUP4 ADD MSTORE PUSH2 0x2C20 DUP2 DUP6 PUSH2 0x211B JUMP JUMPDEST SWAP1 POP DUP2 DUP2 SUB PUSH1 0x80 DUP4 ADD MSTORE PUSH2 0x2C34 DUP2 DUP5 PUSH2 0x2B9F JUMP JUMPDEST SWAP1 POP SWAP7 SWAP6 POP POP POP POP POP POP JUMP JUMPDEST PUSH1 0x0 DUP2 MLOAD SWAP1 POP PUSH2 0x2C4F DUP2 PUSH2 0x1B73 JUMP JUMPDEST SWAP3 SWAP2 POP POP JUMP JUMPDEST PUSH1 0x0 PUSH1 0x20 DUP3 DUP5 SUB SLT ISZERO PUSH2 0x2C6B JUMPI PUSH2 0x2C6A PUSH2 0x1A3F JUMP JUMPDEST JUMPDEST PUSH1 0x0 PUSH2 0x2C79 DUP5 DUP3 DUP6 ADD PUSH2 0x2C40 JUMP JUMPDEST SWAP2 POP POP SWAP3 SWAP2 POP POP JUMP JUMPDEST PUSH1 0x0 DUP2 PUSH1 0xE0 SHR SWAP1 POP SWAP2 SWAP1 POP JUMP JUMPDEST PUSH1 0x0 PUSH1 0x3 RETURNDATASIZE GT ISZERO PUSH2 0x2CAE JUMPI PUSH1 0x4 PUSH1 0x0 DUP1 RETURNDATACOPY PUSH2 0x2CAB PUSH1 0x0 MLOAD PUSH2 0x2C82 JUMP JUMPDEST SWAP1 POP JUMPDEST SWAP1 JUMP JUMPDEST PUSH1 0x0 PUSH1 0x44 RETURNDATASIZE LT PUSH2 0x2D3E JUMPI PUSH2 0x2CC3 PUSH2 0x1A35 JUMP JUMPDEST PUSH1 0x4 RETURNDATASIZE SUB PUSH1 0x4 DUP3 RETURNDATACOPY DUP1 MLOAD RETURNDATASIZE PUSH1 0x24 DUP3 ADD GT PUSH8 0xFFFFFFFFFFFFFFFF DUP3 GT OR ISZERO PUSH2 0x2CEB JUMPI POP POP PUSH2 0x2D3E JUMP JUMPDEST DUP1 DUP3 ADD DUP1 MLOAD PUSH8 0xFFFFFFFFFFFFFFFF DUP2 GT ISZERO PUSH2 0x2D09 JUMPI POP POP POP POP PUSH2 0x2D3E JUMP JUMPDEST DUP1 PUSH1 0x20 DUP4 ADD ADD PUSH1 0x4 RETURNDATASIZE SUB DUP6 ADD DUP2 GT ISZERO PUSH2 0x2D26 JUMPI POP POP POP POP POP PUSH2 0x2D3E JUMP JUMPDEST PUSH2 0x2D35 DUP3 PUSH1 0x20 ADD DUP6 ADD DUP7 PUSH2 0x1CE8 JUMP JUMPDEST DUP3 SWAP6 POP POP POP POP POP POP JUMPDEST SWAP1 JUMP JUMPDEST PUSH32 0x455243313135353A207472616E7366657220746F206E6F6E2045524331313535 PUSH1 0x0 DUP3 ADD MSTORE PUSH32 0x526563656976657220696D706C656D656E746572000000000000000000000000 PUSH1 0x20 DUP3 ADD MSTORE POP JUMP JUMPDEST PUSH1 0x0 PUSH2 0x2D9D PUSH1 0x34 DUP4 PUSH2 0x1C0D JUMP JUMPDEST SWAP2 POP PUSH2 0x2DA8 DUP3 PUSH2 0x2D41 JUMP JUMPDEST PUSH1 0x40 DUP3 ADD SWAP1 POP SWAP2 SWAP1 POP JUMP JUMPDEST PUSH1 0x0 PUSH1 0x20 DUP3 ADD SWAP1 POP DUP2 DUP2 SUB PUSH1 0x0 DUP4 ADD MSTORE PUSH2 0x2DCC DUP2 PUSH2 0x2D90 JUMP JUMPDEST SWAP1 POP SWAP2 SWAP1 POP JUMP JUMPDEST PUSH32 0x455243313135353A204552433131353552656365697665722072656A65637465 PUSH1 0x0 DUP3 ADD MSTORE PUSH32 0x6420746F6B656E73000000000000000000000000000000000000000000000000 PUSH1 0x20 DUP3 ADD MSTORE POP JUMP JUMPDEST PUSH1 0x0 PUSH2 0x2E2F PUSH1 0x28 DUP4 PUSH2 0x1C0D JUMP JUMPDEST SWAP2 POP PUSH2 0x2E3A DUP3 PUSH2 0x2DD3 JUMP JUMPDEST PUSH1 0x40 DUP3 ADD SWAP1 POP SWAP2 SWAP1 POP JUMP JUMPDEST PUSH1 0x0 PUSH1 0x20 DUP3 ADD SWAP1 POP DUP2 DUP2 SUB PUSH1 0x0 DUP4 ADD MSTORE PUSH2 0x2E5E DUP2 PUSH2 0x2E22 JUMP JUMPDEST SWAP1 POP SWAP2 SWAP1 POP JUMP JUMPDEST PUSH32 0x4E487B7100000000000000000000000000000000000000000000000000000000 PUSH1 0x0 MSTORE PUSH1 0x12 PUSH1 0x4 MSTORE PUSH1 0x24 PUSH1 0x0 REVERT JUMPDEST PUSH1 0x0 PUSH2 0x2E9F DUP3 PUSH2 0x1AA7 JUMP JUMPDEST SWAP2 POP PUSH2 0x2EAA DUP4 PUSH2 0x1AA7 JUMP JUMPDEST SWAP3 POP DUP3 PUSH2 0x2EBA JUMPI PUSH2 0x2EB9 PUSH2 0x2E65 JUMP JUMPDEST JUMPDEST DUP3 DUP3 DIV SWAP1 POP SWAP3 SWAP2 POP POP JUMP JUMPDEST PUSH1 0x0 PUSH2 0x2ED0 DUP3 PUSH2 0x1AA7 JUMP JUMPDEST SWAP2 POP PUSH2 0x2EDB DUP4 PUSH2 0x1AA7 JUMP JUMPDEST SWAP3 POP DUP3 PUSH2 0x2EEB JUMPI PUSH2 0x2EEA PUSH2 0x2E65 JUMP JUMPDEST JUMPDEST DUP3 DUP3 MOD SWAP1 POP SWAP3 SWAP2 POP POP JUMP JUMPDEST PUSH1 0x0 PUSH1 0xA0 DUP3 ADD SWAP1 POP PUSH2 0x2F0B PUSH1 0x0 DUP4 ADD DUP9 PUSH2 0x2234 JUMP JUMPDEST PUSH2 0x2F18 PUSH1 0x20 DUP4 ADD DUP8 PUSH2 0x2234 JUMP JUMPDEST PUSH2 0x2F25 PUSH1 0x40 DUP4 ADD DUP7 PUSH2 0x1B1D JUMP JUMPDEST PUSH2 0x2F32 PUSH1 0x60 DUP4 ADD DUP6 PUSH2 0x1B1D JUMP JUMPDEST DUP2 DUP2 SUB PUSH1 0x80 DUP4 ADD MSTORE PUSH2 0x2F44 DUP2 DUP5 PUSH2 0x2B9F JUMP JUMPDEST SWAP1 POP SWAP7 SWAP6 POP POP POP POP POP POP JUMP INVALID GASLIMIT MSTORE NUMBER BALANCE BALANCE CALLDATALOAD CALLDATALOAD GASPRICE KECCAK256 PUSH10 0x6E73756666696369656E PUSH21 0x2062616C616E636520666F72207472616E73666572 LOG2 PUSH5 0x6970667358 0x22 SLT KECCAK256 CALL 0xCA CODESIZE DUP9 0xEF 0x49 0xAE 0xE5 PUSH2 0x688E REVERT 0x1F 0xE6 PUSH8 0x157359814A7FFF22 0xE3 0xB1 0xEB 0xA6 DUP12 SWAP7 PUSH9 0x308464736F6C634300 ADDMOD LT STOP CALLER PUSH9 0x747470733A2F2F6761 PUSH21 0x657761792E70696E6174612E636C6F75642F697066 PUSH20 0x2F00000000000000000000000000000000000000 "
		},
		"gasEstimates": {
			"creation": {
				"codeDepositCost": "2441600",
				"executionCost": "infinite",
				"totalCost": "infinite"
			},
			"external": {
				"balanceOf(address,uint256)": "infinite",
				"balanceOfBatch(address[],uint256[])": "infinite",
				"getCreator(uint256)": "2909",
				"isApprovedForAll(address,address)": "infinite",
				"name()": "infinite",
				"royaltyFee(uint256)": "infinite",
				"safeBatchTransferFrom(address,address,uint256[],uint256[],bytes)": "infinite",
				"safeTransferFrom(address,address,uint256,uint256,bytes)": "infinite",
				"setApprovalForAll(address,bool)": "infinite",
				"supportsInterface(bytes4)": "2869",
				"symbol()": "infinite",
				"tokenURI(uint256)": "infinite",
				"tokenURIPrefix()": "infinite"
			},
			"internal": {
				"_asSingletonArray(uint256)": "infinite",
				"_beforeTokenTransfer(address,address,address,uint256[] memory,uint256[] memory,bytes memory)": "21",
				"_burn(address,uint256,uint256)": "infinite",
				"_burnBatch(address,uint256[] memory,uint256[] memory)": "infinite",
				"_doSafeBatchTransferAcceptanceCheck(address,address,address,uint256[] memory,uint256[] memory,bytes memory)": "infinite",
				"_doSafeTransferAcceptanceCheck(address,address,address,uint256,uint256,bytes memory)": "infinite",
				"_exists(uint256)": "infinite",
				"_mint(uint256,uint256,string memory,uint256)": "infinite",
				"_mintBatch(address,uint256[] memory,uint256[] memory,bytes memory)": "infinite",
				"_setTokenURI(uint256,string memory)": "infinite",
				"_setTokenURIPrefix(string memory)": "infinite"
			}
		},
		"methodIdentifiers": {
			"balanceOf(address,uint256)": "00fdd58e",
			"balanceOfBatch(address[],uint256[])": "4e1273f4",
			"getCreator(uint256)": "d48e638a",
			"isApprovedForAll(address,address)": "e985e9c5",
			"name()": "06fdde03",
			"royaltyFee(uint256)": "c57dc235",
			"safeBatchTransferFrom(address,address,uint256[],uint256[],bytes)": "2eb2c2d6",
			"safeTransferFrom(address,address,uint256,uint256,bytes)": "f242432a",
			"setApprovalForAll(address,bool)": "a22cb465",
			"supportsInterface(bytes4)": "01ffc9a7",
			"symbol()": "95d89b41",
			"tokenURI(uint256)": "c87b56dd",
			"tokenURIPrefix()": "c0ac9983"
		}
	},
	"abi": [
		{
			"inputs": [
				{
					"internalType": "string",
					"name": "name_",
					"type": "string"
				},
				{
					"internalType": "string",
					"name": "symbol_",
					"type": "string"
				}
			],
			"stateMutability": "nonpayable",
			"type": "constructor"
		},
		{
			"anonymous": false,
			"inputs": [
				{
					"indexed": true,
					"internalType": "address",
					"name": "account",
					"type": "address"
				},
				{
					"indexed": true,
					"internalType": "address",
					"name": "operator",
					"type": "address"
				},
				{
					"indexed": false,
					"internalType": "bool",
					"name": "approved",
					"type": "bool"
				}
			],
			"name": "ApprovalForAll",
			"type": "event"
		},
		{
			"anonymous": false,
			"inputs": [
				{
					"indexed": true,
					"internalType": "address",
					"name": "operator",
					"type": "address"
				},
				{
					"indexed": true,
					"internalType": "address",
					"name": "from",
					"type": "address"
				},
				{
					"indexed": true,
					"internalType": "address",
					"name": "to",
					"type": "address"
				},
				{
					"indexed": false,
					"internalType": "uint256[]",
					"name": "ids",
					"type": "uint256[]"
				},
				{
					"indexed": false,
					"internalType": "uint256[]",
					"name": "values",
					"type": "uint256[]"
				}
			],
			"name": "TransferBatch",
			"type": "event"
		},
		{
			"anonymous": false,
			"inputs": [
				{
					"indexed": true,
					"internalType": "address",
					"name": "operator",
					"type": "address"
				},
				{
					"indexed": true,
					"internalType": "address",
					"name": "from",
					"type": "address"
				},
				{
					"indexed": true,
					"internalType": "address",
					"name": "to",
					"type": "address"
				},
				{
					"indexed": false,
					"internalType": "uint256",
					"name": "id",
					"type": "uint256"
				},
				{
					"indexed": false,
					"internalType": "uint256",
					"name": "value",
					"type": "uint256"
				}
			],
			"name": "TransferSingle",
			"type": "event"
		},
		{
			"anonymous": false,
			"inputs": [
				{
					"indexed": false,
					"internalType": "string",
					"name": "value",
					"type": "string"
				},
				{
					"indexed": true,
					"internalType": "uint256",
					"name": "id",
					"type": "uint256"
				}
			],
			"name": "URI",
			"type": "event"
		},
		{
			"anonymous": false,
			"inputs": [
				{
					"indexed": false,
					"internalType": "string",
					"name": "value",
					"type": "string"
				}
			],
			"name": "tokenBaseURI",
			"type": "event"
		},
		{
			"inputs": [
				{
					"internalType": "address",
					"name": "account",
					"type": "address"
				},
				{
					"internalType": "uint256",
					"name": "tokenId",
					"type": "uint256"
				}
			],
			"name": "balanceOf",
			"outputs": [
				{
					"internalType": "uint256",
					"name": "",
					"type": "uint256"
				}
			],
			"stateMutability": "view",
			"type": "function"
		},
		{
			"inputs": [
				{
					"internalType": "address[]",
					"name": "accounts",
					"type": "address[]"
				},
				{
					"internalType": "uint256[]",
					"name": "ids",
					"type": "uint256[]"
				}
			],
			"name": "balanceOfBatch",
			"outputs": [
				{
					"internalType": "uint256[]",
					"name": "",
					"type": "uint256[]"
				}
			],
			"stateMutability": "view",
			"type": "function"
		},
		{
			"inputs": [
				{
					"internalType": "uint256",
					"name": "tokenId",
					"type": "uint256"
				}
			],
			"name": "getCreator",
			"outputs": [
				{
					"internalType": "address",
					"name": "",
					"type": "address"
				}
			],
			"stateMutability": "view",
			"type": "function"
		},
		{
			"inputs": [
				{
					"internalType": "address",
					"name": "account",
					"type": "address"
				},
				{
					"internalType": "address",
					"name": "operator",
					"type": "address"
				}
			],
			"name": "isApprovedForAll",
			"outputs": [
				{
					"internalType": "bool",
					"name": "",
					"type": "bool"
				}
			],
			"stateMutability": "view",
			"type": "function"
		},
		{
			"inputs": [],
			"name": "name",
			"outputs": [
				{
					"internalType": "string",
					"name": "",
					"type": "string"
				}
			],
			"stateMutability": "view",
			"type": "function"
		},
		{
			"inputs": [
				{
					"internalType": "uint256",
					"name": "tokenId",
					"type": "uint256"
				}
			],
			"name": "royaltyFee",
			"outputs": [
				{
					"internalType": "uint256",
					"name": "",
					"type": "uint256"
				}
			],
			"stateMutability": "view",
			"type": "function"
		},
		{
			"inputs": [
				{
					"internalType": "address",
					"name": "from",
					"type": "address"
				},
				{
					"internalType": "address",
					"name": "to",
					"type": "address"
				},
				{
					"internalType": "uint256[]",
					"name": "tokenIds",
					"type": "uint256[]"
				},
				{
					"internalType": "uint256[]",
					"name": "amounts",
					"type": "uint256[]"
				},
				{
					"internalType": "bytes",
					"name": "data",
					"type": "bytes"
				}
			],
			"name": "safeBatchTransferFrom",
			"outputs": [],
			"stateMutability": "nonpayable",
			"type": "function"
		},
		{
			"inputs": [
				{
					"internalType": "address",
					"name": "from",
					"type": "address"
				},
				{
					"internalType": "address",
					"name": "to",
					"type": "address"
				},
				{
					"internalType": "uint256",
					"name": "tokenId",
					"type": "uint256"
				},
				{
					"internalType": "uint256",
					"name": "amount",
					"type": "uint256"
				},
				{
					"internalType": "bytes",
					"name": "data",
					"type": "bytes"
				}
			],
			"name": "safeTransferFrom",
			"outputs": [],
			"stateMutability": "nonpayable",
			"type": "function"
		},
		{
			"inputs": [
				{
					"internalType": "address",
					"name": "operator",
					"type": "address"
				},
				{
					"internalType": "bool",
					"name": "approved",
					"type": "bool"
				}
			],
			"name": "setApprovalForAll",
			"outputs": [],
			"stateMutability": "nonpayable",
			"type": "function"
		},
		{
			"inputs": [
				{
					"internalType": "bytes4",
					"name": "interfaceId",
					"type": "bytes4"
				}
			],
			"name": "supportsInterface",
			"outputs": [
				{
					"internalType": "bool",
					"name": "",
					"type": "bool"
				}
			],
			"stateMutability": "view",
			"type": "function"
		},
		{
			"inputs": [],
			"name": "symbol",
			"outputs": [
				{
					"internalType": "string",
					"name": "",
					"type": "string"
				}
			],
			"stateMutability": "view",
			"type": "function"
		},
		{
			"inputs": [
				{
					"internalType": "uint256",
					"name": "tokenId",
					"type": "uint256"
				}
			],
			"name": "tokenURI",
			"outputs": [
				{
					"internalType": "string",
					"name": "",
					"type": "string"
				}
			],
			"stateMutability": "view",
			"type": "function"
		},
		{
			"inputs": [],
			"name": "tokenURIPrefix",
			"outputs": [
				{
					"internalType": "string",
					"name": "",
					"type": "string"
				}
			],
			"stateMutability": "view",
			"type": "function"
		}
	]
}