{
	"data": {
		"bytecode": {
			"linkReferences": {},
			"object": "6101406040523480156200001257600080fd5b506040518060400160405280600881526020017f57454233434c55420000000000000000000000000000000000000000000000008152506040518060400160405280600181526020017f31000000000000000000000000000000000000000000000000000000000000008152506040518060400160405280600781526020017f4d79746f6b656e000000000000000000000000000000000000000000000000008152506040518060400160405280600381526020017f4d544b00000000000000000000000000000000000000000000000000000000008152508160009081620000fc91906200056d565b5080600190816200010e91906200056d565b50505060008280519060200120905060008280519060200120905060007f8b73c3c69bb8fe3d512ecc4cf759cc79239f7b179b0ffacaa9a75d522b39400f90508260e081815250508161010081815250504660a081815250506200017a818484620001e960201b60201c565b608081815250503073ffffffffffffffffffffffffffffffffffffffff1660c08173ffffffffffffffffffffffffffffffffffffffff16815250508061012081815250505050505050620001e3620001d76200022560201b60201c565b6200022d60201b60201c565b62000722565b6000838383463060405160200162000206959493929190620006c5565b6040516020818303038152906040528051906020012090509392505050565b600033905090565b6000600660009054906101000a900473ffffffffffffffffffffffffffffffffffffffff16905081600660006101000a81548173ffffffffffffffffffffffffffffffffffffffff021916908373ffffffffffffffffffffffffffffffffffffffff1602179055508173ffffffffffffffffffffffffffffffffffffffff168173ffffffffffffffffffffffffffffffffffffffff167f8be0079c531659141344cd1fd0a4f28419497f9722a3daafe3b4186f6b6457e060405160405180910390a35050565b600081519050919050565b7f4e487b7100000000000000000000000000000000000000000000000000000000600052604160045260246000fd5b7f4e487b7100000000000000000000000000000000000000000000000000000000600052602260045260246000fd5b600060028204905060018216806200037557607f821691505b6020821081036200038b576200038a6200032d565b5b50919050565b60008190508160005260206000209050919050565b60006020601f8301049050919050565b600082821b905092915050565b600060088302620003f57fffffffffffffffffffffffffffffffffffffffffffffffffffffffffffffffff82620003b6565b620004018683620003b6565b95508019841693508086168417925050509392505050565b6000819050919050565b6000819050919050565b60006200044e62000448620004428462000419565b62000423565b62000419565b9050919050565b6000819050919050565b6200046a836200042d565b62000482620004798262000455565b848454620003c3565b825550505050565b600090565b620004996200048a565b620004a68184846200045f565b505050565b5b81811015620004ce57620004c26000826200048f565b600181019050620004ac565b5050565b601f8211156200051d57620004e78162000391565b620004f284620003a6565b8101602085101562000502578190505b6200051a6200051185620003a6565b830182620004ab565b50505b505050565b600082821c905092915050565b6000620005426000198460080262000522565b1980831691505092915050565b60006200055d83836200052f565b9150826002028217905092915050565b6200057882620002f3565b67ffffffffffffffff811115620005945762000593620002fe565b5b620005a082546200035c565b620005ad828285620004d2565b600060209050601f831160018114620005e55760008415620005d0578287015190505b620005dc85826200054f565b8655506200064c565b601f198416620005f58662000391565b60005b828110156200061f57848901518255600182019150602085019450602081019050620005f8565b868310156200063f57848901516200063b601f8916826200052f565b8355505b6001600288020188555050505b505050505050565b6000819050919050565b620006698162000654565b82525050565b6200067a8162000419565b82525050565b600073ffffffffffffffffffffffffffffffffffffffff82169050919050565b6000620006ad8262000680565b9050919050565b620006bf81620006a0565b82525050565b600060a082019050620006dc60008301886200065e565b620006eb60208301876200065e565b620006fa60408301866200065e565b6200070960608301856200066f565b620007186080830184620006b4565b9695505050505050565b60805160a05160c05160e05161010051610120516137cf620007726000396000611dd801526000611e1a01526000611df901526000611d2e01526000611d8401526000611dad01526137cf6000f3fe608060405234801561001057600080fd5b50600436106101165760003560e01c80638da5cb5b116100a2578063c87b56dd11610071578063c87b56dd146102cb578063e5763b73146102fb578063e811c9dd14610317578063e985e9c514610347578063f2fde38b1461037757610116565b80638da5cb5b1461025757806395d89b4114610275578063a22cb46514610293578063b88d4fde146102af57610116565b806323b872dd116100e957806323b872dd146101b557806342842e0e146101d15780636352211e146101ed57806370a082311461021d578063715018a61461024d57610116565b806301ffc9a71461011b57806306fdde031461014b578063081812fc14610169578063095ea7b314610199575b600080fd5b61013560048036038101906101309190612077565b610393565b60405161014291906120bf565b60405180910390f35b610153610475565b604051610160919061216a565b60405180910390f35b610183600480360381019061017e91906121c2565b610507565b6040516101909190612230565b60405180910390f35b6101b360048036038101906101ae9190612277565b61058c565b005b6101cf60048036038101906101ca91906122b7565b6106a3565b005b6101eb60048036038101906101e691906122b7565b610703565b005b610207600480360381019061020291906121c2565b610723565b6040516102149190612230565b60405180910390f35b6102376004803603810190610232919061230a565b6107d4565b6040516102449190612346565b60405180910390f35b61025561088b565b005b61025f610913565b60405161026c9190612230565b60405180910390f35b61027d61093d565b60405161028a919061216a565b60405180910390f35b6102ad60048036038101906102a8919061238d565b6109cf565b005b6102c960048036038101906102c49190612502565b6109e5565b005b6102e560048036038101906102e091906121c2565b610a47565b6040516102f2919061216a565b60405180910390f35b61031560048036038101906103109190612626565b610aee565b005b610331600480360381019061032c91906126c5565b610b96565b60405161033e9190612230565b60405180910390f35b610361600480360381019061035c9190612750565b610bac565b60405161036e91906120bf565b60405180910390f35b610391600480360381019061038c919061230a565b610c40565b005b60007f80ac58cd000000000000000000000000000000000000000000000000000000007bffffffffffffffffffffffffffffffffffffffffffffffffffffffff1916827bffffffffffffffffffffffffffffffffffffffffffffffffffffffff1916148061045e57507f5b5e139f000000000000000000000000000000000000000000000000000000007bffffffffffffffffffffffffffffffffffffffffffffffffffffffff1916827bffffffffffffffffffffffffffffffffffffffffffffffffffffffff1916145b8061046e575061046d82610d37565b5b9050919050565b606060008054610484906127bf565b80601f01602080910402602001604051908101604052809291908181526020018280546104b0906127bf565b80156104fd5780601f106104d2576101008083540402835291602001916104fd565b820191906000526020600020905b8154815290600101906020018083116104e057829003601f168201915b5050505050905090565b600061051282610da1565b610551576040517f08c379a000000000000000000000000000000000000000000000000000000000815260040161054890612862565b60405180910390fd5b6004600083815260200190815260200160002060009054906101000a900473ffffffffffffffffffffffffffffffffffffffff169050919050565b600061059782610723565b90508073ffffffffffffffffffffffffffffffffffffffff168373ffffffffffffffffffffffffffffffffffffffff1603610607576040517f08c379a00000000000000000000000000000000000000000000000000000000081526004016105fe906128f4565b60405180910390fd5b8073ffffffffffffffffffffffffffffffffffffffff16610626610e0d565b73ffffffffffffffffffffffffffffffffffffffff16148061065557506106548161064f610e0d565b610bac565b5b610694576040517f08c379a000000000000000000000000000000000000000000000000000000000815260040161068b90612986565b60405180910390fd5b61069e8383610e15565b505050565b6106b46106ae610e0d565b82610ece565b6106f3576040517f08c379a00000000000000000000000000000000000000000000000000000000081526004016106ea90612a18565b60405180910390fd5b6106fe838383610fac565b505050565b61071e838383604051806020016040528060008152506109e5565b505050565b6000806002600084815260200190815260200160002060009054906101000a900473ffffffffffffffffffffffffffffffffffffffff169050600073ffffffffffffffffffffffffffffffffffffffff168173ffffffffffffffffffffffffffffffffffffffff16036107cb576040517f08c379a00000000000000000000000000000000000000000000000000000000081526004016107c290612aaa565b60405180910390fd5b80915050919050565b60008073ffffffffffffffffffffffffffffffffffffffff168273ffffffffffffffffffffffffffffffffffffffff1603610844576040517f08c379a000000000000000000000000000000000000000000000000000000000815260040161083b90612b3c565b60405180910390fd5b600360008373ffffffffffffffffffffffffffffffffffffffff1673ffffffffffffffffffffffffffffffffffffffff168152602001908152602001600020549050919050565b610893610e0d565b73ffffffffffffffffffffffffffffffffffffffff166108b1610913565b73ffffffffffffffffffffffffffffffffffffffff1614610907576040517f08c379a00000000000000000000000000000000000000000000000000000000081526004016108fe90612ba8565b60405180910390fd5b6109116000611207565b565b6000600660009054906101000a900473ffffffffffffffffffffffffffffffffffffffff16905090565b60606001805461094c906127bf565b80601f0160208091040260200160405190810160405280929190818152602001828054610978906127bf565b80156109c55780601f1061099a576101008083540402835291602001916109c5565b820191906000526020600020905b8154815290600101906020018083116109a857829003601f168201915b5050505050905090565b6109e16109da610e0d565b83836112cd565b5050565b6109f66109f0610e0d565b83610ece565b610a35576040517f08c379a0000000000000000000000000000000000000000000000000000000008152600401610a2c90612a18565b60405180910390fd5b610a4184848484611439565b50505050565b6060610a5282610da1565b610a91576040517f08c379a0000000000000000000000000000000000000000000000000000000008152600401610a8890612c3a565b60405180910390fd5b6000610a9b611495565b90506000815111610abb5760405180602001604052806000815250610ae6565b80610ac5846114ac565b604051602001610ad6929190612c96565b6040516020818303038152906040525b915050919050565b610af6610913565b73ffffffffffffffffffffffffffffffffffffffff16610b17838584610b96565b73ffffffffffffffffffffffffffffffffffffffff1614610b6d576040517f08c379a0000000000000000000000000000000000000000000000000000000008152600401610b6490612d06565b60405180910390fd5b610b77600761160c565b6000610b836007611622565b9050610b8f8582611630565b5050505050565b6000610ba384848461164e565b90509392505050565b6000600560008473ffffffffffffffffffffffffffffffffffffffff1673ffffffffffffffffffffffffffffffffffffffff16815260200190815260200160002060008373ffffffffffffffffffffffffffffffffffffffff1673ffffffffffffffffffffffffffffffffffffffff16815260200190815260200160002060009054906101000a900460ff16905092915050565b610c48610e0d565b73ffffffffffffffffffffffffffffffffffffffff16610c66610913565b73ffffffffffffffffffffffffffffffffffffffff1614610cbc576040517f08c379a0000000000000000000000000000000000000000000000000000000008152600401610cb390612ba8565b60405180910390fd5b600073ffffffffffffffffffffffffffffffffffffffff168173ffffffffffffffffffffffffffffffffffffffff1603610d2b576040517f08c379a0000000000000000000000000000000000000000000000000000000008152600401610d2290612d98565b60405180910390fd5b610d3481611207565b50565b60007f01ffc9a7000000000000000000000000000000000000000000000000000000007bffffffffffffffffffffffffffffffffffffffffffffffffffffffff1916827bffffffffffffffffffffffffffffffffffffffffffffffffffffffff1916149050919050565b60008073ffffffffffffffffffffffffffffffffffffffff166002600084815260200190815260200160002060009054906101000a900473ffffffffffffffffffffffffffffffffffffffff1673ffffffffffffffffffffffffffffffffffffffff1614159050919050565b600033905090565b816004600083815260200190815260200160002060006101000a81548173ffffffffffffffffffffffffffffffffffffffff021916908373ffffffffffffffffffffffffffffffffffffffff160217905550808273ffffffffffffffffffffffffffffffffffffffff16610e8883610723565b73ffffffffffffffffffffffffffffffffffffffff167f8c5be1e5ebec7d5bd14f71427d1e84f3dd0314c0f7b2291e5b200ac8c7c3b92560405160405180910390a45050565b6000610ed982610da1565b610f18576040517f08c379a0000000000000000000000000000000000000000000000000000000008152600401610f0f90612e2a565b60405180910390fd5b6000610f2383610723565b90508073ffffffffffffffffffffffffffffffffffffffff168473ffffffffffffffffffffffffffffffffffffffff161480610f9257508373ffffffffffffffffffffffffffffffffffffffff16610f7a84610507565b73ffffffffffffffffffffffffffffffffffffffff16145b80610fa35750610fa28185610bac565b5b91505092915050565b8273ffffffffffffffffffffffffffffffffffffffff16610fcc82610723565b73ffffffffffffffffffffffffffffffffffffffff1614611022576040517f08c379a000000000000000000000000000000000000000000000000000000000815260040161101990612ebc565b60405180910390fd5b600073ffffffffffffffffffffffffffffffffffffffff168273ffffffffffffffffffffffffffffffffffffffff1603611091576040517f08c379a000000000000000000000000000000000000000000000000000000000815260040161108890612f4e565b60405180910390fd5b61109c838383611671565b6110a7600082610e15565b6001600360008573ffffffffffffffffffffffffffffffffffffffff1673ffffffffffffffffffffffffffffffffffffffff16815260200190815260200160002060008282546110f79190612f9d565b925050819055506001600360008473ffffffffffffffffffffffffffffffffffffffff1673ffffffffffffffffffffffffffffffffffffffff168152602001908152602001600020600082825461114e9190612fd1565b92505081905550816002600083815260200190815260200160002060006101000a81548173ffffffffffffffffffffffffffffffffffffffff021916908373ffffffffffffffffffffffffffffffffffffffff160217905550808273ffffffffffffffffffffffffffffffffffffffff168473ffffffffffffffffffffffffffffffffffffffff167fddf252ad1be2c89b69c2b068fc378daa952ba7f163c4a11628f55a4df523b3ef60405160405180910390a4505050565b6000600660009054906101000a900473ffffffffffffffffffffffffffffffffffffffff16905081600660006101000a81548173ffffffffffffffffffffffffffffffffffffffff021916908373ffffffffffffffffffffffffffffffffffffffff1602179055508173ffffffffffffffffffffffffffffffffffffffff168173ffffffffffffffffffffffffffffffffffffffff167f8be0079c531659141344cd1fd0a4f28419497f9722a3daafe3b4186f6b6457e060405160405180910390a35050565b8173ffffffffffffffffffffffffffffffffffffffff168373ffffffffffffffffffffffffffffffffffffffff160361133b576040517f08c379a000000000000000000000000000000000000000000000000000000000815260040161133290613051565b60405180910390fd5b80600560008573ffffffffffffffffffffffffffffffffffffffff1673ffffffffffffffffffffffffffffffffffffffff16815260200190815260200160002060008473ffffffffffffffffffffffffffffffffffffffff1673ffffffffffffffffffffffffffffffffffffffff16815260200190815260200160002060006101000a81548160ff0219169083151502179055508173ffffffffffffffffffffffffffffffffffffffff168373ffffffffffffffffffffffffffffffffffffffff167f17307eab39ab6107e8899845ad3d59bd9653f200f220920489ca2b5937696c318360405161142c91906120bf565b60405180910390a3505050565b611444848484610fac565b61145084848484611676565b61148f576040517f08c379a0000000000000000000000000000000000000000000000000000000008152600401611486906130e3565b60405180910390fd5b50505050565b606060405180602001604052806000815250905090565b6060600082036114f3576040518060400160405280600181526020017f30000000000000000000000000000000000000000000000000000000000000008152509050611607565b600082905060005b6000821461152557808061150e90613103565b915050600a8261151e919061317a565b91506114fb565b60008167ffffffffffffffff811115611541576115406123d7565b5b6040519080825280601f01601f1916602001820160405280156115735781602001600182028036833780820191505090505b5090505b600085146116005760018261158c9190612f9d565b9150600a8561159b91906131ab565b60306115a79190612fd1565b60f81b8183815181106115bd576115bc6131dc565b5b60200101907effffffffffffffffffffffffffffffffffffffffffffffffffffffffffffff1916908160001a905350600a856115f9919061317a565b9450611577565b8093505050505b919050565b6001816000016000828254019250508190555050565b600081600001549050919050565b61164a8282604051806020016040528060008152506117fd565b5050565b60008061165b8585611858565b905061166781846118bc565b9150509392505050565b505050565b60006116978473ffffffffffffffffffffffffffffffffffffffff166118e3565b156117f0578373ffffffffffffffffffffffffffffffffffffffff1663150b7a026116c0610e0d565b8786866040518563ffffffff1660e01b81526004016116e29493929190613260565b6020604051808303816000875af192505050801561171e57506040513d601f19601f8201168201806040525081019061171b91906132c1565b60015b6117a0573d806000811461174e576040519150601f19603f3d011682016040523d82523d6000602084013e611753565b606091505b506000815103611798576040517f08c379a000000000000000000000000000000000000000000000000000000000815260040161178f906130e3565b60405180910390fd5b805181602001fd5b63150b7a0260e01b7bffffffffffffffffffffffffffffffffffffffffffffffffffffffff1916817bffffffffffffffffffffffffffffffffffffffffffffffffffffffff1916149150506117f5565b600190505b949350505050565b61180783836118f6565b6118146000848484611676565b611853576040517f08c379a000000000000000000000000000000000000000000000000000000000815260040161184a906130e3565b60405180910390fd5b505050565b60006118b47f2759bc0c7cafcd6881074c0260e6f1d4de38c888587c92913dedb789991529ec84848051906020012060405160200161189993929190613307565b60405160208183030381529060405280519060200120611ac3565b905092915050565b60008060006118cb8585611add565b915091506118d881611b5e565b819250505092915050565b600080823b905060008111915050919050565b600073ffffffffffffffffffffffffffffffffffffffff168273ffffffffffffffffffffffffffffffffffffffff1603611965576040517f08c379a000000000000000000000000000000000000000000000000000000000815260040161195c9061338a565b60405180910390fd5b61196e81610da1565b156119ae576040517f08c379a00000000000000000000000000000000000000000000000000000000081526004016119a5906133f6565b60405180910390fd5b6119ba60008383611671565b6001600360008473ffffffffffffffffffffffffffffffffffffffff1673ffffffffffffffffffffffffffffffffffffffff1681526020019081526020016000206000828254611a0a9190612fd1565b92505081905550816002600083815260200190815260200160002060006101000a81548173ffffffffffffffffffffffffffffffffffffffff021916908373ffffffffffffffffffffffffffffffffffffffff160217905550808273ffffffffffffffffffffffffffffffffffffffff16600073ffffffffffffffffffffffffffffffffffffffff167fddf252ad1be2c89b69c2b068fc378daa952ba7f163c4a11628f55a4df523b3ef60405160405180910390a45050565b6000611ad6611ad0611d2a565b83611e44565b9050919050565b6000806041835103611b1e5760008060006020860151925060408601519150606086015160001a9050611b1287828585611e77565b94509450505050611b57565b6040835103611b4e576000806020850151915060408501519050611b43868383611f83565b935093505050611b57565b60006002915091505b9250929050565b60006004811115611b7257611b71613416565b5b816004811115611b8557611b84613416565b5b0315611d275760016004811115611b9f57611b9e613416565b5b816004811115611bb257611bb1613416565b5b03611bf2576040517f08c379a0000000000000000000000000000000000000000000000000000000008152600401611be990613491565b60405180910390fd5b60026004811115611c0657611c05613416565b5b816004811115611c1957611c18613416565b5b03611c59576040517f08c379a0000000000000000000000000000000000000000000000000000000008152600401611c50906134fd565b60405180910390fd5b60036004811115611c6d57611c6c613416565b5b816004811115611c8057611c7f613416565b5b03611cc0576040517f08c379a0000000000000000000000000000000000000000000000000000000008152600401611cb79061358f565b60405180910390fd5b600480811115611cd357611cd2613416565b5b816004811115611ce657611ce5613416565b5b03611d26576040517f08c379a0000000000000000000000000000000000000000000000000000000008152600401611d1d90613621565b60405180910390fd5b5b50565b60007f000000000000000000000000000000000000000000000000000000000000000073ffffffffffffffffffffffffffffffffffffffff163073ffffffffffffffffffffffffffffffffffffffff16148015611da657507f000000000000000000000000000000000000000000000000000000000000000046145b15611dd3577f00000000000000000000000000000000000000000000000000000000000000009050611e41565b611e3e7f00000000000000000000000000000000000000000000000000000000000000007f00000000000000000000000000000000000000000000000000000000000000007f0000000000000000000000000000000000000000000000000000000000000000611fd1565b90505b90565b60008282604051602001611e599291906136ae565b60405160208183030381529060405280519060200120905092915050565b6000807f7fffffffffffffffffffffffffffffff5d576e7357a4501ddfe92f46681b20a08360001c1115611eb2576000600391509150611f7a565b601b8560ff1614158015611eca5750601c8560ff1614155b15611edc576000600491509150611f7a565b600060018787878760405160008152602001604052604051611f019493929190613701565b6020604051602081039080840390855afa158015611f23573d6000803e3d6000fd5b505050602060405103519050600073ffffffffffffffffffffffffffffffffffffffff168173ffffffffffffffffffffffffffffffffffffffff1603611f7157600060019250925050611f7a565b80600092509250505b94509492505050565b6000806000807f7fffffffffffffffffffffffffffffffffffffffffffffffffffffffffffffff85169150601b8560ff1c019050611fc387828885611e77565b935093505050935093915050565b60008383834630604051602001611fec959493929190613746565b6040516020818303038152906040528051906020012090509392505050565b6000604051905090565b600080fd5b600080fd5b60007fffffffff0000000000000000000000000000000000000000000000000000000082169050919050565b6120548161201f565b811461205f57600080fd5b50565b6000813590506120718161204b565b92915050565b60006020828403121561208d5761208c612015565b5b600061209b84828501612062565b91505092915050565b60008115159050919050565b6120b9816120a4565b82525050565b60006020820190506120d460008301846120b0565b92915050565b600081519050919050565b600082825260208201905092915050565b60005b838110156121145780820151818401526020810190506120f9565b60008484015250505050565b6000601f19601f8301169050919050565b600061213c826120da565b61214681856120e5565b93506121568185602086016120f6565b61215f81612120565b840191505092915050565b600060208201905081810360008301526121848184612131565b905092915050565b6000819050919050565b61219f8161218c565b81146121aa57600080fd5b50565b6000813590506121bc81612196565b92915050565b6000602082840312156121d8576121d7612015565b5b60006121e6848285016121ad565b91505092915050565b600073ffffffffffffffffffffffffffffffffffffffff82169050919050565b600061221a826121ef565b9050919050565b61222a8161220f565b82525050565b60006020820190506122456000830184612221565b92915050565b6122548161220f565b811461225f57600080fd5b50565b6000813590506122718161224b565b92915050565b6000806040838503121561228e5761228d612015565b5b600061229c85828601612262565b92505060206122ad858286016121ad565b9150509250929050565b6000806000606084860312156122d0576122cf612015565b5b60006122de86828701612262565b93505060206122ef86828701612262565b9250506040612300868287016121ad565b9150509250925092565b6000602082840312156123205761231f612015565b5b600061232e84828501612262565b91505092915050565b6123408161218c565b82525050565b600060208201905061235b6000830184612337565b92915050565b61236a816120a4565b811461237557600080fd5b50565b60008135905061238781612361565b92915050565b600080604083850312156123a4576123a3612015565b5b60006123b285828601612262565b92505060206123c385828601612378565b9150509250929050565b600080fd5b600080fd5b7f4e487b7100000000000000000000000000000000000000000000000000000000600052604160045260246000fd5b61240f82612120565b810181811067ffffffffffffffff8211171561242e5761242d6123d7565b5b80604052505050565b600061244161200b565b905061244d8282612406565b919050565b600067ffffffffffffffff82111561246d5761246c6123d7565b5b61247682612120565b9050602081019050919050565b82818337600083830152505050565b60006124a56124a084612452565b612437565b9050828152602081018484840111156124c1576124c06123d2565b5b6124cc848285612483565b509392505050565b600082601f8301126124e9576124e86123cd565b5b81356124f9848260208601612492565b91505092915050565b6000806000806080858703121561251c5761251b612015565b5b600061252a87828801612262565b945050602061253b87828801612262565b935050604061254c878288016121ad565b925050606085013567ffffffffffffffff81111561256d5761256c61201a565b5b612579878288016124d4565b91505092959194509250565b600067ffffffffffffffff8211156125a05761259f6123d7565b5b6125a982612120565b9050602081019050919050565b60006125c96125c484612585565b612437565b9050828152602081018484840111156125e5576125e46123d2565b5b6125f0848285612483565b509392505050565b600082601f83011261260d5761260c6123cd565b5b813561261d8482602086016125b6565b91505092915050565b600080600080608085870312156126405761263f612015565b5b600061264e87828801612262565b945050602085013567ffffffffffffffff81111561266f5761266e61201a565b5b61267b878288016125f8565b935050604061268c878288016121ad565b925050606085013567ffffffffffffffff8111156126ad576126ac61201a565b5b6126b9878288016124d4565b91505092959194509250565b6000806000606084860312156126de576126dd612015565b5b60006126ec868287016121ad565b935050602084013567ffffffffffffffff81111561270d5761270c61201a565b5b612719868287016125f8565b925050604084013567ffffffffffffffff81111561273a5761273961201a565b5b612746868287016124d4565b9150509250925092565b6000806040838503121561276757612766612015565b5b600061277585828601612262565b925050602061278685828601612262565b9150509250929050565b7f4e487b7100000000000000000000000000000000000000000000000000000000600052602260045260246000fd5b600060028204905060018216806127d757607f821691505b6020821081036127ea576127e9612790565b5b50919050565b7f4552433732313a20617070726f76656420717565727920666f72206e6f6e657860008201527f697374656e7420746f6b656e0000000000000000000000000000000000000000602082015250565b600061284c602c836120e5565b9150612857826127f0565b604082019050919050565b6000602082019050818103600083015261287b8161283f565b9050919050565b7f4552433732313a20617070726f76616c20746f2063757272656e74206f776e6560008201527f7200000000000000000000000000000000000000000000000000000000000000602082015250565b60006128de6021836120e5565b91506128e982612882565b604082019050919050565b6000602082019050818103600083015261290d816128d1565b9050919050565b7f4552433732313a20617070726f76652063616c6c6572206973206e6f74206f7760008201527f6e6572206e6f7220617070726f76656420666f7220616c6c0000000000000000602082015250565b60006129706038836120e5565b915061297b82612914565b604082019050919050565b6000602082019050818103600083015261299f81612963565b9050919050565b7f4552433732313a207472616e736665722063616c6c6572206973206e6f74206f60008201527f776e6572206e6f7220617070726f766564000000000000000000000000000000602082015250565b6000612a026031836120e5565b9150612a0d826129a6565b604082019050919050565b60006020820190508181036000830152612a31816129f5565b9050919050565b7f4552433732313a206f776e657220717565727920666f72206e6f6e657869737460008201527f656e7420746f6b656e0000000000000000000000000000000000000000000000602082015250565b6000612a946029836120e5565b9150612a9f82612a38565b604082019050919050565b60006020820190508181036000830152612ac381612a87565b9050919050565b7f4552433732313a2062616c616e636520717565727920666f7220746865207a6560008201527f726f206164647265737300000000000000000000000000000000000000000000602082015250565b6000612b26602a836120e5565b9150612b3182612aca565b604082019050919050565b60006020820190508181036000830152612b5581612b19565b9050919050565b7f4f776e61626c653a2063616c6c6572206973206e6f7420746865206f776e6572600082015250565b6000612b926020836120e5565b9150612b9d82612b5c565b602082019050919050565b60006020820190508181036000830152612bc181612b85565b9050919050565b7f4552433732314d657461646174613a2055524920717565727920666f72206e6f60008201527f6e6578697374656e7420746f6b656e0000000000000000000000000000000000602082015250565b6000612c24602f836120e5565b9150612c2f82612bc8565b604082019050919050565b60006020820190508181036000830152612c5381612c17565b9050919050565b600081905092915050565b6000612c70826120da565b612c7a8185612c5a565b9350612c8a8185602086016120f6565b80840191505092915050565b6000612ca28285612c65565b9150612cae8284612c65565b91508190509392505050565b7f566f756368657220696e76616c69640000000000000000000000000000000000600082015250565b6000612cf0600f836120e5565b9150612cfb82612cba565b602082019050919050565b60006020820190508181036000830152612d1f81612ce3565b9050919050565b7f4f776e61626c653a206e6577206f776e657220697320746865207a65726f206160008201527f6464726573730000000000000000000000000000000000000000000000000000602082015250565b6000612d826026836120e5565b9150612d8d82612d26565b604082019050919050565b60006020820190508181036000830152612db181612d75565b9050919050565b7f4552433732313a206f70657261746f7220717565727920666f72206e6f6e657860008201527f697374656e7420746f6b656e0000000000000000000000000000000000000000602082015250565b6000612e14602c836120e5565b9150612e1f82612db8565b604082019050919050565b60006020820190508181036000830152612e4381612e07565b9050919050565b7f4552433732313a207472616e73666572206f6620746f6b656e2074686174206960008201527f73206e6f74206f776e0000000000000000000000000000000000000000000000602082015250565b6000612ea66029836120e5565b9150612eb182612e4a565b604082019050919050565b60006020820190508181036000830152612ed581612e99565b9050919050565b7f4552433732313a207472616e7366657220746f20746865207a65726f2061646460008201527f7265737300000000000000000000000000000000000000000000000000000000602082015250565b6000612f386024836120e5565b9150612f4382612edc565b604082019050919050565b60006020820190508181036000830152612f6781612f2b565b9050919050565b7f4e487b7100000000000000000000000000000000000000000000000000000000600052601160045260246000fd5b6000612fa88261218c565b9150612fb38361218c565b9250828203905081811115612fcb57612fca612f6e565b5b92915050565b6000612fdc8261218c565b9150612fe78361218c565b9250828201905080821115612fff57612ffe612f6e565b5b92915050565b7f4552433732313a20617070726f766520746f2063616c6c657200000000000000600082015250565b600061303b6019836120e5565b915061304682613005565b602082019050919050565b6000602082019050818103600083015261306a8161302e565b9050919050565b7f4552433732313a207472616e7366657220746f206e6f6e20455243373231526560008201527f63656976657220696d706c656d656e7465720000000000000000000000000000602082015250565b60006130cd6032836120e5565b91506130d882613071565b604082019050919050565b600060208201905081810360008301526130fc816130c0565b9050919050565b600061310e8261218c565b91507fffffffffffffffffffffffffffffffffffffffffffffffffffffffffffffffff82036131405761313f612f6e565b5b600182019050919050565b7f4e487b7100000000000000000000000000000000000000000000000000000000600052601260045260246000fd5b60006131858261218c565b91506131908361218c565b9250826131a05761319f61314b565b5b828204905092915050565b60006131b68261218c565b91506131c18361218c565b9250826131d1576131d061314b565b5b828206905092915050565b7f4e487b7100000000000000000000000000000000000000000000000000000000600052603260045260246000fd5b600081519050919050565b600082825260208201905092915050565b60006132328261320b565b61323c8185613216565b935061324c8185602086016120f6565b61325581612120565b840191505092915050565b60006080820190506132756000830187612221565b6132826020830186612221565b61328f6040830185612337565b81810360608301526132a18184613227565b905095945050505050565b6000815190506132bb8161204b565b92915050565b6000602082840312156132d7576132d6612015565b5b60006132e5848285016132ac565b91505092915050565b6000819050919050565b613301816132ee565b82525050565b600060608201905061331c60008301866132f8565b6133296020830185612337565b61333660408301846132f8565b949350505050565b7f4552433732313a206d696e7420746f20746865207a65726f2061646472657373600082015250565b60006133746020836120e5565b915061337f8261333e565b602082019050919050565b600060208201905081810360008301526133a381613367565b9050919050565b7f4552433732313a20746f6b656e20616c7265616479206d696e74656400000000600082015250565b60006133e0601c836120e5565b91506133eb826133aa565b602082019050919050565b6000602082019050818103600083015261340f816133d3565b9050919050565b7f4e487b7100000000000000000000000000000000000000000000000000000000600052602160045260246000fd5b7f45434453413a20696e76616c6964207369676e61747572650000000000000000600082015250565b600061347b6018836120e5565b915061348682613445565b602082019050919050565b600060208201905081810360008301526134aa8161346e565b9050919050565b7f45434453413a20696e76616c6964207369676e6174757265206c656e67746800600082015250565b60006134e7601f836120e5565b91506134f2826134b1565b602082019050919050565b60006020820190508181036000830152613516816134da565b9050919050565b7f45434453413a20696e76616c6964207369676e6174757265202773272076616c60008201527f7565000000000000000000000000000000000000000000000000000000000000602082015250565b60006135796022836120e5565b91506135848261351d565b604082019050919050565b600060208201905081810360008301526135a88161356c565b9050919050565b7f45434453413a20696e76616c6964207369676e6174757265202776272076616c60008201527f7565000000000000000000000000000000000000000000000000000000000000602082015250565b600061360b6022836120e5565b9150613616826135af565b604082019050919050565b6000602082019050818103600083015261363a816135fe565b9050919050565b7f1901000000000000000000000000000000000000000000000000000000000000600082015250565b6000613677600283612c5a565b915061368282613641565b600282019050919050565b6000819050919050565b6136a86136a3826132ee565b61368d565b82525050565b60006136b98261366a565b91506136c58285613697565b6020820191506136d58284613697565b6020820191508190509392505050565b600060ff82169050919050565b6136fb816136e5565b82525050565b600060808201905061371660008301876132f8565b61372360208301866136f2565b61373060408301856132f8565b61373d60608301846132f8565b95945050505050565b600060a08201905061375b60008301886132f8565b61376860208301876132f8565b61377560408301866132f8565b6137826060830185612337565b61378f6080830184612221565b969550505050505056fea2646970667358221220c8941411fba8200f13232288a835a9c8ffff7f0fc94be3faaf173d0dfd13c32364736f6c63430008100033",
			"opcodes": "PUSH2 0x140 PUSH1 0x40 MSTORE CALLVALUE DUP1 ISZERO PUSH3 0x12 JUMPI PUSH1 0x0 DUP1 REVERT JUMPDEST POP PUSH1 0x40 MLOAD DUP1 PUSH1 0x40 ADD PUSH1 0x40 MSTORE DUP1 PUSH1 0x8 DUP2 MSTORE PUSH1 0x20 ADD PUSH32 0x57454233434C5542000000000000000000000000000000000000000000000000 DUP2 MSTORE POP PUSH1 0x40 MLOAD DUP1 PUSH1 0x40 ADD PUSH1 0x40 MSTORE DUP1 PUSH1 0x1 DUP2 MSTORE PUSH1 0x20 ADD PUSH32 0x3100000000000000000000000000000000000000000000000000000000000000 DUP2 MSTORE POP PUSH1 0x40 MLOAD DUP1 PUSH1 0x40 ADD PUSH1 0x40 MSTORE DUP1 PUSH1 0x7 DUP2 MSTORE PUSH1 0x20 ADD PUSH32 0x4D79746F6B656E00000000000000000000000000000000000000000000000000 DUP2 MSTORE POP PUSH1 0x40 MLOAD DUP1 PUSH1 0x40 ADD PUSH1 0x40 MSTORE DUP1 PUSH1 0x3 DUP2 MSTORE PUSH1 0x20 ADD PUSH32 0x4D544B0000000000000000000000000000000000000000000000000000000000 DUP2 MSTORE POP DUP2 PUSH1 0x0 SWAP1 DUP2 PUSH3 0xFC SWAP2 SWAP1 PUSH3 0x56D JUMP JUMPDEST POP DUP1 PUSH1 0x1 SWAP1 DUP2 PUSH3 0x10E SWAP2 SWAP1 PUSH3 0x56D JUMP JUMPDEST POP POP POP PUSH1 0x0 DUP3 DUP1 MLOAD SWAP1 PUSH1 0x20 ADD KECCAK256 SWAP1 POP PUSH1 0x0 DUP3 DUP1 MLOAD SWAP1 PUSH1 0x20 ADD KECCAK256 SWAP1 POP PUSH1 0x0 PUSH32 0x8B73C3C69BB8FE3D512ECC4CF759CC79239F7B179B0FFACAA9A75D522B39400F SWAP1 POP DUP3 PUSH1 0xE0 DUP2 DUP2 MSTORE POP POP DUP2 PUSH2 0x100 DUP2 DUP2 MSTORE POP POP CHAINID PUSH1 0xA0 DUP2 DUP2 MSTORE POP POP PUSH3 0x17A DUP2 DUP5 DUP5 PUSH3 0x1E9 PUSH1 0x20 SHL PUSH1 0x20 SHR JUMP JUMPDEST PUSH1 0x80 DUP2 DUP2 MSTORE POP POP ADDRESS PUSH20 0xFFFFFFFFFFFFFFFFFFFFFFFFFFFFFFFFFFFFFFFF AND PUSH1 0xC0 DUP2 PUSH20 0xFFFFFFFFFFFFFFFFFFFFFFFFFFFFFFFFFFFFFFFF AND DUP2 MSTORE POP POP DUP1 PUSH2 0x120 DUP2 DUP2 MSTORE POP POP POP POP POP POP POP PUSH3 0x1E3 PUSH3 0x1D7 PUSH3 0x225 PUSH1 0x20 SHL PUSH1 0x20 SHR JUMP JUMPDEST PUSH3 0x22D PUSH1 0x20 SHL PUSH1 0x20 SHR JUMP JUMPDEST PUSH3 0x722 JUMP JUMPDEST PUSH1 0x0 DUP4 DUP4 DUP4 CHAINID ADDRESS PUSH1 0x40 MLOAD PUSH1 0x20 ADD PUSH3 0x206 SWAP6 SWAP5 SWAP4 SWAP3 SWAP2 SWAP1 PUSH3 0x6C5 JUMP JUMPDEST PUSH1 0x40 MLOAD PUSH1 0x20 DUP2 DUP4 SUB SUB DUP2 MSTORE SWAP1 PUSH1 0x40 MSTORE DUP1 MLOAD SWAP1 PUSH1 0x20 ADD KECCAK256 SWAP1 POP SWAP4 SWAP3 POP POP POP JUMP JUMPDEST PUSH1 0x0 CALLER SWAP1 POP SWAP1 JUMP JUMPDEST PUSH1 0x0 PUSH1 0x6 PUSH1 0x0 SWAP1 SLOAD SWAP1 PUSH2 0x100 EXP SWAP1 DIV PUSH20 0xFFFFFFFFFFFFFFFFFFFFFFFFFFFFFFFFFFFFFFFF AND SWAP1 POP DUP2 PUSH1 0x6 PUSH1 0x0 PUSH2 0x100 EXP DUP2 SLOAD DUP2 PUSH20 0xFFFFFFFFFFFFFFFFFFFFFFFFFFFFFFFFFFFFFFFF MUL NOT AND SWAP1 DUP4 PUSH20 0xFFFFFFFFFFFFFFFFFFFFFFFFFFFFFFFFFFFFFFFF AND MUL OR SWAP1 SSTORE POP DUP2 PUSH20 0xFFFFFFFFFFFFFFFFFFFFFFFFFFFFFFFFFFFFFFFF AND DUP2 PUSH20 0xFFFFFFFFFFFFFFFFFFFFFFFFFFFFFFFFFFFFFFFF AND PUSH32 0x8BE0079C531659141344CD1FD0A4F28419497F9722A3DAAFE3B4186F6B6457E0 PUSH1 0x40 MLOAD PUSH1 0x40 MLOAD DUP1 SWAP2 SUB SWAP1 LOG3 POP POP JUMP JUMPDEST PUSH1 0x0 DUP2 MLOAD SWAP1 POP SWAP2 SWAP1 POP JUMP JUMPDEST PUSH32 0x4E487B7100000000000000000000000000000000000000000000000000000000 PUSH1 0x0 MSTORE PUSH1 0x41 PUSH1 0x4 MSTORE PUSH1 0x24 PUSH1 0x0 REVERT JUMPDEST PUSH32 0x4E487B7100000000000000000000000000000000000000000000000000000000 PUSH1 0x0 MSTORE PUSH1 0x22 PUSH1 0x4 MSTORE PUSH1 0x24 PUSH1 0x0 REVERT JUMPDEST PUSH1 0x0 PUSH1 0x2 DUP3 DIV SWAP1 POP PUSH1 0x1 DUP3 AND DUP1 PUSH3 0x375 JUMPI PUSH1 0x7F DUP3 AND SWAP2 POP JUMPDEST PUSH1 0x20 DUP3 LT DUP2 SUB PUSH3 0x38B JUMPI PUSH3 0x38A PUSH3 0x32D JUMP JUMPDEST JUMPDEST POP SWAP2 SWAP1 POP JUMP JUMPDEST PUSH1 0x0 DUP2 SWAP1 POP DUP2 PUSH1 0x0 MSTORE PUSH1 0x20 PUSH1 0x0 KECCAK256 SWAP1 POP SWAP2 SWAP1 POP JUMP JUMPDEST PUSH1 0x0 PUSH1 0x20 PUSH1 0x1F DUP4 ADD DIV SWAP1 POP SWAP2 SWAP1 POP JUMP JUMPDEST PUSH1 0x0 DUP3 DUP3 SHL SWAP1 POP SWAP3 SWAP2 POP POP JUMP JUMPDEST PUSH1 0x0 PUSH1 0x8 DUP4 MUL PUSH3 0x3F5 PUSH32 0xFFFFFFFFFFFFFFFFFFFFFFFFFFFFFFFFFFFFFFFFFFFFFFFFFFFFFFFFFFFFFFFF DUP3 PUSH3 0x3B6 JUMP JUMPDEST PUSH3 0x401 DUP7 DUP4 PUSH3 0x3B6 JUMP JUMPDEST SWAP6 POP DUP1 NOT DUP5 AND SWAP4 POP DUP1 DUP7 AND DUP5 OR SWAP3 POP POP POP SWAP4 SWAP3 POP POP POP JUMP JUMPDEST PUSH1 0x0 DUP2 SWAP1 POP SWAP2 SWAP1 POP JUMP JUMPDEST PUSH1 0x0 DUP2 SWAP1 POP SWAP2 SWAP1 POP JUMP JUMPDEST PUSH1 0x0 PUSH3 0x44E PUSH3 0x448 PUSH3 0x442 DUP5 PUSH3 0x419 JUMP JUMPDEST PUSH3 0x423 JUMP JUMPDEST PUSH3 0x419 JUMP JUMPDEST SWAP1 POP SWAP2 SWAP1 POP JUMP JUMPDEST PUSH1 0x0 DUP2 SWAP1 POP SWAP2 SWAP1 POP JUMP JUMPDEST PUSH3 0x46A DUP4 PUSH3 0x42D JUMP JUMPDEST PUSH3 0x482 PUSH3 0x479 DUP3 PUSH3 0x455 JUMP JUMPDEST DUP5 DUP5 SLOAD PUSH3 0x3C3 JUMP JUMPDEST DUP3 SSTORE POP POP POP POP JUMP JUMPDEST PUSH1 0x0 SWAP1 JUMP JUMPDEST PUSH3 0x499 PUSH3 0x48A JUMP JUMPDEST PUSH3 0x4A6 DUP2 DUP5 DUP5 PUSH3 0x45F JUMP JUMPDEST POP POP POP JUMP JUMPDEST JUMPDEST DUP2 DUP2 LT ISZERO PUSH3 0x4CE JUMPI PUSH3 0x4C2 PUSH1 0x0 DUP3 PUSH3 0x48F JUMP JUMPDEST PUSH1 0x1 DUP2 ADD SWAP1 POP PUSH3 0x4AC JUMP JUMPDEST POP POP JUMP JUMPDEST PUSH1 0x1F DUP3 GT ISZERO PUSH3 0x51D JUMPI PUSH3 0x4E7 DUP2 PUSH3 0x391 JUMP JUMPDEST PUSH3 0x4F2 DUP5 PUSH3 0x3A6 JUMP JUMPDEST DUP2 ADD PUSH1 0x20 DUP6 LT ISZERO PUSH3 0x502 JUMPI DUP2 SWAP1 POP JUMPDEST PUSH3 0x51A PUSH3 0x511 DUP6 PUSH3 0x3A6 JUMP JUMPDEST DUP4 ADD DUP3 PUSH3 0x4AB JUMP JUMPDEST POP POP JUMPDEST POP POP POP JUMP JUMPDEST PUSH1 0x0 DUP3 DUP3 SHR SWAP1 POP SWAP3 SWAP2 POP POP JUMP JUMPDEST PUSH1 0x0 PUSH3 0x542 PUSH1 0x0 NOT DUP5 PUSH1 0x8 MUL PUSH3 0x522 JUMP JUMPDEST NOT DUP1 DUP4 AND SWAP2 POP POP SWAP3 SWAP2 POP POP JUMP JUMPDEST PUSH1 0x0 PUSH3 0x55D DUP4 DUP4 PUSH3 0x52F JUMP JUMPDEST SWAP2 POP DUP3 PUSH1 0x2 MUL DUP3 OR SWAP1 POP SWAP3 SWAP2 POP POP JUMP JUMPDEST PUSH3 0x578 DUP3 PUSH3 0x2F3 JUMP JUMPDEST PUSH8 0xFFFFFFFFFFFFFFFF DUP2 GT ISZERO PUSH3 0x594 JUMPI PUSH3 0x593 PUSH3 0x2FE JUMP JUMPDEST JUMPDEST PUSH3 0x5A0 DUP3 SLOAD PUSH3 0x35C JUMP JUMPDEST PUSH3 0x5AD DUP3 DUP3 DUP6 PUSH3 0x4D2 JUMP JUMPDEST PUSH1 0x0 PUSH1 0x20 SWAP1 POP PUSH1 0x1F DUP4 GT PUSH1 0x1 DUP2 EQ PUSH3 0x5E5 JUMPI PUSH1 0x0 DUP5 ISZERO PUSH3 0x5D0 JUMPI DUP3 DUP8 ADD MLOAD SWAP1 POP JUMPDEST PUSH3 0x5DC DUP6 DUP3 PUSH3 0x54F JUMP JUMPDEST DUP7 SSTORE POP PUSH3 0x64C JUMP JUMPDEST PUSH1 0x1F NOT DUP5 AND PUSH3 0x5F5 DUP7 PUSH3 0x391 JUMP JUMPDEST PUSH1 0x0 JUMPDEST DUP3 DUP2 LT ISZERO PUSH3 0x61F JUMPI DUP5 DUP10 ADD MLOAD DUP3 SSTORE PUSH1 0x1 DUP3 ADD SWAP2 POP PUSH1 0x20 DUP6 ADD SWAP5 POP PUSH1 0x20 DUP2 ADD SWAP1 POP PUSH3 0x5F8 JUMP JUMPDEST DUP7 DUP4 LT ISZERO PUSH3 0x63F JUMPI DUP5 DUP10 ADD MLOAD PUSH3 0x63B PUSH1 0x1F DUP10 AND DUP3 PUSH3 0x52F JUMP JUMPDEST DUP4 SSTORE POP JUMPDEST PUSH1 0x1 PUSH1 0x2 DUP9 MUL ADD DUP9 SSTORE POP POP POP JUMPDEST POP POP POP POP POP POP JUMP JUMPDEST PUSH1 0x0 DUP2 SWAP1 POP SWAP2 SWAP1 POP JUMP JUMPDEST PUSH3 0x669 DUP2 PUSH3 0x654 JUMP JUMPDEST DUP3 MSTORE POP POP JUMP JUMPDEST PUSH3 0x67A DUP2 PUSH3 0x419 JUMP JUMPDEST DUP3 MSTORE POP POP JUMP JUMPDEST PUSH1 0x0 PUSH20 0xFFFFFFFFFFFFFFFFFFFFFFFFFFFFFFFFFFFFFFFF DUP3 AND SWAP1 POP SWAP2 SWAP1 POP JUMP JUMPDEST PUSH1 0x0 PUSH3 0x6AD DUP3 PUSH3 0x680 JUMP JUMPDEST SWAP1 POP SWAP2 SWAP1 POP JUMP JUMPDEST PUSH3 0x6BF DUP2 PUSH3 0x6A0 JUMP JUMPDEST DUP3 MSTORE POP POP JUMP JUMPDEST PUSH1 0x0 PUSH1 0xA0 DUP3 ADD SWAP1 POP PUSH3 0x6DC PUSH1 0x0 DUP4 ADD DUP9 PUSH3 0x65E JUMP JUMPDEST PUSH3 0x6EB PUSH1 0x20 DUP4 ADD DUP8 PUSH3 0x65E JUMP JUMPDEST PUSH3 0x6FA PUSH1 0x40 DUP4 ADD DUP7 PUSH3 0x65E JUMP JUMPDEST PUSH3 0x709 PUSH1 0x60 DUP4 ADD DUP6 PUSH3 0x66F JUMP JUMPDEST PUSH3 0x718 PUSH1 0x80 DUP4 ADD DUP5 PUSH3 0x6B4 JUMP JUMPDEST SWAP7 SWAP6 POP POP POP POP POP POP JUMP JUMPDEST PUSH1 0x80 MLOAD PUSH1 0xA0 MLOAD PUSH1 0xC0 MLOAD PUSH1 0xE0 MLOAD PUSH2 0x100 MLOAD PUSH2 0x120 MLOAD PUSH2 0x37CF PUSH3 0x772 PUSH1 0x0 CODECOPY PUSH1 0x0 PUSH2 0x1DD8 ADD MSTORE PUSH1 0x0 PUSH2 0x1E1A ADD MSTORE PUSH1 0x0 PUSH2 0x1DF9 ADD MSTORE PUSH1 0x0 PUSH2 0x1D2E ADD MSTORE PUSH1 0x0 PUSH2 0x1D84 ADD MSTORE PUSH1 0x0 PUSH2 0x1DAD ADD MSTORE PUSH2 0x37CF PUSH1 0x0 RETURN INVALID PUSH1 0x80 PUSH1 0x40 MSTORE CALLVALUE DUP1 ISZERO PUSH2 0x10 JUMPI PUSH1 0x0 DUP1 REVERT JUMPDEST POP PUSH1 0x4 CALLDATASIZE LT PUSH2 0x116 JUMPI PUSH1 0x0 CALLDATALOAD PUSH1 0xE0 SHR DUP1 PUSH4 0x8DA5CB5B GT PUSH2 0xA2 JUMPI DUP1 PUSH4 0xC87B56DD GT PUSH2 0x71 JUMPI DUP1 PUSH4 0xC87B56DD EQ PUSH2 0x2CB JUMPI DUP1 PUSH4 0xE5763B73 EQ PUSH2 0x2FB JUMPI DUP1 PUSH4 0xE811C9DD EQ PUSH2 0x317 JUMPI DUP1 PUSH4 0xE985E9C5 EQ PUSH2 0x347 JUMPI DUP1 PUSH4 0xF2FDE38B EQ PUSH2 0x377 JUMPI PUSH2 0x116 JUMP JUMPDEST DUP1 PUSH4 0x8DA5CB5B EQ PUSH2 0x257 JUMPI DUP1 PUSH4 0x95D89B41 EQ PUSH2 0x275 JUMPI DUP1 PUSH4 0xA22CB465 EQ PUSH2 0x293 JUMPI DUP1 PUSH4 0xB88D4FDE EQ PUSH2 0x2AF JUMPI PUSH2 0x116 JUMP JUMPDEST DUP1 PUSH4 0x23B872DD GT PUSH2 0xE9 JUMPI DUP1 PUSH4 0x23B872DD EQ PUSH2 0x1B5 JUMPI DUP1 PUSH4 0x42842E0E EQ PUSH2 0x1D1 JUMPI DUP1 PUSH4 0x6352211E EQ PUSH2 0x1ED JUMPI DUP1 PUSH4 0x70A08231 EQ PUSH2 0x21D JUMPI DUP1 PUSH4 0x715018A6 EQ PUSH2 0x24D JUMPI PUSH2 0x116 JUMP JUMPDEST DUP1 PUSH4 0x1FFC9A7 EQ PUSH2 0x11B JUMPI DUP1 PUSH4 0x6FDDE03 EQ PUSH2 0x14B JUMPI DUP1 PUSH4 0x81812FC EQ PUSH2 0x169 JUMPI DUP1 PUSH4 0x95EA7B3 EQ PUSH2 0x199 JUMPI JUMPDEST PUSH1 0x0 DUP1 REVERT JUMPDEST PUSH2 0x135 PUSH1 0x4 DUP1 CALLDATASIZE SUB DUP2 ADD SWAP1 PUSH2 0x130 SWAP2 SWAP1 PUSH2 0x2077 JUMP JUMPDEST PUSH2 0x393 JUMP JUMPDEST PUSH1 0x40 MLOAD PUSH2 0x142 SWAP2 SWAP1 PUSH2 0x20BF JUMP JUMPDEST PUSH1 0x40 MLOAD DUP1 SWAP2 SUB SWAP1 RETURN JUMPDEST PUSH2 0x153 PUSH2 0x475 JUMP JUMPDEST PUSH1 0x40 MLOAD PUSH2 0x160 SWAP2 SWAP1 PUSH2 0x216A JUMP JUMPDEST PUSH1 0x40 MLOAD DUP1 SWAP2 SUB SWAP1 RETURN JUMPDEST PUSH2 0x183 PUSH1 0x4 DUP1 CALLDATASIZE SUB DUP2 ADD SWAP1 PUSH2 0x17E SWAP2 SWAP1 PUSH2 0x21C2 JUMP JUMPDEST PUSH2 0x507 JUMP JUMPDEST PUSH1 0x40 MLOAD PUSH2 0x190 SWAP2 SWAP1 PUSH2 0x2230 JUMP JUMPDEST PUSH1 0x40 MLOAD DUP1 SWAP2 SUB SWAP1 RETURN JUMPDEST PUSH2 0x1B3 PUSH1 0x4 DUP1 CALLDATASIZE SUB DUP2 ADD SWAP1 PUSH2 0x1AE SWAP2 SWAP1 PUSH2 0x2277 JUMP JUMPDEST PUSH2 0x58C JUMP JUMPDEST STOP JUMPDEST PUSH2 0x1CF PUSH1 0x4 DUP1 CALLDATASIZE SUB DUP2 ADD SWAP1 PUSH2 0x1CA SWAP2 SWAP1 PUSH2 0x22B7 JUMP JUMPDEST PUSH2 0x6A3 JUMP JUMPDEST STOP JUMPDEST PUSH2 0x1EB PUSH1 0x4 DUP1 CALLDATASIZE SUB DUP2 ADD SWAP1 PUSH2 0x1E6 SWAP2 SWAP1 PUSH2 0x22B7 JUMP JUMPDEST PUSH2 0x703 JUMP JUMPDEST STOP JUMPDEST PUSH2 0x207 PUSH1 0x4 DUP1 CALLDATASIZE SUB DUP2 ADD SWAP1 PUSH2 0x202 SWAP2 SWAP1 PUSH2 0x21C2 JUMP JUMPDEST PUSH2 0x723 JUMP JUMPDEST PUSH1 0x40 MLOAD PUSH2 0x214 SWAP2 SWAP1 PUSH2 0x2230 JUMP JUMPDEST PUSH1 0x40 MLOAD DUP1 SWAP2 SUB SWAP1 RETURN JUMPDEST PUSH2 0x237 PUSH1 0x4 DUP1 CALLDATASIZE SUB DUP2 ADD SWAP1 PUSH2 0x232 SWAP2 SWAP1 PUSH2 0x230A JUMP JUMPDEST PUSH2 0x7D4 JUMP JUMPDEST PUSH1 0x40 MLOAD PUSH2 0x244 SWAP2 SWAP1 PUSH2 0x2346 JUMP JUMPDEST PUSH1 0x40 MLOAD DUP1 SWAP2 SUB SWAP1 RETURN JUMPDEST PUSH2 0x255 PUSH2 0x88B JUMP JUMPDEST STOP JUMPDEST PUSH2 0x25F PUSH2 0x913 JUMP JUMPDEST PUSH1 0x40 MLOAD PUSH2 0x26C SWAP2 SWAP1 PUSH2 0x2230 JUMP JUMPDEST PUSH1 0x40 MLOAD DUP1 SWAP2 SUB SWAP1 RETURN JUMPDEST PUSH2 0x27D PUSH2 0x93D JUMP JUMPDEST PUSH1 0x40 MLOAD PUSH2 0x28A SWAP2 SWAP1 PUSH2 0x216A JUMP JUMPDEST PUSH1 0x40 MLOAD DUP1 SWAP2 SUB SWAP1 RETURN JUMPDEST PUSH2 0x2AD PUSH1 0x4 DUP1 CALLDATASIZE SUB DUP2 ADD SWAP1 PUSH2 0x2A8 SWAP2 SWAP1 PUSH2 0x238D JUMP JUMPDEST PUSH2 0x9CF JUMP JUMPDEST STOP JUMPDEST PUSH2 0x2C9 PUSH1 0x4 DUP1 CALLDATASIZE SUB DUP2 ADD SWAP1 PUSH2 0x2C4 SWAP2 SWAP1 PUSH2 0x2502 JUMP JUMPDEST PUSH2 0x9E5 JUMP JUMPDEST STOP JUMPDEST PUSH2 0x2E5 PUSH1 0x4 DUP1 CALLDATASIZE SUB DUP2 ADD SWAP1 PUSH2 0x2E0 SWAP2 SWAP1 PUSH2 0x21C2 JUMP JUMPDEST PUSH2 0xA47 JUMP JUMPDEST PUSH1 0x40 MLOAD PUSH2 0x2F2 SWAP2 SWAP1 PUSH2 0x216A JUMP JUMPDEST PUSH1 0x40 MLOAD DUP1 SWAP2 SUB SWAP1 RETURN JUMPDEST PUSH2 0x315 PUSH1 0x4 DUP1 CALLDATASIZE SUB DUP2 ADD SWAP1 PUSH2 0x310 SWAP2 SWAP1 PUSH2 0x2626 JUMP JUMPDEST PUSH2 0xAEE JUMP JUMPDEST STOP JUMPDEST PUSH2 0x331 PUSH1 0x4 DUP1 CALLDATASIZE SUB DUP2 ADD SWAP1 PUSH2 0x32C SWAP2 SWAP1 PUSH2 0x26C5 JUMP JUMPDEST PUSH2 0xB96 JUMP JUMPDEST PUSH1 0x40 MLOAD PUSH2 0x33E SWAP2 SWAP1 PUSH2 0x2230 JUMP JUMPDEST PUSH1 0x40 MLOAD DUP1 SWAP2 SUB SWAP1 RETURN JUMPDEST PUSH2 0x361 PUSH1 0x4 DUP1 CALLDATASIZE SUB DUP2 ADD SWAP1 PUSH2 0x35C SWAP2 SWAP1 PUSH2 0x2750 JUMP JUMPDEST PUSH2 0xBAC JUMP JUMPDEST PUSH1 0x40 MLOAD PUSH2 0x36E SWAP2 SWAP1 PUSH2 0x20BF JUMP JUMPDEST PUSH1 0x40 MLOAD DUP1 SWAP2 SUB SWAP1 RETURN JUMPDEST PUSH2 0x391 PUSH1 0x4 DUP1 CALLDATASIZE SUB DUP2 ADD SWAP1 PUSH2 0x38C SWAP2 SWAP1 PUSH2 0x230A JUMP JUMPDEST PUSH2 0xC40 JUMP JUMPDEST STOP JUMPDEST PUSH1 0x0 PUSH32 0x80AC58CD00000000000000000000000000000000000000000000000000000000 PUSH28 0xFFFFFFFFFFFFFFFFFFFFFFFFFFFFFFFFFFFFFFFFFFFFFFFFFFFFFFFF NOT AND DUP3 PUSH28 0xFFFFFFFFFFFFFFFFFFFFFFFFFFFFFFFFFFFFFFFFFFFFFFFFFFFFFFFF NOT AND EQ DUP1 PUSH2 0x45E JUMPI POP PUSH32 0x5B5E139F00000000000000000000000000000000000000000000000000000000 PUSH28 0xFFFFFFFFFFFFFFFFFFFFFFFFFFFFFFFFFFFFFFFFFFFFFFFFFFFFFFFF NOT AND DUP3 PUSH28 0xFFFFFFFFFFFFFFFFFFFFFFFFFFFFFFFFFFFFFFFFFFFFFFFFFFFFFFFF NOT AND EQ JUMPDEST DUP1 PUSH2 0x46E JUMPI POP PUSH2 0x46D DUP3 PUSH2 0xD37 JUMP JUMPDEST JUMPDEST SWAP1 POP SWAP2 SWAP1 POP JUMP JUMPDEST PUSH1 0x60 PUSH1 0x0 DUP1 SLOAD PUSH2 0x484 SWAP1 PUSH2 0x27BF JUMP JUMPDEST DUP1 PUSH1 0x1F ADD PUSH1 0x20 DUP1 SWAP2 DIV MUL PUSH1 0x20 ADD PUSH1 0x40 MLOAD SWAP1 DUP2 ADD PUSH1 0x40 MSTORE DUP1 SWAP3 SWAP2 SWAP1 DUP2 DUP2 MSTORE PUSH1 0x20 ADD DUP3 DUP1 SLOAD PUSH2 0x4B0 SWAP1 PUSH2 0x27BF JUMP JUMPDEST DUP1 ISZERO PUSH2 0x4FD JUMPI DUP1 PUSH1 0x1F LT PUSH2 0x4D2 JUMPI PUSH2 0x100 DUP1 DUP4 SLOAD DIV MUL DUP4 MSTORE SWAP2 PUSH1 0x20 ADD SWAP2 PUSH2 0x4FD JUMP JUMPDEST DUP3 ADD SWAP2 SWAP1 PUSH1 0x0 MSTORE PUSH1 0x20 PUSH1 0x0 KECCAK256 SWAP1 JUMPDEST DUP2 SLOAD DUP2 MSTORE SWAP1 PUSH1 0x1 ADD SWAP1 PUSH1 0x20 ADD DUP1 DUP4 GT PUSH2 0x4E0 JUMPI DUP3 SWAP1 SUB PUSH1 0x1F AND DUP3 ADD SWAP2 JUMPDEST POP POP POP POP POP SWAP1 POP SWAP1 JUMP JUMPDEST PUSH1 0x0 PUSH2 0x512 DUP3 PUSH2 0xDA1 JUMP JUMPDEST PUSH2 0x551 JUMPI PUSH1 0x40 MLOAD PUSH32 0x8C379A000000000000000000000000000000000000000000000000000000000 DUP2 MSTORE PUSH1 0x4 ADD PUSH2 0x548 SWAP1 PUSH2 0x2862 JUMP JUMPDEST PUSH1 0x40 MLOAD DUP1 SWAP2 SUB SWAP1 REVERT JUMPDEST PUSH1 0x4 PUSH1 0x0 DUP4 DUP2 MSTORE PUSH1 0x20 ADD SWAP1 DUP2 MSTORE PUSH1 0x20 ADD PUSH1 0x0 KECCAK256 PUSH1 0x0 SWAP1 SLOAD SWAP1 PUSH2 0x100 EXP SWAP1 DIV PUSH20 0xFFFFFFFFFFFFFFFFFFFFFFFFFFFFFFFFFFFFFFFF AND SWAP1 POP SWAP2 SWAP1 POP JUMP JUMPDEST PUSH1 0x0 PUSH2 0x597 DUP3 PUSH2 0x723 JUMP JUMPDEST SWAP1 POP DUP1 PUSH20 0xFFFFFFFFFFFFFFFFFFFFFFFFFFFFFFFFFFFFFFFF AND DUP4 PUSH20 0xFFFFFFFFFFFFFFFFFFFFFFFFFFFFFFFFFFFFFFFF AND SUB PUSH2 0x607 JUMPI PUSH1 0x40 MLOAD PUSH32 0x8C379A000000000000000000000000000000000000000000000000000000000 DUP2 MSTORE PUSH1 0x4 ADD PUSH2 0x5FE SWAP1 PUSH2 0x28F4 JUMP JUMPDEST PUSH1 0x40 MLOAD DUP1 SWAP2 SUB SWAP1 REVERT JUMPDEST DUP1 PUSH20 0xFFFFFFFFFFFFFFFFFFFFFFFFFFFFFFFFFFFFFFFF AND PUSH2 0x626 PUSH2 0xE0D JUMP JUMPDEST PUSH20 0xFFFFFFFFFFFFFFFFFFFFFFFFFFFFFFFFFFFFFFFF AND EQ DUP1 PUSH2 0x655 JUMPI POP PUSH2 0x654 DUP2 PUSH2 0x64F PUSH2 0xE0D JUMP JUMPDEST PUSH2 0xBAC JUMP JUMPDEST JUMPDEST PUSH2 0x694 JUMPI PUSH1 0x40 MLOAD PUSH32 0x8C379A000000000000000000000000000000000000000000000000000000000 DUP2 MSTORE PUSH1 0x4 ADD PUSH2 0x68B SWAP1 PUSH2 0x2986 JUMP JUMPDEST PUSH1 0x40 MLOAD DUP1 SWAP2 SUB SWAP1 REVERT JUMPDEST PUSH2 0x69E DUP4 DUP4 PUSH2 0xE15 JUMP JUMPDEST POP POP POP JUMP JUMPDEST PUSH2 0x6B4 PUSH2 0x6AE PUSH2 0xE0D JUMP JUMPDEST DUP3 PUSH2 0xECE JUMP JUMPDEST PUSH2 0x6F3 JUMPI PUSH1 0x40 MLOAD PUSH32 0x8C379A000000000000000000000000000000000000000000000000000000000 DUP2 MSTORE PUSH1 0x4 ADD PUSH2 0x6EA SWAP1 PUSH2 0x2A18 JUMP JUMPDEST PUSH1 0x40 MLOAD DUP1 SWAP2 SUB SWAP1 REVERT JUMPDEST PUSH2 0x6FE DUP4 DUP4 DUP4 PUSH2 0xFAC JUMP JUMPDEST POP POP POP JUMP JUMPDEST PUSH2 0x71E DUP4 DUP4 DUP4 PUSH1 0x40 MLOAD DUP1 PUSH1 0x20 ADD PUSH1 0x40 MSTORE DUP1 PUSH1 0x0 DUP2 MSTORE POP PUSH2 0x9E5 JUMP JUMPDEST POP POP POP JUMP JUMPDEST PUSH1 0x0 DUP1 PUSH1 0x2 PUSH1 0x0 DUP5 DUP2 MSTORE PUSH1 0x20 ADD SWAP1 DUP2 MSTORE PUSH1 0x20 ADD PUSH1 0x0 KECCAK256 PUSH1 0x0 SWAP1 SLOAD SWAP1 PUSH2 0x100 EXP SWAP1 DIV PUSH20 0xFFFFFFFFFFFFFFFFFFFFFFFFFFFFFFFFFFFFFFFF AND SWAP1 POP PUSH1 0x0 PUSH20 0xFFFFFFFFFFFFFFFFFFFFFFFFFFFFFFFFFFFFFFFF AND DUP2 PUSH20 0xFFFFFFFFFFFFFFFFFFFFFFFFFFFFFFFFFFFFFFFF AND SUB PUSH2 0x7CB JUMPI PUSH1 0x40 MLOAD PUSH32 0x8C379A000000000000000000000000000000000000000000000000000000000 DUP2 MSTORE PUSH1 0x4 ADD PUSH2 0x7C2 SWAP1 PUSH2 0x2AAA JUMP JUMPDEST PUSH1 0x40 MLOAD DUP1 SWAP2 SUB SWAP1 REVERT JUMPDEST DUP1 SWAP2 POP POP SWAP2 SWAP1 POP JUMP JUMPDEST PUSH1 0x0 DUP1 PUSH20 0xFFFFFFFFFFFFFFFFFFFFFFFFFFFFFFFFFFFFFFFF AND DUP3 PUSH20 0xFFFFFFFFFFFFFFFFFFFFFFFFFFFFFFFFFFFFFFFF AND SUB PUSH2 0x844 JUMPI PUSH1 0x40 MLOAD PUSH32 0x8C379A000000000000000000000000000000000000000000000000000000000 DUP2 MSTORE PUSH1 0x4 ADD PUSH2 0x83B SWAP1 PUSH2 0x2B3C JUMP JUMPDEST PUSH1 0x40 MLOAD DUP1 SWAP2 SUB SWAP1 REVERT JUMPDEST PUSH1 0x3 PUSH1 0x0 DUP4 PUSH20 0xFFFFFFFFFFFFFFFFFFFFFFFFFFFFFFFFFFFFFFFF AND PUSH20 0xFFFFFFFFFFFFFFFFFFFFFFFFFFFFFFFFFFFFFFFF AND DUP2 MSTORE PUSH1 0x20 ADD SWAP1 DUP2 MSTORE PUSH1 0x20 ADD PUSH1 0x0 KECCAK256 SLOAD SWAP1 POP SWAP2 SWAP1 POP JUMP JUMPDEST PUSH2 0x893 PUSH2 0xE0D JUMP JUMPDEST PUSH20 0xFFFFFFFFFFFFFFFFFFFFFFFFFFFFFFFFFFFFFFFF AND PUSH2 0x8B1 PUSH2 0x913 JUMP JUMPDEST PUSH20 0xFFFFFFFFFFFFFFFFFFFFFFFFFFFFFFFFFFFFFFFF AND EQ PUSH2 0x907 JUMPI PUSH1 0x40 MLOAD PUSH32 0x8C379A000000000000000000000000000000000000000000000000000000000 DUP2 MSTORE PUSH1 0x4 ADD PUSH2 0x8FE SWAP1 PUSH2 0x2BA8 JUMP JUMPDEST PUSH1 0x40 MLOAD DUP1 SWAP2 SUB SWAP1 REVERT JUMPDEST PUSH2 0x911 PUSH1 0x0 PUSH2 0x1207 JUMP JUMPDEST JUMP JUMPDEST PUSH1 0x0 PUSH1 0x6 PUSH1 0x0 SWAP1 SLOAD SWAP1 PUSH2 0x100 EXP SWAP1 DIV PUSH20 0xFFFFFFFFFFFFFFFFFFFFFFFFFFFFFFFFFFFFFFFF AND SWAP1 POP SWAP1 JUMP JUMPDEST PUSH1 0x60 PUSH1 0x1 DUP1 SLOAD PUSH2 0x94C SWAP1 PUSH2 0x27BF JUMP JUMPDEST DUP1 PUSH1 0x1F ADD PUSH1 0x20 DUP1 SWAP2 DIV MUL PUSH1 0x20 ADD PUSH1 0x40 MLOAD SWAP1 DUP2 ADD PUSH1 0x40 MSTORE DUP1 SWAP3 SWAP2 SWAP1 DUP2 DUP2 MSTORE PUSH1 0x20 ADD DUP3 DUP1 SLOAD PUSH2 0x978 SWAP1 PUSH2 0x27BF JUMP JUMPDEST DUP1 ISZERO PUSH2 0x9C5 JUMPI DUP1 PUSH1 0x1F LT PUSH2 0x99A JUMPI PUSH2 0x100 DUP1 DUP4 SLOAD DIV MUL DUP4 MSTORE SWAP2 PUSH1 0x20 ADD SWAP2 PUSH2 0x9C5 JUMP JUMPDEST DUP3 ADD SWAP2 SWAP1 PUSH1 0x0 MSTORE PUSH1 0x20 PUSH1 0x0 KECCAK256 SWAP1 JUMPDEST DUP2 SLOAD DUP2 MSTORE SWAP1 PUSH1 0x1 ADD SWAP1 PUSH1 0x20 ADD DUP1 DUP4 GT PUSH2 0x9A8 JUMPI DUP3 SWAP1 SUB PUSH1 0x1F AND DUP3 ADD SWAP2 JUMPDEST POP POP POP POP POP SWAP1 POP SWAP1 JUMP JUMPDEST PUSH2 0x9E1 PUSH2 0x9DA PUSH2 0xE0D JUMP JUMPDEST DUP4 DUP4 PUSH2 0x12CD JUMP JUMPDEST POP POP JUMP JUMPDEST PUSH2 0x9F6 PUSH2 0x9F0 PUSH2 0xE0D JUMP JUMPDEST DUP4 PUSH2 0xECE JUMP JUMPDEST PUSH2 0xA35 JUMPI PUSH1 0x40 MLOAD PUSH32 0x8C379A000000000000000000000000000000000000000000000000000000000 DUP2 MSTORE PUSH1 0x4 ADD PUSH2 0xA2C SWAP1 PUSH2 0x2A18 JUMP JUMPDEST PUSH1 0x40 MLOAD DUP1 SWAP2 SUB SWAP1 REVERT JUMPDEST PUSH2 0xA41 DUP5 DUP5 DUP5 DUP5 PUSH2 0x1439 JUMP JUMPDEST POP POP POP POP JUMP JUMPDEST PUSH1 0x60 PUSH2 0xA52 DUP3 PUSH2 0xDA1 JUMP JUMPDEST PUSH2 0xA91 JUMPI PUSH1 0x40 MLOAD PUSH32 0x8C379A000000000000000000000000000000000000000000000000000000000 DUP2 MSTORE PUSH1 0x4 ADD PUSH2 0xA88 SWAP1 PUSH2 0x2C3A JUMP JUMPDEST PUSH1 0x40 MLOAD DUP1 SWAP2 SUB SWAP1 REVERT JUMPDEST PUSH1 0x0 PUSH2 0xA9B PUSH2 0x1495 JUMP JUMPDEST SWAP1 POP PUSH1 0x0 DUP2 MLOAD GT PUSH2 0xABB JUMPI PUSH1 0x40 MLOAD DUP1 PUSH1 0x20 ADD PUSH1 0x40 MSTORE DUP1 PUSH1 0x0 DUP2 MSTORE POP PUSH2 0xAE6 JUMP JUMPDEST DUP1 PUSH2 0xAC5 DUP5 PUSH2 0x14AC JUMP JUMPDEST PUSH1 0x40 MLOAD PUSH1 0x20 ADD PUSH2 0xAD6 SWAP3 SWAP2 SWAP1 PUSH2 0x2C96 JUMP JUMPDEST PUSH1 0x40 MLOAD PUSH1 0x20 DUP2 DUP4 SUB SUB DUP2 MSTORE SWAP1 PUSH1 0x40 MSTORE JUMPDEST SWAP2 POP POP SWAP2 SWAP1 POP JUMP JUMPDEST PUSH2 0xAF6 PUSH2 0x913 JUMP JUMPDEST PUSH20 0xFFFFFFFFFFFFFFFFFFFFFFFFFFFFFFFFFFFFFFFF AND PUSH2 0xB17 DUP4 DUP6 DUP5 PUSH2 0xB96 JUMP JUMPDEST PUSH20 0xFFFFFFFFFFFFFFFFFFFFFFFFFFFFFFFFFFFFFFFF AND EQ PUSH2 0xB6D JUMPI PUSH1 0x40 MLOAD PUSH32 0x8C379A000000000000000000000000000000000000000000000000000000000 DUP2 MSTORE PUSH1 0x4 ADD PUSH2 0xB64 SWAP1 PUSH2 0x2D06 JUMP JUMPDEST PUSH1 0x40 MLOAD DUP1 SWAP2 SUB SWAP1 REVERT JUMPDEST PUSH2 0xB77 PUSH1 0x7 PUSH2 0x160C JUMP JUMPDEST PUSH1 0x0 PUSH2 0xB83 PUSH1 0x7 PUSH2 0x1622 JUMP JUMPDEST SWAP1 POP PUSH2 0xB8F DUP6 DUP3 PUSH2 0x1630 JUMP JUMPDEST POP POP POP POP POP JUMP JUMPDEST PUSH1 0x0 PUSH2 0xBA3 DUP5 DUP5 DUP5 PUSH2 0x164E JUMP JUMPDEST SWAP1 POP SWAP4 SWAP3 POP POP POP JUMP JUMPDEST PUSH1 0x0 PUSH1 0x5 PUSH1 0x0 DUP5 PUSH20 0xFFFFFFFFFFFFFFFFFFFFFFFFFFFFFFFFFFFFFFFF AND PUSH20 0xFFFFFFFFFFFFFFFFFFFFFFFFFFFFFFFFFFFFFFFF AND DUP2 MSTORE PUSH1 0x20 ADD SWAP1 DUP2 MSTORE PUSH1 0x20 ADD PUSH1 0x0 KECCAK256 PUSH1 0x0 DUP4 PUSH20 0xFFFFFFFFFFFFFFFFFFFFFFFFFFFFFFFFFFFFFFFF AND PUSH20 0xFFFFFFFFFFFFFFFFFFFFFFFFFFFFFFFFFFFFFFFF AND DUP2 MSTORE PUSH1 0x20 ADD SWAP1 DUP2 MSTORE PUSH1 0x20 ADD PUSH1 0x0 KECCAK256 PUSH1 0x0 SWAP1 SLOAD SWAP1 PUSH2 0x100 EXP SWAP1 DIV PUSH1 0xFF AND SWAP1 POP SWAP3 SWAP2 POP POP JUMP JUMPDEST PUSH2 0xC48 PUSH2 0xE0D JUMP JUMPDEST PUSH20 0xFFFFFFFFFFFFFFFFFFFFFFFFFFFFFFFFFFFFFFFF AND PUSH2 0xC66 PUSH2 0x913 JUMP JUMPDEST PUSH20 0xFFFFFFFFFFFFFFFFFFFFFFFFFFFFFFFFFFFFFFFF AND EQ PUSH2 0xCBC JUMPI PUSH1 0x40 MLOAD PUSH32 0x8C379A000000000000000000000000000000000000000000000000000000000 DUP2 MSTORE PUSH1 0x4 ADD PUSH2 0xCB3 SWAP1 PUSH2 0x2BA8 JUMP JUMPDEST PUSH1 0x40 MLOAD DUP1 SWAP2 SUB SWAP1 REVERT JUMPDEST PUSH1 0x0 PUSH20 0xFFFFFFFFFFFFFFFFFFFFFFFFFFFFFFFFFFFFFFFF AND DUP2 PUSH20 0xFFFFFFFFFFFFFFFFFFFFFFFFFFFFFFFFFFFFFFFF AND SUB PUSH2 0xD2B JUMPI PUSH1 0x40 MLOAD PUSH32 0x8C379A000000000000000000000000000000000000000000000000000000000 DUP2 MSTORE PUSH1 0x4 ADD PUSH2 0xD22 SWAP1 PUSH2 0x2D98 JUMP JUMPDEST PUSH1 0x40 MLOAD DUP1 SWAP2 SUB SWAP1 REVERT JUMPDEST PUSH2 0xD34 DUP2 PUSH2 0x1207 JUMP JUMPDEST POP JUMP JUMPDEST PUSH1 0x0 PUSH32 0x1FFC9A700000000000000000000000000000000000000000000000000000000 PUSH28 0xFFFFFFFFFFFFFFFFFFFFFFFFFFFFFFFFFFFFFFFFFFFFFFFFFFFFFFFF NOT AND DUP3 PUSH28 0xFFFFFFFFFFFFFFFFFFFFFFFFFFFFFFFFFFFFFFFFFFFFFFFFFFFFFFFF NOT AND EQ SWAP1 POP SWAP2 SWAP1 POP JUMP JUMPDEST PUSH1 0x0 DUP1 PUSH20 0xFFFFFFFFFFFFFFFFFFFFFFFFFFFFFFFFFFFFFFFF AND PUSH1 0x2 PUSH1 0x0 DUP5 DUP2 MSTORE PUSH1 0x20 ADD SWAP1 DUP2 MSTORE PUSH1 0x20 ADD PUSH1 0x0 KECCAK256 PUSH1 0x0 SWAP1 SLOAD SWAP1 PUSH2 0x100 EXP SWAP1 DIV PUSH20 0xFFFFFFFFFFFFFFFFFFFFFFFFFFFFFFFFFFFFFFFF AND PUSH20 0xFFFFFFFFFFFFFFFFFFFFFFFFFFFFFFFFFFFFFFFF AND EQ ISZERO SWAP1 POP SWAP2 SWAP1 POP JUMP JUMPDEST PUSH1 0x0 CALLER SWAP1 POP SWAP1 JUMP JUMPDEST DUP2 PUSH1 0x4 PUSH1 0x0 DUP4 DUP2 MSTORE PUSH1 0x20 ADD SWAP1 DUP2 MSTORE PUSH1 0x20 ADD PUSH1 0x0 KECCAK256 PUSH1 0x0 PUSH2 0x100 EXP DUP2 SLOAD DUP2 PUSH20 0xFFFFFFFFFFFFFFFFFFFFFFFFFFFFFFFFFFFFFFFF MUL NOT AND SWAP1 DUP4 PUSH20 0xFFFFFFFFFFFFFFFFFFFFFFFFFFFFFFFFFFFFFFFF AND MUL OR SWAP1 SSTORE POP DUP1 DUP3 PUSH20 0xFFFFFFFFFFFFFFFFFFFFFFFFFFFFFFFFFFFFFFFF AND PUSH2 0xE88 DUP4 PUSH2 0x723 JUMP JUMPDEST PUSH20 0xFFFFFFFFFFFFFFFFFFFFFFFFFFFFFFFFFFFFFFFF AND PUSH32 0x8C5BE1E5EBEC7D5BD14F71427D1E84F3DD0314C0F7B2291E5B200AC8C7C3B925 PUSH1 0x40 MLOAD PUSH1 0x40 MLOAD DUP1 SWAP2 SUB SWAP1 LOG4 POP POP JUMP JUMPDEST PUSH1 0x0 PUSH2 0xED9 DUP3 PUSH2 0xDA1 JUMP JUMPDEST PUSH2 0xF18 JUMPI PUSH1 0x40 MLOAD PUSH32 0x8C379A000000000000000000000000000000000000000000000000000000000 DUP2 MSTORE PUSH1 0x4 ADD PUSH2 0xF0F SWAP1 PUSH2 0x2E2A JUMP JUMPDEST PUSH1 0x40 MLOAD DUP1 SWAP2 SUB SWAP1 REVERT JUMPDEST PUSH1 0x0 PUSH2 0xF23 DUP4 PUSH2 0x723 JUMP JUMPDEST SWAP1 POP DUP1 PUSH20 0xFFFFFFFFFFFFFFFFFFFFFFFFFFFFFFFFFFFFFFFF AND DUP5 PUSH20 0xFFFFFFFFFFFFFFFFFFFFFFFFFFFFFFFFFFFFFFFF AND EQ DUP1 PUSH2 0xF92 JUMPI POP DUP4 PUSH20 0xFFFFFFFFFFFFFFFFFFFFFFFFFFFFFFFFFFFFFFFF AND PUSH2 0xF7A DUP5 PUSH2 0x507 JUMP JUMPDEST PUSH20 0xFFFFFFFFFFFFFFFFFFFFFFFFFFFFFFFFFFFFFFFF AND EQ JUMPDEST DUP1 PUSH2 0xFA3 JUMPI POP PUSH2 0xFA2 DUP2 DUP6 PUSH2 0xBAC JUMP JUMPDEST JUMPDEST SWAP2 POP POP SWAP3 SWAP2 POP POP JUMP JUMPDEST DUP3 PUSH20 0xFFFFFFFFFFFFFFFFFFFFFFFFFFFFFFFFFFFFFFFF AND PUSH2 0xFCC DUP3 PUSH2 0x723 JUMP JUMPDEST PUSH20 0xFFFFFFFFFFFFFFFFFFFFFFFFFFFFFFFFFFFFFFFF AND EQ PUSH2 0x1022 JUMPI PUSH1 0x40 MLOAD PUSH32 0x8C379A000000000000000000000000000000000000000000000000000000000 DUP2 MSTORE PUSH1 0x4 ADD PUSH2 0x1019 SWAP1 PUSH2 0x2EBC JUMP JUMPDEST PUSH1 0x40 MLOAD DUP1 SWAP2 SUB SWAP1 REVERT JUMPDEST PUSH1 0x0 PUSH20 0xFFFFFFFFFFFFFFFFFFFFFFFFFFFFFFFFFFFFFFFF AND DUP3 PUSH20 0xFFFFFFFFFFFFFFFFFFFFFFFFFFFFFFFFFFFFFFFF AND SUB PUSH2 0x1091 JUMPI PUSH1 0x40 MLOAD PUSH32 0x8C379A000000000000000000000000000000000000000000000000000000000 DUP2 MSTORE PUSH1 0x4 ADD PUSH2 0x1088 SWAP1 PUSH2 0x2F4E JUMP JUMPDEST PUSH1 0x40 MLOAD DUP1 SWAP2 SUB SWAP1 REVERT JUMPDEST PUSH2 0x109C DUP4 DUP4 DUP4 PUSH2 0x1671 JUMP JUMPDEST PUSH2 0x10A7 PUSH1 0x0 DUP3 PUSH2 0xE15 JUMP JUMPDEST PUSH1 0x1 PUSH1 0x3 PUSH1 0x0 DUP6 PUSH20 0xFFFFFFFFFFFFFFFFFFFFFFFFFFFFFFFFFFFFFFFF AND PUSH20 0xFFFFFFFFFFFFFFFFFFFFFFFFFFFFFFFFFFFFFFFF AND DUP2 MSTORE PUSH1 0x20 ADD SWAP1 DUP2 MSTORE PUSH1 0x20 ADD PUSH1 0x0 KECCAK256 PUSH1 0x0 DUP3 DUP3 SLOAD PUSH2 0x10F7 SWAP2 SWAP1 PUSH2 0x2F9D JUMP JUMPDEST SWAP3 POP POP DUP2 SWAP1 SSTORE POP PUSH1 0x1 PUSH1 0x3 PUSH1 0x0 DUP5 PUSH20 0xFFFFFFFFFFFFFFFFFFFFFFFFFFFFFFFFFFFFFFFF AND PUSH20 0xFFFFFFFFFFFFFFFFFFFFFFFFFFFFFFFFFFFFFFFF AND DUP2 MSTORE PUSH1 0x20 ADD SWAP1 DUP2 MSTORE PUSH1 0x20 ADD PUSH1 0x0 KECCAK256 PUSH1 0x0 DUP3 DUP3 SLOAD PUSH2 0x114E SWAP2 SWAP1 PUSH2 0x2FD1 JUMP JUMPDEST SWAP3 POP POP DUP2 SWAP1 SSTORE POP DUP2 PUSH1 0x2 PUSH1 0x0 DUP4 DUP2 MSTORE PUSH1 0x20 ADD SWAP1 DUP2 MSTORE PUSH1 0x20 ADD PUSH1 0x0 KECCAK256 PUSH1 0x0 PUSH2 0x100 EXP DUP2 SLOAD DUP2 PUSH20 0xFFFFFFFFFFFFFFFFFFFFFFFFFFFFFFFFFFFFFFFF MUL NOT AND SWAP1 DUP4 PUSH20 0xFFFFFFFFFFFFFFFFFFFFFFFFFFFFFFFFFFFFFFFF AND MUL OR SWAP1 SSTORE POP DUP1 DUP3 PUSH20 0xFFFFFFFFFFFFFFFFFFFFFFFFFFFFFFFFFFFFFFFF AND DUP5 PUSH20 0xFFFFFFFFFFFFFFFFFFFFFFFFFFFFFFFFFFFFFFFF AND PUSH32 0xDDF252AD1BE2C89B69C2B068FC378DAA952BA7F163C4A11628F55A4DF523B3EF PUSH1 0x40 MLOAD PUSH1 0x40 MLOAD DUP1 SWAP2 SUB SWAP1 LOG4 POP POP POP JUMP JUMPDEST PUSH1 0x0 PUSH1 0x6 PUSH1 0x0 SWAP1 SLOAD SWAP1 PUSH2 0x100 EXP SWAP1 DIV PUSH20 0xFFFFFFFFFFFFFFFFFFFFFFFFFFFFFFFFFFFFFFFF AND SWAP1 POP DUP2 PUSH1 0x6 PUSH1 0x0 PUSH2 0x100 EXP DUP2 SLOAD DUP2 PUSH20 0xFFFFFFFFFFFFFFFFFFFFFFFFFFFFFFFFFFFFFFFF MUL NOT AND SWAP1 DUP4 PUSH20 0xFFFFFFFFFFFFFFFFFFFFFFFFFFFFFFFFFFFFFFFF AND MUL OR SWAP1 SSTORE POP DUP2 PUSH20 0xFFFFFFFFFFFFFFFFFFFFFFFFFFFFFFFFFFFFFFFF AND DUP2 PUSH20 0xFFFFFFFFFFFFFFFFFFFFFFFFFFFFFFFFFFFFFFFF AND PUSH32 0x8BE0079C531659141344CD1FD0A4F28419497F9722A3DAAFE3B4186F6B6457E0 PUSH1 0x40 MLOAD PUSH1 0x40 MLOAD DUP1 SWAP2 SUB SWAP1 LOG3 POP POP JUMP JUMPDEST DUP2 PUSH20 0xFFFFFFFFFFFFFFFFFFFFFFFFFFFFFFFFFFFFFFFF AND DUP4 PUSH20 0xFFFFFFFFFFFFFFFFFFFFFFFFFFFFFFFFFFFFFFFF AND SUB PUSH2 0x133B JUMPI PUSH1 0x40 MLOAD PUSH32 0x8C379A000000000000000000000000000000000000000000000000000000000 DUP2 MSTORE PUSH1 0x4 ADD PUSH2 0x1332 SWAP1 PUSH2 0x3051 JUMP JUMPDEST PUSH1 0x40 MLOAD DUP1 SWAP2 SUB SWAP1 REVERT JUMPDEST DUP1 PUSH1 0x5 PUSH1 0x0 DUP6 PUSH20 0xFFFFFFFFFFFFFFFFFFFFFFFFFFFFFFFFFFFFFFFF AND PUSH20 0xFFFFFFFFFFFFFFFFFFFFFFFFFFFFFFFFFFFFFFFF AND DUP2 MSTORE PUSH1 0x20 ADD SWAP1 DUP2 MSTORE PUSH1 0x20 ADD PUSH1 0x0 KECCAK256 PUSH1 0x0 DUP5 PUSH20 0xFFFFFFFFFFFFFFFFFFFFFFFFFFFFFFFFFFFFFFFF AND PUSH20 0xFFFFFFFFFFFFFFFFFFFFFFFFFFFFFFFFFFFFFFFF AND DUP2 MSTORE PUSH1 0x20 ADD SWAP1 DUP2 MSTORE PUSH1 0x20 ADD PUSH1 0x0 KECCAK256 PUSH1 0x0 PUSH2 0x100 EXP DUP2 SLOAD DUP2 PUSH1 0xFF MUL NOT AND SWAP1 DUP4 ISZERO ISZERO MUL OR SWAP1 SSTORE POP DUP2 PUSH20 0xFFFFFFFFFFFFFFFFFFFFFFFFFFFFFFFFFFFFFFFF AND DUP4 PUSH20 0xFFFFFFFFFFFFFFFFFFFFFFFFFFFFFFFFFFFFFFFF AND PUSH32 0x17307EAB39AB6107E8899845AD3D59BD9653F200F220920489CA2B5937696C31 DUP4 PUSH1 0x40 MLOAD PUSH2 0x142C SWAP2 SWAP1 PUSH2 0x20BF JUMP JUMPDEST PUSH1 0x40 MLOAD DUP1 SWAP2 SUB SWAP1 LOG3 POP POP POP JUMP JUMPDEST PUSH2 0x1444 DUP5 DUP5 DUP5 PUSH2 0xFAC JUMP JUMPDEST PUSH2 0x1450 DUP5 DUP5 DUP5 DUP5 PUSH2 0x1676 JUMP JUMPDEST PUSH2 0x148F JUMPI PUSH1 0x40 MLOAD PUSH32 0x8C379A000000000000000000000000000000000000000000000000000000000 DUP2 MSTORE PUSH1 0x4 ADD PUSH2 0x1486 SWAP1 PUSH2 0x30E3 JUMP JUMPDEST PUSH1 0x40 MLOAD DUP1 SWAP2 SUB SWAP1 REVERT JUMPDEST POP POP POP POP JUMP JUMPDEST PUSH1 0x60 PUSH1 0x40 MLOAD DUP1 PUSH1 0x20 ADD PUSH1 0x40 MSTORE DUP1 PUSH1 0x0 DUP2 MSTORE POP SWAP1 POP SWAP1 JUMP JUMPDEST PUSH1 0x60 PUSH1 0x0 DUP3 SUB PUSH2 0x14F3 JUMPI PUSH1 0x40 MLOAD DUP1 PUSH1 0x40 ADD PUSH1 0x40 MSTORE DUP1 PUSH1 0x1 DUP2 MSTORE PUSH1 0x20 ADD PUSH32 0x3000000000000000000000000000000000000000000000000000000000000000 DUP2 MSTORE POP SWAP1 POP PUSH2 0x1607 JUMP JUMPDEST PUSH1 0x0 DUP3 SWAP1 POP PUSH1 0x0 JUMPDEST PUSH1 0x0 DUP3 EQ PUSH2 0x1525 JUMPI DUP1 DUP1 PUSH2 0x150E SWAP1 PUSH2 0x3103 JUMP JUMPDEST SWAP2 POP POP PUSH1 0xA DUP3 PUSH2 0x151E SWAP2 SWAP1 PUSH2 0x317A JUMP JUMPDEST SWAP2 POP PUSH2 0x14FB JUMP JUMPDEST PUSH1 0x0 DUP2 PUSH8 0xFFFFFFFFFFFFFFFF DUP2 GT ISZERO PUSH2 0x1541 JUMPI PUSH2 0x1540 PUSH2 0x23D7 JUMP JUMPDEST JUMPDEST PUSH1 0x40 MLOAD SWAP1 DUP1 DUP3 MSTORE DUP1 PUSH1 0x1F ADD PUSH1 0x1F NOT AND PUSH1 0x20 ADD DUP3 ADD PUSH1 0x40 MSTORE DUP1 ISZERO PUSH2 0x1573 JUMPI DUP2 PUSH1 0x20 ADD PUSH1 0x1 DUP3 MUL DUP1 CALLDATASIZE DUP4 CALLDATACOPY DUP1 DUP3 ADD SWAP2 POP POP SWAP1 POP JUMPDEST POP SWAP1 POP JUMPDEST PUSH1 0x0 DUP6 EQ PUSH2 0x1600 JUMPI PUSH1 0x1 DUP3 PUSH2 0x158C SWAP2 SWAP1 PUSH2 0x2F9D JUMP JUMPDEST SWAP2 POP PUSH1 0xA DUP6 PUSH2 0x159B SWAP2 SWAP1 PUSH2 0x31AB JUMP JUMPDEST PUSH1 0x30 PUSH2 0x15A7 SWAP2 SWAP1 PUSH2 0x2FD1 JUMP JUMPDEST PUSH1 0xF8 SHL DUP2 DUP4 DUP2 MLOAD DUP2 LT PUSH2 0x15BD JUMPI PUSH2 0x15BC PUSH2 0x31DC JUMP JUMPDEST JUMPDEST PUSH1 0x20 ADD ADD SWAP1 PUSH31 0xFFFFFFFFFFFFFFFFFFFFFFFFFFFFFFFFFFFFFFFFFFFFFFFFFFFFFFFFFFFFFF NOT AND SWAP1 DUP2 PUSH1 0x0 BYTE SWAP1 MSTORE8 POP PUSH1 0xA DUP6 PUSH2 0x15F9 SWAP2 SWAP1 PUSH2 0x317A JUMP JUMPDEST SWAP5 POP PUSH2 0x1577 JUMP JUMPDEST DUP1 SWAP4 POP POP POP POP JUMPDEST SWAP2 SWAP1 POP JUMP JUMPDEST PUSH1 0x1 DUP2 PUSH1 0x0 ADD PUSH1 0x0 DUP3 DUP3 SLOAD ADD SWAP3 POP POP DUP2 SWAP1 SSTORE POP POP JUMP JUMPDEST PUSH1 0x0 DUP2 PUSH1 0x0 ADD SLOAD SWAP1 POP SWAP2 SWAP1 POP JUMP JUMPDEST PUSH2 0x164A DUP3 DUP3 PUSH1 0x40 MLOAD DUP1 PUSH1 0x20 ADD PUSH1 0x40 MSTORE DUP1 PUSH1 0x0 DUP2 MSTORE POP PUSH2 0x17FD JUMP JUMPDEST POP POP JUMP JUMPDEST PUSH1 0x0 DUP1 PUSH2 0x165B DUP6 DUP6 PUSH2 0x1858 JUMP JUMPDEST SWAP1 POP PUSH2 0x1667 DUP2 DUP5 PUSH2 0x18BC JUMP JUMPDEST SWAP2 POP POP SWAP4 SWAP3 POP POP POP JUMP JUMPDEST POP POP POP JUMP JUMPDEST PUSH1 0x0 PUSH2 0x1697 DUP5 PUSH20 0xFFFFFFFFFFFFFFFFFFFFFFFFFFFFFFFFFFFFFFFF AND PUSH2 0x18E3 JUMP JUMPDEST ISZERO PUSH2 0x17F0 JUMPI DUP4 PUSH20 0xFFFFFFFFFFFFFFFFFFFFFFFFFFFFFFFFFFFFFFFF AND PUSH4 0x150B7A02 PUSH2 0x16C0 PUSH2 0xE0D JUMP JUMPDEST DUP8 DUP7 DUP7 PUSH1 0x40 MLOAD DUP6 PUSH4 0xFFFFFFFF AND PUSH1 0xE0 SHL DUP2 MSTORE PUSH1 0x4 ADD PUSH2 0x16E2 SWAP5 SWAP4 SWAP3 SWAP2 SWAP1 PUSH2 0x3260 JUMP JUMPDEST PUSH1 0x20 PUSH1 0x40 MLOAD DUP1 DUP4 SUB DUP2 PUSH1 0x0 DUP8 GAS CALL SWAP3 POP POP POP DUP1 ISZERO PUSH2 0x171E JUMPI POP PUSH1 0x40 MLOAD RETURNDATASIZE PUSH1 0x1F NOT PUSH1 0x1F DUP3 ADD AND DUP3 ADD DUP1 PUSH1 0x40 MSTORE POP DUP2 ADD SWAP1 PUSH2 0x171B SWAP2 SWAP1 PUSH2 0x32C1 JUMP JUMPDEST PUSH1 0x1 JUMPDEST PUSH2 0x17A0 JUMPI RETURNDATASIZE DUP1 PUSH1 0x0 DUP2 EQ PUSH2 0x174E JUMPI PUSH1 0x40 MLOAD SWAP2 POP PUSH1 0x1F NOT PUSH1 0x3F RETURNDATASIZE ADD AND DUP3 ADD PUSH1 0x40 MSTORE RETURNDATASIZE DUP3 MSTORE RETURNDATASIZE PUSH1 0x0 PUSH1 0x20 DUP5 ADD RETURNDATACOPY PUSH2 0x1753 JUMP JUMPDEST PUSH1 0x60 SWAP2 POP JUMPDEST POP PUSH1 0x0 DUP2 MLOAD SUB PUSH2 0x1798 JUMPI PUSH1 0x40 MLOAD PUSH32 0x8C379A000000000000000000000000000000000000000000000000000000000 DUP2 MSTORE PUSH1 0x4 ADD PUSH2 0x178F SWAP1 PUSH2 0x30E3 JUMP JUMPDEST PUSH1 0x40 MLOAD DUP1 SWAP2 SUB SWAP1 REVERT JUMPDEST DUP1 MLOAD DUP2 PUSH1 0x20 ADD REVERT JUMPDEST PUSH4 0x150B7A02 PUSH1 0xE0 SHL PUSH28 0xFFFFFFFFFFFFFFFFFFFFFFFFFFFFFFFFFFFFFFFFFFFFFFFFFFFFFFFF NOT AND DUP2 PUSH28 0xFFFFFFFFFFFFFFFFFFFFFFFFFFFFFFFFFFFFFFFFFFFFFFFFFFFFFFFF NOT AND EQ SWAP2 POP POP PUSH2 0x17F5 JUMP JUMPDEST PUSH1 0x1 SWAP1 POP JUMPDEST SWAP5 SWAP4 POP POP POP POP JUMP JUMPDEST PUSH2 0x1807 DUP4 DUP4 PUSH2 0x18F6 JUMP JUMPDEST PUSH2 0x1814 PUSH1 0x0 DUP5 DUP5 DUP5 PUSH2 0x1676 JUMP JUMPDEST PUSH2 0x1853 JUMPI PUSH1 0x40 MLOAD PUSH32 0x8C379A000000000000000000000000000000000000000000000000000000000 DUP2 MSTORE PUSH1 0x4 ADD PUSH2 0x184A SWAP1 PUSH2 0x30E3 JUMP JUMPDEST PUSH1 0x40 MLOAD DUP1 SWAP2 SUB SWAP1 REVERT JUMPDEST POP POP POP JUMP JUMPDEST PUSH1 0x0 PUSH2 0x18B4 PUSH32 0x2759BC0C7CAFCD6881074C0260E6F1D4DE38C888587C92913DEDB789991529EC DUP5 DUP5 DUP1 MLOAD SWAP1 PUSH1 0x20 ADD KECCAK256 PUSH1 0x40 MLOAD PUSH1 0x20 ADD PUSH2 0x1899 SWAP4 SWAP3 SWAP2 SWAP1 PUSH2 0x3307 JUMP JUMPDEST PUSH1 0x40 MLOAD PUSH1 0x20 DUP2 DUP4 SUB SUB DUP2 MSTORE SWAP1 PUSH1 0x40 MSTORE DUP1 MLOAD SWAP1 PUSH1 0x20 ADD KECCAK256 PUSH2 0x1AC3 JUMP JUMPDEST SWAP1 POP SWAP3 SWAP2 POP POP JUMP JUMPDEST PUSH1 0x0 DUP1 PUSH1 0x0 PUSH2 0x18CB DUP6 DUP6 PUSH2 0x1ADD JUMP JUMPDEST SWAP2 POP SWAP2 POP PUSH2 0x18D8 DUP2 PUSH2 0x1B5E JUMP JUMPDEST DUP2 SWAP3 POP POP POP SWAP3 SWAP2 POP POP JUMP JUMPDEST PUSH1 0x0 DUP1 DUP3 EXTCODESIZE SWAP1 POP PUSH1 0x0 DUP2 GT SWAP2 POP POP SWAP2 SWAP1 POP JUMP JUMPDEST PUSH1 0x0 PUSH20 0xFFFFFFFFFFFFFFFFFFFFFFFFFFFFFFFFFFFFFFFF AND DUP3 PUSH20 0xFFFFFFFFFFFFFFFFFFFFFFFFFFFFFFFFFFFFFFFF AND SUB PUSH2 0x1965 JUMPI PUSH1 0x40 MLOAD PUSH32 0x8C379A000000000000000000000000000000000000000000000000000000000 DUP2 MSTORE PUSH1 0x4 ADD PUSH2 0x195C SWAP1 PUSH2 0x338A JUMP JUMPDEST PUSH1 0x40 MLOAD DUP1 SWAP2 SUB SWAP1 REVERT JUMPDEST PUSH2 0x196E DUP2 PUSH2 0xDA1 JUMP JUMPDEST ISZERO PUSH2 0x19AE JUMPI PUSH1 0x40 MLOAD PUSH32 0x8C379A000000000000000000000000000000000000000000000000000000000 DUP2 MSTORE PUSH1 0x4 ADD PUSH2 0x19A5 SWAP1 PUSH2 0x33F6 JUMP JUMPDEST PUSH1 0x40 MLOAD DUP1 SWAP2 SUB SWAP1 REVERT JUMPDEST PUSH2 0x19BA PUSH1 0x0 DUP4 DUP4 PUSH2 0x1671 JUMP JUMPDEST PUSH1 0x1 PUSH1 0x3 PUSH1 0x0 DUP5 PUSH20 0xFFFFFFFFFFFFFFFFFFFFFFFFFFFFFFFFFFFFFFFF AND PUSH20 0xFFFFFFFFFFFFFFFFFFFFFFFFFFFFFFFFFFFFFFFF AND DUP2 MSTORE PUSH1 0x20 ADD SWAP1 DUP2 MSTORE PUSH1 0x20 ADD PUSH1 0x0 KECCAK256 PUSH1 0x0 DUP3 DUP3 SLOAD PUSH2 0x1A0A SWAP2 SWAP1 PUSH2 0x2FD1 JUMP JUMPDEST SWAP3 POP POP DUP2 SWAP1 SSTORE POP DUP2 PUSH1 0x2 PUSH1 0x0 DUP4 DUP2 MSTORE PUSH1 0x20 ADD SWAP1 DUP2 MSTORE PUSH1 0x20 ADD PUSH1 0x0 KECCAK256 PUSH1 0x0 PUSH2 0x100 EXP DUP2 SLOAD DUP2 PUSH20 0xFFFFFFFFFFFFFFFFFFFFFFFFFFFFFFFFFFFFFFFF MUL NOT AND SWAP1 DUP4 PUSH20 0xFFFFFFFFFFFFFFFFFFFFFFFFFFFFFFFFFFFFFFFF AND MUL OR SWAP1 SSTORE POP DUP1 DUP3 PUSH20 0xFFFFFFFFFFFFFFFFFFFFFFFFFFFFFFFFFFFFFFFF AND PUSH1 0x0 PUSH20 0xFFFFFFFFFFFFFFFFFFFFFFFFFFFFFFFFFFFFFFFF AND PUSH32 0xDDF252AD1BE2C89B69C2B068FC378DAA952BA7F163C4A11628F55A4DF523B3EF PUSH1 0x40 MLOAD PUSH1 0x40 MLOAD DUP1 SWAP2 SUB SWAP1 LOG4 POP POP JUMP JUMPDEST PUSH1 0x0 PUSH2 0x1AD6 PUSH2 0x1AD0 PUSH2 0x1D2A JUMP JUMPDEST DUP4 PUSH2 0x1E44 JUMP JUMPDEST SWAP1 POP SWAP2 SWAP1 POP JUMP JUMPDEST PUSH1 0x0 DUP1 PUSH1 0x41 DUP4 MLOAD SUB PUSH2 0x1B1E JUMPI PUSH1 0x0 DUP1 PUSH1 0x0 PUSH1 0x20 DUP7 ADD MLOAD SWAP3 POP PUSH1 0x40 DUP7 ADD MLOAD SWAP2 POP PUSH1 0x60 DUP7 ADD MLOAD PUSH1 0x0 BYTE SWAP1 POP PUSH2 0x1B12 DUP8 DUP3 DUP6 DUP6 PUSH2 0x1E77 JUMP JUMPDEST SWAP5 POP SWAP5 POP POP POP POP PUSH2 0x1B57 JUMP JUMPDEST PUSH1 0x40 DUP4 MLOAD SUB PUSH2 0x1B4E JUMPI PUSH1 0x0 DUP1 PUSH1 0x20 DUP6 ADD MLOAD SWAP2 POP PUSH1 0x40 DUP6 ADD MLOAD SWAP1 POP PUSH2 0x1B43 DUP7 DUP4 DUP4 PUSH2 0x1F83 JUMP JUMPDEST SWAP4 POP SWAP4 POP POP POP PUSH2 0x1B57 JUMP JUMPDEST PUSH1 0x0 PUSH1 0x2 SWAP2 POP SWAP2 POP JUMPDEST SWAP3 POP SWAP3 SWAP1 POP JUMP JUMPDEST PUSH1 0x0 PUSH1 0x4 DUP2 GT ISZERO PUSH2 0x1B72 JUMPI PUSH2 0x1B71 PUSH2 0x3416 JUMP JUMPDEST JUMPDEST DUP2 PUSH1 0x4 DUP2 GT ISZERO PUSH2 0x1B85 JUMPI PUSH2 0x1B84 PUSH2 0x3416 JUMP JUMPDEST JUMPDEST SUB ISZERO PUSH2 0x1D27 JUMPI PUSH1 0x1 PUSH1 0x4 DUP2 GT ISZERO PUSH2 0x1B9F JUMPI PUSH2 0x1B9E PUSH2 0x3416 JUMP JUMPDEST JUMPDEST DUP2 PUSH1 0x4 DUP2 GT ISZERO PUSH2 0x1BB2 JUMPI PUSH2 0x1BB1 PUSH2 0x3416 JUMP JUMPDEST JUMPDEST SUB PUSH2 0x1BF2 JUMPI PUSH1 0x40 MLOAD PUSH32 0x8C379A000000000000000000000000000000000000000000000000000000000 DUP2 MSTORE PUSH1 0x4 ADD PUSH2 0x1BE9 SWAP1 PUSH2 0x3491 JUMP JUMPDEST PUSH1 0x40 MLOAD DUP1 SWAP2 SUB SWAP1 REVERT JUMPDEST PUSH1 0x2 PUSH1 0x4 DUP2 GT ISZERO PUSH2 0x1C06 JUMPI PUSH2 0x1C05 PUSH2 0x3416 JUMP JUMPDEST JUMPDEST DUP2 PUSH1 0x4 DUP2 GT ISZERO PUSH2 0x1C19 JUMPI PUSH2 0x1C18 PUSH2 0x3416 JUMP JUMPDEST JUMPDEST SUB PUSH2 0x1C59 JUMPI PUSH1 0x40 MLOAD PUSH32 0x8C379A000000000000000000000000000000000000000000000000000000000 DUP2 MSTORE PUSH1 0x4 ADD PUSH2 0x1C50 SWAP1 PUSH2 0x34FD JUMP JUMPDEST PUSH1 0x40 MLOAD DUP1 SWAP2 SUB SWAP1 REVERT JUMPDEST PUSH1 0x3 PUSH1 0x4 DUP2 GT ISZERO PUSH2 0x1C6D JUMPI PUSH2 0x1C6C PUSH2 0x3416 JUMP JUMPDEST JUMPDEST DUP2 PUSH1 0x4 DUP2 GT ISZERO PUSH2 0x1C80 JUMPI PUSH2 0x1C7F PUSH2 0x3416 JUMP JUMPDEST JUMPDEST SUB PUSH2 0x1CC0 JUMPI PUSH1 0x40 MLOAD PUSH32 0x8C379A000000000000000000000000000000000000000000000000000000000 DUP2 MSTORE PUSH1 0x4 ADD PUSH2 0x1CB7 SWAP1 PUSH2 0x358F JUMP JUMPDEST PUSH1 0x40 MLOAD DUP1 SWAP2 SUB SWAP1 REVERT JUMPDEST PUSH1 0x4 DUP1 DUP2 GT ISZERO PUSH2 0x1CD3 JUMPI PUSH2 0x1CD2 PUSH2 0x3416 JUMP JUMPDEST JUMPDEST DUP2 PUSH1 0x4 DUP2 GT ISZERO PUSH2 0x1CE6 JUMPI PUSH2 0x1CE5 PUSH2 0x3416 JUMP JUMPDEST JUMPDEST SUB PUSH2 0x1D26 JUMPI PUSH1 0x40 MLOAD PUSH32 0x8C379A000000000000000000000000000000000000000000000000000000000 DUP2 MSTORE PUSH1 0x4 ADD PUSH2 0x1D1D SWAP1 PUSH2 0x3621 JUMP JUMPDEST PUSH1 0x40 MLOAD DUP1 SWAP2 SUB SWAP1 REVERT JUMPDEST JUMPDEST POP JUMP JUMPDEST PUSH1 0x0 PUSH32 0x0 PUSH20 0xFFFFFFFFFFFFFFFFFFFFFFFFFFFFFFFFFFFFFFFF AND ADDRESS PUSH20 0xFFFFFFFFFFFFFFFFFFFFFFFFFFFFFFFFFFFFFFFF AND EQ DUP1 ISZERO PUSH2 0x1DA6 JUMPI POP PUSH32 0x0 CHAINID EQ JUMPDEST ISZERO PUSH2 0x1DD3 JUMPI PUSH32 0x0 SWAP1 POP PUSH2 0x1E41 JUMP JUMPDEST PUSH2 0x1E3E PUSH32 0x0 PUSH32 0x0 PUSH32 0x0 PUSH2 0x1FD1 JUMP JUMPDEST SWAP1 POP JUMPDEST SWAP1 JUMP JUMPDEST PUSH1 0x0 DUP3 DUP3 PUSH1 0x40 MLOAD PUSH1 0x20 ADD PUSH2 0x1E59 SWAP3 SWAP2 SWAP1 PUSH2 0x36AE JUMP JUMPDEST PUSH1 0x40 MLOAD PUSH1 0x20 DUP2 DUP4 SUB SUB DUP2 MSTORE SWAP1 PUSH1 0x40 MSTORE DUP1 MLOAD SWAP1 PUSH1 0x20 ADD KECCAK256 SWAP1 POP SWAP3 SWAP2 POP POP JUMP JUMPDEST PUSH1 0x0 DUP1 PUSH32 0x7FFFFFFFFFFFFFFFFFFFFFFFFFFFFFFF5D576E7357A4501DDFE92F46681B20A0 DUP4 PUSH1 0x0 SHR GT ISZERO PUSH2 0x1EB2 JUMPI PUSH1 0x0 PUSH1 0x3 SWAP2 POP SWAP2 POP PUSH2 0x1F7A JUMP JUMPDEST PUSH1 0x1B DUP6 PUSH1 0xFF AND EQ ISZERO DUP1 ISZERO PUSH2 0x1ECA JUMPI POP PUSH1 0x1C DUP6 PUSH1 0xFF AND EQ ISZERO JUMPDEST ISZERO PUSH2 0x1EDC JUMPI PUSH1 0x0 PUSH1 0x4 SWAP2 POP SWAP2 POP PUSH2 0x1F7A JUMP JUMPDEST PUSH1 0x0 PUSH1 0x1 DUP8 DUP8 DUP8 DUP8 PUSH1 0x40 MLOAD PUSH1 0x0 DUP2 MSTORE PUSH1 0x20 ADD PUSH1 0x40 MSTORE PUSH1 0x40 MLOAD PUSH2 0x1F01 SWAP5 SWAP4 SWAP3 SWAP2 SWAP1 PUSH2 0x3701 JUMP JUMPDEST PUSH1 0x20 PUSH1 0x40 MLOAD PUSH1 0x20 DUP2 SUB SWAP1 DUP1 DUP5 SUB SWAP1 DUP6 GAS STATICCALL ISZERO DUP1 ISZERO PUSH2 0x1F23 JUMPI RETURNDATASIZE PUSH1 0x0 DUP1 RETURNDATACOPY RETURNDATASIZE PUSH1 0x0 REVERT JUMPDEST POP POP POP PUSH1 0x20 PUSH1 0x40 MLOAD SUB MLOAD SWAP1 POP PUSH1 0x0 PUSH20 0xFFFFFFFFFFFFFFFFFFFFFFFFFFFFFFFFFFFFFFFF AND DUP2 PUSH20 0xFFFFFFFFFFFFFFFFFFFFFFFFFFFFFFFFFFFFFFFF AND SUB PUSH2 0x1F71 JUMPI PUSH1 0x0 PUSH1 0x1 SWAP3 POP SWAP3 POP POP PUSH2 0x1F7A JUMP JUMPDEST DUP1 PUSH1 0x0 SWAP3 POP SWAP3 POP POP JUMPDEST SWAP5 POP SWAP5 SWAP3 POP POP POP JUMP JUMPDEST PUSH1 0x0 DUP1 PUSH1 0x0 DUP1 PUSH32 0x7FFFFFFFFFFFFFFFFFFFFFFFFFFFFFFFFFFFFFFFFFFFFFFFFFFFFFFFFFFFFFFF DUP6 AND SWAP2 POP PUSH1 0x1B DUP6 PUSH1 0xFF SHR ADD SWAP1 POP PUSH2 0x1FC3 DUP8 DUP3 DUP9 DUP6 PUSH2 0x1E77 JUMP JUMPDEST SWAP4 POP SWAP4 POP POP POP SWAP4 POP SWAP4 SWAP2 POP POP JUMP JUMPDEST PUSH1 0x0 DUP4 DUP4 DUP4 CHAINID ADDRESS PUSH1 0x40 MLOAD PUSH1 0x20 ADD PUSH2 0x1FEC SWAP6 SWAP5 SWAP4 SWAP3 SWAP2 SWAP1 PUSH2 0x3746 JUMP JUMPDEST PUSH1 0x40 MLOAD PUSH1 0x20 DUP2 DUP4 SUB SUB DUP2 MSTORE SWAP1 PUSH1 0x40 MSTORE DUP1 MLOAD SWAP1 PUSH1 0x20 ADD KECCAK256 SWAP1 POP SWAP4 SWAP3 POP POP POP JUMP JUMPDEST PUSH1 0x0 PUSH1 0x40 MLOAD SWAP1 POP SWAP1 JUMP JUMPDEST PUSH1 0x0 DUP1 REVERT JUMPDEST PUSH1 0x0 DUP1 REVERT JUMPDEST PUSH1 0x0 PUSH32 0xFFFFFFFF00000000000000000000000000000000000000000000000000000000 DUP3 AND SWAP1 POP SWAP2 SWAP1 POP JUMP JUMPDEST PUSH2 0x2054 DUP2 PUSH2 0x201F JUMP JUMPDEST DUP2 EQ PUSH2 0x205F JUMPI PUSH1 0x0 DUP1 REVERT JUMPDEST POP JUMP JUMPDEST PUSH1 0x0 DUP2 CALLDATALOAD SWAP1 POP PUSH2 0x2071 DUP2 PUSH2 0x204B JUMP JUMPDEST SWAP3 SWAP2 POP POP JUMP JUMPDEST PUSH1 0x0 PUSH1 0x20 DUP3 DUP5 SUB SLT ISZERO PUSH2 0x208D JUMPI PUSH2 0x208C PUSH2 0x2015 JUMP JUMPDEST JUMPDEST PUSH1 0x0 PUSH2 0x209B DUP5 DUP3 DUP6 ADD PUSH2 0x2062 JUMP JUMPDEST SWAP2 POP POP SWAP3 SWAP2 POP POP JUMP JUMPDEST PUSH1 0x0 DUP2 ISZERO ISZERO SWAP1 POP SWAP2 SWAP1 POP JUMP JUMPDEST PUSH2 0x20B9 DUP2 PUSH2 0x20A4 JUMP JUMPDEST DUP3 MSTORE POP POP JUMP JUMPDEST PUSH1 0x0 PUSH1 0x20 DUP3 ADD SWAP1 POP PUSH2 0x20D4 PUSH1 0x0 DUP4 ADD DUP5 PUSH2 0x20B0 JUMP JUMPDEST SWAP3 SWAP2 POP POP JUMP JUMPDEST PUSH1 0x0 DUP2 MLOAD SWAP1 POP SWAP2 SWAP1 POP JUMP JUMPDEST PUSH1 0x0 DUP3 DUP3 MSTORE PUSH1 0x20 DUP3 ADD SWAP1 POP SWAP3 SWAP2 POP POP JUMP JUMPDEST PUSH1 0x0 JUMPDEST DUP4 DUP2 LT ISZERO PUSH2 0x2114 JUMPI DUP1 DUP3 ADD MLOAD DUP2 DUP5 ADD MSTORE PUSH1 0x20 DUP2 ADD SWAP1 POP PUSH2 0x20F9 JUMP JUMPDEST PUSH1 0x0 DUP5 DUP5 ADD MSTORE POP POP POP POP JUMP JUMPDEST PUSH1 0x0 PUSH1 0x1F NOT PUSH1 0x1F DUP4 ADD AND SWAP1 POP SWAP2 SWAP1 POP JUMP JUMPDEST PUSH1 0x0 PUSH2 0x213C DUP3 PUSH2 0x20DA JUMP JUMPDEST PUSH2 0x2146 DUP2 DUP6 PUSH2 0x20E5 JUMP JUMPDEST SWAP4 POP PUSH2 0x2156 DUP2 DUP6 PUSH1 0x20 DUP7 ADD PUSH2 0x20F6 JUMP JUMPDEST PUSH2 0x215F DUP2 PUSH2 0x2120 JUMP JUMPDEST DUP5 ADD SWAP2 POP POP SWAP3 SWAP2 POP POP JUMP JUMPDEST PUSH1 0x0 PUSH1 0x20 DUP3 ADD SWAP1 POP DUP2 DUP2 SUB PUSH1 0x0 DUP4 ADD MSTORE PUSH2 0x2184 DUP2 DUP5 PUSH2 0x2131 JUMP JUMPDEST SWAP1 POP SWAP3 SWAP2 POP POP JUMP JUMPDEST PUSH1 0x0 DUP2 SWAP1 POP SWAP2 SWAP1 POP JUMP JUMPDEST PUSH2 0x219F DUP2 PUSH2 0x218C JUMP JUMPDEST DUP2 EQ PUSH2 0x21AA JUMPI PUSH1 0x0 DUP1 REVERT JUMPDEST POP JUMP JUMPDEST PUSH1 0x0 DUP2 CALLDATALOAD SWAP1 POP PUSH2 0x21BC DUP2 PUSH2 0x2196 JUMP JUMPDEST SWAP3 SWAP2 POP POP JUMP JUMPDEST PUSH1 0x0 PUSH1 0x20 DUP3 DUP5 SUB SLT ISZERO PUSH2 0x21D8 JUMPI PUSH2 0x21D7 PUSH2 0x2015 JUMP JUMPDEST JUMPDEST PUSH1 0x0 PUSH2 0x21E6 DUP5 DUP3 DUP6 ADD PUSH2 0x21AD JUMP JUMPDEST SWAP2 POP POP SWAP3 SWAP2 POP POP JUMP JUMPDEST PUSH1 0x0 PUSH20 0xFFFFFFFFFFFFFFFFFFFFFFFFFFFFFFFFFFFFFFFF DUP3 AND SWAP1 POP SWAP2 SWAP1 POP JUMP JUMPDEST PUSH1 0x0 PUSH2 0x221A DUP3 PUSH2 0x21EF JUMP JUMPDEST SWAP1 POP SWAP2 SWAP1 POP JUMP JUMPDEST PUSH2 0x222A DUP2 PUSH2 0x220F JUMP JUMPDEST DUP3 MSTORE POP POP JUMP JUMPDEST PUSH1 0x0 PUSH1 0x20 DUP3 ADD SWAP1 POP PUSH2 0x2245 PUSH1 0x0 DUP4 ADD DUP5 PUSH2 0x2221 JUMP JUMPDEST SWAP3 SWAP2 POP POP JUMP JUMPDEST PUSH2 0x2254 DUP2 PUSH2 0x220F JUMP JUMPDEST DUP2 EQ PUSH2 0x225F JUMPI PUSH1 0x0 DUP1 REVERT JUMPDEST POP JUMP JUMPDEST PUSH1 0x0 DUP2 CALLDATALOAD SWAP1 POP PUSH2 0x2271 DUP2 PUSH2 0x224B JUMP JUMPDEST SWAP3 SWAP2 POP POP JUMP JUMPDEST PUSH1 0x0 DUP1 PUSH1 0x40 DUP4 DUP6 SUB SLT ISZERO PUSH2 0x228E JUMPI PUSH2 0x228D PUSH2 0x2015 JUMP JUMPDEST JUMPDEST PUSH1 0x0 PUSH2 0x229C DUP6 DUP3 DUP7 ADD PUSH2 0x2262 JUMP JUMPDEST SWAP3 POP POP PUSH1 0x20 PUSH2 0x22AD DUP6 DUP3 DUP7 ADD PUSH2 0x21AD JUMP JUMPDEST SWAP2 POP POP SWAP3 POP SWAP3 SWAP1 POP JUMP JUMPDEST PUSH1 0x0 DUP1 PUSH1 0x0 PUSH1 0x60 DUP5 DUP7 SUB SLT ISZERO PUSH2 0x22D0 JUMPI PUSH2 0x22CF PUSH2 0x2015 JUMP JUMPDEST JUMPDEST PUSH1 0x0 PUSH2 0x22DE DUP7 DUP3 DUP8 ADD PUSH2 0x2262 JUMP JUMPDEST SWAP4 POP POP PUSH1 0x20 PUSH2 0x22EF DUP7 DUP3 DUP8 ADD PUSH2 0x2262 JUMP JUMPDEST SWAP3 POP POP PUSH1 0x40 PUSH2 0x2300 DUP7 DUP3 DUP8 ADD PUSH2 0x21AD JUMP JUMPDEST SWAP2 POP POP SWAP3 POP SWAP3 POP SWAP3 JUMP JUMPDEST PUSH1 0x0 PUSH1 0x20 DUP3 DUP5 SUB SLT ISZERO PUSH2 0x2320 JUMPI PUSH2 0x231F PUSH2 0x2015 JUMP JUMPDEST JUMPDEST PUSH1 0x0 PUSH2 0x232E DUP5 DUP3 DUP6 ADD PUSH2 0x2262 JUMP JUMPDEST SWAP2 POP POP SWAP3 SWAP2 POP POP JUMP JUMPDEST PUSH2 0x2340 DUP2 PUSH2 0x218C JUMP JUMPDEST DUP3 MSTORE POP POP JUMP JUMPDEST PUSH1 0x0 PUSH1 0x20 DUP3 ADD SWAP1 POP PUSH2 0x235B PUSH1 0x0 DUP4 ADD DUP5 PUSH2 0x2337 JUMP JUMPDEST SWAP3 SWAP2 POP POP JUMP JUMPDEST PUSH2 0x236A DUP2 PUSH2 0x20A4 JUMP JUMPDEST DUP2 EQ PUSH2 0x2375 JUMPI PUSH1 0x0 DUP1 REVERT JUMPDEST POP JUMP JUMPDEST PUSH1 0x0 DUP2 CALLDATALOAD SWAP1 POP PUSH2 0x2387 DUP2 PUSH2 0x2361 JUMP JUMPDEST SWAP3 SWAP2 POP POP JUMP JUMPDEST PUSH1 0x0 DUP1 PUSH1 0x40 DUP4 DUP6 SUB SLT ISZERO PUSH2 0x23A4 JUMPI PUSH2 0x23A3 PUSH2 0x2015 JUMP JUMPDEST JUMPDEST PUSH1 0x0 PUSH2 0x23B2 DUP6 DUP3 DUP7 ADD PUSH2 0x2262 JUMP JUMPDEST SWAP3 POP POP PUSH1 0x20 PUSH2 0x23C3 DUP6 DUP3 DUP7 ADD PUSH2 0x2378 JUMP JUMPDEST SWAP2 POP POP SWAP3 POP SWAP3 SWAP1 POP JUMP JUMPDEST PUSH1 0x0 DUP1 REVERT JUMPDEST PUSH1 0x0 DUP1 REVERT JUMPDEST PUSH32 0x4E487B7100000000000000000000000000000000000000000000000000000000 PUSH1 0x0 MSTORE PUSH1 0x41 PUSH1 0x4 MSTORE PUSH1 0x24 PUSH1 0x0 REVERT JUMPDEST PUSH2 0x240F DUP3 PUSH2 0x2120 JUMP JUMPDEST DUP2 ADD DUP2 DUP2 LT PUSH8 0xFFFFFFFFFFFFFFFF DUP3 GT OR ISZERO PUSH2 0x242E JUMPI PUSH2 0x242D PUSH2 0x23D7 JUMP JUMPDEST JUMPDEST DUP1 PUSH1 0x40 MSTORE POP POP POP JUMP JUMPDEST PUSH1 0x0 PUSH2 0x2441 PUSH2 0x200B JUMP JUMPDEST SWAP1 POP PUSH2 0x244D DUP3 DUP3 PUSH2 0x2406 JUMP JUMPDEST SWAP2 SWAP1 POP JUMP JUMPDEST PUSH1 0x0 PUSH8 0xFFFFFFFFFFFFFFFF DUP3 GT ISZERO PUSH2 0x246D JUMPI PUSH2 0x246C PUSH2 0x23D7 JUMP JUMPDEST JUMPDEST PUSH2 0x2476 DUP3 PUSH2 0x2120 JUMP JUMPDEST SWAP1 POP PUSH1 0x20 DUP2 ADD SWAP1 POP SWAP2 SWAP1 POP JUMP JUMPDEST DUP3 DUP2 DUP4 CALLDATACOPY PUSH1 0x0 DUP4 DUP4 ADD MSTORE POP POP POP JUMP JUMPDEST PUSH1 0x0 PUSH2 0x24A5 PUSH2 0x24A0 DUP5 PUSH2 0x2452 JUMP JUMPDEST PUSH2 0x2437 JUMP JUMPDEST SWAP1 POP DUP3 DUP2 MSTORE PUSH1 0x20 DUP2 ADD DUP5 DUP5 DUP5 ADD GT ISZERO PUSH2 0x24C1 JUMPI PUSH2 0x24C0 PUSH2 0x23D2 JUMP JUMPDEST JUMPDEST PUSH2 0x24CC DUP5 DUP3 DUP6 PUSH2 0x2483 JUMP JUMPDEST POP SWAP4 SWAP3 POP POP POP JUMP JUMPDEST PUSH1 0x0 DUP3 PUSH1 0x1F DUP4 ADD SLT PUSH2 0x24E9 JUMPI PUSH2 0x24E8 PUSH2 0x23CD JUMP JUMPDEST JUMPDEST DUP2 CALLDATALOAD PUSH2 0x24F9 DUP5 DUP3 PUSH1 0x20 DUP7 ADD PUSH2 0x2492 JUMP JUMPDEST SWAP2 POP POP SWAP3 SWAP2 POP POP JUMP JUMPDEST PUSH1 0x0 DUP1 PUSH1 0x0 DUP1 PUSH1 0x80 DUP6 DUP8 SUB SLT ISZERO PUSH2 0x251C JUMPI PUSH2 0x251B PUSH2 0x2015 JUMP JUMPDEST JUMPDEST PUSH1 0x0 PUSH2 0x252A DUP8 DUP3 DUP9 ADD PUSH2 0x2262 JUMP JUMPDEST SWAP5 POP POP PUSH1 0x20 PUSH2 0x253B DUP8 DUP3 DUP9 ADD PUSH2 0x2262 JUMP JUMPDEST SWAP4 POP POP PUSH1 0x40 PUSH2 0x254C DUP8 DUP3 DUP9 ADD PUSH2 0x21AD JUMP JUMPDEST SWAP3 POP POP PUSH1 0x60 DUP6 ADD CALLDATALOAD PUSH8 0xFFFFFFFFFFFFFFFF DUP2 GT ISZERO PUSH2 0x256D JUMPI PUSH2 0x256C PUSH2 0x201A JUMP JUMPDEST JUMPDEST PUSH2 0x2579 DUP8 DUP3 DUP9 ADD PUSH2 0x24D4 JUMP JUMPDEST SWAP2 POP POP SWAP3 SWAP6 SWAP2 SWAP5 POP SWAP3 POP JUMP JUMPDEST PUSH1 0x0 PUSH8 0xFFFFFFFFFFFFFFFF DUP3 GT ISZERO PUSH2 0x25A0 JUMPI PUSH2 0x259F PUSH2 0x23D7 JUMP JUMPDEST JUMPDEST PUSH2 0x25A9 DUP3 PUSH2 0x2120 JUMP JUMPDEST SWAP1 POP PUSH1 0x20 DUP2 ADD SWAP1 POP SWAP2 SWAP1 POP JUMP JUMPDEST PUSH1 0x0 PUSH2 0x25C9 PUSH2 0x25C4 DUP5 PUSH2 0x2585 JUMP JUMPDEST PUSH2 0x2437 JUMP JUMPDEST SWAP1 POP DUP3 DUP2 MSTORE PUSH1 0x20 DUP2 ADD DUP5 DUP5 DUP5 ADD GT ISZERO PUSH2 0x25E5 JUMPI PUSH2 0x25E4 PUSH2 0x23D2 JUMP JUMPDEST JUMPDEST PUSH2 0x25F0 DUP5 DUP3 DUP6 PUSH2 0x2483 JUMP JUMPDEST POP SWAP4 SWAP3 POP POP POP JUMP JUMPDEST PUSH1 0x0 DUP3 PUSH1 0x1F DUP4 ADD SLT PUSH2 0x260D JUMPI PUSH2 0x260C PUSH2 0x23CD JUMP JUMPDEST JUMPDEST DUP2 CALLDATALOAD PUSH2 0x261D DUP5 DUP3 PUSH1 0x20 DUP7 ADD PUSH2 0x25B6 JUMP JUMPDEST SWAP2 POP POP SWAP3 SWAP2 POP POP JUMP JUMPDEST PUSH1 0x0 DUP1 PUSH1 0x0 DUP1 PUSH1 0x80 DUP6 DUP8 SUB SLT ISZERO PUSH2 0x2640 JUMPI PUSH2 0x263F PUSH2 0x2015 JUMP JUMPDEST JUMPDEST PUSH1 0x0 PUSH2 0x264E DUP8 DUP3 DUP9 ADD PUSH2 0x2262 JUMP JUMPDEST SWAP5 POP POP PUSH1 0x20 DUP6 ADD CALLDATALOAD PUSH8 0xFFFFFFFFFFFFFFFF DUP2 GT ISZERO PUSH2 0x266F JUMPI PUSH2 0x266E PUSH2 0x201A JUMP JUMPDEST JUMPDEST PUSH2 0x267B DUP8 DUP3 DUP9 ADD PUSH2 0x25F8 JUMP JUMPDEST SWAP4 POP POP PUSH1 0x40 PUSH2 0x268C DUP8 DUP3 DUP9 ADD PUSH2 0x21AD JUMP JUMPDEST SWAP3 POP POP PUSH1 0x60 DUP6 ADD CALLDATALOAD PUSH8 0xFFFFFFFFFFFFFFFF DUP2 GT ISZERO PUSH2 0x26AD JUMPI PUSH2 0x26AC PUSH2 0x201A JUMP JUMPDEST JUMPDEST PUSH2 0x26B9 DUP8 DUP3 DUP9 ADD PUSH2 0x24D4 JUMP JUMPDEST SWAP2 POP POP SWAP3 SWAP6 SWAP2 SWAP5 POP SWAP3 POP JUMP JUMPDEST PUSH1 0x0 DUP1 PUSH1 0x0 PUSH1 0x60 DUP5 DUP7 SUB SLT ISZERO PUSH2 0x26DE JUMPI PUSH2 0x26DD PUSH2 0x2015 JUMP JUMPDEST JUMPDEST PUSH1 0x0 PUSH2 0x26EC DUP7 DUP3 DUP8 ADD PUSH2 0x21AD JUMP JUMPDEST SWAP4 POP POP PUSH1 0x20 DUP5 ADD CALLDATALOAD PUSH8 0xFFFFFFFFFFFFFFFF DUP2 GT ISZERO PUSH2 0x270D JUMPI PUSH2 0x270C PUSH2 0x201A JUMP JUMPDEST JUMPDEST PUSH2 0x2719 DUP7 DUP3 DUP8 ADD PUSH2 0x25F8 JUMP JUMPDEST SWAP3 POP POP PUSH1 0x40 DUP5 ADD CALLDATALOAD PUSH8 0xFFFFFFFFFFFFFFFF DUP2 GT ISZERO PUSH2 0x273A JUMPI PUSH2 0x2739 PUSH2 0x201A JUMP JUMPDEST JUMPDEST PUSH2 0x2746 DUP7 DUP3 DUP8 ADD PUSH2 0x24D4 JUMP JUMPDEST SWAP2 POP POP SWAP3 POP SWAP3 POP SWAP3 JUMP JUMPDEST PUSH1 0x0 DUP1 PUSH1 0x40 DUP4 DUP6 SUB SLT ISZERO PUSH2 0x2767 JUMPI PUSH2 0x2766 PUSH2 0x2015 JUMP JUMPDEST JUMPDEST PUSH1 0x0 PUSH2 0x2775 DUP6 DUP3 DUP7 ADD PUSH2 0x2262 JUMP JUMPDEST SWAP3 POP POP PUSH1 0x20 PUSH2 0x2786 DUP6 DUP3 DUP7 ADD PUSH2 0x2262 JUMP JUMPDEST SWAP2 POP POP SWAP3 POP SWAP3 SWAP1 POP JUMP JUMPDEST PUSH32 0x4E487B7100000000000000000000000000000000000000000000000000000000 PUSH1 0x0 MSTORE PUSH1 0x22 PUSH1 0x4 MSTORE PUSH1 0x24 PUSH1 0x0 REVERT JUMPDEST PUSH1 0x0 PUSH1 0x2 DUP3 DIV SWAP1 POP PUSH1 0x1 DUP3 AND DUP1 PUSH2 0x27D7 JUMPI PUSH1 0x7F DUP3 AND SWAP2 POP JUMPDEST PUSH1 0x20 DUP3 LT DUP2 SUB PUSH2 0x27EA JUMPI PUSH2 0x27E9 PUSH2 0x2790 JUMP JUMPDEST JUMPDEST POP SWAP2 SWAP1 POP JUMP JUMPDEST PUSH32 0x4552433732313A20617070726F76656420717565727920666F72206E6F6E6578 PUSH1 0x0 DUP3 ADD MSTORE PUSH32 0x697374656E7420746F6B656E0000000000000000000000000000000000000000 PUSH1 0x20 DUP3 ADD MSTORE POP JUMP JUMPDEST PUSH1 0x0 PUSH2 0x284C PUSH1 0x2C DUP4 PUSH2 0x20E5 JUMP JUMPDEST SWAP2 POP PUSH2 0x2857 DUP3 PUSH2 0x27F0 JUMP JUMPDEST PUSH1 0x40 DUP3 ADD SWAP1 POP SWAP2 SWAP1 POP JUMP JUMPDEST PUSH1 0x0 PUSH1 0x20 DUP3 ADD SWAP1 POP DUP2 DUP2 SUB PUSH1 0x0 DUP4 ADD MSTORE PUSH2 0x287B DUP2 PUSH2 0x283F JUMP JUMPDEST SWAP1 POP SWAP2 SWAP1 POP JUMP JUMPDEST PUSH32 0x4552433732313A20617070726F76616C20746F2063757272656E74206F776E65 PUSH1 0x0 DUP3 ADD MSTORE PUSH32 0x7200000000000000000000000000000000000000000000000000000000000000 PUSH1 0x20 DUP3 ADD MSTORE POP JUMP JUMPDEST PUSH1 0x0 PUSH2 0x28DE PUSH1 0x21 DUP4 PUSH2 0x20E5 JUMP JUMPDEST SWAP2 POP PUSH2 0x28E9 DUP3 PUSH2 0x2882 JUMP JUMPDEST PUSH1 0x40 DUP3 ADD SWAP1 POP SWAP2 SWAP1 POP JUMP JUMPDEST PUSH1 0x0 PUSH1 0x20 DUP3 ADD SWAP1 POP DUP2 DUP2 SUB PUSH1 0x0 DUP4 ADD MSTORE PUSH2 0x290D DUP2 PUSH2 0x28D1 JUMP JUMPDEST SWAP1 POP SWAP2 SWAP1 POP JUMP JUMPDEST PUSH32 0x4552433732313A20617070726F76652063616C6C6572206973206E6F74206F77 PUSH1 0x0 DUP3 ADD MSTORE PUSH32 0x6E6572206E6F7220617070726F76656420666F7220616C6C0000000000000000 PUSH1 0x20 DUP3 ADD MSTORE POP JUMP JUMPDEST PUSH1 0x0 PUSH2 0x2970 PUSH1 0x38 DUP4 PUSH2 0x20E5 JUMP JUMPDEST SWAP2 POP PUSH2 0x297B DUP3 PUSH2 0x2914 JUMP JUMPDEST PUSH1 0x40 DUP3 ADD SWAP1 POP SWAP2 SWAP1 POP JUMP JUMPDEST PUSH1 0x0 PUSH1 0x20 DUP3 ADD SWAP1 POP DUP2 DUP2 SUB PUSH1 0x0 DUP4 ADD MSTORE PUSH2 0x299F DUP2 PUSH2 0x2963 JUMP JUMPDEST SWAP1 POP SWAP2 SWAP1 POP JUMP JUMPDEST PUSH32 0x4552433732313A207472616E736665722063616C6C6572206973206E6F74206F PUSH1 0x0 DUP3 ADD MSTORE PUSH32 0x776E6572206E6F7220617070726F766564000000000000000000000000000000 PUSH1 0x20 DUP3 ADD MSTORE POP JUMP JUMPDEST PUSH1 0x0 PUSH2 0x2A02 PUSH1 0x31 DUP4 PUSH2 0x20E5 JUMP JUMPDEST SWAP2 POP PUSH2 0x2A0D DUP3 PUSH2 0x29A6 JUMP JUMPDEST PUSH1 0x40 DUP3 ADD SWAP1 POP SWAP2 SWAP1 POP JUMP JUMPDEST PUSH1 0x0 PUSH1 0x20 DUP3 ADD SWAP1 POP DUP2 DUP2 SUB PUSH1 0x0 DUP4 ADD MSTORE PUSH2 0x2A31 DUP2 PUSH2 0x29F5 JUMP JUMPDEST SWAP1 POP SWAP2 SWAP1 POP JUMP JUMPDEST PUSH32 0x4552433732313A206F776E657220717565727920666F72206E6F6E6578697374 PUSH1 0x0 DUP3 ADD MSTORE PUSH32 0x656E7420746F6B656E0000000000000000000000000000000000000000000000 PUSH1 0x20 DUP3 ADD MSTORE POP JUMP JUMPDEST PUSH1 0x0 PUSH2 0x2A94 PUSH1 0x29 DUP4 PUSH2 0x20E5 JUMP JUMPDEST SWAP2 POP PUSH2 0x2A9F DUP3 PUSH2 0x2A38 JUMP JUMPDEST PUSH1 0x40 DUP3 ADD SWAP1 POP SWAP2 SWAP1 POP JUMP JUMPDEST PUSH1 0x0 PUSH1 0x20 DUP3 ADD SWAP1 POP DUP2 DUP2 SUB PUSH1 0x0 DUP4 ADD MSTORE PUSH2 0x2AC3 DUP2 PUSH2 0x2A87 JUMP JUMPDEST SWAP1 POP SWAP2 SWAP1 POP JUMP JUMPDEST PUSH32 0x4552433732313A2062616C616E636520717565727920666F7220746865207A65 PUSH1 0x0 DUP3 ADD MSTORE PUSH32 0x726F206164647265737300000000000000000000000000000000000000000000 PUSH1 0x20 DUP3 ADD MSTORE POP JUMP JUMPDEST PUSH1 0x0 PUSH2 0x2B26 PUSH1 0x2A DUP4 PUSH2 0x20E5 JUMP JUMPDEST SWAP2 POP PUSH2 0x2B31 DUP3 PUSH2 0x2ACA JUMP JUMPDEST PUSH1 0x40 DUP3 ADD SWAP1 POP SWAP2 SWAP1 POP JUMP JUMPDEST PUSH1 0x0 PUSH1 0x20 DUP3 ADD SWAP1 POP DUP2 DUP2 SUB PUSH1 0x0 DUP4 ADD MSTORE PUSH2 0x2B55 DUP2 PUSH2 0x2B19 JUMP JUMPDEST SWAP1 POP SWAP2 SWAP1 POP JUMP JUMPDEST PUSH32 0x4F776E61626C653A2063616C6C6572206973206E6F7420746865206F776E6572 PUSH1 0x0 DUP3 ADD MSTORE POP JUMP JUMPDEST PUSH1 0x0 PUSH2 0x2B92 PUSH1 0x20 DUP4 PUSH2 0x20E5 JUMP JUMPDEST SWAP2 POP PUSH2 0x2B9D DUP3 PUSH2 0x2B5C JUMP JUMPDEST PUSH1 0x20 DUP3 ADD SWAP1 POP SWAP2 SWAP1 POP JUMP JUMPDEST PUSH1 0x0 PUSH1 0x20 DUP3 ADD SWAP1 POP DUP2 DUP2 SUB PUSH1 0x0 DUP4 ADD MSTORE PUSH2 0x2BC1 DUP2 PUSH2 0x2B85 JUMP JUMPDEST SWAP1 POP SWAP2 SWAP1 POP JUMP JUMPDEST PUSH32 0x4552433732314D657461646174613A2055524920717565727920666F72206E6F PUSH1 0x0 DUP3 ADD MSTORE PUSH32 0x6E6578697374656E7420746F6B656E0000000000000000000000000000000000 PUSH1 0x20 DUP3 ADD MSTORE POP JUMP JUMPDEST PUSH1 0x0 PUSH2 0x2C24 PUSH1 0x2F DUP4 PUSH2 0x20E5 JUMP JUMPDEST SWAP2 POP PUSH2 0x2C2F DUP3 PUSH2 0x2BC8 JUMP JUMPDEST PUSH1 0x40 DUP3 ADD SWAP1 POP SWAP2 SWAP1 POP JUMP JUMPDEST PUSH1 0x0 PUSH1 0x20 DUP3 ADD SWAP1 POP DUP2 DUP2 SUB PUSH1 0x0 DUP4 ADD MSTORE PUSH2 0x2C53 DUP2 PUSH2 0x2C17 JUMP JUMPDEST SWAP1 POP SWAP2 SWAP1 POP JUMP JUMPDEST PUSH1 0x0 DUP2 SWAP1 POP SWAP3 SWAP2 POP POP JUMP JUMPDEST PUSH1 0x0 PUSH2 0x2C70 DUP3 PUSH2 0x20DA JUMP JUMPDEST PUSH2 0x2C7A DUP2 DUP6 PUSH2 0x2C5A JUMP JUMPDEST SWAP4 POP PUSH2 0x2C8A DUP2 DUP6 PUSH1 0x20 DUP7 ADD PUSH2 0x20F6 JUMP JUMPDEST DUP1 DUP5 ADD SWAP2 POP POP SWAP3 SWAP2 POP POP JUMP JUMPDEST PUSH1 0x0 PUSH2 0x2CA2 DUP3 DUP6 PUSH2 0x2C65 JUMP JUMPDEST SWAP2 POP PUSH2 0x2CAE DUP3 DUP5 PUSH2 0x2C65 JUMP JUMPDEST SWAP2 POP DUP2 SWAP1 POP SWAP4 SWAP3 POP POP POP JUMP JUMPDEST PUSH32 0x566F756368657220696E76616C69640000000000000000000000000000000000 PUSH1 0x0 DUP3 ADD MSTORE POP JUMP JUMPDEST PUSH1 0x0 PUSH2 0x2CF0 PUSH1 0xF DUP4 PUSH2 0x20E5 JUMP JUMPDEST SWAP2 POP PUSH2 0x2CFB DUP3 PUSH2 0x2CBA JUMP JUMPDEST PUSH1 0x20 DUP3 ADD SWAP1 POP SWAP2 SWAP1 POP JUMP JUMPDEST PUSH1 0x0 PUSH1 0x20 DUP3 ADD SWAP1 POP DUP2 DUP2 SUB PUSH1 0x0 DUP4 ADD MSTORE PUSH2 0x2D1F DUP2 PUSH2 0x2CE3 JUMP JUMPDEST SWAP1 POP SWAP2 SWAP1 POP JUMP JUMPDEST PUSH32 0x4F776E61626C653A206E6577206F776E657220697320746865207A65726F2061 PUSH1 0x0 DUP3 ADD MSTORE PUSH32 0x6464726573730000000000000000000000000000000000000000000000000000 PUSH1 0x20 DUP3 ADD MSTORE POP JUMP JUMPDEST PUSH1 0x0 PUSH2 0x2D82 PUSH1 0x26 DUP4 PUSH2 0x20E5 JUMP JUMPDEST SWAP2 POP PUSH2 0x2D8D DUP3 PUSH2 0x2D26 JUMP JUMPDEST PUSH1 0x40 DUP3 ADD SWAP1 POP SWAP2 SWAP1 POP JUMP JUMPDEST PUSH1 0x0 PUSH1 0x20 DUP3 ADD SWAP1 POP DUP2 DUP2 SUB PUSH1 0x0 DUP4 ADD MSTORE PUSH2 0x2DB1 DUP2 PUSH2 0x2D75 JUMP JUMPDEST SWAP1 POP SWAP2 SWAP1 POP JUMP JUMPDEST PUSH32 0x4552433732313A206F70657261746F7220717565727920666F72206E6F6E6578 PUSH1 0x0 DUP3 ADD MSTORE PUSH32 0x697374656E7420746F6B656E0000000000000000000000000000000000000000 PUSH1 0x20 DUP3 ADD MSTORE POP JUMP JUMPDEST PUSH1 0x0 PUSH2 0x2E14 PUSH1 0x2C DUP4 PUSH2 0x20E5 JUMP JUMPDEST SWAP2 POP PUSH2 0x2E1F DUP3 PUSH2 0x2DB8 JUMP JUMPDEST PUSH1 0x40 DUP3 ADD SWAP1 POP SWAP2 SWAP1 POP JUMP JUMPDEST PUSH1 0x0 PUSH1 0x20 DUP3 ADD SWAP1 POP DUP2 DUP2 SUB PUSH1 0x0 DUP4 ADD MSTORE PUSH2 0x2E43 DUP2 PUSH2 0x2E07 JUMP JUMPDEST SWAP1 POP SWAP2 SWAP1 POP JUMP JUMPDEST PUSH32 0x4552433732313A207472616E73666572206F6620746F6B656E20746861742069 PUSH1 0x0 DUP3 ADD MSTORE PUSH32 0x73206E6F74206F776E0000000000000000000000000000000000000000000000 PUSH1 0x20 DUP3 ADD MSTORE POP JUMP JUMPDEST PUSH1 0x0 PUSH2 0x2EA6 PUSH1 0x29 DUP4 PUSH2 0x20E5 JUMP JUMPDEST SWAP2 POP PUSH2 0x2EB1 DUP3 PUSH2 0x2E4A JUMP JUMPDEST PUSH1 0x40 DUP3 ADD SWAP1 POP SWAP2 SWAP1 POP JUMP JUMPDEST PUSH1 0x0 PUSH1 0x20 DUP3 ADD SWAP1 POP DUP2 DUP2 SUB PUSH1 0x0 DUP4 ADD MSTORE PUSH2 0x2ED5 DUP2 PUSH2 0x2E99 JUMP JUMPDEST SWAP1 POP SWAP2 SWAP1 POP JUMP JUMPDEST PUSH32 0x4552433732313A207472616E7366657220746F20746865207A65726F20616464 PUSH1 0x0 DUP3 ADD MSTORE PUSH32 0x7265737300000000000000000000000000000000000000000000000000000000 PUSH1 0x20 DUP3 ADD MSTORE POP JUMP JUMPDEST PUSH1 0x0 PUSH2 0x2F38 PUSH1 0x24 DUP4 PUSH2 0x20E5 JUMP JUMPDEST SWAP2 POP PUSH2 0x2F43 DUP3 PUSH2 0x2EDC JUMP JUMPDEST PUSH1 0x40 DUP3 ADD SWAP1 POP SWAP2 SWAP1 POP JUMP JUMPDEST PUSH1 0x0 PUSH1 0x20 DUP3 ADD SWAP1 POP DUP2 DUP2 SUB PUSH1 0x0 DUP4 ADD MSTORE PUSH2 0x2F67 DUP2 PUSH2 0x2F2B JUMP JUMPDEST SWAP1 POP SWAP2 SWAP1 POP JUMP JUMPDEST PUSH32 0x4E487B7100000000000000000000000000000000000000000000000000000000 PUSH1 0x0 MSTORE PUSH1 0x11 PUSH1 0x4 MSTORE PUSH1 0x24 PUSH1 0x0 REVERT JUMPDEST PUSH1 0x0 PUSH2 0x2FA8 DUP3 PUSH2 0x218C JUMP JUMPDEST SWAP2 POP PUSH2 0x2FB3 DUP4 PUSH2 0x218C JUMP JUMPDEST SWAP3 POP DUP3 DUP3 SUB SWAP1 POP DUP2 DUP2 GT ISZERO PUSH2 0x2FCB JUMPI PUSH2 0x2FCA PUSH2 0x2F6E JUMP JUMPDEST JUMPDEST SWAP3 SWAP2 POP POP JUMP JUMPDEST PUSH1 0x0 PUSH2 0x2FDC DUP3 PUSH2 0x218C JUMP JUMPDEST SWAP2 POP PUSH2 0x2FE7 DUP4 PUSH2 0x218C JUMP JUMPDEST SWAP3 POP DUP3 DUP3 ADD SWAP1 POP DUP1 DUP3 GT ISZERO PUSH2 0x2FFF JUMPI PUSH2 0x2FFE PUSH2 0x2F6E JUMP JUMPDEST JUMPDEST SWAP3 SWAP2 POP POP JUMP JUMPDEST PUSH32 0x4552433732313A20617070726F766520746F2063616C6C657200000000000000 PUSH1 0x0 DUP3 ADD MSTORE POP JUMP JUMPDEST PUSH1 0x0 PUSH2 0x303B PUSH1 0x19 DUP4 PUSH2 0x20E5 JUMP JUMPDEST SWAP2 POP PUSH2 0x3046 DUP3 PUSH2 0x3005 JUMP JUMPDEST PUSH1 0x20 DUP3 ADD SWAP1 POP SWAP2 SWAP1 POP JUMP JUMPDEST PUSH1 0x0 PUSH1 0x20 DUP3 ADD SWAP1 POP DUP2 DUP2 SUB PUSH1 0x0 DUP4 ADD MSTORE PUSH2 0x306A DUP2 PUSH2 0x302E JUMP JUMPDEST SWAP1 POP SWAP2 SWAP1 POP JUMP JUMPDEST PUSH32 0x4552433732313A207472616E7366657220746F206E6F6E204552433732315265 PUSH1 0x0 DUP3 ADD MSTORE PUSH32 0x63656976657220696D706C656D656E7465720000000000000000000000000000 PUSH1 0x20 DUP3 ADD MSTORE POP JUMP JUMPDEST PUSH1 0x0 PUSH2 0x30CD PUSH1 0x32 DUP4 PUSH2 0x20E5 JUMP JUMPDEST SWAP2 POP PUSH2 0x30D8 DUP3 PUSH2 0x3071 JUMP JUMPDEST PUSH1 0x40 DUP3 ADD SWAP1 POP SWAP2 SWAP1 POP JUMP JUMPDEST PUSH1 0x0 PUSH1 0x20 DUP3 ADD SWAP1 POP DUP2 DUP2 SUB PUSH1 0x0 DUP4 ADD MSTORE PUSH2 0x30FC DUP2 PUSH2 0x30C0 JUMP JUMPDEST SWAP1 POP SWAP2 SWAP1 POP JUMP JUMPDEST PUSH1 0x0 PUSH2 0x310E DUP3 PUSH2 0x218C JUMP JUMPDEST SWAP2 POP PUSH32 0xFFFFFFFFFFFFFFFFFFFFFFFFFFFFFFFFFFFFFFFFFFFFFFFFFFFFFFFFFFFFFFFF DUP3 SUB PUSH2 0x3140 JUMPI PUSH2 0x313F PUSH2 0x2F6E JUMP JUMPDEST JUMPDEST PUSH1 0x1 DUP3 ADD SWAP1 POP SWAP2 SWAP1 POP JUMP JUMPDEST PUSH32 0x4E487B7100000000000000000000000000000000000000000000000000000000 PUSH1 0x0 MSTORE PUSH1 0x12 PUSH1 0x4 MSTORE PUSH1 0x24 PUSH1 0x0 REVERT JUMPDEST PUSH1 0x0 PUSH2 0x3185 DUP3 PUSH2 0x218C JUMP JUMPDEST SWAP2 POP PUSH2 0x3190 DUP4 PUSH2 0x218C JUMP JUMPDEST SWAP3 POP DUP3 PUSH2 0x31A0 JUMPI PUSH2 0x319F PUSH2 0x314B JUMP JUMPDEST JUMPDEST DUP3 DUP3 DIV SWAP1 POP SWAP3 SWAP2 POP POP JUMP JUMPDEST PUSH1 0x0 PUSH2 0x31B6 DUP3 PUSH2 0x218C JUMP JUMPDEST SWAP2 POP PUSH2 0x31C1 DUP4 PUSH2 0x218C JUMP JUMPDEST SWAP3 POP DUP3 PUSH2 0x31D1 JUMPI PUSH2 0x31D0 PUSH2 0x314B JUMP JUMPDEST JUMPDEST DUP3 DUP3 MOD SWAP1 POP SWAP3 SWAP2 POP POP JUMP JUMPDEST PUSH32 0x4E487B7100000000000000000000000000000000000000000000000000000000 PUSH1 0x0 MSTORE PUSH1 0x32 PUSH1 0x4 MSTORE PUSH1 0x24 PUSH1 0x0 REVERT JUMPDEST PUSH1 0x0 DUP2 MLOAD SWAP1 POP SWAP2 SWAP1 POP JUMP JUMPDEST PUSH1 0x0 DUP3 DUP3 MSTORE PUSH1 0x20 DUP3 ADD SWAP1 POP SWAP3 SWAP2 POP POP JUMP JUMPDEST PUSH1 0x0 PUSH2 0x3232 DUP3 PUSH2 0x320B JUMP JUMPDEST PUSH2 0x323C DUP2 DUP6 PUSH2 0x3216 JUMP JUMPDEST SWAP4 POP PUSH2 0x324C DUP2 DUP6 PUSH1 0x20 DUP7 ADD PUSH2 0x20F6 JUMP JUMPDEST PUSH2 0x3255 DUP2 PUSH2 0x2120 JUMP JUMPDEST DUP5 ADD SWAP2 POP POP SWAP3 SWAP2 POP POP JUMP JUMPDEST PUSH1 0x0 PUSH1 0x80 DUP3 ADD SWAP1 POP PUSH2 0x3275 PUSH1 0x0 DUP4 ADD DUP8 PUSH2 0x2221 JUMP JUMPDEST PUSH2 0x3282 PUSH1 0x20 DUP4 ADD DUP7 PUSH2 0x2221 JUMP JUMPDEST PUSH2 0x328F PUSH1 0x40 DUP4 ADD DUP6 PUSH2 0x2337 JUMP JUMPDEST DUP2 DUP2 SUB PUSH1 0x60 DUP4 ADD MSTORE PUSH2 0x32A1 DUP2 DUP5 PUSH2 0x3227 JUMP JUMPDEST SWAP1 POP SWAP6 SWAP5 POP POP POP POP POP JUMP JUMPDEST PUSH1 0x0 DUP2 MLOAD SWAP1 POP PUSH2 0x32BB DUP2 PUSH2 0x204B JUMP JUMPDEST SWAP3 SWAP2 POP POP JUMP JUMPDEST PUSH1 0x0 PUSH1 0x20 DUP3 DUP5 SUB SLT ISZERO PUSH2 0x32D7 JUMPI PUSH2 0x32D6 PUSH2 0x2015 JUMP JUMPDEST JUMPDEST PUSH1 0x0 PUSH2 0x32E5 DUP5 DUP3 DUP6 ADD PUSH2 0x32AC JUMP JUMPDEST SWAP2 POP POP SWAP3 SWAP2 POP POP JUMP JUMPDEST PUSH1 0x0 DUP2 SWAP1 POP SWAP2 SWAP1 POP JUMP JUMPDEST PUSH2 0x3301 DUP2 PUSH2 0x32EE JUMP JUMPDEST DUP3 MSTORE POP POP JUMP JUMPDEST PUSH1 0x0 PUSH1 0x60 DUP3 ADD SWAP1 POP PUSH2 0x331C PUSH1 0x0 DUP4 ADD DUP7 PUSH2 0x32F8 JUMP JUMPDEST PUSH2 0x3329 PUSH1 0x20 DUP4 ADD DUP6 PUSH2 0x2337 JUMP JUMPDEST PUSH2 0x3336 PUSH1 0x40 DUP4 ADD DUP5 PUSH2 0x32F8 JUMP JUMPDEST SWAP5 SWAP4 POP POP POP POP JUMP JUMPDEST PUSH32 0x4552433732313A206D696E7420746F20746865207A65726F2061646472657373 PUSH1 0x0 DUP3 ADD MSTORE POP JUMP JUMPDEST PUSH1 0x0 PUSH2 0x3374 PUSH1 0x20 DUP4 PUSH2 0x20E5 JUMP JUMPDEST SWAP2 POP PUSH2 0x337F DUP3 PUSH2 0x333E JUMP JUMPDEST PUSH1 0x20 DUP3 ADD SWAP1 POP SWAP2 SWAP1 POP JUMP JUMPDEST PUSH1 0x0 PUSH1 0x20 DUP3 ADD SWAP1 POP DUP2 DUP2 SUB PUSH1 0x0 DUP4 ADD MSTORE PUSH2 0x33A3 DUP2 PUSH2 0x3367 JUMP JUMPDEST SWAP1 POP SWAP2 SWAP1 POP JUMP JUMPDEST PUSH32 0x4552433732313A20746F6B656E20616C7265616479206D696E74656400000000 PUSH1 0x0 DUP3 ADD MSTORE POP JUMP JUMPDEST PUSH1 0x0 PUSH2 0x33E0 PUSH1 0x1C DUP4 PUSH2 0x20E5 JUMP JUMPDEST SWAP2 POP PUSH2 0x33EB DUP3 PUSH2 0x33AA JUMP JUMPDEST PUSH1 0x20 DUP3 ADD SWAP1 POP SWAP2 SWAP1 POP JUMP JUMPDEST PUSH1 0x0 PUSH1 0x20 DUP3 ADD SWAP1 POP DUP2 DUP2 SUB PUSH1 0x0 DUP4 ADD MSTORE PUSH2 0x340F DUP2 PUSH2 0x33D3 JUMP JUMPDEST SWAP1 POP SWAP2 SWAP1 POP JUMP JUMPDEST PUSH32 0x4E487B7100000000000000000000000000000000000000000000000000000000 PUSH1 0x0 MSTORE PUSH1 0x21 PUSH1 0x4 MSTORE PUSH1 0x24 PUSH1 0x0 REVERT JUMPDEST PUSH32 0x45434453413A20696E76616C6964207369676E61747572650000000000000000 PUSH1 0x0 DUP3 ADD MSTORE POP JUMP JUMPDEST PUSH1 0x0 PUSH2 0x347B PUSH1 0x18 DUP4 PUSH2 0x20E5 JUMP JUMPDEST SWAP2 POP PUSH2 0x3486 DUP3 PUSH2 0x3445 JUMP JUMPDEST PUSH1 0x20 DUP3 ADD SWAP1 POP SWAP2 SWAP1 POP JUMP JUMPDEST PUSH1 0x0 PUSH1 0x20 DUP3 ADD SWAP1 POP DUP2 DUP2 SUB PUSH1 0x0 DUP4 ADD MSTORE PUSH2 0x34AA DUP2 PUSH2 0x346E JUMP JUMPDEST SWAP1 POP SWAP2 SWAP1 POP JUMP JUMPDEST PUSH32 0x45434453413A20696E76616C6964207369676E6174757265206C656E67746800 PUSH1 0x0 DUP3 ADD MSTORE POP JUMP JUMPDEST PUSH1 0x0 PUSH2 0x34E7 PUSH1 0x1F DUP4 PUSH2 0x20E5 JUMP JUMPDEST SWAP2 POP PUSH2 0x34F2 DUP3 PUSH2 0x34B1 JUMP JUMPDEST PUSH1 0x20 DUP3 ADD SWAP1 POP SWAP2 SWAP1 POP JUMP JUMPDEST PUSH1 0x0 PUSH1 0x20 DUP3 ADD SWAP1 POP DUP2 DUP2 SUB PUSH1 0x0 DUP4 ADD MSTORE PUSH2 0x3516 DUP2 PUSH2 0x34DA JUMP JUMPDEST SWAP1 POP SWAP2 SWAP1 POP JUMP JUMPDEST PUSH32 0x45434453413A20696E76616C6964207369676E6174757265202773272076616C PUSH1 0x0 DUP3 ADD MSTORE PUSH32 0x7565000000000000000000000000000000000000000000000000000000000000 PUSH1 0x20 DUP3 ADD MSTORE POP JUMP JUMPDEST PUSH1 0x0 PUSH2 0x3579 PUSH1 0x22 DUP4 PUSH2 0x20E5 JUMP JUMPDEST SWAP2 POP PUSH2 0x3584 DUP3 PUSH2 0x351D JUMP JUMPDEST PUSH1 0x40 DUP3 ADD SWAP1 POP SWAP2 SWAP1 POP JUMP JUMPDEST PUSH1 0x0 PUSH1 0x20 DUP3 ADD SWAP1 POP DUP2 DUP2 SUB PUSH1 0x0 DUP4 ADD MSTORE PUSH2 0x35A8 DUP2 PUSH2 0x356C JUMP JUMPDEST SWAP1 POP SWAP2 SWAP1 POP JUMP JUMPDEST PUSH32 0x45434453413A20696E76616C6964207369676E6174757265202776272076616C PUSH1 0x0 DUP3 ADD MSTORE PUSH32 0x7565000000000000000000000000000000000000000000000000000000000000 PUSH1 0x20 DUP3 ADD MSTORE POP JUMP JUMPDEST PUSH1 0x0 PUSH2 0x360B PUSH1 0x22 DUP4 PUSH2 0x20E5 JUMP JUMPDEST SWAP2 POP PUSH2 0x3616 DUP3 PUSH2 0x35AF JUMP JUMPDEST PUSH1 0x40 DUP3 ADD SWAP1 POP SWAP2 SWAP1 POP JUMP JUMPDEST PUSH1 0x0 PUSH1 0x20 DUP3 ADD SWAP1 POP DUP2 DUP2 SUB PUSH1 0x0 DUP4 ADD MSTORE PUSH2 0x363A DUP2 PUSH2 0x35FE JUMP JUMPDEST SWAP1 POP SWAP2 SWAP1 POP JUMP JUMPDEST PUSH32 0x1901000000000000000000000000000000000000000000000000000000000000 PUSH1 0x0 DUP3 ADD MSTORE POP JUMP JUMPDEST PUSH1 0x0 PUSH2 0x3677 PUSH1 0x2 DUP4 PUSH2 0x2C5A JUMP JUMPDEST SWAP2 POP PUSH2 0x3682 DUP3 PUSH2 0x3641 JUMP JUMPDEST PUSH1 0x2 DUP3 ADD SWAP1 POP SWAP2 SWAP1 POP JUMP JUMPDEST PUSH1 0x0 DUP2 SWAP1 POP SWAP2 SWAP1 POP JUMP JUMPDEST PUSH2 0x36A8 PUSH2 0x36A3 DUP3 PUSH2 0x32EE JUMP JUMPDEST PUSH2 0x368D JUMP JUMPDEST DUP3 MSTORE POP POP JUMP JUMPDEST PUSH1 0x0 PUSH2 0x36B9 DUP3 PUSH2 0x366A JUMP JUMPDEST SWAP2 POP PUSH2 0x36C5 DUP3 DUP6 PUSH2 0x3697 JUMP JUMPDEST PUSH1 0x20 DUP3 ADD SWAP2 POP PUSH2 0x36D5 DUP3 DUP5 PUSH2 0x3697 JUMP JUMPDEST PUSH1 0x20 DUP3 ADD SWAP2 POP DUP2 SWAP1 POP SWAP4 SWAP3 POP POP POP JUMP JUMPDEST PUSH1 0x0 PUSH1 0xFF DUP3 AND SWAP1 POP SWAP2 SWAP1 POP JUMP JUMPDEST PUSH2 0x36FB DUP2 PUSH2 0x36E5 JUMP JUMPDEST DUP3 MSTORE POP POP JUMP JUMPDEST PUSH1 0x0 PUSH1 0x80 DUP3 ADD SWAP1 POP PUSH2 0x3716 PUSH1 0x0 DUP4 ADD DUP8 PUSH2 0x32F8 JUMP JUMPDEST PUSH2 0x3723 PUSH1 0x20 DUP4 ADD DUP7 PUSH2 0x36F2 JUMP JUMPDEST PUSH2 0x3730 PUSH1 0x40 DUP4 ADD DUP6 PUSH2 0x32F8 JUMP JUMPDEST PUSH2 0x373D PUSH1 0x60 DUP4 ADD DUP5 PUSH2 0x32F8 JUMP JUMPDEST SWAP6 SWAP5 POP POP POP POP POP JUMP JUMPDEST PUSH1 0x0 PUSH1 0xA0 DUP3 ADD SWAP1 POP PUSH2 0x375B PUSH1 0x0 DUP4 ADD DUP9 PUSH2 0x32F8 JUMP JUMPDEST PUSH2 0x3768 PUSH1 0x20 DUP4 ADD DUP8 PUSH2 0x32F8 JUMP JUMPDEST PUSH2 0x3775 PUSH1 0x40 DUP4 ADD DUP7 PUSH2 0x32F8 JUMP JUMPDEST PUSH2 0x3782 PUSH1 0x60 DUP4 ADD DUP6 PUSH2 0x2337 JUMP JUMPDEST PUSH2 0x378F PUSH1 0x80 DUP4 ADD DUP5 PUSH2 0x2221 JUMP JUMPDEST SWAP7 SWAP6 POP POP POP POP POP POP JUMP INVALID LOG2 PUSH5 0x6970667358 0x22 SLT KECCAK256 0xC8 SWAP5 EQ GT 0xFB 0xA8 KECCAK256 0xF SGT 0x23 0x22 DUP9 0xA8 CALLDATALOAD 0xA9 0xC8 SELFDESTRUCT SELFDESTRUCT PUSH32 0xFC94BE3FAAF173D0DFD13C32364736F6C634300081000330000000000000000 "
		},
		"gasEstimates": {
			"creation": {
				"codeDepositCost": "2857400",
				"executionCost": "infinite",
				"totalCost": "infinite"
			},
			"external": {
				"approve(address,uint256)": "infinite",
				"balanceOf(address)": "2965",
				"check(uint256,string,bytes)": "infinite",
				"getApproved(uint256)": "5228",
				"isApprovedForAll(address,address)": "infinite",
				"name()": "infinite",
				"owner()": "2545",
				"ownerOf(uint256)": "3041",
				"renounceOwnership()": "30485",
				"safeMint(address,string,uint256,bytes)": "infinite",
				"safeTransferFrom(address,address,uint256)": "infinite",
				"safeTransferFrom(address,address,uint256,bytes)": "infinite",
				"setApprovalForAll(address,bool)": "infinite",
				"supportsInterface(bytes4)": "797",
				"symbol()": "infinite",
				"tokenURI(uint256)": "3343",
				"transferFrom(address,address,uint256)": "infinite",
				"transferOwnership(address)": "30830"
			},
			"internal": {
				"_hash(uint256,string memory)": "infinite",
				"_veryfy(uint256,string memory,bytes memory)": "infinite"
			}
		},
		"methodIdentifiers": {
			"approve(address,uint256)": "095ea7b3",
			"balanceOf(address)": "70a08231",
			"check(uint256,string,bytes)": "e811c9dd",
			"getApproved(uint256)": "081812fc",
			"isApprovedForAll(address,address)": "e985e9c5",
			"name()": "06fdde03",
			"owner()": "8da5cb5b",
			"ownerOf(uint256)": "6352211e",
			"renounceOwnership()": "715018a6",
			"safeMint(address,string,uint256,bytes)": "e5763b73",
			"safeTransferFrom(address,address,uint256)": "42842e0e",
			"safeTransferFrom(address,address,uint256,bytes)": "b88d4fde",
			"setApprovalForAll(address,bool)": "a22cb465",
			"supportsInterface(bytes4)": "01ffc9a7",
			"symbol()": "95d89b41",
			"tokenURI(uint256)": "c87b56dd",
			"transferFrom(address,address,uint256)": "23b872dd",
			"transferOwnership(address)": "f2fde38b"
		}
	},
	"abi": [
		{
			"inputs": [],
			"stateMutability": "nonpayable",
			"type": "constructor"
		},
		{
			"anonymous": false,
			"inputs": [
				{
					"indexed": true,
					"internalType": "address",
					"name": "owner",
					"type": "address"
				},
				{
					"indexed": true,
					"internalType": "address",
					"name": "approved",
					"type": "address"
				},
				{
					"indexed": true,
					"internalType": "uint256",
					"name": "tokenId",
					"type": "uint256"
				}
			],
			"name": "Approval",
			"type": "event"
		},
		{
			"anonymous": false,
			"inputs": [
				{
					"indexed": true,
					"internalType": "address",
					"name": "owner",
					"type": "address"
				},
				{
					"indexed": true,
					"internalType": "address",
					"name": "operator",
					"type": "address"
				},
				{
					"indexed": false,
					"internalType": "bool",
					"name": "approved",
					"type": "bool"
				}
			],
			"name": "ApprovalForAll",
			"type": "event"
		},
		{
			"anonymous": false,
			"inputs": [
				{
					"indexed": true,
					"internalType": "address",
					"name": "previousOwner",
					"type": "address"
				},
				{
					"indexed": true,
					"internalType": "address",
					"name": "newOwner",
					"type": "address"
				}
			],
			"name": "OwnershipTransferred",
			"type": "event"
		},
		{
			"anonymous": false,
			"inputs": [
				{
					"indexed": true,
					"internalType": "address",
					"name": "from",
					"type": "address"
				},
				{
					"indexed": true,
					"internalType": "address",
					"name": "to",
					"type": "address"
				},
				{
					"indexed": true,
					"internalType": "uint256",
					"name": "tokenId",
					"type": "uint256"
				}
			],
			"name": "Transfer",
			"type": "event"
		},
		{
			"inputs": [
				{
					"internalType": "address",
					"name": "to",
					"type": "address"
				},
				{
					"internalType": "uint256",
					"name": "tokenId",
					"type": "uint256"
				}
			],
			"name": "approve",
			"outputs": [],
			"stateMutability": "nonpayable",
			"type": "function"
		},
		{
			"inputs": [
				{
					"internalType": "address",
					"name": "owner",
					"type": "address"
				}
			],
			"name": "balanceOf",
			"outputs": [
				{
					"internalType": "uint256",
					"name": "",
					"type": "uint256"
				}
			],
			"stateMutability": "view",
			"type": "function"
		},
		{
			"inputs": [
				{
					"internalType": "uint256",
					"name": "id",
					"type": "uint256"
				},
				{
					"internalType": "string",
					"name": "name",
					"type": "string"
				},
				{
					"internalType": "bytes",
					"name": "signature",
					"type": "bytes"
				}
			],
			"name": "check",
			"outputs": [
				{
					"internalType": "address",
					"name": "",
					"type": "address"
				}
			],
			"stateMutability": "view",
			"type": "function"
		},
		{
			"inputs": [
				{
					"internalType": "uint256",
					"name": "tokenId",
					"type": "uint256"
				}
			],
			"name": "getApproved",
			"outputs": [
				{
					"internalType": "address",
					"name": "",
					"type": "address"
				}
			],
			"stateMutability": "view",
			"type": "function"
		},
		{
			"inputs": [
				{
					"internalType": "address",
					"name": "owner",
					"type": "address"
				},
				{
					"internalType": "address",
					"name": "operator",
					"type": "address"
				}
			],
			"name": "isApprovedForAll",
			"outputs": [
				{
					"internalType": "bool",
					"name": "",
					"type": "bool"
				}
			],
			"stateMutability": "view",
			"type": "function"
		},
		{
			"inputs": [],
			"name": "name",
			"outputs": [
				{
					"internalType": "string",
					"name": "",
					"type": "string"
				}
			],
			"stateMutability": "view",
			"type": "function"
		},
		{
			"inputs": [],
			"name": "owner",
			"outputs": [
				{
					"internalType": "address",
					"name": "",
					"type": "address"
				}
			],
			"stateMutability": "view",
			"type": "function"
		},
		{
			"inputs": [
				{
					"internalType": "uint256",
					"name": "tokenId",
					"type": "uint256"
				}
			],
			"name": "ownerOf",
			"outputs": [
				{
					"internalType": "address",
					"name": "",
					"type": "address"
				}
			],
			"stateMutability": "view",
			"type": "function"
		},
		{
			"inputs": [],
			"name": "renounceOwnership",
			"outputs": [],
			"stateMutability": "nonpayable",
			"type": "function"
		},
		{
			"inputs": [
				{
					"internalType": "address",
					"name": "to",
					"type": "address"
				},
				{
					"internalType": "string",
					"name": "name",
					"type": "string"
				},
				{
					"internalType": "uint256",
					"name": "id",
					"type": "uint256"
				},
				{
					"internalType": "bytes",
					"name": "signature",
					"type": "bytes"
				}
			],
			"name": "safeMint",
			"outputs": [],
			"stateMutability": "nonpayable",
			"type": "function"
		},
		{
			"inputs": [
				{
					"internalType": "address",
					"name": "from",
					"type": "address"
				},
				{
					"internalType": "address",
					"name": "to",
					"type": "address"
				},
				{
					"internalType": "uint256",
					"name": "tokenId",
					"type": "uint256"
				}
			],
			"name": "safeTransferFrom",
			"outputs": [],
			"stateMutability": "nonpayable",
			"type": "function"
		},
		{
			"inputs": [
				{
					"internalType": "address",
					"name": "from",
					"type": "address"
				},
				{
					"internalType": "address",
					"name": "to",
					"type": "address"
				},
				{
					"internalType": "uint256",
					"name": "tokenId",
					"type": "uint256"
				},
				{
					"internalType": "bytes",
					"name": "_data",
					"type": "bytes"
				}
			],
			"name": "safeTransferFrom",
			"outputs": [],
			"stateMutability": "nonpayable",
			"type": "function"
		},
		{
			"inputs": [
				{
					"internalType": "address",
					"name": "operator",
					"type": "address"
				},
				{
					"internalType": "bool",
					"name": "approved",
					"type": "bool"
				}
			],
			"name": "setApprovalForAll",
			"outputs": [],
			"stateMutability": "nonpayable",
			"type": "function"
		},
		{
			"inputs": [
				{
					"internalType": "bytes4",
					"name": "interfaceId",
					"type": "bytes4"
				}
			],
			"name": "supportsInterface",
			"outputs": [
				{
					"internalType": "bool",
					"name": "",
					"type": "bool"
				}
			],
			"stateMutability": "view",
			"type": "function"
		},
		{
			"inputs": [],
			"name": "symbol",
			"outputs": [
				{
					"internalType": "string",
					"name": "",
					"type": "string"
				}
			],
			"stateMutability": "view",
			"type": "function"
		},
		{
			"inputs": [
				{
					"internalType": "uint256",
					"name": "tokenId",
					"type": "uint256"
				}
			],
			"name": "tokenURI",
			"outputs": [
				{
					"internalType": "string",
					"name": "",
					"type": "string"
				}
			],
			"stateMutability": "view",
			"type": "function"
		},
		{
			"inputs": [
				{
					"internalType": "address",
					"name": "from",
					"type": "address"
				},
				{
					"internalType": "address",
					"name": "to",
					"type": "address"
				},
				{
					"internalType": "uint256",
					"name": "tokenId",
					"type": "uint256"
				}
			],
			"name": "transferFrom",
			"outputs": [],
			"stateMutability": "nonpayable",
			"type": "function"
		},
		{
			"inputs": [
				{
					"internalType": "address",
					"name": "newOwner",
					"type": "address"
				}
			],
			"name": "transferOwnership",
			"outputs": [],
			"stateMutability": "nonpayable",
			"type": "function"
		}
	]
}