{
	"Arevea-NFT-Market/NFT-Contracts/contracts/finalMarket_single.sol": {
		"NFTMarketplace": {
			"abi": [
				{
					"anonymous": false,
					"inputs": [
						{
							"indexed": false,
							"internalType": "address",
							"name": "nftContractAddress",
							"type": "address"
						},
						{
							"indexed": false,
							"internalType": "uint256",
							"name": "tokenId",
							"type": "uint256"
						},
						{
							"indexed": false,
							"internalType": "address",
							"name": "nftSeller",
							"type": "address"
						}
					],
					"name": "CancelNftAuctionSale",
					"type": "event"
				},
				{
					"anonymous": false,
					"inputs": [
						{
							"indexed": false,
							"internalType": "address",
							"name": "nftContractAddress",
							"type": "address"
						},
						{
							"indexed": false,
							"internalType": "address",
							"name": "nftSeller",
							"type": "address"
						},
						{
							"indexed": false,
							"internalType": "uint256",
							"name": "tokenId",
							"type": "uint256"
						}
					],
					"name": "CancelNftFixedSale",
					"type": "event"
				},
				{
					"anonymous": false,
					"inputs": [
						{
							"indexed": false,
							"internalType": "address",
							"name": "nftContractAddress",
							"type": "address"
						},
						{
							"indexed": false,
							"internalType": "uint256",
							"name": "tokenId",
							"type": "uint256"
						},
						{
							"indexed": false,
							"internalType": "uint256",
							"name": "finalBidPrice",
							"type": "uint256"
						},
						{
							"indexed": false,
							"internalType": "address",
							"name": "nftBidder",
							"type": "address"
						}
					],
					"name": "NftAuctionBidPriceUpdate",
					"type": "event"
				},
				{
					"anonymous": false,
					"inputs": [
						{
							"indexed": false,
							"internalType": "address",
							"name": "nftContractAddress",
							"type": "address"
						},
						{
							"indexed": false,
							"internalType": "address",
							"name": "nftSeller",
							"type": "address"
						},
						{
							"indexed": false,
							"internalType": "address",
							"name": "erc20",
							"type": "address"
						},
						{
							"indexed": false,
							"internalType": "uint256",
							"name": "tokenId",
							"type": "uint256"
						},
						{
							"indexed": false,
							"internalType": "uint256",
							"name": "auctionStart",
							"type": "uint256"
						},
						{
							"indexed": false,
							"internalType": "uint256",
							"name": "auctionEnd",
							"type": "uint256"
						},
						{
							"indexed": false,
							"internalType": "uint256",
							"name": "minPrice",
							"type": "uint256"
						}
					],
					"name": "NftAuctionSale",
					"type": "event"
				},
				{
					"anonymous": false,
					"inputs": [
						{
							"indexed": false,
							"internalType": "address",
							"name": "nftContractAddress",
							"type": "address"
						},
						{
							"indexed": false,
							"internalType": "uint256",
							"name": "tokenId",
							"type": "uint256"
						},
						{
							"indexed": false,
							"internalType": "address",
							"name": "nftHighestBidder",
							"type": "address"
						},
						{
							"indexed": false,
							"internalType": "uint256",
							"name": "nftHighestBid",
							"type": "uint256"
						},
						{
							"indexed": false,
							"internalType": "address",
							"name": "nftSeller",
							"type": "address"
						}
					],
					"name": "NftAuctionSettle",
					"type": "event"
				},
				{
					"anonymous": false,
					"inputs": [
						{
							"indexed": false,
							"internalType": "address",
							"name": "nftContractAddress",
							"type": "address"
						},
						{
							"indexed": false,
							"internalType": "uint256",
							"name": "tokenId",
							"type": "uint256"
						},
						{
							"indexed": false,
							"internalType": "uint256",
							"name": "bidPrice",
							"type": "uint256"
						},
						{
							"indexed": false,
							"internalType": "address",
							"name": "nftBidder",
							"type": "address"
						}
					],
					"name": "NftBidPrice",
					"type": "event"
				},
				{
					"anonymous": false,
					"inputs": [
						{
							"indexed": false,
							"internalType": "address",
							"name": "nftContractAddress",
							"type": "address"
						},
						{
							"indexed": false,
							"internalType": "address",
							"name": "nftBuyer",
							"type": "address"
						},
						{
							"indexed": false,
							"internalType": "uint256",
							"name": "tokenId",
							"type": "uint256"
						},
						{
							"indexed": false,
							"internalType": "uint256",
							"name": "nftBuyPrice",
							"type": "uint256"
						}
					],
					"name": "NftBuyFromFixedSale",
					"type": "event"
				},
				{
					"anonymous": false,
					"inputs": [
						{
							"indexed": false,
							"internalType": "address",
							"name": "nftContractAddress",
							"type": "address"
						},
						{
							"indexed": false,
							"internalType": "uint256",
							"name": "tokenId",
							"type": "uint256"
						},
						{
							"indexed": false,
							"internalType": "uint256",
							"name": "updateBuyNowPrice",
							"type": "uint256"
						},
						{
							"indexed": false,
							"internalType": "address",
							"name": "nftOwner",
							"type": "address"
						}
					],
					"name": "NftBuyNowPriceUpdate",
					"type": "event"
				},
				{
					"anonymous": false,
					"inputs": [
						{
							"indexed": false,
							"internalType": "address",
							"name": "nftContractAddress",
							"type": "address"
						},
						{
							"indexed": false,
							"internalType": "address",
							"name": "nftSeller",
							"type": "address"
						},
						{
							"indexed": false,
							"internalType": "address",
							"name": "erc20",
							"type": "address"
						},
						{
							"indexed": false,
							"internalType": "uint256",
							"name": "tokenId",
							"type": "uint256"
						},
						{
							"indexed": false,
							"internalType": "uint256",
							"name": "salePrice",
							"type": "uint256"
						},
						{
							"indexed": false,
							"internalType": "uint256",
							"name": "timeOfSale",
							"type": "uint256"
						}
					],
					"name": "NftFixedSale",
					"type": "event"
				},
				{
					"anonymous": false,
					"inputs": [
						{
							"indexed": false,
							"internalType": "address",
							"name": "nftContractAddress",
							"type": "address"
						},
						{
							"indexed": false,
							"internalType": "uint256",
							"name": "tokenId",
							"type": "uint256"
						},
						{
							"indexed": false,
							"internalType": "uint256",
							"name": "updateSalePrice",
							"type": "uint256"
						}
					],
					"name": "NftFixedSalePriceUpdated",
					"type": "event"
				},
				{
					"anonymous": false,
					"inputs": [
						{
							"indexed": false,
							"internalType": "address",
							"name": "nftContractAddress",
							"type": "address"
						},
						{
							"indexed": false,
							"internalType": "uint256",
							"name": "tokenId",
							"type": "uint256"
						},
						{
							"indexed": false,
							"internalType": "address",
							"name": "bidClaimer",
							"type": "address"
						}
					],
					"name": "withdrawNftBid",
					"type": "event"
				},
				{
					"inputs": [
						{
							"internalType": "address",
							"name": "_nftContractAddress",
							"type": "address"
						},
						{
							"internalType": "uint256",
							"name": "_tokenId",
							"type": "uint256"
						}
					],
					"name": "_cancelAuctionSale",
					"outputs": [],
					"stateMutability": "nonpayable",
					"type": "function"
				},
				{
					"inputs": [
						{
							"internalType": "address",
							"name": "_nftContractAddress",
							"type": "address"
						},
						{
							"internalType": "uint256",
							"name": "_tokenId",
							"type": "uint256"
						},
						{
							"internalType": "uint256",
							"name": "_amount",
							"type": "uint256"
						}
					],
					"name": "buyFromFixedSale",
					"outputs": [],
					"stateMutability": "payable",
					"type": "function"
				},
				{
					"inputs": [
						{
							"internalType": "address",
							"name": "_nftContractAddress",
							"type": "address"
						},
						{
							"internalType": "uint256",
							"name": "_tokenId",
							"type": "uint256"
						}
					],
					"name": "cancelFixedsale",
					"outputs": [],
					"stateMutability": "nonpayable",
					"type": "function"
				},
				{
					"inputs": [
						{
							"internalType": "address",
							"name": "_nftContractAddress",
							"type": "address"
						},
						{
							"internalType": "address",
							"name": "_erc20",
							"type": "address"
						},
						{
							"internalType": "uint256",
							"name": "_tokenId",
							"type": "uint256"
						},
						{
							"internalType": "uint256",
							"name": "_auctionStart",
							"type": "uint256"
						},
						{
							"internalType": "uint256",
							"name": "_auctionEnd",
							"type": "uint256"
						},
						{
							"internalType": "uint256",
							"name": "_minPrice",
							"type": "uint256"
						}
					],
					"name": "createNftAuctionSale",
					"outputs": [],
					"stateMutability": "nonpayable",
					"type": "function"
				},
				{
					"inputs": [],
					"name": "getAuctionSaleNFT",
					"outputs": [
						{
							"components": [
								{
									"internalType": "address",
									"name": "_nftContractAddress",
									"type": "address"
								},
								{
									"internalType": "uint256",
									"name": "_tokenID",
									"type": "uint256"
								}
							],
							"internalType": "struct NFTMarketplace.SaleInfo[]",
							"name": "",
							"type": "tuple[]"
						}
					],
					"stateMutability": "view",
					"type": "function"
				},
				{
					"inputs": [
						{
							"internalType": "address",
							"name": "_nftContractAddress",
							"type": "address"
						},
						{
							"internalType": "uint256",
							"name": "_tokenId",
							"type": "uint256"
						}
					],
					"name": "getFixedSale",
					"outputs": [
						{
							"components": [
								{
									"internalType": "address",
									"name": "nftSeller",
									"type": "address"
								},
								{
									"internalType": "address",
									"name": "nftBuyer",
									"type": "address"
								},
								{
									"internalType": "address",
									"name": "erc20",
									"type": "address"
								},
								{
									"internalType": "uint256",
									"name": "salePrice",
									"type": "uint256"
								}
							],
							"internalType": "struct NFTMarketplace.FixedSale",
							"name": "",
							"type": "tuple"
						}
					],
					"stateMutability": "view",
					"type": "function"
				},
				{
					"inputs": [],
					"name": "getFixedSaleNFT",
					"outputs": [
						{
							"components": [
								{
									"internalType": "address",
									"name": "_nftContractAddress",
									"type": "address"
								},
								{
									"internalType": "uint256",
									"name": "_tokenID",
									"type": "uint256"
								}
							],
							"internalType": "struct NFTMarketplace.SaleInfo[]",
							"name": "",
							"type": "tuple[]"
						}
					],
					"stateMutability": "view",
					"type": "function"
				},
				{
					"inputs": [
						{
							"internalType": "address",
							"name": "_nftContractAddress",
							"type": "address"
						},
						{
							"internalType": "uint256",
							"name": "_tokenId",
							"type": "uint256"
						}
					],
					"name": "getNftAuctionSaleDetails",
					"outputs": [
						{
							"components": [
								{
									"internalType": "uint256",
									"name": "auctionStart",
									"type": "uint256"
								},
								{
									"internalType": "uint256",
									"name": "auctionEnd",
									"type": "uint256"
								},
								{
									"internalType": "uint256",
									"name": "minPrice",
									"type": "uint256"
								},
								{
									"internalType": "uint256",
									"name": "nftHighestBid",
									"type": "uint256"
								},
								{
									"internalType": "address",
									"name": "nftHighestBidder",
									"type": "address"
								},
								{
									"internalType": "address",
									"name": "nftSeller",
									"type": "address"
								},
								{
									"internalType": "address",
									"name": "erc20",
									"type": "address"
								}
							],
							"internalType": "struct NFTMarketplace.Auction",
							"name": "",
							"type": "tuple"
						}
					],
					"stateMutability": "view",
					"type": "function"
				},
				{
					"inputs": [
						{
							"internalType": "address",
							"name": "_nftContractAddress",
							"type": "address"
						},
						{
							"internalType": "uint256",
							"name": "_tokenId",
							"type": "uint256"
						},
						{
							"internalType": "uint256",
							"name": "_bidPrice",
							"type": "uint256"
						}
					],
					"name": "makeBid",
					"outputs": [],
					"stateMutability": "payable",
					"type": "function"
				},
				{
					"inputs": [
						{
							"internalType": "address",
							"name": "_nftContractAddress",
							"type": "address"
						},
						{
							"internalType": "address",
							"name": "_erc20",
							"type": "address"
						},
						{
							"internalType": "uint256",
							"name": "_tokenId",
							"type": "uint256"
						},
						{
							"internalType": "uint256",
							"name": "_salePrice",
							"type": "uint256"
						}
					],
					"name": "nftFixedSale",
					"outputs": [],
					"stateMutability": "nonpayable",
					"type": "function"
				},
				{
					"inputs": [
						{
							"internalType": "address",
							"name": "",
							"type": "address"
						},
						{
							"internalType": "uint256",
							"name": "",
							"type": "uint256"
						}
					],
					"name": "nftSaleStatus",
					"outputs": [
						{
							"internalType": "uint256",
							"name": "",
							"type": "uint256"
						}
					],
					"stateMutability": "view",
					"type": "function"
				},
				{
					"inputs": [
						{
							"internalType": "address",
							"name": "",
							"type": "address"
						},
						{
							"internalType": "address",
							"name": "from",
							"type": "address"
						},
						{
							"internalType": "uint256",
							"name": "",
							"type": "uint256"
						},
						{
							"internalType": "bytes",
							"name": "",
							"type": "bytes"
						}
					],
					"name": "onERC721Received",
					"outputs": [
						{
							"internalType": "bytes4",
							"name": "",
							"type": "bytes4"
						}
					],
					"stateMutability": "pure",
					"type": "function"
				},
				{
					"inputs": [
						{
							"internalType": "address",
							"name": "_nftContractAddress",
							"type": "address"
						},
						{
							"internalType": "uint256",
							"name": "_tokenId",
							"type": "uint256"
						}
					],
					"name": "settleAuction",
					"outputs": [],
					"stateMutability": "nonpayable",
					"type": "function"
				},
				{
					"inputs": [
						{
							"internalType": "address",
							"name": "_nftContractAddress",
							"type": "address"
						},
						{
							"internalType": "uint256",
							"name": "_tokenId",
							"type": "uint256"
						},
						{
							"internalType": "uint256",
							"name": "_updateSalePrice",
							"type": "uint256"
						}
					],
					"name": "updateFixedSalePrice",
					"outputs": [],
					"stateMutability": "nonpayable",
					"type": "function"
				},
				{
					"inputs": [
						{
							"internalType": "address",
							"name": "_nftContractAddress",
							"type": "address"
						},
						{
							"internalType": "uint256",
							"name": "_tokenId",
							"type": "uint256"
						},
						{
							"internalType": "uint256",
							"name": "_updateBidPrice",
							"type": "uint256"
						}
					],
					"name": "updateTheBidPrice",
					"outputs": [],
					"stateMutability": "payable",
					"type": "function"
				},
				{
					"inputs": [
						{
							"internalType": "address",
							"name": "",
							"type": "address"
						},
						{
							"internalType": "uint256",
							"name": "",
							"type": "uint256"
						},
						{
							"internalType": "address",
							"name": "",
							"type": "address"
						}
					],
					"name": "userBidPriceOnNFT",
					"outputs": [
						{
							"internalType": "uint256",
							"name": "",
							"type": "uint256"
						}
					],
					"stateMutability": "view",
					"type": "function"
				},
				{
					"inputs": [
						{
							"internalType": "address",
							"name": "_nftContractAddress",
							"type": "address"
						},
						{
							"internalType": "uint256",
							"name": "_tokenId",
							"type": "uint256"
						}
					],
					"name": "withdrawBid",
					"outputs": [],
					"stateMutability": "nonpayable",
					"type": "function"
				},
				{
					"stateMutability": "payable",
					"type": "receive"
				}
			],
			"devdoc": {
				"kind": "dev",
				"methods": {},
				"version": 1
			},
			"evm": {
				"assembly": "    /* \"Arevea-NFT-Market/NFT-Contracts/contracts/finalMarket_single.sol\":365:21431  contract NFTMarketplace {... */\n  mstore(0x40, 0x80)\n  callvalue\n  dup1\n  iszero\n  tag_1\n  jumpi\n  0x00\n  dup1\n  revert\ntag_1:\n  pop\n  dataSize(sub_0)\n  dup1\n  dataOffset(sub_0)\n  0x00\n  codecopy\n  0x00\n  return\nstop\n\nsub_0: assembly {\n        /* \"Arevea-NFT-Market/NFT-Contracts/contracts/finalMarket_single.sol\":365:21431  contract NFTMarketplace {... */\n      mstore(0x40, 0x80)\n      jumpi(tag_1, lt(calldatasize, 0x04))\n      shr(0xe0, calldataload(0x00))\n      dup1\n      0x69a6d12e\n      gt\n      tag_20\n      jumpi\n      dup1\n      0x8c3417da\n      gt\n      tag_21\n      jumpi\n      dup1\n      0x8c3417da\n      eq\n      tag_15\n      jumpi\n      dup1\n      0x9f085a00\n      eq\n      tag_16\n      jumpi\n      dup1\n      0xbaf4371e\n      eq\n      tag_17\n      jumpi\n      dup1\n      0xcf42b7e6\n      eq\n      tag_18\n      jumpi\n      dup1\n      0xd3a6a6c9\n      eq\n      tag_19\n      jumpi\n      jump(tag_2)\n    tag_21:\n      dup1\n      0x69a6d12e\n      eq\n      tag_11\n      jumpi\n      dup1\n      0x6f8c9b1b\n      eq\n      tag_12\n      jumpi\n      dup1\n      0x6fe02f24\n      eq\n      tag_13\n      jumpi\n      dup1\n      0x842bc46a\n      eq\n      tag_14\n      jumpi\n      jump(tag_2)\n    tag_20:\n      dup1\n      0x4676adca\n      gt\n      tag_22\n      jumpi\n      dup1\n      0x4676adca\n      eq\n      tag_7\n      jumpi\n      dup1\n      0x4cb8ef5b\n      eq\n      tag_8\n      jumpi\n      dup1\n      0x5138b08c\n      eq\n      tag_9\n      jumpi\n      dup1\n      0x6916462f\n      eq\n      tag_10\n      jumpi\n      jump(tag_2)\n    tag_22:\n      dup1\n      0x150b7a02\n      eq\n      tag_3\n      jumpi\n      dup1\n      0x1bdae6f1\n      eq\n      tag_4\n      jumpi\n      dup1\n      0x1e7a044f\n      eq\n      tag_5\n      jumpi\n      dup1\n      0x3a713db8\n      eq\n      tag_6\n      jumpi\n      jump(tag_2)\n    tag_1:\n      jumpi(tag_2, calldatasize)\n      stop\n    tag_2:\n      0x00\n      dup1\n      revert\n        /* \"Arevea-NFT-Market/NFT-Contracts/contracts/finalMarket_single.sol\":18722:18937  function onERC721Received(... */\n    tag_3:\n      callvalue\n      dup1\n      iszero\n      tag_25\n      jumpi\n      0x00\n      dup1\n      revert\n    tag_25:\n      pop\n      tag_26\n      0x04\n      dup1\n      calldatasize\n      sub\n      dup2\n      add\n      swap1\n      tag_27\n      swap2\n      swap1\n      tag_28\n      jump\t// in\n    tag_27:\n      tag_29\n      jump\t// in\n    tag_26:\n      mload(0x40)\n      tag_30\n      swap2\n      swap1\n      tag_31\n      jump\t// in\n    tag_30:\n      mload(0x40)\n      dup1\n      swap2\n      sub\n      swap1\n      return\n        /* \"Arevea-NFT-Market/NFT-Contracts/contracts/finalMarket_single.sol\":12791:13966  function makeBid(... */\n    tag_4:\n      tag_32\n      0x04\n      dup1\n      calldatasize\n      sub\n      dup2\n      add\n      swap1\n      tag_33\n      swap2\n      swap1\n      tag_34\n      jump\t// in\n    tag_33:\n      tag_35\n      jump\t// in\n    tag_32:\n      stop\n        /* \"Arevea-NFT-Market/NFT-Contracts/contracts/finalMarket_single.sol\":18261:18372  function getAuctionSaleNFT() external view returns (SaleInfo[] memory) {... */\n    tag_5:\n      callvalue\n      dup1\n      iszero\n      tag_36\n      jumpi\n      0x00\n      dup1\n      revert\n    tag_36:\n      pop\n      tag_37\n      tag_38\n      jump\t// in\n    tag_37:\n      mload(0x40)\n      tag_39\n      swap2\n      swap1\n      tag_40\n      jump\t// in\n    tag_39:\n      mload(0x40)\n      dup1\n      swap2\n      sub\n      swap1\n      return\n        /* \"Arevea-NFT-Market/NFT-Contracts/contracts/finalMarket_single.sol\":13974:15490  function updateTheBidPrice(... */\n    tag_6:\n      tag_41\n      0x04\n      dup1\n      calldatasize\n      sub\n      dup2\n      add\n      swap1\n      tag_42\n      swap2\n      swap1\n      tag_34\n      jump\t// in\n    tag_42:\n      tag_43\n      jump\t// in\n    tag_41:\n      stop\n        /* \"Arevea-NFT-Market/NFT-Contracts/contracts/finalMarket_single.sol\":9960:10538  function updateFixedSalePrice(... */\n    tag_7:\n      callvalue\n      dup1\n      iszero\n      tag_44\n      jumpi\n      0x00\n      dup1\n      revert\n    tag_44:\n      pop\n      tag_45\n      0x04\n      dup1\n      calldatasize\n      sub\n      dup2\n      add\n      swap1\n      tag_46\n      swap2\n      swap1\n      tag_34\n      jump\t// in\n    tag_46:\n      tag_47\n      jump\t// in\n    tag_45:\n      stop\n        /* \"Arevea-NFT-Market/NFT-Contracts/contracts/finalMarket_single.sol\":17263:18021  function withdrawBid(address _nftContractAddress, uint256 _tokenId)... */\n    tag_8:\n      callvalue\n      dup1\n      iszero\n      tag_48\n      jumpi\n      0x00\n      dup1\n      revert\n    tag_48:\n      pop\n      tag_49\n      0x04\n      dup1\n      calldatasize\n      sub\n      dup2\n      add\n      swap1\n      tag_50\n      swap2\n      swap1\n      tag_51\n      jump\t// in\n    tag_50:\n      tag_52\n      jump\t// in\n    tag_49:\n      stop\n        /* \"Arevea-NFT-Market/NFT-Contracts/contracts/finalMarket_single.sol\":16247:17255  function settleAuction(address _nftContractAddress, uint256 _tokenId)... */\n    tag_9:\n      callvalue\n      dup1\n      iszero\n      tag_53\n      jumpi\n      0x00\n      dup1\n      revert\n    tag_53:\n      pop\n      tag_54\n      0x04\n      dup1\n      calldatasize\n      sub\n      dup2\n      add\n      swap1\n      tag_55\n      swap2\n      swap1\n      tag_51\n      jump\t// in\n    tag_55:\n      tag_56\n      jump\t// in\n    tag_54:\n      stop\n        /* \"Arevea-NFT-Market/NFT-Contracts/contracts/finalMarket_single.sol\":1059:1127  mapping(address => mapping(uint256 => uint256)) public nftSaleStatus */\n    tag_10:\n      callvalue\n      dup1\n      iszero\n      tag_57\n      jumpi\n      0x00\n      dup1\n      revert\n    tag_57:\n      pop\n      tag_58\n      0x04\n      dup1\n      calldatasize\n      sub\n      dup2\n      add\n      swap1\n      tag_59\n      swap2\n      swap1\n      tag_51\n      jump\t// in\n    tag_59:\n      tag_60\n      jump\t// in\n    tag_58:\n      mload(0x40)\n      tag_61\n      swap2\n      swap1\n      tag_62\n      jump\t// in\n    tag_61:\n      mload(0x40)\n      dup1\n      swap2\n      sub\n      swap1\n      return\n        /* \"Arevea-NFT-Market/NFT-Contracts/contracts/finalMarket_single.sol\":8223:9358  function nftFixedSale(... */\n    tag_11:\n      callvalue\n      dup1\n      iszero\n      tag_63\n      jumpi\n      0x00\n      dup1\n      revert\n    tag_63:\n      pop\n      tag_64\n      0x04\n      dup1\n      calldatasize\n      sub\n      dup2\n      add\n      swap1\n      tag_65\n      swap2\n      swap1\n      tag_66\n      jump\t// in\n    tag_65:\n      tag_67\n      jump\t// in\n    tag_64:\n      stop\n        /* \"Arevea-NFT-Market/NFT-Contracts/contracts/finalMarket_single.sol\":18029:18253  function getNftAuctionSaleDetails(... */\n    tag_12:\n      callvalue\n      dup1\n      iszero\n      tag_68\n      jumpi\n      0x00\n      dup1\n      revert\n    tag_68:\n      pop\n      tag_69\n      0x04\n      dup1\n      calldatasize\n      sub\n      dup2\n      add\n      swap1\n      tag_70\n      swap2\n      swap1\n      tag_51\n      jump\t// in\n    tag_70:\n      tag_71\n      jump\t// in\n    tag_69:\n      mload(0x40)\n      tag_72\n      swap2\n      swap1\n      tag_73\n      jump\t// in\n    tag_72:\n      mload(0x40)\n      dup1\n      swap2\n      sub\n      swap1\n      return\n        /* \"Arevea-NFT-Market/NFT-Contracts/contracts/finalMarket_single.sol\":1134:1235  mapping(address => mapping(uint256 => mapping(address => uint256)))... */\n    tag_13:\n      callvalue\n      dup1\n      iszero\n      tag_74\n      jumpi\n      0x00\n      dup1\n      revert\n    tag_74:\n      pop\n      tag_75\n      0x04\n      dup1\n      calldatasize\n      sub\n      dup2\n      add\n      swap1\n      tag_76\n      swap2\n      swap1\n      tag_77\n      jump\t// in\n    tag_76:\n      tag_78\n      jump\t// in\n    tag_75:\n      mload(0x40)\n      tag_79\n      swap2\n      swap1\n      tag_62\n      jump\t// in\n    tag_79:\n      mload(0x40)\n      dup1\n      swap2\n      sub\n      swap1\n      return\n        /* \"Arevea-NFT-Market/NFT-Contracts/contracts/finalMarket_single.sol\":15498:16239  function _cancelAuctionSale(address _nftContractAddress, uint256 _tokenId)... */\n    tag_14:\n      callvalue\n      dup1\n      iszero\n      tag_80\n      jumpi\n      0x00\n      dup1\n      revert\n    tag_80:\n      pop\n      tag_81\n      0x04\n      dup1\n      calldatasize\n      sub\n      dup2\n      add\n      swap1\n      tag_82\n      swap2\n      swap1\n      tag_51\n      jump\t// in\n    tag_82:\n      tag_83\n      jump\t// in\n    tag_81:\n      stop\n        /* \"Arevea-NFT-Market/NFT-Contracts/contracts/finalMarket_single.sol\":18495:18714  function getFixedSale(address _nftContractAddress, uint256 _tokenId)... */\n    tag_15:\n      callvalue\n      dup1\n      iszero\n      tag_84\n      jumpi\n      0x00\n      dup1\n      revert\n    tag_84:\n      pop\n      tag_85\n      0x04\n      dup1\n      calldatasize\n      sub\n      dup2\n      add\n      swap1\n      tag_86\n      swap2\n      swap1\n      tag_51\n      jump\t// in\n    tag_86:\n      tag_87\n      jump\t// in\n    tag_85:\n      mload(0x40)\n      tag_88\n      swap2\n      swap1\n      tag_89\n      jump\t// in\n    tag_88:\n      mload(0x40)\n      dup1\n      swap2\n      sub\n      swap1\n      return\n        /* \"Arevea-NFT-Market/NFT-Contracts/contracts/finalMarket_single.sol\":18380:18487  function getFixedSaleNFT() external view returns (SaleInfo[] memory) {... */\n    tag_16:\n      callvalue\n      dup1\n      iszero\n      tag_90\n      jumpi\n      0x00\n      dup1\n      revert\n    tag_90:\n      pop\n      tag_91\n      tag_92\n      jump\t// in\n    tag_91:\n      mload(0x40)\n      tag_93\n      swap2\n      swap1\n      tag_40\n      jump\t// in\n    tag_93:\n      mload(0x40)\n      dup1\n      swap2\n      sub\n      swap1\n      return\n        /* \"Arevea-NFT-Market/NFT-Contracts/contracts/finalMarket_single.sol\":10546:11685  function buyFromFixedSale(... */\n    tag_17:\n      tag_94\n      0x04\n      dup1\n      calldatasize\n      sub\n      dup2\n      add\n      swap1\n      tag_95\n      swap2\n      swap1\n      tag_34\n      jump\t// in\n    tag_95:\n      tag_96\n      jump\t// in\n    tag_94:\n      stop\n        /* \"Arevea-NFT-Market/NFT-Contracts/contracts/finalMarket_single.sol\":11720:12783  function createNftAuctionSale(... */\n    tag_18:\n      callvalue\n      dup1\n      iszero\n      tag_97\n      jumpi\n      0x00\n      dup1\n      revert\n    tag_97:\n      pop\n      tag_98\n      0x04\n      dup1\n      calldatasize\n      sub\n      dup2\n      add\n      swap1\n      tag_99\n      swap2\n      swap1\n      tag_100\n      jump\t// in\n    tag_99:\n      tag_101\n      jump\t// in\n    tag_98:\n      stop\n        /* \"Arevea-NFT-Market/NFT-Contracts/contracts/finalMarket_single.sol\":9366:9952  function cancelFixedsale(address _nftContractAddress, uint256 _tokenId)... */\n    tag_19:\n      callvalue\n      dup1\n      iszero\n      tag_102\n      jumpi\n      0x00\n      dup1\n      revert\n    tag_102:\n      pop\n      tag_103\n      0x04\n      dup1\n      calldatasize\n      sub\n      dup2\n      add\n      swap1\n      tag_104\n      swap2\n      swap1\n      tag_51\n      jump\t// in\n    tag_104:\n      tag_105\n      jump\t// in\n    tag_103:\n      stop\n        /* \"Arevea-NFT-Market/NFT-Contracts/contracts/finalMarket_single.sol\":18722:18937  function onERC721Received(... */\n    tag_29:\n        /* \"Arevea-NFT-Market/NFT-Contracts/contracts/finalMarket_single.sol\":18862:18868  bytes4 */\n      0x00\n        /* \"Arevea-NFT-Market/NFT-Contracts/contracts/finalMarket_single.sol\":18888:18929  IERC721Receiver.onERC721Received.selector */\n      shl(0xe0, 0x150b7a02)\n        /* \"Arevea-NFT-Market/NFT-Contracts/contracts/finalMarket_single.sol\":18881:18929  return IERC721Receiver.onERC721Received.selector */\n      swap1\n      pop\n        /* \"Arevea-NFT-Market/NFT-Contracts/contracts/finalMarket_single.sol\":18722:18937  function onERC721Received(... */\n      swap6\n      swap5\n      pop\n      pop\n      pop\n      pop\n      pop\n      jump\t// out\n        /* \"Arevea-NFT-Market/NFT-Contracts/contracts/finalMarket_single.sol\":12791:13966  function makeBid(... */\n    tag_35:\n        /* \"Arevea-NFT-Market/NFT-Contracts/contracts/finalMarket_single.sol\":12971:12990  _nftContractAddress */\n      dup3\n        /* \"Arevea-NFT-Market/NFT-Contracts/contracts/finalMarket_single.sol\":12992:13000  _tokenId */\n      dup3\n        /* \"Arevea-NFT-Market/NFT-Contracts/contracts/finalMarket_single.sol\":3898:3899  2 */\n      0x02\n        /* \"Arevea-NFT-Market/NFT-Contracts/contracts/finalMarket_single.sol\":3850:3863  nftSaleStatus */\n      dup1\n        /* \"Arevea-NFT-Market/NFT-Contracts/contracts/finalMarket_single.sol\":3850:3884  nftSaleStatus[_nftContractAddress] */\n      0x00\n        /* \"Arevea-NFT-Market/NFT-Contracts/contracts/finalMarket_single.sol\":3864:3883  _nftContractAddress */\n      dup5\n        /* \"Arevea-NFT-Market/NFT-Contracts/contracts/finalMarket_single.sol\":3850:3884  nftSaleStatus[_nftContractAddress] */\n      0xffffffffffffffffffffffffffffffffffffffff\n      and\n      0xffffffffffffffffffffffffffffffffffffffff\n      and\n      dup2\n      mstore\n      0x20\n      add\n      swap1\n      dup2\n      mstore\n      0x20\n      add\n      0x00\n      keccak256\n        /* \"Arevea-NFT-Market/NFT-Contracts/contracts/finalMarket_single.sol\":3850:3894  nftSaleStatus[_nftContractAddress][_tokenId] */\n      0x00\n        /* \"Arevea-NFT-Market/NFT-Contracts/contracts/finalMarket_single.sol\":3885:3893  _tokenId */\n      dup4\n        /* \"Arevea-NFT-Market/NFT-Contracts/contracts/finalMarket_single.sol\":3850:3894  nftSaleStatus[_nftContractAddress][_tokenId] */\n      dup2\n      mstore\n      0x20\n      add\n      swap1\n      dup2\n      mstore\n      0x20\n      add\n      0x00\n      keccak256\n      sload\n        /* \"Arevea-NFT-Market/NFT-Contracts/contracts/finalMarket_single.sol\":3850:3899  nftSaleStatus[_nftContractAddress][_tokenId] == 2 */\n      eq\n        /* \"Arevea-NFT-Market/NFT-Contracts/contracts/finalMarket_single.sol\":3828:3950  require(... */\n      tag_108\n      jumpi\n      mload(0x40)\n      0x08c379a000000000000000000000000000000000000000000000000000000000\n      dup2\n      mstore\n      0x04\n      add\n      tag_109\n      swap1\n      tag_110\n      jump\t// in\n    tag_109:\n      mload(0x40)\n      dup1\n      swap2\n      sub\n      swap1\n      revert\n    tag_108:\n        /* \"Arevea-NFT-Market/NFT-Contracts/contracts/finalMarket_single.sol\":13028:13047  _nftContractAddress */\n      dup5\n        /* \"Arevea-NFT-Market/NFT-Contracts/contracts/finalMarket_single.sol\":13049:13057  _tokenId */\n      dup5\n        /* \"Arevea-NFT-Market/NFT-Contracts/contracts/finalMarket_single.sol\":6067:6089  nftContractAuctionSale */\n      0x01\n        /* \"Arevea-NFT-Market/NFT-Contracts/contracts/finalMarket_single.sol\":6067:6110  nftContractAuctionSale[_nftContractAddress] */\n      0x00\n        /* \"Arevea-NFT-Market/NFT-Contracts/contracts/finalMarket_single.sol\":6090:6109  _nftContractAddress */\n      dup4\n        /* \"Arevea-NFT-Market/NFT-Contracts/contracts/finalMarket_single.sol\":6067:6110  nftContractAuctionSale[_nftContractAddress] */\n      0xffffffffffffffffffffffffffffffffffffffff\n      and\n      0xffffffffffffffffffffffffffffffffffffffff\n      and\n      dup2\n      mstore\n      0x20\n      add\n      swap1\n      dup2\n      mstore\n      0x20\n      add\n      0x00\n      keccak256\n        /* \"Arevea-NFT-Market/NFT-Contracts/contracts/finalMarket_single.sol\":6067:6120  nftContractAuctionSale[_nftContractAddress][_tokenId] */\n      0x00\n        /* \"Arevea-NFT-Market/NFT-Contracts/contracts/finalMarket_single.sol\":6111:6119  _tokenId */\n      dup3\n        /* \"Arevea-NFT-Market/NFT-Contracts/contracts/finalMarket_single.sol\":6067:6120  nftContractAuctionSale[_nftContractAddress][_tokenId] */\n      dup2\n      mstore\n      0x20\n      add\n      swap1\n      dup2\n      mstore\n      0x20\n      add\n      0x00\n      keccak256\n        /* \"Arevea-NFT-Market/NFT-Contracts/contracts/finalMarket_single.sol\":6067:6153  nftContractAuctionSale[_nftContractAddress][_tokenId]... */\n      0x01\n      add\n      sload\n        /* \"Arevea-NFT-Market/NFT-Contracts/contracts/finalMarket_single.sol\":6032:6047  block.timestamp */\n      timestamp\n        /* \"Arevea-NFT-Market/NFT-Contracts/contracts/finalMarket_single.sol\":6032:6153  block.timestamp <... */\n      lt\n        /* \"Arevea-NFT-Market/NFT-Contracts/contracts/finalMarket_single.sol\":6010:6192  require(... */\n      tag_112\n      jumpi\n      mload(0x40)\n      0x08c379a000000000000000000000000000000000000000000000000000000000\n      dup2\n      mstore\n      0x04\n      add\n      tag_113\n      swap1\n      tag_114\n      jump\t// in\n    tag_113:\n      mload(0x40)\n      dup1\n      swap2\n      sub\n      swap1\n      revert\n    tag_112:\n        /* \"Arevea-NFT-Market/NFT-Contracts/contracts/finalMarket_single.sol\":13089:13098  _bidPrice */\n      dup5\n        /* \"Arevea-NFT-Market/NFT-Contracts/contracts/finalMarket_single.sol\":8147:8148  0 */\n      0x00\n        /* \"Arevea-NFT-Market/NFT-Contracts/contracts/finalMarket_single.sol\":8138:8144  _price */\n      dup2\n        /* \"Arevea-NFT-Market/NFT-Contracts/contracts/finalMarket_single.sol\":8138:8148  _price > 0 */\n      gt\n        /* \"Arevea-NFT-Market/NFT-Contracts/contracts/finalMarket_single.sol\":8130:8170  require(_price > 0, \"Price cannot be 0\") */\n      tag_116\n      jumpi\n      mload(0x40)\n      0x08c379a000000000000000000000000000000000000000000000000000000000\n      dup2\n      mstore\n      0x04\n      add\n      tag_117\n      swap1\n      tag_118\n      jump\t// in\n    tag_117:\n      mload(0x40)\n      dup1\n      swap2\n      sub\n      swap1\n      revert\n    tag_116:\n        /* \"Arevea-NFT-Market/NFT-Contracts/contracts/finalMarket_single.sol\":13153:13172  _nftContractAddress */\n      dup8\n        /* \"Arevea-NFT-Market/NFT-Contracts/contracts/finalMarket_single.sol\":13187:13195  _tokenId */\n      dup8\n        /* \"Arevea-NFT-Market/NFT-Contracts/contracts/finalMarket_single.sol\":13210:13219  msg.value */\n      callvalue\n        /* \"Arevea-NFT-Market/NFT-Contracts/contracts/finalMarket_single.sol\":13234:13243  _bidPrice */\n      dup9\n        /* \"Arevea-NFT-Market/NFT-Contracts/contracts/finalMarket_single.sol\":5388:5389  0 */\n      0x00\n        /* \"Arevea-NFT-Market/NFT-Contracts/contracts/finalMarket_single.sol\":5304:5390  nftContractAuctionSale[_nftContractAddress][_tokenId].erc20 ==... */\n      0xffffffffffffffffffffffffffffffffffffffff\n      and\n        /* \"Arevea-NFT-Market/NFT-Contracts/contracts/finalMarket_single.sol\":5304:5326  nftContractAuctionSale */\n      0x01\n        /* \"Arevea-NFT-Market/NFT-Contracts/contracts/finalMarket_single.sol\":5304:5347  nftContractAuctionSale[_nftContractAddress] */\n      0x00\n        /* \"Arevea-NFT-Market/NFT-Contracts/contracts/finalMarket_single.sol\":5327:5346  _nftContractAddress */\n      dup7\n        /* \"Arevea-NFT-Market/NFT-Contracts/contracts/finalMarket_single.sol\":5304:5347  nftContractAuctionSale[_nftContractAddress] */\n      0xffffffffffffffffffffffffffffffffffffffff\n      and\n      0xffffffffffffffffffffffffffffffffffffffff\n      and\n      dup2\n      mstore\n      0x20\n      add\n      swap1\n      dup2\n      mstore\n      0x20\n      add\n      0x00\n      keccak256\n        /* \"Arevea-NFT-Market/NFT-Contracts/contracts/finalMarket_single.sol\":5304:5357  nftContractAuctionSale[_nftContractAddress][_tokenId] */\n      0x00\n        /* \"Arevea-NFT-Market/NFT-Contracts/contracts/finalMarket_single.sol\":5348:5356  _tokenId */\n      dup6\n        /* \"Arevea-NFT-Market/NFT-Contracts/contracts/finalMarket_single.sol\":5304:5357  nftContractAuctionSale[_nftContractAddress][_tokenId] */\n      dup2\n      mstore\n      0x20\n      add\n      swap1\n      dup2\n      mstore\n      0x20\n      add\n      0x00\n      keccak256\n        /* \"Arevea-NFT-Market/NFT-Contracts/contracts/finalMarket_single.sol\":5304:5363  nftContractAuctionSale[_nftContractAddress][_tokenId].erc20 */\n      0x06\n      add\n      0x00\n      swap1\n      sload\n      swap1\n      0x0100\n      exp\n      swap1\n      div\n      0xffffffffffffffffffffffffffffffffffffffff\n      and\n        /* \"Arevea-NFT-Market/NFT-Contracts/contracts/finalMarket_single.sol\":5304:5390  nftContractAuctionSale[_nftContractAddress][_tokenId].erc20 ==... */\n      0xffffffffffffffffffffffffffffffffffffffff\n      and\n      sub\n        /* \"Arevea-NFT-Market/NFT-Contracts/contracts/finalMarket_single.sol\":5286:5897  if (... */\n      tag_120\n      jumpi\n        /* \"Arevea-NFT-Market/NFT-Contracts/contracts/finalMarket_single.sol\":5476:5498  nftContractAuctionSale */\n      0x01\n        /* \"Arevea-NFT-Market/NFT-Contracts/contracts/finalMarket_single.sol\":5476:5519  nftContractAuctionSale[_nftContractAddress] */\n      0x00\n        /* \"Arevea-NFT-Market/NFT-Contracts/contracts/finalMarket_single.sol\":5499:5518  _nftContractAddress */\n      dup6\n        /* \"Arevea-NFT-Market/NFT-Contracts/contracts/finalMarket_single.sol\":5476:5519  nftContractAuctionSale[_nftContractAddress] */\n      0xffffffffffffffffffffffffffffffffffffffff\n      and\n      0xffffffffffffffffffffffffffffffffffffffff\n      and\n      dup2\n      mstore\n      0x20\n      add\n      swap1\n      dup2\n      mstore\n      0x20\n      add\n      0x00\n      keccak256\n        /* \"Arevea-NFT-Market/NFT-Contracts/contracts/finalMarket_single.sol\":5476:5529  nftContractAuctionSale[_nftContractAddress][_tokenId] */\n      0x00\n        /* \"Arevea-NFT-Market/NFT-Contracts/contracts/finalMarket_single.sol\":5520:5528  _tokenId */\n      dup5\n        /* \"Arevea-NFT-Market/NFT-Contracts/contracts/finalMarket_single.sol\":5476:5529  nftContractAuctionSale[_nftContractAddress][_tokenId] */\n      dup2\n      mstore\n      0x20\n      add\n      swap1\n      dup2\n      mstore\n      0x20\n      add\n      0x00\n      keccak256\n        /* \"Arevea-NFT-Market/NFT-Contracts/contracts/finalMarket_single.sol\":5476:5569  nftContractAuctionSale[_nftContractAddress][_tokenId]... */\n      0x03\n      add\n      sload\n        /* \"Arevea-NFT-Market/NFT-Contracts/contracts/finalMarket_single.sol\":5443:5452  _bidPrice */\n      dup3\n        /* \"Arevea-NFT-Market/NFT-Contracts/contracts/finalMarket_single.sol\":5443:5569  _bidPrice >... */\n      gt\n        /* \"Arevea-NFT-Market/NFT-Contracts/contracts/finalMarket_single.sol\":5417:5634  require(... */\n      tag_121\n      jumpi\n      mload(0x40)\n      0x08c379a000000000000000000000000000000000000000000000000000000000\n      dup2\n      mstore\n      0x04\n      add\n      tag_122\n      swap1\n      tag_123\n      jump\t// in\n    tag_122:\n      mload(0x40)\n      dup1\n      swap2\n      sub\n      swap1\n      revert\n    tag_121:\n        /* \"Arevea-NFT-Market/NFT-Contracts/contracts/finalMarket_single.sol\":5286:5897  if (... */\n      jump(tag_124)\n    tag_120:\n        /* \"Arevea-NFT-Market/NFT-Contracts/contracts/finalMarket_single.sol\":5727:5749  nftContractAuctionSale */\n      0x01\n        /* \"Arevea-NFT-Market/NFT-Contracts/contracts/finalMarket_single.sol\":5727:5770  nftContractAuctionSale[_nftContractAddress] */\n      0x00\n        /* \"Arevea-NFT-Market/NFT-Contracts/contracts/finalMarket_single.sol\":5750:5769  _nftContractAddress */\n      dup6\n        /* \"Arevea-NFT-Market/NFT-Contracts/contracts/finalMarket_single.sol\":5727:5770  nftContractAuctionSale[_nftContractAddress] */\n      0xffffffffffffffffffffffffffffffffffffffff\n      and\n      0xffffffffffffffffffffffffffffffffffffffff\n      and\n      dup2\n      mstore\n      0x20\n      add\n      swap1\n      dup2\n      mstore\n      0x20\n      add\n      0x00\n      keccak256\n        /* \"Arevea-NFT-Market/NFT-Contracts/contracts/finalMarket_single.sol\":5727:5780  nftContractAuctionSale[_nftContractAddress][_tokenId] */\n      0x00\n        /* \"Arevea-NFT-Market/NFT-Contracts/contracts/finalMarket_single.sol\":5771:5779  _tokenId */\n      dup5\n        /* \"Arevea-NFT-Market/NFT-Contracts/contracts/finalMarket_single.sol\":5727:5780  nftContractAuctionSale[_nftContractAddress][_tokenId] */\n      dup2\n      mstore\n      0x20\n      add\n      swap1\n      dup2\n      mstore\n      0x20\n      add\n      0x00\n      keccak256\n        /* \"Arevea-NFT-Market/NFT-Contracts/contracts/finalMarket_single.sol\":5727:5820  nftContractAuctionSale[_nftContractAddress][_tokenId]... */\n      0x03\n      add\n      sload\n        /* \"Arevea-NFT-Market/NFT-Contracts/contracts/finalMarket_single.sol\":5693:5703  _bidPrice1 */\n      dup2\n        /* \"Arevea-NFT-Market/NFT-Contracts/contracts/finalMarket_single.sol\":5693:5820  _bidPrice1 >... */\n      gt\n        /* \"Arevea-NFT-Market/NFT-Contracts/contracts/finalMarket_single.sol\":5667:5885  require(... */\n      tag_125\n      jumpi\n      mload(0x40)\n      0x08c379a000000000000000000000000000000000000000000000000000000000\n      dup2\n      mstore\n      0x04\n      add\n      tag_126\n      swap1\n      tag_123\n      jump\t// in\n    tag_126:\n      mload(0x40)\n      dup1\n      swap2\n      sub\n      swap1\n      revert\n    tag_125:\n        /* \"Arevea-NFT-Market/NFT-Contracts/contracts/finalMarket_single.sol\":5286:5897  if (... */\n    tag_124:\n        /* \"Arevea-NFT-Market/NFT-Contracts/contracts/finalMarket_single.sol\":13373:13374  0 */\n      0x00\n        /* \"Arevea-NFT-Market/NFT-Contracts/contracts/finalMarket_single.sol\":13289:13375  nftContractAuctionSale[_nftContractAddress][_tokenId].erc20 !=... */\n      0xffffffffffffffffffffffffffffffffffffffff\n      and\n        /* \"Arevea-NFT-Market/NFT-Contracts/contracts/finalMarket_single.sol\":13289:13311  nftContractAuctionSale */\n      0x01\n        /* \"Arevea-NFT-Market/NFT-Contracts/contracts/finalMarket_single.sol\":13289:13332  nftContractAuctionSale[_nftContractAddress] */\n      0x00\n        /* \"Arevea-NFT-Market/NFT-Contracts/contracts/finalMarket_single.sol\":13312:13331  _nftContractAddress */\n      dup15\n        /* \"Arevea-NFT-Market/NFT-Contracts/contracts/finalMarket_single.sol\":13289:13332  nftContractAuctionSale[_nftContractAddress] */\n      0xffffffffffffffffffffffffffffffffffffffff\n      and\n      0xffffffffffffffffffffffffffffffffffffffff\n      and\n      dup2\n      mstore\n      0x20\n      add\n      swap1\n      dup2\n      mstore\n      0x20\n      add\n      0x00\n      keccak256\n        /* \"Arevea-NFT-Market/NFT-Contracts/contracts/finalMarket_single.sol\":13289:13342  nftContractAuctionSale[_nftContractAddress][_tokenId] */\n      0x00\n        /* \"Arevea-NFT-Market/NFT-Contracts/contracts/finalMarket_single.sol\":13333:13341  _tokenId */\n      dup14\n        /* \"Arevea-NFT-Market/NFT-Contracts/contracts/finalMarket_single.sol\":13289:13342  nftContractAuctionSale[_nftContractAddress][_tokenId] */\n      dup2\n      mstore\n      0x20\n      add\n      swap1\n      dup2\n      mstore\n      0x20\n      add\n      0x00\n      keccak256\n        /* \"Arevea-NFT-Market/NFT-Contracts/contracts/finalMarket_single.sol\":13289:13348  nftContractAuctionSale[_nftContractAddress][_tokenId].erc20 */\n      0x06\n      add\n      0x00\n      swap1\n      sload\n      swap1\n      0x0100\n      exp\n      swap1\n      div\n      0xffffffffffffffffffffffffffffffffffffffff\n      and\n        /* \"Arevea-NFT-Market/NFT-Contracts/contracts/finalMarket_single.sol\":13289:13375  nftContractAuctionSale[_nftContractAddress][_tokenId].erc20 !=... */\n      0xffffffffffffffffffffffffffffffffffffffff\n      and\n      eq\n        /* \"Arevea-NFT-Market/NFT-Contracts/contracts/finalMarket_single.sol\":13271:13553  if (... */\n      tag_128\n      jumpi\n        /* \"Arevea-NFT-Market/NFT-Contracts/contracts/finalMarket_single.sol\":13402:13541  _bidAmountTransfer(... */\n      tag_129\n        /* \"Arevea-NFT-Market/NFT-Contracts/contracts/finalMarket_single.sol\":13439:13448  _bidPrice */\n      dup11\n        /* \"Arevea-NFT-Market/NFT-Contracts/contracts/finalMarket_single.sol\":13467:13489  nftContractAuctionSale */\n      0x01\n        /* \"Arevea-NFT-Market/NFT-Contracts/contracts/finalMarket_single.sol\":13467:13510  nftContractAuctionSale[_nftContractAddress] */\n      0x00\n        /* \"Arevea-NFT-Market/NFT-Contracts/contracts/finalMarket_single.sol\":13490:13509  _nftContractAddress */\n      dup16\n        /* \"Arevea-NFT-Market/NFT-Contracts/contracts/finalMarket_single.sol\":13467:13510  nftContractAuctionSale[_nftContractAddress] */\n      0xffffffffffffffffffffffffffffffffffffffff\n      and\n      0xffffffffffffffffffffffffffffffffffffffff\n      and\n      dup2\n      mstore\n      0x20\n      add\n      swap1\n      dup2\n      mstore\n      0x20\n      add\n      0x00\n      keccak256\n        /* \"Arevea-NFT-Market/NFT-Contracts/contracts/finalMarket_single.sol\":13467:13520  nftContractAuctionSale[_nftContractAddress][_tokenId] */\n      0x00\n        /* \"Arevea-NFT-Market/NFT-Contracts/contracts/finalMarket_single.sol\":13511:13519  _tokenId */\n      dup15\n        /* \"Arevea-NFT-Market/NFT-Contracts/contracts/finalMarket_single.sol\":13467:13520  nftContractAuctionSale[_nftContractAddress][_tokenId] */\n      dup2\n      mstore\n      0x20\n      add\n      swap1\n      dup2\n      mstore\n      0x20\n      add\n      0x00\n      keccak256\n        /* \"Arevea-NFT-Market/NFT-Contracts/contracts/finalMarket_single.sol\":13467:13526  nftContractAuctionSale[_nftContractAddress][_tokenId].erc20 */\n      0x06\n      add\n      0x00\n      swap1\n      sload\n      swap1\n      0x0100\n      exp\n      swap1\n      div\n      0xffffffffffffffffffffffffffffffffffffffff\n      and\n        /* \"Arevea-NFT-Market/NFT-Contracts/contracts/finalMarket_single.sol\":13402:13420  _bidAmountTransfer */\n      tag_130\n        /* \"Arevea-NFT-Market/NFT-Contracts/contracts/finalMarket_single.sol\":13402:13541  _bidAmountTransfer(... */\n      jump\t// in\n    tag_129:\n        /* \"Arevea-NFT-Market/NFT-Contracts/contracts/finalMarket_single.sol\":13271:13553  if (... */\n    tag_128:\n        /* \"Arevea-NFT-Market/NFT-Contracts/contracts/finalMarket_single.sol\":13649:13658  _bidPrice */\n      dup10\n        /* \"Arevea-NFT-Market/NFT-Contracts/contracts/finalMarket_single.sol\":13565:13587  nftContractAuctionSale */\n      0x01\n        /* \"Arevea-NFT-Market/NFT-Contracts/contracts/finalMarket_single.sol\":13565:13608  nftContractAuctionSale[_nftContractAddress] */\n      0x00\n        /* \"Arevea-NFT-Market/NFT-Contracts/contracts/finalMarket_single.sol\":13588:13607  _nftContractAddress */\n      dup15\n        /* \"Arevea-NFT-Market/NFT-Contracts/contracts/finalMarket_single.sol\":13565:13608  nftContractAuctionSale[_nftContractAddress] */\n      0xffffffffffffffffffffffffffffffffffffffff\n      and\n      0xffffffffffffffffffffffffffffffffffffffff\n      and\n      dup2\n      mstore\n      0x20\n      add\n      swap1\n      dup2\n      mstore\n      0x20\n      add\n      0x00\n      keccak256\n        /* \"Arevea-NFT-Market/NFT-Contracts/contracts/finalMarket_single.sol\":13565:13618  nftContractAuctionSale[_nftContractAddress][_tokenId] */\n      0x00\n        /* \"Arevea-NFT-Market/NFT-Contracts/contracts/finalMarket_single.sol\":13609:13617  _tokenId */\n      dup14\n        /* \"Arevea-NFT-Market/NFT-Contracts/contracts/finalMarket_single.sol\":13565:13618  nftContractAuctionSale[_nftContractAddress][_tokenId] */\n      dup2\n      mstore\n      0x20\n      add\n      swap1\n      dup2\n      mstore\n      0x20\n      add\n      0x00\n      keccak256\n        /* \"Arevea-NFT-Market/NFT-Contracts/contracts/finalMarket_single.sol\":13565:13646  nftContractAuctionSale[_nftContractAddress][_tokenId]... */\n      0x03\n      add\n        /* \"Arevea-NFT-Market/NFT-Contracts/contracts/finalMarket_single.sol\":13565:13658  nftContractAuctionSale[_nftContractAddress][_tokenId]... */\n      dup2\n      swap1\n      sstore\n      pop\n        /* \"Arevea-NFT-Market/NFT-Contracts/contracts/finalMarket_single.sol\":13756:13766  msg.sender */\n      caller\n        /* \"Arevea-NFT-Market/NFT-Contracts/contracts/finalMarket_single.sol\":13669:13691  nftContractAuctionSale */\n      0x01\n        /* \"Arevea-NFT-Market/NFT-Contracts/contracts/finalMarket_single.sol\":13669:13712  nftContractAuctionSale[_nftContractAddress] */\n      0x00\n        /* \"Arevea-NFT-Market/NFT-Contracts/contracts/finalMarket_single.sol\":13692:13711  _nftContractAddress */\n      dup15\n        /* \"Arevea-NFT-Market/NFT-Contracts/contracts/finalMarket_single.sol\":13669:13712  nftContractAuctionSale[_nftContractAddress] */\n      0xffffffffffffffffffffffffffffffffffffffff\n      and\n      0xffffffffffffffffffffffffffffffffffffffff\n      and\n      dup2\n      mstore\n      0x20\n      add\n      swap1\n      dup2\n      mstore\n      0x20\n      add\n      0x00\n      keccak256\n        /* \"Arevea-NFT-Market/NFT-Contracts/contracts/finalMarket_single.sol\":13669:13722  nftContractAuctionSale[_nftContractAddress][_tokenId] */\n      0x00\n        /* \"Arevea-NFT-Market/NFT-Contracts/contracts/finalMarket_single.sol\":13713:13721  _tokenId */\n      dup14\n        /* \"Arevea-NFT-Market/NFT-Contracts/contracts/finalMarket_single.sol\":13669:13722  nftContractAuctionSale[_nftContractAddress][_tokenId] */\n      dup2\n      mstore\n      0x20\n      add\n      swap1\n      dup2\n      mstore\n      0x20\n      add\n      0x00\n      keccak256\n        /* \"Arevea-NFT-Market/NFT-Contracts/contracts/finalMarket_single.sol\":13669:13753  nftContractAuctionSale[_nftContractAddress][_tokenId]... */\n      0x04\n      add\n      0x00\n        /* \"Arevea-NFT-Market/NFT-Contracts/contracts/finalMarket_single.sol\":13669:13766  nftContractAuctionSale[_nftContractAddress][_tokenId]... */\n      0x0100\n      exp\n      dup2\n      sload\n      dup2\n      0xffffffffffffffffffffffffffffffffffffffff\n      mul\n      not\n      and\n      swap1\n      dup4\n      0xffffffffffffffffffffffffffffffffffffffff\n      and\n      mul\n      or\n      swap1\n      sstore\n      pop\n        /* \"Arevea-NFT-Market/NFT-Contracts/contracts/finalMarket_single.sol\":13866:13875  _bidPrice */\n      dup10\n        /* \"Arevea-NFT-Market/NFT-Contracts/contracts/finalMarket_single.sol\":13779:13796  userBidPriceOnNFT */\n      0x03\n        /* \"Arevea-NFT-Market/NFT-Contracts/contracts/finalMarket_single.sol\":13779:13817  userBidPriceOnNFT[_nftContractAddress] */\n      0x00\n        /* \"Arevea-NFT-Market/NFT-Contracts/contracts/finalMarket_single.sol\":13797:13816  _nftContractAddress */\n      dup15\n        /* \"Arevea-NFT-Market/NFT-Contracts/contracts/finalMarket_single.sol\":13779:13817  userBidPriceOnNFT[_nftContractAddress] */\n      0xffffffffffffffffffffffffffffffffffffffff\n      and\n      0xffffffffffffffffffffffffffffffffffffffff\n      and\n      dup2\n      mstore\n      0x20\n      add\n      swap1\n      dup2\n      mstore\n      0x20\n      add\n      0x00\n      keccak256\n        /* \"Arevea-NFT-Market/NFT-Contracts/contracts/finalMarket_single.sol\":13779:13827  userBidPriceOnNFT[_nftContractAddress][_tokenId] */\n      0x00\n        /* \"Arevea-NFT-Market/NFT-Contracts/contracts/finalMarket_single.sol\":13818:13826  _tokenId */\n      dup14\n        /* \"Arevea-NFT-Market/NFT-Contracts/contracts/finalMarket_single.sol\":13779:13827  userBidPriceOnNFT[_nftContractAddress][_tokenId] */\n      dup2\n      mstore\n      0x20\n      add\n      swap1\n      dup2\n      mstore\n      0x20\n      add\n      0x00\n      keccak256\n        /* \"Arevea-NFT-Market/NFT-Contracts/contracts/finalMarket_single.sol\":13779:13863  userBidPriceOnNFT[_nftContractAddress][_tokenId][... */\n      0x00\n        /* \"Arevea-NFT-Market/NFT-Contracts/contracts/finalMarket_single.sol\":13842:13852  msg.sender */\n      caller\n        /* \"Arevea-NFT-Market/NFT-Contracts/contracts/finalMarket_single.sol\":13779:13863  userBidPriceOnNFT[_nftContractAddress][_tokenId][... */\n      0xffffffffffffffffffffffffffffffffffffffff\n      and\n      0xffffffffffffffffffffffffffffffffffffffff\n      and\n      dup2\n      mstore\n      0x20\n      add\n      swap1\n      dup2\n      mstore\n      0x20\n      add\n      0x00\n      keccak256\n        /* \"Arevea-NFT-Market/NFT-Contracts/contracts/finalMarket_single.sol\":13779:13875  userBidPriceOnNFT[_nftContractAddress][_tokenId][... */\n      dup2\n      swap1\n      sstore\n      pop\n        /* \"Arevea-NFT-Market/NFT-Contracts/contracts/finalMarket_single.sol\":13893:13958  NftBidPrice(_nftContractAddress, _tokenId, _bidPrice, msg.sender) */\n      0xd56cb6210c78740462007b728932c802bc41b205ed5c8a98ab95421eaf054b22\n        /* \"Arevea-NFT-Market/NFT-Contracts/contracts/finalMarket_single.sol\":13905:13924  _nftContractAddress */\n      dup13\n        /* \"Arevea-NFT-Market/NFT-Contracts/contracts/finalMarket_single.sol\":13926:13934  _tokenId */\n      dup13\n        /* \"Arevea-NFT-Market/NFT-Contracts/contracts/finalMarket_single.sol\":13936:13945  _bidPrice */\n      dup13\n        /* \"Arevea-NFT-Market/NFT-Contracts/contracts/finalMarket_single.sol\":13947:13957  msg.sender */\n      caller\n        /* \"Arevea-NFT-Market/NFT-Contracts/contracts/finalMarket_single.sol\":13893:13958  NftBidPrice(_nftContractAddress, _tokenId, _bidPrice, msg.sender) */\n      mload(0x40)\n      tag_131\n      swap5\n      swap4\n      swap3\n      swap2\n      swap1\n      tag_132\n      jump\t// in\n    tag_131:\n      mload(0x40)\n      dup1\n      swap2\n      sub\n      swap1\n      log1\n        /* \"Arevea-NFT-Market/NFT-Contracts/contracts/finalMarket_single.sol\":8181:8182  _ */\n      pop\n      pop\n      pop\n      pop\n        /* \"Arevea-NFT-Market/NFT-Contracts/contracts/finalMarket_single.sol\":6203:6204  _ */\n      pop\n        /* \"Arevea-NFT-Market/NFT-Contracts/contracts/finalMarket_single.sol\":3961:3962  _ */\n      pop\n      pop\n        /* \"Arevea-NFT-Market/NFT-Contracts/contracts/finalMarket_single.sol\":12791:13966  function makeBid(... */\n      pop\n      pop\n      pop\n      pop\n      pop\n      jump\t// out\n        /* \"Arevea-NFT-Market/NFT-Contracts/contracts/finalMarket_single.sol\":18261:18372  function getAuctionSaleNFT() external view returns (SaleInfo[] memory) {... */\n    tag_38:\n        /* \"Arevea-NFT-Market/NFT-Contracts/contracts/finalMarket_single.sol\":18313:18330  SaleInfo[] memory */\n      0x60\n        /* \"Arevea-NFT-Market/NFT-Contracts/contracts/finalMarket_single.sol\":18350:18364  auctionSaleNFT */\n      0x07\n        /* \"Arevea-NFT-Market/NFT-Contracts/contracts/finalMarket_single.sol\":18343:18364  return auctionSaleNFT */\n      dup1\n      sload\n      dup1\n      0x20\n      mul\n      0x20\n      add\n      mload(0x40)\n      swap1\n      dup2\n      add\n      0x40\n      mstore\n      dup1\n      swap3\n      swap2\n      swap1\n      dup2\n      dup2\n      mstore\n      0x20\n      add\n      0x00\n      swap1\n    tag_134:\n      dup3\n      dup3\n      lt\n      iszero\n      tag_135\n      jumpi\n      dup4\n      dup3\n      swap1\n      0x00\n      mstore\n      keccak256(0x00, 0x20)\n      swap1\n      0x02\n      mul\n      add\n      mload(0x40)\n      dup1\n      0x40\n      add\n      0x40\n      mstore\n      swap1\n      dup2\n      0x00\n      dup3\n      add\n      0x00\n      swap1\n      sload\n      swap1\n      0x0100\n      exp\n      swap1\n      div\n      0xffffffffffffffffffffffffffffffffffffffff\n      and\n      0xffffffffffffffffffffffffffffffffffffffff\n      and\n      0xffffffffffffffffffffffffffffffffffffffff\n      and\n      dup2\n      mstore\n      0x20\n      add\n      0x01\n      dup3\n      add\n      sload\n      dup2\n      mstore\n      pop\n      pop\n      dup2\n      mstore\n      0x20\n      add\n      swap1\n      0x01\n      add\n      swap1\n      jump(tag_134)\n    tag_135:\n      pop\n      pop\n      pop\n      pop\n      swap1\n      pop\n        /* \"Arevea-NFT-Market/NFT-Contracts/contracts/finalMarket_single.sol\":18261:18372  function getAuctionSaleNFT() external view returns (SaleInfo[] memory) {... */\n      swap1\n      jump\t// out\n        /* \"Arevea-NFT-Market/NFT-Contracts/contracts/finalMarket_single.sol\":13974:15490  function updateTheBidPrice(... */\n    tag_43:\n        /* \"Arevea-NFT-Market/NFT-Contracts/contracts/finalMarket_single.sol\":14170:14189  _nftContractAddress */\n      dup3\n        /* \"Arevea-NFT-Market/NFT-Contracts/contracts/finalMarket_single.sol\":14191:14199  _tokenId */\n      dup3\n        /* \"Arevea-NFT-Market/NFT-Contracts/contracts/finalMarket_single.sol\":3898:3899  2 */\n      0x02\n        /* \"Arevea-NFT-Market/NFT-Contracts/contracts/finalMarket_single.sol\":3850:3863  nftSaleStatus */\n      dup1\n        /* \"Arevea-NFT-Market/NFT-Contracts/contracts/finalMarket_single.sol\":3850:3884  nftSaleStatus[_nftContractAddress] */\n      0x00\n        /* \"Arevea-NFT-Market/NFT-Contracts/contracts/finalMarket_single.sol\":3864:3883  _nftContractAddress */\n      dup5\n        /* \"Arevea-NFT-Market/NFT-Contracts/contracts/finalMarket_single.sol\":3850:3884  nftSaleStatus[_nftContractAddress] */\n      0xffffffffffffffffffffffffffffffffffffffff\n      and\n      0xffffffffffffffffffffffffffffffffffffffff\n      and\n      dup2\n      mstore\n      0x20\n      add\n      swap1\n      dup2\n      mstore\n      0x20\n      add\n      0x00\n      keccak256\n        /* \"Arevea-NFT-Market/NFT-Contracts/contracts/finalMarket_single.sol\":3850:3894  nftSaleStatus[_nftContractAddress][_tokenId] */\n      0x00\n        /* \"Arevea-NFT-Market/NFT-Contracts/contracts/finalMarket_single.sol\":3885:3893  _tokenId */\n      dup4\n        /* \"Arevea-NFT-Market/NFT-Contracts/contracts/finalMarket_single.sol\":3850:3894  nftSaleStatus[_nftContractAddress][_tokenId] */\n      dup2\n      mstore\n      0x20\n      add\n      swap1\n      dup2\n      mstore\n      0x20\n      add\n      0x00\n      keccak256\n      sload\n        /* \"Arevea-NFT-Market/NFT-Contracts/contracts/finalMarket_single.sol\":3850:3899  nftSaleStatus[_nftContractAddress][_tokenId] == 2 */\n      eq\n        /* \"Arevea-NFT-Market/NFT-Contracts/contracts/finalMarket_single.sol\":3828:3950  require(... */\n      tag_138\n      jumpi\n      mload(0x40)\n      0x08c379a000000000000000000000000000000000000000000000000000000000\n      dup2\n      mstore\n      0x04\n      add\n      tag_139\n      swap1\n      tag_110\n      jump\t// in\n    tag_139:\n      mload(0x40)\n      dup1\n      swap2\n      sub\n      swap1\n      revert\n    tag_138:\n        /* \"Arevea-NFT-Market/NFT-Contracts/contracts/finalMarket_single.sol\":14227:14246  _nftContractAddress */\n      dup5\n        /* \"Arevea-NFT-Market/NFT-Contracts/contracts/finalMarket_single.sol\":14248:14256  _tokenId */\n      dup5\n        /* \"Arevea-NFT-Market/NFT-Contracts/contracts/finalMarket_single.sol\":6067:6089  nftContractAuctionSale */\n      0x01\n        /* \"Arevea-NFT-Market/NFT-Contracts/contracts/finalMarket_single.sol\":6067:6110  nftContractAuctionSale[_nftContractAddress] */\n      0x00\n        /* \"Arevea-NFT-Market/NFT-Contracts/contracts/finalMarket_single.sol\":6090:6109  _nftContractAddress */\n      dup4\n        /* \"Arevea-NFT-Market/NFT-Contracts/contracts/finalMarket_single.sol\":6067:6110  nftContractAuctionSale[_nftContractAddress] */\n      0xffffffffffffffffffffffffffffffffffffffff\n      and\n      0xffffffffffffffffffffffffffffffffffffffff\n      and\n      dup2\n      mstore\n      0x20\n      add\n      swap1\n      dup2\n      mstore\n      0x20\n      add\n      0x00\n      keccak256\n        /* \"Arevea-NFT-Market/NFT-Contracts/contracts/finalMarket_single.sol\":6067:6120  nftContractAuctionSale[_nftContractAddress][_tokenId] */\n      0x00\n        /* \"Arevea-NFT-Market/NFT-Contracts/contracts/finalMarket_single.sol\":6111:6119  _tokenId */\n      dup3\n        /* \"Arevea-NFT-Market/NFT-Contracts/contracts/finalMarket_single.sol\":6067:6120  nftContractAuctionSale[_nftContractAddress][_tokenId] */\n      dup2\n      mstore\n      0x20\n      add\n      swap1\n      dup2\n      mstore\n      0x20\n      add\n      0x00\n      keccak256\n        /* \"Arevea-NFT-Market/NFT-Contracts/contracts/finalMarket_single.sol\":6067:6153  nftContractAuctionSale[_nftContractAddress][_tokenId]... */\n      0x01\n      add\n      sload\n        /* \"Arevea-NFT-Market/NFT-Contracts/contracts/finalMarket_single.sol\":6032:6047  block.timestamp */\n      timestamp\n        /* \"Arevea-NFT-Market/NFT-Contracts/contracts/finalMarket_single.sol\":6032:6153  block.timestamp <... */\n      lt\n        /* \"Arevea-NFT-Market/NFT-Contracts/contracts/finalMarket_single.sol\":6010:6192  require(... */\n      tag_141\n      jumpi\n      mload(0x40)\n      0x08c379a000000000000000000000000000000000000000000000000000000000\n      dup2\n      mstore\n      0x04\n      add\n      tag_142\n      swap1\n      tag_114\n      jump\t// in\n    tag_142:\n      mload(0x40)\n      dup1\n      swap2\n      sub\n      swap1\n      revert\n    tag_141:\n        /* \"Arevea-NFT-Market/NFT-Contracts/contracts/finalMarket_single.sol\":14288:14297  msg.value */\n      callvalue\n        /* \"Arevea-NFT-Market/NFT-Contracts/contracts/finalMarket_single.sol\":8147:8148  0 */\n      0x00\n        /* \"Arevea-NFT-Market/NFT-Contracts/contracts/finalMarket_single.sol\":8138:8144  _price */\n      dup2\n        /* \"Arevea-NFT-Market/NFT-Contracts/contracts/finalMarket_single.sol\":8138:8148  _price > 0 */\n      gt\n        /* \"Arevea-NFT-Market/NFT-Contracts/contracts/finalMarket_single.sol\":8130:8170  require(_price > 0, \"Price cannot be 0\") */\n      tag_144\n      jumpi\n      mload(0x40)\n      0x08c379a000000000000000000000000000000000000000000000000000000000\n      dup2\n      mstore\n      0x04\n      add\n      tag_145\n      swap1\n      tag_118\n      jump\t// in\n    tag_145:\n      mload(0x40)\n      dup1\n      swap2\n      sub\n      swap1\n      revert\n    tag_144:\n        /* \"Arevea-NFT-Market/NFT-Contracts/contracts/finalMarket_single.sol\":14353:14372  _nftContractAddress */\n      dup8\n        /* \"Arevea-NFT-Market/NFT-Contracts/contracts/finalMarket_single.sol\":14387:14395  _tokenId */\n      dup8\n        /* \"Arevea-NFT-Market/NFT-Contracts/contracts/finalMarket_single.sol\":14410:14419  msg.value */\n      callvalue\n        /* \"Arevea-NFT-Market/NFT-Contracts/contracts/finalMarket_single.sol\":14434:14449  _updateBidPrice */\n      dup9\n        /* \"Arevea-NFT-Market/NFT-Contracts/contracts/finalMarket_single.sol\":6711:6733  uint256 _finalBidPrice */\n      0x00\n        /* \"Arevea-NFT-Market/NFT-Contracts/contracts/finalMarket_single.sol\":6846:6847  0 */\n      dup1\n        /* \"Arevea-NFT-Market/NFT-Contracts/contracts/finalMarket_single.sol\":6762:6848  nftContractAuctionSale[_nftContractAddress][_tokenId].erc20 ==... */\n      0xffffffffffffffffffffffffffffffffffffffff\n      and\n        /* \"Arevea-NFT-Market/NFT-Contracts/contracts/finalMarket_single.sol\":6762:6784  nftContractAuctionSale */\n      0x01\n        /* \"Arevea-NFT-Market/NFT-Contracts/contracts/finalMarket_single.sol\":6762:6805  nftContractAuctionSale[_nftContractAddress] */\n      0x00\n        /* \"Arevea-NFT-Market/NFT-Contracts/contracts/finalMarket_single.sol\":6785:6804  _nftContractAddress */\n      dup8\n        /* \"Arevea-NFT-Market/NFT-Contracts/contracts/finalMarket_single.sol\":6762:6805  nftContractAuctionSale[_nftContractAddress] */\n      0xffffffffffffffffffffffffffffffffffffffff\n      and\n      0xffffffffffffffffffffffffffffffffffffffff\n      and\n      dup2\n      mstore\n      0x20\n      add\n      swap1\n      dup2\n      mstore\n      0x20\n      add\n      0x00\n      keccak256\n        /* \"Arevea-NFT-Market/NFT-Contracts/contracts/finalMarket_single.sol\":6762:6815  nftContractAuctionSale[_nftContractAddress][_tokenId] */\n      0x00\n        /* \"Arevea-NFT-Market/NFT-Contracts/contracts/finalMarket_single.sol\":6806:6814  _tokenId */\n      dup7\n        /* \"Arevea-NFT-Market/NFT-Contracts/contracts/finalMarket_single.sol\":6762:6815  nftContractAuctionSale[_nftContractAddress][_tokenId] */\n      dup2\n      mstore\n      0x20\n      add\n      swap1\n      dup2\n      mstore\n      0x20\n      add\n      0x00\n      keccak256\n        /* \"Arevea-NFT-Market/NFT-Contracts/contracts/finalMarket_single.sol\":6762:6821  nftContractAuctionSale[_nftContractAddress][_tokenId].erc20 */\n      0x06\n      add\n      0x00\n      swap1\n      sload\n      swap1\n      0x0100\n      exp\n      swap1\n      div\n      0xffffffffffffffffffffffffffffffffffffffff\n      and\n        /* \"Arevea-NFT-Market/NFT-Contracts/contracts/finalMarket_single.sol\":6762:6848  nftContractAuctionSale[_nftContractAddress][_tokenId].erc20 ==... */\n      0xffffffffffffffffffffffffffffffffffffffff\n      and\n      sub\n        /* \"Arevea-NFT-Market/NFT-Contracts/contracts/finalMarket_single.sol\":6744:7181  if (... */\n      tag_147\n      jumpi\n        /* \"Arevea-NFT-Market/NFT-Contracts/contracts/finalMarket_single.sol\":6892:7005  userBidPriceOnNFT[_nftContractAddress][_tokenId][... */\n      tag_148\n        /* \"Arevea-NFT-Market/NFT-Contracts/contracts/finalMarket_single.sol\":6989:7004  _updateBidPrice */\n      dup4\n        /* \"Arevea-NFT-Market/NFT-Contracts/contracts/finalMarket_single.sol\":6892:6909  userBidPriceOnNFT */\n      0x03\n        /* \"Arevea-NFT-Market/NFT-Contracts/contracts/finalMarket_single.sol\":6892:6930  userBidPriceOnNFT[_nftContractAddress] */\n      0x00\n        /* \"Arevea-NFT-Market/NFT-Contracts/contracts/finalMarket_single.sol\":6910:6929  _nftContractAddress */\n      dup9\n        /* \"Arevea-NFT-Market/NFT-Contracts/contracts/finalMarket_single.sol\":6892:6930  userBidPriceOnNFT[_nftContractAddress] */\n      0xffffffffffffffffffffffffffffffffffffffff\n      and\n      0xffffffffffffffffffffffffffffffffffffffff\n      and\n      dup2\n      mstore\n      0x20\n      add\n      swap1\n      dup2\n      mstore\n      0x20\n      add\n      0x00\n      keccak256\n        /* \"Arevea-NFT-Market/NFT-Contracts/contracts/finalMarket_single.sol\":6892:6940  userBidPriceOnNFT[_nftContractAddress][_tokenId] */\n      0x00\n        /* \"Arevea-NFT-Market/NFT-Contracts/contracts/finalMarket_single.sol\":6931:6939  _tokenId */\n      dup8\n        /* \"Arevea-NFT-Market/NFT-Contracts/contracts/finalMarket_single.sol\":6892:6940  userBidPriceOnNFT[_nftContractAddress][_tokenId] */\n      dup2\n      mstore\n      0x20\n      add\n      swap1\n      dup2\n      mstore\n      0x20\n      add\n      0x00\n      keccak256\n        /* \"Arevea-NFT-Market/NFT-Contracts/contracts/finalMarket_single.sol\":6892:6984  userBidPriceOnNFT[_nftContractAddress][_tokenId][... */\n      0x00\n        /* \"Arevea-NFT-Market/NFT-Contracts/contracts/finalMarket_single.sol\":6959:6969  msg.sender */\n      caller\n        /* \"Arevea-NFT-Market/NFT-Contracts/contracts/finalMarket_single.sol\":6892:6984  userBidPriceOnNFT[_nftContractAddress][_tokenId][... */\n      0xffffffffffffffffffffffffffffffffffffffff\n      and\n      0xffffffffffffffffffffffffffffffffffffffff\n      and\n      dup2\n      mstore\n      0x20\n      add\n      swap1\n      dup2\n      mstore\n      0x20\n      add\n      0x00\n      keccak256\n      sload\n        /* \"Arevea-NFT-Market/NFT-Contracts/contracts/finalMarket_single.sol\":6892:6988  userBidPriceOnNFT[_nftContractAddress][_tokenId][... */\n      tag_149\n      swap1\n        /* \"Arevea-NFT-Market/NFT-Contracts/contracts/finalMarket_single.sol\":6892:7005  userBidPriceOnNFT[_nftContractAddress][_tokenId][... */\n      swap2\n      swap1\n      0xffffffff\n      and\n      jump\t// in\n    tag_148:\n        /* \"Arevea-NFT-Market/NFT-Contracts/contracts/finalMarket_single.sol\":6875:7005  _finalBidPrice = userBidPriceOnNFT[_nftContractAddress][_tokenId][... */\n      swap1\n      pop\n        /* \"Arevea-NFT-Market/NFT-Contracts/contracts/finalMarket_single.sol\":6744:7181  if (... */\n      jump(tag_150)\n    tag_147:\n        /* \"Arevea-NFT-Market/NFT-Contracts/contracts/finalMarket_single.sol\":7055:7169  userBidPriceOnNFT[_nftContractAddress][_tokenId][... */\n      tag_151\n        /* \"Arevea-NFT-Market/NFT-Contracts/contracts/finalMarket_single.sol\":7152:7168  _updateBidPrice1 */\n      dup3\n        /* \"Arevea-NFT-Market/NFT-Contracts/contracts/finalMarket_single.sol\":7055:7072  userBidPriceOnNFT */\n      0x03\n        /* \"Arevea-NFT-Market/NFT-Contracts/contracts/finalMarket_single.sol\":7055:7093  userBidPriceOnNFT[_nftContractAddress] */\n      0x00\n        /* \"Arevea-NFT-Market/NFT-Contracts/contracts/finalMarket_single.sol\":7073:7092  _nftContractAddress */\n      dup9\n        /* \"Arevea-NFT-Market/NFT-Contracts/contracts/finalMarket_single.sol\":7055:7093  userBidPriceOnNFT[_nftContractAddress] */\n      0xffffffffffffffffffffffffffffffffffffffff\n      and\n      0xffffffffffffffffffffffffffffffffffffffff\n      and\n      dup2\n      mstore\n      0x20\n      add\n      swap1\n      dup2\n      mstore\n      0x20\n      add\n      0x00\n      keccak256\n        /* \"Arevea-NFT-Market/NFT-Contracts/contracts/finalMarket_single.sol\":7055:7103  userBidPriceOnNFT[_nftContractAddress][_tokenId] */\n      0x00\n        /* \"Arevea-NFT-Market/NFT-Contracts/contracts/finalMarket_single.sol\":7094:7102  _tokenId */\n      dup8\n        /* \"Arevea-NFT-Market/NFT-Contracts/contracts/finalMarket_single.sol\":7055:7103  userBidPriceOnNFT[_nftContractAddress][_tokenId] */\n      dup2\n      mstore\n      0x20\n      add\n      swap1\n      dup2\n      mstore\n      0x20\n      add\n      0x00\n      keccak256\n        /* \"Arevea-NFT-Market/NFT-Contracts/contracts/finalMarket_single.sol\":7055:7147  userBidPriceOnNFT[_nftContractAddress][_tokenId][... */\n      0x00\n        /* \"Arevea-NFT-Market/NFT-Contracts/contracts/finalMarket_single.sol\":7122:7132  msg.sender */\n      caller\n        /* \"Arevea-NFT-Market/NFT-Contracts/contracts/finalMarket_single.sol\":7055:7147  userBidPriceOnNFT[_nftContractAddress][_tokenId][... */\n      0xffffffffffffffffffffffffffffffffffffffff\n      and\n      0xffffffffffffffffffffffffffffffffffffffff\n      and\n      dup2\n      mstore\n      0x20\n      add\n      swap1\n      dup2\n      mstore\n      0x20\n      add\n      0x00\n      keccak256\n      sload\n        /* \"Arevea-NFT-Market/NFT-Contracts/contracts/finalMarket_single.sol\":7055:7151  userBidPriceOnNFT[_nftContractAddress][_tokenId][... */\n      tag_149\n      swap1\n        /* \"Arevea-NFT-Market/NFT-Contracts/contracts/finalMarket_single.sol\":7055:7169  userBidPriceOnNFT[_nftContractAddress][_tokenId][... */\n      swap2\n      swap1\n      0xffffffff\n      and\n      jump\t// in\n    tag_151:\n        /* \"Arevea-NFT-Market/NFT-Contracts/contracts/finalMarket_single.sol\":7038:7169  _finalBidPrice = userBidPriceOnNFT[_nftContractAddress][_tokenId][... */\n      swap1\n      pop\n        /* \"Arevea-NFT-Market/NFT-Contracts/contracts/finalMarket_single.sol\":6744:7181  if (... */\n    tag_150:\n        /* \"Arevea-NFT-Market/NFT-Contracts/contracts/finalMarket_single.sol\":7247:7269  nftContractAuctionSale */\n      0x01\n        /* \"Arevea-NFT-Market/NFT-Contracts/contracts/finalMarket_single.sol\":7247:7290  nftContractAuctionSale[_nftContractAddress] */\n      0x00\n        /* \"Arevea-NFT-Market/NFT-Contracts/contracts/finalMarket_single.sol\":7270:7289  _nftContractAddress */\n      dup7\n        /* \"Arevea-NFT-Market/NFT-Contracts/contracts/finalMarket_single.sol\":7247:7290  nftContractAuctionSale[_nftContractAddress] */\n      0xffffffffffffffffffffffffffffffffffffffff\n      and\n      0xffffffffffffffffffffffffffffffffffffffff\n      and\n      dup2\n      mstore\n      0x20\n      add\n      swap1\n      dup2\n      mstore\n      0x20\n      add\n      0x00\n      keccak256\n        /* \"Arevea-NFT-Market/NFT-Contracts/contracts/finalMarket_single.sol\":7247:7300  nftContractAuctionSale[_nftContractAddress][_tokenId] */\n      0x00\n        /* \"Arevea-NFT-Market/NFT-Contracts/contracts/finalMarket_single.sol\":7291:7299  _tokenId */\n      dup6\n        /* \"Arevea-NFT-Market/NFT-Contracts/contracts/finalMarket_single.sol\":7247:7300  nftContractAuctionSale[_nftContractAddress][_tokenId] */\n      dup2\n      mstore\n      0x20\n      add\n      swap1\n      dup2\n      mstore\n      0x20\n      add\n      0x00\n      keccak256\n        /* \"Arevea-NFT-Market/NFT-Contracts/contracts/finalMarket_single.sol\":7247:7336  nftContractAuctionSale[_nftContractAddress][_tokenId]... */\n      0x03\n      add\n      sload\n        /* \"Arevea-NFT-Market/NFT-Contracts/contracts/finalMarket_single.sol\":7213:7227  _finalBidPrice */\n      dup2\n        /* \"Arevea-NFT-Market/NFT-Contracts/contracts/finalMarket_single.sol\":7213:7336  _finalBidPrice >... */\n      gt\n        /* \"Arevea-NFT-Market/NFT-Contracts/contracts/finalMarket_single.sol\":7191:7393  require(... */\n      tag_152\n      jumpi\n      mload(0x40)\n      0x08c379a000000000000000000000000000000000000000000000000000000000\n      dup2\n      mstore\n      0x04\n      add\n      tag_153\n      swap1\n      tag_123\n      jump\t// in\n    tag_153:\n      mload(0x40)\n      dup1\n      swap2\n      sub\n      swap1\n      revert\n    tag_152:\n        /* \"Arevea-NFT-Market/NFT-Contracts/contracts/finalMarket_single.sol\":14477:14503  address nftContractAddress */\n      0x00\n        /* \"Arevea-NFT-Market/NFT-Contracts/contracts/finalMarket_single.sol\":14506:14525  _nftContractAddress */\n      dup14\n        /* \"Arevea-NFT-Market/NFT-Contracts/contracts/finalMarket_single.sol\":14477:14525  address nftContractAddress = _nftContractAddress */\n      swap1\n      pop\n        /* \"Arevea-NFT-Market/NFT-Contracts/contracts/finalMarket_single.sol\":14536:14551  uint256 tokenId */\n      0x00\n        /* \"Arevea-NFT-Market/NFT-Contracts/contracts/finalMarket_single.sol\":14554:14562  _tokenId */\n      dup14\n        /* \"Arevea-NFT-Market/NFT-Contracts/contracts/finalMarket_single.sol\":14536:14562  uint256 tokenId = _tokenId */\n      swap1\n      pop\n        /* \"Arevea-NFT-Market/NFT-Contracts/contracts/finalMarket_single.sol\":14573:14594  uint256 finalBidPrice */\n      0x00\n        /* \"Arevea-NFT-Market/NFT-Contracts/contracts/finalMarket_single.sol\":14597:14700  userBidPriceOnNFT[nftContractAddress][tokenId][... */\n      tag_155\n        /* \"Arevea-NFT-Market/NFT-Contracts/contracts/finalMarket_single.sol\":14684:14699  _updateBidPrice */\n      dup15\n        /* \"Arevea-NFT-Market/NFT-Contracts/contracts/finalMarket_single.sol\":14597:14614  userBidPriceOnNFT */\n      0x03\n        /* \"Arevea-NFT-Market/NFT-Contracts/contracts/finalMarket_single.sol\":14597:14634  userBidPriceOnNFT[nftContractAddress] */\n      0x00\n        /* \"Arevea-NFT-Market/NFT-Contracts/contracts/finalMarket_single.sol\":14615:14633  nftContractAddress */\n      dup7\n        /* \"Arevea-NFT-Market/NFT-Contracts/contracts/finalMarket_single.sol\":14597:14634  userBidPriceOnNFT[nftContractAddress] */\n      0xffffffffffffffffffffffffffffffffffffffff\n      and\n      0xffffffffffffffffffffffffffffffffffffffff\n      and\n      dup2\n      mstore\n      0x20\n      add\n      swap1\n      dup2\n      mstore\n      0x20\n      add\n      0x00\n      keccak256\n        /* \"Arevea-NFT-Market/NFT-Contracts/contracts/finalMarket_single.sol\":14597:14643  userBidPriceOnNFT[nftContractAddress][tokenId] */\n      0x00\n        /* \"Arevea-NFT-Market/NFT-Contracts/contracts/finalMarket_single.sol\":14635:14642  tokenId */\n      dup6\n        /* \"Arevea-NFT-Market/NFT-Contracts/contracts/finalMarket_single.sol\":14597:14643  userBidPriceOnNFT[nftContractAddress][tokenId] */\n      dup2\n      mstore\n      0x20\n      add\n      swap1\n      dup2\n      mstore\n      0x20\n      add\n      0x00\n      keccak256\n        /* \"Arevea-NFT-Market/NFT-Contracts/contracts/finalMarket_single.sol\":14597:14679  userBidPriceOnNFT[nftContractAddress][tokenId][... */\n      0x00\n        /* \"Arevea-NFT-Market/NFT-Contracts/contracts/finalMarket_single.sol\":14658:14668  msg.sender */\n      caller\n        /* \"Arevea-NFT-Market/NFT-Contracts/contracts/finalMarket_single.sol\":14597:14679  userBidPriceOnNFT[nftContractAddress][tokenId][... */\n      0xffffffffffffffffffffffffffffffffffffffff\n      and\n      0xffffffffffffffffffffffffffffffffffffffff\n      and\n      dup2\n      mstore\n      0x20\n      add\n      swap1\n      dup2\n      mstore\n      0x20\n      add\n      0x00\n      keccak256\n      sload\n        /* \"Arevea-NFT-Market/NFT-Contracts/contracts/finalMarket_single.sol\":14597:14683  userBidPriceOnNFT[nftContractAddress][tokenId][... */\n      tag_149\n      swap1\n        /* \"Arevea-NFT-Market/NFT-Contracts/contracts/finalMarket_single.sol\":14597:14700  userBidPriceOnNFT[nftContractAddress][tokenId][... */\n      swap2\n      swap1\n      0xffffffff\n      and\n      jump\t// in\n    tag_155:\n        /* \"Arevea-NFT-Market/NFT-Contracts/contracts/finalMarket_single.sol\":14573:14700  uint256 finalBidPrice = userBidPriceOnNFT[nftContractAddress][tokenId][... */\n      swap1\n      pop\n        /* \"Arevea-NFT-Market/NFT-Contracts/contracts/finalMarket_single.sol\":14813:14814  0 */\n      0x00\n        /* \"Arevea-NFT-Market/NFT-Contracts/contracts/finalMarket_single.sol\":14731:14815  nftContractAuctionSale[nftContractAddress][tokenId].erc20 !=... */\n      0xffffffffffffffffffffffffffffffffffffffff\n      and\n        /* \"Arevea-NFT-Market/NFT-Contracts/contracts/finalMarket_single.sol\":14731:14753  nftContractAuctionSale */\n      0x01\n        /* \"Arevea-NFT-Market/NFT-Contracts/contracts/finalMarket_single.sol\":14731:14773  nftContractAuctionSale[nftContractAddress] */\n      0x00\n        /* \"Arevea-NFT-Market/NFT-Contracts/contracts/finalMarket_single.sol\":14754:14772  nftContractAddress */\n      dup6\n        /* \"Arevea-NFT-Market/NFT-Contracts/contracts/finalMarket_single.sol\":14731:14773  nftContractAuctionSale[nftContractAddress] */\n      0xffffffffffffffffffffffffffffffffffffffff\n      and\n      0xffffffffffffffffffffffffffffffffffffffff\n      and\n      dup2\n      mstore\n      0x20\n      add\n      swap1\n      dup2\n      mstore\n      0x20\n      add\n      0x00\n      keccak256\n        /* \"Arevea-NFT-Market/NFT-Contracts/contracts/finalMarket_single.sol\":14731:14782  nftContractAuctionSale[nftContractAddress][tokenId] */\n      0x00\n        /* \"Arevea-NFT-Market/NFT-Contracts/contracts/finalMarket_single.sol\":14774:14781  tokenId */\n      dup5\n        /* \"Arevea-NFT-Market/NFT-Contracts/contracts/finalMarket_single.sol\":14731:14782  nftContractAuctionSale[nftContractAddress][tokenId] */\n      dup2\n      mstore\n      0x20\n      add\n      swap1\n      dup2\n      mstore\n      0x20\n      add\n      0x00\n      keccak256\n        /* \"Arevea-NFT-Market/NFT-Contracts/contracts/finalMarket_single.sol\":14731:14788  nftContractAuctionSale[nftContractAddress][tokenId].erc20 */\n      0x06\n      add\n      0x00\n      swap1\n      sload\n      swap1\n      0x0100\n      exp\n      swap1\n      div\n      0xffffffffffffffffffffffffffffffffffffffff\n      and\n        /* \"Arevea-NFT-Market/NFT-Contracts/contracts/finalMarket_single.sol\":14731:14815  nftContractAuctionSale[nftContractAddress][tokenId].erc20 !=... */\n      0xffffffffffffffffffffffffffffffffffffffff\n      and\n      eq\n        /* \"Arevea-NFT-Market/NFT-Contracts/contracts/finalMarket_single.sol\":14713:14997  if (... */\n      tag_156\n      jumpi\n        /* \"Arevea-NFT-Market/NFT-Contracts/contracts/finalMarket_single.sol\":14842:14985  _bidAmountTransfer(... */\n      tag_157\n        /* \"Arevea-NFT-Market/NFT-Contracts/contracts/finalMarket_single.sol\":14879:14894  _updateBidPrice */\n      dup15\n        /* \"Arevea-NFT-Market/NFT-Contracts/contracts/finalMarket_single.sol\":14913:14935  nftContractAuctionSale */\n      0x01\n        /* \"Arevea-NFT-Market/NFT-Contracts/contracts/finalMarket_single.sol\":14913:14955  nftContractAuctionSale[nftContractAddress] */\n      0x00\n        /* \"Arevea-NFT-Market/NFT-Contracts/contracts/finalMarket_single.sol\":14936:14954  nftContractAddress */\n      dup7\n        /* \"Arevea-NFT-Market/NFT-Contracts/contracts/finalMarket_single.sol\":14913:14955  nftContractAuctionSale[nftContractAddress] */\n      0xffffffffffffffffffffffffffffffffffffffff\n      and\n      0xffffffffffffffffffffffffffffffffffffffff\n      and\n      dup2\n      mstore\n      0x20\n      add\n      swap1\n      dup2\n      mstore\n      0x20\n      add\n      0x00\n      keccak256\n        /* \"Arevea-NFT-Market/NFT-Contracts/contracts/finalMarket_single.sol\":14913:14964  nftContractAuctionSale[nftContractAddress][tokenId] */\n      0x00\n        /* \"Arevea-NFT-Market/NFT-Contracts/contracts/finalMarket_single.sol\":14956:14963  tokenId */\n      dup6\n        /* \"Arevea-NFT-Market/NFT-Contracts/contracts/finalMarket_single.sol\":14913:14964  nftContractAuctionSale[nftContractAddress][tokenId] */\n      dup2\n      mstore\n      0x20\n      add\n      swap1\n      dup2\n      mstore\n      0x20\n      add\n      0x00\n      keccak256\n        /* \"Arevea-NFT-Market/NFT-Contracts/contracts/finalMarket_single.sol\":14913:14970  nftContractAuctionSale[nftContractAddress][tokenId].erc20 */\n      0x06\n      add\n      0x00\n      swap1\n      sload\n      swap1\n      0x0100\n      exp\n      swap1\n      div\n      0xffffffffffffffffffffffffffffffffffffffff\n      and\n        /* \"Arevea-NFT-Market/NFT-Contracts/contracts/finalMarket_single.sol\":14842:14860  _bidAmountTransfer */\n      tag_130\n        /* \"Arevea-NFT-Market/NFT-Contracts/contracts/finalMarket_single.sol\":14842:14985  _bidAmountTransfer(... */\n      jump\t// in\n    tag_157:\n        /* \"Arevea-NFT-Market/NFT-Contracts/contracts/finalMarket_single.sol\":14713:14997  if (... */\n    tag_156:\n        /* \"Arevea-NFT-Market/NFT-Contracts/contracts/finalMarket_single.sol\":15091:15104  finalBidPrice */\n      dup1\n        /* \"Arevea-NFT-Market/NFT-Contracts/contracts/finalMarket_single.sol\":15009:15031  nftContractAuctionSale */\n      0x01\n        /* \"Arevea-NFT-Market/NFT-Contracts/contracts/finalMarket_single.sol\":15009:15051  nftContractAuctionSale[nftContractAddress] */\n      0x00\n        /* \"Arevea-NFT-Market/NFT-Contracts/contracts/finalMarket_single.sol\":15032:15050  nftContractAddress */\n      dup6\n        /* \"Arevea-NFT-Market/NFT-Contracts/contracts/finalMarket_single.sol\":15009:15051  nftContractAuctionSale[nftContractAddress] */\n      0xffffffffffffffffffffffffffffffffffffffff\n      and\n      0xffffffffffffffffffffffffffffffffffffffff\n      and\n      dup2\n      mstore\n      0x20\n      add\n      swap1\n      dup2\n      mstore\n      0x20\n      add\n      0x00\n      keccak256\n        /* \"Arevea-NFT-Market/NFT-Contracts/contracts/finalMarket_single.sol\":15009:15060  nftContractAuctionSale[nftContractAddress][tokenId] */\n      0x00\n        /* \"Arevea-NFT-Market/NFT-Contracts/contracts/finalMarket_single.sol\":15052:15059  tokenId */\n      dup5\n        /* \"Arevea-NFT-Market/NFT-Contracts/contracts/finalMarket_single.sol\":15009:15060  nftContractAuctionSale[nftContractAddress][tokenId] */\n      dup2\n      mstore\n      0x20\n      add\n      swap1\n      dup2\n      mstore\n      0x20\n      add\n      0x00\n      keccak256\n        /* \"Arevea-NFT-Market/NFT-Contracts/contracts/finalMarket_single.sol\":15009:15088  nftContractAuctionSale[nftContractAddress][tokenId]... */\n      0x03\n      add\n        /* \"Arevea-NFT-Market/NFT-Contracts/contracts/finalMarket_single.sol\":15009:15104  nftContractAuctionSale[nftContractAddress][tokenId]... */\n      dup2\n      swap1\n      sstore\n      pop\n        /* \"Arevea-NFT-Market/NFT-Contracts/contracts/finalMarket_single.sol\":15200:15210  msg.sender */\n      caller\n        /* \"Arevea-NFT-Market/NFT-Contracts/contracts/finalMarket_single.sol\":15115:15137  nftContractAuctionSale */\n      0x01\n        /* \"Arevea-NFT-Market/NFT-Contracts/contracts/finalMarket_single.sol\":15115:15157  nftContractAuctionSale[nftContractAddress] */\n      0x00\n        /* \"Arevea-NFT-Market/NFT-Contracts/contracts/finalMarket_single.sol\":15138:15156  nftContractAddress */\n      dup6\n        /* \"Arevea-NFT-Market/NFT-Contracts/contracts/finalMarket_single.sol\":15115:15157  nftContractAuctionSale[nftContractAddress] */\n      0xffffffffffffffffffffffffffffffffffffffff\n      and\n      0xffffffffffffffffffffffffffffffffffffffff\n      and\n      dup2\n      mstore\n      0x20\n      add\n      swap1\n      dup2\n      mstore\n      0x20\n      add\n      0x00\n      keccak256\n        /* \"Arevea-NFT-Market/NFT-Contracts/contracts/finalMarket_single.sol\":15115:15166  nftContractAuctionSale[nftContractAddress][tokenId] */\n      0x00\n        /* \"Arevea-NFT-Market/NFT-Contracts/contracts/finalMarket_single.sol\":15158:15165  tokenId */\n      dup5\n        /* \"Arevea-NFT-Market/NFT-Contracts/contracts/finalMarket_single.sol\":15115:15166  nftContractAuctionSale[nftContractAddress][tokenId] */\n      dup2\n      mstore\n      0x20\n      add\n      swap1\n      dup2\n      mstore\n      0x20\n      add\n      0x00\n      keccak256\n        /* \"Arevea-NFT-Market/NFT-Contracts/contracts/finalMarket_single.sol\":15115:15197  nftContractAuctionSale[nftContractAddress][tokenId]... */\n      0x04\n      add\n      0x00\n        /* \"Arevea-NFT-Market/NFT-Contracts/contracts/finalMarket_single.sol\":15115:15210  nftContractAuctionSale[nftContractAddress][tokenId]... */\n      0x0100\n      exp\n      dup2\n      sload\n      dup2\n      0xffffffffffffffffffffffffffffffffffffffff\n      mul\n      not\n      and\n      swap1\n      dup4\n      0xffffffffffffffffffffffffffffffffffffffff\n      and\n      mul\n      or\n      swap1\n      sstore\n      pop\n        /* \"Arevea-NFT-Market/NFT-Contracts/contracts/finalMarket_single.sol\":15308:15321  finalBidPrice */\n      dup1\n        /* \"Arevea-NFT-Market/NFT-Contracts/contracts/finalMarket_single.sol\":15223:15240  userBidPriceOnNFT */\n      0x03\n        /* \"Arevea-NFT-Market/NFT-Contracts/contracts/finalMarket_single.sol\":15223:15260  userBidPriceOnNFT[nftContractAddress] */\n      0x00\n        /* \"Arevea-NFT-Market/NFT-Contracts/contracts/finalMarket_single.sol\":15241:15259  nftContractAddress */\n      dup6\n        /* \"Arevea-NFT-Market/NFT-Contracts/contracts/finalMarket_single.sol\":15223:15260  userBidPriceOnNFT[nftContractAddress] */\n      0xffffffffffffffffffffffffffffffffffffffff\n      and\n      0xffffffffffffffffffffffffffffffffffffffff\n      and\n      dup2\n      mstore\n      0x20\n      add\n      swap1\n      dup2\n      mstore\n      0x20\n      add\n      0x00\n      keccak256\n        /* \"Arevea-NFT-Market/NFT-Contracts/contracts/finalMarket_single.sol\":15223:15269  userBidPriceOnNFT[nftContractAddress][tokenId] */\n      0x00\n        /* \"Arevea-NFT-Market/NFT-Contracts/contracts/finalMarket_single.sol\":15261:15268  tokenId */\n      dup5\n        /* \"Arevea-NFT-Market/NFT-Contracts/contracts/finalMarket_single.sol\":15223:15269  userBidPriceOnNFT[nftContractAddress][tokenId] */\n      dup2\n      mstore\n      0x20\n      add\n      swap1\n      dup2\n      mstore\n      0x20\n      add\n      0x00\n      keccak256\n        /* \"Arevea-NFT-Market/NFT-Contracts/contracts/finalMarket_single.sol\":15223:15305  userBidPriceOnNFT[nftContractAddress][tokenId][... */\n      0x00\n        /* \"Arevea-NFT-Market/NFT-Contracts/contracts/finalMarket_single.sol\":15284:15294  msg.sender */\n      caller\n        /* \"Arevea-NFT-Market/NFT-Contracts/contracts/finalMarket_single.sol\":15223:15305  userBidPriceOnNFT[nftContractAddress][tokenId][... */\n      0xffffffffffffffffffffffffffffffffffffffff\n      and\n      0xffffffffffffffffffffffffffffffffffffffff\n      and\n      dup2\n      mstore\n      0x20\n      add\n      swap1\n      dup2\n      mstore\n      0x20\n      add\n      0x00\n      keccak256\n        /* \"Arevea-NFT-Market/NFT-Contracts/contracts/finalMarket_single.sol\":15223:15321  userBidPriceOnNFT[nftContractAddress][tokenId][... */\n      dup2\n      swap1\n      sstore\n      pop\n        /* \"Arevea-NFT-Market/NFT-Contracts/contracts/finalMarket_single.sol\":15339:15482  NftAuctionBidPriceUpdate(... */\n      0x907cdadc7c1a8abcdd80cdd85eb18377631e4f413fb6397a8252ff7b358ac6cb\n        /* \"Arevea-NFT-Market/NFT-Contracts/contracts/finalMarket_single.sol\":15378:15396  nftContractAddress */\n      dup4\n        /* \"Arevea-NFT-Market/NFT-Contracts/contracts/finalMarket_single.sol\":15411:15418  tokenId */\n      dup4\n        /* \"Arevea-NFT-Market/NFT-Contracts/contracts/finalMarket_single.sol\":15433:15446  finalBidPrice */\n      dup4\n        /* \"Arevea-NFT-Market/NFT-Contracts/contracts/finalMarket_single.sol\":15461:15471  msg.sender */\n      caller\n        /* \"Arevea-NFT-Market/NFT-Contracts/contracts/finalMarket_single.sol\":15339:15482  NftAuctionBidPriceUpdate(... */\n      mload(0x40)\n      tag_158\n      swap5\n      swap4\n      swap3\n      swap2\n      swap1\n      tag_132\n      jump\t// in\n    tag_158:\n      mload(0x40)\n      dup1\n      swap2\n      sub\n      swap1\n      log1\n        /* \"Arevea-NFT-Market/NFT-Contracts/contracts/finalMarket_single.sol\":14466:15490  {... */\n      pop\n      pop\n      pop\n        /* \"Arevea-NFT-Market/NFT-Contracts/contracts/finalMarket_single.sol\":6700:7413  {... */\n      pop\n        /* \"Arevea-NFT-Market/NFT-Contracts/contracts/finalMarket_single.sol\":8181:8182  _ */\n      pop\n      pop\n      pop\n      pop\n        /* \"Arevea-NFT-Market/NFT-Contracts/contracts/finalMarket_single.sol\":6203:6204  _ */\n      pop\n        /* \"Arevea-NFT-Market/NFT-Contracts/contracts/finalMarket_single.sol\":3961:3962  _ */\n      pop\n      pop\n        /* \"Arevea-NFT-Market/NFT-Contracts/contracts/finalMarket_single.sol\":13974:15490  function updateTheBidPrice(... */\n      pop\n      pop\n      pop\n      pop\n      pop\n      jump\t// out\n        /* \"Arevea-NFT-Market/NFT-Contracts/contracts/finalMarket_single.sol\":9960:10538  function updateFixedSalePrice(... */\n    tag_47:\n        /* \"Arevea-NFT-Market/NFT-Contracts/contracts/finalMarket_single.sol\":10141:10160  _nftContractAddress */\n      dup3\n        /* \"Arevea-NFT-Market/NFT-Contracts/contracts/finalMarket_single.sol\":10162:10170  _tokenId */\n      dup3\n        /* \"Arevea-NFT-Market/NFT-Contracts/contracts/finalMarket_single.sol\":3664:3665  1 */\n      0x01\n        /* \"Arevea-NFT-Market/NFT-Contracts/contracts/finalMarket_single.sol\":3616:3629  nftSaleStatus */\n      0x02\n        /* \"Arevea-NFT-Market/NFT-Contracts/contracts/finalMarket_single.sol\":3616:3650  nftSaleStatus[_nftContractAddress] */\n      0x00\n        /* \"Arevea-NFT-Market/NFT-Contracts/contracts/finalMarket_single.sol\":3630:3649  _nftContractAddress */\n      dup5\n        /* \"Arevea-NFT-Market/NFT-Contracts/contracts/finalMarket_single.sol\":3616:3650  nftSaleStatus[_nftContractAddress] */\n      0xffffffffffffffffffffffffffffffffffffffff\n      and\n      0xffffffffffffffffffffffffffffffffffffffff\n      and\n      dup2\n      mstore\n      0x20\n      add\n      swap1\n      dup2\n      mstore\n      0x20\n      add\n      0x00\n      keccak256\n        /* \"Arevea-NFT-Market/NFT-Contracts/contracts/finalMarket_single.sol\":3616:3660  nftSaleStatus[_nftContractAddress][_tokenId] */\n      0x00\n        /* \"Arevea-NFT-Market/NFT-Contracts/contracts/finalMarket_single.sol\":3651:3659  _tokenId */\n      dup4\n        /* \"Arevea-NFT-Market/NFT-Contracts/contracts/finalMarket_single.sol\":3616:3660  nftSaleStatus[_nftContractAddress][_tokenId] */\n      dup2\n      mstore\n      0x20\n      add\n      swap1\n      dup2\n      mstore\n      0x20\n      add\n      0x00\n      keccak256\n      sload\n        /* \"Arevea-NFT-Market/NFT-Contracts/contracts/finalMarket_single.sol\":3616:3665  nftSaleStatus[_nftContractAddress][_tokenId] == 1 */\n      eq\n        /* \"Arevea-NFT-Market/NFT-Contracts/contracts/finalMarket_single.sol\":3594:3714  require(... */\n      tag_160\n      jumpi\n      mload(0x40)\n      0x08c379a000000000000000000000000000000000000000000000000000000000\n      dup2\n      mstore\n      0x04\n      add\n      tag_161\n      swap1\n      tag_162\n      jump\t// in\n    tag_161:\n      mload(0x40)\n      dup1\n      swap2\n      sub\n      swap1\n      revert\n    tag_160:\n        /* \"Arevea-NFT-Market/NFT-Contracts/contracts/finalMarket_single.sol\":10200:10219  _nftContractAddress */\n      dup5\n        /* \"Arevea-NFT-Market/NFT-Contracts/contracts/finalMarket_single.sol\":10221:10229  _tokenId */\n      dup5\n        /* \"Arevea-NFT-Market/NFT-Contracts/contracts/finalMarket_single.sol\":4362:4382  nftContractFixedSale */\n      0x00\n        /* \"Arevea-NFT-Market/NFT-Contracts/contracts/finalMarket_single.sol\":4362:4403  nftContractFixedSale[_nftContractAddress] */\n      dup1\n        /* \"Arevea-NFT-Market/NFT-Contracts/contracts/finalMarket_single.sol\":4383:4402  _nftContractAddress */\n      dup4\n        /* \"Arevea-NFT-Market/NFT-Contracts/contracts/finalMarket_single.sol\":4362:4403  nftContractFixedSale[_nftContractAddress] */\n      0xffffffffffffffffffffffffffffffffffffffff\n      and\n      0xffffffffffffffffffffffffffffffffffffffff\n      and\n      dup2\n      mstore\n      0x20\n      add\n      swap1\n      dup2\n      mstore\n      0x20\n      add\n      0x00\n      keccak256\n        /* \"Arevea-NFT-Market/NFT-Contracts/contracts/finalMarket_single.sol\":4362:4413  nftContractFixedSale[_nftContractAddress][_tokenId] */\n      0x00\n        /* \"Arevea-NFT-Market/NFT-Contracts/contracts/finalMarket_single.sol\":4404:4412  _tokenId */\n      dup3\n        /* \"Arevea-NFT-Market/NFT-Contracts/contracts/finalMarket_single.sol\":4362:4413  nftContractFixedSale[_nftContractAddress][_tokenId] */\n      dup2\n      mstore\n      0x20\n      add\n      swap1\n      dup2\n      mstore\n      0x20\n      add\n      0x00\n      keccak256\n        /* \"Arevea-NFT-Market/NFT-Contracts/contracts/finalMarket_single.sol\":4362:4423  nftContractFixedSale[_nftContractAddress][_tokenId].nftSeller */\n      0x00\n      add\n      0x00\n      swap1\n      sload\n      swap1\n      0x0100\n      exp\n      swap1\n      div\n      0xffffffffffffffffffffffffffffffffffffffff\n      and\n        /* \"Arevea-NFT-Market/NFT-Contracts/contracts/finalMarket_single.sol\":4331:4423  msg.sender ==... */\n      0xffffffffffffffffffffffffffffffffffffffff\n      and\n        /* \"Arevea-NFT-Market/NFT-Contracts/contracts/finalMarket_single.sol\":4331:4341  msg.sender */\n      caller\n        /* \"Arevea-NFT-Market/NFT-Contracts/contracts/finalMarket_single.sol\":4331:4423  msg.sender ==... */\n      0xffffffffffffffffffffffffffffffffffffffff\n      and\n      eq\n        /* \"Arevea-NFT-Market/NFT-Contracts/contracts/finalMarket_single.sol\":4309:4472  require(... */\n      tag_164\n      jumpi\n      mload(0x40)\n      0x08c379a000000000000000000000000000000000000000000000000000000000\n      dup2\n      mstore\n      0x04\n      add\n      tag_165\n      swap1\n      tag_166\n      jump\t// in\n    tag_165:\n      mload(0x40)\n      dup1\n      swap2\n      sub\n      swap1\n      revert\n    tag_164:\n        /* \"Arevea-NFT-Market/NFT-Contracts/contracts/finalMarket_single.sol\":10261:10277  _updateSalePrice */\n      dup5\n        /* \"Arevea-NFT-Market/NFT-Contracts/contracts/finalMarket_single.sol\":8147:8148  0 */\n      0x00\n        /* \"Arevea-NFT-Market/NFT-Contracts/contracts/finalMarket_single.sol\":8138:8144  _price */\n      dup2\n        /* \"Arevea-NFT-Market/NFT-Contracts/contracts/finalMarket_single.sol\":8138:8148  _price > 0 */\n      gt\n        /* \"Arevea-NFT-Market/NFT-Contracts/contracts/finalMarket_single.sol\":8130:8170  require(_price > 0, \"Price cannot be 0\") */\n      tag_168\n      jumpi\n      mload(0x40)\n      0x08c379a000000000000000000000000000000000000000000000000000000000\n      dup2\n      mstore\n      0x04\n      add\n      tag_169\n      swap1\n      tag_118\n      jump\t// in\n    tag_169:\n      mload(0x40)\n      dup1\n      swap2\n      sub\n      swap1\n      revert\n    tag_168:\n        /* \"Arevea-NFT-Market/NFT-Contracts/contracts/finalMarket_single.sol\":10373:10389  _updateSalePrice */\n      dup6\n        /* \"Arevea-NFT-Market/NFT-Contracts/contracts/finalMarket_single.sol\":10295:10315  nftContractFixedSale */\n      0x00\n        /* \"Arevea-NFT-Market/NFT-Contracts/contracts/finalMarket_single.sol\":10295:10336  nftContractFixedSale[_nftContractAddress] */\n      dup1\n        /* \"Arevea-NFT-Market/NFT-Contracts/contracts/finalMarket_single.sol\":10316:10335  _nftContractAddress */\n      dup11\n        /* \"Arevea-NFT-Market/NFT-Contracts/contracts/finalMarket_single.sol\":10295:10336  nftContractFixedSale[_nftContractAddress] */\n      0xffffffffffffffffffffffffffffffffffffffff\n      and\n      0xffffffffffffffffffffffffffffffffffffffff\n      and\n      dup2\n      mstore\n      0x20\n      add\n      swap1\n      dup2\n      mstore\n      0x20\n      add\n      0x00\n      keccak256\n        /* \"Arevea-NFT-Market/NFT-Contracts/contracts/finalMarket_single.sol\":10295:10346  nftContractFixedSale[_nftContractAddress][_tokenId] */\n      0x00\n        /* \"Arevea-NFT-Market/NFT-Contracts/contracts/finalMarket_single.sol\":10337:10345  _tokenId */\n      dup10\n        /* \"Arevea-NFT-Market/NFT-Contracts/contracts/finalMarket_single.sol\":10295:10346  nftContractFixedSale[_nftContractAddress][_tokenId] */\n      dup2\n      mstore\n      0x20\n      add\n      swap1\n      dup2\n      mstore\n      0x20\n      add\n      0x00\n      keccak256\n        /* \"Arevea-NFT-Market/NFT-Contracts/contracts/finalMarket_single.sol\":10295:10370  nftContractFixedSale[_nftContractAddress][_tokenId]... */\n      0x03\n      add\n        /* \"Arevea-NFT-Market/NFT-Contracts/contracts/finalMarket_single.sol\":10295:10389  nftContractFixedSale[_nftContractAddress][_tokenId]... */\n      dup2\n      swap1\n      sstore\n      pop\n        /* \"Arevea-NFT-Market/NFT-Contracts/contracts/finalMarket_single.sol\":10407:10530  NftFixedSalePriceUpdated(... */\n      0x575a0876095ccf47276a37dce683308a625403d132d219f95205ce205b2e12bc\n        /* \"Arevea-NFT-Market/NFT-Contracts/contracts/finalMarket_single.sol\":10446:10465  _nftContractAddress */\n      dup9\n        /* \"Arevea-NFT-Market/NFT-Contracts/contracts/finalMarket_single.sol\":10480:10488  _tokenId */\n      dup9\n        /* \"Arevea-NFT-Market/NFT-Contracts/contracts/finalMarket_single.sol\":10503:10519  _updateSalePrice */\n      dup9\n        /* \"Arevea-NFT-Market/NFT-Contracts/contracts/finalMarket_single.sol\":10407:10530  NftFixedSalePriceUpdated(... */\n      mload(0x40)\n      tag_171\n      swap4\n      swap3\n      swap2\n      swap1\n      tag_172\n      jump\t// in\n    tag_171:\n      mload(0x40)\n      dup1\n      swap2\n      sub\n      swap1\n      log1\n        /* \"Arevea-NFT-Market/NFT-Contracts/contracts/finalMarket_single.sol\":4483:4484  _ */\n      pop\n        /* \"Arevea-NFT-Market/NFT-Contracts/contracts/finalMarket_single.sol\":3725:3726  _ */\n      pop\n      pop\n        /* \"Arevea-NFT-Market/NFT-Contracts/contracts/finalMarket_single.sol\":9960:10538  function updateFixedSalePrice(... */\n      pop\n      pop\n      pop\n      pop\n      pop\n      jump\t// out\n        /* \"Arevea-NFT-Market/NFT-Contracts/contracts/finalMarket_single.sol\":17263:18021  function withdrawBid(address _nftContractAddress, uint256 _tokenId)... */\n    tag_52:\n        /* \"Arevea-NFT-Market/NFT-Contracts/contracts/finalMarket_single.sol\":17372:17391  _nftContractAddress */\n      dup2\n        /* \"Arevea-NFT-Market/NFT-Contracts/contracts/finalMarket_single.sol\":17393:17401  _tokenId */\n      dup2\n        /* \"Arevea-NFT-Market/NFT-Contracts/contracts/finalMarket_single.sol\":4950:4972  nftContractAuctionSale */\n      0x01\n        /* \"Arevea-NFT-Market/NFT-Contracts/contracts/finalMarket_single.sol\":4950:4993  nftContractAuctionSale[_nftContractAddress] */\n      0x00\n        /* \"Arevea-NFT-Market/NFT-Contracts/contracts/finalMarket_single.sol\":4973:4992  _nftContractAddress */\n      dup4\n        /* \"Arevea-NFT-Market/NFT-Contracts/contracts/finalMarket_single.sol\":4950:4993  nftContractAuctionSale[_nftContractAddress] */\n      0xffffffffffffffffffffffffffffffffffffffff\n      and\n      0xffffffffffffffffffffffffffffffffffffffff\n      and\n      dup2\n      mstore\n      0x20\n      add\n      swap1\n      dup2\n      mstore\n      0x20\n      add\n      0x00\n      keccak256\n        /* \"Arevea-NFT-Market/NFT-Contracts/contracts/finalMarket_single.sol\":4950:5003  nftContractAuctionSale[_nftContractAddress][_tokenId] */\n      0x00\n        /* \"Arevea-NFT-Market/NFT-Contracts/contracts/finalMarket_single.sol\":4994:5002  _tokenId */\n      dup3\n        /* \"Arevea-NFT-Market/NFT-Contracts/contracts/finalMarket_single.sol\":4950:5003  nftContractAuctionSale[_nftContractAddress][_tokenId] */\n      dup2\n      mstore\n      0x20\n      add\n      swap1\n      dup2\n      mstore\n      0x20\n      add\n      0x00\n      keccak256\n        /* \"Arevea-NFT-Market/NFT-Contracts/contracts/finalMarket_single.sol\":4950:5036  nftContractAuctionSale[_nftContractAddress][_tokenId]... */\n      0x01\n      add\n      sload\n        /* \"Arevea-NFT-Market/NFT-Contracts/contracts/finalMarket_single.sol\":4915:4930  block.timestamp */\n      timestamp\n        /* \"Arevea-NFT-Market/NFT-Contracts/contracts/finalMarket_single.sol\":4915:5036  block.timestamp >... */\n      gt\n        /* \"Arevea-NFT-Market/NFT-Contracts/contracts/finalMarket_single.sol\":4893:5079  require(... */\n      tag_174\n      jumpi\n      mload(0x40)\n      0x08c379a000000000000000000000000000000000000000000000000000000000\n      dup2\n      mstore\n      0x04\n      add\n      tag_175\n      swap1\n      tag_176\n      jump\t// in\n    tag_175:\n      mload(0x40)\n      dup1\n      swap2\n      sub\n      swap1\n      revert\n    tag_174:\n        /* \"Arevea-NFT-Market/NFT-Contracts/contracts/finalMarket_single.sol\":17472:17494  nftContractAuctionSale */\n      0x01\n        /* \"Arevea-NFT-Market/NFT-Contracts/contracts/finalMarket_single.sol\":17472:17515  nftContractAuctionSale[_nftContractAddress] */\n      0x00\n        /* \"Arevea-NFT-Market/NFT-Contracts/contracts/finalMarket_single.sol\":17495:17514  _nftContractAddress */\n      dup6\n        /* \"Arevea-NFT-Market/NFT-Contracts/contracts/finalMarket_single.sol\":17472:17515  nftContractAuctionSale[_nftContractAddress] */\n      0xffffffffffffffffffffffffffffffffffffffff\n      and\n      0xffffffffffffffffffffffffffffffffffffffff\n      and\n      dup2\n      mstore\n      0x20\n      add\n      swap1\n      dup2\n      mstore\n      0x20\n      add\n      0x00\n      keccak256\n        /* \"Arevea-NFT-Market/NFT-Contracts/contracts/finalMarket_single.sol\":17472:17525  nftContractAuctionSale[_nftContractAddress][_tokenId] */\n      0x00\n        /* \"Arevea-NFT-Market/NFT-Contracts/contracts/finalMarket_single.sol\":17516:17524  _tokenId */\n      dup5\n        /* \"Arevea-NFT-Market/NFT-Contracts/contracts/finalMarket_single.sol\":17472:17525  nftContractAuctionSale[_nftContractAddress][_tokenId] */\n      dup2\n      mstore\n      0x20\n      add\n      swap1\n      dup2\n      mstore\n      0x20\n      add\n      0x00\n      keccak256\n        /* \"Arevea-NFT-Market/NFT-Contracts/contracts/finalMarket_single.sol\":17472:17564  nftContractAuctionSale[_nftContractAddress][_tokenId]... */\n      0x04\n      add\n      0x00\n      swap1\n      sload\n      swap1\n      0x0100\n      exp\n      swap1\n      div\n      0xffffffffffffffffffffffffffffffffffffffff\n      and\n        /* \"Arevea-NFT-Market/NFT-Contracts/contracts/finalMarket_single.sol\":17441:17564  msg.sender !=... */\n      0xffffffffffffffffffffffffffffffffffffffff\n      and\n        /* \"Arevea-NFT-Market/NFT-Contracts/contracts/finalMarket_single.sol\":17441:17451  msg.sender */\n      caller\n        /* \"Arevea-NFT-Market/NFT-Contracts/contracts/finalMarket_single.sol\":17441:17564  msg.sender !=... */\n      0xffffffffffffffffffffffffffffffffffffffff\n      and\n      sub\n        /* \"Arevea-NFT-Market/NFT-Contracts/contracts/finalMarket_single.sol\":17419:17614  require(... */\n      tag_178\n      jumpi\n      mload(0x40)\n      0x08c379a000000000000000000000000000000000000000000000000000000000\n      dup2\n      mstore\n      0x04\n      add\n      tag_179\n      swap1\n      tag_180\n      jump\t// in\n    tag_179:\n      mload(0x40)\n      dup1\n      swap2\n      sub\n      swap1\n      revert\n    tag_178:\n        /* \"Arevea-NFT-Market/NFT-Contracts/contracts/finalMarket_single.sol\":17710:17711  0 */\n      0x00\n        /* \"Arevea-NFT-Market/NFT-Contracts/contracts/finalMarket_single.sol\":17647:17664  userBidPriceOnNFT */\n      0x03\n        /* \"Arevea-NFT-Market/NFT-Contracts/contracts/finalMarket_single.sol\":17647:17685  userBidPriceOnNFT[_nftContractAddress] */\n      0x00\n        /* \"Arevea-NFT-Market/NFT-Contracts/contracts/finalMarket_single.sol\":17665:17684  _nftContractAddress */\n      dup7\n        /* \"Arevea-NFT-Market/NFT-Contracts/contracts/finalMarket_single.sol\":17647:17685  userBidPriceOnNFT[_nftContractAddress] */\n      0xffffffffffffffffffffffffffffffffffffffff\n      and\n      0xffffffffffffffffffffffffffffffffffffffff\n      and\n      dup2\n      mstore\n      0x20\n      add\n      swap1\n      dup2\n      mstore\n      0x20\n      add\n      0x00\n      keccak256\n        /* \"Arevea-NFT-Market/NFT-Contracts/contracts/finalMarket_single.sol\":17647:17695  userBidPriceOnNFT[_nftContractAddress][_tokenId] */\n      0x00\n        /* \"Arevea-NFT-Market/NFT-Contracts/contracts/finalMarket_single.sol\":17686:17694  _tokenId */\n      dup6\n        /* \"Arevea-NFT-Market/NFT-Contracts/contracts/finalMarket_single.sol\":17647:17695  userBidPriceOnNFT[_nftContractAddress][_tokenId] */\n      dup2\n      mstore\n      0x20\n      add\n      swap1\n      dup2\n      mstore\n      0x20\n      add\n      0x00\n      keccak256\n        /* \"Arevea-NFT-Market/NFT-Contracts/contracts/finalMarket_single.sol\":17647:17707  userBidPriceOnNFT[_nftContractAddress][_tokenId][msg.sender] */\n      0x00\n        /* \"Arevea-NFT-Market/NFT-Contracts/contracts/finalMarket_single.sol\":17696:17706  msg.sender */\n      caller\n        /* \"Arevea-NFT-Market/NFT-Contracts/contracts/finalMarket_single.sol\":17647:17707  userBidPriceOnNFT[_nftContractAddress][_tokenId][msg.sender] */\n      0xffffffffffffffffffffffffffffffffffffffff\n      and\n      0xffffffffffffffffffffffffffffffffffffffff\n      and\n      dup2\n      mstore\n      0x20\n      add\n      swap1\n      dup2\n      mstore\n      0x20\n      add\n      0x00\n      keccak256\n      sload\n        /* \"Arevea-NFT-Market/NFT-Contracts/contracts/finalMarket_single.sol\":17647:17711  userBidPriceOnNFT[_nftContractAddress][_tokenId][msg.sender] > 0 */\n      gt\n        /* \"Arevea-NFT-Market/NFT-Contracts/contracts/finalMarket_single.sol\":17625:17758  require(... */\n      tag_181\n      jumpi\n      mload(0x40)\n      0x08c379a000000000000000000000000000000000000000000000000000000000\n      dup2\n      mstore\n      0x04\n      add\n      tag_182\n      swap1\n      tag_183\n      jump\t// in\n    tag_182:\n      mload(0x40)\n      dup1\n      swap2\n      sub\n      swap1\n      revert\n    tag_181:\n        /* \"Arevea-NFT-Market/NFT-Contracts/contracts/finalMarket_single.sol\":17937:17938  0 */\n      0x00\n        /* \"Arevea-NFT-Market/NFT-Contracts/contracts/finalMarket_single.sol\":17874:17891  userBidPriceOnNFT */\n      0x03\n        /* \"Arevea-NFT-Market/NFT-Contracts/contracts/finalMarket_single.sol\":17874:17912  userBidPriceOnNFT[_nftContractAddress] */\n      0x00\n        /* \"Arevea-NFT-Market/NFT-Contracts/contracts/finalMarket_single.sol\":17892:17911  _nftContractAddress */\n      dup7\n        /* \"Arevea-NFT-Market/NFT-Contracts/contracts/finalMarket_single.sol\":17874:17912  userBidPriceOnNFT[_nftContractAddress] */\n      0xffffffffffffffffffffffffffffffffffffffff\n      and\n      0xffffffffffffffffffffffffffffffffffffffff\n      and\n      dup2\n      mstore\n      0x20\n      add\n      swap1\n      dup2\n      mstore\n      0x20\n      add\n      0x00\n      keccak256\n        /* \"Arevea-NFT-Market/NFT-Contracts/contracts/finalMarket_single.sol\":17874:17922  userBidPriceOnNFT[_nftContractAddress][_tokenId] */\n      0x00\n        /* \"Arevea-NFT-Market/NFT-Contracts/contracts/finalMarket_single.sol\":17913:17921  _tokenId */\n      dup6\n        /* \"Arevea-NFT-Market/NFT-Contracts/contracts/finalMarket_single.sol\":17874:17922  userBidPriceOnNFT[_nftContractAddress][_tokenId] */\n      dup2\n      mstore\n      0x20\n      add\n      swap1\n      dup2\n      mstore\n      0x20\n      add\n      0x00\n      keccak256\n        /* \"Arevea-NFT-Market/NFT-Contracts/contracts/finalMarket_single.sol\":17874:17934  userBidPriceOnNFT[_nftContractAddress][_tokenId][msg.sender] */\n      0x00\n        /* \"Arevea-NFT-Market/NFT-Contracts/contracts/finalMarket_single.sol\":17923:17933  msg.sender */\n      caller\n        /* \"Arevea-NFT-Market/NFT-Contracts/contracts/finalMarket_single.sol\":17874:17934  userBidPriceOnNFT[_nftContractAddress][_tokenId][msg.sender] */\n      0xffffffffffffffffffffffffffffffffffffffff\n      and\n      0xffffffffffffffffffffffffffffffffffffffff\n      and\n      dup2\n      mstore\n      0x20\n      add\n      swap1\n      dup2\n      mstore\n      0x20\n      add\n      0x00\n      keccak256\n        /* \"Arevea-NFT-Market/NFT-Contracts/contracts/finalMarket_single.sol\":17874:17938  userBidPriceOnNFT[_nftContractAddress][_tokenId][msg.sender] = 0 */\n      dup2\n      swap1\n      sstore\n      pop\n        /* \"Arevea-NFT-Market/NFT-Contracts/contracts/finalMarket_single.sol\":17956:18013  withdrawNftBid(_nftContractAddress, _tokenId, msg.sender) */\n      0xde8cb9aa2c755cf75d5fbc4fec824b10e311652306f1fca5c8e57a04758b0aa7\n        /* \"Arevea-NFT-Market/NFT-Contracts/contracts/finalMarket_single.sol\":17971:17990  _nftContractAddress */\n      dup5\n        /* \"Arevea-NFT-Market/NFT-Contracts/contracts/finalMarket_single.sol\":17992:18000  _tokenId */\n      dup5\n        /* \"Arevea-NFT-Market/NFT-Contracts/contracts/finalMarket_single.sol\":18002:18012  msg.sender */\n      caller\n        /* \"Arevea-NFT-Market/NFT-Contracts/contracts/finalMarket_single.sol\":17956:18013  withdrawNftBid(_nftContractAddress, _tokenId, msg.sender) */\n      mload(0x40)\n      tag_184\n      swap4\n      swap3\n      swap2\n      swap1\n      tag_185\n      jump\t// in\n    tag_184:\n      mload(0x40)\n      dup1\n      swap2\n      sub\n      swap1\n      log1\n        /* \"Arevea-NFT-Market/NFT-Contracts/contracts/finalMarket_single.sol\":17263:18021  function withdrawBid(address _nftContractAddress, uint256 _tokenId)... */\n      pop\n      pop\n      pop\n      pop\n      jump\t// out\n        /* \"Arevea-NFT-Market/NFT-Contracts/contracts/finalMarket_single.sol\":16247:17255  function settleAuction(address _nftContractAddress, uint256 _tokenId)... */\n    tag_56:\n        /* \"Arevea-NFT-Market/NFT-Contracts/contracts/finalMarket_single.sol\":16363:16382  _nftContractAddress */\n      dup2\n        /* \"Arevea-NFT-Market/NFT-Contracts/contracts/finalMarket_single.sol\":16384:16392  _tokenId */\n      dup2\n        /* \"Arevea-NFT-Market/NFT-Contracts/contracts/finalMarket_single.sol\":3898:3899  2 */\n      0x02\n        /* \"Arevea-NFT-Market/NFT-Contracts/contracts/finalMarket_single.sol\":3850:3863  nftSaleStatus */\n      dup1\n        /* \"Arevea-NFT-Market/NFT-Contracts/contracts/finalMarket_single.sol\":3850:3884  nftSaleStatus[_nftContractAddress] */\n      0x00\n        /* \"Arevea-NFT-Market/NFT-Contracts/contracts/finalMarket_single.sol\":3864:3883  _nftContractAddress */\n      dup5\n        /* \"Arevea-NFT-Market/NFT-Contracts/contracts/finalMarket_single.sol\":3850:3884  nftSaleStatus[_nftContractAddress] */\n      0xffffffffffffffffffffffffffffffffffffffff\n      and\n      0xffffffffffffffffffffffffffffffffffffffff\n      and\n      dup2\n      mstore\n      0x20\n      add\n      swap1\n      dup2\n      mstore\n      0x20\n      add\n      0x00\n      keccak256\n        /* \"Arevea-NFT-Market/NFT-Contracts/contracts/finalMarket_single.sol\":3850:3894  nftSaleStatus[_nftContractAddress][_tokenId] */\n      0x00\n        /* \"Arevea-NFT-Market/NFT-Contracts/contracts/finalMarket_single.sol\":3885:3893  _tokenId */\n      dup4\n        /* \"Arevea-NFT-Market/NFT-Contracts/contracts/finalMarket_single.sol\":3850:3894  nftSaleStatus[_nftContractAddress][_tokenId] */\n      dup2\n      mstore\n      0x20\n      add\n      swap1\n      dup2\n      mstore\n      0x20\n      add\n      0x00\n      keccak256\n      sload\n        /* \"Arevea-NFT-Market/NFT-Contracts/contracts/finalMarket_single.sol\":3850:3899  nftSaleStatus[_nftContractAddress][_tokenId] == 2 */\n      eq\n        /* \"Arevea-NFT-Market/NFT-Contracts/contracts/finalMarket_single.sol\":3828:3950  require(... */\n      tag_187\n      jumpi\n      mload(0x40)\n      0x08c379a000000000000000000000000000000000000000000000000000000000\n      dup2\n      mstore\n      0x04\n      add\n      tag_188\n      swap1\n      tag_110\n      jump\t// in\n    tag_188:\n      mload(0x40)\n      dup1\n      swap2\n      sub\n      swap1\n      revert\n    tag_187:\n        /* \"Arevea-NFT-Market/NFT-Contracts/contracts/finalMarket_single.sol\":16417:16436  _nftContractAddress */\n      dup4\n        /* \"Arevea-NFT-Market/NFT-Contracts/contracts/finalMarket_single.sol\":16438:16446  _tokenId */\n      dup4\n        /* \"Arevea-NFT-Market/NFT-Contracts/contracts/finalMarket_single.sol\":4950:4972  nftContractAuctionSale */\n      0x01\n        /* \"Arevea-NFT-Market/NFT-Contracts/contracts/finalMarket_single.sol\":4950:4993  nftContractAuctionSale[_nftContractAddress] */\n      0x00\n        /* \"Arevea-NFT-Market/NFT-Contracts/contracts/finalMarket_single.sol\":4973:4992  _nftContractAddress */\n      dup4\n        /* \"Arevea-NFT-Market/NFT-Contracts/contracts/finalMarket_single.sol\":4950:4993  nftContractAuctionSale[_nftContractAddress] */\n      0xffffffffffffffffffffffffffffffffffffffff\n      and\n      0xffffffffffffffffffffffffffffffffffffffff\n      and\n      dup2\n      mstore\n      0x20\n      add\n      swap1\n      dup2\n      mstore\n      0x20\n      add\n      0x00\n      keccak256\n        /* \"Arevea-NFT-Market/NFT-Contracts/contracts/finalMarket_single.sol\":4950:5003  nftContractAuctionSale[_nftContractAddress][_tokenId] */\n      0x00\n        /* \"Arevea-NFT-Market/NFT-Contracts/contracts/finalMarket_single.sol\":4994:5002  _tokenId */\n      dup3\n        /* \"Arevea-NFT-Market/NFT-Contracts/contracts/finalMarket_single.sol\":4950:5003  nftContractAuctionSale[_nftContractAddress][_tokenId] */\n      dup2\n      mstore\n      0x20\n      add\n      swap1\n      dup2\n      mstore\n      0x20\n      add\n      0x00\n      keccak256\n        /* \"Arevea-NFT-Market/NFT-Contracts/contracts/finalMarket_single.sol\":4950:5036  nftContractAuctionSale[_nftContractAddress][_tokenId]... */\n      0x01\n      add\n      sload\n        /* \"Arevea-NFT-Market/NFT-Contracts/contracts/finalMarket_single.sol\":4915:4930  block.timestamp */\n      timestamp\n        /* \"Arevea-NFT-Market/NFT-Contracts/contracts/finalMarket_single.sol\":4915:5036  block.timestamp >... */\n      gt\n        /* \"Arevea-NFT-Market/NFT-Contracts/contracts/finalMarket_single.sol\":4893:5079  require(... */\n      tag_190\n      jumpi\n      mload(0x40)\n      0x08c379a000000000000000000000000000000000000000000000000000000000\n      dup2\n      mstore\n      0x04\n      add\n      tag_191\n      swap1\n      tag_176\n      jump\t// in\n    tag_191:\n      mload(0x40)\n      dup1\n      swap2\n      sub\n      swap1\n      revert\n    tag_190:\n        /* \"Arevea-NFT-Market/NFT-Contracts/contracts/finalMarket_single.sol\":16464:16480  address nftBuyer */\n      0x00\n        /* \"Arevea-NFT-Market/NFT-Contracts/contracts/finalMarket_single.sol\":16483:16505  nftContractAuctionSale */\n      0x01\n        /* \"Arevea-NFT-Market/NFT-Contracts/contracts/finalMarket_single.sol\":16483:16526  nftContractAuctionSale[_nftContractAddress] */\n      0x00\n        /* \"Arevea-NFT-Market/NFT-Contracts/contracts/finalMarket_single.sol\":16506:16525  _nftContractAddress */\n      dup9\n        /* \"Arevea-NFT-Market/NFT-Contracts/contracts/finalMarket_single.sol\":16483:16526  nftContractAuctionSale[_nftContractAddress] */\n      0xffffffffffffffffffffffffffffffffffffffff\n      and\n      0xffffffffffffffffffffffffffffffffffffffff\n      and\n      dup2\n      mstore\n      0x20\n      add\n      swap1\n      dup2\n      mstore\n      0x20\n      add\n      0x00\n      keccak256\n        /* \"Arevea-NFT-Market/NFT-Contracts/contracts/finalMarket_single.sol\":16483:16536  nftContractAuctionSale[_nftContractAddress][_tokenId] */\n      0x00\n        /* \"Arevea-NFT-Market/NFT-Contracts/contracts/finalMarket_single.sol\":16527:16535  _tokenId */\n      dup8\n        /* \"Arevea-NFT-Market/NFT-Contracts/contracts/finalMarket_single.sol\":16483:16536  nftContractAuctionSale[_nftContractAddress][_tokenId] */\n      dup2\n      mstore\n      0x20\n      add\n      swap1\n      dup2\n      mstore\n      0x20\n      add\n      0x00\n      keccak256\n        /* \"Arevea-NFT-Market/NFT-Contracts/contracts/finalMarket_single.sol\":16483:16567  nftContractAuctionSale[_nftContractAddress][_tokenId]... */\n      0x04\n      add\n      0x00\n      swap1\n      sload\n      swap1\n      0x0100\n      exp\n      swap1\n      div\n      0xffffffffffffffffffffffffffffffffffffffff\n      and\n        /* \"Arevea-NFT-Market/NFT-Contracts/contracts/finalMarket_single.sol\":16464:16567  address nftBuyer = nftContractAuctionSale[_nftContractAddress][_tokenId]... */\n      swap1\n      pop\n        /* \"Arevea-NFT-Market/NFT-Contracts/contracts/finalMarket_single.sol\":16580:16777  _transferNftAndPaySeller(... */\n      tag_193\n        /* \"Arevea-NFT-Market/NFT-Contracts/contracts/finalMarket_single.sol\":16619:16638  _nftContractAddress */\n      dup8\n        /* \"Arevea-NFT-Market/NFT-Contracts/contracts/finalMarket_single.sol\":16653:16661  _tokenId */\n      dup8\n        /* \"Arevea-NFT-Market/NFT-Contracts/contracts/finalMarket_single.sol\":16676:16698  nftContractAuctionSale */\n      0x01\n        /* \"Arevea-NFT-Market/NFT-Contracts/contracts/finalMarket_single.sol\":16676:16719  nftContractAuctionSale[_nftContractAddress] */\n      0x00\n        /* \"Arevea-NFT-Market/NFT-Contracts/contracts/finalMarket_single.sol\":16699:16718  _nftContractAddress */\n      dup12\n        /* \"Arevea-NFT-Market/NFT-Contracts/contracts/finalMarket_single.sol\":16676:16719  nftContractAuctionSale[_nftContractAddress] */\n      0xffffffffffffffffffffffffffffffffffffffff\n      and\n      0xffffffffffffffffffffffffffffffffffffffff\n      and\n      dup2\n      mstore\n      0x20\n      add\n      swap1\n      dup2\n      mstore\n      0x20\n      add\n      0x00\n      keccak256\n        /* \"Arevea-NFT-Market/NFT-Contracts/contracts/finalMarket_single.sol\":16676:16729  nftContractAuctionSale[_nftContractAddress][_tokenId] */\n      0x00\n        /* \"Arevea-NFT-Market/NFT-Contracts/contracts/finalMarket_single.sol\":16720:16728  _tokenId */\n      dup11\n        /* \"Arevea-NFT-Market/NFT-Contracts/contracts/finalMarket_single.sol\":16676:16729  nftContractAuctionSale[_nftContractAddress][_tokenId] */\n      dup2\n      mstore\n      0x20\n      add\n      swap1\n      dup2\n      mstore\n      0x20\n      add\n      0x00\n      keccak256\n        /* \"Arevea-NFT-Market/NFT-Contracts/contracts/finalMarket_single.sol\":16676:16743  nftContractAuctionSale[_nftContractAddress][_tokenId].nftHighestBid */\n      0x03\n      add\n      sload\n        /* \"Arevea-NFT-Market/NFT-Contracts/contracts/finalMarket_single.sol\":16758:16766  nftBuyer */\n      dup5\n        /* \"Arevea-NFT-Market/NFT-Contracts/contracts/finalMarket_single.sol\":16580:16604  _transferNftAndPaySeller */\n      tag_194\n        /* \"Arevea-NFT-Market/NFT-Contracts/contracts/finalMarket_single.sol\":16580:16777  _transferNftAndPaySeller(... */\n      jump\t// in\n    tag_193:\n        /* \"Arevea-NFT-Market/NFT-Contracts/contracts/finalMarket_single.sol\":16851:16852  0 */\n      0x00\n        /* \"Arevea-NFT-Market/NFT-Contracts/contracts/finalMarket_single.sol\":16790:16807  userBidPriceOnNFT */\n      0x03\n        /* \"Arevea-NFT-Market/NFT-Contracts/contracts/finalMarket_single.sol\":16790:16828  userBidPriceOnNFT[_nftContractAddress] */\n      0x00\n        /* \"Arevea-NFT-Market/NFT-Contracts/contracts/finalMarket_single.sol\":16808:16827  _nftContractAddress */\n      dup10\n        /* \"Arevea-NFT-Market/NFT-Contracts/contracts/finalMarket_single.sol\":16790:16828  userBidPriceOnNFT[_nftContractAddress] */\n      0xffffffffffffffffffffffffffffffffffffffff\n      and\n      0xffffffffffffffffffffffffffffffffffffffff\n      and\n      dup2\n      mstore\n      0x20\n      add\n      swap1\n      dup2\n      mstore\n      0x20\n      add\n      0x00\n      keccak256\n        /* \"Arevea-NFT-Market/NFT-Contracts/contracts/finalMarket_single.sol\":16790:16838  userBidPriceOnNFT[_nftContractAddress][_tokenId] */\n      0x00\n        /* \"Arevea-NFT-Market/NFT-Contracts/contracts/finalMarket_single.sol\":16829:16837  _tokenId */\n      dup9\n        /* \"Arevea-NFT-Market/NFT-Contracts/contracts/finalMarket_single.sol\":16790:16838  userBidPriceOnNFT[_nftContractAddress][_tokenId] */\n      dup2\n      mstore\n      0x20\n      add\n      swap1\n      dup2\n      mstore\n      0x20\n      add\n      0x00\n      keccak256\n        /* \"Arevea-NFT-Market/NFT-Contracts/contracts/finalMarket_single.sol\":16790:16848  userBidPriceOnNFT[_nftContractAddress][_tokenId][nftBuyer] */\n      0x00\n        /* \"Arevea-NFT-Market/NFT-Contracts/contracts/finalMarket_single.sol\":16839:16847  nftBuyer */\n      dup4\n        /* \"Arevea-NFT-Market/NFT-Contracts/contracts/finalMarket_single.sol\":16790:16848  userBidPriceOnNFT[_nftContractAddress][_tokenId][nftBuyer] */\n      0xffffffffffffffffffffffffffffffffffffffff\n      and\n      0xffffffffffffffffffffffffffffffffffffffff\n      and\n      dup2\n      mstore\n      0x20\n      add\n      swap1\n      dup2\n      mstore\n      0x20\n      add\n      0x00\n      keccak256\n        /* \"Arevea-NFT-Market/NFT-Contracts/contracts/finalMarket_single.sol\":16790:16852  userBidPriceOnNFT[_nftContractAddress][_tokenId][nftBuyer] = 0 */\n      dup2\n      swap1\n      sstore\n      pop\n        /* \"Arevea-NFT-Market/NFT-Contracts/contracts/finalMarket_single.sol\":16870:16884  auctionSaleNFT */\n      0x07\n        /* \"Arevea-NFT-Market/NFT-Contracts/contracts/finalMarket_single.sol\":16900:16919  indexAuctionSaleNFT */\n      0x05\n        /* \"Arevea-NFT-Market/NFT-Contracts/contracts/finalMarket_single.sol\":16900:16940  indexAuctionSaleNFT[_nftContractAddress] */\n      0x00\n        /* \"Arevea-NFT-Market/NFT-Contracts/contracts/finalMarket_single.sol\":16920:16939  _nftContractAddress */\n      dup10\n        /* \"Arevea-NFT-Market/NFT-Contracts/contracts/finalMarket_single.sol\":16900:16940  indexAuctionSaleNFT[_nftContractAddress] */\n      0xffffffffffffffffffffffffffffffffffffffff\n      and\n      0xffffffffffffffffffffffffffffffffffffffff\n      and\n      dup2\n      mstore\n      0x20\n      add\n      swap1\n      dup2\n      mstore\n      0x20\n      add\n      0x00\n      keccak256\n        /* \"Arevea-NFT-Market/NFT-Contracts/contracts/finalMarket_single.sol\":16900:16950  indexAuctionSaleNFT[_nftContractAddress][_tokenId] */\n      0x00\n        /* \"Arevea-NFT-Market/NFT-Contracts/contracts/finalMarket_single.sol\":16941:16949  _tokenId */\n      dup9\n        /* \"Arevea-NFT-Market/NFT-Contracts/contracts/finalMarket_single.sol\":16900:16950  indexAuctionSaleNFT[_nftContractAddress][_tokenId] */\n      dup2\n      mstore\n      0x20\n      add\n      swap1\n      dup2\n      mstore\n      0x20\n      add\n      0x00\n      keccak256\n      sload\n        /* \"Arevea-NFT-Market/NFT-Contracts/contracts/finalMarket_single.sol\":16870:16962  auctionSaleNFT[... */\n      dup2\n      sload\n      dup2\n      lt\n      tag_195\n      jumpi\n      tag_196\n      tag_197\n      jump\t// in\n    tag_196:\n    tag_195:\n      swap1\n      0x00\n      mstore\n      keccak256(0x00, 0x20)\n      swap1\n      0x02\n      mul\n      add\n      0x00\n        /* \"Arevea-NFT-Market/NFT-Contracts/contracts/finalMarket_single.sol\":16863:16962  delete auctionSaleNFT[... */\n      dup1\n      dup3\n      add\n      exp(0x0100, 0x00)\n      dup2\n      sload\n      swap1\n      0xffffffffffffffffffffffffffffffffffffffff\n      mul\n      not\n      and\n      swap1\n      sstore\n      0x01\n      dup3\n      add\n      0x00\n      swap1\n      sstore\n      pop\n      pop\n        /* \"Arevea-NFT-Market/NFT-Contracts/contracts/finalMarket_single.sol\":16980:17247  NftAuctionSettle(... */\n      0xb31cb4f6609b11a57d1b6b14cc3f81f4b3e609f709a5b1e46892a45f9cc29ed8\n        /* \"Arevea-NFT-Market/NFT-Contracts/contracts/finalMarket_single.sol\":17011:17030  _nftContractAddress */\n      dup8\n        /* \"Arevea-NFT-Market/NFT-Contracts/contracts/finalMarket_single.sol\":17045:17053  _tokenId */\n      dup8\n        /* \"Arevea-NFT-Market/NFT-Contracts/contracts/finalMarket_single.sol\":17068:17076  nftBuyer */\n      dup4\n        /* \"Arevea-NFT-Market/NFT-Contracts/contracts/finalMarket_single.sol\":17091:17113  nftContractAuctionSale */\n      0x01\n        /* \"Arevea-NFT-Market/NFT-Contracts/contracts/finalMarket_single.sol\":17091:17134  nftContractAuctionSale[_nftContractAddress] */\n      0x00\n        /* \"Arevea-NFT-Market/NFT-Contracts/contracts/finalMarket_single.sol\":17114:17133  _nftContractAddress */\n      dup13\n        /* \"Arevea-NFT-Market/NFT-Contracts/contracts/finalMarket_single.sol\":17091:17134  nftContractAuctionSale[_nftContractAddress] */\n      0xffffffffffffffffffffffffffffffffffffffff\n      and\n      0xffffffffffffffffffffffffffffffffffffffff\n      and\n      dup2\n      mstore\n      0x20\n      add\n      swap1\n      dup2\n      mstore\n      0x20\n      add\n      0x00\n      keccak256\n        /* \"Arevea-NFT-Market/NFT-Contracts/contracts/finalMarket_single.sol\":17091:17144  nftContractAuctionSale[_nftContractAddress][_tokenId] */\n      0x00\n        /* \"Arevea-NFT-Market/NFT-Contracts/contracts/finalMarket_single.sol\":17135:17143  _tokenId */\n      dup12\n        /* \"Arevea-NFT-Market/NFT-Contracts/contracts/finalMarket_single.sol\":17091:17144  nftContractAuctionSale[_nftContractAddress][_tokenId] */\n      dup2\n      mstore\n      0x20\n      add\n      swap1\n      dup2\n      mstore\n      0x20\n      add\n      0x00\n      keccak256\n        /* \"Arevea-NFT-Market/NFT-Contracts/contracts/finalMarket_single.sol\":17091:17158  nftContractAuctionSale[_nftContractAddress][_tokenId].nftHighestBid */\n      0x03\n      add\n      sload\n        /* \"Arevea-NFT-Market/NFT-Contracts/contracts/finalMarket_single.sol\":17173:17195  nftContractAuctionSale */\n      0x01\n        /* \"Arevea-NFT-Market/NFT-Contracts/contracts/finalMarket_single.sol\":17173:17216  nftContractAuctionSale[_nftContractAddress] */\n      0x00\n        /* \"Arevea-NFT-Market/NFT-Contracts/contracts/finalMarket_single.sol\":17196:17215  _nftContractAddress */\n      dup14\n        /* \"Arevea-NFT-Market/NFT-Contracts/contracts/finalMarket_single.sol\":17173:17216  nftContractAuctionSale[_nftContractAddress] */\n      0xffffffffffffffffffffffffffffffffffffffff\n      and\n      0xffffffffffffffffffffffffffffffffffffffff\n      and\n      dup2\n      mstore\n      0x20\n      add\n      swap1\n      dup2\n      mstore\n      0x20\n      add\n      0x00\n      keccak256\n        /* \"Arevea-NFT-Market/NFT-Contracts/contracts/finalMarket_single.sol\":17173:17226  nftContractAuctionSale[_nftContractAddress][_tokenId] */\n      0x00\n        /* \"Arevea-NFT-Market/NFT-Contracts/contracts/finalMarket_single.sol\":17217:17225  _tokenId */\n      dup13\n        /* \"Arevea-NFT-Market/NFT-Contracts/contracts/finalMarket_single.sol\":17173:17226  nftContractAuctionSale[_nftContractAddress][_tokenId] */\n      dup2\n      mstore\n      0x20\n      add\n      swap1\n      dup2\n      mstore\n      0x20\n      add\n      0x00\n      keccak256\n        /* \"Arevea-NFT-Market/NFT-Contracts/contracts/finalMarket_single.sol\":17173:17236  nftContractAuctionSale[_nftContractAddress][_tokenId].nftSeller */\n      0x05\n      add\n      0x00\n      swap1\n      sload\n      swap1\n      0x0100\n      exp\n      swap1\n      div\n      0xffffffffffffffffffffffffffffffffffffffff\n      and\n        /* \"Arevea-NFT-Market/NFT-Contracts/contracts/finalMarket_single.sol\":16980:17247  NftAuctionSettle(... */\n      mload(0x40)\n      tag_199\n      swap6\n      swap5\n      swap4\n      swap3\n      swap2\n      swap1\n      tag_200\n      jump\t// in\n    tag_199:\n      mload(0x40)\n      dup1\n      swap2\n      sub\n      swap1\n      log1\n        /* \"Arevea-NFT-Market/NFT-Contracts/contracts/finalMarket_single.sol\":16453:17255  {... */\n      pop\n        /* \"Arevea-NFT-Market/NFT-Contracts/contracts/finalMarket_single.sol\":3961:3962  _ */\n      pop\n      pop\n        /* \"Arevea-NFT-Market/NFT-Contracts/contracts/finalMarket_single.sol\":16247:17255  function settleAuction(address _nftContractAddress, uint256 _tokenId)... */\n      pop\n      pop\n      pop\n      pop\n      jump\t// out\n        /* \"Arevea-NFT-Market/NFT-Contracts/contracts/finalMarket_single.sol\":1059:1127  mapping(address => mapping(uint256 => uint256)) public nftSaleStatus */\n    tag_60:\n      mstore(0x20, 0x02)\n      dup2\n      0x00\n      mstore\n      mstore(0x20, keccak256(0x00, 0x40))\n      dup1\n      0x00\n      mstore\n      keccak256(0x00, 0x40)\n      0x00\n      swap2\n      pop\n      swap2\n      pop\n      pop\n      sload\n      dup2\n      jump\t// out\n        /* \"Arevea-NFT-Market/NFT-Contracts/contracts/finalMarket_single.sol\":8223:9358  function nftFixedSale(... */\n    tag_67:\n        /* \"Arevea-NFT-Market/NFT-Contracts/contracts/finalMarket_single.sol\":8417:8436  _nftContractAddress */\n      dup4\n        /* \"Arevea-NFT-Market/NFT-Contracts/contracts/finalMarket_single.sol\":8438:8446  _tokenId */\n      dup3\n        /* \"Arevea-NFT-Market/NFT-Contracts/contracts/finalMarket_single.sol\":4108:4127  _nftContractAddress */\n      dup2\n        /* \"Arevea-NFT-Market/NFT-Contracts/contracts/finalMarket_single.sol\":4100:4136  IERC721(_nftContractAddress).ownerOf */\n      0xffffffffffffffffffffffffffffffffffffffff\n      and\n      0x6352211e\n        /* \"Arevea-NFT-Market/NFT-Contracts/contracts/finalMarket_single.sol\":4137:4145  _tokenId */\n      dup3\n        /* \"Arevea-NFT-Market/NFT-Contracts/contracts/finalMarket_single.sol\":4100:4146  IERC721(_nftContractAddress).ownerOf(_tokenId) */\n      mload(0x40)\n      dup3\n      0xffffffff\n      and\n      0xe0\n      shl\n      dup2\n      mstore\n      0x04\n      add\n      tag_202\n      swap2\n      swap1\n      tag_62\n      jump\t// in\n    tag_202:\n      0x20\n      mload(0x40)\n      dup1\n      dup4\n      sub\n      dup2\n      dup7\n      gas\n      staticcall\n      iszero\n      dup1\n      iszero\n      tag_204\n      jumpi\n      returndatasize\n      0x00\n      dup1\n      returndatacopy\n      revert(0x00, returndatasize)\n    tag_204:\n      pop\n      pop\n      pop\n      pop\n      mload(0x40)\n      returndatasize\n      not(0x1f)\n      0x1f\n      dup3\n      add\n      and\n      dup3\n      add\n      dup1\n      0x40\n      mstore\n      pop\n      dup2\n      add\n      swap1\n      tag_205\n      swap2\n      swap1\n      tag_206\n      jump\t// in\n    tag_205:\n        /* \"Arevea-NFT-Market/NFT-Contracts/contracts/finalMarket_single.sol\":4086:4146  msg.sender == IERC721(_nftContractAddress).ownerOf(_tokenId) */\n      0xffffffffffffffffffffffffffffffffffffffff\n      and\n        /* \"Arevea-NFT-Market/NFT-Contracts/contracts/finalMarket_single.sol\":4086:4096  msg.sender */\n      caller\n        /* \"Arevea-NFT-Market/NFT-Contracts/contracts/finalMarket_single.sol\":4086:4146  msg.sender == IERC721(_nftContractAddress).ownerOf(_tokenId) */\n      0xffffffffffffffffffffffffffffffffffffffff\n      and\n      eq\n        /* \"Arevea-NFT-Market/NFT-Contracts/contracts/finalMarket_single.sol\":4064:4195  require(... */\n      tag_207\n      jumpi\n      mload(0x40)\n      0x08c379a000000000000000000000000000000000000000000000000000000000\n      dup2\n      mstore\n      0x04\n      add\n      tag_208\n      swap1\n      tag_166\n      jump\t// in\n    tag_208:\n      mload(0x40)\n      dup1\n      swap2\n      sub\n      swap1\n      revert\n    tag_207:\n        /* \"Arevea-NFT-Market/NFT-Contracts/contracts/finalMarket_single.sol\":8476:8495  _nftContractAddress */\n      dup6\n        /* \"Arevea-NFT-Market/NFT-Contracts/contracts/finalMarket_single.sol\":8497:8505  _tokenId */\n      dup5\n        /* \"Arevea-NFT-Market/NFT-Contracts/contracts/finalMarket_single.sol\":3434:3435  0 */\n      0x00\n        /* \"Arevea-NFT-Market/NFT-Contracts/contracts/finalMarket_single.sol\":3386:3399  nftSaleStatus */\n      0x02\n        /* \"Arevea-NFT-Market/NFT-Contracts/contracts/finalMarket_single.sol\":3386:3420  nftSaleStatus[_nftContractAddress] */\n      0x00\n        /* \"Arevea-NFT-Market/NFT-Contracts/contracts/finalMarket_single.sol\":3400:3419  _nftContractAddress */\n      dup5\n        /* \"Arevea-NFT-Market/NFT-Contracts/contracts/finalMarket_single.sol\":3386:3420  nftSaleStatus[_nftContractAddress] */\n      0xffffffffffffffffffffffffffffffffffffffff\n      and\n      0xffffffffffffffffffffffffffffffffffffffff\n      and\n      dup2\n      mstore\n      0x20\n      add\n      swap1\n      dup2\n      mstore\n      0x20\n      add\n      0x00\n      keccak256\n        /* \"Arevea-NFT-Market/NFT-Contracts/contracts/finalMarket_single.sol\":3386:3430  nftSaleStatus[_nftContractAddress][_tokenId] */\n      0x00\n        /* \"Arevea-NFT-Market/NFT-Contracts/contracts/finalMarket_single.sol\":3421:3429  _tokenId */\n      dup4\n        /* \"Arevea-NFT-Market/NFT-Contracts/contracts/finalMarket_single.sol\":3386:3430  nftSaleStatus[_nftContractAddress][_tokenId] */\n      dup2\n      mstore\n      0x20\n      add\n      swap1\n      dup2\n      mstore\n      0x20\n      add\n      0x00\n      keccak256\n      sload\n        /* \"Arevea-NFT-Market/NFT-Contracts/contracts/finalMarket_single.sol\":3386:3435  nftSaleStatus[_nftContractAddress][_tokenId] == 0 */\n      eq\n        /* \"Arevea-NFT-Market/NFT-Contracts/contracts/finalMarket_single.sol\":3364:3482  require(... */\n      tag_210\n      jumpi\n      mload(0x40)\n      0x08c379a000000000000000000000000000000000000000000000000000000000\n      dup2\n      mstore\n      0x04\n      add\n      tag_211\n      swap1\n      tag_212\n      jump\t// in\n    tag_211:\n      mload(0x40)\n      dup1\n      swap2\n      sub\n      swap1\n      revert\n    tag_210:\n        /* \"Arevea-NFT-Market/NFT-Contracts/contracts/finalMarket_single.sol\":8534:8553  _nftContractAddress */\n      dup8\n        /* \"Arevea-NFT-Market/NFT-Contracts/contracts/finalMarket_single.sol\":8555:8563  _tokenId */\n      dup7\n        /* \"Arevea-NFT-Market/NFT-Contracts/contracts/finalMarket_single.sol\":4615:4634  _nftContractAddress */\n      dup2\n        /* \"Arevea-NFT-Market/NFT-Contracts/contracts/finalMarket_single.sol\":4607:4652  IERC721(_nftContractAddress).isApprovedForAll */\n      0xffffffffffffffffffffffffffffffffffffffff\n      and\n      0xe985e9c5\n        /* \"Arevea-NFT-Market/NFT-Contracts/contracts/finalMarket_single.sol\":4671:4681  msg.sender */\n      caller\n        /* \"Arevea-NFT-Market/NFT-Contracts/contracts/finalMarket_single.sol\":4708:4712  this */\n      address\n        /* \"Arevea-NFT-Market/NFT-Contracts/contracts/finalMarket_single.sol\":4607:4728  IERC721(_nftContractAddress).isApprovedForAll(... */\n      mload(0x40)\n      dup4\n      0xffffffff\n      and\n      0xe0\n      shl\n      dup2\n      mstore\n      0x04\n      add\n      tag_214\n      swap3\n      swap2\n      swap1\n      tag_215\n      jump\t// in\n    tag_214:\n      0x20\n      mload(0x40)\n      dup1\n      dup4\n      sub\n      dup2\n      dup7\n      gas\n      staticcall\n      iszero\n      dup1\n      iszero\n      tag_217\n      jumpi\n      returndatasize\n      0x00\n      dup1\n      returndatacopy\n      revert(0x00, returndatasize)\n    tag_217:\n      pop\n      pop\n      pop\n      pop\n      mload(0x40)\n      returndatasize\n      not(0x1f)\n      0x1f\n      dup3\n      add\n      and\n      dup3\n      add\n      dup1\n      0x40\n      mstore\n      pop\n      dup2\n      add\n      swap1\n      tag_218\n      swap2\n      swap1\n      tag_219\n      jump\t// in\n    tag_218:\n        /* \"Arevea-NFT-Market/NFT-Contracts/contracts/finalMarket_single.sol\":4585:4784  require(... */\n      tag_220\n      jumpi\n      mload(0x40)\n      0x08c379a000000000000000000000000000000000000000000000000000000000\n      dup2\n      mstore\n      0x04\n      add\n      tag_221\n      swap1\n      tag_222\n      jump\t// in\n    tag_221:\n      mload(0x40)\n      dup1\n      swap2\n      sub\n      swap1\n      revert\n    tag_220:\n        /* \"Arevea-NFT-Market/NFT-Contracts/contracts/finalMarket_single.sol\":8595:8605  _salePrice */\n      dup7\n        /* \"Arevea-NFT-Market/NFT-Contracts/contracts/finalMarket_single.sol\":8147:8148  0 */\n      0x00\n        /* \"Arevea-NFT-Market/NFT-Contracts/contracts/finalMarket_single.sol\":8138:8144  _price */\n      dup2\n        /* \"Arevea-NFT-Market/NFT-Contracts/contracts/finalMarket_single.sol\":8138:8148  _price > 0 */\n      gt\n        /* \"Arevea-NFT-Market/NFT-Contracts/contracts/finalMarket_single.sol\":8130:8170  require(_price > 0, \"Price cannot be 0\") */\n      tag_224\n      jumpi\n      mload(0x40)\n      0x08c379a000000000000000000000000000000000000000000000000000000000\n      dup2\n      mstore\n      0x04\n      add\n      tag_225\n      swap1\n      tag_118\n      jump\t// in\n    tag_225:\n      mload(0x40)\n      dup1\n      swap2\n      sub\n      swap1\n      revert\n    tag_224:\n        /* \"Arevea-NFT-Market/NFT-Contracts/contracts/finalMarket_single.sol\":8677:8793  FixedSale(... */\n      mload(0x40)\n      dup1\n      0x80\n      add\n      0x40\n      mstore\n      dup1\n        /* \"Arevea-NFT-Market/NFT-Contracts/contracts/finalMarket_single.sol\":8701:8711  msg.sender */\n      caller\n        /* \"Arevea-NFT-Market/NFT-Contracts/contracts/finalMarket_single.sol\":8677:8793  FixedSale(... */\n      0xffffffffffffffffffffffffffffffffffffffff\n      and\n      dup2\n      mstore\n      0x20\n      add\n        /* \"Arevea-NFT-Market/NFT-Contracts/contracts/finalMarket_single.sol\":8734:8735  0 */\n      0x00\n        /* \"Arevea-NFT-Market/NFT-Contracts/contracts/finalMarket_single.sol\":8677:8793  FixedSale(... */\n      0xffffffffffffffffffffffffffffffffffffffff\n      and\n      dup2\n      mstore\n      0x20\n      add\n        /* \"Arevea-NFT-Market/NFT-Contracts/contracts/finalMarket_single.sol\":8751:8757  _erc20 */\n      dup12\n        /* \"Arevea-NFT-Market/NFT-Contracts/contracts/finalMarket_single.sol\":8677:8793  FixedSale(... */\n      0xffffffffffffffffffffffffffffffffffffffff\n      and\n      dup2\n      mstore\n      0x20\n      add\n        /* \"Arevea-NFT-Market/NFT-Contracts/contracts/finalMarket_single.sol\":8772:8782  _salePrice */\n      dup10\n        /* \"Arevea-NFT-Market/NFT-Contracts/contracts/finalMarket_single.sol\":8677:8793  FixedSale(... */\n      dup2\n      mstore\n      pop\n        /* \"Arevea-NFT-Market/NFT-Contracts/contracts/finalMarket_single.sol\":8623:8643  nftContractFixedSale */\n      0x00\n        /* \"Arevea-NFT-Market/NFT-Contracts/contracts/finalMarket_single.sol\":8623:8664  nftContractFixedSale[_nftContractAddress] */\n      dup1\n        /* \"Arevea-NFT-Market/NFT-Contracts/contracts/finalMarket_single.sol\":8644:8663  _nftContractAddress */\n      dup14\n        /* \"Arevea-NFT-Market/NFT-Contracts/contracts/finalMarket_single.sol\":8623:8664  nftContractFixedSale[_nftContractAddress] */\n      0xffffffffffffffffffffffffffffffffffffffff\n      and\n      0xffffffffffffffffffffffffffffffffffffffff\n      and\n      dup2\n      mstore\n      0x20\n      add\n      swap1\n      dup2\n      mstore\n      0x20\n      add\n      0x00\n      keccak256\n        /* \"Arevea-NFT-Market/NFT-Contracts/contracts/finalMarket_single.sol\":8623:8674  nftContractFixedSale[_nftContractAddress][_tokenId] */\n      0x00\n        /* \"Arevea-NFT-Market/NFT-Contracts/contracts/finalMarket_single.sol\":8665:8673  _tokenId */\n      dup12\n        /* \"Arevea-NFT-Market/NFT-Contracts/contracts/finalMarket_single.sol\":8623:8674  nftContractFixedSale[_nftContractAddress][_tokenId] */\n      dup2\n      mstore\n      0x20\n      add\n      swap1\n      dup2\n      mstore\n      0x20\n      add\n      0x00\n      keccak256\n        /* \"Arevea-NFT-Market/NFT-Contracts/contracts/finalMarket_single.sol\":8623:8793  nftContractFixedSale[_nftContractAddress][_tokenId] = FixedSale(... */\n      0x00\n      dup3\n      add\n      mload\n      dup2\n      0x00\n      add\n      exp(0x0100, 0x00)\n      dup2\n      sload\n      dup2\n      0xffffffffffffffffffffffffffffffffffffffff\n      mul\n      not\n      and\n      swap1\n      dup4\n      0xffffffffffffffffffffffffffffffffffffffff\n      and\n      mul\n      or\n      swap1\n      sstore\n      pop\n      0x20\n      dup3\n      add\n      mload\n      dup2\n      0x01\n      add\n      exp(0x0100, 0x00)\n      dup2\n      sload\n      dup2\n      0xffffffffffffffffffffffffffffffffffffffff\n      mul\n      not\n      and\n      swap1\n      dup4\n      0xffffffffffffffffffffffffffffffffffffffff\n      and\n      mul\n      or\n      swap1\n      sstore\n      pop\n      0x40\n      dup3\n      add\n      mload\n      dup2\n      0x02\n      add\n      exp(0x0100, 0x00)\n      dup2\n      sload\n      dup2\n      0xffffffffffffffffffffffffffffffffffffffff\n      mul\n      not\n      and\n      swap1\n      dup4\n      0xffffffffffffffffffffffffffffffffffffffff\n      and\n      mul\n      or\n      swap1\n      sstore\n      pop\n      0x60\n      dup3\n      add\n      mload\n      dup2\n      0x03\n      add\n      sstore\n      swap1\n      pop\n      pop\n        /* \"Arevea-NFT-Market/NFT-Contracts/contracts/finalMarket_single.sol\":8853:8854  1 */\n      0x01\n        /* \"Arevea-NFT-Market/NFT-Contracts/contracts/finalMarket_single.sol\":8806:8819  nftSaleStatus */\n      0x02\n        /* \"Arevea-NFT-Market/NFT-Contracts/contracts/finalMarket_single.sol\":8806:8840  nftSaleStatus[_nftContractAddress] */\n      0x00\n        /* \"Arevea-NFT-Market/NFT-Contracts/contracts/finalMarket_single.sol\":8820:8839  _nftContractAddress */\n      dup14\n        /* \"Arevea-NFT-Market/NFT-Contracts/contracts/finalMarket_single.sol\":8806:8840  nftSaleStatus[_nftContractAddress] */\n      0xffffffffffffffffffffffffffffffffffffffff\n      and\n      0xffffffffffffffffffffffffffffffffffffffff\n      and\n      dup2\n      mstore\n      0x20\n      add\n      swap1\n      dup2\n      mstore\n      0x20\n      add\n      0x00\n      keccak256\n        /* \"Arevea-NFT-Market/NFT-Contracts/contracts/finalMarket_single.sol\":8806:8850  nftSaleStatus[_nftContractAddress][_tokenId] */\n      0x00\n        /* \"Arevea-NFT-Market/NFT-Contracts/contracts/finalMarket_single.sol\":8841:8849  _tokenId */\n      dup12\n        /* \"Arevea-NFT-Market/NFT-Contracts/contracts/finalMarket_single.sol\":8806:8850  nftSaleStatus[_nftContractAddress][_tokenId] */\n      dup2\n      mstore\n      0x20\n      add\n      swap1\n      dup2\n      mstore\n      0x20\n      add\n      0x00\n      keccak256\n        /* \"Arevea-NFT-Market/NFT-Contracts/contracts/finalMarket_single.sol\":8806:8854  nftSaleStatus[_nftContractAddress][_tokenId] = 1 */\n      dup2\n      swap1\n      sstore\n      pop\n        /* \"Arevea-NFT-Market/NFT-Contracts/contracts/finalMarket_single.sol\":8918:8930  fixedSaleNFT */\n      0x06\n        /* \"Arevea-NFT-Market/NFT-Contracts/contracts/finalMarket_single.sol\":8918:8937  fixedSaleNFT.length */\n      dup1\n      sload\n      swap1\n      pop\n        /* \"Arevea-NFT-Market/NFT-Contracts/contracts/finalMarket_single.sol\":8867:8884  indexFixedSaleNFT */\n      0x04\n        /* \"Arevea-NFT-Market/NFT-Contracts/contracts/finalMarket_single.sol\":8867:8905  indexFixedSaleNFT[_nftContractAddress] */\n      0x00\n        /* \"Arevea-NFT-Market/NFT-Contracts/contracts/finalMarket_single.sol\":8885:8904  _nftContractAddress */\n      dup14\n        /* \"Arevea-NFT-Market/NFT-Contracts/contracts/finalMarket_single.sol\":8867:8905  indexFixedSaleNFT[_nftContractAddress] */\n      0xffffffffffffffffffffffffffffffffffffffff\n      and\n      0xffffffffffffffffffffffffffffffffffffffff\n      and\n      dup2\n      mstore\n      0x20\n      add\n      swap1\n      dup2\n      mstore\n      0x20\n      add\n      0x00\n      keccak256\n        /* \"Arevea-NFT-Market/NFT-Contracts/contracts/finalMarket_single.sol\":8867:8915  indexFixedSaleNFT[_nftContractAddress][_tokenId] */\n      0x00\n        /* \"Arevea-NFT-Market/NFT-Contracts/contracts/finalMarket_single.sol\":8906:8914  _tokenId */\n      dup12\n        /* \"Arevea-NFT-Market/NFT-Contracts/contracts/finalMarket_single.sol\":8867:8915  indexFixedSaleNFT[_nftContractAddress][_tokenId] */\n      dup2\n      mstore\n      0x20\n      add\n      swap1\n      dup2\n      mstore\n      0x20\n      add\n      0x00\n      keccak256\n        /* \"Arevea-NFT-Market/NFT-Contracts/contracts/finalMarket_single.sol\":8867:8937  indexFixedSaleNFT[_nftContractAddress][_tokenId] = fixedSaleNFT.length */\n      dup2\n      swap1\n      sstore\n      pop\n        /* \"Arevea-NFT-Market/NFT-Contracts/contracts/finalMarket_single.sol\":8948:8960  fixedSaleNFT */\n      0x06\n        /* \"Arevea-NFT-Market/NFT-Contracts/contracts/finalMarket_single.sol\":8966:9005  SaleInfo(_nftContractAddress, _tokenId) */\n      mload(0x40)\n      dup1\n      0x40\n      add\n      0x40\n      mstore\n      dup1\n        /* \"Arevea-NFT-Market/NFT-Contracts/contracts/finalMarket_single.sol\":8975:8994  _nftContractAddress */\n      dup14\n        /* \"Arevea-NFT-Market/NFT-Contracts/contracts/finalMarket_single.sol\":8966:9005  SaleInfo(_nftContractAddress, _tokenId) */\n      0xffffffffffffffffffffffffffffffffffffffff\n      and\n      dup2\n      mstore\n      0x20\n      add\n        /* \"Arevea-NFT-Market/NFT-Contracts/contracts/finalMarket_single.sol\":8996:9004  _tokenId */\n      dup12\n        /* \"Arevea-NFT-Market/NFT-Contracts/contracts/finalMarket_single.sol\":8966:9005  SaleInfo(_nftContractAddress, _tokenId) */\n      dup2\n      mstore\n      pop\n        /* \"Arevea-NFT-Market/NFT-Contracts/contracts/finalMarket_single.sol\":8948:9006  fixedSaleNFT.push(SaleInfo(_nftContractAddress, _tokenId)) */\n      swap1\n      dup1\n      0x01\n      dup2\n      sload\n      add\n      dup1\n      dup3\n      sstore\n      dup1\n      swap2\n      pop\n      pop\n      0x01\n      swap1\n      sub\n      swap1\n      0x00\n      mstore\n      keccak256(0x00, 0x20)\n      swap1\n      0x02\n      mul\n      add\n      0x00\n      swap1\n      swap2\n      swap1\n      swap2\n      swap1\n      swap2\n      pop\n      0x00\n      dup3\n      add\n      mload\n      dup2\n      0x00\n      add\n      exp(0x0100, 0x00)\n      dup2\n      sload\n      dup2\n      0xffffffffffffffffffffffffffffffffffffffff\n      mul\n      not\n      and\n      swap1\n      dup4\n      0xffffffffffffffffffffffffffffffffffffffff\n      and\n      mul\n      or\n      swap1\n      sstore\n      pop\n      0x20\n      dup3\n      add\n      mload\n      dup2\n      0x01\n      add\n      sstore\n      pop\n      pop\n        /* \"Arevea-NFT-Market/NFT-Contracts/contracts/finalMarket_single.sol\":9027:9046  _nftContractAddress */\n      dup11\n        /* \"Arevea-NFT-Market/NFT-Contracts/contracts/finalMarket_single.sol\":9019:9064  IERC721(_nftContractAddress).safeTransferFrom */\n      0xffffffffffffffffffffffffffffffffffffffff\n      and\n      0x42842e0e\n        /* \"Arevea-NFT-Market/NFT-Contracts/contracts/finalMarket_single.sol\":9079:9089  msg.sender */\n      caller\n        /* \"Arevea-NFT-Market/NFT-Contracts/contracts/finalMarket_single.sol\":9112:9116  this */\n      address\n        /* \"Arevea-NFT-Market/NFT-Contracts/contracts/finalMarket_single.sol\":9132:9140  _tokenId */\n      dup13\n        /* \"Arevea-NFT-Market/NFT-Contracts/contracts/finalMarket_single.sol\":9019:9151  IERC721(_nftContractAddress).safeTransferFrom(... */\n      mload(0x40)\n      dup5\n      0xffffffff\n      and\n      0xe0\n      shl\n      dup2\n      mstore\n      0x04\n      add\n      tag_228\n      swap4\n      swap3\n      swap2\n      swap1\n      tag_229\n      jump\t// in\n    tag_228:\n      0x00\n      mload(0x40)\n      dup1\n      dup4\n      sub\n      dup2\n      0x00\n      dup8\n      dup1\n      extcodesize\n      iszero\n      dup1\n      iszero\n      tag_230\n      jumpi\n      0x00\n      dup1\n      revert\n    tag_230:\n      pop\n      gas\n      call\n      iszero\n      dup1\n      iszero\n      tag_232\n      jumpi\n      returndatasize\n      0x00\n      dup1\n      returndatacopy\n      revert(0x00, returndatasize)\n    tag_232:\n      pop\n      pop\n      pop\n      pop\n        /* \"Arevea-NFT-Market/NFT-Contracts/contracts/finalMarket_single.sol\":9169:9350  NftFixedSale(... */\n      0x078eead3cd01ed921c7653d000a6b73aea643a7b9c066fb7d93eb2eae8acc2d9\n        /* \"Arevea-NFT-Market/NFT-Contracts/contracts/finalMarket_single.sol\":9196:9215  _nftContractAddress */\n      dup12\n        /* \"Arevea-NFT-Market/NFT-Contracts/contracts/finalMarket_single.sol\":9230:9240  msg.sender */\n      caller\n        /* \"Arevea-NFT-Market/NFT-Contracts/contracts/finalMarket_single.sol\":9255:9261  _erc20 */\n      dup13\n        /* \"Arevea-NFT-Market/NFT-Contracts/contracts/finalMarket_single.sol\":9276:9284  _tokenId */\n      dup13\n        /* \"Arevea-NFT-Market/NFT-Contracts/contracts/finalMarket_single.sol\":9299:9309  _salePrice */\n      dup13\n        /* \"Arevea-NFT-Market/NFT-Contracts/contracts/finalMarket_single.sol\":9324:9339  block.timestamp */\n      timestamp\n        /* \"Arevea-NFT-Market/NFT-Contracts/contracts/finalMarket_single.sol\":9169:9350  NftFixedSale(... */\n      mload(0x40)\n      tag_233\n      swap7\n      swap6\n      swap5\n      swap4\n      swap3\n      swap2\n      swap1\n      tag_234\n      jump\t// in\n    tag_233:\n      mload(0x40)\n      dup1\n      swap2\n      sub\n      swap1\n      log1\n        /* \"Arevea-NFT-Market/NFT-Contracts/contracts/finalMarket_single.sol\":4795:4796  _ */\n      pop\n        /* \"Arevea-NFT-Market/NFT-Contracts/contracts/finalMarket_single.sol\":3493:3494  _ */\n      pop\n      pop\n        /* \"Arevea-NFT-Market/NFT-Contracts/contracts/finalMarket_single.sol\":4206:4207  _ */\n      pop\n      pop\n        /* \"Arevea-NFT-Market/NFT-Contracts/contracts/finalMarket_single.sol\":8223:9358  function nftFixedSale(... */\n      pop\n      pop\n      pop\n      pop\n      pop\n      pop\n      jump\t// out\n        /* \"Arevea-NFT-Market/NFT-Contracts/contracts/finalMarket_single.sol\":18029:18253  function getNftAuctionSaleDetails(... */\n    tag_71:\n        /* \"Arevea-NFT-Market/NFT-Contracts/contracts/finalMarket_single.sol\":18158:18172  Auction memory */\n      tag_235\n      tag_236\n      jump\t// in\n    tag_235:\n        /* \"Arevea-NFT-Market/NFT-Contracts/contracts/finalMarket_single.sol\":18192:18214  nftContractAuctionSale */\n      0x01\n        /* \"Arevea-NFT-Market/NFT-Contracts/contracts/finalMarket_single.sol\":18192:18235  nftContractAuctionSale[_nftContractAddress] */\n      0x00\n        /* \"Arevea-NFT-Market/NFT-Contracts/contracts/finalMarket_single.sol\":18215:18234  _nftContractAddress */\n      dup5\n        /* \"Arevea-NFT-Market/NFT-Contracts/contracts/finalMarket_single.sol\":18192:18235  nftContractAuctionSale[_nftContractAddress] */\n      0xffffffffffffffffffffffffffffffffffffffff\n      and\n      0xffffffffffffffffffffffffffffffffffffffff\n      and\n      dup2\n      mstore\n      0x20\n      add\n      swap1\n      dup2\n      mstore\n      0x20\n      add\n      0x00\n      keccak256\n        /* \"Arevea-NFT-Market/NFT-Contracts/contracts/finalMarket_single.sol\":18192:18245  nftContractAuctionSale[_nftContractAddress][_tokenId] */\n      0x00\n        /* \"Arevea-NFT-Market/NFT-Contracts/contracts/finalMarket_single.sol\":18236:18244  _tokenId */\n      dup4\n        /* \"Arevea-NFT-Market/NFT-Contracts/contracts/finalMarket_single.sol\":18192:18245  nftContractAuctionSale[_nftContractAddress][_tokenId] */\n      dup2\n      mstore\n      0x20\n      add\n      swap1\n      dup2\n      mstore\n      0x20\n      add\n      0x00\n      keccak256\n        /* \"Arevea-NFT-Market/NFT-Contracts/contracts/finalMarket_single.sol\":18185:18245  return nftContractAuctionSale[_nftContractAddress][_tokenId] */\n      mload(0x40)\n      dup1\n      0xe0\n      add\n      0x40\n      mstore\n      swap1\n      dup2\n      0x00\n      dup3\n      add\n      sload\n      dup2\n      mstore\n      0x20\n      add\n      0x01\n      dup3\n      add\n      sload\n      dup2\n      mstore\n      0x20\n      add\n      0x02\n      dup3\n      add\n      sload\n      dup2\n      mstore\n      0x20\n      add\n      0x03\n      dup3\n      add\n      sload\n      dup2\n      mstore\n      0x20\n      add\n      0x04\n      dup3\n      add\n      0x00\n      swap1\n      sload\n      swap1\n      0x0100\n      exp\n      swap1\n      div\n      0xffffffffffffffffffffffffffffffffffffffff\n      and\n      0xffffffffffffffffffffffffffffffffffffffff\n      and\n      0xffffffffffffffffffffffffffffffffffffffff\n      and\n      dup2\n      mstore\n      0x20\n      add\n      0x05\n      dup3\n      add\n      0x00\n      swap1\n      sload\n      swap1\n      0x0100\n      exp\n      swap1\n      div\n      0xffffffffffffffffffffffffffffffffffffffff\n      and\n      0xffffffffffffffffffffffffffffffffffffffff\n      and\n      0xffffffffffffffffffffffffffffffffffffffff\n      and\n      dup2\n      mstore\n      0x20\n      add\n      0x06\n      dup3\n      add\n      0x00\n      swap1\n      sload\n      swap1\n      0x0100\n      exp\n      swap1\n      div\n      0xffffffffffffffffffffffffffffffffffffffff\n      and\n      0xffffffffffffffffffffffffffffffffffffffff\n      and\n      0xffffffffffffffffffffffffffffffffffffffff\n      and\n      dup2\n      mstore\n      pop\n      pop\n      swap1\n      pop\n        /* \"Arevea-NFT-Market/NFT-Contracts/contracts/finalMarket_single.sol\":18029:18253  function getNftAuctionSaleDetails(... */\n      swap3\n      swap2\n      pop\n      pop\n      jump\t// out\n        /* \"Arevea-NFT-Market/NFT-Contracts/contracts/finalMarket_single.sol\":1134:1235  mapping(address => mapping(uint256 => mapping(address => uint256)))... */\n    tag_78:\n      mstore(0x20, 0x03)\n      dup3\n      0x00\n      mstore\n      mstore(0x20, keccak256(0x00, 0x40))\n      dup2\n      0x00\n      mstore\n      mstore(0x20, keccak256(0x00, 0x40))\n      dup1\n      0x00\n      mstore\n      keccak256(0x00, 0x40)\n      0x00\n      swap3\n      pop\n      swap3\n      pop\n      pop\n      pop\n      sload\n      dup2\n      jump\t// out\n        /* \"Arevea-NFT-Market/NFT-Contracts/contracts/finalMarket_single.sol\":15498:16239  function _cancelAuctionSale(address _nftContractAddress, uint256 _tokenId)... */\n    tag_83:\n        /* \"Arevea-NFT-Market/NFT-Contracts/contracts/finalMarket_single.sol\":15619:15638  _nftContractAddress */\n      dup2\n        /* \"Arevea-NFT-Market/NFT-Contracts/contracts/finalMarket_single.sol\":15640:15648  _tokenId */\n      dup2\n        /* \"Arevea-NFT-Market/NFT-Contracts/contracts/finalMarket_single.sol\":3898:3899  2 */\n      0x02\n        /* \"Arevea-NFT-Market/NFT-Contracts/contracts/finalMarket_single.sol\":3850:3863  nftSaleStatus */\n      dup1\n        /* \"Arevea-NFT-Market/NFT-Contracts/contracts/finalMarket_single.sol\":3850:3884  nftSaleStatus[_nftContractAddress] */\n      0x00\n        /* \"Arevea-NFT-Market/NFT-Contracts/contracts/finalMarket_single.sol\":3864:3883  _nftContractAddress */\n      dup5\n        /* \"Arevea-NFT-Market/NFT-Contracts/contracts/finalMarket_single.sol\":3850:3884  nftSaleStatus[_nftContractAddress] */\n      0xffffffffffffffffffffffffffffffffffffffff\n      and\n      0xffffffffffffffffffffffffffffffffffffffff\n      and\n      dup2\n      mstore\n      0x20\n      add\n      swap1\n      dup2\n      mstore\n      0x20\n      add\n      0x00\n      keccak256\n        /* \"Arevea-NFT-Market/NFT-Contracts/contracts/finalMarket_single.sol\":3850:3894  nftSaleStatus[_nftContractAddress][_tokenId] */\n      0x00\n        /* \"Arevea-NFT-Market/NFT-Contracts/contracts/finalMarket_single.sol\":3885:3893  _tokenId */\n      dup4\n        /* \"Arevea-NFT-Market/NFT-Contracts/contracts/finalMarket_single.sol\":3850:3894  nftSaleStatus[_nftContractAddress][_tokenId] */\n      dup2\n      mstore\n      0x20\n      add\n      swap1\n      dup2\n      mstore\n      0x20\n      add\n      0x00\n      keccak256\n      sload\n        /* \"Arevea-NFT-Market/NFT-Contracts/contracts/finalMarket_single.sol\":3850:3899  nftSaleStatus[_nftContractAddress][_tokenId] == 2 */\n      eq\n        /* \"Arevea-NFT-Market/NFT-Contracts/contracts/finalMarket_single.sol\":3828:3950  require(... */\n      tag_239\n      jumpi\n      mload(0x40)\n      0x08c379a000000000000000000000000000000000000000000000000000000000\n      dup2\n      mstore\n      0x04\n      add\n      tag_240\n      swap1\n      tag_110\n      jump\t// in\n    tag_240:\n      mload(0x40)\n      dup1\n      swap2\n      sub\n      swap1\n      revert\n    tag_239:\n        /* \"Arevea-NFT-Market/NFT-Contracts/contracts/finalMarket_single.sol\":15681:15700  _nftContractAddress */\n      dup4\n        /* \"Arevea-NFT-Market/NFT-Contracts/contracts/finalMarket_single.sol\":15702:15710  _tokenId */\n      dup4\n        /* \"Arevea-NFT-Market/NFT-Contracts/contracts/finalMarket_single.sol\":6387:6409  nftContractAuctionSale */\n      0x01\n        /* \"Arevea-NFT-Market/NFT-Contracts/contracts/finalMarket_single.sol\":6387:6430  nftContractAuctionSale[_nftContractAddress] */\n      0x00\n        /* \"Arevea-NFT-Market/NFT-Contracts/contracts/finalMarket_single.sol\":6410:6429  _nftContractAddress */\n      dup4\n        /* \"Arevea-NFT-Market/NFT-Contracts/contracts/finalMarket_single.sol\":6387:6430  nftContractAuctionSale[_nftContractAddress] */\n      0xffffffffffffffffffffffffffffffffffffffff\n      and\n      0xffffffffffffffffffffffffffffffffffffffff\n      and\n      dup2\n      mstore\n      0x20\n      add\n      swap1\n      dup2\n      mstore\n      0x20\n      add\n      0x00\n      keccak256\n        /* \"Arevea-NFT-Market/NFT-Contracts/contracts/finalMarket_single.sol\":6387:6440  nftContractAuctionSale[_nftContractAddress][_tokenId] */\n      0x00\n        /* \"Arevea-NFT-Market/NFT-Contracts/contracts/finalMarket_single.sol\":6431:6439  _tokenId */\n      dup3\n        /* \"Arevea-NFT-Market/NFT-Contracts/contracts/finalMarket_single.sol\":6387:6440  nftContractAuctionSale[_nftContractAddress][_tokenId] */\n      dup2\n      mstore\n      0x20\n      add\n      swap1\n      dup2\n      mstore\n      0x20\n      add\n      0x00\n      keccak256\n        /* \"Arevea-NFT-Market/NFT-Contracts/contracts/finalMarket_single.sol\":6387:6450  nftContractAuctionSale[_nftContractAddress][_tokenId].nftSeller */\n      0x05\n      add\n      0x00\n      swap1\n      sload\n      swap1\n      0x0100\n      exp\n      swap1\n      div\n      0xffffffffffffffffffffffffffffffffffffffff\n      and\n        /* \"Arevea-NFT-Market/NFT-Contracts/contracts/finalMarket_single.sol\":6356:6450  msg.sender ==... */\n      0xffffffffffffffffffffffffffffffffffffffff\n      and\n        /* \"Arevea-NFT-Market/NFT-Contracts/contracts/finalMarket_single.sol\":6356:6366  msg.sender */\n      caller\n        /* \"Arevea-NFT-Market/NFT-Contracts/contracts/finalMarket_single.sol\":6356:6450  msg.sender ==... */\n      0xffffffffffffffffffffffffffffffffffffffff\n      and\n      eq\n        /* \"Arevea-NFT-Market/NFT-Contracts/contracts/finalMarket_single.sol\":6334:6491  require(... */\n      tag_242\n      jumpi\n      mload(0x40)\n      0x08c379a000000000000000000000000000000000000000000000000000000000\n      dup2\n      mstore\n      0x04\n      add\n      tag_243\n      swap1\n      tag_244\n      jump\t// in\n    tag_243:\n      mload(0x40)\n      dup1\n      swap2\n      sub\n      swap1\n      revert\n    tag_242:\n        /* \"Arevea-NFT-Market/NFT-Contracts/contracts/finalMarket_single.sol\":15738:15757  _nftContractAddress */\n      dup6\n        /* \"Arevea-NFT-Market/NFT-Contracts/contracts/finalMarket_single.sol\":15759:15767  _tokenId */\n      dup6\n        /* \"Arevea-NFT-Market/NFT-Contracts/contracts/finalMarket_single.sol\":6067:6089  nftContractAuctionSale */\n      0x01\n        /* \"Arevea-NFT-Market/NFT-Contracts/contracts/finalMarket_single.sol\":6067:6110  nftContractAuctionSale[_nftContractAddress] */\n      0x00\n        /* \"Arevea-NFT-Market/NFT-Contracts/contracts/finalMarket_single.sol\":6090:6109  _nftContractAddress */\n      dup4\n        /* \"Arevea-NFT-Market/NFT-Contracts/contracts/finalMarket_single.sol\":6067:6110  nftContractAuctionSale[_nftContractAddress] */\n      0xffffffffffffffffffffffffffffffffffffffff\n      and\n      0xffffffffffffffffffffffffffffffffffffffff\n      and\n      dup2\n      mstore\n      0x20\n      add\n      swap1\n      dup2\n      mstore\n      0x20\n      add\n      0x00\n      keccak256\n        /* \"Arevea-NFT-Market/NFT-Contracts/contracts/finalMarket_single.sol\":6067:6120  nftContractAuctionSale[_nftContractAddress][_tokenId] */\n      0x00\n        /* \"Arevea-NFT-Market/NFT-Contracts/contracts/finalMarket_single.sol\":6111:6119  _tokenId */\n      dup3\n        /* \"Arevea-NFT-Market/NFT-Contracts/contracts/finalMarket_single.sol\":6067:6120  nftContractAuctionSale[_nftContractAddress][_tokenId] */\n      dup2\n      mstore\n      0x20\n      add\n      swap1\n      dup2\n      mstore\n      0x20\n      add\n      0x00\n      keccak256\n        /* \"Arevea-NFT-Market/NFT-Contracts/contracts/finalMarket_single.sol\":6067:6153  nftContractAuctionSale[_nftContractAddress][_tokenId]... */\n      0x01\n      add\n      sload\n        /* \"Arevea-NFT-Market/NFT-Contracts/contracts/finalMarket_single.sol\":6032:6047  block.timestamp */\n      timestamp\n        /* \"Arevea-NFT-Market/NFT-Contracts/contracts/finalMarket_single.sol\":6032:6153  block.timestamp <... */\n      lt\n        /* \"Arevea-NFT-Market/NFT-Contracts/contracts/finalMarket_single.sol\":6010:6192  require(... */\n      tag_246\n      jumpi\n      mload(0x40)\n      0x08c379a000000000000000000000000000000000000000000000000000000000\n      dup2\n      mstore\n      0x04\n      add\n      tag_247\n      swap1\n      tag_114\n      jump\t// in\n    tag_247:\n      mload(0x40)\n      dup1\n      swap2\n      sub\n      swap1\n      revert\n    tag_246:\n        /* \"Arevea-NFT-Market/NFT-Contracts/contracts/finalMarket_single.sol\":15798:15817  _nftContractAddress */\n      dup8\n        /* \"Arevea-NFT-Market/NFT-Contracts/contracts/finalMarket_single.sol\":15819:15827  _tokenId */\n      dup8\n        /* \"Arevea-NFT-Market/NFT-Contracts/contracts/finalMarket_single.sol\":7586:7608  nftContractAuctionSale */\n      0x01\n        /* \"Arevea-NFT-Market/NFT-Contracts/contracts/finalMarket_single.sol\":7586:7629  nftContractAuctionSale[_nftContractAddress] */\n      0x00\n        /* \"Arevea-NFT-Market/NFT-Contracts/contracts/finalMarket_single.sol\":7609:7628  _nftContractAddress */\n      dup4\n        /* \"Arevea-NFT-Market/NFT-Contracts/contracts/finalMarket_single.sol\":7586:7629  nftContractAuctionSale[_nftContractAddress] */\n      0xffffffffffffffffffffffffffffffffffffffff\n      and\n      0xffffffffffffffffffffffffffffffffffffffff\n      and\n      dup2\n      mstore\n      0x20\n      add\n      swap1\n      dup2\n      mstore\n      0x20\n      add\n      0x00\n      keccak256\n        /* \"Arevea-NFT-Market/NFT-Contracts/contracts/finalMarket_single.sol\":7586:7639  nftContractAuctionSale[_nftContractAddress][_tokenId] */\n      0x00\n        /* \"Arevea-NFT-Market/NFT-Contracts/contracts/finalMarket_single.sol\":7630:7638  _tokenId */\n      dup3\n        /* \"Arevea-NFT-Market/NFT-Contracts/contracts/finalMarket_single.sol\":7586:7639  nftContractAuctionSale[_nftContractAddress][_tokenId] */\n      dup2\n      mstore\n      0x20\n      add\n      swap1\n      dup2\n      mstore\n      0x20\n      add\n      0x00\n      keccak256\n        /* \"Arevea-NFT-Market/NFT-Contracts/contracts/finalMarket_single.sol\":7586:7678  nftContractAuctionSale[_nftContractAddress][_tokenId]... */\n      0x04\n      add\n      0x00\n      swap1\n      sload\n      swap1\n      0x0100\n      exp\n      swap1\n      div\n      0xffffffffffffffffffffffffffffffffffffffff\n      and\n        /* \"Arevea-NFT-Market/NFT-Contracts/contracts/finalMarket_single.sol\":7555:7678  address(0) ==... */\n      0xffffffffffffffffffffffffffffffffffffffff\n      and\n        /* \"Arevea-NFT-Market/NFT-Contracts/contracts/finalMarket_single.sol\":7563:7564  0 */\n      0x00\n        /* \"Arevea-NFT-Market/NFT-Contracts/contracts/finalMarket_single.sol\":7555:7678  address(0) ==... */\n      0xffffffffffffffffffffffffffffffffffffffff\n      and\n      eq\n        /* \"Arevea-NFT-Market/NFT-Contracts/contracts/finalMarket_single.sol\":7533:7714  require(... */\n      tag_249\n      jumpi\n      mload(0x40)\n      0x08c379a000000000000000000000000000000000000000000000000000000000\n      dup2\n      mstore\n      0x04\n      add\n      tag_250\n      swap1\n      tag_251\n      jump\t// in\n    tag_250:\n      mload(0x40)\n      dup1\n      swap2\n      sub\n      swap1\n      revert\n    tag_249:\n        /* \"Arevea-NFT-Market/NFT-Contracts/contracts/finalMarket_single.sol\":15892:15893  0 */\n      0x00\n        /* \"Arevea-NFT-Market/NFT-Contracts/contracts/finalMarket_single.sol\":15845:15858  nftSaleStatus */\n      0x02\n        /* \"Arevea-NFT-Market/NFT-Contracts/contracts/finalMarket_single.sol\":15845:15879  nftSaleStatus[_nftContractAddress] */\n      0x00\n        /* \"Arevea-NFT-Market/NFT-Contracts/contracts/finalMarket_single.sol\":15859:15878  _nftContractAddress */\n      dup13\n        /* \"Arevea-NFT-Market/NFT-Contracts/contracts/finalMarket_single.sol\":15845:15879  nftSaleStatus[_nftContractAddress] */\n      0xffffffffffffffffffffffffffffffffffffffff\n      and\n      0xffffffffffffffffffffffffffffffffffffffff\n      and\n      dup2\n      mstore\n      0x20\n      add\n      swap1\n      dup2\n      mstore\n      0x20\n      add\n      0x00\n      keccak256\n        /* \"Arevea-NFT-Market/NFT-Contracts/contracts/finalMarket_single.sol\":15845:15889  nftSaleStatus[_nftContractAddress][_tokenId] */\n      0x00\n        /* \"Arevea-NFT-Market/NFT-Contracts/contracts/finalMarket_single.sol\":15880:15888  _tokenId */\n      dup12\n        /* \"Arevea-NFT-Market/NFT-Contracts/contracts/finalMarket_single.sol\":15845:15889  nftSaleStatus[_nftContractAddress][_tokenId] */\n      dup2\n      mstore\n      0x20\n      add\n      swap1\n      dup2\n      mstore\n      0x20\n      add\n      0x00\n      keccak256\n        /* \"Arevea-NFT-Market/NFT-Contracts/contracts/finalMarket_single.sol\":15845:15893  nftSaleStatus[_nftContractAddress][_tokenId] = 0 */\n      dup2\n      swap1\n      sstore\n      pop\n        /* \"Arevea-NFT-Market/NFT-Contracts/contracts/finalMarket_single.sol\":15914:15933  _nftContractAddress */\n      dup10\n        /* \"Arevea-NFT-Market/NFT-Contracts/contracts/finalMarket_single.sol\":15906:15951  IERC721(_nftContractAddress).safeTransferFrom */\n      0xffffffffffffffffffffffffffffffffffffffff\n      and\n      0x42842e0e\n        /* \"Arevea-NFT-Market/NFT-Contracts/contracts/finalMarket_single.sol\":15974:15978  this */\n      address\n        /* \"Arevea-NFT-Market/NFT-Contracts/contracts/finalMarket_single.sol\":15994:16004  msg.sender */\n      caller\n        /* \"Arevea-NFT-Market/NFT-Contracts/contracts/finalMarket_single.sol\":16019:16027  _tokenId */\n      dup13\n        /* \"Arevea-NFT-Market/NFT-Contracts/contracts/finalMarket_single.sol\":15906:16038  IERC721(_nftContractAddress).safeTransferFrom(... */\n      mload(0x40)\n      dup5\n      0xffffffff\n      and\n      0xe0\n      shl\n      dup2\n      mstore\n      0x04\n      add\n      tag_253\n      swap4\n      swap3\n      swap2\n      swap1\n      tag_229\n      jump\t// in\n    tag_253:\n      0x00\n      mload(0x40)\n      dup1\n      dup4\n      sub\n      dup2\n      0x00\n      dup8\n      dup1\n      extcodesize\n      iszero\n      dup1\n      iszero\n      tag_254\n      jumpi\n      0x00\n      dup1\n      revert\n    tag_254:\n      pop\n      gas\n      call\n      iszero\n      dup1\n      iszero\n      tag_256\n      jumpi\n      returndatasize\n      0x00\n      dup1\n      returndatacopy\n      revert(0x00, returndatasize)\n    tag_256:\n      pop\n      pop\n      pop\n      pop\n        /* \"Arevea-NFT-Market/NFT-Contracts/contracts/finalMarket_single.sol\":16058:16072  auctionSaleNFT */\n      0x07\n        /* \"Arevea-NFT-Market/NFT-Contracts/contracts/finalMarket_single.sol\":16088:16107  indexAuctionSaleNFT */\n      0x05\n        /* \"Arevea-NFT-Market/NFT-Contracts/contracts/finalMarket_single.sol\":16088:16128  indexAuctionSaleNFT[_nftContractAddress] */\n      0x00\n        /* \"Arevea-NFT-Market/NFT-Contracts/contracts/finalMarket_single.sol\":16108:16127  _nftContractAddress */\n      dup13\n        /* \"Arevea-NFT-Market/NFT-Contracts/contracts/finalMarket_single.sol\":16088:16128  indexAuctionSaleNFT[_nftContractAddress] */\n      0xffffffffffffffffffffffffffffffffffffffff\n      and\n      0xffffffffffffffffffffffffffffffffffffffff\n      and\n      dup2\n      mstore\n      0x20\n      add\n      swap1\n      dup2\n      mstore\n      0x20\n      add\n      0x00\n      keccak256\n        /* \"Arevea-NFT-Market/NFT-Contracts/contracts/finalMarket_single.sol\":16088:16138  indexAuctionSaleNFT[_nftContractAddress][_tokenId] */\n      0x00\n        /* \"Arevea-NFT-Market/NFT-Contracts/contracts/finalMarket_single.sol\":16129:16137  _tokenId */\n      dup12\n        /* \"Arevea-NFT-Market/NFT-Contracts/contracts/finalMarket_single.sol\":16088:16138  indexAuctionSaleNFT[_nftContractAddress][_tokenId] */\n      dup2\n      mstore\n      0x20\n      add\n      swap1\n      dup2\n      mstore\n      0x20\n      add\n      0x00\n      keccak256\n      sload\n        /* \"Arevea-NFT-Market/NFT-Contracts/contracts/finalMarket_single.sol\":16058:16150  auctionSaleNFT[... */\n      dup2\n      sload\n      dup2\n      lt\n      tag_257\n      jumpi\n      tag_258\n      tag_197\n      jump\t// in\n    tag_258:\n    tag_257:\n      swap1\n      0x00\n      mstore\n      keccak256(0x00, 0x20)\n      swap1\n      0x02\n      mul\n      add\n      0x00\n        /* \"Arevea-NFT-Market/NFT-Contracts/contracts/finalMarket_single.sol\":16051:16150  delete auctionSaleNFT[... */\n      dup1\n      dup3\n      add\n      exp(0x0100, 0x00)\n      dup2\n      sload\n      swap1\n      0xffffffffffffffffffffffffffffffffffffffff\n      mul\n      not\n      and\n      swap1\n      sstore\n      0x01\n      dup3\n      add\n      0x00\n      swap1\n      sstore\n      pop\n      pop\n        /* \"Arevea-NFT-Market/NFT-Contracts/contracts/finalMarket_single.sol\":16168:16231  CancelNftAuctionSale(_nftContractAddress, _tokenId, msg.sender) */\n      0xb9d411977d4ee731f87bb8f16eb6f8c1fb579cff684642052bf6084e6e33238d\n        /* \"Arevea-NFT-Market/NFT-Contracts/contracts/finalMarket_single.sol\":16189:16208  _nftContractAddress */\n      dup11\n        /* \"Arevea-NFT-Market/NFT-Contracts/contracts/finalMarket_single.sol\":16210:16218  _tokenId */\n      dup11\n        /* \"Arevea-NFT-Market/NFT-Contracts/contracts/finalMarket_single.sol\":16220:16230  msg.sender */\n      caller\n        /* \"Arevea-NFT-Market/NFT-Contracts/contracts/finalMarket_single.sol\":16168:16231  CancelNftAuctionSale(_nftContractAddress, _tokenId, msg.sender) */\n      mload(0x40)\n      tag_260\n      swap4\n      swap3\n      swap2\n      swap1\n      tag_185\n      jump\t// in\n    tag_260:\n      mload(0x40)\n      dup1\n      swap2\n      sub\n      swap1\n      log1\n        /* \"Arevea-NFT-Market/NFT-Contracts/contracts/finalMarket_single.sol\":6203:6204  _ */\n      pop\n      pop\n        /* \"Arevea-NFT-Market/NFT-Contracts/contracts/finalMarket_single.sol\":6502:6503  _ */\n      pop\n      pop\n        /* \"Arevea-NFT-Market/NFT-Contracts/contracts/finalMarket_single.sol\":3961:3962  _ */\n      pop\n      pop\n        /* \"Arevea-NFT-Market/NFT-Contracts/contracts/finalMarket_single.sol\":15498:16239  function _cancelAuctionSale(address _nftContractAddress, uint256 _tokenId)... */\n      pop\n      pop\n      pop\n      pop\n      jump\t// out\n        /* \"Arevea-NFT-Market/NFT-Contracts/contracts/finalMarket_single.sol\":18495:18714  function getFixedSale(address _nftContractAddress, uint256 _tokenId)... */\n    tag_87:\n        /* \"Arevea-NFT-Market/NFT-Contracts/contracts/finalMarket_single.sol\":18614:18630  FixedSale memory */\n      tag_261\n      tag_262\n      jump\t// in\n    tag_261:\n        /* \"Arevea-NFT-Market/NFT-Contracts/contracts/finalMarket_single.sol\":18655:18675  nftContractFixedSale */\n      0x00\n        /* \"Arevea-NFT-Market/NFT-Contracts/contracts/finalMarket_single.sol\":18655:18696  nftContractFixedSale[_nftContractAddress] */\n      dup1\n        /* \"Arevea-NFT-Market/NFT-Contracts/contracts/finalMarket_single.sol\":18676:18695  _nftContractAddress */\n      dup5\n        /* \"Arevea-NFT-Market/NFT-Contracts/contracts/finalMarket_single.sol\":18655:18696  nftContractFixedSale[_nftContractAddress] */\n      0xffffffffffffffffffffffffffffffffffffffff\n      and\n      0xffffffffffffffffffffffffffffffffffffffff\n      and\n      dup2\n      mstore\n      0x20\n      add\n      swap1\n      dup2\n      mstore\n      0x20\n      add\n      0x00\n      keccak256\n        /* \"Arevea-NFT-Market/NFT-Contracts/contracts/finalMarket_single.sol\":18655:18706  nftContractFixedSale[_nftContractAddress][_tokenId] */\n      0x00\n        /* \"Arevea-NFT-Market/NFT-Contracts/contracts/finalMarket_single.sol\":18697:18705  _tokenId */\n      dup4\n        /* \"Arevea-NFT-Market/NFT-Contracts/contracts/finalMarket_single.sol\":18655:18706  nftContractFixedSale[_nftContractAddress][_tokenId] */\n      dup2\n      mstore\n      0x20\n      add\n      swap1\n      dup2\n      mstore\n      0x20\n      add\n      0x00\n      keccak256\n        /* \"Arevea-NFT-Market/NFT-Contracts/contracts/finalMarket_single.sol\":18648:18706  return nftContractFixedSale[_nftContractAddress][_tokenId] */\n      mload(0x40)\n      dup1\n      0x80\n      add\n      0x40\n      mstore\n      swap1\n      dup2\n      0x00\n      dup3\n      add\n      0x00\n      swap1\n      sload\n      swap1\n      0x0100\n      exp\n      swap1\n      div\n      0xffffffffffffffffffffffffffffffffffffffff\n      and\n      0xffffffffffffffffffffffffffffffffffffffff\n      and\n      0xffffffffffffffffffffffffffffffffffffffff\n      and\n      dup2\n      mstore\n      0x20\n      add\n      0x01\n      dup3\n      add\n      0x00\n      swap1\n      sload\n      swap1\n      0x0100\n      exp\n      swap1\n      div\n      0xffffffffffffffffffffffffffffffffffffffff\n      and\n      0xffffffffffffffffffffffffffffffffffffffff\n      and\n      0xffffffffffffffffffffffffffffffffffffffff\n      and\n      dup2\n      mstore\n      0x20\n      add\n      0x02\n      dup3\n      add\n      0x00\n      swap1\n      sload\n      swap1\n      0x0100\n      exp\n      swap1\n      div\n      0xffffffffffffffffffffffffffffffffffffffff\n      and\n      0xffffffffffffffffffffffffffffffffffffffff\n      and\n      0xffffffffffffffffffffffffffffffffffffffff\n      and\n      dup2\n      mstore\n      0x20\n      add\n      0x03\n      dup3\n      add\n      sload\n      dup2\n      mstore\n      pop\n      pop\n      swap1\n      pop\n        /* \"Arevea-NFT-Market/NFT-Contracts/contracts/finalMarket_single.sol\":18495:18714  function getFixedSale(address _nftContractAddress, uint256 _tokenId)... */\n      swap3\n      swap2\n      pop\n      pop\n      jump\t// out\n        /* \"Arevea-NFT-Market/NFT-Contracts/contracts/finalMarket_single.sol\":18380:18487  function getFixedSaleNFT() external view returns (SaleInfo[] memory) {... */\n    tag_92:\n        /* \"Arevea-NFT-Market/NFT-Contracts/contracts/finalMarket_single.sol\":18430:18447  SaleInfo[] memory */\n      0x60\n        /* \"Arevea-NFT-Market/NFT-Contracts/contracts/finalMarket_single.sol\":18467:18479  fixedSaleNFT */\n      0x06\n        /* \"Arevea-NFT-Market/NFT-Contracts/contracts/finalMarket_single.sol\":18460:18479  return fixedSaleNFT */\n      dup1\n      sload\n      dup1\n      0x20\n      mul\n      0x20\n      add\n      mload(0x40)\n      swap1\n      dup2\n      add\n      0x40\n      mstore\n      dup1\n      swap3\n      swap2\n      swap1\n      dup2\n      dup2\n      mstore\n      0x20\n      add\n      0x00\n      swap1\n    tag_265:\n      dup3\n      dup3\n      lt\n      iszero\n      tag_266\n      jumpi\n      dup4\n      dup3\n      swap1\n      0x00\n      mstore\n      keccak256(0x00, 0x20)\n      swap1\n      0x02\n      mul\n      add\n      mload(0x40)\n      dup1\n      0x40\n      add\n      0x40\n      mstore\n      swap1\n      dup2\n      0x00\n      dup3\n      add\n      0x00\n      swap1\n      sload\n      swap1\n      0x0100\n      exp\n      swap1\n      div\n      0xffffffffffffffffffffffffffffffffffffffff\n      and\n      0xffffffffffffffffffffffffffffffffffffffff\n      and\n      0xffffffffffffffffffffffffffffffffffffffff\n      and\n      dup2\n      mstore\n      0x20\n      add\n      0x01\n      dup3\n      add\n      sload\n      dup2\n      mstore\n      pop\n      pop\n      dup2\n      mstore\n      0x20\n      add\n      swap1\n      0x01\n      add\n      swap1\n      jump(tag_265)\n    tag_266:\n      pop\n      pop\n      pop\n      pop\n      swap1\n      pop\n        /* \"Arevea-NFT-Market/NFT-Contracts/contracts/finalMarket_single.sol\":18380:18487  function getFixedSaleNFT() external view returns (SaleInfo[] memory) {... */\n      swap1\n      jump\t// out\n        /* \"Arevea-NFT-Market/NFT-Contracts/contracts/finalMarket_single.sol\":10546:11685  function buyFromFixedSale(... */\n    tag_96:\n        /* \"Arevea-NFT-Market/NFT-Contracts/contracts/finalMarket_single.sol\":10731:10750  _nftContractAddress */\n      dup3\n        /* \"Arevea-NFT-Market/NFT-Contracts/contracts/finalMarket_single.sol\":10752:10760  _tokenId */\n      dup3\n        /* \"Arevea-NFT-Market/NFT-Contracts/contracts/finalMarket_single.sol\":3664:3665  1 */\n      0x01\n        /* \"Arevea-NFT-Market/NFT-Contracts/contracts/finalMarket_single.sol\":3616:3629  nftSaleStatus */\n      0x02\n        /* \"Arevea-NFT-Market/NFT-Contracts/contracts/finalMarket_single.sol\":3616:3650  nftSaleStatus[_nftContractAddress] */\n      0x00\n        /* \"Arevea-NFT-Market/NFT-Contracts/contracts/finalMarket_single.sol\":3630:3649  _nftContractAddress */\n      dup5\n        /* \"Arevea-NFT-Market/NFT-Contracts/contracts/finalMarket_single.sol\":3616:3650  nftSaleStatus[_nftContractAddress] */\n      0xffffffffffffffffffffffffffffffffffffffff\n      and\n      0xffffffffffffffffffffffffffffffffffffffff\n      and\n      dup2\n      mstore\n      0x20\n      add\n      swap1\n      dup2\n      mstore\n      0x20\n      add\n      0x00\n      keccak256\n        /* \"Arevea-NFT-Market/NFT-Contracts/contracts/finalMarket_single.sol\":3616:3660  nftSaleStatus[_nftContractAddress][_tokenId] */\n      0x00\n        /* \"Arevea-NFT-Market/NFT-Contracts/contracts/finalMarket_single.sol\":3651:3659  _tokenId */\n      dup4\n        /* \"Arevea-NFT-Market/NFT-Contracts/contracts/finalMarket_single.sol\":3616:3660  nftSaleStatus[_nftContractAddress][_tokenId] */\n      dup2\n      mstore\n      0x20\n      add\n      swap1\n      dup2\n      mstore\n      0x20\n      add\n      0x00\n      keccak256\n      sload\n        /* \"Arevea-NFT-Market/NFT-Contracts/contracts/finalMarket_single.sol\":3616:3665  nftSaleStatus[_nftContractAddress][_tokenId] == 1 */\n      eq\n        /* \"Arevea-NFT-Market/NFT-Contracts/contracts/finalMarket_single.sol\":3594:3714  require(... */\n      tag_269\n      jumpi\n      mload(0x40)\n      0x08c379a000000000000000000000000000000000000000000000000000000000\n      dup2\n      mstore\n      0x04\n      add\n      tag_270\n      swap1\n      tag_162\n      jump\t// in\n    tag_270:\n      mload(0x40)\n      dup1\n      swap2\n      sub\n      swap1\n      revert\n    tag_269:\n        /* \"Arevea-NFT-Market/NFT-Contracts/contracts/finalMarket_single.sol\":10792:10799  _amount */\n      dup3\n        /* \"Arevea-NFT-Market/NFT-Contracts/contracts/finalMarket_single.sol\":8147:8148  0 */\n      0x00\n        /* \"Arevea-NFT-Market/NFT-Contracts/contracts/finalMarket_single.sol\":8138:8144  _price */\n      dup2\n        /* \"Arevea-NFT-Market/NFT-Contracts/contracts/finalMarket_single.sol\":8138:8148  _price > 0 */\n      gt\n        /* \"Arevea-NFT-Market/NFT-Contracts/contracts/finalMarket_single.sol\":8130:8170  require(_price > 0, \"Price cannot be 0\") */\n      tag_272\n      jumpi\n      mload(0x40)\n      0x08c379a000000000000000000000000000000000000000000000000000000000\n      dup2\n      mstore\n      0x04\n      add\n      tag_273\n      swap1\n      tag_118\n      jump\t// in\n    tag_273:\n      mload(0x40)\n      dup1\n      swap2\n      sub\n      swap1\n      revert\n    tag_272:\n        /* \"Arevea-NFT-Market/NFT-Contracts/contracts/finalMarket_single.sol\":10832:10851  _nftContractAddress */\n      dup6\n        /* \"Arevea-NFT-Market/NFT-Contracts/contracts/finalMarket_single.sol\":10853:10861  _tokenId */\n      dup6\n        /* \"Arevea-NFT-Market/NFT-Contracts/contracts/finalMarket_single.sol\":10863:10870  _amount */\n      dup6\n        /* \"Arevea-NFT-Market/NFT-Contracts/contracts/finalMarket_single.sol\":7936:7956  nftContractFixedSale */\n      0x00\n        /* \"Arevea-NFT-Market/NFT-Contracts/contracts/finalMarket_single.sol\":7936:7977  nftContractFixedSale[_nftContractAddress] */\n      dup1\n        /* \"Arevea-NFT-Market/NFT-Contracts/contracts/finalMarket_single.sol\":7957:7976  _nftContractAddress */\n      dup5\n        /* \"Arevea-NFT-Market/NFT-Contracts/contracts/finalMarket_single.sol\":7936:7977  nftContractFixedSale[_nftContractAddress] */\n      0xffffffffffffffffffffffffffffffffffffffff\n      and\n      0xffffffffffffffffffffffffffffffffffffffff\n      and\n      dup2\n      mstore\n      0x20\n      add\n      swap1\n      dup2\n      mstore\n      0x20\n      add\n      0x00\n      keccak256\n        /* \"Arevea-NFT-Market/NFT-Contracts/contracts/finalMarket_single.sol\":7936:7987  nftContractFixedSale[_nftContractAddress][_tokenId] */\n      0x00\n        /* \"Arevea-NFT-Market/NFT-Contracts/contracts/finalMarket_single.sol\":7978:7986  _tokenId */\n      dup4\n        /* \"Arevea-NFT-Market/NFT-Contracts/contracts/finalMarket_single.sol\":7936:7987  nftContractFixedSale[_nftContractAddress][_tokenId] */\n      dup2\n      mstore\n      0x20\n      add\n      swap1\n      dup2\n      mstore\n      0x20\n      add\n      0x00\n      keccak256\n        /* \"Arevea-NFT-Market/NFT-Contracts/contracts/finalMarket_single.sol\":7936:7997  nftContractFixedSale[_nftContractAddress][_tokenId].salePrice */\n      0x03\n      add\n      sload\n        /* \"Arevea-NFT-Market/NFT-Contracts/contracts/finalMarket_single.sol\":7906:7915  _buyPrice */\n      dup2\n        /* \"Arevea-NFT-Market/NFT-Contracts/contracts/finalMarket_single.sol\":7906:7997  _buyPrice >=... */\n      lt\n      iszero\n        /* \"Arevea-NFT-Market/NFT-Contracts/contracts/finalMarket_single.sol\":7884:8045  require(... */\n      tag_275\n      jumpi\n      mload(0x40)\n      0x08c379a000000000000000000000000000000000000000000000000000000000\n      dup2\n      mstore\n      0x04\n      add\n      tag_276\n      swap1\n      tag_277\n      jump\t// in\n    tag_276:\n      mload(0x40)\n      dup1\n      swap2\n      sub\n      swap1\n      revert\n    tag_275:\n        /* \"Arevea-NFT-Market/NFT-Contracts/contracts/finalMarket_single.sol\":10896:10915  _nftContractAddress */\n      dup9\n        /* \"Arevea-NFT-Market/NFT-Contracts/contracts/finalMarket_single.sol\":10888:10933  IERC721(_nftContractAddress).safeTransferFrom */\n      0xffffffffffffffffffffffffffffffffffffffff\n      and\n      0x42842e0e\n        /* \"Arevea-NFT-Market/NFT-Contracts/contracts/finalMarket_single.sol\":10956:10960  this */\n      address\n        /* \"Arevea-NFT-Market/NFT-Contracts/contracts/finalMarket_single.sol\":10976:10986  msg.sender */\n      caller\n        /* \"Arevea-NFT-Market/NFT-Contracts/contracts/finalMarket_single.sol\":11001:11009  _tokenId */\n      dup12\n        /* \"Arevea-NFT-Market/NFT-Contracts/contracts/finalMarket_single.sol\":10888:11020  IERC721(_nftContractAddress).safeTransferFrom(... */\n      mload(0x40)\n      dup5\n      0xffffffff\n      and\n      0xe0\n      shl\n      dup2\n      mstore\n      0x04\n      add\n      tag_279\n      swap4\n      swap3\n      swap2\n      swap1\n      tag_229\n      jump\t// in\n    tag_279:\n      0x00\n      mload(0x40)\n      dup1\n      dup4\n      sub\n      dup2\n      0x00\n      dup8\n      dup1\n      extcodesize\n      iszero\n      dup1\n      iszero\n      tag_280\n      jumpi\n      0x00\n      dup1\n      revert\n    tag_280:\n      pop\n      gas\n      call\n      iszero\n      dup1\n      iszero\n      tag_282\n      jumpi\n      returndatasize\n      0x00\n      dup1\n      returndatacopy\n      revert(0x00, returndatasize)\n    tag_282:\n      pop\n      pop\n      pop\n      pop\n        /* \"Arevea-NFT-Market/NFT-Contracts/contracts/finalMarket_single.sol\":11080:11081  0 */\n      0x00\n        /* \"Arevea-NFT-Market/NFT-Contracts/contracts/finalMarket_single.sol\":11033:11046  nftSaleStatus */\n      0x02\n        /* \"Arevea-NFT-Market/NFT-Contracts/contracts/finalMarket_single.sol\":11033:11067  nftSaleStatus[_nftContractAddress] */\n      0x00\n        /* \"Arevea-NFT-Market/NFT-Contracts/contracts/finalMarket_single.sol\":11047:11066  _nftContractAddress */\n      dup12\n        /* \"Arevea-NFT-Market/NFT-Contracts/contracts/finalMarket_single.sol\":11033:11067  nftSaleStatus[_nftContractAddress] */\n      0xffffffffffffffffffffffffffffffffffffffff\n      and\n      0xffffffffffffffffffffffffffffffffffffffff\n      and\n      dup2\n      mstore\n      0x20\n      add\n      swap1\n      dup2\n      mstore\n      0x20\n      add\n      0x00\n      keccak256\n        /* \"Arevea-NFT-Market/NFT-Contracts/contracts/finalMarket_single.sol\":11033:11077  nftSaleStatus[_nftContractAddress][_tokenId] */\n      0x00\n        /* \"Arevea-NFT-Market/NFT-Contracts/contracts/finalMarket_single.sol\":11068:11076  _tokenId */\n      dup11\n        /* \"Arevea-NFT-Market/NFT-Contracts/contracts/finalMarket_single.sol\":11033:11077  nftSaleStatus[_nftContractAddress][_tokenId] */\n      dup2\n      mstore\n      0x20\n      add\n      swap1\n      dup2\n      mstore\n      0x20\n      add\n      0x00\n      keccak256\n        /* \"Arevea-NFT-Market/NFT-Contracts/contracts/finalMarket_single.sol\":11033:11081  nftSaleStatus[_nftContractAddress][_tokenId] = 0 */\n      dup2\n      swap1\n      sstore\n      pop\n        /* \"Arevea-NFT-Market/NFT-Contracts/contracts/finalMarket_single.sol\":11099:11111  fixedSaleNFT */\n      0x06\n        /* \"Arevea-NFT-Market/NFT-Contracts/contracts/finalMarket_single.sol\":11113:11130  indexFixedSaleNFT */\n      0x04\n        /* \"Arevea-NFT-Market/NFT-Contracts/contracts/finalMarket_single.sol\":11113:11151  indexFixedSaleNFT[_nftContractAddress] */\n      0x00\n        /* \"Arevea-NFT-Market/NFT-Contracts/contracts/finalMarket_single.sol\":11131:11150  _nftContractAddress */\n      dup12\n        /* \"Arevea-NFT-Market/NFT-Contracts/contracts/finalMarket_single.sol\":11113:11151  indexFixedSaleNFT[_nftContractAddress] */\n      0xffffffffffffffffffffffffffffffffffffffff\n      and\n      0xffffffffffffffffffffffffffffffffffffffff\n      and\n      dup2\n      mstore\n      0x20\n      add\n      swap1\n      dup2\n      mstore\n      0x20\n      add\n      0x00\n      keccak256\n        /* \"Arevea-NFT-Market/NFT-Contracts/contracts/finalMarket_single.sol\":11113:11161  indexFixedSaleNFT[_nftContractAddress][_tokenId] */\n      0x00\n        /* \"Arevea-NFT-Market/NFT-Contracts/contracts/finalMarket_single.sol\":11152:11160  _tokenId */\n      dup11\n        /* \"Arevea-NFT-Market/NFT-Contracts/contracts/finalMarket_single.sol\":11113:11161  indexFixedSaleNFT[_nftContractAddress][_tokenId] */\n      dup2\n      mstore\n      0x20\n      add\n      swap1\n      dup2\n      mstore\n      0x20\n      add\n      0x00\n      keccak256\n      sload\n        /* \"Arevea-NFT-Market/NFT-Contracts/contracts/finalMarket_single.sol\":11099:11163  fixedSaleNFT[(indexFixedSaleNFT[_nftContractAddress][_tokenId])] */\n      dup2\n      sload\n      dup2\n      lt\n      tag_283\n      jumpi\n      tag_284\n      tag_197\n      jump\t// in\n    tag_284:\n    tag_283:\n      swap1\n      0x00\n      mstore\n      keccak256(0x00, 0x20)\n      swap1\n      0x02\n      mul\n      add\n      0x00\n        /* \"Arevea-NFT-Market/NFT-Contracts/contracts/finalMarket_single.sol\":11092:11163  delete fixedSaleNFT[(indexFixedSaleNFT[_nftContractAddress][_tokenId])] */\n      dup1\n      dup3\n      add\n      exp(0x0100, 0x00)\n      dup2\n      sload\n      swap1\n      0xffffffffffffffffffffffffffffffffffffffff\n      mul\n      not\n      and\n      swap1\n      sstore\n      0x01\n      dup3\n      add\n      0x00\n      swap1\n      sstore\n      pop\n      pop\n        /* \"Arevea-NFT-Market/NFT-Contracts/contracts/finalMarket_single.sol\":11239:11263  msg... */\n      caller\n        /* \"Arevea-NFT-Market/NFT-Contracts/contracts/finalMarket_single.sol\":11176:11196  nftContractFixedSale */\n      0x00\n        /* \"Arevea-NFT-Market/NFT-Contracts/contracts/finalMarket_single.sol\":11176:11217  nftContractFixedSale[_nftContractAddress] */\n      dup1\n        /* \"Arevea-NFT-Market/NFT-Contracts/contracts/finalMarket_single.sol\":11197:11216  _nftContractAddress */\n      dup12\n        /* \"Arevea-NFT-Market/NFT-Contracts/contracts/finalMarket_single.sol\":11176:11217  nftContractFixedSale[_nftContractAddress] */\n      0xffffffffffffffffffffffffffffffffffffffff\n      and\n      0xffffffffffffffffffffffffffffffffffffffff\n      and\n      dup2\n      mstore\n      0x20\n      add\n      swap1\n      dup2\n      mstore\n      0x20\n      add\n      0x00\n      keccak256\n        /* \"Arevea-NFT-Market/NFT-Contracts/contracts/finalMarket_single.sol\":11176:11227  nftContractFixedSale[_nftContractAddress][_tokenId] */\n      0x00\n        /* \"Arevea-NFT-Market/NFT-Contracts/contracts/finalMarket_single.sol\":11218:11226  _tokenId */\n      dup11\n        /* \"Arevea-NFT-Market/NFT-Contracts/contracts/finalMarket_single.sol\":11176:11227  nftContractFixedSale[_nftContractAddress][_tokenId] */\n      dup2\n      mstore\n      0x20\n      add\n      swap1\n      dup2\n      mstore\n      0x20\n      add\n      0x00\n      keccak256\n        /* \"Arevea-NFT-Market/NFT-Contracts/contracts/finalMarket_single.sol\":11176:11236  nftContractFixedSale[_nftContractAddress][_tokenId].nftBuyer */\n      0x01\n      add\n      0x00\n        /* \"Arevea-NFT-Market/NFT-Contracts/contracts/finalMarket_single.sol\":11176:11263  nftContractFixedSale[_nftContractAddress][_tokenId].nftBuyer = msg... */\n      0x0100\n      exp\n      dup2\n      sload\n      dup2\n      0xffffffffffffffffffffffffffffffffffffffff\n      mul\n      not\n      and\n      swap1\n      dup4\n      0xffffffffffffffffffffffffffffffffffffffff\n      and\n      mul\n      or\n      swap1\n      sstore\n      pop\n        /* \"Arevea-NFT-Market/NFT-Contracts/contracts/finalMarket_single.sol\":11276:11525  _isTokenOrCoin(... */\n      tag_286\n        /* \"Arevea-NFT-Market/NFT-Contracts/contracts/finalMarket_single.sol\":11305:11325  nftContractFixedSale */\n      0x00\n        /* \"Arevea-NFT-Market/NFT-Contracts/contracts/finalMarket_single.sol\":11305:11346  nftContractFixedSale[_nftContractAddress] */\n      dup1\n        /* \"Arevea-NFT-Market/NFT-Contracts/contracts/finalMarket_single.sol\":11326:11345  _nftContractAddress */\n      dup12\n        /* \"Arevea-NFT-Market/NFT-Contracts/contracts/finalMarket_single.sol\":11305:11346  nftContractFixedSale[_nftContractAddress] */\n      0xffffffffffffffffffffffffffffffffffffffff\n      and\n      0xffffffffffffffffffffffffffffffffffffffff\n      and\n      dup2\n      mstore\n      0x20\n      add\n      swap1\n      dup2\n      mstore\n      0x20\n      add\n      0x00\n      keccak256\n        /* \"Arevea-NFT-Market/NFT-Contracts/contracts/finalMarket_single.sol\":11305:11356  nftContractFixedSale[_nftContractAddress][_tokenId] */\n      0x00\n        /* \"Arevea-NFT-Market/NFT-Contracts/contracts/finalMarket_single.sol\":11347:11355  _tokenId */\n      dup11\n        /* \"Arevea-NFT-Market/NFT-Contracts/contracts/finalMarket_single.sol\":11305:11356  nftContractFixedSale[_nftContractAddress][_tokenId] */\n      dup2\n      mstore\n      0x20\n      add\n      swap1\n      dup2\n      mstore\n      0x20\n      add\n      0x00\n      keccak256\n        /* \"Arevea-NFT-Market/NFT-Contracts/contracts/finalMarket_single.sol\":11305:11366  nftContractFixedSale[_nftContractAddress][_tokenId].nftSeller */\n      0x00\n      add\n      0x00\n      swap1\n      sload\n      swap1\n      0x0100\n      exp\n      swap1\n      div\n      0xffffffffffffffffffffffffffffffffffffffff\n      and\n        /* \"Arevea-NFT-Market/NFT-Contracts/contracts/finalMarket_single.sol\":11381:11401  nftContractFixedSale */\n      0x00\n        /* \"Arevea-NFT-Market/NFT-Contracts/contracts/finalMarket_single.sol\":11381:11422  nftContractFixedSale[_nftContractAddress] */\n      dup1\n        /* \"Arevea-NFT-Market/NFT-Contracts/contracts/finalMarket_single.sol\":11402:11421  _nftContractAddress */\n      dup13\n        /* \"Arevea-NFT-Market/NFT-Contracts/contracts/finalMarket_single.sol\":11381:11422  nftContractFixedSale[_nftContractAddress] */\n      0xffffffffffffffffffffffffffffffffffffffff\n      and\n      0xffffffffffffffffffffffffffffffffffffffff\n      and\n      dup2\n      mstore\n      0x20\n      add\n      swap1\n      dup2\n      mstore\n      0x20\n      add\n      0x00\n      keccak256\n        /* \"Arevea-NFT-Market/NFT-Contracts/contracts/finalMarket_single.sol\":11381:11432  nftContractFixedSale[_nftContractAddress][_tokenId] */\n      0x00\n        /* \"Arevea-NFT-Market/NFT-Contracts/contracts/finalMarket_single.sol\":11423:11431  _tokenId */\n      dup12\n        /* \"Arevea-NFT-Market/NFT-Contracts/contracts/finalMarket_single.sol\":11381:11432  nftContractFixedSale[_nftContractAddress][_tokenId] */\n      dup2\n      mstore\n      0x20\n      add\n      swap1\n      dup2\n      mstore\n      0x20\n      add\n      0x00\n      keccak256\n        /* \"Arevea-NFT-Market/NFT-Contracts/contracts/finalMarket_single.sol\":11381:11438  nftContractFixedSale[_nftContractAddress][_tokenId].erc20 */\n      0x02\n      add\n      0x00\n      swap1\n      sload\n      swap1\n      0x0100\n      exp\n      swap1\n      div\n      0xffffffffffffffffffffffffffffffffffffffff\n      and\n        /* \"Arevea-NFT-Market/NFT-Contracts/contracts/finalMarket_single.sol\":11453:11473  nftContractFixedSale */\n      0x00\n        /* \"Arevea-NFT-Market/NFT-Contracts/contracts/finalMarket_single.sol\":11453:11494  nftContractFixedSale[_nftContractAddress] */\n      dup1\n        /* \"Arevea-NFT-Market/NFT-Contracts/contracts/finalMarket_single.sol\":11474:11493  _nftContractAddress */\n      dup14\n        /* \"Arevea-NFT-Market/NFT-Contracts/contracts/finalMarket_single.sol\":11453:11494  nftContractFixedSale[_nftContractAddress] */\n      0xffffffffffffffffffffffffffffffffffffffff\n      and\n      0xffffffffffffffffffffffffffffffffffffffff\n      and\n      dup2\n      mstore\n      0x20\n      add\n      swap1\n      dup2\n      mstore\n      0x20\n      add\n      0x00\n      keccak256\n        /* \"Arevea-NFT-Market/NFT-Contracts/contracts/finalMarket_single.sol\":11453:11504  nftContractFixedSale[_nftContractAddress][_tokenId] */\n      0x00\n        /* \"Arevea-NFT-Market/NFT-Contracts/contracts/finalMarket_single.sol\":11495:11503  _tokenId */\n      dup13\n        /* \"Arevea-NFT-Market/NFT-Contracts/contracts/finalMarket_single.sol\":11453:11504  nftContractFixedSale[_nftContractAddress][_tokenId] */\n      dup2\n      mstore\n      0x20\n      add\n      swap1\n      dup2\n      mstore\n      0x20\n      add\n      0x00\n      keccak256\n        /* \"Arevea-NFT-Market/NFT-Contracts/contracts/finalMarket_single.sol\":11453:11514  nftContractFixedSale[_nftContractAddress][_tokenId].salePrice */\n      0x03\n      add\n      sload\n        /* \"Arevea-NFT-Market/NFT-Contracts/contracts/finalMarket_single.sol\":11276:11290  _isTokenOrCoin */\n      tag_287\n        /* \"Arevea-NFT-Market/NFT-Contracts/contracts/finalMarket_single.sol\":11276:11525  _isTokenOrCoin(... */\n      jump\t// in\n    tag_286:\n        /* \"Arevea-NFT-Market/NFT-Contracts/contracts/finalMarket_single.sol\":11543:11677  NftBuyFromFixedSale(... */\n      0x9fa3b1bb9266e05722b54a7a564d02a274bc80d39f4af21e6be405480996ceba\n        /* \"Arevea-NFT-Market/NFT-Contracts/contracts/finalMarket_single.sol\":11577:11596  _nftContractAddress */\n      dup10\n        /* \"Arevea-NFT-Market/NFT-Contracts/contracts/finalMarket_single.sol\":11611:11621  msg.sender */\n      caller\n        /* \"Arevea-NFT-Market/NFT-Contracts/contracts/finalMarket_single.sol\":11636:11644  _tokenId */\n      dup11\n        /* \"Arevea-NFT-Market/NFT-Contracts/contracts/finalMarket_single.sol\":11659:11666  _amount */\n      dup11\n        /* \"Arevea-NFT-Market/NFT-Contracts/contracts/finalMarket_single.sol\":11543:11677  NftBuyFromFixedSale(... */\n      mload(0x40)\n      tag_288\n      swap5\n      swap4\n      swap3\n      swap2\n      swap1\n      tag_289\n      jump\t// in\n    tag_288:\n      mload(0x40)\n      dup1\n      swap2\n      sub\n      swap1\n      log1\n        /* \"Arevea-NFT-Market/NFT-Contracts/contracts/finalMarket_single.sol\":8181:8182  _ */\n      pop\n      pop\n      pop\n        /* \"Arevea-NFT-Market/NFT-Contracts/contracts/finalMarket_single.sol\":3725:3726  _ */\n      pop\n        /* \"Arevea-NFT-Market/NFT-Contracts/contracts/finalMarket_single.sol\":10546:11685  function buyFromFixedSale(... */\n      pop\n      pop\n      pop\n      pop\n      pop\n      jump\t// out\n        /* \"Arevea-NFT-Market/NFT-Contracts/contracts/finalMarket_single.sol\":11720:12783  function createNftAuctionSale(... */\n    tag_101:\n        /* \"Arevea-NFT-Market/NFT-Contracts/contracts/finalMarket_single.sol\":11983:12002  _nftContractAddress */\n      dup6\n        /* \"Arevea-NFT-Market/NFT-Contracts/contracts/finalMarket_single.sol\":12004:12012  _tokenId */\n      dup5\n        /* \"Arevea-NFT-Market/NFT-Contracts/contracts/finalMarket_single.sol\":4108:4127  _nftContractAddress */\n      dup2\n        /* \"Arevea-NFT-Market/NFT-Contracts/contracts/finalMarket_single.sol\":4100:4136  IERC721(_nftContractAddress).ownerOf */\n      0xffffffffffffffffffffffffffffffffffffffff\n      and\n      0x6352211e\n        /* \"Arevea-NFT-Market/NFT-Contracts/contracts/finalMarket_single.sol\":4137:4145  _tokenId */\n      dup3\n        /* \"Arevea-NFT-Market/NFT-Contracts/contracts/finalMarket_single.sol\":4100:4146  IERC721(_nftContractAddress).ownerOf(_tokenId) */\n      mload(0x40)\n      dup3\n      0xffffffff\n      and\n      0xe0\n      shl\n      dup2\n      mstore\n      0x04\n      add\n      tag_291\n      swap2\n      swap1\n      tag_62\n      jump\t// in\n    tag_291:\n      0x20\n      mload(0x40)\n      dup1\n      dup4\n      sub\n      dup2\n      dup7\n      gas\n      staticcall\n      iszero\n      dup1\n      iszero\n      tag_293\n      jumpi\n      returndatasize\n      0x00\n      dup1\n      returndatacopy\n      revert(0x00, returndatasize)\n    tag_293:\n      pop\n      pop\n      pop\n      pop\n      mload(0x40)\n      returndatasize\n      not(0x1f)\n      0x1f\n      dup3\n      add\n      and\n      dup3\n      add\n      dup1\n      0x40\n      mstore\n      pop\n      dup2\n      add\n      swap1\n      tag_294\n      swap2\n      swap1\n      tag_206\n      jump\t// in\n    tag_294:\n        /* \"Arevea-NFT-Market/NFT-Contracts/contracts/finalMarket_single.sol\":4086:4146  msg.sender == IERC721(_nftContractAddress).ownerOf(_tokenId) */\n      0xffffffffffffffffffffffffffffffffffffffff\n      and\n        /* \"Arevea-NFT-Market/NFT-Contracts/contracts/finalMarket_single.sol\":4086:4096  msg.sender */\n      caller\n        /* \"Arevea-NFT-Market/NFT-Contracts/contracts/finalMarket_single.sol\":4086:4146  msg.sender == IERC721(_nftContractAddress).ownerOf(_tokenId) */\n      0xffffffffffffffffffffffffffffffffffffffff\n      and\n      eq\n        /* \"Arevea-NFT-Market/NFT-Contracts/contracts/finalMarket_single.sol\":4064:4195  require(... */\n      tag_295\n      jumpi\n      mload(0x40)\n      0x08c379a000000000000000000000000000000000000000000000000000000000\n      dup2\n      mstore\n      0x04\n      add\n      tag_296\n      swap1\n      tag_166\n      jump\t// in\n    tag_296:\n      mload(0x40)\n      dup1\n      swap2\n      sub\n      swap1\n      revert\n    tag_295:\n        /* \"Arevea-NFT-Market/NFT-Contracts/contracts/finalMarket_single.sol\":12042:12061  _nftContractAddress */\n      dup8\n        /* \"Arevea-NFT-Market/NFT-Contracts/contracts/finalMarket_single.sol\":12063:12071  _tokenId */\n      dup7\n        /* \"Arevea-NFT-Market/NFT-Contracts/contracts/finalMarket_single.sol\":3434:3435  0 */\n      0x00\n        /* \"Arevea-NFT-Market/NFT-Contracts/contracts/finalMarket_single.sol\":3386:3399  nftSaleStatus */\n      0x02\n        /* \"Arevea-NFT-Market/NFT-Contracts/contracts/finalMarket_single.sol\":3386:3420  nftSaleStatus[_nftContractAddress] */\n      0x00\n        /* \"Arevea-NFT-Market/NFT-Contracts/contracts/finalMarket_single.sol\":3400:3419  _nftContractAddress */\n      dup5\n        /* \"Arevea-NFT-Market/NFT-Contracts/contracts/finalMarket_single.sol\":3386:3420  nftSaleStatus[_nftContractAddress] */\n      0xffffffffffffffffffffffffffffffffffffffff\n      and\n      0xffffffffffffffffffffffffffffffffffffffff\n      and\n      dup2\n      mstore\n      0x20\n      add\n      swap1\n      dup2\n      mstore\n      0x20\n      add\n      0x00\n      keccak256\n        /* \"Arevea-NFT-Market/NFT-Contracts/contracts/finalMarket_single.sol\":3386:3430  nftSaleStatus[_nftContractAddress][_tokenId] */\n      0x00\n        /* \"Arevea-NFT-Market/NFT-Contracts/contracts/finalMarket_single.sol\":3421:3429  _tokenId */\n      dup4\n        /* \"Arevea-NFT-Market/NFT-Contracts/contracts/finalMarket_single.sol\":3386:3430  nftSaleStatus[_nftContractAddress][_tokenId] */\n      dup2\n      mstore\n      0x20\n      add\n      swap1\n      dup2\n      mstore\n      0x20\n      add\n      0x00\n      keccak256\n      sload\n        /* \"Arevea-NFT-Market/NFT-Contracts/contracts/finalMarket_single.sol\":3386:3435  nftSaleStatus[_nftContractAddress][_tokenId] == 0 */\n      eq\n        /* \"Arevea-NFT-Market/NFT-Contracts/contracts/finalMarket_single.sol\":3364:3482  require(... */\n      tag_298\n      jumpi\n      mload(0x40)\n      0x08c379a000000000000000000000000000000000000000000000000000000000\n      dup2\n      mstore\n      0x04\n      add\n      tag_299\n      swap1\n      tag_212\n      jump\t// in\n    tag_299:\n      mload(0x40)\n      dup1\n      swap2\n      sub\n      swap1\n      revert\n    tag_298:\n        /* \"Arevea-NFT-Market/NFT-Contracts/contracts/finalMarket_single.sol\":12100:12119  _nftContractAddress */\n      dup10\n        /* \"Arevea-NFT-Market/NFT-Contracts/contracts/finalMarket_single.sol\":12121:12129  _tokenId */\n      dup9\n        /* \"Arevea-NFT-Market/NFT-Contracts/contracts/finalMarket_single.sol\":4615:4634  _nftContractAddress */\n      dup2\n        /* \"Arevea-NFT-Market/NFT-Contracts/contracts/finalMarket_single.sol\":4607:4652  IERC721(_nftContractAddress).isApprovedForAll */\n      0xffffffffffffffffffffffffffffffffffffffff\n      and\n      0xe985e9c5\n        /* \"Arevea-NFT-Market/NFT-Contracts/contracts/finalMarket_single.sol\":4671:4681  msg.sender */\n      caller\n        /* \"Arevea-NFT-Market/NFT-Contracts/contracts/finalMarket_single.sol\":4708:4712  this */\n      address\n        /* \"Arevea-NFT-Market/NFT-Contracts/contracts/finalMarket_single.sol\":4607:4728  IERC721(_nftContractAddress).isApprovedForAll(... */\n      mload(0x40)\n      dup4\n      0xffffffff\n      and\n      0xe0\n      shl\n      dup2\n      mstore\n      0x04\n      add\n      tag_301\n      swap3\n      swap2\n      swap1\n      tag_215\n      jump\t// in\n    tag_301:\n      0x20\n      mload(0x40)\n      dup1\n      dup4\n      sub\n      dup2\n      dup7\n      gas\n      staticcall\n      iszero\n      dup1\n      iszero\n      tag_303\n      jumpi\n      returndatasize\n      0x00\n      dup1\n      returndatacopy\n      revert(0x00, returndatasize)\n    tag_303:\n      pop\n      pop\n      pop\n      pop\n      mload(0x40)\n      returndatasize\n      not(0x1f)\n      0x1f\n      dup3\n      add\n      and\n      dup3\n      add\n      dup1\n      0x40\n      mstore\n      pop\n      dup2\n      add\n      swap1\n      tag_304\n      swap2\n      swap1\n      tag_219\n      jump\t// in\n    tag_304:\n        /* \"Arevea-NFT-Market/NFT-Contracts/contracts/finalMarket_single.sol\":4585:4784  require(... */\n      tag_305\n      jumpi\n      mload(0x40)\n      0x08c379a000000000000000000000000000000000000000000000000000000000\n      dup2\n      mstore\n      0x04\n      add\n      tag_306\n      swap1\n      tag_222\n      jump\t// in\n    tag_306:\n      mload(0x40)\n      dup1\n      swap2\n      sub\n      swap1\n      revert\n    tag_305:\n        /* \"Arevea-NFT-Market/NFT-Contracts/contracts/finalMarket_single.sol\":12161:12170  _minPrice */\n      dup7\n        /* \"Arevea-NFT-Market/NFT-Contracts/contracts/finalMarket_single.sol\":8147:8148  0 */\n      0x00\n        /* \"Arevea-NFT-Market/NFT-Contracts/contracts/finalMarket_single.sol\":8138:8144  _price */\n      dup2\n        /* \"Arevea-NFT-Market/NFT-Contracts/contracts/finalMarket_single.sol\":8138:8148  _price > 0 */\n      gt\n        /* \"Arevea-NFT-Market/NFT-Contracts/contracts/finalMarket_single.sol\":8130:8170  require(_price > 0, \"Price cannot be 0\") */\n      tag_308\n      jumpi\n      mload(0x40)\n      0x08c379a000000000000000000000000000000000000000000000000000000000\n      dup2\n      mstore\n      0x04\n      add\n      tag_309\n      swap1\n      tag_118\n      jump\t// in\n    tag_309:\n      mload(0x40)\n      dup1\n      swap2\n      sub\n      swap1\n      revert\n    tag_308:\n        /* \"Arevea-NFT-Market/NFT-Contracts/contracts/finalMarket_single.sol\":12188:12379  _storedNftAuctionDetails(... */\n      tag_311\n        /* \"Arevea-NFT-Market/NFT-Contracts/contracts/finalMarket_single.sol\":12227:12246  _nftContractAddress */\n      dup14\n        /* \"Arevea-NFT-Market/NFT-Contracts/contracts/finalMarket_single.sol\":12261:12267  _erc20 */\n      dup14\n        /* \"Arevea-NFT-Market/NFT-Contracts/contracts/finalMarket_single.sol\":12282:12290  _tokenId */\n      dup14\n        /* \"Arevea-NFT-Market/NFT-Contracts/contracts/finalMarket_single.sol\":12305:12318  _auctionStart */\n      dup14\n        /* \"Arevea-NFT-Market/NFT-Contracts/contracts/finalMarket_single.sol\":12333:12344  _auctionEnd */\n      dup14\n        /* \"Arevea-NFT-Market/NFT-Contracts/contracts/finalMarket_single.sol\":12359:12368  _minPrice */\n      dup14\n        /* \"Arevea-NFT-Market/NFT-Contracts/contracts/finalMarket_single.sol\":12188:12212  _storedNftAuctionDetails */\n      tag_312\n        /* \"Arevea-NFT-Market/NFT-Contracts/contracts/finalMarket_single.sol\":12188:12379  _storedNftAuctionDetails(... */\n      jump\t// in\n    tag_311:\n        /* \"Arevea-NFT-Market/NFT-Contracts/contracts/finalMarket_single.sol\":12445:12459  auctionSaleNFT */\n      0x07\n        /* \"Arevea-NFT-Market/NFT-Contracts/contracts/finalMarket_single.sol\":12445:12480  auctionSaleNFT... */\n      dup1\n      sload\n      swap1\n      pop\n        /* \"Arevea-NFT-Market/NFT-Contracts/contracts/finalMarket_single.sol\":12392:12411  indexAuctionSaleNFT */\n      0x05\n        /* \"Arevea-NFT-Market/NFT-Contracts/contracts/finalMarket_single.sol\":12392:12432  indexAuctionSaleNFT[_nftContractAddress] */\n      0x00\n        /* \"Arevea-NFT-Market/NFT-Contracts/contracts/finalMarket_single.sol\":12412:12431  _nftContractAddress */\n      dup16\n        /* \"Arevea-NFT-Market/NFT-Contracts/contracts/finalMarket_single.sol\":12392:12432  indexAuctionSaleNFT[_nftContractAddress] */\n      0xffffffffffffffffffffffffffffffffffffffff\n      and\n      0xffffffffffffffffffffffffffffffffffffffff\n      and\n      dup2\n      mstore\n      0x20\n      add\n      swap1\n      dup2\n      mstore\n      0x20\n      add\n      0x00\n      keccak256\n        /* \"Arevea-NFT-Market/NFT-Contracts/contracts/finalMarket_single.sol\":12392:12442  indexAuctionSaleNFT[_nftContractAddress][_tokenId] */\n      0x00\n        /* \"Arevea-NFT-Market/NFT-Contracts/contracts/finalMarket_single.sol\":12433:12441  _tokenId */\n      dup14\n        /* \"Arevea-NFT-Market/NFT-Contracts/contracts/finalMarket_single.sol\":12392:12442  indexAuctionSaleNFT[_nftContractAddress][_tokenId] */\n      dup2\n      mstore\n      0x20\n      add\n      swap1\n      dup2\n      mstore\n      0x20\n      add\n      0x00\n      keccak256\n        /* \"Arevea-NFT-Market/NFT-Contracts/contracts/finalMarket_single.sol\":12392:12480  indexAuctionSaleNFT[_nftContractAddress][_tokenId] = auctionSaleNFT... */\n      dup2\n      swap1\n      sstore\n      pop\n        /* \"Arevea-NFT-Market/NFT-Contracts/contracts/finalMarket_single.sol\":12491:12505  auctionSaleNFT */\n      0x07\n        /* \"Arevea-NFT-Market/NFT-Contracts/contracts/finalMarket_single.sol\":12511:12550  SaleInfo(_nftContractAddress, _tokenId) */\n      mload(0x40)\n      dup1\n      0x40\n      add\n      0x40\n      mstore\n      dup1\n        /* \"Arevea-NFT-Market/NFT-Contracts/contracts/finalMarket_single.sol\":12520:12539  _nftContractAddress */\n      dup16\n        /* \"Arevea-NFT-Market/NFT-Contracts/contracts/finalMarket_single.sol\":12511:12550  SaleInfo(_nftContractAddress, _tokenId) */\n      0xffffffffffffffffffffffffffffffffffffffff\n      and\n      dup2\n      mstore\n      0x20\n      add\n        /* \"Arevea-NFT-Market/NFT-Contracts/contracts/finalMarket_single.sol\":12541:12549  _tokenId */\n      dup14\n        /* \"Arevea-NFT-Market/NFT-Contracts/contracts/finalMarket_single.sol\":12511:12550  SaleInfo(_nftContractAddress, _tokenId) */\n      dup2\n      mstore\n      pop\n        /* \"Arevea-NFT-Market/NFT-Contracts/contracts/finalMarket_single.sol\":12491:12551  auctionSaleNFT.push(SaleInfo(_nftContractAddress, _tokenId)) */\n      swap1\n      dup1\n      0x01\n      dup2\n      sload\n      add\n      dup1\n      dup3\n      sstore\n      dup1\n      swap2\n      pop\n      pop\n      0x01\n      swap1\n      sub\n      swap1\n      0x00\n      mstore\n      keccak256(0x00, 0x20)\n      swap1\n      0x02\n      mul\n      add\n      0x00\n      swap1\n      swap2\n      swap1\n      swap2\n      swap1\n      swap2\n      pop\n      0x00\n      dup3\n      add\n      mload\n      dup2\n      0x00\n      add\n      exp(0x0100, 0x00)\n      dup2\n      sload\n      dup2\n      0xffffffffffffffffffffffffffffffffffffffff\n      mul\n      not\n      and\n      swap1\n      dup4\n      0xffffffffffffffffffffffffffffffffffffffff\n      and\n      mul\n      or\n      swap1\n      sstore\n      pop\n      0x20\n      dup3\n      add\n      mload\n      dup2\n      0x01\n      add\n      sstore\n      pop\n      pop\n        /* \"Arevea-NFT-Market/NFT-Contracts/contracts/finalMarket_single.sol\":12569:12775  NftAuctionSale(... */\n      0xecbc6a097da08dbf6f781ce204aad454ce3dc8f112c51c7a56f1671de89cee8c\n        /* \"Arevea-NFT-Market/NFT-Contracts/contracts/finalMarket_single.sol\":12598:12617  _nftContractAddress */\n      dup14\n        /* \"Arevea-NFT-Market/NFT-Contracts/contracts/finalMarket_single.sol\":12632:12642  msg.sender */\n      caller\n        /* \"Arevea-NFT-Market/NFT-Contracts/contracts/finalMarket_single.sol\":12657:12663  _erc20 */\n      dup15\n        /* \"Arevea-NFT-Market/NFT-Contracts/contracts/finalMarket_single.sol\":12678:12686  _tokenId */\n      dup15\n        /* \"Arevea-NFT-Market/NFT-Contracts/contracts/finalMarket_single.sol\":12701:12714  _auctionStart */\n      dup15\n        /* \"Arevea-NFT-Market/NFT-Contracts/contracts/finalMarket_single.sol\":12729:12740  _auctionEnd */\n      dup15\n        /* \"Arevea-NFT-Market/NFT-Contracts/contracts/finalMarket_single.sol\":12755:12764  _minPrice */\n      dup15\n        /* \"Arevea-NFT-Market/NFT-Contracts/contracts/finalMarket_single.sol\":12569:12775  NftAuctionSale(... */\n      mload(0x40)\n      tag_314\n      swap8\n      swap7\n      swap6\n      swap5\n      swap4\n      swap3\n      swap2\n      swap1\n      tag_315\n      jump\t// in\n    tag_314:\n      mload(0x40)\n      dup1\n      swap2\n      sub\n      swap1\n      log1\n        /* \"Arevea-NFT-Market/NFT-Contracts/contracts/finalMarket_single.sol\":4795:4796  _ */\n      pop\n        /* \"Arevea-NFT-Market/NFT-Contracts/contracts/finalMarket_single.sol\":3493:3494  _ */\n      pop\n      pop\n        /* \"Arevea-NFT-Market/NFT-Contracts/contracts/finalMarket_single.sol\":4206:4207  _ */\n      pop\n      pop\n        /* \"Arevea-NFT-Market/NFT-Contracts/contracts/finalMarket_single.sol\":11720:12783  function createNftAuctionSale(... */\n      pop\n      pop\n      pop\n      pop\n      pop\n      pop\n      pop\n      pop\n      jump\t// out\n        /* \"Arevea-NFT-Market/NFT-Contracts/contracts/finalMarket_single.sol\":9366:9952  function cancelFixedsale(address _nftContractAddress, uint256 _tokenId)... */\n    tag_105:\n        /* \"Arevea-NFT-Market/NFT-Contracts/contracts/finalMarket_single.sol\":9482:9501  _nftContractAddress */\n      dup2\n        /* \"Arevea-NFT-Market/NFT-Contracts/contracts/finalMarket_single.sol\":9503:9511  _tokenId */\n      dup2\n        /* \"Arevea-NFT-Market/NFT-Contracts/contracts/finalMarket_single.sol\":3664:3665  1 */\n      0x01\n        /* \"Arevea-NFT-Market/NFT-Contracts/contracts/finalMarket_single.sol\":3616:3629  nftSaleStatus */\n      0x02\n        /* \"Arevea-NFT-Market/NFT-Contracts/contracts/finalMarket_single.sol\":3616:3650  nftSaleStatus[_nftContractAddress] */\n      0x00\n        /* \"Arevea-NFT-Market/NFT-Contracts/contracts/finalMarket_single.sol\":3630:3649  _nftContractAddress */\n      dup5\n        /* \"Arevea-NFT-Market/NFT-Contracts/contracts/finalMarket_single.sol\":3616:3650  nftSaleStatus[_nftContractAddress] */\n      0xffffffffffffffffffffffffffffffffffffffff\n      and\n      0xffffffffffffffffffffffffffffffffffffffff\n      and\n      dup2\n      mstore\n      0x20\n      add\n      swap1\n      dup2\n      mstore\n      0x20\n      add\n      0x00\n      keccak256\n        /* \"Arevea-NFT-Market/NFT-Contracts/contracts/finalMarket_single.sol\":3616:3660  nftSaleStatus[_nftContractAddress][_tokenId] */\n      0x00\n        /* \"Arevea-NFT-Market/NFT-Contracts/contracts/finalMarket_single.sol\":3651:3659  _tokenId */\n      dup4\n        /* \"Arevea-NFT-Market/NFT-Contracts/contracts/finalMarket_single.sol\":3616:3660  nftSaleStatus[_nftContractAddress][_tokenId] */\n      dup2\n      mstore\n      0x20\n      add\n      swap1\n      dup2\n      mstore\n      0x20\n      add\n      0x00\n      keccak256\n      sload\n        /* \"Arevea-NFT-Market/NFT-Contracts/contracts/finalMarket_single.sol\":3616:3665  nftSaleStatus[_nftContractAddress][_tokenId] == 1 */\n      eq\n        /* \"Arevea-NFT-Market/NFT-Contracts/contracts/finalMarket_single.sol\":3594:3714  require(... */\n      tag_317\n      jumpi\n      mload(0x40)\n      0x08c379a000000000000000000000000000000000000000000000000000000000\n      dup2\n      mstore\n      0x04\n      add\n      tag_318\n      swap1\n      tag_162\n      jump\t// in\n    tag_318:\n      mload(0x40)\n      dup1\n      swap2\n      sub\n      swap1\n      revert\n    tag_317:\n        /* \"Arevea-NFT-Market/NFT-Contracts/contracts/finalMarket_single.sol\":9541:9560  _nftContractAddress */\n      dup4\n        /* \"Arevea-NFT-Market/NFT-Contracts/contracts/finalMarket_single.sol\":9562:9570  _tokenId */\n      dup4\n        /* \"Arevea-NFT-Market/NFT-Contracts/contracts/finalMarket_single.sol\":4362:4382  nftContractFixedSale */\n      0x00\n        /* \"Arevea-NFT-Market/NFT-Contracts/contracts/finalMarket_single.sol\":4362:4403  nftContractFixedSale[_nftContractAddress] */\n      dup1\n        /* \"Arevea-NFT-Market/NFT-Contracts/contracts/finalMarket_single.sol\":4383:4402  _nftContractAddress */\n      dup4\n        /* \"Arevea-NFT-Market/NFT-Contracts/contracts/finalMarket_single.sol\":4362:4403  nftContractFixedSale[_nftContractAddress] */\n      0xffffffffffffffffffffffffffffffffffffffff\n      and\n      0xffffffffffffffffffffffffffffffffffffffff\n      and\n      dup2\n      mstore\n      0x20\n      add\n      swap1\n      dup2\n      mstore\n      0x20\n      add\n      0x00\n      keccak256\n        /* \"Arevea-NFT-Market/NFT-Contracts/contracts/finalMarket_single.sol\":4362:4413  nftContractFixedSale[_nftContractAddress][_tokenId] */\n      0x00\n        /* \"Arevea-NFT-Market/NFT-Contracts/contracts/finalMarket_single.sol\":4404:4412  _tokenId */\n      dup3\n        /* \"Arevea-NFT-Market/NFT-Contracts/contracts/finalMarket_single.sol\":4362:4413  nftContractFixedSale[_nftContractAddress][_tokenId] */\n      dup2\n      mstore\n      0x20\n      add\n      swap1\n      dup2\n      mstore\n      0x20\n      add\n      0x00\n      keccak256\n        /* \"Arevea-NFT-Market/NFT-Contracts/contracts/finalMarket_single.sol\":4362:4423  nftContractFixedSale[_nftContractAddress][_tokenId].nftSeller */\n      0x00\n      add\n      0x00\n      swap1\n      sload\n      swap1\n      0x0100\n      exp\n      swap1\n      div\n      0xffffffffffffffffffffffffffffffffffffffff\n      and\n        /* \"Arevea-NFT-Market/NFT-Contracts/contracts/finalMarket_single.sol\":4331:4423  msg.sender ==... */\n      0xffffffffffffffffffffffffffffffffffffffff\n      and\n        /* \"Arevea-NFT-Market/NFT-Contracts/contracts/finalMarket_single.sol\":4331:4341  msg.sender */\n      caller\n        /* \"Arevea-NFT-Market/NFT-Contracts/contracts/finalMarket_single.sol\":4331:4423  msg.sender ==... */\n      0xffffffffffffffffffffffffffffffffffffffff\n      and\n      eq\n        /* \"Arevea-NFT-Market/NFT-Contracts/contracts/finalMarket_single.sol\":4309:4472  require(... */\n      tag_320\n      jumpi\n      mload(0x40)\n      0x08c379a000000000000000000000000000000000000000000000000000000000\n      dup2\n      mstore\n      0x04\n      add\n      tag_321\n      swap1\n      tag_166\n      jump\t// in\n    tag_321:\n      mload(0x40)\n      dup1\n      swap2\n      sub\n      swap1\n      revert\n    tag_320:\n        /* \"Arevea-NFT-Market/NFT-Contracts/contracts/finalMarket_single.sol\":9596:9615  _nftContractAddress */\n      dup6\n        /* \"Arevea-NFT-Market/NFT-Contracts/contracts/finalMarket_single.sol\":9588:9633  IERC721(_nftContractAddress).safeTransferFrom */\n      0xffffffffffffffffffffffffffffffffffffffff\n      and\n      0x42842e0e\n        /* \"Arevea-NFT-Market/NFT-Contracts/contracts/finalMarket_single.sol\":9656:9660  this */\n      address\n        /* \"Arevea-NFT-Market/NFT-Contracts/contracts/finalMarket_single.sol\":9676:9686  msg.sender */\n      caller\n        /* \"Arevea-NFT-Market/NFT-Contracts/contracts/finalMarket_single.sol\":9701:9709  _tokenId */\n      dup9\n        /* \"Arevea-NFT-Market/NFT-Contracts/contracts/finalMarket_single.sol\":9588:9720  IERC721(_nftContractAddress).safeTransferFrom(... */\n      mload(0x40)\n      dup5\n      0xffffffff\n      and\n      0xe0\n      shl\n      dup2\n      mstore\n      0x04\n      add\n      tag_323\n      swap4\n      swap3\n      swap2\n      swap1\n      tag_229\n      jump\t// in\n    tag_323:\n      0x00\n      mload(0x40)\n      dup1\n      dup4\n      sub\n      dup2\n      0x00\n      dup8\n      dup1\n      extcodesize\n      iszero\n      dup1\n      iszero\n      tag_324\n      jumpi\n      0x00\n      dup1\n      revert\n    tag_324:\n      pop\n      gas\n      call\n      iszero\n      dup1\n      iszero\n      tag_326\n      jumpi\n      returndatasize\n      0x00\n      dup1\n      returndatacopy\n      revert(0x00, returndatasize)\n    tag_326:\n      pop\n      pop\n      pop\n      pop\n        /* \"Arevea-NFT-Market/NFT-Contracts/contracts/finalMarket_single.sol\":9780:9781  0 */\n      0x00\n        /* \"Arevea-NFT-Market/NFT-Contracts/contracts/finalMarket_single.sol\":9733:9746  nftSaleStatus */\n      0x02\n        /* \"Arevea-NFT-Market/NFT-Contracts/contracts/finalMarket_single.sol\":9733:9767  nftSaleStatus[_nftContractAddress] */\n      0x00\n        /* \"Arevea-NFT-Market/NFT-Contracts/contracts/finalMarket_single.sol\":9747:9766  _nftContractAddress */\n      dup9\n        /* \"Arevea-NFT-Market/NFT-Contracts/contracts/finalMarket_single.sol\":9733:9767  nftSaleStatus[_nftContractAddress] */\n      0xffffffffffffffffffffffffffffffffffffffff\n      and\n      0xffffffffffffffffffffffffffffffffffffffff\n      and\n      dup2\n      mstore\n      0x20\n      add\n      swap1\n      dup2\n      mstore\n      0x20\n      add\n      0x00\n      keccak256\n        /* \"Arevea-NFT-Market/NFT-Contracts/contracts/finalMarket_single.sol\":9733:9777  nftSaleStatus[_nftContractAddress][_tokenId] */\n      0x00\n        /* \"Arevea-NFT-Market/NFT-Contracts/contracts/finalMarket_single.sol\":9768:9776  _tokenId */\n      dup8\n        /* \"Arevea-NFT-Market/NFT-Contracts/contracts/finalMarket_single.sol\":9733:9777  nftSaleStatus[_nftContractAddress][_tokenId] */\n      dup2\n      mstore\n      0x20\n      add\n      swap1\n      dup2\n      mstore\n      0x20\n      add\n      0x00\n      keccak256\n        /* \"Arevea-NFT-Market/NFT-Contracts/contracts/finalMarket_single.sol\":9733:9781  nftSaleStatus[_nftContractAddress][_tokenId] = 0 */\n      dup2\n      swap1\n      sstore\n      pop\n        /* \"Arevea-NFT-Market/NFT-Contracts/contracts/finalMarket_single.sol\":9801:9813  fixedSaleNFT */\n      0x06\n        /* \"Arevea-NFT-Market/NFT-Contracts/contracts/finalMarket_single.sol\":9815:9832  indexFixedSaleNFT */\n      0x04\n        /* \"Arevea-NFT-Market/NFT-Contracts/contracts/finalMarket_single.sol\":9815:9853  indexFixedSaleNFT[_nftContractAddress] */\n      0x00\n        /* \"Arevea-NFT-Market/NFT-Contracts/contracts/finalMarket_single.sol\":9833:9852  _nftContractAddress */\n      dup9\n        /* \"Arevea-NFT-Market/NFT-Contracts/contracts/finalMarket_single.sol\":9815:9853  indexFixedSaleNFT[_nftContractAddress] */\n      0xffffffffffffffffffffffffffffffffffffffff\n      and\n      0xffffffffffffffffffffffffffffffffffffffff\n      and\n      dup2\n      mstore\n      0x20\n      add\n      swap1\n      dup2\n      mstore\n      0x20\n      add\n      0x00\n      keccak256\n        /* \"Arevea-NFT-Market/NFT-Contracts/contracts/finalMarket_single.sol\":9815:9863  indexFixedSaleNFT[_nftContractAddress][_tokenId] */\n      0x00\n        /* \"Arevea-NFT-Market/NFT-Contracts/contracts/finalMarket_single.sol\":9854:9862  _tokenId */\n      dup8\n        /* \"Arevea-NFT-Market/NFT-Contracts/contracts/finalMarket_single.sol\":9815:9863  indexFixedSaleNFT[_nftContractAddress][_tokenId] */\n      dup2\n      mstore\n      0x20\n      add\n      swap1\n      dup2\n      mstore\n      0x20\n      add\n      0x00\n      keccak256\n      sload\n        /* \"Arevea-NFT-Market/NFT-Contracts/contracts/finalMarket_single.sol\":9801:9865  fixedSaleNFT[(indexFixedSaleNFT[_nftContractAddress][_tokenId])] */\n      dup2\n      sload\n      dup2\n      lt\n      tag_327\n      jumpi\n      tag_328\n      tag_197\n      jump\t// in\n    tag_328:\n    tag_327:\n      swap1\n      0x00\n      mstore\n      keccak256(0x00, 0x20)\n      swap1\n      0x02\n      mul\n      add\n      0x00\n        /* \"Arevea-NFT-Market/NFT-Contracts/contracts/finalMarket_single.sol\":9794:9865  delete fixedSaleNFT[(indexFixedSaleNFT[_nftContractAddress][_tokenId])] */\n      dup1\n      dup3\n      add\n      exp(0x0100, 0x00)\n      dup2\n      sload\n      swap1\n      0xffffffffffffffffffffffffffffffffffffffff\n      mul\n      not\n      and\n      swap1\n      sstore\n      0x01\n      dup3\n      add\n      0x00\n      swap1\n      sstore\n      pop\n      pop\n        /* \"Arevea-NFT-Market/NFT-Contracts/contracts/finalMarket_single.sol\":9883:9944  CancelNftFixedSale(_nftContractAddress, msg.sender, _tokenId) */\n      0xd7348ff00cf381a884144b50b3441398a48a7974ec349287df80e18cec9f5a31\n        /* \"Arevea-NFT-Market/NFT-Contracts/contracts/finalMarket_single.sol\":9902:9921  _nftContractAddress */\n      dup7\n        /* \"Arevea-NFT-Market/NFT-Contracts/contracts/finalMarket_single.sol\":9923:9933  msg.sender */\n      caller\n        /* \"Arevea-NFT-Market/NFT-Contracts/contracts/finalMarket_single.sol\":9935:9943  _tokenId */\n      dup8\n        /* \"Arevea-NFT-Market/NFT-Contracts/contracts/finalMarket_single.sol\":9883:9944  CancelNftFixedSale(_nftContractAddress, msg.sender, _tokenId) */\n      mload(0x40)\n      tag_330\n      swap4\n      swap3\n      swap2\n      swap1\n      tag_229\n      jump\t// in\n    tag_330:\n      mload(0x40)\n      dup1\n      swap2\n      sub\n      swap1\n      log1\n        /* \"Arevea-NFT-Market/NFT-Contracts/contracts/finalMarket_single.sol\":3725:3726  _ */\n      pop\n      pop\n        /* \"Arevea-NFT-Market/NFT-Contracts/contracts/finalMarket_single.sol\":9366:9952  function cancelFixedsale(address _nftContractAddress, uint256 _tokenId)... */\n      pop\n      pop\n      pop\n      pop\n      jump\t// out\n        /* \"Arevea-NFT-Market/NFT-Contracts/contracts/finalMarket_single.sol\":21163:21391  function _bidAmountTransfer(uint256 _buyAmount, address _erc20) internal {... */\n    tag_130:\n        /* \"Arevea-NFT-Market/NFT-Contracts/contracts/finalMarket_single.sol\":21276:21282  _erc20 */\n      dup1\n        /* \"Arevea-NFT-Market/NFT-Contracts/contracts/finalMarket_single.sol\":21269:21296  IERC20(_erc20).transferFrom */\n      0xffffffffffffffffffffffffffffffffffffffff\n      and\n      0x23b872dd\n        /* \"Arevea-NFT-Market/NFT-Contracts/contracts/finalMarket_single.sol\":21297:21307  msg.sender */\n      caller\n        /* \"Arevea-NFT-Market/NFT-Contracts/contracts/finalMarket_single.sol\":21317:21321  this */\n      address\n        /* \"Arevea-NFT-Market/NFT-Contracts/contracts/finalMarket_single.sol\":21324:21334  _buyAmount */\n      dup6\n        /* \"Arevea-NFT-Market/NFT-Contracts/contracts/finalMarket_single.sol\":21269:21335  IERC20(_erc20).transferFrom(msg.sender, address(this), _buyAmount) */\n      mload(0x40)\n      dup5\n      0xffffffff\n      and\n      0xe0\n      shl\n      dup2\n      mstore\n      0x04\n      add\n      tag_332\n      swap4\n      swap3\n      swap2\n      swap1\n      tag_229\n      jump\t// in\n    tag_332:\n      0x20\n      mload(0x40)\n      dup1\n      dup4\n      sub\n      dup2\n      0x00\n      dup8\n      gas\n      call\n      iszero\n      dup1\n      iszero\n      tag_334\n      jumpi\n      returndatasize\n      0x00\n      dup1\n      returndatacopy\n      revert(0x00, returndatasize)\n    tag_334:\n      pop\n      pop\n      pop\n      pop\n      mload(0x40)\n      returndatasize\n      not(0x1f)\n      0x1f\n      dup3\n      add\n      and\n      dup3\n      add\n      dup1\n      0x40\n      mstore\n      pop\n      dup2\n      add\n      swap1\n      tag_335\n      swap2\n      swap1\n      tag_219\n      jump\t// in\n    tag_335:\n        /* \"Arevea-NFT-Market/NFT-Contracts/contracts/finalMarket_single.sol\":21247:21383  require(... */\n      tag_336\n      jumpi\n      mload(0x40)\n      0x08c379a000000000000000000000000000000000000000000000000000000000\n      dup2\n      mstore\n      0x04\n      add\n      tag_337\n      swap1\n      tag_338\n      jump\t// in\n    tag_337:\n      mload(0x40)\n      dup1\n      swap2\n      sub\n      swap1\n      revert\n    tag_336:\n        /* \"Arevea-NFT-Market/NFT-Contracts/contracts/finalMarket_single.sol\":21163:21391  function _bidAmountTransfer(uint256 _buyAmount, address _erc20) internal {... */\n      pop\n      pop\n      jump\t// out\n        /* \"@openzeppelin/contracts/utils/math/SafeMath.sol\":2755:2851  function add(uint256 a, uint256 b) internal pure returns (uint256) {... */\n    tag_149:\n        /* \"@openzeppelin/contracts/utils/math/SafeMath.sol\":2813:2820  uint256 */\n      0x00\n        /* \"@openzeppelin/contracts/utils/math/SafeMath.sol\":2843:2844  b */\n      dup2\n        /* \"@openzeppelin/contracts/utils/math/SafeMath.sol\":2839:2840  a */\n      dup4\n        /* \"@openzeppelin/contracts/utils/math/SafeMath.sol\":2839:2844  a + b */\n      tag_340\n      swap2\n      swap1\n      tag_341\n      jump\t// in\n    tag_340:\n        /* \"@openzeppelin/contracts/utils/math/SafeMath.sol\":2832:2844  return a + b */\n      swap1\n      pop\n        /* \"@openzeppelin/contracts/utils/math/SafeMath.sol\":2755:2851  function add(uint256 a, uint256 b) internal pure returns (uint256) {... */\n      swap3\n      swap2\n      pop\n      pop\n      jump\t// out\n        /* \"Arevea-NFT-Market/NFT-Contracts/contracts/finalMarket_single.sol\":18945:19541  function _transferNftAndPaySeller(... */\n    tag_194:\n        /* \"Arevea-NFT-Market/NFT-Contracts/contracts/finalMarket_single.sol\":19135:19154  _nftContractAddress */\n      dup4\n        /* \"Arevea-NFT-Market/NFT-Contracts/contracts/finalMarket_single.sol\":19127:19172  IERC721(_nftContractAddress).safeTransferFrom */\n      0xffffffffffffffffffffffffffffffffffffffff\n      and\n      0x42842e0e\n        /* \"Arevea-NFT-Market/NFT-Contracts/contracts/finalMarket_single.sol\":19195:19199  this */\n      address\n        /* \"Arevea-NFT-Market/NFT-Contracts/contracts/finalMarket_single.sol\":19215:19224  _nftBuyer */\n      dup4\n        /* \"Arevea-NFT-Market/NFT-Contracts/contracts/finalMarket_single.sol\":19239:19247  _tokenId */\n      dup7\n        /* \"Arevea-NFT-Market/NFT-Contracts/contracts/finalMarket_single.sol\":19127:19258  IERC721(_nftContractAddress).safeTransferFrom(... */\n      mload(0x40)\n      dup5\n      0xffffffff\n      and\n      0xe0\n      shl\n      dup2\n      mstore\n      0x04\n      add\n      tag_343\n      swap4\n      swap3\n      swap2\n      swap1\n      tag_229\n      jump\t// in\n    tag_343:\n      0x00\n      mload(0x40)\n      dup1\n      dup4\n      sub\n      dup2\n      0x00\n      dup8\n      dup1\n      extcodesize\n      iszero\n      dup1\n      iszero\n      tag_344\n      jumpi\n      0x00\n      dup1\n      revert\n    tag_344:\n      pop\n      gas\n      call\n      iszero\n      dup1\n      iszero\n      tag_346\n      jumpi\n      returndatasize\n      0x00\n      dup1\n      returndatacopy\n      revert(0x00, returndatasize)\n    tag_346:\n      pop\n      pop\n      pop\n      pop\n        /* \"Arevea-NFT-Market/NFT-Contracts/contracts/finalMarket_single.sol\":19318:19319  0 */\n      0x00\n        /* \"Arevea-NFT-Market/NFT-Contracts/contracts/finalMarket_single.sol\":19271:19284  nftSaleStatus */\n      0x02\n        /* \"Arevea-NFT-Market/NFT-Contracts/contracts/finalMarket_single.sol\":19271:19305  nftSaleStatus[_nftContractAddress] */\n      0x00\n        /* \"Arevea-NFT-Market/NFT-Contracts/contracts/finalMarket_single.sol\":19285:19304  _nftContractAddress */\n      dup7\n        /* \"Arevea-NFT-Market/NFT-Contracts/contracts/finalMarket_single.sol\":19271:19305  nftSaleStatus[_nftContractAddress] */\n      0xffffffffffffffffffffffffffffffffffffffff\n      and\n      0xffffffffffffffffffffffffffffffffffffffff\n      and\n      dup2\n      mstore\n      0x20\n      add\n      swap1\n      dup2\n      mstore\n      0x20\n      add\n      0x00\n      keccak256\n        /* \"Arevea-NFT-Market/NFT-Contracts/contracts/finalMarket_single.sol\":19271:19315  nftSaleStatus[_nftContractAddress][_tokenId] */\n      0x00\n        /* \"Arevea-NFT-Market/NFT-Contracts/contracts/finalMarket_single.sol\":19306:19314  _tokenId */\n      dup6\n        /* \"Arevea-NFT-Market/NFT-Contracts/contracts/finalMarket_single.sol\":19271:19315  nftSaleStatus[_nftContractAddress][_tokenId] */\n      dup2\n      mstore\n      0x20\n      add\n      swap1\n      dup2\n      mstore\n      0x20\n      add\n      0x00\n      keccak256\n        /* \"Arevea-NFT-Market/NFT-Contracts/contracts/finalMarket_single.sol\":19271:19319  nftSaleStatus[_nftContractAddress][_tokenId] = 0 */\n      dup2\n      swap1\n      sstore\n      pop\n        /* \"Arevea-NFT-Market/NFT-Contracts/contracts/finalMarket_single.sol\":19332:19533  _isTokenOrCoin(... */\n      tag_347\n        /* \"Arevea-NFT-Market/NFT-Contracts/contracts/finalMarket_single.sol\":19361:19383  nftContractAuctionSale */\n      0x01\n        /* \"Arevea-NFT-Market/NFT-Contracts/contracts/finalMarket_single.sol\":19361:19404  nftContractAuctionSale[_nftContractAddress] */\n      0x00\n        /* \"Arevea-NFT-Market/NFT-Contracts/contracts/finalMarket_single.sol\":19384:19403  _nftContractAddress */\n      dup7\n        /* \"Arevea-NFT-Market/NFT-Contracts/contracts/finalMarket_single.sol\":19361:19404  nftContractAuctionSale[_nftContractAddress] */\n      0xffffffffffffffffffffffffffffffffffffffff\n      and\n      0xffffffffffffffffffffffffffffffffffffffff\n      and\n      dup2\n      mstore\n      0x20\n      add\n      swap1\n      dup2\n      mstore\n      0x20\n      add\n      0x00\n      keccak256\n        /* \"Arevea-NFT-Market/NFT-Contracts/contracts/finalMarket_single.sol\":19361:19414  nftContractAuctionSale[_nftContractAddress][_tokenId] */\n      0x00\n        /* \"Arevea-NFT-Market/NFT-Contracts/contracts/finalMarket_single.sol\":19405:19413  _tokenId */\n      dup6\n        /* \"Arevea-NFT-Market/NFT-Contracts/contracts/finalMarket_single.sol\":19361:19414  nftContractAuctionSale[_nftContractAddress][_tokenId] */\n      dup2\n      mstore\n      0x20\n      add\n      swap1\n      dup2\n      mstore\n      0x20\n      add\n      0x00\n      keccak256\n        /* \"Arevea-NFT-Market/NFT-Contracts/contracts/finalMarket_single.sol\":19361:19424  nftContractAuctionSale[_nftContractAddress][_tokenId].nftSeller */\n      0x05\n      add\n      0x00\n      swap1\n      sload\n      swap1\n      0x0100\n      exp\n      swap1\n      div\n      0xffffffffffffffffffffffffffffffffffffffff\n      and\n        /* \"Arevea-NFT-Market/NFT-Contracts/contracts/finalMarket_single.sol\":19439:19461  nftContractAuctionSale */\n      0x01\n        /* \"Arevea-NFT-Market/NFT-Contracts/contracts/finalMarket_single.sol\":19439:19482  nftContractAuctionSale[_nftContractAddress] */\n      0x00\n        /* \"Arevea-NFT-Market/NFT-Contracts/contracts/finalMarket_single.sol\":19462:19481  _nftContractAddress */\n      dup8\n        /* \"Arevea-NFT-Market/NFT-Contracts/contracts/finalMarket_single.sol\":19439:19482  nftContractAuctionSale[_nftContractAddress] */\n      0xffffffffffffffffffffffffffffffffffffffff\n      and\n      0xffffffffffffffffffffffffffffffffffffffff\n      and\n      dup2\n      mstore\n      0x20\n      add\n      swap1\n      dup2\n      mstore\n      0x20\n      add\n      0x00\n      keccak256\n        /* \"Arevea-NFT-Market/NFT-Contracts/contracts/finalMarket_single.sol\":19439:19492  nftContractAuctionSale[_nftContractAddress][_tokenId] */\n      0x00\n        /* \"Arevea-NFT-Market/NFT-Contracts/contracts/finalMarket_single.sol\":19483:19491  _tokenId */\n      dup7\n        /* \"Arevea-NFT-Market/NFT-Contracts/contracts/finalMarket_single.sol\":19439:19492  nftContractAuctionSale[_nftContractAddress][_tokenId] */\n      dup2\n      mstore\n      0x20\n      add\n      swap1\n      dup2\n      mstore\n      0x20\n      add\n      0x00\n      keccak256\n        /* \"Arevea-NFT-Market/NFT-Contracts/contracts/finalMarket_single.sol\":19439:19498  nftContractAuctionSale[_nftContractAddress][_tokenId].erc20 */\n      0x06\n      add\n      0x00\n      swap1\n      sload\n      swap1\n      0x0100\n      exp\n      swap1\n      div\n      0xffffffffffffffffffffffffffffffffffffffff\n      and\n        /* \"Arevea-NFT-Market/NFT-Contracts/contracts/finalMarket_single.sol\":19513:19522  _bidPrice */\n      dup5\n        /* \"Arevea-NFT-Market/NFT-Contracts/contracts/finalMarket_single.sol\":19332:19346  _isTokenOrCoin */\n      tag_287\n        /* \"Arevea-NFT-Market/NFT-Contracts/contracts/finalMarket_single.sol\":19332:19533  _isTokenOrCoin(... */\n      jump\t// in\n    tag_347:\n        /* \"Arevea-NFT-Market/NFT-Contracts/contracts/finalMarket_single.sol\":18945:19541  function _transferNftAndPaySeller(... */\n      pop\n      pop\n      pop\n      pop\n      jump\t// out\n        /* \"Arevea-NFT-Market/NFT-Contracts/contracts/finalMarket_single.sol\":20831:21155  function _isTokenOrCoin(... */\n    tag_287:\n        /* \"Arevea-NFT-Market/NFT-Contracts/contracts/finalMarket_single.sol\":20987:20988  0 */\n      0x00\n        /* \"Arevea-NFT-Market/NFT-Contracts/contracts/finalMarket_single.sol\":20969:20989  _erc20 != address(0) */\n      0xffffffffffffffffffffffffffffffffffffffff\n      and\n        /* \"Arevea-NFT-Market/NFT-Contracts/contracts/finalMarket_single.sol\":20969:20975  _erc20 */\n      dup3\n        /* \"Arevea-NFT-Market/NFT-Contracts/contracts/finalMarket_single.sol\":20969:20989  _erc20 != address(0) */\n      0xffffffffffffffffffffffffffffffffffffffff\n      and\n      eq\n        /* \"Arevea-NFT-Market/NFT-Contracts/contracts/finalMarket_single.sol\":20965:21148  if (_erc20 != address(0)) {... */\n      tag_349\n      jumpi\n        /* \"Arevea-NFT-Market/NFT-Contracts/contracts/finalMarket_single.sol\":21006:21058  _tokenAmountTransfer(_nftSeller, _erc20, _buyAmount) */\n      tag_350\n        /* \"Arevea-NFT-Market/NFT-Contracts/contracts/finalMarket_single.sol\":21027:21037  _nftSeller */\n      dup4\n        /* \"Arevea-NFT-Market/NFT-Contracts/contracts/finalMarket_single.sol\":21039:21045  _erc20 */\n      dup4\n        /* \"Arevea-NFT-Market/NFT-Contracts/contracts/finalMarket_single.sol\":21047:21057  _buyAmount */\n      dup4\n        /* \"Arevea-NFT-Market/NFT-Contracts/contracts/finalMarket_single.sol\":21006:21026  _tokenAmountTransfer */\n      tag_351\n        /* \"Arevea-NFT-Market/NFT-Contracts/contracts/finalMarket_single.sol\":21006:21058  _tokenAmountTransfer(_nftSeller, _erc20, _buyAmount) */\n      jump\t// in\n    tag_350:\n        /* \"Arevea-NFT-Market/NFT-Contracts/contracts/finalMarket_single.sol\":20965:21148  if (_erc20 != address(0)) {... */\n      jump(tag_352)\n    tag_349:\n        /* \"Arevea-NFT-Market/NFT-Contracts/contracts/finalMarket_single.sol\":21091:21136  _nativeAmountTransfer(_nftSeller, _buyAmount) */\n      tag_353\n        /* \"Arevea-NFT-Market/NFT-Contracts/contracts/finalMarket_single.sol\":21113:21123  _nftSeller */\n      dup4\n        /* \"Arevea-NFT-Market/NFT-Contracts/contracts/finalMarket_single.sol\":21125:21135  _buyAmount */\n      dup3\n        /* \"Arevea-NFT-Market/NFT-Contracts/contracts/finalMarket_single.sol\":21091:21112  _nativeAmountTransfer */\n      tag_354\n        /* \"Arevea-NFT-Market/NFT-Contracts/contracts/finalMarket_single.sol\":21091:21136  _nativeAmountTransfer(_nftSeller, _buyAmount) */\n      jump\t// in\n    tag_353:\n        /* \"Arevea-NFT-Market/NFT-Contracts/contracts/finalMarket_single.sol\":20965:21148  if (_erc20 != address(0)) {... */\n    tag_352:\n        /* \"Arevea-NFT-Market/NFT-Contracts/contracts/finalMarket_single.sol\":20831:21155  function _isTokenOrCoin(... */\n      pop\n      pop\n      pop\n      jump\t// out\n        /* \"Arevea-NFT-Market/NFT-Contracts/contracts/finalMarket_single.sol\":20121:20823  function _storedNftAuctionDetails(... */\n    tag_312:\n        /* \"Arevea-NFT-Market/NFT-Contracts/contracts/finalMarket_single.sol\":20418:20609  Auction(... */\n      mload(0x40)\n      dup1\n      0xe0\n      add\n      0x40\n      mstore\n      dup1\n        /* \"Arevea-NFT-Market/NFT-Contracts/contracts/finalMarket_single.sol\":20440:20453  _auctionStart */\n      dup5\n        /* \"Arevea-NFT-Market/NFT-Contracts/contracts/finalMarket_single.sol\":20418:20609  Auction(... */\n      dup2\n      mstore\n      0x20\n      add\n        /* \"Arevea-NFT-Market/NFT-Contracts/contracts/finalMarket_single.sol\":20468:20479  _auctionEnd */\n      dup4\n        /* \"Arevea-NFT-Market/NFT-Contracts/contracts/finalMarket_single.sol\":20418:20609  Auction(... */\n      dup2\n      mstore\n      0x20\n      add\n        /* \"Arevea-NFT-Market/NFT-Contracts/contracts/finalMarket_single.sol\":20494:20503  _minPrice */\n      dup3\n        /* \"Arevea-NFT-Market/NFT-Contracts/contracts/finalMarket_single.sol\":20418:20609  Auction(... */\n      dup2\n      mstore\n      0x20\n      add\n        /* \"Arevea-NFT-Market/NFT-Contracts/contracts/finalMarket_single.sol\":20518:20527  _minPrice */\n      dup3\n        /* \"Arevea-NFT-Market/NFT-Contracts/contracts/finalMarket_single.sol\":20418:20609  Auction(... */\n      dup2\n      mstore\n      0x20\n      add\n        /* \"Arevea-NFT-Market/NFT-Contracts/contracts/finalMarket_single.sol\":20550:20551  0 */\n      0x00\n        /* \"Arevea-NFT-Market/NFT-Contracts/contracts/finalMarket_single.sol\":20418:20609  Auction(... */\n      0xffffffffffffffffffffffffffffffffffffffff\n      and\n      dup2\n      mstore\n      0x20\n      add\n        /* \"Arevea-NFT-Market/NFT-Contracts/contracts/finalMarket_single.sol\":20567:20577  msg.sender */\n      caller\n        /* \"Arevea-NFT-Market/NFT-Contracts/contracts/finalMarket_single.sol\":20418:20609  Auction(... */\n      0xffffffffffffffffffffffffffffffffffffffff\n      and\n      dup2\n      mstore\n      0x20\n      add\n        /* \"Arevea-NFT-Market/NFT-Contracts/contracts/finalMarket_single.sol\":20592:20598  _erc20 */\n      dup7\n        /* \"Arevea-NFT-Market/NFT-Contracts/contracts/finalMarket_single.sol\":20418:20609  Auction(... */\n      0xffffffffffffffffffffffffffffffffffffffff\n      and\n      dup2\n      mstore\n      pop\n        /* \"Arevea-NFT-Market/NFT-Contracts/contracts/finalMarket_single.sol\":20362:20384  nftContractAuctionSale */\n      0x01\n        /* \"Arevea-NFT-Market/NFT-Contracts/contracts/finalMarket_single.sol\":20362:20405  nftContractAuctionSale[_nftContractAddress] */\n      0x00\n        /* \"Arevea-NFT-Market/NFT-Contracts/contracts/finalMarket_single.sol\":20385:20404  _nftContractAddress */\n      dup9\n        /* \"Arevea-NFT-Market/NFT-Contracts/contracts/finalMarket_single.sol\":20362:20405  nftContractAuctionSale[_nftContractAddress] */\n      0xffffffffffffffffffffffffffffffffffffffff\n      and\n      0xffffffffffffffffffffffffffffffffffffffff\n      and\n      dup2\n      mstore\n      0x20\n      add\n      swap1\n      dup2\n      mstore\n      0x20\n      add\n      0x00\n      keccak256\n        /* \"Arevea-NFT-Market/NFT-Contracts/contracts/finalMarket_single.sol\":20362:20415  nftContractAuctionSale[_nftContractAddress][_tokenId] */\n      0x00\n        /* \"Arevea-NFT-Market/NFT-Contracts/contracts/finalMarket_single.sol\":20406:20414  _tokenId */\n      dup7\n        /* \"Arevea-NFT-Market/NFT-Contracts/contracts/finalMarket_single.sol\":20362:20415  nftContractAuctionSale[_nftContractAddress][_tokenId] */\n      dup2\n      mstore\n      0x20\n      add\n      swap1\n      dup2\n      mstore\n      0x20\n      add\n      0x00\n      keccak256\n        /* \"Arevea-NFT-Market/NFT-Contracts/contracts/finalMarket_single.sol\":20362:20609  nftContractAuctionSale[_nftContractAddress][_tokenId] = Auction(... */\n      0x00\n      dup3\n      add\n      mload\n      dup2\n      0x00\n      add\n      sstore\n      0x20\n      dup3\n      add\n      mload\n      dup2\n      0x01\n      add\n      sstore\n      0x40\n      dup3\n      add\n      mload\n      dup2\n      0x02\n      add\n      sstore\n      0x60\n      dup3\n      add\n      mload\n      dup2\n      0x03\n      add\n      sstore\n      0x80\n      dup3\n      add\n      mload\n      dup2\n      0x04\n      add\n      exp(0x0100, 0x00)\n      dup2\n      sload\n      dup2\n      0xffffffffffffffffffffffffffffffffffffffff\n      mul\n      not\n      and\n      swap1\n      dup4\n      0xffffffffffffffffffffffffffffffffffffffff\n      and\n      mul\n      or\n      swap1\n      sstore\n      pop\n      0xa0\n      dup3\n      add\n      mload\n      dup2\n      0x05\n      add\n      exp(0x0100, 0x00)\n      dup2\n      sload\n      dup2\n      0xffffffffffffffffffffffffffffffffffffffff\n      mul\n      not\n      and\n      swap1\n      dup4\n      0xffffffffffffffffffffffffffffffffffffffff\n      and\n      mul\n      or\n      swap1\n      sstore\n      pop\n      0xc0\n      dup3\n      add\n      mload\n      dup2\n      0x06\n      add\n      exp(0x0100, 0x00)\n      dup2\n      sload\n      dup2\n      0xffffffffffffffffffffffffffffffffffffffff\n      mul\n      not\n      and\n      swap1\n      dup4\n      0xffffffffffffffffffffffffffffffffffffffff\n      and\n      mul\n      or\n      swap1\n      sstore\n      pop\n      swap1\n      pop\n      pop\n        /* \"Arevea-NFT-Market/NFT-Contracts/contracts/finalMarket_single.sol\":20669:20670  2 */\n      0x02\n        /* \"Arevea-NFT-Market/NFT-Contracts/contracts/finalMarket_single.sol\":20622:20635  nftSaleStatus */\n      dup1\n        /* \"Arevea-NFT-Market/NFT-Contracts/contracts/finalMarket_single.sol\":20622:20656  nftSaleStatus[_nftContractAddress] */\n      0x00\n        /* \"Arevea-NFT-Market/NFT-Contracts/contracts/finalMarket_single.sol\":20636:20655  _nftContractAddress */\n      dup9\n        /* \"Arevea-NFT-Market/NFT-Contracts/contracts/finalMarket_single.sol\":20622:20656  nftSaleStatus[_nftContractAddress] */\n      0xffffffffffffffffffffffffffffffffffffffff\n      and\n      0xffffffffffffffffffffffffffffffffffffffff\n      and\n      dup2\n      mstore\n      0x20\n      add\n      swap1\n      dup2\n      mstore\n      0x20\n      add\n      0x00\n      keccak256\n        /* \"Arevea-NFT-Market/NFT-Contracts/contracts/finalMarket_single.sol\":20622:20666  nftSaleStatus[_nftContractAddress][_tokenId] */\n      0x00\n        /* \"Arevea-NFT-Market/NFT-Contracts/contracts/finalMarket_single.sol\":20657:20665  _tokenId */\n      dup7\n        /* \"Arevea-NFT-Market/NFT-Contracts/contracts/finalMarket_single.sol\":20622:20666  nftSaleStatus[_nftContractAddress][_tokenId] */\n      dup2\n      mstore\n      0x20\n      add\n      swap1\n      dup2\n      mstore\n      0x20\n      add\n      0x00\n      keccak256\n        /* \"Arevea-NFT-Market/NFT-Contracts/contracts/finalMarket_single.sol\":20622:20670  nftSaleStatus[_nftContractAddress][_tokenId] = 2 */\n      dup2\n      swap1\n      sstore\n      pop\n        /* \"Arevea-NFT-Market/NFT-Contracts/contracts/finalMarket_single.sol\":20691:20710  _nftContractAddress */\n      dup6\n        /* \"Arevea-NFT-Market/NFT-Contracts/contracts/finalMarket_single.sol\":20683:20728  IERC721(_nftContractAddress).safeTransferFrom */\n      0xffffffffffffffffffffffffffffffffffffffff\n      and\n      0x42842e0e\n        /* \"Arevea-NFT-Market/NFT-Contracts/contracts/finalMarket_single.sol\":20743:20753  msg.sender */\n      caller\n        /* \"Arevea-NFT-Market/NFT-Contracts/contracts/finalMarket_single.sol\":20776:20780  this */\n      address\n        /* \"Arevea-NFT-Market/NFT-Contracts/contracts/finalMarket_single.sol\":20796:20804  _tokenId */\n      dup8\n        /* \"Arevea-NFT-Market/NFT-Contracts/contracts/finalMarket_single.sol\":20683:20815  IERC721(_nftContractAddress).safeTransferFrom(... */\n      mload(0x40)\n      dup5\n      0xffffffff\n      and\n      0xe0\n      shl\n      dup2\n      mstore\n      0x04\n      add\n      tag_356\n      swap4\n      swap3\n      swap2\n      swap1\n      tag_229\n      jump\t// in\n    tag_356:\n      0x00\n      mload(0x40)\n      dup1\n      dup4\n      sub\n      dup2\n      0x00\n      dup8\n      dup1\n      extcodesize\n      iszero\n      dup1\n      iszero\n      tag_357\n      jumpi\n      0x00\n      dup1\n      revert\n    tag_357:\n      pop\n      gas\n      call\n      iszero\n      dup1\n      iszero\n      tag_359\n      jumpi\n      returndatasize\n      0x00\n      dup1\n      returndatacopy\n      revert(0x00, returndatasize)\n    tag_359:\n      pop\n      pop\n      pop\n      pop\n        /* \"Arevea-NFT-Market/NFT-Contracts/contracts/finalMarket_single.sol\":20121:20823  function _storedNftAuctionDetails(... */\n      pop\n      pop\n      pop\n      pop\n      pop\n      pop\n      jump\t// out\n        /* \"Arevea-NFT-Market/NFT-Contracts/contracts/finalMarket_single.sol\":19549:19891  function _tokenAmountTransfer(... */\n    tag_351:\n        /* \"Arevea-NFT-Market/NFT-Contracts/contracts/finalMarket_single.sol\":19718:19724  _erc20 */\n      dup2\n        /* \"Arevea-NFT-Market/NFT-Contracts/contracts/finalMarket_single.sol\":19711:19738  IERC20(_erc20).transferFrom */\n      0xffffffffffffffffffffffffffffffffffffffff\n      and\n      0x23b872dd\n        /* \"Arevea-NFT-Market/NFT-Contracts/contracts/finalMarket_single.sol\":19739:19749  msg.sender */\n      caller\n        /* \"Arevea-NFT-Market/NFT-Contracts/contracts/finalMarket_single.sol\":19759:19763  this */\n      address\n        /* \"Arevea-NFT-Market/NFT-Contracts/contracts/finalMarket_single.sol\":19766:19776  _buyAmount */\n      dup5\n        /* \"Arevea-NFT-Market/NFT-Contracts/contracts/finalMarket_single.sol\":19711:19777  IERC20(_erc20).transferFrom(msg.sender, address(this), _buyAmount) */\n      mload(0x40)\n      dup5\n      0xffffffff\n      and\n      0xe0\n      shl\n      dup2\n      mstore\n      0x04\n      add\n      tag_361\n      swap4\n      swap3\n      swap2\n      swap1\n      tag_229\n      jump\t// in\n    tag_361:\n      0x20\n      mload(0x40)\n      dup1\n      dup4\n      sub\n      dup2\n      0x00\n      dup8\n      gas\n      call\n      iszero\n      dup1\n      iszero\n      tag_363\n      jumpi\n      returndatasize\n      0x00\n      dup1\n      returndatacopy\n      revert(0x00, returndatasize)\n    tag_363:\n      pop\n      pop\n      pop\n      pop\n      mload(0x40)\n      returndatasize\n      not(0x1f)\n      0x1f\n      dup3\n      add\n      and\n      dup3\n      add\n      dup1\n      0x40\n      mstore\n      pop\n      dup2\n      add\n      swap1\n      tag_364\n      swap2\n      swap1\n      tag_219\n      jump\t// in\n    tag_364:\n        /* \"Arevea-NFT-Market/NFT-Contracts/contracts/finalMarket_single.sol\":19689:19825  require(... */\n      tag_365\n      jumpi\n      mload(0x40)\n      0x08c379a000000000000000000000000000000000000000000000000000000000\n      dup2\n      mstore\n      0x04\n      add\n      tag_366\n      swap1\n      tag_338\n      jump\t// in\n    tag_366:\n      mload(0x40)\n      dup1\n      swap2\n      sub\n      swap1\n      revert\n    tag_365:\n        /* \"Arevea-NFT-Market/NFT-Contracts/contracts/finalMarket_single.sol\":19843:19849  _erc20 */\n      dup2\n        /* \"Arevea-NFT-Market/NFT-Contracts/contracts/finalMarket_single.sol\":19836:19859  IERC20(_erc20).transfer */\n      0xffffffffffffffffffffffffffffffffffffffff\n      and\n      0xa9059cbb\n        /* \"Arevea-NFT-Market/NFT-Contracts/contracts/finalMarket_single.sol\":19860:19870  _nftSeller */\n      dup5\n        /* \"Arevea-NFT-Market/NFT-Contracts/contracts/finalMarket_single.sol\":19872:19882  _buyAmount */\n      dup4\n        /* \"Arevea-NFT-Market/NFT-Contracts/contracts/finalMarket_single.sol\":19836:19883  IERC20(_erc20).transfer(_nftSeller, _buyAmount) */\n      mload(0x40)\n      dup4\n      0xffffffff\n      and\n      0xe0\n      shl\n      dup2\n      mstore\n      0x04\n      add\n      tag_367\n      swap3\n      swap2\n      swap1\n      tag_368\n      jump\t// in\n    tag_367:\n      0x20\n      mload(0x40)\n      dup1\n      dup4\n      sub\n      dup2\n      0x00\n      dup8\n      gas\n      call\n      iszero\n      dup1\n      iszero\n      tag_370\n      jumpi\n      returndatasize\n      0x00\n      dup1\n      returndatacopy\n      revert(0x00, returndatasize)\n    tag_370:\n      pop\n      pop\n      pop\n      pop\n      mload(0x40)\n      returndatasize\n      not(0x1f)\n      0x1f\n      dup3\n      add\n      and\n      dup3\n      add\n      dup1\n      0x40\n      mstore\n      pop\n      dup2\n      add\n      swap1\n      tag_371\n      swap2\n      swap1\n      tag_219\n      jump\t// in\n    tag_371:\n      pop\n        /* \"Arevea-NFT-Market/NFT-Contracts/contracts/finalMarket_single.sol\":19549:19891  function _tokenAmountTransfer(... */\n      pop\n      pop\n      pop\n      jump\t// out\n        /* \"Arevea-NFT-Market/NFT-Contracts/contracts/finalMarket_single.sol\":19899:20113  function _nativeAmountTransfer(address _nftSeller, uint256 _buyAmount)... */\n    tag_354:\n        /* \"Arevea-NFT-Market/NFT-Contracts/contracts/finalMarket_single.sol\":20005:20017  bool success */\n      0x00\n        /* \"Arevea-NFT-Market/NFT-Contracts/contracts/finalMarket_single.sol\":20023:20033  _nftSeller */\n      dup3\n        /* \"Arevea-NFT-Market/NFT-Contracts/contracts/finalMarket_single.sol\":20023:20038  _nftSeller.call */\n      0xffffffffffffffffffffffffffffffffffffffff\n      and\n        /* \"Arevea-NFT-Market/NFT-Contracts/contracts/finalMarket_single.sol\":20046:20056  _buyAmount */\n      dup3\n        /* \"Arevea-NFT-Market/NFT-Contracts/contracts/finalMarket_single.sol\":20023:20061  _nftSeller.call{value: _buyAmount}(\"\") */\n      mload(0x40)\n      tag_373\n      swap1\n      tag_374\n      jump\t// in\n    tag_373:\n      0x00\n      mload(0x40)\n      dup1\n      dup4\n      sub\n      dup2\n      dup6\n      dup8\n      gas\n      call\n      swap3\n      pop\n      pop\n      pop\n      returndatasize\n      dup1\n      0x00\n      dup2\n      eq\n      tag_377\n      jumpi\n      mload(0x40)\n      swap2\n      pop\n      and(add(returndatasize, 0x3f), not(0x1f))\n      dup3\n      add\n      0x40\n      mstore\n      returndatasize\n      dup3\n      mstore\n      returndatasize\n      0x00\n      0x20\n      dup5\n      add\n      returndatacopy\n      jump(tag_376)\n    tag_377:\n      0x60\n      swap2\n      pop\n    tag_376:\n      pop\n        /* \"Arevea-NFT-Market/NFT-Contracts/contracts/finalMarket_single.sol\":20004:20061  (bool success, ) = _nftSeller.call{value: _buyAmount}(\"\") */\n      pop\n      swap1\n      pop\n        /* \"Arevea-NFT-Market/NFT-Contracts/contracts/finalMarket_single.sol\":20080:20087  success */\n      dup1\n        /* \"Arevea-NFT-Market/NFT-Contracts/contracts/finalMarket_single.sol\":20072:20105  require(success, \"refund failed\") */\n      tag_378\n      jumpi\n      mload(0x40)\n      0x08c379a000000000000000000000000000000000000000000000000000000000\n      dup2\n      mstore\n      0x04\n      add\n      tag_379\n      swap1\n      tag_380\n      jump\t// in\n    tag_379:\n      mload(0x40)\n      dup1\n      swap2\n      sub\n      swap1\n      revert\n    tag_378:\n        /* \"Arevea-NFT-Market/NFT-Contracts/contracts/finalMarket_single.sol\":19993:20113  {... */\n      pop\n        /* \"Arevea-NFT-Market/NFT-Contracts/contracts/finalMarket_single.sol\":19899:20113  function _nativeAmountTransfer(address _nftSeller, uint256 _buyAmount)... */\n      pop\n      pop\n      jump\t// out\n    tag_236:\n      mload(0x40)\n      dup1\n      0xe0\n      add\n      0x40\n      mstore\n      dup1\n      0x00\n      dup2\n      mstore\n      0x20\n      add\n      0x00\n      dup2\n      mstore\n      0x20\n      add\n      0x00\n      dup2\n      mstore\n      0x20\n      add\n      0x00\n      dup2\n      mstore\n      0x20\n      add\n      and(0xffffffffffffffffffffffffffffffffffffffff, 0x00)\n      dup2\n      mstore\n      0x20\n      add\n      and(0xffffffffffffffffffffffffffffffffffffffff, 0x00)\n      dup2\n      mstore\n      0x20\n      add\n      and(0xffffffffffffffffffffffffffffffffffffffff, 0x00)\n      dup2\n      mstore\n      pop\n      swap1\n      jump\t// out\n    tag_262:\n      mload(0x40)\n      dup1\n      0x80\n      add\n      0x40\n      mstore\n      dup1\n      and(0xffffffffffffffffffffffffffffffffffffffff, 0x00)\n      dup2\n      mstore\n      0x20\n      add\n      and(0xffffffffffffffffffffffffffffffffffffffff, 0x00)\n      dup2\n      mstore\n      0x20\n      add\n      and(0xffffffffffffffffffffffffffffffffffffffff, 0x00)\n      dup2\n      mstore\n      0x20\n      add\n      0x00\n      dup2\n      mstore\n      pop\n      swap1\n      jump\t// out\n        /* \"#utility.yul\":88:205   */\n    tag_382:\n        /* \"#utility.yul\":197:198   */\n      0x00\n        /* \"#utility.yul\":194:195   */\n      dup1\n        /* \"#utility.yul\":187:199   */\n      revert\n        /* \"#utility.yul\":211:328   */\n    tag_383:\n        /* \"#utility.yul\":320:321   */\n      0x00\n        /* \"#utility.yul\":317:318   */\n      dup1\n        /* \"#utility.yul\":310:322   */\n      revert\n        /* \"#utility.yul\":334:460   */\n    tag_384:\n        /* \"#utility.yul\":371:378   */\n      0x00\n        /* \"#utility.yul\":411:453   */\n      0xffffffffffffffffffffffffffffffffffffffff\n        /* \"#utility.yul\":404:409   */\n      dup3\n        /* \"#utility.yul\":400:454   */\n      and\n        /* \"#utility.yul\":389:454   */\n      swap1\n      pop\n        /* \"#utility.yul\":334:460   */\n      swap2\n      swap1\n      pop\n      jump\t// out\n        /* \"#utility.yul\":466:562   */\n    tag_385:\n        /* \"#utility.yul\":503:510   */\n      0x00\n        /* \"#utility.yul\":532:556   */\n      tag_457\n        /* \"#utility.yul\":550:555   */\n      dup3\n        /* \"#utility.yul\":532:556   */\n      tag_384\n      jump\t// in\n    tag_457:\n        /* \"#utility.yul\":521:556   */\n      swap1\n      pop\n        /* \"#utility.yul\":466:562   */\n      swap2\n      swap1\n      pop\n      jump\t// out\n        /* \"#utility.yul\":568:690   */\n    tag_386:\n        /* \"#utility.yul\":641:665   */\n      tag_459\n        /* \"#utility.yul\":659:664   */\n      dup2\n        /* \"#utility.yul\":641:665   */\n      tag_385\n      jump\t// in\n    tag_459:\n        /* \"#utility.yul\":634:639   */\n      dup2\n        /* \"#utility.yul\":631:666   */\n      eq\n        /* \"#utility.yul\":621:684   */\n      tag_460\n      jumpi\n        /* \"#utility.yul\":680:681   */\n      0x00\n        /* \"#utility.yul\":677:678   */\n      dup1\n        /* \"#utility.yul\":670:682   */\n      revert\n        /* \"#utility.yul\":621:684   */\n    tag_460:\n        /* \"#utility.yul\":568:690   */\n      pop\n      jump\t// out\n        /* \"#utility.yul\":696:835   */\n    tag_387:\n        /* \"#utility.yul\":742:747   */\n      0x00\n        /* \"#utility.yul\":780:786   */\n      dup2\n        /* \"#utility.yul\":767:787   */\n      calldataload\n        /* \"#utility.yul\":758:787   */\n      swap1\n      pop\n        /* \"#utility.yul\":796:829   */\n      tag_462\n        /* \"#utility.yul\":823:828   */\n      dup2\n        /* \"#utility.yul\":796:829   */\n      tag_386\n      jump\t// in\n    tag_462:\n        /* \"#utility.yul\":696:835   */\n      swap3\n      swap2\n      pop\n      pop\n      jump\t// out\n        /* \"#utility.yul\":841:918   */\n    tag_388:\n        /* \"#utility.yul\":878:885   */\n      0x00\n        /* \"#utility.yul\":907:912   */\n      dup2\n        /* \"#utility.yul\":896:912   */\n      swap1\n      pop\n        /* \"#utility.yul\":841:918   */\n      swap2\n      swap1\n      pop\n      jump\t// out\n        /* \"#utility.yul\":924:1046   */\n    tag_389:\n        /* \"#utility.yul\":997:1021   */\n      tag_465\n        /* \"#utility.yul\":1015:1020   */\n      dup2\n        /* \"#utility.yul\":997:1021   */\n      tag_388\n      jump\t// in\n    tag_465:\n        /* \"#utility.yul\":990:995   */\n      dup2\n        /* \"#utility.yul\":987:1022   */\n      eq\n        /* \"#utility.yul\":977:1040   */\n      tag_466\n      jumpi\n        /* \"#utility.yul\":1036:1037   */\n      0x00\n        /* \"#utility.yul\":1033:1034   */\n      dup1\n        /* \"#utility.yul\":1026:1038   */\n      revert\n        /* \"#utility.yul\":977:1040   */\n    tag_466:\n        /* \"#utility.yul\":924:1046   */\n      pop\n      jump\t// out\n        /* \"#utility.yul\":1052:1191   */\n    tag_390:\n        /* \"#utility.yul\":1098:1103   */\n      0x00\n        /* \"#utility.yul\":1136:1142   */\n      dup2\n        /* \"#utility.yul\":1123:1143   */\n      calldataload\n        /* \"#utility.yul\":1114:1143   */\n      swap1\n      pop\n        /* \"#utility.yul\":1152:1185   */\n      tag_468\n        /* \"#utility.yul\":1179:1184   */\n      dup2\n        /* \"#utility.yul\":1152:1185   */\n      tag_389\n      jump\t// in\n    tag_468:\n        /* \"#utility.yul\":1052:1191   */\n      swap3\n      swap2\n      pop\n      pop\n      jump\t// out\n        /* \"#utility.yul\":1197:1314   */\n    tag_391:\n        /* \"#utility.yul\":1306:1307   */\n      0x00\n        /* \"#utility.yul\":1303:1304   */\n      dup1\n        /* \"#utility.yul\":1296:1308   */\n      revert\n        /* \"#utility.yul\":1320:1437   */\n    tag_392:\n        /* \"#utility.yul\":1429:1430   */\n      0x00\n        /* \"#utility.yul\":1426:1427   */\n      dup1\n        /* \"#utility.yul\":1419:1431   */\n      revert\n        /* \"#utility.yul\":1443:1560   */\n    tag_393:\n        /* \"#utility.yul\":1552:1553   */\n      0x00\n        /* \"#utility.yul\":1549:1550   */\n      dup1\n        /* \"#utility.yul\":1542:1554   */\n      revert\n        /* \"#utility.yul\":1579:2131   */\n    tag_394:\n        /* \"#utility.yul\":1636:1644   */\n      0x00\n        /* \"#utility.yul\":1646:1652   */\n      dup1\n        /* \"#utility.yul\":1696:1699   */\n      dup4\n        /* \"#utility.yul\":1689:1693   */\n      0x1f\n        /* \"#utility.yul\":1681:1687   */\n      dup5\n        /* \"#utility.yul\":1677:1694   */\n      add\n        /* \"#utility.yul\":1673:1700   */\n      slt\n        /* \"#utility.yul\":1663:1785   */\n      tag_473\n      jumpi\n        /* \"#utility.yul\":1704:1783   */\n      tag_474\n      tag_391\n      jump\t// in\n    tag_474:\n        /* \"#utility.yul\":1663:1785   */\n    tag_473:\n        /* \"#utility.yul\":1817:1823   */\n      dup3\n        /* \"#utility.yul\":1804:1824   */\n      calldataload\n        /* \"#utility.yul\":1794:1824   */\n      swap1\n      pop\n        /* \"#utility.yul\":1847:1865   */\n      0xffffffffffffffff\n        /* \"#utility.yul\":1839:1845   */\n      dup2\n        /* \"#utility.yul\":1836:1866   */\n      gt\n        /* \"#utility.yul\":1833:1950   */\n      iszero\n      tag_475\n      jumpi\n        /* \"#utility.yul\":1869:1948   */\n      tag_476\n      tag_392\n      jump\t// in\n    tag_476:\n        /* \"#utility.yul\":1833:1950   */\n    tag_475:\n        /* \"#utility.yul\":1983:1987   */\n      0x20\n        /* \"#utility.yul\":1975:1981   */\n      dup4\n        /* \"#utility.yul\":1971:1988   */\n      add\n        /* \"#utility.yul\":1959:1988   */\n      swap2\n      pop\n        /* \"#utility.yul\":2037:2040   */\n      dup4\n        /* \"#utility.yul\":2029:2033   */\n      0x01\n        /* \"#utility.yul\":2021:2027   */\n      dup3\n        /* \"#utility.yul\":2017:2034   */\n      mul\n        /* \"#utility.yul\":2007:2015   */\n      dup4\n        /* \"#utility.yul\":2003:2035   */\n      add\n        /* \"#utility.yul\":2000:2041   */\n      gt\n        /* \"#utility.yul\":1997:2125   */\n      iszero\n      tag_477\n      jumpi\n        /* \"#utility.yul\":2044:2123   */\n      tag_478\n      tag_393\n      jump\t// in\n    tag_478:\n        /* \"#utility.yul\":1997:2125   */\n    tag_477:\n        /* \"#utility.yul\":1579:2131   */\n      swap3\n      pop\n      swap3\n      swap1\n      pop\n      jump\t// out\n        /* \"#utility.yul\":2137:3100   */\n    tag_28:\n        /* \"#utility.yul\":2234:2240   */\n      0x00\n        /* \"#utility.yul\":2242:2248   */\n      dup1\n        /* \"#utility.yul\":2250:2256   */\n      0x00\n        /* \"#utility.yul\":2258:2264   */\n      dup1\n        /* \"#utility.yul\":2266:2272   */\n      0x00\n        /* \"#utility.yul\":2315:2318   */\n      0x80\n        /* \"#utility.yul\":2303:2312   */\n      dup7\n        /* \"#utility.yul\":2294:2301   */\n      dup9\n        /* \"#utility.yul\":2290:2313   */\n      sub\n        /* \"#utility.yul\":2286:2319   */\n      slt\n        /* \"#utility.yul\":2283:2403   */\n      iszero\n      tag_480\n      jumpi\n        /* \"#utility.yul\":2322:2401   */\n      tag_481\n      tag_382\n      jump\t// in\n    tag_481:\n        /* \"#utility.yul\":2283:2403   */\n    tag_480:\n        /* \"#utility.yul\":2442:2443   */\n      0x00\n        /* \"#utility.yul\":2467:2520   */\n      tag_482\n        /* \"#utility.yul\":2512:2519   */\n      dup9\n        /* \"#utility.yul\":2503:2509   */\n      dup3\n        /* \"#utility.yul\":2492:2501   */\n      dup10\n        /* \"#utility.yul\":2488:2510   */\n      add\n        /* \"#utility.yul\":2467:2520   */\n      tag_387\n      jump\t// in\n    tag_482:\n        /* \"#utility.yul\":2457:2520   */\n      swap6\n      pop\n        /* \"#utility.yul\":2413:2530   */\n      pop\n        /* \"#utility.yul\":2569:2571   */\n      0x20\n        /* \"#utility.yul\":2595:2648   */\n      tag_483\n        /* \"#utility.yul\":2640:2647   */\n      dup9\n        /* \"#utility.yul\":2631:2637   */\n      dup3\n        /* \"#utility.yul\":2620:2629   */\n      dup10\n        /* \"#utility.yul\":2616:2638   */\n      add\n        /* \"#utility.yul\":2595:2648   */\n      tag_387\n      jump\t// in\n    tag_483:\n        /* \"#utility.yul\":2585:2648   */\n      swap5\n      pop\n        /* \"#utility.yul\":2540:2658   */\n      pop\n        /* \"#utility.yul\":2697:2699   */\n      0x40\n        /* \"#utility.yul\":2723:2776   */\n      tag_484\n        /* \"#utility.yul\":2768:2775   */\n      dup9\n        /* \"#utility.yul\":2759:2765   */\n      dup3\n        /* \"#utility.yul\":2748:2757   */\n      dup10\n        /* \"#utility.yul\":2744:2766   */\n      add\n        /* \"#utility.yul\":2723:2776   */\n      tag_390\n      jump\t// in\n    tag_484:\n        /* \"#utility.yul\":2713:2776   */\n      swap4\n      pop\n        /* \"#utility.yul\":2668:2786   */\n      pop\n        /* \"#utility.yul\":2853:2855   */\n      0x60\n        /* \"#utility.yul\":2842:2851   */\n      dup7\n        /* \"#utility.yul\":2838:2856   */\n      add\n        /* \"#utility.yul\":2825:2857   */\n      calldataload\n        /* \"#utility.yul\":2884:2902   */\n      0xffffffffffffffff\n        /* \"#utility.yul\":2876:2882   */\n      dup2\n        /* \"#utility.yul\":2873:2903   */\n      gt\n        /* \"#utility.yul\":2870:2987   */\n      iszero\n      tag_485\n      jumpi\n        /* \"#utility.yul\":2906:2985   */\n      tag_486\n      tag_383\n      jump\t// in\n    tag_486:\n        /* \"#utility.yul\":2870:2987   */\n    tag_485:\n        /* \"#utility.yul\":3019:3083   */\n      tag_487\n        /* \"#utility.yul\":3075:3082   */\n      dup9\n        /* \"#utility.yul\":3066:3072   */\n      dup3\n        /* \"#utility.yul\":3055:3064   */\n      dup10\n        /* \"#utility.yul\":3051:3073   */\n      add\n        /* \"#utility.yul\":3019:3083   */\n      tag_394\n      jump\t// in\n    tag_487:\n        /* \"#utility.yul\":3001:3083   */\n      swap3\n      pop\n      swap3\n      pop\n        /* \"#utility.yul\":2796:3093   */\n      pop\n        /* \"#utility.yul\":2137:3100   */\n      swap3\n      swap6\n      pop\n      swap3\n      swap6\n      swap1\n      swap4\n      pop\n      jump\t// out\n        /* \"#utility.yul\":3106:3255   */\n    tag_395:\n        /* \"#utility.yul\":3142:3149   */\n      0x00\n        /* \"#utility.yul\":3182:3248   */\n      0xffffffff00000000000000000000000000000000000000000000000000000000\n        /* \"#utility.yul\":3175:3180   */\n      dup3\n        /* \"#utility.yul\":3171:3249   */\n      and\n        /* \"#utility.yul\":3160:3249   */\n      swap1\n      pop\n        /* \"#utility.yul\":3106:3255   */\n      swap2\n      swap1\n      pop\n      jump\t// out\n        /* \"#utility.yul\":3261:3376   */\n    tag_396:\n        /* \"#utility.yul\":3346:3369   */\n      tag_490\n        /* \"#utility.yul\":3363:3368   */\n      dup2\n        /* \"#utility.yul\":3346:3369   */\n      tag_395\n      jump\t// in\n    tag_490:\n        /* \"#utility.yul\":3341:3344   */\n      dup3\n        /* \"#utility.yul\":3334:3370   */\n      mstore\n        /* \"#utility.yul\":3261:3376   */\n      pop\n      pop\n      jump\t// out\n        /* \"#utility.yul\":3382:3600   */\n    tag_31:\n        /* \"#utility.yul\":3473:3477   */\n      0x00\n        /* \"#utility.yul\":3511:3513   */\n      0x20\n        /* \"#utility.yul\":3500:3509   */\n      dup3\n        /* \"#utility.yul\":3496:3514   */\n      add\n        /* \"#utility.yul\":3488:3514   */\n      swap1\n      pop\n        /* \"#utility.yul\":3524:3593   */\n      tag_492\n        /* \"#utility.yul\":3590:3591   */\n      0x00\n        /* \"#utility.yul\":3579:3588   */\n      dup4\n        /* \"#utility.yul\":3575:3592   */\n      add\n        /* \"#utility.yul\":3566:3572   */\n      dup5\n        /* \"#utility.yul\":3524:3593   */\n      tag_396\n      jump\t// in\n    tag_492:\n        /* \"#utility.yul\":3382:3600   */\n      swap3\n      swap2\n      pop\n      pop\n      jump\t// out\n        /* \"#utility.yul\":3606:4225   */\n    tag_34:\n        /* \"#utility.yul\":3683:3689   */\n      0x00\n        /* \"#utility.yul\":3691:3697   */\n      dup1\n        /* \"#utility.yul\":3699:3705   */\n      0x00\n        /* \"#utility.yul\":3748:3750   */\n      0x60\n        /* \"#utility.yul\":3736:3745   */\n      dup5\n        /* \"#utility.yul\":3727:3734   */\n      dup7\n        /* \"#utility.yul\":3723:3746   */\n      sub\n        /* \"#utility.yul\":3719:3751   */\n      slt\n        /* \"#utility.yul\":3716:3835   */\n      iszero\n      tag_494\n      jumpi\n        /* \"#utility.yul\":3754:3833   */\n      tag_495\n      tag_382\n      jump\t// in\n    tag_495:\n        /* \"#utility.yul\":3716:3835   */\n    tag_494:\n        /* \"#utility.yul\":3874:3875   */\n      0x00\n        /* \"#utility.yul\":3899:3952   */\n      tag_496\n        /* \"#utility.yul\":3944:3951   */\n      dup7\n        /* \"#utility.yul\":3935:3941   */\n      dup3\n        /* \"#utility.yul\":3924:3933   */\n      dup8\n        /* \"#utility.yul\":3920:3942   */\n      add\n        /* \"#utility.yul\":3899:3952   */\n      tag_387\n      jump\t// in\n    tag_496:\n        /* \"#utility.yul\":3889:3952   */\n      swap4\n      pop\n        /* \"#utility.yul\":3845:3962   */\n      pop\n        /* \"#utility.yul\":4001:4003   */\n      0x20\n        /* \"#utility.yul\":4027:4080   */\n      tag_497\n        /* \"#utility.yul\":4072:4079   */\n      dup7\n        /* \"#utility.yul\":4063:4069   */\n      dup3\n        /* \"#utility.yul\":4052:4061   */\n      dup8\n        /* \"#utility.yul\":4048:4070   */\n      add\n        /* \"#utility.yul\":4027:4080   */\n      tag_390\n      jump\t// in\n    tag_497:\n        /* \"#utility.yul\":4017:4080   */\n      swap3\n      pop\n        /* \"#utility.yul\":3972:4090   */\n      pop\n        /* \"#utility.yul\":4129:4131   */\n      0x40\n        /* \"#utility.yul\":4155:4208   */\n      tag_498\n        /* \"#utility.yul\":4200:4207   */\n      dup7\n        /* \"#utility.yul\":4191:4197   */\n      dup3\n        /* \"#utility.yul\":4180:4189   */\n      dup8\n        /* \"#utility.yul\":4176:4198   */\n      add\n        /* \"#utility.yul\":4155:4208   */\n      tag_390\n      jump\t// in\n    tag_498:\n        /* \"#utility.yul\":4145:4208   */\n      swap2\n      pop\n        /* \"#utility.yul\":4100:4218   */\n      pop\n        /* \"#utility.yul\":3606:4225   */\n      swap3\n      pop\n      swap3\n      pop\n      swap3\n      jump\t// out\n        /* \"#utility.yul\":4231:4370   */\n    tag_397:\n        /* \"#utility.yul\":4323:4329   */\n      0x00\n        /* \"#utility.yul\":4357:4362   */\n      dup2\n        /* \"#utility.yul\":4351:4363   */\n      mload\n        /* \"#utility.yul\":4341:4363   */\n      swap1\n      pop\n        /* \"#utility.yul\":4231:4370   */\n      swap2\n      swap1\n      pop\n      jump\t// out\n        /* \"#utility.yul\":4376:4585   */\n    tag_398:\n        /* \"#utility.yul\":4500:4511   */\n      0x00\n        /* \"#utility.yul\":4534:4540   */\n      dup3\n        /* \"#utility.yul\":4529:4532   */\n      dup3\n        /* \"#utility.yul\":4522:4541   */\n      mstore\n        /* \"#utility.yul\":4574:4578   */\n      0x20\n        /* \"#utility.yul\":4569:4572   */\n      dup3\n        /* \"#utility.yul\":4565:4579   */\n      add\n        /* \"#utility.yul\":4550:4579   */\n      swap1\n      pop\n        /* \"#utility.yul\":4376:4585   */\n      swap3\n      swap2\n      pop\n      pop\n      jump\t// out\n        /* \"#utility.yul\":4591:4748   */\n    tag_399:\n        /* \"#utility.yul\":4683:4687   */\n      0x00\n        /* \"#utility.yul\":4706:4709   */\n      dup2\n        /* \"#utility.yul\":4698:4709   */\n      swap1\n      pop\n        /* \"#utility.yul\":4736:4740   */\n      0x20\n        /* \"#utility.yul\":4731:4734   */\n      dup3\n        /* \"#utility.yul\":4727:4741   */\n      add\n        /* \"#utility.yul\":4719:4741   */\n      swap1\n      pop\n        /* \"#utility.yul\":4591:4748   */\n      swap2\n      swap1\n      pop\n      jump\t// out\n        /* \"#utility.yul\":4754:4862   */\n    tag_400:\n        /* \"#utility.yul\":4831:4855   */\n      tag_503\n        /* \"#utility.yul\":4849:4854   */\n      dup2\n        /* \"#utility.yul\":4831:4855   */\n      tag_385\n      jump\t// in\n    tag_503:\n        /* \"#utility.yul\":4826:4829   */\n      dup3\n        /* \"#utility.yul\":4819:4856   */\n      mstore\n        /* \"#utility.yul\":4754:4862   */\n      pop\n      pop\n      jump\t// out\n        /* \"#utility.yul\":4868:4976   */\n    tag_401:\n        /* \"#utility.yul\":4945:4969   */\n      tag_505\n        /* \"#utility.yul\":4963:4968   */\n      dup2\n        /* \"#utility.yul\":4945:4969   */\n      tag_388\n      jump\t// in\n    tag_505:\n        /* \"#utility.yul\":4940:4943   */\n      dup3\n        /* \"#utility.yul\":4933:4970   */\n      mstore\n        /* \"#utility.yul\":4868:4976   */\n      pop\n      pop\n      jump\t// out\n        /* \"#utility.yul\":5054:5570   */\n    tag_402:\n        /* \"#utility.yul\":5191:5195   */\n      0x40\n        /* \"#utility.yul\":5186:5189   */\n      dup3\n        /* \"#utility.yul\":5182:5196   */\n      add\n        /* \"#utility.yul\":5293:5297   */\n      0x00\n        /* \"#utility.yul\":5286:5291   */\n      dup3\n        /* \"#utility.yul\":5282:5298   */\n      add\n        /* \"#utility.yul\":5276:5299   */\n      mload\n        /* \"#utility.yul\":5312:5375   */\n      tag_507\n        /* \"#utility.yul\":5369:5373   */\n      0x00\n        /* \"#utility.yul\":5364:5367   */\n      dup6\n        /* \"#utility.yul\":5360:5374   */\n      add\n        /* \"#utility.yul\":5346:5358   */\n      dup3\n        /* \"#utility.yul\":5312:5375   */\n      tag_400\n      jump\t// in\n    tag_507:\n        /* \"#utility.yul\":5206:5385   */\n      pop\n        /* \"#utility.yul\":5471:5475   */\n      0x20\n        /* \"#utility.yul\":5464:5469   */\n      dup3\n        /* \"#utility.yul\":5460:5476   */\n      add\n        /* \"#utility.yul\":5454:5477   */\n      mload\n        /* \"#utility.yul\":5490:5553   */\n      tag_508\n        /* \"#utility.yul\":5547:5551   */\n      0x20\n        /* \"#utility.yul\":5542:5545   */\n      dup6\n        /* \"#utility.yul\":5538:5552   */\n      add\n        /* \"#utility.yul\":5524:5536   */\n      dup3\n        /* \"#utility.yul\":5490:5553   */\n      tag_401\n      jump\t// in\n    tag_508:\n        /* \"#utility.yul\":5395:5563   */\n      pop\n        /* \"#utility.yul\":5160:5570   */\n      pop\n        /* \"#utility.yul\":5054:5570   */\n      pop\n      pop\n      jump\t// out\n        /* \"#utility.yul\":5576:5855   */\n    tag_403:\n        /* \"#utility.yul\":5695:5705   */\n      0x00\n        /* \"#utility.yul\":5716:5812   */\n      tag_510\n        /* \"#utility.yul\":5808:5811   */\n      dup4\n        /* \"#utility.yul\":5800:5806   */\n      dup4\n        /* \"#utility.yul\":5716:5812   */\n      tag_402\n      jump\t// in\n    tag_510:\n        /* \"#utility.yul\":5844:5848   */\n      0x40\n        /* \"#utility.yul\":5839:5842   */\n      dup4\n        /* \"#utility.yul\":5835:5849   */\n      add\n        /* \"#utility.yul\":5821:5849   */\n      swap1\n      pop\n        /* \"#utility.yul\":5576:5855   */\n      swap3\n      swap2\n      pop\n      pop\n      jump\t// out\n        /* \"#utility.yul\":5861:5999   */\n    tag_404:\n        /* \"#utility.yul\":5956:5960   */\n      0x00\n        /* \"#utility.yul\":5988:5992   */\n      0x20\n        /* \"#utility.yul\":5983:5986   */\n      dup3\n        /* \"#utility.yul\":5979:5993   */\n      add\n        /* \"#utility.yul\":5971:5993   */\n      swap1\n      pop\n        /* \"#utility.yul\":5861:5999   */\n      swap2\n      swap1\n      pop\n      jump\t// out\n        /* \"#utility.yul\":6081:7013   */\n    tag_405:\n        /* \"#utility.yul\":6250:6253   */\n      0x00\n        /* \"#utility.yul\":6279:6358   */\n      tag_513\n        /* \"#utility.yul\":6352:6357   */\n      dup3\n        /* \"#utility.yul\":6279:6358   */\n      tag_397\n      jump\t// in\n    tag_513:\n        /* \"#utility.yul\":6374:6485   */\n      tag_514\n        /* \"#utility.yul\":6478:6484   */\n      dup2\n        /* \"#utility.yul\":6473:6476   */\n      dup6\n        /* \"#utility.yul\":6374:6485   */\n      tag_398\n      jump\t// in\n    tag_514:\n        /* \"#utility.yul\":6367:6485   */\n      swap4\n      pop\n        /* \"#utility.yul\":6509:6590   */\n      tag_515\n        /* \"#utility.yul\":6584:6589   */\n      dup4\n        /* \"#utility.yul\":6509:6590   */\n      tag_399\n      jump\t// in\n    tag_515:\n        /* \"#utility.yul\":6613:6620   */\n      dup1\n        /* \"#utility.yul\":6644:6645   */\n      0x00\n        /* \"#utility.yul\":6629:6988   */\n    tag_516:\n        /* \"#utility.yul\":6654:6660   */\n      dup4\n        /* \"#utility.yul\":6651:6652   */\n      dup2\n        /* \"#utility.yul\":6648:6661   */\n      lt\n        /* \"#utility.yul\":6629:6988   */\n      iszero\n      tag_518\n      jumpi\n        /* \"#utility.yul\":6730:6736   */\n      dup2\n        /* \"#utility.yul\":6724:6737   */\n      mload\n        /* \"#utility.yul\":6757:6870   */\n      tag_519\n        /* \"#utility.yul\":6866:6869   */\n      dup9\n        /* \"#utility.yul\":6851:6864   */\n      dup3\n        /* \"#utility.yul\":6757:6870   */\n      tag_403\n      jump\t// in\n    tag_519:\n        /* \"#utility.yul\":6750:6870   */\n      swap8\n      pop\n        /* \"#utility.yul\":6893:6978   */\n      tag_520\n        /* \"#utility.yul\":6971:6977   */\n      dup4\n        /* \"#utility.yul\":6893:6978   */\n      tag_404\n      jump\t// in\n    tag_520:\n        /* \"#utility.yul\":6883:6978   */\n      swap3\n      pop\n        /* \"#utility.yul\":6689:6988   */\n      pop\n        /* \"#utility.yul\":6676:6677   */\n      0x01\n        /* \"#utility.yul\":6673:6674   */\n      dup2\n        /* \"#utility.yul\":6669:6678   */\n      add\n        /* \"#utility.yul\":6664:6678   */\n      swap1\n      pop\n        /* \"#utility.yul\":6629:6988   */\n      jump(tag_516)\n    tag_518:\n        /* \"#utility.yul\":6633:6647   */\n      pop\n        /* \"#utility.yul\":7004:7007   */\n      dup6\n        /* \"#utility.yul\":6997:7007   */\n      swap4\n      pop\n        /* \"#utility.yul\":6255:7013   */\n      pop\n      pop\n      pop\n        /* \"#utility.yul\":6081:7013   */\n      swap3\n      swap2\n      pop\n      pop\n      jump\t// out\n        /* \"#utility.yul\":7019:7492   */\n    tag_40:\n        /* \"#utility.yul\":7212:7216   */\n      0x00\n        /* \"#utility.yul\":7250:7252   */\n      0x20\n        /* \"#utility.yul\":7239:7248   */\n      dup3\n        /* \"#utility.yul\":7235:7253   */\n      add\n        /* \"#utility.yul\":7227:7253   */\n      swap1\n      pop\n        /* \"#utility.yul\":7299:7308   */\n      dup2\n        /* \"#utility.yul\":7293:7297   */\n      dup2\n        /* \"#utility.yul\":7289:7309   */\n      sub\n        /* \"#utility.yul\":7285:7286   */\n      0x00\n        /* \"#utility.yul\":7274:7283   */\n      dup4\n        /* \"#utility.yul\":7270:7287   */\n      add\n        /* \"#utility.yul\":7263:7310   */\n      mstore\n        /* \"#utility.yul\":7327:7485   */\n      tag_522\n        /* \"#utility.yul\":7480:7484   */\n      dup2\n        /* \"#utility.yul\":7471:7477   */\n      dup5\n        /* \"#utility.yul\":7327:7485   */\n      tag_405\n      jump\t// in\n    tag_522:\n        /* \"#utility.yul\":7319:7485   */\n      swap1\n      pop\n        /* \"#utility.yul\":7019:7492   */\n      swap3\n      swap2\n      pop\n      pop\n      jump\t// out\n        /* \"#utility.yul\":7498:7972   */\n    tag_51:\n        /* \"#utility.yul\":7566:7572   */\n      0x00\n        /* \"#utility.yul\":7574:7580   */\n      dup1\n        /* \"#utility.yul\":7623:7625   */\n      0x40\n        /* \"#utility.yul\":7611:7620   */\n      dup4\n        /* \"#utility.yul\":7602:7609   */\n      dup6\n        /* \"#utility.yul\":7598:7621   */\n      sub\n        /* \"#utility.yul\":7594:7626   */\n      slt\n        /* \"#utility.yul\":7591:7710   */\n      iszero\n      tag_524\n      jumpi\n        /* \"#utility.yul\":7629:7708   */\n      tag_525\n      tag_382\n      jump\t// in\n    tag_525:\n        /* \"#utility.yul\":7591:7710   */\n    tag_524:\n        /* \"#utility.yul\":7749:7750   */\n      0x00\n        /* \"#utility.yul\":7774:7827   */\n      tag_526\n        /* \"#utility.yul\":7819:7826   */\n      dup6\n        /* \"#utility.yul\":7810:7816   */\n      dup3\n        /* \"#utility.yul\":7799:7808   */\n      dup7\n        /* \"#utility.yul\":7795:7817   */\n      add\n        /* \"#utility.yul\":7774:7827   */\n      tag_387\n      jump\t// in\n    tag_526:\n        /* \"#utility.yul\":7764:7827   */\n      swap3\n      pop\n        /* \"#utility.yul\":7720:7837   */\n      pop\n        /* \"#utility.yul\":7876:7878   */\n      0x20\n        /* \"#utility.yul\":7902:7955   */\n      tag_527\n        /* \"#utility.yul\":7947:7954   */\n      dup6\n        /* \"#utility.yul\":7938:7944   */\n      dup3\n        /* \"#utility.yul\":7927:7936   */\n      dup7\n        /* \"#utility.yul\":7923:7945   */\n      add\n        /* \"#utility.yul\":7902:7955   */\n      tag_390\n      jump\t// in\n    tag_527:\n        /* \"#utility.yul\":7892:7955   */\n      swap2\n      pop\n        /* \"#utility.yul\":7847:7965   */\n      pop\n        /* \"#utility.yul\":7498:7972   */\n      swap3\n      pop\n      swap3\n      swap1\n      pop\n      jump\t// out\n        /* \"#utility.yul\":7978:8096   */\n    tag_406:\n        /* \"#utility.yul\":8065:8089   */\n      tag_529\n        /* \"#utility.yul\":8083:8088   */\n      dup2\n        /* \"#utility.yul\":8065:8089   */\n      tag_388\n      jump\t// in\n    tag_529:\n        /* \"#utility.yul\":8060:8063   */\n      dup3\n        /* \"#utility.yul\":8053:8090   */\n      mstore\n        /* \"#utility.yul\":7978:8096   */\n      pop\n      pop\n      jump\t// out\n        /* \"#utility.yul\":8102:8324   */\n    tag_62:\n        /* \"#utility.yul\":8195:8199   */\n      0x00\n        /* \"#utility.yul\":8233:8235   */\n      0x20\n        /* \"#utility.yul\":8222:8231   */\n      dup3\n        /* \"#utility.yul\":8218:8236   */\n      add\n        /* \"#utility.yul\":8210:8236   */\n      swap1\n      pop\n        /* \"#utility.yul\":8246:8317   */\n      tag_531\n        /* \"#utility.yul\":8314:8315   */\n      0x00\n        /* \"#utility.yul\":8303:8312   */\n      dup4\n        /* \"#utility.yul\":8299:8316   */\n      add\n        /* \"#utility.yul\":8290:8296   */\n      dup5\n        /* \"#utility.yul\":8246:8317   */\n      tag_406\n      jump\t// in\n    tag_531:\n        /* \"#utility.yul\":8102:8324   */\n      swap3\n      swap2\n      pop\n      pop\n      jump\t// out\n        /* \"#utility.yul\":8330:9095   */\n    tag_66:\n        /* \"#utility.yul\":8416:8422   */\n      0x00\n        /* \"#utility.yul\":8424:8430   */\n      dup1\n        /* \"#utility.yul\":8432:8438   */\n      0x00\n        /* \"#utility.yul\":8440:8446   */\n      dup1\n        /* \"#utility.yul\":8489:8492   */\n      0x80\n        /* \"#utility.yul\":8477:8486   */\n      dup6\n        /* \"#utility.yul\":8468:8475   */\n      dup8\n        /* \"#utility.yul\":8464:8487   */\n      sub\n        /* \"#utility.yul\":8460:8493   */\n      slt\n        /* \"#utility.yul\":8457:8577   */\n      iszero\n      tag_533\n      jumpi\n        /* \"#utility.yul\":8496:8575   */\n      tag_534\n      tag_382\n      jump\t// in\n    tag_534:\n        /* \"#utility.yul\":8457:8577   */\n    tag_533:\n        /* \"#utility.yul\":8616:8617   */\n      0x00\n        /* \"#utility.yul\":8641:8694   */\n      tag_535\n        /* \"#utility.yul\":8686:8693   */\n      dup8\n        /* \"#utility.yul\":8677:8683   */\n      dup3\n        /* \"#utility.yul\":8666:8675   */\n      dup9\n        /* \"#utility.yul\":8662:8684   */\n      add\n        /* \"#utility.yul\":8641:8694   */\n      tag_387\n      jump\t// in\n    tag_535:\n        /* \"#utility.yul\":8631:8694   */\n      swap5\n      pop\n        /* \"#utility.yul\":8587:8704   */\n      pop\n        /* \"#utility.yul\":8743:8745   */\n      0x20\n        /* \"#utility.yul\":8769:8822   */\n      tag_536\n        /* \"#utility.yul\":8814:8821   */\n      dup8\n        /* \"#utility.yul\":8805:8811   */\n      dup3\n        /* \"#utility.yul\":8794:8803   */\n      dup9\n        /* \"#utility.yul\":8790:8812   */\n      add\n        /* \"#utility.yul\":8769:8822   */\n      tag_387\n      jump\t// in\n    tag_536:\n        /* \"#utility.yul\":8759:8822   */\n      swap4\n      pop\n        /* \"#utility.yul\":8714:8832   */\n      pop\n        /* \"#utility.yul\":8871:8873   */\n      0x40\n        /* \"#utility.yul\":8897:8950   */\n      tag_537\n        /* \"#utility.yul\":8942:8949   */\n      dup8\n        /* \"#utility.yul\":8933:8939   */\n      dup3\n        /* \"#utility.yul\":8922:8931   */\n      dup9\n        /* \"#utility.yul\":8918:8940   */\n      add\n        /* \"#utility.yul\":8897:8950   */\n      tag_390\n      jump\t// in\n    tag_537:\n        /* \"#utility.yul\":8887:8950   */\n      swap3\n      pop\n        /* \"#utility.yul\":8842:8960   */\n      pop\n        /* \"#utility.yul\":8999:9001   */\n      0x60\n        /* \"#utility.yul\":9025:9078   */\n      tag_538\n        /* \"#utility.yul\":9070:9077   */\n      dup8\n        /* \"#utility.yul\":9061:9067   */\n      dup3\n        /* \"#utility.yul\":9050:9059   */\n      dup9\n        /* \"#utility.yul\":9046:9068   */\n      add\n        /* \"#utility.yul\":9025:9078   */\n      tag_390\n      jump\t// in\n    tag_538:\n        /* \"#utility.yul\":9015:9078   */\n      swap2\n      pop\n        /* \"#utility.yul\":8970:9088   */\n      pop\n        /* \"#utility.yul\":8330:9095   */\n      swap3\n      swap6\n      swap2\n      swap5\n      pop\n      swap3\n      pop\n      jump\t// out\n        /* \"#utility.yul\":9171:10591   */\n    tag_407:\n        /* \"#utility.yul\":9316:9320   */\n      0xe0\n        /* \"#utility.yul\":9311:9314   */\n      dup3\n        /* \"#utility.yul\":9307:9321   */\n      add\n        /* \"#utility.yul\":9411:9415   */\n      0x00\n        /* \"#utility.yul\":9404:9409   */\n      dup3\n        /* \"#utility.yul\":9400:9416   */\n      add\n        /* \"#utility.yul\":9394:9417   */\n      mload\n        /* \"#utility.yul\":9430:9493   */\n      tag_540\n        /* \"#utility.yul\":9487:9491   */\n      0x00\n        /* \"#utility.yul\":9482:9485   */\n      dup6\n        /* \"#utility.yul\":9478:9492   */\n      add\n        /* \"#utility.yul\":9464:9476   */\n      dup3\n        /* \"#utility.yul\":9430:9493   */\n      tag_401\n      jump\t// in\n    tag_540:\n        /* \"#utility.yul\":9331:9503   */\n      pop\n        /* \"#utility.yul\":9591:9595   */\n      0x20\n        /* \"#utility.yul\":9584:9589   */\n      dup3\n        /* \"#utility.yul\":9580:9596   */\n      add\n        /* \"#utility.yul\":9574:9597   */\n      mload\n        /* \"#utility.yul\":9610:9673   */\n      tag_541\n        /* \"#utility.yul\":9667:9671   */\n      0x20\n        /* \"#utility.yul\":9662:9665   */\n      dup6\n        /* \"#utility.yul\":9658:9672   */\n      add\n        /* \"#utility.yul\":9644:9656   */\n      dup3\n        /* \"#utility.yul\":9610:9673   */\n      tag_401\n      jump\t// in\n    tag_541:\n        /* \"#utility.yul\":9513:9683   */\n      pop\n        /* \"#utility.yul\":9769:9773   */\n      0x40\n        /* \"#utility.yul\":9762:9767   */\n      dup3\n        /* \"#utility.yul\":9758:9774   */\n      add\n        /* \"#utility.yul\":9752:9775   */\n      mload\n        /* \"#utility.yul\":9788:9851   */\n      tag_542\n        /* \"#utility.yul\":9845:9849   */\n      0x40\n        /* \"#utility.yul\":9840:9843   */\n      dup6\n        /* \"#utility.yul\":9836:9850   */\n      add\n        /* \"#utility.yul\":9822:9834   */\n      dup3\n        /* \"#utility.yul\":9788:9851   */\n      tag_401\n      jump\t// in\n    tag_542:\n        /* \"#utility.yul\":9693:9861   */\n      pop\n        /* \"#utility.yul\":9952:9956   */\n      0x60\n        /* \"#utility.yul\":9945:9950   */\n      dup3\n        /* \"#utility.yul\":9941:9957   */\n      add\n        /* \"#utility.yul\":9935:9958   */\n      mload\n        /* \"#utility.yul\":9971:10034   */\n      tag_543\n        /* \"#utility.yul\":10028:10032   */\n      0x60\n        /* \"#utility.yul\":10023:10026   */\n      dup6\n        /* \"#utility.yul\":10019:10033   */\n      add\n        /* \"#utility.yul\":10005:10017   */\n      dup3\n        /* \"#utility.yul\":9971:10034   */\n      tag_401\n      jump\t// in\n    tag_543:\n        /* \"#utility.yul\":9871:10044   */\n      pop\n        /* \"#utility.yul\":10138:10142   */\n      0x80\n        /* \"#utility.yul\":10131:10136   */\n      dup3\n        /* \"#utility.yul\":10127:10143   */\n      add\n        /* \"#utility.yul\":10121:10144   */\n      mload\n        /* \"#utility.yul\":10157:10220   */\n      tag_544\n        /* \"#utility.yul\":10214:10218   */\n      0x80\n        /* \"#utility.yul\":10209:10212   */\n      dup6\n        /* \"#utility.yul\":10205:10219   */\n      add\n        /* \"#utility.yul\":10191:10203   */\n      dup3\n        /* \"#utility.yul\":10157:10220   */\n      tag_400\n      jump\t// in\n    tag_544:\n        /* \"#utility.yul\":10054:10230   */\n      pop\n        /* \"#utility.yul\":10317:10321   */\n      0xa0\n        /* \"#utility.yul\":10310:10315   */\n      dup3\n        /* \"#utility.yul\":10306:10322   */\n      add\n        /* \"#utility.yul\":10300:10323   */\n      mload\n        /* \"#utility.yul\":10336:10399   */\n      tag_545\n        /* \"#utility.yul\":10393:10397   */\n      0xa0\n        /* \"#utility.yul\":10388:10391   */\n      dup6\n        /* \"#utility.yul\":10384:10398   */\n      add\n        /* \"#utility.yul\":10370:10382   */\n      dup3\n        /* \"#utility.yul\":10336:10399   */\n      tag_400\n      jump\t// in\n    tag_545:\n        /* \"#utility.yul\":10240:10409   */\n      pop\n        /* \"#utility.yul\":10492:10496   */\n      0xc0\n        /* \"#utility.yul\":10485:10490   */\n      dup3\n        /* \"#utility.yul\":10481:10497   */\n      add\n        /* \"#utility.yul\":10475:10498   */\n      mload\n        /* \"#utility.yul\":10511:10574   */\n      tag_546\n        /* \"#utility.yul\":10568:10572   */\n      0xc0\n        /* \"#utility.yul\":10563:10566   */\n      dup6\n        /* \"#utility.yul\":10559:10573   */\n      add\n        /* \"#utility.yul\":10545:10557   */\n      dup3\n        /* \"#utility.yul\":10511:10574   */\n      tag_400\n      jump\t// in\n    tag_546:\n        /* \"#utility.yul\":10419:10584   */\n      pop\n        /* \"#utility.yul\":9285:10591   */\n      pop\n        /* \"#utility.yul\":9171:10591   */\n      pop\n      pop\n      jump\t// out\n        /* \"#utility.yul\":10597:10916   */\n    tag_73:\n        /* \"#utility.yul\":10738:10742   */\n      0x00\n        /* \"#utility.yul\":10776:10779   */\n      0xe0\n        /* \"#utility.yul\":10765:10774   */\n      dup3\n        /* \"#utility.yul\":10761:10780   */\n      add\n        /* \"#utility.yul\":10753:10780   */\n      swap1\n      pop\n        /* \"#utility.yul\":10790:10909   */\n      tag_548\n        /* \"#utility.yul\":10906:10907   */\n      0x00\n        /* \"#utility.yul\":10895:10904   */\n      dup4\n        /* \"#utility.yul\":10891:10908   */\n      add\n        /* \"#utility.yul\":10882:10888   */\n      dup5\n        /* \"#utility.yul\":10790:10909   */\n      tag_407\n      jump\t// in\n    tag_548:\n        /* \"#utility.yul\":10597:10916   */\n      swap3\n      swap2\n      pop\n      pop\n      jump\t// out\n        /* \"#utility.yul\":10922:11541   */\n    tag_77:\n        /* \"#utility.yul\":10999:11005   */\n      0x00\n        /* \"#utility.yul\":11007:11013   */\n      dup1\n        /* \"#utility.yul\":11015:11021   */\n      0x00\n        /* \"#utility.yul\":11064:11066   */\n      0x60\n        /* \"#utility.yul\":11052:11061   */\n      dup5\n        /* \"#utility.yul\":11043:11050   */\n      dup7\n        /* \"#utility.yul\":11039:11062   */\n      sub\n        /* \"#utility.yul\":11035:11067   */\n      slt\n        /* \"#utility.yul\":11032:11151   */\n      iszero\n      tag_550\n      jumpi\n        /* \"#utility.yul\":11070:11149   */\n      tag_551\n      tag_382\n      jump\t// in\n    tag_551:\n        /* \"#utility.yul\":11032:11151   */\n    tag_550:\n        /* \"#utility.yul\":11190:11191   */\n      0x00\n        /* \"#utility.yul\":11215:11268   */\n      tag_552\n        /* \"#utility.yul\":11260:11267   */\n      dup7\n        /* \"#utility.yul\":11251:11257   */\n      dup3\n        /* \"#utility.yul\":11240:11249   */\n      dup8\n        /* \"#utility.yul\":11236:11258   */\n      add\n        /* \"#utility.yul\":11215:11268   */\n      tag_387\n      jump\t// in\n    tag_552:\n        /* \"#utility.yul\":11205:11268   */\n      swap4\n      pop\n        /* \"#utility.yul\":11161:11278   */\n      pop\n        /* \"#utility.yul\":11317:11319   */\n      0x20\n        /* \"#utility.yul\":11343:11396   */\n      tag_553\n        /* \"#utility.yul\":11388:11395   */\n      dup7\n        /* \"#utility.yul\":11379:11385   */\n      dup3\n        /* \"#utility.yul\":11368:11377   */\n      dup8\n        /* \"#utility.yul\":11364:11386   */\n      add\n        /* \"#utility.yul\":11343:11396   */\n      tag_390\n      jump\t// in\n    tag_553:\n        /* \"#utility.yul\":11333:11396   */\n      swap3\n      pop\n        /* \"#utility.yul\":11288:11406   */\n      pop\n        /* \"#utility.yul\":11445:11447   */\n      0x40\n        /* \"#utility.yul\":11471:11524   */\n      tag_554\n        /* \"#utility.yul\":11516:11523   */\n      dup7\n        /* \"#utility.yul\":11507:11513   */\n      dup3\n        /* \"#utility.yul\":11496:11505   */\n      dup8\n        /* \"#utility.yul\":11492:11514   */\n      add\n        /* \"#utility.yul\":11471:11524   */\n      tag_387\n      jump\t// in\n    tag_554:\n        /* \"#utility.yul\":11461:11524   */\n      swap2\n      pop\n        /* \"#utility.yul\":11416:11534   */\n      pop\n        /* \"#utility.yul\":10922:11541   */\n      swap3\n      pop\n      swap3\n      pop\n      swap3\n      jump\t// out\n        /* \"#utility.yul\":11621:12493   */\n    tag_408:\n        /* \"#utility.yul\":11770:11774   */\n      0x80\n        /* \"#utility.yul\":11765:11768   */\n      dup3\n        /* \"#utility.yul\":11761:11775   */\n      add\n        /* \"#utility.yul\":11862:11866   */\n      0x00\n        /* \"#utility.yul\":11855:11860   */\n      dup3\n        /* \"#utility.yul\":11851:11867   */\n      add\n        /* \"#utility.yul\":11845:11868   */\n      mload\n        /* \"#utility.yul\":11881:11944   */\n      tag_556\n        /* \"#utility.yul\":11938:11942   */\n      0x00\n        /* \"#utility.yul\":11933:11936   */\n      dup6\n        /* \"#utility.yul\":11929:11943   */\n      add\n        /* \"#utility.yul\":11915:11927   */\n      dup3\n        /* \"#utility.yul\":11881:11944   */\n      tag_400\n      jump\t// in\n    tag_556:\n        /* \"#utility.yul\":11785:11954   */\n      pop\n        /* \"#utility.yul\":12040:12044   */\n      0x20\n        /* \"#utility.yul\":12033:12038   */\n      dup3\n        /* \"#utility.yul\":12029:12045   */\n      add\n        /* \"#utility.yul\":12023:12046   */\n      mload\n        /* \"#utility.yul\":12059:12122   */\n      tag_557\n        /* \"#utility.yul\":12116:12120   */\n      0x20\n        /* \"#utility.yul\":12111:12114   */\n      dup6\n        /* \"#utility.yul\":12107:12121   */\n      add\n        /* \"#utility.yul\":12093:12105   */\n      dup3\n        /* \"#utility.yul\":12059:12122   */\n      tag_400\n      jump\t// in\n    tag_557:\n        /* \"#utility.yul\":11964:12132   */\n      pop\n        /* \"#utility.yul\":12215:12219   */\n      0x40\n        /* \"#utility.yul\":12208:12213   */\n      dup3\n        /* \"#utility.yul\":12204:12220   */\n      add\n        /* \"#utility.yul\":12198:12221   */\n      mload\n        /* \"#utility.yul\":12234:12297   */\n      tag_558\n        /* \"#utility.yul\":12291:12295   */\n      0x40\n        /* \"#utility.yul\":12286:12289   */\n      dup6\n        /* \"#utility.yul\":12282:12296   */\n      add\n        /* \"#utility.yul\":12268:12280   */\n      dup3\n        /* \"#utility.yul\":12234:12297   */\n      tag_400\n      jump\t// in\n    tag_558:\n        /* \"#utility.yul\":12142:12307   */\n      pop\n        /* \"#utility.yul\":12394:12398   */\n      0x60\n        /* \"#utility.yul\":12387:12392   */\n      dup3\n        /* \"#utility.yul\":12383:12399   */\n      add\n        /* \"#utility.yul\":12377:12400   */\n      mload\n        /* \"#utility.yul\":12413:12476   */\n      tag_559\n        /* \"#utility.yul\":12470:12474   */\n      0x60\n        /* \"#utility.yul\":12465:12468   */\n      dup6\n        /* \"#utility.yul\":12461:12475   */\n      add\n        /* \"#utility.yul\":12447:12459   */\n      dup3\n        /* \"#utility.yul\":12413:12476   */\n      tag_401\n      jump\t// in\n    tag_559:\n        /* \"#utility.yul\":12317:12486   */\n      pop\n        /* \"#utility.yul\":11739:12493   */\n      pop\n        /* \"#utility.yul\":11621:12493   */\n      pop\n      pop\n      jump\t// out\n        /* \"#utility.yul\":12499:12826   */\n    tag_89:\n        /* \"#utility.yul\":12644:12648   */\n      0x00\n        /* \"#utility.yul\":12682:12685   */\n      0x80\n        /* \"#utility.yul\":12671:12680   */\n      dup3\n        /* \"#utility.yul\":12667:12686   */\n      add\n        /* \"#utility.yul\":12659:12686   */\n      swap1\n      pop\n        /* \"#utility.yul\":12696:12819   */\n      tag_561\n        /* \"#utility.yul\":12816:12817   */\n      0x00\n        /* \"#utility.yul\":12805:12814   */\n      dup4\n        /* \"#utility.yul\":12801:12818   */\n      add\n        /* \"#utility.yul\":12792:12798   */\n      dup5\n        /* \"#utility.yul\":12696:12819   */\n      tag_408\n      jump\t// in\n    tag_561:\n        /* \"#utility.yul\":12499:12826   */\n      swap3\n      swap2\n      pop\n      pop\n      jump\t// out\n        /* \"#utility.yul\":12832:13889   */\n    tag_100:\n        /* \"#utility.yul\":12936:12942   */\n      0x00\n        /* \"#utility.yul\":12944:12950   */\n      dup1\n        /* \"#utility.yul\":12952:12958   */\n      0x00\n        /* \"#utility.yul\":12960:12966   */\n      dup1\n        /* \"#utility.yul\":12968:12974   */\n      0x00\n        /* \"#utility.yul\":12976:12982   */\n      dup1\n        /* \"#utility.yul\":13025:13028   */\n      0xc0\n        /* \"#utility.yul\":13013:13022   */\n      dup8\n        /* \"#utility.yul\":13004:13011   */\n      dup10\n        /* \"#utility.yul\":13000:13023   */\n      sub\n        /* \"#utility.yul\":12996:13029   */\n      slt\n        /* \"#utility.yul\":12993:13113   */\n      iszero\n      tag_563\n      jumpi\n        /* \"#utility.yul\":13032:13111   */\n      tag_564\n      tag_382\n      jump\t// in\n    tag_564:\n        /* \"#utility.yul\":12993:13113   */\n    tag_563:\n        /* \"#utility.yul\":13152:13153   */\n      0x00\n        /* \"#utility.yul\":13177:13230   */\n      tag_565\n        /* \"#utility.yul\":13222:13229   */\n      dup10\n        /* \"#utility.yul\":13213:13219   */\n      dup3\n        /* \"#utility.yul\":13202:13211   */\n      dup11\n        /* \"#utility.yul\":13198:13220   */\n      add\n        /* \"#utility.yul\":13177:13230   */\n      tag_387\n      jump\t// in\n    tag_565:\n        /* \"#utility.yul\":13167:13230   */\n      swap7\n      pop\n        /* \"#utility.yul\":13123:13240   */\n      pop\n        /* \"#utility.yul\":13279:13281   */\n      0x20\n        /* \"#utility.yul\":13305:13358   */\n      tag_566\n        /* \"#utility.yul\":13350:13357   */\n      dup10\n        /* \"#utility.yul\":13341:13347   */\n      dup3\n        /* \"#utility.yul\":13330:13339   */\n      dup11\n        /* \"#utility.yul\":13326:13348   */\n      add\n        /* \"#utility.yul\":13305:13358   */\n      tag_387\n      jump\t// in\n    tag_566:\n        /* \"#utility.yul\":13295:13358   */\n      swap6\n      pop\n        /* \"#utility.yul\":13250:13368   */\n      pop\n        /* \"#utility.yul\":13407:13409   */\n      0x40\n        /* \"#utility.yul\":13433:13486   */\n      tag_567\n        /* \"#utility.yul\":13478:13485   */\n      dup10\n        /* \"#utility.yul\":13469:13475   */\n      dup3\n        /* \"#utility.yul\":13458:13467   */\n      dup11\n        /* \"#utility.yul\":13454:13476   */\n      add\n        /* \"#utility.yul\":13433:13486   */\n      tag_390\n      jump\t// in\n    tag_567:\n        /* \"#utility.yul\":13423:13486   */\n      swap5\n      pop\n        /* \"#utility.yul\":13378:13496   */\n      pop\n        /* \"#utility.yul\":13535:13537   */\n      0x60\n        /* \"#utility.yul\":13561:13614   */\n      tag_568\n        /* \"#utility.yul\":13606:13613   */\n      dup10\n        /* \"#utility.yul\":13597:13603   */\n      dup3\n        /* \"#utility.yul\":13586:13595   */\n      dup11\n        /* \"#utility.yul\":13582:13604   */\n      add\n        /* \"#utility.yul\":13561:13614   */\n      tag_390\n      jump\t// in\n    tag_568:\n        /* \"#utility.yul\":13551:13614   */\n      swap4\n      pop\n        /* \"#utility.yul\":13506:13624   */\n      pop\n        /* \"#utility.yul\":13663:13666   */\n      0x80\n        /* \"#utility.yul\":13690:13743   */\n      tag_569\n        /* \"#utility.yul\":13735:13742   */\n      dup10\n        /* \"#utility.yul\":13726:13732   */\n      dup3\n        /* \"#utility.yul\":13715:13724   */\n      dup11\n        /* \"#utility.yul\":13711:13733   */\n      add\n        /* \"#utility.yul\":13690:13743   */\n      tag_390\n      jump\t// in\n    tag_569:\n        /* \"#utility.yul\":13680:13743   */\n      swap3\n      pop\n        /* \"#utility.yul\":13634:13753   */\n      pop\n        /* \"#utility.yul\":13792:13795   */\n      0xa0\n        /* \"#utility.yul\":13819:13872   */\n      tag_570\n        /* \"#utility.yul\":13864:13871   */\n      dup10\n        /* \"#utility.yul\":13855:13861   */\n      dup3\n        /* \"#utility.yul\":13844:13853   */\n      dup11\n        /* \"#utility.yul\":13840:13862   */\n      add\n        /* \"#utility.yul\":13819:13872   */\n      tag_390\n      jump\t// in\n    tag_570:\n        /* \"#utility.yul\":13809:13872   */\n      swap2\n      pop\n        /* \"#utility.yul\":13763:13882   */\n      pop\n        /* \"#utility.yul\":12832:13889   */\n      swap3\n      swap6\n      pop\n      swap3\n      swap6\n      pop\n      swap3\n      swap6\n      jump\t// out\n        /* \"#utility.yul\":13895:14064   */\n    tag_409:\n        /* \"#utility.yul\":13979:13990   */\n      0x00\n        /* \"#utility.yul\":14013:14019   */\n      dup3\n        /* \"#utility.yul\":14008:14011   */\n      dup3\n        /* \"#utility.yul\":14001:14020   */\n      mstore\n        /* \"#utility.yul\":14053:14057   */\n      0x20\n        /* \"#utility.yul\":14048:14051   */\n      dup3\n        /* \"#utility.yul\":14044:14058   */\n      add\n        /* \"#utility.yul\":14029:14058   */\n      swap1\n      pop\n        /* \"#utility.yul\":13895:14064   */\n      swap3\n      swap2\n      pop\n      pop\n      jump\t// out\n        /* \"#utility.yul\":14070:14243   */\n    tag_410:\n        /* \"#utility.yul\":14210:14235   */\n      0x4e6674206e6f7420696e2061756374696f6e2073616c65000000000000000000\n        /* \"#utility.yul\":14206:14207   */\n      0x00\n        /* \"#utility.yul\":14198:14204   */\n      dup3\n        /* \"#utility.yul\":14194:14208   */\n      add\n        /* \"#utility.yul\":14187:14236   */\n      mstore\n        /* \"#utility.yul\":14070:14243   */\n      pop\n      jump\t// out\n        /* \"#utility.yul\":14249:14615   */\n    tag_411:\n        /* \"#utility.yul\":14391:14394   */\n      0x00\n        /* \"#utility.yul\":14412:14479   */\n      tag_574\n        /* \"#utility.yul\":14476:14478   */\n      0x17\n        /* \"#utility.yul\":14471:14474   */\n      dup4\n        /* \"#utility.yul\":14412:14479   */\n      tag_409\n      jump\t// in\n    tag_574:\n        /* \"#utility.yul\":14405:14479   */\n      swap2\n      pop\n        /* \"#utility.yul\":14488:14581   */\n      tag_575\n        /* \"#utility.yul\":14577:14580   */\n      dup3\n        /* \"#utility.yul\":14488:14581   */\n      tag_410\n      jump\t// in\n    tag_575:\n        /* \"#utility.yul\":14606:14608   */\n      0x20\n        /* \"#utility.yul\":14601:14604   */\n      dup3\n        /* \"#utility.yul\":14597:14609   */\n      add\n        /* \"#utility.yul\":14590:14609   */\n      swap1\n      pop\n        /* \"#utility.yul\":14249:14615   */\n      swap2\n      swap1\n      pop\n      jump\t// out\n        /* \"#utility.yul\":14621:15040   */\n    tag_110:\n        /* \"#utility.yul\":14787:14791   */\n      0x00\n        /* \"#utility.yul\":14825:14827   */\n      0x20\n        /* \"#utility.yul\":14814:14823   */\n      dup3\n        /* \"#utility.yul\":14810:14828   */\n      add\n        /* \"#utility.yul\":14802:14828   */\n      swap1\n      pop\n        /* \"#utility.yul\":14874:14883   */\n      dup2\n        /* \"#utility.yul\":14868:14872   */\n      dup2\n        /* \"#utility.yul\":14864:14884   */\n      sub\n        /* \"#utility.yul\":14860:14861   */\n      0x00\n        /* \"#utility.yul\":14849:14858   */\n      dup4\n        /* \"#utility.yul\":14845:14862   */\n      add\n        /* \"#utility.yul\":14838:14885   */\n      mstore\n        /* \"#utility.yul\":14902:15033   */\n      tag_577\n        /* \"#utility.yul\":15028:15032   */\n      dup2\n        /* \"#utility.yul\":14902:15033   */\n      tag_411\n      jump\t// in\n    tag_577:\n        /* \"#utility.yul\":14894:15033   */\n      swap1\n      pop\n        /* \"#utility.yul\":14621:15040   */\n      swap2\n      swap1\n      pop\n      jump\t// out\n        /* \"#utility.yul\":15046:15207   */\n    tag_412:\n        /* \"#utility.yul\":15186:15199   */\n      0x41756374696f6e20656e64000000000000000000000000000000000000000000\n        /* \"#utility.yul\":15182:15183   */\n      0x00\n        /* \"#utility.yul\":15174:15180   */\n      dup3\n        /* \"#utility.yul\":15170:15184   */\n      add\n        /* \"#utility.yul\":15163:15200   */\n      mstore\n        /* \"#utility.yul\":15046:15207   */\n      pop\n      jump\t// out\n        /* \"#utility.yul\":15213:15579   */\n    tag_413:\n        /* \"#utility.yul\":15355:15358   */\n      0x00\n        /* \"#utility.yul\":15376:15443   */\n      tag_580\n        /* \"#utility.yul\":15440:15442   */\n      0x0b\n        /* \"#utility.yul\":15435:15438   */\n      dup4\n        /* \"#utility.yul\":15376:15443   */\n      tag_409\n      jump\t// in\n    tag_580:\n        /* \"#utility.yul\":15369:15443   */\n      swap2\n      pop\n        /* \"#utility.yul\":15452:15545   */\n      tag_581\n        /* \"#utility.yul\":15541:15544   */\n      dup3\n        /* \"#utility.yul\":15452:15545   */\n      tag_412\n      jump\t// in\n    tag_581:\n        /* \"#utility.yul\":15570:15572   */\n      0x20\n        /* \"#utility.yul\":15565:15568   */\n      dup3\n        /* \"#utility.yul\":15561:15573   */\n      add\n        /* \"#utility.yul\":15554:15573   */\n      swap1\n      pop\n        /* \"#utility.yul\":15213:15579   */\n      swap2\n      swap1\n      pop\n      jump\t// out\n        /* \"#utility.yul\":15585:16004   */\n    tag_114:\n        /* \"#utility.yul\":15751:15755   */\n      0x00\n        /* \"#utility.yul\":15789:15791   */\n      0x20\n        /* \"#utility.yul\":15778:15787   */\n      dup3\n        /* \"#utility.yul\":15774:15792   */\n      add\n        /* \"#utility.yul\":15766:15792   */\n      swap1\n      pop\n        /* \"#utility.yul\":15838:15847   */\n      dup2\n        /* \"#utility.yul\":15832:15836   */\n      dup2\n        /* \"#utility.yul\":15828:15848   */\n      sub\n        /* \"#utility.yul\":15824:15825   */\n      0x00\n        /* \"#utility.yul\":15813:15822   */\n      dup4\n        /* \"#utility.yul\":15809:15826   */\n      add\n        /* \"#utility.yul\":15802:15849   */\n      mstore\n        /* \"#utility.yul\":15866:15997   */\n      tag_583\n        /* \"#utility.yul\":15992:15996   */\n      dup2\n        /* \"#utility.yul\":15866:15997   */\n      tag_413\n      jump\t// in\n    tag_583:\n        /* \"#utility.yul\":15858:15997   */\n      swap1\n      pop\n        /* \"#utility.yul\":15585:16004   */\n      swap2\n      swap1\n      pop\n      jump\t// out\n        /* \"#utility.yul\":16010:16177   */\n    tag_414:\n        /* \"#utility.yul\":16150:16169   */\n      0x50726963652063616e6e6f742062652030000000000000000000000000000000\n        /* \"#utility.yul\":16146:16147   */\n      0x00\n        /* \"#utility.yul\":16138:16144   */\n      dup3\n        /* \"#utility.yul\":16134:16148   */\n      add\n        /* \"#utility.yul\":16127:16170   */\n      mstore\n        /* \"#utility.yul\":16010:16177   */\n      pop\n      jump\t// out\n        /* \"#utility.yul\":16183:16549   */\n    tag_415:\n        /* \"#utility.yul\":16325:16328   */\n      0x00\n        /* \"#utility.yul\":16346:16413   */\n      tag_586\n        /* \"#utility.yul\":16410:16412   */\n      0x11\n        /* \"#utility.yul\":16405:16408   */\n      dup4\n        /* \"#utility.yul\":16346:16413   */\n      tag_409\n      jump\t// in\n    tag_586:\n        /* \"#utility.yul\":16339:16413   */\n      swap2\n      pop\n        /* \"#utility.yul\":16422:16515   */\n      tag_587\n        /* \"#utility.yul\":16511:16514   */\n      dup3\n        /* \"#utility.yul\":16422:16515   */\n      tag_414\n      jump\t// in\n    tag_587:\n        /* \"#utility.yul\":16540:16542   */\n      0x20\n        /* \"#utility.yul\":16535:16538   */\n      dup3\n        /* \"#utility.yul\":16531:16543   */\n      add\n        /* \"#utility.yul\":16524:16543   */\n      swap1\n      pop\n        /* \"#utility.yul\":16183:16549   */\n      swap2\n      swap1\n      pop\n      jump\t// out\n        /* \"#utility.yul\":16555:16974   */\n    tag_118:\n        /* \"#utility.yul\":16721:16725   */\n      0x00\n        /* \"#utility.yul\":16759:16761   */\n      0x20\n        /* \"#utility.yul\":16748:16757   */\n      dup3\n        /* \"#utility.yul\":16744:16762   */\n      add\n        /* \"#utility.yul\":16736:16762   */\n      swap1\n      pop\n        /* \"#utility.yul\":16808:16817   */\n      dup2\n        /* \"#utility.yul\":16802:16806   */\n      dup2\n        /* \"#utility.yul\":16798:16818   */\n      sub\n        /* \"#utility.yul\":16794:16795   */\n      0x00\n        /* \"#utility.yul\":16783:16792   */\n      dup4\n        /* \"#utility.yul\":16779:16796   */\n      add\n        /* \"#utility.yul\":16772:16819   */\n      mstore\n        /* \"#utility.yul\":16836:16967   */\n      tag_589\n        /* \"#utility.yul\":16962:16966   */\n      dup2\n        /* \"#utility.yul\":16836:16967   */\n      tag_415\n      jump\t// in\n    tag_589:\n        /* \"#utility.yul\":16828:16967   */\n      swap1\n      pop\n        /* \"#utility.yul\":16555:16974   */\n      swap2\n      swap1\n      pop\n      jump\t// out\n        /* \"#utility.yul\":16980:17159   */\n    tag_416:\n        /* \"#utility.yul\":17120:17151   */\n      0x4269642047726561746572207468616e2050726576696f757320426964000000\n        /* \"#utility.yul\":17116:17117   */\n      0x00\n        /* \"#utility.yul\":17108:17114   */\n      dup3\n        /* \"#utility.yul\":17104:17118   */\n      add\n        /* \"#utility.yul\":17097:17152   */\n      mstore\n        /* \"#utility.yul\":16980:17159   */\n      pop\n      jump\t// out\n        /* \"#utility.yul\":17165:17531   */\n    tag_417:\n        /* \"#utility.yul\":17307:17310   */\n      0x00\n        /* \"#utility.yul\":17328:17395   */\n      tag_592\n        /* \"#utility.yul\":17392:17394   */\n      0x1d\n        /* \"#utility.yul\":17387:17390   */\n      dup4\n        /* \"#utility.yul\":17328:17395   */\n      tag_409\n      jump\t// in\n    tag_592:\n        /* \"#utility.yul\":17321:17395   */\n      swap2\n      pop\n        /* \"#utility.yul\":17404:17497   */\n      tag_593\n        /* \"#utility.yul\":17493:17496   */\n      dup3\n        /* \"#utility.yul\":17404:17497   */\n      tag_416\n      jump\t// in\n    tag_593:\n        /* \"#utility.yul\":17522:17524   */\n      0x20\n        /* \"#utility.yul\":17517:17520   */\n      dup3\n        /* \"#utility.yul\":17513:17525   */\n      add\n        /* \"#utility.yul\":17506:17525   */\n      swap1\n      pop\n        /* \"#utility.yul\":17165:17531   */\n      swap2\n      swap1\n      pop\n      jump\t// out\n        /* \"#utility.yul\":17537:17956   */\n    tag_123:\n        /* \"#utility.yul\":17703:17707   */\n      0x00\n        /* \"#utility.yul\":17741:17743   */\n      0x20\n        /* \"#utility.yul\":17730:17739   */\n      dup3\n        /* \"#utility.yul\":17726:17744   */\n      add\n        /* \"#utility.yul\":17718:17744   */\n      swap1\n      pop\n        /* \"#utility.yul\":17790:17799   */\n      dup2\n        /* \"#utility.yul\":17784:17788   */\n      dup2\n        /* \"#utility.yul\":17780:17800   */\n      sub\n        /* \"#utility.yul\":17776:17777   */\n      0x00\n        /* \"#utility.yul\":17765:17774   */\n      dup4\n        /* \"#utility.yul\":17761:17778   */\n      add\n        /* \"#utility.yul\":17754:17801   */\n      mstore\n        /* \"#utility.yul\":17818:17949   */\n      tag_595\n        /* \"#utility.yul\":17944:17948   */\n      dup2\n        /* \"#utility.yul\":17818:17949   */\n      tag_417\n      jump\t// in\n    tag_595:\n        /* \"#utility.yul\":17810:17949   */\n      swap1\n      pop\n        /* \"#utility.yul\":17537:17956   */\n      swap2\n      swap1\n      pop\n      jump\t// out\n        /* \"#utility.yul\":17962:18080   */\n    tag_418:\n        /* \"#utility.yul\":18049:18073   */\n      tag_597\n        /* \"#utility.yul\":18067:18072   */\n      dup2\n        /* \"#utility.yul\":18049:18073   */\n      tag_385\n      jump\t// in\n    tag_597:\n        /* \"#utility.yul\":18044:18047   */\n      dup3\n        /* \"#utility.yul\":18037:18074   */\n      mstore\n        /* \"#utility.yul\":17962:18080   */\n      pop\n      pop\n      jump\t// out\n        /* \"#utility.yul\":18086:18639   */\n    tag_132:\n        /* \"#utility.yul\":18263:18267   */\n      0x00\n        /* \"#utility.yul\":18301:18304   */\n      0x80\n        /* \"#utility.yul\":18290:18299   */\n      dup3\n        /* \"#utility.yul\":18286:18305   */\n      add\n        /* \"#utility.yul\":18278:18305   */\n      swap1\n      pop\n        /* \"#utility.yul\":18315:18386   */\n      tag_599\n        /* \"#utility.yul\":18383:18384   */\n      0x00\n        /* \"#utility.yul\":18372:18381   */\n      dup4\n        /* \"#utility.yul\":18368:18385   */\n      add\n        /* \"#utility.yul\":18359:18365   */\n      dup8\n        /* \"#utility.yul\":18315:18386   */\n      tag_418\n      jump\t// in\n    tag_599:\n        /* \"#utility.yul\":18396:18468   */\n      tag_600\n        /* \"#utility.yul\":18464:18466   */\n      0x20\n        /* \"#utility.yul\":18453:18462   */\n      dup4\n        /* \"#utility.yul\":18449:18467   */\n      add\n        /* \"#utility.yul\":18440:18446   */\n      dup7\n        /* \"#utility.yul\":18396:18468   */\n      tag_406\n      jump\t// in\n    tag_600:\n        /* \"#utility.yul\":18478:18550   */\n      tag_601\n        /* \"#utility.yul\":18546:18548   */\n      0x40\n        /* \"#utility.yul\":18535:18544   */\n      dup4\n        /* \"#utility.yul\":18531:18549   */\n      add\n        /* \"#utility.yul\":18522:18528   */\n      dup6\n        /* \"#utility.yul\":18478:18550   */\n      tag_406\n      jump\t// in\n    tag_601:\n        /* \"#utility.yul\":18560:18632   */\n      tag_602\n        /* \"#utility.yul\":18628:18630   */\n      0x60\n        /* \"#utility.yul\":18617:18626   */\n      dup4\n        /* \"#utility.yul\":18613:18631   */\n      add\n        /* \"#utility.yul\":18604:18610   */\n      dup5\n        /* \"#utility.yul\":18560:18632   */\n      tag_418\n      jump\t// in\n    tag_602:\n        /* \"#utility.yul\":18086:18639   */\n      swap6\n      swap5\n      pop\n      pop\n      pop\n      pop\n      pop\n      jump\t// out\n        /* \"#utility.yul\":18645:18816   */\n    tag_419:\n        /* \"#utility.yul\":18785:18808   */\n      0x4e6674206e6f7420696e2066697865642073616c650000000000000000000000\n        /* \"#utility.yul\":18781:18782   */\n      0x00\n        /* \"#utility.yul\":18773:18779   */\n      dup3\n        /* \"#utility.yul\":18769:18783   */\n      add\n        /* \"#utility.yul\":18762:18809   */\n      mstore\n        /* \"#utility.yul\":18645:18816   */\n      pop\n      jump\t// out\n        /* \"#utility.yul\":18822:19188   */\n    tag_420:\n        /* \"#utility.yul\":18964:18967   */\n      0x00\n        /* \"#utility.yul\":18985:19052   */\n      tag_605\n        /* \"#utility.yul\":19049:19051   */\n      0x15\n        /* \"#utility.yul\":19044:19047   */\n      dup4\n        /* \"#utility.yul\":18985:19052   */\n      tag_409\n      jump\t// in\n    tag_605:\n        /* \"#utility.yul\":18978:19052   */\n      swap2\n      pop\n        /* \"#utility.yul\":19061:19154   */\n      tag_606\n        /* \"#utility.yul\":19150:19153   */\n      dup3\n        /* \"#utility.yul\":19061:19154   */\n      tag_419\n      jump\t// in\n    tag_606:\n        /* \"#utility.yul\":19179:19181   */\n      0x20\n        /* \"#utility.yul\":19174:19177   */\n      dup3\n        /* \"#utility.yul\":19170:19182   */\n      add\n        /* \"#utility.yul\":19163:19182   */\n      swap1\n      pop\n        /* \"#utility.yul\":18822:19188   */\n      swap2\n      swap1\n      pop\n      jump\t// out\n        /* \"#utility.yul\":19194:19613   */\n    tag_162:\n        /* \"#utility.yul\":19360:19364   */\n      0x00\n        /* \"#utility.yul\":19398:19400   */\n      0x20\n        /* \"#utility.yul\":19387:19396   */\n      dup3\n        /* \"#utility.yul\":19383:19401   */\n      add\n        /* \"#utility.yul\":19375:19401   */\n      swap1\n      pop\n        /* \"#utility.yul\":19447:19456   */\n      dup2\n        /* \"#utility.yul\":19441:19445   */\n      dup2\n        /* \"#utility.yul\":19437:19457   */\n      sub\n        /* \"#utility.yul\":19433:19434   */\n      0x00\n        /* \"#utility.yul\":19422:19431   */\n      dup4\n        /* \"#utility.yul\":19418:19435   */\n      add\n        /* \"#utility.yul\":19411:19458   */\n      mstore\n        /* \"#utility.yul\":19475:19606   */\n      tag_608\n        /* \"#utility.yul\":19601:19605   */\n      dup2\n        /* \"#utility.yul\":19475:19606   */\n      tag_420\n      jump\t// in\n    tag_608:\n        /* \"#utility.yul\":19467:19606   */\n      swap1\n      pop\n        /* \"#utility.yul\":19194:19613   */\n      swap2\n      swap1\n      pop\n      jump\t// out\n        /* \"#utility.yul\":19619:19790   */\n    tag_421:\n        /* \"#utility.yul\":19759:19782   */\n      0x596f7520617265206e6f74206e6674206f776e65720000000000000000000000\n        /* \"#utility.yul\":19755:19756   */\n      0x00\n        /* \"#utility.yul\":19747:19753   */\n      dup3\n        /* \"#utility.yul\":19743:19757   */\n      add\n        /* \"#utility.yul\":19736:19783   */\n      mstore\n        /* \"#utility.yul\":19619:19790   */\n      pop\n      jump\t// out\n        /* \"#utility.yul\":19796:20162   */\n    tag_422:\n        /* \"#utility.yul\":19938:19941   */\n      0x00\n        /* \"#utility.yul\":19959:20026   */\n      tag_611\n        /* \"#utility.yul\":20023:20025   */\n      0x15\n        /* \"#utility.yul\":20018:20021   */\n      dup4\n        /* \"#utility.yul\":19959:20026   */\n      tag_409\n      jump\t// in\n    tag_611:\n        /* \"#utility.yul\":19952:20026   */\n      swap2\n      pop\n        /* \"#utility.yul\":20035:20128   */\n      tag_612\n        /* \"#utility.yul\":20124:20127   */\n      dup3\n        /* \"#utility.yul\":20035:20128   */\n      tag_421\n      jump\t// in\n    tag_612:\n        /* \"#utility.yul\":20153:20155   */\n      0x20\n        /* \"#utility.yul\":20148:20151   */\n      dup3\n        /* \"#utility.yul\":20144:20156   */\n      add\n        /* \"#utility.yul\":20137:20156   */\n      swap1\n      pop\n        /* \"#utility.yul\":19796:20162   */\n      swap2\n      swap1\n      pop\n      jump\t// out\n        /* \"#utility.yul\":20168:20587   */\n    tag_166:\n        /* \"#utility.yul\":20334:20338   */\n      0x00\n        /* \"#utility.yul\":20372:20374   */\n      0x20\n        /* \"#utility.yul\":20361:20370   */\n      dup3\n        /* \"#utility.yul\":20357:20375   */\n      add\n        /* \"#utility.yul\":20349:20375   */\n      swap1\n      pop\n        /* \"#utility.yul\":20421:20430   */\n      dup2\n        /* \"#utility.yul\":20415:20419   */\n      dup2\n        /* \"#utility.yul\":20411:20431   */\n      sub\n        /* \"#utility.yul\":20407:20408   */\n      0x00\n        /* \"#utility.yul\":20396:20405   */\n      dup4\n        /* \"#utility.yul\":20392:20409   */\n      add\n        /* \"#utility.yul\":20385:20432   */\n      mstore\n        /* \"#utility.yul\":20449:20580   */\n      tag_614\n        /* \"#utility.yul\":20575:20579   */\n      dup2\n        /* \"#utility.yul\":20449:20580   */\n      tag_422\n      jump\t// in\n    tag_614:\n        /* \"#utility.yul\":20441:20580   */\n      swap1\n      pop\n        /* \"#utility.yul\":20168:20587   */\n      swap2\n      swap1\n      pop\n      jump\t// out\n        /* \"#utility.yul\":20593:21035   */\n    tag_172:\n        /* \"#utility.yul\":20742:20746   */\n      0x00\n        /* \"#utility.yul\":20780:20782   */\n      0x60\n        /* \"#utility.yul\":20769:20778   */\n      dup3\n        /* \"#utility.yul\":20765:20783   */\n      add\n        /* \"#utility.yul\":20757:20783   */\n      swap1\n      pop\n        /* \"#utility.yul\":20793:20864   */\n      tag_616\n        /* \"#utility.yul\":20861:20862   */\n      0x00\n        /* \"#utility.yul\":20850:20859   */\n      dup4\n        /* \"#utility.yul\":20846:20863   */\n      add\n        /* \"#utility.yul\":20837:20843   */\n      dup7\n        /* \"#utility.yul\":20793:20864   */\n      tag_418\n      jump\t// in\n    tag_616:\n        /* \"#utility.yul\":20874:20946   */\n      tag_617\n        /* \"#utility.yul\":20942:20944   */\n      0x20\n        /* \"#utility.yul\":20931:20940   */\n      dup4\n        /* \"#utility.yul\":20927:20945   */\n      add\n        /* \"#utility.yul\":20918:20924   */\n      dup6\n        /* \"#utility.yul\":20874:20946   */\n      tag_406\n      jump\t// in\n    tag_617:\n        /* \"#utility.yul\":20956:21028   */\n      tag_618\n        /* \"#utility.yul\":21024:21026   */\n      0x40\n        /* \"#utility.yul\":21013:21022   */\n      dup4\n        /* \"#utility.yul\":21009:21027   */\n      add\n        /* \"#utility.yul\":21000:21006   */\n      dup5\n        /* \"#utility.yul\":20956:21028   */\n      tag_406\n      jump\t// in\n    tag_618:\n        /* \"#utility.yul\":20593:21035   */\n      swap5\n      swap4\n      pop\n      pop\n      pop\n      pop\n      jump\t// out\n        /* \"#utility.yul\":21041:21206   */\n    tag_423:\n        /* \"#utility.yul\":21181:21198   */\n      0x41756374696f6e206e6f7420656e640000000000000000000000000000000000\n        /* \"#utility.yul\":21177:21178   */\n      0x00\n        /* \"#utility.yul\":21169:21175   */\n      dup3\n        /* \"#utility.yul\":21165:21179   */\n      add\n        /* \"#utility.yul\":21158:21199   */\n      mstore\n        /* \"#utility.yul\":21041:21206   */\n      pop\n      jump\t// out\n        /* \"#utility.yul\":21212:21578   */\n    tag_424:\n        /* \"#utility.yul\":21354:21357   */\n      0x00\n        /* \"#utility.yul\":21375:21442   */\n      tag_621\n        /* \"#utility.yul\":21439:21441   */\n      0x0f\n        /* \"#utility.yul\":21434:21437   */\n      dup4\n        /* \"#utility.yul\":21375:21442   */\n      tag_409\n      jump\t// in\n    tag_621:\n        /* \"#utility.yul\":21368:21442   */\n      swap2\n      pop\n        /* \"#utility.yul\":21451:21544   */\n      tag_622\n        /* \"#utility.yul\":21540:21543   */\n      dup3\n        /* \"#utility.yul\":21451:21544   */\n      tag_423\n      jump\t// in\n    tag_622:\n        /* \"#utility.yul\":21569:21571   */\n      0x20\n        /* \"#utility.yul\":21564:21567   */\n      dup3\n        /* \"#utility.yul\":21560:21572   */\n      add\n        /* \"#utility.yul\":21553:21572   */\n      swap1\n      pop\n        /* \"#utility.yul\":21212:21578   */\n      swap2\n      swap1\n      pop\n      jump\t// out\n        /* \"#utility.yul\":21584:22003   */\n    tag_176:\n        /* \"#utility.yul\":21750:21754   */\n      0x00\n        /* \"#utility.yul\":21788:21790   */\n      0x20\n        /* \"#utility.yul\":21777:21786   */\n      dup3\n        /* \"#utility.yul\":21773:21791   */\n      add\n        /* \"#utility.yul\":21765:21791   */\n      swap1\n      pop\n        /* \"#utility.yul\":21837:21846   */\n      dup2\n        /* \"#utility.yul\":21831:21835   */\n      dup2\n        /* \"#utility.yul\":21827:21847   */\n      sub\n        /* \"#utility.yul\":21823:21824   */\n      0x00\n        /* \"#utility.yul\":21812:21821   */\n      dup4\n        /* \"#utility.yul\":21808:21825   */\n      add\n        /* \"#utility.yul\":21801:21848   */\n      mstore\n        /* \"#utility.yul\":21865:21996   */\n      tag_624\n        /* \"#utility.yul\":21991:21995   */\n      dup2\n        /* \"#utility.yul\":21865:21996   */\n      tag_424\n      jump\t// in\n    tag_624:\n        /* \"#utility.yul\":21857:21996   */\n      swap1\n      pop\n        /* \"#utility.yul\":21584:22003   */\n      swap2\n      swap1\n      pop\n      jump\t// out\n        /* \"#utility.yul\":22009:22181   */\n    tag_425:\n        /* \"#utility.yul\":22149:22173   */\n      0x596f752061726520686967686573742062696464657200000000000000000000\n        /* \"#utility.yul\":22145:22146   */\n      0x00\n        /* \"#utility.yul\":22137:22143   */\n      dup3\n        /* \"#utility.yul\":22133:22147   */\n      add\n        /* \"#utility.yul\":22126:22174   */\n      mstore\n        /* \"#utility.yul\":22009:22181   */\n      pop\n      jump\t// out\n        /* \"#utility.yul\":22187:22553   */\n    tag_426:\n        /* \"#utility.yul\":22329:22332   */\n      0x00\n        /* \"#utility.yul\":22350:22417   */\n      tag_627\n        /* \"#utility.yul\":22414:22416   */\n      0x16\n        /* \"#utility.yul\":22409:22412   */\n      dup4\n        /* \"#utility.yul\":22350:22417   */\n      tag_409\n      jump\t// in\n    tag_627:\n        /* \"#utility.yul\":22343:22417   */\n      swap2\n      pop\n        /* \"#utility.yul\":22426:22519   */\n      tag_628\n        /* \"#utility.yul\":22515:22518   */\n      dup3\n        /* \"#utility.yul\":22426:22519   */\n      tag_425\n      jump\t// in\n    tag_628:\n        /* \"#utility.yul\":22544:22546   */\n      0x20\n        /* \"#utility.yul\":22539:22542   */\n      dup3\n        /* \"#utility.yul\":22535:22547   */\n      add\n        /* \"#utility.yul\":22528:22547   */\n      swap1\n      pop\n        /* \"#utility.yul\":22187:22553   */\n      swap2\n      swap1\n      pop\n      jump\t// out\n        /* \"#utility.yul\":22559:22978   */\n    tag_180:\n        /* \"#utility.yul\":22725:22729   */\n      0x00\n        /* \"#utility.yul\":22763:22765   */\n      0x20\n        /* \"#utility.yul\":22752:22761   */\n      dup3\n        /* \"#utility.yul\":22748:22766   */\n      add\n        /* \"#utility.yul\":22740:22766   */\n      swap1\n      pop\n        /* \"#utility.yul\":22812:22821   */\n      dup2\n        /* \"#utility.yul\":22806:22810   */\n      dup2\n        /* \"#utility.yul\":22802:22822   */\n      sub\n        /* \"#utility.yul\":22798:22799   */\n      0x00\n        /* \"#utility.yul\":22787:22796   */\n      dup4\n        /* \"#utility.yul\":22783:22800   */\n      add\n        /* \"#utility.yul\":22776:22823   */\n      mstore\n        /* \"#utility.yul\":22840:22971   */\n      tag_630\n        /* \"#utility.yul\":22966:22970   */\n      dup2\n        /* \"#utility.yul\":22840:22971   */\n      tag_426\n      jump\t// in\n    tag_630:\n        /* \"#utility.yul\":22832:22971   */\n      swap1\n      pop\n        /* \"#utility.yul\":22559:22978   */\n      swap2\n      swap1\n      pop\n      jump\t// out\n        /* \"#utility.yul\":22984:23153   */\n    tag_427:\n        /* \"#utility.yul\":23124:23145   */\n      0x6e6f7468696e6720746f20776974686472617700000000000000000000000000\n        /* \"#utility.yul\":23120:23121   */\n      0x00\n        /* \"#utility.yul\":23112:23118   */\n      dup3\n        /* \"#utility.yul\":23108:23122   */\n      add\n        /* \"#utility.yul\":23101:23146   */\n      mstore\n        /* \"#utility.yul\":22984:23153   */\n      pop\n      jump\t// out\n        /* \"#utility.yul\":23159:23525   */\n    tag_428:\n        /* \"#utility.yul\":23301:23304   */\n      0x00\n        /* \"#utility.yul\":23322:23389   */\n      tag_633\n        /* \"#utility.yul\":23386:23388   */\n      0x13\n        /* \"#utility.yul\":23381:23384   */\n      dup4\n        /* \"#utility.yul\":23322:23389   */\n      tag_409\n      jump\t// in\n    tag_633:\n        /* \"#utility.yul\":23315:23389   */\n      swap2\n      pop\n        /* \"#utility.yul\":23398:23491   */\n      tag_634\n        /* \"#utility.yul\":23487:23490   */\n      dup3\n        /* \"#utility.yul\":23398:23491   */\n      tag_427\n      jump\t// in\n    tag_634:\n        /* \"#utility.yul\":23516:23518   */\n      0x20\n        /* \"#utility.yul\":23511:23514   */\n      dup3\n        /* \"#utility.yul\":23507:23519   */\n      add\n        /* \"#utility.yul\":23500:23519   */\n      swap1\n      pop\n        /* \"#utility.yul\":23159:23525   */\n      swap2\n      swap1\n      pop\n      jump\t// out\n        /* \"#utility.yul\":23531:23950   */\n    tag_183:\n        /* \"#utility.yul\":23697:23701   */\n      0x00\n        /* \"#utility.yul\":23735:23737   */\n      0x20\n        /* \"#utility.yul\":23724:23733   */\n      dup3\n        /* \"#utility.yul\":23720:23738   */\n      add\n        /* \"#utility.yul\":23712:23738   */\n      swap1\n      pop\n        /* \"#utility.yul\":23784:23793   */\n      dup2\n        /* \"#utility.yul\":23778:23782   */\n      dup2\n        /* \"#utility.yul\":23774:23794   */\n      sub\n        /* \"#utility.yul\":23770:23771   */\n      0x00\n        /* \"#utility.yul\":23759:23768   */\n      dup4\n        /* \"#utility.yul\":23755:23772   */\n      add\n        /* \"#utility.yul\":23748:23795   */\n      mstore\n        /* \"#utility.yul\":23812:23943   */\n      tag_636\n        /* \"#utility.yul\":23938:23942   */\n      dup2\n        /* \"#utility.yul\":23812:23943   */\n      tag_428\n      jump\t// in\n    tag_636:\n        /* \"#utility.yul\":23804:23943   */\n      swap1\n      pop\n        /* \"#utility.yul\":23531:23950   */\n      swap2\n      swap1\n      pop\n      jump\t// out\n        /* \"#utility.yul\":23956:24398   */\n    tag_185:\n        /* \"#utility.yul\":24105:24109   */\n      0x00\n        /* \"#utility.yul\":24143:24145   */\n      0x60\n        /* \"#utility.yul\":24132:24141   */\n      dup3\n        /* \"#utility.yul\":24128:24146   */\n      add\n        /* \"#utility.yul\":24120:24146   */\n      swap1\n      pop\n        /* \"#utility.yul\":24156:24227   */\n      tag_638\n        /* \"#utility.yul\":24224:24225   */\n      0x00\n        /* \"#utility.yul\":24213:24222   */\n      dup4\n        /* \"#utility.yul\":24209:24226   */\n      add\n        /* \"#utility.yul\":24200:24206   */\n      dup7\n        /* \"#utility.yul\":24156:24227   */\n      tag_418\n      jump\t// in\n    tag_638:\n        /* \"#utility.yul\":24237:24309   */\n      tag_639\n        /* \"#utility.yul\":24305:24307   */\n      0x20\n        /* \"#utility.yul\":24294:24303   */\n      dup4\n        /* \"#utility.yul\":24290:24308   */\n      add\n        /* \"#utility.yul\":24281:24287   */\n      dup6\n        /* \"#utility.yul\":24237:24309   */\n      tag_406\n      jump\t// in\n    tag_639:\n        /* \"#utility.yul\":24319:24391   */\n      tag_640\n        /* \"#utility.yul\":24387:24389   */\n      0x40\n        /* \"#utility.yul\":24376:24385   */\n      dup4\n        /* \"#utility.yul\":24372:24390   */\n      add\n        /* \"#utility.yul\":24363:24369   */\n      dup5\n        /* \"#utility.yul\":24319:24391   */\n      tag_418\n      jump\t// in\n    tag_640:\n        /* \"#utility.yul\":23956:24398   */\n      swap5\n      swap4\n      pop\n      pop\n      pop\n      pop\n      jump\t// out\n        /* \"#utility.yul\":24404:24584   */\n    tag_197:\n        /* \"#utility.yul\":24452:24529   */\n      0x4e487b7100000000000000000000000000000000000000000000000000000000\n        /* \"#utility.yul\":24449:24450   */\n      0x00\n        /* \"#utility.yul\":24442:24530   */\n      mstore\n        /* \"#utility.yul\":24549:24553   */\n      0x32\n        /* \"#utility.yul\":24546:24547   */\n      0x04\n        /* \"#utility.yul\":24539:24554   */\n      mstore\n        /* \"#utility.yul\":24573:24577   */\n      0x24\n        /* \"#utility.yul\":24570:24571   */\n      0x00\n        /* \"#utility.yul\":24563:24578   */\n      revert\n        /* \"#utility.yul\":24590:25254   */\n    tag_200:\n        /* \"#utility.yul\":24795:24799   */\n      0x00\n        /* \"#utility.yul\":24833:24836   */\n      0xa0\n        /* \"#utility.yul\":24822:24831   */\n      dup3\n        /* \"#utility.yul\":24818:24837   */\n      add\n        /* \"#utility.yul\":24810:24837   */\n      swap1\n      pop\n        /* \"#utility.yul\":24847:24918   */\n      tag_643\n        /* \"#utility.yul\":24915:24916   */\n      0x00\n        /* \"#utility.yul\":24904:24913   */\n      dup4\n        /* \"#utility.yul\":24900:24917   */\n      add\n        /* \"#utility.yul\":24891:24897   */\n      dup9\n        /* \"#utility.yul\":24847:24918   */\n      tag_418\n      jump\t// in\n    tag_643:\n        /* \"#utility.yul\":24928:25000   */\n      tag_644\n        /* \"#utility.yul\":24996:24998   */\n      0x20\n        /* \"#utility.yul\":24985:24994   */\n      dup4\n        /* \"#utility.yul\":24981:24999   */\n      add\n        /* \"#utility.yul\":24972:24978   */\n      dup8\n        /* \"#utility.yul\":24928:25000   */\n      tag_406\n      jump\t// in\n    tag_644:\n        /* \"#utility.yul\":25010:25082   */\n      tag_645\n        /* \"#utility.yul\":25078:25080   */\n      0x40\n        /* \"#utility.yul\":25067:25076   */\n      dup4\n        /* \"#utility.yul\":25063:25081   */\n      add\n        /* \"#utility.yul\":25054:25060   */\n      dup7\n        /* \"#utility.yul\":25010:25082   */\n      tag_418\n      jump\t// in\n    tag_645:\n        /* \"#utility.yul\":25092:25164   */\n      tag_646\n        /* \"#utility.yul\":25160:25162   */\n      0x60\n        /* \"#utility.yul\":25149:25158   */\n      dup4\n        /* \"#utility.yul\":25145:25163   */\n      add\n        /* \"#utility.yul\":25136:25142   */\n      dup6\n        /* \"#utility.yul\":25092:25164   */\n      tag_406\n      jump\t// in\n    tag_646:\n        /* \"#utility.yul\":25174:25247   */\n      tag_647\n        /* \"#utility.yul\":25242:25245   */\n      0x80\n        /* \"#utility.yul\":25231:25240   */\n      dup4\n        /* \"#utility.yul\":25227:25246   */\n      add\n        /* \"#utility.yul\":25218:25224   */\n      dup5\n        /* \"#utility.yul\":25174:25247   */\n      tag_418\n      jump\t// in\n    tag_647:\n        /* \"#utility.yul\":24590:25254   */\n      swap7\n      swap6\n      pop\n      pop\n      pop\n      pop\n      pop\n      pop\n      jump\t// out\n        /* \"#utility.yul\":25260:25403   */\n    tag_429:\n        /* \"#utility.yul\":25317:25322   */\n      0x00\n        /* \"#utility.yul\":25348:25354   */\n      dup2\n        /* \"#utility.yul\":25342:25355   */\n      mload\n        /* \"#utility.yul\":25333:25355   */\n      swap1\n      pop\n        /* \"#utility.yul\":25364:25397   */\n      tag_649\n        /* \"#utility.yul\":25391:25396   */\n      dup2\n        /* \"#utility.yul\":25364:25397   */\n      tag_386\n      jump\t// in\n    tag_649:\n        /* \"#utility.yul\":25260:25403   */\n      swap3\n      swap2\n      pop\n      pop\n      jump\t// out\n        /* \"#utility.yul\":25409:25760   */\n    tag_206:\n        /* \"#utility.yul\":25479:25485   */\n      0x00\n        /* \"#utility.yul\":25528:25530   */\n      0x20\n        /* \"#utility.yul\":25516:25525   */\n      dup3\n        /* \"#utility.yul\":25507:25514   */\n      dup5\n        /* \"#utility.yul\":25503:25526   */\n      sub\n        /* \"#utility.yul\":25499:25531   */\n      slt\n        /* \"#utility.yul\":25496:25615   */\n      iszero\n      tag_651\n      jumpi\n        /* \"#utility.yul\":25534:25613   */\n      tag_652\n      tag_382\n      jump\t// in\n    tag_652:\n        /* \"#utility.yul\":25496:25615   */\n    tag_651:\n        /* \"#utility.yul\":25654:25655   */\n      0x00\n        /* \"#utility.yul\":25679:25743   */\n      tag_653\n        /* \"#utility.yul\":25735:25742   */\n      dup5\n        /* \"#utility.yul\":25726:25732   */\n      dup3\n        /* \"#utility.yul\":25715:25724   */\n      dup6\n        /* \"#utility.yul\":25711:25733   */\n      add\n        /* \"#utility.yul\":25679:25743   */\n      tag_429\n      jump\t// in\n    tag_653:\n        /* \"#utility.yul\":25669:25743   */\n      swap2\n      pop\n        /* \"#utility.yul\":25625:25753   */\n      pop\n        /* \"#utility.yul\":25409:25760   */\n      swap3\n      swap2\n      pop\n      pop\n      jump\t// out\n        /* \"#utility.yul\":25766:25935   */\n    tag_430:\n        /* \"#utility.yul\":25906:25927   */\n      0x4e667420616c726561647920696e2073616c6500000000000000000000000000\n        /* \"#utility.yul\":25902:25903   */\n      0x00\n        /* \"#utility.yul\":25894:25900   */\n      dup3\n        /* \"#utility.yul\":25890:25904   */\n      add\n        /* \"#utility.yul\":25883:25928   */\n      mstore\n        /* \"#utility.yul\":25766:25935   */\n      pop\n      jump\t// out\n        /* \"#utility.yul\":25941:26307   */\n    tag_431:\n        /* \"#utility.yul\":26083:26086   */\n      0x00\n        /* \"#utility.yul\":26104:26171   */\n      tag_656\n        /* \"#utility.yul\":26168:26170   */\n      0x13\n        /* \"#utility.yul\":26163:26166   */\n      dup4\n        /* \"#utility.yul\":26104:26171   */\n      tag_409\n      jump\t// in\n    tag_656:\n        /* \"#utility.yul\":26097:26171   */\n      swap2\n      pop\n        /* \"#utility.yul\":26180:26273   */\n      tag_657\n        /* \"#utility.yul\":26269:26272   */\n      dup3\n        /* \"#utility.yul\":26180:26273   */\n      tag_430\n      jump\t// in\n    tag_657:\n        /* \"#utility.yul\":26298:26300   */\n      0x20\n        /* \"#utility.yul\":26293:26296   */\n      dup3\n        /* \"#utility.yul\":26289:26301   */\n      add\n        /* \"#utility.yul\":26282:26301   */\n      swap1\n      pop\n        /* \"#utility.yul\":25941:26307   */\n      swap2\n      swap1\n      pop\n      jump\t// out\n        /* \"#utility.yul\":26313:26732   */\n    tag_212:\n        /* \"#utility.yul\":26479:26483   */\n      0x00\n        /* \"#utility.yul\":26517:26519   */\n      0x20\n        /* \"#utility.yul\":26506:26515   */\n      dup3\n        /* \"#utility.yul\":26502:26520   */\n      add\n        /* \"#utility.yul\":26494:26520   */\n      swap1\n      pop\n        /* \"#utility.yul\":26566:26575   */\n      dup2\n        /* \"#utility.yul\":26560:26564   */\n      dup2\n        /* \"#utility.yul\":26556:26576   */\n      sub\n        /* \"#utility.yul\":26552:26553   */\n      0x00\n        /* \"#utility.yul\":26541:26550   */\n      dup4\n        /* \"#utility.yul\":26537:26554   */\n      add\n        /* \"#utility.yul\":26530:26577   */\n      mstore\n        /* \"#utility.yul\":26594:26725   */\n      tag_659\n        /* \"#utility.yul\":26720:26724   */\n      dup2\n        /* \"#utility.yul\":26594:26725   */\n      tag_431\n      jump\t// in\n    tag_659:\n        /* \"#utility.yul\":26586:26725   */\n      swap1\n      pop\n        /* \"#utility.yul\":26313:26732   */\n      swap2\n      swap1\n      pop\n      jump\t// out\n        /* \"#utility.yul\":26738:27070   */\n    tag_215:\n        /* \"#utility.yul\":26859:26863   */\n      0x00\n        /* \"#utility.yul\":26897:26899   */\n      0x40\n        /* \"#utility.yul\":26886:26895   */\n      dup3\n        /* \"#utility.yul\":26882:26900   */\n      add\n        /* \"#utility.yul\":26874:26900   */\n      swap1\n      pop\n        /* \"#utility.yul\":26910:26981   */\n      tag_661\n        /* \"#utility.yul\":26978:26979   */\n      0x00\n        /* \"#utility.yul\":26967:26976   */\n      dup4\n        /* \"#utility.yul\":26963:26980   */\n      add\n        /* \"#utility.yul\":26954:26960   */\n      dup6\n        /* \"#utility.yul\":26910:26981   */\n      tag_418\n      jump\t// in\n    tag_661:\n        /* \"#utility.yul\":26991:27063   */\n      tag_662\n        /* \"#utility.yul\":27059:27061   */\n      0x20\n        /* \"#utility.yul\":27048:27057   */\n      dup4\n        /* \"#utility.yul\":27044:27062   */\n      add\n        /* \"#utility.yul\":27035:27041   */\n      dup5\n        /* \"#utility.yul\":26991:27063   */\n      tag_418\n      jump\t// in\n    tag_662:\n        /* \"#utility.yul\":26738:27070   */\n      swap4\n      swap3\n      pop\n      pop\n      pop\n      jump\t// out\n        /* \"#utility.yul\":27076:27166   */\n    tag_432:\n        /* \"#utility.yul\":27110:27117   */\n      0x00\n        /* \"#utility.yul\":27153:27158   */\n      dup2\n        /* \"#utility.yul\":27146:27159   */\n      iszero\n        /* \"#utility.yul\":27139:27160   */\n      iszero\n        /* \"#utility.yul\":27128:27160   */\n      swap1\n      pop\n        /* \"#utility.yul\":27076:27166   */\n      swap2\n      swap1\n      pop\n      jump\t// out\n        /* \"#utility.yul\":27172:27288   */\n    tag_433:\n        /* \"#utility.yul\":27242:27263   */\n      tag_665\n        /* \"#utility.yul\":27257:27262   */\n      dup2\n        /* \"#utility.yul\":27242:27263   */\n      tag_432\n      jump\t// in\n    tag_665:\n        /* \"#utility.yul\":27235:27240   */\n      dup2\n        /* \"#utility.yul\":27232:27264   */\n      eq\n        /* \"#utility.yul\":27222:27282   */\n      tag_666\n      jumpi\n        /* \"#utility.yul\":27278:27279   */\n      0x00\n        /* \"#utility.yul\":27275:27276   */\n      dup1\n        /* \"#utility.yul\":27268:27280   */\n      revert\n        /* \"#utility.yul\":27222:27282   */\n    tag_666:\n        /* \"#utility.yul\":27172:27288   */\n      pop\n      jump\t// out\n        /* \"#utility.yul\":27294:27431   */\n    tag_434:\n        /* \"#utility.yul\":27348:27353   */\n      0x00\n        /* \"#utility.yul\":27379:27385   */\n      dup2\n        /* \"#utility.yul\":27373:27386   */\n      mload\n        /* \"#utility.yul\":27364:27386   */\n      swap1\n      pop\n        /* \"#utility.yul\":27395:27425   */\n      tag_668\n        /* \"#utility.yul\":27419:27424   */\n      dup2\n        /* \"#utility.yul\":27395:27425   */\n      tag_433\n      jump\t// in\n    tag_668:\n        /* \"#utility.yul\":27294:27431   */\n      swap3\n      swap2\n      pop\n      pop\n      jump\t// out\n        /* \"#utility.yul\":27437:27782   */\n    tag_219:\n        /* \"#utility.yul\":27504:27510   */\n      0x00\n        /* \"#utility.yul\":27553:27555   */\n      0x20\n        /* \"#utility.yul\":27541:27550   */\n      dup3\n        /* \"#utility.yul\":27532:27539   */\n      dup5\n        /* \"#utility.yul\":27528:27551   */\n      sub\n        /* \"#utility.yul\":27524:27556   */\n      slt\n        /* \"#utility.yul\":27521:27640   */\n      iszero\n      tag_670\n      jumpi\n        /* \"#utility.yul\":27559:27638   */\n      tag_671\n      tag_382\n      jump\t// in\n    tag_671:\n        /* \"#utility.yul\":27521:27640   */\n    tag_670:\n        /* \"#utility.yul\":27679:27680   */\n      0x00\n        /* \"#utility.yul\":27704:27765   */\n      tag_672\n        /* \"#utility.yul\":27757:27764   */\n      dup5\n        /* \"#utility.yul\":27748:27754   */\n      dup3\n        /* \"#utility.yul\":27737:27746   */\n      dup6\n        /* \"#utility.yul\":27733:27755   */\n      add\n        /* \"#utility.yul\":27704:27765   */\n      tag_434\n      jump\t// in\n    tag_672:\n        /* \"#utility.yul\":27694:27765   */\n      swap2\n      pop\n        /* \"#utility.yul\":27650:27775   */\n      pop\n        /* \"#utility.yul\":27437:27782   */\n      swap3\n      swap2\n      pop\n      pop\n      jump\t// out\n        /* \"#utility.yul\":27788:27966   */\n    tag_435:\n        /* \"#utility.yul\":27928:27958   */\n      0x4e6674206e6f7420617070726f76656420746f20636f6e747261637400000000\n        /* \"#utility.yul\":27924:27925   */\n      0x00\n        /* \"#utility.yul\":27916:27922   */\n      dup3\n        /* \"#utility.yul\":27912:27926   */\n      add\n        /* \"#utility.yul\":27905:27959   */\n      mstore\n        /* \"#utility.yul\":27788:27966   */\n      pop\n      jump\t// out\n        /* \"#utility.yul\":27972:28338   */\n    tag_436:\n        /* \"#utility.yul\":28114:28117   */\n      0x00\n        /* \"#utility.yul\":28135:28202   */\n      tag_675\n        /* \"#utility.yul\":28199:28201   */\n      0x1c\n        /* \"#utility.yul\":28194:28197   */\n      dup4\n        /* \"#utility.yul\":28135:28202   */\n      tag_409\n      jump\t// in\n    tag_675:\n        /* \"#utility.yul\":28128:28202   */\n      swap2\n      pop\n        /* \"#utility.yul\":28211:28304   */\n      tag_676\n        /* \"#utility.yul\":28300:28303   */\n      dup3\n        /* \"#utility.yul\":28211:28304   */\n      tag_435\n      jump\t// in\n    tag_676:\n        /* \"#utility.yul\":28329:28331   */\n      0x20\n        /* \"#utility.yul\":28324:28327   */\n      dup3\n        /* \"#utility.yul\":28320:28332   */\n      add\n        /* \"#utility.yul\":28313:28332   */\n      swap1\n      pop\n        /* \"#utility.yul\":27972:28338   */\n      swap2\n      swap1\n      pop\n      jump\t// out\n        /* \"#utility.yul\":28344:28763   */\n    tag_222:\n        /* \"#utility.yul\":28510:28514   */\n      0x00\n        /* \"#utility.yul\":28548:28550   */\n      0x20\n        /* \"#utility.yul\":28537:28546   */\n      dup3\n        /* \"#utility.yul\":28533:28551   */\n      add\n        /* \"#utility.yul\":28525:28551   */\n      swap1\n      pop\n        /* \"#utility.yul\":28597:28606   */\n      dup2\n        /* \"#utility.yul\":28591:28595   */\n      dup2\n        /* \"#utility.yul\":28587:28607   */\n      sub\n        /* \"#utility.yul\":28583:28584   */\n      0x00\n        /* \"#utility.yul\":28572:28581   */\n      dup4\n        /* \"#utility.yul\":28568:28585   */\n      add\n        /* \"#utility.yul\":28561:28608   */\n      mstore\n        /* \"#utility.yul\":28625:28756   */\n      tag_678\n        /* \"#utility.yul\":28751:28755   */\n      dup2\n        /* \"#utility.yul\":28625:28756   */\n      tag_436\n      jump\t// in\n    tag_678:\n        /* \"#utility.yul\":28617:28756   */\n      swap1\n      pop\n        /* \"#utility.yul\":28344:28763   */\n      swap2\n      swap1\n      pop\n      jump\t// out\n        /* \"#utility.yul\":28769:29211   */\n    tag_229:\n        /* \"#utility.yul\":28918:28922   */\n      0x00\n        /* \"#utility.yul\":28956:28958   */\n      0x60\n        /* \"#utility.yul\":28945:28954   */\n      dup3\n        /* \"#utility.yul\":28941:28959   */\n      add\n        /* \"#utility.yul\":28933:28959   */\n      swap1\n      pop\n        /* \"#utility.yul\":28969:29040   */\n      tag_680\n        /* \"#utility.yul\":29037:29038   */\n      0x00\n        /* \"#utility.yul\":29026:29035   */\n      dup4\n        /* \"#utility.yul\":29022:29039   */\n      add\n        /* \"#utility.yul\":29013:29019   */\n      dup7\n        /* \"#utility.yul\":28969:29040   */\n      tag_418\n      jump\t// in\n    tag_680:\n        /* \"#utility.yul\":29050:29122   */\n      tag_681\n        /* \"#utility.yul\":29118:29120   */\n      0x20\n        /* \"#utility.yul\":29107:29116   */\n      dup4\n        /* \"#utility.yul\":29103:29121   */\n      add\n        /* \"#utility.yul\":29094:29100   */\n      dup6\n        /* \"#utility.yul\":29050:29122   */\n      tag_418\n      jump\t// in\n    tag_681:\n        /* \"#utility.yul\":29132:29204   */\n      tag_682\n        /* \"#utility.yul\":29200:29202   */\n      0x40\n        /* \"#utility.yul\":29189:29198   */\n      dup4\n        /* \"#utility.yul\":29185:29203   */\n      add\n        /* \"#utility.yul\":29176:29182   */\n      dup5\n        /* \"#utility.yul\":29132:29204   */\n      tag_406\n      jump\t// in\n    tag_682:\n        /* \"#utility.yul\":28769:29211   */\n      swap5\n      swap4\n      pop\n      pop\n      pop\n      pop\n      jump\t// out\n        /* \"#utility.yul\":29217:29992   */\n    tag_234:\n        /* \"#utility.yul\":29450:29454   */\n      0x00\n        /* \"#utility.yul\":29488:29491   */\n      0xc0\n        /* \"#utility.yul\":29477:29486   */\n      dup3\n        /* \"#utility.yul\":29473:29492   */\n      add\n        /* \"#utility.yul\":29465:29492   */\n      swap1\n      pop\n        /* \"#utility.yul\":29502:29573   */\n      tag_684\n        /* \"#utility.yul\":29570:29571   */\n      0x00\n        /* \"#utility.yul\":29559:29568   */\n      dup4\n        /* \"#utility.yul\":29555:29572   */\n      add\n        /* \"#utility.yul\":29546:29552   */\n      dup10\n        /* \"#utility.yul\":29502:29573   */\n      tag_418\n      jump\t// in\n    tag_684:\n        /* \"#utility.yul\":29583:29655   */\n      tag_685\n        /* \"#utility.yul\":29651:29653   */\n      0x20\n        /* \"#utility.yul\":29640:29649   */\n      dup4\n        /* \"#utility.yul\":29636:29654   */\n      add\n        /* \"#utility.yul\":29627:29633   */\n      dup9\n        /* \"#utility.yul\":29583:29655   */\n      tag_418\n      jump\t// in\n    tag_685:\n        /* \"#utility.yul\":29665:29737   */\n      tag_686\n        /* \"#utility.yul\":29733:29735   */\n      0x40\n        /* \"#utility.yul\":29722:29731   */\n      dup4\n        /* \"#utility.yul\":29718:29736   */\n      add\n        /* \"#utility.yul\":29709:29715   */\n      dup8\n        /* \"#utility.yul\":29665:29737   */\n      tag_418\n      jump\t// in\n    tag_686:\n        /* \"#utility.yul\":29747:29819   */\n      tag_687\n        /* \"#utility.yul\":29815:29817   */\n      0x60\n        /* \"#utility.yul\":29804:29813   */\n      dup4\n        /* \"#utility.yul\":29800:29818   */\n      add\n        /* \"#utility.yul\":29791:29797   */\n      dup7\n        /* \"#utility.yul\":29747:29819   */\n      tag_406\n      jump\t// in\n    tag_687:\n        /* \"#utility.yul\":29829:29902   */\n      tag_688\n        /* \"#utility.yul\":29897:29900   */\n      0x80\n        /* \"#utility.yul\":29886:29895   */\n      dup4\n        /* \"#utility.yul\":29882:29901   */\n      add\n        /* \"#utility.yul\":29873:29879   */\n      dup6\n        /* \"#utility.yul\":29829:29902   */\n      tag_406\n      jump\t// in\n    tag_688:\n        /* \"#utility.yul\":29912:29985   */\n      tag_689\n        /* \"#utility.yul\":29980:29983   */\n      0xa0\n        /* \"#utility.yul\":29969:29978   */\n      dup4\n        /* \"#utility.yul\":29965:29984   */\n      add\n        /* \"#utility.yul\":29956:29962   */\n      dup5\n        /* \"#utility.yul\":29912:29985   */\n      tag_406\n      jump\t// in\n    tag_689:\n        /* \"#utility.yul\":29217:29992   */\n      swap8\n      swap7\n      pop\n      pop\n      pop\n      pop\n      pop\n      pop\n      pop\n      jump\t// out\n        /* \"#utility.yul\":29998:30161   */\n    tag_437:\n        /* \"#utility.yul\":30138:30153   */\n      0x6e6f74206e6674206f776e657200000000000000000000000000000000000000\n        /* \"#utility.yul\":30134:30135   */\n      0x00\n        /* \"#utility.yul\":30126:30132   */\n      dup3\n        /* \"#utility.yul\":30122:30136   */\n      add\n        /* \"#utility.yul\":30115:30154   */\n      mstore\n        /* \"#utility.yul\":29998:30161   */\n      pop\n      jump\t// out\n        /* \"#utility.yul\":30167:30533   */\n    tag_438:\n        /* \"#utility.yul\":30309:30312   */\n      0x00\n        /* \"#utility.yul\":30330:30397   */\n      tag_692\n        /* \"#utility.yul\":30394:30396   */\n      0x0d\n        /* \"#utility.yul\":30389:30392   */\n      dup4\n        /* \"#utility.yul\":30330:30397   */\n      tag_409\n      jump\t// in\n    tag_692:\n        /* \"#utility.yul\":30323:30397   */\n      swap2\n      pop\n        /* \"#utility.yul\":30406:30499   */\n      tag_693\n        /* \"#utility.yul\":30495:30498   */\n      dup3\n        /* \"#utility.yul\":30406:30499   */\n      tag_437\n      jump\t// in\n    tag_693:\n        /* \"#utility.yul\":30524:30526   */\n      0x20\n        /* \"#utility.yul\":30519:30522   */\n      dup3\n        /* \"#utility.yul\":30515:30527   */\n      add\n        /* \"#utility.yul\":30508:30527   */\n      swap1\n      pop\n        /* \"#utility.yul\":30167:30533   */\n      swap2\n      swap1\n      pop\n      jump\t// out\n        /* \"#utility.yul\":30539:30958   */\n    tag_244:\n        /* \"#utility.yul\":30705:30709   */\n      0x00\n        /* \"#utility.yul\":30743:30745   */\n      0x20\n        /* \"#utility.yul\":30732:30741   */\n      dup3\n        /* \"#utility.yul\":30728:30746   */\n      add\n        /* \"#utility.yul\":30720:30746   */\n      swap1\n      pop\n        /* \"#utility.yul\":30792:30801   */\n      dup2\n        /* \"#utility.yul\":30786:30790   */\n      dup2\n        /* \"#utility.yul\":30782:30802   */\n      sub\n        /* \"#utility.yul\":30778:30779   */\n      0x00\n        /* \"#utility.yul\":30767:30776   */\n      dup4\n        /* \"#utility.yul\":30763:30780   */\n      add\n        /* \"#utility.yul\":30756:30803   */\n      mstore\n        /* \"#utility.yul\":30820:30951   */\n      tag_695\n        /* \"#utility.yul\":30946:30950   */\n      dup2\n        /* \"#utility.yul\":30820:30951   */\n      tag_438\n      jump\t// in\n    tag_695:\n        /* \"#utility.yul\":30812:30951   */\n      swap1\n      pop\n        /* \"#utility.yul\":30539:30958   */\n      swap2\n      swap1\n      pop\n      jump\t// out\n        /* \"#utility.yul\":30964:31122   */\n    tag_439:\n        /* \"#utility.yul\":31104:31114   */\n      0x626964206d616b65000000000000000000000000000000000000000000000000\n        /* \"#utility.yul\":31100:31101   */\n      0x00\n        /* \"#utility.yul\":31092:31098   */\n      dup3\n        /* \"#utility.yul\":31088:31102   */\n      add\n        /* \"#utility.yul\":31081:31115   */\n      mstore\n        /* \"#utility.yul\":30964:31122   */\n      pop\n      jump\t// out\n        /* \"#utility.yul\":31128:31493   */\n    tag_440:\n        /* \"#utility.yul\":31270:31273   */\n      0x00\n        /* \"#utility.yul\":31291:31357   */\n      tag_698\n        /* \"#utility.yul\":31355:31356   */\n      0x08\n        /* \"#utility.yul\":31350:31353   */\n      dup4\n        /* \"#utility.yul\":31291:31357   */\n      tag_409\n      jump\t// in\n    tag_698:\n        /* \"#utility.yul\":31284:31357   */\n      swap2\n      pop\n        /* \"#utility.yul\":31366:31459   */\n      tag_699\n        /* \"#utility.yul\":31455:31458   */\n      dup3\n        /* \"#utility.yul\":31366:31459   */\n      tag_439\n      jump\t// in\n    tag_699:\n        /* \"#utility.yul\":31484:31486   */\n      0x20\n        /* \"#utility.yul\":31479:31482   */\n      dup3\n        /* \"#utility.yul\":31475:31487   */\n      add\n        /* \"#utility.yul\":31468:31487   */\n      swap1\n      pop\n        /* \"#utility.yul\":31128:31493   */\n      swap2\n      swap1\n      pop\n      jump\t// out\n        /* \"#utility.yul\":31499:31918   */\n    tag_251:\n        /* \"#utility.yul\":31665:31669   */\n      0x00\n        /* \"#utility.yul\":31703:31705   */\n      0x20\n        /* \"#utility.yul\":31692:31701   */\n      dup3\n        /* \"#utility.yul\":31688:31706   */\n      add\n        /* \"#utility.yul\":31680:31706   */\n      swap1\n      pop\n        /* \"#utility.yul\":31752:31761   */\n      dup2\n        /* \"#utility.yul\":31746:31750   */\n      dup2\n        /* \"#utility.yul\":31742:31762   */\n      sub\n        /* \"#utility.yul\":31738:31739   */\n      0x00\n        /* \"#utility.yul\":31727:31736   */\n      dup4\n        /* \"#utility.yul\":31723:31740   */\n      add\n        /* \"#utility.yul\":31716:31763   */\n      mstore\n        /* \"#utility.yul\":31780:31911   */\n      tag_701\n        /* \"#utility.yul\":31906:31910   */\n      dup2\n        /* \"#utility.yul\":31780:31911   */\n      tag_440\n      jump\t// in\n    tag_701:\n        /* \"#utility.yul\":31772:31911   */\n      swap1\n      pop\n        /* \"#utility.yul\":31499:31918   */\n      swap2\n      swap1\n      pop\n      jump\t// out\n        /* \"#utility.yul\":31924:32094   */\n    tag_441:\n        /* \"#utility.yul\":32064:32086   */\n      0x627579205072696365206e6f7420656e6f756768000000000000000000000000\n        /* \"#utility.yul\":32060:32061   */\n      0x00\n        /* \"#utility.yul\":32052:32058   */\n      dup3\n        /* \"#utility.yul\":32048:32062   */\n      add\n        /* \"#utility.yul\":32041:32087   */\n      mstore\n        /* \"#utility.yul\":31924:32094   */\n      pop\n      jump\t// out\n        /* \"#utility.yul\":32100:32466   */\n    tag_442:\n        /* \"#utility.yul\":32242:32245   */\n      0x00\n        /* \"#utility.yul\":32263:32330   */\n      tag_704\n        /* \"#utility.yul\":32327:32329   */\n      0x14\n        /* \"#utility.yul\":32322:32325   */\n      dup4\n        /* \"#utility.yul\":32263:32330   */\n      tag_409\n      jump\t// in\n    tag_704:\n        /* \"#utility.yul\":32256:32330   */\n      swap2\n      pop\n        /* \"#utility.yul\":32339:32432   */\n      tag_705\n        /* \"#utility.yul\":32428:32431   */\n      dup3\n        /* \"#utility.yul\":32339:32432   */\n      tag_441\n      jump\t// in\n    tag_705:\n        /* \"#utility.yul\":32457:32459   */\n      0x20\n        /* \"#utility.yul\":32452:32455   */\n      dup3\n        /* \"#utility.yul\":32448:32460   */\n      add\n        /* \"#utility.yul\":32441:32460   */\n      swap1\n      pop\n        /* \"#utility.yul\":32100:32466   */\n      swap2\n      swap1\n      pop\n      jump\t// out\n        /* \"#utility.yul\":32472:32891   */\n    tag_277:\n        /* \"#utility.yul\":32638:32642   */\n      0x00\n        /* \"#utility.yul\":32676:32678   */\n      0x20\n        /* \"#utility.yul\":32665:32674   */\n      dup3\n        /* \"#utility.yul\":32661:32679   */\n      add\n        /* \"#utility.yul\":32653:32679   */\n      swap1\n      pop\n        /* \"#utility.yul\":32725:32734   */\n      dup2\n        /* \"#utility.yul\":32719:32723   */\n      dup2\n        /* \"#utility.yul\":32715:32735   */\n      sub\n        /* \"#utility.yul\":32711:32712   */\n      0x00\n        /* \"#utility.yul\":32700:32709   */\n      dup4\n        /* \"#utility.yul\":32696:32713   */\n      add\n        /* \"#utility.yul\":32689:32736   */\n      mstore\n        /* \"#utility.yul\":32753:32884   */\n      tag_707\n        /* \"#utility.yul\":32879:32883   */\n      dup2\n        /* \"#utility.yul\":32753:32884   */\n      tag_442\n      jump\t// in\n    tag_707:\n        /* \"#utility.yul\":32745:32884   */\n      swap1\n      pop\n        /* \"#utility.yul\":32472:32891   */\n      swap2\n      swap1\n      pop\n      jump\t// out\n        /* \"#utility.yul\":32897:33450   */\n    tag_289:\n        /* \"#utility.yul\":33074:33078   */\n      0x00\n        /* \"#utility.yul\":33112:33115   */\n      0x80\n        /* \"#utility.yul\":33101:33110   */\n      dup3\n        /* \"#utility.yul\":33097:33116   */\n      add\n        /* \"#utility.yul\":33089:33116   */\n      swap1\n      pop\n        /* \"#utility.yul\":33126:33197   */\n      tag_709\n        /* \"#utility.yul\":33194:33195   */\n      0x00\n        /* \"#utility.yul\":33183:33192   */\n      dup4\n        /* \"#utility.yul\":33179:33196   */\n      add\n        /* \"#utility.yul\":33170:33176   */\n      dup8\n        /* \"#utility.yul\":33126:33197   */\n      tag_418\n      jump\t// in\n    tag_709:\n        /* \"#utility.yul\":33207:33279   */\n      tag_710\n        /* \"#utility.yul\":33275:33277   */\n      0x20\n        /* \"#utility.yul\":33264:33273   */\n      dup4\n        /* \"#utility.yul\":33260:33278   */\n      add\n        /* \"#utility.yul\":33251:33257   */\n      dup7\n        /* \"#utility.yul\":33207:33279   */\n      tag_418\n      jump\t// in\n    tag_710:\n        /* \"#utility.yul\":33289:33361   */\n      tag_711\n        /* \"#utility.yul\":33357:33359   */\n      0x40\n        /* \"#utility.yul\":33346:33355   */\n      dup4\n        /* \"#utility.yul\":33342:33360   */\n      add\n        /* \"#utility.yul\":33333:33339   */\n      dup6\n        /* \"#utility.yul\":33289:33361   */\n      tag_406\n      jump\t// in\n    tag_711:\n        /* \"#utility.yul\":33371:33443   */\n      tag_712\n        /* \"#utility.yul\":33439:33441   */\n      0x60\n        /* \"#utility.yul\":33428:33437   */\n      dup4\n        /* \"#utility.yul\":33424:33442   */\n      add\n        /* \"#utility.yul\":33415:33421   */\n      dup5\n        /* \"#utility.yul\":33371:33443   */\n      tag_406\n      jump\t// in\n    tag_712:\n        /* \"#utility.yul\":32897:33450   */\n      swap6\n      swap5\n      pop\n      pop\n      pop\n      pop\n      pop\n      jump\t// out\n        /* \"#utility.yul\":33456:34342   */\n    tag_315:\n        /* \"#utility.yul\":33717:33721   */\n      0x00\n        /* \"#utility.yul\":33755:33758   */\n      0xe0\n        /* \"#utility.yul\":33744:33753   */\n      dup3\n        /* \"#utility.yul\":33740:33759   */\n      add\n        /* \"#utility.yul\":33732:33759   */\n      swap1\n      pop\n        /* \"#utility.yul\":33769:33840   */\n      tag_714\n        /* \"#utility.yul\":33837:33838   */\n      0x00\n        /* \"#utility.yul\":33826:33835   */\n      dup4\n        /* \"#utility.yul\":33822:33839   */\n      add\n        /* \"#utility.yul\":33813:33819   */\n      dup11\n        /* \"#utility.yul\":33769:33840   */\n      tag_418\n      jump\t// in\n    tag_714:\n        /* \"#utility.yul\":33850:33922   */\n      tag_715\n        /* \"#utility.yul\":33918:33920   */\n      0x20\n        /* \"#utility.yul\":33907:33916   */\n      dup4\n        /* \"#utility.yul\":33903:33921   */\n      add\n        /* \"#utility.yul\":33894:33900   */\n      dup10\n        /* \"#utility.yul\":33850:33922   */\n      tag_418\n      jump\t// in\n    tag_715:\n        /* \"#utility.yul\":33932:34004   */\n      tag_716\n        /* \"#utility.yul\":34000:34002   */\n      0x40\n        /* \"#utility.yul\":33989:33998   */\n      dup4\n        /* \"#utility.yul\":33985:34003   */\n      add\n        /* \"#utility.yul\":33976:33982   */\n      dup9\n        /* \"#utility.yul\":33932:34004   */\n      tag_418\n      jump\t// in\n    tag_716:\n        /* \"#utility.yul\":34014:34086   */\n      tag_717\n        /* \"#utility.yul\":34082:34084   */\n      0x60\n        /* \"#utility.yul\":34071:34080   */\n      dup4\n        /* \"#utility.yul\":34067:34085   */\n      add\n        /* \"#utility.yul\":34058:34064   */\n      dup8\n        /* \"#utility.yul\":34014:34086   */\n      tag_406\n      jump\t// in\n    tag_717:\n        /* \"#utility.yul\":34096:34169   */\n      tag_718\n        /* \"#utility.yul\":34164:34167   */\n      0x80\n        /* \"#utility.yul\":34153:34162   */\n      dup4\n        /* \"#utility.yul\":34149:34168   */\n      add\n        /* \"#utility.yul\":34140:34146   */\n      dup7\n        /* \"#utility.yul\":34096:34169   */\n      tag_406\n      jump\t// in\n    tag_718:\n        /* \"#utility.yul\":34179:34252   */\n      tag_719\n        /* \"#utility.yul\":34247:34250   */\n      0xa0\n        /* \"#utility.yul\":34236:34245   */\n      dup4\n        /* \"#utility.yul\":34232:34251   */\n      add\n        /* \"#utility.yul\":34223:34229   */\n      dup6\n        /* \"#utility.yul\":34179:34252   */\n      tag_406\n      jump\t// in\n    tag_719:\n        /* \"#utility.yul\":34262:34335   */\n      tag_720\n        /* \"#utility.yul\":34330:34333   */\n      0xc0\n        /* \"#utility.yul\":34319:34328   */\n      dup4\n        /* \"#utility.yul\":34315:34334   */\n      add\n        /* \"#utility.yul\":34306:34312   */\n      dup5\n        /* \"#utility.yul\":34262:34335   */\n      tag_406\n      jump\t// in\n    tag_720:\n        /* \"#utility.yul\":33456:34342   */\n      swap9\n      swap8\n      pop\n      pop\n      pop\n      pop\n      pop\n      pop\n      pop\n      pop\n      jump\t// out\n        /* \"#utility.yul\":34348:34518   */\n    tag_443:\n        /* \"#utility.yul\":34488:34510   */\n      0x616c6c6f77616e6365206e6f7420656e6f756768000000000000000000000000\n        /* \"#utility.yul\":34484:34485   */\n      0x00\n        /* \"#utility.yul\":34476:34482   */\n      dup3\n        /* \"#utility.yul\":34472:34486   */\n      add\n        /* \"#utility.yul\":34465:34511   */\n      mstore\n        /* \"#utility.yul\":34348:34518   */\n      pop\n      jump\t// out\n        /* \"#utility.yul\":34524:34890   */\n    tag_444:\n        /* \"#utility.yul\":34666:34669   */\n      0x00\n        /* \"#utility.yul\":34687:34754   */\n      tag_723\n        /* \"#utility.yul\":34751:34753   */\n      0x14\n        /* \"#utility.yul\":34746:34749   */\n      dup4\n        /* \"#utility.yul\":34687:34754   */\n      tag_409\n      jump\t// in\n    tag_723:\n        /* \"#utility.yul\":34680:34754   */\n      swap2\n      pop\n        /* \"#utility.yul\":34763:34856   */\n      tag_724\n        /* \"#utility.yul\":34852:34855   */\n      dup3\n        /* \"#utility.yul\":34763:34856   */\n      tag_443\n      jump\t// in\n    tag_724:\n        /* \"#utility.yul\":34881:34883   */\n      0x20\n        /* \"#utility.yul\":34876:34879   */\n      dup3\n        /* \"#utility.yul\":34872:34884   */\n      add\n        /* \"#utility.yul\":34865:34884   */\n      swap1\n      pop\n        /* \"#utility.yul\":34524:34890   */\n      swap2\n      swap1\n      pop\n      jump\t// out\n        /* \"#utility.yul\":34896:35315   */\n    tag_338:\n        /* \"#utility.yul\":35062:35066   */\n      0x00\n        /* \"#utility.yul\":35100:35102   */\n      0x20\n        /* \"#utility.yul\":35089:35098   */\n      dup3\n        /* \"#utility.yul\":35085:35103   */\n      add\n        /* \"#utility.yul\":35077:35103   */\n      swap1\n      pop\n        /* \"#utility.yul\":35149:35158   */\n      dup2\n        /* \"#utility.yul\":35143:35147   */\n      dup2\n        /* \"#utility.yul\":35139:35159   */\n      sub\n        /* \"#utility.yul\":35135:35136   */\n      0x00\n        /* \"#utility.yul\":35124:35133   */\n      dup4\n        /* \"#utility.yul\":35120:35137   */\n      add\n        /* \"#utility.yul\":35113:35160   */\n      mstore\n        /* \"#utility.yul\":35177:35308   */\n      tag_726\n        /* \"#utility.yul\":35303:35307   */\n      dup2\n        /* \"#utility.yul\":35177:35308   */\n      tag_444\n      jump\t// in\n    tag_726:\n        /* \"#utility.yul\":35169:35308   */\n      swap1\n      pop\n        /* \"#utility.yul\":34896:35315   */\n      swap2\n      swap1\n      pop\n      jump\t// out\n        /* \"#utility.yul\":35321:35501   */\n    tag_445:\n        /* \"#utility.yul\":35369:35446   */\n      0x4e487b7100000000000000000000000000000000000000000000000000000000\n        /* \"#utility.yul\":35366:35367   */\n      0x00\n        /* \"#utility.yul\":35359:35447   */\n      mstore\n        /* \"#utility.yul\":35466:35470   */\n      0x11\n        /* \"#utility.yul\":35463:35464   */\n      0x04\n        /* \"#utility.yul\":35456:35471   */\n      mstore\n        /* \"#utility.yul\":35490:35494   */\n      0x24\n        /* \"#utility.yul\":35487:35488   */\n      0x00\n        /* \"#utility.yul\":35480:35495   */\n      revert\n        /* \"#utility.yul\":35507:35698   */\n    tag_341:\n        /* \"#utility.yul\":35547:35550   */\n      0x00\n        /* \"#utility.yul\":35566:35586   */\n      tag_729\n        /* \"#utility.yul\":35584:35585   */\n      dup3\n        /* \"#utility.yul\":35566:35586   */\n      tag_388\n      jump\t// in\n    tag_729:\n        /* \"#utility.yul\":35561:35586   */\n      swap2\n      pop\n        /* \"#utility.yul\":35600:35620   */\n      tag_730\n        /* \"#utility.yul\":35618:35619   */\n      dup4\n        /* \"#utility.yul\":35600:35620   */\n      tag_388\n      jump\t// in\n    tag_730:\n        /* \"#utility.yul\":35595:35620   */\n      swap3\n      pop\n        /* \"#utility.yul\":35643:35644   */\n      dup3\n        /* \"#utility.yul\":35640:35641   */\n      dup3\n        /* \"#utility.yul\":35636:35645   */\n      add\n        /* \"#utility.yul\":35629:35645   */\n      swap1\n      pop\n        /* \"#utility.yul\":35664:35667   */\n      dup1\n        /* \"#utility.yul\":35661:35662   */\n      dup3\n        /* \"#utility.yul\":35658:35668   */\n      gt\n        /* \"#utility.yul\":35655:35691   */\n      iszero\n      tag_731\n      jumpi\n        /* \"#utility.yul\":35671:35689   */\n      tag_732\n      tag_445\n      jump\t// in\n    tag_732:\n        /* \"#utility.yul\":35655:35691   */\n    tag_731:\n        /* \"#utility.yul\":35507:35698   */\n      swap3\n      swap2\n      pop\n      pop\n      jump\t// out\n        /* \"#utility.yul\":35704:36036   */\n    tag_368:\n        /* \"#utility.yul\":35825:35829   */\n      0x00\n        /* \"#utility.yul\":35863:35865   */\n      0x40\n        /* \"#utility.yul\":35852:35861   */\n      dup3\n        /* \"#utility.yul\":35848:35866   */\n      add\n        /* \"#utility.yul\":35840:35866   */\n      swap1\n      pop\n        /* \"#utility.yul\":35876:35947   */\n      tag_734\n        /* \"#utility.yul\":35944:35945   */\n      0x00\n        /* \"#utility.yul\":35933:35942   */\n      dup4\n        /* \"#utility.yul\":35929:35946   */\n      add\n        /* \"#utility.yul\":35920:35926   */\n      dup6\n        /* \"#utility.yul\":35876:35947   */\n      tag_418\n      jump\t// in\n    tag_734:\n        /* \"#utility.yul\":35957:36029   */\n      tag_735\n        /* \"#utility.yul\":36025:36027   */\n      0x20\n        /* \"#utility.yul\":36014:36023   */\n      dup4\n        /* \"#utility.yul\":36010:36028   */\n      add\n        /* \"#utility.yul\":36001:36007   */\n      dup5\n        /* \"#utility.yul\":35957:36029   */\n      tag_406\n      jump\t// in\n    tag_735:\n        /* \"#utility.yul\":35704:36036   */\n      swap4\n      swap3\n      pop\n      pop\n      pop\n      jump\t// out\n        /* \"#utility.yul\":36042:36189   */\n    tag_446:\n        /* \"#utility.yul\":36143:36154   */\n      0x00\n        /* \"#utility.yul\":36180:36183   */\n      dup2\n        /* \"#utility.yul\":36165:36183   */\n      swap1\n      pop\n        /* \"#utility.yul\":36042:36189   */\n      swap3\n      swap2\n      pop\n      pop\n      jump\t// out\n        /* \"#utility.yul\":36195:36309   */\n    tag_447:\n      pop\n      jump\t// out\n        /* \"#utility.yul\":36315:36713   */\n    tag_448:\n        /* \"#utility.yul\":36474:36477   */\n      0x00\n        /* \"#utility.yul\":36495:36578   */\n      tag_739\n        /* \"#utility.yul\":36576:36577   */\n      0x00\n        /* \"#utility.yul\":36571:36574   */\n      dup4\n        /* \"#utility.yul\":36495:36578   */\n      tag_446\n      jump\t// in\n    tag_739:\n        /* \"#utility.yul\":36488:36578   */\n      swap2\n      pop\n        /* \"#utility.yul\":36587:36680   */\n      tag_740\n        /* \"#utility.yul\":36676:36679   */\n      dup3\n        /* \"#utility.yul\":36587:36680   */\n      tag_447\n      jump\t// in\n    tag_740:\n        /* \"#utility.yul\":36705:36706   */\n      0x00\n        /* \"#utility.yul\":36700:36703   */\n      dup3\n        /* \"#utility.yul\":36696:36707   */\n      add\n        /* \"#utility.yul\":36689:36707   */\n      swap1\n      pop\n        /* \"#utility.yul\":36315:36713   */\n      swap2\n      swap1\n      pop\n      jump\t// out\n        /* \"#utility.yul\":36719:37098   */\n    tag_374:\n        /* \"#utility.yul\":36903:36906   */\n      0x00\n        /* \"#utility.yul\":36925:37072   */\n      tag_742\n        /* \"#utility.yul\":37068:37071   */\n      dup3\n        /* \"#utility.yul\":36925:37072   */\n      tag_448\n      jump\t// in\n    tag_742:\n        /* \"#utility.yul\":36918:37072   */\n      swap2\n      pop\n        /* \"#utility.yul\":37089:37092   */\n      dup2\n        /* \"#utility.yul\":37082:37092   */\n      swap1\n      pop\n        /* \"#utility.yul\":36719:37098   */\n      swap2\n      swap1\n      pop\n      jump\t// out\n        /* \"#utility.yul\":37104:37267   */\n    tag_449:\n        /* \"#utility.yul\":37244:37259   */\n      0x726566756e64206661696c656400000000000000000000000000000000000000\n        /* \"#utility.yul\":37240:37241   */\n      0x00\n        /* \"#utility.yul\":37232:37238   */\n      dup3\n        /* \"#utility.yul\":37228:37242   */\n      add\n        /* \"#utility.yul\":37221:37260   */\n      mstore\n        /* \"#utility.yul\":37104:37267   */\n      pop\n      jump\t// out\n        /* \"#utility.yul\":37273:37639   */\n    tag_450:\n        /* \"#utility.yul\":37415:37418   */\n      0x00\n        /* \"#utility.yul\":37436:37503   */\n      tag_745\n        /* \"#utility.yul\":37500:37502   */\n      0x0d\n        /* \"#utility.yul\":37495:37498   */\n      dup4\n        /* \"#utility.yul\":37436:37503   */\n      tag_409\n      jump\t// in\n    tag_745:\n        /* \"#utility.yul\":37429:37503   */\n      swap2\n      pop\n        /* \"#utility.yul\":37512:37605   */\n      tag_746\n        /* \"#utility.yul\":37601:37604   */\n      dup3\n        /* \"#utility.yul\":37512:37605   */\n      tag_449\n      jump\t// in\n    tag_746:\n        /* \"#utility.yul\":37630:37632   */\n      0x20\n        /* \"#utility.yul\":37625:37628   */\n      dup3\n        /* \"#utility.yul\":37621:37633   */\n      add\n        /* \"#utility.yul\":37614:37633   */\n      swap1\n      pop\n        /* \"#utility.yul\":37273:37639   */\n      swap2\n      swap1\n      pop\n      jump\t// out\n        /* \"#utility.yul\":37645:38064   */\n    tag_380:\n        /* \"#utility.yul\":37811:37815   */\n      0x00\n        /* \"#utility.yul\":37849:37851   */\n      0x20\n        /* \"#utility.yul\":37838:37847   */\n      dup3\n        /* \"#utility.yul\":37834:37852   */\n      add\n        /* \"#utility.yul\":37826:37852   */\n      swap1\n      pop\n        /* \"#utility.yul\":37898:37907   */\n      dup2\n        /* \"#utility.yul\":37892:37896   */\n      dup2\n        /* \"#utility.yul\":37888:37908   */\n      sub\n        /* \"#utility.yul\":37884:37885   */\n      0x00\n        /* \"#utility.yul\":37873:37882   */\n      dup4\n        /* \"#utility.yul\":37869:37886   */\n      add\n        /* \"#utility.yul\":37862:37909   */\n      mstore\n        /* \"#utility.yul\":37926:38057   */\n      tag_748\n        /* \"#utility.yul\":38052:38056   */\n      dup2\n        /* \"#utility.yul\":37926:38057   */\n      tag_450\n      jump\t// in\n    tag_748:\n        /* \"#utility.yul\":37918:38057   */\n      swap1\n      pop\n        /* \"#utility.yul\":37645:38064   */\n      swap2\n      swap1\n      pop\n      jump\t// out\n\n    auxdata: 0xa2646970667358221220fb423b9a1177d75792e9e1052eab518e4590ada93ce1c381b5b29bc231f4735c64736f6c63430008110033\n}\n",
				"bytecode": {
					"linkReferences": {},
					"object": "608060405234801561001057600080fd5b506150f7806100206000396000f3fe6080604052600436106101025760003560e01c806369a6d12e116100955780638c3417da116100645780638c3417da146103325780639f085a001461036f578063baf4371e1461039a578063cf42b7e6146103b6578063d3a6a6c9146103df57610109565b806369a6d12e146102665780636f8c9b1b1461028f5780636fe02f24146102cc578063842bc46a1461030957610109565b80634676adca116100d15780634676adca146101ae5780634cb8ef5b146101d75780635138b08c146102005780636916462f1461022957610109565b8063150b7a021461010e5780631bdae6f11461014b5780631e7a044f146101675780633a713db81461019257610109565b3661010957005b600080fd5b34801561011a57600080fd5b50610135600480360381019061013091906140a5565b610408565b6040516101429190614168565b60405180910390f35b61016560048036038101906101609190614183565b61041d565b005b34801561017357600080fd5b5061017c610a53565b60405161018991906142d2565b60405180910390f35b6101ac60048036038101906101a79190614183565b610b12565b005b3480156101ba57600080fd5b506101d560048036038101906101d09190614183565b6112aa565b005b3480156101e357600080fd5b506101fe60048036038101906101f991906142f4565b611501565b005b34801561020c57600080fd5b50610227600480360381019061022291906142f4565b61181d565b005b34801561023557600080fd5b50610250600480360381019061024b91906142f4565b611c64565b60405161025d9190614343565b60405180910390f35b34801561027257600080fd5b5061028d6004803603810190610288919061435e565b611c89565b005b34801561029b57600080fd5b506102b660048036038101906102b191906142f4565b6122b3565b6040516102c39190614453565b60405180910390f35b3480156102d857600080fd5b506102f360048036038101906102ee919061446e565b612448565b6040516103009190614343565b60405180910390f35b34801561031557600080fd5b50610330600480360381019061032b91906142f4565b61247a565b005b34801561033e57600080fd5b50610359600480360381019061035491906142f4565b61291c565b6040516103669190614516565b60405180910390f35b34801561037b57600080fd5b50610384612a92565b60405161039191906142d2565b60405180910390f35b6103b460048036038101906103af9190614183565b612b51565b005b3480156103c257600080fd5b506103dd60048036038101906103d89190614531565b613045565b005b3480156103eb57600080fd5b50610406600480360381019061040191906142f4565b613427565b005b600063150b7a0260e01b905095945050505050565b828260028060008473ffffffffffffffffffffffffffffffffffffffff1673ffffffffffffffffffffffffffffffffffffffff168152602001908152602001600020600083815260200190815260200160002054146104b1576040517f08c379a00000000000000000000000000000000000000000000000000000000081526004016104a89061461b565b60405180910390fd5b8484600160008373ffffffffffffffffffffffffffffffffffffffff1673ffffffffffffffffffffffffffffffffffffffff1681526020019081526020016000206000828152602001908152602001600020600101544210610548576040517f08c379a000000000000000000000000000000000000000000000000000000000815260040161053f90614687565b60405180910390fd5b846000811161058c576040517f08c379a0000000000000000000000000000000000000000000000000000000008152600401610583906146f3565b60405180910390fd5b87873488600073ffffffffffffffffffffffffffffffffffffffff16600160008673ffffffffffffffffffffffffffffffffffffffff1673ffffffffffffffffffffffffffffffffffffffff168152602001908152602001600020600085815260200190815260200160002060060160009054906101000a900473ffffffffffffffffffffffffffffffffffffffff1673ffffffffffffffffffffffffffffffffffffffff16036106d157600160008573ffffffffffffffffffffffffffffffffffffffff1673ffffffffffffffffffffffffffffffffffffffff16815260200190815260200160002060008481526020019081526020016000206003015482116106cc576040517f08c379a00000000000000000000000000000000000000000000000000000000081526004016106c39061475f565b60405180910390fd5b610767565b600160008573ffffffffffffffffffffffffffffffffffffffff1673ffffffffffffffffffffffffffffffffffffffff1681526020019081526020016000206000848152602001908152602001600020600301548111610766576040517f08c379a000000000000000000000000000000000000000000000000000000000815260040161075d9061475f565b60405180910390fd5b5b600073ffffffffffffffffffffffffffffffffffffffff16600160008e73ffffffffffffffffffffffffffffffffffffffff1673ffffffffffffffffffffffffffffffffffffffff16815260200190815260200160002060008d815260200190815260200160002060060160009054906101000a900473ffffffffffffffffffffffffffffffffffffffff1673ffffffffffffffffffffffffffffffffffffffff161461088c5761088b8a600160008f73ffffffffffffffffffffffffffffffffffffffff1673ffffffffffffffffffffffffffffffffffffffff16815260200190815260200160002060008e815260200190815260200160002060060160009054906101000a900473ffffffffffffffffffffffffffffffffffffffff1661374a565b5b89600160008e73ffffffffffffffffffffffffffffffffffffffff1673ffffffffffffffffffffffffffffffffffffffff16815260200190815260200160002060008d81526020019081526020016000206003018190555033600160008e73ffffffffffffffffffffffffffffffffffffffff1673ffffffffffffffffffffffffffffffffffffffff16815260200190815260200160002060008d815260200190815260200160002060040160006101000a81548173ffffffffffffffffffffffffffffffffffffffff021916908373ffffffffffffffffffffffffffffffffffffffff16021790555089600360008e73ffffffffffffffffffffffffffffffffffffffff1673ffffffffffffffffffffffffffffffffffffffff16815260200190815260200160002060008d815260200190815260200160002060003373ffffffffffffffffffffffffffffffffffffffff1673ffffffffffffffffffffffffffffffffffffffff168152602001908152602001600020819055507fd56cb6210c78740462007b728932c802bc41b205ed5c8a98ab95421eaf054b228c8c8c33604051610a3d949392919061478e565b60405180910390a1505050505050505050505050565b60606007805480602002602001604051908101604052809291908181526020016000905b82821015610b0957838290600052602060002090600202016040518060400160405290816000820160009054906101000a900473ffffffffffffffffffffffffffffffffffffffff1673ffffffffffffffffffffffffffffffffffffffff1673ffffffffffffffffffffffffffffffffffffffff16815260200160018201548152505081526020019060010190610a77565b50505050905090565b828260028060008473ffffffffffffffffffffffffffffffffffffffff1673ffffffffffffffffffffffffffffffffffffffff16815260200190815260200160002060008381526020019081526020016000205414610ba6576040517f08c379a0000000000000000000000000000000000000000000000000000000008152600401610b9d9061461b565b60405180910390fd5b8484600160008373ffffffffffffffffffffffffffffffffffffffff1673ffffffffffffffffffffffffffffffffffffffff1681526020019081526020016000206000828152602001908152602001600020600101544210610c3d576040517f08c379a0000000000000000000000000000000000000000000000000000000008152600401610c3490614687565b60405180910390fd5b3460008111610c81576040517f08c379a0000000000000000000000000000000000000000000000000000000008152600401610c78906146f3565b60405180910390fd5b8787348860008073ffffffffffffffffffffffffffffffffffffffff16600160008773ffffffffffffffffffffffffffffffffffffffff1673ffffffffffffffffffffffffffffffffffffffff168152602001908152602001600020600086815260200190815260200160002060060160009054906101000a900473ffffffffffffffffffffffffffffffffffffffff1673ffffffffffffffffffffffffffffffffffffffff1603610dd457610dcd83600360008873ffffffffffffffffffffffffffffffffffffffff1673ffffffffffffffffffffffffffffffffffffffff168152602001908152602001600020600087815260200190815260200160002060003373ffffffffffffffffffffffffffffffffffffffff1673ffffffffffffffffffffffffffffffffffffffff1681526020019081526020016000205461380d90919063ffffffff16565b9050610e77565b610e7482600360008873ffffffffffffffffffffffffffffffffffffffff1673ffffffffffffffffffffffffffffffffffffffff168152602001908152602001600020600087815260200190815260200160002060003373ffffffffffffffffffffffffffffffffffffffff1673ffffffffffffffffffffffffffffffffffffffff1681526020019081526020016000205461380d90919063ffffffff16565b90505b600160008673ffffffffffffffffffffffffffffffffffffffff1673ffffffffffffffffffffffffffffffffffffffff1681526020019081526020016000206000858152602001908152602001600020600301548111610f0c576040517f08c379a0000000000000000000000000000000000000000000000000000000008152600401610f039061475f565b60405180910390fd5b60008d905060008d90506000610fb88e600360008673ffffffffffffffffffffffffffffffffffffffff1673ffffffffffffffffffffffffffffffffffffffff168152602001908152602001600020600085815260200190815260200160002060003373ffffffffffffffffffffffffffffffffffffffff1673ffffffffffffffffffffffffffffffffffffffff1681526020019081526020016000205461380d90919063ffffffff16565b9050600073ffffffffffffffffffffffffffffffffffffffff16600160008573ffffffffffffffffffffffffffffffffffffffff1673ffffffffffffffffffffffffffffffffffffffff168152602001908152602001600020600084815260200190815260200160002060060160009054906101000a900473ffffffffffffffffffffffffffffffffffffffff1673ffffffffffffffffffffffffffffffffffffffff16146110df576110de8e600160008673ffffffffffffffffffffffffffffffffffffffff1673ffffffffffffffffffffffffffffffffffffffff168152602001908152602001600020600085815260200190815260200160002060060160009054906101000a900473ffffffffffffffffffffffffffffffffffffffff1661374a565b5b80600160008573ffffffffffffffffffffffffffffffffffffffff1673ffffffffffffffffffffffffffffffffffffffff16815260200190815260200160002060008481526020019081526020016000206003018190555033600160008573ffffffffffffffffffffffffffffffffffffffff1673ffffffffffffffffffffffffffffffffffffffff168152602001908152602001600020600084815260200190815260200160002060040160006101000a81548173ffffffffffffffffffffffffffffffffffffffff021916908373ffffffffffffffffffffffffffffffffffffffff16021790555080600360008573ffffffffffffffffffffffffffffffffffffffff1673ffffffffffffffffffffffffffffffffffffffff168152602001908152602001600020600084815260200190815260200160002060003373ffffffffffffffffffffffffffffffffffffffff1673ffffffffffffffffffffffffffffffffffffffff168152602001908152602001600020819055507f907cdadc7c1a8abcdd80cdd85eb18377631e4f413fb6397a8252ff7b358ac6cb83838333604051611290949392919061478e565b60405180910390a150505050505050505050505050505050565b82826001600260008473ffffffffffffffffffffffffffffffffffffffff1673ffffffffffffffffffffffffffffffffffffffff1681526020019081526020016000206000838152602001908152602001600020541461133f576040517f08c379a00000000000000000000000000000000000000000000000000000000081526004016113369061481f565b60405180910390fd5b84846000808373ffffffffffffffffffffffffffffffffffffffff1673ffffffffffffffffffffffffffffffffffffffff168152602001908152602001600020600082815260200190815260200160002060000160009054906101000a900473ffffffffffffffffffffffffffffffffffffffff1673ffffffffffffffffffffffffffffffffffffffff163373ffffffffffffffffffffffffffffffffffffffff1614611421576040517f08c379a00000000000000000000000000000000000000000000000000000000081526004016114189061488b565b60405180910390fd5b8460008111611465576040517f08c379a000000000000000000000000000000000000000000000000000000000815260040161145c906146f3565b60405180910390fd5b856000808a73ffffffffffffffffffffffffffffffffffffffff1673ffffffffffffffffffffffffffffffffffffffff1681526020019081526020016000206000898152602001908152602001600020600301819055507f575a0876095ccf47276a37dce683308a625403d132d219f95205ce205b2e12bc8888886040516114ef939291906148ab565b60405180910390a15050505050505050565b8181600160008373ffffffffffffffffffffffffffffffffffffffff1673ffffffffffffffffffffffffffffffffffffffff1681526020019081526020016000206000828152602001908152602001600020600101544211611598576040517f08c379a000000000000000000000000000000000000000000000000000000000815260040161158f9061492e565b60405180910390fd5b600160008573ffffffffffffffffffffffffffffffffffffffff1673ffffffffffffffffffffffffffffffffffffffff168152602001908152602001600020600084815260200190815260200160002060040160009054906101000a900473ffffffffffffffffffffffffffffffffffffffff1673ffffffffffffffffffffffffffffffffffffffff163373ffffffffffffffffffffffffffffffffffffffff1603611679576040517f08c379a00000000000000000000000000000000000000000000000000000000081526004016116709061499a565b60405180910390fd5b6000600360008673ffffffffffffffffffffffffffffffffffffffff1673ffffffffffffffffffffffffffffffffffffffff168152602001908152602001600020600085815260200190815260200160002060003373ffffffffffffffffffffffffffffffffffffffff1673ffffffffffffffffffffffffffffffffffffffff1681526020019081526020016000205411611749576040517f08c379a000000000000000000000000000000000000000000000000000000000815260040161174090614a06565b60405180910390fd5b6000600360008673ffffffffffffffffffffffffffffffffffffffff1673ffffffffffffffffffffffffffffffffffffffff168152602001908152602001600020600085815260200190815260200160002060003373ffffffffffffffffffffffffffffffffffffffff1673ffffffffffffffffffffffffffffffffffffffff168152602001908152602001600020819055507fde8cb9aa2c755cf75d5fbc4fec824b10e311652306f1fca5c8e57a04758b0aa784843360405161180f93929190614a26565b60405180910390a150505050565b818160028060008473ffffffffffffffffffffffffffffffffffffffff1673ffffffffffffffffffffffffffffffffffffffff168152602001908152602001600020600083815260200190815260200160002054146118b1576040517f08c379a00000000000000000000000000000000000000000000000000000000081526004016118a89061461b565b60405180910390fd5b8383600160008373ffffffffffffffffffffffffffffffffffffffff1673ffffffffffffffffffffffffffffffffffffffff1681526020019081526020016000206000828152602001908152602001600020600101544211611948576040517f08c379a000000000000000000000000000000000000000000000000000000000815260040161193f9061492e565b60405180910390fd5b6000600160008873ffffffffffffffffffffffffffffffffffffffff1673ffffffffffffffffffffffffffffffffffffffff168152602001908152602001600020600087815260200190815260200160002060040160009054906101000a900473ffffffffffffffffffffffffffffffffffffffff169050611a1f8787600160008b73ffffffffffffffffffffffffffffffffffffffff1673ffffffffffffffffffffffffffffffffffffffff16815260200190815260200160002060008a81526020019081526020016000206003015484613823565b6000600360008973ffffffffffffffffffffffffffffffffffffffff1673ffffffffffffffffffffffffffffffffffffffff168152602001908152602001600020600088815260200190815260200160002060008373ffffffffffffffffffffffffffffffffffffffff1673ffffffffffffffffffffffffffffffffffffffff168152602001908152602001600020819055506007600560008973ffffffffffffffffffffffffffffffffffffffff1673ffffffffffffffffffffffffffffffffffffffff16815260200190815260200160002060008881526020019081526020016000205481548110611b1657611b15614a5d565b5b9060005260206000209060020201600080820160006101000a81549073ffffffffffffffffffffffffffffffffffffffff0219169055600182016000905550507fb31cb4f6609b11a57d1b6b14cc3f81f4b3e609f709a5b1e46892a45f9cc29ed8878783600160008c73ffffffffffffffffffffffffffffffffffffffff1673ffffffffffffffffffffffffffffffffffffffff16815260200190815260200160002060008b815260200190815260200160002060030154600160008d73ffffffffffffffffffffffffffffffffffffffff1673ffffffffffffffffffffffffffffffffffffffff16815260200190815260200160002060008c815260200190815260200160002060050160009054906101000a900473ffffffffffffffffffffffffffffffffffffffff16604051611c53959493929190614a8c565b60405180910390a150505050505050565b6002602052816000526040600020602052806000526040600020600091509150505481565b83828173ffffffffffffffffffffffffffffffffffffffff16636352211e826040518263ffffffff1660e01b8152600401611cc49190614343565b602060405180830381865afa158015611ce1573d6000803e3d6000fd5b505050506040513d601f19601f82011682018060405250810190611d059190614af4565b73ffffffffffffffffffffffffffffffffffffffff163373ffffffffffffffffffffffffffffffffffffffff1614611d72576040517f08c379a0000000000000000000000000000000000000000000000000000000008152600401611d699061488b565b60405180910390fd5b85846000600260008473ffffffffffffffffffffffffffffffffffffffff1673ffffffffffffffffffffffffffffffffffffffff16815260200190815260200160002060008381526020019081526020016000205414611e07576040517f08c379a0000000000000000000000000000000000000000000000000000000008152600401611dfe90614b6d565b60405180910390fd5b87868173ffffffffffffffffffffffffffffffffffffffff1663e985e9c533306040518363ffffffff1660e01b8152600401611e44929190614b8d565b602060405180830381865afa158015611e61573d6000803e3d6000fd5b505050506040513d601f19601f82011682018060405250810190611e859190614bee565b611ec4576040517f08c379a0000000000000000000000000000000000000000000000000000000008152600401611ebb90614c67565b60405180910390fd5b8660008111611f08576040517f08c379a0000000000000000000000000000000000000000000000000000000008152600401611eff906146f3565b60405180910390fd5b60405180608001604052803373ffffffffffffffffffffffffffffffffffffffff168152602001600073ffffffffffffffffffffffffffffffffffffffff1681526020018b73ffffffffffffffffffffffffffffffffffffffff168152602001898152506000808d73ffffffffffffffffffffffffffffffffffffffff1673ffffffffffffffffffffffffffffffffffffffff16815260200190815260200160002060008b815260200190815260200160002060008201518160000160006101000a81548173ffffffffffffffffffffffffffffffffffffffff021916908373ffffffffffffffffffffffffffffffffffffffff16021790555060208201518160010160006101000a81548173ffffffffffffffffffffffffffffffffffffffff021916908373ffffffffffffffffffffffffffffffffffffffff16021790555060408201518160020160006101000a81548173ffffffffffffffffffffffffffffffffffffffff021916908373ffffffffffffffffffffffffffffffffffffffff160217905550606082015181600301559050506001600260008d73ffffffffffffffffffffffffffffffffffffffff1673ffffffffffffffffffffffffffffffffffffffff16815260200190815260200160002060008b815260200190815260200160002081905550600680549050600460008d73ffffffffffffffffffffffffffffffffffffffff1673ffffffffffffffffffffffffffffffffffffffff16815260200190815260200160002060008b815260200190815260200160002081905550600660405180604001604052808d73ffffffffffffffffffffffffffffffffffffffff1681526020018b815250908060018154018082558091505060019003906000526020600020906002020160009091909190915060008201518160000160006101000a81548173ffffffffffffffffffffffffffffffffffffffff021916908373ffffffffffffffffffffffffffffffffffffffff1602179055506020820151816001015550508a73ffffffffffffffffffffffffffffffffffffffff166342842e0e33308c6040518463ffffffff1660e01b815260040161223393929190614c87565b600060405180830381600087803b15801561224d57600080fd5b505af1158015612261573d6000803e3d6000fd5b505050507f078eead3cd01ed921c7653d000a6b73aea643a7b9c066fb7d93eb2eae8acc2d98b338c8c8c4260405161229e96959493929190614cbe565b60405180910390a15050505050505050505050565b6122bb613eb9565b600160008473ffffffffffffffffffffffffffffffffffffffff1673ffffffffffffffffffffffffffffffffffffffff16815260200190815260200160002060008381526020019081526020016000206040518060e0016040529081600082015481526020016001820154815260200160028201548152602001600382015481526020016004820160009054906101000a900473ffffffffffffffffffffffffffffffffffffffff1673ffffffffffffffffffffffffffffffffffffffff1673ffffffffffffffffffffffffffffffffffffffff1681526020016005820160009054906101000a900473ffffffffffffffffffffffffffffffffffffffff1673ffffffffffffffffffffffffffffffffffffffff1673ffffffffffffffffffffffffffffffffffffffff1681526020016006820160009054906101000a900473ffffffffffffffffffffffffffffffffffffffff1673ffffffffffffffffffffffffffffffffffffffff1673ffffffffffffffffffffffffffffffffffffffff1681525050905092915050565b600360205282600052604060002060205281600052604060002060205280600052604060002060009250925050505481565b818160028060008473ffffffffffffffffffffffffffffffffffffffff1673ffffffffffffffffffffffffffffffffffffffff1681526020019081526020016000206000838152602001908152602001600020541461250e576040517f08c379a00000000000000000000000000000000000000000000000000000000081526004016125059061461b565b60405180910390fd5b8383600160008373ffffffffffffffffffffffffffffffffffffffff1673ffffffffffffffffffffffffffffffffffffffff168152602001908152602001600020600082815260200190815260200160002060050160009054906101000a900473ffffffffffffffffffffffffffffffffffffffff1673ffffffffffffffffffffffffffffffffffffffff163373ffffffffffffffffffffffffffffffffffffffff16146125f1576040517f08c379a00000000000000000000000000000000000000000000000000000000081526004016125e890614d6b565b60405180910390fd5b8585600160008373ffffffffffffffffffffffffffffffffffffffff1673ffffffffffffffffffffffffffffffffffffffff1681526020019081526020016000206000828152602001908152602001600020600101544210612688576040517f08c379a000000000000000000000000000000000000000000000000000000000815260040161267f90614687565b60405180910390fd5b8787600160008373ffffffffffffffffffffffffffffffffffffffff1673ffffffffffffffffffffffffffffffffffffffff168152602001908152602001600020600082815260200190815260200160002060040160009054906101000a900473ffffffffffffffffffffffffffffffffffffffff1673ffffffffffffffffffffffffffffffffffffffff16600073ffffffffffffffffffffffffffffffffffffffff161461276c576040517f08c379a000000000000000000000000000000000000000000000000000000000815260040161276390614dd7565b60405180910390fd5b6000600260008c73ffffffffffffffffffffffffffffffffffffffff1673ffffffffffffffffffffffffffffffffffffffff16815260200190815260200160002060008b8152602001908152602001600020819055508973ffffffffffffffffffffffffffffffffffffffff166342842e0e30338c6040518463ffffffff1660e01b81526004016127ff93929190614c87565b600060405180830381600087803b15801561281957600080fd5b505af115801561282d573d6000803e3d6000fd5b505050506007600560008c73ffffffffffffffffffffffffffffffffffffffff1673ffffffffffffffffffffffffffffffffffffffff16815260200190815260200160002060008b8152602001908152602001600020548154811061289557612894614a5d565b5b9060005260206000209060020201600080820160006101000a81549073ffffffffffffffffffffffffffffffffffffffff0219169055600182016000905550507fb9d411977d4ee731f87bb8f16eb6f8c1fb579cff684642052bf6084e6e33238d8a8a3360405161290893929190614a26565b60405180910390a150505050505050505050565b612924613f38565b6000808473ffffffffffffffffffffffffffffffffffffffff1673ffffffffffffffffffffffffffffffffffffffff16815260200190815260200160002060008381526020019081526020016000206040518060800160405290816000820160009054906101000a900473ffffffffffffffffffffffffffffffffffffffff1673ffffffffffffffffffffffffffffffffffffffff1673ffffffffffffffffffffffffffffffffffffffff1681526020016001820160009054906101000a900473ffffffffffffffffffffffffffffffffffffffff1673ffffffffffffffffffffffffffffffffffffffff1673ffffffffffffffffffffffffffffffffffffffff1681526020016002820160009054906101000a900473ffffffffffffffffffffffffffffffffffffffff1673ffffffffffffffffffffffffffffffffffffffff1673ffffffffffffffffffffffffffffffffffffffff168152602001600382015481525050905092915050565b60606006805480602002602001604051908101604052809291908181526020016000905b82821015612b4857838290600052602060002090600202016040518060400160405290816000820160009054906101000a900473ffffffffffffffffffffffffffffffffffffffff1673ffffffffffffffffffffffffffffffffffffffff1673ffffffffffffffffffffffffffffffffffffffff16815260200160018201548152505081526020019060010190612ab6565b50505050905090565b82826001600260008473ffffffffffffffffffffffffffffffffffffffff1673ffffffffffffffffffffffffffffffffffffffff16815260200190815260200160002060008381526020019081526020016000205414612be6576040517f08c379a0000000000000000000000000000000000000000000000000000000008152600401612bdd9061481f565b60405180910390fd5b8260008111612c2a576040517f08c379a0000000000000000000000000000000000000000000000000000000008152600401612c21906146f3565b60405180910390fd5b8585856000808473ffffffffffffffffffffffffffffffffffffffff1673ffffffffffffffffffffffffffffffffffffffff168152602001908152602001600020600083815260200190815260200160002060030154811015612cc2576040517f08c379a0000000000000000000000000000000000000000000000000000000008152600401612cb990614e43565b60405180910390fd5b8873ffffffffffffffffffffffffffffffffffffffff166342842e0e30338b6040518463ffffffff1660e01b8152600401612cff93929190614c87565b600060405180830381600087803b158015612d1957600080fd5b505af1158015612d2d573d6000803e3d6000fd5b505050506000600260008b73ffffffffffffffffffffffffffffffffffffffff1673ffffffffffffffffffffffffffffffffffffffff16815260200190815260200160002060008a8152602001908152602001600020819055506006600460008b73ffffffffffffffffffffffffffffffffffffffff1673ffffffffffffffffffffffffffffffffffffffff16815260200190815260200160002060008a81526020019081526020016000205481548110612deb57612dea614a5d565b5b9060005260206000209060020201600080820160006101000a81549073ffffffffffffffffffffffffffffffffffffffff021916905560018201600090555050336000808b73ffffffffffffffffffffffffffffffffffffffff1673ffffffffffffffffffffffffffffffffffffffff16815260200190815260200160002060008a815260200190815260200160002060010160006101000a81548173ffffffffffffffffffffffffffffffffffffffff021916908373ffffffffffffffffffffffffffffffffffffffff160217905550612ffd6000808b73ffffffffffffffffffffffffffffffffffffffff1673ffffffffffffffffffffffffffffffffffffffff16815260200190815260200160002060008a815260200190815260200160002060000160009054906101000a900473ffffffffffffffffffffffffffffffffffffffff166000808c73ffffffffffffffffffffffffffffffffffffffff1673ffffffffffffffffffffffffffffffffffffffff16815260200190815260200160002060008b815260200190815260200160002060020160009054906101000a900473ffffffffffffffffffffffffffffffffffffffff166000808d73ffffffffffffffffffffffffffffffffffffffff1673ffffffffffffffffffffffffffffffffffffffff16815260200190815260200160002060008c8152602001908152602001600020600301546139df565b7f9fa3b1bb9266e05722b54a7a564d02a274bc80d39f4af21e6be405480996ceba89338a8a6040516130329493929190614e63565b60405180910390a1505050505050505050565b85848173ffffffffffffffffffffffffffffffffffffffff16636352211e826040518263ffffffff1660e01b81526004016130809190614343565b602060405180830381865afa15801561309d573d6000803e3d6000fd5b505050506040513d601f19601f820116820180604052508101906130c19190614af4565b73ffffffffffffffffffffffffffffffffffffffff163373ffffffffffffffffffffffffffffffffffffffff161461312e576040517f08c379a00000000000000000000000000000000000000000000000000000000081526004016131259061488b565b60405180910390fd5b87866000600260008473ffffffffffffffffffffffffffffffffffffffff1673ffffffffffffffffffffffffffffffffffffffff168152602001908152602001600020600083815260200190815260200160002054146131c3576040517f08c379a00000000000000000000000000000000000000000000000000000000081526004016131ba90614b6d565b60405180910390fd5b89888173ffffffffffffffffffffffffffffffffffffffff1663e985e9c533306040518363ffffffff1660e01b8152600401613200929190614b8d565b602060405180830381865afa15801561321d573d6000803e3d6000fd5b505050506040513d601f19601f820116820180604052508101906132419190614bee565b613280576040517f08c379a000000000000000000000000000000000000000000000000000000000815260040161327790614c67565b60405180910390fd5b86600081116132c4576040517f08c379a00000000000000000000000000000000000000000000000000000000081526004016132bb906146f3565b60405180910390fd5b6132d28d8d8d8d8d8d613a33565b600780549050600560008f73ffffffffffffffffffffffffffffffffffffffff1673ffffffffffffffffffffffffffffffffffffffff16815260200190815260200160002060008d815260200190815260200160002081905550600760405180604001604052808f73ffffffffffffffffffffffffffffffffffffffff1681526020018d815250908060018154018082558091505060019003906000526020600020906002020160009091909190915060008201518160000160006101000a81548173ffffffffffffffffffffffffffffffffffffffff021916908373ffffffffffffffffffffffffffffffffffffffff1602179055506020820151816001015550507fecbc6a097da08dbf6f781ce204aad454ce3dc8f112c51c7a56f1671de89cee8c8d338e8e8e8e8e6040516134109796959493929190614ea8565b60405180910390a150505050505050505050505050565b81816001600260008473ffffffffffffffffffffffffffffffffffffffff1673ffffffffffffffffffffffffffffffffffffffff168152602001908152602001600020600083815260200190815260200160002054146134bc576040517f08c379a00000000000000000000000000000000000000000000000000000000081526004016134b39061481f565b60405180910390fd5b83836000808373ffffffffffffffffffffffffffffffffffffffff1673ffffffffffffffffffffffffffffffffffffffff168152602001908152602001600020600082815260200190815260200160002060000160009054906101000a900473ffffffffffffffffffffffffffffffffffffffff1673ffffffffffffffffffffffffffffffffffffffff163373ffffffffffffffffffffffffffffffffffffffff161461359e576040517f08c379a00000000000000000000000000000000000000000000000000000000081526004016135959061488b565b60405180910390fd5b8573ffffffffffffffffffffffffffffffffffffffff166342842e0e3033886040518463ffffffff1660e01b81526004016135db93929190614c87565b600060405180830381600087803b1580156135f557600080fd5b505af1158015613609573d6000803e3d6000fd5b505050506000600260008873ffffffffffffffffffffffffffffffffffffffff1673ffffffffffffffffffffffffffffffffffffffff1681526020019081526020016000206000878152602001908152602001600020819055506006600460008873ffffffffffffffffffffffffffffffffffffffff1673ffffffffffffffffffffffffffffffffffffffff168152602001908152602001600020600087815260200190815260200160002054815481106136c7576136c6614a5d565b5b9060005260206000209060020201600080820160006101000a81549073ffffffffffffffffffffffffffffffffffffffff0219169055600182016000905550507fd7348ff00cf381a884144b50b3441398a48a7974ec349287df80e18cec9f5a3186338760405161373a93929190614c87565b60405180910390a1505050505050565b8073ffffffffffffffffffffffffffffffffffffffff166323b872dd3330856040518463ffffffff1660e01b815260040161378793929190614c87565b6020604051808303816000875af11580156137a6573d6000803e3d6000fd5b505050506040513d601f19601f820116820180604052508101906137ca9190614bee565b613809576040517f08c379a000000000000000000000000000000000000000000000000000000000815260040161380090614f63565b60405180910390fd5b5050565b6000818361381b9190614fb2565b905092915050565b8373ffffffffffffffffffffffffffffffffffffffff166342842e0e3083866040518463ffffffff1660e01b815260040161386093929190614c87565b600060405180830381600087803b15801561387a57600080fd5b505af115801561388e573d6000803e3d6000fd5b505050506000600260008673ffffffffffffffffffffffffffffffffffffffff1673ffffffffffffffffffffffffffffffffffffffff1681526020019081526020016000206000858152602001908152602001600020819055506139d9600160008673ffffffffffffffffffffffffffffffffffffffff1673ffffffffffffffffffffffffffffffffffffffff168152602001908152602001600020600085815260200190815260200160002060050160009054906101000a900473ffffffffffffffffffffffffffffffffffffffff16600160008773ffffffffffffffffffffffffffffffffffffffff1673ffffffffffffffffffffffffffffffffffffffff168152602001908152602001600020600086815260200190815260200160002060060160009054906101000a900473ffffffffffffffffffffffffffffffffffffffff16846139df565b50505050565b600073ffffffffffffffffffffffffffffffffffffffff168273ffffffffffffffffffffffffffffffffffffffff1614613a2357613a1e838383613cc5565b613a2e565b613a2d8382613e08565b5b505050565b6040518060e00160405280848152602001838152602001828152602001828152602001600073ffffffffffffffffffffffffffffffffffffffff1681526020013373ffffffffffffffffffffffffffffffffffffffff1681526020018673ffffffffffffffffffffffffffffffffffffffff16815250600160008873ffffffffffffffffffffffffffffffffffffffff1673ffffffffffffffffffffffffffffffffffffffff16815260200190815260200160002060008681526020019081526020016000206000820151816000015560208201518160010155604082015181600201556060820151816003015560808201518160040160006101000a81548173ffffffffffffffffffffffffffffffffffffffff021916908373ffffffffffffffffffffffffffffffffffffffff16021790555060a08201518160050160006101000a81548173ffffffffffffffffffffffffffffffffffffffff021916908373ffffffffffffffffffffffffffffffffffffffff16021790555060c08201518160060160006101000a81548173ffffffffffffffffffffffffffffffffffffffff021916908373ffffffffffffffffffffffffffffffffffffffff16021790555090505060028060008873ffffffffffffffffffffffffffffffffffffffff1673ffffffffffffffffffffffffffffffffffffffff1681526020019081526020016000206000868152602001908152602001600020819055508573ffffffffffffffffffffffffffffffffffffffff166342842e0e3330876040518463ffffffff1660e01b8152600401613c8b93929190614c87565b600060405180830381600087803b158015613ca557600080fd5b505af1158015613cb9573d6000803e3d6000fd5b50505050505050505050565b8173ffffffffffffffffffffffffffffffffffffffff166323b872dd3330846040518463ffffffff1660e01b8152600401613d0293929190614c87565b6020604051808303816000875af1158015613d21573d6000803e3d6000fd5b505050506040513d601f19601f82011682018060405250810190613d459190614bee565b613d84576040517f08c379a0000000000000000000000000000000000000000000000000000000008152600401613d7b90614f63565b60405180910390fd5b8173ffffffffffffffffffffffffffffffffffffffff1663a9059cbb84836040518363ffffffff1660e01b8152600401613dbf929190614fe6565b6020604051808303816000875af1158015613dde573d6000803e3d6000fd5b505050506040513d601f19601f82011682018060405250810190613e029190614bee565b50505050565b60008273ffffffffffffffffffffffffffffffffffffffff1682604051613e2e90615040565b60006040518083038185875af1925050503d8060008114613e6b576040519150601f19603f3d011682016040523d82523d6000602084013e613e70565b606091505b5050905080613eb4576040517f08c379a0000000000000000000000000000000000000000000000000000000008152600401613eab906150a1565b60405180910390fd5b505050565b6040518060e0016040528060008152602001600081526020016000815260200160008152602001600073ffffffffffffffffffffffffffffffffffffffff168152602001600073ffffffffffffffffffffffffffffffffffffffff168152602001600073ffffffffffffffffffffffffffffffffffffffff1681525090565b6040518060800160405280600073ffffffffffffffffffffffffffffffffffffffff168152602001600073ffffffffffffffffffffffffffffffffffffffff168152602001600073ffffffffffffffffffffffffffffffffffffffff168152602001600081525090565b600080fd5b600080fd5b600073ffffffffffffffffffffffffffffffffffffffff82169050919050565b6000613fd782613fac565b9050919050565b613fe781613fcc565b8114613ff257600080fd5b50565b60008135905061400481613fde565b92915050565b6000819050919050565b61401d8161400a565b811461402857600080fd5b50565b60008135905061403a81614014565b92915050565b600080fd5b600080fd5b600080fd5b60008083601f84011261406557614064614040565b5b8235905067ffffffffffffffff81111561408257614081614045565b5b60208301915083600182028301111561409e5761409d61404a565b5b9250929050565b6000806000806000608086880312156140c1576140c0613fa2565b5b60006140cf88828901613ff5565b95505060206140e088828901613ff5565b94505060406140f18882890161402b565b935050606086013567ffffffffffffffff81111561411257614111613fa7565b5b61411e8882890161404f565b92509250509295509295909350565b60007fffffffff0000000000000000000000000000000000000000000000000000000082169050919050565b6141628161412d565b82525050565b600060208201905061417d6000830184614159565b92915050565b60008060006060848603121561419c5761419b613fa2565b5b60006141aa86828701613ff5565b93505060206141bb8682870161402b565b92505060406141cc8682870161402b565b9150509250925092565b600081519050919050565b600082825260208201905092915050565b6000819050602082019050919050565b61420b81613fcc565b82525050565b61421a8161400a565b82525050565b6040820160008201516142366000850182614202565b5060208201516142496020850182614211565b50505050565b600061425b8383614220565b60408301905092915050565b6000602082019050919050565b600061427f826141d6565b61428981856141e1565b9350614294836141f2565b8060005b838110156142c55781516142ac888261424f565b97506142b783614267565b925050600181019050614298565b5085935050505092915050565b600060208201905081810360008301526142ec8184614274565b905092915050565b6000806040838503121561430b5761430a613fa2565b5b600061431985828601613ff5565b925050602061432a8582860161402b565b9150509250929050565b61433d8161400a565b82525050565b60006020820190506143586000830184614334565b92915050565b6000806000806080858703121561437857614377613fa2565b5b600061438687828801613ff5565b945050602061439787828801613ff5565b93505060406143a88782880161402b565b92505060606143b98782880161402b565b91505092959194509250565b60e0820160008201516143db6000850182614211565b5060208201516143ee6020850182614211565b5060408201516144016040850182614211565b5060608201516144146060850182614211565b5060808201516144276080850182614202565b5060a082015161443a60a0850182614202565b5060c082015161444d60c0850182614202565b50505050565b600060e08201905061446860008301846143c5565b92915050565b60008060006060848603121561448757614486613fa2565b5b600061449586828701613ff5565b93505060206144a68682870161402b565b92505060406144b786828701613ff5565b9150509250925092565b6080820160008201516144d76000850182614202565b5060208201516144ea6020850182614202565b5060408201516144fd6040850182614202565b5060608201516145106060850182614211565b50505050565b600060808201905061452b60008301846144c1565b92915050565b60008060008060008060c0878903121561454e5761454d613fa2565b5b600061455c89828a01613ff5565b965050602061456d89828a01613ff5565b955050604061457e89828a0161402b565b945050606061458f89828a0161402b565b93505060806145a089828a0161402b565b92505060a06145b189828a0161402b565b9150509295509295509295565b600082825260208201905092915050565b7f4e6674206e6f7420696e2061756374696f6e2073616c65000000000000000000600082015250565b60006146056017836145be565b9150614610826145cf565b602082019050919050565b60006020820190508181036000830152614634816145f8565b9050919050565b7f41756374696f6e20656e64000000000000000000000000000000000000000000600082015250565b6000614671600b836145be565b915061467c8261463b565b602082019050919050565b600060208201905081810360008301526146a081614664565b9050919050565b7f50726963652063616e6e6f742062652030000000000000000000000000000000600082015250565b60006146dd6011836145be565b91506146e8826146a7565b602082019050919050565b6000602082019050818103600083015261470c816146d0565b9050919050565b7f4269642047726561746572207468616e2050726576696f757320426964000000600082015250565b6000614749601d836145be565b915061475482614713565b602082019050919050565b600060208201905081810360008301526147788161473c565b9050919050565b61478881613fcc565b82525050565b60006080820190506147a3600083018761477f565b6147b06020830186614334565b6147bd6040830185614334565b6147ca606083018461477f565b95945050505050565b7f4e6674206e6f7420696e2066697865642073616c650000000000000000000000600082015250565b60006148096015836145be565b9150614814826147d3565b602082019050919050565b60006020820190508181036000830152614838816147fc565b9050919050565b7f596f7520617265206e6f74206e6674206f776e65720000000000000000000000600082015250565b60006148756015836145be565b91506148808261483f565b602082019050919050565b600060208201905081810360008301526148a481614868565b9050919050565b60006060820190506148c0600083018661477f565b6148cd6020830185614334565b6148da6040830184614334565b949350505050565b7f41756374696f6e206e6f7420656e640000000000000000000000000000000000600082015250565b6000614918600f836145be565b9150614923826148e2565b602082019050919050565b600060208201905081810360008301526149478161490b565b9050919050565b7f596f752061726520686967686573742062696464657200000000000000000000600082015250565b60006149846016836145be565b915061498f8261494e565b602082019050919050565b600060208201905081810360008301526149b381614977565b9050919050565b7f6e6f7468696e6720746f20776974686472617700000000000000000000000000600082015250565b60006149f06013836145be565b91506149fb826149ba565b602082019050919050565b60006020820190508181036000830152614a1f816149e3565b9050919050565b6000606082019050614a3b600083018661477f565b614a486020830185614334565b614a55604083018461477f565b949350505050565b7f4e487b7100000000000000000000000000000000000000000000000000000000600052603260045260246000fd5b600060a082019050614aa1600083018861477f565b614aae6020830187614334565b614abb604083018661477f565b614ac86060830185614334565b614ad5608083018461477f565b9695505050505050565b600081519050614aee81613fde565b92915050565b600060208284031215614b0a57614b09613fa2565b5b6000614b1884828501614adf565b91505092915050565b7f4e667420616c726561647920696e2073616c6500000000000000000000000000600082015250565b6000614b576013836145be565b9150614b6282614b21565b602082019050919050565b60006020820190508181036000830152614b8681614b4a565b9050919050565b6000604082019050614ba2600083018561477f565b614baf602083018461477f565b9392505050565b60008115159050919050565b614bcb81614bb6565b8114614bd657600080fd5b50565b600081519050614be881614bc2565b92915050565b600060208284031215614c0457614c03613fa2565b5b6000614c1284828501614bd9565b91505092915050565b7f4e6674206e6f7420617070726f76656420746f20636f6e747261637400000000600082015250565b6000614c51601c836145be565b9150614c5c82614c1b565b602082019050919050565b60006020820190508181036000830152614c8081614c44565b9050919050565b6000606082019050614c9c600083018661477f565b614ca9602083018561477f565b614cb66040830184614334565b949350505050565b600060c082019050614cd3600083018961477f565b614ce0602083018861477f565b614ced604083018761477f565b614cfa6060830186614334565b614d076080830185614334565b614d1460a0830184614334565b979650505050505050565b7f6e6f74206e6674206f776e657200000000000000000000000000000000000000600082015250565b6000614d55600d836145be565b9150614d6082614d1f565b602082019050919050565b60006020820190508181036000830152614d8481614d48565b9050919050565b7f626964206d616b65000000000000000000000000000000000000000000000000600082015250565b6000614dc16008836145be565b9150614dcc82614d8b565b602082019050919050565b60006020820190508181036000830152614df081614db4565b9050919050565b7f627579205072696365206e6f7420656e6f756768000000000000000000000000600082015250565b6000614e2d6014836145be565b9150614e3882614df7565b602082019050919050565b60006020820190508181036000830152614e5c81614e20565b9050919050565b6000608082019050614e78600083018761477f565b614e85602083018661477f565b614e926040830185614334565b614e9f6060830184614334565b95945050505050565b600060e082019050614ebd600083018a61477f565b614eca602083018961477f565b614ed7604083018861477f565b614ee46060830187614334565b614ef16080830186614334565b614efe60a0830185614334565b614f0b60c0830184614334565b98975050505050505050565b7f616c6c6f77616e6365206e6f7420656e6f756768000000000000000000000000600082015250565b6000614f4d6014836145be565b9150614f5882614f17565b602082019050919050565b60006020820190508181036000830152614f7c81614f40565b9050919050565b7f4e487b7100000000000000000000000000000000000000000000000000000000600052601160045260246000fd5b6000614fbd8261400a565b9150614fc88361400a565b9250828201905080821115614fe057614fdf614f83565b5b92915050565b6000604082019050614ffb600083018561477f565b6150086020830184614334565b9392505050565b600081905092915050565b50565b600061502a60008361500f565b91506150358261501a565b600082019050919050565b600061504b8261501d565b9150819050919050565b7f726566756e64206661696c656400000000000000000000000000000000000000600082015250565b600061508b600d836145be565b915061509682615055565b602082019050919050565b600060208201905081810360008301526150ba8161507e565b905091905056fea2646970667358221220fb423b9a1177d75792e9e1052eab518e4590ada93ce1c381b5b29bc231f4735c64736f6c63430008110033",
					"opcodes": "PUSH1 0x80 PUSH1 0x40 MSTORE CALLVALUE DUP1 ISZERO PUSH2 0x10 JUMPI PUSH1 0x0 DUP1 REVERT JUMPDEST POP PUSH2 0x50F7 DUP1 PUSH2 0x20 PUSH1 0x0 CODECOPY PUSH1 0x0 RETURN INVALID PUSH1 0x80 PUSH1 0x40 MSTORE PUSH1 0x4 CALLDATASIZE LT PUSH2 0x102 JUMPI PUSH1 0x0 CALLDATALOAD PUSH1 0xE0 SHR DUP1 PUSH4 0x69A6D12E GT PUSH2 0x95 JUMPI DUP1 PUSH4 0x8C3417DA GT PUSH2 0x64 JUMPI DUP1 PUSH4 0x8C3417DA EQ PUSH2 0x332 JUMPI DUP1 PUSH4 0x9F085A00 EQ PUSH2 0x36F JUMPI DUP1 PUSH4 0xBAF4371E EQ PUSH2 0x39A JUMPI DUP1 PUSH4 0xCF42B7E6 EQ PUSH2 0x3B6 JUMPI DUP1 PUSH4 0xD3A6A6C9 EQ PUSH2 0x3DF JUMPI PUSH2 0x109 JUMP JUMPDEST DUP1 PUSH4 0x69A6D12E EQ PUSH2 0x266 JUMPI DUP1 PUSH4 0x6F8C9B1B EQ PUSH2 0x28F JUMPI DUP1 PUSH4 0x6FE02F24 EQ PUSH2 0x2CC JUMPI DUP1 PUSH4 0x842BC46A EQ PUSH2 0x309 JUMPI PUSH2 0x109 JUMP JUMPDEST DUP1 PUSH4 0x4676ADCA GT PUSH2 0xD1 JUMPI DUP1 PUSH4 0x4676ADCA EQ PUSH2 0x1AE JUMPI DUP1 PUSH4 0x4CB8EF5B EQ PUSH2 0x1D7 JUMPI DUP1 PUSH4 0x5138B08C EQ PUSH2 0x200 JUMPI DUP1 PUSH4 0x6916462F EQ PUSH2 0x229 JUMPI PUSH2 0x109 JUMP JUMPDEST DUP1 PUSH4 0x150B7A02 EQ PUSH2 0x10E JUMPI DUP1 PUSH4 0x1BDAE6F1 EQ PUSH2 0x14B JUMPI DUP1 PUSH4 0x1E7A044F EQ PUSH2 0x167 JUMPI DUP1 PUSH4 0x3A713DB8 EQ PUSH2 0x192 JUMPI PUSH2 0x109 JUMP JUMPDEST CALLDATASIZE PUSH2 0x109 JUMPI STOP JUMPDEST PUSH1 0x0 DUP1 REVERT JUMPDEST CALLVALUE DUP1 ISZERO PUSH2 0x11A JUMPI PUSH1 0x0 DUP1 REVERT JUMPDEST POP PUSH2 0x135 PUSH1 0x4 DUP1 CALLDATASIZE SUB DUP2 ADD SWAP1 PUSH2 0x130 SWAP2 SWAP1 PUSH2 0x40A5 JUMP JUMPDEST PUSH2 0x408 JUMP JUMPDEST PUSH1 0x40 MLOAD PUSH2 0x142 SWAP2 SWAP1 PUSH2 0x4168 JUMP JUMPDEST PUSH1 0x40 MLOAD DUP1 SWAP2 SUB SWAP1 RETURN JUMPDEST PUSH2 0x165 PUSH1 0x4 DUP1 CALLDATASIZE SUB DUP2 ADD SWAP1 PUSH2 0x160 SWAP2 SWAP1 PUSH2 0x4183 JUMP JUMPDEST PUSH2 0x41D JUMP JUMPDEST STOP JUMPDEST CALLVALUE DUP1 ISZERO PUSH2 0x173 JUMPI PUSH1 0x0 DUP1 REVERT JUMPDEST POP PUSH2 0x17C PUSH2 0xA53 JUMP JUMPDEST PUSH1 0x40 MLOAD PUSH2 0x189 SWAP2 SWAP1 PUSH2 0x42D2 JUMP JUMPDEST PUSH1 0x40 MLOAD DUP1 SWAP2 SUB SWAP1 RETURN JUMPDEST PUSH2 0x1AC PUSH1 0x4 DUP1 CALLDATASIZE SUB DUP2 ADD SWAP1 PUSH2 0x1A7 SWAP2 SWAP1 PUSH2 0x4183 JUMP JUMPDEST PUSH2 0xB12 JUMP JUMPDEST STOP JUMPDEST CALLVALUE DUP1 ISZERO PUSH2 0x1BA JUMPI PUSH1 0x0 DUP1 REVERT JUMPDEST POP PUSH2 0x1D5 PUSH1 0x4 DUP1 CALLDATASIZE SUB DUP2 ADD SWAP1 PUSH2 0x1D0 SWAP2 SWAP1 PUSH2 0x4183 JUMP JUMPDEST PUSH2 0x12AA JUMP JUMPDEST STOP JUMPDEST CALLVALUE DUP1 ISZERO PUSH2 0x1E3 JUMPI PUSH1 0x0 DUP1 REVERT JUMPDEST POP PUSH2 0x1FE PUSH1 0x4 DUP1 CALLDATASIZE SUB DUP2 ADD SWAP1 PUSH2 0x1F9 SWAP2 SWAP1 PUSH2 0x42F4 JUMP JUMPDEST PUSH2 0x1501 JUMP JUMPDEST STOP JUMPDEST CALLVALUE DUP1 ISZERO PUSH2 0x20C JUMPI PUSH1 0x0 DUP1 REVERT JUMPDEST POP PUSH2 0x227 PUSH1 0x4 DUP1 CALLDATASIZE SUB DUP2 ADD SWAP1 PUSH2 0x222 SWAP2 SWAP1 PUSH2 0x42F4 JUMP JUMPDEST PUSH2 0x181D JUMP JUMPDEST STOP JUMPDEST CALLVALUE DUP1 ISZERO PUSH2 0x235 JUMPI PUSH1 0x0 DUP1 REVERT JUMPDEST POP PUSH2 0x250 PUSH1 0x4 DUP1 CALLDATASIZE SUB DUP2 ADD SWAP1 PUSH2 0x24B SWAP2 SWAP1 PUSH2 0x42F4 JUMP JUMPDEST PUSH2 0x1C64 JUMP JUMPDEST PUSH1 0x40 MLOAD PUSH2 0x25D SWAP2 SWAP1 PUSH2 0x4343 JUMP JUMPDEST PUSH1 0x40 MLOAD DUP1 SWAP2 SUB SWAP1 RETURN JUMPDEST CALLVALUE DUP1 ISZERO PUSH2 0x272 JUMPI PUSH1 0x0 DUP1 REVERT JUMPDEST POP PUSH2 0x28D PUSH1 0x4 DUP1 CALLDATASIZE SUB DUP2 ADD SWAP1 PUSH2 0x288 SWAP2 SWAP1 PUSH2 0x435E JUMP JUMPDEST PUSH2 0x1C89 JUMP JUMPDEST STOP JUMPDEST CALLVALUE DUP1 ISZERO PUSH2 0x29B JUMPI PUSH1 0x0 DUP1 REVERT JUMPDEST POP PUSH2 0x2B6 PUSH1 0x4 DUP1 CALLDATASIZE SUB DUP2 ADD SWAP1 PUSH2 0x2B1 SWAP2 SWAP1 PUSH2 0x42F4 JUMP JUMPDEST PUSH2 0x22B3 JUMP JUMPDEST PUSH1 0x40 MLOAD PUSH2 0x2C3 SWAP2 SWAP1 PUSH2 0x4453 JUMP JUMPDEST PUSH1 0x40 MLOAD DUP1 SWAP2 SUB SWAP1 RETURN JUMPDEST CALLVALUE DUP1 ISZERO PUSH2 0x2D8 JUMPI PUSH1 0x0 DUP1 REVERT JUMPDEST POP PUSH2 0x2F3 PUSH1 0x4 DUP1 CALLDATASIZE SUB DUP2 ADD SWAP1 PUSH2 0x2EE SWAP2 SWAP1 PUSH2 0x446E JUMP JUMPDEST PUSH2 0x2448 JUMP JUMPDEST PUSH1 0x40 MLOAD PUSH2 0x300 SWAP2 SWAP1 PUSH2 0x4343 JUMP JUMPDEST PUSH1 0x40 MLOAD DUP1 SWAP2 SUB SWAP1 RETURN JUMPDEST CALLVALUE DUP1 ISZERO PUSH2 0x315 JUMPI PUSH1 0x0 DUP1 REVERT JUMPDEST POP PUSH2 0x330 PUSH1 0x4 DUP1 CALLDATASIZE SUB DUP2 ADD SWAP1 PUSH2 0x32B SWAP2 SWAP1 PUSH2 0x42F4 JUMP JUMPDEST PUSH2 0x247A JUMP JUMPDEST STOP JUMPDEST CALLVALUE DUP1 ISZERO PUSH2 0x33E JUMPI PUSH1 0x0 DUP1 REVERT JUMPDEST POP PUSH2 0x359 PUSH1 0x4 DUP1 CALLDATASIZE SUB DUP2 ADD SWAP1 PUSH2 0x354 SWAP2 SWAP1 PUSH2 0x42F4 JUMP JUMPDEST PUSH2 0x291C JUMP JUMPDEST PUSH1 0x40 MLOAD PUSH2 0x366 SWAP2 SWAP1 PUSH2 0x4516 JUMP JUMPDEST PUSH1 0x40 MLOAD DUP1 SWAP2 SUB SWAP1 RETURN JUMPDEST CALLVALUE DUP1 ISZERO PUSH2 0x37B JUMPI PUSH1 0x0 DUP1 REVERT JUMPDEST POP PUSH2 0x384 PUSH2 0x2A92 JUMP JUMPDEST PUSH1 0x40 MLOAD PUSH2 0x391 SWAP2 SWAP1 PUSH2 0x42D2 JUMP JUMPDEST PUSH1 0x40 MLOAD DUP1 SWAP2 SUB SWAP1 RETURN JUMPDEST PUSH2 0x3B4 PUSH1 0x4 DUP1 CALLDATASIZE SUB DUP2 ADD SWAP1 PUSH2 0x3AF SWAP2 SWAP1 PUSH2 0x4183 JUMP JUMPDEST PUSH2 0x2B51 JUMP JUMPDEST STOP JUMPDEST CALLVALUE DUP1 ISZERO PUSH2 0x3C2 JUMPI PUSH1 0x0 DUP1 REVERT JUMPDEST POP PUSH2 0x3DD PUSH1 0x4 DUP1 CALLDATASIZE SUB DUP2 ADD SWAP1 PUSH2 0x3D8 SWAP2 SWAP1 PUSH2 0x4531 JUMP JUMPDEST PUSH2 0x3045 JUMP JUMPDEST STOP JUMPDEST CALLVALUE DUP1 ISZERO PUSH2 0x3EB JUMPI PUSH1 0x0 DUP1 REVERT JUMPDEST POP PUSH2 0x406 PUSH1 0x4 DUP1 CALLDATASIZE SUB DUP2 ADD SWAP1 PUSH2 0x401 SWAP2 SWAP1 PUSH2 0x42F4 JUMP JUMPDEST PUSH2 0x3427 JUMP JUMPDEST STOP JUMPDEST PUSH1 0x0 PUSH4 0x150B7A02 PUSH1 0xE0 SHL SWAP1 POP SWAP6 SWAP5 POP POP POP POP POP JUMP JUMPDEST DUP3 DUP3 PUSH1 0x2 DUP1 PUSH1 0x0 DUP5 PUSH20 0xFFFFFFFFFFFFFFFFFFFFFFFFFFFFFFFFFFFFFFFF AND PUSH20 0xFFFFFFFFFFFFFFFFFFFFFFFFFFFFFFFFFFFFFFFF AND DUP2 MSTORE PUSH1 0x20 ADD SWAP1 DUP2 MSTORE PUSH1 0x20 ADD PUSH1 0x0 KECCAK256 PUSH1 0x0 DUP4 DUP2 MSTORE PUSH1 0x20 ADD SWAP1 DUP2 MSTORE PUSH1 0x20 ADD PUSH1 0x0 KECCAK256 SLOAD EQ PUSH2 0x4B1 JUMPI PUSH1 0x40 MLOAD PUSH32 0x8C379A000000000000000000000000000000000000000000000000000000000 DUP2 MSTORE PUSH1 0x4 ADD PUSH2 0x4A8 SWAP1 PUSH2 0x461B JUMP JUMPDEST PUSH1 0x40 MLOAD DUP1 SWAP2 SUB SWAP1 REVERT JUMPDEST DUP5 DUP5 PUSH1 0x1 PUSH1 0x0 DUP4 PUSH20 0xFFFFFFFFFFFFFFFFFFFFFFFFFFFFFFFFFFFFFFFF AND PUSH20 0xFFFFFFFFFFFFFFFFFFFFFFFFFFFFFFFFFFFFFFFF AND DUP2 MSTORE PUSH1 0x20 ADD SWAP1 DUP2 MSTORE PUSH1 0x20 ADD PUSH1 0x0 KECCAK256 PUSH1 0x0 DUP3 DUP2 MSTORE PUSH1 0x20 ADD SWAP1 DUP2 MSTORE PUSH1 0x20 ADD PUSH1 0x0 KECCAK256 PUSH1 0x1 ADD SLOAD TIMESTAMP LT PUSH2 0x548 JUMPI PUSH1 0x40 MLOAD PUSH32 0x8C379A000000000000000000000000000000000000000000000000000000000 DUP2 MSTORE PUSH1 0x4 ADD PUSH2 0x53F SWAP1 PUSH2 0x4687 JUMP JUMPDEST PUSH1 0x40 MLOAD DUP1 SWAP2 SUB SWAP1 REVERT JUMPDEST DUP5 PUSH1 0x0 DUP2 GT PUSH2 0x58C JUMPI PUSH1 0x40 MLOAD PUSH32 0x8C379A000000000000000000000000000000000000000000000000000000000 DUP2 MSTORE PUSH1 0x4 ADD PUSH2 0x583 SWAP1 PUSH2 0x46F3 JUMP JUMPDEST PUSH1 0x40 MLOAD DUP1 SWAP2 SUB SWAP1 REVERT JUMPDEST DUP8 DUP8 CALLVALUE DUP9 PUSH1 0x0 PUSH20 0xFFFFFFFFFFFFFFFFFFFFFFFFFFFFFFFFFFFFFFFF AND PUSH1 0x1 PUSH1 0x0 DUP7 PUSH20 0xFFFFFFFFFFFFFFFFFFFFFFFFFFFFFFFFFFFFFFFF AND PUSH20 0xFFFFFFFFFFFFFFFFFFFFFFFFFFFFFFFFFFFFFFFF AND DUP2 MSTORE PUSH1 0x20 ADD SWAP1 DUP2 MSTORE PUSH1 0x20 ADD PUSH1 0x0 KECCAK256 PUSH1 0x0 DUP6 DUP2 MSTORE PUSH1 0x20 ADD SWAP1 DUP2 MSTORE PUSH1 0x20 ADD PUSH1 0x0 KECCAK256 PUSH1 0x6 ADD PUSH1 0x0 SWAP1 SLOAD SWAP1 PUSH2 0x100 EXP SWAP1 DIV PUSH20 0xFFFFFFFFFFFFFFFFFFFFFFFFFFFFFFFFFFFFFFFF AND PUSH20 0xFFFFFFFFFFFFFFFFFFFFFFFFFFFFFFFFFFFFFFFF AND SUB PUSH2 0x6D1 JUMPI PUSH1 0x1 PUSH1 0x0 DUP6 PUSH20 0xFFFFFFFFFFFFFFFFFFFFFFFFFFFFFFFFFFFFFFFF AND PUSH20 0xFFFFFFFFFFFFFFFFFFFFFFFFFFFFFFFFFFFFFFFF AND DUP2 MSTORE PUSH1 0x20 ADD SWAP1 DUP2 MSTORE PUSH1 0x20 ADD PUSH1 0x0 KECCAK256 PUSH1 0x0 DUP5 DUP2 MSTORE PUSH1 0x20 ADD SWAP1 DUP2 MSTORE PUSH1 0x20 ADD PUSH1 0x0 KECCAK256 PUSH1 0x3 ADD SLOAD DUP3 GT PUSH2 0x6CC JUMPI PUSH1 0x40 MLOAD PUSH32 0x8C379A000000000000000000000000000000000000000000000000000000000 DUP2 MSTORE PUSH1 0x4 ADD PUSH2 0x6C3 SWAP1 PUSH2 0x475F JUMP JUMPDEST PUSH1 0x40 MLOAD DUP1 SWAP2 SUB SWAP1 REVERT JUMPDEST PUSH2 0x767 JUMP JUMPDEST PUSH1 0x1 PUSH1 0x0 DUP6 PUSH20 0xFFFFFFFFFFFFFFFFFFFFFFFFFFFFFFFFFFFFFFFF AND PUSH20 0xFFFFFFFFFFFFFFFFFFFFFFFFFFFFFFFFFFFFFFFF AND DUP2 MSTORE PUSH1 0x20 ADD SWAP1 DUP2 MSTORE PUSH1 0x20 ADD PUSH1 0x0 KECCAK256 PUSH1 0x0 DUP5 DUP2 MSTORE PUSH1 0x20 ADD SWAP1 DUP2 MSTORE PUSH1 0x20 ADD PUSH1 0x0 KECCAK256 PUSH1 0x3 ADD SLOAD DUP2 GT PUSH2 0x766 JUMPI PUSH1 0x40 MLOAD PUSH32 0x8C379A000000000000000000000000000000000000000000000000000000000 DUP2 MSTORE PUSH1 0x4 ADD PUSH2 0x75D SWAP1 PUSH2 0x475F JUMP JUMPDEST PUSH1 0x40 MLOAD DUP1 SWAP2 SUB SWAP1 REVERT JUMPDEST JUMPDEST PUSH1 0x0 PUSH20 0xFFFFFFFFFFFFFFFFFFFFFFFFFFFFFFFFFFFFFFFF AND PUSH1 0x1 PUSH1 0x0 DUP15 PUSH20 0xFFFFFFFFFFFFFFFFFFFFFFFFFFFFFFFFFFFFFFFF AND PUSH20 0xFFFFFFFFFFFFFFFFFFFFFFFFFFFFFFFFFFFFFFFF AND DUP2 MSTORE PUSH1 0x20 ADD SWAP1 DUP2 MSTORE PUSH1 0x20 ADD PUSH1 0x0 KECCAK256 PUSH1 0x0 DUP14 DUP2 MSTORE PUSH1 0x20 ADD SWAP1 DUP2 MSTORE PUSH1 0x20 ADD PUSH1 0x0 KECCAK256 PUSH1 0x6 ADD PUSH1 0x0 SWAP1 SLOAD SWAP1 PUSH2 0x100 EXP SWAP1 DIV PUSH20 0xFFFFFFFFFFFFFFFFFFFFFFFFFFFFFFFFFFFFFFFF AND PUSH20 0xFFFFFFFFFFFFFFFFFFFFFFFFFFFFFFFFFFFFFFFF AND EQ PUSH2 0x88C JUMPI PUSH2 0x88B DUP11 PUSH1 0x1 PUSH1 0x0 DUP16 PUSH20 0xFFFFFFFFFFFFFFFFFFFFFFFFFFFFFFFFFFFFFFFF AND PUSH20 0xFFFFFFFFFFFFFFFFFFFFFFFFFFFFFFFFFFFFFFFF AND DUP2 MSTORE PUSH1 0x20 ADD SWAP1 DUP2 MSTORE PUSH1 0x20 ADD PUSH1 0x0 KECCAK256 PUSH1 0x0 DUP15 DUP2 MSTORE PUSH1 0x20 ADD SWAP1 DUP2 MSTORE PUSH1 0x20 ADD PUSH1 0x0 KECCAK256 PUSH1 0x6 ADD PUSH1 0x0 SWAP1 SLOAD SWAP1 PUSH2 0x100 EXP SWAP1 DIV PUSH20 0xFFFFFFFFFFFFFFFFFFFFFFFFFFFFFFFFFFFFFFFF AND PUSH2 0x374A JUMP JUMPDEST JUMPDEST DUP10 PUSH1 0x1 PUSH1 0x0 DUP15 PUSH20 0xFFFFFFFFFFFFFFFFFFFFFFFFFFFFFFFFFFFFFFFF AND PUSH20 0xFFFFFFFFFFFFFFFFFFFFFFFFFFFFFFFFFFFFFFFF AND DUP2 MSTORE PUSH1 0x20 ADD SWAP1 DUP2 MSTORE PUSH1 0x20 ADD PUSH1 0x0 KECCAK256 PUSH1 0x0 DUP14 DUP2 MSTORE PUSH1 0x20 ADD SWAP1 DUP2 MSTORE PUSH1 0x20 ADD PUSH1 0x0 KECCAK256 PUSH1 0x3 ADD DUP2 SWAP1 SSTORE POP CALLER PUSH1 0x1 PUSH1 0x0 DUP15 PUSH20 0xFFFFFFFFFFFFFFFFFFFFFFFFFFFFFFFFFFFFFFFF AND PUSH20 0xFFFFFFFFFFFFFFFFFFFFFFFFFFFFFFFFFFFFFFFF AND DUP2 MSTORE PUSH1 0x20 ADD SWAP1 DUP2 MSTORE PUSH1 0x20 ADD PUSH1 0x0 KECCAK256 PUSH1 0x0 DUP14 DUP2 MSTORE PUSH1 0x20 ADD SWAP1 DUP2 MSTORE PUSH1 0x20 ADD PUSH1 0x0 KECCAK256 PUSH1 0x4 ADD PUSH1 0x0 PUSH2 0x100 EXP DUP2 SLOAD DUP2 PUSH20 0xFFFFFFFFFFFFFFFFFFFFFFFFFFFFFFFFFFFFFFFF MUL NOT AND SWAP1 DUP4 PUSH20 0xFFFFFFFFFFFFFFFFFFFFFFFFFFFFFFFFFFFFFFFF AND MUL OR SWAP1 SSTORE POP DUP10 PUSH1 0x3 PUSH1 0x0 DUP15 PUSH20 0xFFFFFFFFFFFFFFFFFFFFFFFFFFFFFFFFFFFFFFFF AND PUSH20 0xFFFFFFFFFFFFFFFFFFFFFFFFFFFFFFFFFFFFFFFF AND DUP2 MSTORE PUSH1 0x20 ADD SWAP1 DUP2 MSTORE PUSH1 0x20 ADD PUSH1 0x0 KECCAK256 PUSH1 0x0 DUP14 DUP2 MSTORE PUSH1 0x20 ADD SWAP1 DUP2 MSTORE PUSH1 0x20 ADD PUSH1 0x0 KECCAK256 PUSH1 0x0 CALLER PUSH20 0xFFFFFFFFFFFFFFFFFFFFFFFFFFFFFFFFFFFFFFFF AND PUSH20 0xFFFFFFFFFFFFFFFFFFFFFFFFFFFFFFFFFFFFFFFF AND DUP2 MSTORE PUSH1 0x20 ADD SWAP1 DUP2 MSTORE PUSH1 0x20 ADD PUSH1 0x0 KECCAK256 DUP2 SWAP1 SSTORE POP PUSH32 0xD56CB6210C78740462007B728932C802BC41B205ED5C8A98AB95421EAF054B22 DUP13 DUP13 DUP13 CALLER PUSH1 0x40 MLOAD PUSH2 0xA3D SWAP5 SWAP4 SWAP3 SWAP2 SWAP1 PUSH2 0x478E JUMP JUMPDEST PUSH1 0x40 MLOAD DUP1 SWAP2 SUB SWAP1 LOG1 POP POP POP POP POP POP POP POP POP POP POP POP JUMP JUMPDEST PUSH1 0x60 PUSH1 0x7 DUP1 SLOAD DUP1 PUSH1 0x20 MUL PUSH1 0x20 ADD PUSH1 0x40 MLOAD SWAP1 DUP2 ADD PUSH1 0x40 MSTORE DUP1 SWAP3 SWAP2 SWAP1 DUP2 DUP2 MSTORE PUSH1 0x20 ADD PUSH1 0x0 SWAP1 JUMPDEST DUP3 DUP3 LT ISZERO PUSH2 0xB09 JUMPI DUP4 DUP3 SWAP1 PUSH1 0x0 MSTORE PUSH1 0x20 PUSH1 0x0 KECCAK256 SWAP1 PUSH1 0x2 MUL ADD PUSH1 0x40 MLOAD DUP1 PUSH1 0x40 ADD PUSH1 0x40 MSTORE SWAP1 DUP2 PUSH1 0x0 DUP3 ADD PUSH1 0x0 SWAP1 SLOAD SWAP1 PUSH2 0x100 EXP SWAP1 DIV PUSH20 0xFFFFFFFFFFFFFFFFFFFFFFFFFFFFFFFFFFFFFFFF AND PUSH20 0xFFFFFFFFFFFFFFFFFFFFFFFFFFFFFFFFFFFFFFFF AND PUSH20 0xFFFFFFFFFFFFFFFFFFFFFFFFFFFFFFFFFFFFFFFF AND DUP2 MSTORE PUSH1 0x20 ADD PUSH1 0x1 DUP3 ADD SLOAD DUP2 MSTORE POP POP DUP2 MSTORE PUSH1 0x20 ADD SWAP1 PUSH1 0x1 ADD SWAP1 PUSH2 0xA77 JUMP JUMPDEST POP POP POP POP SWAP1 POP SWAP1 JUMP JUMPDEST DUP3 DUP3 PUSH1 0x2 DUP1 PUSH1 0x0 DUP5 PUSH20 0xFFFFFFFFFFFFFFFFFFFFFFFFFFFFFFFFFFFFFFFF AND PUSH20 0xFFFFFFFFFFFFFFFFFFFFFFFFFFFFFFFFFFFFFFFF AND DUP2 MSTORE PUSH1 0x20 ADD SWAP1 DUP2 MSTORE PUSH1 0x20 ADD PUSH1 0x0 KECCAK256 PUSH1 0x0 DUP4 DUP2 MSTORE PUSH1 0x20 ADD SWAP1 DUP2 MSTORE PUSH1 0x20 ADD PUSH1 0x0 KECCAK256 SLOAD EQ PUSH2 0xBA6 JUMPI PUSH1 0x40 MLOAD PUSH32 0x8C379A000000000000000000000000000000000000000000000000000000000 DUP2 MSTORE PUSH1 0x4 ADD PUSH2 0xB9D SWAP1 PUSH2 0x461B JUMP JUMPDEST PUSH1 0x40 MLOAD DUP1 SWAP2 SUB SWAP1 REVERT JUMPDEST DUP5 DUP5 PUSH1 0x1 PUSH1 0x0 DUP4 PUSH20 0xFFFFFFFFFFFFFFFFFFFFFFFFFFFFFFFFFFFFFFFF AND PUSH20 0xFFFFFFFFFFFFFFFFFFFFFFFFFFFFFFFFFFFFFFFF AND DUP2 MSTORE PUSH1 0x20 ADD SWAP1 DUP2 MSTORE PUSH1 0x20 ADD PUSH1 0x0 KECCAK256 PUSH1 0x0 DUP3 DUP2 MSTORE PUSH1 0x20 ADD SWAP1 DUP2 MSTORE PUSH1 0x20 ADD PUSH1 0x0 KECCAK256 PUSH1 0x1 ADD SLOAD TIMESTAMP LT PUSH2 0xC3D JUMPI PUSH1 0x40 MLOAD PUSH32 0x8C379A000000000000000000000000000000000000000000000000000000000 DUP2 MSTORE PUSH1 0x4 ADD PUSH2 0xC34 SWAP1 PUSH2 0x4687 JUMP JUMPDEST PUSH1 0x40 MLOAD DUP1 SWAP2 SUB SWAP1 REVERT JUMPDEST CALLVALUE PUSH1 0x0 DUP2 GT PUSH2 0xC81 JUMPI PUSH1 0x40 MLOAD PUSH32 0x8C379A000000000000000000000000000000000000000000000000000000000 DUP2 MSTORE PUSH1 0x4 ADD PUSH2 0xC78 SWAP1 PUSH2 0x46F3 JUMP JUMPDEST PUSH1 0x40 MLOAD DUP1 SWAP2 SUB SWAP1 REVERT JUMPDEST DUP8 DUP8 CALLVALUE DUP9 PUSH1 0x0 DUP1 PUSH20 0xFFFFFFFFFFFFFFFFFFFFFFFFFFFFFFFFFFFFFFFF AND PUSH1 0x1 PUSH1 0x0 DUP8 PUSH20 0xFFFFFFFFFFFFFFFFFFFFFFFFFFFFFFFFFFFFFFFF AND PUSH20 0xFFFFFFFFFFFFFFFFFFFFFFFFFFFFFFFFFFFFFFFF AND DUP2 MSTORE PUSH1 0x20 ADD SWAP1 DUP2 MSTORE PUSH1 0x20 ADD PUSH1 0x0 KECCAK256 PUSH1 0x0 DUP7 DUP2 MSTORE PUSH1 0x20 ADD SWAP1 DUP2 MSTORE PUSH1 0x20 ADD PUSH1 0x0 KECCAK256 PUSH1 0x6 ADD PUSH1 0x0 SWAP1 SLOAD SWAP1 PUSH2 0x100 EXP SWAP1 DIV PUSH20 0xFFFFFFFFFFFFFFFFFFFFFFFFFFFFFFFFFFFFFFFF AND PUSH20 0xFFFFFFFFFFFFFFFFFFFFFFFFFFFFFFFFFFFFFFFF AND SUB PUSH2 0xDD4 JUMPI PUSH2 0xDCD DUP4 PUSH1 0x3 PUSH1 0x0 DUP9 PUSH20 0xFFFFFFFFFFFFFFFFFFFFFFFFFFFFFFFFFFFFFFFF AND PUSH20 0xFFFFFFFFFFFFFFFFFFFFFFFFFFFFFFFFFFFFFFFF AND DUP2 MSTORE PUSH1 0x20 ADD SWAP1 DUP2 MSTORE PUSH1 0x20 ADD PUSH1 0x0 KECCAK256 PUSH1 0x0 DUP8 DUP2 MSTORE PUSH1 0x20 ADD SWAP1 DUP2 MSTORE PUSH1 0x20 ADD PUSH1 0x0 KECCAK256 PUSH1 0x0 CALLER PUSH20 0xFFFFFFFFFFFFFFFFFFFFFFFFFFFFFFFFFFFFFFFF AND PUSH20 0xFFFFFFFFFFFFFFFFFFFFFFFFFFFFFFFFFFFFFFFF AND DUP2 MSTORE PUSH1 0x20 ADD SWAP1 DUP2 MSTORE PUSH1 0x20 ADD PUSH1 0x0 KECCAK256 SLOAD PUSH2 0x380D SWAP1 SWAP2 SWAP1 PUSH4 0xFFFFFFFF AND JUMP JUMPDEST SWAP1 POP PUSH2 0xE77 JUMP JUMPDEST PUSH2 0xE74 DUP3 PUSH1 0x3 PUSH1 0x0 DUP9 PUSH20 0xFFFFFFFFFFFFFFFFFFFFFFFFFFFFFFFFFFFFFFFF AND PUSH20 0xFFFFFFFFFFFFFFFFFFFFFFFFFFFFFFFFFFFFFFFF AND DUP2 MSTORE PUSH1 0x20 ADD SWAP1 DUP2 MSTORE PUSH1 0x20 ADD PUSH1 0x0 KECCAK256 PUSH1 0x0 DUP8 DUP2 MSTORE PUSH1 0x20 ADD SWAP1 DUP2 MSTORE PUSH1 0x20 ADD PUSH1 0x0 KECCAK256 PUSH1 0x0 CALLER PUSH20 0xFFFFFFFFFFFFFFFFFFFFFFFFFFFFFFFFFFFFFFFF AND PUSH20 0xFFFFFFFFFFFFFFFFFFFFFFFFFFFFFFFFFFFFFFFF AND DUP2 MSTORE PUSH1 0x20 ADD SWAP1 DUP2 MSTORE PUSH1 0x20 ADD PUSH1 0x0 KECCAK256 SLOAD PUSH2 0x380D SWAP1 SWAP2 SWAP1 PUSH4 0xFFFFFFFF AND JUMP JUMPDEST SWAP1 POP JUMPDEST PUSH1 0x1 PUSH1 0x0 DUP7 PUSH20 0xFFFFFFFFFFFFFFFFFFFFFFFFFFFFFFFFFFFFFFFF AND PUSH20 0xFFFFFFFFFFFFFFFFFFFFFFFFFFFFFFFFFFFFFFFF AND DUP2 MSTORE PUSH1 0x20 ADD SWAP1 DUP2 MSTORE PUSH1 0x20 ADD PUSH1 0x0 KECCAK256 PUSH1 0x0 DUP6 DUP2 MSTORE PUSH1 0x20 ADD SWAP1 DUP2 MSTORE PUSH1 0x20 ADD PUSH1 0x0 KECCAK256 PUSH1 0x3 ADD SLOAD DUP2 GT PUSH2 0xF0C JUMPI PUSH1 0x40 MLOAD PUSH32 0x8C379A000000000000000000000000000000000000000000000000000000000 DUP2 MSTORE PUSH1 0x4 ADD PUSH2 0xF03 SWAP1 PUSH2 0x475F JUMP JUMPDEST PUSH1 0x40 MLOAD DUP1 SWAP2 SUB SWAP1 REVERT JUMPDEST PUSH1 0x0 DUP14 SWAP1 POP PUSH1 0x0 DUP14 SWAP1 POP PUSH1 0x0 PUSH2 0xFB8 DUP15 PUSH1 0x3 PUSH1 0x0 DUP7 PUSH20 0xFFFFFFFFFFFFFFFFFFFFFFFFFFFFFFFFFFFFFFFF AND PUSH20 0xFFFFFFFFFFFFFFFFFFFFFFFFFFFFFFFFFFFFFFFF AND DUP2 MSTORE PUSH1 0x20 ADD SWAP1 DUP2 MSTORE PUSH1 0x20 ADD PUSH1 0x0 KECCAK256 PUSH1 0x0 DUP6 DUP2 MSTORE PUSH1 0x20 ADD SWAP1 DUP2 MSTORE PUSH1 0x20 ADD PUSH1 0x0 KECCAK256 PUSH1 0x0 CALLER PUSH20 0xFFFFFFFFFFFFFFFFFFFFFFFFFFFFFFFFFFFFFFFF AND PUSH20 0xFFFFFFFFFFFFFFFFFFFFFFFFFFFFFFFFFFFFFFFF AND DUP2 MSTORE PUSH1 0x20 ADD SWAP1 DUP2 MSTORE PUSH1 0x20 ADD PUSH1 0x0 KECCAK256 SLOAD PUSH2 0x380D SWAP1 SWAP2 SWAP1 PUSH4 0xFFFFFFFF AND JUMP JUMPDEST SWAP1 POP PUSH1 0x0 PUSH20 0xFFFFFFFFFFFFFFFFFFFFFFFFFFFFFFFFFFFFFFFF AND PUSH1 0x1 PUSH1 0x0 DUP6 PUSH20 0xFFFFFFFFFFFFFFFFFFFFFFFFFFFFFFFFFFFFFFFF AND PUSH20 0xFFFFFFFFFFFFFFFFFFFFFFFFFFFFFFFFFFFFFFFF AND DUP2 MSTORE PUSH1 0x20 ADD SWAP1 DUP2 MSTORE PUSH1 0x20 ADD PUSH1 0x0 KECCAK256 PUSH1 0x0 DUP5 DUP2 MSTORE PUSH1 0x20 ADD SWAP1 DUP2 MSTORE PUSH1 0x20 ADD PUSH1 0x0 KECCAK256 PUSH1 0x6 ADD PUSH1 0x0 SWAP1 SLOAD SWAP1 PUSH2 0x100 EXP SWAP1 DIV PUSH20 0xFFFFFFFFFFFFFFFFFFFFFFFFFFFFFFFFFFFFFFFF AND PUSH20 0xFFFFFFFFFFFFFFFFFFFFFFFFFFFFFFFFFFFFFFFF AND EQ PUSH2 0x10DF JUMPI PUSH2 0x10DE DUP15 PUSH1 0x1 PUSH1 0x0 DUP7 PUSH20 0xFFFFFFFFFFFFFFFFFFFFFFFFFFFFFFFFFFFFFFFF AND PUSH20 0xFFFFFFFFFFFFFFFFFFFFFFFFFFFFFFFFFFFFFFFF AND DUP2 MSTORE PUSH1 0x20 ADD SWAP1 DUP2 MSTORE PUSH1 0x20 ADD PUSH1 0x0 KECCAK256 PUSH1 0x0 DUP6 DUP2 MSTORE PUSH1 0x20 ADD SWAP1 DUP2 MSTORE PUSH1 0x20 ADD PUSH1 0x0 KECCAK256 PUSH1 0x6 ADD PUSH1 0x0 SWAP1 SLOAD SWAP1 PUSH2 0x100 EXP SWAP1 DIV PUSH20 0xFFFFFFFFFFFFFFFFFFFFFFFFFFFFFFFFFFFFFFFF AND PUSH2 0x374A JUMP JUMPDEST JUMPDEST DUP1 PUSH1 0x1 PUSH1 0x0 DUP6 PUSH20 0xFFFFFFFFFFFFFFFFFFFFFFFFFFFFFFFFFFFFFFFF AND PUSH20 0xFFFFFFFFFFFFFFFFFFFFFFFFFFFFFFFFFFFFFFFF AND DUP2 MSTORE PUSH1 0x20 ADD SWAP1 DUP2 MSTORE PUSH1 0x20 ADD PUSH1 0x0 KECCAK256 PUSH1 0x0 DUP5 DUP2 MSTORE PUSH1 0x20 ADD SWAP1 DUP2 MSTORE PUSH1 0x20 ADD PUSH1 0x0 KECCAK256 PUSH1 0x3 ADD DUP2 SWAP1 SSTORE POP CALLER PUSH1 0x1 PUSH1 0x0 DUP6 PUSH20 0xFFFFFFFFFFFFFFFFFFFFFFFFFFFFFFFFFFFFFFFF AND PUSH20 0xFFFFFFFFFFFFFFFFFFFFFFFFFFFFFFFFFFFFFFFF AND DUP2 MSTORE PUSH1 0x20 ADD SWAP1 DUP2 MSTORE PUSH1 0x20 ADD PUSH1 0x0 KECCAK256 PUSH1 0x0 DUP5 DUP2 MSTORE PUSH1 0x20 ADD SWAP1 DUP2 MSTORE PUSH1 0x20 ADD PUSH1 0x0 KECCAK256 PUSH1 0x4 ADD PUSH1 0x0 PUSH2 0x100 EXP DUP2 SLOAD DUP2 PUSH20 0xFFFFFFFFFFFFFFFFFFFFFFFFFFFFFFFFFFFFFFFF MUL NOT AND SWAP1 DUP4 PUSH20 0xFFFFFFFFFFFFFFFFFFFFFFFFFFFFFFFFFFFFFFFF AND MUL OR SWAP1 SSTORE POP DUP1 PUSH1 0x3 PUSH1 0x0 DUP6 PUSH20 0xFFFFFFFFFFFFFFFFFFFFFFFFFFFFFFFFFFFFFFFF AND PUSH20 0xFFFFFFFFFFFFFFFFFFFFFFFFFFFFFFFFFFFFFFFF AND DUP2 MSTORE PUSH1 0x20 ADD SWAP1 DUP2 MSTORE PUSH1 0x20 ADD PUSH1 0x0 KECCAK256 PUSH1 0x0 DUP5 DUP2 MSTORE PUSH1 0x20 ADD SWAP1 DUP2 MSTORE PUSH1 0x20 ADD PUSH1 0x0 KECCAK256 PUSH1 0x0 CALLER PUSH20 0xFFFFFFFFFFFFFFFFFFFFFFFFFFFFFFFFFFFFFFFF AND PUSH20 0xFFFFFFFFFFFFFFFFFFFFFFFFFFFFFFFFFFFFFFFF AND DUP2 MSTORE PUSH1 0x20 ADD SWAP1 DUP2 MSTORE PUSH1 0x20 ADD PUSH1 0x0 KECCAK256 DUP2 SWAP1 SSTORE POP PUSH32 0x907CDADC7C1A8ABCDD80CDD85EB18377631E4F413FB6397A8252FF7B358AC6CB DUP4 DUP4 DUP4 CALLER PUSH1 0x40 MLOAD PUSH2 0x1290 SWAP5 SWAP4 SWAP3 SWAP2 SWAP1 PUSH2 0x478E JUMP JUMPDEST PUSH1 0x40 MLOAD DUP1 SWAP2 SUB SWAP1 LOG1 POP POP POP POP POP POP POP POP POP POP POP POP POP POP POP POP JUMP JUMPDEST DUP3 DUP3 PUSH1 0x1 PUSH1 0x2 PUSH1 0x0 DUP5 PUSH20 0xFFFFFFFFFFFFFFFFFFFFFFFFFFFFFFFFFFFFFFFF AND PUSH20 0xFFFFFFFFFFFFFFFFFFFFFFFFFFFFFFFFFFFFFFFF AND DUP2 MSTORE PUSH1 0x20 ADD SWAP1 DUP2 MSTORE PUSH1 0x20 ADD PUSH1 0x0 KECCAK256 PUSH1 0x0 DUP4 DUP2 MSTORE PUSH1 0x20 ADD SWAP1 DUP2 MSTORE PUSH1 0x20 ADD PUSH1 0x0 KECCAK256 SLOAD EQ PUSH2 0x133F JUMPI PUSH1 0x40 MLOAD PUSH32 0x8C379A000000000000000000000000000000000000000000000000000000000 DUP2 MSTORE PUSH1 0x4 ADD PUSH2 0x1336 SWAP1 PUSH2 0x481F JUMP JUMPDEST PUSH1 0x40 MLOAD DUP1 SWAP2 SUB SWAP1 REVERT JUMPDEST DUP5 DUP5 PUSH1 0x0 DUP1 DUP4 PUSH20 0xFFFFFFFFFFFFFFFFFFFFFFFFFFFFFFFFFFFFFFFF AND PUSH20 0xFFFFFFFFFFFFFFFFFFFFFFFFFFFFFFFFFFFFFFFF AND DUP2 MSTORE PUSH1 0x20 ADD SWAP1 DUP2 MSTORE PUSH1 0x20 ADD PUSH1 0x0 KECCAK256 PUSH1 0x0 DUP3 DUP2 MSTORE PUSH1 0x20 ADD SWAP1 DUP2 MSTORE PUSH1 0x20 ADD PUSH1 0x0 KECCAK256 PUSH1 0x0 ADD PUSH1 0x0 SWAP1 SLOAD SWAP1 PUSH2 0x100 EXP SWAP1 DIV PUSH20 0xFFFFFFFFFFFFFFFFFFFFFFFFFFFFFFFFFFFFFFFF AND PUSH20 0xFFFFFFFFFFFFFFFFFFFFFFFFFFFFFFFFFFFFFFFF AND CALLER PUSH20 0xFFFFFFFFFFFFFFFFFFFFFFFFFFFFFFFFFFFFFFFF AND EQ PUSH2 0x1421 JUMPI PUSH1 0x40 MLOAD PUSH32 0x8C379A000000000000000000000000000000000000000000000000000000000 DUP2 MSTORE PUSH1 0x4 ADD PUSH2 0x1418 SWAP1 PUSH2 0x488B JUMP JUMPDEST PUSH1 0x40 MLOAD DUP1 SWAP2 SUB SWAP1 REVERT JUMPDEST DUP5 PUSH1 0x0 DUP2 GT PUSH2 0x1465 JUMPI PUSH1 0x40 MLOAD PUSH32 0x8C379A000000000000000000000000000000000000000000000000000000000 DUP2 MSTORE PUSH1 0x4 ADD PUSH2 0x145C SWAP1 PUSH2 0x46F3 JUMP JUMPDEST PUSH1 0x40 MLOAD DUP1 SWAP2 SUB SWAP1 REVERT JUMPDEST DUP6 PUSH1 0x0 DUP1 DUP11 PUSH20 0xFFFFFFFFFFFFFFFFFFFFFFFFFFFFFFFFFFFFFFFF AND PUSH20 0xFFFFFFFFFFFFFFFFFFFFFFFFFFFFFFFFFFFFFFFF AND DUP2 MSTORE PUSH1 0x20 ADD SWAP1 DUP2 MSTORE PUSH1 0x20 ADD PUSH1 0x0 KECCAK256 PUSH1 0x0 DUP10 DUP2 MSTORE PUSH1 0x20 ADD SWAP1 DUP2 MSTORE PUSH1 0x20 ADD PUSH1 0x0 KECCAK256 PUSH1 0x3 ADD DUP2 SWAP1 SSTORE POP PUSH32 0x575A0876095CCF47276A37DCE683308A625403D132D219F95205CE205B2E12BC DUP9 DUP9 DUP9 PUSH1 0x40 MLOAD PUSH2 0x14EF SWAP4 SWAP3 SWAP2 SWAP1 PUSH2 0x48AB JUMP JUMPDEST PUSH1 0x40 MLOAD DUP1 SWAP2 SUB SWAP1 LOG1 POP POP POP POP POP POP POP POP JUMP JUMPDEST DUP2 DUP2 PUSH1 0x1 PUSH1 0x0 DUP4 PUSH20 0xFFFFFFFFFFFFFFFFFFFFFFFFFFFFFFFFFFFFFFFF AND PUSH20 0xFFFFFFFFFFFFFFFFFFFFFFFFFFFFFFFFFFFFFFFF AND DUP2 MSTORE PUSH1 0x20 ADD SWAP1 DUP2 MSTORE PUSH1 0x20 ADD PUSH1 0x0 KECCAK256 PUSH1 0x0 DUP3 DUP2 MSTORE PUSH1 0x20 ADD SWAP1 DUP2 MSTORE PUSH1 0x20 ADD PUSH1 0x0 KECCAK256 PUSH1 0x1 ADD SLOAD TIMESTAMP GT PUSH2 0x1598 JUMPI PUSH1 0x40 MLOAD PUSH32 0x8C379A000000000000000000000000000000000000000000000000000000000 DUP2 MSTORE PUSH1 0x4 ADD PUSH2 0x158F SWAP1 PUSH2 0x492E JUMP JUMPDEST PUSH1 0x40 MLOAD DUP1 SWAP2 SUB SWAP1 REVERT JUMPDEST PUSH1 0x1 PUSH1 0x0 DUP6 PUSH20 0xFFFFFFFFFFFFFFFFFFFFFFFFFFFFFFFFFFFFFFFF AND PUSH20 0xFFFFFFFFFFFFFFFFFFFFFFFFFFFFFFFFFFFFFFFF AND DUP2 MSTORE PUSH1 0x20 ADD SWAP1 DUP2 MSTORE PUSH1 0x20 ADD PUSH1 0x0 KECCAK256 PUSH1 0x0 DUP5 DUP2 MSTORE PUSH1 0x20 ADD SWAP1 DUP2 MSTORE PUSH1 0x20 ADD PUSH1 0x0 KECCAK256 PUSH1 0x4 ADD PUSH1 0x0 SWAP1 SLOAD SWAP1 PUSH2 0x100 EXP SWAP1 DIV PUSH20 0xFFFFFFFFFFFFFFFFFFFFFFFFFFFFFFFFFFFFFFFF AND PUSH20 0xFFFFFFFFFFFFFFFFFFFFFFFFFFFFFFFFFFFFFFFF AND CALLER PUSH20 0xFFFFFFFFFFFFFFFFFFFFFFFFFFFFFFFFFFFFFFFF AND SUB PUSH2 0x1679 JUMPI PUSH1 0x40 MLOAD PUSH32 0x8C379A000000000000000000000000000000000000000000000000000000000 DUP2 MSTORE PUSH1 0x4 ADD PUSH2 0x1670 SWAP1 PUSH2 0x499A JUMP JUMPDEST PUSH1 0x40 MLOAD DUP1 SWAP2 SUB SWAP1 REVERT JUMPDEST PUSH1 0x0 PUSH1 0x3 PUSH1 0x0 DUP7 PUSH20 0xFFFFFFFFFFFFFFFFFFFFFFFFFFFFFFFFFFFFFFFF AND PUSH20 0xFFFFFFFFFFFFFFFFFFFFFFFFFFFFFFFFFFFFFFFF AND DUP2 MSTORE PUSH1 0x20 ADD SWAP1 DUP2 MSTORE PUSH1 0x20 ADD PUSH1 0x0 KECCAK256 PUSH1 0x0 DUP6 DUP2 MSTORE PUSH1 0x20 ADD SWAP1 DUP2 MSTORE PUSH1 0x20 ADD PUSH1 0x0 KECCAK256 PUSH1 0x0 CALLER PUSH20 0xFFFFFFFFFFFFFFFFFFFFFFFFFFFFFFFFFFFFFFFF AND PUSH20 0xFFFFFFFFFFFFFFFFFFFFFFFFFFFFFFFFFFFFFFFF AND DUP2 MSTORE PUSH1 0x20 ADD SWAP1 DUP2 MSTORE PUSH1 0x20 ADD PUSH1 0x0 KECCAK256 SLOAD GT PUSH2 0x1749 JUMPI PUSH1 0x40 MLOAD PUSH32 0x8C379A000000000000000000000000000000000000000000000000000000000 DUP2 MSTORE PUSH1 0x4 ADD PUSH2 0x1740 SWAP1 PUSH2 0x4A06 JUMP JUMPDEST PUSH1 0x40 MLOAD DUP1 SWAP2 SUB SWAP1 REVERT JUMPDEST PUSH1 0x0 PUSH1 0x3 PUSH1 0x0 DUP7 PUSH20 0xFFFFFFFFFFFFFFFFFFFFFFFFFFFFFFFFFFFFFFFF AND PUSH20 0xFFFFFFFFFFFFFFFFFFFFFFFFFFFFFFFFFFFFFFFF AND DUP2 MSTORE PUSH1 0x20 ADD SWAP1 DUP2 MSTORE PUSH1 0x20 ADD PUSH1 0x0 KECCAK256 PUSH1 0x0 DUP6 DUP2 MSTORE PUSH1 0x20 ADD SWAP1 DUP2 MSTORE PUSH1 0x20 ADD PUSH1 0x0 KECCAK256 PUSH1 0x0 CALLER PUSH20 0xFFFFFFFFFFFFFFFFFFFFFFFFFFFFFFFFFFFFFFFF AND PUSH20 0xFFFFFFFFFFFFFFFFFFFFFFFFFFFFFFFFFFFFFFFF AND DUP2 MSTORE PUSH1 0x20 ADD SWAP1 DUP2 MSTORE PUSH1 0x20 ADD PUSH1 0x0 KECCAK256 DUP2 SWAP1 SSTORE POP PUSH32 0xDE8CB9AA2C755CF75D5FBC4FEC824B10E311652306F1FCA5C8E57A04758B0AA7 DUP5 DUP5 CALLER PUSH1 0x40 MLOAD PUSH2 0x180F SWAP4 SWAP3 SWAP2 SWAP1 PUSH2 0x4A26 JUMP JUMPDEST PUSH1 0x40 MLOAD DUP1 SWAP2 SUB SWAP1 LOG1 POP POP POP POP JUMP JUMPDEST DUP2 DUP2 PUSH1 0x2 DUP1 PUSH1 0x0 DUP5 PUSH20 0xFFFFFFFFFFFFFFFFFFFFFFFFFFFFFFFFFFFFFFFF AND PUSH20 0xFFFFFFFFFFFFFFFFFFFFFFFFFFFFFFFFFFFFFFFF AND DUP2 MSTORE PUSH1 0x20 ADD SWAP1 DUP2 MSTORE PUSH1 0x20 ADD PUSH1 0x0 KECCAK256 PUSH1 0x0 DUP4 DUP2 MSTORE PUSH1 0x20 ADD SWAP1 DUP2 MSTORE PUSH1 0x20 ADD PUSH1 0x0 KECCAK256 SLOAD EQ PUSH2 0x18B1 JUMPI PUSH1 0x40 MLOAD PUSH32 0x8C379A000000000000000000000000000000000000000000000000000000000 DUP2 MSTORE PUSH1 0x4 ADD PUSH2 0x18A8 SWAP1 PUSH2 0x461B JUMP JUMPDEST PUSH1 0x40 MLOAD DUP1 SWAP2 SUB SWAP1 REVERT JUMPDEST DUP4 DUP4 PUSH1 0x1 PUSH1 0x0 DUP4 PUSH20 0xFFFFFFFFFFFFFFFFFFFFFFFFFFFFFFFFFFFFFFFF AND PUSH20 0xFFFFFFFFFFFFFFFFFFFFFFFFFFFFFFFFFFFFFFFF AND DUP2 MSTORE PUSH1 0x20 ADD SWAP1 DUP2 MSTORE PUSH1 0x20 ADD PUSH1 0x0 KECCAK256 PUSH1 0x0 DUP3 DUP2 MSTORE PUSH1 0x20 ADD SWAP1 DUP2 MSTORE PUSH1 0x20 ADD PUSH1 0x0 KECCAK256 PUSH1 0x1 ADD SLOAD TIMESTAMP GT PUSH2 0x1948 JUMPI PUSH1 0x40 MLOAD PUSH32 0x8C379A000000000000000000000000000000000000000000000000000000000 DUP2 MSTORE PUSH1 0x4 ADD PUSH2 0x193F SWAP1 PUSH2 0x492E JUMP JUMPDEST PUSH1 0x40 MLOAD DUP1 SWAP2 SUB SWAP1 REVERT JUMPDEST PUSH1 0x0 PUSH1 0x1 PUSH1 0x0 DUP9 PUSH20 0xFFFFFFFFFFFFFFFFFFFFFFFFFFFFFFFFFFFFFFFF AND PUSH20 0xFFFFFFFFFFFFFFFFFFFFFFFFFFFFFFFFFFFFFFFF AND DUP2 MSTORE PUSH1 0x20 ADD SWAP1 DUP2 MSTORE PUSH1 0x20 ADD PUSH1 0x0 KECCAK256 PUSH1 0x0 DUP8 DUP2 MSTORE PUSH1 0x20 ADD SWAP1 DUP2 MSTORE PUSH1 0x20 ADD PUSH1 0x0 KECCAK256 PUSH1 0x4 ADD PUSH1 0x0 SWAP1 SLOAD SWAP1 PUSH2 0x100 EXP SWAP1 DIV PUSH20 0xFFFFFFFFFFFFFFFFFFFFFFFFFFFFFFFFFFFFFFFF AND SWAP1 POP PUSH2 0x1A1F DUP8 DUP8 PUSH1 0x1 PUSH1 0x0 DUP12 PUSH20 0xFFFFFFFFFFFFFFFFFFFFFFFFFFFFFFFFFFFFFFFF AND PUSH20 0xFFFFFFFFFFFFFFFFFFFFFFFFFFFFFFFFFFFFFFFF AND DUP2 MSTORE PUSH1 0x20 ADD SWAP1 DUP2 MSTORE PUSH1 0x20 ADD PUSH1 0x0 KECCAK256 PUSH1 0x0 DUP11 DUP2 MSTORE PUSH1 0x20 ADD SWAP1 DUP2 MSTORE PUSH1 0x20 ADD PUSH1 0x0 KECCAK256 PUSH1 0x3 ADD SLOAD DUP5 PUSH2 0x3823 JUMP JUMPDEST PUSH1 0x0 PUSH1 0x3 PUSH1 0x0 DUP10 PUSH20 0xFFFFFFFFFFFFFFFFFFFFFFFFFFFFFFFFFFFFFFFF AND PUSH20 0xFFFFFFFFFFFFFFFFFFFFFFFFFFFFFFFFFFFFFFFF AND DUP2 MSTORE PUSH1 0x20 ADD SWAP1 DUP2 MSTORE PUSH1 0x20 ADD PUSH1 0x0 KECCAK256 PUSH1 0x0 DUP9 DUP2 MSTORE PUSH1 0x20 ADD SWAP1 DUP2 MSTORE PUSH1 0x20 ADD PUSH1 0x0 KECCAK256 PUSH1 0x0 DUP4 PUSH20 0xFFFFFFFFFFFFFFFFFFFFFFFFFFFFFFFFFFFFFFFF AND PUSH20 0xFFFFFFFFFFFFFFFFFFFFFFFFFFFFFFFFFFFFFFFF AND DUP2 MSTORE PUSH1 0x20 ADD SWAP1 DUP2 MSTORE PUSH1 0x20 ADD PUSH1 0x0 KECCAK256 DUP2 SWAP1 SSTORE POP PUSH1 0x7 PUSH1 0x5 PUSH1 0x0 DUP10 PUSH20 0xFFFFFFFFFFFFFFFFFFFFFFFFFFFFFFFFFFFFFFFF AND PUSH20 0xFFFFFFFFFFFFFFFFFFFFFFFFFFFFFFFFFFFFFFFF AND DUP2 MSTORE PUSH1 0x20 ADD SWAP1 DUP2 MSTORE PUSH1 0x20 ADD PUSH1 0x0 KECCAK256 PUSH1 0x0 DUP9 DUP2 MSTORE PUSH1 0x20 ADD SWAP1 DUP2 MSTORE PUSH1 0x20 ADD PUSH1 0x0 KECCAK256 SLOAD DUP2 SLOAD DUP2 LT PUSH2 0x1B16 JUMPI PUSH2 0x1B15 PUSH2 0x4A5D JUMP JUMPDEST JUMPDEST SWAP1 PUSH1 0x0 MSTORE PUSH1 0x20 PUSH1 0x0 KECCAK256 SWAP1 PUSH1 0x2 MUL ADD PUSH1 0x0 DUP1 DUP3 ADD PUSH1 0x0 PUSH2 0x100 EXP DUP2 SLOAD SWAP1 PUSH20 0xFFFFFFFFFFFFFFFFFFFFFFFFFFFFFFFFFFFFFFFF MUL NOT AND SWAP1 SSTORE PUSH1 0x1 DUP3 ADD PUSH1 0x0 SWAP1 SSTORE POP POP PUSH32 0xB31CB4F6609B11A57D1B6B14CC3F81F4B3E609F709A5B1E46892A45F9CC29ED8 DUP8 DUP8 DUP4 PUSH1 0x1 PUSH1 0x0 DUP13 PUSH20 0xFFFFFFFFFFFFFFFFFFFFFFFFFFFFFFFFFFFFFFFF AND PUSH20 0xFFFFFFFFFFFFFFFFFFFFFFFFFFFFFFFFFFFFFFFF AND DUP2 MSTORE PUSH1 0x20 ADD SWAP1 DUP2 MSTORE PUSH1 0x20 ADD PUSH1 0x0 KECCAK256 PUSH1 0x0 DUP12 DUP2 MSTORE PUSH1 0x20 ADD SWAP1 DUP2 MSTORE PUSH1 0x20 ADD PUSH1 0x0 KECCAK256 PUSH1 0x3 ADD SLOAD PUSH1 0x1 PUSH1 0x0 DUP14 PUSH20 0xFFFFFFFFFFFFFFFFFFFFFFFFFFFFFFFFFFFFFFFF AND PUSH20 0xFFFFFFFFFFFFFFFFFFFFFFFFFFFFFFFFFFFFFFFF AND DUP2 MSTORE PUSH1 0x20 ADD SWAP1 DUP2 MSTORE PUSH1 0x20 ADD PUSH1 0x0 KECCAK256 PUSH1 0x0 DUP13 DUP2 MSTORE PUSH1 0x20 ADD SWAP1 DUP2 MSTORE PUSH1 0x20 ADD PUSH1 0x0 KECCAK256 PUSH1 0x5 ADD PUSH1 0x0 SWAP1 SLOAD SWAP1 PUSH2 0x100 EXP SWAP1 DIV PUSH20 0xFFFFFFFFFFFFFFFFFFFFFFFFFFFFFFFFFFFFFFFF AND PUSH1 0x40 MLOAD PUSH2 0x1C53 SWAP6 SWAP5 SWAP4 SWAP3 SWAP2 SWAP1 PUSH2 0x4A8C JUMP JUMPDEST PUSH1 0x40 MLOAD DUP1 SWAP2 SUB SWAP1 LOG1 POP POP POP POP POP POP POP JUMP JUMPDEST PUSH1 0x2 PUSH1 0x20 MSTORE DUP2 PUSH1 0x0 MSTORE PUSH1 0x40 PUSH1 0x0 KECCAK256 PUSH1 0x20 MSTORE DUP1 PUSH1 0x0 MSTORE PUSH1 0x40 PUSH1 0x0 KECCAK256 PUSH1 0x0 SWAP2 POP SWAP2 POP POP SLOAD DUP2 JUMP JUMPDEST DUP4 DUP3 DUP2 PUSH20 0xFFFFFFFFFFFFFFFFFFFFFFFFFFFFFFFFFFFFFFFF AND PUSH4 0x6352211E DUP3 PUSH1 0x40 MLOAD DUP3 PUSH4 0xFFFFFFFF AND PUSH1 0xE0 SHL DUP2 MSTORE PUSH1 0x4 ADD PUSH2 0x1CC4 SWAP2 SWAP1 PUSH2 0x4343 JUMP JUMPDEST PUSH1 0x20 PUSH1 0x40 MLOAD DUP1 DUP4 SUB DUP2 DUP7 GAS STATICCALL ISZERO DUP1 ISZERO PUSH2 0x1CE1 JUMPI RETURNDATASIZE PUSH1 0x0 DUP1 RETURNDATACOPY RETURNDATASIZE PUSH1 0x0 REVERT JUMPDEST POP POP POP POP PUSH1 0x40 MLOAD RETURNDATASIZE PUSH1 0x1F NOT PUSH1 0x1F DUP3 ADD AND DUP3 ADD DUP1 PUSH1 0x40 MSTORE POP DUP2 ADD SWAP1 PUSH2 0x1D05 SWAP2 SWAP1 PUSH2 0x4AF4 JUMP JUMPDEST PUSH20 0xFFFFFFFFFFFFFFFFFFFFFFFFFFFFFFFFFFFFFFFF AND CALLER PUSH20 0xFFFFFFFFFFFFFFFFFFFFFFFFFFFFFFFFFFFFFFFF AND EQ PUSH2 0x1D72 JUMPI PUSH1 0x40 MLOAD PUSH32 0x8C379A000000000000000000000000000000000000000000000000000000000 DUP2 MSTORE PUSH1 0x4 ADD PUSH2 0x1D69 SWAP1 PUSH2 0x488B JUMP JUMPDEST PUSH1 0x40 MLOAD DUP1 SWAP2 SUB SWAP1 REVERT JUMPDEST DUP6 DUP5 PUSH1 0x0 PUSH1 0x2 PUSH1 0x0 DUP5 PUSH20 0xFFFFFFFFFFFFFFFFFFFFFFFFFFFFFFFFFFFFFFFF AND PUSH20 0xFFFFFFFFFFFFFFFFFFFFFFFFFFFFFFFFFFFFFFFF AND DUP2 MSTORE PUSH1 0x20 ADD SWAP1 DUP2 MSTORE PUSH1 0x20 ADD PUSH1 0x0 KECCAK256 PUSH1 0x0 DUP4 DUP2 MSTORE PUSH1 0x20 ADD SWAP1 DUP2 MSTORE PUSH1 0x20 ADD PUSH1 0x0 KECCAK256 SLOAD EQ PUSH2 0x1E07 JUMPI PUSH1 0x40 MLOAD PUSH32 0x8C379A000000000000000000000000000000000000000000000000000000000 DUP2 MSTORE PUSH1 0x4 ADD PUSH2 0x1DFE SWAP1 PUSH2 0x4B6D JUMP JUMPDEST PUSH1 0x40 MLOAD DUP1 SWAP2 SUB SWAP1 REVERT JUMPDEST DUP8 DUP7 DUP2 PUSH20 0xFFFFFFFFFFFFFFFFFFFFFFFFFFFFFFFFFFFFFFFF AND PUSH4 0xE985E9C5 CALLER ADDRESS PUSH1 0x40 MLOAD DUP4 PUSH4 0xFFFFFFFF AND PUSH1 0xE0 SHL DUP2 MSTORE PUSH1 0x4 ADD PUSH2 0x1E44 SWAP3 SWAP2 SWAP1 PUSH2 0x4B8D JUMP JUMPDEST PUSH1 0x20 PUSH1 0x40 MLOAD DUP1 DUP4 SUB DUP2 DUP7 GAS STATICCALL ISZERO DUP1 ISZERO PUSH2 0x1E61 JUMPI RETURNDATASIZE PUSH1 0x0 DUP1 RETURNDATACOPY RETURNDATASIZE PUSH1 0x0 REVERT JUMPDEST POP POP POP POP PUSH1 0x40 MLOAD RETURNDATASIZE PUSH1 0x1F NOT PUSH1 0x1F DUP3 ADD AND DUP3 ADD DUP1 PUSH1 0x40 MSTORE POP DUP2 ADD SWAP1 PUSH2 0x1E85 SWAP2 SWAP1 PUSH2 0x4BEE JUMP JUMPDEST PUSH2 0x1EC4 JUMPI PUSH1 0x40 MLOAD PUSH32 0x8C379A000000000000000000000000000000000000000000000000000000000 DUP2 MSTORE PUSH1 0x4 ADD PUSH2 0x1EBB SWAP1 PUSH2 0x4C67 JUMP JUMPDEST PUSH1 0x40 MLOAD DUP1 SWAP2 SUB SWAP1 REVERT JUMPDEST DUP7 PUSH1 0x0 DUP2 GT PUSH2 0x1F08 JUMPI PUSH1 0x40 MLOAD PUSH32 0x8C379A000000000000000000000000000000000000000000000000000000000 DUP2 MSTORE PUSH1 0x4 ADD PUSH2 0x1EFF SWAP1 PUSH2 0x46F3 JUMP JUMPDEST PUSH1 0x40 MLOAD DUP1 SWAP2 SUB SWAP1 REVERT JUMPDEST PUSH1 0x40 MLOAD DUP1 PUSH1 0x80 ADD PUSH1 0x40 MSTORE DUP1 CALLER PUSH20 0xFFFFFFFFFFFFFFFFFFFFFFFFFFFFFFFFFFFFFFFF AND DUP2 MSTORE PUSH1 0x20 ADD PUSH1 0x0 PUSH20 0xFFFFFFFFFFFFFFFFFFFFFFFFFFFFFFFFFFFFFFFF AND DUP2 MSTORE PUSH1 0x20 ADD DUP12 PUSH20 0xFFFFFFFFFFFFFFFFFFFFFFFFFFFFFFFFFFFFFFFF AND DUP2 MSTORE PUSH1 0x20 ADD DUP10 DUP2 MSTORE POP PUSH1 0x0 DUP1 DUP14 PUSH20 0xFFFFFFFFFFFFFFFFFFFFFFFFFFFFFFFFFFFFFFFF AND PUSH20 0xFFFFFFFFFFFFFFFFFFFFFFFFFFFFFFFFFFFFFFFF AND DUP2 MSTORE PUSH1 0x20 ADD SWAP1 DUP2 MSTORE PUSH1 0x20 ADD PUSH1 0x0 KECCAK256 PUSH1 0x0 DUP12 DUP2 MSTORE PUSH1 0x20 ADD SWAP1 DUP2 MSTORE PUSH1 0x20 ADD PUSH1 0x0 KECCAK256 PUSH1 0x0 DUP3 ADD MLOAD DUP2 PUSH1 0x0 ADD PUSH1 0x0 PUSH2 0x100 EXP DUP2 SLOAD DUP2 PUSH20 0xFFFFFFFFFFFFFFFFFFFFFFFFFFFFFFFFFFFFFFFF MUL NOT AND SWAP1 DUP4 PUSH20 0xFFFFFFFFFFFFFFFFFFFFFFFFFFFFFFFFFFFFFFFF AND MUL OR SWAP1 SSTORE POP PUSH1 0x20 DUP3 ADD MLOAD DUP2 PUSH1 0x1 ADD PUSH1 0x0 PUSH2 0x100 EXP DUP2 SLOAD DUP2 PUSH20 0xFFFFFFFFFFFFFFFFFFFFFFFFFFFFFFFFFFFFFFFF MUL NOT AND SWAP1 DUP4 PUSH20 0xFFFFFFFFFFFFFFFFFFFFFFFFFFFFFFFFFFFFFFFF AND MUL OR SWAP1 SSTORE POP PUSH1 0x40 DUP3 ADD MLOAD DUP2 PUSH1 0x2 ADD PUSH1 0x0 PUSH2 0x100 EXP DUP2 SLOAD DUP2 PUSH20 0xFFFFFFFFFFFFFFFFFFFFFFFFFFFFFFFFFFFFFFFF MUL NOT AND SWAP1 DUP4 PUSH20 0xFFFFFFFFFFFFFFFFFFFFFFFFFFFFFFFFFFFFFFFF AND MUL OR SWAP1 SSTORE POP PUSH1 0x60 DUP3 ADD MLOAD DUP2 PUSH1 0x3 ADD SSTORE SWAP1 POP POP PUSH1 0x1 PUSH1 0x2 PUSH1 0x0 DUP14 PUSH20 0xFFFFFFFFFFFFFFFFFFFFFFFFFFFFFFFFFFFFFFFF AND PUSH20 0xFFFFFFFFFFFFFFFFFFFFFFFFFFFFFFFFFFFFFFFF AND DUP2 MSTORE PUSH1 0x20 ADD SWAP1 DUP2 MSTORE PUSH1 0x20 ADD PUSH1 0x0 KECCAK256 PUSH1 0x0 DUP12 DUP2 MSTORE PUSH1 0x20 ADD SWAP1 DUP2 MSTORE PUSH1 0x20 ADD PUSH1 0x0 KECCAK256 DUP2 SWAP1 SSTORE POP PUSH1 0x6 DUP1 SLOAD SWAP1 POP PUSH1 0x4 PUSH1 0x0 DUP14 PUSH20 0xFFFFFFFFFFFFFFFFFFFFFFFFFFFFFFFFFFFFFFFF AND PUSH20 0xFFFFFFFFFFFFFFFFFFFFFFFFFFFFFFFFFFFFFFFF AND DUP2 MSTORE PUSH1 0x20 ADD SWAP1 DUP2 MSTORE PUSH1 0x20 ADD PUSH1 0x0 KECCAK256 PUSH1 0x0 DUP12 DUP2 MSTORE PUSH1 0x20 ADD SWAP1 DUP2 MSTORE PUSH1 0x20 ADD PUSH1 0x0 KECCAK256 DUP2 SWAP1 SSTORE POP PUSH1 0x6 PUSH1 0x40 MLOAD DUP1 PUSH1 0x40 ADD PUSH1 0x40 MSTORE DUP1 DUP14 PUSH20 0xFFFFFFFFFFFFFFFFFFFFFFFFFFFFFFFFFFFFFFFF AND DUP2 MSTORE PUSH1 0x20 ADD DUP12 DUP2 MSTORE POP SWAP1 DUP1 PUSH1 0x1 DUP2 SLOAD ADD DUP1 DUP3 SSTORE DUP1 SWAP2 POP POP PUSH1 0x1 SWAP1 SUB SWAP1 PUSH1 0x0 MSTORE PUSH1 0x20 PUSH1 0x0 KECCAK256 SWAP1 PUSH1 0x2 MUL ADD PUSH1 0x0 SWAP1 SWAP2 SWAP1 SWAP2 SWAP1 SWAP2 POP PUSH1 0x0 DUP3 ADD MLOAD DUP2 PUSH1 0x0 ADD PUSH1 0x0 PUSH2 0x100 EXP DUP2 SLOAD DUP2 PUSH20 0xFFFFFFFFFFFFFFFFFFFFFFFFFFFFFFFFFFFFFFFF MUL NOT AND SWAP1 DUP4 PUSH20 0xFFFFFFFFFFFFFFFFFFFFFFFFFFFFFFFFFFFFFFFF AND MUL OR SWAP1 SSTORE POP PUSH1 0x20 DUP3 ADD MLOAD DUP2 PUSH1 0x1 ADD SSTORE POP POP DUP11 PUSH20 0xFFFFFFFFFFFFFFFFFFFFFFFFFFFFFFFFFFFFFFFF AND PUSH4 0x42842E0E CALLER ADDRESS DUP13 PUSH1 0x40 MLOAD DUP5 PUSH4 0xFFFFFFFF AND PUSH1 0xE0 SHL DUP2 MSTORE PUSH1 0x4 ADD PUSH2 0x2233 SWAP4 SWAP3 SWAP2 SWAP1 PUSH2 0x4C87 JUMP JUMPDEST PUSH1 0x0 PUSH1 0x40 MLOAD DUP1 DUP4 SUB DUP2 PUSH1 0x0 DUP8 DUP1 EXTCODESIZE ISZERO DUP1 ISZERO PUSH2 0x224D JUMPI PUSH1 0x0 DUP1 REVERT JUMPDEST POP GAS CALL ISZERO DUP1 ISZERO PUSH2 0x2261 JUMPI RETURNDATASIZE PUSH1 0x0 DUP1 RETURNDATACOPY RETURNDATASIZE PUSH1 0x0 REVERT JUMPDEST POP POP POP POP PUSH32 0x78EEAD3CD01ED921C7653D000A6B73AEA643A7B9C066FB7D93EB2EAE8ACC2D9 DUP12 CALLER DUP13 DUP13 DUP13 TIMESTAMP PUSH1 0x40 MLOAD PUSH2 0x229E SWAP7 SWAP6 SWAP5 SWAP4 SWAP3 SWAP2 SWAP1 PUSH2 0x4CBE JUMP JUMPDEST PUSH1 0x40 MLOAD DUP1 SWAP2 SUB SWAP1 LOG1 POP POP POP POP POP POP POP POP POP POP POP JUMP JUMPDEST PUSH2 0x22BB PUSH2 0x3EB9 JUMP JUMPDEST PUSH1 0x1 PUSH1 0x0 DUP5 PUSH20 0xFFFFFFFFFFFFFFFFFFFFFFFFFFFFFFFFFFFFFFFF AND PUSH20 0xFFFFFFFFFFFFFFFFFFFFFFFFFFFFFFFFFFFFFFFF AND DUP2 MSTORE PUSH1 0x20 ADD SWAP1 DUP2 MSTORE PUSH1 0x20 ADD PUSH1 0x0 KECCAK256 PUSH1 0x0 DUP4 DUP2 MSTORE PUSH1 0x20 ADD SWAP1 DUP2 MSTORE PUSH1 0x20 ADD PUSH1 0x0 KECCAK256 PUSH1 0x40 MLOAD DUP1 PUSH1 0xE0 ADD PUSH1 0x40 MSTORE SWAP1 DUP2 PUSH1 0x0 DUP3 ADD SLOAD DUP2 MSTORE PUSH1 0x20 ADD PUSH1 0x1 DUP3 ADD SLOAD DUP2 MSTORE PUSH1 0x20 ADD PUSH1 0x2 DUP3 ADD SLOAD DUP2 MSTORE PUSH1 0x20 ADD PUSH1 0x3 DUP3 ADD SLOAD DUP2 MSTORE PUSH1 0x20 ADD PUSH1 0x4 DUP3 ADD PUSH1 0x0 SWAP1 SLOAD SWAP1 PUSH2 0x100 EXP SWAP1 DIV PUSH20 0xFFFFFFFFFFFFFFFFFFFFFFFFFFFFFFFFFFFFFFFF AND PUSH20 0xFFFFFFFFFFFFFFFFFFFFFFFFFFFFFFFFFFFFFFFF AND PUSH20 0xFFFFFFFFFFFFFFFFFFFFFFFFFFFFFFFFFFFFFFFF AND DUP2 MSTORE PUSH1 0x20 ADD PUSH1 0x5 DUP3 ADD PUSH1 0x0 SWAP1 SLOAD SWAP1 PUSH2 0x100 EXP SWAP1 DIV PUSH20 0xFFFFFFFFFFFFFFFFFFFFFFFFFFFFFFFFFFFFFFFF AND PUSH20 0xFFFFFFFFFFFFFFFFFFFFFFFFFFFFFFFFFFFFFFFF AND PUSH20 0xFFFFFFFFFFFFFFFFFFFFFFFFFFFFFFFFFFFFFFFF AND DUP2 MSTORE PUSH1 0x20 ADD PUSH1 0x6 DUP3 ADD PUSH1 0x0 SWAP1 SLOAD SWAP1 PUSH2 0x100 EXP SWAP1 DIV PUSH20 0xFFFFFFFFFFFFFFFFFFFFFFFFFFFFFFFFFFFFFFFF AND PUSH20 0xFFFFFFFFFFFFFFFFFFFFFFFFFFFFFFFFFFFFFFFF AND PUSH20 0xFFFFFFFFFFFFFFFFFFFFFFFFFFFFFFFFFFFFFFFF AND DUP2 MSTORE POP POP SWAP1 POP SWAP3 SWAP2 POP POP JUMP JUMPDEST PUSH1 0x3 PUSH1 0x20 MSTORE DUP3 PUSH1 0x0 MSTORE PUSH1 0x40 PUSH1 0x0 KECCAK256 PUSH1 0x20 MSTORE DUP2 PUSH1 0x0 MSTORE PUSH1 0x40 PUSH1 0x0 KECCAK256 PUSH1 0x20 MSTORE DUP1 PUSH1 0x0 MSTORE PUSH1 0x40 PUSH1 0x0 KECCAK256 PUSH1 0x0 SWAP3 POP SWAP3 POP POP POP SLOAD DUP2 JUMP JUMPDEST DUP2 DUP2 PUSH1 0x2 DUP1 PUSH1 0x0 DUP5 PUSH20 0xFFFFFFFFFFFFFFFFFFFFFFFFFFFFFFFFFFFFFFFF AND PUSH20 0xFFFFFFFFFFFFFFFFFFFFFFFFFFFFFFFFFFFFFFFF AND DUP2 MSTORE PUSH1 0x20 ADD SWAP1 DUP2 MSTORE PUSH1 0x20 ADD PUSH1 0x0 KECCAK256 PUSH1 0x0 DUP4 DUP2 MSTORE PUSH1 0x20 ADD SWAP1 DUP2 MSTORE PUSH1 0x20 ADD PUSH1 0x0 KECCAK256 SLOAD EQ PUSH2 0x250E JUMPI PUSH1 0x40 MLOAD PUSH32 0x8C379A000000000000000000000000000000000000000000000000000000000 DUP2 MSTORE PUSH1 0x4 ADD PUSH2 0x2505 SWAP1 PUSH2 0x461B JUMP JUMPDEST PUSH1 0x40 MLOAD DUP1 SWAP2 SUB SWAP1 REVERT JUMPDEST DUP4 DUP4 PUSH1 0x1 PUSH1 0x0 DUP4 PUSH20 0xFFFFFFFFFFFFFFFFFFFFFFFFFFFFFFFFFFFFFFFF AND PUSH20 0xFFFFFFFFFFFFFFFFFFFFFFFFFFFFFFFFFFFFFFFF AND DUP2 MSTORE PUSH1 0x20 ADD SWAP1 DUP2 MSTORE PUSH1 0x20 ADD PUSH1 0x0 KECCAK256 PUSH1 0x0 DUP3 DUP2 MSTORE PUSH1 0x20 ADD SWAP1 DUP2 MSTORE PUSH1 0x20 ADD PUSH1 0x0 KECCAK256 PUSH1 0x5 ADD PUSH1 0x0 SWAP1 SLOAD SWAP1 PUSH2 0x100 EXP SWAP1 DIV PUSH20 0xFFFFFFFFFFFFFFFFFFFFFFFFFFFFFFFFFFFFFFFF AND PUSH20 0xFFFFFFFFFFFFFFFFFFFFFFFFFFFFFFFFFFFFFFFF AND CALLER PUSH20 0xFFFFFFFFFFFFFFFFFFFFFFFFFFFFFFFFFFFFFFFF AND EQ PUSH2 0x25F1 JUMPI PUSH1 0x40 MLOAD PUSH32 0x8C379A000000000000000000000000000000000000000000000000000000000 DUP2 MSTORE PUSH1 0x4 ADD PUSH2 0x25E8 SWAP1 PUSH2 0x4D6B JUMP JUMPDEST PUSH1 0x40 MLOAD DUP1 SWAP2 SUB SWAP1 REVERT JUMPDEST DUP6 DUP6 PUSH1 0x1 PUSH1 0x0 DUP4 PUSH20 0xFFFFFFFFFFFFFFFFFFFFFFFFFFFFFFFFFFFFFFFF AND PUSH20 0xFFFFFFFFFFFFFFFFFFFFFFFFFFFFFFFFFFFFFFFF AND DUP2 MSTORE PUSH1 0x20 ADD SWAP1 DUP2 MSTORE PUSH1 0x20 ADD PUSH1 0x0 KECCAK256 PUSH1 0x0 DUP3 DUP2 MSTORE PUSH1 0x20 ADD SWAP1 DUP2 MSTORE PUSH1 0x20 ADD PUSH1 0x0 KECCAK256 PUSH1 0x1 ADD SLOAD TIMESTAMP LT PUSH2 0x2688 JUMPI PUSH1 0x40 MLOAD PUSH32 0x8C379A000000000000000000000000000000000000000000000000000000000 DUP2 MSTORE PUSH1 0x4 ADD PUSH2 0x267F SWAP1 PUSH2 0x4687 JUMP JUMPDEST PUSH1 0x40 MLOAD DUP1 SWAP2 SUB SWAP1 REVERT JUMPDEST DUP8 DUP8 PUSH1 0x1 PUSH1 0x0 DUP4 PUSH20 0xFFFFFFFFFFFFFFFFFFFFFFFFFFFFFFFFFFFFFFFF AND PUSH20 0xFFFFFFFFFFFFFFFFFFFFFFFFFFFFFFFFFFFFFFFF AND DUP2 MSTORE PUSH1 0x20 ADD SWAP1 DUP2 MSTORE PUSH1 0x20 ADD PUSH1 0x0 KECCAK256 PUSH1 0x0 DUP3 DUP2 MSTORE PUSH1 0x20 ADD SWAP1 DUP2 MSTORE PUSH1 0x20 ADD PUSH1 0x0 KECCAK256 PUSH1 0x4 ADD PUSH1 0x0 SWAP1 SLOAD SWAP1 PUSH2 0x100 EXP SWAP1 DIV PUSH20 0xFFFFFFFFFFFFFFFFFFFFFFFFFFFFFFFFFFFFFFFF AND PUSH20 0xFFFFFFFFFFFFFFFFFFFFFFFFFFFFFFFFFFFFFFFF AND PUSH1 0x0 PUSH20 0xFFFFFFFFFFFFFFFFFFFFFFFFFFFFFFFFFFFFFFFF AND EQ PUSH2 0x276C JUMPI PUSH1 0x40 MLOAD PUSH32 0x8C379A000000000000000000000000000000000000000000000000000000000 DUP2 MSTORE PUSH1 0x4 ADD PUSH2 0x2763 SWAP1 PUSH2 0x4DD7 JUMP JUMPDEST PUSH1 0x40 MLOAD DUP1 SWAP2 SUB SWAP1 REVERT JUMPDEST PUSH1 0x0 PUSH1 0x2 PUSH1 0x0 DUP13 PUSH20 0xFFFFFFFFFFFFFFFFFFFFFFFFFFFFFFFFFFFFFFFF AND PUSH20 0xFFFFFFFFFFFFFFFFFFFFFFFFFFFFFFFFFFFFFFFF AND DUP2 MSTORE PUSH1 0x20 ADD SWAP1 DUP2 MSTORE PUSH1 0x20 ADD PUSH1 0x0 KECCAK256 PUSH1 0x0 DUP12 DUP2 MSTORE PUSH1 0x20 ADD SWAP1 DUP2 MSTORE PUSH1 0x20 ADD PUSH1 0x0 KECCAK256 DUP2 SWAP1 SSTORE POP DUP10 PUSH20 0xFFFFFFFFFFFFFFFFFFFFFFFFFFFFFFFFFFFFFFFF AND PUSH4 0x42842E0E ADDRESS CALLER DUP13 PUSH1 0x40 MLOAD DUP5 PUSH4 0xFFFFFFFF AND PUSH1 0xE0 SHL DUP2 MSTORE PUSH1 0x4 ADD PUSH2 0x27FF SWAP4 SWAP3 SWAP2 SWAP1 PUSH2 0x4C87 JUMP JUMPDEST PUSH1 0x0 PUSH1 0x40 MLOAD DUP1 DUP4 SUB DUP2 PUSH1 0x0 DUP8 DUP1 EXTCODESIZE ISZERO DUP1 ISZERO PUSH2 0x2819 JUMPI PUSH1 0x0 DUP1 REVERT JUMPDEST POP GAS CALL ISZERO DUP1 ISZERO PUSH2 0x282D JUMPI RETURNDATASIZE PUSH1 0x0 DUP1 RETURNDATACOPY RETURNDATASIZE PUSH1 0x0 REVERT JUMPDEST POP POP POP POP PUSH1 0x7 PUSH1 0x5 PUSH1 0x0 DUP13 PUSH20 0xFFFFFFFFFFFFFFFFFFFFFFFFFFFFFFFFFFFFFFFF AND PUSH20 0xFFFFFFFFFFFFFFFFFFFFFFFFFFFFFFFFFFFFFFFF AND DUP2 MSTORE PUSH1 0x20 ADD SWAP1 DUP2 MSTORE PUSH1 0x20 ADD PUSH1 0x0 KECCAK256 PUSH1 0x0 DUP12 DUP2 MSTORE PUSH1 0x20 ADD SWAP1 DUP2 MSTORE PUSH1 0x20 ADD PUSH1 0x0 KECCAK256 SLOAD DUP2 SLOAD DUP2 LT PUSH2 0x2895 JUMPI PUSH2 0x2894 PUSH2 0x4A5D JUMP JUMPDEST JUMPDEST SWAP1 PUSH1 0x0 MSTORE PUSH1 0x20 PUSH1 0x0 KECCAK256 SWAP1 PUSH1 0x2 MUL ADD PUSH1 0x0 DUP1 DUP3 ADD PUSH1 0x0 PUSH2 0x100 EXP DUP2 SLOAD SWAP1 PUSH20 0xFFFFFFFFFFFFFFFFFFFFFFFFFFFFFFFFFFFFFFFF MUL NOT AND SWAP1 SSTORE PUSH1 0x1 DUP3 ADD PUSH1 0x0 SWAP1 SSTORE POP POP PUSH32 0xB9D411977D4EE731F87BB8F16EB6F8C1FB579CFF684642052BF6084E6E33238D DUP11 DUP11 CALLER PUSH1 0x40 MLOAD PUSH2 0x2908 SWAP4 SWAP3 SWAP2 SWAP1 PUSH2 0x4A26 JUMP JUMPDEST PUSH1 0x40 MLOAD DUP1 SWAP2 SUB SWAP1 LOG1 POP POP POP POP POP POP POP POP POP POP JUMP JUMPDEST PUSH2 0x2924 PUSH2 0x3F38 JUMP JUMPDEST PUSH1 0x0 DUP1 DUP5 PUSH20 0xFFFFFFFFFFFFFFFFFFFFFFFFFFFFFFFFFFFFFFFF AND PUSH20 0xFFFFFFFFFFFFFFFFFFFFFFFFFFFFFFFFFFFFFFFF AND DUP2 MSTORE PUSH1 0x20 ADD SWAP1 DUP2 MSTORE PUSH1 0x20 ADD PUSH1 0x0 KECCAK256 PUSH1 0x0 DUP4 DUP2 MSTORE PUSH1 0x20 ADD SWAP1 DUP2 MSTORE PUSH1 0x20 ADD PUSH1 0x0 KECCAK256 PUSH1 0x40 MLOAD DUP1 PUSH1 0x80 ADD PUSH1 0x40 MSTORE SWAP1 DUP2 PUSH1 0x0 DUP3 ADD PUSH1 0x0 SWAP1 SLOAD SWAP1 PUSH2 0x100 EXP SWAP1 DIV PUSH20 0xFFFFFFFFFFFFFFFFFFFFFFFFFFFFFFFFFFFFFFFF AND PUSH20 0xFFFFFFFFFFFFFFFFFFFFFFFFFFFFFFFFFFFFFFFF AND PUSH20 0xFFFFFFFFFFFFFFFFFFFFFFFFFFFFFFFFFFFFFFFF AND DUP2 MSTORE PUSH1 0x20 ADD PUSH1 0x1 DUP3 ADD PUSH1 0x0 SWAP1 SLOAD SWAP1 PUSH2 0x100 EXP SWAP1 DIV PUSH20 0xFFFFFFFFFFFFFFFFFFFFFFFFFFFFFFFFFFFFFFFF AND PUSH20 0xFFFFFFFFFFFFFFFFFFFFFFFFFFFFFFFFFFFFFFFF AND PUSH20 0xFFFFFFFFFFFFFFFFFFFFFFFFFFFFFFFFFFFFFFFF AND DUP2 MSTORE PUSH1 0x20 ADD PUSH1 0x2 DUP3 ADD PUSH1 0x0 SWAP1 SLOAD SWAP1 PUSH2 0x100 EXP SWAP1 DIV PUSH20 0xFFFFFFFFFFFFFFFFFFFFFFFFFFFFFFFFFFFFFFFF AND PUSH20 0xFFFFFFFFFFFFFFFFFFFFFFFFFFFFFFFFFFFFFFFF AND PUSH20 0xFFFFFFFFFFFFFFFFFFFFFFFFFFFFFFFFFFFFFFFF AND DUP2 MSTORE PUSH1 0x20 ADD PUSH1 0x3 DUP3 ADD SLOAD DUP2 MSTORE POP POP SWAP1 POP SWAP3 SWAP2 POP POP JUMP JUMPDEST PUSH1 0x60 PUSH1 0x6 DUP1 SLOAD DUP1 PUSH1 0x20 MUL PUSH1 0x20 ADD PUSH1 0x40 MLOAD SWAP1 DUP2 ADD PUSH1 0x40 MSTORE DUP1 SWAP3 SWAP2 SWAP1 DUP2 DUP2 MSTORE PUSH1 0x20 ADD PUSH1 0x0 SWAP1 JUMPDEST DUP3 DUP3 LT ISZERO PUSH2 0x2B48 JUMPI DUP4 DUP3 SWAP1 PUSH1 0x0 MSTORE PUSH1 0x20 PUSH1 0x0 KECCAK256 SWAP1 PUSH1 0x2 MUL ADD PUSH1 0x40 MLOAD DUP1 PUSH1 0x40 ADD PUSH1 0x40 MSTORE SWAP1 DUP2 PUSH1 0x0 DUP3 ADD PUSH1 0x0 SWAP1 SLOAD SWAP1 PUSH2 0x100 EXP SWAP1 DIV PUSH20 0xFFFFFFFFFFFFFFFFFFFFFFFFFFFFFFFFFFFFFFFF AND PUSH20 0xFFFFFFFFFFFFFFFFFFFFFFFFFFFFFFFFFFFFFFFF AND PUSH20 0xFFFFFFFFFFFFFFFFFFFFFFFFFFFFFFFFFFFFFFFF AND DUP2 MSTORE PUSH1 0x20 ADD PUSH1 0x1 DUP3 ADD SLOAD DUP2 MSTORE POP POP DUP2 MSTORE PUSH1 0x20 ADD SWAP1 PUSH1 0x1 ADD SWAP1 PUSH2 0x2AB6 JUMP JUMPDEST POP POP POP POP SWAP1 POP SWAP1 JUMP JUMPDEST DUP3 DUP3 PUSH1 0x1 PUSH1 0x2 PUSH1 0x0 DUP5 PUSH20 0xFFFFFFFFFFFFFFFFFFFFFFFFFFFFFFFFFFFFFFFF AND PUSH20 0xFFFFFFFFFFFFFFFFFFFFFFFFFFFFFFFFFFFFFFFF AND DUP2 MSTORE PUSH1 0x20 ADD SWAP1 DUP2 MSTORE PUSH1 0x20 ADD PUSH1 0x0 KECCAK256 PUSH1 0x0 DUP4 DUP2 MSTORE PUSH1 0x20 ADD SWAP1 DUP2 MSTORE PUSH1 0x20 ADD PUSH1 0x0 KECCAK256 SLOAD EQ PUSH2 0x2BE6 JUMPI PUSH1 0x40 MLOAD PUSH32 0x8C379A000000000000000000000000000000000000000000000000000000000 DUP2 MSTORE PUSH1 0x4 ADD PUSH2 0x2BDD SWAP1 PUSH2 0x481F JUMP JUMPDEST PUSH1 0x40 MLOAD DUP1 SWAP2 SUB SWAP1 REVERT JUMPDEST DUP3 PUSH1 0x0 DUP2 GT PUSH2 0x2C2A JUMPI PUSH1 0x40 MLOAD PUSH32 0x8C379A000000000000000000000000000000000000000000000000000000000 DUP2 MSTORE PUSH1 0x4 ADD PUSH2 0x2C21 SWAP1 PUSH2 0x46F3 JUMP JUMPDEST PUSH1 0x40 MLOAD DUP1 SWAP2 SUB SWAP1 REVERT JUMPDEST DUP6 DUP6 DUP6 PUSH1 0x0 DUP1 DUP5 PUSH20 0xFFFFFFFFFFFFFFFFFFFFFFFFFFFFFFFFFFFFFFFF AND PUSH20 0xFFFFFFFFFFFFFFFFFFFFFFFFFFFFFFFFFFFFFFFF AND DUP2 MSTORE PUSH1 0x20 ADD SWAP1 DUP2 MSTORE PUSH1 0x20 ADD PUSH1 0x0 KECCAK256 PUSH1 0x0 DUP4 DUP2 MSTORE PUSH1 0x20 ADD SWAP1 DUP2 MSTORE PUSH1 0x20 ADD PUSH1 0x0 KECCAK256 PUSH1 0x3 ADD SLOAD DUP2 LT ISZERO PUSH2 0x2CC2 JUMPI PUSH1 0x40 MLOAD PUSH32 0x8C379A000000000000000000000000000000000000000000000000000000000 DUP2 MSTORE PUSH1 0x4 ADD PUSH2 0x2CB9 SWAP1 PUSH2 0x4E43 JUMP JUMPDEST PUSH1 0x40 MLOAD DUP1 SWAP2 SUB SWAP1 REVERT JUMPDEST DUP9 PUSH20 0xFFFFFFFFFFFFFFFFFFFFFFFFFFFFFFFFFFFFFFFF AND PUSH4 0x42842E0E ADDRESS CALLER DUP12 PUSH1 0x40 MLOAD DUP5 PUSH4 0xFFFFFFFF AND PUSH1 0xE0 SHL DUP2 MSTORE PUSH1 0x4 ADD PUSH2 0x2CFF SWAP4 SWAP3 SWAP2 SWAP1 PUSH2 0x4C87 JUMP JUMPDEST PUSH1 0x0 PUSH1 0x40 MLOAD DUP1 DUP4 SUB DUP2 PUSH1 0x0 DUP8 DUP1 EXTCODESIZE ISZERO DUP1 ISZERO PUSH2 0x2D19 JUMPI PUSH1 0x0 DUP1 REVERT JUMPDEST POP GAS CALL ISZERO DUP1 ISZERO PUSH2 0x2D2D JUMPI RETURNDATASIZE PUSH1 0x0 DUP1 RETURNDATACOPY RETURNDATASIZE PUSH1 0x0 REVERT JUMPDEST POP POP POP POP PUSH1 0x0 PUSH1 0x2 PUSH1 0x0 DUP12 PUSH20 0xFFFFFFFFFFFFFFFFFFFFFFFFFFFFFFFFFFFFFFFF AND PUSH20 0xFFFFFFFFFFFFFFFFFFFFFFFFFFFFFFFFFFFFFFFF AND DUP2 MSTORE PUSH1 0x20 ADD SWAP1 DUP2 MSTORE PUSH1 0x20 ADD PUSH1 0x0 KECCAK256 PUSH1 0x0 DUP11 DUP2 MSTORE PUSH1 0x20 ADD SWAP1 DUP2 MSTORE PUSH1 0x20 ADD PUSH1 0x0 KECCAK256 DUP2 SWAP1 SSTORE POP PUSH1 0x6 PUSH1 0x4 PUSH1 0x0 DUP12 PUSH20 0xFFFFFFFFFFFFFFFFFFFFFFFFFFFFFFFFFFFFFFFF AND PUSH20 0xFFFFFFFFFFFFFFFFFFFFFFFFFFFFFFFFFFFFFFFF AND DUP2 MSTORE PUSH1 0x20 ADD SWAP1 DUP2 MSTORE PUSH1 0x20 ADD PUSH1 0x0 KECCAK256 PUSH1 0x0 DUP11 DUP2 MSTORE PUSH1 0x20 ADD SWAP1 DUP2 MSTORE PUSH1 0x20 ADD PUSH1 0x0 KECCAK256 SLOAD DUP2 SLOAD DUP2 LT PUSH2 0x2DEB JUMPI PUSH2 0x2DEA PUSH2 0x4A5D JUMP JUMPDEST JUMPDEST SWAP1 PUSH1 0x0 MSTORE PUSH1 0x20 PUSH1 0x0 KECCAK256 SWAP1 PUSH1 0x2 MUL ADD PUSH1 0x0 DUP1 DUP3 ADD PUSH1 0x0 PUSH2 0x100 EXP DUP2 SLOAD SWAP1 PUSH20 0xFFFFFFFFFFFFFFFFFFFFFFFFFFFFFFFFFFFFFFFF MUL NOT AND SWAP1 SSTORE PUSH1 0x1 DUP3 ADD PUSH1 0x0 SWAP1 SSTORE POP POP CALLER PUSH1 0x0 DUP1 DUP12 PUSH20 0xFFFFFFFFFFFFFFFFFFFFFFFFFFFFFFFFFFFFFFFF AND PUSH20 0xFFFFFFFFFFFFFFFFFFFFFFFFFFFFFFFFFFFFFFFF AND DUP2 MSTORE PUSH1 0x20 ADD SWAP1 DUP2 MSTORE PUSH1 0x20 ADD PUSH1 0x0 KECCAK256 PUSH1 0x0 DUP11 DUP2 MSTORE PUSH1 0x20 ADD SWAP1 DUP2 MSTORE PUSH1 0x20 ADD PUSH1 0x0 KECCAK256 PUSH1 0x1 ADD PUSH1 0x0 PUSH2 0x100 EXP DUP2 SLOAD DUP2 PUSH20 0xFFFFFFFFFFFFFFFFFFFFFFFFFFFFFFFFFFFFFFFF MUL NOT AND SWAP1 DUP4 PUSH20 0xFFFFFFFFFFFFFFFFFFFFFFFFFFFFFFFFFFFFFFFF AND MUL OR SWAP1 SSTORE POP PUSH2 0x2FFD PUSH1 0x0 DUP1 DUP12 PUSH20 0xFFFFFFFFFFFFFFFFFFFFFFFFFFFFFFFFFFFFFFFF AND PUSH20 0xFFFFFFFFFFFFFFFFFFFFFFFFFFFFFFFFFFFFFFFF AND DUP2 MSTORE PUSH1 0x20 ADD SWAP1 DUP2 MSTORE PUSH1 0x20 ADD PUSH1 0x0 KECCAK256 PUSH1 0x0 DUP11 DUP2 MSTORE PUSH1 0x20 ADD SWAP1 DUP2 MSTORE PUSH1 0x20 ADD PUSH1 0x0 KECCAK256 PUSH1 0x0 ADD PUSH1 0x0 SWAP1 SLOAD SWAP1 PUSH2 0x100 EXP SWAP1 DIV PUSH20 0xFFFFFFFFFFFFFFFFFFFFFFFFFFFFFFFFFFFFFFFF AND PUSH1 0x0 DUP1 DUP13 PUSH20 0xFFFFFFFFFFFFFFFFFFFFFFFFFFFFFFFFFFFFFFFF AND PUSH20 0xFFFFFFFFFFFFFFFFFFFFFFFFFFFFFFFFFFFFFFFF AND DUP2 MSTORE PUSH1 0x20 ADD SWAP1 DUP2 MSTORE PUSH1 0x20 ADD PUSH1 0x0 KECCAK256 PUSH1 0x0 DUP12 DUP2 MSTORE PUSH1 0x20 ADD SWAP1 DUP2 MSTORE PUSH1 0x20 ADD PUSH1 0x0 KECCAK256 PUSH1 0x2 ADD PUSH1 0x0 SWAP1 SLOAD SWAP1 PUSH2 0x100 EXP SWAP1 DIV PUSH20 0xFFFFFFFFFFFFFFFFFFFFFFFFFFFFFFFFFFFFFFFF AND PUSH1 0x0 DUP1 DUP14 PUSH20 0xFFFFFFFFFFFFFFFFFFFFFFFFFFFFFFFFFFFFFFFF AND PUSH20 0xFFFFFFFFFFFFFFFFFFFFFFFFFFFFFFFFFFFFFFFF AND DUP2 MSTORE PUSH1 0x20 ADD SWAP1 DUP2 MSTORE PUSH1 0x20 ADD PUSH1 0x0 KECCAK256 PUSH1 0x0 DUP13 DUP2 MSTORE PUSH1 0x20 ADD SWAP1 DUP2 MSTORE PUSH1 0x20 ADD PUSH1 0x0 KECCAK256 PUSH1 0x3 ADD SLOAD PUSH2 0x39DF JUMP JUMPDEST PUSH32 0x9FA3B1BB9266E05722B54A7A564D02A274BC80D39F4AF21E6BE405480996CEBA DUP10 CALLER DUP11 DUP11 PUSH1 0x40 MLOAD PUSH2 0x3032 SWAP5 SWAP4 SWAP3 SWAP2 SWAP1 PUSH2 0x4E63 JUMP JUMPDEST PUSH1 0x40 MLOAD DUP1 SWAP2 SUB SWAP1 LOG1 POP POP POP POP POP POP POP POP POP JUMP JUMPDEST DUP6 DUP5 DUP2 PUSH20 0xFFFFFFFFFFFFFFFFFFFFFFFFFFFFFFFFFFFFFFFF AND PUSH4 0x6352211E DUP3 PUSH1 0x40 MLOAD DUP3 PUSH4 0xFFFFFFFF AND PUSH1 0xE0 SHL DUP2 MSTORE PUSH1 0x4 ADD PUSH2 0x3080 SWAP2 SWAP1 PUSH2 0x4343 JUMP JUMPDEST PUSH1 0x20 PUSH1 0x40 MLOAD DUP1 DUP4 SUB DUP2 DUP7 GAS STATICCALL ISZERO DUP1 ISZERO PUSH2 0x309D JUMPI RETURNDATASIZE PUSH1 0x0 DUP1 RETURNDATACOPY RETURNDATASIZE PUSH1 0x0 REVERT JUMPDEST POP POP POP POP PUSH1 0x40 MLOAD RETURNDATASIZE PUSH1 0x1F NOT PUSH1 0x1F DUP3 ADD AND DUP3 ADD DUP1 PUSH1 0x40 MSTORE POP DUP2 ADD SWAP1 PUSH2 0x30C1 SWAP2 SWAP1 PUSH2 0x4AF4 JUMP JUMPDEST PUSH20 0xFFFFFFFFFFFFFFFFFFFFFFFFFFFFFFFFFFFFFFFF AND CALLER PUSH20 0xFFFFFFFFFFFFFFFFFFFFFFFFFFFFFFFFFFFFFFFF AND EQ PUSH2 0x312E JUMPI PUSH1 0x40 MLOAD PUSH32 0x8C379A000000000000000000000000000000000000000000000000000000000 DUP2 MSTORE PUSH1 0x4 ADD PUSH2 0x3125 SWAP1 PUSH2 0x488B JUMP JUMPDEST PUSH1 0x40 MLOAD DUP1 SWAP2 SUB SWAP1 REVERT JUMPDEST DUP8 DUP7 PUSH1 0x0 PUSH1 0x2 PUSH1 0x0 DUP5 PUSH20 0xFFFFFFFFFFFFFFFFFFFFFFFFFFFFFFFFFFFFFFFF AND PUSH20 0xFFFFFFFFFFFFFFFFFFFFFFFFFFFFFFFFFFFFFFFF AND DUP2 MSTORE PUSH1 0x20 ADD SWAP1 DUP2 MSTORE PUSH1 0x20 ADD PUSH1 0x0 KECCAK256 PUSH1 0x0 DUP4 DUP2 MSTORE PUSH1 0x20 ADD SWAP1 DUP2 MSTORE PUSH1 0x20 ADD PUSH1 0x0 KECCAK256 SLOAD EQ PUSH2 0x31C3 JUMPI PUSH1 0x40 MLOAD PUSH32 0x8C379A000000000000000000000000000000000000000000000000000000000 DUP2 MSTORE PUSH1 0x4 ADD PUSH2 0x31BA SWAP1 PUSH2 0x4B6D JUMP JUMPDEST PUSH1 0x40 MLOAD DUP1 SWAP2 SUB SWAP1 REVERT JUMPDEST DUP10 DUP9 DUP2 PUSH20 0xFFFFFFFFFFFFFFFFFFFFFFFFFFFFFFFFFFFFFFFF AND PUSH4 0xE985E9C5 CALLER ADDRESS PUSH1 0x40 MLOAD DUP4 PUSH4 0xFFFFFFFF AND PUSH1 0xE0 SHL DUP2 MSTORE PUSH1 0x4 ADD PUSH2 0x3200 SWAP3 SWAP2 SWAP1 PUSH2 0x4B8D JUMP JUMPDEST PUSH1 0x20 PUSH1 0x40 MLOAD DUP1 DUP4 SUB DUP2 DUP7 GAS STATICCALL ISZERO DUP1 ISZERO PUSH2 0x321D JUMPI RETURNDATASIZE PUSH1 0x0 DUP1 RETURNDATACOPY RETURNDATASIZE PUSH1 0x0 REVERT JUMPDEST POP POP POP POP PUSH1 0x40 MLOAD RETURNDATASIZE PUSH1 0x1F NOT PUSH1 0x1F DUP3 ADD AND DUP3 ADD DUP1 PUSH1 0x40 MSTORE POP DUP2 ADD SWAP1 PUSH2 0x3241 SWAP2 SWAP1 PUSH2 0x4BEE JUMP JUMPDEST PUSH2 0x3280 JUMPI PUSH1 0x40 MLOAD PUSH32 0x8C379A000000000000000000000000000000000000000000000000000000000 DUP2 MSTORE PUSH1 0x4 ADD PUSH2 0x3277 SWAP1 PUSH2 0x4C67 JUMP JUMPDEST PUSH1 0x40 MLOAD DUP1 SWAP2 SUB SWAP1 REVERT JUMPDEST DUP7 PUSH1 0x0 DUP2 GT PUSH2 0x32C4 JUMPI PUSH1 0x40 MLOAD PUSH32 0x8C379A000000000000000000000000000000000000000000000000000000000 DUP2 MSTORE PUSH1 0x4 ADD PUSH2 0x32BB SWAP1 PUSH2 0x46F3 JUMP JUMPDEST PUSH1 0x40 MLOAD DUP1 SWAP2 SUB SWAP1 REVERT JUMPDEST PUSH2 0x32D2 DUP14 DUP14 DUP14 DUP14 DUP14 DUP14 PUSH2 0x3A33 JUMP JUMPDEST PUSH1 0x7 DUP1 SLOAD SWAP1 POP PUSH1 0x5 PUSH1 0x0 DUP16 PUSH20 0xFFFFFFFFFFFFFFFFFFFFFFFFFFFFFFFFFFFFFFFF AND PUSH20 0xFFFFFFFFFFFFFFFFFFFFFFFFFFFFFFFFFFFFFFFF AND DUP2 MSTORE PUSH1 0x20 ADD SWAP1 DUP2 MSTORE PUSH1 0x20 ADD PUSH1 0x0 KECCAK256 PUSH1 0x0 DUP14 DUP2 MSTORE PUSH1 0x20 ADD SWAP1 DUP2 MSTORE PUSH1 0x20 ADD PUSH1 0x0 KECCAK256 DUP2 SWAP1 SSTORE POP PUSH1 0x7 PUSH1 0x40 MLOAD DUP1 PUSH1 0x40 ADD PUSH1 0x40 MSTORE DUP1 DUP16 PUSH20 0xFFFFFFFFFFFFFFFFFFFFFFFFFFFFFFFFFFFFFFFF AND DUP2 MSTORE PUSH1 0x20 ADD DUP14 DUP2 MSTORE POP SWAP1 DUP1 PUSH1 0x1 DUP2 SLOAD ADD DUP1 DUP3 SSTORE DUP1 SWAP2 POP POP PUSH1 0x1 SWAP1 SUB SWAP1 PUSH1 0x0 MSTORE PUSH1 0x20 PUSH1 0x0 KECCAK256 SWAP1 PUSH1 0x2 MUL ADD PUSH1 0x0 SWAP1 SWAP2 SWAP1 SWAP2 SWAP1 SWAP2 POP PUSH1 0x0 DUP3 ADD MLOAD DUP2 PUSH1 0x0 ADD PUSH1 0x0 PUSH2 0x100 EXP DUP2 SLOAD DUP2 PUSH20 0xFFFFFFFFFFFFFFFFFFFFFFFFFFFFFFFFFFFFFFFF MUL NOT AND SWAP1 DUP4 PUSH20 0xFFFFFFFFFFFFFFFFFFFFFFFFFFFFFFFFFFFFFFFF AND MUL OR SWAP1 SSTORE POP PUSH1 0x20 DUP3 ADD MLOAD DUP2 PUSH1 0x1 ADD SSTORE POP POP PUSH32 0xECBC6A097DA08DBF6F781CE204AAD454CE3DC8F112C51C7A56F1671DE89CEE8C DUP14 CALLER DUP15 DUP15 DUP15 DUP15 DUP15 PUSH1 0x40 MLOAD PUSH2 0x3410 SWAP8 SWAP7 SWAP6 SWAP5 SWAP4 SWAP3 SWAP2 SWAP1 PUSH2 0x4EA8 JUMP JUMPDEST PUSH1 0x40 MLOAD DUP1 SWAP2 SUB SWAP1 LOG1 POP POP POP POP POP POP POP POP POP POP POP POP POP JUMP JUMPDEST DUP2 DUP2 PUSH1 0x1 PUSH1 0x2 PUSH1 0x0 DUP5 PUSH20 0xFFFFFFFFFFFFFFFFFFFFFFFFFFFFFFFFFFFFFFFF AND PUSH20 0xFFFFFFFFFFFFFFFFFFFFFFFFFFFFFFFFFFFFFFFF AND DUP2 MSTORE PUSH1 0x20 ADD SWAP1 DUP2 MSTORE PUSH1 0x20 ADD PUSH1 0x0 KECCAK256 PUSH1 0x0 DUP4 DUP2 MSTORE PUSH1 0x20 ADD SWAP1 DUP2 MSTORE PUSH1 0x20 ADD PUSH1 0x0 KECCAK256 SLOAD EQ PUSH2 0x34BC JUMPI PUSH1 0x40 MLOAD PUSH32 0x8C379A000000000000000000000000000000000000000000000000000000000 DUP2 MSTORE PUSH1 0x4 ADD PUSH2 0x34B3 SWAP1 PUSH2 0x481F JUMP JUMPDEST PUSH1 0x40 MLOAD DUP1 SWAP2 SUB SWAP1 REVERT JUMPDEST DUP4 DUP4 PUSH1 0x0 DUP1 DUP4 PUSH20 0xFFFFFFFFFFFFFFFFFFFFFFFFFFFFFFFFFFFFFFFF AND PUSH20 0xFFFFFFFFFFFFFFFFFFFFFFFFFFFFFFFFFFFFFFFF AND DUP2 MSTORE PUSH1 0x20 ADD SWAP1 DUP2 MSTORE PUSH1 0x20 ADD PUSH1 0x0 KECCAK256 PUSH1 0x0 DUP3 DUP2 MSTORE PUSH1 0x20 ADD SWAP1 DUP2 MSTORE PUSH1 0x20 ADD PUSH1 0x0 KECCAK256 PUSH1 0x0 ADD PUSH1 0x0 SWAP1 SLOAD SWAP1 PUSH2 0x100 EXP SWAP1 DIV PUSH20 0xFFFFFFFFFFFFFFFFFFFFFFFFFFFFFFFFFFFFFFFF AND PUSH20 0xFFFFFFFFFFFFFFFFFFFFFFFFFFFFFFFFFFFFFFFF AND CALLER PUSH20 0xFFFFFFFFFFFFFFFFFFFFFFFFFFFFFFFFFFFFFFFF AND EQ PUSH2 0x359E JUMPI PUSH1 0x40 MLOAD PUSH32 0x8C379A000000000000000000000000000000000000000000000000000000000 DUP2 MSTORE PUSH1 0x4 ADD PUSH2 0x3595 SWAP1 PUSH2 0x488B JUMP JUMPDEST PUSH1 0x40 MLOAD DUP1 SWAP2 SUB SWAP1 REVERT JUMPDEST DUP6 PUSH20 0xFFFFFFFFFFFFFFFFFFFFFFFFFFFFFFFFFFFFFFFF AND PUSH4 0x42842E0E ADDRESS CALLER DUP9 PUSH1 0x40 MLOAD DUP5 PUSH4 0xFFFFFFFF AND PUSH1 0xE0 SHL DUP2 MSTORE PUSH1 0x4 ADD PUSH2 0x35DB SWAP4 SWAP3 SWAP2 SWAP1 PUSH2 0x4C87 JUMP JUMPDEST PUSH1 0x0 PUSH1 0x40 MLOAD DUP1 DUP4 SUB DUP2 PUSH1 0x0 DUP8 DUP1 EXTCODESIZE ISZERO DUP1 ISZERO PUSH2 0x35F5 JUMPI PUSH1 0x0 DUP1 REVERT JUMPDEST POP GAS CALL ISZERO DUP1 ISZERO PUSH2 0x3609 JUMPI RETURNDATASIZE PUSH1 0x0 DUP1 RETURNDATACOPY RETURNDATASIZE PUSH1 0x0 REVERT JUMPDEST POP POP POP POP PUSH1 0x0 PUSH1 0x2 PUSH1 0x0 DUP9 PUSH20 0xFFFFFFFFFFFFFFFFFFFFFFFFFFFFFFFFFFFFFFFF AND PUSH20 0xFFFFFFFFFFFFFFFFFFFFFFFFFFFFFFFFFFFFFFFF AND DUP2 MSTORE PUSH1 0x20 ADD SWAP1 DUP2 MSTORE PUSH1 0x20 ADD PUSH1 0x0 KECCAK256 PUSH1 0x0 DUP8 DUP2 MSTORE PUSH1 0x20 ADD SWAP1 DUP2 MSTORE PUSH1 0x20 ADD PUSH1 0x0 KECCAK256 DUP2 SWAP1 SSTORE POP PUSH1 0x6 PUSH1 0x4 PUSH1 0x0 DUP9 PUSH20 0xFFFFFFFFFFFFFFFFFFFFFFFFFFFFFFFFFFFFFFFF AND PUSH20 0xFFFFFFFFFFFFFFFFFFFFFFFFFFFFFFFFFFFFFFFF AND DUP2 MSTORE PUSH1 0x20 ADD SWAP1 DUP2 MSTORE PUSH1 0x20 ADD PUSH1 0x0 KECCAK256 PUSH1 0x0 DUP8 DUP2 MSTORE PUSH1 0x20 ADD SWAP1 DUP2 MSTORE PUSH1 0x20 ADD PUSH1 0x0 KECCAK256 SLOAD DUP2 SLOAD DUP2 LT PUSH2 0x36C7 JUMPI PUSH2 0x36C6 PUSH2 0x4A5D JUMP JUMPDEST JUMPDEST SWAP1 PUSH1 0x0 MSTORE PUSH1 0x20 PUSH1 0x0 KECCAK256 SWAP1 PUSH1 0x2 MUL ADD PUSH1 0x0 DUP1 DUP3 ADD PUSH1 0x0 PUSH2 0x100 EXP DUP2 SLOAD SWAP1 PUSH20 0xFFFFFFFFFFFFFFFFFFFFFFFFFFFFFFFFFFFFFFFF MUL NOT AND SWAP1 SSTORE PUSH1 0x1 DUP3 ADD PUSH1 0x0 SWAP1 SSTORE POP POP PUSH32 0xD7348FF00CF381A884144B50B3441398A48A7974EC349287DF80E18CEC9F5A31 DUP7 CALLER DUP8 PUSH1 0x40 MLOAD PUSH2 0x373A SWAP4 SWAP3 SWAP2 SWAP1 PUSH2 0x4C87 JUMP JUMPDEST PUSH1 0x40 MLOAD DUP1 SWAP2 SUB SWAP1 LOG1 POP POP POP POP POP POP JUMP JUMPDEST DUP1 PUSH20 0xFFFFFFFFFFFFFFFFFFFFFFFFFFFFFFFFFFFFFFFF AND PUSH4 0x23B872DD CALLER ADDRESS DUP6 PUSH1 0x40 MLOAD DUP5 PUSH4 0xFFFFFFFF AND PUSH1 0xE0 SHL DUP2 MSTORE PUSH1 0x4 ADD PUSH2 0x3787 SWAP4 SWAP3 SWAP2 SWAP1 PUSH2 0x4C87 JUMP JUMPDEST PUSH1 0x20 PUSH1 0x40 MLOAD DUP1 DUP4 SUB DUP2 PUSH1 0x0 DUP8 GAS CALL ISZERO DUP1 ISZERO PUSH2 0x37A6 JUMPI RETURNDATASIZE PUSH1 0x0 DUP1 RETURNDATACOPY RETURNDATASIZE PUSH1 0x0 REVERT JUMPDEST POP POP POP POP PUSH1 0x40 MLOAD RETURNDATASIZE PUSH1 0x1F NOT PUSH1 0x1F DUP3 ADD AND DUP3 ADD DUP1 PUSH1 0x40 MSTORE POP DUP2 ADD SWAP1 PUSH2 0x37CA SWAP2 SWAP1 PUSH2 0x4BEE JUMP JUMPDEST PUSH2 0x3809 JUMPI PUSH1 0x40 MLOAD PUSH32 0x8C379A000000000000000000000000000000000000000000000000000000000 DUP2 MSTORE PUSH1 0x4 ADD PUSH2 0x3800 SWAP1 PUSH2 0x4F63 JUMP JUMPDEST PUSH1 0x40 MLOAD DUP1 SWAP2 SUB SWAP1 REVERT JUMPDEST POP POP JUMP JUMPDEST PUSH1 0x0 DUP2 DUP4 PUSH2 0x381B SWAP2 SWAP1 PUSH2 0x4FB2 JUMP JUMPDEST SWAP1 POP SWAP3 SWAP2 POP POP JUMP JUMPDEST DUP4 PUSH20 0xFFFFFFFFFFFFFFFFFFFFFFFFFFFFFFFFFFFFFFFF AND PUSH4 0x42842E0E ADDRESS DUP4 DUP7 PUSH1 0x40 MLOAD DUP5 PUSH4 0xFFFFFFFF AND PUSH1 0xE0 SHL DUP2 MSTORE PUSH1 0x4 ADD PUSH2 0x3860 SWAP4 SWAP3 SWAP2 SWAP1 PUSH2 0x4C87 JUMP JUMPDEST PUSH1 0x0 PUSH1 0x40 MLOAD DUP1 DUP4 SUB DUP2 PUSH1 0x0 DUP8 DUP1 EXTCODESIZE ISZERO DUP1 ISZERO PUSH2 0x387A JUMPI PUSH1 0x0 DUP1 REVERT JUMPDEST POP GAS CALL ISZERO DUP1 ISZERO PUSH2 0x388E JUMPI RETURNDATASIZE PUSH1 0x0 DUP1 RETURNDATACOPY RETURNDATASIZE PUSH1 0x0 REVERT JUMPDEST POP POP POP POP PUSH1 0x0 PUSH1 0x2 PUSH1 0x0 DUP7 PUSH20 0xFFFFFFFFFFFFFFFFFFFFFFFFFFFFFFFFFFFFFFFF AND PUSH20 0xFFFFFFFFFFFFFFFFFFFFFFFFFFFFFFFFFFFFFFFF AND DUP2 MSTORE PUSH1 0x20 ADD SWAP1 DUP2 MSTORE PUSH1 0x20 ADD PUSH1 0x0 KECCAK256 PUSH1 0x0 DUP6 DUP2 MSTORE PUSH1 0x20 ADD SWAP1 DUP2 MSTORE PUSH1 0x20 ADD PUSH1 0x0 KECCAK256 DUP2 SWAP1 SSTORE POP PUSH2 0x39D9 PUSH1 0x1 PUSH1 0x0 DUP7 PUSH20 0xFFFFFFFFFFFFFFFFFFFFFFFFFFFFFFFFFFFFFFFF AND PUSH20 0xFFFFFFFFFFFFFFFFFFFFFFFFFFFFFFFFFFFFFFFF AND DUP2 MSTORE PUSH1 0x20 ADD SWAP1 DUP2 MSTORE PUSH1 0x20 ADD PUSH1 0x0 KECCAK256 PUSH1 0x0 DUP6 DUP2 MSTORE PUSH1 0x20 ADD SWAP1 DUP2 MSTORE PUSH1 0x20 ADD PUSH1 0x0 KECCAK256 PUSH1 0x5 ADD PUSH1 0x0 SWAP1 SLOAD SWAP1 PUSH2 0x100 EXP SWAP1 DIV PUSH20 0xFFFFFFFFFFFFFFFFFFFFFFFFFFFFFFFFFFFFFFFF AND PUSH1 0x1 PUSH1 0x0 DUP8 PUSH20 0xFFFFFFFFFFFFFFFFFFFFFFFFFFFFFFFFFFFFFFFF AND PUSH20 0xFFFFFFFFFFFFFFFFFFFFFFFFFFFFFFFFFFFFFFFF AND DUP2 MSTORE PUSH1 0x20 ADD SWAP1 DUP2 MSTORE PUSH1 0x20 ADD PUSH1 0x0 KECCAK256 PUSH1 0x0 DUP7 DUP2 MSTORE PUSH1 0x20 ADD SWAP1 DUP2 MSTORE PUSH1 0x20 ADD PUSH1 0x0 KECCAK256 PUSH1 0x6 ADD PUSH1 0x0 SWAP1 SLOAD SWAP1 PUSH2 0x100 EXP SWAP1 DIV PUSH20 0xFFFFFFFFFFFFFFFFFFFFFFFFFFFFFFFFFFFFFFFF AND DUP5 PUSH2 0x39DF JUMP JUMPDEST POP POP POP POP JUMP JUMPDEST PUSH1 0x0 PUSH20 0xFFFFFFFFFFFFFFFFFFFFFFFFFFFFFFFFFFFFFFFF AND DUP3 PUSH20 0xFFFFFFFFFFFFFFFFFFFFFFFFFFFFFFFFFFFFFFFF AND EQ PUSH2 0x3A23 JUMPI PUSH2 0x3A1E DUP4 DUP4 DUP4 PUSH2 0x3CC5 JUMP JUMPDEST PUSH2 0x3A2E JUMP JUMPDEST PUSH2 0x3A2D DUP4 DUP3 PUSH2 0x3E08 JUMP JUMPDEST JUMPDEST POP POP POP JUMP JUMPDEST PUSH1 0x40 MLOAD DUP1 PUSH1 0xE0 ADD PUSH1 0x40 MSTORE DUP1 DUP5 DUP2 MSTORE PUSH1 0x20 ADD DUP4 DUP2 MSTORE PUSH1 0x20 ADD DUP3 DUP2 MSTORE PUSH1 0x20 ADD DUP3 DUP2 MSTORE PUSH1 0x20 ADD PUSH1 0x0 PUSH20 0xFFFFFFFFFFFFFFFFFFFFFFFFFFFFFFFFFFFFFFFF AND DUP2 MSTORE PUSH1 0x20 ADD CALLER PUSH20 0xFFFFFFFFFFFFFFFFFFFFFFFFFFFFFFFFFFFFFFFF AND DUP2 MSTORE PUSH1 0x20 ADD DUP7 PUSH20 0xFFFFFFFFFFFFFFFFFFFFFFFFFFFFFFFFFFFFFFFF AND DUP2 MSTORE POP PUSH1 0x1 PUSH1 0x0 DUP9 PUSH20 0xFFFFFFFFFFFFFFFFFFFFFFFFFFFFFFFFFFFFFFFF AND PUSH20 0xFFFFFFFFFFFFFFFFFFFFFFFFFFFFFFFFFFFFFFFF AND DUP2 MSTORE PUSH1 0x20 ADD SWAP1 DUP2 MSTORE PUSH1 0x20 ADD PUSH1 0x0 KECCAK256 PUSH1 0x0 DUP7 DUP2 MSTORE PUSH1 0x20 ADD SWAP1 DUP2 MSTORE PUSH1 0x20 ADD PUSH1 0x0 KECCAK256 PUSH1 0x0 DUP3 ADD MLOAD DUP2 PUSH1 0x0 ADD SSTORE PUSH1 0x20 DUP3 ADD MLOAD DUP2 PUSH1 0x1 ADD SSTORE PUSH1 0x40 DUP3 ADD MLOAD DUP2 PUSH1 0x2 ADD SSTORE PUSH1 0x60 DUP3 ADD MLOAD DUP2 PUSH1 0x3 ADD SSTORE PUSH1 0x80 DUP3 ADD MLOAD DUP2 PUSH1 0x4 ADD PUSH1 0x0 PUSH2 0x100 EXP DUP2 SLOAD DUP2 PUSH20 0xFFFFFFFFFFFFFFFFFFFFFFFFFFFFFFFFFFFFFFFF MUL NOT AND SWAP1 DUP4 PUSH20 0xFFFFFFFFFFFFFFFFFFFFFFFFFFFFFFFFFFFFFFFF AND MUL OR SWAP1 SSTORE POP PUSH1 0xA0 DUP3 ADD MLOAD DUP2 PUSH1 0x5 ADD PUSH1 0x0 PUSH2 0x100 EXP DUP2 SLOAD DUP2 PUSH20 0xFFFFFFFFFFFFFFFFFFFFFFFFFFFFFFFFFFFFFFFF MUL NOT AND SWAP1 DUP4 PUSH20 0xFFFFFFFFFFFFFFFFFFFFFFFFFFFFFFFFFFFFFFFF AND MUL OR SWAP1 SSTORE POP PUSH1 0xC0 DUP3 ADD MLOAD DUP2 PUSH1 0x6 ADD PUSH1 0x0 PUSH2 0x100 EXP DUP2 SLOAD DUP2 PUSH20 0xFFFFFFFFFFFFFFFFFFFFFFFFFFFFFFFFFFFFFFFF MUL NOT AND SWAP1 DUP4 PUSH20 0xFFFFFFFFFFFFFFFFFFFFFFFFFFFFFFFFFFFFFFFF AND MUL OR SWAP1 SSTORE POP SWAP1 POP POP PUSH1 0x2 DUP1 PUSH1 0x0 DUP9 PUSH20 0xFFFFFFFFFFFFFFFFFFFFFFFFFFFFFFFFFFFFFFFF AND PUSH20 0xFFFFFFFFFFFFFFFFFFFFFFFFFFFFFFFFFFFFFFFF AND DUP2 MSTORE PUSH1 0x20 ADD SWAP1 DUP2 MSTORE PUSH1 0x20 ADD PUSH1 0x0 KECCAK256 PUSH1 0x0 DUP7 DUP2 MSTORE PUSH1 0x20 ADD SWAP1 DUP2 MSTORE PUSH1 0x20 ADD PUSH1 0x0 KECCAK256 DUP2 SWAP1 SSTORE POP DUP6 PUSH20 0xFFFFFFFFFFFFFFFFFFFFFFFFFFFFFFFFFFFFFFFF AND PUSH4 0x42842E0E CALLER ADDRESS DUP8 PUSH1 0x40 MLOAD DUP5 PUSH4 0xFFFFFFFF AND PUSH1 0xE0 SHL DUP2 MSTORE PUSH1 0x4 ADD PUSH2 0x3C8B SWAP4 SWAP3 SWAP2 SWAP1 PUSH2 0x4C87 JUMP JUMPDEST PUSH1 0x0 PUSH1 0x40 MLOAD DUP1 DUP4 SUB DUP2 PUSH1 0x0 DUP8 DUP1 EXTCODESIZE ISZERO DUP1 ISZERO PUSH2 0x3CA5 JUMPI PUSH1 0x0 DUP1 REVERT JUMPDEST POP GAS CALL ISZERO DUP1 ISZERO PUSH2 0x3CB9 JUMPI RETURNDATASIZE PUSH1 0x0 DUP1 RETURNDATACOPY RETURNDATASIZE PUSH1 0x0 REVERT JUMPDEST POP POP POP POP POP POP POP POP POP POP JUMP JUMPDEST DUP2 PUSH20 0xFFFFFFFFFFFFFFFFFFFFFFFFFFFFFFFFFFFFFFFF AND PUSH4 0x23B872DD CALLER ADDRESS DUP5 PUSH1 0x40 MLOAD DUP5 PUSH4 0xFFFFFFFF AND PUSH1 0xE0 SHL DUP2 MSTORE PUSH1 0x4 ADD PUSH2 0x3D02 SWAP4 SWAP3 SWAP2 SWAP1 PUSH2 0x4C87 JUMP JUMPDEST PUSH1 0x20 PUSH1 0x40 MLOAD DUP1 DUP4 SUB DUP2 PUSH1 0x0 DUP8 GAS CALL ISZERO DUP1 ISZERO PUSH2 0x3D21 JUMPI RETURNDATASIZE PUSH1 0x0 DUP1 RETURNDATACOPY RETURNDATASIZE PUSH1 0x0 REVERT JUMPDEST POP POP POP POP PUSH1 0x40 MLOAD RETURNDATASIZE PUSH1 0x1F NOT PUSH1 0x1F DUP3 ADD AND DUP3 ADD DUP1 PUSH1 0x40 MSTORE POP DUP2 ADD SWAP1 PUSH2 0x3D45 SWAP2 SWAP1 PUSH2 0x4BEE JUMP JUMPDEST PUSH2 0x3D84 JUMPI PUSH1 0x40 MLOAD PUSH32 0x8C379A000000000000000000000000000000000000000000000000000000000 DUP2 MSTORE PUSH1 0x4 ADD PUSH2 0x3D7B SWAP1 PUSH2 0x4F63 JUMP JUMPDEST PUSH1 0x40 MLOAD DUP1 SWAP2 SUB SWAP1 REVERT JUMPDEST DUP2 PUSH20 0xFFFFFFFFFFFFFFFFFFFFFFFFFFFFFFFFFFFFFFFF AND PUSH4 0xA9059CBB DUP5 DUP4 PUSH1 0x40 MLOAD DUP4 PUSH4 0xFFFFFFFF AND PUSH1 0xE0 SHL DUP2 MSTORE PUSH1 0x4 ADD PUSH2 0x3DBF SWAP3 SWAP2 SWAP1 PUSH2 0x4FE6 JUMP JUMPDEST PUSH1 0x20 PUSH1 0x40 MLOAD DUP1 DUP4 SUB DUP2 PUSH1 0x0 DUP8 GAS CALL ISZERO DUP1 ISZERO PUSH2 0x3DDE JUMPI RETURNDATASIZE PUSH1 0x0 DUP1 RETURNDATACOPY RETURNDATASIZE PUSH1 0x0 REVERT JUMPDEST POP POP POP POP PUSH1 0x40 MLOAD RETURNDATASIZE PUSH1 0x1F NOT PUSH1 0x1F DUP3 ADD AND DUP3 ADD DUP1 PUSH1 0x40 MSTORE POP DUP2 ADD SWAP1 PUSH2 0x3E02 SWAP2 SWAP1 PUSH2 0x4BEE JUMP JUMPDEST POP POP POP POP JUMP JUMPDEST PUSH1 0x0 DUP3 PUSH20 0xFFFFFFFFFFFFFFFFFFFFFFFFFFFFFFFFFFFFFFFF AND DUP3 PUSH1 0x40 MLOAD PUSH2 0x3E2E SWAP1 PUSH2 0x5040 JUMP JUMPDEST PUSH1 0x0 PUSH1 0x40 MLOAD DUP1 DUP4 SUB DUP2 DUP6 DUP8 GAS CALL SWAP3 POP POP POP RETURNDATASIZE DUP1 PUSH1 0x0 DUP2 EQ PUSH2 0x3E6B JUMPI PUSH1 0x40 MLOAD SWAP2 POP PUSH1 0x1F NOT PUSH1 0x3F RETURNDATASIZE ADD AND DUP3 ADD PUSH1 0x40 MSTORE RETURNDATASIZE DUP3 MSTORE RETURNDATASIZE PUSH1 0x0 PUSH1 0x20 DUP5 ADD RETURNDATACOPY PUSH2 0x3E70 JUMP JUMPDEST PUSH1 0x60 SWAP2 POP JUMPDEST POP POP SWAP1 POP DUP1 PUSH2 0x3EB4 JUMPI PUSH1 0x40 MLOAD PUSH32 0x8C379A000000000000000000000000000000000000000000000000000000000 DUP2 MSTORE PUSH1 0x4 ADD PUSH2 0x3EAB SWAP1 PUSH2 0x50A1 JUMP JUMPDEST PUSH1 0x40 MLOAD DUP1 SWAP2 SUB SWAP1 REVERT JUMPDEST POP POP POP JUMP JUMPDEST PUSH1 0x40 MLOAD DUP1 PUSH1 0xE0 ADD PUSH1 0x40 MSTORE DUP1 PUSH1 0x0 DUP2 MSTORE PUSH1 0x20 ADD PUSH1 0x0 DUP2 MSTORE PUSH1 0x20 ADD PUSH1 0x0 DUP2 MSTORE PUSH1 0x20 ADD PUSH1 0x0 DUP2 MSTORE PUSH1 0x20 ADD PUSH1 0x0 PUSH20 0xFFFFFFFFFFFFFFFFFFFFFFFFFFFFFFFFFFFFFFFF AND DUP2 MSTORE PUSH1 0x20 ADD PUSH1 0x0 PUSH20 0xFFFFFFFFFFFFFFFFFFFFFFFFFFFFFFFFFFFFFFFF AND DUP2 MSTORE PUSH1 0x20 ADD PUSH1 0x0 PUSH20 0xFFFFFFFFFFFFFFFFFFFFFFFFFFFFFFFFFFFFFFFF AND DUP2 MSTORE POP SWAP1 JUMP JUMPDEST PUSH1 0x40 MLOAD DUP1 PUSH1 0x80 ADD PUSH1 0x40 MSTORE DUP1 PUSH1 0x0 PUSH20 0xFFFFFFFFFFFFFFFFFFFFFFFFFFFFFFFFFFFFFFFF AND DUP2 MSTORE PUSH1 0x20 ADD PUSH1 0x0 PUSH20 0xFFFFFFFFFFFFFFFFFFFFFFFFFFFFFFFFFFFFFFFF AND DUP2 MSTORE PUSH1 0x20 ADD PUSH1 0x0 PUSH20 0xFFFFFFFFFFFFFFFFFFFFFFFFFFFFFFFFFFFFFFFF AND DUP2 MSTORE PUSH1 0x20 ADD PUSH1 0x0 DUP2 MSTORE POP SWAP1 JUMP JUMPDEST PUSH1 0x0 DUP1 REVERT JUMPDEST PUSH1 0x0 DUP1 REVERT JUMPDEST PUSH1 0x0 PUSH20 0xFFFFFFFFFFFFFFFFFFFFFFFFFFFFFFFFFFFFFFFF DUP3 AND SWAP1 POP SWAP2 SWAP1 POP JUMP JUMPDEST PUSH1 0x0 PUSH2 0x3FD7 DUP3 PUSH2 0x3FAC JUMP JUMPDEST SWAP1 POP SWAP2 SWAP1 POP JUMP JUMPDEST PUSH2 0x3FE7 DUP2 PUSH2 0x3FCC JUMP JUMPDEST DUP2 EQ PUSH2 0x3FF2 JUMPI PUSH1 0x0 DUP1 REVERT JUMPDEST POP JUMP JUMPDEST PUSH1 0x0 DUP2 CALLDATALOAD SWAP1 POP PUSH2 0x4004 DUP2 PUSH2 0x3FDE JUMP JUMPDEST SWAP3 SWAP2 POP POP JUMP JUMPDEST PUSH1 0x0 DUP2 SWAP1 POP SWAP2 SWAP1 POP JUMP JUMPDEST PUSH2 0x401D DUP2 PUSH2 0x400A JUMP JUMPDEST DUP2 EQ PUSH2 0x4028 JUMPI PUSH1 0x0 DUP1 REVERT JUMPDEST POP JUMP JUMPDEST PUSH1 0x0 DUP2 CALLDATALOAD SWAP1 POP PUSH2 0x403A DUP2 PUSH2 0x4014 JUMP JUMPDEST SWAP3 SWAP2 POP POP JUMP JUMPDEST PUSH1 0x0 DUP1 REVERT JUMPDEST PUSH1 0x0 DUP1 REVERT JUMPDEST PUSH1 0x0 DUP1 REVERT JUMPDEST PUSH1 0x0 DUP1 DUP4 PUSH1 0x1F DUP5 ADD SLT PUSH2 0x4065 JUMPI PUSH2 0x4064 PUSH2 0x4040 JUMP JUMPDEST JUMPDEST DUP3 CALLDATALOAD SWAP1 POP PUSH8 0xFFFFFFFFFFFFFFFF DUP2 GT ISZERO PUSH2 0x4082 JUMPI PUSH2 0x4081 PUSH2 0x4045 JUMP JUMPDEST JUMPDEST PUSH1 0x20 DUP4 ADD SWAP2 POP DUP4 PUSH1 0x1 DUP3 MUL DUP4 ADD GT ISZERO PUSH2 0x409E JUMPI PUSH2 0x409D PUSH2 0x404A JUMP JUMPDEST JUMPDEST SWAP3 POP SWAP3 SWAP1 POP JUMP JUMPDEST PUSH1 0x0 DUP1 PUSH1 0x0 DUP1 PUSH1 0x0 PUSH1 0x80 DUP7 DUP9 SUB SLT ISZERO PUSH2 0x40C1 JUMPI PUSH2 0x40C0 PUSH2 0x3FA2 JUMP JUMPDEST JUMPDEST PUSH1 0x0 PUSH2 0x40CF DUP9 DUP3 DUP10 ADD PUSH2 0x3FF5 JUMP JUMPDEST SWAP6 POP POP PUSH1 0x20 PUSH2 0x40E0 DUP9 DUP3 DUP10 ADD PUSH2 0x3FF5 JUMP JUMPDEST SWAP5 POP POP PUSH1 0x40 PUSH2 0x40F1 DUP9 DUP3 DUP10 ADD PUSH2 0x402B JUMP JUMPDEST SWAP4 POP POP PUSH1 0x60 DUP7 ADD CALLDATALOAD PUSH8 0xFFFFFFFFFFFFFFFF DUP2 GT ISZERO PUSH2 0x4112 JUMPI PUSH2 0x4111 PUSH2 0x3FA7 JUMP JUMPDEST JUMPDEST PUSH2 0x411E DUP9 DUP3 DUP10 ADD PUSH2 0x404F JUMP JUMPDEST SWAP3 POP SWAP3 POP POP SWAP3 SWAP6 POP SWAP3 SWAP6 SWAP1 SWAP4 POP JUMP JUMPDEST PUSH1 0x0 PUSH32 0xFFFFFFFF00000000000000000000000000000000000000000000000000000000 DUP3 AND SWAP1 POP SWAP2 SWAP1 POP JUMP JUMPDEST PUSH2 0x4162 DUP2 PUSH2 0x412D JUMP JUMPDEST DUP3 MSTORE POP POP JUMP JUMPDEST PUSH1 0x0 PUSH1 0x20 DUP3 ADD SWAP1 POP PUSH2 0x417D PUSH1 0x0 DUP4 ADD DUP5 PUSH2 0x4159 JUMP JUMPDEST SWAP3 SWAP2 POP POP JUMP JUMPDEST PUSH1 0x0 DUP1 PUSH1 0x0 PUSH1 0x60 DUP5 DUP7 SUB SLT ISZERO PUSH2 0x419C JUMPI PUSH2 0x419B PUSH2 0x3FA2 JUMP JUMPDEST JUMPDEST PUSH1 0x0 PUSH2 0x41AA DUP7 DUP3 DUP8 ADD PUSH2 0x3FF5 JUMP JUMPDEST SWAP4 POP POP PUSH1 0x20 PUSH2 0x41BB DUP7 DUP3 DUP8 ADD PUSH2 0x402B JUMP JUMPDEST SWAP3 POP POP PUSH1 0x40 PUSH2 0x41CC DUP7 DUP3 DUP8 ADD PUSH2 0x402B JUMP JUMPDEST SWAP2 POP POP SWAP3 POP SWAP3 POP SWAP3 JUMP JUMPDEST PUSH1 0x0 DUP2 MLOAD SWAP1 POP SWAP2 SWAP1 POP JUMP JUMPDEST PUSH1 0x0 DUP3 DUP3 MSTORE PUSH1 0x20 DUP3 ADD SWAP1 POP SWAP3 SWAP2 POP POP JUMP JUMPDEST PUSH1 0x0 DUP2 SWAP1 POP PUSH1 0x20 DUP3 ADD SWAP1 POP SWAP2 SWAP1 POP JUMP JUMPDEST PUSH2 0x420B DUP2 PUSH2 0x3FCC JUMP JUMPDEST DUP3 MSTORE POP POP JUMP JUMPDEST PUSH2 0x421A DUP2 PUSH2 0x400A JUMP JUMPDEST DUP3 MSTORE POP POP JUMP JUMPDEST PUSH1 0x40 DUP3 ADD PUSH1 0x0 DUP3 ADD MLOAD PUSH2 0x4236 PUSH1 0x0 DUP6 ADD DUP3 PUSH2 0x4202 JUMP JUMPDEST POP PUSH1 0x20 DUP3 ADD MLOAD PUSH2 0x4249 PUSH1 0x20 DUP6 ADD DUP3 PUSH2 0x4211 JUMP JUMPDEST POP POP POP POP JUMP JUMPDEST PUSH1 0x0 PUSH2 0x425B DUP4 DUP4 PUSH2 0x4220 JUMP JUMPDEST PUSH1 0x40 DUP4 ADD SWAP1 POP SWAP3 SWAP2 POP POP JUMP JUMPDEST PUSH1 0x0 PUSH1 0x20 DUP3 ADD SWAP1 POP SWAP2 SWAP1 POP JUMP JUMPDEST PUSH1 0x0 PUSH2 0x427F DUP3 PUSH2 0x41D6 JUMP JUMPDEST PUSH2 0x4289 DUP2 DUP6 PUSH2 0x41E1 JUMP JUMPDEST SWAP4 POP PUSH2 0x4294 DUP4 PUSH2 0x41F2 JUMP JUMPDEST DUP1 PUSH1 0x0 JUMPDEST DUP4 DUP2 LT ISZERO PUSH2 0x42C5 JUMPI DUP2 MLOAD PUSH2 0x42AC DUP9 DUP3 PUSH2 0x424F JUMP JUMPDEST SWAP8 POP PUSH2 0x42B7 DUP4 PUSH2 0x4267 JUMP JUMPDEST SWAP3 POP POP PUSH1 0x1 DUP2 ADD SWAP1 POP PUSH2 0x4298 JUMP JUMPDEST POP DUP6 SWAP4 POP POP POP POP SWAP3 SWAP2 POP POP JUMP JUMPDEST PUSH1 0x0 PUSH1 0x20 DUP3 ADD SWAP1 POP DUP2 DUP2 SUB PUSH1 0x0 DUP4 ADD MSTORE PUSH2 0x42EC DUP2 DUP5 PUSH2 0x4274 JUMP JUMPDEST SWAP1 POP SWAP3 SWAP2 POP POP JUMP JUMPDEST PUSH1 0x0 DUP1 PUSH1 0x40 DUP4 DUP6 SUB SLT ISZERO PUSH2 0x430B JUMPI PUSH2 0x430A PUSH2 0x3FA2 JUMP JUMPDEST JUMPDEST PUSH1 0x0 PUSH2 0x4319 DUP6 DUP3 DUP7 ADD PUSH2 0x3FF5 JUMP JUMPDEST SWAP3 POP POP PUSH1 0x20 PUSH2 0x432A DUP6 DUP3 DUP7 ADD PUSH2 0x402B JUMP JUMPDEST SWAP2 POP POP SWAP3 POP SWAP3 SWAP1 POP JUMP JUMPDEST PUSH2 0x433D DUP2 PUSH2 0x400A JUMP JUMPDEST DUP3 MSTORE POP POP JUMP JUMPDEST PUSH1 0x0 PUSH1 0x20 DUP3 ADD SWAP1 POP PUSH2 0x4358 PUSH1 0x0 DUP4 ADD DUP5 PUSH2 0x4334 JUMP JUMPDEST SWAP3 SWAP2 POP POP JUMP JUMPDEST PUSH1 0x0 DUP1 PUSH1 0x0 DUP1 PUSH1 0x80 DUP6 DUP8 SUB SLT ISZERO PUSH2 0x4378 JUMPI PUSH2 0x4377 PUSH2 0x3FA2 JUMP JUMPDEST JUMPDEST PUSH1 0x0 PUSH2 0x4386 DUP8 DUP3 DUP9 ADD PUSH2 0x3FF5 JUMP JUMPDEST SWAP5 POP POP PUSH1 0x20 PUSH2 0x4397 DUP8 DUP3 DUP9 ADD PUSH2 0x3FF5 JUMP JUMPDEST SWAP4 POP POP PUSH1 0x40 PUSH2 0x43A8 DUP8 DUP3 DUP9 ADD PUSH2 0x402B JUMP JUMPDEST SWAP3 POP POP PUSH1 0x60 PUSH2 0x43B9 DUP8 DUP3 DUP9 ADD PUSH2 0x402B JUMP JUMPDEST SWAP2 POP POP SWAP3 SWAP6 SWAP2 SWAP5 POP SWAP3 POP JUMP JUMPDEST PUSH1 0xE0 DUP3 ADD PUSH1 0x0 DUP3 ADD MLOAD PUSH2 0x43DB PUSH1 0x0 DUP6 ADD DUP3 PUSH2 0x4211 JUMP JUMPDEST POP PUSH1 0x20 DUP3 ADD MLOAD PUSH2 0x43EE PUSH1 0x20 DUP6 ADD DUP3 PUSH2 0x4211 JUMP JUMPDEST POP PUSH1 0x40 DUP3 ADD MLOAD PUSH2 0x4401 PUSH1 0x40 DUP6 ADD DUP3 PUSH2 0x4211 JUMP JUMPDEST POP PUSH1 0x60 DUP3 ADD MLOAD PUSH2 0x4414 PUSH1 0x60 DUP6 ADD DUP3 PUSH2 0x4211 JUMP JUMPDEST POP PUSH1 0x80 DUP3 ADD MLOAD PUSH2 0x4427 PUSH1 0x80 DUP6 ADD DUP3 PUSH2 0x4202 JUMP JUMPDEST POP PUSH1 0xA0 DUP3 ADD MLOAD PUSH2 0x443A PUSH1 0xA0 DUP6 ADD DUP3 PUSH2 0x4202 JUMP JUMPDEST POP PUSH1 0xC0 DUP3 ADD MLOAD PUSH2 0x444D PUSH1 0xC0 DUP6 ADD DUP3 PUSH2 0x4202 JUMP JUMPDEST POP POP POP POP JUMP JUMPDEST PUSH1 0x0 PUSH1 0xE0 DUP3 ADD SWAP1 POP PUSH2 0x4468 PUSH1 0x0 DUP4 ADD DUP5 PUSH2 0x43C5 JUMP JUMPDEST SWAP3 SWAP2 POP POP JUMP JUMPDEST PUSH1 0x0 DUP1 PUSH1 0x0 PUSH1 0x60 DUP5 DUP7 SUB SLT ISZERO PUSH2 0x4487 JUMPI PUSH2 0x4486 PUSH2 0x3FA2 JUMP JUMPDEST JUMPDEST PUSH1 0x0 PUSH2 0x4495 DUP7 DUP3 DUP8 ADD PUSH2 0x3FF5 JUMP JUMPDEST SWAP4 POP POP PUSH1 0x20 PUSH2 0x44A6 DUP7 DUP3 DUP8 ADD PUSH2 0x402B JUMP JUMPDEST SWAP3 POP POP PUSH1 0x40 PUSH2 0x44B7 DUP7 DUP3 DUP8 ADD PUSH2 0x3FF5 JUMP JUMPDEST SWAP2 POP POP SWAP3 POP SWAP3 POP SWAP3 JUMP JUMPDEST PUSH1 0x80 DUP3 ADD PUSH1 0x0 DUP3 ADD MLOAD PUSH2 0x44D7 PUSH1 0x0 DUP6 ADD DUP3 PUSH2 0x4202 JUMP JUMPDEST POP PUSH1 0x20 DUP3 ADD MLOAD PUSH2 0x44EA PUSH1 0x20 DUP6 ADD DUP3 PUSH2 0x4202 JUMP JUMPDEST POP PUSH1 0x40 DUP3 ADD MLOAD PUSH2 0x44FD PUSH1 0x40 DUP6 ADD DUP3 PUSH2 0x4202 JUMP JUMPDEST POP PUSH1 0x60 DUP3 ADD MLOAD PUSH2 0x4510 PUSH1 0x60 DUP6 ADD DUP3 PUSH2 0x4211 JUMP JUMPDEST POP POP POP POP JUMP JUMPDEST PUSH1 0x0 PUSH1 0x80 DUP3 ADD SWAP1 POP PUSH2 0x452B PUSH1 0x0 DUP4 ADD DUP5 PUSH2 0x44C1 JUMP JUMPDEST SWAP3 SWAP2 POP POP JUMP JUMPDEST PUSH1 0x0 DUP1 PUSH1 0x0 DUP1 PUSH1 0x0 DUP1 PUSH1 0xC0 DUP8 DUP10 SUB SLT ISZERO PUSH2 0x454E JUMPI PUSH2 0x454D PUSH2 0x3FA2 JUMP JUMPDEST JUMPDEST PUSH1 0x0 PUSH2 0x455C DUP10 DUP3 DUP11 ADD PUSH2 0x3FF5 JUMP JUMPDEST SWAP7 POP POP PUSH1 0x20 PUSH2 0x456D DUP10 DUP3 DUP11 ADD PUSH2 0x3FF5 JUMP JUMPDEST SWAP6 POP POP PUSH1 0x40 PUSH2 0x457E DUP10 DUP3 DUP11 ADD PUSH2 0x402B JUMP JUMPDEST SWAP5 POP POP PUSH1 0x60 PUSH2 0x458F DUP10 DUP3 DUP11 ADD PUSH2 0x402B JUMP JUMPDEST SWAP4 POP POP PUSH1 0x80 PUSH2 0x45A0 DUP10 DUP3 DUP11 ADD PUSH2 0x402B JUMP JUMPDEST SWAP3 POP POP PUSH1 0xA0 PUSH2 0x45B1 DUP10 DUP3 DUP11 ADD PUSH2 0x402B JUMP JUMPDEST SWAP2 POP POP SWAP3 SWAP6 POP SWAP3 SWAP6 POP SWAP3 SWAP6 JUMP JUMPDEST PUSH1 0x0 DUP3 DUP3 MSTORE PUSH1 0x20 DUP3 ADD SWAP1 POP SWAP3 SWAP2 POP POP JUMP JUMPDEST PUSH32 0x4E6674206E6F7420696E2061756374696F6E2073616C65000000000000000000 PUSH1 0x0 DUP3 ADD MSTORE POP JUMP JUMPDEST PUSH1 0x0 PUSH2 0x4605 PUSH1 0x17 DUP4 PUSH2 0x45BE JUMP JUMPDEST SWAP2 POP PUSH2 0x4610 DUP3 PUSH2 0x45CF JUMP JUMPDEST PUSH1 0x20 DUP3 ADD SWAP1 POP SWAP2 SWAP1 POP JUMP JUMPDEST PUSH1 0x0 PUSH1 0x20 DUP3 ADD SWAP1 POP DUP2 DUP2 SUB PUSH1 0x0 DUP4 ADD MSTORE PUSH2 0x4634 DUP2 PUSH2 0x45F8 JUMP JUMPDEST SWAP1 POP SWAP2 SWAP1 POP JUMP JUMPDEST PUSH32 0x41756374696F6E20656E64000000000000000000000000000000000000000000 PUSH1 0x0 DUP3 ADD MSTORE POP JUMP JUMPDEST PUSH1 0x0 PUSH2 0x4671 PUSH1 0xB DUP4 PUSH2 0x45BE JUMP JUMPDEST SWAP2 POP PUSH2 0x467C DUP3 PUSH2 0x463B JUMP JUMPDEST PUSH1 0x20 DUP3 ADD SWAP1 POP SWAP2 SWAP1 POP JUMP JUMPDEST PUSH1 0x0 PUSH1 0x20 DUP3 ADD SWAP1 POP DUP2 DUP2 SUB PUSH1 0x0 DUP4 ADD MSTORE PUSH2 0x46A0 DUP2 PUSH2 0x4664 JUMP JUMPDEST SWAP1 POP SWAP2 SWAP1 POP JUMP JUMPDEST PUSH32 0x50726963652063616E6E6F742062652030000000000000000000000000000000 PUSH1 0x0 DUP3 ADD MSTORE POP JUMP JUMPDEST PUSH1 0x0 PUSH2 0x46DD PUSH1 0x11 DUP4 PUSH2 0x45BE JUMP JUMPDEST SWAP2 POP PUSH2 0x46E8 DUP3 PUSH2 0x46A7 JUMP JUMPDEST PUSH1 0x20 DUP3 ADD SWAP1 POP SWAP2 SWAP1 POP JUMP JUMPDEST PUSH1 0x0 PUSH1 0x20 DUP3 ADD SWAP1 POP DUP2 DUP2 SUB PUSH1 0x0 DUP4 ADD MSTORE PUSH2 0x470C DUP2 PUSH2 0x46D0 JUMP JUMPDEST SWAP1 POP SWAP2 SWAP1 POP JUMP JUMPDEST PUSH32 0x4269642047726561746572207468616E2050726576696F757320426964000000 PUSH1 0x0 DUP3 ADD MSTORE POP JUMP JUMPDEST PUSH1 0x0 PUSH2 0x4749 PUSH1 0x1D DUP4 PUSH2 0x45BE JUMP JUMPDEST SWAP2 POP PUSH2 0x4754 DUP3 PUSH2 0x4713 JUMP JUMPDEST PUSH1 0x20 DUP3 ADD SWAP1 POP SWAP2 SWAP1 POP JUMP JUMPDEST PUSH1 0x0 PUSH1 0x20 DUP3 ADD SWAP1 POP DUP2 DUP2 SUB PUSH1 0x0 DUP4 ADD MSTORE PUSH2 0x4778 DUP2 PUSH2 0x473C JUMP JUMPDEST SWAP1 POP SWAP2 SWAP1 POP JUMP JUMPDEST PUSH2 0x4788 DUP2 PUSH2 0x3FCC JUMP JUMPDEST DUP3 MSTORE POP POP JUMP JUMPDEST PUSH1 0x0 PUSH1 0x80 DUP3 ADD SWAP1 POP PUSH2 0x47A3 PUSH1 0x0 DUP4 ADD DUP8 PUSH2 0x477F JUMP JUMPDEST PUSH2 0x47B0 PUSH1 0x20 DUP4 ADD DUP7 PUSH2 0x4334 JUMP JUMPDEST PUSH2 0x47BD PUSH1 0x40 DUP4 ADD DUP6 PUSH2 0x4334 JUMP JUMPDEST PUSH2 0x47CA PUSH1 0x60 DUP4 ADD DUP5 PUSH2 0x477F JUMP JUMPDEST SWAP6 SWAP5 POP POP POP POP POP JUMP JUMPDEST PUSH32 0x4E6674206E6F7420696E2066697865642073616C650000000000000000000000 PUSH1 0x0 DUP3 ADD MSTORE POP JUMP JUMPDEST PUSH1 0x0 PUSH2 0x4809 PUSH1 0x15 DUP4 PUSH2 0x45BE JUMP JUMPDEST SWAP2 POP PUSH2 0x4814 DUP3 PUSH2 0x47D3 JUMP JUMPDEST PUSH1 0x20 DUP3 ADD SWAP1 POP SWAP2 SWAP1 POP JUMP JUMPDEST PUSH1 0x0 PUSH1 0x20 DUP3 ADD SWAP1 POP DUP2 DUP2 SUB PUSH1 0x0 DUP4 ADD MSTORE PUSH2 0x4838 DUP2 PUSH2 0x47FC JUMP JUMPDEST SWAP1 POP SWAP2 SWAP1 POP JUMP JUMPDEST PUSH32 0x596F7520617265206E6F74206E6674206F776E65720000000000000000000000 PUSH1 0x0 DUP3 ADD MSTORE POP JUMP JUMPDEST PUSH1 0x0 PUSH2 0x4875 PUSH1 0x15 DUP4 PUSH2 0x45BE JUMP JUMPDEST SWAP2 POP PUSH2 0x4880 DUP3 PUSH2 0x483F JUMP JUMPDEST PUSH1 0x20 DUP3 ADD SWAP1 POP SWAP2 SWAP1 POP JUMP JUMPDEST PUSH1 0x0 PUSH1 0x20 DUP3 ADD SWAP1 POP DUP2 DUP2 SUB PUSH1 0x0 DUP4 ADD MSTORE PUSH2 0x48A4 DUP2 PUSH2 0x4868 JUMP JUMPDEST SWAP1 POP SWAP2 SWAP1 POP JUMP JUMPDEST PUSH1 0x0 PUSH1 0x60 DUP3 ADD SWAP1 POP PUSH2 0x48C0 PUSH1 0x0 DUP4 ADD DUP7 PUSH2 0x477F JUMP JUMPDEST PUSH2 0x48CD PUSH1 0x20 DUP4 ADD DUP6 PUSH2 0x4334 JUMP JUMPDEST PUSH2 0x48DA PUSH1 0x40 DUP4 ADD DUP5 PUSH2 0x4334 JUMP JUMPDEST SWAP5 SWAP4 POP POP POP POP JUMP JUMPDEST PUSH32 0x41756374696F6E206E6F7420656E640000000000000000000000000000000000 PUSH1 0x0 DUP3 ADD MSTORE POP JUMP JUMPDEST PUSH1 0x0 PUSH2 0x4918 PUSH1 0xF DUP4 PUSH2 0x45BE JUMP JUMPDEST SWAP2 POP PUSH2 0x4923 DUP3 PUSH2 0x48E2 JUMP JUMPDEST PUSH1 0x20 DUP3 ADD SWAP1 POP SWAP2 SWAP1 POP JUMP JUMPDEST PUSH1 0x0 PUSH1 0x20 DUP3 ADD SWAP1 POP DUP2 DUP2 SUB PUSH1 0x0 DUP4 ADD MSTORE PUSH2 0x4947 DUP2 PUSH2 0x490B JUMP JUMPDEST SWAP1 POP SWAP2 SWAP1 POP JUMP JUMPDEST PUSH32 0x596F752061726520686967686573742062696464657200000000000000000000 PUSH1 0x0 DUP3 ADD MSTORE POP JUMP JUMPDEST PUSH1 0x0 PUSH2 0x4984 PUSH1 0x16 DUP4 PUSH2 0x45BE JUMP JUMPDEST SWAP2 POP PUSH2 0x498F DUP3 PUSH2 0x494E JUMP JUMPDEST PUSH1 0x20 DUP3 ADD SWAP1 POP SWAP2 SWAP1 POP JUMP JUMPDEST PUSH1 0x0 PUSH1 0x20 DUP3 ADD SWAP1 POP DUP2 DUP2 SUB PUSH1 0x0 DUP4 ADD MSTORE PUSH2 0x49B3 DUP2 PUSH2 0x4977 JUMP JUMPDEST SWAP1 POP SWAP2 SWAP1 POP JUMP JUMPDEST PUSH32 0x6E6F7468696E6720746F20776974686472617700000000000000000000000000 PUSH1 0x0 DUP3 ADD MSTORE POP JUMP JUMPDEST PUSH1 0x0 PUSH2 0x49F0 PUSH1 0x13 DUP4 PUSH2 0x45BE JUMP JUMPDEST SWAP2 POP PUSH2 0x49FB DUP3 PUSH2 0x49BA JUMP JUMPDEST PUSH1 0x20 DUP3 ADD SWAP1 POP SWAP2 SWAP1 POP JUMP JUMPDEST PUSH1 0x0 PUSH1 0x20 DUP3 ADD SWAP1 POP DUP2 DUP2 SUB PUSH1 0x0 DUP4 ADD MSTORE PUSH2 0x4A1F DUP2 PUSH2 0x49E3 JUMP JUMPDEST SWAP1 POP SWAP2 SWAP1 POP JUMP JUMPDEST PUSH1 0x0 PUSH1 0x60 DUP3 ADD SWAP1 POP PUSH2 0x4A3B PUSH1 0x0 DUP4 ADD DUP7 PUSH2 0x477F JUMP JUMPDEST PUSH2 0x4A48 PUSH1 0x20 DUP4 ADD DUP6 PUSH2 0x4334 JUMP JUMPDEST PUSH2 0x4A55 PUSH1 0x40 DUP4 ADD DUP5 PUSH2 0x477F JUMP JUMPDEST SWAP5 SWAP4 POP POP POP POP JUMP JUMPDEST PUSH32 0x4E487B7100000000000000000000000000000000000000000000000000000000 PUSH1 0x0 MSTORE PUSH1 0x32 PUSH1 0x4 MSTORE PUSH1 0x24 PUSH1 0x0 REVERT JUMPDEST PUSH1 0x0 PUSH1 0xA0 DUP3 ADD SWAP1 POP PUSH2 0x4AA1 PUSH1 0x0 DUP4 ADD DUP9 PUSH2 0x477F JUMP JUMPDEST PUSH2 0x4AAE PUSH1 0x20 DUP4 ADD DUP8 PUSH2 0x4334 JUMP JUMPDEST PUSH2 0x4ABB PUSH1 0x40 DUP4 ADD DUP7 PUSH2 0x477F JUMP JUMPDEST PUSH2 0x4AC8 PUSH1 0x60 DUP4 ADD DUP6 PUSH2 0x4334 JUMP JUMPDEST PUSH2 0x4AD5 PUSH1 0x80 DUP4 ADD DUP5 PUSH2 0x477F JUMP JUMPDEST SWAP7 SWAP6 POP POP POP POP POP POP JUMP JUMPDEST PUSH1 0x0 DUP2 MLOAD SWAP1 POP PUSH2 0x4AEE DUP2 PUSH2 0x3FDE JUMP JUMPDEST SWAP3 SWAP2 POP POP JUMP JUMPDEST PUSH1 0x0 PUSH1 0x20 DUP3 DUP5 SUB SLT ISZERO PUSH2 0x4B0A JUMPI PUSH2 0x4B09 PUSH2 0x3FA2 JUMP JUMPDEST JUMPDEST PUSH1 0x0 PUSH2 0x4B18 DUP5 DUP3 DUP6 ADD PUSH2 0x4ADF JUMP JUMPDEST SWAP2 POP POP SWAP3 SWAP2 POP POP JUMP JUMPDEST PUSH32 0x4E667420616C726561647920696E2073616C6500000000000000000000000000 PUSH1 0x0 DUP3 ADD MSTORE POP JUMP JUMPDEST PUSH1 0x0 PUSH2 0x4B57 PUSH1 0x13 DUP4 PUSH2 0x45BE JUMP JUMPDEST SWAP2 POP PUSH2 0x4B62 DUP3 PUSH2 0x4B21 JUMP JUMPDEST PUSH1 0x20 DUP3 ADD SWAP1 POP SWAP2 SWAP1 POP JUMP JUMPDEST PUSH1 0x0 PUSH1 0x20 DUP3 ADD SWAP1 POP DUP2 DUP2 SUB PUSH1 0x0 DUP4 ADD MSTORE PUSH2 0x4B86 DUP2 PUSH2 0x4B4A JUMP JUMPDEST SWAP1 POP SWAP2 SWAP1 POP JUMP JUMPDEST PUSH1 0x0 PUSH1 0x40 DUP3 ADD SWAP1 POP PUSH2 0x4BA2 PUSH1 0x0 DUP4 ADD DUP6 PUSH2 0x477F JUMP JUMPDEST PUSH2 0x4BAF PUSH1 0x20 DUP4 ADD DUP5 PUSH2 0x477F JUMP JUMPDEST SWAP4 SWAP3 POP POP POP JUMP JUMPDEST PUSH1 0x0 DUP2 ISZERO ISZERO SWAP1 POP SWAP2 SWAP1 POP JUMP JUMPDEST PUSH2 0x4BCB DUP2 PUSH2 0x4BB6 JUMP JUMPDEST DUP2 EQ PUSH2 0x4BD6 JUMPI PUSH1 0x0 DUP1 REVERT JUMPDEST POP JUMP JUMPDEST PUSH1 0x0 DUP2 MLOAD SWAP1 POP PUSH2 0x4BE8 DUP2 PUSH2 0x4BC2 JUMP JUMPDEST SWAP3 SWAP2 POP POP JUMP JUMPDEST PUSH1 0x0 PUSH1 0x20 DUP3 DUP5 SUB SLT ISZERO PUSH2 0x4C04 JUMPI PUSH2 0x4C03 PUSH2 0x3FA2 JUMP JUMPDEST JUMPDEST PUSH1 0x0 PUSH2 0x4C12 DUP5 DUP3 DUP6 ADD PUSH2 0x4BD9 JUMP JUMPDEST SWAP2 POP POP SWAP3 SWAP2 POP POP JUMP JUMPDEST PUSH32 0x4E6674206E6F7420617070726F76656420746F20636F6E747261637400000000 PUSH1 0x0 DUP3 ADD MSTORE POP JUMP JUMPDEST PUSH1 0x0 PUSH2 0x4C51 PUSH1 0x1C DUP4 PUSH2 0x45BE JUMP JUMPDEST SWAP2 POP PUSH2 0x4C5C DUP3 PUSH2 0x4C1B JUMP JUMPDEST PUSH1 0x20 DUP3 ADD SWAP1 POP SWAP2 SWAP1 POP JUMP JUMPDEST PUSH1 0x0 PUSH1 0x20 DUP3 ADD SWAP1 POP DUP2 DUP2 SUB PUSH1 0x0 DUP4 ADD MSTORE PUSH2 0x4C80 DUP2 PUSH2 0x4C44 JUMP JUMPDEST SWAP1 POP SWAP2 SWAP1 POP JUMP JUMPDEST PUSH1 0x0 PUSH1 0x60 DUP3 ADD SWAP1 POP PUSH2 0x4C9C PUSH1 0x0 DUP4 ADD DUP7 PUSH2 0x477F JUMP JUMPDEST PUSH2 0x4CA9 PUSH1 0x20 DUP4 ADD DUP6 PUSH2 0x477F JUMP JUMPDEST PUSH2 0x4CB6 PUSH1 0x40 DUP4 ADD DUP5 PUSH2 0x4334 JUMP JUMPDEST SWAP5 SWAP4 POP POP POP POP JUMP JUMPDEST PUSH1 0x0 PUSH1 0xC0 DUP3 ADD SWAP1 POP PUSH2 0x4CD3 PUSH1 0x0 DUP4 ADD DUP10 PUSH2 0x477F JUMP JUMPDEST PUSH2 0x4CE0 PUSH1 0x20 DUP4 ADD DUP9 PUSH2 0x477F JUMP JUMPDEST PUSH2 0x4CED PUSH1 0x40 DUP4 ADD DUP8 PUSH2 0x477F JUMP JUMPDEST PUSH2 0x4CFA PUSH1 0x60 DUP4 ADD DUP7 PUSH2 0x4334 JUMP JUMPDEST PUSH2 0x4D07 PUSH1 0x80 DUP4 ADD DUP6 PUSH2 0x4334 JUMP JUMPDEST PUSH2 0x4D14 PUSH1 0xA0 DUP4 ADD DUP5 PUSH2 0x4334 JUMP JUMPDEST SWAP8 SWAP7 POP POP POP POP POP POP POP JUMP JUMPDEST PUSH32 0x6E6F74206E6674206F776E657200000000000000000000000000000000000000 PUSH1 0x0 DUP3 ADD MSTORE POP JUMP JUMPDEST PUSH1 0x0 PUSH2 0x4D55 PUSH1 0xD DUP4 PUSH2 0x45BE JUMP JUMPDEST SWAP2 POP PUSH2 0x4D60 DUP3 PUSH2 0x4D1F JUMP JUMPDEST PUSH1 0x20 DUP3 ADD SWAP1 POP SWAP2 SWAP1 POP JUMP JUMPDEST PUSH1 0x0 PUSH1 0x20 DUP3 ADD SWAP1 POP DUP2 DUP2 SUB PUSH1 0x0 DUP4 ADD MSTORE PUSH2 0x4D84 DUP2 PUSH2 0x4D48 JUMP JUMPDEST SWAP1 POP SWAP2 SWAP1 POP JUMP JUMPDEST PUSH32 0x626964206D616B65000000000000000000000000000000000000000000000000 PUSH1 0x0 DUP3 ADD MSTORE POP JUMP JUMPDEST PUSH1 0x0 PUSH2 0x4DC1 PUSH1 0x8 DUP4 PUSH2 0x45BE JUMP JUMPDEST SWAP2 POP PUSH2 0x4DCC DUP3 PUSH2 0x4D8B JUMP JUMPDEST PUSH1 0x20 DUP3 ADD SWAP1 POP SWAP2 SWAP1 POP JUMP JUMPDEST PUSH1 0x0 PUSH1 0x20 DUP3 ADD SWAP1 POP DUP2 DUP2 SUB PUSH1 0x0 DUP4 ADD MSTORE PUSH2 0x4DF0 DUP2 PUSH2 0x4DB4 JUMP JUMPDEST SWAP1 POP SWAP2 SWAP1 POP JUMP JUMPDEST PUSH32 0x627579205072696365206E6F7420656E6F756768000000000000000000000000 PUSH1 0x0 DUP3 ADD MSTORE POP JUMP JUMPDEST PUSH1 0x0 PUSH2 0x4E2D PUSH1 0x14 DUP4 PUSH2 0x45BE JUMP JUMPDEST SWAP2 POP PUSH2 0x4E38 DUP3 PUSH2 0x4DF7 JUMP JUMPDEST PUSH1 0x20 DUP3 ADD SWAP1 POP SWAP2 SWAP1 POP JUMP JUMPDEST PUSH1 0x0 PUSH1 0x20 DUP3 ADD SWAP1 POP DUP2 DUP2 SUB PUSH1 0x0 DUP4 ADD MSTORE PUSH2 0x4E5C DUP2 PUSH2 0x4E20 JUMP JUMPDEST SWAP1 POP SWAP2 SWAP1 POP JUMP JUMPDEST PUSH1 0x0 PUSH1 0x80 DUP3 ADD SWAP1 POP PUSH2 0x4E78 PUSH1 0x0 DUP4 ADD DUP8 PUSH2 0x477F JUMP JUMPDEST PUSH2 0x4E85 PUSH1 0x20 DUP4 ADD DUP7 PUSH2 0x477F JUMP JUMPDEST PUSH2 0x4E92 PUSH1 0x40 DUP4 ADD DUP6 PUSH2 0x4334 JUMP JUMPDEST PUSH2 0x4E9F PUSH1 0x60 DUP4 ADD DUP5 PUSH2 0x4334 JUMP JUMPDEST SWAP6 SWAP5 POP POP POP POP POP JUMP JUMPDEST PUSH1 0x0 PUSH1 0xE0 DUP3 ADD SWAP1 POP PUSH2 0x4EBD PUSH1 0x0 DUP4 ADD DUP11 PUSH2 0x477F JUMP JUMPDEST PUSH2 0x4ECA PUSH1 0x20 DUP4 ADD DUP10 PUSH2 0x477F JUMP JUMPDEST PUSH2 0x4ED7 PUSH1 0x40 DUP4 ADD DUP9 PUSH2 0x477F JUMP JUMPDEST PUSH2 0x4EE4 PUSH1 0x60 DUP4 ADD DUP8 PUSH2 0x4334 JUMP JUMPDEST PUSH2 0x4EF1 PUSH1 0x80 DUP4 ADD DUP7 PUSH2 0x4334 JUMP JUMPDEST PUSH2 0x4EFE PUSH1 0xA0 DUP4 ADD DUP6 PUSH2 0x4334 JUMP JUMPDEST PUSH2 0x4F0B PUSH1 0xC0 DUP4 ADD DUP5 PUSH2 0x4334 JUMP JUMPDEST SWAP9 SWAP8 POP POP POP POP POP POP POP POP JUMP JUMPDEST PUSH32 0x616C6C6F77616E6365206E6F7420656E6F756768000000000000000000000000 PUSH1 0x0 DUP3 ADD MSTORE POP JUMP JUMPDEST PUSH1 0x0 PUSH2 0x4F4D PUSH1 0x14 DUP4 PUSH2 0x45BE JUMP JUMPDEST SWAP2 POP PUSH2 0x4F58 DUP3 PUSH2 0x4F17 JUMP JUMPDEST PUSH1 0x20 DUP3 ADD SWAP1 POP SWAP2 SWAP1 POP JUMP JUMPDEST PUSH1 0x0 PUSH1 0x20 DUP3 ADD SWAP1 POP DUP2 DUP2 SUB PUSH1 0x0 DUP4 ADD MSTORE PUSH2 0x4F7C DUP2 PUSH2 0x4F40 JUMP JUMPDEST SWAP1 POP SWAP2 SWAP1 POP JUMP JUMPDEST PUSH32 0x4E487B7100000000000000000000000000000000000000000000000000000000 PUSH1 0x0 MSTORE PUSH1 0x11 PUSH1 0x4 MSTORE PUSH1 0x24 PUSH1 0x0 REVERT JUMPDEST PUSH1 0x0 PUSH2 0x4FBD DUP3 PUSH2 0x400A JUMP JUMPDEST SWAP2 POP PUSH2 0x4FC8 DUP4 PUSH2 0x400A JUMP JUMPDEST SWAP3 POP DUP3 DUP3 ADD SWAP1 POP DUP1 DUP3 GT ISZERO PUSH2 0x4FE0 JUMPI PUSH2 0x4FDF PUSH2 0x4F83 JUMP JUMPDEST JUMPDEST SWAP3 SWAP2 POP POP JUMP JUMPDEST PUSH1 0x0 PUSH1 0x40 DUP3 ADD SWAP1 POP PUSH2 0x4FFB PUSH1 0x0 DUP4 ADD DUP6 PUSH2 0x477F JUMP JUMPDEST PUSH2 0x5008 PUSH1 0x20 DUP4 ADD DUP5 PUSH2 0x4334 JUMP JUMPDEST SWAP4 SWAP3 POP POP POP JUMP JUMPDEST PUSH1 0x0 DUP2 SWAP1 POP SWAP3 SWAP2 POP POP JUMP JUMPDEST POP JUMP JUMPDEST PUSH1 0x0 PUSH2 0x502A PUSH1 0x0 DUP4 PUSH2 0x500F JUMP JUMPDEST SWAP2 POP PUSH2 0x5035 DUP3 PUSH2 0x501A JUMP JUMPDEST PUSH1 0x0 DUP3 ADD SWAP1 POP SWAP2 SWAP1 POP JUMP JUMPDEST PUSH1 0x0 PUSH2 0x504B DUP3 PUSH2 0x501D JUMP JUMPDEST SWAP2 POP DUP2 SWAP1 POP SWAP2 SWAP1 POP JUMP JUMPDEST PUSH32 0x726566756E64206661696C656400000000000000000000000000000000000000 PUSH1 0x0 DUP3 ADD MSTORE POP JUMP JUMPDEST PUSH1 0x0 PUSH2 0x508B PUSH1 0xD DUP4 PUSH2 0x45BE JUMP JUMPDEST SWAP2 POP PUSH2 0x5096 DUP3 PUSH2 0x5055 JUMP JUMPDEST PUSH1 0x20 DUP3 ADD SWAP1 POP SWAP2 SWAP1 POP JUMP JUMPDEST PUSH1 0x0 PUSH1 0x20 DUP3 ADD SWAP1 POP DUP2 DUP2 SUB PUSH1 0x0 DUP4 ADD MSTORE PUSH2 0x50BA DUP2 PUSH2 0x507E JUMP JUMPDEST SWAP1 POP SWAP2 SWAP1 POP JUMP INVALID LOG2 PUSH5 0x6970667358 0x22 SLT KECCAK256 0xFB TIMESTAMP EXTCODESIZE SWAP11 GT PUSH24 0xD75792E9E1052EAB518E4590ADA93CE1C381B5B29BC231F4 PUSH20 0x5C64736F6C634300081100330000000000000000 "
				},
				"gasEstimates": {
					"creation": {
						"codeDepositCost": "4145400",
						"executionCost": "4759",
						"totalCost": "4150159"
					},
					"external": {
						"_cancelAuctionSale(address,uint256)": "infinite",
						"buyFromFixedSale(address,uint256,uint256)": "infinite",
						"cancelFixedsale(address,uint256)": "infinite",
						"createNftAuctionSale(address,address,uint256,uint256,uint256,uint256)": "infinite",
						"getAuctionSaleNFT()": "infinite",
						"getFixedSale(address,uint256)": "infinite",
						"getFixedSaleNFT()": "infinite",
						"getNftAuctionSaleDetails(address,uint256)": "infinite",
						"makeBid(address,uint256,uint256)": "infinite",
						"nftFixedSale(address,address,uint256,uint256)": "infinite",
						"nftSaleStatus(address,uint256)": "infinite",
						"onERC721Received(address,address,uint256,bytes)": "infinite",
						"settleAuction(address,uint256)": "infinite",
						"updateFixedSalePrice(address,uint256,uint256)": "infinite",
						"updateTheBidPrice(address,uint256,uint256)": "infinite",
						"userBidPriceOnNFT(address,uint256,address)": "infinite",
						"withdrawBid(address,uint256)": "infinite"
					},
					"internal": {
						"_bidAmountTransfer(uint256,address)": "infinite",
						"_isTokenOrCoin(address,address,uint256)": "infinite",
						"_nativeAmountTransfer(address,uint256)": "infinite",
						"_storedNftAuctionDetails(address,address,uint256,uint256,uint256,uint256)": "infinite",
						"_tokenAmountTransfer(address,address,uint256)": "infinite",
						"_transferNftAndPaySeller(address,uint256,uint256,address)": "infinite"
					}
				},
				"methodIdentifiers": {
					"_cancelAuctionSale(address,uint256)": "842bc46a",
					"buyFromFixedSale(address,uint256,uint256)": "baf4371e",
					"cancelFixedsale(address,uint256)": "d3a6a6c9",
					"createNftAuctionSale(address,address,uint256,uint256,uint256,uint256)": "cf42b7e6",
					"getAuctionSaleNFT()": "1e7a044f",
					"getFixedSale(address,uint256)": "8c3417da",
					"getFixedSaleNFT()": "9f085a00",
					"getNftAuctionSaleDetails(address,uint256)": "6f8c9b1b",
					"makeBid(address,uint256,uint256)": "1bdae6f1",
					"nftFixedSale(address,address,uint256,uint256)": "69a6d12e",
					"nftSaleStatus(address,uint256)": "6916462f",
					"onERC721Received(address,address,uint256,bytes)": "150b7a02",
					"settleAuction(address,uint256)": "5138b08c",
					"updateFixedSalePrice(address,uint256,uint256)": "4676adca",
					"updateTheBidPrice(address,uint256,uint256)": "3a713db8",
					"userBidPriceOnNFT(address,uint256,address)": "6fe02f24",
					"withdrawBid(address,uint256)": "4cb8ef5b"
				}
			},
			"storageLayout": {
				"storage": [
					{
						"astId": 581,
						"contract": "Arevea-NFT-Market/NFT-Contracts/contracts/finalMarket_single.sol:NFTMarketplace",
						"label": "nftContractFixedSale",
						"offset": 0,
						"slot": "0",
						"type": "t_mapping(t_address,t_mapping(t_uint256,t_struct(FixedSale)569_storage))"
					},
					{
						"astId": 588,
						"contract": "Arevea-NFT-Market/NFT-Contracts/contracts/finalMarket_single.sol:NFTMarketplace",
						"label": "nftContractAuctionSale",
						"offset": 0,
						"slot": "1",
						"type": "t_mapping(t_address,t_mapping(t_uint256,t_struct(Auction)560_storage))"
					},
					{
						"astId": 594,
						"contract": "Arevea-NFT-Market/NFT-Contracts/contracts/finalMarket_single.sol:NFTMarketplace",
						"label": "nftSaleStatus",
						"offset": 0,
						"slot": "2",
						"type": "t_mapping(t_address,t_mapping(t_uint256,t_uint256))"
					},
					{
						"astId": 602,
						"contract": "Arevea-NFT-Market/NFT-Contracts/contracts/finalMarket_single.sol:NFTMarketplace",
						"label": "userBidPriceOnNFT",
						"offset": 0,
						"slot": "3",
						"type": "t_mapping(t_address,t_mapping(t_uint256,t_mapping(t_address,t_uint256)))"
					},
					{
						"astId": 608,
						"contract": "Arevea-NFT-Market/NFT-Contracts/contracts/finalMarket_single.sol:NFTMarketplace",
						"label": "indexFixedSaleNFT",
						"offset": 0,
						"slot": "4",
						"type": "t_mapping(t_address,t_mapping(t_uint256,t_uint256))"
					},
					{
						"astId": 614,
						"contract": "Arevea-NFT-Market/NFT-Contracts/contracts/finalMarket_single.sol:NFTMarketplace",
						"label": "indexAuctionSaleNFT",
						"offset": 0,
						"slot": "5",
						"type": "t_mapping(t_address,t_mapping(t_uint256,t_uint256))"
					},
					{
						"astId": 618,
						"contract": "Arevea-NFT-Market/NFT-Contracts/contracts/finalMarket_single.sol:NFTMarketplace",
						"label": "fixedSaleNFT",
						"offset": 0,
						"slot": "6",
						"type": "t_array(t_struct(SaleInfo)574_storage)dyn_storage"
					},
					{
						"astId": 622,
						"contract": "Arevea-NFT-Market/NFT-Contracts/contracts/finalMarket_single.sol:NFTMarketplace",
						"label": "auctionSaleNFT",
						"offset": 0,
						"slot": "7",
						"type": "t_array(t_struct(SaleInfo)574_storage)dyn_storage"
					}
				],
				"types": {
					"t_address": {
						"encoding": "inplace",
						"label": "address",
						"numberOfBytes": "20"
					},
					"t_array(t_struct(SaleInfo)574_storage)dyn_storage": {
						"base": "t_struct(SaleInfo)574_storage",
						"encoding": "dynamic_array",
						"label": "struct NFTMarketplace.SaleInfo[]",
						"numberOfBytes": "32"
					},
					"t_mapping(t_address,t_mapping(t_uint256,t_mapping(t_address,t_uint256)))": {
						"encoding": "mapping",
						"key": "t_address",
						"label": "mapping(address => mapping(uint256 => mapping(address => uint256)))",
						"numberOfBytes": "32",
						"value": "t_mapping(t_uint256,t_mapping(t_address,t_uint256))"
					},
					"t_mapping(t_address,t_mapping(t_uint256,t_struct(Auction)560_storage))": {
						"encoding": "mapping",
						"key": "t_address",
						"label": "mapping(address => mapping(uint256 => struct NFTMarketplace.Auction))",
						"numberOfBytes": "32",
						"value": "t_mapping(t_uint256,t_struct(Auction)560_storage)"
					},
					"t_mapping(t_address,t_mapping(t_uint256,t_struct(FixedSale)569_storage))": {
						"encoding": "mapping",
						"key": "t_address",
						"label": "mapping(address => mapping(uint256 => struct NFTMarketplace.FixedSale))",
						"numberOfBytes": "32",
						"value": "t_mapping(t_uint256,t_struct(FixedSale)569_storage)"
					},
					"t_mapping(t_address,t_mapping(t_uint256,t_uint256))": {
						"encoding": "mapping",
						"key": "t_address",
						"label": "mapping(address => mapping(uint256 => uint256))",
						"numberOfBytes": "32",
						"value": "t_mapping(t_uint256,t_uint256)"
					},
					"t_mapping(t_address,t_uint256)": {
						"encoding": "mapping",
						"key": "t_address",
						"label": "mapping(address => uint256)",
						"numberOfBytes": "32",
						"value": "t_uint256"
					},
					"t_mapping(t_uint256,t_mapping(t_address,t_uint256))": {
						"encoding": "mapping",
						"key": "t_uint256",
						"label": "mapping(uint256 => mapping(address => uint256))",
						"numberOfBytes": "32",
						"value": "t_mapping(t_address,t_uint256)"
					},
					"t_mapping(t_uint256,t_struct(Auction)560_storage)": {
						"encoding": "mapping",
						"key": "t_uint256",
						"label": "mapping(uint256 => struct NFTMarketplace.Auction)",
						"numberOfBytes": "32",
						"value": "t_struct(Auction)560_storage"
					},
					"t_mapping(t_uint256,t_struct(FixedSale)569_storage)": {
						"encoding": "mapping",
						"key": "t_uint256",
						"label": "mapping(uint256 => struct NFTMarketplace.FixedSale)",
						"numberOfBytes": "32",
						"value": "t_struct(FixedSale)569_storage"
					},
					"t_mapping(t_uint256,t_uint256)": {
						"encoding": "mapping",
						"key": "t_uint256",
						"label": "mapping(uint256 => uint256)",
						"numberOfBytes": "32",
						"value": "t_uint256"
					},
					"t_struct(Auction)560_storage": {
						"encoding": "inplace",
						"label": "struct NFTMarketplace.Auction",
						"members": [
							{
								"astId": 547,
								"contract": "Arevea-NFT-Market/NFT-Contracts/contracts/finalMarket_single.sol:NFTMarketplace",
								"label": "auctionStart",
								"offset": 0,
								"slot": "0",
								"type": "t_uint256"
							},
							{
								"astId": 549,
								"contract": "Arevea-NFT-Market/NFT-Contracts/contracts/finalMarket_single.sol:NFTMarketplace",
								"label": "auctionEnd",
								"offset": 0,
								"slot": "1",
								"type": "t_uint256"
							},
							{
								"astId": 551,
								"contract": "Arevea-NFT-Market/NFT-Contracts/contracts/finalMarket_single.sol:NFTMarketplace",
								"label": "minPrice",
								"offset": 0,
								"slot": "2",
								"type": "t_uint256"
							},
							{
								"astId": 553,
								"contract": "Arevea-NFT-Market/NFT-Contracts/contracts/finalMarket_single.sol:NFTMarketplace",
								"label": "nftHighestBid",
								"offset": 0,
								"slot": "3",
								"type": "t_uint256"
							},
							{
								"astId": 555,
								"contract": "Arevea-NFT-Market/NFT-Contracts/contracts/finalMarket_single.sol:NFTMarketplace",
								"label": "nftHighestBidder",
								"offset": 0,
								"slot": "4",
								"type": "t_address"
							},
							{
								"astId": 557,
								"contract": "Arevea-NFT-Market/NFT-Contracts/contracts/finalMarket_single.sol:NFTMarketplace",
								"label": "nftSeller",
								"offset": 0,
								"slot": "5",
								"type": "t_address"
							},
							{
								"astId": 559,
								"contract": "Arevea-NFT-Market/NFT-Contracts/contracts/finalMarket_single.sol:NFTMarketplace",
								"label": "erc20",
								"offset": 0,
								"slot": "6",
								"type": "t_address"
							}
						],
						"numberOfBytes": "224"
					},
					"t_struct(FixedSale)569_storage": {
						"encoding": "inplace",
						"label": "struct NFTMarketplace.FixedSale",
						"members": [
							{
								"astId": 562,
								"contract": "Arevea-NFT-Market/NFT-Contracts/contracts/finalMarket_single.sol:NFTMarketplace",
								"label": "nftSeller",
								"offset": 0,
								"slot": "0",
								"type": "t_address"
							},
							{
								"astId": 564,
								"contract": "Arevea-NFT-Market/NFT-Contracts/contracts/finalMarket_single.sol:NFTMarketplace",
								"label": "nftBuyer",
								"offset": 0,
								"slot": "1",
								"type": "t_address"
							},
							{
								"astId": 566,
								"contract": "Arevea-NFT-Market/NFT-Contracts/contracts/finalMarket_single.sol:NFTMarketplace",
								"label": "erc20",
								"offset": 0,
								"slot": "2",
								"type": "t_address"
							},
							{
								"astId": 568,
								"contract": "Arevea-NFT-Market/NFT-Contracts/contracts/finalMarket_single.sol:NFTMarketplace",
								"label": "salePrice",
								"offset": 0,
								"slot": "3",
								"type": "t_uint256"
							}
						],
						"numberOfBytes": "128"
					},
					"t_struct(SaleInfo)574_storage": {
						"encoding": "inplace",
						"label": "struct NFTMarketplace.SaleInfo",
						"members": [
							{
								"astId": 571,
								"contract": "Arevea-NFT-Market/NFT-Contracts/contracts/finalMarket_single.sol:NFTMarketplace",
								"label": "_nftContractAddress",
								"offset": 0,
								"slot": "0",
								"type": "t_address"
							},
							{
								"astId": 573,
								"contract": "Arevea-NFT-Market/NFT-Contracts/contracts/finalMarket_single.sol:NFTMarketplace",
								"label": "_tokenID",
								"offset": 0,
								"slot": "1",
								"type": "t_uint256"
							}
						],
						"numberOfBytes": "64"
					},
					"t_uint256": {
						"encoding": "inplace",
						"label": "uint256",
						"numberOfBytes": "32"
					}
				}
			},
			"userdoc": {
				"kind": "user",
				"methods": {},
				"version": 1
			}
		}
	}
}