{
	"NFT-Contracts/contracts/MarketPlace.sol": {
		"MarketPlace": {
			"abi": [
				{
					"inputs": [
						{
							"internalType": "uint8",
							"name": "_buyerFee",
							"type": "uint8"
						},
						{
							"internalType": "uint8",
							"name": "_sellerFee",
							"type": "uint8"
						}
					],
					"stateMutability": "nonpayable",
					"type": "constructor"
				},
				{
					"anonymous": false,
					"inputs": [
						{
							"indexed": true,
							"internalType": "address",
							"name": "Owner",
							"type": "address"
						},
						{
							"indexed": true,
							"internalType": "uint256",
							"name": "tokenId",
							"type": "uint256"
						},
						{
							"indexed": false,
							"internalType": "uint256",
							"name": "quantity",
							"type": "uint256"
						},
						{
							"indexed": true,
							"internalType": "address",
							"name": "buyer",
							"type": "address"
						}
					],
					"name": "BuyAsset",
					"type": "event"
				},
				{
					"anonymous": false,
					"inputs": [
						{
							"indexed": true,
							"internalType": "address",
							"name": "Owner",
							"type": "address"
						},
						{
							"indexed": true,
							"internalType": "uint256",
							"name": "tokenId",
							"type": "uint256"
						},
						{
							"indexed": false,
							"internalType": "uint256",
							"name": "quantity",
							"type": "uint256"
						},
						{
							"indexed": true,
							"internalType": "address",
							"name": "buyer",
							"type": "address"
						}
					],
					"name": "ExecuteBid",
					"type": "event"
				},
				{
					"anonymous": false,
					"inputs": [
						{
							"indexed": true,
							"internalType": "address",
							"name": "previousOwner",
							"type": "address"
						},
						{
							"indexed": true,
							"internalType": "address",
							"name": "newOwner",
							"type": "address"
						}
					],
					"name": "OwnershipTransferred",
					"type": "event"
				},
				{
					"inputs": [],
					"name": "Owner",
					"outputs": [
						{
							"internalType": "address",
							"name": "",
							"type": "address"
						}
					],
					"stateMutability": "view",
					"type": "function"
				},
				{
					"inputs": [
						{
							"components": [
								{
									"internalType": "address",
									"name": "seller",
									"type": "address"
								},
								{
									"internalType": "address",
									"name": "buyer",
									"type": "address"
								},
								{
									"internalType": "address",
									"name": "erc20Address",
									"type": "address"
								},
								{
									"internalType": "address",
									"name": "nftAddress",
									"type": "address"
								},
								{
									"internalType": "enum MarketPlace.BuyType",
									"name": "nftType",
									"type": "uint8"
								},
								{
									"internalType": "uint256",
									"name": "unitPrice",
									"type": "uint256"
								},
								{
									"internalType": "uint256",
									"name": "amount",
									"type": "uint256"
								},
								{
									"internalType": "uint256",
									"name": "tokenId",
									"type": "uint256"
								},
								{
									"internalType": "uint256",
									"name": "qty",
									"type": "uint256"
								}
							],
							"internalType": "struct MarketPlace.Trade",
							"name": "trade",
							"type": "tuple"
						}
					],
					"name": "buyAsset",
					"outputs": [
						{
							"internalType": "bool",
							"name": "",
							"type": "bool"
						}
					],
					"stateMutability": "nonpayable",
					"type": "function"
				},
				{
					"inputs": [],
					"name": "buyerServiceFee",
					"outputs": [
						{
							"internalType": "uint8",
							"name": "",
							"type": "uint8"
						}
					],
					"stateMutability": "view",
					"type": "function"
				},
				{
					"inputs": [],
					"name": "owner",
					"outputs": [
						{
							"internalType": "address",
							"name": "",
							"type": "address"
						}
					],
					"stateMutability": "view",
					"type": "function"
				},
				{
					"inputs": [],
					"name": "renounceOwnership",
					"outputs": [],
					"stateMutability": "nonpayable",
					"type": "function"
				},
				{
					"inputs": [],
					"name": "sellerServiceFee",
					"outputs": [
						{
							"internalType": "uint8",
							"name": "",
							"type": "uint8"
						}
					],
					"stateMutability": "view",
					"type": "function"
				},
				{
					"inputs": [
						{
							"internalType": "uint8",
							"name": "_buyerFee",
							"type": "uint8"
						}
					],
					"name": "setBuyerServiceFee",
					"outputs": [
						{
							"internalType": "bool",
							"name": "",
							"type": "bool"
						}
					],
					"stateMutability": "nonpayable",
					"type": "function"
				},
				{
					"inputs": [
						{
							"internalType": "uint8",
							"name": "_sellerFee",
							"type": "uint8"
						}
					],
					"name": "setSellerServiceFee",
					"outputs": [
						{
							"internalType": "bool",
							"name": "",
							"type": "bool"
						}
					],
					"stateMutability": "nonpayable",
					"type": "function"
				},
				{
					"inputs": [
						{
							"internalType": "address",
							"name": "newOwner",
							"type": "address"
						}
					],
					"name": "transferOwnership",
					"outputs": [],
					"stateMutability": "nonpayable",
					"type": "function"
				}
			],
			"devdoc": {
				"kind": "dev",
				"methods": {
					"owner()": {
						"details": "Returns the address of the current owner."
					},
					"renounceOwnership()": {
						"details": "Leaves the contract without owner. It will not be possible to call `onlyOwner` functions anymore. Can only be called by the current owner. NOTE: Renouncing ownership will leave the contract without an owner, thereby removing any functionality that is only available to the owner."
					},
					"transferOwnership(address)": {
						"details": "Transfers ownership of the contract to a new account (`newOwner`). Can only be called by the current owner."
					}
				},
				"version": 1
			},
			"evm": {
				"assembly": "    /* \"NFT-Contracts/contracts/MarketPlace.sol\":261:7251  contract MarketPlace is Ownable{\r... */\n  mstore(0x40, 0x80)\n    /* \"NFT-Contracts/contracts/MarketPlace.sol\":1060:1180  constructor (uint8 _buyerFee, uint8 _sellerFee) {\r... */\n  callvalue\n  dup1\n  iszero\n  tag_1\n  jumpi\n  0x00\n  dup1\n  revert\ntag_1:\n  pop\n  mload(0x40)\n  sub(codesize, bytecodeSize)\n  dup1\n  bytecodeSize\n  dup4\n  codecopy\n  dup2\n  dup2\n  add\n  0x40\n  mstore\n  dup2\n  add\n  swap1\n  tag_2\n  swap2\n  swap1\n  tag_3\n  jump\t// in\ntag_2:\n    /* \"NFT-Contracts/contracts/External/Ownable.sol\":957:989  _transferOwnership(_msgSender()) */\n  tag_7\n    /* \"NFT-Contracts/contracts/External/Ownable.sol\":976:988  _msgSender() */\n  tag_8\n    /* \"NFT-Contracts/contracts/External/Ownable.sol\":976:986  _msgSender */\n  shl(0x20, tag_9)\n    /* \"NFT-Contracts/contracts/External/Ownable.sol\":976:988  _msgSender() */\n  0x20\n  shr\n  jump\t// in\ntag_8:\n    /* \"NFT-Contracts/contracts/External/Ownable.sol\":957:975  _transferOwnership */\n  shl(0x20, tag_10)\n    /* \"NFT-Contracts/contracts/External/Ownable.sol\":957:989  _transferOwnership(_msgSender()) */\n  0x20\n  shr\n  jump\t// in\ntag_7:\n    /* \"NFT-Contracts/contracts/MarketPlace.sol\":1130:1139  _buyerFee */\n  dup2\n    /* \"NFT-Contracts/contracts/MarketPlace.sol\":1119:1127  buyerFee */\n  0x00\n  0x14\n    /* \"NFT-Contracts/contracts/MarketPlace.sol\":1119:1139  buyerFee = _buyerFee */\n  0x0100\n  exp\n  dup2\n  sload\n  dup2\n  0xff\n  mul\n  not\n  and\n  swap1\n  dup4\n  0xff\n  and\n  mul\n  or\n  swap1\n  sstore\n  pop\n    /* \"NFT-Contracts/contracts/MarketPlace.sol\":1162:1172  _sellerFee */\n  dup1\n    /* \"NFT-Contracts/contracts/MarketPlace.sol\":1150:1159  sellerFee */\n  0x00\n  0x15\n    /* \"NFT-Contracts/contracts/MarketPlace.sol\":1150:1172  sellerFee = _sellerFee */\n  0x0100\n  exp\n  dup2\n  sload\n  dup2\n  0xff\n  mul\n  not\n  and\n  swap1\n  dup4\n  0xff\n  and\n  mul\n  or\n  swap1\n  sstore\n  pop\n    /* \"NFT-Contracts/contracts/MarketPlace.sol\":1060:1180  constructor (uint8 _buyerFee, uint8 _sellerFee) {\r... */\n  pop\n  pop\n    /* \"NFT-Contracts/contracts/MarketPlace.sol\":261:7251  contract MarketPlace is Ownable{\r... */\n  jump(tag_12)\n    /* \"NFT-Contracts/contracts/External/Context.sol\":145:260  function _msgSender() internal view virtual returns (address payable) {\r... */\ntag_9:\n    /* \"NFT-Contracts/contracts/External/Context.sol\":198:213  address payable */\n  0x00\n    /* \"NFT-Contracts/contracts/External/Context.sol\":241:251  msg.sender */\n  caller\n    /* \"NFT-Contracts/contracts/External/Context.sol\":226:252  return payable(msg.sender) */\n  swap1\n  pop\n    /* \"NFT-Contracts/contracts/External/Context.sol\":145:260  function _msgSender() internal view virtual returns (address payable) {\r... */\n  swap1\n  jump\t// out\n    /* \"NFT-Contracts/contracts/External/Ownable.sol\":2503:2694  function _transferOwnership(address newOwner) internal virtual {\r... */\ntag_10:\n    /* \"NFT-Contracts/contracts/External/Ownable.sol\":2577:2593  address oldOwner */\n  0x00\n    /* \"NFT-Contracts/contracts/External/Ownable.sol\":2596:2602  _owner */\n  dup1\n  0x00\n  swap1\n  sload\n  swap1\n  0x0100\n  exp\n  swap1\n  div\n  0xffffffffffffffffffffffffffffffffffffffff\n  and\n    /* \"NFT-Contracts/contracts/External/Ownable.sol\":2577:2602  address oldOwner = _owner */\n  swap1\n  pop\n    /* \"NFT-Contracts/contracts/External/Ownable.sol\":2622:2630  newOwner */\n  dup2\n    /* \"NFT-Contracts/contracts/External/Ownable.sol\":2613:2619  _owner */\n  0x00\n  dup1\n    /* \"NFT-Contracts/contracts/External/Ownable.sol\":2613:2630  _owner = newOwner */\n  0x0100\n  exp\n  dup2\n  sload\n  dup2\n  0xffffffffffffffffffffffffffffffffffffffff\n  mul\n  not\n  and\n  swap1\n  dup4\n  0xffffffffffffffffffffffffffffffffffffffff\n  and\n  mul\n  or\n  swap1\n  sstore\n  pop\n    /* \"NFT-Contracts/contracts/External/Ownable.sol\":2677:2685  newOwner */\n  dup2\n    /* \"NFT-Contracts/contracts/External/Ownable.sol\":2646:2686  OwnershipTransferred(oldOwner, newOwner) */\n  0xffffffffffffffffffffffffffffffffffffffff\n  and\n    /* \"NFT-Contracts/contracts/External/Ownable.sol\":2667:2675  oldOwner */\n  dup2\n    /* \"NFT-Contracts/contracts/External/Ownable.sol\":2646:2686  OwnershipTransferred(oldOwner, newOwner) */\n  0xffffffffffffffffffffffffffffffffffffffff\n  and\n  0x8be0079c531659141344cd1fd0a4f28419497f9722a3daafe3b4186f6b6457e0\n  mload(0x40)\n  mload(0x40)\n  dup1\n  swap2\n  sub\n  swap1\n  log3\n    /* \"NFT-Contracts/contracts/External/Ownable.sol\":2566:2694  {\r... */\n  pop\n    /* \"NFT-Contracts/contracts/External/Ownable.sol\":2503:2694  function _transferOwnership(address newOwner) internal virtual {\r... */\n  pop\n  jump\t// out\n    /* \"#utility.yul\":7:146   */\ntag_16:\n    /* \"#utility.yul\":62:67   */\n  0x00\n    /* \"#utility.yul\":93:99   */\n  dup2\n    /* \"#utility.yul\":87:100   */\n  mload\n    /* \"#utility.yul\":78:100   */\n  swap1\n  pop\n    /* \"#utility.yul\":109:140   */\n  tag_18\n    /* \"#utility.yul\":134:139   */\n  dup2\n    /* \"#utility.yul\":109:140   */\n  tag_19\n  jump\t// in\ntag_18:\n    /* \"#utility.yul\":7:146   */\n  swap3\n  swap2\n  pop\n  pop\n  jump\t// out\n    /* \"#utility.yul\":152:651   */\ntag_3:\n    /* \"#utility.yul\":227:233   */\n  0x00\n    /* \"#utility.yul\":235:241   */\n  dup1\n    /* \"#utility.yul\":284:286   */\n  0x40\n    /* \"#utility.yul\":272:281   */\n  dup4\n    /* \"#utility.yul\":263:270   */\n  dup6\n    /* \"#utility.yul\":259:282   */\n  sub\n    /* \"#utility.yul\":255:287   */\n  slt\n    /* \"#utility.yul\":252:371   */\n  iszero\n  tag_21\n  jumpi\n    /* \"#utility.yul\":290:369   */\n  tag_22\n  tag_23\n  jump\t// in\ntag_22:\n    /* \"#utility.yul\":252:371   */\ntag_21:\n    /* \"#utility.yul\":410:411   */\n  0x00\n    /* \"#utility.yul\":435:497   */\n  tag_24\n    /* \"#utility.yul\":489:496   */\n  dup6\n    /* \"#utility.yul\":480:486   */\n  dup3\n    /* \"#utility.yul\":469:478   */\n  dup7\n    /* \"#utility.yul\":465:487   */\n  add\n    /* \"#utility.yul\":435:497   */\n  tag_16\n  jump\t// in\ntag_24:\n    /* \"#utility.yul\":425:497   */\n  swap3\n  pop\n    /* \"#utility.yul\":381:507   */\n  pop\n    /* \"#utility.yul\":546:548   */\n  0x20\n    /* \"#utility.yul\":572:634   */\n  tag_25\n    /* \"#utility.yul\":626:633   */\n  dup6\n    /* \"#utility.yul\":617:623   */\n  dup3\n    /* \"#utility.yul\":606:615   */\n  dup7\n    /* \"#utility.yul\":602:624   */\n  add\n    /* \"#utility.yul\":572:634   */\n  tag_16\n  jump\t// in\ntag_25:\n    /* \"#utility.yul\":562:634   */\n  swap2\n  pop\n    /* \"#utility.yul\":517:644   */\n  pop\n    /* \"#utility.yul\":152:651   */\n  swap3\n  pop\n  swap3\n  swap1\n  pop\n  jump\t// out\n    /* \"#utility.yul\":738:824   */\ntag_28:\n    /* \"#utility.yul\":773:780   */\n  0x00\n    /* \"#utility.yul\":813:817   */\n  0xff\n    /* \"#utility.yul\":806:811   */\n  dup3\n    /* \"#utility.yul\":802:818   */\n  and\n    /* \"#utility.yul\":791:818   */\n  swap1\n  pop\n    /* \"#utility.yul\":738:824   */\n  swap2\n  swap1\n  pop\n  jump\t// out\n    /* \"#utility.yul\":953:1070   */\ntag_23:\n    /* \"#utility.yul\":1062:1063   */\n  0x00\n    /* \"#utility.yul\":1059:1060   */\n  dup1\n    /* \"#utility.yul\":1052:1064   */\n  revert\n    /* \"#utility.yul\":1076:1194   */\ntag_19:\n    /* \"#utility.yul\":1147:1169   */\n  tag_34\n    /* \"#utility.yul\":1163:1168   */\n  dup2\n    /* \"#utility.yul\":1147:1169   */\n  tag_28\n  jump\t// in\ntag_34:\n    /* \"#utility.yul\":1140:1145   */\n  dup2\n    /* \"#utility.yul\":1137:1170   */\n  eq\n    /* \"#utility.yul\":1127:1188   */\n  tag_35\n  jumpi\n    /* \"#utility.yul\":1184:1185   */\n  0x00\n    /* \"#utility.yul\":1181:1182   */\n  dup1\n    /* \"#utility.yul\":1174:1186   */\n  revert\n    /* \"#utility.yul\":1127:1188   */\ntag_35:\n    /* \"#utility.yul\":1076:1194   */\n  pop\n  jump\t// out\n    /* \"NFT-Contracts/contracts/MarketPlace.sol\":261:7251  contract MarketPlace is Ownable{\r... */\ntag_12:\n  dataSize(sub_0)\n  dup1\n  dataOffset(sub_0)\n  0x00\n  codecopy\n  0x00\n  return\nstop\n\nsub_0: assembly {\n        /* \"NFT-Contracts/contracts/MarketPlace.sol\":261:7251  contract MarketPlace is Ownable{\r... */\n      mstore(0x40, 0x80)\n      callvalue\n      dup1\n      iszero\n      tag_1\n      jumpi\n      0x00\n      dup1\n      revert\n    tag_1:\n      pop\n      jumpi(tag_2, lt(calldatasize, 0x04))\n      shr(0xe0, calldataload(0x00))\n      dup1\n      0xa3667c7b\n      gt\n      tag_12\n      jumpi\n      dup1\n      0xa3667c7b\n      eq\n      tag_7\n      jumpi\n      dup1\n      0xa96b446d\n      eq\n      tag_8\n      jumpi\n      dup1\n      0xb4a99a4e\n      eq\n      tag_9\n      jumpi\n      dup1\n      0xdb90a177\n      eq\n      tag_10\n      jumpi\n      dup1\n      0xf2fde38b\n      eq\n      tag_11\n      jumpi\n      jump(tag_2)\n    tag_12:\n      dup1\n      0x60085da6\n      eq\n      tag_3\n      jumpi\n      dup1\n      0x715018a6\n      eq\n      tag_4\n      jumpi\n      dup1\n      0x8da5cb5b\n      eq\n      tag_5\n      jumpi\n      dup1\n      0x9c66809d\n      eq\n      tag_6\n      jumpi\n    tag_2:\n      0x00\n      dup1\n      revert\n        /* \"NFT-Contracts/contracts/MarketPlace.sol\":1291:1392  function sellerServiceFee() external view virtual returns (uint8) {\r... */\n    tag_3:\n      tag_13\n      tag_14\n      jump\t// in\n    tag_13:\n      mload(0x40)\n      tag_15\n      swap2\n      swap1\n      tag_16\n      jump\t// in\n    tag_15:\n      mload(0x40)\n      dup1\n      swap2\n      sub\n      swap1\n      return\n        /* \"NFT-Contracts/contracts/External/Ownable.sol\":1884:1987  function renounceOwnership() public virtual onlyOwner {\r... */\n    tag_4:\n      tag_17\n      tag_18\n      jump\t// in\n    tag_17:\n      stop\n        /* \"NFT-Contracts/contracts/External/Ownable.sol\":1236:1323  function owner() public view virtual returns (address) {\r... */\n    tag_5:\n      tag_19\n      tag_20\n      jump\t// in\n    tag_19:\n      mload(0x40)\n      tag_21\n      swap2\n      swap1\n      tag_22\n      jump\t// in\n    tag_21:\n      mload(0x40)\n      dup1\n      swap2\n      sub\n      swap1\n      return\n        /* \"NFT-Contracts/contracts/MarketPlace.sol\":1186:1285  function buyerServiceFee() external view virtual returns (uint8) {\r... */\n    tag_6:\n      tag_23\n      tag_24\n      jump\t// in\n    tag_23:\n      mload(0x40)\n      tag_25\n      swap2\n      swap1\n      tag_16\n      jump\t// in\n    tag_25:\n      mload(0x40)\n      dup1\n      swap2\n      sub\n      swap1\n      return\n        /* \"NFT-Contracts/contracts/MarketPlace.sol\":1544:1688  function setSellerServiceFee(uint8 _sellerFee) onlyOwner external  returns(bool) {\r... */\n    tag_7:\n      tag_26\n      0x04\n      dup1\n      calldatasize\n      sub\n      dup2\n      add\n      swap1\n      tag_27\n      swap2\n      swap1\n      tag_28\n      jump\t// in\n    tag_27:\n      tag_29\n      jump\t// in\n    tag_26:\n      mload(0x40)\n      tag_30\n      swap2\n      swap1\n      tag_31\n      jump\t// in\n    tag_30:\n      mload(0x40)\n      dup1\n      swap2\n      sub\n      swap1\n      return\n        /* \"NFT-Contracts/contracts/MarketPlace.sol\":1398:1538  function setBuyerServiceFee(uint8 _buyerFee) onlyOwner external  returns(bool) {\r... */\n    tag_8:\n      tag_32\n      0x04\n      dup1\n      calldatasize\n      sub\n      dup2\n      add\n      swap1\n      tag_33\n      swap2\n      swap1\n      tag_28\n      jump\t// in\n    tag_33:\n      tag_34\n      jump\t// in\n    tag_32:\n      mload(0x40)\n      tag_35\n      swap2\n      swap1\n      tag_31\n      jump\t// in\n    tag_35:\n      mload(0x40)\n      dup1\n      swap2\n      sub\n      swap1\n      return\n        /* \"NFT-Contracts/contracts/MarketPlace.sol\":618:638  address public Owner */\n    tag_9:\n      tag_36\n      tag_37\n      jump\t// in\n    tag_36:\n      mload(0x40)\n      tag_38\n      swap2\n      swap1\n      tag_22\n      jump\t// in\n    tag_38:\n      mload(0x40)\n      dup1\n      swap2\n      sub\n      swap1\n      return\n        /* \"NFT-Contracts/contracts/MarketPlace.sol\":3263:3686  function buyAsset(Trade calldata trade) external returns(bool) {\r... */\n    tag_10:\n      tag_39\n      0x04\n      dup1\n      calldatasize\n      sub\n      dup2\n      add\n      swap1\n      tag_40\n      swap2\n      swap1\n      tag_41\n      jump\t// in\n    tag_40:\n      tag_42\n      jump\t// in\n    tag_39:\n      mload(0x40)\n      tag_43\n      swap2\n      swap1\n      tag_31\n      jump\t// in\n    tag_43:\n      mload(0x40)\n      dup1\n      swap2\n      sub\n      swap1\n      return\n        /* \"NFT-Contracts/contracts/External/Ownable.sol\":2142:2343  function transferOwnership(address newOwner) public virtual onlyOwner {\r... */\n    tag_11:\n      tag_44\n      0x04\n      dup1\n      calldatasize\n      sub\n      dup2\n      add\n      swap1\n      tag_45\n      swap2\n      swap1\n      tag_46\n      jump\t// in\n    tag_45:\n      tag_47\n      jump\t// in\n    tag_44:\n      stop\n        /* \"NFT-Contracts/contracts/MarketPlace.sol\":1291:1392  function sellerServiceFee() external view virtual returns (uint8) {\r... */\n    tag_14:\n        /* \"NFT-Contracts/contracts/MarketPlace.sol\":1350:1355  uint8 */\n      0x00\n        /* \"NFT-Contracts/contracts/MarketPlace.sol\":1375:1384  sellerFee */\n      dup1\n      0x15\n      swap1\n      sload\n      swap1\n      0x0100\n      exp\n      swap1\n      div\n      0xff\n      and\n        /* \"NFT-Contracts/contracts/MarketPlace.sol\":1368:1384  return sellerFee */\n      swap1\n      pop\n        /* \"NFT-Contracts/contracts/MarketPlace.sol\":1291:1392  function sellerServiceFee() external view virtual returns (uint8) {\r... */\n      swap1\n      jump\t// out\n        /* \"NFT-Contracts/contracts/External/Ownable.sol\":1884:1987  function renounceOwnership() public virtual onlyOwner {\r... */\n    tag_18:\n        /* \"NFT-Contracts/contracts/External/Ownable.sol\":1122:1135  _checkOwner() */\n      tag_50\n        /* \"NFT-Contracts/contracts/External/Ownable.sol\":1122:1133  _checkOwner */\n      tag_51\n        /* \"NFT-Contracts/contracts/External/Ownable.sol\":1122:1135  _checkOwner() */\n      jump\t// in\n    tag_50:\n        /* \"NFT-Contracts/contracts/External/Ownable.sol\":1949:1979  _transferOwnership(address(0)) */\n      tag_53\n        /* \"NFT-Contracts/contracts/External/Ownable.sol\":1976:1977  0 */\n      0x00\n        /* \"NFT-Contracts/contracts/External/Ownable.sol\":1949:1967  _transferOwnership */\n      tag_54\n        /* \"NFT-Contracts/contracts/External/Ownable.sol\":1949:1979  _transferOwnership(address(0)) */\n      jump\t// in\n    tag_53:\n        /* \"NFT-Contracts/contracts/External/Ownable.sol\":1884:1987  function renounceOwnership() public virtual onlyOwner {\r... */\n      jump\t// out\n        /* \"NFT-Contracts/contracts/External/Ownable.sol\":1236:1323  function owner() public view virtual returns (address) {\r... */\n    tag_20:\n        /* \"NFT-Contracts/contracts/External/Ownable.sol\":1282:1289  address */\n      0x00\n        /* \"NFT-Contracts/contracts/External/Ownable.sol\":1309:1315  _owner */\n      dup1\n      0x00\n      swap1\n      sload\n      swap1\n      0x0100\n      exp\n      swap1\n      div\n      0xffffffffffffffffffffffffffffffffffffffff\n      and\n        /* \"NFT-Contracts/contracts/External/Ownable.sol\":1302:1315  return _owner */\n      swap1\n      pop\n        /* \"NFT-Contracts/contracts/External/Ownable.sol\":1236:1323  function owner() public view virtual returns (address) {\r... */\n      swap1\n      jump\t// out\n        /* \"NFT-Contracts/contracts/MarketPlace.sol\":1186:1285  function buyerServiceFee() external view virtual returns (uint8) {\r... */\n    tag_24:\n        /* \"NFT-Contracts/contracts/MarketPlace.sol\":1244:1249  uint8 */\n      0x00\n        /* \"NFT-Contracts/contracts/MarketPlace.sol\":1269:1277  buyerFee */\n      dup1\n      0x14\n      swap1\n      sload\n      swap1\n      0x0100\n      exp\n      swap1\n      div\n      0xff\n      and\n        /* \"NFT-Contracts/contracts/MarketPlace.sol\":1262:1277  return buyerFee */\n      swap1\n      pop\n        /* \"NFT-Contracts/contracts/MarketPlace.sol\":1186:1285  function buyerServiceFee() external view virtual returns (uint8) {\r... */\n      swap1\n      jump\t// out\n        /* \"NFT-Contracts/contracts/MarketPlace.sol\":1544:1688  function setSellerServiceFee(uint8 _sellerFee) onlyOwner external  returns(bool) {\r... */\n    tag_29:\n        /* \"NFT-Contracts/contracts/MarketPlace.sol\":1619:1623  bool */\n      0x00\n        /* \"NFT-Contracts/contracts/External/Ownable.sol\":1122:1135  _checkOwner() */\n      tag_58\n        /* \"NFT-Contracts/contracts/External/Ownable.sol\":1122:1133  _checkOwner */\n      tag_51\n        /* \"NFT-Contracts/contracts/External/Ownable.sol\":1122:1135  _checkOwner() */\n      jump\t// in\n    tag_58:\n        /* \"NFT-Contracts/contracts/MarketPlace.sol\":1648:1658  _sellerFee */\n      dup2\n        /* \"NFT-Contracts/contracts/MarketPlace.sol\":1636:1645  sellerFee */\n      0x00\n      0x15\n        /* \"NFT-Contracts/contracts/MarketPlace.sol\":1636:1658  sellerFee = _sellerFee */\n      0x0100\n      exp\n      dup2\n      sload\n      dup2\n      0xff\n      mul\n      not\n      and\n      swap1\n      dup4\n      0xff\n      and\n      mul\n      or\n      swap1\n      sstore\n      pop\n        /* \"NFT-Contracts/contracts/MarketPlace.sol\":1676:1680  true */\n      0x01\n        /* \"NFT-Contracts/contracts/MarketPlace.sol\":1669:1680  return true */\n      swap1\n      pop\n        /* \"NFT-Contracts/contracts/MarketPlace.sol\":1544:1688  function setSellerServiceFee(uint8 _sellerFee) onlyOwner external  returns(bool) {\r... */\n      swap2\n      swap1\n      pop\n      jump\t// out\n        /* \"NFT-Contracts/contracts/MarketPlace.sol\":1398:1538  function setBuyerServiceFee(uint8 _buyerFee) onlyOwner external  returns(bool) {\r... */\n    tag_34:\n        /* \"NFT-Contracts/contracts/MarketPlace.sol\":1471:1475  bool */\n      0x00\n        /* \"NFT-Contracts/contracts/External/Ownable.sol\":1122:1135  _checkOwner() */\n      tag_61\n        /* \"NFT-Contracts/contracts/External/Ownable.sol\":1122:1133  _checkOwner */\n      tag_51\n        /* \"NFT-Contracts/contracts/External/Ownable.sol\":1122:1135  _checkOwner() */\n      jump\t// in\n    tag_61:\n        /* \"NFT-Contracts/contracts/MarketPlace.sol\":1499:1508  _buyerFee */\n      dup2\n        /* \"NFT-Contracts/contracts/MarketPlace.sol\":1488:1496  buyerFee */\n      0x00\n      0x14\n        /* \"NFT-Contracts/contracts/MarketPlace.sol\":1488:1508  buyerFee = _buyerFee */\n      0x0100\n      exp\n      dup2\n      sload\n      dup2\n      0xff\n      mul\n      not\n      and\n      swap1\n      dup4\n      0xff\n      and\n      mul\n      or\n      swap1\n      sstore\n      pop\n        /* \"NFT-Contracts/contracts/MarketPlace.sol\":1526:1530  true */\n      0x01\n        /* \"NFT-Contracts/contracts/MarketPlace.sol\":1519:1530  return true */\n      swap1\n      pop\n        /* \"NFT-Contracts/contracts/MarketPlace.sol\":1398:1538  function setBuyerServiceFee(uint8 _buyerFee) onlyOwner external  returns(bool) {\r... */\n      swap2\n      swap1\n      pop\n      jump\t// out\n        /* \"NFT-Contracts/contracts/MarketPlace.sol\":618:638  address public Owner */\n    tag_37:\n      0x01\n      0x00\n      swap1\n      sload\n      swap1\n      0x0100\n      exp\n      swap1\n      div\n      0xffffffffffffffffffffffffffffffffffffffff\n      and\n      dup2\n      jump\t// out\n        /* \"NFT-Contracts/contracts/MarketPlace.sol\":3263:3686  function buyAsset(Trade calldata trade) external returns(bool) {\r... */\n    tag_42:\n        /* \"NFT-Contracts/contracts/MarketPlace.sol\":3320:3324  bool */\n      0x00\n        /* \"NFT-Contracts/contracts/MarketPlace.sol\":3336:3350  Fee memory fee */\n      dup1\n        /* \"NFT-Contracts/contracts/MarketPlace.sol\":3354:3410  getFees( trade.nftType, trade.nftAddress, trade.tokenId) */\n      tag_64\n        /* \"NFT-Contracts/contracts/MarketPlace.sol\":3363:3368  trade */\n      dup4\n        /* \"NFT-Contracts/contracts/MarketPlace.sol\":3363:3376  trade.nftType */\n      0x80\n      add\n      0x20\n      dup2\n      add\n      swap1\n      tag_65\n      swap2\n      swap1\n      tag_66\n      jump\t// in\n    tag_65:\n        /* \"NFT-Contracts/contracts/MarketPlace.sol\":3378:3383  trade */\n      dup5\n        /* \"NFT-Contracts/contracts/MarketPlace.sol\":3378:3394  trade.nftAddress */\n      0x60\n      add\n      0x20\n      dup2\n      add\n      swap1\n      tag_67\n      swap2\n      swap1\n      tag_46\n      jump\t// in\n    tag_67:\n        /* \"NFT-Contracts/contracts/MarketPlace.sol\":3396:3401  trade */\n      dup6\n        /* \"NFT-Contracts/contracts/MarketPlace.sol\":3396:3409  trade.tokenId */\n      0xe0\n      add\n      calldataload\n        /* \"NFT-Contracts/contracts/MarketPlace.sol\":3354:3361  getFees */\n      tag_68\n        /* \"NFT-Contracts/contracts/MarketPlace.sol\":3354:3410  getFees( trade.nftType, trade.nftAddress, trade.tokenId) */\n      jump\t// in\n    tag_64:\n        /* \"NFT-Contracts/contracts/MarketPlace.sol\":3336:3410  Fee memory fee  = getFees( trade.nftType, trade.nftAddress, trade.tokenId) */\n      swap1\n      pop\n        /* \"NFT-Contracts/contracts/MarketPlace.sol\":3506:3519  address buyer */\n      0x00\n        /* \"NFT-Contracts/contracts/MarketPlace.sol\":3522:3532  msg.sender */\n      caller\n        /* \"NFT-Contracts/contracts/MarketPlace.sol\":3506:3532  address buyer = msg.sender */\n      swap1\n      pop\n        /* \"NFT-Contracts/contracts/MarketPlace.sol\":3543:3580  Sell(trade, fee, buyer, trade.seller) */\n      tag_69\n        /* \"NFT-Contracts/contracts/MarketPlace.sol\":3548:3553  trade */\n      dup5\n        /* \"NFT-Contracts/contracts/MarketPlace.sol\":3555:3558  fee */\n      dup4\n        /* \"NFT-Contracts/contracts/MarketPlace.sol\":3560:3565  buyer */\n      dup4\n        /* \"NFT-Contracts/contracts/MarketPlace.sol\":3567:3572  trade */\n      dup8\n        /* \"NFT-Contracts/contracts/MarketPlace.sol\":3567:3579  trade.seller */\n      0x00\n      add\n      0x20\n      dup2\n      add\n      swap1\n      tag_70\n      swap2\n      swap1\n      tag_46\n      jump\t// in\n    tag_70:\n        /* \"NFT-Contracts/contracts/MarketPlace.sol\":3543:3547  Sell */\n      tag_71\n        /* \"NFT-Contracts/contracts/MarketPlace.sol\":3543:3580  Sell(trade, fee, buyer, trade.seller) */\n      jump\t// in\n    tag_69:\n        /* \"NFT-Contracts/contracts/MarketPlace.sol\":3645:3655  msg.sender */\n      caller\n        /* \"NFT-Contracts/contracts/MarketPlace.sol\":3596:3656  BuyAsset(trade.seller, trade.tokenId, trade.qty, msg.sender) */\n      0xffffffffffffffffffffffffffffffffffffffff\n      and\n        /* \"NFT-Contracts/contracts/MarketPlace.sol\":3619:3624  trade */\n      dup5\n        /* \"NFT-Contracts/contracts/MarketPlace.sol\":3619:3632  trade.tokenId */\n      0xe0\n      add\n      calldataload\n        /* \"NFT-Contracts/contracts/MarketPlace.sol\":3605:3610  trade */\n      dup6\n        /* \"NFT-Contracts/contracts/MarketPlace.sol\":3605:3617  trade.seller */\n      0x00\n      add\n      0x20\n      dup2\n      add\n      swap1\n      tag_72\n      swap2\n      swap1\n      tag_46\n      jump\t// in\n    tag_72:\n        /* \"NFT-Contracts/contracts/MarketPlace.sol\":3596:3656  BuyAsset(trade.seller, trade.tokenId, trade.qty, msg.sender) */\n      0xffffffffffffffffffffffffffffffffffffffff\n      and\n      0xb10197cef009fd301a90b892d25451c22c3701eb18ee2df1250d31e514fff394\n        /* \"NFT-Contracts/contracts/MarketPlace.sol\":3634:3639  trade */\n      dup8\n        /* \"NFT-Contracts/contracts/MarketPlace.sol\":3634:3643  trade.qty */\n      0x0100\n      add\n      calldataload\n        /* \"NFT-Contracts/contracts/MarketPlace.sol\":3596:3656  BuyAsset(trade.seller, trade.tokenId, trade.qty, msg.sender) */\n      mload(0x40)\n      tag_73\n      swap2\n      swap1\n      tag_74\n      jump\t// in\n    tag_73:\n      mload(0x40)\n      dup1\n      swap2\n      sub\n      swap1\n      log4\n        /* \"NFT-Contracts/contracts/MarketPlace.sol\":3674:3678  true */\n      0x01\n        /* \"NFT-Contracts/contracts/MarketPlace.sol\":3667:3678  return true */\n      swap3\n      pop\n      pop\n      pop\n        /* \"NFT-Contracts/contracts/MarketPlace.sol\":3263:3686  function buyAsset(Trade calldata trade) external returns(bool) {\r... */\n      swap2\n      swap1\n      pop\n      jump\t// out\n        /* \"NFT-Contracts/contracts/External/Ownable.sol\":2142:2343  function transferOwnership(address newOwner) public virtual onlyOwner {\r... */\n    tag_47:\n        /* \"NFT-Contracts/contracts/External/Ownable.sol\":1122:1135  _checkOwner() */\n      tag_76\n        /* \"NFT-Contracts/contracts/External/Ownable.sol\":1122:1133  _checkOwner */\n      tag_51\n        /* \"NFT-Contracts/contracts/External/Ownable.sol\":1122:1135  _checkOwner() */\n      jump\t// in\n    tag_76:\n        /* \"NFT-Contracts/contracts/External/Ownable.sol\":2251:2252  0 */\n      0x00\n        /* \"NFT-Contracts/contracts/External/Ownable.sol\":2231:2253  newOwner != address(0) */\n      0xffffffffffffffffffffffffffffffffffffffff\n      and\n        /* \"NFT-Contracts/contracts/External/Ownable.sol\":2231:2239  newOwner */\n      dup2\n        /* \"NFT-Contracts/contracts/External/Ownable.sol\":2231:2253  newOwner != address(0) */\n      0xffffffffffffffffffffffffffffffffffffffff\n      and\n      eq\n      iszero\n        /* \"NFT-Contracts/contracts/External/Ownable.sol\":2223:2296  require(newOwner != address(0), \"Ownable: new owner is the zero address\") */\n      tag_78\n      jumpi\n      mload(0x40)\n      0x08c379a000000000000000000000000000000000000000000000000000000000\n      dup2\n      mstore\n      0x04\n      add\n      tag_79\n      swap1\n      tag_80\n      jump\t// in\n    tag_79:\n      mload(0x40)\n      dup1\n      swap2\n      sub\n      swap1\n      revert\n    tag_78:\n        /* \"NFT-Contracts/contracts/External/Ownable.sol\":2307:2335  _transferOwnership(newOwner) */\n      tag_81\n        /* \"NFT-Contracts/contracts/External/Ownable.sol\":2326:2334  newOwner */\n      dup2\n        /* \"NFT-Contracts/contracts/External/Ownable.sol\":2307:2325  _transferOwnership */\n      tag_54\n        /* \"NFT-Contracts/contracts/External/Ownable.sol\":2307:2335  _transferOwnership(newOwner) */\n      jump\t// in\n    tag_81:\n        /* \"NFT-Contracts/contracts/External/Ownable.sol\":2142:2343  function transferOwnership(address newOwner) public virtual onlyOwner {\r... */\n      pop\n      jump\t// out\n        /* \"NFT-Contracts/contracts/External/Ownable.sol\":1401:1533  function _checkOwner() internal view virtual {\r... */\n    tag_51:\n        /* \"NFT-Contracts/contracts/External/Ownable.sol\":1476:1488  _msgSender() */\n      tag_83\n        /* \"NFT-Contracts/contracts/External/Ownable.sol\":1476:1486  _msgSender */\n      tag_84\n        /* \"NFT-Contracts/contracts/External/Ownable.sol\":1476:1488  _msgSender() */\n      jump\t// in\n    tag_83:\n        /* \"NFT-Contracts/contracts/External/Ownable.sol\":1465:1488  owner() == _msgSender() */\n      0xffffffffffffffffffffffffffffffffffffffff\n      and\n        /* \"NFT-Contracts/contracts/External/Ownable.sol\":1465:1472  owner() */\n      tag_85\n        /* \"NFT-Contracts/contracts/External/Ownable.sol\":1465:1470  owner */\n      tag_20\n        /* \"NFT-Contracts/contracts/External/Ownable.sol\":1465:1472  owner() */\n      jump\t// in\n    tag_85:\n        /* \"NFT-Contracts/contracts/External/Ownable.sol\":1465:1488  owner() == _msgSender() */\n      0xffffffffffffffffffffffffffffffffffffffff\n      and\n      eq\n        /* \"NFT-Contracts/contracts/External/Ownable.sol\":1457:1525  require(owner() == _msgSender(), \"Ownable: caller is not the owner\") */\n      tag_86\n      jumpi\n      mload(0x40)\n      0x08c379a000000000000000000000000000000000000000000000000000000000\n      dup2\n      mstore\n      0x04\n      add\n      tag_87\n      swap1\n      tag_88\n      jump\t// in\n    tag_87:\n      mload(0x40)\n      dup1\n      swap2\n      sub\n      swap1\n      revert\n    tag_86:\n        /* \"NFT-Contracts/contracts/External/Ownable.sol\":1401:1533  function _checkOwner() internal view virtual {\r... */\n      jump\t// out\n        /* \"NFT-Contracts/contracts/External/Ownable.sol\":2503:2694  function _transferOwnership(address newOwner) internal virtual {\r... */\n    tag_54:\n        /* \"NFT-Contracts/contracts/External/Ownable.sol\":2577:2593  address oldOwner */\n      0x00\n        /* \"NFT-Contracts/contracts/External/Ownable.sol\":2596:2602  _owner */\n      dup1\n      0x00\n      swap1\n      sload\n      swap1\n      0x0100\n      exp\n      swap1\n      div\n      0xffffffffffffffffffffffffffffffffffffffff\n      and\n        /* \"NFT-Contracts/contracts/External/Ownable.sol\":2577:2602  address oldOwner = _owner */\n      swap1\n      pop\n        /* \"NFT-Contracts/contracts/External/Ownable.sol\":2622:2630  newOwner */\n      dup2\n        /* \"NFT-Contracts/contracts/External/Ownable.sol\":2613:2619  _owner */\n      0x00\n      dup1\n        /* \"NFT-Contracts/contracts/External/Ownable.sol\":2613:2630  _owner = newOwner */\n      0x0100\n      exp\n      dup2\n      sload\n      dup2\n      0xffffffffffffffffffffffffffffffffffffffff\n      mul\n      not\n      and\n      swap1\n      dup4\n      0xffffffffffffffffffffffffffffffffffffffff\n      and\n      mul\n      or\n      swap1\n      sstore\n      pop\n        /* \"NFT-Contracts/contracts/External/Ownable.sol\":2677:2685  newOwner */\n      dup2\n        /* \"NFT-Contracts/contracts/External/Ownable.sol\":2646:2686  OwnershipTransferred(oldOwner, newOwner) */\n      0xffffffffffffffffffffffffffffffffffffffff\n      and\n        /* \"NFT-Contracts/contracts/External/Ownable.sol\":2667:2675  oldOwner */\n      dup2\n        /* \"NFT-Contracts/contracts/External/Ownable.sol\":2646:2686  OwnershipTransferred(oldOwner, newOwner) */\n      0xffffffffffffffffffffffffffffffffffffffff\n      and\n      0x8be0079c531659141344cd1fd0a4f28419497f9722a3daafe3b4186f6b6457e0\n      mload(0x40)\n      mload(0x40)\n      dup1\n      swap2\n      sub\n      swap1\n      log3\n        /* \"NFT-Contracts/contracts/External/Ownable.sol\":2566:2694  {\r... */\n      pop\n        /* \"NFT-Contracts/contracts/External/Ownable.sol\":2503:2694  function _transferOwnership(address newOwner) internal virtual {\r... */\n      pop\n      jump\t// out\n        /* \"NFT-Contracts/contracts/MarketPlace.sol\":2463:3252  function getFees(BuyType buytype, address _nftAddress, uint _tokenId )internal view returns(Fee memory) {\r... */\n    tag_68:\n        /* \"NFT-Contracts/contracts/MarketPlace.sol\":2555:2565  Fee memory */\n      tag_90\n      tag_91\n      jump\t// in\n    tag_90:\n        /* \"NFT-Contracts/contracts/MarketPlace.sol\":2574:2592  Trade memory trade */\n      tag_93\n      tag_94\n      jump\t// in\n    tag_93:\n        /* \"NFT-Contracts/contracts/MarketPlace.sol\":2618:2634  uint platformFee */\n      0x00\n        /* \"NFT-Contracts/contracts/MarketPlace.sol\":2660:2664  1000 */\n      0x03e8\n        /* \"NFT-Contracts/contracts/MarketPlace.sol\":2642:2647  trade */\n      dup3\n        /* \"NFT-Contracts/contracts/MarketPlace.sol\":2642:2657  trade.unitPrice */\n      0xa0\n      add\n      mload\n        /* \"NFT-Contracts/contracts/MarketPlace.sol\":2638:2640  25 */\n      0x19\n        /* \"NFT-Contracts/contracts/MarketPlace.sol\":2638:2658  25*(trade.unitPrice) */\n      tag_95\n      swap2\n      swap1\n      tag_96\n      jump\t// in\n    tag_95:\n        /* \"NFT-Contracts/contracts/MarketPlace.sol\":2637:2664  (25*(trade.unitPrice))/1000 */\n      tag_97\n      swap2\n      swap1\n      tag_98\n      jump\t// in\n    tag_97:\n        /* \"NFT-Contracts/contracts/MarketPlace.sol\":2618:2664  uint platformFee = (25*(trade.unitPrice))/1000 */\n      swap1\n      pop\n        /* \"NFT-Contracts/contracts/MarketPlace.sol\":2679:2692  uint assetFee */\n      0x00\n        /* \"NFT-Contracts/contracts/MarketPlace.sol\":2695:2700  trade */\n      dup3\n        /* \"NFT-Contracts/contracts/MarketPlace.sol\":2695:2710  trade.unitPrice */\n      0xa0\n      add\n      mload\n        /* \"NFT-Contracts/contracts/MarketPlace.sol\":2679:2711  uint assetFee =(trade.unitPrice) */\n      swap1\n      pop\n        /* \"NFT-Contracts/contracts/MarketPlace.sol\":2726:2741  uint royaltyFee */\n      0x00\n        /* \"NFT-Contracts/contracts/MarketPlace.sol\":2766:2769  100 */\n      0x64\n        /* \"NFT-Contracts/contracts/MarketPlace.sol\":2749:2754  trade */\n      dup5\n        /* \"NFT-Contracts/contracts/MarketPlace.sol\":2749:2764  trade.unitPrice */\n      0xa0\n      add\n      mload\n        /* \"NFT-Contracts/contracts/MarketPlace.sol\":2745:2747  10 */\n      0x0a\n        /* \"NFT-Contracts/contracts/MarketPlace.sol\":2745:2765  10*(trade.unitPrice) */\n      tag_99\n      swap2\n      swap1\n      tag_96\n      jump\t// in\n    tag_99:\n        /* \"NFT-Contracts/contracts/MarketPlace.sol\":2745:2769  10*(trade.unitPrice)/100 */\n      tag_100\n      swap2\n      swap1\n      tag_98\n      jump\t// in\n    tag_100:\n        /* \"NFT-Contracts/contracts/MarketPlace.sol\":2726:2770  uint royaltyFee = (10*(trade.unitPrice)/100) */\n      swap1\n      pop\n        /* \"NFT-Contracts/contracts/MarketPlace.sol\":2785:2795  uint price */\n      0x00\n        /* \"NFT-Contracts/contracts/MarketPlace.sol\":2818:2823  trade */\n      dup5\n        /* \"NFT-Contracts/contracts/MarketPlace.sol\":2818:2827  trade.qty */\n      0x0100\n      add\n      mload\n        /* \"NFT-Contracts/contracts/MarketPlace.sol\":2800:2805  trade */\n      dup6\n        /* \"NFT-Contracts/contracts/MarketPlace.sol\":2800:2815  trade.unitPrice */\n      0xa0\n      add\n      mload\n        /* \"NFT-Contracts/contracts/MarketPlace.sol\":2800:2827  trade.unitPrice * trade.qty */\n      tag_101\n      swap2\n      swap1\n      tag_96\n      jump\t// in\n    tag_101:\n        /* \"NFT-Contracts/contracts/MarketPlace.sol\":2785:2828  uint price =  (trade.unitPrice * trade.qty) */\n      swap1\n      pop\n        /* \"NFT-Contracts/contracts/MarketPlace.sol\":2879:2899  address tokenCreator */\n      0x00\n        /* \"NFT-Contracts/contracts/MarketPlace.sol\":2927:2941  BuyType.ERC721 */\n      0x01\n        /* \"NFT-Contracts/contracts/MarketPlace.sol\":2916:2941  buytype == BuyType.ERC721 */\n      dup1\n      dup2\n      gt\n      iszero\n      tag_102\n      jumpi\n      tag_103\n      tag_104\n      jump\t// in\n    tag_103:\n    tag_102:\n        /* \"NFT-Contracts/contracts/MarketPlace.sol\":2916:2923  buytype */\n      dup11\n        /* \"NFT-Contracts/contracts/MarketPlace.sol\":2916:2941  buytype == BuyType.ERC721 */\n      0x01\n      dup2\n      gt\n      iszero\n      tag_105\n      jumpi\n      tag_106\n      tag_104\n      jump\t// in\n    tag_106:\n    tag_105:\n      eq\n        /* \"NFT-Contracts/contracts/MarketPlace.sol\":2913:3025  if(buytype == BuyType.ERC721) {\r... */\n      iszero\n      tag_107\n      jumpi\n        /* \"NFT-Contracts/contracts/MarketPlace.sol\":2980:2991  _nftAddress */\n      dup9\n        /* \"NFT-Contracts/contracts/MarketPlace.sol\":2972:3003  IERC721(_nftAddress).getCreator */\n      0xffffffffffffffffffffffffffffffffffffffff\n      and\n      0xd48e638a\n        /* \"NFT-Contracts/contracts/MarketPlace.sol\":3004:3012  _tokenId */\n      dup10\n        /* \"NFT-Contracts/contracts/MarketPlace.sol\":2972:3013  IERC721(_nftAddress).getCreator(_tokenId) */\n      mload(0x40)\n      dup3\n      0xffffffff\n      and\n      0xe0\n      shl\n      dup2\n      mstore\n      0x04\n      add\n      tag_108\n      swap2\n      swap1\n      tag_74\n      jump\t// in\n    tag_108:\n      0x20\n      mload(0x40)\n      dup1\n      dup4\n      sub\n      dup2\n      dup7\n      dup1\n      extcodesize\n      iszero\n      dup1\n      iszero\n      tag_109\n      jumpi\n      0x00\n      dup1\n      revert\n    tag_109:\n      pop\n      gas\n      staticcall\n      iszero\n      dup1\n      iszero\n      tag_111\n      jumpi\n      returndatasize\n      0x00\n      dup1\n      returndatacopy\n      revert(0x00, returndatasize)\n    tag_111:\n      pop\n      pop\n      pop\n      pop\n      mload(0x40)\n      returndatasize\n      not(0x1f)\n      0x1f\n      dup3\n      add\n      and\n      dup3\n      add\n      dup1\n      0x40\n      mstore\n      pop\n      dup2\n      add\n      swap1\n      tag_112\n      swap2\n      swap1\n      tag_113\n      jump\t// in\n    tag_112:\n        /* \"NFT-Contracts/contracts/MarketPlace.sol\":2958:3013  tokenCreator= IERC721(_nftAddress).getCreator(_tokenId) */\n      swap1\n      pop\n        /* \"NFT-Contracts/contracts/MarketPlace.sol\":2913:3025  if(buytype == BuyType.ERC721) {\r... */\n    tag_107:\n        /* \"NFT-Contracts/contracts/MarketPlace.sol\":3049:3064  BuyType.ERC1155 */\n      0x00\n        /* \"NFT-Contracts/contracts/MarketPlace.sol\":3038:3064  buytype == BuyType.ERC1155 */\n      0x01\n      dup2\n      gt\n      iszero\n      tag_114\n      jumpi\n      tag_115\n      tag_104\n      jump\t// in\n    tag_115:\n    tag_114:\n        /* \"NFT-Contracts/contracts/MarketPlace.sol\":3038:3045  buytype */\n      dup11\n        /* \"NFT-Contracts/contracts/MarketPlace.sol\":3038:3064  buytype == BuyType.ERC1155 */\n      0x01\n      dup2\n      gt\n      iszero\n      tag_116\n      jumpi\n      tag_117\n      tag_104\n      jump\t// in\n    tag_117:\n    tag_116:\n      eq\n        /* \"NFT-Contracts/contracts/MarketPlace.sol\":3035:3145  if(buytype == BuyType.ERC1155) {\r... */\n      iszero\n      tag_118\n      jumpi\n        /* \"NFT-Contracts/contracts/MarketPlace.sol\":3100:3111  _nftAddress */\n      dup9\n        /* \"NFT-Contracts/contracts/MarketPlace.sol\":3091:3123  IERC1155(_nftAddress).getCreator */\n      0xffffffffffffffffffffffffffffffffffffffff\n      and\n      0xd48e638a\n        /* \"NFT-Contracts/contracts/MarketPlace.sol\":3124:3132  _tokenId */\n      dup10\n        /* \"NFT-Contracts/contracts/MarketPlace.sol\":3091:3133  IERC1155(_nftAddress).getCreator(_tokenId) */\n      mload(0x40)\n      dup3\n      0xffffffff\n      and\n      0xe0\n      shl\n      dup2\n      mstore\n      0x04\n      add\n      tag_119\n      swap2\n      swap1\n      tag_74\n      jump\t// in\n    tag_119:\n      0x20\n      mload(0x40)\n      dup1\n      dup4\n      sub\n      dup2\n      dup7\n      dup1\n      extcodesize\n      iszero\n      dup1\n      iszero\n      tag_120\n      jumpi\n      0x00\n      dup1\n      revert\n    tag_120:\n      pop\n      gas\n      staticcall\n      iszero\n      dup1\n      iszero\n      tag_122\n      jumpi\n      returndatasize\n      0x00\n      dup1\n      returndatacopy\n      revert(0x00, returndatasize)\n    tag_122:\n      pop\n      pop\n      pop\n      pop\n      mload(0x40)\n      returndatasize\n      not(0x1f)\n      0x1f\n      dup3\n      add\n      and\n      dup3\n      add\n      dup1\n      0x40\n      mstore\n      pop\n      dup2\n      add\n      swap1\n      tag_123\n      swap2\n      swap1\n      tag_113\n      jump\t// in\n    tag_123:\n        /* \"NFT-Contracts/contracts/MarketPlace.sol\":3077:3133  tokenCreator= IERC1155(_nftAddress).getCreator(_tokenId) */\n      swap1\n      pop\n        /* \"NFT-Contracts/contracts/MarketPlace.sol\":3035:3145  if(buytype == BuyType.ERC1155) {\r... */\n    tag_118:\n        /* \"NFT-Contracts/contracts/MarketPlace.sol\":3166:3221  Fee(platformFee,assetFee,royaltyFee,price,tokenCreator) */\n      mload(0x40)\n      dup1\n      0xa0\n      add\n      0x40\n      mstore\n      dup1\n        /* \"NFT-Contracts/contracts/MarketPlace.sol\":3170:3181  platformFee */\n      dup7\n        /* \"NFT-Contracts/contracts/MarketPlace.sol\":3166:3221  Fee(platformFee,assetFee,royaltyFee,price,tokenCreator) */\n      dup2\n      mstore\n      0x20\n      add\n        /* \"NFT-Contracts/contracts/MarketPlace.sol\":3182:3190  assetFee */\n      dup6\n        /* \"NFT-Contracts/contracts/MarketPlace.sol\":3166:3221  Fee(platformFee,assetFee,royaltyFee,price,tokenCreator) */\n      dup2\n      mstore\n      0x20\n      add\n        /* \"NFT-Contracts/contracts/MarketPlace.sol\":3191:3201  royaltyFee */\n      dup5\n        /* \"NFT-Contracts/contracts/MarketPlace.sol\":3166:3221  Fee(platformFee,assetFee,royaltyFee,price,tokenCreator) */\n      dup2\n      mstore\n      0x20\n      add\n        /* \"NFT-Contracts/contracts/MarketPlace.sol\":3202:3207  price */\n      dup4\n        /* \"NFT-Contracts/contracts/MarketPlace.sol\":3166:3221  Fee(platformFee,assetFee,royaltyFee,price,tokenCreator) */\n      dup2\n      mstore\n      0x20\n      add\n        /* \"NFT-Contracts/contracts/MarketPlace.sol\":3208:3220  tokenCreator */\n      dup3\n        /* \"NFT-Contracts/contracts/MarketPlace.sol\":3166:3221  Fee(platformFee,assetFee,royaltyFee,price,tokenCreator) */\n      0xffffffffffffffffffffffffffffffffffffffff\n      and\n      dup2\n      mstore\n      pop\n        /* \"NFT-Contracts/contracts/MarketPlace.sol\":3159:3221  return Fee(platformFee,assetFee,royaltyFee,price,tokenCreator) */\n      swap7\n      pop\n      pop\n      pop\n      pop\n      pop\n      pop\n      pop\n        /* \"NFT-Contracts/contracts/MarketPlace.sol\":2463:3252  function getFees(BuyType buytype, address _nftAddress, uint _tokenId )internal view returns(Fee memory) {\r... */\n      swap4\n      swap3\n      pop\n      pop\n      pop\n      jump\t// out\n        /* \"NFT-Contracts/contracts/MarketPlace.sol\":1701:2457  function Sell(Trade calldata trade, Fee memory fee, address buyer, address seller) internal {\r... */\n    tag_71:\n        /* \"NFT-Contracts/contracts/MarketPlace.sol\":1822:1836  BuyType.ERC721 */\n      0x01\n        /* \"NFT-Contracts/contracts/MarketPlace.sol\":1805:1836  trade.nftType == BuyType.ERC721 */\n      dup1\n      dup2\n      gt\n      iszero\n      tag_125\n      jumpi\n      tag_126\n      tag_104\n      jump\t// in\n    tag_126:\n    tag_125:\n        /* \"NFT-Contracts/contracts/MarketPlace.sol\":1805:1810  trade */\n      dup5\n        /* \"NFT-Contracts/contracts/MarketPlace.sol\":1805:1818  trade.nftType */\n      0x80\n      add\n      0x20\n      dup2\n      add\n      swap1\n      tag_127\n      swap2\n      swap1\n      tag_66\n      jump\t// in\n    tag_127:\n        /* \"NFT-Contracts/contracts/MarketPlace.sol\":1805:1836  trade.nftType == BuyType.ERC721 */\n      0x01\n      dup2\n      gt\n      iszero\n      tag_128\n      jumpi\n      tag_129\n      tag_104\n      jump\t// in\n    tag_129:\n    tag_128:\n      eq\n        /* \"NFT-Contracts/contracts/MarketPlace.sol\":1802:1937  if(trade.nftType == BuyType.ERC721) {\r... */\n      iszero\n      tag_130\n      jumpi\n        /* \"NFT-Contracts/contracts/MarketPlace.sol\":1861:1866  trade */\n      dup4\n        /* \"NFT-Contracts/contracts/MarketPlace.sol\":1861:1877  trade.nftAddress */\n      0x60\n      add\n      0x20\n      dup2\n      add\n      swap1\n      tag_131\n      swap2\n      swap1\n      tag_46\n      jump\t// in\n    tag_131:\n        /* \"NFT-Contracts/contracts/MarketPlace.sol\":1853:1895  IERC721(trade.nftAddress).safeTransferFrom */\n      0xffffffffffffffffffffffffffffffffffffffff\n      and\n      0x42842e0e\n        /* \"NFT-Contracts/contracts/MarketPlace.sol\":1896:1902  seller */\n      dup3\n        /* \"NFT-Contracts/contracts/MarketPlace.sol\":1904:1909  buyer */\n      dup5\n        /* \"NFT-Contracts/contracts/MarketPlace.sol\":1911:1916  trade */\n      dup8\n        /* \"NFT-Contracts/contracts/MarketPlace.sol\":1911:1924  trade.tokenId */\n      0xe0\n      add\n      calldataload\n        /* \"NFT-Contracts/contracts/MarketPlace.sol\":1853:1925  IERC721(trade.nftAddress).safeTransferFrom(seller, buyer, trade.tokenId) */\n      mload(0x40)\n      dup5\n      0xffffffff\n      and\n      0xe0\n      shl\n      dup2\n      mstore\n      0x04\n      add\n      tag_132\n      swap4\n      swap3\n      swap2\n      swap1\n      tag_133\n      jump\t// in\n    tag_132:\n      0x00\n      mload(0x40)\n      dup1\n      dup4\n      sub\n      dup2\n      0x00\n      dup8\n      dup1\n      extcodesize\n      iszero\n      dup1\n      iszero\n      tag_134\n      jumpi\n      0x00\n      dup1\n      revert\n    tag_134:\n      pop\n      gas\n      call\n      iszero\n      dup1\n      iszero\n      tag_136\n      jumpi\n      returndatasize\n      0x00\n      dup1\n      returndatacopy\n      revert(0x00, returndatasize)\n    tag_136:\n      pop\n      pop\n      pop\n      pop\n        /* \"NFT-Contracts/contracts/MarketPlace.sol\":1802:1937  if(trade.nftType == BuyType.ERC721) {\r... */\n    tag_130:\n        /* \"NFT-Contracts/contracts/MarketPlace.sol\":1967:1982  BuyType.ERC1155 */\n      0x00\n        /* \"NFT-Contracts/contracts/MarketPlace.sol\":1950:1982  trade.nftType == BuyType.ERC1155 */\n      0x01\n      dup2\n      gt\n      iszero\n      tag_137\n      jumpi\n      tag_138\n      tag_104\n      jump\t// in\n    tag_138:\n    tag_137:\n        /* \"NFT-Contracts/contracts/MarketPlace.sol\":1950:1955  trade */\n      dup5\n        /* \"NFT-Contracts/contracts/MarketPlace.sol\":1950:1963  trade.nftType */\n      0x80\n      add\n      0x20\n      dup2\n      add\n      swap1\n      tag_139\n      swap2\n      swap1\n      tag_66\n      jump\t// in\n    tag_139:\n        /* \"NFT-Contracts/contracts/MarketPlace.sol\":1950:1982  trade.nftType == BuyType.ERC1155 */\n      0x01\n      dup2\n      gt\n      iszero\n      tag_140\n      jumpi\n      tag_141\n      tag_104\n      jump\t// in\n    tag_141:\n    tag_140:\n      eq\n        /* \"NFT-Contracts/contracts/MarketPlace.sol\":1947:2100  if(trade.nftType == BuyType.ERC1155)  {\r... */\n      iszero\n      tag_142\n      jumpi\n        /* \"NFT-Contracts/contracts/MarketPlace.sol\":2009:2014  trade */\n      dup4\n        /* \"NFT-Contracts/contracts/MarketPlace.sol\":2009:2025  trade.nftAddress */\n      0x60\n      add\n      0x20\n      dup2\n      add\n      swap1\n      tag_143\n      swap2\n      swap1\n      tag_46\n      jump\t// in\n    tag_143:\n        /* \"NFT-Contracts/contracts/MarketPlace.sol\":2000:2043  IERC1155(trade.nftAddress).safeTransferFrom */\n      0xffffffffffffffffffffffffffffffffffffffff\n      and\n      0xf242432a\n        /* \"NFT-Contracts/contracts/MarketPlace.sol\":2044:2050  seller */\n      dup3\n        /* \"NFT-Contracts/contracts/MarketPlace.sol\":2052:2057  buyer */\n      dup5\n        /* \"NFT-Contracts/contracts/MarketPlace.sol\":2059:2064  trade */\n      dup8\n        /* \"NFT-Contracts/contracts/MarketPlace.sol\":2059:2072  trade.tokenId */\n      0xe0\n      add\n      calldataload\n        /* \"NFT-Contracts/contracts/MarketPlace.sol\":2074:2079  trade */\n      dup9\n        /* \"NFT-Contracts/contracts/MarketPlace.sol\":2074:2083  trade.qty */\n      0x0100\n      add\n      calldataload\n        /* \"NFT-Contracts/contracts/MarketPlace.sol\":2000:2088  IERC1155(trade.nftAddress).safeTransferFrom(seller, buyer, trade.tokenId, trade.qty, \"\") */\n      mload(0x40)\n      dup6\n      0xffffffff\n      and\n      0xe0\n      shl\n      dup2\n      mstore\n      0x04\n      add\n      tag_144\n      swap5\n      swap4\n      swap3\n      swap2\n      swap1\n      tag_145\n      jump\t// in\n    tag_144:\n      0x00\n      mload(0x40)\n      dup1\n      dup4\n      sub\n      dup2\n      0x00\n      dup8\n      dup1\n      extcodesize\n      iszero\n      dup1\n      iszero\n      tag_146\n      jumpi\n      0x00\n      dup1\n      revert\n    tag_146:\n      pop\n      gas\n      call\n      iszero\n      dup1\n      iszero\n      tag_148\n      jumpi\n      returndatasize\n      0x00\n      dup1\n      returndatacopy\n      revert(0x00, returndatasize)\n    tag_148:\n      pop\n      pop\n      pop\n      pop\n        /* \"NFT-Contracts/contracts/MarketPlace.sol\":1947:2100  if(trade.nftType == BuyType.ERC1155)  {\r... */\n    tag_142:\n        /* \"NFT-Contracts/contracts/MarketPlace.sol\":2131:2132  0 */\n      0x00\n        /* \"NFT-Contracts/contracts/MarketPlace.sol\":2113:2116  fee */\n      dup4\n        /* \"NFT-Contracts/contracts/MarketPlace.sol\":2113:2128  fee.platformFee */\n      0x00\n      add\n      mload\n        /* \"NFT-Contracts/contracts/MarketPlace.sol\":2113:2132  fee.platformFee > 0 */\n      gt\n        /* \"NFT-Contracts/contracts/MarketPlace.sol\":2110:2231  if(fee.platformFee > 0) {\r... */\n      iszero\n      tag_149\n      jumpi\n        /* \"NFT-Contracts/contracts/MarketPlace.sol\":2156:2161  trade */\n      dup4\n        /* \"NFT-Contracts/contracts/MarketPlace.sol\":2156:2174  trade.erc20Address */\n      0x40\n      add\n      0x20\n      dup2\n      add\n      swap1\n      tag_150\n      swap2\n      swap1\n      tag_46\n      jump\t// in\n    tag_150:\n        /* \"NFT-Contracts/contracts/MarketPlace.sol\":2149:2188  IERC20(trade.erc20Address).transferFrom */\n      0xffffffffffffffffffffffffffffffffffffffff\n      and\n      0x23b872dd\n        /* \"NFT-Contracts/contracts/MarketPlace.sol\":2189:2194  buyer */\n      dup4\n        /* \"NFT-Contracts/contracts/MarketPlace.sol\":2196:2201  Owner */\n      0x01\n      0x00\n      swap1\n      sload\n      swap1\n      0x0100\n      exp\n      swap1\n      div\n      0xffffffffffffffffffffffffffffffffffffffff\n      and\n        /* \"NFT-Contracts/contracts/MarketPlace.sol\":2203:2206  fee */\n      dup7\n        /* \"NFT-Contracts/contracts/MarketPlace.sol\":2203:2218  fee.platformFee */\n      0x00\n      add\n      mload\n        /* \"NFT-Contracts/contracts/MarketPlace.sol\":2149:2219  IERC20(trade.erc20Address).transferFrom(buyer, Owner, fee.platformFee) */\n      mload(0x40)\n      dup5\n      0xffffffff\n      and\n      0xe0\n      shl\n      dup2\n      mstore\n      0x04\n      add\n      tag_151\n      swap4\n      swap3\n      swap2\n      swap1\n      tag_133\n      jump\t// in\n    tag_151:\n      0x20\n      mload(0x40)\n      dup1\n      dup4\n      sub\n      dup2\n      0x00\n      dup8\n      dup1\n      extcodesize\n      iszero\n      dup1\n      iszero\n      tag_152\n      jumpi\n      0x00\n      dup1\n      revert\n    tag_152:\n      pop\n      gas\n      call\n      iszero\n      dup1\n      iszero\n      tag_154\n      jumpi\n      returndatasize\n      0x00\n      dup1\n      returndatacopy\n      revert(0x00, returndatasize)\n    tag_154:\n      pop\n      pop\n      pop\n      pop\n      mload(0x40)\n      returndatasize\n      not(0x1f)\n      0x1f\n      dup3\n      add\n      and\n      dup3\n      add\n      dup1\n      0x40\n      mstore\n      pop\n      dup2\n      add\n      swap1\n      tag_155\n      swap2\n      swap1\n      tag_156\n      jump\t// in\n    tag_155:\n      pop\n        /* \"NFT-Contracts/contracts/MarketPlace.sol\":2110:2231  if(fee.platformFee > 0) {\r... */\n    tag_149:\n        /* \"NFT-Contracts/contracts/MarketPlace.sol\":2261:2262  0 */\n      0x00\n        /* \"NFT-Contracts/contracts/MarketPlace.sol\":2244:2247  fee */\n      dup4\n        /* \"NFT-Contracts/contracts/MarketPlace.sol\":2244:2258  fee.royaltyFee */\n      0x40\n      add\n      mload\n        /* \"NFT-Contracts/contracts/MarketPlace.sol\":2244:2262  fee.royaltyFee > 0 */\n      gt\n        /* \"NFT-Contracts/contracts/MarketPlace.sol\":2241:2371  if(fee.royaltyFee > 0) {\r... */\n      iszero\n      tag_157\n      jumpi\n        /* \"NFT-Contracts/contracts/MarketPlace.sol\":2286:2291  trade */\n      dup4\n        /* \"NFT-Contracts/contracts/MarketPlace.sol\":2286:2304  trade.erc20Address */\n      0x40\n      add\n      0x20\n      dup2\n      add\n      swap1\n      tag_158\n      swap2\n      swap1\n      tag_46\n      jump\t// in\n    tag_158:\n        /* \"NFT-Contracts/contracts/MarketPlace.sol\":2279:2318  IERC20(trade.erc20Address).transferFrom */\n      0xffffffffffffffffffffffffffffffffffffffff\n      and\n      0x23b872dd\n        /* \"NFT-Contracts/contracts/MarketPlace.sol\":2319:2324  buyer */\n      dup4\n        /* \"NFT-Contracts/contracts/MarketPlace.sol\":2326:2329  fee */\n      dup6\n        /* \"NFT-Contracts/contracts/MarketPlace.sol\":2326:2342  fee.tokenCreator */\n      0x80\n      add\n      mload\n        /* \"NFT-Contracts/contracts/MarketPlace.sol\":2344:2347  fee */\n      dup7\n        /* \"NFT-Contracts/contracts/MarketPlace.sol\":2344:2358  fee.royaltyFee */\n      0x40\n      add\n      mload\n        /* \"NFT-Contracts/contracts/MarketPlace.sol\":2279:2359  IERC20(trade.erc20Address).transferFrom(buyer, fee.tokenCreator, fee.royaltyFee) */\n      mload(0x40)\n      dup5\n      0xffffffff\n      and\n      0xe0\n      shl\n      dup2\n      mstore\n      0x04\n      add\n      tag_159\n      swap4\n      swap3\n      swap2\n      swap1\n      tag_133\n      jump\t// in\n    tag_159:\n      0x20\n      mload(0x40)\n      dup1\n      dup4\n      sub\n      dup2\n      0x00\n      dup8\n      dup1\n      extcodesize\n      iszero\n      dup1\n      iszero\n      tag_160\n      jumpi\n      0x00\n      dup1\n      revert\n    tag_160:\n      pop\n      gas\n      call\n      iszero\n      dup1\n      iszero\n      tag_162\n      jumpi\n      returndatasize\n      0x00\n      dup1\n      returndatacopy\n      revert(0x00, returndatasize)\n    tag_162:\n      pop\n      pop\n      pop\n      pop\n      mload(0x40)\n      returndatasize\n      not(0x1f)\n      0x1f\n      dup3\n      add\n      and\n      dup3\n      add\n      dup1\n      0x40\n      mstore\n      pop\n      dup2\n      add\n      swap1\n      tag_163\n      swap2\n      swap1\n      tag_156\n      jump\t// in\n    tag_163:\n      pop\n        /* \"NFT-Contracts/contracts/MarketPlace.sol\":2241:2371  if(fee.royaltyFee > 0) {\r... */\n    tag_157:\n        /* \"NFT-Contracts/contracts/MarketPlace.sol\":2388:2393  trade */\n      dup4\n        /* \"NFT-Contracts/contracts/MarketPlace.sol\":2388:2406  trade.erc20Address */\n      0x40\n      add\n      0x20\n      dup2\n      add\n      swap1\n      tag_164\n      swap2\n      swap1\n      tag_46\n      jump\t// in\n    tag_164:\n        /* \"NFT-Contracts/contracts/MarketPlace.sol\":2381:2420  IERC20(trade.erc20Address).transferFrom */\n      0xffffffffffffffffffffffffffffffffffffffff\n      and\n      0x23b872dd\n        /* \"NFT-Contracts/contracts/MarketPlace.sol\":2421:2426  buyer */\n      dup4\n        /* \"NFT-Contracts/contracts/MarketPlace.sol\":2428:2434  seller */\n      dup4\n        /* \"NFT-Contracts/contracts/MarketPlace.sol\":2436:2439  fee */\n      dup7\n        /* \"NFT-Contracts/contracts/MarketPlace.sol\":2436:2448  fee.assetFee */\n      0x20\n      add\n      mload\n        /* \"NFT-Contracts/contracts/MarketPlace.sol\":2381:2449  IERC20(trade.erc20Address).transferFrom(buyer, seller, fee.assetFee) */\n      mload(0x40)\n      dup5\n      0xffffffff\n      and\n      0xe0\n      shl\n      dup2\n      mstore\n      0x04\n      add\n      tag_165\n      swap4\n      swap3\n      swap2\n      swap1\n      tag_133\n      jump\t// in\n    tag_165:\n      0x20\n      mload(0x40)\n      dup1\n      dup4\n      sub\n      dup2\n      0x00\n      dup8\n      dup1\n      extcodesize\n      iszero\n      dup1\n      iszero\n      tag_166\n      jumpi\n      0x00\n      dup1\n      revert\n    tag_166:\n      pop\n      gas\n      call\n      iszero\n      dup1\n      iszero\n      tag_168\n      jumpi\n      returndatasize\n      0x00\n      dup1\n      returndatacopy\n      revert(0x00, returndatasize)\n    tag_168:\n      pop\n      pop\n      pop\n      pop\n      mload(0x40)\n      returndatasize\n      not(0x1f)\n      0x1f\n      dup3\n      add\n      and\n      dup3\n      add\n      dup1\n      0x40\n      mstore\n      pop\n      dup2\n      add\n      swap1\n      tag_169\n      swap2\n      swap1\n      tag_156\n      jump\t// in\n    tag_169:\n      pop\n        /* \"NFT-Contracts/contracts/MarketPlace.sol\":1701:2457  function Sell(Trade calldata trade, Fee memory fee, address buyer, address seller) internal {\r... */\n      pop\n      pop\n      pop\n      pop\n      jump\t// out\n        /* \"NFT-Contracts/contracts/External/Context.sol\":145:260  function _msgSender() internal view virtual returns (address payable) {\r... */\n    tag_84:\n        /* \"NFT-Contracts/contracts/External/Context.sol\":198:213  address payable */\n      0x00\n        /* \"NFT-Contracts/contracts/External/Context.sol\":241:251  msg.sender */\n      caller\n        /* \"NFT-Contracts/contracts/External/Context.sol\":226:252  return payable(msg.sender) */\n      swap1\n      pop\n        /* \"NFT-Contracts/contracts/External/Context.sol\":145:260  function _msgSender() internal view virtual returns (address payable) {\r... */\n      swap1\n      jump\t// out\n    tag_91:\n      mload(0x40)\n      dup1\n      0xa0\n      add\n      0x40\n      mstore\n      dup1\n      0x00\n      dup2\n      mstore\n      0x20\n      add\n      0x00\n      dup2\n      mstore\n      0x20\n      add\n      0x00\n      dup2\n      mstore\n      0x20\n      add\n      0x00\n      dup2\n      mstore\n      0x20\n      add\n      and(0xffffffffffffffffffffffffffffffffffffffff, 0x00)\n      dup2\n      mstore\n      pop\n      swap1\n      jump\t// out\n    tag_94:\n      mload(0x40)\n      dup1\n      0x0120\n      add\n      0x40\n      mstore\n      dup1\n      and(0xffffffffffffffffffffffffffffffffffffffff, 0x00)\n      dup2\n      mstore\n      0x20\n      add\n      and(0xffffffffffffffffffffffffffffffffffffffff, 0x00)\n      dup2\n      mstore\n      0x20\n      add\n      and(0xffffffffffffffffffffffffffffffffffffffff, 0x00)\n      dup2\n      mstore\n      0x20\n      add\n      and(0xffffffffffffffffffffffffffffffffffffffff, 0x00)\n      dup2\n      mstore\n      0x20\n      add\n      0x00\n      0x01\n      dup2\n      gt\n      iszero\n      tag_171\n      jumpi\n      tag_172\n      tag_104\n      jump\t// in\n    tag_172:\n    tag_171:\n      dup2\n      mstore\n      0x20\n      add\n      0x00\n      dup2\n      mstore\n      0x20\n      add\n      0x00\n      dup2\n      mstore\n      0x20\n      add\n      0x00\n      dup2\n      mstore\n      0x20\n      add\n      0x00\n      dup2\n      mstore\n      pop\n      swap1\n      jump\t// out\n        /* \"#utility.yul\":7:146   */\n    tag_174:\n        /* \"#utility.yul\":53:58   */\n      0x00\n        /* \"#utility.yul\":91:97   */\n      dup2\n        /* \"#utility.yul\":78:98   */\n      calldataload\n        /* \"#utility.yul\":69:98   */\n      swap1\n      pop\n        /* \"#utility.yul\":107:140   */\n      tag_176\n        /* \"#utility.yul\":134:139   */\n      dup2\n        /* \"#utility.yul\":107:140   */\n      tag_177\n      jump\t// in\n    tag_176:\n        /* \"#utility.yul\":7:146   */\n      swap3\n      swap2\n      pop\n      pop\n      jump\t// out\n        /* \"#utility.yul\":152:295   */\n    tag_178:\n        /* \"#utility.yul\":209:214   */\n      0x00\n        /* \"#utility.yul\":240:246   */\n      dup2\n        /* \"#utility.yul\":234:247   */\n      mload\n        /* \"#utility.yul\":225:247   */\n      swap1\n      pop\n        /* \"#utility.yul\":256:289   */\n      tag_180\n        /* \"#utility.yul\":283:288   */\n      dup2\n        /* \"#utility.yul\":256:289   */\n      tag_177\n      jump\t// in\n    tag_180:\n        /* \"#utility.yul\":152:295   */\n      swap3\n      swap2\n      pop\n      pop\n      jump\t// out\n        /* \"#utility.yul\":301:438   */\n    tag_181:\n        /* \"#utility.yul\":355:360   */\n      0x00\n        /* \"#utility.yul\":386:392   */\n      dup2\n        /* \"#utility.yul\":380:393   */\n      mload\n        /* \"#utility.yul\":371:393   */\n      swap1\n      pop\n        /* \"#utility.yul\":402:432   */\n      tag_183\n        /* \"#utility.yul\":426:431   */\n      dup2\n        /* \"#utility.yul\":402:432   */\n      tag_184\n      jump\t// in\n    tag_183:\n        /* \"#utility.yul\":301:438   */\n      swap3\n      swap2\n      pop\n      pop\n      jump\t// out\n        /* \"#utility.yul\":444:605   */\n    tag_185:\n        /* \"#utility.yul\":501:506   */\n      0x00\n        /* \"#utility.yul\":539:545   */\n      dup2\n        /* \"#utility.yul\":526:546   */\n      calldataload\n        /* \"#utility.yul\":517:546   */\n      swap1\n      pop\n        /* \"#utility.yul\":555:599   */\n      tag_187\n        /* \"#utility.yul\":593:598   */\n      dup2\n        /* \"#utility.yul\":555:599   */\n      tag_188\n      jump\t// in\n    tag_187:\n        /* \"#utility.yul\":444:605   */\n      swap3\n      swap2\n      pop\n      pop\n      jump\t// out\n        /* \"#utility.yul\":643:872   */\n    tag_189:\n        /* \"#utility.yul\":713:718   */\n      0x00\n        /* \"#utility.yul\":754:757   */\n      0x0120\n        /* \"#utility.yul\":745:751   */\n      dup3\n        /* \"#utility.yul\":740:743   */\n      dup5\n        /* \"#utility.yul\":736:752   */\n      sub\n        /* \"#utility.yul\":732:758   */\n      slt\n        /* \"#utility.yul\":729:842   */\n      iszero\n      tag_191\n      jumpi\n        /* \"#utility.yul\":761:840   */\n      tag_192\n      tag_193\n      jump\t// in\n    tag_192:\n        /* \"#utility.yul\":729:842   */\n    tag_191:\n        /* \"#utility.yul\":860:866   */\n      dup2\n        /* \"#utility.yul\":851:866   */\n      swap1\n      pop\n        /* \"#utility.yul\":643:872   */\n      swap3\n      swap2\n      pop\n      pop\n      jump\t// out\n        /* \"#utility.yul\":878:1013   */\n    tag_194:\n        /* \"#utility.yul\":922:927   */\n      0x00\n        /* \"#utility.yul\":960:966   */\n      dup2\n        /* \"#utility.yul\":947:967   */\n      calldataload\n        /* \"#utility.yul\":938:967   */\n      swap1\n      pop\n        /* \"#utility.yul\":976:1007   */\n      tag_196\n        /* \"#utility.yul\":1001:1006   */\n      dup2\n        /* \"#utility.yul\":976:1007   */\n      tag_197\n      jump\t// in\n    tag_196:\n        /* \"#utility.yul\":878:1013   */\n      swap3\n      swap2\n      pop\n      pop\n      jump\t// out\n        /* \"#utility.yul\":1019:1348   */\n    tag_46:\n        /* \"#utility.yul\":1078:1084   */\n      0x00\n        /* \"#utility.yul\":1127:1129   */\n      0x20\n        /* \"#utility.yul\":1115:1124   */\n      dup3\n        /* \"#utility.yul\":1106:1113   */\n      dup5\n        /* \"#utility.yul\":1102:1125   */\n      sub\n        /* \"#utility.yul\":1098:1130   */\n      slt\n        /* \"#utility.yul\":1095:1214   */\n      iszero\n      tag_199\n      jumpi\n        /* \"#utility.yul\":1133:1212   */\n      tag_200\n      tag_201\n      jump\t// in\n    tag_200:\n        /* \"#utility.yul\":1095:1214   */\n    tag_199:\n        /* \"#utility.yul\":1253:1254   */\n      0x00\n        /* \"#utility.yul\":1278:1331   */\n      tag_202\n        /* \"#utility.yul\":1323:1330   */\n      dup5\n        /* \"#utility.yul\":1314:1320   */\n      dup3\n        /* \"#utility.yul\":1303:1312   */\n      dup6\n        /* \"#utility.yul\":1299:1321   */\n      add\n        /* \"#utility.yul\":1278:1331   */\n      tag_174\n      jump\t// in\n    tag_202:\n        /* \"#utility.yul\":1268:1331   */\n      swap2\n      pop\n        /* \"#utility.yul\":1224:1341   */\n      pop\n        /* \"#utility.yul\":1019:1348   */\n      swap3\n      swap2\n      pop\n      pop\n      jump\t// out\n        /* \"#utility.yul\":1354:1705   */\n    tag_113:\n        /* \"#utility.yul\":1424:1430   */\n      0x00\n        /* \"#utility.yul\":1473:1475   */\n      0x20\n        /* \"#utility.yul\":1461:1470   */\n      dup3\n        /* \"#utility.yul\":1452:1459   */\n      dup5\n        /* \"#utility.yul\":1448:1471   */\n      sub\n        /* \"#utility.yul\":1444:1476   */\n      slt\n        /* \"#utility.yul\":1441:1560   */\n      iszero\n      tag_204\n      jumpi\n        /* \"#utility.yul\":1479:1558   */\n      tag_205\n      tag_201\n      jump\t// in\n    tag_205:\n        /* \"#utility.yul\":1441:1560   */\n    tag_204:\n        /* \"#utility.yul\":1599:1600   */\n      0x00\n        /* \"#utility.yul\":1624:1688   */\n      tag_206\n        /* \"#utility.yul\":1680:1687   */\n      dup5\n        /* \"#utility.yul\":1671:1677   */\n      dup3\n        /* \"#utility.yul\":1660:1669   */\n      dup6\n        /* \"#utility.yul\":1656:1678   */\n      add\n        /* \"#utility.yul\":1624:1688   */\n      tag_178\n      jump\t// in\n    tag_206:\n        /* \"#utility.yul\":1614:1688   */\n      swap2\n      pop\n        /* \"#utility.yul\":1570:1698   */\n      pop\n        /* \"#utility.yul\":1354:1705   */\n      swap3\n      swap2\n      pop\n      pop\n      jump\t// out\n        /* \"#utility.yul\":1711:2056   */\n    tag_156:\n        /* \"#utility.yul\":1778:1784   */\n      0x00\n        /* \"#utility.yul\":1827:1829   */\n      0x20\n        /* \"#utility.yul\":1815:1824   */\n      dup3\n        /* \"#utility.yul\":1806:1813   */\n      dup5\n        /* \"#utility.yul\":1802:1825   */\n      sub\n        /* \"#utility.yul\":1798:1830   */\n      slt\n        /* \"#utility.yul\":1795:1914   */\n      iszero\n      tag_208\n      jumpi\n        /* \"#utility.yul\":1833:1912   */\n      tag_209\n      tag_201\n      jump\t// in\n    tag_209:\n        /* \"#utility.yul\":1795:1914   */\n    tag_208:\n        /* \"#utility.yul\":1953:1954   */\n      0x00\n        /* \"#utility.yul\":1978:2039   */\n      tag_210\n        /* \"#utility.yul\":2031:2038   */\n      dup5\n        /* \"#utility.yul\":2022:2028   */\n      dup3\n        /* \"#utility.yul\":2011:2020   */\n      dup6\n        /* \"#utility.yul\":2007:2029   */\n      add\n        /* \"#utility.yul\":1978:2039   */\n      tag_181\n      jump\t// in\n    tag_210:\n        /* \"#utility.yul\":1968:2039   */\n      swap2\n      pop\n        /* \"#utility.yul\":1924:2049   */\n      pop\n        /* \"#utility.yul\":1711:2056   */\n      swap3\n      swap2\n      pop\n      pop\n      jump\t// out\n        /* \"#utility.yul\":2062:2413   */\n    tag_66:\n        /* \"#utility.yul\":2132:2138   */\n      0x00\n        /* \"#utility.yul\":2181:2183   */\n      0x20\n        /* \"#utility.yul\":2169:2178   */\n      dup3\n        /* \"#utility.yul\":2160:2167   */\n      dup5\n        /* \"#utility.yul\":2156:2179   */\n      sub\n        /* \"#utility.yul\":2152:2184   */\n      slt\n        /* \"#utility.yul\":2149:2268   */\n      iszero\n      tag_212\n      jumpi\n        /* \"#utility.yul\":2187:2266   */\n      tag_213\n      tag_201\n      jump\t// in\n    tag_213:\n        /* \"#utility.yul\":2149:2268   */\n    tag_212:\n        /* \"#utility.yul\":2307:2308   */\n      0x00\n        /* \"#utility.yul\":2332:2396   */\n      tag_214\n        /* \"#utility.yul\":2388:2395   */\n      dup5\n        /* \"#utility.yul\":2379:2385   */\n      dup3\n        /* \"#utility.yul\":2368:2377   */\n      dup6\n        /* \"#utility.yul\":2364:2386   */\n      add\n        /* \"#utility.yul\":2332:2396   */\n      tag_185\n      jump\t// in\n    tag_214:\n        /* \"#utility.yul\":2322:2396   */\n      swap2\n      pop\n        /* \"#utility.yul\":2278:2406   */\n      pop\n        /* \"#utility.yul\":2062:2413   */\n      swap3\n      swap2\n      pop\n      pop\n      jump\t// out\n        /* \"#utility.yul\":2419:2797   */\n    tag_41:\n        /* \"#utility.yul\":2502:2508   */\n      0x00\n        /* \"#utility.yul\":2551:2554   */\n      0x0120\n        /* \"#utility.yul\":2539:2548   */\n      dup3\n        /* \"#utility.yul\":2530:2537   */\n      dup5\n        /* \"#utility.yul\":2526:2549   */\n      sub\n        /* \"#utility.yul\":2522:2555   */\n      slt\n        /* \"#utility.yul\":2519:2639   */\n      iszero\n      tag_216\n      jumpi\n        /* \"#utility.yul\":2558:2637   */\n      tag_217\n      tag_201\n      jump\t// in\n    tag_217:\n        /* \"#utility.yul\":2519:2639   */\n    tag_216:\n        /* \"#utility.yul\":2678:2679   */\n      0x00\n        /* \"#utility.yul\":2703:2780   */\n      tag_218\n        /* \"#utility.yul\":2772:2779   */\n      dup5\n        /* \"#utility.yul\":2763:2769   */\n      dup3\n        /* \"#utility.yul\":2752:2761   */\n      dup6\n        /* \"#utility.yul\":2748:2770   */\n      add\n        /* \"#utility.yul\":2703:2780   */\n      tag_189\n      jump\t// in\n    tag_218:\n        /* \"#utility.yul\":2693:2780   */\n      swap2\n      pop\n        /* \"#utility.yul\":2649:2790   */\n      pop\n        /* \"#utility.yul\":2419:2797   */\n      swap3\n      swap2\n      pop\n      pop\n      jump\t// out\n        /* \"#utility.yul\":2803:3128   */\n    tag_28:\n        /* \"#utility.yul\":2860:2866   */\n      0x00\n        /* \"#utility.yul\":2909:2911   */\n      0x20\n        /* \"#utility.yul\":2897:2906   */\n      dup3\n        /* \"#utility.yul\":2888:2895   */\n      dup5\n        /* \"#utility.yul\":2884:2907   */\n      sub\n        /* \"#utility.yul\":2880:2912   */\n      slt\n        /* \"#utility.yul\":2877:2996   */\n      iszero\n      tag_220\n      jumpi\n        /* \"#utility.yul\":2915:2994   */\n      tag_221\n      tag_201\n      jump\t// in\n    tag_221:\n        /* \"#utility.yul\":2877:2996   */\n    tag_220:\n        /* \"#utility.yul\":3035:3036   */\n      0x00\n        /* \"#utility.yul\":3060:3111   */\n      tag_222\n        /* \"#utility.yul\":3103:3110   */\n      dup5\n        /* \"#utility.yul\":3094:3100   */\n      dup3\n        /* \"#utility.yul\":3083:3092   */\n      dup6\n        /* \"#utility.yul\":3079:3101   */\n      add\n        /* \"#utility.yul\":3060:3111   */\n      tag_194\n      jump\t// in\n    tag_222:\n        /* \"#utility.yul\":3050:3111   */\n      swap2\n      pop\n        /* \"#utility.yul\":3006:3121   */\n      pop\n        /* \"#utility.yul\":2803:3128   */\n      swap3\n      swap2\n      pop\n      pop\n      jump\t// out\n        /* \"#utility.yul\":3134:3252   */\n    tag_223:\n        /* \"#utility.yul\":3221:3245   */\n      tag_225\n        /* \"#utility.yul\":3239:3244   */\n      dup2\n        /* \"#utility.yul\":3221:3245   */\n      tag_226\n      jump\t// in\n    tag_225:\n        /* \"#utility.yul\":3216:3219   */\n      dup3\n        /* \"#utility.yul\":3209:3246   */\n      mstore\n        /* \"#utility.yul\":3134:3252   */\n      pop\n      pop\n      jump\t// out\n        /* \"#utility.yul\":3258:3367   */\n    tag_227:\n        /* \"#utility.yul\":3339:3360   */\n      tag_229\n        /* \"#utility.yul\":3354:3359   */\n      dup2\n        /* \"#utility.yul\":3339:3360   */\n      tag_230\n      jump\t// in\n    tag_229:\n        /* \"#utility.yul\":3334:3337   */\n      dup3\n        /* \"#utility.yul\":3327:3361   */\n      mstore\n        /* \"#utility.yul\":3258:3367   */\n      pop\n      pop\n      jump\t// out\n        /* \"#utility.yul\":3373:3739   */\n    tag_231:\n        /* \"#utility.yul\":3515:3518   */\n      0x00\n        /* \"#utility.yul\":3536:3603   */\n      tag_233\n        /* \"#utility.yul\":3600:3602   */\n      0x26\n        /* \"#utility.yul\":3595:3598   */\n      dup4\n        /* \"#utility.yul\":3536:3603   */\n      tag_234\n      jump\t// in\n    tag_233:\n        /* \"#utility.yul\":3529:3603   */\n      swap2\n      pop\n        /* \"#utility.yul\":3612:3705   */\n      tag_235\n        /* \"#utility.yul\":3701:3704   */\n      dup3\n        /* \"#utility.yul\":3612:3705   */\n      tag_236\n      jump\t// in\n    tag_235:\n        /* \"#utility.yul\":3730:3732   */\n      0x40\n        /* \"#utility.yul\":3725:3728   */\n      dup3\n        /* \"#utility.yul\":3721:3733   */\n      add\n        /* \"#utility.yul\":3714:3733   */\n      swap1\n      pop\n        /* \"#utility.yul\":3373:3739   */\n      swap2\n      swap1\n      pop\n      jump\t// out\n        /* \"#utility.yul\":3745:4111   */\n    tag_237:\n        /* \"#utility.yul\":3887:3890   */\n      0x00\n        /* \"#utility.yul\":3908:3975   */\n      tag_239\n        /* \"#utility.yul\":3972:3974   */\n      0x20\n        /* \"#utility.yul\":3967:3970   */\n      dup4\n        /* \"#utility.yul\":3908:3975   */\n      tag_234\n      jump\t// in\n    tag_239:\n        /* \"#utility.yul\":3901:3975   */\n      swap2\n      pop\n        /* \"#utility.yul\":3984:4077   */\n      tag_240\n        /* \"#utility.yul\":4073:4076   */\n      dup3\n        /* \"#utility.yul\":3984:4077   */\n      tag_241\n      jump\t// in\n    tag_240:\n        /* \"#utility.yul\":4102:4104   */\n      0x20\n        /* \"#utility.yul\":4097:4100   */\n      dup3\n        /* \"#utility.yul\":4093:4105   */\n      add\n        /* \"#utility.yul\":4086:4105   */\n      swap1\n      pop\n        /* \"#utility.yul\":3745:4111   */\n      swap2\n      swap1\n      pop\n      jump\t// out\n        /* \"#utility.yul\":4117:4479   */\n    tag_242:\n        /* \"#utility.yul\":4258:4261   */\n      0x00\n        /* \"#utility.yul\":4279:4344   */\n      tag_244\n        /* \"#utility.yul\":4342:4343   */\n      0x00\n        /* \"#utility.yul\":4337:4340   */\n      dup4\n        /* \"#utility.yul\":4279:4344   */\n      tag_245\n      jump\t// in\n    tag_244:\n        /* \"#utility.yul\":4272:4344   */\n      swap2\n      pop\n        /* \"#utility.yul\":4353:4446   */\n      tag_246\n        /* \"#utility.yul\":4442:4445   */\n      dup3\n        /* \"#utility.yul\":4353:4446   */\n      tag_247\n      jump\t// in\n    tag_246:\n        /* \"#utility.yul\":4471:4472   */\n      0x00\n        /* \"#utility.yul\":4466:4469   */\n      dup3\n        /* \"#utility.yul\":4462:4473   */\n      add\n        /* \"#utility.yul\":4455:4473   */\n      swap1\n      pop\n        /* \"#utility.yul\":4117:4479   */\n      swap2\n      swap1\n      pop\n      jump\t// out\n        /* \"#utility.yul\":4485:4603   */\n    tag_248:\n        /* \"#utility.yul\":4572:4596   */\n      tag_250\n        /* \"#utility.yul\":4590:4595   */\n      dup2\n        /* \"#utility.yul\":4572:4596   */\n      tag_251\n      jump\t// in\n    tag_250:\n        /* \"#utility.yul\":4567:4570   */\n      dup3\n        /* \"#utility.yul\":4560:4597   */\n      mstore\n        /* \"#utility.yul\":4485:4603   */\n      pop\n      pop\n      jump\t// out\n        /* \"#utility.yul\":4609:4721   */\n    tag_252:\n        /* \"#utility.yul\":4692:4714   */\n      tag_254\n        /* \"#utility.yul\":4708:4713   */\n      dup2\n        /* \"#utility.yul\":4692:4714   */\n      tag_255\n      jump\t// in\n    tag_254:\n        /* \"#utility.yul\":4687:4690   */\n      dup3\n        /* \"#utility.yul\":4680:4715   */\n      mstore\n        /* \"#utility.yul\":4609:4721   */\n      pop\n      pop\n      jump\t// out\n        /* \"#utility.yul\":4727:4949   */\n    tag_22:\n        /* \"#utility.yul\":4820:4824   */\n      0x00\n        /* \"#utility.yul\":4858:4860   */\n      0x20\n        /* \"#utility.yul\":4847:4856   */\n      dup3\n        /* \"#utility.yul\":4843:4861   */\n      add\n        /* \"#utility.yul\":4835:4861   */\n      swap1\n      pop\n        /* \"#utility.yul\":4871:4942   */\n      tag_257\n        /* \"#utility.yul\":4939:4940   */\n      0x00\n        /* \"#utility.yul\":4928:4937   */\n      dup4\n        /* \"#utility.yul\":4924:4941   */\n      add\n        /* \"#utility.yul\":4915:4921   */\n      dup5\n        /* \"#utility.yul\":4871:4942   */\n      tag_223\n      jump\t// in\n    tag_257:\n        /* \"#utility.yul\":4727:4949   */\n      swap3\n      swap2\n      pop\n      pop\n      jump\t// out\n        /* \"#utility.yul\":4955:5397   */\n    tag_133:\n        /* \"#utility.yul\":5104:5108   */\n      0x00\n        /* \"#utility.yul\":5142:5144   */\n      0x60\n        /* \"#utility.yul\":5131:5140   */\n      dup3\n        /* \"#utility.yul\":5127:5145   */\n      add\n        /* \"#utility.yul\":5119:5145   */\n      swap1\n      pop\n        /* \"#utility.yul\":5155:5226   */\n      tag_259\n        /* \"#utility.yul\":5223:5224   */\n      0x00\n        /* \"#utility.yul\":5212:5221   */\n      dup4\n        /* \"#utility.yul\":5208:5225   */\n      add\n        /* \"#utility.yul\":5199:5205   */\n      dup7\n        /* \"#utility.yul\":5155:5226   */\n      tag_223\n      jump\t// in\n    tag_259:\n        /* \"#utility.yul\":5236:5308   */\n      tag_260\n        /* \"#utility.yul\":5304:5306   */\n      0x20\n        /* \"#utility.yul\":5293:5302   */\n      dup4\n        /* \"#utility.yul\":5289:5307   */\n      add\n        /* \"#utility.yul\":5280:5286   */\n      dup6\n        /* \"#utility.yul\":5236:5308   */\n      tag_223\n      jump\t// in\n    tag_260:\n        /* \"#utility.yul\":5318:5390   */\n      tag_261\n        /* \"#utility.yul\":5386:5388   */\n      0x40\n        /* \"#utility.yul\":5375:5384   */\n      dup4\n        /* \"#utility.yul\":5371:5389   */\n      add\n        /* \"#utility.yul\":5362:5368   */\n      dup5\n        /* \"#utility.yul\":5318:5390   */\n      tag_248\n      jump\t// in\n    tag_261:\n        /* \"#utility.yul\":4955:5397   */\n      swap5\n      swap4\n      pop\n      pop\n      pop\n      pop\n      jump\t// out\n        /* \"#utility.yul\":5403:6262   */\n    tag_145:\n        /* \"#utility.yul\":5680:5684   */\n      0x00\n        /* \"#utility.yul\":5718:5721   */\n      0xa0\n        /* \"#utility.yul\":5707:5716   */\n      dup3\n        /* \"#utility.yul\":5703:5722   */\n      add\n        /* \"#utility.yul\":5695:5722   */\n      swap1\n      pop\n        /* \"#utility.yul\":5732:5803   */\n      tag_263\n        /* \"#utility.yul\":5800:5801   */\n      0x00\n        /* \"#utility.yul\":5789:5798   */\n      dup4\n        /* \"#utility.yul\":5785:5802   */\n      add\n        /* \"#utility.yul\":5776:5782   */\n      dup8\n        /* \"#utility.yul\":5732:5803   */\n      tag_223\n      jump\t// in\n    tag_263:\n        /* \"#utility.yul\":5813:5885   */\n      tag_264\n        /* \"#utility.yul\":5881:5883   */\n      0x20\n        /* \"#utility.yul\":5870:5879   */\n      dup4\n        /* \"#utility.yul\":5866:5884   */\n      add\n        /* \"#utility.yul\":5857:5863   */\n      dup7\n        /* \"#utility.yul\":5813:5885   */\n      tag_223\n      jump\t// in\n    tag_264:\n        /* \"#utility.yul\":5895:5967   */\n      tag_265\n        /* \"#utility.yul\":5963:5965   */\n      0x40\n        /* \"#utility.yul\":5952:5961   */\n      dup4\n        /* \"#utility.yul\":5948:5966   */\n      add\n        /* \"#utility.yul\":5939:5945   */\n      dup6\n        /* \"#utility.yul\":5895:5967   */\n      tag_248\n      jump\t// in\n    tag_265:\n        /* \"#utility.yul\":5977:6049   */\n      tag_266\n        /* \"#utility.yul\":6045:6047   */\n      0x60\n        /* \"#utility.yul\":6034:6043   */\n      dup4\n        /* \"#utility.yul\":6030:6048   */\n      add\n        /* \"#utility.yul\":6021:6027   */\n      dup5\n        /* \"#utility.yul\":5977:6049   */\n      tag_248\n      jump\t// in\n    tag_266:\n        /* \"#utility.yul\":6097:6106   */\n      dup2\n        /* \"#utility.yul\":6091:6095   */\n      dup2\n        /* \"#utility.yul\":6087:6107   */\n      sub\n        /* \"#utility.yul\":6081:6084   */\n      0x80\n        /* \"#utility.yul\":6070:6079   */\n      dup4\n        /* \"#utility.yul\":6066:6085   */\n      add\n        /* \"#utility.yul\":6059:6108   */\n      mstore\n        /* \"#utility.yul\":6125:6255   */\n      tag_267\n        /* \"#utility.yul\":6250:6254   */\n      dup2\n        /* \"#utility.yul\":6125:6255   */\n      tag_242\n      jump\t// in\n    tag_267:\n        /* \"#utility.yul\":6117:6255   */\n      swap1\n      pop\n        /* \"#utility.yul\":5403:6262   */\n      swap6\n      swap5\n      pop\n      pop\n      pop\n      pop\n      pop\n      jump\t// out\n        /* \"#utility.yul\":6268:6478   */\n    tag_31:\n        /* \"#utility.yul\":6355:6359   */\n      0x00\n        /* \"#utility.yul\":6393:6395   */\n      0x20\n        /* \"#utility.yul\":6382:6391   */\n      dup3\n        /* \"#utility.yul\":6378:6396   */\n      add\n        /* \"#utility.yul\":6370:6396   */\n      swap1\n      pop\n        /* \"#utility.yul\":6406:6471   */\n      tag_269\n        /* \"#utility.yul\":6468:6469   */\n      0x00\n        /* \"#utility.yul\":6457:6466   */\n      dup4\n        /* \"#utility.yul\":6453:6470   */\n      add\n        /* \"#utility.yul\":6444:6450   */\n      dup5\n        /* \"#utility.yul\":6406:6471   */\n      tag_227\n      jump\t// in\n    tag_269:\n        /* \"#utility.yul\":6268:6478   */\n      swap3\n      swap2\n      pop\n      pop\n      jump\t// out\n        /* \"#utility.yul\":6484:6903   */\n    tag_80:\n        /* \"#utility.yul\":6650:6654   */\n      0x00\n        /* \"#utility.yul\":6688:6690   */\n      0x20\n        /* \"#utility.yul\":6677:6686   */\n      dup3\n        /* \"#utility.yul\":6673:6691   */\n      add\n        /* \"#utility.yul\":6665:6691   */\n      swap1\n      pop\n        /* \"#utility.yul\":6737:6746   */\n      dup2\n        /* \"#utility.yul\":6731:6735   */\n      dup2\n        /* \"#utility.yul\":6727:6747   */\n      sub\n        /* \"#utility.yul\":6723:6724   */\n      0x00\n        /* \"#utility.yul\":6712:6721   */\n      dup4\n        /* \"#utility.yul\":6708:6725   */\n      add\n        /* \"#utility.yul\":6701:6748   */\n      mstore\n        /* \"#utility.yul\":6765:6896   */\n      tag_271\n        /* \"#utility.yul\":6891:6895   */\n      dup2\n        /* \"#utility.yul\":6765:6896   */\n      tag_231\n      jump\t// in\n    tag_271:\n        /* \"#utility.yul\":6757:6896   */\n      swap1\n      pop\n        /* \"#utility.yul\":6484:6903   */\n      swap2\n      swap1\n      pop\n      jump\t// out\n        /* \"#utility.yul\":6909:7328   */\n    tag_88:\n        /* \"#utility.yul\":7075:7079   */\n      0x00\n        /* \"#utility.yul\":7113:7115   */\n      0x20\n        /* \"#utility.yul\":7102:7111   */\n      dup3\n        /* \"#utility.yul\":7098:7116   */\n      add\n        /* \"#utility.yul\":7090:7116   */\n      swap1\n      pop\n        /* \"#utility.yul\":7162:7171   */\n      dup2\n        /* \"#utility.yul\":7156:7160   */\n      dup2\n        /* \"#utility.yul\":7152:7172   */\n      sub\n        /* \"#utility.yul\":7148:7149   */\n      0x00\n        /* \"#utility.yul\":7137:7146   */\n      dup4\n        /* \"#utility.yul\":7133:7150   */\n      add\n        /* \"#utility.yul\":7126:7173   */\n      mstore\n        /* \"#utility.yul\":7190:7321   */\n      tag_273\n        /* \"#utility.yul\":7316:7320   */\n      dup2\n        /* \"#utility.yul\":7190:7321   */\n      tag_237\n      jump\t// in\n    tag_273:\n        /* \"#utility.yul\":7182:7321   */\n      swap1\n      pop\n        /* \"#utility.yul\":6909:7328   */\n      swap2\n      swap1\n      pop\n      jump\t// out\n        /* \"#utility.yul\":7334:7556   */\n    tag_74:\n        /* \"#utility.yul\":7427:7431   */\n      0x00\n        /* \"#utility.yul\":7465:7467   */\n      0x20\n        /* \"#utility.yul\":7454:7463   */\n      dup3\n        /* \"#utility.yul\":7450:7468   */\n      add\n        /* \"#utility.yul\":7442:7468   */\n      swap1\n      pop\n        /* \"#utility.yul\":7478:7549   */\n      tag_275\n        /* \"#utility.yul\":7546:7547   */\n      0x00\n        /* \"#utility.yul\":7535:7544   */\n      dup4\n        /* \"#utility.yul\":7531:7548   */\n      add\n        /* \"#utility.yul\":7522:7528   */\n      dup5\n        /* \"#utility.yul\":7478:7549   */\n      tag_248\n      jump\t// in\n    tag_275:\n        /* \"#utility.yul\":7334:7556   */\n      swap3\n      swap2\n      pop\n      pop\n      jump\t// out\n        /* \"#utility.yul\":7562:7776   */\n    tag_16:\n        /* \"#utility.yul\":7651:7655   */\n      0x00\n        /* \"#utility.yul\":7689:7691   */\n      0x20\n        /* \"#utility.yul\":7678:7687   */\n      dup3\n        /* \"#utility.yul\":7674:7692   */\n      add\n        /* \"#utility.yul\":7666:7692   */\n      swap1\n      pop\n        /* \"#utility.yul\":7702:7769   */\n      tag_277\n        /* \"#utility.yul\":7766:7767   */\n      0x00\n        /* \"#utility.yul\":7755:7764   */\n      dup4\n        /* \"#utility.yul\":7751:7768   */\n      add\n        /* \"#utility.yul\":7742:7748   */\n      dup5\n        /* \"#utility.yul\":7702:7769   */\n      tag_252\n      jump\t// in\n    tag_277:\n        /* \"#utility.yul\":7562:7776   */\n      swap3\n      swap2\n      pop\n      pop\n      jump\t// out\n        /* \"#utility.yul\":7863:8031   */\n    tag_245:\n        /* \"#utility.yul\":7946:7957   */\n      0x00\n        /* \"#utility.yul\":7980:7986   */\n      dup3\n        /* \"#utility.yul\":7975:7978   */\n      dup3\n        /* \"#utility.yul\":7968:7987   */\n      mstore\n        /* \"#utility.yul\":8020:8024   */\n      0x20\n        /* \"#utility.yul\":8015:8018   */\n      dup3\n        /* \"#utility.yul\":8011:8025   */\n      add\n        /* \"#utility.yul\":7996:8025   */\n      swap1\n      pop\n        /* \"#utility.yul\":7863:8031   */\n      swap3\n      swap2\n      pop\n      pop\n      jump\t// out\n        /* \"#utility.yul\":8037:8206   */\n    tag_234:\n        /* \"#utility.yul\":8121:8132   */\n      0x00\n        /* \"#utility.yul\":8155:8161   */\n      dup3\n        /* \"#utility.yul\":8150:8153   */\n      dup3\n        /* \"#utility.yul\":8143:8162   */\n      mstore\n        /* \"#utility.yul\":8195:8199   */\n      0x20\n        /* \"#utility.yul\":8190:8193   */\n      dup3\n        /* \"#utility.yul\":8186:8200   */\n      add\n        /* \"#utility.yul\":8171:8200   */\n      swap1\n      pop\n        /* \"#utility.yul\":8037:8206   */\n      swap3\n      swap2\n      pop\n      pop\n      jump\t// out\n        /* \"#utility.yul\":8212:8397   */\n    tag_98:\n        /* \"#utility.yul\":8252:8253   */\n      0x00\n        /* \"#utility.yul\":8269:8289   */\n      tag_283\n        /* \"#utility.yul\":8287:8288   */\n      dup3\n        /* \"#utility.yul\":8269:8289   */\n      tag_251\n      jump\t// in\n    tag_283:\n        /* \"#utility.yul\":8264:8289   */\n      swap2\n      pop\n        /* \"#utility.yul\":8303:8323   */\n      tag_284\n        /* \"#utility.yul\":8321:8322   */\n      dup4\n        /* \"#utility.yul\":8303:8323   */\n      tag_251\n      jump\t// in\n    tag_284:\n        /* \"#utility.yul\":8298:8323   */\n      swap3\n      pop\n        /* \"#utility.yul\":8342:8343   */\n      dup3\n        /* \"#utility.yul\":8332:8367   */\n      tag_285\n      jumpi\n        /* \"#utility.yul\":8347:8365   */\n      tag_286\n      tag_287\n      jump\t// in\n    tag_286:\n        /* \"#utility.yul\":8332:8367   */\n    tag_285:\n        /* \"#utility.yul\":8389:8390   */\n      dup3\n        /* \"#utility.yul\":8386:8387   */\n      dup3\n        /* \"#utility.yul\":8382:8391   */\n      div\n        /* \"#utility.yul\":8377:8391   */\n      swap1\n      pop\n        /* \"#utility.yul\":8212:8397   */\n      swap3\n      swap2\n      pop\n      pop\n      jump\t// out\n        /* \"#utility.yul\":8403:8751   */\n    tag_96:\n        /* \"#utility.yul\":8443:8450   */\n      0x00\n        /* \"#utility.yul\":8466:8486   */\n      tag_289\n        /* \"#utility.yul\":8484:8485   */\n      dup3\n        /* \"#utility.yul\":8466:8486   */\n      tag_251\n      jump\t// in\n    tag_289:\n        /* \"#utility.yul\":8461:8486   */\n      swap2\n      pop\n        /* \"#utility.yul\":8500:8520   */\n      tag_290\n        /* \"#utility.yul\":8518:8519   */\n      dup4\n        /* \"#utility.yul\":8500:8520   */\n      tag_251\n      jump\t// in\n    tag_290:\n        /* \"#utility.yul\":8495:8520   */\n      swap3\n      pop\n        /* \"#utility.yul\":8688:8689   */\n      dup2\n        /* \"#utility.yul\":8620:8686   */\n      0xffffffffffffffffffffffffffffffffffffffffffffffffffffffffffffffff\n        /* \"#utility.yul\":8616:8690   */\n      div\n        /* \"#utility.yul\":8613:8614   */\n      dup4\n        /* \"#utility.yul\":8610:8691   */\n      gt\n        /* \"#utility.yul\":8605:8606   */\n      dup3\n        /* \"#utility.yul\":8598:8607   */\n      iszero\n        /* \"#utility.yul\":8591:8608   */\n      iszero\n        /* \"#utility.yul\":8587:8692   */\n      and\n        /* \"#utility.yul\":8584:8715   */\n      iszero\n      tag_291\n      jumpi\n        /* \"#utility.yul\":8695:8713   */\n      tag_292\n      tag_293\n      jump\t// in\n    tag_292:\n        /* \"#utility.yul\":8584:8715   */\n    tag_291:\n        /* \"#utility.yul\":8743:8744   */\n      dup3\n        /* \"#utility.yul\":8740:8741   */\n      dup3\n        /* \"#utility.yul\":8736:8745   */\n      mul\n        /* \"#utility.yul\":8725:8745   */\n      swap1\n      pop\n        /* \"#utility.yul\":8403:8751   */\n      swap3\n      swap2\n      pop\n      pop\n      jump\t// out\n        /* \"#utility.yul\":8757:8853   */\n    tag_226:\n        /* \"#utility.yul\":8794:8801   */\n      0x00\n        /* \"#utility.yul\":8823:8847   */\n      tag_295\n        /* \"#utility.yul\":8841:8846   */\n      dup3\n        /* \"#utility.yul\":8823:8847   */\n      tag_296\n      jump\t// in\n    tag_295:\n        /* \"#utility.yul\":8812:8847   */\n      swap1\n      pop\n        /* \"#utility.yul\":8757:8853   */\n      swap2\n      swap1\n      pop\n      jump\t// out\n        /* \"#utility.yul\":8859:8949   */\n    tag_230:\n        /* \"#utility.yul\":8893:8900   */\n      0x00\n        /* \"#utility.yul\":8936:8941   */\n      dup2\n        /* \"#utility.yul\":8929:8942   */\n      iszero\n        /* \"#utility.yul\":8922:8943   */\n      iszero\n        /* \"#utility.yul\":8911:8943   */\n      swap1\n      pop\n        /* \"#utility.yul\":8859:8949   */\n      swap2\n      swap1\n      pop\n      jump\t// out\n        /* \"#utility.yul\":8955:9081   */\n    tag_296:\n        /* \"#utility.yul\":8992:8999   */\n      0x00\n        /* \"#utility.yul\":9032:9074   */\n      0xffffffffffffffffffffffffffffffffffffffff\n        /* \"#utility.yul\":9025:9030   */\n      dup3\n        /* \"#utility.yul\":9021:9075   */\n      and\n        /* \"#utility.yul\":9010:9075   */\n      swap1\n      pop\n        /* \"#utility.yul\":8955:9081   */\n      swap2\n      swap1\n      pop\n      jump\t// out\n        /* \"#utility.yul\":9087:9164   */\n    tag_251:\n        /* \"#utility.yul\":9124:9131   */\n      0x00\n        /* \"#utility.yul\":9153:9158   */\n      dup2\n        /* \"#utility.yul\":9142:9158   */\n      swap1\n      pop\n        /* \"#utility.yul\":9087:9164   */\n      swap2\n      swap1\n      pop\n      jump\t// out\n        /* \"#utility.yul\":9170:9256   */\n    tag_255:\n        /* \"#utility.yul\":9205:9212   */\n      0x00\n        /* \"#utility.yul\":9245:9249   */\n      0xff\n        /* \"#utility.yul\":9238:9243   */\n      dup3\n        /* \"#utility.yul\":9234:9250   */\n      and\n        /* \"#utility.yul\":9223:9250   */\n      swap1\n      pop\n        /* \"#utility.yul\":9170:9256   */\n      swap2\n      swap1\n      pop\n      jump\t// out\n        /* \"#utility.yul\":9262:9442   */\n    tag_293:\n        /* \"#utility.yul\":9310:9387   */\n      0x4e487b7100000000000000000000000000000000000000000000000000000000\n        /* \"#utility.yul\":9307:9308   */\n      0x00\n        /* \"#utility.yul\":9300:9388   */\n      mstore\n        /* \"#utility.yul\":9407:9411   */\n      0x11\n        /* \"#utility.yul\":9404:9405   */\n      0x04\n        /* \"#utility.yul\":9397:9412   */\n      mstore\n        /* \"#utility.yul\":9431:9435   */\n      0x24\n        /* \"#utility.yul\":9428:9429   */\n      0x00\n        /* \"#utility.yul\":9421:9436   */\n      revert\n        /* \"#utility.yul\":9448:9628   */\n    tag_287:\n        /* \"#utility.yul\":9496:9573   */\n      0x4e487b7100000000000000000000000000000000000000000000000000000000\n        /* \"#utility.yul\":9493:9494   */\n      0x00\n        /* \"#utility.yul\":9486:9574   */\n      mstore\n        /* \"#utility.yul\":9593:9597   */\n      0x12\n        /* \"#utility.yul\":9590:9591   */\n      0x04\n        /* \"#utility.yul\":9583:9598   */\n      mstore\n        /* \"#utility.yul\":9617:9621   */\n      0x24\n        /* \"#utility.yul\":9614:9615   */\n      0x00\n        /* \"#utility.yul\":9607:9622   */\n      revert\n        /* \"#utility.yul\":9634:9814   */\n    tag_104:\n        /* \"#utility.yul\":9682:9759   */\n      0x4e487b7100000000000000000000000000000000000000000000000000000000\n        /* \"#utility.yul\":9679:9680   */\n      0x00\n        /* \"#utility.yul\":9672:9760   */\n      mstore\n        /* \"#utility.yul\":9779:9783   */\n      0x21\n        /* \"#utility.yul\":9776:9777   */\n      0x04\n        /* \"#utility.yul\":9769:9784   */\n      mstore\n        /* \"#utility.yul\":9803:9807   */\n      0x24\n        /* \"#utility.yul\":9800:9801   */\n      0x00\n        /* \"#utility.yul\":9793:9808   */\n      revert\n        /* \"#utility.yul\":9820:9937   */\n    tag_193:\n        /* \"#utility.yul\":9929:9930   */\n      0x00\n        /* \"#utility.yul\":9926:9927   */\n      dup1\n        /* \"#utility.yul\":9919:9931   */\n      revert\n        /* \"#utility.yul\":10066:10183   */\n    tag_201:\n        /* \"#utility.yul\":10175:10176   */\n      0x00\n        /* \"#utility.yul\":10172:10173   */\n      dup1\n        /* \"#utility.yul\":10165:10177   */\n      revert\n        /* \"#utility.yul\":10189:10414   */\n    tag_236:\n        /* \"#utility.yul\":10329:10363   */\n      0x4f776e61626c653a206e6577206f776e657220697320746865207a65726f2061\n        /* \"#utility.yul\":10325:10326   */\n      0x00\n        /* \"#utility.yul\":10317:10323   */\n      dup3\n        /* \"#utility.yul\":10313:10327   */\n      add\n        /* \"#utility.yul\":10306:10364   */\n      mstore\n        /* \"#utility.yul\":10398:10406   */\n      0x6464726573730000000000000000000000000000000000000000000000000000\n        /* \"#utility.yul\":10393:10395   */\n      0x20\n        /* \"#utility.yul\":10385:10391   */\n      dup3\n        /* \"#utility.yul\":10381:10396   */\n      add\n        /* \"#utility.yul\":10374:10407   */\n      mstore\n        /* \"#utility.yul\":10189:10414   */\n      pop\n      jump\t// out\n        /* \"#utility.yul\":10420:10602   */\n    tag_241:\n        /* \"#utility.yul\":10560:10594   */\n      0x4f776e61626c653a2063616c6c6572206973206e6f7420746865206f776e6572\n        /* \"#utility.yul\":10556:10557   */\n      0x00\n        /* \"#utility.yul\":10548:10554   */\n      dup3\n        /* \"#utility.yul\":10544:10558   */\n      add\n        /* \"#utility.yul\":10537:10595   */\n      mstore\n        /* \"#utility.yul\":10420:10602   */\n      pop\n      jump\t// out\n        /* \"#utility.yul\":10608:10722   */\n    tag_247:\n      pop\n      jump\t// out\n        /* \"#utility.yul\":10728:10850   */\n    tag_177:\n        /* \"#utility.yul\":10801:10825   */\n      tag_312\n        /* \"#utility.yul\":10819:10824   */\n      dup2\n        /* \"#utility.yul\":10801:10825   */\n      tag_226\n      jump\t// in\n    tag_312:\n        /* \"#utility.yul\":10794:10799   */\n      dup2\n        /* \"#utility.yul\":10791:10826   */\n      eq\n        /* \"#utility.yul\":10781:10844   */\n      tag_313\n      jumpi\n        /* \"#utility.yul\":10840:10841   */\n      0x00\n        /* \"#utility.yul\":10837:10838   */\n      dup1\n        /* \"#utility.yul\":10830:10842   */\n      revert\n        /* \"#utility.yul\":10781:10844   */\n    tag_313:\n        /* \"#utility.yul\":10728:10850   */\n      pop\n      jump\t// out\n        /* \"#utility.yul\":10856:10972   */\n    tag_184:\n        /* \"#utility.yul\":10926:10947   */\n      tag_315\n        /* \"#utility.yul\":10941:10946   */\n      dup2\n        /* \"#utility.yul\":10926:10947   */\n      tag_230\n      jump\t// in\n    tag_315:\n        /* \"#utility.yul\":10919:10924   */\n      dup2\n        /* \"#utility.yul\":10916:10948   */\n      eq\n        /* \"#utility.yul\":10906:10966   */\n      tag_316\n      jumpi\n        /* \"#utility.yul\":10962:10963   */\n      0x00\n        /* \"#utility.yul\":10959:10960   */\n      dup1\n        /* \"#utility.yul\":10952:10964   */\n      revert\n        /* \"#utility.yul\":10906:10966   */\n    tag_316:\n        /* \"#utility.yul\":10856:10972   */\n      pop\n      jump\t// out\n        /* \"#utility.yul\":10978:11088   */\n    tag_188:\n        /* \"#utility.yul\":11062:11063   */\n      0x02\n        /* \"#utility.yul\":11055:11060   */\n      dup2\n        /* \"#utility.yul\":11052:11064   */\n      lt\n        /* \"#utility.yul\":11042:11082   */\n      tag_318\n      jumpi\n        /* \"#utility.yul\":11078:11079   */\n      0x00\n        /* \"#utility.yul\":11075:11076   */\n      dup1\n        /* \"#utility.yul\":11068:11080   */\n      revert\n        /* \"#utility.yul\":11042:11082   */\n    tag_318:\n        /* \"#utility.yul\":10978:11088   */\n      pop\n      jump\t// out\n        /* \"#utility.yul\":11094:11212   */\n    tag_197:\n        /* \"#utility.yul\":11165:11187   */\n      tag_320\n        /* \"#utility.yul\":11181:11186   */\n      dup2\n        /* \"#utility.yul\":11165:11187   */\n      tag_255\n      jump\t// in\n    tag_320:\n        /* \"#utility.yul\":11158:11163   */\n      dup2\n        /* \"#utility.yul\":11155:11188   */\n      eq\n        /* \"#utility.yul\":11145:11206   */\n      tag_321\n      jumpi\n        /* \"#utility.yul\":11202:11203   */\n      0x00\n        /* \"#utility.yul\":11199:11200   */\n      dup1\n        /* \"#utility.yul\":11192:11204   */\n      revert\n        /* \"#utility.yul\":11145:11206   */\n    tag_321:\n        /* \"#utility.yul\":11094:11212   */\n      pop\n      jump\t// out\n\n    auxdata: 0xa264697066735822122077d21d67e6b7b1594a5e3aae6169ce701b212457241004473462547c0cec201464736f6c63430008070033\n}\n",
				"bytecode": {
					"linkReferences": {},
					"object": "60806040523480156200001157600080fd5b506040516200147138038062001471833981810160405281019062000037919062000178565b620000576200004b6200009560201b60201c565b6200009d60201b60201c565b81600060146101000a81548160ff021916908360ff16021790555080600060156101000a81548160ff021916908360ff1602179055505050620001eb565b600033905090565b60008060009054906101000a900473ffffffffffffffffffffffffffffffffffffffff169050816000806101000a81548173ffffffffffffffffffffffffffffffffffffffff021916908373ffffffffffffffffffffffffffffffffffffffff1602179055508173ffffffffffffffffffffffffffffffffffffffff168173ffffffffffffffffffffffffffffffffffffffff167f8be0079c531659141344cd1fd0a4f28419497f9722a3daafe3b4186f6b6457e060405160405180910390a35050565b6000815190506200017281620001d1565b92915050565b60008060408385031215620001925762000191620001cc565b5b6000620001a28582860162000161565b9250506020620001b58582860162000161565b9150509250929050565b600060ff82169050919050565b600080fd5b620001dc81620001bf565b8114620001e857600080fd5b50565b61127680620001fb6000396000f3fe608060405234801561001057600080fd5b50600436106100935760003560e01c8063a3667c7b11610066578063a3667c7b146100fc578063a96b446d1461012c578063b4a99a4e1461015c578063db90a1771461017a578063f2fde38b146101aa57610093565b806360085da614610098578063715018a6146100b65780638da5cb5b146100c05780639c66809d146100de575b600080fd5b6100a06101c6565b6040516100ad9190610fbc565b60405180910390f35b6100be6101dc565b005b6100c86101f0565b6040516100d59190610e9c565b60405180910390f35b6100e6610219565b6040516100f39190610fbc565b60405180910390f35b61011660048036038101906101119190610dca565b61022f565b6040516101239190610f46565b60405180910390f35b61014660048036038101906101419190610dca565b61025d565b6040516101539190610f46565b60405180910390f35b61016461028b565b6040516101719190610e9c565b60405180910390f35b610194600480360381019061018f9190610d9c565b6102b1565b6040516101a19190610f46565b60405180910390f35b6101c460048036038101906101bf9190610ce8565b610398565b005b60008060159054906101000a900460ff16905090565b6101e461041c565b6101ee600061049a565b565b60008060009054906101000a900473ffffffffffffffffffffffffffffffffffffffff16905090565b60008060149054906101000a900460ff16905090565b600061023961041c565b81600060156101000a81548160ff021916908360ff16021790555060019050919050565b600061026761041c565b81600060146101000a81548160ff021916908360ff16021790555060019050919050565b600160009054906101000a900473ffffffffffffffffffffffffffffffffffffffff1681565b6000806102e78360800160208101906102ca9190610d6f565b8460600160208101906102dd9190610ce8565b8560e0013561055e565b9050600033905061030c8483838760000160208101906103079190610ce8565b610792565b3373ffffffffffffffffffffffffffffffffffffffff168460e0013585600001602081019061033b9190610ce8565b73ffffffffffffffffffffffffffffffffffffffff167fb10197cef009fd301a90b892d25451c22c3701eb18ee2df1250d31e514fff3948761010001356040516103859190610fa1565b60405180910390a4600192505050919050565b6103a061041c565b600073ffffffffffffffffffffffffffffffffffffffff168173ffffffffffffffffffffffffffffffffffffffff161415610410576040517f08c379a000000000000000000000000000000000000000000000000000000000815260040161040790610f61565b60405180910390fd5b6104198161049a565b50565b610424610b5c565b73ffffffffffffffffffffffffffffffffffffffff166104426101f0565b73ffffffffffffffffffffffffffffffffffffffff1614610498576040517f08c379a000000000000000000000000000000000000000000000000000000000815260040161048f90610f81565b60405180910390fd5b565b60008060009054906101000a900473ffffffffffffffffffffffffffffffffffffffff169050816000806101000a81548173ffffffffffffffffffffffffffffffffffffffff021916908373ffffffffffffffffffffffffffffffffffffffff1602179055508173ffffffffffffffffffffffffffffffffffffffff168173ffffffffffffffffffffffffffffffffffffffff167f8be0079c531659141344cd1fd0a4f28419497f9722a3daafe3b4186f6b6457e060405160405180910390a35050565b610566610b64565b61056e610ba9565b60006103e88260a001516019610584919061102a565b61058e9190610ff9565b905060008260a001519050600060648460a00151600a6105ae919061102a565b6105b89190610ff9565b905060008461010001518560a001516105d1919061102a565b905060006001808111156105e8576105e7611137565b5b8a60018111156105fb576105fa611137565b5b141561068d578873ffffffffffffffffffffffffffffffffffffffff1663d48e638a896040518263ffffffff1660e01b815260040161063a9190610fa1565b60206040518083038186803b15801561065257600080fd5b505afa158015610666573d6000803e3d6000fd5b505050506040513d601f19601f8201168201806040525081019061068a9190610d15565b90505b600060018111156106a1576106a0611137565b5b8a60018111156106b4576106b3611137565b5b1415610746578873ffffffffffffffffffffffffffffffffffffffff1663d48e638a896040518263ffffffff1660e01b81526004016106f39190610fa1565b60206040518083038186803b15801561070b57600080fd5b505afa15801561071f573d6000803e3d6000fd5b505050506040513d601f19601f820116820180604052508101906107439190610d15565b90505b6040518060a001604052808681526020018581526020018481526020018381526020018273ffffffffffffffffffffffffffffffffffffffff1681525096505050505050509392505050565b6001808111156107a5576107a4611137565b5b8460800160208101906107b89190610d6f565b60018111156107ca576107c9611137565b5b1415610856578360600160208101906107e39190610ce8565b73ffffffffffffffffffffffffffffffffffffffff166342842e0e82848760e001356040518463ffffffff1660e01b815260040161082393929190610eb7565b600060405180830381600087803b15801561083d57600080fd5b505af1158015610851573d6000803e3d6000fd5b505050505b6000600181111561086a57610869611137565b5b84608001602081019061087d9190610d6f565b600181111561088f5761088e611137565b5b1415610922578360600160208101906108a89190610ce8565b73ffffffffffffffffffffffffffffffffffffffff1663f242432a82848760e001358861010001356040518563ffffffff1660e01b81526004016108ef9493929190610eee565b600060405180830381600087803b15801561090957600080fd5b505af115801561091d573d6000803e3d6000fd5b505050505b6000836000015111156109f8578360400160208101906109429190610ce8565b73ffffffffffffffffffffffffffffffffffffffff166323b872dd83600160009054906101000a900473ffffffffffffffffffffffffffffffffffffffff1686600001516040518463ffffffff1660e01b81526004016109a493929190610eb7565b602060405180830381600087803b1580156109be57600080fd5b505af11580156109d2573d6000803e3d6000fd5b505050506040513d601f19601f820116820180604052508101906109f69190610d42565b505b600083604001511115610ab057836040016020810190610a189190610ce8565b73ffffffffffffffffffffffffffffffffffffffff166323b872dd83856080015186604001516040518463ffffffff1660e01b8152600401610a5c93929190610eb7565b602060405180830381600087803b158015610a7657600080fd5b505af1158015610a8a573d6000803e3d6000fd5b505050506040513d601f19601f82011682018060405250810190610aae9190610d42565b505b836040016020810190610ac39190610ce8565b73ffffffffffffffffffffffffffffffffffffffff166323b872dd838386602001516040518463ffffffff1660e01b8152600401610b0393929190610eb7565b602060405180830381600087803b158015610b1d57600080fd5b505af1158015610b31573d6000803e3d6000fd5b505050506040513d601f19601f82011682018060405250810190610b559190610d42565b5050505050565b600033905090565b6040518060a0016040528060008152602001600081526020016000815260200160008152602001600073ffffffffffffffffffffffffffffffffffffffff1681525090565b604051806101200160405280600073ffffffffffffffffffffffffffffffffffffffff168152602001600073ffffffffffffffffffffffffffffffffffffffff168152602001600073ffffffffffffffffffffffffffffffffffffffff168152602001600073ffffffffffffffffffffffffffffffffffffffff16815260200160006001811115610c3d57610c3c611137565b5b8152602001600081526020016000815260200160008152602001600081525090565b600081359050610c6e816111eb565b92915050565b600081519050610c83816111eb565b92915050565b600081519050610c9881611202565b92915050565b600081359050610cad81611219565b92915050565b60006101208284031215610cca57610cc9611166565b5b81905092915050565b600081359050610ce281611229565b92915050565b600060208284031215610cfe57610cfd61116b565b5b6000610d0c84828501610c5f565b91505092915050565b600060208284031215610d2b57610d2a61116b565b5b6000610d3984828501610c74565b91505092915050565b600060208284031215610d5857610d5761116b565b5b6000610d6684828501610c89565b91505092915050565b600060208284031215610d8557610d8461116b565b5b6000610d9384828501610c9e565b91505092915050565b60006101208284031215610db357610db261116b565b5b6000610dc184828501610cb3565b91505092915050565b600060208284031215610de057610ddf61116b565b5b6000610dee84828501610cd3565b91505092915050565b610e0081611084565b82525050565b610e0f81611096565b82525050565b6000610e22602683610fe8565b9150610e2d82611170565b604082019050919050565b6000610e45602083610fe8565b9150610e50826111bf565b602082019050919050565b6000610e68600083610fd7565b9150610e73826111e8565b600082019050919050565b610e87816110c2565b82525050565b610e96816110cc565b82525050565b6000602082019050610eb16000830184610df7565b92915050565b6000606082019050610ecc6000830186610df7565b610ed96020830185610df7565b610ee66040830184610e7e565b949350505050565b600060a082019050610f036000830187610df7565b610f106020830186610df7565b610f1d6040830185610e7e565b610f2a6060830184610e7e565b8181036080830152610f3b81610e5b565b905095945050505050565b6000602082019050610f5b6000830184610e06565b92915050565b60006020820190508181036000830152610f7a81610e15565b9050919050565b60006020820190508181036000830152610f9a81610e38565b9050919050565b6000602082019050610fb66000830184610e7e565b92915050565b6000602082019050610fd16000830184610e8d565b92915050565b600082825260208201905092915050565b600082825260208201905092915050565b6000611004826110c2565b915061100f836110c2565b92508261101f5761101e611108565b5b828204905092915050565b6000611035826110c2565b9150611040836110c2565b9250817fffffffffffffffffffffffffffffffffffffffffffffffffffffffffffffffff0483118215151615611079576110786110d9565b5b828202905092915050565b600061108f826110a2565b9050919050565b60008115159050919050565b600073ffffffffffffffffffffffffffffffffffffffff82169050919050565b6000819050919050565b600060ff82169050919050565b7f4e487b7100000000000000000000000000000000000000000000000000000000600052601160045260246000fd5b7f4e487b7100000000000000000000000000000000000000000000000000000000600052601260045260246000fd5b7f4e487b7100000000000000000000000000000000000000000000000000000000600052602160045260246000fd5b600080fd5b600080fd5b7f4f776e61626c653a206e6577206f776e657220697320746865207a65726f206160008201527f6464726573730000000000000000000000000000000000000000000000000000602082015250565b7f4f776e61626c653a2063616c6c6572206973206e6f7420746865206f776e6572600082015250565b50565b6111f481611084565b81146111ff57600080fd5b50565b61120b81611096565b811461121657600080fd5b50565b6002811061122657600080fd5b50565b611232816110cc565b811461123d57600080fd5b5056fea264697066735822122077d21d67e6b7b1594a5e3aae6169ce701b212457241004473462547c0cec201464736f6c63430008070033",
					"opcodes": "PUSH1 0x80 PUSH1 0x40 MSTORE CALLVALUE DUP1 ISZERO PUSH3 0x11 JUMPI PUSH1 0x0 DUP1 REVERT JUMPDEST POP PUSH1 0x40 MLOAD PUSH3 0x1471 CODESIZE SUB DUP1 PUSH3 0x1471 DUP4 CODECOPY DUP2 DUP2 ADD PUSH1 0x40 MSTORE DUP2 ADD SWAP1 PUSH3 0x37 SWAP2 SWAP1 PUSH3 0x178 JUMP JUMPDEST PUSH3 0x57 PUSH3 0x4B PUSH3 0x95 PUSH1 0x20 SHL PUSH1 0x20 SHR JUMP JUMPDEST PUSH3 0x9D PUSH1 0x20 SHL PUSH1 0x20 SHR JUMP JUMPDEST DUP2 PUSH1 0x0 PUSH1 0x14 PUSH2 0x100 EXP DUP2 SLOAD DUP2 PUSH1 0xFF MUL NOT AND SWAP1 DUP4 PUSH1 0xFF AND MUL OR SWAP1 SSTORE POP DUP1 PUSH1 0x0 PUSH1 0x15 PUSH2 0x100 EXP DUP2 SLOAD DUP2 PUSH1 0xFF MUL NOT AND SWAP1 DUP4 PUSH1 0xFF AND MUL OR SWAP1 SSTORE POP POP POP PUSH3 0x1EB JUMP JUMPDEST PUSH1 0x0 CALLER SWAP1 POP SWAP1 JUMP JUMPDEST PUSH1 0x0 DUP1 PUSH1 0x0 SWAP1 SLOAD SWAP1 PUSH2 0x100 EXP SWAP1 DIV PUSH20 0xFFFFFFFFFFFFFFFFFFFFFFFFFFFFFFFFFFFFFFFF AND SWAP1 POP DUP2 PUSH1 0x0 DUP1 PUSH2 0x100 EXP DUP2 SLOAD DUP2 PUSH20 0xFFFFFFFFFFFFFFFFFFFFFFFFFFFFFFFFFFFFFFFF MUL NOT AND SWAP1 DUP4 PUSH20 0xFFFFFFFFFFFFFFFFFFFFFFFFFFFFFFFFFFFFFFFF AND MUL OR SWAP1 SSTORE POP DUP2 PUSH20 0xFFFFFFFFFFFFFFFFFFFFFFFFFFFFFFFFFFFFFFFF AND DUP2 PUSH20 0xFFFFFFFFFFFFFFFFFFFFFFFFFFFFFFFFFFFFFFFF AND PUSH32 0x8BE0079C531659141344CD1FD0A4F28419497F9722A3DAAFE3B4186F6B6457E0 PUSH1 0x40 MLOAD PUSH1 0x40 MLOAD DUP1 SWAP2 SUB SWAP1 LOG3 POP POP JUMP JUMPDEST PUSH1 0x0 DUP2 MLOAD SWAP1 POP PUSH3 0x172 DUP2 PUSH3 0x1D1 JUMP JUMPDEST SWAP3 SWAP2 POP POP JUMP JUMPDEST PUSH1 0x0 DUP1 PUSH1 0x40 DUP4 DUP6 SUB SLT ISZERO PUSH3 0x192 JUMPI PUSH3 0x191 PUSH3 0x1CC JUMP JUMPDEST JUMPDEST PUSH1 0x0 PUSH3 0x1A2 DUP6 DUP3 DUP7 ADD PUSH3 0x161 JUMP JUMPDEST SWAP3 POP POP PUSH1 0x20 PUSH3 0x1B5 DUP6 DUP3 DUP7 ADD PUSH3 0x161 JUMP JUMPDEST SWAP2 POP POP SWAP3 POP SWAP3 SWAP1 POP JUMP JUMPDEST PUSH1 0x0 PUSH1 0xFF DUP3 AND SWAP1 POP SWAP2 SWAP1 POP JUMP JUMPDEST PUSH1 0x0 DUP1 REVERT JUMPDEST PUSH3 0x1DC DUP2 PUSH3 0x1BF JUMP JUMPDEST DUP2 EQ PUSH3 0x1E8 JUMPI PUSH1 0x0 DUP1 REVERT JUMPDEST POP JUMP JUMPDEST PUSH2 0x1276 DUP1 PUSH3 0x1FB PUSH1 0x0 CODECOPY PUSH1 0x0 RETURN INVALID PUSH1 0x80 PUSH1 0x40 MSTORE CALLVALUE DUP1 ISZERO PUSH2 0x10 JUMPI PUSH1 0x0 DUP1 REVERT JUMPDEST POP PUSH1 0x4 CALLDATASIZE LT PUSH2 0x93 JUMPI PUSH1 0x0 CALLDATALOAD PUSH1 0xE0 SHR DUP1 PUSH4 0xA3667C7B GT PUSH2 0x66 JUMPI DUP1 PUSH4 0xA3667C7B EQ PUSH2 0xFC JUMPI DUP1 PUSH4 0xA96B446D EQ PUSH2 0x12C JUMPI DUP1 PUSH4 0xB4A99A4E EQ PUSH2 0x15C JUMPI DUP1 PUSH4 0xDB90A177 EQ PUSH2 0x17A JUMPI DUP1 PUSH4 0xF2FDE38B EQ PUSH2 0x1AA JUMPI PUSH2 0x93 JUMP JUMPDEST DUP1 PUSH4 0x60085DA6 EQ PUSH2 0x98 JUMPI DUP1 PUSH4 0x715018A6 EQ PUSH2 0xB6 JUMPI DUP1 PUSH4 0x8DA5CB5B EQ PUSH2 0xC0 JUMPI DUP1 PUSH4 0x9C66809D EQ PUSH2 0xDE JUMPI JUMPDEST PUSH1 0x0 DUP1 REVERT JUMPDEST PUSH2 0xA0 PUSH2 0x1C6 JUMP JUMPDEST PUSH1 0x40 MLOAD PUSH2 0xAD SWAP2 SWAP1 PUSH2 0xFBC JUMP JUMPDEST PUSH1 0x40 MLOAD DUP1 SWAP2 SUB SWAP1 RETURN JUMPDEST PUSH2 0xBE PUSH2 0x1DC JUMP JUMPDEST STOP JUMPDEST PUSH2 0xC8 PUSH2 0x1F0 JUMP JUMPDEST PUSH1 0x40 MLOAD PUSH2 0xD5 SWAP2 SWAP1 PUSH2 0xE9C JUMP JUMPDEST PUSH1 0x40 MLOAD DUP1 SWAP2 SUB SWAP1 RETURN JUMPDEST PUSH2 0xE6 PUSH2 0x219 JUMP JUMPDEST PUSH1 0x40 MLOAD PUSH2 0xF3 SWAP2 SWAP1 PUSH2 0xFBC JUMP JUMPDEST PUSH1 0x40 MLOAD DUP1 SWAP2 SUB SWAP1 RETURN JUMPDEST PUSH2 0x116 PUSH1 0x4 DUP1 CALLDATASIZE SUB DUP2 ADD SWAP1 PUSH2 0x111 SWAP2 SWAP1 PUSH2 0xDCA JUMP JUMPDEST PUSH2 0x22F JUMP JUMPDEST PUSH1 0x40 MLOAD PUSH2 0x123 SWAP2 SWAP1 PUSH2 0xF46 JUMP JUMPDEST PUSH1 0x40 MLOAD DUP1 SWAP2 SUB SWAP1 RETURN JUMPDEST PUSH2 0x146 PUSH1 0x4 DUP1 CALLDATASIZE SUB DUP2 ADD SWAP1 PUSH2 0x141 SWAP2 SWAP1 PUSH2 0xDCA JUMP JUMPDEST PUSH2 0x25D JUMP JUMPDEST PUSH1 0x40 MLOAD PUSH2 0x153 SWAP2 SWAP1 PUSH2 0xF46 JUMP JUMPDEST PUSH1 0x40 MLOAD DUP1 SWAP2 SUB SWAP1 RETURN JUMPDEST PUSH2 0x164 PUSH2 0x28B JUMP JUMPDEST PUSH1 0x40 MLOAD PUSH2 0x171 SWAP2 SWAP1 PUSH2 0xE9C JUMP JUMPDEST PUSH1 0x40 MLOAD DUP1 SWAP2 SUB SWAP1 RETURN JUMPDEST PUSH2 0x194 PUSH1 0x4 DUP1 CALLDATASIZE SUB DUP2 ADD SWAP1 PUSH2 0x18F SWAP2 SWAP1 PUSH2 0xD9C JUMP JUMPDEST PUSH2 0x2B1 JUMP JUMPDEST PUSH1 0x40 MLOAD PUSH2 0x1A1 SWAP2 SWAP1 PUSH2 0xF46 JUMP JUMPDEST PUSH1 0x40 MLOAD DUP1 SWAP2 SUB SWAP1 RETURN JUMPDEST PUSH2 0x1C4 PUSH1 0x4 DUP1 CALLDATASIZE SUB DUP2 ADD SWAP1 PUSH2 0x1BF SWAP2 SWAP1 PUSH2 0xCE8 JUMP JUMPDEST PUSH2 0x398 JUMP JUMPDEST STOP JUMPDEST PUSH1 0x0 DUP1 PUSH1 0x15 SWAP1 SLOAD SWAP1 PUSH2 0x100 EXP SWAP1 DIV PUSH1 0xFF AND SWAP1 POP SWAP1 JUMP JUMPDEST PUSH2 0x1E4 PUSH2 0x41C JUMP JUMPDEST PUSH2 0x1EE PUSH1 0x0 PUSH2 0x49A JUMP JUMPDEST JUMP JUMPDEST PUSH1 0x0 DUP1 PUSH1 0x0 SWAP1 SLOAD SWAP1 PUSH2 0x100 EXP SWAP1 DIV PUSH20 0xFFFFFFFFFFFFFFFFFFFFFFFFFFFFFFFFFFFFFFFF AND SWAP1 POP SWAP1 JUMP JUMPDEST PUSH1 0x0 DUP1 PUSH1 0x14 SWAP1 SLOAD SWAP1 PUSH2 0x100 EXP SWAP1 DIV PUSH1 0xFF AND SWAP1 POP SWAP1 JUMP JUMPDEST PUSH1 0x0 PUSH2 0x239 PUSH2 0x41C JUMP JUMPDEST DUP2 PUSH1 0x0 PUSH1 0x15 PUSH2 0x100 EXP DUP2 SLOAD DUP2 PUSH1 0xFF MUL NOT AND SWAP1 DUP4 PUSH1 0xFF AND MUL OR SWAP1 SSTORE POP PUSH1 0x1 SWAP1 POP SWAP2 SWAP1 POP JUMP JUMPDEST PUSH1 0x0 PUSH2 0x267 PUSH2 0x41C JUMP JUMPDEST DUP2 PUSH1 0x0 PUSH1 0x14 PUSH2 0x100 EXP DUP2 SLOAD DUP2 PUSH1 0xFF MUL NOT AND SWAP1 DUP4 PUSH1 0xFF AND MUL OR SWAP1 SSTORE POP PUSH1 0x1 SWAP1 POP SWAP2 SWAP1 POP JUMP JUMPDEST PUSH1 0x1 PUSH1 0x0 SWAP1 SLOAD SWAP1 PUSH2 0x100 EXP SWAP1 DIV PUSH20 0xFFFFFFFFFFFFFFFFFFFFFFFFFFFFFFFFFFFFFFFF AND DUP2 JUMP JUMPDEST PUSH1 0x0 DUP1 PUSH2 0x2E7 DUP4 PUSH1 0x80 ADD PUSH1 0x20 DUP2 ADD SWAP1 PUSH2 0x2CA SWAP2 SWAP1 PUSH2 0xD6F JUMP JUMPDEST DUP5 PUSH1 0x60 ADD PUSH1 0x20 DUP2 ADD SWAP1 PUSH2 0x2DD SWAP2 SWAP1 PUSH2 0xCE8 JUMP JUMPDEST DUP6 PUSH1 0xE0 ADD CALLDATALOAD PUSH2 0x55E JUMP JUMPDEST SWAP1 POP PUSH1 0x0 CALLER SWAP1 POP PUSH2 0x30C DUP5 DUP4 DUP4 DUP8 PUSH1 0x0 ADD PUSH1 0x20 DUP2 ADD SWAP1 PUSH2 0x307 SWAP2 SWAP1 PUSH2 0xCE8 JUMP JUMPDEST PUSH2 0x792 JUMP JUMPDEST CALLER PUSH20 0xFFFFFFFFFFFFFFFFFFFFFFFFFFFFFFFFFFFFFFFF AND DUP5 PUSH1 0xE0 ADD CALLDATALOAD DUP6 PUSH1 0x0 ADD PUSH1 0x20 DUP2 ADD SWAP1 PUSH2 0x33B SWAP2 SWAP1 PUSH2 0xCE8 JUMP JUMPDEST PUSH20 0xFFFFFFFFFFFFFFFFFFFFFFFFFFFFFFFFFFFFFFFF AND PUSH32 0xB10197CEF009FD301A90B892D25451C22C3701EB18EE2DF1250D31E514FFF394 DUP8 PUSH2 0x100 ADD CALLDATALOAD PUSH1 0x40 MLOAD PUSH2 0x385 SWAP2 SWAP1 PUSH2 0xFA1 JUMP JUMPDEST PUSH1 0x40 MLOAD DUP1 SWAP2 SUB SWAP1 LOG4 PUSH1 0x1 SWAP3 POP POP POP SWAP2 SWAP1 POP JUMP JUMPDEST PUSH2 0x3A0 PUSH2 0x41C JUMP JUMPDEST PUSH1 0x0 PUSH20 0xFFFFFFFFFFFFFFFFFFFFFFFFFFFFFFFFFFFFFFFF AND DUP2 PUSH20 0xFFFFFFFFFFFFFFFFFFFFFFFFFFFFFFFFFFFFFFFF AND EQ ISZERO PUSH2 0x410 JUMPI PUSH1 0x40 MLOAD PUSH32 0x8C379A000000000000000000000000000000000000000000000000000000000 DUP2 MSTORE PUSH1 0x4 ADD PUSH2 0x407 SWAP1 PUSH2 0xF61 JUMP JUMPDEST PUSH1 0x40 MLOAD DUP1 SWAP2 SUB SWAP1 REVERT JUMPDEST PUSH2 0x419 DUP2 PUSH2 0x49A JUMP JUMPDEST POP JUMP JUMPDEST PUSH2 0x424 PUSH2 0xB5C JUMP JUMPDEST PUSH20 0xFFFFFFFFFFFFFFFFFFFFFFFFFFFFFFFFFFFFFFFF AND PUSH2 0x442 PUSH2 0x1F0 JUMP JUMPDEST PUSH20 0xFFFFFFFFFFFFFFFFFFFFFFFFFFFFFFFFFFFFFFFF AND EQ PUSH2 0x498 JUMPI PUSH1 0x40 MLOAD PUSH32 0x8C379A000000000000000000000000000000000000000000000000000000000 DUP2 MSTORE PUSH1 0x4 ADD PUSH2 0x48F SWAP1 PUSH2 0xF81 JUMP JUMPDEST PUSH1 0x40 MLOAD DUP1 SWAP2 SUB SWAP1 REVERT JUMPDEST JUMP JUMPDEST PUSH1 0x0 DUP1 PUSH1 0x0 SWAP1 SLOAD SWAP1 PUSH2 0x100 EXP SWAP1 DIV PUSH20 0xFFFFFFFFFFFFFFFFFFFFFFFFFFFFFFFFFFFFFFFF AND SWAP1 POP DUP2 PUSH1 0x0 DUP1 PUSH2 0x100 EXP DUP2 SLOAD DUP2 PUSH20 0xFFFFFFFFFFFFFFFFFFFFFFFFFFFFFFFFFFFFFFFF MUL NOT AND SWAP1 DUP4 PUSH20 0xFFFFFFFFFFFFFFFFFFFFFFFFFFFFFFFFFFFFFFFF AND MUL OR SWAP1 SSTORE POP DUP2 PUSH20 0xFFFFFFFFFFFFFFFFFFFFFFFFFFFFFFFFFFFFFFFF AND DUP2 PUSH20 0xFFFFFFFFFFFFFFFFFFFFFFFFFFFFFFFFFFFFFFFF AND PUSH32 0x8BE0079C531659141344CD1FD0A4F28419497F9722A3DAAFE3B4186F6B6457E0 PUSH1 0x40 MLOAD PUSH1 0x40 MLOAD DUP1 SWAP2 SUB SWAP1 LOG3 POP POP JUMP JUMPDEST PUSH2 0x566 PUSH2 0xB64 JUMP JUMPDEST PUSH2 0x56E PUSH2 0xBA9 JUMP JUMPDEST PUSH1 0x0 PUSH2 0x3E8 DUP3 PUSH1 0xA0 ADD MLOAD PUSH1 0x19 PUSH2 0x584 SWAP2 SWAP1 PUSH2 0x102A JUMP JUMPDEST PUSH2 0x58E SWAP2 SWAP1 PUSH2 0xFF9 JUMP JUMPDEST SWAP1 POP PUSH1 0x0 DUP3 PUSH1 0xA0 ADD MLOAD SWAP1 POP PUSH1 0x0 PUSH1 0x64 DUP5 PUSH1 0xA0 ADD MLOAD PUSH1 0xA PUSH2 0x5AE SWAP2 SWAP1 PUSH2 0x102A JUMP JUMPDEST PUSH2 0x5B8 SWAP2 SWAP1 PUSH2 0xFF9 JUMP JUMPDEST SWAP1 POP PUSH1 0x0 DUP5 PUSH2 0x100 ADD MLOAD DUP6 PUSH1 0xA0 ADD MLOAD PUSH2 0x5D1 SWAP2 SWAP1 PUSH2 0x102A JUMP JUMPDEST SWAP1 POP PUSH1 0x0 PUSH1 0x1 DUP1 DUP2 GT ISZERO PUSH2 0x5E8 JUMPI PUSH2 0x5E7 PUSH2 0x1137 JUMP JUMPDEST JUMPDEST DUP11 PUSH1 0x1 DUP2 GT ISZERO PUSH2 0x5FB JUMPI PUSH2 0x5FA PUSH2 0x1137 JUMP JUMPDEST JUMPDEST EQ ISZERO PUSH2 0x68D JUMPI DUP9 PUSH20 0xFFFFFFFFFFFFFFFFFFFFFFFFFFFFFFFFFFFFFFFF AND PUSH4 0xD48E638A DUP10 PUSH1 0x40 MLOAD DUP3 PUSH4 0xFFFFFFFF AND PUSH1 0xE0 SHL DUP2 MSTORE PUSH1 0x4 ADD PUSH2 0x63A SWAP2 SWAP1 PUSH2 0xFA1 JUMP JUMPDEST PUSH1 0x20 PUSH1 0x40 MLOAD DUP1 DUP4 SUB DUP2 DUP7 DUP1 EXTCODESIZE ISZERO DUP1 ISZERO PUSH2 0x652 JUMPI PUSH1 0x0 DUP1 REVERT JUMPDEST POP GAS STATICCALL ISZERO DUP1 ISZERO PUSH2 0x666 JUMPI RETURNDATASIZE PUSH1 0x0 DUP1 RETURNDATACOPY RETURNDATASIZE PUSH1 0x0 REVERT JUMPDEST POP POP POP POP PUSH1 0x40 MLOAD RETURNDATASIZE PUSH1 0x1F NOT PUSH1 0x1F DUP3 ADD AND DUP3 ADD DUP1 PUSH1 0x40 MSTORE POP DUP2 ADD SWAP1 PUSH2 0x68A SWAP2 SWAP1 PUSH2 0xD15 JUMP JUMPDEST SWAP1 POP JUMPDEST PUSH1 0x0 PUSH1 0x1 DUP2 GT ISZERO PUSH2 0x6A1 JUMPI PUSH2 0x6A0 PUSH2 0x1137 JUMP JUMPDEST JUMPDEST DUP11 PUSH1 0x1 DUP2 GT ISZERO PUSH2 0x6B4 JUMPI PUSH2 0x6B3 PUSH2 0x1137 JUMP JUMPDEST JUMPDEST EQ ISZERO PUSH2 0x746 JUMPI DUP9 PUSH20 0xFFFFFFFFFFFFFFFFFFFFFFFFFFFFFFFFFFFFFFFF AND PUSH4 0xD48E638A DUP10 PUSH1 0x40 MLOAD DUP3 PUSH4 0xFFFFFFFF AND PUSH1 0xE0 SHL DUP2 MSTORE PUSH1 0x4 ADD PUSH2 0x6F3 SWAP2 SWAP1 PUSH2 0xFA1 JUMP JUMPDEST PUSH1 0x20 PUSH1 0x40 MLOAD DUP1 DUP4 SUB DUP2 DUP7 DUP1 EXTCODESIZE ISZERO DUP1 ISZERO PUSH2 0x70B JUMPI PUSH1 0x0 DUP1 REVERT JUMPDEST POP GAS STATICCALL ISZERO DUP1 ISZERO PUSH2 0x71F JUMPI RETURNDATASIZE PUSH1 0x0 DUP1 RETURNDATACOPY RETURNDATASIZE PUSH1 0x0 REVERT JUMPDEST POP POP POP POP PUSH1 0x40 MLOAD RETURNDATASIZE PUSH1 0x1F NOT PUSH1 0x1F DUP3 ADD AND DUP3 ADD DUP1 PUSH1 0x40 MSTORE POP DUP2 ADD SWAP1 PUSH2 0x743 SWAP2 SWAP1 PUSH2 0xD15 JUMP JUMPDEST SWAP1 POP JUMPDEST PUSH1 0x40 MLOAD DUP1 PUSH1 0xA0 ADD PUSH1 0x40 MSTORE DUP1 DUP7 DUP2 MSTORE PUSH1 0x20 ADD DUP6 DUP2 MSTORE PUSH1 0x20 ADD DUP5 DUP2 MSTORE PUSH1 0x20 ADD DUP4 DUP2 MSTORE PUSH1 0x20 ADD DUP3 PUSH20 0xFFFFFFFFFFFFFFFFFFFFFFFFFFFFFFFFFFFFFFFF AND DUP2 MSTORE POP SWAP7 POP POP POP POP POP POP POP SWAP4 SWAP3 POP POP POP JUMP JUMPDEST PUSH1 0x1 DUP1 DUP2 GT ISZERO PUSH2 0x7A5 JUMPI PUSH2 0x7A4 PUSH2 0x1137 JUMP JUMPDEST JUMPDEST DUP5 PUSH1 0x80 ADD PUSH1 0x20 DUP2 ADD SWAP1 PUSH2 0x7B8 SWAP2 SWAP1 PUSH2 0xD6F JUMP JUMPDEST PUSH1 0x1 DUP2 GT ISZERO PUSH2 0x7CA JUMPI PUSH2 0x7C9 PUSH2 0x1137 JUMP JUMPDEST JUMPDEST EQ ISZERO PUSH2 0x856 JUMPI DUP4 PUSH1 0x60 ADD PUSH1 0x20 DUP2 ADD SWAP1 PUSH2 0x7E3 SWAP2 SWAP1 PUSH2 0xCE8 JUMP JUMPDEST PUSH20 0xFFFFFFFFFFFFFFFFFFFFFFFFFFFFFFFFFFFFFFFF AND PUSH4 0x42842E0E DUP3 DUP5 DUP8 PUSH1 0xE0 ADD CALLDATALOAD PUSH1 0x40 MLOAD DUP5 PUSH4 0xFFFFFFFF AND PUSH1 0xE0 SHL DUP2 MSTORE PUSH1 0x4 ADD PUSH2 0x823 SWAP4 SWAP3 SWAP2 SWAP1 PUSH2 0xEB7 JUMP JUMPDEST PUSH1 0x0 PUSH1 0x40 MLOAD DUP1 DUP4 SUB DUP2 PUSH1 0x0 DUP8 DUP1 EXTCODESIZE ISZERO DUP1 ISZERO PUSH2 0x83D JUMPI PUSH1 0x0 DUP1 REVERT JUMPDEST POP GAS CALL ISZERO DUP1 ISZERO PUSH2 0x851 JUMPI RETURNDATASIZE PUSH1 0x0 DUP1 RETURNDATACOPY RETURNDATASIZE PUSH1 0x0 REVERT JUMPDEST POP POP POP POP JUMPDEST PUSH1 0x0 PUSH1 0x1 DUP2 GT ISZERO PUSH2 0x86A JUMPI PUSH2 0x869 PUSH2 0x1137 JUMP JUMPDEST JUMPDEST DUP5 PUSH1 0x80 ADD PUSH1 0x20 DUP2 ADD SWAP1 PUSH2 0x87D SWAP2 SWAP1 PUSH2 0xD6F JUMP JUMPDEST PUSH1 0x1 DUP2 GT ISZERO PUSH2 0x88F JUMPI PUSH2 0x88E PUSH2 0x1137 JUMP JUMPDEST JUMPDEST EQ ISZERO PUSH2 0x922 JUMPI DUP4 PUSH1 0x60 ADD PUSH1 0x20 DUP2 ADD SWAP1 PUSH2 0x8A8 SWAP2 SWAP1 PUSH2 0xCE8 JUMP JUMPDEST PUSH20 0xFFFFFFFFFFFFFFFFFFFFFFFFFFFFFFFFFFFFFFFF AND PUSH4 0xF242432A DUP3 DUP5 DUP8 PUSH1 0xE0 ADD CALLDATALOAD DUP9 PUSH2 0x100 ADD CALLDATALOAD PUSH1 0x40 MLOAD DUP6 PUSH4 0xFFFFFFFF AND PUSH1 0xE0 SHL DUP2 MSTORE PUSH1 0x4 ADD PUSH2 0x8EF SWAP5 SWAP4 SWAP3 SWAP2 SWAP1 PUSH2 0xEEE JUMP JUMPDEST PUSH1 0x0 PUSH1 0x40 MLOAD DUP1 DUP4 SUB DUP2 PUSH1 0x0 DUP8 DUP1 EXTCODESIZE ISZERO DUP1 ISZERO PUSH2 0x909 JUMPI PUSH1 0x0 DUP1 REVERT JUMPDEST POP GAS CALL ISZERO DUP1 ISZERO PUSH2 0x91D JUMPI RETURNDATASIZE PUSH1 0x0 DUP1 RETURNDATACOPY RETURNDATASIZE PUSH1 0x0 REVERT JUMPDEST POP POP POP POP JUMPDEST PUSH1 0x0 DUP4 PUSH1 0x0 ADD MLOAD GT ISZERO PUSH2 0x9F8 JUMPI DUP4 PUSH1 0x40 ADD PUSH1 0x20 DUP2 ADD SWAP1 PUSH2 0x942 SWAP2 SWAP1 PUSH2 0xCE8 JUMP JUMPDEST PUSH20 0xFFFFFFFFFFFFFFFFFFFFFFFFFFFFFFFFFFFFFFFF AND PUSH4 0x23B872DD DUP4 PUSH1 0x1 PUSH1 0x0 SWAP1 SLOAD SWAP1 PUSH2 0x100 EXP SWAP1 DIV PUSH20 0xFFFFFFFFFFFFFFFFFFFFFFFFFFFFFFFFFFFFFFFF AND DUP7 PUSH1 0x0 ADD MLOAD PUSH1 0x40 MLOAD DUP5 PUSH4 0xFFFFFFFF AND PUSH1 0xE0 SHL DUP2 MSTORE PUSH1 0x4 ADD PUSH2 0x9A4 SWAP4 SWAP3 SWAP2 SWAP1 PUSH2 0xEB7 JUMP JUMPDEST PUSH1 0x20 PUSH1 0x40 MLOAD DUP1 DUP4 SUB DUP2 PUSH1 0x0 DUP8 DUP1 EXTCODESIZE ISZERO DUP1 ISZERO PUSH2 0x9BE JUMPI PUSH1 0x0 DUP1 REVERT JUMPDEST POP GAS CALL ISZERO DUP1 ISZERO PUSH2 0x9D2 JUMPI RETURNDATASIZE PUSH1 0x0 DUP1 RETURNDATACOPY RETURNDATASIZE PUSH1 0x0 REVERT JUMPDEST POP POP POP POP PUSH1 0x40 MLOAD RETURNDATASIZE PUSH1 0x1F NOT PUSH1 0x1F DUP3 ADD AND DUP3 ADD DUP1 PUSH1 0x40 MSTORE POP DUP2 ADD SWAP1 PUSH2 0x9F6 SWAP2 SWAP1 PUSH2 0xD42 JUMP JUMPDEST POP JUMPDEST PUSH1 0x0 DUP4 PUSH1 0x40 ADD MLOAD GT ISZERO PUSH2 0xAB0 JUMPI DUP4 PUSH1 0x40 ADD PUSH1 0x20 DUP2 ADD SWAP1 PUSH2 0xA18 SWAP2 SWAP1 PUSH2 0xCE8 JUMP JUMPDEST PUSH20 0xFFFFFFFFFFFFFFFFFFFFFFFFFFFFFFFFFFFFFFFF AND PUSH4 0x23B872DD DUP4 DUP6 PUSH1 0x80 ADD MLOAD DUP7 PUSH1 0x40 ADD MLOAD PUSH1 0x40 MLOAD DUP5 PUSH4 0xFFFFFFFF AND PUSH1 0xE0 SHL DUP2 MSTORE PUSH1 0x4 ADD PUSH2 0xA5C SWAP4 SWAP3 SWAP2 SWAP1 PUSH2 0xEB7 JUMP JUMPDEST PUSH1 0x20 PUSH1 0x40 MLOAD DUP1 DUP4 SUB DUP2 PUSH1 0x0 DUP8 DUP1 EXTCODESIZE ISZERO DUP1 ISZERO PUSH2 0xA76 JUMPI PUSH1 0x0 DUP1 REVERT JUMPDEST POP GAS CALL ISZERO DUP1 ISZERO PUSH2 0xA8A JUMPI RETURNDATASIZE PUSH1 0x0 DUP1 RETURNDATACOPY RETURNDATASIZE PUSH1 0x0 REVERT JUMPDEST POP POP POP POP PUSH1 0x40 MLOAD RETURNDATASIZE PUSH1 0x1F NOT PUSH1 0x1F DUP3 ADD AND DUP3 ADD DUP1 PUSH1 0x40 MSTORE POP DUP2 ADD SWAP1 PUSH2 0xAAE SWAP2 SWAP1 PUSH2 0xD42 JUMP JUMPDEST POP JUMPDEST DUP4 PUSH1 0x40 ADD PUSH1 0x20 DUP2 ADD SWAP1 PUSH2 0xAC3 SWAP2 SWAP1 PUSH2 0xCE8 JUMP JUMPDEST PUSH20 0xFFFFFFFFFFFFFFFFFFFFFFFFFFFFFFFFFFFFFFFF AND PUSH4 0x23B872DD DUP4 DUP4 DUP7 PUSH1 0x20 ADD MLOAD PUSH1 0x40 MLOAD DUP5 PUSH4 0xFFFFFFFF AND PUSH1 0xE0 SHL DUP2 MSTORE PUSH1 0x4 ADD PUSH2 0xB03 SWAP4 SWAP3 SWAP2 SWAP1 PUSH2 0xEB7 JUMP JUMPDEST PUSH1 0x20 PUSH1 0x40 MLOAD DUP1 DUP4 SUB DUP2 PUSH1 0x0 DUP8 DUP1 EXTCODESIZE ISZERO DUP1 ISZERO PUSH2 0xB1D JUMPI PUSH1 0x0 DUP1 REVERT JUMPDEST POP GAS CALL ISZERO DUP1 ISZERO PUSH2 0xB31 JUMPI RETURNDATASIZE PUSH1 0x0 DUP1 RETURNDATACOPY RETURNDATASIZE PUSH1 0x0 REVERT JUMPDEST POP POP POP POP PUSH1 0x40 MLOAD RETURNDATASIZE PUSH1 0x1F NOT PUSH1 0x1F DUP3 ADD AND DUP3 ADD DUP1 PUSH1 0x40 MSTORE POP DUP2 ADD SWAP1 PUSH2 0xB55 SWAP2 SWAP1 PUSH2 0xD42 JUMP JUMPDEST POP POP POP POP POP JUMP JUMPDEST PUSH1 0x0 CALLER SWAP1 POP SWAP1 JUMP JUMPDEST PUSH1 0x40 MLOAD DUP1 PUSH1 0xA0 ADD PUSH1 0x40 MSTORE DUP1 PUSH1 0x0 DUP2 MSTORE PUSH1 0x20 ADD PUSH1 0x0 DUP2 MSTORE PUSH1 0x20 ADD PUSH1 0x0 DUP2 MSTORE PUSH1 0x20 ADD PUSH1 0x0 DUP2 MSTORE PUSH1 0x20 ADD PUSH1 0x0 PUSH20 0xFFFFFFFFFFFFFFFFFFFFFFFFFFFFFFFFFFFFFFFF AND DUP2 MSTORE POP SWAP1 JUMP JUMPDEST PUSH1 0x40 MLOAD DUP1 PUSH2 0x120 ADD PUSH1 0x40 MSTORE DUP1 PUSH1 0x0 PUSH20 0xFFFFFFFFFFFFFFFFFFFFFFFFFFFFFFFFFFFFFFFF AND DUP2 MSTORE PUSH1 0x20 ADD PUSH1 0x0 PUSH20 0xFFFFFFFFFFFFFFFFFFFFFFFFFFFFFFFFFFFFFFFF AND DUP2 MSTORE PUSH1 0x20 ADD PUSH1 0x0 PUSH20 0xFFFFFFFFFFFFFFFFFFFFFFFFFFFFFFFFFFFFFFFF AND DUP2 MSTORE PUSH1 0x20 ADD PUSH1 0x0 PUSH20 0xFFFFFFFFFFFFFFFFFFFFFFFFFFFFFFFFFFFFFFFF AND DUP2 MSTORE PUSH1 0x20 ADD PUSH1 0x0 PUSH1 0x1 DUP2 GT ISZERO PUSH2 0xC3D JUMPI PUSH2 0xC3C PUSH2 0x1137 JUMP JUMPDEST JUMPDEST DUP2 MSTORE PUSH1 0x20 ADD PUSH1 0x0 DUP2 MSTORE PUSH1 0x20 ADD PUSH1 0x0 DUP2 MSTORE PUSH1 0x20 ADD PUSH1 0x0 DUP2 MSTORE PUSH1 0x20 ADD PUSH1 0x0 DUP2 MSTORE POP SWAP1 JUMP JUMPDEST PUSH1 0x0 DUP2 CALLDATALOAD SWAP1 POP PUSH2 0xC6E DUP2 PUSH2 0x11EB JUMP JUMPDEST SWAP3 SWAP2 POP POP JUMP JUMPDEST PUSH1 0x0 DUP2 MLOAD SWAP1 POP PUSH2 0xC83 DUP2 PUSH2 0x11EB JUMP JUMPDEST SWAP3 SWAP2 POP POP JUMP JUMPDEST PUSH1 0x0 DUP2 MLOAD SWAP1 POP PUSH2 0xC98 DUP2 PUSH2 0x1202 JUMP JUMPDEST SWAP3 SWAP2 POP POP JUMP JUMPDEST PUSH1 0x0 DUP2 CALLDATALOAD SWAP1 POP PUSH2 0xCAD DUP2 PUSH2 0x1219 JUMP JUMPDEST SWAP3 SWAP2 POP POP JUMP JUMPDEST PUSH1 0x0 PUSH2 0x120 DUP3 DUP5 SUB SLT ISZERO PUSH2 0xCCA JUMPI PUSH2 0xCC9 PUSH2 0x1166 JUMP JUMPDEST JUMPDEST DUP2 SWAP1 POP SWAP3 SWAP2 POP POP JUMP JUMPDEST PUSH1 0x0 DUP2 CALLDATALOAD SWAP1 POP PUSH2 0xCE2 DUP2 PUSH2 0x1229 JUMP JUMPDEST SWAP3 SWAP2 POP POP JUMP JUMPDEST PUSH1 0x0 PUSH1 0x20 DUP3 DUP5 SUB SLT ISZERO PUSH2 0xCFE JUMPI PUSH2 0xCFD PUSH2 0x116B JUMP JUMPDEST JUMPDEST PUSH1 0x0 PUSH2 0xD0C DUP5 DUP3 DUP6 ADD PUSH2 0xC5F JUMP JUMPDEST SWAP2 POP POP SWAP3 SWAP2 POP POP JUMP JUMPDEST PUSH1 0x0 PUSH1 0x20 DUP3 DUP5 SUB SLT ISZERO PUSH2 0xD2B JUMPI PUSH2 0xD2A PUSH2 0x116B JUMP JUMPDEST JUMPDEST PUSH1 0x0 PUSH2 0xD39 DUP5 DUP3 DUP6 ADD PUSH2 0xC74 JUMP JUMPDEST SWAP2 POP POP SWAP3 SWAP2 POP POP JUMP JUMPDEST PUSH1 0x0 PUSH1 0x20 DUP3 DUP5 SUB SLT ISZERO PUSH2 0xD58 JUMPI PUSH2 0xD57 PUSH2 0x116B JUMP JUMPDEST JUMPDEST PUSH1 0x0 PUSH2 0xD66 DUP5 DUP3 DUP6 ADD PUSH2 0xC89 JUMP JUMPDEST SWAP2 POP POP SWAP3 SWAP2 POP POP JUMP JUMPDEST PUSH1 0x0 PUSH1 0x20 DUP3 DUP5 SUB SLT ISZERO PUSH2 0xD85 JUMPI PUSH2 0xD84 PUSH2 0x116B JUMP JUMPDEST JUMPDEST PUSH1 0x0 PUSH2 0xD93 DUP5 DUP3 DUP6 ADD PUSH2 0xC9E JUMP JUMPDEST SWAP2 POP POP SWAP3 SWAP2 POP POP JUMP JUMPDEST PUSH1 0x0 PUSH2 0x120 DUP3 DUP5 SUB SLT ISZERO PUSH2 0xDB3 JUMPI PUSH2 0xDB2 PUSH2 0x116B JUMP JUMPDEST JUMPDEST PUSH1 0x0 PUSH2 0xDC1 DUP5 DUP3 DUP6 ADD PUSH2 0xCB3 JUMP JUMPDEST SWAP2 POP POP SWAP3 SWAP2 POP POP JUMP JUMPDEST PUSH1 0x0 PUSH1 0x20 DUP3 DUP5 SUB SLT ISZERO PUSH2 0xDE0 JUMPI PUSH2 0xDDF PUSH2 0x116B JUMP JUMPDEST JUMPDEST PUSH1 0x0 PUSH2 0xDEE DUP5 DUP3 DUP6 ADD PUSH2 0xCD3 JUMP JUMPDEST SWAP2 POP POP SWAP3 SWAP2 POP POP JUMP JUMPDEST PUSH2 0xE00 DUP2 PUSH2 0x1084 JUMP JUMPDEST DUP3 MSTORE POP POP JUMP JUMPDEST PUSH2 0xE0F DUP2 PUSH2 0x1096 JUMP JUMPDEST DUP3 MSTORE POP POP JUMP JUMPDEST PUSH1 0x0 PUSH2 0xE22 PUSH1 0x26 DUP4 PUSH2 0xFE8 JUMP JUMPDEST SWAP2 POP PUSH2 0xE2D DUP3 PUSH2 0x1170 JUMP JUMPDEST PUSH1 0x40 DUP3 ADD SWAP1 POP SWAP2 SWAP1 POP JUMP JUMPDEST PUSH1 0x0 PUSH2 0xE45 PUSH1 0x20 DUP4 PUSH2 0xFE8 JUMP JUMPDEST SWAP2 POP PUSH2 0xE50 DUP3 PUSH2 0x11BF JUMP JUMPDEST PUSH1 0x20 DUP3 ADD SWAP1 POP SWAP2 SWAP1 POP JUMP JUMPDEST PUSH1 0x0 PUSH2 0xE68 PUSH1 0x0 DUP4 PUSH2 0xFD7 JUMP JUMPDEST SWAP2 POP PUSH2 0xE73 DUP3 PUSH2 0x11E8 JUMP JUMPDEST PUSH1 0x0 DUP3 ADD SWAP1 POP SWAP2 SWAP1 POP JUMP JUMPDEST PUSH2 0xE87 DUP2 PUSH2 0x10C2 JUMP JUMPDEST DUP3 MSTORE POP POP JUMP JUMPDEST PUSH2 0xE96 DUP2 PUSH2 0x10CC JUMP JUMPDEST DUP3 MSTORE POP POP JUMP JUMPDEST PUSH1 0x0 PUSH1 0x20 DUP3 ADD SWAP1 POP PUSH2 0xEB1 PUSH1 0x0 DUP4 ADD DUP5 PUSH2 0xDF7 JUMP JUMPDEST SWAP3 SWAP2 POP POP JUMP JUMPDEST PUSH1 0x0 PUSH1 0x60 DUP3 ADD SWAP1 POP PUSH2 0xECC PUSH1 0x0 DUP4 ADD DUP7 PUSH2 0xDF7 JUMP JUMPDEST PUSH2 0xED9 PUSH1 0x20 DUP4 ADD DUP6 PUSH2 0xDF7 JUMP JUMPDEST PUSH2 0xEE6 PUSH1 0x40 DUP4 ADD DUP5 PUSH2 0xE7E JUMP JUMPDEST SWAP5 SWAP4 POP POP POP POP JUMP JUMPDEST PUSH1 0x0 PUSH1 0xA0 DUP3 ADD SWAP1 POP PUSH2 0xF03 PUSH1 0x0 DUP4 ADD DUP8 PUSH2 0xDF7 JUMP JUMPDEST PUSH2 0xF10 PUSH1 0x20 DUP4 ADD DUP7 PUSH2 0xDF7 JUMP JUMPDEST PUSH2 0xF1D PUSH1 0x40 DUP4 ADD DUP6 PUSH2 0xE7E JUMP JUMPDEST PUSH2 0xF2A PUSH1 0x60 DUP4 ADD DUP5 PUSH2 0xE7E JUMP JUMPDEST DUP2 DUP2 SUB PUSH1 0x80 DUP4 ADD MSTORE PUSH2 0xF3B DUP2 PUSH2 0xE5B JUMP JUMPDEST SWAP1 POP SWAP6 SWAP5 POP POP POP POP POP JUMP JUMPDEST PUSH1 0x0 PUSH1 0x20 DUP3 ADD SWAP1 POP PUSH2 0xF5B PUSH1 0x0 DUP4 ADD DUP5 PUSH2 0xE06 JUMP JUMPDEST SWAP3 SWAP2 POP POP JUMP JUMPDEST PUSH1 0x0 PUSH1 0x20 DUP3 ADD SWAP1 POP DUP2 DUP2 SUB PUSH1 0x0 DUP4 ADD MSTORE PUSH2 0xF7A DUP2 PUSH2 0xE15 JUMP JUMPDEST SWAP1 POP SWAP2 SWAP1 POP JUMP JUMPDEST PUSH1 0x0 PUSH1 0x20 DUP3 ADD SWAP1 POP DUP2 DUP2 SUB PUSH1 0x0 DUP4 ADD MSTORE PUSH2 0xF9A DUP2 PUSH2 0xE38 JUMP JUMPDEST SWAP1 POP SWAP2 SWAP1 POP JUMP JUMPDEST PUSH1 0x0 PUSH1 0x20 DUP3 ADD SWAP1 POP PUSH2 0xFB6 PUSH1 0x0 DUP4 ADD DUP5 PUSH2 0xE7E JUMP JUMPDEST SWAP3 SWAP2 POP POP JUMP JUMPDEST PUSH1 0x0 PUSH1 0x20 DUP3 ADD SWAP1 POP PUSH2 0xFD1 PUSH1 0x0 DUP4 ADD DUP5 PUSH2 0xE8D JUMP JUMPDEST SWAP3 SWAP2 POP POP JUMP JUMPDEST PUSH1 0x0 DUP3 DUP3 MSTORE PUSH1 0x20 DUP3 ADD SWAP1 POP SWAP3 SWAP2 POP POP JUMP JUMPDEST PUSH1 0x0 DUP3 DUP3 MSTORE PUSH1 0x20 DUP3 ADD SWAP1 POP SWAP3 SWAP2 POP POP JUMP JUMPDEST PUSH1 0x0 PUSH2 0x1004 DUP3 PUSH2 0x10C2 JUMP JUMPDEST SWAP2 POP PUSH2 0x100F DUP4 PUSH2 0x10C2 JUMP JUMPDEST SWAP3 POP DUP3 PUSH2 0x101F JUMPI PUSH2 0x101E PUSH2 0x1108 JUMP JUMPDEST JUMPDEST DUP3 DUP3 DIV SWAP1 POP SWAP3 SWAP2 POP POP JUMP JUMPDEST PUSH1 0x0 PUSH2 0x1035 DUP3 PUSH2 0x10C2 JUMP JUMPDEST SWAP2 POP PUSH2 0x1040 DUP4 PUSH2 0x10C2 JUMP JUMPDEST SWAP3 POP DUP2 PUSH32 0xFFFFFFFFFFFFFFFFFFFFFFFFFFFFFFFFFFFFFFFFFFFFFFFFFFFFFFFFFFFFFFFF DIV DUP4 GT DUP3 ISZERO ISZERO AND ISZERO PUSH2 0x1079 JUMPI PUSH2 0x1078 PUSH2 0x10D9 JUMP JUMPDEST JUMPDEST DUP3 DUP3 MUL SWAP1 POP SWAP3 SWAP2 POP POP JUMP JUMPDEST PUSH1 0x0 PUSH2 0x108F DUP3 PUSH2 0x10A2 JUMP JUMPDEST SWAP1 POP SWAP2 SWAP1 POP JUMP JUMPDEST PUSH1 0x0 DUP2 ISZERO ISZERO SWAP1 POP SWAP2 SWAP1 POP JUMP JUMPDEST PUSH1 0x0 PUSH20 0xFFFFFFFFFFFFFFFFFFFFFFFFFFFFFFFFFFFFFFFF DUP3 AND SWAP1 POP SWAP2 SWAP1 POP JUMP JUMPDEST PUSH1 0x0 DUP2 SWAP1 POP SWAP2 SWAP1 POP JUMP JUMPDEST PUSH1 0x0 PUSH1 0xFF DUP3 AND SWAP1 POP SWAP2 SWAP1 POP JUMP JUMPDEST PUSH32 0x4E487B7100000000000000000000000000000000000000000000000000000000 PUSH1 0x0 MSTORE PUSH1 0x11 PUSH1 0x4 MSTORE PUSH1 0x24 PUSH1 0x0 REVERT JUMPDEST PUSH32 0x4E487B7100000000000000000000000000000000000000000000000000000000 PUSH1 0x0 MSTORE PUSH1 0x12 PUSH1 0x4 MSTORE PUSH1 0x24 PUSH1 0x0 REVERT JUMPDEST PUSH32 0x4E487B7100000000000000000000000000000000000000000000000000000000 PUSH1 0x0 MSTORE PUSH1 0x21 PUSH1 0x4 MSTORE PUSH1 0x24 PUSH1 0x0 REVERT JUMPDEST PUSH1 0x0 DUP1 REVERT JUMPDEST PUSH1 0x0 DUP1 REVERT JUMPDEST PUSH32 0x4F776E61626C653A206E6577206F776E657220697320746865207A65726F2061 PUSH1 0x0 DUP3 ADD MSTORE PUSH32 0x6464726573730000000000000000000000000000000000000000000000000000 PUSH1 0x20 DUP3 ADD MSTORE POP JUMP JUMPDEST PUSH32 0x4F776E61626C653A2063616C6C6572206973206E6F7420746865206F776E6572 PUSH1 0x0 DUP3 ADD MSTORE POP JUMP JUMPDEST POP JUMP JUMPDEST PUSH2 0x11F4 DUP2 PUSH2 0x1084 JUMP JUMPDEST DUP2 EQ PUSH2 0x11FF JUMPI PUSH1 0x0 DUP1 REVERT JUMPDEST POP JUMP JUMPDEST PUSH2 0x120B DUP2 PUSH2 0x1096 JUMP JUMPDEST DUP2 EQ PUSH2 0x1216 JUMPI PUSH1 0x0 DUP1 REVERT JUMPDEST POP JUMP JUMPDEST PUSH1 0x2 DUP2 LT PUSH2 0x1226 JUMPI PUSH1 0x0 DUP1 REVERT JUMPDEST POP JUMP JUMPDEST PUSH2 0x1232 DUP2 PUSH2 0x10CC JUMP JUMPDEST DUP2 EQ PUSH2 0x123D JUMPI PUSH1 0x0 DUP1 REVERT JUMPDEST POP JUMP INVALID LOG2 PUSH5 0x6970667358 0x22 SLT KECCAK256 PUSH24 0xD21D67E6B7B1594A5E3AAE6169CE701B2124572410044734 PUSH3 0x547C0C 0xEC KECCAK256 EQ PUSH5 0x736F6C6343 STOP ADDMOD SMOD STOP CALLER "
				},
				"gasEstimates": {
					"creation": {
						"codeDepositCost": "945200",
						"executionCost": "infinite",
						"totalCost": "infinite"
					},
					"external": {
						"Owner()": "2558",
						"buyAsset((address,address,address,address,uint8,uint256,uint256,uint256,uint256))": "infinite",
						"buyerServiceFee()": "2596",
						"owner()": "2567",
						"renounceOwnership()": "30421",
						"sellerServiceFee()": "2530",
						"setBuyerServiceFee(uint8)": "27217",
						"setSellerServiceFee(uint8)": "27195",
						"transferOwnership(address)": "30835"
					},
					"internal": {
						"Sell(struct MarketPlace.Trade calldata,struct MarketPlace.Fee memory,address,address)": "infinite",
						"getFees(enum MarketPlace.BuyType,address,uint256)": "infinite"
					}
				},
				"methodIdentifiers": {
					"Owner()": "b4a99a4e",
					"buyAsset((address,address,address,address,uint8,uint256,uint256,uint256,uint256))": "db90a177",
					"buyerServiceFee()": "9c66809d",
					"owner()": "8da5cb5b",
					"renounceOwnership()": "715018a6",
					"sellerServiceFee()": "60085da6",
					"setBuyerServiceFee(uint8)": "a96b446d",
					"setSellerServiceFee(uint8)": "a3667c7b",
					"transferOwnership(address)": "f2fde38b"
				}
			},
			"storageLayout": {
				"storage": [
					{
						"astId": 307,
						"contract": "NFT-Contracts/contracts/MarketPlace.sol:MarketPlace",
						"label": "_owner",
						"offset": 0,
						"slot": "0",
						"type": "t_address"
					},
					{
						"astId": 525,
						"contract": "NFT-Contracts/contracts/MarketPlace.sol:MarketPlace",
						"label": "buyerFee",
						"offset": 20,
						"slot": "0",
						"type": "t_uint8"
					},
					{
						"astId": 527,
						"contract": "NFT-Contracts/contracts/MarketPlace.sol:MarketPlace",
						"label": "sellerFee",
						"offset": 21,
						"slot": "0",
						"type": "t_uint8"
					},
					{
						"astId": 529,
						"contract": "NFT-Contracts/contracts/MarketPlace.sol:MarketPlace",
						"label": "Owner",
						"offset": 0,
						"slot": "1",
						"type": "t_address"
					}
				],
				"types": {
					"t_address": {
						"encoding": "inplace",
						"label": "address",
						"numberOfBytes": "20"
					},
					"t_uint8": {
						"encoding": "inplace",
						"label": "uint8",
						"numberOfBytes": "1"
					}
				}
			},
			"userdoc": {
				"kind": "user",
				"methods": {},
				"version": 1
			}
		}
	}
}