{
	"NFT-Contracts/contracts/MarketPlace.sol": {
		"MarketPlace": {
			"abi": [
				{
					"inputs": [
						{
							"internalType": "uint8",
							"name": "_buyerFee",
							"type": "uint8"
						},
						{
							"internalType": "uint8",
							"name": "_sellerFee",
							"type": "uint8"
						}
					],
					"stateMutability": "nonpayable",
					"type": "constructor"
				},
				{
					"anonymous": false,
					"inputs": [
						{
							"indexed": true,
							"internalType": "address",
							"name": "Owner",
							"type": "address"
						},
						{
							"indexed": true,
							"internalType": "uint256",
							"name": "tokenId",
							"type": "uint256"
						},
						{
							"indexed": false,
							"internalType": "uint256",
							"name": "quantity",
							"type": "uint256"
						},
						{
							"indexed": true,
							"internalType": "address",
							"name": "buyer",
							"type": "address"
						}
					],
					"name": "BuyAsset",
					"type": "event"
				},
				{
					"anonymous": false,
					"inputs": [
						{
							"indexed": true,
							"internalType": "address",
							"name": "Owner",
							"type": "address"
						},
						{
							"indexed": true,
							"internalType": "uint256",
							"name": "tokenId",
							"type": "uint256"
						},
						{
							"indexed": false,
							"internalType": "uint256",
							"name": "quantity",
							"type": "uint256"
						},
						{
							"indexed": true,
							"internalType": "address",
							"name": "buyer",
							"type": "address"
						}
					],
					"name": "ExecuteBid",
					"type": "event"
				},
				{
					"anonymous": false,
					"inputs": [
						{
							"indexed": true,
							"internalType": "address",
							"name": "previousOwner",
							"type": "address"
						},
						{
							"indexed": true,
							"internalType": "address",
							"name": "newOwner",
							"type": "address"
						}
					],
					"name": "OwnershipTransferred",
					"type": "event"
				},
				{
					"inputs": [],
					"name": "Owner",
					"outputs": [
						{
							"internalType": "address",
							"name": "",
							"type": "address"
						}
					],
					"stateMutability": "view",
					"type": "function"
				},
				{
					"inputs": [
						{
							"components": [
								{
									"internalType": "address",
									"name": "seller",
									"type": "address"
								},
								{
									"internalType": "address",
									"name": "buyer",
									"type": "address"
								},
								{
									"internalType": "address",
									"name": "erc20Address",
									"type": "address"
								},
								{
									"internalType": "address",
									"name": "nftAddress",
									"type": "address"
								},
								{
									"internalType": "enum MarketPlace.BuyType",
									"name": "nftType",
									"type": "uint8"
								},
								{
									"internalType": "uint256",
									"name": "unitPrice",
									"type": "uint256"
								},
								{
									"internalType": "uint256",
									"name": "amount",
									"type": "uint256"
								},
								{
									"internalType": "uint256",
									"name": "tokenId",
									"type": "uint256"
								},
								{
									"internalType": "uint256",
									"name": "qty",
									"type": "uint256"
								}
							],
							"internalType": "struct MarketPlace.Trade",
							"name": "trade",
							"type": "tuple"
						}
					],
					"name": "buyAsset",
					"outputs": [
						{
							"internalType": "bool",
							"name": "",
							"type": "bool"
						}
					],
					"stateMutability": "nonpayable",
					"type": "function"
				},
				{
					"inputs": [],
					"name": "buyerServiceFee",
					"outputs": [
						{
							"internalType": "uint8",
							"name": "",
							"type": "uint8"
						}
					],
					"stateMutability": "view",
					"type": "function"
				},
				{
					"inputs": [],
					"name": "owner",
					"outputs": [
						{
							"internalType": "address",
							"name": "",
							"type": "address"
						}
					],
					"stateMutability": "view",
					"type": "function"
				},
				{
					"inputs": [],
					"name": "renounceOwnership",
					"outputs": [],
					"stateMutability": "nonpayable",
					"type": "function"
				},
				{
					"inputs": [],
					"name": "sellerServiceFee",
					"outputs": [
						{
							"internalType": "uint8",
							"name": "",
							"type": "uint8"
						}
					],
					"stateMutability": "view",
					"type": "function"
				},
				{
					"inputs": [
						{
							"internalType": "uint8",
							"name": "_buyerFee",
							"type": "uint8"
						}
					],
					"name": "setBuyerServiceFee",
					"outputs": [
						{
							"internalType": "bool",
							"name": "",
							"type": "bool"
						}
					],
					"stateMutability": "nonpayable",
					"type": "function"
				},
				{
					"inputs": [
						{
							"internalType": "uint8",
							"name": "_sellerFee",
							"type": "uint8"
						}
					],
					"name": "setSellerServiceFee",
					"outputs": [
						{
							"internalType": "bool",
							"name": "",
							"type": "bool"
						}
					],
					"stateMutability": "nonpayable",
					"type": "function"
				},
				{
					"inputs": [
						{
							"internalType": "address",
							"name": "newOwner",
							"type": "address"
						}
					],
					"name": "transferOwnership",
					"outputs": [],
					"stateMutability": "nonpayable",
					"type": "function"
				}
			],
			"devdoc": {
				"kind": "dev",
				"methods": {
					"owner()": {
						"details": "Returns the address of the current owner."
					},
					"renounceOwnership()": {
						"details": "Leaves the contract without owner. It will not be possible to call `onlyOwner` functions anymore. Can only be called by the current owner. NOTE: Renouncing ownership will leave the contract without an owner, thereby removing any functionality that is only available to the owner."
					},
					"transferOwnership(address)": {
						"details": "Transfers ownership of the contract to a new account (`newOwner`). Can only be called by the current owner."
					}
				},
				"version": 1
			},
			"evm": {
				"assembly": "    /* \"NFT-Contracts/contracts/MarketPlace.sol\":261:7251  contract MarketPlace is Ownable{\r... */\n  mstore(0x40, 0x80)\n    /* \"NFT-Contracts/contracts/MarketPlace.sol\":1060:1180  constructor (uint8 _buyerFee, uint8 _sellerFee) {\r... */\n  callvalue\n  dup1\n  iszero\n  tag_1\n  jumpi\n  0x00\n  dup1\n  revert\ntag_1:\n  pop\n  mload(0x40)\n  sub(codesize, bytecodeSize)\n  dup1\n  bytecodeSize\n  dup4\n  codecopy\n  dup2\n  dup2\n  add\n  0x40\n  mstore\n  dup2\n  add\n  swap1\n  tag_2\n  swap2\n  swap1\n  tag_3\n  jump\t// in\ntag_2:\n    /* \"NFT-Contracts/contracts/External/Ownable.sol\":957:989  _transferOwnership(_msgSender()) */\n  tag_7\n    /* \"NFT-Contracts/contracts/External/Ownable.sol\":976:988  _msgSender() */\n  tag_8\n    /* \"NFT-Contracts/contracts/External/Ownable.sol\":976:986  _msgSender */\n  shl(0x20, tag_9)\n    /* \"NFT-Contracts/contracts/External/Ownable.sol\":976:988  _msgSender() */\n  0x20\n  shr\n  jump\t// in\ntag_8:\n    /* \"NFT-Contracts/contracts/External/Ownable.sol\":957:975  _transferOwnership */\n  shl(0x20, tag_10)\n    /* \"NFT-Contracts/contracts/External/Ownable.sol\":957:989  _transferOwnership(_msgSender()) */\n  0x20\n  shr\n  jump\t// in\ntag_7:\n    /* \"NFT-Contracts/contracts/MarketPlace.sol\":1130:1139  _buyerFee */\n  dup2\n    /* \"NFT-Contracts/contracts/MarketPlace.sol\":1119:1127  buyerFee */\n  0x00\n  0x14\n    /* \"NFT-Contracts/contracts/MarketPlace.sol\":1119:1139  buyerFee = _buyerFee */\n  0x0100\n  exp\n  dup2\n  sload\n  dup2\n  0xff\n  mul\n  not\n  and\n  swap1\n  dup4\n  0xff\n  and\n  mul\n  or\n  swap1\n  sstore\n  pop\n    /* \"NFT-Contracts/contracts/MarketPlace.sol\":1162:1172  _sellerFee */\n  dup1\n    /* \"NFT-Contracts/contracts/MarketPlace.sol\":1150:1159  sellerFee */\n  0x00\n  0x15\n    /* \"NFT-Contracts/contracts/MarketPlace.sol\":1150:1172  sellerFee = _sellerFee */\n  0x0100\n  exp\n  dup2\n  sload\n  dup2\n  0xff\n  mul\n  not\n  and\n  swap1\n  dup4\n  0xff\n  and\n  mul\n  or\n  swap1\n  sstore\n  pop\n    /* \"NFT-Contracts/contracts/MarketPlace.sol\":1060:1180  constructor (uint8 _buyerFee, uint8 _sellerFee) {\r... */\n  pop\n  pop\n    /* \"NFT-Contracts/contracts/MarketPlace.sol\":261:7251  contract MarketPlace is Ownable{\r... */\n  jump(tag_12)\n    /* \"NFT-Contracts/contracts/External/Context.sol\":145:260  function _msgSender() internal view virtual returns (address payable) {\r... */\ntag_9:\n    /* \"NFT-Contracts/contracts/External/Context.sol\":198:213  address payable */\n  0x00\n    /* \"NFT-Contracts/contracts/External/Context.sol\":241:251  msg.sender */\n  caller\n    /* \"NFT-Contracts/contracts/External/Context.sol\":226:252  return payable(msg.sender) */\n  swap1\n  pop\n    /* \"NFT-Contracts/contracts/External/Context.sol\":145:260  function _msgSender() internal view virtual returns (address payable) {\r... */\n  swap1\n  jump\t// out\n    /* \"NFT-Contracts/contracts/External/Ownable.sol\":2503:2694  function _transferOwnership(address newOwner) internal virtual {\r... */\ntag_10:\n    /* \"NFT-Contracts/contracts/External/Ownable.sol\":2577:2593  address oldOwner */\n  0x00\n    /* \"NFT-Contracts/contracts/External/Ownable.sol\":2596:2602  _owner */\n  dup1\n  0x00\n  swap1\n  sload\n  swap1\n  0x0100\n  exp\n  swap1\n  div\n  0xffffffffffffffffffffffffffffffffffffffff\n  and\n    /* \"NFT-Contracts/contracts/External/Ownable.sol\":2577:2602  address oldOwner = _owner */\n  swap1\n  pop\n    /* \"NFT-Contracts/contracts/External/Ownable.sol\":2622:2630  newOwner */\n  dup2\n    /* \"NFT-Contracts/contracts/External/Ownable.sol\":2613:2619  _owner */\n  0x00\n  dup1\n    /* \"NFT-Contracts/contracts/External/Ownable.sol\":2613:2630  _owner = newOwner */\n  0x0100\n  exp\n  dup2\n  sload\n  dup2\n  0xffffffffffffffffffffffffffffffffffffffff\n  mul\n  not\n  and\n  swap1\n  dup4\n  0xffffffffffffffffffffffffffffffffffffffff\n  and\n  mul\n  or\n  swap1\n  sstore\n  pop\n    /* \"NFT-Contracts/contracts/External/Ownable.sol\":2677:2685  newOwner */\n  dup2\n    /* \"NFT-Contracts/contracts/External/Ownable.sol\":2646:2686  OwnershipTransferred(oldOwner, newOwner) */\n  0xffffffffffffffffffffffffffffffffffffffff\n  and\n    /* \"NFT-Contracts/contracts/External/Ownable.sol\":2667:2675  oldOwner */\n  dup2\n    /* \"NFT-Contracts/contracts/External/Ownable.sol\":2646:2686  OwnershipTransferred(oldOwner, newOwner) */\n  0xffffffffffffffffffffffffffffffffffffffff\n  and\n  0x8be0079c531659141344cd1fd0a4f28419497f9722a3daafe3b4186f6b6457e0\n  mload(0x40)\n  mload(0x40)\n  dup1\n  swap2\n  sub\n  swap1\n  log3\n    /* \"NFT-Contracts/contracts/External/Ownable.sol\":2503:2694  function _transferOwnership(address newOwner) internal virtual {\r... */\n  pop\n  pop\n  jump\t// out\n    /* \"#utility.yul\":7:146   */\ntag_16:\n    /* \"#utility.yul\":62:67   */\n  0x00\n    /* \"#utility.yul\":93:99   */\n  dup2\n    /* \"#utility.yul\":87:100   */\n  mload\n    /* \"#utility.yul\":78:100   */\n  swap1\n  pop\n    /* \"#utility.yul\":109:140   */\n  tag_18\n    /* \"#utility.yul\":134:139   */\n  dup2\n    /* \"#utility.yul\":109:140   */\n  tag_19\n  jump\t// in\ntag_18:\n    /* \"#utility.yul\":68:146   */\n  swap3\n  swap2\n  pop\n  pop\n  jump\t// out\n    /* \"#utility.yul\":152:584   */\ntag_3:\n    /* \"#utility.yul\":227:233   */\n  0x00\n    /* \"#utility.yul\":235:241   */\n  dup1\n    /* \"#utility.yul\":284:286   */\n  0x40\n    /* \"#utility.yul\":272:281   */\n  dup4\n    /* \"#utility.yul\":263:270   */\n  dup6\n    /* \"#utility.yul\":259:282   */\n  sub\n    /* \"#utility.yul\":255:287   */\n  slt\n    /* \"#utility.yul\":252:254   */\n  iszero\n  tag_21\n  jumpi\n    /* \"#utility.yul\":300:301   */\n  0x00\n    /* \"#utility.yul\":297:298   */\n  dup1\n    /* \"#utility.yul\":290:302   */\n  revert\n    /* \"#utility.yul\":252:254   */\ntag_21:\n    /* \"#utility.yul\":343:344   */\n  0x00\n    /* \"#utility.yul\":368:430   */\n  tag_22\n    /* \"#utility.yul\":422:429   */\n  dup6\n    /* \"#utility.yul\":413:419   */\n  dup3\n    /* \"#utility.yul\":402:411   */\n  dup7\n    /* \"#utility.yul\":398:420   */\n  add\n    /* \"#utility.yul\":368:430   */\n  tag_16\n  jump\t// in\ntag_22:\n    /* \"#utility.yul\":358:430   */\n  swap3\n  pop\n    /* \"#utility.yul\":314:440   */\n  pop\n    /* \"#utility.yul\":479:481   */\n  0x20\n    /* \"#utility.yul\":505:567   */\n  tag_23\n    /* \"#utility.yul\":559:566   */\n  dup6\n    /* \"#utility.yul\":550:556   */\n  dup3\n    /* \"#utility.yul\":539:548   */\n  dup7\n    /* \"#utility.yul\":535:557   */\n  add\n    /* \"#utility.yul\":505:567   */\n  tag_16\n  jump\t// in\ntag_23:\n    /* \"#utility.yul\":495:567   */\n  swap2\n  pop\n    /* \"#utility.yul\":450:577   */\n  pop\n    /* \"#utility.yul\":242:584   */\n  swap3\n  pop\n  swap3\n  swap1\n  pop\n  jump\t// out\n    /* \"#utility.yul\":590:676   */\ntag_24:\n    /* \"#utility.yul\":625:632   */\n  0x00\n    /* \"#utility.yul\":665:669   */\n  0xff\n    /* \"#utility.yul\":658:663   */\n  dup3\n    /* \"#utility.yul\":654:670   */\n  and\n    /* \"#utility.yul\":643:670   */\n  swap1\n  pop\n    /* \"#utility.yul\":633:676   */\n  swap2\n  swap1\n  pop\n  jump\t// out\n    /* \"#utility.yul\":682:800   */\ntag_19:\n    /* \"#utility.yul\":753:775   */\n  tag_27\n    /* \"#utility.yul\":769:774   */\n  dup2\n    /* \"#utility.yul\":753:775   */\n  tag_24\n  jump\t// in\ntag_27:\n    /* \"#utility.yul\":746:751   */\n  dup2\n    /* \"#utility.yul\":743:776   */\n  eq\n    /* \"#utility.yul\":733:735   */\n  tag_28\n  jumpi\n    /* \"#utility.yul\":790:791   */\n  0x00\n    /* \"#utility.yul\":787:788   */\n  dup1\n    /* \"#utility.yul\":780:792   */\n  revert\n    /* \"#utility.yul\":733:735   */\ntag_28:\n    /* \"#utility.yul\":723:800   */\n  pop\n  jump\t// out\n    /* \"NFT-Contracts/contracts/MarketPlace.sol\":261:7251  contract MarketPlace is Ownable{\r... */\ntag_12:\n  dataSize(sub_0)\n  dup1\n  dataOffset(sub_0)\n  0x00\n  codecopy\n  0x00\n  return\nstop\n\nsub_0: assembly {\n        /* \"NFT-Contracts/contracts/MarketPlace.sol\":261:7251  contract MarketPlace is Ownable{\r... */\n      mstore(0x40, 0x80)\n      callvalue\n      dup1\n      iszero\n      tag_1\n      jumpi\n      0x00\n      dup1\n      revert\n    tag_1:\n      pop\n      jumpi(tag_2, lt(calldatasize, 0x04))\n      shr(0xe0, calldataload(0x00))\n      dup1\n      0xa3667c7b\n      gt\n      tag_12\n      jumpi\n      dup1\n      0xa3667c7b\n      eq\n      tag_7\n      jumpi\n      dup1\n      0xa96b446d\n      eq\n      tag_8\n      jumpi\n      dup1\n      0xb4a99a4e\n      eq\n      tag_9\n      jumpi\n      dup1\n      0xdb90a177\n      eq\n      tag_10\n      jumpi\n      dup1\n      0xf2fde38b\n      eq\n      tag_11\n      jumpi\n      jump(tag_2)\n    tag_12:\n      dup1\n      0x60085da6\n      eq\n      tag_3\n      jumpi\n      dup1\n      0x715018a6\n      eq\n      tag_4\n      jumpi\n      dup1\n      0x8da5cb5b\n      eq\n      tag_5\n      jumpi\n      dup1\n      0x9c66809d\n      eq\n      tag_6\n      jumpi\n    tag_2:\n      0x00\n      dup1\n      revert\n        /* \"NFT-Contracts/contracts/MarketPlace.sol\":1291:1392  function sellerServiceFee() external view virtual returns (uint8) {\r... */\n    tag_3:\n      tag_13\n      tag_14\n      jump\t// in\n    tag_13:\n      mload(0x40)\n      tag_15\n      swap2\n      swap1\n      tag_16\n      jump\t// in\n    tag_15:\n      mload(0x40)\n      dup1\n      swap2\n      sub\n      swap1\n      return\n        /* \"NFT-Contracts/contracts/External/Ownable.sol\":1884:1987  function renounceOwnership() public virtual onlyOwner {\r... */\n    tag_4:\n      tag_17\n      tag_18\n      jump\t// in\n    tag_17:\n      stop\n        /* \"NFT-Contracts/contracts/External/Ownable.sol\":1236:1323  function owner() public view virtual returns (address) {\r... */\n    tag_5:\n      tag_19\n      tag_20\n      jump\t// in\n    tag_19:\n      mload(0x40)\n      tag_21\n      swap2\n      swap1\n      tag_22\n      jump\t// in\n    tag_21:\n      mload(0x40)\n      dup1\n      swap2\n      sub\n      swap1\n      return\n        /* \"NFT-Contracts/contracts/MarketPlace.sol\":1186:1285  function buyerServiceFee() external view virtual returns (uint8) {\r... */\n    tag_6:\n      tag_23\n      tag_24\n      jump\t// in\n    tag_23:\n      mload(0x40)\n      tag_25\n      swap2\n      swap1\n      tag_16\n      jump\t// in\n    tag_25:\n      mload(0x40)\n      dup1\n      swap2\n      sub\n      swap1\n      return\n        /* \"NFT-Contracts/contracts/MarketPlace.sol\":1544:1688  function setSellerServiceFee(uint8 _sellerFee) onlyOwner external  returns(bool) {\r... */\n    tag_7:\n      tag_26\n      0x04\n      dup1\n      calldatasize\n      sub\n      dup2\n      add\n      swap1\n      tag_27\n      swap2\n      swap1\n      tag_28\n      jump\t// in\n    tag_27:\n      tag_29\n      jump\t// in\n    tag_26:\n      mload(0x40)\n      tag_30\n      swap2\n      swap1\n      tag_31\n      jump\t// in\n    tag_30:\n      mload(0x40)\n      dup1\n      swap2\n      sub\n      swap1\n      return\n        /* \"NFT-Contracts/contracts/MarketPlace.sol\":1398:1538  function setBuyerServiceFee(uint8 _buyerFee) onlyOwner external  returns(bool) {\r... */\n    tag_8:\n      tag_32\n      0x04\n      dup1\n      calldatasize\n      sub\n      dup2\n      add\n      swap1\n      tag_33\n      swap2\n      swap1\n      tag_28\n      jump\t// in\n    tag_33:\n      tag_34\n      jump\t// in\n    tag_32:\n      mload(0x40)\n      tag_35\n      swap2\n      swap1\n      tag_31\n      jump\t// in\n    tag_35:\n      mload(0x40)\n      dup1\n      swap2\n      sub\n      swap1\n      return\n        /* \"NFT-Contracts/contracts/MarketPlace.sol\":618:638  address public Owner */\n    tag_9:\n      tag_36\n      tag_37\n      jump\t// in\n    tag_36:\n      mload(0x40)\n      tag_38\n      swap2\n      swap1\n      tag_22\n      jump\t// in\n    tag_38:\n      mload(0x40)\n      dup1\n      swap2\n      sub\n      swap1\n      return\n        /* \"NFT-Contracts/contracts/MarketPlace.sol\":3263:3686  function buyAsset(Trade calldata trade) external returns(bool) {\r... */\n    tag_10:\n      tag_39\n      0x04\n      dup1\n      calldatasize\n      sub\n      dup2\n      add\n      swap1\n      tag_40\n      swap2\n      swap1\n      tag_41\n      jump\t// in\n    tag_40:\n      tag_42\n      jump\t// in\n    tag_39:\n      mload(0x40)\n      tag_43\n      swap2\n      swap1\n      tag_31\n      jump\t// in\n    tag_43:\n      mload(0x40)\n      dup1\n      swap2\n      sub\n      swap1\n      return\n        /* \"NFT-Contracts/contracts/External/Ownable.sol\":2142:2343  function transferOwnership(address newOwner) public virtual onlyOwner {\r... */\n    tag_11:\n      tag_44\n      0x04\n      dup1\n      calldatasize\n      sub\n      dup2\n      add\n      swap1\n      tag_45\n      swap2\n      swap1\n      tag_46\n      jump\t// in\n    tag_45:\n      tag_47\n      jump\t// in\n    tag_44:\n      stop\n        /* \"NFT-Contracts/contracts/MarketPlace.sol\":1291:1392  function sellerServiceFee() external view virtual returns (uint8) {\r... */\n    tag_14:\n        /* \"NFT-Contracts/contracts/MarketPlace.sol\":1350:1355  uint8 */\n      0x00\n        /* \"NFT-Contracts/contracts/MarketPlace.sol\":1375:1384  sellerFee */\n      dup1\n      0x15\n      swap1\n      sload\n      swap1\n      0x0100\n      exp\n      swap1\n      div\n      0xff\n      and\n        /* \"NFT-Contracts/contracts/MarketPlace.sol\":1368:1384  return sellerFee */\n      swap1\n      pop\n        /* \"NFT-Contracts/contracts/MarketPlace.sol\":1291:1392  function sellerServiceFee() external view virtual returns (uint8) {\r... */\n      swap1\n      jump\t// out\n        /* \"NFT-Contracts/contracts/External/Ownable.sol\":1884:1987  function renounceOwnership() public virtual onlyOwner {\r... */\n    tag_18:\n        /* \"NFT-Contracts/contracts/External/Ownable.sol\":1122:1135  _checkOwner() */\n      tag_50\n        /* \"NFT-Contracts/contracts/External/Ownable.sol\":1122:1133  _checkOwner */\n      tag_51\n        /* \"NFT-Contracts/contracts/External/Ownable.sol\":1122:1135  _checkOwner() */\n      jump\t// in\n    tag_50:\n        /* \"NFT-Contracts/contracts/External/Ownable.sol\":1949:1979  _transferOwnership(address(0)) */\n      tag_53\n        /* \"NFT-Contracts/contracts/External/Ownable.sol\":1976:1977  0 */\n      0x00\n        /* \"NFT-Contracts/contracts/External/Ownable.sol\":1949:1967  _transferOwnership */\n      tag_54\n        /* \"NFT-Contracts/contracts/External/Ownable.sol\":1949:1979  _transferOwnership(address(0)) */\n      jump\t// in\n    tag_53:\n        /* \"NFT-Contracts/contracts/External/Ownable.sol\":1884:1987  function renounceOwnership() public virtual onlyOwner {\r... */\n      jump\t// out\n        /* \"NFT-Contracts/contracts/External/Ownable.sol\":1236:1323  function owner() public view virtual returns (address) {\r... */\n    tag_20:\n        /* \"NFT-Contracts/contracts/External/Ownable.sol\":1282:1289  address */\n      0x00\n        /* \"NFT-Contracts/contracts/External/Ownable.sol\":1309:1315  _owner */\n      dup1\n      0x00\n      swap1\n      sload\n      swap1\n      0x0100\n      exp\n      swap1\n      div\n      0xffffffffffffffffffffffffffffffffffffffff\n      and\n        /* \"NFT-Contracts/contracts/External/Ownable.sol\":1302:1315  return _owner */\n      swap1\n      pop\n        /* \"NFT-Contracts/contracts/External/Ownable.sol\":1236:1323  function owner() public view virtual returns (address) {\r... */\n      swap1\n      jump\t// out\n        /* \"NFT-Contracts/contracts/MarketPlace.sol\":1186:1285  function buyerServiceFee() external view virtual returns (uint8) {\r... */\n    tag_24:\n        /* \"NFT-Contracts/contracts/MarketPlace.sol\":1244:1249  uint8 */\n      0x00\n        /* \"NFT-Contracts/contracts/MarketPlace.sol\":1269:1277  buyerFee */\n      dup1\n      0x14\n      swap1\n      sload\n      swap1\n      0x0100\n      exp\n      swap1\n      div\n      0xff\n      and\n        /* \"NFT-Contracts/contracts/MarketPlace.sol\":1262:1277  return buyerFee */\n      swap1\n      pop\n        /* \"NFT-Contracts/contracts/MarketPlace.sol\":1186:1285  function buyerServiceFee() external view virtual returns (uint8) {\r... */\n      swap1\n      jump\t// out\n        /* \"NFT-Contracts/contracts/MarketPlace.sol\":1544:1688  function setSellerServiceFee(uint8 _sellerFee) onlyOwner external  returns(bool) {\r... */\n    tag_29:\n        /* \"NFT-Contracts/contracts/MarketPlace.sol\":1619:1623  bool */\n      0x00\n        /* \"NFT-Contracts/contracts/External/Ownable.sol\":1122:1135  _checkOwner() */\n      tag_58\n        /* \"NFT-Contracts/contracts/External/Ownable.sol\":1122:1133  _checkOwner */\n      tag_51\n        /* \"NFT-Contracts/contracts/External/Ownable.sol\":1122:1135  _checkOwner() */\n      jump\t// in\n    tag_58:\n        /* \"NFT-Contracts/contracts/MarketPlace.sol\":1648:1658  _sellerFee */\n      dup2\n        /* \"NFT-Contracts/contracts/MarketPlace.sol\":1636:1645  sellerFee */\n      0x00\n      0x15\n        /* \"NFT-Contracts/contracts/MarketPlace.sol\":1636:1658  sellerFee = _sellerFee */\n      0x0100\n      exp\n      dup2\n      sload\n      dup2\n      0xff\n      mul\n      not\n      and\n      swap1\n      dup4\n      0xff\n      and\n      mul\n      or\n      swap1\n      sstore\n      pop\n        /* \"NFT-Contracts/contracts/MarketPlace.sol\":1676:1680  true */\n      0x01\n        /* \"NFT-Contracts/contracts/MarketPlace.sol\":1669:1680  return true */\n      swap1\n      pop\n        /* \"NFT-Contracts/contracts/MarketPlace.sol\":1544:1688  function setSellerServiceFee(uint8 _sellerFee) onlyOwner external  returns(bool) {\r... */\n      swap2\n      swap1\n      pop\n      jump\t// out\n        /* \"NFT-Contracts/contracts/MarketPlace.sol\":1398:1538  function setBuyerServiceFee(uint8 _buyerFee) onlyOwner external  returns(bool) {\r... */\n    tag_34:\n        /* \"NFT-Contracts/contracts/MarketPlace.sol\":1471:1475  bool */\n      0x00\n        /* \"NFT-Contracts/contracts/External/Ownable.sol\":1122:1135  _checkOwner() */\n      tag_61\n        /* \"NFT-Contracts/contracts/External/Ownable.sol\":1122:1133  _checkOwner */\n      tag_51\n        /* \"NFT-Contracts/contracts/External/Ownable.sol\":1122:1135  _checkOwner() */\n      jump\t// in\n    tag_61:\n        /* \"NFT-Contracts/contracts/MarketPlace.sol\":1499:1508  _buyerFee */\n      dup2\n        /* \"NFT-Contracts/contracts/MarketPlace.sol\":1488:1496  buyerFee */\n      0x00\n      0x14\n        /* \"NFT-Contracts/contracts/MarketPlace.sol\":1488:1508  buyerFee = _buyerFee */\n      0x0100\n      exp\n      dup2\n      sload\n      dup2\n      0xff\n      mul\n      not\n      and\n      swap1\n      dup4\n      0xff\n      and\n      mul\n      or\n      swap1\n      sstore\n      pop\n        /* \"NFT-Contracts/contracts/MarketPlace.sol\":1526:1530  true */\n      0x01\n        /* \"NFT-Contracts/contracts/MarketPlace.sol\":1519:1530  return true */\n      swap1\n      pop\n        /* \"NFT-Contracts/contracts/MarketPlace.sol\":1398:1538  function setBuyerServiceFee(uint8 _buyerFee) onlyOwner external  returns(bool) {\r... */\n      swap2\n      swap1\n      pop\n      jump\t// out\n        /* \"NFT-Contracts/contracts/MarketPlace.sol\":618:638  address public Owner */\n    tag_37:\n      0x01\n      0x00\n      swap1\n      sload\n      swap1\n      0x0100\n      exp\n      swap1\n      div\n      0xffffffffffffffffffffffffffffffffffffffff\n      and\n      dup2\n      jump\t// out\n        /* \"NFT-Contracts/contracts/MarketPlace.sol\":3263:3686  function buyAsset(Trade calldata trade) external returns(bool) {\r... */\n    tag_42:\n        /* \"NFT-Contracts/contracts/MarketPlace.sol\":3320:3324  bool */\n      0x00\n        /* \"NFT-Contracts/contracts/MarketPlace.sol\":3336:3350  Fee memory fee */\n      dup1\n        /* \"NFT-Contracts/contracts/MarketPlace.sol\":3354:3410  getFees( trade.nftType, trade.nftAddress, trade.tokenId) */\n      tag_64\n        /* \"NFT-Contracts/contracts/MarketPlace.sol\":3363:3368  trade */\n      dup4\n        /* \"NFT-Contracts/contracts/MarketPlace.sol\":3363:3376  trade.nftType */\n      0x80\n      add\n      0x20\n      dup2\n      add\n      swap1\n      tag_65\n      swap2\n      swap1\n      tag_66\n      jump\t// in\n    tag_65:\n        /* \"NFT-Contracts/contracts/MarketPlace.sol\":3378:3383  trade */\n      dup5\n        /* \"NFT-Contracts/contracts/MarketPlace.sol\":3378:3394  trade.nftAddress */\n      0x60\n      add\n      0x20\n      dup2\n      add\n      swap1\n      tag_67\n      swap2\n      swap1\n      tag_46\n      jump\t// in\n    tag_67:\n        /* \"NFT-Contracts/contracts/MarketPlace.sol\":3396:3401  trade */\n      dup6\n        /* \"NFT-Contracts/contracts/MarketPlace.sol\":3396:3409  trade.tokenId */\n      0xe0\n      add\n      calldataload\n        /* \"NFT-Contracts/contracts/MarketPlace.sol\":3354:3361  getFees */\n      tag_68\n        /* \"NFT-Contracts/contracts/MarketPlace.sol\":3354:3410  getFees( trade.nftType, trade.nftAddress, trade.tokenId) */\n      jump\t// in\n    tag_64:\n        /* \"NFT-Contracts/contracts/MarketPlace.sol\":3336:3410  Fee memory fee  = getFees( trade.nftType, trade.nftAddress, trade.tokenId) */\n      swap1\n      pop\n        /* \"NFT-Contracts/contracts/MarketPlace.sol\":3506:3519  address buyer */\n      0x00\n        /* \"NFT-Contracts/contracts/MarketPlace.sol\":3522:3532  msg.sender */\n      caller\n        /* \"NFT-Contracts/contracts/MarketPlace.sol\":3506:3532  address buyer = msg.sender */\n      swap1\n      pop\n        /* \"NFT-Contracts/contracts/MarketPlace.sol\":3543:3580  Sell(trade, fee, buyer, trade.seller) */\n      tag_69\n        /* \"NFT-Contracts/contracts/MarketPlace.sol\":3548:3553  trade */\n      dup5\n        /* \"NFT-Contracts/contracts/MarketPlace.sol\":3555:3558  fee */\n      dup4\n        /* \"NFT-Contracts/contracts/MarketPlace.sol\":3560:3565  buyer */\n      dup4\n        /* \"NFT-Contracts/contracts/MarketPlace.sol\":3567:3572  trade */\n      dup8\n        /* \"NFT-Contracts/contracts/MarketPlace.sol\":3567:3579  trade.seller */\n      0x00\n      add\n      0x20\n      dup2\n      add\n      swap1\n      tag_70\n      swap2\n      swap1\n      tag_46\n      jump\t// in\n    tag_70:\n        /* \"NFT-Contracts/contracts/MarketPlace.sol\":3543:3547  Sell */\n      tag_71\n        /* \"NFT-Contracts/contracts/MarketPlace.sol\":3543:3580  Sell(trade, fee, buyer, trade.seller) */\n      jump\t// in\n    tag_69:\n        /* \"NFT-Contracts/contracts/MarketPlace.sol\":3645:3655  msg.sender */\n      caller\n        /* \"NFT-Contracts/contracts/MarketPlace.sol\":3596:3656  BuyAsset(trade.seller, trade.tokenId, trade.qty, msg.sender) */\n      0xffffffffffffffffffffffffffffffffffffffff\n      and\n        /* \"NFT-Contracts/contracts/MarketPlace.sol\":3619:3624  trade */\n      dup5\n        /* \"NFT-Contracts/contracts/MarketPlace.sol\":3619:3632  trade.tokenId */\n      0xe0\n      add\n      calldataload\n        /* \"NFT-Contracts/contracts/MarketPlace.sol\":3605:3610  trade */\n      dup6\n        /* \"NFT-Contracts/contracts/MarketPlace.sol\":3605:3617  trade.seller */\n      0x00\n      add\n      0x20\n      dup2\n      add\n      swap1\n      tag_72\n      swap2\n      swap1\n      tag_46\n      jump\t// in\n    tag_72:\n        /* \"NFT-Contracts/contracts/MarketPlace.sol\":3596:3656  BuyAsset(trade.seller, trade.tokenId, trade.qty, msg.sender) */\n      0xffffffffffffffffffffffffffffffffffffffff\n      and\n      0xb10197cef009fd301a90b892d25451c22c3701eb18ee2df1250d31e514fff394\n        /* \"NFT-Contracts/contracts/MarketPlace.sol\":3634:3639  trade */\n      dup8\n        /* \"NFT-Contracts/contracts/MarketPlace.sol\":3634:3643  trade.qty */\n      0x0100\n      add\n      calldataload\n        /* \"NFT-Contracts/contracts/MarketPlace.sol\":3596:3656  BuyAsset(trade.seller, trade.tokenId, trade.qty, msg.sender) */\n      mload(0x40)\n      tag_73\n      swap2\n      swap1\n      tag_74\n      jump\t// in\n    tag_73:\n      mload(0x40)\n      dup1\n      swap2\n      sub\n      swap1\n      log4\n        /* \"NFT-Contracts/contracts/MarketPlace.sol\":3674:3678  true */\n      0x01\n        /* \"NFT-Contracts/contracts/MarketPlace.sol\":3667:3678  return true */\n      swap3\n      pop\n      pop\n      pop\n        /* \"NFT-Contracts/contracts/MarketPlace.sol\":3263:3686  function buyAsset(Trade calldata trade) external returns(bool) {\r... */\n      swap2\n      swap1\n      pop\n      jump\t// out\n        /* \"NFT-Contracts/contracts/External/Ownable.sol\":2142:2343  function transferOwnership(address newOwner) public virtual onlyOwner {\r... */\n    tag_47:\n        /* \"NFT-Contracts/contracts/External/Ownable.sol\":1122:1135  _checkOwner() */\n      tag_76\n        /* \"NFT-Contracts/contracts/External/Ownable.sol\":1122:1133  _checkOwner */\n      tag_51\n        /* \"NFT-Contracts/contracts/External/Ownable.sol\":1122:1135  _checkOwner() */\n      jump\t// in\n    tag_76:\n        /* \"NFT-Contracts/contracts/External/Ownable.sol\":2251:2252  0 */\n      0x00\n        /* \"NFT-Contracts/contracts/External/Ownable.sol\":2231:2253  newOwner != address(0) */\n      0xffffffffffffffffffffffffffffffffffffffff\n      and\n        /* \"NFT-Contracts/contracts/External/Ownable.sol\":2231:2239  newOwner */\n      dup2\n        /* \"NFT-Contracts/contracts/External/Ownable.sol\":2231:2253  newOwner != address(0) */\n      0xffffffffffffffffffffffffffffffffffffffff\n      and\n      eq\n      iszero\n        /* \"NFT-Contracts/contracts/External/Ownable.sol\":2223:2296  require(newOwner != address(0), \"Ownable: new owner is the zero address\") */\n      tag_78\n      jumpi\n      mload(0x40)\n      0x08c379a000000000000000000000000000000000000000000000000000000000\n      dup2\n      mstore\n      0x04\n      add\n      tag_79\n      swap1\n      tag_80\n      jump\t// in\n    tag_79:\n      mload(0x40)\n      dup1\n      swap2\n      sub\n      swap1\n      revert\n    tag_78:\n        /* \"NFT-Contracts/contracts/External/Ownable.sol\":2307:2335  _transferOwnership(newOwner) */\n      tag_81\n        /* \"NFT-Contracts/contracts/External/Ownable.sol\":2326:2334  newOwner */\n      dup2\n        /* \"NFT-Contracts/contracts/External/Ownable.sol\":2307:2325  _transferOwnership */\n      tag_54\n        /* \"NFT-Contracts/contracts/External/Ownable.sol\":2307:2335  _transferOwnership(newOwner) */\n      jump\t// in\n    tag_81:\n        /* \"NFT-Contracts/contracts/External/Ownable.sol\":2142:2343  function transferOwnership(address newOwner) public virtual onlyOwner {\r... */\n      pop\n      jump\t// out\n        /* \"NFT-Contracts/contracts/External/Ownable.sol\":1401:1533  function _checkOwner() internal view virtual {\r... */\n    tag_51:\n        /* \"NFT-Contracts/contracts/External/Ownable.sol\":1476:1488  _msgSender() */\n      tag_83\n        /* \"NFT-Contracts/contracts/External/Ownable.sol\":1476:1486  _msgSender */\n      tag_84\n        /* \"NFT-Contracts/contracts/External/Ownable.sol\":1476:1488  _msgSender() */\n      jump\t// in\n    tag_83:\n        /* \"NFT-Contracts/contracts/External/Ownable.sol\":1465:1488  owner() == _msgSender() */\n      0xffffffffffffffffffffffffffffffffffffffff\n      and\n        /* \"NFT-Contracts/contracts/External/Ownable.sol\":1465:1472  owner() */\n      tag_85\n        /* \"NFT-Contracts/contracts/External/Ownable.sol\":1465:1470  owner */\n      tag_20\n        /* \"NFT-Contracts/contracts/External/Ownable.sol\":1465:1472  owner() */\n      jump\t// in\n    tag_85:\n        /* \"NFT-Contracts/contracts/External/Ownable.sol\":1465:1488  owner() == _msgSender() */\n      0xffffffffffffffffffffffffffffffffffffffff\n      and\n      eq\n        /* \"NFT-Contracts/contracts/External/Ownable.sol\":1457:1525  require(owner() == _msgSender(), \"Ownable: caller is not the owner\") */\n      tag_86\n      jumpi\n      mload(0x40)\n      0x08c379a000000000000000000000000000000000000000000000000000000000\n      dup2\n      mstore\n      0x04\n      add\n      tag_87\n      swap1\n      tag_88\n      jump\t// in\n    tag_87:\n      mload(0x40)\n      dup1\n      swap2\n      sub\n      swap1\n      revert\n    tag_86:\n        /* \"NFT-Contracts/contracts/External/Ownable.sol\":1401:1533  function _checkOwner() internal view virtual {\r... */\n      jump\t// out\n        /* \"NFT-Contracts/contracts/External/Ownable.sol\":2503:2694  function _transferOwnership(address newOwner) internal virtual {\r... */\n    tag_54:\n        /* \"NFT-Contracts/contracts/External/Ownable.sol\":2577:2593  address oldOwner */\n      0x00\n        /* \"NFT-Contracts/contracts/External/Ownable.sol\":2596:2602  _owner */\n      dup1\n      0x00\n      swap1\n      sload\n      swap1\n      0x0100\n      exp\n      swap1\n      div\n      0xffffffffffffffffffffffffffffffffffffffff\n      and\n        /* \"NFT-Contracts/contracts/External/Ownable.sol\":2577:2602  address oldOwner = _owner */\n      swap1\n      pop\n        /* \"NFT-Contracts/contracts/External/Ownable.sol\":2622:2630  newOwner */\n      dup2\n        /* \"NFT-Contracts/contracts/External/Ownable.sol\":2613:2619  _owner */\n      0x00\n      dup1\n        /* \"NFT-Contracts/contracts/External/Ownable.sol\":2613:2630  _owner = newOwner */\n      0x0100\n      exp\n      dup2\n      sload\n      dup2\n      0xffffffffffffffffffffffffffffffffffffffff\n      mul\n      not\n      and\n      swap1\n      dup4\n      0xffffffffffffffffffffffffffffffffffffffff\n      and\n      mul\n      or\n      swap1\n      sstore\n      pop\n        /* \"NFT-Contracts/contracts/External/Ownable.sol\":2677:2685  newOwner */\n      dup2\n        /* \"NFT-Contracts/contracts/External/Ownable.sol\":2646:2686  OwnershipTransferred(oldOwner, newOwner) */\n      0xffffffffffffffffffffffffffffffffffffffff\n      and\n        /* \"NFT-Contracts/contracts/External/Ownable.sol\":2667:2675  oldOwner */\n      dup2\n        /* \"NFT-Contracts/contracts/External/Ownable.sol\":2646:2686  OwnershipTransferred(oldOwner, newOwner) */\n      0xffffffffffffffffffffffffffffffffffffffff\n      and\n      0x8be0079c531659141344cd1fd0a4f28419497f9722a3daafe3b4186f6b6457e0\n      mload(0x40)\n      mload(0x40)\n      dup1\n      swap2\n      sub\n      swap1\n      log3\n        /* \"NFT-Contracts/contracts/External/Ownable.sol\":2503:2694  function _transferOwnership(address newOwner) internal virtual {\r... */\n      pop\n      pop\n      jump\t// out\n        /* \"NFT-Contracts/contracts/MarketPlace.sol\":2463:3252  function getFees(BuyType buytype, address _nftAddress, uint _tokenId )internal view returns(Fee memory) {\r... */\n    tag_68:\n        /* \"NFT-Contracts/contracts/MarketPlace.sol\":2555:2565  Fee memory */\n      tag_90\n      tag_91\n      jump\t// in\n    tag_90:\n        /* \"NFT-Contracts/contracts/MarketPlace.sol\":2574:2592  Trade memory trade */\n      tag_93\n      tag_94\n      jump\t// in\n    tag_93:\n        /* \"NFT-Contracts/contracts/MarketPlace.sol\":2618:2634  uint platformFee */\n      0x00\n        /* \"NFT-Contracts/contracts/MarketPlace.sol\":2660:2664  1000 */\n      0x03e8\n        /* \"NFT-Contracts/contracts/MarketPlace.sol\":2642:2647  trade */\n      dup3\n        /* \"NFT-Contracts/contracts/MarketPlace.sol\":2642:2657  trade.unitPrice */\n      0xa0\n      add\n      mload\n        /* \"NFT-Contracts/contracts/MarketPlace.sol\":2638:2640  25 */\n      0x19\n        /* \"NFT-Contracts/contracts/MarketPlace.sol\":2638:2658  25*(trade.unitPrice) */\n      tag_95\n      swap2\n      swap1\n      tag_96\n      jump\t// in\n    tag_95:\n        /* \"NFT-Contracts/contracts/MarketPlace.sol\":2637:2664  (25*(trade.unitPrice))/1000 */\n      tag_97\n      swap2\n      swap1\n      tag_98\n      jump\t// in\n    tag_97:\n        /* \"NFT-Contracts/contracts/MarketPlace.sol\":2618:2664  uint platformFee = (25*(trade.unitPrice))/1000 */\n      swap1\n      pop\n        /* \"NFT-Contracts/contracts/MarketPlace.sol\":2679:2692  uint assetFee */\n      0x00\n        /* \"NFT-Contracts/contracts/MarketPlace.sol\":2695:2700  trade */\n      dup3\n        /* \"NFT-Contracts/contracts/MarketPlace.sol\":2695:2710  trade.unitPrice */\n      0xa0\n      add\n      mload\n        /* \"NFT-Contracts/contracts/MarketPlace.sol\":2679:2711  uint assetFee =(trade.unitPrice) */\n      swap1\n      pop\n        /* \"NFT-Contracts/contracts/MarketPlace.sol\":2726:2741  uint royaltyFee */\n      0x00\n        /* \"NFT-Contracts/contracts/MarketPlace.sol\":2766:2769  100 */\n      0x64\n        /* \"NFT-Contracts/contracts/MarketPlace.sol\":2749:2754  trade */\n      dup5\n        /* \"NFT-Contracts/contracts/MarketPlace.sol\":2749:2764  trade.unitPrice */\n      0xa0\n      add\n      mload\n        /* \"NFT-Contracts/contracts/MarketPlace.sol\":2745:2747  10 */\n      0x0a\n        /* \"NFT-Contracts/contracts/MarketPlace.sol\":2745:2765  10*(trade.unitPrice) */\n      tag_99\n      swap2\n      swap1\n      tag_96\n      jump\t// in\n    tag_99:\n        /* \"NFT-Contracts/contracts/MarketPlace.sol\":2745:2769  10*(trade.unitPrice)/100 */\n      tag_100\n      swap2\n      swap1\n      tag_98\n      jump\t// in\n    tag_100:\n        /* \"NFT-Contracts/contracts/MarketPlace.sol\":2726:2770  uint royaltyFee = (10*(trade.unitPrice)/100) */\n      swap1\n      pop\n        /* \"NFT-Contracts/contracts/MarketPlace.sol\":2785:2795  uint price */\n      0x00\n        /* \"NFT-Contracts/contracts/MarketPlace.sol\":2818:2823  trade */\n      dup5\n        /* \"NFT-Contracts/contracts/MarketPlace.sol\":2818:2827  trade.qty */\n      0x0100\n      add\n      mload\n        /* \"NFT-Contracts/contracts/MarketPlace.sol\":2800:2805  trade */\n      dup6\n        /* \"NFT-Contracts/contracts/MarketPlace.sol\":2800:2815  trade.unitPrice */\n      0xa0\n      add\n      mload\n        /* \"NFT-Contracts/contracts/MarketPlace.sol\":2800:2827  trade.unitPrice * trade.qty */\n      tag_101\n      swap2\n      swap1\n      tag_96\n      jump\t// in\n    tag_101:\n        /* \"NFT-Contracts/contracts/MarketPlace.sol\":2785:2828  uint price =  (trade.unitPrice * trade.qty) */\n      swap1\n      pop\n        /* \"NFT-Contracts/contracts/MarketPlace.sol\":2879:2899  address tokenCreator */\n      0x00\n        /* \"NFT-Contracts/contracts/MarketPlace.sol\":2927:2941  BuyType.ERC721 */\n      0x01\n        /* \"NFT-Contracts/contracts/MarketPlace.sol\":2916:2941  buytype == BuyType.ERC721 */\n      dup1\n      dup2\n      gt\n      iszero\n      tag_102\n      jumpi\n      mstore(0x00, 0x4e487b7100000000000000000000000000000000000000000000000000000000)\n      mstore(0x04, 0x21)\n      revert(0x00, 0x24)\n    tag_102:\n        /* \"NFT-Contracts/contracts/MarketPlace.sol\":2916:2923  buytype */\n      dup11\n        /* \"NFT-Contracts/contracts/MarketPlace.sol\":2916:2941  buytype == BuyType.ERC721 */\n      0x01\n      dup2\n      gt\n      iszero\n      tag_103\n      jumpi\n      mstore(0x00, 0x4e487b7100000000000000000000000000000000000000000000000000000000)\n      mstore(0x04, 0x21)\n      revert(0x00, 0x24)\n    tag_103:\n      eq\n        /* \"NFT-Contracts/contracts/MarketPlace.sol\":2913:3025  if(buytype == BuyType.ERC721) {\r... */\n      iszero\n      tag_104\n      jumpi\n        /* \"NFT-Contracts/contracts/MarketPlace.sol\":2980:2991  _nftAddress */\n      dup9\n        /* \"NFT-Contracts/contracts/MarketPlace.sol\":2972:3003  IERC721(_nftAddress).getCreator */\n      0xffffffffffffffffffffffffffffffffffffffff\n      and\n      0xd48e638a\n        /* \"NFT-Contracts/contracts/MarketPlace.sol\":3004:3012  _tokenId */\n      dup10\n        /* \"NFT-Contracts/contracts/MarketPlace.sol\":2972:3013  IERC721(_nftAddress).getCreator(_tokenId) */\n      mload(0x40)\n      dup3\n      0xffffffff\n      and\n      0xe0\n      shl\n      dup2\n      mstore\n      0x04\n      add\n      tag_105\n      swap2\n      swap1\n      tag_74\n      jump\t// in\n    tag_105:\n      0x20\n      mload(0x40)\n      dup1\n      dup4\n      sub\n      dup2\n      dup7\n      dup1\n      extcodesize\n      iszero\n      dup1\n      iszero\n      tag_106\n      jumpi\n      0x00\n      dup1\n      revert\n    tag_106:\n      pop\n      gas\n      staticcall\n      iszero\n      dup1\n      iszero\n      tag_108\n      jumpi\n      returndatasize\n      0x00\n      dup1\n      returndatacopy\n      revert(0x00, returndatasize)\n    tag_108:\n      pop\n      pop\n      pop\n      pop\n      mload(0x40)\n      returndatasize\n      not(0x1f)\n      0x1f\n      dup3\n      add\n      and\n      dup3\n      add\n      dup1\n      0x40\n      mstore\n      pop\n      dup2\n      add\n      swap1\n      tag_109\n      swap2\n      swap1\n      tag_110\n      jump\t// in\n    tag_109:\n        /* \"NFT-Contracts/contracts/MarketPlace.sol\":2958:3013  tokenCreator= IERC721(_nftAddress).getCreator(_tokenId) */\n      swap1\n      pop\n        /* \"NFT-Contracts/contracts/MarketPlace.sol\":2913:3025  if(buytype == BuyType.ERC721) {\r... */\n    tag_104:\n        /* \"NFT-Contracts/contracts/MarketPlace.sol\":3049:3064  BuyType.ERC1155 */\n      0x00\n        /* \"NFT-Contracts/contracts/MarketPlace.sol\":3038:3064  buytype == BuyType.ERC1155 */\n      0x01\n      dup2\n      gt\n      iszero\n      tag_111\n      jumpi\n      mstore(0x00, 0x4e487b7100000000000000000000000000000000000000000000000000000000)\n      mstore(0x04, 0x21)\n      revert(0x00, 0x24)\n    tag_111:\n        /* \"NFT-Contracts/contracts/MarketPlace.sol\":3038:3045  buytype */\n      dup11\n        /* \"NFT-Contracts/contracts/MarketPlace.sol\":3038:3064  buytype == BuyType.ERC1155 */\n      0x01\n      dup2\n      gt\n      iszero\n      tag_112\n      jumpi\n      mstore(0x00, 0x4e487b7100000000000000000000000000000000000000000000000000000000)\n      mstore(0x04, 0x21)\n      revert(0x00, 0x24)\n    tag_112:\n      eq\n        /* \"NFT-Contracts/contracts/MarketPlace.sol\":3035:3145  if(buytype == BuyType.ERC1155) {\r... */\n      iszero\n      tag_113\n      jumpi\n        /* \"NFT-Contracts/contracts/MarketPlace.sol\":3100:3111  _nftAddress */\n      dup9\n        /* \"NFT-Contracts/contracts/MarketPlace.sol\":3091:3123  IERC1155(_nftAddress).getCreator */\n      0xffffffffffffffffffffffffffffffffffffffff\n      and\n      0xd48e638a\n        /* \"NFT-Contracts/contracts/MarketPlace.sol\":3124:3132  _tokenId */\n      dup10\n        /* \"NFT-Contracts/contracts/MarketPlace.sol\":3091:3133  IERC1155(_nftAddress).getCreator(_tokenId) */\n      mload(0x40)\n      dup3\n      0xffffffff\n      and\n      0xe0\n      shl\n      dup2\n      mstore\n      0x04\n      add\n      tag_114\n      swap2\n      swap1\n      tag_74\n      jump\t// in\n    tag_114:\n      0x20\n      mload(0x40)\n      dup1\n      dup4\n      sub\n      dup2\n      dup7\n      dup1\n      extcodesize\n      iszero\n      dup1\n      iszero\n      tag_115\n      jumpi\n      0x00\n      dup1\n      revert\n    tag_115:\n      pop\n      gas\n      staticcall\n      iszero\n      dup1\n      iszero\n      tag_117\n      jumpi\n      returndatasize\n      0x00\n      dup1\n      returndatacopy\n      revert(0x00, returndatasize)\n    tag_117:\n      pop\n      pop\n      pop\n      pop\n      mload(0x40)\n      returndatasize\n      not(0x1f)\n      0x1f\n      dup3\n      add\n      and\n      dup3\n      add\n      dup1\n      0x40\n      mstore\n      pop\n      dup2\n      add\n      swap1\n      tag_118\n      swap2\n      swap1\n      tag_110\n      jump\t// in\n    tag_118:\n        /* \"NFT-Contracts/contracts/MarketPlace.sol\":3077:3133  tokenCreator= IERC1155(_nftAddress).getCreator(_tokenId) */\n      swap1\n      pop\n        /* \"NFT-Contracts/contracts/MarketPlace.sol\":3035:3145  if(buytype == BuyType.ERC1155) {\r... */\n    tag_113:\n        /* \"NFT-Contracts/contracts/MarketPlace.sol\":3166:3221  Fee(platformFee,assetFee,royaltyFee,price,tokenCreator) */\n      mload(0x40)\n      dup1\n      0xa0\n      add\n      0x40\n      mstore\n      dup1\n        /* \"NFT-Contracts/contracts/MarketPlace.sol\":3170:3181  platformFee */\n      dup7\n        /* \"NFT-Contracts/contracts/MarketPlace.sol\":3166:3221  Fee(platformFee,assetFee,royaltyFee,price,tokenCreator) */\n      dup2\n      mstore\n      0x20\n      add\n        /* \"NFT-Contracts/contracts/MarketPlace.sol\":3182:3190  assetFee */\n      dup6\n        /* \"NFT-Contracts/contracts/MarketPlace.sol\":3166:3221  Fee(platformFee,assetFee,royaltyFee,price,tokenCreator) */\n      dup2\n      mstore\n      0x20\n      add\n        /* \"NFT-Contracts/contracts/MarketPlace.sol\":3191:3201  royaltyFee */\n      dup5\n        /* \"NFT-Contracts/contracts/MarketPlace.sol\":3166:3221  Fee(platformFee,assetFee,royaltyFee,price,tokenCreator) */\n      dup2\n      mstore\n      0x20\n      add\n        /* \"NFT-Contracts/contracts/MarketPlace.sol\":3202:3207  price */\n      dup4\n        /* \"NFT-Contracts/contracts/MarketPlace.sol\":3166:3221  Fee(platformFee,assetFee,royaltyFee,price,tokenCreator) */\n      dup2\n      mstore\n      0x20\n      add\n        /* \"NFT-Contracts/contracts/MarketPlace.sol\":3208:3220  tokenCreator */\n      dup3\n        /* \"NFT-Contracts/contracts/MarketPlace.sol\":3166:3221  Fee(platformFee,assetFee,royaltyFee,price,tokenCreator) */\n      0xffffffffffffffffffffffffffffffffffffffff\n      and\n      dup2\n      mstore\n      pop\n        /* \"NFT-Contracts/contracts/MarketPlace.sol\":3159:3221  return Fee(platformFee,assetFee,royaltyFee,price,tokenCreator) */\n      swap7\n      pop\n      pop\n      pop\n      pop\n      pop\n      pop\n      pop\n        /* \"NFT-Contracts/contracts/MarketPlace.sol\":2463:3252  function getFees(BuyType buytype, address _nftAddress, uint _tokenId )internal view returns(Fee memory) {\r... */\n      swap4\n      swap3\n      pop\n      pop\n      pop\n      jump\t// out\n        /* \"NFT-Contracts/contracts/MarketPlace.sol\":1701:2457  function Sell(Trade calldata trade, Fee memory fee, address buyer, address seller) internal {\r... */\n    tag_71:\n        /* \"NFT-Contracts/contracts/MarketPlace.sol\":1822:1836  BuyType.ERC721 */\n      0x01\n        /* \"NFT-Contracts/contracts/MarketPlace.sol\":1805:1836  trade.nftType == BuyType.ERC721 */\n      dup1\n      dup2\n      gt\n      iszero\n      tag_120\n      jumpi\n      mstore(0x00, 0x4e487b7100000000000000000000000000000000000000000000000000000000)\n      mstore(0x04, 0x21)\n      revert(0x00, 0x24)\n    tag_120:\n        /* \"NFT-Contracts/contracts/MarketPlace.sol\":1805:1810  trade */\n      dup5\n        /* \"NFT-Contracts/contracts/MarketPlace.sol\":1805:1818  trade.nftType */\n      0x80\n      add\n      0x20\n      dup2\n      add\n      swap1\n      tag_121\n      swap2\n      swap1\n      tag_66\n      jump\t// in\n    tag_121:\n        /* \"NFT-Contracts/contracts/MarketPlace.sol\":1805:1836  trade.nftType == BuyType.ERC721 */\n      0x01\n      dup2\n      gt\n      iszero\n      tag_122\n      jumpi\n      mstore(0x00, 0x4e487b7100000000000000000000000000000000000000000000000000000000)\n      mstore(0x04, 0x21)\n      revert(0x00, 0x24)\n    tag_122:\n      eq\n        /* \"NFT-Contracts/contracts/MarketPlace.sol\":1802:1937  if(trade.nftType == BuyType.ERC721) {\r... */\n      iszero\n      tag_123\n      jumpi\n        /* \"NFT-Contracts/contracts/MarketPlace.sol\":1861:1866  trade */\n      dup4\n        /* \"NFT-Contracts/contracts/MarketPlace.sol\":1861:1877  trade.nftAddress */\n      0x60\n      add\n      0x20\n      dup2\n      add\n      swap1\n      tag_124\n      swap2\n      swap1\n      tag_46\n      jump\t// in\n    tag_124:\n        /* \"NFT-Contracts/contracts/MarketPlace.sol\":1853:1895  IERC721(trade.nftAddress).safeTransferFrom */\n      0xffffffffffffffffffffffffffffffffffffffff\n      and\n      0x42842e0e\n        /* \"NFT-Contracts/contracts/MarketPlace.sol\":1896:1902  seller */\n      dup3\n        /* \"NFT-Contracts/contracts/MarketPlace.sol\":1904:1909  buyer */\n      dup5\n        /* \"NFT-Contracts/contracts/MarketPlace.sol\":1911:1916  trade */\n      dup8\n        /* \"NFT-Contracts/contracts/MarketPlace.sol\":1911:1924  trade.tokenId */\n      0xe0\n      add\n      calldataload\n        /* \"NFT-Contracts/contracts/MarketPlace.sol\":1853:1925  IERC721(trade.nftAddress).safeTransferFrom(seller, buyer, trade.tokenId) */\n      mload(0x40)\n      dup5\n      0xffffffff\n      and\n      0xe0\n      shl\n      dup2\n      mstore\n      0x04\n      add\n      tag_125\n      swap4\n      swap3\n      swap2\n      swap1\n      tag_126\n      jump\t// in\n    tag_125:\n      0x00\n      mload(0x40)\n      dup1\n      dup4\n      sub\n      dup2\n      0x00\n      dup8\n      dup1\n      extcodesize\n      iszero\n      dup1\n      iszero\n      tag_127\n      jumpi\n      0x00\n      dup1\n      revert\n    tag_127:\n      pop\n      gas\n      call\n      iszero\n      dup1\n      iszero\n      tag_129\n      jumpi\n      returndatasize\n      0x00\n      dup1\n      returndatacopy\n      revert(0x00, returndatasize)\n    tag_129:\n      pop\n      pop\n      pop\n      pop\n        /* \"NFT-Contracts/contracts/MarketPlace.sol\":1802:1937  if(trade.nftType == BuyType.ERC721) {\r... */\n    tag_123:\n        /* \"NFT-Contracts/contracts/MarketPlace.sol\":1967:1982  BuyType.ERC1155 */\n      0x00\n        /* \"NFT-Contracts/contracts/MarketPlace.sol\":1950:1982  trade.nftType == BuyType.ERC1155 */\n      0x01\n      dup2\n      gt\n      iszero\n      tag_130\n      jumpi\n      mstore(0x00, 0x4e487b7100000000000000000000000000000000000000000000000000000000)\n      mstore(0x04, 0x21)\n      revert(0x00, 0x24)\n    tag_130:\n        /* \"NFT-Contracts/contracts/MarketPlace.sol\":1950:1955  trade */\n      dup5\n        /* \"NFT-Contracts/contracts/MarketPlace.sol\":1950:1963  trade.nftType */\n      0x80\n      add\n      0x20\n      dup2\n      add\n      swap1\n      tag_131\n      swap2\n      swap1\n      tag_66\n      jump\t// in\n    tag_131:\n        /* \"NFT-Contracts/contracts/MarketPlace.sol\":1950:1982  trade.nftType == BuyType.ERC1155 */\n      0x01\n      dup2\n      gt\n      iszero\n      tag_132\n      jumpi\n      mstore(0x00, 0x4e487b7100000000000000000000000000000000000000000000000000000000)\n      mstore(0x04, 0x21)\n      revert(0x00, 0x24)\n    tag_132:\n      eq\n        /* \"NFT-Contracts/contracts/MarketPlace.sol\":1947:2100  if(trade.nftType == BuyType.ERC1155)  {\r... */\n      iszero\n      tag_133\n      jumpi\n        /* \"NFT-Contracts/contracts/MarketPlace.sol\":2009:2014  trade */\n      dup4\n        /* \"NFT-Contracts/contracts/MarketPlace.sol\":2009:2025  trade.nftAddress */\n      0x60\n      add\n      0x20\n      dup2\n      add\n      swap1\n      tag_134\n      swap2\n      swap1\n      tag_46\n      jump\t// in\n    tag_134:\n        /* \"NFT-Contracts/contracts/MarketPlace.sol\":2000:2043  IERC1155(trade.nftAddress).safeTransferFrom */\n      0xffffffffffffffffffffffffffffffffffffffff\n      and\n      0xf242432a\n        /* \"NFT-Contracts/contracts/MarketPlace.sol\":2044:2050  seller */\n      dup3\n        /* \"NFT-Contracts/contracts/MarketPlace.sol\":2052:2057  buyer */\n      dup5\n        /* \"NFT-Contracts/contracts/MarketPlace.sol\":2059:2064  trade */\n      dup8\n        /* \"NFT-Contracts/contracts/MarketPlace.sol\":2059:2072  trade.tokenId */\n      0xe0\n      add\n      calldataload\n        /* \"NFT-Contracts/contracts/MarketPlace.sol\":2074:2079  trade */\n      dup9\n        /* \"NFT-Contracts/contracts/MarketPlace.sol\":2074:2083  trade.qty */\n      0x0100\n      add\n      calldataload\n        /* \"NFT-Contracts/contracts/MarketPlace.sol\":2000:2088  IERC1155(trade.nftAddress).safeTransferFrom(seller, buyer, trade.tokenId, trade.qty, \"\") */\n      mload(0x40)\n      dup6\n      0xffffffff\n      and\n      0xe0\n      shl\n      dup2\n      mstore\n      0x04\n      add\n      tag_135\n      swap5\n      swap4\n      swap3\n      swap2\n      swap1\n      tag_136\n      jump\t// in\n    tag_135:\n      0x00\n      mload(0x40)\n      dup1\n      dup4\n      sub\n      dup2\n      0x00\n      dup8\n      dup1\n      extcodesize\n      iszero\n      dup1\n      iszero\n      tag_137\n      jumpi\n      0x00\n      dup1\n      revert\n    tag_137:\n      pop\n      gas\n      call\n      iszero\n      dup1\n      iszero\n      tag_139\n      jumpi\n      returndatasize\n      0x00\n      dup1\n      returndatacopy\n      revert(0x00, returndatasize)\n    tag_139:\n      pop\n      pop\n      pop\n      pop\n        /* \"NFT-Contracts/contracts/MarketPlace.sol\":1947:2100  if(trade.nftType == BuyType.ERC1155)  {\r... */\n    tag_133:\n        /* \"NFT-Contracts/contracts/MarketPlace.sol\":2131:2132  0 */\n      0x00\n        /* \"NFT-Contracts/contracts/MarketPlace.sol\":2113:2116  fee */\n      dup4\n        /* \"NFT-Contracts/contracts/MarketPlace.sol\":2113:2128  fee.platformFee */\n      0x00\n      add\n      mload\n        /* \"NFT-Contracts/contracts/MarketPlace.sol\":2113:2132  fee.platformFee > 0 */\n      gt\n        /* \"NFT-Contracts/contracts/MarketPlace.sol\":2110:2231  if(fee.platformFee > 0) {\r... */\n      iszero\n      tag_140\n      jumpi\n        /* \"NFT-Contracts/contracts/MarketPlace.sol\":2156:2161  trade */\n      dup4\n        /* \"NFT-Contracts/contracts/MarketPlace.sol\":2156:2174  trade.erc20Address */\n      0x40\n      add\n      0x20\n      dup2\n      add\n      swap1\n      tag_141\n      swap2\n      swap1\n      tag_46\n      jump\t// in\n    tag_141:\n        /* \"NFT-Contracts/contracts/MarketPlace.sol\":2149:2188  IERC20(trade.erc20Address).transferFrom */\n      0xffffffffffffffffffffffffffffffffffffffff\n      and\n      0x23b872dd\n        /* \"NFT-Contracts/contracts/MarketPlace.sol\":2189:2194  buyer */\n      dup4\n        /* \"NFT-Contracts/contracts/MarketPlace.sol\":2196:2201  Owner */\n      0x01\n      0x00\n      swap1\n      sload\n      swap1\n      0x0100\n      exp\n      swap1\n      div\n      0xffffffffffffffffffffffffffffffffffffffff\n      and\n        /* \"NFT-Contracts/contracts/MarketPlace.sol\":2203:2206  fee */\n      dup7\n        /* \"NFT-Contracts/contracts/MarketPlace.sol\":2203:2218  fee.platformFee */\n      0x00\n      add\n      mload\n        /* \"NFT-Contracts/contracts/MarketPlace.sol\":2149:2219  IERC20(trade.erc20Address).transferFrom(buyer, Owner, fee.platformFee) */\n      mload(0x40)\n      dup5\n      0xffffffff\n      and\n      0xe0\n      shl\n      dup2\n      mstore\n      0x04\n      add\n      tag_142\n      swap4\n      swap3\n      swap2\n      swap1\n      tag_126\n      jump\t// in\n    tag_142:\n      0x20\n      mload(0x40)\n      dup1\n      dup4\n      sub\n      dup2\n      0x00\n      dup8\n      dup1\n      extcodesize\n      iszero\n      dup1\n      iszero\n      tag_143\n      jumpi\n      0x00\n      dup1\n      revert\n    tag_143:\n      pop\n      gas\n      call\n      iszero\n      dup1\n      iszero\n      tag_145\n      jumpi\n      returndatasize\n      0x00\n      dup1\n      returndatacopy\n      revert(0x00, returndatasize)\n    tag_145:\n      pop\n      pop\n      pop\n      pop\n      mload(0x40)\n      returndatasize\n      not(0x1f)\n      0x1f\n      dup3\n      add\n      and\n      dup3\n      add\n      dup1\n      0x40\n      mstore\n      pop\n      dup2\n      add\n      swap1\n      tag_146\n      swap2\n      swap1\n      tag_147\n      jump\t// in\n    tag_146:\n      pop\n        /* \"NFT-Contracts/contracts/MarketPlace.sol\":2110:2231  if(fee.platformFee > 0) {\r... */\n    tag_140:\n        /* \"NFT-Contracts/contracts/MarketPlace.sol\":2261:2262  0 */\n      0x00\n        /* \"NFT-Contracts/contracts/MarketPlace.sol\":2244:2247  fee */\n      dup4\n        /* \"NFT-Contracts/contracts/MarketPlace.sol\":2244:2258  fee.royaltyFee */\n      0x40\n      add\n      mload\n        /* \"NFT-Contracts/contracts/MarketPlace.sol\":2244:2262  fee.royaltyFee > 0 */\n      gt\n        /* \"NFT-Contracts/contracts/MarketPlace.sol\":2241:2371  if(fee.royaltyFee > 0) {\r... */\n      iszero\n      tag_148\n      jumpi\n        /* \"NFT-Contracts/contracts/MarketPlace.sol\":2286:2291  trade */\n      dup4\n        /* \"NFT-Contracts/contracts/MarketPlace.sol\":2286:2304  trade.erc20Address */\n      0x40\n      add\n      0x20\n      dup2\n      add\n      swap1\n      tag_149\n      swap2\n      swap1\n      tag_46\n      jump\t// in\n    tag_149:\n        /* \"NFT-Contracts/contracts/MarketPlace.sol\":2279:2318  IERC20(trade.erc20Address).transferFrom */\n      0xffffffffffffffffffffffffffffffffffffffff\n      and\n      0x23b872dd\n        /* \"NFT-Contracts/contracts/MarketPlace.sol\":2319:2324  buyer */\n      dup4\n        /* \"NFT-Contracts/contracts/MarketPlace.sol\":2326:2329  fee */\n      dup6\n        /* \"NFT-Contracts/contracts/MarketPlace.sol\":2326:2342  fee.tokenCreator */\n      0x80\n      add\n      mload\n        /* \"NFT-Contracts/contracts/MarketPlace.sol\":2344:2347  fee */\n      dup7\n        /* \"NFT-Contracts/contracts/MarketPlace.sol\":2344:2358  fee.royaltyFee */\n      0x40\n      add\n      mload\n        /* \"NFT-Contracts/contracts/MarketPlace.sol\":2279:2359  IERC20(trade.erc20Address).transferFrom(buyer, fee.tokenCreator, fee.royaltyFee) */\n      mload(0x40)\n      dup5\n      0xffffffff\n      and\n      0xe0\n      shl\n      dup2\n      mstore\n      0x04\n      add\n      tag_150\n      swap4\n      swap3\n      swap2\n      swap1\n      tag_126\n      jump\t// in\n    tag_150:\n      0x20\n      mload(0x40)\n      dup1\n      dup4\n      sub\n      dup2\n      0x00\n      dup8\n      dup1\n      extcodesize\n      iszero\n      dup1\n      iszero\n      tag_151\n      jumpi\n      0x00\n      dup1\n      revert\n    tag_151:\n      pop\n      gas\n      call\n      iszero\n      dup1\n      iszero\n      tag_153\n      jumpi\n      returndatasize\n      0x00\n      dup1\n      returndatacopy\n      revert(0x00, returndatasize)\n    tag_153:\n      pop\n      pop\n      pop\n      pop\n      mload(0x40)\n      returndatasize\n      not(0x1f)\n      0x1f\n      dup3\n      add\n      and\n      dup3\n      add\n      dup1\n      0x40\n      mstore\n      pop\n      dup2\n      add\n      swap1\n      tag_154\n      swap2\n      swap1\n      tag_147\n      jump\t// in\n    tag_154:\n      pop\n        /* \"NFT-Contracts/contracts/MarketPlace.sol\":2241:2371  if(fee.royaltyFee > 0) {\r... */\n    tag_148:\n        /* \"NFT-Contracts/contracts/MarketPlace.sol\":2388:2393  trade */\n      dup4\n        /* \"NFT-Contracts/contracts/MarketPlace.sol\":2388:2406  trade.erc20Address */\n      0x40\n      add\n      0x20\n      dup2\n      add\n      swap1\n      tag_155\n      swap2\n      swap1\n      tag_46\n      jump\t// in\n    tag_155:\n        /* \"NFT-Contracts/contracts/MarketPlace.sol\":2381:2420  IERC20(trade.erc20Address).transferFrom */\n      0xffffffffffffffffffffffffffffffffffffffff\n      and\n      0x23b872dd\n        /* \"NFT-Contracts/contracts/MarketPlace.sol\":2421:2426  buyer */\n      dup4\n        /* \"NFT-Contracts/contracts/MarketPlace.sol\":2428:2434  seller */\n      dup4\n        /* \"NFT-Contracts/contracts/MarketPlace.sol\":2436:2439  fee */\n      dup7\n        /* \"NFT-Contracts/contracts/MarketPlace.sol\":2436:2448  fee.assetFee */\n      0x20\n      add\n      mload\n        /* \"NFT-Contracts/contracts/MarketPlace.sol\":2381:2449  IERC20(trade.erc20Address).transferFrom(buyer, seller, fee.assetFee) */\n      mload(0x40)\n      dup5\n      0xffffffff\n      and\n      0xe0\n      shl\n      dup2\n      mstore\n      0x04\n      add\n      tag_156\n      swap4\n      swap3\n      swap2\n      swap1\n      tag_126\n      jump\t// in\n    tag_156:\n      0x20\n      mload(0x40)\n      dup1\n      dup4\n      sub\n      dup2\n      0x00\n      dup8\n      dup1\n      extcodesize\n      iszero\n      dup1\n      iszero\n      tag_157\n      jumpi\n      0x00\n      dup1\n      revert\n    tag_157:\n      pop\n      gas\n      call\n      iszero\n      dup1\n      iszero\n      tag_159\n      jumpi\n      returndatasize\n      0x00\n      dup1\n      returndatacopy\n      revert(0x00, returndatasize)\n    tag_159:\n      pop\n      pop\n      pop\n      pop\n      mload(0x40)\n      returndatasize\n      not(0x1f)\n      0x1f\n      dup3\n      add\n      and\n      dup3\n      add\n      dup1\n      0x40\n      mstore\n      pop\n      dup2\n      add\n      swap1\n      tag_160\n      swap2\n      swap1\n      tag_147\n      jump\t// in\n    tag_160:\n      pop\n        /* \"NFT-Contracts/contracts/MarketPlace.sol\":1701:2457  function Sell(Trade calldata trade, Fee memory fee, address buyer, address seller) internal {\r... */\n      pop\n      pop\n      pop\n      pop\n      jump\t// out\n        /* \"NFT-Contracts/contracts/External/Context.sol\":145:260  function _msgSender() internal view virtual returns (address payable) {\r... */\n    tag_84:\n        /* \"NFT-Contracts/contracts/External/Context.sol\":198:213  address payable */\n      0x00\n        /* \"NFT-Contracts/contracts/External/Context.sol\":241:251  msg.sender */\n      caller\n        /* \"NFT-Contracts/contracts/External/Context.sol\":226:252  return payable(msg.sender) */\n      swap1\n      pop\n        /* \"NFT-Contracts/contracts/External/Context.sol\":145:260  function _msgSender() internal view virtual returns (address payable) {\r... */\n      swap1\n      jump\t// out\n    tag_91:\n      mload(0x40)\n      dup1\n      0xa0\n      add\n      0x40\n      mstore\n      dup1\n      0x00\n      dup2\n      mstore\n      0x20\n      add\n      0x00\n      dup2\n      mstore\n      0x20\n      add\n      0x00\n      dup2\n      mstore\n      0x20\n      add\n      0x00\n      dup2\n      mstore\n      0x20\n      add\n      and(0xffffffffffffffffffffffffffffffffffffffff, 0x00)\n      dup2\n      mstore\n      pop\n      swap1\n      jump\t// out\n    tag_94:\n      mload(0x40)\n      dup1\n      0x0120\n      add\n      0x40\n      mstore\n      dup1\n      and(0xffffffffffffffffffffffffffffffffffffffff, 0x00)\n      dup2\n      mstore\n      0x20\n      add\n      and(0xffffffffffffffffffffffffffffffffffffffff, 0x00)\n      dup2\n      mstore\n      0x20\n      add\n      and(0xffffffffffffffffffffffffffffffffffffffff, 0x00)\n      dup2\n      mstore\n      0x20\n      add\n      and(0xffffffffffffffffffffffffffffffffffffffff, 0x00)\n      dup2\n      mstore\n      0x20\n      add\n      0x00\n      0x01\n      dup2\n      gt\n      iszero\n      tag_162\n      jumpi\n      mstore(0x00, 0x4e487b7100000000000000000000000000000000000000000000000000000000)\n      mstore(0x04, 0x21)\n      revert(0x00, 0x24)\n    tag_162:\n      dup2\n      mstore\n      0x20\n      add\n      0x00\n      dup2\n      mstore\n      0x20\n      add\n      0x00\n      dup2\n      mstore\n      0x20\n      add\n      0x00\n      dup2\n      mstore\n      0x20\n      add\n      0x00\n      dup2\n      mstore\n      pop\n      swap1\n      jump\t// out\n        /* \"#utility.yul\":7:146   */\n    tag_164:\n        /* \"#utility.yul\":53:58   */\n      0x00\n        /* \"#utility.yul\":91:97   */\n      dup2\n        /* \"#utility.yul\":78:98   */\n      calldataload\n        /* \"#utility.yul\":69:98   */\n      swap1\n      pop\n        /* \"#utility.yul\":107:140   */\n      tag_166\n        /* \"#utility.yul\":134:139   */\n      dup2\n        /* \"#utility.yul\":107:140   */\n      tag_167\n      jump\t// in\n    tag_166:\n        /* \"#utility.yul\":59:146   */\n      swap3\n      swap2\n      pop\n      pop\n      jump\t// out\n        /* \"#utility.yul\":152:295   */\n    tag_168:\n        /* \"#utility.yul\":209:214   */\n      0x00\n        /* \"#utility.yul\":240:246   */\n      dup2\n        /* \"#utility.yul\":234:247   */\n      mload\n        /* \"#utility.yul\":225:247   */\n      swap1\n      pop\n        /* \"#utility.yul\":256:289   */\n      tag_170\n        /* \"#utility.yul\":283:288   */\n      dup2\n        /* \"#utility.yul\":256:289   */\n      tag_167\n      jump\t// in\n    tag_170:\n        /* \"#utility.yul\":215:295   */\n      swap3\n      swap2\n      pop\n      pop\n      jump\t// out\n        /* \"#utility.yul\":301:438   */\n    tag_171:\n        /* \"#utility.yul\":355:360   */\n      0x00\n        /* \"#utility.yul\":386:392   */\n      dup2\n        /* \"#utility.yul\":380:393   */\n      mload\n        /* \"#utility.yul\":371:393   */\n      swap1\n      pop\n        /* \"#utility.yul\":402:432   */\n      tag_173\n        /* \"#utility.yul\":426:431   */\n      dup2\n        /* \"#utility.yul\":402:432   */\n      tag_174\n      jump\t// in\n    tag_173:\n        /* \"#utility.yul\":361:438   */\n      swap3\n      swap2\n      pop\n      pop\n      jump\t// out\n        /* \"#utility.yul\":444:605   */\n    tag_175:\n        /* \"#utility.yul\":501:506   */\n      0x00\n        /* \"#utility.yul\":539:545   */\n      dup2\n        /* \"#utility.yul\":526:546   */\n      calldataload\n        /* \"#utility.yul\":517:546   */\n      swap1\n      pop\n        /* \"#utility.yul\":555:599   */\n      tag_177\n        /* \"#utility.yul\":593:598   */\n      dup2\n        /* \"#utility.yul\":555:599   */\n      tag_178\n      jump\t// in\n    tag_177:\n        /* \"#utility.yul\":507:605   */\n      swap3\n      swap2\n      pop\n      pop\n      jump\t// out\n        /* \"#utility.yul\":643:805   */\n    tag_179:\n        /* \"#utility.yul\":713:718   */\n      0x00\n        /* \"#utility.yul\":754:757   */\n      0x0120\n        /* \"#utility.yul\":745:751   */\n      dup3\n        /* \"#utility.yul\":740:743   */\n      dup5\n        /* \"#utility.yul\":736:752   */\n      sub\n        /* \"#utility.yul\":732:758   */\n      slt\n        /* \"#utility.yul\":729:731   */\n      iszero\n      tag_181\n      jumpi\n        /* \"#utility.yul\":771:772   */\n      0x00\n        /* \"#utility.yul\":768:769   */\n      dup1\n        /* \"#utility.yul\":761:773   */\n      revert\n        /* \"#utility.yul\":729:731   */\n    tag_181:\n        /* \"#utility.yul\":793:799   */\n      dup2\n        /* \"#utility.yul\":784:799   */\n      swap1\n      pop\n        /* \"#utility.yul\":719:805   */\n      swap3\n      swap2\n      pop\n      pop\n      jump\t// out\n        /* \"#utility.yul\":811:946   */\n    tag_182:\n        /* \"#utility.yul\":855:860   */\n      0x00\n        /* \"#utility.yul\":893:899   */\n      dup2\n        /* \"#utility.yul\":880:900   */\n      calldataload\n        /* \"#utility.yul\":871:900   */\n      swap1\n      pop\n        /* \"#utility.yul\":909:940   */\n      tag_184\n        /* \"#utility.yul\":934:939   */\n      dup2\n        /* \"#utility.yul\":909:940   */\n      tag_185\n      jump\t// in\n    tag_184:\n        /* \"#utility.yul\":861:946   */\n      swap3\n      swap2\n      pop\n      pop\n      jump\t// out\n        /* \"#utility.yul\":952:1214   */\n    tag_46:\n        /* \"#utility.yul\":1011:1017   */\n      0x00\n        /* \"#utility.yul\":1060:1062   */\n      0x20\n        /* \"#utility.yul\":1048:1057   */\n      dup3\n        /* \"#utility.yul\":1039:1046   */\n      dup5\n        /* \"#utility.yul\":1035:1058   */\n      sub\n        /* \"#utility.yul\":1031:1063   */\n      slt\n        /* \"#utility.yul\":1028:1030   */\n      iszero\n      tag_187\n      jumpi\n        /* \"#utility.yul\":1076:1077   */\n      0x00\n        /* \"#utility.yul\":1073:1074   */\n      dup1\n        /* \"#utility.yul\":1066:1078   */\n      revert\n        /* \"#utility.yul\":1028:1030   */\n    tag_187:\n        /* \"#utility.yul\":1119:1120   */\n      0x00\n        /* \"#utility.yul\":1144:1197   */\n      tag_188\n        /* \"#utility.yul\":1189:1196   */\n      dup5\n        /* \"#utility.yul\":1180:1186   */\n      dup3\n        /* \"#utility.yul\":1169:1178   */\n      dup6\n        /* \"#utility.yul\":1165:1187   */\n      add\n        /* \"#utility.yul\":1144:1197   */\n      tag_164\n      jump\t// in\n    tag_188:\n        /* \"#utility.yul\":1134:1197   */\n      swap2\n      pop\n        /* \"#utility.yul\":1090:1207   */\n      pop\n        /* \"#utility.yul\":1018:1214   */\n      swap3\n      swap2\n      pop\n      pop\n      jump\t// out\n        /* \"#utility.yul\":1220:1504   */\n    tag_110:\n        /* \"#utility.yul\":1290:1296   */\n      0x00\n        /* \"#utility.yul\":1339:1341   */\n      0x20\n        /* \"#utility.yul\":1327:1336   */\n      dup3\n        /* \"#utility.yul\":1318:1325   */\n      dup5\n        /* \"#utility.yul\":1314:1337   */\n      sub\n        /* \"#utility.yul\":1310:1342   */\n      slt\n        /* \"#utility.yul\":1307:1309   */\n      iszero\n      tag_190\n      jumpi\n        /* \"#utility.yul\":1355:1356   */\n      0x00\n        /* \"#utility.yul\":1352:1353   */\n      dup1\n        /* \"#utility.yul\":1345:1357   */\n      revert\n        /* \"#utility.yul\":1307:1309   */\n    tag_190:\n        /* \"#utility.yul\":1398:1399   */\n      0x00\n        /* \"#utility.yul\":1423:1487   */\n      tag_191\n        /* \"#utility.yul\":1479:1486   */\n      dup5\n        /* \"#utility.yul\":1470:1476   */\n      dup3\n        /* \"#utility.yul\":1459:1468   */\n      dup6\n        /* \"#utility.yul\":1455:1477   */\n      add\n        /* \"#utility.yul\":1423:1487   */\n      tag_168\n      jump\t// in\n    tag_191:\n        /* \"#utility.yul\":1413:1487   */\n      swap2\n      pop\n        /* \"#utility.yul\":1369:1497   */\n      pop\n        /* \"#utility.yul\":1297:1504   */\n      swap3\n      swap2\n      pop\n      pop\n      jump\t// out\n        /* \"#utility.yul\":1510:1788   */\n    tag_147:\n        /* \"#utility.yul\":1577:1583   */\n      0x00\n        /* \"#utility.yul\":1626:1628   */\n      0x20\n        /* \"#utility.yul\":1614:1623   */\n      dup3\n        /* \"#utility.yul\":1605:1612   */\n      dup5\n        /* \"#utility.yul\":1601:1624   */\n      sub\n        /* \"#utility.yul\":1597:1629   */\n      slt\n        /* \"#utility.yul\":1594:1596   */\n      iszero\n      tag_193\n      jumpi\n        /* \"#utility.yul\":1642:1643   */\n      0x00\n        /* \"#utility.yul\":1639:1640   */\n      dup1\n        /* \"#utility.yul\":1632:1644   */\n      revert\n        /* \"#utility.yul\":1594:1596   */\n    tag_193:\n        /* \"#utility.yul\":1685:1686   */\n      0x00\n        /* \"#utility.yul\":1710:1771   */\n      tag_194\n        /* \"#utility.yul\":1763:1770   */\n      dup5\n        /* \"#utility.yul\":1754:1760   */\n      dup3\n        /* \"#utility.yul\":1743:1752   */\n      dup6\n        /* \"#utility.yul\":1739:1761   */\n      add\n        /* \"#utility.yul\":1710:1771   */\n      tag_171\n      jump\t// in\n    tag_194:\n        /* \"#utility.yul\":1700:1771   */\n      swap2\n      pop\n        /* \"#utility.yul\":1656:1781   */\n      pop\n        /* \"#utility.yul\":1584:1788   */\n      swap3\n      swap2\n      pop\n      pop\n      jump\t// out\n        /* \"#utility.yul\":1794:2078   */\n    tag_66:\n        /* \"#utility.yul\":1864:1870   */\n      0x00\n        /* \"#utility.yul\":1913:1915   */\n      0x20\n        /* \"#utility.yul\":1901:1910   */\n      dup3\n        /* \"#utility.yul\":1892:1899   */\n      dup5\n        /* \"#utility.yul\":1888:1911   */\n      sub\n        /* \"#utility.yul\":1884:1916   */\n      slt\n        /* \"#utility.yul\":1881:1883   */\n      iszero\n      tag_196\n      jumpi\n        /* \"#utility.yul\":1929:1930   */\n      0x00\n        /* \"#utility.yul\":1926:1927   */\n      dup1\n        /* \"#utility.yul\":1919:1931   */\n      revert\n        /* \"#utility.yul\":1881:1883   */\n    tag_196:\n        /* \"#utility.yul\":1972:1973   */\n      0x00\n        /* \"#utility.yul\":1997:2061   */\n      tag_197\n        /* \"#utility.yul\":2053:2060   */\n      dup5\n        /* \"#utility.yul\":2044:2050   */\n      dup3\n        /* \"#utility.yul\":2033:2042   */\n      dup6\n        /* \"#utility.yul\":2029:2051   */\n      add\n        /* \"#utility.yul\":1997:2061   */\n      tag_175\n      jump\t// in\n    tag_197:\n        /* \"#utility.yul\":1987:2061   */\n      swap2\n      pop\n        /* \"#utility.yul\":1943:2071   */\n      pop\n        /* \"#utility.yul\":1871:2078   */\n      swap3\n      swap2\n      pop\n      pop\n      jump\t// out\n        /* \"#utility.yul\":2084:2395   */\n    tag_41:\n        /* \"#utility.yul\":2167:2173   */\n      0x00\n        /* \"#utility.yul\":2216:2219   */\n      0x0120\n        /* \"#utility.yul\":2204:2213   */\n      dup3\n        /* \"#utility.yul\":2195:2202   */\n      dup5\n        /* \"#utility.yul\":2191:2214   */\n      sub\n        /* \"#utility.yul\":2187:2220   */\n      slt\n        /* \"#utility.yul\":2184:2186   */\n      iszero\n      tag_199\n      jumpi\n        /* \"#utility.yul\":2233:2234   */\n      0x00\n        /* \"#utility.yul\":2230:2231   */\n      dup1\n        /* \"#utility.yul\":2223:2235   */\n      revert\n        /* \"#utility.yul\":2184:2186   */\n    tag_199:\n        /* \"#utility.yul\":2276:2277   */\n      0x00\n        /* \"#utility.yul\":2301:2378   */\n      tag_200\n        /* \"#utility.yul\":2370:2377   */\n      dup5\n        /* \"#utility.yul\":2361:2367   */\n      dup3\n        /* \"#utility.yul\":2350:2359   */\n      dup6\n        /* \"#utility.yul\":2346:2368   */\n      add\n        /* \"#utility.yul\":2301:2378   */\n      tag_179\n      jump\t// in\n    tag_200:\n        /* \"#utility.yul\":2291:2378   */\n      swap2\n      pop\n        /* \"#utility.yul\":2247:2388   */\n      pop\n        /* \"#utility.yul\":2174:2395   */\n      swap3\n      swap2\n      pop\n      pop\n      jump\t// out\n        /* \"#utility.yul\":2401:2659   */\n    tag_28:\n        /* \"#utility.yul\":2458:2464   */\n      0x00\n        /* \"#utility.yul\":2507:2509   */\n      0x20\n        /* \"#utility.yul\":2495:2504   */\n      dup3\n        /* \"#utility.yul\":2486:2493   */\n      dup5\n        /* \"#utility.yul\":2482:2505   */\n      sub\n        /* \"#utility.yul\":2478:2510   */\n      slt\n        /* \"#utility.yul\":2475:2477   */\n      iszero\n      tag_202\n      jumpi\n        /* \"#utility.yul\":2523:2524   */\n      0x00\n        /* \"#utility.yul\":2520:2521   */\n      dup1\n        /* \"#utility.yul\":2513:2525   */\n      revert\n        /* \"#utility.yul\":2475:2477   */\n    tag_202:\n        /* \"#utility.yul\":2566:2567   */\n      0x00\n        /* \"#utility.yul\":2591:2642   */\n      tag_203\n        /* \"#utility.yul\":2634:2641   */\n      dup5\n        /* \"#utility.yul\":2625:2631   */\n      dup3\n        /* \"#utility.yul\":2614:2623   */\n      dup6\n        /* \"#utility.yul\":2610:2632   */\n      add\n        /* \"#utility.yul\":2591:2642   */\n      tag_182\n      jump\t// in\n    tag_203:\n        /* \"#utility.yul\":2581:2642   */\n      swap2\n      pop\n        /* \"#utility.yul\":2537:2652   */\n      pop\n        /* \"#utility.yul\":2465:2659   */\n      swap3\n      swap2\n      pop\n      pop\n      jump\t// out\n        /* \"#utility.yul\":2665:2783   */\n    tag_204:\n        /* \"#utility.yul\":2752:2776   */\n      tag_206\n        /* \"#utility.yul\":2770:2775   */\n      dup2\n        /* \"#utility.yul\":2752:2776   */\n      tag_207\n      jump\t// in\n    tag_206:\n        /* \"#utility.yul\":2747:2750   */\n      dup3\n        /* \"#utility.yul\":2740:2777   */\n      mstore\n        /* \"#utility.yul\":2730:2783   */\n      pop\n      pop\n      jump\t// out\n        /* \"#utility.yul\":2789:2898   */\n    tag_208:\n        /* \"#utility.yul\":2870:2891   */\n      tag_210\n        /* \"#utility.yul\":2885:2890   */\n      dup2\n        /* \"#utility.yul\":2870:2891   */\n      tag_211\n      jump\t// in\n    tag_210:\n        /* \"#utility.yul\":2865:2868   */\n      dup3\n        /* \"#utility.yul\":2858:2892   */\n      mstore\n        /* \"#utility.yul\":2848:2898   */\n      pop\n      pop\n      jump\t// out\n        /* \"#utility.yul\":2904:3270   */\n    tag_212:\n        /* \"#utility.yul\":3046:3049   */\n      0x00\n        /* \"#utility.yul\":3067:3134   */\n      tag_214\n        /* \"#utility.yul\":3131:3133   */\n      0x26\n        /* \"#utility.yul\":3126:3129   */\n      dup4\n        /* \"#utility.yul\":3067:3134   */\n      tag_215\n      jump\t// in\n    tag_214:\n        /* \"#utility.yul\":3060:3134   */\n      swap2\n      pop\n        /* \"#utility.yul\":3143:3236   */\n      tag_216\n        /* \"#utility.yul\":3232:3235   */\n      dup3\n        /* \"#utility.yul\":3143:3236   */\n      tag_217\n      jump\t// in\n    tag_216:\n        /* \"#utility.yul\":3261:3263   */\n      0x40\n        /* \"#utility.yul\":3256:3259   */\n      dup3\n        /* \"#utility.yul\":3252:3264   */\n      add\n        /* \"#utility.yul\":3245:3264   */\n      swap1\n      pop\n        /* \"#utility.yul\":3050:3270   */\n      swap2\n      swap1\n      pop\n      jump\t// out\n        /* \"#utility.yul\":3276:3642   */\n    tag_218:\n        /* \"#utility.yul\":3418:3421   */\n      0x00\n        /* \"#utility.yul\":3439:3506   */\n      tag_220\n        /* \"#utility.yul\":3503:3505   */\n      0x20\n        /* \"#utility.yul\":3498:3501   */\n      dup4\n        /* \"#utility.yul\":3439:3506   */\n      tag_215\n      jump\t// in\n    tag_220:\n        /* \"#utility.yul\":3432:3506   */\n      swap2\n      pop\n        /* \"#utility.yul\":3515:3608   */\n      tag_221\n        /* \"#utility.yul\":3604:3607   */\n      dup3\n        /* \"#utility.yul\":3515:3608   */\n      tag_222\n      jump\t// in\n    tag_221:\n        /* \"#utility.yul\":3633:3635   */\n      0x20\n        /* \"#utility.yul\":3628:3631   */\n      dup3\n        /* \"#utility.yul\":3624:3636   */\n      add\n        /* \"#utility.yul\":3617:3636   */\n      swap1\n      pop\n        /* \"#utility.yul\":3422:3642   */\n      swap2\n      swap1\n      pop\n      jump\t// out\n        /* \"#utility.yul\":3648:4010   */\n    tag_223:\n        /* \"#utility.yul\":3789:3792   */\n      0x00\n        /* \"#utility.yul\":3810:3875   */\n      tag_225\n        /* \"#utility.yul\":3873:3874   */\n      0x00\n        /* \"#utility.yul\":3868:3871   */\n      dup4\n        /* \"#utility.yul\":3810:3875   */\n      tag_226\n      jump\t// in\n    tag_225:\n        /* \"#utility.yul\":3803:3875   */\n      swap2\n      pop\n        /* \"#utility.yul\":3884:3977   */\n      tag_227\n        /* \"#utility.yul\":3973:3976   */\n      dup3\n        /* \"#utility.yul\":3884:3977   */\n      tag_228\n      jump\t// in\n    tag_227:\n        /* \"#utility.yul\":4002:4003   */\n      0x00\n        /* \"#utility.yul\":3997:4000   */\n      dup3\n        /* \"#utility.yul\":3993:4004   */\n      add\n        /* \"#utility.yul\":3986:4004   */\n      swap1\n      pop\n        /* \"#utility.yul\":3793:4010   */\n      swap2\n      swap1\n      pop\n      jump\t// out\n        /* \"#utility.yul\":4016:4134   */\n    tag_229:\n        /* \"#utility.yul\":4103:4127   */\n      tag_231\n        /* \"#utility.yul\":4121:4126   */\n      dup2\n        /* \"#utility.yul\":4103:4127   */\n      tag_232\n      jump\t// in\n    tag_231:\n        /* \"#utility.yul\":4098:4101   */\n      dup3\n        /* \"#utility.yul\":4091:4128   */\n      mstore\n        /* \"#utility.yul\":4081:4134   */\n      pop\n      pop\n      jump\t// out\n        /* \"#utility.yul\":4140:4252   */\n    tag_233:\n        /* \"#utility.yul\":4223:4245   */\n      tag_235\n        /* \"#utility.yul\":4239:4244   */\n      dup2\n        /* \"#utility.yul\":4223:4245   */\n      tag_236\n      jump\t// in\n    tag_235:\n        /* \"#utility.yul\":4218:4221   */\n      dup3\n        /* \"#utility.yul\":4211:4246   */\n      mstore\n        /* \"#utility.yul\":4201:4252   */\n      pop\n      pop\n      jump\t// out\n        /* \"#utility.yul\":4258:4480   */\n    tag_22:\n        /* \"#utility.yul\":4351:4355   */\n      0x00\n        /* \"#utility.yul\":4389:4391   */\n      0x20\n        /* \"#utility.yul\":4378:4387   */\n      dup3\n        /* \"#utility.yul\":4374:4392   */\n      add\n        /* \"#utility.yul\":4366:4392   */\n      swap1\n      pop\n        /* \"#utility.yul\":4402:4473   */\n      tag_238\n        /* \"#utility.yul\":4470:4471   */\n      0x00\n        /* \"#utility.yul\":4459:4468   */\n      dup4\n        /* \"#utility.yul\":4455:4472   */\n      add\n        /* \"#utility.yul\":4446:4452   */\n      dup5\n        /* \"#utility.yul\":4402:4473   */\n      tag_204\n      jump\t// in\n    tag_238:\n        /* \"#utility.yul\":4356:4480   */\n      swap3\n      swap2\n      pop\n      pop\n      jump\t// out\n        /* \"#utility.yul\":4486:4928   */\n    tag_126:\n        /* \"#utility.yul\":4635:4639   */\n      0x00\n        /* \"#utility.yul\":4673:4675   */\n      0x60\n        /* \"#utility.yul\":4662:4671   */\n      dup3\n        /* \"#utility.yul\":4658:4676   */\n      add\n        /* \"#utility.yul\":4650:4676   */\n      swap1\n      pop\n        /* \"#utility.yul\":4686:4757   */\n      tag_240\n        /* \"#utility.yul\":4754:4755   */\n      0x00\n        /* \"#utility.yul\":4743:4752   */\n      dup4\n        /* \"#utility.yul\":4739:4756   */\n      add\n        /* \"#utility.yul\":4730:4736   */\n      dup7\n        /* \"#utility.yul\":4686:4757   */\n      tag_204\n      jump\t// in\n    tag_240:\n        /* \"#utility.yul\":4767:4839   */\n      tag_241\n        /* \"#utility.yul\":4835:4837   */\n      0x20\n        /* \"#utility.yul\":4824:4833   */\n      dup4\n        /* \"#utility.yul\":4820:4838   */\n      add\n        /* \"#utility.yul\":4811:4817   */\n      dup6\n        /* \"#utility.yul\":4767:4839   */\n      tag_204\n      jump\t// in\n    tag_241:\n        /* \"#utility.yul\":4849:4921   */\n      tag_242\n        /* \"#utility.yul\":4917:4919   */\n      0x40\n        /* \"#utility.yul\":4906:4915   */\n      dup4\n        /* \"#utility.yul\":4902:4920   */\n      add\n        /* \"#utility.yul\":4893:4899   */\n      dup5\n        /* \"#utility.yul\":4849:4921   */\n      tag_229\n      jump\t// in\n    tag_242:\n        /* \"#utility.yul\":4640:4928   */\n      swap5\n      swap4\n      pop\n      pop\n      pop\n      pop\n      jump\t// out\n        /* \"#utility.yul\":4934:5793   */\n    tag_136:\n        /* \"#utility.yul\":5211:5215   */\n      0x00\n        /* \"#utility.yul\":5249:5252   */\n      0xa0\n        /* \"#utility.yul\":5238:5247   */\n      dup3\n        /* \"#utility.yul\":5234:5253   */\n      add\n        /* \"#utility.yul\":5226:5253   */\n      swap1\n      pop\n        /* \"#utility.yul\":5263:5334   */\n      tag_244\n        /* \"#utility.yul\":5331:5332   */\n      0x00\n        /* \"#utility.yul\":5320:5329   */\n      dup4\n        /* \"#utility.yul\":5316:5333   */\n      add\n        /* \"#utility.yul\":5307:5313   */\n      dup8\n        /* \"#utility.yul\":5263:5334   */\n      tag_204\n      jump\t// in\n    tag_244:\n        /* \"#utility.yul\":5344:5416   */\n      tag_245\n        /* \"#utility.yul\":5412:5414   */\n      0x20\n        /* \"#utility.yul\":5401:5410   */\n      dup4\n        /* \"#utility.yul\":5397:5415   */\n      add\n        /* \"#utility.yul\":5388:5394   */\n      dup7\n        /* \"#utility.yul\":5344:5416   */\n      tag_204\n      jump\t// in\n    tag_245:\n        /* \"#utility.yul\":5426:5498   */\n      tag_246\n        /* \"#utility.yul\":5494:5496   */\n      0x40\n        /* \"#utility.yul\":5483:5492   */\n      dup4\n        /* \"#utility.yul\":5479:5497   */\n      add\n        /* \"#utility.yul\":5470:5476   */\n      dup6\n        /* \"#utility.yul\":5426:5498   */\n      tag_229\n      jump\t// in\n    tag_246:\n        /* \"#utility.yul\":5508:5580   */\n      tag_247\n        /* \"#utility.yul\":5576:5578   */\n      0x60\n        /* \"#utility.yul\":5565:5574   */\n      dup4\n        /* \"#utility.yul\":5561:5579   */\n      add\n        /* \"#utility.yul\":5552:5558   */\n      dup5\n        /* \"#utility.yul\":5508:5580   */\n      tag_229\n      jump\t// in\n    tag_247:\n        /* \"#utility.yul\":5628:5637   */\n      dup2\n        /* \"#utility.yul\":5622:5626   */\n      dup2\n        /* \"#utility.yul\":5618:5638   */\n      sub\n        /* \"#utility.yul\":5612:5615   */\n      0x80\n        /* \"#utility.yul\":5601:5610   */\n      dup4\n        /* \"#utility.yul\":5597:5616   */\n      add\n        /* \"#utility.yul\":5590:5639   */\n      mstore\n        /* \"#utility.yul\":5656:5786   */\n      tag_248\n        /* \"#utility.yul\":5781:5785   */\n      dup2\n        /* \"#utility.yul\":5656:5786   */\n      tag_223\n      jump\t// in\n    tag_248:\n        /* \"#utility.yul\":5648:5786   */\n      swap1\n      pop\n        /* \"#utility.yul\":5216:5793   */\n      swap6\n      swap5\n      pop\n      pop\n      pop\n      pop\n      pop\n      jump\t// out\n        /* \"#utility.yul\":5799:6009   */\n    tag_31:\n        /* \"#utility.yul\":5886:5890   */\n      0x00\n        /* \"#utility.yul\":5924:5926   */\n      0x20\n        /* \"#utility.yul\":5913:5922   */\n      dup3\n        /* \"#utility.yul\":5909:5927   */\n      add\n        /* \"#utility.yul\":5901:5927   */\n      swap1\n      pop\n        /* \"#utility.yul\":5937:6002   */\n      tag_250\n        /* \"#utility.yul\":5999:6000   */\n      0x00\n        /* \"#utility.yul\":5988:5997   */\n      dup4\n        /* \"#utility.yul\":5984:6001   */\n      add\n        /* \"#utility.yul\":5975:5981   */\n      dup5\n        /* \"#utility.yul\":5937:6002   */\n      tag_208\n      jump\t// in\n    tag_250:\n        /* \"#utility.yul\":5891:6009   */\n      swap3\n      swap2\n      pop\n      pop\n      jump\t// out\n        /* \"#utility.yul\":6015:6434   */\n    tag_80:\n        /* \"#utility.yul\":6181:6185   */\n      0x00\n        /* \"#utility.yul\":6219:6221   */\n      0x20\n        /* \"#utility.yul\":6208:6217   */\n      dup3\n        /* \"#utility.yul\":6204:6222   */\n      add\n        /* \"#utility.yul\":6196:6222   */\n      swap1\n      pop\n        /* \"#utility.yul\":6268:6277   */\n      dup2\n        /* \"#utility.yul\":6262:6266   */\n      dup2\n        /* \"#utility.yul\":6258:6278   */\n      sub\n        /* \"#utility.yul\":6254:6255   */\n      0x00\n        /* \"#utility.yul\":6243:6252   */\n      dup4\n        /* \"#utility.yul\":6239:6256   */\n      add\n        /* \"#utility.yul\":6232:6279   */\n      mstore\n        /* \"#utility.yul\":6296:6427   */\n      tag_252\n        /* \"#utility.yul\":6422:6426   */\n      dup2\n        /* \"#utility.yul\":6296:6427   */\n      tag_212\n      jump\t// in\n    tag_252:\n        /* \"#utility.yul\":6288:6427   */\n      swap1\n      pop\n        /* \"#utility.yul\":6186:6434   */\n      swap2\n      swap1\n      pop\n      jump\t// out\n        /* \"#utility.yul\":6440:6859   */\n    tag_88:\n        /* \"#utility.yul\":6606:6610   */\n      0x00\n        /* \"#utility.yul\":6644:6646   */\n      0x20\n        /* \"#utility.yul\":6633:6642   */\n      dup3\n        /* \"#utility.yul\":6629:6647   */\n      add\n        /* \"#utility.yul\":6621:6647   */\n      swap1\n      pop\n        /* \"#utility.yul\":6693:6702   */\n      dup2\n        /* \"#utility.yul\":6687:6691   */\n      dup2\n        /* \"#utility.yul\":6683:6703   */\n      sub\n        /* \"#utility.yul\":6679:6680   */\n      0x00\n        /* \"#utility.yul\":6668:6677   */\n      dup4\n        /* \"#utility.yul\":6664:6681   */\n      add\n        /* \"#utility.yul\":6657:6704   */\n      mstore\n        /* \"#utility.yul\":6721:6852   */\n      tag_254\n        /* \"#utility.yul\":6847:6851   */\n      dup2\n        /* \"#utility.yul\":6721:6852   */\n      tag_218\n      jump\t// in\n    tag_254:\n        /* \"#utility.yul\":6713:6852   */\n      swap1\n      pop\n        /* \"#utility.yul\":6611:6859   */\n      swap2\n      swap1\n      pop\n      jump\t// out\n        /* \"#utility.yul\":6865:7087   */\n    tag_74:\n        /* \"#utility.yul\":6958:6962   */\n      0x00\n        /* \"#utility.yul\":6996:6998   */\n      0x20\n        /* \"#utility.yul\":6985:6994   */\n      dup3\n        /* \"#utility.yul\":6981:6999   */\n      add\n        /* \"#utility.yul\":6973:6999   */\n      swap1\n      pop\n        /* \"#utility.yul\":7009:7080   */\n      tag_256\n        /* \"#utility.yul\":7077:7078   */\n      0x00\n        /* \"#utility.yul\":7066:7075   */\n      dup4\n        /* \"#utility.yul\":7062:7079   */\n      add\n        /* \"#utility.yul\":7053:7059   */\n      dup5\n        /* \"#utility.yul\":7009:7080   */\n      tag_229\n      jump\t// in\n    tag_256:\n        /* \"#utility.yul\":6963:7087   */\n      swap3\n      swap2\n      pop\n      pop\n      jump\t// out\n        /* \"#utility.yul\":7093:7307   */\n    tag_16:\n        /* \"#utility.yul\":7182:7186   */\n      0x00\n        /* \"#utility.yul\":7220:7222   */\n      0x20\n        /* \"#utility.yul\":7209:7218   */\n      dup3\n        /* \"#utility.yul\":7205:7223   */\n      add\n        /* \"#utility.yul\":7197:7223   */\n      swap1\n      pop\n        /* \"#utility.yul\":7233:7300   */\n      tag_258\n        /* \"#utility.yul\":7297:7298   */\n      0x00\n        /* \"#utility.yul\":7286:7295   */\n      dup4\n        /* \"#utility.yul\":7282:7299   */\n      add\n        /* \"#utility.yul\":7273:7279   */\n      dup5\n        /* \"#utility.yul\":7233:7300   */\n      tag_233\n      jump\t// in\n    tag_258:\n        /* \"#utility.yul\":7187:7307   */\n      swap3\n      swap2\n      pop\n      pop\n      jump\t// out\n        /* \"#utility.yul\":7313:7481   */\n    tag_226:\n        /* \"#utility.yul\":7396:7407   */\n      0x00\n        /* \"#utility.yul\":7430:7436   */\n      dup3\n        /* \"#utility.yul\":7425:7428   */\n      dup3\n        /* \"#utility.yul\":7418:7437   */\n      mstore\n        /* \"#utility.yul\":7470:7474   */\n      0x20\n        /* \"#utility.yul\":7465:7468   */\n      dup3\n        /* \"#utility.yul\":7461:7475   */\n      add\n        /* \"#utility.yul\":7446:7475   */\n      swap1\n      pop\n        /* \"#utility.yul\":7408:7481   */\n      swap3\n      swap2\n      pop\n      pop\n      jump\t// out\n        /* \"#utility.yul\":7487:7656   */\n    tag_215:\n        /* \"#utility.yul\":7571:7582   */\n      0x00\n        /* \"#utility.yul\":7605:7611   */\n      dup3\n        /* \"#utility.yul\":7600:7603   */\n      dup3\n        /* \"#utility.yul\":7593:7612   */\n      mstore\n        /* \"#utility.yul\":7645:7649   */\n      0x20\n        /* \"#utility.yul\":7640:7643   */\n      dup3\n        /* \"#utility.yul\":7636:7650   */\n      add\n        /* \"#utility.yul\":7621:7650   */\n      swap1\n      pop\n        /* \"#utility.yul\":7583:7656   */\n      swap3\n      swap2\n      pop\n      pop\n      jump\t// out\n        /* \"#utility.yul\":7662:7847   */\n    tag_98:\n        /* \"#utility.yul\":7702:7703   */\n      0x00\n        /* \"#utility.yul\":7719:7739   */\n      tag_262\n        /* \"#utility.yul\":7737:7738   */\n      dup3\n        /* \"#utility.yul\":7719:7739   */\n      tag_232\n      jump\t// in\n    tag_262:\n        /* \"#utility.yul\":7714:7739   */\n      swap2\n      pop\n        /* \"#utility.yul\":7753:7773   */\n      tag_263\n        /* \"#utility.yul\":7771:7772   */\n      dup4\n        /* \"#utility.yul\":7753:7773   */\n      tag_232\n      jump\t// in\n    tag_263:\n        /* \"#utility.yul\":7748:7773   */\n      swap3\n      pop\n        /* \"#utility.yul\":7792:7793   */\n      dup3\n        /* \"#utility.yul\":7782:7784   */\n      tag_264\n      jumpi\n        /* \"#utility.yul\":7797:7815   */\n      tag_265\n      tag_266\n      jump\t// in\n    tag_265:\n        /* \"#utility.yul\":7782:7784   */\n    tag_264:\n        /* \"#utility.yul\":7839:7840   */\n      dup3\n        /* \"#utility.yul\":7836:7837   */\n      dup3\n        /* \"#utility.yul\":7832:7841   */\n      div\n        /* \"#utility.yul\":7827:7841   */\n      swap1\n      pop\n        /* \"#utility.yul\":7704:7847   */\n      swap3\n      swap2\n      pop\n      pop\n      jump\t// out\n        /* \"#utility.yul\":7853:8201   */\n    tag_96:\n        /* \"#utility.yul\":7893:7900   */\n      0x00\n        /* \"#utility.yul\":7916:7936   */\n      tag_268\n        /* \"#utility.yul\":7934:7935   */\n      dup3\n        /* \"#utility.yul\":7916:7936   */\n      tag_232\n      jump\t// in\n    tag_268:\n        /* \"#utility.yul\":7911:7936   */\n      swap2\n      pop\n        /* \"#utility.yul\":7950:7970   */\n      tag_269\n        /* \"#utility.yul\":7968:7969   */\n      dup4\n        /* \"#utility.yul\":7950:7970   */\n      tag_232\n      jump\t// in\n    tag_269:\n        /* \"#utility.yul\":7945:7970   */\n      swap3\n      pop\n        /* \"#utility.yul\":8138:8139   */\n      dup2\n        /* \"#utility.yul\":8070:8136   */\n      0xffffffffffffffffffffffffffffffffffffffffffffffffffffffffffffffff\n        /* \"#utility.yul\":8066:8140   */\n      div\n        /* \"#utility.yul\":8063:8064   */\n      dup4\n        /* \"#utility.yul\":8060:8141   */\n      gt\n        /* \"#utility.yul\":8055:8056   */\n      dup3\n        /* \"#utility.yul\":8048:8057   */\n      iszero\n        /* \"#utility.yul\":8041:8058   */\n      iszero\n        /* \"#utility.yul\":8037:8142   */\n      and\n        /* \"#utility.yul\":8034:8036   */\n      iszero\n      tag_270\n      jumpi\n        /* \"#utility.yul\":8145:8163   */\n      tag_271\n      tag_272\n      jump\t// in\n    tag_271:\n        /* \"#utility.yul\":8034:8036   */\n    tag_270:\n        /* \"#utility.yul\":8193:8194   */\n      dup3\n        /* \"#utility.yul\":8190:8191   */\n      dup3\n        /* \"#utility.yul\":8186:8195   */\n      mul\n        /* \"#utility.yul\":8175:8195   */\n      swap1\n      pop\n        /* \"#utility.yul\":7901:8201   */\n      swap3\n      swap2\n      pop\n      pop\n      jump\t// out\n        /* \"#utility.yul\":8207:8303   */\n    tag_207:\n        /* \"#utility.yul\":8244:8251   */\n      0x00\n        /* \"#utility.yul\":8273:8297   */\n      tag_274\n        /* \"#utility.yul\":8291:8296   */\n      dup3\n        /* \"#utility.yul\":8273:8297   */\n      tag_275\n      jump\t// in\n    tag_274:\n        /* \"#utility.yul\":8262:8297   */\n      swap1\n      pop\n        /* \"#utility.yul\":8252:8303   */\n      swap2\n      swap1\n      pop\n      jump\t// out\n        /* \"#utility.yul\":8309:8399   */\n    tag_211:\n        /* \"#utility.yul\":8343:8350   */\n      0x00\n        /* \"#utility.yul\":8386:8391   */\n      dup2\n        /* \"#utility.yul\":8379:8392   */\n      iszero\n        /* \"#utility.yul\":8372:8393   */\n      iszero\n        /* \"#utility.yul\":8361:8393   */\n      swap1\n      pop\n        /* \"#utility.yul\":8351:8399   */\n      swap2\n      swap1\n      pop\n      jump\t// out\n        /* \"#utility.yul\":8405:8531   */\n    tag_275:\n        /* \"#utility.yul\":8442:8449   */\n      0x00\n        /* \"#utility.yul\":8482:8524   */\n      0xffffffffffffffffffffffffffffffffffffffff\n        /* \"#utility.yul\":8475:8480   */\n      dup3\n        /* \"#utility.yul\":8471:8525   */\n      and\n        /* \"#utility.yul\":8460:8525   */\n      swap1\n      pop\n        /* \"#utility.yul\":8450:8531   */\n      swap2\n      swap1\n      pop\n      jump\t// out\n        /* \"#utility.yul\":8537:8614   */\n    tag_232:\n        /* \"#utility.yul\":8574:8581   */\n      0x00\n        /* \"#utility.yul\":8603:8608   */\n      dup2\n        /* \"#utility.yul\":8592:8608   */\n      swap1\n      pop\n        /* \"#utility.yul\":8582:8614   */\n      swap2\n      swap1\n      pop\n      jump\t// out\n        /* \"#utility.yul\":8620:8706   */\n    tag_236:\n        /* \"#utility.yul\":8655:8662   */\n      0x00\n        /* \"#utility.yul\":8695:8699   */\n      0xff\n        /* \"#utility.yul\":8688:8693   */\n      dup3\n        /* \"#utility.yul\":8684:8700   */\n      and\n        /* \"#utility.yul\":8673:8700   */\n      swap1\n      pop\n        /* \"#utility.yul\":8663:8706   */\n      swap2\n      swap1\n      pop\n      jump\t// out\n        /* \"#utility.yul\":8712:8892   */\n    tag_272:\n        /* \"#utility.yul\":8760:8837   */\n      0x4e487b7100000000000000000000000000000000000000000000000000000000\n        /* \"#utility.yul\":8757:8758   */\n      0x00\n        /* \"#utility.yul\":8750:8838   */\n      mstore\n        /* \"#utility.yul\":8857:8861   */\n      0x11\n        /* \"#utility.yul\":8854:8855   */\n      0x04\n        /* \"#utility.yul\":8847:8862   */\n      mstore\n        /* \"#utility.yul\":8881:8885   */\n      0x24\n        /* \"#utility.yul\":8878:8879   */\n      0x00\n        /* \"#utility.yul\":8871:8886   */\n      revert\n        /* \"#utility.yul\":8898:9078   */\n    tag_266:\n        /* \"#utility.yul\":8946:9023   */\n      0x4e487b7100000000000000000000000000000000000000000000000000000000\n        /* \"#utility.yul\":8943:8944   */\n      0x00\n        /* \"#utility.yul\":8936:9024   */\n      mstore\n        /* \"#utility.yul\":9043:9047   */\n      0x12\n        /* \"#utility.yul\":9040:9041   */\n      0x04\n        /* \"#utility.yul\":9033:9048   */\n      mstore\n        /* \"#utility.yul\":9067:9071   */\n      0x24\n        /* \"#utility.yul\":9064:9065   */\n      0x00\n        /* \"#utility.yul\":9057:9072   */\n      revert\n        /* \"#utility.yul\":9084:9309   */\n    tag_217:\n        /* \"#utility.yul\":9224:9258   */\n      0x4f776e61626c653a206e6577206f776e657220697320746865207a65726f2061\n        /* \"#utility.yul\":9220:9221   */\n      0x00\n        /* \"#utility.yul\":9212:9218   */\n      dup3\n        /* \"#utility.yul\":9208:9222   */\n      add\n        /* \"#utility.yul\":9201:9259   */\n      mstore\n        /* \"#utility.yul\":9293:9301   */\n      0x6464726573730000000000000000000000000000000000000000000000000000\n        /* \"#utility.yul\":9288:9290   */\n      0x20\n        /* \"#utility.yul\":9280:9286   */\n      dup3\n        /* \"#utility.yul\":9276:9291   */\n      add\n        /* \"#utility.yul\":9269:9302   */\n      mstore\n        /* \"#utility.yul\":9190:9309   */\n      pop\n      jump\t// out\n        /* \"#utility.yul\":9315:9497   */\n    tag_222:\n        /* \"#utility.yul\":9455:9489   */\n      0x4f776e61626c653a2063616c6c6572206973206e6f7420746865206f776e6572\n        /* \"#utility.yul\":9451:9452   */\n      0x00\n        /* \"#utility.yul\":9443:9449   */\n      dup3\n        /* \"#utility.yul\":9439:9453   */\n      add\n        /* \"#utility.yul\":9432:9490   */\n      mstore\n        /* \"#utility.yul\":9421:9497   */\n      pop\n      jump\t// out\n        /* \"#utility.yul\":9503:9617   */\n    tag_228:\n        /* \"#utility.yul\":9609:9617   */\n      pop\n      jump\t// out\n        /* \"#utility.yul\":9623:9745   */\n    tag_167:\n        /* \"#utility.yul\":9696:9720   */\n      tag_286\n        /* \"#utility.yul\":9714:9719   */\n      dup2\n        /* \"#utility.yul\":9696:9720   */\n      tag_207\n      jump\t// in\n    tag_286:\n        /* \"#utility.yul\":9689:9694   */\n      dup2\n        /* \"#utility.yul\":9686:9721   */\n      eq\n        /* \"#utility.yul\":9676:9678   */\n      tag_287\n      jumpi\n        /* \"#utility.yul\":9735:9736   */\n      0x00\n        /* \"#utility.yul\":9732:9733   */\n      dup1\n        /* \"#utility.yul\":9725:9737   */\n      revert\n        /* \"#utility.yul\":9676:9678   */\n    tag_287:\n        /* \"#utility.yul\":9666:9745   */\n      pop\n      jump\t// out\n        /* \"#utility.yul\":9751:9867   */\n    tag_174:\n        /* \"#utility.yul\":9821:9842   */\n      tag_289\n        /* \"#utility.yul\":9836:9841   */\n      dup2\n        /* \"#utility.yul\":9821:9842   */\n      tag_211\n      jump\t// in\n    tag_289:\n        /* \"#utility.yul\":9814:9819   */\n      dup2\n        /* \"#utility.yul\":9811:9843   */\n      eq\n        /* \"#utility.yul\":9801:9803   */\n      tag_290\n      jumpi\n        /* \"#utility.yul\":9857:9858   */\n      0x00\n        /* \"#utility.yul\":9854:9855   */\n      dup1\n        /* \"#utility.yul\":9847:9859   */\n      revert\n        /* \"#utility.yul\":9801:9803   */\n    tag_290:\n        /* \"#utility.yul\":9791:9867   */\n      pop\n      jump\t// out\n        /* \"#utility.yul\":9873:9983   */\n    tag_178:\n        /* \"#utility.yul\":9957:9958   */\n      0x02\n        /* \"#utility.yul\":9950:9955   */\n      dup2\n        /* \"#utility.yul\":9947:9959   */\n      lt\n        /* \"#utility.yul\":9937:9939   */\n      tag_292\n      jumpi\n        /* \"#utility.yul\":9973:9974   */\n      0x00\n        /* \"#utility.yul\":9970:9971   */\n      dup1\n        /* \"#utility.yul\":9963:9975   */\n      revert\n        /* \"#utility.yul\":9937:9939   */\n    tag_292:\n        /* \"#utility.yul\":9927:9983   */\n      pop\n      jump\t// out\n        /* \"#utility.yul\":9989:10107   */\n    tag_185:\n        /* \"#utility.yul\":10060:10082   */\n      tag_294\n        /* \"#utility.yul\":10076:10081   */\n      dup2\n        /* \"#utility.yul\":10060:10082   */\n      tag_236\n      jump\t// in\n    tag_294:\n        /* \"#utility.yul\":10053:10058   */\n      dup2\n        /* \"#utility.yul\":10050:10083   */\n      eq\n        /* \"#utility.yul\":10040:10042   */\n      tag_295\n      jumpi\n        /* \"#utility.yul\":10097:10098   */\n      0x00\n        /* \"#utility.yul\":10094:10095   */\n      dup1\n        /* \"#utility.yul\":10087:10099   */\n      revert\n        /* \"#utility.yul\":10040:10042   */\n    tag_295:\n        /* \"#utility.yul\":10030:10107   */\n      pop\n      jump\t// out\n\n    auxdata: 0xa2646970667358221220516979eb60b0abb61c9db2166a1cfe82022c1c37b9f8b205586f2a01d432997964736f6c63430008040033\n}\n",
				"bytecode": {
					"linkReferences": {},
					"object": "60806040523480156200001157600080fd5b506040516200156738038062001567833981810160405281019062000037919062000178565b620000576200004b6200009560201b60201c565b6200009d60201b60201c565b81600060146101000a81548160ff021916908360ff16021790555080600060156101000a81548160ff021916908360ff1602179055505050620001e0565b600033905090565b60008060009054906101000a900473ffffffffffffffffffffffffffffffffffffffff169050816000806101000a81548173ffffffffffffffffffffffffffffffffffffffff021916908373ffffffffffffffffffffffffffffffffffffffff1602179055508173ffffffffffffffffffffffffffffffffffffffff168173ffffffffffffffffffffffffffffffffffffffff167f8be0079c531659141344cd1fd0a4f28419497f9722a3daafe3b4186f6b6457e060405160405180910390a35050565b6000815190506200017281620001c6565b92915050565b600080604083850312156200018c57600080fd5b60006200019c8582860162000161565b9250506020620001af8582860162000161565b9150509250929050565b600060ff82169050919050565b620001d181620001b9565b8114620001dd57600080fd5b50565b61137780620001f06000396000f3fe608060405234801561001057600080fd5b50600436106100935760003560e01c8063a3667c7b11610066578063a3667c7b146100fc578063a96b446d1461012c578063b4a99a4e1461015c578063db90a1771461017a578063f2fde38b146101aa57610093565b806360085da614610098578063715018a6146100b65780638da5cb5b146100c05780639c66809d146100de575b600080fd5b6100a06101c6565b6040516100ad91906110f6565b60405180910390f35b6100be6101dc565b005b6100c86101f0565b6040516100d59190610fd6565b60405180910390f35b6100e6610219565b6040516100f391906110f6565b60405180910390f35b61011660048036038101906101119190610f08565b61022f565b6040516101239190611080565b60405180910390f35b61014660048036038101906101419190610f08565b61025d565b6040516101539190611080565b60405180910390f35b61016461028b565b6040516101719190610fd6565b60405180910390f35b610194600480360381019061018f9190610ede565b6102b1565b6040516101a19190611080565b60405180910390f35b6101c460048036038101906101bf9190610e3a565b610398565b005b60008060159054906101000a900460ff16905090565b6101e461041c565b6101ee600061049a565b565b60008060009054906101000a900473ffffffffffffffffffffffffffffffffffffffff16905090565b60008060149054906101000a900460ff16905090565b600061023961041c565b81600060156101000a81548160ff021916908360ff16021790555060019050919050565b600061026761041c565b81600060146101000a81548160ff021916908360ff16021790555060019050919050565b600160009054906101000a900473ffffffffffffffffffffffffffffffffffffffff1681565b6000806102e78360800160208101906102ca9190610eb5565b8460600160208101906102dd9190610e3a565b8560e0013561055e565b9050600033905061030c8483838760000160208101906103079190610e3a565b61082a565b3373ffffffffffffffffffffffffffffffffffffffff168460e0013585600001602081019061033b9190610e3a565b73ffffffffffffffffffffffffffffffffffffffff167fb10197cef009fd301a90b892d25451c22c3701eb18ee2df1250d31e514fff39487610100013560405161038591906110db565b60405180910390a4600192505050919050565b6103a061041c565b600073ffffffffffffffffffffffffffffffffffffffff168173ffffffffffffffffffffffffffffffffffffffff161415610410576040517f08c379a00000000000000000000000000000000000000000000000000000000081526004016104079061109b565b60405180910390fd5b6104198161049a565b50565b610424610c8c565b73ffffffffffffffffffffffffffffffffffffffff166104426101f0565b73ffffffffffffffffffffffffffffffffffffffff1614610498576040517f08c379a000000000000000000000000000000000000000000000000000000000815260040161048f906110bb565b60405180910390fd5b565b60008060009054906101000a900473ffffffffffffffffffffffffffffffffffffffff169050816000806101000a81548173ffffffffffffffffffffffffffffffffffffffff021916908373ffffffffffffffffffffffffffffffffffffffff1602179055508173ffffffffffffffffffffffffffffffffffffffff168173ffffffffffffffffffffffffffffffffffffffff167f8be0079c531659141344cd1fd0a4f28419497f9722a3daafe3b4186f6b6457e060405160405180910390a35050565b610566610c94565b61056e610cd9565b60006103e88260a0015160196105849190611164565b61058e9190611133565b905060008260a001519050600060648460a00151600a6105ae9190611164565b6105b89190611133565b905060008461010001518560a001516105d19190611164565b9050600060018081111561060e577f4e487b7100000000000000000000000000000000000000000000000000000000600052602160045260246000fd5b8a6001811115610647577f4e487b7100000000000000000000000000000000000000000000000000000000600052602160045260246000fd5b14156106d9578873ffffffffffffffffffffffffffffffffffffffff1663d48e638a896040518263ffffffff1660e01b815260040161068691906110db565b60206040518083038186803b15801561069e57600080fd5b505afa1580156106b2573d6000803e3d6000fd5b505050506040513d601f19601f820116820180604052508101906106d69190610e63565b90505b60006001811115610713577f4e487b7100000000000000000000000000000000000000000000000000000000600052602160045260246000fd5b8a600181111561074c577f4e487b7100000000000000000000000000000000000000000000000000000000600052602160045260246000fd5b14156107de578873ffffffffffffffffffffffffffffffffffffffff1663d48e638a896040518263ffffffff1660e01b815260040161078b91906110db565b60206040518083038186803b1580156107a357600080fd5b505afa1580156107b7573d6000803e3d6000fd5b505050506040513d601f19601f820116820180604052508101906107db9190610e63565b90505b6040518060a001604052808681526020018581526020018481526020018381526020018273ffffffffffffffffffffffffffffffffffffffff1681525096505050505050509392505050565b600180811115610863577f4e487b7100000000000000000000000000000000000000000000000000000000600052602160045260246000fd5b8460800160208101906108769190610eb5565b60018111156108ae577f4e487b7100000000000000000000000000000000000000000000000000000000600052602160045260246000fd5b141561093a578360600160208101906108c79190610e3a565b73ffffffffffffffffffffffffffffffffffffffff166342842e0e82848760e001356040518463ffffffff1660e01b815260040161090793929190610ff1565b600060405180830381600087803b15801561092157600080fd5b505af1158015610935573d6000803e3d6000fd5b505050505b60006001811115610974577f4e487b7100000000000000000000000000000000000000000000000000000000600052602160045260246000fd5b8460800160208101906109879190610eb5565b60018111156109bf577f4e487b7100000000000000000000000000000000000000000000000000000000600052602160045260246000fd5b1415610a52578360600160208101906109d89190610e3a565b73ffffffffffffffffffffffffffffffffffffffff1663f242432a82848760e001358861010001356040518563ffffffff1660e01b8152600401610a1f9493929190611028565b600060405180830381600087803b158015610a3957600080fd5b505af1158015610a4d573d6000803e3d6000fd5b505050505b600083600001511115610b2857836040016020810190610a729190610e3a565b73ffffffffffffffffffffffffffffffffffffffff166323b872dd83600160009054906101000a900473ffffffffffffffffffffffffffffffffffffffff1686600001516040518463ffffffff1660e01b8152600401610ad493929190610ff1565b602060405180830381600087803b158015610aee57600080fd5b505af1158015610b02573d6000803e3d6000fd5b505050506040513d601f19601f82011682018060405250810190610b269190610e8c565b505b600083604001511115610be057836040016020810190610b489190610e3a565b73ffffffffffffffffffffffffffffffffffffffff166323b872dd83856080015186604001516040518463ffffffff1660e01b8152600401610b8c93929190610ff1565b602060405180830381600087803b158015610ba657600080fd5b505af1158015610bba573d6000803e3d6000fd5b505050506040513d601f19601f82011682018060405250810190610bde9190610e8c565b505b836040016020810190610bf39190610e3a565b73ffffffffffffffffffffffffffffffffffffffff166323b872dd838386602001516040518463ffffffff1660e01b8152600401610c3393929190610ff1565b602060405180830381600087803b158015610c4d57600080fd5b505af1158015610c61573d6000803e3d6000fd5b505050506040513d601f19601f82011682018060405250810190610c859190610e8c565b5050505050565b600033905090565b6040518060a0016040528060008152602001600081526020016000815260200160008152602001600073ffffffffffffffffffffffffffffffffffffffff1681525090565b604051806101200160405280600073ffffffffffffffffffffffffffffffffffffffff168152602001600073ffffffffffffffffffffffffffffffffffffffff168152602001600073ffffffffffffffffffffffffffffffffffffffff168152602001600073ffffffffffffffffffffffffffffffffffffffff16815260200160006001811115610d93577f4e487b7100000000000000000000000000000000000000000000000000000000600052602160045260246000fd5b8152602001600081526020016000815260200160008152602001600081525090565b600081359050610dc4816112ec565b92915050565b600081519050610dd9816112ec565b92915050565b600081519050610dee81611303565b92915050565b600081359050610e038161131a565b92915050565b60006101208284031215610e1c57600080fd5b81905092915050565b600081359050610e348161132a565b92915050565b600060208284031215610e4c57600080fd5b6000610e5a84828501610db5565b91505092915050565b600060208284031215610e7557600080fd5b6000610e8384828501610dca565b91505092915050565b600060208284031215610e9e57600080fd5b6000610eac84828501610ddf565b91505092915050565b600060208284031215610ec757600080fd5b6000610ed584828501610df4565b91505092915050565b60006101208284031215610ef157600080fd5b6000610eff84828501610e09565b91505092915050565b600060208284031215610f1a57600080fd5b6000610f2884828501610e25565b91505092915050565b610f3a816111be565b82525050565b610f49816111d0565b82525050565b6000610f5c602683611122565b9150610f6782611271565b604082019050919050565b6000610f7f602083611122565b9150610f8a826112c0565b602082019050919050565b6000610fa2600083611111565b9150610fad826112e9565b600082019050919050565b610fc1816111fc565b82525050565b610fd081611206565b82525050565b6000602082019050610feb6000830184610f31565b92915050565b60006060820190506110066000830186610f31565b6110136020830185610f31565b6110206040830184610fb8565b949350505050565b600060a08201905061103d6000830187610f31565b61104a6020830186610f31565b6110576040830185610fb8565b6110646060830184610fb8565b818103608083015261107581610f95565b905095945050505050565b60006020820190506110956000830184610f40565b92915050565b600060208201905081810360008301526110b481610f4f565b9050919050565b600060208201905081810360008301526110d481610f72565b9050919050565b60006020820190506110f06000830184610fb8565b92915050565b600060208201905061110b6000830184610fc7565b92915050565b600082825260208201905092915050565b600082825260208201905092915050565b600061113e826111fc565b9150611149836111fc565b92508261115957611158611242565b5b828204905092915050565b600061116f826111fc565b915061117a836111fc565b9250817fffffffffffffffffffffffffffffffffffffffffffffffffffffffffffffffff04831182151516156111b3576111b2611213565b5b828202905092915050565b60006111c9826111dc565b9050919050565b60008115159050919050565b600073ffffffffffffffffffffffffffffffffffffffff82169050919050565b6000819050919050565b600060ff82169050919050565b7f4e487b7100000000000000000000000000000000000000000000000000000000600052601160045260246000fd5b7f4e487b7100000000000000000000000000000000000000000000000000000000600052601260045260246000fd5b7f4f776e61626c653a206e6577206f776e657220697320746865207a65726f206160008201527f6464726573730000000000000000000000000000000000000000000000000000602082015250565b7f4f776e61626c653a2063616c6c6572206973206e6f7420746865206f776e6572600082015250565b50565b6112f5816111be565b811461130057600080fd5b50565b61130c816111d0565b811461131757600080fd5b50565b6002811061132757600080fd5b50565b61133381611206565b811461133e57600080fd5b5056fea2646970667358221220516979eb60b0abb61c9db2166a1cfe82022c1c37b9f8b205586f2a01d432997964736f6c63430008040033",
					"opcodes": "PUSH1 0x80 PUSH1 0x40 MSTORE CALLVALUE DUP1 ISZERO PUSH3 0x11 JUMPI PUSH1 0x0 DUP1 REVERT JUMPDEST POP PUSH1 0x40 MLOAD PUSH3 0x1567 CODESIZE SUB DUP1 PUSH3 0x1567 DUP4 CODECOPY DUP2 DUP2 ADD PUSH1 0x40 MSTORE DUP2 ADD SWAP1 PUSH3 0x37 SWAP2 SWAP1 PUSH3 0x178 JUMP JUMPDEST PUSH3 0x57 PUSH3 0x4B PUSH3 0x95 PUSH1 0x20 SHL PUSH1 0x20 SHR JUMP JUMPDEST PUSH3 0x9D PUSH1 0x20 SHL PUSH1 0x20 SHR JUMP JUMPDEST DUP2 PUSH1 0x0 PUSH1 0x14 PUSH2 0x100 EXP DUP2 SLOAD DUP2 PUSH1 0xFF MUL NOT AND SWAP1 DUP4 PUSH1 0xFF AND MUL OR SWAP1 SSTORE POP DUP1 PUSH1 0x0 PUSH1 0x15 PUSH2 0x100 EXP DUP2 SLOAD DUP2 PUSH1 0xFF MUL NOT AND SWAP1 DUP4 PUSH1 0xFF AND MUL OR SWAP1 SSTORE POP POP POP PUSH3 0x1E0 JUMP JUMPDEST PUSH1 0x0 CALLER SWAP1 POP SWAP1 JUMP JUMPDEST PUSH1 0x0 DUP1 PUSH1 0x0 SWAP1 SLOAD SWAP1 PUSH2 0x100 EXP SWAP1 DIV PUSH20 0xFFFFFFFFFFFFFFFFFFFFFFFFFFFFFFFFFFFFFFFF AND SWAP1 POP DUP2 PUSH1 0x0 DUP1 PUSH2 0x100 EXP DUP2 SLOAD DUP2 PUSH20 0xFFFFFFFFFFFFFFFFFFFFFFFFFFFFFFFFFFFFFFFF MUL NOT AND SWAP1 DUP4 PUSH20 0xFFFFFFFFFFFFFFFFFFFFFFFFFFFFFFFFFFFFFFFF AND MUL OR SWAP1 SSTORE POP DUP2 PUSH20 0xFFFFFFFFFFFFFFFFFFFFFFFFFFFFFFFFFFFFFFFF AND DUP2 PUSH20 0xFFFFFFFFFFFFFFFFFFFFFFFFFFFFFFFFFFFFFFFF AND PUSH32 0x8BE0079C531659141344CD1FD0A4F28419497F9722A3DAAFE3B4186F6B6457E0 PUSH1 0x40 MLOAD PUSH1 0x40 MLOAD DUP1 SWAP2 SUB SWAP1 LOG3 POP POP JUMP JUMPDEST PUSH1 0x0 DUP2 MLOAD SWAP1 POP PUSH3 0x172 DUP2 PUSH3 0x1C6 JUMP JUMPDEST SWAP3 SWAP2 POP POP JUMP JUMPDEST PUSH1 0x0 DUP1 PUSH1 0x40 DUP4 DUP6 SUB SLT ISZERO PUSH3 0x18C JUMPI PUSH1 0x0 DUP1 REVERT JUMPDEST PUSH1 0x0 PUSH3 0x19C DUP6 DUP3 DUP7 ADD PUSH3 0x161 JUMP JUMPDEST SWAP3 POP POP PUSH1 0x20 PUSH3 0x1AF DUP6 DUP3 DUP7 ADD PUSH3 0x161 JUMP JUMPDEST SWAP2 POP POP SWAP3 POP SWAP3 SWAP1 POP JUMP JUMPDEST PUSH1 0x0 PUSH1 0xFF DUP3 AND SWAP1 POP SWAP2 SWAP1 POP JUMP JUMPDEST PUSH3 0x1D1 DUP2 PUSH3 0x1B9 JUMP JUMPDEST DUP2 EQ PUSH3 0x1DD JUMPI PUSH1 0x0 DUP1 REVERT JUMPDEST POP JUMP JUMPDEST PUSH2 0x1377 DUP1 PUSH3 0x1F0 PUSH1 0x0 CODECOPY PUSH1 0x0 RETURN INVALID PUSH1 0x80 PUSH1 0x40 MSTORE CALLVALUE DUP1 ISZERO PUSH2 0x10 JUMPI PUSH1 0x0 DUP1 REVERT JUMPDEST POP PUSH1 0x4 CALLDATASIZE LT PUSH2 0x93 JUMPI PUSH1 0x0 CALLDATALOAD PUSH1 0xE0 SHR DUP1 PUSH4 0xA3667C7B GT PUSH2 0x66 JUMPI DUP1 PUSH4 0xA3667C7B EQ PUSH2 0xFC JUMPI DUP1 PUSH4 0xA96B446D EQ PUSH2 0x12C JUMPI DUP1 PUSH4 0xB4A99A4E EQ PUSH2 0x15C JUMPI DUP1 PUSH4 0xDB90A177 EQ PUSH2 0x17A JUMPI DUP1 PUSH4 0xF2FDE38B EQ PUSH2 0x1AA JUMPI PUSH2 0x93 JUMP JUMPDEST DUP1 PUSH4 0x60085DA6 EQ PUSH2 0x98 JUMPI DUP1 PUSH4 0x715018A6 EQ PUSH2 0xB6 JUMPI DUP1 PUSH4 0x8DA5CB5B EQ PUSH2 0xC0 JUMPI DUP1 PUSH4 0x9C66809D EQ PUSH2 0xDE JUMPI JUMPDEST PUSH1 0x0 DUP1 REVERT JUMPDEST PUSH2 0xA0 PUSH2 0x1C6 JUMP JUMPDEST PUSH1 0x40 MLOAD PUSH2 0xAD SWAP2 SWAP1 PUSH2 0x10F6 JUMP JUMPDEST PUSH1 0x40 MLOAD DUP1 SWAP2 SUB SWAP1 RETURN JUMPDEST PUSH2 0xBE PUSH2 0x1DC JUMP JUMPDEST STOP JUMPDEST PUSH2 0xC8 PUSH2 0x1F0 JUMP JUMPDEST PUSH1 0x40 MLOAD PUSH2 0xD5 SWAP2 SWAP1 PUSH2 0xFD6 JUMP JUMPDEST PUSH1 0x40 MLOAD DUP1 SWAP2 SUB SWAP1 RETURN JUMPDEST PUSH2 0xE6 PUSH2 0x219 JUMP JUMPDEST PUSH1 0x40 MLOAD PUSH2 0xF3 SWAP2 SWAP1 PUSH2 0x10F6 JUMP JUMPDEST PUSH1 0x40 MLOAD DUP1 SWAP2 SUB SWAP1 RETURN JUMPDEST PUSH2 0x116 PUSH1 0x4 DUP1 CALLDATASIZE SUB DUP2 ADD SWAP1 PUSH2 0x111 SWAP2 SWAP1 PUSH2 0xF08 JUMP JUMPDEST PUSH2 0x22F JUMP JUMPDEST PUSH1 0x40 MLOAD PUSH2 0x123 SWAP2 SWAP1 PUSH2 0x1080 JUMP JUMPDEST PUSH1 0x40 MLOAD DUP1 SWAP2 SUB SWAP1 RETURN JUMPDEST PUSH2 0x146 PUSH1 0x4 DUP1 CALLDATASIZE SUB DUP2 ADD SWAP1 PUSH2 0x141 SWAP2 SWAP1 PUSH2 0xF08 JUMP JUMPDEST PUSH2 0x25D JUMP JUMPDEST PUSH1 0x40 MLOAD PUSH2 0x153 SWAP2 SWAP1 PUSH2 0x1080 JUMP JUMPDEST PUSH1 0x40 MLOAD DUP1 SWAP2 SUB SWAP1 RETURN JUMPDEST PUSH2 0x164 PUSH2 0x28B JUMP JUMPDEST PUSH1 0x40 MLOAD PUSH2 0x171 SWAP2 SWAP1 PUSH2 0xFD6 JUMP JUMPDEST PUSH1 0x40 MLOAD DUP1 SWAP2 SUB SWAP1 RETURN JUMPDEST PUSH2 0x194 PUSH1 0x4 DUP1 CALLDATASIZE SUB DUP2 ADD SWAP1 PUSH2 0x18F SWAP2 SWAP1 PUSH2 0xEDE JUMP JUMPDEST PUSH2 0x2B1 JUMP JUMPDEST PUSH1 0x40 MLOAD PUSH2 0x1A1 SWAP2 SWAP1 PUSH2 0x1080 JUMP JUMPDEST PUSH1 0x40 MLOAD DUP1 SWAP2 SUB SWAP1 RETURN JUMPDEST PUSH2 0x1C4 PUSH1 0x4 DUP1 CALLDATASIZE SUB DUP2 ADD SWAP1 PUSH2 0x1BF SWAP2 SWAP1 PUSH2 0xE3A JUMP JUMPDEST PUSH2 0x398 JUMP JUMPDEST STOP JUMPDEST PUSH1 0x0 DUP1 PUSH1 0x15 SWAP1 SLOAD SWAP1 PUSH2 0x100 EXP SWAP1 DIV PUSH1 0xFF AND SWAP1 POP SWAP1 JUMP JUMPDEST PUSH2 0x1E4 PUSH2 0x41C JUMP JUMPDEST PUSH2 0x1EE PUSH1 0x0 PUSH2 0x49A JUMP JUMPDEST JUMP JUMPDEST PUSH1 0x0 DUP1 PUSH1 0x0 SWAP1 SLOAD SWAP1 PUSH2 0x100 EXP SWAP1 DIV PUSH20 0xFFFFFFFFFFFFFFFFFFFFFFFFFFFFFFFFFFFFFFFF AND SWAP1 POP SWAP1 JUMP JUMPDEST PUSH1 0x0 DUP1 PUSH1 0x14 SWAP1 SLOAD SWAP1 PUSH2 0x100 EXP SWAP1 DIV PUSH1 0xFF AND SWAP1 POP SWAP1 JUMP JUMPDEST PUSH1 0x0 PUSH2 0x239 PUSH2 0x41C JUMP JUMPDEST DUP2 PUSH1 0x0 PUSH1 0x15 PUSH2 0x100 EXP DUP2 SLOAD DUP2 PUSH1 0xFF MUL NOT AND SWAP1 DUP4 PUSH1 0xFF AND MUL OR SWAP1 SSTORE POP PUSH1 0x1 SWAP1 POP SWAP2 SWAP1 POP JUMP JUMPDEST PUSH1 0x0 PUSH2 0x267 PUSH2 0x41C JUMP JUMPDEST DUP2 PUSH1 0x0 PUSH1 0x14 PUSH2 0x100 EXP DUP2 SLOAD DUP2 PUSH1 0xFF MUL NOT AND SWAP1 DUP4 PUSH1 0xFF AND MUL OR SWAP1 SSTORE POP PUSH1 0x1 SWAP1 POP SWAP2 SWAP1 POP JUMP JUMPDEST PUSH1 0x1 PUSH1 0x0 SWAP1 SLOAD SWAP1 PUSH2 0x100 EXP SWAP1 DIV PUSH20 0xFFFFFFFFFFFFFFFFFFFFFFFFFFFFFFFFFFFFFFFF AND DUP2 JUMP JUMPDEST PUSH1 0x0 DUP1 PUSH2 0x2E7 DUP4 PUSH1 0x80 ADD PUSH1 0x20 DUP2 ADD SWAP1 PUSH2 0x2CA SWAP2 SWAP1 PUSH2 0xEB5 JUMP JUMPDEST DUP5 PUSH1 0x60 ADD PUSH1 0x20 DUP2 ADD SWAP1 PUSH2 0x2DD SWAP2 SWAP1 PUSH2 0xE3A JUMP JUMPDEST DUP6 PUSH1 0xE0 ADD CALLDATALOAD PUSH2 0x55E JUMP JUMPDEST SWAP1 POP PUSH1 0x0 CALLER SWAP1 POP PUSH2 0x30C DUP5 DUP4 DUP4 DUP8 PUSH1 0x0 ADD PUSH1 0x20 DUP2 ADD SWAP1 PUSH2 0x307 SWAP2 SWAP1 PUSH2 0xE3A JUMP JUMPDEST PUSH2 0x82A JUMP JUMPDEST CALLER PUSH20 0xFFFFFFFFFFFFFFFFFFFFFFFFFFFFFFFFFFFFFFFF AND DUP5 PUSH1 0xE0 ADD CALLDATALOAD DUP6 PUSH1 0x0 ADD PUSH1 0x20 DUP2 ADD SWAP1 PUSH2 0x33B SWAP2 SWAP1 PUSH2 0xE3A JUMP JUMPDEST PUSH20 0xFFFFFFFFFFFFFFFFFFFFFFFFFFFFFFFFFFFFFFFF AND PUSH32 0xB10197CEF009FD301A90B892D25451C22C3701EB18EE2DF1250D31E514FFF394 DUP8 PUSH2 0x100 ADD CALLDATALOAD PUSH1 0x40 MLOAD PUSH2 0x385 SWAP2 SWAP1 PUSH2 0x10DB JUMP JUMPDEST PUSH1 0x40 MLOAD DUP1 SWAP2 SUB SWAP1 LOG4 PUSH1 0x1 SWAP3 POP POP POP SWAP2 SWAP1 POP JUMP JUMPDEST PUSH2 0x3A0 PUSH2 0x41C JUMP JUMPDEST PUSH1 0x0 PUSH20 0xFFFFFFFFFFFFFFFFFFFFFFFFFFFFFFFFFFFFFFFF AND DUP2 PUSH20 0xFFFFFFFFFFFFFFFFFFFFFFFFFFFFFFFFFFFFFFFF AND EQ ISZERO PUSH2 0x410 JUMPI PUSH1 0x40 MLOAD PUSH32 0x8C379A000000000000000000000000000000000000000000000000000000000 DUP2 MSTORE PUSH1 0x4 ADD PUSH2 0x407 SWAP1 PUSH2 0x109B JUMP JUMPDEST PUSH1 0x40 MLOAD DUP1 SWAP2 SUB SWAP1 REVERT JUMPDEST PUSH2 0x419 DUP2 PUSH2 0x49A JUMP JUMPDEST POP JUMP JUMPDEST PUSH2 0x424 PUSH2 0xC8C JUMP JUMPDEST PUSH20 0xFFFFFFFFFFFFFFFFFFFFFFFFFFFFFFFFFFFFFFFF AND PUSH2 0x442 PUSH2 0x1F0 JUMP JUMPDEST PUSH20 0xFFFFFFFFFFFFFFFFFFFFFFFFFFFFFFFFFFFFFFFF AND EQ PUSH2 0x498 JUMPI PUSH1 0x40 MLOAD PUSH32 0x8C379A000000000000000000000000000000000000000000000000000000000 DUP2 MSTORE PUSH1 0x4 ADD PUSH2 0x48F SWAP1 PUSH2 0x10BB JUMP JUMPDEST PUSH1 0x40 MLOAD DUP1 SWAP2 SUB SWAP1 REVERT JUMPDEST JUMP JUMPDEST PUSH1 0x0 DUP1 PUSH1 0x0 SWAP1 SLOAD SWAP1 PUSH2 0x100 EXP SWAP1 DIV PUSH20 0xFFFFFFFFFFFFFFFFFFFFFFFFFFFFFFFFFFFFFFFF AND SWAP1 POP DUP2 PUSH1 0x0 DUP1 PUSH2 0x100 EXP DUP2 SLOAD DUP2 PUSH20 0xFFFFFFFFFFFFFFFFFFFFFFFFFFFFFFFFFFFFFFFF MUL NOT AND SWAP1 DUP4 PUSH20 0xFFFFFFFFFFFFFFFFFFFFFFFFFFFFFFFFFFFFFFFF AND MUL OR SWAP1 SSTORE POP DUP2 PUSH20 0xFFFFFFFFFFFFFFFFFFFFFFFFFFFFFFFFFFFFFFFF AND DUP2 PUSH20 0xFFFFFFFFFFFFFFFFFFFFFFFFFFFFFFFFFFFFFFFF AND PUSH32 0x8BE0079C531659141344CD1FD0A4F28419497F9722A3DAAFE3B4186F6B6457E0 PUSH1 0x40 MLOAD PUSH1 0x40 MLOAD DUP1 SWAP2 SUB SWAP1 LOG3 POP POP JUMP JUMPDEST PUSH2 0x566 PUSH2 0xC94 JUMP JUMPDEST PUSH2 0x56E PUSH2 0xCD9 JUMP JUMPDEST PUSH1 0x0 PUSH2 0x3E8 DUP3 PUSH1 0xA0 ADD MLOAD PUSH1 0x19 PUSH2 0x584 SWAP2 SWAP1 PUSH2 0x1164 JUMP JUMPDEST PUSH2 0x58E SWAP2 SWAP1 PUSH2 0x1133 JUMP JUMPDEST SWAP1 POP PUSH1 0x0 DUP3 PUSH1 0xA0 ADD MLOAD SWAP1 POP PUSH1 0x0 PUSH1 0x64 DUP5 PUSH1 0xA0 ADD MLOAD PUSH1 0xA PUSH2 0x5AE SWAP2 SWAP1 PUSH2 0x1164 JUMP JUMPDEST PUSH2 0x5B8 SWAP2 SWAP1 PUSH2 0x1133 JUMP JUMPDEST SWAP1 POP PUSH1 0x0 DUP5 PUSH2 0x100 ADD MLOAD DUP6 PUSH1 0xA0 ADD MLOAD PUSH2 0x5D1 SWAP2 SWAP1 PUSH2 0x1164 JUMP JUMPDEST SWAP1 POP PUSH1 0x0 PUSH1 0x1 DUP1 DUP2 GT ISZERO PUSH2 0x60E JUMPI PUSH32 0x4E487B7100000000000000000000000000000000000000000000000000000000 PUSH1 0x0 MSTORE PUSH1 0x21 PUSH1 0x4 MSTORE PUSH1 0x24 PUSH1 0x0 REVERT JUMPDEST DUP11 PUSH1 0x1 DUP2 GT ISZERO PUSH2 0x647 JUMPI PUSH32 0x4E487B7100000000000000000000000000000000000000000000000000000000 PUSH1 0x0 MSTORE PUSH1 0x21 PUSH1 0x4 MSTORE PUSH1 0x24 PUSH1 0x0 REVERT JUMPDEST EQ ISZERO PUSH2 0x6D9 JUMPI DUP9 PUSH20 0xFFFFFFFFFFFFFFFFFFFFFFFFFFFFFFFFFFFFFFFF AND PUSH4 0xD48E638A DUP10 PUSH1 0x40 MLOAD DUP3 PUSH4 0xFFFFFFFF AND PUSH1 0xE0 SHL DUP2 MSTORE PUSH1 0x4 ADD PUSH2 0x686 SWAP2 SWAP1 PUSH2 0x10DB JUMP JUMPDEST PUSH1 0x20 PUSH1 0x40 MLOAD DUP1 DUP4 SUB DUP2 DUP7 DUP1 EXTCODESIZE ISZERO DUP1 ISZERO PUSH2 0x69E JUMPI PUSH1 0x0 DUP1 REVERT JUMPDEST POP GAS STATICCALL ISZERO DUP1 ISZERO PUSH2 0x6B2 JUMPI RETURNDATASIZE PUSH1 0x0 DUP1 RETURNDATACOPY RETURNDATASIZE PUSH1 0x0 REVERT JUMPDEST POP POP POP POP PUSH1 0x40 MLOAD RETURNDATASIZE PUSH1 0x1F NOT PUSH1 0x1F DUP3 ADD AND DUP3 ADD DUP1 PUSH1 0x40 MSTORE POP DUP2 ADD SWAP1 PUSH2 0x6D6 SWAP2 SWAP1 PUSH2 0xE63 JUMP JUMPDEST SWAP1 POP JUMPDEST PUSH1 0x0 PUSH1 0x1 DUP2 GT ISZERO PUSH2 0x713 JUMPI PUSH32 0x4E487B7100000000000000000000000000000000000000000000000000000000 PUSH1 0x0 MSTORE PUSH1 0x21 PUSH1 0x4 MSTORE PUSH1 0x24 PUSH1 0x0 REVERT JUMPDEST DUP11 PUSH1 0x1 DUP2 GT ISZERO PUSH2 0x74C JUMPI PUSH32 0x4E487B7100000000000000000000000000000000000000000000000000000000 PUSH1 0x0 MSTORE PUSH1 0x21 PUSH1 0x4 MSTORE PUSH1 0x24 PUSH1 0x0 REVERT JUMPDEST EQ ISZERO PUSH2 0x7DE JUMPI DUP9 PUSH20 0xFFFFFFFFFFFFFFFFFFFFFFFFFFFFFFFFFFFFFFFF AND PUSH4 0xD48E638A DUP10 PUSH1 0x40 MLOAD DUP3 PUSH4 0xFFFFFFFF AND PUSH1 0xE0 SHL DUP2 MSTORE PUSH1 0x4 ADD PUSH2 0x78B SWAP2 SWAP1 PUSH2 0x10DB JUMP JUMPDEST PUSH1 0x20 PUSH1 0x40 MLOAD DUP1 DUP4 SUB DUP2 DUP7 DUP1 EXTCODESIZE ISZERO DUP1 ISZERO PUSH2 0x7A3 JUMPI PUSH1 0x0 DUP1 REVERT JUMPDEST POP GAS STATICCALL ISZERO DUP1 ISZERO PUSH2 0x7B7 JUMPI RETURNDATASIZE PUSH1 0x0 DUP1 RETURNDATACOPY RETURNDATASIZE PUSH1 0x0 REVERT JUMPDEST POP POP POP POP PUSH1 0x40 MLOAD RETURNDATASIZE PUSH1 0x1F NOT PUSH1 0x1F DUP3 ADD AND DUP3 ADD DUP1 PUSH1 0x40 MSTORE POP DUP2 ADD SWAP1 PUSH2 0x7DB SWAP2 SWAP1 PUSH2 0xE63 JUMP JUMPDEST SWAP1 POP JUMPDEST PUSH1 0x40 MLOAD DUP1 PUSH1 0xA0 ADD PUSH1 0x40 MSTORE DUP1 DUP7 DUP2 MSTORE PUSH1 0x20 ADD DUP6 DUP2 MSTORE PUSH1 0x20 ADD DUP5 DUP2 MSTORE PUSH1 0x20 ADD DUP4 DUP2 MSTORE PUSH1 0x20 ADD DUP3 PUSH20 0xFFFFFFFFFFFFFFFFFFFFFFFFFFFFFFFFFFFFFFFF AND DUP2 MSTORE POP SWAP7 POP POP POP POP POP POP POP SWAP4 SWAP3 POP POP POP JUMP JUMPDEST PUSH1 0x1 DUP1 DUP2 GT ISZERO PUSH2 0x863 JUMPI PUSH32 0x4E487B7100000000000000000000000000000000000000000000000000000000 PUSH1 0x0 MSTORE PUSH1 0x21 PUSH1 0x4 MSTORE PUSH1 0x24 PUSH1 0x0 REVERT JUMPDEST DUP5 PUSH1 0x80 ADD PUSH1 0x20 DUP2 ADD SWAP1 PUSH2 0x876 SWAP2 SWAP1 PUSH2 0xEB5 JUMP JUMPDEST PUSH1 0x1 DUP2 GT ISZERO PUSH2 0x8AE JUMPI PUSH32 0x4E487B7100000000000000000000000000000000000000000000000000000000 PUSH1 0x0 MSTORE PUSH1 0x21 PUSH1 0x4 MSTORE PUSH1 0x24 PUSH1 0x0 REVERT JUMPDEST EQ ISZERO PUSH2 0x93A JUMPI DUP4 PUSH1 0x60 ADD PUSH1 0x20 DUP2 ADD SWAP1 PUSH2 0x8C7 SWAP2 SWAP1 PUSH2 0xE3A JUMP JUMPDEST PUSH20 0xFFFFFFFFFFFFFFFFFFFFFFFFFFFFFFFFFFFFFFFF AND PUSH4 0x42842E0E DUP3 DUP5 DUP8 PUSH1 0xE0 ADD CALLDATALOAD PUSH1 0x40 MLOAD DUP5 PUSH4 0xFFFFFFFF AND PUSH1 0xE0 SHL DUP2 MSTORE PUSH1 0x4 ADD PUSH2 0x907 SWAP4 SWAP3 SWAP2 SWAP1 PUSH2 0xFF1 JUMP JUMPDEST PUSH1 0x0 PUSH1 0x40 MLOAD DUP1 DUP4 SUB DUP2 PUSH1 0x0 DUP8 DUP1 EXTCODESIZE ISZERO DUP1 ISZERO PUSH2 0x921 JUMPI PUSH1 0x0 DUP1 REVERT JUMPDEST POP GAS CALL ISZERO DUP1 ISZERO PUSH2 0x935 JUMPI RETURNDATASIZE PUSH1 0x0 DUP1 RETURNDATACOPY RETURNDATASIZE PUSH1 0x0 REVERT JUMPDEST POP POP POP POP JUMPDEST PUSH1 0x0 PUSH1 0x1 DUP2 GT ISZERO PUSH2 0x974 JUMPI PUSH32 0x4E487B7100000000000000000000000000000000000000000000000000000000 PUSH1 0x0 MSTORE PUSH1 0x21 PUSH1 0x4 MSTORE PUSH1 0x24 PUSH1 0x0 REVERT JUMPDEST DUP5 PUSH1 0x80 ADD PUSH1 0x20 DUP2 ADD SWAP1 PUSH2 0x987 SWAP2 SWAP1 PUSH2 0xEB5 JUMP JUMPDEST PUSH1 0x1 DUP2 GT ISZERO PUSH2 0x9BF JUMPI PUSH32 0x4E487B7100000000000000000000000000000000000000000000000000000000 PUSH1 0x0 MSTORE PUSH1 0x21 PUSH1 0x4 MSTORE PUSH1 0x24 PUSH1 0x0 REVERT JUMPDEST EQ ISZERO PUSH2 0xA52 JUMPI DUP4 PUSH1 0x60 ADD PUSH1 0x20 DUP2 ADD SWAP1 PUSH2 0x9D8 SWAP2 SWAP1 PUSH2 0xE3A JUMP JUMPDEST PUSH20 0xFFFFFFFFFFFFFFFFFFFFFFFFFFFFFFFFFFFFFFFF AND PUSH4 0xF242432A DUP3 DUP5 DUP8 PUSH1 0xE0 ADD CALLDATALOAD DUP9 PUSH2 0x100 ADD CALLDATALOAD PUSH1 0x40 MLOAD DUP6 PUSH4 0xFFFFFFFF AND PUSH1 0xE0 SHL DUP2 MSTORE PUSH1 0x4 ADD PUSH2 0xA1F SWAP5 SWAP4 SWAP3 SWAP2 SWAP1 PUSH2 0x1028 JUMP JUMPDEST PUSH1 0x0 PUSH1 0x40 MLOAD DUP1 DUP4 SUB DUP2 PUSH1 0x0 DUP8 DUP1 EXTCODESIZE ISZERO DUP1 ISZERO PUSH2 0xA39 JUMPI PUSH1 0x0 DUP1 REVERT JUMPDEST POP GAS CALL ISZERO DUP1 ISZERO PUSH2 0xA4D JUMPI RETURNDATASIZE PUSH1 0x0 DUP1 RETURNDATACOPY RETURNDATASIZE PUSH1 0x0 REVERT JUMPDEST POP POP POP POP JUMPDEST PUSH1 0x0 DUP4 PUSH1 0x0 ADD MLOAD GT ISZERO PUSH2 0xB28 JUMPI DUP4 PUSH1 0x40 ADD PUSH1 0x20 DUP2 ADD SWAP1 PUSH2 0xA72 SWAP2 SWAP1 PUSH2 0xE3A JUMP JUMPDEST PUSH20 0xFFFFFFFFFFFFFFFFFFFFFFFFFFFFFFFFFFFFFFFF AND PUSH4 0x23B872DD DUP4 PUSH1 0x1 PUSH1 0x0 SWAP1 SLOAD SWAP1 PUSH2 0x100 EXP SWAP1 DIV PUSH20 0xFFFFFFFFFFFFFFFFFFFFFFFFFFFFFFFFFFFFFFFF AND DUP7 PUSH1 0x0 ADD MLOAD PUSH1 0x40 MLOAD DUP5 PUSH4 0xFFFFFFFF AND PUSH1 0xE0 SHL DUP2 MSTORE PUSH1 0x4 ADD PUSH2 0xAD4 SWAP4 SWAP3 SWAP2 SWAP1 PUSH2 0xFF1 JUMP JUMPDEST PUSH1 0x20 PUSH1 0x40 MLOAD DUP1 DUP4 SUB DUP2 PUSH1 0x0 DUP8 DUP1 EXTCODESIZE ISZERO DUP1 ISZERO PUSH2 0xAEE JUMPI PUSH1 0x0 DUP1 REVERT JUMPDEST POP GAS CALL ISZERO DUP1 ISZERO PUSH2 0xB02 JUMPI RETURNDATASIZE PUSH1 0x0 DUP1 RETURNDATACOPY RETURNDATASIZE PUSH1 0x0 REVERT JUMPDEST POP POP POP POP PUSH1 0x40 MLOAD RETURNDATASIZE PUSH1 0x1F NOT PUSH1 0x1F DUP3 ADD AND DUP3 ADD DUP1 PUSH1 0x40 MSTORE POP DUP2 ADD SWAP1 PUSH2 0xB26 SWAP2 SWAP1 PUSH2 0xE8C JUMP JUMPDEST POP JUMPDEST PUSH1 0x0 DUP4 PUSH1 0x40 ADD MLOAD GT ISZERO PUSH2 0xBE0 JUMPI DUP4 PUSH1 0x40 ADD PUSH1 0x20 DUP2 ADD SWAP1 PUSH2 0xB48 SWAP2 SWAP1 PUSH2 0xE3A JUMP JUMPDEST PUSH20 0xFFFFFFFFFFFFFFFFFFFFFFFFFFFFFFFFFFFFFFFF AND PUSH4 0x23B872DD DUP4 DUP6 PUSH1 0x80 ADD MLOAD DUP7 PUSH1 0x40 ADD MLOAD PUSH1 0x40 MLOAD DUP5 PUSH4 0xFFFFFFFF AND PUSH1 0xE0 SHL DUP2 MSTORE PUSH1 0x4 ADD PUSH2 0xB8C SWAP4 SWAP3 SWAP2 SWAP1 PUSH2 0xFF1 JUMP JUMPDEST PUSH1 0x20 PUSH1 0x40 MLOAD DUP1 DUP4 SUB DUP2 PUSH1 0x0 DUP8 DUP1 EXTCODESIZE ISZERO DUP1 ISZERO PUSH2 0xBA6 JUMPI PUSH1 0x0 DUP1 REVERT JUMPDEST POP GAS CALL ISZERO DUP1 ISZERO PUSH2 0xBBA JUMPI RETURNDATASIZE PUSH1 0x0 DUP1 RETURNDATACOPY RETURNDATASIZE PUSH1 0x0 REVERT JUMPDEST POP POP POP POP PUSH1 0x40 MLOAD RETURNDATASIZE PUSH1 0x1F NOT PUSH1 0x1F DUP3 ADD AND DUP3 ADD DUP1 PUSH1 0x40 MSTORE POP DUP2 ADD SWAP1 PUSH2 0xBDE SWAP2 SWAP1 PUSH2 0xE8C JUMP JUMPDEST POP JUMPDEST DUP4 PUSH1 0x40 ADD PUSH1 0x20 DUP2 ADD SWAP1 PUSH2 0xBF3 SWAP2 SWAP1 PUSH2 0xE3A JUMP JUMPDEST PUSH20 0xFFFFFFFFFFFFFFFFFFFFFFFFFFFFFFFFFFFFFFFF AND PUSH4 0x23B872DD DUP4 DUP4 DUP7 PUSH1 0x20 ADD MLOAD PUSH1 0x40 MLOAD DUP5 PUSH4 0xFFFFFFFF AND PUSH1 0xE0 SHL DUP2 MSTORE PUSH1 0x4 ADD PUSH2 0xC33 SWAP4 SWAP3 SWAP2 SWAP1 PUSH2 0xFF1 JUMP JUMPDEST PUSH1 0x20 PUSH1 0x40 MLOAD DUP1 DUP4 SUB DUP2 PUSH1 0x0 DUP8 DUP1 EXTCODESIZE ISZERO DUP1 ISZERO PUSH2 0xC4D JUMPI PUSH1 0x0 DUP1 REVERT JUMPDEST POP GAS CALL ISZERO DUP1 ISZERO PUSH2 0xC61 JUMPI RETURNDATASIZE PUSH1 0x0 DUP1 RETURNDATACOPY RETURNDATASIZE PUSH1 0x0 REVERT JUMPDEST POP POP POP POP PUSH1 0x40 MLOAD RETURNDATASIZE PUSH1 0x1F NOT PUSH1 0x1F DUP3 ADD AND DUP3 ADD DUP1 PUSH1 0x40 MSTORE POP DUP2 ADD SWAP1 PUSH2 0xC85 SWAP2 SWAP1 PUSH2 0xE8C JUMP JUMPDEST POP POP POP POP POP JUMP JUMPDEST PUSH1 0x0 CALLER SWAP1 POP SWAP1 JUMP JUMPDEST PUSH1 0x40 MLOAD DUP1 PUSH1 0xA0 ADD PUSH1 0x40 MSTORE DUP1 PUSH1 0x0 DUP2 MSTORE PUSH1 0x20 ADD PUSH1 0x0 DUP2 MSTORE PUSH1 0x20 ADD PUSH1 0x0 DUP2 MSTORE PUSH1 0x20 ADD PUSH1 0x0 DUP2 MSTORE PUSH1 0x20 ADD PUSH1 0x0 PUSH20 0xFFFFFFFFFFFFFFFFFFFFFFFFFFFFFFFFFFFFFFFF AND DUP2 MSTORE POP SWAP1 JUMP JUMPDEST PUSH1 0x40 MLOAD DUP1 PUSH2 0x120 ADD PUSH1 0x40 MSTORE DUP1 PUSH1 0x0 PUSH20 0xFFFFFFFFFFFFFFFFFFFFFFFFFFFFFFFFFFFFFFFF AND DUP2 MSTORE PUSH1 0x20 ADD PUSH1 0x0 PUSH20 0xFFFFFFFFFFFFFFFFFFFFFFFFFFFFFFFFFFFFFFFF AND DUP2 MSTORE PUSH1 0x20 ADD PUSH1 0x0 PUSH20 0xFFFFFFFFFFFFFFFFFFFFFFFFFFFFFFFFFFFFFFFF AND DUP2 MSTORE PUSH1 0x20 ADD PUSH1 0x0 PUSH20 0xFFFFFFFFFFFFFFFFFFFFFFFFFFFFFFFFFFFFFFFF AND DUP2 MSTORE PUSH1 0x20 ADD PUSH1 0x0 PUSH1 0x1 DUP2 GT ISZERO PUSH2 0xD93 JUMPI PUSH32 0x4E487B7100000000000000000000000000000000000000000000000000000000 PUSH1 0x0 MSTORE PUSH1 0x21 PUSH1 0x4 MSTORE PUSH1 0x24 PUSH1 0x0 REVERT JUMPDEST DUP2 MSTORE PUSH1 0x20 ADD PUSH1 0x0 DUP2 MSTORE PUSH1 0x20 ADD PUSH1 0x0 DUP2 MSTORE PUSH1 0x20 ADD PUSH1 0x0 DUP2 MSTORE PUSH1 0x20 ADD PUSH1 0x0 DUP2 MSTORE POP SWAP1 JUMP JUMPDEST PUSH1 0x0 DUP2 CALLDATALOAD SWAP1 POP PUSH2 0xDC4 DUP2 PUSH2 0x12EC JUMP JUMPDEST SWAP3 SWAP2 POP POP JUMP JUMPDEST PUSH1 0x0 DUP2 MLOAD SWAP1 POP PUSH2 0xDD9 DUP2 PUSH2 0x12EC JUMP JUMPDEST SWAP3 SWAP2 POP POP JUMP JUMPDEST PUSH1 0x0 DUP2 MLOAD SWAP1 POP PUSH2 0xDEE DUP2 PUSH2 0x1303 JUMP JUMPDEST SWAP3 SWAP2 POP POP JUMP JUMPDEST PUSH1 0x0 DUP2 CALLDATALOAD SWAP1 POP PUSH2 0xE03 DUP2 PUSH2 0x131A JUMP JUMPDEST SWAP3 SWAP2 POP POP JUMP JUMPDEST PUSH1 0x0 PUSH2 0x120 DUP3 DUP5 SUB SLT ISZERO PUSH2 0xE1C JUMPI PUSH1 0x0 DUP1 REVERT JUMPDEST DUP2 SWAP1 POP SWAP3 SWAP2 POP POP JUMP JUMPDEST PUSH1 0x0 DUP2 CALLDATALOAD SWAP1 POP PUSH2 0xE34 DUP2 PUSH2 0x132A JUMP JUMPDEST SWAP3 SWAP2 POP POP JUMP JUMPDEST PUSH1 0x0 PUSH1 0x20 DUP3 DUP5 SUB SLT ISZERO PUSH2 0xE4C JUMPI PUSH1 0x0 DUP1 REVERT JUMPDEST PUSH1 0x0 PUSH2 0xE5A DUP5 DUP3 DUP6 ADD PUSH2 0xDB5 JUMP JUMPDEST SWAP2 POP POP SWAP3 SWAP2 POP POP JUMP JUMPDEST PUSH1 0x0 PUSH1 0x20 DUP3 DUP5 SUB SLT ISZERO PUSH2 0xE75 JUMPI PUSH1 0x0 DUP1 REVERT JUMPDEST PUSH1 0x0 PUSH2 0xE83 DUP5 DUP3 DUP6 ADD PUSH2 0xDCA JUMP JUMPDEST SWAP2 POP POP SWAP3 SWAP2 POP POP JUMP JUMPDEST PUSH1 0x0 PUSH1 0x20 DUP3 DUP5 SUB SLT ISZERO PUSH2 0xE9E JUMPI PUSH1 0x0 DUP1 REVERT JUMPDEST PUSH1 0x0 PUSH2 0xEAC DUP5 DUP3 DUP6 ADD PUSH2 0xDDF JUMP JUMPDEST SWAP2 POP POP SWAP3 SWAP2 POP POP JUMP JUMPDEST PUSH1 0x0 PUSH1 0x20 DUP3 DUP5 SUB SLT ISZERO PUSH2 0xEC7 JUMPI PUSH1 0x0 DUP1 REVERT JUMPDEST PUSH1 0x0 PUSH2 0xED5 DUP5 DUP3 DUP6 ADD PUSH2 0xDF4 JUMP JUMPDEST SWAP2 POP POP SWAP3 SWAP2 POP POP JUMP JUMPDEST PUSH1 0x0 PUSH2 0x120 DUP3 DUP5 SUB SLT ISZERO PUSH2 0xEF1 JUMPI PUSH1 0x0 DUP1 REVERT JUMPDEST PUSH1 0x0 PUSH2 0xEFF DUP5 DUP3 DUP6 ADD PUSH2 0xE09 JUMP JUMPDEST SWAP2 POP POP SWAP3 SWAP2 POP POP JUMP JUMPDEST PUSH1 0x0 PUSH1 0x20 DUP3 DUP5 SUB SLT ISZERO PUSH2 0xF1A JUMPI PUSH1 0x0 DUP1 REVERT JUMPDEST PUSH1 0x0 PUSH2 0xF28 DUP5 DUP3 DUP6 ADD PUSH2 0xE25 JUMP JUMPDEST SWAP2 POP POP SWAP3 SWAP2 POP POP JUMP JUMPDEST PUSH2 0xF3A DUP2 PUSH2 0x11BE JUMP JUMPDEST DUP3 MSTORE POP POP JUMP JUMPDEST PUSH2 0xF49 DUP2 PUSH2 0x11D0 JUMP JUMPDEST DUP3 MSTORE POP POP JUMP JUMPDEST PUSH1 0x0 PUSH2 0xF5C PUSH1 0x26 DUP4 PUSH2 0x1122 JUMP JUMPDEST SWAP2 POP PUSH2 0xF67 DUP3 PUSH2 0x1271 JUMP JUMPDEST PUSH1 0x40 DUP3 ADD SWAP1 POP SWAP2 SWAP1 POP JUMP JUMPDEST PUSH1 0x0 PUSH2 0xF7F PUSH1 0x20 DUP4 PUSH2 0x1122 JUMP JUMPDEST SWAP2 POP PUSH2 0xF8A DUP3 PUSH2 0x12C0 JUMP JUMPDEST PUSH1 0x20 DUP3 ADD SWAP1 POP SWAP2 SWAP1 POP JUMP JUMPDEST PUSH1 0x0 PUSH2 0xFA2 PUSH1 0x0 DUP4 PUSH2 0x1111 JUMP JUMPDEST SWAP2 POP PUSH2 0xFAD DUP3 PUSH2 0x12E9 JUMP JUMPDEST PUSH1 0x0 DUP3 ADD SWAP1 POP SWAP2 SWAP1 POP JUMP JUMPDEST PUSH2 0xFC1 DUP2 PUSH2 0x11FC JUMP JUMPDEST DUP3 MSTORE POP POP JUMP JUMPDEST PUSH2 0xFD0 DUP2 PUSH2 0x1206 JUMP JUMPDEST DUP3 MSTORE POP POP JUMP JUMPDEST PUSH1 0x0 PUSH1 0x20 DUP3 ADD SWAP1 POP PUSH2 0xFEB PUSH1 0x0 DUP4 ADD DUP5 PUSH2 0xF31 JUMP JUMPDEST SWAP3 SWAP2 POP POP JUMP JUMPDEST PUSH1 0x0 PUSH1 0x60 DUP3 ADD SWAP1 POP PUSH2 0x1006 PUSH1 0x0 DUP4 ADD DUP7 PUSH2 0xF31 JUMP JUMPDEST PUSH2 0x1013 PUSH1 0x20 DUP4 ADD DUP6 PUSH2 0xF31 JUMP JUMPDEST PUSH2 0x1020 PUSH1 0x40 DUP4 ADD DUP5 PUSH2 0xFB8 JUMP JUMPDEST SWAP5 SWAP4 POP POP POP POP JUMP JUMPDEST PUSH1 0x0 PUSH1 0xA0 DUP3 ADD SWAP1 POP PUSH2 0x103D PUSH1 0x0 DUP4 ADD DUP8 PUSH2 0xF31 JUMP JUMPDEST PUSH2 0x104A PUSH1 0x20 DUP4 ADD DUP7 PUSH2 0xF31 JUMP JUMPDEST PUSH2 0x1057 PUSH1 0x40 DUP4 ADD DUP6 PUSH2 0xFB8 JUMP JUMPDEST PUSH2 0x1064 PUSH1 0x60 DUP4 ADD DUP5 PUSH2 0xFB8 JUMP JUMPDEST DUP2 DUP2 SUB PUSH1 0x80 DUP4 ADD MSTORE PUSH2 0x1075 DUP2 PUSH2 0xF95 JUMP JUMPDEST SWAP1 POP SWAP6 SWAP5 POP POP POP POP POP JUMP JUMPDEST PUSH1 0x0 PUSH1 0x20 DUP3 ADD SWAP1 POP PUSH2 0x1095 PUSH1 0x0 DUP4 ADD DUP5 PUSH2 0xF40 JUMP JUMPDEST SWAP3 SWAP2 POP POP JUMP JUMPDEST PUSH1 0x0 PUSH1 0x20 DUP3 ADD SWAP1 POP DUP2 DUP2 SUB PUSH1 0x0 DUP4 ADD MSTORE PUSH2 0x10B4 DUP2 PUSH2 0xF4F JUMP JUMPDEST SWAP1 POP SWAP2 SWAP1 POP JUMP JUMPDEST PUSH1 0x0 PUSH1 0x20 DUP3 ADD SWAP1 POP DUP2 DUP2 SUB PUSH1 0x0 DUP4 ADD MSTORE PUSH2 0x10D4 DUP2 PUSH2 0xF72 JUMP JUMPDEST SWAP1 POP SWAP2 SWAP1 POP JUMP JUMPDEST PUSH1 0x0 PUSH1 0x20 DUP3 ADD SWAP1 POP PUSH2 0x10F0 PUSH1 0x0 DUP4 ADD DUP5 PUSH2 0xFB8 JUMP JUMPDEST SWAP3 SWAP2 POP POP JUMP JUMPDEST PUSH1 0x0 PUSH1 0x20 DUP3 ADD SWAP1 POP PUSH2 0x110B PUSH1 0x0 DUP4 ADD DUP5 PUSH2 0xFC7 JUMP JUMPDEST SWAP3 SWAP2 POP POP JUMP JUMPDEST PUSH1 0x0 DUP3 DUP3 MSTORE PUSH1 0x20 DUP3 ADD SWAP1 POP SWAP3 SWAP2 POP POP JUMP JUMPDEST PUSH1 0x0 DUP3 DUP3 MSTORE PUSH1 0x20 DUP3 ADD SWAP1 POP SWAP3 SWAP2 POP POP JUMP JUMPDEST PUSH1 0x0 PUSH2 0x113E DUP3 PUSH2 0x11FC JUMP JUMPDEST SWAP2 POP PUSH2 0x1149 DUP4 PUSH2 0x11FC JUMP JUMPDEST SWAP3 POP DUP3 PUSH2 0x1159 JUMPI PUSH2 0x1158 PUSH2 0x1242 JUMP JUMPDEST JUMPDEST DUP3 DUP3 DIV SWAP1 POP SWAP3 SWAP2 POP POP JUMP JUMPDEST PUSH1 0x0 PUSH2 0x116F DUP3 PUSH2 0x11FC JUMP JUMPDEST SWAP2 POP PUSH2 0x117A DUP4 PUSH2 0x11FC JUMP JUMPDEST SWAP3 POP DUP2 PUSH32 0xFFFFFFFFFFFFFFFFFFFFFFFFFFFFFFFFFFFFFFFFFFFFFFFFFFFFFFFFFFFFFFFF DIV DUP4 GT DUP3 ISZERO ISZERO AND ISZERO PUSH2 0x11B3 JUMPI PUSH2 0x11B2 PUSH2 0x1213 JUMP JUMPDEST JUMPDEST DUP3 DUP3 MUL SWAP1 POP SWAP3 SWAP2 POP POP JUMP JUMPDEST PUSH1 0x0 PUSH2 0x11C9 DUP3 PUSH2 0x11DC JUMP JUMPDEST SWAP1 POP SWAP2 SWAP1 POP JUMP JUMPDEST PUSH1 0x0 DUP2 ISZERO ISZERO SWAP1 POP SWAP2 SWAP1 POP JUMP JUMPDEST PUSH1 0x0 PUSH20 0xFFFFFFFFFFFFFFFFFFFFFFFFFFFFFFFFFFFFFFFF DUP3 AND SWAP1 POP SWAP2 SWAP1 POP JUMP JUMPDEST PUSH1 0x0 DUP2 SWAP1 POP SWAP2 SWAP1 POP JUMP JUMPDEST PUSH1 0x0 PUSH1 0xFF DUP3 AND SWAP1 POP SWAP2 SWAP1 POP JUMP JUMPDEST PUSH32 0x4E487B7100000000000000000000000000000000000000000000000000000000 PUSH1 0x0 MSTORE PUSH1 0x11 PUSH1 0x4 MSTORE PUSH1 0x24 PUSH1 0x0 REVERT JUMPDEST PUSH32 0x4E487B7100000000000000000000000000000000000000000000000000000000 PUSH1 0x0 MSTORE PUSH1 0x12 PUSH1 0x4 MSTORE PUSH1 0x24 PUSH1 0x0 REVERT JUMPDEST PUSH32 0x4F776E61626C653A206E6577206F776E657220697320746865207A65726F2061 PUSH1 0x0 DUP3 ADD MSTORE PUSH32 0x6464726573730000000000000000000000000000000000000000000000000000 PUSH1 0x20 DUP3 ADD MSTORE POP JUMP JUMPDEST PUSH32 0x4F776E61626C653A2063616C6C6572206973206E6F7420746865206F776E6572 PUSH1 0x0 DUP3 ADD MSTORE POP JUMP JUMPDEST POP JUMP JUMPDEST PUSH2 0x12F5 DUP2 PUSH2 0x11BE JUMP JUMPDEST DUP2 EQ PUSH2 0x1300 JUMPI PUSH1 0x0 DUP1 REVERT JUMPDEST POP JUMP JUMPDEST PUSH2 0x130C DUP2 PUSH2 0x11D0 JUMP JUMPDEST DUP2 EQ PUSH2 0x1317 JUMPI PUSH1 0x0 DUP1 REVERT JUMPDEST POP JUMP JUMPDEST PUSH1 0x2 DUP2 LT PUSH2 0x1327 JUMPI PUSH1 0x0 DUP1 REVERT JUMPDEST POP JUMP JUMPDEST PUSH2 0x1333 DUP2 PUSH2 0x1206 JUMP JUMPDEST DUP2 EQ PUSH2 0x133E JUMPI PUSH1 0x0 DUP1 REVERT JUMPDEST POP JUMP INVALID LOG2 PUSH5 0x6970667358 0x22 SLT KECCAK256 MLOAD PUSH10 0x79EB60B0ABB61C9DB216 PUSH11 0x1CFE82022C1C37B9F8B205 PC PUSH16 0x2A01D432997964736F6C634300080400 CALLER "
				},
				"gasEstimates": {
					"creation": {
						"codeDepositCost": "996600",
						"executionCost": "infinite",
						"totalCost": "infinite"
					},
					"external": {
						"Owner()": "1258",
						"buyAsset((address,address,address,address,uint8,uint256,uint256,uint256,uint256))": "infinite",
						"buyerServiceFee()": "1296",
						"owner()": "1267",
						"renounceOwnership()": "24421",
						"sellerServiceFee()": "1230",
						"setBuyerServiceFee(uint8)": "22517",
						"setSellerServiceFee(uint8)": "22495",
						"transferOwnership(address)": "24835"
					},
					"internal": {
						"Sell(struct MarketPlace.Trade calldata,struct MarketPlace.Fee memory,address,address)": "infinite",
						"getFees(enum MarketPlace.BuyType,address,uint256)": "infinite"
					}
				},
				"methodIdentifiers": {
					"Owner()": "b4a99a4e",
					"buyAsset((address,address,address,address,uint8,uint256,uint256,uint256,uint256))": "db90a177",
					"buyerServiceFee()": "9c66809d",
					"owner()": "8da5cb5b",
					"renounceOwnership()": "715018a6",
					"sellerServiceFee()": "60085da6",
					"setBuyerServiceFee(uint8)": "a96b446d",
					"setSellerServiceFee(uint8)": "a3667c7b",
					"transferOwnership(address)": "f2fde38b"
				}
			},
			"storageLayout": {
				"storage": [
					{
						"astId": 307,
						"contract": "NFT-Contracts/contracts/MarketPlace.sol:MarketPlace",
						"label": "_owner",
						"offset": 0,
						"slot": "0",
						"type": "t_address"
					},
					{
						"astId": 525,
						"contract": "NFT-Contracts/contracts/MarketPlace.sol:MarketPlace",
						"label": "buyerFee",
						"offset": 20,
						"slot": "0",
						"type": "t_uint8"
					},
					{
						"astId": 527,
						"contract": "NFT-Contracts/contracts/MarketPlace.sol:MarketPlace",
						"label": "sellerFee",
						"offset": 21,
						"slot": "0",
						"type": "t_uint8"
					},
					{
						"astId": 529,
						"contract": "NFT-Contracts/contracts/MarketPlace.sol:MarketPlace",
						"label": "Owner",
						"offset": 0,
						"slot": "1",
						"type": "t_address"
					}
				],
				"types": {
					"t_address": {
						"encoding": "inplace",
						"label": "address",
						"numberOfBytes": "20"
					},
					"t_uint8": {
						"encoding": "inplace",
						"label": "uint8",
						"numberOfBytes": "1"
					}
				}
			},
			"userdoc": {
				"kind": "user",
				"methods": {},
				"version": 1
			}
		}
	}
}