{
	"Arevea-NFT-Market/NFT-Contracts/contracts/finalMarket_single.sol": {
		"NFTSingleMarketplace": {
			"abi": [
				{
					"anonymous": false,
					"inputs": [
						{
							"indexed": false,
							"internalType": "address",
							"name": "nftContractAddress",
							"type": "address"
						},
						{
							"indexed": false,
							"internalType": "uint256",
							"name": "tokenId",
							"type": "uint256"
						},
						{
							"indexed": false,
							"internalType": "address",
							"name": "nftSeller",
							"type": "address"
						}
					],
					"name": "CancelNftAuctionSale",
					"type": "event"
				},
				{
					"anonymous": false,
					"inputs": [
						{
							"indexed": false,
							"internalType": "address",
							"name": "nftContractAddress",
							"type": "address"
						},
						{
							"indexed": false,
							"internalType": "address",
							"name": "nftSeller",
							"type": "address"
						},
						{
							"indexed": false,
							"internalType": "uint256",
							"name": "tokenId",
							"type": "uint256"
						}
					],
					"name": "CancelNftFixedSale",
					"type": "event"
				},
				{
					"anonymous": false,
					"inputs": [
						{
							"indexed": false,
							"internalType": "address",
							"name": "nftContractAddress",
							"type": "address"
						},
						{
							"indexed": false,
							"internalType": "uint256",
							"name": "tokenId",
							"type": "uint256"
						},
						{
							"indexed": false,
							"internalType": "uint256",
							"name": "finalBidPrice",
							"type": "uint256"
						},
						{
							"indexed": false,
							"internalType": "address",
							"name": "nftBidder",
							"type": "address"
						}
					],
					"name": "NftAuctionBidPriceUpdate",
					"type": "event"
				},
				{
					"anonymous": false,
					"inputs": [
						{
							"indexed": false,
							"internalType": "address",
							"name": "nftContractAddress",
							"type": "address"
						},
						{
							"indexed": false,
							"internalType": "address",
							"name": "nftSeller",
							"type": "address"
						},
						{
							"indexed": false,
							"internalType": "address",
							"name": "erc20",
							"type": "address"
						},
						{
							"indexed": false,
							"internalType": "uint256",
							"name": "tokenId",
							"type": "uint256"
						},
						{
							"indexed": false,
							"internalType": "uint256",
							"name": "auctionStart",
							"type": "uint256"
						},
						{
							"indexed": false,
							"internalType": "uint256",
							"name": "auctionEnd",
							"type": "uint256"
						},
						{
							"indexed": false,
							"internalType": "uint256",
							"name": "minPrice",
							"type": "uint256"
						}
					],
					"name": "NftAuctionSale",
					"type": "event"
				},
				{
					"anonymous": false,
					"inputs": [
						{
							"indexed": false,
							"internalType": "address",
							"name": "nftContractAddress",
							"type": "address"
						},
						{
							"indexed": false,
							"internalType": "uint256",
							"name": "tokenId",
							"type": "uint256"
						},
						{
							"indexed": false,
							"internalType": "address",
							"name": "nftHighestBidder",
							"type": "address"
						},
						{
							"indexed": false,
							"internalType": "uint256",
							"name": "nftHighestBid",
							"type": "uint256"
						},
						{
							"indexed": false,
							"internalType": "address",
							"name": "nftSeller",
							"type": "address"
						}
					],
					"name": "NftAuctionSettle",
					"type": "event"
				},
				{
					"anonymous": false,
					"inputs": [
						{
							"indexed": false,
							"internalType": "address",
							"name": "nftContractAddress",
							"type": "address"
						},
						{
							"indexed": false,
							"internalType": "uint256",
							"name": "tokenId",
							"type": "uint256"
						},
						{
							"indexed": false,
							"internalType": "uint256",
							"name": "bidPrice",
							"type": "uint256"
						},
						{
							"indexed": false,
							"internalType": "address",
							"name": "nftBidder",
							"type": "address"
						}
					],
					"name": "NftBidPrice",
					"type": "event"
				},
				{
					"anonymous": false,
					"inputs": [
						{
							"indexed": false,
							"internalType": "address",
							"name": "nftContractAddress",
							"type": "address"
						},
						{
							"indexed": false,
							"internalType": "address",
							"name": "nftBuyer",
							"type": "address"
						},
						{
							"indexed": false,
							"internalType": "uint256",
							"name": "tokenId",
							"type": "uint256"
						},
						{
							"indexed": false,
							"internalType": "uint256",
							"name": "nftBuyPrice",
							"type": "uint256"
						}
					],
					"name": "NftBuyFromFixedSale",
					"type": "event"
				},
				{
					"anonymous": false,
					"inputs": [
						{
							"indexed": false,
							"internalType": "address",
							"name": "nftContractAddress",
							"type": "address"
						},
						{
							"indexed": false,
							"internalType": "uint256",
							"name": "tokenId",
							"type": "uint256"
						},
						{
							"indexed": false,
							"internalType": "uint256",
							"name": "updateBuyNowPrice",
							"type": "uint256"
						},
						{
							"indexed": false,
							"internalType": "address",
							"name": "nftOwner",
							"type": "address"
						}
					],
					"name": "NftBuyNowPriceUpdate",
					"type": "event"
				},
				{
					"anonymous": false,
					"inputs": [
						{
							"indexed": false,
							"internalType": "address",
							"name": "nftContractAddress",
							"type": "address"
						},
						{
							"indexed": false,
							"internalType": "address",
							"name": "nftSeller",
							"type": "address"
						},
						{
							"indexed": false,
							"internalType": "address",
							"name": "erc20",
							"type": "address"
						},
						{
							"indexed": false,
							"internalType": "uint256",
							"name": "tokenId",
							"type": "uint256"
						},
						{
							"indexed": false,
							"internalType": "uint256",
							"name": "salePrice",
							"type": "uint256"
						},
						{
							"indexed": false,
							"internalType": "uint256",
							"name": "timeOfSale",
							"type": "uint256"
						}
					],
					"name": "NftFixedSale",
					"type": "event"
				},
				{
					"anonymous": false,
					"inputs": [
						{
							"indexed": false,
							"internalType": "address",
							"name": "nftContractAddress",
							"type": "address"
						},
						{
							"indexed": false,
							"internalType": "uint256",
							"name": "tokenId",
							"type": "uint256"
						},
						{
							"indexed": false,
							"internalType": "uint256",
							"name": "updateSalePrice",
							"type": "uint256"
						}
					],
					"name": "NftFixedSalePriceUpdated",
					"type": "event"
				},
				{
					"anonymous": false,
					"inputs": [
						{
							"indexed": false,
							"internalType": "address",
							"name": "nftContractAddress",
							"type": "address"
						},
						{
							"indexed": false,
							"internalType": "uint256",
							"name": "tokenId",
							"type": "uint256"
						},
						{
							"indexed": false,
							"internalType": "address",
							"name": "bidClaimer",
							"type": "address"
						}
					],
					"name": "withdrawNftBid",
					"type": "event"
				},
				{
					"inputs": [
						{
							"internalType": "address",
							"name": "_erc20_contract",
							"type": "address"
						},
						{
							"internalType": "address",
							"name": "seller",
							"type": "address"
						},
						{
							"internalType": "uint256",
							"name": "_amount",
							"type": "uint256"
						}
					],
					"name": "Sell_AreveaToken",
					"outputs": [
						{
							"internalType": "bool",
							"name": "",
							"type": "bool"
						}
					],
					"stateMutability": "nonpayable",
					"type": "function"
				},
				{
					"inputs": [
						{
							"internalType": "address",
							"name": "_nftContractAddress",
							"type": "address"
						},
						{
							"internalType": "uint256",
							"name": "_tokenId",
							"type": "uint256"
						}
					],
					"name": "_cancelAuctionSale",
					"outputs": [],
					"stateMutability": "nonpayable",
					"type": "function"
				},
				{
					"inputs": [
						{
							"internalType": "address",
							"name": "_erc20_contract",
							"type": "address"
						},
						{
							"internalType": "address",
							"name": "_buyer",
							"type": "address"
						},
						{
							"internalType": "uint256",
							"name": "_amount",
							"type": "uint256"
						}
					],
					"name": "buyAreveaToken",
					"outputs": [
						{
							"internalType": "bool",
							"name": "",
							"type": "bool"
						}
					],
					"stateMutability": "nonpayable",
					"type": "function"
				},
				{
					"inputs": [
						{
							"internalType": "address",
							"name": "_nftContractAddress",
							"type": "address"
						},
						{
							"internalType": "uint256",
							"name": "_tokenId",
							"type": "uint256"
						},
						{
							"internalType": "uint256",
							"name": "_amount",
							"type": "uint256"
						}
					],
					"name": "buyFromFixedSale",
					"outputs": [],
					"stateMutability": "payable",
					"type": "function"
				},
				{
					"inputs": [
						{
							"internalType": "address",
							"name": "_nftContractAddress",
							"type": "address"
						},
						{
							"internalType": "uint256",
							"name": "_tokenId",
							"type": "uint256"
						}
					],
					"name": "cancelFixedsale",
					"outputs": [],
					"stateMutability": "nonpayable",
					"type": "function"
				},
				{
					"inputs": [
						{
							"internalType": "address",
							"name": "_nftContractAddress",
							"type": "address"
						},
						{
							"internalType": "address",
							"name": "_erc20",
							"type": "address"
						},
						{
							"internalType": "uint256",
							"name": "_tokenId",
							"type": "uint256"
						},
						{
							"internalType": "uint256",
							"name": "_auctionStart",
							"type": "uint256"
						},
						{
							"internalType": "uint256",
							"name": "_auctionEnd",
							"type": "uint256"
						},
						{
							"internalType": "uint256",
							"name": "_minPrice",
							"type": "uint256"
						}
					],
					"name": "createNftAuctionSale",
					"outputs": [],
					"stateMutability": "nonpayable",
					"type": "function"
				},
				{
					"inputs": [],
					"name": "getAuctionSaleNFT",
					"outputs": [
						{
							"components": [
								{
									"internalType": "address",
									"name": "_nftContractAddress",
									"type": "address"
								},
								{
									"internalType": "uint256",
									"name": "_tokenID",
									"type": "uint256"
								}
							],
							"internalType": "struct NFTSingleMarketplace.SaleInfo[]",
							"name": "",
							"type": "tuple[]"
						}
					],
					"stateMutability": "view",
					"type": "function"
				},
				{
					"inputs": [
						{
							"internalType": "address",
							"name": "_nftContractAddress",
							"type": "address"
						},
						{
							"internalType": "uint256",
							"name": "_tokenId",
							"type": "uint256"
						}
					],
					"name": "getFixedSale",
					"outputs": [
						{
							"components": [
								{
									"internalType": "address",
									"name": "nftSeller",
									"type": "address"
								},
								{
									"internalType": "address",
									"name": "nftBuyer",
									"type": "address"
								},
								{
									"internalType": "address",
									"name": "erc20",
									"type": "address"
								},
								{
									"internalType": "uint256",
									"name": "salePrice",
									"type": "uint256"
								}
							],
							"internalType": "struct NFTSingleMarketplace.FixedSale",
							"name": "",
							"type": "tuple"
						}
					],
					"stateMutability": "view",
					"type": "function"
				},
				{
					"inputs": [],
					"name": "getFixedSaleNFT",
					"outputs": [
						{
							"components": [
								{
									"internalType": "address",
									"name": "_nftContractAddress",
									"type": "address"
								},
								{
									"internalType": "uint256",
									"name": "_tokenID",
									"type": "uint256"
								}
							],
							"internalType": "struct NFTSingleMarketplace.SaleInfo[]",
							"name": "",
							"type": "tuple[]"
						}
					],
					"stateMutability": "view",
					"type": "function"
				},
				{
					"inputs": [
						{
							"internalType": "address",
							"name": "_nftContractAddress",
							"type": "address"
						},
						{
							"internalType": "uint256",
							"name": "_tokenId",
							"type": "uint256"
						}
					],
					"name": "getNftAuctionSaleDetails",
					"outputs": [
						{
							"components": [
								{
									"internalType": "uint256",
									"name": "auctionStart",
									"type": "uint256"
								},
								{
									"internalType": "uint256",
									"name": "auctionEnd",
									"type": "uint256"
								},
								{
									"internalType": "uint256",
									"name": "minPrice",
									"type": "uint256"
								},
								{
									"internalType": "uint256",
									"name": "nftHighestBid",
									"type": "uint256"
								},
								{
									"internalType": "address",
									"name": "nftHighestBidder",
									"type": "address"
								},
								{
									"internalType": "address",
									"name": "nftSeller",
									"type": "address"
								},
								{
									"internalType": "address",
									"name": "erc20",
									"type": "address"
								}
							],
							"internalType": "struct NFTSingleMarketplace.Auction",
							"name": "",
							"type": "tuple"
						}
					],
					"stateMutability": "view",
					"type": "function"
				},
				{
					"inputs": [
						{
							"internalType": "address",
							"name": "_nftContractAddress",
							"type": "address"
						},
						{
							"internalType": "uint256",
							"name": "_tokenId",
							"type": "uint256"
						},
						{
							"internalType": "uint256",
							"name": "_bidPrice",
							"type": "uint256"
						}
					],
					"name": "makeBid",
					"outputs": [],
					"stateMutability": "payable",
					"type": "function"
				},
				{
					"inputs": [
						{
							"internalType": "address",
							"name": "_nftContractAddress",
							"type": "address"
						},
						{
							"internalType": "address",
							"name": "_erc20",
							"type": "address"
						},
						{
							"internalType": "uint256",
							"name": "_tokenId",
							"type": "uint256"
						},
						{
							"internalType": "uint256",
							"name": "_salePrice",
							"type": "uint256"
						}
					],
					"name": "nftFixedSale",
					"outputs": [],
					"stateMutability": "nonpayable",
					"type": "function"
				},
				{
					"inputs": [
						{
							"internalType": "address",
							"name": "",
							"type": "address"
						},
						{
							"internalType": "uint256",
							"name": "",
							"type": "uint256"
						}
					],
					"name": "nftSaleStatus",
					"outputs": [
						{
							"internalType": "uint256",
							"name": "",
							"type": "uint256"
						}
					],
					"stateMutability": "view",
					"type": "function"
				},
				{
					"inputs": [
						{
							"internalType": "address",
							"name": "",
							"type": "address"
						},
						{
							"internalType": "address",
							"name": "from",
							"type": "address"
						},
						{
							"internalType": "uint256",
							"name": "",
							"type": "uint256"
						},
						{
							"internalType": "bytes",
							"name": "",
							"type": "bytes"
						}
					],
					"name": "onERC721Received",
					"outputs": [
						{
							"internalType": "bytes4",
							"name": "",
							"type": "bytes4"
						}
					],
					"stateMutability": "pure",
					"type": "function"
				},
				{
					"inputs": [
						{
							"internalType": "address",
							"name": "_nftContractAddress",
							"type": "address"
						},
						{
							"internalType": "uint256",
							"name": "_tokenId",
							"type": "uint256"
						}
					],
					"name": "settleAuction",
					"outputs": [],
					"stateMutability": "nonpayable",
					"type": "function"
				},
				{
					"inputs": [
						{
							"internalType": "address",
							"name": "_nftContractAddress",
							"type": "address"
						},
						{
							"internalType": "uint256",
							"name": "_tokenId",
							"type": "uint256"
						},
						{
							"internalType": "uint256",
							"name": "_updateSalePrice",
							"type": "uint256"
						}
					],
					"name": "updateFixedSalePrice",
					"outputs": [],
					"stateMutability": "nonpayable",
					"type": "function"
				},
				{
					"inputs": [
						{
							"internalType": "address",
							"name": "_nftContractAddress",
							"type": "address"
						},
						{
							"internalType": "uint256",
							"name": "_tokenId",
							"type": "uint256"
						},
						{
							"internalType": "uint256",
							"name": "_updateBidPrice",
							"type": "uint256"
						}
					],
					"name": "updateTheBidPrice",
					"outputs": [],
					"stateMutability": "payable",
					"type": "function"
				},
				{
					"inputs": [
						{
							"internalType": "address",
							"name": "",
							"type": "address"
						},
						{
							"internalType": "uint256",
							"name": "",
							"type": "uint256"
						},
						{
							"internalType": "address",
							"name": "",
							"type": "address"
						}
					],
					"name": "userBidPriceOnNFT",
					"outputs": [
						{
							"internalType": "uint256",
							"name": "",
							"type": "uint256"
						}
					],
					"stateMutability": "view",
					"type": "function"
				},
				{
					"inputs": [
						{
							"internalType": "address",
							"name": "_nftContractAddress",
							"type": "address"
						},
						{
							"internalType": "uint256",
							"name": "_tokenId",
							"type": "uint256"
						}
					],
					"name": "withdrawBid",
					"outputs": [],
					"stateMutability": "nonpayable",
					"type": "function"
				},
				{
					"stateMutability": "payable",
					"type": "receive"
				}
			],
			"devdoc": {
				"kind": "dev",
				"methods": {},
				"version": 1
			},
			"evm": {
				"assembly": "    /* \"Arevea-NFT-Market/NFT-Contracts/contracts/finalMarket_single.sol\":526:24315  contract NFTSingleMarketplace {\r... */\n  mstore(0x40, 0x80)\n  callvalue\n  dup1\n  iszero\n  tag_1\n  jumpi\n  0x00\n  dup1\n  revert\ntag_1:\n  pop\n  dataSize(sub_0)\n  dup1\n  dataOffset(sub_0)\n  0x00\n  codecopy\n  0x00\n  return\nstop\n\nsub_0: assembly {\n        /* \"Arevea-NFT-Market/NFT-Contracts/contracts/finalMarket_single.sol\":526:24315  contract NFTSingleMarketplace {\r... */\n      mstore(0x40, 0x80)\n      jumpi(tag_1, lt(calldatasize, 0x04))\n      shr(0xe0, calldataload(0x00))\n      dup1\n      0x69a6d12e\n      gt\n      tag_22\n      jumpi\n      dup1\n      0x8c3417da\n      gt\n      tag_23\n      jumpi\n      dup1\n      0x8c3417da\n      eq\n      tag_17\n      jumpi\n      dup1\n      0x9f085a00\n      eq\n      tag_18\n      jumpi\n      dup1\n      0xbaf4371e\n      eq\n      tag_19\n      jumpi\n      dup1\n      0xcf42b7e6\n      eq\n      tag_20\n      jumpi\n      dup1\n      0xd3a6a6c9\n      eq\n      tag_21\n      jumpi\n      jump(tag_2)\n    tag_23:\n      dup1\n      0x69a6d12e\n      eq\n      tag_12\n      jumpi\n      dup1\n      0x6f8c9b1b\n      eq\n      tag_13\n      jumpi\n      dup1\n      0x6fe02f24\n      eq\n      tag_14\n      jumpi\n      dup1\n      0x7ad47a21\n      eq\n      tag_15\n      jumpi\n      dup1\n      0x842bc46a\n      eq\n      tag_16\n      jumpi\n      jump(tag_2)\n    tag_22:\n      dup1\n      0x3a713db8\n      gt\n      tag_24\n      jumpi\n      dup1\n      0x3a713db8\n      eq\n      tag_7\n      jumpi\n      dup1\n      0x4676adca\n      eq\n      tag_8\n      jumpi\n      dup1\n      0x4cb8ef5b\n      eq\n      tag_9\n      jumpi\n      dup1\n      0x5138b08c\n      eq\n      tag_10\n      jumpi\n      dup1\n      0x6916462f\n      eq\n      tag_11\n      jumpi\n      jump(tag_2)\n    tag_24:\n      dup1\n      0xe2097c\n      eq\n      tag_3\n      jumpi\n      dup1\n      0x150b7a02\n      eq\n      tag_4\n      jumpi\n      dup1\n      0x1bdae6f1\n      eq\n      tag_5\n      jumpi\n      dup1\n      0x1e7a044f\n      eq\n      tag_6\n      jumpi\n      jump(tag_2)\n    tag_1:\n      jumpi(tag_2, calldatasize)\n      stop\n    tag_2:\n      0x00\n      dup1\n      revert\n        /* \"Arevea-NFT-Market/NFT-Contracts/contracts/finalMarket_single.sol\":9662:9946  function buyAreveaToken(address _erc20_contract, address _buyer, uint256 _amount) public returns (bool){\r... */\n    tag_3:\n      callvalue\n      dup1\n      iszero\n      tag_27\n      jumpi\n      0x00\n      dup1\n      revert\n    tag_27:\n      pop\n      tag_28\n      0x04\n      dup1\n      calldatasize\n      sub\n      dup2\n      add\n      swap1\n      tag_29\n      swap2\n      swap1\n      tag_30\n      jump\t// in\n    tag_29:\n      tag_31\n      jump\t// in\n    tag_28:\n      mload(0x40)\n      tag_32\n      swap2\n      swap1\n      tag_33\n      jump\t// in\n    tag_32:\n      mload(0x40)\n      dup1\n      swap2\n      sub\n      swap1\n      return\n        /* \"Arevea-NFT-Market/NFT-Contracts/contracts/finalMarket_single.sol\":21299:21514  function onERC721Received(\r... */\n    tag_4:\n      callvalue\n      dup1\n      iszero\n      tag_34\n      jumpi\n      0x00\n      dup1\n      revert\n    tag_34:\n      pop\n      tag_35\n      0x04\n      dup1\n      calldatasize\n      sub\n      dup2\n      add\n      swap1\n      tag_36\n      swap2\n      swap1\n      tag_37\n      jump\t// in\n    tag_36:\n      tag_38\n      jump\t// in\n    tag_35:\n      mload(0x40)\n      tag_39\n      swap2\n      swap1\n      tag_40\n      jump\t// in\n    tag_39:\n      mload(0x40)\n      dup1\n      swap2\n      sub\n      swap1\n      return\n        /* \"Arevea-NFT-Market/NFT-Contracts/contracts/finalMarket_single.sol\":15028:16203  function makeBid(\r... */\n    tag_5:\n      tag_41\n      0x04\n      dup1\n      calldatasize\n      sub\n      dup2\n      add\n      swap1\n      tag_42\n      swap2\n      swap1\n      tag_43\n      jump\t// in\n    tag_42:\n      tag_44\n      jump\t// in\n    tag_41:\n      stop\n        /* \"Arevea-NFT-Market/NFT-Contracts/contracts/finalMarket_single.sol\":20731:20842  function getAuctionSaleNFT() external view returns (SaleInfo[] memory) {\r... */\n    tag_6:\n      callvalue\n      dup1\n      iszero\n      tag_45\n      jumpi\n      0x00\n      dup1\n      revert\n    tag_45:\n      pop\n      tag_46\n      tag_47\n      jump\t// in\n    tag_46:\n      mload(0x40)\n      tag_48\n      swap2\n      swap1\n      tag_49\n      jump\t// in\n    tag_48:\n      mload(0x40)\n      dup1\n      swap2\n      sub\n      swap1\n      return\n        /* \"Arevea-NFT-Market/NFT-Contracts/contracts/finalMarket_single.sol\":16246:17762  function updateTheBidPrice(\r... */\n    tag_7:\n      tag_50\n      0x04\n      dup1\n      calldatasize\n      sub\n      dup2\n      add\n      swap1\n      tag_51\n      swap2\n      swap1\n      tag_43\n      jump\t// in\n    tag_51:\n      tag_52\n      jump\t// in\n    tag_50:\n      stop\n        /* \"Arevea-NFT-Market/NFT-Contracts/contracts/finalMarket_single.sol\":12125:12703  function updateFixedSalePrice(\r... */\n    tag_8:\n      callvalue\n      dup1\n      iszero\n      tag_53\n      jumpi\n      0x00\n      dup1\n      revert\n    tag_53:\n      pop\n      tag_54\n      0x04\n      dup1\n      calldatasize\n      sub\n      dup2\n      add\n      swap1\n      tag_55\n      swap2\n      swap1\n      tag_43\n      jump\t// in\n    tag_55:\n      tag_56\n      jump\t// in\n    tag_54:\n      stop\n        /* \"Arevea-NFT-Market/NFT-Contracts/contracts/finalMarket_single.sol\":19642:20400  function withdrawBid(address _nftContractAddress, uint256 _tokenId)\r... */\n    tag_9:\n      callvalue\n      dup1\n      iszero\n      tag_57\n      jumpi\n      0x00\n      dup1\n      revert\n    tag_57:\n      pop\n      tag_58\n      0x04\n      dup1\n      calldatasize\n      sub\n      dup2\n      add\n      swap1\n      tag_59\n      swap2\n      swap1\n      tag_60\n      jump\t// in\n    tag_59:\n      tag_61\n      jump\t// in\n    tag_58:\n      stop\n        /* \"Arevea-NFT-Market/NFT-Contracts/contracts/finalMarket_single.sol\":18590:19598  function settleAuction(address _nftContractAddress, uint256 _tokenId)\r... */\n    tag_10:\n      callvalue\n      dup1\n      iszero\n      tag_62\n      jumpi\n      0x00\n      dup1\n      revert\n    tag_62:\n      pop\n      tag_63\n      0x04\n      dup1\n      calldatasize\n      sub\n      dup2\n      add\n      swap1\n      tag_64\n      swap2\n      swap1\n      tag_60\n      jump\t// in\n    tag_64:\n      tag_65\n      jump\t// in\n    tag_63:\n      stop\n        /* \"Arevea-NFT-Market/NFT-Contracts/contracts/finalMarket_single.sol\":1511:1579  mapping(address => mapping(uint256 => uint256)) public nftSaleStatus */\n    tag_11:\n      callvalue\n      dup1\n      iszero\n      tag_66\n      jumpi\n      0x00\n      dup1\n      revert\n    tag_66:\n      pop\n      tag_67\n      0x04\n      dup1\n      calldatasize\n      sub\n      dup2\n      add\n      swap1\n      tag_68\n      swap2\n      swap1\n      tag_60\n      jump\t// in\n    tag_68:\n      tag_69\n      jump\t// in\n    tag_67:\n      mload(0x40)\n      tag_70\n      swap2\n      swap1\n      tag_71\n      jump\t// in\n    tag_70:\n      mload(0x40)\n      dup1\n      swap2\n      sub\n      swap1\n      return\n        /* \"Arevea-NFT-Market/NFT-Contracts/contracts/finalMarket_single.sol\":10319:11454  function nftFixedSale(\r... */\n    tag_12:\n      callvalue\n      dup1\n      iszero\n      tag_72\n      jumpi\n      0x00\n      dup1\n      revert\n    tag_72:\n      pop\n      tag_73\n      0x04\n      dup1\n      calldatasize\n      sub\n      dup2\n      add\n      swap1\n      tag_74\n      swap2\n      swap1\n      tag_75\n      jump\t// in\n    tag_74:\n      tag_76\n      jump\t// in\n    tag_73:\n      stop\n        /* \"Arevea-NFT-Market/NFT-Contracts/contracts/finalMarket_single.sol\":20454:20678  function getNftAuctionSaleDetails(\r... */\n    tag_13:\n      callvalue\n      dup1\n      iszero\n      tag_77\n      jumpi\n      0x00\n      dup1\n      revert\n    tag_77:\n      pop\n      tag_78\n      0x04\n      dup1\n      calldatasize\n      sub\n      dup2\n      add\n      swap1\n      tag_79\n      swap2\n      swap1\n      tag_60\n      jump\t// in\n    tag_79:\n      tag_80\n      jump\t// in\n    tag_78:\n      mload(0x40)\n      tag_81\n      swap2\n      swap1\n      tag_82\n      jump\t// in\n    tag_81:\n      mload(0x40)\n      dup1\n      swap2\n      sub\n      swap1\n      return\n        /* \"Arevea-NFT-Market/NFT-Contracts/contracts/finalMarket_single.sol\":1631:1732  mapping(address => mapping(uint256 => mapping(address => uint256)))\r... */\n    tag_14:\n      callvalue\n      dup1\n      iszero\n      tag_83\n      jumpi\n      0x00\n      dup1\n      revert\n    tag_83:\n      pop\n      tag_84\n      0x04\n      dup1\n      calldatasize\n      sub\n      dup2\n      add\n      swap1\n      tag_85\n      swap2\n      swap1\n      tag_86\n      jump\t// in\n    tag_85:\n      tag_87\n      jump\t// in\n    tag_84:\n      mload(0x40)\n      tag_88\n      swap2\n      swap1\n      tag_71\n      jump\t// in\n    tag_88:\n      mload(0x40)\n      dup1\n      swap2\n      sub\n      swap1\n      return\n        /* \"Arevea-NFT-Market/NFT-Contracts/contracts/finalMarket_single.sol\":9987:10276  function Sell_AreveaToken(address _erc20_contract, address seller, uint256 _amount) public returns (bool){\r... */\n    tag_15:\n      callvalue\n      dup1\n      iszero\n      tag_89\n      jumpi\n      0x00\n      dup1\n      revert\n    tag_89:\n      pop\n      tag_90\n      0x04\n      dup1\n      calldatasize\n      sub\n      dup2\n      add\n      swap1\n      tag_91\n      swap2\n      swap1\n      tag_30\n      jump\t// in\n    tag_91:\n      tag_92\n      jump\t// in\n    tag_90:\n      mload(0x40)\n      tag_93\n      swap2\n      swap1\n      tag_33\n      jump\t// in\n    tag_93:\n      mload(0x40)\n      dup1\n      swap2\n      sub\n      swap1\n      return\n        /* \"Arevea-NFT-Market/NFT-Contracts/contracts/finalMarket_single.sol\":17808:18549  function _cancelAuctionSale(address _nftContractAddress, uint256 _tokenId)\r... */\n    tag_16:\n      callvalue\n      dup1\n      iszero\n      tag_94\n      jumpi\n      0x00\n      dup1\n      revert\n    tag_94:\n      pop\n      tag_95\n      0x04\n      dup1\n      calldatasize\n      sub\n      dup2\n      add\n      swap1\n      tag_96\n      swap2\n      swap1\n      tag_60\n      jump\t// in\n    tag_96:\n      tag_97\n      jump\t// in\n    tag_95:\n      stop\n        /* \"Arevea-NFT-Market/NFT-Contracts/contracts/finalMarket_single.sol\":21034:21253  function getFixedSale(address _nftContractAddress, uint256 _tokenId)\r... */\n    tag_17:\n      callvalue\n      dup1\n      iszero\n      tag_98\n      jumpi\n      0x00\n      dup1\n      revert\n    tag_98:\n      pop\n      tag_99\n      0x04\n      dup1\n      calldatasize\n      sub\n      dup2\n      add\n      swap1\n      tag_100\n      swap2\n      swap1\n      tag_60\n      jump\t// in\n    tag_100:\n      tag_101\n      jump\t// in\n    tag_99:\n      mload(0x40)\n      tag_102\n      swap2\n      swap1\n      tag_103\n      jump\t// in\n    tag_102:\n      mload(0x40)\n      dup1\n      swap2\n      sub\n      swap1\n      return\n        /* \"Arevea-NFT-Market/NFT-Contracts/contracts/finalMarket_single.sol\":20885:20992  function getFixedSaleNFT() external view returns (SaleInfo[] memory) {\r... */\n    tag_18:\n      callvalue\n      dup1\n      iszero\n      tag_104\n      jumpi\n      0x00\n      dup1\n      revert\n    tag_104:\n      pop\n      tag_105\n      tag_106\n      jump\t// in\n    tag_105:\n      mload(0x40)\n      tag_107\n      swap2\n      swap1\n      tag_49\n      jump\t// in\n    tag_107:\n      mload(0x40)\n      dup1\n      swap2\n      sub\n      swap1\n      return\n        /* \"Arevea-NFT-Market/NFT-Contracts/contracts/finalMarket_single.sol\":12747:13886  function buyFromFixedSale(\r... */\n    tag_19:\n      tag_108\n      0x04\n      dup1\n      calldatasize\n      sub\n      dup2\n      add\n      swap1\n      tag_109\n      swap2\n      swap1\n      tag_43\n      jump\t// in\n    tag_109:\n      tag_110\n      jump\t// in\n    tag_108:\n      stop\n        /* \"Arevea-NFT-Market/NFT-Contracts/contracts/finalMarket_single.sol\":13930:14993  function createNftAuctionSale(\r... */\n    tag_20:\n      callvalue\n      dup1\n      iszero\n      tag_111\n      jumpi\n      0x00\n      dup1\n      revert\n    tag_111:\n      pop\n      tag_112\n      0x04\n      dup1\n      calldatasize\n      sub\n      dup2\n      add\n      swap1\n      tag_113\n      swap2\n      swap1\n      tag_114\n      jump\t// in\n    tag_113:\n      tag_115\n      jump\t// in\n    tag_112:\n      stop\n        /* \"Arevea-NFT-Market/NFT-Contracts/contracts/finalMarket_single.sol\":11495:12081  function cancelFixedsale(address _nftContractAddress, uint256 _tokenId)\r... */\n    tag_21:\n      callvalue\n      dup1\n      iszero\n      tag_116\n      jumpi\n      0x00\n      dup1\n      revert\n    tag_116:\n      pop\n      tag_117\n      0x04\n      dup1\n      calldatasize\n      sub\n      dup2\n      add\n      swap1\n      tag_118\n      swap2\n      swap1\n      tag_60\n      jump\t// in\n    tag_118:\n      tag_119\n      jump\t// in\n    tag_117:\n      stop\n        /* \"Arevea-NFT-Market/NFT-Contracts/contracts/finalMarket_single.sol\":9662:9946  function buyAreveaToken(address _erc20_contract, address _buyer, uint256 _amount) public returns (bool){\r... */\n    tag_31:\n        /* \"Arevea-NFT-Market/NFT-Contracts/contracts/finalMarket_single.sol\":9760:9764  bool */\n      0x00\n        /* \"Arevea-NFT-Market/NFT-Contracts/contracts/finalMarket_single.sol\":9774:9797  address  ERC20_contract */\n      dup1\n        /* \"Arevea-NFT-Market/NFT-Contracts/contracts/finalMarket_single.sol\":9799:9814  _erc20_contract */\n      dup5\n        /* \"Arevea-NFT-Market/NFT-Contracts/contracts/finalMarket_single.sol\":9774:9814  address  ERC20_contract= _erc20_contract */\n      swap1\n      pop\n        /* \"Arevea-NFT-Market/NFT-Contracts/contracts/finalMarket_single.sol\":9830:9844  ERC20_contract */\n      dup1\n        /* \"Arevea-NFT-Market/NFT-Contracts/contracts/finalMarket_single.sol\":9823:9858  IERC20(ERC20_contract).transferFrom */\n      0xffffffffffffffffffffffffffffffffffffffff\n      and\n      0x23b872dd\n        /* \"Arevea-NFT-Market/NFT-Contracts/contracts/finalMarket_single.sol\":9859:9901  0x2258c5b9C82ff0Fa923756ED3FD2aCb5616dF57c */\n      0x2258c5b9c82ff0fa923756ed3fd2acb5616df57c\n        /* \"Arevea-NFT-Market/NFT-Contracts/contracts/finalMarket_single.sol\":9902:9908  _buyer */\n      dup7\n        /* \"Arevea-NFT-Market/NFT-Contracts/contracts/finalMarket_single.sol\":9910:9917  _amount */\n      dup7\n        /* \"Arevea-NFT-Market/NFT-Contracts/contracts/finalMarket_single.sol\":9823:9918  IERC20(ERC20_contract).transferFrom(0x2258c5b9C82ff0Fa923756ED3FD2aCb5616dF57c,_buyer, _amount) */\n      mload(0x40)\n      dup5\n      0xffffffff\n      and\n      0xe0\n      shl\n      dup2\n      mstore\n      0x04\n      add\n      tag_121\n      swap4\n      swap3\n      swap2\n      swap1\n      tag_122\n      jump\t// in\n    tag_121:\n      0x20\n      mload(0x40)\n      dup1\n      dup4\n      sub\n      dup2\n      0x00\n      dup8\n      dup1\n      extcodesize\n      iszero\n      dup1\n      iszero\n      tag_123\n      jumpi\n      0x00\n      dup1\n      revert\n    tag_123:\n      pop\n      gas\n      call\n      iszero\n      dup1\n      iszero\n      tag_125\n      jumpi\n      returndatasize\n      0x00\n      dup1\n      returndatacopy\n      revert(0x00, returndatasize)\n    tag_125:\n      pop\n      pop\n      pop\n      pop\n      mload(0x40)\n      returndatasize\n      not(0x1f)\n      0x1f\n      dup3\n      add\n      and\n      dup3\n      add\n      dup1\n      0x40\n      mstore\n      pop\n      dup2\n      add\n      swap1\n      tag_126\n      swap2\n      swap1\n      tag_127\n      jump\t// in\n    tag_126:\n      pop\n        /* \"Arevea-NFT-Market/NFT-Contracts/contracts/finalMarket_single.sol\":9932:9936  true */\n      0x01\n        /* \"Arevea-NFT-Market/NFT-Contracts/contracts/finalMarket_single.sol\":9925:9937  return(true) */\n      swap2\n      pop\n      pop\n        /* \"Arevea-NFT-Market/NFT-Contracts/contracts/finalMarket_single.sol\":9662:9946  function buyAreveaToken(address _erc20_contract, address _buyer, uint256 _amount) public returns (bool){\r... */\n      swap4\n      swap3\n      pop\n      pop\n      pop\n      jump\t// out\n        /* \"Arevea-NFT-Market/NFT-Contracts/contracts/finalMarket_single.sol\":21299:21514  function onERC721Received(\r... */\n    tag_38:\n        /* \"Arevea-NFT-Market/NFT-Contracts/contracts/finalMarket_single.sol\":21439:21445  bytes4 */\n      0x00\n        /* \"Arevea-NFT-Market/NFT-Contracts/contracts/finalMarket_single.sol\":21465:21506  IERC721Receiver.onERC721Received.selector */\n      shl(0xe0, 0x150b7a02)\n        /* \"Arevea-NFT-Market/NFT-Contracts/contracts/finalMarket_single.sol\":21458:21506  return IERC721Receiver.onERC721Received.selector */\n      swap1\n      pop\n        /* \"Arevea-NFT-Market/NFT-Contracts/contracts/finalMarket_single.sol\":21299:21514  function onERC721Received(\r... */\n      swap6\n      swap5\n      pop\n      pop\n      pop\n      pop\n      pop\n      jump\t// out\n        /* \"Arevea-NFT-Market/NFT-Contracts/contracts/finalMarket_single.sol\":15028:16203  function makeBid(\r... */\n    tag_44:\n        /* \"Arevea-NFT-Market/NFT-Contracts/contracts/finalMarket_single.sol\":15208:15227  _nftContractAddress */\n      dup3\n        /* \"Arevea-NFT-Market/NFT-Contracts/contracts/finalMarket_single.sol\":15229:15237  _tokenId */\n      dup3\n        /* \"Arevea-NFT-Market/NFT-Contracts/contracts/finalMarket_single.sol\":4928:4929  2 */\n      0x02\n        /* \"Arevea-NFT-Market/NFT-Contracts/contracts/finalMarket_single.sol\":4880:4893  nftSaleStatus */\n      dup1\n        /* \"Arevea-NFT-Market/NFT-Contracts/contracts/finalMarket_single.sol\":4880:4914  nftSaleStatus[_nftContractAddress] */\n      0x00\n        /* \"Arevea-NFT-Market/NFT-Contracts/contracts/finalMarket_single.sol\":4894:4913  _nftContractAddress */\n      dup5\n        /* \"Arevea-NFT-Market/NFT-Contracts/contracts/finalMarket_single.sol\":4880:4914  nftSaleStatus[_nftContractAddress] */\n      0xffffffffffffffffffffffffffffffffffffffff\n      and\n      0xffffffffffffffffffffffffffffffffffffffff\n      and\n      dup2\n      mstore\n      0x20\n      add\n      swap1\n      dup2\n      mstore\n      0x20\n      add\n      0x00\n      keccak256\n        /* \"Arevea-NFT-Market/NFT-Contracts/contracts/finalMarket_single.sol\":4880:4924  nftSaleStatus[_nftContractAddress][_tokenId] */\n      0x00\n        /* \"Arevea-NFT-Market/NFT-Contracts/contracts/finalMarket_single.sol\":4915:4923  _tokenId */\n      dup4\n        /* \"Arevea-NFT-Market/NFT-Contracts/contracts/finalMarket_single.sol\":4880:4924  nftSaleStatus[_nftContractAddress][_tokenId] */\n      dup2\n      mstore\n      0x20\n      add\n      swap1\n      dup2\n      mstore\n      0x20\n      add\n      0x00\n      keccak256\n      sload\n        /* \"Arevea-NFT-Market/NFT-Contracts/contracts/finalMarket_single.sol\":4880:4929  nftSaleStatus[_nftContractAddress][_tokenId] == 2 */\n      eq\n        /* \"Arevea-NFT-Market/NFT-Contracts/contracts/finalMarket_single.sol\":4858:4980  require(\r... */\n      tag_130\n      jumpi\n      mload(0x40)\n      0x08c379a000000000000000000000000000000000000000000000000000000000\n      dup2\n      mstore\n      0x04\n      add\n      tag_131\n      swap1\n      tag_132\n      jump\t// in\n    tag_131:\n      mload(0x40)\n      dup1\n      swap2\n      sub\n      swap1\n      revert\n    tag_130:\n        /* \"Arevea-NFT-Market/NFT-Contracts/contracts/finalMarket_single.sol\":15265:15284  _nftContractAddress */\n      dup5\n        /* \"Arevea-NFT-Market/NFT-Contracts/contracts/finalMarket_single.sol\":15286:15294  _tokenId */\n      dup5\n        /* \"Arevea-NFT-Market/NFT-Contracts/contracts/finalMarket_single.sol\":7285:7307  nftContractAuctionSale */\n      0x01\n        /* \"Arevea-NFT-Market/NFT-Contracts/contracts/finalMarket_single.sol\":7285:7328  nftContractAuctionSale[_nftContractAddress] */\n      0x00\n        /* \"Arevea-NFT-Market/NFT-Contracts/contracts/finalMarket_single.sol\":7308:7327  _nftContractAddress */\n      dup4\n        /* \"Arevea-NFT-Market/NFT-Contracts/contracts/finalMarket_single.sol\":7285:7328  nftContractAuctionSale[_nftContractAddress] */\n      0xffffffffffffffffffffffffffffffffffffffff\n      and\n      0xffffffffffffffffffffffffffffffffffffffff\n      and\n      dup2\n      mstore\n      0x20\n      add\n      swap1\n      dup2\n      mstore\n      0x20\n      add\n      0x00\n      keccak256\n        /* \"Arevea-NFT-Market/NFT-Contracts/contracts/finalMarket_single.sol\":7285:7338  nftContractAuctionSale[_nftContractAddress][_tokenId] */\n      0x00\n        /* \"Arevea-NFT-Market/NFT-Contracts/contracts/finalMarket_single.sol\":7329:7337  _tokenId */\n      dup3\n        /* \"Arevea-NFT-Market/NFT-Contracts/contracts/finalMarket_single.sol\":7285:7338  nftContractAuctionSale[_nftContractAddress][_tokenId] */\n      dup2\n      mstore\n      0x20\n      add\n      swap1\n      dup2\n      mstore\n      0x20\n      add\n      0x00\n      keccak256\n        /* \"Arevea-NFT-Market/NFT-Contracts/contracts/finalMarket_single.sol\":7285:7371  nftContractAuctionSale[_nftContractAddress][_tokenId]\r... */\n      0x01\n      add\n      sload\n        /* \"Arevea-NFT-Market/NFT-Contracts/contracts/finalMarket_single.sol\":7250:7265  block.timestamp */\n      timestamp\n        /* \"Arevea-NFT-Market/NFT-Contracts/contracts/finalMarket_single.sol\":7250:7371  block.timestamp <\r... */\n      lt\n        /* \"Arevea-NFT-Market/NFT-Contracts/contracts/finalMarket_single.sol\":7228:7410  require(\r... */\n      tag_134\n      jumpi\n      mload(0x40)\n      0x08c379a000000000000000000000000000000000000000000000000000000000\n      dup2\n      mstore\n      0x04\n      add\n      tag_135\n      swap1\n      tag_136\n      jump\t// in\n    tag_135:\n      mload(0x40)\n      dup1\n      swap2\n      sub\n      swap1\n      revert\n    tag_134:\n        /* \"Arevea-NFT-Market/NFT-Contracts/contracts/finalMarket_single.sol\":15326:15335  _bidPrice */\n      dup5\n        /* \"Arevea-NFT-Market/NFT-Contracts/contracts/finalMarket_single.sol\":9536:9537  0 */\n      0x00\n        /* \"Arevea-NFT-Market/NFT-Contracts/contracts/finalMarket_single.sol\":9527:9533  _price */\n      dup2\n        /* \"Arevea-NFT-Market/NFT-Contracts/contracts/finalMarket_single.sol\":9527:9537  _price > 0 */\n      gt\n        /* \"Arevea-NFT-Market/NFT-Contracts/contracts/finalMarket_single.sol\":9519:9559  require(_price > 0, \"Price cannot be 0\") */\n      tag_138\n      jumpi\n      mload(0x40)\n      0x08c379a000000000000000000000000000000000000000000000000000000000\n      dup2\n      mstore\n      0x04\n      add\n      tag_139\n      swap1\n      tag_140\n      jump\t// in\n    tag_139:\n      mload(0x40)\n      dup1\n      swap2\n      sub\n      swap1\n      revert\n    tag_138:\n        /* \"Arevea-NFT-Market/NFT-Contracts/contracts/finalMarket_single.sol\":15390:15409  _nftContractAddress */\n      dup8\n        /* \"Arevea-NFT-Market/NFT-Contracts/contracts/finalMarket_single.sol\":15424:15432  _tokenId */\n      dup8\n        /* \"Arevea-NFT-Market/NFT-Contracts/contracts/finalMarket_single.sol\":15447:15456  msg.value */\n      callvalue\n        /* \"Arevea-NFT-Market/NFT-Contracts/contracts/finalMarket_single.sol\":15471:15480  _bidPrice */\n      dup9\n        /* \"Arevea-NFT-Market/NFT-Contracts/contracts/finalMarket_single.sol\":6572:6573  0 */\n      0x00\n        /* \"Arevea-NFT-Market/NFT-Contracts/contracts/finalMarket_single.sol\":6488:6574  nftContractAuctionSale[_nftContractAddress][_tokenId].erc20 ==\r... */\n      0xffffffffffffffffffffffffffffffffffffffff\n      and\n        /* \"Arevea-NFT-Market/NFT-Contracts/contracts/finalMarket_single.sol\":6488:6510  nftContractAuctionSale */\n      0x01\n        /* \"Arevea-NFT-Market/NFT-Contracts/contracts/finalMarket_single.sol\":6488:6531  nftContractAuctionSale[_nftContractAddress] */\n      0x00\n        /* \"Arevea-NFT-Market/NFT-Contracts/contracts/finalMarket_single.sol\":6511:6530  _nftContractAddress */\n      dup7\n        /* \"Arevea-NFT-Market/NFT-Contracts/contracts/finalMarket_single.sol\":6488:6531  nftContractAuctionSale[_nftContractAddress] */\n      0xffffffffffffffffffffffffffffffffffffffff\n      and\n      0xffffffffffffffffffffffffffffffffffffffff\n      and\n      dup2\n      mstore\n      0x20\n      add\n      swap1\n      dup2\n      mstore\n      0x20\n      add\n      0x00\n      keccak256\n        /* \"Arevea-NFT-Market/NFT-Contracts/contracts/finalMarket_single.sol\":6488:6541  nftContractAuctionSale[_nftContractAddress][_tokenId] */\n      0x00\n        /* \"Arevea-NFT-Market/NFT-Contracts/contracts/finalMarket_single.sol\":6532:6540  _tokenId */\n      dup6\n        /* \"Arevea-NFT-Market/NFT-Contracts/contracts/finalMarket_single.sol\":6488:6541  nftContractAuctionSale[_nftContractAddress][_tokenId] */\n      dup2\n      mstore\n      0x20\n      add\n      swap1\n      dup2\n      mstore\n      0x20\n      add\n      0x00\n      keccak256\n        /* \"Arevea-NFT-Market/NFT-Contracts/contracts/finalMarket_single.sol\":6488:6547  nftContractAuctionSale[_nftContractAddress][_tokenId].erc20 */\n      0x06\n      add\n      0x00\n      swap1\n      sload\n      swap1\n      0x0100\n      exp\n      swap1\n      div\n      0xffffffffffffffffffffffffffffffffffffffff\n      and\n        /* \"Arevea-NFT-Market/NFT-Contracts/contracts/finalMarket_single.sol\":6488:6574  nftContractAuctionSale[_nftContractAddress][_tokenId].erc20 ==\r... */\n      0xffffffffffffffffffffffffffffffffffffffff\n      and\n      eq\n        /* \"Arevea-NFT-Market/NFT-Contracts/contracts/finalMarket_single.sol\":6470:7081  if (\r... */\n      iszero\n      tag_142\n      jumpi\n        /* \"Arevea-NFT-Market/NFT-Contracts/contracts/finalMarket_single.sol\":6660:6682  nftContractAuctionSale */\n      0x01\n        /* \"Arevea-NFT-Market/NFT-Contracts/contracts/finalMarket_single.sol\":6660:6703  nftContractAuctionSale[_nftContractAddress] */\n      0x00\n        /* \"Arevea-NFT-Market/NFT-Contracts/contracts/finalMarket_single.sol\":6683:6702  _nftContractAddress */\n      dup6\n        /* \"Arevea-NFT-Market/NFT-Contracts/contracts/finalMarket_single.sol\":6660:6703  nftContractAuctionSale[_nftContractAddress] */\n      0xffffffffffffffffffffffffffffffffffffffff\n      and\n      0xffffffffffffffffffffffffffffffffffffffff\n      and\n      dup2\n      mstore\n      0x20\n      add\n      swap1\n      dup2\n      mstore\n      0x20\n      add\n      0x00\n      keccak256\n        /* \"Arevea-NFT-Market/NFT-Contracts/contracts/finalMarket_single.sol\":6660:6713  nftContractAuctionSale[_nftContractAddress][_tokenId] */\n      0x00\n        /* \"Arevea-NFT-Market/NFT-Contracts/contracts/finalMarket_single.sol\":6704:6712  _tokenId */\n      dup5\n        /* \"Arevea-NFT-Market/NFT-Contracts/contracts/finalMarket_single.sol\":6660:6713  nftContractAuctionSale[_nftContractAddress][_tokenId] */\n      dup2\n      mstore\n      0x20\n      add\n      swap1\n      dup2\n      mstore\n      0x20\n      add\n      0x00\n      keccak256\n        /* \"Arevea-NFT-Market/NFT-Contracts/contracts/finalMarket_single.sol\":6660:6753  nftContractAuctionSale[_nftContractAddress][_tokenId]\r... */\n      0x03\n      add\n      sload\n        /* \"Arevea-NFT-Market/NFT-Contracts/contracts/finalMarket_single.sol\":6627:6636  _bidPrice */\n      dup3\n        /* \"Arevea-NFT-Market/NFT-Contracts/contracts/finalMarket_single.sol\":6627:6753  _bidPrice >\r... */\n      gt\n        /* \"Arevea-NFT-Market/NFT-Contracts/contracts/finalMarket_single.sol\":6601:6818  require(\r... */\n      tag_143\n      jumpi\n      mload(0x40)\n      0x08c379a000000000000000000000000000000000000000000000000000000000\n      dup2\n      mstore\n      0x04\n      add\n      tag_144\n      swap1\n      tag_145\n      jump\t// in\n    tag_144:\n      mload(0x40)\n      dup1\n      swap2\n      sub\n      swap1\n      revert\n    tag_143:\n        /* \"Arevea-NFT-Market/NFT-Contracts/contracts/finalMarket_single.sol\":6470:7081  if (\r... */\n      jump(tag_146)\n    tag_142:\n        /* \"Arevea-NFT-Market/NFT-Contracts/contracts/finalMarket_single.sol\":6911:6933  nftContractAuctionSale */\n      0x01\n        /* \"Arevea-NFT-Market/NFT-Contracts/contracts/finalMarket_single.sol\":6911:6954  nftContractAuctionSale[_nftContractAddress] */\n      0x00\n        /* \"Arevea-NFT-Market/NFT-Contracts/contracts/finalMarket_single.sol\":6934:6953  _nftContractAddress */\n      dup6\n        /* \"Arevea-NFT-Market/NFT-Contracts/contracts/finalMarket_single.sol\":6911:6954  nftContractAuctionSale[_nftContractAddress] */\n      0xffffffffffffffffffffffffffffffffffffffff\n      and\n      0xffffffffffffffffffffffffffffffffffffffff\n      and\n      dup2\n      mstore\n      0x20\n      add\n      swap1\n      dup2\n      mstore\n      0x20\n      add\n      0x00\n      keccak256\n        /* \"Arevea-NFT-Market/NFT-Contracts/contracts/finalMarket_single.sol\":6911:6964  nftContractAuctionSale[_nftContractAddress][_tokenId] */\n      0x00\n        /* \"Arevea-NFT-Market/NFT-Contracts/contracts/finalMarket_single.sol\":6955:6963  _tokenId */\n      dup5\n        /* \"Arevea-NFT-Market/NFT-Contracts/contracts/finalMarket_single.sol\":6911:6964  nftContractAuctionSale[_nftContractAddress][_tokenId] */\n      dup2\n      mstore\n      0x20\n      add\n      swap1\n      dup2\n      mstore\n      0x20\n      add\n      0x00\n      keccak256\n        /* \"Arevea-NFT-Market/NFT-Contracts/contracts/finalMarket_single.sol\":6911:7004  nftContractAuctionSale[_nftContractAddress][_tokenId]\r... */\n      0x03\n      add\n      sload\n        /* \"Arevea-NFT-Market/NFT-Contracts/contracts/finalMarket_single.sol\":6877:6887  _bidPrice1 */\n      dup2\n        /* \"Arevea-NFT-Market/NFT-Contracts/contracts/finalMarket_single.sol\":6877:7004  _bidPrice1 >\r... */\n      gt\n        /* \"Arevea-NFT-Market/NFT-Contracts/contracts/finalMarket_single.sol\":6851:7069  require(\r... */\n      tag_147\n      jumpi\n      mload(0x40)\n      0x08c379a000000000000000000000000000000000000000000000000000000000\n      dup2\n      mstore\n      0x04\n      add\n      tag_148\n      swap1\n      tag_145\n      jump\t// in\n    tag_148:\n      mload(0x40)\n      dup1\n      swap2\n      sub\n      swap1\n      revert\n    tag_147:\n        /* \"Arevea-NFT-Market/NFT-Contracts/contracts/finalMarket_single.sol\":6470:7081  if (\r... */\n    tag_146:\n        /* \"Arevea-NFT-Market/NFT-Contracts/contracts/finalMarket_single.sol\":15610:15611  0 */\n      0x00\n        /* \"Arevea-NFT-Market/NFT-Contracts/contracts/finalMarket_single.sol\":15526:15612  nftContractAuctionSale[_nftContractAddress][_tokenId].erc20 !=\r... */\n      0xffffffffffffffffffffffffffffffffffffffff\n      and\n        /* \"Arevea-NFT-Market/NFT-Contracts/contracts/finalMarket_single.sol\":15526:15548  nftContractAuctionSale */\n      0x01\n        /* \"Arevea-NFT-Market/NFT-Contracts/contracts/finalMarket_single.sol\":15526:15569  nftContractAuctionSale[_nftContractAddress] */\n      0x00\n        /* \"Arevea-NFT-Market/NFT-Contracts/contracts/finalMarket_single.sol\":15549:15568  _nftContractAddress */\n      dup15\n        /* \"Arevea-NFT-Market/NFT-Contracts/contracts/finalMarket_single.sol\":15526:15569  nftContractAuctionSale[_nftContractAddress] */\n      0xffffffffffffffffffffffffffffffffffffffff\n      and\n      0xffffffffffffffffffffffffffffffffffffffff\n      and\n      dup2\n      mstore\n      0x20\n      add\n      swap1\n      dup2\n      mstore\n      0x20\n      add\n      0x00\n      keccak256\n        /* \"Arevea-NFT-Market/NFT-Contracts/contracts/finalMarket_single.sol\":15526:15579  nftContractAuctionSale[_nftContractAddress][_tokenId] */\n      0x00\n        /* \"Arevea-NFT-Market/NFT-Contracts/contracts/finalMarket_single.sol\":15570:15578  _tokenId */\n      dup14\n        /* \"Arevea-NFT-Market/NFT-Contracts/contracts/finalMarket_single.sol\":15526:15579  nftContractAuctionSale[_nftContractAddress][_tokenId] */\n      dup2\n      mstore\n      0x20\n      add\n      swap1\n      dup2\n      mstore\n      0x20\n      add\n      0x00\n      keccak256\n        /* \"Arevea-NFT-Market/NFT-Contracts/contracts/finalMarket_single.sol\":15526:15585  nftContractAuctionSale[_nftContractAddress][_tokenId].erc20 */\n      0x06\n      add\n      0x00\n      swap1\n      sload\n      swap1\n      0x0100\n      exp\n      swap1\n      div\n      0xffffffffffffffffffffffffffffffffffffffff\n      and\n        /* \"Arevea-NFT-Market/NFT-Contracts/contracts/finalMarket_single.sol\":15526:15612  nftContractAuctionSale[_nftContractAddress][_tokenId].erc20 !=\r... */\n      0xffffffffffffffffffffffffffffffffffffffff\n      and\n      eq\n        /* \"Arevea-NFT-Market/NFT-Contracts/contracts/finalMarket_single.sol\":15508:15790  if (\r... */\n      tag_150\n      jumpi\n        /* \"Arevea-NFT-Market/NFT-Contracts/contracts/finalMarket_single.sol\":15639:15778  _bidAmountTransfer(\r... */\n      tag_151\n        /* \"Arevea-NFT-Market/NFT-Contracts/contracts/finalMarket_single.sol\":15676:15685  _bidPrice */\n      dup11\n        /* \"Arevea-NFT-Market/NFT-Contracts/contracts/finalMarket_single.sol\":15704:15726  nftContractAuctionSale */\n      0x01\n        /* \"Arevea-NFT-Market/NFT-Contracts/contracts/finalMarket_single.sol\":15704:15747  nftContractAuctionSale[_nftContractAddress] */\n      0x00\n        /* \"Arevea-NFT-Market/NFT-Contracts/contracts/finalMarket_single.sol\":15727:15746  _nftContractAddress */\n      dup16\n        /* \"Arevea-NFT-Market/NFT-Contracts/contracts/finalMarket_single.sol\":15704:15747  nftContractAuctionSale[_nftContractAddress] */\n      0xffffffffffffffffffffffffffffffffffffffff\n      and\n      0xffffffffffffffffffffffffffffffffffffffff\n      and\n      dup2\n      mstore\n      0x20\n      add\n      swap1\n      dup2\n      mstore\n      0x20\n      add\n      0x00\n      keccak256\n        /* \"Arevea-NFT-Market/NFT-Contracts/contracts/finalMarket_single.sol\":15704:15757  nftContractAuctionSale[_nftContractAddress][_tokenId] */\n      0x00\n        /* \"Arevea-NFT-Market/NFT-Contracts/contracts/finalMarket_single.sol\":15748:15756  _tokenId */\n      dup15\n        /* \"Arevea-NFT-Market/NFT-Contracts/contracts/finalMarket_single.sol\":15704:15757  nftContractAuctionSale[_nftContractAddress][_tokenId] */\n      dup2\n      mstore\n      0x20\n      add\n      swap1\n      dup2\n      mstore\n      0x20\n      add\n      0x00\n      keccak256\n        /* \"Arevea-NFT-Market/NFT-Contracts/contracts/finalMarket_single.sol\":15704:15763  nftContractAuctionSale[_nftContractAddress][_tokenId].erc20 */\n      0x06\n      add\n      0x00\n      swap1\n      sload\n      swap1\n      0x0100\n      exp\n      swap1\n      div\n      0xffffffffffffffffffffffffffffffffffffffff\n      and\n        /* \"Arevea-NFT-Market/NFT-Contracts/contracts/finalMarket_single.sol\":15639:15657  _bidAmountTransfer */\n      tag_152\n        /* \"Arevea-NFT-Market/NFT-Contracts/contracts/finalMarket_single.sol\":15639:15778  _bidAmountTransfer(\r... */\n      jump\t// in\n    tag_151:\n        /* \"Arevea-NFT-Market/NFT-Contracts/contracts/finalMarket_single.sol\":15508:15790  if (\r... */\n    tag_150:\n        /* \"Arevea-NFT-Market/NFT-Contracts/contracts/finalMarket_single.sol\":15886:15895  _bidPrice */\n      dup10\n        /* \"Arevea-NFT-Market/NFT-Contracts/contracts/finalMarket_single.sol\":15802:15824  nftContractAuctionSale */\n      0x01\n        /* \"Arevea-NFT-Market/NFT-Contracts/contracts/finalMarket_single.sol\":15802:15845  nftContractAuctionSale[_nftContractAddress] */\n      0x00\n        /* \"Arevea-NFT-Market/NFT-Contracts/contracts/finalMarket_single.sol\":15825:15844  _nftContractAddress */\n      dup15\n        /* \"Arevea-NFT-Market/NFT-Contracts/contracts/finalMarket_single.sol\":15802:15845  nftContractAuctionSale[_nftContractAddress] */\n      0xffffffffffffffffffffffffffffffffffffffff\n      and\n      0xffffffffffffffffffffffffffffffffffffffff\n      and\n      dup2\n      mstore\n      0x20\n      add\n      swap1\n      dup2\n      mstore\n      0x20\n      add\n      0x00\n      keccak256\n        /* \"Arevea-NFT-Market/NFT-Contracts/contracts/finalMarket_single.sol\":15802:15855  nftContractAuctionSale[_nftContractAddress][_tokenId] */\n      0x00\n        /* \"Arevea-NFT-Market/NFT-Contracts/contracts/finalMarket_single.sol\":15846:15854  _tokenId */\n      dup14\n        /* \"Arevea-NFT-Market/NFT-Contracts/contracts/finalMarket_single.sol\":15802:15855  nftContractAuctionSale[_nftContractAddress][_tokenId] */\n      dup2\n      mstore\n      0x20\n      add\n      swap1\n      dup2\n      mstore\n      0x20\n      add\n      0x00\n      keccak256\n        /* \"Arevea-NFT-Market/NFT-Contracts/contracts/finalMarket_single.sol\":15802:15883  nftContractAuctionSale[_nftContractAddress][_tokenId]\r... */\n      0x03\n      add\n        /* \"Arevea-NFT-Market/NFT-Contracts/contracts/finalMarket_single.sol\":15802:15895  nftContractAuctionSale[_nftContractAddress][_tokenId]\r... */\n      dup2\n      swap1\n      sstore\n      pop\n        /* \"Arevea-NFT-Market/NFT-Contracts/contracts/finalMarket_single.sol\":15993:16003  msg.sender */\n      caller\n        /* \"Arevea-NFT-Market/NFT-Contracts/contracts/finalMarket_single.sol\":15906:15928  nftContractAuctionSale */\n      0x01\n        /* \"Arevea-NFT-Market/NFT-Contracts/contracts/finalMarket_single.sol\":15906:15949  nftContractAuctionSale[_nftContractAddress] */\n      0x00\n        /* \"Arevea-NFT-Market/NFT-Contracts/contracts/finalMarket_single.sol\":15929:15948  _nftContractAddress */\n      dup15\n        /* \"Arevea-NFT-Market/NFT-Contracts/contracts/finalMarket_single.sol\":15906:15949  nftContractAuctionSale[_nftContractAddress] */\n      0xffffffffffffffffffffffffffffffffffffffff\n      and\n      0xffffffffffffffffffffffffffffffffffffffff\n      and\n      dup2\n      mstore\n      0x20\n      add\n      swap1\n      dup2\n      mstore\n      0x20\n      add\n      0x00\n      keccak256\n        /* \"Arevea-NFT-Market/NFT-Contracts/contracts/finalMarket_single.sol\":15906:15959  nftContractAuctionSale[_nftContractAddress][_tokenId] */\n      0x00\n        /* \"Arevea-NFT-Market/NFT-Contracts/contracts/finalMarket_single.sol\":15950:15958  _tokenId */\n      dup14\n        /* \"Arevea-NFT-Market/NFT-Contracts/contracts/finalMarket_single.sol\":15906:15959  nftContractAuctionSale[_nftContractAddress][_tokenId] */\n      dup2\n      mstore\n      0x20\n      add\n      swap1\n      dup2\n      mstore\n      0x20\n      add\n      0x00\n      keccak256\n        /* \"Arevea-NFT-Market/NFT-Contracts/contracts/finalMarket_single.sol\":15906:15990  nftContractAuctionSale[_nftContractAddress][_tokenId]\r... */\n      0x04\n      add\n      0x00\n        /* \"Arevea-NFT-Market/NFT-Contracts/contracts/finalMarket_single.sol\":15906:16003  nftContractAuctionSale[_nftContractAddress][_tokenId]\r... */\n      0x0100\n      exp\n      dup2\n      sload\n      dup2\n      0xffffffffffffffffffffffffffffffffffffffff\n      mul\n      not\n      and\n      swap1\n      dup4\n      0xffffffffffffffffffffffffffffffffffffffff\n      and\n      mul\n      or\n      swap1\n      sstore\n      pop\n        /* \"Arevea-NFT-Market/NFT-Contracts/contracts/finalMarket_single.sol\":16103:16112  _bidPrice */\n      dup10\n        /* \"Arevea-NFT-Market/NFT-Contracts/contracts/finalMarket_single.sol\":16016:16033  userBidPriceOnNFT */\n      0x03\n        /* \"Arevea-NFT-Market/NFT-Contracts/contracts/finalMarket_single.sol\":16016:16054  userBidPriceOnNFT[_nftContractAddress] */\n      0x00\n        /* \"Arevea-NFT-Market/NFT-Contracts/contracts/finalMarket_single.sol\":16034:16053  _nftContractAddress */\n      dup15\n        /* \"Arevea-NFT-Market/NFT-Contracts/contracts/finalMarket_single.sol\":16016:16054  userBidPriceOnNFT[_nftContractAddress] */\n      0xffffffffffffffffffffffffffffffffffffffff\n      and\n      0xffffffffffffffffffffffffffffffffffffffff\n      and\n      dup2\n      mstore\n      0x20\n      add\n      swap1\n      dup2\n      mstore\n      0x20\n      add\n      0x00\n      keccak256\n        /* \"Arevea-NFT-Market/NFT-Contracts/contracts/finalMarket_single.sol\":16016:16064  userBidPriceOnNFT[_nftContractAddress][_tokenId] */\n      0x00\n        /* \"Arevea-NFT-Market/NFT-Contracts/contracts/finalMarket_single.sol\":16055:16063  _tokenId */\n      dup14\n        /* \"Arevea-NFT-Market/NFT-Contracts/contracts/finalMarket_single.sol\":16016:16064  userBidPriceOnNFT[_nftContractAddress][_tokenId] */\n      dup2\n      mstore\n      0x20\n      add\n      swap1\n      dup2\n      mstore\n      0x20\n      add\n      0x00\n      keccak256\n        /* \"Arevea-NFT-Market/NFT-Contracts/contracts/finalMarket_single.sol\":16016:16100  userBidPriceOnNFT[_nftContractAddress][_tokenId][\r... */\n      0x00\n        /* \"Arevea-NFT-Market/NFT-Contracts/contracts/finalMarket_single.sol\":16079:16089  msg.sender */\n      caller\n        /* \"Arevea-NFT-Market/NFT-Contracts/contracts/finalMarket_single.sol\":16016:16100  userBidPriceOnNFT[_nftContractAddress][_tokenId][\r... */\n      0xffffffffffffffffffffffffffffffffffffffff\n      and\n      0xffffffffffffffffffffffffffffffffffffffff\n      and\n      dup2\n      mstore\n      0x20\n      add\n      swap1\n      dup2\n      mstore\n      0x20\n      add\n      0x00\n      keccak256\n        /* \"Arevea-NFT-Market/NFT-Contracts/contracts/finalMarket_single.sol\":16016:16112  userBidPriceOnNFT[_nftContractAddress][_tokenId][\r... */\n      dup2\n      swap1\n      sstore\n      pop\n        /* \"Arevea-NFT-Market/NFT-Contracts/contracts/finalMarket_single.sol\":16130:16195  NftBidPrice(_nftContractAddress, _tokenId, _bidPrice, msg.sender) */\n      0xd56cb6210c78740462007b728932c802bc41b205ed5c8a98ab95421eaf054b22\n        /* \"Arevea-NFT-Market/NFT-Contracts/contracts/finalMarket_single.sol\":16142:16161  _nftContractAddress */\n      dup13\n        /* \"Arevea-NFT-Market/NFT-Contracts/contracts/finalMarket_single.sol\":16163:16171  _tokenId */\n      dup13\n        /* \"Arevea-NFT-Market/NFT-Contracts/contracts/finalMarket_single.sol\":16173:16182  _bidPrice */\n      dup13\n        /* \"Arevea-NFT-Market/NFT-Contracts/contracts/finalMarket_single.sol\":16184:16194  msg.sender */\n      caller\n        /* \"Arevea-NFT-Market/NFT-Contracts/contracts/finalMarket_single.sol\":16130:16195  NftBidPrice(_nftContractAddress, _tokenId, _bidPrice, msg.sender) */\n      mload(0x40)\n      tag_153\n      swap5\n      swap4\n      swap3\n      swap2\n      swap1\n      tag_154\n      jump\t// in\n    tag_153:\n      mload(0x40)\n      dup1\n      swap2\n      sub\n      swap1\n      log1\n        /* \"Arevea-NFT-Market/NFT-Contracts/contracts/finalMarket_single.sol\":9570:9571  _ */\n      pop\n      pop\n      pop\n      pop\n        /* \"Arevea-NFT-Market/NFT-Contracts/contracts/finalMarket_single.sol\":7421:7422  _ */\n      pop\n        /* \"Arevea-NFT-Market/NFT-Contracts/contracts/finalMarket_single.sol\":4991:4992  _ */\n      pop\n      pop\n        /* \"Arevea-NFT-Market/NFT-Contracts/contracts/finalMarket_single.sol\":15028:16203  function makeBid(\r... */\n      pop\n      pop\n      pop\n      pop\n      pop\n      jump\t// out\n        /* \"Arevea-NFT-Market/NFT-Contracts/contracts/finalMarket_single.sol\":20731:20842  function getAuctionSaleNFT() external view returns (SaleInfo[] memory) {\r... */\n    tag_47:\n        /* \"Arevea-NFT-Market/NFT-Contracts/contracts/finalMarket_single.sol\":20783:20800  SaleInfo[] memory */\n      0x60\n        /* \"Arevea-NFT-Market/NFT-Contracts/contracts/finalMarket_single.sol\":20820:20834  auctionSaleNFT */\n      0x07\n        /* \"Arevea-NFT-Market/NFT-Contracts/contracts/finalMarket_single.sol\":20813:20834  return auctionSaleNFT */\n      dup1\n      sload\n      dup1\n      0x20\n      mul\n      0x20\n      add\n      mload(0x40)\n      swap1\n      dup2\n      add\n      0x40\n      mstore\n      dup1\n      swap3\n      swap2\n      swap1\n      dup2\n      dup2\n      mstore\n      0x20\n      add\n      0x00\n      swap1\n    tag_156:\n      dup3\n      dup3\n      lt\n      iszero\n      tag_157\n      jumpi\n      dup4\n      dup3\n      swap1\n      0x00\n      mstore\n      keccak256(0x00, 0x20)\n      swap1\n      0x02\n      mul\n      add\n      mload(0x40)\n      dup1\n      0x40\n      add\n      0x40\n      mstore\n      swap1\n      dup2\n      0x00\n      dup3\n      add\n      0x00\n      swap1\n      sload\n      swap1\n      0x0100\n      exp\n      swap1\n      div\n      0xffffffffffffffffffffffffffffffffffffffff\n      and\n      0xffffffffffffffffffffffffffffffffffffffff\n      and\n      0xffffffffffffffffffffffffffffffffffffffff\n      and\n      dup2\n      mstore\n      0x20\n      add\n      0x01\n      dup3\n      add\n      sload\n      dup2\n      mstore\n      pop\n      pop\n      dup2\n      mstore\n      0x20\n      add\n      swap1\n      0x01\n      add\n      swap1\n      jump(tag_156)\n    tag_157:\n      pop\n      pop\n      pop\n      pop\n      swap1\n      pop\n        /* \"Arevea-NFT-Market/NFT-Contracts/contracts/finalMarket_single.sol\":20731:20842  function getAuctionSaleNFT() external view returns (SaleInfo[] memory) {\r... */\n      swap1\n      jump\t// out\n        /* \"Arevea-NFT-Market/NFT-Contracts/contracts/finalMarket_single.sol\":16246:17762  function updateTheBidPrice(\r... */\n    tag_52:\n        /* \"Arevea-NFT-Market/NFT-Contracts/contracts/finalMarket_single.sol\":16442:16461  _nftContractAddress */\n      dup3\n        /* \"Arevea-NFT-Market/NFT-Contracts/contracts/finalMarket_single.sol\":16463:16471  _tokenId */\n      dup3\n        /* \"Arevea-NFT-Market/NFT-Contracts/contracts/finalMarket_single.sol\":4928:4929  2 */\n      0x02\n        /* \"Arevea-NFT-Market/NFT-Contracts/contracts/finalMarket_single.sol\":4880:4893  nftSaleStatus */\n      dup1\n        /* \"Arevea-NFT-Market/NFT-Contracts/contracts/finalMarket_single.sol\":4880:4914  nftSaleStatus[_nftContractAddress] */\n      0x00\n        /* \"Arevea-NFT-Market/NFT-Contracts/contracts/finalMarket_single.sol\":4894:4913  _nftContractAddress */\n      dup5\n        /* \"Arevea-NFT-Market/NFT-Contracts/contracts/finalMarket_single.sol\":4880:4914  nftSaleStatus[_nftContractAddress] */\n      0xffffffffffffffffffffffffffffffffffffffff\n      and\n      0xffffffffffffffffffffffffffffffffffffffff\n      and\n      dup2\n      mstore\n      0x20\n      add\n      swap1\n      dup2\n      mstore\n      0x20\n      add\n      0x00\n      keccak256\n        /* \"Arevea-NFT-Market/NFT-Contracts/contracts/finalMarket_single.sol\":4880:4924  nftSaleStatus[_nftContractAddress][_tokenId] */\n      0x00\n        /* \"Arevea-NFT-Market/NFT-Contracts/contracts/finalMarket_single.sol\":4915:4923  _tokenId */\n      dup4\n        /* \"Arevea-NFT-Market/NFT-Contracts/contracts/finalMarket_single.sol\":4880:4924  nftSaleStatus[_nftContractAddress][_tokenId] */\n      dup2\n      mstore\n      0x20\n      add\n      swap1\n      dup2\n      mstore\n      0x20\n      add\n      0x00\n      keccak256\n      sload\n        /* \"Arevea-NFT-Market/NFT-Contracts/contracts/finalMarket_single.sol\":4880:4929  nftSaleStatus[_nftContractAddress][_tokenId] == 2 */\n      eq\n        /* \"Arevea-NFT-Market/NFT-Contracts/contracts/finalMarket_single.sol\":4858:4980  require(\r... */\n      tag_160\n      jumpi\n      mload(0x40)\n      0x08c379a000000000000000000000000000000000000000000000000000000000\n      dup2\n      mstore\n      0x04\n      add\n      tag_161\n      swap1\n      tag_132\n      jump\t// in\n    tag_161:\n      mload(0x40)\n      dup1\n      swap2\n      sub\n      swap1\n      revert\n    tag_160:\n        /* \"Arevea-NFT-Market/NFT-Contracts/contracts/finalMarket_single.sol\":16499:16518  _nftContractAddress */\n      dup5\n        /* \"Arevea-NFT-Market/NFT-Contracts/contracts/finalMarket_single.sol\":16520:16528  _tokenId */\n      dup5\n        /* \"Arevea-NFT-Market/NFT-Contracts/contracts/finalMarket_single.sol\":7285:7307  nftContractAuctionSale */\n      0x01\n        /* \"Arevea-NFT-Market/NFT-Contracts/contracts/finalMarket_single.sol\":7285:7328  nftContractAuctionSale[_nftContractAddress] */\n      0x00\n        /* \"Arevea-NFT-Market/NFT-Contracts/contracts/finalMarket_single.sol\":7308:7327  _nftContractAddress */\n      dup4\n        /* \"Arevea-NFT-Market/NFT-Contracts/contracts/finalMarket_single.sol\":7285:7328  nftContractAuctionSale[_nftContractAddress] */\n      0xffffffffffffffffffffffffffffffffffffffff\n      and\n      0xffffffffffffffffffffffffffffffffffffffff\n      and\n      dup2\n      mstore\n      0x20\n      add\n      swap1\n      dup2\n      mstore\n      0x20\n      add\n      0x00\n      keccak256\n        /* \"Arevea-NFT-Market/NFT-Contracts/contracts/finalMarket_single.sol\":7285:7338  nftContractAuctionSale[_nftContractAddress][_tokenId] */\n      0x00\n        /* \"Arevea-NFT-Market/NFT-Contracts/contracts/finalMarket_single.sol\":7329:7337  _tokenId */\n      dup3\n        /* \"Arevea-NFT-Market/NFT-Contracts/contracts/finalMarket_single.sol\":7285:7338  nftContractAuctionSale[_nftContractAddress][_tokenId] */\n      dup2\n      mstore\n      0x20\n      add\n      swap1\n      dup2\n      mstore\n      0x20\n      add\n      0x00\n      keccak256\n        /* \"Arevea-NFT-Market/NFT-Contracts/contracts/finalMarket_single.sol\":7285:7371  nftContractAuctionSale[_nftContractAddress][_tokenId]\r... */\n      0x01\n      add\n      sload\n        /* \"Arevea-NFT-Market/NFT-Contracts/contracts/finalMarket_single.sol\":7250:7265  block.timestamp */\n      timestamp\n        /* \"Arevea-NFT-Market/NFT-Contracts/contracts/finalMarket_single.sol\":7250:7371  block.timestamp <\r... */\n      lt\n        /* \"Arevea-NFT-Market/NFT-Contracts/contracts/finalMarket_single.sol\":7228:7410  require(\r... */\n      tag_163\n      jumpi\n      mload(0x40)\n      0x08c379a000000000000000000000000000000000000000000000000000000000\n      dup2\n      mstore\n      0x04\n      add\n      tag_164\n      swap1\n      tag_136\n      jump\t// in\n    tag_164:\n      mload(0x40)\n      dup1\n      swap2\n      sub\n      swap1\n      revert\n    tag_163:\n        /* \"Arevea-NFT-Market/NFT-Contracts/contracts/finalMarket_single.sol\":16560:16569  msg.value */\n      callvalue\n        /* \"Arevea-NFT-Market/NFT-Contracts/contracts/finalMarket_single.sol\":9536:9537  0 */\n      0x00\n        /* \"Arevea-NFT-Market/NFT-Contracts/contracts/finalMarket_single.sol\":9527:9533  _price */\n      dup2\n        /* \"Arevea-NFT-Market/NFT-Contracts/contracts/finalMarket_single.sol\":9527:9537  _price > 0 */\n      gt\n        /* \"Arevea-NFT-Market/NFT-Contracts/contracts/finalMarket_single.sol\":9519:9559  require(_price > 0, \"Price cannot be 0\") */\n      tag_166\n      jumpi\n      mload(0x40)\n      0x08c379a000000000000000000000000000000000000000000000000000000000\n      dup2\n      mstore\n      0x04\n      add\n      tag_167\n      swap1\n      tag_140\n      jump\t// in\n    tag_167:\n      mload(0x40)\n      dup1\n      swap2\n      sub\n      swap1\n      revert\n    tag_166:\n        /* \"Arevea-NFT-Market/NFT-Contracts/contracts/finalMarket_single.sol\":16625:16644  _nftContractAddress */\n      dup8\n        /* \"Arevea-NFT-Market/NFT-Contracts/contracts/finalMarket_single.sol\":16659:16667  _tokenId */\n      dup8\n        /* \"Arevea-NFT-Market/NFT-Contracts/contracts/finalMarket_single.sol\":16682:16691  msg.value */\n      callvalue\n        /* \"Arevea-NFT-Market/NFT-Contracts/contracts/finalMarket_single.sol\":16706:16721  _updateBidPrice */\n      dup9\n        /* \"Arevea-NFT-Market/NFT-Contracts/contracts/finalMarket_single.sol\":8001:8023  uint256 _finalBidPrice */\n      0x00\n        /* \"Arevea-NFT-Market/NFT-Contracts/contracts/finalMarket_single.sol\":8136:8137  0 */\n      dup1\n        /* \"Arevea-NFT-Market/NFT-Contracts/contracts/finalMarket_single.sol\":8052:8138  nftContractAuctionSale[_nftContractAddress][_tokenId].erc20 ==\r... */\n      0xffffffffffffffffffffffffffffffffffffffff\n      and\n        /* \"Arevea-NFT-Market/NFT-Contracts/contracts/finalMarket_single.sol\":8052:8074  nftContractAuctionSale */\n      0x01\n        /* \"Arevea-NFT-Market/NFT-Contracts/contracts/finalMarket_single.sol\":8052:8095  nftContractAuctionSale[_nftContractAddress] */\n      0x00\n        /* \"Arevea-NFT-Market/NFT-Contracts/contracts/finalMarket_single.sol\":8075:8094  _nftContractAddress */\n      dup8\n        /* \"Arevea-NFT-Market/NFT-Contracts/contracts/finalMarket_single.sol\":8052:8095  nftContractAuctionSale[_nftContractAddress] */\n      0xffffffffffffffffffffffffffffffffffffffff\n      and\n      0xffffffffffffffffffffffffffffffffffffffff\n      and\n      dup2\n      mstore\n      0x20\n      add\n      swap1\n      dup2\n      mstore\n      0x20\n      add\n      0x00\n      keccak256\n        /* \"Arevea-NFT-Market/NFT-Contracts/contracts/finalMarket_single.sol\":8052:8105  nftContractAuctionSale[_nftContractAddress][_tokenId] */\n      0x00\n        /* \"Arevea-NFT-Market/NFT-Contracts/contracts/finalMarket_single.sol\":8096:8104  _tokenId */\n      dup7\n        /* \"Arevea-NFT-Market/NFT-Contracts/contracts/finalMarket_single.sol\":8052:8105  nftContractAuctionSale[_nftContractAddress][_tokenId] */\n      dup2\n      mstore\n      0x20\n      add\n      swap1\n      dup2\n      mstore\n      0x20\n      add\n      0x00\n      keccak256\n        /* \"Arevea-NFT-Market/NFT-Contracts/contracts/finalMarket_single.sol\":8052:8111  nftContractAuctionSale[_nftContractAddress][_tokenId].erc20 */\n      0x06\n      add\n      0x00\n      swap1\n      sload\n      swap1\n      0x0100\n      exp\n      swap1\n      div\n      0xffffffffffffffffffffffffffffffffffffffff\n      and\n        /* \"Arevea-NFT-Market/NFT-Contracts/contracts/finalMarket_single.sol\":8052:8138  nftContractAuctionSale[_nftContractAddress][_tokenId].erc20 ==\r... */\n      0xffffffffffffffffffffffffffffffffffffffff\n      and\n      eq\n        /* \"Arevea-NFT-Market/NFT-Contracts/contracts/finalMarket_single.sol\":8034:8471  if (\r... */\n      iszero\n      tag_169\n      jumpi\n        /* \"Arevea-NFT-Market/NFT-Contracts/contracts/finalMarket_single.sol\":8182:8295  userBidPriceOnNFT[_nftContractAddress][_tokenId][\r... */\n      tag_170\n        /* \"Arevea-NFT-Market/NFT-Contracts/contracts/finalMarket_single.sol\":8279:8294  _updateBidPrice */\n      dup4\n        /* \"Arevea-NFT-Market/NFT-Contracts/contracts/finalMarket_single.sol\":8182:8199  userBidPriceOnNFT */\n      0x03\n        /* \"Arevea-NFT-Market/NFT-Contracts/contracts/finalMarket_single.sol\":8182:8220  userBidPriceOnNFT[_nftContractAddress] */\n      0x00\n        /* \"Arevea-NFT-Market/NFT-Contracts/contracts/finalMarket_single.sol\":8200:8219  _nftContractAddress */\n      dup9\n        /* \"Arevea-NFT-Market/NFT-Contracts/contracts/finalMarket_single.sol\":8182:8220  userBidPriceOnNFT[_nftContractAddress] */\n      0xffffffffffffffffffffffffffffffffffffffff\n      and\n      0xffffffffffffffffffffffffffffffffffffffff\n      and\n      dup2\n      mstore\n      0x20\n      add\n      swap1\n      dup2\n      mstore\n      0x20\n      add\n      0x00\n      keccak256\n        /* \"Arevea-NFT-Market/NFT-Contracts/contracts/finalMarket_single.sol\":8182:8230  userBidPriceOnNFT[_nftContractAddress][_tokenId] */\n      0x00\n        /* \"Arevea-NFT-Market/NFT-Contracts/contracts/finalMarket_single.sol\":8221:8229  _tokenId */\n      dup8\n        /* \"Arevea-NFT-Market/NFT-Contracts/contracts/finalMarket_single.sol\":8182:8230  userBidPriceOnNFT[_nftContractAddress][_tokenId] */\n      dup2\n      mstore\n      0x20\n      add\n      swap1\n      dup2\n      mstore\n      0x20\n      add\n      0x00\n      keccak256\n        /* \"Arevea-NFT-Market/NFT-Contracts/contracts/finalMarket_single.sol\":8182:8274  userBidPriceOnNFT[_nftContractAddress][_tokenId][\r... */\n      0x00\n        /* \"Arevea-NFT-Market/NFT-Contracts/contracts/finalMarket_single.sol\":8249:8259  msg.sender */\n      caller\n        /* \"Arevea-NFT-Market/NFT-Contracts/contracts/finalMarket_single.sol\":8182:8274  userBidPriceOnNFT[_nftContractAddress][_tokenId][\r... */\n      0xffffffffffffffffffffffffffffffffffffffff\n      and\n      0xffffffffffffffffffffffffffffffffffffffff\n      and\n      dup2\n      mstore\n      0x20\n      add\n      swap1\n      dup2\n      mstore\n      0x20\n      add\n      0x00\n      keccak256\n      sload\n        /* \"Arevea-NFT-Market/NFT-Contracts/contracts/finalMarket_single.sol\":8182:8278  userBidPriceOnNFT[_nftContractAddress][_tokenId][\r... */\n      tag_171\n      swap1\n        /* \"Arevea-NFT-Market/NFT-Contracts/contracts/finalMarket_single.sol\":8182:8295  userBidPriceOnNFT[_nftContractAddress][_tokenId][\r... */\n      swap2\n      swap1\n      0xffffffff\n      and\n      jump\t// in\n    tag_170:\n        /* \"Arevea-NFT-Market/NFT-Contracts/contracts/finalMarket_single.sol\":8165:8295  _finalBidPrice = userBidPriceOnNFT[_nftContractAddress][_tokenId][\r... */\n      swap1\n      pop\n        /* \"Arevea-NFT-Market/NFT-Contracts/contracts/finalMarket_single.sol\":8034:8471  if (\r... */\n      jump(tag_172)\n    tag_169:\n        /* \"Arevea-NFT-Market/NFT-Contracts/contracts/finalMarket_single.sol\":8345:8459  userBidPriceOnNFT[_nftContractAddress][_tokenId][\r... */\n      tag_173\n        /* \"Arevea-NFT-Market/NFT-Contracts/contracts/finalMarket_single.sol\":8442:8458  _updateBidPrice1 */\n      dup3\n        /* \"Arevea-NFT-Market/NFT-Contracts/contracts/finalMarket_single.sol\":8345:8362  userBidPriceOnNFT */\n      0x03\n        /* \"Arevea-NFT-Market/NFT-Contracts/contracts/finalMarket_single.sol\":8345:8383  userBidPriceOnNFT[_nftContractAddress] */\n      0x00\n        /* \"Arevea-NFT-Market/NFT-Contracts/contracts/finalMarket_single.sol\":8363:8382  _nftContractAddress */\n      dup9\n        /* \"Arevea-NFT-Market/NFT-Contracts/contracts/finalMarket_single.sol\":8345:8383  userBidPriceOnNFT[_nftContractAddress] */\n      0xffffffffffffffffffffffffffffffffffffffff\n      and\n      0xffffffffffffffffffffffffffffffffffffffff\n      and\n      dup2\n      mstore\n      0x20\n      add\n      swap1\n      dup2\n      mstore\n      0x20\n      add\n      0x00\n      keccak256\n        /* \"Arevea-NFT-Market/NFT-Contracts/contracts/finalMarket_single.sol\":8345:8393  userBidPriceOnNFT[_nftContractAddress][_tokenId] */\n      0x00\n        /* \"Arevea-NFT-Market/NFT-Contracts/contracts/finalMarket_single.sol\":8384:8392  _tokenId */\n      dup8\n        /* \"Arevea-NFT-Market/NFT-Contracts/contracts/finalMarket_single.sol\":8345:8393  userBidPriceOnNFT[_nftContractAddress][_tokenId] */\n      dup2\n      mstore\n      0x20\n      add\n      swap1\n      dup2\n      mstore\n      0x20\n      add\n      0x00\n      keccak256\n        /* \"Arevea-NFT-Market/NFT-Contracts/contracts/finalMarket_single.sol\":8345:8437  userBidPriceOnNFT[_nftContractAddress][_tokenId][\r... */\n      0x00\n        /* \"Arevea-NFT-Market/NFT-Contracts/contracts/finalMarket_single.sol\":8412:8422  msg.sender */\n      caller\n        /* \"Arevea-NFT-Market/NFT-Contracts/contracts/finalMarket_single.sol\":8345:8437  userBidPriceOnNFT[_nftContractAddress][_tokenId][\r... */\n      0xffffffffffffffffffffffffffffffffffffffff\n      and\n      0xffffffffffffffffffffffffffffffffffffffff\n      and\n      dup2\n      mstore\n      0x20\n      add\n      swap1\n      dup2\n      mstore\n      0x20\n      add\n      0x00\n      keccak256\n      sload\n        /* \"Arevea-NFT-Market/NFT-Contracts/contracts/finalMarket_single.sol\":8345:8441  userBidPriceOnNFT[_nftContractAddress][_tokenId][\r... */\n      tag_171\n      swap1\n        /* \"Arevea-NFT-Market/NFT-Contracts/contracts/finalMarket_single.sol\":8345:8459  userBidPriceOnNFT[_nftContractAddress][_tokenId][\r... */\n      swap2\n      swap1\n      0xffffffff\n      and\n      jump\t// in\n    tag_173:\n        /* \"Arevea-NFT-Market/NFT-Contracts/contracts/finalMarket_single.sol\":8328:8459  _finalBidPrice = userBidPriceOnNFT[_nftContractAddress][_tokenId][\r... */\n      swap1\n      pop\n        /* \"Arevea-NFT-Market/NFT-Contracts/contracts/finalMarket_single.sol\":8034:8471  if (\r... */\n    tag_172:\n        /* \"Arevea-NFT-Market/NFT-Contracts/contracts/finalMarket_single.sol\":8537:8559  nftContractAuctionSale */\n      0x01\n        /* \"Arevea-NFT-Market/NFT-Contracts/contracts/finalMarket_single.sol\":8537:8580  nftContractAuctionSale[_nftContractAddress] */\n      0x00\n        /* \"Arevea-NFT-Market/NFT-Contracts/contracts/finalMarket_single.sol\":8560:8579  _nftContractAddress */\n      dup7\n        /* \"Arevea-NFT-Market/NFT-Contracts/contracts/finalMarket_single.sol\":8537:8580  nftContractAuctionSale[_nftContractAddress] */\n      0xffffffffffffffffffffffffffffffffffffffff\n      and\n      0xffffffffffffffffffffffffffffffffffffffff\n      and\n      dup2\n      mstore\n      0x20\n      add\n      swap1\n      dup2\n      mstore\n      0x20\n      add\n      0x00\n      keccak256\n        /* \"Arevea-NFT-Market/NFT-Contracts/contracts/finalMarket_single.sol\":8537:8590  nftContractAuctionSale[_nftContractAddress][_tokenId] */\n      0x00\n        /* \"Arevea-NFT-Market/NFT-Contracts/contracts/finalMarket_single.sol\":8581:8589  _tokenId */\n      dup6\n        /* \"Arevea-NFT-Market/NFT-Contracts/contracts/finalMarket_single.sol\":8537:8590  nftContractAuctionSale[_nftContractAddress][_tokenId] */\n      dup2\n      mstore\n      0x20\n      add\n      swap1\n      dup2\n      mstore\n      0x20\n      add\n      0x00\n      keccak256\n        /* \"Arevea-NFT-Market/NFT-Contracts/contracts/finalMarket_single.sol\":8537:8626  nftContractAuctionSale[_nftContractAddress][_tokenId]\r... */\n      0x03\n      add\n      sload\n        /* \"Arevea-NFT-Market/NFT-Contracts/contracts/finalMarket_single.sol\":8503:8517  _finalBidPrice */\n      dup2\n        /* \"Arevea-NFT-Market/NFT-Contracts/contracts/finalMarket_single.sol\":8503:8626  _finalBidPrice >\r... */\n      gt\n        /* \"Arevea-NFT-Market/NFT-Contracts/contracts/finalMarket_single.sol\":8481:8683  require(\r... */\n      tag_174\n      jumpi\n      mload(0x40)\n      0x08c379a000000000000000000000000000000000000000000000000000000000\n      dup2\n      mstore\n      0x04\n      add\n      tag_175\n      swap1\n      tag_145\n      jump\t// in\n    tag_175:\n      mload(0x40)\n      dup1\n      swap2\n      sub\n      swap1\n      revert\n    tag_174:\n        /* \"Arevea-NFT-Market/NFT-Contracts/contracts/finalMarket_single.sol\":16749:16775  address nftContractAddress */\n      0x00\n        /* \"Arevea-NFT-Market/NFT-Contracts/contracts/finalMarket_single.sol\":16778:16797  _nftContractAddress */\n      dup14\n        /* \"Arevea-NFT-Market/NFT-Contracts/contracts/finalMarket_single.sol\":16749:16797  address nftContractAddress = _nftContractAddress */\n      swap1\n      pop\n        /* \"Arevea-NFT-Market/NFT-Contracts/contracts/finalMarket_single.sol\":16808:16823  uint256 tokenId */\n      0x00\n        /* \"Arevea-NFT-Market/NFT-Contracts/contracts/finalMarket_single.sol\":16826:16834  _tokenId */\n      dup14\n        /* \"Arevea-NFT-Market/NFT-Contracts/contracts/finalMarket_single.sol\":16808:16834  uint256 tokenId = _tokenId */\n      swap1\n      pop\n        /* \"Arevea-NFT-Market/NFT-Contracts/contracts/finalMarket_single.sol\":16845:16866  uint256 finalBidPrice */\n      0x00\n        /* \"Arevea-NFT-Market/NFT-Contracts/contracts/finalMarket_single.sol\":16869:16972  userBidPriceOnNFT[nftContractAddress][tokenId][\r... */\n      tag_177\n        /* \"Arevea-NFT-Market/NFT-Contracts/contracts/finalMarket_single.sol\":16956:16971  _updateBidPrice */\n      dup15\n        /* \"Arevea-NFT-Market/NFT-Contracts/contracts/finalMarket_single.sol\":16869:16886  userBidPriceOnNFT */\n      0x03\n        /* \"Arevea-NFT-Market/NFT-Contracts/contracts/finalMarket_single.sol\":16869:16906  userBidPriceOnNFT[nftContractAddress] */\n      0x00\n        /* \"Arevea-NFT-Market/NFT-Contracts/contracts/finalMarket_single.sol\":16887:16905  nftContractAddress */\n      dup7\n        /* \"Arevea-NFT-Market/NFT-Contracts/contracts/finalMarket_single.sol\":16869:16906  userBidPriceOnNFT[nftContractAddress] */\n      0xffffffffffffffffffffffffffffffffffffffff\n      and\n      0xffffffffffffffffffffffffffffffffffffffff\n      and\n      dup2\n      mstore\n      0x20\n      add\n      swap1\n      dup2\n      mstore\n      0x20\n      add\n      0x00\n      keccak256\n        /* \"Arevea-NFT-Market/NFT-Contracts/contracts/finalMarket_single.sol\":16869:16915  userBidPriceOnNFT[nftContractAddress][tokenId] */\n      0x00\n        /* \"Arevea-NFT-Market/NFT-Contracts/contracts/finalMarket_single.sol\":16907:16914  tokenId */\n      dup6\n        /* \"Arevea-NFT-Market/NFT-Contracts/contracts/finalMarket_single.sol\":16869:16915  userBidPriceOnNFT[nftContractAddress][tokenId] */\n      dup2\n      mstore\n      0x20\n      add\n      swap1\n      dup2\n      mstore\n      0x20\n      add\n      0x00\n      keccak256\n        /* \"Arevea-NFT-Market/NFT-Contracts/contracts/finalMarket_single.sol\":16869:16951  userBidPriceOnNFT[nftContractAddress][tokenId][\r... */\n      0x00\n        /* \"Arevea-NFT-Market/NFT-Contracts/contracts/finalMarket_single.sol\":16930:16940  msg.sender */\n      caller\n        /* \"Arevea-NFT-Market/NFT-Contracts/contracts/finalMarket_single.sol\":16869:16951  userBidPriceOnNFT[nftContractAddress][tokenId][\r... */\n      0xffffffffffffffffffffffffffffffffffffffff\n      and\n      0xffffffffffffffffffffffffffffffffffffffff\n      and\n      dup2\n      mstore\n      0x20\n      add\n      swap1\n      dup2\n      mstore\n      0x20\n      add\n      0x00\n      keccak256\n      sload\n        /* \"Arevea-NFT-Market/NFT-Contracts/contracts/finalMarket_single.sol\":16869:16955  userBidPriceOnNFT[nftContractAddress][tokenId][\r... */\n      tag_171\n      swap1\n        /* \"Arevea-NFT-Market/NFT-Contracts/contracts/finalMarket_single.sol\":16869:16972  userBidPriceOnNFT[nftContractAddress][tokenId][\r... */\n      swap2\n      swap1\n      0xffffffff\n      and\n      jump\t// in\n    tag_177:\n        /* \"Arevea-NFT-Market/NFT-Contracts/contracts/finalMarket_single.sol\":16845:16972  uint256 finalBidPrice = userBidPriceOnNFT[nftContractAddress][tokenId][\r... */\n      swap1\n      pop\n        /* \"Arevea-NFT-Market/NFT-Contracts/contracts/finalMarket_single.sol\":17085:17086  0 */\n      0x00\n        /* \"Arevea-NFT-Market/NFT-Contracts/contracts/finalMarket_single.sol\":17003:17087  nftContractAuctionSale[nftContractAddress][tokenId].erc20 !=\r... */\n      0xffffffffffffffffffffffffffffffffffffffff\n      and\n        /* \"Arevea-NFT-Market/NFT-Contracts/contracts/finalMarket_single.sol\":17003:17025  nftContractAuctionSale */\n      0x01\n        /* \"Arevea-NFT-Market/NFT-Contracts/contracts/finalMarket_single.sol\":17003:17045  nftContractAuctionSale[nftContractAddress] */\n      0x00\n        /* \"Arevea-NFT-Market/NFT-Contracts/contracts/finalMarket_single.sol\":17026:17044  nftContractAddress */\n      dup6\n        /* \"Arevea-NFT-Market/NFT-Contracts/contracts/finalMarket_single.sol\":17003:17045  nftContractAuctionSale[nftContractAddress] */\n      0xffffffffffffffffffffffffffffffffffffffff\n      and\n      0xffffffffffffffffffffffffffffffffffffffff\n      and\n      dup2\n      mstore\n      0x20\n      add\n      swap1\n      dup2\n      mstore\n      0x20\n      add\n      0x00\n      keccak256\n        /* \"Arevea-NFT-Market/NFT-Contracts/contracts/finalMarket_single.sol\":17003:17054  nftContractAuctionSale[nftContractAddress][tokenId] */\n      0x00\n        /* \"Arevea-NFT-Market/NFT-Contracts/contracts/finalMarket_single.sol\":17046:17053  tokenId */\n      dup5\n        /* \"Arevea-NFT-Market/NFT-Contracts/contracts/finalMarket_single.sol\":17003:17054  nftContractAuctionSale[nftContractAddress][tokenId] */\n      dup2\n      mstore\n      0x20\n      add\n      swap1\n      dup2\n      mstore\n      0x20\n      add\n      0x00\n      keccak256\n        /* \"Arevea-NFT-Market/NFT-Contracts/contracts/finalMarket_single.sol\":17003:17060  nftContractAuctionSale[nftContractAddress][tokenId].erc20 */\n      0x06\n      add\n      0x00\n      swap1\n      sload\n      swap1\n      0x0100\n      exp\n      swap1\n      div\n      0xffffffffffffffffffffffffffffffffffffffff\n      and\n        /* \"Arevea-NFT-Market/NFT-Contracts/contracts/finalMarket_single.sol\":17003:17087  nftContractAuctionSale[nftContractAddress][tokenId].erc20 !=\r... */\n      0xffffffffffffffffffffffffffffffffffffffff\n      and\n      eq\n        /* \"Arevea-NFT-Market/NFT-Contracts/contracts/finalMarket_single.sol\":16985:17269  if (\r... */\n      tag_178\n      jumpi\n        /* \"Arevea-NFT-Market/NFT-Contracts/contracts/finalMarket_single.sol\":17114:17257  _bidAmountTransfer(\r... */\n      tag_179\n        /* \"Arevea-NFT-Market/NFT-Contracts/contracts/finalMarket_single.sol\":17151:17166  _updateBidPrice */\n      dup15\n        /* \"Arevea-NFT-Market/NFT-Contracts/contracts/finalMarket_single.sol\":17185:17207  nftContractAuctionSale */\n      0x01\n        /* \"Arevea-NFT-Market/NFT-Contracts/contracts/finalMarket_single.sol\":17185:17227  nftContractAuctionSale[nftContractAddress] */\n      0x00\n        /* \"Arevea-NFT-Market/NFT-Contracts/contracts/finalMarket_single.sol\":17208:17226  nftContractAddress */\n      dup7\n        /* \"Arevea-NFT-Market/NFT-Contracts/contracts/finalMarket_single.sol\":17185:17227  nftContractAuctionSale[nftContractAddress] */\n      0xffffffffffffffffffffffffffffffffffffffff\n      and\n      0xffffffffffffffffffffffffffffffffffffffff\n      and\n      dup2\n      mstore\n      0x20\n      add\n      swap1\n      dup2\n      mstore\n      0x20\n      add\n      0x00\n      keccak256\n        /* \"Arevea-NFT-Market/NFT-Contracts/contracts/finalMarket_single.sol\":17185:17236  nftContractAuctionSale[nftContractAddress][tokenId] */\n      0x00\n        /* \"Arevea-NFT-Market/NFT-Contracts/contracts/finalMarket_single.sol\":17228:17235  tokenId */\n      dup6\n        /* \"Arevea-NFT-Market/NFT-Contracts/contracts/finalMarket_single.sol\":17185:17236  nftContractAuctionSale[nftContractAddress][tokenId] */\n      dup2\n      mstore\n      0x20\n      add\n      swap1\n      dup2\n      mstore\n      0x20\n      add\n      0x00\n      keccak256\n        /* \"Arevea-NFT-Market/NFT-Contracts/contracts/finalMarket_single.sol\":17185:17242  nftContractAuctionSale[nftContractAddress][tokenId].erc20 */\n      0x06\n      add\n      0x00\n      swap1\n      sload\n      swap1\n      0x0100\n      exp\n      swap1\n      div\n      0xffffffffffffffffffffffffffffffffffffffff\n      and\n        /* \"Arevea-NFT-Market/NFT-Contracts/contracts/finalMarket_single.sol\":17114:17132  _bidAmountTransfer */\n      tag_152\n        /* \"Arevea-NFT-Market/NFT-Contracts/contracts/finalMarket_single.sol\":17114:17257  _bidAmountTransfer(\r... */\n      jump\t// in\n    tag_179:\n        /* \"Arevea-NFT-Market/NFT-Contracts/contracts/finalMarket_single.sol\":16985:17269  if (\r... */\n    tag_178:\n        /* \"Arevea-NFT-Market/NFT-Contracts/contracts/finalMarket_single.sol\":17363:17376  finalBidPrice */\n      dup1\n        /* \"Arevea-NFT-Market/NFT-Contracts/contracts/finalMarket_single.sol\":17281:17303  nftContractAuctionSale */\n      0x01\n        /* \"Arevea-NFT-Market/NFT-Contracts/contracts/finalMarket_single.sol\":17281:17323  nftContractAuctionSale[nftContractAddress] */\n      0x00\n        /* \"Arevea-NFT-Market/NFT-Contracts/contracts/finalMarket_single.sol\":17304:17322  nftContractAddress */\n      dup6\n        /* \"Arevea-NFT-Market/NFT-Contracts/contracts/finalMarket_single.sol\":17281:17323  nftContractAuctionSale[nftContractAddress] */\n      0xffffffffffffffffffffffffffffffffffffffff\n      and\n      0xffffffffffffffffffffffffffffffffffffffff\n      and\n      dup2\n      mstore\n      0x20\n      add\n      swap1\n      dup2\n      mstore\n      0x20\n      add\n      0x00\n      keccak256\n        /* \"Arevea-NFT-Market/NFT-Contracts/contracts/finalMarket_single.sol\":17281:17332  nftContractAuctionSale[nftContractAddress][tokenId] */\n      0x00\n        /* \"Arevea-NFT-Market/NFT-Contracts/contracts/finalMarket_single.sol\":17324:17331  tokenId */\n      dup5\n        /* \"Arevea-NFT-Market/NFT-Contracts/contracts/finalMarket_single.sol\":17281:17332  nftContractAuctionSale[nftContractAddress][tokenId] */\n      dup2\n      mstore\n      0x20\n      add\n      swap1\n      dup2\n      mstore\n      0x20\n      add\n      0x00\n      keccak256\n        /* \"Arevea-NFT-Market/NFT-Contracts/contracts/finalMarket_single.sol\":17281:17360  nftContractAuctionSale[nftContractAddress][tokenId]\r... */\n      0x03\n      add\n        /* \"Arevea-NFT-Market/NFT-Contracts/contracts/finalMarket_single.sol\":17281:17376  nftContractAuctionSale[nftContractAddress][tokenId]\r... */\n      dup2\n      swap1\n      sstore\n      pop\n        /* \"Arevea-NFT-Market/NFT-Contracts/contracts/finalMarket_single.sol\":17472:17482  msg.sender */\n      caller\n        /* \"Arevea-NFT-Market/NFT-Contracts/contracts/finalMarket_single.sol\":17387:17409  nftContractAuctionSale */\n      0x01\n        /* \"Arevea-NFT-Market/NFT-Contracts/contracts/finalMarket_single.sol\":17387:17429  nftContractAuctionSale[nftContractAddress] */\n      0x00\n        /* \"Arevea-NFT-Market/NFT-Contracts/contracts/finalMarket_single.sol\":17410:17428  nftContractAddress */\n      dup6\n        /* \"Arevea-NFT-Market/NFT-Contracts/contracts/finalMarket_single.sol\":17387:17429  nftContractAuctionSale[nftContractAddress] */\n      0xffffffffffffffffffffffffffffffffffffffff\n      and\n      0xffffffffffffffffffffffffffffffffffffffff\n      and\n      dup2\n      mstore\n      0x20\n      add\n      swap1\n      dup2\n      mstore\n      0x20\n      add\n      0x00\n      keccak256\n        /* \"Arevea-NFT-Market/NFT-Contracts/contracts/finalMarket_single.sol\":17387:17438  nftContractAuctionSale[nftContractAddress][tokenId] */\n      0x00\n        /* \"Arevea-NFT-Market/NFT-Contracts/contracts/finalMarket_single.sol\":17430:17437  tokenId */\n      dup5\n        /* \"Arevea-NFT-Market/NFT-Contracts/contracts/finalMarket_single.sol\":17387:17438  nftContractAuctionSale[nftContractAddress][tokenId] */\n      dup2\n      mstore\n      0x20\n      add\n      swap1\n      dup2\n      mstore\n      0x20\n      add\n      0x00\n      keccak256\n        /* \"Arevea-NFT-Market/NFT-Contracts/contracts/finalMarket_single.sol\":17387:17469  nftContractAuctionSale[nftContractAddress][tokenId]\r... */\n      0x04\n      add\n      0x00\n        /* \"Arevea-NFT-Market/NFT-Contracts/contracts/finalMarket_single.sol\":17387:17482  nftContractAuctionSale[nftContractAddress][tokenId]\r... */\n      0x0100\n      exp\n      dup2\n      sload\n      dup2\n      0xffffffffffffffffffffffffffffffffffffffff\n      mul\n      not\n      and\n      swap1\n      dup4\n      0xffffffffffffffffffffffffffffffffffffffff\n      and\n      mul\n      or\n      swap1\n      sstore\n      pop\n        /* \"Arevea-NFT-Market/NFT-Contracts/contracts/finalMarket_single.sol\":17580:17593  finalBidPrice */\n      dup1\n        /* \"Arevea-NFT-Market/NFT-Contracts/contracts/finalMarket_single.sol\":17495:17512  userBidPriceOnNFT */\n      0x03\n        /* \"Arevea-NFT-Market/NFT-Contracts/contracts/finalMarket_single.sol\":17495:17532  userBidPriceOnNFT[nftContractAddress] */\n      0x00\n        /* \"Arevea-NFT-Market/NFT-Contracts/contracts/finalMarket_single.sol\":17513:17531  nftContractAddress */\n      dup6\n        /* \"Arevea-NFT-Market/NFT-Contracts/contracts/finalMarket_single.sol\":17495:17532  userBidPriceOnNFT[nftContractAddress] */\n      0xffffffffffffffffffffffffffffffffffffffff\n      and\n      0xffffffffffffffffffffffffffffffffffffffff\n      and\n      dup2\n      mstore\n      0x20\n      add\n      swap1\n      dup2\n      mstore\n      0x20\n      add\n      0x00\n      keccak256\n        /* \"Arevea-NFT-Market/NFT-Contracts/contracts/finalMarket_single.sol\":17495:17541  userBidPriceOnNFT[nftContractAddress][tokenId] */\n      0x00\n        /* \"Arevea-NFT-Market/NFT-Contracts/contracts/finalMarket_single.sol\":17533:17540  tokenId */\n      dup5\n        /* \"Arevea-NFT-Market/NFT-Contracts/contracts/finalMarket_single.sol\":17495:17541  userBidPriceOnNFT[nftContractAddress][tokenId] */\n      dup2\n      mstore\n      0x20\n      add\n      swap1\n      dup2\n      mstore\n      0x20\n      add\n      0x00\n      keccak256\n        /* \"Arevea-NFT-Market/NFT-Contracts/contracts/finalMarket_single.sol\":17495:17577  userBidPriceOnNFT[nftContractAddress][tokenId][\r... */\n      0x00\n        /* \"Arevea-NFT-Market/NFT-Contracts/contracts/finalMarket_single.sol\":17556:17566  msg.sender */\n      caller\n        /* \"Arevea-NFT-Market/NFT-Contracts/contracts/finalMarket_single.sol\":17495:17577  userBidPriceOnNFT[nftContractAddress][tokenId][\r... */\n      0xffffffffffffffffffffffffffffffffffffffff\n      and\n      0xffffffffffffffffffffffffffffffffffffffff\n      and\n      dup2\n      mstore\n      0x20\n      add\n      swap1\n      dup2\n      mstore\n      0x20\n      add\n      0x00\n      keccak256\n        /* \"Arevea-NFT-Market/NFT-Contracts/contracts/finalMarket_single.sol\":17495:17593  userBidPriceOnNFT[nftContractAddress][tokenId][\r... */\n      dup2\n      swap1\n      sstore\n      pop\n        /* \"Arevea-NFT-Market/NFT-Contracts/contracts/finalMarket_single.sol\":17611:17754  NftAuctionBidPriceUpdate(\r... */\n      0x907cdadc7c1a8abcdd80cdd85eb18377631e4f413fb6397a8252ff7b358ac6cb\n        /* \"Arevea-NFT-Market/NFT-Contracts/contracts/finalMarket_single.sol\":17650:17668  nftContractAddress */\n      dup4\n        /* \"Arevea-NFT-Market/NFT-Contracts/contracts/finalMarket_single.sol\":17683:17690  tokenId */\n      dup4\n        /* \"Arevea-NFT-Market/NFT-Contracts/contracts/finalMarket_single.sol\":17705:17718  finalBidPrice */\n      dup4\n        /* \"Arevea-NFT-Market/NFT-Contracts/contracts/finalMarket_single.sol\":17733:17743  msg.sender */\n      caller\n        /* \"Arevea-NFT-Market/NFT-Contracts/contracts/finalMarket_single.sol\":17611:17754  NftAuctionBidPriceUpdate(\r... */\n      mload(0x40)\n      tag_180\n      swap5\n      swap4\n      swap3\n      swap2\n      swap1\n      tag_154\n      jump\t// in\n    tag_180:\n      mload(0x40)\n      dup1\n      swap2\n      sub\n      swap1\n      log1\n        /* \"Arevea-NFT-Market/NFT-Contracts/contracts/finalMarket_single.sol\":16738:17762  {\r... */\n      pop\n      pop\n      pop\n        /* \"Arevea-NFT-Market/NFT-Contracts/contracts/finalMarket_single.sol\":7990:8703  {\r... */\n      pop\n        /* \"Arevea-NFT-Market/NFT-Contracts/contracts/finalMarket_single.sol\":9570:9571  _ */\n      pop\n      pop\n      pop\n      pop\n        /* \"Arevea-NFT-Market/NFT-Contracts/contracts/finalMarket_single.sol\":7421:7422  _ */\n      pop\n        /* \"Arevea-NFT-Market/NFT-Contracts/contracts/finalMarket_single.sol\":4991:4992  _ */\n      pop\n      pop\n        /* \"Arevea-NFT-Market/NFT-Contracts/contracts/finalMarket_single.sol\":16246:17762  function updateTheBidPrice(\r... */\n      pop\n      pop\n      pop\n      pop\n      pop\n      jump\t// out\n        /* \"Arevea-NFT-Market/NFT-Contracts/contracts/finalMarket_single.sol\":12125:12703  function updateFixedSalePrice(\r... */\n    tag_56:\n        /* \"Arevea-NFT-Market/NFT-Contracts/contracts/finalMarket_single.sol\":12306:12325  _nftContractAddress */\n      dup3\n        /* \"Arevea-NFT-Market/NFT-Contracts/contracts/finalMarket_single.sol\":12327:12335  _tokenId */\n      dup3\n        /* \"Arevea-NFT-Market/NFT-Contracts/contracts/finalMarket_single.sol\":4652:4653  1 */\n      0x01\n        /* \"Arevea-NFT-Market/NFT-Contracts/contracts/finalMarket_single.sol\":4604:4617  nftSaleStatus */\n      0x02\n        /* \"Arevea-NFT-Market/NFT-Contracts/contracts/finalMarket_single.sol\":4604:4638  nftSaleStatus[_nftContractAddress] */\n      0x00\n        /* \"Arevea-NFT-Market/NFT-Contracts/contracts/finalMarket_single.sol\":4618:4637  _nftContractAddress */\n      dup5\n        /* \"Arevea-NFT-Market/NFT-Contracts/contracts/finalMarket_single.sol\":4604:4638  nftSaleStatus[_nftContractAddress] */\n      0xffffffffffffffffffffffffffffffffffffffff\n      and\n      0xffffffffffffffffffffffffffffffffffffffff\n      and\n      dup2\n      mstore\n      0x20\n      add\n      swap1\n      dup2\n      mstore\n      0x20\n      add\n      0x00\n      keccak256\n        /* \"Arevea-NFT-Market/NFT-Contracts/contracts/finalMarket_single.sol\":4604:4648  nftSaleStatus[_nftContractAddress][_tokenId] */\n      0x00\n        /* \"Arevea-NFT-Market/NFT-Contracts/contracts/finalMarket_single.sol\":4639:4647  _tokenId */\n      dup4\n        /* \"Arevea-NFT-Market/NFT-Contracts/contracts/finalMarket_single.sol\":4604:4648  nftSaleStatus[_nftContractAddress][_tokenId] */\n      dup2\n      mstore\n      0x20\n      add\n      swap1\n      dup2\n      mstore\n      0x20\n      add\n      0x00\n      keccak256\n      sload\n        /* \"Arevea-NFT-Market/NFT-Contracts/contracts/finalMarket_single.sol\":4604:4653  nftSaleStatus[_nftContractAddress][_tokenId] == 1 */\n      eq\n        /* \"Arevea-NFT-Market/NFT-Contracts/contracts/finalMarket_single.sol\":4582:4702  require(\r... */\n      tag_182\n      jumpi\n      mload(0x40)\n      0x08c379a000000000000000000000000000000000000000000000000000000000\n      dup2\n      mstore\n      0x04\n      add\n      tag_183\n      swap1\n      tag_184\n      jump\t// in\n    tag_183:\n      mload(0x40)\n      dup1\n      swap2\n      sub\n      swap1\n      revert\n    tag_182:\n        /* \"Arevea-NFT-Market/NFT-Contracts/contracts/finalMarket_single.sol\":12365:12384  _nftContractAddress */\n      dup5\n        /* \"Arevea-NFT-Market/NFT-Contracts/contracts/finalMarket_single.sol\":12386:12394  _tokenId */\n      dup5\n        /* \"Arevea-NFT-Market/NFT-Contracts/contracts/finalMarket_single.sol\":5451:5471  nftContractFixedSale */\n      0x00\n        /* \"Arevea-NFT-Market/NFT-Contracts/contracts/finalMarket_single.sol\":5451:5492  nftContractFixedSale[_nftContractAddress] */\n      dup1\n        /* \"Arevea-NFT-Market/NFT-Contracts/contracts/finalMarket_single.sol\":5472:5491  _nftContractAddress */\n      dup4\n        /* \"Arevea-NFT-Market/NFT-Contracts/contracts/finalMarket_single.sol\":5451:5492  nftContractFixedSale[_nftContractAddress] */\n      0xffffffffffffffffffffffffffffffffffffffff\n      and\n      0xffffffffffffffffffffffffffffffffffffffff\n      and\n      dup2\n      mstore\n      0x20\n      add\n      swap1\n      dup2\n      mstore\n      0x20\n      add\n      0x00\n      keccak256\n        /* \"Arevea-NFT-Market/NFT-Contracts/contracts/finalMarket_single.sol\":5451:5502  nftContractFixedSale[_nftContractAddress][_tokenId] */\n      0x00\n        /* \"Arevea-NFT-Market/NFT-Contracts/contracts/finalMarket_single.sol\":5493:5501  _tokenId */\n      dup3\n        /* \"Arevea-NFT-Market/NFT-Contracts/contracts/finalMarket_single.sol\":5451:5502  nftContractFixedSale[_nftContractAddress][_tokenId] */\n      dup2\n      mstore\n      0x20\n      add\n      swap1\n      dup2\n      mstore\n      0x20\n      add\n      0x00\n      keccak256\n        /* \"Arevea-NFT-Market/NFT-Contracts/contracts/finalMarket_single.sol\":5451:5512  nftContractFixedSale[_nftContractAddress][_tokenId].nftSeller */\n      0x00\n      add\n      0x00\n      swap1\n      sload\n      swap1\n      0x0100\n      exp\n      swap1\n      div\n      0xffffffffffffffffffffffffffffffffffffffff\n      and\n        /* \"Arevea-NFT-Market/NFT-Contracts/contracts/finalMarket_single.sol\":5420:5512  msg.sender ==\r... */\n      0xffffffffffffffffffffffffffffffffffffffff\n      and\n        /* \"Arevea-NFT-Market/NFT-Contracts/contracts/finalMarket_single.sol\":5420:5430  msg.sender */\n      caller\n        /* \"Arevea-NFT-Market/NFT-Contracts/contracts/finalMarket_single.sol\":5420:5512  msg.sender ==\r... */\n      0xffffffffffffffffffffffffffffffffffffffff\n      and\n      eq\n        /* \"Arevea-NFT-Market/NFT-Contracts/contracts/finalMarket_single.sol\":5398:5561  require(\r... */\n      tag_186\n      jumpi\n      mload(0x40)\n      0x08c379a000000000000000000000000000000000000000000000000000000000\n      dup2\n      mstore\n      0x04\n      add\n      tag_187\n      swap1\n      tag_188\n      jump\t// in\n    tag_187:\n      mload(0x40)\n      dup1\n      swap2\n      sub\n      swap1\n      revert\n    tag_186:\n        /* \"Arevea-NFT-Market/NFT-Contracts/contracts/finalMarket_single.sol\":12426:12442  _updateSalePrice */\n      dup5\n        /* \"Arevea-NFT-Market/NFT-Contracts/contracts/finalMarket_single.sol\":9536:9537  0 */\n      0x00\n        /* \"Arevea-NFT-Market/NFT-Contracts/contracts/finalMarket_single.sol\":9527:9533  _price */\n      dup2\n        /* \"Arevea-NFT-Market/NFT-Contracts/contracts/finalMarket_single.sol\":9527:9537  _price > 0 */\n      gt\n        /* \"Arevea-NFT-Market/NFT-Contracts/contracts/finalMarket_single.sol\":9519:9559  require(_price > 0, \"Price cannot be 0\") */\n      tag_190\n      jumpi\n      mload(0x40)\n      0x08c379a000000000000000000000000000000000000000000000000000000000\n      dup2\n      mstore\n      0x04\n      add\n      tag_191\n      swap1\n      tag_140\n      jump\t// in\n    tag_191:\n      mload(0x40)\n      dup1\n      swap2\n      sub\n      swap1\n      revert\n    tag_190:\n        /* \"Arevea-NFT-Market/NFT-Contracts/contracts/finalMarket_single.sol\":12538:12554  _updateSalePrice */\n      dup6\n        /* \"Arevea-NFT-Market/NFT-Contracts/contracts/finalMarket_single.sol\":12460:12480  nftContractFixedSale */\n      0x00\n        /* \"Arevea-NFT-Market/NFT-Contracts/contracts/finalMarket_single.sol\":12460:12501  nftContractFixedSale[_nftContractAddress] */\n      dup1\n        /* \"Arevea-NFT-Market/NFT-Contracts/contracts/finalMarket_single.sol\":12481:12500  _nftContractAddress */\n      dup11\n        /* \"Arevea-NFT-Market/NFT-Contracts/contracts/finalMarket_single.sol\":12460:12501  nftContractFixedSale[_nftContractAddress] */\n      0xffffffffffffffffffffffffffffffffffffffff\n      and\n      0xffffffffffffffffffffffffffffffffffffffff\n      and\n      dup2\n      mstore\n      0x20\n      add\n      swap1\n      dup2\n      mstore\n      0x20\n      add\n      0x00\n      keccak256\n        /* \"Arevea-NFT-Market/NFT-Contracts/contracts/finalMarket_single.sol\":12460:12511  nftContractFixedSale[_nftContractAddress][_tokenId] */\n      0x00\n        /* \"Arevea-NFT-Market/NFT-Contracts/contracts/finalMarket_single.sol\":12502:12510  _tokenId */\n      dup10\n        /* \"Arevea-NFT-Market/NFT-Contracts/contracts/finalMarket_single.sol\":12460:12511  nftContractFixedSale[_nftContractAddress][_tokenId] */\n      dup2\n      mstore\n      0x20\n      add\n      swap1\n      dup2\n      mstore\n      0x20\n      add\n      0x00\n      keccak256\n        /* \"Arevea-NFT-Market/NFT-Contracts/contracts/finalMarket_single.sol\":12460:12535  nftContractFixedSale[_nftContractAddress][_tokenId]\r... */\n      0x03\n      add\n        /* \"Arevea-NFT-Market/NFT-Contracts/contracts/finalMarket_single.sol\":12460:12554  nftContractFixedSale[_nftContractAddress][_tokenId]\r... */\n      dup2\n      swap1\n      sstore\n      pop\n        /* \"Arevea-NFT-Market/NFT-Contracts/contracts/finalMarket_single.sol\":12572:12695  NftFixedSalePriceUpdated(\r... */\n      0x575a0876095ccf47276a37dce683308a625403d132d219f95205ce205b2e12bc\n        /* \"Arevea-NFT-Market/NFT-Contracts/contracts/finalMarket_single.sol\":12611:12630  _nftContractAddress */\n      dup9\n        /* \"Arevea-NFT-Market/NFT-Contracts/contracts/finalMarket_single.sol\":12645:12653  _tokenId */\n      dup9\n        /* \"Arevea-NFT-Market/NFT-Contracts/contracts/finalMarket_single.sol\":12668:12684  _updateSalePrice */\n      dup9\n        /* \"Arevea-NFT-Market/NFT-Contracts/contracts/finalMarket_single.sol\":12572:12695  NftFixedSalePriceUpdated(\r... */\n      mload(0x40)\n      tag_193\n      swap4\n      swap3\n      swap2\n      swap1\n      tag_194\n      jump\t// in\n    tag_193:\n      mload(0x40)\n      dup1\n      swap2\n      sub\n      swap1\n      log1\n        /* \"Arevea-NFT-Market/NFT-Contracts/contracts/finalMarket_single.sol\":5572:5573  _ */\n      pop\n        /* \"Arevea-NFT-Market/NFT-Contracts/contracts/finalMarket_single.sol\":4713:4714  _ */\n      pop\n      pop\n        /* \"Arevea-NFT-Market/NFT-Contracts/contracts/finalMarket_single.sol\":12125:12703  function updateFixedSalePrice(\r... */\n      pop\n      pop\n      pop\n      pop\n      pop\n      jump\t// out\n        /* \"Arevea-NFT-Market/NFT-Contracts/contracts/finalMarket_single.sol\":19642:20400  function withdrawBid(address _nftContractAddress, uint256 _tokenId)\r... */\n    tag_61:\n        /* \"Arevea-NFT-Market/NFT-Contracts/contracts/finalMarket_single.sol\":19751:19770  _nftContractAddress */\n      dup2\n        /* \"Arevea-NFT-Market/NFT-Contracts/contracts/finalMarket_single.sol\":19772:19780  _tokenId */\n      dup2\n        /* \"Arevea-NFT-Market/NFT-Contracts/contracts/finalMarket_single.sol\":6110:6132  nftContractAuctionSale */\n      0x01\n        /* \"Arevea-NFT-Market/NFT-Contracts/contracts/finalMarket_single.sol\":6110:6153  nftContractAuctionSale[_nftContractAddress] */\n      0x00\n        /* \"Arevea-NFT-Market/NFT-Contracts/contracts/finalMarket_single.sol\":6133:6152  _nftContractAddress */\n      dup4\n        /* \"Arevea-NFT-Market/NFT-Contracts/contracts/finalMarket_single.sol\":6110:6153  nftContractAuctionSale[_nftContractAddress] */\n      0xffffffffffffffffffffffffffffffffffffffff\n      and\n      0xffffffffffffffffffffffffffffffffffffffff\n      and\n      dup2\n      mstore\n      0x20\n      add\n      swap1\n      dup2\n      mstore\n      0x20\n      add\n      0x00\n      keccak256\n        /* \"Arevea-NFT-Market/NFT-Contracts/contracts/finalMarket_single.sol\":6110:6163  nftContractAuctionSale[_nftContractAddress][_tokenId] */\n      0x00\n        /* \"Arevea-NFT-Market/NFT-Contracts/contracts/finalMarket_single.sol\":6154:6162  _tokenId */\n      dup3\n        /* \"Arevea-NFT-Market/NFT-Contracts/contracts/finalMarket_single.sol\":6110:6163  nftContractAuctionSale[_nftContractAddress][_tokenId] */\n      dup2\n      mstore\n      0x20\n      add\n      swap1\n      dup2\n      mstore\n      0x20\n      add\n      0x00\n      keccak256\n        /* \"Arevea-NFT-Market/NFT-Contracts/contracts/finalMarket_single.sol\":6110:6196  nftContractAuctionSale[_nftContractAddress][_tokenId]\r... */\n      0x01\n      add\n      sload\n        /* \"Arevea-NFT-Market/NFT-Contracts/contracts/finalMarket_single.sol\":6075:6090  block.timestamp */\n      timestamp\n        /* \"Arevea-NFT-Market/NFT-Contracts/contracts/finalMarket_single.sol\":6075:6196  block.timestamp >\r... */\n      gt\n        /* \"Arevea-NFT-Market/NFT-Contracts/contracts/finalMarket_single.sol\":6053:6239  require(\r... */\n      tag_196\n      jumpi\n      mload(0x40)\n      0x08c379a000000000000000000000000000000000000000000000000000000000\n      dup2\n      mstore\n      0x04\n      add\n      tag_197\n      swap1\n      tag_198\n      jump\t// in\n    tag_197:\n      mload(0x40)\n      dup1\n      swap2\n      sub\n      swap1\n      revert\n    tag_196:\n        /* \"Arevea-NFT-Market/NFT-Contracts/contracts/finalMarket_single.sol\":19851:19873  nftContractAuctionSale */\n      0x01\n        /* \"Arevea-NFT-Market/NFT-Contracts/contracts/finalMarket_single.sol\":19851:19894  nftContractAuctionSale[_nftContractAddress] */\n      0x00\n        /* \"Arevea-NFT-Market/NFT-Contracts/contracts/finalMarket_single.sol\":19874:19893  _nftContractAddress */\n      dup6\n        /* \"Arevea-NFT-Market/NFT-Contracts/contracts/finalMarket_single.sol\":19851:19894  nftContractAuctionSale[_nftContractAddress] */\n      0xffffffffffffffffffffffffffffffffffffffff\n      and\n      0xffffffffffffffffffffffffffffffffffffffff\n      and\n      dup2\n      mstore\n      0x20\n      add\n      swap1\n      dup2\n      mstore\n      0x20\n      add\n      0x00\n      keccak256\n        /* \"Arevea-NFT-Market/NFT-Contracts/contracts/finalMarket_single.sol\":19851:19904  nftContractAuctionSale[_nftContractAddress][_tokenId] */\n      0x00\n        /* \"Arevea-NFT-Market/NFT-Contracts/contracts/finalMarket_single.sol\":19895:19903  _tokenId */\n      dup5\n        /* \"Arevea-NFT-Market/NFT-Contracts/contracts/finalMarket_single.sol\":19851:19904  nftContractAuctionSale[_nftContractAddress][_tokenId] */\n      dup2\n      mstore\n      0x20\n      add\n      swap1\n      dup2\n      mstore\n      0x20\n      add\n      0x00\n      keccak256\n        /* \"Arevea-NFT-Market/NFT-Contracts/contracts/finalMarket_single.sol\":19851:19943  nftContractAuctionSale[_nftContractAddress][_tokenId]\r... */\n      0x04\n      add\n      0x00\n      swap1\n      sload\n      swap1\n      0x0100\n      exp\n      swap1\n      div\n      0xffffffffffffffffffffffffffffffffffffffff\n      and\n        /* \"Arevea-NFT-Market/NFT-Contracts/contracts/finalMarket_single.sol\":19820:19943  msg.sender !=\r... */\n      0xffffffffffffffffffffffffffffffffffffffff\n      and\n        /* \"Arevea-NFT-Market/NFT-Contracts/contracts/finalMarket_single.sol\":19820:19830  msg.sender */\n      caller\n        /* \"Arevea-NFT-Market/NFT-Contracts/contracts/finalMarket_single.sol\":19820:19943  msg.sender !=\r... */\n      0xffffffffffffffffffffffffffffffffffffffff\n      and\n      eq\n      iszero\n        /* \"Arevea-NFT-Market/NFT-Contracts/contracts/finalMarket_single.sol\":19798:19993  require(\r... */\n      tag_200\n      jumpi\n      mload(0x40)\n      0x08c379a000000000000000000000000000000000000000000000000000000000\n      dup2\n      mstore\n      0x04\n      add\n      tag_201\n      swap1\n      tag_202\n      jump\t// in\n    tag_201:\n      mload(0x40)\n      dup1\n      swap2\n      sub\n      swap1\n      revert\n    tag_200:\n        /* \"Arevea-NFT-Market/NFT-Contracts/contracts/finalMarket_single.sol\":20089:20090  0 */\n      0x00\n        /* \"Arevea-NFT-Market/NFT-Contracts/contracts/finalMarket_single.sol\":20026:20043  userBidPriceOnNFT */\n      0x03\n        /* \"Arevea-NFT-Market/NFT-Contracts/contracts/finalMarket_single.sol\":20026:20064  userBidPriceOnNFT[_nftContractAddress] */\n      0x00\n        /* \"Arevea-NFT-Market/NFT-Contracts/contracts/finalMarket_single.sol\":20044:20063  _nftContractAddress */\n      dup7\n        /* \"Arevea-NFT-Market/NFT-Contracts/contracts/finalMarket_single.sol\":20026:20064  userBidPriceOnNFT[_nftContractAddress] */\n      0xffffffffffffffffffffffffffffffffffffffff\n      and\n      0xffffffffffffffffffffffffffffffffffffffff\n      and\n      dup2\n      mstore\n      0x20\n      add\n      swap1\n      dup2\n      mstore\n      0x20\n      add\n      0x00\n      keccak256\n        /* \"Arevea-NFT-Market/NFT-Contracts/contracts/finalMarket_single.sol\":20026:20074  userBidPriceOnNFT[_nftContractAddress][_tokenId] */\n      0x00\n        /* \"Arevea-NFT-Market/NFT-Contracts/contracts/finalMarket_single.sol\":20065:20073  _tokenId */\n      dup6\n        /* \"Arevea-NFT-Market/NFT-Contracts/contracts/finalMarket_single.sol\":20026:20074  userBidPriceOnNFT[_nftContractAddress][_tokenId] */\n      dup2\n      mstore\n      0x20\n      add\n      swap1\n      dup2\n      mstore\n      0x20\n      add\n      0x00\n      keccak256\n        /* \"Arevea-NFT-Market/NFT-Contracts/contracts/finalMarket_single.sol\":20026:20086  userBidPriceOnNFT[_nftContractAddress][_tokenId][msg.sender] */\n      0x00\n        /* \"Arevea-NFT-Market/NFT-Contracts/contracts/finalMarket_single.sol\":20075:20085  msg.sender */\n      caller\n        /* \"Arevea-NFT-Market/NFT-Contracts/contracts/finalMarket_single.sol\":20026:20086  userBidPriceOnNFT[_nftContractAddress][_tokenId][msg.sender] */\n      0xffffffffffffffffffffffffffffffffffffffff\n      and\n      0xffffffffffffffffffffffffffffffffffffffff\n      and\n      dup2\n      mstore\n      0x20\n      add\n      swap1\n      dup2\n      mstore\n      0x20\n      add\n      0x00\n      keccak256\n      sload\n        /* \"Arevea-NFT-Market/NFT-Contracts/contracts/finalMarket_single.sol\":20026:20090  userBidPriceOnNFT[_nftContractAddress][_tokenId][msg.sender] > 0 */\n      gt\n        /* \"Arevea-NFT-Market/NFT-Contracts/contracts/finalMarket_single.sol\":20004:20137  require(\r... */\n      tag_203\n      jumpi\n      mload(0x40)\n      0x08c379a000000000000000000000000000000000000000000000000000000000\n      dup2\n      mstore\n      0x04\n      add\n      tag_204\n      swap1\n      tag_205\n      jump\t// in\n    tag_204:\n      mload(0x40)\n      dup1\n      swap2\n      sub\n      swap1\n      revert\n    tag_203:\n        /* \"Arevea-NFT-Market/NFT-Contracts/contracts/finalMarket_single.sol\":20316:20317  0 */\n      0x00\n        /* \"Arevea-NFT-Market/NFT-Contracts/contracts/finalMarket_single.sol\":20253:20270  userBidPriceOnNFT */\n      0x03\n        /* \"Arevea-NFT-Market/NFT-Contracts/contracts/finalMarket_single.sol\":20253:20291  userBidPriceOnNFT[_nftContractAddress] */\n      0x00\n        /* \"Arevea-NFT-Market/NFT-Contracts/contracts/finalMarket_single.sol\":20271:20290  _nftContractAddress */\n      dup7\n        /* \"Arevea-NFT-Market/NFT-Contracts/contracts/finalMarket_single.sol\":20253:20291  userBidPriceOnNFT[_nftContractAddress] */\n      0xffffffffffffffffffffffffffffffffffffffff\n      and\n      0xffffffffffffffffffffffffffffffffffffffff\n      and\n      dup2\n      mstore\n      0x20\n      add\n      swap1\n      dup2\n      mstore\n      0x20\n      add\n      0x00\n      keccak256\n        /* \"Arevea-NFT-Market/NFT-Contracts/contracts/finalMarket_single.sol\":20253:20301  userBidPriceOnNFT[_nftContractAddress][_tokenId] */\n      0x00\n        /* \"Arevea-NFT-Market/NFT-Contracts/contracts/finalMarket_single.sol\":20292:20300  _tokenId */\n      dup6\n        /* \"Arevea-NFT-Market/NFT-Contracts/contracts/finalMarket_single.sol\":20253:20301  userBidPriceOnNFT[_nftContractAddress][_tokenId] */\n      dup2\n      mstore\n      0x20\n      add\n      swap1\n      dup2\n      mstore\n      0x20\n      add\n      0x00\n      keccak256\n        /* \"Arevea-NFT-Market/NFT-Contracts/contracts/finalMarket_single.sol\":20253:20313  userBidPriceOnNFT[_nftContractAddress][_tokenId][msg.sender] */\n      0x00\n        /* \"Arevea-NFT-Market/NFT-Contracts/contracts/finalMarket_single.sol\":20302:20312  msg.sender */\n      caller\n        /* \"Arevea-NFT-Market/NFT-Contracts/contracts/finalMarket_single.sol\":20253:20313  userBidPriceOnNFT[_nftContractAddress][_tokenId][msg.sender] */\n      0xffffffffffffffffffffffffffffffffffffffff\n      and\n      0xffffffffffffffffffffffffffffffffffffffff\n      and\n      dup2\n      mstore\n      0x20\n      add\n      swap1\n      dup2\n      mstore\n      0x20\n      add\n      0x00\n      keccak256\n        /* \"Arevea-NFT-Market/NFT-Contracts/contracts/finalMarket_single.sol\":20253:20317  userBidPriceOnNFT[_nftContractAddress][_tokenId][msg.sender] = 0 */\n      dup2\n      swap1\n      sstore\n      pop\n        /* \"Arevea-NFT-Market/NFT-Contracts/contracts/finalMarket_single.sol\":20335:20392  withdrawNftBid(_nftContractAddress, _tokenId, msg.sender) */\n      0xde8cb9aa2c755cf75d5fbc4fec824b10e311652306f1fca5c8e57a04758b0aa7\n        /* \"Arevea-NFT-Market/NFT-Contracts/contracts/finalMarket_single.sol\":20350:20369  _nftContractAddress */\n      dup5\n        /* \"Arevea-NFT-Market/NFT-Contracts/contracts/finalMarket_single.sol\":20371:20379  _tokenId */\n      dup5\n        /* \"Arevea-NFT-Market/NFT-Contracts/contracts/finalMarket_single.sol\":20381:20391  msg.sender */\n      caller\n        /* \"Arevea-NFT-Market/NFT-Contracts/contracts/finalMarket_single.sol\":20335:20392  withdrawNftBid(_nftContractAddress, _tokenId, msg.sender) */\n      mload(0x40)\n      tag_206\n      swap4\n      swap3\n      swap2\n      swap1\n      tag_207\n      jump\t// in\n    tag_206:\n      mload(0x40)\n      dup1\n      swap2\n      sub\n      swap1\n      log1\n        /* \"Arevea-NFT-Market/NFT-Contracts/contracts/finalMarket_single.sol\":19642:20400  function withdrawBid(address _nftContractAddress, uint256 _tokenId)\r... */\n      pop\n      pop\n      pop\n      pop\n      jump\t// out\n        /* \"Arevea-NFT-Market/NFT-Contracts/contracts/finalMarket_single.sol\":18590:19598  function settleAuction(address _nftContractAddress, uint256 _tokenId)\r... */\n    tag_65:\n        /* \"Arevea-NFT-Market/NFT-Contracts/contracts/finalMarket_single.sol\":18706:18725  _nftContractAddress */\n      dup2\n        /* \"Arevea-NFT-Market/NFT-Contracts/contracts/finalMarket_single.sol\":18727:18735  _tokenId */\n      dup2\n        /* \"Arevea-NFT-Market/NFT-Contracts/contracts/finalMarket_single.sol\":4928:4929  2 */\n      0x02\n        /* \"Arevea-NFT-Market/NFT-Contracts/contracts/finalMarket_single.sol\":4880:4893  nftSaleStatus */\n      dup1\n        /* \"Arevea-NFT-Market/NFT-Contracts/contracts/finalMarket_single.sol\":4880:4914  nftSaleStatus[_nftContractAddress] */\n      0x00\n        /* \"Arevea-NFT-Market/NFT-Contracts/contracts/finalMarket_single.sol\":4894:4913  _nftContractAddress */\n      dup5\n        /* \"Arevea-NFT-Market/NFT-Contracts/contracts/finalMarket_single.sol\":4880:4914  nftSaleStatus[_nftContractAddress] */\n      0xffffffffffffffffffffffffffffffffffffffff\n      and\n      0xffffffffffffffffffffffffffffffffffffffff\n      and\n      dup2\n      mstore\n      0x20\n      add\n      swap1\n      dup2\n      mstore\n      0x20\n      add\n      0x00\n      keccak256\n        /* \"Arevea-NFT-Market/NFT-Contracts/contracts/finalMarket_single.sol\":4880:4924  nftSaleStatus[_nftContractAddress][_tokenId] */\n      0x00\n        /* \"Arevea-NFT-Market/NFT-Contracts/contracts/finalMarket_single.sol\":4915:4923  _tokenId */\n      dup4\n        /* \"Arevea-NFT-Market/NFT-Contracts/contracts/finalMarket_single.sol\":4880:4924  nftSaleStatus[_nftContractAddress][_tokenId] */\n      dup2\n      mstore\n      0x20\n      add\n      swap1\n      dup2\n      mstore\n      0x20\n      add\n      0x00\n      keccak256\n      sload\n        /* \"Arevea-NFT-Market/NFT-Contracts/contracts/finalMarket_single.sol\":4880:4929  nftSaleStatus[_nftContractAddress][_tokenId] == 2 */\n      eq\n        /* \"Arevea-NFT-Market/NFT-Contracts/contracts/finalMarket_single.sol\":4858:4980  require(\r... */\n      tag_209\n      jumpi\n      mload(0x40)\n      0x08c379a000000000000000000000000000000000000000000000000000000000\n      dup2\n      mstore\n      0x04\n      add\n      tag_210\n      swap1\n      tag_132\n      jump\t// in\n    tag_210:\n      mload(0x40)\n      dup1\n      swap2\n      sub\n      swap1\n      revert\n    tag_209:\n        /* \"Arevea-NFT-Market/NFT-Contracts/contracts/finalMarket_single.sol\":18760:18779  _nftContractAddress */\n      dup4\n        /* \"Arevea-NFT-Market/NFT-Contracts/contracts/finalMarket_single.sol\":18781:18789  _tokenId */\n      dup4\n        /* \"Arevea-NFT-Market/NFT-Contracts/contracts/finalMarket_single.sol\":6110:6132  nftContractAuctionSale */\n      0x01\n        /* \"Arevea-NFT-Market/NFT-Contracts/contracts/finalMarket_single.sol\":6110:6153  nftContractAuctionSale[_nftContractAddress] */\n      0x00\n        /* \"Arevea-NFT-Market/NFT-Contracts/contracts/finalMarket_single.sol\":6133:6152  _nftContractAddress */\n      dup4\n        /* \"Arevea-NFT-Market/NFT-Contracts/contracts/finalMarket_single.sol\":6110:6153  nftContractAuctionSale[_nftContractAddress] */\n      0xffffffffffffffffffffffffffffffffffffffff\n      and\n      0xffffffffffffffffffffffffffffffffffffffff\n      and\n      dup2\n      mstore\n      0x20\n      add\n      swap1\n      dup2\n      mstore\n      0x20\n      add\n      0x00\n      keccak256\n        /* \"Arevea-NFT-Market/NFT-Contracts/contracts/finalMarket_single.sol\":6110:6163  nftContractAuctionSale[_nftContractAddress][_tokenId] */\n      0x00\n        /* \"Arevea-NFT-Market/NFT-Contracts/contracts/finalMarket_single.sol\":6154:6162  _tokenId */\n      dup3\n        /* \"Arevea-NFT-Market/NFT-Contracts/contracts/finalMarket_single.sol\":6110:6163  nftContractAuctionSale[_nftContractAddress][_tokenId] */\n      dup2\n      mstore\n      0x20\n      add\n      swap1\n      dup2\n      mstore\n      0x20\n      add\n      0x00\n      keccak256\n        /* \"Arevea-NFT-Market/NFT-Contracts/contracts/finalMarket_single.sol\":6110:6196  nftContractAuctionSale[_nftContractAddress][_tokenId]\r... */\n      0x01\n      add\n      sload\n        /* \"Arevea-NFT-Market/NFT-Contracts/contracts/finalMarket_single.sol\":6075:6090  block.timestamp */\n      timestamp\n        /* \"Arevea-NFT-Market/NFT-Contracts/contracts/finalMarket_single.sol\":6075:6196  block.timestamp >\r... */\n      gt\n        /* \"Arevea-NFT-Market/NFT-Contracts/contracts/finalMarket_single.sol\":6053:6239  require(\r... */\n      tag_212\n      jumpi\n      mload(0x40)\n      0x08c379a000000000000000000000000000000000000000000000000000000000\n      dup2\n      mstore\n      0x04\n      add\n      tag_213\n      swap1\n      tag_198\n      jump\t// in\n    tag_213:\n      mload(0x40)\n      dup1\n      swap2\n      sub\n      swap1\n      revert\n    tag_212:\n        /* \"Arevea-NFT-Market/NFT-Contracts/contracts/finalMarket_single.sol\":18807:18823  address nftBuyer */\n      0x00\n        /* \"Arevea-NFT-Market/NFT-Contracts/contracts/finalMarket_single.sol\":18826:18848  nftContractAuctionSale */\n      0x01\n        /* \"Arevea-NFT-Market/NFT-Contracts/contracts/finalMarket_single.sol\":18826:18869  nftContractAuctionSale[_nftContractAddress] */\n      0x00\n        /* \"Arevea-NFT-Market/NFT-Contracts/contracts/finalMarket_single.sol\":18849:18868  _nftContractAddress */\n      dup9\n        /* \"Arevea-NFT-Market/NFT-Contracts/contracts/finalMarket_single.sol\":18826:18869  nftContractAuctionSale[_nftContractAddress] */\n      0xffffffffffffffffffffffffffffffffffffffff\n      and\n      0xffffffffffffffffffffffffffffffffffffffff\n      and\n      dup2\n      mstore\n      0x20\n      add\n      swap1\n      dup2\n      mstore\n      0x20\n      add\n      0x00\n      keccak256\n        /* \"Arevea-NFT-Market/NFT-Contracts/contracts/finalMarket_single.sol\":18826:18879  nftContractAuctionSale[_nftContractAddress][_tokenId] */\n      0x00\n        /* \"Arevea-NFT-Market/NFT-Contracts/contracts/finalMarket_single.sol\":18870:18878  _tokenId */\n      dup8\n        /* \"Arevea-NFT-Market/NFT-Contracts/contracts/finalMarket_single.sol\":18826:18879  nftContractAuctionSale[_nftContractAddress][_tokenId] */\n      dup2\n      mstore\n      0x20\n      add\n      swap1\n      dup2\n      mstore\n      0x20\n      add\n      0x00\n      keccak256\n        /* \"Arevea-NFT-Market/NFT-Contracts/contracts/finalMarket_single.sol\":18826:18910  nftContractAuctionSale[_nftContractAddress][_tokenId]\r... */\n      0x04\n      add\n      0x00\n      swap1\n      sload\n      swap1\n      0x0100\n      exp\n      swap1\n      div\n      0xffffffffffffffffffffffffffffffffffffffff\n      and\n        /* \"Arevea-NFT-Market/NFT-Contracts/contracts/finalMarket_single.sol\":18807:18910  address nftBuyer = nftContractAuctionSale[_nftContractAddress][_tokenId]\r... */\n      swap1\n      pop\n        /* \"Arevea-NFT-Market/NFT-Contracts/contracts/finalMarket_single.sol\":18923:19120  _transferNftAndPaySeller(\r... */\n      tag_215\n        /* \"Arevea-NFT-Market/NFT-Contracts/contracts/finalMarket_single.sol\":18962:18981  _nftContractAddress */\n      dup8\n        /* \"Arevea-NFT-Market/NFT-Contracts/contracts/finalMarket_single.sol\":18996:19004  _tokenId */\n      dup8\n        /* \"Arevea-NFT-Market/NFT-Contracts/contracts/finalMarket_single.sol\":19019:19041  nftContractAuctionSale */\n      0x01\n        /* \"Arevea-NFT-Market/NFT-Contracts/contracts/finalMarket_single.sol\":19019:19062  nftContractAuctionSale[_nftContractAddress] */\n      0x00\n        /* \"Arevea-NFT-Market/NFT-Contracts/contracts/finalMarket_single.sol\":19042:19061  _nftContractAddress */\n      dup12\n        /* \"Arevea-NFT-Market/NFT-Contracts/contracts/finalMarket_single.sol\":19019:19062  nftContractAuctionSale[_nftContractAddress] */\n      0xffffffffffffffffffffffffffffffffffffffff\n      and\n      0xffffffffffffffffffffffffffffffffffffffff\n      and\n      dup2\n      mstore\n      0x20\n      add\n      swap1\n      dup2\n      mstore\n      0x20\n      add\n      0x00\n      keccak256\n        /* \"Arevea-NFT-Market/NFT-Contracts/contracts/finalMarket_single.sol\":19019:19072  nftContractAuctionSale[_nftContractAddress][_tokenId] */\n      0x00\n        /* \"Arevea-NFT-Market/NFT-Contracts/contracts/finalMarket_single.sol\":19063:19071  _tokenId */\n      dup11\n        /* \"Arevea-NFT-Market/NFT-Contracts/contracts/finalMarket_single.sol\":19019:19072  nftContractAuctionSale[_nftContractAddress][_tokenId] */\n      dup2\n      mstore\n      0x20\n      add\n      swap1\n      dup2\n      mstore\n      0x20\n      add\n      0x00\n      keccak256\n        /* \"Arevea-NFT-Market/NFT-Contracts/contracts/finalMarket_single.sol\":19019:19086  nftContractAuctionSale[_nftContractAddress][_tokenId].nftHighestBid */\n      0x03\n      add\n      sload\n        /* \"Arevea-NFT-Market/NFT-Contracts/contracts/finalMarket_single.sol\":19101:19109  nftBuyer */\n      dup5\n        /* \"Arevea-NFT-Market/NFT-Contracts/contracts/finalMarket_single.sol\":18923:18947  _transferNftAndPaySeller */\n      tag_216\n        /* \"Arevea-NFT-Market/NFT-Contracts/contracts/finalMarket_single.sol\":18923:19120  _transferNftAndPaySeller(\r... */\n      jump\t// in\n    tag_215:\n        /* \"Arevea-NFT-Market/NFT-Contracts/contracts/finalMarket_single.sol\":19194:19195  0 */\n      0x00\n        /* \"Arevea-NFT-Market/NFT-Contracts/contracts/finalMarket_single.sol\":19133:19150  userBidPriceOnNFT */\n      0x03\n        /* \"Arevea-NFT-Market/NFT-Contracts/contracts/finalMarket_single.sol\":19133:19171  userBidPriceOnNFT[_nftContractAddress] */\n      0x00\n        /* \"Arevea-NFT-Market/NFT-Contracts/contracts/finalMarket_single.sol\":19151:19170  _nftContractAddress */\n      dup10\n        /* \"Arevea-NFT-Market/NFT-Contracts/contracts/finalMarket_single.sol\":19133:19171  userBidPriceOnNFT[_nftContractAddress] */\n      0xffffffffffffffffffffffffffffffffffffffff\n      and\n      0xffffffffffffffffffffffffffffffffffffffff\n      and\n      dup2\n      mstore\n      0x20\n      add\n      swap1\n      dup2\n      mstore\n      0x20\n      add\n      0x00\n      keccak256\n        /* \"Arevea-NFT-Market/NFT-Contracts/contracts/finalMarket_single.sol\":19133:19181  userBidPriceOnNFT[_nftContractAddress][_tokenId] */\n      0x00\n        /* \"Arevea-NFT-Market/NFT-Contracts/contracts/finalMarket_single.sol\":19172:19180  _tokenId */\n      dup9\n        /* \"Arevea-NFT-Market/NFT-Contracts/contracts/finalMarket_single.sol\":19133:19181  userBidPriceOnNFT[_nftContractAddress][_tokenId] */\n      dup2\n      mstore\n      0x20\n      add\n      swap1\n      dup2\n      mstore\n      0x20\n      add\n      0x00\n      keccak256\n        /* \"Arevea-NFT-Market/NFT-Contracts/contracts/finalMarket_single.sol\":19133:19191  userBidPriceOnNFT[_nftContractAddress][_tokenId][nftBuyer] */\n      0x00\n        /* \"Arevea-NFT-Market/NFT-Contracts/contracts/finalMarket_single.sol\":19182:19190  nftBuyer */\n      dup4\n        /* \"Arevea-NFT-Market/NFT-Contracts/contracts/finalMarket_single.sol\":19133:19191  userBidPriceOnNFT[_nftContractAddress][_tokenId][nftBuyer] */\n      0xffffffffffffffffffffffffffffffffffffffff\n      and\n      0xffffffffffffffffffffffffffffffffffffffff\n      and\n      dup2\n      mstore\n      0x20\n      add\n      swap1\n      dup2\n      mstore\n      0x20\n      add\n      0x00\n      keccak256\n        /* \"Arevea-NFT-Market/NFT-Contracts/contracts/finalMarket_single.sol\":19133:19195  userBidPriceOnNFT[_nftContractAddress][_tokenId][nftBuyer] = 0 */\n      dup2\n      swap1\n      sstore\n      pop\n        /* \"Arevea-NFT-Market/NFT-Contracts/contracts/finalMarket_single.sol\":19213:19227  auctionSaleNFT */\n      0x07\n        /* \"Arevea-NFT-Market/NFT-Contracts/contracts/finalMarket_single.sol\":19243:19262  indexAuctionSaleNFT */\n      0x05\n        /* \"Arevea-NFT-Market/NFT-Contracts/contracts/finalMarket_single.sol\":19243:19283  indexAuctionSaleNFT[_nftContractAddress] */\n      0x00\n        /* \"Arevea-NFT-Market/NFT-Contracts/contracts/finalMarket_single.sol\":19263:19282  _nftContractAddress */\n      dup10\n        /* \"Arevea-NFT-Market/NFT-Contracts/contracts/finalMarket_single.sol\":19243:19283  indexAuctionSaleNFT[_nftContractAddress] */\n      0xffffffffffffffffffffffffffffffffffffffff\n      and\n      0xffffffffffffffffffffffffffffffffffffffff\n      and\n      dup2\n      mstore\n      0x20\n      add\n      swap1\n      dup2\n      mstore\n      0x20\n      add\n      0x00\n      keccak256\n        /* \"Arevea-NFT-Market/NFT-Contracts/contracts/finalMarket_single.sol\":19243:19293  indexAuctionSaleNFT[_nftContractAddress][_tokenId] */\n      0x00\n        /* \"Arevea-NFT-Market/NFT-Contracts/contracts/finalMarket_single.sol\":19284:19292  _tokenId */\n      dup9\n        /* \"Arevea-NFT-Market/NFT-Contracts/contracts/finalMarket_single.sol\":19243:19293  indexAuctionSaleNFT[_nftContractAddress][_tokenId] */\n      dup2\n      mstore\n      0x20\n      add\n      swap1\n      dup2\n      mstore\n      0x20\n      add\n      0x00\n      keccak256\n      sload\n        /* \"Arevea-NFT-Market/NFT-Contracts/contracts/finalMarket_single.sol\":19213:19305  auctionSaleNFT[\r... */\n      dup2\n      sload\n      dup2\n      lt\n      tag_217\n      jumpi\n      tag_218\n      tag_219\n      jump\t// in\n    tag_218:\n    tag_217:\n      swap1\n      0x00\n      mstore\n      keccak256(0x00, 0x20)\n      swap1\n      0x02\n      mul\n      add\n      0x00\n        /* \"Arevea-NFT-Market/NFT-Contracts/contracts/finalMarket_single.sol\":19206:19305  delete auctionSaleNFT[\r... */\n      dup1\n      dup3\n      add\n      exp(0x0100, 0x00)\n      dup2\n      sload\n      swap1\n      0xffffffffffffffffffffffffffffffffffffffff\n      mul\n      not\n      and\n      swap1\n      sstore\n      0x01\n      dup3\n      add\n      0x00\n      swap1\n      sstore\n      pop\n      pop\n        /* \"Arevea-NFT-Market/NFT-Contracts/contracts/finalMarket_single.sol\":19323:19590  NftAuctionSettle(\r... */\n      0xb31cb4f6609b11a57d1b6b14cc3f81f4b3e609f709a5b1e46892a45f9cc29ed8\n        /* \"Arevea-NFT-Market/NFT-Contracts/contracts/finalMarket_single.sol\":19354:19373  _nftContractAddress */\n      dup8\n        /* \"Arevea-NFT-Market/NFT-Contracts/contracts/finalMarket_single.sol\":19388:19396  _tokenId */\n      dup8\n        /* \"Arevea-NFT-Market/NFT-Contracts/contracts/finalMarket_single.sol\":19411:19419  nftBuyer */\n      dup4\n        /* \"Arevea-NFT-Market/NFT-Contracts/contracts/finalMarket_single.sol\":19434:19456  nftContractAuctionSale */\n      0x01\n        /* \"Arevea-NFT-Market/NFT-Contracts/contracts/finalMarket_single.sol\":19434:19477  nftContractAuctionSale[_nftContractAddress] */\n      0x00\n        /* \"Arevea-NFT-Market/NFT-Contracts/contracts/finalMarket_single.sol\":19457:19476  _nftContractAddress */\n      dup13\n        /* \"Arevea-NFT-Market/NFT-Contracts/contracts/finalMarket_single.sol\":19434:19477  nftContractAuctionSale[_nftContractAddress] */\n      0xffffffffffffffffffffffffffffffffffffffff\n      and\n      0xffffffffffffffffffffffffffffffffffffffff\n      and\n      dup2\n      mstore\n      0x20\n      add\n      swap1\n      dup2\n      mstore\n      0x20\n      add\n      0x00\n      keccak256\n        /* \"Arevea-NFT-Market/NFT-Contracts/contracts/finalMarket_single.sol\":19434:19487  nftContractAuctionSale[_nftContractAddress][_tokenId] */\n      0x00\n        /* \"Arevea-NFT-Market/NFT-Contracts/contracts/finalMarket_single.sol\":19478:19486  _tokenId */\n      dup12\n        /* \"Arevea-NFT-Market/NFT-Contracts/contracts/finalMarket_single.sol\":19434:19487  nftContractAuctionSale[_nftContractAddress][_tokenId] */\n      dup2\n      mstore\n      0x20\n      add\n      swap1\n      dup2\n      mstore\n      0x20\n      add\n      0x00\n      keccak256\n        /* \"Arevea-NFT-Market/NFT-Contracts/contracts/finalMarket_single.sol\":19434:19501  nftContractAuctionSale[_nftContractAddress][_tokenId].nftHighestBid */\n      0x03\n      add\n      sload\n        /* \"Arevea-NFT-Market/NFT-Contracts/contracts/finalMarket_single.sol\":19516:19538  nftContractAuctionSale */\n      0x01\n        /* \"Arevea-NFT-Market/NFT-Contracts/contracts/finalMarket_single.sol\":19516:19559  nftContractAuctionSale[_nftContractAddress] */\n      0x00\n        /* \"Arevea-NFT-Market/NFT-Contracts/contracts/finalMarket_single.sol\":19539:19558  _nftContractAddress */\n      dup14\n        /* \"Arevea-NFT-Market/NFT-Contracts/contracts/finalMarket_single.sol\":19516:19559  nftContractAuctionSale[_nftContractAddress] */\n      0xffffffffffffffffffffffffffffffffffffffff\n      and\n      0xffffffffffffffffffffffffffffffffffffffff\n      and\n      dup2\n      mstore\n      0x20\n      add\n      swap1\n      dup2\n      mstore\n      0x20\n      add\n      0x00\n      keccak256\n        /* \"Arevea-NFT-Market/NFT-Contracts/contracts/finalMarket_single.sol\":19516:19569  nftContractAuctionSale[_nftContractAddress][_tokenId] */\n      0x00\n        /* \"Arevea-NFT-Market/NFT-Contracts/contracts/finalMarket_single.sol\":19560:19568  _tokenId */\n      dup13\n        /* \"Arevea-NFT-Market/NFT-Contracts/contracts/finalMarket_single.sol\":19516:19569  nftContractAuctionSale[_nftContractAddress][_tokenId] */\n      dup2\n      mstore\n      0x20\n      add\n      swap1\n      dup2\n      mstore\n      0x20\n      add\n      0x00\n      keccak256\n        /* \"Arevea-NFT-Market/NFT-Contracts/contracts/finalMarket_single.sol\":19516:19579  nftContractAuctionSale[_nftContractAddress][_tokenId].nftSeller */\n      0x05\n      add\n      0x00\n      swap1\n      sload\n      swap1\n      0x0100\n      exp\n      swap1\n      div\n      0xffffffffffffffffffffffffffffffffffffffff\n      and\n        /* \"Arevea-NFT-Market/NFT-Contracts/contracts/finalMarket_single.sol\":19323:19590  NftAuctionSettle(\r... */\n      mload(0x40)\n      tag_221\n      swap6\n      swap5\n      swap4\n      swap3\n      swap2\n      swap1\n      tag_222\n      jump\t// in\n    tag_221:\n      mload(0x40)\n      dup1\n      swap2\n      sub\n      swap1\n      log1\n        /* \"Arevea-NFT-Market/NFT-Contracts/contracts/finalMarket_single.sol\":18796:19598  {\r... */\n      pop\n        /* \"Arevea-NFT-Market/NFT-Contracts/contracts/finalMarket_single.sol\":4991:4992  _ */\n      pop\n      pop\n        /* \"Arevea-NFT-Market/NFT-Contracts/contracts/finalMarket_single.sol\":18590:19598  function settleAuction(address _nftContractAddress, uint256 _tokenId)\r... */\n      pop\n      pop\n      pop\n      pop\n      jump\t// out\n        /* \"Arevea-NFT-Market/NFT-Contracts/contracts/finalMarket_single.sol\":1511:1579  mapping(address => mapping(uint256 => uint256)) public nftSaleStatus */\n    tag_69:\n      mstore(0x20, 0x02)\n      dup2\n      0x00\n      mstore\n      mstore(0x20, keccak256(0x00, 0x40))\n      dup1\n      0x00\n      mstore\n      keccak256(0x00, 0x40)\n      0x00\n      swap2\n      pop\n      swap2\n      pop\n      pop\n      sload\n      dup2\n      jump\t// out\n        /* \"Arevea-NFT-Market/NFT-Contracts/contracts/finalMarket_single.sol\":10319:11454  function nftFixedSale(\r... */\n    tag_76:\n        /* \"Arevea-NFT-Market/NFT-Contracts/contracts/finalMarket_single.sol\":10513:10532  _nftContractAddress */\n      dup4\n        /* \"Arevea-NFT-Market/NFT-Contracts/contracts/finalMarket_single.sol\":10534:10542  _tokenId */\n      dup3\n        /* \"Arevea-NFT-Market/NFT-Contracts/contracts/finalMarket_single.sol\":5167:5186  _nftContractAddress */\n      dup2\n        /* \"Arevea-NFT-Market/NFT-Contracts/contracts/finalMarket_single.sol\":5159:5195  IERC721(_nftContractAddress).ownerOf */\n      0xffffffffffffffffffffffffffffffffffffffff\n      and\n      0x6352211e\n        /* \"Arevea-NFT-Market/NFT-Contracts/contracts/finalMarket_single.sol\":5196:5204  _tokenId */\n      dup3\n        /* \"Arevea-NFT-Market/NFT-Contracts/contracts/finalMarket_single.sol\":5159:5205  IERC721(_nftContractAddress).ownerOf(_tokenId) */\n      mload(0x40)\n      dup3\n      0xffffffff\n      and\n      0xe0\n      shl\n      dup2\n      mstore\n      0x04\n      add\n      tag_224\n      swap2\n      swap1\n      tag_71\n      jump\t// in\n    tag_224:\n      0x20\n      mload(0x40)\n      dup1\n      dup4\n      sub\n      dup2\n      dup7\n      dup1\n      extcodesize\n      iszero\n      dup1\n      iszero\n      tag_225\n      jumpi\n      0x00\n      dup1\n      revert\n    tag_225:\n      pop\n      gas\n      staticcall\n      iszero\n      dup1\n      iszero\n      tag_227\n      jumpi\n      returndatasize\n      0x00\n      dup1\n      returndatacopy\n      revert(0x00, returndatasize)\n    tag_227:\n      pop\n      pop\n      pop\n      pop\n      mload(0x40)\n      returndatasize\n      not(0x1f)\n      0x1f\n      dup3\n      add\n      and\n      dup3\n      add\n      dup1\n      0x40\n      mstore\n      pop\n      dup2\n      add\n      swap1\n      tag_228\n      swap2\n      swap1\n      tag_229\n      jump\t// in\n    tag_228:\n        /* \"Arevea-NFT-Market/NFT-Contracts/contracts/finalMarket_single.sol\":5145:5205  msg.sender == IERC721(_nftContractAddress).ownerOf(_tokenId) */\n      0xffffffffffffffffffffffffffffffffffffffff\n      and\n        /* \"Arevea-NFT-Market/NFT-Contracts/contracts/finalMarket_single.sol\":5145:5155  msg.sender */\n      caller\n        /* \"Arevea-NFT-Market/NFT-Contracts/contracts/finalMarket_single.sol\":5145:5205  msg.sender == IERC721(_nftContractAddress).ownerOf(_tokenId) */\n      0xffffffffffffffffffffffffffffffffffffffff\n      and\n      eq\n        /* \"Arevea-NFT-Market/NFT-Contracts/contracts/finalMarket_single.sol\":5123:5254  require(\r... */\n      tag_230\n      jumpi\n      mload(0x40)\n      0x08c379a000000000000000000000000000000000000000000000000000000000\n      dup2\n      mstore\n      0x04\n      add\n      tag_231\n      swap1\n      tag_188\n      jump\t// in\n    tag_231:\n      mload(0x40)\n      dup1\n      swap2\n      sub\n      swap1\n      revert\n    tag_230:\n        /* \"Arevea-NFT-Market/NFT-Contracts/contracts/finalMarket_single.sol\":10572:10591  _nftContractAddress */\n      dup6\n        /* \"Arevea-NFT-Market/NFT-Contracts/contracts/finalMarket_single.sol\":10593:10601  _tokenId */\n      dup5\n        /* \"Arevea-NFT-Market/NFT-Contracts/contracts/finalMarket_single.sol\":4383:4384  0 */\n      0x00\n        /* \"Arevea-NFT-Market/NFT-Contracts/contracts/finalMarket_single.sol\":4335:4348  nftSaleStatus */\n      0x02\n        /* \"Arevea-NFT-Market/NFT-Contracts/contracts/finalMarket_single.sol\":4335:4369  nftSaleStatus[_nftContractAddress] */\n      0x00\n        /* \"Arevea-NFT-Market/NFT-Contracts/contracts/finalMarket_single.sol\":4349:4368  _nftContractAddress */\n      dup5\n        /* \"Arevea-NFT-Market/NFT-Contracts/contracts/finalMarket_single.sol\":4335:4369  nftSaleStatus[_nftContractAddress] */\n      0xffffffffffffffffffffffffffffffffffffffff\n      and\n      0xffffffffffffffffffffffffffffffffffffffff\n      and\n      dup2\n      mstore\n      0x20\n      add\n      swap1\n      dup2\n      mstore\n      0x20\n      add\n      0x00\n      keccak256\n        /* \"Arevea-NFT-Market/NFT-Contracts/contracts/finalMarket_single.sol\":4335:4379  nftSaleStatus[_nftContractAddress][_tokenId] */\n      0x00\n        /* \"Arevea-NFT-Market/NFT-Contracts/contracts/finalMarket_single.sol\":4370:4378  _tokenId */\n      dup4\n        /* \"Arevea-NFT-Market/NFT-Contracts/contracts/finalMarket_single.sol\":4335:4379  nftSaleStatus[_nftContractAddress][_tokenId] */\n      dup2\n      mstore\n      0x20\n      add\n      swap1\n      dup2\n      mstore\n      0x20\n      add\n      0x00\n      keccak256\n      sload\n        /* \"Arevea-NFT-Market/NFT-Contracts/contracts/finalMarket_single.sol\":4335:4384  nftSaleStatus[_nftContractAddress][_tokenId] == 0 */\n      eq\n        /* \"Arevea-NFT-Market/NFT-Contracts/contracts/finalMarket_single.sol\":4313:4431  require(\r... */\n      tag_233\n      jumpi\n      mload(0x40)\n      0x08c379a000000000000000000000000000000000000000000000000000000000\n      dup2\n      mstore\n      0x04\n      add\n      tag_234\n      swap1\n      tag_235\n      jump\t// in\n    tag_234:\n      mload(0x40)\n      dup1\n      swap2\n      sub\n      swap1\n      revert\n    tag_233:\n        /* \"Arevea-NFT-Market/NFT-Contracts/contracts/finalMarket_single.sol\":10630:10649  _nftContractAddress */\n      dup8\n        /* \"Arevea-NFT-Market/NFT-Contracts/contracts/finalMarket_single.sol\":10651:10659  _tokenId */\n      dup7\n        /* \"Arevea-NFT-Market/NFT-Contracts/contracts/finalMarket_single.sol\":5745:5764  _nftContractAddress */\n      dup2\n        /* \"Arevea-NFT-Market/NFT-Contracts/contracts/finalMarket_single.sol\":5737:5782  IERC721(_nftContractAddress).isApprovedForAll */\n      0xffffffffffffffffffffffffffffffffffffffff\n      and\n      0xe985e9c5\n        /* \"Arevea-NFT-Market/NFT-Contracts/contracts/finalMarket_single.sol\":5801:5811  msg.sender */\n      caller\n        /* \"Arevea-NFT-Market/NFT-Contracts/contracts/finalMarket_single.sol\":5838:5842  this */\n      address\n        /* \"Arevea-NFT-Market/NFT-Contracts/contracts/finalMarket_single.sol\":5737:5858  IERC721(_nftContractAddress).isApprovedForAll(\r... */\n      mload(0x40)\n      dup4\n      0xffffffff\n      and\n      0xe0\n      shl\n      dup2\n      mstore\n      0x04\n      add\n      tag_237\n      swap3\n      swap2\n      swap1\n      tag_238\n      jump\t// in\n    tag_237:\n      0x20\n      mload(0x40)\n      dup1\n      dup4\n      sub\n      dup2\n      dup7\n      dup1\n      extcodesize\n      iszero\n      dup1\n      iszero\n      tag_239\n      jumpi\n      0x00\n      dup1\n      revert\n    tag_239:\n      pop\n      gas\n      staticcall\n      iszero\n      dup1\n      iszero\n      tag_241\n      jumpi\n      returndatasize\n      0x00\n      dup1\n      returndatacopy\n      revert(0x00, returndatasize)\n    tag_241:\n      pop\n      pop\n      pop\n      pop\n      mload(0x40)\n      returndatasize\n      not(0x1f)\n      0x1f\n      dup3\n      add\n      and\n      dup3\n      add\n      dup1\n      0x40\n      mstore\n      pop\n      dup2\n      add\n      swap1\n      tag_242\n      swap2\n      swap1\n      tag_127\n      jump\t// in\n    tag_242:\n        /* \"Arevea-NFT-Market/NFT-Contracts/contracts/finalMarket_single.sol\":5715:5914  require(\r... */\n      tag_243\n      jumpi\n      mload(0x40)\n      0x08c379a000000000000000000000000000000000000000000000000000000000\n      dup2\n      mstore\n      0x04\n      add\n      tag_244\n      swap1\n      tag_245\n      jump\t// in\n    tag_244:\n      mload(0x40)\n      dup1\n      swap2\n      sub\n      swap1\n      revert\n    tag_243:\n        /* \"Arevea-NFT-Market/NFT-Contracts/contracts/finalMarket_single.sol\":10691:10701  _salePrice */\n      dup7\n        /* \"Arevea-NFT-Market/NFT-Contracts/contracts/finalMarket_single.sol\":9536:9537  0 */\n      0x00\n        /* \"Arevea-NFT-Market/NFT-Contracts/contracts/finalMarket_single.sol\":9527:9533  _price */\n      dup2\n        /* \"Arevea-NFT-Market/NFT-Contracts/contracts/finalMarket_single.sol\":9527:9537  _price > 0 */\n      gt\n        /* \"Arevea-NFT-Market/NFT-Contracts/contracts/finalMarket_single.sol\":9519:9559  require(_price > 0, \"Price cannot be 0\") */\n      tag_247\n      jumpi\n      mload(0x40)\n      0x08c379a000000000000000000000000000000000000000000000000000000000\n      dup2\n      mstore\n      0x04\n      add\n      tag_248\n      swap1\n      tag_140\n      jump\t// in\n    tag_248:\n      mload(0x40)\n      dup1\n      swap2\n      sub\n      swap1\n      revert\n    tag_247:\n        /* \"Arevea-NFT-Market/NFT-Contracts/contracts/finalMarket_single.sol\":10773:10889  FixedSale(\r... */\n      mload(0x40)\n      dup1\n      0x80\n      add\n      0x40\n      mstore\n      dup1\n        /* \"Arevea-NFT-Market/NFT-Contracts/contracts/finalMarket_single.sol\":10797:10807  msg.sender */\n      caller\n        /* \"Arevea-NFT-Market/NFT-Contracts/contracts/finalMarket_single.sol\":10773:10889  FixedSale(\r... */\n      0xffffffffffffffffffffffffffffffffffffffff\n      and\n      dup2\n      mstore\n      0x20\n      add\n        /* \"Arevea-NFT-Market/NFT-Contracts/contracts/finalMarket_single.sol\":10830:10831  0 */\n      0x00\n        /* \"Arevea-NFT-Market/NFT-Contracts/contracts/finalMarket_single.sol\":10773:10889  FixedSale(\r... */\n      0xffffffffffffffffffffffffffffffffffffffff\n      and\n      dup2\n      mstore\n      0x20\n      add\n        /* \"Arevea-NFT-Market/NFT-Contracts/contracts/finalMarket_single.sol\":10847:10853  _erc20 */\n      dup12\n        /* \"Arevea-NFT-Market/NFT-Contracts/contracts/finalMarket_single.sol\":10773:10889  FixedSale(\r... */\n      0xffffffffffffffffffffffffffffffffffffffff\n      and\n      dup2\n      mstore\n      0x20\n      add\n        /* \"Arevea-NFT-Market/NFT-Contracts/contracts/finalMarket_single.sol\":10868:10878  _salePrice */\n      dup10\n        /* \"Arevea-NFT-Market/NFT-Contracts/contracts/finalMarket_single.sol\":10773:10889  FixedSale(\r... */\n      dup2\n      mstore\n      pop\n        /* \"Arevea-NFT-Market/NFT-Contracts/contracts/finalMarket_single.sol\":10719:10739  nftContractFixedSale */\n      0x00\n        /* \"Arevea-NFT-Market/NFT-Contracts/contracts/finalMarket_single.sol\":10719:10760  nftContractFixedSale[_nftContractAddress] */\n      dup1\n        /* \"Arevea-NFT-Market/NFT-Contracts/contracts/finalMarket_single.sol\":10740:10759  _nftContractAddress */\n      dup14\n        /* \"Arevea-NFT-Market/NFT-Contracts/contracts/finalMarket_single.sol\":10719:10760  nftContractFixedSale[_nftContractAddress] */\n      0xffffffffffffffffffffffffffffffffffffffff\n      and\n      0xffffffffffffffffffffffffffffffffffffffff\n      and\n      dup2\n      mstore\n      0x20\n      add\n      swap1\n      dup2\n      mstore\n      0x20\n      add\n      0x00\n      keccak256\n        /* \"Arevea-NFT-Market/NFT-Contracts/contracts/finalMarket_single.sol\":10719:10770  nftContractFixedSale[_nftContractAddress][_tokenId] */\n      0x00\n        /* \"Arevea-NFT-Market/NFT-Contracts/contracts/finalMarket_single.sol\":10761:10769  _tokenId */\n      dup12\n        /* \"Arevea-NFT-Market/NFT-Contracts/contracts/finalMarket_single.sol\":10719:10770  nftContractFixedSale[_nftContractAddress][_tokenId] */\n      dup2\n      mstore\n      0x20\n      add\n      swap1\n      dup2\n      mstore\n      0x20\n      add\n      0x00\n      keccak256\n        /* \"Arevea-NFT-Market/NFT-Contracts/contracts/finalMarket_single.sol\":10719:10889  nftContractFixedSale[_nftContractAddress][_tokenId] = FixedSale(\r... */\n      0x00\n      dup3\n      add\n      mload\n      dup2\n      0x00\n      add\n      exp(0x0100, 0x00)\n      dup2\n      sload\n      dup2\n      0xffffffffffffffffffffffffffffffffffffffff\n      mul\n      not\n      and\n      swap1\n      dup4\n      0xffffffffffffffffffffffffffffffffffffffff\n      and\n      mul\n      or\n      swap1\n      sstore\n      pop\n      0x20\n      dup3\n      add\n      mload\n      dup2\n      0x01\n      add\n      exp(0x0100, 0x00)\n      dup2\n      sload\n      dup2\n      0xffffffffffffffffffffffffffffffffffffffff\n      mul\n      not\n      and\n      swap1\n      dup4\n      0xffffffffffffffffffffffffffffffffffffffff\n      and\n      mul\n      or\n      swap1\n      sstore\n      pop\n      0x40\n      dup3\n      add\n      mload\n      dup2\n      0x02\n      add\n      exp(0x0100, 0x00)\n      dup2\n      sload\n      dup2\n      0xffffffffffffffffffffffffffffffffffffffff\n      mul\n      not\n      and\n      swap1\n      dup4\n      0xffffffffffffffffffffffffffffffffffffffff\n      and\n      mul\n      or\n      swap1\n      sstore\n      pop\n      0x60\n      dup3\n      add\n      mload\n      dup2\n      0x03\n      add\n      sstore\n      swap1\n      pop\n      pop\n        /* \"Arevea-NFT-Market/NFT-Contracts/contracts/finalMarket_single.sol\":10949:10950  1 */\n      0x01\n        /* \"Arevea-NFT-Market/NFT-Contracts/contracts/finalMarket_single.sol\":10902:10915  nftSaleStatus */\n      0x02\n        /* \"Arevea-NFT-Market/NFT-Contracts/contracts/finalMarket_single.sol\":10902:10936  nftSaleStatus[_nftContractAddress] */\n      0x00\n        /* \"Arevea-NFT-Market/NFT-Contracts/contracts/finalMarket_single.sol\":10916:10935  _nftContractAddress */\n      dup14\n        /* \"Arevea-NFT-Market/NFT-Contracts/contracts/finalMarket_single.sol\":10902:10936  nftSaleStatus[_nftContractAddress] */\n      0xffffffffffffffffffffffffffffffffffffffff\n      and\n      0xffffffffffffffffffffffffffffffffffffffff\n      and\n      dup2\n      mstore\n      0x20\n      add\n      swap1\n      dup2\n      mstore\n      0x20\n      add\n      0x00\n      keccak256\n        /* \"Arevea-NFT-Market/NFT-Contracts/contracts/finalMarket_single.sol\":10902:10946  nftSaleStatus[_nftContractAddress][_tokenId] */\n      0x00\n        /* \"Arevea-NFT-Market/NFT-Contracts/contracts/finalMarket_single.sol\":10937:10945  _tokenId */\n      dup12\n        /* \"Arevea-NFT-Market/NFT-Contracts/contracts/finalMarket_single.sol\":10902:10946  nftSaleStatus[_nftContractAddress][_tokenId] */\n      dup2\n      mstore\n      0x20\n      add\n      swap1\n      dup2\n      mstore\n      0x20\n      add\n      0x00\n      keccak256\n        /* \"Arevea-NFT-Market/NFT-Contracts/contracts/finalMarket_single.sol\":10902:10950  nftSaleStatus[_nftContractAddress][_tokenId] = 1 */\n      dup2\n      swap1\n      sstore\n      pop\n        /* \"Arevea-NFT-Market/NFT-Contracts/contracts/finalMarket_single.sol\":11014:11026  fixedSaleNFT */\n      0x06\n        /* \"Arevea-NFT-Market/NFT-Contracts/contracts/finalMarket_single.sol\":11014:11033  fixedSaleNFT.length */\n      dup1\n      sload\n      swap1\n      pop\n        /* \"Arevea-NFT-Market/NFT-Contracts/contracts/finalMarket_single.sol\":10963:10980  indexFixedSaleNFT */\n      0x04\n        /* \"Arevea-NFT-Market/NFT-Contracts/contracts/finalMarket_single.sol\":10963:11001  indexFixedSaleNFT[_nftContractAddress] */\n      0x00\n        /* \"Arevea-NFT-Market/NFT-Contracts/contracts/finalMarket_single.sol\":10981:11000  _nftContractAddress */\n      dup14\n        /* \"Arevea-NFT-Market/NFT-Contracts/contracts/finalMarket_single.sol\":10963:11001  indexFixedSaleNFT[_nftContractAddress] */\n      0xffffffffffffffffffffffffffffffffffffffff\n      and\n      0xffffffffffffffffffffffffffffffffffffffff\n      and\n      dup2\n      mstore\n      0x20\n      add\n      swap1\n      dup2\n      mstore\n      0x20\n      add\n      0x00\n      keccak256\n        /* \"Arevea-NFT-Market/NFT-Contracts/contracts/finalMarket_single.sol\":10963:11011  indexFixedSaleNFT[_nftContractAddress][_tokenId] */\n      0x00\n        /* \"Arevea-NFT-Market/NFT-Contracts/contracts/finalMarket_single.sol\":11002:11010  _tokenId */\n      dup12\n        /* \"Arevea-NFT-Market/NFT-Contracts/contracts/finalMarket_single.sol\":10963:11011  indexFixedSaleNFT[_nftContractAddress][_tokenId] */\n      dup2\n      mstore\n      0x20\n      add\n      swap1\n      dup2\n      mstore\n      0x20\n      add\n      0x00\n      keccak256\n        /* \"Arevea-NFT-Market/NFT-Contracts/contracts/finalMarket_single.sol\":10963:11033  indexFixedSaleNFT[_nftContractAddress][_tokenId] = fixedSaleNFT.length */\n      dup2\n      swap1\n      sstore\n      pop\n        /* \"Arevea-NFT-Market/NFT-Contracts/contracts/finalMarket_single.sol\":11044:11056  fixedSaleNFT */\n      0x06\n        /* \"Arevea-NFT-Market/NFT-Contracts/contracts/finalMarket_single.sol\":11062:11101  SaleInfo(_nftContractAddress, _tokenId) */\n      mload(0x40)\n      dup1\n      0x40\n      add\n      0x40\n      mstore\n      dup1\n        /* \"Arevea-NFT-Market/NFT-Contracts/contracts/finalMarket_single.sol\":11071:11090  _nftContractAddress */\n      dup14\n        /* \"Arevea-NFT-Market/NFT-Contracts/contracts/finalMarket_single.sol\":11062:11101  SaleInfo(_nftContractAddress, _tokenId) */\n      0xffffffffffffffffffffffffffffffffffffffff\n      and\n      dup2\n      mstore\n      0x20\n      add\n        /* \"Arevea-NFT-Market/NFT-Contracts/contracts/finalMarket_single.sol\":11092:11100  _tokenId */\n      dup12\n        /* \"Arevea-NFT-Market/NFT-Contracts/contracts/finalMarket_single.sol\":11062:11101  SaleInfo(_nftContractAddress, _tokenId) */\n      dup2\n      mstore\n      pop\n        /* \"Arevea-NFT-Market/NFT-Contracts/contracts/finalMarket_single.sol\":11044:11102  fixedSaleNFT.push(SaleInfo(_nftContractAddress, _tokenId)) */\n      swap1\n      dup1\n      0x01\n      dup2\n      sload\n      add\n      dup1\n      dup3\n      sstore\n      dup1\n      swap2\n      pop\n      pop\n      0x01\n      swap1\n      sub\n      swap1\n      0x00\n      mstore\n      keccak256(0x00, 0x20)\n      swap1\n      0x02\n      mul\n      add\n      0x00\n      swap1\n      swap2\n      swap1\n      swap2\n      swap1\n      swap2\n      pop\n      0x00\n      dup3\n      add\n      mload\n      dup2\n      0x00\n      add\n      exp(0x0100, 0x00)\n      dup2\n      sload\n      dup2\n      0xffffffffffffffffffffffffffffffffffffffff\n      mul\n      not\n      and\n      swap1\n      dup4\n      0xffffffffffffffffffffffffffffffffffffffff\n      and\n      mul\n      or\n      swap1\n      sstore\n      pop\n      0x20\n      dup3\n      add\n      mload\n      dup2\n      0x01\n      add\n      sstore\n      pop\n      pop\n        /* \"Arevea-NFT-Market/NFT-Contracts/contracts/finalMarket_single.sol\":11123:11142  _nftContractAddress */\n      dup11\n        /* \"Arevea-NFT-Market/NFT-Contracts/contracts/finalMarket_single.sol\":11115:11160  IERC721(_nftContractAddress).safeTransferFrom */\n      0xffffffffffffffffffffffffffffffffffffffff\n      and\n      0x42842e0e\n        /* \"Arevea-NFT-Market/NFT-Contracts/contracts/finalMarket_single.sol\":11175:11185  msg.sender */\n      caller\n        /* \"Arevea-NFT-Market/NFT-Contracts/contracts/finalMarket_single.sol\":11208:11212  this */\n      address\n        /* \"Arevea-NFT-Market/NFT-Contracts/contracts/finalMarket_single.sol\":11228:11236  _tokenId */\n      dup13\n        /* \"Arevea-NFT-Market/NFT-Contracts/contracts/finalMarket_single.sol\":11115:11247  IERC721(_nftContractAddress).safeTransferFrom(\r... */\n      mload(0x40)\n      dup5\n      0xffffffff\n      and\n      0xe0\n      shl\n      dup2\n      mstore\n      0x04\n      add\n      tag_251\n      swap4\n      swap3\n      swap2\n      swap1\n      tag_122\n      jump\t// in\n    tag_251:\n      0x00\n      mload(0x40)\n      dup1\n      dup4\n      sub\n      dup2\n      0x00\n      dup8\n      dup1\n      extcodesize\n      iszero\n      dup1\n      iszero\n      tag_252\n      jumpi\n      0x00\n      dup1\n      revert\n    tag_252:\n      pop\n      gas\n      call\n      iszero\n      dup1\n      iszero\n      tag_254\n      jumpi\n      returndatasize\n      0x00\n      dup1\n      returndatacopy\n      revert(0x00, returndatasize)\n    tag_254:\n      pop\n      pop\n      pop\n      pop\n        /* \"Arevea-NFT-Market/NFT-Contracts/contracts/finalMarket_single.sol\":11265:11446  NftFixedSale(\r... */\n      0x078eead3cd01ed921c7653d000a6b73aea643a7b9c066fb7d93eb2eae8acc2d9\n        /* \"Arevea-NFT-Market/NFT-Contracts/contracts/finalMarket_single.sol\":11292:11311  _nftContractAddress */\n      dup12\n        /* \"Arevea-NFT-Market/NFT-Contracts/contracts/finalMarket_single.sol\":11326:11336  msg.sender */\n      caller\n        /* \"Arevea-NFT-Market/NFT-Contracts/contracts/finalMarket_single.sol\":11351:11357  _erc20 */\n      dup13\n        /* \"Arevea-NFT-Market/NFT-Contracts/contracts/finalMarket_single.sol\":11372:11380  _tokenId */\n      dup13\n        /* \"Arevea-NFT-Market/NFT-Contracts/contracts/finalMarket_single.sol\":11395:11405  _salePrice */\n      dup13\n        /* \"Arevea-NFT-Market/NFT-Contracts/contracts/finalMarket_single.sol\":11420:11435  block.timestamp */\n      timestamp\n        /* \"Arevea-NFT-Market/NFT-Contracts/contracts/finalMarket_single.sol\":11265:11446  NftFixedSale(\r... */\n      mload(0x40)\n      tag_255\n      swap7\n      swap6\n      swap5\n      swap4\n      swap3\n      swap2\n      swap1\n      tag_256\n      jump\t// in\n    tag_255:\n      mload(0x40)\n      dup1\n      swap2\n      sub\n      swap1\n      log1\n        /* \"Arevea-NFT-Market/NFT-Contracts/contracts/finalMarket_single.sol\":5925:5926  _ */\n      pop\n        /* \"Arevea-NFT-Market/NFT-Contracts/contracts/finalMarket_single.sol\":4442:4443  _ */\n      pop\n      pop\n        /* \"Arevea-NFT-Market/NFT-Contracts/contracts/finalMarket_single.sol\":5265:5266  _ */\n      pop\n      pop\n        /* \"Arevea-NFT-Market/NFT-Contracts/contracts/finalMarket_single.sol\":10319:11454  function nftFixedSale(\r... */\n      pop\n      pop\n      pop\n      pop\n      pop\n      pop\n      jump\t// out\n        /* \"Arevea-NFT-Market/NFT-Contracts/contracts/finalMarket_single.sol\":20454:20678  function getNftAuctionSaleDetails(\r... */\n    tag_80:\n        /* \"Arevea-NFT-Market/NFT-Contracts/contracts/finalMarket_single.sol\":20583:20597  Auction memory */\n      tag_257\n      tag_258\n      jump\t// in\n    tag_257:\n        /* \"Arevea-NFT-Market/NFT-Contracts/contracts/finalMarket_single.sol\":20617:20639  nftContractAuctionSale */\n      0x01\n        /* \"Arevea-NFT-Market/NFT-Contracts/contracts/finalMarket_single.sol\":20617:20660  nftContractAuctionSale[_nftContractAddress] */\n      0x00\n        /* \"Arevea-NFT-Market/NFT-Contracts/contracts/finalMarket_single.sol\":20640:20659  _nftContractAddress */\n      dup5\n        /* \"Arevea-NFT-Market/NFT-Contracts/contracts/finalMarket_single.sol\":20617:20660  nftContractAuctionSale[_nftContractAddress] */\n      0xffffffffffffffffffffffffffffffffffffffff\n      and\n      0xffffffffffffffffffffffffffffffffffffffff\n      and\n      dup2\n      mstore\n      0x20\n      add\n      swap1\n      dup2\n      mstore\n      0x20\n      add\n      0x00\n      keccak256\n        /* \"Arevea-NFT-Market/NFT-Contracts/contracts/finalMarket_single.sol\":20617:20670  nftContractAuctionSale[_nftContractAddress][_tokenId] */\n      0x00\n        /* \"Arevea-NFT-Market/NFT-Contracts/contracts/finalMarket_single.sol\":20661:20669  _tokenId */\n      dup4\n        /* \"Arevea-NFT-Market/NFT-Contracts/contracts/finalMarket_single.sol\":20617:20670  nftContractAuctionSale[_nftContractAddress][_tokenId] */\n      dup2\n      mstore\n      0x20\n      add\n      swap1\n      dup2\n      mstore\n      0x20\n      add\n      0x00\n      keccak256\n        /* \"Arevea-NFT-Market/NFT-Contracts/contracts/finalMarket_single.sol\":20610:20670  return nftContractAuctionSale[_nftContractAddress][_tokenId] */\n      mload(0x40)\n      dup1\n      0xe0\n      add\n      0x40\n      mstore\n      swap1\n      dup2\n      0x00\n      dup3\n      add\n      sload\n      dup2\n      mstore\n      0x20\n      add\n      0x01\n      dup3\n      add\n      sload\n      dup2\n      mstore\n      0x20\n      add\n      0x02\n      dup3\n      add\n      sload\n      dup2\n      mstore\n      0x20\n      add\n      0x03\n      dup3\n      add\n      sload\n      dup2\n      mstore\n      0x20\n      add\n      0x04\n      dup3\n      add\n      0x00\n      swap1\n      sload\n      swap1\n      0x0100\n      exp\n      swap1\n      div\n      0xffffffffffffffffffffffffffffffffffffffff\n      and\n      0xffffffffffffffffffffffffffffffffffffffff\n      and\n      0xffffffffffffffffffffffffffffffffffffffff\n      and\n      dup2\n      mstore\n      0x20\n      add\n      0x05\n      dup3\n      add\n      0x00\n      swap1\n      sload\n      swap1\n      0x0100\n      exp\n      swap1\n      div\n      0xffffffffffffffffffffffffffffffffffffffff\n      and\n      0xffffffffffffffffffffffffffffffffffffffff\n      and\n      0xffffffffffffffffffffffffffffffffffffffff\n      and\n      dup2\n      mstore\n      0x20\n      add\n      0x06\n      dup3\n      add\n      0x00\n      swap1\n      sload\n      swap1\n      0x0100\n      exp\n      swap1\n      div\n      0xffffffffffffffffffffffffffffffffffffffff\n      and\n      0xffffffffffffffffffffffffffffffffffffffff\n      and\n      0xffffffffffffffffffffffffffffffffffffffff\n      and\n      dup2\n      mstore\n      pop\n      pop\n      swap1\n      pop\n        /* \"Arevea-NFT-Market/NFT-Contracts/contracts/finalMarket_single.sol\":20454:20678  function getNftAuctionSaleDetails(\r... */\n      swap3\n      swap2\n      pop\n      pop\n      jump\t// out\n        /* \"Arevea-NFT-Market/NFT-Contracts/contracts/finalMarket_single.sol\":1631:1732  mapping(address => mapping(uint256 => mapping(address => uint256)))\r... */\n    tag_87:\n      mstore(0x20, 0x03)\n      dup3\n      0x00\n      mstore\n      mstore(0x20, keccak256(0x00, 0x40))\n      dup2\n      0x00\n      mstore\n      mstore(0x20, keccak256(0x00, 0x40))\n      dup1\n      0x00\n      mstore\n      keccak256(0x00, 0x40)\n      0x00\n      swap3\n      pop\n      swap3\n      pop\n      pop\n      pop\n      sload\n      dup2\n      jump\t// out\n        /* \"Arevea-NFT-Market/NFT-Contracts/contracts/finalMarket_single.sol\":9987:10276  function Sell_AreveaToken(address _erc20_contract, address seller, uint256 _amount) public returns (bool){\r... */\n    tag_92:\n        /* \"Arevea-NFT-Market/NFT-Contracts/contracts/finalMarket_single.sol\":10087:10091  bool */\n      0x00\n        /* \"Arevea-NFT-Market/NFT-Contracts/contracts/finalMarket_single.sol\":10101:10124  address  ERC20_contract */\n      dup1\n        /* \"Arevea-NFT-Market/NFT-Contracts/contracts/finalMarket_single.sol\":10126:10141  _erc20_contract */\n      dup5\n        /* \"Arevea-NFT-Market/NFT-Contracts/contracts/finalMarket_single.sol\":10101:10141  address  ERC20_contract= _erc20_contract */\n      swap1\n      pop\n        /* \"Arevea-NFT-Market/NFT-Contracts/contracts/finalMarket_single.sol\":10157:10171  ERC20_contract */\n      dup1\n        /* \"Arevea-NFT-Market/NFT-Contracts/contracts/finalMarket_single.sol\":10150:10185  IERC20(ERC20_contract).transferFrom */\n      0xffffffffffffffffffffffffffffffffffffffff\n      and\n      0x23b872dd\n        /* \"Arevea-NFT-Market/NFT-Contracts/contracts/finalMarket_single.sol\":10186:10192  seller */\n      dup6\n        /* \"Arevea-NFT-Market/NFT-Contracts/contracts/finalMarket_single.sol\":10194:10236  0x2258c5b9C82ff0Fa923756ED3FD2aCb5616dF57c */\n      0x2258c5b9c82ff0fa923756ed3fd2acb5616df57c\n        /* \"Arevea-NFT-Market/NFT-Contracts/contracts/finalMarket_single.sol\":10238:10245  _amount */\n      dup7\n        /* \"Arevea-NFT-Market/NFT-Contracts/contracts/finalMarket_single.sol\":10150:10246  IERC20(ERC20_contract).transferFrom(seller, 0x2258c5b9C82ff0Fa923756ED3FD2aCb5616dF57c, _amount) */\n      mload(0x40)\n      dup5\n      0xffffffff\n      and\n      0xe0\n      shl\n      dup2\n      mstore\n      0x04\n      add\n      tag_261\n      swap4\n      swap3\n      swap2\n      swap1\n      tag_122\n      jump\t// in\n    tag_261:\n      0x20\n      mload(0x40)\n      dup1\n      dup4\n      sub\n      dup2\n      0x00\n      dup8\n      dup1\n      extcodesize\n      iszero\n      dup1\n      iszero\n      tag_262\n      jumpi\n      0x00\n      dup1\n      revert\n    tag_262:\n      pop\n      gas\n      call\n      iszero\n      dup1\n      iszero\n      tag_264\n      jumpi\n      returndatasize\n      0x00\n      dup1\n      returndatacopy\n      revert(0x00, returndatasize)\n    tag_264:\n      pop\n      pop\n      pop\n      pop\n      mload(0x40)\n      returndatasize\n      not(0x1f)\n      0x1f\n      dup3\n      add\n      and\n      dup3\n      add\n      dup1\n      0x40\n      mstore\n      pop\n      dup2\n      add\n      swap1\n      tag_265\n      swap2\n      swap1\n      tag_127\n      jump\t// in\n    tag_265:\n      pop\n        /* \"Arevea-NFT-Market/NFT-Contracts/contracts/finalMarket_single.sol\":10262:10266  true */\n      0x01\n        /* \"Arevea-NFT-Market/NFT-Contracts/contracts/finalMarket_single.sol\":10255:10267  return(true) */\n      swap2\n      pop\n      pop\n        /* \"Arevea-NFT-Market/NFT-Contracts/contracts/finalMarket_single.sol\":9987:10276  function Sell_AreveaToken(address _erc20_contract, address seller, uint256 _amount) public returns (bool){\r... */\n      swap4\n      swap3\n      pop\n      pop\n      pop\n      jump\t// out\n        /* \"Arevea-NFT-Market/NFT-Contracts/contracts/finalMarket_single.sol\":17808:18549  function _cancelAuctionSale(address _nftContractAddress, uint256 _tokenId)\r... */\n    tag_97:\n        /* \"Arevea-NFT-Market/NFT-Contracts/contracts/finalMarket_single.sol\":17929:17948  _nftContractAddress */\n      dup2\n        /* \"Arevea-NFT-Market/NFT-Contracts/contracts/finalMarket_single.sol\":17950:17958  _tokenId */\n      dup2\n        /* \"Arevea-NFT-Market/NFT-Contracts/contracts/finalMarket_single.sol\":4928:4929  2 */\n      0x02\n        /* \"Arevea-NFT-Market/NFT-Contracts/contracts/finalMarket_single.sol\":4880:4893  nftSaleStatus */\n      dup1\n        /* \"Arevea-NFT-Market/NFT-Contracts/contracts/finalMarket_single.sol\":4880:4914  nftSaleStatus[_nftContractAddress] */\n      0x00\n        /* \"Arevea-NFT-Market/NFT-Contracts/contracts/finalMarket_single.sol\":4894:4913  _nftContractAddress */\n      dup5\n        /* \"Arevea-NFT-Market/NFT-Contracts/contracts/finalMarket_single.sol\":4880:4914  nftSaleStatus[_nftContractAddress] */\n      0xffffffffffffffffffffffffffffffffffffffff\n      and\n      0xffffffffffffffffffffffffffffffffffffffff\n      and\n      dup2\n      mstore\n      0x20\n      add\n      swap1\n      dup2\n      mstore\n      0x20\n      add\n      0x00\n      keccak256\n        /* \"Arevea-NFT-Market/NFT-Contracts/contracts/finalMarket_single.sol\":4880:4924  nftSaleStatus[_nftContractAddress][_tokenId] */\n      0x00\n        /* \"Arevea-NFT-Market/NFT-Contracts/contracts/finalMarket_single.sol\":4915:4923  _tokenId */\n      dup4\n        /* \"Arevea-NFT-Market/NFT-Contracts/contracts/finalMarket_single.sol\":4880:4924  nftSaleStatus[_nftContractAddress][_tokenId] */\n      dup2\n      mstore\n      0x20\n      add\n      swap1\n      dup2\n      mstore\n      0x20\n      add\n      0x00\n      keccak256\n      sload\n        /* \"Arevea-NFT-Market/NFT-Contracts/contracts/finalMarket_single.sol\":4880:4929  nftSaleStatus[_nftContractAddress][_tokenId] == 2 */\n      eq\n        /* \"Arevea-NFT-Market/NFT-Contracts/contracts/finalMarket_single.sol\":4858:4980  require(\r... */\n      tag_267\n      jumpi\n      mload(0x40)\n      0x08c379a000000000000000000000000000000000000000000000000000000000\n      dup2\n      mstore\n      0x04\n      add\n      tag_268\n      swap1\n      tag_132\n      jump\t// in\n    tag_268:\n      mload(0x40)\n      dup1\n      swap2\n      sub\n      swap1\n      revert\n    tag_267:\n        /* \"Arevea-NFT-Market/NFT-Contracts/contracts/finalMarket_single.sol\":17991:18010  _nftContractAddress */\n      dup4\n        /* \"Arevea-NFT-Market/NFT-Contracts/contracts/finalMarket_single.sol\":18012:18020  _tokenId */\n      dup4\n        /* \"Arevea-NFT-Market/NFT-Contracts/contracts/finalMarket_single.sol\":7647:7669  nftContractAuctionSale */\n      0x01\n        /* \"Arevea-NFT-Market/NFT-Contracts/contracts/finalMarket_single.sol\":7647:7690  nftContractAuctionSale[_nftContractAddress] */\n      0x00\n        /* \"Arevea-NFT-Market/NFT-Contracts/contracts/finalMarket_single.sol\":7670:7689  _nftContractAddress */\n      dup4\n        /* \"Arevea-NFT-Market/NFT-Contracts/contracts/finalMarket_single.sol\":7647:7690  nftContractAuctionSale[_nftContractAddress] */\n      0xffffffffffffffffffffffffffffffffffffffff\n      and\n      0xffffffffffffffffffffffffffffffffffffffff\n      and\n      dup2\n      mstore\n      0x20\n      add\n      swap1\n      dup2\n      mstore\n      0x20\n      add\n      0x00\n      keccak256\n        /* \"Arevea-NFT-Market/NFT-Contracts/contracts/finalMarket_single.sol\":7647:7700  nftContractAuctionSale[_nftContractAddress][_tokenId] */\n      0x00\n        /* \"Arevea-NFT-Market/NFT-Contracts/contracts/finalMarket_single.sol\":7691:7699  _tokenId */\n      dup3\n        /* \"Arevea-NFT-Market/NFT-Contracts/contracts/finalMarket_single.sol\":7647:7700  nftContractAuctionSale[_nftContractAddress][_tokenId] */\n      dup2\n      mstore\n      0x20\n      add\n      swap1\n      dup2\n      mstore\n      0x20\n      add\n      0x00\n      keccak256\n        /* \"Arevea-NFT-Market/NFT-Contracts/contracts/finalMarket_single.sol\":7647:7710  nftContractAuctionSale[_nftContractAddress][_tokenId].nftSeller */\n      0x05\n      add\n      0x00\n      swap1\n      sload\n      swap1\n      0x0100\n      exp\n      swap1\n      div\n      0xffffffffffffffffffffffffffffffffffffffff\n      and\n        /* \"Arevea-NFT-Market/NFT-Contracts/contracts/finalMarket_single.sol\":7616:7710  msg.sender ==\r... */\n      0xffffffffffffffffffffffffffffffffffffffff\n      and\n        /* \"Arevea-NFT-Market/NFT-Contracts/contracts/finalMarket_single.sol\":7616:7626  msg.sender */\n      caller\n        /* \"Arevea-NFT-Market/NFT-Contracts/contracts/finalMarket_single.sol\":7616:7710  msg.sender ==\r... */\n      0xffffffffffffffffffffffffffffffffffffffff\n      and\n      eq\n        /* \"Arevea-NFT-Market/NFT-Contracts/contracts/finalMarket_single.sol\":7594:7751  require(\r... */\n      tag_270\n      jumpi\n      mload(0x40)\n      0x08c379a000000000000000000000000000000000000000000000000000000000\n      dup2\n      mstore\n      0x04\n      add\n      tag_271\n      swap1\n      tag_272\n      jump\t// in\n    tag_271:\n      mload(0x40)\n      dup1\n      swap2\n      sub\n      swap1\n      revert\n    tag_270:\n        /* \"Arevea-NFT-Market/NFT-Contracts/contracts/finalMarket_single.sol\":18048:18067  _nftContractAddress */\n      dup6\n        /* \"Arevea-NFT-Market/NFT-Contracts/contracts/finalMarket_single.sol\":18069:18077  _tokenId */\n      dup6\n        /* \"Arevea-NFT-Market/NFT-Contracts/contracts/finalMarket_single.sol\":7285:7307  nftContractAuctionSale */\n      0x01\n        /* \"Arevea-NFT-Market/NFT-Contracts/contracts/finalMarket_single.sol\":7285:7328  nftContractAuctionSale[_nftContractAddress] */\n      0x00\n        /* \"Arevea-NFT-Market/NFT-Contracts/contracts/finalMarket_single.sol\":7308:7327  _nftContractAddress */\n      dup4\n        /* \"Arevea-NFT-Market/NFT-Contracts/contracts/finalMarket_single.sol\":7285:7328  nftContractAuctionSale[_nftContractAddress] */\n      0xffffffffffffffffffffffffffffffffffffffff\n      and\n      0xffffffffffffffffffffffffffffffffffffffff\n      and\n      dup2\n      mstore\n      0x20\n      add\n      swap1\n      dup2\n      mstore\n      0x20\n      add\n      0x00\n      keccak256\n        /* \"Arevea-NFT-Market/NFT-Contracts/contracts/finalMarket_single.sol\":7285:7338  nftContractAuctionSale[_nftContractAddress][_tokenId] */\n      0x00\n        /* \"Arevea-NFT-Market/NFT-Contracts/contracts/finalMarket_single.sol\":7329:7337  _tokenId */\n      dup3\n        /* \"Arevea-NFT-Market/NFT-Contracts/contracts/finalMarket_single.sol\":7285:7338  nftContractAuctionSale[_nftContractAddress][_tokenId] */\n      dup2\n      mstore\n      0x20\n      add\n      swap1\n      dup2\n      mstore\n      0x20\n      add\n      0x00\n      keccak256\n        /* \"Arevea-NFT-Market/NFT-Contracts/contracts/finalMarket_single.sol\":7285:7371  nftContractAuctionSale[_nftContractAddress][_tokenId]\r... */\n      0x01\n      add\n      sload\n        /* \"Arevea-NFT-Market/NFT-Contracts/contracts/finalMarket_single.sol\":7250:7265  block.timestamp */\n      timestamp\n        /* \"Arevea-NFT-Market/NFT-Contracts/contracts/finalMarket_single.sol\":7250:7371  block.timestamp <\r... */\n      lt\n        /* \"Arevea-NFT-Market/NFT-Contracts/contracts/finalMarket_single.sol\":7228:7410  require(\r... */\n      tag_274\n      jumpi\n      mload(0x40)\n      0x08c379a000000000000000000000000000000000000000000000000000000000\n      dup2\n      mstore\n      0x04\n      add\n      tag_275\n      swap1\n      tag_136\n      jump\t// in\n    tag_275:\n      mload(0x40)\n      dup1\n      swap2\n      sub\n      swap1\n      revert\n    tag_274:\n        /* \"Arevea-NFT-Market/NFT-Contracts/contracts/finalMarket_single.sol\":18108:18127  _nftContractAddress */\n      dup8\n        /* \"Arevea-NFT-Market/NFT-Contracts/contracts/finalMarket_single.sol\":18129:18137  _tokenId */\n      dup8\n        /* \"Arevea-NFT-Market/NFT-Contracts/contracts/finalMarket_single.sol\":8897:8919  nftContractAuctionSale */\n      0x01\n        /* \"Arevea-NFT-Market/NFT-Contracts/contracts/finalMarket_single.sol\":8897:8940  nftContractAuctionSale[_nftContractAddress] */\n      0x00\n        /* \"Arevea-NFT-Market/NFT-Contracts/contracts/finalMarket_single.sol\":8920:8939  _nftContractAddress */\n      dup4\n        /* \"Arevea-NFT-Market/NFT-Contracts/contracts/finalMarket_single.sol\":8897:8940  nftContractAuctionSale[_nftContractAddress] */\n      0xffffffffffffffffffffffffffffffffffffffff\n      and\n      0xffffffffffffffffffffffffffffffffffffffff\n      and\n      dup2\n      mstore\n      0x20\n      add\n      swap1\n      dup2\n      mstore\n      0x20\n      add\n      0x00\n      keccak256\n        /* \"Arevea-NFT-Market/NFT-Contracts/contracts/finalMarket_single.sol\":8897:8950  nftContractAuctionSale[_nftContractAddress][_tokenId] */\n      0x00\n        /* \"Arevea-NFT-Market/NFT-Contracts/contracts/finalMarket_single.sol\":8941:8949  _tokenId */\n      dup3\n        /* \"Arevea-NFT-Market/NFT-Contracts/contracts/finalMarket_single.sol\":8897:8950  nftContractAuctionSale[_nftContractAddress][_tokenId] */\n      dup2\n      mstore\n      0x20\n      add\n      swap1\n      dup2\n      mstore\n      0x20\n      add\n      0x00\n      keccak256\n        /* \"Arevea-NFT-Market/NFT-Contracts/contracts/finalMarket_single.sol\":8897:8989  nftContractAuctionSale[_nftContractAddress][_tokenId]\r... */\n      0x04\n      add\n      0x00\n      swap1\n      sload\n      swap1\n      0x0100\n      exp\n      swap1\n      div\n      0xffffffffffffffffffffffffffffffffffffffff\n      and\n        /* \"Arevea-NFT-Market/NFT-Contracts/contracts/finalMarket_single.sol\":8866:8989  address(0) ==\r... */\n      0xffffffffffffffffffffffffffffffffffffffff\n      and\n        /* \"Arevea-NFT-Market/NFT-Contracts/contracts/finalMarket_single.sol\":8874:8875  0 */\n      0x00\n        /* \"Arevea-NFT-Market/NFT-Contracts/contracts/finalMarket_single.sol\":8866:8989  address(0) ==\r... */\n      0xffffffffffffffffffffffffffffffffffffffff\n      and\n      eq\n        /* \"Arevea-NFT-Market/NFT-Contracts/contracts/finalMarket_single.sol\":8844:9025  require(\r... */\n      tag_277\n      jumpi\n      mload(0x40)\n      0x08c379a000000000000000000000000000000000000000000000000000000000\n      dup2\n      mstore\n      0x04\n      add\n      tag_278\n      swap1\n      tag_279\n      jump\t// in\n    tag_278:\n      mload(0x40)\n      dup1\n      swap2\n      sub\n      swap1\n      revert\n    tag_277:\n        /* \"Arevea-NFT-Market/NFT-Contracts/contracts/finalMarket_single.sol\":18202:18203  0 */\n      0x00\n        /* \"Arevea-NFT-Market/NFT-Contracts/contracts/finalMarket_single.sol\":18155:18168  nftSaleStatus */\n      0x02\n        /* \"Arevea-NFT-Market/NFT-Contracts/contracts/finalMarket_single.sol\":18155:18189  nftSaleStatus[_nftContractAddress] */\n      0x00\n        /* \"Arevea-NFT-Market/NFT-Contracts/contracts/finalMarket_single.sol\":18169:18188  _nftContractAddress */\n      dup13\n        /* \"Arevea-NFT-Market/NFT-Contracts/contracts/finalMarket_single.sol\":18155:18189  nftSaleStatus[_nftContractAddress] */\n      0xffffffffffffffffffffffffffffffffffffffff\n      and\n      0xffffffffffffffffffffffffffffffffffffffff\n      and\n      dup2\n      mstore\n      0x20\n      add\n      swap1\n      dup2\n      mstore\n      0x20\n      add\n      0x00\n      keccak256\n        /* \"Arevea-NFT-Market/NFT-Contracts/contracts/finalMarket_single.sol\":18155:18199  nftSaleStatus[_nftContractAddress][_tokenId] */\n      0x00\n        /* \"Arevea-NFT-Market/NFT-Contracts/contracts/finalMarket_single.sol\":18190:18198  _tokenId */\n      dup12\n        /* \"Arevea-NFT-Market/NFT-Contracts/contracts/finalMarket_single.sol\":18155:18199  nftSaleStatus[_nftContractAddress][_tokenId] */\n      dup2\n      mstore\n      0x20\n      add\n      swap1\n      dup2\n      mstore\n      0x20\n      add\n      0x00\n      keccak256\n        /* \"Arevea-NFT-Market/NFT-Contracts/contracts/finalMarket_single.sol\":18155:18203  nftSaleStatus[_nftContractAddress][_tokenId] = 0 */\n      dup2\n      swap1\n      sstore\n      pop\n        /* \"Arevea-NFT-Market/NFT-Contracts/contracts/finalMarket_single.sol\":18224:18243  _nftContractAddress */\n      dup10\n        /* \"Arevea-NFT-Market/NFT-Contracts/contracts/finalMarket_single.sol\":18216:18261  IERC721(_nftContractAddress).safeTransferFrom */\n      0xffffffffffffffffffffffffffffffffffffffff\n      and\n      0x42842e0e\n        /* \"Arevea-NFT-Market/NFT-Contracts/contracts/finalMarket_single.sol\":18284:18288  this */\n      address\n        /* \"Arevea-NFT-Market/NFT-Contracts/contracts/finalMarket_single.sol\":18304:18314  msg.sender */\n      caller\n        /* \"Arevea-NFT-Market/NFT-Contracts/contracts/finalMarket_single.sol\":18329:18337  _tokenId */\n      dup13\n        /* \"Arevea-NFT-Market/NFT-Contracts/contracts/finalMarket_single.sol\":18216:18348  IERC721(_nftContractAddress).safeTransferFrom(\r... */\n      mload(0x40)\n      dup5\n      0xffffffff\n      and\n      0xe0\n      shl\n      dup2\n      mstore\n      0x04\n      add\n      tag_281\n      swap4\n      swap3\n      swap2\n      swap1\n      tag_122\n      jump\t// in\n    tag_281:\n      0x00\n      mload(0x40)\n      dup1\n      dup4\n      sub\n      dup2\n      0x00\n      dup8\n      dup1\n      extcodesize\n      iszero\n      dup1\n      iszero\n      tag_282\n      jumpi\n      0x00\n      dup1\n      revert\n    tag_282:\n      pop\n      gas\n      call\n      iszero\n      dup1\n      iszero\n      tag_284\n      jumpi\n      returndatasize\n      0x00\n      dup1\n      returndatacopy\n      revert(0x00, returndatasize)\n    tag_284:\n      pop\n      pop\n      pop\n      pop\n        /* \"Arevea-NFT-Market/NFT-Contracts/contracts/finalMarket_single.sol\":18368:18382  auctionSaleNFT */\n      0x07\n        /* \"Arevea-NFT-Market/NFT-Contracts/contracts/finalMarket_single.sol\":18398:18417  indexAuctionSaleNFT */\n      0x05\n        /* \"Arevea-NFT-Market/NFT-Contracts/contracts/finalMarket_single.sol\":18398:18438  indexAuctionSaleNFT[_nftContractAddress] */\n      0x00\n        /* \"Arevea-NFT-Market/NFT-Contracts/contracts/finalMarket_single.sol\":18418:18437  _nftContractAddress */\n      dup13\n        /* \"Arevea-NFT-Market/NFT-Contracts/contracts/finalMarket_single.sol\":18398:18438  indexAuctionSaleNFT[_nftContractAddress] */\n      0xffffffffffffffffffffffffffffffffffffffff\n      and\n      0xffffffffffffffffffffffffffffffffffffffff\n      and\n      dup2\n      mstore\n      0x20\n      add\n      swap1\n      dup2\n      mstore\n      0x20\n      add\n      0x00\n      keccak256\n        /* \"Arevea-NFT-Market/NFT-Contracts/contracts/finalMarket_single.sol\":18398:18448  indexAuctionSaleNFT[_nftContractAddress][_tokenId] */\n      0x00\n        /* \"Arevea-NFT-Market/NFT-Contracts/contracts/finalMarket_single.sol\":18439:18447  _tokenId */\n      dup12\n        /* \"Arevea-NFT-Market/NFT-Contracts/contracts/finalMarket_single.sol\":18398:18448  indexAuctionSaleNFT[_nftContractAddress][_tokenId] */\n      dup2\n      mstore\n      0x20\n      add\n      swap1\n      dup2\n      mstore\n      0x20\n      add\n      0x00\n      keccak256\n      sload\n        /* \"Arevea-NFT-Market/NFT-Contracts/contracts/finalMarket_single.sol\":18368:18460  auctionSaleNFT[\r... */\n      dup2\n      sload\n      dup2\n      lt\n      tag_285\n      jumpi\n      tag_286\n      tag_219\n      jump\t// in\n    tag_286:\n    tag_285:\n      swap1\n      0x00\n      mstore\n      keccak256(0x00, 0x20)\n      swap1\n      0x02\n      mul\n      add\n      0x00\n        /* \"Arevea-NFT-Market/NFT-Contracts/contracts/finalMarket_single.sol\":18361:18460  delete auctionSaleNFT[\r... */\n      dup1\n      dup3\n      add\n      exp(0x0100, 0x00)\n      dup2\n      sload\n      swap1\n      0xffffffffffffffffffffffffffffffffffffffff\n      mul\n      not\n      and\n      swap1\n      sstore\n      0x01\n      dup3\n      add\n      0x00\n      swap1\n      sstore\n      pop\n      pop\n        /* \"Arevea-NFT-Market/NFT-Contracts/contracts/finalMarket_single.sol\":18478:18541  CancelNftAuctionSale(_nftContractAddress, _tokenId, msg.sender) */\n      0xb9d411977d4ee731f87bb8f16eb6f8c1fb579cff684642052bf6084e6e33238d\n        /* \"Arevea-NFT-Market/NFT-Contracts/contracts/finalMarket_single.sol\":18499:18518  _nftContractAddress */\n      dup11\n        /* \"Arevea-NFT-Market/NFT-Contracts/contracts/finalMarket_single.sol\":18520:18528  _tokenId */\n      dup11\n        /* \"Arevea-NFT-Market/NFT-Contracts/contracts/finalMarket_single.sol\":18530:18540  msg.sender */\n      caller\n        /* \"Arevea-NFT-Market/NFT-Contracts/contracts/finalMarket_single.sol\":18478:18541  CancelNftAuctionSale(_nftContractAddress, _tokenId, msg.sender) */\n      mload(0x40)\n      tag_288\n      swap4\n      swap3\n      swap2\n      swap1\n      tag_207\n      jump\t// in\n    tag_288:\n      mload(0x40)\n      dup1\n      swap2\n      sub\n      swap1\n      log1\n        /* \"Arevea-NFT-Market/NFT-Contracts/contracts/finalMarket_single.sol\":7421:7422  _ */\n      pop\n      pop\n        /* \"Arevea-NFT-Market/NFT-Contracts/contracts/finalMarket_single.sol\":7762:7763  _ */\n      pop\n      pop\n        /* \"Arevea-NFT-Market/NFT-Contracts/contracts/finalMarket_single.sol\":4991:4992  _ */\n      pop\n      pop\n        /* \"Arevea-NFT-Market/NFT-Contracts/contracts/finalMarket_single.sol\":17808:18549  function _cancelAuctionSale(address _nftContractAddress, uint256 _tokenId)\r... */\n      pop\n      pop\n      pop\n      pop\n      jump\t// out\n        /* \"Arevea-NFT-Market/NFT-Contracts/contracts/finalMarket_single.sol\":21034:21253  function getFixedSale(address _nftContractAddress, uint256 _tokenId)\r... */\n    tag_101:\n        /* \"Arevea-NFT-Market/NFT-Contracts/contracts/finalMarket_single.sol\":21153:21169  FixedSale memory */\n      tag_289\n      tag_290\n      jump\t// in\n    tag_289:\n        /* \"Arevea-NFT-Market/NFT-Contracts/contracts/finalMarket_single.sol\":21194:21214  nftContractFixedSale */\n      0x00\n        /* \"Arevea-NFT-Market/NFT-Contracts/contracts/finalMarket_single.sol\":21194:21235  nftContractFixedSale[_nftContractAddress] */\n      dup1\n        /* \"Arevea-NFT-Market/NFT-Contracts/contracts/finalMarket_single.sol\":21215:21234  _nftContractAddress */\n      dup5\n        /* \"Arevea-NFT-Market/NFT-Contracts/contracts/finalMarket_single.sol\":21194:21235  nftContractFixedSale[_nftContractAddress] */\n      0xffffffffffffffffffffffffffffffffffffffff\n      and\n      0xffffffffffffffffffffffffffffffffffffffff\n      and\n      dup2\n      mstore\n      0x20\n      add\n      swap1\n      dup2\n      mstore\n      0x20\n      add\n      0x00\n      keccak256\n        /* \"Arevea-NFT-Market/NFT-Contracts/contracts/finalMarket_single.sol\":21194:21245  nftContractFixedSale[_nftContractAddress][_tokenId] */\n      0x00\n        /* \"Arevea-NFT-Market/NFT-Contracts/contracts/finalMarket_single.sol\":21236:21244  _tokenId */\n      dup4\n        /* \"Arevea-NFT-Market/NFT-Contracts/contracts/finalMarket_single.sol\":21194:21245  nftContractFixedSale[_nftContractAddress][_tokenId] */\n      dup2\n      mstore\n      0x20\n      add\n      swap1\n      dup2\n      mstore\n      0x20\n      add\n      0x00\n      keccak256\n        /* \"Arevea-NFT-Market/NFT-Contracts/contracts/finalMarket_single.sol\":21187:21245  return nftContractFixedSale[_nftContractAddress][_tokenId] */\n      mload(0x40)\n      dup1\n      0x80\n      add\n      0x40\n      mstore\n      swap1\n      dup2\n      0x00\n      dup3\n      add\n      0x00\n      swap1\n      sload\n      swap1\n      0x0100\n      exp\n      swap1\n      div\n      0xffffffffffffffffffffffffffffffffffffffff\n      and\n      0xffffffffffffffffffffffffffffffffffffffff\n      and\n      0xffffffffffffffffffffffffffffffffffffffff\n      and\n      dup2\n      mstore\n      0x20\n      add\n      0x01\n      dup3\n      add\n      0x00\n      swap1\n      sload\n      swap1\n      0x0100\n      exp\n      swap1\n      div\n      0xffffffffffffffffffffffffffffffffffffffff\n      and\n      0xffffffffffffffffffffffffffffffffffffffff\n      and\n      0xffffffffffffffffffffffffffffffffffffffff\n      and\n      dup2\n      mstore\n      0x20\n      add\n      0x02\n      dup3\n      add\n      0x00\n      swap1\n      sload\n      swap1\n      0x0100\n      exp\n      swap1\n      div\n      0xffffffffffffffffffffffffffffffffffffffff\n      and\n      0xffffffffffffffffffffffffffffffffffffffff\n      and\n      0xffffffffffffffffffffffffffffffffffffffff\n      and\n      dup2\n      mstore\n      0x20\n      add\n      0x03\n      dup3\n      add\n      sload\n      dup2\n      mstore\n      pop\n      pop\n      swap1\n      pop\n        /* \"Arevea-NFT-Market/NFT-Contracts/contracts/finalMarket_single.sol\":21034:21253  function getFixedSale(address _nftContractAddress, uint256 _tokenId)\r... */\n      swap3\n      swap2\n      pop\n      pop\n      jump\t// out\n        /* \"Arevea-NFT-Market/NFT-Contracts/contracts/finalMarket_single.sol\":20885:20992  function getFixedSaleNFT() external view returns (SaleInfo[] memory) {\r... */\n    tag_106:\n        /* \"Arevea-NFT-Market/NFT-Contracts/contracts/finalMarket_single.sol\":20935:20952  SaleInfo[] memory */\n      0x60\n        /* \"Arevea-NFT-Market/NFT-Contracts/contracts/finalMarket_single.sol\":20972:20984  fixedSaleNFT */\n      0x06\n        /* \"Arevea-NFT-Market/NFT-Contracts/contracts/finalMarket_single.sol\":20965:20984  return fixedSaleNFT */\n      dup1\n      sload\n      dup1\n      0x20\n      mul\n      0x20\n      add\n      mload(0x40)\n      swap1\n      dup2\n      add\n      0x40\n      mstore\n      dup1\n      swap3\n      swap2\n      swap1\n      dup2\n      dup2\n      mstore\n      0x20\n      add\n      0x00\n      swap1\n    tag_293:\n      dup3\n      dup3\n      lt\n      iszero\n      tag_294\n      jumpi\n      dup4\n      dup3\n      swap1\n      0x00\n      mstore\n      keccak256(0x00, 0x20)\n      swap1\n      0x02\n      mul\n      add\n      mload(0x40)\n      dup1\n      0x40\n      add\n      0x40\n      mstore\n      swap1\n      dup2\n      0x00\n      dup3\n      add\n      0x00\n      swap1\n      sload\n      swap1\n      0x0100\n      exp\n      swap1\n      div\n      0xffffffffffffffffffffffffffffffffffffffff\n      and\n      0xffffffffffffffffffffffffffffffffffffffff\n      and\n      0xffffffffffffffffffffffffffffffffffffffff\n      and\n      dup2\n      mstore\n      0x20\n      add\n      0x01\n      dup3\n      add\n      sload\n      dup2\n      mstore\n      pop\n      pop\n      dup2\n      mstore\n      0x20\n      add\n      swap1\n      0x01\n      add\n      swap1\n      jump(tag_293)\n    tag_294:\n      pop\n      pop\n      pop\n      pop\n      swap1\n      pop\n        /* \"Arevea-NFT-Market/NFT-Contracts/contracts/finalMarket_single.sol\":20885:20992  function getFixedSaleNFT() external view returns (SaleInfo[] memory) {\r... */\n      swap1\n      jump\t// out\n        /* \"Arevea-NFT-Market/NFT-Contracts/contracts/finalMarket_single.sol\":12747:13886  function buyFromFixedSale(\r... */\n    tag_110:\n        /* \"Arevea-NFT-Market/NFT-Contracts/contracts/finalMarket_single.sol\":12932:12951  _nftContractAddress */\n      dup3\n        /* \"Arevea-NFT-Market/NFT-Contracts/contracts/finalMarket_single.sol\":12953:12961  _tokenId */\n      dup3\n        /* \"Arevea-NFT-Market/NFT-Contracts/contracts/finalMarket_single.sol\":4652:4653  1 */\n      0x01\n        /* \"Arevea-NFT-Market/NFT-Contracts/contracts/finalMarket_single.sol\":4604:4617  nftSaleStatus */\n      0x02\n        /* \"Arevea-NFT-Market/NFT-Contracts/contracts/finalMarket_single.sol\":4604:4638  nftSaleStatus[_nftContractAddress] */\n      0x00\n        /* \"Arevea-NFT-Market/NFT-Contracts/contracts/finalMarket_single.sol\":4618:4637  _nftContractAddress */\n      dup5\n        /* \"Arevea-NFT-Market/NFT-Contracts/contracts/finalMarket_single.sol\":4604:4638  nftSaleStatus[_nftContractAddress] */\n      0xffffffffffffffffffffffffffffffffffffffff\n      and\n      0xffffffffffffffffffffffffffffffffffffffff\n      and\n      dup2\n      mstore\n      0x20\n      add\n      swap1\n      dup2\n      mstore\n      0x20\n      add\n      0x00\n      keccak256\n        /* \"Arevea-NFT-Market/NFT-Contracts/contracts/finalMarket_single.sol\":4604:4648  nftSaleStatus[_nftContractAddress][_tokenId] */\n      0x00\n        /* \"Arevea-NFT-Market/NFT-Contracts/contracts/finalMarket_single.sol\":4639:4647  _tokenId */\n      dup4\n        /* \"Arevea-NFT-Market/NFT-Contracts/contracts/finalMarket_single.sol\":4604:4648  nftSaleStatus[_nftContractAddress][_tokenId] */\n      dup2\n      mstore\n      0x20\n      add\n      swap1\n      dup2\n      mstore\n      0x20\n      add\n      0x00\n      keccak256\n      sload\n        /* \"Arevea-NFT-Market/NFT-Contracts/contracts/finalMarket_single.sol\":4604:4653  nftSaleStatus[_nftContractAddress][_tokenId] == 1 */\n      eq\n        /* \"Arevea-NFT-Market/NFT-Contracts/contracts/finalMarket_single.sol\":4582:4702  require(\r... */\n      tag_297\n      jumpi\n      mload(0x40)\n      0x08c379a000000000000000000000000000000000000000000000000000000000\n      dup2\n      mstore\n      0x04\n      add\n      tag_298\n      swap1\n      tag_184\n      jump\t// in\n    tag_298:\n      mload(0x40)\n      dup1\n      swap2\n      sub\n      swap1\n      revert\n    tag_297:\n        /* \"Arevea-NFT-Market/NFT-Contracts/contracts/finalMarket_single.sol\":12993:13000  _amount */\n      dup3\n        /* \"Arevea-NFT-Market/NFT-Contracts/contracts/finalMarket_single.sol\":9536:9537  0 */\n      0x00\n        /* \"Arevea-NFT-Market/NFT-Contracts/contracts/finalMarket_single.sol\":9527:9533  _price */\n      dup2\n        /* \"Arevea-NFT-Market/NFT-Contracts/contracts/finalMarket_single.sol\":9527:9537  _price > 0 */\n      gt\n        /* \"Arevea-NFT-Market/NFT-Contracts/contracts/finalMarket_single.sol\":9519:9559  require(_price > 0, \"Price cannot be 0\") */\n      tag_300\n      jumpi\n      mload(0x40)\n      0x08c379a000000000000000000000000000000000000000000000000000000000\n      dup2\n      mstore\n      0x04\n      add\n      tag_301\n      swap1\n      tag_140\n      jump\t// in\n    tag_301:\n      mload(0x40)\n      dup1\n      swap2\n      sub\n      swap1\n      revert\n    tag_300:\n        /* \"Arevea-NFT-Market/NFT-Contracts/contracts/finalMarket_single.sol\":13033:13052  _nftContractAddress */\n      dup6\n        /* \"Arevea-NFT-Market/NFT-Contracts/contracts/finalMarket_single.sol\":13054:13062  _tokenId */\n      dup6\n        /* \"Arevea-NFT-Market/NFT-Contracts/contracts/finalMarket_single.sol\":13064:13071  _amount */\n      dup6\n        /* \"Arevea-NFT-Market/NFT-Contracts/contracts/finalMarket_single.sol\":9284:9304  nftContractFixedSale */\n      0x00\n        /* \"Arevea-NFT-Market/NFT-Contracts/contracts/finalMarket_single.sol\":9284:9325  nftContractFixedSale[_nftContractAddress] */\n      dup1\n        /* \"Arevea-NFT-Market/NFT-Contracts/contracts/finalMarket_single.sol\":9305:9324  _nftContractAddress */\n      dup5\n        /* \"Arevea-NFT-Market/NFT-Contracts/contracts/finalMarket_single.sol\":9284:9325  nftContractFixedSale[_nftContractAddress] */\n      0xffffffffffffffffffffffffffffffffffffffff\n      and\n      0xffffffffffffffffffffffffffffffffffffffff\n      and\n      dup2\n      mstore\n      0x20\n      add\n      swap1\n      dup2\n      mstore\n      0x20\n      add\n      0x00\n      keccak256\n        /* \"Arevea-NFT-Market/NFT-Contracts/contracts/finalMarket_single.sol\":9284:9335  nftContractFixedSale[_nftContractAddress][_tokenId] */\n      0x00\n        /* \"Arevea-NFT-Market/NFT-Contracts/contracts/finalMarket_single.sol\":9326:9334  _tokenId */\n      dup4\n        /* \"Arevea-NFT-Market/NFT-Contracts/contracts/finalMarket_single.sol\":9284:9335  nftContractFixedSale[_nftContractAddress][_tokenId] */\n      dup2\n      mstore\n      0x20\n      add\n      swap1\n      dup2\n      mstore\n      0x20\n      add\n      0x00\n      keccak256\n        /* \"Arevea-NFT-Market/NFT-Contracts/contracts/finalMarket_single.sol\":9284:9345  nftContractFixedSale[_nftContractAddress][_tokenId].salePrice */\n      0x03\n      add\n      sload\n        /* \"Arevea-NFT-Market/NFT-Contracts/contracts/finalMarket_single.sol\":9254:9263  _buyPrice */\n      dup2\n        /* \"Arevea-NFT-Market/NFT-Contracts/contracts/finalMarket_single.sol\":9254:9345  _buyPrice >=\r... */\n      lt\n      iszero\n        /* \"Arevea-NFT-Market/NFT-Contracts/contracts/finalMarket_single.sol\":9232:9393  require(\r... */\n      tag_303\n      jumpi\n      mload(0x40)\n      0x08c379a000000000000000000000000000000000000000000000000000000000\n      dup2\n      mstore\n      0x04\n      add\n      tag_304\n      swap1\n      tag_305\n      jump\t// in\n    tag_304:\n      mload(0x40)\n      dup1\n      swap2\n      sub\n      swap1\n      revert\n    tag_303:\n        /* \"Arevea-NFT-Market/NFT-Contracts/contracts/finalMarket_single.sol\":13097:13116  _nftContractAddress */\n      dup9\n        /* \"Arevea-NFT-Market/NFT-Contracts/contracts/finalMarket_single.sol\":13089:13134  IERC721(_nftContractAddress).safeTransferFrom */\n      0xffffffffffffffffffffffffffffffffffffffff\n      and\n      0x42842e0e\n        /* \"Arevea-NFT-Market/NFT-Contracts/contracts/finalMarket_single.sol\":13157:13161  this */\n      address\n        /* \"Arevea-NFT-Market/NFT-Contracts/contracts/finalMarket_single.sol\":13177:13187  msg.sender */\n      caller\n        /* \"Arevea-NFT-Market/NFT-Contracts/contracts/finalMarket_single.sol\":13202:13210  _tokenId */\n      dup12\n        /* \"Arevea-NFT-Market/NFT-Contracts/contracts/finalMarket_single.sol\":13089:13221  IERC721(_nftContractAddress).safeTransferFrom(\r... */\n      mload(0x40)\n      dup5\n      0xffffffff\n      and\n      0xe0\n      shl\n      dup2\n      mstore\n      0x04\n      add\n      tag_307\n      swap4\n      swap3\n      swap2\n      swap1\n      tag_122\n      jump\t// in\n    tag_307:\n      0x00\n      mload(0x40)\n      dup1\n      dup4\n      sub\n      dup2\n      0x00\n      dup8\n      dup1\n      extcodesize\n      iszero\n      dup1\n      iszero\n      tag_308\n      jumpi\n      0x00\n      dup1\n      revert\n    tag_308:\n      pop\n      gas\n      call\n      iszero\n      dup1\n      iszero\n      tag_310\n      jumpi\n      returndatasize\n      0x00\n      dup1\n      returndatacopy\n      revert(0x00, returndatasize)\n    tag_310:\n      pop\n      pop\n      pop\n      pop\n        /* \"Arevea-NFT-Market/NFT-Contracts/contracts/finalMarket_single.sol\":13281:13282  0 */\n      0x00\n        /* \"Arevea-NFT-Market/NFT-Contracts/contracts/finalMarket_single.sol\":13234:13247  nftSaleStatus */\n      0x02\n        /* \"Arevea-NFT-Market/NFT-Contracts/contracts/finalMarket_single.sol\":13234:13268  nftSaleStatus[_nftContractAddress] */\n      0x00\n        /* \"Arevea-NFT-Market/NFT-Contracts/contracts/finalMarket_single.sol\":13248:13267  _nftContractAddress */\n      dup12\n        /* \"Arevea-NFT-Market/NFT-Contracts/contracts/finalMarket_single.sol\":13234:13268  nftSaleStatus[_nftContractAddress] */\n      0xffffffffffffffffffffffffffffffffffffffff\n      and\n      0xffffffffffffffffffffffffffffffffffffffff\n      and\n      dup2\n      mstore\n      0x20\n      add\n      swap1\n      dup2\n      mstore\n      0x20\n      add\n      0x00\n      keccak256\n        /* \"Arevea-NFT-Market/NFT-Contracts/contracts/finalMarket_single.sol\":13234:13278  nftSaleStatus[_nftContractAddress][_tokenId] */\n      0x00\n        /* \"Arevea-NFT-Market/NFT-Contracts/contracts/finalMarket_single.sol\":13269:13277  _tokenId */\n      dup11\n        /* \"Arevea-NFT-Market/NFT-Contracts/contracts/finalMarket_single.sol\":13234:13278  nftSaleStatus[_nftContractAddress][_tokenId] */\n      dup2\n      mstore\n      0x20\n      add\n      swap1\n      dup2\n      mstore\n      0x20\n      add\n      0x00\n      keccak256\n        /* \"Arevea-NFT-Market/NFT-Contracts/contracts/finalMarket_single.sol\":13234:13282  nftSaleStatus[_nftContractAddress][_tokenId] = 0 */\n      dup2\n      swap1\n      sstore\n      pop\n        /* \"Arevea-NFT-Market/NFT-Contracts/contracts/finalMarket_single.sol\":13300:13312  fixedSaleNFT */\n      0x06\n        /* \"Arevea-NFT-Market/NFT-Contracts/contracts/finalMarket_single.sol\":13314:13331  indexFixedSaleNFT */\n      0x04\n        /* \"Arevea-NFT-Market/NFT-Contracts/contracts/finalMarket_single.sol\":13314:13352  indexFixedSaleNFT[_nftContractAddress] */\n      0x00\n        /* \"Arevea-NFT-Market/NFT-Contracts/contracts/finalMarket_single.sol\":13332:13351  _nftContractAddress */\n      dup12\n        /* \"Arevea-NFT-Market/NFT-Contracts/contracts/finalMarket_single.sol\":13314:13352  indexFixedSaleNFT[_nftContractAddress] */\n      0xffffffffffffffffffffffffffffffffffffffff\n      and\n      0xffffffffffffffffffffffffffffffffffffffff\n      and\n      dup2\n      mstore\n      0x20\n      add\n      swap1\n      dup2\n      mstore\n      0x20\n      add\n      0x00\n      keccak256\n        /* \"Arevea-NFT-Market/NFT-Contracts/contracts/finalMarket_single.sol\":13314:13362  indexFixedSaleNFT[_nftContractAddress][_tokenId] */\n      0x00\n        /* \"Arevea-NFT-Market/NFT-Contracts/contracts/finalMarket_single.sol\":13353:13361  _tokenId */\n      dup11\n        /* \"Arevea-NFT-Market/NFT-Contracts/contracts/finalMarket_single.sol\":13314:13362  indexFixedSaleNFT[_nftContractAddress][_tokenId] */\n      dup2\n      mstore\n      0x20\n      add\n      swap1\n      dup2\n      mstore\n      0x20\n      add\n      0x00\n      keccak256\n      sload\n        /* \"Arevea-NFT-Market/NFT-Contracts/contracts/finalMarket_single.sol\":13300:13364  fixedSaleNFT[(indexFixedSaleNFT[_nftContractAddress][_tokenId])] */\n      dup2\n      sload\n      dup2\n      lt\n      tag_311\n      jumpi\n      tag_312\n      tag_219\n      jump\t// in\n    tag_312:\n    tag_311:\n      swap1\n      0x00\n      mstore\n      keccak256(0x00, 0x20)\n      swap1\n      0x02\n      mul\n      add\n      0x00\n        /* \"Arevea-NFT-Market/NFT-Contracts/contracts/finalMarket_single.sol\":13293:13364  delete fixedSaleNFT[(indexFixedSaleNFT[_nftContractAddress][_tokenId])] */\n      dup1\n      dup3\n      add\n      exp(0x0100, 0x00)\n      dup2\n      sload\n      swap1\n      0xffffffffffffffffffffffffffffffffffffffff\n      mul\n      not\n      and\n      swap1\n      sstore\n      0x01\n      dup3\n      add\n      0x00\n      swap1\n      sstore\n      pop\n      pop\n        /* \"Arevea-NFT-Market/NFT-Contracts/contracts/finalMarket_single.sol\":13440:13464  msg\r... */\n      caller\n        /* \"Arevea-NFT-Market/NFT-Contracts/contracts/finalMarket_single.sol\":13377:13397  nftContractFixedSale */\n      0x00\n        /* \"Arevea-NFT-Market/NFT-Contracts/contracts/finalMarket_single.sol\":13377:13418  nftContractFixedSale[_nftContractAddress] */\n      dup1\n        /* \"Arevea-NFT-Market/NFT-Contracts/contracts/finalMarket_single.sol\":13398:13417  _nftContractAddress */\n      dup12\n        /* \"Arevea-NFT-Market/NFT-Contracts/contracts/finalMarket_single.sol\":13377:13418  nftContractFixedSale[_nftContractAddress] */\n      0xffffffffffffffffffffffffffffffffffffffff\n      and\n      0xffffffffffffffffffffffffffffffffffffffff\n      and\n      dup2\n      mstore\n      0x20\n      add\n      swap1\n      dup2\n      mstore\n      0x20\n      add\n      0x00\n      keccak256\n        /* \"Arevea-NFT-Market/NFT-Contracts/contracts/finalMarket_single.sol\":13377:13428  nftContractFixedSale[_nftContractAddress][_tokenId] */\n      0x00\n        /* \"Arevea-NFT-Market/NFT-Contracts/contracts/finalMarket_single.sol\":13419:13427  _tokenId */\n      dup11\n        /* \"Arevea-NFT-Market/NFT-Contracts/contracts/finalMarket_single.sol\":13377:13428  nftContractFixedSale[_nftContractAddress][_tokenId] */\n      dup2\n      mstore\n      0x20\n      add\n      swap1\n      dup2\n      mstore\n      0x20\n      add\n      0x00\n      keccak256\n        /* \"Arevea-NFT-Market/NFT-Contracts/contracts/finalMarket_single.sol\":13377:13437  nftContractFixedSale[_nftContractAddress][_tokenId].nftBuyer */\n      0x01\n      add\n      0x00\n        /* \"Arevea-NFT-Market/NFT-Contracts/contracts/finalMarket_single.sol\":13377:13464  nftContractFixedSale[_nftContractAddress][_tokenId].nftBuyer = msg\r... */\n      0x0100\n      exp\n      dup2\n      sload\n      dup2\n      0xffffffffffffffffffffffffffffffffffffffff\n      mul\n      not\n      and\n      swap1\n      dup4\n      0xffffffffffffffffffffffffffffffffffffffff\n      and\n      mul\n      or\n      swap1\n      sstore\n      pop\n        /* \"Arevea-NFT-Market/NFT-Contracts/contracts/finalMarket_single.sol\":13477:13726  _isTokenOrCoin(\r... */\n      tag_314\n        /* \"Arevea-NFT-Market/NFT-Contracts/contracts/finalMarket_single.sol\":13506:13526  nftContractFixedSale */\n      0x00\n        /* \"Arevea-NFT-Market/NFT-Contracts/contracts/finalMarket_single.sol\":13506:13547  nftContractFixedSale[_nftContractAddress] */\n      dup1\n        /* \"Arevea-NFT-Market/NFT-Contracts/contracts/finalMarket_single.sol\":13527:13546  _nftContractAddress */\n      dup12\n        /* \"Arevea-NFT-Market/NFT-Contracts/contracts/finalMarket_single.sol\":13506:13547  nftContractFixedSale[_nftContractAddress] */\n      0xffffffffffffffffffffffffffffffffffffffff\n      and\n      0xffffffffffffffffffffffffffffffffffffffff\n      and\n      dup2\n      mstore\n      0x20\n      add\n      swap1\n      dup2\n      mstore\n      0x20\n      add\n      0x00\n      keccak256\n        /* \"Arevea-NFT-Market/NFT-Contracts/contracts/finalMarket_single.sol\":13506:13557  nftContractFixedSale[_nftContractAddress][_tokenId] */\n      0x00\n        /* \"Arevea-NFT-Market/NFT-Contracts/contracts/finalMarket_single.sol\":13548:13556  _tokenId */\n      dup11\n        /* \"Arevea-NFT-Market/NFT-Contracts/contracts/finalMarket_single.sol\":13506:13557  nftContractFixedSale[_nftContractAddress][_tokenId] */\n      dup2\n      mstore\n      0x20\n      add\n      swap1\n      dup2\n      mstore\n      0x20\n      add\n      0x00\n      keccak256\n        /* \"Arevea-NFT-Market/NFT-Contracts/contracts/finalMarket_single.sol\":13506:13567  nftContractFixedSale[_nftContractAddress][_tokenId].nftSeller */\n      0x00\n      add\n      0x00\n      swap1\n      sload\n      swap1\n      0x0100\n      exp\n      swap1\n      div\n      0xffffffffffffffffffffffffffffffffffffffff\n      and\n        /* \"Arevea-NFT-Market/NFT-Contracts/contracts/finalMarket_single.sol\":13582:13602  nftContractFixedSale */\n      0x00\n        /* \"Arevea-NFT-Market/NFT-Contracts/contracts/finalMarket_single.sol\":13582:13623  nftContractFixedSale[_nftContractAddress] */\n      dup1\n        /* \"Arevea-NFT-Market/NFT-Contracts/contracts/finalMarket_single.sol\":13603:13622  _nftContractAddress */\n      dup13\n        /* \"Arevea-NFT-Market/NFT-Contracts/contracts/finalMarket_single.sol\":13582:13623  nftContractFixedSale[_nftContractAddress] */\n      0xffffffffffffffffffffffffffffffffffffffff\n      and\n      0xffffffffffffffffffffffffffffffffffffffff\n      and\n      dup2\n      mstore\n      0x20\n      add\n      swap1\n      dup2\n      mstore\n      0x20\n      add\n      0x00\n      keccak256\n        /* \"Arevea-NFT-Market/NFT-Contracts/contracts/finalMarket_single.sol\":13582:13633  nftContractFixedSale[_nftContractAddress][_tokenId] */\n      0x00\n        /* \"Arevea-NFT-Market/NFT-Contracts/contracts/finalMarket_single.sol\":13624:13632  _tokenId */\n      dup12\n        /* \"Arevea-NFT-Market/NFT-Contracts/contracts/finalMarket_single.sol\":13582:13633  nftContractFixedSale[_nftContractAddress][_tokenId] */\n      dup2\n      mstore\n      0x20\n      add\n      swap1\n      dup2\n      mstore\n      0x20\n      add\n      0x00\n      keccak256\n        /* \"Arevea-NFT-Market/NFT-Contracts/contracts/finalMarket_single.sol\":13582:13639  nftContractFixedSale[_nftContractAddress][_tokenId].erc20 */\n      0x02\n      add\n      0x00\n      swap1\n      sload\n      swap1\n      0x0100\n      exp\n      swap1\n      div\n      0xffffffffffffffffffffffffffffffffffffffff\n      and\n        /* \"Arevea-NFT-Market/NFT-Contracts/contracts/finalMarket_single.sol\":13654:13674  nftContractFixedSale */\n      0x00\n        /* \"Arevea-NFT-Market/NFT-Contracts/contracts/finalMarket_single.sol\":13654:13695  nftContractFixedSale[_nftContractAddress] */\n      dup1\n        /* \"Arevea-NFT-Market/NFT-Contracts/contracts/finalMarket_single.sol\":13675:13694  _nftContractAddress */\n      dup14\n        /* \"Arevea-NFT-Market/NFT-Contracts/contracts/finalMarket_single.sol\":13654:13695  nftContractFixedSale[_nftContractAddress] */\n      0xffffffffffffffffffffffffffffffffffffffff\n      and\n      0xffffffffffffffffffffffffffffffffffffffff\n      and\n      dup2\n      mstore\n      0x20\n      add\n      swap1\n      dup2\n      mstore\n      0x20\n      add\n      0x00\n      keccak256\n        /* \"Arevea-NFT-Market/NFT-Contracts/contracts/finalMarket_single.sol\":13654:13705  nftContractFixedSale[_nftContractAddress][_tokenId] */\n      0x00\n        /* \"Arevea-NFT-Market/NFT-Contracts/contracts/finalMarket_single.sol\":13696:13704  _tokenId */\n      dup13\n        /* \"Arevea-NFT-Market/NFT-Contracts/contracts/finalMarket_single.sol\":13654:13705  nftContractFixedSale[_nftContractAddress][_tokenId] */\n      dup2\n      mstore\n      0x20\n      add\n      swap1\n      dup2\n      mstore\n      0x20\n      add\n      0x00\n      keccak256\n        /* \"Arevea-NFT-Market/NFT-Contracts/contracts/finalMarket_single.sol\":13654:13715  nftContractFixedSale[_nftContractAddress][_tokenId].salePrice */\n      0x03\n      add\n      sload\n        /* \"Arevea-NFT-Market/NFT-Contracts/contracts/finalMarket_single.sol\":13477:13491  _isTokenOrCoin */\n      tag_315\n        /* \"Arevea-NFT-Market/NFT-Contracts/contracts/finalMarket_single.sol\":13477:13726  _isTokenOrCoin(\r... */\n      jump\t// in\n    tag_314:\n        /* \"Arevea-NFT-Market/NFT-Contracts/contracts/finalMarket_single.sol\":13744:13878  NftBuyFromFixedSale(\r... */\n      0x9fa3b1bb9266e05722b54a7a564d02a274bc80d39f4af21e6be405480996ceba\n        /* \"Arevea-NFT-Market/NFT-Contracts/contracts/finalMarket_single.sol\":13778:13797  _nftContractAddress */\n      dup10\n        /* \"Arevea-NFT-Market/NFT-Contracts/contracts/finalMarket_single.sol\":13812:13822  msg.sender */\n      caller\n        /* \"Arevea-NFT-Market/NFT-Contracts/contracts/finalMarket_single.sol\":13837:13845  _tokenId */\n      dup11\n        /* \"Arevea-NFT-Market/NFT-Contracts/contracts/finalMarket_single.sol\":13860:13867  _amount */\n      dup11\n        /* \"Arevea-NFT-Market/NFT-Contracts/contracts/finalMarket_single.sol\":13744:13878  NftBuyFromFixedSale(\r... */\n      mload(0x40)\n      tag_316\n      swap5\n      swap4\n      swap3\n      swap2\n      swap1\n      tag_317\n      jump\t// in\n    tag_316:\n      mload(0x40)\n      dup1\n      swap2\n      sub\n      swap1\n      log1\n        /* \"Arevea-NFT-Market/NFT-Contracts/contracts/finalMarket_single.sol\":9570:9571  _ */\n      pop\n      pop\n      pop\n        /* \"Arevea-NFT-Market/NFT-Contracts/contracts/finalMarket_single.sol\":4713:4714  _ */\n      pop\n        /* \"Arevea-NFT-Market/NFT-Contracts/contracts/finalMarket_single.sol\":12747:13886  function buyFromFixedSale(\r... */\n      pop\n      pop\n      pop\n      pop\n      pop\n      jump\t// out\n        /* \"Arevea-NFT-Market/NFT-Contracts/contracts/finalMarket_single.sol\":13930:14993  function createNftAuctionSale(\r... */\n    tag_115:\n        /* \"Arevea-NFT-Market/NFT-Contracts/contracts/finalMarket_single.sol\":14193:14212  _nftContractAddress */\n      dup6\n        /* \"Arevea-NFT-Market/NFT-Contracts/contracts/finalMarket_single.sol\":14214:14222  _tokenId */\n      dup5\n        /* \"Arevea-NFT-Market/NFT-Contracts/contracts/finalMarket_single.sol\":5167:5186  _nftContractAddress */\n      dup2\n        /* \"Arevea-NFT-Market/NFT-Contracts/contracts/finalMarket_single.sol\":5159:5195  IERC721(_nftContractAddress).ownerOf */\n      0xffffffffffffffffffffffffffffffffffffffff\n      and\n      0x6352211e\n        /* \"Arevea-NFT-Market/NFT-Contracts/contracts/finalMarket_single.sol\":5196:5204  _tokenId */\n      dup3\n        /* \"Arevea-NFT-Market/NFT-Contracts/contracts/finalMarket_single.sol\":5159:5205  IERC721(_nftContractAddress).ownerOf(_tokenId) */\n      mload(0x40)\n      dup3\n      0xffffffff\n      and\n      0xe0\n      shl\n      dup2\n      mstore\n      0x04\n      add\n      tag_319\n      swap2\n      swap1\n      tag_71\n      jump\t// in\n    tag_319:\n      0x20\n      mload(0x40)\n      dup1\n      dup4\n      sub\n      dup2\n      dup7\n      dup1\n      extcodesize\n      iszero\n      dup1\n      iszero\n      tag_320\n      jumpi\n      0x00\n      dup1\n      revert\n    tag_320:\n      pop\n      gas\n      staticcall\n      iszero\n      dup1\n      iszero\n      tag_322\n      jumpi\n      returndatasize\n      0x00\n      dup1\n      returndatacopy\n      revert(0x00, returndatasize)\n    tag_322:\n      pop\n      pop\n      pop\n      pop\n      mload(0x40)\n      returndatasize\n      not(0x1f)\n      0x1f\n      dup3\n      add\n      and\n      dup3\n      add\n      dup1\n      0x40\n      mstore\n      pop\n      dup2\n      add\n      swap1\n      tag_323\n      swap2\n      swap1\n      tag_229\n      jump\t// in\n    tag_323:\n        /* \"Arevea-NFT-Market/NFT-Contracts/contracts/finalMarket_single.sol\":5145:5205  msg.sender == IERC721(_nftContractAddress).ownerOf(_tokenId) */\n      0xffffffffffffffffffffffffffffffffffffffff\n      and\n        /* \"Arevea-NFT-Market/NFT-Contracts/contracts/finalMarket_single.sol\":5145:5155  msg.sender */\n      caller\n        /* \"Arevea-NFT-Market/NFT-Contracts/contracts/finalMarket_single.sol\":5145:5205  msg.sender == IERC721(_nftContractAddress).ownerOf(_tokenId) */\n      0xffffffffffffffffffffffffffffffffffffffff\n      and\n      eq\n        /* \"Arevea-NFT-Market/NFT-Contracts/contracts/finalMarket_single.sol\":5123:5254  require(\r... */\n      tag_324\n      jumpi\n      mload(0x40)\n      0x08c379a000000000000000000000000000000000000000000000000000000000\n      dup2\n      mstore\n      0x04\n      add\n      tag_325\n      swap1\n      tag_188\n      jump\t// in\n    tag_325:\n      mload(0x40)\n      dup1\n      swap2\n      sub\n      swap1\n      revert\n    tag_324:\n        /* \"Arevea-NFT-Market/NFT-Contracts/contracts/finalMarket_single.sol\":14252:14271  _nftContractAddress */\n      dup8\n        /* \"Arevea-NFT-Market/NFT-Contracts/contracts/finalMarket_single.sol\":14273:14281  _tokenId */\n      dup7\n        /* \"Arevea-NFT-Market/NFT-Contracts/contracts/finalMarket_single.sol\":4383:4384  0 */\n      0x00\n        /* \"Arevea-NFT-Market/NFT-Contracts/contracts/finalMarket_single.sol\":4335:4348  nftSaleStatus */\n      0x02\n        /* \"Arevea-NFT-Market/NFT-Contracts/contracts/finalMarket_single.sol\":4335:4369  nftSaleStatus[_nftContractAddress] */\n      0x00\n        /* \"Arevea-NFT-Market/NFT-Contracts/contracts/finalMarket_single.sol\":4349:4368  _nftContractAddress */\n      dup5\n        /* \"Arevea-NFT-Market/NFT-Contracts/contracts/finalMarket_single.sol\":4335:4369  nftSaleStatus[_nftContractAddress] */\n      0xffffffffffffffffffffffffffffffffffffffff\n      and\n      0xffffffffffffffffffffffffffffffffffffffff\n      and\n      dup2\n      mstore\n      0x20\n      add\n      swap1\n      dup2\n      mstore\n      0x20\n      add\n      0x00\n      keccak256\n        /* \"Arevea-NFT-Market/NFT-Contracts/contracts/finalMarket_single.sol\":4335:4379  nftSaleStatus[_nftContractAddress][_tokenId] */\n      0x00\n        /* \"Arevea-NFT-Market/NFT-Contracts/contracts/finalMarket_single.sol\":4370:4378  _tokenId */\n      dup4\n        /* \"Arevea-NFT-Market/NFT-Contracts/contracts/finalMarket_single.sol\":4335:4379  nftSaleStatus[_nftContractAddress][_tokenId] */\n      dup2\n      mstore\n      0x20\n      add\n      swap1\n      dup2\n      mstore\n      0x20\n      add\n      0x00\n      keccak256\n      sload\n        /* \"Arevea-NFT-Market/NFT-Contracts/contracts/finalMarket_single.sol\":4335:4384  nftSaleStatus[_nftContractAddress][_tokenId] == 0 */\n      eq\n        /* \"Arevea-NFT-Market/NFT-Contracts/contracts/finalMarket_single.sol\":4313:4431  require(\r... */\n      tag_327\n      jumpi\n      mload(0x40)\n      0x08c379a000000000000000000000000000000000000000000000000000000000\n      dup2\n      mstore\n      0x04\n      add\n      tag_328\n      swap1\n      tag_235\n      jump\t// in\n    tag_328:\n      mload(0x40)\n      dup1\n      swap2\n      sub\n      swap1\n      revert\n    tag_327:\n        /* \"Arevea-NFT-Market/NFT-Contracts/contracts/finalMarket_single.sol\":14310:14329  _nftContractAddress */\n      dup10\n        /* \"Arevea-NFT-Market/NFT-Contracts/contracts/finalMarket_single.sol\":14331:14339  _tokenId */\n      dup9\n        /* \"Arevea-NFT-Market/NFT-Contracts/contracts/finalMarket_single.sol\":5745:5764  _nftContractAddress */\n      dup2\n        /* \"Arevea-NFT-Market/NFT-Contracts/contracts/finalMarket_single.sol\":5737:5782  IERC721(_nftContractAddress).isApprovedForAll */\n      0xffffffffffffffffffffffffffffffffffffffff\n      and\n      0xe985e9c5\n        /* \"Arevea-NFT-Market/NFT-Contracts/contracts/finalMarket_single.sol\":5801:5811  msg.sender */\n      caller\n        /* \"Arevea-NFT-Market/NFT-Contracts/contracts/finalMarket_single.sol\":5838:5842  this */\n      address\n        /* \"Arevea-NFT-Market/NFT-Contracts/contracts/finalMarket_single.sol\":5737:5858  IERC721(_nftContractAddress).isApprovedForAll(\r... */\n      mload(0x40)\n      dup4\n      0xffffffff\n      and\n      0xe0\n      shl\n      dup2\n      mstore\n      0x04\n      add\n      tag_330\n      swap3\n      swap2\n      swap1\n      tag_238\n      jump\t// in\n    tag_330:\n      0x20\n      mload(0x40)\n      dup1\n      dup4\n      sub\n      dup2\n      dup7\n      dup1\n      extcodesize\n      iszero\n      dup1\n      iszero\n      tag_331\n      jumpi\n      0x00\n      dup1\n      revert\n    tag_331:\n      pop\n      gas\n      staticcall\n      iszero\n      dup1\n      iszero\n      tag_333\n      jumpi\n      returndatasize\n      0x00\n      dup1\n      returndatacopy\n      revert(0x00, returndatasize)\n    tag_333:\n      pop\n      pop\n      pop\n      pop\n      mload(0x40)\n      returndatasize\n      not(0x1f)\n      0x1f\n      dup3\n      add\n      and\n      dup3\n      add\n      dup1\n      0x40\n      mstore\n      pop\n      dup2\n      add\n      swap1\n      tag_334\n      swap2\n      swap1\n      tag_127\n      jump\t// in\n    tag_334:\n        /* \"Arevea-NFT-Market/NFT-Contracts/contracts/finalMarket_single.sol\":5715:5914  require(\r... */\n      tag_335\n      jumpi\n      mload(0x40)\n      0x08c379a000000000000000000000000000000000000000000000000000000000\n      dup2\n      mstore\n      0x04\n      add\n      tag_336\n      swap1\n      tag_245\n      jump\t// in\n    tag_336:\n      mload(0x40)\n      dup1\n      swap2\n      sub\n      swap1\n      revert\n    tag_335:\n        /* \"Arevea-NFT-Market/NFT-Contracts/contracts/finalMarket_single.sol\":14371:14380  _minPrice */\n      dup7\n        /* \"Arevea-NFT-Market/NFT-Contracts/contracts/finalMarket_single.sol\":9536:9537  0 */\n      0x00\n        /* \"Arevea-NFT-Market/NFT-Contracts/contracts/finalMarket_single.sol\":9527:9533  _price */\n      dup2\n        /* \"Arevea-NFT-Market/NFT-Contracts/contracts/finalMarket_single.sol\":9527:9537  _price > 0 */\n      gt\n        /* \"Arevea-NFT-Market/NFT-Contracts/contracts/finalMarket_single.sol\":9519:9559  require(_price > 0, \"Price cannot be 0\") */\n      tag_338\n      jumpi\n      mload(0x40)\n      0x08c379a000000000000000000000000000000000000000000000000000000000\n      dup2\n      mstore\n      0x04\n      add\n      tag_339\n      swap1\n      tag_140\n      jump\t// in\n    tag_339:\n      mload(0x40)\n      dup1\n      swap2\n      sub\n      swap1\n      revert\n    tag_338:\n        /* \"Arevea-NFT-Market/NFT-Contracts/contracts/finalMarket_single.sol\":14398:14589  _storedNftAuctionDetails(\r... */\n      tag_341\n        /* \"Arevea-NFT-Market/NFT-Contracts/contracts/finalMarket_single.sol\":14437:14456  _nftContractAddress */\n      dup14\n        /* \"Arevea-NFT-Market/NFT-Contracts/contracts/finalMarket_single.sol\":14471:14477  _erc20 */\n      dup14\n        /* \"Arevea-NFT-Market/NFT-Contracts/contracts/finalMarket_single.sol\":14492:14500  _tokenId */\n      dup14\n        /* \"Arevea-NFT-Market/NFT-Contracts/contracts/finalMarket_single.sol\":14515:14528  _auctionStart */\n      dup14\n        /* \"Arevea-NFT-Market/NFT-Contracts/contracts/finalMarket_single.sol\":14543:14554  _auctionEnd */\n      dup14\n        /* \"Arevea-NFT-Market/NFT-Contracts/contracts/finalMarket_single.sol\":14569:14578  _minPrice */\n      dup14\n        /* \"Arevea-NFT-Market/NFT-Contracts/contracts/finalMarket_single.sol\":14398:14422  _storedNftAuctionDetails */\n      tag_342\n        /* \"Arevea-NFT-Market/NFT-Contracts/contracts/finalMarket_single.sol\":14398:14589  _storedNftAuctionDetails(\r... */\n      jump\t// in\n    tag_341:\n        /* \"Arevea-NFT-Market/NFT-Contracts/contracts/finalMarket_single.sol\":14655:14669  auctionSaleNFT */\n      0x07\n        /* \"Arevea-NFT-Market/NFT-Contracts/contracts/finalMarket_single.sol\":14655:14690  auctionSaleNFT\r... */\n      dup1\n      sload\n      swap1\n      pop\n        /* \"Arevea-NFT-Market/NFT-Contracts/contracts/finalMarket_single.sol\":14602:14621  indexAuctionSaleNFT */\n      0x05\n        /* \"Arevea-NFT-Market/NFT-Contracts/contracts/finalMarket_single.sol\":14602:14642  indexAuctionSaleNFT[_nftContractAddress] */\n      0x00\n        /* \"Arevea-NFT-Market/NFT-Contracts/contracts/finalMarket_single.sol\":14622:14641  _nftContractAddress */\n      dup16\n        /* \"Arevea-NFT-Market/NFT-Contracts/contracts/finalMarket_single.sol\":14602:14642  indexAuctionSaleNFT[_nftContractAddress] */\n      0xffffffffffffffffffffffffffffffffffffffff\n      and\n      0xffffffffffffffffffffffffffffffffffffffff\n      and\n      dup2\n      mstore\n      0x20\n      add\n      swap1\n      dup2\n      mstore\n      0x20\n      add\n      0x00\n      keccak256\n        /* \"Arevea-NFT-Market/NFT-Contracts/contracts/finalMarket_single.sol\":14602:14652  indexAuctionSaleNFT[_nftContractAddress][_tokenId] */\n      0x00\n        /* \"Arevea-NFT-Market/NFT-Contracts/contracts/finalMarket_single.sol\":14643:14651  _tokenId */\n      dup14\n        /* \"Arevea-NFT-Market/NFT-Contracts/contracts/finalMarket_single.sol\":14602:14652  indexAuctionSaleNFT[_nftContractAddress][_tokenId] */\n      dup2\n      mstore\n      0x20\n      add\n      swap1\n      dup2\n      mstore\n      0x20\n      add\n      0x00\n      keccak256\n        /* \"Arevea-NFT-Market/NFT-Contracts/contracts/finalMarket_single.sol\":14602:14690  indexAuctionSaleNFT[_nftContractAddress][_tokenId] = auctionSaleNFT\r... */\n      dup2\n      swap1\n      sstore\n      pop\n        /* \"Arevea-NFT-Market/NFT-Contracts/contracts/finalMarket_single.sol\":14701:14715  auctionSaleNFT */\n      0x07\n        /* \"Arevea-NFT-Market/NFT-Contracts/contracts/finalMarket_single.sol\":14721:14760  SaleInfo(_nftContractAddress, _tokenId) */\n      mload(0x40)\n      dup1\n      0x40\n      add\n      0x40\n      mstore\n      dup1\n        /* \"Arevea-NFT-Market/NFT-Contracts/contracts/finalMarket_single.sol\":14730:14749  _nftContractAddress */\n      dup16\n        /* \"Arevea-NFT-Market/NFT-Contracts/contracts/finalMarket_single.sol\":14721:14760  SaleInfo(_nftContractAddress, _tokenId) */\n      0xffffffffffffffffffffffffffffffffffffffff\n      and\n      dup2\n      mstore\n      0x20\n      add\n        /* \"Arevea-NFT-Market/NFT-Contracts/contracts/finalMarket_single.sol\":14751:14759  _tokenId */\n      dup14\n        /* \"Arevea-NFT-Market/NFT-Contracts/contracts/finalMarket_single.sol\":14721:14760  SaleInfo(_nftContractAddress, _tokenId) */\n      dup2\n      mstore\n      pop\n        /* \"Arevea-NFT-Market/NFT-Contracts/contracts/finalMarket_single.sol\":14701:14761  auctionSaleNFT.push(SaleInfo(_nftContractAddress, _tokenId)) */\n      swap1\n      dup1\n      0x01\n      dup2\n      sload\n      add\n      dup1\n      dup3\n      sstore\n      dup1\n      swap2\n      pop\n      pop\n      0x01\n      swap1\n      sub\n      swap1\n      0x00\n      mstore\n      keccak256(0x00, 0x20)\n      swap1\n      0x02\n      mul\n      add\n      0x00\n      swap1\n      swap2\n      swap1\n      swap2\n      swap1\n      swap2\n      pop\n      0x00\n      dup3\n      add\n      mload\n      dup2\n      0x00\n      add\n      exp(0x0100, 0x00)\n      dup2\n      sload\n      dup2\n      0xffffffffffffffffffffffffffffffffffffffff\n      mul\n      not\n      and\n      swap1\n      dup4\n      0xffffffffffffffffffffffffffffffffffffffff\n      and\n      mul\n      or\n      swap1\n      sstore\n      pop\n      0x20\n      dup3\n      add\n      mload\n      dup2\n      0x01\n      add\n      sstore\n      pop\n      pop\n        /* \"Arevea-NFT-Market/NFT-Contracts/contracts/finalMarket_single.sol\":14779:14985  NftAuctionSale(\r... */\n      0xecbc6a097da08dbf6f781ce204aad454ce3dc8f112c51c7a56f1671de89cee8c\n        /* \"Arevea-NFT-Market/NFT-Contracts/contracts/finalMarket_single.sol\":14808:14827  _nftContractAddress */\n      dup14\n        /* \"Arevea-NFT-Market/NFT-Contracts/contracts/finalMarket_single.sol\":14842:14852  msg.sender */\n      caller\n        /* \"Arevea-NFT-Market/NFT-Contracts/contracts/finalMarket_single.sol\":14867:14873  _erc20 */\n      dup15\n        /* \"Arevea-NFT-Market/NFT-Contracts/contracts/finalMarket_single.sol\":14888:14896  _tokenId */\n      dup15\n        /* \"Arevea-NFT-Market/NFT-Contracts/contracts/finalMarket_single.sol\":14911:14924  _auctionStart */\n      dup15\n        /* \"Arevea-NFT-Market/NFT-Contracts/contracts/finalMarket_single.sol\":14939:14950  _auctionEnd */\n      dup15\n        /* \"Arevea-NFT-Market/NFT-Contracts/contracts/finalMarket_single.sol\":14965:14974  _minPrice */\n      dup15\n        /* \"Arevea-NFT-Market/NFT-Contracts/contracts/finalMarket_single.sol\":14779:14985  NftAuctionSale(\r... */\n      mload(0x40)\n      tag_344\n      swap8\n      swap7\n      swap6\n      swap5\n      swap4\n      swap3\n      swap2\n      swap1\n      tag_345\n      jump\t// in\n    tag_344:\n      mload(0x40)\n      dup1\n      swap2\n      sub\n      swap1\n      log1\n        /* \"Arevea-NFT-Market/NFT-Contracts/contracts/finalMarket_single.sol\":5925:5926  _ */\n      pop\n        /* \"Arevea-NFT-Market/NFT-Contracts/contracts/finalMarket_single.sol\":4442:4443  _ */\n      pop\n      pop\n        /* \"Arevea-NFT-Market/NFT-Contracts/contracts/finalMarket_single.sol\":5265:5266  _ */\n      pop\n      pop\n        /* \"Arevea-NFT-Market/NFT-Contracts/contracts/finalMarket_single.sol\":13930:14993  function createNftAuctionSale(\r... */\n      pop\n      pop\n      pop\n      pop\n      pop\n      pop\n      pop\n      pop\n      jump\t// out\n        /* \"Arevea-NFT-Market/NFT-Contracts/contracts/finalMarket_single.sol\":11495:12081  function cancelFixedsale(address _nftContractAddress, uint256 _tokenId)\r... */\n    tag_119:\n        /* \"Arevea-NFT-Market/NFT-Contracts/contracts/finalMarket_single.sol\":11611:11630  _nftContractAddress */\n      dup2\n        /* \"Arevea-NFT-Market/NFT-Contracts/contracts/finalMarket_single.sol\":11632:11640  _tokenId */\n      dup2\n        /* \"Arevea-NFT-Market/NFT-Contracts/contracts/finalMarket_single.sol\":4652:4653  1 */\n      0x01\n        /* \"Arevea-NFT-Market/NFT-Contracts/contracts/finalMarket_single.sol\":4604:4617  nftSaleStatus */\n      0x02\n        /* \"Arevea-NFT-Market/NFT-Contracts/contracts/finalMarket_single.sol\":4604:4638  nftSaleStatus[_nftContractAddress] */\n      0x00\n        /* \"Arevea-NFT-Market/NFT-Contracts/contracts/finalMarket_single.sol\":4618:4637  _nftContractAddress */\n      dup5\n        /* \"Arevea-NFT-Market/NFT-Contracts/contracts/finalMarket_single.sol\":4604:4638  nftSaleStatus[_nftContractAddress] */\n      0xffffffffffffffffffffffffffffffffffffffff\n      and\n      0xffffffffffffffffffffffffffffffffffffffff\n      and\n      dup2\n      mstore\n      0x20\n      add\n      swap1\n      dup2\n      mstore\n      0x20\n      add\n      0x00\n      keccak256\n        /* \"Arevea-NFT-Market/NFT-Contracts/contracts/finalMarket_single.sol\":4604:4648  nftSaleStatus[_nftContractAddress][_tokenId] */\n      0x00\n        /* \"Arevea-NFT-Market/NFT-Contracts/contracts/finalMarket_single.sol\":4639:4647  _tokenId */\n      dup4\n        /* \"Arevea-NFT-Market/NFT-Contracts/contracts/finalMarket_single.sol\":4604:4648  nftSaleStatus[_nftContractAddress][_tokenId] */\n      dup2\n      mstore\n      0x20\n      add\n      swap1\n      dup2\n      mstore\n      0x20\n      add\n      0x00\n      keccak256\n      sload\n        /* \"Arevea-NFT-Market/NFT-Contracts/contracts/finalMarket_single.sol\":4604:4653  nftSaleStatus[_nftContractAddress][_tokenId] == 1 */\n      eq\n        /* \"Arevea-NFT-Market/NFT-Contracts/contracts/finalMarket_single.sol\":4582:4702  require(\r... */\n      tag_347\n      jumpi\n      mload(0x40)\n      0x08c379a000000000000000000000000000000000000000000000000000000000\n      dup2\n      mstore\n      0x04\n      add\n      tag_348\n      swap1\n      tag_184\n      jump\t// in\n    tag_348:\n      mload(0x40)\n      dup1\n      swap2\n      sub\n      swap1\n      revert\n    tag_347:\n        /* \"Arevea-NFT-Market/NFT-Contracts/contracts/finalMarket_single.sol\":11670:11689  _nftContractAddress */\n      dup4\n        /* \"Arevea-NFT-Market/NFT-Contracts/contracts/finalMarket_single.sol\":11691:11699  _tokenId */\n      dup4\n        /* \"Arevea-NFT-Market/NFT-Contracts/contracts/finalMarket_single.sol\":5451:5471  nftContractFixedSale */\n      0x00\n        /* \"Arevea-NFT-Market/NFT-Contracts/contracts/finalMarket_single.sol\":5451:5492  nftContractFixedSale[_nftContractAddress] */\n      dup1\n        /* \"Arevea-NFT-Market/NFT-Contracts/contracts/finalMarket_single.sol\":5472:5491  _nftContractAddress */\n      dup4\n        /* \"Arevea-NFT-Market/NFT-Contracts/contracts/finalMarket_single.sol\":5451:5492  nftContractFixedSale[_nftContractAddress] */\n      0xffffffffffffffffffffffffffffffffffffffff\n      and\n      0xffffffffffffffffffffffffffffffffffffffff\n      and\n      dup2\n      mstore\n      0x20\n      add\n      swap1\n      dup2\n      mstore\n      0x20\n      add\n      0x00\n      keccak256\n        /* \"Arevea-NFT-Market/NFT-Contracts/contracts/finalMarket_single.sol\":5451:5502  nftContractFixedSale[_nftContractAddress][_tokenId] */\n      0x00\n        /* \"Arevea-NFT-Market/NFT-Contracts/contracts/finalMarket_single.sol\":5493:5501  _tokenId */\n      dup3\n        /* \"Arevea-NFT-Market/NFT-Contracts/contracts/finalMarket_single.sol\":5451:5502  nftContractFixedSale[_nftContractAddress][_tokenId] */\n      dup2\n      mstore\n      0x20\n      add\n      swap1\n      dup2\n      mstore\n      0x20\n      add\n      0x00\n      keccak256\n        /* \"Arevea-NFT-Market/NFT-Contracts/contracts/finalMarket_single.sol\":5451:5512  nftContractFixedSale[_nftContractAddress][_tokenId].nftSeller */\n      0x00\n      add\n      0x00\n      swap1\n      sload\n      swap1\n      0x0100\n      exp\n      swap1\n      div\n      0xffffffffffffffffffffffffffffffffffffffff\n      and\n        /* \"Arevea-NFT-Market/NFT-Contracts/contracts/finalMarket_single.sol\":5420:5512  msg.sender ==\r... */\n      0xffffffffffffffffffffffffffffffffffffffff\n      and\n        /* \"Arevea-NFT-Market/NFT-Contracts/contracts/finalMarket_single.sol\":5420:5430  msg.sender */\n      caller\n        /* \"Arevea-NFT-Market/NFT-Contracts/contracts/finalMarket_single.sol\":5420:5512  msg.sender ==\r... */\n      0xffffffffffffffffffffffffffffffffffffffff\n      and\n      eq\n        /* \"Arevea-NFT-Market/NFT-Contracts/contracts/finalMarket_single.sol\":5398:5561  require(\r... */\n      tag_350\n      jumpi\n      mload(0x40)\n      0x08c379a000000000000000000000000000000000000000000000000000000000\n      dup2\n      mstore\n      0x04\n      add\n      tag_351\n      swap1\n      tag_188\n      jump\t// in\n    tag_351:\n      mload(0x40)\n      dup1\n      swap2\n      sub\n      swap1\n      revert\n    tag_350:\n        /* \"Arevea-NFT-Market/NFT-Contracts/contracts/finalMarket_single.sol\":11725:11744  _nftContractAddress */\n      dup6\n        /* \"Arevea-NFT-Market/NFT-Contracts/contracts/finalMarket_single.sol\":11717:11762  IERC721(_nftContractAddress).safeTransferFrom */\n      0xffffffffffffffffffffffffffffffffffffffff\n      and\n      0x42842e0e\n        /* \"Arevea-NFT-Market/NFT-Contracts/contracts/finalMarket_single.sol\":11785:11789  this */\n      address\n        /* \"Arevea-NFT-Market/NFT-Contracts/contracts/finalMarket_single.sol\":11805:11815  msg.sender */\n      caller\n        /* \"Arevea-NFT-Market/NFT-Contracts/contracts/finalMarket_single.sol\":11830:11838  _tokenId */\n      dup9\n        /* \"Arevea-NFT-Market/NFT-Contracts/contracts/finalMarket_single.sol\":11717:11849  IERC721(_nftContractAddress).safeTransferFrom(\r... */\n      mload(0x40)\n      dup5\n      0xffffffff\n      and\n      0xe0\n      shl\n      dup2\n      mstore\n      0x04\n      add\n      tag_353\n      swap4\n      swap3\n      swap2\n      swap1\n      tag_122\n      jump\t// in\n    tag_353:\n      0x00\n      mload(0x40)\n      dup1\n      dup4\n      sub\n      dup2\n      0x00\n      dup8\n      dup1\n      extcodesize\n      iszero\n      dup1\n      iszero\n      tag_354\n      jumpi\n      0x00\n      dup1\n      revert\n    tag_354:\n      pop\n      gas\n      call\n      iszero\n      dup1\n      iszero\n      tag_356\n      jumpi\n      returndatasize\n      0x00\n      dup1\n      returndatacopy\n      revert(0x00, returndatasize)\n    tag_356:\n      pop\n      pop\n      pop\n      pop\n        /* \"Arevea-NFT-Market/NFT-Contracts/contracts/finalMarket_single.sol\":11909:11910  0 */\n      0x00\n        /* \"Arevea-NFT-Market/NFT-Contracts/contracts/finalMarket_single.sol\":11862:11875  nftSaleStatus */\n      0x02\n        /* \"Arevea-NFT-Market/NFT-Contracts/contracts/finalMarket_single.sol\":11862:11896  nftSaleStatus[_nftContractAddress] */\n      0x00\n        /* \"Arevea-NFT-Market/NFT-Contracts/contracts/finalMarket_single.sol\":11876:11895  _nftContractAddress */\n      dup9\n        /* \"Arevea-NFT-Market/NFT-Contracts/contracts/finalMarket_single.sol\":11862:11896  nftSaleStatus[_nftContractAddress] */\n      0xffffffffffffffffffffffffffffffffffffffff\n      and\n      0xffffffffffffffffffffffffffffffffffffffff\n      and\n      dup2\n      mstore\n      0x20\n      add\n      swap1\n      dup2\n      mstore\n      0x20\n      add\n      0x00\n      keccak256\n        /* \"Arevea-NFT-Market/NFT-Contracts/contracts/finalMarket_single.sol\":11862:11906  nftSaleStatus[_nftContractAddress][_tokenId] */\n      0x00\n        /* \"Arevea-NFT-Market/NFT-Contracts/contracts/finalMarket_single.sol\":11897:11905  _tokenId */\n      dup8\n        /* \"Arevea-NFT-Market/NFT-Contracts/contracts/finalMarket_single.sol\":11862:11906  nftSaleStatus[_nftContractAddress][_tokenId] */\n      dup2\n      mstore\n      0x20\n      add\n      swap1\n      dup2\n      mstore\n      0x20\n      add\n      0x00\n      keccak256\n        /* \"Arevea-NFT-Market/NFT-Contracts/contracts/finalMarket_single.sol\":11862:11910  nftSaleStatus[_nftContractAddress][_tokenId] = 0 */\n      dup2\n      swap1\n      sstore\n      pop\n        /* \"Arevea-NFT-Market/NFT-Contracts/contracts/finalMarket_single.sol\":11930:11942  fixedSaleNFT */\n      0x06\n        /* \"Arevea-NFT-Market/NFT-Contracts/contracts/finalMarket_single.sol\":11944:11961  indexFixedSaleNFT */\n      0x04\n        /* \"Arevea-NFT-Market/NFT-Contracts/contracts/finalMarket_single.sol\":11944:11982  indexFixedSaleNFT[_nftContractAddress] */\n      0x00\n        /* \"Arevea-NFT-Market/NFT-Contracts/contracts/finalMarket_single.sol\":11962:11981  _nftContractAddress */\n      dup9\n        /* \"Arevea-NFT-Market/NFT-Contracts/contracts/finalMarket_single.sol\":11944:11982  indexFixedSaleNFT[_nftContractAddress] */\n      0xffffffffffffffffffffffffffffffffffffffff\n      and\n      0xffffffffffffffffffffffffffffffffffffffff\n      and\n      dup2\n      mstore\n      0x20\n      add\n      swap1\n      dup2\n      mstore\n      0x20\n      add\n      0x00\n      keccak256\n        /* \"Arevea-NFT-Market/NFT-Contracts/contracts/finalMarket_single.sol\":11944:11992  indexFixedSaleNFT[_nftContractAddress][_tokenId] */\n      0x00\n        /* \"Arevea-NFT-Market/NFT-Contracts/contracts/finalMarket_single.sol\":11983:11991  _tokenId */\n      dup8\n        /* \"Arevea-NFT-Market/NFT-Contracts/contracts/finalMarket_single.sol\":11944:11992  indexFixedSaleNFT[_nftContractAddress][_tokenId] */\n      dup2\n      mstore\n      0x20\n      add\n      swap1\n      dup2\n      mstore\n      0x20\n      add\n      0x00\n      keccak256\n      sload\n        /* \"Arevea-NFT-Market/NFT-Contracts/contracts/finalMarket_single.sol\":11930:11994  fixedSaleNFT[(indexFixedSaleNFT[_nftContractAddress][_tokenId])] */\n      dup2\n      sload\n      dup2\n      lt\n      tag_357\n      jumpi\n      tag_358\n      tag_219\n      jump\t// in\n    tag_358:\n    tag_357:\n      swap1\n      0x00\n      mstore\n      keccak256(0x00, 0x20)\n      swap1\n      0x02\n      mul\n      add\n      0x00\n        /* \"Arevea-NFT-Market/NFT-Contracts/contracts/finalMarket_single.sol\":11923:11994  delete fixedSaleNFT[(indexFixedSaleNFT[_nftContractAddress][_tokenId])] */\n      dup1\n      dup3\n      add\n      exp(0x0100, 0x00)\n      dup2\n      sload\n      swap1\n      0xffffffffffffffffffffffffffffffffffffffff\n      mul\n      not\n      and\n      swap1\n      sstore\n      0x01\n      dup3\n      add\n      0x00\n      swap1\n      sstore\n      pop\n      pop\n        /* \"Arevea-NFT-Market/NFT-Contracts/contracts/finalMarket_single.sol\":12012:12073  CancelNftFixedSale(_nftContractAddress, msg.sender, _tokenId) */\n      0xd7348ff00cf381a884144b50b3441398a48a7974ec349287df80e18cec9f5a31\n        /* \"Arevea-NFT-Market/NFT-Contracts/contracts/finalMarket_single.sol\":12031:12050  _nftContractAddress */\n      dup7\n        /* \"Arevea-NFT-Market/NFT-Contracts/contracts/finalMarket_single.sol\":12052:12062  msg.sender */\n      caller\n        /* \"Arevea-NFT-Market/NFT-Contracts/contracts/finalMarket_single.sol\":12064:12072  _tokenId */\n      dup8\n        /* \"Arevea-NFT-Market/NFT-Contracts/contracts/finalMarket_single.sol\":12012:12073  CancelNftFixedSale(_nftContractAddress, msg.sender, _tokenId) */\n      mload(0x40)\n      tag_360\n      swap4\n      swap3\n      swap2\n      swap1\n      tag_122\n      jump\t// in\n    tag_360:\n      mload(0x40)\n      dup1\n      swap2\n      sub\n      swap1\n      log1\n        /* \"Arevea-NFT-Market/NFT-Contracts/contracts/finalMarket_single.sol\":4713:4714  _ */\n      pop\n      pop\n        /* \"Arevea-NFT-Market/NFT-Contracts/contracts/finalMarket_single.sol\":11495:12081  function cancelFixedsale(address _nftContractAddress, uint256 _tokenId)\r... */\n      pop\n      pop\n      pop\n      pop\n      jump\t// out\n        /* \"Arevea-NFT-Market/NFT-Contracts/contracts/finalMarket_single.sol\":24047:24275  function _bidAmountTransfer(uint256 _buyAmount, address _erc20) internal {\r... */\n    tag_152:\n        /* \"Arevea-NFT-Market/NFT-Contracts/contracts/finalMarket_single.sol\":24160:24166  _erc20 */\n      dup1\n        /* \"Arevea-NFT-Market/NFT-Contracts/contracts/finalMarket_single.sol\":24153:24180  IERC20(_erc20).transferFrom */\n      0xffffffffffffffffffffffffffffffffffffffff\n      and\n      0x23b872dd\n        /* \"Arevea-NFT-Market/NFT-Contracts/contracts/finalMarket_single.sol\":24181:24191  msg.sender */\n      caller\n        /* \"Arevea-NFT-Market/NFT-Contracts/contracts/finalMarket_single.sol\":24201:24205  this */\n      address\n        /* \"Arevea-NFT-Market/NFT-Contracts/contracts/finalMarket_single.sol\":24208:24218  _buyAmount */\n      dup6\n        /* \"Arevea-NFT-Market/NFT-Contracts/contracts/finalMarket_single.sol\":24153:24219  IERC20(_erc20).transferFrom(msg.sender, address(this), _buyAmount) */\n      mload(0x40)\n      dup5\n      0xffffffff\n      and\n      0xe0\n      shl\n      dup2\n      mstore\n      0x04\n      add\n      tag_362\n      swap4\n      swap3\n      swap2\n      swap1\n      tag_122\n      jump\t// in\n    tag_362:\n      0x20\n      mload(0x40)\n      dup1\n      dup4\n      sub\n      dup2\n      0x00\n      dup8\n      dup1\n      extcodesize\n      iszero\n      dup1\n      iszero\n      tag_363\n      jumpi\n      0x00\n      dup1\n      revert\n    tag_363:\n      pop\n      gas\n      call\n      iszero\n      dup1\n      iszero\n      tag_365\n      jumpi\n      returndatasize\n      0x00\n      dup1\n      returndatacopy\n      revert(0x00, returndatasize)\n    tag_365:\n      pop\n      pop\n      pop\n      pop\n      mload(0x40)\n      returndatasize\n      not(0x1f)\n      0x1f\n      dup3\n      add\n      and\n      dup3\n      add\n      dup1\n      0x40\n      mstore\n      pop\n      dup2\n      add\n      swap1\n      tag_366\n      swap2\n      swap1\n      tag_127\n      jump\t// in\n    tag_366:\n        /* \"Arevea-NFT-Market/NFT-Contracts/contracts/finalMarket_single.sol\":24131:24267  require(\r... */\n      tag_367\n      jumpi\n      mload(0x40)\n      0x08c379a000000000000000000000000000000000000000000000000000000000\n      dup2\n      mstore\n      0x04\n      add\n      tag_368\n      swap1\n      tag_369\n      jump\t// in\n    tag_368:\n      mload(0x40)\n      dup1\n      swap2\n      sub\n      swap1\n      revert\n    tag_367:\n        /* \"Arevea-NFT-Market/NFT-Contracts/contracts/finalMarket_single.sol\":24047:24275  function _bidAmountTransfer(uint256 _buyAmount, address _erc20) internal {\r... */\n      pop\n      pop\n      jump\t// out\n        /* \"@openzeppelin/contracts/utils/math/SafeMath.sol\":2755:2851  function add(uint256 a, uint256 b) internal pure returns (uint256) {... */\n    tag_171:\n        /* \"@openzeppelin/contracts/utils/math/SafeMath.sol\":2813:2820  uint256 */\n      0x00\n        /* \"@openzeppelin/contracts/utils/math/SafeMath.sol\":2843:2844  b */\n      dup2\n        /* \"@openzeppelin/contracts/utils/math/SafeMath.sol\":2839:2840  a */\n      dup4\n        /* \"@openzeppelin/contracts/utils/math/SafeMath.sol\":2839:2844  a + b */\n      tag_371\n      swap2\n      swap1\n      tag_372\n      jump\t// in\n    tag_371:\n        /* \"@openzeppelin/contracts/utils/math/SafeMath.sol\":2832:2844  return a + b */\n      swap1\n      pop\n        /* \"@openzeppelin/contracts/utils/math/SafeMath.sol\":2755:2851  function add(uint256 a, uint256 b) internal pure returns (uint256) {... */\n      swap3\n      swap2\n      pop\n      pop\n      jump\t// out\n        /* \"Arevea-NFT-Market/NFT-Contracts/contracts/finalMarket_single.sol\":21583:22179  function _transferNftAndPaySeller(\r... */\n    tag_216:\n        /* \"Arevea-NFT-Market/NFT-Contracts/contracts/finalMarket_single.sol\":21773:21792  _nftContractAddress */\n      dup4\n        /* \"Arevea-NFT-Market/NFT-Contracts/contracts/finalMarket_single.sol\":21765:21810  IERC721(_nftContractAddress).safeTransferFrom */\n      0xffffffffffffffffffffffffffffffffffffffff\n      and\n      0x42842e0e\n        /* \"Arevea-NFT-Market/NFT-Contracts/contracts/finalMarket_single.sol\":21833:21837  this */\n      address\n        /* \"Arevea-NFT-Market/NFT-Contracts/contracts/finalMarket_single.sol\":21853:21862  _nftBuyer */\n      dup4\n        /* \"Arevea-NFT-Market/NFT-Contracts/contracts/finalMarket_single.sol\":21877:21885  _tokenId */\n      dup7\n        /* \"Arevea-NFT-Market/NFT-Contracts/contracts/finalMarket_single.sol\":21765:21896  IERC721(_nftContractAddress).safeTransferFrom(\r... */\n      mload(0x40)\n      dup5\n      0xffffffff\n      and\n      0xe0\n      shl\n      dup2\n      mstore\n      0x04\n      add\n      tag_374\n      swap4\n      swap3\n      swap2\n      swap1\n      tag_122\n      jump\t// in\n    tag_374:\n      0x00\n      mload(0x40)\n      dup1\n      dup4\n      sub\n      dup2\n      0x00\n      dup8\n      dup1\n      extcodesize\n      iszero\n      dup1\n      iszero\n      tag_375\n      jumpi\n      0x00\n      dup1\n      revert\n    tag_375:\n      pop\n      gas\n      call\n      iszero\n      dup1\n      iszero\n      tag_377\n      jumpi\n      returndatasize\n      0x00\n      dup1\n      returndatacopy\n      revert(0x00, returndatasize)\n    tag_377:\n      pop\n      pop\n      pop\n      pop\n        /* \"Arevea-NFT-Market/NFT-Contracts/contracts/finalMarket_single.sol\":21956:21957  0 */\n      0x00\n        /* \"Arevea-NFT-Market/NFT-Contracts/contracts/finalMarket_single.sol\":21909:21922  nftSaleStatus */\n      0x02\n        /* \"Arevea-NFT-Market/NFT-Contracts/contracts/finalMarket_single.sol\":21909:21943  nftSaleStatus[_nftContractAddress] */\n      0x00\n        /* \"Arevea-NFT-Market/NFT-Contracts/contracts/finalMarket_single.sol\":21923:21942  _nftContractAddress */\n      dup7\n        /* \"Arevea-NFT-Market/NFT-Contracts/contracts/finalMarket_single.sol\":21909:21943  nftSaleStatus[_nftContractAddress] */\n      0xffffffffffffffffffffffffffffffffffffffff\n      and\n      0xffffffffffffffffffffffffffffffffffffffff\n      and\n      dup2\n      mstore\n      0x20\n      add\n      swap1\n      dup2\n      mstore\n      0x20\n      add\n      0x00\n      keccak256\n        /* \"Arevea-NFT-Market/NFT-Contracts/contracts/finalMarket_single.sol\":21909:21953  nftSaleStatus[_nftContractAddress][_tokenId] */\n      0x00\n        /* \"Arevea-NFT-Market/NFT-Contracts/contracts/finalMarket_single.sol\":21944:21952  _tokenId */\n      dup6\n        /* \"Arevea-NFT-Market/NFT-Contracts/contracts/finalMarket_single.sol\":21909:21953  nftSaleStatus[_nftContractAddress][_tokenId] */\n      dup2\n      mstore\n      0x20\n      add\n      swap1\n      dup2\n      mstore\n      0x20\n      add\n      0x00\n      keccak256\n        /* \"Arevea-NFT-Market/NFT-Contracts/contracts/finalMarket_single.sol\":21909:21957  nftSaleStatus[_nftContractAddress][_tokenId] = 0 */\n      dup2\n      swap1\n      sstore\n      pop\n        /* \"Arevea-NFT-Market/NFT-Contracts/contracts/finalMarket_single.sol\":21970:22171  _isTokenOrCoin(\r... */\n      tag_378\n        /* \"Arevea-NFT-Market/NFT-Contracts/contracts/finalMarket_single.sol\":21999:22021  nftContractAuctionSale */\n      0x01\n        /* \"Arevea-NFT-Market/NFT-Contracts/contracts/finalMarket_single.sol\":21999:22042  nftContractAuctionSale[_nftContractAddress] */\n      0x00\n        /* \"Arevea-NFT-Market/NFT-Contracts/contracts/finalMarket_single.sol\":22022:22041  _nftContractAddress */\n      dup7\n        /* \"Arevea-NFT-Market/NFT-Contracts/contracts/finalMarket_single.sol\":21999:22042  nftContractAuctionSale[_nftContractAddress] */\n      0xffffffffffffffffffffffffffffffffffffffff\n      and\n      0xffffffffffffffffffffffffffffffffffffffff\n      and\n      dup2\n      mstore\n      0x20\n      add\n      swap1\n      dup2\n      mstore\n      0x20\n      add\n      0x00\n      keccak256\n        /* \"Arevea-NFT-Market/NFT-Contracts/contracts/finalMarket_single.sol\":21999:22052  nftContractAuctionSale[_nftContractAddress][_tokenId] */\n      0x00\n        /* \"Arevea-NFT-Market/NFT-Contracts/contracts/finalMarket_single.sol\":22043:22051  _tokenId */\n      dup6\n        /* \"Arevea-NFT-Market/NFT-Contracts/contracts/finalMarket_single.sol\":21999:22052  nftContractAuctionSale[_nftContractAddress][_tokenId] */\n      dup2\n      mstore\n      0x20\n      add\n      swap1\n      dup2\n      mstore\n      0x20\n      add\n      0x00\n      keccak256\n        /* \"Arevea-NFT-Market/NFT-Contracts/contracts/finalMarket_single.sol\":21999:22062  nftContractAuctionSale[_nftContractAddress][_tokenId].nftSeller */\n      0x05\n      add\n      0x00\n      swap1\n      sload\n      swap1\n      0x0100\n      exp\n      swap1\n      div\n      0xffffffffffffffffffffffffffffffffffffffff\n      and\n        /* \"Arevea-NFT-Market/NFT-Contracts/contracts/finalMarket_single.sol\":22077:22099  nftContractAuctionSale */\n      0x01\n        /* \"Arevea-NFT-Market/NFT-Contracts/contracts/finalMarket_single.sol\":22077:22120  nftContractAuctionSale[_nftContractAddress] */\n      0x00\n        /* \"Arevea-NFT-Market/NFT-Contracts/contracts/finalMarket_single.sol\":22100:22119  _nftContractAddress */\n      dup8\n        /* \"Arevea-NFT-Market/NFT-Contracts/contracts/finalMarket_single.sol\":22077:22120  nftContractAuctionSale[_nftContractAddress] */\n      0xffffffffffffffffffffffffffffffffffffffff\n      and\n      0xffffffffffffffffffffffffffffffffffffffff\n      and\n      dup2\n      mstore\n      0x20\n      add\n      swap1\n      dup2\n      mstore\n      0x20\n      add\n      0x00\n      keccak256\n        /* \"Arevea-NFT-Market/NFT-Contracts/contracts/finalMarket_single.sol\":22077:22130  nftContractAuctionSale[_nftContractAddress][_tokenId] */\n      0x00\n        /* \"Arevea-NFT-Market/NFT-Contracts/contracts/finalMarket_single.sol\":22121:22129  _tokenId */\n      dup7\n        /* \"Arevea-NFT-Market/NFT-Contracts/contracts/finalMarket_single.sol\":22077:22130  nftContractAuctionSale[_nftContractAddress][_tokenId] */\n      dup2\n      mstore\n      0x20\n      add\n      swap1\n      dup2\n      mstore\n      0x20\n      add\n      0x00\n      keccak256\n        /* \"Arevea-NFT-Market/NFT-Contracts/contracts/finalMarket_single.sol\":22077:22136  nftContractAuctionSale[_nftContractAddress][_tokenId].erc20 */\n      0x06\n      add\n      0x00\n      swap1\n      sload\n      swap1\n      0x0100\n      exp\n      swap1\n      div\n      0xffffffffffffffffffffffffffffffffffffffff\n      and\n        /* \"Arevea-NFT-Market/NFT-Contracts/contracts/finalMarket_single.sol\":22151:22160  _bidPrice */\n      dup5\n        /* \"Arevea-NFT-Market/NFT-Contracts/contracts/finalMarket_single.sol\":21970:21984  _isTokenOrCoin */\n      tag_315\n        /* \"Arevea-NFT-Market/NFT-Contracts/contracts/finalMarket_single.sol\":21970:22171  _isTokenOrCoin(\r... */\n      jump\t// in\n    tag_378:\n        /* \"Arevea-NFT-Market/NFT-Contracts/contracts/finalMarket_single.sol\":21583:22179  function _transferNftAndPaySeller(\r... */\n      pop\n      pop\n      pop\n      pop\n      jump\t// out\n        /* \"Arevea-NFT-Market/NFT-Contracts/contracts/finalMarket_single.sol\":23655:23979  function _isTokenOrCoin(\r... */\n    tag_315:\n        /* \"Arevea-NFT-Market/NFT-Contracts/contracts/finalMarket_single.sol\":23811:23812  0 */\n      0x00\n        /* \"Arevea-NFT-Market/NFT-Contracts/contracts/finalMarket_single.sol\":23793:23813  _erc20 != address(0) */\n      0xffffffffffffffffffffffffffffffffffffffff\n      and\n        /* \"Arevea-NFT-Market/NFT-Contracts/contracts/finalMarket_single.sol\":23793:23799  _erc20 */\n      dup3\n        /* \"Arevea-NFT-Market/NFT-Contracts/contracts/finalMarket_single.sol\":23793:23813  _erc20 != address(0) */\n      0xffffffffffffffffffffffffffffffffffffffff\n      and\n      eq\n        /* \"Arevea-NFT-Market/NFT-Contracts/contracts/finalMarket_single.sol\":23789:23972  if (_erc20 != address(0)) {\r... */\n      tag_380\n      jumpi\n        /* \"Arevea-NFT-Market/NFT-Contracts/contracts/finalMarket_single.sol\":23830:23882  _tokenAmountTransfer(_nftSeller, _erc20, _buyAmount) */\n      tag_381\n        /* \"Arevea-NFT-Market/NFT-Contracts/contracts/finalMarket_single.sol\":23851:23861  _nftSeller */\n      dup4\n        /* \"Arevea-NFT-Market/NFT-Contracts/contracts/finalMarket_single.sol\":23863:23869  _erc20 */\n      dup4\n        /* \"Arevea-NFT-Market/NFT-Contracts/contracts/finalMarket_single.sol\":23871:23881  _buyAmount */\n      dup4\n        /* \"Arevea-NFT-Market/NFT-Contracts/contracts/finalMarket_single.sol\":23830:23850  _tokenAmountTransfer */\n      tag_382\n        /* \"Arevea-NFT-Market/NFT-Contracts/contracts/finalMarket_single.sol\":23830:23882  _tokenAmountTransfer(_nftSeller, _erc20, _buyAmount) */\n      jump\t// in\n    tag_381:\n        /* \"Arevea-NFT-Market/NFT-Contracts/contracts/finalMarket_single.sol\":23789:23972  if (_erc20 != address(0)) {\r... */\n      jump(tag_383)\n    tag_380:\n        /* \"Arevea-NFT-Market/NFT-Contracts/contracts/finalMarket_single.sol\":23915:23960  _nativeAmountTransfer(_nftSeller, _buyAmount) */\n      tag_384\n        /* \"Arevea-NFT-Market/NFT-Contracts/contracts/finalMarket_single.sol\":23937:23947  _nftSeller */\n      dup4\n        /* \"Arevea-NFT-Market/NFT-Contracts/contracts/finalMarket_single.sol\":23949:23959  _buyAmount */\n      dup3\n        /* \"Arevea-NFT-Market/NFT-Contracts/contracts/finalMarket_single.sol\":23915:23936  _nativeAmountTransfer */\n      tag_385\n        /* \"Arevea-NFT-Market/NFT-Contracts/contracts/finalMarket_single.sol\":23915:23960  _nativeAmountTransfer(_nftSeller, _buyAmount) */\n      jump\t// in\n    tag_384:\n        /* \"Arevea-NFT-Market/NFT-Contracts/contracts/finalMarket_single.sol\":23789:23972  if (_erc20 != address(0)) {\r... */\n    tag_383:\n        /* \"Arevea-NFT-Market/NFT-Contracts/contracts/finalMarket_single.sol\":23655:23979  function _isTokenOrCoin(\r... */\n      pop\n      pop\n      pop\n      jump\t// out\n        /* \"Arevea-NFT-Market/NFT-Contracts/contracts/finalMarket_single.sol\":22898:23600  function _storedNftAuctionDetails(\r... */\n    tag_342:\n        /* \"Arevea-NFT-Market/NFT-Contracts/contracts/finalMarket_single.sol\":23195:23386  Auction(\r... */\n      mload(0x40)\n      dup1\n      0xe0\n      add\n      0x40\n      mstore\n      dup1\n        /* \"Arevea-NFT-Market/NFT-Contracts/contracts/finalMarket_single.sol\":23217:23230  _auctionStart */\n      dup5\n        /* \"Arevea-NFT-Market/NFT-Contracts/contracts/finalMarket_single.sol\":23195:23386  Auction(\r... */\n      dup2\n      mstore\n      0x20\n      add\n        /* \"Arevea-NFT-Market/NFT-Contracts/contracts/finalMarket_single.sol\":23245:23256  _auctionEnd */\n      dup4\n        /* \"Arevea-NFT-Market/NFT-Contracts/contracts/finalMarket_single.sol\":23195:23386  Auction(\r... */\n      dup2\n      mstore\n      0x20\n      add\n        /* \"Arevea-NFT-Market/NFT-Contracts/contracts/finalMarket_single.sol\":23271:23280  _minPrice */\n      dup3\n        /* \"Arevea-NFT-Market/NFT-Contracts/contracts/finalMarket_single.sol\":23195:23386  Auction(\r... */\n      dup2\n      mstore\n      0x20\n      add\n        /* \"Arevea-NFT-Market/NFT-Contracts/contracts/finalMarket_single.sol\":23295:23304  _minPrice */\n      dup3\n        /* \"Arevea-NFT-Market/NFT-Contracts/contracts/finalMarket_single.sol\":23195:23386  Auction(\r... */\n      dup2\n      mstore\n      0x20\n      add\n        /* \"Arevea-NFT-Market/NFT-Contracts/contracts/finalMarket_single.sol\":23327:23328  0 */\n      0x00\n        /* \"Arevea-NFT-Market/NFT-Contracts/contracts/finalMarket_single.sol\":23195:23386  Auction(\r... */\n      0xffffffffffffffffffffffffffffffffffffffff\n      and\n      dup2\n      mstore\n      0x20\n      add\n        /* \"Arevea-NFT-Market/NFT-Contracts/contracts/finalMarket_single.sol\":23344:23354  msg.sender */\n      caller\n        /* \"Arevea-NFT-Market/NFT-Contracts/contracts/finalMarket_single.sol\":23195:23386  Auction(\r... */\n      0xffffffffffffffffffffffffffffffffffffffff\n      and\n      dup2\n      mstore\n      0x20\n      add\n        /* \"Arevea-NFT-Market/NFT-Contracts/contracts/finalMarket_single.sol\":23369:23375  _erc20 */\n      dup7\n        /* \"Arevea-NFT-Market/NFT-Contracts/contracts/finalMarket_single.sol\":23195:23386  Auction(\r... */\n      0xffffffffffffffffffffffffffffffffffffffff\n      and\n      dup2\n      mstore\n      pop\n        /* \"Arevea-NFT-Market/NFT-Contracts/contracts/finalMarket_single.sol\":23139:23161  nftContractAuctionSale */\n      0x01\n        /* \"Arevea-NFT-Market/NFT-Contracts/contracts/finalMarket_single.sol\":23139:23182  nftContractAuctionSale[_nftContractAddress] */\n      0x00\n        /* \"Arevea-NFT-Market/NFT-Contracts/contracts/finalMarket_single.sol\":23162:23181  _nftContractAddress */\n      dup9\n        /* \"Arevea-NFT-Market/NFT-Contracts/contracts/finalMarket_single.sol\":23139:23182  nftContractAuctionSale[_nftContractAddress] */\n      0xffffffffffffffffffffffffffffffffffffffff\n      and\n      0xffffffffffffffffffffffffffffffffffffffff\n      and\n      dup2\n      mstore\n      0x20\n      add\n      swap1\n      dup2\n      mstore\n      0x20\n      add\n      0x00\n      keccak256\n        /* \"Arevea-NFT-Market/NFT-Contracts/contracts/finalMarket_single.sol\":23139:23192  nftContractAuctionSale[_nftContractAddress][_tokenId] */\n      0x00\n        /* \"Arevea-NFT-Market/NFT-Contracts/contracts/finalMarket_single.sol\":23183:23191  _tokenId */\n      dup7\n        /* \"Arevea-NFT-Market/NFT-Contracts/contracts/finalMarket_single.sol\":23139:23192  nftContractAuctionSale[_nftContractAddress][_tokenId] */\n      dup2\n      mstore\n      0x20\n      add\n      swap1\n      dup2\n      mstore\n      0x20\n      add\n      0x00\n      keccak256\n        /* \"Arevea-NFT-Market/NFT-Contracts/contracts/finalMarket_single.sol\":23139:23386  nftContractAuctionSale[_nftContractAddress][_tokenId] = Auction(\r... */\n      0x00\n      dup3\n      add\n      mload\n      dup2\n      0x00\n      add\n      sstore\n      0x20\n      dup3\n      add\n      mload\n      dup2\n      0x01\n      add\n      sstore\n      0x40\n      dup3\n      add\n      mload\n      dup2\n      0x02\n      add\n      sstore\n      0x60\n      dup3\n      add\n      mload\n      dup2\n      0x03\n      add\n      sstore\n      0x80\n      dup3\n      add\n      mload\n      dup2\n      0x04\n      add\n      exp(0x0100, 0x00)\n      dup2\n      sload\n      dup2\n      0xffffffffffffffffffffffffffffffffffffffff\n      mul\n      not\n      and\n      swap1\n      dup4\n      0xffffffffffffffffffffffffffffffffffffffff\n      and\n      mul\n      or\n      swap1\n      sstore\n      pop\n      0xa0\n      dup3\n      add\n      mload\n      dup2\n      0x05\n      add\n      exp(0x0100, 0x00)\n      dup2\n      sload\n      dup2\n      0xffffffffffffffffffffffffffffffffffffffff\n      mul\n      not\n      and\n      swap1\n      dup4\n      0xffffffffffffffffffffffffffffffffffffffff\n      and\n      mul\n      or\n      swap1\n      sstore\n      pop\n      0xc0\n      dup3\n      add\n      mload\n      dup2\n      0x06\n      add\n      exp(0x0100, 0x00)\n      dup2\n      sload\n      dup2\n      0xffffffffffffffffffffffffffffffffffffffff\n      mul\n      not\n      and\n      swap1\n      dup4\n      0xffffffffffffffffffffffffffffffffffffffff\n      and\n      mul\n      or\n      swap1\n      sstore\n      pop\n      swap1\n      pop\n      pop\n        /* \"Arevea-NFT-Market/NFT-Contracts/contracts/finalMarket_single.sol\":23446:23447  2 */\n      0x02\n        /* \"Arevea-NFT-Market/NFT-Contracts/contracts/finalMarket_single.sol\":23399:23412  nftSaleStatus */\n      dup1\n        /* \"Arevea-NFT-Market/NFT-Contracts/contracts/finalMarket_single.sol\":23399:23433  nftSaleStatus[_nftContractAddress] */\n      0x00\n        /* \"Arevea-NFT-Market/NFT-Contracts/contracts/finalMarket_single.sol\":23413:23432  _nftContractAddress */\n      dup9\n        /* \"Arevea-NFT-Market/NFT-Contracts/contracts/finalMarket_single.sol\":23399:23433  nftSaleStatus[_nftContractAddress] */\n      0xffffffffffffffffffffffffffffffffffffffff\n      and\n      0xffffffffffffffffffffffffffffffffffffffff\n      and\n      dup2\n      mstore\n      0x20\n      add\n      swap1\n      dup2\n      mstore\n      0x20\n      add\n      0x00\n      keccak256\n        /* \"Arevea-NFT-Market/NFT-Contracts/contracts/finalMarket_single.sol\":23399:23443  nftSaleStatus[_nftContractAddress][_tokenId] */\n      0x00\n        /* \"Arevea-NFT-Market/NFT-Contracts/contracts/finalMarket_single.sol\":23434:23442  _tokenId */\n      dup7\n        /* \"Arevea-NFT-Market/NFT-Contracts/contracts/finalMarket_single.sol\":23399:23443  nftSaleStatus[_nftContractAddress][_tokenId] */\n      dup2\n      mstore\n      0x20\n      add\n      swap1\n      dup2\n      mstore\n      0x20\n      add\n      0x00\n      keccak256\n        /* \"Arevea-NFT-Market/NFT-Contracts/contracts/finalMarket_single.sol\":23399:23447  nftSaleStatus[_nftContractAddress][_tokenId] = 2 */\n      dup2\n      swap1\n      sstore\n      pop\n        /* \"Arevea-NFT-Market/NFT-Contracts/contracts/finalMarket_single.sol\":23468:23487  _nftContractAddress */\n      dup6\n        /* \"Arevea-NFT-Market/NFT-Contracts/contracts/finalMarket_single.sol\":23460:23505  IERC721(_nftContractAddress).safeTransferFrom */\n      0xffffffffffffffffffffffffffffffffffffffff\n      and\n      0x42842e0e\n        /* \"Arevea-NFT-Market/NFT-Contracts/contracts/finalMarket_single.sol\":23520:23530  msg.sender */\n      caller\n        /* \"Arevea-NFT-Market/NFT-Contracts/contracts/finalMarket_single.sol\":23553:23557  this */\n      address\n        /* \"Arevea-NFT-Market/NFT-Contracts/contracts/finalMarket_single.sol\":23573:23581  _tokenId */\n      dup8\n        /* \"Arevea-NFT-Market/NFT-Contracts/contracts/finalMarket_single.sol\":23460:23592  IERC721(_nftContractAddress).safeTransferFrom(\r... */\n      mload(0x40)\n      dup5\n      0xffffffff\n      and\n      0xe0\n      shl\n      dup2\n      mstore\n      0x04\n      add\n      tag_387\n      swap4\n      swap3\n      swap2\n      swap1\n      tag_122\n      jump\t// in\n    tag_387:\n      0x00\n      mload(0x40)\n      dup1\n      dup4\n      sub\n      dup2\n      0x00\n      dup8\n      dup1\n      extcodesize\n      iszero\n      dup1\n      iszero\n      tag_388\n      jumpi\n      0x00\n      dup1\n      revert\n    tag_388:\n      pop\n      gas\n      call\n      iszero\n      dup1\n      iszero\n      tag_390\n      jumpi\n      returndatasize\n      0x00\n      dup1\n      returndatacopy\n      revert(0x00, returndatasize)\n    tag_390:\n      pop\n      pop\n      pop\n      pop\n        /* \"Arevea-NFT-Market/NFT-Contracts/contracts/finalMarket_single.sol\":22898:23600  function _storedNftAuctionDetails(\r... */\n      pop\n      pop\n      pop\n      pop\n      pop\n      pop\n      jump\t// out\n        /* \"Arevea-NFT-Market/NFT-Contracts/contracts/finalMarket_single.sol\":22236:22578  function _tokenAmountTransfer(\r... */\n    tag_382:\n        /* \"Arevea-NFT-Market/NFT-Contracts/contracts/finalMarket_single.sol\":22405:22411  _erc20 */\n      dup2\n        /* \"Arevea-NFT-Market/NFT-Contracts/contracts/finalMarket_single.sol\":22398:22425  IERC20(_erc20).transferFrom */\n      0xffffffffffffffffffffffffffffffffffffffff\n      and\n      0x23b872dd\n        /* \"Arevea-NFT-Market/NFT-Contracts/contracts/finalMarket_single.sol\":22426:22436  msg.sender */\n      caller\n        /* \"Arevea-NFT-Market/NFT-Contracts/contracts/finalMarket_single.sol\":22446:22450  this */\n      address\n        /* \"Arevea-NFT-Market/NFT-Contracts/contracts/finalMarket_single.sol\":22453:22463  _buyAmount */\n      dup5\n        /* \"Arevea-NFT-Market/NFT-Contracts/contracts/finalMarket_single.sol\":22398:22464  IERC20(_erc20).transferFrom(msg.sender, address(this), _buyAmount) */\n      mload(0x40)\n      dup5\n      0xffffffff\n      and\n      0xe0\n      shl\n      dup2\n      mstore\n      0x04\n      add\n      tag_392\n      swap4\n      swap3\n      swap2\n      swap1\n      tag_122\n      jump\t// in\n    tag_392:\n      0x20\n      mload(0x40)\n      dup1\n      dup4\n      sub\n      dup2\n      0x00\n      dup8\n      dup1\n      extcodesize\n      iszero\n      dup1\n      iszero\n      tag_393\n      jumpi\n      0x00\n      dup1\n      revert\n    tag_393:\n      pop\n      gas\n      call\n      iszero\n      dup1\n      iszero\n      tag_395\n      jumpi\n      returndatasize\n      0x00\n      dup1\n      returndatacopy\n      revert(0x00, returndatasize)\n    tag_395:\n      pop\n      pop\n      pop\n      pop\n      mload(0x40)\n      returndatasize\n      not(0x1f)\n      0x1f\n      dup3\n      add\n      and\n      dup3\n      add\n      dup1\n      0x40\n      mstore\n      pop\n      dup2\n      add\n      swap1\n      tag_396\n      swap2\n      swap1\n      tag_127\n      jump\t// in\n    tag_396:\n        /* \"Arevea-NFT-Market/NFT-Contracts/contracts/finalMarket_single.sol\":22376:22512  require(\r... */\n      tag_397\n      jumpi\n      mload(0x40)\n      0x08c379a000000000000000000000000000000000000000000000000000000000\n      dup2\n      mstore\n      0x04\n      add\n      tag_398\n      swap1\n      tag_369\n      jump\t// in\n    tag_398:\n      mload(0x40)\n      dup1\n      swap2\n      sub\n      swap1\n      revert\n    tag_397:\n        /* \"Arevea-NFT-Market/NFT-Contracts/contracts/finalMarket_single.sol\":22530:22536  _erc20 */\n      dup2\n        /* \"Arevea-NFT-Market/NFT-Contracts/contracts/finalMarket_single.sol\":22523:22546  IERC20(_erc20).transfer */\n      0xffffffffffffffffffffffffffffffffffffffff\n      and\n      0xa9059cbb\n        /* \"Arevea-NFT-Market/NFT-Contracts/contracts/finalMarket_single.sol\":22547:22557  _nftSeller */\n      dup5\n        /* \"Arevea-NFT-Market/NFT-Contracts/contracts/finalMarket_single.sol\":22559:22569  _buyAmount */\n      dup4\n        /* \"Arevea-NFT-Market/NFT-Contracts/contracts/finalMarket_single.sol\":22523:22570  IERC20(_erc20).transfer(_nftSeller, _buyAmount) */\n      mload(0x40)\n      dup4\n      0xffffffff\n      and\n      0xe0\n      shl\n      dup2\n      mstore\n      0x04\n      add\n      tag_399\n      swap3\n      swap2\n      swap1\n      tag_400\n      jump\t// in\n    tag_399:\n      0x20\n      mload(0x40)\n      dup1\n      dup4\n      sub\n      dup2\n      0x00\n      dup8\n      dup1\n      extcodesize\n      iszero\n      dup1\n      iszero\n      tag_401\n      jumpi\n      0x00\n      dup1\n      revert\n    tag_401:\n      pop\n      gas\n      call\n      iszero\n      dup1\n      iszero\n      tag_403\n      jumpi\n      returndatasize\n      0x00\n      dup1\n      returndatacopy\n      revert(0x00, returndatasize)\n    tag_403:\n      pop\n      pop\n      pop\n      pop\n      mload(0x40)\n      returndatasize\n      not(0x1f)\n      0x1f\n      dup3\n      add\n      and\n      dup3\n      add\n      dup1\n      0x40\n      mstore\n      pop\n      dup2\n      add\n      swap1\n      tag_404\n      swap2\n      swap1\n      tag_127\n      jump\t// in\n    tag_404:\n      pop\n        /* \"Arevea-NFT-Market/NFT-Contracts/contracts/finalMarket_single.sol\":22236:22578  function _tokenAmountTransfer(\r... */\n      pop\n      pop\n      pop\n      jump\t// out\n        /* \"Arevea-NFT-Market/NFT-Contracts/contracts/finalMarket_single.sol\":22628:22842  function _nativeAmountTransfer(address _nftSeller, uint256 _buyAmount)\r... */\n    tag_385:\n        /* \"Arevea-NFT-Market/NFT-Contracts/contracts/finalMarket_single.sol\":22734:22746  bool success */\n      0x00\n        /* \"Arevea-NFT-Market/NFT-Contracts/contracts/finalMarket_single.sol\":22752:22762  _nftSeller */\n      dup3\n        /* \"Arevea-NFT-Market/NFT-Contracts/contracts/finalMarket_single.sol\":22752:22767  _nftSeller.call */\n      0xffffffffffffffffffffffffffffffffffffffff\n      and\n        /* \"Arevea-NFT-Market/NFT-Contracts/contracts/finalMarket_single.sol\":22775:22785  _buyAmount */\n      dup3\n        /* \"Arevea-NFT-Market/NFT-Contracts/contracts/finalMarket_single.sol\":22752:22790  _nftSeller.call{value: _buyAmount}(\"\") */\n      mload(0x40)\n      tag_406\n      swap1\n      tag_407\n      jump\t// in\n    tag_406:\n      0x00\n      mload(0x40)\n      dup1\n      dup4\n      sub\n      dup2\n      dup6\n      dup8\n      gas\n      call\n      swap3\n      pop\n      pop\n      pop\n      returndatasize\n      dup1\n      0x00\n      dup2\n      eq\n      tag_410\n      jumpi\n      mload(0x40)\n      swap2\n      pop\n      and(add(returndatasize, 0x3f), not(0x1f))\n      dup3\n      add\n      0x40\n      mstore\n      returndatasize\n      dup3\n      mstore\n      returndatasize\n      0x00\n      0x20\n      dup5\n      add\n      returndatacopy\n      jump(tag_409)\n    tag_410:\n      0x60\n      swap2\n      pop\n    tag_409:\n      pop\n        /* \"Arevea-NFT-Market/NFT-Contracts/contracts/finalMarket_single.sol\":22733:22790  (bool success, ) = _nftSeller.call{value: _buyAmount}(\"\") */\n      pop\n      swap1\n      pop\n        /* \"Arevea-NFT-Market/NFT-Contracts/contracts/finalMarket_single.sol\":22809:22816  success */\n      dup1\n        /* \"Arevea-NFT-Market/NFT-Contracts/contracts/finalMarket_single.sol\":22801:22834  require(success, \"refund failed\") */\n      tag_411\n      jumpi\n      mload(0x40)\n      0x08c379a000000000000000000000000000000000000000000000000000000000\n      dup2\n      mstore\n      0x04\n      add\n      tag_412\n      swap1\n      tag_413\n      jump\t// in\n    tag_412:\n      mload(0x40)\n      dup1\n      swap2\n      sub\n      swap1\n      revert\n    tag_411:\n        /* \"Arevea-NFT-Market/NFT-Contracts/contracts/finalMarket_single.sol\":22722:22842  {\r... */\n      pop\n        /* \"Arevea-NFT-Market/NFT-Contracts/contracts/finalMarket_single.sol\":22628:22842  function _nativeAmountTransfer(address _nftSeller, uint256 _buyAmount)\r... */\n      pop\n      pop\n      jump\t// out\n    tag_258:\n      mload(0x40)\n      dup1\n      0xe0\n      add\n      0x40\n      mstore\n      dup1\n      0x00\n      dup2\n      mstore\n      0x20\n      add\n      0x00\n      dup2\n      mstore\n      0x20\n      add\n      0x00\n      dup2\n      mstore\n      0x20\n      add\n      0x00\n      dup2\n      mstore\n      0x20\n      add\n      and(0xffffffffffffffffffffffffffffffffffffffff, 0x00)\n      dup2\n      mstore\n      0x20\n      add\n      and(0xffffffffffffffffffffffffffffffffffffffff, 0x00)\n      dup2\n      mstore\n      0x20\n      add\n      and(0xffffffffffffffffffffffffffffffffffffffff, 0x00)\n      dup2\n      mstore\n      pop\n      swap1\n      jump\t// out\n    tag_290:\n      mload(0x40)\n      dup1\n      0x80\n      add\n      0x40\n      mstore\n      dup1\n      and(0xffffffffffffffffffffffffffffffffffffffff, 0x00)\n      dup2\n      mstore\n      0x20\n      add\n      and(0xffffffffffffffffffffffffffffffffffffffff, 0x00)\n      dup2\n      mstore\n      0x20\n      add\n      and(0xffffffffffffffffffffffffffffffffffffffff, 0x00)\n      dup2\n      mstore\n      0x20\n      add\n      0x00\n      dup2\n      mstore\n      pop\n      swap1\n      jump\t// out\n        /* \"#utility.yul\":7:146   */\n    tag_415:\n        /* \"#utility.yul\":53:58   */\n      0x00\n        /* \"#utility.yul\":91:97   */\n      dup2\n        /* \"#utility.yul\":78:98   */\n      calldataload\n        /* \"#utility.yul\":69:98   */\n      swap1\n      pop\n        /* \"#utility.yul\":107:140   */\n      tag_417\n        /* \"#utility.yul\":134:139   */\n      dup2\n        /* \"#utility.yul\":107:140   */\n      tag_418\n      jump\t// in\n    tag_417:\n        /* \"#utility.yul\":7:146   */\n      swap3\n      swap2\n      pop\n      pop\n      jump\t// out\n        /* \"#utility.yul\":152:295   */\n    tag_419:\n        /* \"#utility.yul\":209:214   */\n      0x00\n        /* \"#utility.yul\":240:246   */\n      dup2\n        /* \"#utility.yul\":234:247   */\n      mload\n        /* \"#utility.yul\":225:247   */\n      swap1\n      pop\n        /* \"#utility.yul\":256:289   */\n      tag_421\n        /* \"#utility.yul\":283:288   */\n      dup2\n        /* \"#utility.yul\":256:289   */\n      tag_418\n      jump\t// in\n    tag_421:\n        /* \"#utility.yul\":152:295   */\n      swap3\n      swap2\n      pop\n      pop\n      jump\t// out\n        /* \"#utility.yul\":301:438   */\n    tag_422:\n        /* \"#utility.yul\":355:360   */\n      0x00\n        /* \"#utility.yul\":386:392   */\n      dup2\n        /* \"#utility.yul\":380:393   */\n      mload\n        /* \"#utility.yul\":371:393   */\n      swap1\n      pop\n        /* \"#utility.yul\":402:432   */\n      tag_424\n        /* \"#utility.yul\":426:431   */\n      dup2\n        /* \"#utility.yul\":402:432   */\n      tag_425\n      jump\t// in\n    tag_424:\n        /* \"#utility.yul\":301:438   */\n      swap3\n      swap2\n      pop\n      pop\n      jump\t// out\n        /* \"#utility.yul\":457:1009   */\n    tag_426:\n        /* \"#utility.yul\":514:522   */\n      0x00\n        /* \"#utility.yul\":524:530   */\n      dup1\n        /* \"#utility.yul\":574:577   */\n      dup4\n        /* \"#utility.yul\":567:571   */\n      0x1f\n        /* \"#utility.yul\":559:565   */\n      dup5\n        /* \"#utility.yul\":555:572   */\n      add\n        /* \"#utility.yul\":551:578   */\n      slt\n        /* \"#utility.yul\":541:663   */\n      tag_428\n      jumpi\n        /* \"#utility.yul\":582:661   */\n      tag_429\n      tag_430\n      jump\t// in\n    tag_429:\n        /* \"#utility.yul\":541:663   */\n    tag_428:\n        /* \"#utility.yul\":695:701   */\n      dup3\n        /* \"#utility.yul\":682:702   */\n      calldataload\n        /* \"#utility.yul\":672:702   */\n      swap1\n      pop\n        /* \"#utility.yul\":725:743   */\n      0xffffffffffffffff\n        /* \"#utility.yul\":717:723   */\n      dup2\n        /* \"#utility.yul\":714:744   */\n      gt\n        /* \"#utility.yul\":711:828   */\n      iszero\n      tag_431\n      jumpi\n        /* \"#utility.yul\":747:826   */\n      tag_432\n      tag_433\n      jump\t// in\n    tag_432:\n        /* \"#utility.yul\":711:828   */\n    tag_431:\n        /* \"#utility.yul\":861:865   */\n      0x20\n        /* \"#utility.yul\":853:859   */\n      dup4\n        /* \"#utility.yul\":849:866   */\n      add\n        /* \"#utility.yul\":837:866   */\n      swap2\n      pop\n        /* \"#utility.yul\":915:918   */\n      dup4\n        /* \"#utility.yul\":907:911   */\n      0x01\n        /* \"#utility.yul\":899:905   */\n      dup3\n        /* \"#utility.yul\":895:912   */\n      mul\n        /* \"#utility.yul\":885:893   */\n      dup4\n        /* \"#utility.yul\":881:913   */\n      add\n        /* \"#utility.yul\":878:919   */\n      gt\n        /* \"#utility.yul\":875:1003   */\n      iszero\n      tag_434\n      jumpi\n        /* \"#utility.yul\":922:1001   */\n      tag_435\n      tag_436\n      jump\t// in\n    tag_435:\n        /* \"#utility.yul\":875:1003   */\n    tag_434:\n        /* \"#utility.yul\":457:1009   */\n      swap3\n      pop\n      swap3\n      swap1\n      pop\n      jump\t// out\n        /* \"#utility.yul\":1015:1154   */\n    tag_437:\n        /* \"#utility.yul\":1061:1066   */\n      0x00\n        /* \"#utility.yul\":1099:1105   */\n      dup2\n        /* \"#utility.yul\":1086:1106   */\n      calldataload\n        /* \"#utility.yul\":1077:1106   */\n      swap1\n      pop\n        /* \"#utility.yul\":1115:1148   */\n      tag_439\n        /* \"#utility.yul\":1142:1147   */\n      dup2\n        /* \"#utility.yul\":1115:1148   */\n      tag_440\n      jump\t// in\n    tag_439:\n        /* \"#utility.yul\":1015:1154   */\n      swap3\n      swap2\n      pop\n      pop\n      jump\t// out\n        /* \"#utility.yul\":1160:1511   */\n    tag_229:\n        /* \"#utility.yul\":1230:1236   */\n      0x00\n        /* \"#utility.yul\":1279:1281   */\n      0x20\n        /* \"#utility.yul\":1267:1276   */\n      dup3\n        /* \"#utility.yul\":1258:1265   */\n      dup5\n        /* \"#utility.yul\":1254:1277   */\n      sub\n        /* \"#utility.yul\":1250:1282   */\n      slt\n        /* \"#utility.yul\":1247:1366   */\n      iszero\n      tag_442\n      jumpi\n        /* \"#utility.yul\":1285:1364   */\n      tag_443\n      tag_444\n      jump\t// in\n    tag_443:\n        /* \"#utility.yul\":1247:1366   */\n    tag_442:\n        /* \"#utility.yul\":1405:1406   */\n      0x00\n        /* \"#utility.yul\":1430:1494   */\n      tag_445\n        /* \"#utility.yul\":1486:1493   */\n      dup5\n        /* \"#utility.yul\":1477:1483   */\n      dup3\n        /* \"#utility.yul\":1466:1475   */\n      dup6\n        /* \"#utility.yul\":1462:1484   */\n      add\n        /* \"#utility.yul\":1430:1494   */\n      tag_419\n      jump\t// in\n    tag_445:\n        /* \"#utility.yul\":1420:1494   */\n      swap2\n      pop\n        /* \"#utility.yul\":1376:1504   */\n      pop\n        /* \"#utility.yul\":1160:1511   */\n      swap3\n      swap2\n      pop\n      pop\n      jump\t// out\n        /* \"#utility.yul\":1517:2136   */\n    tag_30:\n        /* \"#utility.yul\":1594:1600   */\n      0x00\n        /* \"#utility.yul\":1602:1608   */\n      dup1\n        /* \"#utility.yul\":1610:1616   */\n      0x00\n        /* \"#utility.yul\":1659:1661   */\n      0x60\n        /* \"#utility.yul\":1647:1656   */\n      dup5\n        /* \"#utility.yul\":1638:1645   */\n      dup7\n        /* \"#utility.yul\":1634:1657   */\n      sub\n        /* \"#utility.yul\":1630:1662   */\n      slt\n        /* \"#utility.yul\":1627:1746   */\n      iszero\n      tag_447\n      jumpi\n        /* \"#utility.yul\":1665:1744   */\n      tag_448\n      tag_444\n      jump\t// in\n    tag_448:\n        /* \"#utility.yul\":1627:1746   */\n    tag_447:\n        /* \"#utility.yul\":1785:1786   */\n      0x00\n        /* \"#utility.yul\":1810:1863   */\n      tag_449\n        /* \"#utility.yul\":1855:1862   */\n      dup7\n        /* \"#utility.yul\":1846:1852   */\n      dup3\n        /* \"#utility.yul\":1835:1844   */\n      dup8\n        /* \"#utility.yul\":1831:1853   */\n      add\n        /* \"#utility.yul\":1810:1863   */\n      tag_415\n      jump\t// in\n    tag_449:\n        /* \"#utility.yul\":1800:1863   */\n      swap4\n      pop\n        /* \"#utility.yul\":1756:1873   */\n      pop\n        /* \"#utility.yul\":1912:1914   */\n      0x20\n        /* \"#utility.yul\":1938:1991   */\n      tag_450\n        /* \"#utility.yul\":1983:1990   */\n      dup7\n        /* \"#utility.yul\":1974:1980   */\n      dup3\n        /* \"#utility.yul\":1963:1972   */\n      dup8\n        /* \"#utility.yul\":1959:1981   */\n      add\n        /* \"#utility.yul\":1938:1991   */\n      tag_415\n      jump\t// in\n    tag_450:\n        /* \"#utility.yul\":1928:1991   */\n      swap3\n      pop\n        /* \"#utility.yul\":1883:2001   */\n      pop\n        /* \"#utility.yul\":2040:2042   */\n      0x40\n        /* \"#utility.yul\":2066:2119   */\n      tag_451\n        /* \"#utility.yul\":2111:2118   */\n      dup7\n        /* \"#utility.yul\":2102:2108   */\n      dup3\n        /* \"#utility.yul\":2091:2100   */\n      dup8\n        /* \"#utility.yul\":2087:2109   */\n      add\n        /* \"#utility.yul\":2066:2119   */\n      tag_437\n      jump\t// in\n    tag_451:\n        /* \"#utility.yul\":2056:2119   */\n      swap2\n      pop\n        /* \"#utility.yul\":2011:2129   */\n      pop\n        /* \"#utility.yul\":1517:2136   */\n      swap3\n      pop\n      swap3\n      pop\n      swap3\n      jump\t// out\n        /* \"#utility.yul\":2142:3105   */\n    tag_37:\n        /* \"#utility.yul\":2239:2245   */\n      0x00\n        /* \"#utility.yul\":2247:2253   */\n      dup1\n        /* \"#utility.yul\":2255:2261   */\n      0x00\n        /* \"#utility.yul\":2263:2269   */\n      dup1\n        /* \"#utility.yul\":2271:2277   */\n      0x00\n        /* \"#utility.yul\":2320:2323   */\n      0x80\n        /* \"#utility.yul\":2308:2317   */\n      dup7\n        /* \"#utility.yul\":2299:2306   */\n      dup9\n        /* \"#utility.yul\":2295:2318   */\n      sub\n        /* \"#utility.yul\":2291:2324   */\n      slt\n        /* \"#utility.yul\":2288:2408   */\n      iszero\n      tag_453\n      jumpi\n        /* \"#utility.yul\":2327:2406   */\n      tag_454\n      tag_444\n      jump\t// in\n    tag_454:\n        /* \"#utility.yul\":2288:2408   */\n    tag_453:\n        /* \"#utility.yul\":2447:2448   */\n      0x00\n        /* \"#utility.yul\":2472:2525   */\n      tag_455\n        /* \"#utility.yul\":2517:2524   */\n      dup9\n        /* \"#utility.yul\":2508:2514   */\n      dup3\n        /* \"#utility.yul\":2497:2506   */\n      dup10\n        /* \"#utility.yul\":2493:2515   */\n      add\n        /* \"#utility.yul\":2472:2525   */\n      tag_415\n      jump\t// in\n    tag_455:\n        /* \"#utility.yul\":2462:2525   */\n      swap6\n      pop\n        /* \"#utility.yul\":2418:2535   */\n      pop\n        /* \"#utility.yul\":2574:2576   */\n      0x20\n        /* \"#utility.yul\":2600:2653   */\n      tag_456\n        /* \"#utility.yul\":2645:2652   */\n      dup9\n        /* \"#utility.yul\":2636:2642   */\n      dup3\n        /* \"#utility.yul\":2625:2634   */\n      dup10\n        /* \"#utility.yul\":2621:2643   */\n      add\n        /* \"#utility.yul\":2600:2653   */\n      tag_415\n      jump\t// in\n    tag_456:\n        /* \"#utility.yul\":2590:2653   */\n      swap5\n      pop\n        /* \"#utility.yul\":2545:2663   */\n      pop\n        /* \"#utility.yul\":2702:2704   */\n      0x40\n        /* \"#utility.yul\":2728:2781   */\n      tag_457\n        /* \"#utility.yul\":2773:2780   */\n      dup9\n        /* \"#utility.yul\":2764:2770   */\n      dup3\n        /* \"#utility.yul\":2753:2762   */\n      dup10\n        /* \"#utility.yul\":2749:2771   */\n      add\n        /* \"#utility.yul\":2728:2781   */\n      tag_437\n      jump\t// in\n    tag_457:\n        /* \"#utility.yul\":2718:2781   */\n      swap4\n      pop\n        /* \"#utility.yul\":2673:2791   */\n      pop\n        /* \"#utility.yul\":2858:2860   */\n      0x60\n        /* \"#utility.yul\":2847:2856   */\n      dup7\n        /* \"#utility.yul\":2843:2861   */\n      add\n        /* \"#utility.yul\":2830:2862   */\n      calldataload\n        /* \"#utility.yul\":2889:2907   */\n      0xffffffffffffffff\n        /* \"#utility.yul\":2881:2887   */\n      dup2\n        /* \"#utility.yul\":2878:2908   */\n      gt\n        /* \"#utility.yul\":2875:2992   */\n      iszero\n      tag_458\n      jumpi\n        /* \"#utility.yul\":2911:2990   */\n      tag_459\n      tag_460\n      jump\t// in\n    tag_459:\n        /* \"#utility.yul\":2875:2992   */\n    tag_458:\n        /* \"#utility.yul\":3024:3088   */\n      tag_461\n        /* \"#utility.yul\":3080:3087   */\n      dup9\n        /* \"#utility.yul\":3071:3077   */\n      dup3\n        /* \"#utility.yul\":3060:3069   */\n      dup10\n        /* \"#utility.yul\":3056:3078   */\n      add\n        /* \"#utility.yul\":3024:3088   */\n      tag_426\n      jump\t// in\n    tag_461:\n        /* \"#utility.yul\":3006:3088   */\n      swap3\n      pop\n      swap3\n      pop\n        /* \"#utility.yul\":2801:3098   */\n      pop\n        /* \"#utility.yul\":2142:3105   */\n      swap3\n      swap6\n      pop\n      swap3\n      swap6\n      swap1\n      swap4\n      pop\n      jump\t// out\n        /* \"#utility.yul\":3111:3876   */\n    tag_75:\n        /* \"#utility.yul\":3197:3203   */\n      0x00\n        /* \"#utility.yul\":3205:3211   */\n      dup1\n        /* \"#utility.yul\":3213:3219   */\n      0x00\n        /* \"#utility.yul\":3221:3227   */\n      dup1\n        /* \"#utility.yul\":3270:3273   */\n      0x80\n        /* \"#utility.yul\":3258:3267   */\n      dup6\n        /* \"#utility.yul\":3249:3256   */\n      dup8\n        /* \"#utility.yul\":3245:3268   */\n      sub\n        /* \"#utility.yul\":3241:3274   */\n      slt\n        /* \"#utility.yul\":3238:3358   */\n      iszero\n      tag_463\n      jumpi\n        /* \"#utility.yul\":3277:3356   */\n      tag_464\n      tag_444\n      jump\t// in\n    tag_464:\n        /* \"#utility.yul\":3238:3358   */\n    tag_463:\n        /* \"#utility.yul\":3397:3398   */\n      0x00\n        /* \"#utility.yul\":3422:3475   */\n      tag_465\n        /* \"#utility.yul\":3467:3474   */\n      dup8\n        /* \"#utility.yul\":3458:3464   */\n      dup3\n        /* \"#utility.yul\":3447:3456   */\n      dup9\n        /* \"#utility.yul\":3443:3465   */\n      add\n        /* \"#utility.yul\":3422:3475   */\n      tag_415\n      jump\t// in\n    tag_465:\n        /* \"#utility.yul\":3412:3475   */\n      swap5\n      pop\n        /* \"#utility.yul\":3368:3485   */\n      pop\n        /* \"#utility.yul\":3524:3526   */\n      0x20\n        /* \"#utility.yul\":3550:3603   */\n      tag_466\n        /* \"#utility.yul\":3595:3602   */\n      dup8\n        /* \"#utility.yul\":3586:3592   */\n      dup3\n        /* \"#utility.yul\":3575:3584   */\n      dup9\n        /* \"#utility.yul\":3571:3593   */\n      add\n        /* \"#utility.yul\":3550:3603   */\n      tag_415\n      jump\t// in\n    tag_466:\n        /* \"#utility.yul\":3540:3603   */\n      swap4\n      pop\n        /* \"#utility.yul\":3495:3613   */\n      pop\n        /* \"#utility.yul\":3652:3654   */\n      0x40\n        /* \"#utility.yul\":3678:3731   */\n      tag_467\n        /* \"#utility.yul\":3723:3730   */\n      dup8\n        /* \"#utility.yul\":3714:3720   */\n      dup3\n        /* \"#utility.yul\":3703:3712   */\n      dup9\n        /* \"#utility.yul\":3699:3721   */\n      add\n        /* \"#utility.yul\":3678:3731   */\n      tag_437\n      jump\t// in\n    tag_467:\n        /* \"#utility.yul\":3668:3731   */\n      swap3\n      pop\n        /* \"#utility.yul\":3623:3741   */\n      pop\n        /* \"#utility.yul\":3780:3782   */\n      0x60\n        /* \"#utility.yul\":3806:3859   */\n      tag_468\n        /* \"#utility.yul\":3851:3858   */\n      dup8\n        /* \"#utility.yul\":3842:3848   */\n      dup3\n        /* \"#utility.yul\":3831:3840   */\n      dup9\n        /* \"#utility.yul\":3827:3849   */\n      add\n        /* \"#utility.yul\":3806:3859   */\n      tag_437\n      jump\t// in\n    tag_468:\n        /* \"#utility.yul\":3796:3859   */\n      swap2\n      pop\n        /* \"#utility.yul\":3751:3869   */\n      pop\n        /* \"#utility.yul\":3111:3876   */\n      swap3\n      swap6\n      swap2\n      swap5\n      pop\n      swap3\n      pop\n      jump\t// out\n        /* \"#utility.yul\":3882:4939   */\n    tag_114:\n        /* \"#utility.yul\":3986:3992   */\n      0x00\n        /* \"#utility.yul\":3994:4000   */\n      dup1\n        /* \"#utility.yul\":4002:4008   */\n      0x00\n        /* \"#utility.yul\":4010:4016   */\n      dup1\n        /* \"#utility.yul\":4018:4024   */\n      0x00\n        /* \"#utility.yul\":4026:4032   */\n      dup1\n        /* \"#utility.yul\":4075:4078   */\n      0xc0\n        /* \"#utility.yul\":4063:4072   */\n      dup8\n        /* \"#utility.yul\":4054:4061   */\n      dup10\n        /* \"#utility.yul\":4050:4073   */\n      sub\n        /* \"#utility.yul\":4046:4079   */\n      slt\n        /* \"#utility.yul\":4043:4163   */\n      iszero\n      tag_470\n      jumpi\n        /* \"#utility.yul\":4082:4161   */\n      tag_471\n      tag_444\n      jump\t// in\n    tag_471:\n        /* \"#utility.yul\":4043:4163   */\n    tag_470:\n        /* \"#utility.yul\":4202:4203   */\n      0x00\n        /* \"#utility.yul\":4227:4280   */\n      tag_472\n        /* \"#utility.yul\":4272:4279   */\n      dup10\n        /* \"#utility.yul\":4263:4269   */\n      dup3\n        /* \"#utility.yul\":4252:4261   */\n      dup11\n        /* \"#utility.yul\":4248:4270   */\n      add\n        /* \"#utility.yul\":4227:4280   */\n      tag_415\n      jump\t// in\n    tag_472:\n        /* \"#utility.yul\":4217:4280   */\n      swap7\n      pop\n        /* \"#utility.yul\":4173:4290   */\n      pop\n        /* \"#utility.yul\":4329:4331   */\n      0x20\n        /* \"#utility.yul\":4355:4408   */\n      tag_473\n        /* \"#utility.yul\":4400:4407   */\n      dup10\n        /* \"#utility.yul\":4391:4397   */\n      dup3\n        /* \"#utility.yul\":4380:4389   */\n      dup11\n        /* \"#utility.yul\":4376:4398   */\n      add\n        /* \"#utility.yul\":4355:4408   */\n      tag_415\n      jump\t// in\n    tag_473:\n        /* \"#utility.yul\":4345:4408   */\n      swap6\n      pop\n        /* \"#utility.yul\":4300:4418   */\n      pop\n        /* \"#utility.yul\":4457:4459   */\n      0x40\n        /* \"#utility.yul\":4483:4536   */\n      tag_474\n        /* \"#utility.yul\":4528:4535   */\n      dup10\n        /* \"#utility.yul\":4519:4525   */\n      dup3\n        /* \"#utility.yul\":4508:4517   */\n      dup11\n        /* \"#utility.yul\":4504:4526   */\n      add\n        /* \"#utility.yul\":4483:4536   */\n      tag_437\n      jump\t// in\n    tag_474:\n        /* \"#utility.yul\":4473:4536   */\n      swap5\n      pop\n        /* \"#utility.yul\":4428:4546   */\n      pop\n        /* \"#utility.yul\":4585:4587   */\n      0x60\n        /* \"#utility.yul\":4611:4664   */\n      tag_475\n        /* \"#utility.yul\":4656:4663   */\n      dup10\n        /* \"#utility.yul\":4647:4653   */\n      dup3\n        /* \"#utility.yul\":4636:4645   */\n      dup11\n        /* \"#utility.yul\":4632:4654   */\n      add\n        /* \"#utility.yul\":4611:4664   */\n      tag_437\n      jump\t// in\n    tag_475:\n        /* \"#utility.yul\":4601:4664   */\n      swap4\n      pop\n        /* \"#utility.yul\":4556:4674   */\n      pop\n        /* \"#utility.yul\":4713:4716   */\n      0x80\n        /* \"#utility.yul\":4740:4793   */\n      tag_476\n        /* \"#utility.yul\":4785:4792   */\n      dup10\n        /* \"#utility.yul\":4776:4782   */\n      dup3\n        /* \"#utility.yul\":4765:4774   */\n      dup11\n        /* \"#utility.yul\":4761:4783   */\n      add\n        /* \"#utility.yul\":4740:4793   */\n      tag_437\n      jump\t// in\n    tag_476:\n        /* \"#utility.yul\":4730:4793   */\n      swap3\n      pop\n        /* \"#utility.yul\":4684:4803   */\n      pop\n        /* \"#utility.yul\":4842:4845   */\n      0xa0\n        /* \"#utility.yul\":4869:4922   */\n      tag_477\n        /* \"#utility.yul\":4914:4921   */\n      dup10\n        /* \"#utility.yul\":4905:4911   */\n      dup3\n        /* \"#utility.yul\":4894:4903   */\n      dup11\n        /* \"#utility.yul\":4890:4912   */\n      add\n        /* \"#utility.yul\":4869:4922   */\n      tag_437\n      jump\t// in\n    tag_477:\n        /* \"#utility.yul\":4859:4922   */\n      swap2\n      pop\n        /* \"#utility.yul\":4813:4932   */\n      pop\n        /* \"#utility.yul\":3882:4939   */\n      swap3\n      swap6\n      pop\n      swap3\n      swap6\n      pop\n      swap3\n      swap6\n      jump\t// out\n        /* \"#utility.yul\":4945:5419   */\n    tag_60:\n        /* \"#utility.yul\":5013:5019   */\n      0x00\n        /* \"#utility.yul\":5021:5027   */\n      dup1\n        /* \"#utility.yul\":5070:5072   */\n      0x40\n        /* \"#utility.yul\":5058:5067   */\n      dup4\n        /* \"#utility.yul\":5049:5056   */\n      dup6\n        /* \"#utility.yul\":5045:5068   */\n      sub\n        /* \"#utility.yul\":5041:5073   */\n      slt\n        /* \"#utility.yul\":5038:5157   */\n      iszero\n      tag_479\n      jumpi\n        /* \"#utility.yul\":5076:5155   */\n      tag_480\n      tag_444\n      jump\t// in\n    tag_480:\n        /* \"#utility.yul\":5038:5157   */\n    tag_479:\n        /* \"#utility.yul\":5196:5197   */\n      0x00\n        /* \"#utility.yul\":5221:5274   */\n      tag_481\n        /* \"#utility.yul\":5266:5273   */\n      dup6\n        /* \"#utility.yul\":5257:5263   */\n      dup3\n        /* \"#utility.yul\":5246:5255   */\n      dup7\n        /* \"#utility.yul\":5242:5264   */\n      add\n        /* \"#utility.yul\":5221:5274   */\n      tag_415\n      jump\t// in\n    tag_481:\n        /* \"#utility.yul\":5211:5274   */\n      swap3\n      pop\n        /* \"#utility.yul\":5167:5284   */\n      pop\n        /* \"#utility.yul\":5323:5325   */\n      0x20\n        /* \"#utility.yul\":5349:5402   */\n      tag_482\n        /* \"#utility.yul\":5394:5401   */\n      dup6\n        /* \"#utility.yul\":5385:5391   */\n      dup3\n        /* \"#utility.yul\":5374:5383   */\n      dup7\n        /* \"#utility.yul\":5370:5392   */\n      add\n        /* \"#utility.yul\":5349:5402   */\n      tag_437\n      jump\t// in\n    tag_482:\n        /* \"#utility.yul\":5339:5402   */\n      swap2\n      pop\n        /* \"#utility.yul\":5294:5412   */\n      pop\n        /* \"#utility.yul\":4945:5419   */\n      swap3\n      pop\n      swap3\n      swap1\n      pop\n      jump\t// out\n        /* \"#utility.yul\":5425:6044   */\n    tag_86:\n        /* \"#utility.yul\":5502:5508   */\n      0x00\n        /* \"#utility.yul\":5510:5516   */\n      dup1\n        /* \"#utility.yul\":5518:5524   */\n      0x00\n        /* \"#utility.yul\":5567:5569   */\n      0x60\n        /* \"#utility.yul\":5555:5564   */\n      dup5\n        /* \"#utility.yul\":5546:5553   */\n      dup7\n        /* \"#utility.yul\":5542:5565   */\n      sub\n        /* \"#utility.yul\":5538:5570   */\n      slt\n        /* \"#utility.yul\":5535:5654   */\n      iszero\n      tag_484\n      jumpi\n        /* \"#utility.yul\":5573:5652   */\n      tag_485\n      tag_444\n      jump\t// in\n    tag_485:\n        /* \"#utility.yul\":5535:5654   */\n    tag_484:\n        /* \"#utility.yul\":5693:5694   */\n      0x00\n        /* \"#utility.yul\":5718:5771   */\n      tag_486\n        /* \"#utility.yul\":5763:5770   */\n      dup7\n        /* \"#utility.yul\":5754:5760   */\n      dup3\n        /* \"#utility.yul\":5743:5752   */\n      dup8\n        /* \"#utility.yul\":5739:5761   */\n      add\n        /* \"#utility.yul\":5718:5771   */\n      tag_415\n      jump\t// in\n    tag_486:\n        /* \"#utility.yul\":5708:5771   */\n      swap4\n      pop\n        /* \"#utility.yul\":5664:5781   */\n      pop\n        /* \"#utility.yul\":5820:5822   */\n      0x20\n        /* \"#utility.yul\":5846:5899   */\n      tag_487\n        /* \"#utility.yul\":5891:5898   */\n      dup7\n        /* \"#utility.yul\":5882:5888   */\n      dup3\n        /* \"#utility.yul\":5871:5880   */\n      dup8\n        /* \"#utility.yul\":5867:5889   */\n      add\n        /* \"#utility.yul\":5846:5899   */\n      tag_437\n      jump\t// in\n    tag_487:\n        /* \"#utility.yul\":5836:5899   */\n      swap3\n      pop\n        /* \"#utility.yul\":5791:5909   */\n      pop\n        /* \"#utility.yul\":5948:5950   */\n      0x40\n        /* \"#utility.yul\":5974:6027   */\n      tag_488\n        /* \"#utility.yul\":6019:6026   */\n      dup7\n        /* \"#utility.yul\":6010:6016   */\n      dup3\n        /* \"#utility.yul\":5999:6008   */\n      dup8\n        /* \"#utility.yul\":5995:6017   */\n      add\n        /* \"#utility.yul\":5974:6027   */\n      tag_415\n      jump\t// in\n    tag_488:\n        /* \"#utility.yul\":5964:6027   */\n      swap2\n      pop\n        /* \"#utility.yul\":5919:6037   */\n      pop\n        /* \"#utility.yul\":5425:6044   */\n      swap3\n      pop\n      swap3\n      pop\n      swap3\n      jump\t// out\n        /* \"#utility.yul\":6050:6669   */\n    tag_43:\n        /* \"#utility.yul\":6127:6133   */\n      0x00\n        /* \"#utility.yul\":6135:6141   */\n      dup1\n        /* \"#utility.yul\":6143:6149   */\n      0x00\n        /* \"#utility.yul\":6192:6194   */\n      0x60\n        /* \"#utility.yul\":6180:6189   */\n      dup5\n        /* \"#utility.yul\":6171:6178   */\n      dup7\n        /* \"#utility.yul\":6167:6190   */\n      sub\n        /* \"#utility.yul\":6163:6195   */\n      slt\n        /* \"#utility.yul\":6160:6279   */\n      iszero\n      tag_490\n      jumpi\n        /* \"#utility.yul\":6198:6277   */\n      tag_491\n      tag_444\n      jump\t// in\n    tag_491:\n        /* \"#utility.yul\":6160:6279   */\n    tag_490:\n        /* \"#utility.yul\":6318:6319   */\n      0x00\n        /* \"#utility.yul\":6343:6396   */\n      tag_492\n        /* \"#utility.yul\":6388:6395   */\n      dup7\n        /* \"#utility.yul\":6379:6385   */\n      dup3\n        /* \"#utility.yul\":6368:6377   */\n      dup8\n        /* \"#utility.yul\":6364:6386   */\n      add\n        /* \"#utility.yul\":6343:6396   */\n      tag_415\n      jump\t// in\n    tag_492:\n        /* \"#utility.yul\":6333:6396   */\n      swap4\n      pop\n        /* \"#utility.yul\":6289:6406   */\n      pop\n        /* \"#utility.yul\":6445:6447   */\n      0x20\n        /* \"#utility.yul\":6471:6524   */\n      tag_493\n        /* \"#utility.yul\":6516:6523   */\n      dup7\n        /* \"#utility.yul\":6507:6513   */\n      dup3\n        /* \"#utility.yul\":6496:6505   */\n      dup8\n        /* \"#utility.yul\":6492:6514   */\n      add\n        /* \"#utility.yul\":6471:6524   */\n      tag_437\n      jump\t// in\n    tag_493:\n        /* \"#utility.yul\":6461:6524   */\n      swap3\n      pop\n        /* \"#utility.yul\":6416:6534   */\n      pop\n        /* \"#utility.yul\":6573:6575   */\n      0x40\n        /* \"#utility.yul\":6599:6652   */\n      tag_494\n        /* \"#utility.yul\":6644:6651   */\n      dup7\n        /* \"#utility.yul\":6635:6641   */\n      dup3\n        /* \"#utility.yul\":6624:6633   */\n      dup8\n        /* \"#utility.yul\":6620:6642   */\n      add\n        /* \"#utility.yul\":6599:6652   */\n      tag_437\n      jump\t// in\n    tag_494:\n        /* \"#utility.yul\":6589:6652   */\n      swap2\n      pop\n        /* \"#utility.yul\":6544:6662   */\n      pop\n        /* \"#utility.yul\":6050:6669   */\n      swap3\n      pop\n      swap3\n      pop\n      swap3\n      jump\t// out\n        /* \"#utility.yul\":6675:7020   */\n    tag_127:\n        /* \"#utility.yul\":6742:6748   */\n      0x00\n        /* \"#utility.yul\":6791:6793   */\n      0x20\n        /* \"#utility.yul\":6779:6788   */\n      dup3\n        /* \"#utility.yul\":6770:6777   */\n      dup5\n        /* \"#utility.yul\":6766:6789   */\n      sub\n        /* \"#utility.yul\":6762:6794   */\n      slt\n        /* \"#utility.yul\":6759:6878   */\n      iszero\n      tag_496\n      jumpi\n        /* \"#utility.yul\":6797:6876   */\n      tag_497\n      tag_444\n      jump\t// in\n    tag_497:\n        /* \"#utility.yul\":6759:6878   */\n    tag_496:\n        /* \"#utility.yul\":6917:6918   */\n      0x00\n        /* \"#utility.yul\":6942:7003   */\n      tag_498\n        /* \"#utility.yul\":6995:7002   */\n      dup5\n        /* \"#utility.yul\":6986:6992   */\n      dup3\n        /* \"#utility.yul\":6975:6984   */\n      dup6\n        /* \"#utility.yul\":6971:6993   */\n      add\n        /* \"#utility.yul\":6942:7003   */\n      tag_422\n      jump\t// in\n    tag_498:\n        /* \"#utility.yul\":6932:7003   */\n      swap2\n      pop\n        /* \"#utility.yul\":6888:7013   */\n      pop\n        /* \"#utility.yul\":6675:7020   */\n      swap3\n      swap2\n      pop\n      pop\n      jump\t// out\n        /* \"#utility.yul\":7026:7305   */\n    tag_499:\n        /* \"#utility.yul\":7145:7155   */\n      0x00\n        /* \"#utility.yul\":7166:7262   */\n      tag_501\n        /* \"#utility.yul\":7258:7261   */\n      dup4\n        /* \"#utility.yul\":7250:7256   */\n      dup4\n        /* \"#utility.yul\":7166:7262   */\n      tag_502\n      jump\t// in\n    tag_501:\n        /* \"#utility.yul\":7294:7298   */\n      0x40\n        /* \"#utility.yul\":7289:7292   */\n      dup4\n        /* \"#utility.yul\":7285:7299   */\n      add\n        /* \"#utility.yul\":7271:7299   */\n      swap1\n      pop\n        /* \"#utility.yul\":7026:7305   */\n      swap3\n      swap2\n      pop\n      pop\n      jump\t// out\n        /* \"#utility.yul\":7311:7419   */\n    tag_503:\n        /* \"#utility.yul\":7388:7412   */\n      tag_505\n        /* \"#utility.yul\":7406:7411   */\n      dup2\n        /* \"#utility.yul\":7388:7412   */\n      tag_506\n      jump\t// in\n    tag_505:\n        /* \"#utility.yul\":7383:7386   */\n      dup3\n        /* \"#utility.yul\":7376:7413   */\n      mstore\n        /* \"#utility.yul\":7311:7419   */\n      pop\n      pop\n      jump\t// out\n        /* \"#utility.yul\":7425:7543   */\n    tag_507:\n        /* \"#utility.yul\":7512:7536   */\n      tag_509\n        /* \"#utility.yul\":7530:7535   */\n      dup2\n        /* \"#utility.yul\":7512:7536   */\n      tag_506\n      jump\t// in\n    tag_509:\n        /* \"#utility.yul\":7507:7510   */\n      dup3\n        /* \"#utility.yul\":7500:7537   */\n      mstore\n        /* \"#utility.yul\":7425:7543   */\n      pop\n      pop\n      jump\t// out\n        /* \"#utility.yul\":7637:8569   */\n    tag_510:\n        /* \"#utility.yul\":7806:7809   */\n      0x00\n        /* \"#utility.yul\":7835:7914   */\n      tag_512\n        /* \"#utility.yul\":7908:7913   */\n      dup3\n        /* \"#utility.yul\":7835:7914   */\n      tag_513\n      jump\t// in\n    tag_512:\n        /* \"#utility.yul\":7930:8041   */\n      tag_514\n        /* \"#utility.yul\":8034:8040   */\n      dup2\n        /* \"#utility.yul\":8029:8032   */\n      dup6\n        /* \"#utility.yul\":7930:8041   */\n      tag_515\n      jump\t// in\n    tag_514:\n        /* \"#utility.yul\":7923:8041   */\n      swap4\n      pop\n        /* \"#utility.yul\":8065:8146   */\n      tag_516\n        /* \"#utility.yul\":8140:8145   */\n      dup4\n        /* \"#utility.yul\":8065:8146   */\n      tag_517\n      jump\t// in\n    tag_516:\n        /* \"#utility.yul\":8169:8176   */\n      dup1\n        /* \"#utility.yul\":8200:8201   */\n      0x00\n        /* \"#utility.yul\":8185:8544   */\n    tag_518:\n        /* \"#utility.yul\":8210:8216   */\n      dup4\n        /* \"#utility.yul\":8207:8208   */\n      dup2\n        /* \"#utility.yul\":8204:8217   */\n      lt\n        /* \"#utility.yul\":8185:8544   */\n      iszero\n      tag_520\n      jumpi\n        /* \"#utility.yul\":8286:8292   */\n      dup2\n        /* \"#utility.yul\":8280:8293   */\n      mload\n        /* \"#utility.yul\":8313:8426   */\n      tag_521\n        /* \"#utility.yul\":8422:8425   */\n      dup9\n        /* \"#utility.yul\":8407:8420   */\n      dup3\n        /* \"#utility.yul\":8313:8426   */\n      tag_499\n      jump\t// in\n    tag_521:\n        /* \"#utility.yul\":8306:8426   */\n      swap8\n      pop\n        /* \"#utility.yul\":8449:8534   */\n      tag_522\n        /* \"#utility.yul\":8527:8533   */\n      dup4\n        /* \"#utility.yul\":8449:8534   */\n      tag_523\n      jump\t// in\n    tag_522:\n        /* \"#utility.yul\":8439:8534   */\n      swap3\n      pop\n        /* \"#utility.yul\":8245:8544   */\n      pop\n        /* \"#utility.yul\":8232:8233   */\n      0x01\n        /* \"#utility.yul\":8229:8230   */\n      dup2\n        /* \"#utility.yul\":8225:8234   */\n      add\n        /* \"#utility.yul\":8220:8234   */\n      swap1\n      pop\n        /* \"#utility.yul\":8185:8544   */\n      jump(tag_518)\n    tag_520:\n        /* \"#utility.yul\":8189:8203   */\n      pop\n        /* \"#utility.yul\":8560:8563   */\n      dup6\n        /* \"#utility.yul\":8553:8563   */\n      swap4\n      pop\n        /* \"#utility.yul\":7811:8569   */\n      pop\n      pop\n      pop\n        /* \"#utility.yul\":7637:8569   */\n      swap3\n      swap2\n      pop\n      pop\n      jump\t// out\n        /* \"#utility.yul\":8575:8684   */\n    tag_524:\n        /* \"#utility.yul\":8656:8677   */\n      tag_526\n        /* \"#utility.yul\":8671:8676   */\n      dup2\n        /* \"#utility.yul\":8656:8677   */\n      tag_527\n      jump\t// in\n    tag_526:\n        /* \"#utility.yul\":8651:8654   */\n      dup3\n        /* \"#utility.yul\":8644:8678   */\n      mstore\n        /* \"#utility.yul\":8575:8684   */\n      pop\n      pop\n      jump\t// out\n        /* \"#utility.yul\":8690:8805   */\n    tag_528:\n        /* \"#utility.yul\":8775:8798   */\n      tag_530\n        /* \"#utility.yul\":8792:8797   */\n      dup2\n        /* \"#utility.yul\":8775:8798   */\n      tag_531\n      jump\t// in\n    tag_530:\n        /* \"#utility.yul\":8770:8773   */\n      dup3\n        /* \"#utility.yul\":8763:8799   */\n      mstore\n        /* \"#utility.yul\":8690:8805   */\n      pop\n      pop\n      jump\t// out\n        /* \"#utility.yul\":8811:9177   */\n    tag_532:\n        /* \"#utility.yul\":8953:8956   */\n      0x00\n        /* \"#utility.yul\":8974:9041   */\n      tag_534\n        /* \"#utility.yul\":9038:9040   */\n      0x16\n        /* \"#utility.yul\":9033:9036   */\n      dup4\n        /* \"#utility.yul\":8974:9041   */\n      tag_535\n      jump\t// in\n    tag_534:\n        /* \"#utility.yul\":8967:9041   */\n      swap2\n      pop\n        /* \"#utility.yul\":9050:9143   */\n      tag_536\n        /* \"#utility.yul\":9139:9142   */\n      dup3\n        /* \"#utility.yul\":9050:9143   */\n      tag_537\n      jump\t// in\n    tag_536:\n        /* \"#utility.yul\":9168:9170   */\n      0x20\n        /* \"#utility.yul\":9163:9166   */\n      dup3\n        /* \"#utility.yul\":9159:9171   */\n      add\n        /* \"#utility.yul\":9152:9171   */\n      swap1\n      pop\n        /* \"#utility.yul\":8811:9177   */\n      swap2\n      swap1\n      pop\n      jump\t// out\n        /* \"#utility.yul\":9183:9549   */\n    tag_538:\n        /* \"#utility.yul\":9325:9328   */\n      0x00\n        /* \"#utility.yul\":9346:9413   */\n      tag_540\n        /* \"#utility.yul\":9410:9412   */\n      0x1c\n        /* \"#utility.yul\":9405:9408   */\n      dup4\n        /* \"#utility.yul\":9346:9413   */\n      tag_535\n      jump\t// in\n    tag_540:\n        /* \"#utility.yul\":9339:9413   */\n      swap2\n      pop\n        /* \"#utility.yul\":9422:9515   */\n      tag_541\n        /* \"#utility.yul\":9511:9514   */\n      dup3\n        /* \"#utility.yul\":9422:9515   */\n      tag_542\n      jump\t// in\n    tag_541:\n        /* \"#utility.yul\":9540:9542   */\n      0x20\n        /* \"#utility.yul\":9535:9538   */\n      dup3\n        /* \"#utility.yul\":9531:9543   */\n      add\n        /* \"#utility.yul\":9524:9543   */\n      swap1\n      pop\n        /* \"#utility.yul\":9183:9549   */\n      swap2\n      swap1\n      pop\n      jump\t// out\n        /* \"#utility.yul\":9555:9921   */\n    tag_543:\n        /* \"#utility.yul\":9697:9700   */\n      0x00\n        /* \"#utility.yul\":9718:9785   */\n      tag_545\n        /* \"#utility.yul\":9782:9784   */\n      0x11\n        /* \"#utility.yul\":9777:9780   */\n      dup4\n        /* \"#utility.yul\":9718:9785   */\n      tag_535\n      jump\t// in\n    tag_545:\n        /* \"#utility.yul\":9711:9785   */\n      swap2\n      pop\n        /* \"#utility.yul\":9794:9887   */\n      tag_546\n        /* \"#utility.yul\":9883:9886   */\n      dup3\n        /* \"#utility.yul\":9794:9887   */\n      tag_547\n      jump\t// in\n    tag_546:\n        /* \"#utility.yul\":9912:9914   */\n      0x20\n        /* \"#utility.yul\":9907:9910   */\n      dup3\n        /* \"#utility.yul\":9903:9915   */\n      add\n        /* \"#utility.yul\":9896:9915   */\n      swap1\n      pop\n        /* \"#utility.yul\":9555:9921   */\n      swap2\n      swap1\n      pop\n      jump\t// out\n        /* \"#utility.yul\":9927:10293   */\n    tag_548:\n        /* \"#utility.yul\":10069:10072   */\n      0x00\n        /* \"#utility.yul\":10090:10157   */\n      tag_550\n        /* \"#utility.yul\":10154:10156   */\n      0x0d\n        /* \"#utility.yul\":10149:10152   */\n      dup4\n        /* \"#utility.yul\":10090:10157   */\n      tag_535\n      jump\t// in\n    tag_550:\n        /* \"#utility.yul\":10083:10157   */\n      swap2\n      pop\n        /* \"#utility.yul\":10166:10259   */\n      tag_551\n        /* \"#utility.yul\":10255:10258   */\n      dup3\n        /* \"#utility.yul\":10166:10259   */\n      tag_552\n      jump\t// in\n    tag_551:\n        /* \"#utility.yul\":10284:10286   */\n      0x20\n        /* \"#utility.yul\":10279:10282   */\n      dup3\n        /* \"#utility.yul\":10275:10287   */\n      add\n        /* \"#utility.yul\":10268:10287   */\n      swap1\n      pop\n        /* \"#utility.yul\":9927:10293   */\n      swap2\n      swap1\n      pop\n      jump\t// out\n        /* \"#utility.yul\":10299:10665   */\n    tag_553:\n        /* \"#utility.yul\":10441:10444   */\n      0x00\n        /* \"#utility.yul\":10462:10529   */\n      tag_555\n        /* \"#utility.yul\":10526:10528   */\n      0x15\n        /* \"#utility.yul\":10521:10524   */\n      dup4\n        /* \"#utility.yul\":10462:10529   */\n      tag_535\n      jump\t// in\n    tag_555:\n        /* \"#utility.yul\":10455:10529   */\n      swap2\n      pop\n        /* \"#utility.yul\":10538:10631   */\n      tag_556\n        /* \"#utility.yul\":10627:10630   */\n      dup3\n        /* \"#utility.yul\":10538:10631   */\n      tag_557\n      jump\t// in\n    tag_556:\n        /* \"#utility.yul\":10656:10658   */\n      0x20\n        /* \"#utility.yul\":10651:10654   */\n      dup3\n        /* \"#utility.yul\":10647:10659   */\n      add\n        /* \"#utility.yul\":10640:10659   */\n      swap1\n      pop\n        /* \"#utility.yul\":10299:10665   */\n      swap2\n      swap1\n      pop\n      jump\t// out\n        /* \"#utility.yul\":10671:11037   */\n    tag_558:\n        /* \"#utility.yul\":10813:10816   */\n      0x00\n        /* \"#utility.yul\":10834:10901   */\n      tag_560\n        /* \"#utility.yul\":10898:10900   */\n      0x17\n        /* \"#utility.yul\":10893:10896   */\n      dup4\n        /* \"#utility.yul\":10834:10901   */\n      tag_535\n      jump\t// in\n    tag_560:\n        /* \"#utility.yul\":10827:10901   */\n      swap2\n      pop\n        /* \"#utility.yul\":10910:11003   */\n      tag_561\n        /* \"#utility.yul\":10999:11002   */\n      dup3\n        /* \"#utility.yul\":10910:11003   */\n      tag_562\n      jump\t// in\n    tag_561:\n        /* \"#utility.yul\":11028:11030   */\n      0x20\n        /* \"#utility.yul\":11023:11026   */\n      dup3\n        /* \"#utility.yul\":11019:11031   */\n      add\n        /* \"#utility.yul\":11012:11031   */\n      swap1\n      pop\n        /* \"#utility.yul\":10671:11037   */\n      swap2\n      swap1\n      pop\n      jump\t// out\n        /* \"#utility.yul\":11043:11409   */\n    tag_563:\n        /* \"#utility.yul\":11185:11188   */\n      0x00\n        /* \"#utility.yul\":11206:11273   */\n      tag_565\n        /* \"#utility.yul\":11270:11272   */\n      0x1d\n        /* \"#utility.yul\":11265:11268   */\n      dup4\n        /* \"#utility.yul\":11206:11273   */\n      tag_535\n      jump\t// in\n    tag_565:\n        /* \"#utility.yul\":11199:11273   */\n      swap2\n      pop\n        /* \"#utility.yul\":11282:11375   */\n      tag_566\n        /* \"#utility.yul\":11371:11374   */\n      dup3\n        /* \"#utility.yul\":11282:11375   */\n      tag_567\n      jump\t// in\n    tag_566:\n        /* \"#utility.yul\":11400:11402   */\n      0x20\n        /* \"#utility.yul\":11395:11398   */\n      dup3\n        /* \"#utility.yul\":11391:11403   */\n      add\n        /* \"#utility.yul\":11384:11403   */\n      swap1\n      pop\n        /* \"#utility.yul\":11043:11409   */\n      swap2\n      swap1\n      pop\n      jump\t// out\n        /* \"#utility.yul\":11415:11781   */\n    tag_568:\n        /* \"#utility.yul\":11557:11560   */\n      0x00\n        /* \"#utility.yul\":11578:11645   */\n      tag_570\n        /* \"#utility.yul\":11642:11644   */\n      0x0b\n        /* \"#utility.yul\":11637:11640   */\n      dup4\n        /* \"#utility.yul\":11578:11645   */\n      tag_535\n      jump\t// in\n    tag_570:\n        /* \"#utility.yul\":11571:11645   */\n      swap2\n      pop\n        /* \"#utility.yul\":11654:11747   */\n      tag_571\n        /* \"#utility.yul\":11743:11746   */\n      dup3\n        /* \"#utility.yul\":11654:11747   */\n      tag_572\n      jump\t// in\n    tag_571:\n        /* \"#utility.yul\":11772:11774   */\n      0x20\n        /* \"#utility.yul\":11767:11770   */\n      dup3\n        /* \"#utility.yul\":11763:11775   */\n      add\n        /* \"#utility.yul\":11756:11775   */\n      swap1\n      pop\n        /* \"#utility.yul\":11415:11781   */\n      swap2\n      swap1\n      pop\n      jump\t// out\n        /* \"#utility.yul\":11787:12153   */\n    tag_573:\n        /* \"#utility.yul\":11929:11932   */\n      0x00\n        /* \"#utility.yul\":11950:12017   */\n      tag_575\n        /* \"#utility.yul\":12014:12016   */\n      0x13\n        /* \"#utility.yul\":12009:12012   */\n      dup4\n        /* \"#utility.yul\":11950:12017   */\n      tag_535\n      jump\t// in\n    tag_575:\n        /* \"#utility.yul\":11943:12017   */\n      swap2\n      pop\n        /* \"#utility.yul\":12026:12119   */\n      tag_576\n        /* \"#utility.yul\":12115:12118   */\n      dup3\n        /* \"#utility.yul\":12026:12119   */\n      tag_577\n      jump\t// in\n    tag_576:\n        /* \"#utility.yul\":12144:12146   */\n      0x20\n        /* \"#utility.yul\":12139:12142   */\n      dup3\n        /* \"#utility.yul\":12135:12147   */\n      add\n        /* \"#utility.yul\":12128:12147   */\n      swap1\n      pop\n        /* \"#utility.yul\":11787:12153   */\n      swap2\n      swap1\n      pop\n      jump\t// out\n        /* \"#utility.yul\":12159:12524   */\n    tag_578:\n        /* \"#utility.yul\":12301:12304   */\n      0x00\n        /* \"#utility.yul\":12322:12388   */\n      tag_580\n        /* \"#utility.yul\":12386:12387   */\n      0x08\n        /* \"#utility.yul\":12381:12384   */\n      dup4\n        /* \"#utility.yul\":12322:12388   */\n      tag_535\n      jump\t// in\n    tag_580:\n        /* \"#utility.yul\":12315:12388   */\n      swap2\n      pop\n        /* \"#utility.yul\":12397:12490   */\n      tag_581\n        /* \"#utility.yul\":12486:12489   */\n      dup3\n        /* \"#utility.yul\":12397:12490   */\n      tag_582\n      jump\t// in\n    tag_581:\n        /* \"#utility.yul\":12515:12517   */\n      0x20\n        /* \"#utility.yul\":12510:12513   */\n      dup3\n        /* \"#utility.yul\":12506:12518   */\n      add\n        /* \"#utility.yul\":12499:12518   */\n      swap1\n      pop\n        /* \"#utility.yul\":12159:12524   */\n      swap2\n      swap1\n      pop\n      jump\t// out\n        /* \"#utility.yul\":12530:12896   */\n    tag_583:\n        /* \"#utility.yul\":12672:12675   */\n      0x00\n        /* \"#utility.yul\":12693:12760   */\n      tag_585\n        /* \"#utility.yul\":12757:12759   */\n      0x14\n        /* \"#utility.yul\":12752:12755   */\n      dup4\n        /* \"#utility.yul\":12693:12760   */\n      tag_535\n      jump\t// in\n    tag_585:\n        /* \"#utility.yul\":12686:12760   */\n      swap2\n      pop\n        /* \"#utility.yul\":12769:12862   */\n      tag_586\n        /* \"#utility.yul\":12858:12861   */\n      dup3\n        /* \"#utility.yul\":12769:12862   */\n      tag_587\n      jump\t// in\n    tag_586:\n        /* \"#utility.yul\":12887:12889   */\n      0x20\n        /* \"#utility.yul\":12882:12885   */\n      dup3\n        /* \"#utility.yul\":12878:12890   */\n      add\n        /* \"#utility.yul\":12871:12890   */\n      swap1\n      pop\n        /* \"#utility.yul\":12530:12896   */\n      swap2\n      swap1\n      pop\n      jump\t// out\n        /* \"#utility.yul\":12902:13268   */\n    tag_588:\n        /* \"#utility.yul\":13044:13047   */\n      0x00\n        /* \"#utility.yul\":13065:13132   */\n      tag_590\n        /* \"#utility.yul\":13129:13131   */\n      0x0f\n        /* \"#utility.yul\":13124:13127   */\n      dup4\n        /* \"#utility.yul\":13065:13132   */\n      tag_535\n      jump\t// in\n    tag_590:\n        /* \"#utility.yul\":13058:13132   */\n      swap2\n      pop\n        /* \"#utility.yul\":13141:13234   */\n      tag_591\n        /* \"#utility.yul\":13230:13233   */\n      dup3\n        /* \"#utility.yul\":13141:13234   */\n      tag_592\n      jump\t// in\n    tag_591:\n        /* \"#utility.yul\":13259:13261   */\n      0x20\n        /* \"#utility.yul\":13254:13257   */\n      dup3\n        /* \"#utility.yul\":13250:13262   */\n      add\n        /* \"#utility.yul\":13243:13262   */\n      swap1\n      pop\n        /* \"#utility.yul\":12902:13268   */\n      swap2\n      swap1\n      pop\n      jump\t// out\n        /* \"#utility.yul\":13274:13640   */\n    tag_593:\n        /* \"#utility.yul\":13416:13419   */\n      0x00\n        /* \"#utility.yul\":13437:13504   */\n      tag_595\n        /* \"#utility.yul\":13501:13503   */\n      0x15\n        /* \"#utility.yul\":13496:13499   */\n      dup4\n        /* \"#utility.yul\":13437:13504   */\n      tag_535\n      jump\t// in\n    tag_595:\n        /* \"#utility.yul\":13430:13504   */\n      swap2\n      pop\n        /* \"#utility.yul\":13513:13606   */\n      tag_596\n        /* \"#utility.yul\":13602:13605   */\n      dup3\n        /* \"#utility.yul\":13513:13606   */\n      tag_597\n      jump\t// in\n    tag_596:\n        /* \"#utility.yul\":13631:13633   */\n      0x20\n        /* \"#utility.yul\":13626:13629   */\n      dup3\n        /* \"#utility.yul\":13622:13634   */\n      add\n        /* \"#utility.yul\":13615:13634   */\n      swap1\n      pop\n        /* \"#utility.yul\":13274:13640   */\n      swap2\n      swap1\n      pop\n      jump\t// out\n        /* \"#utility.yul\":13646:14044   */\n    tag_598:\n        /* \"#utility.yul\":13805:13808   */\n      0x00\n        /* \"#utility.yul\":13826:13909   */\n      tag_600\n        /* \"#utility.yul\":13907:13908   */\n      0x00\n        /* \"#utility.yul\":13902:13905   */\n      dup4\n        /* \"#utility.yul\":13826:13909   */\n      tag_601\n      jump\t// in\n    tag_600:\n        /* \"#utility.yul\":13819:13909   */\n      swap2\n      pop\n        /* \"#utility.yul\":13918:14011   */\n      tag_602\n        /* \"#utility.yul\":14007:14010   */\n      dup3\n        /* \"#utility.yul\":13918:14011   */\n      tag_603\n      jump\t// in\n    tag_602:\n        /* \"#utility.yul\":14036:14037   */\n      0x00\n        /* \"#utility.yul\":14031:14034   */\n      dup3\n        /* \"#utility.yul\":14027:14038   */\n      add\n        /* \"#utility.yul\":14020:14038   */\n      swap1\n      pop\n        /* \"#utility.yul\":13646:14044   */\n      swap2\n      swap1\n      pop\n      jump\t// out\n        /* \"#utility.yul\":14050:14416   */\n    tag_604:\n        /* \"#utility.yul\":14192:14195   */\n      0x00\n        /* \"#utility.yul\":14213:14280   */\n      tag_606\n        /* \"#utility.yul\":14277:14279   */\n      0x13\n        /* \"#utility.yul\":14272:14275   */\n      dup4\n        /* \"#utility.yul\":14213:14280   */\n      tag_535\n      jump\t// in\n    tag_606:\n        /* \"#utility.yul\":14206:14280   */\n      swap2\n      pop\n        /* \"#utility.yul\":14289:14382   */\n      tag_607\n        /* \"#utility.yul\":14378:14381   */\n      dup3\n        /* \"#utility.yul\":14289:14382   */\n      tag_608\n      jump\t// in\n    tag_607:\n        /* \"#utility.yul\":14407:14409   */\n      0x20\n        /* \"#utility.yul\":14402:14405   */\n      dup3\n        /* \"#utility.yul\":14398:14410   */\n      add\n        /* \"#utility.yul\":14391:14410   */\n      swap1\n      pop\n        /* \"#utility.yul\":14050:14416   */\n      swap2\n      swap1\n      pop\n      jump\t// out\n        /* \"#utility.yul\":14422:14788   */\n    tag_609:\n        /* \"#utility.yul\":14564:14567   */\n      0x00\n        /* \"#utility.yul\":14585:14652   */\n      tag_611\n        /* \"#utility.yul\":14649:14651   */\n      0x14\n        /* \"#utility.yul\":14644:14647   */\n      dup4\n        /* \"#utility.yul\":14585:14652   */\n      tag_535\n      jump\t// in\n    tag_611:\n        /* \"#utility.yul\":14578:14652   */\n      swap2\n      pop\n        /* \"#utility.yul\":14661:14754   */\n      tag_612\n        /* \"#utility.yul\":14750:14753   */\n      dup3\n        /* \"#utility.yul\":14661:14754   */\n      tag_613\n      jump\t// in\n    tag_612:\n        /* \"#utility.yul\":14779:14781   */\n      0x20\n        /* \"#utility.yul\":14774:14777   */\n      dup3\n        /* \"#utility.yul\":14770:14782   */\n      add\n        /* \"#utility.yul\":14763:14782   */\n      swap1\n      pop\n        /* \"#utility.yul\":14422:14788   */\n      swap2\n      swap1\n      pop\n      jump\t// out\n        /* \"#utility.yul\":14794:15160   */\n    tag_614:\n        /* \"#utility.yul\":14936:14939   */\n      0x00\n        /* \"#utility.yul\":14957:15024   */\n      tag_616\n        /* \"#utility.yul\":15021:15023   */\n      0x0d\n        /* \"#utility.yul\":15016:15019   */\n      dup4\n        /* \"#utility.yul\":14957:15024   */\n      tag_535\n      jump\t// in\n    tag_616:\n        /* \"#utility.yul\":14950:15024   */\n      swap2\n      pop\n        /* \"#utility.yul\":15033:15126   */\n      tag_617\n        /* \"#utility.yul\":15122:15125   */\n      dup3\n        /* \"#utility.yul\":15033:15126   */\n      tag_618\n      jump\t// in\n    tag_617:\n        /* \"#utility.yul\":15151:15153   */\n      0x20\n        /* \"#utility.yul\":15146:15149   */\n      dup3\n        /* \"#utility.yul\":15142:15154   */\n      add\n        /* \"#utility.yul\":15135:15154   */\n      swap1\n      pop\n        /* \"#utility.yul\":14794:15160   */\n      swap2\n      swap1\n      pop\n      jump\t// out\n        /* \"#utility.yul\":15248:16668   */\n    tag_619:\n        /* \"#utility.yul\":15393:15397   */\n      0xe0\n        /* \"#utility.yul\":15388:15391   */\n      dup3\n        /* \"#utility.yul\":15384:15398   */\n      add\n        /* \"#utility.yul\":15488:15492   */\n      0x00\n        /* \"#utility.yul\":15481:15486   */\n      dup3\n        /* \"#utility.yul\":15477:15493   */\n      add\n        /* \"#utility.yul\":15471:15494   */\n      mload\n        /* \"#utility.yul\":15507:15570   */\n      tag_621\n        /* \"#utility.yul\":15564:15568   */\n      0x00\n        /* \"#utility.yul\":15559:15562   */\n      dup6\n        /* \"#utility.yul\":15555:15569   */\n      add\n        /* \"#utility.yul\":15541:15553   */\n      dup3\n        /* \"#utility.yul\":15507:15570   */\n      tag_622\n      jump\t// in\n    tag_621:\n        /* \"#utility.yul\":15408:15580   */\n      pop\n        /* \"#utility.yul\":15668:15672   */\n      0x20\n        /* \"#utility.yul\":15661:15666   */\n      dup3\n        /* \"#utility.yul\":15657:15673   */\n      add\n        /* \"#utility.yul\":15651:15674   */\n      mload\n        /* \"#utility.yul\":15687:15750   */\n      tag_623\n        /* \"#utility.yul\":15744:15748   */\n      0x20\n        /* \"#utility.yul\":15739:15742   */\n      dup6\n        /* \"#utility.yul\":15735:15749   */\n      add\n        /* \"#utility.yul\":15721:15733   */\n      dup3\n        /* \"#utility.yul\":15687:15750   */\n      tag_622\n      jump\t// in\n    tag_623:\n        /* \"#utility.yul\":15590:15760   */\n      pop\n        /* \"#utility.yul\":15846:15850   */\n      0x40\n        /* \"#utility.yul\":15839:15844   */\n      dup3\n        /* \"#utility.yul\":15835:15851   */\n      add\n        /* \"#utility.yul\":15829:15852   */\n      mload\n        /* \"#utility.yul\":15865:15928   */\n      tag_624\n        /* \"#utility.yul\":15922:15926   */\n      0x40\n        /* \"#utility.yul\":15917:15920   */\n      dup6\n        /* \"#utility.yul\":15913:15927   */\n      add\n        /* \"#utility.yul\":15899:15911   */\n      dup3\n        /* \"#utility.yul\":15865:15928   */\n      tag_622\n      jump\t// in\n    tag_624:\n        /* \"#utility.yul\":15770:15938   */\n      pop\n        /* \"#utility.yul\":16029:16033   */\n      0x60\n        /* \"#utility.yul\":16022:16027   */\n      dup3\n        /* \"#utility.yul\":16018:16034   */\n      add\n        /* \"#utility.yul\":16012:16035   */\n      mload\n        /* \"#utility.yul\":16048:16111   */\n      tag_625\n        /* \"#utility.yul\":16105:16109   */\n      0x60\n        /* \"#utility.yul\":16100:16103   */\n      dup6\n        /* \"#utility.yul\":16096:16110   */\n      add\n        /* \"#utility.yul\":16082:16094   */\n      dup3\n        /* \"#utility.yul\":16048:16111   */\n      tag_622\n      jump\t// in\n    tag_625:\n        /* \"#utility.yul\":15948:16121   */\n      pop\n        /* \"#utility.yul\":16215:16219   */\n      0x80\n        /* \"#utility.yul\":16208:16213   */\n      dup3\n        /* \"#utility.yul\":16204:16220   */\n      add\n        /* \"#utility.yul\":16198:16221   */\n      mload\n        /* \"#utility.yul\":16234:16297   */\n      tag_626\n        /* \"#utility.yul\":16291:16295   */\n      0x80\n        /* \"#utility.yul\":16286:16289   */\n      dup6\n        /* \"#utility.yul\":16282:16296   */\n      add\n        /* \"#utility.yul\":16268:16280   */\n      dup3\n        /* \"#utility.yul\":16234:16297   */\n      tag_503\n      jump\t// in\n    tag_626:\n        /* \"#utility.yul\":16131:16307   */\n      pop\n        /* \"#utility.yul\":16394:16398   */\n      0xa0\n        /* \"#utility.yul\":16387:16392   */\n      dup3\n        /* \"#utility.yul\":16383:16399   */\n      add\n        /* \"#utility.yul\":16377:16400   */\n      mload\n        /* \"#utility.yul\":16413:16476   */\n      tag_627\n        /* \"#utility.yul\":16470:16474   */\n      0xa0\n        /* \"#utility.yul\":16465:16468   */\n      dup6\n        /* \"#utility.yul\":16461:16475   */\n      add\n        /* \"#utility.yul\":16447:16459   */\n      dup3\n        /* \"#utility.yul\":16413:16476   */\n      tag_503\n      jump\t// in\n    tag_627:\n        /* \"#utility.yul\":16317:16486   */\n      pop\n        /* \"#utility.yul\":16569:16573   */\n      0xc0\n        /* \"#utility.yul\":16562:16567   */\n      dup3\n        /* \"#utility.yul\":16558:16574   */\n      add\n        /* \"#utility.yul\":16552:16575   */\n      mload\n        /* \"#utility.yul\":16588:16651   */\n      tag_628\n        /* \"#utility.yul\":16645:16649   */\n      0xc0\n        /* \"#utility.yul\":16640:16643   */\n      dup6\n        /* \"#utility.yul\":16636:16650   */\n      add\n        /* \"#utility.yul\":16622:16634   */\n      dup3\n        /* \"#utility.yul\":16588:16651   */\n      tag_503\n      jump\t// in\n    tag_628:\n        /* \"#utility.yul\":16496:16661   */\n      pop\n        /* \"#utility.yul\":15362:16668   */\n      pop\n        /* \"#utility.yul\":15248:16668   */\n      pop\n      pop\n      jump\t// out\n        /* \"#utility.yul\":16760:17632   */\n    tag_629:\n        /* \"#utility.yul\":16909:16913   */\n      0x80\n        /* \"#utility.yul\":16904:16907   */\n      dup3\n        /* \"#utility.yul\":16900:16914   */\n      add\n        /* \"#utility.yul\":17001:17005   */\n      0x00\n        /* \"#utility.yul\":16994:16999   */\n      dup3\n        /* \"#utility.yul\":16990:17006   */\n      add\n        /* \"#utility.yul\":16984:17007   */\n      mload\n        /* \"#utility.yul\":17020:17083   */\n      tag_631\n        /* \"#utility.yul\":17077:17081   */\n      0x00\n        /* \"#utility.yul\":17072:17075   */\n      dup6\n        /* \"#utility.yul\":17068:17082   */\n      add\n        /* \"#utility.yul\":17054:17066   */\n      dup3\n        /* \"#utility.yul\":17020:17083   */\n      tag_503\n      jump\t// in\n    tag_631:\n        /* \"#utility.yul\":16924:17093   */\n      pop\n        /* \"#utility.yul\":17179:17183   */\n      0x20\n        /* \"#utility.yul\":17172:17177   */\n      dup3\n        /* \"#utility.yul\":17168:17184   */\n      add\n        /* \"#utility.yul\":17162:17185   */\n      mload\n        /* \"#utility.yul\":17198:17261   */\n      tag_632\n        /* \"#utility.yul\":17255:17259   */\n      0x20\n        /* \"#utility.yul\":17250:17253   */\n      dup6\n        /* \"#utility.yul\":17246:17260   */\n      add\n        /* \"#utility.yul\":17232:17244   */\n      dup3\n        /* \"#utility.yul\":17198:17261   */\n      tag_503\n      jump\t// in\n    tag_632:\n        /* \"#utility.yul\":17103:17271   */\n      pop\n        /* \"#utility.yul\":17354:17358   */\n      0x40\n        /* \"#utility.yul\":17347:17352   */\n      dup3\n        /* \"#utility.yul\":17343:17359   */\n      add\n        /* \"#utility.yul\":17337:17360   */\n      mload\n        /* \"#utility.yul\":17373:17436   */\n      tag_633\n        /* \"#utility.yul\":17430:17434   */\n      0x40\n        /* \"#utility.yul\":17425:17428   */\n      dup6\n        /* \"#utility.yul\":17421:17435   */\n      add\n        /* \"#utility.yul\":17407:17419   */\n      dup3\n        /* \"#utility.yul\":17373:17436   */\n      tag_503\n      jump\t// in\n    tag_633:\n        /* \"#utility.yul\":17281:17446   */\n      pop\n        /* \"#utility.yul\":17533:17537   */\n      0x60\n        /* \"#utility.yul\":17526:17531   */\n      dup3\n        /* \"#utility.yul\":17522:17538   */\n      add\n        /* \"#utility.yul\":17516:17539   */\n      mload\n        /* \"#utility.yul\":17552:17615   */\n      tag_634\n        /* \"#utility.yul\":17609:17613   */\n      0x60\n        /* \"#utility.yul\":17604:17607   */\n      dup6\n        /* \"#utility.yul\":17600:17614   */\n      add\n        /* \"#utility.yul\":17586:17598   */\n      dup3\n        /* \"#utility.yul\":17552:17615   */\n      tag_622\n      jump\t// in\n    tag_634:\n        /* \"#utility.yul\":17456:17625   */\n      pop\n        /* \"#utility.yul\":16878:17632   */\n      pop\n        /* \"#utility.yul\":16760:17632   */\n      pop\n      pop\n      jump\t// out\n        /* \"#utility.yul\":17722:18238   */\n    tag_502:\n        /* \"#utility.yul\":17859:17863   */\n      0x40\n        /* \"#utility.yul\":17854:17857   */\n      dup3\n        /* \"#utility.yul\":17850:17864   */\n      add\n        /* \"#utility.yul\":17961:17965   */\n      0x00\n        /* \"#utility.yul\":17954:17959   */\n      dup3\n        /* \"#utility.yul\":17950:17966   */\n      add\n        /* \"#utility.yul\":17944:17967   */\n      mload\n        /* \"#utility.yul\":17980:18043   */\n      tag_636\n        /* \"#utility.yul\":18037:18041   */\n      0x00\n        /* \"#utility.yul\":18032:18035   */\n      dup6\n        /* \"#utility.yul\":18028:18042   */\n      add\n        /* \"#utility.yul\":18014:18026   */\n      dup3\n        /* \"#utility.yul\":17980:18043   */\n      tag_503\n      jump\t// in\n    tag_636:\n        /* \"#utility.yul\":17874:18053   */\n      pop\n        /* \"#utility.yul\":18139:18143   */\n      0x20\n        /* \"#utility.yul\":18132:18137   */\n      dup3\n        /* \"#utility.yul\":18128:18144   */\n      add\n        /* \"#utility.yul\":18122:18145   */\n      mload\n        /* \"#utility.yul\":18158:18221   */\n      tag_637\n        /* \"#utility.yul\":18215:18219   */\n      0x20\n        /* \"#utility.yul\":18210:18213   */\n      dup6\n        /* \"#utility.yul\":18206:18220   */\n      add\n        /* \"#utility.yul\":18192:18204   */\n      dup3\n        /* \"#utility.yul\":18158:18221   */\n      tag_622\n      jump\t// in\n    tag_637:\n        /* \"#utility.yul\":18063:18231   */\n      pop\n        /* \"#utility.yul\":17828:18238   */\n      pop\n        /* \"#utility.yul\":17722:18238   */\n      pop\n      pop\n      jump\t// out\n        /* \"#utility.yul\":18244:18352   */\n    tag_622:\n        /* \"#utility.yul\":18321:18345   */\n      tag_639\n        /* \"#utility.yul\":18339:18344   */\n      dup2\n        /* \"#utility.yul\":18321:18345   */\n      tag_640\n      jump\t// in\n    tag_639:\n        /* \"#utility.yul\":18316:18319   */\n      dup3\n        /* \"#utility.yul\":18309:18346   */\n      mstore\n        /* \"#utility.yul\":18244:18352   */\n      pop\n      pop\n      jump\t// out\n        /* \"#utility.yul\":18358:18476   */\n    tag_641:\n        /* \"#utility.yul\":18445:18469   */\n      tag_643\n        /* \"#utility.yul\":18463:18468   */\n      dup2\n        /* \"#utility.yul\":18445:18469   */\n      tag_640\n      jump\t// in\n    tag_643:\n        /* \"#utility.yul\":18440:18443   */\n      dup3\n        /* \"#utility.yul\":18433:18470   */\n      mstore\n        /* \"#utility.yul\":18358:18476   */\n      pop\n      pop\n      jump\t// out\n        /* \"#utility.yul\":18482:18861   */\n    tag_407:\n        /* \"#utility.yul\":18666:18669   */\n      0x00\n        /* \"#utility.yul\":18688:18835   */\n      tag_645\n        /* \"#utility.yul\":18831:18834   */\n      dup3\n        /* \"#utility.yul\":18688:18835   */\n      tag_598\n      jump\t// in\n    tag_645:\n        /* \"#utility.yul\":18681:18835   */\n      swap2\n      pop\n        /* \"#utility.yul\":18852:18855   */\n      dup2\n        /* \"#utility.yul\":18845:18855   */\n      swap1\n      pop\n        /* \"#utility.yul\":18482:18861   */\n      swap2\n      swap1\n      pop\n      jump\t// out\n        /* \"#utility.yul\":18867:19199   */\n    tag_238:\n        /* \"#utility.yul\":18988:18992   */\n      0x00\n        /* \"#utility.yul\":19026:19028   */\n      0x40\n        /* \"#utility.yul\":19015:19024   */\n      dup3\n        /* \"#utility.yul\":19011:19029   */\n      add\n        /* \"#utility.yul\":19003:19029   */\n      swap1\n      pop\n        /* \"#utility.yul\":19039:19110   */\n      tag_647\n        /* \"#utility.yul\":19107:19108   */\n      0x00\n        /* \"#utility.yul\":19096:19105   */\n      dup4\n        /* \"#utility.yul\":19092:19109   */\n      add\n        /* \"#utility.yul\":19083:19089   */\n      dup6\n        /* \"#utility.yul\":19039:19110   */\n      tag_507\n      jump\t// in\n    tag_647:\n        /* \"#utility.yul\":19120:19192   */\n      tag_648\n        /* \"#utility.yul\":19188:19190   */\n      0x20\n        /* \"#utility.yul\":19177:19186   */\n      dup4\n        /* \"#utility.yul\":19173:19191   */\n      add\n        /* \"#utility.yul\":19164:19170   */\n      dup5\n        /* \"#utility.yul\":19120:19192   */\n      tag_507\n      jump\t// in\n    tag_648:\n        /* \"#utility.yul\":18867:19199   */\n      swap4\n      swap3\n      pop\n      pop\n      pop\n      jump\t// out\n        /* \"#utility.yul\":19205:19980   */\n    tag_256:\n        /* \"#utility.yul\":19438:19442   */\n      0x00\n        /* \"#utility.yul\":19476:19479   */\n      0xc0\n        /* \"#utility.yul\":19465:19474   */\n      dup3\n        /* \"#utility.yul\":19461:19480   */\n      add\n        /* \"#utility.yul\":19453:19480   */\n      swap1\n      pop\n        /* \"#utility.yul\":19490:19561   */\n      tag_650\n        /* \"#utility.yul\":19558:19559   */\n      0x00\n        /* \"#utility.yul\":19547:19556   */\n      dup4\n        /* \"#utility.yul\":19543:19560   */\n      add\n        /* \"#utility.yul\":19534:19540   */\n      dup10\n        /* \"#utility.yul\":19490:19561   */\n      tag_507\n      jump\t// in\n    tag_650:\n        /* \"#utility.yul\":19571:19643   */\n      tag_651\n        /* \"#utility.yul\":19639:19641   */\n      0x20\n        /* \"#utility.yul\":19628:19637   */\n      dup4\n        /* \"#utility.yul\":19624:19642   */\n      add\n        /* \"#utility.yul\":19615:19621   */\n      dup9\n        /* \"#utility.yul\":19571:19643   */\n      tag_507\n      jump\t// in\n    tag_651:\n        /* \"#utility.yul\":19653:19725   */\n      tag_652\n        /* \"#utility.yul\":19721:19723   */\n      0x40\n        /* \"#utility.yul\":19710:19719   */\n      dup4\n        /* \"#utility.yul\":19706:19724   */\n      add\n        /* \"#utility.yul\":19697:19703   */\n      dup8\n        /* \"#utility.yul\":19653:19725   */\n      tag_507\n      jump\t// in\n    tag_652:\n        /* \"#utility.yul\":19735:19807   */\n      tag_653\n        /* \"#utility.yul\":19803:19805   */\n      0x60\n        /* \"#utility.yul\":19792:19801   */\n      dup4\n        /* \"#utility.yul\":19788:19806   */\n      add\n        /* \"#utility.yul\":19779:19785   */\n      dup7\n        /* \"#utility.yul\":19735:19807   */\n      tag_641\n      jump\t// in\n    tag_653:\n        /* \"#utility.yul\":19817:19890   */\n      tag_654\n        /* \"#utility.yul\":19885:19888   */\n      0x80\n        /* \"#utility.yul\":19874:19883   */\n      dup4\n        /* \"#utility.yul\":19870:19889   */\n      add\n        /* \"#utility.yul\":19861:19867   */\n      dup6\n        /* \"#utility.yul\":19817:19890   */\n      tag_641\n      jump\t// in\n    tag_654:\n        /* \"#utility.yul\":19900:19973   */\n      tag_655\n        /* \"#utility.yul\":19968:19971   */\n      0xa0\n        /* \"#utility.yul\":19957:19966   */\n      dup4\n        /* \"#utility.yul\":19953:19972   */\n      add\n        /* \"#utility.yul\":19944:19950   */\n      dup5\n        /* \"#utility.yul\":19900:19973   */\n      tag_641\n      jump\t// in\n    tag_655:\n        /* \"#utility.yul\":19205:19980   */\n      swap8\n      swap7\n      pop\n      pop\n      pop\n      pop\n      pop\n      pop\n      pop\n      jump\t// out\n        /* \"#utility.yul\":19986:20872   */\n    tag_345:\n        /* \"#utility.yul\":20247:20251   */\n      0x00\n        /* \"#utility.yul\":20285:20288   */\n      0xe0\n        /* \"#utility.yul\":20274:20283   */\n      dup3\n        /* \"#utility.yul\":20270:20289   */\n      add\n        /* \"#utility.yul\":20262:20289   */\n      swap1\n      pop\n        /* \"#utility.yul\":20299:20370   */\n      tag_657\n        /* \"#utility.yul\":20367:20368   */\n      0x00\n        /* \"#utility.yul\":20356:20365   */\n      dup4\n        /* \"#utility.yul\":20352:20369   */\n      add\n        /* \"#utility.yul\":20343:20349   */\n      dup11\n        /* \"#utility.yul\":20299:20370   */\n      tag_507\n      jump\t// in\n    tag_657:\n        /* \"#utility.yul\":20380:20452   */\n      tag_658\n        /* \"#utility.yul\":20448:20450   */\n      0x20\n        /* \"#utility.yul\":20437:20446   */\n      dup4\n        /* \"#utility.yul\":20433:20451   */\n      add\n        /* \"#utility.yul\":20424:20430   */\n      dup10\n        /* \"#utility.yul\":20380:20452   */\n      tag_507\n      jump\t// in\n    tag_658:\n        /* \"#utility.yul\":20462:20534   */\n      tag_659\n        /* \"#utility.yul\":20530:20532   */\n      0x40\n        /* \"#utility.yul\":20519:20528   */\n      dup4\n        /* \"#utility.yul\":20515:20533   */\n      add\n        /* \"#utility.yul\":20506:20512   */\n      dup9\n        /* \"#utility.yul\":20462:20534   */\n      tag_507\n      jump\t// in\n    tag_659:\n        /* \"#utility.yul\":20544:20616   */\n      tag_660\n        /* \"#utility.yul\":20612:20614   */\n      0x60\n        /* \"#utility.yul\":20601:20610   */\n      dup4\n        /* \"#utility.yul\":20597:20615   */\n      add\n        /* \"#utility.yul\":20588:20594   */\n      dup8\n        /* \"#utility.yul\":20544:20616   */\n      tag_641\n      jump\t// in\n    tag_660:\n        /* \"#utility.yul\":20626:20699   */\n      tag_661\n        /* \"#utility.yul\":20694:20697   */\n      0x80\n        /* \"#utility.yul\":20683:20692   */\n      dup4\n        /* \"#utility.yul\":20679:20698   */\n      add\n        /* \"#utility.yul\":20670:20676   */\n      dup7\n        /* \"#utility.yul\":20626:20699   */\n      tag_641\n      jump\t// in\n    tag_661:\n        /* \"#utility.yul\":20709:20782   */\n      tag_662\n        /* \"#utility.yul\":20777:20780   */\n      0xa0\n        /* \"#utility.yul\":20766:20775   */\n      dup4\n        /* \"#utility.yul\":20762:20781   */\n      add\n        /* \"#utility.yul\":20753:20759   */\n      dup6\n        /* \"#utility.yul\":20709:20782   */\n      tag_641\n      jump\t// in\n    tag_662:\n        /* \"#utility.yul\":20792:20865   */\n      tag_663\n        /* \"#utility.yul\":20860:20863   */\n      0xc0\n        /* \"#utility.yul\":20849:20858   */\n      dup4\n        /* \"#utility.yul\":20845:20864   */\n      add\n        /* \"#utility.yul\":20836:20842   */\n      dup5\n        /* \"#utility.yul\":20792:20865   */\n      tag_641\n      jump\t// in\n    tag_663:\n        /* \"#utility.yul\":19986:20872   */\n      swap9\n      swap8\n      pop\n      pop\n      pop\n      pop\n      pop\n      pop\n      pop\n      pop\n      jump\t// out\n        /* \"#utility.yul\":20878:21320   */\n    tag_122:\n        /* \"#utility.yul\":21027:21031   */\n      0x00\n        /* \"#utility.yul\":21065:21067   */\n      0x60\n        /* \"#utility.yul\":21054:21063   */\n      dup3\n        /* \"#utility.yul\":21050:21068   */\n      add\n        /* \"#utility.yul\":21042:21068   */\n      swap1\n      pop\n        /* \"#utility.yul\":21078:21149   */\n      tag_665\n        /* \"#utility.yul\":21146:21147   */\n      0x00\n        /* \"#utility.yul\":21135:21144   */\n      dup4\n        /* \"#utility.yul\":21131:21148   */\n      add\n        /* \"#utility.yul\":21122:21128   */\n      dup7\n        /* \"#utility.yul\":21078:21149   */\n      tag_507\n      jump\t// in\n    tag_665:\n        /* \"#utility.yul\":21159:21231   */\n      tag_666\n        /* \"#utility.yul\":21227:21229   */\n      0x20\n        /* \"#utility.yul\":21216:21225   */\n      dup4\n        /* \"#utility.yul\":21212:21230   */\n      add\n        /* \"#utility.yul\":21203:21209   */\n      dup6\n        /* \"#utility.yul\":21159:21231   */\n      tag_507\n      jump\t// in\n    tag_666:\n        /* \"#utility.yul\":21241:21313   */\n      tag_667\n        /* \"#utility.yul\":21309:21311   */\n      0x40\n        /* \"#utility.yul\":21298:21307   */\n      dup4\n        /* \"#utility.yul\":21294:21312   */\n      add\n        /* \"#utility.yul\":21285:21291   */\n      dup5\n        /* \"#utility.yul\":21241:21313   */\n      tag_641\n      jump\t// in\n    tag_667:\n        /* \"#utility.yul\":20878:21320   */\n      swap5\n      swap4\n      pop\n      pop\n      pop\n      pop\n      jump\t// out\n        /* \"#utility.yul\":21326:21879   */\n    tag_317:\n        /* \"#utility.yul\":21503:21507   */\n      0x00\n        /* \"#utility.yul\":21541:21544   */\n      0x80\n        /* \"#utility.yul\":21530:21539   */\n      dup3\n        /* \"#utility.yul\":21526:21545   */\n      add\n        /* \"#utility.yul\":21518:21545   */\n      swap1\n      pop\n        /* \"#utility.yul\":21555:21626   */\n      tag_669\n        /* \"#utility.yul\":21623:21624   */\n      0x00\n        /* \"#utility.yul\":21612:21621   */\n      dup4\n        /* \"#utility.yul\":21608:21625   */\n      add\n        /* \"#utility.yul\":21599:21605   */\n      dup8\n        /* \"#utility.yul\":21555:21626   */\n      tag_507\n      jump\t// in\n    tag_669:\n        /* \"#utility.yul\":21636:21708   */\n      tag_670\n        /* \"#utility.yul\":21704:21706   */\n      0x20\n        /* \"#utility.yul\":21693:21702   */\n      dup4\n        /* \"#utility.yul\":21689:21707   */\n      add\n        /* \"#utility.yul\":21680:21686   */\n      dup7\n        /* \"#utility.yul\":21636:21708   */\n      tag_507\n      jump\t// in\n    tag_670:\n        /* \"#utility.yul\":21718:21790   */\n      tag_671\n        /* \"#utility.yul\":21786:21788   */\n      0x40\n        /* \"#utility.yul\":21775:21784   */\n      dup4\n        /* \"#utility.yul\":21771:21789   */\n      add\n        /* \"#utility.yul\":21762:21768   */\n      dup6\n        /* \"#utility.yul\":21718:21790   */\n      tag_641\n      jump\t// in\n    tag_671:\n        /* \"#utility.yul\":21800:21872   */\n      tag_672\n        /* \"#utility.yul\":21868:21870   */\n      0x60\n        /* \"#utility.yul\":21857:21866   */\n      dup4\n        /* \"#utility.yul\":21853:21871   */\n      add\n        /* \"#utility.yul\":21844:21850   */\n      dup5\n        /* \"#utility.yul\":21800:21872   */\n      tag_641\n      jump\t// in\n    tag_672:\n        /* \"#utility.yul\":21326:21879   */\n      swap6\n      swap5\n      pop\n      pop\n      pop\n      pop\n      pop\n      jump\t// out\n        /* \"#utility.yul\":21885:22217   */\n    tag_400:\n        /* \"#utility.yul\":22006:22010   */\n      0x00\n        /* \"#utility.yul\":22044:22046   */\n      0x40\n        /* \"#utility.yul\":22033:22042   */\n      dup3\n        /* \"#utility.yul\":22029:22047   */\n      add\n        /* \"#utility.yul\":22021:22047   */\n      swap1\n      pop\n        /* \"#utility.yul\":22057:22128   */\n      tag_674\n        /* \"#utility.yul\":22125:22126   */\n      0x00\n        /* \"#utility.yul\":22114:22123   */\n      dup4\n        /* \"#utility.yul\":22110:22127   */\n      add\n        /* \"#utility.yul\":22101:22107   */\n      dup6\n        /* \"#utility.yul\":22057:22128   */\n      tag_507\n      jump\t// in\n    tag_674:\n        /* \"#utility.yul\":22138:22210   */\n      tag_675\n        /* \"#utility.yul\":22206:22208   */\n      0x20\n        /* \"#utility.yul\":22195:22204   */\n      dup4\n        /* \"#utility.yul\":22191:22209   */\n      add\n        /* \"#utility.yul\":22182:22188   */\n      dup5\n        /* \"#utility.yul\":22138:22210   */\n      tag_641\n      jump\t// in\n    tag_675:\n        /* \"#utility.yul\":21885:22217   */\n      swap4\n      swap3\n      pop\n      pop\n      pop\n      jump\t// out\n        /* \"#utility.yul\":22223:22665   */\n    tag_207:\n        /* \"#utility.yul\":22372:22376   */\n      0x00\n        /* \"#utility.yul\":22410:22412   */\n      0x60\n        /* \"#utility.yul\":22399:22408   */\n      dup3\n        /* \"#utility.yul\":22395:22413   */\n      add\n        /* \"#utility.yul\":22387:22413   */\n      swap1\n      pop\n        /* \"#utility.yul\":22423:22494   */\n      tag_677\n        /* \"#utility.yul\":22491:22492   */\n      0x00\n        /* \"#utility.yul\":22480:22489   */\n      dup4\n        /* \"#utility.yul\":22476:22493   */\n      add\n        /* \"#utility.yul\":22467:22473   */\n      dup7\n        /* \"#utility.yul\":22423:22494   */\n      tag_507\n      jump\t// in\n    tag_677:\n        /* \"#utility.yul\":22504:22576   */\n      tag_678\n        /* \"#utility.yul\":22572:22574   */\n      0x20\n        /* \"#utility.yul\":22561:22570   */\n      dup4\n        /* \"#utility.yul\":22557:22575   */\n      add\n        /* \"#utility.yul\":22548:22554   */\n      dup6\n        /* \"#utility.yul\":22504:22576   */\n      tag_641\n      jump\t// in\n    tag_678:\n        /* \"#utility.yul\":22586:22658   */\n      tag_679\n        /* \"#utility.yul\":22654:22656   */\n      0x40\n        /* \"#utility.yul\":22643:22652   */\n      dup4\n        /* \"#utility.yul\":22639:22657   */\n      add\n        /* \"#utility.yul\":22630:22636   */\n      dup5\n        /* \"#utility.yul\":22586:22658   */\n      tag_507\n      jump\t// in\n    tag_679:\n        /* \"#utility.yul\":22223:22665   */\n      swap5\n      swap4\n      pop\n      pop\n      pop\n      pop\n      jump\t// out\n        /* \"#utility.yul\":22671:23335   */\n    tag_222:\n        /* \"#utility.yul\":22876:22880   */\n      0x00\n        /* \"#utility.yul\":22914:22917   */\n      0xa0\n        /* \"#utility.yul\":22903:22912   */\n      dup3\n        /* \"#utility.yul\":22899:22918   */\n      add\n        /* \"#utility.yul\":22891:22918   */\n      swap1\n      pop\n        /* \"#utility.yul\":22928:22999   */\n      tag_681\n        /* \"#utility.yul\":22996:22997   */\n      0x00\n        /* \"#utility.yul\":22985:22994   */\n      dup4\n        /* \"#utility.yul\":22981:22998   */\n      add\n        /* \"#utility.yul\":22972:22978   */\n      dup9\n        /* \"#utility.yul\":22928:22999   */\n      tag_507\n      jump\t// in\n    tag_681:\n        /* \"#utility.yul\":23009:23081   */\n      tag_682\n        /* \"#utility.yul\":23077:23079   */\n      0x20\n        /* \"#utility.yul\":23066:23075   */\n      dup4\n        /* \"#utility.yul\":23062:23080   */\n      add\n        /* \"#utility.yul\":23053:23059   */\n      dup8\n        /* \"#utility.yul\":23009:23081   */\n      tag_641\n      jump\t// in\n    tag_682:\n        /* \"#utility.yul\":23091:23163   */\n      tag_683\n        /* \"#utility.yul\":23159:23161   */\n      0x40\n        /* \"#utility.yul\":23148:23157   */\n      dup4\n        /* \"#utility.yul\":23144:23162   */\n      add\n        /* \"#utility.yul\":23135:23141   */\n      dup7\n        /* \"#utility.yul\":23091:23163   */\n      tag_507\n      jump\t// in\n    tag_683:\n        /* \"#utility.yul\":23173:23245   */\n      tag_684\n        /* \"#utility.yul\":23241:23243   */\n      0x60\n        /* \"#utility.yul\":23230:23239   */\n      dup4\n        /* \"#utility.yul\":23226:23244   */\n      add\n        /* \"#utility.yul\":23217:23223   */\n      dup6\n        /* \"#utility.yul\":23173:23245   */\n      tag_641\n      jump\t// in\n    tag_684:\n        /* \"#utility.yul\":23255:23328   */\n      tag_685\n        /* \"#utility.yul\":23323:23326   */\n      0x80\n        /* \"#utility.yul\":23312:23321   */\n      dup4\n        /* \"#utility.yul\":23308:23327   */\n      add\n        /* \"#utility.yul\":23299:23305   */\n      dup5\n        /* \"#utility.yul\":23255:23328   */\n      tag_507\n      jump\t// in\n    tag_685:\n        /* \"#utility.yul\":22671:23335   */\n      swap7\n      swap6\n      pop\n      pop\n      pop\n      pop\n      pop\n      pop\n      jump\t// out\n        /* \"#utility.yul\":23341:23783   */\n    tag_194:\n        /* \"#utility.yul\":23490:23494   */\n      0x00\n        /* \"#utility.yul\":23528:23530   */\n      0x60\n        /* \"#utility.yul\":23517:23526   */\n      dup3\n        /* \"#utility.yul\":23513:23531   */\n      add\n        /* \"#utility.yul\":23505:23531   */\n      swap1\n      pop\n        /* \"#utility.yul\":23541:23612   */\n      tag_687\n        /* \"#utility.yul\":23609:23610   */\n      0x00\n        /* \"#utility.yul\":23598:23607   */\n      dup4\n        /* \"#utility.yul\":23594:23611   */\n      add\n        /* \"#utility.yul\":23585:23591   */\n      dup7\n        /* \"#utility.yul\":23541:23612   */\n      tag_507\n      jump\t// in\n    tag_687:\n        /* \"#utility.yul\":23622:23694   */\n      tag_688\n        /* \"#utility.yul\":23690:23692   */\n      0x20\n        /* \"#utility.yul\":23679:23688   */\n      dup4\n        /* \"#utility.yul\":23675:23693   */\n      add\n        /* \"#utility.yul\":23666:23672   */\n      dup6\n        /* \"#utility.yul\":23622:23694   */\n      tag_641\n      jump\t// in\n    tag_688:\n        /* \"#utility.yul\":23704:23776   */\n      tag_689\n        /* \"#utility.yul\":23772:23774   */\n      0x40\n        /* \"#utility.yul\":23761:23770   */\n      dup4\n        /* \"#utility.yul\":23757:23775   */\n      add\n        /* \"#utility.yul\":23748:23754   */\n      dup5\n        /* \"#utility.yul\":23704:23776   */\n      tag_641\n      jump\t// in\n    tag_689:\n        /* \"#utility.yul\":23341:23783   */\n      swap5\n      swap4\n      pop\n      pop\n      pop\n      pop\n      jump\t// out\n        /* \"#utility.yul\":23789:24342   */\n    tag_154:\n        /* \"#utility.yul\":23966:23970   */\n      0x00\n        /* \"#utility.yul\":24004:24007   */\n      0x80\n        /* \"#utility.yul\":23993:24002   */\n      dup3\n        /* \"#utility.yul\":23989:24008   */\n      add\n        /* \"#utility.yul\":23981:24008   */\n      swap1\n      pop\n        /* \"#utility.yul\":24018:24089   */\n      tag_691\n        /* \"#utility.yul\":24086:24087   */\n      0x00\n        /* \"#utility.yul\":24075:24084   */\n      dup4\n        /* \"#utility.yul\":24071:24088   */\n      add\n        /* \"#utility.yul\":24062:24068   */\n      dup8\n        /* \"#utility.yul\":24018:24089   */\n      tag_507\n      jump\t// in\n    tag_691:\n        /* \"#utility.yul\":24099:24171   */\n      tag_692\n        /* \"#utility.yul\":24167:24169   */\n      0x20\n        /* \"#utility.yul\":24156:24165   */\n      dup4\n        /* \"#utility.yul\":24152:24170   */\n      add\n        /* \"#utility.yul\":24143:24149   */\n      dup7\n        /* \"#utility.yul\":24099:24171   */\n      tag_641\n      jump\t// in\n    tag_692:\n        /* \"#utility.yul\":24181:24253   */\n      tag_693\n        /* \"#utility.yul\":24249:24251   */\n      0x40\n        /* \"#utility.yul\":24238:24247   */\n      dup4\n        /* \"#utility.yul\":24234:24252   */\n      add\n        /* \"#utility.yul\":24225:24231   */\n      dup6\n        /* \"#utility.yul\":24181:24253   */\n      tag_641\n      jump\t// in\n    tag_693:\n        /* \"#utility.yul\":24263:24335   */\n      tag_694\n        /* \"#utility.yul\":24331:24333   */\n      0x60\n        /* \"#utility.yul\":24320:24329   */\n      dup4\n        /* \"#utility.yul\":24316:24334   */\n      add\n        /* \"#utility.yul\":24307:24313   */\n      dup5\n        /* \"#utility.yul\":24263:24335   */\n      tag_507\n      jump\t// in\n    tag_694:\n        /* \"#utility.yul\":23789:24342   */\n      swap6\n      swap5\n      pop\n      pop\n      pop\n      pop\n      pop\n      jump\t// out\n        /* \"#utility.yul\":24348:24821   */\n    tag_49:\n        /* \"#utility.yul\":24541:24545   */\n      0x00\n        /* \"#utility.yul\":24579:24581   */\n      0x20\n        /* \"#utility.yul\":24568:24577   */\n      dup3\n        /* \"#utility.yul\":24564:24582   */\n      add\n        /* \"#utility.yul\":24556:24582   */\n      swap1\n      pop\n        /* \"#utility.yul\":24628:24637   */\n      dup2\n        /* \"#utility.yul\":24622:24626   */\n      dup2\n        /* \"#utility.yul\":24618:24638   */\n      sub\n        /* \"#utility.yul\":24614:24615   */\n      0x00\n        /* \"#utility.yul\":24603:24612   */\n      dup4\n        /* \"#utility.yul\":24599:24616   */\n      add\n        /* \"#utility.yul\":24592:24639   */\n      mstore\n        /* \"#utility.yul\":24656:24814   */\n      tag_696\n        /* \"#utility.yul\":24809:24813   */\n      dup2\n        /* \"#utility.yul\":24800:24806   */\n      dup5\n        /* \"#utility.yul\":24656:24814   */\n      tag_510\n      jump\t// in\n    tag_696:\n        /* \"#utility.yul\":24648:24814   */\n      swap1\n      pop\n        /* \"#utility.yul\":24348:24821   */\n      swap3\n      swap2\n      pop\n      pop\n      jump\t// out\n        /* \"#utility.yul\":24827:25037   */\n    tag_33:\n        /* \"#utility.yul\":24914:24918   */\n      0x00\n        /* \"#utility.yul\":24952:24954   */\n      0x20\n        /* \"#utility.yul\":24941:24950   */\n      dup3\n        /* \"#utility.yul\":24937:24955   */\n      add\n        /* \"#utility.yul\":24929:24955   */\n      swap1\n      pop\n        /* \"#utility.yul\":24965:25030   */\n      tag_698\n        /* \"#utility.yul\":25027:25028   */\n      0x00\n        /* \"#utility.yul\":25016:25025   */\n      dup4\n        /* \"#utility.yul\":25012:25029   */\n      add\n        /* \"#utility.yul\":25003:25009   */\n      dup5\n        /* \"#utility.yul\":24965:25030   */\n      tag_524\n      jump\t// in\n    tag_698:\n        /* \"#utility.yul\":24827:25037   */\n      swap3\n      swap2\n      pop\n      pop\n      jump\t// out\n        /* \"#utility.yul\":25043:25261   */\n    tag_40:\n        /* \"#utility.yul\":25134:25138   */\n      0x00\n        /* \"#utility.yul\":25172:25174   */\n      0x20\n        /* \"#utility.yul\":25161:25170   */\n      dup3\n        /* \"#utility.yul\":25157:25175   */\n      add\n        /* \"#utility.yul\":25149:25175   */\n      swap1\n      pop\n        /* \"#utility.yul\":25185:25254   */\n      tag_700\n        /* \"#utility.yul\":25251:25252   */\n      0x00\n        /* \"#utility.yul\":25240:25249   */\n      dup4\n        /* \"#utility.yul\":25236:25253   */\n      add\n        /* \"#utility.yul\":25227:25233   */\n      dup5\n        /* \"#utility.yul\":25185:25254   */\n      tag_528\n      jump\t// in\n    tag_700:\n        /* \"#utility.yul\":25043:25261   */\n      swap3\n      swap2\n      pop\n      pop\n      jump\t// out\n        /* \"#utility.yul\":25267:25686   */\n    tag_202:\n        /* \"#utility.yul\":25433:25437   */\n      0x00\n        /* \"#utility.yul\":25471:25473   */\n      0x20\n        /* \"#utility.yul\":25460:25469   */\n      dup3\n        /* \"#utility.yul\":25456:25474   */\n      add\n        /* \"#utility.yul\":25448:25474   */\n      swap1\n      pop\n        /* \"#utility.yul\":25520:25529   */\n      dup2\n        /* \"#utility.yul\":25514:25518   */\n      dup2\n        /* \"#utility.yul\":25510:25530   */\n      sub\n        /* \"#utility.yul\":25506:25507   */\n      0x00\n        /* \"#utility.yul\":25495:25504   */\n      dup4\n        /* \"#utility.yul\":25491:25508   */\n      add\n        /* \"#utility.yul\":25484:25531   */\n      mstore\n        /* \"#utility.yul\":25548:25679   */\n      tag_702\n        /* \"#utility.yul\":25674:25678   */\n      dup2\n        /* \"#utility.yul\":25548:25679   */\n      tag_532\n      jump\t// in\n    tag_702:\n        /* \"#utility.yul\":25540:25679   */\n      swap1\n      pop\n        /* \"#utility.yul\":25267:25686   */\n      swap2\n      swap1\n      pop\n      jump\t// out\n        /* \"#utility.yul\":25692:26111   */\n    tag_245:\n        /* \"#utility.yul\":25858:25862   */\n      0x00\n        /* \"#utility.yul\":25896:25898   */\n      0x20\n        /* \"#utility.yul\":25885:25894   */\n      dup3\n        /* \"#utility.yul\":25881:25899   */\n      add\n        /* \"#utility.yul\":25873:25899   */\n      swap1\n      pop\n        /* \"#utility.yul\":25945:25954   */\n      dup2\n        /* \"#utility.yul\":25939:25943   */\n      dup2\n        /* \"#utility.yul\":25935:25955   */\n      sub\n        /* \"#utility.yul\":25931:25932   */\n      0x00\n        /* \"#utility.yul\":25920:25929   */\n      dup4\n        /* \"#utility.yul\":25916:25933   */\n      add\n        /* \"#utility.yul\":25909:25956   */\n      mstore\n        /* \"#utility.yul\":25973:26104   */\n      tag_704\n        /* \"#utility.yul\":26099:26103   */\n      dup2\n        /* \"#utility.yul\":25973:26104   */\n      tag_538\n      jump\t// in\n    tag_704:\n        /* \"#utility.yul\":25965:26104   */\n      swap1\n      pop\n        /* \"#utility.yul\":25692:26111   */\n      swap2\n      swap1\n      pop\n      jump\t// out\n        /* \"#utility.yul\":26117:26536   */\n    tag_140:\n        /* \"#utility.yul\":26283:26287   */\n      0x00\n        /* \"#utility.yul\":26321:26323   */\n      0x20\n        /* \"#utility.yul\":26310:26319   */\n      dup3\n        /* \"#utility.yul\":26306:26324   */\n      add\n        /* \"#utility.yul\":26298:26324   */\n      swap1\n      pop\n        /* \"#utility.yul\":26370:26379   */\n      dup2\n        /* \"#utility.yul\":26364:26368   */\n      dup2\n        /* \"#utility.yul\":26360:26380   */\n      sub\n        /* \"#utility.yul\":26356:26357   */\n      0x00\n        /* \"#utility.yul\":26345:26354   */\n      dup4\n        /* \"#utility.yul\":26341:26358   */\n      add\n        /* \"#utility.yul\":26334:26381   */\n      mstore\n        /* \"#utility.yul\":26398:26529   */\n      tag_706\n        /* \"#utility.yul\":26524:26528   */\n      dup2\n        /* \"#utility.yul\":26398:26529   */\n      tag_543\n      jump\t// in\n    tag_706:\n        /* \"#utility.yul\":26390:26529   */\n      swap1\n      pop\n        /* \"#utility.yul\":26117:26536   */\n      swap2\n      swap1\n      pop\n      jump\t// out\n        /* \"#utility.yul\":26542:26961   */\n    tag_272:\n        /* \"#utility.yul\":26708:26712   */\n      0x00\n        /* \"#utility.yul\":26746:26748   */\n      0x20\n        /* \"#utility.yul\":26735:26744   */\n      dup3\n        /* \"#utility.yul\":26731:26749   */\n      add\n        /* \"#utility.yul\":26723:26749   */\n      swap1\n      pop\n        /* \"#utility.yul\":26795:26804   */\n      dup2\n        /* \"#utility.yul\":26789:26793   */\n      dup2\n        /* \"#utility.yul\":26785:26805   */\n      sub\n        /* \"#utility.yul\":26781:26782   */\n      0x00\n        /* \"#utility.yul\":26770:26779   */\n      dup4\n        /* \"#utility.yul\":26766:26783   */\n      add\n        /* \"#utility.yul\":26759:26806   */\n      mstore\n        /* \"#utility.yul\":26823:26954   */\n      tag_708\n        /* \"#utility.yul\":26949:26953   */\n      dup2\n        /* \"#utility.yul\":26823:26954   */\n      tag_548\n      jump\t// in\n    tag_708:\n        /* \"#utility.yul\":26815:26954   */\n      swap1\n      pop\n        /* \"#utility.yul\":26542:26961   */\n      swap2\n      swap1\n      pop\n      jump\t// out\n        /* \"#utility.yul\":26967:27386   */\n    tag_184:\n        /* \"#utility.yul\":27133:27137   */\n      0x00\n        /* \"#utility.yul\":27171:27173   */\n      0x20\n        /* \"#utility.yul\":27160:27169   */\n      dup3\n        /* \"#utility.yul\":27156:27174   */\n      add\n        /* \"#utility.yul\":27148:27174   */\n      swap1\n      pop\n        /* \"#utility.yul\":27220:27229   */\n      dup2\n        /* \"#utility.yul\":27214:27218   */\n      dup2\n        /* \"#utility.yul\":27210:27230   */\n      sub\n        /* \"#utility.yul\":27206:27207   */\n      0x00\n        /* \"#utility.yul\":27195:27204   */\n      dup4\n        /* \"#utility.yul\":27191:27208   */\n      add\n        /* \"#utility.yul\":27184:27231   */\n      mstore\n        /* \"#utility.yul\":27248:27379   */\n      tag_710\n        /* \"#utility.yul\":27374:27378   */\n      dup2\n        /* \"#utility.yul\":27248:27379   */\n      tag_553\n      jump\t// in\n    tag_710:\n        /* \"#utility.yul\":27240:27379   */\n      swap1\n      pop\n        /* \"#utility.yul\":26967:27386   */\n      swap2\n      swap1\n      pop\n      jump\t// out\n        /* \"#utility.yul\":27392:27811   */\n    tag_132:\n        /* \"#utility.yul\":27558:27562   */\n      0x00\n        /* \"#utility.yul\":27596:27598   */\n      0x20\n        /* \"#utility.yul\":27585:27594   */\n      dup3\n        /* \"#utility.yul\":27581:27599   */\n      add\n        /* \"#utility.yul\":27573:27599   */\n      swap1\n      pop\n        /* \"#utility.yul\":27645:27654   */\n      dup2\n        /* \"#utility.yul\":27639:27643   */\n      dup2\n        /* \"#utility.yul\":27635:27655   */\n      sub\n        /* \"#utility.yul\":27631:27632   */\n      0x00\n        /* \"#utility.yul\":27620:27629   */\n      dup4\n        /* \"#utility.yul\":27616:27633   */\n      add\n        /* \"#utility.yul\":27609:27656   */\n      mstore\n        /* \"#utility.yul\":27673:27804   */\n      tag_712\n        /* \"#utility.yul\":27799:27803   */\n      dup2\n        /* \"#utility.yul\":27673:27804   */\n      tag_558\n      jump\t// in\n    tag_712:\n        /* \"#utility.yul\":27665:27804   */\n      swap1\n      pop\n        /* \"#utility.yul\":27392:27811   */\n      swap2\n      swap1\n      pop\n      jump\t// out\n        /* \"#utility.yul\":27817:28236   */\n    tag_145:\n        /* \"#utility.yul\":27983:27987   */\n      0x00\n        /* \"#utility.yul\":28021:28023   */\n      0x20\n        /* \"#utility.yul\":28010:28019   */\n      dup3\n        /* \"#utility.yul\":28006:28024   */\n      add\n        /* \"#utility.yul\":27998:28024   */\n      swap1\n      pop\n        /* \"#utility.yul\":28070:28079   */\n      dup2\n        /* \"#utility.yul\":28064:28068   */\n      dup2\n        /* \"#utility.yul\":28060:28080   */\n      sub\n        /* \"#utility.yul\":28056:28057   */\n      0x00\n        /* \"#utility.yul\":28045:28054   */\n      dup4\n        /* \"#utility.yul\":28041:28058   */\n      add\n        /* \"#utility.yul\":28034:28081   */\n      mstore\n        /* \"#utility.yul\":28098:28229   */\n      tag_714\n        /* \"#utility.yul\":28224:28228   */\n      dup2\n        /* \"#utility.yul\":28098:28229   */\n      tag_563\n      jump\t// in\n    tag_714:\n        /* \"#utility.yul\":28090:28229   */\n      swap1\n      pop\n        /* \"#utility.yul\":27817:28236   */\n      swap2\n      swap1\n      pop\n      jump\t// out\n        /* \"#utility.yul\":28242:28661   */\n    tag_136:\n        /* \"#utility.yul\":28408:28412   */\n      0x00\n        /* \"#utility.yul\":28446:28448   */\n      0x20\n        /* \"#utility.yul\":28435:28444   */\n      dup3\n        /* \"#utility.yul\":28431:28449   */\n      add\n        /* \"#utility.yul\":28423:28449   */\n      swap1\n      pop\n        /* \"#utility.yul\":28495:28504   */\n      dup2\n        /* \"#utility.yul\":28489:28493   */\n      dup2\n        /* \"#utility.yul\":28485:28505   */\n      sub\n        /* \"#utility.yul\":28481:28482   */\n      0x00\n        /* \"#utility.yul\":28470:28479   */\n      dup4\n        /* \"#utility.yul\":28466:28483   */\n      add\n        /* \"#utility.yul\":28459:28506   */\n      mstore\n        /* \"#utility.yul\":28523:28654   */\n      tag_716\n        /* \"#utility.yul\":28649:28653   */\n      dup2\n        /* \"#utility.yul\":28523:28654   */\n      tag_568\n      jump\t// in\n    tag_716:\n        /* \"#utility.yul\":28515:28654   */\n      swap1\n      pop\n        /* \"#utility.yul\":28242:28661   */\n      swap2\n      swap1\n      pop\n      jump\t// out\n        /* \"#utility.yul\":28667:29086   */\n    tag_235:\n        /* \"#utility.yul\":28833:28837   */\n      0x00\n        /* \"#utility.yul\":28871:28873   */\n      0x20\n        /* \"#utility.yul\":28860:28869   */\n      dup3\n        /* \"#utility.yul\":28856:28874   */\n      add\n        /* \"#utility.yul\":28848:28874   */\n      swap1\n      pop\n        /* \"#utility.yul\":28920:28929   */\n      dup2\n        /* \"#utility.yul\":28914:28918   */\n      dup2\n        /* \"#utility.yul\":28910:28930   */\n      sub\n        /* \"#utility.yul\":28906:28907   */\n      0x00\n        /* \"#utility.yul\":28895:28904   */\n      dup4\n        /* \"#utility.yul\":28891:28908   */\n      add\n        /* \"#utility.yul\":28884:28931   */\n      mstore\n        /* \"#utility.yul\":28948:29079   */\n      tag_718\n        /* \"#utility.yul\":29074:29078   */\n      dup2\n        /* \"#utility.yul\":28948:29079   */\n      tag_573\n      jump\t// in\n    tag_718:\n        /* \"#utility.yul\":28940:29079   */\n      swap1\n      pop\n        /* \"#utility.yul\":28667:29086   */\n      swap2\n      swap1\n      pop\n      jump\t// out\n        /* \"#utility.yul\":29092:29511   */\n    tag_279:\n        /* \"#utility.yul\":29258:29262   */\n      0x00\n        /* \"#utility.yul\":29296:29298   */\n      0x20\n        /* \"#utility.yul\":29285:29294   */\n      dup3\n        /* \"#utility.yul\":29281:29299   */\n      add\n        /* \"#utility.yul\":29273:29299   */\n      swap1\n      pop\n        /* \"#utility.yul\":29345:29354   */\n      dup2\n        /* \"#utility.yul\":29339:29343   */\n      dup2\n        /* \"#utility.yul\":29335:29355   */\n      sub\n        /* \"#utility.yul\":29331:29332   */\n      0x00\n        /* \"#utility.yul\":29320:29329   */\n      dup4\n        /* \"#utility.yul\":29316:29333   */\n      add\n        /* \"#utility.yul\":29309:29356   */\n      mstore\n        /* \"#utility.yul\":29373:29504   */\n      tag_720\n        /* \"#utility.yul\":29499:29503   */\n      dup2\n        /* \"#utility.yul\":29373:29504   */\n      tag_578\n      jump\t// in\n    tag_720:\n        /* \"#utility.yul\":29365:29504   */\n      swap1\n      pop\n        /* \"#utility.yul\":29092:29511   */\n      swap2\n      swap1\n      pop\n      jump\t// out\n        /* \"#utility.yul\":29517:29936   */\n    tag_369:\n        /* \"#utility.yul\":29683:29687   */\n      0x00\n        /* \"#utility.yul\":29721:29723   */\n      0x20\n        /* \"#utility.yul\":29710:29719   */\n      dup3\n        /* \"#utility.yul\":29706:29724   */\n      add\n        /* \"#utility.yul\":29698:29724   */\n      swap1\n      pop\n        /* \"#utility.yul\":29770:29779   */\n      dup2\n        /* \"#utility.yul\":29764:29768   */\n      dup2\n        /* \"#utility.yul\":29760:29780   */\n      sub\n        /* \"#utility.yul\":29756:29757   */\n      0x00\n        /* \"#utility.yul\":29745:29754   */\n      dup4\n        /* \"#utility.yul\":29741:29758   */\n      add\n        /* \"#utility.yul\":29734:29781   */\n      mstore\n        /* \"#utility.yul\":29798:29929   */\n      tag_722\n        /* \"#utility.yul\":29924:29928   */\n      dup2\n        /* \"#utility.yul\":29798:29929   */\n      tag_583\n      jump\t// in\n    tag_722:\n        /* \"#utility.yul\":29790:29929   */\n      swap1\n      pop\n        /* \"#utility.yul\":29517:29936   */\n      swap2\n      swap1\n      pop\n      jump\t// out\n        /* \"#utility.yul\":29942:30361   */\n    tag_198:\n        /* \"#utility.yul\":30108:30112   */\n      0x00\n        /* \"#utility.yul\":30146:30148   */\n      0x20\n        /* \"#utility.yul\":30135:30144   */\n      dup3\n        /* \"#utility.yul\":30131:30149   */\n      add\n        /* \"#utility.yul\":30123:30149   */\n      swap1\n      pop\n        /* \"#utility.yul\":30195:30204   */\n      dup2\n        /* \"#utility.yul\":30189:30193   */\n      dup2\n        /* \"#utility.yul\":30185:30205   */\n      sub\n        /* \"#utility.yul\":30181:30182   */\n      0x00\n        /* \"#utility.yul\":30170:30179   */\n      dup4\n        /* \"#utility.yul\":30166:30183   */\n      add\n        /* \"#utility.yul\":30159:30206   */\n      mstore\n        /* \"#utility.yul\":30223:30354   */\n      tag_724\n        /* \"#utility.yul\":30349:30353   */\n      dup2\n        /* \"#utility.yul\":30223:30354   */\n      tag_588\n      jump\t// in\n    tag_724:\n        /* \"#utility.yul\":30215:30354   */\n      swap1\n      pop\n        /* \"#utility.yul\":29942:30361   */\n      swap2\n      swap1\n      pop\n      jump\t// out\n        /* \"#utility.yul\":30367:30786   */\n    tag_188:\n        /* \"#utility.yul\":30533:30537   */\n      0x00\n        /* \"#utility.yul\":30571:30573   */\n      0x20\n        /* \"#utility.yul\":30560:30569   */\n      dup3\n        /* \"#utility.yul\":30556:30574   */\n      add\n        /* \"#utility.yul\":30548:30574   */\n      swap1\n      pop\n        /* \"#utility.yul\":30620:30629   */\n      dup2\n        /* \"#utility.yul\":30614:30618   */\n      dup2\n        /* \"#utility.yul\":30610:30630   */\n      sub\n        /* \"#utility.yul\":30606:30607   */\n      0x00\n        /* \"#utility.yul\":30595:30604   */\n      dup4\n        /* \"#utility.yul\":30591:30608   */\n      add\n        /* \"#utility.yul\":30584:30631   */\n      mstore\n        /* \"#utility.yul\":30648:30779   */\n      tag_726\n        /* \"#utility.yul\":30774:30778   */\n      dup2\n        /* \"#utility.yul\":30648:30779   */\n      tag_593\n      jump\t// in\n    tag_726:\n        /* \"#utility.yul\":30640:30779   */\n      swap1\n      pop\n        /* \"#utility.yul\":30367:30786   */\n      swap2\n      swap1\n      pop\n      jump\t// out\n        /* \"#utility.yul\":30792:31211   */\n    tag_205:\n        /* \"#utility.yul\":30958:30962   */\n      0x00\n        /* \"#utility.yul\":30996:30998   */\n      0x20\n        /* \"#utility.yul\":30985:30994   */\n      dup3\n        /* \"#utility.yul\":30981:30999   */\n      add\n        /* \"#utility.yul\":30973:30999   */\n      swap1\n      pop\n        /* \"#utility.yul\":31045:31054   */\n      dup2\n        /* \"#utility.yul\":31039:31043   */\n      dup2\n        /* \"#utility.yul\":31035:31055   */\n      sub\n        /* \"#utility.yul\":31031:31032   */\n      0x00\n        /* \"#utility.yul\":31020:31029   */\n      dup4\n        /* \"#utility.yul\":31016:31033   */\n      add\n        /* \"#utility.yul\":31009:31056   */\n      mstore\n        /* \"#utility.yul\":31073:31204   */\n      tag_728\n        /* \"#utility.yul\":31199:31203   */\n      dup2\n        /* \"#utility.yul\":31073:31204   */\n      tag_604\n      jump\t// in\n    tag_728:\n        /* \"#utility.yul\":31065:31204   */\n      swap1\n      pop\n        /* \"#utility.yul\":30792:31211   */\n      swap2\n      swap1\n      pop\n      jump\t// out\n        /* \"#utility.yul\":31217:31636   */\n    tag_305:\n        /* \"#utility.yul\":31383:31387   */\n      0x00\n        /* \"#utility.yul\":31421:31423   */\n      0x20\n        /* \"#utility.yul\":31410:31419   */\n      dup3\n        /* \"#utility.yul\":31406:31424   */\n      add\n        /* \"#utility.yul\":31398:31424   */\n      swap1\n      pop\n        /* \"#utility.yul\":31470:31479   */\n      dup2\n        /* \"#utility.yul\":31464:31468   */\n      dup2\n        /* \"#utility.yul\":31460:31480   */\n      sub\n        /* \"#utility.yul\":31456:31457   */\n      0x00\n        /* \"#utility.yul\":31445:31454   */\n      dup4\n        /* \"#utility.yul\":31441:31458   */\n      add\n        /* \"#utility.yul\":31434:31481   */\n      mstore\n        /* \"#utility.yul\":31498:31629   */\n      tag_730\n        /* \"#utility.yul\":31624:31628   */\n      dup2\n        /* \"#utility.yul\":31498:31629   */\n      tag_609\n      jump\t// in\n    tag_730:\n        /* \"#utility.yul\":31490:31629   */\n      swap1\n      pop\n        /* \"#utility.yul\":31217:31636   */\n      swap2\n      swap1\n      pop\n      jump\t// out\n        /* \"#utility.yul\":31642:32061   */\n    tag_413:\n        /* \"#utility.yul\":31808:31812   */\n      0x00\n        /* \"#utility.yul\":31846:31848   */\n      0x20\n        /* \"#utility.yul\":31835:31844   */\n      dup3\n        /* \"#utility.yul\":31831:31849   */\n      add\n        /* \"#utility.yul\":31823:31849   */\n      swap1\n      pop\n        /* \"#utility.yul\":31895:31904   */\n      dup2\n        /* \"#utility.yul\":31889:31893   */\n      dup2\n        /* \"#utility.yul\":31885:31905   */\n      sub\n        /* \"#utility.yul\":31881:31882   */\n      0x00\n        /* \"#utility.yul\":31870:31879   */\n      dup4\n        /* \"#utility.yul\":31866:31883   */\n      add\n        /* \"#utility.yul\":31859:31906   */\n      mstore\n        /* \"#utility.yul\":31923:32054   */\n      tag_732\n        /* \"#utility.yul\":32049:32053   */\n      dup2\n        /* \"#utility.yul\":31923:32054   */\n      tag_614\n      jump\t// in\n    tag_732:\n        /* \"#utility.yul\":31915:32054   */\n      swap1\n      pop\n        /* \"#utility.yul\":31642:32061   */\n      swap2\n      swap1\n      pop\n      jump\t// out\n        /* \"#utility.yul\":32067:32386   */\n    tag_82:\n        /* \"#utility.yul\":32208:32212   */\n      0x00\n        /* \"#utility.yul\":32246:32249   */\n      0xe0\n        /* \"#utility.yul\":32235:32244   */\n      dup3\n        /* \"#utility.yul\":32231:32250   */\n      add\n        /* \"#utility.yul\":32223:32250   */\n      swap1\n      pop\n        /* \"#utility.yul\":32260:32379   */\n      tag_734\n        /* \"#utility.yul\":32376:32377   */\n      0x00\n        /* \"#utility.yul\":32365:32374   */\n      dup4\n        /* \"#utility.yul\":32361:32378   */\n      add\n        /* \"#utility.yul\":32352:32358   */\n      dup5\n        /* \"#utility.yul\":32260:32379   */\n      tag_619\n      jump\t// in\n    tag_734:\n        /* \"#utility.yul\":32067:32386   */\n      swap3\n      swap2\n      pop\n      pop\n      jump\t// out\n        /* \"#utility.yul\":32392:32719   */\n    tag_103:\n        /* \"#utility.yul\":32537:32541   */\n      0x00\n        /* \"#utility.yul\":32575:32578   */\n      0x80\n        /* \"#utility.yul\":32564:32573   */\n      dup3\n        /* \"#utility.yul\":32560:32579   */\n      add\n        /* \"#utility.yul\":32552:32579   */\n      swap1\n      pop\n        /* \"#utility.yul\":32589:32712   */\n      tag_736\n        /* \"#utility.yul\":32709:32710   */\n      0x00\n        /* \"#utility.yul\":32698:32707   */\n      dup4\n        /* \"#utility.yul\":32694:32711   */\n      add\n        /* \"#utility.yul\":32685:32691   */\n      dup5\n        /* \"#utility.yul\":32589:32712   */\n      tag_629\n      jump\t// in\n    tag_736:\n        /* \"#utility.yul\":32392:32719   */\n      swap3\n      swap2\n      pop\n      pop\n      jump\t// out\n        /* \"#utility.yul\":32725:32947   */\n    tag_71:\n        /* \"#utility.yul\":32818:32822   */\n      0x00\n        /* \"#utility.yul\":32856:32858   */\n      0x20\n        /* \"#utility.yul\":32845:32854   */\n      dup3\n        /* \"#utility.yul\":32841:32859   */\n      add\n        /* \"#utility.yul\":32833:32859   */\n      swap1\n      pop\n        /* \"#utility.yul\":32869:32940   */\n      tag_738\n        /* \"#utility.yul\":32937:32938   */\n      0x00\n        /* \"#utility.yul\":32926:32935   */\n      dup4\n        /* \"#utility.yul\":32922:32939   */\n      add\n        /* \"#utility.yul\":32913:32919   */\n      dup5\n        /* \"#utility.yul\":32869:32940   */\n      tag_641\n      jump\t// in\n    tag_738:\n        /* \"#utility.yul\":32725:32947   */\n      swap3\n      swap2\n      pop\n      pop\n      jump\t// out\n        /* \"#utility.yul\":33034:33191   */\n    tag_517:\n        /* \"#utility.yul\":33126:33130   */\n      0x00\n        /* \"#utility.yul\":33149:33152   */\n      dup2\n        /* \"#utility.yul\":33141:33152   */\n      swap1\n      pop\n        /* \"#utility.yul\":33179:33183   */\n      0x20\n        /* \"#utility.yul\":33174:33177   */\n      dup3\n        /* \"#utility.yul\":33170:33184   */\n      add\n        /* \"#utility.yul\":33162:33184   */\n      swap1\n      pop\n        /* \"#utility.yul\":33034:33191   */\n      swap2\n      swap1\n      pop\n      jump\t// out\n        /* \"#utility.yul\":33197:33336   */\n    tag_513:\n        /* \"#utility.yul\":33289:33295   */\n      0x00\n        /* \"#utility.yul\":33323:33328   */\n      dup2\n        /* \"#utility.yul\":33317:33329   */\n      mload\n        /* \"#utility.yul\":33307:33329   */\n      swap1\n      pop\n        /* \"#utility.yul\":33197:33336   */\n      swap2\n      swap1\n      pop\n      jump\t// out\n        /* \"#utility.yul\":33342:33480   */\n    tag_523:\n        /* \"#utility.yul\":33437:33441   */\n      0x00\n        /* \"#utility.yul\":33469:33473   */\n      0x20\n        /* \"#utility.yul\":33464:33467   */\n      dup3\n        /* \"#utility.yul\":33460:33474   */\n      add\n        /* \"#utility.yul\":33452:33474   */\n      swap1\n      pop\n        /* \"#utility.yul\":33342:33480   */\n      swap2\n      swap1\n      pop\n      jump\t// out\n        /* \"#utility.yul\":33486:33695   */\n    tag_515:\n        /* \"#utility.yul\":33610:33621   */\n      0x00\n        /* \"#utility.yul\":33644:33650   */\n      dup3\n        /* \"#utility.yul\":33639:33642   */\n      dup3\n        /* \"#utility.yul\":33632:33651   */\n      mstore\n        /* \"#utility.yul\":33684:33688   */\n      0x20\n        /* \"#utility.yul\":33679:33682   */\n      dup3\n        /* \"#utility.yul\":33675:33689   */\n      add\n        /* \"#utility.yul\":33660:33689   */\n      swap1\n      pop\n        /* \"#utility.yul\":33486:33695   */\n      swap3\n      swap2\n      pop\n      pop\n      jump\t// out\n        /* \"#utility.yul\":33701:33848   */\n    tag_601:\n        /* \"#utility.yul\":33802:33813   */\n      0x00\n        /* \"#utility.yul\":33839:33842   */\n      dup2\n        /* \"#utility.yul\":33824:33842   */\n      swap1\n      pop\n        /* \"#utility.yul\":33701:33848   */\n      swap3\n      swap2\n      pop\n      pop\n      jump\t// out\n        /* \"#utility.yul\":33854:34023   */\n    tag_535:\n        /* \"#utility.yul\":33938:33949   */\n      0x00\n        /* \"#utility.yul\":33972:33978   */\n      dup3\n        /* \"#utility.yul\":33967:33970   */\n      dup3\n        /* \"#utility.yul\":33960:33979   */\n      mstore\n        /* \"#utility.yul\":34012:34016   */\n      0x20\n        /* \"#utility.yul\":34007:34010   */\n      dup3\n        /* \"#utility.yul\":34003:34017   */\n      add\n        /* \"#utility.yul\":33988:34017   */\n      swap1\n      pop\n        /* \"#utility.yul\":33854:34023   */\n      swap3\n      swap2\n      pop\n      pop\n      jump\t// out\n        /* \"#utility.yul\":34029:34334   */\n    tag_372:\n        /* \"#utility.yul\":34069:34072   */\n      0x00\n        /* \"#utility.yul\":34088:34108   */\n      tag_748\n        /* \"#utility.yul\":34106:34107   */\n      dup3\n        /* \"#utility.yul\":34088:34108   */\n      tag_640\n      jump\t// in\n    tag_748:\n        /* \"#utility.yul\":34083:34108   */\n      swap2\n      pop\n        /* \"#utility.yul\":34122:34142   */\n      tag_749\n        /* \"#utility.yul\":34140:34141   */\n      dup4\n        /* \"#utility.yul\":34122:34142   */\n      tag_640\n      jump\t// in\n    tag_749:\n        /* \"#utility.yul\":34117:34142   */\n      swap3\n      pop\n        /* \"#utility.yul\":34276:34277   */\n      dup3\n        /* \"#utility.yul\":34208:34274   */\n      0xffffffffffffffffffffffffffffffffffffffffffffffffffffffffffffffff\n        /* \"#utility.yul\":34204:34278   */\n      sub\n        /* \"#utility.yul\":34201:34202   */\n      dup3\n        /* \"#utility.yul\":34198:34279   */\n      gt\n        /* \"#utility.yul\":34195:34302   */\n      iszero\n      tag_750\n      jumpi\n        /* \"#utility.yul\":34282:34300   */\n      tag_751\n      tag_752\n      jump\t// in\n    tag_751:\n        /* \"#utility.yul\":34195:34302   */\n    tag_750:\n        /* \"#utility.yul\":34326:34327   */\n      dup3\n        /* \"#utility.yul\":34323:34324   */\n      dup3\n        /* \"#utility.yul\":34319:34328   */\n      add\n        /* \"#utility.yul\":34312:34328   */\n      swap1\n      pop\n        /* \"#utility.yul\":34029:34334   */\n      swap3\n      swap2\n      pop\n      pop\n      jump\t// out\n        /* \"#utility.yul\":34340:34436   */\n    tag_506:\n        /* \"#utility.yul\":34377:34384   */\n      0x00\n        /* \"#utility.yul\":34406:34430   */\n      tag_754\n        /* \"#utility.yul\":34424:34429   */\n      dup3\n        /* \"#utility.yul\":34406:34430   */\n      tag_755\n      jump\t// in\n    tag_754:\n        /* \"#utility.yul\":34395:34430   */\n      swap1\n      pop\n        /* \"#utility.yul\":34340:34436   */\n      swap2\n      swap1\n      pop\n      jump\t// out\n        /* \"#utility.yul\":34442:34532   */\n    tag_527:\n        /* \"#utility.yul\":34476:34483   */\n      0x00\n        /* \"#utility.yul\":34519:34524   */\n      dup2\n        /* \"#utility.yul\":34512:34525   */\n      iszero\n        /* \"#utility.yul\":34505:34526   */\n      iszero\n        /* \"#utility.yul\":34494:34526   */\n      swap1\n      pop\n        /* \"#utility.yul\":34442:34532   */\n      swap2\n      swap1\n      pop\n      jump\t// out\n        /* \"#utility.yul\":34538:34687   */\n    tag_531:\n        /* \"#utility.yul\":34574:34581   */\n      0x00\n        /* \"#utility.yul\":34614:34680   */\n      0xffffffff00000000000000000000000000000000000000000000000000000000\n        /* \"#utility.yul\":34607:34612   */\n      dup3\n        /* \"#utility.yul\":34603:34681   */\n      and\n        /* \"#utility.yul\":34592:34681   */\n      swap1\n      pop\n        /* \"#utility.yul\":34538:34687   */\n      swap2\n      swap1\n      pop\n      jump\t// out\n        /* \"#utility.yul\":34693:34819   */\n    tag_755:\n        /* \"#utility.yul\":34730:34737   */\n      0x00\n        /* \"#utility.yul\":34770:34812   */\n      0xffffffffffffffffffffffffffffffffffffffff\n        /* \"#utility.yul\":34763:34768   */\n      dup3\n        /* \"#utility.yul\":34759:34813   */\n      and\n        /* \"#utility.yul\":34748:34813   */\n      swap1\n      pop\n        /* \"#utility.yul\":34693:34819   */\n      swap2\n      swap1\n      pop\n      jump\t// out\n        /* \"#utility.yul\":34825:34902   */\n    tag_640:\n        /* \"#utility.yul\":34862:34869   */\n      0x00\n        /* \"#utility.yul\":34891:34896   */\n      dup2\n        /* \"#utility.yul\":34880:34896   */\n      swap1\n      pop\n        /* \"#utility.yul\":34825:34902   */\n      swap2\n      swap1\n      pop\n      jump\t// out\n        /* \"#utility.yul\":34908:35088   */\n    tag_752:\n        /* \"#utility.yul\":34956:35033   */\n      0x4e487b7100000000000000000000000000000000000000000000000000000000\n        /* \"#utility.yul\":34953:34954   */\n      0x00\n        /* \"#utility.yul\":34946:35034   */\n      mstore\n        /* \"#utility.yul\":35053:35057   */\n      0x11\n        /* \"#utility.yul\":35050:35051   */\n      0x04\n        /* \"#utility.yul\":35043:35058   */\n      mstore\n        /* \"#utility.yul\":35077:35081   */\n      0x24\n        /* \"#utility.yul\":35074:35075   */\n      0x00\n        /* \"#utility.yul\":35067:35082   */\n      revert\n        /* \"#utility.yul\":35094:35274   */\n    tag_219:\n        /* \"#utility.yul\":35142:35219   */\n      0x4e487b7100000000000000000000000000000000000000000000000000000000\n        /* \"#utility.yul\":35139:35140   */\n      0x00\n        /* \"#utility.yul\":35132:35220   */\n      mstore\n        /* \"#utility.yul\":35239:35243   */\n      0x32\n        /* \"#utility.yul\":35236:35237   */\n      0x04\n        /* \"#utility.yul\":35229:35244   */\n      mstore\n        /* \"#utility.yul\":35263:35267   */\n      0x24\n        /* \"#utility.yul\":35260:35261   */\n      0x00\n        /* \"#utility.yul\":35253:35268   */\n      revert\n        /* \"#utility.yul\":35280:35397   */\n    tag_433:\n        /* \"#utility.yul\":35389:35390   */\n      0x00\n        /* \"#utility.yul\":35386:35387   */\n      dup1\n        /* \"#utility.yul\":35379:35391   */\n      revert\n        /* \"#utility.yul\":35403:35520   */\n    tag_430:\n        /* \"#utility.yul\":35512:35513   */\n      0x00\n        /* \"#utility.yul\":35509:35510   */\n      dup1\n        /* \"#utility.yul\":35502:35514   */\n      revert\n        /* \"#utility.yul\":35526:35643   */\n    tag_436:\n        /* \"#utility.yul\":35635:35636   */\n      0x00\n        /* \"#utility.yul\":35632:35633   */\n      dup1\n        /* \"#utility.yul\":35625:35637   */\n      revert\n        /* \"#utility.yul\":35649:35766   */\n    tag_460:\n        /* \"#utility.yul\":35758:35759   */\n      0x00\n        /* \"#utility.yul\":35755:35756   */\n      dup1\n        /* \"#utility.yul\":35748:35760   */\n      revert\n        /* \"#utility.yul\":35772:35889   */\n    tag_444:\n        /* \"#utility.yul\":35881:35882   */\n      0x00\n        /* \"#utility.yul\":35878:35879   */\n      dup1\n        /* \"#utility.yul\":35871:35883   */\n      revert\n        /* \"#utility.yul\":35895:36067   */\n    tag_537:\n        /* \"#utility.yul\":36035:36059   */\n      0x596f752061726520686967686573742062696464657200000000000000000000\n        /* \"#utility.yul\":36031:36032   */\n      0x00\n        /* \"#utility.yul\":36023:36029   */\n      dup3\n        /* \"#utility.yul\":36019:36033   */\n      add\n        /* \"#utility.yul\":36012:36060   */\n      mstore\n        /* \"#utility.yul\":35895:36067   */\n      pop\n      jump\t// out\n        /* \"#utility.yul\":36073:36251   */\n    tag_542:\n        /* \"#utility.yul\":36213:36243   */\n      0x4e6674206e6f7420617070726f76656420746f20636f6e747261637400000000\n        /* \"#utility.yul\":36209:36210   */\n      0x00\n        /* \"#utility.yul\":36201:36207   */\n      dup3\n        /* \"#utility.yul\":36197:36211   */\n      add\n        /* \"#utility.yul\":36190:36244   */\n      mstore\n        /* \"#utility.yul\":36073:36251   */\n      pop\n      jump\t// out\n        /* \"#utility.yul\":36257:36424   */\n    tag_547:\n        /* \"#utility.yul\":36397:36416   */\n      0x50726963652063616e6e6f742062652030000000000000000000000000000000\n        /* \"#utility.yul\":36393:36394   */\n      0x00\n        /* \"#utility.yul\":36385:36391   */\n      dup3\n        /* \"#utility.yul\":36381:36395   */\n      add\n        /* \"#utility.yul\":36374:36417   */\n      mstore\n        /* \"#utility.yul\":36257:36424   */\n      pop\n      jump\t// out\n        /* \"#utility.yul\":36430:36593   */\n    tag_552:\n        /* \"#utility.yul\":36570:36585   */\n      0x6e6f74206e6674206f776e657200000000000000000000000000000000000000\n        /* \"#utility.yul\":36566:36567   */\n      0x00\n        /* \"#utility.yul\":36558:36564   */\n      dup3\n        /* \"#utility.yul\":36554:36568   */\n      add\n        /* \"#utility.yul\":36547:36586   */\n      mstore\n        /* \"#utility.yul\":36430:36593   */\n      pop\n      jump\t// out\n        /* \"#utility.yul\":36599:36770   */\n    tag_557:\n        /* \"#utility.yul\":36739:36762   */\n      0x4e6674206e6f7420696e2066697865642073616c650000000000000000000000\n        /* \"#utility.yul\":36735:36736   */\n      0x00\n        /* \"#utility.yul\":36727:36733   */\n      dup3\n        /* \"#utility.yul\":36723:36737   */\n      add\n        /* \"#utility.yul\":36716:36763   */\n      mstore\n        /* \"#utility.yul\":36599:36770   */\n      pop\n      jump\t// out\n        /* \"#utility.yul\":36776:36949   */\n    tag_562:\n        /* \"#utility.yul\":36916:36941   */\n      0x4e6674206e6f7420696e2061756374696f6e2073616c65000000000000000000\n        /* \"#utility.yul\":36912:36913   */\n      0x00\n        /* \"#utility.yul\":36904:36910   */\n      dup3\n        /* \"#utility.yul\":36900:36914   */\n      add\n        /* \"#utility.yul\":36893:36942   */\n      mstore\n        /* \"#utility.yul\":36776:36949   */\n      pop\n      jump\t// out\n        /* \"#utility.yul\":36955:37134   */\n    tag_567:\n        /* \"#utility.yul\":37095:37126   */\n      0x4269642047726561746572207468616e2050726576696f757320426964000000\n        /* \"#utility.yul\":37091:37092   */\n      0x00\n        /* \"#utility.yul\":37083:37089   */\n      dup3\n        /* \"#utility.yul\":37079:37093   */\n      add\n        /* \"#utility.yul\":37072:37127   */\n      mstore\n        /* \"#utility.yul\":36955:37134   */\n      pop\n      jump\t// out\n        /* \"#utility.yul\":37140:37301   */\n    tag_572:\n        /* \"#utility.yul\":37280:37293   */\n      0x41756374696f6e20656e64000000000000000000000000000000000000000000\n        /* \"#utility.yul\":37276:37277   */\n      0x00\n        /* \"#utility.yul\":37268:37274   */\n      dup3\n        /* \"#utility.yul\":37264:37278   */\n      add\n        /* \"#utility.yul\":37257:37294   */\n      mstore\n        /* \"#utility.yul\":37140:37301   */\n      pop\n      jump\t// out\n        /* \"#utility.yul\":37307:37476   */\n    tag_577:\n        /* \"#utility.yul\":37447:37468   */\n      0x4e667420616c726561647920696e2073616c6500000000000000000000000000\n        /* \"#utility.yul\":37443:37444   */\n      0x00\n        /* \"#utility.yul\":37435:37441   */\n      dup3\n        /* \"#utility.yul\":37431:37445   */\n      add\n        /* \"#utility.yul\":37424:37469   */\n      mstore\n        /* \"#utility.yul\":37307:37476   */\n      pop\n      jump\t// out\n        /* \"#utility.yul\":37482:37640   */\n    tag_582:\n        /* \"#utility.yul\":37622:37632   */\n      0x626964206d616b65000000000000000000000000000000000000000000000000\n        /* \"#utility.yul\":37618:37619   */\n      0x00\n        /* \"#utility.yul\":37610:37616   */\n      dup3\n        /* \"#utility.yul\":37606:37620   */\n      add\n        /* \"#utility.yul\":37599:37633   */\n      mstore\n        /* \"#utility.yul\":37482:37640   */\n      pop\n      jump\t// out\n        /* \"#utility.yul\":37646:37816   */\n    tag_587:\n        /* \"#utility.yul\":37786:37808   */\n      0x616c6c6f77616e6365206e6f7420656e6f756768000000000000000000000000\n        /* \"#utility.yul\":37782:37783   */\n      0x00\n        /* \"#utility.yul\":37774:37780   */\n      dup3\n        /* \"#utility.yul\":37770:37784   */\n      add\n        /* \"#utility.yul\":37763:37809   */\n      mstore\n        /* \"#utility.yul\":37646:37816   */\n      pop\n      jump\t// out\n        /* \"#utility.yul\":37822:37987   */\n    tag_592:\n        /* \"#utility.yul\":37962:37979   */\n      0x41756374696f6e206e6f7420656e640000000000000000000000000000000000\n        /* \"#utility.yul\":37958:37959   */\n      0x00\n        /* \"#utility.yul\":37950:37956   */\n      dup3\n        /* \"#utility.yul\":37946:37960   */\n      add\n        /* \"#utility.yul\":37939:37980   */\n      mstore\n        /* \"#utility.yul\":37822:37987   */\n      pop\n      jump\t// out\n        /* \"#utility.yul\":37993:38164   */\n    tag_597:\n        /* \"#utility.yul\":38133:38156   */\n      0x596f7520617265206e6f74206e6674206f776e65720000000000000000000000\n        /* \"#utility.yul\":38129:38130   */\n      0x00\n        /* \"#utility.yul\":38121:38127   */\n      dup3\n        /* \"#utility.yul\":38117:38131   */\n      add\n        /* \"#utility.yul\":38110:38157   */\n      mstore\n        /* \"#utility.yul\":37993:38164   */\n      pop\n      jump\t// out\n        /* \"#utility.yul\":38170:38284   */\n    tag_603:\n      pop\n      jump\t// out\n        /* \"#utility.yul\":38290:38459   */\n    tag_608:\n        /* \"#utility.yul\":38430:38451   */\n      0x6e6f7468696e6720746f20776974686472617700000000000000000000000000\n        /* \"#utility.yul\":38426:38427   */\n      0x00\n        /* \"#utility.yul\":38418:38424   */\n      dup3\n        /* \"#utility.yul\":38414:38428   */\n      add\n        /* \"#utility.yul\":38407:38452   */\n      mstore\n        /* \"#utility.yul\":38290:38459   */\n      pop\n      jump\t// out\n        /* \"#utility.yul\":38465:38635   */\n    tag_613:\n        /* \"#utility.yul\":38605:38627   */\n      0x627579205072696365206e6f7420656e6f756768000000000000000000000000\n        /* \"#utility.yul\":38601:38602   */\n      0x00\n        /* \"#utility.yul\":38593:38599   */\n      dup3\n        /* \"#utility.yul\":38589:38603   */\n      add\n        /* \"#utility.yul\":38582:38628   */\n      mstore\n        /* \"#utility.yul\":38465:38635   */\n      pop\n      jump\t// out\n        /* \"#utility.yul\":38641:38804   */\n    tag_618:\n        /* \"#utility.yul\":38781:38796   */\n      0x726566756e64206661696c656400000000000000000000000000000000000000\n        /* \"#utility.yul\":38777:38778   */\n      0x00\n        /* \"#utility.yul\":38769:38775   */\n      dup3\n        /* \"#utility.yul\":38765:38779   */\n      add\n        /* \"#utility.yul\":38758:38797   */\n      mstore\n        /* \"#utility.yul\":38641:38804   */\n      pop\n      jump\t// out\n        /* \"#utility.yul\":38810:38932   */\n    tag_418:\n        /* \"#utility.yul\":38883:38907   */\n      tag_785\n        /* \"#utility.yul\":38901:38906   */\n      dup2\n        /* \"#utility.yul\":38883:38907   */\n      tag_506\n      jump\t// in\n    tag_785:\n        /* \"#utility.yul\":38876:38881   */\n      dup2\n        /* \"#utility.yul\":38873:38908   */\n      eq\n        /* \"#utility.yul\":38863:38926   */\n      tag_786\n      jumpi\n        /* \"#utility.yul\":38922:38923   */\n      0x00\n        /* \"#utility.yul\":38919:38920   */\n      dup1\n        /* \"#utility.yul\":38912:38924   */\n      revert\n        /* \"#utility.yul\":38863:38926   */\n    tag_786:\n        /* \"#utility.yul\":38810:38932   */\n      pop\n      jump\t// out\n        /* \"#utility.yul\":38938:39054   */\n    tag_425:\n        /* \"#utility.yul\":39008:39029   */\n      tag_788\n        /* \"#utility.yul\":39023:39028   */\n      dup2\n        /* \"#utility.yul\":39008:39029   */\n      tag_527\n      jump\t// in\n    tag_788:\n        /* \"#utility.yul\":39001:39006   */\n      dup2\n        /* \"#utility.yul\":38998:39030   */\n      eq\n        /* \"#utility.yul\":38988:39048   */\n      tag_789\n      jumpi\n        /* \"#utility.yul\":39044:39045   */\n      0x00\n        /* \"#utility.yul\":39041:39042   */\n      dup1\n        /* \"#utility.yul\":39034:39046   */\n      revert\n        /* \"#utility.yul\":38988:39048   */\n    tag_789:\n        /* \"#utility.yul\":38938:39054   */\n      pop\n      jump\t// out\n        /* \"#utility.yul\":39060:39182   */\n    tag_440:\n        /* \"#utility.yul\":39133:39157   */\n      tag_791\n        /* \"#utility.yul\":39151:39156   */\n      dup2\n        /* \"#utility.yul\":39133:39157   */\n      tag_640\n      jump\t// in\n    tag_791:\n        /* \"#utility.yul\":39126:39131   */\n      dup2\n        /* \"#utility.yul\":39123:39158   */\n      eq\n        /* \"#utility.yul\":39113:39176   */\n      tag_792\n      jumpi\n        /* \"#utility.yul\":39172:39173   */\n      0x00\n        /* \"#utility.yul\":39169:39170   */\n      dup1\n        /* \"#utility.yul\":39162:39174   */\n      revert\n        /* \"#utility.yul\":39113:39176   */\n    tag_792:\n        /* \"#utility.yul\":39060:39182   */\n      pop\n      jump\t// out\n\n    auxdata: 0xa2646970667358221220549cec211077faae84f7999828d35278eac7274866c80ebecbc5c84faba416ad64736f6c63430008070033\n}\n",
				"bytecode": {
					"linkReferences": {},
					"object": "608060405234801561001057600080fd5b506153fd806100206000396000f3fe6080604052600436106101175760003560e01c806369a6d12e116100a05780638c3417da116100645780638c3417da146103c15780639f085a00146103fe578063baf4371e14610429578063cf42b7e614610445578063d3a6a6c91461046e5761011e565b806369a6d12e146102b85780636f8c9b1b146102e15780636fe02f241461031e5780637ad47a211461035b578063842bc46a146103985761011e565b80633a713db8116100e75780633a713db8146101e45780634676adca146102005780634cb8ef5b146102295780635138b08c146102525780636916462f1461027b5761011e565b8062e2097c14610123578063150b7a02146101605780631bdae6f11461019d5780631e7a044f146101b95761011e565b3661011e57005b600080fd5b34801561012f57600080fd5b5061014a600480360381019061014591906142e0565b610497565b6040516101579190614cd2565b60405180910390f35b34801561016c57600080fd5b5061018760048036038101906101829190614333565b61054d565b6040516101949190614ced565b60405180910390f35b6101b760048036038101906101b29190614542565b610562565b005b3480156101c557600080fd5b506101ce610b99565b6040516101db9190614cb0565b60405180910390f35b6101fe60048036038101906101f99190614542565b610c58565b005b34801561020c57600080fd5b5061022760048036038101906102229190614542565b6113f1565b005b34801561023557600080fd5b50610250600480360381019061024b91906144af565b611648565b005b34801561025e57600080fd5b50610279600480360381019061027491906144af565b611965565b005b34801561028757600080fd5b506102a2600480360381019061029d91906144af565b611dac565b6040516102af9190614f3e565b60405180910390f35b3480156102c457600080fd5b506102df60048036038101906102da91906143bb565b611dd1565b005b3480156102ed57600080fd5b50610308600480360381019061030391906144af565b612419565b6040516103159190614f08565b60405180910390f35b34801561032a57600080fd5b50610345600480360381019061034091906144ef565b6125ae565b6040516103529190614f3e565b60405180910390f35b34801561036757600080fd5b50610382600480360381019061037d91906142e0565b6125e0565b60405161038f9190614cd2565b60405180910390f35b3480156103a457600080fd5b506103bf60048036038101906103ba91906144af565b612696565b005b3480156103cd57600080fd5b506103e860048036038101906103e391906144af565b612b38565b6040516103f59190614f23565b60405180910390f35b34801561040a57600080fd5b50610413612cae565b6040516104209190614cb0565b60405180910390f35b610443600480360381019061043e9190614542565b612d6d565b005b34801561045157600080fd5b5061046c60048036038101906104679190614422565b613261565b005b34801561047a57600080fd5b50610495600480360381019061049091906144af565b613661565b005b6000808490508073ffffffffffffffffffffffffffffffffffffffff166323b872dd732258c5b9c82ff0fa923756ed3fd2acb5616df57c86866040518463ffffffff1660e01b81526004016104ee93929190614b05565b602060405180830381600087803b15801561050857600080fd5b505af115801561051c573d6000803e3d6000fd5b505050506040513d601f19601f820116820180604052508101906105409190614595565b5060019150509392505050565b600063150b7a0260e01b905095945050505050565b828260028060008473ffffffffffffffffffffffffffffffffffffffff1673ffffffffffffffffffffffffffffffffffffffff168152602001908152602001600020600083815260200190815260200160002054146105f6576040517f08c379a00000000000000000000000000000000000000000000000000000000081526004016105ed90614da8565b60405180910390fd5b8484600160008373ffffffffffffffffffffffffffffffffffffffff1673ffffffffffffffffffffffffffffffffffffffff168152602001908152602001600020600082815260200190815260200160002060010154421061068d576040517f08c379a000000000000000000000000000000000000000000000000000000000815260040161068490614de8565b60405180910390fd5b84600081116106d1576040517f08c379a00000000000000000000000000000000000000000000000000000000081526004016106c890614d48565b60405180910390fd5b87873488600073ffffffffffffffffffffffffffffffffffffffff16600160008673ffffffffffffffffffffffffffffffffffffffff1673ffffffffffffffffffffffffffffffffffffffff168152602001908152602001600020600085815260200190815260200160002060060160009054906101000a900473ffffffffffffffffffffffffffffffffffffffff1673ffffffffffffffffffffffffffffffffffffffff16141561081757600160008573ffffffffffffffffffffffffffffffffffffffff1673ffffffffffffffffffffffffffffffffffffffff1681526020019081526020016000206000848152602001908152602001600020600301548211610812576040517f08c379a000000000000000000000000000000000000000000000000000000000815260040161080990614dc8565b60405180910390fd5b6108ad565b600160008573ffffffffffffffffffffffffffffffffffffffff1673ffffffffffffffffffffffffffffffffffffffff16815260200190815260200160002060008481526020019081526020016000206003015481116108ac576040517f08c379a00000000000000000000000000000000000000000000000000000000081526004016108a390614dc8565b60405180910390fd5b5b600073ffffffffffffffffffffffffffffffffffffffff16600160008e73ffffffffffffffffffffffffffffffffffffffff1673ffffffffffffffffffffffffffffffffffffffff16815260200190815260200160002060008d815260200190815260200160002060060160009054906101000a900473ffffffffffffffffffffffffffffffffffffffff1673ffffffffffffffffffffffffffffffffffffffff16146109d2576109d18a600160008f73ffffffffffffffffffffffffffffffffffffffff1673ffffffffffffffffffffffffffffffffffffffff16815260200190815260200160002060008e815260200190815260200160002060060160009054906101000a900473ffffffffffffffffffffffffffffffffffffffff16613984565b5b89600160008e73ffffffffffffffffffffffffffffffffffffffff1673ffffffffffffffffffffffffffffffffffffffff16815260200190815260200160002060008d81526020019081526020016000206003018190555033600160008e73ffffffffffffffffffffffffffffffffffffffff1673ffffffffffffffffffffffffffffffffffffffff16815260200190815260200160002060008d815260200190815260200160002060040160006101000a81548173ffffffffffffffffffffffffffffffffffffffff021916908373ffffffffffffffffffffffffffffffffffffffff16021790555089600360008e73ffffffffffffffffffffffffffffffffffffffff1673ffffffffffffffffffffffffffffffffffffffff16815260200190815260200160002060008d815260200190815260200160002060003373ffffffffffffffffffffffffffffffffffffffff1673ffffffffffffffffffffffffffffffffffffffff168152602001908152602001600020819055507fd56cb6210c78740462007b728932c802bc41b205ed5c8a98ab95421eaf054b228c8c8c33604051610b839493929190614c6b565b60405180910390a1505050505050505050505050565b60606007805480602002602001604051908101604052809291908181526020016000905b82821015610c4f57838290600052602060002090600202016040518060400160405290816000820160009054906101000a900473ffffffffffffffffffffffffffffffffffffffff1673ffffffffffffffffffffffffffffffffffffffff1673ffffffffffffffffffffffffffffffffffffffff16815260200160018201548152505081526020019060010190610bbd565b50505050905090565b828260028060008473ffffffffffffffffffffffffffffffffffffffff1673ffffffffffffffffffffffffffffffffffffffff16815260200190815260200160002060008381526020019081526020016000205414610cec576040517f08c379a0000000000000000000000000000000000000000000000000000000008152600401610ce390614da8565b60405180910390fd5b8484600160008373ffffffffffffffffffffffffffffffffffffffff1673ffffffffffffffffffffffffffffffffffffffff1681526020019081526020016000206000828152602001908152602001600020600101544210610d83576040517f08c379a0000000000000000000000000000000000000000000000000000000008152600401610d7a90614de8565b60405180910390fd5b3460008111610dc7576040517f08c379a0000000000000000000000000000000000000000000000000000000008152600401610dbe90614d48565b60405180910390fd5b8787348860008073ffffffffffffffffffffffffffffffffffffffff16600160008773ffffffffffffffffffffffffffffffffffffffff1673ffffffffffffffffffffffffffffffffffffffff168152602001908152602001600020600086815260200190815260200160002060060160009054906101000a900473ffffffffffffffffffffffffffffffffffffffff1673ffffffffffffffffffffffffffffffffffffffff161415610f1b57610f1483600360008873ffffffffffffffffffffffffffffffffffffffff1673ffffffffffffffffffffffffffffffffffffffff168152602001908152602001600020600087815260200190815260200160002060003373ffffffffffffffffffffffffffffffffffffffff1673ffffffffffffffffffffffffffffffffffffffff16815260200190815260200160002054613a5690919063ffffffff16565b9050610fbe565b610fbb82600360008873ffffffffffffffffffffffffffffffffffffffff1673ffffffffffffffffffffffffffffffffffffffff168152602001908152602001600020600087815260200190815260200160002060003373ffffffffffffffffffffffffffffffffffffffff1673ffffffffffffffffffffffffffffffffffffffff16815260200190815260200160002054613a5690919063ffffffff16565b90505b600160008673ffffffffffffffffffffffffffffffffffffffff1673ffffffffffffffffffffffffffffffffffffffff1681526020019081526020016000206000858152602001908152602001600020600301548111611053576040517f08c379a000000000000000000000000000000000000000000000000000000000815260040161104a90614dc8565b60405180910390fd5b60008d905060008d905060006110ff8e600360008673ffffffffffffffffffffffffffffffffffffffff1673ffffffffffffffffffffffffffffffffffffffff168152602001908152602001600020600085815260200190815260200160002060003373ffffffffffffffffffffffffffffffffffffffff1673ffffffffffffffffffffffffffffffffffffffff16815260200190815260200160002054613a5690919063ffffffff16565b9050600073ffffffffffffffffffffffffffffffffffffffff16600160008573ffffffffffffffffffffffffffffffffffffffff1673ffffffffffffffffffffffffffffffffffffffff168152602001908152602001600020600084815260200190815260200160002060060160009054906101000a900473ffffffffffffffffffffffffffffffffffffffff1673ffffffffffffffffffffffffffffffffffffffff1614611226576112258e600160008673ffffffffffffffffffffffffffffffffffffffff1673ffffffffffffffffffffffffffffffffffffffff168152602001908152602001600020600085815260200190815260200160002060060160009054906101000a900473ffffffffffffffffffffffffffffffffffffffff16613984565b5b80600160008573ffffffffffffffffffffffffffffffffffffffff1673ffffffffffffffffffffffffffffffffffffffff16815260200190815260200160002060008481526020019081526020016000206003018190555033600160008573ffffffffffffffffffffffffffffffffffffffff1673ffffffffffffffffffffffffffffffffffffffff168152602001908152602001600020600084815260200190815260200160002060040160006101000a81548173ffffffffffffffffffffffffffffffffffffffff021916908373ffffffffffffffffffffffffffffffffffffffff16021790555080600360008573ffffffffffffffffffffffffffffffffffffffff1673ffffffffffffffffffffffffffffffffffffffff168152602001908152602001600020600084815260200190815260200160002060003373ffffffffffffffffffffffffffffffffffffffff1673ffffffffffffffffffffffffffffffffffffffff168152602001908152602001600020819055507f907cdadc7c1a8abcdd80cdd85eb18377631e4f413fb6397a8252ff7b358ac6cb838383336040516113d79493929190614c6b565b60405180910390a150505050505050505050505050505050565b82826001600260008473ffffffffffffffffffffffffffffffffffffffff1673ffffffffffffffffffffffffffffffffffffffff16815260200190815260200160002060008381526020019081526020016000205414611486576040517f08c379a000000000000000000000000000000000000000000000000000000000815260040161147d90614d88565b60405180910390fd5b84846000808373ffffffffffffffffffffffffffffffffffffffff1673ffffffffffffffffffffffffffffffffffffffff168152602001908152602001600020600082815260200190815260200160002060000160009054906101000a900473ffffffffffffffffffffffffffffffffffffffff1673ffffffffffffffffffffffffffffffffffffffff163373ffffffffffffffffffffffffffffffffffffffff1614611568576040517f08c379a000000000000000000000000000000000000000000000000000000000815260040161155f90614e88565b60405180910390fd5b84600081116115ac576040517f08c379a00000000000000000000000000000000000000000000000000000000081526004016115a390614d48565b60405180910390fd5b856000808a73ffffffffffffffffffffffffffffffffffffffff1673ffffffffffffffffffffffffffffffffffffffff1681526020019081526020016000206000898152602001908152602001600020600301819055507f575a0876095ccf47276a37dce683308a625403d132d219f95205ce205b2e12bc88888860405161163693929190614c34565b60405180910390a15050505050505050565b8181600160008373ffffffffffffffffffffffffffffffffffffffff1673ffffffffffffffffffffffffffffffffffffffff16815260200190815260200160002060008281526020019081526020016000206001015442116116df576040517f08c379a00000000000000000000000000000000000000000000000000000000081526004016116d690614e68565b60405180910390fd5b600160008573ffffffffffffffffffffffffffffffffffffffff1673ffffffffffffffffffffffffffffffffffffffff168152602001908152602001600020600084815260200190815260200160002060040160009054906101000a900473ffffffffffffffffffffffffffffffffffffffff1673ffffffffffffffffffffffffffffffffffffffff163373ffffffffffffffffffffffffffffffffffffffff1614156117c1576040517f08c379a00000000000000000000000000000000000000000000000000000000081526004016117b890614d08565b60405180910390fd5b6000600360008673ffffffffffffffffffffffffffffffffffffffff1673ffffffffffffffffffffffffffffffffffffffff168152602001908152602001600020600085815260200190815260200160002060003373ffffffffffffffffffffffffffffffffffffffff1673ffffffffffffffffffffffffffffffffffffffff1681526020019081526020016000205411611891576040517f08c379a000000000000000000000000000000000000000000000000000000000815260040161188890614ea8565b60405180910390fd5b6000600360008673ffffffffffffffffffffffffffffffffffffffff1673ffffffffffffffffffffffffffffffffffffffff168152602001908152602001600020600085815260200190815260200160002060003373ffffffffffffffffffffffffffffffffffffffff1673ffffffffffffffffffffffffffffffffffffffff168152602001908152602001600020819055507fde8cb9aa2c755cf75d5fbc4fec824b10e311652306f1fca5c8e57a04758b0aa784843360405161195793929190614baa565b60405180910390a150505050565b818160028060008473ffffffffffffffffffffffffffffffffffffffff1673ffffffffffffffffffffffffffffffffffffffff168152602001908152602001600020600083815260200190815260200160002054146119f9576040517f08c379a00000000000000000000000000000000000000000000000000000000081526004016119f090614da8565b60405180910390fd5b8383600160008373ffffffffffffffffffffffffffffffffffffffff1673ffffffffffffffffffffffffffffffffffffffff1681526020019081526020016000206000828152602001908152602001600020600101544211611a90576040517f08c379a0000000000000000000000000000000000000000000000000000000008152600401611a8790614e68565b60405180910390fd5b6000600160008873ffffffffffffffffffffffffffffffffffffffff1673ffffffffffffffffffffffffffffffffffffffff168152602001908152602001600020600087815260200190815260200160002060040160009054906101000a900473ffffffffffffffffffffffffffffffffffffffff169050611b678787600160008b73ffffffffffffffffffffffffffffffffffffffff1673ffffffffffffffffffffffffffffffffffffffff16815260200190815260200160002060008a81526020019081526020016000206003015484613a6c565b6000600360008973ffffffffffffffffffffffffffffffffffffffff1673ffffffffffffffffffffffffffffffffffffffff168152602001908152602001600020600088815260200190815260200160002060008373ffffffffffffffffffffffffffffffffffffffff1673ffffffffffffffffffffffffffffffffffffffff168152602001908152602001600020819055506007600560008973ffffffffffffffffffffffffffffffffffffffff1673ffffffffffffffffffffffffffffffffffffffff16815260200190815260200160002060008881526020019081526020016000205481548110611c5e57611c5d6150a7565b5b9060005260206000209060020201600080820160006101000a81549073ffffffffffffffffffffffffffffffffffffffff0219169055600182016000905550507fb31cb4f6609b11a57d1b6b14cc3f81f4b3e609f709a5b1e46892a45f9cc29ed8878783600160008c73ffffffffffffffffffffffffffffffffffffffff1673ffffffffffffffffffffffffffffffffffffffff16815260200190815260200160002060008b815260200190815260200160002060030154600160008d73ffffffffffffffffffffffffffffffffffffffff1673ffffffffffffffffffffffffffffffffffffffff16815260200190815260200160002060008c815260200190815260200160002060050160009054906101000a900473ffffffffffffffffffffffffffffffffffffffff16604051611d9b959493929190614be1565b60405180910390a150505050505050565b6002602052816000526040600020602052806000526040600020600091509150505481565b83828173ffffffffffffffffffffffffffffffffffffffff16636352211e826040518263ffffffff1660e01b8152600401611e0c9190614f3e565b60206040518083038186803b158015611e2457600080fd5b505afa158015611e38573d6000803e3d6000fd5b505050506040513d601f19601f82011682018060405250810190611e5c91906142b3565b73ffffffffffffffffffffffffffffffffffffffff163373ffffffffffffffffffffffffffffffffffffffff1614611ec9576040517f08c379a0000000000000000000000000000000000000000000000000000000008152600401611ec090614e88565b60405180910390fd5b85846000600260008473ffffffffffffffffffffffffffffffffffffffff1673ffffffffffffffffffffffffffffffffffffffff16815260200190815260200160002060008381526020019081526020016000205414611f5e576040517f08c379a0000000000000000000000000000000000000000000000000000000008152600401611f5590614e08565b60405180910390fd5b87868173ffffffffffffffffffffffffffffffffffffffff1663e985e9c533306040518363ffffffff1660e01b8152600401611f9b929190614a0c565b60206040518083038186803b158015611fb357600080fd5b505afa158015611fc7573d6000803e3d6000fd5b505050506040513d601f19601f82011682018060405250810190611feb9190614595565b61202a576040517f08c379a000000000000000000000000000000000000000000000000000000000815260040161202190614d28565b60405180910390fd5b866000811161206e576040517f08c379a000000000000000000000000000000000000000000000000000000000815260040161206590614d48565b60405180910390fd5b60405180608001604052803373ffffffffffffffffffffffffffffffffffffffff168152602001600073ffffffffffffffffffffffffffffffffffffffff1681526020018b73ffffffffffffffffffffffffffffffffffffffff168152602001898152506000808d73ffffffffffffffffffffffffffffffffffffffff1673ffffffffffffffffffffffffffffffffffffffff16815260200190815260200160002060008b815260200190815260200160002060008201518160000160006101000a81548173ffffffffffffffffffffffffffffffffffffffff021916908373ffffffffffffffffffffffffffffffffffffffff16021790555060208201518160010160006101000a81548173ffffffffffffffffffffffffffffffffffffffff021916908373ffffffffffffffffffffffffffffffffffffffff16021790555060408201518160020160006101000a81548173ffffffffffffffffffffffffffffffffffffffff021916908373ffffffffffffffffffffffffffffffffffffffff160217905550606082015181600301559050506001600260008d73ffffffffffffffffffffffffffffffffffffffff1673ffffffffffffffffffffffffffffffffffffffff16815260200190815260200160002060008b815260200190815260200160002081905550600680549050600460008d73ffffffffffffffffffffffffffffffffffffffff1673ffffffffffffffffffffffffffffffffffffffff16815260200190815260200160002060008b815260200190815260200160002081905550600660405180604001604052808d73ffffffffffffffffffffffffffffffffffffffff1681526020018b815250908060018154018082558091505060019003906000526020600020906002020160009091909190915060008201518160000160006101000a81548173ffffffffffffffffffffffffffffffffffffffff021916908373ffffffffffffffffffffffffffffffffffffffff1602179055506020820151816001015550508a73ffffffffffffffffffffffffffffffffffffffff166342842e0e33308c6040518463ffffffff1660e01b815260040161239993929190614b05565b600060405180830381600087803b1580156123b357600080fd5b505af11580156123c7573d6000803e3d6000fd5b505050507f078eead3cd01ed921c7653d000a6b73aea643a7b9c066fb7d93eb2eae8acc2d98b338c8c8c4260405161240496959493929190614a35565b60405180910390a15050505050505050505050565b612421614120565b600160008473ffffffffffffffffffffffffffffffffffffffff1673ffffffffffffffffffffffffffffffffffffffff16815260200190815260200160002060008381526020019081526020016000206040518060e0016040529081600082015481526020016001820154815260200160028201548152602001600382015481526020016004820160009054906101000a900473ffffffffffffffffffffffffffffffffffffffff1673ffffffffffffffffffffffffffffffffffffffff1673ffffffffffffffffffffffffffffffffffffffff1681526020016005820160009054906101000a900473ffffffffffffffffffffffffffffffffffffffff1673ffffffffffffffffffffffffffffffffffffffff1673ffffffffffffffffffffffffffffffffffffffff1681526020016006820160009054906101000a900473ffffffffffffffffffffffffffffffffffffffff1673ffffffffffffffffffffffffffffffffffffffff1673ffffffffffffffffffffffffffffffffffffffff1681525050905092915050565b600360205282600052604060002060205281600052604060002060205280600052604060002060009250925050505481565b6000808490508073ffffffffffffffffffffffffffffffffffffffff166323b872dd85732258c5b9c82ff0fa923756ed3fd2acb5616df57c866040518463ffffffff1660e01b815260040161263793929190614b05565b602060405180830381600087803b15801561265157600080fd5b505af1158015612665573d6000803e3d6000fd5b505050506040513d601f19601f820116820180604052508101906126899190614595565b5060019150509392505050565b818160028060008473ffffffffffffffffffffffffffffffffffffffff1673ffffffffffffffffffffffffffffffffffffffff1681526020019081526020016000206000838152602001908152602001600020541461272a576040517f08c379a000000000000000000000000000000000000000000000000000000000815260040161272190614da8565b60405180910390fd5b8383600160008373ffffffffffffffffffffffffffffffffffffffff1673ffffffffffffffffffffffffffffffffffffffff168152602001908152602001600020600082815260200190815260200160002060050160009054906101000a900473ffffffffffffffffffffffffffffffffffffffff1673ffffffffffffffffffffffffffffffffffffffff163373ffffffffffffffffffffffffffffffffffffffff161461280d576040517f08c379a000000000000000000000000000000000000000000000000000000000815260040161280490614d68565b60405180910390fd5b8585600160008373ffffffffffffffffffffffffffffffffffffffff1673ffffffffffffffffffffffffffffffffffffffff16815260200190815260200160002060008281526020019081526020016000206001015442106128a4576040517f08c379a000000000000000000000000000000000000000000000000000000000815260040161289b90614de8565b60405180910390fd5b8787600160008373ffffffffffffffffffffffffffffffffffffffff1673ffffffffffffffffffffffffffffffffffffffff168152602001908152602001600020600082815260200190815260200160002060040160009054906101000a900473ffffffffffffffffffffffffffffffffffffffff1673ffffffffffffffffffffffffffffffffffffffff16600073ffffffffffffffffffffffffffffffffffffffff1614612988576040517f08c379a000000000000000000000000000000000000000000000000000000000815260040161297f90614e28565b60405180910390fd5b6000600260008c73ffffffffffffffffffffffffffffffffffffffff1673ffffffffffffffffffffffffffffffffffffffff16815260200190815260200160002060008b8152602001908152602001600020819055508973ffffffffffffffffffffffffffffffffffffffff166342842e0e30338c6040518463ffffffff1660e01b8152600401612a1b93929190614b05565b600060405180830381600087803b158015612a3557600080fd5b505af1158015612a49573d6000803e3d6000fd5b505050506007600560008c73ffffffffffffffffffffffffffffffffffffffff1673ffffffffffffffffffffffffffffffffffffffff16815260200190815260200160002060008b81526020019081526020016000205481548110612ab157612ab06150a7565b5b9060005260206000209060020201600080820160006101000a81549073ffffffffffffffffffffffffffffffffffffffff0219169055600182016000905550507fb9d411977d4ee731f87bb8f16eb6f8c1fb579cff684642052bf6084e6e33238d8a8a33604051612b2493929190614baa565b60405180910390a150505050505050505050565b612b4061419f565b6000808473ffffffffffffffffffffffffffffffffffffffff1673ffffffffffffffffffffffffffffffffffffffff16815260200190815260200160002060008381526020019081526020016000206040518060800160405290816000820160009054906101000a900473ffffffffffffffffffffffffffffffffffffffff1673ffffffffffffffffffffffffffffffffffffffff1673ffffffffffffffffffffffffffffffffffffffff1681526020016001820160009054906101000a900473ffffffffffffffffffffffffffffffffffffffff1673ffffffffffffffffffffffffffffffffffffffff1673ffffffffffffffffffffffffffffffffffffffff1681526020016002820160009054906101000a900473ffffffffffffffffffffffffffffffffffffffff1673ffffffffffffffffffffffffffffffffffffffff1673ffffffffffffffffffffffffffffffffffffffff168152602001600382015481525050905092915050565b60606006805480602002602001604051908101604052809291908181526020016000905b82821015612d6457838290600052602060002090600202016040518060400160405290816000820160009054906101000a900473ffffffffffffffffffffffffffffffffffffffff1673ffffffffffffffffffffffffffffffffffffffff1673ffffffffffffffffffffffffffffffffffffffff16815260200160018201548152505081526020019060010190612cd2565b50505050905090565b82826001600260008473ffffffffffffffffffffffffffffffffffffffff1673ffffffffffffffffffffffffffffffffffffffff16815260200190815260200160002060008381526020019081526020016000205414612e02576040517f08c379a0000000000000000000000000000000000000000000000000000000008152600401612df990614d88565b60405180910390fd5b8260008111612e46576040517f08c379a0000000000000000000000000000000000000000000000000000000008152600401612e3d90614d48565b60405180910390fd5b8585856000808473ffffffffffffffffffffffffffffffffffffffff1673ffffffffffffffffffffffffffffffffffffffff168152602001908152602001600020600083815260200190815260200160002060030154811015612ede576040517f08c379a0000000000000000000000000000000000000000000000000000000008152600401612ed590614ec8565b60405180910390fd5b8873ffffffffffffffffffffffffffffffffffffffff166342842e0e30338b6040518463ffffffff1660e01b8152600401612f1b93929190614b05565b600060405180830381600087803b158015612f3557600080fd5b505af1158015612f49573d6000803e3d6000fd5b505050506000600260008b73ffffffffffffffffffffffffffffffffffffffff1673ffffffffffffffffffffffffffffffffffffffff16815260200190815260200160002060008a8152602001908152602001600020819055506006600460008b73ffffffffffffffffffffffffffffffffffffffff1673ffffffffffffffffffffffffffffffffffffffff16815260200190815260200160002060008a81526020019081526020016000205481548110613007576130066150a7565b5b9060005260206000209060020201600080820160006101000a81549073ffffffffffffffffffffffffffffffffffffffff021916905560018201600090555050336000808b73ffffffffffffffffffffffffffffffffffffffff1673ffffffffffffffffffffffffffffffffffffffff16815260200190815260200160002060008a815260200190815260200160002060010160006101000a81548173ffffffffffffffffffffffffffffffffffffffff021916908373ffffffffffffffffffffffffffffffffffffffff1602179055506132196000808b73ffffffffffffffffffffffffffffffffffffffff1673ffffffffffffffffffffffffffffffffffffffff16815260200190815260200160002060008a815260200190815260200160002060000160009054906101000a900473ffffffffffffffffffffffffffffffffffffffff166000808c73ffffffffffffffffffffffffffffffffffffffff1673ffffffffffffffffffffffffffffffffffffffff16815260200190815260200160002060008b815260200190815260200160002060020160009054906101000a900473ffffffffffffffffffffffffffffffffffffffff166000808d73ffffffffffffffffffffffffffffffffffffffff1673ffffffffffffffffffffffffffffffffffffffff16815260200190815260200160002060008c815260200190815260200160002060030154613c28565b7f9fa3b1bb9266e05722b54a7a564d02a274bc80d39f4af21e6be405480996ceba89338a8a60405161324e9493929190614b3c565b60405180910390a1505050505050505050565b85848173ffffffffffffffffffffffffffffffffffffffff16636352211e826040518263ffffffff1660e01b815260040161329c9190614f3e565b60206040518083038186803b1580156132b457600080fd5b505afa1580156132c8573d6000803e3d6000fd5b505050506040513d601f19601f820116820180604052508101906132ec91906142b3565b73ffffffffffffffffffffffffffffffffffffffff163373ffffffffffffffffffffffffffffffffffffffff1614613359576040517f08c379a000000000000000000000000000000000000000000000000000000000815260040161335090614e88565b60405180910390fd5b87866000600260008473ffffffffffffffffffffffffffffffffffffffff1673ffffffffffffffffffffffffffffffffffffffff168152602001908152602001600020600083815260200190815260200160002054146133ee576040517f08c379a00000000000000000000000000000000000000000000000000000000081526004016133e590614e08565b60405180910390fd5b89888173ffffffffffffffffffffffffffffffffffffffff1663e985e9c533306040518363ffffffff1660e01b815260040161342b929190614a0c565b60206040518083038186803b15801561344357600080fd5b505afa158015613457573d6000803e3d6000fd5b505050506040513d601f19601f8201168201806040525081019061347b9190614595565b6134ba576040517f08c379a00000000000000000000000000000000000000000000000000000000081526004016134b190614d28565b60405180910390fd5b86600081116134fe576040517f08c379a00000000000000000000000000000000000000000000000000000000081526004016134f590614d48565b60405180910390fd5b61350c8d8d8d8d8d8d613c7c565b600780549050600560008f73ffffffffffffffffffffffffffffffffffffffff1673ffffffffffffffffffffffffffffffffffffffff16815260200190815260200160002060008d815260200190815260200160002081905550600760405180604001604052808f73ffffffffffffffffffffffffffffffffffffffff1681526020018d815250908060018154018082558091505060019003906000526020600020906002020160009091909190915060008201518160000160006101000a81548173ffffffffffffffffffffffffffffffffffffffff021916908373ffffffffffffffffffffffffffffffffffffffff1602179055506020820151816001015550507fecbc6a097da08dbf6f781ce204aad454ce3dc8f112c51c7a56f1671de89cee8c8d338e8e8e8e8e60405161364a9796959493929190614a96565b60405180910390a150505050505050505050505050565b81816001600260008473ffffffffffffffffffffffffffffffffffffffff1673ffffffffffffffffffffffffffffffffffffffff168152602001908152602001600020600083815260200190815260200160002054146136f6576040517f08c379a00000000000000000000000000000000000000000000000000000000081526004016136ed90614d88565b60405180910390fd5b83836000808373ffffffffffffffffffffffffffffffffffffffff1673ffffffffffffffffffffffffffffffffffffffff168152602001908152602001600020600082815260200190815260200160002060000160009054906101000a900473ffffffffffffffffffffffffffffffffffffffff1673ffffffffffffffffffffffffffffffffffffffff163373ffffffffffffffffffffffffffffffffffffffff16146137d8576040517f08c379a00000000000000000000000000000000000000000000000000000000081526004016137cf90614e88565b60405180910390fd5b8573ffffffffffffffffffffffffffffffffffffffff166342842e0e3033886040518463ffffffff1660e01b815260040161381593929190614b05565b600060405180830381600087803b15801561382f57600080fd5b505af1158015613843573d6000803e3d6000fd5b505050506000600260008873ffffffffffffffffffffffffffffffffffffffff1673ffffffffffffffffffffffffffffffffffffffff1681526020019081526020016000206000878152602001908152602001600020819055506006600460008873ffffffffffffffffffffffffffffffffffffffff1673ffffffffffffffffffffffffffffffffffffffff16815260200190815260200160002060008781526020019081526020016000205481548110613901576139006150a7565b5b9060005260206000209060020201600080820160006101000a81549073ffffffffffffffffffffffffffffffffffffffff0219169055600182016000905550507fd7348ff00cf381a884144b50b3441398a48a7974ec349287df80e18cec9f5a3186338760405161397493929190614b05565b60405180910390a1505050505050565b8073ffffffffffffffffffffffffffffffffffffffff166323b872dd3330856040518463ffffffff1660e01b81526004016139c193929190614b05565b602060405180830381600087803b1580156139db57600080fd5b505af11580156139ef573d6000803e3d6000fd5b505050506040513d601f19601f82011682018060405250810190613a139190614595565b613a52576040517f08c379a0000000000000000000000000000000000000000000000000000000008152600401613a4990614e48565b60405180910390fd5b5050565b60008183613a649190614fae565b905092915050565b8373ffffffffffffffffffffffffffffffffffffffff166342842e0e3083866040518463ffffffff1660e01b8152600401613aa993929190614b05565b600060405180830381600087803b158015613ac357600080fd5b505af1158015613ad7573d6000803e3d6000fd5b505050506000600260008673ffffffffffffffffffffffffffffffffffffffff1673ffffffffffffffffffffffffffffffffffffffff168152602001908152602001600020600085815260200190815260200160002081905550613c22600160008673ffffffffffffffffffffffffffffffffffffffff1673ffffffffffffffffffffffffffffffffffffffff168152602001908152602001600020600085815260200190815260200160002060050160009054906101000a900473ffffffffffffffffffffffffffffffffffffffff16600160008773ffffffffffffffffffffffffffffffffffffffff1673ffffffffffffffffffffffffffffffffffffffff168152602001908152602001600020600086815260200190815260200160002060060160009054906101000a900473ffffffffffffffffffffffffffffffffffffffff1684613c28565b50505050565b600073ffffffffffffffffffffffffffffffffffffffff168273ffffffffffffffffffffffffffffffffffffffff1614613c6c57613c67838383613f0e565b613c77565b613c76838261406f565b5b505050565b6040518060e00160405280848152602001838152602001828152602001828152602001600073ffffffffffffffffffffffffffffffffffffffff1681526020013373ffffffffffffffffffffffffffffffffffffffff1681526020018673ffffffffffffffffffffffffffffffffffffffff16815250600160008873ffffffffffffffffffffffffffffffffffffffff1673ffffffffffffffffffffffffffffffffffffffff16815260200190815260200160002060008681526020019081526020016000206000820151816000015560208201518160010155604082015181600201556060820151816003015560808201518160040160006101000a81548173ffffffffffffffffffffffffffffffffffffffff021916908373ffffffffffffffffffffffffffffffffffffffff16021790555060a08201518160050160006101000a81548173ffffffffffffffffffffffffffffffffffffffff021916908373ffffffffffffffffffffffffffffffffffffffff16021790555060c08201518160060160006101000a81548173ffffffffffffffffffffffffffffffffffffffff021916908373ffffffffffffffffffffffffffffffffffffffff16021790555090505060028060008873ffffffffffffffffffffffffffffffffffffffff1673ffffffffffffffffffffffffffffffffffffffff1681526020019081526020016000206000868152602001908152602001600020819055508573ffffffffffffffffffffffffffffffffffffffff166342842e0e3330876040518463ffffffff1660e01b8152600401613ed493929190614b05565b600060405180830381600087803b158015613eee57600080fd5b505af1158015613f02573d6000803e3d6000fd5b50505050505050505050565b8173ffffffffffffffffffffffffffffffffffffffff166323b872dd3330846040518463ffffffff1660e01b8152600401613f4b93929190614b05565b602060405180830381600087803b158015613f6557600080fd5b505af1158015613f79573d6000803e3d6000fd5b505050506040513d601f19601f82011682018060405250810190613f9d9190614595565b613fdc576040517f08c379a0000000000000000000000000000000000000000000000000000000008152600401613fd390614e48565b60405180910390fd5b8173ffffffffffffffffffffffffffffffffffffffff1663a9059cbb84836040518363ffffffff1660e01b8152600401614017929190614b81565b602060405180830381600087803b15801561403157600080fd5b505af1158015614045573d6000803e3d6000fd5b505050506040513d601f19601f820116820180604052508101906140699190614595565b50505050565b60008273ffffffffffffffffffffffffffffffffffffffff1682604051614095906149f7565b60006040518083038185875af1925050503d80600081146140d2576040519150601f19603f3d011682016040523d82523d6000602084013e6140d7565b606091505b505090508061411b576040517f08c379a000000000000000000000000000000000000000000000000000000000815260040161411290614ee8565b60405180910390fd5b505050565b6040518060e0016040528060008152602001600081526020016000815260200160008152602001600073ffffffffffffffffffffffffffffffffffffffff168152602001600073ffffffffffffffffffffffffffffffffffffffff168152602001600073ffffffffffffffffffffffffffffffffffffffff1681525090565b6040518060800160405280600073ffffffffffffffffffffffffffffffffffffffff168152602001600073ffffffffffffffffffffffffffffffffffffffff168152602001600073ffffffffffffffffffffffffffffffffffffffff168152602001600081525090565b60008135905061421881615382565b92915050565b60008151905061422d81615382565b92915050565b60008151905061424281615399565b92915050565b60008083601f84011261425e5761425d6150db565b5b8235905067ffffffffffffffff81111561427b5761427a6150d6565b5b602083019150836001820283011115614297576142966150e0565b5b9250929050565b6000813590506142ad816153b0565b92915050565b6000602082840312156142c9576142c86150ea565b5b60006142d78482850161421e565b91505092915050565b6000806000606084860312156142f9576142f86150ea565b5b600061430786828701614209565b935050602061431886828701614209565b92505060406143298682870161429e565b9150509250925092565b60008060008060006080868803121561434f5761434e6150ea565b5b600061435d88828901614209565b955050602061436e88828901614209565b945050604061437f8882890161429e565b935050606086013567ffffffffffffffff8111156143a05761439f6150e5565b5b6143ac88828901614248565b92509250509295509295909350565b600080600080608085870312156143d5576143d46150ea565b5b60006143e387828801614209565b94505060206143f487828801614209565b93505060406144058782880161429e565b92505060606144168782880161429e565b91505092959194509250565b60008060008060008060c0878903121561443f5761443e6150ea565b5b600061444d89828a01614209565b965050602061445e89828a01614209565b955050604061446f89828a0161429e565b945050606061448089828a0161429e565b935050608061449189828a0161429e565b92505060a06144a289828a0161429e565b9150509295509295509295565b600080604083850312156144c6576144c56150ea565b5b60006144d485828601614209565b92505060206144e58582860161429e565b9150509250929050565b600080600060608486031215614508576145076150ea565b5b600061451686828701614209565b93505060206145278682870161429e565b925050604061453886828701614209565b9150509250925092565b60008060006060848603121561455b5761455a6150ea565b5b600061456986828701614209565b935050602061457a8682870161429e565b925050604061458b8682870161429e565b9150509250925092565b6000602082840312156145ab576145aa6150ea565b5b60006145b984828501614233565b91505092915050565b60006145ce83836149aa565b60408301905092915050565b6145e381615004565b82525050565b6145f281615004565b82525050565b600061460382614f69565b61460d8185614f81565b935061461883614f59565b8060005b8381101561464957815161463088826145c2565b975061463b83614f74565b92505060018101905061461c565b5085935050505092915050565b61465f81615016565b82525050565b61466e81615022565b82525050565b6000614681601683614f9d565b915061468c826150ef565b602082019050919050565b60006146a4601c83614f9d565b91506146af82615118565b602082019050919050565b60006146c7601183614f9d565b91506146d282615141565b602082019050919050565b60006146ea600d83614f9d565b91506146f58261516a565b602082019050919050565b600061470d601583614f9d565b915061471882615193565b602082019050919050565b6000614730601783614f9d565b915061473b826151bc565b602082019050919050565b6000614753601d83614f9d565b915061475e826151e5565b602082019050919050565b6000614776600b83614f9d565b91506147818261520e565b602082019050919050565b6000614799601383614f9d565b91506147a482615237565b602082019050919050565b60006147bc600883614f9d565b91506147c782615260565b602082019050919050565b60006147df601483614f9d565b91506147ea82615289565b602082019050919050565b6000614802600f83614f9d565b915061480d826152b2565b602082019050919050565b6000614825601583614f9d565b9150614830826152db565b602082019050919050565b6000614848600083614f92565b915061485382615304565b600082019050919050565b600061486b601383614f9d565b915061487682615307565b602082019050919050565b600061488e601483614f9d565b915061489982615330565b602082019050919050565b60006148b1600d83614f9d565b91506148bc82615359565b602082019050919050565b60e0820160008201516148dd60008501826149d9565b5060208201516148f060208501826149d9565b50604082015161490360408501826149d9565b50606082015161491660608501826149d9565b50608082015161492960808501826145da565b5060a082015161493c60a08501826145da565b5060c082015161494f60c08501826145da565b50505050565b60808201600082015161496b60008501826145da565b50602082015161497e60208501826145da565b50604082015161499160408501826145da565b5060608201516149a460608501826149d9565b50505050565b6040820160008201516149c060008501826145da565b5060208201516149d360208501826149d9565b50505050565b6149e28161506e565b82525050565b6149f18161506e565b82525050565b6000614a028261483b565b9150819050919050565b6000604082019050614a2160008301856145e9565b614a2e60208301846145e9565b9392505050565b600060c082019050614a4a60008301896145e9565b614a5760208301886145e9565b614a6460408301876145e9565b614a7160608301866149e8565b614a7e60808301856149e8565b614a8b60a08301846149e8565b979650505050505050565b600060e082019050614aab600083018a6145e9565b614ab860208301896145e9565b614ac560408301886145e9565b614ad260608301876149e8565b614adf60808301866149e8565b614aec60a08301856149e8565b614af960c08301846149e8565b98975050505050505050565b6000606082019050614b1a60008301866145e9565b614b2760208301856145e9565b614b3460408301846149e8565b949350505050565b6000608082019050614b5160008301876145e9565b614b5e60208301866145e9565b614b6b60408301856149e8565b614b7860608301846149e8565b95945050505050565b6000604082019050614b9660008301856145e9565b614ba360208301846149e8565b9392505050565b6000606082019050614bbf60008301866145e9565b614bcc60208301856149e8565b614bd960408301846145e9565b949350505050565b600060a082019050614bf660008301886145e9565b614c0360208301876149e8565b614c1060408301866145e9565b614c1d60608301856149e8565b614c2a60808301846145e9565b9695505050505050565b6000606082019050614c4960008301866145e9565b614c5660208301856149e8565b614c6360408301846149e8565b949350505050565b6000608082019050614c8060008301876145e9565b614c8d60208301866149e8565b614c9a60408301856149e8565b614ca760608301846145e9565b95945050505050565b60006020820190508181036000830152614cca81846145f8565b905092915050565b6000602082019050614ce76000830184614656565b92915050565b6000602082019050614d026000830184614665565b92915050565b60006020820190508181036000830152614d2181614674565b9050919050565b60006020820190508181036000830152614d4181614697565b9050919050565b60006020820190508181036000830152614d61816146ba565b9050919050565b60006020820190508181036000830152614d81816146dd565b9050919050565b60006020820190508181036000830152614da181614700565b9050919050565b60006020820190508181036000830152614dc181614723565b9050919050565b60006020820190508181036000830152614de181614746565b9050919050565b60006020820190508181036000830152614e0181614769565b9050919050565b60006020820190508181036000830152614e218161478c565b9050919050565b60006020820190508181036000830152614e41816147af565b9050919050565b60006020820190508181036000830152614e61816147d2565b9050919050565b60006020820190508181036000830152614e81816147f5565b9050919050565b60006020820190508181036000830152614ea181614818565b9050919050565b60006020820190508181036000830152614ec18161485e565b9050919050565b60006020820190508181036000830152614ee181614881565b9050919050565b60006020820190508181036000830152614f01816148a4565b9050919050565b600060e082019050614f1d60008301846148c7565b92915050565b6000608082019050614f386000830184614955565b92915050565b6000602082019050614f5360008301846149e8565b92915050565b6000819050602082019050919050565b600081519050919050565b6000602082019050919050565b600082825260208201905092915050565b600081905092915050565b600082825260208201905092915050565b6000614fb98261506e565b9150614fc48361506e565b9250827fffffffffffffffffffffffffffffffffffffffffffffffffffffffffffffffff03821115614ff957614ff8615078565b5b828201905092915050565b600061500f8261504e565b9050919050565b60008115159050919050565b60007fffffffff0000000000000000000000000000000000000000000000000000000082169050919050565b600073ffffffffffffffffffffffffffffffffffffffff82169050919050565b6000819050919050565b7f4e487b7100000000000000000000000000000000000000000000000000000000600052601160045260246000fd5b7f4e487b7100000000000000000000000000000000000000000000000000000000600052603260045260246000fd5b600080fd5b600080fd5b600080fd5b600080fd5b600080fd5b7f596f752061726520686967686573742062696464657200000000000000000000600082015250565b7f4e6674206e6f7420617070726f76656420746f20636f6e747261637400000000600082015250565b7f50726963652063616e6e6f742062652030000000000000000000000000000000600082015250565b7f6e6f74206e6674206f776e657200000000000000000000000000000000000000600082015250565b7f4e6674206e6f7420696e2066697865642073616c650000000000000000000000600082015250565b7f4e6674206e6f7420696e2061756374696f6e2073616c65000000000000000000600082015250565b7f4269642047726561746572207468616e2050726576696f757320426964000000600082015250565b7f41756374696f6e20656e64000000000000000000000000000000000000000000600082015250565b7f4e667420616c726561647920696e2073616c6500000000000000000000000000600082015250565b7f626964206d616b65000000000000000000000000000000000000000000000000600082015250565b7f616c6c6f77616e6365206e6f7420656e6f756768000000000000000000000000600082015250565b7f41756374696f6e206e6f7420656e640000000000000000000000000000000000600082015250565b7f596f7520617265206e6f74206e6674206f776e65720000000000000000000000600082015250565b50565b7f6e6f7468696e6720746f20776974686472617700000000000000000000000000600082015250565b7f627579205072696365206e6f7420656e6f756768000000000000000000000000600082015250565b7f726566756e64206661696c656400000000000000000000000000000000000000600082015250565b61538b81615004565b811461539657600080fd5b50565b6153a281615016565b81146153ad57600080fd5b50565b6153b98161506e565b81146153c457600080fd5b5056fea2646970667358221220549cec211077faae84f7999828d35278eac7274866c80ebecbc5c84faba416ad64736f6c63430008070033",
					"opcodes": "PUSH1 0x80 PUSH1 0x40 MSTORE CALLVALUE DUP1 ISZERO PUSH2 0x10 JUMPI PUSH1 0x0 DUP1 REVERT JUMPDEST POP PUSH2 0x53FD DUP1 PUSH2 0x20 PUSH1 0x0 CODECOPY PUSH1 0x0 RETURN INVALID PUSH1 0x80 PUSH1 0x40 MSTORE PUSH1 0x4 CALLDATASIZE LT PUSH2 0x117 JUMPI PUSH1 0x0 CALLDATALOAD PUSH1 0xE0 SHR DUP1 PUSH4 0x69A6D12E GT PUSH2 0xA0 JUMPI DUP1 PUSH4 0x8C3417DA GT PUSH2 0x64 JUMPI DUP1 PUSH4 0x8C3417DA EQ PUSH2 0x3C1 JUMPI DUP1 PUSH4 0x9F085A00 EQ PUSH2 0x3FE JUMPI DUP1 PUSH4 0xBAF4371E EQ PUSH2 0x429 JUMPI DUP1 PUSH4 0xCF42B7E6 EQ PUSH2 0x445 JUMPI DUP1 PUSH4 0xD3A6A6C9 EQ PUSH2 0x46E JUMPI PUSH2 0x11E JUMP JUMPDEST DUP1 PUSH4 0x69A6D12E EQ PUSH2 0x2B8 JUMPI DUP1 PUSH4 0x6F8C9B1B EQ PUSH2 0x2E1 JUMPI DUP1 PUSH4 0x6FE02F24 EQ PUSH2 0x31E JUMPI DUP1 PUSH4 0x7AD47A21 EQ PUSH2 0x35B JUMPI DUP1 PUSH4 0x842BC46A EQ PUSH2 0x398 JUMPI PUSH2 0x11E JUMP JUMPDEST DUP1 PUSH4 0x3A713DB8 GT PUSH2 0xE7 JUMPI DUP1 PUSH4 0x3A713DB8 EQ PUSH2 0x1E4 JUMPI DUP1 PUSH4 0x4676ADCA EQ PUSH2 0x200 JUMPI DUP1 PUSH4 0x4CB8EF5B EQ PUSH2 0x229 JUMPI DUP1 PUSH4 0x5138B08C EQ PUSH2 0x252 JUMPI DUP1 PUSH4 0x6916462F EQ PUSH2 0x27B JUMPI PUSH2 0x11E JUMP JUMPDEST DUP1 PUSH3 0xE2097C EQ PUSH2 0x123 JUMPI DUP1 PUSH4 0x150B7A02 EQ PUSH2 0x160 JUMPI DUP1 PUSH4 0x1BDAE6F1 EQ PUSH2 0x19D JUMPI DUP1 PUSH4 0x1E7A044F EQ PUSH2 0x1B9 JUMPI PUSH2 0x11E JUMP JUMPDEST CALLDATASIZE PUSH2 0x11E JUMPI STOP JUMPDEST PUSH1 0x0 DUP1 REVERT JUMPDEST CALLVALUE DUP1 ISZERO PUSH2 0x12F JUMPI PUSH1 0x0 DUP1 REVERT JUMPDEST POP PUSH2 0x14A PUSH1 0x4 DUP1 CALLDATASIZE SUB DUP2 ADD SWAP1 PUSH2 0x145 SWAP2 SWAP1 PUSH2 0x42E0 JUMP JUMPDEST PUSH2 0x497 JUMP JUMPDEST PUSH1 0x40 MLOAD PUSH2 0x157 SWAP2 SWAP1 PUSH2 0x4CD2 JUMP JUMPDEST PUSH1 0x40 MLOAD DUP1 SWAP2 SUB SWAP1 RETURN JUMPDEST CALLVALUE DUP1 ISZERO PUSH2 0x16C JUMPI PUSH1 0x0 DUP1 REVERT JUMPDEST POP PUSH2 0x187 PUSH1 0x4 DUP1 CALLDATASIZE SUB DUP2 ADD SWAP1 PUSH2 0x182 SWAP2 SWAP1 PUSH2 0x4333 JUMP JUMPDEST PUSH2 0x54D JUMP JUMPDEST PUSH1 0x40 MLOAD PUSH2 0x194 SWAP2 SWAP1 PUSH2 0x4CED JUMP JUMPDEST PUSH1 0x40 MLOAD DUP1 SWAP2 SUB SWAP1 RETURN JUMPDEST PUSH2 0x1B7 PUSH1 0x4 DUP1 CALLDATASIZE SUB DUP2 ADD SWAP1 PUSH2 0x1B2 SWAP2 SWAP1 PUSH2 0x4542 JUMP JUMPDEST PUSH2 0x562 JUMP JUMPDEST STOP JUMPDEST CALLVALUE DUP1 ISZERO PUSH2 0x1C5 JUMPI PUSH1 0x0 DUP1 REVERT JUMPDEST POP PUSH2 0x1CE PUSH2 0xB99 JUMP JUMPDEST PUSH1 0x40 MLOAD PUSH2 0x1DB SWAP2 SWAP1 PUSH2 0x4CB0 JUMP JUMPDEST PUSH1 0x40 MLOAD DUP1 SWAP2 SUB SWAP1 RETURN JUMPDEST PUSH2 0x1FE PUSH1 0x4 DUP1 CALLDATASIZE SUB DUP2 ADD SWAP1 PUSH2 0x1F9 SWAP2 SWAP1 PUSH2 0x4542 JUMP JUMPDEST PUSH2 0xC58 JUMP JUMPDEST STOP JUMPDEST CALLVALUE DUP1 ISZERO PUSH2 0x20C JUMPI PUSH1 0x0 DUP1 REVERT JUMPDEST POP PUSH2 0x227 PUSH1 0x4 DUP1 CALLDATASIZE SUB DUP2 ADD SWAP1 PUSH2 0x222 SWAP2 SWAP1 PUSH2 0x4542 JUMP JUMPDEST PUSH2 0x13F1 JUMP JUMPDEST STOP JUMPDEST CALLVALUE DUP1 ISZERO PUSH2 0x235 JUMPI PUSH1 0x0 DUP1 REVERT JUMPDEST POP PUSH2 0x250 PUSH1 0x4 DUP1 CALLDATASIZE SUB DUP2 ADD SWAP1 PUSH2 0x24B SWAP2 SWAP1 PUSH2 0x44AF JUMP JUMPDEST PUSH2 0x1648 JUMP JUMPDEST STOP JUMPDEST CALLVALUE DUP1 ISZERO PUSH2 0x25E JUMPI PUSH1 0x0 DUP1 REVERT JUMPDEST POP PUSH2 0x279 PUSH1 0x4 DUP1 CALLDATASIZE SUB DUP2 ADD SWAP1 PUSH2 0x274 SWAP2 SWAP1 PUSH2 0x44AF JUMP JUMPDEST PUSH2 0x1965 JUMP JUMPDEST STOP JUMPDEST CALLVALUE DUP1 ISZERO PUSH2 0x287 JUMPI PUSH1 0x0 DUP1 REVERT JUMPDEST POP PUSH2 0x2A2 PUSH1 0x4 DUP1 CALLDATASIZE SUB DUP2 ADD SWAP1 PUSH2 0x29D SWAP2 SWAP1 PUSH2 0x44AF JUMP JUMPDEST PUSH2 0x1DAC JUMP JUMPDEST PUSH1 0x40 MLOAD PUSH2 0x2AF SWAP2 SWAP1 PUSH2 0x4F3E JUMP JUMPDEST PUSH1 0x40 MLOAD DUP1 SWAP2 SUB SWAP1 RETURN JUMPDEST CALLVALUE DUP1 ISZERO PUSH2 0x2C4 JUMPI PUSH1 0x0 DUP1 REVERT JUMPDEST POP PUSH2 0x2DF PUSH1 0x4 DUP1 CALLDATASIZE SUB DUP2 ADD SWAP1 PUSH2 0x2DA SWAP2 SWAP1 PUSH2 0x43BB JUMP JUMPDEST PUSH2 0x1DD1 JUMP JUMPDEST STOP JUMPDEST CALLVALUE DUP1 ISZERO PUSH2 0x2ED JUMPI PUSH1 0x0 DUP1 REVERT JUMPDEST POP PUSH2 0x308 PUSH1 0x4 DUP1 CALLDATASIZE SUB DUP2 ADD SWAP1 PUSH2 0x303 SWAP2 SWAP1 PUSH2 0x44AF JUMP JUMPDEST PUSH2 0x2419 JUMP JUMPDEST PUSH1 0x40 MLOAD PUSH2 0x315 SWAP2 SWAP1 PUSH2 0x4F08 JUMP JUMPDEST PUSH1 0x40 MLOAD DUP1 SWAP2 SUB SWAP1 RETURN JUMPDEST CALLVALUE DUP1 ISZERO PUSH2 0x32A JUMPI PUSH1 0x0 DUP1 REVERT JUMPDEST POP PUSH2 0x345 PUSH1 0x4 DUP1 CALLDATASIZE SUB DUP2 ADD SWAP1 PUSH2 0x340 SWAP2 SWAP1 PUSH2 0x44EF JUMP JUMPDEST PUSH2 0x25AE JUMP JUMPDEST PUSH1 0x40 MLOAD PUSH2 0x352 SWAP2 SWAP1 PUSH2 0x4F3E JUMP JUMPDEST PUSH1 0x40 MLOAD DUP1 SWAP2 SUB SWAP1 RETURN JUMPDEST CALLVALUE DUP1 ISZERO PUSH2 0x367 JUMPI PUSH1 0x0 DUP1 REVERT JUMPDEST POP PUSH2 0x382 PUSH1 0x4 DUP1 CALLDATASIZE SUB DUP2 ADD SWAP1 PUSH2 0x37D SWAP2 SWAP1 PUSH2 0x42E0 JUMP JUMPDEST PUSH2 0x25E0 JUMP JUMPDEST PUSH1 0x40 MLOAD PUSH2 0x38F SWAP2 SWAP1 PUSH2 0x4CD2 JUMP JUMPDEST PUSH1 0x40 MLOAD DUP1 SWAP2 SUB SWAP1 RETURN JUMPDEST CALLVALUE DUP1 ISZERO PUSH2 0x3A4 JUMPI PUSH1 0x0 DUP1 REVERT JUMPDEST POP PUSH2 0x3BF PUSH1 0x4 DUP1 CALLDATASIZE SUB DUP2 ADD SWAP1 PUSH2 0x3BA SWAP2 SWAP1 PUSH2 0x44AF JUMP JUMPDEST PUSH2 0x2696 JUMP JUMPDEST STOP JUMPDEST CALLVALUE DUP1 ISZERO PUSH2 0x3CD JUMPI PUSH1 0x0 DUP1 REVERT JUMPDEST POP PUSH2 0x3E8 PUSH1 0x4 DUP1 CALLDATASIZE SUB DUP2 ADD SWAP1 PUSH2 0x3E3 SWAP2 SWAP1 PUSH2 0x44AF JUMP JUMPDEST PUSH2 0x2B38 JUMP JUMPDEST PUSH1 0x40 MLOAD PUSH2 0x3F5 SWAP2 SWAP1 PUSH2 0x4F23 JUMP JUMPDEST PUSH1 0x40 MLOAD DUP1 SWAP2 SUB SWAP1 RETURN JUMPDEST CALLVALUE DUP1 ISZERO PUSH2 0x40A JUMPI PUSH1 0x0 DUP1 REVERT JUMPDEST POP PUSH2 0x413 PUSH2 0x2CAE JUMP JUMPDEST PUSH1 0x40 MLOAD PUSH2 0x420 SWAP2 SWAP1 PUSH2 0x4CB0 JUMP JUMPDEST PUSH1 0x40 MLOAD DUP1 SWAP2 SUB SWAP1 RETURN JUMPDEST PUSH2 0x443 PUSH1 0x4 DUP1 CALLDATASIZE SUB DUP2 ADD SWAP1 PUSH2 0x43E SWAP2 SWAP1 PUSH2 0x4542 JUMP JUMPDEST PUSH2 0x2D6D JUMP JUMPDEST STOP JUMPDEST CALLVALUE DUP1 ISZERO PUSH2 0x451 JUMPI PUSH1 0x0 DUP1 REVERT JUMPDEST POP PUSH2 0x46C PUSH1 0x4 DUP1 CALLDATASIZE SUB DUP2 ADD SWAP1 PUSH2 0x467 SWAP2 SWAP1 PUSH2 0x4422 JUMP JUMPDEST PUSH2 0x3261 JUMP JUMPDEST STOP JUMPDEST CALLVALUE DUP1 ISZERO PUSH2 0x47A JUMPI PUSH1 0x0 DUP1 REVERT JUMPDEST POP PUSH2 0x495 PUSH1 0x4 DUP1 CALLDATASIZE SUB DUP2 ADD SWAP1 PUSH2 0x490 SWAP2 SWAP1 PUSH2 0x44AF JUMP JUMPDEST PUSH2 0x3661 JUMP JUMPDEST STOP JUMPDEST PUSH1 0x0 DUP1 DUP5 SWAP1 POP DUP1 PUSH20 0xFFFFFFFFFFFFFFFFFFFFFFFFFFFFFFFFFFFFFFFF AND PUSH4 0x23B872DD PUSH20 0x2258C5B9C82FF0FA923756ED3FD2ACB5616DF57C DUP7 DUP7 PUSH1 0x40 MLOAD DUP5 PUSH4 0xFFFFFFFF AND PUSH1 0xE0 SHL DUP2 MSTORE PUSH1 0x4 ADD PUSH2 0x4EE SWAP4 SWAP3 SWAP2 SWAP1 PUSH2 0x4B05 JUMP JUMPDEST PUSH1 0x20 PUSH1 0x40 MLOAD DUP1 DUP4 SUB DUP2 PUSH1 0x0 DUP8 DUP1 EXTCODESIZE ISZERO DUP1 ISZERO PUSH2 0x508 JUMPI PUSH1 0x0 DUP1 REVERT JUMPDEST POP GAS CALL ISZERO DUP1 ISZERO PUSH2 0x51C JUMPI RETURNDATASIZE PUSH1 0x0 DUP1 RETURNDATACOPY RETURNDATASIZE PUSH1 0x0 REVERT JUMPDEST POP POP POP POP PUSH1 0x40 MLOAD RETURNDATASIZE PUSH1 0x1F NOT PUSH1 0x1F DUP3 ADD AND DUP3 ADD DUP1 PUSH1 0x40 MSTORE POP DUP2 ADD SWAP1 PUSH2 0x540 SWAP2 SWAP1 PUSH2 0x4595 JUMP JUMPDEST POP PUSH1 0x1 SWAP2 POP POP SWAP4 SWAP3 POP POP POP JUMP JUMPDEST PUSH1 0x0 PUSH4 0x150B7A02 PUSH1 0xE0 SHL SWAP1 POP SWAP6 SWAP5 POP POP POP POP POP JUMP JUMPDEST DUP3 DUP3 PUSH1 0x2 DUP1 PUSH1 0x0 DUP5 PUSH20 0xFFFFFFFFFFFFFFFFFFFFFFFFFFFFFFFFFFFFFFFF AND PUSH20 0xFFFFFFFFFFFFFFFFFFFFFFFFFFFFFFFFFFFFFFFF AND DUP2 MSTORE PUSH1 0x20 ADD SWAP1 DUP2 MSTORE PUSH1 0x20 ADD PUSH1 0x0 KECCAK256 PUSH1 0x0 DUP4 DUP2 MSTORE PUSH1 0x20 ADD SWAP1 DUP2 MSTORE PUSH1 0x20 ADD PUSH1 0x0 KECCAK256 SLOAD EQ PUSH2 0x5F6 JUMPI PUSH1 0x40 MLOAD PUSH32 0x8C379A000000000000000000000000000000000000000000000000000000000 DUP2 MSTORE PUSH1 0x4 ADD PUSH2 0x5ED SWAP1 PUSH2 0x4DA8 JUMP JUMPDEST PUSH1 0x40 MLOAD DUP1 SWAP2 SUB SWAP1 REVERT JUMPDEST DUP5 DUP5 PUSH1 0x1 PUSH1 0x0 DUP4 PUSH20 0xFFFFFFFFFFFFFFFFFFFFFFFFFFFFFFFFFFFFFFFF AND PUSH20 0xFFFFFFFFFFFFFFFFFFFFFFFFFFFFFFFFFFFFFFFF AND DUP2 MSTORE PUSH1 0x20 ADD SWAP1 DUP2 MSTORE PUSH1 0x20 ADD PUSH1 0x0 KECCAK256 PUSH1 0x0 DUP3 DUP2 MSTORE PUSH1 0x20 ADD SWAP1 DUP2 MSTORE PUSH1 0x20 ADD PUSH1 0x0 KECCAK256 PUSH1 0x1 ADD SLOAD TIMESTAMP LT PUSH2 0x68D JUMPI PUSH1 0x40 MLOAD PUSH32 0x8C379A000000000000000000000000000000000000000000000000000000000 DUP2 MSTORE PUSH1 0x4 ADD PUSH2 0x684 SWAP1 PUSH2 0x4DE8 JUMP JUMPDEST PUSH1 0x40 MLOAD DUP1 SWAP2 SUB SWAP1 REVERT JUMPDEST DUP5 PUSH1 0x0 DUP2 GT PUSH2 0x6D1 JUMPI PUSH1 0x40 MLOAD PUSH32 0x8C379A000000000000000000000000000000000000000000000000000000000 DUP2 MSTORE PUSH1 0x4 ADD PUSH2 0x6C8 SWAP1 PUSH2 0x4D48 JUMP JUMPDEST PUSH1 0x40 MLOAD DUP1 SWAP2 SUB SWAP1 REVERT JUMPDEST DUP8 DUP8 CALLVALUE DUP9 PUSH1 0x0 PUSH20 0xFFFFFFFFFFFFFFFFFFFFFFFFFFFFFFFFFFFFFFFF AND PUSH1 0x1 PUSH1 0x0 DUP7 PUSH20 0xFFFFFFFFFFFFFFFFFFFFFFFFFFFFFFFFFFFFFFFF AND PUSH20 0xFFFFFFFFFFFFFFFFFFFFFFFFFFFFFFFFFFFFFFFF AND DUP2 MSTORE PUSH1 0x20 ADD SWAP1 DUP2 MSTORE PUSH1 0x20 ADD PUSH1 0x0 KECCAK256 PUSH1 0x0 DUP6 DUP2 MSTORE PUSH1 0x20 ADD SWAP1 DUP2 MSTORE PUSH1 0x20 ADD PUSH1 0x0 KECCAK256 PUSH1 0x6 ADD PUSH1 0x0 SWAP1 SLOAD SWAP1 PUSH2 0x100 EXP SWAP1 DIV PUSH20 0xFFFFFFFFFFFFFFFFFFFFFFFFFFFFFFFFFFFFFFFF AND PUSH20 0xFFFFFFFFFFFFFFFFFFFFFFFFFFFFFFFFFFFFFFFF AND EQ ISZERO PUSH2 0x817 JUMPI PUSH1 0x1 PUSH1 0x0 DUP6 PUSH20 0xFFFFFFFFFFFFFFFFFFFFFFFFFFFFFFFFFFFFFFFF AND PUSH20 0xFFFFFFFFFFFFFFFFFFFFFFFFFFFFFFFFFFFFFFFF AND DUP2 MSTORE PUSH1 0x20 ADD SWAP1 DUP2 MSTORE PUSH1 0x20 ADD PUSH1 0x0 KECCAK256 PUSH1 0x0 DUP5 DUP2 MSTORE PUSH1 0x20 ADD SWAP1 DUP2 MSTORE PUSH1 0x20 ADD PUSH1 0x0 KECCAK256 PUSH1 0x3 ADD SLOAD DUP3 GT PUSH2 0x812 JUMPI PUSH1 0x40 MLOAD PUSH32 0x8C379A000000000000000000000000000000000000000000000000000000000 DUP2 MSTORE PUSH1 0x4 ADD PUSH2 0x809 SWAP1 PUSH2 0x4DC8 JUMP JUMPDEST PUSH1 0x40 MLOAD DUP1 SWAP2 SUB SWAP1 REVERT JUMPDEST PUSH2 0x8AD JUMP JUMPDEST PUSH1 0x1 PUSH1 0x0 DUP6 PUSH20 0xFFFFFFFFFFFFFFFFFFFFFFFFFFFFFFFFFFFFFFFF AND PUSH20 0xFFFFFFFFFFFFFFFFFFFFFFFFFFFFFFFFFFFFFFFF AND DUP2 MSTORE PUSH1 0x20 ADD SWAP1 DUP2 MSTORE PUSH1 0x20 ADD PUSH1 0x0 KECCAK256 PUSH1 0x0 DUP5 DUP2 MSTORE PUSH1 0x20 ADD SWAP1 DUP2 MSTORE PUSH1 0x20 ADD PUSH1 0x0 KECCAK256 PUSH1 0x3 ADD SLOAD DUP2 GT PUSH2 0x8AC JUMPI PUSH1 0x40 MLOAD PUSH32 0x8C379A000000000000000000000000000000000000000000000000000000000 DUP2 MSTORE PUSH1 0x4 ADD PUSH2 0x8A3 SWAP1 PUSH2 0x4DC8 JUMP JUMPDEST PUSH1 0x40 MLOAD DUP1 SWAP2 SUB SWAP1 REVERT JUMPDEST JUMPDEST PUSH1 0x0 PUSH20 0xFFFFFFFFFFFFFFFFFFFFFFFFFFFFFFFFFFFFFFFF AND PUSH1 0x1 PUSH1 0x0 DUP15 PUSH20 0xFFFFFFFFFFFFFFFFFFFFFFFFFFFFFFFFFFFFFFFF AND PUSH20 0xFFFFFFFFFFFFFFFFFFFFFFFFFFFFFFFFFFFFFFFF AND DUP2 MSTORE PUSH1 0x20 ADD SWAP1 DUP2 MSTORE PUSH1 0x20 ADD PUSH1 0x0 KECCAK256 PUSH1 0x0 DUP14 DUP2 MSTORE PUSH1 0x20 ADD SWAP1 DUP2 MSTORE PUSH1 0x20 ADD PUSH1 0x0 KECCAK256 PUSH1 0x6 ADD PUSH1 0x0 SWAP1 SLOAD SWAP1 PUSH2 0x100 EXP SWAP1 DIV PUSH20 0xFFFFFFFFFFFFFFFFFFFFFFFFFFFFFFFFFFFFFFFF AND PUSH20 0xFFFFFFFFFFFFFFFFFFFFFFFFFFFFFFFFFFFFFFFF AND EQ PUSH2 0x9D2 JUMPI PUSH2 0x9D1 DUP11 PUSH1 0x1 PUSH1 0x0 DUP16 PUSH20 0xFFFFFFFFFFFFFFFFFFFFFFFFFFFFFFFFFFFFFFFF AND PUSH20 0xFFFFFFFFFFFFFFFFFFFFFFFFFFFFFFFFFFFFFFFF AND DUP2 MSTORE PUSH1 0x20 ADD SWAP1 DUP2 MSTORE PUSH1 0x20 ADD PUSH1 0x0 KECCAK256 PUSH1 0x0 DUP15 DUP2 MSTORE PUSH1 0x20 ADD SWAP1 DUP2 MSTORE PUSH1 0x20 ADD PUSH1 0x0 KECCAK256 PUSH1 0x6 ADD PUSH1 0x0 SWAP1 SLOAD SWAP1 PUSH2 0x100 EXP SWAP1 DIV PUSH20 0xFFFFFFFFFFFFFFFFFFFFFFFFFFFFFFFFFFFFFFFF AND PUSH2 0x3984 JUMP JUMPDEST JUMPDEST DUP10 PUSH1 0x1 PUSH1 0x0 DUP15 PUSH20 0xFFFFFFFFFFFFFFFFFFFFFFFFFFFFFFFFFFFFFFFF AND PUSH20 0xFFFFFFFFFFFFFFFFFFFFFFFFFFFFFFFFFFFFFFFF AND DUP2 MSTORE PUSH1 0x20 ADD SWAP1 DUP2 MSTORE PUSH1 0x20 ADD PUSH1 0x0 KECCAK256 PUSH1 0x0 DUP14 DUP2 MSTORE PUSH1 0x20 ADD SWAP1 DUP2 MSTORE PUSH1 0x20 ADD PUSH1 0x0 KECCAK256 PUSH1 0x3 ADD DUP2 SWAP1 SSTORE POP CALLER PUSH1 0x1 PUSH1 0x0 DUP15 PUSH20 0xFFFFFFFFFFFFFFFFFFFFFFFFFFFFFFFFFFFFFFFF AND PUSH20 0xFFFFFFFFFFFFFFFFFFFFFFFFFFFFFFFFFFFFFFFF AND DUP2 MSTORE PUSH1 0x20 ADD SWAP1 DUP2 MSTORE PUSH1 0x20 ADD PUSH1 0x0 KECCAK256 PUSH1 0x0 DUP14 DUP2 MSTORE PUSH1 0x20 ADD SWAP1 DUP2 MSTORE PUSH1 0x20 ADD PUSH1 0x0 KECCAK256 PUSH1 0x4 ADD PUSH1 0x0 PUSH2 0x100 EXP DUP2 SLOAD DUP2 PUSH20 0xFFFFFFFFFFFFFFFFFFFFFFFFFFFFFFFFFFFFFFFF MUL NOT AND SWAP1 DUP4 PUSH20 0xFFFFFFFFFFFFFFFFFFFFFFFFFFFFFFFFFFFFFFFF AND MUL OR SWAP1 SSTORE POP DUP10 PUSH1 0x3 PUSH1 0x0 DUP15 PUSH20 0xFFFFFFFFFFFFFFFFFFFFFFFFFFFFFFFFFFFFFFFF AND PUSH20 0xFFFFFFFFFFFFFFFFFFFFFFFFFFFFFFFFFFFFFFFF AND DUP2 MSTORE PUSH1 0x20 ADD SWAP1 DUP2 MSTORE PUSH1 0x20 ADD PUSH1 0x0 KECCAK256 PUSH1 0x0 DUP14 DUP2 MSTORE PUSH1 0x20 ADD SWAP1 DUP2 MSTORE PUSH1 0x20 ADD PUSH1 0x0 KECCAK256 PUSH1 0x0 CALLER PUSH20 0xFFFFFFFFFFFFFFFFFFFFFFFFFFFFFFFFFFFFFFFF AND PUSH20 0xFFFFFFFFFFFFFFFFFFFFFFFFFFFFFFFFFFFFFFFF AND DUP2 MSTORE PUSH1 0x20 ADD SWAP1 DUP2 MSTORE PUSH1 0x20 ADD PUSH1 0x0 KECCAK256 DUP2 SWAP1 SSTORE POP PUSH32 0xD56CB6210C78740462007B728932C802BC41B205ED5C8A98AB95421EAF054B22 DUP13 DUP13 DUP13 CALLER PUSH1 0x40 MLOAD PUSH2 0xB83 SWAP5 SWAP4 SWAP3 SWAP2 SWAP1 PUSH2 0x4C6B JUMP JUMPDEST PUSH1 0x40 MLOAD DUP1 SWAP2 SUB SWAP1 LOG1 POP POP POP POP POP POP POP POP POP POP POP POP JUMP JUMPDEST PUSH1 0x60 PUSH1 0x7 DUP1 SLOAD DUP1 PUSH1 0x20 MUL PUSH1 0x20 ADD PUSH1 0x40 MLOAD SWAP1 DUP2 ADD PUSH1 0x40 MSTORE DUP1 SWAP3 SWAP2 SWAP1 DUP2 DUP2 MSTORE PUSH1 0x20 ADD PUSH1 0x0 SWAP1 JUMPDEST DUP3 DUP3 LT ISZERO PUSH2 0xC4F JUMPI DUP4 DUP3 SWAP1 PUSH1 0x0 MSTORE PUSH1 0x20 PUSH1 0x0 KECCAK256 SWAP1 PUSH1 0x2 MUL ADD PUSH1 0x40 MLOAD DUP1 PUSH1 0x40 ADD PUSH1 0x40 MSTORE SWAP1 DUP2 PUSH1 0x0 DUP3 ADD PUSH1 0x0 SWAP1 SLOAD SWAP1 PUSH2 0x100 EXP SWAP1 DIV PUSH20 0xFFFFFFFFFFFFFFFFFFFFFFFFFFFFFFFFFFFFFFFF AND PUSH20 0xFFFFFFFFFFFFFFFFFFFFFFFFFFFFFFFFFFFFFFFF AND PUSH20 0xFFFFFFFFFFFFFFFFFFFFFFFFFFFFFFFFFFFFFFFF AND DUP2 MSTORE PUSH1 0x20 ADD PUSH1 0x1 DUP3 ADD SLOAD DUP2 MSTORE POP POP DUP2 MSTORE PUSH1 0x20 ADD SWAP1 PUSH1 0x1 ADD SWAP1 PUSH2 0xBBD JUMP JUMPDEST POP POP POP POP SWAP1 POP SWAP1 JUMP JUMPDEST DUP3 DUP3 PUSH1 0x2 DUP1 PUSH1 0x0 DUP5 PUSH20 0xFFFFFFFFFFFFFFFFFFFFFFFFFFFFFFFFFFFFFFFF AND PUSH20 0xFFFFFFFFFFFFFFFFFFFFFFFFFFFFFFFFFFFFFFFF AND DUP2 MSTORE PUSH1 0x20 ADD SWAP1 DUP2 MSTORE PUSH1 0x20 ADD PUSH1 0x0 KECCAK256 PUSH1 0x0 DUP4 DUP2 MSTORE PUSH1 0x20 ADD SWAP1 DUP2 MSTORE PUSH1 0x20 ADD PUSH1 0x0 KECCAK256 SLOAD EQ PUSH2 0xCEC JUMPI PUSH1 0x40 MLOAD PUSH32 0x8C379A000000000000000000000000000000000000000000000000000000000 DUP2 MSTORE PUSH1 0x4 ADD PUSH2 0xCE3 SWAP1 PUSH2 0x4DA8 JUMP JUMPDEST PUSH1 0x40 MLOAD DUP1 SWAP2 SUB SWAP1 REVERT JUMPDEST DUP5 DUP5 PUSH1 0x1 PUSH1 0x0 DUP4 PUSH20 0xFFFFFFFFFFFFFFFFFFFFFFFFFFFFFFFFFFFFFFFF AND PUSH20 0xFFFFFFFFFFFFFFFFFFFFFFFFFFFFFFFFFFFFFFFF AND DUP2 MSTORE PUSH1 0x20 ADD SWAP1 DUP2 MSTORE PUSH1 0x20 ADD PUSH1 0x0 KECCAK256 PUSH1 0x0 DUP3 DUP2 MSTORE PUSH1 0x20 ADD SWAP1 DUP2 MSTORE PUSH1 0x20 ADD PUSH1 0x0 KECCAK256 PUSH1 0x1 ADD SLOAD TIMESTAMP LT PUSH2 0xD83 JUMPI PUSH1 0x40 MLOAD PUSH32 0x8C379A000000000000000000000000000000000000000000000000000000000 DUP2 MSTORE PUSH1 0x4 ADD PUSH2 0xD7A SWAP1 PUSH2 0x4DE8 JUMP JUMPDEST PUSH1 0x40 MLOAD DUP1 SWAP2 SUB SWAP1 REVERT JUMPDEST CALLVALUE PUSH1 0x0 DUP2 GT PUSH2 0xDC7 JUMPI PUSH1 0x40 MLOAD PUSH32 0x8C379A000000000000000000000000000000000000000000000000000000000 DUP2 MSTORE PUSH1 0x4 ADD PUSH2 0xDBE SWAP1 PUSH2 0x4D48 JUMP JUMPDEST PUSH1 0x40 MLOAD DUP1 SWAP2 SUB SWAP1 REVERT JUMPDEST DUP8 DUP8 CALLVALUE DUP9 PUSH1 0x0 DUP1 PUSH20 0xFFFFFFFFFFFFFFFFFFFFFFFFFFFFFFFFFFFFFFFF AND PUSH1 0x1 PUSH1 0x0 DUP8 PUSH20 0xFFFFFFFFFFFFFFFFFFFFFFFFFFFFFFFFFFFFFFFF AND PUSH20 0xFFFFFFFFFFFFFFFFFFFFFFFFFFFFFFFFFFFFFFFF AND DUP2 MSTORE PUSH1 0x20 ADD SWAP1 DUP2 MSTORE PUSH1 0x20 ADD PUSH1 0x0 KECCAK256 PUSH1 0x0 DUP7 DUP2 MSTORE PUSH1 0x20 ADD SWAP1 DUP2 MSTORE PUSH1 0x20 ADD PUSH1 0x0 KECCAK256 PUSH1 0x6 ADD PUSH1 0x0 SWAP1 SLOAD SWAP1 PUSH2 0x100 EXP SWAP1 DIV PUSH20 0xFFFFFFFFFFFFFFFFFFFFFFFFFFFFFFFFFFFFFFFF AND PUSH20 0xFFFFFFFFFFFFFFFFFFFFFFFFFFFFFFFFFFFFFFFF AND EQ ISZERO PUSH2 0xF1B JUMPI PUSH2 0xF14 DUP4 PUSH1 0x3 PUSH1 0x0 DUP9 PUSH20 0xFFFFFFFFFFFFFFFFFFFFFFFFFFFFFFFFFFFFFFFF AND PUSH20 0xFFFFFFFFFFFFFFFFFFFFFFFFFFFFFFFFFFFFFFFF AND DUP2 MSTORE PUSH1 0x20 ADD SWAP1 DUP2 MSTORE PUSH1 0x20 ADD PUSH1 0x0 KECCAK256 PUSH1 0x0 DUP8 DUP2 MSTORE PUSH1 0x20 ADD SWAP1 DUP2 MSTORE PUSH1 0x20 ADD PUSH1 0x0 KECCAK256 PUSH1 0x0 CALLER PUSH20 0xFFFFFFFFFFFFFFFFFFFFFFFFFFFFFFFFFFFFFFFF AND PUSH20 0xFFFFFFFFFFFFFFFFFFFFFFFFFFFFFFFFFFFFFFFF AND DUP2 MSTORE PUSH1 0x20 ADD SWAP1 DUP2 MSTORE PUSH1 0x20 ADD PUSH1 0x0 KECCAK256 SLOAD PUSH2 0x3A56 SWAP1 SWAP2 SWAP1 PUSH4 0xFFFFFFFF AND JUMP JUMPDEST SWAP1 POP PUSH2 0xFBE JUMP JUMPDEST PUSH2 0xFBB DUP3 PUSH1 0x3 PUSH1 0x0 DUP9 PUSH20 0xFFFFFFFFFFFFFFFFFFFFFFFFFFFFFFFFFFFFFFFF AND PUSH20 0xFFFFFFFFFFFFFFFFFFFFFFFFFFFFFFFFFFFFFFFF AND DUP2 MSTORE PUSH1 0x20 ADD SWAP1 DUP2 MSTORE PUSH1 0x20 ADD PUSH1 0x0 KECCAK256 PUSH1 0x0 DUP8 DUP2 MSTORE PUSH1 0x20 ADD SWAP1 DUP2 MSTORE PUSH1 0x20 ADD PUSH1 0x0 KECCAK256 PUSH1 0x0 CALLER PUSH20 0xFFFFFFFFFFFFFFFFFFFFFFFFFFFFFFFFFFFFFFFF AND PUSH20 0xFFFFFFFFFFFFFFFFFFFFFFFFFFFFFFFFFFFFFFFF AND DUP2 MSTORE PUSH1 0x20 ADD SWAP1 DUP2 MSTORE PUSH1 0x20 ADD PUSH1 0x0 KECCAK256 SLOAD PUSH2 0x3A56 SWAP1 SWAP2 SWAP1 PUSH4 0xFFFFFFFF AND JUMP JUMPDEST SWAP1 POP JUMPDEST PUSH1 0x1 PUSH1 0x0 DUP7 PUSH20 0xFFFFFFFFFFFFFFFFFFFFFFFFFFFFFFFFFFFFFFFF AND PUSH20 0xFFFFFFFFFFFFFFFFFFFFFFFFFFFFFFFFFFFFFFFF AND DUP2 MSTORE PUSH1 0x20 ADD SWAP1 DUP2 MSTORE PUSH1 0x20 ADD PUSH1 0x0 KECCAK256 PUSH1 0x0 DUP6 DUP2 MSTORE PUSH1 0x20 ADD SWAP1 DUP2 MSTORE PUSH1 0x20 ADD PUSH1 0x0 KECCAK256 PUSH1 0x3 ADD SLOAD DUP2 GT PUSH2 0x1053 JUMPI PUSH1 0x40 MLOAD PUSH32 0x8C379A000000000000000000000000000000000000000000000000000000000 DUP2 MSTORE PUSH1 0x4 ADD PUSH2 0x104A SWAP1 PUSH2 0x4DC8 JUMP JUMPDEST PUSH1 0x40 MLOAD DUP1 SWAP2 SUB SWAP1 REVERT JUMPDEST PUSH1 0x0 DUP14 SWAP1 POP PUSH1 0x0 DUP14 SWAP1 POP PUSH1 0x0 PUSH2 0x10FF DUP15 PUSH1 0x3 PUSH1 0x0 DUP7 PUSH20 0xFFFFFFFFFFFFFFFFFFFFFFFFFFFFFFFFFFFFFFFF AND PUSH20 0xFFFFFFFFFFFFFFFFFFFFFFFFFFFFFFFFFFFFFFFF AND DUP2 MSTORE PUSH1 0x20 ADD SWAP1 DUP2 MSTORE PUSH1 0x20 ADD PUSH1 0x0 KECCAK256 PUSH1 0x0 DUP6 DUP2 MSTORE PUSH1 0x20 ADD SWAP1 DUP2 MSTORE PUSH1 0x20 ADD PUSH1 0x0 KECCAK256 PUSH1 0x0 CALLER PUSH20 0xFFFFFFFFFFFFFFFFFFFFFFFFFFFFFFFFFFFFFFFF AND PUSH20 0xFFFFFFFFFFFFFFFFFFFFFFFFFFFFFFFFFFFFFFFF AND DUP2 MSTORE PUSH1 0x20 ADD SWAP1 DUP2 MSTORE PUSH1 0x20 ADD PUSH1 0x0 KECCAK256 SLOAD PUSH2 0x3A56 SWAP1 SWAP2 SWAP1 PUSH4 0xFFFFFFFF AND JUMP JUMPDEST SWAP1 POP PUSH1 0x0 PUSH20 0xFFFFFFFFFFFFFFFFFFFFFFFFFFFFFFFFFFFFFFFF AND PUSH1 0x1 PUSH1 0x0 DUP6 PUSH20 0xFFFFFFFFFFFFFFFFFFFFFFFFFFFFFFFFFFFFFFFF AND PUSH20 0xFFFFFFFFFFFFFFFFFFFFFFFFFFFFFFFFFFFFFFFF AND DUP2 MSTORE PUSH1 0x20 ADD SWAP1 DUP2 MSTORE PUSH1 0x20 ADD PUSH1 0x0 KECCAK256 PUSH1 0x0 DUP5 DUP2 MSTORE PUSH1 0x20 ADD SWAP1 DUP2 MSTORE PUSH1 0x20 ADD PUSH1 0x0 KECCAK256 PUSH1 0x6 ADD PUSH1 0x0 SWAP1 SLOAD SWAP1 PUSH2 0x100 EXP SWAP1 DIV PUSH20 0xFFFFFFFFFFFFFFFFFFFFFFFFFFFFFFFFFFFFFFFF AND PUSH20 0xFFFFFFFFFFFFFFFFFFFFFFFFFFFFFFFFFFFFFFFF AND EQ PUSH2 0x1226 JUMPI PUSH2 0x1225 DUP15 PUSH1 0x1 PUSH1 0x0 DUP7 PUSH20 0xFFFFFFFFFFFFFFFFFFFFFFFFFFFFFFFFFFFFFFFF AND PUSH20 0xFFFFFFFFFFFFFFFFFFFFFFFFFFFFFFFFFFFFFFFF AND DUP2 MSTORE PUSH1 0x20 ADD SWAP1 DUP2 MSTORE PUSH1 0x20 ADD PUSH1 0x0 KECCAK256 PUSH1 0x0 DUP6 DUP2 MSTORE PUSH1 0x20 ADD SWAP1 DUP2 MSTORE PUSH1 0x20 ADD PUSH1 0x0 KECCAK256 PUSH1 0x6 ADD PUSH1 0x0 SWAP1 SLOAD SWAP1 PUSH2 0x100 EXP SWAP1 DIV PUSH20 0xFFFFFFFFFFFFFFFFFFFFFFFFFFFFFFFFFFFFFFFF AND PUSH2 0x3984 JUMP JUMPDEST JUMPDEST DUP1 PUSH1 0x1 PUSH1 0x0 DUP6 PUSH20 0xFFFFFFFFFFFFFFFFFFFFFFFFFFFFFFFFFFFFFFFF AND PUSH20 0xFFFFFFFFFFFFFFFFFFFFFFFFFFFFFFFFFFFFFFFF AND DUP2 MSTORE PUSH1 0x20 ADD SWAP1 DUP2 MSTORE PUSH1 0x20 ADD PUSH1 0x0 KECCAK256 PUSH1 0x0 DUP5 DUP2 MSTORE PUSH1 0x20 ADD SWAP1 DUP2 MSTORE PUSH1 0x20 ADD PUSH1 0x0 KECCAK256 PUSH1 0x3 ADD DUP2 SWAP1 SSTORE POP CALLER PUSH1 0x1 PUSH1 0x0 DUP6 PUSH20 0xFFFFFFFFFFFFFFFFFFFFFFFFFFFFFFFFFFFFFFFF AND PUSH20 0xFFFFFFFFFFFFFFFFFFFFFFFFFFFFFFFFFFFFFFFF AND DUP2 MSTORE PUSH1 0x20 ADD SWAP1 DUP2 MSTORE PUSH1 0x20 ADD PUSH1 0x0 KECCAK256 PUSH1 0x0 DUP5 DUP2 MSTORE PUSH1 0x20 ADD SWAP1 DUP2 MSTORE PUSH1 0x20 ADD PUSH1 0x0 KECCAK256 PUSH1 0x4 ADD PUSH1 0x0 PUSH2 0x100 EXP DUP2 SLOAD DUP2 PUSH20 0xFFFFFFFFFFFFFFFFFFFFFFFFFFFFFFFFFFFFFFFF MUL NOT AND SWAP1 DUP4 PUSH20 0xFFFFFFFFFFFFFFFFFFFFFFFFFFFFFFFFFFFFFFFF AND MUL OR SWAP1 SSTORE POP DUP1 PUSH1 0x3 PUSH1 0x0 DUP6 PUSH20 0xFFFFFFFFFFFFFFFFFFFFFFFFFFFFFFFFFFFFFFFF AND PUSH20 0xFFFFFFFFFFFFFFFFFFFFFFFFFFFFFFFFFFFFFFFF AND DUP2 MSTORE PUSH1 0x20 ADD SWAP1 DUP2 MSTORE PUSH1 0x20 ADD PUSH1 0x0 KECCAK256 PUSH1 0x0 DUP5 DUP2 MSTORE PUSH1 0x20 ADD SWAP1 DUP2 MSTORE PUSH1 0x20 ADD PUSH1 0x0 KECCAK256 PUSH1 0x0 CALLER PUSH20 0xFFFFFFFFFFFFFFFFFFFFFFFFFFFFFFFFFFFFFFFF AND PUSH20 0xFFFFFFFFFFFFFFFFFFFFFFFFFFFFFFFFFFFFFFFF AND DUP2 MSTORE PUSH1 0x20 ADD SWAP1 DUP2 MSTORE PUSH1 0x20 ADD PUSH1 0x0 KECCAK256 DUP2 SWAP1 SSTORE POP PUSH32 0x907CDADC7C1A8ABCDD80CDD85EB18377631E4F413FB6397A8252FF7B358AC6CB DUP4 DUP4 DUP4 CALLER PUSH1 0x40 MLOAD PUSH2 0x13D7 SWAP5 SWAP4 SWAP3 SWAP2 SWAP1 PUSH2 0x4C6B JUMP JUMPDEST PUSH1 0x40 MLOAD DUP1 SWAP2 SUB SWAP1 LOG1 POP POP POP POP POP POP POP POP POP POP POP POP POP POP POP POP JUMP JUMPDEST DUP3 DUP3 PUSH1 0x1 PUSH1 0x2 PUSH1 0x0 DUP5 PUSH20 0xFFFFFFFFFFFFFFFFFFFFFFFFFFFFFFFFFFFFFFFF AND PUSH20 0xFFFFFFFFFFFFFFFFFFFFFFFFFFFFFFFFFFFFFFFF AND DUP2 MSTORE PUSH1 0x20 ADD SWAP1 DUP2 MSTORE PUSH1 0x20 ADD PUSH1 0x0 KECCAK256 PUSH1 0x0 DUP4 DUP2 MSTORE PUSH1 0x20 ADD SWAP1 DUP2 MSTORE PUSH1 0x20 ADD PUSH1 0x0 KECCAK256 SLOAD EQ PUSH2 0x1486 JUMPI PUSH1 0x40 MLOAD PUSH32 0x8C379A000000000000000000000000000000000000000000000000000000000 DUP2 MSTORE PUSH1 0x4 ADD PUSH2 0x147D SWAP1 PUSH2 0x4D88 JUMP JUMPDEST PUSH1 0x40 MLOAD DUP1 SWAP2 SUB SWAP1 REVERT JUMPDEST DUP5 DUP5 PUSH1 0x0 DUP1 DUP4 PUSH20 0xFFFFFFFFFFFFFFFFFFFFFFFFFFFFFFFFFFFFFFFF AND PUSH20 0xFFFFFFFFFFFFFFFFFFFFFFFFFFFFFFFFFFFFFFFF AND DUP2 MSTORE PUSH1 0x20 ADD SWAP1 DUP2 MSTORE PUSH1 0x20 ADD PUSH1 0x0 KECCAK256 PUSH1 0x0 DUP3 DUP2 MSTORE PUSH1 0x20 ADD SWAP1 DUP2 MSTORE PUSH1 0x20 ADD PUSH1 0x0 KECCAK256 PUSH1 0x0 ADD PUSH1 0x0 SWAP1 SLOAD SWAP1 PUSH2 0x100 EXP SWAP1 DIV PUSH20 0xFFFFFFFFFFFFFFFFFFFFFFFFFFFFFFFFFFFFFFFF AND PUSH20 0xFFFFFFFFFFFFFFFFFFFFFFFFFFFFFFFFFFFFFFFF AND CALLER PUSH20 0xFFFFFFFFFFFFFFFFFFFFFFFFFFFFFFFFFFFFFFFF AND EQ PUSH2 0x1568 JUMPI PUSH1 0x40 MLOAD PUSH32 0x8C379A000000000000000000000000000000000000000000000000000000000 DUP2 MSTORE PUSH1 0x4 ADD PUSH2 0x155F SWAP1 PUSH2 0x4E88 JUMP JUMPDEST PUSH1 0x40 MLOAD DUP1 SWAP2 SUB SWAP1 REVERT JUMPDEST DUP5 PUSH1 0x0 DUP2 GT PUSH2 0x15AC JUMPI PUSH1 0x40 MLOAD PUSH32 0x8C379A000000000000000000000000000000000000000000000000000000000 DUP2 MSTORE PUSH1 0x4 ADD PUSH2 0x15A3 SWAP1 PUSH2 0x4D48 JUMP JUMPDEST PUSH1 0x40 MLOAD DUP1 SWAP2 SUB SWAP1 REVERT JUMPDEST DUP6 PUSH1 0x0 DUP1 DUP11 PUSH20 0xFFFFFFFFFFFFFFFFFFFFFFFFFFFFFFFFFFFFFFFF AND PUSH20 0xFFFFFFFFFFFFFFFFFFFFFFFFFFFFFFFFFFFFFFFF AND DUP2 MSTORE PUSH1 0x20 ADD SWAP1 DUP2 MSTORE PUSH1 0x20 ADD PUSH1 0x0 KECCAK256 PUSH1 0x0 DUP10 DUP2 MSTORE PUSH1 0x20 ADD SWAP1 DUP2 MSTORE PUSH1 0x20 ADD PUSH1 0x0 KECCAK256 PUSH1 0x3 ADD DUP2 SWAP1 SSTORE POP PUSH32 0x575A0876095CCF47276A37DCE683308A625403D132D219F95205CE205B2E12BC DUP9 DUP9 DUP9 PUSH1 0x40 MLOAD PUSH2 0x1636 SWAP4 SWAP3 SWAP2 SWAP1 PUSH2 0x4C34 JUMP JUMPDEST PUSH1 0x40 MLOAD DUP1 SWAP2 SUB SWAP1 LOG1 POP POP POP POP POP POP POP POP JUMP JUMPDEST DUP2 DUP2 PUSH1 0x1 PUSH1 0x0 DUP4 PUSH20 0xFFFFFFFFFFFFFFFFFFFFFFFFFFFFFFFFFFFFFFFF AND PUSH20 0xFFFFFFFFFFFFFFFFFFFFFFFFFFFFFFFFFFFFFFFF AND DUP2 MSTORE PUSH1 0x20 ADD SWAP1 DUP2 MSTORE PUSH1 0x20 ADD PUSH1 0x0 KECCAK256 PUSH1 0x0 DUP3 DUP2 MSTORE PUSH1 0x20 ADD SWAP1 DUP2 MSTORE PUSH1 0x20 ADD PUSH1 0x0 KECCAK256 PUSH1 0x1 ADD SLOAD TIMESTAMP GT PUSH2 0x16DF JUMPI PUSH1 0x40 MLOAD PUSH32 0x8C379A000000000000000000000000000000000000000000000000000000000 DUP2 MSTORE PUSH1 0x4 ADD PUSH2 0x16D6 SWAP1 PUSH2 0x4E68 JUMP JUMPDEST PUSH1 0x40 MLOAD DUP1 SWAP2 SUB SWAP1 REVERT JUMPDEST PUSH1 0x1 PUSH1 0x0 DUP6 PUSH20 0xFFFFFFFFFFFFFFFFFFFFFFFFFFFFFFFFFFFFFFFF AND PUSH20 0xFFFFFFFFFFFFFFFFFFFFFFFFFFFFFFFFFFFFFFFF AND DUP2 MSTORE PUSH1 0x20 ADD SWAP1 DUP2 MSTORE PUSH1 0x20 ADD PUSH1 0x0 KECCAK256 PUSH1 0x0 DUP5 DUP2 MSTORE PUSH1 0x20 ADD SWAP1 DUP2 MSTORE PUSH1 0x20 ADD PUSH1 0x0 KECCAK256 PUSH1 0x4 ADD PUSH1 0x0 SWAP1 SLOAD SWAP1 PUSH2 0x100 EXP SWAP1 DIV PUSH20 0xFFFFFFFFFFFFFFFFFFFFFFFFFFFFFFFFFFFFFFFF AND PUSH20 0xFFFFFFFFFFFFFFFFFFFFFFFFFFFFFFFFFFFFFFFF AND CALLER PUSH20 0xFFFFFFFFFFFFFFFFFFFFFFFFFFFFFFFFFFFFFFFF AND EQ ISZERO PUSH2 0x17C1 JUMPI PUSH1 0x40 MLOAD PUSH32 0x8C379A000000000000000000000000000000000000000000000000000000000 DUP2 MSTORE PUSH1 0x4 ADD PUSH2 0x17B8 SWAP1 PUSH2 0x4D08 JUMP JUMPDEST PUSH1 0x40 MLOAD DUP1 SWAP2 SUB SWAP1 REVERT JUMPDEST PUSH1 0x0 PUSH1 0x3 PUSH1 0x0 DUP7 PUSH20 0xFFFFFFFFFFFFFFFFFFFFFFFFFFFFFFFFFFFFFFFF AND PUSH20 0xFFFFFFFFFFFFFFFFFFFFFFFFFFFFFFFFFFFFFFFF AND DUP2 MSTORE PUSH1 0x20 ADD SWAP1 DUP2 MSTORE PUSH1 0x20 ADD PUSH1 0x0 KECCAK256 PUSH1 0x0 DUP6 DUP2 MSTORE PUSH1 0x20 ADD SWAP1 DUP2 MSTORE PUSH1 0x20 ADD PUSH1 0x0 KECCAK256 PUSH1 0x0 CALLER PUSH20 0xFFFFFFFFFFFFFFFFFFFFFFFFFFFFFFFFFFFFFFFF AND PUSH20 0xFFFFFFFFFFFFFFFFFFFFFFFFFFFFFFFFFFFFFFFF AND DUP2 MSTORE PUSH1 0x20 ADD SWAP1 DUP2 MSTORE PUSH1 0x20 ADD PUSH1 0x0 KECCAK256 SLOAD GT PUSH2 0x1891 JUMPI PUSH1 0x40 MLOAD PUSH32 0x8C379A000000000000000000000000000000000000000000000000000000000 DUP2 MSTORE PUSH1 0x4 ADD PUSH2 0x1888 SWAP1 PUSH2 0x4EA8 JUMP JUMPDEST PUSH1 0x40 MLOAD DUP1 SWAP2 SUB SWAP1 REVERT JUMPDEST PUSH1 0x0 PUSH1 0x3 PUSH1 0x0 DUP7 PUSH20 0xFFFFFFFFFFFFFFFFFFFFFFFFFFFFFFFFFFFFFFFF AND PUSH20 0xFFFFFFFFFFFFFFFFFFFFFFFFFFFFFFFFFFFFFFFF AND DUP2 MSTORE PUSH1 0x20 ADD SWAP1 DUP2 MSTORE PUSH1 0x20 ADD PUSH1 0x0 KECCAK256 PUSH1 0x0 DUP6 DUP2 MSTORE PUSH1 0x20 ADD SWAP1 DUP2 MSTORE PUSH1 0x20 ADD PUSH1 0x0 KECCAK256 PUSH1 0x0 CALLER PUSH20 0xFFFFFFFFFFFFFFFFFFFFFFFFFFFFFFFFFFFFFFFF AND PUSH20 0xFFFFFFFFFFFFFFFFFFFFFFFFFFFFFFFFFFFFFFFF AND DUP2 MSTORE PUSH1 0x20 ADD SWAP1 DUP2 MSTORE PUSH1 0x20 ADD PUSH1 0x0 KECCAK256 DUP2 SWAP1 SSTORE POP PUSH32 0xDE8CB9AA2C755CF75D5FBC4FEC824B10E311652306F1FCA5C8E57A04758B0AA7 DUP5 DUP5 CALLER PUSH1 0x40 MLOAD PUSH2 0x1957 SWAP4 SWAP3 SWAP2 SWAP1 PUSH2 0x4BAA JUMP JUMPDEST PUSH1 0x40 MLOAD DUP1 SWAP2 SUB SWAP1 LOG1 POP POP POP POP JUMP JUMPDEST DUP2 DUP2 PUSH1 0x2 DUP1 PUSH1 0x0 DUP5 PUSH20 0xFFFFFFFFFFFFFFFFFFFFFFFFFFFFFFFFFFFFFFFF AND PUSH20 0xFFFFFFFFFFFFFFFFFFFFFFFFFFFFFFFFFFFFFFFF AND DUP2 MSTORE PUSH1 0x20 ADD SWAP1 DUP2 MSTORE PUSH1 0x20 ADD PUSH1 0x0 KECCAK256 PUSH1 0x0 DUP4 DUP2 MSTORE PUSH1 0x20 ADD SWAP1 DUP2 MSTORE PUSH1 0x20 ADD PUSH1 0x0 KECCAK256 SLOAD EQ PUSH2 0x19F9 JUMPI PUSH1 0x40 MLOAD PUSH32 0x8C379A000000000000000000000000000000000000000000000000000000000 DUP2 MSTORE PUSH1 0x4 ADD PUSH2 0x19F0 SWAP1 PUSH2 0x4DA8 JUMP JUMPDEST PUSH1 0x40 MLOAD DUP1 SWAP2 SUB SWAP1 REVERT JUMPDEST DUP4 DUP4 PUSH1 0x1 PUSH1 0x0 DUP4 PUSH20 0xFFFFFFFFFFFFFFFFFFFFFFFFFFFFFFFFFFFFFFFF AND PUSH20 0xFFFFFFFFFFFFFFFFFFFFFFFFFFFFFFFFFFFFFFFF AND DUP2 MSTORE PUSH1 0x20 ADD SWAP1 DUP2 MSTORE PUSH1 0x20 ADD PUSH1 0x0 KECCAK256 PUSH1 0x0 DUP3 DUP2 MSTORE PUSH1 0x20 ADD SWAP1 DUP2 MSTORE PUSH1 0x20 ADD PUSH1 0x0 KECCAK256 PUSH1 0x1 ADD SLOAD TIMESTAMP GT PUSH2 0x1A90 JUMPI PUSH1 0x40 MLOAD PUSH32 0x8C379A000000000000000000000000000000000000000000000000000000000 DUP2 MSTORE PUSH1 0x4 ADD PUSH2 0x1A87 SWAP1 PUSH2 0x4E68 JUMP JUMPDEST PUSH1 0x40 MLOAD DUP1 SWAP2 SUB SWAP1 REVERT JUMPDEST PUSH1 0x0 PUSH1 0x1 PUSH1 0x0 DUP9 PUSH20 0xFFFFFFFFFFFFFFFFFFFFFFFFFFFFFFFFFFFFFFFF AND PUSH20 0xFFFFFFFFFFFFFFFFFFFFFFFFFFFFFFFFFFFFFFFF AND DUP2 MSTORE PUSH1 0x20 ADD SWAP1 DUP2 MSTORE PUSH1 0x20 ADD PUSH1 0x0 KECCAK256 PUSH1 0x0 DUP8 DUP2 MSTORE PUSH1 0x20 ADD SWAP1 DUP2 MSTORE PUSH1 0x20 ADD PUSH1 0x0 KECCAK256 PUSH1 0x4 ADD PUSH1 0x0 SWAP1 SLOAD SWAP1 PUSH2 0x100 EXP SWAP1 DIV PUSH20 0xFFFFFFFFFFFFFFFFFFFFFFFFFFFFFFFFFFFFFFFF AND SWAP1 POP PUSH2 0x1B67 DUP8 DUP8 PUSH1 0x1 PUSH1 0x0 DUP12 PUSH20 0xFFFFFFFFFFFFFFFFFFFFFFFFFFFFFFFFFFFFFFFF AND PUSH20 0xFFFFFFFFFFFFFFFFFFFFFFFFFFFFFFFFFFFFFFFF AND DUP2 MSTORE PUSH1 0x20 ADD SWAP1 DUP2 MSTORE PUSH1 0x20 ADD PUSH1 0x0 KECCAK256 PUSH1 0x0 DUP11 DUP2 MSTORE PUSH1 0x20 ADD SWAP1 DUP2 MSTORE PUSH1 0x20 ADD PUSH1 0x0 KECCAK256 PUSH1 0x3 ADD SLOAD DUP5 PUSH2 0x3A6C JUMP JUMPDEST PUSH1 0x0 PUSH1 0x3 PUSH1 0x0 DUP10 PUSH20 0xFFFFFFFFFFFFFFFFFFFFFFFFFFFFFFFFFFFFFFFF AND PUSH20 0xFFFFFFFFFFFFFFFFFFFFFFFFFFFFFFFFFFFFFFFF AND DUP2 MSTORE PUSH1 0x20 ADD SWAP1 DUP2 MSTORE PUSH1 0x20 ADD PUSH1 0x0 KECCAK256 PUSH1 0x0 DUP9 DUP2 MSTORE PUSH1 0x20 ADD SWAP1 DUP2 MSTORE PUSH1 0x20 ADD PUSH1 0x0 KECCAK256 PUSH1 0x0 DUP4 PUSH20 0xFFFFFFFFFFFFFFFFFFFFFFFFFFFFFFFFFFFFFFFF AND PUSH20 0xFFFFFFFFFFFFFFFFFFFFFFFFFFFFFFFFFFFFFFFF AND DUP2 MSTORE PUSH1 0x20 ADD SWAP1 DUP2 MSTORE PUSH1 0x20 ADD PUSH1 0x0 KECCAK256 DUP2 SWAP1 SSTORE POP PUSH1 0x7 PUSH1 0x5 PUSH1 0x0 DUP10 PUSH20 0xFFFFFFFFFFFFFFFFFFFFFFFFFFFFFFFFFFFFFFFF AND PUSH20 0xFFFFFFFFFFFFFFFFFFFFFFFFFFFFFFFFFFFFFFFF AND DUP2 MSTORE PUSH1 0x20 ADD SWAP1 DUP2 MSTORE PUSH1 0x20 ADD PUSH1 0x0 KECCAK256 PUSH1 0x0 DUP9 DUP2 MSTORE PUSH1 0x20 ADD SWAP1 DUP2 MSTORE PUSH1 0x20 ADD PUSH1 0x0 KECCAK256 SLOAD DUP2 SLOAD DUP2 LT PUSH2 0x1C5E JUMPI PUSH2 0x1C5D PUSH2 0x50A7 JUMP JUMPDEST JUMPDEST SWAP1 PUSH1 0x0 MSTORE PUSH1 0x20 PUSH1 0x0 KECCAK256 SWAP1 PUSH1 0x2 MUL ADD PUSH1 0x0 DUP1 DUP3 ADD PUSH1 0x0 PUSH2 0x100 EXP DUP2 SLOAD SWAP1 PUSH20 0xFFFFFFFFFFFFFFFFFFFFFFFFFFFFFFFFFFFFFFFF MUL NOT AND SWAP1 SSTORE PUSH1 0x1 DUP3 ADD PUSH1 0x0 SWAP1 SSTORE POP POP PUSH32 0xB31CB4F6609B11A57D1B6B14CC3F81F4B3E609F709A5B1E46892A45F9CC29ED8 DUP8 DUP8 DUP4 PUSH1 0x1 PUSH1 0x0 DUP13 PUSH20 0xFFFFFFFFFFFFFFFFFFFFFFFFFFFFFFFFFFFFFFFF AND PUSH20 0xFFFFFFFFFFFFFFFFFFFFFFFFFFFFFFFFFFFFFFFF AND DUP2 MSTORE PUSH1 0x20 ADD SWAP1 DUP2 MSTORE PUSH1 0x20 ADD PUSH1 0x0 KECCAK256 PUSH1 0x0 DUP12 DUP2 MSTORE PUSH1 0x20 ADD SWAP1 DUP2 MSTORE PUSH1 0x20 ADD PUSH1 0x0 KECCAK256 PUSH1 0x3 ADD SLOAD PUSH1 0x1 PUSH1 0x0 DUP14 PUSH20 0xFFFFFFFFFFFFFFFFFFFFFFFFFFFFFFFFFFFFFFFF AND PUSH20 0xFFFFFFFFFFFFFFFFFFFFFFFFFFFFFFFFFFFFFFFF AND DUP2 MSTORE PUSH1 0x20 ADD SWAP1 DUP2 MSTORE PUSH1 0x20 ADD PUSH1 0x0 KECCAK256 PUSH1 0x0 DUP13 DUP2 MSTORE PUSH1 0x20 ADD SWAP1 DUP2 MSTORE PUSH1 0x20 ADD PUSH1 0x0 KECCAK256 PUSH1 0x5 ADD PUSH1 0x0 SWAP1 SLOAD SWAP1 PUSH2 0x100 EXP SWAP1 DIV PUSH20 0xFFFFFFFFFFFFFFFFFFFFFFFFFFFFFFFFFFFFFFFF AND PUSH1 0x40 MLOAD PUSH2 0x1D9B SWAP6 SWAP5 SWAP4 SWAP3 SWAP2 SWAP1 PUSH2 0x4BE1 JUMP JUMPDEST PUSH1 0x40 MLOAD DUP1 SWAP2 SUB SWAP1 LOG1 POP POP POP POP POP POP POP JUMP JUMPDEST PUSH1 0x2 PUSH1 0x20 MSTORE DUP2 PUSH1 0x0 MSTORE PUSH1 0x40 PUSH1 0x0 KECCAK256 PUSH1 0x20 MSTORE DUP1 PUSH1 0x0 MSTORE PUSH1 0x40 PUSH1 0x0 KECCAK256 PUSH1 0x0 SWAP2 POP SWAP2 POP POP SLOAD DUP2 JUMP JUMPDEST DUP4 DUP3 DUP2 PUSH20 0xFFFFFFFFFFFFFFFFFFFFFFFFFFFFFFFFFFFFFFFF AND PUSH4 0x6352211E DUP3 PUSH1 0x40 MLOAD DUP3 PUSH4 0xFFFFFFFF AND PUSH1 0xE0 SHL DUP2 MSTORE PUSH1 0x4 ADD PUSH2 0x1E0C SWAP2 SWAP1 PUSH2 0x4F3E JUMP JUMPDEST PUSH1 0x20 PUSH1 0x40 MLOAD DUP1 DUP4 SUB DUP2 DUP7 DUP1 EXTCODESIZE ISZERO DUP1 ISZERO PUSH2 0x1E24 JUMPI PUSH1 0x0 DUP1 REVERT JUMPDEST POP GAS STATICCALL ISZERO DUP1 ISZERO PUSH2 0x1E38 JUMPI RETURNDATASIZE PUSH1 0x0 DUP1 RETURNDATACOPY RETURNDATASIZE PUSH1 0x0 REVERT JUMPDEST POP POP POP POP PUSH1 0x40 MLOAD RETURNDATASIZE PUSH1 0x1F NOT PUSH1 0x1F DUP3 ADD AND DUP3 ADD DUP1 PUSH1 0x40 MSTORE POP DUP2 ADD SWAP1 PUSH2 0x1E5C SWAP2 SWAP1 PUSH2 0x42B3 JUMP JUMPDEST PUSH20 0xFFFFFFFFFFFFFFFFFFFFFFFFFFFFFFFFFFFFFFFF AND CALLER PUSH20 0xFFFFFFFFFFFFFFFFFFFFFFFFFFFFFFFFFFFFFFFF AND EQ PUSH2 0x1EC9 JUMPI PUSH1 0x40 MLOAD PUSH32 0x8C379A000000000000000000000000000000000000000000000000000000000 DUP2 MSTORE PUSH1 0x4 ADD PUSH2 0x1EC0 SWAP1 PUSH2 0x4E88 JUMP JUMPDEST PUSH1 0x40 MLOAD DUP1 SWAP2 SUB SWAP1 REVERT JUMPDEST DUP6 DUP5 PUSH1 0x0 PUSH1 0x2 PUSH1 0x0 DUP5 PUSH20 0xFFFFFFFFFFFFFFFFFFFFFFFFFFFFFFFFFFFFFFFF AND PUSH20 0xFFFFFFFFFFFFFFFFFFFFFFFFFFFFFFFFFFFFFFFF AND DUP2 MSTORE PUSH1 0x20 ADD SWAP1 DUP2 MSTORE PUSH1 0x20 ADD PUSH1 0x0 KECCAK256 PUSH1 0x0 DUP4 DUP2 MSTORE PUSH1 0x20 ADD SWAP1 DUP2 MSTORE PUSH1 0x20 ADD PUSH1 0x0 KECCAK256 SLOAD EQ PUSH2 0x1F5E JUMPI PUSH1 0x40 MLOAD PUSH32 0x8C379A000000000000000000000000000000000000000000000000000000000 DUP2 MSTORE PUSH1 0x4 ADD PUSH2 0x1F55 SWAP1 PUSH2 0x4E08 JUMP JUMPDEST PUSH1 0x40 MLOAD DUP1 SWAP2 SUB SWAP1 REVERT JUMPDEST DUP8 DUP7 DUP2 PUSH20 0xFFFFFFFFFFFFFFFFFFFFFFFFFFFFFFFFFFFFFFFF AND PUSH4 0xE985E9C5 CALLER ADDRESS PUSH1 0x40 MLOAD DUP4 PUSH4 0xFFFFFFFF AND PUSH1 0xE0 SHL DUP2 MSTORE PUSH1 0x4 ADD PUSH2 0x1F9B SWAP3 SWAP2 SWAP1 PUSH2 0x4A0C JUMP JUMPDEST PUSH1 0x20 PUSH1 0x40 MLOAD DUP1 DUP4 SUB DUP2 DUP7 DUP1 EXTCODESIZE ISZERO DUP1 ISZERO PUSH2 0x1FB3 JUMPI PUSH1 0x0 DUP1 REVERT JUMPDEST POP GAS STATICCALL ISZERO DUP1 ISZERO PUSH2 0x1FC7 JUMPI RETURNDATASIZE PUSH1 0x0 DUP1 RETURNDATACOPY RETURNDATASIZE PUSH1 0x0 REVERT JUMPDEST POP POP POP POP PUSH1 0x40 MLOAD RETURNDATASIZE PUSH1 0x1F NOT PUSH1 0x1F DUP3 ADD AND DUP3 ADD DUP1 PUSH1 0x40 MSTORE POP DUP2 ADD SWAP1 PUSH2 0x1FEB SWAP2 SWAP1 PUSH2 0x4595 JUMP JUMPDEST PUSH2 0x202A JUMPI PUSH1 0x40 MLOAD PUSH32 0x8C379A000000000000000000000000000000000000000000000000000000000 DUP2 MSTORE PUSH1 0x4 ADD PUSH2 0x2021 SWAP1 PUSH2 0x4D28 JUMP JUMPDEST PUSH1 0x40 MLOAD DUP1 SWAP2 SUB SWAP1 REVERT JUMPDEST DUP7 PUSH1 0x0 DUP2 GT PUSH2 0x206E JUMPI PUSH1 0x40 MLOAD PUSH32 0x8C379A000000000000000000000000000000000000000000000000000000000 DUP2 MSTORE PUSH1 0x4 ADD PUSH2 0x2065 SWAP1 PUSH2 0x4D48 JUMP JUMPDEST PUSH1 0x40 MLOAD DUP1 SWAP2 SUB SWAP1 REVERT JUMPDEST PUSH1 0x40 MLOAD DUP1 PUSH1 0x80 ADD PUSH1 0x40 MSTORE DUP1 CALLER PUSH20 0xFFFFFFFFFFFFFFFFFFFFFFFFFFFFFFFFFFFFFFFF AND DUP2 MSTORE PUSH1 0x20 ADD PUSH1 0x0 PUSH20 0xFFFFFFFFFFFFFFFFFFFFFFFFFFFFFFFFFFFFFFFF AND DUP2 MSTORE PUSH1 0x20 ADD DUP12 PUSH20 0xFFFFFFFFFFFFFFFFFFFFFFFFFFFFFFFFFFFFFFFF AND DUP2 MSTORE PUSH1 0x20 ADD DUP10 DUP2 MSTORE POP PUSH1 0x0 DUP1 DUP14 PUSH20 0xFFFFFFFFFFFFFFFFFFFFFFFFFFFFFFFFFFFFFFFF AND PUSH20 0xFFFFFFFFFFFFFFFFFFFFFFFFFFFFFFFFFFFFFFFF AND DUP2 MSTORE PUSH1 0x20 ADD SWAP1 DUP2 MSTORE PUSH1 0x20 ADD PUSH1 0x0 KECCAK256 PUSH1 0x0 DUP12 DUP2 MSTORE PUSH1 0x20 ADD SWAP1 DUP2 MSTORE PUSH1 0x20 ADD PUSH1 0x0 KECCAK256 PUSH1 0x0 DUP3 ADD MLOAD DUP2 PUSH1 0x0 ADD PUSH1 0x0 PUSH2 0x100 EXP DUP2 SLOAD DUP2 PUSH20 0xFFFFFFFFFFFFFFFFFFFFFFFFFFFFFFFFFFFFFFFF MUL NOT AND SWAP1 DUP4 PUSH20 0xFFFFFFFFFFFFFFFFFFFFFFFFFFFFFFFFFFFFFFFF AND MUL OR SWAP1 SSTORE POP PUSH1 0x20 DUP3 ADD MLOAD DUP2 PUSH1 0x1 ADD PUSH1 0x0 PUSH2 0x100 EXP DUP2 SLOAD DUP2 PUSH20 0xFFFFFFFFFFFFFFFFFFFFFFFFFFFFFFFFFFFFFFFF MUL NOT AND SWAP1 DUP4 PUSH20 0xFFFFFFFFFFFFFFFFFFFFFFFFFFFFFFFFFFFFFFFF AND MUL OR SWAP1 SSTORE POP PUSH1 0x40 DUP3 ADD MLOAD DUP2 PUSH1 0x2 ADD PUSH1 0x0 PUSH2 0x100 EXP DUP2 SLOAD DUP2 PUSH20 0xFFFFFFFFFFFFFFFFFFFFFFFFFFFFFFFFFFFFFFFF MUL NOT AND SWAP1 DUP4 PUSH20 0xFFFFFFFFFFFFFFFFFFFFFFFFFFFFFFFFFFFFFFFF AND MUL OR SWAP1 SSTORE POP PUSH1 0x60 DUP3 ADD MLOAD DUP2 PUSH1 0x3 ADD SSTORE SWAP1 POP POP PUSH1 0x1 PUSH1 0x2 PUSH1 0x0 DUP14 PUSH20 0xFFFFFFFFFFFFFFFFFFFFFFFFFFFFFFFFFFFFFFFF AND PUSH20 0xFFFFFFFFFFFFFFFFFFFFFFFFFFFFFFFFFFFFFFFF AND DUP2 MSTORE PUSH1 0x20 ADD SWAP1 DUP2 MSTORE PUSH1 0x20 ADD PUSH1 0x0 KECCAK256 PUSH1 0x0 DUP12 DUP2 MSTORE PUSH1 0x20 ADD SWAP1 DUP2 MSTORE PUSH1 0x20 ADD PUSH1 0x0 KECCAK256 DUP2 SWAP1 SSTORE POP PUSH1 0x6 DUP1 SLOAD SWAP1 POP PUSH1 0x4 PUSH1 0x0 DUP14 PUSH20 0xFFFFFFFFFFFFFFFFFFFFFFFFFFFFFFFFFFFFFFFF AND PUSH20 0xFFFFFFFFFFFFFFFFFFFFFFFFFFFFFFFFFFFFFFFF AND DUP2 MSTORE PUSH1 0x20 ADD SWAP1 DUP2 MSTORE PUSH1 0x20 ADD PUSH1 0x0 KECCAK256 PUSH1 0x0 DUP12 DUP2 MSTORE PUSH1 0x20 ADD SWAP1 DUP2 MSTORE PUSH1 0x20 ADD PUSH1 0x0 KECCAK256 DUP2 SWAP1 SSTORE POP PUSH1 0x6 PUSH1 0x40 MLOAD DUP1 PUSH1 0x40 ADD PUSH1 0x40 MSTORE DUP1 DUP14 PUSH20 0xFFFFFFFFFFFFFFFFFFFFFFFFFFFFFFFFFFFFFFFF AND DUP2 MSTORE PUSH1 0x20 ADD DUP12 DUP2 MSTORE POP SWAP1 DUP1 PUSH1 0x1 DUP2 SLOAD ADD DUP1 DUP3 SSTORE DUP1 SWAP2 POP POP PUSH1 0x1 SWAP1 SUB SWAP1 PUSH1 0x0 MSTORE PUSH1 0x20 PUSH1 0x0 KECCAK256 SWAP1 PUSH1 0x2 MUL ADD PUSH1 0x0 SWAP1 SWAP2 SWAP1 SWAP2 SWAP1 SWAP2 POP PUSH1 0x0 DUP3 ADD MLOAD DUP2 PUSH1 0x0 ADD PUSH1 0x0 PUSH2 0x100 EXP DUP2 SLOAD DUP2 PUSH20 0xFFFFFFFFFFFFFFFFFFFFFFFFFFFFFFFFFFFFFFFF MUL NOT AND SWAP1 DUP4 PUSH20 0xFFFFFFFFFFFFFFFFFFFFFFFFFFFFFFFFFFFFFFFF AND MUL OR SWAP1 SSTORE POP PUSH1 0x20 DUP3 ADD MLOAD DUP2 PUSH1 0x1 ADD SSTORE POP POP DUP11 PUSH20 0xFFFFFFFFFFFFFFFFFFFFFFFFFFFFFFFFFFFFFFFF AND PUSH4 0x42842E0E CALLER ADDRESS DUP13 PUSH1 0x40 MLOAD DUP5 PUSH4 0xFFFFFFFF AND PUSH1 0xE0 SHL DUP2 MSTORE PUSH1 0x4 ADD PUSH2 0x2399 SWAP4 SWAP3 SWAP2 SWAP1 PUSH2 0x4B05 JUMP JUMPDEST PUSH1 0x0 PUSH1 0x40 MLOAD DUP1 DUP4 SUB DUP2 PUSH1 0x0 DUP8 DUP1 EXTCODESIZE ISZERO DUP1 ISZERO PUSH2 0x23B3 JUMPI PUSH1 0x0 DUP1 REVERT JUMPDEST POP GAS CALL ISZERO DUP1 ISZERO PUSH2 0x23C7 JUMPI RETURNDATASIZE PUSH1 0x0 DUP1 RETURNDATACOPY RETURNDATASIZE PUSH1 0x0 REVERT JUMPDEST POP POP POP POP PUSH32 0x78EEAD3CD01ED921C7653D000A6B73AEA643A7B9C066FB7D93EB2EAE8ACC2D9 DUP12 CALLER DUP13 DUP13 DUP13 TIMESTAMP PUSH1 0x40 MLOAD PUSH2 0x2404 SWAP7 SWAP6 SWAP5 SWAP4 SWAP3 SWAP2 SWAP1 PUSH2 0x4A35 JUMP JUMPDEST PUSH1 0x40 MLOAD DUP1 SWAP2 SUB SWAP1 LOG1 POP POP POP POP POP POP POP POP POP POP POP JUMP JUMPDEST PUSH2 0x2421 PUSH2 0x4120 JUMP JUMPDEST PUSH1 0x1 PUSH1 0x0 DUP5 PUSH20 0xFFFFFFFFFFFFFFFFFFFFFFFFFFFFFFFFFFFFFFFF AND PUSH20 0xFFFFFFFFFFFFFFFFFFFFFFFFFFFFFFFFFFFFFFFF AND DUP2 MSTORE PUSH1 0x20 ADD SWAP1 DUP2 MSTORE PUSH1 0x20 ADD PUSH1 0x0 KECCAK256 PUSH1 0x0 DUP4 DUP2 MSTORE PUSH1 0x20 ADD SWAP1 DUP2 MSTORE PUSH1 0x20 ADD PUSH1 0x0 KECCAK256 PUSH1 0x40 MLOAD DUP1 PUSH1 0xE0 ADD PUSH1 0x40 MSTORE SWAP1 DUP2 PUSH1 0x0 DUP3 ADD SLOAD DUP2 MSTORE PUSH1 0x20 ADD PUSH1 0x1 DUP3 ADD SLOAD DUP2 MSTORE PUSH1 0x20 ADD PUSH1 0x2 DUP3 ADD SLOAD DUP2 MSTORE PUSH1 0x20 ADD PUSH1 0x3 DUP3 ADD SLOAD DUP2 MSTORE PUSH1 0x20 ADD PUSH1 0x4 DUP3 ADD PUSH1 0x0 SWAP1 SLOAD SWAP1 PUSH2 0x100 EXP SWAP1 DIV PUSH20 0xFFFFFFFFFFFFFFFFFFFFFFFFFFFFFFFFFFFFFFFF AND PUSH20 0xFFFFFFFFFFFFFFFFFFFFFFFFFFFFFFFFFFFFFFFF AND PUSH20 0xFFFFFFFFFFFFFFFFFFFFFFFFFFFFFFFFFFFFFFFF AND DUP2 MSTORE PUSH1 0x20 ADD PUSH1 0x5 DUP3 ADD PUSH1 0x0 SWAP1 SLOAD SWAP1 PUSH2 0x100 EXP SWAP1 DIV PUSH20 0xFFFFFFFFFFFFFFFFFFFFFFFFFFFFFFFFFFFFFFFF AND PUSH20 0xFFFFFFFFFFFFFFFFFFFFFFFFFFFFFFFFFFFFFFFF AND PUSH20 0xFFFFFFFFFFFFFFFFFFFFFFFFFFFFFFFFFFFFFFFF AND DUP2 MSTORE PUSH1 0x20 ADD PUSH1 0x6 DUP3 ADD PUSH1 0x0 SWAP1 SLOAD SWAP1 PUSH2 0x100 EXP SWAP1 DIV PUSH20 0xFFFFFFFFFFFFFFFFFFFFFFFFFFFFFFFFFFFFFFFF AND PUSH20 0xFFFFFFFFFFFFFFFFFFFFFFFFFFFFFFFFFFFFFFFF AND PUSH20 0xFFFFFFFFFFFFFFFFFFFFFFFFFFFFFFFFFFFFFFFF AND DUP2 MSTORE POP POP SWAP1 POP SWAP3 SWAP2 POP POP JUMP JUMPDEST PUSH1 0x3 PUSH1 0x20 MSTORE DUP3 PUSH1 0x0 MSTORE PUSH1 0x40 PUSH1 0x0 KECCAK256 PUSH1 0x20 MSTORE DUP2 PUSH1 0x0 MSTORE PUSH1 0x40 PUSH1 0x0 KECCAK256 PUSH1 0x20 MSTORE DUP1 PUSH1 0x0 MSTORE PUSH1 0x40 PUSH1 0x0 KECCAK256 PUSH1 0x0 SWAP3 POP SWAP3 POP POP POP SLOAD DUP2 JUMP JUMPDEST PUSH1 0x0 DUP1 DUP5 SWAP1 POP DUP1 PUSH20 0xFFFFFFFFFFFFFFFFFFFFFFFFFFFFFFFFFFFFFFFF AND PUSH4 0x23B872DD DUP6 PUSH20 0x2258C5B9C82FF0FA923756ED3FD2ACB5616DF57C DUP7 PUSH1 0x40 MLOAD DUP5 PUSH4 0xFFFFFFFF AND PUSH1 0xE0 SHL DUP2 MSTORE PUSH1 0x4 ADD PUSH2 0x2637 SWAP4 SWAP3 SWAP2 SWAP1 PUSH2 0x4B05 JUMP JUMPDEST PUSH1 0x20 PUSH1 0x40 MLOAD DUP1 DUP4 SUB DUP2 PUSH1 0x0 DUP8 DUP1 EXTCODESIZE ISZERO DUP1 ISZERO PUSH2 0x2651 JUMPI PUSH1 0x0 DUP1 REVERT JUMPDEST POP GAS CALL ISZERO DUP1 ISZERO PUSH2 0x2665 JUMPI RETURNDATASIZE PUSH1 0x0 DUP1 RETURNDATACOPY RETURNDATASIZE PUSH1 0x0 REVERT JUMPDEST POP POP POP POP PUSH1 0x40 MLOAD RETURNDATASIZE PUSH1 0x1F NOT PUSH1 0x1F DUP3 ADD AND DUP3 ADD DUP1 PUSH1 0x40 MSTORE POP DUP2 ADD SWAP1 PUSH2 0x2689 SWAP2 SWAP1 PUSH2 0x4595 JUMP JUMPDEST POP PUSH1 0x1 SWAP2 POP POP SWAP4 SWAP3 POP POP POP JUMP JUMPDEST DUP2 DUP2 PUSH1 0x2 DUP1 PUSH1 0x0 DUP5 PUSH20 0xFFFFFFFFFFFFFFFFFFFFFFFFFFFFFFFFFFFFFFFF AND PUSH20 0xFFFFFFFFFFFFFFFFFFFFFFFFFFFFFFFFFFFFFFFF AND DUP2 MSTORE PUSH1 0x20 ADD SWAP1 DUP2 MSTORE PUSH1 0x20 ADD PUSH1 0x0 KECCAK256 PUSH1 0x0 DUP4 DUP2 MSTORE PUSH1 0x20 ADD SWAP1 DUP2 MSTORE PUSH1 0x20 ADD PUSH1 0x0 KECCAK256 SLOAD EQ PUSH2 0x272A JUMPI PUSH1 0x40 MLOAD PUSH32 0x8C379A000000000000000000000000000000000000000000000000000000000 DUP2 MSTORE PUSH1 0x4 ADD PUSH2 0x2721 SWAP1 PUSH2 0x4DA8 JUMP JUMPDEST PUSH1 0x40 MLOAD DUP1 SWAP2 SUB SWAP1 REVERT JUMPDEST DUP4 DUP4 PUSH1 0x1 PUSH1 0x0 DUP4 PUSH20 0xFFFFFFFFFFFFFFFFFFFFFFFFFFFFFFFFFFFFFFFF AND PUSH20 0xFFFFFFFFFFFFFFFFFFFFFFFFFFFFFFFFFFFFFFFF AND DUP2 MSTORE PUSH1 0x20 ADD SWAP1 DUP2 MSTORE PUSH1 0x20 ADD PUSH1 0x0 KECCAK256 PUSH1 0x0 DUP3 DUP2 MSTORE PUSH1 0x20 ADD SWAP1 DUP2 MSTORE PUSH1 0x20 ADD PUSH1 0x0 KECCAK256 PUSH1 0x5 ADD PUSH1 0x0 SWAP1 SLOAD SWAP1 PUSH2 0x100 EXP SWAP1 DIV PUSH20 0xFFFFFFFFFFFFFFFFFFFFFFFFFFFFFFFFFFFFFFFF AND PUSH20 0xFFFFFFFFFFFFFFFFFFFFFFFFFFFFFFFFFFFFFFFF AND CALLER PUSH20 0xFFFFFFFFFFFFFFFFFFFFFFFFFFFFFFFFFFFFFFFF AND EQ PUSH2 0x280D JUMPI PUSH1 0x40 MLOAD PUSH32 0x8C379A000000000000000000000000000000000000000000000000000000000 DUP2 MSTORE PUSH1 0x4 ADD PUSH2 0x2804 SWAP1 PUSH2 0x4D68 JUMP JUMPDEST PUSH1 0x40 MLOAD DUP1 SWAP2 SUB SWAP1 REVERT JUMPDEST DUP6 DUP6 PUSH1 0x1 PUSH1 0x0 DUP4 PUSH20 0xFFFFFFFFFFFFFFFFFFFFFFFFFFFFFFFFFFFFFFFF AND PUSH20 0xFFFFFFFFFFFFFFFFFFFFFFFFFFFFFFFFFFFFFFFF AND DUP2 MSTORE PUSH1 0x20 ADD SWAP1 DUP2 MSTORE PUSH1 0x20 ADD PUSH1 0x0 KECCAK256 PUSH1 0x0 DUP3 DUP2 MSTORE PUSH1 0x20 ADD SWAP1 DUP2 MSTORE PUSH1 0x20 ADD PUSH1 0x0 KECCAK256 PUSH1 0x1 ADD SLOAD TIMESTAMP LT PUSH2 0x28A4 JUMPI PUSH1 0x40 MLOAD PUSH32 0x8C379A000000000000000000000000000000000000000000000000000000000 DUP2 MSTORE PUSH1 0x4 ADD PUSH2 0x289B SWAP1 PUSH2 0x4DE8 JUMP JUMPDEST PUSH1 0x40 MLOAD DUP1 SWAP2 SUB SWAP1 REVERT JUMPDEST DUP8 DUP8 PUSH1 0x1 PUSH1 0x0 DUP4 PUSH20 0xFFFFFFFFFFFFFFFFFFFFFFFFFFFFFFFFFFFFFFFF AND PUSH20 0xFFFFFFFFFFFFFFFFFFFFFFFFFFFFFFFFFFFFFFFF AND DUP2 MSTORE PUSH1 0x20 ADD SWAP1 DUP2 MSTORE PUSH1 0x20 ADD PUSH1 0x0 KECCAK256 PUSH1 0x0 DUP3 DUP2 MSTORE PUSH1 0x20 ADD SWAP1 DUP2 MSTORE PUSH1 0x20 ADD PUSH1 0x0 KECCAK256 PUSH1 0x4 ADD PUSH1 0x0 SWAP1 SLOAD SWAP1 PUSH2 0x100 EXP SWAP1 DIV PUSH20 0xFFFFFFFFFFFFFFFFFFFFFFFFFFFFFFFFFFFFFFFF AND PUSH20 0xFFFFFFFFFFFFFFFFFFFFFFFFFFFFFFFFFFFFFFFF AND PUSH1 0x0 PUSH20 0xFFFFFFFFFFFFFFFFFFFFFFFFFFFFFFFFFFFFFFFF AND EQ PUSH2 0x2988 JUMPI PUSH1 0x40 MLOAD PUSH32 0x8C379A000000000000000000000000000000000000000000000000000000000 DUP2 MSTORE PUSH1 0x4 ADD PUSH2 0x297F SWAP1 PUSH2 0x4E28 JUMP JUMPDEST PUSH1 0x40 MLOAD DUP1 SWAP2 SUB SWAP1 REVERT JUMPDEST PUSH1 0x0 PUSH1 0x2 PUSH1 0x0 DUP13 PUSH20 0xFFFFFFFFFFFFFFFFFFFFFFFFFFFFFFFFFFFFFFFF AND PUSH20 0xFFFFFFFFFFFFFFFFFFFFFFFFFFFFFFFFFFFFFFFF AND DUP2 MSTORE PUSH1 0x20 ADD SWAP1 DUP2 MSTORE PUSH1 0x20 ADD PUSH1 0x0 KECCAK256 PUSH1 0x0 DUP12 DUP2 MSTORE PUSH1 0x20 ADD SWAP1 DUP2 MSTORE PUSH1 0x20 ADD PUSH1 0x0 KECCAK256 DUP2 SWAP1 SSTORE POP DUP10 PUSH20 0xFFFFFFFFFFFFFFFFFFFFFFFFFFFFFFFFFFFFFFFF AND PUSH4 0x42842E0E ADDRESS CALLER DUP13 PUSH1 0x40 MLOAD DUP5 PUSH4 0xFFFFFFFF AND PUSH1 0xE0 SHL DUP2 MSTORE PUSH1 0x4 ADD PUSH2 0x2A1B SWAP4 SWAP3 SWAP2 SWAP1 PUSH2 0x4B05 JUMP JUMPDEST PUSH1 0x0 PUSH1 0x40 MLOAD DUP1 DUP4 SUB DUP2 PUSH1 0x0 DUP8 DUP1 EXTCODESIZE ISZERO DUP1 ISZERO PUSH2 0x2A35 JUMPI PUSH1 0x0 DUP1 REVERT JUMPDEST POP GAS CALL ISZERO DUP1 ISZERO PUSH2 0x2A49 JUMPI RETURNDATASIZE PUSH1 0x0 DUP1 RETURNDATACOPY RETURNDATASIZE PUSH1 0x0 REVERT JUMPDEST POP POP POP POP PUSH1 0x7 PUSH1 0x5 PUSH1 0x0 DUP13 PUSH20 0xFFFFFFFFFFFFFFFFFFFFFFFFFFFFFFFFFFFFFFFF AND PUSH20 0xFFFFFFFFFFFFFFFFFFFFFFFFFFFFFFFFFFFFFFFF AND DUP2 MSTORE PUSH1 0x20 ADD SWAP1 DUP2 MSTORE PUSH1 0x20 ADD PUSH1 0x0 KECCAK256 PUSH1 0x0 DUP12 DUP2 MSTORE PUSH1 0x20 ADD SWAP1 DUP2 MSTORE PUSH1 0x20 ADD PUSH1 0x0 KECCAK256 SLOAD DUP2 SLOAD DUP2 LT PUSH2 0x2AB1 JUMPI PUSH2 0x2AB0 PUSH2 0x50A7 JUMP JUMPDEST JUMPDEST SWAP1 PUSH1 0x0 MSTORE PUSH1 0x20 PUSH1 0x0 KECCAK256 SWAP1 PUSH1 0x2 MUL ADD PUSH1 0x0 DUP1 DUP3 ADD PUSH1 0x0 PUSH2 0x100 EXP DUP2 SLOAD SWAP1 PUSH20 0xFFFFFFFFFFFFFFFFFFFFFFFFFFFFFFFFFFFFFFFF MUL NOT AND SWAP1 SSTORE PUSH1 0x1 DUP3 ADD PUSH1 0x0 SWAP1 SSTORE POP POP PUSH32 0xB9D411977D4EE731F87BB8F16EB6F8C1FB579CFF684642052BF6084E6E33238D DUP11 DUP11 CALLER PUSH1 0x40 MLOAD PUSH2 0x2B24 SWAP4 SWAP3 SWAP2 SWAP1 PUSH2 0x4BAA JUMP JUMPDEST PUSH1 0x40 MLOAD DUP1 SWAP2 SUB SWAP1 LOG1 POP POP POP POP POP POP POP POP POP POP JUMP JUMPDEST PUSH2 0x2B40 PUSH2 0x419F JUMP JUMPDEST PUSH1 0x0 DUP1 DUP5 PUSH20 0xFFFFFFFFFFFFFFFFFFFFFFFFFFFFFFFFFFFFFFFF AND PUSH20 0xFFFFFFFFFFFFFFFFFFFFFFFFFFFFFFFFFFFFFFFF AND DUP2 MSTORE PUSH1 0x20 ADD SWAP1 DUP2 MSTORE PUSH1 0x20 ADD PUSH1 0x0 KECCAK256 PUSH1 0x0 DUP4 DUP2 MSTORE PUSH1 0x20 ADD SWAP1 DUP2 MSTORE PUSH1 0x20 ADD PUSH1 0x0 KECCAK256 PUSH1 0x40 MLOAD DUP1 PUSH1 0x80 ADD PUSH1 0x40 MSTORE SWAP1 DUP2 PUSH1 0x0 DUP3 ADD PUSH1 0x0 SWAP1 SLOAD SWAP1 PUSH2 0x100 EXP SWAP1 DIV PUSH20 0xFFFFFFFFFFFFFFFFFFFFFFFFFFFFFFFFFFFFFFFF AND PUSH20 0xFFFFFFFFFFFFFFFFFFFFFFFFFFFFFFFFFFFFFFFF AND PUSH20 0xFFFFFFFFFFFFFFFFFFFFFFFFFFFFFFFFFFFFFFFF AND DUP2 MSTORE PUSH1 0x20 ADD PUSH1 0x1 DUP3 ADD PUSH1 0x0 SWAP1 SLOAD SWAP1 PUSH2 0x100 EXP SWAP1 DIV PUSH20 0xFFFFFFFFFFFFFFFFFFFFFFFFFFFFFFFFFFFFFFFF AND PUSH20 0xFFFFFFFFFFFFFFFFFFFFFFFFFFFFFFFFFFFFFFFF AND PUSH20 0xFFFFFFFFFFFFFFFFFFFFFFFFFFFFFFFFFFFFFFFF AND DUP2 MSTORE PUSH1 0x20 ADD PUSH1 0x2 DUP3 ADD PUSH1 0x0 SWAP1 SLOAD SWAP1 PUSH2 0x100 EXP SWAP1 DIV PUSH20 0xFFFFFFFFFFFFFFFFFFFFFFFFFFFFFFFFFFFFFFFF AND PUSH20 0xFFFFFFFFFFFFFFFFFFFFFFFFFFFFFFFFFFFFFFFF AND PUSH20 0xFFFFFFFFFFFFFFFFFFFFFFFFFFFFFFFFFFFFFFFF AND DUP2 MSTORE PUSH1 0x20 ADD PUSH1 0x3 DUP3 ADD SLOAD DUP2 MSTORE POP POP SWAP1 POP SWAP3 SWAP2 POP POP JUMP JUMPDEST PUSH1 0x60 PUSH1 0x6 DUP1 SLOAD DUP1 PUSH1 0x20 MUL PUSH1 0x20 ADD PUSH1 0x40 MLOAD SWAP1 DUP2 ADD PUSH1 0x40 MSTORE DUP1 SWAP3 SWAP2 SWAP1 DUP2 DUP2 MSTORE PUSH1 0x20 ADD PUSH1 0x0 SWAP1 JUMPDEST DUP3 DUP3 LT ISZERO PUSH2 0x2D64 JUMPI DUP4 DUP3 SWAP1 PUSH1 0x0 MSTORE PUSH1 0x20 PUSH1 0x0 KECCAK256 SWAP1 PUSH1 0x2 MUL ADD PUSH1 0x40 MLOAD DUP1 PUSH1 0x40 ADD PUSH1 0x40 MSTORE SWAP1 DUP2 PUSH1 0x0 DUP3 ADD PUSH1 0x0 SWAP1 SLOAD SWAP1 PUSH2 0x100 EXP SWAP1 DIV PUSH20 0xFFFFFFFFFFFFFFFFFFFFFFFFFFFFFFFFFFFFFFFF AND PUSH20 0xFFFFFFFFFFFFFFFFFFFFFFFFFFFFFFFFFFFFFFFF AND PUSH20 0xFFFFFFFFFFFFFFFFFFFFFFFFFFFFFFFFFFFFFFFF AND DUP2 MSTORE PUSH1 0x20 ADD PUSH1 0x1 DUP3 ADD SLOAD DUP2 MSTORE POP POP DUP2 MSTORE PUSH1 0x20 ADD SWAP1 PUSH1 0x1 ADD SWAP1 PUSH2 0x2CD2 JUMP JUMPDEST POP POP POP POP SWAP1 POP SWAP1 JUMP JUMPDEST DUP3 DUP3 PUSH1 0x1 PUSH1 0x2 PUSH1 0x0 DUP5 PUSH20 0xFFFFFFFFFFFFFFFFFFFFFFFFFFFFFFFFFFFFFFFF AND PUSH20 0xFFFFFFFFFFFFFFFFFFFFFFFFFFFFFFFFFFFFFFFF AND DUP2 MSTORE PUSH1 0x20 ADD SWAP1 DUP2 MSTORE PUSH1 0x20 ADD PUSH1 0x0 KECCAK256 PUSH1 0x0 DUP4 DUP2 MSTORE PUSH1 0x20 ADD SWAP1 DUP2 MSTORE PUSH1 0x20 ADD PUSH1 0x0 KECCAK256 SLOAD EQ PUSH2 0x2E02 JUMPI PUSH1 0x40 MLOAD PUSH32 0x8C379A000000000000000000000000000000000000000000000000000000000 DUP2 MSTORE PUSH1 0x4 ADD PUSH2 0x2DF9 SWAP1 PUSH2 0x4D88 JUMP JUMPDEST PUSH1 0x40 MLOAD DUP1 SWAP2 SUB SWAP1 REVERT JUMPDEST DUP3 PUSH1 0x0 DUP2 GT PUSH2 0x2E46 JUMPI PUSH1 0x40 MLOAD PUSH32 0x8C379A000000000000000000000000000000000000000000000000000000000 DUP2 MSTORE PUSH1 0x4 ADD PUSH2 0x2E3D SWAP1 PUSH2 0x4D48 JUMP JUMPDEST PUSH1 0x40 MLOAD DUP1 SWAP2 SUB SWAP1 REVERT JUMPDEST DUP6 DUP6 DUP6 PUSH1 0x0 DUP1 DUP5 PUSH20 0xFFFFFFFFFFFFFFFFFFFFFFFFFFFFFFFFFFFFFFFF AND PUSH20 0xFFFFFFFFFFFFFFFFFFFFFFFFFFFFFFFFFFFFFFFF AND DUP2 MSTORE PUSH1 0x20 ADD SWAP1 DUP2 MSTORE PUSH1 0x20 ADD PUSH1 0x0 KECCAK256 PUSH1 0x0 DUP4 DUP2 MSTORE PUSH1 0x20 ADD SWAP1 DUP2 MSTORE PUSH1 0x20 ADD PUSH1 0x0 KECCAK256 PUSH1 0x3 ADD SLOAD DUP2 LT ISZERO PUSH2 0x2EDE JUMPI PUSH1 0x40 MLOAD PUSH32 0x8C379A000000000000000000000000000000000000000000000000000000000 DUP2 MSTORE PUSH1 0x4 ADD PUSH2 0x2ED5 SWAP1 PUSH2 0x4EC8 JUMP JUMPDEST PUSH1 0x40 MLOAD DUP1 SWAP2 SUB SWAP1 REVERT JUMPDEST DUP9 PUSH20 0xFFFFFFFFFFFFFFFFFFFFFFFFFFFFFFFFFFFFFFFF AND PUSH4 0x42842E0E ADDRESS CALLER DUP12 PUSH1 0x40 MLOAD DUP5 PUSH4 0xFFFFFFFF AND PUSH1 0xE0 SHL DUP2 MSTORE PUSH1 0x4 ADD PUSH2 0x2F1B SWAP4 SWAP3 SWAP2 SWAP1 PUSH2 0x4B05 JUMP JUMPDEST PUSH1 0x0 PUSH1 0x40 MLOAD DUP1 DUP4 SUB DUP2 PUSH1 0x0 DUP8 DUP1 EXTCODESIZE ISZERO DUP1 ISZERO PUSH2 0x2F35 JUMPI PUSH1 0x0 DUP1 REVERT JUMPDEST POP GAS CALL ISZERO DUP1 ISZERO PUSH2 0x2F49 JUMPI RETURNDATASIZE PUSH1 0x0 DUP1 RETURNDATACOPY RETURNDATASIZE PUSH1 0x0 REVERT JUMPDEST POP POP POP POP PUSH1 0x0 PUSH1 0x2 PUSH1 0x0 DUP12 PUSH20 0xFFFFFFFFFFFFFFFFFFFFFFFFFFFFFFFFFFFFFFFF AND PUSH20 0xFFFFFFFFFFFFFFFFFFFFFFFFFFFFFFFFFFFFFFFF AND DUP2 MSTORE PUSH1 0x20 ADD SWAP1 DUP2 MSTORE PUSH1 0x20 ADD PUSH1 0x0 KECCAK256 PUSH1 0x0 DUP11 DUP2 MSTORE PUSH1 0x20 ADD SWAP1 DUP2 MSTORE PUSH1 0x20 ADD PUSH1 0x0 KECCAK256 DUP2 SWAP1 SSTORE POP PUSH1 0x6 PUSH1 0x4 PUSH1 0x0 DUP12 PUSH20 0xFFFFFFFFFFFFFFFFFFFFFFFFFFFFFFFFFFFFFFFF AND PUSH20 0xFFFFFFFFFFFFFFFFFFFFFFFFFFFFFFFFFFFFFFFF AND DUP2 MSTORE PUSH1 0x20 ADD SWAP1 DUP2 MSTORE PUSH1 0x20 ADD PUSH1 0x0 KECCAK256 PUSH1 0x0 DUP11 DUP2 MSTORE PUSH1 0x20 ADD SWAP1 DUP2 MSTORE PUSH1 0x20 ADD PUSH1 0x0 KECCAK256 SLOAD DUP2 SLOAD DUP2 LT PUSH2 0x3007 JUMPI PUSH2 0x3006 PUSH2 0x50A7 JUMP JUMPDEST JUMPDEST SWAP1 PUSH1 0x0 MSTORE PUSH1 0x20 PUSH1 0x0 KECCAK256 SWAP1 PUSH1 0x2 MUL ADD PUSH1 0x0 DUP1 DUP3 ADD PUSH1 0x0 PUSH2 0x100 EXP DUP2 SLOAD SWAP1 PUSH20 0xFFFFFFFFFFFFFFFFFFFFFFFFFFFFFFFFFFFFFFFF MUL NOT AND SWAP1 SSTORE PUSH1 0x1 DUP3 ADD PUSH1 0x0 SWAP1 SSTORE POP POP CALLER PUSH1 0x0 DUP1 DUP12 PUSH20 0xFFFFFFFFFFFFFFFFFFFFFFFFFFFFFFFFFFFFFFFF AND PUSH20 0xFFFFFFFFFFFFFFFFFFFFFFFFFFFFFFFFFFFFFFFF AND DUP2 MSTORE PUSH1 0x20 ADD SWAP1 DUP2 MSTORE PUSH1 0x20 ADD PUSH1 0x0 KECCAK256 PUSH1 0x0 DUP11 DUP2 MSTORE PUSH1 0x20 ADD SWAP1 DUP2 MSTORE PUSH1 0x20 ADD PUSH1 0x0 KECCAK256 PUSH1 0x1 ADD PUSH1 0x0 PUSH2 0x100 EXP DUP2 SLOAD DUP2 PUSH20 0xFFFFFFFFFFFFFFFFFFFFFFFFFFFFFFFFFFFFFFFF MUL NOT AND SWAP1 DUP4 PUSH20 0xFFFFFFFFFFFFFFFFFFFFFFFFFFFFFFFFFFFFFFFF AND MUL OR SWAP1 SSTORE POP PUSH2 0x3219 PUSH1 0x0 DUP1 DUP12 PUSH20 0xFFFFFFFFFFFFFFFFFFFFFFFFFFFFFFFFFFFFFFFF AND PUSH20 0xFFFFFFFFFFFFFFFFFFFFFFFFFFFFFFFFFFFFFFFF AND DUP2 MSTORE PUSH1 0x20 ADD SWAP1 DUP2 MSTORE PUSH1 0x20 ADD PUSH1 0x0 KECCAK256 PUSH1 0x0 DUP11 DUP2 MSTORE PUSH1 0x20 ADD SWAP1 DUP2 MSTORE PUSH1 0x20 ADD PUSH1 0x0 KECCAK256 PUSH1 0x0 ADD PUSH1 0x0 SWAP1 SLOAD SWAP1 PUSH2 0x100 EXP SWAP1 DIV PUSH20 0xFFFFFFFFFFFFFFFFFFFFFFFFFFFFFFFFFFFFFFFF AND PUSH1 0x0 DUP1 DUP13 PUSH20 0xFFFFFFFFFFFFFFFFFFFFFFFFFFFFFFFFFFFFFFFF AND PUSH20 0xFFFFFFFFFFFFFFFFFFFFFFFFFFFFFFFFFFFFFFFF AND DUP2 MSTORE PUSH1 0x20 ADD SWAP1 DUP2 MSTORE PUSH1 0x20 ADD PUSH1 0x0 KECCAK256 PUSH1 0x0 DUP12 DUP2 MSTORE PUSH1 0x20 ADD SWAP1 DUP2 MSTORE PUSH1 0x20 ADD PUSH1 0x0 KECCAK256 PUSH1 0x2 ADD PUSH1 0x0 SWAP1 SLOAD SWAP1 PUSH2 0x100 EXP SWAP1 DIV PUSH20 0xFFFFFFFFFFFFFFFFFFFFFFFFFFFFFFFFFFFFFFFF AND PUSH1 0x0 DUP1 DUP14 PUSH20 0xFFFFFFFFFFFFFFFFFFFFFFFFFFFFFFFFFFFFFFFF AND PUSH20 0xFFFFFFFFFFFFFFFFFFFFFFFFFFFFFFFFFFFFFFFF AND DUP2 MSTORE PUSH1 0x20 ADD SWAP1 DUP2 MSTORE PUSH1 0x20 ADD PUSH1 0x0 KECCAK256 PUSH1 0x0 DUP13 DUP2 MSTORE PUSH1 0x20 ADD SWAP1 DUP2 MSTORE PUSH1 0x20 ADD PUSH1 0x0 KECCAK256 PUSH1 0x3 ADD SLOAD PUSH2 0x3C28 JUMP JUMPDEST PUSH32 0x9FA3B1BB9266E05722B54A7A564D02A274BC80D39F4AF21E6BE405480996CEBA DUP10 CALLER DUP11 DUP11 PUSH1 0x40 MLOAD PUSH2 0x324E SWAP5 SWAP4 SWAP3 SWAP2 SWAP1 PUSH2 0x4B3C JUMP JUMPDEST PUSH1 0x40 MLOAD DUP1 SWAP2 SUB SWAP1 LOG1 POP POP POP POP POP POP POP POP POP JUMP JUMPDEST DUP6 DUP5 DUP2 PUSH20 0xFFFFFFFFFFFFFFFFFFFFFFFFFFFFFFFFFFFFFFFF AND PUSH4 0x6352211E DUP3 PUSH1 0x40 MLOAD DUP3 PUSH4 0xFFFFFFFF AND PUSH1 0xE0 SHL DUP2 MSTORE PUSH1 0x4 ADD PUSH2 0x329C SWAP2 SWAP1 PUSH2 0x4F3E JUMP JUMPDEST PUSH1 0x20 PUSH1 0x40 MLOAD DUP1 DUP4 SUB DUP2 DUP7 DUP1 EXTCODESIZE ISZERO DUP1 ISZERO PUSH2 0x32B4 JUMPI PUSH1 0x0 DUP1 REVERT JUMPDEST POP GAS STATICCALL ISZERO DUP1 ISZERO PUSH2 0x32C8 JUMPI RETURNDATASIZE PUSH1 0x0 DUP1 RETURNDATACOPY RETURNDATASIZE PUSH1 0x0 REVERT JUMPDEST POP POP POP POP PUSH1 0x40 MLOAD RETURNDATASIZE PUSH1 0x1F NOT PUSH1 0x1F DUP3 ADD AND DUP3 ADD DUP1 PUSH1 0x40 MSTORE POP DUP2 ADD SWAP1 PUSH2 0x32EC SWAP2 SWAP1 PUSH2 0x42B3 JUMP JUMPDEST PUSH20 0xFFFFFFFFFFFFFFFFFFFFFFFFFFFFFFFFFFFFFFFF AND CALLER PUSH20 0xFFFFFFFFFFFFFFFFFFFFFFFFFFFFFFFFFFFFFFFF AND EQ PUSH2 0x3359 JUMPI PUSH1 0x40 MLOAD PUSH32 0x8C379A000000000000000000000000000000000000000000000000000000000 DUP2 MSTORE PUSH1 0x4 ADD PUSH2 0x3350 SWAP1 PUSH2 0x4E88 JUMP JUMPDEST PUSH1 0x40 MLOAD DUP1 SWAP2 SUB SWAP1 REVERT JUMPDEST DUP8 DUP7 PUSH1 0x0 PUSH1 0x2 PUSH1 0x0 DUP5 PUSH20 0xFFFFFFFFFFFFFFFFFFFFFFFFFFFFFFFFFFFFFFFF AND PUSH20 0xFFFFFFFFFFFFFFFFFFFFFFFFFFFFFFFFFFFFFFFF AND DUP2 MSTORE PUSH1 0x20 ADD SWAP1 DUP2 MSTORE PUSH1 0x20 ADD PUSH1 0x0 KECCAK256 PUSH1 0x0 DUP4 DUP2 MSTORE PUSH1 0x20 ADD SWAP1 DUP2 MSTORE PUSH1 0x20 ADD PUSH1 0x0 KECCAK256 SLOAD EQ PUSH2 0x33EE JUMPI PUSH1 0x40 MLOAD PUSH32 0x8C379A000000000000000000000000000000000000000000000000000000000 DUP2 MSTORE PUSH1 0x4 ADD PUSH2 0x33E5 SWAP1 PUSH2 0x4E08 JUMP JUMPDEST PUSH1 0x40 MLOAD DUP1 SWAP2 SUB SWAP1 REVERT JUMPDEST DUP10 DUP9 DUP2 PUSH20 0xFFFFFFFFFFFFFFFFFFFFFFFFFFFFFFFFFFFFFFFF AND PUSH4 0xE985E9C5 CALLER ADDRESS PUSH1 0x40 MLOAD DUP4 PUSH4 0xFFFFFFFF AND PUSH1 0xE0 SHL DUP2 MSTORE PUSH1 0x4 ADD PUSH2 0x342B SWAP3 SWAP2 SWAP1 PUSH2 0x4A0C JUMP JUMPDEST PUSH1 0x20 PUSH1 0x40 MLOAD DUP1 DUP4 SUB DUP2 DUP7 DUP1 EXTCODESIZE ISZERO DUP1 ISZERO PUSH2 0x3443 JUMPI PUSH1 0x0 DUP1 REVERT JUMPDEST POP GAS STATICCALL ISZERO DUP1 ISZERO PUSH2 0x3457 JUMPI RETURNDATASIZE PUSH1 0x0 DUP1 RETURNDATACOPY RETURNDATASIZE PUSH1 0x0 REVERT JUMPDEST POP POP POP POP PUSH1 0x40 MLOAD RETURNDATASIZE PUSH1 0x1F NOT PUSH1 0x1F DUP3 ADD AND DUP3 ADD DUP1 PUSH1 0x40 MSTORE POP DUP2 ADD SWAP1 PUSH2 0x347B SWAP2 SWAP1 PUSH2 0x4595 JUMP JUMPDEST PUSH2 0x34BA JUMPI PUSH1 0x40 MLOAD PUSH32 0x8C379A000000000000000000000000000000000000000000000000000000000 DUP2 MSTORE PUSH1 0x4 ADD PUSH2 0x34B1 SWAP1 PUSH2 0x4D28 JUMP JUMPDEST PUSH1 0x40 MLOAD DUP1 SWAP2 SUB SWAP1 REVERT JUMPDEST DUP7 PUSH1 0x0 DUP2 GT PUSH2 0x34FE JUMPI PUSH1 0x40 MLOAD PUSH32 0x8C379A000000000000000000000000000000000000000000000000000000000 DUP2 MSTORE PUSH1 0x4 ADD PUSH2 0x34F5 SWAP1 PUSH2 0x4D48 JUMP JUMPDEST PUSH1 0x40 MLOAD DUP1 SWAP2 SUB SWAP1 REVERT JUMPDEST PUSH2 0x350C DUP14 DUP14 DUP14 DUP14 DUP14 DUP14 PUSH2 0x3C7C JUMP JUMPDEST PUSH1 0x7 DUP1 SLOAD SWAP1 POP PUSH1 0x5 PUSH1 0x0 DUP16 PUSH20 0xFFFFFFFFFFFFFFFFFFFFFFFFFFFFFFFFFFFFFFFF AND PUSH20 0xFFFFFFFFFFFFFFFFFFFFFFFFFFFFFFFFFFFFFFFF AND DUP2 MSTORE PUSH1 0x20 ADD SWAP1 DUP2 MSTORE PUSH1 0x20 ADD PUSH1 0x0 KECCAK256 PUSH1 0x0 DUP14 DUP2 MSTORE PUSH1 0x20 ADD SWAP1 DUP2 MSTORE PUSH1 0x20 ADD PUSH1 0x0 KECCAK256 DUP2 SWAP1 SSTORE POP PUSH1 0x7 PUSH1 0x40 MLOAD DUP1 PUSH1 0x40 ADD PUSH1 0x40 MSTORE DUP1 DUP16 PUSH20 0xFFFFFFFFFFFFFFFFFFFFFFFFFFFFFFFFFFFFFFFF AND DUP2 MSTORE PUSH1 0x20 ADD DUP14 DUP2 MSTORE POP SWAP1 DUP1 PUSH1 0x1 DUP2 SLOAD ADD DUP1 DUP3 SSTORE DUP1 SWAP2 POP POP PUSH1 0x1 SWAP1 SUB SWAP1 PUSH1 0x0 MSTORE PUSH1 0x20 PUSH1 0x0 KECCAK256 SWAP1 PUSH1 0x2 MUL ADD PUSH1 0x0 SWAP1 SWAP2 SWAP1 SWAP2 SWAP1 SWAP2 POP PUSH1 0x0 DUP3 ADD MLOAD DUP2 PUSH1 0x0 ADD PUSH1 0x0 PUSH2 0x100 EXP DUP2 SLOAD DUP2 PUSH20 0xFFFFFFFFFFFFFFFFFFFFFFFFFFFFFFFFFFFFFFFF MUL NOT AND SWAP1 DUP4 PUSH20 0xFFFFFFFFFFFFFFFFFFFFFFFFFFFFFFFFFFFFFFFF AND MUL OR SWAP1 SSTORE POP PUSH1 0x20 DUP3 ADD MLOAD DUP2 PUSH1 0x1 ADD SSTORE POP POP PUSH32 0xECBC6A097DA08DBF6F781CE204AAD454CE3DC8F112C51C7A56F1671DE89CEE8C DUP14 CALLER DUP15 DUP15 DUP15 DUP15 DUP15 PUSH1 0x40 MLOAD PUSH2 0x364A SWAP8 SWAP7 SWAP6 SWAP5 SWAP4 SWAP3 SWAP2 SWAP1 PUSH2 0x4A96 JUMP JUMPDEST PUSH1 0x40 MLOAD DUP1 SWAP2 SUB SWAP1 LOG1 POP POP POP POP POP POP POP POP POP POP POP POP POP JUMP JUMPDEST DUP2 DUP2 PUSH1 0x1 PUSH1 0x2 PUSH1 0x0 DUP5 PUSH20 0xFFFFFFFFFFFFFFFFFFFFFFFFFFFFFFFFFFFFFFFF AND PUSH20 0xFFFFFFFFFFFFFFFFFFFFFFFFFFFFFFFFFFFFFFFF AND DUP2 MSTORE PUSH1 0x20 ADD SWAP1 DUP2 MSTORE PUSH1 0x20 ADD PUSH1 0x0 KECCAK256 PUSH1 0x0 DUP4 DUP2 MSTORE PUSH1 0x20 ADD SWAP1 DUP2 MSTORE PUSH1 0x20 ADD PUSH1 0x0 KECCAK256 SLOAD EQ PUSH2 0x36F6 JUMPI PUSH1 0x40 MLOAD PUSH32 0x8C379A000000000000000000000000000000000000000000000000000000000 DUP2 MSTORE PUSH1 0x4 ADD PUSH2 0x36ED SWAP1 PUSH2 0x4D88 JUMP JUMPDEST PUSH1 0x40 MLOAD DUP1 SWAP2 SUB SWAP1 REVERT JUMPDEST DUP4 DUP4 PUSH1 0x0 DUP1 DUP4 PUSH20 0xFFFFFFFFFFFFFFFFFFFFFFFFFFFFFFFFFFFFFFFF AND PUSH20 0xFFFFFFFFFFFFFFFFFFFFFFFFFFFFFFFFFFFFFFFF AND DUP2 MSTORE PUSH1 0x20 ADD SWAP1 DUP2 MSTORE PUSH1 0x20 ADD PUSH1 0x0 KECCAK256 PUSH1 0x0 DUP3 DUP2 MSTORE PUSH1 0x20 ADD SWAP1 DUP2 MSTORE PUSH1 0x20 ADD PUSH1 0x0 KECCAK256 PUSH1 0x0 ADD PUSH1 0x0 SWAP1 SLOAD SWAP1 PUSH2 0x100 EXP SWAP1 DIV PUSH20 0xFFFFFFFFFFFFFFFFFFFFFFFFFFFFFFFFFFFFFFFF AND PUSH20 0xFFFFFFFFFFFFFFFFFFFFFFFFFFFFFFFFFFFFFFFF AND CALLER PUSH20 0xFFFFFFFFFFFFFFFFFFFFFFFFFFFFFFFFFFFFFFFF AND EQ PUSH2 0x37D8 JUMPI PUSH1 0x40 MLOAD PUSH32 0x8C379A000000000000000000000000000000000000000000000000000000000 DUP2 MSTORE PUSH1 0x4 ADD PUSH2 0x37CF SWAP1 PUSH2 0x4E88 JUMP JUMPDEST PUSH1 0x40 MLOAD DUP1 SWAP2 SUB SWAP1 REVERT JUMPDEST DUP6 PUSH20 0xFFFFFFFFFFFFFFFFFFFFFFFFFFFFFFFFFFFFFFFF AND PUSH4 0x42842E0E ADDRESS CALLER DUP9 PUSH1 0x40 MLOAD DUP5 PUSH4 0xFFFFFFFF AND PUSH1 0xE0 SHL DUP2 MSTORE PUSH1 0x4 ADD PUSH2 0x3815 SWAP4 SWAP3 SWAP2 SWAP1 PUSH2 0x4B05 JUMP JUMPDEST PUSH1 0x0 PUSH1 0x40 MLOAD DUP1 DUP4 SUB DUP2 PUSH1 0x0 DUP8 DUP1 EXTCODESIZE ISZERO DUP1 ISZERO PUSH2 0x382F JUMPI PUSH1 0x0 DUP1 REVERT JUMPDEST POP GAS CALL ISZERO DUP1 ISZERO PUSH2 0x3843 JUMPI RETURNDATASIZE PUSH1 0x0 DUP1 RETURNDATACOPY RETURNDATASIZE PUSH1 0x0 REVERT JUMPDEST POP POP POP POP PUSH1 0x0 PUSH1 0x2 PUSH1 0x0 DUP9 PUSH20 0xFFFFFFFFFFFFFFFFFFFFFFFFFFFFFFFFFFFFFFFF AND PUSH20 0xFFFFFFFFFFFFFFFFFFFFFFFFFFFFFFFFFFFFFFFF AND DUP2 MSTORE PUSH1 0x20 ADD SWAP1 DUP2 MSTORE PUSH1 0x20 ADD PUSH1 0x0 KECCAK256 PUSH1 0x0 DUP8 DUP2 MSTORE PUSH1 0x20 ADD SWAP1 DUP2 MSTORE PUSH1 0x20 ADD PUSH1 0x0 KECCAK256 DUP2 SWAP1 SSTORE POP PUSH1 0x6 PUSH1 0x4 PUSH1 0x0 DUP9 PUSH20 0xFFFFFFFFFFFFFFFFFFFFFFFFFFFFFFFFFFFFFFFF AND PUSH20 0xFFFFFFFFFFFFFFFFFFFFFFFFFFFFFFFFFFFFFFFF AND DUP2 MSTORE PUSH1 0x20 ADD SWAP1 DUP2 MSTORE PUSH1 0x20 ADD PUSH1 0x0 KECCAK256 PUSH1 0x0 DUP8 DUP2 MSTORE PUSH1 0x20 ADD SWAP1 DUP2 MSTORE PUSH1 0x20 ADD PUSH1 0x0 KECCAK256 SLOAD DUP2 SLOAD DUP2 LT PUSH2 0x3901 JUMPI PUSH2 0x3900 PUSH2 0x50A7 JUMP JUMPDEST JUMPDEST SWAP1 PUSH1 0x0 MSTORE PUSH1 0x20 PUSH1 0x0 KECCAK256 SWAP1 PUSH1 0x2 MUL ADD PUSH1 0x0 DUP1 DUP3 ADD PUSH1 0x0 PUSH2 0x100 EXP DUP2 SLOAD SWAP1 PUSH20 0xFFFFFFFFFFFFFFFFFFFFFFFFFFFFFFFFFFFFFFFF MUL NOT AND SWAP1 SSTORE PUSH1 0x1 DUP3 ADD PUSH1 0x0 SWAP1 SSTORE POP POP PUSH32 0xD7348FF00CF381A884144B50B3441398A48A7974EC349287DF80E18CEC9F5A31 DUP7 CALLER DUP8 PUSH1 0x40 MLOAD PUSH2 0x3974 SWAP4 SWAP3 SWAP2 SWAP1 PUSH2 0x4B05 JUMP JUMPDEST PUSH1 0x40 MLOAD DUP1 SWAP2 SUB SWAP1 LOG1 POP POP POP POP POP POP JUMP JUMPDEST DUP1 PUSH20 0xFFFFFFFFFFFFFFFFFFFFFFFFFFFFFFFFFFFFFFFF AND PUSH4 0x23B872DD CALLER ADDRESS DUP6 PUSH1 0x40 MLOAD DUP5 PUSH4 0xFFFFFFFF AND PUSH1 0xE0 SHL DUP2 MSTORE PUSH1 0x4 ADD PUSH2 0x39C1 SWAP4 SWAP3 SWAP2 SWAP1 PUSH2 0x4B05 JUMP JUMPDEST PUSH1 0x20 PUSH1 0x40 MLOAD DUP1 DUP4 SUB DUP2 PUSH1 0x0 DUP8 DUP1 EXTCODESIZE ISZERO DUP1 ISZERO PUSH2 0x39DB JUMPI PUSH1 0x0 DUP1 REVERT JUMPDEST POP GAS CALL ISZERO DUP1 ISZERO PUSH2 0x39EF JUMPI RETURNDATASIZE PUSH1 0x0 DUP1 RETURNDATACOPY RETURNDATASIZE PUSH1 0x0 REVERT JUMPDEST POP POP POP POP PUSH1 0x40 MLOAD RETURNDATASIZE PUSH1 0x1F NOT PUSH1 0x1F DUP3 ADD AND DUP3 ADD DUP1 PUSH1 0x40 MSTORE POP DUP2 ADD SWAP1 PUSH2 0x3A13 SWAP2 SWAP1 PUSH2 0x4595 JUMP JUMPDEST PUSH2 0x3A52 JUMPI PUSH1 0x40 MLOAD PUSH32 0x8C379A000000000000000000000000000000000000000000000000000000000 DUP2 MSTORE PUSH1 0x4 ADD PUSH2 0x3A49 SWAP1 PUSH2 0x4E48 JUMP JUMPDEST PUSH1 0x40 MLOAD DUP1 SWAP2 SUB SWAP1 REVERT JUMPDEST POP POP JUMP JUMPDEST PUSH1 0x0 DUP2 DUP4 PUSH2 0x3A64 SWAP2 SWAP1 PUSH2 0x4FAE JUMP JUMPDEST SWAP1 POP SWAP3 SWAP2 POP POP JUMP JUMPDEST DUP4 PUSH20 0xFFFFFFFFFFFFFFFFFFFFFFFFFFFFFFFFFFFFFFFF AND PUSH4 0x42842E0E ADDRESS DUP4 DUP7 PUSH1 0x40 MLOAD DUP5 PUSH4 0xFFFFFFFF AND PUSH1 0xE0 SHL DUP2 MSTORE PUSH1 0x4 ADD PUSH2 0x3AA9 SWAP4 SWAP3 SWAP2 SWAP1 PUSH2 0x4B05 JUMP JUMPDEST PUSH1 0x0 PUSH1 0x40 MLOAD DUP1 DUP4 SUB DUP2 PUSH1 0x0 DUP8 DUP1 EXTCODESIZE ISZERO DUP1 ISZERO PUSH2 0x3AC3 JUMPI PUSH1 0x0 DUP1 REVERT JUMPDEST POP GAS CALL ISZERO DUP1 ISZERO PUSH2 0x3AD7 JUMPI RETURNDATASIZE PUSH1 0x0 DUP1 RETURNDATACOPY RETURNDATASIZE PUSH1 0x0 REVERT JUMPDEST POP POP POP POP PUSH1 0x0 PUSH1 0x2 PUSH1 0x0 DUP7 PUSH20 0xFFFFFFFFFFFFFFFFFFFFFFFFFFFFFFFFFFFFFFFF AND PUSH20 0xFFFFFFFFFFFFFFFFFFFFFFFFFFFFFFFFFFFFFFFF AND DUP2 MSTORE PUSH1 0x20 ADD SWAP1 DUP2 MSTORE PUSH1 0x20 ADD PUSH1 0x0 KECCAK256 PUSH1 0x0 DUP6 DUP2 MSTORE PUSH1 0x20 ADD SWAP1 DUP2 MSTORE PUSH1 0x20 ADD PUSH1 0x0 KECCAK256 DUP2 SWAP1 SSTORE POP PUSH2 0x3C22 PUSH1 0x1 PUSH1 0x0 DUP7 PUSH20 0xFFFFFFFFFFFFFFFFFFFFFFFFFFFFFFFFFFFFFFFF AND PUSH20 0xFFFFFFFFFFFFFFFFFFFFFFFFFFFFFFFFFFFFFFFF AND DUP2 MSTORE PUSH1 0x20 ADD SWAP1 DUP2 MSTORE PUSH1 0x20 ADD PUSH1 0x0 KECCAK256 PUSH1 0x0 DUP6 DUP2 MSTORE PUSH1 0x20 ADD SWAP1 DUP2 MSTORE PUSH1 0x20 ADD PUSH1 0x0 KECCAK256 PUSH1 0x5 ADD PUSH1 0x0 SWAP1 SLOAD SWAP1 PUSH2 0x100 EXP SWAP1 DIV PUSH20 0xFFFFFFFFFFFFFFFFFFFFFFFFFFFFFFFFFFFFFFFF AND PUSH1 0x1 PUSH1 0x0 DUP8 PUSH20 0xFFFFFFFFFFFFFFFFFFFFFFFFFFFFFFFFFFFFFFFF AND PUSH20 0xFFFFFFFFFFFFFFFFFFFFFFFFFFFFFFFFFFFFFFFF AND DUP2 MSTORE PUSH1 0x20 ADD SWAP1 DUP2 MSTORE PUSH1 0x20 ADD PUSH1 0x0 KECCAK256 PUSH1 0x0 DUP7 DUP2 MSTORE PUSH1 0x20 ADD SWAP1 DUP2 MSTORE PUSH1 0x20 ADD PUSH1 0x0 KECCAK256 PUSH1 0x6 ADD PUSH1 0x0 SWAP1 SLOAD SWAP1 PUSH2 0x100 EXP SWAP1 DIV PUSH20 0xFFFFFFFFFFFFFFFFFFFFFFFFFFFFFFFFFFFFFFFF AND DUP5 PUSH2 0x3C28 JUMP JUMPDEST POP POP POP POP JUMP JUMPDEST PUSH1 0x0 PUSH20 0xFFFFFFFFFFFFFFFFFFFFFFFFFFFFFFFFFFFFFFFF AND DUP3 PUSH20 0xFFFFFFFFFFFFFFFFFFFFFFFFFFFFFFFFFFFFFFFF AND EQ PUSH2 0x3C6C JUMPI PUSH2 0x3C67 DUP4 DUP4 DUP4 PUSH2 0x3F0E JUMP JUMPDEST PUSH2 0x3C77 JUMP JUMPDEST PUSH2 0x3C76 DUP4 DUP3 PUSH2 0x406F JUMP JUMPDEST JUMPDEST POP POP POP JUMP JUMPDEST PUSH1 0x40 MLOAD DUP1 PUSH1 0xE0 ADD PUSH1 0x40 MSTORE DUP1 DUP5 DUP2 MSTORE PUSH1 0x20 ADD DUP4 DUP2 MSTORE PUSH1 0x20 ADD DUP3 DUP2 MSTORE PUSH1 0x20 ADD DUP3 DUP2 MSTORE PUSH1 0x20 ADD PUSH1 0x0 PUSH20 0xFFFFFFFFFFFFFFFFFFFFFFFFFFFFFFFFFFFFFFFF AND DUP2 MSTORE PUSH1 0x20 ADD CALLER PUSH20 0xFFFFFFFFFFFFFFFFFFFFFFFFFFFFFFFFFFFFFFFF AND DUP2 MSTORE PUSH1 0x20 ADD DUP7 PUSH20 0xFFFFFFFFFFFFFFFFFFFFFFFFFFFFFFFFFFFFFFFF AND DUP2 MSTORE POP PUSH1 0x1 PUSH1 0x0 DUP9 PUSH20 0xFFFFFFFFFFFFFFFFFFFFFFFFFFFFFFFFFFFFFFFF AND PUSH20 0xFFFFFFFFFFFFFFFFFFFFFFFFFFFFFFFFFFFFFFFF AND DUP2 MSTORE PUSH1 0x20 ADD SWAP1 DUP2 MSTORE PUSH1 0x20 ADD PUSH1 0x0 KECCAK256 PUSH1 0x0 DUP7 DUP2 MSTORE PUSH1 0x20 ADD SWAP1 DUP2 MSTORE PUSH1 0x20 ADD PUSH1 0x0 KECCAK256 PUSH1 0x0 DUP3 ADD MLOAD DUP2 PUSH1 0x0 ADD SSTORE PUSH1 0x20 DUP3 ADD MLOAD DUP2 PUSH1 0x1 ADD SSTORE PUSH1 0x40 DUP3 ADD MLOAD DUP2 PUSH1 0x2 ADD SSTORE PUSH1 0x60 DUP3 ADD MLOAD DUP2 PUSH1 0x3 ADD SSTORE PUSH1 0x80 DUP3 ADD MLOAD DUP2 PUSH1 0x4 ADD PUSH1 0x0 PUSH2 0x100 EXP DUP2 SLOAD DUP2 PUSH20 0xFFFFFFFFFFFFFFFFFFFFFFFFFFFFFFFFFFFFFFFF MUL NOT AND SWAP1 DUP4 PUSH20 0xFFFFFFFFFFFFFFFFFFFFFFFFFFFFFFFFFFFFFFFF AND MUL OR SWAP1 SSTORE POP PUSH1 0xA0 DUP3 ADD MLOAD DUP2 PUSH1 0x5 ADD PUSH1 0x0 PUSH2 0x100 EXP DUP2 SLOAD DUP2 PUSH20 0xFFFFFFFFFFFFFFFFFFFFFFFFFFFFFFFFFFFFFFFF MUL NOT AND SWAP1 DUP4 PUSH20 0xFFFFFFFFFFFFFFFFFFFFFFFFFFFFFFFFFFFFFFFF AND MUL OR SWAP1 SSTORE POP PUSH1 0xC0 DUP3 ADD MLOAD DUP2 PUSH1 0x6 ADD PUSH1 0x0 PUSH2 0x100 EXP DUP2 SLOAD DUP2 PUSH20 0xFFFFFFFFFFFFFFFFFFFFFFFFFFFFFFFFFFFFFFFF MUL NOT AND SWAP1 DUP4 PUSH20 0xFFFFFFFFFFFFFFFFFFFFFFFFFFFFFFFFFFFFFFFF AND MUL OR SWAP1 SSTORE POP SWAP1 POP POP PUSH1 0x2 DUP1 PUSH1 0x0 DUP9 PUSH20 0xFFFFFFFFFFFFFFFFFFFFFFFFFFFFFFFFFFFFFFFF AND PUSH20 0xFFFFFFFFFFFFFFFFFFFFFFFFFFFFFFFFFFFFFFFF AND DUP2 MSTORE PUSH1 0x20 ADD SWAP1 DUP2 MSTORE PUSH1 0x20 ADD PUSH1 0x0 KECCAK256 PUSH1 0x0 DUP7 DUP2 MSTORE PUSH1 0x20 ADD SWAP1 DUP2 MSTORE PUSH1 0x20 ADD PUSH1 0x0 KECCAK256 DUP2 SWAP1 SSTORE POP DUP6 PUSH20 0xFFFFFFFFFFFFFFFFFFFFFFFFFFFFFFFFFFFFFFFF AND PUSH4 0x42842E0E CALLER ADDRESS DUP8 PUSH1 0x40 MLOAD DUP5 PUSH4 0xFFFFFFFF AND PUSH1 0xE0 SHL DUP2 MSTORE PUSH1 0x4 ADD PUSH2 0x3ED4 SWAP4 SWAP3 SWAP2 SWAP1 PUSH2 0x4B05 JUMP JUMPDEST PUSH1 0x0 PUSH1 0x40 MLOAD DUP1 DUP4 SUB DUP2 PUSH1 0x0 DUP8 DUP1 EXTCODESIZE ISZERO DUP1 ISZERO PUSH2 0x3EEE JUMPI PUSH1 0x0 DUP1 REVERT JUMPDEST POP GAS CALL ISZERO DUP1 ISZERO PUSH2 0x3F02 JUMPI RETURNDATASIZE PUSH1 0x0 DUP1 RETURNDATACOPY RETURNDATASIZE PUSH1 0x0 REVERT JUMPDEST POP POP POP POP POP POP POP POP POP POP JUMP JUMPDEST DUP2 PUSH20 0xFFFFFFFFFFFFFFFFFFFFFFFFFFFFFFFFFFFFFFFF AND PUSH4 0x23B872DD CALLER ADDRESS DUP5 PUSH1 0x40 MLOAD DUP5 PUSH4 0xFFFFFFFF AND PUSH1 0xE0 SHL DUP2 MSTORE PUSH1 0x4 ADD PUSH2 0x3F4B SWAP4 SWAP3 SWAP2 SWAP1 PUSH2 0x4B05 JUMP JUMPDEST PUSH1 0x20 PUSH1 0x40 MLOAD DUP1 DUP4 SUB DUP2 PUSH1 0x0 DUP8 DUP1 EXTCODESIZE ISZERO DUP1 ISZERO PUSH2 0x3F65 JUMPI PUSH1 0x0 DUP1 REVERT JUMPDEST POP GAS CALL ISZERO DUP1 ISZERO PUSH2 0x3F79 JUMPI RETURNDATASIZE PUSH1 0x0 DUP1 RETURNDATACOPY RETURNDATASIZE PUSH1 0x0 REVERT JUMPDEST POP POP POP POP PUSH1 0x40 MLOAD RETURNDATASIZE PUSH1 0x1F NOT PUSH1 0x1F DUP3 ADD AND DUP3 ADD DUP1 PUSH1 0x40 MSTORE POP DUP2 ADD SWAP1 PUSH2 0x3F9D SWAP2 SWAP1 PUSH2 0x4595 JUMP JUMPDEST PUSH2 0x3FDC JUMPI PUSH1 0x40 MLOAD PUSH32 0x8C379A000000000000000000000000000000000000000000000000000000000 DUP2 MSTORE PUSH1 0x4 ADD PUSH2 0x3FD3 SWAP1 PUSH2 0x4E48 JUMP JUMPDEST PUSH1 0x40 MLOAD DUP1 SWAP2 SUB SWAP1 REVERT JUMPDEST DUP2 PUSH20 0xFFFFFFFFFFFFFFFFFFFFFFFFFFFFFFFFFFFFFFFF AND PUSH4 0xA9059CBB DUP5 DUP4 PUSH1 0x40 MLOAD DUP4 PUSH4 0xFFFFFFFF AND PUSH1 0xE0 SHL DUP2 MSTORE PUSH1 0x4 ADD PUSH2 0x4017 SWAP3 SWAP2 SWAP1 PUSH2 0x4B81 JUMP JUMPDEST PUSH1 0x20 PUSH1 0x40 MLOAD DUP1 DUP4 SUB DUP2 PUSH1 0x0 DUP8 DUP1 EXTCODESIZE ISZERO DUP1 ISZERO PUSH2 0x4031 JUMPI PUSH1 0x0 DUP1 REVERT JUMPDEST POP GAS CALL ISZERO DUP1 ISZERO PUSH2 0x4045 JUMPI RETURNDATASIZE PUSH1 0x0 DUP1 RETURNDATACOPY RETURNDATASIZE PUSH1 0x0 REVERT JUMPDEST POP POP POP POP PUSH1 0x40 MLOAD RETURNDATASIZE PUSH1 0x1F NOT PUSH1 0x1F DUP3 ADD AND DUP3 ADD DUP1 PUSH1 0x40 MSTORE POP DUP2 ADD SWAP1 PUSH2 0x4069 SWAP2 SWAP1 PUSH2 0x4595 JUMP JUMPDEST POP POP POP POP JUMP JUMPDEST PUSH1 0x0 DUP3 PUSH20 0xFFFFFFFFFFFFFFFFFFFFFFFFFFFFFFFFFFFFFFFF AND DUP3 PUSH1 0x40 MLOAD PUSH2 0x4095 SWAP1 PUSH2 0x49F7 JUMP JUMPDEST PUSH1 0x0 PUSH1 0x40 MLOAD DUP1 DUP4 SUB DUP2 DUP6 DUP8 GAS CALL SWAP3 POP POP POP RETURNDATASIZE DUP1 PUSH1 0x0 DUP2 EQ PUSH2 0x40D2 JUMPI PUSH1 0x40 MLOAD SWAP2 POP PUSH1 0x1F NOT PUSH1 0x3F RETURNDATASIZE ADD AND DUP3 ADD PUSH1 0x40 MSTORE RETURNDATASIZE DUP3 MSTORE RETURNDATASIZE PUSH1 0x0 PUSH1 0x20 DUP5 ADD RETURNDATACOPY PUSH2 0x40D7 JUMP JUMPDEST PUSH1 0x60 SWAP2 POP JUMPDEST POP POP SWAP1 POP DUP1 PUSH2 0x411B JUMPI PUSH1 0x40 MLOAD PUSH32 0x8C379A000000000000000000000000000000000000000000000000000000000 DUP2 MSTORE PUSH1 0x4 ADD PUSH2 0x4112 SWAP1 PUSH2 0x4EE8 JUMP JUMPDEST PUSH1 0x40 MLOAD DUP1 SWAP2 SUB SWAP1 REVERT JUMPDEST POP POP POP JUMP JUMPDEST PUSH1 0x40 MLOAD DUP1 PUSH1 0xE0 ADD PUSH1 0x40 MSTORE DUP1 PUSH1 0x0 DUP2 MSTORE PUSH1 0x20 ADD PUSH1 0x0 DUP2 MSTORE PUSH1 0x20 ADD PUSH1 0x0 DUP2 MSTORE PUSH1 0x20 ADD PUSH1 0x0 DUP2 MSTORE PUSH1 0x20 ADD PUSH1 0x0 PUSH20 0xFFFFFFFFFFFFFFFFFFFFFFFFFFFFFFFFFFFFFFFF AND DUP2 MSTORE PUSH1 0x20 ADD PUSH1 0x0 PUSH20 0xFFFFFFFFFFFFFFFFFFFFFFFFFFFFFFFFFFFFFFFF AND DUP2 MSTORE PUSH1 0x20 ADD PUSH1 0x0 PUSH20 0xFFFFFFFFFFFFFFFFFFFFFFFFFFFFFFFFFFFFFFFF AND DUP2 MSTORE POP SWAP1 JUMP JUMPDEST PUSH1 0x40 MLOAD DUP1 PUSH1 0x80 ADD PUSH1 0x40 MSTORE DUP1 PUSH1 0x0 PUSH20 0xFFFFFFFFFFFFFFFFFFFFFFFFFFFFFFFFFFFFFFFF AND DUP2 MSTORE PUSH1 0x20 ADD PUSH1 0x0 PUSH20 0xFFFFFFFFFFFFFFFFFFFFFFFFFFFFFFFFFFFFFFFF AND DUP2 MSTORE PUSH1 0x20 ADD PUSH1 0x0 PUSH20 0xFFFFFFFFFFFFFFFFFFFFFFFFFFFFFFFFFFFFFFFF AND DUP2 MSTORE PUSH1 0x20 ADD PUSH1 0x0 DUP2 MSTORE POP SWAP1 JUMP JUMPDEST PUSH1 0x0 DUP2 CALLDATALOAD SWAP1 POP PUSH2 0x4218 DUP2 PUSH2 0x5382 JUMP JUMPDEST SWAP3 SWAP2 POP POP JUMP JUMPDEST PUSH1 0x0 DUP2 MLOAD SWAP1 POP PUSH2 0x422D DUP2 PUSH2 0x5382 JUMP JUMPDEST SWAP3 SWAP2 POP POP JUMP JUMPDEST PUSH1 0x0 DUP2 MLOAD SWAP1 POP PUSH2 0x4242 DUP2 PUSH2 0x5399 JUMP JUMPDEST SWAP3 SWAP2 POP POP JUMP JUMPDEST PUSH1 0x0 DUP1 DUP4 PUSH1 0x1F DUP5 ADD SLT PUSH2 0x425E JUMPI PUSH2 0x425D PUSH2 0x50DB JUMP JUMPDEST JUMPDEST DUP3 CALLDATALOAD SWAP1 POP PUSH8 0xFFFFFFFFFFFFFFFF DUP2 GT ISZERO PUSH2 0x427B JUMPI PUSH2 0x427A PUSH2 0x50D6 JUMP JUMPDEST JUMPDEST PUSH1 0x20 DUP4 ADD SWAP2 POP DUP4 PUSH1 0x1 DUP3 MUL DUP4 ADD GT ISZERO PUSH2 0x4297 JUMPI PUSH2 0x4296 PUSH2 0x50E0 JUMP JUMPDEST JUMPDEST SWAP3 POP SWAP3 SWAP1 POP JUMP JUMPDEST PUSH1 0x0 DUP2 CALLDATALOAD SWAP1 POP PUSH2 0x42AD DUP2 PUSH2 0x53B0 JUMP JUMPDEST SWAP3 SWAP2 POP POP JUMP JUMPDEST PUSH1 0x0 PUSH1 0x20 DUP3 DUP5 SUB SLT ISZERO PUSH2 0x42C9 JUMPI PUSH2 0x42C8 PUSH2 0x50EA JUMP JUMPDEST JUMPDEST PUSH1 0x0 PUSH2 0x42D7 DUP5 DUP3 DUP6 ADD PUSH2 0x421E JUMP JUMPDEST SWAP2 POP POP SWAP3 SWAP2 POP POP JUMP JUMPDEST PUSH1 0x0 DUP1 PUSH1 0x0 PUSH1 0x60 DUP5 DUP7 SUB SLT ISZERO PUSH2 0x42F9 JUMPI PUSH2 0x42F8 PUSH2 0x50EA JUMP JUMPDEST JUMPDEST PUSH1 0x0 PUSH2 0x4307 DUP7 DUP3 DUP8 ADD PUSH2 0x4209 JUMP JUMPDEST SWAP4 POP POP PUSH1 0x20 PUSH2 0x4318 DUP7 DUP3 DUP8 ADD PUSH2 0x4209 JUMP JUMPDEST SWAP3 POP POP PUSH1 0x40 PUSH2 0x4329 DUP7 DUP3 DUP8 ADD PUSH2 0x429E JUMP JUMPDEST SWAP2 POP POP SWAP3 POP SWAP3 POP SWAP3 JUMP JUMPDEST PUSH1 0x0 DUP1 PUSH1 0x0 DUP1 PUSH1 0x0 PUSH1 0x80 DUP7 DUP9 SUB SLT ISZERO PUSH2 0x434F JUMPI PUSH2 0x434E PUSH2 0x50EA JUMP JUMPDEST JUMPDEST PUSH1 0x0 PUSH2 0x435D DUP9 DUP3 DUP10 ADD PUSH2 0x4209 JUMP JUMPDEST SWAP6 POP POP PUSH1 0x20 PUSH2 0x436E DUP9 DUP3 DUP10 ADD PUSH2 0x4209 JUMP JUMPDEST SWAP5 POP POP PUSH1 0x40 PUSH2 0x437F DUP9 DUP3 DUP10 ADD PUSH2 0x429E JUMP JUMPDEST SWAP4 POP POP PUSH1 0x60 DUP7 ADD CALLDATALOAD PUSH8 0xFFFFFFFFFFFFFFFF DUP2 GT ISZERO PUSH2 0x43A0 JUMPI PUSH2 0x439F PUSH2 0x50E5 JUMP JUMPDEST JUMPDEST PUSH2 0x43AC DUP9 DUP3 DUP10 ADD PUSH2 0x4248 JUMP JUMPDEST SWAP3 POP SWAP3 POP POP SWAP3 SWAP6 POP SWAP3 SWAP6 SWAP1 SWAP4 POP JUMP JUMPDEST PUSH1 0x0 DUP1 PUSH1 0x0 DUP1 PUSH1 0x80 DUP6 DUP8 SUB SLT ISZERO PUSH2 0x43D5 JUMPI PUSH2 0x43D4 PUSH2 0x50EA JUMP JUMPDEST JUMPDEST PUSH1 0x0 PUSH2 0x43E3 DUP8 DUP3 DUP9 ADD PUSH2 0x4209 JUMP JUMPDEST SWAP5 POP POP PUSH1 0x20 PUSH2 0x43F4 DUP8 DUP3 DUP9 ADD PUSH2 0x4209 JUMP JUMPDEST SWAP4 POP POP PUSH1 0x40 PUSH2 0x4405 DUP8 DUP3 DUP9 ADD PUSH2 0x429E JUMP JUMPDEST SWAP3 POP POP PUSH1 0x60 PUSH2 0x4416 DUP8 DUP3 DUP9 ADD PUSH2 0x429E JUMP JUMPDEST SWAP2 POP POP SWAP3 SWAP6 SWAP2 SWAP5 POP SWAP3 POP JUMP JUMPDEST PUSH1 0x0 DUP1 PUSH1 0x0 DUP1 PUSH1 0x0 DUP1 PUSH1 0xC0 DUP8 DUP10 SUB SLT ISZERO PUSH2 0x443F JUMPI PUSH2 0x443E PUSH2 0x50EA JUMP JUMPDEST JUMPDEST PUSH1 0x0 PUSH2 0x444D DUP10 DUP3 DUP11 ADD PUSH2 0x4209 JUMP JUMPDEST SWAP7 POP POP PUSH1 0x20 PUSH2 0x445E DUP10 DUP3 DUP11 ADD PUSH2 0x4209 JUMP JUMPDEST SWAP6 POP POP PUSH1 0x40 PUSH2 0x446F DUP10 DUP3 DUP11 ADD PUSH2 0x429E JUMP JUMPDEST SWAP5 POP POP PUSH1 0x60 PUSH2 0x4480 DUP10 DUP3 DUP11 ADD PUSH2 0x429E JUMP JUMPDEST SWAP4 POP POP PUSH1 0x80 PUSH2 0x4491 DUP10 DUP3 DUP11 ADD PUSH2 0x429E JUMP JUMPDEST SWAP3 POP POP PUSH1 0xA0 PUSH2 0x44A2 DUP10 DUP3 DUP11 ADD PUSH2 0x429E JUMP JUMPDEST SWAP2 POP POP SWAP3 SWAP6 POP SWAP3 SWAP6 POP SWAP3 SWAP6 JUMP JUMPDEST PUSH1 0x0 DUP1 PUSH1 0x40 DUP4 DUP6 SUB SLT ISZERO PUSH2 0x44C6 JUMPI PUSH2 0x44C5 PUSH2 0x50EA JUMP JUMPDEST JUMPDEST PUSH1 0x0 PUSH2 0x44D4 DUP6 DUP3 DUP7 ADD PUSH2 0x4209 JUMP JUMPDEST SWAP3 POP POP PUSH1 0x20 PUSH2 0x44E5 DUP6 DUP3 DUP7 ADD PUSH2 0x429E JUMP JUMPDEST SWAP2 POP POP SWAP3 POP SWAP3 SWAP1 POP JUMP JUMPDEST PUSH1 0x0 DUP1 PUSH1 0x0 PUSH1 0x60 DUP5 DUP7 SUB SLT ISZERO PUSH2 0x4508 JUMPI PUSH2 0x4507 PUSH2 0x50EA JUMP JUMPDEST JUMPDEST PUSH1 0x0 PUSH2 0x4516 DUP7 DUP3 DUP8 ADD PUSH2 0x4209 JUMP JUMPDEST SWAP4 POP POP PUSH1 0x20 PUSH2 0x4527 DUP7 DUP3 DUP8 ADD PUSH2 0x429E JUMP JUMPDEST SWAP3 POP POP PUSH1 0x40 PUSH2 0x4538 DUP7 DUP3 DUP8 ADD PUSH2 0x4209 JUMP JUMPDEST SWAP2 POP POP SWAP3 POP SWAP3 POP SWAP3 JUMP JUMPDEST PUSH1 0x0 DUP1 PUSH1 0x0 PUSH1 0x60 DUP5 DUP7 SUB SLT ISZERO PUSH2 0x455B JUMPI PUSH2 0x455A PUSH2 0x50EA JUMP JUMPDEST JUMPDEST PUSH1 0x0 PUSH2 0x4569 DUP7 DUP3 DUP8 ADD PUSH2 0x4209 JUMP JUMPDEST SWAP4 POP POP PUSH1 0x20 PUSH2 0x457A DUP7 DUP3 DUP8 ADD PUSH2 0x429E JUMP JUMPDEST SWAP3 POP POP PUSH1 0x40 PUSH2 0x458B DUP7 DUP3 DUP8 ADD PUSH2 0x429E JUMP JUMPDEST SWAP2 POP POP SWAP3 POP SWAP3 POP SWAP3 JUMP JUMPDEST PUSH1 0x0 PUSH1 0x20 DUP3 DUP5 SUB SLT ISZERO PUSH2 0x45AB JUMPI PUSH2 0x45AA PUSH2 0x50EA JUMP JUMPDEST JUMPDEST PUSH1 0x0 PUSH2 0x45B9 DUP5 DUP3 DUP6 ADD PUSH2 0x4233 JUMP JUMPDEST SWAP2 POP POP SWAP3 SWAP2 POP POP JUMP JUMPDEST PUSH1 0x0 PUSH2 0x45CE DUP4 DUP4 PUSH2 0x49AA JUMP JUMPDEST PUSH1 0x40 DUP4 ADD SWAP1 POP SWAP3 SWAP2 POP POP JUMP JUMPDEST PUSH2 0x45E3 DUP2 PUSH2 0x5004 JUMP JUMPDEST DUP3 MSTORE POP POP JUMP JUMPDEST PUSH2 0x45F2 DUP2 PUSH2 0x5004 JUMP JUMPDEST DUP3 MSTORE POP POP JUMP JUMPDEST PUSH1 0x0 PUSH2 0x4603 DUP3 PUSH2 0x4F69 JUMP JUMPDEST PUSH2 0x460D DUP2 DUP6 PUSH2 0x4F81 JUMP JUMPDEST SWAP4 POP PUSH2 0x4618 DUP4 PUSH2 0x4F59 JUMP JUMPDEST DUP1 PUSH1 0x0 JUMPDEST DUP4 DUP2 LT ISZERO PUSH2 0x4649 JUMPI DUP2 MLOAD PUSH2 0x4630 DUP9 DUP3 PUSH2 0x45C2 JUMP JUMPDEST SWAP8 POP PUSH2 0x463B DUP4 PUSH2 0x4F74 JUMP JUMPDEST SWAP3 POP POP PUSH1 0x1 DUP2 ADD SWAP1 POP PUSH2 0x461C JUMP JUMPDEST POP DUP6 SWAP4 POP POP POP POP SWAP3 SWAP2 POP POP JUMP JUMPDEST PUSH2 0x465F DUP2 PUSH2 0x5016 JUMP JUMPDEST DUP3 MSTORE POP POP JUMP JUMPDEST PUSH2 0x466E DUP2 PUSH2 0x5022 JUMP JUMPDEST DUP3 MSTORE POP POP JUMP JUMPDEST PUSH1 0x0 PUSH2 0x4681 PUSH1 0x16 DUP4 PUSH2 0x4F9D JUMP JUMPDEST SWAP2 POP PUSH2 0x468C DUP3 PUSH2 0x50EF JUMP JUMPDEST PUSH1 0x20 DUP3 ADD SWAP1 POP SWAP2 SWAP1 POP JUMP JUMPDEST PUSH1 0x0 PUSH2 0x46A4 PUSH1 0x1C DUP4 PUSH2 0x4F9D JUMP JUMPDEST SWAP2 POP PUSH2 0x46AF DUP3 PUSH2 0x5118 JUMP JUMPDEST PUSH1 0x20 DUP3 ADD SWAP1 POP SWAP2 SWAP1 POP JUMP JUMPDEST PUSH1 0x0 PUSH2 0x46C7 PUSH1 0x11 DUP4 PUSH2 0x4F9D JUMP JUMPDEST SWAP2 POP PUSH2 0x46D2 DUP3 PUSH2 0x5141 JUMP JUMPDEST PUSH1 0x20 DUP3 ADD SWAP1 POP SWAP2 SWAP1 POP JUMP JUMPDEST PUSH1 0x0 PUSH2 0x46EA PUSH1 0xD DUP4 PUSH2 0x4F9D JUMP JUMPDEST SWAP2 POP PUSH2 0x46F5 DUP3 PUSH2 0x516A JUMP JUMPDEST PUSH1 0x20 DUP3 ADD SWAP1 POP SWAP2 SWAP1 POP JUMP JUMPDEST PUSH1 0x0 PUSH2 0x470D PUSH1 0x15 DUP4 PUSH2 0x4F9D JUMP JUMPDEST SWAP2 POP PUSH2 0x4718 DUP3 PUSH2 0x5193 JUMP JUMPDEST PUSH1 0x20 DUP3 ADD SWAP1 POP SWAP2 SWAP1 POP JUMP JUMPDEST PUSH1 0x0 PUSH2 0x4730 PUSH1 0x17 DUP4 PUSH2 0x4F9D JUMP JUMPDEST SWAP2 POP PUSH2 0x473B DUP3 PUSH2 0x51BC JUMP JUMPDEST PUSH1 0x20 DUP3 ADD SWAP1 POP SWAP2 SWAP1 POP JUMP JUMPDEST PUSH1 0x0 PUSH2 0x4753 PUSH1 0x1D DUP4 PUSH2 0x4F9D JUMP JUMPDEST SWAP2 POP PUSH2 0x475E DUP3 PUSH2 0x51E5 JUMP JUMPDEST PUSH1 0x20 DUP3 ADD SWAP1 POP SWAP2 SWAP1 POP JUMP JUMPDEST PUSH1 0x0 PUSH2 0x4776 PUSH1 0xB DUP4 PUSH2 0x4F9D JUMP JUMPDEST SWAP2 POP PUSH2 0x4781 DUP3 PUSH2 0x520E JUMP JUMPDEST PUSH1 0x20 DUP3 ADD SWAP1 POP SWAP2 SWAP1 POP JUMP JUMPDEST PUSH1 0x0 PUSH2 0x4799 PUSH1 0x13 DUP4 PUSH2 0x4F9D JUMP JUMPDEST SWAP2 POP PUSH2 0x47A4 DUP3 PUSH2 0x5237 JUMP JUMPDEST PUSH1 0x20 DUP3 ADD SWAP1 POP SWAP2 SWAP1 POP JUMP JUMPDEST PUSH1 0x0 PUSH2 0x47BC PUSH1 0x8 DUP4 PUSH2 0x4F9D JUMP JUMPDEST SWAP2 POP PUSH2 0x47C7 DUP3 PUSH2 0x5260 JUMP JUMPDEST PUSH1 0x20 DUP3 ADD SWAP1 POP SWAP2 SWAP1 POP JUMP JUMPDEST PUSH1 0x0 PUSH2 0x47DF PUSH1 0x14 DUP4 PUSH2 0x4F9D JUMP JUMPDEST SWAP2 POP PUSH2 0x47EA DUP3 PUSH2 0x5289 JUMP JUMPDEST PUSH1 0x20 DUP3 ADD SWAP1 POP SWAP2 SWAP1 POP JUMP JUMPDEST PUSH1 0x0 PUSH2 0x4802 PUSH1 0xF DUP4 PUSH2 0x4F9D JUMP JUMPDEST SWAP2 POP PUSH2 0x480D DUP3 PUSH2 0x52B2 JUMP JUMPDEST PUSH1 0x20 DUP3 ADD SWAP1 POP SWAP2 SWAP1 POP JUMP JUMPDEST PUSH1 0x0 PUSH2 0x4825 PUSH1 0x15 DUP4 PUSH2 0x4F9D JUMP JUMPDEST SWAP2 POP PUSH2 0x4830 DUP3 PUSH2 0x52DB JUMP JUMPDEST PUSH1 0x20 DUP3 ADD SWAP1 POP SWAP2 SWAP1 POP JUMP JUMPDEST PUSH1 0x0 PUSH2 0x4848 PUSH1 0x0 DUP4 PUSH2 0x4F92 JUMP JUMPDEST SWAP2 POP PUSH2 0x4853 DUP3 PUSH2 0x5304 JUMP JUMPDEST PUSH1 0x0 DUP3 ADD SWAP1 POP SWAP2 SWAP1 POP JUMP JUMPDEST PUSH1 0x0 PUSH2 0x486B PUSH1 0x13 DUP4 PUSH2 0x4F9D JUMP JUMPDEST SWAP2 POP PUSH2 0x4876 DUP3 PUSH2 0x5307 JUMP JUMPDEST PUSH1 0x20 DUP3 ADD SWAP1 POP SWAP2 SWAP1 POP JUMP JUMPDEST PUSH1 0x0 PUSH2 0x488E PUSH1 0x14 DUP4 PUSH2 0x4F9D JUMP JUMPDEST SWAP2 POP PUSH2 0x4899 DUP3 PUSH2 0x5330 JUMP JUMPDEST PUSH1 0x20 DUP3 ADD SWAP1 POP SWAP2 SWAP1 POP JUMP JUMPDEST PUSH1 0x0 PUSH2 0x48B1 PUSH1 0xD DUP4 PUSH2 0x4F9D JUMP JUMPDEST SWAP2 POP PUSH2 0x48BC DUP3 PUSH2 0x5359 JUMP JUMPDEST PUSH1 0x20 DUP3 ADD SWAP1 POP SWAP2 SWAP1 POP JUMP JUMPDEST PUSH1 0xE0 DUP3 ADD PUSH1 0x0 DUP3 ADD MLOAD PUSH2 0x48DD PUSH1 0x0 DUP6 ADD DUP3 PUSH2 0x49D9 JUMP JUMPDEST POP PUSH1 0x20 DUP3 ADD MLOAD PUSH2 0x48F0 PUSH1 0x20 DUP6 ADD DUP3 PUSH2 0x49D9 JUMP JUMPDEST POP PUSH1 0x40 DUP3 ADD MLOAD PUSH2 0x4903 PUSH1 0x40 DUP6 ADD DUP3 PUSH2 0x49D9 JUMP JUMPDEST POP PUSH1 0x60 DUP3 ADD MLOAD PUSH2 0x4916 PUSH1 0x60 DUP6 ADD DUP3 PUSH2 0x49D9 JUMP JUMPDEST POP PUSH1 0x80 DUP3 ADD MLOAD PUSH2 0x4929 PUSH1 0x80 DUP6 ADD DUP3 PUSH2 0x45DA JUMP JUMPDEST POP PUSH1 0xA0 DUP3 ADD MLOAD PUSH2 0x493C PUSH1 0xA0 DUP6 ADD DUP3 PUSH2 0x45DA JUMP JUMPDEST POP PUSH1 0xC0 DUP3 ADD MLOAD PUSH2 0x494F PUSH1 0xC0 DUP6 ADD DUP3 PUSH2 0x45DA JUMP JUMPDEST POP POP POP POP JUMP JUMPDEST PUSH1 0x80 DUP3 ADD PUSH1 0x0 DUP3 ADD MLOAD PUSH2 0x496B PUSH1 0x0 DUP6 ADD DUP3 PUSH2 0x45DA JUMP JUMPDEST POP PUSH1 0x20 DUP3 ADD MLOAD PUSH2 0x497E PUSH1 0x20 DUP6 ADD DUP3 PUSH2 0x45DA JUMP JUMPDEST POP PUSH1 0x40 DUP3 ADD MLOAD PUSH2 0x4991 PUSH1 0x40 DUP6 ADD DUP3 PUSH2 0x45DA JUMP JUMPDEST POP PUSH1 0x60 DUP3 ADD MLOAD PUSH2 0x49A4 PUSH1 0x60 DUP6 ADD DUP3 PUSH2 0x49D9 JUMP JUMPDEST POP POP POP POP JUMP JUMPDEST PUSH1 0x40 DUP3 ADD PUSH1 0x0 DUP3 ADD MLOAD PUSH2 0x49C0 PUSH1 0x0 DUP6 ADD DUP3 PUSH2 0x45DA JUMP JUMPDEST POP PUSH1 0x20 DUP3 ADD MLOAD PUSH2 0x49D3 PUSH1 0x20 DUP6 ADD DUP3 PUSH2 0x49D9 JUMP JUMPDEST POP POP POP POP JUMP JUMPDEST PUSH2 0x49E2 DUP2 PUSH2 0x506E JUMP JUMPDEST DUP3 MSTORE POP POP JUMP JUMPDEST PUSH2 0x49F1 DUP2 PUSH2 0x506E JUMP JUMPDEST DUP3 MSTORE POP POP JUMP JUMPDEST PUSH1 0x0 PUSH2 0x4A02 DUP3 PUSH2 0x483B JUMP JUMPDEST SWAP2 POP DUP2 SWAP1 POP SWAP2 SWAP1 POP JUMP JUMPDEST PUSH1 0x0 PUSH1 0x40 DUP3 ADD SWAP1 POP PUSH2 0x4A21 PUSH1 0x0 DUP4 ADD DUP6 PUSH2 0x45E9 JUMP JUMPDEST PUSH2 0x4A2E PUSH1 0x20 DUP4 ADD DUP5 PUSH2 0x45E9 JUMP JUMPDEST SWAP4 SWAP3 POP POP POP JUMP JUMPDEST PUSH1 0x0 PUSH1 0xC0 DUP3 ADD SWAP1 POP PUSH2 0x4A4A PUSH1 0x0 DUP4 ADD DUP10 PUSH2 0x45E9 JUMP JUMPDEST PUSH2 0x4A57 PUSH1 0x20 DUP4 ADD DUP9 PUSH2 0x45E9 JUMP JUMPDEST PUSH2 0x4A64 PUSH1 0x40 DUP4 ADD DUP8 PUSH2 0x45E9 JUMP JUMPDEST PUSH2 0x4A71 PUSH1 0x60 DUP4 ADD DUP7 PUSH2 0x49E8 JUMP JUMPDEST PUSH2 0x4A7E PUSH1 0x80 DUP4 ADD DUP6 PUSH2 0x49E8 JUMP JUMPDEST PUSH2 0x4A8B PUSH1 0xA0 DUP4 ADD DUP5 PUSH2 0x49E8 JUMP JUMPDEST SWAP8 SWAP7 POP POP POP POP POP POP POP JUMP JUMPDEST PUSH1 0x0 PUSH1 0xE0 DUP3 ADD SWAP1 POP PUSH2 0x4AAB PUSH1 0x0 DUP4 ADD DUP11 PUSH2 0x45E9 JUMP JUMPDEST PUSH2 0x4AB8 PUSH1 0x20 DUP4 ADD DUP10 PUSH2 0x45E9 JUMP JUMPDEST PUSH2 0x4AC5 PUSH1 0x40 DUP4 ADD DUP9 PUSH2 0x45E9 JUMP JUMPDEST PUSH2 0x4AD2 PUSH1 0x60 DUP4 ADD DUP8 PUSH2 0x49E8 JUMP JUMPDEST PUSH2 0x4ADF PUSH1 0x80 DUP4 ADD DUP7 PUSH2 0x49E8 JUMP JUMPDEST PUSH2 0x4AEC PUSH1 0xA0 DUP4 ADD DUP6 PUSH2 0x49E8 JUMP JUMPDEST PUSH2 0x4AF9 PUSH1 0xC0 DUP4 ADD DUP5 PUSH2 0x49E8 JUMP JUMPDEST SWAP9 SWAP8 POP POP POP POP POP POP POP POP JUMP JUMPDEST PUSH1 0x0 PUSH1 0x60 DUP3 ADD SWAP1 POP PUSH2 0x4B1A PUSH1 0x0 DUP4 ADD DUP7 PUSH2 0x45E9 JUMP JUMPDEST PUSH2 0x4B27 PUSH1 0x20 DUP4 ADD DUP6 PUSH2 0x45E9 JUMP JUMPDEST PUSH2 0x4B34 PUSH1 0x40 DUP4 ADD DUP5 PUSH2 0x49E8 JUMP JUMPDEST SWAP5 SWAP4 POP POP POP POP JUMP JUMPDEST PUSH1 0x0 PUSH1 0x80 DUP3 ADD SWAP1 POP PUSH2 0x4B51 PUSH1 0x0 DUP4 ADD DUP8 PUSH2 0x45E9 JUMP JUMPDEST PUSH2 0x4B5E PUSH1 0x20 DUP4 ADD DUP7 PUSH2 0x45E9 JUMP JUMPDEST PUSH2 0x4B6B PUSH1 0x40 DUP4 ADD DUP6 PUSH2 0x49E8 JUMP JUMPDEST PUSH2 0x4B78 PUSH1 0x60 DUP4 ADD DUP5 PUSH2 0x49E8 JUMP JUMPDEST SWAP6 SWAP5 POP POP POP POP POP JUMP JUMPDEST PUSH1 0x0 PUSH1 0x40 DUP3 ADD SWAP1 POP PUSH2 0x4B96 PUSH1 0x0 DUP4 ADD DUP6 PUSH2 0x45E9 JUMP JUMPDEST PUSH2 0x4BA3 PUSH1 0x20 DUP4 ADD DUP5 PUSH2 0x49E8 JUMP JUMPDEST SWAP4 SWAP3 POP POP POP JUMP JUMPDEST PUSH1 0x0 PUSH1 0x60 DUP3 ADD SWAP1 POP PUSH2 0x4BBF PUSH1 0x0 DUP4 ADD DUP7 PUSH2 0x45E9 JUMP JUMPDEST PUSH2 0x4BCC PUSH1 0x20 DUP4 ADD DUP6 PUSH2 0x49E8 JUMP JUMPDEST PUSH2 0x4BD9 PUSH1 0x40 DUP4 ADD DUP5 PUSH2 0x45E9 JUMP JUMPDEST SWAP5 SWAP4 POP POP POP POP JUMP JUMPDEST PUSH1 0x0 PUSH1 0xA0 DUP3 ADD SWAP1 POP PUSH2 0x4BF6 PUSH1 0x0 DUP4 ADD DUP9 PUSH2 0x45E9 JUMP JUMPDEST PUSH2 0x4C03 PUSH1 0x20 DUP4 ADD DUP8 PUSH2 0x49E8 JUMP JUMPDEST PUSH2 0x4C10 PUSH1 0x40 DUP4 ADD DUP7 PUSH2 0x45E9 JUMP JUMPDEST PUSH2 0x4C1D PUSH1 0x60 DUP4 ADD DUP6 PUSH2 0x49E8 JUMP JUMPDEST PUSH2 0x4C2A PUSH1 0x80 DUP4 ADD DUP5 PUSH2 0x45E9 JUMP JUMPDEST SWAP7 SWAP6 POP POP POP POP POP POP JUMP JUMPDEST PUSH1 0x0 PUSH1 0x60 DUP3 ADD SWAP1 POP PUSH2 0x4C49 PUSH1 0x0 DUP4 ADD DUP7 PUSH2 0x45E9 JUMP JUMPDEST PUSH2 0x4C56 PUSH1 0x20 DUP4 ADD DUP6 PUSH2 0x49E8 JUMP JUMPDEST PUSH2 0x4C63 PUSH1 0x40 DUP4 ADD DUP5 PUSH2 0x49E8 JUMP JUMPDEST SWAP5 SWAP4 POP POP POP POP JUMP JUMPDEST PUSH1 0x0 PUSH1 0x80 DUP3 ADD SWAP1 POP PUSH2 0x4C80 PUSH1 0x0 DUP4 ADD DUP8 PUSH2 0x45E9 JUMP JUMPDEST PUSH2 0x4C8D PUSH1 0x20 DUP4 ADD DUP7 PUSH2 0x49E8 JUMP JUMPDEST PUSH2 0x4C9A PUSH1 0x40 DUP4 ADD DUP6 PUSH2 0x49E8 JUMP JUMPDEST PUSH2 0x4CA7 PUSH1 0x60 DUP4 ADD DUP5 PUSH2 0x45E9 JUMP JUMPDEST SWAP6 SWAP5 POP POP POP POP POP JUMP JUMPDEST PUSH1 0x0 PUSH1 0x20 DUP3 ADD SWAP1 POP DUP2 DUP2 SUB PUSH1 0x0 DUP4 ADD MSTORE PUSH2 0x4CCA DUP2 DUP5 PUSH2 0x45F8 JUMP JUMPDEST SWAP1 POP SWAP3 SWAP2 POP POP JUMP JUMPDEST PUSH1 0x0 PUSH1 0x20 DUP3 ADD SWAP1 POP PUSH2 0x4CE7 PUSH1 0x0 DUP4 ADD DUP5 PUSH2 0x4656 JUMP JUMPDEST SWAP3 SWAP2 POP POP JUMP JUMPDEST PUSH1 0x0 PUSH1 0x20 DUP3 ADD SWAP1 POP PUSH2 0x4D02 PUSH1 0x0 DUP4 ADD DUP5 PUSH2 0x4665 JUMP JUMPDEST SWAP3 SWAP2 POP POP JUMP JUMPDEST PUSH1 0x0 PUSH1 0x20 DUP3 ADD SWAP1 POP DUP2 DUP2 SUB PUSH1 0x0 DUP4 ADD MSTORE PUSH2 0x4D21 DUP2 PUSH2 0x4674 JUMP JUMPDEST SWAP1 POP SWAP2 SWAP1 POP JUMP JUMPDEST PUSH1 0x0 PUSH1 0x20 DUP3 ADD SWAP1 POP DUP2 DUP2 SUB PUSH1 0x0 DUP4 ADD MSTORE PUSH2 0x4D41 DUP2 PUSH2 0x4697 JUMP JUMPDEST SWAP1 POP SWAP2 SWAP1 POP JUMP JUMPDEST PUSH1 0x0 PUSH1 0x20 DUP3 ADD SWAP1 POP DUP2 DUP2 SUB PUSH1 0x0 DUP4 ADD MSTORE PUSH2 0x4D61 DUP2 PUSH2 0x46BA JUMP JUMPDEST SWAP1 POP SWAP2 SWAP1 POP JUMP JUMPDEST PUSH1 0x0 PUSH1 0x20 DUP3 ADD SWAP1 POP DUP2 DUP2 SUB PUSH1 0x0 DUP4 ADD MSTORE PUSH2 0x4D81 DUP2 PUSH2 0x46DD JUMP JUMPDEST SWAP1 POP SWAP2 SWAP1 POP JUMP JUMPDEST PUSH1 0x0 PUSH1 0x20 DUP3 ADD SWAP1 POP DUP2 DUP2 SUB PUSH1 0x0 DUP4 ADD MSTORE PUSH2 0x4DA1 DUP2 PUSH2 0x4700 JUMP JUMPDEST SWAP1 POP SWAP2 SWAP1 POP JUMP JUMPDEST PUSH1 0x0 PUSH1 0x20 DUP3 ADD SWAP1 POP DUP2 DUP2 SUB PUSH1 0x0 DUP4 ADD MSTORE PUSH2 0x4DC1 DUP2 PUSH2 0x4723 JUMP JUMPDEST SWAP1 POP SWAP2 SWAP1 POP JUMP JUMPDEST PUSH1 0x0 PUSH1 0x20 DUP3 ADD SWAP1 POP DUP2 DUP2 SUB PUSH1 0x0 DUP4 ADD MSTORE PUSH2 0x4DE1 DUP2 PUSH2 0x4746 JUMP JUMPDEST SWAP1 POP SWAP2 SWAP1 POP JUMP JUMPDEST PUSH1 0x0 PUSH1 0x20 DUP3 ADD SWAP1 POP DUP2 DUP2 SUB PUSH1 0x0 DUP4 ADD MSTORE PUSH2 0x4E01 DUP2 PUSH2 0x4769 JUMP JUMPDEST SWAP1 POP SWAP2 SWAP1 POP JUMP JUMPDEST PUSH1 0x0 PUSH1 0x20 DUP3 ADD SWAP1 POP DUP2 DUP2 SUB PUSH1 0x0 DUP4 ADD MSTORE PUSH2 0x4E21 DUP2 PUSH2 0x478C JUMP JUMPDEST SWAP1 POP SWAP2 SWAP1 POP JUMP JUMPDEST PUSH1 0x0 PUSH1 0x20 DUP3 ADD SWAP1 POP DUP2 DUP2 SUB PUSH1 0x0 DUP4 ADD MSTORE PUSH2 0x4E41 DUP2 PUSH2 0x47AF JUMP JUMPDEST SWAP1 POP SWAP2 SWAP1 POP JUMP JUMPDEST PUSH1 0x0 PUSH1 0x20 DUP3 ADD SWAP1 POP DUP2 DUP2 SUB PUSH1 0x0 DUP4 ADD MSTORE PUSH2 0x4E61 DUP2 PUSH2 0x47D2 JUMP JUMPDEST SWAP1 POP SWAP2 SWAP1 POP JUMP JUMPDEST PUSH1 0x0 PUSH1 0x20 DUP3 ADD SWAP1 POP DUP2 DUP2 SUB PUSH1 0x0 DUP4 ADD MSTORE PUSH2 0x4E81 DUP2 PUSH2 0x47F5 JUMP JUMPDEST SWAP1 POP SWAP2 SWAP1 POP JUMP JUMPDEST PUSH1 0x0 PUSH1 0x20 DUP3 ADD SWAP1 POP DUP2 DUP2 SUB PUSH1 0x0 DUP4 ADD MSTORE PUSH2 0x4EA1 DUP2 PUSH2 0x4818 JUMP JUMPDEST SWAP1 POP SWAP2 SWAP1 POP JUMP JUMPDEST PUSH1 0x0 PUSH1 0x20 DUP3 ADD SWAP1 POP DUP2 DUP2 SUB PUSH1 0x0 DUP4 ADD MSTORE PUSH2 0x4EC1 DUP2 PUSH2 0x485E JUMP JUMPDEST SWAP1 POP SWAP2 SWAP1 POP JUMP JUMPDEST PUSH1 0x0 PUSH1 0x20 DUP3 ADD SWAP1 POP DUP2 DUP2 SUB PUSH1 0x0 DUP4 ADD MSTORE PUSH2 0x4EE1 DUP2 PUSH2 0x4881 JUMP JUMPDEST SWAP1 POP SWAP2 SWAP1 POP JUMP JUMPDEST PUSH1 0x0 PUSH1 0x20 DUP3 ADD SWAP1 POP DUP2 DUP2 SUB PUSH1 0x0 DUP4 ADD MSTORE PUSH2 0x4F01 DUP2 PUSH2 0x48A4 JUMP JUMPDEST SWAP1 POP SWAP2 SWAP1 POP JUMP JUMPDEST PUSH1 0x0 PUSH1 0xE0 DUP3 ADD SWAP1 POP PUSH2 0x4F1D PUSH1 0x0 DUP4 ADD DUP5 PUSH2 0x48C7 JUMP JUMPDEST SWAP3 SWAP2 POP POP JUMP JUMPDEST PUSH1 0x0 PUSH1 0x80 DUP3 ADD SWAP1 POP PUSH2 0x4F38 PUSH1 0x0 DUP4 ADD DUP5 PUSH2 0x4955 JUMP JUMPDEST SWAP3 SWAP2 POP POP JUMP JUMPDEST PUSH1 0x0 PUSH1 0x20 DUP3 ADD SWAP1 POP PUSH2 0x4F53 PUSH1 0x0 DUP4 ADD DUP5 PUSH2 0x49E8 JUMP JUMPDEST SWAP3 SWAP2 POP POP JUMP JUMPDEST PUSH1 0x0 DUP2 SWAP1 POP PUSH1 0x20 DUP3 ADD SWAP1 POP SWAP2 SWAP1 POP JUMP JUMPDEST PUSH1 0x0 DUP2 MLOAD SWAP1 POP SWAP2 SWAP1 POP JUMP JUMPDEST PUSH1 0x0 PUSH1 0x20 DUP3 ADD SWAP1 POP SWAP2 SWAP1 POP JUMP JUMPDEST PUSH1 0x0 DUP3 DUP3 MSTORE PUSH1 0x20 DUP3 ADD SWAP1 POP SWAP3 SWAP2 POP POP JUMP JUMPDEST PUSH1 0x0 DUP2 SWAP1 POP SWAP3 SWAP2 POP POP JUMP JUMPDEST PUSH1 0x0 DUP3 DUP3 MSTORE PUSH1 0x20 DUP3 ADD SWAP1 POP SWAP3 SWAP2 POP POP JUMP JUMPDEST PUSH1 0x0 PUSH2 0x4FB9 DUP3 PUSH2 0x506E JUMP JUMPDEST SWAP2 POP PUSH2 0x4FC4 DUP4 PUSH2 0x506E JUMP JUMPDEST SWAP3 POP DUP3 PUSH32 0xFFFFFFFFFFFFFFFFFFFFFFFFFFFFFFFFFFFFFFFFFFFFFFFFFFFFFFFFFFFFFFFF SUB DUP3 GT ISZERO PUSH2 0x4FF9 JUMPI PUSH2 0x4FF8 PUSH2 0x5078 JUMP JUMPDEST JUMPDEST DUP3 DUP3 ADD SWAP1 POP SWAP3 SWAP2 POP POP JUMP JUMPDEST PUSH1 0x0 PUSH2 0x500F DUP3 PUSH2 0x504E JUMP JUMPDEST SWAP1 POP SWAP2 SWAP1 POP JUMP JUMPDEST PUSH1 0x0 DUP2 ISZERO ISZERO SWAP1 POP SWAP2 SWAP1 POP JUMP JUMPDEST PUSH1 0x0 PUSH32 0xFFFFFFFF00000000000000000000000000000000000000000000000000000000 DUP3 AND SWAP1 POP SWAP2 SWAP1 POP JUMP JUMPDEST PUSH1 0x0 PUSH20 0xFFFFFFFFFFFFFFFFFFFFFFFFFFFFFFFFFFFFFFFF DUP3 AND SWAP1 POP SWAP2 SWAP1 POP JUMP JUMPDEST PUSH1 0x0 DUP2 SWAP1 POP SWAP2 SWAP1 POP JUMP JUMPDEST PUSH32 0x4E487B7100000000000000000000000000000000000000000000000000000000 PUSH1 0x0 MSTORE PUSH1 0x11 PUSH1 0x4 MSTORE PUSH1 0x24 PUSH1 0x0 REVERT JUMPDEST PUSH32 0x4E487B7100000000000000000000000000000000000000000000000000000000 PUSH1 0x0 MSTORE PUSH1 0x32 PUSH1 0x4 MSTORE PUSH1 0x24 PUSH1 0x0 REVERT JUMPDEST PUSH1 0x0 DUP1 REVERT JUMPDEST PUSH1 0x0 DUP1 REVERT JUMPDEST PUSH1 0x0 DUP1 REVERT JUMPDEST PUSH1 0x0 DUP1 REVERT JUMPDEST PUSH1 0x0 DUP1 REVERT JUMPDEST PUSH32 0x596F752061726520686967686573742062696464657200000000000000000000 PUSH1 0x0 DUP3 ADD MSTORE POP JUMP JUMPDEST PUSH32 0x4E6674206E6F7420617070726F76656420746F20636F6E747261637400000000 PUSH1 0x0 DUP3 ADD MSTORE POP JUMP JUMPDEST PUSH32 0x50726963652063616E6E6F742062652030000000000000000000000000000000 PUSH1 0x0 DUP3 ADD MSTORE POP JUMP JUMPDEST PUSH32 0x6E6F74206E6674206F776E657200000000000000000000000000000000000000 PUSH1 0x0 DUP3 ADD MSTORE POP JUMP JUMPDEST PUSH32 0x4E6674206E6F7420696E2066697865642073616C650000000000000000000000 PUSH1 0x0 DUP3 ADD MSTORE POP JUMP JUMPDEST PUSH32 0x4E6674206E6F7420696E2061756374696F6E2073616C65000000000000000000 PUSH1 0x0 DUP3 ADD MSTORE POP JUMP JUMPDEST PUSH32 0x4269642047726561746572207468616E2050726576696F757320426964000000 PUSH1 0x0 DUP3 ADD MSTORE POP JUMP JUMPDEST PUSH32 0x41756374696F6E20656E64000000000000000000000000000000000000000000 PUSH1 0x0 DUP3 ADD MSTORE POP JUMP JUMPDEST PUSH32 0x4E667420616C726561647920696E2073616C6500000000000000000000000000 PUSH1 0x0 DUP3 ADD MSTORE POP JUMP JUMPDEST PUSH32 0x626964206D616B65000000000000000000000000000000000000000000000000 PUSH1 0x0 DUP3 ADD MSTORE POP JUMP JUMPDEST PUSH32 0x616C6C6F77616E6365206E6F7420656E6F756768000000000000000000000000 PUSH1 0x0 DUP3 ADD MSTORE POP JUMP JUMPDEST PUSH32 0x41756374696F6E206E6F7420656E640000000000000000000000000000000000 PUSH1 0x0 DUP3 ADD MSTORE POP JUMP JUMPDEST PUSH32 0x596F7520617265206E6F74206E6674206F776E65720000000000000000000000 PUSH1 0x0 DUP3 ADD MSTORE POP JUMP JUMPDEST POP JUMP JUMPDEST PUSH32 0x6E6F7468696E6720746F20776974686472617700000000000000000000000000 PUSH1 0x0 DUP3 ADD MSTORE POP JUMP JUMPDEST PUSH32 0x627579205072696365206E6F7420656E6F756768000000000000000000000000 PUSH1 0x0 DUP3 ADD MSTORE POP JUMP JUMPDEST PUSH32 0x726566756E64206661696C656400000000000000000000000000000000000000 PUSH1 0x0 DUP3 ADD MSTORE POP JUMP JUMPDEST PUSH2 0x538B DUP2 PUSH2 0x5004 JUMP JUMPDEST DUP2 EQ PUSH2 0x5396 JUMPI PUSH1 0x0 DUP1 REVERT JUMPDEST POP JUMP JUMPDEST PUSH2 0x53A2 DUP2 PUSH2 0x5016 JUMP JUMPDEST DUP2 EQ PUSH2 0x53AD JUMPI PUSH1 0x0 DUP1 REVERT JUMPDEST POP JUMP JUMPDEST PUSH2 0x53B9 DUP2 PUSH2 0x506E JUMP JUMPDEST DUP2 EQ PUSH2 0x53C4 JUMPI PUSH1 0x0 DUP1 REVERT JUMPDEST POP JUMP INVALID LOG2 PUSH5 0x6970667358 0x22 SLT KECCAK256 SLOAD SWAP13 0xEC 0x21 LT PUSH24 0xFAAE84F7999828D35278EAC7274866C80EBECBC5C84FABA4 AND 0xAD PUSH5 0x736F6C6343 STOP ADDMOD SMOD STOP CALLER "
				},
				"gasEstimates": {
					"creation": {
						"codeDepositCost": "4300200",
						"executionCost": "4965",
						"totalCost": "4305165"
					},
					"external": {
						"Sell_AreveaToken(address,address,uint256)": "infinite",
						"_cancelAuctionSale(address,uint256)": "infinite",
						"buyAreveaToken(address,address,uint256)": "infinite",
						"buyFromFixedSale(address,uint256,uint256)": "infinite",
						"cancelFixedsale(address,uint256)": "infinite",
						"createNftAuctionSale(address,address,uint256,uint256,uint256,uint256)": "infinite",
						"getAuctionSaleNFT()": "infinite",
						"getFixedSale(address,uint256)": "infinite",
						"getFixedSaleNFT()": "infinite",
						"getNftAuctionSaleDetails(address,uint256)": "infinite",
						"makeBid(address,uint256,uint256)": "infinite",
						"nftFixedSale(address,address,uint256,uint256)": "infinite",
						"nftSaleStatus(address,uint256)": "infinite",
						"onERC721Received(address,address,uint256,bytes)": "infinite",
						"settleAuction(address,uint256)": "infinite",
						"updateFixedSalePrice(address,uint256,uint256)": "infinite",
						"updateTheBidPrice(address,uint256,uint256)": "infinite",
						"userBidPriceOnNFT(address,uint256,address)": "infinite",
						"withdrawBid(address,uint256)": "infinite"
					},
					"internal": {
						"_bidAmountTransfer(uint256,address)": "infinite",
						"_isTokenOrCoin(address,address,uint256)": "infinite",
						"_nativeAmountTransfer(address,uint256)": "infinite",
						"_storedNftAuctionDetails(address,address,uint256,uint256,uint256,uint256)": "infinite",
						"_tokenAmountTransfer(address,address,uint256)": "infinite",
						"_transferNftAndPaySeller(address,uint256,uint256,address)": "infinite"
					}
				},
				"methodIdentifiers": {
					"Sell_AreveaToken(address,address,uint256)": "7ad47a21",
					"_cancelAuctionSale(address,uint256)": "842bc46a",
					"buyAreveaToken(address,address,uint256)": "00e2097c",
					"buyFromFixedSale(address,uint256,uint256)": "baf4371e",
					"cancelFixedsale(address,uint256)": "d3a6a6c9",
					"createNftAuctionSale(address,address,uint256,uint256,uint256,uint256)": "cf42b7e6",
					"getAuctionSaleNFT()": "1e7a044f",
					"getFixedSale(address,uint256)": "8c3417da",
					"getFixedSaleNFT()": "9f085a00",
					"getNftAuctionSaleDetails(address,uint256)": "6f8c9b1b",
					"makeBid(address,uint256,uint256)": "1bdae6f1",
					"nftFixedSale(address,address,uint256,uint256)": "69a6d12e",
					"nftSaleStatus(address,uint256)": "6916462f",
					"onERC721Received(address,address,uint256,bytes)": "150b7a02",
					"settleAuction(address,uint256)": "5138b08c",
					"updateFixedSalePrice(address,uint256,uint256)": "4676adca",
					"updateTheBidPrice(address,uint256,uint256)": "3a713db8",
					"userBidPriceOnNFT(address,uint256,address)": "6fe02f24",
					"withdrawBid(address,uint256)": "4cb8ef5b"
				}
			},
			"storageLayout": {
				"storage": [
					{
						"astId": 581,
						"contract": "Arevea-NFT-Market/NFT-Contracts/contracts/finalMarket_single.sol:NFTSingleMarketplace",
						"label": "nftContractFixedSale",
						"offset": 0,
						"slot": "0",
						"type": "t_mapping(t_address,t_mapping(t_uint256,t_struct(FixedSale)569_storage))"
					},
					{
						"astId": 588,
						"contract": "Arevea-NFT-Market/NFT-Contracts/contracts/finalMarket_single.sol:NFTSingleMarketplace",
						"label": "nftContractAuctionSale",
						"offset": 0,
						"slot": "1",
						"type": "t_mapping(t_address,t_mapping(t_uint256,t_struct(Auction)560_storage))"
					},
					{
						"astId": 594,
						"contract": "Arevea-NFT-Market/NFT-Contracts/contracts/finalMarket_single.sol:NFTSingleMarketplace",
						"label": "nftSaleStatus",
						"offset": 0,
						"slot": "2",
						"type": "t_mapping(t_address,t_mapping(t_uint256,t_uint256))"
					},
					{
						"astId": 602,
						"contract": "Arevea-NFT-Market/NFT-Contracts/contracts/finalMarket_single.sol:NFTSingleMarketplace",
						"label": "userBidPriceOnNFT",
						"offset": 0,
						"slot": "3",
						"type": "t_mapping(t_address,t_mapping(t_uint256,t_mapping(t_address,t_uint256)))"
					},
					{
						"astId": 608,
						"contract": "Arevea-NFT-Market/NFT-Contracts/contracts/finalMarket_single.sol:NFTSingleMarketplace",
						"label": "indexFixedSaleNFT",
						"offset": 0,
						"slot": "4",
						"type": "t_mapping(t_address,t_mapping(t_uint256,t_uint256))"
					},
					{
						"astId": 614,
						"contract": "Arevea-NFT-Market/NFT-Contracts/contracts/finalMarket_single.sol:NFTSingleMarketplace",
						"label": "indexAuctionSaleNFT",
						"offset": 0,
						"slot": "5",
						"type": "t_mapping(t_address,t_mapping(t_uint256,t_uint256))"
					},
					{
						"astId": 618,
						"contract": "Arevea-NFT-Market/NFT-Contracts/contracts/finalMarket_single.sol:NFTSingleMarketplace",
						"label": "fixedSaleNFT",
						"offset": 0,
						"slot": "6",
						"type": "t_array(t_struct(SaleInfo)574_storage)dyn_storage"
					},
					{
						"astId": 622,
						"contract": "Arevea-NFT-Market/NFT-Contracts/contracts/finalMarket_single.sol:NFTSingleMarketplace",
						"label": "auctionSaleNFT",
						"offset": 0,
						"slot": "7",
						"type": "t_array(t_struct(SaleInfo)574_storage)dyn_storage"
					}
				],
				"types": {
					"t_address": {
						"encoding": "inplace",
						"label": "address",
						"numberOfBytes": "20"
					},
					"t_array(t_struct(SaleInfo)574_storage)dyn_storage": {
						"base": "t_struct(SaleInfo)574_storage",
						"encoding": "dynamic_array",
						"label": "struct NFTSingleMarketplace.SaleInfo[]",
						"numberOfBytes": "32"
					},
					"t_mapping(t_address,t_mapping(t_uint256,t_mapping(t_address,t_uint256)))": {
						"encoding": "mapping",
						"key": "t_address",
						"label": "mapping(address => mapping(uint256 => mapping(address => uint256)))",
						"numberOfBytes": "32",
						"value": "t_mapping(t_uint256,t_mapping(t_address,t_uint256))"
					},
					"t_mapping(t_address,t_mapping(t_uint256,t_struct(Auction)560_storage))": {
						"encoding": "mapping",
						"key": "t_address",
						"label": "mapping(address => mapping(uint256 => struct NFTSingleMarketplace.Auction))",
						"numberOfBytes": "32",
						"value": "t_mapping(t_uint256,t_struct(Auction)560_storage)"
					},
					"t_mapping(t_address,t_mapping(t_uint256,t_struct(FixedSale)569_storage))": {
						"encoding": "mapping",
						"key": "t_address",
						"label": "mapping(address => mapping(uint256 => struct NFTSingleMarketplace.FixedSale))",
						"numberOfBytes": "32",
						"value": "t_mapping(t_uint256,t_struct(FixedSale)569_storage)"
					},
					"t_mapping(t_address,t_mapping(t_uint256,t_uint256))": {
						"encoding": "mapping",
						"key": "t_address",
						"label": "mapping(address => mapping(uint256 => uint256))",
						"numberOfBytes": "32",
						"value": "t_mapping(t_uint256,t_uint256)"
					},
					"t_mapping(t_address,t_uint256)": {
						"encoding": "mapping",
						"key": "t_address",
						"label": "mapping(address => uint256)",
						"numberOfBytes": "32",
						"value": "t_uint256"
					},
					"t_mapping(t_uint256,t_mapping(t_address,t_uint256))": {
						"encoding": "mapping",
						"key": "t_uint256",
						"label": "mapping(uint256 => mapping(address => uint256))",
						"numberOfBytes": "32",
						"value": "t_mapping(t_address,t_uint256)"
					},
					"t_mapping(t_uint256,t_struct(Auction)560_storage)": {
						"encoding": "mapping",
						"key": "t_uint256",
						"label": "mapping(uint256 => struct NFTSingleMarketplace.Auction)",
						"numberOfBytes": "32",
						"value": "t_struct(Auction)560_storage"
					},
					"t_mapping(t_uint256,t_struct(FixedSale)569_storage)": {
						"encoding": "mapping",
						"key": "t_uint256",
						"label": "mapping(uint256 => struct NFTSingleMarketplace.FixedSale)",
						"numberOfBytes": "32",
						"value": "t_struct(FixedSale)569_storage"
					},
					"t_mapping(t_uint256,t_uint256)": {
						"encoding": "mapping",
						"key": "t_uint256",
						"label": "mapping(uint256 => uint256)",
						"numberOfBytes": "32",
						"value": "t_uint256"
					},
					"t_struct(Auction)560_storage": {
						"encoding": "inplace",
						"label": "struct NFTSingleMarketplace.Auction",
						"members": [
							{
								"astId": 547,
								"contract": "Arevea-NFT-Market/NFT-Contracts/contracts/finalMarket_single.sol:NFTSingleMarketplace",
								"label": "auctionStart",
								"offset": 0,
								"slot": "0",
								"type": "t_uint256"
							},
							{
								"astId": 549,
								"contract": "Arevea-NFT-Market/NFT-Contracts/contracts/finalMarket_single.sol:NFTSingleMarketplace",
								"label": "auctionEnd",
								"offset": 0,
								"slot": "1",
								"type": "t_uint256"
							},
							{
								"astId": 551,
								"contract": "Arevea-NFT-Market/NFT-Contracts/contracts/finalMarket_single.sol:NFTSingleMarketplace",
								"label": "minPrice",
								"offset": 0,
								"slot": "2",
								"type": "t_uint256"
							},
							{
								"astId": 553,
								"contract": "Arevea-NFT-Market/NFT-Contracts/contracts/finalMarket_single.sol:NFTSingleMarketplace",
								"label": "nftHighestBid",
								"offset": 0,
								"slot": "3",
								"type": "t_uint256"
							},
							{
								"astId": 555,
								"contract": "Arevea-NFT-Market/NFT-Contracts/contracts/finalMarket_single.sol:NFTSingleMarketplace",
								"label": "nftHighestBidder",
								"offset": 0,
								"slot": "4",
								"type": "t_address"
							},
							{
								"astId": 557,
								"contract": "Arevea-NFT-Market/NFT-Contracts/contracts/finalMarket_single.sol:NFTSingleMarketplace",
								"label": "nftSeller",
								"offset": 0,
								"slot": "5",
								"type": "t_address"
							},
							{
								"astId": 559,
								"contract": "Arevea-NFT-Market/NFT-Contracts/contracts/finalMarket_single.sol:NFTSingleMarketplace",
								"label": "erc20",
								"offset": 0,
								"slot": "6",
								"type": "t_address"
							}
						],
						"numberOfBytes": "224"
					},
					"t_struct(FixedSale)569_storage": {
						"encoding": "inplace",
						"label": "struct NFTSingleMarketplace.FixedSale",
						"members": [
							{
								"astId": 562,
								"contract": "Arevea-NFT-Market/NFT-Contracts/contracts/finalMarket_single.sol:NFTSingleMarketplace",
								"label": "nftSeller",
								"offset": 0,
								"slot": "0",
								"type": "t_address"
							},
							{
								"astId": 564,
								"contract": "Arevea-NFT-Market/NFT-Contracts/contracts/finalMarket_single.sol:NFTSingleMarketplace",
								"label": "nftBuyer",
								"offset": 0,
								"slot": "1",
								"type": "t_address"
							},
							{
								"astId": 566,
								"contract": "Arevea-NFT-Market/NFT-Contracts/contracts/finalMarket_single.sol:NFTSingleMarketplace",
								"label": "erc20",
								"offset": 0,
								"slot": "2",
								"type": "t_address"
							},
							{
								"astId": 568,
								"contract": "Arevea-NFT-Market/NFT-Contracts/contracts/finalMarket_single.sol:NFTSingleMarketplace",
								"label": "salePrice",
								"offset": 0,
								"slot": "3",
								"type": "t_uint256"
							}
						],
						"numberOfBytes": "128"
					},
					"t_struct(SaleInfo)574_storage": {
						"encoding": "inplace",
						"label": "struct NFTSingleMarketplace.SaleInfo",
						"members": [
							{
								"astId": 571,
								"contract": "Arevea-NFT-Market/NFT-Contracts/contracts/finalMarket_single.sol:NFTSingleMarketplace",
								"label": "_nftContractAddress",
								"offset": 0,
								"slot": "0",
								"type": "t_address"
							},
							{
								"astId": 573,
								"contract": "Arevea-NFT-Market/NFT-Contracts/contracts/finalMarket_single.sol:NFTSingleMarketplace",
								"label": "_tokenID",
								"offset": 0,
								"slot": "1",
								"type": "t_uint256"
							}
						],
						"numberOfBytes": "64"
					},
					"t_uint256": {
						"encoding": "inplace",
						"label": "uint256",
						"numberOfBytes": "32"
					}
				}
			},
			"userdoc": {
				"kind": "user",
				"methods": {},
				"version": 1
			}
		}
	}
}