{
	"NFT-Contracts/contracts/AREVEAToken.sol": {
		"AREVEAToken": {
			"abi": [
				{
					"inputs": [],
					"stateMutability": "nonpayable",
					"type": "constructor"
				},
				{
					"anonymous": false,
					"inputs": [
						{
							"indexed": true,
							"internalType": "address",
							"name": "owner",
							"type": "address"
						},
						{
							"indexed": true,
							"internalType": "address",
							"name": "spender",
							"type": "address"
						},
						{
							"indexed": false,
							"internalType": "uint256",
							"name": "value",
							"type": "uint256"
						}
					],
					"name": "Approval",
					"type": "event"
				},
				{
					"anonymous": false,
					"inputs": [
						{
							"indexed": true,
							"internalType": "address",
							"name": "previousOwner",
							"type": "address"
						},
						{
							"indexed": true,
							"internalType": "address",
							"name": "newOwner",
							"type": "address"
						}
					],
					"name": "OwnershipTransferred",
					"type": "event"
				},
				{
					"anonymous": false,
					"inputs": [
						{
							"indexed": true,
							"internalType": "address",
							"name": "from",
							"type": "address"
						},
						{
							"indexed": true,
							"internalType": "address",
							"name": "to",
							"type": "address"
						},
						{
							"indexed": false,
							"internalType": "uint256",
							"name": "value",
							"type": "uint256"
						}
					],
					"name": "Transfer",
					"type": "event"
				},
				{
					"inputs": [],
					"name": "DECIMALS",
					"outputs": [
						{
							"internalType": "uint8",
							"name": "",
							"type": "uint8"
						}
					],
					"stateMutability": "view",
					"type": "function"
				},
				{
					"inputs": [],
					"name": "INITIAL_SUPPLY",
					"outputs": [
						{
							"internalType": "uint256",
							"name": "",
							"type": "uint256"
						}
					],
					"stateMutability": "view",
					"type": "function"
				},
				{
					"inputs": [],
					"name": "Maximum_SUPPLY",
					"outputs": [
						{
							"internalType": "uint256",
							"name": "",
							"type": "uint256"
						}
					],
					"stateMutability": "view",
					"type": "function"
				},
				{
					"inputs": [
						{
							"internalType": "address",
							"name": "owner",
							"type": "address"
						},
						{
							"internalType": "address",
							"name": "spender",
							"type": "address"
						}
					],
					"name": "allowance",
					"outputs": [
						{
							"internalType": "uint256",
							"name": "",
							"type": "uint256"
						}
					],
					"stateMutability": "view",
					"type": "function"
				},
				{
					"inputs": [
						{
							"internalType": "address",
							"name": "spender",
							"type": "address"
						},
						{
							"internalType": "uint256",
							"name": "amount",
							"type": "uint256"
						}
					],
					"name": "approve",
					"outputs": [
						{
							"internalType": "bool",
							"name": "",
							"type": "bool"
						}
					],
					"stateMutability": "nonpayable",
					"type": "function"
				},
				{
					"inputs": [
						{
							"internalType": "address",
							"name": "account",
							"type": "address"
						}
					],
					"name": "balanceOf",
					"outputs": [
						{
							"internalType": "uint256",
							"name": "",
							"type": "uint256"
						}
					],
					"stateMutability": "view",
					"type": "function"
				},
				{
					"inputs": [
						{
							"internalType": "uint256",
							"name": "amount",
							"type": "uint256"
						}
					],
					"name": "burn",
					"outputs": [],
					"stateMutability": "nonpayable",
					"type": "function"
				},
				{
					"inputs": [
						{
							"internalType": "address",
							"name": "account",
							"type": "address"
						},
						{
							"internalType": "uint256",
							"name": "amount",
							"type": "uint256"
						}
					],
					"name": "burnFrom",
					"outputs": [],
					"stateMutability": "nonpayable",
					"type": "function"
				},
				{
					"inputs": [],
					"name": "decimals",
					"outputs": [
						{
							"internalType": "uint8",
							"name": "",
							"type": "uint8"
						}
					],
					"stateMutability": "view",
					"type": "function"
				},
				{
					"inputs": [
						{
							"internalType": "address",
							"name": "spender",
							"type": "address"
						},
						{
							"internalType": "uint256",
							"name": "subtractedValue",
							"type": "uint256"
						}
					],
					"name": "decreaseAllowance",
					"outputs": [
						{
							"internalType": "bool",
							"name": "",
							"type": "bool"
						}
					],
					"stateMutability": "nonpayable",
					"type": "function"
				},
				{
					"inputs": [
						{
							"internalType": "address",
							"name": "spender",
							"type": "address"
						},
						{
							"internalType": "uint256",
							"name": "addedValue",
							"type": "uint256"
						}
					],
					"name": "increaseAllowance",
					"outputs": [
						{
							"internalType": "bool",
							"name": "",
							"type": "bool"
						}
					],
					"stateMutability": "nonpayable",
					"type": "function"
				},
				{
					"inputs": [
						{
							"internalType": "address",
							"name": "account",
							"type": "address"
						},
						{
							"internalType": "uint256",
							"name": "amount",
							"type": "uint256"
						}
					],
					"name": "mint",
					"outputs": [],
					"stateMutability": "nonpayable",
					"type": "function"
				},
				{
					"inputs": [],
					"name": "name",
					"outputs": [
						{
							"internalType": "string",
							"name": "",
							"type": "string"
						}
					],
					"stateMutability": "view",
					"type": "function"
				},
				{
					"inputs": [],
					"name": "owner",
					"outputs": [
						{
							"internalType": "address",
							"name": "",
							"type": "address"
						}
					],
					"stateMutability": "view",
					"type": "function"
				},
				{
					"inputs": [],
					"name": "renounceOwnership",
					"outputs": [],
					"stateMutability": "nonpayable",
					"type": "function"
				},
				{
					"inputs": [],
					"name": "symbol",
					"outputs": [
						{
							"internalType": "string",
							"name": "",
							"type": "string"
						}
					],
					"stateMutability": "view",
					"type": "function"
				},
				{
					"inputs": [],
					"name": "totalSupply",
					"outputs": [
						{
							"internalType": "uint256",
							"name": "",
							"type": "uint256"
						}
					],
					"stateMutability": "view",
					"type": "function"
				},
				{
					"inputs": [
						{
							"internalType": "address",
							"name": "to",
							"type": "address"
						},
						{
							"internalType": "uint256",
							"name": "amount",
							"type": "uint256"
						}
					],
					"name": "transfer",
					"outputs": [
						{
							"internalType": "bool",
							"name": "",
							"type": "bool"
						}
					],
					"stateMutability": "nonpayable",
					"type": "function"
				},
				{
					"inputs": [
						{
							"internalType": "address",
							"name": "from",
							"type": "address"
						},
						{
							"internalType": "address",
							"name": "to",
							"type": "address"
						},
						{
							"internalType": "uint256",
							"name": "amount",
							"type": "uint256"
						}
					],
					"name": "transferFrom",
					"outputs": [
						{
							"internalType": "bool",
							"name": "",
							"type": "bool"
						}
					],
					"stateMutability": "nonpayable",
					"type": "function"
				},
				{
					"inputs": [
						{
							"internalType": "address",
							"name": "newOwner",
							"type": "address"
						}
					],
					"name": "transferOwnership",
					"outputs": [],
					"stateMutability": "nonpayable",
					"type": "function"
				}
			],
			"devdoc": {
				"details": "Very simple ERC20 Token example, where all tokens are pre-assigned to the creator. Note they can later distribute these tokens as they wish using `transfer` and other `ERC20` functions.",
				"kind": "dev",
				"methods": {
					"allowance(address,address)": {
						"details": "See {IERC20-allowance}."
					},
					"approve(address,uint256)": {
						"details": "See {IERC20-approve}. NOTE: If `amount` is the maximum `uint256`, the allowance is not updated on `transferFrom`. This is semantically equivalent to an infinite approval. Requirements: - `spender` cannot be the zero address."
					},
					"balanceOf(address)": {
						"details": "See {IERC20-balanceOf}."
					},
					"burn(uint256)": {
						"details": "Destroys `amount` tokens from the caller. See {ERC20-_burn}."
					},
					"burnFrom(address,uint256)": {
						"details": "Destroys `amount` tokens from `account`, deducting from the caller's allowance. See {ERC20-_burn} and {ERC20-allowance}. Requirements: - the caller must have allowance for ``accounts``'s tokens of at least `amount`."
					},
					"constructor": {
						"details": "Constructor that gives msg.sender all of existing tokens."
					},
					"decimals()": {
						"details": "Returns the number of decimals used to get its user representation. For example, if `decimals` equals `2`, a balance of `505` tokens should be displayed to a user as `5.05` (`505 / 10 ** 2`). Tokens usually opt for a value of 18, imitating the relationship between Ether and Wei. This is the value {ERC20} uses, unless this function is overridden; NOTE: This information is only used for _display_ purposes: it in no way affects any of the arithmetic of the contract, including {IERC20-balanceOf} and {IERC20-transfer}."
					},
					"decreaseAllowance(address,uint256)": {
						"details": "Atomically decreases the allowance granted to `spender` by the caller. This is an alternative to {approve} that can be used as a mitigation for problems described in {IERC20-approve}. Emits an {Approval} event indicating the updated allowance. Requirements: - `spender` cannot be the zero address. - `spender` must have allowance for the caller of at least `subtractedValue`."
					},
					"increaseAllowance(address,uint256)": {
						"details": "Atomically increases the allowance granted to `spender` by the caller. This is an alternative to {approve} that can be used as a mitigation for problems described in {IERC20-approve}. Emits an {Approval} event indicating the updated allowance. Requirements: - `spender` cannot be the zero address."
					},
					"mint(address,uint256)": {
						"details": "Creates `amount` tokens and assigns them to `account`, increasing the total supply. Emits a {Transfer} event with `from` set to the zero address. Requirements: - `account` cannot be the zero address."
					},
					"name()": {
						"details": "Returns the name of the token."
					},
					"owner()": {
						"details": "Returns the address of the current owner."
					},
					"renounceOwnership()": {
						"details": "Leaves the contract without owner. It will not be possible to call `onlyOwner` functions anymore. Can only be called by the current owner. NOTE: Renouncing ownership will leave the contract without an owner, thereby removing any functionality that is only available to the owner."
					},
					"symbol()": {
						"details": "Returns the symbol of the token, usually a shorter version of the name."
					},
					"totalSupply()": {
						"details": "See {IERC20-totalSupply}."
					},
					"transfer(address,uint256)": {
						"details": "See {IERC20-transfer}. Requirements: - `to` cannot be the zero address. - the caller must have a balance of at least `amount`."
					},
					"transferFrom(address,address,uint256)": {
						"details": "See {IERC20-transferFrom}. Emits an {Approval} event indicating the updated allowance. This is not required by the EIP. See the note at the beginning of {ERC20}. NOTE: Does not update the allowance if the current allowance is the maximum `uint256`. Requirements: - `from` and `to` cannot be the zero address. - `from` must have a balance of at least `amount`. - the caller must have allowance for ``from``'s tokens of at least `amount`."
					},
					"transferOwnership(address)": {
						"details": "Transfers ownership of the contract to a new account (`newOwner`). Can only be called by the current owner."
					}
				},
				"title": "AREVEA-Token",
				"version": 1
			},
			"evm": {
				"assembly": "    /* \"NFT-Contracts/contracts/AREVEAToken.sol\":399:2013  contract AREVEAToken is ERC20,Ownable {... */\n  mstore(0x40, 0x80)\n    /* \"NFT-Contracts/contracts/AREVEAToken.sol\":796:890  constructor () ERC20 (\"AREVEA\", \"AVA\") {... */\n  callvalue\n  dup1\n  iszero\n  tag_1\n  jumpi\n  0x00\n  dup1\n  revert\ntag_1:\n  pop\n    /* \"NFT-Contracts/contracts/ERC20.sol\":2021:2137  constructor(string memory name_, string memory symbol_) {... */\n  mload(0x40)\n  dup1\n  0x40\n  add\n  0x40\n  mstore\n  dup1\n  0x06\n  dup2\n  mstore\n  0x20\n  add\n  0x4152455645410000000000000000000000000000000000000000000000000000\n  dup2\n  mstore\n  pop\n  mload(0x40)\n  dup1\n  0x40\n  add\n  0x40\n  mstore\n  dup1\n  0x03\n  dup2\n  mstore\n  0x20\n  add\n  0x4156410000000000000000000000000000000000000000000000000000000000\n  dup2\n  mstore\n  pop\n    /* \"NFT-Contracts/contracts/ERC20.sol\":2096:2101  name_ */\n  dup2\n    /* \"NFT-Contracts/contracts/ERC20.sol\":2088:2093  _name */\n  0x03\n    /* \"NFT-Contracts/contracts/ERC20.sol\":2088:2101  _name = name_ */\n  swap1\n  dup2\n  tag_6\n  swap2\n  swap1\n  tag_7\n  jump\t// in\ntag_6:\n  pop\n    /* \"NFT-Contracts/contracts/ERC20.sol\":2122:2129  symbol_ */\n  dup1\n    /* \"NFT-Contracts/contracts/ERC20.sol\":2112:2119  _symbol */\n  0x04\n    /* \"NFT-Contracts/contracts/ERC20.sol\":2112:2129  _symbol = symbol_ */\n  swap1\n  dup2\n  tag_8\n  swap2\n  swap1\n  tag_7\n  jump\t// in\ntag_8:\n  pop\n    /* \"NFT-Contracts/contracts/ERC20.sol\":2021:2137  constructor(string memory name_, string memory symbol_) {... */\n  pop\n  pop\n    /* \"NFT-Contracts/contracts/External/Ownable.sol\":957:989  _transferOwnership(_msgSender()) */\n  tag_10\n    /* \"NFT-Contracts/contracts/External/Ownable.sol\":976:988  _msgSender() */\n  tag_11\n    /* \"NFT-Contracts/contracts/External/Ownable.sol\":976:986  _msgSender */\n  shl(0x20, tag_12)\n    /* \"NFT-Contracts/contracts/External/Ownable.sol\":976:988  _msgSender() */\n  0x20\n  shr\n  jump\t// in\ntag_11:\n    /* \"NFT-Contracts/contracts/External/Ownable.sol\":957:975  _transferOwnership */\n  shl(0x20, tag_13)\n    /* \"NFT-Contracts/contracts/External/Ownable.sol\":957:989  _transferOwnership(_msgSender()) */\n  0x20\n  shr\n  jump\t// in\ntag_10:\n    /* \"NFT-Contracts/contracts/AREVEAToken.sol\":848:880  mint(msg.sender, INITIAL_SUPPLY) */\n  tag_15\n    /* \"NFT-Contracts/contracts/AREVEAToken.sol\":853:863  msg.sender */\n  caller\n    /* \"NFT-Contracts/contracts/AREVEAToken.sol\":514:516  18 */\n  0x12\n    /* \"NFT-Contracts/contracts/AREVEAToken.sol\":583:600  uint256(DECIMALS) */\n  0xff\n  and\n    /* \"NFT-Contracts/contracts/AREVEAToken.sol\":577:579  10 */\n  0x0a\n    /* \"NFT-Contracts/contracts/AREVEAToken.sol\":577:600  10 ** uint256(DECIMALS) */\n  tag_16\n  swap2\n  swap1\n  tag_17\n  jump\t// in\ntag_16:\n    /* \"NFT-Contracts/contracts/AREVEAToken.sol\":566:573  1000000 */\n  0x0f4240\n    /* \"NFT-Contracts/contracts/AREVEAToken.sol\":566:601  1000000 * (10 ** uint256(DECIMALS)) */\n  tag_18\n  swap2\n  swap1\n  tag_19\n  jump\t// in\ntag_18:\n    /* \"NFT-Contracts/contracts/AREVEAToken.sol\":848:852  mint */\n  shl(0x20, tag_20)\n    /* \"NFT-Contracts/contracts/AREVEAToken.sol\":848:880  mint(msg.sender, INITIAL_SUPPLY) */\n  0x20\n  shr\n  jump\t// in\ntag_15:\n    /* \"NFT-Contracts/contracts/AREVEAToken.sol\":399:2013  contract AREVEAToken is ERC20,Ownable {... */\n  jump(tag_21)\n    /* \"NFT-Contracts/contracts/External/Context.sol\":145:260  function _msgSender() internal view virtual returns (address payable) {... */\ntag_12:\n    /* \"NFT-Contracts/contracts/External/Context.sol\":198:213  address payable */\n  0x00\n    /* \"NFT-Contracts/contracts/External/Context.sol\":241:251  msg.sender */\n  caller\n    /* \"NFT-Contracts/contracts/External/Context.sol\":226:252  return payable(msg.sender) */\n  swap1\n  pop\n    /* \"NFT-Contracts/contracts/External/Context.sol\":145:260  function _msgSender() internal view virtual returns (address payable) {... */\n  swap1\n  jump\t// out\n    /* \"NFT-Contracts/contracts/External/Ownable.sol\":2503:2694  function _transferOwnership(address newOwner) internal virtual {... */\ntag_13:\n    /* \"NFT-Contracts/contracts/External/Ownable.sol\":2577:2593  address oldOwner */\n  0x00\n    /* \"NFT-Contracts/contracts/External/Ownable.sol\":2596:2602  _owner */\n  0x05\n  0x00\n  swap1\n  sload\n  swap1\n  0x0100\n  exp\n  swap1\n  div\n  0xffffffffffffffffffffffffffffffffffffffff\n  and\n    /* \"NFT-Contracts/contracts/External/Ownable.sol\":2577:2602  address oldOwner = _owner */\n  swap1\n  pop\n    /* \"NFT-Contracts/contracts/External/Ownable.sol\":2622:2630  newOwner */\n  dup2\n    /* \"NFT-Contracts/contracts/External/Ownable.sol\":2613:2619  _owner */\n  0x05\n  0x00\n    /* \"NFT-Contracts/contracts/External/Ownable.sol\":2613:2630  _owner = newOwner */\n  0x0100\n  exp\n  dup2\n  sload\n  dup2\n  0xffffffffffffffffffffffffffffffffffffffff\n  mul\n  not\n  and\n  swap1\n  dup4\n  0xffffffffffffffffffffffffffffffffffffffff\n  and\n  mul\n  or\n  swap1\n  sstore\n  pop\n    /* \"NFT-Contracts/contracts/External/Ownable.sol\":2677:2685  newOwner */\n  dup2\n    /* \"NFT-Contracts/contracts/External/Ownable.sol\":2646:2686  OwnershipTransferred(oldOwner, newOwner) */\n  0xffffffffffffffffffffffffffffffffffffffff\n  and\n    /* \"NFT-Contracts/contracts/External/Ownable.sol\":2667:2675  oldOwner */\n  dup2\n    /* \"NFT-Contracts/contracts/External/Ownable.sol\":2646:2686  OwnershipTransferred(oldOwner, newOwner) */\n  0xffffffffffffffffffffffffffffffffffffffff\n  and\n  0x8be0079c531659141344cd1fd0a4f28419497f9722a3daafe3b4186f6b6457e0\n  mload(0x40)\n  mload(0x40)\n  dup1\n  swap2\n  sub\n  swap1\n  log3\n    /* \"NFT-Contracts/contracts/External/Ownable.sol\":2566:2694  {... */\n  pop\n    /* \"NFT-Contracts/contracts/External/Ownable.sol\":2503:2694  function _transferOwnership(address newOwner) internal virtual {... */\n  pop\n  jump\t// out\n    /* \"NFT-Contracts/contracts/AREVEAToken.sol\":1155:1353  function mint(address account, uint256 amount) public  onlyOwner  {... */\ntag_20:\n    /* \"NFT-Contracts/contracts/External/Ownable.sol\":1122:1135  _checkOwner() */\n  tag_25\n    /* \"NFT-Contracts/contracts/External/Ownable.sol\":1122:1133  _checkOwner */\n  shl(0x20, tag_26)\n    /* \"NFT-Contracts/contracts/External/Ownable.sol\":1122:1135  _checkOwner() */\n  0x20\n  shr\n  jump\t// in\ntag_25:\n    /* \"NFT-Contracts/contracts/AREVEAToken.sol\":514:516  18 */\n  0x12\n    /* \"NFT-Contracts/contracts/AREVEAToken.sol\":674:691  uint256(DECIMALS) */\n  0xff\n  and\n    /* \"NFT-Contracts/contracts/AREVEAToken.sol\":668:670  10 */\n  0x0a\n    /* \"NFT-Contracts/contracts/AREVEAToken.sol\":668:691  10 ** uint256(DECIMALS) */\n  tag_28\n  swap2\n  swap1\n  tag_17\n  jump\t// in\ntag_28:\n    /* \"NFT-Contracts/contracts/AREVEAToken.sol\":651:664  1000000000000 */\n  0xe8d4a51000\n    /* \"NFT-Contracts/contracts/AREVEAToken.sol\":651:692  1000000000000 * (10 ** uint256(DECIMALS)) */\n  tag_29\n  swap2\n  swap1\n  tag_19\n  jump\t// in\ntag_29:\n    /* \"NFT-Contracts/contracts/AREVEAToken.sol\":1241:1266  totalSupply().add(amount) */\n  tag_30\n    /* \"NFT-Contracts/contracts/AREVEAToken.sol\":1259:1265  amount */\n  dup3\n    /* \"NFT-Contracts/contracts/AREVEAToken.sol\":1241:1254  totalSupply() */\n  tag_31\n    /* \"NFT-Contracts/contracts/AREVEAToken.sol\":1241:1252  totalSupply */\n  shl(0x20, tag_32)\n    /* \"NFT-Contracts/contracts/AREVEAToken.sol\":1241:1254  totalSupply() */\n  0x20\n  shr\n  jump\t// in\ntag_31:\n    /* \"NFT-Contracts/contracts/AREVEAToken.sol\":1241:1258  totalSupply().add */\n  or(tag_0_102, shl(0x20, tag_33))\n  swap1\n    /* \"NFT-Contracts/contracts/AREVEAToken.sol\":1241:1266  totalSupply().add(amount) */\n  swap2\n  swap1\n  0x20\n  shr\n  jump\t// in\ntag_30:\n    /* \"NFT-Contracts/contracts/AREVEAToken.sol\":1241:1284  totalSupply().add(amount) <= Maximum_SUPPLY */\n  gt\n  iszero\n    /* \"NFT-Contracts/contracts/AREVEAToken.sol\":1233:1310  require(totalSupply().add(amount) <= Maximum_SUPPLY,\"Maximum supply reached\") */\n  tag_34\n  jumpi\n  mload(0x40)\n  0x08c379a000000000000000000000000000000000000000000000000000000000\n  dup2\n  mstore\n  0x04\n  add\n  tag_35\n  swap1\n  tag_36\n  jump\t// in\ntag_35:\n  mload(0x40)\n  dup1\n  swap2\n  sub\n  swap1\n  revert\ntag_34:\n    /* \"NFT-Contracts/contracts/AREVEAToken.sol\":1322:1343  _mint(account,amount) */\n  tag_37\n    /* \"NFT-Contracts/contracts/AREVEAToken.sol\":1328:1335  account */\n  dup3\n    /* \"NFT-Contracts/contracts/AREVEAToken.sol\":1336:1342  amount */\n  dup3\n    /* \"NFT-Contracts/contracts/AREVEAToken.sol\":1322:1327  _mint */\n  shl(0x20, tag_38)\n    /* \"NFT-Contracts/contracts/AREVEAToken.sol\":1322:1343  _mint(account,amount) */\n  0x20\n  shr\n  jump\t// in\ntag_37:\n    /* \"NFT-Contracts/contracts/AREVEAToken.sol\":1155:1353  function mint(address account, uint256 amount) public  onlyOwner  {... */\n  pop\n  pop\n  jump\t// out\n    /* \"NFT-Contracts/contracts/External/Ownable.sol\":1401:1533  function _checkOwner() internal view virtual {... */\ntag_26:\n    /* \"NFT-Contracts/contracts/External/Ownable.sol\":1476:1488  _msgSender() */\n  tag_40\n    /* \"NFT-Contracts/contracts/External/Ownable.sol\":1476:1486  _msgSender */\n  shl(0x20, tag_12)\n    /* \"NFT-Contracts/contracts/External/Ownable.sol\":1476:1488  _msgSender() */\n  0x20\n  shr\n  jump\t// in\ntag_40:\n    /* \"NFT-Contracts/contracts/External/Ownable.sol\":1465:1488  owner() == _msgSender() */\n  0xffffffffffffffffffffffffffffffffffffffff\n  and\n    /* \"NFT-Contracts/contracts/External/Ownable.sol\":1465:1472  owner() */\n  tag_41\n    /* \"NFT-Contracts/contracts/External/Ownable.sol\":1465:1470  owner */\n  shl(0x20, tag_42)\n    /* \"NFT-Contracts/contracts/External/Ownable.sol\":1465:1472  owner() */\n  0x20\n  shr\n  jump\t// in\ntag_41:\n    /* \"NFT-Contracts/contracts/External/Ownable.sol\":1465:1488  owner() == _msgSender() */\n  0xffffffffffffffffffffffffffffffffffffffff\n  and\n  eq\n    /* \"NFT-Contracts/contracts/External/Ownable.sol\":1457:1525  require(owner() == _msgSender(), \"Ownable: caller is not the owner\") */\n  tag_43\n  jumpi\n  mload(0x40)\n  0x08c379a000000000000000000000000000000000000000000000000000000000\n  dup2\n  mstore\n  0x04\n  add\n  tag_44\n  swap1\n  tag_45\n  jump\t// in\ntag_44:\n  mload(0x40)\n  dup1\n  swap2\n  sub\n  swap1\n  revert\ntag_43:\n    /* \"NFT-Contracts/contracts/External/Ownable.sol\":1401:1533  function _checkOwner() internal view virtual {... */\n  jump\t// out\n    /* \"NFT-Contracts/contracts/ERC20.sol\":3327:3435  function totalSupply() public view virtual override returns (uint256) {... */\ntag_32:\n    /* \"NFT-Contracts/contracts/ERC20.sol\":3388:3395  uint256 */\n  0x00\n    /* \"NFT-Contracts/contracts/ERC20.sol\":3415:3427  _totalSupply */\n  sload(0x02)\n    /* \"NFT-Contracts/contracts/ERC20.sol\":3408:3427  return _totalSupply */\n  swap1\n  pop\n    /* \"NFT-Contracts/contracts/ERC20.sol\":3327:3435  function totalSupply() public view virtual override returns (uint256) {... */\n  swap1\n  jump\t// out\n    /* \"NFT-Contracts/contracts/External/SafeMath.sol\":302:483  function add(uint256 a, uint256 b) internal pure returns (uint256) {... */\ntag_33:\n    /* \"NFT-Contracts/contracts/External/SafeMath.sol\":360:367  uint256 */\n  0x00\n    /* \"NFT-Contracts/contracts/External/SafeMath.sol\":380:389  uint256 c */\n  dup1\n    /* \"NFT-Contracts/contracts/External/SafeMath.sol\":396:397  b */\n  dup3\n    /* \"NFT-Contracts/contracts/External/SafeMath.sol\":392:393  a */\n  dup5\n    /* \"NFT-Contracts/contracts/External/SafeMath.sol\":392:397  a + b */\n  tag_48\n  swap2\n  swap1\n  tag_49\n  jump\t// in\ntag_48:\n    /* \"NFT-Contracts/contracts/External/SafeMath.sol\":380:397  uint256 c = a + b */\n  swap1\n  pop\n    /* \"NFT-Contracts/contracts/External/SafeMath.sol\":421:422  a */\n  dup4\n    /* \"NFT-Contracts/contracts/External/SafeMath.sol\":416:417  c */\n  dup2\n    /* \"NFT-Contracts/contracts/External/SafeMath.sol\":416:422  c >= a */\n  lt\n  iszero\n    /* \"NFT-Contracts/contracts/External/SafeMath.sol\":408:454  require(c >= a, \"SafeMath: addition overflow\") */\n  tag_50\n  jumpi\n  mload(0x40)\n  0x08c379a000000000000000000000000000000000000000000000000000000000\n  dup2\n  mstore\n  0x04\n  add\n  tag_51\n  swap1\n  tag_52\n  jump\t// in\ntag_51:\n  mload(0x40)\n  dup1\n  swap2\n  sub\n  swap1\n  revert\ntag_50:\n    /* \"NFT-Contracts/contracts/External/SafeMath.sol\":474:475  c */\n  dup1\n    /* \"NFT-Contracts/contracts/External/SafeMath.sol\":467:475  return c */\n  swap2\n  pop\n  pop\n    /* \"NFT-Contracts/contracts/External/SafeMath.sol\":302:483  function add(uint256 a, uint256 b) internal pure returns (uint256) {... */\n  swap3\n  swap2\n  pop\n  pop\n  jump\t// out\n    /* \"NFT-Contracts/contracts/ERC20.sol\":8648:9047  function _mint(address account, uint256 amount) internal virtual {... */\ntag_38:\n    /* \"NFT-Contracts/contracts/ERC20.sol\":8751:8752  0 */\n  0x00\n    /* \"NFT-Contracts/contracts/ERC20.sol\":8732:8753  account != address(0) */\n  0xffffffffffffffffffffffffffffffffffffffff\n  and\n    /* \"NFT-Contracts/contracts/ERC20.sol\":8732:8739  account */\n  dup3\n    /* \"NFT-Contracts/contracts/ERC20.sol\":8732:8753  account != address(0) */\n  0xffffffffffffffffffffffffffffffffffffffff\n  and\n  sub\n    /* \"NFT-Contracts/contracts/ERC20.sol\":8724:8789  require(account != address(0), \"ERC20: mint to the zero address\") */\n  tag_54\n  jumpi\n  mload(0x40)\n  0x08c379a000000000000000000000000000000000000000000000000000000000\n  dup2\n  mstore\n  0x04\n  add\n  tag_55\n  swap1\n  tag_56\n  jump\t// in\ntag_55:\n  mload(0x40)\n  dup1\n  swap2\n  sub\n  swap1\n  revert\ntag_54:\n    /* \"NFT-Contracts/contracts/ERC20.sol\":8802:8851  _beforeTokenTransfer(address(0), account, amount) */\n  tag_57\n    /* \"NFT-Contracts/contracts/ERC20.sol\":8831:8832  0 */\n  0x00\n    /* \"NFT-Contracts/contracts/ERC20.sol\":8835:8842  account */\n  dup4\n    /* \"NFT-Contracts/contracts/ERC20.sol\":8844:8850  amount */\n  dup4\n    /* \"NFT-Contracts/contracts/ERC20.sol\":8802:8822  _beforeTokenTransfer */\n  shl(0x20, tag_58)\n    /* \"NFT-Contracts/contracts/ERC20.sol\":8802:8851  _beforeTokenTransfer(address(0), account, amount) */\n  0x20\n  shr\n  jump\t// in\ntag_57:\n    /* \"NFT-Contracts/contracts/ERC20.sol\":8880:8886  amount */\n  dup1\n    /* \"NFT-Contracts/contracts/ERC20.sol\":8864:8876  _totalSupply */\n  0x02\n  0x00\n    /* \"NFT-Contracts/contracts/ERC20.sol\":8864:8886  _totalSupply += amount */\n  dup3\n  dup3\n  sload\n  tag_59\n  swap2\n  swap1\n  tag_49\n  jump\t// in\ntag_59:\n  swap3\n  pop\n  pop\n  dup2\n  swap1\n  sstore\n  pop\n    /* \"NFT-Contracts/contracts/ERC20.sol\":8919:8925  amount */\n  dup1\n    /* \"NFT-Contracts/contracts/ERC20.sol\":8897:8906  _balances */\n  0x00\n    /* \"NFT-Contracts/contracts/ERC20.sol\":8897:8915  _balances[account] */\n  dup1\n    /* \"NFT-Contracts/contracts/ERC20.sol\":8907:8914  account */\n  dup5\n    /* \"NFT-Contracts/contracts/ERC20.sol\":8897:8915  _balances[account] */\n  0xffffffffffffffffffffffffffffffffffffffff\n  and\n  0xffffffffffffffffffffffffffffffffffffffff\n  and\n  dup2\n  mstore\n  0x20\n  add\n  swap1\n  dup2\n  mstore\n  0x20\n  add\n  0x00\n  keccak256\n  0x00\n    /* \"NFT-Contracts/contracts/ERC20.sol\":8897:8925  _balances[account] += amount */\n  dup3\n  dup3\n  sload\n  tag_60\n  swap2\n  swap1\n  tag_49\n  jump\t// in\ntag_60:\n  swap3\n  pop\n  pop\n  dup2\n  swap1\n  sstore\n  pop\n    /* \"NFT-Contracts/contracts/ERC20.sol\":8962:8969  account */\n  dup2\n    /* \"NFT-Contracts/contracts/ERC20.sol\":8941:8978  Transfer(address(0), account, amount) */\n  0xffffffffffffffffffffffffffffffffffffffff\n  and\n    /* \"NFT-Contracts/contracts/ERC20.sol\":8958:8959  0 */\n  0x00\n    /* \"NFT-Contracts/contracts/ERC20.sol\":8941:8978  Transfer(address(0), account, amount) */\n  0xffffffffffffffffffffffffffffffffffffffff\n  and\n  0xddf252ad1be2c89b69c2b068fc378daa952ba7f163c4a11628f55a4df523b3ef\n    /* \"NFT-Contracts/contracts/ERC20.sol\":8971:8977  amount */\n  dup4\n    /* \"NFT-Contracts/contracts/ERC20.sol\":8941:8978  Transfer(address(0), account, amount) */\n  mload(0x40)\n  tag_61\n  swap2\n  swap1\n  tag_62\n  jump\t// in\ntag_61:\n  mload(0x40)\n  dup1\n  swap2\n  sub\n  swap1\n  log3\n    /* \"NFT-Contracts/contracts/ERC20.sol\":8991:9039  _afterTokenTransfer(address(0), account, amount) */\n  tag_63\n    /* \"NFT-Contracts/contracts/ERC20.sol\":9019:9020  0 */\n  0x00\n    /* \"NFT-Contracts/contracts/ERC20.sol\":9023:9030  account */\n  dup4\n    /* \"NFT-Contracts/contracts/ERC20.sol\":9032:9038  amount */\n  dup4\n    /* \"NFT-Contracts/contracts/ERC20.sol\":8991:9010  _afterTokenTransfer */\n  shl(0x20, tag_64)\n    /* \"NFT-Contracts/contracts/ERC20.sol\":8991:9039  _afterTokenTransfer(address(0), account, amount) */\n  0x20\n  shr\n  jump\t// in\ntag_63:\n    /* \"NFT-Contracts/contracts/ERC20.sol\":8648:9047  function _mint(address account, uint256 amount) internal virtual {... */\n  pop\n  pop\n  jump\t// out\n    /* \"NFT-Contracts/contracts/External/Ownable.sol\":1236:1323  function owner() public view virtual returns (address) {... */\ntag_42:\n    /* \"NFT-Contracts/contracts/External/Ownable.sol\":1282:1289  address */\n  0x00\n    /* \"NFT-Contracts/contracts/External/Ownable.sol\":1309:1315  _owner */\n  0x05\n  0x00\n  swap1\n  sload\n  swap1\n  0x0100\n  exp\n  swap1\n  div\n  0xffffffffffffffffffffffffffffffffffffffff\n  and\n    /* \"NFT-Contracts/contracts/External/Ownable.sol\":1302:1315  return _owner */\n  swap1\n  pop\n    /* \"NFT-Contracts/contracts/External/Ownable.sol\":1236:1323  function owner() public view virtual returns (address) {... */\n  swap1\n  jump\t// out\n    /* \"NFT-Contracts/contracts/ERC20.sol\":12133:12258  function _beforeTokenTransfer(... */\ntag_58:\n  pop\n  pop\n  pop\n  jump\t// out\n    /* \"NFT-Contracts/contracts/ERC20.sol\":12862:12986  function _afterTokenTransfer(... */\ntag_64:\n  pop\n  pop\n  pop\n  jump\t// out\n    /* \"#utility.yul\":7:106   */\ntag_68:\n    /* \"#utility.yul\":59:65   */\n  0x00\n    /* \"#utility.yul\":93:98   */\n  dup2\n    /* \"#utility.yul\":87:99   */\n  mload\n    /* \"#utility.yul\":77:99   */\n  swap1\n  pop\n    /* \"#utility.yul\":7:106   */\n  swap2\n  swap1\n  pop\n  jump\t// out\n    /* \"#utility.yul\":112:292   */\ntag_69:\n    /* \"#utility.yul\":160:237   */\n  0x4e487b7100000000000000000000000000000000000000000000000000000000\n    /* \"#utility.yul\":157:158   */\n  0x00\n    /* \"#utility.yul\":150:238   */\n  mstore\n    /* \"#utility.yul\":257:261   */\n  0x41\n    /* \"#utility.yul\":254:255   */\n  0x04\n    /* \"#utility.yul\":247:262   */\n  mstore\n    /* \"#utility.yul\":281:285   */\n  0x24\n    /* \"#utility.yul\":278:279   */\n  0x00\n    /* \"#utility.yul\":271:286   */\n  revert\n    /* \"#utility.yul\":298:478   */\ntag_70:\n    /* \"#utility.yul\":346:423   */\n  0x4e487b7100000000000000000000000000000000000000000000000000000000\n    /* \"#utility.yul\":343:344   */\n  0x00\n    /* \"#utility.yul\":336:424   */\n  mstore\n    /* \"#utility.yul\":443:447   */\n  0x22\n    /* \"#utility.yul\":440:441   */\n  0x04\n    /* \"#utility.yul\":433:448   */\n  mstore\n    /* \"#utility.yul\":467:471   */\n  0x24\n    /* \"#utility.yul\":464:465   */\n  0x00\n    /* \"#utility.yul\":457:472   */\n  revert\n    /* \"#utility.yul\":484:804   */\ntag_71:\n    /* \"#utility.yul\":528:534   */\n  0x00\n    /* \"#utility.yul\":565:566   */\n  0x02\n    /* \"#utility.yul\":559:563   */\n  dup3\n    /* \"#utility.yul\":555:567   */\n  div\n    /* \"#utility.yul\":545:567   */\n  swap1\n  pop\n    /* \"#utility.yul\":612:613   */\n  0x01\n    /* \"#utility.yul\":606:610   */\n  dup3\n    /* \"#utility.yul\":602:614   */\n  and\n    /* \"#utility.yul\":633:651   */\n  dup1\n    /* \"#utility.yul\":623:704   */\n  tag_107\n  jumpi\n    /* \"#utility.yul\":689:693   */\n  0x7f\n    /* \"#utility.yul\":681:687   */\n  dup3\n    /* \"#utility.yul\":677:694   */\n  and\n    /* \"#utility.yul\":667:694   */\n  swap2\n  pop\n    /* \"#utility.yul\":623:704   */\ntag_107:\n    /* \"#utility.yul\":751:753   */\n  0x20\n    /* \"#utility.yul\":743:749   */\n  dup3\n    /* \"#utility.yul\":740:754   */\n  lt\n    /* \"#utility.yul\":720:738   */\n  dup2\n    /* \"#utility.yul\":717:755   */\n  sub\n    /* \"#utility.yul\":714:798   */\n  tag_108\n  jumpi\n    /* \"#utility.yul\":770:788   */\n  tag_109\n  tag_70\n  jump\t// in\ntag_109:\n    /* \"#utility.yul\":714:798   */\ntag_108:\n    /* \"#utility.yul\":535:804   */\n  pop\n    /* \"#utility.yul\":484:804   */\n  swap2\n  swap1\n  pop\n  jump\t// out\n    /* \"#utility.yul\":810:951   */\ntag_72:\n    /* \"#utility.yul\":859:863   */\n  0x00\n    /* \"#utility.yul\":882:885   */\n  dup2\n    /* \"#utility.yul\":874:885   */\n  swap1\n  pop\n    /* \"#utility.yul\":905:908   */\n  dup2\n    /* \"#utility.yul\":902:903   */\n  0x00\n    /* \"#utility.yul\":895:909   */\n  mstore\n    /* \"#utility.yul\":939:943   */\n  0x20\n    /* \"#utility.yul\":936:937   */\n  0x00\n    /* \"#utility.yul\":926:944   */\n  keccak256\n    /* \"#utility.yul\":918:944   */\n  swap1\n  pop\n    /* \"#utility.yul\":810:951   */\n  swap2\n  swap1\n  pop\n  jump\t// out\n    /* \"#utility.yul\":957:1050   */\ntag_73:\n    /* \"#utility.yul\":994:1000   */\n  0x00\n    /* \"#utility.yul\":1041:1043   */\n  0x20\n    /* \"#utility.yul\":1036:1038   */\n  0x1f\n    /* \"#utility.yul\":1029:1034   */\n  dup4\n    /* \"#utility.yul\":1025:1039   */\n  add\n    /* \"#utility.yul\":1021:1044   */\n  div\n    /* \"#utility.yul\":1011:1044   */\n  swap1\n  pop\n    /* \"#utility.yul\":957:1050   */\n  swap2\n  swap1\n  pop\n  jump\t// out\n    /* \"#utility.yul\":1056:1163   */\ntag_74:\n    /* \"#utility.yul\":1100:1108   */\n  0x00\n    /* \"#utility.yul\":1150:1155   */\n  dup3\n    /* \"#utility.yul\":1144:1148   */\n  dup3\n    /* \"#utility.yul\":1140:1156   */\n  shl\n    /* \"#utility.yul\":1119:1156   */\n  swap1\n  pop\n    /* \"#utility.yul\":1056:1163   */\n  swap3\n  swap2\n  pop\n  pop\n  jump\t// out\n    /* \"#utility.yul\":1169:1562   */\ntag_75:\n    /* \"#utility.yul\":1238:1244   */\n  0x00\n    /* \"#utility.yul\":1288:1289   */\n  0x08\n    /* \"#utility.yul\":1276:1286   */\n  dup4\n    /* \"#utility.yul\":1272:1290   */\n  mul\n    /* \"#utility.yul\":1311:1408   */\n  tag_114\n    /* \"#utility.yul\":1341:1407   */\n  0xffffffffffffffffffffffffffffffffffffffffffffffffffffffffffffffff\n    /* \"#utility.yul\":1330:1339   */\n  dup3\n    /* \"#utility.yul\":1311:1408   */\n  tag_74\n  jump\t// in\ntag_114:\n    /* \"#utility.yul\":1429:1468   */\n  tag_115\n    /* \"#utility.yul\":1459:1467   */\n  dup7\n    /* \"#utility.yul\":1448:1457   */\n  dup4\n    /* \"#utility.yul\":1429:1468   */\n  tag_74\n  jump\t// in\ntag_115:\n    /* \"#utility.yul\":1417:1468   */\n  swap6\n  pop\n    /* \"#utility.yul\":1501:1505   */\n  dup1\n    /* \"#utility.yul\":1497:1506   */\n  not\n    /* \"#utility.yul\":1490:1495   */\n  dup5\n    /* \"#utility.yul\":1486:1507   */\n  and\n    /* \"#utility.yul\":1477:1507   */\n  swap4\n  pop\n    /* \"#utility.yul\":1550:1554   */\n  dup1\n    /* \"#utility.yul\":1540:1548   */\n  dup7\n    /* \"#utility.yul\":1536:1555   */\n  and\n    /* \"#utility.yul\":1529:1534   */\n  dup5\n    /* \"#utility.yul\":1526:1556   */\n  or\n    /* \"#utility.yul\":1516:1556   */\n  swap3\n  pop\n    /* \"#utility.yul\":1245:1562   */\n  pop\n  pop\n    /* \"#utility.yul\":1169:1562   */\n  swap4\n  swap3\n  pop\n  pop\n  pop\n  jump\t// out\n    /* \"#utility.yul\":1568:1645   */\ntag_76:\n    /* \"#utility.yul\":1605:1612   */\n  0x00\n    /* \"#utility.yul\":1634:1639   */\n  dup2\n    /* \"#utility.yul\":1623:1639   */\n  swap1\n  pop\n    /* \"#utility.yul\":1568:1645   */\n  swap2\n  swap1\n  pop\n  jump\t// out\n    /* \"#utility.yul\":1651:1711   */\ntag_77:\n    /* \"#utility.yul\":1679:1682   */\n  0x00\n    /* \"#utility.yul\":1700:1705   */\n  dup2\n    /* \"#utility.yul\":1693:1705   */\n  swap1\n  pop\n    /* \"#utility.yul\":1651:1711   */\n  swap2\n  swap1\n  pop\n  jump\t// out\n    /* \"#utility.yul\":1717:1859   */\ntag_78:\n    /* \"#utility.yul\":1767:1776   */\n  0x00\n    /* \"#utility.yul\":1800:1853   */\n  tag_119\n    /* \"#utility.yul\":1818:1852   */\n  tag_120\n    /* \"#utility.yul\":1827:1851   */\n  tag_121\n    /* \"#utility.yul\":1845:1850   */\n  dup5\n    /* \"#utility.yul\":1827:1851   */\n  tag_76\n  jump\t// in\ntag_121:\n    /* \"#utility.yul\":1818:1852   */\n  tag_77\n  jump\t// in\ntag_120:\n    /* \"#utility.yul\":1800:1853   */\n  tag_76\n  jump\t// in\ntag_119:\n    /* \"#utility.yul\":1787:1853   */\n  swap1\n  pop\n    /* \"#utility.yul\":1717:1859   */\n  swap2\n  swap1\n  pop\n  jump\t// out\n    /* \"#utility.yul\":1865:1940   */\ntag_79:\n    /* \"#utility.yul\":1908:1911   */\n  0x00\n    /* \"#utility.yul\":1929:1934   */\n  dup2\n    /* \"#utility.yul\":1922:1934   */\n  swap1\n  pop\n    /* \"#utility.yul\":1865:1940   */\n  swap2\n  swap1\n  pop\n  jump\t// out\n    /* \"#utility.yul\":1946:2215   */\ntag_80:\n    /* \"#utility.yul\":2056:2095   */\n  tag_124\n    /* \"#utility.yul\":2087:2094   */\n  dup4\n    /* \"#utility.yul\":2056:2095   */\n  tag_78\n  jump\t// in\ntag_124:\n    /* \"#utility.yul\":2117:2208   */\n  tag_125\n    /* \"#utility.yul\":2166:2207   */\n  tag_126\n    /* \"#utility.yul\":2190:2206   */\n  dup3\n    /* \"#utility.yul\":2166:2207   */\n  tag_79\n  jump\t// in\ntag_126:\n    /* \"#utility.yul\":2158:2164   */\n  dup5\n    /* \"#utility.yul\":2151:2155   */\n  dup5\n    /* \"#utility.yul\":2145:2156   */\n  sload\n    /* \"#utility.yul\":2117:2208   */\n  tag_75\n  jump\t// in\ntag_125:\n    /* \"#utility.yul\":2111:2115   */\n  dup3\n    /* \"#utility.yul\":2104:2209   */\n  sstore\n    /* \"#utility.yul\":2022:2215   */\n  pop\n    /* \"#utility.yul\":1946:2215   */\n  pop\n  pop\n  pop\n  jump\t// out\n    /* \"#utility.yul\":2221:2294   */\ntag_81:\n    /* \"#utility.yul\":2266:2269   */\n  0x00\n    /* \"#utility.yul\":2221:2294   */\n  swap1\n  jump\t// out\n    /* \"#utility.yul\":2300:2489   */\ntag_82:\n    /* \"#utility.yul\":2377:2409   */\n  tag_129\n  tag_81\n  jump\t// in\ntag_129:\n    /* \"#utility.yul\":2418:2483   */\n  tag_130\n    /* \"#utility.yul\":2476:2482   */\n  dup2\n    /* \"#utility.yul\":2468:2474   */\n  dup5\n    /* \"#utility.yul\":2462:2466   */\n  dup5\n    /* \"#utility.yul\":2418:2483   */\n  tag_80\n  jump\t// in\ntag_130:\n    /* \"#utility.yul\":2353:2489   */\n  pop\n    /* \"#utility.yul\":2300:2489   */\n  pop\n  pop\n  jump\t// out\n    /* \"#utility.yul\":2495:2681   */\ntag_83:\n    /* \"#utility.yul\":2555:2675   */\ntag_132:\n    /* \"#utility.yul\":2572:2575   */\n  dup2\n    /* \"#utility.yul\":2565:2570   */\n  dup2\n    /* \"#utility.yul\":2562:2576   */\n  lt\n    /* \"#utility.yul\":2555:2675   */\n  iszero\n  tag_134\n  jumpi\n    /* \"#utility.yul\":2626:2665   */\n  tag_135\n    /* \"#utility.yul\":2663:2664   */\n  0x00\n    /* \"#utility.yul\":2656:2661   */\n  dup3\n    /* \"#utility.yul\":2626:2665   */\n  tag_82\n  jump\t// in\ntag_135:\n    /* \"#utility.yul\":2599:2600   */\n  0x01\n    /* \"#utility.yul\":2592:2597   */\n  dup2\n    /* \"#utility.yul\":2588:2601   */\n  add\n    /* \"#utility.yul\":2579:2601   */\n  swap1\n  pop\n    /* \"#utility.yul\":2555:2675   */\n  jump(tag_132)\ntag_134:\n    /* \"#utility.yul\":2495:2681   */\n  pop\n  pop\n  jump\t// out\n    /* \"#utility.yul\":2687:3230   */\ntag_84:\n    /* \"#utility.yul\":2788:2790   */\n  0x1f\n    /* \"#utility.yul\":2783:2786   */\n  dup3\n    /* \"#utility.yul\":2780:2791   */\n  gt\n    /* \"#utility.yul\":2777:3223   */\n  iszero\n  tag_137\n  jumpi\n    /* \"#utility.yul\":2822:2860   */\n  tag_138\n    /* \"#utility.yul\":2854:2859   */\n  dup2\n    /* \"#utility.yul\":2822:2860   */\n  tag_72\n  jump\t// in\ntag_138:\n    /* \"#utility.yul\":2906:2935   */\n  tag_139\n    /* \"#utility.yul\":2924:2934   */\n  dup5\n    /* \"#utility.yul\":2906:2935   */\n  tag_73\n  jump\t// in\ntag_139:\n    /* \"#utility.yul\":2896:2904   */\n  dup2\n    /* \"#utility.yul\":2892:2936   */\n  add\n    /* \"#utility.yul\":3089:3091   */\n  0x20\n    /* \"#utility.yul\":3077:3087   */\n  dup6\n    /* \"#utility.yul\":3074:3092   */\n  lt\n    /* \"#utility.yul\":3071:3120   */\n  iszero\n  tag_140\n  jumpi\n    /* \"#utility.yul\":3110:3118   */\n  dup2\n    /* \"#utility.yul\":3095:3118   */\n  swap1\n  pop\n    /* \"#utility.yul\":3071:3120   */\ntag_140:\n    /* \"#utility.yul\":3133:3213   */\n  tag_141\n    /* \"#utility.yul\":3189:3211   */\n  tag_142\n    /* \"#utility.yul\":3207:3210   */\n  dup6\n    /* \"#utility.yul\":3189:3211   */\n  tag_73\n  jump\t// in\ntag_142:\n    /* \"#utility.yul\":3179:3187   */\n  dup4\n    /* \"#utility.yul\":3175:3212   */\n  add\n    /* \"#utility.yul\":3162:3173   */\n  dup3\n    /* \"#utility.yul\":3133:3213   */\n  tag_83\n  jump\t// in\ntag_141:\n    /* \"#utility.yul\":2792:3223   */\n  pop\n  pop\n    /* \"#utility.yul\":2777:3223   */\ntag_137:\n    /* \"#utility.yul\":2687:3230   */\n  pop\n  pop\n  pop\n  jump\t// out\n    /* \"#utility.yul\":3236:3353   */\ntag_85:\n    /* \"#utility.yul\":3290:3298   */\n  0x00\n    /* \"#utility.yul\":3340:3345   */\n  dup3\n    /* \"#utility.yul\":3334:3338   */\n  dup3\n    /* \"#utility.yul\":3330:3346   */\n  shr\n    /* \"#utility.yul\":3309:3346   */\n  swap1\n  pop\n    /* \"#utility.yul\":3236:3353   */\n  swap3\n  swap2\n  pop\n  pop\n  jump\t// out\n    /* \"#utility.yul\":3359:3528   */\ntag_86:\n    /* \"#utility.yul\":3403:3409   */\n  0x00\n    /* \"#utility.yul\":3436:3487   */\n  tag_145\n    /* \"#utility.yul\":3484:3485   */\n  0x00\n    /* \"#utility.yul\":3480:3486   */\n  not\n    /* \"#utility.yul\":3472:3477   */\n  dup5\n    /* \"#utility.yul\":3469:3470   */\n  0x08\n    /* \"#utility.yul\":3465:3478   */\n  mul\n    /* \"#utility.yul\":3436:3487   */\n  tag_85\n  jump\t// in\ntag_145:\n    /* \"#utility.yul\":3432:3488   */\n  not\n    /* \"#utility.yul\":3517:3521   */\n  dup1\n    /* \"#utility.yul\":3511:3515   */\n  dup4\n    /* \"#utility.yul\":3507:3522   */\n  and\n    /* \"#utility.yul\":3497:3522   */\n  swap2\n  pop\n    /* \"#utility.yul\":3410:3528   */\n  pop\n    /* \"#utility.yul\":3359:3528   */\n  swap3\n  swap2\n  pop\n  pop\n  jump\t// out\n    /* \"#utility.yul\":3533:3828   */\ntag_87:\n    /* \"#utility.yul\":3609:3613   */\n  0x00\n    /* \"#utility.yul\":3755:3784   */\n  tag_147\n    /* \"#utility.yul\":3780:3783   */\n  dup4\n    /* \"#utility.yul\":3774:3778   */\n  dup4\n    /* \"#utility.yul\":3755:3784   */\n  tag_86\n  jump\t// in\ntag_147:\n    /* \"#utility.yul\":3747:3784   */\n  swap2\n  pop\n    /* \"#utility.yul\":3817:3820   */\n  dup3\n    /* \"#utility.yul\":3814:3815   */\n  0x02\n    /* \"#utility.yul\":3810:3821   */\n  mul\n    /* \"#utility.yul\":3804:3808   */\n  dup3\n    /* \"#utility.yul\":3801:3822   */\n  or\n    /* \"#utility.yul\":3793:3822   */\n  swap1\n  pop\n    /* \"#utility.yul\":3533:3828   */\n  swap3\n  swap2\n  pop\n  pop\n  jump\t// out\n    /* \"#utility.yul\":3833:5228   */\ntag_7:\n    /* \"#utility.yul\":3950:3987   */\n  tag_149\n    /* \"#utility.yul\":3983:3986   */\n  dup3\n    /* \"#utility.yul\":3950:3987   */\n  tag_68\n  jump\t// in\ntag_149:\n    /* \"#utility.yul\":4052:4070   */\n  0xffffffffffffffff\n    /* \"#utility.yul\":4044:4050   */\n  dup2\n    /* \"#utility.yul\":4041:4071   */\n  gt\n    /* \"#utility.yul\":4038:4094   */\n  iszero\n  tag_150\n  jumpi\n    /* \"#utility.yul\":4074:4092   */\n  tag_151\n  tag_69\n  jump\t// in\ntag_151:\n    /* \"#utility.yul\":4038:4094   */\ntag_150:\n    /* \"#utility.yul\":4118:4156   */\n  tag_152\n    /* \"#utility.yul\":4150:4154   */\n  dup3\n    /* \"#utility.yul\":4144:4155   */\n  sload\n    /* \"#utility.yul\":4118:4156   */\n  tag_71\n  jump\t// in\ntag_152:\n    /* \"#utility.yul\":4203:4270   */\n  tag_153\n    /* \"#utility.yul\":4263:4269   */\n  dup3\n    /* \"#utility.yul\":4255:4261   */\n  dup3\n    /* \"#utility.yul\":4249:4253   */\n  dup6\n    /* \"#utility.yul\":4203:4270   */\n  tag_84\n  jump\t// in\ntag_153:\n    /* \"#utility.yul\":4297:4298   */\n  0x00\n    /* \"#utility.yul\":4321:4325   */\n  0x20\n    /* \"#utility.yul\":4308:4325   */\n  swap1\n  pop\n    /* \"#utility.yul\":4353:4355   */\n  0x1f\n    /* \"#utility.yul\":4345:4351   */\n  dup4\n    /* \"#utility.yul\":4342:4356   */\n  gt\n    /* \"#utility.yul\":4370:4371   */\n  0x01\n    /* \"#utility.yul\":4365:4983   */\n  dup2\n  eq\n  tag_155\n  jumpi\n    /* \"#utility.yul\":5027:5028   */\n  0x00\n    /* \"#utility.yul\":5044:5050   */\n  dup5\n    /* \"#utility.yul\":5041:5118   */\n  iszero\n  tag_156\n  jumpi\n    /* \"#utility.yul\":5093:5102   */\n  dup3\n    /* \"#utility.yul\":5088:5091   */\n  dup8\n    /* \"#utility.yul\":5084:5103   */\n  add\n    /* \"#utility.yul\":5078:5104   */\n  mload\n    /* \"#utility.yul\":5069:5104   */\n  swap1\n  pop\n    /* \"#utility.yul\":5041:5118   */\ntag_156:\n    /* \"#utility.yul\":5144:5211   */\n  tag_157\n    /* \"#utility.yul\":5204:5210   */\n  dup6\n    /* \"#utility.yul\":5197:5202   */\n  dup3\n    /* \"#utility.yul\":5144:5211   */\n  tag_87\n  jump\t// in\ntag_157:\n    /* \"#utility.yul\":5138:5142   */\n  dup7\n    /* \"#utility.yul\":5131:5212   */\n  sstore\n    /* \"#utility.yul\":5000:5222   */\n  pop\n    /* \"#utility.yul\":4335:5222   */\n  jump(tag_154)\n    /* \"#utility.yul\":4365:4983   */\ntag_155:\n    /* \"#utility.yul\":4417:4421   */\n  0x1f\n    /* \"#utility.yul\":4413:4422   */\n  not\n    /* \"#utility.yul\":4405:4411   */\n  dup5\n    /* \"#utility.yul\":4401:4423   */\n  and\n    /* \"#utility.yul\":4451:4488   */\n  tag_158\n    /* \"#utility.yul\":4483:4487   */\n  dup7\n    /* \"#utility.yul\":4451:4488   */\n  tag_72\n  jump\t// in\ntag_158:\n    /* \"#utility.yul\":4510:4511   */\n  0x00\n    /* \"#utility.yul\":4524:4732   */\ntag_159:\n    /* \"#utility.yul\":4538:4545   */\n  dup3\n    /* \"#utility.yul\":4535:4536   */\n  dup2\n    /* \"#utility.yul\":4532:4546   */\n  lt\n    /* \"#utility.yul\":4524:4732   */\n  iszero\n  tag_161\n  jumpi\n    /* \"#utility.yul\":4617:4626   */\n  dup5\n    /* \"#utility.yul\":4612:4615   */\n  dup10\n    /* \"#utility.yul\":4608:4627   */\n  add\n    /* \"#utility.yul\":4602:4628   */\n  mload\n    /* \"#utility.yul\":4594:4600   */\n  dup3\n    /* \"#utility.yul\":4587:4629   */\n  sstore\n    /* \"#utility.yul\":4668:4669   */\n  0x01\n    /* \"#utility.yul\":4660:4666   */\n  dup3\n    /* \"#utility.yul\":4656:4670   */\n  add\n    /* \"#utility.yul\":4646:4670   */\n  swap2\n  pop\n    /* \"#utility.yul\":4715:4717   */\n  0x20\n    /* \"#utility.yul\":4704:4713   */\n  dup6\n    /* \"#utility.yul\":4700:4718   */\n  add\n    /* \"#utility.yul\":4687:4718   */\n  swap5\n  pop\n    /* \"#utility.yul\":4561:4565   */\n  0x20\n    /* \"#utility.yul\":4558:4559   */\n  dup2\n    /* \"#utility.yul\":4554:4566   */\n  add\n    /* \"#utility.yul\":4549:4566   */\n  swap1\n  pop\n    /* \"#utility.yul\":4524:4732   */\n  jump(tag_159)\ntag_161:\n    /* \"#utility.yul\":4760:4766   */\n  dup7\n    /* \"#utility.yul\":4751:4758   */\n  dup4\n    /* \"#utility.yul\":4748:4767   */\n  lt\n    /* \"#utility.yul\":4745:4924   */\n  iszero\n  tag_162\n  jumpi\n    /* \"#utility.yul\":4818:4827   */\n  dup5\n    /* \"#utility.yul\":4813:4816   */\n  dup10\n    /* \"#utility.yul\":4809:4828   */\n  add\n    /* \"#utility.yul\":4803:4829   */\n  mload\n    /* \"#utility.yul\":4861:4909   */\n  tag_163\n    /* \"#utility.yul\":4903:4907   */\n  0x1f\n    /* \"#utility.yul\":4895:4901   */\n  dup10\n    /* \"#utility.yul\":4891:4908   */\n  and\n    /* \"#utility.yul\":4880:4889   */\n  dup3\n    /* \"#utility.yul\":4861:4909   */\n  tag_86\n  jump\t// in\ntag_163:\n    /* \"#utility.yul\":4853:4859   */\n  dup4\n    /* \"#utility.yul\":4846:4910   */\n  sstore\n    /* \"#utility.yul\":4768:4924   */\n  pop\n    /* \"#utility.yul\":4745:4924   */\ntag_162:\n    /* \"#utility.yul\":4970:4971   */\n  0x01\n    /* \"#utility.yul\":4966:4967   */\n  0x02\n    /* \"#utility.yul\":4958:4964   */\n  dup9\n    /* \"#utility.yul\":4954:4968   */\n  mul\n    /* \"#utility.yul\":4950:4972   */\n  add\n    /* \"#utility.yul\":4944:4948   */\n  dup9\n    /* \"#utility.yul\":4937:4973   */\n  sstore\n    /* \"#utility.yul\":4372:4983   */\n  pop\n  pop\n  pop\n    /* \"#utility.yul\":4335:5222   */\ntag_154:\n  pop\n    /* \"#utility.yul\":3925:5228   */\n  pop\n  pop\n  pop\n    /* \"#utility.yul\":3833:5228   */\n  pop\n  pop\n  jump\t// out\n    /* \"#utility.yul\":5234:5414   */\ntag_88:\n    /* \"#utility.yul\":5282:5359   */\n  0x4e487b7100000000000000000000000000000000000000000000000000000000\n    /* \"#utility.yul\":5279:5280   */\n  0x00\n    /* \"#utility.yul\":5272:5360   */\n  mstore\n    /* \"#utility.yul\":5379:5383   */\n  0x11\n    /* \"#utility.yul\":5376:5377   */\n  0x04\n    /* \"#utility.yul\":5369:5384   */\n  mstore\n    /* \"#utility.yul\":5403:5407   */\n  0x24\n    /* \"#utility.yul\":5400:5401   */\n  0x00\n    /* \"#utility.yul\":5393:5408   */\n  revert\n    /* \"#utility.yul\":5420:5522   */\ntag_89:\n    /* \"#utility.yul\":5462:5470   */\n  0x00\n    /* \"#utility.yul\":5509:5514   */\n  dup2\n    /* \"#utility.yul\":5506:5507   */\n  0x01\n    /* \"#utility.yul\":5502:5515   */\n  shr\n    /* \"#utility.yul\":5481:5515   */\n  swap1\n  pop\n    /* \"#utility.yul\":5420:5522   */\n  swap2\n  swap1\n  pop\n  jump\t// out\n    /* \"#utility.yul\":5528:6376   */\ntag_90:\n    /* \"#utility.yul\":5589:5594   */\n  0x00\n    /* \"#utility.yul\":5596:5600   */\n  dup1\n    /* \"#utility.yul\":5620:5626   */\n  dup3\n    /* \"#utility.yul\":5611:5626   */\n  swap2\n  pop\n    /* \"#utility.yul\":5644:5649   */\n  dup4\n    /* \"#utility.yul\":5635:5649   */\n  swap1\n  pop\n    /* \"#utility.yul\":5658:6370   */\ntag_167:\n    /* \"#utility.yul\":5679:5680   */\n  0x01\n    /* \"#utility.yul\":5669:5677   */\n  dup6\n    /* \"#utility.yul\":5666:5681   */\n  gt\n    /* \"#utility.yul\":5658:6370   */\n  iszero\n  tag_169\n  jumpi\n    /* \"#utility.yul\":5774:5778   */\n  dup1\n    /* \"#utility.yul\":5769:5772   */\n  dup7\n    /* \"#utility.yul\":5765:5779   */\n  div\n    /* \"#utility.yul\":5759:5763   */\n  dup2\n    /* \"#utility.yul\":5756:5780   */\n  gt\n    /* \"#utility.yul\":5753:5803   */\n  iszero\n  tag_170\n  jumpi\n    /* \"#utility.yul\":5783:5801   */\n  tag_171\n  tag_88\n  jump\t// in\ntag_171:\n    /* \"#utility.yul\":5753:5803   */\ntag_170:\n    /* \"#utility.yul\":5833:5834   */\n  0x01\n    /* \"#utility.yul\":5823:5831   */\n  dup6\n    /* \"#utility.yul\":5819:5835   */\n  and\n    /* \"#utility.yul\":5816:6267   */\n  iszero\n  tag_172\n  jumpi\n    /* \"#utility.yul\":6248:6252   */\n  dup1\n    /* \"#utility.yul\":6241:6246   */\n  dup3\n    /* \"#utility.yul\":6237:6253   */\n  mul\n    /* \"#utility.yul\":6228:6253   */\n  swap2\n  pop\n    /* \"#utility.yul\":5816:6267   */\ntag_172:\n    /* \"#utility.yul\":6298:6302   */\n  dup1\n    /* \"#utility.yul\":6292:6296   */\n  dup2\n    /* \"#utility.yul\":6288:6303   */\n  mul\n    /* \"#utility.yul\":6280:6303   */\n  swap1\n  pop\n    /* \"#utility.yul\":6328:6360   */\n  tag_173\n    /* \"#utility.yul\":6351:6359   */\n  dup6\n    /* \"#utility.yul\":6328:6360   */\n  tag_89\n  jump\t// in\ntag_173:\n    /* \"#utility.yul\":6316:6360   */\n  swap5\n  pop\n    /* \"#utility.yul\":5658:6370   */\n  jump(tag_167)\ntag_169:\n    /* \"#utility.yul\":5528:6376   */\n  swap5\n  pop\n  swap5\n  swap3\n  pop\n  pop\n  pop\n  jump\t// out\n    /* \"#utility.yul\":6382:7455   */\ntag_91:\n    /* \"#utility.yul\":6436:6441   */\n  0x00\n    /* \"#utility.yul\":6627:6635   */\n  dup3\n    /* \"#utility.yul\":6617:6657   */\n  tag_175\n  jumpi\n    /* \"#utility.yul\":6648:6649   */\n  0x01\n    /* \"#utility.yul\":6639:6649   */\n  swap1\n  pop\n    /* \"#utility.yul\":6650:6655   */\n  jump(tag_174)\n    /* \"#utility.yul\":6617:6657   */\ntag_175:\n    /* \"#utility.yul\":6676:6680   */\n  dup2\n    /* \"#utility.yul\":6666:6702   */\n  tag_176\n  jumpi\n    /* \"#utility.yul\":6693:6694   */\n  0x00\n    /* \"#utility.yul\":6684:6694   */\n  swap1\n  pop\n    /* \"#utility.yul\":6695:6700   */\n  jump(tag_174)\n    /* \"#utility.yul\":6666:6702   */\ntag_176:\n    /* \"#utility.yul\":6762:6766   */\n  dup2\n    /* \"#utility.yul\":6810:6811   */\n  0x01\n    /* \"#utility.yul\":6805:6832   */\n  dup2\n  eq\n  tag_178\n  jumpi\n    /* \"#utility.yul\":6846:6847   */\n  0x02\n    /* \"#utility.yul\":6841:7032   */\n  dup2\n  eq\n  tag_179\n  jumpi\n    /* \"#utility.yul\":6755:7032   */\n  jump(tag_177)\n    /* \"#utility.yul\":6805:6832   */\ntag_178:\n    /* \"#utility.yul\":6823:6824   */\n  0x01\n    /* \"#utility.yul\":6814:6824   */\n  swap2\n  pop\n    /* \"#utility.yul\":6825:6830   */\n  pop\n  jump(tag_174)\n    /* \"#utility.yul\":6841:7032   */\ntag_179:\n    /* \"#utility.yul\":6886:6889   */\n  0xff\n    /* \"#utility.yul\":6876:6884   */\n  dup5\n    /* \"#utility.yul\":6873:6890   */\n  gt\n    /* \"#utility.yul\":6870:6913   */\n  iszero\n  tag_180\n  jumpi\n    /* \"#utility.yul\":6893:6911   */\n  tag_181\n  tag_88\n  jump\t// in\ntag_181:\n    /* \"#utility.yul\":6870:6913   */\ntag_180:\n    /* \"#utility.yul\":6942:6950   */\n  dup4\n    /* \"#utility.yul\":6939:6940   */\n  0x02\n    /* \"#utility.yul\":6935:6951   */\n  exp\n    /* \"#utility.yul\":6926:6951   */\n  swap2\n  pop\n    /* \"#utility.yul\":6977:6980   */\n  dup5\n    /* \"#utility.yul\":6970:6975   */\n  dup3\n    /* \"#utility.yul\":6967:6981   */\n  gt\n    /* \"#utility.yul\":6964:7004   */\n  iszero\n  tag_182\n  jumpi\n    /* \"#utility.yul\":6984:7002   */\n  tag_183\n  tag_88\n  jump\t// in\ntag_183:\n    /* \"#utility.yul\":6964:7004   */\ntag_182:\n    /* \"#utility.yul\":7017:7022   */\n  pop\n  jump(tag_174)\n    /* \"#utility.yul\":6755:7032   */\ntag_177:\n  pop\n    /* \"#utility.yul\":7141:7143   */\n  0x20\n    /* \"#utility.yul\":7131:7139   */\n  dup4\n    /* \"#utility.yul\":7128:7144   */\n  lt\n    /* \"#utility.yul\":7122:7125   */\n  0x0133\n    /* \"#utility.yul\":7116:7120   */\n  dup4\n    /* \"#utility.yul\":7113:7126   */\n  lt\n    /* \"#utility.yul\":7109:7145   */\n  and\n    /* \"#utility.yul\":7091:7093   */\n  0x4e\n    /* \"#utility.yul\":7081:7089   */\n  dup5\n    /* \"#utility.yul\":7078:7094   */\n  lt\n    /* \"#utility.yul\":7073:7075   */\n  0x0b\n    /* \"#utility.yul\":7067:7071   */\n  dup5\n    /* \"#utility.yul\":7064:7076   */\n  lt\n    /* \"#utility.yul\":7060:7095   */\n  and\n    /* \"#utility.yul\":7044:7155   */\n  or\n    /* \"#utility.yul\":7041:7287   */\n  iszero\n  tag_184\n  jumpi\n    /* \"#utility.yul\":7197:7205   */\n  dup3\n    /* \"#utility.yul\":7191:7195   */\n  dup3\n    /* \"#utility.yul\":7187:7206   */\n  exp\n    /* \"#utility.yul\":7178:7206   */\n  swap1\n  pop\n    /* \"#utility.yul\":7232:7235   */\n  dup4\n    /* \"#utility.yul\":7225:7230   */\n  dup2\n    /* \"#utility.yul\":7222:7236   */\n  gt\n    /* \"#utility.yul\":7219:7259   */\n  iszero\n  tag_185\n  jumpi\n    /* \"#utility.yul\":7239:7257   */\n  tag_186\n  tag_88\n  jump\t// in\ntag_186:\n    /* \"#utility.yul\":7219:7259   */\ntag_185:\n    /* \"#utility.yul\":7272:7277   */\n  jump(tag_174)\n    /* \"#utility.yul\":7041:7287   */\ntag_184:\n    /* \"#utility.yul\":7312:7354   */\n  tag_187\n    /* \"#utility.yul\":7350:7353   */\n  dup5\n    /* \"#utility.yul\":7340:7348   */\n  dup5\n    /* \"#utility.yul\":7334:7338   */\n  dup5\n    /* \"#utility.yul\":7331:7332   */\n  0x01\n    /* \"#utility.yul\":7312:7354   */\n  tag_90\n  jump\t// in\ntag_187:\n    /* \"#utility.yul\":7297:7354   */\n  swap3\n  pop\n  swap1\n  pop\n    /* \"#utility.yul\":7386:7390   */\n  dup2\n    /* \"#utility.yul\":7381:7384   */\n  dup5\n    /* \"#utility.yul\":7377:7391   */\n  div\n    /* \"#utility.yul\":7370:7375   */\n  dup2\n    /* \"#utility.yul\":7367:7392   */\n  gt\n    /* \"#utility.yul\":7364:7415   */\n  iszero\n  tag_188\n  jumpi\n    /* \"#utility.yul\":7395:7413   */\n  tag_189\n  tag_88\n  jump\t// in\ntag_189:\n    /* \"#utility.yul\":7364:7415   */\ntag_188:\n    /* \"#utility.yul\":7444:7448   */\n  dup2\n    /* \"#utility.yul\":7437:7442   */\n  dup2\n    /* \"#utility.yul\":7433:7449   */\n  mul\n    /* \"#utility.yul\":7424:7449   */\n  swap1\n  pop\n    /* \"#utility.yul\":6382:7455   */\ntag_174:\n  swap4\n  swap3\n  pop\n  pop\n  pop\n  jump\t// out\n    /* \"#utility.yul\":7461:7746   */\ntag_17:\n    /* \"#utility.yul\":7521:7526   */\n  0x00\n    /* \"#utility.yul\":7545:7568   */\n  tag_191\n    /* \"#utility.yul\":7563:7567   */\n  dup3\n    /* \"#utility.yul\":7545:7568   */\n  tag_76\n  jump\t// in\ntag_191:\n    /* \"#utility.yul\":7537:7568   */\n  swap2\n  pop\n    /* \"#utility.yul\":7589:7616   */\n  tag_192\n    /* \"#utility.yul\":7607:7615   */\n  dup4\n    /* \"#utility.yul\":7589:7616   */\n  tag_76\n  jump\t// in\ntag_192:\n    /* \"#utility.yul\":7577:7616   */\n  swap3\n  pop\n    /* \"#utility.yul\":7635:7739   */\n  tag_193\n    /* \"#utility.yul\":7672:7738   */\n  0xffffffffffffffffffffffffffffffffffffffffffffffffffffffffffffffff\n    /* \"#utility.yul\":7662:7670   */\n  dup5\n    /* \"#utility.yul\":7656:7660   */\n  dup5\n    /* \"#utility.yul\":7635:7739   */\n  tag_91\n  jump\t// in\ntag_193:\n    /* \"#utility.yul\":7626:7739   */\n  swap1\n  pop\n    /* \"#utility.yul\":7461:7746   */\n  swap3\n  swap2\n  pop\n  pop\n  jump\t// out\n    /* \"#utility.yul\":7752:8100   */\ntag_19:\n    /* \"#utility.yul\":7792:7799   */\n  0x00\n    /* \"#utility.yul\":7815:7835   */\n  tag_195\n    /* \"#utility.yul\":7833:7834   */\n  dup3\n    /* \"#utility.yul\":7815:7835   */\n  tag_76\n  jump\t// in\ntag_195:\n    /* \"#utility.yul\":7810:7835   */\n  swap2\n  pop\n    /* \"#utility.yul\":7849:7869   */\n  tag_196\n    /* \"#utility.yul\":7867:7868   */\n  dup4\n    /* \"#utility.yul\":7849:7869   */\n  tag_76\n  jump\t// in\ntag_196:\n    /* \"#utility.yul\":7844:7869   */\n  swap3\n  pop\n    /* \"#utility.yul\":8037:8038   */\n  dup2\n    /* \"#utility.yul\":7969:8035   */\n  0xffffffffffffffffffffffffffffffffffffffffffffffffffffffffffffffff\n    /* \"#utility.yul\":7965:8039   */\n  div\n    /* \"#utility.yul\":7962:7963   */\n  dup4\n    /* \"#utility.yul\":7959:8040   */\n  gt\n    /* \"#utility.yul\":7954:7955   */\n  dup3\n    /* \"#utility.yul\":7947:7956   */\n  iszero\n    /* \"#utility.yul\":7940:7957   */\n  iszero\n    /* \"#utility.yul\":7936:8041   */\n  and\n    /* \"#utility.yul\":7933:8064   */\n  iszero\n  tag_197\n  jumpi\n    /* \"#utility.yul\":8044:8062   */\n  tag_198\n  tag_88\n  jump\t// in\ntag_198:\n    /* \"#utility.yul\":7933:8064   */\ntag_197:\n    /* \"#utility.yul\":8092:8093   */\n  dup3\n    /* \"#utility.yul\":8089:8090   */\n  dup3\n    /* \"#utility.yul\":8085:8094   */\n  mul\n    /* \"#utility.yul\":8074:8094   */\n  swap1\n  pop\n    /* \"#utility.yul\":7752:8100   */\n  swap3\n  swap2\n  pop\n  pop\n  jump\t// out\n    /* \"#utility.yul\":8106:8275   */\ntag_92:\n    /* \"#utility.yul\":8190:8201   */\n  0x00\n    /* \"#utility.yul\":8224:8230   */\n  dup3\n    /* \"#utility.yul\":8219:8222   */\n  dup3\n    /* \"#utility.yul\":8212:8231   */\n  mstore\n    /* \"#utility.yul\":8264:8268   */\n  0x20\n    /* \"#utility.yul\":8259:8262   */\n  dup3\n    /* \"#utility.yul\":8255:8269   */\n  add\n    /* \"#utility.yul\":8240:8269   */\n  swap1\n  pop\n    /* \"#utility.yul\":8106:8275   */\n  swap3\n  swap2\n  pop\n  pop\n  jump\t// out\n    /* \"#utility.yul\":8281:8453   */\ntag_93:\n    /* \"#utility.yul\":8421:8445   */\n  0x4d6178696d756d20737570706c79207265616368656400000000000000000000\n    /* \"#utility.yul\":8417:8418   */\n  0x00\n    /* \"#utility.yul\":8409:8415   */\n  dup3\n    /* \"#utility.yul\":8405:8419   */\n  add\n    /* \"#utility.yul\":8398:8446   */\n  mstore\n    /* \"#utility.yul\":8281:8453   */\n  pop\n  jump\t// out\n    /* \"#utility.yul\":8459:8825   */\ntag_94:\n    /* \"#utility.yul\":8601:8604   */\n  0x00\n    /* \"#utility.yul\":8622:8689   */\n  tag_202\n    /* \"#utility.yul\":8686:8688   */\n  0x16\n    /* \"#utility.yul\":8681:8684   */\n  dup4\n    /* \"#utility.yul\":8622:8689   */\n  tag_92\n  jump\t// in\ntag_202:\n    /* \"#utility.yul\":8615:8689   */\n  swap2\n  pop\n    /* \"#utility.yul\":8698:8791   */\n  tag_203\n    /* \"#utility.yul\":8787:8790   */\n  dup3\n    /* \"#utility.yul\":8698:8791   */\n  tag_93\n  jump\t// in\ntag_203:\n    /* \"#utility.yul\":8816:8818   */\n  0x20\n    /* \"#utility.yul\":8811:8814   */\n  dup3\n    /* \"#utility.yul\":8807:8819   */\n  add\n    /* \"#utility.yul\":8800:8819   */\n  swap1\n  pop\n    /* \"#utility.yul\":8459:8825   */\n  swap2\n  swap1\n  pop\n  jump\t// out\n    /* \"#utility.yul\":8831:9250   */\ntag_36:\n    /* \"#utility.yul\":8997:9001   */\n  0x00\n    /* \"#utility.yul\":9035:9037   */\n  0x20\n    /* \"#utility.yul\":9024:9033   */\n  dup3\n    /* \"#utility.yul\":9020:9038   */\n  add\n    /* \"#utility.yul\":9012:9038   */\n  swap1\n  pop\n    /* \"#utility.yul\":9084:9093   */\n  dup2\n    /* \"#utility.yul\":9078:9082   */\n  dup2\n    /* \"#utility.yul\":9074:9094   */\n  sub\n    /* \"#utility.yul\":9070:9071   */\n  0x00\n    /* \"#utility.yul\":9059:9068   */\n  dup4\n    /* \"#utility.yul\":9055:9072   */\n  add\n    /* \"#utility.yul\":9048:9095   */\n  mstore\n    /* \"#utility.yul\":9112:9243   */\n  tag_205\n    /* \"#utility.yul\":9238:9242   */\n  dup2\n    /* \"#utility.yul\":9112:9243   */\n  tag_94\n  jump\t// in\ntag_205:\n    /* \"#utility.yul\":9104:9243   */\n  swap1\n  pop\n    /* \"#utility.yul\":8831:9250   */\n  swap2\n  swap1\n  pop\n  jump\t// out\n    /* \"#utility.yul\":9256:9438   */\ntag_95:\n    /* \"#utility.yul\":9396:9430   */\n  0x4f776e61626c653a2063616c6c6572206973206e6f7420746865206f776e6572\n    /* \"#utility.yul\":9392:9393   */\n  0x00\n    /* \"#utility.yul\":9384:9390   */\n  dup3\n    /* \"#utility.yul\":9380:9394   */\n  add\n    /* \"#utility.yul\":9373:9431   */\n  mstore\n    /* \"#utility.yul\":9256:9438   */\n  pop\n  jump\t// out\n    /* \"#utility.yul\":9444:9810   */\ntag_96:\n    /* \"#utility.yul\":9586:9589   */\n  0x00\n    /* \"#utility.yul\":9607:9674   */\n  tag_208\n    /* \"#utility.yul\":9671:9673   */\n  0x20\n    /* \"#utility.yul\":9666:9669   */\n  dup4\n    /* \"#utility.yul\":9607:9674   */\n  tag_92\n  jump\t// in\ntag_208:\n    /* \"#utility.yul\":9600:9674   */\n  swap2\n  pop\n    /* \"#utility.yul\":9683:9776   */\n  tag_209\n    /* \"#utility.yul\":9772:9775   */\n  dup3\n    /* \"#utility.yul\":9683:9776   */\n  tag_95\n  jump\t// in\ntag_209:\n    /* \"#utility.yul\":9801:9803   */\n  0x20\n    /* \"#utility.yul\":9796:9799   */\n  dup3\n    /* \"#utility.yul\":9792:9804   */\n  add\n    /* \"#utility.yul\":9785:9804   */\n  swap1\n  pop\n    /* \"#utility.yul\":9444:9810   */\n  swap2\n  swap1\n  pop\n  jump\t// out\n    /* \"#utility.yul\":9816:10235   */\ntag_45:\n    /* \"#utility.yul\":9982:9986   */\n  0x00\n    /* \"#utility.yul\":10020:10022   */\n  0x20\n    /* \"#utility.yul\":10009:10018   */\n  dup3\n    /* \"#utility.yul\":10005:10023   */\n  add\n    /* \"#utility.yul\":9997:10023   */\n  swap1\n  pop\n    /* \"#utility.yul\":10069:10078   */\n  dup2\n    /* \"#utility.yul\":10063:10067   */\n  dup2\n    /* \"#utility.yul\":10059:10079   */\n  sub\n    /* \"#utility.yul\":10055:10056   */\n  0x00\n    /* \"#utility.yul\":10044:10053   */\n  dup4\n    /* \"#utility.yul\":10040:10057   */\n  add\n    /* \"#utility.yul\":10033:10080   */\n  mstore\n    /* \"#utility.yul\":10097:10228   */\n  tag_211\n    /* \"#utility.yul\":10223:10227   */\n  dup2\n    /* \"#utility.yul\":10097:10228   */\n  tag_96\n  jump\t// in\ntag_211:\n    /* \"#utility.yul\":10089:10228   */\n  swap1\n  pop\n    /* \"#utility.yul\":9816:10235   */\n  swap2\n  swap1\n  pop\n  jump\t// out\n    /* \"#utility.yul\":10241:10432   */\ntag_49:\n    /* \"#utility.yul\":10281:10284   */\n  0x00\n    /* \"#utility.yul\":10300:10320   */\n  tag_213\n    /* \"#utility.yul\":10318:10319   */\n  dup3\n    /* \"#utility.yul\":10300:10320   */\n  tag_76\n  jump\t// in\ntag_213:\n    /* \"#utility.yul\":10295:10320   */\n  swap2\n  pop\n    /* \"#utility.yul\":10334:10354   */\n  tag_214\n    /* \"#utility.yul\":10352:10353   */\n  dup4\n    /* \"#utility.yul\":10334:10354   */\n  tag_76\n  jump\t// in\ntag_214:\n    /* \"#utility.yul\":10329:10354   */\n  swap3\n  pop\n    /* \"#utility.yul\":10377:10378   */\n  dup3\n    /* \"#utility.yul\":10374:10375   */\n  dup3\n    /* \"#utility.yul\":10370:10379   */\n  add\n    /* \"#utility.yul\":10363:10379   */\n  swap1\n  pop\n    /* \"#utility.yul\":10398:10401   */\n  dup1\n    /* \"#utility.yul\":10395:10396   */\n  dup3\n    /* \"#utility.yul\":10392:10402   */\n  gt\n    /* \"#utility.yul\":10389:10425   */\n  iszero\n  tag_215\n  jumpi\n    /* \"#utility.yul\":10405:10423   */\n  tag_216\n  tag_88\n  jump\t// in\ntag_216:\n    /* \"#utility.yul\":10389:10425   */\ntag_215:\n    /* \"#utility.yul\":10241:10432   */\n  swap3\n  swap2\n  pop\n  pop\n  jump\t// out\n    /* \"#utility.yul\":10438:10615   */\ntag_97:\n    /* \"#utility.yul\":10578:10607   */\n  0x536166654d6174683a206164646974696f6e206f766572666c6f770000000000\n    /* \"#utility.yul\":10574:10575   */\n  0x00\n    /* \"#utility.yul\":10566:10572   */\n  dup3\n    /* \"#utility.yul\":10562:10576   */\n  add\n    /* \"#utility.yul\":10555:10608   */\n  mstore\n    /* \"#utility.yul\":10438:10615   */\n  pop\n  jump\t// out\n    /* \"#utility.yul\":10621:10987   */\ntag_98:\n    /* \"#utility.yul\":10763:10766   */\n  0x00\n    /* \"#utility.yul\":10784:10851   */\n  tag_219\n    /* \"#utility.yul\":10848:10850   */\n  0x1b\n    /* \"#utility.yul\":10843:10846   */\n  dup4\n    /* \"#utility.yul\":10784:10851   */\n  tag_92\n  jump\t// in\ntag_219:\n    /* \"#utility.yul\":10777:10851   */\n  swap2\n  pop\n    /* \"#utility.yul\":10860:10953   */\n  tag_220\n    /* \"#utility.yul\":10949:10952   */\n  dup3\n    /* \"#utility.yul\":10860:10953   */\n  tag_97\n  jump\t// in\ntag_220:\n    /* \"#utility.yul\":10978:10980   */\n  0x20\n    /* \"#utility.yul\":10973:10976   */\n  dup3\n    /* \"#utility.yul\":10969:10981   */\n  add\n    /* \"#utility.yul\":10962:10981   */\n  swap1\n  pop\n    /* \"#utility.yul\":10621:10987   */\n  swap2\n  swap1\n  pop\n  jump\t// out\n    /* \"#utility.yul\":10993:11412   */\ntag_52:\n    /* \"#utility.yul\":11159:11163   */\n  0x00\n    /* \"#utility.yul\":11197:11199   */\n  0x20\n    /* \"#utility.yul\":11186:11195   */\n  dup3\n    /* \"#utility.yul\":11182:11200   */\n  add\n    /* \"#utility.yul\":11174:11200   */\n  swap1\n  pop\n    /* \"#utility.yul\":11246:11255   */\n  dup2\n    /* \"#utility.yul\":11240:11244   */\n  dup2\n    /* \"#utility.yul\":11236:11256   */\n  sub\n    /* \"#utility.yul\":11232:11233   */\n  0x00\n    /* \"#utility.yul\":11221:11230   */\n  dup4\n    /* \"#utility.yul\":11217:11234   */\n  add\n    /* \"#utility.yul\":11210:11257   */\n  mstore\n    /* \"#utility.yul\":11274:11405   */\n  tag_222\n    /* \"#utility.yul\":11400:11404   */\n  dup2\n    /* \"#utility.yul\":11274:11405   */\n  tag_98\n  jump\t// in\ntag_222:\n    /* \"#utility.yul\":11266:11405   */\n  swap1\n  pop\n    /* \"#utility.yul\":10993:11412   */\n  swap2\n  swap1\n  pop\n  jump\t// out\n    /* \"#utility.yul\":11418:11599   */\ntag_99:\n    /* \"#utility.yul\":11558:11591   */\n  0x45524332303a206d696e7420746f20746865207a65726f206164647265737300\n    /* \"#utility.yul\":11554:11555   */\n  0x00\n    /* \"#utility.yul\":11546:11552   */\n  dup3\n    /* \"#utility.yul\":11542:11556   */\n  add\n    /* \"#utility.yul\":11535:11592   */\n  mstore\n    /* \"#utility.yul\":11418:11599   */\n  pop\n  jump\t// out\n    /* \"#utility.yul\":11605:11971   */\ntag_100:\n    /* \"#utility.yul\":11747:11750   */\n  0x00\n    /* \"#utility.yul\":11768:11835   */\n  tag_225\n    /* \"#utility.yul\":11832:11834   */\n  0x1f\n    /* \"#utility.yul\":11827:11830   */\n  dup4\n    /* \"#utility.yul\":11768:11835   */\n  tag_92\n  jump\t// in\ntag_225:\n    /* \"#utility.yul\":11761:11835   */\n  swap2\n  pop\n    /* \"#utility.yul\":11844:11937   */\n  tag_226\n    /* \"#utility.yul\":11933:11936   */\n  dup3\n    /* \"#utility.yul\":11844:11937   */\n  tag_99\n  jump\t// in\ntag_226:\n    /* \"#utility.yul\":11962:11964   */\n  0x20\n    /* \"#utility.yul\":11957:11960   */\n  dup3\n    /* \"#utility.yul\":11953:11965   */\n  add\n    /* \"#utility.yul\":11946:11965   */\n  swap1\n  pop\n    /* \"#utility.yul\":11605:11971   */\n  swap2\n  swap1\n  pop\n  jump\t// out\n    /* \"#utility.yul\":11977:12396   */\ntag_56:\n    /* \"#utility.yul\":12143:12147   */\n  0x00\n    /* \"#utility.yul\":12181:12183   */\n  0x20\n    /* \"#utility.yul\":12170:12179   */\n  dup3\n    /* \"#utility.yul\":12166:12184   */\n  add\n    /* \"#utility.yul\":12158:12184   */\n  swap1\n  pop\n    /* \"#utility.yul\":12230:12239   */\n  dup2\n    /* \"#utility.yul\":12224:12228   */\n  dup2\n    /* \"#utility.yul\":12220:12240   */\n  sub\n    /* \"#utility.yul\":12216:12217   */\n  0x00\n    /* \"#utility.yul\":12205:12214   */\n  dup4\n    /* \"#utility.yul\":12201:12218   */\n  add\n    /* \"#utility.yul\":12194:12241   */\n  mstore\n    /* \"#utility.yul\":12258:12389   */\n  tag_228\n    /* \"#utility.yul\":12384:12388   */\n  dup2\n    /* \"#utility.yul\":12258:12389   */\n  tag_100\n  jump\t// in\ntag_228:\n    /* \"#utility.yul\":12250:12389   */\n  swap1\n  pop\n    /* \"#utility.yul\":11977:12396   */\n  swap2\n  swap1\n  pop\n  jump\t// out\n    /* \"#utility.yul\":12402:12520   */\ntag_101:\n    /* \"#utility.yul\":12489:12513   */\n  tag_230\n    /* \"#utility.yul\":12507:12512   */\n  dup2\n    /* \"#utility.yul\":12489:12513   */\n  tag_76\n  jump\t// in\ntag_230:\n    /* \"#utility.yul\":12484:12487   */\n  dup3\n    /* \"#utility.yul\":12477:12514   */\n  mstore\n    /* \"#utility.yul\":12402:12520   */\n  pop\n  pop\n  jump\t// out\n    /* \"#utility.yul\":12526:12748   */\ntag_62:\n    /* \"#utility.yul\":12619:12623   */\n  0x00\n    /* \"#utility.yul\":12657:12659   */\n  0x20\n    /* \"#utility.yul\":12646:12655   */\n  dup3\n    /* \"#utility.yul\":12642:12660   */\n  add\n    /* \"#utility.yul\":12634:12660   */\n  swap1\n  pop\n    /* \"#utility.yul\":12670:12741   */\n  tag_232\n    /* \"#utility.yul\":12738:12739   */\n  0x00\n    /* \"#utility.yul\":12727:12736   */\n  dup4\n    /* \"#utility.yul\":12723:12740   */\n  add\n    /* \"#utility.yul\":12714:12720   */\n  dup5\n    /* \"#utility.yul\":12670:12741   */\n  tag_101\n  jump\t// in\ntag_232:\n    /* \"#utility.yul\":12526:12748   */\n  swap3\n  swap2\n  pop\n  pop\n  jump\t// out\n    /* \"NFT-Contracts/contracts/AREVEAToken.sol\":399:2013  contract AREVEAToken is ERC20,Ownable {... */\ntag_21:\n  dataSize(sub_0)\n  dup1\n  dataOffset(sub_0)\n  0x00\n  codecopy\n  0x00\n  return\nstop\n\nsub_0: assembly {\n        /* \"NFT-Contracts/contracts/AREVEAToken.sol\":399:2013  contract AREVEAToken is ERC20,Ownable {... */\n      mstore(0x40, 0x80)\n      callvalue\n      dup1\n      iszero\n      tag_1\n      jumpi\n      0x00\n      dup1\n      revert\n    tag_1:\n      pop\n      jumpi(tag_2, lt(calldatasize, 0x04))\n      shr(0xe0, calldataload(0x00))\n      dup1\n      0x42966c68\n      gt\n      tag_23\n      jumpi\n      dup1\n      0x95d89b41\n      gt\n      tag_24\n      jumpi\n      dup1\n      0x95d89b41\n      eq\n      tag_18\n      jumpi\n      dup1\n      0xa457c2d7\n      eq\n      tag_19\n      jumpi\n      dup1\n      0xa9059cbb\n      eq\n      tag_20\n      jumpi\n      dup1\n      0xdd62ed3e\n      eq\n      tag_21\n      jumpi\n      dup1\n      0xf2fde38b\n      eq\n      tag_22\n      jumpi\n      jump(tag_2)\n    tag_24:\n      dup1\n      0x42966c68\n      eq\n      tag_13\n      jumpi\n      dup1\n      0x70a08231\n      eq\n      tag_14\n      jumpi\n      dup1\n      0x715018a6\n      eq\n      tag_15\n      jumpi\n      dup1\n      0x79cc6790\n      eq\n      tag_16\n      jumpi\n      dup1\n      0x8da5cb5b\n      eq\n      tag_17\n      jumpi\n      jump(tag_2)\n    tag_23:\n      dup1\n      0x2e0f2625\n      gt\n      tag_25\n      jumpi\n      dup1\n      0x2e0f2625\n      eq\n      tag_8\n      jumpi\n      dup1\n      0x2ff2e9dc\n      eq\n      tag_9\n      jumpi\n      dup1\n      0x313ce567\n      eq\n      tag_10\n      jumpi\n      dup1\n      0x39509351\n      eq\n      tag_11\n      jumpi\n      dup1\n      0x40c10f19\n      eq\n      tag_12\n      jumpi\n      jump(tag_2)\n    tag_25:\n      dup1\n      0x06fdde03\n      eq\n      tag_3\n      jumpi\n      dup1\n      0x095ea7b3\n      eq\n      tag_4\n      jumpi\n      dup1\n      0x18160ddd\n      eq\n      tag_5\n      jumpi\n      dup1\n      0x1b62d7af\n      eq\n      tag_6\n      jumpi\n      dup1\n      0x23b872dd\n      eq\n      tag_7\n      jumpi\n    tag_2:\n      0x00\n      dup1\n      revert\n        /* \"NFT-Contracts/contracts/ERC20.sol\":2207:2307  function name() public view virtual override returns (string memory) {... */\n    tag_3:\n      tag_26\n      tag_27\n      jump\t// in\n    tag_26:\n      mload(0x40)\n      tag_28\n      swap2\n      swap1\n      tag_29\n      jump\t// in\n    tag_28:\n      mload(0x40)\n      dup1\n      swap2\n      sub\n      swap1\n      return\n        /* \"NFT-Contracts/contracts/ERC20.sol\":4558:4759  function approve(address spender, uint256 amount) public virtual override returns (bool) {... */\n    tag_4:\n      tag_30\n      0x04\n      dup1\n      calldatasize\n      sub\n      dup2\n      add\n      swap1\n      tag_31\n      swap2\n      swap1\n      tag_32\n      jump\t// in\n    tag_31:\n      tag_33\n      jump\t// in\n    tag_30:\n      mload(0x40)\n      tag_34\n      swap2\n      swap1\n      tag_35\n      jump\t// in\n    tag_34:\n      mload(0x40)\n      dup1\n      swap2\n      sub\n      swap1\n      return\n        /* \"NFT-Contracts/contracts/ERC20.sol\":3327:3435  function totalSupply() public view virtual override returns (uint256) {... */\n    tag_5:\n      tag_36\n      tag_37\n      jump\t// in\n    tag_36:\n      mload(0x40)\n      tag_38\n      swap2\n      swap1\n      tag_39\n      jump\t// in\n    tag_38:\n      mload(0x40)\n      dup1\n      swap2\n      sub\n      swap1\n      return\n        /* \"NFT-Contracts/contracts/AREVEAToken.sol\":610:692  uint256 public constant Maximum_SUPPLY = 1000000000000 * (10 ** uint256(DECIMALS)) */\n    tag_6:\n      tag_40\n      tag_41\n      jump\t// in\n    tag_40:\n      mload(0x40)\n      tag_42\n      swap2\n      swap1\n      tag_39\n      jump\t// in\n    tag_42:\n      mload(0x40)\n      dup1\n      swap2\n      sub\n      swap1\n      return\n        /* \"NFT-Contracts/contracts/ERC20.sol\":5339:5634  function transferFrom(... */\n    tag_7:\n      tag_43\n      0x04\n      dup1\n      calldatasize\n      sub\n      dup2\n      add\n      swap1\n      tag_44\n      swap2\n      swap1\n      tag_45\n      jump\t// in\n    tag_44:\n      tag_46\n      jump\t// in\n    tag_43:\n      mload(0x40)\n      tag_47\n      swap2\n      swap1\n      tag_35\n      jump\t// in\n    tag_47:\n      mload(0x40)\n      dup1\n      swap2\n      sub\n      swap1\n      return\n        /* \"NFT-Contracts/contracts/AREVEAToken.sol\":481:516  uint8 public constant DECIMALS = 18 */\n    tag_8:\n      tag_48\n      tag_49\n      jump\t// in\n    tag_48:\n      mload(0x40)\n      tag_50\n      swap2\n      swap1\n      tag_51\n      jump\t// in\n    tag_50:\n      mload(0x40)\n      dup1\n      swap2\n      sub\n      swap1\n      return\n        /* \"NFT-Contracts/contracts/AREVEAToken.sol\":525:601  uint256 public constant INITIAL_SUPPLY = 1000000 * (10 ** uint256(DECIMALS)) */\n    tag_9:\n      tag_52\n      tag_53\n      jump\t// in\n    tag_52:\n      mload(0x40)\n      tag_54\n      swap2\n      swap1\n      tag_39\n      jump\t// in\n    tag_54:\n      mload(0x40)\n      dup1\n      swap2\n      sub\n      swap1\n      return\n        /* \"NFT-Contracts/contracts/ERC20.sol\":3169:3262  function decimals() public view virtual override returns (uint8) {... */\n    tag_10:\n      tag_55\n      tag_56\n      jump\t// in\n    tag_55:\n      mload(0x40)\n      tag_57\n      swap2\n      swap1\n      tag_51\n      jump\t// in\n    tag_57:\n      mload(0x40)\n      dup1\n      swap2\n      sub\n      swap1\n      return\n        /* \"NFT-Contracts/contracts/ERC20.sol\":6043:6281  function increaseAllowance(address spender, uint256 addedValue) public virtual returns (bool) {... */\n    tag_11:\n      tag_58\n      0x04\n      dup1\n      calldatasize\n      sub\n      dup2\n      add\n      swap1\n      tag_59\n      swap2\n      swap1\n      tag_32\n      jump\t// in\n    tag_59:\n      tag_60\n      jump\t// in\n    tag_58:\n      mload(0x40)\n      tag_61\n      swap2\n      swap1\n      tag_35\n      jump\t// in\n    tag_61:\n      mload(0x40)\n      dup1\n      swap2\n      sub\n      swap1\n      return\n        /* \"NFT-Contracts/contracts/AREVEAToken.sol\":1155:1353  function mint(address account, uint256 amount) public  onlyOwner  {... */\n    tag_12:\n      tag_62\n      0x04\n      dup1\n      calldatasize\n      sub\n      dup2\n      add\n      swap1\n      tag_63\n      swap2\n      swap1\n      tag_32\n      jump\t// in\n    tag_63:\n      tag_64\n      jump\t// in\n    tag_62:\n      stop\n        /* \"NFT-Contracts/contracts/AREVEAToken.sol\":1461:1544  function burn(uint256 amount) public {... */\n    tag_13:\n      tag_65\n      0x04\n      dup1\n      calldatasize\n      sub\n      dup2\n      add\n      swap1\n      tag_66\n      swap2\n      swap1\n      tag_67\n      jump\t// in\n    tag_66:\n      tag_68\n      jump\t// in\n    tag_65:\n      stop\n        /* \"NFT-Contracts/contracts/ERC20.sol\":3498:3625  function balanceOf(address account) public view virtual override returns (uint256) {... */\n    tag_14:\n      tag_69\n      0x04\n      dup1\n      calldatasize\n      sub\n      dup2\n      add\n      swap1\n      tag_70\n      swap2\n      swap1\n      tag_71\n      jump\t// in\n    tag_70:\n      tag_72\n      jump\t// in\n    tag_69:\n      mload(0x40)\n      tag_73\n      swap2\n      swap1\n      tag_39\n      jump\t// in\n    tag_73:\n      mload(0x40)\n      dup1\n      swap2\n      sub\n      swap1\n      return\n        /* \"NFT-Contracts/contracts/External/Ownable.sol\":1884:1987  function renounceOwnership() public virtual onlyOwner {... */\n    tag_15:\n      tag_74\n      tag_75\n      jump\t// in\n    tag_74:\n      stop\n        /* \"NFT-Contracts/contracts/AREVEAToken.sol\":1831:2001  function burnFrom(address account, uint256 amount) public virtual {... */\n    tag_16:\n      tag_76\n      0x04\n      dup1\n      calldatasize\n      sub\n      dup2\n      add\n      swap1\n      tag_77\n      swap2\n      swap1\n      tag_32\n      jump\t// in\n    tag_77:\n      tag_78\n      jump\t// in\n    tag_76:\n      stop\n        /* \"NFT-Contracts/contracts/External/Ownable.sol\":1236:1323  function owner() public view virtual returns (address) {... */\n    tag_17:\n      tag_79\n      tag_80\n      jump\t// in\n    tag_79:\n      mload(0x40)\n      tag_81\n      swap2\n      swap1\n      tag_82\n      jump\t// in\n    tag_81:\n      mload(0x40)\n      dup1\n      swap2\n      sub\n      swap1\n      return\n        /* \"NFT-Contracts/contracts/ERC20.sol\":2426:2530  function symbol() public view virtual override returns (string memory) {... */\n    tag_18:\n      tag_83\n      tag_84\n      jump\t// in\n    tag_83:\n      mload(0x40)\n      tag_85\n      swap2\n      swap1\n      tag_29\n      jump\t// in\n    tag_85:\n      mload(0x40)\n      dup1\n      swap2\n      sub\n      swap1\n      return\n        /* \"NFT-Contracts/contracts/ERC20.sol\":6784:7220  function decreaseAllowance(address spender, uint256 subtractedValue) public virtual returns (bool) {... */\n    tag_19:\n      tag_86\n      0x04\n      dup1\n      calldatasize\n      sub\n      dup2\n      add\n      swap1\n      tag_87\n      swap2\n      swap1\n      tag_32\n      jump\t// in\n    tag_87:\n      tag_88\n      jump\t// in\n    tag_86:\n      mload(0x40)\n      tag_89\n      swap2\n      swap1\n      tag_35\n      jump\t// in\n    tag_89:\n      mload(0x40)\n      dup1\n      swap2\n      sub\n      swap1\n      return\n        /* \"NFT-Contracts/contracts/ERC20.sol\":3831:4024  function transfer(address to, uint256 amount) public virtual override returns (bool) {... */\n    tag_20:\n      tag_90\n      0x04\n      dup1\n      calldatasize\n      sub\n      dup2\n      add\n      swap1\n      tag_91\n      swap2\n      swap1\n      tag_32\n      jump\t// in\n    tag_91:\n      tag_92\n      jump\t// in\n    tag_90:\n      mload(0x40)\n      tag_93\n      swap2\n      swap1\n      tag_35\n      jump\t// in\n    tag_93:\n      mload(0x40)\n      dup1\n      swap2\n      sub\n      swap1\n      return\n        /* \"NFT-Contracts/contracts/ERC20.sol\":4087:4238  function allowance(address owner, address spender) public view virtual override returns (uint256) {... */\n    tag_21:\n      tag_94\n      0x04\n      dup1\n      calldatasize\n      sub\n      dup2\n      add\n      swap1\n      tag_95\n      swap2\n      swap1\n      tag_96\n      jump\t// in\n    tag_95:\n      tag_97\n      jump\t// in\n    tag_94:\n      mload(0x40)\n      tag_98\n      swap2\n      swap1\n      tag_39\n      jump\t// in\n    tag_98:\n      mload(0x40)\n      dup1\n      swap2\n      sub\n      swap1\n      return\n        /* \"NFT-Contracts/contracts/External/Ownable.sol\":2142:2343  function transferOwnership(address newOwner) public virtual onlyOwner {... */\n    tag_22:\n      tag_99\n      0x04\n      dup1\n      calldatasize\n      sub\n      dup2\n      add\n      swap1\n      tag_100\n      swap2\n      swap1\n      tag_71\n      jump\t// in\n    tag_100:\n      tag_101\n      jump\t// in\n    tag_99:\n      stop\n        /* \"NFT-Contracts/contracts/ERC20.sol\":2207:2307  function name() public view virtual override returns (string memory) {... */\n    tag_27:\n        /* \"NFT-Contracts/contracts/ERC20.sol\":2261:2274  string memory */\n      0x60\n        /* \"NFT-Contracts/contracts/ERC20.sol\":2294:2299  _name */\n      0x03\n        /* \"NFT-Contracts/contracts/ERC20.sol\":2287:2299  return _name */\n      dup1\n      sload\n      tag_104\n      swap1\n      tag_105\n      jump\t// in\n    tag_104:\n      dup1\n      0x1f\n      add\n      0x20\n      dup1\n      swap2\n      div\n      mul\n      0x20\n      add\n      mload(0x40)\n      swap1\n      dup2\n      add\n      0x40\n      mstore\n      dup1\n      swap3\n      swap2\n      swap1\n      dup2\n      dup2\n      mstore\n      0x20\n      add\n      dup3\n      dup1\n      sload\n      tag_106\n      swap1\n      tag_105\n      jump\t// in\n    tag_106:\n      dup1\n      iszero\n      tag_107\n      jumpi\n      dup1\n      0x1f\n      lt\n      tag_108\n      jumpi\n      0x0100\n      dup1\n      dup4\n      sload\n      div\n      mul\n      dup4\n      mstore\n      swap2\n      0x20\n      add\n      swap2\n      jump(tag_107)\n    tag_108:\n      dup3\n      add\n      swap2\n      swap1\n      0x00\n      mstore\n      keccak256(0x00, 0x20)\n      swap1\n    tag_109:\n      dup2\n      sload\n      dup2\n      mstore\n      swap1\n      0x01\n      add\n      swap1\n      0x20\n      add\n      dup1\n      dup4\n      gt\n      tag_109\n      jumpi\n      dup3\n      swap1\n      sub\n      0x1f\n      and\n      dup3\n      add\n      swap2\n    tag_107:\n      pop\n      pop\n      pop\n      pop\n      pop\n      swap1\n      pop\n        /* \"NFT-Contracts/contracts/ERC20.sol\":2207:2307  function name() public view virtual override returns (string memory) {... */\n      swap1\n      jump\t// out\n        /* \"NFT-Contracts/contracts/ERC20.sol\":4558:4759  function approve(address spender, uint256 amount) public virtual override returns (bool) {... */\n    tag_33:\n        /* \"NFT-Contracts/contracts/ERC20.sol\":4641:4645  bool */\n      0x00\n        /* \"NFT-Contracts/contracts/ERC20.sol\":4658:4671  address owner */\n      dup1\n        /* \"NFT-Contracts/contracts/ERC20.sol\":4674:4686  _msgSender() */\n      tag_111\n        /* \"NFT-Contracts/contracts/ERC20.sol\":4674:4684  _msgSender */\n      tag_112\n        /* \"NFT-Contracts/contracts/ERC20.sol\":4674:4686  _msgSender() */\n      jump\t// in\n    tag_111:\n        /* \"NFT-Contracts/contracts/ERC20.sol\":4658:4686  address owner = _msgSender() */\n      swap1\n      pop\n        /* \"NFT-Contracts/contracts/ERC20.sol\":4697:4729  _approve(owner, spender, amount) */\n      tag_113\n        /* \"NFT-Contracts/contracts/ERC20.sol\":4706:4711  owner */\n      dup2\n        /* \"NFT-Contracts/contracts/ERC20.sol\":4713:4720  spender */\n      dup6\n        /* \"NFT-Contracts/contracts/ERC20.sol\":4722:4728  amount */\n      dup6\n        /* \"NFT-Contracts/contracts/ERC20.sol\":4697:4705  _approve */\n      tag_114\n        /* \"NFT-Contracts/contracts/ERC20.sol\":4697:4729  _approve(owner, spender, amount) */\n      jump\t// in\n    tag_113:\n        /* \"NFT-Contracts/contracts/ERC20.sol\":4747:4751  true */\n      0x01\n        /* \"NFT-Contracts/contracts/ERC20.sol\":4740:4751  return true */\n      swap2\n      pop\n      pop\n        /* \"NFT-Contracts/contracts/ERC20.sol\":4558:4759  function approve(address spender, uint256 amount) public virtual override returns (bool) {... */\n      swap3\n      swap2\n      pop\n      pop\n      jump\t// out\n        /* \"NFT-Contracts/contracts/ERC20.sol\":3327:3435  function totalSupply() public view virtual override returns (uint256) {... */\n    tag_37:\n        /* \"NFT-Contracts/contracts/ERC20.sol\":3388:3395  uint256 */\n      0x00\n        /* \"NFT-Contracts/contracts/ERC20.sol\":3415:3427  _totalSupply */\n      sload(0x02)\n        /* \"NFT-Contracts/contracts/ERC20.sol\":3408:3427  return _totalSupply */\n      swap1\n      pop\n        /* \"NFT-Contracts/contracts/ERC20.sol\":3327:3435  function totalSupply() public view virtual override returns (uint256) {... */\n      swap1\n      jump\t// out\n        /* \"NFT-Contracts/contracts/AREVEAToken.sol\":610:692  uint256 public constant Maximum_SUPPLY = 1000000000000 * (10 ** uint256(DECIMALS)) */\n    tag_41:\n        /* \"NFT-Contracts/contracts/AREVEAToken.sol\":514:516  18 */\n      0x12\n        /* \"NFT-Contracts/contracts/AREVEAToken.sol\":674:691  uint256(DECIMALS) */\n      0xff\n      and\n        /* \"NFT-Contracts/contracts/AREVEAToken.sol\":668:670  10 */\n      0x0a\n        /* \"NFT-Contracts/contracts/AREVEAToken.sol\":668:691  10 ** uint256(DECIMALS) */\n      tag_116\n      swap2\n      swap1\n      tag_117\n      jump\t// in\n    tag_116:\n        /* \"NFT-Contracts/contracts/AREVEAToken.sol\":651:664  1000000000000 */\n      0xe8d4a51000\n        /* \"NFT-Contracts/contracts/AREVEAToken.sol\":651:692  1000000000000 * (10 ** uint256(DECIMALS)) */\n      tag_118\n      swap2\n      swap1\n      tag_119\n      jump\t// in\n    tag_118:\n        /* \"NFT-Contracts/contracts/AREVEAToken.sol\":610:692  uint256 public constant Maximum_SUPPLY = 1000000000000 * (10 ** uint256(DECIMALS)) */\n      dup2\n      jump\t// out\n        /* \"NFT-Contracts/contracts/ERC20.sol\":5339:5634  function transferFrom(... */\n    tag_46:\n        /* \"NFT-Contracts/contracts/ERC20.sol\":5470:5474  bool */\n      0x00\n        /* \"NFT-Contracts/contracts/ERC20.sol\":5487:5502  address spender */\n      dup1\n        /* \"NFT-Contracts/contracts/ERC20.sol\":5505:5517  _msgSender() */\n      tag_121\n        /* \"NFT-Contracts/contracts/ERC20.sol\":5505:5515  _msgSender */\n      tag_112\n        /* \"NFT-Contracts/contracts/ERC20.sol\":5505:5517  _msgSender() */\n      jump\t// in\n    tag_121:\n        /* \"NFT-Contracts/contracts/ERC20.sol\":5487:5517  address spender = _msgSender() */\n      swap1\n      pop\n        /* \"NFT-Contracts/contracts/ERC20.sol\":5528:5566  _spendAllowance(from, spender, amount) */\n      tag_122\n        /* \"NFT-Contracts/contracts/ERC20.sol\":5544:5548  from */\n      dup6\n        /* \"NFT-Contracts/contracts/ERC20.sol\":5550:5557  spender */\n      dup3\n        /* \"NFT-Contracts/contracts/ERC20.sol\":5559:5565  amount */\n      dup6\n        /* \"NFT-Contracts/contracts/ERC20.sol\":5528:5543  _spendAllowance */\n      tag_123\n        /* \"NFT-Contracts/contracts/ERC20.sol\":5528:5566  _spendAllowance(from, spender, amount) */\n      jump\t// in\n    tag_122:\n        /* \"NFT-Contracts/contracts/ERC20.sol\":5577:5604  _transfer(from, to, amount) */\n      tag_124\n        /* \"NFT-Contracts/contracts/ERC20.sol\":5587:5591  from */\n      dup6\n        /* \"NFT-Contracts/contracts/ERC20.sol\":5593:5595  to */\n      dup6\n        /* \"NFT-Contracts/contracts/ERC20.sol\":5597:5603  amount */\n      dup6\n        /* \"NFT-Contracts/contracts/ERC20.sol\":5577:5586  _transfer */\n      tag_125\n        /* \"NFT-Contracts/contracts/ERC20.sol\":5577:5604  _transfer(from, to, amount) */\n      jump\t// in\n    tag_124:\n        /* \"NFT-Contracts/contracts/ERC20.sol\":5622:5626  true */\n      0x01\n        /* \"NFT-Contracts/contracts/ERC20.sol\":5615:5626  return true */\n      swap2\n      pop\n      pop\n        /* \"NFT-Contracts/contracts/ERC20.sol\":5339:5634  function transferFrom(... */\n      swap4\n      swap3\n      pop\n      pop\n      pop\n      jump\t// out\n        /* \"NFT-Contracts/contracts/AREVEAToken.sol\":481:516  uint8 public constant DECIMALS = 18 */\n    tag_49:\n        /* \"NFT-Contracts/contracts/AREVEAToken.sol\":514:516  18 */\n      0x12\n        /* \"NFT-Contracts/contracts/AREVEAToken.sol\":481:516  uint8 public constant DECIMALS = 18 */\n      dup2\n      jump\t// out\n        /* \"NFT-Contracts/contracts/AREVEAToken.sol\":525:601  uint256 public constant INITIAL_SUPPLY = 1000000 * (10 ** uint256(DECIMALS)) */\n    tag_53:\n        /* \"NFT-Contracts/contracts/AREVEAToken.sol\":514:516  18 */\n      0x12\n        /* \"NFT-Contracts/contracts/AREVEAToken.sol\":583:600  uint256(DECIMALS) */\n      0xff\n      and\n        /* \"NFT-Contracts/contracts/AREVEAToken.sol\":577:579  10 */\n      0x0a\n        /* \"NFT-Contracts/contracts/AREVEAToken.sol\":577:600  10 ** uint256(DECIMALS) */\n      tag_126\n      swap2\n      swap1\n      tag_117\n      jump\t// in\n    tag_126:\n        /* \"NFT-Contracts/contracts/AREVEAToken.sol\":566:573  1000000 */\n      0x0f4240\n        /* \"NFT-Contracts/contracts/AREVEAToken.sol\":566:601  1000000 * (10 ** uint256(DECIMALS)) */\n      tag_127\n      swap2\n      swap1\n      tag_119\n      jump\t// in\n    tag_127:\n        /* \"NFT-Contracts/contracts/AREVEAToken.sol\":525:601  uint256 public constant INITIAL_SUPPLY = 1000000 * (10 ** uint256(DECIMALS)) */\n      dup2\n      jump\t// out\n        /* \"NFT-Contracts/contracts/ERC20.sol\":3169:3262  function decimals() public view virtual override returns (uint8) {... */\n    tag_56:\n        /* \"NFT-Contracts/contracts/ERC20.sol\":3227:3232  uint8 */\n      0x00\n        /* \"NFT-Contracts/contracts/ERC20.sol\":3252:3254  18 */\n      0x12\n        /* \"NFT-Contracts/contracts/ERC20.sol\":3245:3254  return 18 */\n      swap1\n      pop\n        /* \"NFT-Contracts/contracts/ERC20.sol\":3169:3262  function decimals() public view virtual override returns (uint8) {... */\n      swap1\n      jump\t// out\n        /* \"NFT-Contracts/contracts/ERC20.sol\":6043:6281  function increaseAllowance(address spender, uint256 addedValue) public virtual returns (bool) {... */\n    tag_60:\n        /* \"NFT-Contracts/contracts/ERC20.sol\":6131:6135  bool */\n      0x00\n        /* \"NFT-Contracts/contracts/ERC20.sol\":6148:6161  address owner */\n      dup1\n        /* \"NFT-Contracts/contracts/ERC20.sol\":6164:6176  _msgSender() */\n      tag_130\n        /* \"NFT-Contracts/contracts/ERC20.sol\":6164:6174  _msgSender */\n      tag_112\n        /* \"NFT-Contracts/contracts/ERC20.sol\":6164:6176  _msgSender() */\n      jump\t// in\n    tag_130:\n        /* \"NFT-Contracts/contracts/ERC20.sol\":6148:6176  address owner = _msgSender() */\n      swap1\n      pop\n        /* \"NFT-Contracts/contracts/ERC20.sol\":6187:6251  _approve(owner, spender, allowance(owner, spender) + addedValue) */\n      tag_131\n        /* \"NFT-Contracts/contracts/ERC20.sol\":6196:6201  owner */\n      dup2\n        /* \"NFT-Contracts/contracts/ERC20.sol\":6203:6210  spender */\n      dup6\n        /* \"NFT-Contracts/contracts/ERC20.sol\":6240:6250  addedValue */\n      dup6\n        /* \"NFT-Contracts/contracts/ERC20.sol\":6212:6237  allowance(owner, spender) */\n      tag_132\n        /* \"NFT-Contracts/contracts/ERC20.sol\":6222:6227  owner */\n      dup6\n        /* \"NFT-Contracts/contracts/ERC20.sol\":6229:6236  spender */\n      dup10\n        /* \"NFT-Contracts/contracts/ERC20.sol\":6212:6221  allowance */\n      tag_97\n        /* \"NFT-Contracts/contracts/ERC20.sol\":6212:6237  allowance(owner, spender) */\n      jump\t// in\n    tag_132:\n        /* \"NFT-Contracts/contracts/ERC20.sol\":6212:6250  allowance(owner, spender) + addedValue */\n      tag_133\n      swap2\n      swap1\n      tag_134\n      jump\t// in\n    tag_133:\n        /* \"NFT-Contracts/contracts/ERC20.sol\":6187:6195  _approve */\n      tag_114\n        /* \"NFT-Contracts/contracts/ERC20.sol\":6187:6251  _approve(owner, spender, allowance(owner, spender) + addedValue) */\n      jump\t// in\n    tag_131:\n        /* \"NFT-Contracts/contracts/ERC20.sol\":6269:6273  true */\n      0x01\n        /* \"NFT-Contracts/contracts/ERC20.sol\":6262:6273  return true */\n      swap2\n      pop\n      pop\n        /* \"NFT-Contracts/contracts/ERC20.sol\":6043:6281  function increaseAllowance(address spender, uint256 addedValue) public virtual returns (bool) {... */\n      swap3\n      swap2\n      pop\n      pop\n      jump\t// out\n        /* \"NFT-Contracts/contracts/AREVEAToken.sol\":1155:1353  function mint(address account, uint256 amount) public  onlyOwner  {... */\n    tag_64:\n        /* \"NFT-Contracts/contracts/External/Ownable.sol\":1122:1135  _checkOwner() */\n      tag_136\n        /* \"NFT-Contracts/contracts/External/Ownable.sol\":1122:1133  _checkOwner */\n      tag_137\n        /* \"NFT-Contracts/contracts/External/Ownable.sol\":1122:1135  _checkOwner() */\n      jump\t// in\n    tag_136:\n        /* \"NFT-Contracts/contracts/AREVEAToken.sol\":514:516  18 */\n      0x12\n        /* \"NFT-Contracts/contracts/AREVEAToken.sol\":674:691  uint256(DECIMALS) */\n      0xff\n      and\n        /* \"NFT-Contracts/contracts/AREVEAToken.sol\":668:670  10 */\n      0x0a\n        /* \"NFT-Contracts/contracts/AREVEAToken.sol\":668:691  10 ** uint256(DECIMALS) */\n      tag_139\n      swap2\n      swap1\n      tag_117\n      jump\t// in\n    tag_139:\n        /* \"NFT-Contracts/contracts/AREVEAToken.sol\":651:664  1000000000000 */\n      0xe8d4a51000\n        /* \"NFT-Contracts/contracts/AREVEAToken.sol\":651:692  1000000000000 * (10 ** uint256(DECIMALS)) */\n      tag_140\n      swap2\n      swap1\n      tag_119\n      jump\t// in\n    tag_140:\n        /* \"NFT-Contracts/contracts/AREVEAToken.sol\":1241:1266  totalSupply().add(amount) */\n      tag_141\n        /* \"NFT-Contracts/contracts/AREVEAToken.sol\":1259:1265  amount */\n      dup3\n        /* \"NFT-Contracts/contracts/AREVEAToken.sol\":1241:1254  totalSupply() */\n      tag_142\n        /* \"NFT-Contracts/contracts/AREVEAToken.sol\":1241:1252  totalSupply */\n      tag_37\n        /* \"NFT-Contracts/contracts/AREVEAToken.sol\":1241:1254  totalSupply() */\n      jump\t// in\n    tag_142:\n        /* \"NFT-Contracts/contracts/AREVEAToken.sol\":1241:1258  totalSupply().add */\n      tag_102\n      swap1\n        /* \"NFT-Contracts/contracts/AREVEAToken.sol\":1241:1266  totalSupply().add(amount) */\n      swap2\n      swap1\n      0xffffffff\n      and\n      jump\t// in\n    tag_141:\n        /* \"NFT-Contracts/contracts/AREVEAToken.sol\":1241:1284  totalSupply().add(amount) <= Maximum_SUPPLY */\n      gt\n      iszero\n        /* \"NFT-Contracts/contracts/AREVEAToken.sol\":1233:1310  require(totalSupply().add(amount) <= Maximum_SUPPLY,\"Maximum supply reached\") */\n      tag_143\n      jumpi\n      mload(0x40)\n      0x08c379a000000000000000000000000000000000000000000000000000000000\n      dup2\n      mstore\n      0x04\n      add\n      tag_144\n      swap1\n      tag_145\n      jump\t// in\n    tag_144:\n      mload(0x40)\n      dup1\n      swap2\n      sub\n      swap1\n      revert\n    tag_143:\n        /* \"NFT-Contracts/contracts/AREVEAToken.sol\":1322:1343  _mint(account,amount) */\n      tag_146\n        /* \"NFT-Contracts/contracts/AREVEAToken.sol\":1328:1335  account */\n      dup3\n        /* \"NFT-Contracts/contracts/AREVEAToken.sol\":1336:1342  amount */\n      dup3\n        /* \"NFT-Contracts/contracts/AREVEAToken.sol\":1322:1327  _mint */\n      tag_147\n        /* \"NFT-Contracts/contracts/AREVEAToken.sol\":1322:1343  _mint(account,amount) */\n      jump\t// in\n    tag_146:\n        /* \"NFT-Contracts/contracts/AREVEAToken.sol\":1155:1353  function mint(address account, uint256 amount) public  onlyOwner  {... */\n      pop\n      pop\n      jump\t// out\n        /* \"NFT-Contracts/contracts/AREVEAToken.sol\":1461:1544  function burn(uint256 amount) public {... */\n    tag_68:\n        /* \"NFT-Contracts/contracts/AREVEAToken.sol\":1509:1534  _burn(msg.sender, amount) */\n      tag_149\n        /* \"NFT-Contracts/contracts/AREVEAToken.sol\":1515:1525  msg.sender */\n      caller\n        /* \"NFT-Contracts/contracts/AREVEAToken.sol\":1527:1533  amount */\n      dup3\n        /* \"NFT-Contracts/contracts/AREVEAToken.sol\":1509:1514  _burn */\n      tag_150\n        /* \"NFT-Contracts/contracts/AREVEAToken.sol\":1509:1534  _burn(msg.sender, amount) */\n      jump\t// in\n    tag_149:\n        /* \"NFT-Contracts/contracts/AREVEAToken.sol\":1461:1544  function burn(uint256 amount) public {... */\n      pop\n      jump\t// out\n        /* \"NFT-Contracts/contracts/ERC20.sol\":3498:3625  function balanceOf(address account) public view virtual override returns (uint256) {... */\n    tag_72:\n        /* \"NFT-Contracts/contracts/ERC20.sol\":3572:3579  uint256 */\n      0x00\n        /* \"NFT-Contracts/contracts/ERC20.sol\":3599:3608  _balances */\n      dup1\n        /* \"NFT-Contracts/contracts/ERC20.sol\":3599:3617  _balances[account] */\n      0x00\n        /* \"NFT-Contracts/contracts/ERC20.sol\":3609:3616  account */\n      dup4\n        /* \"NFT-Contracts/contracts/ERC20.sol\":3599:3617  _balances[account] */\n      0xffffffffffffffffffffffffffffffffffffffff\n      and\n      0xffffffffffffffffffffffffffffffffffffffff\n      and\n      dup2\n      mstore\n      0x20\n      add\n      swap1\n      dup2\n      mstore\n      0x20\n      add\n      0x00\n      keccak256\n      sload\n        /* \"NFT-Contracts/contracts/ERC20.sol\":3592:3617  return _balances[account] */\n      swap1\n      pop\n        /* \"NFT-Contracts/contracts/ERC20.sol\":3498:3625  function balanceOf(address account) public view virtual override returns (uint256) {... */\n      swap2\n      swap1\n      pop\n      jump\t// out\n        /* \"NFT-Contracts/contracts/External/Ownable.sol\":1884:1987  function renounceOwnership() public virtual onlyOwner {... */\n    tag_75:\n        /* \"NFT-Contracts/contracts/External/Ownable.sol\":1122:1135  _checkOwner() */\n      tag_153\n        /* \"NFT-Contracts/contracts/External/Ownable.sol\":1122:1133  _checkOwner */\n      tag_137\n        /* \"NFT-Contracts/contracts/External/Ownable.sol\":1122:1135  _checkOwner() */\n      jump\t// in\n    tag_153:\n        /* \"NFT-Contracts/contracts/External/Ownable.sol\":1949:1979  _transferOwnership(address(0)) */\n      tag_155\n        /* \"NFT-Contracts/contracts/External/Ownable.sol\":1976:1977  0 */\n      0x00\n        /* \"NFT-Contracts/contracts/External/Ownable.sol\":1949:1967  _transferOwnership */\n      tag_156\n        /* \"NFT-Contracts/contracts/External/Ownable.sol\":1949:1979  _transferOwnership(address(0)) */\n      jump\t// in\n    tag_155:\n        /* \"NFT-Contracts/contracts/External/Ownable.sol\":1884:1987  function renounceOwnership() public virtual onlyOwner {... */\n      jump\t// out\n        /* \"NFT-Contracts/contracts/AREVEAToken.sol\":1831:2001  function burnFrom(address account, uint256 amount) public virtual {... */\n    tag_78:\n        /* \"NFT-Contracts/contracts/AREVEAToken.sol\":1910:1956  _spendAllowance(account, _msgSender(), amount) */\n      tag_158\n        /* \"NFT-Contracts/contracts/AREVEAToken.sol\":1926:1933  account */\n      dup3\n        /* \"NFT-Contracts/contracts/AREVEAToken.sol\":1935:1947  _msgSender() */\n      tag_159\n        /* \"NFT-Contracts/contracts/AREVEAToken.sol\":1935:1945  _msgSender */\n      tag_112\n        /* \"NFT-Contracts/contracts/AREVEAToken.sol\":1935:1947  _msgSender() */\n      jump\t// in\n    tag_159:\n        /* \"NFT-Contracts/contracts/AREVEAToken.sol\":1949:1955  amount */\n      dup4\n        /* \"NFT-Contracts/contracts/AREVEAToken.sol\":1910:1925  _spendAllowance */\n      tag_123\n        /* \"NFT-Contracts/contracts/AREVEAToken.sol\":1910:1956  _spendAllowance(account, _msgSender(), amount) */\n      jump\t// in\n    tag_158:\n        /* \"NFT-Contracts/contracts/AREVEAToken.sol\":1969:1991  _burn(account, amount) */\n      tag_160\n        /* \"NFT-Contracts/contracts/AREVEAToken.sol\":1975:1982  account */\n      dup3\n        /* \"NFT-Contracts/contracts/AREVEAToken.sol\":1984:1990  amount */\n      dup3\n        /* \"NFT-Contracts/contracts/AREVEAToken.sol\":1969:1974  _burn */\n      tag_150\n        /* \"NFT-Contracts/contracts/AREVEAToken.sol\":1969:1991  _burn(account, amount) */\n      jump\t// in\n    tag_160:\n        /* \"NFT-Contracts/contracts/AREVEAToken.sol\":1831:2001  function burnFrom(address account, uint256 amount) public virtual {... */\n      pop\n      pop\n      jump\t// out\n        /* \"NFT-Contracts/contracts/External/Ownable.sol\":1236:1323  function owner() public view virtual returns (address) {... */\n    tag_80:\n        /* \"NFT-Contracts/contracts/External/Ownable.sol\":1282:1289  address */\n      0x00\n        /* \"NFT-Contracts/contracts/External/Ownable.sol\":1309:1315  _owner */\n      0x05\n      0x00\n      swap1\n      sload\n      swap1\n      0x0100\n      exp\n      swap1\n      div\n      0xffffffffffffffffffffffffffffffffffffffff\n      and\n        /* \"NFT-Contracts/contracts/External/Ownable.sol\":1302:1315  return _owner */\n      swap1\n      pop\n        /* \"NFT-Contracts/contracts/External/Ownable.sol\":1236:1323  function owner() public view virtual returns (address) {... */\n      swap1\n      jump\t// out\n        /* \"NFT-Contracts/contracts/ERC20.sol\":2426:2530  function symbol() public view virtual override returns (string memory) {... */\n    tag_84:\n        /* \"NFT-Contracts/contracts/ERC20.sol\":2482:2495  string memory */\n      0x60\n        /* \"NFT-Contracts/contracts/ERC20.sol\":2515:2522  _symbol */\n      0x04\n        /* \"NFT-Contracts/contracts/ERC20.sol\":2508:2522  return _symbol */\n      dup1\n      sload\n      tag_163\n      swap1\n      tag_105\n      jump\t// in\n    tag_163:\n      dup1\n      0x1f\n      add\n      0x20\n      dup1\n      swap2\n      div\n      mul\n      0x20\n      add\n      mload(0x40)\n      swap1\n      dup2\n      add\n      0x40\n      mstore\n      dup1\n      swap3\n      swap2\n      swap1\n      dup2\n      dup2\n      mstore\n      0x20\n      add\n      dup3\n      dup1\n      sload\n      tag_164\n      swap1\n      tag_105\n      jump\t// in\n    tag_164:\n      dup1\n      iszero\n      tag_165\n      jumpi\n      dup1\n      0x1f\n      lt\n      tag_166\n      jumpi\n      0x0100\n      dup1\n      dup4\n      sload\n      div\n      mul\n      dup4\n      mstore\n      swap2\n      0x20\n      add\n      swap2\n      jump(tag_165)\n    tag_166:\n      dup3\n      add\n      swap2\n      swap1\n      0x00\n      mstore\n      keccak256(0x00, 0x20)\n      swap1\n    tag_167:\n      dup2\n      sload\n      dup2\n      mstore\n      swap1\n      0x01\n      add\n      swap1\n      0x20\n      add\n      dup1\n      dup4\n      gt\n      tag_167\n      jumpi\n      dup3\n      swap1\n      sub\n      0x1f\n      and\n      dup3\n      add\n      swap2\n    tag_165:\n      pop\n      pop\n      pop\n      pop\n      pop\n      swap1\n      pop\n        /* \"NFT-Contracts/contracts/ERC20.sol\":2426:2530  function symbol() public view virtual override returns (string memory) {... */\n      swap1\n      jump\t// out\n        /* \"NFT-Contracts/contracts/ERC20.sol\":6784:7220  function decreaseAllowance(address spender, uint256 subtractedValue) public virtual returns (bool) {... */\n    tag_88:\n        /* \"NFT-Contracts/contracts/ERC20.sol\":6877:6881  bool */\n      0x00\n        /* \"NFT-Contracts/contracts/ERC20.sol\":6894:6907  address owner */\n      dup1\n        /* \"NFT-Contracts/contracts/ERC20.sol\":6910:6922  _msgSender() */\n      tag_169\n        /* \"NFT-Contracts/contracts/ERC20.sol\":6910:6920  _msgSender */\n      tag_112\n        /* \"NFT-Contracts/contracts/ERC20.sol\":6910:6922  _msgSender() */\n      jump\t// in\n    tag_169:\n        /* \"NFT-Contracts/contracts/ERC20.sol\":6894:6922  address owner = _msgSender() */\n      swap1\n      pop\n        /* \"NFT-Contracts/contracts/ERC20.sol\":6933:6957  uint256 currentAllowance */\n      0x00\n        /* \"NFT-Contracts/contracts/ERC20.sol\":6960:6985  allowance(owner, spender) */\n      tag_170\n        /* \"NFT-Contracts/contracts/ERC20.sol\":6970:6975  owner */\n      dup3\n        /* \"NFT-Contracts/contracts/ERC20.sol\":6977:6984  spender */\n      dup7\n        /* \"NFT-Contracts/contracts/ERC20.sol\":6960:6969  allowance */\n      tag_97\n        /* \"NFT-Contracts/contracts/ERC20.sol\":6960:6985  allowance(owner, spender) */\n      jump\t// in\n    tag_170:\n        /* \"NFT-Contracts/contracts/ERC20.sol\":6933:6985  uint256 currentAllowance = allowance(owner, spender) */\n      swap1\n      pop\n        /* \"NFT-Contracts/contracts/ERC20.sol\":7024:7039  subtractedValue */\n      dup4\n        /* \"NFT-Contracts/contracts/ERC20.sol\":7004:7020  currentAllowance */\n      dup2\n        /* \"NFT-Contracts/contracts/ERC20.sol\":7004:7039  currentAllowance >= subtractedValue */\n      lt\n      iszero\n        /* \"NFT-Contracts/contracts/ERC20.sol\":6996:7081  require(currentAllowance >= subtractedValue, \"ERC20: decreased allowance below zero\") */\n      tag_171\n      jumpi\n      mload(0x40)\n      0x08c379a000000000000000000000000000000000000000000000000000000000\n      dup2\n      mstore\n      0x04\n      add\n      tag_172\n      swap1\n      tag_173\n      jump\t// in\n    tag_172:\n      mload(0x40)\n      dup1\n      swap2\n      sub\n      swap1\n      revert\n    tag_171:\n        /* \"NFT-Contracts/contracts/ERC20.sol\":7117:7177  _approve(owner, spender, currentAllowance - subtractedValue) */\n      tag_174\n        /* \"NFT-Contracts/contracts/ERC20.sol\":7126:7131  owner */\n      dup3\n        /* \"NFT-Contracts/contracts/ERC20.sol\":7133:7140  spender */\n      dup7\n        /* \"NFT-Contracts/contracts/ERC20.sol\":7161:7176  subtractedValue */\n      dup7\n        /* \"NFT-Contracts/contracts/ERC20.sol\":7142:7158  currentAllowance */\n      dup5\n        /* \"NFT-Contracts/contracts/ERC20.sol\":7142:7176  currentAllowance - subtractedValue */\n      sub\n        /* \"NFT-Contracts/contracts/ERC20.sol\":7117:7125  _approve */\n      tag_114\n        /* \"NFT-Contracts/contracts/ERC20.sol\":7117:7177  _approve(owner, spender, currentAllowance - subtractedValue) */\n      jump\t// in\n    tag_174:\n        /* \"NFT-Contracts/contracts/ERC20.sol\":7208:7212  true */\n      0x01\n        /* \"NFT-Contracts/contracts/ERC20.sol\":7201:7212  return true */\n      swap3\n      pop\n      pop\n      pop\n        /* \"NFT-Contracts/contracts/ERC20.sol\":6784:7220  function decreaseAllowance(address spender, uint256 subtractedValue) public virtual returns (bool) {... */\n      swap3\n      swap2\n      pop\n      pop\n      jump\t// out\n        /* \"NFT-Contracts/contracts/ERC20.sol\":3831:4024  function transfer(address to, uint256 amount) public virtual override returns (bool) {... */\n    tag_92:\n        /* \"NFT-Contracts/contracts/ERC20.sol\":3910:3914  bool */\n      0x00\n        /* \"NFT-Contracts/contracts/ERC20.sol\":3927:3940  address owner */\n      dup1\n        /* \"NFT-Contracts/contracts/ERC20.sol\":3943:3955  _msgSender() */\n      tag_176\n        /* \"NFT-Contracts/contracts/ERC20.sol\":3943:3953  _msgSender */\n      tag_112\n        /* \"NFT-Contracts/contracts/ERC20.sol\":3943:3955  _msgSender() */\n      jump\t// in\n    tag_176:\n        /* \"NFT-Contracts/contracts/ERC20.sol\":3927:3955  address owner = _msgSender() */\n      swap1\n      pop\n        /* \"NFT-Contracts/contracts/ERC20.sol\":3966:3994  _transfer(owner, to, amount) */\n      tag_177\n        /* \"NFT-Contracts/contracts/ERC20.sol\":3976:3981  owner */\n      dup2\n        /* \"NFT-Contracts/contracts/ERC20.sol\":3983:3985  to */\n      dup6\n        /* \"NFT-Contracts/contracts/ERC20.sol\":3987:3993  amount */\n      dup6\n        /* \"NFT-Contracts/contracts/ERC20.sol\":3966:3975  _transfer */\n      tag_125\n        /* \"NFT-Contracts/contracts/ERC20.sol\":3966:3994  _transfer(owner, to, amount) */\n      jump\t// in\n    tag_177:\n        /* \"NFT-Contracts/contracts/ERC20.sol\":4012:4016  true */\n      0x01\n        /* \"NFT-Contracts/contracts/ERC20.sol\":4005:4016  return true */\n      swap2\n      pop\n      pop\n        /* \"NFT-Contracts/contracts/ERC20.sol\":3831:4024  function transfer(address to, uint256 amount) public virtual override returns (bool) {... */\n      swap3\n      swap2\n      pop\n      pop\n      jump\t// out\n        /* \"NFT-Contracts/contracts/ERC20.sol\":4087:4238  function allowance(address owner, address spender) public view virtual override returns (uint256) {... */\n    tag_97:\n        /* \"NFT-Contracts/contracts/ERC20.sol\":4176:4183  uint256 */\n      0x00\n        /* \"NFT-Contracts/contracts/ERC20.sol\":4203:4214  _allowances */\n      0x01\n        /* \"NFT-Contracts/contracts/ERC20.sol\":4203:4221  _allowances[owner] */\n      0x00\n        /* \"NFT-Contracts/contracts/ERC20.sol\":4215:4220  owner */\n      dup5\n        /* \"NFT-Contracts/contracts/ERC20.sol\":4203:4221  _allowances[owner] */\n      0xffffffffffffffffffffffffffffffffffffffff\n      and\n      0xffffffffffffffffffffffffffffffffffffffff\n      and\n      dup2\n      mstore\n      0x20\n      add\n      swap1\n      dup2\n      mstore\n      0x20\n      add\n      0x00\n      keccak256\n        /* \"NFT-Contracts/contracts/ERC20.sol\":4203:4230  _allowances[owner][spender] */\n      0x00\n        /* \"NFT-Contracts/contracts/ERC20.sol\":4222:4229  spender */\n      dup4\n        /* \"NFT-Contracts/contracts/ERC20.sol\":4203:4230  _allowances[owner][spender] */\n      0xffffffffffffffffffffffffffffffffffffffff\n      and\n      0xffffffffffffffffffffffffffffffffffffffff\n      and\n      dup2\n      mstore\n      0x20\n      add\n      swap1\n      dup2\n      mstore\n      0x20\n      add\n      0x00\n      keccak256\n      sload\n        /* \"NFT-Contracts/contracts/ERC20.sol\":4196:4230  return _allowances[owner][spender] */\n      swap1\n      pop\n        /* \"NFT-Contracts/contracts/ERC20.sol\":4087:4238  function allowance(address owner, address spender) public view virtual override returns (uint256) {... */\n      swap3\n      swap2\n      pop\n      pop\n      jump\t// out\n        /* \"NFT-Contracts/contracts/External/Ownable.sol\":2142:2343  function transferOwnership(address newOwner) public virtual onlyOwner {... */\n    tag_101:\n        /* \"NFT-Contracts/contracts/External/Ownable.sol\":1122:1135  _checkOwner() */\n      tag_180\n        /* \"NFT-Contracts/contracts/External/Ownable.sol\":1122:1133  _checkOwner */\n      tag_137\n        /* \"NFT-Contracts/contracts/External/Ownable.sol\":1122:1135  _checkOwner() */\n      jump\t// in\n    tag_180:\n        /* \"NFT-Contracts/contracts/External/Ownable.sol\":2251:2252  0 */\n      0x00\n        /* \"NFT-Contracts/contracts/External/Ownable.sol\":2231:2253  newOwner != address(0) */\n      0xffffffffffffffffffffffffffffffffffffffff\n      and\n        /* \"NFT-Contracts/contracts/External/Ownable.sol\":2231:2239  newOwner */\n      dup2\n        /* \"NFT-Contracts/contracts/External/Ownable.sol\":2231:2253  newOwner != address(0) */\n      0xffffffffffffffffffffffffffffffffffffffff\n      and\n      sub\n        /* \"NFT-Contracts/contracts/External/Ownable.sol\":2223:2296  require(newOwner != address(0), \"Ownable: new owner is the zero address\") */\n      tag_182\n      jumpi\n      mload(0x40)\n      0x08c379a000000000000000000000000000000000000000000000000000000000\n      dup2\n      mstore\n      0x04\n      add\n      tag_183\n      swap1\n      tag_184\n      jump\t// in\n    tag_183:\n      mload(0x40)\n      dup1\n      swap2\n      sub\n      swap1\n      revert\n    tag_182:\n        /* \"NFT-Contracts/contracts/External/Ownable.sol\":2307:2335  _transferOwnership(newOwner) */\n      tag_185\n        /* \"NFT-Contracts/contracts/External/Ownable.sol\":2326:2334  newOwner */\n      dup2\n        /* \"NFT-Contracts/contracts/External/Ownable.sol\":2307:2325  _transferOwnership */\n      tag_156\n        /* \"NFT-Contracts/contracts/External/Ownable.sol\":2307:2335  _transferOwnership(newOwner) */\n      jump\t// in\n    tag_185:\n        /* \"NFT-Contracts/contracts/External/Ownable.sol\":2142:2343  function transferOwnership(address newOwner) public virtual onlyOwner {... */\n      pop\n      jump\t// out\n        /* \"NFT-Contracts/contracts/External/SafeMath.sol\":302:483  function add(uint256 a, uint256 b) internal pure returns (uint256) {... */\n    tag_102:\n        /* \"NFT-Contracts/contracts/External/SafeMath.sol\":360:367  uint256 */\n      0x00\n        /* \"NFT-Contracts/contracts/External/SafeMath.sol\":380:389  uint256 c */\n      dup1\n        /* \"NFT-Contracts/contracts/External/SafeMath.sol\":396:397  b */\n      dup3\n        /* \"NFT-Contracts/contracts/External/SafeMath.sol\":392:393  a */\n      dup5\n        /* \"NFT-Contracts/contracts/External/SafeMath.sol\":392:397  a + b */\n      tag_187\n      swap2\n      swap1\n      tag_134\n      jump\t// in\n    tag_187:\n        /* \"NFT-Contracts/contracts/External/SafeMath.sol\":380:397  uint256 c = a + b */\n      swap1\n      pop\n        /* \"NFT-Contracts/contracts/External/SafeMath.sol\":421:422  a */\n      dup4\n        /* \"NFT-Contracts/contracts/External/SafeMath.sol\":416:417  c */\n      dup2\n        /* \"NFT-Contracts/contracts/External/SafeMath.sol\":416:422  c >= a */\n      lt\n      iszero\n        /* \"NFT-Contracts/contracts/External/SafeMath.sol\":408:454  require(c >= a, \"SafeMath: addition overflow\") */\n      tag_188\n      jumpi\n      mload(0x40)\n      0x08c379a000000000000000000000000000000000000000000000000000000000\n      dup2\n      mstore\n      0x04\n      add\n      tag_189\n      swap1\n      tag_190\n      jump\t// in\n    tag_189:\n      mload(0x40)\n      dup1\n      swap2\n      sub\n      swap1\n      revert\n    tag_188:\n        /* \"NFT-Contracts/contracts/External/SafeMath.sol\":474:475  c */\n      dup1\n        /* \"NFT-Contracts/contracts/External/SafeMath.sol\":467:475  return c */\n      swap2\n      pop\n      pop\n        /* \"NFT-Contracts/contracts/External/SafeMath.sol\":302:483  function add(uint256 a, uint256 b) internal pure returns (uint256) {... */\n      swap3\n      swap2\n      pop\n      pop\n      jump\t// out\n        /* \"NFT-Contracts/contracts/External/Context.sol\":145:260  function _msgSender() internal view virtual returns (address payable) {... */\n    tag_112:\n        /* \"NFT-Contracts/contracts/External/Context.sol\":198:213  address payable */\n      0x00\n        /* \"NFT-Contracts/contracts/External/Context.sol\":241:251  msg.sender */\n      caller\n        /* \"NFT-Contracts/contracts/External/Context.sol\":226:252  return payable(msg.sender) */\n      swap1\n      pop\n        /* \"NFT-Contracts/contracts/External/Context.sol\":145:260  function _msgSender() internal view virtual returns (address payable) {... */\n      swap1\n      jump\t// out\n        /* \"NFT-Contracts/contracts/ERC20.sol\":10409:10789  function _approve(... */\n    tag_114:\n        /* \"NFT-Contracts/contracts/ERC20.sol\":10562:10563  0 */\n      0x00\n        /* \"NFT-Contracts/contracts/ERC20.sol\":10545:10564  owner != address(0) */\n      0xffffffffffffffffffffffffffffffffffffffff\n      and\n        /* \"NFT-Contracts/contracts/ERC20.sol\":10545:10550  owner */\n      dup4\n        /* \"NFT-Contracts/contracts/ERC20.sol\":10545:10564  owner != address(0) */\n      0xffffffffffffffffffffffffffffffffffffffff\n      and\n      sub\n        /* \"NFT-Contracts/contracts/ERC20.sol\":10537:10605  require(owner != address(0), \"ERC20: approve from the zero address\") */\n      tag_193\n      jumpi\n      mload(0x40)\n      0x08c379a000000000000000000000000000000000000000000000000000000000\n      dup2\n      mstore\n      0x04\n      add\n      tag_194\n      swap1\n      tag_195\n      jump\t// in\n    tag_194:\n      mload(0x40)\n      dup1\n      swap2\n      sub\n      swap1\n      revert\n    tag_193:\n        /* \"NFT-Contracts/contracts/ERC20.sol\":10643:10644  0 */\n      0x00\n        /* \"NFT-Contracts/contracts/ERC20.sol\":10624:10645  spender != address(0) */\n      0xffffffffffffffffffffffffffffffffffffffff\n      and\n        /* \"NFT-Contracts/contracts/ERC20.sol\":10624:10631  spender */\n      dup3\n        /* \"NFT-Contracts/contracts/ERC20.sol\":10624:10645  spender != address(0) */\n      0xffffffffffffffffffffffffffffffffffffffff\n      and\n      sub\n        /* \"NFT-Contracts/contracts/ERC20.sol\":10616:10684  require(spender != address(0), \"ERC20: approve to the zero address\") */\n      tag_196\n      jumpi\n      mload(0x40)\n      0x08c379a000000000000000000000000000000000000000000000000000000000\n      dup2\n      mstore\n      0x04\n      add\n      tag_197\n      swap1\n      tag_198\n      jump\t// in\n    tag_197:\n      mload(0x40)\n      dup1\n      swap2\n      sub\n      swap1\n      revert\n    tag_196:\n        /* \"NFT-Contracts/contracts/ERC20.sol\":10727:10733  amount */\n      dup1\n        /* \"NFT-Contracts/contracts/ERC20.sol\":10697:10708  _allowances */\n      0x01\n        /* \"NFT-Contracts/contracts/ERC20.sol\":10697:10715  _allowances[owner] */\n      0x00\n        /* \"NFT-Contracts/contracts/ERC20.sol\":10709:10714  owner */\n      dup6\n        /* \"NFT-Contracts/contracts/ERC20.sol\":10697:10715  _allowances[owner] */\n      0xffffffffffffffffffffffffffffffffffffffff\n      and\n      0xffffffffffffffffffffffffffffffffffffffff\n      and\n      dup2\n      mstore\n      0x20\n      add\n      swap1\n      dup2\n      mstore\n      0x20\n      add\n      0x00\n      keccak256\n        /* \"NFT-Contracts/contracts/ERC20.sol\":10697:10724  _allowances[owner][spender] */\n      0x00\n        /* \"NFT-Contracts/contracts/ERC20.sol\":10716:10723  spender */\n      dup5\n        /* \"NFT-Contracts/contracts/ERC20.sol\":10697:10724  _allowances[owner][spender] */\n      0xffffffffffffffffffffffffffffffffffffffff\n      and\n      0xffffffffffffffffffffffffffffffffffffffff\n      and\n      dup2\n      mstore\n      0x20\n      add\n      swap1\n      dup2\n      mstore\n      0x20\n      add\n      0x00\n      keccak256\n        /* \"NFT-Contracts/contracts/ERC20.sol\":10697:10733  _allowances[owner][spender] = amount */\n      dup2\n      swap1\n      sstore\n      pop\n        /* \"NFT-Contracts/contracts/ERC20.sol\":10765:10772  spender */\n      dup2\n        /* \"NFT-Contracts/contracts/ERC20.sol\":10749:10781  Approval(owner, spender, amount) */\n      0xffffffffffffffffffffffffffffffffffffffff\n      and\n        /* \"NFT-Contracts/contracts/ERC20.sol\":10758:10763  owner */\n      dup4\n        /* \"NFT-Contracts/contracts/ERC20.sol\":10749:10781  Approval(owner, spender, amount) */\n      0xffffffffffffffffffffffffffffffffffffffff\n      and\n      0x8c5be1e5ebec7d5bd14f71427d1e84f3dd0314c0f7b2291e5b200ac8c7c3b925\n        /* \"NFT-Contracts/contracts/ERC20.sol\":10774:10780  amount */\n      dup4\n        /* \"NFT-Contracts/contracts/ERC20.sol\":10749:10781  Approval(owner, spender, amount) */\n      mload(0x40)\n      tag_199\n      swap2\n      swap1\n      tag_39\n      jump\t// in\n    tag_199:\n      mload(0x40)\n      dup1\n      swap2\n      sub\n      swap1\n      log3\n        /* \"NFT-Contracts/contracts/ERC20.sol\":10409:10789  function _approve(... */\n      pop\n      pop\n      pop\n      jump\t// out\n        /* \"NFT-Contracts/contracts/ERC20.sol\":11080:11533  function _spendAllowance(... */\n    tag_123:\n        /* \"NFT-Contracts/contracts/ERC20.sol\":11215:11239  uint256 currentAllowance */\n      0x00\n        /* \"NFT-Contracts/contracts/ERC20.sol\":11242:11267  allowance(owner, spender) */\n      tag_201\n        /* \"NFT-Contracts/contracts/ERC20.sol\":11252:11257  owner */\n      dup5\n        /* \"NFT-Contracts/contracts/ERC20.sol\":11259:11266  spender */\n      dup5\n        /* \"NFT-Contracts/contracts/ERC20.sol\":11242:11251  allowance */\n      tag_97\n        /* \"NFT-Contracts/contracts/ERC20.sol\":11242:11267  allowance(owner, spender) */\n      jump\t// in\n    tag_201:\n        /* \"NFT-Contracts/contracts/ERC20.sol\":11215:11267  uint256 currentAllowance = allowance(owner, spender) */\n      swap1\n      pop\n        /* \"NFT-Contracts/contracts/ERC20.sol\":11302:11319  type(uint256).max */\n      0xffffffffffffffffffffffffffffffffffffffffffffffffffffffffffffffff\n        /* \"NFT-Contracts/contracts/ERC20.sol\":11282:11298  currentAllowance */\n      dup2\n        /* \"NFT-Contracts/contracts/ERC20.sol\":11282:11319  currentAllowance != type(uint256).max */\n      eq\n        /* \"NFT-Contracts/contracts/ERC20.sol\":11278:11526  if (currentAllowance != type(uint256).max) {... */\n      tag_202\n      jumpi\n        /* \"NFT-Contracts/contracts/ERC20.sol\":11364:11370  amount */\n      dup2\n        /* \"NFT-Contracts/contracts/ERC20.sol\":11344:11360  currentAllowance */\n      dup2\n        /* \"NFT-Contracts/contracts/ERC20.sol\":11344:11370  currentAllowance >= amount */\n      lt\n      iszero\n        /* \"NFT-Contracts/contracts/ERC20.sol\":11336:11404  require(currentAllowance >= amount, \"ERC20: insufficient allowance\") */\n      tag_203\n      jumpi\n      mload(0x40)\n      0x08c379a000000000000000000000000000000000000000000000000000000000\n      dup2\n      mstore\n      0x04\n      add\n      tag_204\n      swap1\n      tag_205\n      jump\t// in\n    tag_204:\n      mload(0x40)\n      dup1\n      swap2\n      sub\n      swap1\n      revert\n    tag_203:\n        /* \"NFT-Contracts/contracts/ERC20.sol\":11448:11499  _approve(owner, spender, currentAllowance - amount) */\n      tag_206\n        /* \"NFT-Contracts/contracts/ERC20.sol\":11457:11462  owner */\n      dup5\n        /* \"NFT-Contracts/contracts/ERC20.sol\":11464:11471  spender */\n      dup5\n        /* \"NFT-Contracts/contracts/ERC20.sol\":11492:11498  amount */\n      dup5\n        /* \"NFT-Contracts/contracts/ERC20.sol\":11473:11489  currentAllowance */\n      dup5\n        /* \"NFT-Contracts/contracts/ERC20.sol\":11473:11498  currentAllowance - amount */\n      sub\n        /* \"NFT-Contracts/contracts/ERC20.sol\":11448:11456  _approve */\n      tag_114\n        /* \"NFT-Contracts/contracts/ERC20.sol\":11448:11499  _approve(owner, spender, currentAllowance - amount) */\n      jump\t// in\n    tag_206:\n        /* \"NFT-Contracts/contracts/ERC20.sol\":11278:11526  if (currentAllowance != type(uint256).max) {... */\n    tag_202:\n        /* \"NFT-Contracts/contracts/ERC20.sol\":11204:11533  {... */\n      pop\n        /* \"NFT-Contracts/contracts/ERC20.sol\":11080:11533  function _spendAllowance(... */\n      pop\n      pop\n      pop\n      jump\t// out\n        /* \"NFT-Contracts/contracts/ERC20.sol\":7690:8361  function _transfer(... */\n    tag_125:\n        /* \"NFT-Contracts/contracts/ERC20.sol\":7837:7838  0 */\n      0x00\n        /* \"NFT-Contracts/contracts/ERC20.sol\":7821:7839  from != address(0) */\n      0xffffffffffffffffffffffffffffffffffffffff\n      and\n        /* \"NFT-Contracts/contracts/ERC20.sol\":7821:7825  from */\n      dup4\n        /* \"NFT-Contracts/contracts/ERC20.sol\":7821:7839  from != address(0) */\n      0xffffffffffffffffffffffffffffffffffffffff\n      and\n      sub\n        /* \"NFT-Contracts/contracts/ERC20.sol\":7813:7881  require(from != address(0), \"ERC20: transfer from the zero address\") */\n      tag_208\n      jumpi\n      mload(0x40)\n      0x08c379a000000000000000000000000000000000000000000000000000000000\n      dup2\n      mstore\n      0x04\n      add\n      tag_209\n      swap1\n      tag_210\n      jump\t// in\n    tag_209:\n      mload(0x40)\n      dup1\n      swap2\n      sub\n      swap1\n      revert\n    tag_208:\n        /* \"NFT-Contracts/contracts/ERC20.sol\":7914:7915  0 */\n      0x00\n        /* \"NFT-Contracts/contracts/ERC20.sol\":7900:7916  to != address(0) */\n      0xffffffffffffffffffffffffffffffffffffffff\n      and\n        /* \"NFT-Contracts/contracts/ERC20.sol\":7900:7902  to */\n      dup3\n        /* \"NFT-Contracts/contracts/ERC20.sol\":7900:7916  to != address(0) */\n      0xffffffffffffffffffffffffffffffffffffffff\n      and\n      sub\n        /* \"NFT-Contracts/contracts/ERC20.sol\":7892:7956  require(to != address(0), \"ERC20: transfer to the zero address\") */\n      tag_211\n      jumpi\n      mload(0x40)\n      0x08c379a000000000000000000000000000000000000000000000000000000000\n      dup2\n      mstore\n      0x04\n      add\n      tag_212\n      swap1\n      tag_213\n      jump\t// in\n    tag_212:\n      mload(0x40)\n      dup1\n      swap2\n      sub\n      swap1\n      revert\n    tag_211:\n        /* \"NFT-Contracts/contracts/ERC20.sol\":7969:8007  _beforeTokenTransfer(from, to, amount) */\n      tag_214\n        /* \"NFT-Contracts/contracts/ERC20.sol\":7990:7994  from */\n      dup4\n        /* \"NFT-Contracts/contracts/ERC20.sol\":7996:7998  to */\n      dup4\n        /* \"NFT-Contracts/contracts/ERC20.sol\":8000:8006  amount */\n      dup4\n        /* \"NFT-Contracts/contracts/ERC20.sol\":7969:7989  _beforeTokenTransfer */\n      tag_215\n        /* \"NFT-Contracts/contracts/ERC20.sol\":7969:8007  _beforeTokenTransfer(from, to, amount) */\n      jump\t// in\n    tag_214:\n        /* \"NFT-Contracts/contracts/ERC20.sol\":8020:8039  uint256 fromBalance */\n      0x00\n        /* \"NFT-Contracts/contracts/ERC20.sol\":8042:8051  _balances */\n      dup1\n        /* \"NFT-Contracts/contracts/ERC20.sol\":8042:8057  _balances[from] */\n      0x00\n        /* \"NFT-Contracts/contracts/ERC20.sol\":8052:8056  from */\n      dup6\n        /* \"NFT-Contracts/contracts/ERC20.sol\":8042:8057  _balances[from] */\n      0xffffffffffffffffffffffffffffffffffffffff\n      and\n      0xffffffffffffffffffffffffffffffffffffffff\n      and\n      dup2\n      mstore\n      0x20\n      add\n      swap1\n      dup2\n      mstore\n      0x20\n      add\n      0x00\n      keccak256\n      sload\n        /* \"NFT-Contracts/contracts/ERC20.sol\":8020:8057  uint256 fromBalance = _balances[from] */\n      swap1\n      pop\n        /* \"NFT-Contracts/contracts/ERC20.sol\":8091:8097  amount */\n      dup2\n        /* \"NFT-Contracts/contracts/ERC20.sol\":8076:8087  fromBalance */\n      dup2\n        /* \"NFT-Contracts/contracts/ERC20.sol\":8076:8097  fromBalance >= amount */\n      lt\n      iszero\n        /* \"NFT-Contracts/contracts/ERC20.sol\":8068:8140  require(fromBalance >= amount, \"ERC20: transfer amount exceeds balance\") */\n      tag_216\n      jumpi\n      mload(0x40)\n      0x08c379a000000000000000000000000000000000000000000000000000000000\n      dup2\n      mstore\n      0x04\n      add\n      tag_217\n      swap1\n      tag_218\n      jump\t// in\n    tag_217:\n      mload(0x40)\n      dup1\n      swap2\n      sub\n      swap1\n      revert\n    tag_216:\n        /* \"NFT-Contracts/contracts/ERC20.sol\":8208:8214  amount */\n      dup2\n        /* \"NFT-Contracts/contracts/ERC20.sol\":8194:8205  fromBalance */\n      dup2\n        /* \"NFT-Contracts/contracts/ERC20.sol\":8194:8214  fromBalance - amount */\n      sub\n        /* \"NFT-Contracts/contracts/ERC20.sol\":8176:8185  _balances */\n      0x00\n        /* \"NFT-Contracts/contracts/ERC20.sol\":8176:8191  _balances[from] */\n      dup1\n        /* \"NFT-Contracts/contracts/ERC20.sol\":8186:8190  from */\n      dup7\n        /* \"NFT-Contracts/contracts/ERC20.sol\":8176:8191  _balances[from] */\n      0xffffffffffffffffffffffffffffffffffffffff\n      and\n      0xffffffffffffffffffffffffffffffffffffffff\n      and\n      dup2\n      mstore\n      0x20\n      add\n      swap1\n      dup2\n      mstore\n      0x20\n      add\n      0x00\n      keccak256\n        /* \"NFT-Contracts/contracts/ERC20.sol\":8176:8214  _balances[from] = fromBalance - amount */\n      dup2\n      swap1\n      sstore\n      pop\n        /* \"NFT-Contracts/contracts/ERC20.sol\":8253:8259  amount */\n      dup2\n        /* \"NFT-Contracts/contracts/ERC20.sol\":8236:8245  _balances */\n      0x00\n        /* \"NFT-Contracts/contracts/ERC20.sol\":8236:8249  _balances[to] */\n      dup1\n        /* \"NFT-Contracts/contracts/ERC20.sol\":8246:8248  to */\n      dup6\n        /* \"NFT-Contracts/contracts/ERC20.sol\":8236:8249  _balances[to] */\n      0xffffffffffffffffffffffffffffffffffffffff\n      and\n      0xffffffffffffffffffffffffffffffffffffffff\n      and\n      dup2\n      mstore\n      0x20\n      add\n      swap1\n      dup2\n      mstore\n      0x20\n      add\n      0x00\n      keccak256\n      0x00\n        /* \"NFT-Contracts/contracts/ERC20.sol\":8236:8259  _balances[to] += amount */\n      dup3\n      dup3\n      sload\n      tag_219\n      swap2\n      swap1\n      tag_134\n      jump\t// in\n    tag_219:\n      swap3\n      pop\n      pop\n      dup2\n      swap1\n      sstore\n      pop\n        /* \"NFT-Contracts/contracts/ERC20.sol\":8292:8294  to */\n      dup3\n        /* \"NFT-Contracts/contracts/ERC20.sol\":8277:8303  Transfer(from, to, amount) */\n      0xffffffffffffffffffffffffffffffffffffffff\n      and\n        /* \"NFT-Contracts/contracts/ERC20.sol\":8286:8290  from */\n      dup5\n        /* \"NFT-Contracts/contracts/ERC20.sol\":8277:8303  Transfer(from, to, amount) */\n      0xffffffffffffffffffffffffffffffffffffffff\n      and\n      0xddf252ad1be2c89b69c2b068fc378daa952ba7f163c4a11628f55a4df523b3ef\n        /* \"NFT-Contracts/contracts/ERC20.sol\":8296:8302  amount */\n      dup5\n        /* \"NFT-Contracts/contracts/ERC20.sol\":8277:8303  Transfer(from, to, amount) */\n      mload(0x40)\n      tag_220\n      swap2\n      swap1\n      tag_39\n      jump\t// in\n    tag_220:\n      mload(0x40)\n      dup1\n      swap2\n      sub\n      swap1\n      log3\n        /* \"NFT-Contracts/contracts/ERC20.sol\":8316:8353  _afterTokenTransfer(from, to, amount) */\n      tag_221\n        /* \"NFT-Contracts/contracts/ERC20.sol\":8336:8340  from */\n      dup5\n        /* \"NFT-Contracts/contracts/ERC20.sol\":8342:8344  to */\n      dup5\n        /* \"NFT-Contracts/contracts/ERC20.sol\":8346:8352  amount */\n      dup5\n        /* \"NFT-Contracts/contracts/ERC20.sol\":8316:8335  _afterTokenTransfer */\n      tag_222\n        /* \"NFT-Contracts/contracts/ERC20.sol\":8316:8353  _afterTokenTransfer(from, to, amount) */\n      jump\t// in\n    tag_221:\n        /* \"NFT-Contracts/contracts/ERC20.sol\":7802:8361  {... */\n      pop\n        /* \"NFT-Contracts/contracts/ERC20.sol\":7690:8361  function _transfer(... */\n      pop\n      pop\n      pop\n      jump\t// out\n        /* \"NFT-Contracts/contracts/External/Ownable.sol\":1401:1533  function _checkOwner() internal view virtual {... */\n    tag_137:\n        /* \"NFT-Contracts/contracts/External/Ownable.sol\":1476:1488  _msgSender() */\n      tag_224\n        /* \"NFT-Contracts/contracts/External/Ownable.sol\":1476:1486  _msgSender */\n      tag_112\n        /* \"NFT-Contracts/contracts/External/Ownable.sol\":1476:1488  _msgSender() */\n      jump\t// in\n    tag_224:\n        /* \"NFT-Contracts/contracts/External/Ownable.sol\":1465:1488  owner() == _msgSender() */\n      0xffffffffffffffffffffffffffffffffffffffff\n      and\n        /* \"NFT-Contracts/contracts/External/Ownable.sol\":1465:1472  owner() */\n      tag_225\n        /* \"NFT-Contracts/contracts/External/Ownable.sol\":1465:1470  owner */\n      tag_80\n        /* \"NFT-Contracts/contracts/External/Ownable.sol\":1465:1472  owner() */\n      jump\t// in\n    tag_225:\n        /* \"NFT-Contracts/contracts/External/Ownable.sol\":1465:1488  owner() == _msgSender() */\n      0xffffffffffffffffffffffffffffffffffffffff\n      and\n      eq\n        /* \"NFT-Contracts/contracts/External/Ownable.sol\":1457:1525  require(owner() == _msgSender(), \"Ownable: caller is not the owner\") */\n      tag_226\n      jumpi\n      mload(0x40)\n      0x08c379a000000000000000000000000000000000000000000000000000000000\n      dup2\n      mstore\n      0x04\n      add\n      tag_227\n      swap1\n      tag_228\n      jump\t// in\n    tag_227:\n      mload(0x40)\n      dup1\n      swap2\n      sub\n      swap1\n      revert\n    tag_226:\n        /* \"NFT-Contracts/contracts/External/Ownable.sol\":1401:1533  function _checkOwner() internal view virtual {... */\n      jump\t// out\n        /* \"NFT-Contracts/contracts/ERC20.sol\":8648:9047  function _mint(address account, uint256 amount) internal virtual {... */\n    tag_147:\n        /* \"NFT-Contracts/contracts/ERC20.sol\":8751:8752  0 */\n      0x00\n        /* \"NFT-Contracts/contracts/ERC20.sol\":8732:8753  account != address(0) */\n      0xffffffffffffffffffffffffffffffffffffffff\n      and\n        /* \"NFT-Contracts/contracts/ERC20.sol\":8732:8739  account */\n      dup3\n        /* \"NFT-Contracts/contracts/ERC20.sol\":8732:8753  account != address(0) */\n      0xffffffffffffffffffffffffffffffffffffffff\n      and\n      sub\n        /* \"NFT-Contracts/contracts/ERC20.sol\":8724:8789  require(account != address(0), \"ERC20: mint to the zero address\") */\n      tag_230\n      jumpi\n      mload(0x40)\n      0x08c379a000000000000000000000000000000000000000000000000000000000\n      dup2\n      mstore\n      0x04\n      add\n      tag_231\n      swap1\n      tag_232\n      jump\t// in\n    tag_231:\n      mload(0x40)\n      dup1\n      swap2\n      sub\n      swap1\n      revert\n    tag_230:\n        /* \"NFT-Contracts/contracts/ERC20.sol\":8802:8851  _beforeTokenTransfer(address(0), account, amount) */\n      tag_233\n        /* \"NFT-Contracts/contracts/ERC20.sol\":8831:8832  0 */\n      0x00\n        /* \"NFT-Contracts/contracts/ERC20.sol\":8835:8842  account */\n      dup4\n        /* \"NFT-Contracts/contracts/ERC20.sol\":8844:8850  amount */\n      dup4\n        /* \"NFT-Contracts/contracts/ERC20.sol\":8802:8822  _beforeTokenTransfer */\n      tag_215\n        /* \"NFT-Contracts/contracts/ERC20.sol\":8802:8851  _beforeTokenTransfer(address(0), account, amount) */\n      jump\t// in\n    tag_233:\n        /* \"NFT-Contracts/contracts/ERC20.sol\":8880:8886  amount */\n      dup1\n        /* \"NFT-Contracts/contracts/ERC20.sol\":8864:8876  _totalSupply */\n      0x02\n      0x00\n        /* \"NFT-Contracts/contracts/ERC20.sol\":8864:8886  _totalSupply += amount */\n      dup3\n      dup3\n      sload\n      tag_234\n      swap2\n      swap1\n      tag_134\n      jump\t// in\n    tag_234:\n      swap3\n      pop\n      pop\n      dup2\n      swap1\n      sstore\n      pop\n        /* \"NFT-Contracts/contracts/ERC20.sol\":8919:8925  amount */\n      dup1\n        /* \"NFT-Contracts/contracts/ERC20.sol\":8897:8906  _balances */\n      0x00\n        /* \"NFT-Contracts/contracts/ERC20.sol\":8897:8915  _balances[account] */\n      dup1\n        /* \"NFT-Contracts/contracts/ERC20.sol\":8907:8914  account */\n      dup5\n        /* \"NFT-Contracts/contracts/ERC20.sol\":8897:8915  _balances[account] */\n      0xffffffffffffffffffffffffffffffffffffffff\n      and\n      0xffffffffffffffffffffffffffffffffffffffff\n      and\n      dup2\n      mstore\n      0x20\n      add\n      swap1\n      dup2\n      mstore\n      0x20\n      add\n      0x00\n      keccak256\n      0x00\n        /* \"NFT-Contracts/contracts/ERC20.sol\":8897:8925  _balances[account] += amount */\n      dup3\n      dup3\n      sload\n      tag_235\n      swap2\n      swap1\n      tag_134\n      jump\t// in\n    tag_235:\n      swap3\n      pop\n      pop\n      dup2\n      swap1\n      sstore\n      pop\n        /* \"NFT-Contracts/contracts/ERC20.sol\":8962:8969  account */\n      dup2\n        /* \"NFT-Contracts/contracts/ERC20.sol\":8941:8978  Transfer(address(0), account, amount) */\n      0xffffffffffffffffffffffffffffffffffffffff\n      and\n        /* \"NFT-Contracts/contracts/ERC20.sol\":8958:8959  0 */\n      0x00\n        /* \"NFT-Contracts/contracts/ERC20.sol\":8941:8978  Transfer(address(0), account, amount) */\n      0xffffffffffffffffffffffffffffffffffffffff\n      and\n      0xddf252ad1be2c89b69c2b068fc378daa952ba7f163c4a11628f55a4df523b3ef\n        /* \"NFT-Contracts/contracts/ERC20.sol\":8971:8977  amount */\n      dup4\n        /* \"NFT-Contracts/contracts/ERC20.sol\":8941:8978  Transfer(address(0), account, amount) */\n      mload(0x40)\n      tag_236\n      swap2\n      swap1\n      tag_39\n      jump\t// in\n    tag_236:\n      mload(0x40)\n      dup1\n      swap2\n      sub\n      swap1\n      log3\n        /* \"NFT-Contracts/contracts/ERC20.sol\":8991:9039  _afterTokenTransfer(address(0), account, amount) */\n      tag_237\n        /* \"NFT-Contracts/contracts/ERC20.sol\":9019:9020  0 */\n      0x00\n        /* \"NFT-Contracts/contracts/ERC20.sol\":9023:9030  account */\n      dup4\n        /* \"NFT-Contracts/contracts/ERC20.sol\":9032:9038  amount */\n      dup4\n        /* \"NFT-Contracts/contracts/ERC20.sol\":8991:9010  _afterTokenTransfer */\n      tag_222\n        /* \"NFT-Contracts/contracts/ERC20.sol\":8991:9039  _afterTokenTransfer(address(0), account, amount) */\n      jump\t// in\n    tag_237:\n        /* \"NFT-Contracts/contracts/ERC20.sol\":8648:9047  function _mint(address account, uint256 amount) internal virtual {... */\n      pop\n      pop\n      jump\t// out\n        /* \"NFT-Contracts/contracts/ERC20.sol\":9380:9971  function _burn(address account, uint256 amount) internal virtual {... */\n    tag_150:\n        /* \"NFT-Contracts/contracts/ERC20.sol\":9483:9484  0 */\n      0x00\n        /* \"NFT-Contracts/contracts/ERC20.sol\":9464:9485  account != address(0) */\n      0xffffffffffffffffffffffffffffffffffffffff\n      and\n        /* \"NFT-Contracts/contracts/ERC20.sol\":9464:9471  account */\n      dup3\n        /* \"NFT-Contracts/contracts/ERC20.sol\":9464:9485  account != address(0) */\n      0xffffffffffffffffffffffffffffffffffffffff\n      and\n      sub\n        /* \"NFT-Contracts/contracts/ERC20.sol\":9456:9523  require(account != address(0), \"ERC20: burn from the zero address\") */\n      tag_239\n      jumpi\n      mload(0x40)\n      0x08c379a000000000000000000000000000000000000000000000000000000000\n      dup2\n      mstore\n      0x04\n      add\n      tag_240\n      swap1\n      tag_241\n      jump\t// in\n    tag_240:\n      mload(0x40)\n      dup1\n      swap2\n      sub\n      swap1\n      revert\n    tag_239:\n        /* \"NFT-Contracts/contracts/ERC20.sol\":9536:9585  _beforeTokenTransfer(account, address(0), amount) */\n      tag_242\n        /* \"NFT-Contracts/contracts/ERC20.sol\":9557:9564  account */\n      dup3\n        /* \"NFT-Contracts/contracts/ERC20.sol\":9574:9575  0 */\n      0x00\n        /* \"NFT-Contracts/contracts/ERC20.sol\":9578:9584  amount */\n      dup4\n        /* \"NFT-Contracts/contracts/ERC20.sol\":9536:9556  _beforeTokenTransfer */\n      tag_215\n        /* \"NFT-Contracts/contracts/ERC20.sol\":9536:9585  _beforeTokenTransfer(account, address(0), amount) */\n      jump\t// in\n    tag_242:\n        /* \"NFT-Contracts/contracts/ERC20.sol\":9598:9620  uint256 accountBalance */\n      0x00\n        /* \"NFT-Contracts/contracts/ERC20.sol\":9623:9632  _balances */\n      dup1\n        /* \"NFT-Contracts/contracts/ERC20.sol\":9623:9641  _balances[account] */\n      0x00\n        /* \"NFT-Contracts/contracts/ERC20.sol\":9633:9640  account */\n      dup5\n        /* \"NFT-Contracts/contracts/ERC20.sol\":9623:9641  _balances[account] */\n      0xffffffffffffffffffffffffffffffffffffffff\n      and\n      0xffffffffffffffffffffffffffffffffffffffff\n      and\n      dup2\n      mstore\n      0x20\n      add\n      swap1\n      dup2\n      mstore\n      0x20\n      add\n      0x00\n      keccak256\n      sload\n        /* \"NFT-Contracts/contracts/ERC20.sol\":9598:9641  uint256 accountBalance = _balances[account] */\n      swap1\n      pop\n        /* \"NFT-Contracts/contracts/ERC20.sol\":9678:9684  amount */\n      dup2\n        /* \"NFT-Contracts/contracts/ERC20.sol\":9660:9674  accountBalance */\n      dup2\n        /* \"NFT-Contracts/contracts/ERC20.sol\":9660:9684  accountBalance >= amount */\n      lt\n      iszero\n        /* \"NFT-Contracts/contracts/ERC20.sol\":9652:9723  require(accountBalance >= amount, \"ERC20: burn amount exceeds balance\") */\n      tag_243\n      jumpi\n      mload(0x40)\n      0x08c379a000000000000000000000000000000000000000000000000000000000\n      dup2\n      mstore\n      0x04\n      add\n      tag_244\n      swap1\n      tag_245\n      jump\t// in\n    tag_244:\n      mload(0x40)\n      dup1\n      swap2\n      sub\n      swap1\n      revert\n    tag_243:\n        /* \"NFT-Contracts/contracts/ERC20.sol\":9797:9803  amount */\n      dup2\n        /* \"NFT-Contracts/contracts/ERC20.sol\":9780:9794  accountBalance */\n      dup2\n        /* \"NFT-Contracts/contracts/ERC20.sol\":9780:9803  accountBalance - amount */\n      sub\n        /* \"NFT-Contracts/contracts/ERC20.sol\":9759:9768  _balances */\n      0x00\n        /* \"NFT-Contracts/contracts/ERC20.sol\":9759:9777  _balances[account] */\n      dup1\n        /* \"NFT-Contracts/contracts/ERC20.sol\":9769:9776  account */\n      dup6\n        /* \"NFT-Contracts/contracts/ERC20.sol\":9759:9777  _balances[account] */\n      0xffffffffffffffffffffffffffffffffffffffff\n      and\n      0xffffffffffffffffffffffffffffffffffffffff\n      and\n      dup2\n      mstore\n      0x20\n      add\n      swap1\n      dup2\n      mstore\n      0x20\n      add\n      0x00\n      keccak256\n        /* \"NFT-Contracts/contracts/ERC20.sol\":9759:9803  _balances[account] = accountBalance - amount */\n      dup2\n      swap1\n      sstore\n      pop\n        /* \"NFT-Contracts/contracts/ERC20.sol\":9841:9847  amount */\n      dup2\n        /* \"NFT-Contracts/contracts/ERC20.sol\":9825:9837  _totalSupply */\n      0x02\n      0x00\n        /* \"NFT-Contracts/contracts/ERC20.sol\":9825:9847  _totalSupply -= amount */\n      dup3\n      dup3\n      sload\n      tag_246\n      swap2\n      swap1\n      tag_247\n      jump\t// in\n    tag_246:\n      swap3\n      pop\n      pop\n      dup2\n      swap1\n      sstore\n      pop\n        /* \"NFT-Contracts/contracts/ERC20.sol\":9891:9892  0 */\n      0x00\n        /* \"NFT-Contracts/contracts/ERC20.sol\":9865:9902  Transfer(account, address(0), amount) */\n      0xffffffffffffffffffffffffffffffffffffffff\n      and\n        /* \"NFT-Contracts/contracts/ERC20.sol\":9874:9881  account */\n      dup4\n        /* \"NFT-Contracts/contracts/ERC20.sol\":9865:9902  Transfer(account, address(0), amount) */\n      0xffffffffffffffffffffffffffffffffffffffff\n      and\n      0xddf252ad1be2c89b69c2b068fc378daa952ba7f163c4a11628f55a4df523b3ef\n        /* \"NFT-Contracts/contracts/ERC20.sol\":9895:9901  amount */\n      dup5\n        /* \"NFT-Contracts/contracts/ERC20.sol\":9865:9902  Transfer(account, address(0), amount) */\n      mload(0x40)\n      tag_248\n      swap2\n      swap1\n      tag_39\n      jump\t// in\n    tag_248:\n      mload(0x40)\n      dup1\n      swap2\n      sub\n      swap1\n      log3\n        /* \"NFT-Contracts/contracts/ERC20.sol\":9915:9963  _afterTokenTransfer(account, address(0), amount) */\n      tag_249\n        /* \"NFT-Contracts/contracts/ERC20.sol\":9935:9942  account */\n      dup4\n        /* \"NFT-Contracts/contracts/ERC20.sol\":9952:9953  0 */\n      0x00\n        /* \"NFT-Contracts/contracts/ERC20.sol\":9956:9962  amount */\n      dup5\n        /* \"NFT-Contracts/contracts/ERC20.sol\":9915:9934  _afterTokenTransfer */\n      tag_222\n        /* \"NFT-Contracts/contracts/ERC20.sol\":9915:9963  _afterTokenTransfer(account, address(0), amount) */\n      jump\t// in\n    tag_249:\n        /* \"NFT-Contracts/contracts/ERC20.sol\":9445:9971  {... */\n      pop\n        /* \"NFT-Contracts/contracts/ERC20.sol\":9380:9971  function _burn(address account, uint256 amount) internal virtual {... */\n      pop\n      pop\n      jump\t// out\n        /* \"NFT-Contracts/contracts/External/Ownable.sol\":2503:2694  function _transferOwnership(address newOwner) internal virtual {... */\n    tag_156:\n        /* \"NFT-Contracts/contracts/External/Ownable.sol\":2577:2593  address oldOwner */\n      0x00\n        /* \"NFT-Contracts/contracts/External/Ownable.sol\":2596:2602  _owner */\n      0x05\n      0x00\n      swap1\n      sload\n      swap1\n      0x0100\n      exp\n      swap1\n      div\n      0xffffffffffffffffffffffffffffffffffffffff\n      and\n        /* \"NFT-Contracts/contracts/External/Ownable.sol\":2577:2602  address oldOwner = _owner */\n      swap1\n      pop\n        /* \"NFT-Contracts/contracts/External/Ownable.sol\":2622:2630  newOwner */\n      dup2\n        /* \"NFT-Contracts/contracts/External/Ownable.sol\":2613:2619  _owner */\n      0x05\n      0x00\n        /* \"NFT-Contracts/contracts/External/Ownable.sol\":2613:2630  _owner = newOwner */\n      0x0100\n      exp\n      dup2\n      sload\n      dup2\n      0xffffffffffffffffffffffffffffffffffffffff\n      mul\n      not\n      and\n      swap1\n      dup4\n      0xffffffffffffffffffffffffffffffffffffffff\n      and\n      mul\n      or\n      swap1\n      sstore\n      pop\n        /* \"NFT-Contracts/contracts/External/Ownable.sol\":2677:2685  newOwner */\n      dup2\n        /* \"NFT-Contracts/contracts/External/Ownable.sol\":2646:2686  OwnershipTransferred(oldOwner, newOwner) */\n      0xffffffffffffffffffffffffffffffffffffffff\n      and\n        /* \"NFT-Contracts/contracts/External/Ownable.sol\":2667:2675  oldOwner */\n      dup2\n        /* \"NFT-Contracts/contracts/External/Ownable.sol\":2646:2686  OwnershipTransferred(oldOwner, newOwner) */\n      0xffffffffffffffffffffffffffffffffffffffff\n      and\n      0x8be0079c531659141344cd1fd0a4f28419497f9722a3daafe3b4186f6b6457e0\n      mload(0x40)\n      mload(0x40)\n      dup1\n      swap2\n      sub\n      swap1\n      log3\n        /* \"NFT-Contracts/contracts/External/Ownable.sol\":2566:2694  {... */\n      pop\n        /* \"NFT-Contracts/contracts/External/Ownable.sol\":2503:2694  function _transferOwnership(address newOwner) internal virtual {... */\n      pop\n      jump\t// out\n        /* \"NFT-Contracts/contracts/ERC20.sol\":12133:12258  function _beforeTokenTransfer(... */\n    tag_215:\n      pop\n      pop\n      pop\n      jump\t// out\n        /* \"NFT-Contracts/contracts/ERC20.sol\":12862:12986  function _afterTokenTransfer(... */\n    tag_222:\n      pop\n      pop\n      pop\n      jump\t// out\n        /* \"#utility.yul\":7:106   */\n    tag_253:\n        /* \"#utility.yul\":59:65   */\n      0x00\n        /* \"#utility.yul\":93:98   */\n      dup2\n        /* \"#utility.yul\":87:99   */\n      mload\n        /* \"#utility.yul\":77:99   */\n      swap1\n      pop\n        /* \"#utility.yul\":7:106   */\n      swap2\n      swap1\n      pop\n      jump\t// out\n        /* \"#utility.yul\":112:281   */\n    tag_254:\n        /* \"#utility.yul\":196:207   */\n      0x00\n        /* \"#utility.yul\":230:236   */\n      dup3\n        /* \"#utility.yul\":225:228   */\n      dup3\n        /* \"#utility.yul\":218:237   */\n      mstore\n        /* \"#utility.yul\":270:274   */\n      0x20\n        /* \"#utility.yul\":265:268   */\n      dup3\n        /* \"#utility.yul\":261:275   */\n      add\n        /* \"#utility.yul\":246:275   */\n      swap1\n      pop\n        /* \"#utility.yul\":112:281   */\n      swap3\n      swap2\n      pop\n      pop\n      jump\t// out\n        /* \"#utility.yul\":287:533   */\n    tag_255:\n        /* \"#utility.yul\":368:369   */\n      0x00\n        /* \"#utility.yul\":378:491   */\n    tag_311:\n        /* \"#utility.yul\":392:398   */\n      dup4\n        /* \"#utility.yul\":389:390   */\n      dup2\n        /* \"#utility.yul\":386:399   */\n      lt\n        /* \"#utility.yul\":378:491   */\n      iszero\n      tag_313\n      jumpi\n        /* \"#utility.yul\":477:478   */\n      dup1\n        /* \"#utility.yul\":472:475   */\n      dup3\n        /* \"#utility.yul\":468:479   */\n      add\n        /* \"#utility.yul\":462:480   */\n      mload\n        /* \"#utility.yul\":458:459   */\n      dup2\n        /* \"#utility.yul\":453:456   */\n      dup5\n        /* \"#utility.yul\":449:460   */\n      add\n        /* \"#utility.yul\":442:481   */\n      mstore\n        /* \"#utility.yul\":414:416   */\n      0x20\n        /* \"#utility.yul\":411:412   */\n      dup2\n        /* \"#utility.yul\":407:417   */\n      add\n        /* \"#utility.yul\":402:417   */\n      swap1\n      pop\n        /* \"#utility.yul\":378:491   */\n      jump(tag_311)\n    tag_313:\n        /* \"#utility.yul\":525:526   */\n      0x00\n        /* \"#utility.yul\":516:522   */\n      dup5\n        /* \"#utility.yul\":511:514   */\n      dup5\n        /* \"#utility.yul\":507:523   */\n      add\n        /* \"#utility.yul\":500:527   */\n      mstore\n        /* \"#utility.yul\":349:533   */\n      pop\n        /* \"#utility.yul\":287:533   */\n      pop\n      pop\n      pop\n      jump\t// out\n        /* \"#utility.yul\":539:641   */\n    tag_256:\n        /* \"#utility.yul\":580:586   */\n      0x00\n        /* \"#utility.yul\":631:633   */\n      0x1f\n        /* \"#utility.yul\":627:634   */\n      not\n        /* \"#utility.yul\":622:624   */\n      0x1f\n        /* \"#utility.yul\":615:620   */\n      dup4\n        /* \"#utility.yul\":611:625   */\n      add\n        /* \"#utility.yul\":607:635   */\n      and\n        /* \"#utility.yul\":597:635   */\n      swap1\n      pop\n        /* \"#utility.yul\":539:641   */\n      swap2\n      swap1\n      pop\n      jump\t// out\n        /* \"#utility.yul\":647:1024   */\n    tag_257:\n        /* \"#utility.yul\":735:738   */\n      0x00\n        /* \"#utility.yul\":763:802   */\n      tag_316\n        /* \"#utility.yul\":796:801   */\n      dup3\n        /* \"#utility.yul\":763:802   */\n      tag_253\n      jump\t// in\n    tag_316:\n        /* \"#utility.yul\":818:889   */\n      tag_317\n        /* \"#utility.yul\":882:888   */\n      dup2\n        /* \"#utility.yul\":877:880   */\n      dup6\n        /* \"#utility.yul\":818:889   */\n      tag_254\n      jump\t// in\n    tag_317:\n        /* \"#utility.yul\":811:889   */\n      swap4\n      pop\n        /* \"#utility.yul\":898:963   */\n      tag_318\n        /* \"#utility.yul\":956:962   */\n      dup2\n        /* \"#utility.yul\":951:954   */\n      dup6\n        /* \"#utility.yul\":944:948   */\n      0x20\n        /* \"#utility.yul\":937:942   */\n      dup7\n        /* \"#utility.yul\":933:949   */\n      add\n        /* \"#utility.yul\":898:963   */\n      tag_255\n      jump\t// in\n    tag_318:\n        /* \"#utility.yul\":988:1017   */\n      tag_319\n        /* \"#utility.yul\":1010:1016   */\n      dup2\n        /* \"#utility.yul\":988:1017   */\n      tag_256\n      jump\t// in\n    tag_319:\n        /* \"#utility.yul\":983:986   */\n      dup5\n        /* \"#utility.yul\":979:1018   */\n      add\n        /* \"#utility.yul\":972:1018   */\n      swap2\n      pop\n        /* \"#utility.yul\":739:1024   */\n      pop\n        /* \"#utility.yul\":647:1024   */\n      swap3\n      swap2\n      pop\n      pop\n      jump\t// out\n        /* \"#utility.yul\":1030:1343   */\n    tag_29:\n        /* \"#utility.yul\":1143:1147   */\n      0x00\n        /* \"#utility.yul\":1181:1183   */\n      0x20\n        /* \"#utility.yul\":1170:1179   */\n      dup3\n        /* \"#utility.yul\":1166:1184   */\n      add\n        /* \"#utility.yul\":1158:1184   */\n      swap1\n      pop\n        /* \"#utility.yul\":1230:1239   */\n      dup2\n        /* \"#utility.yul\":1224:1228   */\n      dup2\n        /* \"#utility.yul\":1220:1240   */\n      sub\n        /* \"#utility.yul\":1216:1217   */\n      0x00\n        /* \"#utility.yul\":1205:1214   */\n      dup4\n        /* \"#utility.yul\":1201:1218   */\n      add\n        /* \"#utility.yul\":1194:1241   */\n      mstore\n        /* \"#utility.yul\":1258:1336   */\n      tag_321\n        /* \"#utility.yul\":1331:1335   */\n      dup2\n        /* \"#utility.yul\":1322:1328   */\n      dup5\n        /* \"#utility.yul\":1258:1336   */\n      tag_257\n      jump\t// in\n    tag_321:\n        /* \"#utility.yul\":1250:1336   */\n      swap1\n      pop\n        /* \"#utility.yul\":1030:1343   */\n      swap3\n      swap2\n      pop\n      pop\n      jump\t// out\n        /* \"#utility.yul\":1430:1547   */\n    tag_259:\n        /* \"#utility.yul\":1539:1540   */\n      0x00\n        /* \"#utility.yul\":1536:1537   */\n      dup1\n        /* \"#utility.yul\":1529:1541   */\n      revert\n        /* \"#utility.yul\":1676:1802   */\n    tag_261:\n        /* \"#utility.yul\":1713:1720   */\n      0x00\n        /* \"#utility.yul\":1753:1795   */\n      0xffffffffffffffffffffffffffffffffffffffff\n        /* \"#utility.yul\":1746:1751   */\n      dup3\n        /* \"#utility.yul\":1742:1796   */\n      and\n        /* \"#utility.yul\":1731:1796   */\n      swap1\n      pop\n        /* \"#utility.yul\":1676:1802   */\n      swap2\n      swap1\n      pop\n      jump\t// out\n        /* \"#utility.yul\":1808:1904   */\n    tag_262:\n        /* \"#utility.yul\":1845:1852   */\n      0x00\n        /* \"#utility.yul\":1874:1898   */\n      tag_327\n        /* \"#utility.yul\":1892:1897   */\n      dup3\n        /* \"#utility.yul\":1874:1898   */\n      tag_261\n      jump\t// in\n    tag_327:\n        /* \"#utility.yul\":1863:1898   */\n      swap1\n      pop\n        /* \"#utility.yul\":1808:1904   */\n      swap2\n      swap1\n      pop\n      jump\t// out\n        /* \"#utility.yul\":1910:2032   */\n    tag_263:\n        /* \"#utility.yul\":1983:2007   */\n      tag_329\n        /* \"#utility.yul\":2001:2006   */\n      dup2\n        /* \"#utility.yul\":1983:2007   */\n      tag_262\n      jump\t// in\n    tag_329:\n        /* \"#utility.yul\":1976:1981   */\n      dup2\n        /* \"#utility.yul\":1973:2008   */\n      eq\n        /* \"#utility.yul\":1963:2026   */\n      tag_330\n      jumpi\n        /* \"#utility.yul\":2022:2023   */\n      0x00\n        /* \"#utility.yul\":2019:2020   */\n      dup1\n        /* \"#utility.yul\":2012:2024   */\n      revert\n        /* \"#utility.yul\":1963:2026   */\n    tag_330:\n        /* \"#utility.yul\":1910:2032   */\n      pop\n      jump\t// out\n        /* \"#utility.yul\":2038:2177   */\n    tag_264:\n        /* \"#utility.yul\":2084:2089   */\n      0x00\n        /* \"#utility.yul\":2122:2128   */\n      dup2\n        /* \"#utility.yul\":2109:2129   */\n      calldataload\n        /* \"#utility.yul\":2100:2129   */\n      swap1\n      pop\n        /* \"#utility.yul\":2138:2171   */\n      tag_332\n        /* \"#utility.yul\":2165:2170   */\n      dup2\n        /* \"#utility.yul\":2138:2171   */\n      tag_263\n      jump\t// in\n    tag_332:\n        /* \"#utility.yul\":2038:2177   */\n      swap3\n      swap2\n      pop\n      pop\n      jump\t// out\n        /* \"#utility.yul\":2183:2260   */\n    tag_265:\n        /* \"#utility.yul\":2220:2227   */\n      0x00\n        /* \"#utility.yul\":2249:2254   */\n      dup2\n        /* \"#utility.yul\":2238:2254   */\n      swap1\n      pop\n        /* \"#utility.yul\":2183:2260   */\n      swap2\n      swap1\n      pop\n      jump\t// out\n        /* \"#utility.yul\":2266:2388   */\n    tag_266:\n        /* \"#utility.yul\":2339:2363   */\n      tag_335\n        /* \"#utility.yul\":2357:2362   */\n      dup2\n        /* \"#utility.yul\":2339:2363   */\n      tag_265\n      jump\t// in\n    tag_335:\n        /* \"#utility.yul\":2332:2337   */\n      dup2\n        /* \"#utility.yul\":2329:2364   */\n      eq\n        /* \"#utility.yul\":2319:2382   */\n      tag_336\n      jumpi\n        /* \"#utility.yul\":2378:2379   */\n      0x00\n        /* \"#utility.yul\":2375:2376   */\n      dup1\n        /* \"#utility.yul\":2368:2380   */\n      revert\n        /* \"#utility.yul\":2319:2382   */\n    tag_336:\n        /* \"#utility.yul\":2266:2388   */\n      pop\n      jump\t// out\n        /* \"#utility.yul\":2394:2533   */\n    tag_267:\n        /* \"#utility.yul\":2440:2445   */\n      0x00\n        /* \"#utility.yul\":2478:2484   */\n      dup2\n        /* \"#utility.yul\":2465:2485   */\n      calldataload\n        /* \"#utility.yul\":2456:2485   */\n      swap1\n      pop\n        /* \"#utility.yul\":2494:2527   */\n      tag_338\n        /* \"#utility.yul\":2521:2526   */\n      dup2\n        /* \"#utility.yul\":2494:2527   */\n      tag_266\n      jump\t// in\n    tag_338:\n        /* \"#utility.yul\":2394:2533   */\n      swap3\n      swap2\n      pop\n      pop\n      jump\t// out\n        /* \"#utility.yul\":2539:3013   */\n    tag_32:\n        /* \"#utility.yul\":2607:2613   */\n      0x00\n        /* \"#utility.yul\":2615:2621   */\n      dup1\n        /* \"#utility.yul\":2664:2666   */\n      0x40\n        /* \"#utility.yul\":2652:2661   */\n      dup4\n        /* \"#utility.yul\":2643:2650   */\n      dup6\n        /* \"#utility.yul\":2639:2662   */\n      sub\n        /* \"#utility.yul\":2635:2667   */\n      slt\n        /* \"#utility.yul\":2632:2751   */\n      iszero\n      tag_340\n      jumpi\n        /* \"#utility.yul\":2670:2749   */\n      tag_341\n      tag_259\n      jump\t// in\n    tag_341:\n        /* \"#utility.yul\":2632:2751   */\n    tag_340:\n        /* \"#utility.yul\":2790:2791   */\n      0x00\n        /* \"#utility.yul\":2815:2868   */\n      tag_342\n        /* \"#utility.yul\":2860:2867   */\n      dup6\n        /* \"#utility.yul\":2851:2857   */\n      dup3\n        /* \"#utility.yul\":2840:2849   */\n      dup7\n        /* \"#utility.yul\":2836:2858   */\n      add\n        /* \"#utility.yul\":2815:2868   */\n      tag_264\n      jump\t// in\n    tag_342:\n        /* \"#utility.yul\":2805:2868   */\n      swap3\n      pop\n        /* \"#utility.yul\":2761:2878   */\n      pop\n        /* \"#utility.yul\":2917:2919   */\n      0x20\n        /* \"#utility.yul\":2943:2996   */\n      tag_343\n        /* \"#utility.yul\":2988:2995   */\n      dup6\n        /* \"#utility.yul\":2979:2985   */\n      dup3\n        /* \"#utility.yul\":2968:2977   */\n      dup7\n        /* \"#utility.yul\":2964:2986   */\n      add\n        /* \"#utility.yul\":2943:2996   */\n      tag_267\n      jump\t// in\n    tag_343:\n        /* \"#utility.yul\":2933:2996   */\n      swap2\n      pop\n        /* \"#utility.yul\":2888:3006   */\n      pop\n        /* \"#utility.yul\":2539:3013   */\n      swap3\n      pop\n      swap3\n      swap1\n      pop\n      jump\t// out\n        /* \"#utility.yul\":3019:3109   */\n    tag_268:\n        /* \"#utility.yul\":3053:3060   */\n      0x00\n        /* \"#utility.yul\":3096:3101   */\n      dup2\n        /* \"#utility.yul\":3089:3102   */\n      iszero\n        /* \"#utility.yul\":3082:3103   */\n      iszero\n        /* \"#utility.yul\":3071:3103   */\n      swap1\n      pop\n        /* \"#utility.yul\":3019:3109   */\n      swap2\n      swap1\n      pop\n      jump\t// out\n        /* \"#utility.yul\":3115:3224   */\n    tag_269:\n        /* \"#utility.yul\":3196:3217   */\n      tag_346\n        /* \"#utility.yul\":3211:3216   */\n      dup2\n        /* \"#utility.yul\":3196:3217   */\n      tag_268\n      jump\t// in\n    tag_346:\n        /* \"#utility.yul\":3191:3194   */\n      dup3\n        /* \"#utility.yul\":3184:3218   */\n      mstore\n        /* \"#utility.yul\":3115:3224   */\n      pop\n      pop\n      jump\t// out\n        /* \"#utility.yul\":3230:3440   */\n    tag_35:\n        /* \"#utility.yul\":3317:3321   */\n      0x00\n        /* \"#utility.yul\":3355:3357   */\n      0x20\n        /* \"#utility.yul\":3344:3353   */\n      dup3\n        /* \"#utility.yul\":3340:3358   */\n      add\n        /* \"#utility.yul\":3332:3358   */\n      swap1\n      pop\n        /* \"#utility.yul\":3368:3433   */\n      tag_348\n        /* \"#utility.yul\":3430:3431   */\n      0x00\n        /* \"#utility.yul\":3419:3428   */\n      dup4\n        /* \"#utility.yul\":3415:3432   */\n      add\n        /* \"#utility.yul\":3406:3412   */\n      dup5\n        /* \"#utility.yul\":3368:3433   */\n      tag_269\n      jump\t// in\n    tag_348:\n        /* \"#utility.yul\":3230:3440   */\n      swap3\n      swap2\n      pop\n      pop\n      jump\t// out\n        /* \"#utility.yul\":3446:3564   */\n    tag_270:\n        /* \"#utility.yul\":3533:3557   */\n      tag_350\n        /* \"#utility.yul\":3551:3556   */\n      dup2\n        /* \"#utility.yul\":3533:3557   */\n      tag_265\n      jump\t// in\n    tag_350:\n        /* \"#utility.yul\":3528:3531   */\n      dup3\n        /* \"#utility.yul\":3521:3558   */\n      mstore\n        /* \"#utility.yul\":3446:3564   */\n      pop\n      pop\n      jump\t// out\n        /* \"#utility.yul\":3570:3792   */\n    tag_39:\n        /* \"#utility.yul\":3663:3667   */\n      0x00\n        /* \"#utility.yul\":3701:3703   */\n      0x20\n        /* \"#utility.yul\":3690:3699   */\n      dup3\n        /* \"#utility.yul\":3686:3704   */\n      add\n        /* \"#utility.yul\":3678:3704   */\n      swap1\n      pop\n        /* \"#utility.yul\":3714:3785   */\n      tag_352\n        /* \"#utility.yul\":3782:3783   */\n      0x00\n        /* \"#utility.yul\":3771:3780   */\n      dup4\n        /* \"#utility.yul\":3767:3784   */\n      add\n        /* \"#utility.yul\":3758:3764   */\n      dup5\n        /* \"#utility.yul\":3714:3785   */\n      tag_270\n      jump\t// in\n    tag_352:\n        /* \"#utility.yul\":3570:3792   */\n      swap3\n      swap2\n      pop\n      pop\n      jump\t// out\n        /* \"#utility.yul\":3798:4417   */\n    tag_45:\n        /* \"#utility.yul\":3875:3881   */\n      0x00\n        /* \"#utility.yul\":3883:3889   */\n      dup1\n        /* \"#utility.yul\":3891:3897   */\n      0x00\n        /* \"#utility.yul\":3940:3942   */\n      0x60\n        /* \"#utility.yul\":3928:3937   */\n      dup5\n        /* \"#utility.yul\":3919:3926   */\n      dup7\n        /* \"#utility.yul\":3915:3938   */\n      sub\n        /* \"#utility.yul\":3911:3943   */\n      slt\n        /* \"#utility.yul\":3908:4027   */\n      iszero\n      tag_354\n      jumpi\n        /* \"#utility.yul\":3946:4025   */\n      tag_355\n      tag_259\n      jump\t// in\n    tag_355:\n        /* \"#utility.yul\":3908:4027   */\n    tag_354:\n        /* \"#utility.yul\":4066:4067   */\n      0x00\n        /* \"#utility.yul\":4091:4144   */\n      tag_356\n        /* \"#utility.yul\":4136:4143   */\n      dup7\n        /* \"#utility.yul\":4127:4133   */\n      dup3\n        /* \"#utility.yul\":4116:4125   */\n      dup8\n        /* \"#utility.yul\":4112:4134   */\n      add\n        /* \"#utility.yul\":4091:4144   */\n      tag_264\n      jump\t// in\n    tag_356:\n        /* \"#utility.yul\":4081:4144   */\n      swap4\n      pop\n        /* \"#utility.yul\":4037:4154   */\n      pop\n        /* \"#utility.yul\":4193:4195   */\n      0x20\n        /* \"#utility.yul\":4219:4272   */\n      tag_357\n        /* \"#utility.yul\":4264:4271   */\n      dup7\n        /* \"#utility.yul\":4255:4261   */\n      dup3\n        /* \"#utility.yul\":4244:4253   */\n      dup8\n        /* \"#utility.yul\":4240:4262   */\n      add\n        /* \"#utility.yul\":4219:4272   */\n      tag_264\n      jump\t// in\n    tag_357:\n        /* \"#utility.yul\":4209:4272   */\n      swap3\n      pop\n        /* \"#utility.yul\":4164:4282   */\n      pop\n        /* \"#utility.yul\":4321:4323   */\n      0x40\n        /* \"#utility.yul\":4347:4400   */\n      tag_358\n        /* \"#utility.yul\":4392:4399   */\n      dup7\n        /* \"#utility.yul\":4383:4389   */\n      dup3\n        /* \"#utility.yul\":4372:4381   */\n      dup8\n        /* \"#utility.yul\":4368:4390   */\n      add\n        /* \"#utility.yul\":4347:4400   */\n      tag_267\n      jump\t// in\n    tag_358:\n        /* \"#utility.yul\":4337:4400   */\n      swap2\n      pop\n        /* \"#utility.yul\":4292:4410   */\n      pop\n        /* \"#utility.yul\":3798:4417   */\n      swap3\n      pop\n      swap3\n      pop\n      swap3\n      jump\t// out\n        /* \"#utility.yul\":4423:4509   */\n    tag_271:\n        /* \"#utility.yul\":4458:4465   */\n      0x00\n        /* \"#utility.yul\":4498:4502   */\n      0xff\n        /* \"#utility.yul\":4491:4496   */\n      dup3\n        /* \"#utility.yul\":4487:4503   */\n      and\n        /* \"#utility.yul\":4476:4503   */\n      swap1\n      pop\n        /* \"#utility.yul\":4423:4509   */\n      swap2\n      swap1\n      pop\n      jump\t// out\n        /* \"#utility.yul\":4515:4627   */\n    tag_272:\n        /* \"#utility.yul\":4598:4620   */\n      tag_361\n        /* \"#utility.yul\":4614:4619   */\n      dup2\n        /* \"#utility.yul\":4598:4620   */\n      tag_271\n      jump\t// in\n    tag_361:\n        /* \"#utility.yul\":4593:4596   */\n      dup3\n        /* \"#utility.yul\":4586:4621   */\n      mstore\n        /* \"#utility.yul\":4515:4627   */\n      pop\n      pop\n      jump\t// out\n        /* \"#utility.yul\":4633:4847   */\n    tag_51:\n        /* \"#utility.yul\":4722:4726   */\n      0x00\n        /* \"#utility.yul\":4760:4762   */\n      0x20\n        /* \"#utility.yul\":4749:4758   */\n      dup3\n        /* \"#utility.yul\":4745:4763   */\n      add\n        /* \"#utility.yul\":4737:4763   */\n      swap1\n      pop\n        /* \"#utility.yul\":4773:4840   */\n      tag_363\n        /* \"#utility.yul\":4837:4838   */\n      0x00\n        /* \"#utility.yul\":4826:4835   */\n      dup4\n        /* \"#utility.yul\":4822:4839   */\n      add\n        /* \"#utility.yul\":4813:4819   */\n      dup5\n        /* \"#utility.yul\":4773:4840   */\n      tag_272\n      jump\t// in\n    tag_363:\n        /* \"#utility.yul\":4633:4847   */\n      swap3\n      swap2\n      pop\n      pop\n      jump\t// out\n        /* \"#utility.yul\":4853:5182   */\n    tag_67:\n        /* \"#utility.yul\":4912:4918   */\n      0x00\n        /* \"#utility.yul\":4961:4963   */\n      0x20\n        /* \"#utility.yul\":4949:4958   */\n      dup3\n        /* \"#utility.yul\":4940:4947   */\n      dup5\n        /* \"#utility.yul\":4936:4959   */\n      sub\n        /* \"#utility.yul\":4932:4964   */\n      slt\n        /* \"#utility.yul\":4929:5048   */\n      iszero\n      tag_365\n      jumpi\n        /* \"#utility.yul\":4967:5046   */\n      tag_366\n      tag_259\n      jump\t// in\n    tag_366:\n        /* \"#utility.yul\":4929:5048   */\n    tag_365:\n        /* \"#utility.yul\":5087:5088   */\n      0x00\n        /* \"#utility.yul\":5112:5165   */\n      tag_367\n        /* \"#utility.yul\":5157:5164   */\n      dup5\n        /* \"#utility.yul\":5148:5154   */\n      dup3\n        /* \"#utility.yul\":5137:5146   */\n      dup6\n        /* \"#utility.yul\":5133:5155   */\n      add\n        /* \"#utility.yul\":5112:5165   */\n      tag_267\n      jump\t// in\n    tag_367:\n        /* \"#utility.yul\":5102:5165   */\n      swap2\n      pop\n        /* \"#utility.yul\":5058:5175   */\n      pop\n        /* \"#utility.yul\":4853:5182   */\n      swap3\n      swap2\n      pop\n      pop\n      jump\t// out\n        /* \"#utility.yul\":5188:5517   */\n    tag_71:\n        /* \"#utility.yul\":5247:5253   */\n      0x00\n        /* \"#utility.yul\":5296:5298   */\n      0x20\n        /* \"#utility.yul\":5284:5293   */\n      dup3\n        /* \"#utility.yul\":5275:5282   */\n      dup5\n        /* \"#utility.yul\":5271:5294   */\n      sub\n        /* \"#utility.yul\":5267:5299   */\n      slt\n        /* \"#utility.yul\":5264:5383   */\n      iszero\n      tag_369\n      jumpi\n        /* \"#utility.yul\":5302:5381   */\n      tag_370\n      tag_259\n      jump\t// in\n    tag_370:\n        /* \"#utility.yul\":5264:5383   */\n    tag_369:\n        /* \"#utility.yul\":5422:5423   */\n      0x00\n        /* \"#utility.yul\":5447:5500   */\n      tag_371\n        /* \"#utility.yul\":5492:5499   */\n      dup5\n        /* \"#utility.yul\":5483:5489   */\n      dup3\n        /* \"#utility.yul\":5472:5481   */\n      dup6\n        /* \"#utility.yul\":5468:5490   */\n      add\n        /* \"#utility.yul\":5447:5500   */\n      tag_264\n      jump\t// in\n    tag_371:\n        /* \"#utility.yul\":5437:5500   */\n      swap2\n      pop\n        /* \"#utility.yul\":5393:5510   */\n      pop\n        /* \"#utility.yul\":5188:5517   */\n      swap3\n      swap2\n      pop\n      pop\n      jump\t// out\n        /* \"#utility.yul\":5523:5641   */\n    tag_273:\n        /* \"#utility.yul\":5610:5634   */\n      tag_373\n        /* \"#utility.yul\":5628:5633   */\n      dup2\n        /* \"#utility.yul\":5610:5634   */\n      tag_262\n      jump\t// in\n    tag_373:\n        /* \"#utility.yul\":5605:5608   */\n      dup3\n        /* \"#utility.yul\":5598:5635   */\n      mstore\n        /* \"#utility.yul\":5523:5641   */\n      pop\n      pop\n      jump\t// out\n        /* \"#utility.yul\":5647:5869   */\n    tag_82:\n        /* \"#utility.yul\":5740:5744   */\n      0x00\n        /* \"#utility.yul\":5778:5780   */\n      0x20\n        /* \"#utility.yul\":5767:5776   */\n      dup3\n        /* \"#utility.yul\":5763:5781   */\n      add\n        /* \"#utility.yul\":5755:5781   */\n      swap1\n      pop\n        /* \"#utility.yul\":5791:5862   */\n      tag_375\n        /* \"#utility.yul\":5859:5860   */\n      0x00\n        /* \"#utility.yul\":5848:5857   */\n      dup4\n        /* \"#utility.yul\":5844:5861   */\n      add\n        /* \"#utility.yul\":5835:5841   */\n      dup5\n        /* \"#utility.yul\":5791:5862   */\n      tag_273\n      jump\t// in\n    tag_375:\n        /* \"#utility.yul\":5647:5869   */\n      swap3\n      swap2\n      pop\n      pop\n      jump\t// out\n        /* \"#utility.yul\":5875:6349   */\n    tag_96:\n        /* \"#utility.yul\":5943:5949   */\n      0x00\n        /* \"#utility.yul\":5951:5957   */\n      dup1\n        /* \"#utility.yul\":6000:6002   */\n      0x40\n        /* \"#utility.yul\":5988:5997   */\n      dup4\n        /* \"#utility.yul\":5979:5986   */\n      dup6\n        /* \"#utility.yul\":5975:5998   */\n      sub\n        /* \"#utility.yul\":5971:6003   */\n      slt\n        /* \"#utility.yul\":5968:6087   */\n      iszero\n      tag_377\n      jumpi\n        /* \"#utility.yul\":6006:6085   */\n      tag_378\n      tag_259\n      jump\t// in\n    tag_378:\n        /* \"#utility.yul\":5968:6087   */\n    tag_377:\n        /* \"#utility.yul\":6126:6127   */\n      0x00\n        /* \"#utility.yul\":6151:6204   */\n      tag_379\n        /* \"#utility.yul\":6196:6203   */\n      dup6\n        /* \"#utility.yul\":6187:6193   */\n      dup3\n        /* \"#utility.yul\":6176:6185   */\n      dup7\n        /* \"#utility.yul\":6172:6194   */\n      add\n        /* \"#utility.yul\":6151:6204   */\n      tag_264\n      jump\t// in\n    tag_379:\n        /* \"#utility.yul\":6141:6204   */\n      swap3\n      pop\n        /* \"#utility.yul\":6097:6214   */\n      pop\n        /* \"#utility.yul\":6253:6255   */\n      0x20\n        /* \"#utility.yul\":6279:6332   */\n      tag_380\n        /* \"#utility.yul\":6324:6331   */\n      dup6\n        /* \"#utility.yul\":6315:6321   */\n      dup3\n        /* \"#utility.yul\":6304:6313   */\n      dup7\n        /* \"#utility.yul\":6300:6322   */\n      add\n        /* \"#utility.yul\":6279:6332   */\n      tag_264\n      jump\t// in\n    tag_380:\n        /* \"#utility.yul\":6269:6332   */\n      swap2\n      pop\n        /* \"#utility.yul\":6224:6342   */\n      pop\n        /* \"#utility.yul\":5875:6349   */\n      swap3\n      pop\n      swap3\n      swap1\n      pop\n      jump\t// out\n        /* \"#utility.yul\":6355:6535   */\n    tag_274:\n        /* \"#utility.yul\":6403:6480   */\n      0x4e487b7100000000000000000000000000000000000000000000000000000000\n        /* \"#utility.yul\":6400:6401   */\n      0x00\n        /* \"#utility.yul\":6393:6481   */\n      mstore\n        /* \"#utility.yul\":6500:6504   */\n      0x22\n        /* \"#utility.yul\":6497:6498   */\n      0x04\n        /* \"#utility.yul\":6490:6505   */\n      mstore\n        /* \"#utility.yul\":6524:6528   */\n      0x24\n        /* \"#utility.yul\":6521:6522   */\n      0x00\n        /* \"#utility.yul\":6514:6529   */\n      revert\n        /* \"#utility.yul\":6541:6861   */\n    tag_105:\n        /* \"#utility.yul\":6585:6591   */\n      0x00\n        /* \"#utility.yul\":6622:6623   */\n      0x02\n        /* \"#utility.yul\":6616:6620   */\n      dup3\n        /* \"#utility.yul\":6612:6624   */\n      div\n        /* \"#utility.yul\":6602:6624   */\n      swap1\n      pop\n        /* \"#utility.yul\":6669:6670   */\n      0x01\n        /* \"#utility.yul\":6663:6667   */\n      dup3\n        /* \"#utility.yul\":6659:6671   */\n      and\n        /* \"#utility.yul\":6690:6708   */\n      dup1\n        /* \"#utility.yul\":6680:6761   */\n      tag_383\n      jumpi\n        /* \"#utility.yul\":6746:6750   */\n      0x7f\n        /* \"#utility.yul\":6738:6744   */\n      dup3\n        /* \"#utility.yul\":6734:6751   */\n      and\n        /* \"#utility.yul\":6724:6751   */\n      swap2\n      pop\n        /* \"#utility.yul\":6680:6761   */\n    tag_383:\n        /* \"#utility.yul\":6808:6810   */\n      0x20\n        /* \"#utility.yul\":6800:6806   */\n      dup3\n        /* \"#utility.yul\":6797:6811   */\n      lt\n        /* \"#utility.yul\":6777:6795   */\n      dup2\n        /* \"#utility.yul\":6774:6812   */\n      sub\n        /* \"#utility.yul\":6771:6855   */\n      tag_384\n      jumpi\n        /* \"#utility.yul\":6827:6845   */\n      tag_385\n      tag_274\n      jump\t// in\n    tag_385:\n        /* \"#utility.yul\":6771:6855   */\n    tag_384:\n        /* \"#utility.yul\":6592:6861   */\n      pop\n        /* \"#utility.yul\":6541:6861   */\n      swap2\n      swap1\n      pop\n      jump\t// out\n        /* \"#utility.yul\":6867:7047   */\n    tag_275:\n        /* \"#utility.yul\":6915:6992   */\n      0x4e487b7100000000000000000000000000000000000000000000000000000000\n        /* \"#utility.yul\":6912:6913   */\n      0x00\n        /* \"#utility.yul\":6905:6993   */\n      mstore\n        /* \"#utility.yul\":7012:7016   */\n      0x11\n        /* \"#utility.yul\":7009:7010   */\n      0x04\n        /* \"#utility.yul\":7002:7017   */\n      mstore\n        /* \"#utility.yul\":7036:7040   */\n      0x24\n        /* \"#utility.yul\":7033:7034   */\n      0x00\n        /* \"#utility.yul\":7026:7041   */\n      revert\n        /* \"#utility.yul\":7053:7155   */\n    tag_276:\n        /* \"#utility.yul\":7095:7103   */\n      0x00\n        /* \"#utility.yul\":7142:7147   */\n      dup2\n        /* \"#utility.yul\":7139:7140   */\n      0x01\n        /* \"#utility.yul\":7135:7148   */\n      shr\n        /* \"#utility.yul\":7114:7148   */\n      swap1\n      pop\n        /* \"#utility.yul\":7053:7155   */\n      swap2\n      swap1\n      pop\n      jump\t// out\n        /* \"#utility.yul\":7161:8009   */\n    tag_277:\n        /* \"#utility.yul\":7222:7227   */\n      0x00\n        /* \"#utility.yul\":7229:7233   */\n      dup1\n        /* \"#utility.yul\":7253:7259   */\n      dup3\n        /* \"#utility.yul\":7244:7259   */\n      swap2\n      pop\n        /* \"#utility.yul\":7277:7282   */\n      dup4\n        /* \"#utility.yul\":7268:7282   */\n      swap1\n      pop\n        /* \"#utility.yul\":7291:8003   */\n    tag_389:\n        /* \"#utility.yul\":7312:7313   */\n      0x01\n        /* \"#utility.yul\":7302:7310   */\n      dup6\n        /* \"#utility.yul\":7299:7314   */\n      gt\n        /* \"#utility.yul\":7291:8003   */\n      iszero\n      tag_391\n      jumpi\n        /* \"#utility.yul\":7407:7411   */\n      dup1\n        /* \"#utility.yul\":7402:7405   */\n      dup7\n        /* \"#utility.yul\":7398:7412   */\n      div\n        /* \"#utility.yul\":7392:7396   */\n      dup2\n        /* \"#utility.yul\":7389:7413   */\n      gt\n        /* \"#utility.yul\":7386:7436   */\n      iszero\n      tag_392\n      jumpi\n        /* \"#utility.yul\":7416:7434   */\n      tag_393\n      tag_275\n      jump\t// in\n    tag_393:\n        /* \"#utility.yul\":7386:7436   */\n    tag_392:\n        /* \"#utility.yul\":7466:7467   */\n      0x01\n        /* \"#utility.yul\":7456:7464   */\n      dup6\n        /* \"#utility.yul\":7452:7468   */\n      and\n        /* \"#utility.yul\":7449:7900   */\n      iszero\n      tag_394\n      jumpi\n        /* \"#utility.yul\":7881:7885   */\n      dup1\n        /* \"#utility.yul\":7874:7879   */\n      dup3\n        /* \"#utility.yul\":7870:7886   */\n      mul\n        /* \"#utility.yul\":7861:7886   */\n      swap2\n      pop\n        /* \"#utility.yul\":7449:7900   */\n    tag_394:\n        /* \"#utility.yul\":7931:7935   */\n      dup1\n        /* \"#utility.yul\":7925:7929   */\n      dup2\n        /* \"#utility.yul\":7921:7936   */\n      mul\n        /* \"#utility.yul\":7913:7936   */\n      swap1\n      pop\n        /* \"#utility.yul\":7961:7993   */\n      tag_395\n        /* \"#utility.yul\":7984:7992   */\n      dup6\n        /* \"#utility.yul\":7961:7993   */\n      tag_276\n      jump\t// in\n    tag_395:\n        /* \"#utility.yul\":7949:7993   */\n      swap5\n      pop\n        /* \"#utility.yul\":7291:8003   */\n      jump(tag_389)\n    tag_391:\n        /* \"#utility.yul\":7161:8009   */\n      swap5\n      pop\n      swap5\n      swap3\n      pop\n      pop\n      pop\n      jump\t// out\n        /* \"#utility.yul\":8015:9088   */\n    tag_278:\n        /* \"#utility.yul\":8069:8074   */\n      0x00\n        /* \"#utility.yul\":8260:8268   */\n      dup3\n        /* \"#utility.yul\":8250:8290   */\n      tag_397\n      jumpi\n        /* \"#utility.yul\":8281:8282   */\n      0x01\n        /* \"#utility.yul\":8272:8282   */\n      swap1\n      pop\n        /* \"#utility.yul\":8283:8288   */\n      jump(tag_396)\n        /* \"#utility.yul\":8250:8290   */\n    tag_397:\n        /* \"#utility.yul\":8309:8313   */\n      dup2\n        /* \"#utility.yul\":8299:8335   */\n      tag_398\n      jumpi\n        /* \"#utility.yul\":8326:8327   */\n      0x00\n        /* \"#utility.yul\":8317:8327   */\n      swap1\n      pop\n        /* \"#utility.yul\":8328:8333   */\n      jump(tag_396)\n        /* \"#utility.yul\":8299:8335   */\n    tag_398:\n        /* \"#utility.yul\":8395:8399   */\n      dup2\n        /* \"#utility.yul\":8443:8444   */\n      0x01\n        /* \"#utility.yul\":8438:8465   */\n      dup2\n      eq\n      tag_400\n      jumpi\n        /* \"#utility.yul\":8479:8480   */\n      0x02\n        /* \"#utility.yul\":8474:8665   */\n      dup2\n      eq\n      tag_401\n      jumpi\n        /* \"#utility.yul\":8388:8665   */\n      jump(tag_399)\n        /* \"#utility.yul\":8438:8465   */\n    tag_400:\n        /* \"#utility.yul\":8456:8457   */\n      0x01\n        /* \"#utility.yul\":8447:8457   */\n      swap2\n      pop\n        /* \"#utility.yul\":8458:8463   */\n      pop\n      jump(tag_396)\n        /* \"#utility.yul\":8474:8665   */\n    tag_401:\n        /* \"#utility.yul\":8519:8522   */\n      0xff\n        /* \"#utility.yul\":8509:8517   */\n      dup5\n        /* \"#utility.yul\":8506:8523   */\n      gt\n        /* \"#utility.yul\":8503:8546   */\n      iszero\n      tag_402\n      jumpi\n        /* \"#utility.yul\":8526:8544   */\n      tag_403\n      tag_275\n      jump\t// in\n    tag_403:\n        /* \"#utility.yul\":8503:8546   */\n    tag_402:\n        /* \"#utility.yul\":8575:8583   */\n      dup4\n        /* \"#utility.yul\":8572:8573   */\n      0x02\n        /* \"#utility.yul\":8568:8584   */\n      exp\n        /* \"#utility.yul\":8559:8584   */\n      swap2\n      pop\n        /* \"#utility.yul\":8610:8613   */\n      dup5\n        /* \"#utility.yul\":8603:8608   */\n      dup3\n        /* \"#utility.yul\":8600:8614   */\n      gt\n        /* \"#utility.yul\":8597:8637   */\n      iszero\n      tag_404\n      jumpi\n        /* \"#utility.yul\":8617:8635   */\n      tag_405\n      tag_275\n      jump\t// in\n    tag_405:\n        /* \"#utility.yul\":8597:8637   */\n    tag_404:\n        /* \"#utility.yul\":8650:8655   */\n      pop\n      jump(tag_396)\n        /* \"#utility.yul\":8388:8665   */\n    tag_399:\n      pop\n        /* \"#utility.yul\":8774:8776   */\n      0x20\n        /* \"#utility.yul\":8764:8772   */\n      dup4\n        /* \"#utility.yul\":8761:8777   */\n      lt\n        /* \"#utility.yul\":8755:8758   */\n      0x0133\n        /* \"#utility.yul\":8749:8753   */\n      dup4\n        /* \"#utility.yul\":8746:8759   */\n      lt\n        /* \"#utility.yul\":8742:8778   */\n      and\n        /* \"#utility.yul\":8724:8726   */\n      0x4e\n        /* \"#utility.yul\":8714:8722   */\n      dup5\n        /* \"#utility.yul\":8711:8727   */\n      lt\n        /* \"#utility.yul\":8706:8708   */\n      0x0b\n        /* \"#utility.yul\":8700:8704   */\n      dup5\n        /* \"#utility.yul\":8697:8709   */\n      lt\n        /* \"#utility.yul\":8693:8728   */\n      and\n        /* \"#utility.yul\":8677:8788   */\n      or\n        /* \"#utility.yul\":8674:8920   */\n      iszero\n      tag_406\n      jumpi\n        /* \"#utility.yul\":8830:8838   */\n      dup3\n        /* \"#utility.yul\":8824:8828   */\n      dup3\n        /* \"#utility.yul\":8820:8839   */\n      exp\n        /* \"#utility.yul\":8811:8839   */\n      swap1\n      pop\n        /* \"#utility.yul\":8865:8868   */\n      dup4\n        /* \"#utility.yul\":8858:8863   */\n      dup2\n        /* \"#utility.yul\":8855:8869   */\n      gt\n        /* \"#utility.yul\":8852:8892   */\n      iszero\n      tag_407\n      jumpi\n        /* \"#utility.yul\":8872:8890   */\n      tag_408\n      tag_275\n      jump\t// in\n    tag_408:\n        /* \"#utility.yul\":8852:8892   */\n    tag_407:\n        /* \"#utility.yul\":8905:8910   */\n      jump(tag_396)\n        /* \"#utility.yul\":8674:8920   */\n    tag_406:\n        /* \"#utility.yul\":8945:8987   */\n      tag_409\n        /* \"#utility.yul\":8983:8986   */\n      dup5\n        /* \"#utility.yul\":8973:8981   */\n      dup5\n        /* \"#utility.yul\":8967:8971   */\n      dup5\n        /* \"#utility.yul\":8964:8965   */\n      0x01\n        /* \"#utility.yul\":8945:8987   */\n      tag_277\n      jump\t// in\n    tag_409:\n        /* \"#utility.yul\":8930:8987   */\n      swap3\n      pop\n      swap1\n      pop\n        /* \"#utility.yul\":9019:9023   */\n      dup2\n        /* \"#utility.yul\":9014:9017   */\n      dup5\n        /* \"#utility.yul\":9010:9024   */\n      div\n        /* \"#utility.yul\":9003:9008   */\n      dup2\n        /* \"#utility.yul\":9000:9025   */\n      gt\n        /* \"#utility.yul\":8997:9048   */\n      iszero\n      tag_410\n      jumpi\n        /* \"#utility.yul\":9028:9046   */\n      tag_411\n      tag_275\n      jump\t// in\n    tag_411:\n        /* \"#utility.yul\":8997:9048   */\n    tag_410:\n        /* \"#utility.yul\":9077:9081   */\n      dup2\n        /* \"#utility.yul\":9070:9075   */\n      dup2\n        /* \"#utility.yul\":9066:9082   */\n      mul\n        /* \"#utility.yul\":9057:9082   */\n      swap1\n      pop\n        /* \"#utility.yul\":8015:9088   */\n    tag_396:\n      swap4\n      swap3\n      pop\n      pop\n      pop\n      jump\t// out\n        /* \"#utility.yul\":9094:9379   */\n    tag_117:\n        /* \"#utility.yul\":9154:9159   */\n      0x00\n        /* \"#utility.yul\":9178:9201   */\n      tag_413\n        /* \"#utility.yul\":9196:9200   */\n      dup3\n        /* \"#utility.yul\":9178:9201   */\n      tag_265\n      jump\t// in\n    tag_413:\n        /* \"#utility.yul\":9170:9201   */\n      swap2\n      pop\n        /* \"#utility.yul\":9222:9249   */\n      tag_414\n        /* \"#utility.yul\":9240:9248   */\n      dup4\n        /* \"#utility.yul\":9222:9249   */\n      tag_265\n      jump\t// in\n    tag_414:\n        /* \"#utility.yul\":9210:9249   */\n      swap3\n      pop\n        /* \"#utility.yul\":9268:9372   */\n      tag_415\n        /* \"#utility.yul\":9305:9371   */\n      0xffffffffffffffffffffffffffffffffffffffffffffffffffffffffffffffff\n        /* \"#utility.yul\":9295:9303   */\n      dup5\n        /* \"#utility.yul\":9289:9293   */\n      dup5\n        /* \"#utility.yul\":9268:9372   */\n      tag_278\n      jump\t// in\n    tag_415:\n        /* \"#utility.yul\":9259:9372   */\n      swap1\n      pop\n        /* \"#utility.yul\":9094:9379   */\n      swap3\n      swap2\n      pop\n      pop\n      jump\t// out\n        /* \"#utility.yul\":9385:9733   */\n    tag_119:\n        /* \"#utility.yul\":9425:9432   */\n      0x00\n        /* \"#utility.yul\":9448:9468   */\n      tag_417\n        /* \"#utility.yul\":9466:9467   */\n      dup3\n        /* \"#utility.yul\":9448:9468   */\n      tag_265\n      jump\t// in\n    tag_417:\n        /* \"#utility.yul\":9443:9468   */\n      swap2\n      pop\n        /* \"#utility.yul\":9482:9502   */\n      tag_418\n        /* \"#utility.yul\":9500:9501   */\n      dup4\n        /* \"#utility.yul\":9482:9502   */\n      tag_265\n      jump\t// in\n    tag_418:\n        /* \"#utility.yul\":9477:9502   */\n      swap3\n      pop\n        /* \"#utility.yul\":9670:9671   */\n      dup2\n        /* \"#utility.yul\":9602:9668   */\n      0xffffffffffffffffffffffffffffffffffffffffffffffffffffffffffffffff\n        /* \"#utility.yul\":9598:9672   */\n      div\n        /* \"#utility.yul\":9595:9596   */\n      dup4\n        /* \"#utility.yul\":9592:9673   */\n      gt\n        /* \"#utility.yul\":9587:9588   */\n      dup3\n        /* \"#utility.yul\":9580:9589   */\n      iszero\n        /* \"#utility.yul\":9573:9590   */\n      iszero\n        /* \"#utility.yul\":9569:9674   */\n      and\n        /* \"#utility.yul\":9566:9697   */\n      iszero\n      tag_419\n      jumpi\n        /* \"#utility.yul\":9677:9695   */\n      tag_420\n      tag_275\n      jump\t// in\n    tag_420:\n        /* \"#utility.yul\":9566:9697   */\n    tag_419:\n        /* \"#utility.yul\":9725:9726   */\n      dup3\n        /* \"#utility.yul\":9722:9723   */\n      dup3\n        /* \"#utility.yul\":9718:9727   */\n      mul\n        /* \"#utility.yul\":9707:9727   */\n      swap1\n      pop\n        /* \"#utility.yul\":9385:9733   */\n      swap3\n      swap2\n      pop\n      pop\n      jump\t// out\n        /* \"#utility.yul\":9739:9930   */\n    tag_134:\n        /* \"#utility.yul\":9779:9782   */\n      0x00\n        /* \"#utility.yul\":9798:9818   */\n      tag_422\n        /* \"#utility.yul\":9816:9817   */\n      dup3\n        /* \"#utility.yul\":9798:9818   */\n      tag_265\n      jump\t// in\n    tag_422:\n        /* \"#utility.yul\":9793:9818   */\n      swap2\n      pop\n        /* \"#utility.yul\":9832:9852   */\n      tag_423\n        /* \"#utility.yul\":9850:9851   */\n      dup4\n        /* \"#utility.yul\":9832:9852   */\n      tag_265\n      jump\t// in\n    tag_423:\n        /* \"#utility.yul\":9827:9852   */\n      swap3\n      pop\n        /* \"#utility.yul\":9875:9876   */\n      dup3\n        /* \"#utility.yul\":9872:9873   */\n      dup3\n        /* \"#utility.yul\":9868:9877   */\n      add\n        /* \"#utility.yul\":9861:9877   */\n      swap1\n      pop\n        /* \"#utility.yul\":9896:9899   */\n      dup1\n        /* \"#utility.yul\":9893:9894   */\n      dup3\n        /* \"#utility.yul\":9890:9900   */\n      gt\n        /* \"#utility.yul\":9887:9923   */\n      iszero\n      tag_424\n      jumpi\n        /* \"#utility.yul\":9903:9921   */\n      tag_425\n      tag_275\n      jump\t// in\n    tag_425:\n        /* \"#utility.yul\":9887:9923   */\n    tag_424:\n        /* \"#utility.yul\":9739:9930   */\n      swap3\n      swap2\n      pop\n      pop\n      jump\t// out\n        /* \"#utility.yul\":9936:10108   */\n    tag_279:\n        /* \"#utility.yul\":10076:10100   */\n      0x4d6178696d756d20737570706c79207265616368656400000000000000000000\n        /* \"#utility.yul\":10072:10073   */\n      0x00\n        /* \"#utility.yul\":10064:10070   */\n      dup3\n        /* \"#utility.yul\":10060:10074   */\n      add\n        /* \"#utility.yul\":10053:10101   */\n      mstore\n        /* \"#utility.yul\":9936:10108   */\n      pop\n      jump\t// out\n        /* \"#utility.yul\":10114:10480   */\n    tag_280:\n        /* \"#utility.yul\":10256:10259   */\n      0x00\n        /* \"#utility.yul\":10277:10344   */\n      tag_428\n        /* \"#utility.yul\":10341:10343   */\n      0x16\n        /* \"#utility.yul\":10336:10339   */\n      dup4\n        /* \"#utility.yul\":10277:10344   */\n      tag_254\n      jump\t// in\n    tag_428:\n        /* \"#utility.yul\":10270:10344   */\n      swap2\n      pop\n        /* \"#utility.yul\":10353:10446   */\n      tag_429\n        /* \"#utility.yul\":10442:10445   */\n      dup3\n        /* \"#utility.yul\":10353:10446   */\n      tag_279\n      jump\t// in\n    tag_429:\n        /* \"#utility.yul\":10471:10473   */\n      0x20\n        /* \"#utility.yul\":10466:10469   */\n      dup3\n        /* \"#utility.yul\":10462:10474   */\n      add\n        /* \"#utility.yul\":10455:10474   */\n      swap1\n      pop\n        /* \"#utility.yul\":10114:10480   */\n      swap2\n      swap1\n      pop\n      jump\t// out\n        /* \"#utility.yul\":10486:10905   */\n    tag_145:\n        /* \"#utility.yul\":10652:10656   */\n      0x00\n        /* \"#utility.yul\":10690:10692   */\n      0x20\n        /* \"#utility.yul\":10679:10688   */\n      dup3\n        /* \"#utility.yul\":10675:10693   */\n      add\n        /* \"#utility.yul\":10667:10693   */\n      swap1\n      pop\n        /* \"#utility.yul\":10739:10748   */\n      dup2\n        /* \"#utility.yul\":10733:10737   */\n      dup2\n        /* \"#utility.yul\":10729:10749   */\n      sub\n        /* \"#utility.yul\":10725:10726   */\n      0x00\n        /* \"#utility.yul\":10714:10723   */\n      dup4\n        /* \"#utility.yul\":10710:10727   */\n      add\n        /* \"#utility.yul\":10703:10750   */\n      mstore\n        /* \"#utility.yul\":10767:10898   */\n      tag_431\n        /* \"#utility.yul\":10893:10897   */\n      dup2\n        /* \"#utility.yul\":10767:10898   */\n      tag_280\n      jump\t// in\n    tag_431:\n        /* \"#utility.yul\":10759:10898   */\n      swap1\n      pop\n        /* \"#utility.yul\":10486:10905   */\n      swap2\n      swap1\n      pop\n      jump\t// out\n        /* \"#utility.yul\":10911:11135   */\n    tag_281:\n        /* \"#utility.yul\":11051:11085   */\n      0x45524332303a2064656372656173656420616c6c6f77616e63652062656c6f77\n        /* \"#utility.yul\":11047:11048   */\n      0x00\n        /* \"#utility.yul\":11039:11045   */\n      dup3\n        /* \"#utility.yul\":11035:11049   */\n      add\n        /* \"#utility.yul\":11028:11086   */\n      mstore\n        /* \"#utility.yul\":11120:11127   */\n      0x207a65726f000000000000000000000000000000000000000000000000000000\n        /* \"#utility.yul\":11115:11117   */\n      0x20\n        /* \"#utility.yul\":11107:11113   */\n      dup3\n        /* \"#utility.yul\":11103:11118   */\n      add\n        /* \"#utility.yul\":11096:11128   */\n      mstore\n        /* \"#utility.yul\":10911:11135   */\n      pop\n      jump\t// out\n        /* \"#utility.yul\":11141:11507   */\n    tag_282:\n        /* \"#utility.yul\":11283:11286   */\n      0x00\n        /* \"#utility.yul\":11304:11371   */\n      tag_434\n        /* \"#utility.yul\":11368:11370   */\n      0x25\n        /* \"#utility.yul\":11363:11366   */\n      dup4\n        /* \"#utility.yul\":11304:11371   */\n      tag_254\n      jump\t// in\n    tag_434:\n        /* \"#utility.yul\":11297:11371   */\n      swap2\n      pop\n        /* \"#utility.yul\":11380:11473   */\n      tag_435\n        /* \"#utility.yul\":11469:11472   */\n      dup3\n        /* \"#utility.yul\":11380:11473   */\n      tag_281\n      jump\t// in\n    tag_435:\n        /* \"#utility.yul\":11498:11500   */\n      0x40\n        /* \"#utility.yul\":11493:11496   */\n      dup3\n        /* \"#utility.yul\":11489:11501   */\n      add\n        /* \"#utility.yul\":11482:11501   */\n      swap1\n      pop\n        /* \"#utility.yul\":11141:11507   */\n      swap2\n      swap1\n      pop\n      jump\t// out\n        /* \"#utility.yul\":11513:11932   */\n    tag_173:\n        /* \"#utility.yul\":11679:11683   */\n      0x00\n        /* \"#utility.yul\":11717:11719   */\n      0x20\n        /* \"#utility.yul\":11706:11715   */\n      dup3\n        /* \"#utility.yul\":11702:11720   */\n      add\n        /* \"#utility.yul\":11694:11720   */\n      swap1\n      pop\n        /* \"#utility.yul\":11766:11775   */\n      dup2\n        /* \"#utility.yul\":11760:11764   */\n      dup2\n        /* \"#utility.yul\":11756:11776   */\n      sub\n        /* \"#utility.yul\":11752:11753   */\n      0x00\n        /* \"#utility.yul\":11741:11750   */\n      dup4\n        /* \"#utility.yul\":11737:11754   */\n      add\n        /* \"#utility.yul\":11730:11777   */\n      mstore\n        /* \"#utility.yul\":11794:11925   */\n      tag_437\n        /* \"#utility.yul\":11920:11924   */\n      dup2\n        /* \"#utility.yul\":11794:11925   */\n      tag_282\n      jump\t// in\n    tag_437:\n        /* \"#utility.yul\":11786:11925   */\n      swap1\n      pop\n        /* \"#utility.yul\":11513:11932   */\n      swap2\n      swap1\n      pop\n      jump\t// out\n        /* \"#utility.yul\":11938:12163   */\n    tag_283:\n        /* \"#utility.yul\":12078:12112   */\n      0x4f776e61626c653a206e6577206f776e657220697320746865207a65726f2061\n        /* \"#utility.yul\":12074:12075   */\n      0x00\n        /* \"#utility.yul\":12066:12072   */\n      dup3\n        /* \"#utility.yul\":12062:12076   */\n      add\n        /* \"#utility.yul\":12055:12113   */\n      mstore\n        /* \"#utility.yul\":12147:12155   */\n      0x6464726573730000000000000000000000000000000000000000000000000000\n        /* \"#utility.yul\":12142:12144   */\n      0x20\n        /* \"#utility.yul\":12134:12140   */\n      dup3\n        /* \"#utility.yul\":12130:12145   */\n      add\n        /* \"#utility.yul\":12123:12156   */\n      mstore\n        /* \"#utility.yul\":11938:12163   */\n      pop\n      jump\t// out\n        /* \"#utility.yul\":12169:12535   */\n    tag_284:\n        /* \"#utility.yul\":12311:12314   */\n      0x00\n        /* \"#utility.yul\":12332:12399   */\n      tag_440\n        /* \"#utility.yul\":12396:12398   */\n      0x26\n        /* \"#utility.yul\":12391:12394   */\n      dup4\n        /* \"#utility.yul\":12332:12399   */\n      tag_254\n      jump\t// in\n    tag_440:\n        /* \"#utility.yul\":12325:12399   */\n      swap2\n      pop\n        /* \"#utility.yul\":12408:12501   */\n      tag_441\n        /* \"#utility.yul\":12497:12500   */\n      dup3\n        /* \"#utility.yul\":12408:12501   */\n      tag_283\n      jump\t// in\n    tag_441:\n        /* \"#utility.yul\":12526:12528   */\n      0x40\n        /* \"#utility.yul\":12521:12524   */\n      dup3\n        /* \"#utility.yul\":12517:12529   */\n      add\n        /* \"#utility.yul\":12510:12529   */\n      swap1\n      pop\n        /* \"#utility.yul\":12169:12535   */\n      swap2\n      swap1\n      pop\n      jump\t// out\n        /* \"#utility.yul\":12541:12960   */\n    tag_184:\n        /* \"#utility.yul\":12707:12711   */\n      0x00\n        /* \"#utility.yul\":12745:12747   */\n      0x20\n        /* \"#utility.yul\":12734:12743   */\n      dup3\n        /* \"#utility.yul\":12730:12748   */\n      add\n        /* \"#utility.yul\":12722:12748   */\n      swap1\n      pop\n        /* \"#utility.yul\":12794:12803   */\n      dup2\n        /* \"#utility.yul\":12788:12792   */\n      dup2\n        /* \"#utility.yul\":12784:12804   */\n      sub\n        /* \"#utility.yul\":12780:12781   */\n      0x00\n        /* \"#utility.yul\":12769:12778   */\n      dup4\n        /* \"#utility.yul\":12765:12782   */\n      add\n        /* \"#utility.yul\":12758:12805   */\n      mstore\n        /* \"#utility.yul\":12822:12953   */\n      tag_443\n        /* \"#utility.yul\":12948:12952   */\n      dup2\n        /* \"#utility.yul\":12822:12953   */\n      tag_284\n      jump\t// in\n    tag_443:\n        /* \"#utility.yul\":12814:12953   */\n      swap1\n      pop\n        /* \"#utility.yul\":12541:12960   */\n      swap2\n      swap1\n      pop\n      jump\t// out\n        /* \"#utility.yul\":12966:13143   */\n    tag_285:\n        /* \"#utility.yul\":13106:13135   */\n      0x536166654d6174683a206164646974696f6e206f766572666c6f770000000000\n        /* \"#utility.yul\":13102:13103   */\n      0x00\n        /* \"#utility.yul\":13094:13100   */\n      dup3\n        /* \"#utility.yul\":13090:13104   */\n      add\n        /* \"#utility.yul\":13083:13136   */\n      mstore\n        /* \"#utility.yul\":12966:13143   */\n      pop\n      jump\t// out\n        /* \"#utility.yul\":13149:13515   */\n    tag_286:\n        /* \"#utility.yul\":13291:13294   */\n      0x00\n        /* \"#utility.yul\":13312:13379   */\n      tag_446\n        /* \"#utility.yul\":13376:13378   */\n      0x1b\n        /* \"#utility.yul\":13371:13374   */\n      dup4\n        /* \"#utility.yul\":13312:13379   */\n      tag_254\n      jump\t// in\n    tag_446:\n        /* \"#utility.yul\":13305:13379   */\n      swap2\n      pop\n        /* \"#utility.yul\":13388:13481   */\n      tag_447\n        /* \"#utility.yul\":13477:13480   */\n      dup3\n        /* \"#utility.yul\":13388:13481   */\n      tag_285\n      jump\t// in\n    tag_447:\n        /* \"#utility.yul\":13506:13508   */\n      0x20\n        /* \"#utility.yul\":13501:13504   */\n      dup3\n        /* \"#utility.yul\":13497:13509   */\n      add\n        /* \"#utility.yul\":13490:13509   */\n      swap1\n      pop\n        /* \"#utility.yul\":13149:13515   */\n      swap2\n      swap1\n      pop\n      jump\t// out\n        /* \"#utility.yul\":13521:13940   */\n    tag_190:\n        /* \"#utility.yul\":13687:13691   */\n      0x00\n        /* \"#utility.yul\":13725:13727   */\n      0x20\n        /* \"#utility.yul\":13714:13723   */\n      dup3\n        /* \"#utility.yul\":13710:13728   */\n      add\n        /* \"#utility.yul\":13702:13728   */\n      swap1\n      pop\n        /* \"#utility.yul\":13774:13783   */\n      dup2\n        /* \"#utility.yul\":13768:13772   */\n      dup2\n        /* \"#utility.yul\":13764:13784   */\n      sub\n        /* \"#utility.yul\":13760:13761   */\n      0x00\n        /* \"#utility.yul\":13749:13758   */\n      dup4\n        /* \"#utility.yul\":13745:13762   */\n      add\n        /* \"#utility.yul\":13738:13785   */\n      mstore\n        /* \"#utility.yul\":13802:13933   */\n      tag_449\n        /* \"#utility.yul\":13928:13932   */\n      dup2\n        /* \"#utility.yul\":13802:13933   */\n      tag_286\n      jump\t// in\n    tag_449:\n        /* \"#utility.yul\":13794:13933   */\n      swap1\n      pop\n        /* \"#utility.yul\":13521:13940   */\n      swap2\n      swap1\n      pop\n      jump\t// out\n        /* \"#utility.yul\":13946:14169   */\n    tag_287:\n        /* \"#utility.yul\":14086:14120   */\n      0x45524332303a20617070726f76652066726f6d20746865207a65726f20616464\n        /* \"#utility.yul\":14082:14083   */\n      0x00\n        /* \"#utility.yul\":14074:14080   */\n      dup3\n        /* \"#utility.yul\":14070:14084   */\n      add\n        /* \"#utility.yul\":14063:14121   */\n      mstore\n        /* \"#utility.yul\":14155:14161   */\n      0x7265737300000000000000000000000000000000000000000000000000000000\n        /* \"#utility.yul\":14150:14152   */\n      0x20\n        /* \"#utility.yul\":14142:14148   */\n      dup3\n        /* \"#utility.yul\":14138:14153   */\n      add\n        /* \"#utility.yul\":14131:14162   */\n      mstore\n        /* \"#utility.yul\":13946:14169   */\n      pop\n      jump\t// out\n        /* \"#utility.yul\":14175:14541   */\n    tag_288:\n        /* \"#utility.yul\":14317:14320   */\n      0x00\n        /* \"#utility.yul\":14338:14405   */\n      tag_452\n        /* \"#utility.yul\":14402:14404   */\n      0x24\n        /* \"#utility.yul\":14397:14400   */\n      dup4\n        /* \"#utility.yul\":14338:14405   */\n      tag_254\n      jump\t// in\n    tag_452:\n        /* \"#utility.yul\":14331:14405   */\n      swap2\n      pop\n        /* \"#utility.yul\":14414:14507   */\n      tag_453\n        /* \"#utility.yul\":14503:14506   */\n      dup3\n        /* \"#utility.yul\":14414:14507   */\n      tag_287\n      jump\t// in\n    tag_453:\n        /* \"#utility.yul\":14532:14534   */\n      0x40\n        /* \"#utility.yul\":14527:14530   */\n      dup3\n        /* \"#utility.yul\":14523:14535   */\n      add\n        /* \"#utility.yul\":14516:14535   */\n      swap1\n      pop\n        /* \"#utility.yul\":14175:14541   */\n      swap2\n      swap1\n      pop\n      jump\t// out\n        /* \"#utility.yul\":14547:14966   */\n    tag_195:\n        /* \"#utility.yul\":14713:14717   */\n      0x00\n        /* \"#utility.yul\":14751:14753   */\n      0x20\n        /* \"#utility.yul\":14740:14749   */\n      dup3\n        /* \"#utility.yul\":14736:14754   */\n      add\n        /* \"#utility.yul\":14728:14754   */\n      swap1\n      pop\n        /* \"#utility.yul\":14800:14809   */\n      dup2\n        /* \"#utility.yul\":14794:14798   */\n      dup2\n        /* \"#utility.yul\":14790:14810   */\n      sub\n        /* \"#utility.yul\":14786:14787   */\n      0x00\n        /* \"#utility.yul\":14775:14784   */\n      dup4\n        /* \"#utility.yul\":14771:14788   */\n      add\n        /* \"#utility.yul\":14764:14811   */\n      mstore\n        /* \"#utility.yul\":14828:14959   */\n      tag_455\n        /* \"#utility.yul\":14954:14958   */\n      dup2\n        /* \"#utility.yul\":14828:14959   */\n      tag_288\n      jump\t// in\n    tag_455:\n        /* \"#utility.yul\":14820:14959   */\n      swap1\n      pop\n        /* \"#utility.yul\":14547:14966   */\n      swap2\n      swap1\n      pop\n      jump\t// out\n        /* \"#utility.yul\":14972:15193   */\n    tag_289:\n        /* \"#utility.yul\":15112:15146   */\n      0x45524332303a20617070726f766520746f20746865207a65726f206164647265\n        /* \"#utility.yul\":15108:15109   */\n      0x00\n        /* \"#utility.yul\":15100:15106   */\n      dup3\n        /* \"#utility.yul\":15096:15110   */\n      add\n        /* \"#utility.yul\":15089:15147   */\n      mstore\n        /* \"#utility.yul\":15181:15185   */\n      0x7373000000000000000000000000000000000000000000000000000000000000\n        /* \"#utility.yul\":15176:15178   */\n      0x20\n        /* \"#utility.yul\":15168:15174   */\n      dup3\n        /* \"#utility.yul\":15164:15179   */\n      add\n        /* \"#utility.yul\":15157:15186   */\n      mstore\n        /* \"#utility.yul\":14972:15193   */\n      pop\n      jump\t// out\n        /* \"#utility.yul\":15199:15565   */\n    tag_290:\n        /* \"#utility.yul\":15341:15344   */\n      0x00\n        /* \"#utility.yul\":15362:15429   */\n      tag_458\n        /* \"#utility.yul\":15426:15428   */\n      0x22\n        /* \"#utility.yul\":15421:15424   */\n      dup4\n        /* \"#utility.yul\":15362:15429   */\n      tag_254\n      jump\t// in\n    tag_458:\n        /* \"#utility.yul\":15355:15429   */\n      swap2\n      pop\n        /* \"#utility.yul\":15438:15531   */\n      tag_459\n        /* \"#utility.yul\":15527:15530   */\n      dup3\n        /* \"#utility.yul\":15438:15531   */\n      tag_289\n      jump\t// in\n    tag_459:\n        /* \"#utility.yul\":15556:15558   */\n      0x40\n        /* \"#utility.yul\":15551:15554   */\n      dup3\n        /* \"#utility.yul\":15547:15559   */\n      add\n        /* \"#utility.yul\":15540:15559   */\n      swap1\n      pop\n        /* \"#utility.yul\":15199:15565   */\n      swap2\n      swap1\n      pop\n      jump\t// out\n        /* \"#utility.yul\":15571:15990   */\n    tag_198:\n        /* \"#utility.yul\":15737:15741   */\n      0x00\n        /* \"#utility.yul\":15775:15777   */\n      0x20\n        /* \"#utility.yul\":15764:15773   */\n      dup3\n        /* \"#utility.yul\":15760:15778   */\n      add\n        /* \"#utility.yul\":15752:15778   */\n      swap1\n      pop\n        /* \"#utility.yul\":15824:15833   */\n      dup2\n        /* \"#utility.yul\":15818:15822   */\n      dup2\n        /* \"#utility.yul\":15814:15834   */\n      sub\n        /* \"#utility.yul\":15810:15811   */\n      0x00\n        /* \"#utility.yul\":15799:15808   */\n      dup4\n        /* \"#utility.yul\":15795:15812   */\n      add\n        /* \"#utility.yul\":15788:15835   */\n      mstore\n        /* \"#utility.yul\":15852:15983   */\n      tag_461\n        /* \"#utility.yul\":15978:15982   */\n      dup2\n        /* \"#utility.yul\":15852:15983   */\n      tag_290\n      jump\t// in\n    tag_461:\n        /* \"#utility.yul\":15844:15983   */\n      swap1\n      pop\n        /* \"#utility.yul\":15571:15990   */\n      swap2\n      swap1\n      pop\n      jump\t// out\n        /* \"#utility.yul\":15996:16175   */\n    tag_291:\n        /* \"#utility.yul\":16136:16167   */\n      0x45524332303a20696e73756666696369656e7420616c6c6f77616e6365000000\n        /* \"#utility.yul\":16132:16133   */\n      0x00\n        /* \"#utility.yul\":16124:16130   */\n      dup3\n        /* \"#utility.yul\":16120:16134   */\n      add\n        /* \"#utility.yul\":16113:16168   */\n      mstore\n        /* \"#utility.yul\":15996:16175   */\n      pop\n      jump\t// out\n        /* \"#utility.yul\":16181:16547   */\n    tag_292:\n        /* \"#utility.yul\":16323:16326   */\n      0x00\n        /* \"#utility.yul\":16344:16411   */\n      tag_464\n        /* \"#utility.yul\":16408:16410   */\n      0x1d\n        /* \"#utility.yul\":16403:16406   */\n      dup4\n        /* \"#utility.yul\":16344:16411   */\n      tag_254\n      jump\t// in\n    tag_464:\n        /* \"#utility.yul\":16337:16411   */\n      swap2\n      pop\n        /* \"#utility.yul\":16420:16513   */\n      tag_465\n        /* \"#utility.yul\":16509:16512   */\n      dup3\n        /* \"#utility.yul\":16420:16513   */\n      tag_291\n      jump\t// in\n    tag_465:\n        /* \"#utility.yul\":16538:16540   */\n      0x20\n        /* \"#utility.yul\":16533:16536   */\n      dup3\n        /* \"#utility.yul\":16529:16541   */\n      add\n        /* \"#utility.yul\":16522:16541   */\n      swap1\n      pop\n        /* \"#utility.yul\":16181:16547   */\n      swap2\n      swap1\n      pop\n      jump\t// out\n        /* \"#utility.yul\":16553:16972   */\n    tag_205:\n        /* \"#utility.yul\":16719:16723   */\n      0x00\n        /* \"#utility.yul\":16757:16759   */\n      0x20\n        /* \"#utility.yul\":16746:16755   */\n      dup3\n        /* \"#utility.yul\":16742:16760   */\n      add\n        /* \"#utility.yul\":16734:16760   */\n      swap1\n      pop\n        /* \"#utility.yul\":16806:16815   */\n      dup2\n        /* \"#utility.yul\":16800:16804   */\n      dup2\n        /* \"#utility.yul\":16796:16816   */\n      sub\n        /* \"#utility.yul\":16792:16793   */\n      0x00\n        /* \"#utility.yul\":16781:16790   */\n      dup4\n        /* \"#utility.yul\":16777:16794   */\n      add\n        /* \"#utility.yul\":16770:16817   */\n      mstore\n        /* \"#utility.yul\":16834:16965   */\n      tag_467\n        /* \"#utility.yul\":16960:16964   */\n      dup2\n        /* \"#utility.yul\":16834:16965   */\n      tag_292\n      jump\t// in\n    tag_467:\n        /* \"#utility.yul\":16826:16965   */\n      swap1\n      pop\n        /* \"#utility.yul\":16553:16972   */\n      swap2\n      swap1\n      pop\n      jump\t// out\n        /* \"#utility.yul\":16978:17202   */\n    tag_293:\n        /* \"#utility.yul\":17118:17152   */\n      0x45524332303a207472616e736665722066726f6d20746865207a65726f206164\n        /* \"#utility.yul\":17114:17115   */\n      0x00\n        /* \"#utility.yul\":17106:17112   */\n      dup3\n        /* \"#utility.yul\":17102:17116   */\n      add\n        /* \"#utility.yul\":17095:17153   */\n      mstore\n        /* \"#utility.yul\":17187:17194   */\n      0x6472657373000000000000000000000000000000000000000000000000000000\n        /* \"#utility.yul\":17182:17184   */\n      0x20\n        /* \"#utility.yul\":17174:17180   */\n      dup3\n        /* \"#utility.yul\":17170:17185   */\n      add\n        /* \"#utility.yul\":17163:17195   */\n      mstore\n        /* \"#utility.yul\":16978:17202   */\n      pop\n      jump\t// out\n        /* \"#utility.yul\":17208:17574   */\n    tag_294:\n        /* \"#utility.yul\":17350:17353   */\n      0x00\n        /* \"#utility.yul\":17371:17438   */\n      tag_470\n        /* \"#utility.yul\":17435:17437   */\n      0x25\n        /* \"#utility.yul\":17430:17433   */\n      dup4\n        /* \"#utility.yul\":17371:17438   */\n      tag_254\n      jump\t// in\n    tag_470:\n        /* \"#utility.yul\":17364:17438   */\n      swap2\n      pop\n        /* \"#utility.yul\":17447:17540   */\n      tag_471\n        /* \"#utility.yul\":17536:17539   */\n      dup3\n        /* \"#utility.yul\":17447:17540   */\n      tag_293\n      jump\t// in\n    tag_471:\n        /* \"#utility.yul\":17565:17567   */\n      0x40\n        /* \"#utility.yul\":17560:17563   */\n      dup3\n        /* \"#utility.yul\":17556:17568   */\n      add\n        /* \"#utility.yul\":17549:17568   */\n      swap1\n      pop\n        /* \"#utility.yul\":17208:17574   */\n      swap2\n      swap1\n      pop\n      jump\t// out\n        /* \"#utility.yul\":17580:17999   */\n    tag_210:\n        /* \"#utility.yul\":17746:17750   */\n      0x00\n        /* \"#utility.yul\":17784:17786   */\n      0x20\n        /* \"#utility.yul\":17773:17782   */\n      dup3\n        /* \"#utility.yul\":17769:17787   */\n      add\n        /* \"#utility.yul\":17761:17787   */\n      swap1\n      pop\n        /* \"#utility.yul\":17833:17842   */\n      dup2\n        /* \"#utility.yul\":17827:17831   */\n      dup2\n        /* \"#utility.yul\":17823:17843   */\n      sub\n        /* \"#utility.yul\":17819:17820   */\n      0x00\n        /* \"#utility.yul\":17808:17817   */\n      dup4\n        /* \"#utility.yul\":17804:17821   */\n      add\n        /* \"#utility.yul\":17797:17844   */\n      mstore\n        /* \"#utility.yul\":17861:17992   */\n      tag_473\n        /* \"#utility.yul\":17987:17991   */\n      dup2\n        /* \"#utility.yul\":17861:17992   */\n      tag_294\n      jump\t// in\n    tag_473:\n        /* \"#utility.yul\":17853:17992   */\n      swap1\n      pop\n        /* \"#utility.yul\":17580:17999   */\n      swap2\n      swap1\n      pop\n      jump\t// out\n        /* \"#utility.yul\":18005:18227   */\n    tag_295:\n        /* \"#utility.yul\":18145:18179   */\n      0x45524332303a207472616e7366657220746f20746865207a65726f2061646472\n        /* \"#utility.yul\":18141:18142   */\n      0x00\n        /* \"#utility.yul\":18133:18139   */\n      dup3\n        /* \"#utility.yul\":18129:18143   */\n      add\n        /* \"#utility.yul\":18122:18180   */\n      mstore\n        /* \"#utility.yul\":18214:18219   */\n      0x6573730000000000000000000000000000000000000000000000000000000000\n        /* \"#utility.yul\":18209:18211   */\n      0x20\n        /* \"#utility.yul\":18201:18207   */\n      dup3\n        /* \"#utility.yul\":18197:18212   */\n      add\n        /* \"#utility.yul\":18190:18220   */\n      mstore\n        /* \"#utility.yul\":18005:18227   */\n      pop\n      jump\t// out\n        /* \"#utility.yul\":18233:18599   */\n    tag_296:\n        /* \"#utility.yul\":18375:18378   */\n      0x00\n        /* \"#utility.yul\":18396:18463   */\n      tag_476\n        /* \"#utility.yul\":18460:18462   */\n      0x23\n        /* \"#utility.yul\":18455:18458   */\n      dup4\n        /* \"#utility.yul\":18396:18463   */\n      tag_254\n      jump\t// in\n    tag_476:\n        /* \"#utility.yul\":18389:18463   */\n      swap2\n      pop\n        /* \"#utility.yul\":18472:18565   */\n      tag_477\n        /* \"#utility.yul\":18561:18564   */\n      dup3\n        /* \"#utility.yul\":18472:18565   */\n      tag_295\n      jump\t// in\n    tag_477:\n        /* \"#utility.yul\":18590:18592   */\n      0x40\n        /* \"#utility.yul\":18585:18588   */\n      dup3\n        /* \"#utility.yul\":18581:18593   */\n      add\n        /* \"#utility.yul\":18574:18593   */\n      swap1\n      pop\n        /* \"#utility.yul\":18233:18599   */\n      swap2\n      swap1\n      pop\n      jump\t// out\n        /* \"#utility.yul\":18605:19024   */\n    tag_213:\n        /* \"#utility.yul\":18771:18775   */\n      0x00\n        /* \"#utility.yul\":18809:18811   */\n      0x20\n        /* \"#utility.yul\":18798:18807   */\n      dup3\n        /* \"#utility.yul\":18794:18812   */\n      add\n        /* \"#utility.yul\":18786:18812   */\n      swap1\n      pop\n        /* \"#utility.yul\":18858:18867   */\n      dup2\n        /* \"#utility.yul\":18852:18856   */\n      dup2\n        /* \"#utility.yul\":18848:18868   */\n      sub\n        /* \"#utility.yul\":18844:18845   */\n      0x00\n        /* \"#utility.yul\":18833:18842   */\n      dup4\n        /* \"#utility.yul\":18829:18846   */\n      add\n        /* \"#utility.yul\":18822:18869   */\n      mstore\n        /* \"#utility.yul\":18886:19017   */\n      tag_479\n        /* \"#utility.yul\":19012:19016   */\n      dup2\n        /* \"#utility.yul\":18886:19017   */\n      tag_296\n      jump\t// in\n    tag_479:\n        /* \"#utility.yul\":18878:19017   */\n      swap1\n      pop\n        /* \"#utility.yul\":18605:19024   */\n      swap2\n      swap1\n      pop\n      jump\t// out\n        /* \"#utility.yul\":19030:19255   */\n    tag_297:\n        /* \"#utility.yul\":19170:19204   */\n      0x45524332303a207472616e7366657220616d6f756e7420657863656564732062\n        /* \"#utility.yul\":19166:19167   */\n      0x00\n        /* \"#utility.yul\":19158:19164   */\n      dup3\n        /* \"#utility.yul\":19154:19168   */\n      add\n        /* \"#utility.yul\":19147:19205   */\n      mstore\n        /* \"#utility.yul\":19239:19247   */\n      0x616c616e63650000000000000000000000000000000000000000000000000000\n        /* \"#utility.yul\":19234:19236   */\n      0x20\n        /* \"#utility.yul\":19226:19232   */\n      dup3\n        /* \"#utility.yul\":19222:19237   */\n      add\n        /* \"#utility.yul\":19215:19248   */\n      mstore\n        /* \"#utility.yul\":19030:19255   */\n      pop\n      jump\t// out\n        /* \"#utility.yul\":19261:19627   */\n    tag_298:\n        /* \"#utility.yul\":19403:19406   */\n      0x00\n        /* \"#utility.yul\":19424:19491   */\n      tag_482\n        /* \"#utility.yul\":19488:19490   */\n      0x26\n        /* \"#utility.yul\":19483:19486   */\n      dup4\n        /* \"#utility.yul\":19424:19491   */\n      tag_254\n      jump\t// in\n    tag_482:\n        /* \"#utility.yul\":19417:19491   */\n      swap2\n      pop\n        /* \"#utility.yul\":19500:19593   */\n      tag_483\n        /* \"#utility.yul\":19589:19592   */\n      dup3\n        /* \"#utility.yul\":19500:19593   */\n      tag_297\n      jump\t// in\n    tag_483:\n        /* \"#utility.yul\":19618:19620   */\n      0x40\n        /* \"#utility.yul\":19613:19616   */\n      dup3\n        /* \"#utility.yul\":19609:19621   */\n      add\n        /* \"#utility.yul\":19602:19621   */\n      swap1\n      pop\n        /* \"#utility.yul\":19261:19627   */\n      swap2\n      swap1\n      pop\n      jump\t// out\n        /* \"#utility.yul\":19633:20052   */\n    tag_218:\n        /* \"#utility.yul\":19799:19803   */\n      0x00\n        /* \"#utility.yul\":19837:19839   */\n      0x20\n        /* \"#utility.yul\":19826:19835   */\n      dup3\n        /* \"#utility.yul\":19822:19840   */\n      add\n        /* \"#utility.yul\":19814:19840   */\n      swap1\n      pop\n        /* \"#utility.yul\":19886:19895   */\n      dup2\n        /* \"#utility.yul\":19880:19884   */\n      dup2\n        /* \"#utility.yul\":19876:19896   */\n      sub\n        /* \"#utility.yul\":19872:19873   */\n      0x00\n        /* \"#utility.yul\":19861:19870   */\n      dup4\n        /* \"#utility.yul\":19857:19874   */\n      add\n        /* \"#utility.yul\":19850:19897   */\n      mstore\n        /* \"#utility.yul\":19914:20045   */\n      tag_485\n        /* \"#utility.yul\":20040:20044   */\n      dup2\n        /* \"#utility.yul\":19914:20045   */\n      tag_298\n      jump\t// in\n    tag_485:\n        /* \"#utility.yul\":19906:20045   */\n      swap1\n      pop\n        /* \"#utility.yul\":19633:20052   */\n      swap2\n      swap1\n      pop\n      jump\t// out\n        /* \"#utility.yul\":20058:20240   */\n    tag_299:\n        /* \"#utility.yul\":20198:20232   */\n      0x4f776e61626c653a2063616c6c6572206973206e6f7420746865206f776e6572\n        /* \"#utility.yul\":20194:20195   */\n      0x00\n        /* \"#utility.yul\":20186:20192   */\n      dup3\n        /* \"#utility.yul\":20182:20196   */\n      add\n        /* \"#utility.yul\":20175:20233   */\n      mstore\n        /* \"#utility.yul\":20058:20240   */\n      pop\n      jump\t// out\n        /* \"#utility.yul\":20246:20612   */\n    tag_300:\n        /* \"#utility.yul\":20388:20391   */\n      0x00\n        /* \"#utility.yul\":20409:20476   */\n      tag_488\n        /* \"#utility.yul\":20473:20475   */\n      0x20\n        /* \"#utility.yul\":20468:20471   */\n      dup4\n        /* \"#utility.yul\":20409:20476   */\n      tag_254\n      jump\t// in\n    tag_488:\n        /* \"#utility.yul\":20402:20476   */\n      swap2\n      pop\n        /* \"#utility.yul\":20485:20578   */\n      tag_489\n        /* \"#utility.yul\":20574:20577   */\n      dup3\n        /* \"#utility.yul\":20485:20578   */\n      tag_299\n      jump\t// in\n    tag_489:\n        /* \"#utility.yul\":20603:20605   */\n      0x20\n        /* \"#utility.yul\":20598:20601   */\n      dup3\n        /* \"#utility.yul\":20594:20606   */\n      add\n        /* \"#utility.yul\":20587:20606   */\n      swap1\n      pop\n        /* \"#utility.yul\":20246:20612   */\n      swap2\n      swap1\n      pop\n      jump\t// out\n        /* \"#utility.yul\":20618:21037   */\n    tag_228:\n        /* \"#utility.yul\":20784:20788   */\n      0x00\n        /* \"#utility.yul\":20822:20824   */\n      0x20\n        /* \"#utility.yul\":20811:20820   */\n      dup3\n        /* \"#utility.yul\":20807:20825   */\n      add\n        /* \"#utility.yul\":20799:20825   */\n      swap1\n      pop\n        /* \"#utility.yul\":20871:20880   */\n      dup2\n        /* \"#utility.yul\":20865:20869   */\n      dup2\n        /* \"#utility.yul\":20861:20881   */\n      sub\n        /* \"#utility.yul\":20857:20858   */\n      0x00\n        /* \"#utility.yul\":20846:20855   */\n      dup4\n        /* \"#utility.yul\":20842:20859   */\n      add\n        /* \"#utility.yul\":20835:20882   */\n      mstore\n        /* \"#utility.yul\":20899:21030   */\n      tag_491\n        /* \"#utility.yul\":21025:21029   */\n      dup2\n        /* \"#utility.yul\":20899:21030   */\n      tag_300\n      jump\t// in\n    tag_491:\n        /* \"#utility.yul\":20891:21030   */\n      swap1\n      pop\n        /* \"#utility.yul\":20618:21037   */\n      swap2\n      swap1\n      pop\n      jump\t// out\n        /* \"#utility.yul\":21043:21224   */\n    tag_301:\n        /* \"#utility.yul\":21183:21216   */\n      0x45524332303a206d696e7420746f20746865207a65726f206164647265737300\n        /* \"#utility.yul\":21179:21180   */\n      0x00\n        /* \"#utility.yul\":21171:21177   */\n      dup3\n        /* \"#utility.yul\":21167:21181   */\n      add\n        /* \"#utility.yul\":21160:21217   */\n      mstore\n        /* \"#utility.yul\":21043:21224   */\n      pop\n      jump\t// out\n        /* \"#utility.yul\":21230:21596   */\n    tag_302:\n        /* \"#utility.yul\":21372:21375   */\n      0x00\n        /* \"#utility.yul\":21393:21460   */\n      tag_494\n        /* \"#utility.yul\":21457:21459   */\n      0x1f\n        /* \"#utility.yul\":21452:21455   */\n      dup4\n        /* \"#utility.yul\":21393:21460   */\n      tag_254\n      jump\t// in\n    tag_494:\n        /* \"#utility.yul\":21386:21460   */\n      swap2\n      pop\n        /* \"#utility.yul\":21469:21562   */\n      tag_495\n        /* \"#utility.yul\":21558:21561   */\n      dup3\n        /* \"#utility.yul\":21469:21562   */\n      tag_301\n      jump\t// in\n    tag_495:\n        /* \"#utility.yul\":21587:21589   */\n      0x20\n        /* \"#utility.yul\":21582:21585   */\n      dup3\n        /* \"#utility.yul\":21578:21590   */\n      add\n        /* \"#utility.yul\":21571:21590   */\n      swap1\n      pop\n        /* \"#utility.yul\":21230:21596   */\n      swap2\n      swap1\n      pop\n      jump\t// out\n        /* \"#utility.yul\":21602:22021   */\n    tag_232:\n        /* \"#utility.yul\":21768:21772   */\n      0x00\n        /* \"#utility.yul\":21806:21808   */\n      0x20\n        /* \"#utility.yul\":21795:21804   */\n      dup3\n        /* \"#utility.yul\":21791:21809   */\n      add\n        /* \"#utility.yul\":21783:21809   */\n      swap1\n      pop\n        /* \"#utility.yul\":21855:21864   */\n      dup2\n        /* \"#utility.yul\":21849:21853   */\n      dup2\n        /* \"#utility.yul\":21845:21865   */\n      sub\n        /* \"#utility.yul\":21841:21842   */\n      0x00\n        /* \"#utility.yul\":21830:21839   */\n      dup4\n        /* \"#utility.yul\":21826:21843   */\n      add\n        /* \"#utility.yul\":21819:21866   */\n      mstore\n        /* \"#utility.yul\":21883:22014   */\n      tag_497\n        /* \"#utility.yul\":22009:22013   */\n      dup2\n        /* \"#utility.yul\":21883:22014   */\n      tag_302\n      jump\t// in\n    tag_497:\n        /* \"#utility.yul\":21875:22014   */\n      swap1\n      pop\n        /* \"#utility.yul\":21602:22021   */\n      swap2\n      swap1\n      pop\n      jump\t// out\n        /* \"#utility.yul\":22027:22247   */\n    tag_303:\n        /* \"#utility.yul\":22167:22201   */\n      0x45524332303a206275726e2066726f6d20746865207a65726f20616464726573\n        /* \"#utility.yul\":22163:22164   */\n      0x00\n        /* \"#utility.yul\":22155:22161   */\n      dup3\n        /* \"#utility.yul\":22151:22165   */\n      add\n        /* \"#utility.yul\":22144:22202   */\n      mstore\n        /* \"#utility.yul\":22236:22239   */\n      0x7300000000000000000000000000000000000000000000000000000000000000\n        /* \"#utility.yul\":22231:22233   */\n      0x20\n        /* \"#utility.yul\":22223:22229   */\n      dup3\n        /* \"#utility.yul\":22219:22234   */\n      add\n        /* \"#utility.yul\":22212:22240   */\n      mstore\n        /* \"#utility.yul\":22027:22247   */\n      pop\n      jump\t// out\n        /* \"#utility.yul\":22253:22619   */\n    tag_304:\n        /* \"#utility.yul\":22395:22398   */\n      0x00\n        /* \"#utility.yul\":22416:22483   */\n      tag_500\n        /* \"#utility.yul\":22480:22482   */\n      0x21\n        /* \"#utility.yul\":22475:22478   */\n      dup4\n        /* \"#utility.yul\":22416:22483   */\n      tag_254\n      jump\t// in\n    tag_500:\n        /* \"#utility.yul\":22409:22483   */\n      swap2\n      pop\n        /* \"#utility.yul\":22492:22585   */\n      tag_501\n        /* \"#utility.yul\":22581:22584   */\n      dup3\n        /* \"#utility.yul\":22492:22585   */\n      tag_303\n      jump\t// in\n    tag_501:\n        /* \"#utility.yul\":22610:22612   */\n      0x40\n        /* \"#utility.yul\":22605:22608   */\n      dup3\n        /* \"#utility.yul\":22601:22613   */\n      add\n        /* \"#utility.yul\":22594:22613   */\n      swap1\n      pop\n        /* \"#utility.yul\":22253:22619   */\n      swap2\n      swap1\n      pop\n      jump\t// out\n        /* \"#utility.yul\":22625:23044   */\n    tag_241:\n        /* \"#utility.yul\":22791:22795   */\n      0x00\n        /* \"#utility.yul\":22829:22831   */\n      0x20\n        /* \"#utility.yul\":22818:22827   */\n      dup3\n        /* \"#utility.yul\":22814:22832   */\n      add\n        /* \"#utility.yul\":22806:22832   */\n      swap1\n      pop\n        /* \"#utility.yul\":22878:22887   */\n      dup2\n        /* \"#utility.yul\":22872:22876   */\n      dup2\n        /* \"#utility.yul\":22868:22888   */\n      sub\n        /* \"#utility.yul\":22864:22865   */\n      0x00\n        /* \"#utility.yul\":22853:22862   */\n      dup4\n        /* \"#utility.yul\":22849:22866   */\n      add\n        /* \"#utility.yul\":22842:22889   */\n      mstore\n        /* \"#utility.yul\":22906:23037   */\n      tag_503\n        /* \"#utility.yul\":23032:23036   */\n      dup2\n        /* \"#utility.yul\":22906:23037   */\n      tag_304\n      jump\t// in\n    tag_503:\n        /* \"#utility.yul\":22898:23037   */\n      swap1\n      pop\n        /* \"#utility.yul\":22625:23044   */\n      swap2\n      swap1\n      pop\n      jump\t// out\n        /* \"#utility.yul\":23050:23271   */\n    tag_305:\n        /* \"#utility.yul\":23190:23224   */\n      0x45524332303a206275726e20616d6f756e7420657863656564732062616c616e\n        /* \"#utility.yul\":23186:23187   */\n      0x00\n        /* \"#utility.yul\":23178:23184   */\n      dup3\n        /* \"#utility.yul\":23174:23188   */\n      add\n        /* \"#utility.yul\":23167:23225   */\n      mstore\n        /* \"#utility.yul\":23259:23263   */\n      0x6365000000000000000000000000000000000000000000000000000000000000\n        /* \"#utility.yul\":23254:23256   */\n      0x20\n        /* \"#utility.yul\":23246:23252   */\n      dup3\n        /* \"#utility.yul\":23242:23257   */\n      add\n        /* \"#utility.yul\":23235:23264   */\n      mstore\n        /* \"#utility.yul\":23050:23271   */\n      pop\n      jump\t// out\n        /* \"#utility.yul\":23277:23643   */\n    tag_306:\n        /* \"#utility.yul\":23419:23422   */\n      0x00\n        /* \"#utility.yul\":23440:23507   */\n      tag_506\n        /* \"#utility.yul\":23504:23506   */\n      0x22\n        /* \"#utility.yul\":23499:23502   */\n      dup4\n        /* \"#utility.yul\":23440:23507   */\n      tag_254\n      jump\t// in\n    tag_506:\n        /* \"#utility.yul\":23433:23507   */\n      swap2\n      pop\n        /* \"#utility.yul\":23516:23609   */\n      tag_507\n        /* \"#utility.yul\":23605:23608   */\n      dup3\n        /* \"#utility.yul\":23516:23609   */\n      tag_305\n      jump\t// in\n    tag_507:\n        /* \"#utility.yul\":23634:23636   */\n      0x40\n        /* \"#utility.yul\":23629:23632   */\n      dup3\n        /* \"#utility.yul\":23625:23637   */\n      add\n        /* \"#utility.yul\":23618:23637   */\n      swap1\n      pop\n        /* \"#utility.yul\":23277:23643   */\n      swap2\n      swap1\n      pop\n      jump\t// out\n        /* \"#utility.yul\":23649:24068   */\n    tag_245:\n        /* \"#utility.yul\":23815:23819   */\n      0x00\n        /* \"#utility.yul\":23853:23855   */\n      0x20\n        /* \"#utility.yul\":23842:23851   */\n      dup3\n        /* \"#utility.yul\":23838:23856   */\n      add\n        /* \"#utility.yul\":23830:23856   */\n      swap1\n      pop\n        /* \"#utility.yul\":23902:23911   */\n      dup2\n        /* \"#utility.yul\":23896:23900   */\n      dup2\n        /* \"#utility.yul\":23892:23912   */\n      sub\n        /* \"#utility.yul\":23888:23889   */\n      0x00\n        /* \"#utility.yul\":23877:23886   */\n      dup4\n        /* \"#utility.yul\":23873:23890   */\n      add\n        /* \"#utility.yul\":23866:23913   */\n      mstore\n        /* \"#utility.yul\":23930:24061   */\n      tag_509\n        /* \"#utility.yul\":24056:24060   */\n      dup2\n        /* \"#utility.yul\":23930:24061   */\n      tag_306\n      jump\t// in\n    tag_509:\n        /* \"#utility.yul\":23922:24061   */\n      swap1\n      pop\n        /* \"#utility.yul\":23649:24068   */\n      swap2\n      swap1\n      pop\n      jump\t// out\n        /* \"#utility.yul\":24074:24268   */\n    tag_247:\n        /* \"#utility.yul\":24114:24118   */\n      0x00\n        /* \"#utility.yul\":24134:24154   */\n      tag_511\n        /* \"#utility.yul\":24152:24153   */\n      dup3\n        /* \"#utility.yul\":24134:24154   */\n      tag_265\n      jump\t// in\n    tag_511:\n        /* \"#utility.yul\":24129:24154   */\n      swap2\n      pop\n        /* \"#utility.yul\":24168:24188   */\n      tag_512\n        /* \"#utility.yul\":24186:24187   */\n      dup4\n        /* \"#utility.yul\":24168:24188   */\n      tag_265\n      jump\t// in\n    tag_512:\n        /* \"#utility.yul\":24163:24188   */\n      swap3\n      pop\n        /* \"#utility.yul\":24212:24213   */\n      dup3\n        /* \"#utility.yul\":24209:24210   */\n      dup3\n        /* \"#utility.yul\":24205:24214   */\n      sub\n        /* \"#utility.yul\":24197:24214   */\n      swap1\n      pop\n        /* \"#utility.yul\":24236:24237   */\n      dup2\n        /* \"#utility.yul\":24230:24234   */\n      dup2\n        /* \"#utility.yul\":24227:24238   */\n      gt\n        /* \"#utility.yul\":24224:24261   */\n      iszero\n      tag_513\n      jumpi\n        /* \"#utility.yul\":24241:24259   */\n      tag_514\n      tag_275\n      jump\t// in\n    tag_514:\n        /* \"#utility.yul\":24224:24261   */\n    tag_513:\n        /* \"#utility.yul\":24074:24268   */\n      swap3\n      swap2\n      pop\n      pop\n      jump\t// out\n\n    auxdata: 0xa26469706673582212200aaa077ea65313911ca5f6b9bc882fce2287b14745bf99d46880743a2f91815a64736f6c63430008100033\n}\n",
				"bytecode": {
					"linkReferences": {},
					"object": "60806040523480156200001157600080fd5b506040518060400160405280600681526020017f41524556454100000000000000000000000000000000000000000000000000008152506040518060400160405280600381526020017f415641000000000000000000000000000000000000000000000000000000000081525081600390816200008f9190620007a8565b508060049081620000a19190620007a8565b505050620000c4620000b8620000fe60201b60201c565b6200010660201b60201c565b620000f833601260ff16600a620000dc919062000a12565b620f4240620000ec919062000a63565b620001cc60201b60201c565b62000d06565b600033905090565b6000600560009054906101000a900473ffffffffffffffffffffffffffffffffffffffff16905081600560006101000a81548173ffffffffffffffffffffffffffffffffffffffff021916908373ffffffffffffffffffffffffffffffffffffffff1602179055508173ffffffffffffffffffffffffffffffffffffffff168173ffffffffffffffffffffffffffffffffffffffff167f8be0079c531659141344cd1fd0a4f28419497f9722a3daafe3b4186f6b6457e060405160405180910390a35050565b620001dc6200028460201b60201c565b601260ff16600a620001ef919062000a12565b64e8d4a5100062000201919062000a63565b6200022a82620002166200031560201b60201c565b6200031f60201b620008df1790919060201c565b11156200026e576040517f08c379a0000000000000000000000000000000000000000000000000000000008152600401620002659062000b25565b60405180910390fd5b6200028082826200038260201b60201c565b5050565b62000294620000fe60201b60201c565b73ffffffffffffffffffffffffffffffffffffffff16620002ba620004fa60201b60201c565b73ffffffffffffffffffffffffffffffffffffffff161462000313576040517f08c379a00000000000000000000000000000000000000000000000000000000081526004016200030a9062000b97565b60405180910390fd5b565b6000600254905090565b600080828462000330919062000bb9565b90508381101562000378576040517f08c379a00000000000000000000000000000000000000000000000000000000081526004016200036f9062000c44565b60405180910390fd5b8091505092915050565b600073ffffffffffffffffffffffffffffffffffffffff168273ffffffffffffffffffffffffffffffffffffffff1603620003f4576040517f08c379a0000000000000000000000000000000000000000000000000000000008152600401620003eb9062000cb6565b60405180910390fd5b62000408600083836200052460201b60201c565b80600260008282546200041c919062000bb9565b92505081905550806000808473ffffffffffffffffffffffffffffffffffffffff1673ffffffffffffffffffffffffffffffffffffffff168152602001908152602001600020600082825462000473919062000bb9565b925050819055508173ffffffffffffffffffffffffffffffffffffffff16600073ffffffffffffffffffffffffffffffffffffffff167fddf252ad1be2c89b69c2b068fc378daa952ba7f163c4a11628f55a4df523b3ef83604051620004da919062000ce9565b60405180910390a3620004f6600083836200052960201b60201c565b5050565b6000600560009054906101000a900473ffffffffffffffffffffffffffffffffffffffff16905090565b505050565b505050565b600081519050919050565b7f4e487b7100000000000000000000000000000000000000000000000000000000600052604160045260246000fd5b7f4e487b7100000000000000000000000000000000000000000000000000000000600052602260045260246000fd5b60006002820490506001821680620005b057607f821691505b602082108103620005c657620005c562000568565b5b50919050565b60008190508160005260206000209050919050565b60006020601f8301049050919050565b600082821b905092915050565b600060088302620006307fffffffffffffffffffffffffffffffffffffffffffffffffffffffffffffffff82620005f1565b6200063c8683620005f1565b95508019841693508086168417925050509392505050565b6000819050919050565b6000819050919050565b600062000689620006836200067d8462000654565b6200065e565b62000654565b9050919050565b6000819050919050565b620006a58362000668565b620006bd620006b48262000690565b848454620005fe565b825550505050565b600090565b620006d4620006c5565b620006e18184846200069a565b505050565b5b818110156200070957620006fd600082620006ca565b600181019050620006e7565b5050565b601f82111562000758576200072281620005cc565b6200072d84620005e1565b810160208510156200073d578190505b620007556200074c85620005e1565b830182620006e6565b50505b505050565b600082821c905092915050565b60006200077d600019846008026200075d565b1980831691505092915050565b60006200079883836200076a565b9150826002028217905092915050565b620007b3826200052e565b67ffffffffffffffff811115620007cf57620007ce62000539565b5b620007db825462000597565b620007e88282856200070d565b600060209050601f8311600181146200082057600084156200080b578287015190505b6200081785826200078a565b86555062000887565b601f1984166200083086620005cc565b60005b828110156200085a5784890151825560018201915060208501945060208101905062000833565b868310156200087a578489015162000876601f8916826200076a565b8355505b6001600288020188555050505b505050505050565b7f4e487b7100000000000000000000000000000000000000000000000000000000600052601160045260246000fd5b60008160011c9050919050565b6000808291508390505b60018511156200091d57808604811115620008f557620008f46200088f565b5b6001851615620009055780820291505b80810290506200091585620008be565b9450620008d5565b94509492505050565b60008262000938576001905062000a0b565b8162000948576000905062000a0b565b81600181146200096157600281146200096c57620009a2565b600191505062000a0b565b60ff8411156200098157620009806200088f565b5b8360020a9150848211156200099b576200099a6200088f565b5b5062000a0b565b5060208310610133831016604e8410600b8410161715620009dc5782820a905083811115620009d657620009d56200088f565b5b62000a0b565b620009eb8484846001620008cb565b9250905081840481111562000a055762000a046200088f565b5b81810290505b9392505050565b600062000a1f8262000654565b915062000a2c8362000654565b925062000a5b7fffffffffffffffffffffffffffffffffffffffffffffffffffffffffffffffff848462000926565b905092915050565b600062000a708262000654565b915062000a7d8362000654565b9250817fffffffffffffffffffffffffffffffffffffffffffffffffffffffffffffffff048311821515161562000ab95762000ab86200088f565b5b828202905092915050565b600082825260208201905092915050565b7f4d6178696d756d20737570706c79207265616368656400000000000000000000600082015250565b600062000b0d60168362000ac4565b915062000b1a8262000ad5565b602082019050919050565b6000602082019050818103600083015262000b408162000afe565b9050919050565b7f4f776e61626c653a2063616c6c6572206973206e6f7420746865206f776e6572600082015250565b600062000b7f60208362000ac4565b915062000b8c8262000b47565b602082019050919050565b6000602082019050818103600083015262000bb28162000b70565b9050919050565b600062000bc68262000654565b915062000bd38362000654565b925082820190508082111562000bee5762000bed6200088f565b5b92915050565b7f536166654d6174683a206164646974696f6e206f766572666c6f770000000000600082015250565b600062000c2c601b8362000ac4565b915062000c398262000bf4565b602082019050919050565b6000602082019050818103600083015262000c5f8162000c1d565b9050919050565b7f45524332303a206d696e7420746f20746865207a65726f206164647265737300600082015250565b600062000c9e601f8362000ac4565b915062000cab8262000c66565b602082019050919050565b6000602082019050818103600083015262000cd18162000c8f565b9050919050565b62000ce38162000654565b82525050565b600060208201905062000d00600083018462000cd8565b92915050565b6120188062000d166000396000f3fe608060405234801561001057600080fd5b506004361061012c5760003560e01c806342966c68116100ad57806395d89b411161007157806395d89b4114610321578063a457c2d71461033f578063a9059cbb1461036f578063dd62ed3e1461039f578063f2fde38b146103cf5761012c565b806342966c681461029157806370a08231146102ad578063715018a6146102dd57806379cc6790146102e75780638da5cb5b146103035761012c565b80632e0f2625116100f45780632e0f2625146101eb5780632ff2e9dc14610209578063313ce56714610227578063395093511461024557806340c10f19146102755761012c565b806306fdde0314610131578063095ea7b31461014f57806318160ddd1461017f5780631b62d7af1461019d57806323b872dd146101bb575b600080fd5b6101396103eb565b604051610146919061132c565b60405180910390f35b610169600480360381019061016491906113e7565b61047d565b6040516101769190611442565b60405180910390f35b6101876104a0565b604051610194919061146c565b60405180910390f35b6101a56104aa565b6040516101b2919061146c565b60405180910390f35b6101d560048036038101906101d09190611487565b6104ce565b6040516101e29190611442565b60405180910390f35b6101f36104fd565b60405161020091906114f6565b60405180910390f35b610211610502565b60405161021e919061146c565b60405180910390f35b61022f610524565b60405161023c91906114f6565b60405180910390f35b61025f600480360381019061025a91906113e7565b61052d565b60405161026c9190611442565b60405180910390f35b61028f600480360381019061028a91906113e7565b610564565b005b6102ab60048036038101906102a69190611511565b6105f6565b005b6102c760048036038101906102c2919061153e565b610603565b6040516102d4919061146c565b60405180910390f35b6102e561064b565b005b61030160048036038101906102fc91906113e7565b61065f565b005b61030b61067f565b604051610318919061157a565b60405180910390f35b6103296106a9565b604051610336919061132c565b60405180910390f35b610359600480360381019061035491906113e7565b61073b565b6040516103669190611442565b60405180910390f35b610389600480360381019061038491906113e7565b6107b2565b6040516103969190611442565b60405180910390f35b6103b960048036038101906103b49190611595565b6107d5565b6040516103c6919061146c565b60405180910390f35b6103e960048036038101906103e4919061153e565b61085c565b005b6060600380546103fa90611604565b80601f016020809104026020016040519081016040528092919081815260200182805461042690611604565b80156104735780601f1061044857610100808354040283529160200191610473565b820191906000526020600020905b81548152906001019060200180831161045657829003601f168201915b5050505050905090565b60008061048861093d565b9050610495818585610945565b600191505092915050565b6000600254905090565b601260ff16600a6104bb9190611797565b64e8d4a510006104cb91906117e2565b81565b6000806104d961093d565b90506104e6858285610b0e565b6104f1858585610b9a565b60019150509392505050565b601281565b601260ff16600a6105139190611797565b620f424061052191906117e2565b81565b60006012905090565b60008061053861093d565b905061055981858561054a85896107d5565b610554919061183c565b610945565b600191505092915050565b61056c610e19565b601260ff16600a61057d9190611797565b64e8d4a5100061058d91906117e2565b6105a7826105996104a0565b6108df90919063ffffffff16565b11156105e8576040517f08c379a00000000000000000000000000000000000000000000000000000000081526004016105df906118bc565b60405180910390fd5b6105f28282610e97565b5050565b6106003382610ff6565b50565b60008060008373ffffffffffffffffffffffffffffffffffffffff1673ffffffffffffffffffffffffffffffffffffffff168152602001908152602001600020549050919050565b610653610e19565b61065d60006111cc565b565b6106718261066b61093d565b83610b0e565b61067b8282610ff6565b5050565b6000600560009054906101000a900473ffffffffffffffffffffffffffffffffffffffff16905090565b6060600480546106b890611604565b80601f01602080910402602001604051908101604052809291908181526020018280546106e490611604565b80156107315780601f1061070657610100808354040283529160200191610731565b820191906000526020600020905b81548152906001019060200180831161071457829003601f168201915b5050505050905090565b60008061074661093d565b9050600061075482866107d5565b905083811015610799576040517f08c379a00000000000000000000000000000000000000000000000000000000081526004016107909061194e565b60405180910390fd5b6107a68286868403610945565b60019250505092915050565b6000806107bd61093d565b90506107ca818585610b9a565b600191505092915050565b6000600160008473ffffffffffffffffffffffffffffffffffffffff1673ffffffffffffffffffffffffffffffffffffffff16815260200190815260200160002060008373ffffffffffffffffffffffffffffffffffffffff1673ffffffffffffffffffffffffffffffffffffffff16815260200190815260200160002054905092915050565b610864610e19565b600073ffffffffffffffffffffffffffffffffffffffff168173ffffffffffffffffffffffffffffffffffffffff16036108d3576040517f08c379a00000000000000000000000000000000000000000000000000000000081526004016108ca906119e0565b60405180910390fd5b6108dc816111cc565b50565b60008082846108ee919061183c565b905083811015610933576040517f08c379a000000000000000000000000000000000000000000000000000000000815260040161092a90611a4c565b60405180910390fd5b8091505092915050565b600033905090565b600073ffffffffffffffffffffffffffffffffffffffff168373ffffffffffffffffffffffffffffffffffffffff16036109b4576040517f08c379a00000000000000000000000000000000000000000000000000000000081526004016109ab90611ade565b60405180910390fd5b600073ffffffffffffffffffffffffffffffffffffffff168273ffffffffffffffffffffffffffffffffffffffff1603610a23576040517f08c379a0000000000000000000000000000000000000000000000000000000008152600401610a1a90611b70565b60405180910390fd5b80600160008573ffffffffffffffffffffffffffffffffffffffff1673ffffffffffffffffffffffffffffffffffffffff16815260200190815260200160002060008473ffffffffffffffffffffffffffffffffffffffff1673ffffffffffffffffffffffffffffffffffffffff168152602001908152602001600020819055508173ffffffffffffffffffffffffffffffffffffffff168373ffffffffffffffffffffffffffffffffffffffff167f8c5be1e5ebec7d5bd14f71427d1e84f3dd0314c0f7b2291e5b200ac8c7c3b92583604051610b01919061146c565b60405180910390a3505050565b6000610b1a84846107d5565b90507fffffffffffffffffffffffffffffffffffffffffffffffffffffffffffffffff8114610b945781811015610b86576040517f08c379a0000000000000000000000000000000000000000000000000000000008152600401610b7d90611bdc565b60405180910390fd5b610b938484848403610945565b5b50505050565b600073ffffffffffffffffffffffffffffffffffffffff168373ffffffffffffffffffffffffffffffffffffffff1603610c09576040517f08c379a0000000000000000000000000000000000000000000000000000000008152600401610c0090611c6e565b60405180910390fd5b600073ffffffffffffffffffffffffffffffffffffffff168273ffffffffffffffffffffffffffffffffffffffff1603610c78576040517f08c379a0000000000000000000000000000000000000000000000000000000008152600401610c6f90611d00565b60405180910390fd5b610c83838383611292565b60008060008573ffffffffffffffffffffffffffffffffffffffff1673ffffffffffffffffffffffffffffffffffffffff16815260200190815260200160002054905081811015610d09576040517f08c379a0000000000000000000000000000000000000000000000000000000008152600401610d0090611d92565b60405180910390fd5b8181036000808673ffffffffffffffffffffffffffffffffffffffff1673ffffffffffffffffffffffffffffffffffffffff16815260200190815260200160002081905550816000808573ffffffffffffffffffffffffffffffffffffffff1673ffffffffffffffffffffffffffffffffffffffff1681526020019081526020016000206000828254610d9c919061183c565b925050819055508273ffffffffffffffffffffffffffffffffffffffff168473ffffffffffffffffffffffffffffffffffffffff167fddf252ad1be2c89b69c2b068fc378daa952ba7f163c4a11628f55a4df523b3ef84604051610e00919061146c565b60405180910390a3610e13848484611297565b50505050565b610e2161093d565b73ffffffffffffffffffffffffffffffffffffffff16610e3f61067f565b73ffffffffffffffffffffffffffffffffffffffff1614610e95576040517f08c379a0000000000000000000000000000000000000000000000000000000008152600401610e8c90611dfe565b60405180910390fd5b565b600073ffffffffffffffffffffffffffffffffffffffff168273ffffffffffffffffffffffffffffffffffffffff1603610f06576040517f08c379a0000000000000000000000000000000000000000000000000000000008152600401610efd90611e6a565b60405180910390fd5b610f1260008383611292565b8060026000828254610f24919061183c565b92505081905550806000808473ffffffffffffffffffffffffffffffffffffffff1673ffffffffffffffffffffffffffffffffffffffff1681526020019081526020016000206000828254610f79919061183c565b925050819055508173ffffffffffffffffffffffffffffffffffffffff16600073ffffffffffffffffffffffffffffffffffffffff167fddf252ad1be2c89b69c2b068fc378daa952ba7f163c4a11628f55a4df523b3ef83604051610fde919061146c565b60405180910390a3610ff260008383611297565b5050565b600073ffffffffffffffffffffffffffffffffffffffff168273ffffffffffffffffffffffffffffffffffffffff1603611065576040517f08c379a000000000000000000000000000000000000000000000000000000000815260040161105c90611efc565b60405180910390fd5b61107182600083611292565b60008060008473ffffffffffffffffffffffffffffffffffffffff1673ffffffffffffffffffffffffffffffffffffffff168152602001908152602001600020549050818110156110f7576040517f08c379a00000000000000000000000000000000000000000000000000000000081526004016110ee90611f8e565b60405180910390fd5b8181036000808573ffffffffffffffffffffffffffffffffffffffff1673ffffffffffffffffffffffffffffffffffffffff16815260200190815260200160002081905550816002600082825461114e9190611fae565b92505081905550600073ffffffffffffffffffffffffffffffffffffffff168373ffffffffffffffffffffffffffffffffffffffff167fddf252ad1be2c89b69c2b068fc378daa952ba7f163c4a11628f55a4df523b3ef846040516111b3919061146c565b60405180910390a36111c783600084611297565b505050565b6000600560009054906101000a900473ffffffffffffffffffffffffffffffffffffffff16905081600560006101000a81548173ffffffffffffffffffffffffffffffffffffffff021916908373ffffffffffffffffffffffffffffffffffffffff1602179055508173ffffffffffffffffffffffffffffffffffffffff168173ffffffffffffffffffffffffffffffffffffffff167f8be0079c531659141344cd1fd0a4f28419497f9722a3daafe3b4186f6b6457e060405160405180910390a35050565b505050565b505050565b600081519050919050565b600082825260208201905092915050565b60005b838110156112d65780820151818401526020810190506112bb565b60008484015250505050565b6000601f19601f8301169050919050565b60006112fe8261129c565b61130881856112a7565b93506113188185602086016112b8565b611321816112e2565b840191505092915050565b6000602082019050818103600083015261134681846112f3565b905092915050565b600080fd5b600073ffffffffffffffffffffffffffffffffffffffff82169050919050565b600061137e82611353565b9050919050565b61138e81611373565b811461139957600080fd5b50565b6000813590506113ab81611385565b92915050565b6000819050919050565b6113c4816113b1565b81146113cf57600080fd5b50565b6000813590506113e1816113bb565b92915050565b600080604083850312156113fe576113fd61134e565b5b600061140c8582860161139c565b925050602061141d858286016113d2565b9150509250929050565b60008115159050919050565b61143c81611427565b82525050565b60006020820190506114576000830184611433565b92915050565b611466816113b1565b82525050565b6000602082019050611481600083018461145d565b92915050565b6000806000606084860312156114a05761149f61134e565b5b60006114ae8682870161139c565b93505060206114bf8682870161139c565b92505060406114d0868287016113d2565b9150509250925092565b600060ff82169050919050565b6114f0816114da565b82525050565b600060208201905061150b60008301846114e7565b92915050565b6000602082840312156115275761152661134e565b5b6000611535848285016113d2565b91505092915050565b6000602082840312156115545761155361134e565b5b60006115628482850161139c565b91505092915050565b61157481611373565b82525050565b600060208201905061158f600083018461156b565b92915050565b600080604083850312156115ac576115ab61134e565b5b60006115ba8582860161139c565b92505060206115cb8582860161139c565b9150509250929050565b7f4e487b7100000000000000000000000000000000000000000000000000000000600052602260045260246000fd5b6000600282049050600182168061161c57607f821691505b60208210810361162f5761162e6115d5565b5b50919050565b7f4e487b7100000000000000000000000000000000000000000000000000000000600052601160045260246000fd5b60008160011c9050919050565b6000808291508390505b60018511156116bb5780860481111561169757611696611635565b5b60018516156116a65780820291505b80810290506116b485611664565b945061167b565b94509492505050565b6000826116d45760019050611790565b816116e25760009050611790565b81600181146116f8576002811461170257611731565b6001915050611790565b60ff84111561171457611713611635565b5b8360020a91508482111561172b5761172a611635565b5b50611790565b5060208310610133831016604e8410600b84101617156117665782820a90508381111561176157611760611635565b5b611790565b6117738484846001611671565b9250905081840481111561178a57611789611635565b5b81810290505b9392505050565b60006117a2826113b1565b91506117ad836113b1565b92506117da7fffffffffffffffffffffffffffffffffffffffffffffffffffffffffffffffff84846116c4565b905092915050565b60006117ed826113b1565b91506117f8836113b1565b9250817fffffffffffffffffffffffffffffffffffffffffffffffffffffffffffffffff048311821515161561183157611830611635565b5b828202905092915050565b6000611847826113b1565b9150611852836113b1565b925082820190508082111561186a57611869611635565b5b92915050565b7f4d6178696d756d20737570706c79207265616368656400000000000000000000600082015250565b60006118a66016836112a7565b91506118b182611870565b602082019050919050565b600060208201905081810360008301526118d581611899565b9050919050565b7f45524332303a2064656372656173656420616c6c6f77616e63652062656c6f7760008201527f207a65726f000000000000000000000000000000000000000000000000000000602082015250565b60006119386025836112a7565b9150611943826118dc565b604082019050919050565b600060208201905081810360008301526119678161192b565b9050919050565b7f4f776e61626c653a206e6577206f776e657220697320746865207a65726f206160008201527f6464726573730000000000000000000000000000000000000000000000000000602082015250565b60006119ca6026836112a7565b91506119d58261196e565b604082019050919050565b600060208201905081810360008301526119f9816119bd565b9050919050565b7f536166654d6174683a206164646974696f6e206f766572666c6f770000000000600082015250565b6000611a36601b836112a7565b9150611a4182611a00565b602082019050919050565b60006020820190508181036000830152611a6581611a29565b9050919050565b7f45524332303a20617070726f76652066726f6d20746865207a65726f2061646460008201527f7265737300000000000000000000000000000000000000000000000000000000602082015250565b6000611ac86024836112a7565b9150611ad382611a6c565b604082019050919050565b60006020820190508181036000830152611af781611abb565b9050919050565b7f45524332303a20617070726f766520746f20746865207a65726f20616464726560008201527f7373000000000000000000000000000000000000000000000000000000000000602082015250565b6000611b5a6022836112a7565b9150611b6582611afe565b604082019050919050565b60006020820190508181036000830152611b8981611b4d565b9050919050565b7f45524332303a20696e73756666696369656e7420616c6c6f77616e6365000000600082015250565b6000611bc6601d836112a7565b9150611bd182611b90565b602082019050919050565b60006020820190508181036000830152611bf581611bb9565b9050919050565b7f45524332303a207472616e736665722066726f6d20746865207a65726f20616460008201527f6472657373000000000000000000000000000000000000000000000000000000602082015250565b6000611c586025836112a7565b9150611c6382611bfc565b604082019050919050565b60006020820190508181036000830152611c8781611c4b565b9050919050565b7f45524332303a207472616e7366657220746f20746865207a65726f206164647260008201527f6573730000000000000000000000000000000000000000000000000000000000602082015250565b6000611cea6023836112a7565b9150611cf582611c8e565b604082019050919050565b60006020820190508181036000830152611d1981611cdd565b9050919050565b7f45524332303a207472616e7366657220616d6f756e742065786365656473206260008201527f616c616e63650000000000000000000000000000000000000000000000000000602082015250565b6000611d7c6026836112a7565b9150611d8782611d20565b604082019050919050565b60006020820190508181036000830152611dab81611d6f565b9050919050565b7f4f776e61626c653a2063616c6c6572206973206e6f7420746865206f776e6572600082015250565b6000611de86020836112a7565b9150611df382611db2565b602082019050919050565b60006020820190508181036000830152611e1781611ddb565b9050919050565b7f45524332303a206d696e7420746f20746865207a65726f206164647265737300600082015250565b6000611e54601f836112a7565b9150611e5f82611e1e565b602082019050919050565b60006020820190508181036000830152611e8381611e47565b9050919050565b7f45524332303a206275726e2066726f6d20746865207a65726f2061646472657360008201527f7300000000000000000000000000000000000000000000000000000000000000602082015250565b6000611ee66021836112a7565b9150611ef182611e8a565b604082019050919050565b60006020820190508181036000830152611f1581611ed9565b9050919050565b7f45524332303a206275726e20616d6f756e7420657863656564732062616c616e60008201527f6365000000000000000000000000000000000000000000000000000000000000602082015250565b6000611f786022836112a7565b9150611f8382611f1c565b604082019050919050565b60006020820190508181036000830152611fa781611f6b565b9050919050565b6000611fb9826113b1565b9150611fc4836113b1565b9250828203905081811115611fdc57611fdb611635565b5b9291505056fea26469706673582212200aaa077ea65313911ca5f6b9bc882fce2287b14745bf99d46880743a2f91815a64736f6c63430008100033",
					"opcodes": "PUSH1 0x80 PUSH1 0x40 MSTORE CALLVALUE DUP1 ISZERO PUSH3 0x11 JUMPI PUSH1 0x0 DUP1 REVERT JUMPDEST POP PUSH1 0x40 MLOAD DUP1 PUSH1 0x40 ADD PUSH1 0x40 MSTORE DUP1 PUSH1 0x6 DUP2 MSTORE PUSH1 0x20 ADD PUSH32 0x4152455645410000000000000000000000000000000000000000000000000000 DUP2 MSTORE POP PUSH1 0x40 MLOAD DUP1 PUSH1 0x40 ADD PUSH1 0x40 MSTORE DUP1 PUSH1 0x3 DUP2 MSTORE PUSH1 0x20 ADD PUSH32 0x4156410000000000000000000000000000000000000000000000000000000000 DUP2 MSTORE POP DUP2 PUSH1 0x3 SWAP1 DUP2 PUSH3 0x8F SWAP2 SWAP1 PUSH3 0x7A8 JUMP JUMPDEST POP DUP1 PUSH1 0x4 SWAP1 DUP2 PUSH3 0xA1 SWAP2 SWAP1 PUSH3 0x7A8 JUMP JUMPDEST POP POP POP PUSH3 0xC4 PUSH3 0xB8 PUSH3 0xFE PUSH1 0x20 SHL PUSH1 0x20 SHR JUMP JUMPDEST PUSH3 0x106 PUSH1 0x20 SHL PUSH1 0x20 SHR JUMP JUMPDEST PUSH3 0xF8 CALLER PUSH1 0x12 PUSH1 0xFF AND PUSH1 0xA PUSH3 0xDC SWAP2 SWAP1 PUSH3 0xA12 JUMP JUMPDEST PUSH3 0xF4240 PUSH3 0xEC SWAP2 SWAP1 PUSH3 0xA63 JUMP JUMPDEST PUSH3 0x1CC PUSH1 0x20 SHL PUSH1 0x20 SHR JUMP JUMPDEST PUSH3 0xD06 JUMP JUMPDEST PUSH1 0x0 CALLER SWAP1 POP SWAP1 JUMP JUMPDEST PUSH1 0x0 PUSH1 0x5 PUSH1 0x0 SWAP1 SLOAD SWAP1 PUSH2 0x100 EXP SWAP1 DIV PUSH20 0xFFFFFFFFFFFFFFFFFFFFFFFFFFFFFFFFFFFFFFFF AND SWAP1 POP DUP2 PUSH1 0x5 PUSH1 0x0 PUSH2 0x100 EXP DUP2 SLOAD DUP2 PUSH20 0xFFFFFFFFFFFFFFFFFFFFFFFFFFFFFFFFFFFFFFFF MUL NOT AND SWAP1 DUP4 PUSH20 0xFFFFFFFFFFFFFFFFFFFFFFFFFFFFFFFFFFFFFFFF AND MUL OR SWAP1 SSTORE POP DUP2 PUSH20 0xFFFFFFFFFFFFFFFFFFFFFFFFFFFFFFFFFFFFFFFF AND DUP2 PUSH20 0xFFFFFFFFFFFFFFFFFFFFFFFFFFFFFFFFFFFFFFFF AND PUSH32 0x8BE0079C531659141344CD1FD0A4F28419497F9722A3DAAFE3B4186F6B6457E0 PUSH1 0x40 MLOAD PUSH1 0x40 MLOAD DUP1 SWAP2 SUB SWAP1 LOG3 POP POP JUMP JUMPDEST PUSH3 0x1DC PUSH3 0x284 PUSH1 0x20 SHL PUSH1 0x20 SHR JUMP JUMPDEST PUSH1 0x12 PUSH1 0xFF AND PUSH1 0xA PUSH3 0x1EF SWAP2 SWAP1 PUSH3 0xA12 JUMP JUMPDEST PUSH5 0xE8D4A51000 PUSH3 0x201 SWAP2 SWAP1 PUSH3 0xA63 JUMP JUMPDEST PUSH3 0x22A DUP3 PUSH3 0x216 PUSH3 0x315 PUSH1 0x20 SHL PUSH1 0x20 SHR JUMP JUMPDEST PUSH3 0x31F PUSH1 0x20 SHL PUSH3 0x8DF OR SWAP1 SWAP2 SWAP1 PUSH1 0x20 SHR JUMP JUMPDEST GT ISZERO PUSH3 0x26E JUMPI PUSH1 0x40 MLOAD PUSH32 0x8C379A000000000000000000000000000000000000000000000000000000000 DUP2 MSTORE PUSH1 0x4 ADD PUSH3 0x265 SWAP1 PUSH3 0xB25 JUMP JUMPDEST PUSH1 0x40 MLOAD DUP1 SWAP2 SUB SWAP1 REVERT JUMPDEST PUSH3 0x280 DUP3 DUP3 PUSH3 0x382 PUSH1 0x20 SHL PUSH1 0x20 SHR JUMP JUMPDEST POP POP JUMP JUMPDEST PUSH3 0x294 PUSH3 0xFE PUSH1 0x20 SHL PUSH1 0x20 SHR JUMP JUMPDEST PUSH20 0xFFFFFFFFFFFFFFFFFFFFFFFFFFFFFFFFFFFFFFFF AND PUSH3 0x2BA PUSH3 0x4FA PUSH1 0x20 SHL PUSH1 0x20 SHR JUMP JUMPDEST PUSH20 0xFFFFFFFFFFFFFFFFFFFFFFFFFFFFFFFFFFFFFFFF AND EQ PUSH3 0x313 JUMPI PUSH1 0x40 MLOAD PUSH32 0x8C379A000000000000000000000000000000000000000000000000000000000 DUP2 MSTORE PUSH1 0x4 ADD PUSH3 0x30A SWAP1 PUSH3 0xB97 JUMP JUMPDEST PUSH1 0x40 MLOAD DUP1 SWAP2 SUB SWAP1 REVERT JUMPDEST JUMP JUMPDEST PUSH1 0x0 PUSH1 0x2 SLOAD SWAP1 POP SWAP1 JUMP JUMPDEST PUSH1 0x0 DUP1 DUP3 DUP5 PUSH3 0x330 SWAP2 SWAP1 PUSH3 0xBB9 JUMP JUMPDEST SWAP1 POP DUP4 DUP2 LT ISZERO PUSH3 0x378 JUMPI PUSH1 0x40 MLOAD PUSH32 0x8C379A000000000000000000000000000000000000000000000000000000000 DUP2 MSTORE PUSH1 0x4 ADD PUSH3 0x36F SWAP1 PUSH3 0xC44 JUMP JUMPDEST PUSH1 0x40 MLOAD DUP1 SWAP2 SUB SWAP1 REVERT JUMPDEST DUP1 SWAP2 POP POP SWAP3 SWAP2 POP POP JUMP JUMPDEST PUSH1 0x0 PUSH20 0xFFFFFFFFFFFFFFFFFFFFFFFFFFFFFFFFFFFFFFFF AND DUP3 PUSH20 0xFFFFFFFFFFFFFFFFFFFFFFFFFFFFFFFFFFFFFFFF AND SUB PUSH3 0x3F4 JUMPI PUSH1 0x40 MLOAD PUSH32 0x8C379A000000000000000000000000000000000000000000000000000000000 DUP2 MSTORE PUSH1 0x4 ADD PUSH3 0x3EB SWAP1 PUSH3 0xCB6 JUMP JUMPDEST PUSH1 0x40 MLOAD DUP1 SWAP2 SUB SWAP1 REVERT JUMPDEST PUSH3 0x408 PUSH1 0x0 DUP4 DUP4 PUSH3 0x524 PUSH1 0x20 SHL PUSH1 0x20 SHR JUMP JUMPDEST DUP1 PUSH1 0x2 PUSH1 0x0 DUP3 DUP3 SLOAD PUSH3 0x41C SWAP2 SWAP1 PUSH3 0xBB9 JUMP JUMPDEST SWAP3 POP POP DUP2 SWAP1 SSTORE POP DUP1 PUSH1 0x0 DUP1 DUP5 PUSH20 0xFFFFFFFFFFFFFFFFFFFFFFFFFFFFFFFFFFFFFFFF AND PUSH20 0xFFFFFFFFFFFFFFFFFFFFFFFFFFFFFFFFFFFFFFFF AND DUP2 MSTORE PUSH1 0x20 ADD SWAP1 DUP2 MSTORE PUSH1 0x20 ADD PUSH1 0x0 KECCAK256 PUSH1 0x0 DUP3 DUP3 SLOAD PUSH3 0x473 SWAP2 SWAP1 PUSH3 0xBB9 JUMP JUMPDEST SWAP3 POP POP DUP2 SWAP1 SSTORE POP DUP2 PUSH20 0xFFFFFFFFFFFFFFFFFFFFFFFFFFFFFFFFFFFFFFFF AND PUSH1 0x0 PUSH20 0xFFFFFFFFFFFFFFFFFFFFFFFFFFFFFFFFFFFFFFFF AND PUSH32 0xDDF252AD1BE2C89B69C2B068FC378DAA952BA7F163C4A11628F55A4DF523B3EF DUP4 PUSH1 0x40 MLOAD PUSH3 0x4DA SWAP2 SWAP1 PUSH3 0xCE9 JUMP JUMPDEST PUSH1 0x40 MLOAD DUP1 SWAP2 SUB SWAP1 LOG3 PUSH3 0x4F6 PUSH1 0x0 DUP4 DUP4 PUSH3 0x529 PUSH1 0x20 SHL PUSH1 0x20 SHR JUMP JUMPDEST POP POP JUMP JUMPDEST PUSH1 0x0 PUSH1 0x5 PUSH1 0x0 SWAP1 SLOAD SWAP1 PUSH2 0x100 EXP SWAP1 DIV PUSH20 0xFFFFFFFFFFFFFFFFFFFFFFFFFFFFFFFFFFFFFFFF AND SWAP1 POP SWAP1 JUMP JUMPDEST POP POP POP JUMP JUMPDEST POP POP POP JUMP JUMPDEST PUSH1 0x0 DUP2 MLOAD SWAP1 POP SWAP2 SWAP1 POP JUMP JUMPDEST PUSH32 0x4E487B7100000000000000000000000000000000000000000000000000000000 PUSH1 0x0 MSTORE PUSH1 0x41 PUSH1 0x4 MSTORE PUSH1 0x24 PUSH1 0x0 REVERT JUMPDEST PUSH32 0x4E487B7100000000000000000000000000000000000000000000000000000000 PUSH1 0x0 MSTORE PUSH1 0x22 PUSH1 0x4 MSTORE PUSH1 0x24 PUSH1 0x0 REVERT JUMPDEST PUSH1 0x0 PUSH1 0x2 DUP3 DIV SWAP1 POP PUSH1 0x1 DUP3 AND DUP1 PUSH3 0x5B0 JUMPI PUSH1 0x7F DUP3 AND SWAP2 POP JUMPDEST PUSH1 0x20 DUP3 LT DUP2 SUB PUSH3 0x5C6 JUMPI PUSH3 0x5C5 PUSH3 0x568 JUMP JUMPDEST JUMPDEST POP SWAP2 SWAP1 POP JUMP JUMPDEST PUSH1 0x0 DUP2 SWAP1 POP DUP2 PUSH1 0x0 MSTORE PUSH1 0x20 PUSH1 0x0 KECCAK256 SWAP1 POP SWAP2 SWAP1 POP JUMP JUMPDEST PUSH1 0x0 PUSH1 0x20 PUSH1 0x1F DUP4 ADD DIV SWAP1 POP SWAP2 SWAP1 POP JUMP JUMPDEST PUSH1 0x0 DUP3 DUP3 SHL SWAP1 POP SWAP3 SWAP2 POP POP JUMP JUMPDEST PUSH1 0x0 PUSH1 0x8 DUP4 MUL PUSH3 0x630 PUSH32 0xFFFFFFFFFFFFFFFFFFFFFFFFFFFFFFFFFFFFFFFFFFFFFFFFFFFFFFFFFFFFFFFF DUP3 PUSH3 0x5F1 JUMP JUMPDEST PUSH3 0x63C DUP7 DUP4 PUSH3 0x5F1 JUMP JUMPDEST SWAP6 POP DUP1 NOT DUP5 AND SWAP4 POP DUP1 DUP7 AND DUP5 OR SWAP3 POP POP POP SWAP4 SWAP3 POP POP POP JUMP JUMPDEST PUSH1 0x0 DUP2 SWAP1 POP SWAP2 SWAP1 POP JUMP JUMPDEST PUSH1 0x0 DUP2 SWAP1 POP SWAP2 SWAP1 POP JUMP JUMPDEST PUSH1 0x0 PUSH3 0x689 PUSH3 0x683 PUSH3 0x67D DUP5 PUSH3 0x654 JUMP JUMPDEST PUSH3 0x65E JUMP JUMPDEST PUSH3 0x654 JUMP JUMPDEST SWAP1 POP SWAP2 SWAP1 POP JUMP JUMPDEST PUSH1 0x0 DUP2 SWAP1 POP SWAP2 SWAP1 POP JUMP JUMPDEST PUSH3 0x6A5 DUP4 PUSH3 0x668 JUMP JUMPDEST PUSH3 0x6BD PUSH3 0x6B4 DUP3 PUSH3 0x690 JUMP JUMPDEST DUP5 DUP5 SLOAD PUSH3 0x5FE JUMP JUMPDEST DUP3 SSTORE POP POP POP POP JUMP JUMPDEST PUSH1 0x0 SWAP1 JUMP JUMPDEST PUSH3 0x6D4 PUSH3 0x6C5 JUMP JUMPDEST PUSH3 0x6E1 DUP2 DUP5 DUP5 PUSH3 0x69A JUMP JUMPDEST POP POP POP JUMP JUMPDEST JUMPDEST DUP2 DUP2 LT ISZERO PUSH3 0x709 JUMPI PUSH3 0x6FD PUSH1 0x0 DUP3 PUSH3 0x6CA JUMP JUMPDEST PUSH1 0x1 DUP2 ADD SWAP1 POP PUSH3 0x6E7 JUMP JUMPDEST POP POP JUMP JUMPDEST PUSH1 0x1F DUP3 GT ISZERO PUSH3 0x758 JUMPI PUSH3 0x722 DUP2 PUSH3 0x5CC JUMP JUMPDEST PUSH3 0x72D DUP5 PUSH3 0x5E1 JUMP JUMPDEST DUP2 ADD PUSH1 0x20 DUP6 LT ISZERO PUSH3 0x73D JUMPI DUP2 SWAP1 POP JUMPDEST PUSH3 0x755 PUSH3 0x74C DUP6 PUSH3 0x5E1 JUMP JUMPDEST DUP4 ADD DUP3 PUSH3 0x6E6 JUMP JUMPDEST POP POP JUMPDEST POP POP POP JUMP JUMPDEST PUSH1 0x0 DUP3 DUP3 SHR SWAP1 POP SWAP3 SWAP2 POP POP JUMP JUMPDEST PUSH1 0x0 PUSH3 0x77D PUSH1 0x0 NOT DUP5 PUSH1 0x8 MUL PUSH3 0x75D JUMP JUMPDEST NOT DUP1 DUP4 AND SWAP2 POP POP SWAP3 SWAP2 POP POP JUMP JUMPDEST PUSH1 0x0 PUSH3 0x798 DUP4 DUP4 PUSH3 0x76A JUMP JUMPDEST SWAP2 POP DUP3 PUSH1 0x2 MUL DUP3 OR SWAP1 POP SWAP3 SWAP2 POP POP JUMP JUMPDEST PUSH3 0x7B3 DUP3 PUSH3 0x52E JUMP JUMPDEST PUSH8 0xFFFFFFFFFFFFFFFF DUP2 GT ISZERO PUSH3 0x7CF JUMPI PUSH3 0x7CE PUSH3 0x539 JUMP JUMPDEST JUMPDEST PUSH3 0x7DB DUP3 SLOAD PUSH3 0x597 JUMP JUMPDEST PUSH3 0x7E8 DUP3 DUP3 DUP6 PUSH3 0x70D JUMP JUMPDEST PUSH1 0x0 PUSH1 0x20 SWAP1 POP PUSH1 0x1F DUP4 GT PUSH1 0x1 DUP2 EQ PUSH3 0x820 JUMPI PUSH1 0x0 DUP5 ISZERO PUSH3 0x80B JUMPI DUP3 DUP8 ADD MLOAD SWAP1 POP JUMPDEST PUSH3 0x817 DUP6 DUP3 PUSH3 0x78A JUMP JUMPDEST DUP7 SSTORE POP PUSH3 0x887 JUMP JUMPDEST PUSH1 0x1F NOT DUP5 AND PUSH3 0x830 DUP7 PUSH3 0x5CC JUMP JUMPDEST PUSH1 0x0 JUMPDEST DUP3 DUP2 LT ISZERO PUSH3 0x85A JUMPI DUP5 DUP10 ADD MLOAD DUP3 SSTORE PUSH1 0x1 DUP3 ADD SWAP2 POP PUSH1 0x20 DUP6 ADD SWAP5 POP PUSH1 0x20 DUP2 ADD SWAP1 POP PUSH3 0x833 JUMP JUMPDEST DUP7 DUP4 LT ISZERO PUSH3 0x87A JUMPI DUP5 DUP10 ADD MLOAD PUSH3 0x876 PUSH1 0x1F DUP10 AND DUP3 PUSH3 0x76A JUMP JUMPDEST DUP4 SSTORE POP JUMPDEST PUSH1 0x1 PUSH1 0x2 DUP9 MUL ADD DUP9 SSTORE POP POP POP JUMPDEST POP POP POP POP POP POP JUMP JUMPDEST PUSH32 0x4E487B7100000000000000000000000000000000000000000000000000000000 PUSH1 0x0 MSTORE PUSH1 0x11 PUSH1 0x4 MSTORE PUSH1 0x24 PUSH1 0x0 REVERT JUMPDEST PUSH1 0x0 DUP2 PUSH1 0x1 SHR SWAP1 POP SWAP2 SWAP1 POP JUMP JUMPDEST PUSH1 0x0 DUP1 DUP3 SWAP2 POP DUP4 SWAP1 POP JUMPDEST PUSH1 0x1 DUP6 GT ISZERO PUSH3 0x91D JUMPI DUP1 DUP7 DIV DUP2 GT ISZERO PUSH3 0x8F5 JUMPI PUSH3 0x8F4 PUSH3 0x88F JUMP JUMPDEST JUMPDEST PUSH1 0x1 DUP6 AND ISZERO PUSH3 0x905 JUMPI DUP1 DUP3 MUL SWAP2 POP JUMPDEST DUP1 DUP2 MUL SWAP1 POP PUSH3 0x915 DUP6 PUSH3 0x8BE JUMP JUMPDEST SWAP5 POP PUSH3 0x8D5 JUMP JUMPDEST SWAP5 POP SWAP5 SWAP3 POP POP POP JUMP JUMPDEST PUSH1 0x0 DUP3 PUSH3 0x938 JUMPI PUSH1 0x1 SWAP1 POP PUSH3 0xA0B JUMP JUMPDEST DUP2 PUSH3 0x948 JUMPI PUSH1 0x0 SWAP1 POP PUSH3 0xA0B JUMP JUMPDEST DUP2 PUSH1 0x1 DUP2 EQ PUSH3 0x961 JUMPI PUSH1 0x2 DUP2 EQ PUSH3 0x96C JUMPI PUSH3 0x9A2 JUMP JUMPDEST PUSH1 0x1 SWAP2 POP POP PUSH3 0xA0B JUMP JUMPDEST PUSH1 0xFF DUP5 GT ISZERO PUSH3 0x981 JUMPI PUSH3 0x980 PUSH3 0x88F JUMP JUMPDEST JUMPDEST DUP4 PUSH1 0x2 EXP SWAP2 POP DUP5 DUP3 GT ISZERO PUSH3 0x99B JUMPI PUSH3 0x99A PUSH3 0x88F JUMP JUMPDEST JUMPDEST POP PUSH3 0xA0B JUMP JUMPDEST POP PUSH1 0x20 DUP4 LT PUSH2 0x133 DUP4 LT AND PUSH1 0x4E DUP5 LT PUSH1 0xB DUP5 LT AND OR ISZERO PUSH3 0x9DC JUMPI DUP3 DUP3 EXP SWAP1 POP DUP4 DUP2 GT ISZERO PUSH3 0x9D6 JUMPI PUSH3 0x9D5 PUSH3 0x88F JUMP JUMPDEST JUMPDEST PUSH3 0xA0B JUMP JUMPDEST PUSH3 0x9EB DUP5 DUP5 DUP5 PUSH1 0x1 PUSH3 0x8CB JUMP JUMPDEST SWAP3 POP SWAP1 POP DUP2 DUP5 DIV DUP2 GT ISZERO PUSH3 0xA05 JUMPI PUSH3 0xA04 PUSH3 0x88F JUMP JUMPDEST JUMPDEST DUP2 DUP2 MUL SWAP1 POP JUMPDEST SWAP4 SWAP3 POP POP POP JUMP JUMPDEST PUSH1 0x0 PUSH3 0xA1F DUP3 PUSH3 0x654 JUMP JUMPDEST SWAP2 POP PUSH3 0xA2C DUP4 PUSH3 0x654 JUMP JUMPDEST SWAP3 POP PUSH3 0xA5B PUSH32 0xFFFFFFFFFFFFFFFFFFFFFFFFFFFFFFFFFFFFFFFFFFFFFFFFFFFFFFFFFFFFFFFF DUP5 DUP5 PUSH3 0x926 JUMP JUMPDEST SWAP1 POP SWAP3 SWAP2 POP POP JUMP JUMPDEST PUSH1 0x0 PUSH3 0xA70 DUP3 PUSH3 0x654 JUMP JUMPDEST SWAP2 POP PUSH3 0xA7D DUP4 PUSH3 0x654 JUMP JUMPDEST SWAP3 POP DUP2 PUSH32 0xFFFFFFFFFFFFFFFFFFFFFFFFFFFFFFFFFFFFFFFFFFFFFFFFFFFFFFFFFFFFFFFF DIV DUP4 GT DUP3 ISZERO ISZERO AND ISZERO PUSH3 0xAB9 JUMPI PUSH3 0xAB8 PUSH3 0x88F JUMP JUMPDEST JUMPDEST DUP3 DUP3 MUL SWAP1 POP SWAP3 SWAP2 POP POP JUMP JUMPDEST PUSH1 0x0 DUP3 DUP3 MSTORE PUSH1 0x20 DUP3 ADD SWAP1 POP SWAP3 SWAP2 POP POP JUMP JUMPDEST PUSH32 0x4D6178696D756D20737570706C79207265616368656400000000000000000000 PUSH1 0x0 DUP3 ADD MSTORE POP JUMP JUMPDEST PUSH1 0x0 PUSH3 0xB0D PUSH1 0x16 DUP4 PUSH3 0xAC4 JUMP JUMPDEST SWAP2 POP PUSH3 0xB1A DUP3 PUSH3 0xAD5 JUMP JUMPDEST PUSH1 0x20 DUP3 ADD SWAP1 POP SWAP2 SWAP1 POP JUMP JUMPDEST PUSH1 0x0 PUSH1 0x20 DUP3 ADD SWAP1 POP DUP2 DUP2 SUB PUSH1 0x0 DUP4 ADD MSTORE PUSH3 0xB40 DUP2 PUSH3 0xAFE JUMP JUMPDEST SWAP1 POP SWAP2 SWAP1 POP JUMP JUMPDEST PUSH32 0x4F776E61626C653A2063616C6C6572206973206E6F7420746865206F776E6572 PUSH1 0x0 DUP3 ADD MSTORE POP JUMP JUMPDEST PUSH1 0x0 PUSH3 0xB7F PUSH1 0x20 DUP4 PUSH3 0xAC4 JUMP JUMPDEST SWAP2 POP PUSH3 0xB8C DUP3 PUSH3 0xB47 JUMP JUMPDEST PUSH1 0x20 DUP3 ADD SWAP1 POP SWAP2 SWAP1 POP JUMP JUMPDEST PUSH1 0x0 PUSH1 0x20 DUP3 ADD SWAP1 POP DUP2 DUP2 SUB PUSH1 0x0 DUP4 ADD MSTORE PUSH3 0xBB2 DUP2 PUSH3 0xB70 JUMP JUMPDEST SWAP1 POP SWAP2 SWAP1 POP JUMP JUMPDEST PUSH1 0x0 PUSH3 0xBC6 DUP3 PUSH3 0x654 JUMP JUMPDEST SWAP2 POP PUSH3 0xBD3 DUP4 PUSH3 0x654 JUMP JUMPDEST SWAP3 POP DUP3 DUP3 ADD SWAP1 POP DUP1 DUP3 GT ISZERO PUSH3 0xBEE JUMPI PUSH3 0xBED PUSH3 0x88F JUMP JUMPDEST JUMPDEST SWAP3 SWAP2 POP POP JUMP JUMPDEST PUSH32 0x536166654D6174683A206164646974696F6E206F766572666C6F770000000000 PUSH1 0x0 DUP3 ADD MSTORE POP JUMP JUMPDEST PUSH1 0x0 PUSH3 0xC2C PUSH1 0x1B DUP4 PUSH3 0xAC4 JUMP JUMPDEST SWAP2 POP PUSH3 0xC39 DUP3 PUSH3 0xBF4 JUMP JUMPDEST PUSH1 0x20 DUP3 ADD SWAP1 POP SWAP2 SWAP1 POP JUMP JUMPDEST PUSH1 0x0 PUSH1 0x20 DUP3 ADD SWAP1 POP DUP2 DUP2 SUB PUSH1 0x0 DUP4 ADD MSTORE PUSH3 0xC5F DUP2 PUSH3 0xC1D JUMP JUMPDEST SWAP1 POP SWAP2 SWAP1 POP JUMP JUMPDEST PUSH32 0x45524332303A206D696E7420746F20746865207A65726F206164647265737300 PUSH1 0x0 DUP3 ADD MSTORE POP JUMP JUMPDEST PUSH1 0x0 PUSH3 0xC9E PUSH1 0x1F DUP4 PUSH3 0xAC4 JUMP JUMPDEST SWAP2 POP PUSH3 0xCAB DUP3 PUSH3 0xC66 JUMP JUMPDEST PUSH1 0x20 DUP3 ADD SWAP1 POP SWAP2 SWAP1 POP JUMP JUMPDEST PUSH1 0x0 PUSH1 0x20 DUP3 ADD SWAP1 POP DUP2 DUP2 SUB PUSH1 0x0 DUP4 ADD MSTORE PUSH3 0xCD1 DUP2 PUSH3 0xC8F JUMP JUMPDEST SWAP1 POP SWAP2 SWAP1 POP JUMP JUMPDEST PUSH3 0xCE3 DUP2 PUSH3 0x654 JUMP JUMPDEST DUP3 MSTORE POP POP JUMP JUMPDEST PUSH1 0x0 PUSH1 0x20 DUP3 ADD SWAP1 POP PUSH3 0xD00 PUSH1 0x0 DUP4 ADD DUP5 PUSH3 0xCD8 JUMP JUMPDEST SWAP3 SWAP2 POP POP JUMP JUMPDEST PUSH2 0x2018 DUP1 PUSH3 0xD16 PUSH1 0x0 CODECOPY PUSH1 0x0 RETURN INVALID PUSH1 0x80 PUSH1 0x40 MSTORE CALLVALUE DUP1 ISZERO PUSH2 0x10 JUMPI PUSH1 0x0 DUP1 REVERT JUMPDEST POP PUSH1 0x4 CALLDATASIZE LT PUSH2 0x12C JUMPI PUSH1 0x0 CALLDATALOAD PUSH1 0xE0 SHR DUP1 PUSH4 0x42966C68 GT PUSH2 0xAD JUMPI DUP1 PUSH4 0x95D89B41 GT PUSH2 0x71 JUMPI DUP1 PUSH4 0x95D89B41 EQ PUSH2 0x321 JUMPI DUP1 PUSH4 0xA457C2D7 EQ PUSH2 0x33F JUMPI DUP1 PUSH4 0xA9059CBB EQ PUSH2 0x36F JUMPI DUP1 PUSH4 0xDD62ED3E EQ PUSH2 0x39F JUMPI DUP1 PUSH4 0xF2FDE38B EQ PUSH2 0x3CF JUMPI PUSH2 0x12C JUMP JUMPDEST DUP1 PUSH4 0x42966C68 EQ PUSH2 0x291 JUMPI DUP1 PUSH4 0x70A08231 EQ PUSH2 0x2AD JUMPI DUP1 PUSH4 0x715018A6 EQ PUSH2 0x2DD JUMPI DUP1 PUSH4 0x79CC6790 EQ PUSH2 0x2E7 JUMPI DUP1 PUSH4 0x8DA5CB5B EQ PUSH2 0x303 JUMPI PUSH2 0x12C JUMP JUMPDEST DUP1 PUSH4 0x2E0F2625 GT PUSH2 0xF4 JUMPI DUP1 PUSH4 0x2E0F2625 EQ PUSH2 0x1EB JUMPI DUP1 PUSH4 0x2FF2E9DC EQ PUSH2 0x209 JUMPI DUP1 PUSH4 0x313CE567 EQ PUSH2 0x227 JUMPI DUP1 PUSH4 0x39509351 EQ PUSH2 0x245 JUMPI DUP1 PUSH4 0x40C10F19 EQ PUSH2 0x275 JUMPI PUSH2 0x12C JUMP JUMPDEST DUP1 PUSH4 0x6FDDE03 EQ PUSH2 0x131 JUMPI DUP1 PUSH4 0x95EA7B3 EQ PUSH2 0x14F JUMPI DUP1 PUSH4 0x18160DDD EQ PUSH2 0x17F JUMPI DUP1 PUSH4 0x1B62D7AF EQ PUSH2 0x19D JUMPI DUP1 PUSH4 0x23B872DD EQ PUSH2 0x1BB JUMPI JUMPDEST PUSH1 0x0 DUP1 REVERT JUMPDEST PUSH2 0x139 PUSH2 0x3EB JUMP JUMPDEST PUSH1 0x40 MLOAD PUSH2 0x146 SWAP2 SWAP1 PUSH2 0x132C JUMP JUMPDEST PUSH1 0x40 MLOAD DUP1 SWAP2 SUB SWAP1 RETURN JUMPDEST PUSH2 0x169 PUSH1 0x4 DUP1 CALLDATASIZE SUB DUP2 ADD SWAP1 PUSH2 0x164 SWAP2 SWAP1 PUSH2 0x13E7 JUMP JUMPDEST PUSH2 0x47D JUMP JUMPDEST PUSH1 0x40 MLOAD PUSH2 0x176 SWAP2 SWAP1 PUSH2 0x1442 JUMP JUMPDEST PUSH1 0x40 MLOAD DUP1 SWAP2 SUB SWAP1 RETURN JUMPDEST PUSH2 0x187 PUSH2 0x4A0 JUMP JUMPDEST PUSH1 0x40 MLOAD PUSH2 0x194 SWAP2 SWAP1 PUSH2 0x146C JUMP JUMPDEST PUSH1 0x40 MLOAD DUP1 SWAP2 SUB SWAP1 RETURN JUMPDEST PUSH2 0x1A5 PUSH2 0x4AA JUMP JUMPDEST PUSH1 0x40 MLOAD PUSH2 0x1B2 SWAP2 SWAP1 PUSH2 0x146C JUMP JUMPDEST PUSH1 0x40 MLOAD DUP1 SWAP2 SUB SWAP1 RETURN JUMPDEST PUSH2 0x1D5 PUSH1 0x4 DUP1 CALLDATASIZE SUB DUP2 ADD SWAP1 PUSH2 0x1D0 SWAP2 SWAP1 PUSH2 0x1487 JUMP JUMPDEST PUSH2 0x4CE JUMP JUMPDEST PUSH1 0x40 MLOAD PUSH2 0x1E2 SWAP2 SWAP1 PUSH2 0x1442 JUMP JUMPDEST PUSH1 0x40 MLOAD DUP1 SWAP2 SUB SWAP1 RETURN JUMPDEST PUSH2 0x1F3 PUSH2 0x4FD JUMP JUMPDEST PUSH1 0x40 MLOAD PUSH2 0x200 SWAP2 SWAP1 PUSH2 0x14F6 JUMP JUMPDEST PUSH1 0x40 MLOAD DUP1 SWAP2 SUB SWAP1 RETURN JUMPDEST PUSH2 0x211 PUSH2 0x502 JUMP JUMPDEST PUSH1 0x40 MLOAD PUSH2 0x21E SWAP2 SWAP1 PUSH2 0x146C JUMP JUMPDEST PUSH1 0x40 MLOAD DUP1 SWAP2 SUB SWAP1 RETURN JUMPDEST PUSH2 0x22F PUSH2 0x524 JUMP JUMPDEST PUSH1 0x40 MLOAD PUSH2 0x23C SWAP2 SWAP1 PUSH2 0x14F6 JUMP JUMPDEST PUSH1 0x40 MLOAD DUP1 SWAP2 SUB SWAP1 RETURN JUMPDEST PUSH2 0x25F PUSH1 0x4 DUP1 CALLDATASIZE SUB DUP2 ADD SWAP1 PUSH2 0x25A SWAP2 SWAP1 PUSH2 0x13E7 JUMP JUMPDEST PUSH2 0x52D JUMP JUMPDEST PUSH1 0x40 MLOAD PUSH2 0x26C SWAP2 SWAP1 PUSH2 0x1442 JUMP JUMPDEST PUSH1 0x40 MLOAD DUP1 SWAP2 SUB SWAP1 RETURN JUMPDEST PUSH2 0x28F PUSH1 0x4 DUP1 CALLDATASIZE SUB DUP2 ADD SWAP1 PUSH2 0x28A SWAP2 SWAP1 PUSH2 0x13E7 JUMP JUMPDEST PUSH2 0x564 JUMP JUMPDEST STOP JUMPDEST PUSH2 0x2AB PUSH1 0x4 DUP1 CALLDATASIZE SUB DUP2 ADD SWAP1 PUSH2 0x2A6 SWAP2 SWAP1 PUSH2 0x1511 JUMP JUMPDEST PUSH2 0x5F6 JUMP JUMPDEST STOP JUMPDEST PUSH2 0x2C7 PUSH1 0x4 DUP1 CALLDATASIZE SUB DUP2 ADD SWAP1 PUSH2 0x2C2 SWAP2 SWAP1 PUSH2 0x153E JUMP JUMPDEST PUSH2 0x603 JUMP JUMPDEST PUSH1 0x40 MLOAD PUSH2 0x2D4 SWAP2 SWAP1 PUSH2 0x146C JUMP JUMPDEST PUSH1 0x40 MLOAD DUP1 SWAP2 SUB SWAP1 RETURN JUMPDEST PUSH2 0x2E5 PUSH2 0x64B JUMP JUMPDEST STOP JUMPDEST PUSH2 0x301 PUSH1 0x4 DUP1 CALLDATASIZE SUB DUP2 ADD SWAP1 PUSH2 0x2FC SWAP2 SWAP1 PUSH2 0x13E7 JUMP JUMPDEST PUSH2 0x65F JUMP JUMPDEST STOP JUMPDEST PUSH2 0x30B PUSH2 0x67F JUMP JUMPDEST PUSH1 0x40 MLOAD PUSH2 0x318 SWAP2 SWAP1 PUSH2 0x157A JUMP JUMPDEST PUSH1 0x40 MLOAD DUP1 SWAP2 SUB SWAP1 RETURN JUMPDEST PUSH2 0x329 PUSH2 0x6A9 JUMP JUMPDEST PUSH1 0x40 MLOAD PUSH2 0x336 SWAP2 SWAP1 PUSH2 0x132C JUMP JUMPDEST PUSH1 0x40 MLOAD DUP1 SWAP2 SUB SWAP1 RETURN JUMPDEST PUSH2 0x359 PUSH1 0x4 DUP1 CALLDATASIZE SUB DUP2 ADD SWAP1 PUSH2 0x354 SWAP2 SWAP1 PUSH2 0x13E7 JUMP JUMPDEST PUSH2 0x73B JUMP JUMPDEST PUSH1 0x40 MLOAD PUSH2 0x366 SWAP2 SWAP1 PUSH2 0x1442 JUMP JUMPDEST PUSH1 0x40 MLOAD DUP1 SWAP2 SUB SWAP1 RETURN JUMPDEST PUSH2 0x389 PUSH1 0x4 DUP1 CALLDATASIZE SUB DUP2 ADD SWAP1 PUSH2 0x384 SWAP2 SWAP1 PUSH2 0x13E7 JUMP JUMPDEST PUSH2 0x7B2 JUMP JUMPDEST PUSH1 0x40 MLOAD PUSH2 0x396 SWAP2 SWAP1 PUSH2 0x1442 JUMP JUMPDEST PUSH1 0x40 MLOAD DUP1 SWAP2 SUB SWAP1 RETURN JUMPDEST PUSH2 0x3B9 PUSH1 0x4 DUP1 CALLDATASIZE SUB DUP2 ADD SWAP1 PUSH2 0x3B4 SWAP2 SWAP1 PUSH2 0x1595 JUMP JUMPDEST PUSH2 0x7D5 JUMP JUMPDEST PUSH1 0x40 MLOAD PUSH2 0x3C6 SWAP2 SWAP1 PUSH2 0x146C JUMP JUMPDEST PUSH1 0x40 MLOAD DUP1 SWAP2 SUB SWAP1 RETURN JUMPDEST PUSH2 0x3E9 PUSH1 0x4 DUP1 CALLDATASIZE SUB DUP2 ADD SWAP1 PUSH2 0x3E4 SWAP2 SWAP1 PUSH2 0x153E JUMP JUMPDEST PUSH2 0x85C JUMP JUMPDEST STOP JUMPDEST PUSH1 0x60 PUSH1 0x3 DUP1 SLOAD PUSH2 0x3FA SWAP1 PUSH2 0x1604 JUMP JUMPDEST DUP1 PUSH1 0x1F ADD PUSH1 0x20 DUP1 SWAP2 DIV MUL PUSH1 0x20 ADD PUSH1 0x40 MLOAD SWAP1 DUP2 ADD PUSH1 0x40 MSTORE DUP1 SWAP3 SWAP2 SWAP1 DUP2 DUP2 MSTORE PUSH1 0x20 ADD DUP3 DUP1 SLOAD PUSH2 0x426 SWAP1 PUSH2 0x1604 JUMP JUMPDEST DUP1 ISZERO PUSH2 0x473 JUMPI DUP1 PUSH1 0x1F LT PUSH2 0x448 JUMPI PUSH2 0x100 DUP1 DUP4 SLOAD DIV MUL DUP4 MSTORE SWAP2 PUSH1 0x20 ADD SWAP2 PUSH2 0x473 JUMP JUMPDEST DUP3 ADD SWAP2 SWAP1 PUSH1 0x0 MSTORE PUSH1 0x20 PUSH1 0x0 KECCAK256 SWAP1 JUMPDEST DUP2 SLOAD DUP2 MSTORE SWAP1 PUSH1 0x1 ADD SWAP1 PUSH1 0x20 ADD DUP1 DUP4 GT PUSH2 0x456 JUMPI DUP3 SWAP1 SUB PUSH1 0x1F AND DUP3 ADD SWAP2 JUMPDEST POP POP POP POP POP SWAP1 POP SWAP1 JUMP JUMPDEST PUSH1 0x0 DUP1 PUSH2 0x488 PUSH2 0x93D JUMP JUMPDEST SWAP1 POP PUSH2 0x495 DUP2 DUP6 DUP6 PUSH2 0x945 JUMP JUMPDEST PUSH1 0x1 SWAP2 POP POP SWAP3 SWAP2 POP POP JUMP JUMPDEST PUSH1 0x0 PUSH1 0x2 SLOAD SWAP1 POP SWAP1 JUMP JUMPDEST PUSH1 0x12 PUSH1 0xFF AND PUSH1 0xA PUSH2 0x4BB SWAP2 SWAP1 PUSH2 0x1797 JUMP JUMPDEST PUSH5 0xE8D4A51000 PUSH2 0x4CB SWAP2 SWAP1 PUSH2 0x17E2 JUMP JUMPDEST DUP2 JUMP JUMPDEST PUSH1 0x0 DUP1 PUSH2 0x4D9 PUSH2 0x93D JUMP JUMPDEST SWAP1 POP PUSH2 0x4E6 DUP6 DUP3 DUP6 PUSH2 0xB0E JUMP JUMPDEST PUSH2 0x4F1 DUP6 DUP6 DUP6 PUSH2 0xB9A JUMP JUMPDEST PUSH1 0x1 SWAP2 POP POP SWAP4 SWAP3 POP POP POP JUMP JUMPDEST PUSH1 0x12 DUP2 JUMP JUMPDEST PUSH1 0x12 PUSH1 0xFF AND PUSH1 0xA PUSH2 0x513 SWAP2 SWAP1 PUSH2 0x1797 JUMP JUMPDEST PUSH3 0xF4240 PUSH2 0x521 SWAP2 SWAP1 PUSH2 0x17E2 JUMP JUMPDEST DUP2 JUMP JUMPDEST PUSH1 0x0 PUSH1 0x12 SWAP1 POP SWAP1 JUMP JUMPDEST PUSH1 0x0 DUP1 PUSH2 0x538 PUSH2 0x93D JUMP JUMPDEST SWAP1 POP PUSH2 0x559 DUP2 DUP6 DUP6 PUSH2 0x54A DUP6 DUP10 PUSH2 0x7D5 JUMP JUMPDEST PUSH2 0x554 SWAP2 SWAP1 PUSH2 0x183C JUMP JUMPDEST PUSH2 0x945 JUMP JUMPDEST PUSH1 0x1 SWAP2 POP POP SWAP3 SWAP2 POP POP JUMP JUMPDEST PUSH2 0x56C PUSH2 0xE19 JUMP JUMPDEST PUSH1 0x12 PUSH1 0xFF AND PUSH1 0xA PUSH2 0x57D SWAP2 SWAP1 PUSH2 0x1797 JUMP JUMPDEST PUSH5 0xE8D4A51000 PUSH2 0x58D SWAP2 SWAP1 PUSH2 0x17E2 JUMP JUMPDEST PUSH2 0x5A7 DUP3 PUSH2 0x599 PUSH2 0x4A0 JUMP JUMPDEST PUSH2 0x8DF SWAP1 SWAP2 SWAP1 PUSH4 0xFFFFFFFF AND JUMP JUMPDEST GT ISZERO PUSH2 0x5E8 JUMPI PUSH1 0x40 MLOAD PUSH32 0x8C379A000000000000000000000000000000000000000000000000000000000 DUP2 MSTORE PUSH1 0x4 ADD PUSH2 0x5DF SWAP1 PUSH2 0x18BC JUMP JUMPDEST PUSH1 0x40 MLOAD DUP1 SWAP2 SUB SWAP1 REVERT JUMPDEST PUSH2 0x5F2 DUP3 DUP3 PUSH2 0xE97 JUMP JUMPDEST POP POP JUMP JUMPDEST PUSH2 0x600 CALLER DUP3 PUSH2 0xFF6 JUMP JUMPDEST POP JUMP JUMPDEST PUSH1 0x0 DUP1 PUSH1 0x0 DUP4 PUSH20 0xFFFFFFFFFFFFFFFFFFFFFFFFFFFFFFFFFFFFFFFF AND PUSH20 0xFFFFFFFFFFFFFFFFFFFFFFFFFFFFFFFFFFFFFFFF AND DUP2 MSTORE PUSH1 0x20 ADD SWAP1 DUP2 MSTORE PUSH1 0x20 ADD PUSH1 0x0 KECCAK256 SLOAD SWAP1 POP SWAP2 SWAP1 POP JUMP JUMPDEST PUSH2 0x653 PUSH2 0xE19 JUMP JUMPDEST PUSH2 0x65D PUSH1 0x0 PUSH2 0x11CC JUMP JUMPDEST JUMP JUMPDEST PUSH2 0x671 DUP3 PUSH2 0x66B PUSH2 0x93D JUMP JUMPDEST DUP4 PUSH2 0xB0E JUMP JUMPDEST PUSH2 0x67B DUP3 DUP3 PUSH2 0xFF6 JUMP JUMPDEST POP POP JUMP JUMPDEST PUSH1 0x0 PUSH1 0x5 PUSH1 0x0 SWAP1 SLOAD SWAP1 PUSH2 0x100 EXP SWAP1 DIV PUSH20 0xFFFFFFFFFFFFFFFFFFFFFFFFFFFFFFFFFFFFFFFF AND SWAP1 POP SWAP1 JUMP JUMPDEST PUSH1 0x60 PUSH1 0x4 DUP1 SLOAD PUSH2 0x6B8 SWAP1 PUSH2 0x1604 JUMP JUMPDEST DUP1 PUSH1 0x1F ADD PUSH1 0x20 DUP1 SWAP2 DIV MUL PUSH1 0x20 ADD PUSH1 0x40 MLOAD SWAP1 DUP2 ADD PUSH1 0x40 MSTORE DUP1 SWAP3 SWAP2 SWAP1 DUP2 DUP2 MSTORE PUSH1 0x20 ADD DUP3 DUP1 SLOAD PUSH2 0x6E4 SWAP1 PUSH2 0x1604 JUMP JUMPDEST DUP1 ISZERO PUSH2 0x731 JUMPI DUP1 PUSH1 0x1F LT PUSH2 0x706 JUMPI PUSH2 0x100 DUP1 DUP4 SLOAD DIV MUL DUP4 MSTORE SWAP2 PUSH1 0x20 ADD SWAP2 PUSH2 0x731 JUMP JUMPDEST DUP3 ADD SWAP2 SWAP1 PUSH1 0x0 MSTORE PUSH1 0x20 PUSH1 0x0 KECCAK256 SWAP1 JUMPDEST DUP2 SLOAD DUP2 MSTORE SWAP1 PUSH1 0x1 ADD SWAP1 PUSH1 0x20 ADD DUP1 DUP4 GT PUSH2 0x714 JUMPI DUP3 SWAP1 SUB PUSH1 0x1F AND DUP3 ADD SWAP2 JUMPDEST POP POP POP POP POP SWAP1 POP SWAP1 JUMP JUMPDEST PUSH1 0x0 DUP1 PUSH2 0x746 PUSH2 0x93D JUMP JUMPDEST SWAP1 POP PUSH1 0x0 PUSH2 0x754 DUP3 DUP7 PUSH2 0x7D5 JUMP JUMPDEST SWAP1 POP DUP4 DUP2 LT ISZERO PUSH2 0x799 JUMPI PUSH1 0x40 MLOAD PUSH32 0x8C379A000000000000000000000000000000000000000000000000000000000 DUP2 MSTORE PUSH1 0x4 ADD PUSH2 0x790 SWAP1 PUSH2 0x194E JUMP JUMPDEST PUSH1 0x40 MLOAD DUP1 SWAP2 SUB SWAP1 REVERT JUMPDEST PUSH2 0x7A6 DUP3 DUP7 DUP7 DUP5 SUB PUSH2 0x945 JUMP JUMPDEST PUSH1 0x1 SWAP3 POP POP POP SWAP3 SWAP2 POP POP JUMP JUMPDEST PUSH1 0x0 DUP1 PUSH2 0x7BD PUSH2 0x93D JUMP JUMPDEST SWAP1 POP PUSH2 0x7CA DUP2 DUP6 DUP6 PUSH2 0xB9A JUMP JUMPDEST PUSH1 0x1 SWAP2 POP POP SWAP3 SWAP2 POP POP JUMP JUMPDEST PUSH1 0x0 PUSH1 0x1 PUSH1 0x0 DUP5 PUSH20 0xFFFFFFFFFFFFFFFFFFFFFFFFFFFFFFFFFFFFFFFF AND PUSH20 0xFFFFFFFFFFFFFFFFFFFFFFFFFFFFFFFFFFFFFFFF AND DUP2 MSTORE PUSH1 0x20 ADD SWAP1 DUP2 MSTORE PUSH1 0x20 ADD PUSH1 0x0 KECCAK256 PUSH1 0x0 DUP4 PUSH20 0xFFFFFFFFFFFFFFFFFFFFFFFFFFFFFFFFFFFFFFFF AND PUSH20 0xFFFFFFFFFFFFFFFFFFFFFFFFFFFFFFFFFFFFFFFF AND DUP2 MSTORE PUSH1 0x20 ADD SWAP1 DUP2 MSTORE PUSH1 0x20 ADD PUSH1 0x0 KECCAK256 SLOAD SWAP1 POP SWAP3 SWAP2 POP POP JUMP JUMPDEST PUSH2 0x864 PUSH2 0xE19 JUMP JUMPDEST PUSH1 0x0 PUSH20 0xFFFFFFFFFFFFFFFFFFFFFFFFFFFFFFFFFFFFFFFF AND DUP2 PUSH20 0xFFFFFFFFFFFFFFFFFFFFFFFFFFFFFFFFFFFFFFFF AND SUB PUSH2 0x8D3 JUMPI PUSH1 0x40 MLOAD PUSH32 0x8C379A000000000000000000000000000000000000000000000000000000000 DUP2 MSTORE PUSH1 0x4 ADD PUSH2 0x8CA SWAP1 PUSH2 0x19E0 JUMP JUMPDEST PUSH1 0x40 MLOAD DUP1 SWAP2 SUB SWAP1 REVERT JUMPDEST PUSH2 0x8DC DUP2 PUSH2 0x11CC JUMP JUMPDEST POP JUMP JUMPDEST PUSH1 0x0 DUP1 DUP3 DUP5 PUSH2 0x8EE SWAP2 SWAP1 PUSH2 0x183C JUMP JUMPDEST SWAP1 POP DUP4 DUP2 LT ISZERO PUSH2 0x933 JUMPI PUSH1 0x40 MLOAD PUSH32 0x8C379A000000000000000000000000000000000000000000000000000000000 DUP2 MSTORE PUSH1 0x4 ADD PUSH2 0x92A SWAP1 PUSH2 0x1A4C JUMP JUMPDEST PUSH1 0x40 MLOAD DUP1 SWAP2 SUB SWAP1 REVERT JUMPDEST DUP1 SWAP2 POP POP SWAP3 SWAP2 POP POP JUMP JUMPDEST PUSH1 0x0 CALLER SWAP1 POP SWAP1 JUMP JUMPDEST PUSH1 0x0 PUSH20 0xFFFFFFFFFFFFFFFFFFFFFFFFFFFFFFFFFFFFFFFF AND DUP4 PUSH20 0xFFFFFFFFFFFFFFFFFFFFFFFFFFFFFFFFFFFFFFFF AND SUB PUSH2 0x9B4 JUMPI PUSH1 0x40 MLOAD PUSH32 0x8C379A000000000000000000000000000000000000000000000000000000000 DUP2 MSTORE PUSH1 0x4 ADD PUSH2 0x9AB SWAP1 PUSH2 0x1ADE JUMP JUMPDEST PUSH1 0x40 MLOAD DUP1 SWAP2 SUB SWAP1 REVERT JUMPDEST PUSH1 0x0 PUSH20 0xFFFFFFFFFFFFFFFFFFFFFFFFFFFFFFFFFFFFFFFF AND DUP3 PUSH20 0xFFFFFFFFFFFFFFFFFFFFFFFFFFFFFFFFFFFFFFFF AND SUB PUSH2 0xA23 JUMPI PUSH1 0x40 MLOAD PUSH32 0x8C379A000000000000000000000000000000000000000000000000000000000 DUP2 MSTORE PUSH1 0x4 ADD PUSH2 0xA1A SWAP1 PUSH2 0x1B70 JUMP JUMPDEST PUSH1 0x40 MLOAD DUP1 SWAP2 SUB SWAP1 REVERT JUMPDEST DUP1 PUSH1 0x1 PUSH1 0x0 DUP6 PUSH20 0xFFFFFFFFFFFFFFFFFFFFFFFFFFFFFFFFFFFFFFFF AND PUSH20 0xFFFFFFFFFFFFFFFFFFFFFFFFFFFFFFFFFFFFFFFF AND DUP2 MSTORE PUSH1 0x20 ADD SWAP1 DUP2 MSTORE PUSH1 0x20 ADD PUSH1 0x0 KECCAK256 PUSH1 0x0 DUP5 PUSH20 0xFFFFFFFFFFFFFFFFFFFFFFFFFFFFFFFFFFFFFFFF AND PUSH20 0xFFFFFFFFFFFFFFFFFFFFFFFFFFFFFFFFFFFFFFFF AND DUP2 MSTORE PUSH1 0x20 ADD SWAP1 DUP2 MSTORE PUSH1 0x20 ADD PUSH1 0x0 KECCAK256 DUP2 SWAP1 SSTORE POP DUP2 PUSH20 0xFFFFFFFFFFFFFFFFFFFFFFFFFFFFFFFFFFFFFFFF AND DUP4 PUSH20 0xFFFFFFFFFFFFFFFFFFFFFFFFFFFFFFFFFFFFFFFF AND PUSH32 0x8C5BE1E5EBEC7D5BD14F71427D1E84F3DD0314C0F7B2291E5B200AC8C7C3B925 DUP4 PUSH1 0x40 MLOAD PUSH2 0xB01 SWAP2 SWAP1 PUSH2 0x146C JUMP JUMPDEST PUSH1 0x40 MLOAD DUP1 SWAP2 SUB SWAP1 LOG3 POP POP POP JUMP JUMPDEST PUSH1 0x0 PUSH2 0xB1A DUP5 DUP5 PUSH2 0x7D5 JUMP JUMPDEST SWAP1 POP PUSH32 0xFFFFFFFFFFFFFFFFFFFFFFFFFFFFFFFFFFFFFFFFFFFFFFFFFFFFFFFFFFFFFFFF DUP2 EQ PUSH2 0xB94 JUMPI DUP2 DUP2 LT ISZERO PUSH2 0xB86 JUMPI PUSH1 0x40 MLOAD PUSH32 0x8C379A000000000000000000000000000000000000000000000000000000000 DUP2 MSTORE PUSH1 0x4 ADD PUSH2 0xB7D SWAP1 PUSH2 0x1BDC JUMP JUMPDEST PUSH1 0x40 MLOAD DUP1 SWAP2 SUB SWAP1 REVERT JUMPDEST PUSH2 0xB93 DUP5 DUP5 DUP5 DUP5 SUB PUSH2 0x945 JUMP JUMPDEST JUMPDEST POP POP POP POP JUMP JUMPDEST PUSH1 0x0 PUSH20 0xFFFFFFFFFFFFFFFFFFFFFFFFFFFFFFFFFFFFFFFF AND DUP4 PUSH20 0xFFFFFFFFFFFFFFFFFFFFFFFFFFFFFFFFFFFFFFFF AND SUB PUSH2 0xC09 JUMPI PUSH1 0x40 MLOAD PUSH32 0x8C379A000000000000000000000000000000000000000000000000000000000 DUP2 MSTORE PUSH1 0x4 ADD PUSH2 0xC00 SWAP1 PUSH2 0x1C6E JUMP JUMPDEST PUSH1 0x40 MLOAD DUP1 SWAP2 SUB SWAP1 REVERT JUMPDEST PUSH1 0x0 PUSH20 0xFFFFFFFFFFFFFFFFFFFFFFFFFFFFFFFFFFFFFFFF AND DUP3 PUSH20 0xFFFFFFFFFFFFFFFFFFFFFFFFFFFFFFFFFFFFFFFF AND SUB PUSH2 0xC78 JUMPI PUSH1 0x40 MLOAD PUSH32 0x8C379A000000000000000000000000000000000000000000000000000000000 DUP2 MSTORE PUSH1 0x4 ADD PUSH2 0xC6F SWAP1 PUSH2 0x1D00 JUMP JUMPDEST PUSH1 0x40 MLOAD DUP1 SWAP2 SUB SWAP1 REVERT JUMPDEST PUSH2 0xC83 DUP4 DUP4 DUP4 PUSH2 0x1292 JUMP JUMPDEST PUSH1 0x0 DUP1 PUSH1 0x0 DUP6 PUSH20 0xFFFFFFFFFFFFFFFFFFFFFFFFFFFFFFFFFFFFFFFF AND PUSH20 0xFFFFFFFFFFFFFFFFFFFFFFFFFFFFFFFFFFFFFFFF AND DUP2 MSTORE PUSH1 0x20 ADD SWAP1 DUP2 MSTORE PUSH1 0x20 ADD PUSH1 0x0 KECCAK256 SLOAD SWAP1 POP DUP2 DUP2 LT ISZERO PUSH2 0xD09 JUMPI PUSH1 0x40 MLOAD PUSH32 0x8C379A000000000000000000000000000000000000000000000000000000000 DUP2 MSTORE PUSH1 0x4 ADD PUSH2 0xD00 SWAP1 PUSH2 0x1D92 JUMP JUMPDEST PUSH1 0x40 MLOAD DUP1 SWAP2 SUB SWAP1 REVERT JUMPDEST DUP2 DUP2 SUB PUSH1 0x0 DUP1 DUP7 PUSH20 0xFFFFFFFFFFFFFFFFFFFFFFFFFFFFFFFFFFFFFFFF AND PUSH20 0xFFFFFFFFFFFFFFFFFFFFFFFFFFFFFFFFFFFFFFFF AND DUP2 MSTORE PUSH1 0x20 ADD SWAP1 DUP2 MSTORE PUSH1 0x20 ADD PUSH1 0x0 KECCAK256 DUP2 SWAP1 SSTORE POP DUP2 PUSH1 0x0 DUP1 DUP6 PUSH20 0xFFFFFFFFFFFFFFFFFFFFFFFFFFFFFFFFFFFFFFFF AND PUSH20 0xFFFFFFFFFFFFFFFFFFFFFFFFFFFFFFFFFFFFFFFF AND DUP2 MSTORE PUSH1 0x20 ADD SWAP1 DUP2 MSTORE PUSH1 0x20 ADD PUSH1 0x0 KECCAK256 PUSH1 0x0 DUP3 DUP3 SLOAD PUSH2 0xD9C SWAP2 SWAP1 PUSH2 0x183C JUMP JUMPDEST SWAP3 POP POP DUP2 SWAP1 SSTORE POP DUP3 PUSH20 0xFFFFFFFFFFFFFFFFFFFFFFFFFFFFFFFFFFFFFFFF AND DUP5 PUSH20 0xFFFFFFFFFFFFFFFFFFFFFFFFFFFFFFFFFFFFFFFF AND PUSH32 0xDDF252AD1BE2C89B69C2B068FC378DAA952BA7F163C4A11628F55A4DF523B3EF DUP5 PUSH1 0x40 MLOAD PUSH2 0xE00 SWAP2 SWAP1 PUSH2 0x146C JUMP JUMPDEST PUSH1 0x40 MLOAD DUP1 SWAP2 SUB SWAP1 LOG3 PUSH2 0xE13 DUP5 DUP5 DUP5 PUSH2 0x1297 JUMP JUMPDEST POP POP POP POP JUMP JUMPDEST PUSH2 0xE21 PUSH2 0x93D JUMP JUMPDEST PUSH20 0xFFFFFFFFFFFFFFFFFFFFFFFFFFFFFFFFFFFFFFFF AND PUSH2 0xE3F PUSH2 0x67F JUMP JUMPDEST PUSH20 0xFFFFFFFFFFFFFFFFFFFFFFFFFFFFFFFFFFFFFFFF AND EQ PUSH2 0xE95 JUMPI PUSH1 0x40 MLOAD PUSH32 0x8C379A000000000000000000000000000000000000000000000000000000000 DUP2 MSTORE PUSH1 0x4 ADD PUSH2 0xE8C SWAP1 PUSH2 0x1DFE JUMP JUMPDEST PUSH1 0x40 MLOAD DUP1 SWAP2 SUB SWAP1 REVERT JUMPDEST JUMP JUMPDEST PUSH1 0x0 PUSH20 0xFFFFFFFFFFFFFFFFFFFFFFFFFFFFFFFFFFFFFFFF AND DUP3 PUSH20 0xFFFFFFFFFFFFFFFFFFFFFFFFFFFFFFFFFFFFFFFF AND SUB PUSH2 0xF06 JUMPI PUSH1 0x40 MLOAD PUSH32 0x8C379A000000000000000000000000000000000000000000000000000000000 DUP2 MSTORE PUSH1 0x4 ADD PUSH2 0xEFD SWAP1 PUSH2 0x1E6A JUMP JUMPDEST PUSH1 0x40 MLOAD DUP1 SWAP2 SUB SWAP1 REVERT JUMPDEST PUSH2 0xF12 PUSH1 0x0 DUP4 DUP4 PUSH2 0x1292 JUMP JUMPDEST DUP1 PUSH1 0x2 PUSH1 0x0 DUP3 DUP3 SLOAD PUSH2 0xF24 SWAP2 SWAP1 PUSH2 0x183C JUMP JUMPDEST SWAP3 POP POP DUP2 SWAP1 SSTORE POP DUP1 PUSH1 0x0 DUP1 DUP5 PUSH20 0xFFFFFFFFFFFFFFFFFFFFFFFFFFFFFFFFFFFFFFFF AND PUSH20 0xFFFFFFFFFFFFFFFFFFFFFFFFFFFFFFFFFFFFFFFF AND DUP2 MSTORE PUSH1 0x20 ADD SWAP1 DUP2 MSTORE PUSH1 0x20 ADD PUSH1 0x0 KECCAK256 PUSH1 0x0 DUP3 DUP3 SLOAD PUSH2 0xF79 SWAP2 SWAP1 PUSH2 0x183C JUMP JUMPDEST SWAP3 POP POP DUP2 SWAP1 SSTORE POP DUP2 PUSH20 0xFFFFFFFFFFFFFFFFFFFFFFFFFFFFFFFFFFFFFFFF AND PUSH1 0x0 PUSH20 0xFFFFFFFFFFFFFFFFFFFFFFFFFFFFFFFFFFFFFFFF AND PUSH32 0xDDF252AD1BE2C89B69C2B068FC378DAA952BA7F163C4A11628F55A4DF523B3EF DUP4 PUSH1 0x40 MLOAD PUSH2 0xFDE SWAP2 SWAP1 PUSH2 0x146C JUMP JUMPDEST PUSH1 0x40 MLOAD DUP1 SWAP2 SUB SWAP1 LOG3 PUSH2 0xFF2 PUSH1 0x0 DUP4 DUP4 PUSH2 0x1297 JUMP JUMPDEST POP POP JUMP JUMPDEST PUSH1 0x0 PUSH20 0xFFFFFFFFFFFFFFFFFFFFFFFFFFFFFFFFFFFFFFFF AND DUP3 PUSH20 0xFFFFFFFFFFFFFFFFFFFFFFFFFFFFFFFFFFFFFFFF AND SUB PUSH2 0x1065 JUMPI PUSH1 0x40 MLOAD PUSH32 0x8C379A000000000000000000000000000000000000000000000000000000000 DUP2 MSTORE PUSH1 0x4 ADD PUSH2 0x105C SWAP1 PUSH2 0x1EFC JUMP JUMPDEST PUSH1 0x40 MLOAD DUP1 SWAP2 SUB SWAP1 REVERT JUMPDEST PUSH2 0x1071 DUP3 PUSH1 0x0 DUP4 PUSH2 0x1292 JUMP JUMPDEST PUSH1 0x0 DUP1 PUSH1 0x0 DUP5 PUSH20 0xFFFFFFFFFFFFFFFFFFFFFFFFFFFFFFFFFFFFFFFF AND PUSH20 0xFFFFFFFFFFFFFFFFFFFFFFFFFFFFFFFFFFFFFFFF AND DUP2 MSTORE PUSH1 0x20 ADD SWAP1 DUP2 MSTORE PUSH1 0x20 ADD PUSH1 0x0 KECCAK256 SLOAD SWAP1 POP DUP2 DUP2 LT ISZERO PUSH2 0x10F7 JUMPI PUSH1 0x40 MLOAD PUSH32 0x8C379A000000000000000000000000000000000000000000000000000000000 DUP2 MSTORE PUSH1 0x4 ADD PUSH2 0x10EE SWAP1 PUSH2 0x1F8E JUMP JUMPDEST PUSH1 0x40 MLOAD DUP1 SWAP2 SUB SWAP1 REVERT JUMPDEST DUP2 DUP2 SUB PUSH1 0x0 DUP1 DUP6 PUSH20 0xFFFFFFFFFFFFFFFFFFFFFFFFFFFFFFFFFFFFFFFF AND PUSH20 0xFFFFFFFFFFFFFFFFFFFFFFFFFFFFFFFFFFFFFFFF AND DUP2 MSTORE PUSH1 0x20 ADD SWAP1 DUP2 MSTORE PUSH1 0x20 ADD PUSH1 0x0 KECCAK256 DUP2 SWAP1 SSTORE POP DUP2 PUSH1 0x2 PUSH1 0x0 DUP3 DUP3 SLOAD PUSH2 0x114E SWAP2 SWAP1 PUSH2 0x1FAE JUMP JUMPDEST SWAP3 POP POP DUP2 SWAP1 SSTORE POP PUSH1 0x0 PUSH20 0xFFFFFFFFFFFFFFFFFFFFFFFFFFFFFFFFFFFFFFFF AND DUP4 PUSH20 0xFFFFFFFFFFFFFFFFFFFFFFFFFFFFFFFFFFFFFFFF AND PUSH32 0xDDF252AD1BE2C89B69C2B068FC378DAA952BA7F163C4A11628F55A4DF523B3EF DUP5 PUSH1 0x40 MLOAD PUSH2 0x11B3 SWAP2 SWAP1 PUSH2 0x146C JUMP JUMPDEST PUSH1 0x40 MLOAD DUP1 SWAP2 SUB SWAP1 LOG3 PUSH2 0x11C7 DUP4 PUSH1 0x0 DUP5 PUSH2 0x1297 JUMP JUMPDEST POP POP POP JUMP JUMPDEST PUSH1 0x0 PUSH1 0x5 PUSH1 0x0 SWAP1 SLOAD SWAP1 PUSH2 0x100 EXP SWAP1 DIV PUSH20 0xFFFFFFFFFFFFFFFFFFFFFFFFFFFFFFFFFFFFFFFF AND SWAP1 POP DUP2 PUSH1 0x5 PUSH1 0x0 PUSH2 0x100 EXP DUP2 SLOAD DUP2 PUSH20 0xFFFFFFFFFFFFFFFFFFFFFFFFFFFFFFFFFFFFFFFF MUL NOT AND SWAP1 DUP4 PUSH20 0xFFFFFFFFFFFFFFFFFFFFFFFFFFFFFFFFFFFFFFFF AND MUL OR SWAP1 SSTORE POP DUP2 PUSH20 0xFFFFFFFFFFFFFFFFFFFFFFFFFFFFFFFFFFFFFFFF AND DUP2 PUSH20 0xFFFFFFFFFFFFFFFFFFFFFFFFFFFFFFFFFFFFFFFF AND PUSH32 0x8BE0079C531659141344CD1FD0A4F28419497F9722A3DAAFE3B4186F6B6457E0 PUSH1 0x40 MLOAD PUSH1 0x40 MLOAD DUP1 SWAP2 SUB SWAP1 LOG3 POP POP JUMP JUMPDEST POP POP POP JUMP JUMPDEST POP POP POP JUMP JUMPDEST PUSH1 0x0 DUP2 MLOAD SWAP1 POP SWAP2 SWAP1 POP JUMP JUMPDEST PUSH1 0x0 DUP3 DUP3 MSTORE PUSH1 0x20 DUP3 ADD SWAP1 POP SWAP3 SWAP2 POP POP JUMP JUMPDEST PUSH1 0x0 JUMPDEST DUP4 DUP2 LT ISZERO PUSH2 0x12D6 JUMPI DUP1 DUP3 ADD MLOAD DUP2 DUP5 ADD MSTORE PUSH1 0x20 DUP2 ADD SWAP1 POP PUSH2 0x12BB JUMP JUMPDEST PUSH1 0x0 DUP5 DUP5 ADD MSTORE POP POP POP POP JUMP JUMPDEST PUSH1 0x0 PUSH1 0x1F NOT PUSH1 0x1F DUP4 ADD AND SWAP1 POP SWAP2 SWAP1 POP JUMP JUMPDEST PUSH1 0x0 PUSH2 0x12FE DUP3 PUSH2 0x129C JUMP JUMPDEST PUSH2 0x1308 DUP2 DUP6 PUSH2 0x12A7 JUMP JUMPDEST SWAP4 POP PUSH2 0x1318 DUP2 DUP6 PUSH1 0x20 DUP7 ADD PUSH2 0x12B8 JUMP JUMPDEST PUSH2 0x1321 DUP2 PUSH2 0x12E2 JUMP JUMPDEST DUP5 ADD SWAP2 POP POP SWAP3 SWAP2 POP POP JUMP JUMPDEST PUSH1 0x0 PUSH1 0x20 DUP3 ADD SWAP1 POP DUP2 DUP2 SUB PUSH1 0x0 DUP4 ADD MSTORE PUSH2 0x1346 DUP2 DUP5 PUSH2 0x12F3 JUMP JUMPDEST SWAP1 POP SWAP3 SWAP2 POP POP JUMP JUMPDEST PUSH1 0x0 DUP1 REVERT JUMPDEST PUSH1 0x0 PUSH20 0xFFFFFFFFFFFFFFFFFFFFFFFFFFFFFFFFFFFFFFFF DUP3 AND SWAP1 POP SWAP2 SWAP1 POP JUMP JUMPDEST PUSH1 0x0 PUSH2 0x137E DUP3 PUSH2 0x1353 JUMP JUMPDEST SWAP1 POP SWAP2 SWAP1 POP JUMP JUMPDEST PUSH2 0x138E DUP2 PUSH2 0x1373 JUMP JUMPDEST DUP2 EQ PUSH2 0x1399 JUMPI PUSH1 0x0 DUP1 REVERT JUMPDEST POP JUMP JUMPDEST PUSH1 0x0 DUP2 CALLDATALOAD SWAP1 POP PUSH2 0x13AB DUP2 PUSH2 0x1385 JUMP JUMPDEST SWAP3 SWAP2 POP POP JUMP JUMPDEST PUSH1 0x0 DUP2 SWAP1 POP SWAP2 SWAP1 POP JUMP JUMPDEST PUSH2 0x13C4 DUP2 PUSH2 0x13B1 JUMP JUMPDEST DUP2 EQ PUSH2 0x13CF JUMPI PUSH1 0x0 DUP1 REVERT JUMPDEST POP JUMP JUMPDEST PUSH1 0x0 DUP2 CALLDATALOAD SWAP1 POP PUSH2 0x13E1 DUP2 PUSH2 0x13BB JUMP JUMPDEST SWAP3 SWAP2 POP POP JUMP JUMPDEST PUSH1 0x0 DUP1 PUSH1 0x40 DUP4 DUP6 SUB SLT ISZERO PUSH2 0x13FE JUMPI PUSH2 0x13FD PUSH2 0x134E JUMP JUMPDEST JUMPDEST PUSH1 0x0 PUSH2 0x140C DUP6 DUP3 DUP7 ADD PUSH2 0x139C JUMP JUMPDEST SWAP3 POP POP PUSH1 0x20 PUSH2 0x141D DUP6 DUP3 DUP7 ADD PUSH2 0x13D2 JUMP JUMPDEST SWAP2 POP POP SWAP3 POP SWAP3 SWAP1 POP JUMP JUMPDEST PUSH1 0x0 DUP2 ISZERO ISZERO SWAP1 POP SWAP2 SWAP1 POP JUMP JUMPDEST PUSH2 0x143C DUP2 PUSH2 0x1427 JUMP JUMPDEST DUP3 MSTORE POP POP JUMP JUMPDEST PUSH1 0x0 PUSH1 0x20 DUP3 ADD SWAP1 POP PUSH2 0x1457 PUSH1 0x0 DUP4 ADD DUP5 PUSH2 0x1433 JUMP JUMPDEST SWAP3 SWAP2 POP POP JUMP JUMPDEST PUSH2 0x1466 DUP2 PUSH2 0x13B1 JUMP JUMPDEST DUP3 MSTORE POP POP JUMP JUMPDEST PUSH1 0x0 PUSH1 0x20 DUP3 ADD SWAP1 POP PUSH2 0x1481 PUSH1 0x0 DUP4 ADD DUP5 PUSH2 0x145D JUMP JUMPDEST SWAP3 SWAP2 POP POP JUMP JUMPDEST PUSH1 0x0 DUP1 PUSH1 0x0 PUSH1 0x60 DUP5 DUP7 SUB SLT ISZERO PUSH2 0x14A0 JUMPI PUSH2 0x149F PUSH2 0x134E JUMP JUMPDEST JUMPDEST PUSH1 0x0 PUSH2 0x14AE DUP7 DUP3 DUP8 ADD PUSH2 0x139C JUMP JUMPDEST SWAP4 POP POP PUSH1 0x20 PUSH2 0x14BF DUP7 DUP3 DUP8 ADD PUSH2 0x139C JUMP JUMPDEST SWAP3 POP POP PUSH1 0x40 PUSH2 0x14D0 DUP7 DUP3 DUP8 ADD PUSH2 0x13D2 JUMP JUMPDEST SWAP2 POP POP SWAP3 POP SWAP3 POP SWAP3 JUMP JUMPDEST PUSH1 0x0 PUSH1 0xFF DUP3 AND SWAP1 POP SWAP2 SWAP1 POP JUMP JUMPDEST PUSH2 0x14F0 DUP2 PUSH2 0x14DA JUMP JUMPDEST DUP3 MSTORE POP POP JUMP JUMPDEST PUSH1 0x0 PUSH1 0x20 DUP3 ADD SWAP1 POP PUSH2 0x150B PUSH1 0x0 DUP4 ADD DUP5 PUSH2 0x14E7 JUMP JUMPDEST SWAP3 SWAP2 POP POP JUMP JUMPDEST PUSH1 0x0 PUSH1 0x20 DUP3 DUP5 SUB SLT ISZERO PUSH2 0x1527 JUMPI PUSH2 0x1526 PUSH2 0x134E JUMP JUMPDEST JUMPDEST PUSH1 0x0 PUSH2 0x1535 DUP5 DUP3 DUP6 ADD PUSH2 0x13D2 JUMP JUMPDEST SWAP2 POP POP SWAP3 SWAP2 POP POP JUMP JUMPDEST PUSH1 0x0 PUSH1 0x20 DUP3 DUP5 SUB SLT ISZERO PUSH2 0x1554 JUMPI PUSH2 0x1553 PUSH2 0x134E JUMP JUMPDEST JUMPDEST PUSH1 0x0 PUSH2 0x1562 DUP5 DUP3 DUP6 ADD PUSH2 0x139C JUMP JUMPDEST SWAP2 POP POP SWAP3 SWAP2 POP POP JUMP JUMPDEST PUSH2 0x1574 DUP2 PUSH2 0x1373 JUMP JUMPDEST DUP3 MSTORE POP POP JUMP JUMPDEST PUSH1 0x0 PUSH1 0x20 DUP3 ADD SWAP1 POP PUSH2 0x158F PUSH1 0x0 DUP4 ADD DUP5 PUSH2 0x156B JUMP JUMPDEST SWAP3 SWAP2 POP POP JUMP JUMPDEST PUSH1 0x0 DUP1 PUSH1 0x40 DUP4 DUP6 SUB SLT ISZERO PUSH2 0x15AC JUMPI PUSH2 0x15AB PUSH2 0x134E JUMP JUMPDEST JUMPDEST PUSH1 0x0 PUSH2 0x15BA DUP6 DUP3 DUP7 ADD PUSH2 0x139C JUMP JUMPDEST SWAP3 POP POP PUSH1 0x20 PUSH2 0x15CB DUP6 DUP3 DUP7 ADD PUSH2 0x139C JUMP JUMPDEST SWAP2 POP POP SWAP3 POP SWAP3 SWAP1 POP JUMP JUMPDEST PUSH32 0x4E487B7100000000000000000000000000000000000000000000000000000000 PUSH1 0x0 MSTORE PUSH1 0x22 PUSH1 0x4 MSTORE PUSH1 0x24 PUSH1 0x0 REVERT JUMPDEST PUSH1 0x0 PUSH1 0x2 DUP3 DIV SWAP1 POP PUSH1 0x1 DUP3 AND DUP1 PUSH2 0x161C JUMPI PUSH1 0x7F DUP3 AND SWAP2 POP JUMPDEST PUSH1 0x20 DUP3 LT DUP2 SUB PUSH2 0x162F JUMPI PUSH2 0x162E PUSH2 0x15D5 JUMP JUMPDEST JUMPDEST POP SWAP2 SWAP1 POP JUMP JUMPDEST PUSH32 0x4E487B7100000000000000000000000000000000000000000000000000000000 PUSH1 0x0 MSTORE PUSH1 0x11 PUSH1 0x4 MSTORE PUSH1 0x24 PUSH1 0x0 REVERT JUMPDEST PUSH1 0x0 DUP2 PUSH1 0x1 SHR SWAP1 POP SWAP2 SWAP1 POP JUMP JUMPDEST PUSH1 0x0 DUP1 DUP3 SWAP2 POP DUP4 SWAP1 POP JUMPDEST PUSH1 0x1 DUP6 GT ISZERO PUSH2 0x16BB JUMPI DUP1 DUP7 DIV DUP2 GT ISZERO PUSH2 0x1697 JUMPI PUSH2 0x1696 PUSH2 0x1635 JUMP JUMPDEST JUMPDEST PUSH1 0x1 DUP6 AND ISZERO PUSH2 0x16A6 JUMPI DUP1 DUP3 MUL SWAP2 POP JUMPDEST DUP1 DUP2 MUL SWAP1 POP PUSH2 0x16B4 DUP6 PUSH2 0x1664 JUMP JUMPDEST SWAP5 POP PUSH2 0x167B JUMP JUMPDEST SWAP5 POP SWAP5 SWAP3 POP POP POP JUMP JUMPDEST PUSH1 0x0 DUP3 PUSH2 0x16D4 JUMPI PUSH1 0x1 SWAP1 POP PUSH2 0x1790 JUMP JUMPDEST DUP2 PUSH2 0x16E2 JUMPI PUSH1 0x0 SWAP1 POP PUSH2 0x1790 JUMP JUMPDEST DUP2 PUSH1 0x1 DUP2 EQ PUSH2 0x16F8 JUMPI PUSH1 0x2 DUP2 EQ PUSH2 0x1702 JUMPI PUSH2 0x1731 JUMP JUMPDEST PUSH1 0x1 SWAP2 POP POP PUSH2 0x1790 JUMP JUMPDEST PUSH1 0xFF DUP5 GT ISZERO PUSH2 0x1714 JUMPI PUSH2 0x1713 PUSH2 0x1635 JUMP JUMPDEST JUMPDEST DUP4 PUSH1 0x2 EXP SWAP2 POP DUP5 DUP3 GT ISZERO PUSH2 0x172B JUMPI PUSH2 0x172A PUSH2 0x1635 JUMP JUMPDEST JUMPDEST POP PUSH2 0x1790 JUMP JUMPDEST POP PUSH1 0x20 DUP4 LT PUSH2 0x133 DUP4 LT AND PUSH1 0x4E DUP5 LT PUSH1 0xB DUP5 LT AND OR ISZERO PUSH2 0x1766 JUMPI DUP3 DUP3 EXP SWAP1 POP DUP4 DUP2 GT ISZERO PUSH2 0x1761 JUMPI PUSH2 0x1760 PUSH2 0x1635 JUMP JUMPDEST JUMPDEST PUSH2 0x1790 JUMP JUMPDEST PUSH2 0x1773 DUP5 DUP5 DUP5 PUSH1 0x1 PUSH2 0x1671 JUMP JUMPDEST SWAP3 POP SWAP1 POP DUP2 DUP5 DIV DUP2 GT ISZERO PUSH2 0x178A JUMPI PUSH2 0x1789 PUSH2 0x1635 JUMP JUMPDEST JUMPDEST DUP2 DUP2 MUL SWAP1 POP JUMPDEST SWAP4 SWAP3 POP POP POP JUMP JUMPDEST PUSH1 0x0 PUSH2 0x17A2 DUP3 PUSH2 0x13B1 JUMP JUMPDEST SWAP2 POP PUSH2 0x17AD DUP4 PUSH2 0x13B1 JUMP JUMPDEST SWAP3 POP PUSH2 0x17DA PUSH32 0xFFFFFFFFFFFFFFFFFFFFFFFFFFFFFFFFFFFFFFFFFFFFFFFFFFFFFFFFFFFFFFFF DUP5 DUP5 PUSH2 0x16C4 JUMP JUMPDEST SWAP1 POP SWAP3 SWAP2 POP POP JUMP JUMPDEST PUSH1 0x0 PUSH2 0x17ED DUP3 PUSH2 0x13B1 JUMP JUMPDEST SWAP2 POP PUSH2 0x17F8 DUP4 PUSH2 0x13B1 JUMP JUMPDEST SWAP3 POP DUP2 PUSH32 0xFFFFFFFFFFFFFFFFFFFFFFFFFFFFFFFFFFFFFFFFFFFFFFFFFFFFFFFFFFFFFFFF DIV DUP4 GT DUP3 ISZERO ISZERO AND ISZERO PUSH2 0x1831 JUMPI PUSH2 0x1830 PUSH2 0x1635 JUMP JUMPDEST JUMPDEST DUP3 DUP3 MUL SWAP1 POP SWAP3 SWAP2 POP POP JUMP JUMPDEST PUSH1 0x0 PUSH2 0x1847 DUP3 PUSH2 0x13B1 JUMP JUMPDEST SWAP2 POP PUSH2 0x1852 DUP4 PUSH2 0x13B1 JUMP JUMPDEST SWAP3 POP DUP3 DUP3 ADD SWAP1 POP DUP1 DUP3 GT ISZERO PUSH2 0x186A JUMPI PUSH2 0x1869 PUSH2 0x1635 JUMP JUMPDEST JUMPDEST SWAP3 SWAP2 POP POP JUMP JUMPDEST PUSH32 0x4D6178696D756D20737570706C79207265616368656400000000000000000000 PUSH1 0x0 DUP3 ADD MSTORE POP JUMP JUMPDEST PUSH1 0x0 PUSH2 0x18A6 PUSH1 0x16 DUP4 PUSH2 0x12A7 JUMP JUMPDEST SWAP2 POP PUSH2 0x18B1 DUP3 PUSH2 0x1870 JUMP JUMPDEST PUSH1 0x20 DUP3 ADD SWAP1 POP SWAP2 SWAP1 POP JUMP JUMPDEST PUSH1 0x0 PUSH1 0x20 DUP3 ADD SWAP1 POP DUP2 DUP2 SUB PUSH1 0x0 DUP4 ADD MSTORE PUSH2 0x18D5 DUP2 PUSH2 0x1899 JUMP JUMPDEST SWAP1 POP SWAP2 SWAP1 POP JUMP JUMPDEST PUSH32 0x45524332303A2064656372656173656420616C6C6F77616E63652062656C6F77 PUSH1 0x0 DUP3 ADD MSTORE PUSH32 0x207A65726F000000000000000000000000000000000000000000000000000000 PUSH1 0x20 DUP3 ADD MSTORE POP JUMP JUMPDEST PUSH1 0x0 PUSH2 0x1938 PUSH1 0x25 DUP4 PUSH2 0x12A7 JUMP JUMPDEST SWAP2 POP PUSH2 0x1943 DUP3 PUSH2 0x18DC JUMP JUMPDEST PUSH1 0x40 DUP3 ADD SWAP1 POP SWAP2 SWAP1 POP JUMP JUMPDEST PUSH1 0x0 PUSH1 0x20 DUP3 ADD SWAP1 POP DUP2 DUP2 SUB PUSH1 0x0 DUP4 ADD MSTORE PUSH2 0x1967 DUP2 PUSH2 0x192B JUMP JUMPDEST SWAP1 POP SWAP2 SWAP1 POP JUMP JUMPDEST PUSH32 0x4F776E61626C653A206E6577206F776E657220697320746865207A65726F2061 PUSH1 0x0 DUP3 ADD MSTORE PUSH32 0x6464726573730000000000000000000000000000000000000000000000000000 PUSH1 0x20 DUP3 ADD MSTORE POP JUMP JUMPDEST PUSH1 0x0 PUSH2 0x19CA PUSH1 0x26 DUP4 PUSH2 0x12A7 JUMP JUMPDEST SWAP2 POP PUSH2 0x19D5 DUP3 PUSH2 0x196E JUMP JUMPDEST PUSH1 0x40 DUP3 ADD SWAP1 POP SWAP2 SWAP1 POP JUMP JUMPDEST PUSH1 0x0 PUSH1 0x20 DUP3 ADD SWAP1 POP DUP2 DUP2 SUB PUSH1 0x0 DUP4 ADD MSTORE PUSH2 0x19F9 DUP2 PUSH2 0x19BD JUMP JUMPDEST SWAP1 POP SWAP2 SWAP1 POP JUMP JUMPDEST PUSH32 0x536166654D6174683A206164646974696F6E206F766572666C6F770000000000 PUSH1 0x0 DUP3 ADD MSTORE POP JUMP JUMPDEST PUSH1 0x0 PUSH2 0x1A36 PUSH1 0x1B DUP4 PUSH2 0x12A7 JUMP JUMPDEST SWAP2 POP PUSH2 0x1A41 DUP3 PUSH2 0x1A00 JUMP JUMPDEST PUSH1 0x20 DUP3 ADD SWAP1 POP SWAP2 SWAP1 POP JUMP JUMPDEST PUSH1 0x0 PUSH1 0x20 DUP3 ADD SWAP1 POP DUP2 DUP2 SUB PUSH1 0x0 DUP4 ADD MSTORE PUSH2 0x1A65 DUP2 PUSH2 0x1A29 JUMP JUMPDEST SWAP1 POP SWAP2 SWAP1 POP JUMP JUMPDEST PUSH32 0x45524332303A20617070726F76652066726F6D20746865207A65726F20616464 PUSH1 0x0 DUP3 ADD MSTORE PUSH32 0x7265737300000000000000000000000000000000000000000000000000000000 PUSH1 0x20 DUP3 ADD MSTORE POP JUMP JUMPDEST PUSH1 0x0 PUSH2 0x1AC8 PUSH1 0x24 DUP4 PUSH2 0x12A7 JUMP JUMPDEST SWAP2 POP PUSH2 0x1AD3 DUP3 PUSH2 0x1A6C JUMP JUMPDEST PUSH1 0x40 DUP3 ADD SWAP1 POP SWAP2 SWAP1 POP JUMP JUMPDEST PUSH1 0x0 PUSH1 0x20 DUP3 ADD SWAP1 POP DUP2 DUP2 SUB PUSH1 0x0 DUP4 ADD MSTORE PUSH2 0x1AF7 DUP2 PUSH2 0x1ABB JUMP JUMPDEST SWAP1 POP SWAP2 SWAP1 POP JUMP JUMPDEST PUSH32 0x45524332303A20617070726F766520746F20746865207A65726F206164647265 PUSH1 0x0 DUP3 ADD MSTORE PUSH32 0x7373000000000000000000000000000000000000000000000000000000000000 PUSH1 0x20 DUP3 ADD MSTORE POP JUMP JUMPDEST PUSH1 0x0 PUSH2 0x1B5A PUSH1 0x22 DUP4 PUSH2 0x12A7 JUMP JUMPDEST SWAP2 POP PUSH2 0x1B65 DUP3 PUSH2 0x1AFE JUMP JUMPDEST PUSH1 0x40 DUP3 ADD SWAP1 POP SWAP2 SWAP1 POP JUMP JUMPDEST PUSH1 0x0 PUSH1 0x20 DUP3 ADD SWAP1 POP DUP2 DUP2 SUB PUSH1 0x0 DUP4 ADD MSTORE PUSH2 0x1B89 DUP2 PUSH2 0x1B4D JUMP JUMPDEST SWAP1 POP SWAP2 SWAP1 POP JUMP JUMPDEST PUSH32 0x45524332303A20696E73756666696369656E7420616C6C6F77616E6365000000 PUSH1 0x0 DUP3 ADD MSTORE POP JUMP JUMPDEST PUSH1 0x0 PUSH2 0x1BC6 PUSH1 0x1D DUP4 PUSH2 0x12A7 JUMP JUMPDEST SWAP2 POP PUSH2 0x1BD1 DUP3 PUSH2 0x1B90 JUMP JUMPDEST PUSH1 0x20 DUP3 ADD SWAP1 POP SWAP2 SWAP1 POP JUMP JUMPDEST PUSH1 0x0 PUSH1 0x20 DUP3 ADD SWAP1 POP DUP2 DUP2 SUB PUSH1 0x0 DUP4 ADD MSTORE PUSH2 0x1BF5 DUP2 PUSH2 0x1BB9 JUMP JUMPDEST SWAP1 POP SWAP2 SWAP1 POP JUMP JUMPDEST PUSH32 0x45524332303A207472616E736665722066726F6D20746865207A65726F206164 PUSH1 0x0 DUP3 ADD MSTORE PUSH32 0x6472657373000000000000000000000000000000000000000000000000000000 PUSH1 0x20 DUP3 ADD MSTORE POP JUMP JUMPDEST PUSH1 0x0 PUSH2 0x1C58 PUSH1 0x25 DUP4 PUSH2 0x12A7 JUMP JUMPDEST SWAP2 POP PUSH2 0x1C63 DUP3 PUSH2 0x1BFC JUMP JUMPDEST PUSH1 0x40 DUP3 ADD SWAP1 POP SWAP2 SWAP1 POP JUMP JUMPDEST PUSH1 0x0 PUSH1 0x20 DUP3 ADD SWAP1 POP DUP2 DUP2 SUB PUSH1 0x0 DUP4 ADD MSTORE PUSH2 0x1C87 DUP2 PUSH2 0x1C4B JUMP JUMPDEST SWAP1 POP SWAP2 SWAP1 POP JUMP JUMPDEST PUSH32 0x45524332303A207472616E7366657220746F20746865207A65726F2061646472 PUSH1 0x0 DUP3 ADD MSTORE PUSH32 0x6573730000000000000000000000000000000000000000000000000000000000 PUSH1 0x20 DUP3 ADD MSTORE POP JUMP JUMPDEST PUSH1 0x0 PUSH2 0x1CEA PUSH1 0x23 DUP4 PUSH2 0x12A7 JUMP JUMPDEST SWAP2 POP PUSH2 0x1CF5 DUP3 PUSH2 0x1C8E JUMP JUMPDEST PUSH1 0x40 DUP3 ADD SWAP1 POP SWAP2 SWAP1 POP JUMP JUMPDEST PUSH1 0x0 PUSH1 0x20 DUP3 ADD SWAP1 POP DUP2 DUP2 SUB PUSH1 0x0 DUP4 ADD MSTORE PUSH2 0x1D19 DUP2 PUSH2 0x1CDD JUMP JUMPDEST SWAP1 POP SWAP2 SWAP1 POP JUMP JUMPDEST PUSH32 0x45524332303A207472616E7366657220616D6F756E7420657863656564732062 PUSH1 0x0 DUP3 ADD MSTORE PUSH32 0x616C616E63650000000000000000000000000000000000000000000000000000 PUSH1 0x20 DUP3 ADD MSTORE POP JUMP JUMPDEST PUSH1 0x0 PUSH2 0x1D7C PUSH1 0x26 DUP4 PUSH2 0x12A7 JUMP JUMPDEST SWAP2 POP PUSH2 0x1D87 DUP3 PUSH2 0x1D20 JUMP JUMPDEST PUSH1 0x40 DUP3 ADD SWAP1 POP SWAP2 SWAP1 POP JUMP JUMPDEST PUSH1 0x0 PUSH1 0x20 DUP3 ADD SWAP1 POP DUP2 DUP2 SUB PUSH1 0x0 DUP4 ADD MSTORE PUSH2 0x1DAB DUP2 PUSH2 0x1D6F JUMP JUMPDEST SWAP1 POP SWAP2 SWAP1 POP JUMP JUMPDEST PUSH32 0x4F776E61626C653A2063616C6C6572206973206E6F7420746865206F776E6572 PUSH1 0x0 DUP3 ADD MSTORE POP JUMP JUMPDEST PUSH1 0x0 PUSH2 0x1DE8 PUSH1 0x20 DUP4 PUSH2 0x12A7 JUMP JUMPDEST SWAP2 POP PUSH2 0x1DF3 DUP3 PUSH2 0x1DB2 JUMP JUMPDEST PUSH1 0x20 DUP3 ADD SWAP1 POP SWAP2 SWAP1 POP JUMP JUMPDEST PUSH1 0x0 PUSH1 0x20 DUP3 ADD SWAP1 POP DUP2 DUP2 SUB PUSH1 0x0 DUP4 ADD MSTORE PUSH2 0x1E17 DUP2 PUSH2 0x1DDB JUMP JUMPDEST SWAP1 POP SWAP2 SWAP1 POP JUMP JUMPDEST PUSH32 0x45524332303A206D696E7420746F20746865207A65726F206164647265737300 PUSH1 0x0 DUP3 ADD MSTORE POP JUMP JUMPDEST PUSH1 0x0 PUSH2 0x1E54 PUSH1 0x1F DUP4 PUSH2 0x12A7 JUMP JUMPDEST SWAP2 POP PUSH2 0x1E5F DUP3 PUSH2 0x1E1E JUMP JUMPDEST PUSH1 0x20 DUP3 ADD SWAP1 POP SWAP2 SWAP1 POP JUMP JUMPDEST PUSH1 0x0 PUSH1 0x20 DUP3 ADD SWAP1 POP DUP2 DUP2 SUB PUSH1 0x0 DUP4 ADD MSTORE PUSH2 0x1E83 DUP2 PUSH2 0x1E47 JUMP JUMPDEST SWAP1 POP SWAP2 SWAP1 POP JUMP JUMPDEST PUSH32 0x45524332303A206275726E2066726F6D20746865207A65726F20616464726573 PUSH1 0x0 DUP3 ADD MSTORE PUSH32 0x7300000000000000000000000000000000000000000000000000000000000000 PUSH1 0x20 DUP3 ADD MSTORE POP JUMP JUMPDEST PUSH1 0x0 PUSH2 0x1EE6 PUSH1 0x21 DUP4 PUSH2 0x12A7 JUMP JUMPDEST SWAP2 POP PUSH2 0x1EF1 DUP3 PUSH2 0x1E8A JUMP JUMPDEST PUSH1 0x40 DUP3 ADD SWAP1 POP SWAP2 SWAP1 POP JUMP JUMPDEST PUSH1 0x0 PUSH1 0x20 DUP3 ADD SWAP1 POP DUP2 DUP2 SUB PUSH1 0x0 DUP4 ADD MSTORE PUSH2 0x1F15 DUP2 PUSH2 0x1ED9 JUMP JUMPDEST SWAP1 POP SWAP2 SWAP1 POP JUMP JUMPDEST PUSH32 0x45524332303A206275726E20616D6F756E7420657863656564732062616C616E PUSH1 0x0 DUP3 ADD MSTORE PUSH32 0x6365000000000000000000000000000000000000000000000000000000000000 PUSH1 0x20 DUP3 ADD MSTORE POP JUMP JUMPDEST PUSH1 0x0 PUSH2 0x1F78 PUSH1 0x22 DUP4 PUSH2 0x12A7 JUMP JUMPDEST SWAP2 POP PUSH2 0x1F83 DUP3 PUSH2 0x1F1C JUMP JUMPDEST PUSH1 0x40 DUP3 ADD SWAP1 POP SWAP2 SWAP1 POP JUMP JUMPDEST PUSH1 0x0 PUSH1 0x20 DUP3 ADD SWAP1 POP DUP2 DUP2 SUB PUSH1 0x0 DUP4 ADD MSTORE PUSH2 0x1FA7 DUP2 PUSH2 0x1F6B JUMP JUMPDEST SWAP1 POP SWAP2 SWAP1 POP JUMP JUMPDEST PUSH1 0x0 PUSH2 0x1FB9 DUP3 PUSH2 0x13B1 JUMP JUMPDEST SWAP2 POP PUSH2 0x1FC4 DUP4 PUSH2 0x13B1 JUMP JUMPDEST SWAP3 POP DUP3 DUP3 SUB SWAP1 POP DUP2 DUP2 GT ISZERO PUSH2 0x1FDC JUMPI PUSH2 0x1FDB PUSH2 0x1635 JUMP JUMPDEST JUMPDEST SWAP3 SWAP2 POP POP JUMP INVALID LOG2 PUSH5 0x6970667358 0x22 SLT KECCAK256 EXP 0xAA SMOD PUSH31 0xA65313911CA5F6B9BC882FCE2287B14745BF99D46880743A2F91815A64736F PUSH13 0x63430008100033000000000000 "
				},
				"gasEstimates": {
					"creation": {
						"codeDepositCost": "1643200",
						"executionCost": "infinite",
						"totalCost": "infinite"
					},
					"external": {
						"DECIMALS()": "358",
						"INITIAL_SUPPLY()": "infinite",
						"Maximum_SUPPLY()": "infinite",
						"allowance(address,address)": "infinite",
						"approve(address,uint256)": "infinite",
						"balanceOf(address)": "2886",
						"burn(uint256)": "infinite",
						"burnFrom(address,uint256)": "infinite",
						"decimals()": "410",
						"decreaseAllowance(address,uint256)": "infinite",
						"increaseAllowance(address,uint256)": "infinite",
						"mint(address,uint256)": "infinite",
						"name()": "infinite",
						"owner()": "2633",
						"renounceOwnership()": "30465",
						"symbol()": "infinite",
						"totalSupply()": "2505",
						"transfer(address,uint256)": "infinite",
						"transferFrom(address,address,uint256)": "infinite",
						"transferOwnership(address)": "30854"
					}
				},
				"methodIdentifiers": {
					"DECIMALS()": "2e0f2625",
					"INITIAL_SUPPLY()": "2ff2e9dc",
					"Maximum_SUPPLY()": "1b62d7af",
					"allowance(address,address)": "dd62ed3e",
					"approve(address,uint256)": "095ea7b3",
					"balanceOf(address)": "70a08231",
					"burn(uint256)": "42966c68",
					"burnFrom(address,uint256)": "79cc6790",
					"decimals()": "313ce567",
					"decreaseAllowance(address,uint256)": "a457c2d7",
					"increaseAllowance(address,uint256)": "39509351",
					"mint(address,uint256)": "40c10f19",
					"name()": "06fdde03",
					"owner()": "8da5cb5b",
					"renounceOwnership()": "715018a6",
					"symbol()": "95d89b41",
					"totalSupply()": "18160ddd",
					"transfer(address,uint256)": "a9059cbb",
					"transferFrom(address,address,uint256)": "23b872dd",
					"transferOwnership(address)": "f2fde38b"
				}
			},
			"storageLayout": {
				"storage": [
					{
						"astId": 130,
						"contract": "NFT-Contracts/contracts/AREVEAToken.sol:AREVEAToken",
						"label": "_balances",
						"offset": 0,
						"slot": "0",
						"type": "t_mapping(t_address,t_uint256)"
					},
					{
						"astId": 136,
						"contract": "NFT-Contracts/contracts/AREVEAToken.sol:AREVEAToken",
						"label": "_allowances",
						"offset": 0,
						"slot": "1",
						"type": "t_mapping(t_address,t_mapping(t_address,t_uint256))"
					},
					{
						"astId": 138,
						"contract": "NFT-Contracts/contracts/AREVEAToken.sol:AREVEAToken",
						"label": "_totalSupply",
						"offset": 0,
						"slot": "2",
						"type": "t_uint256"
					},
					{
						"astId": 140,
						"contract": "NFT-Contracts/contracts/AREVEAToken.sol:AREVEAToken",
						"label": "_name",
						"offset": 0,
						"slot": "3",
						"type": "t_string_storage"
					},
					{
						"astId": 142,
						"contract": "NFT-Contracts/contracts/AREVEAToken.sol:AREVEAToken",
						"label": "_symbol",
						"offset": 0,
						"slot": "4",
						"type": "t_string_storage"
					},
					{
						"astId": 723,
						"contract": "NFT-Contracts/contracts/AREVEAToken.sol:AREVEAToken",
						"label": "_owner",
						"offset": 0,
						"slot": "5",
						"type": "t_address"
					}
				],
				"types": {
					"t_address": {
						"encoding": "inplace",
						"label": "address",
						"numberOfBytes": "20"
					},
					"t_mapping(t_address,t_mapping(t_address,t_uint256))": {
						"encoding": "mapping",
						"key": "t_address",
						"label": "mapping(address => mapping(address => uint256))",
						"numberOfBytes": "32",
						"value": "t_mapping(t_address,t_uint256)"
					},
					"t_mapping(t_address,t_uint256)": {
						"encoding": "mapping",
						"key": "t_address",
						"label": "mapping(address => uint256)",
						"numberOfBytes": "32",
						"value": "t_uint256"
					},
					"t_string_storage": {
						"encoding": "bytes",
						"label": "string",
						"numberOfBytes": "32"
					},
					"t_uint256": {
						"encoding": "inplace",
						"label": "uint256",
						"numberOfBytes": "32"
					}
				}
			},
			"userdoc": {
				"kind": "user",
				"methods": {},
				"version": 1
			}
		}
	}
}