{
	"NFT-Contracts/new/finalMarket_single.sol": {
		"NFTSingleMarketplace": {
			"abi": [
				{
					"anonymous": false,
					"inputs": [
						{
							"indexed": false,
							"internalType": "address",
							"name": "nftContractAddress",
							"type": "address"
						},
						{
							"indexed": false,
							"internalType": "uint256",
							"name": "tokenId",
							"type": "uint256"
						},
						{
							"indexed": false,
							"internalType": "address",
							"name": "nftSeller",
							"type": "address"
						}
					],
					"name": "CancelNftAuctionSale",
					"type": "event"
				},
				{
					"anonymous": false,
					"inputs": [
						{
							"indexed": false,
							"internalType": "address",
							"name": "nftContractAddress",
							"type": "address"
						},
						{
							"indexed": false,
							"internalType": "address",
							"name": "nftSeller",
							"type": "address"
						},
						{
							"indexed": false,
							"internalType": "uint256",
							"name": "tokenId",
							"type": "uint256"
						}
					],
					"name": "CancelNftFixedSale",
					"type": "event"
				},
				{
					"anonymous": false,
					"inputs": [
						{
							"indexed": false,
							"internalType": "address",
							"name": "nftContractAddress",
							"type": "address"
						},
						{
							"indexed": false,
							"internalType": "uint256",
							"name": "tokenId",
							"type": "uint256"
						},
						{
							"indexed": false,
							"internalType": "uint256",
							"name": "finalBidPrice",
							"type": "uint256"
						},
						{
							"indexed": false,
							"internalType": "address",
							"name": "nftBidder",
							"type": "address"
						}
					],
					"name": "NftAuctionBidPriceUpdate",
					"type": "event"
				},
				{
					"anonymous": false,
					"inputs": [
						{
							"indexed": false,
							"internalType": "address",
							"name": "nftContractAddress",
							"type": "address"
						},
						{
							"indexed": false,
							"internalType": "address",
							"name": "nftSeller",
							"type": "address"
						},
						{
							"indexed": false,
							"internalType": "address",
							"name": "erc20",
							"type": "address"
						},
						{
							"indexed": false,
							"internalType": "uint256",
							"name": "tokenId",
							"type": "uint256"
						},
						{
							"indexed": false,
							"internalType": "uint256",
							"name": "auctionStart",
							"type": "uint256"
						},
						{
							"indexed": false,
							"internalType": "uint256",
							"name": "auctionEnd",
							"type": "uint256"
						},
						{
							"indexed": false,
							"internalType": "uint256",
							"name": "minPrice",
							"type": "uint256"
						}
					],
					"name": "NftAuctionSale",
					"type": "event"
				},
				{
					"anonymous": false,
					"inputs": [
						{
							"indexed": false,
							"internalType": "address",
							"name": "nftContractAddress",
							"type": "address"
						},
						{
							"indexed": false,
							"internalType": "uint256",
							"name": "tokenId",
							"type": "uint256"
						},
						{
							"indexed": false,
							"internalType": "address",
							"name": "nftHighestBidder",
							"type": "address"
						},
						{
							"indexed": false,
							"internalType": "uint256",
							"name": "nftHighestBid",
							"type": "uint256"
						},
						{
							"indexed": false,
							"internalType": "address",
							"name": "nftSeller",
							"type": "address"
						}
					],
					"name": "NftAuctionSettle",
					"type": "event"
				},
				{
					"anonymous": false,
					"inputs": [
						{
							"indexed": false,
							"internalType": "address",
							"name": "nftContractAddress",
							"type": "address"
						},
						{
							"indexed": false,
							"internalType": "uint256",
							"name": "tokenId",
							"type": "uint256"
						},
						{
							"indexed": false,
							"internalType": "uint256",
							"name": "bidPrice",
							"type": "uint256"
						},
						{
							"indexed": false,
							"internalType": "address",
							"name": "nftBidder",
							"type": "address"
						}
					],
					"name": "NftBidPrice",
					"type": "event"
				},
				{
					"anonymous": false,
					"inputs": [
						{
							"indexed": false,
							"internalType": "address",
							"name": "nftContractAddress",
							"type": "address"
						},
						{
							"indexed": false,
							"internalType": "address",
							"name": "nftBuyer",
							"type": "address"
						},
						{
							"indexed": false,
							"internalType": "uint256",
							"name": "tokenId",
							"type": "uint256"
						},
						{
							"indexed": false,
							"internalType": "uint256",
							"name": "nftBuyPrice",
							"type": "uint256"
						}
					],
					"name": "NftBuyFromFixedSale",
					"type": "event"
				},
				{
					"anonymous": false,
					"inputs": [
						{
							"indexed": false,
							"internalType": "address",
							"name": "nftContractAddress",
							"type": "address"
						},
						{
							"indexed": false,
							"internalType": "uint256",
							"name": "tokenId",
							"type": "uint256"
						},
						{
							"indexed": false,
							"internalType": "uint256",
							"name": "updateBuyNowPrice",
							"type": "uint256"
						},
						{
							"indexed": false,
							"internalType": "address",
							"name": "nftOwner",
							"type": "address"
						}
					],
					"name": "NftBuyNowPriceUpdate",
					"type": "event"
				},
				{
					"anonymous": false,
					"inputs": [
						{
							"indexed": false,
							"internalType": "address",
							"name": "nftContractAddress",
							"type": "address"
						},
						{
							"indexed": false,
							"internalType": "address",
							"name": "nftSeller",
							"type": "address"
						},
						{
							"indexed": false,
							"internalType": "address",
							"name": "erc20",
							"type": "address"
						},
						{
							"indexed": false,
							"internalType": "uint256",
							"name": "tokenId",
							"type": "uint256"
						},
						{
							"indexed": false,
							"internalType": "uint256",
							"name": "salePrice",
							"type": "uint256"
						},
						{
							"indexed": false,
							"internalType": "uint256",
							"name": "timeOfSale",
							"type": "uint256"
						}
					],
					"name": "NftFixedSale",
					"type": "event"
				},
				{
					"anonymous": false,
					"inputs": [
						{
							"indexed": false,
							"internalType": "address",
							"name": "nftContractAddress",
							"type": "address"
						},
						{
							"indexed": false,
							"internalType": "uint256",
							"name": "tokenId",
							"type": "uint256"
						},
						{
							"indexed": false,
							"internalType": "uint256",
							"name": "updateSalePrice",
							"type": "uint256"
						}
					],
					"name": "NftFixedSalePriceUpdated",
					"type": "event"
				},
				{
					"anonymous": false,
					"inputs": [
						{
							"indexed": false,
							"internalType": "address",
							"name": "nftContractAddress",
							"type": "address"
						},
						{
							"indexed": false,
							"internalType": "uint256",
							"name": "tokenId",
							"type": "uint256"
						},
						{
							"indexed": false,
							"internalType": "address",
							"name": "bidClaimer",
							"type": "address"
						}
					],
					"name": "withdrawNftBid",
					"type": "event"
				},
				{
					"inputs": [
						{
							"internalType": "address",
							"name": "_erc20_contract",
							"type": "address"
						},
						{
							"internalType": "address",
							"name": "seller",
							"type": "address"
						},
						{
							"internalType": "uint256",
							"name": "_amount",
							"type": "uint256"
						}
					],
					"name": "Sell_AreveaToken",
					"outputs": [
						{
							"internalType": "bool",
							"name": "",
							"type": "bool"
						}
					],
					"stateMutability": "nonpayable",
					"type": "function"
				},
				{
					"inputs": [
						{
							"internalType": "address",
							"name": "_nftContractAddress",
							"type": "address"
						},
						{
							"internalType": "uint256",
							"name": "_tokenId",
							"type": "uint256"
						}
					],
					"name": "_cancelAuctionSale",
					"outputs": [],
					"stateMutability": "nonpayable",
					"type": "function"
				},
				{
					"inputs": [
						{
							"internalType": "address",
							"name": "_erc20_contract",
							"type": "address"
						},
						{
							"internalType": "address",
							"name": "_buyer",
							"type": "address"
						},
						{
							"internalType": "uint256",
							"name": "_amount",
							"type": "uint256"
						}
					],
					"name": "buyAreveaToken",
					"outputs": [
						{
							"internalType": "bool",
							"name": "",
							"type": "bool"
						}
					],
					"stateMutability": "nonpayable",
					"type": "function"
				},
				{
					"inputs": [
						{
							"internalType": "address",
							"name": "_nftContractAddress",
							"type": "address"
						},
						{
							"internalType": "uint256",
							"name": "_tokenId",
							"type": "uint256"
						},
						{
							"internalType": "uint256",
							"name": "_amount",
							"type": "uint256"
						}
					],
					"name": "buyFromFixedSale",
					"outputs": [],
					"stateMutability": "payable",
					"type": "function"
				},
				{
					"inputs": [
						{
							"internalType": "address",
							"name": "_nftContractAddress",
							"type": "address"
						},
						{
							"internalType": "uint256",
							"name": "_tokenId",
							"type": "uint256"
						}
					],
					"name": "cancelFixedsale",
					"outputs": [],
					"stateMutability": "nonpayable",
					"type": "function"
				},
				{
					"inputs": [
						{
							"internalType": "address",
							"name": "_nftContractAddress",
							"type": "address"
						},
						{
							"internalType": "address",
							"name": "_erc20",
							"type": "address"
						},
						{
							"internalType": "uint256",
							"name": "_tokenId",
							"type": "uint256"
						},
						{
							"internalType": "uint256",
							"name": "_auctionStart",
							"type": "uint256"
						},
						{
							"internalType": "uint256",
							"name": "_auctionEnd",
							"type": "uint256"
						},
						{
							"internalType": "uint256",
							"name": "_minPrice",
							"type": "uint256"
						}
					],
					"name": "createNftAuctionSale",
					"outputs": [],
					"stateMutability": "nonpayable",
					"type": "function"
				},
				{
					"inputs": [],
					"name": "getAuctionSaleNFT",
					"outputs": [
						{
							"components": [
								{
									"internalType": "address",
									"name": "_nftContractAddress",
									"type": "address"
								},
								{
									"internalType": "uint256",
									"name": "_tokenID",
									"type": "uint256"
								}
							],
							"internalType": "struct NFTSingleMarketplace.SaleInfo[]",
							"name": "",
							"type": "tuple[]"
						}
					],
					"stateMutability": "view",
					"type": "function"
				},
				{
					"inputs": [
						{
							"internalType": "address",
							"name": "_nftContractAddress",
							"type": "address"
						},
						{
							"internalType": "uint256",
							"name": "_tokenId",
							"type": "uint256"
						}
					],
					"name": "getFixedSale",
					"outputs": [
						{
							"components": [
								{
									"internalType": "address",
									"name": "nftSeller",
									"type": "address"
								},
								{
									"internalType": "address",
									"name": "nftBuyer",
									"type": "address"
								},
								{
									"internalType": "address",
									"name": "erc20",
									"type": "address"
								},
								{
									"internalType": "uint256",
									"name": "salePrice",
									"type": "uint256"
								}
							],
							"internalType": "struct NFTSingleMarketplace.FixedSale",
							"name": "",
							"type": "tuple"
						}
					],
					"stateMutability": "view",
					"type": "function"
				},
				{
					"inputs": [],
					"name": "getFixedSaleNFT",
					"outputs": [
						{
							"components": [
								{
									"internalType": "address",
									"name": "_nftContractAddress",
									"type": "address"
								},
								{
									"internalType": "uint256",
									"name": "_tokenID",
									"type": "uint256"
								}
							],
							"internalType": "struct NFTSingleMarketplace.SaleInfo[]",
							"name": "",
							"type": "tuple[]"
						}
					],
					"stateMutability": "view",
					"type": "function"
				},
				{
					"inputs": [
						{
							"internalType": "address",
							"name": "_nftContractAddress",
							"type": "address"
						},
						{
							"internalType": "uint256",
							"name": "_tokenId",
							"type": "uint256"
						}
					],
					"name": "getNftAuctionSaleDetails",
					"outputs": [
						{
							"components": [
								{
									"internalType": "uint256",
									"name": "auctionStart",
									"type": "uint256"
								},
								{
									"internalType": "uint256",
									"name": "auctionEnd",
									"type": "uint256"
								},
								{
									"internalType": "uint256",
									"name": "minPrice",
									"type": "uint256"
								},
								{
									"internalType": "uint256",
									"name": "nftHighestBid",
									"type": "uint256"
								},
								{
									"internalType": "address",
									"name": "nftHighestBidder",
									"type": "address"
								},
								{
									"internalType": "address",
									"name": "nftSeller",
									"type": "address"
								},
								{
									"internalType": "address",
									"name": "erc20",
									"type": "address"
								}
							],
							"internalType": "struct NFTSingleMarketplace.Auction",
							"name": "",
							"type": "tuple"
						}
					],
					"stateMutability": "view",
					"type": "function"
				},
				{
					"inputs": [
						{
							"internalType": "address",
							"name": "_nftContractAddress",
							"type": "address"
						},
						{
							"internalType": "uint256",
							"name": "_tokenId",
							"type": "uint256"
						},
						{
							"internalType": "uint256",
							"name": "_bidPrice",
							"type": "uint256"
						}
					],
					"name": "makeBid",
					"outputs": [],
					"stateMutability": "payable",
					"type": "function"
				},
				{
					"inputs": [
						{
							"internalType": "address",
							"name": "_nftContractAddress",
							"type": "address"
						},
						{
							"internalType": "address",
							"name": "_erc20",
							"type": "address"
						},
						{
							"internalType": "uint256",
							"name": "_tokenId",
							"type": "uint256"
						},
						{
							"internalType": "uint256",
							"name": "_salePrice",
							"type": "uint256"
						}
					],
					"name": "nftFixedSale",
					"outputs": [],
					"stateMutability": "nonpayable",
					"type": "function"
				},
				{
					"inputs": [
						{
							"internalType": "address",
							"name": "",
							"type": "address"
						},
						{
							"internalType": "uint256",
							"name": "",
							"type": "uint256"
						}
					],
					"name": "nftSaleStatus",
					"outputs": [
						{
							"internalType": "uint256",
							"name": "",
							"type": "uint256"
						}
					],
					"stateMutability": "view",
					"type": "function"
				},
				{
					"inputs": [
						{
							"internalType": "address",
							"name": "",
							"type": "address"
						},
						{
							"internalType": "address",
							"name": "from",
							"type": "address"
						},
						{
							"internalType": "uint256",
							"name": "",
							"type": "uint256"
						},
						{
							"internalType": "bytes",
							"name": "",
							"type": "bytes"
						}
					],
					"name": "onERC721Received",
					"outputs": [
						{
							"internalType": "bytes4",
							"name": "",
							"type": "bytes4"
						}
					],
					"stateMutability": "pure",
					"type": "function"
				},
				{
					"inputs": [
						{
							"internalType": "address",
							"name": "_nftContractAddress",
							"type": "address"
						},
						{
							"internalType": "uint256",
							"name": "_tokenId",
							"type": "uint256"
						}
					],
					"name": "settleAuction",
					"outputs": [],
					"stateMutability": "nonpayable",
					"type": "function"
				},
				{
					"inputs": [
						{
							"internalType": "address",
							"name": "_nftContractAddress",
							"type": "address"
						},
						{
							"internalType": "uint256",
							"name": "_tokenId",
							"type": "uint256"
						},
						{
							"internalType": "uint256",
							"name": "_updateSalePrice",
							"type": "uint256"
						}
					],
					"name": "updateFixedSalePrice",
					"outputs": [],
					"stateMutability": "nonpayable",
					"type": "function"
				},
				{
					"inputs": [
						{
							"internalType": "address",
							"name": "_nftContractAddress",
							"type": "address"
						},
						{
							"internalType": "uint256",
							"name": "_tokenId",
							"type": "uint256"
						},
						{
							"internalType": "uint256",
							"name": "_updateBidPrice",
							"type": "uint256"
						}
					],
					"name": "updateTheBidPrice",
					"outputs": [],
					"stateMutability": "payable",
					"type": "function"
				},
				{
					"inputs": [
						{
							"internalType": "address",
							"name": "",
							"type": "address"
						},
						{
							"internalType": "uint256",
							"name": "",
							"type": "uint256"
						},
						{
							"internalType": "address",
							"name": "",
							"type": "address"
						}
					],
					"name": "userBidPriceOnNFT",
					"outputs": [
						{
							"internalType": "uint256",
							"name": "",
							"type": "uint256"
						}
					],
					"stateMutability": "view",
					"type": "function"
				},
				{
					"inputs": [
						{
							"internalType": "address",
							"name": "_nftContractAddress",
							"type": "address"
						},
						{
							"internalType": "uint256",
							"name": "_tokenId",
							"type": "uint256"
						}
					],
					"name": "withdrawBid",
					"outputs": [],
					"stateMutability": "nonpayable",
					"type": "function"
				},
				{
					"stateMutability": "payable",
					"type": "receive"
				}
			],
			"devdoc": {
				"kind": "dev",
				"methods": {},
				"version": 1
			},
			"evm": {
				"assembly": "    /* \"NFT-Contracts/new/finalMarket_single.sol\":365:22024  contract NFTSingleMarketplace {\r... */\n  mstore(0x40, 0x80)\n  callvalue\n  dup1\n  iszero\n  tag_1\n  jumpi\n  0x00\n  dup1\n  revert\ntag_1:\n  pop\n  dataSize(sub_0)\n  dup1\n  dataOffset(sub_0)\n  0x00\n  codecopy\n  0x00\n  return\nstop\n\nsub_0: assembly {\n        /* \"NFT-Contracts/new/finalMarket_single.sol\":365:22024  contract NFTSingleMarketplace {\r... */\n      mstore(0x40, 0x80)\n      jumpi(tag_1, lt(calldatasize, 0x04))\n      shr(0xe0, calldataload(0x00))\n      dup1\n      0x69a6d12e\n      gt\n      tag_22\n      jumpi\n      dup1\n      0x8c3417da\n      gt\n      tag_23\n      jumpi\n      dup1\n      0x8c3417da\n      eq\n      tag_17\n      jumpi\n      dup1\n      0x9f085a00\n      eq\n      tag_18\n      jumpi\n      dup1\n      0xbaf4371e\n      eq\n      tag_19\n      jumpi\n      dup1\n      0xcf42b7e6\n      eq\n      tag_20\n      jumpi\n      dup1\n      0xd3a6a6c9\n      eq\n      tag_21\n      jumpi\n      0x00\n      dup1\n      revert\n    tag_23:\n      dup1\n      0x69a6d12e\n      eq\n      tag_12\n      jumpi\n      dup1\n      0x6f8c9b1b\n      eq\n      tag_13\n      jumpi\n      dup1\n      0x6fe02f24\n      eq\n      tag_14\n      jumpi\n      dup1\n      0x7ad47a21\n      eq\n      tag_15\n      jumpi\n      dup1\n      0x842bc46a\n      eq\n      tag_16\n      jumpi\n      0x00\n      dup1\n      revert\n    tag_22:\n      dup1\n      0x3a713db8\n      gt\n      tag_24\n      jumpi\n      dup1\n      0x3a713db8\n      eq\n      tag_7\n      jumpi\n      dup1\n      0x4676adca\n      eq\n      tag_8\n      jumpi\n      dup1\n      0x4cb8ef5b\n      eq\n      tag_9\n      jumpi\n      dup1\n      0x5138b08c\n      eq\n      tag_10\n      jumpi\n      dup1\n      0x6916462f\n      eq\n      tag_11\n      jumpi\n      0x00\n      dup1\n      revert\n    tag_24:\n      dup1\n      0xe2097c\n      eq\n      tag_3\n      jumpi\n      dup1\n      0x150b7a02\n      eq\n      tag_4\n      jumpi\n      dup1\n      0x1bdae6f1\n      eq\n      tag_5\n      jumpi\n      dup1\n      0x1e7a044f\n      eq\n      tag_6\n      jumpi\n      0x00\n      dup1\n      revert\n    tag_1:\n      jumpi(tag_2, calldatasize)\n      stop\n    tag_2:\n      0x00\n      dup1\n      revert\n        /* \"NFT-Contracts/new/finalMarket_single.sol\":8204:8488  function buyAreveaToken(address _erc20_contract, address _buyer, uint256 _amount) public returns (bool){\r... */\n    tag_3:\n      callvalue\n      dup1\n      iszero\n      tag_27\n      jumpi\n      0x00\n      dup1\n      revert\n    tag_27:\n      pop\n      tag_28\n      tag_29\n      calldatasize\n      0x04\n      tag_30\n      jump\t// in\n    tag_29:\n      tag_31\n      jump\t// in\n    tag_28:\n      mload(0x40)\n        /* \"#utility.yul\":9932:9946   */\n      swap1\n      iszero\n        /* \"#utility.yul\":9925:9947   */\n      iszero\n        /* \"#utility.yul\":9907:9948   */\n      dup2\n      mstore\n        /* \"#utility.yul\":9895:9897   */\n      0x20\n        /* \"#utility.yul\":9880:9898   */\n      add\n        /* \"NFT-Contracts/new/finalMarket_single.sol\":8204:8488  function buyAreveaToken(address _erc20_contract, address _buyer, uint256 _amount) public returns (bool){\r... */\n    tag_32:\n      mload(0x40)\n      dup1\n      swap2\n      sub\n      swap1\n      return\n        /* \"NFT-Contracts/new/finalMarket_single.sol\":19315:19530  function onERC721Received(\r... */\n    tag_4:\n      callvalue\n      dup1\n      iszero\n      tag_34\n      jumpi\n      0x00\n      dup1\n      revert\n    tag_34:\n      pop\n      tag_35\n      tag_36\n      calldatasize\n      0x04\n      tag_37\n      jump\t// in\n    tag_36:\n      shl(0xe1, 0x0a85bd01)\n      swap6\n      swap5\n      pop\n      pop\n      pop\n      pop\n      pop\n      jump\n    tag_35:\n      mload(0x40)\n      not(sub(shl(0xe0, 0x01), 0x01))\n        /* \"#utility.yul\":10121:10154   */\n      swap1\n      swap2\n      and\n        /* \"#utility.yul\":10103:10155   */\n      dup2\n      mstore\n        /* \"#utility.yul\":10091:10093   */\n      0x20\n        /* \"#utility.yul\":10076:10094   */\n      add\n        /* \"NFT-Contracts/new/finalMarket_single.sol\":19315:19530  function onERC721Received(\r... */\n      tag_32\n        /* \"#utility.yul\":9959:10161   */\n      jump\n        /* \"NFT-Contracts/new/finalMarket_single.sol\":13384:14559  function makeBid(\r... */\n    tag_5:\n      tag_41\n      tag_42\n      calldatasize\n      0x04\n      tag_43\n      jump\t// in\n    tag_42:\n      tag_44\n      jump\t// in\n    tag_41:\n      stop\n        /* \"NFT-Contracts/new/finalMarket_single.sol\":18854:18965  function getAuctionSaleNFT() external view returns (SaleInfo[] memory) {\r... */\n    tag_6:\n      callvalue\n      dup1\n      iszero\n      tag_45\n      jumpi\n      0x00\n      dup1\n      revert\n    tag_45:\n      pop\n      tag_46\n      tag_47\n      jump\t// in\n    tag_46:\n      mload(0x40)\n      tag_32\n      swap2\n      swap1\n      tag_49\n      jump\t// in\n        /* \"NFT-Contracts/new/finalMarket_single.sol\":14567:16083  function updateTheBidPrice(\r... */\n    tag_7:\n      tag_41\n      tag_51\n      calldatasize\n      0x04\n      tag_43\n      jump\t// in\n    tag_51:\n      tag_52\n      jump\t// in\n        /* \"NFT-Contracts/new/finalMarket_single.sol\":10553:11131  function updateFixedSalePrice(\r... */\n    tag_8:\n      callvalue\n      dup1\n      iszero\n      tag_53\n      jumpi\n      0x00\n      dup1\n      revert\n    tag_53:\n      pop\n      tag_41\n      tag_55\n      calldatasize\n      0x04\n      tag_43\n      jump\t// in\n    tag_55:\n      tag_56\n      jump\t// in\n        /* \"NFT-Contracts/new/finalMarket_single.sol\":17856:18614  function withdrawBid(address _nftContractAddress, uint256 _tokenId)\r... */\n    tag_9:\n      callvalue\n      dup1\n      iszero\n      tag_57\n      jumpi\n      0x00\n      dup1\n      revert\n    tag_57:\n      pop\n      tag_41\n      tag_59\n      calldatasize\n      0x04\n      tag_60\n      jump\t// in\n    tag_59:\n      tag_61\n      jump\t// in\n        /* \"NFT-Contracts/new/finalMarket_single.sol\":16840:17848  function settleAuction(address _nftContractAddress, uint256 _tokenId)\r... */\n    tag_10:\n      callvalue\n      dup1\n      iszero\n      tag_62\n      jumpi\n      0x00\n      dup1\n      revert\n    tag_62:\n      pop\n      tag_41\n      tag_64\n      calldatasize\n      0x04\n      tag_60\n      jump\t// in\n    tag_64:\n      tag_65\n      jump\t// in\n        /* \"NFT-Contracts/new/finalMarket_single.sol\":1065:1133  mapping(address => mapping(uint256 => uint256)) public nftSaleStatus */\n    tag_11:\n      callvalue\n      dup1\n      iszero\n      tag_66\n      jumpi\n      0x00\n      dup1\n      revert\n    tag_66:\n      pop\n      tag_67\n      tag_68\n      calldatasize\n      0x04\n      tag_60\n      jump\t// in\n    tag_68:\n      0x02\n      0x20\n      swap1\n      dup2\n      mstore\n      0x00\n      swap3\n      dup4\n      mstore\n      0x40\n      dup1\n      dup5\n      keccak256\n      swap1\n      swap2\n      mstore\n      swap1\n      dup3\n      mstore\n      swap1\n      keccak256\n      sload\n      dup2\n      jump\n    tag_67:\n      mload(0x40)\n        /* \"#utility.yul\":17092:17117   */\n      swap1\n      dup2\n      mstore\n        /* \"#utility.yul\":17080:17082   */\n      0x20\n        /* \"#utility.yul\":17065:17083   */\n      add\n        /* \"NFT-Contracts/new/finalMarket_single.sol\":1065:1133  mapping(address => mapping(uint256 => uint256)) public nftSaleStatus */\n      tag_32\n        /* \"#utility.yul\":16946:17123   */\n      jump\n        /* \"NFT-Contracts/new/finalMarket_single.sol\":8816:9951  function nftFixedSale(\r... */\n    tag_12:\n      callvalue\n      dup1\n      iszero\n      tag_72\n      jumpi\n      0x00\n      dup1\n      revert\n    tag_72:\n      pop\n      tag_41\n      tag_74\n      calldatasize\n      0x04\n      tag_75\n      jump\t// in\n    tag_74:\n      tag_76\n      jump\t// in\n        /* \"NFT-Contracts/new/finalMarket_single.sol\":18622:18846  function getNftAuctionSaleDetails(\r... */\n    tag_13:\n      callvalue\n      dup1\n      iszero\n      tag_77\n      jumpi\n      0x00\n      dup1\n      revert\n    tag_77:\n      pop\n      tag_78\n      tag_79\n      calldatasize\n      0x04\n      tag_60\n      jump\t// in\n    tag_79:\n      tag_80\n      jump\t// in\n    tag_78:\n      mload(0x40)\n      tag_32\n      swap2\n      swap1\n        /* \"#utility.yul\":15941:15954   */\n      dup2\n      mload\n        /* \"#utility.yul\":15923:15955   */\n      dup2\n      mstore\n        /* \"#utility.yul\":16011:16015   */\n      0x20\n        /* \"#utility.yul\":15999:16016   */\n      dup1\n      dup4\n      add\n        /* \"#utility.yul\":15993:16017   */\n      mload\n        /* \"#utility.yul\":15971:15991   */\n      swap1\n      dup3\n      add\n        /* \"#utility.yul\":15964:16018   */\n      mstore\n        /* \"#utility.yul\":16074:16078   */\n      0x40\n        /* \"#utility.yul\":16062:16079   */\n      dup1\n      dup4\n      add\n        /* \"#utility.yul\":16056:16080   */\n      mload\n        /* \"#utility.yul\":16034:16054   */\n      swap1\n      dup3\n      add\n        /* \"#utility.yul\":16027:16081   */\n      mstore\n        /* \"#utility.yul\":16137:16141   */\n      0x60\n        /* \"#utility.yul\":16125:16142   */\n      dup1\n      dup4\n      add\n        /* \"#utility.yul\":16119:16143   */\n      mload\n        /* \"#utility.yul\":16097:16117   */\n      swap1\n      dup3\n      add\n        /* \"#utility.yul\":16090:16144   */\n      mstore\n        /* \"#utility.yul\":16191:16195   */\n      0x80\n        /* \"#utility.yul\":16179:16196   */\n      dup1\n      dup4\n      add\n        /* \"#utility.yul\":16173:16197   */\n      mload\n      sub(shl(0xa0, 0x01), 0x01)\n        /* \"#utility.yul\":16273:16294   */\n      swap1\n      dup2\n      and\n        /* \"#utility.yul\":16251:16271   */\n      swap2\n      dup4\n      add\n        /* \"#utility.yul\":16244:16295   */\n      swap2\n      swap1\n      swap2\n      mstore\n        /* \"#utility.yul\":16224:16227   */\n      0xa0\n        /* \"#utility.yul\":16343:16360   */\n      dup1\n      dup5\n      add\n        /* \"#utility.yul\":16337:16361   */\n      mload\n        /* \"#utility.yul\":16333:16366   */\n      dup3\n      and\n        /* \"#utility.yul\":16311:16331   */\n      swap1\n      dup4\n      add\n        /* \"#utility.yul\":16304:16367   */\n      mstore\n        /* \"#utility.yul\":16427:16431   */\n      0xc0\n        /* \"#utility.yul\":16415:16432   */\n      swap3\n      dup4\n      add\n        /* \"#utility.yul\":16409:16433   */\n      mload\n        /* \"#utility.yul\":16405:16438   */\n      and\n        /* \"#utility.yul\":16383:16403   */\n      swap2\n      dup2\n      add\n        /* \"#utility.yul\":16376:16439   */\n      swap2\n      swap1\n      swap2\n      mstore\n        /* \"#utility.yul\":15910:15913   */\n      0xe0\n        /* \"#utility.yul\":15895:15914   */\n      add\n      swap1\n        /* \"#utility.yul\":15728:16445   */\n      jump\n        /* \"NFT-Contracts/new/finalMarket_single.sol\":1140:1241  mapping(address => mapping(uint256 => mapping(address => uint256)))\r... */\n    tag_14:\n      callvalue\n      dup1\n      iszero\n      tag_83\n      jumpi\n      0x00\n      dup1\n      revert\n    tag_83:\n      pop\n      tag_67\n      tag_85\n      calldatasize\n      0x04\n      tag_86\n      jump\t// in\n    tag_85:\n      0x03\n      0x20\n      swap1\n      dup2\n      mstore\n      0x00\n      swap4\n      dup5\n      mstore\n      0x40\n      dup1\n      dup6\n      keccak256\n      dup3\n      mstore\n      swap3\n      dup5\n      mstore\n      dup3\n      dup5\n      keccak256\n      swap1\n      mstore\n      dup3\n      mstore\n      swap1\n      keccak256\n      sload\n      dup2\n      jump\n        /* \"NFT-Contracts/new/finalMarket_single.sol\":8494:8783  function Sell_AreveaToken(address _erc20_contract, address seller, uint256 _amount) public returns (bool){\r... */\n    tag_15:\n      callvalue\n      dup1\n      iszero\n      tag_89\n      jumpi\n      0x00\n      dup1\n      revert\n    tag_89:\n      pop\n      tag_28\n      tag_91\n      calldatasize\n      0x04\n      tag_30\n      jump\t// in\n    tag_91:\n      tag_92\n      jump\t// in\n        /* \"NFT-Contracts/new/finalMarket_single.sol\":16091:16832  function _cancelAuctionSale(address _nftContractAddress, uint256 _tokenId)\r... */\n    tag_16:\n      callvalue\n      dup1\n      iszero\n      tag_94\n      jumpi\n      0x00\n      dup1\n      revert\n    tag_94:\n      pop\n      tag_41\n      tag_96\n      calldatasize\n      0x04\n      tag_60\n      jump\t// in\n    tag_96:\n      tag_97\n      jump\t// in\n        /* \"NFT-Contracts/new/finalMarket_single.sol\":19088:19307  function getFixedSale(address _nftContractAddress, uint256 _tokenId)\r... */\n    tag_17:\n      callvalue\n      dup1\n      iszero\n      tag_98\n      jumpi\n      0x00\n      dup1\n      revert\n    tag_98:\n      pop\n      tag_99\n      tag_100\n      calldatasize\n      0x04\n      tag_60\n      jump\t// in\n    tag_100:\n      0x40\n      dup1\n      mload\n      0x80\n      dup1\n      dup3\n      add\n      dup4\n      mstore\n      0x00\n      dup1\n      dup4\n      mstore\n      0x20\n      dup1\n      dup5\n      add\n      dup3\n      swap1\n      mstore\n      dup4\n      dup6\n      add\n      dup3\n      swap1\n      mstore\n      0x60\n      swap4\n      dup5\n      add\n      dup3\n      swap1\n      mstore\n      sub(shl(0xa0, 0x01), 0x01)\n        /* \"NFT-Contracts/new/finalMarket_single.sol\":19248:19289  nftContractFixedSale[_nftContractAddress] */\n      swap7\n      dup8\n      and\n      dup3\n      mstore\n      dup2\n      dup2\n      mstore\n      dup5\n      dup3\n      keccak256\n        /* \"NFT-Contracts/new/finalMarket_single.sol\":19248:19299  nftContractFixedSale[_nftContractAddress][_tokenId] */\n      swap6\n      dup3\n      mstore\n      swap5\n      dup6\n      mstore\n      dup4\n      swap1\n      keccak256\n        /* \"NFT-Contracts/new/finalMarket_single.sol\":19241:19299  return nftContractFixedSale[_nftContractAddress][_tokenId] */\n      dup4\n      mload\n      swap2\n      dup3\n      add\n      dup5\n      mstore\n      dup1\n      sload\n      dup7\n      and\n      dup3\n      mstore\n      0x01\n      dup2\n      add\n      sload\n      dup7\n      and\n      swap5\n      dup3\n      add\n      swap5\n      swap1\n      swap5\n      mstore\n      0x02\n      dup5\n      add\n      sload\n      swap1\n      swap5\n      and\n      swap2\n      dup5\n      add\n      swap2\n      swap1\n      swap2\n      mstore\n      0x03\n      swap1\n      swap2\n      add\n      sload\n      swap1\n      dup3\n      add\n      mstore\n      swap1\n        /* \"NFT-Contracts/new/finalMarket_single.sol\":19088:19307  function getFixedSale(address _nftContractAddress, uint256 _tokenId)\r... */\n      jump\n    tag_99:\n      0x40\n      dup1\n      mload\n        /* \"#utility.yul\":16709:16722   */\n      dup3\n      mload\n      sub(shl(0xa0, 0x01), 0x01)\n        /* \"#utility.yul\":16705:16727   */\n      swap1\n      dup2\n      and\n        /* \"#utility.yul\":16687:16728   */\n      dup3\n      mstore\n        /* \"#utility.yul\":16788:16792   */\n      0x20\n        /* \"#utility.yul\":16776:16793   */\n      dup1\n      dup6\n      add\n        /* \"#utility.yul\":16770:16794   */\n      mload\n        /* \"#utility.yul\":16766:16799   */\n      dup3\n      and\n        /* \"#utility.yul\":16744:16764   */\n      swap1\n      dup4\n      add\n        /* \"#utility.yul\":16737:16800   */\n      mstore\n        /* \"#utility.yul\":16848:16865   */\n      dup4\n      dup4\n      add\n        /* \"#utility.yul\":16842:16866   */\n      mload\n        /* \"#utility.yul\":16838:16871   */\n      and\n        /* \"#utility.yul\":16816:16836   */\n      swap2\n      dup2\n      add\n        /* \"#utility.yul\":16809:16872   */\n      swap2\n      swap1\n      swap2\n      mstore\n        /* \"#utility.yul\":16928:16932   */\n      0x60\n        /* \"#utility.yul\":16916:16933   */\n      swap2\n      dup3\n      add\n        /* \"#utility.yul\":16910:16934   */\n      mload\n        /* \"#utility.yul\":16888:16908   */\n      swap2\n      dup2\n      add\n        /* \"#utility.yul\":16881:16935   */\n      swap2\n      swap1\n      swap2\n      mstore\n        /* \"#utility.yul\":16636:16639   */\n      0x80\n        /* \"#utility.yul\":16621:16640   */\n      add\n        /* \"NFT-Contracts/new/finalMarket_single.sol\":19088:19307  function getFixedSale(address _nftContractAddress, uint256 _tokenId)\r... */\n      tag_32\n        /* \"#utility.yul\":16450:16941   */\n      jump\n        /* \"NFT-Contracts/new/finalMarket_single.sol\":18973:19080  function getFixedSaleNFT() external view returns (SaleInfo[] memory) {\r... */\n    tag_18:\n      callvalue\n      dup1\n      iszero\n      tag_104\n      jumpi\n      0x00\n      dup1\n      revert\n    tag_104:\n      pop\n      tag_46\n      tag_106\n      jump\t// in\n        /* \"NFT-Contracts/new/finalMarket_single.sol\":11139:12278  function buyFromFixedSale(\r... */\n    tag_19:\n      tag_41\n      tag_109\n      calldatasize\n      0x04\n      tag_43\n      jump\t// in\n    tag_109:\n      tag_110\n      jump\t// in\n        /* \"NFT-Contracts/new/finalMarket_single.sol\":12313:13376  function createNftAuctionSale(\r... */\n    tag_20:\n      callvalue\n      dup1\n      iszero\n      tag_111\n      jumpi\n      0x00\n      dup1\n      revert\n    tag_111:\n      pop\n      tag_41\n      tag_113\n      calldatasize\n      0x04\n      tag_114\n      jump\t// in\n    tag_113:\n      tag_115\n      jump\t// in\n        /* \"NFT-Contracts/new/finalMarket_single.sol\":9959:10545  function cancelFixedsale(address _nftContractAddress, uint256 _tokenId)\r... */\n    tag_21:\n      callvalue\n      dup1\n      iszero\n      tag_116\n      jumpi\n      0x00\n      dup1\n      revert\n    tag_116:\n      pop\n      tag_41\n      tag_118\n      calldatasize\n      0x04\n      tag_60\n      jump\t// in\n    tag_118:\n      tag_119\n      jump\t// in\n        /* \"NFT-Contracts/new/finalMarket_single.sol\":8204:8488  function buyAreveaToken(address _erc20_contract, address _buyer, uint256 _amount) public returns (bool){\r... */\n    tag_31:\n        /* \"NFT-Contracts/new/finalMarket_single.sol\":8365:8460  IERC20(ERC20_contract).transferFrom(0x2258c5b9C82ff0Fa923756ED3FD2aCb5616dF57c,_buyer, _amount) */\n      mload(0x40)\n      shl(0xe0, 0x23b872dd)\n      dup2\n      mstore\n        /* \"NFT-Contracts/new/finalMarket_single.sol\":8302:8306  bool */\n      0x00\n      swap1\n        /* \"NFT-Contracts/new/finalMarket_single.sol\":8341:8356  _erc20_contract */\n      dup5\n      swap1\n      sub(shl(0xa0, 0x01), 0x01)\n        /* \"NFT-Contracts/new/finalMarket_single.sol\":8365:8400  IERC20(ERC20_contract).transferFrom */\n      dup3\n      and\n      swap1\n      0x23b872dd\n      swap1\n        /* \"NFT-Contracts/new/finalMarket_single.sol\":8365:8460  IERC20(ERC20_contract).transferFrom(0x2258c5b9C82ff0Fa923756ED3FD2aCb5616dF57c,_buyer, _amount) */\n      tag_121\n      swap1\n        /* \"NFT-Contracts/new/finalMarket_single.sol\":8401:8443  0x2258c5b9C82ff0Fa923756ED3FD2aCb5616dF57c */\n      0x2258c5b9c82ff0fa923756ed3fd2acb5616df57c\n      swap1\n        /* \"NFT-Contracts/new/finalMarket_single.sol\":8444:8450  _buyer */\n      dup9\n      swap1\n        /* \"NFT-Contracts/new/finalMarket_single.sol\":8452:8459  _amount */\n      dup9\n      swap1\n        /* \"NFT-Contracts/new/finalMarket_single.sol\":8365:8460  IERC20(ERC20_contract).transferFrom(0x2258c5b9C82ff0Fa923756ED3FD2aCb5616dF57c,_buyer, _amount) */\n      0x04\n      add\n      tag_122\n      jump\t// in\n    tag_121:\n      0x20\n      mload(0x40)\n      dup1\n      dup4\n      sub\n      dup2\n      0x00\n      dup8\n      dup1\n      extcodesize\n      iszero\n      dup1\n      iszero\n      tag_123\n      jumpi\n      0x00\n      dup1\n      revert\n    tag_123:\n      pop\n      gas\n      call\n      iszero\n      dup1\n      iszero\n      tag_125\n      jumpi\n      returndatasize\n      0x00\n      dup1\n      returndatacopy\n      revert(0x00, returndatasize)\n    tag_125:\n      pop\n      pop\n      pop\n      pop\n      mload(0x40)\n      returndatasize\n      not(0x1f)\n      0x1f\n      dup3\n      add\n      and\n      dup3\n      add\n      dup1\n      0x40\n      mstore\n      pop\n      dup2\n      add\n      swap1\n      tag_126\n      swap2\n      swap1\n      tag_127\n      jump\t// in\n    tag_126:\n      pop\n        /* \"NFT-Contracts/new/finalMarket_single.sol\":8474:8478  true */\n      0x01\n      swap6\n        /* \"NFT-Contracts/new/finalMarket_single.sol\":8204:8488  function buyAreveaToken(address _erc20_contract, address _buyer, uint256 _amount) public returns (bool){\r... */\n      swap5\n      pop\n      pop\n      pop\n      pop\n      pop\n      jump\t// out\n        /* \"NFT-Contracts/new/finalMarket_single.sol\":13384:14559  function makeBid(\r... */\n    tag_44:\n      sub(shl(0xa0, 0x01), 0x01)\n        /* \"NFT-Contracts/new/finalMarket_single.sol\":3856:3890  nftSaleStatus[_nftContractAddress] */\n      dup4\n      and\n      0x00\n      swap1\n      dup2\n      mstore\n        /* \"NFT-Contracts/new/finalMarket_single.sol\":3856:3869  nftSaleStatus */\n      0x02\n        /* \"NFT-Contracts/new/finalMarket_single.sol\":3856:3890  nftSaleStatus[_nftContractAddress] */\n      0x20\n      dup2\n      dup2\n      mstore\n      0x40\n      dup1\n      dup5\n      keccak256\n        /* \"NFT-Contracts/new/finalMarket_single.sol\":3856:3900  nftSaleStatus[_nftContractAddress][_tokenId] */\n      dup7\n      dup6\n      mstore\n      swap1\n      swap2\n      mstore\n      swap1\n      swap2\n      keccak256\n      sload\n        /* \"NFT-Contracts/new/finalMarket_single.sol\":13564:13583  _nftContractAddress */\n      dup5\n      swap2\n        /* \"NFT-Contracts/new/finalMarket_single.sol\":13585:13593  _tokenId */\n      dup5\n      swap2\n        /* \"NFT-Contracts/new/finalMarket_single.sol\":3856:3905  nftSaleStatus[_nftContractAddress][_tokenId] == 2 */\n      eq\n        /* \"NFT-Contracts/new/finalMarket_single.sol\":3834:3956  require(\r... */\n      tag_130\n      jumpi\n      mload(0x40)\n      shl(0xe5, 0x461bcd)\n      dup2\n      mstore\n      0x04\n      add\n      tag_131\n      swap1\n      tag_132\n      jump\t// in\n    tag_131:\n      mload(0x40)\n      dup1\n      swap2\n      sub\n      swap1\n      revert\n    tag_130:\n      sub(shl(0xa0, 0x01), 0x01)\n        /* \"NFT-Contracts/new/finalMarket_single.sol\":6073:6116  nftContractAuctionSale[_nftContractAddress] */\n      dup6\n      and\n      0x00\n      swap1\n      dup2\n      mstore\n        /* \"NFT-Contracts/new/finalMarket_single.sol\":6073:6095  nftContractAuctionSale */\n      0x01\n        /* \"NFT-Contracts/new/finalMarket_single.sol\":6073:6116  nftContractAuctionSale[_nftContractAddress] */\n      0x20\n      dup2\n      dup2\n      mstore\n      0x40\n      dup1\n      dup5\n      keccak256\n        /* \"NFT-Contracts/new/finalMarket_single.sol\":6073:6126  nftContractAuctionSale[_nftContractAddress][_tokenId] */\n      dup9\n      dup6\n      mstore\n      swap1\n      swap2\n      mstore\n      swap1\n      swap2\n      keccak256\n        /* \"NFT-Contracts/new/finalMarket_single.sol\":6073:6159  nftContractAuctionSale[_nftContractAddress][_tokenId]\r... */\n      add\n      sload\n        /* \"NFT-Contracts/new/finalMarket_single.sol\":13621:13640  _nftContractAddress */\n      dup6\n      swap1\n        /* \"NFT-Contracts/new/finalMarket_single.sol\":13642:13650  _tokenId */\n      dup6\n      swap1\n        /* \"NFT-Contracts/new/finalMarket_single.sol\":6038:6053  block.timestamp */\n      timestamp\n        /* \"NFT-Contracts/new/finalMarket_single.sol\":6038:6159  block.timestamp <\r... */\n      lt\n        /* \"NFT-Contracts/new/finalMarket_single.sol\":6016:6198  require(\r... */\n      tag_134\n      jumpi\n      mload(0x40)\n      shl(0xe5, 0x461bcd)\n      dup2\n      mstore\n      0x04\n      add\n      tag_131\n      swap1\n      tag_136\n      jump\t// in\n    tag_134:\n        /* \"NFT-Contracts/new/finalMarket_single.sol\":13682:13691  _bidPrice */\n      dup5\n        /* \"NFT-Contracts/new/finalMarket_single.sol\":8153:8154  0 */\n      0x00\n        /* \"NFT-Contracts/new/finalMarket_single.sol\":8144:8150  _price */\n      dup2\n        /* \"NFT-Contracts/new/finalMarket_single.sol\":8144:8154  _price > 0 */\n      gt\n        /* \"NFT-Contracts/new/finalMarket_single.sol\":8136:8176  require(_price > 0, \"Price cannot be 0\") */\n      tag_138\n      jumpi\n      mload(0x40)\n      shl(0xe5, 0x461bcd)\n      dup2\n      mstore\n      0x04\n      add\n      tag_131\n      swap1\n      tag_140\n      jump\t// in\n    tag_138:\n      sub(shl(0xa0, 0x01), 0x01)\n        /* \"NFT-Contracts/new/finalMarket_single.sol\":5310:5353  nftContractAuctionSale[_nftContractAddress] */\n      dup1\n      dup10\n      and\n        /* \"NFT-Contracts/new/finalMarket_single.sol\":5394:5395  0 */\n      0x00\n        /* \"NFT-Contracts/new/finalMarket_single.sol\":5310:5353  nftContractAuctionSale[_nftContractAddress] */\n      swap1\n      dup2\n      mstore\n        /* \"NFT-Contracts/new/finalMarket_single.sol\":5310:5332  nftContractAuctionSale */\n      0x01\n        /* \"NFT-Contracts/new/finalMarket_single.sol\":5310:5353  nftContractAuctionSale[_nftContractAddress] */\n      0x20\n      swap1\n      dup2\n      mstore\n      0x40\n      dup1\n      dup4\n      keccak256\n        /* \"NFT-Contracts/new/finalMarket_single.sol\":5310:5363  nftContractAuctionSale[_nftContractAddress][_tokenId] */\n      dup12\n      dup5\n      mstore\n      swap1\n      swap2\n      mstore\n      swap1\n      keccak256\n        /* \"NFT-Contracts/new/finalMarket_single.sol\":5310:5369  nftContractAuctionSale[_nftContractAddress][_tokenId].erc20 */\n      0x06\n      add\n      sload\n        /* \"NFT-Contracts/new/finalMarket_single.sol\":13746:13765  _nftContractAddress */\n      dup10\n      swap2\n        /* \"NFT-Contracts/new/finalMarket_single.sol\":13780:13788  _tokenId */\n      dup10\n      swap2\n        /* \"NFT-Contracts/new/finalMarket_single.sol\":13803:13812  msg.value */\n      callvalue\n      swap2\n        /* \"NFT-Contracts/new/finalMarket_single.sol\":13827:13836  _bidPrice */\n      dup11\n      swap2\n        /* \"NFT-Contracts/new/finalMarket_single.sol\":5310:5369  nftContractAuctionSale[_nftContractAddress][_tokenId].erc20 */\n      and\n        /* \"NFT-Contracts/new/finalMarket_single.sol\":5292:5903  if (\r... */\n      tag_142\n      jumpi\n      sub(shl(0xa0, 0x01), 0x01)\n        /* \"NFT-Contracts/new/finalMarket_single.sol\":5482:5525  nftContractAuctionSale[_nftContractAddress] */\n      dup5\n      and\n      0x00\n      swap1\n      dup2\n      mstore\n        /* \"NFT-Contracts/new/finalMarket_single.sol\":5482:5504  nftContractAuctionSale */\n      0x01\n        /* \"NFT-Contracts/new/finalMarket_single.sol\":5482:5525  nftContractAuctionSale[_nftContractAddress] */\n      0x20\n      swap1\n      dup2\n      mstore\n      0x40\n      dup1\n      dup4\n      keccak256\n        /* \"NFT-Contracts/new/finalMarket_single.sol\":5482:5535  nftContractAuctionSale[_nftContractAddress][_tokenId] */\n      dup7\n      dup5\n      mstore\n      swap1\n      swap2\n      mstore\n      swap1\n      keccak256\n        /* \"NFT-Contracts/new/finalMarket_single.sol\":5482:5575  nftContractAuctionSale[_nftContractAddress][_tokenId]\r... */\n      0x03\n      add\n      sload\n        /* \"NFT-Contracts/new/finalMarket_single.sol\":5449:5575  _bidPrice >\r... */\n      dup3\n      gt\n        /* \"NFT-Contracts/new/finalMarket_single.sol\":5423:5640  require(\r... */\n      tag_143\n      jumpi\n      mload(0x40)\n      shl(0xe5, 0x461bcd)\n      dup2\n      mstore\n      0x04\n      add\n      tag_131\n      swap1\n      tag_145\n      jump\t// in\n    tag_143:\n        /* \"NFT-Contracts/new/finalMarket_single.sol\":5292:5903  if (\r... */\n      jump(tag_147)\n    tag_142:\n      sub(shl(0xa0, 0x01), 0x01)\n        /* \"NFT-Contracts/new/finalMarket_single.sol\":5733:5776  nftContractAuctionSale[_nftContractAddress] */\n      dup5\n      and\n      0x00\n      swap1\n      dup2\n      mstore\n        /* \"NFT-Contracts/new/finalMarket_single.sol\":5733:5755  nftContractAuctionSale */\n      0x01\n        /* \"NFT-Contracts/new/finalMarket_single.sol\":5733:5776  nftContractAuctionSale[_nftContractAddress] */\n      0x20\n      swap1\n      dup2\n      mstore\n      0x40\n      dup1\n      dup4\n      keccak256\n        /* \"NFT-Contracts/new/finalMarket_single.sol\":5733:5786  nftContractAuctionSale[_nftContractAddress][_tokenId] */\n      dup7\n      dup5\n      mstore\n      swap1\n      swap2\n      mstore\n      swap1\n      keccak256\n        /* \"NFT-Contracts/new/finalMarket_single.sol\":5733:5826  nftContractAuctionSale[_nftContractAddress][_tokenId]\r... */\n      0x03\n      add\n      sload\n        /* \"NFT-Contracts/new/finalMarket_single.sol\":5699:5826  _bidPrice1 >\r... */\n      dup2\n      gt\n        /* \"NFT-Contracts/new/finalMarket_single.sol\":5673:5891  require(\r... */\n      tag_147\n      jumpi\n      mload(0x40)\n      shl(0xe5, 0x461bcd)\n      dup2\n      mstore\n      0x04\n      add\n      tag_131\n      swap1\n      tag_145\n      jump\t// in\n    tag_147:\n      sub(shl(0xa0, 0x01), 0x01)\n        /* \"NFT-Contracts/new/finalMarket_single.sol\":13882:13925  nftContractAuctionSale[_nftContractAddress] */\n      dup13\n      dup2\n      and\n        /* \"NFT-Contracts/new/finalMarket_single.sol\":13966:13967  0 */\n      0x00\n        /* \"NFT-Contracts/new/finalMarket_single.sol\":13882:13925  nftContractAuctionSale[_nftContractAddress] */\n      swap1\n      dup2\n      mstore\n        /* \"NFT-Contracts/new/finalMarket_single.sol\":13882:13904  nftContractAuctionSale */\n      0x01\n        /* \"NFT-Contracts/new/finalMarket_single.sol\":13882:13925  nftContractAuctionSale[_nftContractAddress] */\n      0x20\n      swap1\n      dup2\n      mstore\n      0x40\n      dup1\n      dup4\n      keccak256\n        /* \"NFT-Contracts/new/finalMarket_single.sol\":13882:13935  nftContractAuctionSale[_nftContractAddress][_tokenId] */\n      dup16\n      dup5\n      mstore\n      swap1\n      swap2\n      mstore\n      swap1\n      keccak256\n        /* \"NFT-Contracts/new/finalMarket_single.sol\":13882:13941  nftContractAuctionSale[_nftContractAddress][_tokenId].erc20 */\n      0x06\n      add\n      sload\n      and\n        /* \"NFT-Contracts/new/finalMarket_single.sol\":13882:13968  nftContractAuctionSale[_nftContractAddress][_tokenId].erc20 !=\r... */\n      iszero\n        /* \"NFT-Contracts/new/finalMarket_single.sol\":13864:14146  if (\r... */\n      tag_151\n      jumpi\n      sub(shl(0xa0, 0x01), 0x01)\n        /* \"NFT-Contracts/new/finalMarket_single.sol\":14060:14103  nftContractAuctionSale[_nftContractAddress] */\n      dup1\n      dup14\n      and\n      0x00\n      swap1\n      dup2\n      mstore\n        /* \"NFT-Contracts/new/finalMarket_single.sol\":14060:14082  nftContractAuctionSale */\n      0x01\n        /* \"NFT-Contracts/new/finalMarket_single.sol\":14060:14103  nftContractAuctionSale[_nftContractAddress] */\n      0x20\n      swap1\n      dup2\n      mstore\n      0x40\n      dup1\n      dup4\n      keccak256\n        /* \"NFT-Contracts/new/finalMarket_single.sol\":14060:14113  nftContractAuctionSale[_nftContractAddress][_tokenId] */\n      dup16\n      dup5\n      mstore\n      swap1\n      swap2\n      mstore\n      swap1\n      keccak256\n        /* \"NFT-Contracts/new/finalMarket_single.sol\":14060:14119  nftContractAuctionSale[_nftContractAddress][_tokenId].erc20 */\n      0x06\n      add\n      sload\n        /* \"NFT-Contracts/new/finalMarket_single.sol\":13995:14134  _bidAmountTransfer(\r... */\n      tag_151\n      swap2\n        /* \"NFT-Contracts/new/finalMarket_single.sol\":14032:14041  _bidPrice */\n      dup13\n      swap2\n        /* \"NFT-Contracts/new/finalMarket_single.sol\":14060:14119  nftContractAuctionSale[_nftContractAddress][_tokenId].erc20 */\n      and\n        /* \"NFT-Contracts/new/finalMarket_single.sol\":13995:14013  _bidAmountTransfer */\n      tag_152\n        /* \"NFT-Contracts/new/finalMarket_single.sol\":13995:14134  _bidAmountTransfer(\r... */\n      jump\t// in\n    tag_151:\n        /* \"NFT-Contracts/new/finalMarket_single.sol\":14242:14251  _bidPrice */\n      dup10\n        /* \"NFT-Contracts/new/finalMarket_single.sol\":14158:14180  nftContractAuctionSale */\n      0x01\n        /* \"NFT-Contracts/new/finalMarket_single.sol\":14158:14201  nftContractAuctionSale[_nftContractAddress] */\n      0x00\n        /* \"NFT-Contracts/new/finalMarket_single.sol\":14181:14200  _nftContractAddress */\n      dup15\n      sub(shl(0xa0, 0x01), 0x01)\n        /* \"NFT-Contracts/new/finalMarket_single.sol\":14158:14201  nftContractAuctionSale[_nftContractAddress] */\n      and\n      sub(shl(0xa0, 0x01), 0x01)\n      and\n      dup2\n      mstore\n      0x20\n      add\n      swap1\n      dup2\n      mstore\n      0x20\n      add\n      0x00\n      keccak256\n        /* \"NFT-Contracts/new/finalMarket_single.sol\":14158:14211  nftContractAuctionSale[_nftContractAddress][_tokenId] */\n      0x00\n        /* \"NFT-Contracts/new/finalMarket_single.sol\":14202:14210  _tokenId */\n      dup14\n        /* \"NFT-Contracts/new/finalMarket_single.sol\":14158:14211  nftContractAuctionSale[_nftContractAddress][_tokenId] */\n      dup2\n      mstore\n      0x20\n      add\n      swap1\n      dup2\n      mstore\n      0x20\n      add\n      0x00\n      keccak256\n        /* \"NFT-Contracts/new/finalMarket_single.sol\":14158:14239  nftContractAuctionSale[_nftContractAddress][_tokenId]\r... */\n      0x03\n      add\n        /* \"NFT-Contracts/new/finalMarket_single.sol\":14158:14251  nftContractAuctionSale[_nftContractAddress][_tokenId]\r... */\n      dup2\n      swap1\n      sstore\n      pop\n        /* \"NFT-Contracts/new/finalMarket_single.sol\":14349:14359  msg.sender */\n      caller\n        /* \"NFT-Contracts/new/finalMarket_single.sol\":14262:14284  nftContractAuctionSale */\n      0x01\n        /* \"NFT-Contracts/new/finalMarket_single.sol\":14262:14305  nftContractAuctionSale[_nftContractAddress] */\n      0x00\n        /* \"NFT-Contracts/new/finalMarket_single.sol\":14285:14304  _nftContractAddress */\n      dup15\n      sub(shl(0xa0, 0x01), 0x01)\n        /* \"NFT-Contracts/new/finalMarket_single.sol\":14262:14305  nftContractAuctionSale[_nftContractAddress] */\n      and\n      sub(shl(0xa0, 0x01), 0x01)\n      and\n      dup2\n      mstore\n      0x20\n      add\n      swap1\n      dup2\n      mstore\n      0x20\n      add\n      0x00\n      keccak256\n        /* \"NFT-Contracts/new/finalMarket_single.sol\":14262:14315  nftContractAuctionSale[_nftContractAddress][_tokenId] */\n      0x00\n        /* \"NFT-Contracts/new/finalMarket_single.sol\":14306:14314  _tokenId */\n      dup14\n        /* \"NFT-Contracts/new/finalMarket_single.sol\":14262:14315  nftContractAuctionSale[_nftContractAddress][_tokenId] */\n      dup2\n      mstore\n      0x20\n      add\n      swap1\n      dup2\n      mstore\n      0x20\n      add\n      0x00\n      keccak256\n        /* \"NFT-Contracts/new/finalMarket_single.sol\":14262:14346  nftContractAuctionSale[_nftContractAddress][_tokenId]\r... */\n      0x04\n      add\n      0x00\n        /* \"NFT-Contracts/new/finalMarket_single.sol\":14262:14359  nftContractAuctionSale[_nftContractAddress][_tokenId]\r... */\n      0x0100\n      exp\n      dup2\n      sload\n      dup2\n      sub(shl(0xa0, 0x01), 0x01)\n      mul\n      not\n      and\n      swap1\n      dup4\n      sub(shl(0xa0, 0x01), 0x01)\n      and\n      mul\n      or\n      swap1\n      sstore\n      pop\n        /* \"NFT-Contracts/new/finalMarket_single.sol\":14459:14468  _bidPrice */\n      dup10\n        /* \"NFT-Contracts/new/finalMarket_single.sol\":14372:14389  userBidPriceOnNFT */\n      0x03\n        /* \"NFT-Contracts/new/finalMarket_single.sol\":14372:14410  userBidPriceOnNFT[_nftContractAddress] */\n      0x00\n        /* \"NFT-Contracts/new/finalMarket_single.sol\":14390:14409  _nftContractAddress */\n      dup15\n      sub(shl(0xa0, 0x01), 0x01)\n        /* \"NFT-Contracts/new/finalMarket_single.sol\":14372:14410  userBidPriceOnNFT[_nftContractAddress] */\n      and\n      sub(shl(0xa0, 0x01), 0x01)\n      and\n      dup2\n      mstore\n      0x20\n      add\n      swap1\n      dup2\n      mstore\n      0x20\n      add\n      0x00\n      keccak256\n        /* \"NFT-Contracts/new/finalMarket_single.sol\":14372:14420  userBidPriceOnNFT[_nftContractAddress][_tokenId] */\n      0x00\n        /* \"NFT-Contracts/new/finalMarket_single.sol\":14411:14419  _tokenId */\n      dup14\n        /* \"NFT-Contracts/new/finalMarket_single.sol\":14372:14420  userBidPriceOnNFT[_nftContractAddress][_tokenId] */\n      dup2\n      mstore\n      0x20\n      add\n      swap1\n      dup2\n      mstore\n      0x20\n      add\n      0x00\n      keccak256\n        /* \"NFT-Contracts/new/finalMarket_single.sol\":14372:14456  userBidPriceOnNFT[_nftContractAddress][_tokenId][\r... */\n      0x00\n        /* \"NFT-Contracts/new/finalMarket_single.sol\":14435:14445  msg.sender */\n      caller\n      sub(shl(0xa0, 0x01), 0x01)\n        /* \"NFT-Contracts/new/finalMarket_single.sol\":14372:14456  userBidPriceOnNFT[_nftContractAddress][_tokenId][\r... */\n      and\n      sub(shl(0xa0, 0x01), 0x01)\n      and\n      dup2\n      mstore\n      0x20\n      add\n      swap1\n      dup2\n      mstore\n      0x20\n      add\n      0x00\n      keccak256\n        /* \"NFT-Contracts/new/finalMarket_single.sol\":14372:14468  userBidPriceOnNFT[_nftContractAddress][_tokenId][\r... */\n      dup2\n      swap1\n      sstore\n      pop\n        /* \"NFT-Contracts/new/finalMarket_single.sol\":14486:14551  NftBidPrice(_nftContractAddress, _tokenId, _bidPrice, msg.sender) */\n      0xd56cb6210c78740462007b728932c802bc41b205ed5c8a98ab95421eaf054b22\n        /* \"NFT-Contracts/new/finalMarket_single.sol\":14498:14517  _nftContractAddress */\n      dup13\n        /* \"NFT-Contracts/new/finalMarket_single.sol\":14519:14527  _tokenId */\n      dup13\n        /* \"NFT-Contracts/new/finalMarket_single.sol\":14529:14538  _bidPrice */\n      dup13\n        /* \"NFT-Contracts/new/finalMarket_single.sol\":14540:14550  msg.sender */\n      caller\n        /* \"NFT-Contracts/new/finalMarket_single.sol\":14486:14551  NftBidPrice(_nftContractAddress, _tokenId, _bidPrice, msg.sender) */\n      mload(0x40)\n      tag_153\n      swap5\n      swap4\n      swap3\n      swap2\n      swap1\n      sub(shl(0xa0, 0x01), 0x01)\n        /* \"#utility.yul\":8783:8798   */\n      swap5\n      dup6\n      and\n        /* \"#utility.yul\":8765:8799   */\n      dup2\n      mstore\n        /* \"#utility.yul\":8830:8832   */\n      0x20\n        /* \"#utility.yul\":8815:8833   */\n      dup2\n      add\n        /* \"#utility.yul\":8808:8842   */\n      swap4\n      swap1\n      swap4\n      mstore\n        /* \"#utility.yul\":8873:8875   */\n      0x40\n        /* \"#utility.yul\":8858:8876   */\n      dup4\n      add\n        /* \"#utility.yul\":8851:8885   */\n      swap2\n      swap1\n      swap2\n      mstore\n        /* \"#utility.yul\":8921:8936   */\n      swap1\n      swap2\n      and\n        /* \"#utility.yul\":8916:8918   */\n      0x60\n        /* \"#utility.yul\":8901:8919   */\n      dup3\n      add\n        /* \"#utility.yul\":8894:8937   */\n      mstore\n        /* \"#utility.yul\":8714:8717   */\n      0x80\n        /* \"#utility.yul\":8699:8718   */\n      add\n      swap1\n        /* \"#utility.yul\":8496:8943   */\n      jump\n        /* \"NFT-Contracts/new/finalMarket_single.sol\":14486:14551  NftBidPrice(_nftContractAddress, _tokenId, _bidPrice, msg.sender) */\n    tag_153:\n      mload(0x40)\n      dup1\n      swap2\n      sub\n      swap1\n      log1\n        /* \"NFT-Contracts/new/finalMarket_single.sol\":8187:8188  _ */\n      pop\n      pop\n      pop\n      pop\n        /* \"NFT-Contracts/new/finalMarket_single.sol\":6209:6210  _ */\n      pop\n        /* \"NFT-Contracts/new/finalMarket_single.sol\":3967:3968  _ */\n      pop\n      pop\n        /* \"NFT-Contracts/new/finalMarket_single.sol\":13384:14559  function makeBid(\r... */\n      pop\n      pop\n      pop\n      pop\n      pop\n      jump\t// out\n        /* \"NFT-Contracts/new/finalMarket_single.sol\":18854:18965  function getAuctionSaleNFT() external view returns (SaleInfo[] memory) {\r... */\n    tag_47:\n        /* \"NFT-Contracts/new/finalMarket_single.sol\":18906:18923  SaleInfo[] memory */\n      0x60\n        /* \"NFT-Contracts/new/finalMarket_single.sol\":18943:18957  auctionSaleNFT */\n      0x07\n        /* \"NFT-Contracts/new/finalMarket_single.sol\":18936:18957  return auctionSaleNFT */\n      dup1\n      sload\n      dup1\n      0x20\n      mul\n      0x20\n      add\n      mload(0x40)\n      swap1\n      dup2\n      add\n      0x40\n      mstore\n      dup1\n      swap3\n      swap2\n      swap1\n      dup2\n      dup2\n      mstore\n      0x20\n      add\n      0x00\n      swap1\n    tag_156:\n      dup3\n      dup3\n      lt\n      iszero\n      tag_157\n      jumpi\n      0x00\n      dup5\n      dup2\n      mstore\n      0x20\n      swap1\n      dup2\n      swap1\n      keccak256\n      0x40\n      dup1\n      mload\n      dup1\n      dup3\n      add\n      swap1\n      swap2\n      mstore\n      0x02\n      dup6\n      mul\n      swap1\n      swap2\n      add\n      dup1\n      sload\n      sub(shl(0xa0, 0x01), 0x01)\n      and\n      dup3\n      mstore\n      0x01\n      swap1\n      dup2\n      add\n      sload\n      dup3\n      dup5\n      add\n      mstore\n      swap1\n      dup4\n      mstore\n      swap1\n      swap3\n      add\n      swap2\n      add\n      jump(tag_156)\n    tag_157:\n      pop\n      pop\n      pop\n      pop\n      swap1\n      pop\n        /* \"NFT-Contracts/new/finalMarket_single.sol\":18854:18965  function getAuctionSaleNFT() external view returns (SaleInfo[] memory) {\r... */\n      swap1\n      jump\t// out\n        /* \"NFT-Contracts/new/finalMarket_single.sol\":14567:16083  function updateTheBidPrice(\r... */\n    tag_52:\n      sub(shl(0xa0, 0x01), 0x01)\n        /* \"NFT-Contracts/new/finalMarket_single.sol\":3856:3890  nftSaleStatus[_nftContractAddress] */\n      dup4\n      and\n      0x00\n      swap1\n      dup2\n      mstore\n        /* \"NFT-Contracts/new/finalMarket_single.sol\":3856:3869  nftSaleStatus */\n      0x02\n        /* \"NFT-Contracts/new/finalMarket_single.sol\":3856:3890  nftSaleStatus[_nftContractAddress] */\n      0x20\n      dup2\n      dup2\n      mstore\n      0x40\n      dup1\n      dup5\n      keccak256\n        /* \"NFT-Contracts/new/finalMarket_single.sol\":3856:3900  nftSaleStatus[_nftContractAddress][_tokenId] */\n      dup7\n      dup6\n      mstore\n      swap1\n      swap2\n      mstore\n      swap1\n      swap2\n      keccak256\n      sload\n        /* \"NFT-Contracts/new/finalMarket_single.sol\":14763:14782  _nftContractAddress */\n      dup5\n      swap2\n        /* \"NFT-Contracts/new/finalMarket_single.sol\":14784:14792  _tokenId */\n      dup5\n      swap2\n        /* \"NFT-Contracts/new/finalMarket_single.sol\":3856:3905  nftSaleStatus[_nftContractAddress][_tokenId] == 2 */\n      eq\n        /* \"NFT-Contracts/new/finalMarket_single.sol\":3834:3956  require(\r... */\n      tag_160\n      jumpi\n      mload(0x40)\n      shl(0xe5, 0x461bcd)\n      dup2\n      mstore\n      0x04\n      add\n      tag_131\n      swap1\n      tag_132\n      jump\t// in\n    tag_160:\n      sub(shl(0xa0, 0x01), 0x01)\n        /* \"NFT-Contracts/new/finalMarket_single.sol\":6073:6116  nftContractAuctionSale[_nftContractAddress] */\n      dup6\n      and\n      0x00\n      swap1\n      dup2\n      mstore\n        /* \"NFT-Contracts/new/finalMarket_single.sol\":6073:6095  nftContractAuctionSale */\n      0x01\n        /* \"NFT-Contracts/new/finalMarket_single.sol\":6073:6116  nftContractAuctionSale[_nftContractAddress] */\n      0x20\n      dup2\n      dup2\n      mstore\n      0x40\n      dup1\n      dup5\n      keccak256\n        /* \"NFT-Contracts/new/finalMarket_single.sol\":6073:6126  nftContractAuctionSale[_nftContractAddress][_tokenId] */\n      dup9\n      dup6\n      mstore\n      swap1\n      swap2\n      mstore\n      swap1\n      swap2\n      keccak256\n        /* \"NFT-Contracts/new/finalMarket_single.sol\":6073:6159  nftContractAuctionSale[_nftContractAddress][_tokenId]\r... */\n      add\n      sload\n        /* \"NFT-Contracts/new/finalMarket_single.sol\":14820:14839  _nftContractAddress */\n      dup6\n      swap1\n        /* \"NFT-Contracts/new/finalMarket_single.sol\":14841:14849  _tokenId */\n      dup6\n      swap1\n        /* \"NFT-Contracts/new/finalMarket_single.sol\":6038:6053  block.timestamp */\n      timestamp\n        /* \"NFT-Contracts/new/finalMarket_single.sol\":6038:6159  block.timestamp <\r... */\n      lt\n        /* \"NFT-Contracts/new/finalMarket_single.sol\":6016:6198  require(\r... */\n      tag_163\n      jumpi\n      mload(0x40)\n      shl(0xe5, 0x461bcd)\n      dup2\n      mstore\n      0x04\n      add\n      tag_131\n      swap1\n      tag_136\n      jump\t// in\n    tag_163:\n        /* \"NFT-Contracts/new/finalMarket_single.sol\":14881:14890  msg.value */\n      callvalue\n        /* \"NFT-Contracts/new/finalMarket_single.sol\":8153:8154  0 */\n      0x00\n        /* \"NFT-Contracts/new/finalMarket_single.sol\":8144:8150  _price */\n      dup2\n        /* \"NFT-Contracts/new/finalMarket_single.sol\":8144:8154  _price > 0 */\n      gt\n        /* \"NFT-Contracts/new/finalMarket_single.sol\":8136:8176  require(_price > 0, \"Price cannot be 0\") */\n      tag_166\n      jumpi\n      mload(0x40)\n      shl(0xe5, 0x461bcd)\n      dup2\n      mstore\n      0x04\n      add\n      tag_131\n      swap1\n      tag_140\n      jump\t// in\n    tag_166:\n      sub(shl(0xa0, 0x01), 0x01)\n        /* \"NFT-Contracts/new/finalMarket_single.sol\":6768:6811  nftContractAuctionSale[_nftContractAddress] */\n      dup1\n      dup10\n      and\n        /* \"NFT-Contracts/new/finalMarket_single.sol\":6717:6739  uint256 _finalBidPrice */\n      0x00\n        /* \"NFT-Contracts/new/finalMarket_single.sol\":6768:6811  nftContractAuctionSale[_nftContractAddress] */\n      swap1\n      dup2\n      mstore\n        /* \"NFT-Contracts/new/finalMarket_single.sol\":6768:6790  nftContractAuctionSale */\n      0x01\n        /* \"NFT-Contracts/new/finalMarket_single.sol\":6768:6811  nftContractAuctionSale[_nftContractAddress] */\n      0x20\n      swap1\n      dup2\n      mstore\n      0x40\n      dup1\n      dup4\n      keccak256\n        /* \"NFT-Contracts/new/finalMarket_single.sol\":6768:6821  nftContractAuctionSale[_nftContractAddress][_tokenId] */\n      dup12\n      dup5\n      mstore\n      swap1\n      swap2\n      mstore\n      dup2\n      keccak256\n        /* \"NFT-Contracts/new/finalMarket_single.sol\":6768:6827  nftContractAuctionSale[_nftContractAddress][_tokenId].erc20 */\n      0x06\n      add\n      sload\n        /* \"NFT-Contracts/new/finalMarket_single.sol\":14946:14965  _nftContractAddress */\n      dup11\n      swap3\n        /* \"NFT-Contracts/new/finalMarket_single.sol\":14980:14988  _tokenId */\n      dup11\n      swap3\n        /* \"NFT-Contracts/new/finalMarket_single.sol\":15003:15012  msg.value */\n      callvalue\n      swap3\n        /* \"NFT-Contracts/new/finalMarket_single.sol\":15027:15042  _updateBidPrice */\n      dup12\n      swap3\n        /* \"NFT-Contracts/new/finalMarket_single.sol\":6768:6827  nftContractAuctionSale[_nftContractAddress][_tokenId].erc20 */\n      and\n        /* \"NFT-Contracts/new/finalMarket_single.sol\":6750:7187  if (\r... */\n      tag_169\n      jumpi\n      sub(shl(0xa0, 0x01), 0x01)\n        /* \"NFT-Contracts/new/finalMarket_single.sol\":6898:6936  userBidPriceOnNFT[_nftContractAddress] */\n      dup6\n      and\n      0x00\n      swap1\n      dup2\n      mstore\n        /* \"NFT-Contracts/new/finalMarket_single.sol\":6898:6915  userBidPriceOnNFT */\n      0x03\n        /* \"NFT-Contracts/new/finalMarket_single.sol\":6898:6936  userBidPriceOnNFT[_nftContractAddress] */\n      0x20\n      swap1\n      dup2\n      mstore\n      0x40\n      dup1\n      dup4\n      keccak256\n        /* \"NFT-Contracts/new/finalMarket_single.sol\":6898:6946  userBidPriceOnNFT[_nftContractAddress][_tokenId] */\n      dup8\n      dup5\n      mstore\n      dup3\n      mstore\n      dup1\n      dup4\n      keccak256\n        /* \"NFT-Contracts/new/finalMarket_single.sol\":6965:6975  msg.sender */\n      caller\n        /* \"NFT-Contracts/new/finalMarket_single.sol\":6898:6990  userBidPriceOnNFT[_nftContractAddress][_tokenId][\r... */\n      dup5\n      mstore\n      swap1\n      swap2\n      mstore\n      swap1\n      keccak256\n      sload\n        /* \"NFT-Contracts/new/finalMarket_single.sol\":6898:7011  userBidPriceOnNFT[_nftContractAddress][_tokenId][\r... */\n      tag_170\n      swap1\n        /* \"NFT-Contracts/new/finalMarket_single.sol\":6995:7010  _updateBidPrice */\n      dup5\n        /* \"NFT-Contracts/new/finalMarket_single.sol\":6898:6994  userBidPriceOnNFT[_nftContractAddress][_tokenId][\r... */\n      tag_171\n        /* \"NFT-Contracts/new/finalMarket_single.sol\":6898:7011  userBidPriceOnNFT[_nftContractAddress][_tokenId][\r... */\n      jump\t// in\n    tag_170:\n        /* \"NFT-Contracts/new/finalMarket_single.sol\":6881:7011  _finalBidPrice = userBidPriceOnNFT[_nftContractAddress][_tokenId][\r... */\n      swap1\n      pop\n        /* \"NFT-Contracts/new/finalMarket_single.sol\":6750:7187  if (\r... */\n      jump(tag_172)\n    tag_169:\n      sub(shl(0xa0, 0x01), 0x01)\n        /* \"NFT-Contracts/new/finalMarket_single.sol\":7061:7099  userBidPriceOnNFT[_nftContractAddress] */\n      dup6\n      and\n      0x00\n      swap1\n      dup2\n      mstore\n        /* \"NFT-Contracts/new/finalMarket_single.sol\":7061:7078  userBidPriceOnNFT */\n      0x03\n        /* \"NFT-Contracts/new/finalMarket_single.sol\":7061:7099  userBidPriceOnNFT[_nftContractAddress] */\n      0x20\n      swap1\n      dup2\n      mstore\n      0x40\n      dup1\n      dup4\n      keccak256\n        /* \"NFT-Contracts/new/finalMarket_single.sol\":7061:7109  userBidPriceOnNFT[_nftContractAddress][_tokenId] */\n      dup8\n      dup5\n      mstore\n      dup3\n      mstore\n      dup1\n      dup4\n      keccak256\n        /* \"NFT-Contracts/new/finalMarket_single.sol\":7128:7138  msg.sender */\n      caller\n        /* \"NFT-Contracts/new/finalMarket_single.sol\":7061:7153  userBidPriceOnNFT[_nftContractAddress][_tokenId][\r... */\n      dup5\n      mstore\n      swap1\n      swap2\n      mstore\n      swap1\n      keccak256\n      sload\n        /* \"NFT-Contracts/new/finalMarket_single.sol\":7061:7175  userBidPriceOnNFT[_nftContractAddress][_tokenId][\r... */\n      tag_173\n      swap1\n        /* \"NFT-Contracts/new/finalMarket_single.sol\":7158:7174  _updateBidPrice1 */\n      dup4\n        /* \"NFT-Contracts/new/finalMarket_single.sol\":7061:7157  userBidPriceOnNFT[_nftContractAddress][_tokenId][\r... */\n      tag_171\n        /* \"NFT-Contracts/new/finalMarket_single.sol\":7061:7175  userBidPriceOnNFT[_nftContractAddress][_tokenId][\r... */\n      jump\t// in\n    tag_173:\n        /* \"NFT-Contracts/new/finalMarket_single.sol\":7044:7175  _finalBidPrice = userBidPriceOnNFT[_nftContractAddress][_tokenId][\r... */\n      swap1\n      pop\n        /* \"NFT-Contracts/new/finalMarket_single.sol\":6750:7187  if (\r... */\n    tag_172:\n      sub(shl(0xa0, 0x01), 0x01)\n        /* \"NFT-Contracts/new/finalMarket_single.sol\":7253:7296  nftContractAuctionSale[_nftContractAddress] */\n      dup6\n      and\n      0x00\n      swap1\n      dup2\n      mstore\n        /* \"NFT-Contracts/new/finalMarket_single.sol\":7253:7275  nftContractAuctionSale */\n      0x01\n        /* \"NFT-Contracts/new/finalMarket_single.sol\":7253:7296  nftContractAuctionSale[_nftContractAddress] */\n      0x20\n      swap1\n      dup2\n      mstore\n      0x40\n      dup1\n      dup4\n      keccak256\n        /* \"NFT-Contracts/new/finalMarket_single.sol\":7253:7306  nftContractAuctionSale[_nftContractAddress][_tokenId] */\n      dup8\n      dup5\n      mstore\n      swap1\n      swap2\n      mstore\n      swap1\n      keccak256\n        /* \"NFT-Contracts/new/finalMarket_single.sol\":7253:7342  nftContractAuctionSale[_nftContractAddress][_tokenId]\r... */\n      0x03\n      add\n      sload\n        /* \"NFT-Contracts/new/finalMarket_single.sol\":7219:7342  _finalBidPrice >\r... */\n      dup2\n      gt\n        /* \"NFT-Contracts/new/finalMarket_single.sol\":7197:7399  require(\r... */\n      tag_174\n      jumpi\n      mload(0x40)\n      shl(0xe5, 0x461bcd)\n      dup2\n      mstore\n      0x04\n      add\n      tag_131\n      swap1\n      tag_145\n      jump\t// in\n    tag_174:\n      sub(shl(0xa0, 0x01), 0x01)\n        /* \"NFT-Contracts/new/finalMarket_single.sol\":15190:15227  userBidPriceOnNFT[nftContractAddress] */\n      dup14\n      and\n        /* \"NFT-Contracts/new/finalMarket_single.sol\":15070:15096  address nftContractAddress */\n      0x00\n        /* \"NFT-Contracts/new/finalMarket_single.sol\":15190:15227  userBidPriceOnNFT[nftContractAddress] */\n      swap1\n      dup2\n      mstore\n        /* \"NFT-Contracts/new/finalMarket_single.sol\":15190:15207  userBidPriceOnNFT */\n      0x03\n        /* \"NFT-Contracts/new/finalMarket_single.sol\":15190:15227  userBidPriceOnNFT[nftContractAddress] */\n      0x20\n      swap1\n      dup2\n      mstore\n      0x40\n      dup1\n      dup4\n      keccak256\n        /* \"NFT-Contracts/new/finalMarket_single.sol\":15190:15236  userBidPriceOnNFT[nftContractAddress][tokenId] */\n      dup16\n      dup5\n      mstore\n      dup3\n      mstore\n      dup1\n      dup4\n      keccak256\n        /* \"NFT-Contracts/new/finalMarket_single.sol\":15251:15261  msg.sender */\n      caller\n        /* \"NFT-Contracts/new/finalMarket_single.sol\":15190:15272  userBidPriceOnNFT[nftContractAddress][tokenId][\r... */\n      dup5\n      mstore\n      swap1\n      swap2\n      mstore\n      dup2\n      keccak256\n      sload\n        /* \"NFT-Contracts/new/finalMarket_single.sol\":15099:15118  _nftContractAddress */\n      dup15\n      swap2\n        /* \"NFT-Contracts/new/finalMarket_single.sol\":15147:15155  _tokenId */\n      dup15\n      swap2\n        /* \"NFT-Contracts/new/finalMarket_single.sol\":15190:15293  userBidPriceOnNFT[nftContractAddress][tokenId][\r... */\n      tag_177\n      swap1\n        /* \"NFT-Contracts/new/finalMarket_single.sol\":15277:15292  _updateBidPrice */\n      dup16\n        /* \"NFT-Contracts/new/finalMarket_single.sol\":15190:15276  userBidPriceOnNFT[nftContractAddress][tokenId][\r... */\n      tag_171\n        /* \"NFT-Contracts/new/finalMarket_single.sol\":15190:15293  userBidPriceOnNFT[nftContractAddress][tokenId][\r... */\n      jump\t// in\n    tag_177:\n      sub(shl(0xa0, 0x01), 0x01)\n        /* \"NFT-Contracts/new/finalMarket_single.sol\":15324:15366  nftContractAuctionSale[nftContractAddress] */\n      dup5\n      dup2\n      and\n        /* \"NFT-Contracts/new/finalMarket_single.sol\":15406:15407  0 */\n      0x00\n        /* \"NFT-Contracts/new/finalMarket_single.sol\":15324:15366  nftContractAuctionSale[nftContractAddress] */\n      swap1\n      dup2\n      mstore\n        /* \"NFT-Contracts/new/finalMarket_single.sol\":15324:15346  nftContractAuctionSale */\n      0x01\n        /* \"NFT-Contracts/new/finalMarket_single.sol\":15324:15366  nftContractAuctionSale[nftContractAddress] */\n      0x20\n      swap1\n      dup2\n      mstore\n      0x40\n      dup1\n      dup4\n      keccak256\n        /* \"NFT-Contracts/new/finalMarket_single.sol\":15324:15375  nftContractAuctionSale[nftContractAddress][tokenId] */\n      dup8\n      dup5\n      mstore\n      swap1\n      swap2\n      mstore\n      swap1\n      keccak256\n        /* \"NFT-Contracts/new/finalMarket_single.sol\":15324:15381  nftContractAuctionSale[nftContractAddress][tokenId].erc20 */\n      0x06\n      add\n      sload\n        /* \"NFT-Contracts/new/finalMarket_single.sol\":15166:15293  uint256 finalBidPrice = userBidPriceOnNFT[nftContractAddress][tokenId][\r... */\n      swap2\n      swap3\n      pop\n        /* \"NFT-Contracts/new/finalMarket_single.sol\":15324:15381  nftContractAuctionSale[nftContractAddress][tokenId].erc20 */\n      and\n        /* \"NFT-Contracts/new/finalMarket_single.sol\":15324:15408  nftContractAuctionSale[nftContractAddress][tokenId].erc20 !=\r... */\n      iszero\n        /* \"NFT-Contracts/new/finalMarket_single.sol\":15306:15590  if (\r... */\n      tag_179\n      jumpi\n        /* \"NFT-Contracts/new/finalMarket_single.sol\":15435:15578  _bidAmountTransfer(\r... */\n      tag_179\n        /* \"NFT-Contracts/new/finalMarket_single.sol\":15472:15487  _updateBidPrice */\n      dup15\n        /* \"NFT-Contracts/new/finalMarket_single.sol\":15506:15528  nftContractAuctionSale */\n      0x01\n        /* \"NFT-Contracts/new/finalMarket_single.sol\":15506:15548  nftContractAuctionSale[nftContractAddress] */\n      0x00\n        /* \"NFT-Contracts/new/finalMarket_single.sol\":15529:15547  nftContractAddress */\n      dup7\n      sub(shl(0xa0, 0x01), 0x01)\n        /* \"NFT-Contracts/new/finalMarket_single.sol\":15506:15548  nftContractAuctionSale[nftContractAddress] */\n      and\n      sub(shl(0xa0, 0x01), 0x01)\n      and\n      dup2\n      mstore\n      0x20\n      add\n      swap1\n      dup2\n      mstore\n      0x20\n      add\n      0x00\n      keccak256\n        /* \"NFT-Contracts/new/finalMarket_single.sol\":15506:15557  nftContractAuctionSale[nftContractAddress][tokenId] */\n      0x00\n        /* \"NFT-Contracts/new/finalMarket_single.sol\":15549:15556  tokenId */\n      dup6\n        /* \"NFT-Contracts/new/finalMarket_single.sol\":15506:15557  nftContractAuctionSale[nftContractAddress][tokenId] */\n      dup2\n      mstore\n      0x20\n      add\n      swap1\n      dup2\n      mstore\n      0x20\n      add\n      0x00\n      keccak256\n        /* \"NFT-Contracts/new/finalMarket_single.sol\":15506:15563  nftContractAuctionSale[nftContractAddress][tokenId].erc20 */\n      0x06\n      add\n      0x00\n      swap1\n      sload\n      swap1\n      0x0100\n      exp\n      swap1\n      div\n      sub(shl(0xa0, 0x01), 0x01)\n      and\n        /* \"NFT-Contracts/new/finalMarket_single.sol\":15435:15453  _bidAmountTransfer */\n      tag_152\n        /* \"NFT-Contracts/new/finalMarket_single.sol\":15435:15578  _bidAmountTransfer(\r... */\n      jump\t// in\n    tag_179:\n      sub(shl(0xa0, 0x01), 0x01)\n        /* \"NFT-Contracts/new/finalMarket_single.sol\":15602:15644  nftContractAuctionSale[nftContractAddress] */\n      dup4\n      and\n      0x00\n      dup2\n      dup2\n      mstore\n        /* \"NFT-Contracts/new/finalMarket_single.sol\":15602:15624  nftContractAuctionSale */\n      0x01\n        /* \"NFT-Contracts/new/finalMarket_single.sol\":15602:15644  nftContractAuctionSale[nftContractAddress] */\n      0x20\n      swap1\n      dup2\n      mstore\n      0x40\n      dup1\n      dup4\n      keccak256\n        /* \"NFT-Contracts/new/finalMarket_single.sol\":15602:15653  nftContractAuctionSale[nftContractAddress][tokenId] */\n      dup7\n      dup5\n      mstore\n      dup3\n      mstore\n      dup1\n      dup4\n      keccak256\n        /* \"NFT-Contracts/new/finalMarket_single.sol\":15602:15681  nftContractAuctionSale[nftContractAddress][tokenId]\r... */\n      0x03\n      dup1\n      dup3\n      add\n        /* \"NFT-Contracts/new/finalMarket_single.sol\":15602:15697  nftContractAuctionSale[nftContractAddress][tokenId]\r... */\n      dup8\n      swap1\n      sstore\n        /* \"NFT-Contracts/new/finalMarket_single.sol\":15708:15790  nftContractAuctionSale[nftContractAddress][tokenId]\r... */\n      0x04\n      swap1\n      swap2\n      add\n        /* \"NFT-Contracts/new/finalMarket_single.sol\":15708:15803  nftContractAuctionSale[nftContractAddress][tokenId]\r... */\n      dup1\n      sload\n      not(sub(shl(0xa0, 0x01), 0x01))\n      and\n        /* \"NFT-Contracts/new/finalMarket_single.sol\":15793:15803  msg.sender */\n      caller\n        /* \"NFT-Contracts/new/finalMarket_single.sol\":15708:15803  nftContractAuctionSale[nftContractAddress][tokenId]\r... */\n      swap1\n      dup2\n      or\n      swap1\n      swap2\n      sstore\n        /* \"NFT-Contracts/new/finalMarket_single.sol\":15816:15853  userBidPriceOnNFT[nftContractAddress] */\n      dup6\n      dup6\n      mstore\n      swap1\n      dup4\n      mstore\n      dup2\n      dup5\n      keccak256\n        /* \"NFT-Contracts/new/finalMarket_single.sol\":15816:15862  userBidPriceOnNFT[nftContractAddress][tokenId] */\n      dup8\n      dup6\n      mstore\n      dup4\n      mstore\n      dup2\n      dup5\n      keccak256\n        /* \"NFT-Contracts/new/finalMarket_single.sol\":15816:15898  userBidPriceOnNFT[nftContractAddress][tokenId][\r... */\n      dup2\n      dup6\n      mstore\n      dup4\n      mstore\n      swap3\n      dup2\n      swap1\n      keccak256\n        /* \"NFT-Contracts/new/finalMarket_single.sol\":15816:15914  userBidPriceOnNFT[nftContractAddress][tokenId][\r... */\n      dup6\n      swap1\n      sstore\n        /* \"NFT-Contracts/new/finalMarket_single.sol\":15932:16075  NftAuctionBidPriceUpdate(\r... */\n      dup1\n      mload\n        /* \"#utility.yul\":8765:8799   */\n      swap4\n      dup5\n      mstore\n        /* \"#utility.yul\":8815:8833   */\n      swap1\n      dup4\n      add\n        /* \"#utility.yul\":8808:8842   */\n      dup6\n      swap1\n      mstore\n        /* \"#utility.yul\":8858:8876   */\n      dup3\n      add\n        /* \"#utility.yul\":8851:8885   */\n      dup4\n      swap1\n      mstore\n        /* \"#utility.yul\":8916:8918   */\n      0x60\n        /* \"#utility.yul\":8901:8919   */\n      dup3\n      add\n        /* \"#utility.yul\":8894:8937   */\n      mstore\n        /* \"NFT-Contracts/new/finalMarket_single.sol\":15932:16075  NftAuctionBidPriceUpdate(\r... */\n      0x907cdadc7c1a8abcdd80cdd85eb18377631e4f413fb6397a8252ff7b358ac6cb\n      swap1\n        /* \"#utility.yul\":8714:8717   */\n      0x80\n        /* \"#utility.yul\":8699:8718   */\n      add\n        /* \"NFT-Contracts/new/finalMarket_single.sol\":15932:16075  NftAuctionBidPriceUpdate(\r... */\n      mload(0x40)\n      dup1\n      swap2\n      sub\n      swap1\n      log1\n        /* \"NFT-Contracts/new/finalMarket_single.sol\":15059:16083  {\r... */\n      pop\n      pop\n      pop\n        /* \"NFT-Contracts/new/finalMarket_single.sol\":6706:7419  {\r... */\n      pop\n        /* \"NFT-Contracts/new/finalMarket_single.sol\":8187:8188  _ */\n      pop\n      pop\n      pop\n      pop\n        /* \"NFT-Contracts/new/finalMarket_single.sol\":6209:6210  _ */\n      pop\n        /* \"NFT-Contracts/new/finalMarket_single.sol\":3967:3968  _ */\n      pop\n      pop\n        /* \"NFT-Contracts/new/finalMarket_single.sol\":14567:16083  function updateTheBidPrice(\r... */\n      pop\n      pop\n      pop\n      pop\n      pop\n      jump\t// out\n        /* \"NFT-Contracts/new/finalMarket_single.sol\":10553:11131  function updateFixedSalePrice(\r... */\n    tag_56:\n      sub(shl(0xa0, 0x01), 0x01)\n        /* \"NFT-Contracts/new/finalMarket_single.sol\":3622:3656  nftSaleStatus[_nftContractAddress] */\n      dup4\n      and\n      0x00\n      swap1\n      dup2\n      mstore\n        /* \"NFT-Contracts/new/finalMarket_single.sol\":3622:3635  nftSaleStatus */\n      0x02\n        /* \"NFT-Contracts/new/finalMarket_single.sol\":3622:3656  nftSaleStatus[_nftContractAddress] */\n      0x20\n      swap1\n      dup2\n      mstore\n      0x40\n      dup1\n      dup4\n      keccak256\n        /* \"NFT-Contracts/new/finalMarket_single.sol\":3622:3666  nftSaleStatus[_nftContractAddress][_tokenId] */\n      dup6\n      dup5\n      mstore\n      swap1\n      swap2\n      mstore\n      swap1\n      keccak256\n      sload\n        /* \"NFT-Contracts/new/finalMarket_single.sol\":10734:10753  _nftContractAddress */\n      dup4\n      swap1\n        /* \"NFT-Contracts/new/finalMarket_single.sol\":10755:10763  _tokenId */\n      dup4\n      swap1\n        /* \"NFT-Contracts/new/finalMarket_single.sol\":3670:3671  1 */\n      0x01\n        /* \"NFT-Contracts/new/finalMarket_single.sol\":3622:3671  nftSaleStatus[_nftContractAddress][_tokenId] == 1 */\n      eq\n        /* \"NFT-Contracts/new/finalMarket_single.sol\":3600:3720  require(\r... */\n      tag_182\n      jumpi\n      mload(0x40)\n      shl(0xe5, 0x461bcd)\n      dup2\n      mstore\n      0x04\n      add\n      tag_131\n      swap1\n      tag_184\n      jump\t// in\n    tag_182:\n      sub(shl(0xa0, 0x01), 0x01)\n        /* \"NFT-Contracts/new/finalMarket_single.sol\":4368:4409  nftContractFixedSale[_nftContractAddress] */\n      dup6\n      dup2\n      and\n        /* \"NFT-Contracts/new/finalMarket_single.sol\":4368:4388  nftContractFixedSale */\n      0x00\n        /* \"NFT-Contracts/new/finalMarket_single.sol\":4368:4409  nftContractFixedSale[_nftContractAddress] */\n      swap1\n      dup2\n      mstore\n      0x20\n      dup2\n      dup2\n      mstore\n      0x40\n      dup1\n      dup4\n      keccak256\n        /* \"NFT-Contracts/new/finalMarket_single.sol\":4368:4419  nftContractFixedSale[_nftContractAddress][_tokenId] */\n      dup9\n      dup5\n      mstore\n      swap1\n      swap2\n      mstore\n      swap1\n      keccak256\n        /* \"NFT-Contracts/new/finalMarket_single.sol\":4368:4429  nftContractFixedSale[_nftContractAddress][_tokenId].nftSeller */\n      sload\n        /* \"NFT-Contracts/new/finalMarket_single.sol\":4368:4409  nftContractFixedSale[_nftContractAddress] */\n      dup7\n      swap2\n        /* \"NFT-Contracts/new/finalMarket_single.sol\":4368:4419  nftContractFixedSale[_nftContractAddress][_tokenId] */\n      dup7\n      swap2\n        /* \"NFT-Contracts/new/finalMarket_single.sol\":4368:4429  nftContractFixedSale[_nftContractAddress][_tokenId].nftSeller */\n      and\n        /* \"NFT-Contracts/new/finalMarket_single.sol\":4337:4347  msg.sender */\n      caller\n        /* \"NFT-Contracts/new/finalMarket_single.sol\":4337:4429  msg.sender ==\r... */\n      eq\n        /* \"NFT-Contracts/new/finalMarket_single.sol\":4315:4478  require(\r... */\n      tag_186\n      jumpi\n      mload(0x40)\n      shl(0xe5, 0x461bcd)\n      dup2\n      mstore\n      0x04\n      add\n      tag_131\n      swap1\n      tag_188\n      jump\t// in\n    tag_186:\n        /* \"NFT-Contracts/new/finalMarket_single.sol\":10854:10870  _updateSalePrice */\n      dup5\n        /* \"NFT-Contracts/new/finalMarket_single.sol\":8153:8154  0 */\n      0x00\n        /* \"NFT-Contracts/new/finalMarket_single.sol\":8144:8150  _price */\n      dup2\n        /* \"NFT-Contracts/new/finalMarket_single.sol\":8144:8154  _price > 0 */\n      gt\n        /* \"NFT-Contracts/new/finalMarket_single.sol\":8136:8176  require(_price > 0, \"Price cannot be 0\") */\n      tag_190\n      jumpi\n      mload(0x40)\n      shl(0xe5, 0x461bcd)\n      dup2\n      mstore\n      0x04\n      add\n      tag_131\n      swap1\n      tag_140\n      jump\t// in\n    tag_190:\n      sub(shl(0xa0, 0x01), 0x01)\n        /* \"NFT-Contracts/new/finalMarket_single.sol\":10888:10929  nftContractFixedSale[_nftContractAddress] */\n      dup9\n      and\n        /* \"NFT-Contracts/new/finalMarket_single.sol\":10888:10908  nftContractFixedSale */\n      0x00\n        /* \"NFT-Contracts/new/finalMarket_single.sol\":10888:10929  nftContractFixedSale[_nftContractAddress] */\n      dup2\n      dup2\n      mstore\n      0x20\n      dup2\n      dup2\n      mstore\n      0x40\n      dup1\n      dup4\n      keccak256\n        /* \"NFT-Contracts/new/finalMarket_single.sol\":10888:10939  nftContractFixedSale[_nftContractAddress][_tokenId] */\n      dup12\n      dup5\n      mstore\n      dup3\n      mstore\n      swap2\n      dup3\n      swap1\n      keccak256\n        /* \"NFT-Contracts/new/finalMarket_single.sol\":10888:10963  nftContractFixedSale[_nftContractAddress][_tokenId]\r... */\n      0x03\n      add\n        /* \"NFT-Contracts/new/finalMarket_single.sol\":10888:10982  nftContractFixedSale[_nftContractAddress][_tokenId]\r... */\n      dup10\n      swap1\n      sstore\n        /* \"NFT-Contracts/new/finalMarket_single.sol\":11000:11123  NftFixedSalePriceUpdated(\r... */\n      dup2\n      mload\n        /* \"#utility.yul\":8348:8399   */\n      swap3\n      dup4\n      mstore\n        /* \"#utility.yul\":8415:8433   */\n      dup3\n      add\n        /* \"#utility.yul\":8408:8442   */\n      dup10\n      swap1\n      mstore\n        /* \"#utility.yul\":8458:8476   */\n      dup2\n      add\n        /* \"#utility.yul\":8451:8485   */\n      dup8\n      swap1\n      mstore\n        /* \"NFT-Contracts/new/finalMarket_single.sol\":11000:11123  NftFixedSalePriceUpdated(\r... */\n      0x575a0876095ccf47276a37dce683308a625403d132d219f95205ce205b2e12bc\n      swap1\n        /* \"#utility.yul\":8336:8338   */\n      0x60\n        /* \"#utility.yul\":8321:8339   */\n      add\n        /* \"NFT-Contracts/new/finalMarket_single.sol\":11000:11123  NftFixedSalePriceUpdated(\r... */\n      mload(0x40)\n      dup1\n      swap2\n      sub\n      swap1\n      log1\n        /* \"NFT-Contracts/new/finalMarket_single.sol\":4489:4490  _ */\n      pop\n        /* \"NFT-Contracts/new/finalMarket_single.sol\":3731:3732  _ */\n      pop\n      pop\n        /* \"NFT-Contracts/new/finalMarket_single.sol\":10553:11131  function updateFixedSalePrice(\r... */\n      pop\n      pop\n      pop\n      pop\n      pop\n      jump\t// out\n        /* \"NFT-Contracts/new/finalMarket_single.sol\":17856:18614  function withdrawBid(address _nftContractAddress, uint256 _tokenId)\r... */\n    tag_61:\n      sub(shl(0xa0, 0x01), 0x01)\n        /* \"NFT-Contracts/new/finalMarket_single.sol\":4956:4999  nftContractAuctionSale[_nftContractAddress] */\n      dup3\n      and\n      0x00\n      swap1\n      dup2\n      mstore\n        /* \"NFT-Contracts/new/finalMarket_single.sol\":4956:4978  nftContractAuctionSale */\n      0x01\n        /* \"NFT-Contracts/new/finalMarket_single.sol\":4956:4999  nftContractAuctionSale[_nftContractAddress] */\n      0x20\n      dup2\n      dup2\n      mstore\n      0x40\n      dup1\n      dup5\n      keccak256\n        /* \"NFT-Contracts/new/finalMarket_single.sol\":4956:5009  nftContractAuctionSale[_nftContractAddress][_tokenId] */\n      dup6\n      dup6\n      mstore\n      swap1\n      swap2\n      mstore\n      swap1\n      swap2\n      keccak256\n        /* \"NFT-Contracts/new/finalMarket_single.sol\":4956:5042  nftContractAuctionSale[_nftContractAddress][_tokenId]\r... */\n      add\n      sload\n        /* \"NFT-Contracts/new/finalMarket_single.sol\":17965:17984  _nftContractAddress */\n      dup3\n      swap1\n        /* \"NFT-Contracts/new/finalMarket_single.sol\":17986:17994  _tokenId */\n      dup3\n      swap1\n        /* \"NFT-Contracts/new/finalMarket_single.sol\":4921:4936  block.timestamp */\n      timestamp\n        /* \"NFT-Contracts/new/finalMarket_single.sol\":4921:5042  block.timestamp >\r... */\n      gt\n        /* \"NFT-Contracts/new/finalMarket_single.sol\":4899:5085  require(\r... */\n      tag_196\n      jumpi\n      mload(0x40)\n      shl(0xe5, 0x461bcd)\n      dup2\n      mstore\n        /* \"#utility.yul\":14197:14199   */\n      0x20\n        /* \"NFT-Contracts/new/finalMarket_single.sol\":4899:5085  require(\r... */\n      0x04\n      dup3\n      add\n        /* \"#utility.yul\":14179:14200   */\n      mstore\n        /* \"#utility.yul\":14236:14238   */\n      0x0f\n        /* \"#utility.yul\":14216:14234   */\n      0x24\n      dup3\n      add\n        /* \"#utility.yul\":14209:14239   */\n      mstore\n      shl(0x8a, 0x105d58dd1a5bdb881b9bdd08195b99)\n        /* \"#utility.yul\":14255:14273   */\n      0x44\n      dup3\n      add\n        /* \"#utility.yul\":14248:14293   */\n      mstore\n        /* \"#utility.yul\":14310:14328   */\n      0x64\n      add\n        /* \"NFT-Contracts/new/finalMarket_single.sol\":4899:5085  require(\r... */\n      tag_131\n        /* \"#utility.yul\":13995:14334   */\n      jump\n        /* \"NFT-Contracts/new/finalMarket_single.sol\":4899:5085  require(\r... */\n    tag_196:\n      sub(shl(0xa0, 0x01), 0x01)\n        /* \"NFT-Contracts/new/finalMarket_single.sol\":18065:18108  nftContractAuctionSale[_nftContractAddress] */\n      dup5\n      dup2\n      and\n      0x00\n      swap1\n      dup2\n      mstore\n        /* \"NFT-Contracts/new/finalMarket_single.sol\":18065:18087  nftContractAuctionSale */\n      0x01\n        /* \"NFT-Contracts/new/finalMarket_single.sol\":18065:18108  nftContractAuctionSale[_nftContractAddress] */\n      0x20\n      swap1\n      dup2\n      mstore\n      0x40\n      dup1\n      dup4\n      keccak256\n        /* \"NFT-Contracts/new/finalMarket_single.sol\":18065:18118  nftContractAuctionSale[_nftContractAddress][_tokenId] */\n      dup8\n      dup5\n      mstore\n      swap1\n      swap2\n      mstore\n      swap1\n      keccak256\n        /* \"NFT-Contracts/new/finalMarket_single.sol\":18065:18157  nftContractAuctionSale[_nftContractAddress][_tokenId]\r... */\n      0x04\n      add\n      sload\n      and\n        /* \"NFT-Contracts/new/finalMarket_single.sol\":18034:18044  msg.sender */\n      caller\n        /* \"NFT-Contracts/new/finalMarket_single.sol\":18034:18157  msg.sender !=\r... */\n      eq\n      iszero\n        /* \"NFT-Contracts/new/finalMarket_single.sol\":18012:18207  require(\r... */\n      tag_200\n      jumpi\n      mload(0x40)\n      shl(0xe5, 0x461bcd)\n      dup2\n      mstore\n        /* \"#utility.yul\":10368:10370   */\n      0x20\n        /* \"NFT-Contracts/new/finalMarket_single.sol\":18012:18207  require(\r... */\n      0x04\n      dup3\n      add\n        /* \"#utility.yul\":10350:10371   */\n      mstore\n        /* \"#utility.yul\":10407:10409   */\n      0x16\n        /* \"#utility.yul\":10387:10405   */\n      0x24\n      dup3\n      add\n        /* \"#utility.yul\":10380:10410   */\n      mstore\n      shl(0x51, 0x2cb7ba9030b932903434b3b432b9ba103134b23232b9)\n        /* \"#utility.yul\":10426:10444   */\n      0x44\n      dup3\n      add\n        /* \"#utility.yul\":10419:10471   */\n      mstore\n        /* \"#utility.yul\":10488:10506   */\n      0x64\n      add\n        /* \"NFT-Contracts/new/finalMarket_single.sol\":18012:18207  require(\r... */\n      tag_131\n        /* \"#utility.yul\":10166:10512   */\n      jump\n        /* \"NFT-Contracts/new/finalMarket_single.sol\":18012:18207  require(\r... */\n    tag_200:\n      sub(shl(0xa0, 0x01), 0x01)\n        /* \"NFT-Contracts/new/finalMarket_single.sol\":18240:18278  userBidPriceOnNFT[_nftContractAddress] */\n      dup5\n      and\n        /* \"NFT-Contracts/new/finalMarket_single.sol\":18303:18304  0 */\n      0x00\n        /* \"NFT-Contracts/new/finalMarket_single.sol\":18240:18278  userBidPriceOnNFT[_nftContractAddress] */\n      swap1\n      dup2\n      mstore\n        /* \"NFT-Contracts/new/finalMarket_single.sol\":18240:18257  userBidPriceOnNFT */\n      0x03\n        /* \"NFT-Contracts/new/finalMarket_single.sol\":18240:18278  userBidPriceOnNFT[_nftContractAddress] */\n      0x20\n      swap1\n      dup2\n      mstore\n      0x40\n      dup1\n      dup4\n      keccak256\n        /* \"NFT-Contracts/new/finalMarket_single.sol\":18240:18288  userBidPriceOnNFT[_nftContractAddress][_tokenId] */\n      dup7\n      dup5\n      mstore\n      dup3\n      mstore\n      dup1\n      dup4\n      keccak256\n        /* \"NFT-Contracts/new/finalMarket_single.sol\":18289:18299  msg.sender */\n      caller\n        /* \"NFT-Contracts/new/finalMarket_single.sol\":18240:18300  userBidPriceOnNFT[_nftContractAddress][_tokenId][msg.sender] */\n      dup5\n      mstore\n      swap1\n      swap2\n      mstore\n      swap1\n      keccak256\n      sload\n        /* \"NFT-Contracts/new/finalMarket_single.sol\":18218:18351  require(\r... */\n      tag_203\n      jumpi\n      mload(0x40)\n      shl(0xe5, 0x461bcd)\n      dup2\n      mstore\n        /* \"#utility.yul\":14891:14893   */\n      0x20\n        /* \"NFT-Contracts/new/finalMarket_single.sol\":18218:18351  require(\r... */\n      0x04\n      dup3\n      add\n        /* \"#utility.yul\":14873:14894   */\n      mstore\n        /* \"#utility.yul\":14930:14932   */\n      0x13\n        /* \"#utility.yul\":14910:14928   */\n      0x24\n      dup3\n      add\n        /* \"#utility.yul\":14903:14933   */\n      mstore\n      shl(0x68, 0x6e6f7468696e6720746f207769746864726177)\n        /* \"#utility.yul\":14949:14967   */\n      0x44\n      dup3\n      add\n        /* \"#utility.yul\":14942:14991   */\n      mstore\n        /* \"#utility.yul\":15008:15026   */\n      0x64\n      add\n        /* \"NFT-Contracts/new/finalMarket_single.sol\":18218:18351  require(\r... */\n      tag_131\n        /* \"#utility.yul\":14689:15032   */\n      jump\n        /* \"NFT-Contracts/new/finalMarket_single.sol\":18218:18351  require(\r... */\n    tag_203:\n      sub(shl(0xa0, 0x01), 0x01)\n        /* \"NFT-Contracts/new/finalMarket_single.sol\":18467:18505  userBidPriceOnNFT[_nftContractAddress] */\n      dup5\n      and\n        /* \"NFT-Contracts/new/finalMarket_single.sol\":18530:18531  0 */\n      0x00\n        /* \"NFT-Contracts/new/finalMarket_single.sol\":18467:18505  userBidPriceOnNFT[_nftContractAddress] */\n      dup2\n      dup2\n      mstore\n        /* \"NFT-Contracts/new/finalMarket_single.sol\":18467:18484  userBidPriceOnNFT */\n      0x03\n        /* \"NFT-Contracts/new/finalMarket_single.sol\":18467:18505  userBidPriceOnNFT[_nftContractAddress] */\n      0x20\n      swap1\n      dup2\n      mstore\n      0x40\n      dup1\n      dup4\n      keccak256\n        /* \"NFT-Contracts/new/finalMarket_single.sol\":18467:18515  userBidPriceOnNFT[_nftContractAddress][_tokenId] */\n      dup8\n      dup5\n      mstore\n      dup3\n      mstore\n      dup1\n      dup4\n      keccak256\n        /* \"NFT-Contracts/new/finalMarket_single.sol\":18516:18526  msg.sender */\n      caller\n        /* \"NFT-Contracts/new/finalMarket_single.sol\":18467:18527  userBidPriceOnNFT[_nftContractAddress][_tokenId][msg.sender] */\n      dup1\n      dup6\n      mstore\n      swap1\n      dup4\n      mstore\n      dup2\n      dup5\n      keccak256\n        /* \"NFT-Contracts/new/finalMarket_single.sol\":18467:18531  userBidPriceOnNFT[_nftContractAddress][_tokenId][msg.sender] = 0 */\n      swap4\n      swap1\n      swap4\n      sstore\n        /* \"NFT-Contracts/new/finalMarket_single.sol\":18549:18606  withdrawNftBid(_nftContractAddress, _tokenId, msg.sender) */\n      dup1\n      mload\n        /* \"#utility.yul\":7473:7507   */\n      swap4\n      dup5\n      mstore\n        /* \"#utility.yul\":7523:7541   */\n      swap1\n      dup4\n      add\n        /* \"#utility.yul\":7516:7550   */\n      dup7\n      swap1\n      mstore\n        /* \"#utility.yul\":7566:7584   */\n      dup3\n      add\n        /* \"#utility.yul\":7559:7602   */\n      mstore\n        /* \"NFT-Contracts/new/finalMarket_single.sol\":18549:18606  withdrawNftBid(_nftContractAddress, _tokenId, msg.sender) */\n      0xde8cb9aa2c755cf75d5fbc4fec824b10e311652306f1fca5c8e57a04758b0aa7\n      swap1\n        /* \"#utility.yul\":7423:7425   */\n      0x60\n        /* \"#utility.yul\":7408:7426   */\n      add\n        /* \"NFT-Contracts/new/finalMarket_single.sol\":18549:18606  withdrawNftBid(_nftContractAddress, _tokenId, msg.sender) */\n      mload(0x40)\n      dup1\n      swap2\n      sub\n      swap1\n      log1\n        /* \"NFT-Contracts/new/finalMarket_single.sol\":17856:18614  function withdrawBid(address _nftContractAddress, uint256 _tokenId)\r... */\n      pop\n      pop\n      pop\n      pop\n      jump\t// out\n        /* \"NFT-Contracts/new/finalMarket_single.sol\":16840:17848  function settleAuction(address _nftContractAddress, uint256 _tokenId)\r... */\n    tag_65:\n      sub(shl(0xa0, 0x01), 0x01)\n        /* \"NFT-Contracts/new/finalMarket_single.sol\":3856:3890  nftSaleStatus[_nftContractAddress] */\n      dup3\n      and\n      0x00\n      swap1\n      dup2\n      mstore\n        /* \"NFT-Contracts/new/finalMarket_single.sol\":3856:3869  nftSaleStatus */\n      0x02\n        /* \"NFT-Contracts/new/finalMarket_single.sol\":3856:3890  nftSaleStatus[_nftContractAddress] */\n      0x20\n      dup2\n      dup2\n      mstore\n      0x40\n      dup1\n      dup5\n      keccak256\n        /* \"NFT-Contracts/new/finalMarket_single.sol\":3856:3900  nftSaleStatus[_nftContractAddress][_tokenId] */\n      dup6\n      dup6\n      mstore\n      swap1\n      swap2\n      mstore\n      swap1\n      swap2\n      keccak256\n      sload\n        /* \"NFT-Contracts/new/finalMarket_single.sol\":16956:16975  _nftContractAddress */\n      dup4\n      swap2\n        /* \"NFT-Contracts/new/finalMarket_single.sol\":16977:16985  _tokenId */\n      dup4\n      swap2\n        /* \"NFT-Contracts/new/finalMarket_single.sol\":3856:3905  nftSaleStatus[_nftContractAddress][_tokenId] == 2 */\n      eq\n        /* \"NFT-Contracts/new/finalMarket_single.sol\":3834:3956  require(\r... */\n      tag_209\n      jumpi\n      mload(0x40)\n      shl(0xe5, 0x461bcd)\n      dup2\n      mstore\n      0x04\n      add\n      tag_131\n      swap1\n      tag_132\n      jump\t// in\n    tag_209:\n      sub(shl(0xa0, 0x01), 0x01)\n        /* \"NFT-Contracts/new/finalMarket_single.sol\":4956:4999  nftContractAuctionSale[_nftContractAddress] */\n      dup5\n      and\n      0x00\n      swap1\n      dup2\n      mstore\n        /* \"NFT-Contracts/new/finalMarket_single.sol\":4956:4978  nftContractAuctionSale */\n      0x01\n        /* \"NFT-Contracts/new/finalMarket_single.sol\":4956:4999  nftContractAuctionSale[_nftContractAddress] */\n      0x20\n      dup2\n      dup2\n      mstore\n      0x40\n      dup1\n      dup5\n      keccak256\n        /* \"NFT-Contracts/new/finalMarket_single.sol\":4956:5009  nftContractAuctionSale[_nftContractAddress][_tokenId] */\n      dup8\n      dup6\n      mstore\n      swap1\n      swap2\n      mstore\n      swap1\n      swap2\n      keccak256\n        /* \"NFT-Contracts/new/finalMarket_single.sol\":4956:5042  nftContractAuctionSale[_nftContractAddress][_tokenId]\r... */\n      add\n      sload\n        /* \"NFT-Contracts/new/finalMarket_single.sol\":17010:17029  _nftContractAddress */\n      dup5\n      swap1\n        /* \"NFT-Contracts/new/finalMarket_single.sol\":17031:17039  _tokenId */\n      dup5\n      swap1\n        /* \"NFT-Contracts/new/finalMarket_single.sol\":4921:4936  block.timestamp */\n      timestamp\n        /* \"NFT-Contracts/new/finalMarket_single.sol\":4921:5042  block.timestamp >\r... */\n      gt\n        /* \"NFT-Contracts/new/finalMarket_single.sol\":4899:5085  require(\r... */\n      tag_212\n      jumpi\n      mload(0x40)\n      shl(0xe5, 0x461bcd)\n      dup2\n      mstore\n        /* \"#utility.yul\":14197:14199   */\n      0x20\n        /* \"NFT-Contracts/new/finalMarket_single.sol\":4899:5085  require(\r... */\n      0x04\n      dup3\n      add\n        /* \"#utility.yul\":14179:14200   */\n      mstore\n        /* \"#utility.yul\":14236:14238   */\n      0x0f\n        /* \"#utility.yul\":14216:14234   */\n      0x24\n      dup3\n      add\n        /* \"#utility.yul\":14209:14239   */\n      mstore\n      shl(0x8a, 0x105d58dd1a5bdb881b9bdd08195b99)\n        /* \"#utility.yul\":14255:14273   */\n      0x44\n      dup3\n      add\n        /* \"#utility.yul\":14248:14293   */\n      mstore\n        /* \"#utility.yul\":14310:14328   */\n      0x64\n      add\n        /* \"NFT-Contracts/new/finalMarket_single.sol\":4899:5085  require(\r... */\n      tag_131\n        /* \"#utility.yul\":13995:14334   */\n      jump\n        /* \"NFT-Contracts/new/finalMarket_single.sol\":4899:5085  require(\r... */\n    tag_212:\n      sub(shl(0xa0, 0x01), 0x01)\n        /* \"NFT-Contracts/new/finalMarket_single.sol\":17076:17119  nftContractAuctionSale[_nftContractAddress] */\n      dup7\n      dup2\n      and\n        /* \"NFT-Contracts/new/finalMarket_single.sol\":17057:17073  address nftBuyer */\n      0x00\n        /* \"NFT-Contracts/new/finalMarket_single.sol\":17076:17119  nftContractAuctionSale[_nftContractAddress] */\n      swap1\n      dup2\n      mstore\n        /* \"NFT-Contracts/new/finalMarket_single.sol\":17076:17098  nftContractAuctionSale */\n      0x01\n        /* \"NFT-Contracts/new/finalMarket_single.sol\":17076:17119  nftContractAuctionSale[_nftContractAddress] */\n      0x20\n      swap1\n      dup2\n      mstore\n      0x40\n      dup1\n      dup4\n      keccak256\n        /* \"NFT-Contracts/new/finalMarket_single.sol\":17076:17129  nftContractAuctionSale[_nftContractAddress][_tokenId] */\n      dup10\n      dup5\n      mstore\n      swap1\n      swap2\n      mstore\n      swap1\n      keccak256\n        /* \"NFT-Contracts/new/finalMarket_single.sol\":17076:17160  nftContractAuctionSale[_nftContractAddress][_tokenId]\r... */\n      0x04\n      dup2\n      add\n      sload\n        /* \"NFT-Contracts/new/finalMarket_single.sol\":17269:17336  nftContractAuctionSale[_nftContractAddress][_tokenId].nftHighestBid */\n      0x03\n      swap1\n      swap2\n      add\n      sload\n        /* \"NFT-Contracts/new/finalMarket_single.sol\":17076:17160  nftContractAuctionSale[_nftContractAddress][_tokenId]\r... */\n      swap2\n      and\n      swap1\n        /* \"NFT-Contracts/new/finalMarket_single.sol\":17173:17370  _transferNftAndPaySeller(\r... */\n      tag_215\n      swap1\n        /* \"NFT-Contracts/new/finalMarket_single.sol\":17076:17119  nftContractAuctionSale[_nftContractAddress] */\n      dup9\n      swap1\n        /* \"NFT-Contracts/new/finalMarket_single.sol\":17076:17129  nftContractAuctionSale[_nftContractAddress][_tokenId] */\n      dup9\n      swap1\n        /* \"NFT-Contracts/new/finalMarket_single.sol\":17076:17160  nftContractAuctionSale[_nftContractAddress][_tokenId]\r... */\n      dup5\n        /* \"NFT-Contracts/new/finalMarket_single.sol\":17173:17197  _transferNftAndPaySeller */\n      tag_216\n        /* \"NFT-Contracts/new/finalMarket_single.sol\":17173:17370  _transferNftAndPaySeller(\r... */\n      jump\t// in\n    tag_215:\n      sub(shl(0xa0, 0x01), 0x01)\n        /* \"NFT-Contracts/new/finalMarket_single.sol\":17383:17421  userBidPriceOnNFT[_nftContractAddress] */\n      dup1\n      dup9\n      and\n        /* \"NFT-Contracts/new/finalMarket_single.sol\":17444:17445  0 */\n      0x00\n        /* \"NFT-Contracts/new/finalMarket_single.sol\":17383:17421  userBidPriceOnNFT[_nftContractAddress] */\n      dup2\n      dup2\n      mstore\n        /* \"NFT-Contracts/new/finalMarket_single.sol\":17383:17400  userBidPriceOnNFT */\n      0x03\n        /* \"NFT-Contracts/new/finalMarket_single.sol\":17383:17421  userBidPriceOnNFT[_nftContractAddress] */\n      0x20\n      swap1\n      dup2\n      mstore\n      0x40\n      dup1\n      dup4\n      keccak256\n        /* \"NFT-Contracts/new/finalMarket_single.sol\":17383:17431  userBidPriceOnNFT[_nftContractAddress][_tokenId] */\n      dup12\n      dup5\n      mstore\n      dup3\n      mstore\n      dup1\n      dup4\n      keccak256\n        /* \"NFT-Contracts/new/finalMarket_single.sol\":17383:17441  userBidPriceOnNFT[_nftContractAddress][_tokenId][nftBuyer] */\n      swap5\n      dup7\n      and\n      dup4\n      mstore\n      swap4\n      dup2\n      mstore\n      dup4\n      dup3\n      keccak256\n        /* \"NFT-Contracts/new/finalMarket_single.sol\":17383:17445  userBidPriceOnNFT[_nftContractAddress][_tokenId][nftBuyer] = 0 */\n      dup3\n      swap1\n      sstore\n        /* \"NFT-Contracts/new/finalMarket_single.sol\":17493:17533  indexAuctionSaleNFT[_nftContractAddress] */\n      swap2\n      dup2\n      mstore\n        /* \"NFT-Contracts/new/finalMarket_single.sol\":17493:17512  indexAuctionSaleNFT */\n      0x05\n        /* \"NFT-Contracts/new/finalMarket_single.sol\":17493:17533  indexAuctionSaleNFT[_nftContractAddress] */\n      dup3\n      mstore\n      dup3\n      dup2\n      keccak256\n        /* \"NFT-Contracts/new/finalMarket_single.sol\":17493:17543  indexAuctionSaleNFT[_nftContractAddress][_tokenId] */\n      dup10\n      dup3\n      mstore\n      swap1\n      swap2\n      mstore\n      keccak256\n      sload\n        /* \"NFT-Contracts/new/finalMarket_single.sol\":17463:17477  auctionSaleNFT */\n      0x07\n        /* \"NFT-Contracts/new/finalMarket_single.sol\":17463:17555  auctionSaleNFT[\r... */\n      dup1\n      sload\n        /* \"NFT-Contracts/new/finalMarket_single.sol\":17463:17477  auctionSaleNFT */\n      swap1\n      swap2\n        /* \"NFT-Contracts/new/finalMarket_single.sol\":17493:17543  indexAuctionSaleNFT[_nftContractAddress][_tokenId] */\n      swap1\n        /* \"NFT-Contracts/new/finalMarket_single.sol\":17463:17555  auctionSaleNFT[\r... */\n      dup2\n      lt\n      tag_218\n      jumpi\n      tag_218\n      tag_219\n      jump\t// in\n    tag_218:\n      0x00\n      swap2\n      dup3\n      mstore\n      0x20\n      dup1\n      dup4\n      keccak256\n      0x02\n      swap3\n      swap1\n      swap3\n      mul\n      swap1\n      swap2\n      add\n        /* \"NFT-Contracts/new/finalMarket_single.sol\":17456:17555  delete auctionSaleNFT[\r... */\n      dup1\n      sload\n      not(sub(shl(0xa0, 0x01), 0x01))\n      and\n      dup2\n      sstore\n      0x01\n      swap1\n      dup2\n      add\n      dup4\n      swap1\n      sstore\n      sub(shl(0xa0, 0x01), 0x01)\n        /* \"NFT-Contracts/new/finalMarket_single.sol\":17684:17727  nftContractAuctionSale[_nftContractAddress] */\n      dup11\n      dup2\n      and\n      dup1\n      dup6\n      mstore\n      swap2\n      dup4\n      mstore\n      0x40\n      dup1\n      dup6\n      keccak256\n        /* \"NFT-Contracts/new/finalMarket_single.sol\":17684:17737  nftContractAuctionSale[_nftContractAddress][_tokenId] */\n      dup12\n      dup7\n      mstore\n      dup5\n      mstore\n      swap4\n      dup5\n      swap1\n      keccak256\n        /* \"NFT-Contracts/new/finalMarket_single.sol\":17684:17751  nftContractAuctionSale[_nftContractAddress][_tokenId].nftHighestBid */\n      0x03\n      dup2\n      add\n      sload\n        /* \"NFT-Contracts/new/finalMarket_single.sol\":17766:17829  nftContractAuctionSale[_nftContractAddress][_tokenId].nftSeller */\n      0x05\n      swap1\n      swap2\n      add\n      sload\n        /* \"NFT-Contracts/new/finalMarket_single.sol\":17573:17840  NftAuctionSettle(\r... */\n      dup6\n      mload\n        /* \"#utility.yul\":7910:7944   */\n      swap4\n      dup5\n      mstore\n        /* \"#utility.yul\":7960:7978   */\n      swap4\n      dup4\n      add\n        /* \"#utility.yul\":7953:7987   */\n      dup12\n      swap1\n      mstore\n        /* \"#utility.yul\":8023:8038   */\n      dup6\n      dup3\n      and\n        /* \"#utility.yul\":8003:8021   */\n      dup4\n      dup7\n      add\n        /* \"#utility.yul\":7996:8039   */\n      mstore\n        /* \"#utility.yul\":8070:8072   */\n      0x60\n        /* \"#utility.yul\":8055:8073   */\n      dup4\n      add\n        /* \"#utility.yul\":8048:8082   */\n      mstore\n        /* \"NFT-Contracts/new/finalMarket_single.sol\":17766:17829  nftContractAuctionSale[_nftContractAddress][_tokenId].nftSeller */\n      swap2\n      swap1\n      swap2\n      and\n        /* \"#utility.yul\":8113:8116   */\n      0x80\n        /* \"#utility.yul\":8098:8117   */\n      dup3\n      add\n        /* \"#utility.yul\":8091:8135   */\n      mstore\n        /* \"NFT-Contracts/new/finalMarket_single.sol\":17573:17840  NftAuctionSettle(\r... */\n      swap1\n      mload\n      0xb31cb4f6609b11a57d1b6b14cc3f81f4b3e609f709a5b1e46892a45f9cc29ed8\n      swap2\n      dup2\n      swap1\n      sub\n        /* \"#utility.yul\":7859:7862   */\n      0xa0\n        /* \"NFT-Contracts/new/finalMarket_single.sol\":17573:17840  NftAuctionSettle(\r... */\n      add\n      swap1\n      log1\n        /* \"NFT-Contracts/new/finalMarket_single.sol\":17046:17848  {\r... */\n      pop\n        /* \"NFT-Contracts/new/finalMarket_single.sol\":3967:3968  _ */\n      pop\n      pop\n        /* \"NFT-Contracts/new/finalMarket_single.sol\":16840:17848  function settleAuction(address _nftContractAddress, uint256 _tokenId)\r... */\n      pop\n      pop\n      pop\n      pop\n      jump\t// out\n        /* \"NFT-Contracts/new/finalMarket_single.sol\":8816:9951  function nftFixedSale(\r... */\n    tag_76:\n        /* \"NFT-Contracts/new/finalMarket_single.sol\":4106:4152  IERC721(_nftContractAddress).ownerOf(_tokenId) */\n      mload(0x40)\n      shl(0xe1, 0x31a9108f)\n      dup2\n      mstore\n      0x04\n      dup2\n      add\n        /* \"#utility.yul\":17092:17117   */\n      dup4\n      swap1\n      mstore\n        /* \"NFT-Contracts/new/finalMarket_single.sol\":9010:9029  _nftContractAddress */\n      dup5\n      swap1\n        /* \"NFT-Contracts/new/finalMarket_single.sol\":9031:9039  _tokenId */\n      dup4\n      swap1\n      sub(shl(0xa0, 0x01), 0x01)\n        /* \"NFT-Contracts/new/finalMarket_single.sol\":4106:4142  IERC721(_nftContractAddress).ownerOf */\n      dup4\n      and\n      swap1\n      0x6352211e\n      swap1\n        /* \"#utility.yul\":17065:17083   */\n      0x24\n      add\n        /* \"NFT-Contracts/new/finalMarket_single.sol\":4106:4152  IERC721(_nftContractAddress).ownerOf(_tokenId) */\n      0x20\n      mload(0x40)\n      dup1\n      dup4\n      sub\n      dup2\n      dup7\n      dup1\n      extcodesize\n      iszero\n      dup1\n      iszero\n      tag_225\n      jumpi\n      0x00\n      dup1\n      revert\n    tag_225:\n      pop\n      gas\n      staticcall\n      iszero\n      dup1\n      iszero\n      tag_227\n      jumpi\n      returndatasize\n      0x00\n      dup1\n      returndatacopy\n      revert(0x00, returndatasize)\n    tag_227:\n      pop\n      pop\n      pop\n      pop\n      mload(0x40)\n      returndatasize\n      not(0x1f)\n      0x1f\n      dup3\n      add\n      and\n      dup3\n      add\n      dup1\n      0x40\n      mstore\n      pop\n      dup2\n      add\n      swap1\n      tag_228\n      swap2\n      swap1\n      tag_229\n      jump\t// in\n    tag_228:\n      sub(shl(0xa0, 0x01), 0x01)\n        /* \"NFT-Contracts/new/finalMarket_single.sol\":4092:4152  msg.sender == IERC721(_nftContractAddress).ownerOf(_tokenId) */\n      and\n        /* \"NFT-Contracts/new/finalMarket_single.sol\":4092:4102  msg.sender */\n      caller\n      sub(shl(0xa0, 0x01), 0x01)\n        /* \"NFT-Contracts/new/finalMarket_single.sol\":4092:4152  msg.sender == IERC721(_nftContractAddress).ownerOf(_tokenId) */\n      and\n      eq\n        /* \"NFT-Contracts/new/finalMarket_single.sol\":4070:4201  require(\r... */\n      tag_230\n      jumpi\n      mload(0x40)\n      shl(0xe5, 0x461bcd)\n      dup2\n      mstore\n      0x04\n      add\n      tag_131\n      swap1\n      tag_188\n      jump\t// in\n    tag_230:\n      sub(shl(0xa0, 0x01), 0x01)\n        /* \"NFT-Contracts/new/finalMarket_single.sol\":3392:3426  nftSaleStatus[_nftContractAddress] */\n      dup7\n      and\n      0x00\n      swap1\n      dup2\n      mstore\n        /* \"NFT-Contracts/new/finalMarket_single.sol\":3392:3405  nftSaleStatus */\n      0x02\n        /* \"NFT-Contracts/new/finalMarket_single.sol\":3392:3426  nftSaleStatus[_nftContractAddress] */\n      0x20\n      swap1\n      dup2\n      mstore\n      0x40\n      dup1\n      dup4\n      keccak256\n        /* \"NFT-Contracts/new/finalMarket_single.sol\":3392:3436  nftSaleStatus[_nftContractAddress][_tokenId] */\n      dup8\n      dup5\n      mstore\n      swap1\n      swap2\n      mstore\n      swap1\n      keccak256\n      sload\n        /* \"NFT-Contracts/new/finalMarket_single.sol\":9069:9088  _nftContractAddress */\n      dup7\n      swap1\n        /* \"NFT-Contracts/new/finalMarket_single.sol\":9090:9098  _tokenId */\n      dup6\n      swap1\n        /* \"NFT-Contracts/new/finalMarket_single.sol\":3392:3441  nftSaleStatus[_nftContractAddress][_tokenId] == 0 */\n      iszero\n        /* \"NFT-Contracts/new/finalMarket_single.sol\":3370:3488  require(\r... */\n      tag_233\n      jumpi\n      mload(0x40)\n      shl(0xe5, 0x461bcd)\n      dup2\n      mstore\n        /* \"#utility.yul\":13164:13166   */\n      0x20\n        /* \"NFT-Contracts/new/finalMarket_single.sol\":3370:3488  require(\r... */\n      0x04\n      dup3\n      add\n        /* \"#utility.yul\":13146:13167   */\n      mstore\n        /* \"#utility.yul\":13203:13205   */\n      0x13\n        /* \"#utility.yul\":13183:13201   */\n      0x24\n      dup3\n      add\n        /* \"#utility.yul\":13176:13206   */\n      mstore\n      shl(0x68, 0x4e667420616c726561647920696e2073616c65)\n        /* \"#utility.yul\":13222:13240   */\n      0x44\n      dup3\n      add\n        /* \"#utility.yul\":13215:13264   */\n      mstore\n        /* \"#utility.yul\":13281:13299   */\n      0x64\n      add\n        /* \"NFT-Contracts/new/finalMarket_single.sol\":3370:3488  require(\r... */\n      tag_131\n        /* \"#utility.yul\":12962:13305   */\n      jump\n        /* \"NFT-Contracts/new/finalMarket_single.sol\":3370:3488  require(\r... */\n    tag_233:\n        /* \"NFT-Contracts/new/finalMarket_single.sol\":4613:4734  IERC721(_nftContractAddress).isApprovedForAll(\r... */\n      mload(0x40)\n      shl(0xe0, 0xe985e9c5)\n      dup2\n      mstore\n        /* \"NFT-Contracts/new/finalMarket_single.sol\":4677:4687  msg.sender */\n      caller\n        /* \"NFT-Contracts/new/finalMarket_single.sol\":4613:4734  IERC721(_nftContractAddress).isApprovedForAll(\r... */\n      0x04\n      dup3\n      add\n        /* \"#utility.yul\":4743:4777   */\n      mstore\n        /* \"NFT-Contracts/new/finalMarket_single.sol\":4714:4718  this */\n      address\n        /* \"#utility.yul\":4793:4811   */\n      0x24\n      dup3\n      add\n        /* \"#utility.yul\":4786:4829   */\n      mstore\n        /* \"NFT-Contracts/new/finalMarket_single.sol\":9127:9146  _nftContractAddress */\n      dup9\n      swap1\n        /* \"NFT-Contracts/new/finalMarket_single.sol\":9148:9156  _tokenId */\n      dup8\n      swap1\n      sub(shl(0xa0, 0x01), 0x01)\n        /* \"NFT-Contracts/new/finalMarket_single.sol\":4613:4658  IERC721(_nftContractAddress).isApprovedForAll */\n      dup4\n      and\n      swap1\n      0xe985e9c5\n      swap1\n        /* \"#utility.yul\":4678:4696   */\n      0x44\n      add\n        /* \"NFT-Contracts/new/finalMarket_single.sol\":4613:4734  IERC721(_nftContractAddress).isApprovedForAll(\r... */\n      0x20\n      mload(0x40)\n      dup1\n      dup4\n      sub\n      dup2\n      dup7\n      dup1\n      extcodesize\n      iszero\n      dup1\n      iszero\n      tag_239\n      jumpi\n      0x00\n      dup1\n      revert\n    tag_239:\n      pop\n      gas\n      staticcall\n      iszero\n      dup1\n      iszero\n      tag_241\n      jumpi\n      returndatasize\n      0x00\n      dup1\n      returndatacopy\n      revert(0x00, returndatasize)\n    tag_241:\n      pop\n      pop\n      pop\n      pop\n      mload(0x40)\n      returndatasize\n      not(0x1f)\n      0x1f\n      dup3\n      add\n      and\n      dup3\n      add\n      dup1\n      0x40\n      mstore\n      pop\n      dup2\n      add\n      swap1\n      tag_242\n      swap2\n      swap1\n      tag_127\n      jump\t// in\n    tag_242:\n        /* \"NFT-Contracts/new/finalMarket_single.sol\":4591:4790  require(\r... */\n      tag_243\n      jumpi\n      mload(0x40)\n      shl(0xe5, 0x461bcd)\n      dup2\n      mstore\n        /* \"#utility.yul\":10719:10721   */\n      0x20\n        /* \"NFT-Contracts/new/finalMarket_single.sol\":4591:4790  require(\r... */\n      0x04\n      dup3\n      add\n        /* \"#utility.yul\":10701:10722   */\n      mstore\n        /* \"#utility.yul\":10758:10760   */\n      0x1c\n        /* \"#utility.yul\":10738:10756   */\n      0x24\n      dup3\n      add\n        /* \"#utility.yul\":10731:10761   */\n      mstore\n        /* \"#utility.yul\":10797:10827   */\n      0x4e6674206e6f7420617070726f76656420746f20636f6e747261637400000000\n        /* \"#utility.yul\":10777:10795   */\n      0x44\n      dup3\n      add\n        /* \"#utility.yul\":10770:10828   */\n      mstore\n        /* \"#utility.yul\":10845:10863   */\n      0x64\n      add\n        /* \"NFT-Contracts/new/finalMarket_single.sol\":4591:4790  require(\r... */\n      tag_131\n        /* \"#utility.yul\":10517:10869   */\n      jump\n        /* \"NFT-Contracts/new/finalMarket_single.sol\":4591:4790  require(\r... */\n    tag_243:\n        /* \"NFT-Contracts/new/finalMarket_single.sol\":9188:9198  _salePrice */\n      dup7\n        /* \"NFT-Contracts/new/finalMarket_single.sol\":8153:8154  0 */\n      0x00\n        /* \"NFT-Contracts/new/finalMarket_single.sol\":8144:8150  _price */\n      dup2\n        /* \"NFT-Contracts/new/finalMarket_single.sol\":8144:8154  _price > 0 */\n      gt\n        /* \"NFT-Contracts/new/finalMarket_single.sol\":8136:8176  require(_price > 0, \"Price cannot be 0\") */\n      tag_247\n      jumpi\n      mload(0x40)\n      shl(0xe5, 0x461bcd)\n      dup2\n      mstore\n      0x04\n      add\n      tag_131\n      swap1\n      tag_140\n      jump\t// in\n    tag_247:\n        /* \"NFT-Contracts/new/finalMarket_single.sol\":9270:9386  FixedSale(\r... */\n      mload(0x40)\n      dup1\n      0x80\n      add\n      0x40\n      mstore\n      dup1\n        /* \"NFT-Contracts/new/finalMarket_single.sol\":9294:9304  msg.sender */\n      caller\n      sub(shl(0xa0, 0x01), 0x01)\n        /* \"NFT-Contracts/new/finalMarket_single.sol\":9270:9386  FixedSale(\r... */\n      and\n      dup2\n      mstore\n      0x20\n      add\n        /* \"NFT-Contracts/new/finalMarket_single.sol\":9327:9328  0 */\n      0x00\n      sub(shl(0xa0, 0x01), 0x01)\n        /* \"NFT-Contracts/new/finalMarket_single.sol\":9270:9386  FixedSale(\r... */\n      and\n      dup2\n      mstore\n      0x20\n      add\n        /* \"NFT-Contracts/new/finalMarket_single.sol\":9344:9350  _erc20 */\n      dup12\n      sub(shl(0xa0, 0x01), 0x01)\n        /* \"NFT-Contracts/new/finalMarket_single.sol\":9270:9386  FixedSale(\r... */\n      and\n      dup2\n      mstore\n      0x20\n      add\n        /* \"NFT-Contracts/new/finalMarket_single.sol\":9365:9375  _salePrice */\n      dup10\n        /* \"NFT-Contracts/new/finalMarket_single.sol\":9270:9386  FixedSale(\r... */\n      dup2\n      mstore\n      pop\n        /* \"NFT-Contracts/new/finalMarket_single.sol\":9216:9236  nftContractFixedSale */\n      0x00\n        /* \"NFT-Contracts/new/finalMarket_single.sol\":9216:9257  nftContractFixedSale[_nftContractAddress] */\n      dup1\n        /* \"NFT-Contracts/new/finalMarket_single.sol\":9237:9256  _nftContractAddress */\n      dup14\n      sub(shl(0xa0, 0x01), 0x01)\n        /* \"NFT-Contracts/new/finalMarket_single.sol\":9216:9257  nftContractFixedSale[_nftContractAddress] */\n      and\n      sub(shl(0xa0, 0x01), 0x01)\n      and\n      dup2\n      mstore\n      0x20\n      add\n      swap1\n      dup2\n      mstore\n      0x20\n      add\n      0x00\n      keccak256\n        /* \"NFT-Contracts/new/finalMarket_single.sol\":9216:9267  nftContractFixedSale[_nftContractAddress][_tokenId] */\n      0x00\n        /* \"NFT-Contracts/new/finalMarket_single.sol\":9258:9266  _tokenId */\n      dup12\n        /* \"NFT-Contracts/new/finalMarket_single.sol\":9216:9267  nftContractFixedSale[_nftContractAddress][_tokenId] */\n      dup2\n      mstore\n      0x20\n      add\n      swap1\n      dup2\n      mstore\n      0x20\n      add\n      0x00\n      keccak256\n        /* \"NFT-Contracts/new/finalMarket_single.sol\":9216:9386  nftContractFixedSale[_nftContractAddress][_tokenId] = FixedSale(\r... */\n      0x00\n      dup3\n      add\n      mload\n      dup2\n      0x00\n      add\n      exp(0x0100, 0x00)\n      dup2\n      sload\n      dup2\n      sub(shl(0xa0, 0x01), 0x01)\n      mul\n      not\n      and\n      swap1\n      dup4\n      sub(shl(0xa0, 0x01), 0x01)\n      and\n      mul\n      or\n      swap1\n      sstore\n      pop\n      0x20\n      dup3\n      add\n      mload\n      dup2\n      0x01\n      add\n      exp(0x0100, 0x00)\n      dup2\n      sload\n      dup2\n      sub(shl(0xa0, 0x01), 0x01)\n      mul\n      not\n      and\n      swap1\n      dup4\n      sub(shl(0xa0, 0x01), 0x01)\n      and\n      mul\n      or\n      swap1\n      sstore\n      pop\n      0x40\n      dup3\n      add\n      mload\n      dup2\n      0x02\n      add\n      exp(0x0100, 0x00)\n      dup2\n      sload\n      dup2\n      sub(shl(0xa0, 0x01), 0x01)\n      mul\n      not\n      and\n      swap1\n      dup4\n      sub(shl(0xa0, 0x01), 0x01)\n      and\n      mul\n      or\n      swap1\n      sstore\n      pop\n      0x60\n      dup3\n      add\n      mload\n      dup2\n      0x03\n      add\n      sstore\n      swap1\n      pop\n      pop\n        /* \"NFT-Contracts/new/finalMarket_single.sol\":9446:9447  1 */\n      0x01\n        /* \"NFT-Contracts/new/finalMarket_single.sol\":9399:9412  nftSaleStatus */\n      0x02\n        /* \"NFT-Contracts/new/finalMarket_single.sol\":9399:9433  nftSaleStatus[_nftContractAddress] */\n      0x00\n        /* \"NFT-Contracts/new/finalMarket_single.sol\":9413:9432  _nftContractAddress */\n      dup14\n      sub(shl(0xa0, 0x01), 0x01)\n        /* \"NFT-Contracts/new/finalMarket_single.sol\":9399:9433  nftSaleStatus[_nftContractAddress] */\n      and\n      sub(shl(0xa0, 0x01), 0x01)\n      and\n      dup2\n      mstore\n      0x20\n      add\n      swap1\n      dup2\n      mstore\n      0x20\n      add\n      0x00\n      keccak256\n        /* \"NFT-Contracts/new/finalMarket_single.sol\":9399:9443  nftSaleStatus[_nftContractAddress][_tokenId] */\n      0x00\n        /* \"NFT-Contracts/new/finalMarket_single.sol\":9434:9442  _tokenId */\n      dup12\n        /* \"NFT-Contracts/new/finalMarket_single.sol\":9399:9443  nftSaleStatus[_nftContractAddress][_tokenId] */\n      dup2\n      mstore\n      0x20\n      add\n      swap1\n      dup2\n      mstore\n      0x20\n      add\n      0x00\n      keccak256\n        /* \"NFT-Contracts/new/finalMarket_single.sol\":9399:9447  nftSaleStatus[_nftContractAddress][_tokenId] = 1 */\n      dup2\n      swap1\n      sstore\n      pop\n        /* \"NFT-Contracts/new/finalMarket_single.sol\":9511:9523  fixedSaleNFT */\n      0x06\n        /* \"NFT-Contracts/new/finalMarket_single.sol\":9511:9530  fixedSaleNFT.length */\n      dup1\n      sload\n      swap1\n      pop\n        /* \"NFT-Contracts/new/finalMarket_single.sol\":9460:9477  indexFixedSaleNFT */\n      0x04\n        /* \"NFT-Contracts/new/finalMarket_single.sol\":9460:9498  indexFixedSaleNFT[_nftContractAddress] */\n      0x00\n        /* \"NFT-Contracts/new/finalMarket_single.sol\":9478:9497  _nftContractAddress */\n      dup14\n      sub(shl(0xa0, 0x01), 0x01)\n        /* \"NFT-Contracts/new/finalMarket_single.sol\":9460:9498  indexFixedSaleNFT[_nftContractAddress] */\n      and\n      sub(shl(0xa0, 0x01), 0x01)\n      and\n      dup2\n      mstore\n      0x20\n      add\n      swap1\n      dup2\n      mstore\n      0x20\n      add\n      0x00\n      keccak256\n        /* \"NFT-Contracts/new/finalMarket_single.sol\":9460:9508  indexFixedSaleNFT[_nftContractAddress][_tokenId] */\n      0x00\n        /* \"NFT-Contracts/new/finalMarket_single.sol\":9499:9507  _tokenId */\n      dup12\n        /* \"NFT-Contracts/new/finalMarket_single.sol\":9460:9508  indexFixedSaleNFT[_nftContractAddress][_tokenId] */\n      dup2\n      mstore\n      0x20\n      add\n      swap1\n      dup2\n      mstore\n      0x20\n      add\n      0x00\n      keccak256\n        /* \"NFT-Contracts/new/finalMarket_single.sol\":9460:9530  indexFixedSaleNFT[_nftContractAddress][_tokenId] = fixedSaleNFT.length */\n      dup2\n      swap1\n      sstore\n      pop\n        /* \"NFT-Contracts/new/finalMarket_single.sol\":9541:9553  fixedSaleNFT */\n      0x06\n        /* \"NFT-Contracts/new/finalMarket_single.sol\":9559:9598  SaleInfo(_nftContractAddress, _tokenId) */\n      mload(0x40)\n      dup1\n      0x40\n      add\n      0x40\n      mstore\n      dup1\n        /* \"NFT-Contracts/new/finalMarket_single.sol\":9568:9587  _nftContractAddress */\n      dup14\n      sub(shl(0xa0, 0x01), 0x01)\n        /* \"NFT-Contracts/new/finalMarket_single.sol\":9559:9598  SaleInfo(_nftContractAddress, _tokenId) */\n      and\n      dup2\n      mstore\n      0x20\n      add\n        /* \"NFT-Contracts/new/finalMarket_single.sol\":9589:9597  _tokenId */\n      dup12\n        /* \"NFT-Contracts/new/finalMarket_single.sol\":9559:9598  SaleInfo(_nftContractAddress, _tokenId) */\n      dup2\n      mstore\n      pop\n        /* \"NFT-Contracts/new/finalMarket_single.sol\":9541:9599  fixedSaleNFT.push(SaleInfo(_nftContractAddress, _tokenId)) */\n      swap1\n      dup1\n      0x01\n      dup2\n      sload\n      add\n      dup1\n      dup3\n      sstore\n      dup1\n      swap2\n      pop\n      pop\n      0x01\n      swap1\n      sub\n      swap1\n      0x00\n      mstore\n      keccak256(0x00, 0x20)\n      swap1\n      0x02\n      mul\n      add\n      0x00\n      swap1\n      swap2\n      swap1\n      swap2\n      swap1\n      swap2\n      pop\n      0x00\n      dup3\n      add\n      mload\n      dup2\n      0x00\n      add\n      exp(0x0100, 0x00)\n      dup2\n      sload\n      dup2\n      sub(shl(0xa0, 0x01), 0x01)\n      mul\n      not\n      and\n      swap1\n      dup4\n      sub(shl(0xa0, 0x01), 0x01)\n      and\n      mul\n      or\n      swap1\n      sstore\n      pop\n      0x20\n      dup3\n      add\n      mload\n      dup2\n      0x01\n      add\n      sstore\n      pop\n      pop\n        /* \"NFT-Contracts/new/finalMarket_single.sol\":9620:9639  _nftContractAddress */\n      dup11\n      sub(shl(0xa0, 0x01), 0x01)\n        /* \"NFT-Contracts/new/finalMarket_single.sol\":9612:9657  IERC721(_nftContractAddress).safeTransferFrom */\n      and\n      0x42842e0e\n        /* \"NFT-Contracts/new/finalMarket_single.sol\":9672:9682  msg.sender */\n      caller\n        /* \"NFT-Contracts/new/finalMarket_single.sol\":9705:9709  this */\n      address\n        /* \"NFT-Contracts/new/finalMarket_single.sol\":9725:9733  _tokenId */\n      dup13\n        /* \"NFT-Contracts/new/finalMarket_single.sol\":9612:9744  IERC721(_nftContractAddress).safeTransferFrom(\r... */\n      mload(0x40)\n      dup5\n      0xffffffff\n      and\n      0xe0\n      shl\n      dup2\n      mstore\n      0x04\n      add\n      tag_251\n      swap4\n      swap3\n      swap2\n      swap1\n      tag_122\n      jump\t// in\n    tag_251:\n      0x00\n      mload(0x40)\n      dup1\n      dup4\n      sub\n      dup2\n      0x00\n      dup8\n      dup1\n      extcodesize\n      iszero\n      dup1\n      iszero\n      tag_252\n      jumpi\n      0x00\n      dup1\n      revert\n    tag_252:\n      pop\n      gas\n      call\n      iszero\n      dup1\n      iszero\n      tag_254\n      jumpi\n      returndatasize\n      0x00\n      dup1\n      returndatacopy\n      revert(0x00, returndatasize)\n    tag_254:\n      pop\n      pop\n      pop\n      pop\n        /* \"NFT-Contracts/new/finalMarket_single.sol\":9762:9943  NftFixedSale(\r... */\n      0x078eead3cd01ed921c7653d000a6b73aea643a7b9c066fb7d93eb2eae8acc2d9\n        /* \"NFT-Contracts/new/finalMarket_single.sol\":9789:9808  _nftContractAddress */\n      dup12\n        /* \"NFT-Contracts/new/finalMarket_single.sol\":9823:9833  msg.sender */\n      caller\n        /* \"NFT-Contracts/new/finalMarket_single.sol\":9848:9854  _erc20 */\n      dup13\n        /* \"NFT-Contracts/new/finalMarket_single.sol\":9869:9877  _tokenId */\n      dup13\n        /* \"NFT-Contracts/new/finalMarket_single.sol\":9892:9902  _salePrice */\n      dup13\n        /* \"NFT-Contracts/new/finalMarket_single.sol\":9917:9932  block.timestamp */\n      timestamp\n        /* \"NFT-Contracts/new/finalMarket_single.sol\":9762:9943  NftFixedSale(\r... */\n      mload(0x40)\n      tag_255\n      swap7\n      swap6\n      swap5\n      swap4\n      swap3\n      swap2\n      swap1\n      sub(shl(0xa0, 0x01), 0x01)\n        /* \"#utility.yul\":5183:5198   */\n      swap7\n      dup8\n      and\n        /* \"#utility.yul\":5165:5199   */\n      dup2\n      mstore\n        /* \"#utility.yul\":5235:5250   */\n      swap5\n      dup7\n      and\n        /* \"#utility.yul\":5230:5232   */\n      0x20\n        /* \"#utility.yul\":5215:5233   */\n      dup7\n      add\n        /* \"#utility.yul\":5208:5251   */\n      mstore\n        /* \"#utility.yul\":5287:5302   */\n      swap3\n      swap1\n      swap5\n      and\n        /* \"#utility.yul\":5282:5284   */\n      0x40\n        /* \"#utility.yul\":5267:5285   */\n      dup5\n      add\n        /* \"#utility.yul\":5260:5303   */\n      mstore\n        /* \"#utility.yul\":5334:5336   */\n      0x60\n        /* \"#utility.yul\":5319:5337   */\n      dup4\n      add\n        /* \"#utility.yul\":5312:5346   */\n      mstore\n        /* \"#utility.yul\":5377:5380   */\n      0x80\n        /* \"#utility.yul\":5362:5381   */\n      dup3\n      add\n        /* \"#utility.yul\":5355:5390   */\n      swap3\n      swap1\n      swap3\n      mstore\n        /* \"#utility.yul\":5145:5148   */\n      0xa0\n        /* \"#utility.yul\":5406:5425   */\n      dup2\n      add\n        /* \"#utility.yul\":5399:5434   */\n      swap2\n      swap1\n      swap2\n      mstore\n        /* \"#utility.yul\":5114:5117   */\n      0xc0\n        /* \"#utility.yul\":5099:5118   */\n      add\n      swap1\n        /* \"#utility.yul\":4840:5440   */\n      jump\n        /* \"NFT-Contracts/new/finalMarket_single.sol\":9762:9943  NftFixedSale(\r... */\n    tag_255:\n      mload(0x40)\n      dup1\n      swap2\n      sub\n      swap1\n      log1\n        /* \"NFT-Contracts/new/finalMarket_single.sol\":4801:4802  _ */\n      pop\n        /* \"NFT-Contracts/new/finalMarket_single.sol\":3499:3500  _ */\n      pop\n      pop\n        /* \"NFT-Contracts/new/finalMarket_single.sol\":4212:4213  _ */\n      pop\n      pop\n        /* \"NFT-Contracts/new/finalMarket_single.sol\":8816:9951  function nftFixedSale(\r... */\n      pop\n      pop\n      pop\n      pop\n      pop\n      pop\n      jump\t// out\n        /* \"NFT-Contracts/new/finalMarket_single.sol\":18622:18846  function getNftAuctionSaleDetails(\r... */\n    tag_80:\n        /* \"NFT-Contracts/new/finalMarket_single.sol\":18751:18765  Auction memory */\n      tag_257\n      mload(0x40)\n      dup1\n      0xe0\n      add\n      0x40\n      mstore\n      dup1\n      0x00\n      dup2\n      mstore\n      0x20\n      add\n      0x00\n      dup2\n      mstore\n      0x20\n      add\n      0x00\n      dup2\n      mstore\n      0x20\n      add\n      0x00\n      dup2\n      mstore\n      0x20\n      add\n      and(sub(shl(0xa0, 0x01), 0x01), 0x00)\n      dup2\n      mstore\n      0x20\n      add\n      and(sub(shl(0xa0, 0x01), 0x01), 0x00)\n      dup2\n      mstore\n      0x20\n      add\n      and(sub(shl(0xa0, 0x01), 0x01), 0x00)\n      dup2\n      mstore\n      pop\n      swap1\n      jump\n    tag_257:\n      pop\n      sub(shl(0xa0, 0x01), 0x01)\n        /* \"NFT-Contracts/new/finalMarket_single.sol\":18785:18828  nftContractAuctionSale[_nftContractAddress] */\n      swap2\n      dup3\n      and\n      0x00\n      swap1\n      dup2\n      mstore\n        /* \"NFT-Contracts/new/finalMarket_single.sol\":18785:18807  nftContractAuctionSale */\n      0x01\n        /* \"NFT-Contracts/new/finalMarket_single.sol\":18785:18828  nftContractAuctionSale[_nftContractAddress] */\n      0x20\n      dup2\n      dup2\n      mstore\n      0x40\n      dup1\n      dup5\n      keccak256\n        /* \"NFT-Contracts/new/finalMarket_single.sol\":18785:18838  nftContractAuctionSale[_nftContractAddress][_tokenId] */\n      swap5\n      dup5\n      mstore\n      swap4\n      dup2\n      mstore\n      swap2\n      dup4\n      swap1\n      keccak256\n        /* \"NFT-Contracts/new/finalMarket_single.sol\":18778:18838  return nftContractAuctionSale[_nftContractAddress][_tokenId] */\n      dup4\n      mload\n      0xe0\n      dup2\n      add\n      dup6\n      mstore\n      dup2\n      sload\n      dup2\n      mstore\n      swap2\n      dup2\n      add\n      sload\n      swap3\n      dup3\n      add\n      swap3\n      swap1\n      swap3\n      mstore\n      0x02\n      dup3\n      add\n      sload\n      swap3\n      dup2\n      add\n      swap3\n      swap1\n      swap3\n      mstore\n      0x03\n      dup2\n      add\n      sload\n      0x60\n      dup4\n      add\n      mstore\n      0x04\n      dup2\n      add\n      sload\n      dup4\n      and\n      0x80\n      dup4\n      add\n      mstore\n      0x05\n      dup2\n      add\n      sload\n      dup4\n      and\n      0xa0\n      dup4\n      add\n      mstore\n      0x06\n      add\n      sload\n      swap1\n      swap2\n      and\n      0xc0\n      dup3\n      add\n      mstore\n      swap1\n        /* \"NFT-Contracts/new/finalMarket_single.sol\":18622:18846  function getNftAuctionSaleDetails(\r... */\n      jump\t// out\n        /* \"NFT-Contracts/new/finalMarket_single.sol\":8494:8783  function Sell_AreveaToken(address _erc20_contract, address seller, uint256 _amount) public returns (bool){\r... */\n    tag_92:\n        /* \"NFT-Contracts/new/finalMarket_single.sol\":8657:8753  IERC20(ERC20_contract).transferFrom(seller, 0x2258c5b9C82ff0Fa923756ED3FD2aCb5616dF57c, _amount) */\n      mload(0x40)\n      shl(0xe0, 0x23b872dd)\n      dup2\n      mstore\n        /* \"NFT-Contracts/new/finalMarket_single.sol\":8594:8598  bool */\n      0x00\n      swap1\n        /* \"NFT-Contracts/new/finalMarket_single.sol\":8633:8648  _erc20_contract */\n      dup5\n      swap1\n      sub(shl(0xa0, 0x01), 0x01)\n        /* \"NFT-Contracts/new/finalMarket_single.sol\":8657:8692  IERC20(ERC20_contract).transferFrom */\n      dup3\n      and\n      swap1\n      0x23b872dd\n      swap1\n        /* \"NFT-Contracts/new/finalMarket_single.sol\":8657:8753  IERC20(ERC20_contract).transferFrom(seller, 0x2258c5b9C82ff0Fa923756ED3FD2aCb5616dF57c, _amount) */\n      tag_121\n      swap1\n        /* \"NFT-Contracts/new/finalMarket_single.sol\":8693:8699  seller */\n      dup8\n      swap1\n        /* \"NFT-Contracts/new/finalMarket_single.sol\":8701:8743  0x2258c5b9C82ff0Fa923756ED3FD2aCb5616dF57c */\n      0x2258c5b9c82ff0fa923756ed3fd2acb5616df57c\n      swap1\n        /* \"NFT-Contracts/new/finalMarket_single.sol\":8745:8752  _amount */\n      dup9\n      swap1\n        /* \"NFT-Contracts/new/finalMarket_single.sol\":8657:8753  IERC20(ERC20_contract).transferFrom(seller, 0x2258c5b9C82ff0Fa923756ED3FD2aCb5616dF57c, _amount) */\n      0x04\n      add\n      tag_122\n      jump\t// in\n        /* \"NFT-Contracts/new/finalMarket_single.sol\":16091:16832  function _cancelAuctionSale(address _nftContractAddress, uint256 _tokenId)\r... */\n    tag_97:\n      sub(shl(0xa0, 0x01), 0x01)\n        /* \"NFT-Contracts/new/finalMarket_single.sol\":3856:3890  nftSaleStatus[_nftContractAddress] */\n      dup3\n      and\n      0x00\n      swap1\n      dup2\n      mstore\n        /* \"NFT-Contracts/new/finalMarket_single.sol\":3856:3869  nftSaleStatus */\n      0x02\n        /* \"NFT-Contracts/new/finalMarket_single.sol\":3856:3890  nftSaleStatus[_nftContractAddress] */\n      0x20\n      dup2\n      dup2\n      mstore\n      0x40\n      dup1\n      dup5\n      keccak256\n        /* \"NFT-Contracts/new/finalMarket_single.sol\":3856:3900  nftSaleStatus[_nftContractAddress][_tokenId] */\n      dup6\n      dup6\n      mstore\n      swap1\n      swap2\n      mstore\n      swap1\n      swap2\n      keccak256\n      sload\n        /* \"NFT-Contracts/new/finalMarket_single.sol\":16212:16231  _nftContractAddress */\n      dup4\n      swap2\n        /* \"NFT-Contracts/new/finalMarket_single.sol\":16233:16241  _tokenId */\n      dup4\n      swap2\n        /* \"NFT-Contracts/new/finalMarket_single.sol\":3856:3905  nftSaleStatus[_nftContractAddress][_tokenId] == 2 */\n      eq\n        /* \"NFT-Contracts/new/finalMarket_single.sol\":3834:3956  require(\r... */\n      tag_267\n      jumpi\n      mload(0x40)\n      shl(0xe5, 0x461bcd)\n      dup2\n      mstore\n      0x04\n      add\n      tag_131\n      swap1\n      tag_132\n      jump\t// in\n    tag_267:\n      sub(shl(0xa0, 0x01), 0x01)\n        /* \"NFT-Contracts/new/finalMarket_single.sol\":6393:6436  nftContractAuctionSale[_nftContractAddress] */\n      dup5\n      dup2\n      and\n      0x00\n      swap1\n      dup2\n      mstore\n        /* \"NFT-Contracts/new/finalMarket_single.sol\":6393:6415  nftContractAuctionSale */\n      0x01\n        /* \"NFT-Contracts/new/finalMarket_single.sol\":6393:6436  nftContractAuctionSale[_nftContractAddress] */\n      0x20\n      swap1\n      dup2\n      mstore\n      0x40\n      dup1\n      dup4\n      keccak256\n        /* \"NFT-Contracts/new/finalMarket_single.sol\":6393:6446  nftContractAuctionSale[_nftContractAddress][_tokenId] */\n      dup8\n      dup5\n      mstore\n      swap1\n      swap2\n      mstore\n      swap1\n      keccak256\n        /* \"NFT-Contracts/new/finalMarket_single.sol\":6393:6456  nftContractAuctionSale[_nftContractAddress][_tokenId].nftSeller */\n      0x05\n      add\n      sload\n        /* \"NFT-Contracts/new/finalMarket_single.sol\":6393:6436  nftContractAuctionSale[_nftContractAddress] */\n      dup6\n      swap2\n        /* \"NFT-Contracts/new/finalMarket_single.sol\":6393:6446  nftContractAuctionSale[_nftContractAddress][_tokenId] */\n      dup6\n      swap2\n        /* \"NFT-Contracts/new/finalMarket_single.sol\":6393:6456  nftContractAuctionSale[_nftContractAddress][_tokenId].nftSeller */\n      and\n        /* \"NFT-Contracts/new/finalMarket_single.sol\":6362:6372  msg.sender */\n      caller\n        /* \"NFT-Contracts/new/finalMarket_single.sol\":6362:6456  msg.sender ==\r... */\n      eq\n        /* \"NFT-Contracts/new/finalMarket_single.sol\":6340:6497  require(\r... */\n      tag_270\n      jumpi\n      mload(0x40)\n      shl(0xe5, 0x461bcd)\n      dup2\n      mstore\n        /* \"#utility.yul\":11422:11424   */\n      0x20\n        /* \"NFT-Contracts/new/finalMarket_single.sol\":6340:6497  require(\r... */\n      0x04\n      dup3\n      add\n        /* \"#utility.yul\":11404:11425   */\n      mstore\n        /* \"#utility.yul\":11461:11463   */\n      0x0d\n        /* \"#utility.yul\":11441:11459   */\n      0x24\n      dup3\n      add\n        /* \"#utility.yul\":11434:11464   */\n      mstore\n      shl(0x99, 0x3737ba1037333a1037bbb732b9)\n        /* \"#utility.yul\":11480:11498   */\n      0x44\n      dup3\n      add\n        /* \"#utility.yul\":11473:11516   */\n      mstore\n        /* \"#utility.yul\":11533:11551   */\n      0x64\n      add\n        /* \"NFT-Contracts/new/finalMarket_single.sol\":6340:6497  require(\r... */\n      tag_131\n        /* \"#utility.yul\":11220:11557   */\n      jump\n        /* \"NFT-Contracts/new/finalMarket_single.sol\":6340:6497  require(\r... */\n    tag_270:\n      sub(shl(0xa0, 0x01), 0x01)\n        /* \"NFT-Contracts/new/finalMarket_single.sol\":6073:6116  nftContractAuctionSale[_nftContractAddress] */\n      dup7\n      and\n      0x00\n      swap1\n      dup2\n      mstore\n        /* \"NFT-Contracts/new/finalMarket_single.sol\":6073:6095  nftContractAuctionSale */\n      0x01\n        /* \"NFT-Contracts/new/finalMarket_single.sol\":6073:6116  nftContractAuctionSale[_nftContractAddress] */\n      0x20\n      dup2\n      dup2\n      mstore\n      0x40\n      dup1\n      dup5\n      keccak256\n        /* \"NFT-Contracts/new/finalMarket_single.sol\":6073:6126  nftContractAuctionSale[_nftContractAddress][_tokenId] */\n      dup10\n      dup6\n      mstore\n      swap1\n      swap2\n      mstore\n      swap1\n      swap2\n      keccak256\n        /* \"NFT-Contracts/new/finalMarket_single.sol\":6073:6159  nftContractAuctionSale[_nftContractAddress][_tokenId]\r... */\n      add\n      sload\n        /* \"NFT-Contracts/new/finalMarket_single.sol\":16331:16350  _nftContractAddress */\n      dup7\n      swap1\n        /* \"NFT-Contracts/new/finalMarket_single.sol\":16352:16360  _tokenId */\n      dup7\n      swap1\n        /* \"NFT-Contracts/new/finalMarket_single.sol\":6038:6053  block.timestamp */\n      timestamp\n        /* \"NFT-Contracts/new/finalMarket_single.sol\":6038:6159  block.timestamp <\r... */\n      lt\n        /* \"NFT-Contracts/new/finalMarket_single.sol\":6016:6198  require(\r... */\n      tag_274\n      jumpi\n      mload(0x40)\n      shl(0xe5, 0x461bcd)\n      dup2\n      mstore\n      0x04\n      add\n      tag_131\n      swap1\n      tag_136\n      jump\t// in\n    tag_274:\n      sub(shl(0xa0, 0x01), 0x01)\n        /* \"NFT-Contracts/new/finalMarket_single.sol\":7592:7635  nftContractAuctionSale[_nftContractAddress] */\n      dup1\n      dup10\n      and\n      0x00\n      swap1\n      dup2\n      mstore\n        /* \"NFT-Contracts/new/finalMarket_single.sol\":7592:7614  nftContractAuctionSale */\n      0x01\n        /* \"NFT-Contracts/new/finalMarket_single.sol\":7592:7635  nftContractAuctionSale[_nftContractAddress] */\n      0x20\n      swap1\n      dup2\n      mstore\n      0x40\n      dup1\n      dup4\n      keccak256\n        /* \"NFT-Contracts/new/finalMarket_single.sol\":7592:7645  nftContractAuctionSale[_nftContractAddress][_tokenId] */\n      dup12\n      dup5\n      mstore\n      swap1\n      swap2\n      mstore\n      swap1\n      keccak256\n        /* \"NFT-Contracts/new/finalMarket_single.sol\":7592:7684  nftContractAuctionSale[_nftContractAddress][_tokenId]\r... */\n      0x04\n      add\n      sload\n        /* \"NFT-Contracts/new/finalMarket_single.sol\":16391:16410  _nftContractAddress */\n      dup10\n      swap2\n        /* \"NFT-Contracts/new/finalMarket_single.sol\":16412:16420  _tokenId */\n      dup10\n      swap2\n        /* \"NFT-Contracts/new/finalMarket_single.sol\":7592:7684  nftContractAuctionSale[_nftContractAddress][_tokenId]\r... */\n      and\n        /* \"NFT-Contracts/new/finalMarket_single.sol\":7561:7684  address(0) ==\r... */\n      iszero\n        /* \"NFT-Contracts/new/finalMarket_single.sol\":7539:7720  require(\r... */\n      tag_277\n      jumpi\n      mload(0x40)\n      shl(0xe5, 0x461bcd)\n      dup2\n      mstore\n        /* \"#utility.yul\":13512:13514   */\n      0x20\n        /* \"NFT-Contracts/new/finalMarket_single.sol\":7539:7720  require(\r... */\n      0x04\n      dup3\n      add\n        /* \"#utility.yul\":13494:13515   */\n      mstore\n        /* \"#utility.yul\":13551:13552   */\n      0x08\n        /* \"#utility.yul\":13531:13549   */\n      0x24\n      dup3\n      add\n        /* \"#utility.yul\":13524:13553   */\n      mstore\n      shl(0xc0, 0x626964206d616b65)\n        /* \"#utility.yul\":13569:13587   */\n      0x44\n      dup3\n      add\n        /* \"#utility.yul\":13562:13600   */\n      mstore\n        /* \"#utility.yul\":13617:13635   */\n      0x64\n      add\n        /* \"NFT-Contracts/new/finalMarket_single.sol\":7539:7720  require(\r... */\n      tag_131\n        /* \"#utility.yul\":13310:13641   */\n      jump\n        /* \"NFT-Contracts/new/finalMarket_single.sol\":7539:7720  require(\r... */\n    tag_277:\n      sub(shl(0xa0, 0x01), 0x01)\n        /* \"NFT-Contracts/new/finalMarket_single.sol\":16438:16472  nftSaleStatus[_nftContractAddress] */\n      dup11\n      and\n        /* \"NFT-Contracts/new/finalMarket_single.sol\":16485:16486  0 */\n      0x00\n        /* \"NFT-Contracts/new/finalMarket_single.sol\":16438:16472  nftSaleStatus[_nftContractAddress] */\n      dup2\n      dup2\n      mstore\n        /* \"NFT-Contracts/new/finalMarket_single.sol\":16438:16451  nftSaleStatus */\n      0x02\n        /* \"NFT-Contracts/new/finalMarket_single.sol\":16438:16472  nftSaleStatus[_nftContractAddress] */\n      0x20\n      swap1\n      dup2\n      mstore\n      0x40\n      dup1\n      dup4\n      keccak256\n        /* \"NFT-Contracts/new/finalMarket_single.sol\":16438:16482  nftSaleStatus[_nftContractAddress][_tokenId] */\n      dup14\n      dup5\n      mstore\n      swap1\n      swap2\n      mstore\n      dup1\n      dup3\n      keccak256\n        /* \"NFT-Contracts/new/finalMarket_single.sol\":16438:16486  nftSaleStatus[_nftContractAddress][_tokenId] = 0 */\n      swap2\n      swap1\n      swap2\n      sstore\n        /* \"NFT-Contracts/new/finalMarket_single.sol\":16499:16631  IERC721(_nftContractAddress).safeTransferFrom(\r... */\n      mload\n      shl(0xe1, 0x21421707)\n      dup2\n      mstore\n        /* \"NFT-Contracts/new/finalMarket_single.sol\":16499:16544  IERC721(_nftContractAddress).safeTransferFrom */\n      0x42842e0e\n      swap1\n        /* \"NFT-Contracts/new/finalMarket_single.sol\":16499:16631  IERC721(_nftContractAddress).safeTransferFrom(\r... */\n      tag_281\n      swap1\n        /* \"NFT-Contracts/new/finalMarket_single.sol\":16567:16571  this */\n      address\n      swap1\n        /* \"NFT-Contracts/new/finalMarket_single.sol\":16587:16597  msg.sender */\n      caller\n      swap1\n        /* \"NFT-Contracts/new/finalMarket_single.sol\":16473:16481  _tokenId */\n      dup15\n      swap1\n        /* \"NFT-Contracts/new/finalMarket_single.sol\":16499:16631  IERC721(_nftContractAddress).safeTransferFrom(\r... */\n      0x04\n      add\n      tag_122\n      jump\t// in\n    tag_281:\n      0x00\n      mload(0x40)\n      dup1\n      dup4\n      sub\n      dup2\n      0x00\n      dup8\n      dup1\n      extcodesize\n      iszero\n      dup1\n      iszero\n      tag_282\n      jumpi\n      0x00\n      dup1\n      revert\n    tag_282:\n      pop\n      gas\n      call\n      iszero\n      dup1\n      iszero\n      tag_284\n      jumpi\n      returndatasize\n      0x00\n      dup1\n      returndatacopy\n      revert(0x00, returndatasize)\n    tag_284:\n      pop\n      pop\n      pop\n      sub(shl(0xa0, 0x01), 0x01)\n        /* \"NFT-Contracts/new/finalMarket_single.sol\":16681:16721  indexAuctionSaleNFT[_nftContractAddress] */\n      dup12\n      and\n      0x00\n      swap1\n      dup2\n      mstore\n        /* \"NFT-Contracts/new/finalMarket_single.sol\":16681:16700  indexAuctionSaleNFT */\n      0x05\n        /* \"NFT-Contracts/new/finalMarket_single.sol\":16681:16721  indexAuctionSaleNFT[_nftContractAddress] */\n      0x20\n      swap1\n      dup2\n      mstore\n      0x40\n      dup1\n      dup4\n      keccak256\n        /* \"NFT-Contracts/new/finalMarket_single.sol\":16681:16731  indexAuctionSaleNFT[_nftContractAddress][_tokenId] */\n      dup14\n      dup5\n      mstore\n      swap1\n      swap2\n      mstore\n      swap1\n      keccak256\n      sload\n        /* \"NFT-Contracts/new/finalMarket_single.sol\":16651:16665  auctionSaleNFT */\n      0x07\n        /* \"NFT-Contracts/new/finalMarket_single.sol\":16651:16743  auctionSaleNFT[\r... */\n      dup1\n      sload\n        /* \"NFT-Contracts/new/finalMarket_single.sol\":16651:16665  auctionSaleNFT */\n      swap1\n      swap3\n      pop\n        /* \"NFT-Contracts/new/finalMarket_single.sol\":16651:16743  auctionSaleNFT[\r... */\n      dup2\n      lt\n      tag_286\n      jumpi\n      tag_286\n      tag_219\n      jump\t// in\n    tag_286:\n      0x00\n      swap2\n      dup3\n      mstore\n      0x20\n      dup1\n      dup4\n      keccak256\n      0x02\n      swap3\n      swap1\n      swap3\n      mul\n      swap1\n      swap2\n      add\n        /* \"NFT-Contracts/new/finalMarket_single.sol\":16644:16743  delete auctionSaleNFT[\r... */\n      dup1\n      sload\n      not(sub(shl(0xa0, 0x01), 0x01))\n      and\n      dup2\n      sstore\n      0x01\n      add\n      swap2\n      swap1\n      swap2\n      sstore\n        /* \"NFT-Contracts/new/finalMarket_single.sol\":16761:16824  CancelNftAuctionSale(_nftContractAddress, _tokenId, msg.sender) */\n      0x40\n      dup1\n      mload\n      sub(shl(0xa0, 0x01), 0x01)\n        /* \"#utility.yul\":7491:7506   */\n      dup14\n      and\n        /* \"#utility.yul\":7473:7507   */\n      dup2\n      mstore\n        /* \"#utility.yul\":7523:7541   */\n      swap2\n      dup3\n      add\n        /* \"#utility.yul\":7516:7550   */\n      dup12\n      swap1\n      mstore\n        /* \"NFT-Contracts/new/finalMarket_single.sol\":16813:16823  msg.sender */\n      caller\n        /* \"#utility.yul\":7566:7584   */\n      dup3\n      dup3\n      add\n        /* \"#utility.yul\":7559:7602   */\n      mstore\n        /* \"NFT-Contracts/new/finalMarket_single.sol\":16761:16824  CancelNftAuctionSale(_nftContractAddress, _tokenId, msg.sender) */\n      mload\n      0xb9d411977d4ee731f87bb8f16eb6f8c1fb579cff684642052bf6084e6e33238d\n      swap2\n      dup2\n      swap1\n      sub\n        /* \"#utility.yul\":7423:7425   */\n      0x60\n        /* \"NFT-Contracts/new/finalMarket_single.sol\":16761:16824  CancelNftAuctionSale(_nftContractAddress, _tokenId, msg.sender) */\n      add\n      swap1\n      log1\n        /* \"NFT-Contracts/new/finalMarket_single.sol\":6209:6210  _ */\n      pop\n      pop\n        /* \"NFT-Contracts/new/finalMarket_single.sol\":6508:6509  _ */\n      pop\n      pop\n        /* \"NFT-Contracts/new/finalMarket_single.sol\":3967:3968  _ */\n      pop\n      pop\n        /* \"NFT-Contracts/new/finalMarket_single.sol\":16091:16832  function _cancelAuctionSale(address _nftContractAddress, uint256 _tokenId)\r... */\n      pop\n      pop\n      pop\n      pop\n      jump\t// out\n        /* \"NFT-Contracts/new/finalMarket_single.sol\":18973:19080  function getFixedSaleNFT() external view returns (SaleInfo[] memory) {\r... */\n    tag_106:\n        /* \"NFT-Contracts/new/finalMarket_single.sol\":19023:19040  SaleInfo[] memory */\n      0x60\n        /* \"NFT-Contracts/new/finalMarket_single.sol\":19060:19072  fixedSaleNFT */\n      0x06\n        /* \"NFT-Contracts/new/finalMarket_single.sol\":19053:19072  return fixedSaleNFT */\n      dup1\n      sload\n      dup1\n      0x20\n      mul\n      0x20\n      add\n      mload(0x40)\n      swap1\n      dup2\n      add\n      0x40\n      mstore\n      dup1\n      swap3\n      swap2\n      swap1\n      dup2\n      dup2\n      mstore\n      0x20\n      add\n      0x00\n      swap1\n      dup3\n      dup3\n      lt\n      iszero\n      tag_157\n      jumpi\n      0x00\n      dup5\n      dup2\n      mstore\n      0x20\n      swap1\n      dup2\n      swap1\n      keccak256\n      0x40\n      dup1\n      mload\n      dup1\n      dup3\n      add\n      swap1\n      swap2\n      mstore\n      0x02\n      dup6\n      mul\n      swap1\n      swap2\n      add\n      dup1\n      sload\n      sub(shl(0xa0, 0x01), 0x01)\n      and\n      dup3\n      mstore\n      0x01\n      swap1\n      dup2\n      add\n      sload\n      dup3\n      dup5\n      add\n      mstore\n      swap1\n      dup4\n      mstore\n      swap1\n      swap3\n      add\n      swap2\n      add\n      jump(tag_156)\n        /* \"NFT-Contracts/new/finalMarket_single.sol\":11139:12278  function buyFromFixedSale(\r... */\n    tag_110:\n      sub(shl(0xa0, 0x01), 0x01)\n        /* \"NFT-Contracts/new/finalMarket_single.sol\":3622:3656  nftSaleStatus[_nftContractAddress] */\n      dup4\n      and\n      0x00\n      swap1\n      dup2\n      mstore\n        /* \"NFT-Contracts/new/finalMarket_single.sol\":3622:3635  nftSaleStatus */\n      0x02\n        /* \"NFT-Contracts/new/finalMarket_single.sol\":3622:3656  nftSaleStatus[_nftContractAddress] */\n      0x20\n      swap1\n      dup2\n      mstore\n      0x40\n      dup1\n      dup4\n      keccak256\n        /* \"NFT-Contracts/new/finalMarket_single.sol\":3622:3666  nftSaleStatus[_nftContractAddress][_tokenId] */\n      dup6\n      dup5\n      mstore\n      swap1\n      swap2\n      mstore\n      swap1\n      keccak256\n      sload\n        /* \"NFT-Contracts/new/finalMarket_single.sol\":11324:11343  _nftContractAddress */\n      dup4\n      swap1\n        /* \"NFT-Contracts/new/finalMarket_single.sol\":11345:11353  _tokenId */\n      dup4\n      swap1\n        /* \"NFT-Contracts/new/finalMarket_single.sol\":3670:3671  1 */\n      0x01\n        /* \"NFT-Contracts/new/finalMarket_single.sol\":3622:3671  nftSaleStatus[_nftContractAddress][_tokenId] == 1 */\n      eq\n        /* \"NFT-Contracts/new/finalMarket_single.sol\":3600:3720  require(\r... */\n      tag_297\n      jumpi\n      mload(0x40)\n      shl(0xe5, 0x461bcd)\n      dup2\n      mstore\n      0x04\n      add\n      tag_131\n      swap1\n      tag_184\n      jump\t// in\n    tag_297:\n        /* \"NFT-Contracts/new/finalMarket_single.sol\":11385:11392  _amount */\n      dup3\n        /* \"NFT-Contracts/new/finalMarket_single.sol\":8153:8154  0 */\n      0x00\n        /* \"NFT-Contracts/new/finalMarket_single.sol\":8144:8150  _price */\n      dup2\n        /* \"NFT-Contracts/new/finalMarket_single.sol\":8144:8154  _price > 0 */\n      gt\n        /* \"NFT-Contracts/new/finalMarket_single.sol\":8136:8176  require(_price > 0, \"Price cannot be 0\") */\n      tag_300\n      jumpi\n      mload(0x40)\n      shl(0xe5, 0x461bcd)\n      dup2\n      mstore\n      0x04\n      add\n      tag_131\n      swap1\n      tag_140\n      jump\t// in\n    tag_300:\n      sub(shl(0xa0, 0x01), 0x01)\n        /* \"NFT-Contracts/new/finalMarket_single.sol\":7942:7983  nftContractFixedSale[_nftContractAddress] */\n      dup7\n      and\n        /* \"NFT-Contracts/new/finalMarket_single.sol\":7942:7962  nftContractFixedSale */\n      0x00\n        /* \"NFT-Contracts/new/finalMarket_single.sol\":7942:7983  nftContractFixedSale[_nftContractAddress] */\n      swap1\n      dup2\n      mstore\n      0x20\n      dup2\n      dup2\n      mstore\n      0x40\n      dup1\n      dup4\n      keccak256\n        /* \"NFT-Contracts/new/finalMarket_single.sol\":7942:7993  nftContractFixedSale[_nftContractAddress][_tokenId] */\n      dup9\n      dup5\n      mstore\n      swap1\n      swap2\n      mstore\n      swap1\n      keccak256\n        /* \"NFT-Contracts/new/finalMarket_single.sol\":7942:8003  nftContractFixedSale[_nftContractAddress][_tokenId].salePrice */\n      0x03\n      add\n      sload\n        /* \"NFT-Contracts/new/finalMarket_single.sol\":11425:11444  _nftContractAddress */\n      dup7\n      swap1\n        /* \"NFT-Contracts/new/finalMarket_single.sol\":11446:11454  _tokenId */\n      dup7\n      swap1\n        /* \"NFT-Contracts/new/finalMarket_single.sol\":11456:11463  _amount */\n      dup7\n      swap1\n        /* \"NFT-Contracts/new/finalMarket_single.sol\":7912:8003  _buyPrice >=\r... */\n      dup2\n      lt\n      iszero\n        /* \"NFT-Contracts/new/finalMarket_single.sol\":7890:8051  require(\r... */\n      tag_303\n      jumpi\n      mload(0x40)\n      shl(0xe5, 0x461bcd)\n      dup2\n      mstore\n        /* \"#utility.yul\":15239:15241   */\n      0x20\n        /* \"NFT-Contracts/new/finalMarket_single.sol\":7890:8051  require(\r... */\n      0x04\n      dup3\n      add\n        /* \"#utility.yul\":15221:15242   */\n      mstore\n        /* \"#utility.yul\":15278:15280   */\n      0x14\n        /* \"#utility.yul\":15258:15276   */\n      0x24\n      dup3\n      add\n        /* \"#utility.yul\":15251:15281   */\n      mstore\n      shl(0x63, 0x0c4eaf240a0e4d2c6ca40dcdee840cadcdeeaced)\n        /* \"#utility.yul\":15297:15315   */\n      0x44\n      dup3\n      add\n        /* \"#utility.yul\":15290:15340   */\n      mstore\n        /* \"#utility.yul\":15357:15375   */\n      0x64\n      add\n        /* \"NFT-Contracts/new/finalMarket_single.sol\":7890:8051  require(\r... */\n      tag_131\n        /* \"#utility.yul\":15037:15381   */\n      jump\n        /* \"NFT-Contracts/new/finalMarket_single.sol\":7890:8051  require(\r... */\n    tag_303:\n        /* \"NFT-Contracts/new/finalMarket_single.sol\":11481:11613  IERC721(_nftContractAddress).safeTransferFrom(\r... */\n      mload(0x40)\n      shl(0xe1, 0x21421707)\n      dup2\n      mstore\n      sub(shl(0xa0, 0x01), 0x01)\n        /* \"NFT-Contracts/new/finalMarket_single.sol\":11481:11526  IERC721(_nftContractAddress).safeTransferFrom */\n      dup11\n      and\n      swap1\n      0x42842e0e\n      swap1\n        /* \"NFT-Contracts/new/finalMarket_single.sol\":11481:11613  IERC721(_nftContractAddress).safeTransferFrom(\r... */\n      tag_307\n      swap1\n        /* \"NFT-Contracts/new/finalMarket_single.sol\":11549:11553  this */\n      address\n      swap1\n        /* \"NFT-Contracts/new/finalMarket_single.sol\":11569:11579  msg.sender */\n      caller\n      swap1\n        /* \"NFT-Contracts/new/finalMarket_single.sol\":11594:11602  _tokenId */\n      dup14\n      swap1\n        /* \"NFT-Contracts/new/finalMarket_single.sol\":11481:11613  IERC721(_nftContractAddress).safeTransferFrom(\r... */\n      0x04\n      add\n      tag_122\n      jump\t// in\n    tag_307:\n      0x00\n      mload(0x40)\n      dup1\n      dup4\n      sub\n      dup2\n      0x00\n      dup8\n      dup1\n      extcodesize\n      iszero\n      dup1\n      iszero\n      tag_308\n      jumpi\n      0x00\n      dup1\n      revert\n    tag_308:\n      pop\n      gas\n      call\n      iszero\n      dup1\n      iszero\n      tag_310\n      jumpi\n      returndatasize\n      0x00\n      dup1\n      returndatacopy\n      revert(0x00, returndatasize)\n    tag_310:\n      pop\n      pop\n      pop\n      sub(shl(0xa0, 0x01), 0x01)\n        /* \"NFT-Contracts/new/finalMarket_single.sol\":11626:11660  nftSaleStatus[_nftContractAddress] */\n      dup11\n      and\n        /* \"NFT-Contracts/new/finalMarket_single.sol\":11673:11674  0 */\n      0x00\n        /* \"NFT-Contracts/new/finalMarket_single.sol\":11626:11660  nftSaleStatus[_nftContractAddress] */\n      dup2\n      dup2\n      mstore\n        /* \"NFT-Contracts/new/finalMarket_single.sol\":11626:11639  nftSaleStatus */\n      0x02\n        /* \"NFT-Contracts/new/finalMarket_single.sol\":11626:11660  nftSaleStatus[_nftContractAddress] */\n      0x20\n      swap1\n      dup2\n      mstore\n      0x40\n      dup1\n      dup4\n      keccak256\n        /* \"NFT-Contracts/new/finalMarket_single.sol\":11626:11670  nftSaleStatus[_nftContractAddress][_tokenId] */\n      dup14\n      dup5\n      mstore\n      dup3\n      mstore\n      dup1\n      dup4\n      keccak256\n        /* \"NFT-Contracts/new/finalMarket_single.sol\":11626:11674  nftSaleStatus[_nftContractAddress][_tokenId] = 0 */\n      dup4\n      swap1\n      sstore\n        /* \"NFT-Contracts/new/finalMarket_single.sol\":11706:11744  indexFixedSaleNFT[_nftContractAddress] */\n      swap3\n      dup3\n      mstore\n        /* \"NFT-Contracts/new/finalMarket_single.sol\":11706:11723  indexFixedSaleNFT */\n      0x04\n        /* \"NFT-Contracts/new/finalMarket_single.sol\":11706:11744  indexFixedSaleNFT[_nftContractAddress] */\n      dup2\n      mstore\n      dup3\n      dup3\n      keccak256\n        /* \"NFT-Contracts/new/finalMarket_single.sol\":11706:11754  indexFixedSaleNFT[_nftContractAddress][_tokenId] */\n      dup13\n      dup4\n      mstore\n      swap1\n      mstore\n      keccak256\n      sload\n        /* \"NFT-Contracts/new/finalMarket_single.sol\":11692:11704  fixedSaleNFT */\n      0x06\n        /* \"NFT-Contracts/new/finalMarket_single.sol\":11692:11756  fixedSaleNFT[(indexFixedSaleNFT[_nftContractAddress][_tokenId])] */\n      dup1\n      sload\n        /* \"NFT-Contracts/new/finalMarket_single.sol\":11692:11704  fixedSaleNFT */\n      swap1\n      swap3\n      pop\n        /* \"NFT-Contracts/new/finalMarket_single.sol\":11692:11756  fixedSaleNFT[(indexFixedSaleNFT[_nftContractAddress][_tokenId])] */\n      dup2\n      lt\n      tag_312\n      jumpi\n      tag_312\n      tag_219\n      jump\t// in\n    tag_312:\n      0x00\n      swap2\n      dup3\n      mstore\n      0x20\n      dup1\n      dup4\n      keccak256\n      0x02\n      swap3\n      dup4\n      mul\n      add\n        /* \"NFT-Contracts/new/finalMarket_single.sol\":11685:11756  delete fixedSaleNFT[(indexFixedSaleNFT[_nftContractAddress][_tokenId])] */\n      dup1\n      sload\n      not(sub(shl(0xa0, 0x01), 0x01))\n      swap1\n      dup2\n      and\n      dup3\n      sstore\n      0x01\n      swap2\n      dup3\n      add\n      dup6\n      swap1\n      sstore\n      sub(shl(0xa0, 0x01), 0x01)\n        /* \"NFT-Contracts/new/finalMarket_single.sol\":11769:11810  nftContractFixedSale[_nftContractAddress] */\n      dup15\n      dup2\n      and\n      dup7\n      mstore\n      dup6\n      dup5\n      mstore\n      0x40\n      dup1\n      dup8\n      keccak256\n        /* \"NFT-Contracts/new/finalMarket_single.sol\":11769:11820  nftContractFixedSale[_nftContractAddress][_tokenId] */\n      dup16\n      dup9\n      mstore\n      swap1\n      swap5\n      mstore\n      swap3\n      swap1\n      swap5\n      keccak256\n        /* \"NFT-Contracts/new/finalMarket_single.sol\":11769:11829  nftContractFixedSale[_nftContractAddress][_tokenId].nftBuyer */\n      swap1\n      dup2\n      add\n        /* \"NFT-Contracts/new/finalMarket_single.sol\":11769:11856  nftContractFixedSale[_nftContractAddress][_tokenId].nftBuyer = msg\r... */\n      dup1\n      sload\n      swap1\n      swap5\n      and\n        /* \"NFT-Contracts/new/finalMarket_single.sol\":11832:11856  msg\r... */\n      caller\n        /* \"NFT-Contracts/new/finalMarket_single.sol\":11769:11856  nftContractFixedSale[_nftContractAddress][_tokenId].nftBuyer = msg\r... */\n      or\n      swap1\n      swap4\n      sstore\n        /* \"NFT-Contracts/new/finalMarket_single.sol\":11898:11959  nftContractFixedSale[_nftContractAddress][_tokenId].nftSeller */\n      dup3\n      sload\n        /* \"NFT-Contracts/new/finalMarket_single.sol\":11974:12031  nftContractFixedSale[_nftContractAddress][_tokenId].erc20 */\n      swap2\n      dup4\n      add\n      sload\n        /* \"NFT-Contracts/new/finalMarket_single.sol\":12046:12107  nftContractFixedSale[_nftContractAddress][_tokenId].salePrice */\n      0x03\n      swap1\n      swap4\n      add\n      sload\n        /* \"NFT-Contracts/new/finalMarket_single.sol\":11869:12118  _isTokenOrCoin(\r... */\n      tag_314\n      swap4\n        /* \"NFT-Contracts/new/finalMarket_single.sol\":11898:11959  nftContractFixedSale[_nftContractAddress][_tokenId].nftSeller */\n      swap3\n      dup3\n      and\n      swap3\n        /* \"NFT-Contracts/new/finalMarket_single.sol\":11974:12031  nftContractFixedSale[_nftContractAddress][_tokenId].erc20 */\n      swap1\n      swap2\n      and\n      swap1\n        /* \"NFT-Contracts/new/finalMarket_single.sol\":11869:11883  _isTokenOrCoin */\n      tag_315\n        /* \"NFT-Contracts/new/finalMarket_single.sol\":11869:12118  _isTokenOrCoin(\r... */\n      jump\t// in\n    tag_314:\n        /* \"NFT-Contracts/new/finalMarket_single.sol\":12136:12270  NftBuyFromFixedSale(\r... */\n      0x40\n      dup1\n      mload\n      sub(shl(0xa0, 0x01), 0x01)\n        /* \"#utility.yul\":6789:6804   */\n      dup12\n      and\n        /* \"#utility.yul\":6771:6805   */\n      dup2\n      mstore\n        /* \"NFT-Contracts/new/finalMarket_single.sol\":12204:12214  msg.sender */\n      caller\n        /* \"#utility.yul\":6836:6838   */\n      0x20\n        /* \"#utility.yul\":6821:6839   */\n      dup3\n      add\n        /* \"#utility.yul\":6814:6857   */\n      mstore\n        /* \"#utility.yul\":6873:6891   */\n      swap1\n      dup2\n      add\n        /* \"#utility.yul\":6866:6900   */\n      dup10\n      swap1\n      mstore\n        /* \"#utility.yul\":6931:6933   */\n      0x60\n        /* \"#utility.yul\":6916:6934   */\n      dup2\n      add\n        /* \"#utility.yul\":6909:6943   */\n      dup9\n      swap1\n      mstore\n        /* \"NFT-Contracts/new/finalMarket_single.sol\":12136:12270  NftBuyFromFixedSale(\r... */\n      0x9fa3b1bb9266e05722b54a7a564d02a274bc80d39f4af21e6be405480996ceba\n      swap1\n        /* \"#utility.yul\":6720:6723   */\n      0x80\n        /* \"#utility.yul\":6705:6724   */\n      add\n        /* \"NFT-Contracts/new/finalMarket_single.sol\":12136:12270  NftBuyFromFixedSale(\r... */\n      mload(0x40)\n      dup1\n      swap2\n      sub\n      swap1\n      log1\n        /* \"NFT-Contracts/new/finalMarket_single.sol\":8187:8188  _ */\n      pop\n      pop\n      pop\n        /* \"NFT-Contracts/new/finalMarket_single.sol\":3731:3732  _ */\n      pop\n        /* \"NFT-Contracts/new/finalMarket_single.sol\":11139:12278  function buyFromFixedSale(\r... */\n      pop\n      pop\n      pop\n      pop\n      pop\n      jump\t// out\n        /* \"NFT-Contracts/new/finalMarket_single.sol\":12313:13376  function createNftAuctionSale(\r... */\n    tag_115:\n        /* \"NFT-Contracts/new/finalMarket_single.sol\":4106:4152  IERC721(_nftContractAddress).ownerOf(_tokenId) */\n      mload(0x40)\n      shl(0xe1, 0x31a9108f)\n      dup2\n      mstore\n      0x04\n      dup2\n      add\n        /* \"#utility.yul\":17092:17117   */\n      dup6\n      swap1\n      mstore\n        /* \"NFT-Contracts/new/finalMarket_single.sol\":12576:12595  _nftContractAddress */\n      dup7\n      swap1\n        /* \"NFT-Contracts/new/finalMarket_single.sol\":12597:12605  _tokenId */\n      dup6\n      swap1\n      sub(shl(0xa0, 0x01), 0x01)\n        /* \"NFT-Contracts/new/finalMarket_single.sol\":4106:4142  IERC721(_nftContractAddress).ownerOf */\n      dup4\n      and\n      swap1\n      0x6352211e\n      swap1\n        /* \"#utility.yul\":17065:17083   */\n      0x24\n      add\n        /* \"NFT-Contracts/new/finalMarket_single.sol\":4106:4152  IERC721(_nftContractAddress).ownerOf(_tokenId) */\n      0x20\n      mload(0x40)\n      dup1\n      dup4\n      sub\n      dup2\n      dup7\n      dup1\n      extcodesize\n      iszero\n      dup1\n      iszero\n      tag_320\n      jumpi\n      0x00\n      dup1\n      revert\n    tag_320:\n      pop\n      gas\n      staticcall\n      iszero\n      dup1\n      iszero\n      tag_322\n      jumpi\n      returndatasize\n      0x00\n      dup1\n      returndatacopy\n      revert(0x00, returndatasize)\n    tag_322:\n      pop\n      pop\n      pop\n      pop\n      mload(0x40)\n      returndatasize\n      not(0x1f)\n      0x1f\n      dup3\n      add\n      and\n      dup3\n      add\n      dup1\n      0x40\n      mstore\n      pop\n      dup2\n      add\n      swap1\n      tag_323\n      swap2\n      swap1\n      tag_229\n      jump\t// in\n    tag_323:\n      sub(shl(0xa0, 0x01), 0x01)\n        /* \"NFT-Contracts/new/finalMarket_single.sol\":4092:4152  msg.sender == IERC721(_nftContractAddress).ownerOf(_tokenId) */\n      and\n        /* \"NFT-Contracts/new/finalMarket_single.sol\":4092:4102  msg.sender */\n      caller\n      sub(shl(0xa0, 0x01), 0x01)\n        /* \"NFT-Contracts/new/finalMarket_single.sol\":4092:4152  msg.sender == IERC721(_nftContractAddress).ownerOf(_tokenId) */\n      and\n      eq\n        /* \"NFT-Contracts/new/finalMarket_single.sol\":4070:4201  require(\r... */\n      tag_324\n      jumpi\n      mload(0x40)\n      shl(0xe5, 0x461bcd)\n      dup2\n      mstore\n      0x04\n      add\n      tag_131\n      swap1\n      tag_188\n      jump\t// in\n    tag_324:\n      sub(shl(0xa0, 0x01), 0x01)\n        /* \"NFT-Contracts/new/finalMarket_single.sol\":3392:3426  nftSaleStatus[_nftContractAddress] */\n      dup9\n      and\n      0x00\n      swap1\n      dup2\n      mstore\n        /* \"NFT-Contracts/new/finalMarket_single.sol\":3392:3405  nftSaleStatus */\n      0x02\n        /* \"NFT-Contracts/new/finalMarket_single.sol\":3392:3426  nftSaleStatus[_nftContractAddress] */\n      0x20\n      swap1\n      dup2\n      mstore\n      0x40\n      dup1\n      dup4\n      keccak256\n        /* \"NFT-Contracts/new/finalMarket_single.sol\":3392:3436  nftSaleStatus[_nftContractAddress][_tokenId] */\n      dup10\n      dup5\n      mstore\n      swap1\n      swap2\n      mstore\n      swap1\n      keccak256\n      sload\n        /* \"NFT-Contracts/new/finalMarket_single.sol\":12635:12654  _nftContractAddress */\n      dup9\n      swap1\n        /* \"NFT-Contracts/new/finalMarket_single.sol\":12656:12664  _tokenId */\n      dup8\n      swap1\n        /* \"NFT-Contracts/new/finalMarket_single.sol\":3392:3441  nftSaleStatus[_nftContractAddress][_tokenId] == 0 */\n      iszero\n        /* \"NFT-Contracts/new/finalMarket_single.sol\":3370:3488  require(\r... */\n      tag_327\n      jumpi\n      mload(0x40)\n      shl(0xe5, 0x461bcd)\n      dup2\n      mstore\n        /* \"#utility.yul\":13164:13166   */\n      0x20\n        /* \"NFT-Contracts/new/finalMarket_single.sol\":3370:3488  require(\r... */\n      0x04\n      dup3\n      add\n        /* \"#utility.yul\":13146:13167   */\n      mstore\n        /* \"#utility.yul\":13203:13205   */\n      0x13\n        /* \"#utility.yul\":13183:13201   */\n      0x24\n      dup3\n      add\n        /* \"#utility.yul\":13176:13206   */\n      mstore\n      shl(0x68, 0x4e667420616c726561647920696e2073616c65)\n        /* \"#utility.yul\":13222:13240   */\n      0x44\n      dup3\n      add\n        /* \"#utility.yul\":13215:13264   */\n      mstore\n        /* \"#utility.yul\":13281:13299   */\n      0x64\n      add\n        /* \"NFT-Contracts/new/finalMarket_single.sol\":3370:3488  require(\r... */\n      tag_131\n        /* \"#utility.yul\":12962:13305   */\n      jump\n        /* \"NFT-Contracts/new/finalMarket_single.sol\":3370:3488  require(\r... */\n    tag_327:\n        /* \"NFT-Contracts/new/finalMarket_single.sol\":4613:4734  IERC721(_nftContractAddress).isApprovedForAll(\r... */\n      mload(0x40)\n      shl(0xe0, 0xe985e9c5)\n      dup2\n      mstore\n        /* \"NFT-Contracts/new/finalMarket_single.sol\":4677:4687  msg.sender */\n      caller\n        /* \"NFT-Contracts/new/finalMarket_single.sol\":4613:4734  IERC721(_nftContractAddress).isApprovedForAll(\r... */\n      0x04\n      dup3\n      add\n        /* \"#utility.yul\":4743:4777   */\n      mstore\n        /* \"NFT-Contracts/new/finalMarket_single.sol\":4714:4718  this */\n      address\n        /* \"#utility.yul\":4793:4811   */\n      0x24\n      dup3\n      add\n        /* \"#utility.yul\":4786:4829   */\n      mstore\n        /* \"NFT-Contracts/new/finalMarket_single.sol\":12693:12712  _nftContractAddress */\n      dup11\n      swap1\n        /* \"NFT-Contracts/new/finalMarket_single.sol\":12714:12722  _tokenId */\n      dup10\n      swap1\n      sub(shl(0xa0, 0x01), 0x01)\n        /* \"NFT-Contracts/new/finalMarket_single.sol\":4613:4658  IERC721(_nftContractAddress).isApprovedForAll */\n      dup4\n      and\n      swap1\n      0xe985e9c5\n      swap1\n        /* \"#utility.yul\":4678:4696   */\n      0x44\n      add\n        /* \"NFT-Contracts/new/finalMarket_single.sol\":4613:4734  IERC721(_nftContractAddress).isApprovedForAll(\r... */\n      0x20\n      mload(0x40)\n      dup1\n      dup4\n      sub\n      dup2\n      dup7\n      dup1\n      extcodesize\n      iszero\n      dup1\n      iszero\n      tag_331\n      jumpi\n      0x00\n      dup1\n      revert\n    tag_331:\n      pop\n      gas\n      staticcall\n      iszero\n      dup1\n      iszero\n      tag_333\n      jumpi\n      returndatasize\n      0x00\n      dup1\n      returndatacopy\n      revert(0x00, returndatasize)\n    tag_333:\n      pop\n      pop\n      pop\n      pop\n      mload(0x40)\n      returndatasize\n      not(0x1f)\n      0x1f\n      dup3\n      add\n      and\n      dup3\n      add\n      dup1\n      0x40\n      mstore\n      pop\n      dup2\n      add\n      swap1\n      tag_334\n      swap2\n      swap1\n      tag_127\n      jump\t// in\n    tag_334:\n        /* \"NFT-Contracts/new/finalMarket_single.sol\":4591:4790  require(\r... */\n      tag_335\n      jumpi\n      mload(0x40)\n      shl(0xe5, 0x461bcd)\n      dup2\n      mstore\n        /* \"#utility.yul\":10719:10721   */\n      0x20\n        /* \"NFT-Contracts/new/finalMarket_single.sol\":4591:4790  require(\r... */\n      0x04\n      dup3\n      add\n        /* \"#utility.yul\":10701:10722   */\n      mstore\n        /* \"#utility.yul\":10758:10760   */\n      0x1c\n        /* \"#utility.yul\":10738:10756   */\n      0x24\n      dup3\n      add\n        /* \"#utility.yul\":10731:10761   */\n      mstore\n        /* \"#utility.yul\":10797:10827   */\n      0x4e6674206e6f7420617070726f76656420746f20636f6e747261637400000000\n        /* \"#utility.yul\":10777:10795   */\n      0x44\n      dup3\n      add\n        /* \"#utility.yul\":10770:10828   */\n      mstore\n        /* \"#utility.yul\":10845:10863   */\n      0x64\n      add\n        /* \"NFT-Contracts/new/finalMarket_single.sol\":4591:4790  require(\r... */\n      tag_131\n        /* \"#utility.yul\":10517:10869   */\n      jump\n        /* \"NFT-Contracts/new/finalMarket_single.sol\":4591:4790  require(\r... */\n    tag_335:\n        /* \"NFT-Contracts/new/finalMarket_single.sol\":12754:12763  _minPrice */\n      dup7\n        /* \"NFT-Contracts/new/finalMarket_single.sol\":8153:8154  0 */\n      0x00\n        /* \"NFT-Contracts/new/finalMarket_single.sol\":8144:8150  _price */\n      dup2\n        /* \"NFT-Contracts/new/finalMarket_single.sol\":8144:8154  _price > 0 */\n      gt\n        /* \"NFT-Contracts/new/finalMarket_single.sol\":8136:8176  require(_price > 0, \"Price cannot be 0\") */\n      tag_338\n      jumpi\n      mload(0x40)\n      shl(0xe5, 0x461bcd)\n      dup2\n      mstore\n      0x04\n      add\n      tag_131\n      swap1\n      tag_140\n      jump\t// in\n    tag_338:\n        /* \"NFT-Contracts/new/finalMarket_single.sol\":12781:12972  _storedNftAuctionDetails(\r... */\n      tag_341\n        /* \"NFT-Contracts/new/finalMarket_single.sol\":12820:12839  _nftContractAddress */\n      dup14\n        /* \"NFT-Contracts/new/finalMarket_single.sol\":12854:12860  _erc20 */\n      dup14\n        /* \"NFT-Contracts/new/finalMarket_single.sol\":12875:12883  _tokenId */\n      dup14\n        /* \"NFT-Contracts/new/finalMarket_single.sol\":12898:12911  _auctionStart */\n      dup14\n        /* \"NFT-Contracts/new/finalMarket_single.sol\":12926:12937  _auctionEnd */\n      dup14\n        /* \"NFT-Contracts/new/finalMarket_single.sol\":12952:12961  _minPrice */\n      dup14\n        /* \"NFT-Contracts/new/finalMarket_single.sol\":12781:12805  _storedNftAuctionDetails */\n      tag_342\n        /* \"NFT-Contracts/new/finalMarket_single.sol\":12781:12972  _storedNftAuctionDetails(\r... */\n      jump\t// in\n    tag_341:\n        /* \"NFT-Contracts/new/finalMarket_single.sol\":13038:13052  auctionSaleNFT */\n      0x07\n        /* \"NFT-Contracts/new/finalMarket_single.sol\":13038:13073  auctionSaleNFT\r... */\n      dup1\n      sload\n      swap1\n      pop\n        /* \"NFT-Contracts/new/finalMarket_single.sol\":12985:13004  indexAuctionSaleNFT */\n      0x05\n        /* \"NFT-Contracts/new/finalMarket_single.sol\":12985:13025  indexAuctionSaleNFT[_nftContractAddress] */\n      0x00\n        /* \"NFT-Contracts/new/finalMarket_single.sol\":13005:13024  _nftContractAddress */\n      dup16\n      sub(shl(0xa0, 0x01), 0x01)\n        /* \"NFT-Contracts/new/finalMarket_single.sol\":12985:13025  indexAuctionSaleNFT[_nftContractAddress] */\n      and\n      sub(shl(0xa0, 0x01), 0x01)\n      and\n      dup2\n      mstore\n      0x20\n      add\n      swap1\n      dup2\n      mstore\n      0x20\n      add\n      0x00\n      keccak256\n        /* \"NFT-Contracts/new/finalMarket_single.sol\":12985:13035  indexAuctionSaleNFT[_nftContractAddress][_tokenId] */\n      0x00\n        /* \"NFT-Contracts/new/finalMarket_single.sol\":13026:13034  _tokenId */\n      dup14\n        /* \"NFT-Contracts/new/finalMarket_single.sol\":12985:13035  indexAuctionSaleNFT[_nftContractAddress][_tokenId] */\n      dup2\n      mstore\n      0x20\n      add\n      swap1\n      dup2\n      mstore\n      0x20\n      add\n      0x00\n      keccak256\n        /* \"NFT-Contracts/new/finalMarket_single.sol\":12985:13073  indexAuctionSaleNFT[_nftContractAddress][_tokenId] = auctionSaleNFT\r... */\n      dup2\n      swap1\n      sstore\n      pop\n        /* \"NFT-Contracts/new/finalMarket_single.sol\":13084:13098  auctionSaleNFT */\n      0x07\n        /* \"NFT-Contracts/new/finalMarket_single.sol\":13104:13143  SaleInfo(_nftContractAddress, _tokenId) */\n      mload(0x40)\n      dup1\n      0x40\n      add\n      0x40\n      mstore\n      dup1\n        /* \"NFT-Contracts/new/finalMarket_single.sol\":13113:13132  _nftContractAddress */\n      dup16\n      sub(shl(0xa0, 0x01), 0x01)\n        /* \"NFT-Contracts/new/finalMarket_single.sol\":13104:13143  SaleInfo(_nftContractAddress, _tokenId) */\n      and\n      dup2\n      mstore\n      0x20\n      add\n        /* \"NFT-Contracts/new/finalMarket_single.sol\":13134:13142  _tokenId */\n      dup14\n        /* \"NFT-Contracts/new/finalMarket_single.sol\":13104:13143  SaleInfo(_nftContractAddress, _tokenId) */\n      dup2\n      mstore\n      pop\n        /* \"NFT-Contracts/new/finalMarket_single.sol\":13084:13144  auctionSaleNFT.push(SaleInfo(_nftContractAddress, _tokenId)) */\n      swap1\n      dup1\n      0x01\n      dup2\n      sload\n      add\n      dup1\n      dup3\n      sstore\n      dup1\n      swap2\n      pop\n      pop\n      0x01\n      swap1\n      sub\n      swap1\n      0x00\n      mstore\n      keccak256(0x00, 0x20)\n      swap1\n      0x02\n      mul\n      add\n      0x00\n      swap1\n      swap2\n      swap1\n      swap2\n      swap1\n      swap2\n      pop\n      0x00\n      dup3\n      add\n      mload\n      dup2\n      0x00\n      add\n      exp(0x0100, 0x00)\n      dup2\n      sload\n      dup2\n      sub(shl(0xa0, 0x01), 0x01)\n      mul\n      not\n      and\n      swap1\n      dup4\n      sub(shl(0xa0, 0x01), 0x01)\n      and\n      mul\n      or\n      swap1\n      sstore\n      pop\n      0x20\n      dup3\n      add\n      mload\n      dup2\n      0x01\n      add\n      sstore\n      pop\n      pop\n        /* \"NFT-Contracts/new/finalMarket_single.sol\":13162:13368  NftAuctionSale(\r... */\n      0xecbc6a097da08dbf6f781ce204aad454ce3dc8f112c51c7a56f1671de89cee8c\n        /* \"NFT-Contracts/new/finalMarket_single.sol\":13191:13210  _nftContractAddress */\n      dup14\n        /* \"NFT-Contracts/new/finalMarket_single.sol\":13225:13235  msg.sender */\n      caller\n        /* \"NFT-Contracts/new/finalMarket_single.sol\":13250:13256  _erc20 */\n      dup15\n        /* \"NFT-Contracts/new/finalMarket_single.sol\":13271:13279  _tokenId */\n      dup15\n        /* \"NFT-Contracts/new/finalMarket_single.sol\":13294:13307  _auctionStart */\n      dup15\n        /* \"NFT-Contracts/new/finalMarket_single.sol\":13322:13333  _auctionEnd */\n      dup15\n        /* \"NFT-Contracts/new/finalMarket_single.sol\":13348:13357  _minPrice */\n      dup15\n        /* \"NFT-Contracts/new/finalMarket_single.sol\":13162:13368  NftAuctionSale(\r... */\n      mload(0x40)\n      tag_344\n      swap8\n      swap7\n      swap6\n      swap5\n      swap4\n      swap3\n      swap2\n      swap1\n      sub(shl(0xa0, 0x01), 0x01)\n        /* \"#utility.yul\":5816:5831   */\n      swap8\n      dup9\n      and\n        /* \"#utility.yul\":5798:5832   */\n      dup2\n      mstore\n        /* \"#utility.yul\":5868:5883   */\n      swap6\n      dup8\n      and\n        /* \"#utility.yul\":5863:5865   */\n      0x20\n        /* \"#utility.yul\":5848:5866   */\n      dup8\n      add\n        /* \"#utility.yul\":5841:5884   */\n      mstore\n        /* \"#utility.yul\":5920:5935   */\n      swap4\n      swap1\n      swap6\n      and\n        /* \"#utility.yul\":5915:5917   */\n      0x40\n        /* \"#utility.yul\":5900:5918   */\n      dup6\n      add\n        /* \"#utility.yul\":5893:5936   */\n      mstore\n        /* \"#utility.yul\":5967:5969   */\n      0x60\n        /* \"#utility.yul\":5952:5970   */\n      dup5\n      add\n        /* \"#utility.yul\":5945:5979   */\n      swap2\n      swap1\n      swap2\n      mstore\n        /* \"#utility.yul\":6010:6013   */\n      0x80\n        /* \"#utility.yul\":5995:6014   */\n      dup4\n      add\n        /* \"#utility.yul\":5988:6023   */\n      mstore\n        /* \"#utility.yul\":5778:5781   */\n      0xa0\n        /* \"#utility.yul\":6039:6058   */\n      dup3\n      add\n        /* \"#utility.yul\":6032:6067   */\n      swap3\n      swap1\n      swap3\n      mstore\n        /* \"#utility.yul\":6098:6101   */\n      0xc0\n        /* \"#utility.yul\":6083:6102   */\n      dup2\n      add\n        /* \"#utility.yul\":6076:6111   */\n      swap2\n      swap1\n      swap2\n      mstore\n        /* \"#utility.yul\":5747:5750   */\n      0xe0\n        /* \"#utility.yul\":5732:5751   */\n      add\n      swap1\n        /* \"#utility.yul\":5445:6117   */\n      jump\n        /* \"NFT-Contracts/new/finalMarket_single.sol\":13162:13368  NftAuctionSale(\r... */\n    tag_344:\n      mload(0x40)\n      dup1\n      swap2\n      sub\n      swap1\n      log1\n        /* \"NFT-Contracts/new/finalMarket_single.sol\":4801:4802  _ */\n      pop\n        /* \"NFT-Contracts/new/finalMarket_single.sol\":3499:3500  _ */\n      pop\n      pop\n        /* \"NFT-Contracts/new/finalMarket_single.sol\":4212:4213  _ */\n      pop\n      pop\n        /* \"NFT-Contracts/new/finalMarket_single.sol\":12313:13376  function createNftAuctionSale(\r... */\n      pop\n      pop\n      pop\n      pop\n      pop\n      pop\n      pop\n      pop\n      jump\t// out\n        /* \"NFT-Contracts/new/finalMarket_single.sol\":9959:10545  function cancelFixedsale(address _nftContractAddress, uint256 _tokenId)\r... */\n    tag_119:\n      sub(shl(0xa0, 0x01), 0x01)\n        /* \"NFT-Contracts/new/finalMarket_single.sol\":3622:3656  nftSaleStatus[_nftContractAddress] */\n      dup3\n      and\n      0x00\n      swap1\n      dup2\n      mstore\n        /* \"NFT-Contracts/new/finalMarket_single.sol\":3622:3635  nftSaleStatus */\n      0x02\n        /* \"NFT-Contracts/new/finalMarket_single.sol\":3622:3656  nftSaleStatus[_nftContractAddress] */\n      0x20\n      swap1\n      dup2\n      mstore\n      0x40\n      dup1\n      dup4\n      keccak256\n        /* \"NFT-Contracts/new/finalMarket_single.sol\":3622:3666  nftSaleStatus[_nftContractAddress][_tokenId] */\n      dup5\n      dup5\n      mstore\n      swap1\n      swap2\n      mstore\n      swap1\n      keccak256\n      sload\n        /* \"NFT-Contracts/new/finalMarket_single.sol\":10075:10094  _nftContractAddress */\n      dup3\n      swap1\n        /* \"NFT-Contracts/new/finalMarket_single.sol\":10096:10104  _tokenId */\n      dup3\n      swap1\n        /* \"NFT-Contracts/new/finalMarket_single.sol\":3670:3671  1 */\n      0x01\n        /* \"NFT-Contracts/new/finalMarket_single.sol\":3622:3671  nftSaleStatus[_nftContractAddress][_tokenId] == 1 */\n      eq\n        /* \"NFT-Contracts/new/finalMarket_single.sol\":3600:3720  require(\r... */\n      tag_347\n      jumpi\n      mload(0x40)\n      shl(0xe5, 0x461bcd)\n      dup2\n      mstore\n      0x04\n      add\n      tag_131\n      swap1\n      tag_184\n      jump\t// in\n    tag_347:\n      sub(shl(0xa0, 0x01), 0x01)\n        /* \"NFT-Contracts/new/finalMarket_single.sol\":4368:4409  nftContractFixedSale[_nftContractAddress] */\n      dup5\n      dup2\n      and\n        /* \"NFT-Contracts/new/finalMarket_single.sol\":4368:4388  nftContractFixedSale */\n      0x00\n        /* \"NFT-Contracts/new/finalMarket_single.sol\":4368:4409  nftContractFixedSale[_nftContractAddress] */\n      swap1\n      dup2\n      mstore\n      0x20\n      dup2\n      dup2\n      mstore\n      0x40\n      dup1\n      dup4\n      keccak256\n        /* \"NFT-Contracts/new/finalMarket_single.sol\":4368:4419  nftContractFixedSale[_nftContractAddress][_tokenId] */\n      dup8\n      dup5\n      mstore\n      swap1\n      swap2\n      mstore\n      swap1\n      keccak256\n        /* \"NFT-Contracts/new/finalMarket_single.sol\":4368:4429  nftContractFixedSale[_nftContractAddress][_tokenId].nftSeller */\n      sload\n        /* \"NFT-Contracts/new/finalMarket_single.sol\":4368:4409  nftContractFixedSale[_nftContractAddress] */\n      dup6\n      swap2\n        /* \"NFT-Contracts/new/finalMarket_single.sol\":4368:4419  nftContractFixedSale[_nftContractAddress][_tokenId] */\n      dup6\n      swap2\n        /* \"NFT-Contracts/new/finalMarket_single.sol\":4368:4429  nftContractFixedSale[_nftContractAddress][_tokenId].nftSeller */\n      and\n        /* \"NFT-Contracts/new/finalMarket_single.sol\":4337:4347  msg.sender */\n      caller\n        /* \"NFT-Contracts/new/finalMarket_single.sol\":4337:4429  msg.sender ==\r... */\n      eq\n        /* \"NFT-Contracts/new/finalMarket_single.sol\":4315:4478  require(\r... */\n      tag_350\n      jumpi\n      mload(0x40)\n      shl(0xe5, 0x461bcd)\n      dup2\n      mstore\n      0x04\n      add\n      tag_131\n      swap1\n      tag_188\n      jump\t// in\n    tag_350:\n        /* \"NFT-Contracts/new/finalMarket_single.sol\":10181:10313  IERC721(_nftContractAddress).safeTransferFrom(\r... */\n      mload(0x40)\n      shl(0xe1, 0x21421707)\n      dup2\n      mstore\n      sub(shl(0xa0, 0x01), 0x01)\n        /* \"NFT-Contracts/new/finalMarket_single.sol\":10181:10226  IERC721(_nftContractAddress).safeTransferFrom */\n      dup8\n      and\n      swap1\n      0x42842e0e\n      swap1\n        /* \"NFT-Contracts/new/finalMarket_single.sol\":10181:10313  IERC721(_nftContractAddress).safeTransferFrom(\r... */\n      tag_353\n      swap1\n        /* \"NFT-Contracts/new/finalMarket_single.sol\":10249:10253  this */\n      address\n      swap1\n        /* \"NFT-Contracts/new/finalMarket_single.sol\":10269:10279  msg.sender */\n      caller\n      swap1\n        /* \"NFT-Contracts/new/finalMarket_single.sol\":10294:10302  _tokenId */\n      dup11\n      swap1\n        /* \"NFT-Contracts/new/finalMarket_single.sol\":10181:10313  IERC721(_nftContractAddress).safeTransferFrom(\r... */\n      0x04\n      add\n      tag_122\n      jump\t// in\n    tag_353:\n      0x00\n      mload(0x40)\n      dup1\n      dup4\n      sub\n      dup2\n      0x00\n      dup8\n      dup1\n      extcodesize\n      iszero\n      dup1\n      iszero\n      tag_354\n      jumpi\n      0x00\n      dup1\n      revert\n    tag_354:\n      pop\n      gas\n      call\n      iszero\n      dup1\n      iszero\n      tag_356\n      jumpi\n      returndatasize\n      0x00\n      dup1\n      returndatacopy\n      revert(0x00, returndatasize)\n    tag_356:\n      pop\n      pop\n      pop\n      sub(shl(0xa0, 0x01), 0x01)\n        /* \"NFT-Contracts/new/finalMarket_single.sol\":10326:10360  nftSaleStatus[_nftContractAddress] */\n      dup8\n      and\n        /* \"NFT-Contracts/new/finalMarket_single.sol\":10373:10374  0 */\n      0x00\n        /* \"NFT-Contracts/new/finalMarket_single.sol\":10326:10360  nftSaleStatus[_nftContractAddress] */\n      dup2\n      dup2\n      mstore\n        /* \"NFT-Contracts/new/finalMarket_single.sol\":10326:10339  nftSaleStatus */\n      0x02\n        /* \"NFT-Contracts/new/finalMarket_single.sol\":10326:10360  nftSaleStatus[_nftContractAddress] */\n      0x20\n      swap1\n      dup2\n      mstore\n      0x40\n      dup1\n      dup4\n      keccak256\n        /* \"NFT-Contracts/new/finalMarket_single.sol\":10326:10370  nftSaleStatus[_nftContractAddress][_tokenId] */\n      dup11\n      dup5\n      mstore\n      dup3\n      mstore\n      dup1\n      dup4\n      keccak256\n        /* \"NFT-Contracts/new/finalMarket_single.sol\":10326:10374  nftSaleStatus[_nftContractAddress][_tokenId] = 0 */\n      dup4\n      swap1\n      sstore\n        /* \"NFT-Contracts/new/finalMarket_single.sol\":10408:10446  indexFixedSaleNFT[_nftContractAddress] */\n      swap3\n      dup3\n      mstore\n        /* \"NFT-Contracts/new/finalMarket_single.sol\":10408:10425  indexFixedSaleNFT */\n      0x04\n        /* \"NFT-Contracts/new/finalMarket_single.sol\":10408:10446  indexFixedSaleNFT[_nftContractAddress] */\n      dup2\n      mstore\n      dup3\n      dup3\n      keccak256\n        /* \"NFT-Contracts/new/finalMarket_single.sol\":10408:10456  indexFixedSaleNFT[_nftContractAddress][_tokenId] */\n      dup10\n      dup4\n      mstore\n      swap1\n      mstore\n      keccak256\n      sload\n        /* \"NFT-Contracts/new/finalMarket_single.sol\":10394:10406  fixedSaleNFT */\n      0x06\n        /* \"NFT-Contracts/new/finalMarket_single.sol\":10394:10458  fixedSaleNFT[(indexFixedSaleNFT[_nftContractAddress][_tokenId])] */\n      dup1\n      sload\n        /* \"NFT-Contracts/new/finalMarket_single.sol\":10394:10406  fixedSaleNFT */\n      swap1\n      swap3\n      pop\n        /* \"NFT-Contracts/new/finalMarket_single.sol\":10394:10458  fixedSaleNFT[(indexFixedSaleNFT[_nftContractAddress][_tokenId])] */\n      dup2\n      lt\n      tag_358\n      jumpi\n      tag_358\n      tag_219\n      jump\t// in\n    tag_358:\n      0x00\n      swap2\n      dup3\n      mstore\n      0x20\n      dup3\n      keccak256\n      0x02\n      swap1\n      swap2\n      mul\n      add\n        /* \"NFT-Contracts/new/finalMarket_single.sol\":10387:10458  delete fixedSaleNFT[(indexFixedSaleNFT[_nftContractAddress][_tokenId])] */\n      dup1\n      sload\n      not(sub(shl(0xa0, 0x01), 0x01))\n      and\n      dup2\n      sstore\n      0x01\n      add\n      sstore\n        /* \"NFT-Contracts/new/finalMarket_single.sol\":10476:10537  CancelNftFixedSale(_nftContractAddress, msg.sender, _tokenId) */\n      mload(0x40)\n      0xd7348ff00cf381a884144b50b3441398a48a7974ec349287df80e18cec9f5a31\n      swap1\n      tag_360\n      swap1\n        /* \"NFT-Contracts/new/finalMarket_single.sol\":10495:10514  _nftContractAddress */\n      dup9\n      swap1\n        /* \"NFT-Contracts/new/finalMarket_single.sol\":10516:10526  msg.sender */\n      caller\n      swap1\n        /* \"NFT-Contracts/new/finalMarket_single.sol\":10528:10536  _tokenId */\n      dup10\n      swap1\n        /* \"NFT-Contracts/new/finalMarket_single.sol\":10476:10537  CancelNftFixedSale(_nftContractAddress, msg.sender, _tokenId) */\n      tag_122\n      jump\t// in\n    tag_360:\n      mload(0x40)\n      dup1\n      swap2\n      sub\n      swap1\n      log1\n        /* \"NFT-Contracts/new/finalMarket_single.sol\":3731:3732  _ */\n      pop\n      pop\n        /* \"NFT-Contracts/new/finalMarket_single.sol\":9959:10545  function cancelFixedsale(address _nftContractAddress, uint256 _tokenId)\r... */\n      pop\n      pop\n      pop\n      pop\n      jump\t// out\n        /* \"NFT-Contracts/new/finalMarket_single.sol\":21756:21984  function _bidAmountTransfer(uint256 _buyAmount, address _erc20) internal {\r... */\n    tag_152:\n        /* \"NFT-Contracts/new/finalMarket_single.sol\":21862:21928  IERC20(_erc20).transferFrom(msg.sender, address(this), _buyAmount) */\n      mload(0x40)\n      shl(0xe0, 0x23b872dd)\n      dup2\n      mstore\n      sub(shl(0xa0, 0x01), 0x01)\n        /* \"NFT-Contracts/new/finalMarket_single.sol\":21862:21889  IERC20(_erc20).transferFrom */\n      dup3\n      and\n      swap1\n      0x23b872dd\n      swap1\n        /* \"NFT-Contracts/new/finalMarket_single.sol\":21862:21928  IERC20(_erc20).transferFrom(msg.sender, address(this), _buyAmount) */\n      tag_362\n      swap1\n        /* \"NFT-Contracts/new/finalMarket_single.sol\":21890:21900  msg.sender */\n      caller\n      swap1\n        /* \"NFT-Contracts/new/finalMarket_single.sol\":21910:21914  this */\n      address\n      swap1\n        /* \"NFT-Contracts/new/finalMarket_single.sol\":21917:21927  _buyAmount */\n      dup8\n      swap1\n        /* \"NFT-Contracts/new/finalMarket_single.sol\":21862:21928  IERC20(_erc20).transferFrom(msg.sender, address(this), _buyAmount) */\n      0x04\n      add\n      tag_122\n      jump\t// in\n    tag_362:\n      0x20\n      mload(0x40)\n      dup1\n      dup4\n      sub\n      dup2\n      0x00\n      dup8\n      dup1\n      extcodesize\n      iszero\n      dup1\n      iszero\n      tag_363\n      jumpi\n      0x00\n      dup1\n      revert\n    tag_363:\n      pop\n      gas\n      call\n      iszero\n      dup1\n      iszero\n      tag_365\n      jumpi\n      returndatasize\n      0x00\n      dup1\n      returndatacopy\n      revert(0x00, returndatasize)\n    tag_365:\n      pop\n      pop\n      pop\n      pop\n      mload(0x40)\n      returndatasize\n      not(0x1f)\n      0x1f\n      dup3\n      add\n      and\n      dup3\n      add\n      dup1\n      0x40\n      mstore\n      pop\n      dup2\n      add\n      swap1\n      tag_366\n      swap2\n      swap1\n      tag_127\n      jump\t// in\n    tag_366:\n        /* \"NFT-Contracts/new/finalMarket_single.sol\":21840:21976  require(\r... */\n      tag_367\n      jumpi\n      mload(0x40)\n      shl(0xe5, 0x461bcd)\n      dup2\n      mstore\n        /* \"#utility.yul\":13848:13850   */\n      0x20\n        /* \"NFT-Contracts/new/finalMarket_single.sol\":21840:21976  require(\r... */\n      0x04\n      dup3\n      add\n        /* \"#utility.yul\":13830:13851   */\n      mstore\n        /* \"#utility.yul\":13887:13889   */\n      0x14\n        /* \"#utility.yul\":13867:13885   */\n      0x24\n      dup3\n      add\n        /* \"#utility.yul\":13860:13890   */\n      mstore\n      shl(0x63, 0x0c2d8d8deeec2dcc6ca40dcdee840cadcdeeaced)\n        /* \"#utility.yul\":13906:13924   */\n      0x44\n      dup3\n      add\n        /* \"#utility.yul\":13899:13949   */\n      mstore\n        /* \"#utility.yul\":13966:13984   */\n      0x64\n      add\n        /* \"NFT-Contracts/new/finalMarket_single.sol\":21840:21976  require(\r... */\n      tag_131\n        /* \"#utility.yul\":13646:13990   */\n      jump\n        /* \"NFT-Contracts/new/finalMarket_single.sol\":21840:21976  require(\r... */\n    tag_367:\n        /* \"NFT-Contracts/new/finalMarket_single.sol\":21756:21984  function _bidAmountTransfer(uint256 _buyAmount, address _erc20) internal {\r... */\n      pop\n      pop\n      jump\t// out\n        /* \"@openzeppelin/contracts/utils/math/SafeMath.sol\":2755:2851  function add(uint256 a, uint256 b) internal pure returns (uint256) {... */\n    tag_171:\n        /* \"@openzeppelin/contracts/utils/math/SafeMath.sol\":2813:2820  uint256 */\n      0x00\n        /* \"@openzeppelin/contracts/utils/math/SafeMath.sol\":2839:2844  a + b */\n      tag_371\n        /* \"@openzeppelin/contracts/utils/math/SafeMath.sol\":2843:2844  b */\n      dup3\n        /* \"@openzeppelin/contracts/utils/math/SafeMath.sol\":2839:2840  a */\n      dup5\n        /* \"@openzeppelin/contracts/utils/math/SafeMath.sol\":2839:2844  a + b */\n      tag_372\n      jump\t// in\n    tag_371:\n        /* \"@openzeppelin/contracts/utils/math/SafeMath.sol\":2832:2844  return a + b */\n      swap4\n        /* \"@openzeppelin/contracts/utils/math/SafeMath.sol\":2755:2851  function add(uint256 a, uint256 b) internal pure returns (uint256) {... */\n      swap3\n      pop\n      pop\n      pop\n      jump\t// out\n        /* \"NFT-Contracts/new/finalMarket_single.sol\":19538:20134  function _transferNftAndPaySeller(\r... */\n    tag_216:\n        /* \"NFT-Contracts/new/finalMarket_single.sol\":19720:19851  IERC721(_nftContractAddress).safeTransferFrom(\r... */\n      mload(0x40)\n      shl(0xe1, 0x21421707)\n      dup2\n      mstore\n      sub(shl(0xa0, 0x01), 0x01)\n        /* \"NFT-Contracts/new/finalMarket_single.sol\":19720:19765  IERC721(_nftContractAddress).safeTransferFrom */\n      dup6\n      and\n      swap1\n      0x42842e0e\n      swap1\n        /* \"NFT-Contracts/new/finalMarket_single.sol\":19720:19851  IERC721(_nftContractAddress).safeTransferFrom(\r... */\n      tag_374\n      swap1\n        /* \"NFT-Contracts/new/finalMarket_single.sol\":19788:19792  this */\n      address\n      swap1\n        /* \"NFT-Contracts/new/finalMarket_single.sol\":19808:19817  _nftBuyer */\n      dup6\n      swap1\n        /* \"NFT-Contracts/new/finalMarket_single.sol\":19832:19840  _tokenId */\n      dup9\n      swap1\n        /* \"NFT-Contracts/new/finalMarket_single.sol\":19720:19851  IERC721(_nftContractAddress).safeTransferFrom(\r... */\n      0x04\n      add\n      tag_122\n      jump\t// in\n    tag_374:\n      0x00\n      mload(0x40)\n      dup1\n      dup4\n      sub\n      dup2\n      0x00\n      dup8\n      dup1\n      extcodesize\n      iszero\n      dup1\n      iszero\n      tag_375\n      jumpi\n      0x00\n      dup1\n      revert\n    tag_375:\n      pop\n      gas\n      call\n      iszero\n      dup1\n      iszero\n      tag_377\n      jumpi\n      returndatasize\n      0x00\n      dup1\n      returndatacopy\n      revert(0x00, returndatasize)\n    tag_377:\n      pop\n      pop\n      pop\n      pop\n      sub(shl(0xa0, 0x01), 0x01)\n        /* \"NFT-Contracts/new/finalMarket_single.sol\":19864:19898  nftSaleStatus[_nftContractAddress] */\n      dup5\n      dup2\n      and\n        /* \"NFT-Contracts/new/finalMarket_single.sol\":19911:19912  0 */\n      0x00\n        /* \"NFT-Contracts/new/finalMarket_single.sol\":19864:19898  nftSaleStatus[_nftContractAddress] */\n      dup2\n      dup2\n      mstore\n        /* \"NFT-Contracts/new/finalMarket_single.sol\":19864:19877  nftSaleStatus */\n      0x02\n        /* \"NFT-Contracts/new/finalMarket_single.sol\":19864:19898  nftSaleStatus[_nftContractAddress] */\n      0x20\n      swap1\n      dup2\n      mstore\n      0x40\n      dup1\n      dup4\n      keccak256\n        /* \"NFT-Contracts/new/finalMarket_single.sol\":19864:19908  nftSaleStatus[_nftContractAddress][_tokenId] */\n      dup9\n      dup5\n      mstore\n      dup3\n      mstore\n      dup1\n      dup4\n      keccak256\n        /* \"NFT-Contracts/new/finalMarket_single.sol\":19864:19912  nftSaleStatus[_nftContractAddress][_tokenId] = 0 */\n      dup4\n      swap1\n      sstore\n        /* \"NFT-Contracts/new/finalMarket_single.sol\":19954:19997  nftContractAuctionSale[_nftContractAddress] */\n      swap3\n      dup3\n      mstore\n        /* \"NFT-Contracts/new/finalMarket_single.sol\":19954:19976  nftContractAuctionSale */\n      0x01\n        /* \"NFT-Contracts/new/finalMarket_single.sol\":19954:19997  nftContractAuctionSale[_nftContractAddress] */\n      dup2\n      mstore\n      dup3\n      dup3\n      keccak256\n        /* \"NFT-Contracts/new/finalMarket_single.sol\":19954:20007  nftContractAuctionSale[_nftContractAddress][_tokenId] */\n      dup8\n      dup4\n      mstore\n      swap1\n      mstore\n      keccak256\n        /* \"NFT-Contracts/new/finalMarket_single.sol\":19954:20017  nftContractAuctionSale[_nftContractAddress][_tokenId].nftSeller */\n      0x05\n      dup2\n      add\n      sload\n        /* \"NFT-Contracts/new/finalMarket_single.sol\":20032:20091  nftContractAuctionSale[_nftContractAddress][_tokenId].erc20 */\n      0x06\n      swap1\n      swap2\n      add\n      sload\n        /* \"NFT-Contracts/new/finalMarket_single.sol\":19925:20126  _isTokenOrCoin(\r... */\n      tag_378\n      swap3\n        /* \"NFT-Contracts/new/finalMarket_single.sol\":19954:20017  nftContractAuctionSale[_nftContractAddress][_tokenId].nftSeller */\n      swap2\n      dup3\n      and\n      swap2\n        /* \"NFT-Contracts/new/finalMarket_single.sol\":20032:20091  nftContractAuctionSale[_nftContractAddress][_tokenId].erc20 */\n      and\n        /* \"NFT-Contracts/new/finalMarket_single.sol\":20106:20115  _bidPrice */\n      dup5\n        /* \"NFT-Contracts/new/finalMarket_single.sol\":19925:19939  _isTokenOrCoin */\n      tag_315\n        /* \"NFT-Contracts/new/finalMarket_single.sol\":19925:20126  _isTokenOrCoin(\r... */\n      jump\t// in\n    tag_378:\n        /* \"NFT-Contracts/new/finalMarket_single.sol\":19538:20134  function _transferNftAndPaySeller(\r... */\n      pop\n      pop\n      pop\n      pop\n      jump\t// out\n        /* \"NFT-Contracts/new/finalMarket_single.sol\":21424:21748  function _isTokenOrCoin(\r... */\n    tag_315:\n      sub(shl(0xa0, 0x01), 0x01)\n        /* \"NFT-Contracts/new/finalMarket_single.sol\":21562:21582  _erc20 != address(0) */\n      dup3\n      and\n      iszero\n        /* \"NFT-Contracts/new/finalMarket_single.sol\":21558:21741  if (_erc20 != address(0)) {\r... */\n      tag_380\n      jumpi\n        /* \"NFT-Contracts/new/finalMarket_single.sol\":21599:21651  _tokenAmountTransfer(_nftSeller, _erc20, _buyAmount) */\n      tag_381\n        /* \"NFT-Contracts/new/finalMarket_single.sol\":21620:21630  _nftSeller */\n      dup4\n        /* \"NFT-Contracts/new/finalMarket_single.sol\":21632:21638  _erc20 */\n      dup4\n        /* \"NFT-Contracts/new/finalMarket_single.sol\":21640:21650  _buyAmount */\n      dup4\n        /* \"NFT-Contracts/new/finalMarket_single.sol\":21599:21619  _tokenAmountTransfer */\n      tag_382\n        /* \"NFT-Contracts/new/finalMarket_single.sol\":21599:21651  _tokenAmountTransfer(_nftSeller, _erc20, _buyAmount) */\n      jump\t// in\n    tag_381:\n        /* \"NFT-Contracts/new/finalMarket_single.sol\":21424:21748  function _isTokenOrCoin(\r... */\n      pop\n      pop\n      pop\n      jump\t// out\n        /* \"NFT-Contracts/new/finalMarket_single.sol\":21558:21741  if (_erc20 != address(0)) {\r... */\n    tag_380:\n        /* \"NFT-Contracts/new/finalMarket_single.sol\":21684:21729  _nativeAmountTransfer(_nftSeller, _buyAmount) */\n      tag_381\n        /* \"NFT-Contracts/new/finalMarket_single.sol\":21706:21716  _nftSeller */\n      dup4\n        /* \"NFT-Contracts/new/finalMarket_single.sol\":21718:21728  _buyAmount */\n      dup3\n        /* \"NFT-Contracts/new/finalMarket_single.sol\":21684:21705  _nativeAmountTransfer */\n      tag_385\n        /* \"NFT-Contracts/new/finalMarket_single.sol\":21684:21729  _nativeAmountTransfer(_nftSeller, _buyAmount) */\n      jump\t// in\n        /* \"NFT-Contracts/new/finalMarket_single.sol\":20714:21416  function _storedNftAuctionDetails(\r... */\n    tag_342:\n        /* \"NFT-Contracts/new/finalMarket_single.sol\":21011:21202  Auction(\r... */\n      mload(0x40)\n      dup1\n      0xe0\n      add\n      0x40\n      mstore\n      dup1\n        /* \"NFT-Contracts/new/finalMarket_single.sol\":21033:21046  _auctionStart */\n      dup5\n        /* \"NFT-Contracts/new/finalMarket_single.sol\":21011:21202  Auction(\r... */\n      dup2\n      mstore\n      0x20\n      add\n        /* \"NFT-Contracts/new/finalMarket_single.sol\":21061:21072  _auctionEnd */\n      dup4\n        /* \"NFT-Contracts/new/finalMarket_single.sol\":21011:21202  Auction(\r... */\n      dup2\n      mstore\n      0x20\n      add\n        /* \"NFT-Contracts/new/finalMarket_single.sol\":21087:21096  _minPrice */\n      dup3\n        /* \"NFT-Contracts/new/finalMarket_single.sol\":21011:21202  Auction(\r... */\n      dup2\n      mstore\n      0x20\n      add\n        /* \"NFT-Contracts/new/finalMarket_single.sol\":21111:21120  _minPrice */\n      dup3\n        /* \"NFT-Contracts/new/finalMarket_single.sol\":21011:21202  Auction(\r... */\n      dup2\n      mstore\n      0x20\n      add\n        /* \"NFT-Contracts/new/finalMarket_single.sol\":21143:21144  0 */\n      0x00\n      sub(shl(0xa0, 0x01), 0x01)\n        /* \"NFT-Contracts/new/finalMarket_single.sol\":21011:21202  Auction(\r... */\n      and\n      dup2\n      mstore\n      0x20\n      add\n        /* \"NFT-Contracts/new/finalMarket_single.sol\":21160:21170  msg.sender */\n      caller\n      sub(shl(0xa0, 0x01), 0x01)\n        /* \"NFT-Contracts/new/finalMarket_single.sol\":21011:21202  Auction(\r... */\n      and\n      dup2\n      mstore\n      0x20\n      add\n        /* \"NFT-Contracts/new/finalMarket_single.sol\":21185:21191  _erc20 */\n      dup7\n      sub(shl(0xa0, 0x01), 0x01)\n        /* \"NFT-Contracts/new/finalMarket_single.sol\":21011:21202  Auction(\r... */\n      and\n      dup2\n      mstore\n      pop\n        /* \"NFT-Contracts/new/finalMarket_single.sol\":20955:20977  nftContractAuctionSale */\n      0x01\n        /* \"NFT-Contracts/new/finalMarket_single.sol\":20955:20998  nftContractAuctionSale[_nftContractAddress] */\n      0x00\n        /* \"NFT-Contracts/new/finalMarket_single.sol\":20978:20997  _nftContractAddress */\n      dup9\n      sub(shl(0xa0, 0x01), 0x01)\n        /* \"NFT-Contracts/new/finalMarket_single.sol\":20955:20998  nftContractAuctionSale[_nftContractAddress] */\n      and\n      sub(shl(0xa0, 0x01), 0x01)\n      and\n      dup2\n      mstore\n      0x20\n      add\n      swap1\n      dup2\n      mstore\n      0x20\n      add\n      0x00\n      keccak256\n        /* \"NFT-Contracts/new/finalMarket_single.sol\":20955:21008  nftContractAuctionSale[_nftContractAddress][_tokenId] */\n      0x00\n        /* \"NFT-Contracts/new/finalMarket_single.sol\":20999:21007  _tokenId */\n      dup7\n        /* \"NFT-Contracts/new/finalMarket_single.sol\":20955:21008  nftContractAuctionSale[_nftContractAddress][_tokenId] */\n      dup2\n      mstore\n      0x20\n      add\n      swap1\n      dup2\n      mstore\n      0x20\n      add\n      0x00\n      keccak256\n        /* \"NFT-Contracts/new/finalMarket_single.sol\":20955:21202  nftContractAuctionSale[_nftContractAddress][_tokenId] = Auction(\r... */\n      0x00\n      dup3\n      add\n      mload\n      dup2\n      0x00\n      add\n      sstore\n      0x20\n      dup3\n      add\n      mload\n      dup2\n      0x01\n      add\n      sstore\n      0x40\n      dup3\n      add\n      mload\n      dup2\n      0x02\n      add\n      sstore\n      0x60\n      dup3\n      add\n      mload\n      dup2\n      0x03\n      add\n      sstore\n      0x80\n      dup3\n      add\n      mload\n      dup2\n      0x04\n      add\n      exp(0x0100, 0x00)\n      dup2\n      sload\n      dup2\n      sub(shl(0xa0, 0x01), 0x01)\n      mul\n      not\n      and\n      swap1\n      dup4\n      sub(shl(0xa0, 0x01), 0x01)\n      and\n      mul\n      or\n      swap1\n      sstore\n      pop\n      0xa0\n      dup3\n      add\n      mload\n      dup2\n      0x05\n      add\n      exp(0x0100, 0x00)\n      dup2\n      sload\n      dup2\n      sub(shl(0xa0, 0x01), 0x01)\n      mul\n      not\n      and\n      swap1\n      dup4\n      sub(shl(0xa0, 0x01), 0x01)\n      and\n      mul\n      or\n      swap1\n      sstore\n      pop\n      0xc0\n      dup3\n      add\n      mload\n      dup2\n      0x06\n      add\n      exp(0x0100, 0x00)\n      dup2\n      sload\n      dup2\n      sub(shl(0xa0, 0x01), 0x01)\n      mul\n      not\n      and\n      swap1\n      dup4\n      sub(shl(0xa0, 0x01), 0x01)\n      and\n      mul\n      or\n      swap1\n      sstore\n      pop\n      swap1\n      pop\n      pop\n        /* \"NFT-Contracts/new/finalMarket_single.sol\":21262:21263  2 */\n      0x02\n        /* \"NFT-Contracts/new/finalMarket_single.sol\":21215:21228  nftSaleStatus */\n      dup1\n        /* \"NFT-Contracts/new/finalMarket_single.sol\":21215:21249  nftSaleStatus[_nftContractAddress] */\n      0x00\n        /* \"NFT-Contracts/new/finalMarket_single.sol\":21229:21248  _nftContractAddress */\n      dup9\n      sub(shl(0xa0, 0x01), 0x01)\n        /* \"NFT-Contracts/new/finalMarket_single.sol\":21215:21249  nftSaleStatus[_nftContractAddress] */\n      and\n      sub(shl(0xa0, 0x01), 0x01)\n      and\n      dup2\n      mstore\n      0x20\n      add\n      swap1\n      dup2\n      mstore\n      0x20\n      add\n      0x00\n      keccak256\n        /* \"NFT-Contracts/new/finalMarket_single.sol\":21215:21259  nftSaleStatus[_nftContractAddress][_tokenId] */\n      0x00\n        /* \"NFT-Contracts/new/finalMarket_single.sol\":21250:21258  _tokenId */\n      dup7\n        /* \"NFT-Contracts/new/finalMarket_single.sol\":21215:21259  nftSaleStatus[_nftContractAddress][_tokenId] */\n      dup2\n      mstore\n      0x20\n      add\n      swap1\n      dup2\n      mstore\n      0x20\n      add\n      0x00\n      keccak256\n        /* \"NFT-Contracts/new/finalMarket_single.sol\":21215:21263  nftSaleStatus[_nftContractAddress][_tokenId] = 2 */\n      dup2\n      swap1\n      sstore\n      pop\n        /* \"NFT-Contracts/new/finalMarket_single.sol\":21284:21303  _nftContractAddress */\n      dup6\n      sub(shl(0xa0, 0x01), 0x01)\n        /* \"NFT-Contracts/new/finalMarket_single.sol\":21276:21321  IERC721(_nftContractAddress).safeTransferFrom */\n      and\n      0x42842e0e\n        /* \"NFT-Contracts/new/finalMarket_single.sol\":21336:21346  msg.sender */\n      caller\n        /* \"NFT-Contracts/new/finalMarket_single.sol\":21369:21373  this */\n      address\n        /* \"NFT-Contracts/new/finalMarket_single.sol\":21389:21397  _tokenId */\n      dup8\n        /* \"NFT-Contracts/new/finalMarket_single.sol\":21276:21408  IERC721(_nftContractAddress).safeTransferFrom(\r... */\n      mload(0x40)\n      dup5\n      0xffffffff\n      and\n      0xe0\n      shl\n      dup2\n      mstore\n      0x04\n      add\n      tag_387\n      swap4\n      swap3\n      swap2\n      swap1\n      tag_122\n      jump\t// in\n    tag_387:\n      0x00\n      mload(0x40)\n      dup1\n      dup4\n      sub\n      dup2\n      0x00\n      dup8\n      dup1\n      extcodesize\n      iszero\n      dup1\n      iszero\n      tag_388\n      jumpi\n      0x00\n      dup1\n      revert\n    tag_388:\n      pop\n      gas\n      call\n      iszero\n      dup1\n      iszero\n      tag_390\n      jumpi\n      returndatasize\n      0x00\n      dup1\n      returndatacopy\n      revert(0x00, returndatasize)\n    tag_390:\n      pop\n      pop\n      pop\n      pop\n        /* \"NFT-Contracts/new/finalMarket_single.sol\":20714:21416  function _storedNftAuctionDetails(\r... */\n      pop\n      pop\n      pop\n      pop\n      pop\n      pop\n      jump\t// out\n        /* \"NFT-Contracts/new/finalMarket_single.sol\":20142:20484  function _tokenAmountTransfer(\r... */\n    tag_382:\n        /* \"NFT-Contracts/new/finalMarket_single.sol\":20304:20370  IERC20(_erc20).transferFrom(msg.sender, address(this), _buyAmount) */\n      mload(0x40)\n      shl(0xe0, 0x23b872dd)\n      dup2\n      mstore\n      sub(shl(0xa0, 0x01), 0x01)\n        /* \"NFT-Contracts/new/finalMarket_single.sol\":20304:20331  IERC20(_erc20).transferFrom */\n      dup4\n      and\n      swap1\n      0x23b872dd\n      swap1\n        /* \"NFT-Contracts/new/finalMarket_single.sol\":20304:20370  IERC20(_erc20).transferFrom(msg.sender, address(this), _buyAmount) */\n      tag_392\n      swap1\n        /* \"NFT-Contracts/new/finalMarket_single.sol\":20332:20342  msg.sender */\n      caller\n      swap1\n        /* \"NFT-Contracts/new/finalMarket_single.sol\":20352:20356  this */\n      address\n      swap1\n        /* \"NFT-Contracts/new/finalMarket_single.sol\":20359:20369  _buyAmount */\n      dup7\n      swap1\n        /* \"NFT-Contracts/new/finalMarket_single.sol\":20304:20370  IERC20(_erc20).transferFrom(msg.sender, address(this), _buyAmount) */\n      0x04\n      add\n      tag_122\n      jump\t// in\n    tag_392:\n      0x20\n      mload(0x40)\n      dup1\n      dup4\n      sub\n      dup2\n      0x00\n      dup8\n      dup1\n      extcodesize\n      iszero\n      dup1\n      iszero\n      tag_393\n      jumpi\n      0x00\n      dup1\n      revert\n    tag_393:\n      pop\n      gas\n      call\n      iszero\n      dup1\n      iszero\n      tag_395\n      jumpi\n      returndatasize\n      0x00\n      dup1\n      returndatacopy\n      revert(0x00, returndatasize)\n    tag_395:\n      pop\n      pop\n      pop\n      pop\n      mload(0x40)\n      returndatasize\n      not(0x1f)\n      0x1f\n      dup3\n      add\n      and\n      dup3\n      add\n      dup1\n      0x40\n      mstore\n      pop\n      dup2\n      add\n      swap1\n      tag_396\n      swap2\n      swap1\n      tag_127\n      jump\t// in\n    tag_396:\n        /* \"NFT-Contracts/new/finalMarket_single.sol\":20282:20418  require(\r... */\n      tag_397\n      jumpi\n      mload(0x40)\n      shl(0xe5, 0x461bcd)\n      dup2\n      mstore\n        /* \"#utility.yul\":13848:13850   */\n      0x20\n        /* \"NFT-Contracts/new/finalMarket_single.sol\":20282:20418  require(\r... */\n      0x04\n      dup3\n      add\n        /* \"#utility.yul\":13830:13851   */\n      mstore\n        /* \"#utility.yul\":13887:13889   */\n      0x14\n        /* \"#utility.yul\":13867:13885   */\n      0x24\n      dup3\n      add\n        /* \"#utility.yul\":13860:13890   */\n      mstore\n      shl(0x63, 0x0c2d8d8deeec2dcc6ca40dcdee840cadcdeeaced)\n        /* \"#utility.yul\":13906:13924   */\n      0x44\n      dup3\n      add\n        /* \"#utility.yul\":13899:13949   */\n      mstore\n        /* \"#utility.yul\":13966:13984   */\n      0x64\n      add\n        /* \"NFT-Contracts/new/finalMarket_single.sol\":20282:20418  require(\r... */\n      tag_131\n        /* \"#utility.yul\":13646:13990   */\n      jump\n        /* \"NFT-Contracts/new/finalMarket_single.sol\":20282:20418  require(\r... */\n    tag_397:\n        /* \"NFT-Contracts/new/finalMarket_single.sol\":20429:20476  IERC20(_erc20).transfer(_nftSeller, _buyAmount) */\n      mload(0x40)\n      shl(0xe0, 0xa9059cbb)\n      dup2\n      mstore\n      sub(shl(0xa0, 0x01), 0x01)\n        /* \"#utility.yul\":7146:7178   */\n      dup5\n      dup2\n      and\n        /* \"NFT-Contracts/new/finalMarket_single.sol\":20429:20476  IERC20(_erc20).transfer(_nftSeller, _buyAmount) */\n      0x04\n      dup4\n      add\n        /* \"#utility.yul\":7128:7179   */\n      mstore\n        /* \"#utility.yul\":7195:7213   */\n      0x24\n      dup3\n      add\n        /* \"#utility.yul\":7188:7222   */\n      dup4\n      swap1\n      mstore\n        /* \"NFT-Contracts/new/finalMarket_single.sol\":20429:20452  IERC20(_erc20).transfer */\n      dup4\n      and\n      swap1\n      0xa9059cbb\n      swap1\n        /* \"#utility.yul\":7101:7119   */\n      0x44\n      add\n        /* \"NFT-Contracts/new/finalMarket_single.sol\":20429:20476  IERC20(_erc20).transfer(_nftSeller, _buyAmount) */\n      0x20\n      mload(0x40)\n      dup1\n      dup4\n      sub\n      dup2\n      0x00\n      dup8\n      dup1\n      extcodesize\n      iszero\n      dup1\n      iszero\n      tag_401\n      jumpi\n      0x00\n      dup1\n      revert\n    tag_401:\n      pop\n      gas\n      call\n      iszero\n      dup1\n      iszero\n      tag_403\n      jumpi\n      returndatasize\n      0x00\n      dup1\n      returndatacopy\n      revert(0x00, returndatasize)\n    tag_403:\n      pop\n      pop\n      pop\n      pop\n      mload(0x40)\n      returndatasize\n      not(0x1f)\n      0x1f\n      dup3\n      add\n      and\n      dup3\n      add\n      dup1\n      0x40\n      mstore\n      pop\n      dup2\n      add\n      swap1\n      tag_378\n      swap2\n      swap1\n      tag_127\n      jump\t// in\n        /* \"NFT-Contracts/new/finalMarket_single.sol\":20492:20706  function _nativeAmountTransfer(address _nftSeller, uint256 _buyAmount)\r... */\n    tag_385:\n        /* \"NFT-Contracts/new/finalMarket_single.sol\":20598:20610  bool success */\n      0x00\n        /* \"NFT-Contracts/new/finalMarket_single.sol\":20616:20626  _nftSeller */\n      dup3\n      sub(shl(0xa0, 0x01), 0x01)\n        /* \"NFT-Contracts/new/finalMarket_single.sol\":20616:20631  _nftSeller.call */\n      and\n        /* \"NFT-Contracts/new/finalMarket_single.sol\":20639:20649  _buyAmount */\n      dup3\n        /* \"NFT-Contracts/new/finalMarket_single.sol\":20616:20654  _nftSeller.call{value: _buyAmount}(\"\") */\n      mload(0x40)\n      0x00\n      mload(0x40)\n      dup1\n      dup4\n      sub\n      dup2\n      dup6\n      dup8\n      gas\n      call\n      swap3\n      pop\n      pop\n      pop\n      returndatasize\n      dup1\n      0x00\n      dup2\n      eq\n      tag_410\n      jumpi\n      mload(0x40)\n      swap2\n      pop\n      and(add(returndatasize, 0x3f), not(0x1f))\n      dup3\n      add\n      0x40\n      mstore\n      returndatasize\n      dup3\n      mstore\n      returndatasize\n      0x00\n      0x20\n      dup5\n      add\n      returndatacopy\n      jump(tag_409)\n    tag_410:\n      0x60\n      swap2\n      pop\n    tag_409:\n      pop\n        /* \"NFT-Contracts/new/finalMarket_single.sol\":20597:20654  (bool success, ) = _nftSeller.call{value: _buyAmount}(\"\") */\n      pop\n      swap1\n      pop\n        /* \"NFT-Contracts/new/finalMarket_single.sol\":20673:20680  success */\n      dup1\n        /* \"NFT-Contracts/new/finalMarket_single.sol\":20665:20698  require(success, \"refund failed\") */\n      tag_381\n      jumpi\n      mload(0x40)\n      shl(0xe5, 0x461bcd)\n      dup2\n      mstore\n        /* \"#utility.yul\":15588:15590   */\n      0x20\n        /* \"NFT-Contracts/new/finalMarket_single.sol\":20665:20698  require(success, \"refund failed\") */\n      0x04\n      dup3\n      add\n        /* \"#utility.yul\":15570:15591   */\n      mstore\n        /* \"#utility.yul\":15627:15629   */\n      0x0d\n        /* \"#utility.yul\":15607:15625   */\n      0x24\n      dup3\n      add\n        /* \"#utility.yul\":15600:15630   */\n      mstore\n      shl(0x9a, 0x1c99599d5b990819985a5b1959)\n        /* \"#utility.yul\":15646:15664   */\n      0x44\n      dup3\n      add\n        /* \"#utility.yul\":15639:15682   */\n      mstore\n        /* \"#utility.yul\":15699:15717   */\n      0x64\n      add\n        /* \"NFT-Contracts/new/finalMarket_single.sol\":20665:20698  require(success, \"refund failed\") */\n      tag_131\n        /* \"#utility.yul\":15386:15723   */\n      jump\n        /* \"#utility.yul\":14:265   */\n    tag_229:\n        /* \"#utility.yul\":84:90   */\n      0x00\n        /* \"#utility.yul\":137:139   */\n      0x20\n        /* \"#utility.yul\":125:134   */\n      dup3\n        /* \"#utility.yul\":116:123   */\n      dup5\n        /* \"#utility.yul\":112:135   */\n      sub\n        /* \"#utility.yul\":108:140   */\n      slt\n        /* \"#utility.yul\":105:157   */\n      iszero\n      tag_416\n      jumpi\n        /* \"#utility.yul\":153:154   */\n      0x00\n        /* \"#utility.yul\":150:151   */\n      dup1\n        /* \"#utility.yul\":143:155   */\n      revert\n        /* \"#utility.yul\":105:157   */\n    tag_416:\n        /* \"#utility.yul\":185:194   */\n      dup2\n        /* \"#utility.yul\":179:195   */\n      mload\n        /* \"#utility.yul\":204:235   */\n      tag_371\n        /* \"#utility.yul\":229:234   */\n      dup2\n        /* \"#utility.yul\":204:235   */\n      tag_418\n      jump\t// in\n        /* \"#utility.yul\":270:726   */\n    tag_30:\n        /* \"#utility.yul\":347:353   */\n      0x00\n        /* \"#utility.yul\":355:361   */\n      dup1\n        /* \"#utility.yul\":363:369   */\n      0x00\n        /* \"#utility.yul\":416:418   */\n      0x60\n        /* \"#utility.yul\":404:413   */\n      dup5\n        /* \"#utility.yul\":395:402   */\n      dup7\n        /* \"#utility.yul\":391:414   */\n      sub\n        /* \"#utility.yul\":387:419   */\n      slt\n        /* \"#utility.yul\":384:436   */\n      iszero\n      tag_420\n      jumpi\n        /* \"#utility.yul\":432:433   */\n      0x00\n        /* \"#utility.yul\":429:430   */\n      dup1\n        /* \"#utility.yul\":422:434   */\n      revert\n        /* \"#utility.yul\":384:436   */\n    tag_420:\n        /* \"#utility.yul\":471:480   */\n      dup4\n        /* \"#utility.yul\":458:481   */\n      calldataload\n        /* \"#utility.yul\":490:521   */\n      tag_421\n        /* \"#utility.yul\":515:520   */\n      dup2\n        /* \"#utility.yul\":490:521   */\n      tag_418\n      jump\t// in\n    tag_421:\n        /* \"#utility.yul\":540:545   */\n      swap3\n      pop\n        /* \"#utility.yul\":597:599   */\n      0x20\n        /* \"#utility.yul\":582:600   */\n      dup5\n      add\n        /* \"#utility.yul\":569:601   */\n      calldataload\n        /* \"#utility.yul\":610:643   */\n      tag_422\n        /* \"#utility.yul\":569:601   */\n      dup2\n        /* \"#utility.yul\":610:643   */\n      tag_418\n      jump\t// in\n    tag_422:\n        /* \"#utility.yul\":270:726   */\n      swap3\n      swap6\n        /* \"#utility.yul\":662:669   */\n      swap3\n      swap5\n      pop\n      pop\n      pop\n        /* \"#utility.yul\":716:718   */\n      0x40\n        /* \"#utility.yul\":701:719   */\n      swap2\n      swap1\n      swap2\n      add\n        /* \"#utility.yul\":688:720   */\n      calldataload\n      swap1\n        /* \"#utility.yul\":270:726   */\n      jump\t// out\n        /* \"#utility.yul\":731:1667   */\n    tag_37:\n        /* \"#utility.yul\":828:834   */\n      0x00\n        /* \"#utility.yul\":836:842   */\n      dup1\n        /* \"#utility.yul\":844:850   */\n      0x00\n        /* \"#utility.yul\":852:858   */\n      dup1\n        /* \"#utility.yul\":860:866   */\n      0x00\n        /* \"#utility.yul\":913:916   */\n      0x80\n        /* \"#utility.yul\":901:910   */\n      dup7\n        /* \"#utility.yul\":892:899   */\n      dup9\n        /* \"#utility.yul\":888:911   */\n      sub\n        /* \"#utility.yul\":884:917   */\n      slt\n        /* \"#utility.yul\":881:934   */\n      iszero\n      tag_424\n      jumpi\n        /* \"#utility.yul\":930:931   */\n      0x00\n        /* \"#utility.yul\":927:928   */\n      dup1\n        /* \"#utility.yul\":920:932   */\n      revert\n        /* \"#utility.yul\":881:934   */\n    tag_424:\n        /* \"#utility.yul\":969:978   */\n      dup6\n        /* \"#utility.yul\":956:979   */\n      calldataload\n        /* \"#utility.yul\":988:1019   */\n      tag_425\n        /* \"#utility.yul\":1013:1018   */\n      dup2\n        /* \"#utility.yul\":988:1019   */\n      tag_418\n      jump\t// in\n    tag_425:\n        /* \"#utility.yul\":1038:1043   */\n      swap5\n      pop\n        /* \"#utility.yul\":1095:1097   */\n      0x20\n        /* \"#utility.yul\":1080:1098   */\n      dup7\n      add\n        /* \"#utility.yul\":1067:1099   */\n      calldataload\n        /* \"#utility.yul\":1108:1141   */\n      tag_426\n        /* \"#utility.yul\":1067:1099   */\n      dup2\n        /* \"#utility.yul\":1108:1141   */\n      tag_418\n      jump\t// in\n    tag_426:\n        /* \"#utility.yul\":1160:1167   */\n      swap4\n      pop\n        /* \"#utility.yul\":1214:1216   */\n      0x40\n        /* \"#utility.yul\":1199:1217   */\n      dup7\n      add\n        /* \"#utility.yul\":1186:1218   */\n      calldataload\n      swap3\n      pop\n        /* \"#utility.yul\":1269:1271   */\n      0x60\n        /* \"#utility.yul\":1254:1272   */\n      dup7\n      add\n        /* \"#utility.yul\":1241:1273   */\n      calldataload\n        /* \"#utility.yul\":1292:1310   */\n      0xffffffffffffffff\n        /* \"#utility.yul\":1322:1336   */\n      dup1\n      dup3\n      gt\n        /* \"#utility.yul\":1319:1353   */\n      iszero\n      tag_427\n      jumpi\n        /* \"#utility.yul\":1349:1350   */\n      0x00\n        /* \"#utility.yul\":1346:1347   */\n      dup1\n        /* \"#utility.yul\":1339:1351   */\n      revert\n        /* \"#utility.yul\":1319:1353   */\n    tag_427:\n        /* \"#utility.yul\":1387:1393   */\n      dup2\n        /* \"#utility.yul\":1376:1385   */\n      dup9\n        /* \"#utility.yul\":1372:1394   */\n      add\n        /* \"#utility.yul\":1362:1394   */\n      swap2\n      pop\n        /* \"#utility.yul\":1432:1439   */\n      dup9\n        /* \"#utility.yul\":1425:1429   */\n      0x1f\n        /* \"#utility.yul\":1421:1423   */\n      dup4\n        /* \"#utility.yul\":1417:1430   */\n      add\n        /* \"#utility.yul\":1413:1440   */\n      slt\n        /* \"#utility.yul\":1403:1458   */\n      tag_428\n      jumpi\n        /* \"#utility.yul\":1454:1455   */\n      0x00\n        /* \"#utility.yul\":1451:1452   */\n      dup1\n        /* \"#utility.yul\":1444:1456   */\n      revert\n        /* \"#utility.yul\":1403:1458   */\n    tag_428:\n        /* \"#utility.yul\":1494:1496   */\n      dup2\n        /* \"#utility.yul\":1481:1497   */\n      calldataload\n        /* \"#utility.yul\":1520:1522   */\n      dup2\n        /* \"#utility.yul\":1512:1518   */\n      dup2\n        /* \"#utility.yul\":1509:1523   */\n      gt\n        /* \"#utility.yul\":1506:1540   */\n      iszero\n      tag_429\n      jumpi\n        /* \"#utility.yul\":1536:1537   */\n      0x00\n        /* \"#utility.yul\":1533:1534   */\n      dup1\n        /* \"#utility.yul\":1526:1538   */\n      revert\n        /* \"#utility.yul\":1506:1540   */\n    tag_429:\n        /* \"#utility.yul\":1581:1588   */\n      dup10\n        /* \"#utility.yul\":1576:1578   */\n      0x20\n        /* \"#utility.yul\":1567:1573   */\n      dup3\n        /* \"#utility.yul\":1563:1565   */\n      dup6\n        /* \"#utility.yul\":1559:1574   */\n      add\n        /* \"#utility.yul\":1555:1579   */\n      add\n        /* \"#utility.yul\":1552:1589   */\n      gt\n        /* \"#utility.yul\":1549:1606   */\n      iszero\n      tag_430\n      jumpi\n        /* \"#utility.yul\":1602:1603   */\n      0x00\n        /* \"#utility.yul\":1599:1600   */\n      dup1\n        /* \"#utility.yul\":1592:1604   */\n      revert\n        /* \"#utility.yul\":1549:1606   */\n    tag_430:\n        /* \"#utility.yul\":731:1667   */\n      swap7\n      swap10\n      swap6\n      swap9\n      pop\n      swap4\n      swap7\n      pop\n        /* \"#utility.yul\":1633:1635   */\n      0x20\n        /* \"#utility.yul\":1625:1636   */\n      add\n      swap5\n        /* \"#utility.yul\":1655:1661   */\n      swap4\n        /* \"#utility.yul\":731:1667   */\n      swap3\n      pop\n      pop\n      pop\n      jump\t// out\n        /* \"#utility.yul\":1672:2197   */\n    tag_75:\n        /* \"#utility.yul\":1758:1764   */\n      0x00\n        /* \"#utility.yul\":1766:1772   */\n      dup1\n        /* \"#utility.yul\":1774:1780   */\n      0x00\n        /* \"#utility.yul\":1782:1788   */\n      dup1\n        /* \"#utility.yul\":1835:1838   */\n      0x80\n        /* \"#utility.yul\":1823:1832   */\n      dup6\n        /* \"#utility.yul\":1814:1821   */\n      dup8\n        /* \"#utility.yul\":1810:1833   */\n      sub\n        /* \"#utility.yul\":1806:1839   */\n      slt\n        /* \"#utility.yul\":1803:1856   */\n      iszero\n      tag_432\n      jumpi\n        /* \"#utility.yul\":1852:1853   */\n      0x00\n        /* \"#utility.yul\":1849:1850   */\n      dup1\n        /* \"#utility.yul\":1842:1854   */\n      revert\n        /* \"#utility.yul\":1803:1856   */\n    tag_432:\n        /* \"#utility.yul\":1891:1900   */\n      dup5\n        /* \"#utility.yul\":1878:1901   */\n      calldataload\n        /* \"#utility.yul\":1910:1941   */\n      tag_433\n        /* \"#utility.yul\":1935:1940   */\n      dup2\n        /* \"#utility.yul\":1910:1941   */\n      tag_418\n      jump\t// in\n    tag_433:\n        /* \"#utility.yul\":1960:1965   */\n      swap4\n      pop\n        /* \"#utility.yul\":2017:2019   */\n      0x20\n        /* \"#utility.yul\":2002:2020   */\n      dup6\n      add\n        /* \"#utility.yul\":1989:2021   */\n      calldataload\n        /* \"#utility.yul\":2030:2063   */\n      tag_434\n        /* \"#utility.yul\":1989:2021   */\n      dup2\n        /* \"#utility.yul\":2030:2063   */\n      tag_418\n      jump\t// in\n    tag_434:\n        /* \"#utility.yul\":1672:2197   */\n      swap4\n      swap7\n        /* \"#utility.yul\":2082:2089   */\n      swap4\n      swap6\n      pop\n      pop\n      pop\n      pop\n        /* \"#utility.yul\":2136:2138   */\n      0x40\n        /* \"#utility.yul\":2121:2139   */\n      dup3\n      add\n        /* \"#utility.yul\":2108:2140   */\n      calldataload\n      swap2\n        /* \"#utility.yul\":2187:2189   */\n      0x60\n        /* \"#utility.yul\":2172:2190   */\n      add\n        /* \"#utility.yul\":2159:2191   */\n      calldataload\n      swap1\n        /* \"#utility.yul\":1672:2197   */\n      jump\t// out\n        /* \"#utility.yul\":2202:2865   */\n    tag_114:\n        /* \"#utility.yul\":2306:2312   */\n      0x00\n        /* \"#utility.yul\":2314:2320   */\n      dup1\n        /* \"#utility.yul\":2322:2328   */\n      0x00\n        /* \"#utility.yul\":2330:2336   */\n      dup1\n        /* \"#utility.yul\":2338:2344   */\n      0x00\n        /* \"#utility.yul\":2346:2352   */\n      dup1\n        /* \"#utility.yul\":2399:2402   */\n      0xc0\n        /* \"#utility.yul\":2387:2396   */\n      dup8\n        /* \"#utility.yul\":2378:2385   */\n      dup10\n        /* \"#utility.yul\":2374:2397   */\n      sub\n        /* \"#utility.yul\":2370:2403   */\n      slt\n        /* \"#utility.yul\":2367:2420   */\n      iszero\n      tag_436\n      jumpi\n        /* \"#utility.yul\":2416:2417   */\n      0x00\n        /* \"#utility.yul\":2413:2414   */\n      dup1\n        /* \"#utility.yul\":2406:2418   */\n      revert\n        /* \"#utility.yul\":2367:2420   */\n    tag_436:\n        /* \"#utility.yul\":2455:2464   */\n      dup7\n        /* \"#utility.yul\":2442:2465   */\n      calldataload\n        /* \"#utility.yul\":2474:2505   */\n      tag_437\n        /* \"#utility.yul\":2499:2504   */\n      dup2\n        /* \"#utility.yul\":2474:2505   */\n      tag_418\n      jump\t// in\n    tag_437:\n        /* \"#utility.yul\":2524:2529   */\n      swap6\n      pop\n        /* \"#utility.yul\":2581:2583   */\n      0x20\n        /* \"#utility.yul\":2566:2584   */\n      dup8\n      add\n        /* \"#utility.yul\":2553:2585   */\n      calldataload\n        /* \"#utility.yul\":2594:2627   */\n      tag_438\n        /* \"#utility.yul\":2553:2585   */\n      dup2\n        /* \"#utility.yul\":2594:2627   */\n      tag_418\n      jump\t// in\n    tag_438:\n        /* \"#utility.yul\":2202:2865   */\n      swap6\n      swap9\n        /* \"#utility.yul\":2646:2653   */\n      swap6\n      swap8\n      pop\n      pop\n      pop\n      pop\n        /* \"#utility.yul\":2700:2702   */\n      0x40\n        /* \"#utility.yul\":2685:2703   */\n      dup5\n      add\n        /* \"#utility.yul\":2672:2704   */\n      calldataload\n      swap4\n        /* \"#utility.yul\":2751:2753   */\n      0x60\n        /* \"#utility.yul\":2736:2754   */\n      dup2\n      add\n        /* \"#utility.yul\":2723:2755   */\n      calldataload\n      swap4\n        /* \"#utility.yul\":2802:2805   */\n      0x80\n        /* \"#utility.yul\":2787:2806   */\n      dup3\n      add\n        /* \"#utility.yul\":2774:2807   */\n      calldataload\n      swap4\n      pop\n        /* \"#utility.yul\":2854:2857   */\n      0xa0\n        /* \"#utility.yul\":2839:2858   */\n      swap1\n      swap2\n      add\n        /* \"#utility.yul\":2826:2859   */\n      calldataload\n      swap2\n      pop\n        /* \"#utility.yul\":2202:2865   */\n      jump\t// out\n        /* \"#utility.yul\":2870:3185   */\n    tag_60:\n        /* \"#utility.yul\":2938:2944   */\n      0x00\n        /* \"#utility.yul\":2946:2952   */\n      dup1\n        /* \"#utility.yul\":2999:3001   */\n      0x40\n        /* \"#utility.yul\":2987:2996   */\n      dup4\n        /* \"#utility.yul\":2978:2985   */\n      dup6\n        /* \"#utility.yul\":2974:2997   */\n      sub\n        /* \"#utility.yul\":2970:3002   */\n      slt\n        /* \"#utility.yul\":2967:3019   */\n      iszero\n      tag_440\n      jumpi\n        /* \"#utility.yul\":3015:3016   */\n      0x00\n        /* \"#utility.yul\":3012:3013   */\n      dup1\n        /* \"#utility.yul\":3005:3017   */\n      revert\n        /* \"#utility.yul\":2967:3019   */\n    tag_440:\n        /* \"#utility.yul\":3054:3063   */\n      dup3\n        /* \"#utility.yul\":3041:3064   */\n      calldataload\n        /* \"#utility.yul\":3073:3104   */\n      tag_441\n        /* \"#utility.yul\":3098:3103   */\n      dup2\n        /* \"#utility.yul\":3073:3104   */\n      tag_418\n      jump\t// in\n    tag_441:\n        /* \"#utility.yul\":3123:3128   */\n      swap5\n        /* \"#utility.yul\":3175:3177   */\n      0x20\n        /* \"#utility.yul\":3160:3178   */\n      swap4\n      swap1\n      swap4\n      add\n        /* \"#utility.yul\":3147:3179   */\n      calldataload\n      swap4\n      pop\n      pop\n      pop\n        /* \"#utility.yul\":2870:3185   */\n      jump\t// out\n        /* \"#utility.yul\":3190:3646   */\n    tag_86:\n        /* \"#utility.yul\":3267:3273   */\n      0x00\n        /* \"#utility.yul\":3275:3281   */\n      dup1\n        /* \"#utility.yul\":3283:3289   */\n      0x00\n        /* \"#utility.yul\":3336:3338   */\n      0x60\n        /* \"#utility.yul\":3324:3333   */\n      dup5\n        /* \"#utility.yul\":3315:3322   */\n      dup7\n        /* \"#utility.yul\":3311:3334   */\n      sub\n        /* \"#utility.yul\":3307:3339   */\n      slt\n        /* \"#utility.yul\":3304:3356   */\n      iszero\n      tag_443\n      jumpi\n        /* \"#utility.yul\":3352:3353   */\n      0x00\n        /* \"#utility.yul\":3349:3350   */\n      dup1\n        /* \"#utility.yul\":3342:3354   */\n      revert\n        /* \"#utility.yul\":3304:3356   */\n    tag_443:\n        /* \"#utility.yul\":3391:3400   */\n      dup4\n        /* \"#utility.yul\":3378:3401   */\n      calldataload\n        /* \"#utility.yul\":3410:3441   */\n      tag_444\n        /* \"#utility.yul\":3435:3440   */\n      dup2\n        /* \"#utility.yul\":3410:3441   */\n      tag_418\n      jump\t// in\n    tag_444:\n        /* \"#utility.yul\":3460:3465   */\n      swap3\n      pop\n        /* \"#utility.yul\":3512:3514   */\n      0x20\n        /* \"#utility.yul\":3497:3515   */\n      dup5\n      add\n        /* \"#utility.yul\":3484:3516   */\n      calldataload\n      swap2\n      pop\n        /* \"#utility.yul\":3568:3570   */\n      0x40\n        /* \"#utility.yul\":3553:3571   */\n      dup5\n      add\n        /* \"#utility.yul\":3540:3572   */\n      calldataload\n        /* \"#utility.yul\":3581:3614   */\n      tag_445\n        /* \"#utility.yul\":3540:3572   */\n      dup2\n        /* \"#utility.yul\":3581:3614   */\n      tag_418\n      jump\t// in\n    tag_445:\n        /* \"#utility.yul\":3633:3640   */\n      dup1\n        /* \"#utility.yul\":3623:3640   */\n      swap2\n      pop\n      pop\n        /* \"#utility.yul\":3190:3646   */\n      swap3\n      pop\n      swap3\n      pop\n      swap3\n      jump\t// out\n        /* \"#utility.yul\":3651:4034   */\n    tag_43:\n        /* \"#utility.yul\":3728:3734   */\n      0x00\n        /* \"#utility.yul\":3736:3742   */\n      dup1\n        /* \"#utility.yul\":3744:3750   */\n      0x00\n        /* \"#utility.yul\":3797:3799   */\n      0x60\n        /* \"#utility.yul\":3785:3794   */\n      dup5\n        /* \"#utility.yul\":3776:3783   */\n      dup7\n        /* \"#utility.yul\":3772:3795   */\n      sub\n        /* \"#utility.yul\":3768:3800   */\n      slt\n        /* \"#utility.yul\":3765:3817   */\n      iszero\n      tag_447\n      jumpi\n        /* \"#utility.yul\":3813:3814   */\n      0x00\n        /* \"#utility.yul\":3810:3811   */\n      dup1\n        /* \"#utility.yul\":3803:3815   */\n      revert\n        /* \"#utility.yul\":3765:3817   */\n    tag_447:\n        /* \"#utility.yul\":3852:3861   */\n      dup4\n        /* \"#utility.yul\":3839:3862   */\n      calldataload\n        /* \"#utility.yul\":3871:3902   */\n      tag_448\n        /* \"#utility.yul\":3896:3901   */\n      dup2\n        /* \"#utility.yul\":3871:3902   */\n      tag_418\n      jump\t// in\n    tag_448:\n        /* \"#utility.yul\":3921:3926   */\n      swap6\n        /* \"#utility.yul\":3973:3975   */\n      0x20\n        /* \"#utility.yul\":3958:3976   */\n      dup6\n      add\n        /* \"#utility.yul\":3945:3977   */\n      calldataload\n      swap6\n      pop\n        /* \"#utility.yul\":4024:4026   */\n      0x40\n        /* \"#utility.yul\":4009:4027   */\n      swap1\n      swap5\n      add\n        /* \"#utility.yul\":3996:4028   */\n      calldataload\n      swap4\n        /* \"#utility.yul\":3651:4034   */\n      swap3\n      pop\n      pop\n      pop\n      jump\t// out\n        /* \"#utility.yul\":4039:4316   */\n    tag_127:\n        /* \"#utility.yul\":4106:4112   */\n      0x00\n        /* \"#utility.yul\":4159:4161   */\n      0x20\n        /* \"#utility.yul\":4147:4156   */\n      dup3\n        /* \"#utility.yul\":4138:4145   */\n      dup5\n        /* \"#utility.yul\":4134:4157   */\n      sub\n        /* \"#utility.yul\":4130:4162   */\n      slt\n        /* \"#utility.yul\":4127:4179   */\n      iszero\n      tag_450\n      jumpi\n        /* \"#utility.yul\":4175:4176   */\n      0x00\n        /* \"#utility.yul\":4172:4173   */\n      dup1\n        /* \"#utility.yul\":4165:4177   */\n      revert\n        /* \"#utility.yul\":4127:4179   */\n    tag_450:\n        /* \"#utility.yul\":4207:4216   */\n      dup2\n        /* \"#utility.yul\":4201:4217   */\n      mload\n        /* \"#utility.yul\":4260:4265   */\n      dup1\n        /* \"#utility.yul\":4253:4266   */\n      iszero\n        /* \"#utility.yul\":4246:4267   */\n      iszero\n        /* \"#utility.yul\":4239:4244   */\n      dup2\n        /* \"#utility.yul\":4236:4268   */\n      eq\n        /* \"#utility.yul\":4226:4286   */\n      tag_371\n      jumpi\n        /* \"#utility.yul\":4282:4283   */\n      0x00\n        /* \"#utility.yul\":4279:4280   */\n      dup1\n        /* \"#utility.yul\":4272:4284   */\n      revert\n        /* \"#utility.yul\":6122:6497   */\n    tag_122:\n      sub(shl(0xa0, 0x01), 0x01)\n        /* \"#utility.yul\":6380:6395   */\n      swap4\n      dup5\n      and\n        /* \"#utility.yul\":6362:6396   */\n      dup2\n      mstore\n        /* \"#utility.yul\":6432:6447   */\n      swap2\n      swap1\n      swap3\n      and\n        /* \"#utility.yul\":6427:6429   */\n      0x20\n        /* \"#utility.yul\":6412:6430   */\n      dup3\n      add\n        /* \"#utility.yul\":6405:6448   */\n      mstore\n        /* \"#utility.yul\":6479:6481   */\n      0x40\n        /* \"#utility.yul\":6464:6482   */\n      dup2\n      add\n        /* \"#utility.yul\":6457:6491   */\n      swap2\n      swap1\n      swap2\n      mstore\n        /* \"#utility.yul\":6312:6314   */\n      0x60\n        /* \"#utility.yul\":6297:6315   */\n      add\n      swap1\n        /* \"#utility.yul\":6122:6497   */\n      jump\t// out\n        /* \"#utility.yul\":8948:9762   */\n    tag_49:\n        /* \"#utility.yul\":9169:9171   */\n      0x20\n        /* \"#utility.yul\":9221:9242   */\n      dup1\n      dup3\n      mstore\n        /* \"#utility.yul\":9291:9304   */\n      dup3\n      mload\n        /* \"#utility.yul\":9194:9212   */\n      dup3\n      dup3\n      add\n        /* \"#utility.yul\":9313:9335   */\n      dup2\n      swap1\n      mstore\n        /* \"#utility.yul\":9140:9144   */\n      0x00\n      swap2\n        /* \"#utility.yul\":9169:9171   */\n      swap1\n        /* \"#utility.yul\":9354:9356   */\n      0x40\n      swap1\n        /* \"#utility.yul\":9372:9390   */\n      dup2\n      dup6\n      add\n      swap1\n        /* \"#utility.yul\":9413:9428   */\n      dup7\n      dup5\n      add\n        /* \"#utility.yul\":9140:9144   */\n      dup6\n        /* \"#utility.yul\":9456:9736   */\n    tag_464:\n        /* \"#utility.yul\":9470:9476   */\n      dup3\n        /* \"#utility.yul\":9467:9468   */\n      dup2\n        /* \"#utility.yul\":9464:9477   */\n      lt\n        /* \"#utility.yul\":9456:9736   */\n      iszero\n      tag_466\n      jumpi\n        /* \"#utility.yul\":9529:9542   */\n      dup2\n      mload\n        /* \"#utility.yul\":9571:9580   */\n      dup1\n      mload\n      sub(shl(0xa0, 0x01), 0x01)\n        /* \"#utility.yul\":9567:9602   */\n      and\n        /* \"#utility.yul\":9555:9603   */\n      dup6\n      mstore\n        /* \"#utility.yul\":9643:9654   */\n      dup7\n      add\n        /* \"#utility.yul\":9637:9655   */\n      mload\n        /* \"#utility.yul\":9623:9635   */\n      dup7\n      dup6\n      add\n        /* \"#utility.yul\":9616:9656   */\n      mstore\n        /* \"#utility.yul\":9676:9688   */\n      swap3\n      dup5\n      add\n      swap3\n        /* \"#utility.yul\":9711:9726   */\n      swap1\n      dup6\n      add\n      swap1\n        /* \"#utility.yul\":9599:9600   */\n      0x01\n        /* \"#utility.yul\":9485:9494   */\n      add\n        /* \"#utility.yul\":9456:9736   */\n      jump(tag_464)\n    tag_466:\n      pop\n        /* \"#utility.yul\":9753:9756   */\n      swap2\n      swap8\n        /* \"#utility.yul\":8948:9762   */\n      swap7\n      pop\n      pop\n      pop\n      pop\n      pop\n      pop\n      pop\n      jump\t// out\n        /* \"#utility.yul\":10874:11215   */\n    tag_140:\n        /* \"#utility.yul\":11076:11078   */\n      0x20\n        /* \"#utility.yul\":11058:11079   */\n      dup1\n      dup3\n      mstore\n        /* \"#utility.yul\":11115:11117   */\n      0x11\n        /* \"#utility.yul\":11095:11113   */\n      swap1\n      dup3\n      add\n        /* \"#utility.yul\":11088:11118   */\n      mstore\n      shl(0x7c, 0x050726963652063616e6e6f74206265203)\n        /* \"#utility.yul\":11149:11151   */\n      0x40\n        /* \"#utility.yul\":11134:11152   */\n      dup3\n      add\n        /* \"#utility.yul\":11127:11174   */\n      mstore\n        /* \"#utility.yul\":11206:11208   */\n      0x60\n        /* \"#utility.yul\":11191:11209   */\n      add\n      swap1\n        /* \"#utility.yul\":10874:11215   */\n      jump\t// out\n        /* \"#utility.yul\":11562:11907   */\n    tag_184:\n        /* \"#utility.yul\":11764:11766   */\n      0x20\n        /* \"#utility.yul\":11746:11767   */\n      dup1\n      dup3\n      mstore\n        /* \"#utility.yul\":11803:11805   */\n      0x15\n        /* \"#utility.yul\":11783:11801   */\n      swap1\n      dup3\n      add\n        /* \"#utility.yul\":11776:11806   */\n      mstore\n      shl(0x58, 0x4e6674206e6f7420696e2066697865642073616c65)\n        /* \"#utility.yul\":11837:11839   */\n      0x40\n        /* \"#utility.yul\":11822:11840   */\n      dup3\n      add\n        /* \"#utility.yul\":11815:11866   */\n      mstore\n        /* \"#utility.yul\":11898:11900   */\n      0x60\n        /* \"#utility.yul\":11883:11901   */\n      add\n      swap1\n        /* \"#utility.yul\":11562:11907   */\n      jump\t// out\n        /* \"#utility.yul\":11912:12259   */\n    tag_132:\n        /* \"#utility.yul\":12114:12116   */\n      0x20\n        /* \"#utility.yul\":12096:12117   */\n      dup1\n      dup3\n      mstore\n        /* \"#utility.yul\":12153:12155   */\n      0x17\n        /* \"#utility.yul\":12133:12151   */\n      swap1\n      dup3\n      add\n        /* \"#utility.yul\":12126:12156   */\n      mstore\n        /* \"#utility.yul\":12192:12217   */\n      0x4e6674206e6f7420696e2061756374696f6e2073616c65000000000000000000\n        /* \"#utility.yul\":12187:12189   */\n      0x40\n        /* \"#utility.yul\":12172:12190   */\n      dup3\n      add\n        /* \"#utility.yul\":12165:12218   */\n      mstore\n        /* \"#utility.yul\":12250:12252   */\n      0x60\n        /* \"#utility.yul\":12235:12253   */\n      add\n      swap1\n        /* \"#utility.yul\":11912:12259   */\n      jump\t// out\n        /* \"#utility.yul\":12264:12617   */\n    tag_145:\n        /* \"#utility.yul\":12466:12468   */\n      0x20\n        /* \"#utility.yul\":12448:12469   */\n      dup1\n      dup3\n      mstore\n        /* \"#utility.yul\":12505:12507   */\n      0x1d\n        /* \"#utility.yul\":12485:12503   */\n      swap1\n      dup3\n      add\n        /* \"#utility.yul\":12478:12508   */\n      mstore\n        /* \"#utility.yul\":12544:12575   */\n      0x4269642047726561746572207468616e2050726576696f757320426964000000\n        /* \"#utility.yul\":12539:12541   */\n      0x40\n        /* \"#utility.yul\":12524:12542   */\n      dup3\n      add\n        /* \"#utility.yul\":12517:12576   */\n      mstore\n        /* \"#utility.yul\":12608:12610   */\n      0x60\n        /* \"#utility.yul\":12593:12611   */\n      add\n      swap1\n        /* \"#utility.yul\":12264:12617   */\n      jump\t// out\n        /* \"#utility.yul\":12622:12957   */\n    tag_136:\n        /* \"#utility.yul\":12824:12826   */\n      0x20\n        /* \"#utility.yul\":12806:12827   */\n      dup1\n      dup3\n      mstore\n        /* \"#utility.yul\":12863:12865   */\n      0x0b\n        /* \"#utility.yul\":12843:12861   */\n      swap1\n      dup3\n      add\n        /* \"#utility.yul\":12836:12866   */\n      mstore\n      shl(0xaa, 0x105d58dd1a5bdb88195b99)\n        /* \"#utility.yul\":12897:12899   */\n      0x40\n        /* \"#utility.yul\":12882:12900   */\n      dup3\n      add\n        /* \"#utility.yul\":12875:12916   */\n      mstore\n        /* \"#utility.yul\":12948:12950   */\n      0x60\n        /* \"#utility.yul\":12933:12951   */\n      add\n      swap1\n        /* \"#utility.yul\":12622:12957   */\n      jump\t// out\n        /* \"#utility.yul\":14339:14684   */\n    tag_188:\n        /* \"#utility.yul\":14541:14543   */\n      0x20\n        /* \"#utility.yul\":14523:14544   */\n      dup1\n      dup3\n      mstore\n        /* \"#utility.yul\":14580:14582   */\n      0x15\n        /* \"#utility.yul\":14560:14578   */\n      swap1\n      dup3\n      add\n        /* \"#utility.yul\":14553:14583   */\n      mstore\n      shl(0x59, 0x2cb7ba9030b932903737ba1037333a1037bbb732b9)\n        /* \"#utility.yul\":14614:14616   */\n      0x40\n        /* \"#utility.yul\":14599:14617   */\n      dup3\n      add\n        /* \"#utility.yul\":14592:14643   */\n      mstore\n        /* \"#utility.yul\":14675:14677   */\n      0x60\n        /* \"#utility.yul\":14660:14678   */\n      add\n      swap1\n        /* \"#utility.yul\":14339:14684   */\n      jump\t// out\n        /* \"#utility.yul\":17128:17353   */\n    tag_372:\n        /* \"#utility.yul\":17168:17171   */\n      0x00\n        /* \"#utility.yul\":17199:17200   */\n      dup3\n        /* \"#utility.yul\":17195:17201   */\n      not\n        /* \"#utility.yul\":17192:17193   */\n      dup3\n        /* \"#utility.yul\":17189:17202   */\n      gt\n        /* \"#utility.yul\":17186:17322   */\n      iszero\n      tag_489\n      jumpi\n        /* \"#utility.yul\":17244:17254   */\n      0x4e487b71\n        /* \"#utility.yul\":17239:17242   */\n      0xe0\n        /* \"#utility.yul\":17235:17255   */\n      shl\n        /* \"#utility.yul\":17232:17233   */\n      0x00\n        /* \"#utility.yul\":17225:17256   */\n      mstore\n        /* \"#utility.yul\":17279:17283   */\n      0x11\n        /* \"#utility.yul\":17276:17277   */\n      0x04\n        /* \"#utility.yul\":17269:17284   */\n      mstore\n        /* \"#utility.yul\":17307:17311   */\n      0x24\n        /* \"#utility.yul\":17304:17305   */\n      0x00\n        /* \"#utility.yul\":17297:17312   */\n      revert\n        /* \"#utility.yul\":17186:17322   */\n    tag_489:\n      pop\n        /* \"#utility.yul\":17338:17347   */\n      add\n      swap1\n        /* \"#utility.yul\":17128:17353   */\n      jump\t// out\n        /* \"#utility.yul\":17358:17485   */\n    tag_219:\n        /* \"#utility.yul\":17419:17429   */\n      0x4e487b71\n        /* \"#utility.yul\":17414:17417   */\n      0xe0\n        /* \"#utility.yul\":17410:17430   */\n      shl\n        /* \"#utility.yul\":17407:17408   */\n      0x00\n        /* \"#utility.yul\":17400:17431   */\n      mstore\n        /* \"#utility.yul\":17450:17454   */\n      0x32\n        /* \"#utility.yul\":17447:17448   */\n      0x04\n        /* \"#utility.yul\":17440:17455   */\n      mstore\n        /* \"#utility.yul\":17474:17478   */\n      0x24\n        /* \"#utility.yul\":17471:17472   */\n      0x00\n        /* \"#utility.yul\":17464:17479   */\n      revert\n        /* \"#utility.yul\":17490:17621   */\n    tag_418:\n      sub(shl(0xa0, 0x01), 0x01)\n        /* \"#utility.yul\":17565:17596   */\n      dup2\n      and\n        /* \"#utility.yul\":17555:17597   */\n      dup2\n      eq\n        /* \"#utility.yul\":17545:17615   */\n      tag_492\n      jumpi\n        /* \"#utility.yul\":17611:17612   */\n      0x00\n        /* \"#utility.yul\":17608:17609   */\n      dup1\n        /* \"#utility.yul\":17601:17613   */\n      revert\n        /* \"#utility.yul\":17545:17615   */\n    tag_492:\n        /* \"#utility.yul\":17490:17621   */\n      pop\n      jump\t// out\n\n    auxdata: 0xa2646970667358221220123222f5edb3c41a714939d5cebcb43bb641a4ce084554c51deb482ff259152264736f6c63430008070033\n}\n",
				"bytecode": {
					"linkReferences": {},
					"object": "608060405234801561001057600080fd5b50612b79806100206000396000f3fe6080604052600436106101175760003560e01c806369a6d12e116100a05780638c3417da116100645780638c3417da146103ad5780639f085a0014610481578063baf4371e14610496578063cf42b7e6146104a9578063d3a6a6c9146104c957600080fd5b806369a6d12e1461028d5780636f8c9b1b146102ad5780636fe02f241461032f5780637ad47a211461036d578063842bc46a1461038d57600080fd5b80633a713db8116100e75780633a713db8146101d45780634676adca146101e75780634cb8ef5b146102075780635138b08c146102275780636916462f1461024757600080fd5b8062e2097c14610123578063150b7a02146101585780631bdae6f11461019d5780631e7a044f146101b257600080fd5b3661011e57005b600080fd5b34801561012f57600080fd5b5061014361013e366004612713565b6104e9565b60405190151581526020015b60405180910390f35b34801561016457600080fd5b50610184610173366004612754565b630a85bd0160e11b95945050505050565b6040516001600160e01b0319909116815260200161014f565b6101b06101ab366004612900565b610590565b005b3480156101be57600080fd5b506101c76108d9565b60405161014f919061297b565b6101b06101e2366004612900565b61094e565b3480156101f357600080fd5b506101b0610202366004612900565b610c62565b34801561021357600080fd5b506101b0610222366004612892565b610d7e565b34801561023357600080fd5b506101b0610242366004612892565b610f39565b34801561025357600080fd5b5061027f610262366004612892565b600260209081526000928352604080842090915290825290205481565b60405190815260200161014f565b34801561029957600080fd5b506101b06102a83660046127f3565b61112a565b3480156102b957600080fd5b506102cd6102c8366004612892565b611617565b60405161014f9190815181526020808301519082015260408083015190820152606080830151908201526080808301516001600160a01b039081169183019190915260a08084015182169083015260c092830151169181019190915260e00190565b34801561033b57600080fd5b5061027f61034a3660046128be565b600360209081526000938452604080852082529284528284209052825290205481565b34801561037957600080fd5b50610143610388366004612713565b6116ed565b34801561039957600080fd5b506101b06103a8366004612892565b611736565b3480156103b957600080fd5b506104416103c8366004612892565b60408051608080820183526000808352602080840182905283850182905260609384018290526001600160a01b0396871682528181528482209582529485528390208351918201845280548616825260018101548616948201949094526002840154909416918401919091526003909101549082015290565b6040805182516001600160a01b0390811682526020808501518216908301528383015116918101919091526060918201519181019190915260800161014f565b34801561048d57600080fd5b506101c76119c3565b6101b06104a4366004612900565b611a2e565b3480156104b557600080fd5b506101b06104c4366004612839565b611c80565b3480156104d557600080fd5b506101b06104e4366004612892565b611fe3565b6040516323b872dd60e01b815260009084906001600160a01b038216906323b872dd9061053290732258c5b9c82ff0fa923756ed3fd2acb5616df57c9088908890600401612957565b602060405180830381600087803b15801561054c57600080fd5b505af1158015610560573d6000803e3d6000fd5b505050506040513d601f19601f820116820180604052508101906105849190612935565b50600195945050505050565b6001600160a01b03831660009081526002602081815260408084208685529091529091205484918491146105df5760405162461bcd60e51b81526004016105d690612a2d565b60405180910390fd5b6001600160a01b038516600090815260016020818152604080842088855290915290912001548590859042106106275760405162461bcd60e51b81526004016105d690612a9b565b84600081116106485760405162461bcd60e51b81526004016105d6906129d3565b6001600160a01b0380891660009081526001602090815260408083208b84529091529020600601548991899134918a91166106c7576001600160a01b038416600090815260016020908152604080832086845290915290206003015482116106c25760405162461bcd60e51b81526004016105d690612a64565b61070c565b6001600160a01b0384166000908152600160209081526040808320868452909152902060030154811161070c5760405162461bcd60e51b81526004016105d690612a64565b6001600160a01b038c811660009081526001602090815260408083208f8452909152902060060154161561076e576001600160a01b03808d1660009081526001602090815260408083208f845290915290206006015461076e918c9116612182565b89600160008e6001600160a01b03166001600160a01b0316815260200190815260200160002060008d81526020019081526020016000206003018190555033600160008e6001600160a01b03166001600160a01b0316815260200190815260200160002060008d815260200190815260200160002060040160006101000a8154816001600160a01b0302191690836001600160a01b0316021790555089600360008e6001600160a01b03166001600160a01b0316815260200190815260200160002060008d81526020019081526020016000206000336001600160a01b03166001600160a01b03168152602001908152602001600020819055507fd56cb6210c78740462007b728932c802bc41b205ed5c8a98ab95421eaf054b228c8c8c336040516108c394939291906001600160a01b03948516815260208101939093526040830191909152909116606082015260800190565b60405180910390a1505050505050505050505050565b60606007805480602002602001604051908101604052809291908181526020016000905b82821015610945576000848152602090819020604080518082019091526002850290910180546001600160a01b031682526001908101548284015290835290920191016108fd565b50505050905090565b6001600160a01b03831660009081526002602081815260408084208685529091529091205484918491146109945760405162461bcd60e51b81526004016105d690612a2d565b6001600160a01b038516600090815260016020818152604080842088855290915290912001548590859042106109dc5760405162461bcd60e51b81526004016105d690612a9b565b34600081116109fd5760405162461bcd60e51b81526004016105d6906129d3565b6001600160a01b0380891660009081526001602090815260408083208b84529091528120600601548a928a9234928b9216610a6f576001600160a01b03851660009081526003602090815260408083208784528252808320338452909152902054610a68908461224b565b9050610aa8565b6001600160a01b03851660009081526003602090815260408083208784528252808320338452909152902054610aa5908361224b565b90505b6001600160a01b03851660009081526001602090815260408083208784529091529020600301548111610aed5760405162461bcd60e51b81526004016105d690612a64565b6001600160a01b038d1660009081526003602090815260408083208f845282528083203384529091528120548e918e91610b27908f61224b565b6001600160a01b0384811660009081526001602090815260408083208784529091529020600601549192501615610bae57610bae8e60016000866001600160a01b03166001600160a01b03168152602001908152602001600020600085815260200190815260200160002060060160009054906101000a90046001600160a01b0316612182565b6001600160a01b038316600081815260016020908152604080832086845282528083206003808201879055600490910180546001600160a01b0319163390811790915585855290835281842087855283528184208185528352928190208590558051938452908301859052820183905260608201527f907cdadc7c1a8abcdd80cdd85eb18377631e4f413fb6397a8252ff7b358ac6cb9060800160405180910390a150505050505050505050505050505050565b6001600160a01b038316600090815260026020908152604080832085845290915290205483908390600114610ca95760405162461bcd60e51b81526004016105d6906129fe565b6001600160a01b0385811660009081526020818152604080832088845290915290205486918691163314610cef5760405162461bcd60e51b81526004016105d690612ac0565b8460008111610d105760405162461bcd60e51b81526004016105d6906129d3565b6001600160a01b0388166000818152602081815260408083208b84528252918290206003018990558151928352820189905281018790527f575a0876095ccf47276a37dce683308a625403d132d219f95205ce205b2e12bc9060600160405180910390a15050505050505050565b6001600160a01b03821660009081526001602081815260408084208585529091529091200154829082904211610de85760405162461bcd60e51b815260206004820152600f60248201526e105d58dd1a5bdb881b9bdd08195b99608a1b60448201526064016105d6565b6001600160a01b03848116600090815260016020908152604080832087845290915290206004015416331415610e595760405162461bcd60e51b81526020600482015260166024820152752cb7ba9030b932903434b3b432b9ba103134b23232b960511b60448201526064016105d6565b6001600160a01b03841660009081526003602090815260408083208684528252808320338452909152902054610ec75760405162461bcd60e51b81526020600482015260136024820152726e6f7468696e6720746f20776974686472617760681b60448201526064016105d6565b6001600160a01b03841660008181526003602090815260408083208784528252808320338085529083528184209390935580519384529083018690528201527fde8cb9aa2c755cf75d5fbc4fec824b10e311652306f1fca5c8e57a04758b0aa79060600160405180910390a150505050565b6001600160a01b0382166000908152600260208181526040808420858552909152909120548391839114610f7f5760405162461bcd60e51b81526004016105d690612a2d565b6001600160a01b03841660009081526001602081815260408084208785529091529091200154849084904211610fe95760405162461bcd60e51b815260206004820152600f60248201526e105d58dd1a5bdb881b9bdd08195b99608a1b60448201526064016105d6565b6001600160a01b0386811660009081526001602090815260408083208984529091529020600481015460039091015491169061102990889088908461225e565b6001600160a01b0380881660008181526003602090815260408083208b84528252808320948616835293815283822082905591815260058252828120898252909152205460078054909190811061108257611082612b15565b6000918252602080832060029290920290910180546001600160a01b031916815560019081018390556001600160a01b038a811680855291835260408085208b8652845293849020600381015460059091015485519384529383018b905285821683860152606083015291909116608082015290517fb31cb4f6609b11a57d1b6b14cc3f81f4b3e609f709a5b1e46892a45f9cc29ed89181900360a00190a150505050505050565b6040516331a9108f60e11b815260048101839052849083906001600160a01b03831690636352211e9060240160206040518083038186803b15801561116e57600080fd5b505afa158015611182573d6000803e3d6000fd5b505050506040513d601f19601f820116820180604052508101906111a691906126f6565b6001600160a01b0316336001600160a01b0316146111d65760405162461bcd60e51b81526004016105d690612ac0565b6001600160a01b038616600090815260026020908152604080832087845290915290205486908590156112415760405162461bcd60e51b81526020600482015260136024820152724e667420616c726561647920696e2073616c6560681b60448201526064016105d6565b60405163e985e9c560e01b8152336004820152306024820152889087906001600160a01b0383169063e985e9c59060440160206040518083038186803b15801561128a57600080fd5b505afa15801561129e573d6000803e3d6000fd5b505050506040513d601f19601f820116820180604052508101906112c29190612935565b61130e5760405162461bcd60e51b815260206004820152601c60248201527f4e6674206e6f7420617070726f76656420746f20636f6e74726163740000000060448201526064016105d6565b866000811161132f5760405162461bcd60e51b81526004016105d6906129d3565b6040518060800160405280336001600160a01b0316815260200160006001600160a01b031681526020018b6001600160a01b03168152602001898152506000808d6001600160a01b03166001600160a01b0316815260200190815260200160002060008b815260200190815260200160002060008201518160000160006101000a8154816001600160a01b0302191690836001600160a01b0316021790555060208201518160010160006101000a8154816001600160a01b0302191690836001600160a01b0316021790555060408201518160020160006101000a8154816001600160a01b0302191690836001600160a01b03160217905550606082015181600301559050506001600260008d6001600160a01b03166001600160a01b0316815260200190815260200160002060008b815260200190815260200160002081905550600680549050600460008d6001600160a01b03166001600160a01b0316815260200190815260200160002060008b815260200190815260200160002081905550600660405180604001604052808d6001600160a01b031681526020018b815250908060018154018082558091505060019003906000526020600020906002020160009091909190915060008201518160000160006101000a8154816001600160a01b0302191690836001600160a01b031602179055506020820151816001015550508a6001600160a01b03166342842e0e33308c6040518463ffffffff1660e01b815260040161156393929190612957565b600060405180830381600087803b15801561157d57600080fd5b505af1158015611591573d6000803e3d6000fd5b505050507f078eead3cd01ed921c7653d000a6b73aea643a7b9c066fb7d93eb2eae8acc2d98b338c8c8c42604051611602969594939291906001600160a01b03968716815294861660208601529290941660408401526060830152608082019290925260a081019190915260c00190565b60405180910390a15050505050505050505050565b6116726040518060e001604052806000815260200160008152602001600081526020016000815260200160006001600160a01b0316815260200160006001600160a01b0316815260200160006001600160a01b031681525090565b506001600160a01b03918216600090815260016020818152604080842094845293815291839020835160e081018552815481529181015492820192909252600282015492810192909252600381015460608301526004810154831660808301526005810154831660a08301526006015490911660c082015290565b6040516323b872dd60e01b815260009084906001600160a01b038216906323b872dd90610532908790732258c5b9c82ff0fa923756ed3fd2acb5616df57c908890600401612957565b6001600160a01b038216600090815260026020818152604080842085855290915290912054839183911461177c5760405162461bcd60e51b81526004016105d690612a2d565b6001600160a01b038481166000908152600160209081526040808320878452909152902060050154859185911633146117e75760405162461bcd60e51b815260206004820152600d60248201526c3737ba1037333a1037bbb732b960991b60448201526064016105d6565b6001600160a01b0386166000908152600160208181526040808420898552909152909120015486908690421061182f5760405162461bcd60e51b81526004016105d690612a9b565b6001600160a01b0380891660009081526001602090815260408083208b84529091529020600401548991899116156118945760405162461bcd60e51b8152602060048201526008602482015267626964206d616b6560c01b60448201526064016105d6565b6001600160a01b038a1660008181526002602090815260408083208d84529091528082209190915551632142170760e11b81526342842e0e906118df90309033908e90600401612957565b600060405180830381600087803b1580156118f957600080fd5b505af115801561190d573d6000803e3d6000fd5b5050506001600160a01b038b1660009081526005602090815260408083208d845290915290205460078054909250811061194957611949612b15565b6000918252602080832060029290920290910180546001600160a01b031916815560010191909155604080516001600160a01b038d1681529182018b90523382820152517fb9d411977d4ee731f87bb8f16eb6f8c1fb579cff684642052bf6084e6e33238d9181900360600190a150505050505050505050565b606060068054806020026020016040519081016040528092919081815260200160009082821015610945576000848152602090819020604080518082019091526002850290910180546001600160a01b031682526001908101548284015290835290920191016108fd565b6001600160a01b038316600090815260026020908152604080832085845290915290205483908390600114611a755760405162461bcd60e51b81526004016105d6906129fe565b8260008111611a965760405162461bcd60e51b81526004016105d6906129d3565b6001600160a01b038616600090815260208181526040808320888452909152902060030154869086908690811015611b075760405162461bcd60e51b81526020600482015260146024820152730c4eaf240a0e4d2c6ca40dcdee840cadcdeeaced60631b60448201526064016105d6565b604051632142170760e11b81526001600160a01b038a16906342842e0e90611b3790309033908d90600401612957565b600060405180830381600087803b158015611b5157600080fd5b505af1158015611b65573d6000803e3d6000fd5b5050506001600160a01b038a1660008181526002602090815260408083208d84528252808320839055928252600481528282208c835290522054600680549092508110611bb457611bb4612b15565b6000918252602080832060029283020180546001600160a01b0319908116825560019182018590556001600160a01b038e8116865285845260408087208f88529094529290942090810180549094163317909355825491830154600390930154611c25939282169290911690612317565b604080516001600160a01b038b168152336020820152908101899052606081018890527f9fa3b1bb9266e05722b54a7a564d02a274bc80d39f4af21e6be405480996ceba9060800160405180910390a1505050505050505050565b6040516331a9108f60e11b815260048101859052869085906001600160a01b03831690636352211e9060240160206040518083038186803b158015611cc457600080fd5b505afa158015611cd8573d6000803e3d6000fd5b505050506040513d601f19601f82011682018060405250810190611cfc91906126f6565b6001600160a01b0316336001600160a01b031614611d2c5760405162461bcd60e51b81526004016105d690612ac0565b6001600160a01b03881660009081526002602090815260408083208984529091529020548890879015611d975760405162461bcd60e51b81526020600482015260136024820152724e667420616c726561647920696e2073616c6560681b60448201526064016105d6565b60405163e985e9c560e01b81523360048201523060248201528a9089906001600160a01b0383169063e985e9c59060440160206040518083038186803b158015611de057600080fd5b505afa158015611df4573d6000803e3d6000fd5b505050506040513d601f19601f82011682018060405250810190611e189190612935565b611e645760405162461bcd60e51b815260206004820152601c60248201527f4e6674206e6f7420617070726f76656420746f20636f6e74726163740000000060448201526064016105d6565b8660008111611e855760405162461bcd60e51b81526004016105d6906129d3565b611e938d8d8d8d8d8d612340565b600780549050600560008f6001600160a01b03166001600160a01b0316815260200190815260200160002060008d815260200190815260200160002081905550600760405180604001604052808f6001600160a01b031681526020018d815250908060018154018082558091505060019003906000526020600020906002020160009091909190915060008201518160000160006101000a8154816001600160a01b0302191690836001600160a01b031602179055506020820151816001015550507fecbc6a097da08dbf6f781ce204aad454ce3dc8f112c51c7a56f1671de89cee8c8d338e8e8e8e8e604051611fcc97969594939291906001600160a01b03978816815295871660208701529390951660408501526060840191909152608083015260a082019290925260c081019190915260e00190565b60405180910390a150505050505050505050505050565b6001600160a01b03821660009081526002602090815260408083208484529091529020548290829060011461202a5760405162461bcd60e51b81526004016105d6906129fe565b6001600160a01b03848116600090815260208181526040808320878452909152902054859185911633146120705760405162461bcd60e51b81526004016105d690612ac0565b604051632142170760e11b81526001600160a01b038716906342842e0e906120a090309033908a90600401612957565b600060405180830381600087803b1580156120ba57600080fd5b505af11580156120ce573d6000803e3d6000fd5b5050506001600160a01b03871660008181526002602090815260408083208a84528252808320839055928252600481528282208983529052205460068054909250811061211d5761211d612b15565b60009182526020822060029091020180546001600160a01b0319168155600101556040517fd7348ff00cf381a884144b50b3441398a48a7974ec349287df80e18cec9f5a319061217290889033908990612957565b60405180910390a1505050505050565b6040516323b872dd60e01b81526001600160a01b038216906323b872dd906121b290339030908790600401612957565b602060405180830381600087803b1580156121cc57600080fd5b505af11580156121e0573d6000803e3d6000fd5b505050506040513d601f19601f820116820180604052508101906122049190612935565b6122475760405162461bcd60e51b81526020600482015260146024820152730c2d8d8deeec2dcc6ca40dcdee840cadcdeeaced60631b60448201526064016105d6565b5050565b60006122578284612aef565b9392505050565b604051632142170760e11b81526001600160a01b038516906342842e0e9061228e90309085908890600401612957565b600060405180830381600087803b1580156122a857600080fd5b505af11580156122bc573d6000803e3d6000fd5b505050506001600160a01b038481166000818152600260209081526040808320888452825280832083905592825260018152828220878352905220600581015460069091015461231192918216911684612317565b50505050565b6001600160a01b038216156123365761233183838361251c565b505050565b6123318382612663565b6040518060e0016040528084815260200183815260200182815260200182815260200160006001600160a01b03168152602001336001600160a01b03168152602001866001600160a01b031681525060016000886001600160a01b03166001600160a01b0316815260200190815260200160002060008681526020019081526020016000206000820151816000015560208201518160010155604082015181600201556060820151816003015560808201518160040160006101000a8154816001600160a01b0302191690836001600160a01b0316021790555060a08201518160050160006101000a8154816001600160a01b0302191690836001600160a01b0316021790555060c08201518160060160006101000a8154816001600160a01b0302191690836001600160a01b031602179055509050506002806000886001600160a01b03166001600160a01b03168152602001908152602001600020600086815260200190815260200160002081905550856001600160a01b03166342842e0e3330876040518463ffffffff1660e01b81526004016124e293929190612957565b600060405180830381600087803b1580156124fc57600080fd5b505af1158015612510573d6000803e3d6000fd5b50505050505050505050565b6040516323b872dd60e01b81526001600160a01b038316906323b872dd9061254c90339030908690600401612957565b602060405180830381600087803b15801561256657600080fd5b505af115801561257a573d6000803e3d6000fd5b505050506040513d601f19601f8201168201806040525081019061259e9190612935565b6125e15760405162461bcd60e51b81526020600482015260146024820152730c2d8d8deeec2dcc6ca40dcdee840cadcdeeaced60631b60448201526064016105d6565b60405163a9059cbb60e01b81526001600160a01b0384811660048301526024820183905283169063a9059cbb90604401602060405180830381600087803b15801561262b57600080fd5b505af115801561263f573d6000803e3d6000fd5b505050506040513d601f19601f820116820180604052508101906123119190612935565b6000826001600160a01b03168260405160006040518083038185875af1925050503d80600081146126b0576040519150601f19603f3d011682016040523d82523d6000602084013e6126b5565b606091505b50509050806123315760405162461bcd60e51b815260206004820152600d60248201526c1c99599d5b990819985a5b1959609a1b60448201526064016105d6565b60006020828403121561270857600080fd5b815161225781612b2b565b60008060006060848603121561272857600080fd5b833561273381612b2b565b9250602084013561274381612b2b565b929592945050506040919091013590565b60008060008060006080868803121561276c57600080fd5b853561277781612b2b565b9450602086013561278781612b2b565b935060408601359250606086013567ffffffffffffffff808211156127ab57600080fd5b818801915088601f8301126127bf57600080fd5b8135818111156127ce57600080fd5b8960208285010111156127e057600080fd5b9699959850939650602001949392505050565b6000806000806080858703121561280957600080fd5b843561281481612b2b565b9350602085013561282481612b2b565b93969395505050506040820135916060013590565b60008060008060008060c0878903121561285257600080fd5b863561285d81612b2b565b9550602087013561286d81612b2b565b95989597505050506040840135936060810135936080820135935060a0909101359150565b600080604083850312156128a557600080fd5b82356128b081612b2b565b946020939093013593505050565b6000806000606084860312156128d357600080fd5b83356128de81612b2b565b92506020840135915060408401356128f581612b2b565b809150509250925092565b60008060006060848603121561291557600080fd5b833561292081612b2b565b95602085013595506040909401359392505050565b60006020828403121561294757600080fd5b8151801515811461225757600080fd5b6001600160a01b039384168152919092166020820152604081019190915260600190565b602080825282518282018190526000919060409081850190868401855b828110156129c657815180516001600160a01b03168552860151868501529284019290850190600101612998565b5091979650505050505050565b602080825260119082015270050726963652063616e6e6f74206265203607c1b604082015260600190565b6020808252601590820152744e6674206e6f7420696e2066697865642073616c6560581b604082015260600190565b60208082526017908201527f4e6674206e6f7420696e2061756374696f6e2073616c65000000000000000000604082015260600190565b6020808252601d908201527f4269642047726561746572207468616e2050726576696f757320426964000000604082015260600190565b6020808252600b908201526a105d58dd1a5bdb88195b9960aa1b604082015260600190565b6020808252601590820152742cb7ba9030b932903737ba1037333a1037bbb732b960591b604082015260600190565b60008219821115612b1057634e487b7160e01b600052601160045260246000fd5b500190565b634e487b7160e01b600052603260045260246000fd5b6001600160a01b0381168114612b4057600080fd5b5056fea2646970667358221220123222f5edb3c41a714939d5cebcb43bb641a4ce084554c51deb482ff259152264736f6c63430008070033",
					"opcodes": "PUSH1 0x80 PUSH1 0x40 MSTORE CALLVALUE DUP1 ISZERO PUSH2 0x10 JUMPI PUSH1 0x0 DUP1 REVERT JUMPDEST POP PUSH2 0x2B79 DUP1 PUSH2 0x20 PUSH1 0x0 CODECOPY PUSH1 0x0 RETURN INVALID PUSH1 0x80 PUSH1 0x40 MSTORE PUSH1 0x4 CALLDATASIZE LT PUSH2 0x117 JUMPI PUSH1 0x0 CALLDATALOAD PUSH1 0xE0 SHR DUP1 PUSH4 0x69A6D12E GT PUSH2 0xA0 JUMPI DUP1 PUSH4 0x8C3417DA GT PUSH2 0x64 JUMPI DUP1 PUSH4 0x8C3417DA EQ PUSH2 0x3AD JUMPI DUP1 PUSH4 0x9F085A00 EQ PUSH2 0x481 JUMPI DUP1 PUSH4 0xBAF4371E EQ PUSH2 0x496 JUMPI DUP1 PUSH4 0xCF42B7E6 EQ PUSH2 0x4A9 JUMPI DUP1 PUSH4 0xD3A6A6C9 EQ PUSH2 0x4C9 JUMPI PUSH1 0x0 DUP1 REVERT JUMPDEST DUP1 PUSH4 0x69A6D12E EQ PUSH2 0x28D JUMPI DUP1 PUSH4 0x6F8C9B1B EQ PUSH2 0x2AD JUMPI DUP1 PUSH4 0x6FE02F24 EQ PUSH2 0x32F JUMPI DUP1 PUSH4 0x7AD47A21 EQ PUSH2 0x36D JUMPI DUP1 PUSH4 0x842BC46A EQ PUSH2 0x38D JUMPI PUSH1 0x0 DUP1 REVERT JUMPDEST DUP1 PUSH4 0x3A713DB8 GT PUSH2 0xE7 JUMPI DUP1 PUSH4 0x3A713DB8 EQ PUSH2 0x1D4 JUMPI DUP1 PUSH4 0x4676ADCA EQ PUSH2 0x1E7 JUMPI DUP1 PUSH4 0x4CB8EF5B EQ PUSH2 0x207 JUMPI DUP1 PUSH4 0x5138B08C EQ PUSH2 0x227 JUMPI DUP1 PUSH4 0x6916462F EQ PUSH2 0x247 JUMPI PUSH1 0x0 DUP1 REVERT JUMPDEST DUP1 PUSH3 0xE2097C EQ PUSH2 0x123 JUMPI DUP1 PUSH4 0x150B7A02 EQ PUSH2 0x158 JUMPI DUP1 PUSH4 0x1BDAE6F1 EQ PUSH2 0x19D JUMPI DUP1 PUSH4 0x1E7A044F EQ PUSH2 0x1B2 JUMPI PUSH1 0x0 DUP1 REVERT JUMPDEST CALLDATASIZE PUSH2 0x11E JUMPI STOP JUMPDEST PUSH1 0x0 DUP1 REVERT JUMPDEST CALLVALUE DUP1 ISZERO PUSH2 0x12F JUMPI PUSH1 0x0 DUP1 REVERT JUMPDEST POP PUSH2 0x143 PUSH2 0x13E CALLDATASIZE PUSH1 0x4 PUSH2 0x2713 JUMP JUMPDEST PUSH2 0x4E9 JUMP JUMPDEST PUSH1 0x40 MLOAD SWAP1 ISZERO ISZERO DUP2 MSTORE PUSH1 0x20 ADD JUMPDEST PUSH1 0x40 MLOAD DUP1 SWAP2 SUB SWAP1 RETURN JUMPDEST CALLVALUE DUP1 ISZERO PUSH2 0x164 JUMPI PUSH1 0x0 DUP1 REVERT JUMPDEST POP PUSH2 0x184 PUSH2 0x173 CALLDATASIZE PUSH1 0x4 PUSH2 0x2754 JUMP JUMPDEST PUSH4 0xA85BD01 PUSH1 0xE1 SHL SWAP6 SWAP5 POP POP POP POP POP JUMP JUMPDEST PUSH1 0x40 MLOAD PUSH1 0x1 PUSH1 0x1 PUSH1 0xE0 SHL SUB NOT SWAP1 SWAP2 AND DUP2 MSTORE PUSH1 0x20 ADD PUSH2 0x14F JUMP JUMPDEST PUSH2 0x1B0 PUSH2 0x1AB CALLDATASIZE PUSH1 0x4 PUSH2 0x2900 JUMP JUMPDEST PUSH2 0x590 JUMP JUMPDEST STOP JUMPDEST CALLVALUE DUP1 ISZERO PUSH2 0x1BE JUMPI PUSH1 0x0 DUP1 REVERT JUMPDEST POP PUSH2 0x1C7 PUSH2 0x8D9 JUMP JUMPDEST PUSH1 0x40 MLOAD PUSH2 0x14F SWAP2 SWAP1 PUSH2 0x297B JUMP JUMPDEST PUSH2 0x1B0 PUSH2 0x1E2 CALLDATASIZE PUSH1 0x4 PUSH2 0x2900 JUMP JUMPDEST PUSH2 0x94E JUMP JUMPDEST CALLVALUE DUP1 ISZERO PUSH2 0x1F3 JUMPI PUSH1 0x0 DUP1 REVERT JUMPDEST POP PUSH2 0x1B0 PUSH2 0x202 CALLDATASIZE PUSH1 0x4 PUSH2 0x2900 JUMP JUMPDEST PUSH2 0xC62 JUMP JUMPDEST CALLVALUE DUP1 ISZERO PUSH2 0x213 JUMPI PUSH1 0x0 DUP1 REVERT JUMPDEST POP PUSH2 0x1B0 PUSH2 0x222 CALLDATASIZE PUSH1 0x4 PUSH2 0x2892 JUMP JUMPDEST PUSH2 0xD7E JUMP JUMPDEST CALLVALUE DUP1 ISZERO PUSH2 0x233 JUMPI PUSH1 0x0 DUP1 REVERT JUMPDEST POP PUSH2 0x1B0 PUSH2 0x242 CALLDATASIZE PUSH1 0x4 PUSH2 0x2892 JUMP JUMPDEST PUSH2 0xF39 JUMP JUMPDEST CALLVALUE DUP1 ISZERO PUSH2 0x253 JUMPI PUSH1 0x0 DUP1 REVERT JUMPDEST POP PUSH2 0x27F PUSH2 0x262 CALLDATASIZE PUSH1 0x4 PUSH2 0x2892 JUMP JUMPDEST PUSH1 0x2 PUSH1 0x20 SWAP1 DUP2 MSTORE PUSH1 0x0 SWAP3 DUP4 MSTORE PUSH1 0x40 DUP1 DUP5 KECCAK256 SWAP1 SWAP2 MSTORE SWAP1 DUP3 MSTORE SWAP1 KECCAK256 SLOAD DUP2 JUMP JUMPDEST PUSH1 0x40 MLOAD SWAP1 DUP2 MSTORE PUSH1 0x20 ADD PUSH2 0x14F JUMP JUMPDEST CALLVALUE DUP1 ISZERO PUSH2 0x299 JUMPI PUSH1 0x0 DUP1 REVERT JUMPDEST POP PUSH2 0x1B0 PUSH2 0x2A8 CALLDATASIZE PUSH1 0x4 PUSH2 0x27F3 JUMP JUMPDEST PUSH2 0x112A JUMP JUMPDEST CALLVALUE DUP1 ISZERO PUSH2 0x2B9 JUMPI PUSH1 0x0 DUP1 REVERT JUMPDEST POP PUSH2 0x2CD PUSH2 0x2C8 CALLDATASIZE PUSH1 0x4 PUSH2 0x2892 JUMP JUMPDEST PUSH2 0x1617 JUMP JUMPDEST PUSH1 0x40 MLOAD PUSH2 0x14F SWAP2 SWAP1 DUP2 MLOAD DUP2 MSTORE PUSH1 0x20 DUP1 DUP4 ADD MLOAD SWAP1 DUP3 ADD MSTORE PUSH1 0x40 DUP1 DUP4 ADD MLOAD SWAP1 DUP3 ADD MSTORE PUSH1 0x60 DUP1 DUP4 ADD MLOAD SWAP1 DUP3 ADD MSTORE PUSH1 0x80 DUP1 DUP4 ADD MLOAD PUSH1 0x1 PUSH1 0x1 PUSH1 0xA0 SHL SUB SWAP1 DUP2 AND SWAP2 DUP4 ADD SWAP2 SWAP1 SWAP2 MSTORE PUSH1 0xA0 DUP1 DUP5 ADD MLOAD DUP3 AND SWAP1 DUP4 ADD MSTORE PUSH1 0xC0 SWAP3 DUP4 ADD MLOAD AND SWAP2 DUP2 ADD SWAP2 SWAP1 SWAP2 MSTORE PUSH1 0xE0 ADD SWAP1 JUMP JUMPDEST CALLVALUE DUP1 ISZERO PUSH2 0x33B JUMPI PUSH1 0x0 DUP1 REVERT JUMPDEST POP PUSH2 0x27F PUSH2 0x34A CALLDATASIZE PUSH1 0x4 PUSH2 0x28BE JUMP JUMPDEST PUSH1 0x3 PUSH1 0x20 SWAP1 DUP2 MSTORE PUSH1 0x0 SWAP4 DUP5 MSTORE PUSH1 0x40 DUP1 DUP6 KECCAK256 DUP3 MSTORE SWAP3 DUP5 MSTORE DUP3 DUP5 KECCAK256 SWAP1 MSTORE DUP3 MSTORE SWAP1 KECCAK256 SLOAD DUP2 JUMP JUMPDEST CALLVALUE DUP1 ISZERO PUSH2 0x379 JUMPI PUSH1 0x0 DUP1 REVERT JUMPDEST POP PUSH2 0x143 PUSH2 0x388 CALLDATASIZE PUSH1 0x4 PUSH2 0x2713 JUMP JUMPDEST PUSH2 0x16ED JUMP JUMPDEST CALLVALUE DUP1 ISZERO PUSH2 0x399 JUMPI PUSH1 0x0 DUP1 REVERT JUMPDEST POP PUSH2 0x1B0 PUSH2 0x3A8 CALLDATASIZE PUSH1 0x4 PUSH2 0x2892 JUMP JUMPDEST PUSH2 0x1736 JUMP JUMPDEST CALLVALUE DUP1 ISZERO PUSH2 0x3B9 JUMPI PUSH1 0x0 DUP1 REVERT JUMPDEST POP PUSH2 0x441 PUSH2 0x3C8 CALLDATASIZE PUSH1 0x4 PUSH2 0x2892 JUMP JUMPDEST PUSH1 0x40 DUP1 MLOAD PUSH1 0x80 DUP1 DUP3 ADD DUP4 MSTORE PUSH1 0x0 DUP1 DUP4 MSTORE PUSH1 0x20 DUP1 DUP5 ADD DUP3 SWAP1 MSTORE DUP4 DUP6 ADD DUP3 SWAP1 MSTORE PUSH1 0x60 SWAP4 DUP5 ADD DUP3 SWAP1 MSTORE PUSH1 0x1 PUSH1 0x1 PUSH1 0xA0 SHL SUB SWAP7 DUP8 AND DUP3 MSTORE DUP2 DUP2 MSTORE DUP5 DUP3 KECCAK256 SWAP6 DUP3 MSTORE SWAP5 DUP6 MSTORE DUP4 SWAP1 KECCAK256 DUP4 MLOAD SWAP2 DUP3 ADD DUP5 MSTORE DUP1 SLOAD DUP7 AND DUP3 MSTORE PUSH1 0x1 DUP2 ADD SLOAD DUP7 AND SWAP5 DUP3 ADD SWAP5 SWAP1 SWAP5 MSTORE PUSH1 0x2 DUP5 ADD SLOAD SWAP1 SWAP5 AND SWAP2 DUP5 ADD SWAP2 SWAP1 SWAP2 MSTORE PUSH1 0x3 SWAP1 SWAP2 ADD SLOAD SWAP1 DUP3 ADD MSTORE SWAP1 JUMP JUMPDEST PUSH1 0x40 DUP1 MLOAD DUP3 MLOAD PUSH1 0x1 PUSH1 0x1 PUSH1 0xA0 SHL SUB SWAP1 DUP2 AND DUP3 MSTORE PUSH1 0x20 DUP1 DUP6 ADD MLOAD DUP3 AND SWAP1 DUP4 ADD MSTORE DUP4 DUP4 ADD MLOAD AND SWAP2 DUP2 ADD SWAP2 SWAP1 SWAP2 MSTORE PUSH1 0x60 SWAP2 DUP3 ADD MLOAD SWAP2 DUP2 ADD SWAP2 SWAP1 SWAP2 MSTORE PUSH1 0x80 ADD PUSH2 0x14F JUMP JUMPDEST CALLVALUE DUP1 ISZERO PUSH2 0x48D JUMPI PUSH1 0x0 DUP1 REVERT JUMPDEST POP PUSH2 0x1C7 PUSH2 0x19C3 JUMP JUMPDEST PUSH2 0x1B0 PUSH2 0x4A4 CALLDATASIZE PUSH1 0x4 PUSH2 0x2900 JUMP JUMPDEST PUSH2 0x1A2E JUMP JUMPDEST CALLVALUE DUP1 ISZERO PUSH2 0x4B5 JUMPI PUSH1 0x0 DUP1 REVERT JUMPDEST POP PUSH2 0x1B0 PUSH2 0x4C4 CALLDATASIZE PUSH1 0x4 PUSH2 0x2839 JUMP JUMPDEST PUSH2 0x1C80 JUMP JUMPDEST CALLVALUE DUP1 ISZERO PUSH2 0x4D5 JUMPI PUSH1 0x0 DUP1 REVERT JUMPDEST POP PUSH2 0x1B0 PUSH2 0x4E4 CALLDATASIZE PUSH1 0x4 PUSH2 0x2892 JUMP JUMPDEST PUSH2 0x1FE3 JUMP JUMPDEST PUSH1 0x40 MLOAD PUSH4 0x23B872DD PUSH1 0xE0 SHL DUP2 MSTORE PUSH1 0x0 SWAP1 DUP5 SWAP1 PUSH1 0x1 PUSH1 0x1 PUSH1 0xA0 SHL SUB DUP3 AND SWAP1 PUSH4 0x23B872DD SWAP1 PUSH2 0x532 SWAP1 PUSH20 0x2258C5B9C82FF0FA923756ED3FD2ACB5616DF57C SWAP1 DUP9 SWAP1 DUP9 SWAP1 PUSH1 0x4 ADD PUSH2 0x2957 JUMP JUMPDEST PUSH1 0x20 PUSH1 0x40 MLOAD DUP1 DUP4 SUB DUP2 PUSH1 0x0 DUP8 DUP1 EXTCODESIZE ISZERO DUP1 ISZERO PUSH2 0x54C JUMPI PUSH1 0x0 DUP1 REVERT JUMPDEST POP GAS CALL ISZERO DUP1 ISZERO PUSH2 0x560 JUMPI RETURNDATASIZE PUSH1 0x0 DUP1 RETURNDATACOPY RETURNDATASIZE PUSH1 0x0 REVERT JUMPDEST POP POP POP POP PUSH1 0x40 MLOAD RETURNDATASIZE PUSH1 0x1F NOT PUSH1 0x1F DUP3 ADD AND DUP3 ADD DUP1 PUSH1 0x40 MSTORE POP DUP2 ADD SWAP1 PUSH2 0x584 SWAP2 SWAP1 PUSH2 0x2935 JUMP JUMPDEST POP PUSH1 0x1 SWAP6 SWAP5 POP POP POP POP POP JUMP JUMPDEST PUSH1 0x1 PUSH1 0x1 PUSH1 0xA0 SHL SUB DUP4 AND PUSH1 0x0 SWAP1 DUP2 MSTORE PUSH1 0x2 PUSH1 0x20 DUP2 DUP2 MSTORE PUSH1 0x40 DUP1 DUP5 KECCAK256 DUP7 DUP6 MSTORE SWAP1 SWAP2 MSTORE SWAP1 SWAP2 KECCAK256 SLOAD DUP5 SWAP2 DUP5 SWAP2 EQ PUSH2 0x5DF JUMPI PUSH1 0x40 MLOAD PUSH3 0x461BCD PUSH1 0xE5 SHL DUP2 MSTORE PUSH1 0x4 ADD PUSH2 0x5D6 SWAP1 PUSH2 0x2A2D JUMP JUMPDEST PUSH1 0x40 MLOAD DUP1 SWAP2 SUB SWAP1 REVERT JUMPDEST PUSH1 0x1 PUSH1 0x1 PUSH1 0xA0 SHL SUB DUP6 AND PUSH1 0x0 SWAP1 DUP2 MSTORE PUSH1 0x1 PUSH1 0x20 DUP2 DUP2 MSTORE PUSH1 0x40 DUP1 DUP5 KECCAK256 DUP9 DUP6 MSTORE SWAP1 SWAP2 MSTORE SWAP1 SWAP2 KECCAK256 ADD SLOAD DUP6 SWAP1 DUP6 SWAP1 TIMESTAMP LT PUSH2 0x627 JUMPI PUSH1 0x40 MLOAD PUSH3 0x461BCD PUSH1 0xE5 SHL DUP2 MSTORE PUSH1 0x4 ADD PUSH2 0x5D6 SWAP1 PUSH2 0x2A9B JUMP JUMPDEST DUP5 PUSH1 0x0 DUP2 GT PUSH2 0x648 JUMPI PUSH1 0x40 MLOAD PUSH3 0x461BCD PUSH1 0xE5 SHL DUP2 MSTORE PUSH1 0x4 ADD PUSH2 0x5D6 SWAP1 PUSH2 0x29D3 JUMP JUMPDEST PUSH1 0x1 PUSH1 0x1 PUSH1 0xA0 SHL SUB DUP1 DUP10 AND PUSH1 0x0 SWAP1 DUP2 MSTORE PUSH1 0x1 PUSH1 0x20 SWAP1 DUP2 MSTORE PUSH1 0x40 DUP1 DUP4 KECCAK256 DUP12 DUP5 MSTORE SWAP1 SWAP2 MSTORE SWAP1 KECCAK256 PUSH1 0x6 ADD SLOAD DUP10 SWAP2 DUP10 SWAP2 CALLVALUE SWAP2 DUP11 SWAP2 AND PUSH2 0x6C7 JUMPI PUSH1 0x1 PUSH1 0x1 PUSH1 0xA0 SHL SUB DUP5 AND PUSH1 0x0 SWAP1 DUP2 MSTORE PUSH1 0x1 PUSH1 0x20 SWAP1 DUP2 MSTORE PUSH1 0x40 DUP1 DUP4 KECCAK256 DUP7 DUP5 MSTORE SWAP1 SWAP2 MSTORE SWAP1 KECCAK256 PUSH1 0x3 ADD SLOAD DUP3 GT PUSH2 0x6C2 JUMPI PUSH1 0x40 MLOAD PUSH3 0x461BCD PUSH1 0xE5 SHL DUP2 MSTORE PUSH1 0x4 ADD PUSH2 0x5D6 SWAP1 PUSH2 0x2A64 JUMP JUMPDEST PUSH2 0x70C JUMP JUMPDEST PUSH1 0x1 PUSH1 0x1 PUSH1 0xA0 SHL SUB DUP5 AND PUSH1 0x0 SWAP1 DUP2 MSTORE PUSH1 0x1 PUSH1 0x20 SWAP1 DUP2 MSTORE PUSH1 0x40 DUP1 DUP4 KECCAK256 DUP7 DUP5 MSTORE SWAP1 SWAP2 MSTORE SWAP1 KECCAK256 PUSH1 0x3 ADD SLOAD DUP2 GT PUSH2 0x70C JUMPI PUSH1 0x40 MLOAD PUSH3 0x461BCD PUSH1 0xE5 SHL DUP2 MSTORE PUSH1 0x4 ADD PUSH2 0x5D6 SWAP1 PUSH2 0x2A64 JUMP JUMPDEST PUSH1 0x1 PUSH1 0x1 PUSH1 0xA0 SHL SUB DUP13 DUP2 AND PUSH1 0x0 SWAP1 DUP2 MSTORE PUSH1 0x1 PUSH1 0x20 SWAP1 DUP2 MSTORE PUSH1 0x40 DUP1 DUP4 KECCAK256 DUP16 DUP5 MSTORE SWAP1 SWAP2 MSTORE SWAP1 KECCAK256 PUSH1 0x6 ADD SLOAD AND ISZERO PUSH2 0x76E JUMPI PUSH1 0x1 PUSH1 0x1 PUSH1 0xA0 SHL SUB DUP1 DUP14 AND PUSH1 0x0 SWAP1 DUP2 MSTORE PUSH1 0x1 PUSH1 0x20 SWAP1 DUP2 MSTORE PUSH1 0x40 DUP1 DUP4 KECCAK256 DUP16 DUP5 MSTORE SWAP1 SWAP2 MSTORE SWAP1 KECCAK256 PUSH1 0x6 ADD SLOAD PUSH2 0x76E SWAP2 DUP13 SWAP2 AND PUSH2 0x2182 JUMP JUMPDEST DUP10 PUSH1 0x1 PUSH1 0x0 DUP15 PUSH1 0x1 PUSH1 0x1 PUSH1 0xA0 SHL SUB AND PUSH1 0x1 PUSH1 0x1 PUSH1 0xA0 SHL SUB AND DUP2 MSTORE PUSH1 0x20 ADD SWAP1 DUP2 MSTORE PUSH1 0x20 ADD PUSH1 0x0 KECCAK256 PUSH1 0x0 DUP14 DUP2 MSTORE PUSH1 0x20 ADD SWAP1 DUP2 MSTORE PUSH1 0x20 ADD PUSH1 0x0 KECCAK256 PUSH1 0x3 ADD DUP2 SWAP1 SSTORE POP CALLER PUSH1 0x1 PUSH1 0x0 DUP15 PUSH1 0x1 PUSH1 0x1 PUSH1 0xA0 SHL SUB AND PUSH1 0x1 PUSH1 0x1 PUSH1 0xA0 SHL SUB AND DUP2 MSTORE PUSH1 0x20 ADD SWAP1 DUP2 MSTORE PUSH1 0x20 ADD PUSH1 0x0 KECCAK256 PUSH1 0x0 DUP14 DUP2 MSTORE PUSH1 0x20 ADD SWAP1 DUP2 MSTORE PUSH1 0x20 ADD PUSH1 0x0 KECCAK256 PUSH1 0x4 ADD PUSH1 0x0 PUSH2 0x100 EXP DUP2 SLOAD DUP2 PUSH1 0x1 PUSH1 0x1 PUSH1 0xA0 SHL SUB MUL NOT AND SWAP1 DUP4 PUSH1 0x1 PUSH1 0x1 PUSH1 0xA0 SHL SUB AND MUL OR SWAP1 SSTORE POP DUP10 PUSH1 0x3 PUSH1 0x0 DUP15 PUSH1 0x1 PUSH1 0x1 PUSH1 0xA0 SHL SUB AND PUSH1 0x1 PUSH1 0x1 PUSH1 0xA0 SHL SUB AND DUP2 MSTORE PUSH1 0x20 ADD SWAP1 DUP2 MSTORE PUSH1 0x20 ADD PUSH1 0x0 KECCAK256 PUSH1 0x0 DUP14 DUP2 MSTORE PUSH1 0x20 ADD SWAP1 DUP2 MSTORE PUSH1 0x20 ADD PUSH1 0x0 KECCAK256 PUSH1 0x0 CALLER PUSH1 0x1 PUSH1 0x1 PUSH1 0xA0 SHL SUB AND PUSH1 0x1 PUSH1 0x1 PUSH1 0xA0 SHL SUB AND DUP2 MSTORE PUSH1 0x20 ADD SWAP1 DUP2 MSTORE PUSH1 0x20 ADD PUSH1 0x0 KECCAK256 DUP2 SWAP1 SSTORE POP PUSH32 0xD56CB6210C78740462007B728932C802BC41B205ED5C8A98AB95421EAF054B22 DUP13 DUP13 DUP13 CALLER PUSH1 0x40 MLOAD PUSH2 0x8C3 SWAP5 SWAP4 SWAP3 SWAP2 SWAP1 PUSH1 0x1 PUSH1 0x1 PUSH1 0xA0 SHL SUB SWAP5 DUP6 AND DUP2 MSTORE PUSH1 0x20 DUP2 ADD SWAP4 SWAP1 SWAP4 MSTORE PUSH1 0x40 DUP4 ADD SWAP2 SWAP1 SWAP2 MSTORE SWAP1 SWAP2 AND PUSH1 0x60 DUP3 ADD MSTORE PUSH1 0x80 ADD SWAP1 JUMP JUMPDEST PUSH1 0x40 MLOAD DUP1 SWAP2 SUB SWAP1 LOG1 POP POP POP POP POP POP POP POP POP POP POP POP JUMP JUMPDEST PUSH1 0x60 PUSH1 0x7 DUP1 SLOAD DUP1 PUSH1 0x20 MUL PUSH1 0x20 ADD PUSH1 0x40 MLOAD SWAP1 DUP2 ADD PUSH1 0x40 MSTORE DUP1 SWAP3 SWAP2 SWAP1 DUP2 DUP2 MSTORE PUSH1 0x20 ADD PUSH1 0x0 SWAP1 JUMPDEST DUP3 DUP3 LT ISZERO PUSH2 0x945 JUMPI PUSH1 0x0 DUP5 DUP2 MSTORE PUSH1 0x20 SWAP1 DUP2 SWAP1 KECCAK256 PUSH1 0x40 DUP1 MLOAD DUP1 DUP3 ADD SWAP1 SWAP2 MSTORE PUSH1 0x2 DUP6 MUL SWAP1 SWAP2 ADD DUP1 SLOAD PUSH1 0x1 PUSH1 0x1 PUSH1 0xA0 SHL SUB AND DUP3 MSTORE PUSH1 0x1 SWAP1 DUP2 ADD SLOAD DUP3 DUP5 ADD MSTORE SWAP1 DUP4 MSTORE SWAP1 SWAP3 ADD SWAP2 ADD PUSH2 0x8FD JUMP JUMPDEST POP POP POP POP SWAP1 POP SWAP1 JUMP JUMPDEST PUSH1 0x1 PUSH1 0x1 PUSH1 0xA0 SHL SUB DUP4 AND PUSH1 0x0 SWAP1 DUP2 MSTORE PUSH1 0x2 PUSH1 0x20 DUP2 DUP2 MSTORE PUSH1 0x40 DUP1 DUP5 KECCAK256 DUP7 DUP6 MSTORE SWAP1 SWAP2 MSTORE SWAP1 SWAP2 KECCAK256 SLOAD DUP5 SWAP2 DUP5 SWAP2 EQ PUSH2 0x994 JUMPI PUSH1 0x40 MLOAD PUSH3 0x461BCD PUSH1 0xE5 SHL DUP2 MSTORE PUSH1 0x4 ADD PUSH2 0x5D6 SWAP1 PUSH2 0x2A2D JUMP JUMPDEST PUSH1 0x1 PUSH1 0x1 PUSH1 0xA0 SHL SUB DUP6 AND PUSH1 0x0 SWAP1 DUP2 MSTORE PUSH1 0x1 PUSH1 0x20 DUP2 DUP2 MSTORE PUSH1 0x40 DUP1 DUP5 KECCAK256 DUP9 DUP6 MSTORE SWAP1 SWAP2 MSTORE SWAP1 SWAP2 KECCAK256 ADD SLOAD DUP6 SWAP1 DUP6 SWAP1 TIMESTAMP LT PUSH2 0x9DC JUMPI PUSH1 0x40 MLOAD PUSH3 0x461BCD PUSH1 0xE5 SHL DUP2 MSTORE PUSH1 0x4 ADD PUSH2 0x5D6 SWAP1 PUSH2 0x2A9B JUMP JUMPDEST CALLVALUE PUSH1 0x0 DUP2 GT PUSH2 0x9FD JUMPI PUSH1 0x40 MLOAD PUSH3 0x461BCD PUSH1 0xE5 SHL DUP2 MSTORE PUSH1 0x4 ADD PUSH2 0x5D6 SWAP1 PUSH2 0x29D3 JUMP JUMPDEST PUSH1 0x1 PUSH1 0x1 PUSH1 0xA0 SHL SUB DUP1 DUP10 AND PUSH1 0x0 SWAP1 DUP2 MSTORE PUSH1 0x1 PUSH1 0x20 SWAP1 DUP2 MSTORE PUSH1 0x40 DUP1 DUP4 KECCAK256 DUP12 DUP5 MSTORE SWAP1 SWAP2 MSTORE DUP2 KECCAK256 PUSH1 0x6 ADD SLOAD DUP11 SWAP3 DUP11 SWAP3 CALLVALUE SWAP3 DUP12 SWAP3 AND PUSH2 0xA6F JUMPI PUSH1 0x1 PUSH1 0x1 PUSH1 0xA0 SHL SUB DUP6 AND PUSH1 0x0 SWAP1 DUP2 MSTORE PUSH1 0x3 PUSH1 0x20 SWAP1 DUP2 MSTORE PUSH1 0x40 DUP1 DUP4 KECCAK256 DUP8 DUP5 MSTORE DUP3 MSTORE DUP1 DUP4 KECCAK256 CALLER DUP5 MSTORE SWAP1 SWAP2 MSTORE SWAP1 KECCAK256 SLOAD PUSH2 0xA68 SWAP1 DUP5 PUSH2 0x224B JUMP JUMPDEST SWAP1 POP PUSH2 0xAA8 JUMP JUMPDEST PUSH1 0x1 PUSH1 0x1 PUSH1 0xA0 SHL SUB DUP6 AND PUSH1 0x0 SWAP1 DUP2 MSTORE PUSH1 0x3 PUSH1 0x20 SWAP1 DUP2 MSTORE PUSH1 0x40 DUP1 DUP4 KECCAK256 DUP8 DUP5 MSTORE DUP3 MSTORE DUP1 DUP4 KECCAK256 CALLER DUP5 MSTORE SWAP1 SWAP2 MSTORE SWAP1 KECCAK256 SLOAD PUSH2 0xAA5 SWAP1 DUP4 PUSH2 0x224B JUMP JUMPDEST SWAP1 POP JUMPDEST PUSH1 0x1 PUSH1 0x1 PUSH1 0xA0 SHL SUB DUP6 AND PUSH1 0x0 SWAP1 DUP2 MSTORE PUSH1 0x1 PUSH1 0x20 SWAP1 DUP2 MSTORE PUSH1 0x40 DUP1 DUP4 KECCAK256 DUP8 DUP5 MSTORE SWAP1 SWAP2 MSTORE SWAP1 KECCAK256 PUSH1 0x3 ADD SLOAD DUP2 GT PUSH2 0xAED JUMPI PUSH1 0x40 MLOAD PUSH3 0x461BCD PUSH1 0xE5 SHL DUP2 MSTORE PUSH1 0x4 ADD PUSH2 0x5D6 SWAP1 PUSH2 0x2A64 JUMP JUMPDEST PUSH1 0x1 PUSH1 0x1 PUSH1 0xA0 SHL SUB DUP14 AND PUSH1 0x0 SWAP1 DUP2 MSTORE PUSH1 0x3 PUSH1 0x20 SWAP1 DUP2 MSTORE PUSH1 0x40 DUP1 DUP4 KECCAK256 DUP16 DUP5 MSTORE DUP3 MSTORE DUP1 DUP4 KECCAK256 CALLER DUP5 MSTORE SWAP1 SWAP2 MSTORE DUP2 KECCAK256 SLOAD DUP15 SWAP2 DUP15 SWAP2 PUSH2 0xB27 SWAP1 DUP16 PUSH2 0x224B JUMP JUMPDEST PUSH1 0x1 PUSH1 0x1 PUSH1 0xA0 SHL SUB DUP5 DUP2 AND PUSH1 0x0 SWAP1 DUP2 MSTORE PUSH1 0x1 PUSH1 0x20 SWAP1 DUP2 MSTORE PUSH1 0x40 DUP1 DUP4 KECCAK256 DUP8 DUP5 MSTORE SWAP1 SWAP2 MSTORE SWAP1 KECCAK256 PUSH1 0x6 ADD SLOAD SWAP2 SWAP3 POP AND ISZERO PUSH2 0xBAE JUMPI PUSH2 0xBAE DUP15 PUSH1 0x1 PUSH1 0x0 DUP7 PUSH1 0x1 PUSH1 0x1 PUSH1 0xA0 SHL SUB AND PUSH1 0x1 PUSH1 0x1 PUSH1 0xA0 SHL SUB AND DUP2 MSTORE PUSH1 0x20 ADD SWAP1 DUP2 MSTORE PUSH1 0x20 ADD PUSH1 0x0 KECCAK256 PUSH1 0x0 DUP6 DUP2 MSTORE PUSH1 0x20 ADD SWAP1 DUP2 MSTORE PUSH1 0x20 ADD PUSH1 0x0 KECCAK256 PUSH1 0x6 ADD PUSH1 0x0 SWAP1 SLOAD SWAP1 PUSH2 0x100 EXP SWAP1 DIV PUSH1 0x1 PUSH1 0x1 PUSH1 0xA0 SHL SUB AND PUSH2 0x2182 JUMP JUMPDEST PUSH1 0x1 PUSH1 0x1 PUSH1 0xA0 SHL SUB DUP4 AND PUSH1 0x0 DUP2 DUP2 MSTORE PUSH1 0x1 PUSH1 0x20 SWAP1 DUP2 MSTORE PUSH1 0x40 DUP1 DUP4 KECCAK256 DUP7 DUP5 MSTORE DUP3 MSTORE DUP1 DUP4 KECCAK256 PUSH1 0x3 DUP1 DUP3 ADD DUP8 SWAP1 SSTORE PUSH1 0x4 SWAP1 SWAP2 ADD DUP1 SLOAD PUSH1 0x1 PUSH1 0x1 PUSH1 0xA0 SHL SUB NOT AND CALLER SWAP1 DUP2 OR SWAP1 SWAP2 SSTORE DUP6 DUP6 MSTORE SWAP1 DUP4 MSTORE DUP2 DUP5 KECCAK256 DUP8 DUP6 MSTORE DUP4 MSTORE DUP2 DUP5 KECCAK256 DUP2 DUP6 MSTORE DUP4 MSTORE SWAP3 DUP2 SWAP1 KECCAK256 DUP6 SWAP1 SSTORE DUP1 MLOAD SWAP4 DUP5 MSTORE SWAP1 DUP4 ADD DUP6 SWAP1 MSTORE DUP3 ADD DUP4 SWAP1 MSTORE PUSH1 0x60 DUP3 ADD MSTORE PUSH32 0x907CDADC7C1A8ABCDD80CDD85EB18377631E4F413FB6397A8252FF7B358AC6CB SWAP1 PUSH1 0x80 ADD PUSH1 0x40 MLOAD DUP1 SWAP2 SUB SWAP1 LOG1 POP POP POP POP POP POP POP POP POP POP POP POP POP POP POP POP JUMP JUMPDEST PUSH1 0x1 PUSH1 0x1 PUSH1 0xA0 SHL SUB DUP4 AND PUSH1 0x0 SWAP1 DUP2 MSTORE PUSH1 0x2 PUSH1 0x20 SWAP1 DUP2 MSTORE PUSH1 0x40 DUP1 DUP4 KECCAK256 DUP6 DUP5 MSTORE SWAP1 SWAP2 MSTORE SWAP1 KECCAK256 SLOAD DUP4 SWAP1 DUP4 SWAP1 PUSH1 0x1 EQ PUSH2 0xCA9 JUMPI PUSH1 0x40 MLOAD PUSH3 0x461BCD PUSH1 0xE5 SHL DUP2 MSTORE PUSH1 0x4 ADD PUSH2 0x5D6 SWAP1 PUSH2 0x29FE JUMP JUMPDEST PUSH1 0x1 PUSH1 0x1 PUSH1 0xA0 SHL SUB DUP6 DUP2 AND PUSH1 0x0 SWAP1 DUP2 MSTORE PUSH1 0x20 DUP2 DUP2 MSTORE PUSH1 0x40 DUP1 DUP4 KECCAK256 DUP9 DUP5 MSTORE SWAP1 SWAP2 MSTORE SWAP1 KECCAK256 SLOAD DUP7 SWAP2 DUP7 SWAP2 AND CALLER EQ PUSH2 0xCEF JUMPI PUSH1 0x40 MLOAD PUSH3 0x461BCD PUSH1 0xE5 SHL DUP2 MSTORE PUSH1 0x4 ADD PUSH2 0x5D6 SWAP1 PUSH2 0x2AC0 JUMP JUMPDEST DUP5 PUSH1 0x0 DUP2 GT PUSH2 0xD10 JUMPI PUSH1 0x40 MLOAD PUSH3 0x461BCD PUSH1 0xE5 SHL DUP2 MSTORE PUSH1 0x4 ADD PUSH2 0x5D6 SWAP1 PUSH2 0x29D3 JUMP JUMPDEST PUSH1 0x1 PUSH1 0x1 PUSH1 0xA0 SHL SUB DUP9 AND PUSH1 0x0 DUP2 DUP2 MSTORE PUSH1 0x20 DUP2 DUP2 MSTORE PUSH1 0x40 DUP1 DUP4 KECCAK256 DUP12 DUP5 MSTORE DUP3 MSTORE SWAP2 DUP3 SWAP1 KECCAK256 PUSH1 0x3 ADD DUP10 SWAP1 SSTORE DUP2 MLOAD SWAP3 DUP4 MSTORE DUP3 ADD DUP10 SWAP1 MSTORE DUP2 ADD DUP8 SWAP1 MSTORE PUSH32 0x575A0876095CCF47276A37DCE683308A625403D132D219F95205CE205B2E12BC SWAP1 PUSH1 0x60 ADD PUSH1 0x40 MLOAD DUP1 SWAP2 SUB SWAP1 LOG1 POP POP POP POP POP POP POP POP JUMP JUMPDEST PUSH1 0x1 PUSH1 0x1 PUSH1 0xA0 SHL SUB DUP3 AND PUSH1 0x0 SWAP1 DUP2 MSTORE PUSH1 0x1 PUSH1 0x20 DUP2 DUP2 MSTORE PUSH1 0x40 DUP1 DUP5 KECCAK256 DUP6 DUP6 MSTORE SWAP1 SWAP2 MSTORE SWAP1 SWAP2 KECCAK256 ADD SLOAD DUP3 SWAP1 DUP3 SWAP1 TIMESTAMP GT PUSH2 0xDE8 JUMPI PUSH1 0x40 MLOAD PUSH3 0x461BCD PUSH1 0xE5 SHL DUP2 MSTORE PUSH1 0x20 PUSH1 0x4 DUP3 ADD MSTORE PUSH1 0xF PUSH1 0x24 DUP3 ADD MSTORE PUSH15 0x105D58DD1A5BDB881B9BDD08195B99 PUSH1 0x8A SHL PUSH1 0x44 DUP3 ADD MSTORE PUSH1 0x64 ADD PUSH2 0x5D6 JUMP JUMPDEST PUSH1 0x1 PUSH1 0x1 PUSH1 0xA0 SHL SUB DUP5 DUP2 AND PUSH1 0x0 SWAP1 DUP2 MSTORE PUSH1 0x1 PUSH1 0x20 SWAP1 DUP2 MSTORE PUSH1 0x40 DUP1 DUP4 KECCAK256 DUP8 DUP5 MSTORE SWAP1 SWAP2 MSTORE SWAP1 KECCAK256 PUSH1 0x4 ADD SLOAD AND CALLER EQ ISZERO PUSH2 0xE59 JUMPI PUSH1 0x40 MLOAD PUSH3 0x461BCD PUSH1 0xE5 SHL DUP2 MSTORE PUSH1 0x20 PUSH1 0x4 DUP3 ADD MSTORE PUSH1 0x16 PUSH1 0x24 DUP3 ADD MSTORE PUSH22 0x2CB7BA9030B932903434B3B432B9BA103134B23232B9 PUSH1 0x51 SHL PUSH1 0x44 DUP3 ADD MSTORE PUSH1 0x64 ADD PUSH2 0x5D6 JUMP JUMPDEST PUSH1 0x1 PUSH1 0x1 PUSH1 0xA0 SHL SUB DUP5 AND PUSH1 0x0 SWAP1 DUP2 MSTORE PUSH1 0x3 PUSH1 0x20 SWAP1 DUP2 MSTORE PUSH1 0x40 DUP1 DUP4 KECCAK256 DUP7 DUP5 MSTORE DUP3 MSTORE DUP1 DUP4 KECCAK256 CALLER DUP5 MSTORE SWAP1 SWAP2 MSTORE SWAP1 KECCAK256 SLOAD PUSH2 0xEC7 JUMPI PUSH1 0x40 MLOAD PUSH3 0x461BCD PUSH1 0xE5 SHL DUP2 MSTORE PUSH1 0x20 PUSH1 0x4 DUP3 ADD MSTORE PUSH1 0x13 PUSH1 0x24 DUP3 ADD MSTORE PUSH19 0x6E6F7468696E6720746F207769746864726177 PUSH1 0x68 SHL PUSH1 0x44 DUP3 ADD MSTORE PUSH1 0x64 ADD PUSH2 0x5D6 JUMP JUMPDEST PUSH1 0x1 PUSH1 0x1 PUSH1 0xA0 SHL SUB DUP5 AND PUSH1 0x0 DUP2 DUP2 MSTORE PUSH1 0x3 PUSH1 0x20 SWAP1 DUP2 MSTORE PUSH1 0x40 DUP1 DUP4 KECCAK256 DUP8 DUP5 MSTORE DUP3 MSTORE DUP1 DUP4 KECCAK256 CALLER DUP1 DUP6 MSTORE SWAP1 DUP4 MSTORE DUP2 DUP5 KECCAK256 SWAP4 SWAP1 SWAP4 SSTORE DUP1 MLOAD SWAP4 DUP5 MSTORE SWAP1 DUP4 ADD DUP7 SWAP1 MSTORE DUP3 ADD MSTORE PUSH32 0xDE8CB9AA2C755CF75D5FBC4FEC824B10E311652306F1FCA5C8E57A04758B0AA7 SWAP1 PUSH1 0x60 ADD PUSH1 0x40 MLOAD DUP1 SWAP2 SUB SWAP1 LOG1 POP POP POP POP JUMP JUMPDEST PUSH1 0x1 PUSH1 0x1 PUSH1 0xA0 SHL SUB DUP3 AND PUSH1 0x0 SWAP1 DUP2 MSTORE PUSH1 0x2 PUSH1 0x20 DUP2 DUP2 MSTORE PUSH1 0x40 DUP1 DUP5 KECCAK256 DUP6 DUP6 MSTORE SWAP1 SWAP2 MSTORE SWAP1 SWAP2 KECCAK256 SLOAD DUP4 SWAP2 DUP4 SWAP2 EQ PUSH2 0xF7F JUMPI PUSH1 0x40 MLOAD PUSH3 0x461BCD PUSH1 0xE5 SHL DUP2 MSTORE PUSH1 0x4 ADD PUSH2 0x5D6 SWAP1 PUSH2 0x2A2D JUMP JUMPDEST PUSH1 0x1 PUSH1 0x1 PUSH1 0xA0 SHL SUB DUP5 AND PUSH1 0x0 SWAP1 DUP2 MSTORE PUSH1 0x1 PUSH1 0x20 DUP2 DUP2 MSTORE PUSH1 0x40 DUP1 DUP5 KECCAK256 DUP8 DUP6 MSTORE SWAP1 SWAP2 MSTORE SWAP1 SWAP2 KECCAK256 ADD SLOAD DUP5 SWAP1 DUP5 SWAP1 TIMESTAMP GT PUSH2 0xFE9 JUMPI PUSH1 0x40 MLOAD PUSH3 0x461BCD PUSH1 0xE5 SHL DUP2 MSTORE PUSH1 0x20 PUSH1 0x4 DUP3 ADD MSTORE PUSH1 0xF PUSH1 0x24 DUP3 ADD MSTORE PUSH15 0x105D58DD1A5BDB881B9BDD08195B99 PUSH1 0x8A SHL PUSH1 0x44 DUP3 ADD MSTORE PUSH1 0x64 ADD PUSH2 0x5D6 JUMP JUMPDEST PUSH1 0x1 PUSH1 0x1 PUSH1 0xA0 SHL SUB DUP7 DUP2 AND PUSH1 0x0 SWAP1 DUP2 MSTORE PUSH1 0x1 PUSH1 0x20 SWAP1 DUP2 MSTORE PUSH1 0x40 DUP1 DUP4 KECCAK256 DUP10 DUP5 MSTORE SWAP1 SWAP2 MSTORE SWAP1 KECCAK256 PUSH1 0x4 DUP2 ADD SLOAD PUSH1 0x3 SWAP1 SWAP2 ADD SLOAD SWAP2 AND SWAP1 PUSH2 0x1029 SWAP1 DUP9 SWAP1 DUP9 SWAP1 DUP5 PUSH2 0x225E JUMP JUMPDEST PUSH1 0x1 PUSH1 0x1 PUSH1 0xA0 SHL SUB DUP1 DUP9 AND PUSH1 0x0 DUP2 DUP2 MSTORE PUSH1 0x3 PUSH1 0x20 SWAP1 DUP2 MSTORE PUSH1 0x40 DUP1 DUP4 KECCAK256 DUP12 DUP5 MSTORE DUP3 MSTORE DUP1 DUP4 KECCAK256 SWAP5 DUP7 AND DUP4 MSTORE SWAP4 DUP2 MSTORE DUP4 DUP3 KECCAK256 DUP3 SWAP1 SSTORE SWAP2 DUP2 MSTORE PUSH1 0x5 DUP3 MSTORE DUP3 DUP2 KECCAK256 DUP10 DUP3 MSTORE SWAP1 SWAP2 MSTORE KECCAK256 SLOAD PUSH1 0x7 DUP1 SLOAD SWAP1 SWAP2 SWAP1 DUP2 LT PUSH2 0x1082 JUMPI PUSH2 0x1082 PUSH2 0x2B15 JUMP JUMPDEST PUSH1 0x0 SWAP2 DUP3 MSTORE PUSH1 0x20 DUP1 DUP4 KECCAK256 PUSH1 0x2 SWAP3 SWAP1 SWAP3 MUL SWAP1 SWAP2 ADD DUP1 SLOAD PUSH1 0x1 PUSH1 0x1 PUSH1 0xA0 SHL SUB NOT AND DUP2 SSTORE PUSH1 0x1 SWAP1 DUP2 ADD DUP4 SWAP1 SSTORE PUSH1 0x1 PUSH1 0x1 PUSH1 0xA0 SHL SUB DUP11 DUP2 AND DUP1 DUP6 MSTORE SWAP2 DUP4 MSTORE PUSH1 0x40 DUP1 DUP6 KECCAK256 DUP12 DUP7 MSTORE DUP5 MSTORE SWAP4 DUP5 SWAP1 KECCAK256 PUSH1 0x3 DUP2 ADD SLOAD PUSH1 0x5 SWAP1 SWAP2 ADD SLOAD DUP6 MLOAD SWAP4 DUP5 MSTORE SWAP4 DUP4 ADD DUP12 SWAP1 MSTORE DUP6 DUP3 AND DUP4 DUP7 ADD MSTORE PUSH1 0x60 DUP4 ADD MSTORE SWAP2 SWAP1 SWAP2 AND PUSH1 0x80 DUP3 ADD MSTORE SWAP1 MLOAD PUSH32 0xB31CB4F6609B11A57D1B6B14CC3F81F4B3E609F709A5B1E46892A45F9CC29ED8 SWAP2 DUP2 SWAP1 SUB PUSH1 0xA0 ADD SWAP1 LOG1 POP POP POP POP POP POP POP JUMP JUMPDEST PUSH1 0x40 MLOAD PUSH4 0x31A9108F PUSH1 0xE1 SHL DUP2 MSTORE PUSH1 0x4 DUP2 ADD DUP4 SWAP1 MSTORE DUP5 SWAP1 DUP4 SWAP1 PUSH1 0x1 PUSH1 0x1 PUSH1 0xA0 SHL SUB DUP4 AND SWAP1 PUSH4 0x6352211E SWAP1 PUSH1 0x24 ADD PUSH1 0x20 PUSH1 0x40 MLOAD DUP1 DUP4 SUB DUP2 DUP7 DUP1 EXTCODESIZE ISZERO DUP1 ISZERO PUSH2 0x116E JUMPI PUSH1 0x0 DUP1 REVERT JUMPDEST POP GAS STATICCALL ISZERO DUP1 ISZERO PUSH2 0x1182 JUMPI RETURNDATASIZE PUSH1 0x0 DUP1 RETURNDATACOPY RETURNDATASIZE PUSH1 0x0 REVERT JUMPDEST POP POP POP POP PUSH1 0x40 MLOAD RETURNDATASIZE PUSH1 0x1F NOT PUSH1 0x1F DUP3 ADD AND DUP3 ADD DUP1 PUSH1 0x40 MSTORE POP DUP2 ADD SWAP1 PUSH2 0x11A6 SWAP2 SWAP1 PUSH2 0x26F6 JUMP JUMPDEST PUSH1 0x1 PUSH1 0x1 PUSH1 0xA0 SHL SUB AND CALLER PUSH1 0x1 PUSH1 0x1 PUSH1 0xA0 SHL SUB AND EQ PUSH2 0x11D6 JUMPI PUSH1 0x40 MLOAD PUSH3 0x461BCD PUSH1 0xE5 SHL DUP2 MSTORE PUSH1 0x4 ADD PUSH2 0x5D6 SWAP1 PUSH2 0x2AC0 JUMP JUMPDEST PUSH1 0x1 PUSH1 0x1 PUSH1 0xA0 SHL SUB DUP7 AND PUSH1 0x0 SWAP1 DUP2 MSTORE PUSH1 0x2 PUSH1 0x20 SWAP1 DUP2 MSTORE PUSH1 0x40 DUP1 DUP4 KECCAK256 DUP8 DUP5 MSTORE SWAP1 SWAP2 MSTORE SWAP1 KECCAK256 SLOAD DUP7 SWAP1 DUP6 SWAP1 ISZERO PUSH2 0x1241 JUMPI PUSH1 0x40 MLOAD PUSH3 0x461BCD PUSH1 0xE5 SHL DUP2 MSTORE PUSH1 0x20 PUSH1 0x4 DUP3 ADD MSTORE PUSH1 0x13 PUSH1 0x24 DUP3 ADD MSTORE PUSH19 0x4E667420616C726561647920696E2073616C65 PUSH1 0x68 SHL PUSH1 0x44 DUP3 ADD MSTORE PUSH1 0x64 ADD PUSH2 0x5D6 JUMP JUMPDEST PUSH1 0x40 MLOAD PUSH4 0xE985E9C5 PUSH1 0xE0 SHL DUP2 MSTORE CALLER PUSH1 0x4 DUP3 ADD MSTORE ADDRESS PUSH1 0x24 DUP3 ADD MSTORE DUP9 SWAP1 DUP8 SWAP1 PUSH1 0x1 PUSH1 0x1 PUSH1 0xA0 SHL SUB DUP4 AND SWAP1 PUSH4 0xE985E9C5 SWAP1 PUSH1 0x44 ADD PUSH1 0x20 PUSH1 0x40 MLOAD DUP1 DUP4 SUB DUP2 DUP7 DUP1 EXTCODESIZE ISZERO DUP1 ISZERO PUSH2 0x128A JUMPI PUSH1 0x0 DUP1 REVERT JUMPDEST POP GAS STATICCALL ISZERO DUP1 ISZERO PUSH2 0x129E JUMPI RETURNDATASIZE PUSH1 0x0 DUP1 RETURNDATACOPY RETURNDATASIZE PUSH1 0x0 REVERT JUMPDEST POP POP POP POP PUSH1 0x40 MLOAD RETURNDATASIZE PUSH1 0x1F NOT PUSH1 0x1F DUP3 ADD AND DUP3 ADD DUP1 PUSH1 0x40 MSTORE POP DUP2 ADD SWAP1 PUSH2 0x12C2 SWAP2 SWAP1 PUSH2 0x2935 JUMP JUMPDEST PUSH2 0x130E JUMPI PUSH1 0x40 MLOAD PUSH3 0x461BCD PUSH1 0xE5 SHL DUP2 MSTORE PUSH1 0x20 PUSH1 0x4 DUP3 ADD MSTORE PUSH1 0x1C PUSH1 0x24 DUP3 ADD MSTORE PUSH32 0x4E6674206E6F7420617070726F76656420746F20636F6E747261637400000000 PUSH1 0x44 DUP3 ADD MSTORE PUSH1 0x64 ADD PUSH2 0x5D6 JUMP JUMPDEST DUP7 PUSH1 0x0 DUP2 GT PUSH2 0x132F JUMPI PUSH1 0x40 MLOAD PUSH3 0x461BCD PUSH1 0xE5 SHL DUP2 MSTORE PUSH1 0x4 ADD PUSH2 0x5D6 SWAP1 PUSH2 0x29D3 JUMP JUMPDEST PUSH1 0x40 MLOAD DUP1 PUSH1 0x80 ADD PUSH1 0x40 MSTORE DUP1 CALLER PUSH1 0x1 PUSH1 0x1 PUSH1 0xA0 SHL SUB AND DUP2 MSTORE PUSH1 0x20 ADD PUSH1 0x0 PUSH1 0x1 PUSH1 0x1 PUSH1 0xA0 SHL SUB AND DUP2 MSTORE PUSH1 0x20 ADD DUP12 PUSH1 0x1 PUSH1 0x1 PUSH1 0xA0 SHL SUB AND DUP2 MSTORE PUSH1 0x20 ADD DUP10 DUP2 MSTORE POP PUSH1 0x0 DUP1 DUP14 PUSH1 0x1 PUSH1 0x1 PUSH1 0xA0 SHL SUB AND PUSH1 0x1 PUSH1 0x1 PUSH1 0xA0 SHL SUB AND DUP2 MSTORE PUSH1 0x20 ADD SWAP1 DUP2 MSTORE PUSH1 0x20 ADD PUSH1 0x0 KECCAK256 PUSH1 0x0 DUP12 DUP2 MSTORE PUSH1 0x20 ADD SWAP1 DUP2 MSTORE PUSH1 0x20 ADD PUSH1 0x0 KECCAK256 PUSH1 0x0 DUP3 ADD MLOAD DUP2 PUSH1 0x0 ADD PUSH1 0x0 PUSH2 0x100 EXP DUP2 SLOAD DUP2 PUSH1 0x1 PUSH1 0x1 PUSH1 0xA0 SHL SUB MUL NOT AND SWAP1 DUP4 PUSH1 0x1 PUSH1 0x1 PUSH1 0xA0 SHL SUB AND MUL OR SWAP1 SSTORE POP PUSH1 0x20 DUP3 ADD MLOAD DUP2 PUSH1 0x1 ADD PUSH1 0x0 PUSH2 0x100 EXP DUP2 SLOAD DUP2 PUSH1 0x1 PUSH1 0x1 PUSH1 0xA0 SHL SUB MUL NOT AND SWAP1 DUP4 PUSH1 0x1 PUSH1 0x1 PUSH1 0xA0 SHL SUB AND MUL OR SWAP1 SSTORE POP PUSH1 0x40 DUP3 ADD MLOAD DUP2 PUSH1 0x2 ADD PUSH1 0x0 PUSH2 0x100 EXP DUP2 SLOAD DUP2 PUSH1 0x1 PUSH1 0x1 PUSH1 0xA0 SHL SUB MUL NOT AND SWAP1 DUP4 PUSH1 0x1 PUSH1 0x1 PUSH1 0xA0 SHL SUB AND MUL OR SWAP1 SSTORE POP PUSH1 0x60 DUP3 ADD MLOAD DUP2 PUSH1 0x3 ADD SSTORE SWAP1 POP POP PUSH1 0x1 PUSH1 0x2 PUSH1 0x0 DUP14 PUSH1 0x1 PUSH1 0x1 PUSH1 0xA0 SHL SUB AND PUSH1 0x1 PUSH1 0x1 PUSH1 0xA0 SHL SUB AND DUP2 MSTORE PUSH1 0x20 ADD SWAP1 DUP2 MSTORE PUSH1 0x20 ADD PUSH1 0x0 KECCAK256 PUSH1 0x0 DUP12 DUP2 MSTORE PUSH1 0x20 ADD SWAP1 DUP2 MSTORE PUSH1 0x20 ADD PUSH1 0x0 KECCAK256 DUP2 SWAP1 SSTORE POP PUSH1 0x6 DUP1 SLOAD SWAP1 POP PUSH1 0x4 PUSH1 0x0 DUP14 PUSH1 0x1 PUSH1 0x1 PUSH1 0xA0 SHL SUB AND PUSH1 0x1 PUSH1 0x1 PUSH1 0xA0 SHL SUB AND DUP2 MSTORE PUSH1 0x20 ADD SWAP1 DUP2 MSTORE PUSH1 0x20 ADD PUSH1 0x0 KECCAK256 PUSH1 0x0 DUP12 DUP2 MSTORE PUSH1 0x20 ADD SWAP1 DUP2 MSTORE PUSH1 0x20 ADD PUSH1 0x0 KECCAK256 DUP2 SWAP1 SSTORE POP PUSH1 0x6 PUSH1 0x40 MLOAD DUP1 PUSH1 0x40 ADD PUSH1 0x40 MSTORE DUP1 DUP14 PUSH1 0x1 PUSH1 0x1 PUSH1 0xA0 SHL SUB AND DUP2 MSTORE PUSH1 0x20 ADD DUP12 DUP2 MSTORE POP SWAP1 DUP1 PUSH1 0x1 DUP2 SLOAD ADD DUP1 DUP3 SSTORE DUP1 SWAP2 POP POP PUSH1 0x1 SWAP1 SUB SWAP1 PUSH1 0x0 MSTORE PUSH1 0x20 PUSH1 0x0 KECCAK256 SWAP1 PUSH1 0x2 MUL ADD PUSH1 0x0 SWAP1 SWAP2 SWAP1 SWAP2 SWAP1 SWAP2 POP PUSH1 0x0 DUP3 ADD MLOAD DUP2 PUSH1 0x0 ADD PUSH1 0x0 PUSH2 0x100 EXP DUP2 SLOAD DUP2 PUSH1 0x1 PUSH1 0x1 PUSH1 0xA0 SHL SUB MUL NOT AND SWAP1 DUP4 PUSH1 0x1 PUSH1 0x1 PUSH1 0xA0 SHL SUB AND MUL OR SWAP1 SSTORE POP PUSH1 0x20 DUP3 ADD MLOAD DUP2 PUSH1 0x1 ADD SSTORE POP POP DUP11 PUSH1 0x1 PUSH1 0x1 PUSH1 0xA0 SHL SUB AND PUSH4 0x42842E0E CALLER ADDRESS DUP13 PUSH1 0x40 MLOAD DUP5 PUSH4 0xFFFFFFFF AND PUSH1 0xE0 SHL DUP2 MSTORE PUSH1 0x4 ADD PUSH2 0x1563 SWAP4 SWAP3 SWAP2 SWAP1 PUSH2 0x2957 JUMP JUMPDEST PUSH1 0x0 PUSH1 0x40 MLOAD DUP1 DUP4 SUB DUP2 PUSH1 0x0 DUP8 DUP1 EXTCODESIZE ISZERO DUP1 ISZERO PUSH2 0x157D JUMPI PUSH1 0x0 DUP1 REVERT JUMPDEST POP GAS CALL ISZERO DUP1 ISZERO PUSH2 0x1591 JUMPI RETURNDATASIZE PUSH1 0x0 DUP1 RETURNDATACOPY RETURNDATASIZE PUSH1 0x0 REVERT JUMPDEST POP POP POP POP PUSH32 0x78EEAD3CD01ED921C7653D000A6B73AEA643A7B9C066FB7D93EB2EAE8ACC2D9 DUP12 CALLER DUP13 DUP13 DUP13 TIMESTAMP PUSH1 0x40 MLOAD PUSH2 0x1602 SWAP7 SWAP6 SWAP5 SWAP4 SWAP3 SWAP2 SWAP1 PUSH1 0x1 PUSH1 0x1 PUSH1 0xA0 SHL SUB SWAP7 DUP8 AND DUP2 MSTORE SWAP5 DUP7 AND PUSH1 0x20 DUP7 ADD MSTORE SWAP3 SWAP1 SWAP5 AND PUSH1 0x40 DUP5 ADD MSTORE PUSH1 0x60 DUP4 ADD MSTORE PUSH1 0x80 DUP3 ADD SWAP3 SWAP1 SWAP3 MSTORE PUSH1 0xA0 DUP2 ADD SWAP2 SWAP1 SWAP2 MSTORE PUSH1 0xC0 ADD SWAP1 JUMP JUMPDEST PUSH1 0x40 MLOAD DUP1 SWAP2 SUB SWAP1 LOG1 POP POP POP POP POP POP POP POP POP POP POP JUMP JUMPDEST PUSH2 0x1672 PUSH1 0x40 MLOAD DUP1 PUSH1 0xE0 ADD PUSH1 0x40 MSTORE DUP1 PUSH1 0x0 DUP2 MSTORE PUSH1 0x20 ADD PUSH1 0x0 DUP2 MSTORE PUSH1 0x20 ADD PUSH1 0x0 DUP2 MSTORE PUSH1 0x20 ADD PUSH1 0x0 DUP2 MSTORE PUSH1 0x20 ADD PUSH1 0x0 PUSH1 0x1 PUSH1 0x1 PUSH1 0xA0 SHL SUB AND DUP2 MSTORE PUSH1 0x20 ADD PUSH1 0x0 PUSH1 0x1 PUSH1 0x1 PUSH1 0xA0 SHL SUB AND DUP2 MSTORE PUSH1 0x20 ADD PUSH1 0x0 PUSH1 0x1 PUSH1 0x1 PUSH1 0xA0 SHL SUB AND DUP2 MSTORE POP SWAP1 JUMP JUMPDEST POP PUSH1 0x1 PUSH1 0x1 PUSH1 0xA0 SHL SUB SWAP2 DUP3 AND PUSH1 0x0 SWAP1 DUP2 MSTORE PUSH1 0x1 PUSH1 0x20 DUP2 DUP2 MSTORE PUSH1 0x40 DUP1 DUP5 KECCAK256 SWAP5 DUP5 MSTORE SWAP4 DUP2 MSTORE SWAP2 DUP4 SWAP1 KECCAK256 DUP4 MLOAD PUSH1 0xE0 DUP2 ADD DUP6 MSTORE DUP2 SLOAD DUP2 MSTORE SWAP2 DUP2 ADD SLOAD SWAP3 DUP3 ADD SWAP3 SWAP1 SWAP3 MSTORE PUSH1 0x2 DUP3 ADD SLOAD SWAP3 DUP2 ADD SWAP3 SWAP1 SWAP3 MSTORE PUSH1 0x3 DUP2 ADD SLOAD PUSH1 0x60 DUP4 ADD MSTORE PUSH1 0x4 DUP2 ADD SLOAD DUP4 AND PUSH1 0x80 DUP4 ADD MSTORE PUSH1 0x5 DUP2 ADD SLOAD DUP4 AND PUSH1 0xA0 DUP4 ADD MSTORE PUSH1 0x6 ADD SLOAD SWAP1 SWAP2 AND PUSH1 0xC0 DUP3 ADD MSTORE SWAP1 JUMP JUMPDEST PUSH1 0x40 MLOAD PUSH4 0x23B872DD PUSH1 0xE0 SHL DUP2 MSTORE PUSH1 0x0 SWAP1 DUP5 SWAP1 PUSH1 0x1 PUSH1 0x1 PUSH1 0xA0 SHL SUB DUP3 AND SWAP1 PUSH4 0x23B872DD SWAP1 PUSH2 0x532 SWAP1 DUP8 SWAP1 PUSH20 0x2258C5B9C82FF0FA923756ED3FD2ACB5616DF57C SWAP1 DUP9 SWAP1 PUSH1 0x4 ADD PUSH2 0x2957 JUMP JUMPDEST PUSH1 0x1 PUSH1 0x1 PUSH1 0xA0 SHL SUB DUP3 AND PUSH1 0x0 SWAP1 DUP2 MSTORE PUSH1 0x2 PUSH1 0x20 DUP2 DUP2 MSTORE PUSH1 0x40 DUP1 DUP5 KECCAK256 DUP6 DUP6 MSTORE SWAP1 SWAP2 MSTORE SWAP1 SWAP2 KECCAK256 SLOAD DUP4 SWAP2 DUP4 SWAP2 EQ PUSH2 0x177C JUMPI PUSH1 0x40 MLOAD PUSH3 0x461BCD PUSH1 0xE5 SHL DUP2 MSTORE PUSH1 0x4 ADD PUSH2 0x5D6 SWAP1 PUSH2 0x2A2D JUMP JUMPDEST PUSH1 0x1 PUSH1 0x1 PUSH1 0xA0 SHL SUB DUP5 DUP2 AND PUSH1 0x0 SWAP1 DUP2 MSTORE PUSH1 0x1 PUSH1 0x20 SWAP1 DUP2 MSTORE PUSH1 0x40 DUP1 DUP4 KECCAK256 DUP8 DUP5 MSTORE SWAP1 SWAP2 MSTORE SWAP1 KECCAK256 PUSH1 0x5 ADD SLOAD DUP6 SWAP2 DUP6 SWAP2 AND CALLER EQ PUSH2 0x17E7 JUMPI PUSH1 0x40 MLOAD PUSH3 0x461BCD PUSH1 0xE5 SHL DUP2 MSTORE PUSH1 0x20 PUSH1 0x4 DUP3 ADD MSTORE PUSH1 0xD PUSH1 0x24 DUP3 ADD MSTORE PUSH13 0x3737BA1037333A1037BBB732B9 PUSH1 0x99 SHL PUSH1 0x44 DUP3 ADD MSTORE PUSH1 0x64 ADD PUSH2 0x5D6 JUMP JUMPDEST PUSH1 0x1 PUSH1 0x1 PUSH1 0xA0 SHL SUB DUP7 AND PUSH1 0x0 SWAP1 DUP2 MSTORE PUSH1 0x1 PUSH1 0x20 DUP2 DUP2 MSTORE PUSH1 0x40 DUP1 DUP5 KECCAK256 DUP10 DUP6 MSTORE SWAP1 SWAP2 MSTORE SWAP1 SWAP2 KECCAK256 ADD SLOAD DUP7 SWAP1 DUP7 SWAP1 TIMESTAMP LT PUSH2 0x182F JUMPI PUSH1 0x40 MLOAD PUSH3 0x461BCD PUSH1 0xE5 SHL DUP2 MSTORE PUSH1 0x4 ADD PUSH2 0x5D6 SWAP1 PUSH2 0x2A9B JUMP JUMPDEST PUSH1 0x1 PUSH1 0x1 PUSH1 0xA0 SHL SUB DUP1 DUP10 AND PUSH1 0x0 SWAP1 DUP2 MSTORE PUSH1 0x1 PUSH1 0x20 SWAP1 DUP2 MSTORE PUSH1 0x40 DUP1 DUP4 KECCAK256 DUP12 DUP5 MSTORE SWAP1 SWAP2 MSTORE SWAP1 KECCAK256 PUSH1 0x4 ADD SLOAD DUP10 SWAP2 DUP10 SWAP2 AND ISZERO PUSH2 0x1894 JUMPI PUSH1 0x40 MLOAD PUSH3 0x461BCD PUSH1 0xE5 SHL DUP2 MSTORE PUSH1 0x20 PUSH1 0x4 DUP3 ADD MSTORE PUSH1 0x8 PUSH1 0x24 DUP3 ADD MSTORE PUSH8 0x626964206D616B65 PUSH1 0xC0 SHL PUSH1 0x44 DUP3 ADD MSTORE PUSH1 0x64 ADD PUSH2 0x5D6 JUMP JUMPDEST PUSH1 0x1 PUSH1 0x1 PUSH1 0xA0 SHL SUB DUP11 AND PUSH1 0x0 DUP2 DUP2 MSTORE PUSH1 0x2 PUSH1 0x20 SWAP1 DUP2 MSTORE PUSH1 0x40 DUP1 DUP4 KECCAK256 DUP14 DUP5 MSTORE SWAP1 SWAP2 MSTORE DUP1 DUP3 KECCAK256 SWAP2 SWAP1 SWAP2 SSTORE MLOAD PUSH4 0x21421707 PUSH1 0xE1 SHL DUP2 MSTORE PUSH4 0x42842E0E SWAP1 PUSH2 0x18DF SWAP1 ADDRESS SWAP1 CALLER SWAP1 DUP15 SWAP1 PUSH1 0x4 ADD PUSH2 0x2957 JUMP JUMPDEST PUSH1 0x0 PUSH1 0x40 MLOAD DUP1 DUP4 SUB DUP2 PUSH1 0x0 DUP8 DUP1 EXTCODESIZE ISZERO DUP1 ISZERO PUSH2 0x18F9 JUMPI PUSH1 0x0 DUP1 REVERT JUMPDEST POP GAS CALL ISZERO DUP1 ISZERO PUSH2 0x190D JUMPI RETURNDATASIZE PUSH1 0x0 DUP1 RETURNDATACOPY RETURNDATASIZE PUSH1 0x0 REVERT JUMPDEST POP POP POP PUSH1 0x1 PUSH1 0x1 PUSH1 0xA0 SHL SUB DUP12 AND PUSH1 0x0 SWAP1 DUP2 MSTORE PUSH1 0x5 PUSH1 0x20 SWAP1 DUP2 MSTORE PUSH1 0x40 DUP1 DUP4 KECCAK256 DUP14 DUP5 MSTORE SWAP1 SWAP2 MSTORE SWAP1 KECCAK256 SLOAD PUSH1 0x7 DUP1 SLOAD SWAP1 SWAP3 POP DUP2 LT PUSH2 0x1949 JUMPI PUSH2 0x1949 PUSH2 0x2B15 JUMP JUMPDEST PUSH1 0x0 SWAP2 DUP3 MSTORE PUSH1 0x20 DUP1 DUP4 KECCAK256 PUSH1 0x2 SWAP3 SWAP1 SWAP3 MUL SWAP1 SWAP2 ADD DUP1 SLOAD PUSH1 0x1 PUSH1 0x1 PUSH1 0xA0 SHL SUB NOT AND DUP2 SSTORE PUSH1 0x1 ADD SWAP2 SWAP1 SWAP2 SSTORE PUSH1 0x40 DUP1 MLOAD PUSH1 0x1 PUSH1 0x1 PUSH1 0xA0 SHL SUB DUP14 AND DUP2 MSTORE SWAP2 DUP3 ADD DUP12 SWAP1 MSTORE CALLER DUP3 DUP3 ADD MSTORE MLOAD PUSH32 0xB9D411977D4EE731F87BB8F16EB6F8C1FB579CFF684642052BF6084E6E33238D SWAP2 DUP2 SWAP1 SUB PUSH1 0x60 ADD SWAP1 LOG1 POP POP POP POP POP POP POP POP POP POP JUMP JUMPDEST PUSH1 0x60 PUSH1 0x6 DUP1 SLOAD DUP1 PUSH1 0x20 MUL PUSH1 0x20 ADD PUSH1 0x40 MLOAD SWAP1 DUP2 ADD PUSH1 0x40 MSTORE DUP1 SWAP3 SWAP2 SWAP1 DUP2 DUP2 MSTORE PUSH1 0x20 ADD PUSH1 0x0 SWAP1 DUP3 DUP3 LT ISZERO PUSH2 0x945 JUMPI PUSH1 0x0 DUP5 DUP2 MSTORE PUSH1 0x20 SWAP1 DUP2 SWAP1 KECCAK256 PUSH1 0x40 DUP1 MLOAD DUP1 DUP3 ADD SWAP1 SWAP2 MSTORE PUSH1 0x2 DUP6 MUL SWAP1 SWAP2 ADD DUP1 SLOAD PUSH1 0x1 PUSH1 0x1 PUSH1 0xA0 SHL SUB AND DUP3 MSTORE PUSH1 0x1 SWAP1 DUP2 ADD SLOAD DUP3 DUP5 ADD MSTORE SWAP1 DUP4 MSTORE SWAP1 SWAP3 ADD SWAP2 ADD PUSH2 0x8FD JUMP JUMPDEST PUSH1 0x1 PUSH1 0x1 PUSH1 0xA0 SHL SUB DUP4 AND PUSH1 0x0 SWAP1 DUP2 MSTORE PUSH1 0x2 PUSH1 0x20 SWAP1 DUP2 MSTORE PUSH1 0x40 DUP1 DUP4 KECCAK256 DUP6 DUP5 MSTORE SWAP1 SWAP2 MSTORE SWAP1 KECCAK256 SLOAD DUP4 SWAP1 DUP4 SWAP1 PUSH1 0x1 EQ PUSH2 0x1A75 JUMPI PUSH1 0x40 MLOAD PUSH3 0x461BCD PUSH1 0xE5 SHL DUP2 MSTORE PUSH1 0x4 ADD PUSH2 0x5D6 SWAP1 PUSH2 0x29FE JUMP JUMPDEST DUP3 PUSH1 0x0 DUP2 GT PUSH2 0x1A96 JUMPI PUSH1 0x40 MLOAD PUSH3 0x461BCD PUSH1 0xE5 SHL DUP2 MSTORE PUSH1 0x4 ADD PUSH2 0x5D6 SWAP1 PUSH2 0x29D3 JUMP JUMPDEST PUSH1 0x1 PUSH1 0x1 PUSH1 0xA0 SHL SUB DUP7 AND PUSH1 0x0 SWAP1 DUP2 MSTORE PUSH1 0x20 DUP2 DUP2 MSTORE PUSH1 0x40 DUP1 DUP4 KECCAK256 DUP9 DUP5 MSTORE SWAP1 SWAP2 MSTORE SWAP1 KECCAK256 PUSH1 0x3 ADD SLOAD DUP7 SWAP1 DUP7 SWAP1 DUP7 SWAP1 DUP2 LT ISZERO PUSH2 0x1B07 JUMPI PUSH1 0x40 MLOAD PUSH3 0x461BCD PUSH1 0xE5 SHL DUP2 MSTORE PUSH1 0x20 PUSH1 0x4 DUP3 ADD MSTORE PUSH1 0x14 PUSH1 0x24 DUP3 ADD MSTORE PUSH20 0xC4EAF240A0E4D2C6CA40DCDEE840CADCDEEACED PUSH1 0x63 SHL PUSH1 0x44 DUP3 ADD MSTORE PUSH1 0x64 ADD PUSH2 0x5D6 JUMP JUMPDEST PUSH1 0x40 MLOAD PUSH4 0x21421707 PUSH1 0xE1 SHL DUP2 MSTORE PUSH1 0x1 PUSH1 0x1 PUSH1 0xA0 SHL SUB DUP11 AND SWAP1 PUSH4 0x42842E0E SWAP1 PUSH2 0x1B37 SWAP1 ADDRESS SWAP1 CALLER SWAP1 DUP14 SWAP1 PUSH1 0x4 ADD PUSH2 0x2957 JUMP JUMPDEST PUSH1 0x0 PUSH1 0x40 MLOAD DUP1 DUP4 SUB DUP2 PUSH1 0x0 DUP8 DUP1 EXTCODESIZE ISZERO DUP1 ISZERO PUSH2 0x1B51 JUMPI PUSH1 0x0 DUP1 REVERT JUMPDEST POP GAS CALL ISZERO DUP1 ISZERO PUSH2 0x1B65 JUMPI RETURNDATASIZE PUSH1 0x0 DUP1 RETURNDATACOPY RETURNDATASIZE PUSH1 0x0 REVERT JUMPDEST POP POP POP PUSH1 0x1 PUSH1 0x1 PUSH1 0xA0 SHL SUB DUP11 AND PUSH1 0x0 DUP2 DUP2 MSTORE PUSH1 0x2 PUSH1 0x20 SWAP1 DUP2 MSTORE PUSH1 0x40 DUP1 DUP4 KECCAK256 DUP14 DUP5 MSTORE DUP3 MSTORE DUP1 DUP4 KECCAK256 DUP4 SWAP1 SSTORE SWAP3 DUP3 MSTORE PUSH1 0x4 DUP2 MSTORE DUP3 DUP3 KECCAK256 DUP13 DUP4 MSTORE SWAP1 MSTORE KECCAK256 SLOAD PUSH1 0x6 DUP1 SLOAD SWAP1 SWAP3 POP DUP2 LT PUSH2 0x1BB4 JUMPI PUSH2 0x1BB4 PUSH2 0x2B15 JUMP JUMPDEST PUSH1 0x0 SWAP2 DUP3 MSTORE PUSH1 0x20 DUP1 DUP4 KECCAK256 PUSH1 0x2 SWAP3 DUP4 MUL ADD DUP1 SLOAD PUSH1 0x1 PUSH1 0x1 PUSH1 0xA0 SHL SUB NOT SWAP1 DUP2 AND DUP3 SSTORE PUSH1 0x1 SWAP2 DUP3 ADD DUP6 SWAP1 SSTORE PUSH1 0x1 PUSH1 0x1 PUSH1 0xA0 SHL SUB DUP15 DUP2 AND DUP7 MSTORE DUP6 DUP5 MSTORE PUSH1 0x40 DUP1 DUP8 KECCAK256 DUP16 DUP9 MSTORE SWAP1 SWAP5 MSTORE SWAP3 SWAP1 SWAP5 KECCAK256 SWAP1 DUP2 ADD DUP1 SLOAD SWAP1 SWAP5 AND CALLER OR SWAP1 SWAP4 SSTORE DUP3 SLOAD SWAP2 DUP4 ADD SLOAD PUSH1 0x3 SWAP1 SWAP4 ADD SLOAD PUSH2 0x1C25 SWAP4 SWAP3 DUP3 AND SWAP3 SWAP1 SWAP2 AND SWAP1 PUSH2 0x2317 JUMP JUMPDEST PUSH1 0x40 DUP1 MLOAD PUSH1 0x1 PUSH1 0x1 PUSH1 0xA0 SHL SUB DUP12 AND DUP2 MSTORE CALLER PUSH1 0x20 DUP3 ADD MSTORE SWAP1 DUP2 ADD DUP10 SWAP1 MSTORE PUSH1 0x60 DUP2 ADD DUP9 SWAP1 MSTORE PUSH32 0x9FA3B1BB9266E05722B54A7A564D02A274BC80D39F4AF21E6BE405480996CEBA SWAP1 PUSH1 0x80 ADD PUSH1 0x40 MLOAD DUP1 SWAP2 SUB SWAP1 LOG1 POP POP POP POP POP POP POP POP POP JUMP JUMPDEST PUSH1 0x40 MLOAD PUSH4 0x31A9108F PUSH1 0xE1 SHL DUP2 MSTORE PUSH1 0x4 DUP2 ADD DUP6 SWAP1 MSTORE DUP7 SWAP1 DUP6 SWAP1 PUSH1 0x1 PUSH1 0x1 PUSH1 0xA0 SHL SUB DUP4 AND SWAP1 PUSH4 0x6352211E SWAP1 PUSH1 0x24 ADD PUSH1 0x20 PUSH1 0x40 MLOAD DUP1 DUP4 SUB DUP2 DUP7 DUP1 EXTCODESIZE ISZERO DUP1 ISZERO PUSH2 0x1CC4 JUMPI PUSH1 0x0 DUP1 REVERT JUMPDEST POP GAS STATICCALL ISZERO DUP1 ISZERO PUSH2 0x1CD8 JUMPI RETURNDATASIZE PUSH1 0x0 DUP1 RETURNDATACOPY RETURNDATASIZE PUSH1 0x0 REVERT JUMPDEST POP POP POP POP PUSH1 0x40 MLOAD RETURNDATASIZE PUSH1 0x1F NOT PUSH1 0x1F DUP3 ADD AND DUP3 ADD DUP1 PUSH1 0x40 MSTORE POP DUP2 ADD SWAP1 PUSH2 0x1CFC SWAP2 SWAP1 PUSH2 0x26F6 JUMP JUMPDEST PUSH1 0x1 PUSH1 0x1 PUSH1 0xA0 SHL SUB AND CALLER PUSH1 0x1 PUSH1 0x1 PUSH1 0xA0 SHL SUB AND EQ PUSH2 0x1D2C JUMPI PUSH1 0x40 MLOAD PUSH3 0x461BCD PUSH1 0xE5 SHL DUP2 MSTORE PUSH1 0x4 ADD PUSH2 0x5D6 SWAP1 PUSH2 0x2AC0 JUMP JUMPDEST PUSH1 0x1 PUSH1 0x1 PUSH1 0xA0 SHL SUB DUP9 AND PUSH1 0x0 SWAP1 DUP2 MSTORE PUSH1 0x2 PUSH1 0x20 SWAP1 DUP2 MSTORE PUSH1 0x40 DUP1 DUP4 KECCAK256 DUP10 DUP5 MSTORE SWAP1 SWAP2 MSTORE SWAP1 KECCAK256 SLOAD DUP9 SWAP1 DUP8 SWAP1 ISZERO PUSH2 0x1D97 JUMPI PUSH1 0x40 MLOAD PUSH3 0x461BCD PUSH1 0xE5 SHL DUP2 MSTORE PUSH1 0x20 PUSH1 0x4 DUP3 ADD MSTORE PUSH1 0x13 PUSH1 0x24 DUP3 ADD MSTORE PUSH19 0x4E667420616C726561647920696E2073616C65 PUSH1 0x68 SHL PUSH1 0x44 DUP3 ADD MSTORE PUSH1 0x64 ADD PUSH2 0x5D6 JUMP JUMPDEST PUSH1 0x40 MLOAD PUSH4 0xE985E9C5 PUSH1 0xE0 SHL DUP2 MSTORE CALLER PUSH1 0x4 DUP3 ADD MSTORE ADDRESS PUSH1 0x24 DUP3 ADD MSTORE DUP11 SWAP1 DUP10 SWAP1 PUSH1 0x1 PUSH1 0x1 PUSH1 0xA0 SHL SUB DUP4 AND SWAP1 PUSH4 0xE985E9C5 SWAP1 PUSH1 0x44 ADD PUSH1 0x20 PUSH1 0x40 MLOAD DUP1 DUP4 SUB DUP2 DUP7 DUP1 EXTCODESIZE ISZERO DUP1 ISZERO PUSH2 0x1DE0 JUMPI PUSH1 0x0 DUP1 REVERT JUMPDEST POP GAS STATICCALL ISZERO DUP1 ISZERO PUSH2 0x1DF4 JUMPI RETURNDATASIZE PUSH1 0x0 DUP1 RETURNDATACOPY RETURNDATASIZE PUSH1 0x0 REVERT JUMPDEST POP POP POP POP PUSH1 0x40 MLOAD RETURNDATASIZE PUSH1 0x1F NOT PUSH1 0x1F DUP3 ADD AND DUP3 ADD DUP1 PUSH1 0x40 MSTORE POP DUP2 ADD SWAP1 PUSH2 0x1E18 SWAP2 SWAP1 PUSH2 0x2935 JUMP JUMPDEST PUSH2 0x1E64 JUMPI PUSH1 0x40 MLOAD PUSH3 0x461BCD PUSH1 0xE5 SHL DUP2 MSTORE PUSH1 0x20 PUSH1 0x4 DUP3 ADD MSTORE PUSH1 0x1C PUSH1 0x24 DUP3 ADD MSTORE PUSH32 0x4E6674206E6F7420617070726F76656420746F20636F6E747261637400000000 PUSH1 0x44 DUP3 ADD MSTORE PUSH1 0x64 ADD PUSH2 0x5D6 JUMP JUMPDEST DUP7 PUSH1 0x0 DUP2 GT PUSH2 0x1E85 JUMPI PUSH1 0x40 MLOAD PUSH3 0x461BCD PUSH1 0xE5 SHL DUP2 MSTORE PUSH1 0x4 ADD PUSH2 0x5D6 SWAP1 PUSH2 0x29D3 JUMP JUMPDEST PUSH2 0x1E93 DUP14 DUP14 DUP14 DUP14 DUP14 DUP14 PUSH2 0x2340 JUMP JUMPDEST PUSH1 0x7 DUP1 SLOAD SWAP1 POP PUSH1 0x5 PUSH1 0x0 DUP16 PUSH1 0x1 PUSH1 0x1 PUSH1 0xA0 SHL SUB AND PUSH1 0x1 PUSH1 0x1 PUSH1 0xA0 SHL SUB AND DUP2 MSTORE PUSH1 0x20 ADD SWAP1 DUP2 MSTORE PUSH1 0x20 ADD PUSH1 0x0 KECCAK256 PUSH1 0x0 DUP14 DUP2 MSTORE PUSH1 0x20 ADD SWAP1 DUP2 MSTORE PUSH1 0x20 ADD PUSH1 0x0 KECCAK256 DUP2 SWAP1 SSTORE POP PUSH1 0x7 PUSH1 0x40 MLOAD DUP1 PUSH1 0x40 ADD PUSH1 0x40 MSTORE DUP1 DUP16 PUSH1 0x1 PUSH1 0x1 PUSH1 0xA0 SHL SUB AND DUP2 MSTORE PUSH1 0x20 ADD DUP14 DUP2 MSTORE POP SWAP1 DUP1 PUSH1 0x1 DUP2 SLOAD ADD DUP1 DUP3 SSTORE DUP1 SWAP2 POP POP PUSH1 0x1 SWAP1 SUB SWAP1 PUSH1 0x0 MSTORE PUSH1 0x20 PUSH1 0x0 KECCAK256 SWAP1 PUSH1 0x2 MUL ADD PUSH1 0x0 SWAP1 SWAP2 SWAP1 SWAP2 SWAP1 SWAP2 POP PUSH1 0x0 DUP3 ADD MLOAD DUP2 PUSH1 0x0 ADD PUSH1 0x0 PUSH2 0x100 EXP DUP2 SLOAD DUP2 PUSH1 0x1 PUSH1 0x1 PUSH1 0xA0 SHL SUB MUL NOT AND SWAP1 DUP4 PUSH1 0x1 PUSH1 0x1 PUSH1 0xA0 SHL SUB AND MUL OR SWAP1 SSTORE POP PUSH1 0x20 DUP3 ADD MLOAD DUP2 PUSH1 0x1 ADD SSTORE POP POP PUSH32 0xECBC6A097DA08DBF6F781CE204AAD454CE3DC8F112C51C7A56F1671DE89CEE8C DUP14 CALLER DUP15 DUP15 DUP15 DUP15 DUP15 PUSH1 0x40 MLOAD PUSH2 0x1FCC SWAP8 SWAP7 SWAP6 SWAP5 SWAP4 SWAP3 SWAP2 SWAP1 PUSH1 0x1 PUSH1 0x1 PUSH1 0xA0 SHL SUB SWAP8 DUP9 AND DUP2 MSTORE SWAP6 DUP8 AND PUSH1 0x20 DUP8 ADD MSTORE SWAP4 SWAP1 SWAP6 AND PUSH1 0x40 DUP6 ADD MSTORE PUSH1 0x60 DUP5 ADD SWAP2 SWAP1 SWAP2 MSTORE PUSH1 0x80 DUP4 ADD MSTORE PUSH1 0xA0 DUP3 ADD SWAP3 SWAP1 SWAP3 MSTORE PUSH1 0xC0 DUP2 ADD SWAP2 SWAP1 SWAP2 MSTORE PUSH1 0xE0 ADD SWAP1 JUMP JUMPDEST PUSH1 0x40 MLOAD DUP1 SWAP2 SUB SWAP1 LOG1 POP POP POP POP POP POP POP POP POP POP POP POP POP JUMP JUMPDEST PUSH1 0x1 PUSH1 0x1 PUSH1 0xA0 SHL SUB DUP3 AND PUSH1 0x0 SWAP1 DUP2 MSTORE PUSH1 0x2 PUSH1 0x20 SWAP1 DUP2 MSTORE PUSH1 0x40 DUP1 DUP4 KECCAK256 DUP5 DUP5 MSTORE SWAP1 SWAP2 MSTORE SWAP1 KECCAK256 SLOAD DUP3 SWAP1 DUP3 SWAP1 PUSH1 0x1 EQ PUSH2 0x202A JUMPI PUSH1 0x40 MLOAD PUSH3 0x461BCD PUSH1 0xE5 SHL DUP2 MSTORE PUSH1 0x4 ADD PUSH2 0x5D6 SWAP1 PUSH2 0x29FE JUMP JUMPDEST PUSH1 0x1 PUSH1 0x1 PUSH1 0xA0 SHL SUB DUP5 DUP2 AND PUSH1 0x0 SWAP1 DUP2 MSTORE PUSH1 0x20 DUP2 DUP2 MSTORE PUSH1 0x40 DUP1 DUP4 KECCAK256 DUP8 DUP5 MSTORE SWAP1 SWAP2 MSTORE SWAP1 KECCAK256 SLOAD DUP6 SWAP2 DUP6 SWAP2 AND CALLER EQ PUSH2 0x2070 JUMPI PUSH1 0x40 MLOAD PUSH3 0x461BCD PUSH1 0xE5 SHL DUP2 MSTORE PUSH1 0x4 ADD PUSH2 0x5D6 SWAP1 PUSH2 0x2AC0 JUMP JUMPDEST PUSH1 0x40 MLOAD PUSH4 0x21421707 PUSH1 0xE1 SHL DUP2 MSTORE PUSH1 0x1 PUSH1 0x1 PUSH1 0xA0 SHL SUB DUP8 AND SWAP1 PUSH4 0x42842E0E SWAP1 PUSH2 0x20A0 SWAP1 ADDRESS SWAP1 CALLER SWAP1 DUP11 SWAP1 PUSH1 0x4 ADD PUSH2 0x2957 JUMP JUMPDEST PUSH1 0x0 PUSH1 0x40 MLOAD DUP1 DUP4 SUB DUP2 PUSH1 0x0 DUP8 DUP1 EXTCODESIZE ISZERO DUP1 ISZERO PUSH2 0x20BA JUMPI PUSH1 0x0 DUP1 REVERT JUMPDEST POP GAS CALL ISZERO DUP1 ISZERO PUSH2 0x20CE JUMPI RETURNDATASIZE PUSH1 0x0 DUP1 RETURNDATACOPY RETURNDATASIZE PUSH1 0x0 REVERT JUMPDEST POP POP POP PUSH1 0x1 PUSH1 0x1 PUSH1 0xA0 SHL SUB DUP8 AND PUSH1 0x0 DUP2 DUP2 MSTORE PUSH1 0x2 PUSH1 0x20 SWAP1 DUP2 MSTORE PUSH1 0x40 DUP1 DUP4 KECCAK256 DUP11 DUP5 MSTORE DUP3 MSTORE DUP1 DUP4 KECCAK256 DUP4 SWAP1 SSTORE SWAP3 DUP3 MSTORE PUSH1 0x4 DUP2 MSTORE DUP3 DUP3 KECCAK256 DUP10 DUP4 MSTORE SWAP1 MSTORE KECCAK256 SLOAD PUSH1 0x6 DUP1 SLOAD SWAP1 SWAP3 POP DUP2 LT PUSH2 0x211D JUMPI PUSH2 0x211D PUSH2 0x2B15 JUMP JUMPDEST PUSH1 0x0 SWAP2 DUP3 MSTORE PUSH1 0x20 DUP3 KECCAK256 PUSH1 0x2 SWAP1 SWAP2 MUL ADD DUP1 SLOAD PUSH1 0x1 PUSH1 0x1 PUSH1 0xA0 SHL SUB NOT AND DUP2 SSTORE PUSH1 0x1 ADD SSTORE PUSH1 0x40 MLOAD PUSH32 0xD7348FF00CF381A884144B50B3441398A48A7974EC349287DF80E18CEC9F5A31 SWAP1 PUSH2 0x2172 SWAP1 DUP9 SWAP1 CALLER SWAP1 DUP10 SWAP1 PUSH2 0x2957 JUMP JUMPDEST PUSH1 0x40 MLOAD DUP1 SWAP2 SUB SWAP1 LOG1 POP POP POP POP POP POP JUMP JUMPDEST PUSH1 0x40 MLOAD PUSH4 0x23B872DD PUSH1 0xE0 SHL DUP2 MSTORE PUSH1 0x1 PUSH1 0x1 PUSH1 0xA0 SHL SUB DUP3 AND SWAP1 PUSH4 0x23B872DD SWAP1 PUSH2 0x21B2 SWAP1 CALLER SWAP1 ADDRESS SWAP1 DUP8 SWAP1 PUSH1 0x4 ADD PUSH2 0x2957 JUMP JUMPDEST PUSH1 0x20 PUSH1 0x40 MLOAD DUP1 DUP4 SUB DUP2 PUSH1 0x0 DUP8 DUP1 EXTCODESIZE ISZERO DUP1 ISZERO PUSH2 0x21CC JUMPI PUSH1 0x0 DUP1 REVERT JUMPDEST POP GAS CALL ISZERO DUP1 ISZERO PUSH2 0x21E0 JUMPI RETURNDATASIZE PUSH1 0x0 DUP1 RETURNDATACOPY RETURNDATASIZE PUSH1 0x0 REVERT JUMPDEST POP POP POP POP PUSH1 0x40 MLOAD RETURNDATASIZE PUSH1 0x1F NOT PUSH1 0x1F DUP3 ADD AND DUP3 ADD DUP1 PUSH1 0x40 MSTORE POP DUP2 ADD SWAP1 PUSH2 0x2204 SWAP2 SWAP1 PUSH2 0x2935 JUMP JUMPDEST PUSH2 0x2247 JUMPI PUSH1 0x40 MLOAD PUSH3 0x461BCD PUSH1 0xE5 SHL DUP2 MSTORE PUSH1 0x20 PUSH1 0x4 DUP3 ADD MSTORE PUSH1 0x14 PUSH1 0x24 DUP3 ADD MSTORE PUSH20 0xC2D8D8DEEEC2DCC6CA40DCDEE840CADCDEEACED PUSH1 0x63 SHL PUSH1 0x44 DUP3 ADD MSTORE PUSH1 0x64 ADD PUSH2 0x5D6 JUMP JUMPDEST POP POP JUMP JUMPDEST PUSH1 0x0 PUSH2 0x2257 DUP3 DUP5 PUSH2 0x2AEF JUMP JUMPDEST SWAP4 SWAP3 POP POP POP JUMP JUMPDEST PUSH1 0x40 MLOAD PUSH4 0x21421707 PUSH1 0xE1 SHL DUP2 MSTORE PUSH1 0x1 PUSH1 0x1 PUSH1 0xA0 SHL SUB DUP6 AND SWAP1 PUSH4 0x42842E0E SWAP1 PUSH2 0x228E SWAP1 ADDRESS SWAP1 DUP6 SWAP1 DUP9 SWAP1 PUSH1 0x4 ADD PUSH2 0x2957 JUMP JUMPDEST PUSH1 0x0 PUSH1 0x40 MLOAD DUP1 DUP4 SUB DUP2 PUSH1 0x0 DUP8 DUP1 EXTCODESIZE ISZERO DUP1 ISZERO PUSH2 0x22A8 JUMPI PUSH1 0x0 DUP1 REVERT JUMPDEST POP GAS CALL ISZERO DUP1 ISZERO PUSH2 0x22BC JUMPI RETURNDATASIZE PUSH1 0x0 DUP1 RETURNDATACOPY RETURNDATASIZE PUSH1 0x0 REVERT JUMPDEST POP POP POP POP PUSH1 0x1 PUSH1 0x1 PUSH1 0xA0 SHL SUB DUP5 DUP2 AND PUSH1 0x0 DUP2 DUP2 MSTORE PUSH1 0x2 PUSH1 0x20 SWAP1 DUP2 MSTORE PUSH1 0x40 DUP1 DUP4 KECCAK256 DUP9 DUP5 MSTORE DUP3 MSTORE DUP1 DUP4 KECCAK256 DUP4 SWAP1 SSTORE SWAP3 DUP3 MSTORE PUSH1 0x1 DUP2 MSTORE DUP3 DUP3 KECCAK256 DUP8 DUP4 MSTORE SWAP1 MSTORE KECCAK256 PUSH1 0x5 DUP2 ADD SLOAD PUSH1 0x6 SWAP1 SWAP2 ADD SLOAD PUSH2 0x2311 SWAP3 SWAP2 DUP3 AND SWAP2 AND DUP5 PUSH2 0x2317 JUMP JUMPDEST POP POP POP POP JUMP JUMPDEST PUSH1 0x1 PUSH1 0x1 PUSH1 0xA0 SHL SUB DUP3 AND ISZERO PUSH2 0x2336 JUMPI PUSH2 0x2331 DUP4 DUP4 DUP4 PUSH2 0x251C JUMP JUMPDEST POP POP POP JUMP JUMPDEST PUSH2 0x2331 DUP4 DUP3 PUSH2 0x2663 JUMP JUMPDEST PUSH1 0x40 MLOAD DUP1 PUSH1 0xE0 ADD PUSH1 0x40 MSTORE DUP1 DUP5 DUP2 MSTORE PUSH1 0x20 ADD DUP4 DUP2 MSTORE PUSH1 0x20 ADD DUP3 DUP2 MSTORE PUSH1 0x20 ADD DUP3 DUP2 MSTORE PUSH1 0x20 ADD PUSH1 0x0 PUSH1 0x1 PUSH1 0x1 PUSH1 0xA0 SHL SUB AND DUP2 MSTORE PUSH1 0x20 ADD CALLER PUSH1 0x1 PUSH1 0x1 PUSH1 0xA0 SHL SUB AND DUP2 MSTORE PUSH1 0x20 ADD DUP7 PUSH1 0x1 PUSH1 0x1 PUSH1 0xA0 SHL SUB AND DUP2 MSTORE POP PUSH1 0x1 PUSH1 0x0 DUP9 PUSH1 0x1 PUSH1 0x1 PUSH1 0xA0 SHL SUB AND PUSH1 0x1 PUSH1 0x1 PUSH1 0xA0 SHL SUB AND DUP2 MSTORE PUSH1 0x20 ADD SWAP1 DUP2 MSTORE PUSH1 0x20 ADD PUSH1 0x0 KECCAK256 PUSH1 0x0 DUP7 DUP2 MSTORE PUSH1 0x20 ADD SWAP1 DUP2 MSTORE PUSH1 0x20 ADD PUSH1 0x0 KECCAK256 PUSH1 0x0 DUP3 ADD MLOAD DUP2 PUSH1 0x0 ADD SSTORE PUSH1 0x20 DUP3 ADD MLOAD DUP2 PUSH1 0x1 ADD SSTORE PUSH1 0x40 DUP3 ADD MLOAD DUP2 PUSH1 0x2 ADD SSTORE PUSH1 0x60 DUP3 ADD MLOAD DUP2 PUSH1 0x3 ADD SSTORE PUSH1 0x80 DUP3 ADD MLOAD DUP2 PUSH1 0x4 ADD PUSH1 0x0 PUSH2 0x100 EXP DUP2 SLOAD DUP2 PUSH1 0x1 PUSH1 0x1 PUSH1 0xA0 SHL SUB MUL NOT AND SWAP1 DUP4 PUSH1 0x1 PUSH1 0x1 PUSH1 0xA0 SHL SUB AND MUL OR SWAP1 SSTORE POP PUSH1 0xA0 DUP3 ADD MLOAD DUP2 PUSH1 0x5 ADD PUSH1 0x0 PUSH2 0x100 EXP DUP2 SLOAD DUP2 PUSH1 0x1 PUSH1 0x1 PUSH1 0xA0 SHL SUB MUL NOT AND SWAP1 DUP4 PUSH1 0x1 PUSH1 0x1 PUSH1 0xA0 SHL SUB AND MUL OR SWAP1 SSTORE POP PUSH1 0xC0 DUP3 ADD MLOAD DUP2 PUSH1 0x6 ADD PUSH1 0x0 PUSH2 0x100 EXP DUP2 SLOAD DUP2 PUSH1 0x1 PUSH1 0x1 PUSH1 0xA0 SHL SUB MUL NOT AND SWAP1 DUP4 PUSH1 0x1 PUSH1 0x1 PUSH1 0xA0 SHL SUB AND MUL OR SWAP1 SSTORE POP SWAP1 POP POP PUSH1 0x2 DUP1 PUSH1 0x0 DUP9 PUSH1 0x1 PUSH1 0x1 PUSH1 0xA0 SHL SUB AND PUSH1 0x1 PUSH1 0x1 PUSH1 0xA0 SHL SUB AND DUP2 MSTORE PUSH1 0x20 ADD SWAP1 DUP2 MSTORE PUSH1 0x20 ADD PUSH1 0x0 KECCAK256 PUSH1 0x0 DUP7 DUP2 MSTORE PUSH1 0x20 ADD SWAP1 DUP2 MSTORE PUSH1 0x20 ADD PUSH1 0x0 KECCAK256 DUP2 SWAP1 SSTORE POP DUP6 PUSH1 0x1 PUSH1 0x1 PUSH1 0xA0 SHL SUB AND PUSH4 0x42842E0E CALLER ADDRESS DUP8 PUSH1 0x40 MLOAD DUP5 PUSH4 0xFFFFFFFF AND PUSH1 0xE0 SHL DUP2 MSTORE PUSH1 0x4 ADD PUSH2 0x24E2 SWAP4 SWAP3 SWAP2 SWAP1 PUSH2 0x2957 JUMP JUMPDEST PUSH1 0x0 PUSH1 0x40 MLOAD DUP1 DUP4 SUB DUP2 PUSH1 0x0 DUP8 DUP1 EXTCODESIZE ISZERO DUP1 ISZERO PUSH2 0x24FC JUMPI PUSH1 0x0 DUP1 REVERT JUMPDEST POP GAS CALL ISZERO DUP1 ISZERO PUSH2 0x2510 JUMPI RETURNDATASIZE PUSH1 0x0 DUP1 RETURNDATACOPY RETURNDATASIZE PUSH1 0x0 REVERT JUMPDEST POP POP POP POP POP POP POP POP POP POP JUMP JUMPDEST PUSH1 0x40 MLOAD PUSH4 0x23B872DD PUSH1 0xE0 SHL DUP2 MSTORE PUSH1 0x1 PUSH1 0x1 PUSH1 0xA0 SHL SUB DUP4 AND SWAP1 PUSH4 0x23B872DD SWAP1 PUSH2 0x254C SWAP1 CALLER SWAP1 ADDRESS SWAP1 DUP7 SWAP1 PUSH1 0x4 ADD PUSH2 0x2957 JUMP JUMPDEST PUSH1 0x20 PUSH1 0x40 MLOAD DUP1 DUP4 SUB DUP2 PUSH1 0x0 DUP8 DUP1 EXTCODESIZE ISZERO DUP1 ISZERO PUSH2 0x2566 JUMPI PUSH1 0x0 DUP1 REVERT JUMPDEST POP GAS CALL ISZERO DUP1 ISZERO PUSH2 0x257A JUMPI RETURNDATASIZE PUSH1 0x0 DUP1 RETURNDATACOPY RETURNDATASIZE PUSH1 0x0 REVERT JUMPDEST POP POP POP POP PUSH1 0x40 MLOAD RETURNDATASIZE PUSH1 0x1F NOT PUSH1 0x1F DUP3 ADD AND DUP3 ADD DUP1 PUSH1 0x40 MSTORE POP DUP2 ADD SWAP1 PUSH2 0x259E SWAP2 SWAP1 PUSH2 0x2935 JUMP JUMPDEST PUSH2 0x25E1 JUMPI PUSH1 0x40 MLOAD PUSH3 0x461BCD PUSH1 0xE5 SHL DUP2 MSTORE PUSH1 0x20 PUSH1 0x4 DUP3 ADD MSTORE PUSH1 0x14 PUSH1 0x24 DUP3 ADD MSTORE PUSH20 0xC2D8D8DEEEC2DCC6CA40DCDEE840CADCDEEACED PUSH1 0x63 SHL PUSH1 0x44 DUP3 ADD MSTORE PUSH1 0x64 ADD PUSH2 0x5D6 JUMP JUMPDEST PUSH1 0x40 MLOAD PUSH4 0xA9059CBB PUSH1 0xE0 SHL DUP2 MSTORE PUSH1 0x1 PUSH1 0x1 PUSH1 0xA0 SHL SUB DUP5 DUP2 AND PUSH1 0x4 DUP4 ADD MSTORE PUSH1 0x24 DUP3 ADD DUP4 SWAP1 MSTORE DUP4 AND SWAP1 PUSH4 0xA9059CBB SWAP1 PUSH1 0x44 ADD PUSH1 0x20 PUSH1 0x40 MLOAD DUP1 DUP4 SUB DUP2 PUSH1 0x0 DUP8 DUP1 EXTCODESIZE ISZERO DUP1 ISZERO PUSH2 0x262B JUMPI PUSH1 0x0 DUP1 REVERT JUMPDEST POP GAS CALL ISZERO DUP1 ISZERO PUSH2 0x263F JUMPI RETURNDATASIZE PUSH1 0x0 DUP1 RETURNDATACOPY RETURNDATASIZE PUSH1 0x0 REVERT JUMPDEST POP POP POP POP PUSH1 0x40 MLOAD RETURNDATASIZE PUSH1 0x1F NOT PUSH1 0x1F DUP3 ADD AND DUP3 ADD DUP1 PUSH1 0x40 MSTORE POP DUP2 ADD SWAP1 PUSH2 0x2311 SWAP2 SWAP1 PUSH2 0x2935 JUMP JUMPDEST PUSH1 0x0 DUP3 PUSH1 0x1 PUSH1 0x1 PUSH1 0xA0 SHL SUB AND DUP3 PUSH1 0x40 MLOAD PUSH1 0x0 PUSH1 0x40 MLOAD DUP1 DUP4 SUB DUP2 DUP6 DUP8 GAS CALL SWAP3 POP POP POP RETURNDATASIZE DUP1 PUSH1 0x0 DUP2 EQ PUSH2 0x26B0 JUMPI PUSH1 0x40 MLOAD SWAP2 POP PUSH1 0x1F NOT PUSH1 0x3F RETURNDATASIZE ADD AND DUP3 ADD PUSH1 0x40 MSTORE RETURNDATASIZE DUP3 MSTORE RETURNDATASIZE PUSH1 0x0 PUSH1 0x20 DUP5 ADD RETURNDATACOPY PUSH2 0x26B5 JUMP JUMPDEST PUSH1 0x60 SWAP2 POP JUMPDEST POP POP SWAP1 POP DUP1 PUSH2 0x2331 JUMPI PUSH1 0x40 MLOAD PUSH3 0x461BCD PUSH1 0xE5 SHL DUP2 MSTORE PUSH1 0x20 PUSH1 0x4 DUP3 ADD MSTORE PUSH1 0xD PUSH1 0x24 DUP3 ADD MSTORE PUSH13 0x1C99599D5B990819985A5B1959 PUSH1 0x9A SHL PUSH1 0x44 DUP3 ADD MSTORE PUSH1 0x64 ADD PUSH2 0x5D6 JUMP JUMPDEST PUSH1 0x0 PUSH1 0x20 DUP3 DUP5 SUB SLT ISZERO PUSH2 0x2708 JUMPI PUSH1 0x0 DUP1 REVERT JUMPDEST DUP2 MLOAD PUSH2 0x2257 DUP2 PUSH2 0x2B2B JUMP JUMPDEST PUSH1 0x0 DUP1 PUSH1 0x0 PUSH1 0x60 DUP5 DUP7 SUB SLT ISZERO PUSH2 0x2728 JUMPI PUSH1 0x0 DUP1 REVERT JUMPDEST DUP4 CALLDATALOAD PUSH2 0x2733 DUP2 PUSH2 0x2B2B JUMP JUMPDEST SWAP3 POP PUSH1 0x20 DUP5 ADD CALLDATALOAD PUSH2 0x2743 DUP2 PUSH2 0x2B2B JUMP JUMPDEST SWAP3 SWAP6 SWAP3 SWAP5 POP POP POP PUSH1 0x40 SWAP2 SWAP1 SWAP2 ADD CALLDATALOAD SWAP1 JUMP JUMPDEST PUSH1 0x0 DUP1 PUSH1 0x0 DUP1 PUSH1 0x0 PUSH1 0x80 DUP7 DUP9 SUB SLT ISZERO PUSH2 0x276C JUMPI PUSH1 0x0 DUP1 REVERT JUMPDEST DUP6 CALLDATALOAD PUSH2 0x2777 DUP2 PUSH2 0x2B2B JUMP JUMPDEST SWAP5 POP PUSH1 0x20 DUP7 ADD CALLDATALOAD PUSH2 0x2787 DUP2 PUSH2 0x2B2B JUMP JUMPDEST SWAP4 POP PUSH1 0x40 DUP7 ADD CALLDATALOAD SWAP3 POP PUSH1 0x60 DUP7 ADD CALLDATALOAD PUSH8 0xFFFFFFFFFFFFFFFF DUP1 DUP3 GT ISZERO PUSH2 0x27AB JUMPI PUSH1 0x0 DUP1 REVERT JUMPDEST DUP2 DUP9 ADD SWAP2 POP DUP9 PUSH1 0x1F DUP4 ADD SLT PUSH2 0x27BF JUMPI PUSH1 0x0 DUP1 REVERT JUMPDEST DUP2 CALLDATALOAD DUP2 DUP2 GT ISZERO PUSH2 0x27CE JUMPI PUSH1 0x0 DUP1 REVERT JUMPDEST DUP10 PUSH1 0x20 DUP3 DUP6 ADD ADD GT ISZERO PUSH2 0x27E0 JUMPI PUSH1 0x0 DUP1 REVERT JUMPDEST SWAP7 SWAP10 SWAP6 SWAP9 POP SWAP4 SWAP7 POP PUSH1 0x20 ADD SWAP5 SWAP4 SWAP3 POP POP POP JUMP JUMPDEST PUSH1 0x0 DUP1 PUSH1 0x0 DUP1 PUSH1 0x80 DUP6 DUP8 SUB SLT ISZERO PUSH2 0x2809 JUMPI PUSH1 0x0 DUP1 REVERT JUMPDEST DUP5 CALLDATALOAD PUSH2 0x2814 DUP2 PUSH2 0x2B2B JUMP JUMPDEST SWAP4 POP PUSH1 0x20 DUP6 ADD CALLDATALOAD PUSH2 0x2824 DUP2 PUSH2 0x2B2B JUMP JUMPDEST SWAP4 SWAP7 SWAP4 SWAP6 POP POP POP POP PUSH1 0x40 DUP3 ADD CALLDATALOAD SWAP2 PUSH1 0x60 ADD CALLDATALOAD SWAP1 JUMP JUMPDEST PUSH1 0x0 DUP1 PUSH1 0x0 DUP1 PUSH1 0x0 DUP1 PUSH1 0xC0 DUP8 DUP10 SUB SLT ISZERO PUSH2 0x2852 JUMPI PUSH1 0x0 DUP1 REVERT JUMPDEST DUP7 CALLDATALOAD PUSH2 0x285D DUP2 PUSH2 0x2B2B JUMP JUMPDEST SWAP6 POP PUSH1 0x20 DUP8 ADD CALLDATALOAD PUSH2 0x286D DUP2 PUSH2 0x2B2B JUMP JUMPDEST SWAP6 SWAP9 SWAP6 SWAP8 POP POP POP POP PUSH1 0x40 DUP5 ADD CALLDATALOAD SWAP4 PUSH1 0x60 DUP2 ADD CALLDATALOAD SWAP4 PUSH1 0x80 DUP3 ADD CALLDATALOAD SWAP4 POP PUSH1 0xA0 SWAP1 SWAP2 ADD CALLDATALOAD SWAP2 POP JUMP JUMPDEST PUSH1 0x0 DUP1 PUSH1 0x40 DUP4 DUP6 SUB SLT ISZERO PUSH2 0x28A5 JUMPI PUSH1 0x0 DUP1 REVERT JUMPDEST DUP3 CALLDATALOAD PUSH2 0x28B0 DUP2 PUSH2 0x2B2B JUMP JUMPDEST SWAP5 PUSH1 0x20 SWAP4 SWAP1 SWAP4 ADD CALLDATALOAD SWAP4 POP POP POP JUMP JUMPDEST PUSH1 0x0 DUP1 PUSH1 0x0 PUSH1 0x60 DUP5 DUP7 SUB SLT ISZERO PUSH2 0x28D3 JUMPI PUSH1 0x0 DUP1 REVERT JUMPDEST DUP4 CALLDATALOAD PUSH2 0x28DE DUP2 PUSH2 0x2B2B JUMP JUMPDEST SWAP3 POP PUSH1 0x20 DUP5 ADD CALLDATALOAD SWAP2 POP PUSH1 0x40 DUP5 ADD CALLDATALOAD PUSH2 0x28F5 DUP2 PUSH2 0x2B2B JUMP JUMPDEST DUP1 SWAP2 POP POP SWAP3 POP SWAP3 POP SWAP3 JUMP JUMPDEST PUSH1 0x0 DUP1 PUSH1 0x0 PUSH1 0x60 DUP5 DUP7 SUB SLT ISZERO PUSH2 0x2915 JUMPI PUSH1 0x0 DUP1 REVERT JUMPDEST DUP4 CALLDATALOAD PUSH2 0x2920 DUP2 PUSH2 0x2B2B JUMP JUMPDEST SWAP6 PUSH1 0x20 DUP6 ADD CALLDATALOAD SWAP6 POP PUSH1 0x40 SWAP1 SWAP5 ADD CALLDATALOAD SWAP4 SWAP3 POP POP POP JUMP JUMPDEST PUSH1 0x0 PUSH1 0x20 DUP3 DUP5 SUB SLT ISZERO PUSH2 0x2947 JUMPI PUSH1 0x0 DUP1 REVERT JUMPDEST DUP2 MLOAD DUP1 ISZERO ISZERO DUP2 EQ PUSH2 0x2257 JUMPI PUSH1 0x0 DUP1 REVERT JUMPDEST PUSH1 0x1 PUSH1 0x1 PUSH1 0xA0 SHL SUB SWAP4 DUP5 AND DUP2 MSTORE SWAP2 SWAP1 SWAP3 AND PUSH1 0x20 DUP3 ADD MSTORE PUSH1 0x40 DUP2 ADD SWAP2 SWAP1 SWAP2 MSTORE PUSH1 0x60 ADD SWAP1 JUMP JUMPDEST PUSH1 0x20 DUP1 DUP3 MSTORE DUP3 MLOAD DUP3 DUP3 ADD DUP2 SWAP1 MSTORE PUSH1 0x0 SWAP2 SWAP1 PUSH1 0x40 SWAP1 DUP2 DUP6 ADD SWAP1 DUP7 DUP5 ADD DUP6 JUMPDEST DUP3 DUP2 LT ISZERO PUSH2 0x29C6 JUMPI DUP2 MLOAD DUP1 MLOAD PUSH1 0x1 PUSH1 0x1 PUSH1 0xA0 SHL SUB AND DUP6 MSTORE DUP7 ADD MLOAD DUP7 DUP6 ADD MSTORE SWAP3 DUP5 ADD SWAP3 SWAP1 DUP6 ADD SWAP1 PUSH1 0x1 ADD PUSH2 0x2998 JUMP JUMPDEST POP SWAP2 SWAP8 SWAP7 POP POP POP POP POP POP POP JUMP JUMPDEST PUSH1 0x20 DUP1 DUP3 MSTORE PUSH1 0x11 SWAP1 DUP3 ADD MSTORE PUSH17 0x50726963652063616E6E6F74206265203 PUSH1 0x7C SHL PUSH1 0x40 DUP3 ADD MSTORE PUSH1 0x60 ADD SWAP1 JUMP JUMPDEST PUSH1 0x20 DUP1 DUP3 MSTORE PUSH1 0x15 SWAP1 DUP3 ADD MSTORE PUSH21 0x4E6674206E6F7420696E2066697865642073616C65 PUSH1 0x58 SHL PUSH1 0x40 DUP3 ADD MSTORE PUSH1 0x60 ADD SWAP1 JUMP JUMPDEST PUSH1 0x20 DUP1 DUP3 MSTORE PUSH1 0x17 SWAP1 DUP3 ADD MSTORE PUSH32 0x4E6674206E6F7420696E2061756374696F6E2073616C65000000000000000000 PUSH1 0x40 DUP3 ADD MSTORE PUSH1 0x60 ADD SWAP1 JUMP JUMPDEST PUSH1 0x20 DUP1 DUP3 MSTORE PUSH1 0x1D SWAP1 DUP3 ADD MSTORE PUSH32 0x4269642047726561746572207468616E2050726576696F757320426964000000 PUSH1 0x40 DUP3 ADD MSTORE PUSH1 0x60 ADD SWAP1 JUMP JUMPDEST PUSH1 0x20 DUP1 DUP3 MSTORE PUSH1 0xB SWAP1 DUP3 ADD MSTORE PUSH11 0x105D58DD1A5BDB88195B99 PUSH1 0xAA SHL PUSH1 0x40 DUP3 ADD MSTORE PUSH1 0x60 ADD SWAP1 JUMP JUMPDEST PUSH1 0x20 DUP1 DUP3 MSTORE PUSH1 0x15 SWAP1 DUP3 ADD MSTORE PUSH21 0x2CB7BA9030B932903737BA1037333A1037BBB732B9 PUSH1 0x59 SHL PUSH1 0x40 DUP3 ADD MSTORE PUSH1 0x60 ADD SWAP1 JUMP JUMPDEST PUSH1 0x0 DUP3 NOT DUP3 GT ISZERO PUSH2 0x2B10 JUMPI PUSH4 0x4E487B71 PUSH1 0xE0 SHL PUSH1 0x0 MSTORE PUSH1 0x11 PUSH1 0x4 MSTORE PUSH1 0x24 PUSH1 0x0 REVERT JUMPDEST POP ADD SWAP1 JUMP JUMPDEST PUSH4 0x4E487B71 PUSH1 0xE0 SHL PUSH1 0x0 MSTORE PUSH1 0x32 PUSH1 0x4 MSTORE PUSH1 0x24 PUSH1 0x0 REVERT JUMPDEST PUSH1 0x1 PUSH1 0x1 PUSH1 0xA0 SHL SUB DUP2 AND DUP2 EQ PUSH2 0x2B40 JUMPI PUSH1 0x0 DUP1 REVERT JUMPDEST POP JUMP INVALID LOG2 PUSH5 0x6970667358 0x22 SLT KECCAK256 SLT ORIGIN 0x22 CREATE2 0xED 0xB3 0xC4 BYTE PUSH18 0x4939D5CEBCB43BB641A4CE084554C51DEB48 0x2F CALLCODE MSIZE ISZERO 0x22 PUSH5 0x736F6C6343 STOP ADDMOD SMOD STOP CALLER "
				},
				"gasEstimates": {
					"creation": {
						"codeDepositCost": "2225800",
						"executionCost": "2375",
						"totalCost": "2228175"
					},
					"external": {
						"Sell_AreveaToken(address,address,uint256)": "infinite",
						"_cancelAuctionSale(address,uint256)": "infinite",
						"buyAreveaToken(address,address,uint256)": "infinite",
						"buyFromFixedSale(address,uint256,uint256)": "infinite",
						"cancelFixedsale(address,uint256)": "infinite",
						"createNftAuctionSale(address,address,uint256,uint256,uint256,uint256)": "infinite",
						"getAuctionSaleNFT()": "infinite",
						"getFixedSale(address,uint256)": "9342",
						"getFixedSaleNFT()": "infinite",
						"getNftAuctionSaleDetails(address,uint256)": "15967",
						"makeBid(address,uint256,uint256)": "infinite",
						"nftFixedSale(address,address,uint256,uint256)": "infinite",
						"nftSaleStatus(address,uint256)": "2717",
						"onERC721Received(address,address,uint256,bytes)": "infinite",
						"settleAuction(address,uint256)": "infinite",
						"updateFixedSalePrice(address,uint256,uint256)": "28893",
						"updateTheBidPrice(address,uint256,uint256)": "infinite",
						"userBidPriceOnNFT(address,uint256,address)": "infinite",
						"withdrawBid(address,uint256)": "14166"
					},
					"internal": {
						"_bidAmountTransfer(uint256,address)": "infinite",
						"_isTokenOrCoin(address,address,uint256)": "infinite",
						"_nativeAmountTransfer(address,uint256)": "infinite",
						"_storedNftAuctionDetails(address,address,uint256,uint256,uint256,uint256)": "infinite",
						"_tokenAmountTransfer(address,address,uint256)": "infinite",
						"_transferNftAndPaySeller(address,uint256,uint256,address)": "infinite"
					}
				},
				"methodIdentifiers": {
					"Sell_AreveaToken(address,address,uint256)": "7ad47a21",
					"_cancelAuctionSale(address,uint256)": "842bc46a",
					"buyAreveaToken(address,address,uint256)": "00e2097c",
					"buyFromFixedSale(address,uint256,uint256)": "baf4371e",
					"cancelFixedsale(address,uint256)": "d3a6a6c9",
					"createNftAuctionSale(address,address,uint256,uint256,uint256,uint256)": "cf42b7e6",
					"getAuctionSaleNFT()": "1e7a044f",
					"getFixedSale(address,uint256)": "8c3417da",
					"getFixedSaleNFT()": "9f085a00",
					"getNftAuctionSaleDetails(address,uint256)": "6f8c9b1b",
					"makeBid(address,uint256,uint256)": "1bdae6f1",
					"nftFixedSale(address,address,uint256,uint256)": "69a6d12e",
					"nftSaleStatus(address,uint256)": "6916462f",
					"onERC721Received(address,address,uint256,bytes)": "150b7a02",
					"settleAuction(address,uint256)": "5138b08c",
					"updateFixedSalePrice(address,uint256,uint256)": "4676adca",
					"updateTheBidPrice(address,uint256,uint256)": "3a713db8",
					"userBidPriceOnNFT(address,uint256,address)": "6fe02f24",
					"withdrawBid(address,uint256)": "4cb8ef5b"
				}
			},
			"storageLayout": {
				"storage": [
					{
						"astId": 581,
						"contract": "NFT-Contracts/new/finalMarket_single.sol:NFTSingleMarketplace",
						"label": "nftContractFixedSale",
						"offset": 0,
						"slot": "0",
						"type": "t_mapping(t_address,t_mapping(t_uint256,t_struct(FixedSale)569_storage))"
					},
					{
						"astId": 588,
						"contract": "NFT-Contracts/new/finalMarket_single.sol:NFTSingleMarketplace",
						"label": "nftContractAuctionSale",
						"offset": 0,
						"slot": "1",
						"type": "t_mapping(t_address,t_mapping(t_uint256,t_struct(Auction)560_storage))"
					},
					{
						"astId": 594,
						"contract": "NFT-Contracts/new/finalMarket_single.sol:NFTSingleMarketplace",
						"label": "nftSaleStatus",
						"offset": 0,
						"slot": "2",
						"type": "t_mapping(t_address,t_mapping(t_uint256,t_uint256))"
					},
					{
						"astId": 602,
						"contract": "NFT-Contracts/new/finalMarket_single.sol:NFTSingleMarketplace",
						"label": "userBidPriceOnNFT",
						"offset": 0,
						"slot": "3",
						"type": "t_mapping(t_address,t_mapping(t_uint256,t_mapping(t_address,t_uint256)))"
					},
					{
						"astId": 608,
						"contract": "NFT-Contracts/new/finalMarket_single.sol:NFTSingleMarketplace",
						"label": "indexFixedSaleNFT",
						"offset": 0,
						"slot": "4",
						"type": "t_mapping(t_address,t_mapping(t_uint256,t_uint256))"
					},
					{
						"astId": 614,
						"contract": "NFT-Contracts/new/finalMarket_single.sol:NFTSingleMarketplace",
						"label": "indexAuctionSaleNFT",
						"offset": 0,
						"slot": "5",
						"type": "t_mapping(t_address,t_mapping(t_uint256,t_uint256))"
					},
					{
						"astId": 618,
						"contract": "NFT-Contracts/new/finalMarket_single.sol:NFTSingleMarketplace",
						"label": "fixedSaleNFT",
						"offset": 0,
						"slot": "6",
						"type": "t_array(t_struct(SaleInfo)574_storage)dyn_storage"
					},
					{
						"astId": 622,
						"contract": "NFT-Contracts/new/finalMarket_single.sol:NFTSingleMarketplace",
						"label": "auctionSaleNFT",
						"offset": 0,
						"slot": "7",
						"type": "t_array(t_struct(SaleInfo)574_storage)dyn_storage"
					}
				],
				"types": {
					"t_address": {
						"encoding": "inplace",
						"label": "address",
						"numberOfBytes": "20"
					},
					"t_array(t_struct(SaleInfo)574_storage)dyn_storage": {
						"base": "t_struct(SaleInfo)574_storage",
						"encoding": "dynamic_array",
						"label": "struct NFTSingleMarketplace.SaleInfo[]",
						"numberOfBytes": "32"
					},
					"t_mapping(t_address,t_mapping(t_uint256,t_mapping(t_address,t_uint256)))": {
						"encoding": "mapping",
						"key": "t_address",
						"label": "mapping(address => mapping(uint256 => mapping(address => uint256)))",
						"numberOfBytes": "32",
						"value": "t_mapping(t_uint256,t_mapping(t_address,t_uint256))"
					},
					"t_mapping(t_address,t_mapping(t_uint256,t_struct(Auction)560_storage))": {
						"encoding": "mapping",
						"key": "t_address",
						"label": "mapping(address => mapping(uint256 => struct NFTSingleMarketplace.Auction))",
						"numberOfBytes": "32",
						"value": "t_mapping(t_uint256,t_struct(Auction)560_storage)"
					},
					"t_mapping(t_address,t_mapping(t_uint256,t_struct(FixedSale)569_storage))": {
						"encoding": "mapping",
						"key": "t_address",
						"label": "mapping(address => mapping(uint256 => struct NFTSingleMarketplace.FixedSale))",
						"numberOfBytes": "32",
						"value": "t_mapping(t_uint256,t_struct(FixedSale)569_storage)"
					},
					"t_mapping(t_address,t_mapping(t_uint256,t_uint256))": {
						"encoding": "mapping",
						"key": "t_address",
						"label": "mapping(address => mapping(uint256 => uint256))",
						"numberOfBytes": "32",
						"value": "t_mapping(t_uint256,t_uint256)"
					},
					"t_mapping(t_address,t_uint256)": {
						"encoding": "mapping",
						"key": "t_address",
						"label": "mapping(address => uint256)",
						"numberOfBytes": "32",
						"value": "t_uint256"
					},
					"t_mapping(t_uint256,t_mapping(t_address,t_uint256))": {
						"encoding": "mapping",
						"key": "t_uint256",
						"label": "mapping(uint256 => mapping(address => uint256))",
						"numberOfBytes": "32",
						"value": "t_mapping(t_address,t_uint256)"
					},
					"t_mapping(t_uint256,t_struct(Auction)560_storage)": {
						"encoding": "mapping",
						"key": "t_uint256",
						"label": "mapping(uint256 => struct NFTSingleMarketplace.Auction)",
						"numberOfBytes": "32",
						"value": "t_struct(Auction)560_storage"
					},
					"t_mapping(t_uint256,t_struct(FixedSale)569_storage)": {
						"encoding": "mapping",
						"key": "t_uint256",
						"label": "mapping(uint256 => struct NFTSingleMarketplace.FixedSale)",
						"numberOfBytes": "32",
						"value": "t_struct(FixedSale)569_storage"
					},
					"t_mapping(t_uint256,t_uint256)": {
						"encoding": "mapping",
						"key": "t_uint256",
						"label": "mapping(uint256 => uint256)",
						"numberOfBytes": "32",
						"value": "t_uint256"
					},
					"t_struct(Auction)560_storage": {
						"encoding": "inplace",
						"label": "struct NFTSingleMarketplace.Auction",
						"members": [
							{
								"astId": 547,
								"contract": "NFT-Contracts/new/finalMarket_single.sol:NFTSingleMarketplace",
								"label": "auctionStart",
								"offset": 0,
								"slot": "0",
								"type": "t_uint256"
							},
							{
								"astId": 549,
								"contract": "NFT-Contracts/new/finalMarket_single.sol:NFTSingleMarketplace",
								"label": "auctionEnd",
								"offset": 0,
								"slot": "1",
								"type": "t_uint256"
							},
							{
								"astId": 551,
								"contract": "NFT-Contracts/new/finalMarket_single.sol:NFTSingleMarketplace",
								"label": "minPrice",
								"offset": 0,
								"slot": "2",
								"type": "t_uint256"
							},
							{
								"astId": 553,
								"contract": "NFT-Contracts/new/finalMarket_single.sol:NFTSingleMarketplace",
								"label": "nftHighestBid",
								"offset": 0,
								"slot": "3",
								"type": "t_uint256"
							},
							{
								"astId": 555,
								"contract": "NFT-Contracts/new/finalMarket_single.sol:NFTSingleMarketplace",
								"label": "nftHighestBidder",
								"offset": 0,
								"slot": "4",
								"type": "t_address"
							},
							{
								"astId": 557,
								"contract": "NFT-Contracts/new/finalMarket_single.sol:NFTSingleMarketplace",
								"label": "nftSeller",
								"offset": 0,
								"slot": "5",
								"type": "t_address"
							},
							{
								"astId": 559,
								"contract": "NFT-Contracts/new/finalMarket_single.sol:NFTSingleMarketplace",
								"label": "erc20",
								"offset": 0,
								"slot": "6",
								"type": "t_address"
							}
						],
						"numberOfBytes": "224"
					},
					"t_struct(FixedSale)569_storage": {
						"encoding": "inplace",
						"label": "struct NFTSingleMarketplace.FixedSale",
						"members": [
							{
								"astId": 562,
								"contract": "NFT-Contracts/new/finalMarket_single.sol:NFTSingleMarketplace",
								"label": "nftSeller",
								"offset": 0,
								"slot": "0",
								"type": "t_address"
							},
							{
								"astId": 564,
								"contract": "NFT-Contracts/new/finalMarket_single.sol:NFTSingleMarketplace",
								"label": "nftBuyer",
								"offset": 0,
								"slot": "1",
								"type": "t_address"
							},
							{
								"astId": 566,
								"contract": "NFT-Contracts/new/finalMarket_single.sol:NFTSingleMarketplace",
								"label": "erc20",
								"offset": 0,
								"slot": "2",
								"type": "t_address"
							},
							{
								"astId": 568,
								"contract": "NFT-Contracts/new/finalMarket_single.sol:NFTSingleMarketplace",
								"label": "salePrice",
								"offset": 0,
								"slot": "3",
								"type": "t_uint256"
							}
						],
						"numberOfBytes": "128"
					},
					"t_struct(SaleInfo)574_storage": {
						"encoding": "inplace",
						"label": "struct NFTSingleMarketplace.SaleInfo",
						"members": [
							{
								"astId": 571,
								"contract": "NFT-Contracts/new/finalMarket_single.sol:NFTSingleMarketplace",
								"label": "_nftContractAddress",
								"offset": 0,
								"slot": "0",
								"type": "t_address"
							},
							{
								"astId": 573,
								"contract": "NFT-Contracts/new/finalMarket_single.sol:NFTSingleMarketplace",
								"label": "_tokenID",
								"offset": 0,
								"slot": "1",
								"type": "t_uint256"
							}
						],
						"numberOfBytes": "64"
					},
					"t_uint256": {
						"encoding": "inplace",
						"label": "uint256",
						"numberOfBytes": "32"
					}
				}
			},
			"userdoc": {
				"kind": "user",
				"methods": {},
				"version": 1
			}
		}
	}
}