{
	"NFT-Contracts/new/final_market_Multi_nft.sol": {
		"NFTMultiMarketplace": {
			"abi": [
				{
					"anonymous": false,
					"inputs": [
						{
							"indexed": false,
							"internalType": "address",
							"name": "nftContractAddress",
							"type": "address"
						},
						{
							"indexed": false,
							"internalType": "uint256",
							"name": "tokenId",
							"type": "uint256"
						},
						{
							"indexed": false,
							"internalType": "address",
							"name": "nftSeller",
							"type": "address"
						}
					],
					"name": "CancelNftAuctionSale",
					"type": "event"
				},
				{
					"anonymous": false,
					"inputs": [
						{
							"indexed": false,
							"internalType": "address",
							"name": "nftContractAddress",
							"type": "address"
						},
						{
							"indexed": false,
							"internalType": "address",
							"name": "nftSeller",
							"type": "address"
						},
						{
							"indexed": false,
							"internalType": "uint256",
							"name": "tokenId",
							"type": "uint256"
						}
					],
					"name": "CancelNftFixedSale",
					"type": "event"
				},
				{
					"anonymous": false,
					"inputs": [
						{
							"indexed": false,
							"internalType": "address",
							"name": "nftContractAddress",
							"type": "address"
						},
						{
							"indexed": false,
							"internalType": "uint256",
							"name": "tokenId",
							"type": "uint256"
						},
						{
							"indexed": false,
							"internalType": "uint256",
							"name": "finalBidPrice",
							"type": "uint256"
						},
						{
							"indexed": false,
							"internalType": "address",
							"name": "nftBidder",
							"type": "address"
						}
					],
					"name": "NftAuctionBidPriceUpdate",
					"type": "event"
				},
				{
					"anonymous": false,
					"inputs": [
						{
							"indexed": false,
							"internalType": "address",
							"name": "nftContractAddress",
							"type": "address"
						},
						{
							"indexed": false,
							"internalType": "address",
							"name": "nftSeller",
							"type": "address"
						},
						{
							"indexed": false,
							"internalType": "address",
							"name": "erc20",
							"type": "address"
						},
						{
							"indexed": false,
							"internalType": "uint256",
							"name": "tokenId",
							"type": "uint256"
						},
						{
							"indexed": false,
							"internalType": "uint256",
							"name": "auctionStart",
							"type": "uint256"
						},
						{
							"indexed": false,
							"internalType": "uint256",
							"name": "auctionEnd",
							"type": "uint256"
						},
						{
							"indexed": false,
							"internalType": "uint256",
							"name": "minPrice",
							"type": "uint256"
						}
					],
					"name": "NftAuctionSale",
					"type": "event"
				},
				{
					"anonymous": false,
					"inputs": [
						{
							"indexed": false,
							"internalType": "address",
							"name": "nftContractAddress",
							"type": "address"
						},
						{
							"indexed": false,
							"internalType": "uint256",
							"name": "tokenId",
							"type": "uint256"
						},
						{
							"indexed": false,
							"internalType": "address",
							"name": "nftHighestBidder",
							"type": "address"
						},
						{
							"indexed": false,
							"internalType": "uint256",
							"name": "nftHighestBid",
							"type": "uint256"
						},
						{
							"indexed": false,
							"internalType": "address",
							"name": "nftSeller",
							"type": "address"
						}
					],
					"name": "NftAuctionSettle",
					"type": "event"
				},
				{
					"anonymous": false,
					"inputs": [
						{
							"indexed": false,
							"internalType": "address",
							"name": "nftContractAddress",
							"type": "address"
						},
						{
							"indexed": false,
							"internalType": "uint256",
							"name": "tokenId",
							"type": "uint256"
						},
						{
							"indexed": false,
							"internalType": "uint256",
							"name": "bidPrice",
							"type": "uint256"
						},
						{
							"indexed": false,
							"internalType": "address",
							"name": "nftBidder",
							"type": "address"
						}
					],
					"name": "NftBidPrice",
					"type": "event"
				},
				{
					"anonymous": false,
					"inputs": [
						{
							"indexed": false,
							"internalType": "address",
							"name": "nftContractAddress",
							"type": "address"
						},
						{
							"indexed": false,
							"internalType": "address",
							"name": "nftBuyer",
							"type": "address"
						},
						{
							"indexed": false,
							"internalType": "uint256",
							"name": "amount",
							"type": "uint256"
						},
						{
							"indexed": false,
							"internalType": "uint256",
							"name": "tokenId",
							"type": "uint256"
						},
						{
							"indexed": false,
							"internalType": "uint256",
							"name": "nftBuyPrice",
							"type": "uint256"
						}
					],
					"name": "NftBuyFromFixedSale",
					"type": "event"
				},
				{
					"anonymous": false,
					"inputs": [
						{
							"indexed": false,
							"internalType": "address",
							"name": "nftContractAddress",
							"type": "address"
						},
						{
							"indexed": false,
							"internalType": "uint256",
							"name": "tokenId",
							"type": "uint256"
						},
						{
							"indexed": false,
							"internalType": "uint256",
							"name": "updateBuyNowPrice",
							"type": "uint256"
						},
						{
							"indexed": false,
							"internalType": "address",
							"name": "nftOwner",
							"type": "address"
						}
					],
					"name": "NftBuyNowPriceUpdate",
					"type": "event"
				},
				{
					"anonymous": false,
					"inputs": [
						{
							"indexed": false,
							"internalType": "address",
							"name": "nftContractAddress",
							"type": "address"
						},
						{
							"indexed": false,
							"internalType": "address",
							"name": "nftSeller",
							"type": "address"
						},
						{
							"indexed": false,
							"internalType": "address",
							"name": "erc20",
							"type": "address"
						},
						{
							"indexed": false,
							"internalType": "uint256",
							"name": "amount",
							"type": "uint256"
						},
						{
							"indexed": false,
							"internalType": "uint256",
							"name": "tokenId",
							"type": "uint256"
						},
						{
							"indexed": false,
							"internalType": "uint256",
							"name": "salePrice",
							"type": "uint256"
						},
						{
							"indexed": false,
							"internalType": "uint256",
							"name": "timeOfSale",
							"type": "uint256"
						}
					],
					"name": "NftFixedSale",
					"type": "event"
				},
				{
					"anonymous": false,
					"inputs": [
						{
							"indexed": false,
							"internalType": "address",
							"name": "nftContractAddress",
							"type": "address"
						},
						{
							"indexed": false,
							"internalType": "uint256",
							"name": "tokenId",
							"type": "uint256"
						},
						{
							"indexed": false,
							"internalType": "uint256",
							"name": "updateSalePrice",
							"type": "uint256"
						}
					],
					"name": "NftFixedSalePriceUpdated",
					"type": "event"
				},
				{
					"anonymous": false,
					"inputs": [
						{
							"indexed": false,
							"internalType": "address",
							"name": "nftContractAddress",
							"type": "address"
						},
						{
							"indexed": false,
							"internalType": "uint256",
							"name": "tokenId",
							"type": "uint256"
						},
						{
							"indexed": false,
							"internalType": "address",
							"name": "bidClaimer",
							"type": "address"
						}
					],
					"name": "withdrawNftBid",
					"type": "event"
				},
				{
					"inputs": [],
					"name": "IID_IERC1155",
					"outputs": [
						{
							"internalType": "bytes4",
							"name": "",
							"type": "bytes4"
						}
					],
					"stateMutability": "view",
					"type": "function"
				},
				{
					"inputs": [
						{
							"internalType": "address",
							"name": "_erc20_contract",
							"type": "address"
						},
						{
							"internalType": "address",
							"name": "seller",
							"type": "address"
						},
						{
							"internalType": "uint256",
							"name": "_amount",
							"type": "uint256"
						}
					],
					"name": "Sell_AreveaToken",
					"outputs": [
						{
							"internalType": "bool",
							"name": "",
							"type": "bool"
						}
					],
					"stateMutability": "nonpayable",
					"type": "function"
				},
				{
					"inputs": [
						{
							"internalType": "address",
							"name": "_nftContractAddress",
							"type": "address"
						},
						{
							"internalType": "uint256",
							"name": "_tokenId",
							"type": "uint256"
						}
					],
					"name": "_cancelAuctionSale",
					"outputs": [],
					"stateMutability": "nonpayable",
					"type": "function"
				},
				{
					"inputs": [
						{
							"internalType": "address",
							"name": "_erc20_contract",
							"type": "address"
						},
						{
							"internalType": "address",
							"name": "_buyer",
							"type": "address"
						},
						{
							"internalType": "uint256",
							"name": "_amount",
							"type": "uint256"
						}
					],
					"name": "buyAreveaToken",
					"outputs": [
						{
							"internalType": "bool",
							"name": "",
							"type": "bool"
						}
					],
					"stateMutability": "nonpayable",
					"type": "function"
				},
				{
					"inputs": [
						{
							"internalType": "address",
							"name": "_nftContractAddress",
							"type": "address"
						},
						{
							"internalType": "uint256",
							"name": "_tokenId",
							"type": "uint256"
						},
						{
							"internalType": "uint256",
							"name": "_amount",
							"type": "uint256"
						},
						{
							"internalType": "uint256",
							"name": "_nftAmount",
							"type": "uint256"
						},
						{
							"internalType": "bytes",
							"name": "_data",
							"type": "bytes"
						}
					],
					"name": "buyFromFixedSale",
					"outputs": [],
					"stateMutability": "payable",
					"type": "function"
				},
				{
					"inputs": [
						{
							"internalType": "address",
							"name": "_nftContractAddress",
							"type": "address"
						},
						{
							"internalType": "uint256",
							"name": "_tokenId",
							"type": "uint256"
						},
						{
							"internalType": "uint256",
							"name": "_amount",
							"type": "uint256"
						},
						{
							"internalType": "bytes",
							"name": "_data",
							"type": "bytes"
						}
					],
					"name": "cancelFixedsale",
					"outputs": [],
					"stateMutability": "nonpayable",
					"type": "function"
				},
				{
					"inputs": [
						{
							"internalType": "address",
							"name": "_nftContractAddress",
							"type": "address"
						},
						{
							"internalType": "address",
							"name": "_erc20",
							"type": "address"
						},
						{
							"internalType": "uint256",
							"name": "_tokenId",
							"type": "uint256"
						},
						{
							"internalType": "uint256",
							"name": "_auctionStart",
							"type": "uint256"
						},
						{
							"internalType": "uint256",
							"name": "_auctionEnd",
							"type": "uint256"
						},
						{
							"internalType": "uint256",
							"name": "_minPrice",
							"type": "uint256"
						},
						{
							"internalType": "uint256",
							"name": "_nftAmount",
							"type": "uint256"
						},
						{
							"internalType": "bytes",
							"name": "_data",
							"type": "bytes"
						}
					],
					"name": "createNftAuctionSale",
					"outputs": [],
					"stateMutability": "nonpayable",
					"type": "function"
				},
				{
					"inputs": [],
					"name": "getAuctionSaleNFT",
					"outputs": [
						{
							"components": [
								{
									"internalType": "address",
									"name": "_nftContractAddress",
									"type": "address"
								},
								{
									"internalType": "uint256",
									"name": "_tokenID",
									"type": "uint256"
								}
							],
							"internalType": "struct NFTMultiMarketplace.SaleInfo[]",
							"name": "",
							"type": "tuple[]"
						}
					],
					"stateMutability": "view",
					"type": "function"
				},
				{
					"inputs": [
						{
							"internalType": "address",
							"name": "_nftContractAddress",
							"type": "address"
						},
						{
							"internalType": "uint256",
							"name": "_tokenId",
							"type": "uint256"
						}
					],
					"name": "getFixedSale",
					"outputs": [
						{
							"components": [
								{
									"internalType": "address",
									"name": "nftSeller",
									"type": "address"
								},
								{
									"internalType": "address",
									"name": "nftBuyer",
									"type": "address"
								},
								{
									"internalType": "address",
									"name": "erc20",
									"type": "address"
								},
								{
									"internalType": "uint256",
									"name": "amount",
									"type": "uint256"
								},
								{
									"internalType": "uint256",
									"name": "salePrice",
									"type": "uint256"
								}
							],
							"internalType": "struct NFTMultiMarketplace.FixedSale",
							"name": "",
							"type": "tuple"
						}
					],
					"stateMutability": "view",
					"type": "function"
				},
				{
					"inputs": [],
					"name": "getFixedSaleNFT",
					"outputs": [
						{
							"components": [
								{
									"internalType": "address",
									"name": "_nftContractAddress",
									"type": "address"
								},
								{
									"internalType": "uint256",
									"name": "_tokenID",
									"type": "uint256"
								}
							],
							"internalType": "struct NFTMultiMarketplace.SaleInfo[]",
							"name": "",
							"type": "tuple[]"
						}
					],
					"stateMutability": "view",
					"type": "function"
				},
				{
					"inputs": [
						{
							"internalType": "address",
							"name": "_nftContractAddress",
							"type": "address"
						},
						{
							"internalType": "uint256",
							"name": "_tokenId",
							"type": "uint256"
						}
					],
					"name": "getNftAuctionSaleDetails",
					"outputs": [
						{
							"components": [
								{
									"internalType": "uint256",
									"name": "auctionStart",
									"type": "uint256"
								},
								{
									"internalType": "uint256",
									"name": "auctionEnd",
									"type": "uint256"
								},
								{
									"internalType": "uint256",
									"name": "minPrice",
									"type": "uint256"
								},
								{
									"internalType": "uint256",
									"name": "nftHighestBid",
									"type": "uint256"
								},
								{
									"internalType": "uint256",
									"name": "nftAmount",
									"type": "uint256"
								},
								{
									"internalType": "address",
									"name": "nftHighestBidder",
									"type": "address"
								},
								{
									"internalType": "address",
									"name": "nftSeller",
									"type": "address"
								},
								{
									"internalType": "address",
									"name": "erc20",
									"type": "address"
								}
							],
							"internalType": "struct NFTMultiMarketplace.Auction",
							"name": "",
							"type": "tuple"
						}
					],
					"stateMutability": "view",
					"type": "function"
				},
				{
					"inputs": [
						{
							"internalType": "address",
							"name": "_nftContractAddress",
							"type": "address"
						}
					],
					"name": "isERC1155",
					"outputs": [
						{
							"internalType": "bool",
							"name": "",
							"type": "bool"
						}
					],
					"stateMutability": "view",
					"type": "function"
				},
				{
					"inputs": [
						{
							"internalType": "address",
							"name": "_nftContractAddress",
							"type": "address"
						},
						{
							"internalType": "uint256",
							"name": "_tokenId",
							"type": "uint256"
						},
						{
							"internalType": "uint256",
							"name": "_bidPrice",
							"type": "uint256"
						}
					],
					"name": "makeBid",
					"outputs": [],
					"stateMutability": "payable",
					"type": "function"
				},
				{
					"inputs": [
						{
							"internalType": "address",
							"name": "_nftContractAddress",
							"type": "address"
						},
						{
							"internalType": "address",
							"name": "_erc20",
							"type": "address"
						},
						{
							"internalType": "uint256",
							"name": "_tokenId",
							"type": "uint256"
						},
						{
							"internalType": "uint256",
							"name": "_amount",
							"type": "uint256"
						},
						{
							"internalType": "uint256",
							"name": "_salePrice",
							"type": "uint256"
						},
						{
							"internalType": "bytes",
							"name": "_data",
							"type": "bytes"
						}
					],
					"name": "nftFixedSale",
					"outputs": [],
					"stateMutability": "nonpayable",
					"type": "function"
				},
				{
					"inputs": [
						{
							"internalType": "address",
							"name": "",
							"type": "address"
						},
						{
							"internalType": "uint256",
							"name": "",
							"type": "uint256"
						}
					],
					"name": "nftSaleStatus",
					"outputs": [
						{
							"internalType": "uint256",
							"name": "",
							"type": "uint256"
						}
					],
					"stateMutability": "view",
					"type": "function"
				},
				{
					"inputs": [
						{
							"internalType": "address",
							"name": "_operator",
							"type": "address"
						},
						{
							"internalType": "address",
							"name": "_from",
							"type": "address"
						},
						{
							"internalType": "uint256[]",
							"name": "_ids",
							"type": "uint256[]"
						},
						{
							"internalType": "uint256[]",
							"name": "_values",
							"type": "uint256[]"
						},
						{
							"internalType": "bytes",
							"name": "_data",
							"type": "bytes"
						}
					],
					"name": "onERC1155BatchReceived",
					"outputs": [
						{
							"internalType": "bytes4",
							"name": "",
							"type": "bytes4"
						}
					],
					"stateMutability": "pure",
					"type": "function"
				},
				{
					"inputs": [
						{
							"internalType": "address",
							"name": "_operator",
							"type": "address"
						},
						{
							"internalType": "address",
							"name": "_from",
							"type": "address"
						},
						{
							"internalType": "uint256",
							"name": "_id",
							"type": "uint256"
						},
						{
							"internalType": "uint256",
							"name": "_value",
							"type": "uint256"
						},
						{
							"internalType": "bytes",
							"name": "_data",
							"type": "bytes"
						}
					],
					"name": "onERC1155Received",
					"outputs": [
						{
							"internalType": "bytes4",
							"name": "",
							"type": "bytes4"
						}
					],
					"stateMutability": "pure",
					"type": "function"
				},
				{
					"inputs": [
						{
							"internalType": "address",
							"name": "_nftContractAddress",
							"type": "address"
						},
						{
							"internalType": "uint256",
							"name": "_tokenId",
							"type": "uint256"
						}
					],
					"name": "settleAuction",
					"outputs": [],
					"stateMutability": "nonpayable",
					"type": "function"
				},
				{
					"inputs": [
						{
							"internalType": "address",
							"name": "_nftContractAddress",
							"type": "address"
						},
						{
							"internalType": "uint256",
							"name": "_tokenId",
							"type": "uint256"
						},
						{
							"internalType": "uint256",
							"name": "_updateSalePrice",
							"type": "uint256"
						}
					],
					"name": "updateFixedSalePrice",
					"outputs": [],
					"stateMutability": "nonpayable",
					"type": "function"
				},
				{
					"inputs": [
						{
							"internalType": "address",
							"name": "_nftContractAddress",
							"type": "address"
						},
						{
							"internalType": "uint256",
							"name": "_tokenId",
							"type": "uint256"
						},
						{
							"internalType": "uint256",
							"name": "_updateBidPrice",
							"type": "uint256"
						}
					],
					"name": "updateTheBidPrice",
					"outputs": [],
					"stateMutability": "payable",
					"type": "function"
				},
				{
					"inputs": [
						{
							"internalType": "address",
							"name": "",
							"type": "address"
						},
						{
							"internalType": "uint256",
							"name": "",
							"type": "uint256"
						},
						{
							"internalType": "address",
							"name": "",
							"type": "address"
						}
					],
					"name": "userBidPriceOnNFT",
					"outputs": [
						{
							"internalType": "uint256",
							"name": "",
							"type": "uint256"
						}
					],
					"stateMutability": "view",
					"type": "function"
				},
				{
					"inputs": [
						{
							"internalType": "address",
							"name": "_nftContractAddress",
							"type": "address"
						},
						{
							"internalType": "uint256",
							"name": "_tokenId",
							"type": "uint256"
						}
					],
					"name": "withdrawBid",
					"outputs": [],
					"stateMutability": "nonpayable",
					"type": "function"
				},
				{
					"stateMutability": "payable",
					"type": "receive"
				}
			],
			"devdoc": {
				"kind": "dev",
				"methods": {},
				"version": 1
			},
			"evm": {
				"assembly": "    /* \"NFT-Contracts/new/final_market_Multi_nft.sol\":451:25490  contract NFTMultiMarketplace {\r... */\n  mstore(0x40, 0x80)\n  callvalue\n  dup1\n  iszero\n  tag_1\n  jumpi\n  0x00\n  dup1\n  revert\ntag_1:\n  pop\n  dataSize(sub_0)\n  dup1\n  dataOffset(sub_0)\n  0x00\n  codecopy\n  0x00\n  return\nstop\n\nsub_0: assembly {\n        /* \"NFT-Contracts/new/final_market_Multi_nft.sol\":451:25490  contract NFTMultiMarketplace {\r... */\n      mstore(0x40, 0x80)\n      jumpi(tag_1, lt(calldatasize, 0x04))\n      shr(0xe0, calldataload(0x00))\n      dup1\n      0x6f8c9b1b\n      gt\n      tag_25\n      jumpi\n      dup1\n      0x842bc46a\n      gt\n      tag_26\n      jumpi\n      dup1\n      0x842bc46a\n      eq\n      tag_19\n      jumpi\n      dup1\n      0x8c3417da\n      eq\n      tag_20\n      jumpi\n      dup1\n      0x9b8cfe52\n      eq\n      tag_21\n      jumpi\n      dup1\n      0x9f085a00\n      eq\n      tag_22\n      jumpi\n      dup1\n      0xbc197c81\n      eq\n      tag_23\n      jumpi\n      dup1\n      0xf23a6e61\n      eq\n      tag_24\n      jumpi\n      0x00\n      dup1\n      revert\n    tag_26:\n      dup1\n      0x6f8c9b1b\n      eq\n      tag_14\n      jumpi\n      dup1\n      0x6fe02f24\n      eq\n      tag_15\n      jumpi\n      dup1\n      0x771b5788\n      eq\n      tag_16\n      jumpi\n      dup1\n      0x7ad47a21\n      eq\n      tag_17\n      jumpi\n      dup1\n      0x804e9f24\n      eq\n      tag_18\n      jumpi\n      0x00\n      dup1\n      revert\n    tag_25:\n      dup1\n      0x423cdd4e\n      gt\n      tag_27\n      jumpi\n      dup1\n      0x423cdd4e\n      eq\n      tag_8\n      jumpi\n      dup1\n      0x4676adca\n      eq\n      tag_9\n      jumpi\n      dup1\n      0x4cb8ef5b\n      eq\n      tag_10\n      jumpi\n      dup1\n      0x5138b08c\n      eq\n      tag_11\n      jumpi\n      dup1\n      0x6916462f\n      eq\n      tag_12\n      jumpi\n      dup1\n      0x6eb84994\n      eq\n      tag_13\n      jumpi\n      0x00\n      dup1\n      revert\n    tag_27:\n      dup1\n      0xe2097c\n      eq\n      tag_3\n      jumpi\n      dup1\n      0x1bdae6f1\n      eq\n      tag_4\n      jumpi\n      dup1\n      0x1e7a044f\n      eq\n      tag_5\n      jumpi\n      dup1\n      0x282e460a\n      eq\n      tag_6\n      jumpi\n      dup1\n      0x3a713db8\n      eq\n      tag_7\n      jumpi\n      0x00\n      dup1\n      revert\n    tag_1:\n      jumpi(tag_2, calldatasize)\n      stop\n    tag_2:\n      0x00\n      dup1\n      revert\n        /* \"NFT-Contracts/new/final_market_Multi_nft.sol\":8570:8854  function buyAreveaToken(address _erc20_contract, address _buyer, uint256 _amount) public returns (bool){\r... */\n    tag_3:\n      callvalue\n      dup1\n      iszero\n      tag_30\n      jumpi\n      0x00\n      dup1\n      revert\n    tag_30:\n      pop\n      tag_31\n      tag_32\n      calldatasize\n      0x04\n      tag_33\n      jump\t// in\n    tag_32:\n      tag_34\n      jump\t// in\n    tag_31:\n      mload(0x40)\n        /* \"#utility.yul\":14763:14777   */\n      swap1\n      iszero\n        /* \"#utility.yul\":14756:14778   */\n      iszero\n        /* \"#utility.yul\":14738:14779   */\n      dup2\n      mstore\n        /* \"#utility.yul\":14726:14728   */\n      0x20\n        /* \"#utility.yul\":14711:14729   */\n      add\n        /* \"NFT-Contracts/new/final_market_Multi_nft.sol\":8570:8854  function buyAreveaToken(address _erc20_contract, address _buyer, uint256 _amount) public returns (bool){\r... */\n    tag_35:\n      mload(0x40)\n      dup1\n      swap2\n      sub\n      swap1\n      return\n        /* \"NFT-Contracts/new/final_market_Multi_nft.sol\":14877:16062  function makeBid(\r... */\n    tag_4:\n      tag_37\n      tag_38\n      calldatasize\n      0x04\n      tag_39\n      jump\t// in\n    tag_38:\n      tag_40\n      jump\t// in\n    tag_37:\n      stop\n        /* \"NFT-Contracts/new/final_market_Multi_nft.sol\":20545:20656  function getAuctionSaleNFT() external view returns (SaleInfo[] memory) {\r... */\n    tag_5:\n      callvalue\n      dup1\n      iszero\n      tag_41\n      jumpi\n      0x00\n      dup1\n      revert\n    tag_41:\n      pop\n      tag_42\n      tag_43\n      jump\t// in\n    tag_42:\n      mload(0x40)\n      tag_35\n      swap2\n      swap1\n      tag_45\n      jump\t// in\n        /* \"NFT-Contracts/new/final_market_Multi_nft.sol\":25254:25450  function isERC1155(address _nftContractAddress)\r... */\n    tag_6:\n      callvalue\n      dup1\n      iszero\n      tag_46\n      jumpi\n      0x00\n      dup1\n      revert\n    tag_46:\n      pop\n      tag_31\n      tag_48\n      calldatasize\n      0x04\n      tag_49\n      jump\t// in\n    tag_48:\n      tag_50\n      jump\t// in\n        /* \"NFT-Contracts/new/final_market_Multi_nft.sol\":16070:17586  function updateTheBidPrice(\r... */\n    tag_7:\n      tag_37\n      tag_53\n      calldatasize\n      0x04\n      tag_39\n      jump\t// in\n    tag_53:\n      tag_54\n      jump\t// in\n        /* \"NFT-Contracts/new/final_market_Multi_nft.sol\":13301:14869  function createNftAuctionSale(\r... */\n    tag_8:\n      callvalue\n      dup1\n      iszero\n      tag_55\n      jumpi\n      0x00\n      dup1\n      revert\n    tag_55:\n      pop\n      tag_37\n      tag_57\n      calldatasize\n      0x04\n      tag_58\n      jump\t// in\n    tag_57:\n      tag_59\n      jump\t// in\n        /* \"NFT-Contracts/new/final_market_Multi_nft.sol\":11188:11766  function updateFixedSalePrice(\r... */\n    tag_9:\n      callvalue\n      dup1\n      iszero\n      tag_60\n      jumpi\n      0x00\n      dup1\n      revert\n    tag_60:\n      pop\n      tag_37\n      tag_62\n      calldatasize\n      0x04\n      tag_39\n      jump\t// in\n    tag_62:\n      tag_63\n      jump\t// in\n        /* \"NFT-Contracts/new/final_market_Multi_nft.sol\":19547:20305  function withdrawBid(address _nftContractAddress, uint256 _tokenId)\r... */\n    tag_10:\n      callvalue\n      dup1\n      iszero\n      tag_64\n      jumpi\n      0x00\n      dup1\n      revert\n    tag_64:\n      pop\n      tag_37\n      tag_66\n      calldatasize\n      0x04\n      tag_67\n      jump\t// in\n    tag_66:\n      tag_68\n      jump\t// in\n        /* \"NFT-Contracts/new/final_market_Multi_nft.sol\":18531:19539  function settleAuction(address _nftContractAddress, uint256 _tokenId)\r... */\n    tag_11:\n      callvalue\n      dup1\n      iszero\n      tag_69\n      jumpi\n      0x00\n      dup1\n      revert\n    tag_69:\n      pop\n      tag_37\n      tag_71\n      calldatasize\n      0x04\n      tag_67\n      jump\t// in\n    tag_71:\n      tag_72\n      jump\t// in\n        /* \"NFT-Contracts/new/final_market_Multi_nft.sol\":1126:1194  mapping(address => mapping(uint256 => uint256)) public nftSaleStatus */\n    tag_12:\n      callvalue\n      dup1\n      iszero\n      tag_73\n      jumpi\n      0x00\n      dup1\n      revert\n    tag_73:\n      pop\n      tag_74\n      tag_75\n      calldatasize\n      0x04\n      tag_67\n      jump\t// in\n    tag_75:\n      0x01\n      0x20\n      swap1\n      dup2\n      mstore\n      0x00\n      swap3\n      dup4\n      mstore\n      0x40\n      dup1\n      dup5\n      keccak256\n      swap1\n      swap2\n      mstore\n      swap1\n      dup3\n      mstore\n      swap1\n      keccak256\n      sload\n      dup2\n      jump\n    tag_74:\n      mload(0x40)\n        /* \"#utility.yul\":22795:22820   */\n      swap1\n      dup2\n      mstore\n        /* \"#utility.yul\":22783:22785   */\n      0x20\n        /* \"#utility.yul\":22768:22786   */\n      add\n        /* \"NFT-Contracts/new/final_market_Multi_nft.sol\":1126:1194  mapping(address => mapping(uint256 => uint256)) public nftSaleStatus */\n      tag_35\n        /* \"#utility.yul\":22649:22826   */\n      jump\n        /* \"NFT-Contracts/new/final_market_Multi_nft.sol\":11774:13266  function buyFromFixedSale(\r... */\n    tag_13:\n      tag_37\n      tag_80\n      calldatasize\n      0x04\n      tag_81\n      jump\t// in\n    tag_80:\n      tag_82\n      jump\t// in\n        /* \"NFT-Contracts/new/final_market_Multi_nft.sol\":20313:20537  function getNftAuctionSaleDetails(\r... */\n    tag_14:\n      callvalue\n      dup1\n      iszero\n      tag_83\n      jumpi\n      0x00\n      dup1\n      revert\n    tag_83:\n      pop\n      tag_84\n      tag_85\n      calldatasize\n      0x04\n      tag_67\n      jump\t// in\n    tag_85:\n      tag_86\n      jump\t// in\n    tag_84:\n      mload(0x40)\n      tag_35\n      swap2\n      swap1\n        /* \"#utility.yul\":21518:21531   */\n      dup2\n      mload\n        /* \"#utility.yul\":21500:21532   */\n      dup2\n      mstore\n        /* \"#utility.yul\":21588:21592   */\n      0x20\n        /* \"#utility.yul\":21576:21593   */\n      dup1\n      dup4\n      add\n        /* \"#utility.yul\":21570:21594   */\n      mload\n        /* \"#utility.yul\":21548:21568   */\n      swap1\n      dup3\n      add\n        /* \"#utility.yul\":21541:21595   */\n      mstore\n        /* \"#utility.yul\":21651:21655   */\n      0x40\n        /* \"#utility.yul\":21639:21656   */\n      dup1\n      dup4\n      add\n        /* \"#utility.yul\":21633:21657   */\n      mload\n        /* \"#utility.yul\":21611:21631   */\n      swap1\n      dup3\n      add\n        /* \"#utility.yul\":21604:21658   */\n      mstore\n        /* \"#utility.yul\":21714:21718   */\n      0x60\n        /* \"#utility.yul\":21702:21719   */\n      dup1\n      dup4\n      add\n        /* \"#utility.yul\":21696:21720   */\n      mload\n        /* \"#utility.yul\":21674:21694   */\n      swap1\n      dup3\n      add\n        /* \"#utility.yul\":21667:21721   */\n      mstore\n        /* \"#utility.yul\":21777:21781   */\n      0x80\n        /* \"#utility.yul\":21765:21782   */\n      dup1\n      dup4\n      add\n        /* \"#utility.yul\":21759:21783   */\n      mload\n        /* \"#utility.yul\":21737:21757   */\n      swap1\n      dup3\n      add\n        /* \"#utility.yul\":21730:21784   */\n      mstore\n        /* \"#utility.yul\":21831:21835   */\n      0xa0\n        /* \"#utility.yul\":21819:21836   */\n      dup1\n      dup4\n      add\n        /* \"#utility.yul\":21813:21837   */\n      mload\n      sub(shl(0xa0, 0x01), 0x01)\n        /* \"#utility.yul\":21913:21934   */\n      swap1\n      dup2\n      and\n        /* \"#utility.yul\":21891:21911   */\n      swap2\n      dup4\n      add\n        /* \"#utility.yul\":21884:21935   */\n      swap2\n      swap1\n      swap2\n      mstore\n        /* \"#utility.yul\":21995:21999   */\n      0xc0\n        /* \"#utility.yul\":21983:22000   */\n      dup1\n      dup5\n      add\n        /* \"#utility.yul\":21977:22001   */\n      mload\n        /* \"#utility.yul\":21973:22006   */\n      dup3\n      and\n        /* \"#utility.yul\":21951:21971   */\n      swap1\n      dup4\n      add\n        /* \"#utility.yul\":21944:22007   */\n      mstore\n        /* \"#utility.yul\":22067:22071   */\n      0xe0\n        /* \"#utility.yul\":22055:22072   */\n      swap3\n      dup4\n      add\n        /* \"#utility.yul\":22049:22073   */\n      mload\n        /* \"#utility.yul\":22045:22078   */\n      and\n        /* \"#utility.yul\":22023:22043   */\n      swap2\n      dup2\n      add\n        /* \"#utility.yul\":22016:22079   */\n      swap2\n      swap1\n      swap2\n      mstore\n        /* \"#utility.yul\":21487:21490   */\n      0x0100\n        /* \"#utility.yul\":21472:21491   */\n      add\n      swap1\n        /* \"#utility.yul\":21305:22085   */\n      jump\n        /* \"NFT-Contracts/new/final_market_Multi_nft.sol\":1356:1448  mapping(address => mapping(uint256 => mapping(address => uint256))) public userBidPriceOnNFT */\n    tag_15:\n      callvalue\n      dup1\n      iszero\n      tag_89\n      jumpi\n      0x00\n      dup1\n      revert\n    tag_89:\n      pop\n      tag_74\n      tag_91\n      calldatasize\n      0x04\n      tag_92\n      jump\t// in\n    tag_91:\n      0x04\n      0x20\n      swap1\n      dup2\n      mstore\n      0x00\n      swap4\n      dup5\n      mstore\n      0x40\n      dup1\n      dup6\n      keccak256\n      dup3\n      mstore\n      swap3\n      dup5\n      mstore\n      dup3\n      dup5\n      keccak256\n      swap1\n      mstore\n      dup3\n      mstore\n      swap1\n      keccak256\n      sload\n      dup2\n      jump\n        /* \"NFT-Contracts/new/final_market_Multi_nft.sol\":9182:10463  function nftFixedSale(\r... */\n    tag_16:\n      callvalue\n      dup1\n      iszero\n      tag_95\n      jumpi\n      0x00\n      dup1\n      revert\n    tag_95:\n      pop\n      tag_37\n      tag_97\n      calldatasize\n      0x04\n      tag_98\n      jump\t// in\n    tag_97:\n      tag_99\n      jump\t// in\n        /* \"NFT-Contracts/new/final_market_Multi_nft.sol\":8860:9149  function Sell_AreveaToken(address _erc20_contract, address seller, uint256 _amount) public returns (bool){\r... */\n    tag_17:\n      callvalue\n      dup1\n      iszero\n      tag_100\n      jumpi\n      0x00\n      dup1\n      revert\n    tag_100:\n      pop\n      tag_31\n      tag_102\n      calldatasize\n      0x04\n      tag_33\n      jump\t// in\n    tag_102:\n      tag_103\n      jump\t// in\n        /* \"NFT-Contracts/new/final_market_Multi_nft.sol\":10471:11180  function cancelFixedsale(\r... */\n    tag_18:\n      callvalue\n      dup1\n      iszero\n      tag_105\n      jumpi\n      0x00\n      dup1\n      revert\n    tag_105:\n      pop\n      tag_37\n      tag_107\n      calldatasize\n      0x04\n      tag_108\n      jump\t// in\n    tag_107:\n      tag_109\n      jump\t// in\n        /* \"NFT-Contracts/new/final_market_Multi_nft.sol\":17594:18523  function _cancelAuctionSale(address _nftContractAddress, uint256 _tokenId)\r... */\n    tag_19:\n      callvalue\n      dup1\n      iszero\n      tag_110\n      jumpi\n      0x00\n      dup1\n      revert\n    tag_110:\n      pop\n      tag_37\n      tag_112\n      calldatasize\n      0x04\n      tag_67\n      jump\t// in\n    tag_112:\n      tag_113\n      jump\t// in\n        /* \"NFT-Contracts/new/final_market_Multi_nft.sol\":20781:21000  function getFixedSale(address _nftContractAddress, uint256 _tokenId)\r... */\n    tag_20:\n      callvalue\n      dup1\n      iszero\n      tag_114\n      jumpi\n      0x00\n      dup1\n      revert\n    tag_114:\n      pop\n      tag_115\n      tag_116\n      calldatasize\n      0x04\n      tag_67\n      jump\t// in\n    tag_116:\n      0x40\n      dup1\n      mload\n      0xa0\n      dup2\n      add\n      dup3\n      mstore\n      0x00\n      dup1\n      dup3\n      mstore\n      0x20\n      dup3\n      add\n      dup2\n      swap1\n      mstore\n      swap2\n      dup2\n      add\n      dup3\n      swap1\n      mstore\n      0x60\n      dup2\n      add\n      dup3\n      swap1\n      mstore\n      0x80\n      dup2\n      add\n      swap2\n      swap1\n      swap2\n      mstore\n      pop\n      sub(shl(0xa0, 0x01), 0x01)\n        /* \"NFT-Contracts/new/final_market_Multi_nft.sol\":20941:20982  nftContractFixedSale[_nftContractAddress] */\n      swap2\n      dup3\n      and\n        /* \"NFT-Contracts/new/final_market_Multi_nft.sol\":20941:20961  nftContractFixedSale */\n      0x00\n        /* \"NFT-Contracts/new/final_market_Multi_nft.sol\":20941:20982  nftContractFixedSale[_nftContractAddress] */\n      swap1\n      dup2\n      mstore\n      0x20\n      dup2\n      dup2\n      mstore\n      0x40\n      dup1\n      dup4\n      keccak256\n        /* \"NFT-Contracts/new/final_market_Multi_nft.sol\":20941:20992  nftContractFixedSale[_nftContractAddress][_tokenId] */\n      swap4\n      dup4\n      mstore\n      swap3\n      dup2\n      mstore\n      swap1\n      dup3\n      swap1\n      keccak256\n        /* \"NFT-Contracts/new/final_market_Multi_nft.sol\":20934:20992  return nftContractFixedSale[_nftContractAddress][_tokenId] */\n      dup3\n      mload\n      0xa0\n      dup2\n      add\n      dup5\n      mstore\n      dup2\n      sload\n      dup6\n      and\n      dup2\n      mstore\n      0x01\n      dup3\n      add\n      sload\n      dup6\n      and\n      swap3\n      dup2\n      add\n      swap3\n      swap1\n      swap3\n      mstore\n      0x02\n      dup2\n      add\n      sload\n      swap1\n      swap4\n      and\n      swap2\n      dup2\n      add\n      swap2\n      swap1\n      swap2\n      mstore\n      0x03\n      dup3\n      add\n      sload\n      0x60\n      dup3\n      add\n      mstore\n      0x04\n      swap1\n      swap2\n      add\n      sload\n      0x80\n      dup3\n      add\n      mstore\n      swap1\n        /* \"NFT-Contracts/new/final_market_Multi_nft.sol\":20781:21000  function getFixedSale(address _nftContractAddress, uint256 _tokenId)\r... */\n      jump\n    tag_115:\n      0x40\n      dup1\n      mload\n        /* \"#utility.yul\":22349:22362   */\n      dup3\n      mload\n      sub(shl(0xa0, 0x01), 0x01)\n        /* \"#utility.yul\":22345:22367   */\n      swap1\n      dup2\n      and\n        /* \"#utility.yul\":22327:22368   */\n      dup3\n      mstore\n        /* \"#utility.yul\":22428:22432   */\n      0x20\n        /* \"#utility.yul\":22416:22433   */\n      dup1\n      dup6\n      add\n        /* \"#utility.yul\":22410:22434   */\n      mload\n        /* \"#utility.yul\":22406:22439   */\n      dup3\n      and\n        /* \"#utility.yul\":22384:22404   */\n      swap1\n      dup4\n      add\n        /* \"#utility.yul\":22377:22440   */\n      mstore\n        /* \"#utility.yul\":22488:22505   */\n      dup4\n      dup4\n      add\n        /* \"#utility.yul\":22482:22506   */\n      mload\n        /* \"#utility.yul\":22478:22511   */\n      and\n        /* \"#utility.yul\":22456:22476   */\n      swap2\n      dup2\n      add\n        /* \"#utility.yul\":22449:22512   */\n      swap2\n      swap1\n      swap2\n      mstore\n        /* \"#utility.yul\":22568:22572   */\n      0x60\n        /* \"#utility.yul\":22556:22573   */\n      dup1\n      dup4\n      add\n        /* \"#utility.yul\":22550:22574   */\n      mload\n        /* \"#utility.yul\":22528:22548   */\n      swap1\n      dup3\n      add\n        /* \"#utility.yul\":22521:22575   */\n      mstore\n        /* \"#utility.yul\":22631:22635   */\n      0x80\n        /* \"#utility.yul\":22619:22636   */\n      swap2\n      dup3\n      add\n        /* \"#utility.yul\":22613:22637   */\n      mload\n        /* \"#utility.yul\":22591:22611   */\n      swap2\n      dup2\n      add\n        /* \"#utility.yul\":22584:22638   */\n      swap2\n      swap1\n      swap2\n      mstore\n        /* \"#utility.yul\":22276:22279   */\n      0xa0\n        /* \"#utility.yul\":22261:22280   */\n      add\n        /* \"NFT-Contracts/new/final_market_Multi_nft.sol\":20781:21000  function getFixedSale(address _nftContractAddress, uint256 _tokenId)\r... */\n      tag_35\n        /* \"#utility.yul\":22090:22644   */\n      jump\n        /* \"NFT-Contracts/new/final_market_Multi_nft.sol\":1595:1659  bytes4 public constant IID_IERC1155 = type(IERC1155).interfaceId */\n    tag_21:\n      callvalue\n      dup1\n      iszero\n      tag_120\n      jumpi\n      0x00\n      dup1\n      revert\n    tag_120:\n      pop\n      tag_121\n      shl(0xe1, 0x6cdb3d13)\n      dup2\n      jump\n    tag_121:\n      mload(0x40)\n      not(sub(shl(0xe0, 0x01), 0x01))\n        /* \"#utility.yul\":14952:14985   */\n      swap1\n      swap2\n      and\n        /* \"#utility.yul\":14934:14986   */\n      dup2\n      mstore\n        /* \"#utility.yul\":14922:14924   */\n      0x20\n        /* \"#utility.yul\":14907:14925   */\n      add\n        /* \"NFT-Contracts/new/final_market_Multi_nft.sol\":1595:1659  bytes4 public constant IID_IERC1155 = type(IERC1155).interfaceId */\n      tag_35\n        /* \"#utility.yul\":14790:14992   */\n      jump\n        /* \"NFT-Contracts/new/final_market_Multi_nft.sol\":20666:20773  function getFixedSaleNFT() external view returns (SaleInfo[] memory) {\r... */\n    tag_22:\n      callvalue\n      dup1\n      iszero\n      tag_125\n      jumpi\n      0x00\n      dup1\n      revert\n    tag_125:\n      pop\n      tag_42\n      tag_127\n      jump\t// in\n        /* \"NFT-Contracts/new/final_market_Multi_nft.sol\":21247:21507  function onERC1155BatchReceived(\r... */\n    tag_23:\n      callvalue\n      dup1\n      iszero\n      tag_129\n      jumpi\n      0x00\n      dup1\n      revert\n    tag_129:\n      pop\n      tag_121\n      tag_131\n      calldatasize\n      0x04\n      tag_132\n      jump\t// in\n    tag_131:\n      shl(0xe0, 0xbc197c81)\n      swap9\n      swap8\n      pop\n      pop\n      pop\n      pop\n      pop\n      pop\n      pop\n      pop\n      jump\n        /* \"NFT-Contracts/new/final_market_Multi_nft.sol\":21008:21239  function onERC1155Received(\r... */\n    tag_24:\n      callvalue\n      dup1\n      iszero\n      tag_135\n      jumpi\n      0x00\n      dup1\n      revert\n    tag_135:\n      pop\n      tag_121\n      tag_137\n      calldatasize\n      0x04\n      tag_138\n      jump\t// in\n    tag_137:\n      shl(0xe0, 0xf23a6e61)\n      swap7\n      swap6\n      pop\n      pop\n      pop\n      pop\n      pop\n      pop\n      jump\n        /* \"NFT-Contracts/new/final_market_Multi_nft.sol\":8570:8854  function buyAreveaToken(address _erc20_contract, address _buyer, uint256 _amount) public returns (bool){\r... */\n    tag_34:\n        /* \"NFT-Contracts/new/final_market_Multi_nft.sol\":8731:8826  IERC20(ERC20_contract).transferFrom(0x2258c5b9C82ff0Fa923756ED3FD2aCb5616dF57c,_buyer, _amount) */\n      mload(0x40)\n      shl(0xe0, 0x23b872dd)\n      dup2\n      mstore\n        /* \"NFT-Contracts/new/final_market_Multi_nft.sol\":8668:8672  bool */\n      0x00\n      swap1\n        /* \"NFT-Contracts/new/final_market_Multi_nft.sol\":8707:8722  _erc20_contract */\n      dup5\n      swap1\n      sub(shl(0xa0, 0x01), 0x01)\n        /* \"NFT-Contracts/new/final_market_Multi_nft.sol\":8731:8766  IERC20(ERC20_contract).transferFrom */\n      dup3\n      and\n      swap1\n      0x23b872dd\n      swap1\n        /* \"NFT-Contracts/new/final_market_Multi_nft.sol\":8731:8826  IERC20(ERC20_contract).transferFrom(0x2258c5b9C82ff0Fa923756ED3FD2aCb5616dF57c,_buyer, _amount) */\n      tag_142\n      swap1\n        /* \"NFT-Contracts/new/final_market_Multi_nft.sol\":8767:8809  0x2258c5b9C82ff0Fa923756ED3FD2aCb5616dF57c */\n      0x2258c5b9c82ff0fa923756ed3fd2acb5616df57c\n      swap1\n        /* \"NFT-Contracts/new/final_market_Multi_nft.sol\":8810:8816  _buyer */\n      dup9\n      swap1\n        /* \"NFT-Contracts/new/final_market_Multi_nft.sol\":8818:8825  _amount */\n      dup9\n      swap1\n        /* \"NFT-Contracts/new/final_market_Multi_nft.sol\":8731:8826  IERC20(ERC20_contract).transferFrom(0x2258c5b9C82ff0Fa923756ED3FD2aCb5616dF57c,_buyer, _amount) */\n      0x04\n      add\n      tag_143\n      jump\t// in\n    tag_142:\n      0x20\n      mload(0x40)\n      dup1\n      dup4\n      sub\n      dup2\n      0x00\n      dup8\n      dup1\n      extcodesize\n      iszero\n      dup1\n      iszero\n      tag_144\n      jumpi\n      0x00\n      dup1\n      revert\n    tag_144:\n      pop\n      gas\n      call\n      iszero\n      dup1\n      iszero\n      tag_146\n      jumpi\n      returndatasize\n      0x00\n      dup1\n      returndatacopy\n      revert(0x00, returndatasize)\n    tag_146:\n      pop\n      pop\n      pop\n      pop\n      mload(0x40)\n      returndatasize\n      not(0x1f)\n      0x1f\n      dup3\n      add\n      and\n      dup3\n      add\n      dup1\n      0x40\n      mstore\n      pop\n      dup2\n      add\n      swap1\n      tag_147\n      swap2\n      swap1\n      tag_148\n      jump\t// in\n    tag_147:\n      pop\n        /* \"NFT-Contracts/new/final_market_Multi_nft.sol\":8840:8844  true */\n      0x01\n      swap6\n        /* \"NFT-Contracts/new/final_market_Multi_nft.sol\":8570:8854  function buyAreveaToken(address _erc20_contract, address _buyer, uint256 _amount) public returns (bool){\r... */\n      swap5\n      pop\n      pop\n      pop\n      pop\n      pop\n      jump\t// out\n        /* \"NFT-Contracts/new/final_market_Multi_nft.sol\":14877:16062  function makeBid(\r... */\n    tag_40:\n      sub(shl(0xa0, 0x01), 0x01)\n        /* \"NFT-Contracts/new/final_market_Multi_nft.sol\":5511:5545  nftSaleStatus[_nftContractAddress] */\n      dup4\n      and\n      0x00\n      swap1\n      dup2\n      mstore\n        /* \"NFT-Contracts/new/final_market_Multi_nft.sol\":5511:5524  nftSaleStatus */\n      0x01\n        /* \"NFT-Contracts/new/final_market_Multi_nft.sol\":5511:5545  nftSaleStatus[_nftContractAddress] */\n      0x20\n      swap1\n      dup2\n      mstore\n      0x40\n      dup1\n      dup4\n      keccak256\n        /* \"NFT-Contracts/new/final_market_Multi_nft.sol\":5511:5555  nftSaleStatus[_nftContractAddress][_tokenId] */\n      dup6\n      dup5\n      mstore\n      swap1\n      swap2\n      mstore\n      swap1\n      keccak256\n      sload\n        /* \"NFT-Contracts/new/final_market_Multi_nft.sol\":15057:15076  _nftContractAddress */\n      dup4\n      swap1\n        /* \"NFT-Contracts/new/final_market_Multi_nft.sol\":15078:15086  _tokenId */\n      dup4\n      swap1\n        /* \"NFT-Contracts/new/final_market_Multi_nft.sol\":5559:5560  2 */\n      0x02\n        /* \"NFT-Contracts/new/final_market_Multi_nft.sol\":5511:5560  nftSaleStatus[_nftContractAddress][_tokenId] == 2 */\n      eq\n        /* \"NFT-Contracts/new/final_market_Multi_nft.sol\":5489:5611  require(\r... */\n      tag_150\n      jumpi\n      mload(0x40)\n      shl(0xe5, 0x461bcd)\n      dup2\n      mstore\n      0x04\n      add\n      tag_151\n      swap1\n      tag_152\n      jump\t// in\n    tag_151:\n      mload(0x40)\n      dup1\n      swap2\n      sub\n      swap1\n      revert\n    tag_150:\n      sub(shl(0xa0, 0x01), 0x01)\n        /* \"NFT-Contracts/new/final_market_Multi_nft.sol\":6894:6937  nftContractAuctionSale[_nftContractAddress] */\n      dup6\n      and\n      0x00\n      swap1\n      dup2\n      mstore\n        /* \"NFT-Contracts/new/final_market_Multi_nft.sol\":6894:6916  nftContractAuctionSale */\n      0x03\n        /* \"NFT-Contracts/new/final_market_Multi_nft.sol\":6894:6937  nftContractAuctionSale[_nftContractAddress] */\n      0x20\n      swap1\n      dup2\n      mstore\n      0x40\n      dup1\n      dup4\n      keccak256\n        /* \"NFT-Contracts/new/final_market_Multi_nft.sol\":6894:6947  nftContractAuctionSale[_nftContractAddress][_tokenId] */\n      dup8\n      dup5\n      mstore\n      swap1\n      swap2\n      mstore\n      swap1\n      keccak256\n        /* \"NFT-Contracts/new/final_market_Multi_nft.sol\":6894:6980  nftContractAuctionSale[_nftContractAddress][_tokenId]\r... */\n      0x01\n      add\n      sload\n        /* \"NFT-Contracts/new/final_market_Multi_nft.sol\":15114:15133  _nftContractAddress */\n      dup6\n      swap1\n        /* \"NFT-Contracts/new/final_market_Multi_nft.sol\":15135:15143  _tokenId */\n      dup6\n      swap1\n        /* \"NFT-Contracts/new/final_market_Multi_nft.sol\":6859:6874  block.timestamp */\n      timestamp\n        /* \"NFT-Contracts/new/final_market_Multi_nft.sol\":6859:6980  block.timestamp <\r... */\n      lt\n        /* \"NFT-Contracts/new/final_market_Multi_nft.sol\":6837:7019  require(\r... */\n      tag_154\n      jumpi\n      mload(0x40)\n      shl(0xe5, 0x461bcd)\n      dup2\n      mstore\n      0x04\n      add\n      tag_151\n      swap1\n      tag_156\n      jump\t// in\n    tag_154:\n        /* \"NFT-Contracts/new/final_market_Multi_nft.sol\":15175:15184  _bidPrice */\n      dup5\n        /* \"NFT-Contracts/new/final_market_Multi_nft.sol\":5352:5353  0 */\n      0x00\n        /* \"NFT-Contracts/new/final_market_Multi_nft.sol\":5343:5349  _price */\n      dup2\n        /* \"NFT-Contracts/new/final_market_Multi_nft.sol\":5343:5353  _price > 0 */\n      gt\n        /* \"NFT-Contracts/new/final_market_Multi_nft.sol\":5335:5375  require(_price > 0, \"Price cannot be 0\") */\n      tag_158\n      jumpi\n      mload(0x40)\n      shl(0xe5, 0x461bcd)\n      dup2\n      mstore\n      0x04\n      add\n      tag_151\n      swap1\n      tag_160\n      jump\t// in\n    tag_158:\n      sub(shl(0xa0, 0x01), 0x01)\n        /* \"NFT-Contracts/new/final_market_Multi_nft.sol\":6131:6174  nftContractAuctionSale[_nftContractAddress] */\n      dup1\n      dup10\n      and\n        /* \"NFT-Contracts/new/final_market_Multi_nft.sol\":6215:6216  0 */\n      0x00\n        /* \"NFT-Contracts/new/final_market_Multi_nft.sol\":6131:6174  nftContractAuctionSale[_nftContractAddress] */\n      swap1\n      dup2\n      mstore\n        /* \"NFT-Contracts/new/final_market_Multi_nft.sol\":6131:6153  nftContractAuctionSale */\n      0x03\n        /* \"NFT-Contracts/new/final_market_Multi_nft.sol\":6131:6174  nftContractAuctionSale[_nftContractAddress] */\n      0x20\n      swap1\n      dup2\n      mstore\n      0x40\n      dup1\n      dup4\n      keccak256\n        /* \"NFT-Contracts/new/final_market_Multi_nft.sol\":6131:6184  nftContractAuctionSale[_nftContractAddress][_tokenId] */\n      dup12\n      dup5\n      mstore\n      swap1\n      swap2\n      mstore\n      swap1\n      keccak256\n        /* \"NFT-Contracts/new/final_market_Multi_nft.sol\":6131:6190  nftContractAuctionSale[_nftContractAddress][_tokenId].erc20 */\n      0x07\n      add\n      sload\n        /* \"NFT-Contracts/new/final_market_Multi_nft.sol\":15239:15258  _nftContractAddress */\n      dup10\n      swap2\n        /* \"NFT-Contracts/new/final_market_Multi_nft.sol\":15273:15281  _tokenId */\n      dup10\n      swap2\n        /* \"NFT-Contracts/new/final_market_Multi_nft.sol\":15296:15305  msg.value */\n      callvalue\n      swap2\n        /* \"NFT-Contracts/new/final_market_Multi_nft.sol\":15320:15329  _bidPrice */\n      dup11\n      swap2\n        /* \"NFT-Contracts/new/final_market_Multi_nft.sol\":6131:6190  nftContractAuctionSale[_nftContractAddress][_tokenId].erc20 */\n      and\n        /* \"NFT-Contracts/new/final_market_Multi_nft.sol\":6113:6724  if (\r... */\n      tag_162\n      jumpi\n      sub(shl(0xa0, 0x01), 0x01)\n        /* \"NFT-Contracts/new/final_market_Multi_nft.sol\":6303:6346  nftContractAuctionSale[_nftContractAddress] */\n      dup5\n      and\n      0x00\n      swap1\n      dup2\n      mstore\n        /* \"NFT-Contracts/new/final_market_Multi_nft.sol\":6303:6325  nftContractAuctionSale */\n      0x03\n        /* \"NFT-Contracts/new/final_market_Multi_nft.sol\":6303:6346  nftContractAuctionSale[_nftContractAddress] */\n      0x20\n      dup2\n      dup2\n      mstore\n      0x40\n      dup1\n      dup5\n      keccak256\n        /* \"NFT-Contracts/new/final_market_Multi_nft.sol\":6303:6356  nftContractAuctionSale[_nftContractAddress][_tokenId] */\n      dup8\n      dup6\n      mstore\n      swap1\n      swap2\n      mstore\n      swap1\n      swap2\n      keccak256\n        /* \"NFT-Contracts/new/final_market_Multi_nft.sol\":6303:6396  nftContractAuctionSale[_nftContractAddress][_tokenId]\r... */\n      add\n      sload\n        /* \"NFT-Contracts/new/final_market_Multi_nft.sol\":6270:6396  _bidPrice >\r... */\n      dup3\n      gt\n        /* \"NFT-Contracts/new/final_market_Multi_nft.sol\":6244:6461  require(\r... */\n      tag_163\n      jumpi\n      mload(0x40)\n      shl(0xe5, 0x461bcd)\n      dup2\n      mstore\n      0x04\n      add\n      tag_151\n      swap1\n      tag_165\n      jump\t// in\n    tag_163:\n        /* \"NFT-Contracts/new/final_market_Multi_nft.sol\":6113:6724  if (\r... */\n      jump(tag_167)\n    tag_162:\n      sub(shl(0xa0, 0x01), 0x01)\n        /* \"NFT-Contracts/new/final_market_Multi_nft.sol\":6554:6597  nftContractAuctionSale[_nftContractAddress] */\n      dup5\n      and\n      0x00\n      swap1\n      dup2\n      mstore\n        /* \"NFT-Contracts/new/final_market_Multi_nft.sol\":6554:6576  nftContractAuctionSale */\n      0x03\n        /* \"NFT-Contracts/new/final_market_Multi_nft.sol\":6554:6597  nftContractAuctionSale[_nftContractAddress] */\n      0x20\n      dup2\n      dup2\n      mstore\n      0x40\n      dup1\n      dup5\n      keccak256\n        /* \"NFT-Contracts/new/final_market_Multi_nft.sol\":6554:6607  nftContractAuctionSale[_nftContractAddress][_tokenId] */\n      dup8\n      dup6\n      mstore\n      swap1\n      swap2\n      mstore\n      swap1\n      swap2\n      keccak256\n        /* \"NFT-Contracts/new/final_market_Multi_nft.sol\":6554:6647  nftContractAuctionSale[_nftContractAddress][_tokenId]\r... */\n      add\n      sload\n        /* \"NFT-Contracts/new/final_market_Multi_nft.sol\":6520:6647  _bidPrice1 >\r... */\n      dup2\n      gt\n        /* \"NFT-Contracts/new/final_market_Multi_nft.sol\":6494:6712  require(\r... */\n      tag_167\n      jumpi\n      mload(0x40)\n      shl(0xe5, 0x461bcd)\n      dup2\n      mstore\n      0x04\n      add\n      tag_151\n      swap1\n      tag_165\n      jump\t// in\n    tag_167:\n      sub(shl(0xa0, 0x01), 0x01)\n        /* \"NFT-Contracts/new/final_market_Multi_nft.sol\":15375:15418  nftContractAuctionSale[_nftContractAddress] */\n      dup13\n      dup2\n      and\n        /* \"NFT-Contracts/new/final_market_Multi_nft.sol\":15459:15460  0 */\n      0x00\n        /* \"NFT-Contracts/new/final_market_Multi_nft.sol\":15375:15418  nftContractAuctionSale[_nftContractAddress] */\n      swap1\n      dup2\n      mstore\n        /* \"NFT-Contracts/new/final_market_Multi_nft.sol\":15375:15397  nftContractAuctionSale */\n      0x03\n        /* \"NFT-Contracts/new/final_market_Multi_nft.sol\":15375:15418  nftContractAuctionSale[_nftContractAddress] */\n      0x20\n      swap1\n      dup2\n      mstore\n      0x40\n      dup1\n      dup4\n      keccak256\n        /* \"NFT-Contracts/new/final_market_Multi_nft.sol\":15375:15428  nftContractAuctionSale[_nftContractAddress][_tokenId] */\n      dup16\n      dup5\n      mstore\n      swap1\n      swap2\n      mstore\n      swap1\n      keccak256\n        /* \"NFT-Contracts/new/final_market_Multi_nft.sol\":15375:15434  nftContractAuctionSale[_nftContractAddress][_tokenId].erc20 */\n      0x07\n      add\n      sload\n      and\n        /* \"NFT-Contracts/new/final_market_Multi_nft.sol\":15375:15461  nftContractAuctionSale[_nftContractAddress][_tokenId].erc20 !=\r... */\n      iszero\n        /* \"NFT-Contracts/new/final_market_Multi_nft.sol\":15357:15639  if (\r... */\n      tag_171\n      jumpi\n      sub(shl(0xa0, 0x01), 0x01)\n        /* \"NFT-Contracts/new/final_market_Multi_nft.sol\":15553:15596  nftContractAuctionSale[_nftContractAddress] */\n      dup1\n      dup14\n      and\n      0x00\n      swap1\n      dup2\n      mstore\n        /* \"NFT-Contracts/new/final_market_Multi_nft.sol\":15553:15575  nftContractAuctionSale */\n      0x03\n        /* \"NFT-Contracts/new/final_market_Multi_nft.sol\":15553:15596  nftContractAuctionSale[_nftContractAddress] */\n      0x20\n      swap1\n      dup2\n      mstore\n      0x40\n      dup1\n      dup4\n      keccak256\n        /* \"NFT-Contracts/new/final_market_Multi_nft.sol\":15553:15606  nftContractAuctionSale[_nftContractAddress][_tokenId] */\n      dup16\n      dup5\n      mstore\n      swap1\n      swap2\n      mstore\n      swap1\n      keccak256\n        /* \"NFT-Contracts/new/final_market_Multi_nft.sol\":15553:15612  nftContractAuctionSale[_nftContractAddress][_tokenId].erc20 */\n      0x07\n      add\n      sload\n        /* \"NFT-Contracts/new/final_market_Multi_nft.sol\":15488:15627  _bidAmountTransfer(\r... */\n      tag_171\n      swap2\n        /* \"NFT-Contracts/new/final_market_Multi_nft.sol\":15525:15534  _bidPrice */\n      dup13\n      swap2\n        /* \"NFT-Contracts/new/final_market_Multi_nft.sol\":15553:15612  nftContractAuctionSale[_nftContractAddress][_tokenId].erc20 */\n      and\n        /* \"NFT-Contracts/new/final_market_Multi_nft.sol\":15488:15506  _bidAmountTransfer */\n      tag_172\n        /* \"NFT-Contracts/new/final_market_Multi_nft.sol\":15488:15627  _bidAmountTransfer(\r... */\n      jump\t// in\n    tag_171:\n        /* \"NFT-Contracts/new/final_market_Multi_nft.sol\":15745:15754  _bidPrice */\n      dup10\n        /* \"NFT-Contracts/new/final_market_Multi_nft.sol\":15661:15683  nftContractAuctionSale */\n      0x03\n        /* \"NFT-Contracts/new/final_market_Multi_nft.sol\":15661:15704  nftContractAuctionSale[_nftContractAddress] */\n      0x00\n        /* \"NFT-Contracts/new/final_market_Multi_nft.sol\":15684:15703  _nftContractAddress */\n      dup15\n      sub(shl(0xa0, 0x01), 0x01)\n        /* \"NFT-Contracts/new/final_market_Multi_nft.sol\":15661:15704  nftContractAuctionSale[_nftContractAddress] */\n      and\n      sub(shl(0xa0, 0x01), 0x01)\n      and\n      dup2\n      mstore\n      0x20\n      add\n      swap1\n      dup2\n      mstore\n      0x20\n      add\n      0x00\n      keccak256\n        /* \"NFT-Contracts/new/final_market_Multi_nft.sol\":15661:15714  nftContractAuctionSale[_nftContractAddress][_tokenId] */\n      0x00\n        /* \"NFT-Contracts/new/final_market_Multi_nft.sol\":15705:15713  _tokenId */\n      dup14\n        /* \"NFT-Contracts/new/final_market_Multi_nft.sol\":15661:15714  nftContractAuctionSale[_nftContractAddress][_tokenId] */\n      dup2\n      mstore\n      0x20\n      add\n      swap1\n      dup2\n      mstore\n      0x20\n      add\n      0x00\n      keccak256\n        /* \"NFT-Contracts/new/final_market_Multi_nft.sol\":15661:15742  nftContractAuctionSale[_nftContractAddress][_tokenId]\r... */\n      0x03\n      add\n        /* \"NFT-Contracts/new/final_market_Multi_nft.sol\":15661:15754  nftContractAuctionSale[_nftContractAddress][_tokenId]\r... */\n      dup2\n      swap1\n      sstore\n      pop\n        /* \"NFT-Contracts/new/final_market_Multi_nft.sol\":15852:15862  msg.sender */\n      caller\n        /* \"NFT-Contracts/new/final_market_Multi_nft.sol\":15765:15787  nftContractAuctionSale */\n      0x03\n        /* \"NFT-Contracts/new/final_market_Multi_nft.sol\":15765:15808  nftContractAuctionSale[_nftContractAddress] */\n      0x00\n        /* \"NFT-Contracts/new/final_market_Multi_nft.sol\":15788:15807  _nftContractAddress */\n      dup15\n      sub(shl(0xa0, 0x01), 0x01)\n        /* \"NFT-Contracts/new/final_market_Multi_nft.sol\":15765:15808  nftContractAuctionSale[_nftContractAddress] */\n      and\n      sub(shl(0xa0, 0x01), 0x01)\n      and\n      dup2\n      mstore\n      0x20\n      add\n      swap1\n      dup2\n      mstore\n      0x20\n      add\n      0x00\n      keccak256\n        /* \"NFT-Contracts/new/final_market_Multi_nft.sol\":15765:15818  nftContractAuctionSale[_nftContractAddress][_tokenId] */\n      0x00\n        /* \"NFT-Contracts/new/final_market_Multi_nft.sol\":15809:15817  _tokenId */\n      dup14\n        /* \"NFT-Contracts/new/final_market_Multi_nft.sol\":15765:15818  nftContractAuctionSale[_nftContractAddress][_tokenId] */\n      dup2\n      mstore\n      0x20\n      add\n      swap1\n      dup2\n      mstore\n      0x20\n      add\n      0x00\n      keccak256\n        /* \"NFT-Contracts/new/final_market_Multi_nft.sol\":15765:15849  nftContractAuctionSale[_nftContractAddress][_tokenId]\r... */\n      0x05\n      add\n      0x00\n        /* \"NFT-Contracts/new/final_market_Multi_nft.sol\":15765:15862  nftContractAuctionSale[_nftContractAddress][_tokenId]\r... */\n      0x0100\n      exp\n      dup2\n      sload\n      dup2\n      sub(shl(0xa0, 0x01), 0x01)\n      mul\n      not\n      and\n      swap1\n      dup4\n      sub(shl(0xa0, 0x01), 0x01)\n      and\n      mul\n      or\n      swap1\n      sstore\n      pop\n        /* \"NFT-Contracts/new/final_market_Multi_nft.sol\":15962:15971  _bidPrice */\n      dup10\n        /* \"NFT-Contracts/new/final_market_Multi_nft.sol\":15875:15892  userBidPriceOnNFT */\n      0x04\n        /* \"NFT-Contracts/new/final_market_Multi_nft.sol\":15875:15913  userBidPriceOnNFT[_nftContractAddress] */\n      0x00\n        /* \"NFT-Contracts/new/final_market_Multi_nft.sol\":15893:15912  _nftContractAddress */\n      dup15\n      sub(shl(0xa0, 0x01), 0x01)\n        /* \"NFT-Contracts/new/final_market_Multi_nft.sol\":15875:15913  userBidPriceOnNFT[_nftContractAddress] */\n      and\n      sub(shl(0xa0, 0x01), 0x01)\n      and\n      dup2\n      mstore\n      0x20\n      add\n      swap1\n      dup2\n      mstore\n      0x20\n      add\n      0x00\n      keccak256\n        /* \"NFT-Contracts/new/final_market_Multi_nft.sol\":15875:15923  userBidPriceOnNFT[_nftContractAddress][_tokenId] */\n      0x00\n        /* \"NFT-Contracts/new/final_market_Multi_nft.sol\":15914:15922  _tokenId */\n      dup14\n        /* \"NFT-Contracts/new/final_market_Multi_nft.sol\":15875:15923  userBidPriceOnNFT[_nftContractAddress][_tokenId] */\n      dup2\n      mstore\n      0x20\n      add\n      swap1\n      dup2\n      mstore\n      0x20\n      add\n      0x00\n      keccak256\n        /* \"NFT-Contracts/new/final_market_Multi_nft.sol\":15875:15959  userBidPriceOnNFT[_nftContractAddress][_tokenId][\r... */\n      0x00\n        /* \"NFT-Contracts/new/final_market_Multi_nft.sol\":15938:15948  msg.sender */\n      caller\n      sub(shl(0xa0, 0x01), 0x01)\n        /* \"NFT-Contracts/new/final_market_Multi_nft.sol\":15875:15959  userBidPriceOnNFT[_nftContractAddress][_tokenId][\r... */\n      and\n      sub(shl(0xa0, 0x01), 0x01)\n      and\n      dup2\n      mstore\n      0x20\n      add\n      swap1\n      dup2\n      mstore\n      0x20\n      add\n      0x00\n      keccak256\n        /* \"NFT-Contracts/new/final_market_Multi_nft.sol\":15875:15971  userBidPriceOnNFT[_nftContractAddress][_tokenId][\r... */\n      dup2\n      swap1\n      sstore\n      pop\n        /* \"NFT-Contracts/new/final_market_Multi_nft.sol\":15989:16054  NftBidPrice(_nftContractAddress, _tokenId, _bidPrice, msg.sender) */\n      0xd56cb6210c78740462007b728932c802bc41b205ed5c8a98ab95421eaf054b22\n        /* \"NFT-Contracts/new/final_market_Multi_nft.sol\":16001:16020  _nftContractAddress */\n      dup13\n        /* \"NFT-Contracts/new/final_market_Multi_nft.sol\":16022:16030  _tokenId */\n      dup13\n        /* \"NFT-Contracts/new/final_market_Multi_nft.sol\":16032:16041  _bidPrice */\n      dup13\n        /* \"NFT-Contracts/new/final_market_Multi_nft.sol\":16043:16053  msg.sender */\n      caller\n        /* \"NFT-Contracts/new/final_market_Multi_nft.sol\":15989:16054  NftBidPrice(_nftContractAddress, _tokenId, _bidPrice, msg.sender) */\n      mload(0x40)\n      tag_173\n      swap5\n      swap4\n      swap3\n      swap2\n      swap1\n      sub(shl(0xa0, 0x01), 0x01)\n        /* \"#utility.yul\":13614:13629   */\n      swap5\n      dup6\n      and\n        /* \"#utility.yul\":13596:13630   */\n      dup2\n      mstore\n        /* \"#utility.yul\":13661:13663   */\n      0x20\n        /* \"#utility.yul\":13646:13664   */\n      dup2\n      add\n        /* \"#utility.yul\":13639:13673   */\n      swap4\n      swap1\n      swap4\n      mstore\n        /* \"#utility.yul\":13704:13706   */\n      0x40\n        /* \"#utility.yul\":13689:13707   */\n      dup4\n      add\n        /* \"#utility.yul\":13682:13716   */\n      swap2\n      swap1\n      swap2\n      mstore\n        /* \"#utility.yul\":13752:13767   */\n      swap1\n      swap2\n      and\n        /* \"#utility.yul\":13747:13749   */\n      0x60\n        /* \"#utility.yul\":13732:13750   */\n      dup3\n      add\n        /* \"#utility.yul\":13725:13768   */\n      mstore\n        /* \"#utility.yul\":13545:13548   */\n      0x80\n        /* \"#utility.yul\":13530:13549   */\n      add\n      swap1\n        /* \"#utility.yul\":13327:13774   */\n      jump\n        /* \"NFT-Contracts/new/final_market_Multi_nft.sol\":15989:16054  NftBidPrice(_nftContractAddress, _tokenId, _bidPrice, msg.sender) */\n    tag_173:\n      mload(0x40)\n      dup1\n      swap2\n      sub\n      swap1\n      log1\n        /* \"NFT-Contracts/new/final_market_Multi_nft.sol\":5386:5387  _ */\n      pop\n      pop\n      pop\n      pop\n        /* \"NFT-Contracts/new/final_market_Multi_nft.sol\":7030:7031  _ */\n      pop\n        /* \"NFT-Contracts/new/final_market_Multi_nft.sol\":5622:5623  _ */\n      pop\n      pop\n        /* \"NFT-Contracts/new/final_market_Multi_nft.sol\":14877:16062  function makeBid(\r... */\n      pop\n      pop\n      pop\n      pop\n      pop\n      jump\t// out\n        /* \"NFT-Contracts/new/final_market_Multi_nft.sol\":20545:20656  function getAuctionSaleNFT() external view returns (SaleInfo[] memory) {\r... */\n    tag_43:\n        /* \"NFT-Contracts/new/final_market_Multi_nft.sol\":20597:20614  SaleInfo[] memory */\n      0x60\n        /* \"NFT-Contracts/new/final_market_Multi_nft.sol\":20634:20648  auctionSaleNFT */\n      0x07\n        /* \"NFT-Contracts/new/final_market_Multi_nft.sol\":20627:20648  return auctionSaleNFT */\n      dup1\n      sload\n      dup1\n      0x20\n      mul\n      0x20\n      add\n      mload(0x40)\n      swap1\n      dup2\n      add\n      0x40\n      mstore\n      dup1\n      swap3\n      swap2\n      swap1\n      dup2\n      dup2\n      mstore\n      0x20\n      add\n      0x00\n      swap1\n    tag_176:\n      dup3\n      dup3\n      lt\n      iszero\n      tag_177\n      jumpi\n      0x00\n      dup5\n      dup2\n      mstore\n      0x20\n      swap1\n      dup2\n      swap1\n      keccak256\n      0x40\n      dup1\n      mload\n      dup1\n      dup3\n      add\n      swap1\n      swap2\n      mstore\n      0x02\n      dup6\n      mul\n      swap1\n      swap2\n      add\n      dup1\n      sload\n      sub(shl(0xa0, 0x01), 0x01)\n      and\n      dup3\n      mstore\n      0x01\n      swap1\n      dup2\n      add\n      sload\n      dup3\n      dup5\n      add\n      mstore\n      swap1\n      dup4\n      mstore\n      swap1\n      swap3\n      add\n      swap2\n      add\n      jump(tag_176)\n    tag_177:\n      pop\n      pop\n      pop\n      pop\n      swap1\n      pop\n        /* \"NFT-Contracts/new/final_market_Multi_nft.sol\":20545:20656  function getAuctionSaleNFT() external view returns (SaleInfo[] memory) {\r... */\n      swap1\n      jump\t// out\n        /* \"NFT-Contracts/new/final_market_Multi_nft.sol\":25254:25450  function isERC1155(address _nftContractAddress)\r... */\n    tag_50:\n        /* \"NFT-Contracts/new/final_market_Multi_nft.sol\":25381:25442  IERC1155(_nftContractAddress).supportsInterface(IID_IERC1155) */\n      mload(0x40)\n      shl(0xe0, 0x01ffc9a7)\n      dup2\n      mstore\n      shl(0xe1, 0x6cdb3d13)\n      0x04\n      dup3\n      add\n        /* \"#utility.yul\":14934:14986   */\n      mstore\n        /* \"NFT-Contracts/new/final_market_Multi_nft.sol\":25352:25356  bool */\n      0x00\n      swap1\n      sub(shl(0xa0, 0x01), 0x01)\n        /* \"NFT-Contracts/new/final_market_Multi_nft.sol\":25381:25428  IERC1155(_nftContractAddress).supportsInterface */\n      dup4\n      and\n      swap1\n      0x01ffc9a7\n      swap1\n        /* \"#utility.yul\":14907:14925   */\n      0x24\n      add\n        /* \"NFT-Contracts/new/final_market_Multi_nft.sol\":25381:25442  IERC1155(_nftContractAddress).supportsInterface(IID_IERC1155) */\n      0x20\n      mload(0x40)\n      dup1\n      dup4\n      sub\n      dup2\n      dup7\n      dup1\n      extcodesize\n      iszero\n      dup1\n      iszero\n      tag_181\n      jumpi\n      0x00\n      dup1\n      revert\n    tag_181:\n      pop\n      gas\n      staticcall\n      iszero\n      dup1\n      iszero\n      tag_183\n      jumpi\n      returndatasize\n      0x00\n      dup1\n      returndatacopy\n      revert(0x00, returndatasize)\n    tag_183:\n      pop\n      pop\n      pop\n      pop\n      mload(0x40)\n      returndatasize\n      not(0x1f)\n      0x1f\n      dup3\n      add\n      and\n      dup3\n      add\n      dup1\n      0x40\n      mstore\n      pop\n      dup2\n      add\n      swap1\n      tag_184\n      swap2\n      swap1\n      tag_148\n      jump\t// in\n    tag_184:\n        /* \"NFT-Contracts/new/final_market_Multi_nft.sol\":25374:25442  return IERC1155(_nftContractAddress).supportsInterface(IID_IERC1155) */\n      swap3\n        /* \"NFT-Contracts/new/final_market_Multi_nft.sol\":25254:25450  function isERC1155(address _nftContractAddress)\r... */\n      swap2\n      pop\n      pop\n      jump\t// out\n        /* \"NFT-Contracts/new/final_market_Multi_nft.sol\":16070:17586  function updateTheBidPrice(\r... */\n    tag_54:\n      sub(shl(0xa0, 0x01), 0x01)\n        /* \"NFT-Contracts/new/final_market_Multi_nft.sol\":5511:5545  nftSaleStatus[_nftContractAddress] */\n      dup4\n      and\n      0x00\n      swap1\n      dup2\n      mstore\n        /* \"NFT-Contracts/new/final_market_Multi_nft.sol\":5511:5524  nftSaleStatus */\n      0x01\n        /* \"NFT-Contracts/new/final_market_Multi_nft.sol\":5511:5545  nftSaleStatus[_nftContractAddress] */\n      0x20\n      swap1\n      dup2\n      mstore\n      0x40\n      dup1\n      dup4\n      keccak256\n        /* \"NFT-Contracts/new/final_market_Multi_nft.sol\":5511:5555  nftSaleStatus[_nftContractAddress][_tokenId] */\n      dup6\n      dup5\n      mstore\n      swap1\n      swap2\n      mstore\n      swap1\n      keccak256\n      sload\n        /* \"NFT-Contracts/new/final_market_Multi_nft.sol\":16266:16285  _nftContractAddress */\n      dup4\n      swap1\n        /* \"NFT-Contracts/new/final_market_Multi_nft.sol\":16287:16295  _tokenId */\n      dup4\n      swap1\n        /* \"NFT-Contracts/new/final_market_Multi_nft.sol\":5559:5560  2 */\n      0x02\n        /* \"NFT-Contracts/new/final_market_Multi_nft.sol\":5511:5560  nftSaleStatus[_nftContractAddress][_tokenId] == 2 */\n      eq\n        /* \"NFT-Contracts/new/final_market_Multi_nft.sol\":5489:5611  require(\r... */\n      tag_186\n      jumpi\n      mload(0x40)\n      shl(0xe5, 0x461bcd)\n      dup2\n      mstore\n      0x04\n      add\n      tag_151\n      swap1\n      tag_152\n      jump\t// in\n    tag_186:\n      sub(shl(0xa0, 0x01), 0x01)\n        /* \"NFT-Contracts/new/final_market_Multi_nft.sol\":6894:6937  nftContractAuctionSale[_nftContractAddress] */\n      dup6\n      and\n      0x00\n      swap1\n      dup2\n      mstore\n        /* \"NFT-Contracts/new/final_market_Multi_nft.sol\":6894:6916  nftContractAuctionSale */\n      0x03\n        /* \"NFT-Contracts/new/final_market_Multi_nft.sol\":6894:6937  nftContractAuctionSale[_nftContractAddress] */\n      0x20\n      swap1\n      dup2\n      mstore\n      0x40\n      dup1\n      dup4\n      keccak256\n        /* \"NFT-Contracts/new/final_market_Multi_nft.sol\":6894:6947  nftContractAuctionSale[_nftContractAddress][_tokenId] */\n      dup8\n      dup5\n      mstore\n      swap1\n      swap2\n      mstore\n      swap1\n      keccak256\n        /* \"NFT-Contracts/new/final_market_Multi_nft.sol\":6894:6980  nftContractAuctionSale[_nftContractAddress][_tokenId]\r... */\n      0x01\n      add\n      sload\n        /* \"NFT-Contracts/new/final_market_Multi_nft.sol\":16323:16342  _nftContractAddress */\n      dup6\n      swap1\n        /* \"NFT-Contracts/new/final_market_Multi_nft.sol\":16344:16352  _tokenId */\n      dup6\n      swap1\n        /* \"NFT-Contracts/new/final_market_Multi_nft.sol\":6859:6874  block.timestamp */\n      timestamp\n        /* \"NFT-Contracts/new/final_market_Multi_nft.sol\":6859:6980  block.timestamp <\r... */\n      lt\n        /* \"NFT-Contracts/new/final_market_Multi_nft.sol\":6837:7019  require(\r... */\n      tag_189\n      jumpi\n      mload(0x40)\n      shl(0xe5, 0x461bcd)\n      dup2\n      mstore\n      0x04\n      add\n      tag_151\n      swap1\n      tag_156\n      jump\t// in\n    tag_189:\n        /* \"NFT-Contracts/new/final_market_Multi_nft.sol\":16384:16393  msg.value */\n      callvalue\n        /* \"NFT-Contracts/new/final_market_Multi_nft.sol\":5352:5353  0 */\n      0x00\n        /* \"NFT-Contracts/new/final_market_Multi_nft.sol\":5343:5349  _price */\n      dup2\n        /* \"NFT-Contracts/new/final_market_Multi_nft.sol\":5343:5353  _price > 0 */\n      gt\n        /* \"NFT-Contracts/new/final_market_Multi_nft.sol\":5335:5375  require(_price > 0, \"Price cannot be 0\") */\n      tag_192\n      jumpi\n      mload(0x40)\n      shl(0xe5, 0x461bcd)\n      dup2\n      mstore\n      0x04\n      add\n      tag_151\n      swap1\n      tag_160\n      jump\t// in\n    tag_192:\n      sub(shl(0xa0, 0x01), 0x01)\n        /* \"NFT-Contracts/new/final_market_Multi_nft.sol\":7589:7632  nftContractAuctionSale[_nftContractAddress] */\n      dup1\n      dup10\n      and\n        /* \"NFT-Contracts/new/final_market_Multi_nft.sol\":7538:7560  uint256 _finalBidPrice */\n      0x00\n        /* \"NFT-Contracts/new/final_market_Multi_nft.sol\":7589:7632  nftContractAuctionSale[_nftContractAddress] */\n      swap1\n      dup2\n      mstore\n        /* \"NFT-Contracts/new/final_market_Multi_nft.sol\":7589:7611  nftContractAuctionSale */\n      0x03\n        /* \"NFT-Contracts/new/final_market_Multi_nft.sol\":7589:7632  nftContractAuctionSale[_nftContractAddress] */\n      0x20\n      swap1\n      dup2\n      mstore\n      0x40\n      dup1\n      dup4\n      keccak256\n        /* \"NFT-Contracts/new/final_market_Multi_nft.sol\":7589:7642  nftContractAuctionSale[_nftContractAddress][_tokenId] */\n      dup12\n      dup5\n      mstore\n      swap1\n      swap2\n      mstore\n      dup2\n      keccak256\n        /* \"NFT-Contracts/new/final_market_Multi_nft.sol\":7589:7648  nftContractAuctionSale[_nftContractAddress][_tokenId].erc20 */\n      0x07\n      add\n      sload\n        /* \"NFT-Contracts/new/final_market_Multi_nft.sol\":16449:16468  _nftContractAddress */\n      dup11\n      swap3\n        /* \"NFT-Contracts/new/final_market_Multi_nft.sol\":16483:16491  _tokenId */\n      dup11\n      swap3\n        /* \"NFT-Contracts/new/final_market_Multi_nft.sol\":16506:16515  msg.value */\n      callvalue\n      swap3\n        /* \"NFT-Contracts/new/final_market_Multi_nft.sol\":16530:16545  _updateBidPrice */\n      dup12\n      swap3\n        /* \"NFT-Contracts/new/final_market_Multi_nft.sol\":7589:7648  nftContractAuctionSale[_nftContractAddress][_tokenId].erc20 */\n      and\n        /* \"NFT-Contracts/new/final_market_Multi_nft.sol\":7571:8008  if (\r... */\n      tag_195\n      jumpi\n      sub(shl(0xa0, 0x01), 0x01)\n        /* \"NFT-Contracts/new/final_market_Multi_nft.sol\":7719:7757  userBidPriceOnNFT[_nftContractAddress] */\n      dup6\n      and\n      0x00\n      swap1\n      dup2\n      mstore\n        /* \"NFT-Contracts/new/final_market_Multi_nft.sol\":7719:7736  userBidPriceOnNFT */\n      0x04\n        /* \"NFT-Contracts/new/final_market_Multi_nft.sol\":7719:7757  userBidPriceOnNFT[_nftContractAddress] */\n      0x20\n      swap1\n      dup2\n      mstore\n      0x40\n      dup1\n      dup4\n      keccak256\n        /* \"NFT-Contracts/new/final_market_Multi_nft.sol\":7719:7767  userBidPriceOnNFT[_nftContractAddress][_tokenId] */\n      dup8\n      dup5\n      mstore\n      dup3\n      mstore\n      dup1\n      dup4\n      keccak256\n        /* \"NFT-Contracts/new/final_market_Multi_nft.sol\":7786:7796  msg.sender */\n      caller\n        /* \"NFT-Contracts/new/final_market_Multi_nft.sol\":7719:7811  userBidPriceOnNFT[_nftContractAddress][_tokenId][\r... */\n      dup5\n      mstore\n      swap1\n      swap2\n      mstore\n      swap1\n      keccak256\n      sload\n        /* \"NFT-Contracts/new/final_market_Multi_nft.sol\":7719:7832  userBidPriceOnNFT[_nftContractAddress][_tokenId][\r... */\n      tag_196\n      swap1\n        /* \"NFT-Contracts/new/final_market_Multi_nft.sol\":7816:7831  _updateBidPrice */\n      dup5\n        /* \"NFT-Contracts/new/final_market_Multi_nft.sol\":7719:7815  userBidPriceOnNFT[_nftContractAddress][_tokenId][\r... */\n      tag_197\n        /* \"NFT-Contracts/new/final_market_Multi_nft.sol\":7719:7832  userBidPriceOnNFT[_nftContractAddress][_tokenId][\r... */\n      jump\t// in\n    tag_196:\n        /* \"NFT-Contracts/new/final_market_Multi_nft.sol\":7702:7832  _finalBidPrice = userBidPriceOnNFT[_nftContractAddress][_tokenId][\r... */\n      swap1\n      pop\n        /* \"NFT-Contracts/new/final_market_Multi_nft.sol\":7571:8008  if (\r... */\n      jump(tag_198)\n    tag_195:\n      sub(shl(0xa0, 0x01), 0x01)\n        /* \"NFT-Contracts/new/final_market_Multi_nft.sol\":7882:7920  userBidPriceOnNFT[_nftContractAddress] */\n      dup6\n      and\n      0x00\n      swap1\n      dup2\n      mstore\n        /* \"NFT-Contracts/new/final_market_Multi_nft.sol\":7882:7899  userBidPriceOnNFT */\n      0x04\n        /* \"NFT-Contracts/new/final_market_Multi_nft.sol\":7882:7920  userBidPriceOnNFT[_nftContractAddress] */\n      0x20\n      swap1\n      dup2\n      mstore\n      0x40\n      dup1\n      dup4\n      keccak256\n        /* \"NFT-Contracts/new/final_market_Multi_nft.sol\":7882:7930  userBidPriceOnNFT[_nftContractAddress][_tokenId] */\n      dup8\n      dup5\n      mstore\n      dup3\n      mstore\n      dup1\n      dup4\n      keccak256\n        /* \"NFT-Contracts/new/final_market_Multi_nft.sol\":7949:7959  msg.sender */\n      caller\n        /* \"NFT-Contracts/new/final_market_Multi_nft.sol\":7882:7974  userBidPriceOnNFT[_nftContractAddress][_tokenId][\r... */\n      dup5\n      mstore\n      swap1\n      swap2\n      mstore\n      swap1\n      keccak256\n      sload\n        /* \"NFT-Contracts/new/final_market_Multi_nft.sol\":7882:7996  userBidPriceOnNFT[_nftContractAddress][_tokenId][\r... */\n      tag_199\n      swap1\n        /* \"NFT-Contracts/new/final_market_Multi_nft.sol\":7979:7995  _updateBidPrice1 */\n      dup4\n        /* \"NFT-Contracts/new/final_market_Multi_nft.sol\":7882:7978  userBidPriceOnNFT[_nftContractAddress][_tokenId][\r... */\n      tag_197\n        /* \"NFT-Contracts/new/final_market_Multi_nft.sol\":7882:7996  userBidPriceOnNFT[_nftContractAddress][_tokenId][\r... */\n      jump\t// in\n    tag_199:\n        /* \"NFT-Contracts/new/final_market_Multi_nft.sol\":7865:7996  _finalBidPrice = userBidPriceOnNFT[_nftContractAddress][_tokenId][\r... */\n      swap1\n      pop\n        /* \"NFT-Contracts/new/final_market_Multi_nft.sol\":7571:8008  if (\r... */\n    tag_198:\n      sub(shl(0xa0, 0x01), 0x01)\n        /* \"NFT-Contracts/new/final_market_Multi_nft.sol\":8074:8117  nftContractAuctionSale[_nftContractAddress] */\n      dup6\n      and\n      0x00\n      swap1\n      dup2\n      mstore\n        /* \"NFT-Contracts/new/final_market_Multi_nft.sol\":8074:8096  nftContractAuctionSale */\n      0x03\n        /* \"NFT-Contracts/new/final_market_Multi_nft.sol\":8074:8117  nftContractAuctionSale[_nftContractAddress] */\n      0x20\n      dup2\n      dup2\n      mstore\n      0x40\n      dup1\n      dup5\n      keccak256\n        /* \"NFT-Contracts/new/final_market_Multi_nft.sol\":8074:8127  nftContractAuctionSale[_nftContractAddress][_tokenId] */\n      dup9\n      dup6\n      mstore\n      swap1\n      swap2\n      mstore\n      swap1\n      swap2\n      keccak256\n        /* \"NFT-Contracts/new/final_market_Multi_nft.sol\":8074:8163  nftContractAuctionSale[_nftContractAddress][_tokenId]\r... */\n      add\n      sload\n        /* \"NFT-Contracts/new/final_market_Multi_nft.sol\":8040:8163  _finalBidPrice >\r... */\n      dup2\n      gt\n        /* \"NFT-Contracts/new/final_market_Multi_nft.sol\":8018:8220  require(\r... */\n      tag_200\n      jumpi\n      mload(0x40)\n      shl(0xe5, 0x461bcd)\n      dup2\n      mstore\n      0x04\n      add\n      tag_151\n      swap1\n      tag_165\n      jump\t// in\n    tag_200:\n      sub(shl(0xa0, 0x01), 0x01)\n        /* \"NFT-Contracts/new/final_market_Multi_nft.sol\":16693:16730  userBidPriceOnNFT[nftContractAddress] */\n      dup14\n      and\n        /* \"NFT-Contracts/new/final_market_Multi_nft.sol\":16573:16599  address nftContractAddress */\n      0x00\n        /* \"NFT-Contracts/new/final_market_Multi_nft.sol\":16693:16730  userBidPriceOnNFT[nftContractAddress] */\n      swap1\n      dup2\n      mstore\n        /* \"NFT-Contracts/new/final_market_Multi_nft.sol\":16693:16710  userBidPriceOnNFT */\n      0x04\n        /* \"NFT-Contracts/new/final_market_Multi_nft.sol\":16693:16730  userBidPriceOnNFT[nftContractAddress] */\n      0x20\n      swap1\n      dup2\n      mstore\n      0x40\n      dup1\n      dup4\n      keccak256\n        /* \"NFT-Contracts/new/final_market_Multi_nft.sol\":16693:16739  userBidPriceOnNFT[nftContractAddress][tokenId] */\n      dup16\n      dup5\n      mstore\n      dup3\n      mstore\n      dup1\n      dup4\n      keccak256\n        /* \"NFT-Contracts/new/final_market_Multi_nft.sol\":16754:16764  msg.sender */\n      caller\n        /* \"NFT-Contracts/new/final_market_Multi_nft.sol\":16693:16775  userBidPriceOnNFT[nftContractAddress][tokenId][\r... */\n      dup5\n      mstore\n      swap1\n      swap2\n      mstore\n      dup2\n      keccak256\n      sload\n        /* \"NFT-Contracts/new/final_market_Multi_nft.sol\":16602:16621  _nftContractAddress */\n      dup15\n      swap2\n        /* \"NFT-Contracts/new/final_market_Multi_nft.sol\":16650:16658  _tokenId */\n      dup15\n      swap2\n        /* \"NFT-Contracts/new/final_market_Multi_nft.sol\":16693:16796  userBidPriceOnNFT[nftContractAddress][tokenId][\r... */\n      tag_203\n      swap1\n        /* \"NFT-Contracts/new/final_market_Multi_nft.sol\":16780:16795  _updateBidPrice */\n      dup16\n        /* \"NFT-Contracts/new/final_market_Multi_nft.sol\":16693:16779  userBidPriceOnNFT[nftContractAddress][tokenId][\r... */\n      tag_197\n        /* \"NFT-Contracts/new/final_market_Multi_nft.sol\":16693:16796  userBidPriceOnNFT[nftContractAddress][tokenId][\r... */\n      jump\t// in\n    tag_203:\n      sub(shl(0xa0, 0x01), 0x01)\n        /* \"NFT-Contracts/new/final_market_Multi_nft.sol\":16827:16869  nftContractAuctionSale[nftContractAddress] */\n      dup5\n      dup2\n      and\n        /* \"NFT-Contracts/new/final_market_Multi_nft.sol\":16909:16910  0 */\n      0x00\n        /* \"NFT-Contracts/new/final_market_Multi_nft.sol\":16827:16869  nftContractAuctionSale[nftContractAddress] */\n      swap1\n      dup2\n      mstore\n        /* \"NFT-Contracts/new/final_market_Multi_nft.sol\":16827:16849  nftContractAuctionSale */\n      0x03\n        /* \"NFT-Contracts/new/final_market_Multi_nft.sol\":16827:16869  nftContractAuctionSale[nftContractAddress] */\n      0x20\n      swap1\n      dup2\n      mstore\n      0x40\n      dup1\n      dup4\n      keccak256\n        /* \"NFT-Contracts/new/final_market_Multi_nft.sol\":16827:16878  nftContractAuctionSale[nftContractAddress][tokenId] */\n      dup8\n      dup5\n      mstore\n      swap1\n      swap2\n      mstore\n      swap1\n      keccak256\n        /* \"NFT-Contracts/new/final_market_Multi_nft.sol\":16827:16884  nftContractAuctionSale[nftContractAddress][tokenId].erc20 */\n      0x07\n      add\n      sload\n        /* \"NFT-Contracts/new/final_market_Multi_nft.sol\":16669:16796  uint256 finalBidPrice = userBidPriceOnNFT[nftContractAddress][tokenId][\r... */\n      swap2\n      swap3\n      pop\n        /* \"NFT-Contracts/new/final_market_Multi_nft.sol\":16827:16884  nftContractAuctionSale[nftContractAddress][tokenId].erc20 */\n      and\n        /* \"NFT-Contracts/new/final_market_Multi_nft.sol\":16827:16911  nftContractAuctionSale[nftContractAddress][tokenId].erc20 !=\r... */\n      iszero\n        /* \"NFT-Contracts/new/final_market_Multi_nft.sol\":16809:17093  if (\r... */\n      tag_205\n      jumpi\n        /* \"NFT-Contracts/new/final_market_Multi_nft.sol\":16938:17081  _bidAmountTransfer(\r... */\n      tag_205\n        /* \"NFT-Contracts/new/final_market_Multi_nft.sol\":16975:16990  _updateBidPrice */\n      dup15\n        /* \"NFT-Contracts/new/final_market_Multi_nft.sol\":17009:17031  nftContractAuctionSale */\n      0x03\n        /* \"NFT-Contracts/new/final_market_Multi_nft.sol\":17009:17051  nftContractAuctionSale[nftContractAddress] */\n      0x00\n        /* \"NFT-Contracts/new/final_market_Multi_nft.sol\":17032:17050  nftContractAddress */\n      dup7\n      sub(shl(0xa0, 0x01), 0x01)\n        /* \"NFT-Contracts/new/final_market_Multi_nft.sol\":17009:17051  nftContractAuctionSale[nftContractAddress] */\n      and\n      sub(shl(0xa0, 0x01), 0x01)\n      and\n      dup2\n      mstore\n      0x20\n      add\n      swap1\n      dup2\n      mstore\n      0x20\n      add\n      0x00\n      keccak256\n        /* \"NFT-Contracts/new/final_market_Multi_nft.sol\":17009:17060  nftContractAuctionSale[nftContractAddress][tokenId] */\n      0x00\n        /* \"NFT-Contracts/new/final_market_Multi_nft.sol\":17052:17059  tokenId */\n      dup6\n        /* \"NFT-Contracts/new/final_market_Multi_nft.sol\":17009:17060  nftContractAuctionSale[nftContractAddress][tokenId] */\n      dup2\n      mstore\n      0x20\n      add\n      swap1\n      dup2\n      mstore\n      0x20\n      add\n      0x00\n      keccak256\n        /* \"NFT-Contracts/new/final_market_Multi_nft.sol\":17009:17066  nftContractAuctionSale[nftContractAddress][tokenId].erc20 */\n      0x07\n      add\n      0x00\n      swap1\n      sload\n      swap1\n      0x0100\n      exp\n      swap1\n      div\n      sub(shl(0xa0, 0x01), 0x01)\n      and\n        /* \"NFT-Contracts/new/final_market_Multi_nft.sol\":16938:16956  _bidAmountTransfer */\n      tag_172\n        /* \"NFT-Contracts/new/final_market_Multi_nft.sol\":16938:17081  _bidAmountTransfer(\r... */\n      jump\t// in\n    tag_205:\n      sub(shl(0xa0, 0x01), 0x01)\n        /* \"NFT-Contracts/new/final_market_Multi_nft.sol\":17105:17147  nftContractAuctionSale[nftContractAddress] */\n      dup4\n      and\n      0x00\n      dup2\n      dup2\n      mstore\n        /* \"NFT-Contracts/new/final_market_Multi_nft.sol\":17105:17127  nftContractAuctionSale */\n      0x03\n        /* \"NFT-Contracts/new/final_market_Multi_nft.sol\":17105:17147  nftContractAuctionSale[nftContractAddress] */\n      0x20\n      dup2\n      dup2\n      mstore\n      0x40\n      dup1\n      dup5\n      keccak256\n        /* \"NFT-Contracts/new/final_market_Multi_nft.sol\":17105:17156  nftContractAuctionSale[nftContractAddress][tokenId] */\n      dup8\n      dup6\n      mstore\n      dup3\n      mstore\n      dup1\n      dup5\n      keccak256\n        /* \"NFT-Contracts/new/final_market_Multi_nft.sol\":17105:17184  nftContractAuctionSale[nftContractAddress][tokenId]\r... */\n      swap3\n      dup4\n      add\n        /* \"NFT-Contracts/new/final_market_Multi_nft.sol\":17105:17200  nftContractAuctionSale[nftContractAddress][tokenId]\r... */\n      dup7\n      swap1\n      sstore\n        /* \"NFT-Contracts/new/final_market_Multi_nft.sol\":17211:17293  nftContractAuctionSale[nftContractAddress][tokenId]\r... */\n      0x05\n      swap1\n      swap3\n      add\n        /* \"NFT-Contracts/new/final_market_Multi_nft.sol\":17211:17306  nftContractAuctionSale[nftContractAddress][tokenId]\r... */\n      dup1\n      sload\n      not(sub(shl(0xa0, 0x01), 0x01))\n      and\n        /* \"NFT-Contracts/new/final_market_Multi_nft.sol\":17296:17306  msg.sender */\n      caller\n        /* \"NFT-Contracts/new/final_market_Multi_nft.sol\":17211:17306  nftContractAuctionSale[nftContractAddress][tokenId]\r... */\n      swap1\n      dup2\n      or\n      swap1\n      swap2\n      sstore\n        /* \"NFT-Contracts/new/final_market_Multi_nft.sol\":17319:17356  userBidPriceOnNFT[nftContractAddress] */\n      dup5\n      dup5\n      mstore\n        /* \"NFT-Contracts/new/final_market_Multi_nft.sol\":17319:17336  userBidPriceOnNFT */\n      0x04\n        /* \"NFT-Contracts/new/final_market_Multi_nft.sol\":17319:17356  userBidPriceOnNFT[nftContractAddress] */\n      dup3\n      mstore\n      dup3\n      dup5\n      keccak256\n        /* \"NFT-Contracts/new/final_market_Multi_nft.sol\":17319:17365  userBidPriceOnNFT[nftContractAddress][tokenId] */\n      dup8\n      dup6\n      mstore\n      dup3\n      mstore\n      dup3\n      dup5\n      keccak256\n        /* \"NFT-Contracts/new/final_market_Multi_nft.sol\":17319:17401  userBidPriceOnNFT[nftContractAddress][tokenId][\r... */\n      dup2\n      dup6\n      mstore\n      dup3\n      mstore\n      swap3\n      dup3\n      swap1\n      keccak256\n        /* \"NFT-Contracts/new/final_market_Multi_nft.sol\":17319:17417  userBidPriceOnNFT[nftContractAddress][tokenId][\r... */\n      dup6\n      swap1\n      sstore\n        /* \"NFT-Contracts/new/final_market_Multi_nft.sol\":17435:17578  NftAuctionBidPriceUpdate(\r... */\n      dup2\n      mload\n        /* \"#utility.yul\":13596:13630   */\n      swap4\n      dup5\n      mstore\n        /* \"#utility.yul\":13646:13664   */\n      dup4\n      add\n        /* \"#utility.yul\":13639:13673   */\n      dup6\n      swap1\n      mstore\n        /* \"#utility.yul\":13689:13707   */\n      dup3\n      add\n        /* \"#utility.yul\":13682:13716   */\n      dup4\n      swap1\n      mstore\n        /* \"#utility.yul\":13747:13749   */\n      0x60\n        /* \"#utility.yul\":13732:13750   */\n      dup3\n      add\n        /* \"#utility.yul\":13725:13768   */\n      mstore\n        /* \"NFT-Contracts/new/final_market_Multi_nft.sol\":17435:17578  NftAuctionBidPriceUpdate(\r... */\n      0x907cdadc7c1a8abcdd80cdd85eb18377631e4f413fb6397a8252ff7b358ac6cb\n      swap1\n        /* \"#utility.yul\":13545:13548   */\n      0x80\n        /* \"#utility.yul\":13530:13549   */\n      add\n        /* \"NFT-Contracts/new/final_market_Multi_nft.sol\":17435:17578  NftAuctionBidPriceUpdate(\r... */\n      mload(0x40)\n      dup1\n      swap2\n      sub\n      swap1\n      log1\n        /* \"NFT-Contracts/new/final_market_Multi_nft.sol\":16562:17586  {\r... */\n      pop\n      pop\n      pop\n        /* \"NFT-Contracts/new/final_market_Multi_nft.sol\":7527:8240  {\r... */\n      pop\n        /* \"NFT-Contracts/new/final_market_Multi_nft.sol\":5386:5387  _ */\n      pop\n      pop\n      pop\n      pop\n        /* \"NFT-Contracts/new/final_market_Multi_nft.sol\":7030:7031  _ */\n      pop\n        /* \"NFT-Contracts/new/final_market_Multi_nft.sol\":5622:5623  _ */\n      pop\n      pop\n        /* \"NFT-Contracts/new/final_market_Multi_nft.sol\":16070:17586  function updateTheBidPrice(\r... */\n      pop\n      pop\n      pop\n      pop\n      pop\n      jump\t// out\n        /* \"NFT-Contracts/new/final_market_Multi_nft.sol\":13301:14869  function createNftAuctionSale(\r... */\n    tag_59:\n        /* \"NFT-Contracts/new/final_market_Multi_nft.sol\":13622:13641  _nftContractAddress */\n      dup8\n        /* \"NFT-Contracts/new/final_market_Multi_nft.sol\":13643:13651  _tokenId */\n      dup7\n        /* \"NFT-Contracts/new/final_market_Multi_nft.sol\":4116:4155  _ownerOf(_nftContractAddress, _tokenId) */\n      tag_208\n        /* \"NFT-Contracts/new/final_market_Multi_nft.sol\":4125:4144  _nftContractAddress */\n      dup3\n        /* \"NFT-Contracts/new/final_market_Multi_nft.sol\":4146:4154  _tokenId */\n      dup3\n        /* \"NFT-Contracts/new/final_market_Multi_nft.sol\":4116:4124  _ownerOf */\n      tag_209\n        /* \"NFT-Contracts/new/final_market_Multi_nft.sol\":4116:4155  _ownerOf(_nftContractAddress, _tokenId) */\n      jump\t// in\n    tag_208:\n        /* \"NFT-Contracts/new/final_market_Multi_nft.sol\":4094:4204  require(\r... */\n      tag_210\n      jumpi\n      mload(0x40)\n      shl(0xe5, 0x461bcd)\n      dup2\n      mstore\n      0x04\n      add\n      tag_151\n      swap1\n      tag_212\n      jump\t// in\n    tag_210:\n      sub(shl(0xa0, 0x01), 0x01)\n        /* \"NFT-Contracts/new/final_market_Multi_nft.sol\":3652:3686  nftSaleStatus[_nftContractAddress] */\n      dup11\n      and\n      0x00\n      swap1\n      dup2\n      mstore\n        /* \"NFT-Contracts/new/final_market_Multi_nft.sol\":3652:3665  nftSaleStatus */\n      0x01\n        /* \"NFT-Contracts/new/final_market_Multi_nft.sol\":3652:3686  nftSaleStatus[_nftContractAddress] */\n      0x20\n      swap1\n      dup2\n      mstore\n      0x40\n      dup1\n      dup4\n      keccak256\n        /* \"NFT-Contracts/new/final_market_Multi_nft.sol\":3652:3696  nftSaleStatus[_nftContractAddress][_tokenId] */\n      dup12\n      dup5\n      mstore\n      swap1\n      swap2\n      mstore\n      swap1\n      keccak256\n      sload\n        /* \"NFT-Contracts/new/final_market_Multi_nft.sol\":13681:13700  _nftContractAddress */\n      dup11\n      swap1\n        /* \"NFT-Contracts/new/final_market_Multi_nft.sol\":13702:13710  _tokenId */\n      dup10\n      swap1\n        /* \"NFT-Contracts/new/final_market_Multi_nft.sol\":3652:3701  nftSaleStatus[_nftContractAddress][_tokenId] == 0 */\n      iszero\n        /* \"NFT-Contracts/new/final_market_Multi_nft.sol\":3630:3748  require(\r... */\n      tag_214\n      jumpi\n      mload(0x40)\n      shl(0xe5, 0x461bcd)\n      dup2\n      mstore\n        /* \"#utility.yul\":18741:18743   */\n      0x20\n        /* \"NFT-Contracts/new/final_market_Multi_nft.sol\":3630:3748  require(\r... */\n      0x04\n      dup3\n      add\n        /* \"#utility.yul\":18723:18744   */\n      mstore\n        /* \"#utility.yul\":18780:18782   */\n      0x13\n        /* \"#utility.yul\":18760:18778   */\n      0x24\n      dup3\n      add\n        /* \"#utility.yul\":18753:18783   */\n      mstore\n      shl(0x68, 0x4e667420616c726561647920696e2073616c65)\n        /* \"#utility.yul\":18799:18817   */\n      0x44\n      dup3\n      add\n        /* \"#utility.yul\":18792:18841   */\n      mstore\n        /* \"#utility.yul\":18858:18876   */\n      0x64\n      add\n        /* \"NFT-Contracts/new/final_market_Multi_nft.sol\":3630:3748  require(\r... */\n      tag_151\n        /* \"#utility.yul\":18539:18882   */\n      jump\n        /* \"NFT-Contracts/new/final_market_Multi_nft.sol\":3630:3748  require(\r... */\n    tag_214:\n        /* \"NFT-Contracts/new/final_market_Multi_nft.sol\":4616:4738  IERC1155(_nftContractAddress).isApprovedForAll(\r... */\n      mload(0x40)\n      shl(0xe0, 0xe985e9c5)\n      dup2\n      mstore\n        /* \"NFT-Contracts/new/final_market_Multi_nft.sol\":4681:4691  msg.sender */\n      caller\n        /* \"NFT-Contracts/new/final_market_Multi_nft.sol\":4616:4738  IERC1155(_nftContractAddress).isApprovedForAll(\r... */\n      0x04\n      dup3\n      add\n        /* \"#utility.yul\":8529:8563   */\n      mstore\n        /* \"NFT-Contracts/new/final_market_Multi_nft.sol\":4718:4722  this */\n      address\n        /* \"#utility.yul\":8579:8597   */\n      0x24\n      dup3\n      add\n        /* \"#utility.yul\":8572:8615   */\n      mstore\n        /* \"NFT-Contracts/new/final_market_Multi_nft.sol\":13739:13758  _nftContractAddress */\n      dup13\n      swap1\n        /* \"NFT-Contracts/new/final_market_Multi_nft.sol\":13760:13768  _tokenId */\n      dup12\n      swap1\n      sub(shl(0xa0, 0x01), 0x01)\n        /* \"NFT-Contracts/new/final_market_Multi_nft.sol\":4616:4662  IERC1155(_nftContractAddress).isApprovedForAll */\n      dup4\n      and\n      swap1\n      0xe985e9c5\n      swap1\n        /* \"#utility.yul\":8464:8482   */\n      0x44\n      add\n        /* \"NFT-Contracts/new/final_market_Multi_nft.sol\":4616:4738  IERC1155(_nftContractAddress).isApprovedForAll(\r... */\n      0x20\n      mload(0x40)\n      dup1\n      dup4\n      sub\n      dup2\n      dup7\n      dup1\n      extcodesize\n      iszero\n      dup1\n      iszero\n      tag_220\n      jumpi\n      0x00\n      dup1\n      revert\n    tag_220:\n      pop\n      gas\n      staticcall\n      iszero\n      dup1\n      iszero\n      tag_222\n      jumpi\n      returndatasize\n      0x00\n      dup1\n      returndatacopy\n      revert(0x00, returndatasize)\n    tag_222:\n      pop\n      pop\n      pop\n      pop\n      mload(0x40)\n      returndatasize\n      not(0x1f)\n      0x1f\n      dup3\n      add\n      and\n      dup3\n      add\n      dup1\n      0x40\n      mstore\n      pop\n      dup2\n      add\n      swap1\n      tag_223\n      swap2\n      swap1\n      tag_148\n      jump\t// in\n    tag_223:\n        /* \"NFT-Contracts/new/final_market_Multi_nft.sol\":4594:4794  require(\r... */\n      tag_224\n      jumpi\n      mload(0x40)\n      shl(0xe5, 0x461bcd)\n      dup2\n      mstore\n        /* \"#utility.yul\":15550:15552   */\n      0x20\n        /* \"NFT-Contracts/new/final_market_Multi_nft.sol\":4594:4794  require(\r... */\n      0x04\n      dup3\n      add\n        /* \"#utility.yul\":15532:15553   */\n      mstore\n        /* \"#utility.yul\":15589:15591   */\n      0x1c\n        /* \"#utility.yul\":15569:15587   */\n      0x24\n      dup3\n      add\n        /* \"#utility.yul\":15562:15592   */\n      mstore\n        /* \"#utility.yul\":15628:15658   */\n      0x4e6674206e6f7420617070726f76656420746f20636f6e747261637400000000\n        /* \"#utility.yul\":15608:15626   */\n      0x44\n      dup3\n      add\n        /* \"#utility.yul\":15601:15659   */\n      mstore\n        /* \"#utility.yul\":15676:15694   */\n      0x64\n      add\n        /* \"NFT-Contracts/new/final_market_Multi_nft.sol\":4594:4794  require(\r... */\n      tag_151\n        /* \"#utility.yul\":15348:15700   */\n      jump\n        /* \"NFT-Contracts/new/final_market_Multi_nft.sol\":4594:4794  require(\r... */\n    tag_224:\n        /* \"NFT-Contracts/new/final_market_Multi_nft.sol\":13800:13809  _minPrice */\n      dup9\n        /* \"NFT-Contracts/new/final_market_Multi_nft.sol\":5352:5353  0 */\n      0x00\n        /* \"NFT-Contracts/new/final_market_Multi_nft.sol\":5343:5349  _price */\n      dup2\n        /* \"NFT-Contracts/new/final_market_Multi_nft.sol\":5343:5353  _price > 0 */\n      gt\n        /* \"NFT-Contracts/new/final_market_Multi_nft.sol\":5335:5375  require(_price > 0, \"Price cannot be 0\") */\n      tag_228\n      jumpi\n      mload(0x40)\n      shl(0xe5, 0x461bcd)\n      dup2\n      mstore\n      0x04\n      add\n      tag_151\n      swap1\n      tag_160\n      jump\t// in\n    tag_228:\n        /* \"NFT-Contracts/new/final_market_Multi_nft.sol\":13835:13848  _nftAmount!=0 */\n      dup9\n        /* \"NFT-Contracts/new/final_market_Multi_nft.sol\":13827:13864  require(_nftAmount!=0,\"zero invalid\") */\n      tag_231\n      jumpi\n      mload(0x40)\n      shl(0xe5, 0x461bcd)\n      dup2\n      mstore\n        /* \"#utility.yul\":17995:17997   */\n      0x20\n        /* \"NFT-Contracts/new/final_market_Multi_nft.sol\":13827:13864  require(_nftAmount!=0,\"zero invalid\") */\n      0x04\n      dup3\n      add\n        /* \"#utility.yul\":17977:17998   */\n      mstore\n        /* \"#utility.yul\":18034:18036   */\n      0x0c\n        /* \"#utility.yul\":18014:18032   */\n      0x24\n      dup3\n      add\n        /* \"#utility.yul\":18007:18037   */\n      mstore\n      shl(0xa2, 0x1e995c9bc81a5b9d985b1a59)\n        /* \"#utility.yul\":18053:18071   */\n      0x44\n      dup3\n      add\n        /* \"#utility.yul\":18046:18088   */\n      mstore\n        /* \"#utility.yul\":18105:18123   */\n      0x64\n      add\n        /* \"NFT-Contracts/new/final_market_Multi_nft.sol\":13827:13864  require(_nftAmount!=0,\"zero invalid\") */\n      tag_151\n        /* \"#utility.yul\":17793:18129   */\n      jump\n        /* \"NFT-Contracts/new/final_market_Multi_nft.sol\":13827:13864  require(_nftAmount!=0,\"zero invalid\") */\n    tag_231:\n        /* \"NFT-Contracts/new/final_market_Multi_nft.sol\":13914:13933  _nftContractAddress */\n      dup15\n        /* \"NFT-Contracts/new/final_market_Multi_nft.sol\":13960:13966  _erc20 */\n      dup15\n        /* \"NFT-Contracts/new/final_market_Multi_nft.sol\":13996:14004  _tokenId */\n      dup15\n        /* \"NFT-Contracts/new/final_market_Multi_nft.sol\":14038:14051  _auctionStart */\n      dup15\n        /* \"NFT-Contracts/new/final_market_Multi_nft.sol\":14087:14098  _auctionEnd */\n      dup15\n        /* \"NFT-Contracts/new/final_market_Multi_nft.sol\":14135:14144  _minPrice */\n      dup15\n        /* \"NFT-Contracts/new/final_market_Multi_nft.sol\":14181:14191  _nftAmount */\n      dup15\n        /* \"NFT-Contracts/new/final_market_Multi_nft.sol\":14234:14239  _data */\n      dup15\n        /* \"NFT-Contracts/new/final_market_Multi_nft.sol\":14261:14489  _storedNftAuctionDetails(\r... */\n      tag_234\n        /* \"NFT-Contracts/new/final_market_Multi_nft.sol\":13914:13933  _nftContractAddress */\n      dup9\n        /* \"NFT-Contracts/new/final_market_Multi_nft.sol\":13960:13966  _erc20 */\n      dup9\n        /* \"NFT-Contracts/new/final_market_Multi_nft.sol\":13996:14004  _tokenId */\n      dup9\n        /* \"NFT-Contracts/new/final_market_Multi_nft.sol\":14038:14051  _auctionStart */\n      dup9\n        /* \"NFT-Contracts/new/final_market_Multi_nft.sol\":14087:14098  _auctionEnd */\n      dup9\n        /* \"NFT-Contracts/new/final_market_Multi_nft.sol\":14135:14144  _minPrice */\n      dup9\n        /* \"NFT-Contracts/new/final_market_Multi_nft.sol\":14181:14191  _nftAmount */\n      dup9\n        /* \"NFT-Contracts/new/final_market_Multi_nft.sol\":14234:14239  _data */\n      dup9\n        /* \"NFT-Contracts/new/final_market_Multi_nft.sol\":14261:14285  _storedNftAuctionDetails */\n      tag_235\n        /* \"NFT-Contracts/new/final_market_Multi_nft.sol\":14261:14489  _storedNftAuctionDetails(\r... */\n      jump\t// in\n    tag_234:\n        /* \"NFT-Contracts/new/final_market_Multi_nft.sol\":14553:14567  auctionSaleNFT */\n      0x07\n        /* \"NFT-Contracts/new/final_market_Multi_nft.sol\":14553:14574  auctionSaleNFT.length */\n      dup1\n      sload\n      sub(shl(0xa0, 0x01), 0x01)\n        /* \"NFT-Contracts/new/final_market_Multi_nft.sol\":14502:14541  indexAuctionSaleNFT[nftContractAddress] */\n      dup11\n      dup2\n      and\n      0x00\n      dup2\n      dup2\n      mstore\n        /* \"NFT-Contracts/new/final_market_Multi_nft.sol\":14502:14521  indexAuctionSaleNFT */\n      0x05\n        /* \"NFT-Contracts/new/final_market_Multi_nft.sol\":14502:14541  indexAuctionSaleNFT[nftContractAddress] */\n      0x20\n      swap1\n      dup2\n      mstore\n      0x40\n      dup1\n      dup4\n      keccak256\n        /* \"NFT-Contracts/new/final_market_Multi_nft.sol\":14502:14550  indexAuctionSaleNFT[nftContractAddress][tokenId] */\n      dup14\n      dup5\n      mstore\n      dup3\n      mstore\n      dup1\n      dup4\n      keccak256\n        /* \"NFT-Contracts/new/final_market_Multi_nft.sol\":14502:14574  indexAuctionSaleNFT[nftContractAddress][tokenId] = auctionSaleNFT.length */\n      dup7\n      swap1\n      sstore\n        /* \"NFT-Contracts/new/final_market_Multi_nft.sol\":14605:14642  SaleInfo(nftContractAddress, tokenId) */\n      dup1\n      mload\n      dup1\n      dup3\n      add\n      dup3\n      mstore\n      swap4\n      dup5\n      mstore\n      swap1\n      dup4\n      add\n      dup13\n      dup2\n      mstore\n        /* \"NFT-Contracts/new/final_market_Multi_nft.sol\":14585:14643  auctionSaleNFT.push(SaleInfo(nftContractAddress, tokenId)) */\n      0x01\n      dup7\n      add\n      dup8\n      sstore\n      swap6\n      swap1\n      swap2\n      mstore\n      swap1\n      mload\n      0xa66cc928b5edb82af9bd49922954155ab7b0942694bea4ce44661d9a8736c688\n      0x02\n      swap1\n      swap5\n      mul\n      swap4\n      dup5\n      add\n      dup1\n      sload\n      not(sub(shl(0xa0, 0x01), 0x01))\n      and\n      swap2\n      swap1\n      swap4\n      and\n      or\n      swap1\n      swap2\n      sstore\n      swap2\n      mload\n      0xa66cc928b5edb82af9bd49922954155ab7b0942694bea4ce44661d9a8736c689\n      swap1\n      swap2\n      add\n      sstore\n        /* \"NFT-Contracts/new/final_market_Multi_nft.sol\":14661:14861  NftAuctionSale(\r... */\n      mload\n      0xecbc6a097da08dbf6f781ce204aad454ce3dc8f112c51c7a56f1671de89cee8c\n      swap1\n      tag_237\n      swap1\n        /* \"NFT-Contracts/new/final_market_Multi_nft.sol\":14502:14541  indexAuctionSaleNFT[nftContractAddress] */\n      dup11\n      swap1\n        /* \"NFT-Contracts/new/final_market_Multi_nft.sol\":14723:14733  msg.sender */\n      caller\n      swap1\n        /* \"NFT-Contracts/new/final_market_Multi_nft.sol\":14748:14753  erc20 */\n      dup12\n      swap1\n        /* \"NFT-Contracts/new/final_market_Multi_nft.sol\":14502:14550  indexAuctionSaleNFT[nftContractAddress][tokenId] */\n      dup12\n      swap1\n        /* \"NFT-Contracts/new/final_market_Multi_nft.sol\":14790:14802  auctionStart */\n      dup12\n      swap1\n        /* \"NFT-Contracts/new/final_market_Multi_nft.sol\":14817:14827  auctionEnd */\n      dup12\n      swap1\n        /* \"NFT-Contracts/new/final_market_Multi_nft.sol\":14842:14850  minPrice */\n      dup12\n      swap1\n        /* \"NFT-Contracts/new/final_market_Multi_nft.sol\":14661:14861  NftAuctionSale(\r... */\n      tag_238\n      jump\t// in\n    tag_237:\n      mload(0x40)\n      dup1\n      swap2\n      sub\n      swap1\n      log1\n        /* \"NFT-Contracts/new/final_market_Multi_nft.sol\":13816:14869  {\r... */\n      pop\n      pop\n      pop\n      pop\n      pop\n      pop\n      pop\n      pop\n        /* \"NFT-Contracts/new/final_market_Multi_nft.sol\":4805:4806  _ */\n      pop\n        /* \"NFT-Contracts/new/final_market_Multi_nft.sol\":3759:3760  _ */\n      pop\n      pop\n        /* \"NFT-Contracts/new/final_market_Multi_nft.sol\":4215:4216  _ */\n      pop\n      pop\n        /* \"NFT-Contracts/new/final_market_Multi_nft.sol\":13301:14869  function createNftAuctionSale(\r... */\n      pop\n      pop\n      pop\n      pop\n      pop\n      pop\n      pop\n      pop\n      pop\n      pop\n      jump\t// out\n        /* \"NFT-Contracts/new/final_market_Multi_nft.sol\":11188:11766  function updateFixedSalePrice(\r... */\n    tag_63:\n      sub(shl(0xa0, 0x01), 0x01)\n        /* \"NFT-Contracts/new/final_market_Multi_nft.sol\":3882:3916  nftSaleStatus[_nftContractAddress] */\n      dup4\n      and\n      0x00\n      swap1\n      dup2\n      mstore\n        /* \"NFT-Contracts/new/final_market_Multi_nft.sol\":3882:3895  nftSaleStatus */\n      0x01\n        /* \"NFT-Contracts/new/final_market_Multi_nft.sol\":3882:3916  nftSaleStatus[_nftContractAddress] */\n      0x20\n      dup2\n      dup2\n      mstore\n      0x40\n      dup1\n      dup5\n      keccak256\n        /* \"NFT-Contracts/new/final_market_Multi_nft.sol\":3882:3926  nftSaleStatus[_nftContractAddress][_tokenId] */\n      dup7\n      dup6\n      mstore\n      swap1\n      swap2\n      mstore\n      swap1\n      swap2\n      keccak256\n      sload\n        /* \"NFT-Contracts/new/final_market_Multi_nft.sol\":11369:11388  _nftContractAddress */\n      dup5\n      swap2\n        /* \"NFT-Contracts/new/final_market_Multi_nft.sol\":11390:11398  _tokenId */\n      dup5\n      swap2\n        /* \"NFT-Contracts/new/final_market_Multi_nft.sol\":3882:3931  nftSaleStatus[_nftContractAddress][_tokenId] == 1 */\n      eq\n        /* \"NFT-Contracts/new/final_market_Multi_nft.sol\":3860:3980  require(\r... */\n      tag_240\n      jumpi\n      mload(0x40)\n      shl(0xe5, 0x461bcd)\n      dup2\n      mstore\n      0x04\n      add\n      tag_151\n      swap1\n      tag_242\n      jump\t// in\n    tag_240:\n      sub(shl(0xa0, 0x01), 0x01)\n        /* \"NFT-Contracts/new/final_market_Multi_nft.sol\":4371:4412  nftContractFixedSale[_nftContractAddress] */\n      dup6\n      dup2\n      and\n        /* \"NFT-Contracts/new/final_market_Multi_nft.sol\":4371:4391  nftContractFixedSale */\n      0x00\n        /* \"NFT-Contracts/new/final_market_Multi_nft.sol\":4371:4412  nftContractFixedSale[_nftContractAddress] */\n      swap1\n      dup2\n      mstore\n      0x20\n      dup2\n      dup2\n      mstore\n      0x40\n      dup1\n      dup4\n      keccak256\n        /* \"NFT-Contracts/new/final_market_Multi_nft.sol\":4371:4422  nftContractFixedSale[_nftContractAddress][_tokenId] */\n      dup9\n      dup5\n      mstore\n      swap1\n      swap2\n      mstore\n      swap1\n      keccak256\n        /* \"NFT-Contracts/new/final_market_Multi_nft.sol\":4371:4432  nftContractFixedSale[_nftContractAddress][_tokenId].nftSeller */\n      sload\n        /* \"NFT-Contracts/new/final_market_Multi_nft.sol\":4371:4412  nftContractFixedSale[_nftContractAddress] */\n      dup7\n      swap2\n        /* \"NFT-Contracts/new/final_market_Multi_nft.sol\":4371:4422  nftContractFixedSale[_nftContractAddress][_tokenId] */\n      dup7\n      swap2\n        /* \"NFT-Contracts/new/final_market_Multi_nft.sol\":4371:4432  nftContractFixedSale[_nftContractAddress][_tokenId].nftSeller */\n      and\n        /* \"NFT-Contracts/new/final_market_Multi_nft.sol\":4340:4350  msg.sender */\n      caller\n        /* \"NFT-Contracts/new/final_market_Multi_nft.sol\":4340:4432  msg.sender ==\r... */\n      eq\n        /* \"NFT-Contracts/new/final_market_Multi_nft.sol\":4318:4481  require(\r... */\n      tag_244\n      jumpi\n      mload(0x40)\n      shl(0xe5, 0x461bcd)\n      dup2\n      mstore\n      0x04\n      add\n      tag_151\n      swap1\n      tag_212\n      jump\t// in\n    tag_244:\n        /* \"NFT-Contracts/new/final_market_Multi_nft.sol\":11489:11505  _updateSalePrice */\n      dup5\n        /* \"NFT-Contracts/new/final_market_Multi_nft.sol\":5352:5353  0 */\n      0x00\n        /* \"NFT-Contracts/new/final_market_Multi_nft.sol\":5343:5349  _price */\n      dup2\n        /* \"NFT-Contracts/new/final_market_Multi_nft.sol\":5343:5353  _price > 0 */\n      gt\n        /* \"NFT-Contracts/new/final_market_Multi_nft.sol\":5335:5375  require(_price > 0, \"Price cannot be 0\") */\n      tag_247\n      jumpi\n      mload(0x40)\n      shl(0xe5, 0x461bcd)\n      dup2\n      mstore\n      0x04\n      add\n      tag_151\n      swap1\n      tag_160\n      jump\t// in\n    tag_247:\n      sub(shl(0xa0, 0x01), 0x01)\n        /* \"NFT-Contracts/new/final_market_Multi_nft.sol\":11523:11564  nftContractFixedSale[_nftContractAddress] */\n      dup9\n      and\n        /* \"NFT-Contracts/new/final_market_Multi_nft.sol\":11523:11543  nftContractFixedSale */\n      0x00\n        /* \"NFT-Contracts/new/final_market_Multi_nft.sol\":11523:11564  nftContractFixedSale[_nftContractAddress] */\n      dup2\n      dup2\n      mstore\n      0x20\n      dup2\n      dup2\n      mstore\n      0x40\n      dup1\n      dup4\n      keccak256\n        /* \"NFT-Contracts/new/final_market_Multi_nft.sol\":11523:11574  nftContractFixedSale[_nftContractAddress][_tokenId] */\n      dup12\n      dup5\n      mstore\n      dup3\n      mstore\n      swap2\n      dup3\n      swap1\n      keccak256\n        /* \"NFT-Contracts/new/final_market_Multi_nft.sol\":11523:11598  nftContractFixedSale[_nftContractAddress][_tokenId]\r... */\n      0x04\n      add\n        /* \"NFT-Contracts/new/final_market_Multi_nft.sol\":11523:11617  nftContractFixedSale[_nftContractAddress][_tokenId]\r... */\n      dup10\n      swap1\n      sstore\n        /* \"NFT-Contracts/new/final_market_Multi_nft.sol\":11635:11758  NftFixedSalePriceUpdated(\r... */\n      dup2\n      mload\n        /* \"#utility.yul\":13179:13230   */\n      swap3\n      dup4\n      mstore\n        /* \"#utility.yul\":13246:13264   */\n      dup3\n      add\n        /* \"#utility.yul\":13239:13273   */\n      dup10\n      swap1\n      mstore\n        /* \"#utility.yul\":13289:13307   */\n      dup2\n      add\n        /* \"#utility.yul\":13282:13316   */\n      dup8\n      swap1\n      mstore\n        /* \"NFT-Contracts/new/final_market_Multi_nft.sol\":11635:11758  NftFixedSalePriceUpdated(\r... */\n      0x575a0876095ccf47276a37dce683308a625403d132d219f95205ce205b2e12bc\n      swap1\n        /* \"#utility.yul\":13167:13169   */\n      0x60\n        /* \"#utility.yul\":13152:13170   */\n      add\n        /* \"NFT-Contracts/new/final_market_Multi_nft.sol\":11635:11758  NftFixedSalePriceUpdated(\r... */\n    tag_250:\n      mload(0x40)\n      dup1\n      swap2\n      sub\n      swap1\n      log1\n        /* \"NFT-Contracts/new/final_market_Multi_nft.sol\":4492:4493  _ */\n      pop\n        /* \"NFT-Contracts/new/final_market_Multi_nft.sol\":3991:3992  _ */\n      pop\n      pop\n        /* \"NFT-Contracts/new/final_market_Multi_nft.sol\":11188:11766  function updateFixedSalePrice(\r... */\n      pop\n      pop\n      pop\n      pop\n      pop\n      jump\t// out\n        /* \"NFT-Contracts/new/final_market_Multi_nft.sol\":19547:20305  function withdrawBid(address _nftContractAddress, uint256 _tokenId)\r... */\n    tag_68:\n      sub(shl(0xa0, 0x01), 0x01)\n        /* \"NFT-Contracts/new/final_market_Multi_nft.sol\":5777:5820  nftContractAuctionSale[_nftContractAddress] */\n      dup3\n      and\n      0x00\n      swap1\n      dup2\n      mstore\n        /* \"NFT-Contracts/new/final_market_Multi_nft.sol\":5777:5799  nftContractAuctionSale */\n      0x03\n        /* \"NFT-Contracts/new/final_market_Multi_nft.sol\":5777:5820  nftContractAuctionSale[_nftContractAddress] */\n      0x20\n      swap1\n      dup2\n      mstore\n      0x40\n      dup1\n      dup4\n      keccak256\n        /* \"NFT-Contracts/new/final_market_Multi_nft.sol\":5777:5830  nftContractAuctionSale[_nftContractAddress][_tokenId] */\n      dup5\n      dup5\n      mstore\n      swap1\n      swap2\n      mstore\n      swap1\n      keccak256\n        /* \"NFT-Contracts/new/final_market_Multi_nft.sol\":5777:5863  nftContractAuctionSale[_nftContractAddress][_tokenId]\r... */\n      0x01\n      add\n      sload\n        /* \"NFT-Contracts/new/final_market_Multi_nft.sol\":19656:19675  _nftContractAddress */\n      dup3\n      swap1\n        /* \"NFT-Contracts/new/final_market_Multi_nft.sol\":19677:19685  _tokenId */\n      dup3\n      swap1\n        /* \"NFT-Contracts/new/final_market_Multi_nft.sol\":5742:5757  block.timestamp */\n      timestamp\n        /* \"NFT-Contracts/new/final_market_Multi_nft.sol\":5742:5863  block.timestamp >\r... */\n      gt\n        /* \"NFT-Contracts/new/final_market_Multi_nft.sol\":5720:5906  require(\r... */\n      tag_253\n      jumpi\n      mload(0x40)\n      shl(0xe5, 0x461bcd)\n      dup2\n      mstore\n        /* \"#utility.yul\":19774:19776   */\n      0x20\n        /* \"NFT-Contracts/new/final_market_Multi_nft.sol\":5720:5906  require(\r... */\n      0x04\n      dup3\n      add\n        /* \"#utility.yul\":19756:19777   */\n      mstore\n        /* \"#utility.yul\":19813:19815   */\n      0x0f\n        /* \"#utility.yul\":19793:19811   */\n      0x24\n      dup3\n      add\n        /* \"#utility.yul\":19786:19816   */\n      mstore\n      shl(0x8a, 0x105d58dd1a5bdb881b9bdd08195b99)\n        /* \"#utility.yul\":19832:19850   */\n      0x44\n      dup3\n      add\n        /* \"#utility.yul\":19825:19870   */\n      mstore\n        /* \"#utility.yul\":19887:19905   */\n      0x64\n      add\n        /* \"NFT-Contracts/new/final_market_Multi_nft.sol\":5720:5906  require(\r... */\n      tag_151\n        /* \"#utility.yul\":19572:19911   */\n      jump\n        /* \"NFT-Contracts/new/final_market_Multi_nft.sol\":5720:5906  require(\r... */\n    tag_253:\n      sub(shl(0xa0, 0x01), 0x01)\n        /* \"NFT-Contracts/new/final_market_Multi_nft.sol\":19756:19799  nftContractAuctionSale[_nftContractAddress] */\n      dup5\n      dup2\n      and\n      0x00\n      swap1\n      dup2\n      mstore\n        /* \"NFT-Contracts/new/final_market_Multi_nft.sol\":19756:19778  nftContractAuctionSale */\n      0x03\n        /* \"NFT-Contracts/new/final_market_Multi_nft.sol\":19756:19799  nftContractAuctionSale[_nftContractAddress] */\n      0x20\n      swap1\n      dup2\n      mstore\n      0x40\n      dup1\n      dup4\n      keccak256\n        /* \"NFT-Contracts/new/final_market_Multi_nft.sol\":19756:19809  nftContractAuctionSale[_nftContractAddress][_tokenId] */\n      dup8\n      dup5\n      mstore\n      swap1\n      swap2\n      mstore\n      swap1\n      keccak256\n        /* \"NFT-Contracts/new/final_market_Multi_nft.sol\":19756:19848  nftContractAuctionSale[_nftContractAddress][_tokenId]\r... */\n      0x05\n      add\n      sload\n      and\n        /* \"NFT-Contracts/new/final_market_Multi_nft.sol\":19725:19735  msg.sender */\n      caller\n        /* \"NFT-Contracts/new/final_market_Multi_nft.sol\":19725:19848  msg.sender !=\r... */\n      eq\n      iszero\n        /* \"NFT-Contracts/new/final_market_Multi_nft.sol\":19703:19898  require(\r... */\n      tag_257\n      jumpi\n      mload(0x40)\n      shl(0xe5, 0x461bcd)\n      dup2\n      mstore\n        /* \"#utility.yul\":15199:15201   */\n      0x20\n        /* \"NFT-Contracts/new/final_market_Multi_nft.sol\":19703:19898  require(\r... */\n      0x04\n      dup3\n      add\n        /* \"#utility.yul\":15181:15202   */\n      mstore\n        /* \"#utility.yul\":15238:15240   */\n      0x16\n        /* \"#utility.yul\":15218:15236   */\n      0x24\n      dup3\n      add\n        /* \"#utility.yul\":15211:15241   */\n      mstore\n      shl(0x51, 0x2cb7ba9030b932903434b3b432b9ba103134b23232b9)\n        /* \"#utility.yul\":15257:15275   */\n      0x44\n      dup3\n      add\n        /* \"#utility.yul\":15250:15302   */\n      mstore\n        /* \"#utility.yul\":15319:15337   */\n      0x64\n      add\n        /* \"NFT-Contracts/new/final_market_Multi_nft.sol\":19703:19898  require(\r... */\n      tag_151\n        /* \"#utility.yul\":14997:15343   */\n      jump\n        /* \"NFT-Contracts/new/final_market_Multi_nft.sol\":19703:19898  require(\r... */\n    tag_257:\n      sub(shl(0xa0, 0x01), 0x01)\n        /* \"NFT-Contracts/new/final_market_Multi_nft.sol\":19931:19969  userBidPriceOnNFT[_nftContractAddress] */\n      dup5\n      and\n        /* \"NFT-Contracts/new/final_market_Multi_nft.sol\":19994:19995  0 */\n      0x00\n        /* \"NFT-Contracts/new/final_market_Multi_nft.sol\":19931:19969  userBidPriceOnNFT[_nftContractAddress] */\n      swap1\n      dup2\n      mstore\n        /* \"NFT-Contracts/new/final_market_Multi_nft.sol\":19931:19948  userBidPriceOnNFT */\n      0x04\n        /* \"NFT-Contracts/new/final_market_Multi_nft.sol\":19931:19969  userBidPriceOnNFT[_nftContractAddress] */\n      0x20\n      swap1\n      dup2\n      mstore\n      0x40\n      dup1\n      dup4\n      keccak256\n        /* \"NFT-Contracts/new/final_market_Multi_nft.sol\":19931:19979  userBidPriceOnNFT[_nftContractAddress][_tokenId] */\n      dup7\n      dup5\n      mstore\n      dup3\n      mstore\n      dup1\n      dup4\n      keccak256\n        /* \"NFT-Contracts/new/final_market_Multi_nft.sol\":19980:19990  msg.sender */\n      caller\n        /* \"NFT-Contracts/new/final_market_Multi_nft.sol\":19931:19991  userBidPriceOnNFT[_nftContractAddress][_tokenId][msg.sender] */\n      dup5\n      mstore\n      swap1\n      swap2\n      mstore\n      swap1\n      keccak256\n      sload\n        /* \"NFT-Contracts/new/final_market_Multi_nft.sol\":19909:20042  require(\r... */\n      tag_260\n      jumpi\n      mload(0x40)\n      shl(0xe5, 0x461bcd)\n      dup2\n      mstore\n        /* \"#utility.yul\":20468:20470   */\n      0x20\n        /* \"NFT-Contracts/new/final_market_Multi_nft.sol\":19909:20042  require(\r... */\n      0x04\n      dup3\n      add\n        /* \"#utility.yul\":20450:20471   */\n      mstore\n        /* \"#utility.yul\":20507:20509   */\n      0x13\n        /* \"#utility.yul\":20487:20505   */\n      0x24\n      dup3\n      add\n        /* \"#utility.yul\":20480:20510   */\n      mstore\n      shl(0x68, 0x6e6f7468696e6720746f207769746864726177)\n        /* \"#utility.yul\":20526:20544   */\n      0x44\n      dup3\n      add\n        /* \"#utility.yul\":20519:20568   */\n      mstore\n        /* \"#utility.yul\":20585:20603   */\n      0x64\n      add\n        /* \"NFT-Contracts/new/final_market_Multi_nft.sol\":19909:20042  require(\r... */\n      tag_151\n        /* \"#utility.yul\":20266:20609   */\n      jump\n        /* \"NFT-Contracts/new/final_market_Multi_nft.sol\":19909:20042  require(\r... */\n    tag_260:\n      sub(shl(0xa0, 0x01), 0x01)\n        /* \"NFT-Contracts/new/final_market_Multi_nft.sol\":20158:20196  userBidPriceOnNFT[_nftContractAddress] */\n      dup5\n      and\n        /* \"NFT-Contracts/new/final_market_Multi_nft.sol\":20221:20222  0 */\n      0x00\n        /* \"NFT-Contracts/new/final_market_Multi_nft.sol\":20158:20196  userBidPriceOnNFT[_nftContractAddress] */\n      dup2\n      dup2\n      mstore\n        /* \"NFT-Contracts/new/final_market_Multi_nft.sol\":20158:20175  userBidPriceOnNFT */\n      0x04\n        /* \"NFT-Contracts/new/final_market_Multi_nft.sol\":20158:20196  userBidPriceOnNFT[_nftContractAddress] */\n      0x20\n      swap1\n      dup2\n      mstore\n      0x40\n      dup1\n      dup4\n      keccak256\n        /* \"NFT-Contracts/new/final_market_Multi_nft.sol\":20158:20206  userBidPriceOnNFT[_nftContractAddress][_tokenId] */\n      dup8\n      dup5\n      mstore\n      dup3\n      mstore\n      dup1\n      dup4\n      keccak256\n        /* \"NFT-Contracts/new/final_market_Multi_nft.sol\":20207:20217  msg.sender */\n      caller\n        /* \"NFT-Contracts/new/final_market_Multi_nft.sol\":20158:20218  userBidPriceOnNFT[_nftContractAddress][_tokenId][msg.sender] */\n      dup1\n      dup6\n      mstore\n      swap1\n      dup4\n      mstore\n      dup2\n      dup5\n      keccak256\n        /* \"NFT-Contracts/new/final_market_Multi_nft.sol\":20158:20222  userBidPriceOnNFT[_nftContractAddress][_tokenId][msg.sender] = 0 */\n      swap4\n      swap1\n      swap4\n      sstore\n        /* \"NFT-Contracts/new/final_market_Multi_nft.sol\":20240:20297  withdrawNftBid(_nftContractAddress, _tokenId, msg.sender) */\n      dup1\n      mload\n        /* \"#utility.yul\":12304:12338   */\n      swap4\n      dup5\n      mstore\n        /* \"#utility.yul\":12354:12372   */\n      swap1\n      dup4\n      add\n        /* \"#utility.yul\":12347:12381   */\n      dup7\n      swap1\n      mstore\n        /* \"#utility.yul\":12397:12415   */\n      dup3\n      add\n        /* \"#utility.yul\":12390:12433   */\n      mstore\n        /* \"NFT-Contracts/new/final_market_Multi_nft.sol\":20240:20297  withdrawNftBid(_nftContractAddress, _tokenId, msg.sender) */\n      0xde8cb9aa2c755cf75d5fbc4fec824b10e311652306f1fca5c8e57a04758b0aa7\n      swap1\n        /* \"#utility.yul\":12254:12256   */\n      0x60\n        /* \"#utility.yul\":12239:12257   */\n      add\n        /* \"NFT-Contracts/new/final_market_Multi_nft.sol\":20240:20297  withdrawNftBid(_nftContractAddress, _tokenId, msg.sender) */\n      mload(0x40)\n      dup1\n      swap2\n      sub\n      swap1\n      log1\n        /* \"NFT-Contracts/new/final_market_Multi_nft.sol\":19547:20305  function withdrawBid(address _nftContractAddress, uint256 _tokenId)\r... */\n      pop\n      pop\n      pop\n      pop\n      jump\t// out\n        /* \"NFT-Contracts/new/final_market_Multi_nft.sol\":18531:19539  function settleAuction(address _nftContractAddress, uint256 _tokenId)\r... */\n    tag_72:\n      sub(shl(0xa0, 0x01), 0x01)\n        /* \"NFT-Contracts/new/final_market_Multi_nft.sol\":5511:5545  nftSaleStatus[_nftContractAddress] */\n      dup3\n      and\n      0x00\n      swap1\n      dup2\n      mstore\n        /* \"NFT-Contracts/new/final_market_Multi_nft.sol\":5511:5524  nftSaleStatus */\n      0x01\n        /* \"NFT-Contracts/new/final_market_Multi_nft.sol\":5511:5545  nftSaleStatus[_nftContractAddress] */\n      0x20\n      swap1\n      dup2\n      mstore\n      0x40\n      dup1\n      dup4\n      keccak256\n        /* \"NFT-Contracts/new/final_market_Multi_nft.sol\":5511:5555  nftSaleStatus[_nftContractAddress][_tokenId] */\n      dup5\n      dup5\n      mstore\n      swap1\n      swap2\n      mstore\n      swap1\n      keccak256\n      sload\n        /* \"NFT-Contracts/new/final_market_Multi_nft.sol\":18647:18666  _nftContractAddress */\n      dup3\n      swap1\n        /* \"NFT-Contracts/new/final_market_Multi_nft.sol\":18668:18676  _tokenId */\n      dup3\n      swap1\n        /* \"NFT-Contracts/new/final_market_Multi_nft.sol\":5559:5560  2 */\n      0x02\n        /* \"NFT-Contracts/new/final_market_Multi_nft.sol\":5511:5560  nftSaleStatus[_nftContractAddress][_tokenId] == 2 */\n      eq\n        /* \"NFT-Contracts/new/final_market_Multi_nft.sol\":5489:5611  require(\r... */\n      tag_266\n      jumpi\n      mload(0x40)\n      shl(0xe5, 0x461bcd)\n      dup2\n      mstore\n      0x04\n      add\n      tag_151\n      swap1\n      tag_152\n      jump\t// in\n    tag_266:\n      sub(shl(0xa0, 0x01), 0x01)\n        /* \"NFT-Contracts/new/final_market_Multi_nft.sol\":5777:5820  nftContractAuctionSale[_nftContractAddress] */\n      dup5\n      and\n      0x00\n      swap1\n      dup2\n      mstore\n        /* \"NFT-Contracts/new/final_market_Multi_nft.sol\":5777:5799  nftContractAuctionSale */\n      0x03\n        /* \"NFT-Contracts/new/final_market_Multi_nft.sol\":5777:5820  nftContractAuctionSale[_nftContractAddress] */\n      0x20\n      swap1\n      dup2\n      mstore\n      0x40\n      dup1\n      dup4\n      keccak256\n        /* \"NFT-Contracts/new/final_market_Multi_nft.sol\":5777:5830  nftContractAuctionSale[_nftContractAddress][_tokenId] */\n      dup7\n      dup5\n      mstore\n      swap1\n      swap2\n      mstore\n      swap1\n      keccak256\n        /* \"NFT-Contracts/new/final_market_Multi_nft.sol\":5777:5863  nftContractAuctionSale[_nftContractAddress][_tokenId]\r... */\n      0x01\n      add\n      sload\n        /* \"NFT-Contracts/new/final_market_Multi_nft.sol\":18701:18720  _nftContractAddress */\n      dup5\n      swap1\n        /* \"NFT-Contracts/new/final_market_Multi_nft.sol\":18722:18730  _tokenId */\n      dup5\n      swap1\n        /* \"NFT-Contracts/new/final_market_Multi_nft.sol\":5742:5757  block.timestamp */\n      timestamp\n        /* \"NFT-Contracts/new/final_market_Multi_nft.sol\":5742:5863  block.timestamp >\r... */\n      gt\n        /* \"NFT-Contracts/new/final_market_Multi_nft.sol\":5720:5906  require(\r... */\n      tag_269\n      jumpi\n      mload(0x40)\n      shl(0xe5, 0x461bcd)\n      dup2\n      mstore\n        /* \"#utility.yul\":19774:19776   */\n      0x20\n        /* \"NFT-Contracts/new/final_market_Multi_nft.sol\":5720:5906  require(\r... */\n      0x04\n      dup3\n      add\n        /* \"#utility.yul\":19756:19777   */\n      mstore\n        /* \"#utility.yul\":19813:19815   */\n      0x0f\n        /* \"#utility.yul\":19793:19811   */\n      0x24\n      dup3\n      add\n        /* \"#utility.yul\":19786:19816   */\n      mstore\n      shl(0x8a, 0x105d58dd1a5bdb881b9bdd08195b99)\n        /* \"#utility.yul\":19832:19850   */\n      0x44\n      dup3\n      add\n        /* \"#utility.yul\":19825:19870   */\n      mstore\n        /* \"#utility.yul\":19887:19905   */\n      0x64\n      add\n        /* \"NFT-Contracts/new/final_market_Multi_nft.sol\":5720:5906  require(\r... */\n      tag_151\n        /* \"#utility.yul\":19572:19911   */\n      jump\n        /* \"NFT-Contracts/new/final_market_Multi_nft.sol\":5720:5906  require(\r... */\n    tag_269:\n      sub(shl(0xa0, 0x01), 0x01)\n        /* \"NFT-Contracts/new/final_market_Multi_nft.sol\":18767:18810  nftContractAuctionSale[_nftContractAddress] */\n      dup7\n      dup2\n      and\n        /* \"NFT-Contracts/new/final_market_Multi_nft.sol\":18748:18764  address nftBuyer */\n      0x00\n        /* \"NFT-Contracts/new/final_market_Multi_nft.sol\":18767:18810  nftContractAuctionSale[_nftContractAddress] */\n      swap1\n      dup2\n      mstore\n        /* \"NFT-Contracts/new/final_market_Multi_nft.sol\":18767:18789  nftContractAuctionSale */\n      0x03\n        /* \"NFT-Contracts/new/final_market_Multi_nft.sol\":18767:18810  nftContractAuctionSale[_nftContractAddress] */\n      0x20\n      dup2\n      dup2\n      mstore\n      0x40\n      dup1\n      dup5\n      keccak256\n        /* \"NFT-Contracts/new/final_market_Multi_nft.sol\":18767:18820  nftContractAuctionSale[_nftContractAddress][_tokenId] */\n      dup11\n      dup6\n      mstore\n      swap1\n      swap2\n      mstore\n      swap1\n      swap2\n      keccak256\n        /* \"NFT-Contracts/new/final_market_Multi_nft.sol\":18767:18851  nftContractAuctionSale[_nftContractAddress][_tokenId]\r... */\n      0x05\n      dup2\n      add\n      sload\n        /* \"NFT-Contracts/new/final_market_Multi_nft.sol\":18960:19027  nftContractAuctionSale[_nftContractAddress][_tokenId].nftHighestBid */\n      swap2\n      add\n      sload\n        /* \"NFT-Contracts/new/final_market_Multi_nft.sol\":18767:18851  nftContractAuctionSale[_nftContractAddress][_tokenId]\r... */\n      swap2\n      and\n      swap1\n        /* \"NFT-Contracts/new/final_market_Multi_nft.sol\":18864:19061  _transferNftAndPaySeller(\r... */\n      tag_272\n      swap1\n        /* \"NFT-Contracts/new/final_market_Multi_nft.sol\":18767:18810  nftContractAuctionSale[_nftContractAddress] */\n      dup9\n      swap1\n        /* \"NFT-Contracts/new/final_market_Multi_nft.sol\":18767:18820  nftContractAuctionSale[_nftContractAddress][_tokenId] */\n      dup9\n      swap1\n        /* \"NFT-Contracts/new/final_market_Multi_nft.sol\":18767:18851  nftContractAuctionSale[_nftContractAddress][_tokenId]\r... */\n      dup5\n        /* \"NFT-Contracts/new/final_market_Multi_nft.sol\":18864:18888  _transferNftAndPaySeller */\n      tag_273\n        /* \"NFT-Contracts/new/final_market_Multi_nft.sol\":18864:19061  _transferNftAndPaySeller(\r... */\n      jump\t// in\n    tag_272:\n      sub(shl(0xa0, 0x01), 0x01)\n        /* \"NFT-Contracts/new/final_market_Multi_nft.sol\":19074:19112  userBidPriceOnNFT[_nftContractAddress] */\n      dup1\n      dup9\n      and\n        /* \"NFT-Contracts/new/final_market_Multi_nft.sol\":19135:19136  0 */\n      0x00\n        /* \"NFT-Contracts/new/final_market_Multi_nft.sol\":19074:19112  userBidPriceOnNFT[_nftContractAddress] */\n      dup2\n      dup2\n      mstore\n        /* \"NFT-Contracts/new/final_market_Multi_nft.sol\":19074:19091  userBidPriceOnNFT */\n      0x04\n        /* \"NFT-Contracts/new/final_market_Multi_nft.sol\":19074:19112  userBidPriceOnNFT[_nftContractAddress] */\n      0x20\n      swap1\n      dup2\n      mstore\n      0x40\n      dup1\n      dup4\n      keccak256\n        /* \"NFT-Contracts/new/final_market_Multi_nft.sol\":19074:19122  userBidPriceOnNFT[_nftContractAddress][_tokenId] */\n      dup12\n      dup5\n      mstore\n      dup3\n      mstore\n      dup1\n      dup4\n      keccak256\n        /* \"NFT-Contracts/new/final_market_Multi_nft.sol\":19074:19132  userBidPriceOnNFT[_nftContractAddress][_tokenId][nftBuyer] */\n      swap5\n      dup7\n      and\n      dup4\n      mstore\n      swap4\n      dup2\n      mstore\n      dup4\n      dup3\n      keccak256\n        /* \"NFT-Contracts/new/final_market_Multi_nft.sol\":19074:19136  userBidPriceOnNFT[_nftContractAddress][_tokenId][nftBuyer] = 0 */\n      dup3\n      swap1\n      sstore\n        /* \"NFT-Contracts/new/final_market_Multi_nft.sol\":19184:19224  indexAuctionSaleNFT[_nftContractAddress] */\n      swap2\n      dup2\n      mstore\n        /* \"NFT-Contracts/new/final_market_Multi_nft.sol\":19184:19203  indexAuctionSaleNFT */\n      0x05\n        /* \"NFT-Contracts/new/final_market_Multi_nft.sol\":19184:19224  indexAuctionSaleNFT[_nftContractAddress] */\n      dup3\n      mstore\n      dup3\n      dup2\n      keccak256\n        /* \"NFT-Contracts/new/final_market_Multi_nft.sol\":19184:19234  indexAuctionSaleNFT[_nftContractAddress][_tokenId] */\n      dup10\n      dup3\n      mstore\n      swap1\n      swap2\n      mstore\n      keccak256\n      sload\n        /* \"NFT-Contracts/new/final_market_Multi_nft.sol\":19154:19168  auctionSaleNFT */\n      0x07\n        /* \"NFT-Contracts/new/final_market_Multi_nft.sol\":19154:19246  auctionSaleNFT[\r... */\n      dup1\n      sload\n        /* \"NFT-Contracts/new/final_market_Multi_nft.sol\":19154:19168  auctionSaleNFT */\n      swap1\n      swap2\n        /* \"NFT-Contracts/new/final_market_Multi_nft.sol\":19184:19234  indexAuctionSaleNFT[_nftContractAddress][_tokenId] */\n      swap1\n        /* \"NFT-Contracts/new/final_market_Multi_nft.sol\":19154:19246  auctionSaleNFT[\r... */\n      dup2\n      lt\n      tag_275\n      jumpi\n      tag_275\n      tag_276\n      jump\t// in\n    tag_275:\n      0x00\n      swap2\n      dup3\n      mstore\n      0x20\n      dup1\n      dup4\n      keccak256\n      0x02\n      swap3\n      swap1\n      swap3\n      mul\n      swap1\n      swap2\n      add\n        /* \"NFT-Contracts/new/final_market_Multi_nft.sol\":19147:19246  delete auctionSaleNFT[\r... */\n      dup1\n      sload\n      not(sub(shl(0xa0, 0x01), 0x01))\n      and\n      dup2\n      sstore\n      0x01\n      add\n      dup3\n      swap1\n      sstore\n      sub(shl(0xa0, 0x01), 0x01)\n        /* \"NFT-Contracts/new/final_market_Multi_nft.sol\":19375:19418  nftContractAuctionSale[_nftContractAddress] */\n      dup10\n      dup2\n      and\n      dup1\n      dup5\n      mstore\n        /* \"NFT-Contracts/new/final_market_Multi_nft.sol\":19375:19397  nftContractAuctionSale */\n      0x03\n        /* \"NFT-Contracts/new/final_market_Multi_nft.sol\":19375:19418  nftContractAuctionSale[_nftContractAddress] */\n      dup1\n      dup5\n      mstore\n      0x40\n      dup1\n      dup7\n      keccak256\n        /* \"NFT-Contracts/new/final_market_Multi_nft.sol\":19375:19428  nftContractAuctionSale[_nftContractAddress][_tokenId] */\n      dup13\n      dup8\n      mstore\n      dup6\n      mstore\n      swap5\n      dup6\n      swap1\n      keccak256\n        /* \"NFT-Contracts/new/final_market_Multi_nft.sol\":19375:19442  nftContractAuctionSale[_nftContractAddress][_tokenId].nftHighestBid */\n      swap1\n      dup2\n      add\n      sload\n        /* \"NFT-Contracts/new/final_market_Multi_nft.sol\":19457:19520  nftContractAuctionSale[_nftContractAddress][_tokenId].nftSeller */\n      0x06\n      swap1\n      swap2\n      add\n      sload\n        /* \"NFT-Contracts/new/final_market_Multi_nft.sol\":19264:19531  NftAuctionSettle(\r... */\n      dup6\n      mload\n        /* \"#utility.yul\":12741:12775   */\n      swap3\n      dup4\n      mstore\n        /* \"#utility.yul\":12791:12809   */\n      swap4\n      dup3\n      add\n        /* \"#utility.yul\":12784:12818   */\n      dup12\n      swap1\n      mstore\n        /* \"#utility.yul\":12854:12869   */\n      dup6\n      dup4\n      and\n        /* \"#utility.yul\":12834:12852   */\n      dup3\n      dup7\n      add\n        /* \"#utility.yul\":12827:12870   */\n      mstore\n        /* \"#utility.yul\":12901:12903   */\n      0x60\n        /* \"#utility.yul\":12886:12904   */\n      dup3\n      add\n        /* \"#utility.yul\":12879:12913   */\n      mstore\n        /* \"NFT-Contracts/new/final_market_Multi_nft.sol\":19457:19520  nftContractAuctionSale[_nftContractAddress][_tokenId].nftSeller */\n      swap2\n      and\n        /* \"#utility.yul\":12944:12947   */\n      0x80\n        /* \"#utility.yul\":12929:12948   */\n      dup3\n      add\n        /* \"#utility.yul\":12922:12966   */\n      mstore\n        /* \"NFT-Contracts/new/final_market_Multi_nft.sol\":19264:19531  NftAuctionSettle(\r... */\n      swap1\n      mload\n      0xb31cb4f6609b11a57d1b6b14cc3f81f4b3e609f709a5b1e46892a45f9cc29ed8\n      swap2\n      dup2\n      swap1\n      sub\n        /* \"#utility.yul\":12690:12693   */\n      0xa0\n        /* \"NFT-Contracts/new/final_market_Multi_nft.sol\":19264:19531  NftAuctionSettle(\r... */\n      add\n      swap1\n      log1\n        /* \"NFT-Contracts/new/final_market_Multi_nft.sol\":18737:19539  {\r... */\n      pop\n        /* \"NFT-Contracts/new/final_market_Multi_nft.sol\":5622:5623  _ */\n      pop\n      pop\n        /* \"NFT-Contracts/new/final_market_Multi_nft.sol\":18531:19539  function settleAuction(address _nftContractAddress, uint256 _tokenId)\r... */\n      pop\n      pop\n      pop\n      pop\n      jump\t// out\n        /* \"NFT-Contracts/new/final_market_Multi_nft.sol\":11774:13266  function buyFromFixedSale(\r... */\n    tag_82:\n      sub(shl(0xa0, 0x01), 0x01)\n        /* \"NFT-Contracts/new/final_market_Multi_nft.sol\":3882:3916  nftSaleStatus[_nftContractAddress] */\n      dup6\n      and\n      0x00\n      swap1\n      dup2\n      mstore\n        /* \"NFT-Contracts/new/final_market_Multi_nft.sol\":3882:3895  nftSaleStatus */\n      0x01\n        /* \"NFT-Contracts/new/final_market_Multi_nft.sol\":3882:3916  nftSaleStatus[_nftContractAddress] */\n      0x20\n      dup2\n      dup2\n      mstore\n      0x40\n      dup1\n      dup5\n      keccak256\n        /* \"NFT-Contracts/new/final_market_Multi_nft.sol\":3882:3926  nftSaleStatus[_nftContractAddress][_tokenId] */\n      dup9\n      dup6\n      mstore\n      swap1\n      swap2\n      mstore\n      swap1\n      swap2\n      keccak256\n      sload\n        /* \"NFT-Contracts/new/final_market_Multi_nft.sol\":12017:12036  _nftContractAddress */\n      dup7\n      swap2\n        /* \"NFT-Contracts/new/final_market_Multi_nft.sol\":12038:12046  _tokenId */\n      dup7\n      swap2\n        /* \"NFT-Contracts/new/final_market_Multi_nft.sol\":3882:3931  nftSaleStatus[_nftContractAddress][_tokenId] == 1 */\n      eq\n        /* \"NFT-Contracts/new/final_market_Multi_nft.sol\":3860:3980  require(\r... */\n      tag_281\n      jumpi\n      mload(0x40)\n      shl(0xe5, 0x461bcd)\n      dup2\n      mstore\n      0x04\n      add\n      tag_151\n      swap1\n      tag_242\n      jump\t// in\n    tag_281:\n        /* \"NFT-Contracts/new/final_market_Multi_nft.sol\":12078:12085  _amount */\n      dup5\n        /* \"NFT-Contracts/new/final_market_Multi_nft.sol\":5352:5353  0 */\n      0x00\n        /* \"NFT-Contracts/new/final_market_Multi_nft.sol\":5343:5349  _price */\n      dup2\n        /* \"NFT-Contracts/new/final_market_Multi_nft.sol\":5343:5353  _price > 0 */\n      gt\n        /* \"NFT-Contracts/new/final_market_Multi_nft.sol\":5335:5375  require(_price > 0, \"Price cannot be 0\") */\n      tag_284\n      jumpi\n      mload(0x40)\n      shl(0xe5, 0x461bcd)\n      dup2\n      mstore\n      0x04\n      add\n      tag_151\n      swap1\n      tag_160\n      jump\t// in\n    tag_284:\n      sub(shl(0xa0, 0x01), 0x01)\n        /* \"NFT-Contracts/new/final_market_Multi_nft.sol\":5065:5106  nftContractFixedSale[_nftContractAddress] */\n      dup9\n      and\n        /* \"NFT-Contracts/new/final_market_Multi_nft.sol\":5065:5085  nftContractFixedSale */\n      0x00\n        /* \"NFT-Contracts/new/final_market_Multi_nft.sol\":5065:5106  nftContractFixedSale[_nftContractAddress] */\n      swap1\n      dup2\n      mstore\n      0x20\n      dup2\n      dup2\n      mstore\n      0x40\n      dup1\n      dup4\n      keccak256\n        /* \"NFT-Contracts/new/final_market_Multi_nft.sol\":5065:5116  nftContractFixedSale[_nftContractAddress][_tokenId] */\n      dup11\n      dup5\n      mstore\n      swap1\n      swap2\n      mstore\n      swap1\n      keccak256\n        /* \"NFT-Contracts/new/final_market_Multi_nft.sol\":5065:5152  nftContractFixedSale[_nftContractAddress][_tokenId]\r... */\n      0x04\n      add\n      sload\n        /* \"NFT-Contracts/new/final_market_Multi_nft.sol\":12132:12151  _nftContractAddress */\n      dup9\n      swap1\n        /* \"NFT-Contracts/new/final_market_Multi_nft.sol\":12166:12174  _tokenId */\n      dup9\n      swap1\n        /* \"NFT-Contracts/new/final_market_Multi_nft.sol\":12189:12196  _amount */\n      dup9\n      swap1\n        /* \"NFT-Contracts/new/final_market_Multi_nft.sol\":12211:12221  _nftAmount */\n      dup9\n      swap1\n        /* \"NFT-Contracts/new/final_market_Multi_nft.sol\":5042:5202  (\r... */\n      tag_287\n      swap1\n        /* \"NFT-Contracts/new/final_market_Multi_nft.sol\":12211:12221  _nftAmount */\n      dup3\n      swap1\n        /* \"NFT-Contracts/new/final_market_Multi_nft.sol\":5042:5202  (\r... */\n      tag_288\n      jump\t// in\n    tag_287:\n        /* \"NFT-Contracts/new/final_market_Multi_nft.sol\":5012:5021  _buyPrice */\n      dup3\n        /* \"NFT-Contracts/new/final_market_Multi_nft.sol\":5012:5202  _buyPrice >=\r... */\n      lt\n      iszero\n        /* \"NFT-Contracts/new/final_market_Multi_nft.sol\":4990:5250  require(\r... */\n      tag_289\n      jumpi\n      mload(0x40)\n      shl(0xe5, 0x461bcd)\n      dup2\n      mstore\n        /* \"#utility.yul\":20816:20818   */\n      0x20\n        /* \"NFT-Contracts/new/final_market_Multi_nft.sol\":4990:5250  require(\r... */\n      0x04\n      dup3\n      add\n        /* \"#utility.yul\":20798:20819   */\n      mstore\n        /* \"#utility.yul\":20855:20857   */\n      0x14\n        /* \"#utility.yul\":20835:20853   */\n      0x24\n      dup3\n      add\n        /* \"#utility.yul\":20828:20858   */\n      mstore\n      shl(0x63, 0x0c4eaf240a0e4d2c6ca40dcdee840cadcdeeaced)\n        /* \"#utility.yul\":20874:20892   */\n      0x44\n      dup3\n      add\n        /* \"#utility.yul\":20867:20917   */\n      mstore\n        /* \"#utility.yul\":20934:20952   */\n      0x64\n      add\n        /* \"NFT-Contracts/new/final_market_Multi_nft.sol\":4990:5250  require(\r... */\n      tag_151\n        /* \"#utility.yul\":20614:20958   */\n      jump\n        /* \"NFT-Contracts/new/final_market_Multi_nft.sol\":4990:5250  require(\r... */\n    tag_289:\n        /* \"NFT-Contracts/new/final_market_Multi_nft.sol\":12271:12286  _nftAmount != 0 */\n      dup9\n      iszero\n      dup1\n      iszero\n      swap1\n        /* \"NFT-Contracts/new/final_market_Multi_nft.sol\":12271:12396  _nftAmount != 0 &&\r... */\n      tag_293\n      jumpi\n      pop\n      sub(shl(0xa0, 0x01), 0x01)\n        /* \"NFT-Contracts/new/final_market_Multi_nft.sol\":12307:12348  nftContractFixedSale[_nftContractAddress] */\n      dup13\n      and\n        /* \"NFT-Contracts/new/final_market_Multi_nft.sol\":12307:12327  nftContractFixedSale */\n      0x00\n        /* \"NFT-Contracts/new/final_market_Multi_nft.sol\":12307:12348  nftContractFixedSale[_nftContractAddress] */\n      swap1\n      dup2\n      mstore\n      0x20\n      dup2\n      dup2\n      mstore\n      0x40\n      dup1\n      dup4\n      keccak256\n        /* \"NFT-Contracts/new/final_market_Multi_nft.sol\":12307:12358  nftContractFixedSale[_nftContractAddress][_tokenId] */\n      dup15\n      dup5\n      mstore\n      swap1\n      swap2\n      mstore\n      swap1\n      keccak256\n        /* \"NFT-Contracts/new/final_market_Multi_nft.sol\":12307:12365  nftContractFixedSale[_nftContractAddress][_tokenId].amount */\n      0x03\n      add\n      sload\n        /* \"NFT-Contracts/new/final_market_Multi_nft.sol\":12307:12396  nftContractFixedSale[_nftContractAddress][_tokenId].amount >=\r... */\n      dup10\n      gt\n      iszero\n        /* \"NFT-Contracts/new/final_market_Multi_nft.sol\":12271:12396  _nftAmount != 0 &&\r... */\n    tag_293:\n        /* \"NFT-Contracts/new/final_market_Multi_nft.sol\":12249:12460  require(\r... */\n      tag_294\n      jumpi\n      mload(0x40)\n      shl(0xe5, 0x461bcd)\n      dup2\n      mstore\n        /* \"#utility.yul\":18336:18338   */\n      0x20\n        /* \"NFT-Contracts/new/final_market_Multi_nft.sol\":12249:12460  require(\r... */\n      0x04\n      dup3\n      add\n        /* \"#utility.yul\":18318:18339   */\n      mstore\n        /* \"#utility.yul\":18375:18377   */\n      0x24\n        /* \"#utility.yul\":18355:18373   */\n      dup1\n      dup3\n      add\n        /* \"#utility.yul\":18348:18378   */\n      mstore\n        /* \"#utility.yul\":18414:18448   */\n      0x6e6f6e2d7a65726f2076616c7565206f7220616d6f756e74206e6f7420677265\n        /* \"#utility.yul\":18394:18412   */\n      0x44\n      dup3\n      add\n        /* \"#utility.yul\":18387:18449   */\n      mstore\n      shl(0xe1, 0x30ba32b9)\n        /* \"#utility.yul\":18465:18483   */\n      0x64\n      dup3\n      add\n        /* \"#utility.yul\":18458:18492   */\n      mstore\n        /* \"#utility.yul\":18509:18528   */\n      0x84\n      add\n        /* \"NFT-Contracts/new/final_market_Multi_nft.sol\":12249:12460  require(\r... */\n      tag_151\n        /* \"#utility.yul\":18134:18534   */\n      jump\n        /* \"NFT-Contracts/new/final_market_Multi_nft.sol\":12249:12460  require(\r... */\n    tag_294:\n        /* \"NFT-Contracts/new/final_market_Multi_nft.sol\":12473:12499  address nftContractAddress */\n      0x00\n        /* \"NFT-Contracts/new/final_market_Multi_nft.sol\":12502:12521  _nftContractAddress */\n      dup13\n        /* \"NFT-Contracts/new/final_market_Multi_nft.sol\":12473:12521  address nftContractAddress = _nftContractAddress */\n      swap1\n      pop\n        /* \"NFT-Contracts/new/final_market_Multi_nft.sol\":12532:12547  uint256 tokenID */\n      0x00\n        /* \"NFT-Contracts/new/final_market_Multi_nft.sol\":12550:12558  _tokenId */\n      dup13\n        /* \"NFT-Contracts/new/final_market_Multi_nft.sol\":12532:12558  uint256 tokenID = _tokenId */\n      swap1\n      pop\n        /* \"NFT-Contracts/new/final_market_Multi_nft.sol\":12580:12598  nftContractAddress */\n      dup2\n      sub(shl(0xa0, 0x01), 0x01)\n        /* \"NFT-Contracts/new/final_market_Multi_nft.sol\":12571:12616  IERC1155(nftContractAddress).safeTransferFrom */\n      and\n      0xf242432a\n        /* \"NFT-Contracts/new/final_market_Multi_nft.sol\":12639:12643  this */\n      address\n        /* \"NFT-Contracts/new/final_market_Multi_nft.sol\":12659:12669  msg.sender */\n      caller\n        /* \"NFT-Contracts/new/final_market_Multi_nft.sol\":12684:12691  tokenID */\n      dup5\n        /* \"NFT-Contracts/new/final_market_Multi_nft.sol\":12706:12716  _nftAmount */\n      dup16\n        /* \"NFT-Contracts/new/final_market_Multi_nft.sol\":12731:12736  _data */\n      dup16\n        /* \"NFT-Contracts/new/final_market_Multi_nft.sol\":12571:12747  IERC1155(nftContractAddress).safeTransferFrom(\r... */\n      mload(0x40)\n      dup7\n      0xffffffff\n      and\n      0xe0\n      shl\n      dup2\n      mstore\n      0x04\n      add\n      tag_297\n      swap6\n      swap5\n      swap4\n      swap3\n      swap2\n      swap1\n      tag_298\n      jump\t// in\n    tag_297:\n      0x00\n      mload(0x40)\n      dup1\n      dup4\n      sub\n      dup2\n      0x00\n      dup8\n      dup1\n      extcodesize\n      iszero\n      dup1\n      iszero\n      tag_299\n      jumpi\n      0x00\n      dup1\n      revert\n    tag_299:\n      pop\n      gas\n      call\n      iszero\n      dup1\n      iszero\n      tag_301\n      jumpi\n      returndatasize\n      0x00\n      dup1\n      returndatacopy\n      revert(0x00, returndatasize)\n    tag_301:\n      pop\n      pop\n      pop\n      pop\n        /* \"NFT-Contracts/new/final_market_Multi_nft.sol\":12760:12816  _checkFixedSale(nftContractAddress, tokenID, _nftAmount) */\n      tag_302\n        /* \"NFT-Contracts/new/final_market_Multi_nft.sol\":12776:12794  nftContractAddress */\n      dup3\n        /* \"NFT-Contracts/new/final_market_Multi_nft.sol\":12796:12803  tokenID */\n      dup3\n        /* \"NFT-Contracts/new/final_market_Multi_nft.sol\":12805:12815  _nftAmount */\n      dup14\n        /* \"NFT-Contracts/new/final_market_Multi_nft.sol\":12760:12775  _checkFixedSale */\n      tag_303\n        /* \"NFT-Contracts/new/final_market_Multi_nft.sol\":12760:12816  _checkFixedSale(nftContractAddress, tokenID, _nftAmount) */\n      jump\t// in\n    tag_302:\n      sub(shl(0xa0, 0x01), 0x01)\n        /* \"NFT-Contracts/new/final_market_Multi_nft.sol\":12858:12898  nftContractFixedSale[nftContractAddress] */\n      dup3\n      dup2\n      and\n        /* \"NFT-Contracts/new/final_market_Multi_nft.sol\":12858:12878  nftContractFixedSale */\n      0x00\n        /* \"NFT-Contracts/new/final_market_Multi_nft.sol\":12858:12898  nftContractFixedSale[nftContractAddress] */\n      swap1\n      dup2\n      mstore\n      0x20\n      dup2\n      dup2\n      mstore\n      0x40\n      dup1\n      dup4\n      keccak256\n        /* \"NFT-Contracts/new/final_market_Multi_nft.sol\":12858:12907  nftContractFixedSale[nftContractAddress][tokenID] */\n      dup6\n      dup5\n      mstore\n      swap1\n      swap2\n      mstore\n      swap1\n      keccak256\n        /* \"NFT-Contracts/new/final_market_Multi_nft.sol\":12858:12917  nftContractFixedSale[nftContractAddress][tokenID].nftSeller */\n      dup1\n      sload\n        /* \"NFT-Contracts/new/final_market_Multi_nft.sol\":12932:12987  nftContractFixedSale[nftContractAddress][tokenID].erc20 */\n      0x02\n      dup3\n      add\n      sload\n        /* \"NFT-Contracts/new/final_market_Multi_nft.sol\":13002:13061  nftContractFixedSale[nftContractAddress][tokenID].salePrice */\n      0x04\n      swap1\n      swap3\n      add\n      sload\n        /* \"NFT-Contracts/new/final_market_Multi_nft.sol\":12829:13083  _isTokenOrCoin(\r... */\n      tag_304\n      swap4\n        /* \"NFT-Contracts/new/final_market_Multi_nft.sol\":12858:12917  nftContractFixedSale[nftContractAddress][tokenID].nftSeller */\n      swap2\n      dup3\n      and\n      swap3\n        /* \"NFT-Contracts/new/final_market_Multi_nft.sol\":12932:12987  nftContractFixedSale[nftContractAddress][tokenID].erc20 */\n      swap1\n      swap2\n      and\n      swap1\n        /* \"NFT-Contracts/new/final_market_Multi_nft.sol\":13002:13072  nftContractFixedSale[nftContractAddress][tokenID].salePrice*_nftAmount */\n      tag_305\n      swap1\n        /* \"NFT-Contracts/new/final_market_Multi_nft.sol\":13062:13072  _nftAmount */\n      dup16\n      swap1\n        /* \"NFT-Contracts/new/final_market_Multi_nft.sol\":13002:13072  nftContractFixedSale[nftContractAddress][tokenID].salePrice*_nftAmount */\n      tag_288\n      jump\t// in\n    tag_305:\n        /* \"NFT-Contracts/new/final_market_Multi_nft.sol\":12829:12843  _isTokenOrCoin */\n      tag_306\n        /* \"NFT-Contracts/new/final_market_Multi_nft.sol\":12829:13083  _isTokenOrCoin(\r... */\n      jump\t// in\n    tag_304:\n        /* \"NFT-Contracts/new/final_market_Multi_nft.sol\":13101:13258  NftBuyFromFixedSale(\r... */\n      0x40\n      dup1\n      mload\n      sub(shl(0xa0, 0x01), 0x01)\n        /* \"#utility.yul\":11576:11591   */\n      dup5\n      and\n        /* \"#utility.yul\":11558:11592   */\n      dup2\n      mstore\n        /* \"NFT-Contracts/new/final_market_Multi_nft.sol\":13168:13178  msg.sender */\n      caller\n        /* \"#utility.yul\":11623:11625   */\n      0x20\n        /* \"#utility.yul\":11608:11626   */\n      dup3\n      add\n        /* \"#utility.yul\":11601:11644   */\n      mstore\n        /* \"#utility.yul\":11660:11678   */\n      swap1\n      dup2\n      add\n        /* \"#utility.yul\":11653:11687   */\n      dup3\n      swap1\n      mstore\n        /* \"#utility.yul\":11718:11720   */\n      0x60\n        /* \"#utility.yul\":11703:11721   */\n      dup2\n      add\n        /* \"#utility.yul\":11696:11730   */\n      dup14\n      swap1\n      mstore\n        /* \"#utility.yul\":11761:11764   */\n      0x80\n        /* \"#utility.yul\":11746:11765   */\n      dup2\n      add\n        /* \"#utility.yul\":11739:11774   */\n      dup13\n      swap1\n      mstore\n        /* \"NFT-Contracts/new/final_market_Multi_nft.sol\":13101:13258  NftBuyFromFixedSale(\r... */\n      0xb71c803b3dc073c348b9a8f845d03c3ffb6f423ea4a86e29fc5f5ca5a401c43a\n      swap1\n        /* \"#utility.yul\":11507:11510   */\n      0xa0\n        /* \"#utility.yul\":11492:11511   */\n      add\n        /* \"NFT-Contracts/new/final_market_Multi_nft.sol\":13101:13258  NftBuyFromFixedSale(\r... */\n      mload(0x40)\n      dup1\n      swap2\n      sub\n      swap1\n      log1\n        /* \"NFT-Contracts/new/final_market_Multi_nft.sol\":12238:13266  {\r... */\n      pop\n      pop\n        /* \"NFT-Contracts/new/final_market_Multi_nft.sol\":5386:5387  _ */\n      pop\n      pop\n      pop\n      pop\n        /* \"NFT-Contracts/new/final_market_Multi_nft.sol\":3991:3992  _ */\n      pop\n        /* \"NFT-Contracts/new/final_market_Multi_nft.sol\":11774:13266  function buyFromFixedSale(\r... */\n      pop\n      pop\n      pop\n      pop\n      pop\n      pop\n      pop\n      jump\t// out\n        /* \"NFT-Contracts/new/final_market_Multi_nft.sol\":20313:20537  function getNftAuctionSaleDetails(\r... */\n    tag_86:\n        /* \"NFT-Contracts/new/final_market_Multi_nft.sol\":20442:20456  Auction memory */\n      tag_309\n      mload(0x40)\n      dup1\n      0x0100\n      add\n      0x40\n      mstore\n      dup1\n      0x00\n      dup2\n      mstore\n      0x20\n      add\n      0x00\n      dup2\n      mstore\n      0x20\n      add\n      0x00\n      dup2\n      mstore\n      0x20\n      add\n      0x00\n      dup2\n      mstore\n      0x20\n      add\n      0x00\n      dup2\n      mstore\n      0x20\n      add\n      and(sub(shl(0xa0, 0x01), 0x01), 0x00)\n      dup2\n      mstore\n      0x20\n      add\n      and(sub(shl(0xa0, 0x01), 0x01), 0x00)\n      dup2\n      mstore\n      0x20\n      add\n      and(sub(shl(0xa0, 0x01), 0x01), 0x00)\n      dup2\n      mstore\n      pop\n      swap1\n      jump\n    tag_309:\n      pop\n      sub(shl(0xa0, 0x01), 0x01)\n        /* \"NFT-Contracts/new/final_market_Multi_nft.sol\":20476:20519  nftContractAuctionSale[_nftContractAddress] */\n      swap2\n      dup3\n      and\n      0x00\n      swap1\n      dup2\n      mstore\n        /* \"NFT-Contracts/new/final_market_Multi_nft.sol\":20476:20498  nftContractAuctionSale */\n      0x03\n        /* \"NFT-Contracts/new/final_market_Multi_nft.sol\":20476:20519  nftContractAuctionSale[_nftContractAddress] */\n      0x20\n      dup2\n      dup2\n      mstore\n      0x40\n      dup1\n      dup5\n      keccak256\n        /* \"NFT-Contracts/new/final_market_Multi_nft.sol\":20476:20529  nftContractAuctionSale[_nftContractAddress][_tokenId] */\n      swap5\n      dup5\n      mstore\n      swap4\n      dup2\n      mstore\n      swap2\n      dup4\n      swap1\n      keccak256\n        /* \"NFT-Contracts/new/final_market_Multi_nft.sol\":20469:20529  return nftContractAuctionSale[_nftContractAddress][_tokenId] */\n      dup4\n      mload\n      0x0100\n      dup2\n      add\n      dup6\n      mstore\n      dup2\n      sload\n      dup2\n      mstore\n      0x01\n      dup3\n      add\n      sload\n      swap4\n      dup2\n      add\n      swap4\n      swap1\n      swap4\n      mstore\n      0x02\n      dup2\n      add\n      sload\n      swap4\n      dup4\n      add\n      swap4\n      swap1\n      swap4\n      mstore\n      dup3\n      add\n      sload\n      0x60\n      dup3\n      add\n      mstore\n      0x04\n      dup3\n      add\n      sload\n      0x80\n      dup3\n      add\n      mstore\n      0x05\n      dup3\n      add\n      sload\n      dup4\n      and\n      0xa0\n      dup3\n      add\n      mstore\n      0x06\n      dup3\n      add\n      sload\n      dup4\n      and\n      0xc0\n      dup3\n      add\n      mstore\n      0x07\n      swap1\n      swap2\n      add\n      sload\n      swap1\n      swap2\n      and\n      0xe0\n      dup3\n      add\n      mstore\n      swap1\n        /* \"NFT-Contracts/new/final_market_Multi_nft.sol\":20313:20537  function getNftAuctionSaleDetails(\r... */\n      jump\t// out\n        /* \"NFT-Contracts/new/final_market_Multi_nft.sol\":9182:10463  function nftFixedSale(\r... */\n    tag_99:\n        /* \"NFT-Contracts/new/final_market_Multi_nft.sol\":9431:9450  _nftContractAddress */\n      dup6\n        /* \"NFT-Contracts/new/final_market_Multi_nft.sol\":9452:9460  _tokenId */\n      dup5\n        /* \"NFT-Contracts/new/final_market_Multi_nft.sol\":4116:4155  _ownerOf(_nftContractAddress, _tokenId) */\n      tag_313\n        /* \"NFT-Contracts/new/final_market_Multi_nft.sol\":4125:4144  _nftContractAddress */\n      dup3\n        /* \"NFT-Contracts/new/final_market_Multi_nft.sol\":4146:4154  _tokenId */\n      dup3\n        /* \"NFT-Contracts/new/final_market_Multi_nft.sol\":4116:4124  _ownerOf */\n      tag_209\n        /* \"NFT-Contracts/new/final_market_Multi_nft.sol\":4116:4155  _ownerOf(_nftContractAddress, _tokenId) */\n      jump\t// in\n    tag_313:\n        /* \"NFT-Contracts/new/final_market_Multi_nft.sol\":4094:4204  require(\r... */\n      tag_314\n      jumpi\n      mload(0x40)\n      shl(0xe5, 0x461bcd)\n      dup2\n      mstore\n      0x04\n      add\n      tag_151\n      swap1\n      tag_212\n      jump\t// in\n    tag_314:\n      sub(shl(0xa0, 0x01), 0x01)\n        /* \"NFT-Contracts/new/final_market_Multi_nft.sol\":3652:3686  nftSaleStatus[_nftContractAddress] */\n      dup9\n      and\n      0x00\n      swap1\n      dup2\n      mstore\n        /* \"NFT-Contracts/new/final_market_Multi_nft.sol\":3652:3665  nftSaleStatus */\n      0x01\n        /* \"NFT-Contracts/new/final_market_Multi_nft.sol\":3652:3686  nftSaleStatus[_nftContractAddress] */\n      0x20\n      swap1\n      dup2\n      mstore\n      0x40\n      dup1\n      dup4\n      keccak256\n        /* \"NFT-Contracts/new/final_market_Multi_nft.sol\":3652:3696  nftSaleStatus[_nftContractAddress][_tokenId] */\n      dup10\n      dup5\n      mstore\n      swap1\n      swap2\n      mstore\n      swap1\n      keccak256\n      sload\n        /* \"NFT-Contracts/new/final_market_Multi_nft.sol\":9490:9509  _nftContractAddress */\n      dup9\n      swap1\n        /* \"NFT-Contracts/new/final_market_Multi_nft.sol\":9511:9519  _tokenId */\n      dup8\n      swap1\n        /* \"NFT-Contracts/new/final_market_Multi_nft.sol\":3652:3701  nftSaleStatus[_nftContractAddress][_tokenId] == 0 */\n      iszero\n        /* \"NFT-Contracts/new/final_market_Multi_nft.sol\":3630:3748  require(\r... */\n      tag_317\n      jumpi\n      mload(0x40)\n      shl(0xe5, 0x461bcd)\n      dup2\n      mstore\n        /* \"#utility.yul\":18741:18743   */\n      0x20\n        /* \"NFT-Contracts/new/final_market_Multi_nft.sol\":3630:3748  require(\r... */\n      0x04\n      dup3\n      add\n        /* \"#utility.yul\":18723:18744   */\n      mstore\n        /* \"#utility.yul\":18780:18782   */\n      0x13\n        /* \"#utility.yul\":18760:18778   */\n      0x24\n      dup3\n      add\n        /* \"#utility.yul\":18753:18783   */\n      mstore\n      shl(0x68, 0x4e667420616c726561647920696e2073616c65)\n        /* \"#utility.yul\":18799:18817   */\n      0x44\n      dup3\n      add\n        /* \"#utility.yul\":18792:18841   */\n      mstore\n        /* \"#utility.yul\":18858:18876   */\n      0x64\n      add\n        /* \"NFT-Contracts/new/final_market_Multi_nft.sol\":3630:3748  require(\r... */\n      tag_151\n        /* \"#utility.yul\":18539:18882   */\n      jump\n        /* \"NFT-Contracts/new/final_market_Multi_nft.sol\":3630:3748  require(\r... */\n    tag_317:\n        /* \"NFT-Contracts/new/final_market_Multi_nft.sol\":4616:4738  IERC1155(_nftContractAddress).isApprovedForAll(\r... */\n      mload(0x40)\n      shl(0xe0, 0xe985e9c5)\n      dup2\n      mstore\n        /* \"NFT-Contracts/new/final_market_Multi_nft.sol\":4681:4691  msg.sender */\n      caller\n        /* \"NFT-Contracts/new/final_market_Multi_nft.sol\":4616:4738  IERC1155(_nftContractAddress).isApprovedForAll(\r... */\n      0x04\n      dup3\n      add\n        /* \"#utility.yul\":8529:8563   */\n      mstore\n        /* \"NFT-Contracts/new/final_market_Multi_nft.sol\":4718:4722  this */\n      address\n        /* \"#utility.yul\":8579:8597   */\n      0x24\n      dup3\n      add\n        /* \"#utility.yul\":8572:8615   */\n      mstore\n        /* \"NFT-Contracts/new/final_market_Multi_nft.sol\":9548:9567  _nftContractAddress */\n      dup11\n      swap1\n        /* \"NFT-Contracts/new/final_market_Multi_nft.sol\":9569:9577  _tokenId */\n      dup10\n      swap1\n      sub(shl(0xa0, 0x01), 0x01)\n        /* \"NFT-Contracts/new/final_market_Multi_nft.sol\":4616:4662  IERC1155(_nftContractAddress).isApprovedForAll */\n      dup4\n      and\n      swap1\n      0xe985e9c5\n      swap1\n        /* \"#utility.yul\":8464:8482   */\n      0x44\n      add\n        /* \"NFT-Contracts/new/final_market_Multi_nft.sol\":4616:4738  IERC1155(_nftContractAddress).isApprovedForAll(\r... */\n      0x20\n      mload(0x40)\n      dup1\n      dup4\n      sub\n      dup2\n      dup7\n      dup1\n      extcodesize\n      iszero\n      dup1\n      iszero\n      tag_321\n      jumpi\n      0x00\n      dup1\n      revert\n    tag_321:\n      pop\n      gas\n      staticcall\n      iszero\n      dup1\n      iszero\n      tag_323\n      jumpi\n      returndatasize\n      0x00\n      dup1\n      returndatacopy\n      revert(0x00, returndatasize)\n    tag_323:\n      pop\n      pop\n      pop\n      pop\n      mload(0x40)\n      returndatasize\n      not(0x1f)\n      0x1f\n      dup3\n      add\n      and\n      dup3\n      add\n      dup1\n      0x40\n      mstore\n      pop\n      dup2\n      add\n      swap1\n      tag_324\n      swap2\n      swap1\n      tag_148\n      jump\t// in\n    tag_324:\n        /* \"NFT-Contracts/new/final_market_Multi_nft.sol\":4594:4794  require(\r... */\n      tag_325\n      jumpi\n      mload(0x40)\n      shl(0xe5, 0x461bcd)\n      dup2\n      mstore\n        /* \"#utility.yul\":15550:15552   */\n      0x20\n        /* \"NFT-Contracts/new/final_market_Multi_nft.sol\":4594:4794  require(\r... */\n      0x04\n      dup3\n      add\n        /* \"#utility.yul\":15532:15553   */\n      mstore\n        /* \"#utility.yul\":15589:15591   */\n      0x1c\n        /* \"#utility.yul\":15569:15587   */\n      0x24\n      dup3\n      add\n        /* \"#utility.yul\":15562:15592   */\n      mstore\n        /* \"#utility.yul\":15628:15658   */\n      0x4e6674206e6f7420617070726f76656420746f20636f6e747261637400000000\n        /* \"#utility.yul\":15608:15626   */\n      0x44\n      dup3\n      add\n        /* \"#utility.yul\":15601:15659   */\n      mstore\n        /* \"#utility.yul\":15676:15694   */\n      0x64\n      add\n        /* \"NFT-Contracts/new/final_market_Multi_nft.sol\":4594:4794  require(\r... */\n      tag_151\n        /* \"#utility.yul\":15348:15700   */\n      jump\n        /* \"NFT-Contracts/new/final_market_Multi_nft.sol\":4594:4794  require(\r... */\n    tag_325:\n        /* \"NFT-Contracts/new/final_market_Multi_nft.sol\":9609:9619  _salePrice */\n      dup8\n        /* \"NFT-Contracts/new/final_market_Multi_nft.sol\":5352:5353  0 */\n      0x00\n        /* \"NFT-Contracts/new/final_market_Multi_nft.sol\":5343:5349  _price */\n      dup2\n        /* \"NFT-Contracts/new/final_market_Multi_nft.sol\":5343:5353  _price > 0 */\n      gt\n        /* \"NFT-Contracts/new/final_market_Multi_nft.sol\":5335:5375  require(_price > 0, \"Price cannot be 0\") */\n      tag_328\n      jumpi\n      mload(0x40)\n      shl(0xe5, 0x461bcd)\n      dup2\n      mstore\n      0x04\n      add\n      tag_151\n      swap1\n      tag_160\n      jump\t// in\n    tag_328:\n        /* \"NFT-Contracts/new/final_market_Multi_nft.sol\":9691:9829  FixedSale(\r... */\n      mload(0x40)\n      dup1\n      0xa0\n      add\n      0x40\n      mstore\n      dup1\n        /* \"NFT-Contracts/new/final_market_Multi_nft.sol\":9715:9725  msg.sender */\n      caller\n      sub(shl(0xa0, 0x01), 0x01)\n        /* \"NFT-Contracts/new/final_market_Multi_nft.sol\":9691:9829  FixedSale(\r... */\n      and\n      dup2\n      mstore\n      0x20\n      add\n        /* \"NFT-Contracts/new/final_market_Multi_nft.sol\":9748:9749  0 */\n      0x00\n      sub(shl(0xa0, 0x01), 0x01)\n        /* \"NFT-Contracts/new/final_market_Multi_nft.sol\":9691:9829  FixedSale(\r... */\n      and\n      dup2\n      mstore\n      0x20\n      add\n        /* \"NFT-Contracts/new/final_market_Multi_nft.sol\":9765:9771  _erc20 */\n      dup14\n      sub(shl(0xa0, 0x01), 0x01)\n        /* \"NFT-Contracts/new/final_market_Multi_nft.sol\":9691:9829  FixedSale(\r... */\n      and\n      dup2\n      mstore\n      0x20\n      add\n        /* \"NFT-Contracts/new/final_market_Multi_nft.sol\":9786:9793  _amount */\n      dup12\n        /* \"NFT-Contracts/new/final_market_Multi_nft.sol\":9691:9829  FixedSale(\r... */\n      dup2\n      mstore\n      0x20\n      add\n        /* \"NFT-Contracts/new/final_market_Multi_nft.sol\":9808:9818  _salePrice */\n      dup11\n        /* \"NFT-Contracts/new/final_market_Multi_nft.sol\":9691:9829  FixedSale(\r... */\n      dup2\n      mstore\n      pop\n        /* \"NFT-Contracts/new/final_market_Multi_nft.sol\":9637:9657  nftContractFixedSale */\n      0x00\n        /* \"NFT-Contracts/new/final_market_Multi_nft.sol\":9637:9678  nftContractFixedSale[_nftContractAddress] */\n      dup1\n        /* \"NFT-Contracts/new/final_market_Multi_nft.sol\":9658:9677  _nftContractAddress */\n      dup16\n      sub(shl(0xa0, 0x01), 0x01)\n        /* \"NFT-Contracts/new/final_market_Multi_nft.sol\":9637:9678  nftContractFixedSale[_nftContractAddress] */\n      and\n      sub(shl(0xa0, 0x01), 0x01)\n      and\n      dup2\n      mstore\n      0x20\n      add\n      swap1\n      dup2\n      mstore\n      0x20\n      add\n      0x00\n      keccak256\n        /* \"NFT-Contracts/new/final_market_Multi_nft.sol\":9637:9688  nftContractFixedSale[_nftContractAddress][_tokenId] */\n      0x00\n        /* \"NFT-Contracts/new/final_market_Multi_nft.sol\":9679:9687  _tokenId */\n      dup14\n        /* \"NFT-Contracts/new/final_market_Multi_nft.sol\":9637:9688  nftContractFixedSale[_nftContractAddress][_tokenId] */\n      dup2\n      mstore\n      0x20\n      add\n      swap1\n      dup2\n      mstore\n      0x20\n      add\n      0x00\n      keccak256\n        /* \"NFT-Contracts/new/final_market_Multi_nft.sol\":9637:9829  nftContractFixedSale[_nftContractAddress][_tokenId] = FixedSale(\r... */\n      0x00\n      dup3\n      add\n      mload\n      dup2\n      0x00\n      add\n      exp(0x0100, 0x00)\n      dup2\n      sload\n      dup2\n      sub(shl(0xa0, 0x01), 0x01)\n      mul\n      not\n      and\n      swap1\n      dup4\n      sub(shl(0xa0, 0x01), 0x01)\n      and\n      mul\n      or\n      swap1\n      sstore\n      pop\n      0x20\n      dup3\n      add\n      mload\n      dup2\n      0x01\n      add\n      exp(0x0100, 0x00)\n      dup2\n      sload\n      dup2\n      sub(shl(0xa0, 0x01), 0x01)\n      mul\n      not\n      and\n      swap1\n      dup4\n      sub(shl(0xa0, 0x01), 0x01)\n      and\n      mul\n      or\n      swap1\n      sstore\n      pop\n      0x40\n      dup3\n      add\n      mload\n      dup2\n      0x02\n      add\n      exp(0x0100, 0x00)\n      dup2\n      sload\n      dup2\n      sub(shl(0xa0, 0x01), 0x01)\n      mul\n      not\n      and\n      swap1\n      dup4\n      sub(shl(0xa0, 0x01), 0x01)\n      and\n      mul\n      or\n      swap1\n      sstore\n      pop\n      0x60\n      dup3\n      add\n      mload\n      dup2\n      0x03\n      add\n      sstore\n      0x80\n      dup3\n      add\n      mload\n      dup2\n      0x04\n      add\n      sstore\n      swap1\n      pop\n      pop\n        /* \"NFT-Contracts/new/final_market_Multi_nft.sol\":9889:9890  1 */\n      0x01\n        /* \"NFT-Contracts/new/final_market_Multi_nft.sol\":9842:9855  nftSaleStatus */\n      dup1\n        /* \"NFT-Contracts/new/final_market_Multi_nft.sol\":9842:9876  nftSaleStatus[_nftContractAddress] */\n      0x00\n        /* \"NFT-Contracts/new/final_market_Multi_nft.sol\":9856:9875  _nftContractAddress */\n      dup16\n      sub(shl(0xa0, 0x01), 0x01)\n        /* \"NFT-Contracts/new/final_market_Multi_nft.sol\":9842:9876  nftSaleStatus[_nftContractAddress] */\n      and\n      sub(shl(0xa0, 0x01), 0x01)\n      and\n      dup2\n      mstore\n      0x20\n      add\n      swap1\n      dup2\n      mstore\n      0x20\n      add\n      0x00\n      keccak256\n        /* \"NFT-Contracts/new/final_market_Multi_nft.sol\":9842:9886  nftSaleStatus[_nftContractAddress][_tokenId] */\n      0x00\n        /* \"NFT-Contracts/new/final_market_Multi_nft.sol\":9877:9885  _tokenId */\n      dup14\n        /* \"NFT-Contracts/new/final_market_Multi_nft.sol\":9842:9886  nftSaleStatus[_nftContractAddress][_tokenId] */\n      dup2\n      mstore\n      0x20\n      add\n      swap1\n      dup2\n      mstore\n      0x20\n      add\n      0x00\n      keccak256\n        /* \"NFT-Contracts/new/final_market_Multi_nft.sol\":9842:9890  nftSaleStatus[_nftContractAddress][_tokenId] = 1 */\n      dup2\n      swap1\n      sstore\n      pop\n        /* \"NFT-Contracts/new/final_market_Multi_nft.sol\":9954:9966  fixedSaleNFT */\n      0x06\n        /* \"NFT-Contracts/new/final_market_Multi_nft.sol\":9954:9973  fixedSaleNFT.length */\n      dup1\n      sload\n      swap1\n      pop\n        /* \"NFT-Contracts/new/final_market_Multi_nft.sol\":9903:9920  indexFixedSaleNFT */\n      0x02\n        /* \"NFT-Contracts/new/final_market_Multi_nft.sol\":9903:9941  indexFixedSaleNFT[_nftContractAddress] */\n      0x00\n        /* \"NFT-Contracts/new/final_market_Multi_nft.sol\":9921:9940  _nftContractAddress */\n      dup16\n      sub(shl(0xa0, 0x01), 0x01)\n        /* \"NFT-Contracts/new/final_market_Multi_nft.sol\":9903:9941  indexFixedSaleNFT[_nftContractAddress] */\n      and\n      sub(shl(0xa0, 0x01), 0x01)\n      and\n      dup2\n      mstore\n      0x20\n      add\n      swap1\n      dup2\n      mstore\n      0x20\n      add\n      0x00\n      keccak256\n        /* \"NFT-Contracts/new/final_market_Multi_nft.sol\":9903:9951  indexFixedSaleNFT[_nftContractAddress][_tokenId] */\n      0x00\n        /* \"NFT-Contracts/new/final_market_Multi_nft.sol\":9942:9950  _tokenId */\n      dup14\n        /* \"NFT-Contracts/new/final_market_Multi_nft.sol\":9903:9951  indexFixedSaleNFT[_nftContractAddress][_tokenId] */\n      dup2\n      mstore\n      0x20\n      add\n      swap1\n      dup2\n      mstore\n      0x20\n      add\n      0x00\n      keccak256\n        /* \"NFT-Contracts/new/final_market_Multi_nft.sol\":9903:9973  indexFixedSaleNFT[_nftContractAddress][_tokenId] = fixedSaleNFT.length */\n      dup2\n      swap1\n      sstore\n      pop\n        /* \"NFT-Contracts/new/final_market_Multi_nft.sol\":9984:9996  fixedSaleNFT */\n      0x06\n        /* \"NFT-Contracts/new/final_market_Multi_nft.sol\":10002:10041  SaleInfo(_nftContractAddress, _tokenId) */\n      mload(0x40)\n      dup1\n      0x40\n      add\n      0x40\n      mstore\n      dup1\n        /* \"NFT-Contracts/new/final_market_Multi_nft.sol\":10011:10030  _nftContractAddress */\n      dup16\n      sub(shl(0xa0, 0x01), 0x01)\n        /* \"NFT-Contracts/new/final_market_Multi_nft.sol\":10002:10041  SaleInfo(_nftContractAddress, _tokenId) */\n      and\n      dup2\n      mstore\n      0x20\n      add\n        /* \"NFT-Contracts/new/final_market_Multi_nft.sol\":10032:10040  _tokenId */\n      dup14\n        /* \"NFT-Contracts/new/final_market_Multi_nft.sol\":10002:10041  SaleInfo(_nftContractAddress, _tokenId) */\n      dup2\n      mstore\n      pop\n        /* \"NFT-Contracts/new/final_market_Multi_nft.sol\":9984:10042  fixedSaleNFT.push(SaleInfo(_nftContractAddress, _tokenId)) */\n      swap1\n      dup1\n      0x01\n      dup2\n      sload\n      add\n      dup1\n      dup3\n      sstore\n      dup1\n      swap2\n      pop\n      pop\n      0x01\n      swap1\n      sub\n      swap1\n      0x00\n      mstore\n      keccak256(0x00, 0x20)\n      swap1\n      0x02\n      mul\n      add\n      0x00\n      swap1\n      swap2\n      swap1\n      swap2\n      swap1\n      swap2\n      pop\n      0x00\n      dup3\n      add\n      mload\n      dup2\n      0x00\n      add\n      exp(0x0100, 0x00)\n      dup2\n      sload\n      dup2\n      sub(shl(0xa0, 0x01), 0x01)\n      mul\n      not\n      and\n      swap1\n      dup4\n      sub(shl(0xa0, 0x01), 0x01)\n      and\n      mul\n      or\n      swap1\n      sstore\n      pop\n      0x20\n      dup3\n      add\n      mload\n      dup2\n      0x01\n      add\n      sstore\n      pop\n      pop\n        /* \"NFT-Contracts/new/final_market_Multi_nft.sol\":10064:10083  _nftContractAddress */\n      dup13\n      sub(shl(0xa0, 0x01), 0x01)\n        /* \"NFT-Contracts/new/final_market_Multi_nft.sol\":10055:10101  IERC1155(_nftContractAddress).safeTransferFrom */\n      and\n      0xf242432a\n        /* \"NFT-Contracts/new/final_market_Multi_nft.sol\":10116:10126  msg.sender */\n      caller\n        /* \"NFT-Contracts/new/final_market_Multi_nft.sol\":10149:10153  this */\n      address\n        /* \"NFT-Contracts/new/final_market_Multi_nft.sol\":10169:10177  _tokenId */\n      dup15\n        /* \"NFT-Contracts/new/final_market_Multi_nft.sol\":10192:10199  _amount */\n      dup15\n        /* \"NFT-Contracts/new/final_market_Multi_nft.sol\":10214:10219  _data */\n      dup14\n        /* \"NFT-Contracts/new/final_market_Multi_nft.sol\":10055:10230  IERC1155(_nftContractAddress).safeTransferFrom(\r... */\n      mload(0x40)\n      dup7\n      0xffffffff\n      and\n      0xe0\n      shl\n      dup2\n      mstore\n      0x04\n      add\n      tag_332\n      swap6\n      swap5\n      swap4\n      swap3\n      swap2\n      swap1\n      tag_298\n      jump\t// in\n    tag_332:\n      0x00\n      mload(0x40)\n      dup1\n      dup4\n      sub\n      dup2\n      0x00\n      dup8\n      dup1\n      extcodesize\n      iszero\n      dup1\n      iszero\n      tag_333\n      jumpi\n      0x00\n      dup1\n      revert\n    tag_333:\n      pop\n      gas\n      call\n      iszero\n      dup1\n      iszero\n      tag_335\n      jumpi\n      returndatasize\n      0x00\n      dup1\n      returndatacopy\n      revert(0x00, returndatasize)\n    tag_335:\n      pop\n      pop\n      pop\n      pop\n        /* \"NFT-Contracts/new/final_market_Multi_nft.sol\":10252:10455  NftFixedSale(\r... */\n      0x938b2f79c6d40413c38c16569ce7d13d8fb10b1b1f5d6f4b6448aeb9d7b189f3\n        /* \"NFT-Contracts/new/final_market_Multi_nft.sol\":10279:10298  _nftContractAddress */\n      dup14\n        /* \"NFT-Contracts/new/final_market_Multi_nft.sol\":10313:10323  msg.sender */\n      caller\n        /* \"NFT-Contracts/new/final_market_Multi_nft.sol\":10338:10344  _erc20 */\n      dup15\n        /* \"NFT-Contracts/new/final_market_Multi_nft.sol\":10359:10367  _tokenId */\n      dup15\n        /* \"NFT-Contracts/new/final_market_Multi_nft.sol\":10382:10389  _amount */\n      dup15\n        /* \"NFT-Contracts/new/final_market_Multi_nft.sol\":10404:10414  _salePrice */\n      dup15\n        /* \"NFT-Contracts/new/final_market_Multi_nft.sol\":10429:10444  block.timestamp */\n      timestamp\n        /* \"NFT-Contracts/new/final_market_Multi_nft.sol\":10252:10455  NftFixedSale(\r... */\n      mload(0x40)\n      tag_336\n      swap8\n      swap7\n      swap6\n      swap5\n      swap4\n      swap3\n      swap2\n      swap1\n      tag_238\n      jump\t// in\n    tag_336:\n      mload(0x40)\n      dup1\n      swap2\n      sub\n      swap1\n      log1\n        /* \"NFT-Contracts/new/final_market_Multi_nft.sol\":4805:4806  _ */\n      pop\n        /* \"NFT-Contracts/new/final_market_Multi_nft.sol\":3759:3760  _ */\n      pop\n      pop\n        /* \"NFT-Contracts/new/final_market_Multi_nft.sol\":4215:4216  _ */\n      pop\n      pop\n        /* \"NFT-Contracts/new/final_market_Multi_nft.sol\":9182:10463  function nftFixedSale(\r... */\n      pop\n      pop\n      pop\n      pop\n      pop\n      pop\n      pop\n      pop\n      jump\t// out\n        /* \"NFT-Contracts/new/final_market_Multi_nft.sol\":8860:9149  function Sell_AreveaToken(address _erc20_contract, address seller, uint256 _amount) public returns (bool){\r... */\n    tag_103:\n        /* \"NFT-Contracts/new/final_market_Multi_nft.sol\":9023:9119  IERC20(ERC20_contract).transferFrom(seller, 0x2258c5b9C82ff0Fa923756ED3FD2aCb5616dF57c, _amount) */\n      mload(0x40)\n      shl(0xe0, 0x23b872dd)\n      dup2\n      mstore\n        /* \"NFT-Contracts/new/final_market_Multi_nft.sol\":8960:8964  bool */\n      0x00\n      swap1\n        /* \"NFT-Contracts/new/final_market_Multi_nft.sol\":8999:9014  _erc20_contract */\n      dup5\n      swap1\n      sub(shl(0xa0, 0x01), 0x01)\n        /* \"NFT-Contracts/new/final_market_Multi_nft.sol\":9023:9058  IERC20(ERC20_contract).transferFrom */\n      dup3\n      and\n      swap1\n      0x23b872dd\n      swap1\n        /* \"NFT-Contracts/new/final_market_Multi_nft.sol\":9023:9119  IERC20(ERC20_contract).transferFrom(seller, 0x2258c5b9C82ff0Fa923756ED3FD2aCb5616dF57c, _amount) */\n      tag_142\n      swap1\n        /* \"NFT-Contracts/new/final_market_Multi_nft.sol\":9059:9065  seller */\n      dup8\n      swap1\n        /* \"NFT-Contracts/new/final_market_Multi_nft.sol\":9067:9109  0x2258c5b9C82ff0Fa923756ED3FD2aCb5616dF57c */\n      0x2258c5b9c82ff0fa923756ed3fd2acb5616df57c\n      swap1\n        /* \"NFT-Contracts/new/final_market_Multi_nft.sol\":9111:9118  _amount */\n      dup9\n      swap1\n        /* \"NFT-Contracts/new/final_market_Multi_nft.sol\":9023:9119  IERC20(ERC20_contract).transferFrom(seller, 0x2258c5b9C82ff0Fa923756ED3FD2aCb5616dF57c, _amount) */\n      0x04\n      add\n      tag_143\n      jump\t// in\n        /* \"NFT-Contracts/new/final_market_Multi_nft.sol\":10471:11180  function cancelFixedsale(\r... */\n    tag_109:\n      sub(shl(0xa0, 0x01), 0x01)\n        /* \"NFT-Contracts/new/final_market_Multi_nft.sol\":3882:3916  nftSaleStatus[_nftContractAddress] */\n      dup5\n      and\n      0x00\n      swap1\n      dup2\n      mstore\n        /* \"NFT-Contracts/new/final_market_Multi_nft.sol\":3882:3895  nftSaleStatus */\n      0x01\n        /* \"NFT-Contracts/new/final_market_Multi_nft.sol\":3882:3916  nftSaleStatus[_nftContractAddress] */\n      0x20\n      dup2\n      dup2\n      mstore\n      0x40\n      dup1\n      dup5\n      keccak256\n        /* \"NFT-Contracts/new/final_market_Multi_nft.sol\":3882:3926  nftSaleStatus[_nftContractAddress][_tokenId] */\n      dup8\n      dup6\n      mstore\n      swap1\n      swap2\n      mstore\n      swap1\n      swap2\n      keccak256\n      sload\n        /* \"NFT-Contracts/new/final_market_Multi_nft.sol\":10667:10686  _nftContractAddress */\n      dup6\n      swap2\n        /* \"NFT-Contracts/new/final_market_Multi_nft.sol\":10688:10696  _tokenId */\n      dup6\n      swap2\n        /* \"NFT-Contracts/new/final_market_Multi_nft.sol\":3882:3931  nftSaleStatus[_nftContractAddress][_tokenId] == 1 */\n      eq\n        /* \"NFT-Contracts/new/final_market_Multi_nft.sol\":3860:3980  require(\r... */\n      tag_344\n      jumpi\n      mload(0x40)\n      shl(0xe5, 0x461bcd)\n      dup2\n      mstore\n      0x04\n      add\n      tag_151\n      swap1\n      tag_242\n      jump\t// in\n    tag_344:\n      sub(shl(0xa0, 0x01), 0x01)\n        /* \"NFT-Contracts/new/final_market_Multi_nft.sol\":4371:4412  nftContractFixedSale[_nftContractAddress] */\n      dup7\n      dup2\n      and\n        /* \"NFT-Contracts/new/final_market_Multi_nft.sol\":4371:4391  nftContractFixedSale */\n      0x00\n        /* \"NFT-Contracts/new/final_market_Multi_nft.sol\":4371:4412  nftContractFixedSale[_nftContractAddress] */\n      swap1\n      dup2\n      mstore\n      0x20\n      dup2\n      dup2\n      mstore\n      0x40\n      dup1\n      dup4\n      keccak256\n        /* \"NFT-Contracts/new/final_market_Multi_nft.sol\":4371:4422  nftContractFixedSale[_nftContractAddress][_tokenId] */\n      dup10\n      dup5\n      mstore\n      swap1\n      swap2\n      mstore\n      swap1\n      keccak256\n        /* \"NFT-Contracts/new/final_market_Multi_nft.sol\":4371:4432  nftContractFixedSale[_nftContractAddress][_tokenId].nftSeller */\n      sload\n        /* \"NFT-Contracts/new/final_market_Multi_nft.sol\":4371:4412  nftContractFixedSale[_nftContractAddress] */\n      dup8\n      swap2\n        /* \"NFT-Contracts/new/final_market_Multi_nft.sol\":4371:4422  nftContractFixedSale[_nftContractAddress][_tokenId] */\n      dup8\n      swap2\n        /* \"NFT-Contracts/new/final_market_Multi_nft.sol\":4371:4432  nftContractFixedSale[_nftContractAddress][_tokenId].nftSeller */\n      and\n        /* \"NFT-Contracts/new/final_market_Multi_nft.sol\":4340:4350  msg.sender */\n      caller\n        /* \"NFT-Contracts/new/final_market_Multi_nft.sol\":4340:4432  msg.sender ==\r... */\n      eq\n        /* \"NFT-Contracts/new/final_market_Multi_nft.sol\":4318:4481  require(\r... */\n      tag_347\n      jumpi\n      mload(0x40)\n      shl(0xe5, 0x461bcd)\n      dup2\n      mstore\n      0x04\n      add\n      tag_151\n      swap1\n      tag_212\n      jump\t// in\n    tag_347:\n        /* \"NFT-Contracts/new/final_market_Multi_nft.sol\":10773:10948  IERC1155(_nftContractAddress).safeTransferFrom(\r... */\n      mload(0x40)\n      shl(0xe1, 0x79212195)\n      dup2\n      mstore\n      sub(shl(0xa0, 0x01), 0x01)\n        /* \"NFT-Contracts/new/final_market_Multi_nft.sol\":10773:10819  IERC1155(_nftContractAddress).safeTransferFrom */\n      dup10\n      and\n      swap1\n      0xf242432a\n      swap1\n        /* \"NFT-Contracts/new/final_market_Multi_nft.sol\":10773:10948  IERC1155(_nftContractAddress).safeTransferFrom(\r... */\n      tag_350\n      swap1\n        /* \"NFT-Contracts/new/final_market_Multi_nft.sol\":10834:10844  msg.sender */\n      caller\n      swap1\n        /* \"NFT-Contracts/new/final_market_Multi_nft.sol\":10867:10871  this */\n      address\n      swap1\n        /* \"NFT-Contracts/new/final_market_Multi_nft.sol\":10887:10895  _tokenId */\n      dup13\n      swap1\n        /* \"NFT-Contracts/new/final_market_Multi_nft.sol\":10910:10917  _amount */\n      dup13\n      swap1\n        /* \"NFT-Contracts/new/final_market_Multi_nft.sol\":10932:10937  _data */\n      dup13\n      swap1\n        /* \"NFT-Contracts/new/final_market_Multi_nft.sol\":10773:10948  IERC1155(_nftContractAddress).safeTransferFrom(\r... */\n      0x04\n      add\n      tag_298\n      jump\t// in\n    tag_350:\n      0x00\n      mload(0x40)\n      dup1\n      dup4\n      sub\n      dup2\n      0x00\n      dup8\n      dup1\n      extcodesize\n      iszero\n      dup1\n      iszero\n      tag_351\n      jumpi\n      0x00\n      dup1\n      revert\n    tag_351:\n      pop\n      gas\n      call\n      iszero\n      dup1\n      iszero\n      tag_353\n      jumpi\n      returndatasize\n      0x00\n      dup1\n      returndatacopy\n      revert(0x00, returndatasize)\n    tag_353:\n      pop\n      pop\n      pop\n      sub(shl(0xa0, 0x01), 0x01)\n        /* \"NFT-Contracts/new/final_market_Multi_nft.sol\":10961:10995  nftSaleStatus[_nftContractAddress] */\n      dup10\n      and\n        /* \"NFT-Contracts/new/final_market_Multi_nft.sol\":11008:11009  0 */\n      0x00\n        /* \"NFT-Contracts/new/final_market_Multi_nft.sol\":10961:10995  nftSaleStatus[_nftContractAddress] */\n      dup2\n      dup2\n      mstore\n        /* \"NFT-Contracts/new/final_market_Multi_nft.sol\":10961:10974  nftSaleStatus */\n      0x01\n        /* \"NFT-Contracts/new/final_market_Multi_nft.sol\":10961:10995  nftSaleStatus[_nftContractAddress] */\n      0x20\n      swap1\n      dup2\n      mstore\n      0x40\n      dup1\n      dup4\n      keccak256\n        /* \"NFT-Contracts/new/final_market_Multi_nft.sol\":10961:11005  nftSaleStatus[_nftContractAddress][_tokenId] */\n      dup13\n      dup5\n      mstore\n      dup3\n      mstore\n      dup1\n      dup4\n      keccak256\n        /* \"NFT-Contracts/new/final_market_Multi_nft.sol\":10961:11009  nftSaleStatus[_nftContractAddress][_tokenId] = 0 */\n      dup4\n      swap1\n      sstore\n        /* \"NFT-Contracts/new/final_market_Multi_nft.sol\":11043:11081  indexFixedSaleNFT[_nftContractAddress] */\n      swap3\n      dup3\n      mstore\n        /* \"NFT-Contracts/new/final_market_Multi_nft.sol\":11043:11060  indexFixedSaleNFT */\n      0x02\n        /* \"NFT-Contracts/new/final_market_Multi_nft.sol\":11043:11081  indexFixedSaleNFT[_nftContractAddress] */\n      dup2\n      mstore\n      dup3\n      dup3\n      keccak256\n        /* \"NFT-Contracts/new/final_market_Multi_nft.sol\":11043:11091  indexFixedSaleNFT[_nftContractAddress][_tokenId] */\n      dup12\n      dup4\n      mstore\n      swap1\n      mstore\n      keccak256\n      sload\n        /* \"NFT-Contracts/new/final_market_Multi_nft.sol\":11029:11041  fixedSaleNFT */\n      0x06\n        /* \"NFT-Contracts/new/final_market_Multi_nft.sol\":11029:11093  fixedSaleNFT[(indexFixedSaleNFT[_nftContractAddress][_tokenId])] */\n      dup1\n      sload\n        /* \"NFT-Contracts/new/final_market_Multi_nft.sol\":11029:11041  fixedSaleNFT */\n      swap1\n      swap3\n      pop\n        /* \"NFT-Contracts/new/final_market_Multi_nft.sol\":11029:11093  fixedSaleNFT[(indexFixedSaleNFT[_nftContractAddress][_tokenId])] */\n      dup2\n      lt\n      tag_355\n      jumpi\n      tag_355\n      tag_276\n      jump\t// in\n    tag_355:\n      0x00\n      swap2\n      dup3\n      mstore\n      0x20\n      dup3\n      keccak256\n      0x02\n      swap1\n      swap2\n      mul\n      add\n        /* \"NFT-Contracts/new/final_market_Multi_nft.sol\":11022:11093  delete fixedSaleNFT[(indexFixedSaleNFT[_nftContractAddress][_tokenId])] */\n      dup1\n      sload\n      not(sub(shl(0xa0, 0x01), 0x01))\n      and\n      dup2\n      sstore\n      0x01\n      add\n      sstore\n        /* \"NFT-Contracts/new/final_market_Multi_nft.sol\":11111:11172  CancelNftFixedSale(_nftContractAddress, msg.sender, _tokenId) */\n      mload(0x40)\n      0xd7348ff00cf381a884144b50b3441398a48a7974ec349287df80e18cec9f5a31\n      swap1\n      tag_250\n      swap1\n        /* \"NFT-Contracts/new/final_market_Multi_nft.sol\":11130:11149  _nftContractAddress */\n      dup11\n      swap1\n        /* \"NFT-Contracts/new/final_market_Multi_nft.sol\":11151:11161  msg.sender */\n      caller\n      swap1\n        /* \"NFT-Contracts/new/final_market_Multi_nft.sol\":11163:11171  _tokenId */\n      dup12\n      swap1\n        /* \"NFT-Contracts/new/final_market_Multi_nft.sol\":11111:11172  CancelNftFixedSale(_nftContractAddress, msg.sender, _tokenId) */\n      tag_143\n      jump\t// in\n        /* \"NFT-Contracts/new/final_market_Multi_nft.sol\":17594:18523  function _cancelAuctionSale(address _nftContractAddress, uint256 _tokenId)\r... */\n    tag_113:\n      sub(shl(0xa0, 0x01), 0x01)\n        /* \"NFT-Contracts/new/final_market_Multi_nft.sol\":5511:5545  nftSaleStatus[_nftContractAddress] */\n      dup3\n      and\n      0x00\n      swap1\n      dup2\n      mstore\n        /* \"NFT-Contracts/new/final_market_Multi_nft.sol\":5511:5524  nftSaleStatus */\n      0x01\n        /* \"NFT-Contracts/new/final_market_Multi_nft.sol\":5511:5545  nftSaleStatus[_nftContractAddress] */\n      0x20\n      swap1\n      dup2\n      mstore\n      0x40\n      dup1\n      dup4\n      keccak256\n        /* \"NFT-Contracts/new/final_market_Multi_nft.sol\":5511:5555  nftSaleStatus[_nftContractAddress][_tokenId] */\n      dup5\n      dup5\n      mstore\n      swap1\n      swap2\n      mstore\n      swap1\n      keccak256\n      sload\n        /* \"NFT-Contracts/new/final_market_Multi_nft.sol\":17715:17734  _nftContractAddress */\n      dup3\n      swap1\n        /* \"NFT-Contracts/new/final_market_Multi_nft.sol\":17736:17744  _tokenId */\n      dup3\n      swap1\n        /* \"NFT-Contracts/new/final_market_Multi_nft.sol\":5559:5560  2 */\n      0x02\n        /* \"NFT-Contracts/new/final_market_Multi_nft.sol\":5511:5560  nftSaleStatus[_nftContractAddress][_tokenId] == 2 */\n      eq\n        /* \"NFT-Contracts/new/final_market_Multi_nft.sol\":5489:5611  require(\r... */\n      tag_359\n      jumpi\n      mload(0x40)\n      shl(0xe5, 0x461bcd)\n      dup2\n      mstore\n      0x04\n      add\n      tag_151\n      swap1\n      tag_152\n      jump\t// in\n    tag_359:\n      sub(shl(0xa0, 0x01), 0x01)\n        /* \"NFT-Contracts/new/final_market_Multi_nft.sol\":7214:7257  nftContractAuctionSale[_nftContractAddress] */\n      dup5\n      dup2\n      and\n      0x00\n      swap1\n      dup2\n      mstore\n        /* \"NFT-Contracts/new/final_market_Multi_nft.sol\":7214:7236  nftContractAuctionSale */\n      0x03\n        /* \"NFT-Contracts/new/final_market_Multi_nft.sol\":7214:7257  nftContractAuctionSale[_nftContractAddress] */\n      0x20\n      swap1\n      dup2\n      mstore\n      0x40\n      dup1\n      dup4\n      keccak256\n        /* \"NFT-Contracts/new/final_market_Multi_nft.sol\":7214:7267  nftContractAuctionSale[_nftContractAddress][_tokenId] */\n      dup8\n      dup5\n      mstore\n      swap1\n      swap2\n      mstore\n      swap1\n      keccak256\n        /* \"NFT-Contracts/new/final_market_Multi_nft.sol\":7214:7277  nftContractAuctionSale[_nftContractAddress][_tokenId].nftSeller */\n      0x06\n      add\n      sload\n        /* \"NFT-Contracts/new/final_market_Multi_nft.sol\":7214:7257  nftContractAuctionSale[_nftContractAddress] */\n      dup6\n      swap2\n        /* \"NFT-Contracts/new/final_market_Multi_nft.sol\":7214:7267  nftContractAuctionSale[_nftContractAddress][_tokenId] */\n      dup6\n      swap2\n        /* \"NFT-Contracts/new/final_market_Multi_nft.sol\":7214:7277  nftContractAuctionSale[_nftContractAddress][_tokenId].nftSeller */\n      and\n        /* \"NFT-Contracts/new/final_market_Multi_nft.sol\":7183:7193  msg.sender */\n      caller\n        /* \"NFT-Contracts/new/final_market_Multi_nft.sol\":7183:7277  msg.sender ==\r... */\n      eq\n        /* \"NFT-Contracts/new/final_market_Multi_nft.sol\":7161:7318  require(\r... */\n      tag_362\n      jumpi\n      mload(0x40)\n      shl(0xe5, 0x461bcd)\n      dup2\n      mstore\n        /* \"#utility.yul\":16253:16255   */\n      0x20\n        /* \"NFT-Contracts/new/final_market_Multi_nft.sol\":7161:7318  require(\r... */\n      0x04\n      dup3\n      add\n        /* \"#utility.yul\":16235:16256   */\n      mstore\n        /* \"#utility.yul\":16292:16294   */\n      0x0d\n        /* \"#utility.yul\":16272:16290   */\n      0x24\n      dup3\n      add\n        /* \"#utility.yul\":16265:16295   */\n      mstore\n      shl(0x99, 0x3737ba1037333a1037bbb732b9)\n        /* \"#utility.yul\":16311:16329   */\n      0x44\n      dup3\n      add\n        /* \"#utility.yul\":16304:16347   */\n      mstore\n        /* \"#utility.yul\":16364:16382   */\n      0x64\n      add\n        /* \"NFT-Contracts/new/final_market_Multi_nft.sol\":7161:7318  require(\r... */\n      tag_151\n        /* \"#utility.yul\":16051:16388   */\n      jump\n        /* \"NFT-Contracts/new/final_market_Multi_nft.sol\":7161:7318  require(\r... */\n    tag_362:\n      sub(shl(0xa0, 0x01), 0x01)\n        /* \"NFT-Contracts/new/final_market_Multi_nft.sol\":6894:6937  nftContractAuctionSale[_nftContractAddress] */\n      dup7\n      and\n      0x00\n      swap1\n      dup2\n      mstore\n        /* \"NFT-Contracts/new/final_market_Multi_nft.sol\":6894:6916  nftContractAuctionSale */\n      0x03\n        /* \"NFT-Contracts/new/final_market_Multi_nft.sol\":6894:6937  nftContractAuctionSale[_nftContractAddress] */\n      0x20\n      swap1\n      dup2\n      mstore\n      0x40\n      dup1\n      dup4\n      keccak256\n        /* \"NFT-Contracts/new/final_market_Multi_nft.sol\":6894:6947  nftContractAuctionSale[_nftContractAddress][_tokenId] */\n      dup9\n      dup5\n      mstore\n      swap1\n      swap2\n      mstore\n      swap1\n      keccak256\n        /* \"NFT-Contracts/new/final_market_Multi_nft.sol\":6894:6980  nftContractAuctionSale[_nftContractAddress][_tokenId]\r... */\n      0x01\n      add\n      sload\n        /* \"NFT-Contracts/new/final_market_Multi_nft.sol\":17834:17853  _nftContractAddress */\n      dup7\n      swap1\n        /* \"NFT-Contracts/new/final_market_Multi_nft.sol\":17855:17863  _tokenId */\n      dup7\n      swap1\n        /* \"NFT-Contracts/new/final_market_Multi_nft.sol\":6859:6874  block.timestamp */\n      timestamp\n        /* \"NFT-Contracts/new/final_market_Multi_nft.sol\":6859:6980  block.timestamp <\r... */\n      lt\n        /* \"NFT-Contracts/new/final_market_Multi_nft.sol\":6837:7019  require(\r... */\n      tag_366\n      jumpi\n      mload(0x40)\n      shl(0xe5, 0x461bcd)\n      dup2\n      mstore\n      0x04\n      add\n      tag_151\n      swap1\n      tag_156\n      jump\t// in\n    tag_366:\n      sub(shl(0xa0, 0x01), 0x01)\n        /* \"NFT-Contracts/new/final_market_Multi_nft.sol\":8413:8456  nftContractAuctionSale[_nftContractAddress] */\n      dup1\n      dup10\n      and\n      0x00\n      swap1\n      dup2\n      mstore\n        /* \"NFT-Contracts/new/final_market_Multi_nft.sol\":8413:8435  nftContractAuctionSale */\n      0x03\n        /* \"NFT-Contracts/new/final_market_Multi_nft.sol\":8413:8456  nftContractAuctionSale[_nftContractAddress] */\n      0x20\n      swap1\n      dup2\n      mstore\n      0x40\n      dup1\n      dup4\n      keccak256\n        /* \"NFT-Contracts/new/final_market_Multi_nft.sol\":8413:8466  nftContractAuctionSale[_nftContractAddress][_tokenId] */\n      dup12\n      dup5\n      mstore\n      swap1\n      swap2\n      mstore\n      swap1\n      keccak256\n        /* \"NFT-Contracts/new/final_market_Multi_nft.sol\":8413:8505  nftContractAuctionSale[_nftContractAddress][_tokenId]\r... */\n      0x05\n      add\n      sload\n        /* \"NFT-Contracts/new/final_market_Multi_nft.sol\":17894:17913  _nftContractAddress */\n      dup10\n      swap2\n        /* \"NFT-Contracts/new/final_market_Multi_nft.sol\":17915:17923  _tokenId */\n      dup10\n      swap2\n        /* \"NFT-Contracts/new/final_market_Multi_nft.sol\":8413:8505  nftContractAuctionSale[_nftContractAddress][_tokenId]\r... */\n      and\n        /* \"NFT-Contracts/new/final_market_Multi_nft.sol\":8382:8505  address(0) ==\r... */\n      iszero\n        /* \"NFT-Contracts/new/final_market_Multi_nft.sol\":8360:8541  require(\r... */\n      tag_369\n      jumpi\n      mload(0x40)\n      shl(0xe5, 0x461bcd)\n      dup2\n      mstore\n        /* \"#utility.yul\":19089:19091   */\n      0x20\n        /* \"NFT-Contracts/new/final_market_Multi_nft.sol\":8360:8541  require(\r... */\n      0x04\n      dup3\n      add\n        /* \"#utility.yul\":19071:19092   */\n      mstore\n        /* \"#utility.yul\":19128:19129   */\n      0x08\n        /* \"#utility.yul\":19108:19126   */\n      0x24\n      dup3\n      add\n        /* \"#utility.yul\":19101:19130   */\n      mstore\n      shl(0xc0, 0x626964206d616b65)\n        /* \"#utility.yul\":19146:19164   */\n      0x44\n      dup3\n      add\n        /* \"#utility.yul\":19139:19177   */\n      mstore\n        /* \"#utility.yul\":19194:19212   */\n      0x64\n      add\n        /* \"NFT-Contracts/new/final_market_Multi_nft.sol\":8360:8541  require(\r... */\n      tag_151\n        /* \"#utility.yul\":18887:19218   */\n      jump\n        /* \"NFT-Contracts/new/final_market_Multi_nft.sol\":8360:8541  require(\r... */\n    tag_369:\n      sub(shl(0xa0, 0x01), 0x01)\n        /* \"NFT-Contracts/new/final_market_Multi_nft.sol\":18039:18073  nftSaleStatus[_nftContractAddress] */\n      dup11\n      and\n        /* \"NFT-Contracts/new/final_market_Multi_nft.sol\":17941:17967  address nftContractAddress */\n      0x00\n        /* \"NFT-Contracts/new/final_market_Multi_nft.sol\":18039:18073  nftSaleStatus[_nftContractAddress] */\n      dup2\n      dup2\n      mstore\n        /* \"NFT-Contracts/new/final_market_Multi_nft.sol\":18039:18052  nftSaleStatus */\n      0x01\n        /* \"NFT-Contracts/new/final_market_Multi_nft.sol\":18039:18073  nftSaleStatus[_nftContractAddress] */\n      0x20\n      swap1\n      dup2\n      mstore\n      0x40\n      dup1\n      dup4\n      keccak256\n        /* \"NFT-Contracts/new/final_market_Multi_nft.sol\":18039:18083  nftSaleStatus[_nftContractAddress][_tokenId] */\n      dup14\n      dup5\n      mstore\n      dup3\n      mstore\n      dup1\n      dup4\n      keccak256\n        /* \"NFT-Contracts/new/final_market_Multi_nft.sol\":18039:18087  nftSaleStatus[_nftContractAddress][_tokenId] = 0 */\n      dup4\n      swap1\n      sstore\n        /* \"NFT-Contracts/new/final_market_Multi_nft.sol\":18233:18275  nftContractAuctionSale[nftContractAddress] */\n      dup4\n      dup4\n      mstore\n        /* \"NFT-Contracts/new/final_market_Multi_nft.sol\":18233:18255  nftContractAuctionSale */\n      0x03\n        /* \"NFT-Contracts/new/final_market_Multi_nft.sol\":18233:18275  nftContractAuctionSale[nftContractAddress] */\n      dup3\n      mstore\n      dup1\n      dup4\n      keccak256\n        /* \"NFT-Contracts/new/final_market_Multi_nft.sol\":18233:18284  nftContractAuctionSale[nftContractAddress][tokenId] */\n      dup14\n      dup5\n      mstore\n      swap1\n      swap2\n      mstore\n      swap1\n      dup2\n      swap1\n      keccak256\n        /* \"NFT-Contracts/new/final_market_Multi_nft.sol\":18233:18294  nftContractAuctionSale[nftContractAddress][tokenId].nftAmount */\n      0x04\n      swap1\n      dup2\n      add\n      sload\n        /* \"NFT-Contracts/new/final_market_Multi_nft.sol\":18100:18322  IERC1155(_nftContractAddress).safeTransferFrom(\r... */\n      swap2\n      mload\n      shl(0xe1, 0x79212195)\n      dup2\n      mstore\n        /* \"NFT-Contracts/new/final_market_Multi_nft.sol\":17970:17989  _nftContractAddress */\n      dup14\n      swap4\n        /* \"NFT-Contracts/new/final_market_Multi_nft.sol\":18018:18026  _tokenId */\n      dup14\n      swap4\n        /* \"NFT-Contracts/new/final_market_Multi_nft.sol\":18039:18073  nftSaleStatus[_nftContractAddress] */\n      swap1\n      swap3\n        /* \"NFT-Contracts/new/final_market_Multi_nft.sol\":18100:18146  IERC1155(_nftContractAddress).safeTransferFrom */\n      0xf242432a\n      swap3\n        /* \"NFT-Contracts/new/final_market_Multi_nft.sol\":18100:18322  IERC1155(_nftContractAddress).safeTransferFrom(\r... */\n      tag_373\n      swap3\n        /* \"NFT-Contracts/new/final_market_Multi_nft.sol\":18169:18173  this */\n      address\n      swap3\n        /* \"NFT-Contracts/new/final_market_Multi_nft.sol\":18189:18199  msg.sender */\n      caller\n      swap3\n        /* \"NFT-Contracts/new/final_market_Multi_nft.sol\":18018:18026  _tokenId */\n      dup9\n      swap3\n        /* \"NFT-Contracts/new/final_market_Multi_nft.sol\":18233:18294  nftContractAuctionSale[nftContractAddress][tokenId].nftAmount */\n      swap2\n        /* \"NFT-Contracts/new/final_market_Multi_nft.sol\":18100:18322  IERC1155(_nftContractAddress).safeTransferFrom(\r... */\n      add\n      tag_374\n      jump\t// in\n    tag_373:\n      0x00\n      mload(0x40)\n      dup1\n      dup4\n      sub\n      dup2\n      0x00\n      dup8\n      dup1\n      extcodesize\n      iszero\n      dup1\n      iszero\n      tag_375\n      jumpi\n      0x00\n      dup1\n      revert\n    tag_375:\n      pop\n      gas\n      call\n      iszero\n      dup1\n      iszero\n      tag_377\n      jumpi\n      returndatasize\n      0x00\n      dup1\n      returndatacopy\n      revert(0x00, returndatasize)\n    tag_377:\n      pop\n      pop\n      pop\n      sub(shl(0xa0, 0x01), 0x01)\n        /* \"NFT-Contracts/new/final_market_Multi_nft.sol\":18372:18412  indexAuctionSaleNFT[_nftContractAddress] */\n      dup14\n      and\n      0x00\n      swap1\n      dup2\n      mstore\n        /* \"NFT-Contracts/new/final_market_Multi_nft.sol\":18372:18391  indexAuctionSaleNFT */\n      0x05\n        /* \"NFT-Contracts/new/final_market_Multi_nft.sol\":18372:18412  indexAuctionSaleNFT[_nftContractAddress] */\n      0x20\n      swap1\n      dup2\n      mstore\n      0x40\n      dup1\n      dup4\n      keccak256\n        /* \"NFT-Contracts/new/final_market_Multi_nft.sol\":18372:18422  indexAuctionSaleNFT[_nftContractAddress][_tokenId] */\n      dup16\n      dup5\n      mstore\n      swap1\n      swap2\n      mstore\n      swap1\n      keccak256\n      sload\n        /* \"NFT-Contracts/new/final_market_Multi_nft.sol\":18342:18356  auctionSaleNFT */\n      0x07\n        /* \"NFT-Contracts/new/final_market_Multi_nft.sol\":18342:18434  auctionSaleNFT[\r... */\n      dup1\n      sload\n        /* \"NFT-Contracts/new/final_market_Multi_nft.sol\":18342:18356  auctionSaleNFT */\n      swap1\n      swap3\n      pop\n        /* \"NFT-Contracts/new/final_market_Multi_nft.sol\":18342:18434  auctionSaleNFT[\r... */\n      dup2\n      lt\n      tag_379\n      jumpi\n      tag_379\n      tag_276\n      jump\t// in\n    tag_379:\n      0x00\n      swap2\n      dup3\n      mstore\n      0x20\n      dup1\n      dup4\n      keccak256\n      0x02\n      swap3\n      swap1\n      swap3\n      mul\n      swap1\n      swap2\n      add\n        /* \"NFT-Contracts/new/final_market_Multi_nft.sol\":18335:18434  delete auctionSaleNFT[\r... */\n      dup1\n      sload\n      not(sub(shl(0xa0, 0x01), 0x01))\n      and\n      dup2\n      sstore\n      0x01\n      add\n      swap2\n      swap1\n      swap2\n      sstore\n        /* \"NFT-Contracts/new/final_market_Multi_nft.sol\":18452:18515  CancelNftAuctionSale(_nftContractAddress, _tokenId, msg.sender) */\n      0x40\n      dup1\n      mload\n      sub(shl(0xa0, 0x01), 0x01)\n        /* \"#utility.yul\":12322:12337   */\n      dup16\n      and\n        /* \"#utility.yul\":12304:12338   */\n      dup2\n      mstore\n        /* \"#utility.yul\":12354:12372   */\n      swap2\n      dup3\n      add\n        /* \"#utility.yul\":12347:12381   */\n      dup14\n      swap1\n      mstore\n        /* \"NFT-Contracts/new/final_market_Multi_nft.sol\":18504:18514  msg.sender */\n      caller\n        /* \"#utility.yul\":12397:12415   */\n      swap1\n      dup3\n      add\n        /* \"#utility.yul\":12390:12433   */\n      mstore\n        /* \"NFT-Contracts/new/final_market_Multi_nft.sol\":18452:18515  CancelNftAuctionSale(_nftContractAddress, _tokenId, msg.sender) */\n      0xb9d411977d4ee731f87bb8f16eb6f8c1fb579cff684642052bf6084e6e33238d\n      swap1\n        /* \"#utility.yul\":12254:12256   */\n      0x60\n        /* \"#utility.yul\":12239:12257   */\n      add\n        /* \"NFT-Contracts/new/final_market_Multi_nft.sol\":18452:18515  CancelNftAuctionSale(_nftContractAddress, _tokenId, msg.sender) */\n      tag_173\n        /* \"#utility.yul\":12064:12439   */\n      jump\n        /* \"NFT-Contracts/new/final_market_Multi_nft.sol\":20666:20773  function getFixedSaleNFT() external view returns (SaleInfo[] memory) {\r... */\n    tag_127:\n        /* \"NFT-Contracts/new/final_market_Multi_nft.sol\":20716:20733  SaleInfo[] memory */\n      0x60\n        /* \"NFT-Contracts/new/final_market_Multi_nft.sol\":20753:20765  fixedSaleNFT */\n      0x06\n        /* \"NFT-Contracts/new/final_market_Multi_nft.sol\":20746:20765  return fixedSaleNFT */\n      dup1\n      sload\n      dup1\n      0x20\n      mul\n      0x20\n      add\n      mload(0x40)\n      swap1\n      dup2\n      add\n      0x40\n      mstore\n      dup1\n      swap3\n      swap2\n      swap1\n      dup2\n      dup2\n      mstore\n      0x20\n      add\n      0x00\n      swap1\n      dup3\n      dup3\n      lt\n      iszero\n      tag_177\n      jumpi\n      0x00\n      dup5\n      dup2\n      mstore\n      0x20\n      swap1\n      dup2\n      swap1\n      keccak256\n      0x40\n      dup1\n      mload\n      dup1\n      dup3\n      add\n      swap1\n      swap2\n      mstore\n      0x02\n      dup6\n      mul\n      swap1\n      swap2\n      add\n      dup1\n      sload\n      sub(shl(0xa0, 0x01), 0x01)\n      and\n      dup3\n      mstore\n      0x01\n      swap1\n      dup2\n      add\n      sload\n      dup3\n      dup5\n      add\n      mstore\n      swap1\n      dup4\n      mstore\n      swap1\n      swap3\n      add\n      swap2\n      add\n      jump(tag_176)\n        /* \"NFT-Contracts/new/final_market_Multi_nft.sol\":24777:25005  function _bidAmountTransfer(uint256 _buyAmount, address _erc20) internal {\r... */\n    tag_172:\n        /* \"NFT-Contracts/new/final_market_Multi_nft.sol\":24883:24949  IERC20(_erc20).transferFrom(msg.sender, address(this), _buyAmount) */\n      mload(0x40)\n      shl(0xe0, 0x23b872dd)\n      dup2\n      mstore\n      sub(shl(0xa0, 0x01), 0x01)\n        /* \"NFT-Contracts/new/final_market_Multi_nft.sol\":24883:24910  IERC20(_erc20).transferFrom */\n      dup3\n      and\n      swap1\n      0x23b872dd\n      swap1\n        /* \"NFT-Contracts/new/final_market_Multi_nft.sol\":24883:24949  IERC20(_erc20).transferFrom(msg.sender, address(this), _buyAmount) */\n      tag_392\n      swap1\n        /* \"NFT-Contracts/new/final_market_Multi_nft.sol\":24911:24921  msg.sender */\n      caller\n      swap1\n        /* \"NFT-Contracts/new/final_market_Multi_nft.sol\":24931:24935  this */\n      address\n      swap1\n        /* \"NFT-Contracts/new/final_market_Multi_nft.sol\":24938:24948  _buyAmount */\n      dup8\n      swap1\n        /* \"NFT-Contracts/new/final_market_Multi_nft.sol\":24883:24949  IERC20(_erc20).transferFrom(msg.sender, address(this), _buyAmount) */\n      0x04\n      add\n      tag_143\n      jump\t// in\n    tag_392:\n      0x20\n      mload(0x40)\n      dup1\n      dup4\n      sub\n      dup2\n      0x00\n      dup8\n      dup1\n      extcodesize\n      iszero\n      dup1\n      iszero\n      tag_393\n      jumpi\n      0x00\n      dup1\n      revert\n    tag_393:\n      pop\n      gas\n      call\n      iszero\n      dup1\n      iszero\n      tag_395\n      jumpi\n      returndatasize\n      0x00\n      dup1\n      returndatacopy\n      revert(0x00, returndatasize)\n    tag_395:\n      pop\n      pop\n      pop\n      pop\n      mload(0x40)\n      returndatasize\n      not(0x1f)\n      0x1f\n      dup3\n      add\n      and\n      dup3\n      add\n      dup1\n      0x40\n      mstore\n      pop\n      dup2\n      add\n      swap1\n      tag_396\n      swap2\n      swap1\n      tag_148\n      jump\t// in\n    tag_396:\n        /* \"NFT-Contracts/new/final_market_Multi_nft.sol\":24861:24997  require(\r... */\n      tag_397\n      jumpi\n      mload(0x40)\n      shl(0xe5, 0x461bcd)\n      dup2\n      mstore\n        /* \"#utility.yul\":19425:19427   */\n      0x20\n        /* \"NFT-Contracts/new/final_market_Multi_nft.sol\":24861:24997  require(\r... */\n      0x04\n      dup3\n      add\n        /* \"#utility.yul\":19407:19428   */\n      mstore\n        /* \"#utility.yul\":19464:19466   */\n      0x14\n        /* \"#utility.yul\":19444:19462   */\n      0x24\n      dup3\n      add\n        /* \"#utility.yul\":19437:19467   */\n      mstore\n      shl(0x63, 0x0c2d8d8deeec2dcc6ca40dcdee840cadcdeeaced)\n        /* \"#utility.yul\":19483:19501   */\n      0x44\n      dup3\n      add\n        /* \"#utility.yul\":19476:19526   */\n      mstore\n        /* \"#utility.yul\":19543:19561   */\n      0x64\n      add\n        /* \"NFT-Contracts/new/final_market_Multi_nft.sol\":24861:24997  require(\r... */\n      tag_151\n        /* \"#utility.yul\":19223:19567   */\n      jump\n        /* \"NFT-Contracts/new/final_market_Multi_nft.sol\":24861:24997  require(\r... */\n    tag_397:\n        /* \"NFT-Contracts/new/final_market_Multi_nft.sol\":24777:25005  function _bidAmountTransfer(uint256 _buyAmount, address _erc20) internal {\r... */\n      pop\n      pop\n      jump\t// out\n        /* \"@openzeppelin/contracts/utils/math/SafeMath.sol\":2755:2851  function add(uint256 a, uint256 b) internal pure returns (uint256) {... */\n    tag_197:\n        /* \"@openzeppelin/contracts/utils/math/SafeMath.sol\":2813:2820  uint256 */\n      0x00\n        /* \"@openzeppelin/contracts/utils/math/SafeMath.sol\":2839:2844  a + b */\n      tag_401\n        /* \"@openzeppelin/contracts/utils/math/SafeMath.sol\":2843:2844  b */\n      dup3\n        /* \"@openzeppelin/contracts/utils/math/SafeMath.sol\":2839:2840  a */\n      dup5\n        /* \"@openzeppelin/contracts/utils/math/SafeMath.sol\":2839:2844  a + b */\n      tag_402\n      jump\t// in\n    tag_401:\n        /* \"@openzeppelin/contracts/utils/math/SafeMath.sol\":2832:2844  return a + b */\n      swap4\n        /* \"@openzeppelin/contracts/utils/math/SafeMath.sol\":2755:2851  function add(uint256 a, uint256 b) internal pure returns (uint256) {... */\n      swap3\n      pop\n      pop\n      pop\n      jump\t// out\n        /* \"NFT-Contracts/new/final_market_Multi_nft.sol\":25017:25246  function _ownerOf(address _nftContractAddress, uint256 tokenId)\r... */\n    tag_209:\n        /* \"NFT-Contracts/new/final_market_Multi_nft.sol\":25173:25233  IERC1155(_nftContractAddress).balanceOf(msg.sender, tokenId) */\n      mload(0x40)\n      shl(0xe1, 0x7eeac7)\n      dup2\n      mstore\n        /* \"NFT-Contracts/new/final_market_Multi_nft.sol\":25213:25223  msg.sender */\n      caller\n        /* \"NFT-Contracts/new/final_market_Multi_nft.sol\":25173:25233  IERC1155(_nftContractAddress).balanceOf(msg.sender, tokenId) */\n      0x04\n      dup3\n      add\n        /* \"#utility.yul\":11959:12010   */\n      mstore\n        /* \"#utility.yul\":12026:12044   */\n      0x24\n      dup2\n      add\n        /* \"#utility.yul\":12019:12053   */\n      dup3\n      swap1\n      mstore\n        /* \"NFT-Contracts/new/final_market_Multi_nft.sol\":25131:25135  bool */\n      0x00\n      swap1\n      sub(shl(0xa0, 0x01), 0x01)\n        /* \"NFT-Contracts/new/final_market_Multi_nft.sol\":25173:25212  IERC1155(_nftContractAddress).balanceOf */\n      dup5\n      and\n      swap1\n      0xfdd58e\n      swap1\n        /* \"#utility.yul\":11932:11950   */\n      0x44\n      add\n        /* \"NFT-Contracts/new/final_market_Multi_nft.sol\":25173:25233  IERC1155(_nftContractAddress).balanceOf(msg.sender, tokenId) */\n      0x20\n      mload(0x40)\n      dup1\n      dup4\n      sub\n      dup2\n      dup7\n      dup1\n      extcodesize\n      iszero\n      dup1\n      iszero\n      tag_406\n      jumpi\n      0x00\n      dup1\n      revert\n    tag_406:\n      pop\n      gas\n      staticcall\n      iszero\n      dup1\n      iszero\n      tag_408\n      jumpi\n      returndatasize\n      0x00\n      dup1\n      returndatacopy\n      revert(0x00, returndatasize)\n    tag_408:\n      pop\n      pop\n      pop\n      pop\n      mload(0x40)\n      returndatasize\n      not(0x1f)\n      0x1f\n      dup3\n      add\n      and\n      dup3\n      add\n      dup1\n      0x40\n      mstore\n      pop\n      dup2\n      add\n      swap1\n      tag_409\n      swap2\n      swap1\n      tag_410\n      jump\t// in\n    tag_409:\n        /* \"NFT-Contracts/new/final_market_Multi_nft.sol\":25173:25238  IERC1155(_nftContractAddress).balanceOf(msg.sender, tokenId) != 0 */\n      iszero\n      iszero\n      swap4\n        /* \"NFT-Contracts/new/final_market_Multi_nft.sol\":25017:25246  function _ownerOf(address _nftContractAddress, uint256 tokenId)\r... */\n      swap3\n      pop\n      pop\n      pop\n      jump\t// out\n        /* \"NFT-Contracts/new/final_market_Multi_nft.sol\":23938:24769  function _storedNftAuctionDetails(\r... */\n    tag_235:\n        /* \"NFT-Contracts/new/final_market_Multi_nft.sol\":24293:24509  Auction(\r... */\n      mload(0x40)\n      dup1\n      0x0100\n      add\n      0x40\n      mstore\n      dup1\n        /* \"NFT-Contracts/new/final_market_Multi_nft.sol\":24315:24328  _auctionStart */\n      dup7\n        /* \"NFT-Contracts/new/final_market_Multi_nft.sol\":24293:24509  Auction(\r... */\n      dup2\n      mstore\n      0x20\n      add\n        /* \"NFT-Contracts/new/final_market_Multi_nft.sol\":24343:24354  _auctionEnd */\n      dup6\n        /* \"NFT-Contracts/new/final_market_Multi_nft.sol\":24293:24509  Auction(\r... */\n      dup2\n      mstore\n      0x20\n      add\n        /* \"NFT-Contracts/new/final_market_Multi_nft.sol\":24369:24378  _minPrice */\n      dup5\n        /* \"NFT-Contracts/new/final_market_Multi_nft.sol\":24293:24509  Auction(\r... */\n      dup2\n      mstore\n      0x20\n      add\n        /* \"NFT-Contracts/new/final_market_Multi_nft.sol\":24393:24402  _minPrice */\n      dup5\n        /* \"NFT-Contracts/new/final_market_Multi_nft.sol\":24293:24509  Auction(\r... */\n      dup2\n      mstore\n      0x20\n      add\n        /* \"NFT-Contracts/new/final_market_Multi_nft.sol\":24417:24427  _nftAmount */\n      dup4\n        /* \"NFT-Contracts/new/final_market_Multi_nft.sol\":24293:24509  Auction(\r... */\n      dup2\n      mstore\n      0x20\n      add\n        /* \"NFT-Contracts/new/final_market_Multi_nft.sol\":24450:24451  0 */\n      0x00\n      sub(shl(0xa0, 0x01), 0x01)\n        /* \"NFT-Contracts/new/final_market_Multi_nft.sol\":24293:24509  Auction(\r... */\n      and\n      dup2\n      mstore\n      0x20\n      add\n        /* \"NFT-Contracts/new/final_market_Multi_nft.sol\":24467:24477  msg.sender */\n      caller\n      sub(shl(0xa0, 0x01), 0x01)\n        /* \"NFT-Contracts/new/final_market_Multi_nft.sol\":24293:24509  Auction(\r... */\n      and\n      dup2\n      mstore\n      0x20\n      add\n        /* \"NFT-Contracts/new/final_market_Multi_nft.sol\":24492:24498  _erc20 */\n      dup9\n      sub(shl(0xa0, 0x01), 0x01)\n        /* \"NFT-Contracts/new/final_market_Multi_nft.sol\":24293:24509  Auction(\r... */\n      and\n      dup2\n      mstore\n      pop\n        /* \"NFT-Contracts/new/final_market_Multi_nft.sol\":24237:24259  nftContractAuctionSale */\n      0x03\n        /* \"NFT-Contracts/new/final_market_Multi_nft.sol\":24237:24280  nftContractAuctionSale[_nftContractAddress] */\n      0x00\n        /* \"NFT-Contracts/new/final_market_Multi_nft.sol\":24260:24279  _nftContractAddress */\n      dup11\n      sub(shl(0xa0, 0x01), 0x01)\n        /* \"NFT-Contracts/new/final_market_Multi_nft.sol\":24237:24280  nftContractAuctionSale[_nftContractAddress] */\n      and\n      sub(shl(0xa0, 0x01), 0x01)\n      and\n      dup2\n      mstore\n      0x20\n      add\n      swap1\n      dup2\n      mstore\n      0x20\n      add\n      0x00\n      keccak256\n        /* \"NFT-Contracts/new/final_market_Multi_nft.sol\":24237:24290  nftContractAuctionSale[_nftContractAddress][_tokenId] */\n      0x00\n        /* \"NFT-Contracts/new/final_market_Multi_nft.sol\":24281:24289  _tokenId */\n      dup9\n        /* \"NFT-Contracts/new/final_market_Multi_nft.sol\":24237:24290  nftContractAuctionSale[_nftContractAddress][_tokenId] */\n      dup2\n      mstore\n      0x20\n      add\n      swap1\n      dup2\n      mstore\n      0x20\n      add\n      0x00\n      keccak256\n        /* \"NFT-Contracts/new/final_market_Multi_nft.sol\":24237:24509  nftContractAuctionSale[_nftContractAddress][_tokenId] = Auction(\r... */\n      0x00\n      dup3\n      add\n      mload\n      dup2\n      0x00\n      add\n      sstore\n      0x20\n      dup3\n      add\n      mload\n      dup2\n      0x01\n      add\n      sstore\n      0x40\n      dup3\n      add\n      mload\n      dup2\n      0x02\n      add\n      sstore\n      0x60\n      dup3\n      add\n      mload\n      dup2\n      0x03\n      add\n      sstore\n      0x80\n      dup3\n      add\n      mload\n      dup2\n      0x04\n      add\n      sstore\n      0xa0\n      dup3\n      add\n      mload\n      dup2\n      0x05\n      add\n      exp(0x0100, 0x00)\n      dup2\n      sload\n      dup2\n      sub(shl(0xa0, 0x01), 0x01)\n      mul\n      not\n      and\n      swap1\n      dup4\n      sub(shl(0xa0, 0x01), 0x01)\n      and\n      mul\n      or\n      swap1\n      sstore\n      pop\n      0xc0\n      dup3\n      add\n      mload\n      dup2\n      0x06\n      add\n      exp(0x0100, 0x00)\n      dup2\n      sload\n      dup2\n      sub(shl(0xa0, 0x01), 0x01)\n      mul\n      not\n      and\n      swap1\n      dup4\n      sub(shl(0xa0, 0x01), 0x01)\n      and\n      mul\n      or\n      swap1\n      sstore\n      pop\n      0xe0\n      dup3\n      add\n      mload\n      dup2\n      0x07\n      add\n      exp(0x0100, 0x00)\n      dup2\n      sload\n      dup2\n      sub(shl(0xa0, 0x01), 0x01)\n      mul\n      not\n      and\n      swap1\n      dup4\n      sub(shl(0xa0, 0x01), 0x01)\n      and\n      mul\n      or\n      swap1\n      sstore\n      pop\n      swap1\n      pop\n      pop\n        /* \"NFT-Contracts/new/final_market_Multi_nft.sol\":24569:24570  2 */\n      0x02\n        /* \"NFT-Contracts/new/final_market_Multi_nft.sol\":24522:24535  nftSaleStatus */\n      0x01\n        /* \"NFT-Contracts/new/final_market_Multi_nft.sol\":24522:24556  nftSaleStatus[_nftContractAddress] */\n      0x00\n        /* \"NFT-Contracts/new/final_market_Multi_nft.sol\":24536:24555  _nftContractAddress */\n      dup11\n      sub(shl(0xa0, 0x01), 0x01)\n        /* \"NFT-Contracts/new/final_market_Multi_nft.sol\":24522:24556  nftSaleStatus[_nftContractAddress] */\n      and\n      sub(shl(0xa0, 0x01), 0x01)\n      and\n      dup2\n      mstore\n      0x20\n      add\n      swap1\n      dup2\n      mstore\n      0x20\n      add\n      0x00\n      keccak256\n        /* \"NFT-Contracts/new/final_market_Multi_nft.sol\":24522:24566  nftSaleStatus[_nftContractAddress][_tokenId] */\n      0x00\n        /* \"NFT-Contracts/new/final_market_Multi_nft.sol\":24557:24565  _tokenId */\n      dup9\n        /* \"NFT-Contracts/new/final_market_Multi_nft.sol\":24522:24566  nftSaleStatus[_nftContractAddress][_tokenId] */\n      dup2\n      mstore\n      0x20\n      add\n      swap1\n      dup2\n      mstore\n      0x20\n      add\n      0x00\n      keccak256\n        /* \"NFT-Contracts/new/final_market_Multi_nft.sol\":24522:24570  nftSaleStatus[_nftContractAddress][_tokenId] = 2 */\n      dup2\n      swap1\n      sstore\n      pop\n        /* \"NFT-Contracts/new/final_market_Multi_nft.sol\":24592:24611  _nftContractAddress */\n      dup8\n      sub(shl(0xa0, 0x01), 0x01)\n        /* \"NFT-Contracts/new/final_market_Multi_nft.sol\":24583:24629  IERC1155(_nftContractAddress).safeTransferFrom */\n      and\n      0xf242432a\n        /* \"NFT-Contracts/new/final_market_Multi_nft.sol\":24644:24654  msg.sender */\n      caller\n        /* \"NFT-Contracts/new/final_market_Multi_nft.sol\":24677:24681  this */\n      address\n        /* \"NFT-Contracts/new/final_market_Multi_nft.sol\":24697:24705  _tokenId */\n      dup10\n        /* \"NFT-Contracts/new/final_market_Multi_nft.sol\":24720:24730  _nftAmount */\n      dup7\n        /* \"NFT-Contracts/new/final_market_Multi_nft.sol\":24745:24750  _data */\n      dup7\n        /* \"NFT-Contracts/new/final_market_Multi_nft.sol\":24583:24761  IERC1155(_nftContractAddress).safeTransferFrom(\r... */\n      mload(0x40)\n      dup7\n      0xffffffff\n      and\n      0xe0\n      shl\n      dup2\n      mstore\n      0x04\n      add\n      tag_412\n      swap6\n      swap5\n      swap4\n      swap3\n      swap2\n      swap1\n      tag_298\n      jump\t// in\n    tag_412:\n      0x00\n      mload(0x40)\n      dup1\n      dup4\n      sub\n      dup2\n      0x00\n      dup8\n      dup1\n      extcodesize\n      iszero\n      dup1\n      iszero\n      tag_413\n      jumpi\n      0x00\n      dup1\n      revert\n    tag_413:\n      pop\n      gas\n      call\n      iszero\n      dup1\n      iszero\n      tag_415\n      jumpi\n      returndatasize\n      0x00\n      dup1\n      returndatacopy\n      revert(0x00, returndatasize)\n    tag_415:\n      pop\n      pop\n      pop\n      pop\n        /* \"NFT-Contracts/new/final_market_Multi_nft.sol\":23938:24769  function _storedNftAuctionDetails(\r... */\n      pop\n      pop\n      pop\n      pop\n      pop\n      pop\n      pop\n      pop\n      jump\t// out\n        /* \"NFT-Contracts/new/final_market_Multi_nft.sol\":23240:23930  function _transferNftAndPaySeller(\r... */\n    tag_273:\n      sub(shl(0xa0, 0x01), 0x01)\n        /* \"NFT-Contracts/new/final_market_Multi_nft.sol\":23424:23470  IERC1155(_nftContractAddress).safeTransferFrom */\n      dup5\n      and\n        /* \"NFT-Contracts/new/final_market_Multi_nft.sol\":23556:23599  nftContractAuctionSale[_nftContractAddress] */\n      0x00\n      dup2\n      dup2\n      mstore\n        /* \"NFT-Contracts/new/final_market_Multi_nft.sol\":23556:23578  nftContractAuctionSale */\n      0x03\n        /* \"NFT-Contracts/new/final_market_Multi_nft.sol\":23556:23599  nftContractAuctionSale[_nftContractAddress] */\n      0x20\n      swap1\n      dup2\n      mstore\n      0x40\n      dup1\n      dup4\n      keccak256\n        /* \"NFT-Contracts/new/final_market_Multi_nft.sol\":23556:23609  nftContractAuctionSale[_nftContractAddress][_tokenId] */\n      dup8\n      dup5\n      mstore\n      swap1\n      swap2\n      mstore\n      swap1\n      dup2\n      swap1\n      keccak256\n        /* \"NFT-Contracts/new/final_market_Multi_nft.sol\":23556:23619  nftContractAuctionSale[_nftContractAddress][_tokenId].nftAmount */\n      0x04\n      swap1\n      dup2\n      add\n      sload\n        /* \"NFT-Contracts/new/final_market_Multi_nft.sol\":23424:23647  IERC1155(_nftContractAddress).safeTransferFrom(\r... */\n      swap2\n      mload\n      shl(0xe1, 0x79212195)\n      dup2\n      mstore\n        /* \"NFT-Contracts/new/final_market_Multi_nft.sol\":23424:23470  IERC1155(_nftContractAddress).safeTransferFrom */\n      0xf242432a\n      swap3\n        /* \"NFT-Contracts/new/final_market_Multi_nft.sol\":23424:23647  IERC1155(_nftContractAddress).safeTransferFrom(\r... */\n      tag_417\n      swap3\n        /* \"NFT-Contracts/new/final_market_Multi_nft.sol\":23493:23497  this */\n      address\n      swap3\n        /* \"NFT-Contracts/new/final_market_Multi_nft.sol\":23513:23522  _nftBuyer */\n      dup8\n      swap3\n        /* \"NFT-Contracts/new/final_market_Multi_nft.sol\":23537:23545  _tokenId */\n      dup11\n      swap3\n        /* \"NFT-Contracts/new/final_market_Multi_nft.sol\":23556:23619  nftContractAuctionSale[_nftContractAddress][_tokenId].nftAmount */\n      swap1\n      swap2\n        /* \"NFT-Contracts/new/final_market_Multi_nft.sol\":23424:23647  IERC1155(_nftContractAddress).safeTransferFrom(\r... */\n      add\n      tag_374\n      jump\t// in\n    tag_417:\n      0x00\n      mload(0x40)\n      dup1\n      dup4\n      sub\n      dup2\n      0x00\n      dup8\n      dup1\n      extcodesize\n      iszero\n      dup1\n      iszero\n      tag_418\n      jumpi\n      0x00\n      dup1\n      revert\n    tag_418:\n      pop\n      gas\n      call\n      iszero\n      dup1\n      iszero\n      tag_420\n      jumpi\n      returndatasize\n      0x00\n      dup1\n      returndatacopy\n      revert(0x00, returndatasize)\n    tag_420:\n      pop\n      pop\n      pop\n      pop\n      sub(shl(0xa0, 0x01), 0x01)\n        /* \"NFT-Contracts/new/final_market_Multi_nft.sol\":23660:23694  nftSaleStatus[_nftContractAddress] */\n      dup5\n      dup2\n      and\n        /* \"NFT-Contracts/new/final_market_Multi_nft.sol\":23707:23708  0 */\n      0x00\n        /* \"NFT-Contracts/new/final_market_Multi_nft.sol\":23660:23694  nftSaleStatus[_nftContractAddress] */\n      dup2\n      dup2\n      mstore\n        /* \"NFT-Contracts/new/final_market_Multi_nft.sol\":23660:23673  nftSaleStatus */\n      0x01\n        /* \"NFT-Contracts/new/final_market_Multi_nft.sol\":23660:23694  nftSaleStatus[_nftContractAddress] */\n      0x20\n      swap1\n      dup2\n      mstore\n      0x40\n      dup1\n      dup4\n      keccak256\n        /* \"NFT-Contracts/new/final_market_Multi_nft.sol\":23660:23704  nftSaleStatus[_nftContractAddress][_tokenId] */\n      dup9\n      dup5\n      mstore\n      dup3\n      mstore\n      dup1\n      dup4\n      keccak256\n        /* \"NFT-Contracts/new/final_market_Multi_nft.sol\":23660:23708  nftSaleStatus[_nftContractAddress][_tokenId] = 0 */\n      dup4\n      swap1\n      sstore\n        /* \"NFT-Contracts/new/final_market_Multi_nft.sol\":23750:23793  nftContractAuctionSale[_nftContractAddress] */\n      swap3\n      dup3\n      mstore\n        /* \"NFT-Contracts/new/final_market_Multi_nft.sol\":23750:23772  nftContractAuctionSale */\n      0x03\n        /* \"NFT-Contracts/new/final_market_Multi_nft.sol\":23750:23793  nftContractAuctionSale[_nftContractAddress] */\n      dup2\n      mstore\n      dup3\n      dup3\n      keccak256\n        /* \"NFT-Contracts/new/final_market_Multi_nft.sol\":23750:23803  nftContractAuctionSale[_nftContractAddress][_tokenId] */\n      dup8\n      dup4\n      mstore\n      swap1\n      mstore\n      keccak256\n        /* \"NFT-Contracts/new/final_market_Multi_nft.sol\":23750:23813  nftContractAuctionSale[_nftContractAddress][_tokenId].nftSeller */\n      0x06\n      dup2\n      add\n      sload\n        /* \"NFT-Contracts/new/final_market_Multi_nft.sol\":23828:23887  nftContractAuctionSale[_nftContractAddress][_tokenId].erc20 */\n      0x07\n      swap1\n      swap2\n      add\n      sload\n        /* \"NFT-Contracts/new/final_market_Multi_nft.sol\":23721:23922  _isTokenOrCoin(\r... */\n      tag_421\n      swap3\n        /* \"NFT-Contracts/new/final_market_Multi_nft.sol\":23750:23813  nftContractAuctionSale[_nftContractAddress][_tokenId].nftSeller */\n      swap2\n      dup3\n      and\n      swap2\n        /* \"NFT-Contracts/new/final_market_Multi_nft.sol\":23828:23887  nftContractAuctionSale[_nftContractAddress][_tokenId].erc20 */\n      and\n        /* \"NFT-Contracts/new/final_market_Multi_nft.sol\":23902:23911  _bidPrice */\n      dup5\n        /* \"NFT-Contracts/new/final_market_Multi_nft.sol\":23721:23735  _isTokenOrCoin */\n      tag_306\n        /* \"NFT-Contracts/new/final_market_Multi_nft.sol\":23721:23922  _isTokenOrCoin(\r... */\n      jump\t// in\n    tag_421:\n        /* \"NFT-Contracts/new/final_market_Multi_nft.sol\":23240:23930  function _transferNftAndPaySeller(\r... */\n      pop\n      pop\n      pop\n      pop\n      jump\t// out\n        /* \"NFT-Contracts/new/final_market_Multi_nft.sol\":22358:23232  function _checkFixedSale(\r... */\n    tag_303:\n      sub(shl(0xa0, 0x01), 0x01)\n        /* \"NFT-Contracts/new/final_market_Multi_nft.sol\":22522:22563  nftContractFixedSale[_nftContractAddress] */\n      dup4\n      and\n        /* \"NFT-Contracts/new/final_market_Multi_nft.sol\":22522:22542  nftContractFixedSale */\n      0x00\n        /* \"NFT-Contracts/new/final_market_Multi_nft.sol\":22522:22563  nftContractFixedSale[_nftContractAddress] */\n      swap1\n      dup2\n      mstore\n      0x20\n      dup2\n      dup2\n      mstore\n      0x40\n      dup1\n      dup4\n      keccak256\n        /* \"NFT-Contracts/new/final_market_Multi_nft.sol\":22522:22573  nftContractFixedSale[_nftContractAddress][_tokenId] */\n      dup6\n      dup5\n      mstore\n      swap1\n      swap2\n      mstore\n      swap1\n      keccak256\n        /* \"NFT-Contracts/new/final_market_Multi_nft.sol\":22522:22580  nftContractFixedSale[_nftContractAddress][_tokenId].amount */\n      0x03\n      add\n      sload\n        /* \"NFT-Contracts/new/final_market_Multi_nft.sol\":22522:22607  nftContractFixedSale[_nftContractAddress][_tokenId].amount ==\r... */\n      dup2\n      eq\n        /* \"NFT-Contracts/new/final_market_Multi_nft.sol\":22504:23225  if (\r... */\n      iszero\n      tag_423\n      jumpi\n      sub(shl(0xa0, 0x01), 0x01)\n        /* \"NFT-Contracts/new/final_market_Multi_nft.sol\":22634:22668  nftSaleStatus[_nftContractAddress] */\n      dup4\n      and\n        /* \"NFT-Contracts/new/final_market_Multi_nft.sol\":22681:22682  0 */\n      0x00\n        /* \"NFT-Contracts/new/final_market_Multi_nft.sol\":22634:22668  nftSaleStatus[_nftContractAddress] */\n      dup2\n      dup2\n      mstore\n        /* \"NFT-Contracts/new/final_market_Multi_nft.sol\":22634:22647  nftSaleStatus */\n      0x01\n        /* \"NFT-Contracts/new/final_market_Multi_nft.sol\":22634:22668  nftSaleStatus[_nftContractAddress] */\n      0x20\n      swap1\n      dup2\n      mstore\n      0x40\n      dup1\n      dup4\n      keccak256\n        /* \"NFT-Contracts/new/final_market_Multi_nft.sol\":22634:22678  nftSaleStatus[_nftContractAddress][_tokenId] */\n      dup7\n      dup5\n      mstore\n      dup3\n      mstore\n      dup1\n      dup4\n      keccak256\n        /* \"NFT-Contracts/new/final_market_Multi_nft.sol\":22634:22682  nftSaleStatus[_nftContractAddress][_tokenId] = 0 */\n      dup4\n      swap1\n      sstore\n        /* \"NFT-Contracts/new/final_market_Multi_nft.sol\":22736:22774  indexFixedSaleNFT[_nftContractAddress] */\n      swap3\n      dup3\n      mstore\n        /* \"NFT-Contracts/new/final_market_Multi_nft.sol\":22736:22753  indexFixedSaleNFT */\n      0x02\n        /* \"NFT-Contracts/new/final_market_Multi_nft.sol\":22736:22774  indexFixedSaleNFT[_nftContractAddress] */\n      dup2\n      mstore\n      dup3\n      dup3\n      keccak256\n        /* \"NFT-Contracts/new/final_market_Multi_nft.sol\":22736:22784  indexFixedSaleNFT[_nftContractAddress][_tokenId] */\n      dup6\n      dup4\n      mstore\n      swap1\n      mstore\n      keccak256\n      sload\n        /* \"NFT-Contracts/new/final_market_Multi_nft.sol\":22704:22716  fixedSaleNFT */\n      0x06\n        /* \"NFT-Contracts/new/final_market_Multi_nft.sol\":22704:22800  fixedSaleNFT[\r... */\n      dup1\n      sload\n        /* \"NFT-Contracts/new/final_market_Multi_nft.sol\":22704:22716  fixedSaleNFT */\n      swap1\n      swap2\n        /* \"NFT-Contracts/new/final_market_Multi_nft.sol\":22736:22784  indexFixedSaleNFT[_nftContractAddress][_tokenId] */\n      swap1\n        /* \"NFT-Contracts/new/final_market_Multi_nft.sol\":22704:22800  fixedSaleNFT[\r... */\n      dup2\n      lt\n      tag_425\n      jumpi\n      tag_425\n      tag_276\n      jump\t// in\n    tag_425:\n      0x00\n      swap2\n      dup3\n      mstore\n      0x20\n      dup1\n      dup4\n      keccak256\n      0x02\n      swap1\n      swap3\n      mul\n      swap1\n      swap2\n      add\n        /* \"NFT-Contracts/new/final_market_Multi_nft.sol\":22697:22800  delete fixedSaleNFT[\r... */\n      dup1\n      sload\n      not(sub(shl(0xa0, 0x01), 0x01))\n      swap1\n      dup2\n      and\n      dup3\n      sstore\n      0x01\n      swap2\n      dup3\n      add\n      dup5\n      swap1\n      sstore\n      sub(shl(0xa0, 0x01), 0x01)\n        /* \"NFT-Contracts/new/final_market_Multi_nft.sol\":22817:22858  nftContractFixedSale[_nftContractAddress] */\n      dup8\n      and\n      dup5\n      mstore\n      dup4\n      dup4\n      mstore\n      0x40\n      dup1\n      dup6\n      keccak256\n        /* \"NFT-Contracts/new/final_market_Multi_nft.sol\":22817:22868  nftContractFixedSale[_nftContractAddress][_tokenId] */\n      dup8\n      dup7\n      mstore\n      swap1\n      swap4\n      mstore\n      swap2\n      swap1\n      swap3\n      keccak256\n        /* \"NFT-Contracts/new/final_market_Multi_nft.sol\":22817:22877  nftContractFixedSale[_nftContractAddress][_tokenId].nftBuyer */\n      swap1\n      swap2\n      add\n        /* \"NFT-Contracts/new/final_market_Multi_nft.sol\":22817:22908  nftContractFixedSale[_nftContractAddress][_tokenId].nftBuyer = msg\r... */\n      dup1\n      sload\n      swap1\n      swap2\n      and\n        /* \"NFT-Contracts/new/final_market_Multi_nft.sol\":22880:22908  msg\r... */\n      caller\n        /* \"NFT-Contracts/new/final_market_Multi_nft.sol\":22817:22908  nftContractFixedSale[_nftContractAddress][_tokenId].nftBuyer = msg\r... */\n      or\n      swap1\n      sstore\n        /* \"NFT-Contracts/new/final_market_Multi_nft.sol\":22358:23232  function _checkFixedSale(\r... */\n      pop\n      pop\n      pop\n      jump\t// out\n        /* \"NFT-Contracts/new/final_market_Multi_nft.sol\":22504:23225  if (\r... */\n    tag_423:\n      sub(shl(0xa0, 0x01), 0x01)\n        /* \"NFT-Contracts/new/final_market_Multi_nft.sol\":23019:23060  nftContractFixedSale[_nftContractAddress] */\n      dup4\n      and\n        /* \"NFT-Contracts/new/final_market_Multi_nft.sol\":23019:23039  nftContractFixedSale */\n      0x00\n        /* \"NFT-Contracts/new/final_market_Multi_nft.sol\":23019:23060  nftContractFixedSale[_nftContractAddress] */\n      swap1\n      dup2\n      mstore\n      0x20\n      dup2\n      dup2\n      mstore\n      0x40\n      dup1\n      dup4\n      keccak256\n        /* \"NFT-Contracts/new/final_market_Multi_nft.sol\":23019:23070  nftContractFixedSale[_nftContractAddress][_tokenId] */\n      dup6\n      dup5\n      mstore\n      swap1\n      swap2\n      mstore\n      swap1\n      keccak256\n        /* \"NFT-Contracts/new/final_market_Multi_nft.sol\":23019:23077  nftContractFixedSale[_nftContractAddress][_tokenId].amount */\n      0x03\n      add\n      sload\n        /* \"NFT-Contracts/new/final_market_Multi_nft.sol\":23019:23107  nftContractFixedSale[_nftContractAddress][_tokenId].amount -\r... */\n      tag_428\n      swap1\n        /* \"NFT-Contracts/new/final_market_Multi_nft.sol\":23097:23107  _nftAmount */\n      dup3\n      swap1\n        /* \"NFT-Contracts/new/final_market_Multi_nft.sol\":23019:23107  nftContractFixedSale[_nftContractAddress][_tokenId].amount -\r... */\n      tag_429\n      jump\t// in\n    tag_428:\n      sub(shl(0xa0, 0x01), 0x01)\n        /* \"NFT-Contracts/new/final_market_Multi_nft.sol\":22941:22982  nftContractFixedSale[_nftContractAddress] */\n      dup5\n      and\n        /* \"NFT-Contracts/new/final_market_Multi_nft.sol\":22941:22961  nftContractFixedSale */\n      0x00\n        /* \"NFT-Contracts/new/final_market_Multi_nft.sol\":22941:22982  nftContractFixedSale[_nftContractAddress] */\n      swap1\n      dup2\n      mstore\n      0x20\n      dup2\n      dup2\n      mstore\n      0x40\n      dup1\n      dup4\n      keccak256\n        /* \"NFT-Contracts/new/final_market_Multi_nft.sol\":22941:22992  nftContractFixedSale[_nftContractAddress][_tokenId] */\n      dup7\n      dup5\n      mstore\n      swap1\n      swap2\n      mstore\n      swap1\n      keccak256\n        /* \"NFT-Contracts/new/final_market_Multi_nft.sol\":22941:22999  nftContractFixedSale[_nftContractAddress][_tokenId].amount */\n      0x03\n      dup2\n      add\n        /* \"NFT-Contracts/new/final_market_Multi_nft.sol\":22941:23107  nftContractFixedSale[_nftContractAddress][_tokenId].amount =\r... */\n      swap2\n      swap1\n      swap2\n      sstore\n        /* \"NFT-Contracts/new/final_market_Multi_nft.sol\":23122:23182  nftContractFixedSale[_nftContractAddress][_tokenId].nftBuyer */\n      0x01\n      add\n        /* \"NFT-Contracts/new/final_market_Multi_nft.sol\":23122:23213  nftContractFixedSale[_nftContractAddress][_tokenId].nftBuyer = msg\r... */\n      dup1\n      sload\n      not(sub(shl(0xa0, 0x01), 0x01))\n      and\n        /* \"NFT-Contracts/new/final_market_Multi_nft.sol\":23185:23213  msg\r... */\n      caller\n        /* \"NFT-Contracts/new/final_market_Multi_nft.sol\":23122:23213  nftContractFixedSale[_nftContractAddress][_tokenId].nftBuyer = msg\r... */\n      or\n      swap1\n      sstore\n        /* \"NFT-Contracts/new/final_market_Multi_nft.sol\":22504:23225  if (\r... */\n    tag_427:\n        /* \"NFT-Contracts/new/final_market_Multi_nft.sol\":22358:23232  function _checkFixedSale(\r... */\n      pop\n      pop\n      pop\n      jump\t// out\n        /* \"NFT-Contracts/new/final_market_Multi_nft.sol\":21515:21839  function _isTokenOrCoin(\r... */\n    tag_306:\n      sub(shl(0xa0, 0x01), 0x01)\n        /* \"NFT-Contracts/new/final_market_Multi_nft.sol\":21653:21673  _erc20 != address(0) */\n      dup3\n      and\n      iszero\n        /* \"NFT-Contracts/new/final_market_Multi_nft.sol\":21649:21832  if (_erc20 != address(0)) {\r... */\n      tag_431\n      jumpi\n        /* \"NFT-Contracts/new/final_market_Multi_nft.sol\":21690:21742  _tokenAmountTransfer(_nftSeller, _erc20, _buyAmount) */\n      tag_427\n        /* \"NFT-Contracts/new/final_market_Multi_nft.sol\":21711:21721  _nftSeller */\n      dup4\n        /* \"NFT-Contracts/new/final_market_Multi_nft.sol\":21723:21729  _erc20 */\n      dup4\n        /* \"NFT-Contracts/new/final_market_Multi_nft.sol\":21731:21741  _buyAmount */\n      dup4\n        /* \"NFT-Contracts/new/final_market_Multi_nft.sol\":21690:21710  _tokenAmountTransfer */\n      tag_433\n        /* \"NFT-Contracts/new/final_market_Multi_nft.sol\":21690:21742  _tokenAmountTransfer(_nftSeller, _erc20, _buyAmount) */\n      jump\t// in\n        /* \"NFT-Contracts/new/final_market_Multi_nft.sol\":21649:21832  if (_erc20 != address(0)) {\r... */\n    tag_431:\n        /* \"NFT-Contracts/new/final_market_Multi_nft.sol\":21775:21820  _nativeAmountTransfer(_nftSeller, _buyAmount) */\n      tag_427\n        /* \"NFT-Contracts/new/final_market_Multi_nft.sol\":21797:21807  _nftSeller */\n      dup4\n        /* \"NFT-Contracts/new/final_market_Multi_nft.sol\":21809:21819  _buyAmount */\n      dup3\n        /* \"NFT-Contracts/new/final_market_Multi_nft.sol\":21775:21796  _nativeAmountTransfer */\n      tag_436\n        /* \"NFT-Contracts/new/final_market_Multi_nft.sol\":21775:21820  _nativeAmountTransfer(_nftSeller, _buyAmount) */\n      jump\t// in\n        /* \"NFT-Contracts/new/final_market_Multi_nft.sol\":21847:22128  function _tokenAmountTransfer(\r... */\n    tag_433:\n        /* \"NFT-Contracts/new/final_market_Multi_nft.sol\":22009:22072  IERC20(_erc20).transferFrom(msg.sender, _nftSeller, _buyAmount) */\n      mload(0x40)\n      shl(0xe0, 0x23b872dd)\n      dup2\n      mstore\n      sub(shl(0xa0, 0x01), 0x01)\n        /* \"NFT-Contracts/new/final_market_Multi_nft.sol\":22009:22036  IERC20(_erc20).transferFrom */\n      dup4\n      and\n      swap1\n      0x23b872dd\n      swap1\n        /* \"NFT-Contracts/new/final_market_Multi_nft.sol\":22009:22072  IERC20(_erc20).transferFrom(msg.sender, _nftSeller, _buyAmount) */\n      tag_438\n      swap1\n        /* \"NFT-Contracts/new/final_market_Multi_nft.sol\":22037:22047  msg.sender */\n      caller\n      swap1\n        /* \"NFT-Contracts/new/final_market_Multi_nft.sol\":22049:22059  _nftSeller */\n      dup8\n      swap1\n        /* \"NFT-Contracts/new/final_market_Multi_nft.sol\":22061:22071  _buyAmount */\n      dup7\n      swap1\n        /* \"NFT-Contracts/new/final_market_Multi_nft.sol\":22009:22072  IERC20(_erc20).transferFrom(msg.sender, _nftSeller, _buyAmount) */\n      0x04\n      add\n      tag_143\n      jump\t// in\n    tag_438:\n      0x20\n      mload(0x40)\n      dup1\n      dup4\n      sub\n      dup2\n      0x00\n      dup8\n      dup1\n      extcodesize\n      iszero\n      dup1\n      iszero\n      tag_439\n      jumpi\n      0x00\n      dup1\n      revert\n    tag_439:\n      pop\n      gas\n      call\n      iszero\n      dup1\n      iszero\n      tag_441\n      jumpi\n      returndatasize\n      0x00\n      dup1\n      returndatacopy\n      revert(0x00, returndatasize)\n    tag_441:\n      pop\n      pop\n      pop\n      pop\n      mload(0x40)\n      returndatasize\n      not(0x1f)\n      0x1f\n      dup3\n      add\n      and\n      dup3\n      add\n      dup1\n      0x40\n      mstore\n      pop\n      dup2\n      add\n      swap1\n      tag_442\n      swap2\n      swap1\n      tag_148\n      jump\t// in\n    tag_442:\n        /* \"NFT-Contracts/new/final_market_Multi_nft.sol\":21987:22120  require(\r... */\n      tag_427\n      jumpi\n      mload(0x40)\n      shl(0xe5, 0x461bcd)\n      dup2\n      mstore\n        /* \"#utility.yul\":19425:19427   */\n      0x20\n        /* \"NFT-Contracts/new/final_market_Multi_nft.sol\":21987:22120  require(\r... */\n      0x04\n      dup3\n      add\n        /* \"#utility.yul\":19407:19428   */\n      mstore\n        /* \"#utility.yul\":19464:19466   */\n      0x14\n        /* \"#utility.yul\":19444:19462   */\n      0x24\n      dup3\n      add\n        /* \"#utility.yul\":19437:19467   */\n      mstore\n      shl(0x63, 0x0c2d8d8deeec2dcc6ca40dcdee840cadcdeeaced)\n        /* \"#utility.yul\":19483:19501   */\n      0x44\n      dup3\n      add\n        /* \"#utility.yul\":19476:19526   */\n      mstore\n        /* \"#utility.yul\":19543:19561   */\n      0x64\n      add\n        /* \"NFT-Contracts/new/final_market_Multi_nft.sol\":21987:22120  require(\r... */\n      tag_151\n        /* \"#utility.yul\":19223:19567   */\n      jump\n        /* \"NFT-Contracts/new/final_market_Multi_nft.sol\":22136:22350  function _nativeAmountTransfer(address _nftSeller, uint256 _buyAmount)\r... */\n    tag_436:\n        /* \"NFT-Contracts/new/final_market_Multi_nft.sol\":22242:22254  bool success */\n      0x00\n        /* \"NFT-Contracts/new/final_market_Multi_nft.sol\":22260:22270  _nftSeller */\n      dup3\n      sub(shl(0xa0, 0x01), 0x01)\n        /* \"NFT-Contracts/new/final_market_Multi_nft.sol\":22260:22275  _nftSeller.call */\n      and\n        /* \"NFT-Contracts/new/final_market_Multi_nft.sol\":22283:22293  _buyAmount */\n      dup3\n        /* \"NFT-Contracts/new/final_market_Multi_nft.sol\":22260:22298  _nftSeller.call{value: _buyAmount}(\"\") */\n      mload(0x40)\n      0x00\n      mload(0x40)\n      dup1\n      dup4\n      sub\n      dup2\n      dup6\n      dup8\n      gas\n      call\n      swap3\n      pop\n      pop\n      pop\n      returndatasize\n      dup1\n      0x00\n      dup2\n      eq\n      tag_450\n      jumpi\n      mload(0x40)\n      swap2\n      pop\n      and(add(returndatasize, 0x3f), not(0x1f))\n      dup3\n      add\n      0x40\n      mstore\n      returndatasize\n      dup3\n      mstore\n      returndatasize\n      0x00\n      0x20\n      dup5\n      add\n      returndatacopy\n      jump(tag_449)\n    tag_450:\n      0x60\n      swap2\n      pop\n    tag_449:\n      pop\n        /* \"NFT-Contracts/new/final_market_Multi_nft.sol\":22241:22298  (bool success, ) = _nftSeller.call{value: _buyAmount}(\"\") */\n      pop\n      swap1\n      pop\n        /* \"NFT-Contracts/new/final_market_Multi_nft.sol\":22317:22324  success */\n      dup1\n        /* \"NFT-Contracts/new/final_market_Multi_nft.sol\":22309:22342  require(success, \"refund failed\") */\n      tag_427\n      jumpi\n      mload(0x40)\n      shl(0xe5, 0x461bcd)\n      dup2\n      mstore\n        /* \"#utility.yul\":21165:21167   */\n      0x20\n        /* \"NFT-Contracts/new/final_market_Multi_nft.sol\":22309:22342  require(success, \"refund failed\") */\n      0x04\n      dup3\n      add\n        /* \"#utility.yul\":21147:21168   */\n      mstore\n        /* \"#utility.yul\":21204:21206   */\n      0x0d\n        /* \"#utility.yul\":21184:21202   */\n      0x24\n      dup3\n      add\n        /* \"#utility.yul\":21177:21207   */\n      mstore\n      shl(0x9a, 0x1c99599d5b990819985a5b1959)\n        /* \"#utility.yul\":21223:21241   */\n      0x44\n      dup3\n      add\n        /* \"#utility.yul\":21216:21259   */\n      mstore\n        /* \"#utility.yul\":21276:21294   */\n      0x64\n      add\n        /* \"NFT-Contracts/new/final_market_Multi_nft.sol\":22309:22342  require(success, \"refund failed\") */\n      tag_151\n        /* \"#utility.yul\":20963:21300   */\n      jump\n        /* \"#utility.yul\":14:187   */\n    tag_455:\n        /* \"#utility.yul\":82:102   */\n      dup1\n      calldataload\n      sub(shl(0xa0, 0x01), 0x01)\n        /* \"#utility.yul\":131:162   */\n      dup2\n      and\n        /* \"#utility.yul\":121:163   */\n      dup2\n      eq\n        /* \"#utility.yul\":111:181   */\n      tag_457\n      jumpi\n        /* \"#utility.yul\":177:178   */\n      0x00\n        /* \"#utility.yul\":174:175   */\n      dup1\n        /* \"#utility.yul\":167:179   */\n      revert\n        /* \"#utility.yul\":111:181   */\n    tag_457:\n        /* \"#utility.yul\":14:187   */\n      swap2\n      swap1\n      pop\n      jump\t// out\n        /* \"#utility.yul\":192:559   */\n    tag_458:\n        /* \"#utility.yul\":255:263   */\n      0x00\n        /* \"#utility.yul\":265:271   */\n      dup1\n        /* \"#utility.yul\":319:322   */\n      dup4\n        /* \"#utility.yul\":312:316   */\n      0x1f\n        /* \"#utility.yul\":304:310   */\n      dup5\n        /* \"#utility.yul\":300:317   */\n      add\n        /* \"#utility.yul\":296:323   */\n      slt\n        /* \"#utility.yul\":286:341   */\n      tag_460\n      jumpi\n        /* \"#utility.yul\":337:338   */\n      0x00\n        /* \"#utility.yul\":334:335   */\n      dup1\n        /* \"#utility.yul\":327:339   */\n      revert\n        /* \"#utility.yul\":286:341   */\n    tag_460:\n      pop\n        /* \"#utility.yul\":360:380   */\n      dup2\n      calldataload\n        /* \"#utility.yul\":403:421   */\n      0xffffffffffffffff\n        /* \"#utility.yul\":392:422   */\n      dup2\n      gt\n        /* \"#utility.yul\":389:439   */\n      iszero\n      tag_461\n      jumpi\n        /* \"#utility.yul\":435:436   */\n      0x00\n        /* \"#utility.yul\":432:433   */\n      dup1\n        /* \"#utility.yul\":425:437   */\n      revert\n        /* \"#utility.yul\":389:439   */\n    tag_461:\n        /* \"#utility.yul\":472:476   */\n      0x20\n        /* \"#utility.yul\":464:470   */\n      dup4\n        /* \"#utility.yul\":460:477   */\n      add\n        /* \"#utility.yul\":448:477   */\n      swap2\n      pop\n        /* \"#utility.yul\":532:535   */\n      dup4\n        /* \"#utility.yul\":525:529   */\n      0x20\n        /* \"#utility.yul\":515:521   */\n      dup3\n        /* \"#utility.yul\":512:513   */\n      0x05\n        /* \"#utility.yul\":508:522   */\n      shl\n        /* \"#utility.yul\":500:506   */\n      dup6\n        /* \"#utility.yul\":496:523   */\n      add\n        /* \"#utility.yul\":492:530   */\n      add\n        /* \"#utility.yul\":489:536   */\n      gt\n        /* \"#utility.yul\":486:553   */\n      iszero\n      tag_462\n      jumpi\n        /* \"#utility.yul\":549:550   */\n      0x00\n        /* \"#utility.yul\":546:547   */\n      dup1\n        /* \"#utility.yul\":539:551   */\n      revert\n        /* \"#utility.yul\":486:553   */\n    tag_462:\n        /* \"#utility.yul\":192:559   */\n      swap3\n      pop\n      swap3\n      swap1\n      pop\n      jump\t// out\n        /* \"#utility.yul\":564:911   */\n    tag_463:\n        /* \"#utility.yul\":615:623   */\n      0x00\n        /* \"#utility.yul\":625:631   */\n      dup1\n        /* \"#utility.yul\":679:682   */\n      dup4\n        /* \"#utility.yul\":672:676   */\n      0x1f\n        /* \"#utility.yul\":664:670   */\n      dup5\n        /* \"#utility.yul\":660:677   */\n      add\n        /* \"#utility.yul\":656:683   */\n      slt\n        /* \"#utility.yul\":646:701   */\n      tag_465\n      jumpi\n        /* \"#utility.yul\":697:698   */\n      0x00\n        /* \"#utility.yul\":694:695   */\n      dup1\n        /* \"#utility.yul\":687:699   */\n      revert\n        /* \"#utility.yul\":646:701   */\n    tag_465:\n      pop\n        /* \"#utility.yul\":720:740   */\n      dup2\n      calldataload\n        /* \"#utility.yul\":763:781   */\n      0xffffffffffffffff\n        /* \"#utility.yul\":752:782   */\n      dup2\n      gt\n        /* \"#utility.yul\":749:799   */\n      iszero\n      tag_466\n      jumpi\n        /* \"#utility.yul\":795:796   */\n      0x00\n        /* \"#utility.yul\":792:793   */\n      dup1\n        /* \"#utility.yul\":785:797   */\n      revert\n        /* \"#utility.yul\":749:799   */\n    tag_466:\n        /* \"#utility.yul\":832:836   */\n      0x20\n        /* \"#utility.yul\":824:830   */\n      dup4\n        /* \"#utility.yul\":820:837   */\n      add\n        /* \"#utility.yul\":808:837   */\n      swap2\n      pop\n        /* \"#utility.yul\":884:887   */\n      dup4\n        /* \"#utility.yul\":877:881   */\n      0x20\n        /* \"#utility.yul\":868:874   */\n      dup3\n        /* \"#utility.yul\":860:866   */\n      dup6\n        /* \"#utility.yul\":856:875   */\n      add\n        /* \"#utility.yul\":852:882   */\n      add\n        /* \"#utility.yul\":849:888   */\n      gt\n        /* \"#utility.yul\":846:905   */\n      iszero\n      tag_462\n      jumpi\n        /* \"#utility.yul\":901:902   */\n      0x00\n        /* \"#utility.yul\":898:899   */\n      dup1\n        /* \"#utility.yul\":891:903   */\n      revert\n        /* \"#utility.yul\":916:1634   */\n    tag_468:\n        /* \"#utility.yul\":958:963   */\n      0x00\n        /* \"#utility.yul\":1011:1014   */\n      dup3\n        /* \"#utility.yul\":1004:1008   */\n      0x1f\n        /* \"#utility.yul\":996:1002   */\n      dup4\n        /* \"#utility.yul\":992:1009   */\n      add\n        /* \"#utility.yul\":988:1015   */\n      slt\n        /* \"#utility.yul\":978:1033   */\n      tag_470\n      jumpi\n        /* \"#utility.yul\":1029:1030   */\n      0x00\n        /* \"#utility.yul\":1026:1027   */\n      dup1\n        /* \"#utility.yul\":1019:1031   */\n      revert\n        /* \"#utility.yul\":978:1033   */\n    tag_470:\n        /* \"#utility.yul\":1065:1071   */\n      dup2\n        /* \"#utility.yul\":1052:1072   */\n      calldataload\n        /* \"#utility.yul\":1091:1109   */\n      0xffffffffffffffff\n        /* \"#utility.yul\":1128:1130   */\n      dup1\n        /* \"#utility.yul\":1124:1126   */\n      dup3\n        /* \"#utility.yul\":1121:1131   */\n      gt\n        /* \"#utility.yul\":1118:1154   */\n      iszero\n      tag_472\n      jumpi\n        /* \"#utility.yul\":1134:1152   */\n      tag_472\n      tag_473\n      jump\t// in\n    tag_472:\n        /* \"#utility.yul\":1209:1211   */\n      0x40\n        /* \"#utility.yul\":1203:1212   */\n      mload\n        /* \"#utility.yul\":1177:1179   */\n      0x1f\n        /* \"#utility.yul\":1263:1276   */\n      dup4\n      add\n      not(0x1f)\n        /* \"#utility.yul\":1259:1281   */\n      swap1\n      dup2\n      and\n        /* \"#utility.yul\":1283:1285   */\n      0x3f\n        /* \"#utility.yul\":1255:1286   */\n      add\n        /* \"#utility.yul\":1251:1291   */\n      and\n        /* \"#utility.yul\":1239:1292   */\n      dup2\n      add\n      swap1\n        /* \"#utility.yul\":1307:1325   */\n      dup3\n      dup3\n      gt\n        /* \"#utility.yul\":1327:1349   */\n      dup2\n      dup4\n      lt\n        /* \"#utility.yul\":1304:1350   */\n      or\n        /* \"#utility.yul\":1301:1373   */\n      iszero\n      tag_475\n      jumpi\n        /* \"#utility.yul\":1353:1371   */\n      tag_475\n      tag_473\n      jump\t// in\n    tag_475:\n        /* \"#utility.yul\":1393:1403   */\n      dup2\n        /* \"#utility.yul\":1389:1391   */\n      0x40\n        /* \"#utility.yul\":1382:1404   */\n      mstore\n        /* \"#utility.yul\":1428:1430   */\n      dup4\n        /* \"#utility.yul\":1420:1426   */\n      dup2\n        /* \"#utility.yul\":1413:1431   */\n      mstore\n        /* \"#utility.yul\":1474:1477   */\n      dup7\n        /* \"#utility.yul\":1467:1471   */\n      0x20\n        /* \"#utility.yul\":1462:1464   */\n      dup6\n        /* \"#utility.yul\":1454:1460   */\n      dup9\n        /* \"#utility.yul\":1450:1465   */\n      add\n        /* \"#utility.yul\":1446:1472   */\n      add\n        /* \"#utility.yul\":1443:1478   */\n      gt\n        /* \"#utility.yul\":1440:1495   */\n      iszero\n      tag_476\n      jumpi\n        /* \"#utility.yul\":1491:1492   */\n      0x00\n        /* \"#utility.yul\":1488:1489   */\n      dup1\n        /* \"#utility.yul\":1481:1493   */\n      revert\n        /* \"#utility.yul\":1440:1495   */\n    tag_476:\n        /* \"#utility.yul\":1555:1557   */\n      dup4\n        /* \"#utility.yul\":1548:1552   */\n      0x20\n        /* \"#utility.yul\":1540:1546   */\n      dup8\n        /* \"#utility.yul\":1536:1553   */\n      add\n        /* \"#utility.yul\":1529:1533   */\n      0x20\n        /* \"#utility.yul\":1521:1527   */\n      dup4\n        /* \"#utility.yul\":1517:1534   */\n      add\n        /* \"#utility.yul\":1504:1558   */\n      calldatacopy\n        /* \"#utility.yul\":1602:1603   */\n      0x00\n        /* \"#utility.yul\":1595:1599   */\n      0x20\n        /* \"#utility.yul\":1590:1592   */\n      dup6\n        /* \"#utility.yul\":1582:1588   */\n      dup4\n        /* \"#utility.yul\":1578:1593   */\n      add\n        /* \"#utility.yul\":1574:1600   */\n      add\n        /* \"#utility.yul\":1567:1604   */\n      mstore\n        /* \"#utility.yul\":1622:1628   */\n      dup1\n        /* \"#utility.yul\":1613:1628   */\n      swap5\n      pop\n      pop\n      pop\n      pop\n      pop\n        /* \"#utility.yul\":916:1634   */\n      swap3\n      swap2\n      pop\n      pop\n      jump\t// out\n        /* \"#utility.yul\":1639:1825   */\n    tag_49:\n        /* \"#utility.yul\":1698:1704   */\n      0x00\n        /* \"#utility.yul\":1751:1753   */\n      0x20\n        /* \"#utility.yul\":1739:1748   */\n      dup3\n        /* \"#utility.yul\":1730:1737   */\n      dup5\n        /* \"#utility.yul\":1726:1749   */\n      sub\n        /* \"#utility.yul\":1722:1754   */\n      slt\n        /* \"#utility.yul\":1719:1771   */\n      iszero\n      tag_478\n      jumpi\n        /* \"#utility.yul\":1767:1768   */\n      0x00\n        /* \"#utility.yul\":1764:1765   */\n      dup1\n        /* \"#utility.yul\":1757:1769   */\n      revert\n        /* \"#utility.yul\":1719:1771   */\n    tag_478:\n        /* \"#utility.yul\":1790:1819   */\n      tag_401\n        /* \"#utility.yul\":1809:1818   */\n      dup3\n        /* \"#utility.yul\":1790:1819   */\n      tag_455\n      jump\t// in\n        /* \"#utility.yul\":1830:3040   */\n    tag_132:\n        /* \"#utility.yul\":1990:1996   */\n      0x00\n        /* \"#utility.yul\":1998:2004   */\n      dup1\n        /* \"#utility.yul\":2006:2012   */\n      0x00\n        /* \"#utility.yul\":2014:2020   */\n      dup1\n        /* \"#utility.yul\":2022:2028   */\n      0x00\n        /* \"#utility.yul\":2030:2036   */\n      dup1\n        /* \"#utility.yul\":2038:2044   */\n      0x00\n        /* \"#utility.yul\":2046:2052   */\n      dup1\n        /* \"#utility.yul\":2099:2102   */\n      0xa0\n        /* \"#utility.yul\":2087:2096   */\n      dup10\n        /* \"#utility.yul\":2078:2085   */\n      dup12\n        /* \"#utility.yul\":2074:2097   */\n      sub\n        /* \"#utility.yul\":2070:2103   */\n      slt\n        /* \"#utility.yul\":2067:2120   */\n      iszero\n      tag_481\n      jumpi\n        /* \"#utility.yul\":2116:2117   */\n      0x00\n        /* \"#utility.yul\":2113:2114   */\n      dup1\n        /* \"#utility.yul\":2106:2118   */\n      revert\n        /* \"#utility.yul\":2067:2120   */\n    tag_481:\n        /* \"#utility.yul\":2139:2168   */\n      tag_482\n        /* \"#utility.yul\":2158:2167   */\n      dup10\n        /* \"#utility.yul\":2139:2168   */\n      tag_455\n      jump\t// in\n    tag_482:\n        /* \"#utility.yul\":2129:2168   */\n      swap8\n      pop\n        /* \"#utility.yul\":2187:2225   */\n      tag_483\n        /* \"#utility.yul\":2221:2223   */\n      0x20\n        /* \"#utility.yul\":2210:2219   */\n      dup11\n        /* \"#utility.yul\":2206:2224   */\n      add\n        /* \"#utility.yul\":2187:2225   */\n      tag_455\n      jump\t// in\n    tag_483:\n        /* \"#utility.yul\":2177:2225   */\n      swap7\n      pop\n        /* \"#utility.yul\":2276:2278   */\n      0x40\n        /* \"#utility.yul\":2265:2274   */\n      dup10\n        /* \"#utility.yul\":2261:2279   */\n      add\n        /* \"#utility.yul\":2248:2280   */\n      calldataload\n        /* \"#utility.yul\":2299:2317   */\n      0xffffffffffffffff\n        /* \"#utility.yul\":2340:2342   */\n      dup1\n        /* \"#utility.yul\":2332:2338   */\n      dup3\n        /* \"#utility.yul\":2329:2343   */\n      gt\n        /* \"#utility.yul\":2326:2360   */\n      iszero\n      tag_484\n      jumpi\n        /* \"#utility.yul\":2356:2357   */\n      0x00\n        /* \"#utility.yul\":2353:2354   */\n      dup1\n        /* \"#utility.yul\":2346:2358   */\n      revert\n        /* \"#utility.yul\":2326:2360   */\n    tag_484:\n        /* \"#utility.yul\":2395:2465   */\n      tag_485\n        /* \"#utility.yul\":2457:2464   */\n      dup13\n        /* \"#utility.yul\":2448:2454   */\n      dup4\n        /* \"#utility.yul\":2437:2446   */\n      dup14\n        /* \"#utility.yul\":2433:2455   */\n      add\n        /* \"#utility.yul\":2395:2465   */\n      tag_458\n      jump\t// in\n    tag_485:\n        /* \"#utility.yul\":2484:2492   */\n      swap1\n      swap9\n      pop\n        /* \"#utility.yul\":2369:2465   */\n      swap7\n      pop\n        /* \"#utility.yul\":2572:2574   */\n      0x60\n        /* \"#utility.yul\":2557:2575   */\n      dup12\n      add\n        /* \"#utility.yul\":2544:2576   */\n      calldataload\n      swap2\n      pop\n        /* \"#utility.yul\":2588:2604   */\n      dup1\n      dup3\n      gt\n        /* \"#utility.yul\":2585:2621   */\n      iszero\n      tag_486\n      jumpi\n        /* \"#utility.yul\":2617:2618   */\n      0x00\n        /* \"#utility.yul\":2614:2615   */\n      dup1\n        /* \"#utility.yul\":2607:2619   */\n      revert\n        /* \"#utility.yul\":2585:2621   */\n    tag_486:\n        /* \"#utility.yul\":2656:2728   */\n      tag_487\n        /* \"#utility.yul\":2720:2727   */\n      dup13\n        /* \"#utility.yul\":2709:2717   */\n      dup4\n        /* \"#utility.yul\":2698:2707   */\n      dup14\n        /* \"#utility.yul\":2694:2718   */\n      add\n        /* \"#utility.yul\":2656:2728   */\n      tag_458\n      jump\t// in\n    tag_487:\n        /* \"#utility.yul\":2747:2755   */\n      swap1\n      swap7\n      pop\n        /* \"#utility.yul\":2630:2728   */\n      swap5\n      pop\n        /* \"#utility.yul\":2835:2838   */\n      0x80\n        /* \"#utility.yul\":2820:2839   */\n      dup12\n      add\n        /* \"#utility.yul\":2807:2840   */\n      calldataload\n      swap2\n      pop\n        /* \"#utility.yul\":2852:2868   */\n      dup1\n      dup3\n      gt\n        /* \"#utility.yul\":2849:2885   */\n      iszero\n      tag_488\n      jumpi\n        /* \"#utility.yul\":2881:2882   */\n      0x00\n        /* \"#utility.yul\":2878:2879   */\n      dup1\n        /* \"#utility.yul\":2871:2883   */\n      revert\n        /* \"#utility.yul\":2849:2885   */\n    tag_488:\n      pop\n        /* \"#utility.yul\":2920:2980   */\n      tag_489\n        /* \"#utility.yul\":2972:2979   */\n      dup12\n        /* \"#utility.yul\":2961:2969   */\n      dup3\n        /* \"#utility.yul\":2950:2959   */\n      dup13\n        /* \"#utility.yul\":2946:2970   */\n      add\n        /* \"#utility.yul\":2920:2980   */\n      tag_463\n      jump\t// in\n    tag_489:\n        /* \"#utility.yul\":1830:3040   */\n      swap10\n      swap13\n      swap9\n      swap12\n      pop\n      swap7\n      swap10\n      pop\n      swap5\n      swap8\n      swap4\n      swap7\n      swap3\n      swap6\n        /* \"#utility.yul\":2999:3007   */\n      swap5\n      pop\n      pop\n      pop\n        /* \"#utility.yul\":1830:3040   */\n      jump\t// out\n        /* \"#utility.yul\":3045:3373   */\n    tag_33:\n        /* \"#utility.yul\":3122:3128   */\n      0x00\n        /* \"#utility.yul\":3130:3136   */\n      dup1\n        /* \"#utility.yul\":3138:3144   */\n      0x00\n        /* \"#utility.yul\":3191:3193   */\n      0x60\n        /* \"#utility.yul\":3179:3188   */\n      dup5\n        /* \"#utility.yul\":3170:3177   */\n      dup7\n        /* \"#utility.yul\":3166:3189   */\n      sub\n        /* \"#utility.yul\":3162:3194   */\n      slt\n        /* \"#utility.yul\":3159:3211   */\n      iszero\n      tag_491\n      jumpi\n        /* \"#utility.yul\":3207:3208   */\n      0x00\n        /* \"#utility.yul\":3204:3205   */\n      dup1\n        /* \"#utility.yul\":3197:3209   */\n      revert\n        /* \"#utility.yul\":3159:3211   */\n    tag_491:\n        /* \"#utility.yul\":3230:3259   */\n      tag_492\n        /* \"#utility.yul\":3249:3258   */\n      dup5\n        /* \"#utility.yul\":3230:3259   */\n      tag_455\n      jump\t// in\n    tag_492:\n        /* \"#utility.yul\":3220:3259   */\n      swap3\n      pop\n        /* \"#utility.yul\":3278:3316   */\n      tag_493\n        /* \"#utility.yul\":3312:3314   */\n      0x20\n        /* \"#utility.yul\":3301:3310   */\n      dup6\n        /* \"#utility.yul\":3297:3315   */\n      add\n        /* \"#utility.yul\":3278:3316   */\n      tag_455\n      jump\t// in\n    tag_493:\n        /* \"#utility.yul\":3268:3316   */\n      swap2\n      pop\n        /* \"#utility.yul\":3363:3365   */\n      0x40\n        /* \"#utility.yul\":3352:3361   */\n      dup5\n        /* \"#utility.yul\":3348:3366   */\n      add\n        /* \"#utility.yul\":3335:3367   */\n      calldataload\n        /* \"#utility.yul\":3325:3367   */\n      swap1\n      pop\n        /* \"#utility.yul\":3045:3373   */\n      swap3\n      pop\n      swap3\n      pop\n      swap3\n      jump\t// out\n        /* \"#utility.yul\":3378:4073   */\n    tag_138:\n        /* \"#utility.yul\":3484:3490   */\n      0x00\n        /* \"#utility.yul\":3492:3498   */\n      dup1\n        /* \"#utility.yul\":3500:3506   */\n      0x00\n        /* \"#utility.yul\":3508:3514   */\n      dup1\n        /* \"#utility.yul\":3516:3522   */\n      0x00\n        /* \"#utility.yul\":3524:3530   */\n      dup1\n        /* \"#utility.yul\":3577:3580   */\n      0xa0\n        /* \"#utility.yul\":3565:3574   */\n      dup8\n        /* \"#utility.yul\":3556:3563   */\n      dup10\n        /* \"#utility.yul\":3552:3575   */\n      sub\n        /* \"#utility.yul\":3548:3581   */\n      slt\n        /* \"#utility.yul\":3545:3598   */\n      iszero\n      tag_495\n      jumpi\n        /* \"#utility.yul\":3594:3595   */\n      0x00\n        /* \"#utility.yul\":3591:3592   */\n      dup1\n        /* \"#utility.yul\":3584:3596   */\n      revert\n        /* \"#utility.yul\":3545:3598   */\n    tag_495:\n        /* \"#utility.yul\":3617:3646   */\n      tag_496\n        /* \"#utility.yul\":3636:3645   */\n      dup8\n        /* \"#utility.yul\":3617:3646   */\n      tag_455\n      jump\t// in\n    tag_496:\n        /* \"#utility.yul\":3607:3646   */\n      swap6\n      pop\n        /* \"#utility.yul\":3665:3703   */\n      tag_497\n        /* \"#utility.yul\":3699:3701   */\n      0x20\n        /* \"#utility.yul\":3688:3697   */\n      dup9\n        /* \"#utility.yul\":3684:3702   */\n      add\n        /* \"#utility.yul\":3665:3703   */\n      tag_455\n      jump\t// in\n    tag_497:\n        /* \"#utility.yul\":3655:3703   */\n      swap5\n      pop\n        /* \"#utility.yul\":3750:3752   */\n      0x40\n        /* \"#utility.yul\":3739:3748   */\n      dup8\n        /* \"#utility.yul\":3735:3753   */\n      add\n        /* \"#utility.yul\":3722:3754   */\n      calldataload\n        /* \"#utility.yul\":3712:3754   */\n      swap4\n      pop\n        /* \"#utility.yul\":3801:3803   */\n      0x60\n        /* \"#utility.yul\":3790:3799   */\n      dup8\n        /* \"#utility.yul\":3786:3804   */\n      add\n        /* \"#utility.yul\":3773:3805   */\n      calldataload\n        /* \"#utility.yul\":3763:3805   */\n      swap3\n      pop\n        /* \"#utility.yul\":3856:3859   */\n      0x80\n        /* \"#utility.yul\":3845:3854   */\n      dup8\n        /* \"#utility.yul\":3841:3860   */\n      add\n        /* \"#utility.yul\":3828:3861   */\n      calldataload\n        /* \"#utility.yul\":3884:3902   */\n      0xffffffffffffffff\n        /* \"#utility.yul\":3876:3882   */\n      dup2\n        /* \"#utility.yul\":3873:3903   */\n      gt\n        /* \"#utility.yul\":3870:3920   */\n      iszero\n      tag_498\n      jumpi\n        /* \"#utility.yul\":3916:3917   */\n      0x00\n        /* \"#utility.yul\":3913:3914   */\n      dup1\n        /* \"#utility.yul\":3906:3918   */\n      revert\n        /* \"#utility.yul\":3870:3920   */\n    tag_498:\n        /* \"#utility.yul\":3955:4013   */\n      tag_499\n        /* \"#utility.yul\":4005:4012   */\n      dup10\n        /* \"#utility.yul\":3996:4002   */\n      dup3\n        /* \"#utility.yul\":3985:3994   */\n      dup11\n        /* \"#utility.yul\":3981:4003   */\n      add\n        /* \"#utility.yul\":3955:4013   */\n      tag_463\n      jump\t// in\n    tag_499:\n        /* \"#utility.yul\":3378:4073   */\n      swap8\n      swap11\n      swap7\n      swap10\n      pop\n      swap5\n      swap8\n      pop\n      swap3\n      swap6\n        /* \"#utility.yul\":4032:4040   */\n      swap4\n      swap5\n        /* \"#utility.yul\":3378:4073   */\n      swap3\n      pop\n      pop\n      pop\n      jump\t// out\n        /* \"#utility.yul\":4078:4753   */\n    tag_98:\n        /* \"#utility.yul\":4191:4197   */\n      0x00\n        /* \"#utility.yul\":4199:4205   */\n      dup1\n        /* \"#utility.yul\":4207:4213   */\n      0x00\n        /* \"#utility.yul\":4215:4221   */\n      dup1\n        /* \"#utility.yul\":4223:4229   */\n      0x00\n        /* \"#utility.yul\":4231:4237   */\n      dup1\n        /* \"#utility.yul\":4284:4287   */\n      0xc0\n        /* \"#utility.yul\":4272:4281   */\n      dup8\n        /* \"#utility.yul\":4263:4270   */\n      dup10\n        /* \"#utility.yul\":4259:4282   */\n      sub\n        /* \"#utility.yul\":4255:4288   */\n      slt\n        /* \"#utility.yul\":4252:4305   */\n      iszero\n      tag_501\n      jumpi\n        /* \"#utility.yul\":4301:4302   */\n      0x00\n        /* \"#utility.yul\":4298:4299   */\n      dup1\n        /* \"#utility.yul\":4291:4303   */\n      revert\n        /* \"#utility.yul\":4252:4305   */\n    tag_501:\n        /* \"#utility.yul\":4324:4353   */\n      tag_502\n        /* \"#utility.yul\":4343:4352   */\n      dup8\n        /* \"#utility.yul\":4324:4353   */\n      tag_455\n      jump\t// in\n    tag_502:\n        /* \"#utility.yul\":4314:4353   */\n      swap6\n      pop\n        /* \"#utility.yul\":4372:4410   */\n      tag_503\n        /* \"#utility.yul\":4406:4408   */\n      0x20\n        /* \"#utility.yul\":4395:4404   */\n      dup9\n        /* \"#utility.yul\":4391:4409   */\n      add\n        /* \"#utility.yul\":4372:4410   */\n      tag_455\n      jump\t// in\n    tag_503:\n        /* \"#utility.yul\":4362:4410   */\n      swap5\n      pop\n        /* \"#utility.yul\":4457:4459   */\n      0x40\n        /* \"#utility.yul\":4446:4455   */\n      dup8\n        /* \"#utility.yul\":4442:4460   */\n      add\n        /* \"#utility.yul\":4429:4461   */\n      calldataload\n        /* \"#utility.yul\":4419:4461   */\n      swap4\n      pop\n        /* \"#utility.yul\":4508:4510   */\n      0x60\n        /* \"#utility.yul\":4497:4506   */\n      dup8\n        /* \"#utility.yul\":4493:4511   */\n      add\n        /* \"#utility.yul\":4480:4512   */\n      calldataload\n        /* \"#utility.yul\":4470:4512   */\n      swap3\n      pop\n        /* \"#utility.yul\":4559:4562   */\n      0x80\n        /* \"#utility.yul\":4548:4557   */\n      dup8\n        /* \"#utility.yul\":4544:4563   */\n      add\n        /* \"#utility.yul\":4531:4564   */\n      calldataload\n        /* \"#utility.yul\":4521:4564   */\n      swap2\n      pop\n        /* \"#utility.yul\":4615:4618   */\n      0xa0\n        /* \"#utility.yul\":4604:4613   */\n      dup8\n        /* \"#utility.yul\":4600:4619   */\n      add\n        /* \"#utility.yul\":4587:4620   */\n      calldataload\n        /* \"#utility.yul\":4643:4661   */\n      0xffffffffffffffff\n        /* \"#utility.yul\":4635:4641   */\n      dup2\n        /* \"#utility.yul\":4632:4662   */\n      gt\n        /* \"#utility.yul\":4629:4679   */\n      iszero\n      tag_504\n      jumpi\n        /* \"#utility.yul\":4675:4676   */\n      0x00\n        /* \"#utility.yul\":4672:4673   */\n      dup1\n        /* \"#utility.yul\":4665:4677   */\n      revert\n        /* \"#utility.yul\":4629:4679   */\n    tag_504:\n        /* \"#utility.yul\":4698:4747   */\n      tag_505\n        /* \"#utility.yul\":4739:4746   */\n      dup10\n        /* \"#utility.yul\":4730:4736   */\n      dup3\n        /* \"#utility.yul\":4719:4728   */\n      dup11\n        /* \"#utility.yul\":4715:4737   */\n      add\n        /* \"#utility.yul\":4698:4747   */\n      tag_468\n      jump\t// in\n    tag_505:\n        /* \"#utility.yul\":4688:4747   */\n      swap2\n      pop\n      pop\n        /* \"#utility.yul\":4078:4753   */\n      swap3\n      swap6\n      pop\n      swap3\n      swap6\n      pop\n      swap3\n      swap6\n      jump\t// out\n        /* \"#utility.yul\":4758:5571   */\n    tag_58:\n        /* \"#utility.yul\":4889:4895   */\n      0x00\n        /* \"#utility.yul\":4897:4903   */\n      dup1\n        /* \"#utility.yul\":4905:4911   */\n      0x00\n        /* \"#utility.yul\":4913:4919   */\n      dup1\n        /* \"#utility.yul\":4921:4927   */\n      0x00\n        /* \"#utility.yul\":4929:4935   */\n      dup1\n        /* \"#utility.yul\":4937:4943   */\n      0x00\n        /* \"#utility.yul\":4945:4951   */\n      dup1\n        /* \"#utility.yul\":4998:5001   */\n      0x0100\n        /* \"#utility.yul\":4986:4995   */\n      dup10\n        /* \"#utility.yul\":4977:4984   */\n      dup12\n        /* \"#utility.yul\":4973:4996   */\n      sub\n        /* \"#utility.yul\":4969:5002   */\n      slt\n        /* \"#utility.yul\":4966:5019   */\n      iszero\n      tag_507\n      jumpi\n        /* \"#utility.yul\":5015:5016   */\n      0x00\n        /* \"#utility.yul\":5012:5013   */\n      dup1\n        /* \"#utility.yul\":5005:5017   */\n      revert\n        /* \"#utility.yul\":4966:5019   */\n    tag_507:\n        /* \"#utility.yul\":5038:5067   */\n      tag_508\n        /* \"#utility.yul\":5057:5066   */\n      dup10\n        /* \"#utility.yul\":5038:5067   */\n      tag_455\n      jump\t// in\n    tag_508:\n        /* \"#utility.yul\":5028:5067   */\n      swap8\n      pop\n        /* \"#utility.yul\":5086:5124   */\n      tag_509\n        /* \"#utility.yul\":5120:5122   */\n      0x20\n        /* \"#utility.yul\":5109:5118   */\n      dup11\n        /* \"#utility.yul\":5105:5123   */\n      add\n        /* \"#utility.yul\":5086:5124   */\n      tag_455\n      jump\t// in\n    tag_509:\n        /* \"#utility.yul\":5076:5124   */\n      swap7\n      pop\n        /* \"#utility.yul\":5171:5173   */\n      0x40\n        /* \"#utility.yul\":5160:5169   */\n      dup10\n        /* \"#utility.yul\":5156:5174   */\n      add\n        /* \"#utility.yul\":5143:5175   */\n      calldataload\n        /* \"#utility.yul\":5133:5175   */\n      swap6\n      pop\n        /* \"#utility.yul\":5222:5224   */\n      0x60\n        /* \"#utility.yul\":5211:5220   */\n      dup10\n        /* \"#utility.yul\":5207:5225   */\n      add\n        /* \"#utility.yul\":5194:5226   */\n      calldataload\n        /* \"#utility.yul\":5184:5226   */\n      swap5\n      pop\n        /* \"#utility.yul\":5273:5276   */\n      0x80\n        /* \"#utility.yul\":5262:5271   */\n      dup10\n        /* \"#utility.yul\":5258:5277   */\n      add\n        /* \"#utility.yul\":5245:5278   */\n      calldataload\n        /* \"#utility.yul\":5235:5278   */\n      swap4\n      pop\n        /* \"#utility.yul\":5325:5328   */\n      0xa0\n        /* \"#utility.yul\":5314:5323   */\n      dup10\n        /* \"#utility.yul\":5310:5329   */\n      add\n        /* \"#utility.yul\":5297:5330   */\n      calldataload\n        /* \"#utility.yul\":5287:5330   */\n      swap3\n      pop\n        /* \"#utility.yul\":5377:5380   */\n      0xc0\n        /* \"#utility.yul\":5366:5375   */\n      dup10\n        /* \"#utility.yul\":5362:5381   */\n      add\n        /* \"#utility.yul\":5349:5382   */\n      calldataload\n        /* \"#utility.yul\":5339:5382   */\n      swap2\n      pop\n        /* \"#utility.yul\":5433:5436   */\n      0xe0\n        /* \"#utility.yul\":5422:5431   */\n      dup10\n        /* \"#utility.yul\":5418:5437   */\n      add\n        /* \"#utility.yul\":5405:5438   */\n      calldataload\n        /* \"#utility.yul\":5461:5479   */\n      0xffffffffffffffff\n        /* \"#utility.yul\":5453:5459   */\n      dup2\n        /* \"#utility.yul\":5450:5480   */\n      gt\n        /* \"#utility.yul\":5447:5497   */\n      iszero\n      tag_510\n      jumpi\n        /* \"#utility.yul\":5493:5494   */\n      0x00\n        /* \"#utility.yul\":5490:5491   */\n      dup1\n        /* \"#utility.yul\":5483:5495   */\n      revert\n        /* \"#utility.yul\":5447:5497   */\n    tag_510:\n        /* \"#utility.yul\":5516:5565   */\n      tag_511\n        /* \"#utility.yul\":5557:5564   */\n      dup12\n        /* \"#utility.yul\":5548:5554   */\n      dup3\n        /* \"#utility.yul\":5537:5546   */\n      dup13\n        /* \"#utility.yul\":5533:5555   */\n      add\n        /* \"#utility.yul\":5516:5565   */\n      tag_468\n      jump\t// in\n    tag_511:\n        /* \"#utility.yul\":5506:5565   */\n      swap2\n      pop\n      pop\n        /* \"#utility.yul\":4758:5571   */\n      swap3\n      swap6\n      swap9\n      pop\n      swap3\n      swap6\n      swap9\n      swap1\n      swap4\n      swap7\n      pop\n      jump\t// out\n        /* \"#utility.yul\":5576:5830   */\n    tag_67:\n        /* \"#utility.yul\":5644:5650   */\n      0x00\n        /* \"#utility.yul\":5652:5658   */\n      dup1\n        /* \"#utility.yul\":5705:5707   */\n      0x40\n        /* \"#utility.yul\":5693:5702   */\n      dup4\n        /* \"#utility.yul\":5684:5691   */\n      dup6\n        /* \"#utility.yul\":5680:5703   */\n      sub\n        /* \"#utility.yul\":5676:5708   */\n      slt\n        /* \"#utility.yul\":5673:5725   */\n      iszero\n      tag_513\n      jumpi\n        /* \"#utility.yul\":5721:5722   */\n      0x00\n        /* \"#utility.yul\":5718:5719   */\n      dup1\n        /* \"#utility.yul\":5711:5723   */\n      revert\n        /* \"#utility.yul\":5673:5725   */\n    tag_513:\n        /* \"#utility.yul\":5744:5773   */\n      tag_514\n        /* \"#utility.yul\":5763:5772   */\n      dup4\n        /* \"#utility.yul\":5744:5773   */\n      tag_455\n      jump\t// in\n    tag_514:\n        /* \"#utility.yul\":5734:5773   */\n      swap5\n        /* \"#utility.yul\":5820:5822   */\n      0x20\n        /* \"#utility.yul\":5805:5823   */\n      swap4\n      swap1\n      swap4\n      add\n        /* \"#utility.yul\":5792:5824   */\n      calldataload\n      swap4\n      pop\n      pop\n      pop\n        /* \"#utility.yul\":5576:5830   */\n      jump\t// out\n        /* \"#utility.yul\":5835:6163   */\n    tag_92:\n        /* \"#utility.yul\":5912:5918   */\n      0x00\n        /* \"#utility.yul\":5920:5926   */\n      dup1\n        /* \"#utility.yul\":5928:5934   */\n      0x00\n        /* \"#utility.yul\":5981:5983   */\n      0x60\n        /* \"#utility.yul\":5969:5978   */\n      dup5\n        /* \"#utility.yul\":5960:5967   */\n      dup7\n        /* \"#utility.yul\":5956:5979   */\n      sub\n        /* \"#utility.yul\":5952:5984   */\n      slt\n        /* \"#utility.yul\":5949:6001   */\n      iszero\n      tag_516\n      jumpi\n        /* \"#utility.yul\":5997:5998   */\n      0x00\n        /* \"#utility.yul\":5994:5995   */\n      dup1\n        /* \"#utility.yul\":5987:5999   */\n      revert\n        /* \"#utility.yul\":5949:6001   */\n    tag_516:\n        /* \"#utility.yul\":6020:6049   */\n      tag_517\n        /* \"#utility.yul\":6039:6048   */\n      dup5\n        /* \"#utility.yul\":6020:6049   */\n      tag_455\n      jump\t// in\n    tag_517:\n        /* \"#utility.yul\":6010:6049   */\n      swap3\n      pop\n        /* \"#utility.yul\":6096:6098   */\n      0x20\n        /* \"#utility.yul\":6085:6094   */\n      dup5\n        /* \"#utility.yul\":6081:6099   */\n      add\n        /* \"#utility.yul\":6068:6100   */\n      calldataload\n        /* \"#utility.yul\":6058:6100   */\n      swap2\n      pop\n        /* \"#utility.yul\":6119:6157   */\n      tag_518\n        /* \"#utility.yul\":6153:6155   */\n      0x40\n        /* \"#utility.yul\":6142:6151   */\n      dup6\n        /* \"#utility.yul\":6138:6156   */\n      add\n        /* \"#utility.yul\":6119:6157   */\n      tag_455\n      jump\t// in\n    tag_518:\n        /* \"#utility.yul\":6109:6157   */\n      swap1\n      pop\n        /* \"#utility.yul\":5835:6163   */\n      swap3\n      pop\n      swap3\n      pop\n      swap3\n      jump\t// out\n        /* \"#utility.yul\":6168:6490   */\n    tag_39:\n        /* \"#utility.yul\":6245:6251   */\n      0x00\n        /* \"#utility.yul\":6253:6259   */\n      dup1\n        /* \"#utility.yul\":6261:6267   */\n      0x00\n        /* \"#utility.yul\":6314:6316   */\n      0x60\n        /* \"#utility.yul\":6302:6311   */\n      dup5\n        /* \"#utility.yul\":6293:6300   */\n      dup7\n        /* \"#utility.yul\":6289:6312   */\n      sub\n        /* \"#utility.yul\":6285:6317   */\n      slt\n        /* \"#utility.yul\":6282:6334   */\n      iszero\n      tag_520\n      jumpi\n        /* \"#utility.yul\":6330:6331   */\n      0x00\n        /* \"#utility.yul\":6327:6328   */\n      dup1\n        /* \"#utility.yul\":6320:6332   */\n      revert\n        /* \"#utility.yul\":6282:6334   */\n    tag_520:\n        /* \"#utility.yul\":6353:6382   */\n      tag_521\n        /* \"#utility.yul\":6372:6381   */\n      dup5\n        /* \"#utility.yul\":6353:6382   */\n      tag_455\n      jump\t// in\n    tag_521:\n        /* \"#utility.yul\":6343:6382   */\n      swap6\n        /* \"#utility.yul\":6429:6431   */\n      0x20\n        /* \"#utility.yul\":6414:6432   */\n      dup6\n      add\n        /* \"#utility.yul\":6401:6433   */\n      calldataload\n      swap6\n      pop\n        /* \"#utility.yul\":6480:6482   */\n      0x40\n        /* \"#utility.yul\":6465:6483   */\n      swap1\n      swap5\n      add\n        /* \"#utility.yul\":6452:6484   */\n      calldataload\n      swap4\n        /* \"#utility.yul\":6168:6490   */\n      swap3\n      pop\n      pop\n      pop\n      jump\t// out\n        /* \"#utility.yul\":6495:7026   */\n    tag_108:\n        /* \"#utility.yul\":6590:6596   */\n      0x00\n        /* \"#utility.yul\":6598:6604   */\n      dup1\n        /* \"#utility.yul\":6606:6612   */\n      0x00\n        /* \"#utility.yul\":6614:6620   */\n      dup1\n        /* \"#utility.yul\":6667:6670   */\n      0x80\n        /* \"#utility.yul\":6655:6664   */\n      dup6\n        /* \"#utility.yul\":6646:6653   */\n      dup8\n        /* \"#utility.yul\":6642:6665   */\n      sub\n        /* \"#utility.yul\":6638:6671   */\n      slt\n        /* \"#utility.yul\":6635:6688   */\n      iszero\n      tag_523\n      jumpi\n        /* \"#utility.yul\":6684:6685   */\n      0x00\n        /* \"#utility.yul\":6681:6682   */\n      dup1\n        /* \"#utility.yul\":6674:6686   */\n      revert\n        /* \"#utility.yul\":6635:6688   */\n    tag_523:\n        /* \"#utility.yul\":6707:6736   */\n      tag_524\n        /* \"#utility.yul\":6726:6735   */\n      dup6\n        /* \"#utility.yul\":6707:6736   */\n      tag_455\n      jump\t// in\n    tag_524:\n        /* \"#utility.yul\":6697:6736   */\n      swap4\n      pop\n        /* \"#utility.yul\":6783:6785   */\n      0x20\n        /* \"#utility.yul\":6772:6781   */\n      dup6\n        /* \"#utility.yul\":6768:6786   */\n      add\n        /* \"#utility.yul\":6755:6787   */\n      calldataload\n        /* \"#utility.yul\":6745:6787   */\n      swap3\n      pop\n        /* \"#utility.yul\":6834:6836   */\n      0x40\n        /* \"#utility.yul\":6823:6832   */\n      dup6\n        /* \"#utility.yul\":6819:6837   */\n      add\n        /* \"#utility.yul\":6806:6838   */\n      calldataload\n        /* \"#utility.yul\":6796:6838   */\n      swap2\n      pop\n        /* \"#utility.yul\":6889:6891   */\n      0x60\n        /* \"#utility.yul\":6878:6887   */\n      dup6\n        /* \"#utility.yul\":6874:6892   */\n      add\n        /* \"#utility.yul\":6861:6893   */\n      calldataload\n        /* \"#utility.yul\":6916:6934   */\n      0xffffffffffffffff\n        /* \"#utility.yul\":6908:6914   */\n      dup2\n        /* \"#utility.yul\":6905:6935   */\n      gt\n        /* \"#utility.yul\":6902:6952   */\n      iszero\n      tag_525\n      jumpi\n        /* \"#utility.yul\":6948:6949   */\n      0x00\n        /* \"#utility.yul\":6945:6946   */\n      dup1\n        /* \"#utility.yul\":6938:6950   */\n      revert\n        /* \"#utility.yul\":6902:6952   */\n    tag_525:\n        /* \"#utility.yul\":6971:7020   */\n      tag_526\n        /* \"#utility.yul\":7012:7019   */\n      dup8\n        /* \"#utility.yul\":7003:7009   */\n      dup3\n        /* \"#utility.yul\":6992:7001   */\n      dup9\n        /* \"#utility.yul\":6988:7010   */\n      add\n        /* \"#utility.yul\":6971:7020   */\n      tag_468\n      jump\t// in\n    tag_526:\n        /* \"#utility.yul\":6961:7020   */\n      swap2\n      pop\n      pop\n        /* \"#utility.yul\":6495:7026   */\n      swap3\n      swap6\n      swap2\n      swap5\n      pop\n      swap3\n      pop\n      jump\t// out\n        /* \"#utility.yul\":7031:7631   */\n    tag_81:\n        /* \"#utility.yul\":7135:7141   */\n      0x00\n        /* \"#utility.yul\":7143:7149   */\n      dup1\n        /* \"#utility.yul\":7151:7157   */\n      0x00\n        /* \"#utility.yul\":7159:7165   */\n      dup1\n        /* \"#utility.yul\":7167:7173   */\n      0x00\n        /* \"#utility.yul\":7220:7223   */\n      0xa0\n        /* \"#utility.yul\":7208:7217   */\n      dup7\n        /* \"#utility.yul\":7199:7206   */\n      dup9\n        /* \"#utility.yul\":7195:7218   */\n      sub\n        /* \"#utility.yul\":7191:7224   */\n      slt\n        /* \"#utility.yul\":7188:7241   */\n      iszero\n      tag_528\n      jumpi\n        /* \"#utility.yul\":7237:7238   */\n      0x00\n        /* \"#utility.yul\":7234:7235   */\n      dup1\n        /* \"#utility.yul\":7227:7239   */\n      revert\n        /* \"#utility.yul\":7188:7241   */\n    tag_528:\n        /* \"#utility.yul\":7260:7289   */\n      tag_529\n        /* \"#utility.yul\":7279:7288   */\n      dup7\n        /* \"#utility.yul\":7260:7289   */\n      tag_455\n      jump\t// in\n    tag_529:\n        /* \"#utility.yul\":7250:7289   */\n      swap5\n      pop\n        /* \"#utility.yul\":7336:7338   */\n      0x20\n        /* \"#utility.yul\":7325:7334   */\n      dup7\n        /* \"#utility.yul\":7321:7339   */\n      add\n        /* \"#utility.yul\":7308:7340   */\n      calldataload\n        /* \"#utility.yul\":7298:7340   */\n      swap4\n      pop\n        /* \"#utility.yul\":7387:7389   */\n      0x40\n        /* \"#utility.yul\":7376:7385   */\n      dup7\n        /* \"#utility.yul\":7372:7390   */\n      add\n        /* \"#utility.yul\":7359:7391   */\n      calldataload\n        /* \"#utility.yul\":7349:7391   */\n      swap3\n      pop\n        /* \"#utility.yul\":7438:7440   */\n      0x60\n        /* \"#utility.yul\":7427:7436   */\n      dup7\n        /* \"#utility.yul\":7423:7441   */\n      add\n        /* \"#utility.yul\":7410:7442   */\n      calldataload\n        /* \"#utility.yul\":7400:7442   */\n      swap2\n      pop\n        /* \"#utility.yul\":7493:7496   */\n      0x80\n        /* \"#utility.yul\":7482:7491   */\n      dup7\n        /* \"#utility.yul\":7478:7497   */\n      add\n        /* \"#utility.yul\":7465:7498   */\n      calldataload\n        /* \"#utility.yul\":7521:7539   */\n      0xffffffffffffffff\n        /* \"#utility.yul\":7513:7519   */\n      dup2\n        /* \"#utility.yul\":7510:7540   */\n      gt\n        /* \"#utility.yul\":7507:7557   */\n      iszero\n      tag_530\n      jumpi\n        /* \"#utility.yul\":7553:7554   */\n      0x00\n        /* \"#utility.yul\":7550:7551   */\n      dup1\n        /* \"#utility.yul\":7543:7555   */\n      revert\n        /* \"#utility.yul\":7507:7557   */\n    tag_530:\n        /* \"#utility.yul\":7576:7625   */\n      tag_531\n        /* \"#utility.yul\":7617:7624   */\n      dup9\n        /* \"#utility.yul\":7608:7614   */\n      dup3\n        /* \"#utility.yul\":7597:7606   */\n      dup10\n        /* \"#utility.yul\":7593:7615   */\n      add\n        /* \"#utility.yul\":7576:7625   */\n      tag_468\n      jump\t// in\n    tag_531:\n        /* \"#utility.yul\":7566:7625   */\n      swap2\n      pop\n      pop\n        /* \"#utility.yul\":7031:7631   */\n      swap3\n      swap6\n      pop\n      swap3\n      swap6\n      swap1\n      swap4\n      pop\n      jump\t// out\n        /* \"#utility.yul\":7636:7913   */\n    tag_148:\n        /* \"#utility.yul\":7703:7709   */\n      0x00\n        /* \"#utility.yul\":7756:7758   */\n      0x20\n        /* \"#utility.yul\":7744:7753   */\n      dup3\n        /* \"#utility.yul\":7735:7742   */\n      dup5\n        /* \"#utility.yul\":7731:7754   */\n      sub\n        /* \"#utility.yul\":7727:7759   */\n      slt\n        /* \"#utility.yul\":7724:7776   */\n      iszero\n      tag_533\n      jumpi\n        /* \"#utility.yul\":7772:7773   */\n      0x00\n        /* \"#utility.yul\":7769:7770   */\n      dup1\n        /* \"#utility.yul\":7762:7774   */\n      revert\n        /* \"#utility.yul\":7724:7776   */\n    tag_533:\n        /* \"#utility.yul\":7804:7813   */\n      dup2\n        /* \"#utility.yul\":7798:7814   */\n      mload\n        /* \"#utility.yul\":7857:7862   */\n      dup1\n        /* \"#utility.yul\":7850:7863   */\n      iszero\n        /* \"#utility.yul\":7843:7864   */\n      iszero\n        /* \"#utility.yul\":7836:7841   */\n      dup2\n        /* \"#utility.yul\":7833:7865   */\n      eq\n        /* \"#utility.yul\":7823:7883   */\n      tag_401\n      jumpi\n        /* \"#utility.yul\":7879:7880   */\n      0x00\n        /* \"#utility.yul\":7876:7877   */\n      dup1\n        /* \"#utility.yul\":7869:7881   */\n      revert\n        /* \"#utility.yul\":7918:8102   */\n    tag_410:\n        /* \"#utility.yul\":7988:7994   */\n      0x00\n        /* \"#utility.yul\":8041:8043   */\n      0x20\n        /* \"#utility.yul\":8029:8038   */\n      dup3\n        /* \"#utility.yul\":8020:8027   */\n      dup5\n        /* \"#utility.yul\":8016:8039   */\n      sub\n        /* \"#utility.yul\":8012:8044   */\n      slt\n        /* \"#utility.yul\":8009:8061   */\n      iszero\n      tag_536\n      jumpi\n        /* \"#utility.yul\":8057:8058   */\n      0x00\n        /* \"#utility.yul\":8054:8055   */\n      dup1\n        /* \"#utility.yul\":8047:8059   */\n      revert\n        /* \"#utility.yul\":8009:8061   */\n    tag_536:\n      pop\n        /* \"#utility.yul\":8080:8096   */\n      mload\n      swap2\n        /* \"#utility.yul\":7918:8102   */\n      swap1\n      pop\n      jump\t// out\n        /* \"#utility.yul\":8626:9298   */\n    tag_238:\n      sub(shl(0xa0, 0x01), 0x01)\n        /* \"#utility.yul\":8997:9012   */\n      swap8\n      dup9\n      and\n        /* \"#utility.yul\":8979:9013   */\n      dup2\n      mstore\n        /* \"#utility.yul\":9049:9064   */\n      swap6\n      dup8\n      and\n        /* \"#utility.yul\":9044:9046   */\n      0x20\n        /* \"#utility.yul\":9029:9047   */\n      dup8\n      add\n        /* \"#utility.yul\":9022:9065   */\n      mstore\n        /* \"#utility.yul\":9101:9116   */\n      swap4\n      swap1\n      swap6\n      and\n        /* \"#utility.yul\":9096:9098   */\n      0x40\n        /* \"#utility.yul\":9081:9099   */\n      dup6\n      add\n        /* \"#utility.yul\":9074:9117   */\n      mstore\n        /* \"#utility.yul\":9148:9150   */\n      0x60\n        /* \"#utility.yul\":9133:9151   */\n      dup5\n      add\n        /* \"#utility.yul\":9126:9160   */\n      swap2\n      swap1\n      swap2\n      mstore\n        /* \"#utility.yul\":9191:9194   */\n      0x80\n        /* \"#utility.yul\":9176:9195   */\n      dup4\n      add\n        /* \"#utility.yul\":9169:9204   */\n      mstore\n        /* \"#utility.yul\":8959:8962   */\n      0xa0\n        /* \"#utility.yul\":9220:9239   */\n      dup3\n      add\n        /* \"#utility.yul\":9213:9248   */\n      swap3\n      swap1\n      swap3\n      mstore\n        /* \"#utility.yul\":9279:9282   */\n      0xc0\n        /* \"#utility.yul\":9264:9283   */\n      dup2\n      add\n        /* \"#utility.yul\":9257:9292   */\n      swap2\n      swap1\n      swap2\n      mstore\n        /* \"#utility.yul\":8928:8931   */\n      0xe0\n        /* \"#utility.yul\":8913:8932   */\n      add\n      swap1\n        /* \"#utility.yul\":8626:9298   */\n      jump\t// out\n        /* \"#utility.yul\":9303:9678   */\n    tag_143:\n      sub(shl(0xa0, 0x01), 0x01)\n        /* \"#utility.yul\":9561:9576   */\n      swap4\n      dup5\n      and\n        /* \"#utility.yul\":9543:9577   */\n      dup2\n      mstore\n        /* \"#utility.yul\":9613:9628   */\n      swap2\n      swap1\n      swap3\n      and\n        /* \"#utility.yul\":9608:9610   */\n      0x20\n        /* \"#utility.yul\":9593:9611   */\n      dup3\n      add\n        /* \"#utility.yul\":9586:9629   */\n      mstore\n        /* \"#utility.yul\":9660:9662   */\n      0x40\n        /* \"#utility.yul\":9645:9663   */\n      dup2\n      add\n        /* \"#utility.yul\":9638:9672   */\n      swap2\n      swap1\n      swap2\n      mstore\n        /* \"#utility.yul\":9493:9495   */\n      0x60\n        /* \"#utility.yul\":9478:9496   */\n      add\n      swap1\n        /* \"#utility.yul\":9303:9678   */\n      jump\t// out\n        /* \"#utility.yul\":9683:10624   */\n    tag_298:\n        /* \"#utility.yul\":9905:9909   */\n      0x00\n        /* \"#utility.yul\":9951:9952   */\n      0x01\n        /* \"#utility.yul\":9947:9948   */\n      dup1\n        /* \"#utility.yul\":9942:9945   */\n      0xa0\n        /* \"#utility.yul\":9938:9949   */\n      shl\n        /* \"#utility.yul\":9934:9953   */\n      sub\n        /* \"#utility.yul\":9992:9994   */\n      dup1\n        /* \"#utility.yul\":9984:9990   */\n      dup9\n        /* \"#utility.yul\":9980:9995   */\n      and\n        /* \"#utility.yul\":9969:9978   */\n      dup4\n        /* \"#utility.yul\":9962:9996   */\n      mstore\n        /* \"#utility.yul\":10015:10017   */\n      0x20\n        /* \"#utility.yul\":10065:10067   */\n      dup2\n        /* \"#utility.yul\":10057:10063   */\n      dup9\n        /* \"#utility.yul\":10053:10068   */\n      and\n        /* \"#utility.yul\":10048:10050   */\n      dup2\n        /* \"#utility.yul\":10037:10046   */\n      dup6\n        /* \"#utility.yul\":10033:10051   */\n      add\n        /* \"#utility.yul\":10026:10069   */\n      mstore\n        /* \"#utility.yul\":10105:10111   */\n      dup7\n        /* \"#utility.yul\":10100:10102   */\n      0x40\n        /* \"#utility.yul\":10089:10098   */\n      dup6\n        /* \"#utility.yul\":10085:10103   */\n      add\n        /* \"#utility.yul\":10078:10112   */\n      mstore\n        /* \"#utility.yul\":10148:10154   */\n      dup6\n        /* \"#utility.yul\":10143:10145   */\n      0x60\n        /* \"#utility.yul\":10132:10141   */\n      dup6\n        /* \"#utility.yul\":10128:10146   */\n      add\n        /* \"#utility.yul\":10121:10155   */\n      mstore\n        /* \"#utility.yul\":10192:10195   */\n      0xa0\n        /* \"#utility.yul\":10186:10189   */\n      0x80\n        /* \"#utility.yul\":10175:10184   */\n      dup6\n        /* \"#utility.yul\":10171:10190   */\n      add\n        /* \"#utility.yul\":10164:10196   */\n      mstore\n        /* \"#utility.yul\":10225:10231   */\n      dup5\n        /* \"#utility.yul\":10219:10232   */\n      mload\n        /* \"#utility.yul\":10205:10232   */\n      swap2\n      pop\n        /* \"#utility.yul\":10269:10275   */\n      dup2\n        /* \"#utility.yul\":10263:10266   */\n      0xa0\n        /* \"#utility.yul\":10252:10261   */\n      dup6\n        /* \"#utility.yul\":10248:10267   */\n      add\n        /* \"#utility.yul\":10241:10276   */\n      mstore\n        /* \"#utility.yul\":10294:10295   */\n      0x00\n        /* \"#utility.yul\":10304:10445   */\n    tag_542:\n        /* \"#utility.yul\":10318:10324   */\n      dup3\n        /* \"#utility.yul\":10315:10316   */\n      dup2\n        /* \"#utility.yul\":10312:10325   */\n      lt\n        /* \"#utility.yul\":10304:10445   */\n      iszero\n      tag_544\n      jumpi\n        /* \"#utility.yul\":10414:10428   */\n      dup6\n      dup2\n      add\n        /* \"#utility.yul\":10410:10433   */\n      dup3\n      add\n        /* \"#utility.yul\":10404:10434   */\n      mload\n        /* \"#utility.yul\":10379:10396   */\n      dup6\n      dup3\n      add\n        /* \"#utility.yul\":10398:10401   */\n      0xc0\n        /* \"#utility.yul\":10375:10402   */\n      add\n        /* \"#utility.yul\":10368:10435   */\n      mstore\n        /* \"#utility.yul\":10333:10343   */\n      dup2\n      add\n        /* \"#utility.yul\":10304:10445   */\n      jump(tag_542)\n    tag_544:\n        /* \"#utility.yul\":10463:10469   */\n      dup3\n        /* \"#utility.yul\":10460:10461   */\n      dup2\n        /* \"#utility.yul\":10457:10470   */\n      gt\n        /* \"#utility.yul\":10454:10546   */\n      iszero\n      tag_545\n      jumpi\n        /* \"#utility.yul\":10534:10535   */\n      0x00\n        /* \"#utility.yul\":10528:10531   */\n      0xc0\n        /* \"#utility.yul\":10519:10525   */\n      dup5\n        /* \"#utility.yul\":10508:10517   */\n      dup8\n        /* \"#utility.yul\":10504:10526   */\n      add\n        /* \"#utility.yul\":10500:10532   */\n      add\n        /* \"#utility.yul\":10493:10536   */\n      mstore\n        /* \"#utility.yul\":10454:10546   */\n    tag_545:\n      pop\n      pop\n        /* \"#utility.yul\":10607:10609   */\n      0x1f\n        /* \"#utility.yul\":10586:10601   */\n      add\n      not(0x1f)\n        /* \"#utility.yul\":10582:10611   */\n      and\n        /* \"#utility.yul\":10567:10612   */\n      swap2\n      swap1\n      swap2\n      add\n        /* \"#utility.yul\":10614:10617   */\n      0xc0\n        /* \"#utility.yul\":10563:10618   */\n      add\n      swap7\n        /* \"#utility.yul\":9683:10624   */\n      swap6\n      pop\n      pop\n      pop\n      pop\n      pop\n      pop\n      jump\t// out\n        /* \"#utility.yul\":10629:11256   */\n    tag_374:\n      sub(shl(0xa0, 0x01), 0x01)\n        /* \"#utility.yul\":10980:10995   */\n      swap5\n      dup6\n      and\n        /* \"#utility.yul\":10962:10996   */\n      dup2\n      mstore\n        /* \"#utility.yul\":11032:11047   */\n      swap3\n      swap1\n      swap4\n      and\n        /* \"#utility.yul\":11027:11029   */\n      0x20\n        /* \"#utility.yul\":11012:11030   */\n      dup4\n      add\n        /* \"#utility.yul\":11005:11048   */\n      mstore\n        /* \"#utility.yul\":11079:11081   */\n      0x40\n        /* \"#utility.yul\":11064:11082   */\n      dup3\n      add\n        /* \"#utility.yul\":11057:11091   */\n      mstore\n        /* \"#utility.yul\":11122:11124   */\n      0x60\n        /* \"#utility.yul\":11107:11125   */\n      dup2\n      add\n        /* \"#utility.yul\":11100:11134   */\n      swap2\n      swap1\n      swap2\n      mstore\n        /* \"#utility.yul\":10942:10945   */\n      0xa0\n        /* \"#utility.yul\":11165:11168   */\n      0x80\n        /* \"#utility.yul\":11150:11169   */\n      dup3\n      add\n        /* \"#utility.yul\":11143:11175   */\n      dup2\n      swap1\n      mstore\n        /* \"#utility.yul\":10905:10909   */\n      0x00\n        /* \"#utility.yul\":11191:11210   */\n      swap1\n      dup3\n      add\n        /* \"#utility.yul\":11184:11214   */\n      mstore\n        /* \"#utility.yul\":11246:11249   */\n      0xc0\n        /* \"#utility.yul\":11231:11250   */\n      add\n      swap1\n        /* \"#utility.yul\":10629:11256   */\n      jump\t// out\n        /* \"#utility.yul\":13779:14593   */\n    tag_45:\n        /* \"#utility.yul\":14000:14002   */\n      0x20\n        /* \"#utility.yul\":14052:14073   */\n      dup1\n      dup3\n      mstore\n        /* \"#utility.yul\":14122:14135   */\n      dup3\n      mload\n        /* \"#utility.yul\":14025:14043   */\n      dup3\n      dup3\n      add\n        /* \"#utility.yul\":14144:14166   */\n      dup2\n      swap1\n      mstore\n        /* \"#utility.yul\":13971:13975   */\n      0x00\n      swap2\n        /* \"#utility.yul\":14000:14002   */\n      swap1\n        /* \"#utility.yul\":14185:14187   */\n      0x40\n      swap1\n        /* \"#utility.yul\":14203:14221   */\n      dup2\n      dup6\n      add\n      swap1\n        /* \"#utility.yul\":14244:14259   */\n      dup7\n      dup5\n      add\n        /* \"#utility.yul\":13971:13975   */\n      dup6\n        /* \"#utility.yul\":14287:14567   */\n    tag_554:\n        /* \"#utility.yul\":14301:14307   */\n      dup3\n        /* \"#utility.yul\":14298:14299   */\n      dup2\n        /* \"#utility.yul\":14295:14308   */\n      lt\n        /* \"#utility.yul\":14287:14567   */\n      iszero\n      tag_556\n      jumpi\n        /* \"#utility.yul\":14360:14373   */\n      dup2\n      mload\n        /* \"#utility.yul\":14402:14411   */\n      dup1\n      mload\n      sub(shl(0xa0, 0x01), 0x01)\n        /* \"#utility.yul\":14398:14433   */\n      and\n        /* \"#utility.yul\":14386:14434   */\n      dup6\n      mstore\n        /* \"#utility.yul\":14474:14485   */\n      dup7\n      add\n        /* \"#utility.yul\":14468:14486   */\n      mload\n        /* \"#utility.yul\":14454:14466   */\n      dup7\n      dup6\n      add\n        /* \"#utility.yul\":14447:14487   */\n      mstore\n        /* \"#utility.yul\":14507:14519   */\n      swap3\n      dup5\n      add\n      swap3\n        /* \"#utility.yul\":14542:14557   */\n      swap1\n      dup6\n      add\n      swap1\n        /* \"#utility.yul\":14430:14431   */\n      0x01\n        /* \"#utility.yul\":14316:14325   */\n      add\n        /* \"#utility.yul\":14287:14567   */\n      jump(tag_554)\n    tag_556:\n      pop\n        /* \"#utility.yul\":14584:14587   */\n      swap2\n      swap8\n        /* \"#utility.yul\":13779:14593   */\n      swap7\n      pop\n      pop\n      pop\n      pop\n      pop\n      pop\n      pop\n      jump\t// out\n        /* \"#utility.yul\":15705:16046   */\n    tag_160:\n        /* \"#utility.yul\":15907:15909   */\n      0x20\n        /* \"#utility.yul\":15889:15910   */\n      dup1\n      dup3\n      mstore\n        /* \"#utility.yul\":15946:15948   */\n      0x11\n        /* \"#utility.yul\":15926:15944   */\n      swap1\n      dup3\n      add\n        /* \"#utility.yul\":15919:15949   */\n      mstore\n      shl(0x7c, 0x050726963652063616e6e6f74206265203)\n        /* \"#utility.yul\":15980:15982   */\n      0x40\n        /* \"#utility.yul\":15965:15983   */\n      dup3\n      add\n        /* \"#utility.yul\":15958:16005   */\n      mstore\n        /* \"#utility.yul\":16037:16039   */\n      0x60\n        /* \"#utility.yul\":16022:16040   */\n      add\n      swap1\n        /* \"#utility.yul\":15705:16046   */\n      jump\t// out\n        /* \"#utility.yul\":16393:16738   */\n    tag_242:\n        /* \"#utility.yul\":16595:16597   */\n      0x20\n        /* \"#utility.yul\":16577:16598   */\n      dup1\n      dup3\n      mstore\n        /* \"#utility.yul\":16634:16636   */\n      0x15\n        /* \"#utility.yul\":16614:16632   */\n      swap1\n      dup3\n      add\n        /* \"#utility.yul\":16607:16637   */\n      mstore\n      shl(0x58, 0x4e6674206e6f7420696e2066697865642073616c65)\n        /* \"#utility.yul\":16668:16670   */\n      0x40\n        /* \"#utility.yul\":16653:16671   */\n      dup3\n      add\n        /* \"#utility.yul\":16646:16697   */\n      mstore\n        /* \"#utility.yul\":16729:16731   */\n      0x60\n        /* \"#utility.yul\":16714:16732   */\n      add\n      swap1\n        /* \"#utility.yul\":16393:16738   */\n      jump\t// out\n        /* \"#utility.yul\":16743:17090   */\n    tag_152:\n        /* \"#utility.yul\":16945:16947   */\n      0x20\n        /* \"#utility.yul\":16927:16948   */\n      dup1\n      dup3\n      mstore\n        /* \"#utility.yul\":16984:16986   */\n      0x17\n        /* \"#utility.yul\":16964:16982   */\n      swap1\n      dup3\n      add\n        /* \"#utility.yul\":16957:16987   */\n      mstore\n        /* \"#utility.yul\":17023:17048   */\n      0x4e6674206e6f7420696e2061756374696f6e2073616c65000000000000000000\n        /* \"#utility.yul\":17018:17020   */\n      0x40\n        /* \"#utility.yul\":17003:17021   */\n      dup3\n      add\n        /* \"#utility.yul\":16996:17049   */\n      mstore\n        /* \"#utility.yul\":17081:17083   */\n      0x60\n        /* \"#utility.yul\":17066:17084   */\n      add\n      swap1\n        /* \"#utility.yul\":16743:17090   */\n      jump\t// out\n        /* \"#utility.yul\":17095:17448   */\n    tag_165:\n        /* \"#utility.yul\":17297:17299   */\n      0x20\n        /* \"#utility.yul\":17279:17300   */\n      dup1\n      dup3\n      mstore\n        /* \"#utility.yul\":17336:17338   */\n      0x1d\n        /* \"#utility.yul\":17316:17334   */\n      swap1\n      dup3\n      add\n        /* \"#utility.yul\":17309:17339   */\n      mstore\n        /* \"#utility.yul\":17375:17406   */\n      0x4269642047726561746572207468616e2050726576696f757320426964000000\n        /* \"#utility.yul\":17370:17372   */\n      0x40\n        /* \"#utility.yul\":17355:17373   */\n      dup3\n      add\n        /* \"#utility.yul\":17348:17407   */\n      mstore\n        /* \"#utility.yul\":17439:17441   */\n      0x60\n        /* \"#utility.yul\":17424:17442   */\n      add\n      swap1\n        /* \"#utility.yul\":17095:17448   */\n      jump\t// out\n        /* \"#utility.yul\":17453:17788   */\n    tag_156:\n        /* \"#utility.yul\":17655:17657   */\n      0x20\n        /* \"#utility.yul\":17637:17658   */\n      dup1\n      dup3\n      mstore\n        /* \"#utility.yul\":17694:17696   */\n      0x0b\n        /* \"#utility.yul\":17674:17692   */\n      swap1\n      dup3\n      add\n        /* \"#utility.yul\":17667:17697   */\n      mstore\n      shl(0xaa, 0x105d58dd1a5bdb88195b99)\n        /* \"#utility.yul\":17728:17730   */\n      0x40\n        /* \"#utility.yul\":17713:17731   */\n      dup3\n      add\n        /* \"#utility.yul\":17706:17747   */\n      mstore\n        /* \"#utility.yul\":17779:17781   */\n      0x60\n        /* \"#utility.yul\":17764:17782   */\n      add\n      swap1\n        /* \"#utility.yul\":17453:17788   */\n      jump\t// out\n        /* \"#utility.yul\":19916:20261   */\n    tag_212:\n        /* \"#utility.yul\":20118:20120   */\n      0x20\n        /* \"#utility.yul\":20100:20121   */\n      dup1\n      dup3\n      mstore\n        /* \"#utility.yul\":20157:20159   */\n      0x15\n        /* \"#utility.yul\":20137:20155   */\n      swap1\n      dup3\n      add\n        /* \"#utility.yul\":20130:20160   */\n      mstore\n      shl(0x59, 0x2cb7ba9030b932903737ba1037333a1037bbb732b9)\n        /* \"#utility.yul\":20191:20193   */\n      0x40\n        /* \"#utility.yul\":20176:20194   */\n      dup3\n      add\n        /* \"#utility.yul\":20169:20220   */\n      mstore\n        /* \"#utility.yul\":20252:20254   */\n      0x60\n        /* \"#utility.yul\":20237:20255   */\n      add\n      swap1\n        /* \"#utility.yul\":19916:20261   */\n      jump\t// out\n        /* \"#utility.yul\":22831:22959   */\n    tag_402:\n        /* \"#utility.yul\":22871:22874   */\n      0x00\n        /* \"#utility.yul\":22902:22903   */\n      dup3\n        /* \"#utility.yul\":22898:22904   */\n      not\n        /* \"#utility.yul\":22895:22896   */\n      dup3\n        /* \"#utility.yul\":22892:22905   */\n      gt\n        /* \"#utility.yul\":22889:22928   */\n      iszero\n      tag_582\n      jumpi\n        /* \"#utility.yul\":22908:22926   */\n      tag_582\n      tag_583\n      jump\t// in\n    tag_582:\n      pop\n        /* \"#utility.yul\":22944:22953   */\n      add\n      swap1\n        /* \"#utility.yul\":22831:22959   */\n      jump\t// out\n        /* \"#utility.yul\":22964:23132   */\n    tag_288:\n        /* \"#utility.yul\":23004:23011   */\n      0x00\n        /* \"#utility.yul\":23070:23071   */\n      dup2\n        /* \"#utility.yul\":23066:23067   */\n      0x00\n        /* \"#utility.yul\":23062:23068   */\n      not\n        /* \"#utility.yul\":23058:23072   */\n      div\n        /* \"#utility.yul\":23055:23056   */\n      dup4\n        /* \"#utility.yul\":23052:23073   */\n      gt\n        /* \"#utility.yul\":23047:23048   */\n      dup3\n        /* \"#utility.yul\":23040:23049   */\n      iszero\n        /* \"#utility.yul\":23033:23050   */\n      iszero\n        /* \"#utility.yul\":23029:23074   */\n      and\n        /* \"#utility.yul\":23026:23097   */\n      iszero\n      tag_586\n      jumpi\n        /* \"#utility.yul\":23077:23095   */\n      tag_586\n      tag_583\n      jump\t// in\n    tag_586:\n      pop\n        /* \"#utility.yul\":23117:23126   */\n      mul\n      swap1\n        /* \"#utility.yul\":22964:23132   */\n      jump\t// out\n        /* \"#utility.yul\":23137:23262   */\n    tag_429:\n        /* \"#utility.yul\":23177:23181   */\n      0x00\n        /* \"#utility.yul\":23205:23206   */\n      dup3\n        /* \"#utility.yul\":23202:23203   */\n      dup3\n        /* \"#utility.yul\":23199:23207   */\n      lt\n        /* \"#utility.yul\":23196:23230   */\n      iszero\n      tag_589\n      jumpi\n        /* \"#utility.yul\":23210:23228   */\n      tag_589\n      tag_583\n      jump\t// in\n    tag_589:\n      pop\n        /* \"#utility.yul\":23247:23256   */\n      sub\n      swap1\n        /* \"#utility.yul\":23137:23262   */\n      jump\t// out\n        /* \"#utility.yul\":23267:23394   */\n    tag_583:\n        /* \"#utility.yul\":23328:23338   */\n      0x4e487b71\n        /* \"#utility.yul\":23323:23326   */\n      0xe0\n        /* \"#utility.yul\":23319:23339   */\n      shl\n        /* \"#utility.yul\":23316:23317   */\n      0x00\n        /* \"#utility.yul\":23309:23340   */\n      mstore\n        /* \"#utility.yul\":23359:23363   */\n      0x11\n        /* \"#utility.yul\":23356:23357   */\n      0x04\n        /* \"#utility.yul\":23349:23364   */\n      mstore\n        /* \"#utility.yul\":23383:23387   */\n      0x24\n        /* \"#utility.yul\":23380:23381   */\n      0x00\n        /* \"#utility.yul\":23373:23388   */\n      revert\n        /* \"#utility.yul\":23399:23526   */\n    tag_276:\n        /* \"#utility.yul\":23460:23470   */\n      0x4e487b71\n        /* \"#utility.yul\":23455:23458   */\n      0xe0\n        /* \"#utility.yul\":23451:23471   */\n      shl\n        /* \"#utility.yul\":23448:23449   */\n      0x00\n        /* \"#utility.yul\":23441:23472   */\n      mstore\n        /* \"#utility.yul\":23491:23495   */\n      0x32\n        /* \"#utility.yul\":23488:23489   */\n      0x04\n        /* \"#utility.yul\":23481:23496   */\n      mstore\n        /* \"#utility.yul\":23515:23519   */\n      0x24\n        /* \"#utility.yul\":23512:23513   */\n      0x00\n        /* \"#utility.yul\":23505:23520   */\n      revert\n        /* \"#utility.yul\":23531:23658   */\n    tag_473:\n        /* \"#utility.yul\":23592:23602   */\n      0x4e487b71\n        /* \"#utility.yul\":23587:23590   */\n      0xe0\n        /* \"#utility.yul\":23583:23603   */\n      shl\n        /* \"#utility.yul\":23580:23581   */\n      0x00\n        /* \"#utility.yul\":23573:23604   */\n      mstore\n        /* \"#utility.yul\":23623:23627   */\n      0x41\n        /* \"#utility.yul\":23620:23621   */\n      0x04\n        /* \"#utility.yul\":23613:23628   */\n      mstore\n        /* \"#utility.yul\":23647:23651   */\n      0x24\n        /* \"#utility.yul\":23644:23645   */\n      0x00\n        /* \"#utility.yul\":23637:23652   */\n      revert\n\n    auxdata: 0xa264697066735822122017be7978601b486bb9783f9075b977e6a48c6cbe2f876df09ad3e34a626685c764736f6c63430008070033\n}\n",
				"bytecode": {
					"linkReferences": {},
					"object": "608060405234801561001057600080fd5b506131ac806100206000396000f3fe6080604052600436106101385760003560e01c80636f8c9b1b116100ab578063842bc46a1161006f578063842bc46a146103e75780638c3417da146104075780639b8cfe52146104ff5780639f085a0014610533578063bc197c8114610548578063f23a6e611461057757600080fd5b80636f8c9b1b146102bc5780636fe02f2414610349578063771b5788146103875780637ad47a21146103a7578063804e9f24146103c757600080fd5b8063423cdd4e116100fd578063423cdd4e146101e35780634676adca146102035780634cb8ef5b146102235780635138b08c146102435780636916462f146102635780636eb84994146102a957600080fd5b8062e2097c146101445780631bdae6f1146101795780631e7a044f1461018e578063282e460a146101b05780633a713db8146101d057600080fd5b3661013f57005b600080fd5b34801561015057600080fd5b5061016461015f366004612af9565b6105a4565b60405190151581526020015b60405180910390f35b61018c610187366004612d1c565b61064b565b005b34801561019a57600080fd5b506101a3610994565b6040516101709190612f72565b3480156101bc57600080fd5b506101646101cb366004612a23565b610a09565b61018c6101de366004612d1c565b610a90565b3480156101ef57600080fd5b5061018c6101fe366004612c27565b610da3565b34801561020f57600080fd5b5061018c61021e366004612d1c565b61107e565b34801561022f57600080fd5b5061018c61023e366004612cb6565b61119a565b34801561024f57600080fd5b5061018c61025e366004612cb6565b611356565b34801561026f57600080fd5b5061029b61027e366004612cb6565b600160209081526000928352604080842090915290825290205481565b604051908152602001610170565b61018c6102b7366004612db0565b611544565b3480156102c857600080fd5b506102dc6102d7366004612cb6565b6117e1565b6040516101709190815181526020808301519082015260408083015190820152606080830151908201526080808301519082015260a0808301516001600160a01b039081169183019190915260c08084015182169083015260e09283015116918101919091526101000190565b34801561035557600080fd5b5061029b610364366004612ce0565b600460209081526000938452604080852082529284528284209052825290205481565b34801561039357600080fd5b5061018c6103a2366004612bad565b6118cb565b3480156103b357600080fd5b506101646103c2366004612af9565b611d17565b3480156103d357600080fd5b5061018c6103e2366004612d4f565b611d60565b3480156103f357600080fd5b5061018c610402366004612cb6565b611ef2565b34801561041357600080fd5b506104b5610422366004612cb6565b6040805160a081018252600080825260208201819052918101829052606081018290526080810191909152506001600160a01b0391821660009081526020818152604080832093835292815290829020825160a081018452815485168152600182015485169281019290925260028101549093169181019190915260038201546060820152600490910154608082015290565b6040805182516001600160a01b039081168252602080850151821690830152838301511691810191909152606080830151908201526080918201519181019190915260a001610170565b34801561050b57600080fd5b5061051a636cdb3d1360e11b81565b6040516001600160e01b03199091168152602001610170565b34801561053f57600080fd5b506101a3612192565b34801561055457600080fd5b5061051a610563366004612a3e565b63bc197c8160e01b98975050505050505050565b34801561058357600080fd5b5061051a610592366004612b35565b63f23a6e6160e01b9695505050505050565b6040516323b872dd60e01b815260009084906001600160a01b038216906323b872dd906105ed90732258c5b9c82ff0fa923756ed3fd2acb5616df57c9088908890600401612e97565b602060405180830381600087803b15801561060757600080fd5b505af115801561061b573d6000803e3d6000fd5b505050506040513d601f19601f8201168201806040525081019061063f9190612e1b565b50600195945050505050565b6001600160a01b03831660009081526001602090815260408083208584529091529020548390839060021461069b5760405162461bcd60e51b815260040161069290613024565b60405180910390fd5b6001600160a01b03851660009081526003602090815260408083208784529091529020600101548590859042106106e45760405162461bcd60e51b815260040161069290613092565b84600081116107055760405162461bcd60e51b815260040161069290612fca565b6001600160a01b0380891660009081526003602090815260408083208b84529091529020600701548991899134918a9116610783576001600160a01b03841660009081526003602081815260408084208785529091529091200154821161077e5760405162461bcd60e51b81526004016106929061305b565b6107c7565b6001600160a01b0384166000908152600360208181526040808420878552909152909120015481116107c75760405162461bcd60e51b81526004016106929061305b565b6001600160a01b038c811660009081526003602090815260408083208f84529091529020600701541615610829576001600160a01b03808d1660009081526003602090815260408083208f8452909152902060070154610829918c91166121fd565b89600360008e6001600160a01b03166001600160a01b0316815260200190815260200160002060008d81526020019081526020016000206003018190555033600360008e6001600160a01b03166001600160a01b0316815260200190815260200160002060008d815260200190815260200160002060050160006101000a8154816001600160a01b0302191690836001600160a01b0316021790555089600460008e6001600160a01b03166001600160a01b0316815260200190815260200160002060008d81526020019081526020016000206000336001600160a01b03166001600160a01b03168152602001908152602001600020819055507fd56cb6210c78740462007b728932c802bc41b205ed5c8a98ab95421eaf054b228c8c8c3360405161097e94939291906001600160a01b03948516815260208101939093526040830191909152909116606082015260800190565b60405180910390a1505050505050505050505050565b60606007805480602002602001604051908101604052809291908181526020016000905b82821015610a00576000848152602090819020604080518082019091526002850290910180546001600160a01b031682526001908101548284015290835290920191016109b8565b50505050905090565b6040516301ffc9a760e01b8152636cdb3d1360e11b60048201526000906001600160a01b038316906301ffc9a79060240160206040518083038186803b158015610a5257600080fd5b505afa158015610a66573d6000803e3d6000fd5b505050506040513d601f19601f82011682018060405250810190610a8a9190612e1b565b92915050565b6001600160a01b038316600090815260016020908152604080832085845290915290205483908390600214610ad75760405162461bcd60e51b815260040161069290613024565b6001600160a01b0385166000908152600360209081526040808320878452909152902060010154859085904210610b205760405162461bcd60e51b815260040161069290613092565b3460008111610b415760405162461bcd60e51b815260040161069290612fca565b6001600160a01b0380891660009081526003602090815260408083208b84529091528120600701548a928a9234928b9216610bb3576001600160a01b03851660009081526004602090815260408083208784528252808320338452909152902054610bac90846122c6565b9050610bec565b6001600160a01b03851660009081526004602090815260408083208784528252808320338452909152902054610be990836122c6565b90505b6001600160a01b038516600090815260036020818152604080842088855290915290912001548111610c305760405162461bcd60e51b81526004016106929061305b565b6001600160a01b038d1660009081526004602090815260408083208f845282528083203384529091528120548e918e91610c6a908f6122c6565b6001600160a01b0384811660009081526003602090815260408083208784529091529020600701549192501615610cf157610cf18e60036000866001600160a01b03166001600160a01b03168152602001908152602001600020600085815260200190815260200160002060070160009054906101000a90046001600160a01b03166121fd565b6001600160a01b03831660008181526003602081815260408084208785528252808420928301869055600590920180546001600160a01b0319163390811790915584845260048252828420878552825282842081855282529282902085905581519384528301859052820183905260608201527f907cdadc7c1a8abcdd80cdd85eb18377631e4f413fb6397a8252ff7b358ac6cb9060800160405180910390a150505050505050505050505050505050565b8786610daf82826122d9565b610dcb5760405162461bcd60e51b8152600401610692906130b7565b6001600160a01b038a1660009081526001602090815260408083208b84529091529020548a90899015610e365760405162461bcd60e51b81526020600482015260136024820152724e667420616c726561647920696e2073616c6560681b6044820152606401610692565b60405163e985e9c560e01b81523360048201523060248201528c908b906001600160a01b0383169063e985e9c59060440160206040518083038186803b158015610e7f57600080fd5b505afa158015610e93573d6000803e3d6000fd5b505050506040513d601f19601f82011682018060405250810190610eb79190612e1b565b610f035760405162461bcd60e51b815260206004820152601c60248201527f4e6674206e6f7420617070726f76656420746f20636f6e7472616374000000006044820152606401610692565b8860008111610f245760405162461bcd60e51b815260040161069290612fca565b88610f605760405162461bcd60e51b815260206004820152600c60248201526b1e995c9bc81a5b9d985b1a5960a21b6044820152606401610692565b8e8e8e8e8e8e8e8e610f788888888888888888612361565b600780546001600160a01b038a811660008181526005602090815260408083208d84528252808320869055805180820182529384529083018c81526001860187559590915290517fa66cc928b5edb82af9bd49922954155ab7b0942694bea4ce44661d9a8736c688600290940293840180546001600160a01b031916919093161790915591517fa66cc928b5edb82af9bd49922954155ab7b0942694bea4ce44661d9a8736c68990910155517fecbc6a097da08dbf6f781ce204aad454ce3dc8f112c51c7a56f1671de89cee8c9061105d908a9033908b908b908b908b908b90612e56565b60405180910390a15050505050505050505050505050505050505050505050565b6001600160a01b03831660009081526001602081815260408084208685529091529091205484918491146110c45760405162461bcd60e51b815260040161069290612ff5565b6001600160a01b038581166000908152602081815260408083208884529091529020548691869116331461110a5760405162461bcd60e51b8152600401610692906130b7565b846000811161112b5760405162461bcd60e51b815260040161069290612fca565b6001600160a01b0388166000818152602081815260408083208b84528252918290206004018990558151928352820189905281018790527f575a0876095ccf47276a37dce683308a625403d132d219f95205ce205b2e12bc906060015b60405180910390a15050505050505050565b6001600160a01b03821660009081526003602090815260408083208484529091529020600101548290829042116112055760405162461bcd60e51b815260206004820152600f60248201526e105d58dd1a5bdb881b9bdd08195b99608a1b6044820152606401610692565b6001600160a01b038481166000908152600360209081526040808320878452909152902060050154163314156112765760405162461bcd60e51b81526020600482015260166024820152752cb7ba9030b932903434b3b432b9ba103134b23232b960511b6044820152606401610692565b6001600160a01b038416600090815260046020908152604080832086845282528083203384529091529020546112e45760405162461bcd60e51b81526020600482015260136024820152726e6f7468696e6720746f20776974686472617760681b6044820152606401610692565b6001600160a01b03841660008181526004602090815260408083208784528252808320338085529083528184209390935580519384529083018690528201527fde8cb9aa2c755cf75d5fbc4fec824b10e311652306f1fca5c8e57a04758b0aa79060600160405180910390a150505050565b6001600160a01b03821660009081526001602090815260408083208484529091529020548290829060021461139d5760405162461bcd60e51b815260040161069290613024565b6001600160a01b03841660009081526003602090815260408083208684529091529020600101548490849042116114085760405162461bcd60e51b815260206004820152600f60248201526e105d58dd1a5bdb881b9bdd08195b99608a1b6044820152606401610692565b6001600160a01b0386811660009081526003602081815260408084208a85529091529091206005810154910154911690611446908890889084612555565b6001600160a01b0380881660008181526004602090815260408083208b84528252808320948616835293815283822082905591815260058252828120898252909152205460078054909190811061149f5761149f61314a565b6000918252602080832060029290920290910180546001600160a01b03191681556001018290556001600160a01b03898116808452600380845260408086208c87528552948590209081015460069091015485519283529382018b90528583168286015260608201529116608082015290517fb31cb4f6609b11a57d1b6b14cc3f81f4b3e609f709a5b1e46892a45f9cc29ed89181900360a00190a150505050505050565b6001600160a01b038516600090815260016020818152604080842088855290915290912054869186911461158a5760405162461bcd60e51b815260040161069290612ff5565b84600081116115ab5760405162461bcd60e51b815260040161069290612fca565b6001600160a01b0388166000908152602081815260408083208a845290915290206004015488908890889088906115e39082906130fe565b8210156116295760405162461bcd60e51b81526020600482015260146024820152730c4eaf240a0e4d2c6ca40dcdee840cadcdeeaced60631b6044820152606401610692565b881580159061165c57506001600160a01b038c166000908152602081815260408083208e84529091529020600301548911155b6116b45760405162461bcd60e51b8152602060048201526024808201527f6e6f6e2d7a65726f2076616c7565206f7220616d6f756e74206e6f742067726560448201526330ba32b960e11b6064820152608401610692565b60008c905060008c9050816001600160a01b031663f242432a3033848f8f6040518663ffffffff1660e01b81526004016116f2959493929190612ebb565b600060405180830381600087803b15801561170c57600080fd5b505af1158015611720573d6000803e3d6000fd5b5050505061172f82828d61262d565b6001600160a01b0382811660009081526020818152604080832085845290915290208054600282015460049092015461177a939182169290911690611775908f906130fe565b612770565b604080516001600160a01b0384168152336020820152908101829052606081018d9052608081018c90527fb71c803b3dc073c348b9a8f845d03c3ffb6f423ea4a86e29fc5f5ca5a401c43a9060a00160405180910390a15050505050505050505050505050565b611844604051806101000160405280600081526020016000815260200160008152602001600081526020016000815260200160006001600160a01b0316815260200160006001600160a01b0316815260200160006001600160a01b031681525090565b506001600160a01b03918216600090815260036020818152604080842094845293815291839020835161010081018552815481526001820154938101939093526002810154938301939093528201546060820152600482015460808201526005820154831660a08201526006820154831660c082015260079091015490911660e082015290565b85846118d782826122d9565b6118f35760405162461bcd60e51b8152600401610692906130b7565b6001600160a01b0388166000908152600160209081526040808320898452909152902054889087901561195e5760405162461bcd60e51b81526020600482015260136024820152724e667420616c726561647920696e2073616c6560681b6044820152606401610692565b60405163e985e9c560e01b81523360048201523060248201528a9089906001600160a01b0383169063e985e9c59060440160206040518083038186803b1580156119a757600080fd5b505afa1580156119bb573d6000803e3d6000fd5b505050506040513d601f19601f820116820180604052508101906119df9190612e1b565b611a2b5760405162461bcd60e51b815260206004820152601c60248201527f4e6674206e6f7420617070726f76656420746f20636f6e7472616374000000006044820152606401610692565b8760008111611a4c5760405162461bcd60e51b815260040161069290612fca565b6040518060a00160405280336001600160a01b0316815260200160006001600160a01b031681526020018d6001600160a01b031681526020018b81526020018a8152506000808f6001600160a01b03166001600160a01b0316815260200190815260200160002060008d815260200190815260200160002060008201518160000160006101000a8154816001600160a01b0302191690836001600160a01b0316021790555060208201518160010160006101000a8154816001600160a01b0302191690836001600160a01b0316021790555060408201518160020160006101000a8154816001600160a01b0302191690836001600160a01b03160217905550606082015181600301556080820151816004015590505060018060008f6001600160a01b03166001600160a01b0316815260200190815260200160002060008d815260200190815260200160002081905550600680549050600260008f6001600160a01b03166001600160a01b0316815260200190815260200160002060008d815260200190815260200160002081905550600660405180604001604052808f6001600160a01b031681526020018d815250908060018154018082558091505060019003906000526020600020906002020160009091909190915060008201518160000160006101000a8154816001600160a01b0302191690836001600160a01b031602179055506020820151816001015550508c6001600160a01b031663f242432a33308e8e8d6040518663ffffffff1660e01b8152600401611c93959493929190612ebb565b600060405180830381600087803b158015611cad57600080fd5b505af1158015611cc1573d6000803e3d6000fd5b505050507f938b2f79c6d40413c38c16569ce7d13d8fb10b1b1f5d6f4b6448aeb9d7b189f38d338e8e8e8e42604051611d009796959493929190612e56565b60405180910390a150505050505050505050505050565b6040516323b872dd60e01b815260009084906001600160a01b038216906323b872dd906105ed908790732258c5b9c82ff0fa923756ed3fd2acb5616df57c908890600401612e97565b6001600160a01b0384166000908152600160208181526040808420878552909152909120548591859114611da65760405162461bcd60e51b815260040161069290612ff5565b6001600160a01b0386811660009081526020818152604080832089845290915290205487918791163314611dec5760405162461bcd60e51b8152600401610692906130b7565b604051637921219560e11b81526001600160a01b0389169063f242432a90611e2090339030908c908c908c90600401612ebb565b600060405180830381600087803b158015611e3a57600080fd5b505af1158015611e4e573d6000803e3d6000fd5b5050506001600160a01b03891660008181526001602090815260408083208c84528252808320839055928252600281528282208b835290522054600680549092508110611e9d57611e9d61314a565b60009182526020822060029091020180546001600160a01b0319168155600101556040517fd7348ff00cf381a884144b50b3441398a48a7974ec349287df80e18cec9f5a3190611188908a9033908b90612e97565b6001600160a01b038216600090815260016020908152604080832084845290915290205482908290600214611f395760405162461bcd60e51b815260040161069290613024565b6001600160a01b03848116600090815260036020908152604080832087845290915290206006015485918591163314611fa45760405162461bcd60e51b815260206004820152600d60248201526c3737ba1037333a1037bbb732b960991b6044820152606401610692565b6001600160a01b0386166000908152600360209081526040808320888452909152902060010154869086904210611fed5760405162461bcd60e51b815260040161069290613092565b6001600160a01b0380891660009081526003602090815260408083208b84529091529020600501548991899116156120525760405162461bcd60e51b8152602060048201526008602482015267626964206d616b6560c01b6044820152606401610692565b6001600160a01b038a1660008181526001602090815260408083208d84528252808320839055838352600382528083208d8452909152908190206004908101549151637921219560e11b81528d938d93909263f242432a926120bb923092339288929101612f3a565b600060405180830381600087803b1580156120d557600080fd5b505af11580156120e9573d6000803e3d6000fd5b5050506001600160a01b038d1660009081526005602090815260408083208f84529091529020546007805490925081106121255761212561314a565b6000918252602080832060029290920290910180546001600160a01b031916815560010191909155604080516001600160a01b038f1681529182018d905233908201527fb9d411977d4ee731f87bb8f16eb6f8c1fb579cff684642052bf6084e6e33238d9060600161097e565b606060068054806020026020016040519081016040528092919081815260200160009082821015610a00576000848152602090819020604080518082019091526002850290910180546001600160a01b031682526001908101548284015290835290920191016109b8565b6040516323b872dd60e01b81526001600160a01b038216906323b872dd9061222d90339030908790600401612e97565b602060405180830381600087803b15801561224757600080fd5b505af115801561225b573d6000803e3d6000fd5b505050506040513d601f19601f8201168201806040525081019061227f9190612e1b565b6122c25760405162461bcd60e51b81526020600482015260146024820152730c2d8d8deeec2dcc6ca40dcdee840cadcdeeaced60631b6044820152606401610692565b5050565b60006122d282846130e6565b9392505050565b604051627eeac760e11b8152336004820152602481018290526000906001600160a01b0384169062fdd58e9060440160206040518083038186803b15801561232057600080fd5b505afa158015612334573d6000803e3d6000fd5b505050506040513d601f19601f820116820180604052508101906123589190612e3d565b15159392505050565b60405180610100016040528086815260200185815260200184815260200184815260200183815260200160006001600160a01b03168152602001336001600160a01b03168152602001886001600160a01b0316815250600360008a6001600160a01b03166001600160a01b031681526020019081526020016000206000888152602001908152602001600020600082015181600001556020820151816001015560408201518160020155606082015181600301556080820151816004015560a08201518160050160006101000a8154816001600160a01b0302191690836001600160a01b0316021790555060c08201518160060160006101000a8154816001600160a01b0302191690836001600160a01b0316021790555060e08201518160070160006101000a8154816001600160a01b0302191690836001600160a01b031602179055509050506002600160008a6001600160a01b03166001600160a01b03168152602001908152602001600020600088815260200190815260200160002081905550876001600160a01b031663f242432a33308986866040518663ffffffff1660e01b8152600401612519959493929190612ebb565b600060405180830381600087803b15801561253357600080fd5b505af1158015612547573d6000803e3d6000fd5b505050505050505050505050565b6001600160a01b0384166000818152600360209081526040808320878452909152908190206004908101549151637921219560e11b815263f242432a926125a492309287928a92909101612f3a565b600060405180830381600087803b1580156125be57600080fd5b505af11580156125d2573d6000803e3d6000fd5b505050506001600160a01b038481166000818152600160209081526040808320888452825280832083905592825260038152828220878352905220600681015460079091015461262792918216911684612770565b50505050565b6001600160a01b0383166000908152602081815260408083208584529091529020600301548114156126fe576001600160a01b0383166000818152600160209081526040808320868452825280832083905592825260028152828220858352905220546006805490919081106126a5576126a561314a565b60009182526020808320600290920290910180546001600160a01b0319908116825560019182018490556001600160a01b0387168452838352604080852087865290935291909220909101805490911633179055505050565b6001600160a01b03831660009081526020818152604080832085845290915290206003015461272e90829061311d565b6001600160a01b0384166000908152602081815260408083208684529091529020600381019190915560010180546001600160a01b031916331790555b505050565b6001600160a01b0382161561278a5761276b838383612794565b61276b8382612859565b6040516323b872dd60e01b81526001600160a01b038316906323b872dd906127c490339087908690600401612e97565b602060405180830381600087803b1580156127de57600080fd5b505af11580156127f2573d6000803e3d6000fd5b505050506040513d601f19601f820116820180604052508101906128169190612e1b565b61276b5760405162461bcd60e51b81526020600482015260146024820152730c2d8d8deeec2dcc6ca40dcdee840cadcdeeaced60631b6044820152606401610692565b6000826001600160a01b03168260405160006040518083038185875af1925050503d80600081146128a6576040519150601f19603f3d011682016040523d82523d6000602084013e6128ab565b606091505b505090508061276b5760405162461bcd60e51b815260206004820152600d60248201526c1c99599d5b990819985a5b1959609a1b6044820152606401610692565b80356001600160a01b038116811461290357600080fd5b919050565b60008083601f84011261291a57600080fd5b50813567ffffffffffffffff81111561293257600080fd5b6020830191508360208260051b850101111561294d57600080fd5b9250929050565b60008083601f84011261296657600080fd5b50813567ffffffffffffffff81111561297e57600080fd5b60208301915083602082850101111561294d57600080fd5b600082601f8301126129a757600080fd5b813567ffffffffffffffff808211156129c2576129c2613160565b604051601f8301601f19908116603f011681019082821181831017156129ea576129ea613160565b81604052838152866020858801011115612a0357600080fd5b836020870160208301376000602085830101528094505050505092915050565b600060208284031215612a3557600080fd5b6122d2826128ec565b60008060008060008060008060a0898b031215612a5a57600080fd5b612a63896128ec565b9750612a7160208a016128ec565b9650604089013567ffffffffffffffff80821115612a8e57600080fd5b612a9a8c838d01612908565b909850965060608b0135915080821115612ab357600080fd5b612abf8c838d01612908565b909650945060808b0135915080821115612ad857600080fd5b50612ae58b828c01612954565b999c989b5096995094979396929594505050565b600080600060608486031215612b0e57600080fd5b612b17846128ec565b9250612b25602085016128ec565b9150604084013590509250925092565b60008060008060008060a08789031215612b4e57600080fd5b612b57876128ec565b9550612b65602088016128ec565b94506040870135935060608701359250608087013567ffffffffffffffff811115612b8f57600080fd5b612b9b89828a01612954565b979a9699509497509295939492505050565b60008060008060008060c08789031215612bc657600080fd5b612bcf876128ec565b9550612bdd602088016128ec565b945060408701359350606087013592506080870135915060a087013567ffffffffffffffff811115612c0e57600080fd5b612c1a89828a01612996565b9150509295509295509295565b600080600080600080600080610100898b031215612c4457600080fd5b612c4d896128ec565b9750612c5b60208a016128ec565b965060408901359550606089013594506080890135935060a0890135925060c0890135915060e089013567ffffffffffffffff811115612c9a57600080fd5b612ca68b828c01612996565b9150509295985092959890939650565b60008060408385031215612cc957600080fd5b612cd2836128ec565b946020939093013593505050565b600080600060608486031215612cf557600080fd5b612cfe846128ec565b925060208401359150612d13604085016128ec565b90509250925092565b600080600060608486031215612d3157600080fd5b612d3a846128ec565b95602085013595506040909401359392505050565b60008060008060808587031215612d6557600080fd5b612d6e856128ec565b93506020850135925060408501359150606085013567ffffffffffffffff811115612d9857600080fd5b612da487828801612996565b91505092959194509250565b600080600080600060a08688031215612dc857600080fd5b612dd1866128ec565b9450602086013593506040860135925060608601359150608086013567ffffffffffffffff811115612e0257600080fd5b612e0e88828901612996565b9150509295509295909350565b600060208284031215612e2d57600080fd5b815180151581146122d257600080fd5b600060208284031215612e4f57600080fd5b5051919050565b6001600160a01b03978816815295871660208701529390951660408501526060840191909152608083015260a082019290925260c081019190915260e00190565b6001600160a01b039384168152919092166020820152604081019190915260600190565b600060018060a01b03808816835260208188168185015286604085015285606085015260a06080850152845191508160a085015260005b82811015612f0e5785810182015185820160c001528101612ef2565b82811115612f2057600060c084870101525b5050601f01601f19169190910160c0019695505050505050565b6001600160a01b0394851681529290931660208301526040820152606081019190915260a06080820181905260009082015260c00190565b602080825282518282018190526000919060409081850190868401855b82811015612fbd57815180516001600160a01b03168552860151868501529284019290850190600101612f8f565b5091979650505050505050565b602080825260119082015270050726963652063616e6e6f74206265203607c1b604082015260600190565b6020808252601590820152744e6674206e6f7420696e2066697865642073616c6560581b604082015260600190565b60208082526017908201527f4e6674206e6f7420696e2061756374696f6e2073616c65000000000000000000604082015260600190565b6020808252601d908201527f4269642047726561746572207468616e2050726576696f757320426964000000604082015260600190565b6020808252600b908201526a105d58dd1a5bdb88195b9960aa1b604082015260600190565b6020808252601590820152742cb7ba9030b932903737ba1037333a1037bbb732b960591b604082015260600190565b600082198211156130f9576130f9613134565b500190565b600081600019048311821515161561311857613118613134565b500290565b60008282101561312f5761312f613134565b500390565b634e487b7160e01b600052601160045260246000fd5b634e487b7160e01b600052603260045260246000fd5b634e487b7160e01b600052604160045260246000fdfea264697066735822122017be7978601b486bb9783f9075b977e6a48c6cbe2f876df09ad3e34a626685c764736f6c63430008070033",
					"opcodes": "PUSH1 0x80 PUSH1 0x40 MSTORE CALLVALUE DUP1 ISZERO PUSH2 0x10 JUMPI PUSH1 0x0 DUP1 REVERT JUMPDEST POP PUSH2 0x31AC DUP1 PUSH2 0x20 PUSH1 0x0 CODECOPY PUSH1 0x0 RETURN INVALID PUSH1 0x80 PUSH1 0x40 MSTORE PUSH1 0x4 CALLDATASIZE LT PUSH2 0x138 JUMPI PUSH1 0x0 CALLDATALOAD PUSH1 0xE0 SHR DUP1 PUSH4 0x6F8C9B1B GT PUSH2 0xAB JUMPI DUP1 PUSH4 0x842BC46A GT PUSH2 0x6F JUMPI DUP1 PUSH4 0x842BC46A EQ PUSH2 0x3E7 JUMPI DUP1 PUSH4 0x8C3417DA EQ PUSH2 0x407 JUMPI DUP1 PUSH4 0x9B8CFE52 EQ PUSH2 0x4FF JUMPI DUP1 PUSH4 0x9F085A00 EQ PUSH2 0x533 JUMPI DUP1 PUSH4 0xBC197C81 EQ PUSH2 0x548 JUMPI DUP1 PUSH4 0xF23A6E61 EQ PUSH2 0x577 JUMPI PUSH1 0x0 DUP1 REVERT JUMPDEST DUP1 PUSH4 0x6F8C9B1B EQ PUSH2 0x2BC JUMPI DUP1 PUSH4 0x6FE02F24 EQ PUSH2 0x349 JUMPI DUP1 PUSH4 0x771B5788 EQ PUSH2 0x387 JUMPI DUP1 PUSH4 0x7AD47A21 EQ PUSH2 0x3A7 JUMPI DUP1 PUSH4 0x804E9F24 EQ PUSH2 0x3C7 JUMPI PUSH1 0x0 DUP1 REVERT JUMPDEST DUP1 PUSH4 0x423CDD4E GT PUSH2 0xFD JUMPI DUP1 PUSH4 0x423CDD4E EQ PUSH2 0x1E3 JUMPI DUP1 PUSH4 0x4676ADCA EQ PUSH2 0x203 JUMPI DUP1 PUSH4 0x4CB8EF5B EQ PUSH2 0x223 JUMPI DUP1 PUSH4 0x5138B08C EQ PUSH2 0x243 JUMPI DUP1 PUSH4 0x6916462F EQ PUSH2 0x263 JUMPI DUP1 PUSH4 0x6EB84994 EQ PUSH2 0x2A9 JUMPI PUSH1 0x0 DUP1 REVERT JUMPDEST DUP1 PUSH3 0xE2097C EQ PUSH2 0x144 JUMPI DUP1 PUSH4 0x1BDAE6F1 EQ PUSH2 0x179 JUMPI DUP1 PUSH4 0x1E7A044F EQ PUSH2 0x18E JUMPI DUP1 PUSH4 0x282E460A EQ PUSH2 0x1B0 JUMPI DUP1 PUSH4 0x3A713DB8 EQ PUSH2 0x1D0 JUMPI PUSH1 0x0 DUP1 REVERT JUMPDEST CALLDATASIZE PUSH2 0x13F JUMPI STOP JUMPDEST PUSH1 0x0 DUP1 REVERT JUMPDEST CALLVALUE DUP1 ISZERO PUSH2 0x150 JUMPI PUSH1 0x0 DUP1 REVERT JUMPDEST POP PUSH2 0x164 PUSH2 0x15F CALLDATASIZE PUSH1 0x4 PUSH2 0x2AF9 JUMP JUMPDEST PUSH2 0x5A4 JUMP JUMPDEST PUSH1 0x40 MLOAD SWAP1 ISZERO ISZERO DUP2 MSTORE PUSH1 0x20 ADD JUMPDEST PUSH1 0x40 MLOAD DUP1 SWAP2 SUB SWAP1 RETURN JUMPDEST PUSH2 0x18C PUSH2 0x187 CALLDATASIZE PUSH1 0x4 PUSH2 0x2D1C JUMP JUMPDEST PUSH2 0x64B JUMP JUMPDEST STOP JUMPDEST CALLVALUE DUP1 ISZERO PUSH2 0x19A JUMPI PUSH1 0x0 DUP1 REVERT JUMPDEST POP PUSH2 0x1A3 PUSH2 0x994 JUMP JUMPDEST PUSH1 0x40 MLOAD PUSH2 0x170 SWAP2 SWAP1 PUSH2 0x2F72 JUMP JUMPDEST CALLVALUE DUP1 ISZERO PUSH2 0x1BC JUMPI PUSH1 0x0 DUP1 REVERT JUMPDEST POP PUSH2 0x164 PUSH2 0x1CB CALLDATASIZE PUSH1 0x4 PUSH2 0x2A23 JUMP JUMPDEST PUSH2 0xA09 JUMP JUMPDEST PUSH2 0x18C PUSH2 0x1DE CALLDATASIZE PUSH1 0x4 PUSH2 0x2D1C JUMP JUMPDEST PUSH2 0xA90 JUMP JUMPDEST CALLVALUE DUP1 ISZERO PUSH2 0x1EF JUMPI PUSH1 0x0 DUP1 REVERT JUMPDEST POP PUSH2 0x18C PUSH2 0x1FE CALLDATASIZE PUSH1 0x4 PUSH2 0x2C27 JUMP JUMPDEST PUSH2 0xDA3 JUMP JUMPDEST CALLVALUE DUP1 ISZERO PUSH2 0x20F JUMPI PUSH1 0x0 DUP1 REVERT JUMPDEST POP PUSH2 0x18C PUSH2 0x21E CALLDATASIZE PUSH1 0x4 PUSH2 0x2D1C JUMP JUMPDEST PUSH2 0x107E JUMP JUMPDEST CALLVALUE DUP1 ISZERO PUSH2 0x22F JUMPI PUSH1 0x0 DUP1 REVERT JUMPDEST POP PUSH2 0x18C PUSH2 0x23E CALLDATASIZE PUSH1 0x4 PUSH2 0x2CB6 JUMP JUMPDEST PUSH2 0x119A JUMP JUMPDEST CALLVALUE DUP1 ISZERO PUSH2 0x24F JUMPI PUSH1 0x0 DUP1 REVERT JUMPDEST POP PUSH2 0x18C PUSH2 0x25E CALLDATASIZE PUSH1 0x4 PUSH2 0x2CB6 JUMP JUMPDEST PUSH2 0x1356 JUMP JUMPDEST CALLVALUE DUP1 ISZERO PUSH2 0x26F JUMPI PUSH1 0x0 DUP1 REVERT JUMPDEST POP PUSH2 0x29B PUSH2 0x27E CALLDATASIZE PUSH1 0x4 PUSH2 0x2CB6 JUMP JUMPDEST PUSH1 0x1 PUSH1 0x20 SWAP1 DUP2 MSTORE PUSH1 0x0 SWAP3 DUP4 MSTORE PUSH1 0x40 DUP1 DUP5 KECCAK256 SWAP1 SWAP2 MSTORE SWAP1 DUP3 MSTORE SWAP1 KECCAK256 SLOAD DUP2 JUMP JUMPDEST PUSH1 0x40 MLOAD SWAP1 DUP2 MSTORE PUSH1 0x20 ADD PUSH2 0x170 JUMP JUMPDEST PUSH2 0x18C PUSH2 0x2B7 CALLDATASIZE PUSH1 0x4 PUSH2 0x2DB0 JUMP JUMPDEST PUSH2 0x1544 JUMP JUMPDEST CALLVALUE DUP1 ISZERO PUSH2 0x2C8 JUMPI PUSH1 0x0 DUP1 REVERT JUMPDEST POP PUSH2 0x2DC PUSH2 0x2D7 CALLDATASIZE PUSH1 0x4 PUSH2 0x2CB6 JUMP JUMPDEST PUSH2 0x17E1 JUMP JUMPDEST PUSH1 0x40 MLOAD PUSH2 0x170 SWAP2 SWAP1 DUP2 MLOAD DUP2 MSTORE PUSH1 0x20 DUP1 DUP4 ADD MLOAD SWAP1 DUP3 ADD MSTORE PUSH1 0x40 DUP1 DUP4 ADD MLOAD SWAP1 DUP3 ADD MSTORE PUSH1 0x60 DUP1 DUP4 ADD MLOAD SWAP1 DUP3 ADD MSTORE PUSH1 0x80 DUP1 DUP4 ADD MLOAD SWAP1 DUP3 ADD MSTORE PUSH1 0xA0 DUP1 DUP4 ADD MLOAD PUSH1 0x1 PUSH1 0x1 PUSH1 0xA0 SHL SUB SWAP1 DUP2 AND SWAP2 DUP4 ADD SWAP2 SWAP1 SWAP2 MSTORE PUSH1 0xC0 DUP1 DUP5 ADD MLOAD DUP3 AND SWAP1 DUP4 ADD MSTORE PUSH1 0xE0 SWAP3 DUP4 ADD MLOAD AND SWAP2 DUP2 ADD SWAP2 SWAP1 SWAP2 MSTORE PUSH2 0x100 ADD SWAP1 JUMP JUMPDEST CALLVALUE DUP1 ISZERO PUSH2 0x355 JUMPI PUSH1 0x0 DUP1 REVERT JUMPDEST POP PUSH2 0x29B PUSH2 0x364 CALLDATASIZE PUSH1 0x4 PUSH2 0x2CE0 JUMP JUMPDEST PUSH1 0x4 PUSH1 0x20 SWAP1 DUP2 MSTORE PUSH1 0x0 SWAP4 DUP5 MSTORE PUSH1 0x40 DUP1 DUP6 KECCAK256 DUP3 MSTORE SWAP3 DUP5 MSTORE DUP3 DUP5 KECCAK256 SWAP1 MSTORE DUP3 MSTORE SWAP1 KECCAK256 SLOAD DUP2 JUMP JUMPDEST CALLVALUE DUP1 ISZERO PUSH2 0x393 JUMPI PUSH1 0x0 DUP1 REVERT JUMPDEST POP PUSH2 0x18C PUSH2 0x3A2 CALLDATASIZE PUSH1 0x4 PUSH2 0x2BAD JUMP JUMPDEST PUSH2 0x18CB JUMP JUMPDEST CALLVALUE DUP1 ISZERO PUSH2 0x3B3 JUMPI PUSH1 0x0 DUP1 REVERT JUMPDEST POP PUSH2 0x164 PUSH2 0x3C2 CALLDATASIZE PUSH1 0x4 PUSH2 0x2AF9 JUMP JUMPDEST PUSH2 0x1D17 JUMP JUMPDEST CALLVALUE DUP1 ISZERO PUSH2 0x3D3 JUMPI PUSH1 0x0 DUP1 REVERT JUMPDEST POP PUSH2 0x18C PUSH2 0x3E2 CALLDATASIZE PUSH1 0x4 PUSH2 0x2D4F JUMP JUMPDEST PUSH2 0x1D60 JUMP JUMPDEST CALLVALUE DUP1 ISZERO PUSH2 0x3F3 JUMPI PUSH1 0x0 DUP1 REVERT JUMPDEST POP PUSH2 0x18C PUSH2 0x402 CALLDATASIZE PUSH1 0x4 PUSH2 0x2CB6 JUMP JUMPDEST PUSH2 0x1EF2 JUMP JUMPDEST CALLVALUE DUP1 ISZERO PUSH2 0x413 JUMPI PUSH1 0x0 DUP1 REVERT JUMPDEST POP PUSH2 0x4B5 PUSH2 0x422 CALLDATASIZE PUSH1 0x4 PUSH2 0x2CB6 JUMP JUMPDEST PUSH1 0x40 DUP1 MLOAD PUSH1 0xA0 DUP2 ADD DUP3 MSTORE PUSH1 0x0 DUP1 DUP3 MSTORE PUSH1 0x20 DUP3 ADD DUP2 SWAP1 MSTORE SWAP2 DUP2 ADD DUP3 SWAP1 MSTORE PUSH1 0x60 DUP2 ADD DUP3 SWAP1 MSTORE PUSH1 0x80 DUP2 ADD SWAP2 SWAP1 SWAP2 MSTORE POP PUSH1 0x1 PUSH1 0x1 PUSH1 0xA0 SHL SUB SWAP2 DUP3 AND PUSH1 0x0 SWAP1 DUP2 MSTORE PUSH1 0x20 DUP2 DUP2 MSTORE PUSH1 0x40 DUP1 DUP4 KECCAK256 SWAP4 DUP4 MSTORE SWAP3 DUP2 MSTORE SWAP1 DUP3 SWAP1 KECCAK256 DUP3 MLOAD PUSH1 0xA0 DUP2 ADD DUP5 MSTORE DUP2 SLOAD DUP6 AND DUP2 MSTORE PUSH1 0x1 DUP3 ADD SLOAD DUP6 AND SWAP3 DUP2 ADD SWAP3 SWAP1 SWAP3 MSTORE PUSH1 0x2 DUP2 ADD SLOAD SWAP1 SWAP4 AND SWAP2 DUP2 ADD SWAP2 SWAP1 SWAP2 MSTORE PUSH1 0x3 DUP3 ADD SLOAD PUSH1 0x60 DUP3 ADD MSTORE PUSH1 0x4 SWAP1 SWAP2 ADD SLOAD PUSH1 0x80 DUP3 ADD MSTORE SWAP1 JUMP JUMPDEST PUSH1 0x40 DUP1 MLOAD DUP3 MLOAD PUSH1 0x1 PUSH1 0x1 PUSH1 0xA0 SHL SUB SWAP1 DUP2 AND DUP3 MSTORE PUSH1 0x20 DUP1 DUP6 ADD MLOAD DUP3 AND SWAP1 DUP4 ADD MSTORE DUP4 DUP4 ADD MLOAD AND SWAP2 DUP2 ADD SWAP2 SWAP1 SWAP2 MSTORE PUSH1 0x60 DUP1 DUP4 ADD MLOAD SWAP1 DUP3 ADD MSTORE PUSH1 0x80 SWAP2 DUP3 ADD MLOAD SWAP2 DUP2 ADD SWAP2 SWAP1 SWAP2 MSTORE PUSH1 0xA0 ADD PUSH2 0x170 JUMP JUMPDEST CALLVALUE DUP1 ISZERO PUSH2 0x50B JUMPI PUSH1 0x0 DUP1 REVERT JUMPDEST POP PUSH2 0x51A PUSH4 0x6CDB3D13 PUSH1 0xE1 SHL DUP2 JUMP JUMPDEST PUSH1 0x40 MLOAD PUSH1 0x1 PUSH1 0x1 PUSH1 0xE0 SHL SUB NOT SWAP1 SWAP2 AND DUP2 MSTORE PUSH1 0x20 ADD PUSH2 0x170 JUMP JUMPDEST CALLVALUE DUP1 ISZERO PUSH2 0x53F JUMPI PUSH1 0x0 DUP1 REVERT JUMPDEST POP PUSH2 0x1A3 PUSH2 0x2192 JUMP JUMPDEST CALLVALUE DUP1 ISZERO PUSH2 0x554 JUMPI PUSH1 0x0 DUP1 REVERT JUMPDEST POP PUSH2 0x51A PUSH2 0x563 CALLDATASIZE PUSH1 0x4 PUSH2 0x2A3E JUMP JUMPDEST PUSH4 0xBC197C81 PUSH1 0xE0 SHL SWAP9 SWAP8 POP POP POP POP POP POP POP POP JUMP JUMPDEST CALLVALUE DUP1 ISZERO PUSH2 0x583 JUMPI PUSH1 0x0 DUP1 REVERT JUMPDEST POP PUSH2 0x51A PUSH2 0x592 CALLDATASIZE PUSH1 0x4 PUSH2 0x2B35 JUMP JUMPDEST PUSH4 0xF23A6E61 PUSH1 0xE0 SHL SWAP7 SWAP6 POP POP POP POP POP POP JUMP JUMPDEST PUSH1 0x40 MLOAD PUSH4 0x23B872DD PUSH1 0xE0 SHL DUP2 MSTORE PUSH1 0x0 SWAP1 DUP5 SWAP1 PUSH1 0x1 PUSH1 0x1 PUSH1 0xA0 SHL SUB DUP3 AND SWAP1 PUSH4 0x23B872DD SWAP1 PUSH2 0x5ED SWAP1 PUSH20 0x2258C5B9C82FF0FA923756ED3FD2ACB5616DF57C SWAP1 DUP9 SWAP1 DUP9 SWAP1 PUSH1 0x4 ADD PUSH2 0x2E97 JUMP JUMPDEST PUSH1 0x20 PUSH1 0x40 MLOAD DUP1 DUP4 SUB DUP2 PUSH1 0x0 DUP8 DUP1 EXTCODESIZE ISZERO DUP1 ISZERO PUSH2 0x607 JUMPI PUSH1 0x0 DUP1 REVERT JUMPDEST POP GAS CALL ISZERO DUP1 ISZERO PUSH2 0x61B JUMPI RETURNDATASIZE PUSH1 0x0 DUP1 RETURNDATACOPY RETURNDATASIZE PUSH1 0x0 REVERT JUMPDEST POP POP POP POP PUSH1 0x40 MLOAD RETURNDATASIZE PUSH1 0x1F NOT PUSH1 0x1F DUP3 ADD AND DUP3 ADD DUP1 PUSH1 0x40 MSTORE POP DUP2 ADD SWAP1 PUSH2 0x63F SWAP2 SWAP1 PUSH2 0x2E1B JUMP JUMPDEST POP PUSH1 0x1 SWAP6 SWAP5 POP POP POP POP POP JUMP JUMPDEST PUSH1 0x1 PUSH1 0x1 PUSH1 0xA0 SHL SUB DUP4 AND PUSH1 0x0 SWAP1 DUP2 MSTORE PUSH1 0x1 PUSH1 0x20 SWAP1 DUP2 MSTORE PUSH1 0x40 DUP1 DUP4 KECCAK256 DUP6 DUP5 MSTORE SWAP1 SWAP2 MSTORE SWAP1 KECCAK256 SLOAD DUP4 SWAP1 DUP4 SWAP1 PUSH1 0x2 EQ PUSH2 0x69B JUMPI PUSH1 0x40 MLOAD PUSH3 0x461BCD PUSH1 0xE5 SHL DUP2 MSTORE PUSH1 0x4 ADD PUSH2 0x692 SWAP1 PUSH2 0x3024 JUMP JUMPDEST PUSH1 0x40 MLOAD DUP1 SWAP2 SUB SWAP1 REVERT JUMPDEST PUSH1 0x1 PUSH1 0x1 PUSH1 0xA0 SHL SUB DUP6 AND PUSH1 0x0 SWAP1 DUP2 MSTORE PUSH1 0x3 PUSH1 0x20 SWAP1 DUP2 MSTORE PUSH1 0x40 DUP1 DUP4 KECCAK256 DUP8 DUP5 MSTORE SWAP1 SWAP2 MSTORE SWAP1 KECCAK256 PUSH1 0x1 ADD SLOAD DUP6 SWAP1 DUP6 SWAP1 TIMESTAMP LT PUSH2 0x6E4 JUMPI PUSH1 0x40 MLOAD PUSH3 0x461BCD PUSH1 0xE5 SHL DUP2 MSTORE PUSH1 0x4 ADD PUSH2 0x692 SWAP1 PUSH2 0x3092 JUMP JUMPDEST DUP5 PUSH1 0x0 DUP2 GT PUSH2 0x705 JUMPI PUSH1 0x40 MLOAD PUSH3 0x461BCD PUSH1 0xE5 SHL DUP2 MSTORE PUSH1 0x4 ADD PUSH2 0x692 SWAP1 PUSH2 0x2FCA JUMP JUMPDEST PUSH1 0x1 PUSH1 0x1 PUSH1 0xA0 SHL SUB DUP1 DUP10 AND PUSH1 0x0 SWAP1 DUP2 MSTORE PUSH1 0x3 PUSH1 0x20 SWAP1 DUP2 MSTORE PUSH1 0x40 DUP1 DUP4 KECCAK256 DUP12 DUP5 MSTORE SWAP1 SWAP2 MSTORE SWAP1 KECCAK256 PUSH1 0x7 ADD SLOAD DUP10 SWAP2 DUP10 SWAP2 CALLVALUE SWAP2 DUP11 SWAP2 AND PUSH2 0x783 JUMPI PUSH1 0x1 PUSH1 0x1 PUSH1 0xA0 SHL SUB DUP5 AND PUSH1 0x0 SWAP1 DUP2 MSTORE PUSH1 0x3 PUSH1 0x20 DUP2 DUP2 MSTORE PUSH1 0x40 DUP1 DUP5 KECCAK256 DUP8 DUP6 MSTORE SWAP1 SWAP2 MSTORE SWAP1 SWAP2 KECCAK256 ADD SLOAD DUP3 GT PUSH2 0x77E JUMPI PUSH1 0x40 MLOAD PUSH3 0x461BCD PUSH1 0xE5 SHL DUP2 MSTORE PUSH1 0x4 ADD PUSH2 0x692 SWAP1 PUSH2 0x305B JUMP JUMPDEST PUSH2 0x7C7 JUMP JUMPDEST PUSH1 0x1 PUSH1 0x1 PUSH1 0xA0 SHL SUB DUP5 AND PUSH1 0x0 SWAP1 DUP2 MSTORE PUSH1 0x3 PUSH1 0x20 DUP2 DUP2 MSTORE PUSH1 0x40 DUP1 DUP5 KECCAK256 DUP8 DUP6 MSTORE SWAP1 SWAP2 MSTORE SWAP1 SWAP2 KECCAK256 ADD SLOAD DUP2 GT PUSH2 0x7C7 JUMPI PUSH1 0x40 MLOAD PUSH3 0x461BCD PUSH1 0xE5 SHL DUP2 MSTORE PUSH1 0x4 ADD PUSH2 0x692 SWAP1 PUSH2 0x305B JUMP JUMPDEST PUSH1 0x1 PUSH1 0x1 PUSH1 0xA0 SHL SUB DUP13 DUP2 AND PUSH1 0x0 SWAP1 DUP2 MSTORE PUSH1 0x3 PUSH1 0x20 SWAP1 DUP2 MSTORE PUSH1 0x40 DUP1 DUP4 KECCAK256 DUP16 DUP5 MSTORE SWAP1 SWAP2 MSTORE SWAP1 KECCAK256 PUSH1 0x7 ADD SLOAD AND ISZERO PUSH2 0x829 JUMPI PUSH1 0x1 PUSH1 0x1 PUSH1 0xA0 SHL SUB DUP1 DUP14 AND PUSH1 0x0 SWAP1 DUP2 MSTORE PUSH1 0x3 PUSH1 0x20 SWAP1 DUP2 MSTORE PUSH1 0x40 DUP1 DUP4 KECCAK256 DUP16 DUP5 MSTORE SWAP1 SWAP2 MSTORE SWAP1 KECCAK256 PUSH1 0x7 ADD SLOAD PUSH2 0x829 SWAP2 DUP13 SWAP2 AND PUSH2 0x21FD JUMP JUMPDEST DUP10 PUSH1 0x3 PUSH1 0x0 DUP15 PUSH1 0x1 PUSH1 0x1 PUSH1 0xA0 SHL SUB AND PUSH1 0x1 PUSH1 0x1 PUSH1 0xA0 SHL SUB AND DUP2 MSTORE PUSH1 0x20 ADD SWAP1 DUP2 MSTORE PUSH1 0x20 ADD PUSH1 0x0 KECCAK256 PUSH1 0x0 DUP14 DUP2 MSTORE PUSH1 0x20 ADD SWAP1 DUP2 MSTORE PUSH1 0x20 ADD PUSH1 0x0 KECCAK256 PUSH1 0x3 ADD DUP2 SWAP1 SSTORE POP CALLER PUSH1 0x3 PUSH1 0x0 DUP15 PUSH1 0x1 PUSH1 0x1 PUSH1 0xA0 SHL SUB AND PUSH1 0x1 PUSH1 0x1 PUSH1 0xA0 SHL SUB AND DUP2 MSTORE PUSH1 0x20 ADD SWAP1 DUP2 MSTORE PUSH1 0x20 ADD PUSH1 0x0 KECCAK256 PUSH1 0x0 DUP14 DUP2 MSTORE PUSH1 0x20 ADD SWAP1 DUP2 MSTORE PUSH1 0x20 ADD PUSH1 0x0 KECCAK256 PUSH1 0x5 ADD PUSH1 0x0 PUSH2 0x100 EXP DUP2 SLOAD DUP2 PUSH1 0x1 PUSH1 0x1 PUSH1 0xA0 SHL SUB MUL NOT AND SWAP1 DUP4 PUSH1 0x1 PUSH1 0x1 PUSH1 0xA0 SHL SUB AND MUL OR SWAP1 SSTORE POP DUP10 PUSH1 0x4 PUSH1 0x0 DUP15 PUSH1 0x1 PUSH1 0x1 PUSH1 0xA0 SHL SUB AND PUSH1 0x1 PUSH1 0x1 PUSH1 0xA0 SHL SUB AND DUP2 MSTORE PUSH1 0x20 ADD SWAP1 DUP2 MSTORE PUSH1 0x20 ADD PUSH1 0x0 KECCAK256 PUSH1 0x0 DUP14 DUP2 MSTORE PUSH1 0x20 ADD SWAP1 DUP2 MSTORE PUSH1 0x20 ADD PUSH1 0x0 KECCAK256 PUSH1 0x0 CALLER PUSH1 0x1 PUSH1 0x1 PUSH1 0xA0 SHL SUB AND PUSH1 0x1 PUSH1 0x1 PUSH1 0xA0 SHL SUB AND DUP2 MSTORE PUSH1 0x20 ADD SWAP1 DUP2 MSTORE PUSH1 0x20 ADD PUSH1 0x0 KECCAK256 DUP2 SWAP1 SSTORE POP PUSH32 0xD56CB6210C78740462007B728932C802BC41B205ED5C8A98AB95421EAF054B22 DUP13 DUP13 DUP13 CALLER PUSH1 0x40 MLOAD PUSH2 0x97E SWAP5 SWAP4 SWAP3 SWAP2 SWAP1 PUSH1 0x1 PUSH1 0x1 PUSH1 0xA0 SHL SUB SWAP5 DUP6 AND DUP2 MSTORE PUSH1 0x20 DUP2 ADD SWAP4 SWAP1 SWAP4 MSTORE PUSH1 0x40 DUP4 ADD SWAP2 SWAP1 SWAP2 MSTORE SWAP1 SWAP2 AND PUSH1 0x60 DUP3 ADD MSTORE PUSH1 0x80 ADD SWAP1 JUMP JUMPDEST PUSH1 0x40 MLOAD DUP1 SWAP2 SUB SWAP1 LOG1 POP POP POP POP POP POP POP POP POP POP POP POP JUMP JUMPDEST PUSH1 0x60 PUSH1 0x7 DUP1 SLOAD DUP1 PUSH1 0x20 MUL PUSH1 0x20 ADD PUSH1 0x40 MLOAD SWAP1 DUP2 ADD PUSH1 0x40 MSTORE DUP1 SWAP3 SWAP2 SWAP1 DUP2 DUP2 MSTORE PUSH1 0x20 ADD PUSH1 0x0 SWAP1 JUMPDEST DUP3 DUP3 LT ISZERO PUSH2 0xA00 JUMPI PUSH1 0x0 DUP5 DUP2 MSTORE PUSH1 0x20 SWAP1 DUP2 SWAP1 KECCAK256 PUSH1 0x40 DUP1 MLOAD DUP1 DUP3 ADD SWAP1 SWAP2 MSTORE PUSH1 0x2 DUP6 MUL SWAP1 SWAP2 ADD DUP1 SLOAD PUSH1 0x1 PUSH1 0x1 PUSH1 0xA0 SHL SUB AND DUP3 MSTORE PUSH1 0x1 SWAP1 DUP2 ADD SLOAD DUP3 DUP5 ADD MSTORE SWAP1 DUP4 MSTORE SWAP1 SWAP3 ADD SWAP2 ADD PUSH2 0x9B8 JUMP JUMPDEST POP POP POP POP SWAP1 POP SWAP1 JUMP JUMPDEST PUSH1 0x40 MLOAD PUSH4 0x1FFC9A7 PUSH1 0xE0 SHL DUP2 MSTORE PUSH4 0x6CDB3D13 PUSH1 0xE1 SHL PUSH1 0x4 DUP3 ADD MSTORE PUSH1 0x0 SWAP1 PUSH1 0x1 PUSH1 0x1 PUSH1 0xA0 SHL SUB DUP4 AND SWAP1 PUSH4 0x1FFC9A7 SWAP1 PUSH1 0x24 ADD PUSH1 0x20 PUSH1 0x40 MLOAD DUP1 DUP4 SUB DUP2 DUP7 DUP1 EXTCODESIZE ISZERO DUP1 ISZERO PUSH2 0xA52 JUMPI PUSH1 0x0 DUP1 REVERT JUMPDEST POP GAS STATICCALL ISZERO DUP1 ISZERO PUSH2 0xA66 JUMPI RETURNDATASIZE PUSH1 0x0 DUP1 RETURNDATACOPY RETURNDATASIZE PUSH1 0x0 REVERT JUMPDEST POP POP POP POP PUSH1 0x40 MLOAD RETURNDATASIZE PUSH1 0x1F NOT PUSH1 0x1F DUP3 ADD AND DUP3 ADD DUP1 PUSH1 0x40 MSTORE POP DUP2 ADD SWAP1 PUSH2 0xA8A SWAP2 SWAP1 PUSH2 0x2E1B JUMP JUMPDEST SWAP3 SWAP2 POP POP JUMP JUMPDEST PUSH1 0x1 PUSH1 0x1 PUSH1 0xA0 SHL SUB DUP4 AND PUSH1 0x0 SWAP1 DUP2 MSTORE PUSH1 0x1 PUSH1 0x20 SWAP1 DUP2 MSTORE PUSH1 0x40 DUP1 DUP4 KECCAK256 DUP6 DUP5 MSTORE SWAP1 SWAP2 MSTORE SWAP1 KECCAK256 SLOAD DUP4 SWAP1 DUP4 SWAP1 PUSH1 0x2 EQ PUSH2 0xAD7 JUMPI PUSH1 0x40 MLOAD PUSH3 0x461BCD PUSH1 0xE5 SHL DUP2 MSTORE PUSH1 0x4 ADD PUSH2 0x692 SWAP1 PUSH2 0x3024 JUMP JUMPDEST PUSH1 0x1 PUSH1 0x1 PUSH1 0xA0 SHL SUB DUP6 AND PUSH1 0x0 SWAP1 DUP2 MSTORE PUSH1 0x3 PUSH1 0x20 SWAP1 DUP2 MSTORE PUSH1 0x40 DUP1 DUP4 KECCAK256 DUP8 DUP5 MSTORE SWAP1 SWAP2 MSTORE SWAP1 KECCAK256 PUSH1 0x1 ADD SLOAD DUP6 SWAP1 DUP6 SWAP1 TIMESTAMP LT PUSH2 0xB20 JUMPI PUSH1 0x40 MLOAD PUSH3 0x461BCD PUSH1 0xE5 SHL DUP2 MSTORE PUSH1 0x4 ADD PUSH2 0x692 SWAP1 PUSH2 0x3092 JUMP JUMPDEST CALLVALUE PUSH1 0x0 DUP2 GT PUSH2 0xB41 JUMPI PUSH1 0x40 MLOAD PUSH3 0x461BCD PUSH1 0xE5 SHL DUP2 MSTORE PUSH1 0x4 ADD PUSH2 0x692 SWAP1 PUSH2 0x2FCA JUMP JUMPDEST PUSH1 0x1 PUSH1 0x1 PUSH1 0xA0 SHL SUB DUP1 DUP10 AND PUSH1 0x0 SWAP1 DUP2 MSTORE PUSH1 0x3 PUSH1 0x20 SWAP1 DUP2 MSTORE PUSH1 0x40 DUP1 DUP4 KECCAK256 DUP12 DUP5 MSTORE SWAP1 SWAP2 MSTORE DUP2 KECCAK256 PUSH1 0x7 ADD SLOAD DUP11 SWAP3 DUP11 SWAP3 CALLVALUE SWAP3 DUP12 SWAP3 AND PUSH2 0xBB3 JUMPI PUSH1 0x1 PUSH1 0x1 PUSH1 0xA0 SHL SUB DUP6 AND PUSH1 0x0 SWAP1 DUP2 MSTORE PUSH1 0x4 PUSH1 0x20 SWAP1 DUP2 MSTORE PUSH1 0x40 DUP1 DUP4 KECCAK256 DUP8 DUP5 MSTORE DUP3 MSTORE DUP1 DUP4 KECCAK256 CALLER DUP5 MSTORE SWAP1 SWAP2 MSTORE SWAP1 KECCAK256 SLOAD PUSH2 0xBAC SWAP1 DUP5 PUSH2 0x22C6 JUMP JUMPDEST SWAP1 POP PUSH2 0xBEC JUMP JUMPDEST PUSH1 0x1 PUSH1 0x1 PUSH1 0xA0 SHL SUB DUP6 AND PUSH1 0x0 SWAP1 DUP2 MSTORE PUSH1 0x4 PUSH1 0x20 SWAP1 DUP2 MSTORE PUSH1 0x40 DUP1 DUP4 KECCAK256 DUP8 DUP5 MSTORE DUP3 MSTORE DUP1 DUP4 KECCAK256 CALLER DUP5 MSTORE SWAP1 SWAP2 MSTORE SWAP1 KECCAK256 SLOAD PUSH2 0xBE9 SWAP1 DUP4 PUSH2 0x22C6 JUMP JUMPDEST SWAP1 POP JUMPDEST PUSH1 0x1 PUSH1 0x1 PUSH1 0xA0 SHL SUB DUP6 AND PUSH1 0x0 SWAP1 DUP2 MSTORE PUSH1 0x3 PUSH1 0x20 DUP2 DUP2 MSTORE PUSH1 0x40 DUP1 DUP5 KECCAK256 DUP9 DUP6 MSTORE SWAP1 SWAP2 MSTORE SWAP1 SWAP2 KECCAK256 ADD SLOAD DUP2 GT PUSH2 0xC30 JUMPI PUSH1 0x40 MLOAD PUSH3 0x461BCD PUSH1 0xE5 SHL DUP2 MSTORE PUSH1 0x4 ADD PUSH2 0x692 SWAP1 PUSH2 0x305B JUMP JUMPDEST PUSH1 0x1 PUSH1 0x1 PUSH1 0xA0 SHL SUB DUP14 AND PUSH1 0x0 SWAP1 DUP2 MSTORE PUSH1 0x4 PUSH1 0x20 SWAP1 DUP2 MSTORE PUSH1 0x40 DUP1 DUP4 KECCAK256 DUP16 DUP5 MSTORE DUP3 MSTORE DUP1 DUP4 KECCAK256 CALLER DUP5 MSTORE SWAP1 SWAP2 MSTORE DUP2 KECCAK256 SLOAD DUP15 SWAP2 DUP15 SWAP2 PUSH2 0xC6A SWAP1 DUP16 PUSH2 0x22C6 JUMP JUMPDEST PUSH1 0x1 PUSH1 0x1 PUSH1 0xA0 SHL SUB DUP5 DUP2 AND PUSH1 0x0 SWAP1 DUP2 MSTORE PUSH1 0x3 PUSH1 0x20 SWAP1 DUP2 MSTORE PUSH1 0x40 DUP1 DUP4 KECCAK256 DUP8 DUP5 MSTORE SWAP1 SWAP2 MSTORE SWAP1 KECCAK256 PUSH1 0x7 ADD SLOAD SWAP2 SWAP3 POP AND ISZERO PUSH2 0xCF1 JUMPI PUSH2 0xCF1 DUP15 PUSH1 0x3 PUSH1 0x0 DUP7 PUSH1 0x1 PUSH1 0x1 PUSH1 0xA0 SHL SUB AND PUSH1 0x1 PUSH1 0x1 PUSH1 0xA0 SHL SUB AND DUP2 MSTORE PUSH1 0x20 ADD SWAP1 DUP2 MSTORE PUSH1 0x20 ADD PUSH1 0x0 KECCAK256 PUSH1 0x0 DUP6 DUP2 MSTORE PUSH1 0x20 ADD SWAP1 DUP2 MSTORE PUSH1 0x20 ADD PUSH1 0x0 KECCAK256 PUSH1 0x7 ADD PUSH1 0x0 SWAP1 SLOAD SWAP1 PUSH2 0x100 EXP SWAP1 DIV PUSH1 0x1 PUSH1 0x1 PUSH1 0xA0 SHL SUB AND PUSH2 0x21FD JUMP JUMPDEST PUSH1 0x1 PUSH1 0x1 PUSH1 0xA0 SHL SUB DUP4 AND PUSH1 0x0 DUP2 DUP2 MSTORE PUSH1 0x3 PUSH1 0x20 DUP2 DUP2 MSTORE PUSH1 0x40 DUP1 DUP5 KECCAK256 DUP8 DUP6 MSTORE DUP3 MSTORE DUP1 DUP5 KECCAK256 SWAP3 DUP4 ADD DUP7 SWAP1 SSTORE PUSH1 0x5 SWAP1 SWAP3 ADD DUP1 SLOAD PUSH1 0x1 PUSH1 0x1 PUSH1 0xA0 SHL SUB NOT AND CALLER SWAP1 DUP2 OR SWAP1 SWAP2 SSTORE DUP5 DUP5 MSTORE PUSH1 0x4 DUP3 MSTORE DUP3 DUP5 KECCAK256 DUP8 DUP6 MSTORE DUP3 MSTORE DUP3 DUP5 KECCAK256 DUP2 DUP6 MSTORE DUP3 MSTORE SWAP3 DUP3 SWAP1 KECCAK256 DUP6 SWAP1 SSTORE DUP2 MLOAD SWAP4 DUP5 MSTORE DUP4 ADD DUP6 SWAP1 MSTORE DUP3 ADD DUP4 SWAP1 MSTORE PUSH1 0x60 DUP3 ADD MSTORE PUSH32 0x907CDADC7C1A8ABCDD80CDD85EB18377631E4F413FB6397A8252FF7B358AC6CB SWAP1 PUSH1 0x80 ADD PUSH1 0x40 MLOAD DUP1 SWAP2 SUB SWAP1 LOG1 POP POP POP POP POP POP POP POP POP POP POP POP POP POP POP POP JUMP JUMPDEST DUP8 DUP7 PUSH2 0xDAF DUP3 DUP3 PUSH2 0x22D9 JUMP JUMPDEST PUSH2 0xDCB JUMPI PUSH1 0x40 MLOAD PUSH3 0x461BCD PUSH1 0xE5 SHL DUP2 MSTORE PUSH1 0x4 ADD PUSH2 0x692 SWAP1 PUSH2 0x30B7 JUMP JUMPDEST PUSH1 0x1 PUSH1 0x1 PUSH1 0xA0 SHL SUB DUP11 AND PUSH1 0x0 SWAP1 DUP2 MSTORE PUSH1 0x1 PUSH1 0x20 SWAP1 DUP2 MSTORE PUSH1 0x40 DUP1 DUP4 KECCAK256 DUP12 DUP5 MSTORE SWAP1 SWAP2 MSTORE SWAP1 KECCAK256 SLOAD DUP11 SWAP1 DUP10 SWAP1 ISZERO PUSH2 0xE36 JUMPI PUSH1 0x40 MLOAD PUSH3 0x461BCD PUSH1 0xE5 SHL DUP2 MSTORE PUSH1 0x20 PUSH1 0x4 DUP3 ADD MSTORE PUSH1 0x13 PUSH1 0x24 DUP3 ADD MSTORE PUSH19 0x4E667420616C726561647920696E2073616C65 PUSH1 0x68 SHL PUSH1 0x44 DUP3 ADD MSTORE PUSH1 0x64 ADD PUSH2 0x692 JUMP JUMPDEST PUSH1 0x40 MLOAD PUSH4 0xE985E9C5 PUSH1 0xE0 SHL DUP2 MSTORE CALLER PUSH1 0x4 DUP3 ADD MSTORE ADDRESS PUSH1 0x24 DUP3 ADD MSTORE DUP13 SWAP1 DUP12 SWAP1 PUSH1 0x1 PUSH1 0x1 PUSH1 0xA0 SHL SUB DUP4 AND SWAP1 PUSH4 0xE985E9C5 SWAP1 PUSH1 0x44 ADD PUSH1 0x20 PUSH1 0x40 MLOAD DUP1 DUP4 SUB DUP2 DUP7 DUP1 EXTCODESIZE ISZERO DUP1 ISZERO PUSH2 0xE7F JUMPI PUSH1 0x0 DUP1 REVERT JUMPDEST POP GAS STATICCALL ISZERO DUP1 ISZERO PUSH2 0xE93 JUMPI RETURNDATASIZE PUSH1 0x0 DUP1 RETURNDATACOPY RETURNDATASIZE PUSH1 0x0 REVERT JUMPDEST POP POP POP POP PUSH1 0x40 MLOAD RETURNDATASIZE PUSH1 0x1F NOT PUSH1 0x1F DUP3 ADD AND DUP3 ADD DUP1 PUSH1 0x40 MSTORE POP DUP2 ADD SWAP1 PUSH2 0xEB7 SWAP2 SWAP1 PUSH2 0x2E1B JUMP JUMPDEST PUSH2 0xF03 JUMPI PUSH1 0x40 MLOAD PUSH3 0x461BCD PUSH1 0xE5 SHL DUP2 MSTORE PUSH1 0x20 PUSH1 0x4 DUP3 ADD MSTORE PUSH1 0x1C PUSH1 0x24 DUP3 ADD MSTORE PUSH32 0x4E6674206E6F7420617070726F76656420746F20636F6E747261637400000000 PUSH1 0x44 DUP3 ADD MSTORE PUSH1 0x64 ADD PUSH2 0x692 JUMP JUMPDEST DUP9 PUSH1 0x0 DUP2 GT PUSH2 0xF24 JUMPI PUSH1 0x40 MLOAD PUSH3 0x461BCD PUSH1 0xE5 SHL DUP2 MSTORE PUSH1 0x4 ADD PUSH2 0x692 SWAP1 PUSH2 0x2FCA JUMP JUMPDEST DUP9 PUSH2 0xF60 JUMPI PUSH1 0x40 MLOAD PUSH3 0x461BCD PUSH1 0xE5 SHL DUP2 MSTORE PUSH1 0x20 PUSH1 0x4 DUP3 ADD MSTORE PUSH1 0xC PUSH1 0x24 DUP3 ADD MSTORE PUSH12 0x1E995C9BC81A5B9D985B1A59 PUSH1 0xA2 SHL PUSH1 0x44 DUP3 ADD MSTORE PUSH1 0x64 ADD PUSH2 0x692 JUMP JUMPDEST DUP15 DUP15 DUP15 DUP15 DUP15 DUP15 DUP15 DUP15 PUSH2 0xF78 DUP9 DUP9 DUP9 DUP9 DUP9 DUP9 DUP9 DUP9 PUSH2 0x2361 JUMP JUMPDEST PUSH1 0x7 DUP1 SLOAD PUSH1 0x1 PUSH1 0x1 PUSH1 0xA0 SHL SUB DUP11 DUP2 AND PUSH1 0x0 DUP2 DUP2 MSTORE PUSH1 0x5 PUSH1 0x20 SWAP1 DUP2 MSTORE PUSH1 0x40 DUP1 DUP4 KECCAK256 DUP14 DUP5 MSTORE DUP3 MSTORE DUP1 DUP4 KECCAK256 DUP7 SWAP1 SSTORE DUP1 MLOAD DUP1 DUP3 ADD DUP3 MSTORE SWAP4 DUP5 MSTORE SWAP1 DUP4 ADD DUP13 DUP2 MSTORE PUSH1 0x1 DUP7 ADD DUP8 SSTORE SWAP6 SWAP1 SWAP2 MSTORE SWAP1 MLOAD PUSH32 0xA66CC928B5EDB82AF9BD49922954155AB7B0942694BEA4CE44661D9A8736C688 PUSH1 0x2 SWAP1 SWAP5 MUL SWAP4 DUP5 ADD DUP1 SLOAD PUSH1 0x1 PUSH1 0x1 PUSH1 0xA0 SHL SUB NOT AND SWAP2 SWAP1 SWAP4 AND OR SWAP1 SWAP2 SSTORE SWAP2 MLOAD PUSH32 0xA66CC928B5EDB82AF9BD49922954155AB7B0942694BEA4CE44661D9A8736C689 SWAP1 SWAP2 ADD SSTORE MLOAD PUSH32 0xECBC6A097DA08DBF6F781CE204AAD454CE3DC8F112C51C7A56F1671DE89CEE8C SWAP1 PUSH2 0x105D SWAP1 DUP11 SWAP1 CALLER SWAP1 DUP12 SWAP1 DUP12 SWAP1 DUP12 SWAP1 DUP12 SWAP1 DUP12 SWAP1 PUSH2 0x2E56 JUMP JUMPDEST PUSH1 0x40 MLOAD DUP1 SWAP2 SUB SWAP1 LOG1 POP POP POP POP POP POP POP POP POP POP POP POP POP POP POP POP POP POP POP POP POP POP POP JUMP JUMPDEST PUSH1 0x1 PUSH1 0x1 PUSH1 0xA0 SHL SUB DUP4 AND PUSH1 0x0 SWAP1 DUP2 MSTORE PUSH1 0x1 PUSH1 0x20 DUP2 DUP2 MSTORE PUSH1 0x40 DUP1 DUP5 KECCAK256 DUP7 DUP6 MSTORE SWAP1 SWAP2 MSTORE SWAP1 SWAP2 KECCAK256 SLOAD DUP5 SWAP2 DUP5 SWAP2 EQ PUSH2 0x10C4 JUMPI PUSH1 0x40 MLOAD PUSH3 0x461BCD PUSH1 0xE5 SHL DUP2 MSTORE PUSH1 0x4 ADD PUSH2 0x692 SWAP1 PUSH2 0x2FF5 JUMP JUMPDEST PUSH1 0x1 PUSH1 0x1 PUSH1 0xA0 SHL SUB DUP6 DUP2 AND PUSH1 0x0 SWAP1 DUP2 MSTORE PUSH1 0x20 DUP2 DUP2 MSTORE PUSH1 0x40 DUP1 DUP4 KECCAK256 DUP9 DUP5 MSTORE SWAP1 SWAP2 MSTORE SWAP1 KECCAK256 SLOAD DUP7 SWAP2 DUP7 SWAP2 AND CALLER EQ PUSH2 0x110A JUMPI PUSH1 0x40 MLOAD PUSH3 0x461BCD PUSH1 0xE5 SHL DUP2 MSTORE PUSH1 0x4 ADD PUSH2 0x692 SWAP1 PUSH2 0x30B7 JUMP JUMPDEST DUP5 PUSH1 0x0 DUP2 GT PUSH2 0x112B JUMPI PUSH1 0x40 MLOAD PUSH3 0x461BCD PUSH1 0xE5 SHL DUP2 MSTORE PUSH1 0x4 ADD PUSH2 0x692 SWAP1 PUSH2 0x2FCA JUMP JUMPDEST PUSH1 0x1 PUSH1 0x1 PUSH1 0xA0 SHL SUB DUP9 AND PUSH1 0x0 DUP2 DUP2 MSTORE PUSH1 0x20 DUP2 DUP2 MSTORE PUSH1 0x40 DUP1 DUP4 KECCAK256 DUP12 DUP5 MSTORE DUP3 MSTORE SWAP2 DUP3 SWAP1 KECCAK256 PUSH1 0x4 ADD DUP10 SWAP1 SSTORE DUP2 MLOAD SWAP3 DUP4 MSTORE DUP3 ADD DUP10 SWAP1 MSTORE DUP2 ADD DUP8 SWAP1 MSTORE PUSH32 0x575A0876095CCF47276A37DCE683308A625403D132D219F95205CE205B2E12BC SWAP1 PUSH1 0x60 ADD JUMPDEST PUSH1 0x40 MLOAD DUP1 SWAP2 SUB SWAP1 LOG1 POP POP POP POP POP POP POP POP JUMP JUMPDEST PUSH1 0x1 PUSH1 0x1 PUSH1 0xA0 SHL SUB DUP3 AND PUSH1 0x0 SWAP1 DUP2 MSTORE PUSH1 0x3 PUSH1 0x20 SWAP1 DUP2 MSTORE PUSH1 0x40 DUP1 DUP4 KECCAK256 DUP5 DUP5 MSTORE SWAP1 SWAP2 MSTORE SWAP1 KECCAK256 PUSH1 0x1 ADD SLOAD DUP3 SWAP1 DUP3 SWAP1 TIMESTAMP GT PUSH2 0x1205 JUMPI PUSH1 0x40 MLOAD PUSH3 0x461BCD PUSH1 0xE5 SHL DUP2 MSTORE PUSH1 0x20 PUSH1 0x4 DUP3 ADD MSTORE PUSH1 0xF PUSH1 0x24 DUP3 ADD MSTORE PUSH15 0x105D58DD1A5BDB881B9BDD08195B99 PUSH1 0x8A SHL PUSH1 0x44 DUP3 ADD MSTORE PUSH1 0x64 ADD PUSH2 0x692 JUMP JUMPDEST PUSH1 0x1 PUSH1 0x1 PUSH1 0xA0 SHL SUB DUP5 DUP2 AND PUSH1 0x0 SWAP1 DUP2 MSTORE PUSH1 0x3 PUSH1 0x20 SWAP1 DUP2 MSTORE PUSH1 0x40 DUP1 DUP4 KECCAK256 DUP8 DUP5 MSTORE SWAP1 SWAP2 MSTORE SWAP1 KECCAK256 PUSH1 0x5 ADD SLOAD AND CALLER EQ ISZERO PUSH2 0x1276 JUMPI PUSH1 0x40 MLOAD PUSH3 0x461BCD PUSH1 0xE5 SHL DUP2 MSTORE PUSH1 0x20 PUSH1 0x4 DUP3 ADD MSTORE PUSH1 0x16 PUSH1 0x24 DUP3 ADD MSTORE PUSH22 0x2CB7BA9030B932903434B3B432B9BA103134B23232B9 PUSH1 0x51 SHL PUSH1 0x44 DUP3 ADD MSTORE PUSH1 0x64 ADD PUSH2 0x692 JUMP JUMPDEST PUSH1 0x1 PUSH1 0x1 PUSH1 0xA0 SHL SUB DUP5 AND PUSH1 0x0 SWAP1 DUP2 MSTORE PUSH1 0x4 PUSH1 0x20 SWAP1 DUP2 MSTORE PUSH1 0x40 DUP1 DUP4 KECCAK256 DUP7 DUP5 MSTORE DUP3 MSTORE DUP1 DUP4 KECCAK256 CALLER DUP5 MSTORE SWAP1 SWAP2 MSTORE SWAP1 KECCAK256 SLOAD PUSH2 0x12E4 JUMPI PUSH1 0x40 MLOAD PUSH3 0x461BCD PUSH1 0xE5 SHL DUP2 MSTORE PUSH1 0x20 PUSH1 0x4 DUP3 ADD MSTORE PUSH1 0x13 PUSH1 0x24 DUP3 ADD MSTORE PUSH19 0x6E6F7468696E6720746F207769746864726177 PUSH1 0x68 SHL PUSH1 0x44 DUP3 ADD MSTORE PUSH1 0x64 ADD PUSH2 0x692 JUMP JUMPDEST PUSH1 0x1 PUSH1 0x1 PUSH1 0xA0 SHL SUB DUP5 AND PUSH1 0x0 DUP2 DUP2 MSTORE PUSH1 0x4 PUSH1 0x20 SWAP1 DUP2 MSTORE PUSH1 0x40 DUP1 DUP4 KECCAK256 DUP8 DUP5 MSTORE DUP3 MSTORE DUP1 DUP4 KECCAK256 CALLER DUP1 DUP6 MSTORE SWAP1 DUP4 MSTORE DUP2 DUP5 KECCAK256 SWAP4 SWAP1 SWAP4 SSTORE DUP1 MLOAD SWAP4 DUP5 MSTORE SWAP1 DUP4 ADD DUP7 SWAP1 MSTORE DUP3 ADD MSTORE PUSH32 0xDE8CB9AA2C755CF75D5FBC4FEC824B10E311652306F1FCA5C8E57A04758B0AA7 SWAP1 PUSH1 0x60 ADD PUSH1 0x40 MLOAD DUP1 SWAP2 SUB SWAP1 LOG1 POP POP POP POP JUMP JUMPDEST PUSH1 0x1 PUSH1 0x1 PUSH1 0xA0 SHL SUB DUP3 AND PUSH1 0x0 SWAP1 DUP2 MSTORE PUSH1 0x1 PUSH1 0x20 SWAP1 DUP2 MSTORE PUSH1 0x40 DUP1 DUP4 KECCAK256 DUP5 DUP5 MSTORE SWAP1 SWAP2 MSTORE SWAP1 KECCAK256 SLOAD DUP3 SWAP1 DUP3 SWAP1 PUSH1 0x2 EQ PUSH2 0x139D JUMPI PUSH1 0x40 MLOAD PUSH3 0x461BCD PUSH1 0xE5 SHL DUP2 MSTORE PUSH1 0x4 ADD PUSH2 0x692 SWAP1 PUSH2 0x3024 JUMP JUMPDEST PUSH1 0x1 PUSH1 0x1 PUSH1 0xA0 SHL SUB DUP5 AND PUSH1 0x0 SWAP1 DUP2 MSTORE PUSH1 0x3 PUSH1 0x20 SWAP1 DUP2 MSTORE PUSH1 0x40 DUP1 DUP4 KECCAK256 DUP7 DUP5 MSTORE SWAP1 SWAP2 MSTORE SWAP1 KECCAK256 PUSH1 0x1 ADD SLOAD DUP5 SWAP1 DUP5 SWAP1 TIMESTAMP GT PUSH2 0x1408 JUMPI PUSH1 0x40 MLOAD PUSH3 0x461BCD PUSH1 0xE5 SHL DUP2 MSTORE PUSH1 0x20 PUSH1 0x4 DUP3 ADD MSTORE PUSH1 0xF PUSH1 0x24 DUP3 ADD MSTORE PUSH15 0x105D58DD1A5BDB881B9BDD08195B99 PUSH1 0x8A SHL PUSH1 0x44 DUP3 ADD MSTORE PUSH1 0x64 ADD PUSH2 0x692 JUMP JUMPDEST PUSH1 0x1 PUSH1 0x1 PUSH1 0xA0 SHL SUB DUP7 DUP2 AND PUSH1 0x0 SWAP1 DUP2 MSTORE PUSH1 0x3 PUSH1 0x20 DUP2 DUP2 MSTORE PUSH1 0x40 DUP1 DUP5 KECCAK256 DUP11 DUP6 MSTORE SWAP1 SWAP2 MSTORE SWAP1 SWAP2 KECCAK256 PUSH1 0x5 DUP2 ADD SLOAD SWAP2 ADD SLOAD SWAP2 AND SWAP1 PUSH2 0x1446 SWAP1 DUP9 SWAP1 DUP9 SWAP1 DUP5 PUSH2 0x2555 JUMP JUMPDEST PUSH1 0x1 PUSH1 0x1 PUSH1 0xA0 SHL SUB DUP1 DUP9 AND PUSH1 0x0 DUP2 DUP2 MSTORE PUSH1 0x4 PUSH1 0x20 SWAP1 DUP2 MSTORE PUSH1 0x40 DUP1 DUP4 KECCAK256 DUP12 DUP5 MSTORE DUP3 MSTORE DUP1 DUP4 KECCAK256 SWAP5 DUP7 AND DUP4 MSTORE SWAP4 DUP2 MSTORE DUP4 DUP3 KECCAK256 DUP3 SWAP1 SSTORE SWAP2 DUP2 MSTORE PUSH1 0x5 DUP3 MSTORE DUP3 DUP2 KECCAK256 DUP10 DUP3 MSTORE SWAP1 SWAP2 MSTORE KECCAK256 SLOAD PUSH1 0x7 DUP1 SLOAD SWAP1 SWAP2 SWAP1 DUP2 LT PUSH2 0x149F JUMPI PUSH2 0x149F PUSH2 0x314A JUMP JUMPDEST PUSH1 0x0 SWAP2 DUP3 MSTORE PUSH1 0x20 DUP1 DUP4 KECCAK256 PUSH1 0x2 SWAP3 SWAP1 SWAP3 MUL SWAP1 SWAP2 ADD DUP1 SLOAD PUSH1 0x1 PUSH1 0x1 PUSH1 0xA0 SHL SUB NOT AND DUP2 SSTORE PUSH1 0x1 ADD DUP3 SWAP1 SSTORE PUSH1 0x1 PUSH1 0x1 PUSH1 0xA0 SHL SUB DUP10 DUP2 AND DUP1 DUP5 MSTORE PUSH1 0x3 DUP1 DUP5 MSTORE PUSH1 0x40 DUP1 DUP7 KECCAK256 DUP13 DUP8 MSTORE DUP6 MSTORE SWAP5 DUP6 SWAP1 KECCAK256 SWAP1 DUP2 ADD SLOAD PUSH1 0x6 SWAP1 SWAP2 ADD SLOAD DUP6 MLOAD SWAP3 DUP4 MSTORE SWAP4 DUP3 ADD DUP12 SWAP1 MSTORE DUP6 DUP4 AND DUP3 DUP7 ADD MSTORE PUSH1 0x60 DUP3 ADD MSTORE SWAP2 AND PUSH1 0x80 DUP3 ADD MSTORE SWAP1 MLOAD PUSH32 0xB31CB4F6609B11A57D1B6B14CC3F81F4B3E609F709A5B1E46892A45F9CC29ED8 SWAP2 DUP2 SWAP1 SUB PUSH1 0xA0 ADD SWAP1 LOG1 POP POP POP POP POP POP POP JUMP JUMPDEST PUSH1 0x1 PUSH1 0x1 PUSH1 0xA0 SHL SUB DUP6 AND PUSH1 0x0 SWAP1 DUP2 MSTORE PUSH1 0x1 PUSH1 0x20 DUP2 DUP2 MSTORE PUSH1 0x40 DUP1 DUP5 KECCAK256 DUP9 DUP6 MSTORE SWAP1 SWAP2 MSTORE SWAP1 SWAP2 KECCAK256 SLOAD DUP7 SWAP2 DUP7 SWAP2 EQ PUSH2 0x158A JUMPI PUSH1 0x40 MLOAD PUSH3 0x461BCD PUSH1 0xE5 SHL DUP2 MSTORE PUSH1 0x4 ADD PUSH2 0x692 SWAP1 PUSH2 0x2FF5 JUMP JUMPDEST DUP5 PUSH1 0x0 DUP2 GT PUSH2 0x15AB JUMPI PUSH1 0x40 MLOAD PUSH3 0x461BCD PUSH1 0xE5 SHL DUP2 MSTORE PUSH1 0x4 ADD PUSH2 0x692 SWAP1 PUSH2 0x2FCA JUMP JUMPDEST PUSH1 0x1 PUSH1 0x1 PUSH1 0xA0 SHL SUB DUP9 AND PUSH1 0x0 SWAP1 DUP2 MSTORE PUSH1 0x20 DUP2 DUP2 MSTORE PUSH1 0x40 DUP1 DUP4 KECCAK256 DUP11 DUP5 MSTORE SWAP1 SWAP2 MSTORE SWAP1 KECCAK256 PUSH1 0x4 ADD SLOAD DUP9 SWAP1 DUP9 SWAP1 DUP9 SWAP1 DUP9 SWAP1 PUSH2 0x15E3 SWAP1 DUP3 SWAP1 PUSH2 0x30FE JUMP JUMPDEST DUP3 LT ISZERO PUSH2 0x1629 JUMPI PUSH1 0x40 MLOAD PUSH3 0x461BCD PUSH1 0xE5 SHL DUP2 MSTORE PUSH1 0x20 PUSH1 0x4 DUP3 ADD MSTORE PUSH1 0x14 PUSH1 0x24 DUP3 ADD MSTORE PUSH20 0xC4EAF240A0E4D2C6CA40DCDEE840CADCDEEACED PUSH1 0x63 SHL PUSH1 0x44 DUP3 ADD MSTORE PUSH1 0x64 ADD PUSH2 0x692 JUMP JUMPDEST DUP9 ISZERO DUP1 ISZERO SWAP1 PUSH2 0x165C JUMPI POP PUSH1 0x1 PUSH1 0x1 PUSH1 0xA0 SHL SUB DUP13 AND PUSH1 0x0 SWAP1 DUP2 MSTORE PUSH1 0x20 DUP2 DUP2 MSTORE PUSH1 0x40 DUP1 DUP4 KECCAK256 DUP15 DUP5 MSTORE SWAP1 SWAP2 MSTORE SWAP1 KECCAK256 PUSH1 0x3 ADD SLOAD DUP10 GT ISZERO JUMPDEST PUSH2 0x16B4 JUMPI PUSH1 0x40 MLOAD PUSH3 0x461BCD PUSH1 0xE5 SHL DUP2 MSTORE PUSH1 0x20 PUSH1 0x4 DUP3 ADD MSTORE PUSH1 0x24 DUP1 DUP3 ADD MSTORE PUSH32 0x6E6F6E2D7A65726F2076616C7565206F7220616D6F756E74206E6F7420677265 PUSH1 0x44 DUP3 ADD MSTORE PUSH4 0x30BA32B9 PUSH1 0xE1 SHL PUSH1 0x64 DUP3 ADD MSTORE PUSH1 0x84 ADD PUSH2 0x692 JUMP JUMPDEST PUSH1 0x0 DUP13 SWAP1 POP PUSH1 0x0 DUP13 SWAP1 POP DUP2 PUSH1 0x1 PUSH1 0x1 PUSH1 0xA0 SHL SUB AND PUSH4 0xF242432A ADDRESS CALLER DUP5 DUP16 DUP16 PUSH1 0x40 MLOAD DUP7 PUSH4 0xFFFFFFFF AND PUSH1 0xE0 SHL DUP2 MSTORE PUSH1 0x4 ADD PUSH2 0x16F2 SWAP6 SWAP5 SWAP4 SWAP3 SWAP2 SWAP1 PUSH2 0x2EBB JUMP JUMPDEST PUSH1 0x0 PUSH1 0x40 MLOAD DUP1 DUP4 SUB DUP2 PUSH1 0x0 DUP8 DUP1 EXTCODESIZE ISZERO DUP1 ISZERO PUSH2 0x170C JUMPI PUSH1 0x0 DUP1 REVERT JUMPDEST POP GAS CALL ISZERO DUP1 ISZERO PUSH2 0x1720 JUMPI RETURNDATASIZE PUSH1 0x0 DUP1 RETURNDATACOPY RETURNDATASIZE PUSH1 0x0 REVERT JUMPDEST POP POP POP POP PUSH2 0x172F DUP3 DUP3 DUP14 PUSH2 0x262D JUMP JUMPDEST PUSH1 0x1 PUSH1 0x1 PUSH1 0xA0 SHL SUB DUP3 DUP2 AND PUSH1 0x0 SWAP1 DUP2 MSTORE PUSH1 0x20 DUP2 DUP2 MSTORE PUSH1 0x40 DUP1 DUP4 KECCAK256 DUP6 DUP5 MSTORE SWAP1 SWAP2 MSTORE SWAP1 KECCAK256 DUP1 SLOAD PUSH1 0x2 DUP3 ADD SLOAD PUSH1 0x4 SWAP1 SWAP3 ADD SLOAD PUSH2 0x177A SWAP4 SWAP2 DUP3 AND SWAP3 SWAP1 SWAP2 AND SWAP1 PUSH2 0x1775 SWAP1 DUP16 SWAP1 PUSH2 0x30FE JUMP JUMPDEST PUSH2 0x2770 JUMP JUMPDEST PUSH1 0x40 DUP1 MLOAD PUSH1 0x1 PUSH1 0x1 PUSH1 0xA0 SHL SUB DUP5 AND DUP2 MSTORE CALLER PUSH1 0x20 DUP3 ADD MSTORE SWAP1 DUP2 ADD DUP3 SWAP1 MSTORE PUSH1 0x60 DUP2 ADD DUP14 SWAP1 MSTORE PUSH1 0x80 DUP2 ADD DUP13 SWAP1 MSTORE PUSH32 0xB71C803B3DC073C348B9A8F845D03C3FFB6F423EA4A86E29FC5F5CA5A401C43A SWAP1 PUSH1 0xA0 ADD PUSH1 0x40 MLOAD DUP1 SWAP2 SUB SWAP1 LOG1 POP POP POP POP POP POP POP POP POP POP POP POP POP POP JUMP JUMPDEST PUSH2 0x1844 PUSH1 0x40 MLOAD DUP1 PUSH2 0x100 ADD PUSH1 0x40 MSTORE DUP1 PUSH1 0x0 DUP2 MSTORE PUSH1 0x20 ADD PUSH1 0x0 DUP2 MSTORE PUSH1 0x20 ADD PUSH1 0x0 DUP2 MSTORE PUSH1 0x20 ADD PUSH1 0x0 DUP2 MSTORE PUSH1 0x20 ADD PUSH1 0x0 DUP2 MSTORE PUSH1 0x20 ADD PUSH1 0x0 PUSH1 0x1 PUSH1 0x1 PUSH1 0xA0 SHL SUB AND DUP2 MSTORE PUSH1 0x20 ADD PUSH1 0x0 PUSH1 0x1 PUSH1 0x1 PUSH1 0xA0 SHL SUB AND DUP2 MSTORE PUSH1 0x20 ADD PUSH1 0x0 PUSH1 0x1 PUSH1 0x1 PUSH1 0xA0 SHL SUB AND DUP2 MSTORE POP SWAP1 JUMP JUMPDEST POP PUSH1 0x1 PUSH1 0x1 PUSH1 0xA0 SHL SUB SWAP2 DUP3 AND PUSH1 0x0 SWAP1 DUP2 MSTORE PUSH1 0x3 PUSH1 0x20 DUP2 DUP2 MSTORE PUSH1 0x40 DUP1 DUP5 KECCAK256 SWAP5 DUP5 MSTORE SWAP4 DUP2 MSTORE SWAP2 DUP4 SWAP1 KECCAK256 DUP4 MLOAD PUSH2 0x100 DUP2 ADD DUP6 MSTORE DUP2 SLOAD DUP2 MSTORE PUSH1 0x1 DUP3 ADD SLOAD SWAP4 DUP2 ADD SWAP4 SWAP1 SWAP4 MSTORE PUSH1 0x2 DUP2 ADD SLOAD SWAP4 DUP4 ADD SWAP4 SWAP1 SWAP4 MSTORE DUP3 ADD SLOAD PUSH1 0x60 DUP3 ADD MSTORE PUSH1 0x4 DUP3 ADD SLOAD PUSH1 0x80 DUP3 ADD MSTORE PUSH1 0x5 DUP3 ADD SLOAD DUP4 AND PUSH1 0xA0 DUP3 ADD MSTORE PUSH1 0x6 DUP3 ADD SLOAD DUP4 AND PUSH1 0xC0 DUP3 ADD MSTORE PUSH1 0x7 SWAP1 SWAP2 ADD SLOAD SWAP1 SWAP2 AND PUSH1 0xE0 DUP3 ADD MSTORE SWAP1 JUMP JUMPDEST DUP6 DUP5 PUSH2 0x18D7 DUP3 DUP3 PUSH2 0x22D9 JUMP JUMPDEST PUSH2 0x18F3 JUMPI PUSH1 0x40 MLOAD PUSH3 0x461BCD PUSH1 0xE5 SHL DUP2 MSTORE PUSH1 0x4 ADD PUSH2 0x692 SWAP1 PUSH2 0x30B7 JUMP JUMPDEST PUSH1 0x1 PUSH1 0x1 PUSH1 0xA0 SHL SUB DUP9 AND PUSH1 0x0 SWAP1 DUP2 MSTORE PUSH1 0x1 PUSH1 0x20 SWAP1 DUP2 MSTORE PUSH1 0x40 DUP1 DUP4 KECCAK256 DUP10 DUP5 MSTORE SWAP1 SWAP2 MSTORE SWAP1 KECCAK256 SLOAD DUP9 SWAP1 DUP8 SWAP1 ISZERO PUSH2 0x195E JUMPI PUSH1 0x40 MLOAD PUSH3 0x461BCD PUSH1 0xE5 SHL DUP2 MSTORE PUSH1 0x20 PUSH1 0x4 DUP3 ADD MSTORE PUSH1 0x13 PUSH1 0x24 DUP3 ADD MSTORE PUSH19 0x4E667420616C726561647920696E2073616C65 PUSH1 0x68 SHL PUSH1 0x44 DUP3 ADD MSTORE PUSH1 0x64 ADD PUSH2 0x692 JUMP JUMPDEST PUSH1 0x40 MLOAD PUSH4 0xE985E9C5 PUSH1 0xE0 SHL DUP2 MSTORE CALLER PUSH1 0x4 DUP3 ADD MSTORE ADDRESS PUSH1 0x24 DUP3 ADD MSTORE DUP11 SWAP1 DUP10 SWAP1 PUSH1 0x1 PUSH1 0x1 PUSH1 0xA0 SHL SUB DUP4 AND SWAP1 PUSH4 0xE985E9C5 SWAP1 PUSH1 0x44 ADD PUSH1 0x20 PUSH1 0x40 MLOAD DUP1 DUP4 SUB DUP2 DUP7 DUP1 EXTCODESIZE ISZERO DUP1 ISZERO PUSH2 0x19A7 JUMPI PUSH1 0x0 DUP1 REVERT JUMPDEST POP GAS STATICCALL ISZERO DUP1 ISZERO PUSH2 0x19BB JUMPI RETURNDATASIZE PUSH1 0x0 DUP1 RETURNDATACOPY RETURNDATASIZE PUSH1 0x0 REVERT JUMPDEST POP POP POP POP PUSH1 0x40 MLOAD RETURNDATASIZE PUSH1 0x1F NOT PUSH1 0x1F DUP3 ADD AND DUP3 ADD DUP1 PUSH1 0x40 MSTORE POP DUP2 ADD SWAP1 PUSH2 0x19DF SWAP2 SWAP1 PUSH2 0x2E1B JUMP JUMPDEST PUSH2 0x1A2B JUMPI PUSH1 0x40 MLOAD PUSH3 0x461BCD PUSH1 0xE5 SHL DUP2 MSTORE PUSH1 0x20 PUSH1 0x4 DUP3 ADD MSTORE PUSH1 0x1C PUSH1 0x24 DUP3 ADD MSTORE PUSH32 0x4E6674206E6F7420617070726F76656420746F20636F6E747261637400000000 PUSH1 0x44 DUP3 ADD MSTORE PUSH1 0x64 ADD PUSH2 0x692 JUMP JUMPDEST DUP8 PUSH1 0x0 DUP2 GT PUSH2 0x1A4C JUMPI PUSH1 0x40 MLOAD PUSH3 0x461BCD PUSH1 0xE5 SHL DUP2 MSTORE PUSH1 0x4 ADD PUSH2 0x692 SWAP1 PUSH2 0x2FCA JUMP JUMPDEST PUSH1 0x40 MLOAD DUP1 PUSH1 0xA0 ADD PUSH1 0x40 MSTORE DUP1 CALLER PUSH1 0x1 PUSH1 0x1 PUSH1 0xA0 SHL SUB AND DUP2 MSTORE PUSH1 0x20 ADD PUSH1 0x0 PUSH1 0x1 PUSH1 0x1 PUSH1 0xA0 SHL SUB AND DUP2 MSTORE PUSH1 0x20 ADD DUP14 PUSH1 0x1 PUSH1 0x1 PUSH1 0xA0 SHL SUB AND DUP2 MSTORE PUSH1 0x20 ADD DUP12 DUP2 MSTORE PUSH1 0x20 ADD DUP11 DUP2 MSTORE POP PUSH1 0x0 DUP1 DUP16 PUSH1 0x1 PUSH1 0x1 PUSH1 0xA0 SHL SUB AND PUSH1 0x1 PUSH1 0x1 PUSH1 0xA0 SHL SUB AND DUP2 MSTORE PUSH1 0x20 ADD SWAP1 DUP2 MSTORE PUSH1 0x20 ADD PUSH1 0x0 KECCAK256 PUSH1 0x0 DUP14 DUP2 MSTORE PUSH1 0x20 ADD SWAP1 DUP2 MSTORE PUSH1 0x20 ADD PUSH1 0x0 KECCAK256 PUSH1 0x0 DUP3 ADD MLOAD DUP2 PUSH1 0x0 ADD PUSH1 0x0 PUSH2 0x100 EXP DUP2 SLOAD DUP2 PUSH1 0x1 PUSH1 0x1 PUSH1 0xA0 SHL SUB MUL NOT AND SWAP1 DUP4 PUSH1 0x1 PUSH1 0x1 PUSH1 0xA0 SHL SUB AND MUL OR SWAP1 SSTORE POP PUSH1 0x20 DUP3 ADD MLOAD DUP2 PUSH1 0x1 ADD PUSH1 0x0 PUSH2 0x100 EXP DUP2 SLOAD DUP2 PUSH1 0x1 PUSH1 0x1 PUSH1 0xA0 SHL SUB MUL NOT AND SWAP1 DUP4 PUSH1 0x1 PUSH1 0x1 PUSH1 0xA0 SHL SUB AND MUL OR SWAP1 SSTORE POP PUSH1 0x40 DUP3 ADD MLOAD DUP2 PUSH1 0x2 ADD PUSH1 0x0 PUSH2 0x100 EXP DUP2 SLOAD DUP2 PUSH1 0x1 PUSH1 0x1 PUSH1 0xA0 SHL SUB MUL NOT AND SWAP1 DUP4 PUSH1 0x1 PUSH1 0x1 PUSH1 0xA0 SHL SUB AND MUL OR SWAP1 SSTORE POP PUSH1 0x60 DUP3 ADD MLOAD DUP2 PUSH1 0x3 ADD SSTORE PUSH1 0x80 DUP3 ADD MLOAD DUP2 PUSH1 0x4 ADD SSTORE SWAP1 POP POP PUSH1 0x1 DUP1 PUSH1 0x0 DUP16 PUSH1 0x1 PUSH1 0x1 PUSH1 0xA0 SHL SUB AND PUSH1 0x1 PUSH1 0x1 PUSH1 0xA0 SHL SUB AND DUP2 MSTORE PUSH1 0x20 ADD SWAP1 DUP2 MSTORE PUSH1 0x20 ADD PUSH1 0x0 KECCAK256 PUSH1 0x0 DUP14 DUP2 MSTORE PUSH1 0x20 ADD SWAP1 DUP2 MSTORE PUSH1 0x20 ADD PUSH1 0x0 KECCAK256 DUP2 SWAP1 SSTORE POP PUSH1 0x6 DUP1 SLOAD SWAP1 POP PUSH1 0x2 PUSH1 0x0 DUP16 PUSH1 0x1 PUSH1 0x1 PUSH1 0xA0 SHL SUB AND PUSH1 0x1 PUSH1 0x1 PUSH1 0xA0 SHL SUB AND DUP2 MSTORE PUSH1 0x20 ADD SWAP1 DUP2 MSTORE PUSH1 0x20 ADD PUSH1 0x0 KECCAK256 PUSH1 0x0 DUP14 DUP2 MSTORE PUSH1 0x20 ADD SWAP1 DUP2 MSTORE PUSH1 0x20 ADD PUSH1 0x0 KECCAK256 DUP2 SWAP1 SSTORE POP PUSH1 0x6 PUSH1 0x40 MLOAD DUP1 PUSH1 0x40 ADD PUSH1 0x40 MSTORE DUP1 DUP16 PUSH1 0x1 PUSH1 0x1 PUSH1 0xA0 SHL SUB AND DUP2 MSTORE PUSH1 0x20 ADD DUP14 DUP2 MSTORE POP SWAP1 DUP1 PUSH1 0x1 DUP2 SLOAD ADD DUP1 DUP3 SSTORE DUP1 SWAP2 POP POP PUSH1 0x1 SWAP1 SUB SWAP1 PUSH1 0x0 MSTORE PUSH1 0x20 PUSH1 0x0 KECCAK256 SWAP1 PUSH1 0x2 MUL ADD PUSH1 0x0 SWAP1 SWAP2 SWAP1 SWAP2 SWAP1 SWAP2 POP PUSH1 0x0 DUP3 ADD MLOAD DUP2 PUSH1 0x0 ADD PUSH1 0x0 PUSH2 0x100 EXP DUP2 SLOAD DUP2 PUSH1 0x1 PUSH1 0x1 PUSH1 0xA0 SHL SUB MUL NOT AND SWAP1 DUP4 PUSH1 0x1 PUSH1 0x1 PUSH1 0xA0 SHL SUB AND MUL OR SWAP1 SSTORE POP PUSH1 0x20 DUP3 ADD MLOAD DUP2 PUSH1 0x1 ADD SSTORE POP POP DUP13 PUSH1 0x1 PUSH1 0x1 PUSH1 0xA0 SHL SUB AND PUSH4 0xF242432A CALLER ADDRESS DUP15 DUP15 DUP14 PUSH1 0x40 MLOAD DUP7 PUSH4 0xFFFFFFFF AND PUSH1 0xE0 SHL DUP2 MSTORE PUSH1 0x4 ADD PUSH2 0x1C93 SWAP6 SWAP5 SWAP4 SWAP3 SWAP2 SWAP1 PUSH2 0x2EBB JUMP JUMPDEST PUSH1 0x0 PUSH1 0x40 MLOAD DUP1 DUP4 SUB DUP2 PUSH1 0x0 DUP8 DUP1 EXTCODESIZE ISZERO DUP1 ISZERO PUSH2 0x1CAD JUMPI PUSH1 0x0 DUP1 REVERT JUMPDEST POP GAS CALL ISZERO DUP1 ISZERO PUSH2 0x1CC1 JUMPI RETURNDATASIZE PUSH1 0x0 DUP1 RETURNDATACOPY RETURNDATASIZE PUSH1 0x0 REVERT JUMPDEST POP POP POP POP PUSH32 0x938B2F79C6D40413C38C16569CE7D13D8FB10B1B1F5D6F4B6448AEB9D7B189F3 DUP14 CALLER DUP15 DUP15 DUP15 DUP15 TIMESTAMP PUSH1 0x40 MLOAD PUSH2 0x1D00 SWAP8 SWAP7 SWAP6 SWAP5 SWAP4 SWAP3 SWAP2 SWAP1 PUSH2 0x2E56 JUMP JUMPDEST PUSH1 0x40 MLOAD DUP1 SWAP2 SUB SWAP1 LOG1 POP POP POP POP POP POP POP POP POP POP POP POP POP JUMP JUMPDEST PUSH1 0x40 MLOAD PUSH4 0x23B872DD PUSH1 0xE0 SHL DUP2 MSTORE PUSH1 0x0 SWAP1 DUP5 SWAP1 PUSH1 0x1 PUSH1 0x1 PUSH1 0xA0 SHL SUB DUP3 AND SWAP1 PUSH4 0x23B872DD SWAP1 PUSH2 0x5ED SWAP1 DUP8 SWAP1 PUSH20 0x2258C5B9C82FF0FA923756ED3FD2ACB5616DF57C SWAP1 DUP9 SWAP1 PUSH1 0x4 ADD PUSH2 0x2E97 JUMP JUMPDEST PUSH1 0x1 PUSH1 0x1 PUSH1 0xA0 SHL SUB DUP5 AND PUSH1 0x0 SWAP1 DUP2 MSTORE PUSH1 0x1 PUSH1 0x20 DUP2 DUP2 MSTORE PUSH1 0x40 DUP1 DUP5 KECCAK256 DUP8 DUP6 MSTORE SWAP1 SWAP2 MSTORE SWAP1 SWAP2 KECCAK256 SLOAD DUP6 SWAP2 DUP6 SWAP2 EQ PUSH2 0x1DA6 JUMPI PUSH1 0x40 MLOAD PUSH3 0x461BCD PUSH1 0xE5 SHL DUP2 MSTORE PUSH1 0x4 ADD PUSH2 0x692 SWAP1 PUSH2 0x2FF5 JUMP JUMPDEST PUSH1 0x1 PUSH1 0x1 PUSH1 0xA0 SHL SUB DUP7 DUP2 AND PUSH1 0x0 SWAP1 DUP2 MSTORE PUSH1 0x20 DUP2 DUP2 MSTORE PUSH1 0x40 DUP1 DUP4 KECCAK256 DUP10 DUP5 MSTORE SWAP1 SWAP2 MSTORE SWAP1 KECCAK256 SLOAD DUP8 SWAP2 DUP8 SWAP2 AND CALLER EQ PUSH2 0x1DEC JUMPI PUSH1 0x40 MLOAD PUSH3 0x461BCD PUSH1 0xE5 SHL DUP2 MSTORE PUSH1 0x4 ADD PUSH2 0x692 SWAP1 PUSH2 0x30B7 JUMP JUMPDEST PUSH1 0x40 MLOAD PUSH4 0x79212195 PUSH1 0xE1 SHL DUP2 MSTORE PUSH1 0x1 PUSH1 0x1 PUSH1 0xA0 SHL SUB DUP10 AND SWAP1 PUSH4 0xF242432A SWAP1 PUSH2 0x1E20 SWAP1 CALLER SWAP1 ADDRESS SWAP1 DUP13 SWAP1 DUP13 SWAP1 DUP13 SWAP1 PUSH1 0x4 ADD PUSH2 0x2EBB JUMP JUMPDEST PUSH1 0x0 PUSH1 0x40 MLOAD DUP1 DUP4 SUB DUP2 PUSH1 0x0 DUP8 DUP1 EXTCODESIZE ISZERO DUP1 ISZERO PUSH2 0x1E3A JUMPI PUSH1 0x0 DUP1 REVERT JUMPDEST POP GAS CALL ISZERO DUP1 ISZERO PUSH2 0x1E4E JUMPI RETURNDATASIZE PUSH1 0x0 DUP1 RETURNDATACOPY RETURNDATASIZE PUSH1 0x0 REVERT JUMPDEST POP POP POP PUSH1 0x1 PUSH1 0x1 PUSH1 0xA0 SHL SUB DUP10 AND PUSH1 0x0 DUP2 DUP2 MSTORE PUSH1 0x1 PUSH1 0x20 SWAP1 DUP2 MSTORE PUSH1 0x40 DUP1 DUP4 KECCAK256 DUP13 DUP5 MSTORE DUP3 MSTORE DUP1 DUP4 KECCAK256 DUP4 SWAP1 SSTORE SWAP3 DUP3 MSTORE PUSH1 0x2 DUP2 MSTORE DUP3 DUP3 KECCAK256 DUP12 DUP4 MSTORE SWAP1 MSTORE KECCAK256 SLOAD PUSH1 0x6 DUP1 SLOAD SWAP1 SWAP3 POP DUP2 LT PUSH2 0x1E9D JUMPI PUSH2 0x1E9D PUSH2 0x314A JUMP JUMPDEST PUSH1 0x0 SWAP2 DUP3 MSTORE PUSH1 0x20 DUP3 KECCAK256 PUSH1 0x2 SWAP1 SWAP2 MUL ADD DUP1 SLOAD PUSH1 0x1 PUSH1 0x1 PUSH1 0xA0 SHL SUB NOT AND DUP2 SSTORE PUSH1 0x1 ADD SSTORE PUSH1 0x40 MLOAD PUSH32 0xD7348FF00CF381A884144B50B3441398A48A7974EC349287DF80E18CEC9F5A31 SWAP1 PUSH2 0x1188 SWAP1 DUP11 SWAP1 CALLER SWAP1 DUP12 SWAP1 PUSH2 0x2E97 JUMP JUMPDEST PUSH1 0x1 PUSH1 0x1 PUSH1 0xA0 SHL SUB DUP3 AND PUSH1 0x0 SWAP1 DUP2 MSTORE PUSH1 0x1 PUSH1 0x20 SWAP1 DUP2 MSTORE PUSH1 0x40 DUP1 DUP4 KECCAK256 DUP5 DUP5 MSTORE SWAP1 SWAP2 MSTORE SWAP1 KECCAK256 SLOAD DUP3 SWAP1 DUP3 SWAP1 PUSH1 0x2 EQ PUSH2 0x1F39 JUMPI PUSH1 0x40 MLOAD PUSH3 0x461BCD PUSH1 0xE5 SHL DUP2 MSTORE PUSH1 0x4 ADD PUSH2 0x692 SWAP1 PUSH2 0x3024 JUMP JUMPDEST PUSH1 0x1 PUSH1 0x1 PUSH1 0xA0 SHL SUB DUP5 DUP2 AND PUSH1 0x0 SWAP1 DUP2 MSTORE PUSH1 0x3 PUSH1 0x20 SWAP1 DUP2 MSTORE PUSH1 0x40 DUP1 DUP4 KECCAK256 DUP8 DUP5 MSTORE SWAP1 SWAP2 MSTORE SWAP1 KECCAK256 PUSH1 0x6 ADD SLOAD DUP6 SWAP2 DUP6 SWAP2 AND CALLER EQ PUSH2 0x1FA4 JUMPI PUSH1 0x40 MLOAD PUSH3 0x461BCD PUSH1 0xE5 SHL DUP2 MSTORE PUSH1 0x20 PUSH1 0x4 DUP3 ADD MSTORE PUSH1 0xD PUSH1 0x24 DUP3 ADD MSTORE PUSH13 0x3737BA1037333A1037BBB732B9 PUSH1 0x99 SHL PUSH1 0x44 DUP3 ADD MSTORE PUSH1 0x64 ADD PUSH2 0x692 JUMP JUMPDEST PUSH1 0x1 PUSH1 0x1 PUSH1 0xA0 SHL SUB DUP7 AND PUSH1 0x0 SWAP1 DUP2 MSTORE PUSH1 0x3 PUSH1 0x20 SWAP1 DUP2 MSTORE PUSH1 0x40 DUP1 DUP4 KECCAK256 DUP9 DUP5 MSTORE SWAP1 SWAP2 MSTORE SWAP1 KECCAK256 PUSH1 0x1 ADD SLOAD DUP7 SWAP1 DUP7 SWAP1 TIMESTAMP LT PUSH2 0x1FED JUMPI PUSH1 0x40 MLOAD PUSH3 0x461BCD PUSH1 0xE5 SHL DUP2 MSTORE PUSH1 0x4 ADD PUSH2 0x692 SWAP1 PUSH2 0x3092 JUMP JUMPDEST PUSH1 0x1 PUSH1 0x1 PUSH1 0xA0 SHL SUB DUP1 DUP10 AND PUSH1 0x0 SWAP1 DUP2 MSTORE PUSH1 0x3 PUSH1 0x20 SWAP1 DUP2 MSTORE PUSH1 0x40 DUP1 DUP4 KECCAK256 DUP12 DUP5 MSTORE SWAP1 SWAP2 MSTORE SWAP1 KECCAK256 PUSH1 0x5 ADD SLOAD DUP10 SWAP2 DUP10 SWAP2 AND ISZERO PUSH2 0x2052 JUMPI PUSH1 0x40 MLOAD PUSH3 0x461BCD PUSH1 0xE5 SHL DUP2 MSTORE PUSH1 0x20 PUSH1 0x4 DUP3 ADD MSTORE PUSH1 0x8 PUSH1 0x24 DUP3 ADD MSTORE PUSH8 0x626964206D616B65 PUSH1 0xC0 SHL PUSH1 0x44 DUP3 ADD MSTORE PUSH1 0x64 ADD PUSH2 0x692 JUMP JUMPDEST PUSH1 0x1 PUSH1 0x1 PUSH1 0xA0 SHL SUB DUP11 AND PUSH1 0x0 DUP2 DUP2 MSTORE PUSH1 0x1 PUSH1 0x20 SWAP1 DUP2 MSTORE PUSH1 0x40 DUP1 DUP4 KECCAK256 DUP14 DUP5 MSTORE DUP3 MSTORE DUP1 DUP4 KECCAK256 DUP4 SWAP1 SSTORE DUP4 DUP4 MSTORE PUSH1 0x3 DUP3 MSTORE DUP1 DUP4 KECCAK256 DUP14 DUP5 MSTORE SWAP1 SWAP2 MSTORE SWAP1 DUP2 SWAP1 KECCAK256 PUSH1 0x4 SWAP1 DUP2 ADD SLOAD SWAP2 MLOAD PUSH4 0x79212195 PUSH1 0xE1 SHL DUP2 MSTORE DUP14 SWAP4 DUP14 SWAP4 SWAP1 SWAP3 PUSH4 0xF242432A SWAP3 PUSH2 0x20BB SWAP3 ADDRESS SWAP3 CALLER SWAP3 DUP9 SWAP3 SWAP2 ADD PUSH2 0x2F3A JUMP JUMPDEST PUSH1 0x0 PUSH1 0x40 MLOAD DUP1 DUP4 SUB DUP2 PUSH1 0x0 DUP8 DUP1 EXTCODESIZE ISZERO DUP1 ISZERO PUSH2 0x20D5 JUMPI PUSH1 0x0 DUP1 REVERT JUMPDEST POP GAS CALL ISZERO DUP1 ISZERO PUSH2 0x20E9 JUMPI RETURNDATASIZE PUSH1 0x0 DUP1 RETURNDATACOPY RETURNDATASIZE PUSH1 0x0 REVERT JUMPDEST POP POP POP PUSH1 0x1 PUSH1 0x1 PUSH1 0xA0 SHL SUB DUP14 AND PUSH1 0x0 SWAP1 DUP2 MSTORE PUSH1 0x5 PUSH1 0x20 SWAP1 DUP2 MSTORE PUSH1 0x40 DUP1 DUP4 KECCAK256 DUP16 DUP5 MSTORE SWAP1 SWAP2 MSTORE SWAP1 KECCAK256 SLOAD PUSH1 0x7 DUP1 SLOAD SWAP1 SWAP3 POP DUP2 LT PUSH2 0x2125 JUMPI PUSH2 0x2125 PUSH2 0x314A JUMP JUMPDEST PUSH1 0x0 SWAP2 DUP3 MSTORE PUSH1 0x20 DUP1 DUP4 KECCAK256 PUSH1 0x2 SWAP3 SWAP1 SWAP3 MUL SWAP1 SWAP2 ADD DUP1 SLOAD PUSH1 0x1 PUSH1 0x1 PUSH1 0xA0 SHL SUB NOT AND DUP2 SSTORE PUSH1 0x1 ADD SWAP2 SWAP1 SWAP2 SSTORE PUSH1 0x40 DUP1 MLOAD PUSH1 0x1 PUSH1 0x1 PUSH1 0xA0 SHL SUB DUP16 AND DUP2 MSTORE SWAP2 DUP3 ADD DUP14 SWAP1 MSTORE CALLER SWAP1 DUP3 ADD MSTORE PUSH32 0xB9D411977D4EE731F87BB8F16EB6F8C1FB579CFF684642052BF6084E6E33238D SWAP1 PUSH1 0x60 ADD PUSH2 0x97E JUMP JUMPDEST PUSH1 0x60 PUSH1 0x6 DUP1 SLOAD DUP1 PUSH1 0x20 MUL PUSH1 0x20 ADD PUSH1 0x40 MLOAD SWAP1 DUP2 ADD PUSH1 0x40 MSTORE DUP1 SWAP3 SWAP2 SWAP1 DUP2 DUP2 MSTORE PUSH1 0x20 ADD PUSH1 0x0 SWAP1 DUP3 DUP3 LT ISZERO PUSH2 0xA00 JUMPI PUSH1 0x0 DUP5 DUP2 MSTORE PUSH1 0x20 SWAP1 DUP2 SWAP1 KECCAK256 PUSH1 0x40 DUP1 MLOAD DUP1 DUP3 ADD SWAP1 SWAP2 MSTORE PUSH1 0x2 DUP6 MUL SWAP1 SWAP2 ADD DUP1 SLOAD PUSH1 0x1 PUSH1 0x1 PUSH1 0xA0 SHL SUB AND DUP3 MSTORE PUSH1 0x1 SWAP1 DUP2 ADD SLOAD DUP3 DUP5 ADD MSTORE SWAP1 DUP4 MSTORE SWAP1 SWAP3 ADD SWAP2 ADD PUSH2 0x9B8 JUMP JUMPDEST PUSH1 0x40 MLOAD PUSH4 0x23B872DD PUSH1 0xE0 SHL DUP2 MSTORE PUSH1 0x1 PUSH1 0x1 PUSH1 0xA0 SHL SUB DUP3 AND SWAP1 PUSH4 0x23B872DD SWAP1 PUSH2 0x222D SWAP1 CALLER SWAP1 ADDRESS SWAP1 DUP8 SWAP1 PUSH1 0x4 ADD PUSH2 0x2E97 JUMP JUMPDEST PUSH1 0x20 PUSH1 0x40 MLOAD DUP1 DUP4 SUB DUP2 PUSH1 0x0 DUP8 DUP1 EXTCODESIZE ISZERO DUP1 ISZERO PUSH2 0x2247 JUMPI PUSH1 0x0 DUP1 REVERT JUMPDEST POP GAS CALL ISZERO DUP1 ISZERO PUSH2 0x225B JUMPI RETURNDATASIZE PUSH1 0x0 DUP1 RETURNDATACOPY RETURNDATASIZE PUSH1 0x0 REVERT JUMPDEST POP POP POP POP PUSH1 0x40 MLOAD RETURNDATASIZE PUSH1 0x1F NOT PUSH1 0x1F DUP3 ADD AND DUP3 ADD DUP1 PUSH1 0x40 MSTORE POP DUP2 ADD SWAP1 PUSH2 0x227F SWAP2 SWAP1 PUSH2 0x2E1B JUMP JUMPDEST PUSH2 0x22C2 JUMPI PUSH1 0x40 MLOAD PUSH3 0x461BCD PUSH1 0xE5 SHL DUP2 MSTORE PUSH1 0x20 PUSH1 0x4 DUP3 ADD MSTORE PUSH1 0x14 PUSH1 0x24 DUP3 ADD MSTORE PUSH20 0xC2D8D8DEEEC2DCC6CA40DCDEE840CADCDEEACED PUSH1 0x63 SHL PUSH1 0x44 DUP3 ADD MSTORE PUSH1 0x64 ADD PUSH2 0x692 JUMP JUMPDEST POP POP JUMP JUMPDEST PUSH1 0x0 PUSH2 0x22D2 DUP3 DUP5 PUSH2 0x30E6 JUMP JUMPDEST SWAP4 SWAP3 POP POP POP JUMP JUMPDEST PUSH1 0x40 MLOAD PUSH3 0x7EEAC7 PUSH1 0xE1 SHL DUP2 MSTORE CALLER PUSH1 0x4 DUP3 ADD MSTORE PUSH1 0x24 DUP2 ADD DUP3 SWAP1 MSTORE PUSH1 0x0 SWAP1 PUSH1 0x1 PUSH1 0x1 PUSH1 0xA0 SHL SUB DUP5 AND SWAP1 PUSH3 0xFDD58E SWAP1 PUSH1 0x44 ADD PUSH1 0x20 PUSH1 0x40 MLOAD DUP1 DUP4 SUB DUP2 DUP7 DUP1 EXTCODESIZE ISZERO DUP1 ISZERO PUSH2 0x2320 JUMPI PUSH1 0x0 DUP1 REVERT JUMPDEST POP GAS STATICCALL ISZERO DUP1 ISZERO PUSH2 0x2334 JUMPI RETURNDATASIZE PUSH1 0x0 DUP1 RETURNDATACOPY RETURNDATASIZE PUSH1 0x0 REVERT JUMPDEST POP POP POP POP PUSH1 0x40 MLOAD RETURNDATASIZE PUSH1 0x1F NOT PUSH1 0x1F DUP3 ADD AND DUP3 ADD DUP1 PUSH1 0x40 MSTORE POP DUP2 ADD SWAP1 PUSH2 0x2358 SWAP2 SWAP1 PUSH2 0x2E3D JUMP JUMPDEST ISZERO ISZERO SWAP4 SWAP3 POP POP POP JUMP JUMPDEST PUSH1 0x40 MLOAD DUP1 PUSH2 0x100 ADD PUSH1 0x40 MSTORE DUP1 DUP7 DUP2 MSTORE PUSH1 0x20 ADD DUP6 DUP2 MSTORE PUSH1 0x20 ADD DUP5 DUP2 MSTORE PUSH1 0x20 ADD DUP5 DUP2 MSTORE PUSH1 0x20 ADD DUP4 DUP2 MSTORE PUSH1 0x20 ADD PUSH1 0x0 PUSH1 0x1 PUSH1 0x1 PUSH1 0xA0 SHL SUB AND DUP2 MSTORE PUSH1 0x20 ADD CALLER PUSH1 0x1 PUSH1 0x1 PUSH1 0xA0 SHL SUB AND DUP2 MSTORE PUSH1 0x20 ADD DUP9 PUSH1 0x1 PUSH1 0x1 PUSH1 0xA0 SHL SUB AND DUP2 MSTORE POP PUSH1 0x3 PUSH1 0x0 DUP11 PUSH1 0x1 PUSH1 0x1 PUSH1 0xA0 SHL SUB AND PUSH1 0x1 PUSH1 0x1 PUSH1 0xA0 SHL SUB AND DUP2 MSTORE PUSH1 0x20 ADD SWAP1 DUP2 MSTORE PUSH1 0x20 ADD PUSH1 0x0 KECCAK256 PUSH1 0x0 DUP9 DUP2 MSTORE PUSH1 0x20 ADD SWAP1 DUP2 MSTORE PUSH1 0x20 ADD PUSH1 0x0 KECCAK256 PUSH1 0x0 DUP3 ADD MLOAD DUP2 PUSH1 0x0 ADD SSTORE PUSH1 0x20 DUP3 ADD MLOAD DUP2 PUSH1 0x1 ADD SSTORE PUSH1 0x40 DUP3 ADD MLOAD DUP2 PUSH1 0x2 ADD SSTORE PUSH1 0x60 DUP3 ADD MLOAD DUP2 PUSH1 0x3 ADD SSTORE PUSH1 0x80 DUP3 ADD MLOAD DUP2 PUSH1 0x4 ADD SSTORE PUSH1 0xA0 DUP3 ADD MLOAD DUP2 PUSH1 0x5 ADD PUSH1 0x0 PUSH2 0x100 EXP DUP2 SLOAD DUP2 PUSH1 0x1 PUSH1 0x1 PUSH1 0xA0 SHL SUB MUL NOT AND SWAP1 DUP4 PUSH1 0x1 PUSH1 0x1 PUSH1 0xA0 SHL SUB AND MUL OR SWAP1 SSTORE POP PUSH1 0xC0 DUP3 ADD MLOAD DUP2 PUSH1 0x6 ADD PUSH1 0x0 PUSH2 0x100 EXP DUP2 SLOAD DUP2 PUSH1 0x1 PUSH1 0x1 PUSH1 0xA0 SHL SUB MUL NOT AND SWAP1 DUP4 PUSH1 0x1 PUSH1 0x1 PUSH1 0xA0 SHL SUB AND MUL OR SWAP1 SSTORE POP PUSH1 0xE0 DUP3 ADD MLOAD DUP2 PUSH1 0x7 ADD PUSH1 0x0 PUSH2 0x100 EXP DUP2 SLOAD DUP2 PUSH1 0x1 PUSH1 0x1 PUSH1 0xA0 SHL SUB MUL NOT AND SWAP1 DUP4 PUSH1 0x1 PUSH1 0x1 PUSH1 0xA0 SHL SUB AND MUL OR SWAP1 SSTORE POP SWAP1 POP POP PUSH1 0x2 PUSH1 0x1 PUSH1 0x0 DUP11 PUSH1 0x1 PUSH1 0x1 PUSH1 0xA0 SHL SUB AND PUSH1 0x1 PUSH1 0x1 PUSH1 0xA0 SHL SUB AND DUP2 MSTORE PUSH1 0x20 ADD SWAP1 DUP2 MSTORE PUSH1 0x20 ADD PUSH1 0x0 KECCAK256 PUSH1 0x0 DUP9 DUP2 MSTORE PUSH1 0x20 ADD SWAP1 DUP2 MSTORE PUSH1 0x20 ADD PUSH1 0x0 KECCAK256 DUP2 SWAP1 SSTORE POP DUP8 PUSH1 0x1 PUSH1 0x1 PUSH1 0xA0 SHL SUB AND PUSH4 0xF242432A CALLER ADDRESS DUP10 DUP7 DUP7 PUSH1 0x40 MLOAD DUP7 PUSH4 0xFFFFFFFF AND PUSH1 0xE0 SHL DUP2 MSTORE PUSH1 0x4 ADD PUSH2 0x2519 SWAP6 SWAP5 SWAP4 SWAP3 SWAP2 SWAP1 PUSH2 0x2EBB JUMP JUMPDEST PUSH1 0x0 PUSH1 0x40 MLOAD DUP1 DUP4 SUB DUP2 PUSH1 0x0 DUP8 DUP1 EXTCODESIZE ISZERO DUP1 ISZERO PUSH2 0x2533 JUMPI PUSH1 0x0 DUP1 REVERT JUMPDEST POP GAS CALL ISZERO DUP1 ISZERO PUSH2 0x2547 JUMPI RETURNDATASIZE PUSH1 0x0 DUP1 RETURNDATACOPY RETURNDATASIZE PUSH1 0x0 REVERT JUMPDEST POP POP POP POP POP POP POP POP POP POP POP POP JUMP JUMPDEST PUSH1 0x1 PUSH1 0x1 PUSH1 0xA0 SHL SUB DUP5 AND PUSH1 0x0 DUP2 DUP2 MSTORE PUSH1 0x3 PUSH1 0x20 SWAP1 DUP2 MSTORE PUSH1 0x40 DUP1 DUP4 KECCAK256 DUP8 DUP5 MSTORE SWAP1 SWAP2 MSTORE SWAP1 DUP2 SWAP1 KECCAK256 PUSH1 0x4 SWAP1 DUP2 ADD SLOAD SWAP2 MLOAD PUSH4 0x79212195 PUSH1 0xE1 SHL DUP2 MSTORE PUSH4 0xF242432A SWAP3 PUSH2 0x25A4 SWAP3 ADDRESS SWAP3 DUP8 SWAP3 DUP11 SWAP3 SWAP1 SWAP2 ADD PUSH2 0x2F3A JUMP JUMPDEST PUSH1 0x0 PUSH1 0x40 MLOAD DUP1 DUP4 SUB DUP2 PUSH1 0x0 DUP8 DUP1 EXTCODESIZE ISZERO DUP1 ISZERO PUSH2 0x25BE JUMPI PUSH1 0x0 DUP1 REVERT JUMPDEST POP GAS CALL ISZERO DUP1 ISZERO PUSH2 0x25D2 JUMPI RETURNDATASIZE PUSH1 0x0 DUP1 RETURNDATACOPY RETURNDATASIZE PUSH1 0x0 REVERT JUMPDEST POP POP POP POP PUSH1 0x1 PUSH1 0x1 PUSH1 0xA0 SHL SUB DUP5 DUP2 AND PUSH1 0x0 DUP2 DUP2 MSTORE PUSH1 0x1 PUSH1 0x20 SWAP1 DUP2 MSTORE PUSH1 0x40 DUP1 DUP4 KECCAK256 DUP9 DUP5 MSTORE DUP3 MSTORE DUP1 DUP4 KECCAK256 DUP4 SWAP1 SSTORE SWAP3 DUP3 MSTORE PUSH1 0x3 DUP2 MSTORE DUP3 DUP3 KECCAK256 DUP8 DUP4 MSTORE SWAP1 MSTORE KECCAK256 PUSH1 0x6 DUP2 ADD SLOAD PUSH1 0x7 SWAP1 SWAP2 ADD SLOAD PUSH2 0x2627 SWAP3 SWAP2 DUP3 AND SWAP2 AND DUP5 PUSH2 0x2770 JUMP JUMPDEST POP POP POP POP JUMP JUMPDEST PUSH1 0x1 PUSH1 0x1 PUSH1 0xA0 SHL SUB DUP4 AND PUSH1 0x0 SWAP1 DUP2 MSTORE PUSH1 0x20 DUP2 DUP2 MSTORE PUSH1 0x40 DUP1 DUP4 KECCAK256 DUP6 DUP5 MSTORE SWAP1 SWAP2 MSTORE SWAP1 KECCAK256 PUSH1 0x3 ADD SLOAD DUP2 EQ ISZERO PUSH2 0x26FE JUMPI PUSH1 0x1 PUSH1 0x1 PUSH1 0xA0 SHL SUB DUP4 AND PUSH1 0x0 DUP2 DUP2 MSTORE PUSH1 0x1 PUSH1 0x20 SWAP1 DUP2 MSTORE PUSH1 0x40 DUP1 DUP4 KECCAK256 DUP7 DUP5 MSTORE DUP3 MSTORE DUP1 DUP4 KECCAK256 DUP4 SWAP1 SSTORE SWAP3 DUP3 MSTORE PUSH1 0x2 DUP2 MSTORE DUP3 DUP3 KECCAK256 DUP6 DUP4 MSTORE SWAP1 MSTORE KECCAK256 SLOAD PUSH1 0x6 DUP1 SLOAD SWAP1 SWAP2 SWAP1 DUP2 LT PUSH2 0x26A5 JUMPI PUSH2 0x26A5 PUSH2 0x314A JUMP JUMPDEST PUSH1 0x0 SWAP2 DUP3 MSTORE PUSH1 0x20 DUP1 DUP4 KECCAK256 PUSH1 0x2 SWAP1 SWAP3 MUL SWAP1 SWAP2 ADD DUP1 SLOAD PUSH1 0x1 PUSH1 0x1 PUSH1 0xA0 SHL SUB NOT SWAP1 DUP2 AND DUP3 SSTORE PUSH1 0x1 SWAP2 DUP3 ADD DUP5 SWAP1 SSTORE PUSH1 0x1 PUSH1 0x1 PUSH1 0xA0 SHL SUB DUP8 AND DUP5 MSTORE DUP4 DUP4 MSTORE PUSH1 0x40 DUP1 DUP6 KECCAK256 DUP8 DUP7 MSTORE SWAP1 SWAP4 MSTORE SWAP2 SWAP1 SWAP3 KECCAK256 SWAP1 SWAP2 ADD DUP1 SLOAD SWAP1 SWAP2 AND CALLER OR SWAP1 SSTORE POP POP POP JUMP JUMPDEST PUSH1 0x1 PUSH1 0x1 PUSH1 0xA0 SHL SUB DUP4 AND PUSH1 0x0 SWAP1 DUP2 MSTORE PUSH1 0x20 DUP2 DUP2 MSTORE PUSH1 0x40 DUP1 DUP4 KECCAK256 DUP6 DUP5 MSTORE SWAP1 SWAP2 MSTORE SWAP1 KECCAK256 PUSH1 0x3 ADD SLOAD PUSH2 0x272E SWAP1 DUP3 SWAP1 PUSH2 0x311D JUMP JUMPDEST PUSH1 0x1 PUSH1 0x1 PUSH1 0xA0 SHL SUB DUP5 AND PUSH1 0x0 SWAP1 DUP2 MSTORE PUSH1 0x20 DUP2 DUP2 MSTORE PUSH1 0x40 DUP1 DUP4 KECCAK256 DUP7 DUP5 MSTORE SWAP1 SWAP2 MSTORE SWAP1 KECCAK256 PUSH1 0x3 DUP2 ADD SWAP2 SWAP1 SWAP2 SSTORE PUSH1 0x1 ADD DUP1 SLOAD PUSH1 0x1 PUSH1 0x1 PUSH1 0xA0 SHL SUB NOT AND CALLER OR SWAP1 SSTORE JUMPDEST POP POP POP JUMP JUMPDEST PUSH1 0x1 PUSH1 0x1 PUSH1 0xA0 SHL SUB DUP3 AND ISZERO PUSH2 0x278A JUMPI PUSH2 0x276B DUP4 DUP4 DUP4 PUSH2 0x2794 JUMP JUMPDEST PUSH2 0x276B DUP4 DUP3 PUSH2 0x2859 JUMP JUMPDEST PUSH1 0x40 MLOAD PUSH4 0x23B872DD PUSH1 0xE0 SHL DUP2 MSTORE PUSH1 0x1 PUSH1 0x1 PUSH1 0xA0 SHL SUB DUP4 AND SWAP1 PUSH4 0x23B872DD SWAP1 PUSH2 0x27C4 SWAP1 CALLER SWAP1 DUP8 SWAP1 DUP7 SWAP1 PUSH1 0x4 ADD PUSH2 0x2E97 JUMP JUMPDEST PUSH1 0x20 PUSH1 0x40 MLOAD DUP1 DUP4 SUB DUP2 PUSH1 0x0 DUP8 DUP1 EXTCODESIZE ISZERO DUP1 ISZERO PUSH2 0x27DE JUMPI PUSH1 0x0 DUP1 REVERT JUMPDEST POP GAS CALL ISZERO DUP1 ISZERO PUSH2 0x27F2 JUMPI RETURNDATASIZE PUSH1 0x0 DUP1 RETURNDATACOPY RETURNDATASIZE PUSH1 0x0 REVERT JUMPDEST POP POP POP POP PUSH1 0x40 MLOAD RETURNDATASIZE PUSH1 0x1F NOT PUSH1 0x1F DUP3 ADD AND DUP3 ADD DUP1 PUSH1 0x40 MSTORE POP DUP2 ADD SWAP1 PUSH2 0x2816 SWAP2 SWAP1 PUSH2 0x2E1B JUMP JUMPDEST PUSH2 0x276B JUMPI PUSH1 0x40 MLOAD PUSH3 0x461BCD PUSH1 0xE5 SHL DUP2 MSTORE PUSH1 0x20 PUSH1 0x4 DUP3 ADD MSTORE PUSH1 0x14 PUSH1 0x24 DUP3 ADD MSTORE PUSH20 0xC2D8D8DEEEC2DCC6CA40DCDEE840CADCDEEACED PUSH1 0x63 SHL PUSH1 0x44 DUP3 ADD MSTORE PUSH1 0x64 ADD PUSH2 0x692 JUMP JUMPDEST PUSH1 0x0 DUP3 PUSH1 0x1 PUSH1 0x1 PUSH1 0xA0 SHL SUB AND DUP3 PUSH1 0x40 MLOAD PUSH1 0x0 PUSH1 0x40 MLOAD DUP1 DUP4 SUB DUP2 DUP6 DUP8 GAS CALL SWAP3 POP POP POP RETURNDATASIZE DUP1 PUSH1 0x0 DUP2 EQ PUSH2 0x28A6 JUMPI PUSH1 0x40 MLOAD SWAP2 POP PUSH1 0x1F NOT PUSH1 0x3F RETURNDATASIZE ADD AND DUP3 ADD PUSH1 0x40 MSTORE RETURNDATASIZE DUP3 MSTORE RETURNDATASIZE PUSH1 0x0 PUSH1 0x20 DUP5 ADD RETURNDATACOPY PUSH2 0x28AB JUMP JUMPDEST PUSH1 0x60 SWAP2 POP JUMPDEST POP POP SWAP1 POP DUP1 PUSH2 0x276B JUMPI PUSH1 0x40 MLOAD PUSH3 0x461BCD PUSH1 0xE5 SHL DUP2 MSTORE PUSH1 0x20 PUSH1 0x4 DUP3 ADD MSTORE PUSH1 0xD PUSH1 0x24 DUP3 ADD MSTORE PUSH13 0x1C99599D5B990819985A5B1959 PUSH1 0x9A SHL PUSH1 0x44 DUP3 ADD MSTORE PUSH1 0x64 ADD PUSH2 0x692 JUMP JUMPDEST DUP1 CALLDATALOAD PUSH1 0x1 PUSH1 0x1 PUSH1 0xA0 SHL SUB DUP2 AND DUP2 EQ PUSH2 0x2903 JUMPI PUSH1 0x0 DUP1 REVERT JUMPDEST SWAP2 SWAP1 POP JUMP JUMPDEST PUSH1 0x0 DUP1 DUP4 PUSH1 0x1F DUP5 ADD SLT PUSH2 0x291A JUMPI PUSH1 0x0 DUP1 REVERT JUMPDEST POP DUP2 CALLDATALOAD PUSH8 0xFFFFFFFFFFFFFFFF DUP2 GT ISZERO PUSH2 0x2932 JUMPI PUSH1 0x0 DUP1 REVERT JUMPDEST PUSH1 0x20 DUP4 ADD SWAP2 POP DUP4 PUSH1 0x20 DUP3 PUSH1 0x5 SHL DUP6 ADD ADD GT ISZERO PUSH2 0x294D JUMPI PUSH1 0x0 DUP1 REVERT JUMPDEST SWAP3 POP SWAP3 SWAP1 POP JUMP JUMPDEST PUSH1 0x0 DUP1 DUP4 PUSH1 0x1F DUP5 ADD SLT PUSH2 0x2966 JUMPI PUSH1 0x0 DUP1 REVERT JUMPDEST POP DUP2 CALLDATALOAD PUSH8 0xFFFFFFFFFFFFFFFF DUP2 GT ISZERO PUSH2 0x297E JUMPI PUSH1 0x0 DUP1 REVERT JUMPDEST PUSH1 0x20 DUP4 ADD SWAP2 POP DUP4 PUSH1 0x20 DUP3 DUP6 ADD ADD GT ISZERO PUSH2 0x294D JUMPI PUSH1 0x0 DUP1 REVERT JUMPDEST PUSH1 0x0 DUP3 PUSH1 0x1F DUP4 ADD SLT PUSH2 0x29A7 JUMPI PUSH1 0x0 DUP1 REVERT JUMPDEST DUP2 CALLDATALOAD PUSH8 0xFFFFFFFFFFFFFFFF DUP1 DUP3 GT ISZERO PUSH2 0x29C2 JUMPI PUSH2 0x29C2 PUSH2 0x3160 JUMP JUMPDEST PUSH1 0x40 MLOAD PUSH1 0x1F DUP4 ADD PUSH1 0x1F NOT SWAP1 DUP2 AND PUSH1 0x3F ADD AND DUP2 ADD SWAP1 DUP3 DUP3 GT DUP2 DUP4 LT OR ISZERO PUSH2 0x29EA JUMPI PUSH2 0x29EA PUSH2 0x3160 JUMP JUMPDEST DUP2 PUSH1 0x40 MSTORE DUP4 DUP2 MSTORE DUP7 PUSH1 0x20 DUP6 DUP9 ADD ADD GT ISZERO PUSH2 0x2A03 JUMPI PUSH1 0x0 DUP1 REVERT JUMPDEST DUP4 PUSH1 0x20 DUP8 ADD PUSH1 0x20 DUP4 ADD CALLDATACOPY PUSH1 0x0 PUSH1 0x20 DUP6 DUP4 ADD ADD MSTORE DUP1 SWAP5 POP POP POP POP POP SWAP3 SWAP2 POP POP JUMP JUMPDEST PUSH1 0x0 PUSH1 0x20 DUP3 DUP5 SUB SLT ISZERO PUSH2 0x2A35 JUMPI PUSH1 0x0 DUP1 REVERT JUMPDEST PUSH2 0x22D2 DUP3 PUSH2 0x28EC JUMP JUMPDEST PUSH1 0x0 DUP1 PUSH1 0x0 DUP1 PUSH1 0x0 DUP1 PUSH1 0x0 DUP1 PUSH1 0xA0 DUP10 DUP12 SUB SLT ISZERO PUSH2 0x2A5A JUMPI PUSH1 0x0 DUP1 REVERT JUMPDEST PUSH2 0x2A63 DUP10 PUSH2 0x28EC JUMP JUMPDEST SWAP8 POP PUSH2 0x2A71 PUSH1 0x20 DUP11 ADD PUSH2 0x28EC JUMP JUMPDEST SWAP7 POP PUSH1 0x40 DUP10 ADD CALLDATALOAD PUSH8 0xFFFFFFFFFFFFFFFF DUP1 DUP3 GT ISZERO PUSH2 0x2A8E JUMPI PUSH1 0x0 DUP1 REVERT JUMPDEST PUSH2 0x2A9A DUP13 DUP4 DUP14 ADD PUSH2 0x2908 JUMP JUMPDEST SWAP1 SWAP9 POP SWAP7 POP PUSH1 0x60 DUP12 ADD CALLDATALOAD SWAP2 POP DUP1 DUP3 GT ISZERO PUSH2 0x2AB3 JUMPI PUSH1 0x0 DUP1 REVERT JUMPDEST PUSH2 0x2ABF DUP13 DUP4 DUP14 ADD PUSH2 0x2908 JUMP JUMPDEST SWAP1 SWAP7 POP SWAP5 POP PUSH1 0x80 DUP12 ADD CALLDATALOAD SWAP2 POP DUP1 DUP3 GT ISZERO PUSH2 0x2AD8 JUMPI PUSH1 0x0 DUP1 REVERT JUMPDEST POP PUSH2 0x2AE5 DUP12 DUP3 DUP13 ADD PUSH2 0x2954 JUMP JUMPDEST SWAP10 SWAP13 SWAP9 SWAP12 POP SWAP7 SWAP10 POP SWAP5 SWAP8 SWAP4 SWAP7 SWAP3 SWAP6 SWAP5 POP POP POP JUMP JUMPDEST PUSH1 0x0 DUP1 PUSH1 0x0 PUSH1 0x60 DUP5 DUP7 SUB SLT ISZERO PUSH2 0x2B0E JUMPI PUSH1 0x0 DUP1 REVERT JUMPDEST PUSH2 0x2B17 DUP5 PUSH2 0x28EC JUMP JUMPDEST SWAP3 POP PUSH2 0x2B25 PUSH1 0x20 DUP6 ADD PUSH2 0x28EC JUMP JUMPDEST SWAP2 POP PUSH1 0x40 DUP5 ADD CALLDATALOAD SWAP1 POP SWAP3 POP SWAP3 POP SWAP3 JUMP JUMPDEST PUSH1 0x0 DUP1 PUSH1 0x0 DUP1 PUSH1 0x0 DUP1 PUSH1 0xA0 DUP8 DUP10 SUB SLT ISZERO PUSH2 0x2B4E JUMPI PUSH1 0x0 DUP1 REVERT JUMPDEST PUSH2 0x2B57 DUP8 PUSH2 0x28EC JUMP JUMPDEST SWAP6 POP PUSH2 0x2B65 PUSH1 0x20 DUP9 ADD PUSH2 0x28EC JUMP JUMPDEST SWAP5 POP PUSH1 0x40 DUP8 ADD CALLDATALOAD SWAP4 POP PUSH1 0x60 DUP8 ADD CALLDATALOAD SWAP3 POP PUSH1 0x80 DUP8 ADD CALLDATALOAD PUSH8 0xFFFFFFFFFFFFFFFF DUP2 GT ISZERO PUSH2 0x2B8F JUMPI PUSH1 0x0 DUP1 REVERT JUMPDEST PUSH2 0x2B9B DUP10 DUP3 DUP11 ADD PUSH2 0x2954 JUMP JUMPDEST SWAP8 SWAP11 SWAP7 SWAP10 POP SWAP5 SWAP8 POP SWAP3 SWAP6 SWAP4 SWAP5 SWAP3 POP POP POP JUMP JUMPDEST PUSH1 0x0 DUP1 PUSH1 0x0 DUP1 PUSH1 0x0 DUP1 PUSH1 0xC0 DUP8 DUP10 SUB SLT ISZERO PUSH2 0x2BC6 JUMPI PUSH1 0x0 DUP1 REVERT JUMPDEST PUSH2 0x2BCF DUP8 PUSH2 0x28EC JUMP JUMPDEST SWAP6 POP PUSH2 0x2BDD PUSH1 0x20 DUP9 ADD PUSH2 0x28EC JUMP JUMPDEST SWAP5 POP PUSH1 0x40 DUP8 ADD CALLDATALOAD SWAP4 POP PUSH1 0x60 DUP8 ADD CALLDATALOAD SWAP3 POP PUSH1 0x80 DUP8 ADD CALLDATALOAD SWAP2 POP PUSH1 0xA0 DUP8 ADD CALLDATALOAD PUSH8 0xFFFFFFFFFFFFFFFF DUP2 GT ISZERO PUSH2 0x2C0E JUMPI PUSH1 0x0 DUP1 REVERT JUMPDEST PUSH2 0x2C1A DUP10 DUP3 DUP11 ADD PUSH2 0x2996 JUMP JUMPDEST SWAP2 POP POP SWAP3 SWAP6 POP SWAP3 SWAP6 POP SWAP3 SWAP6 JUMP JUMPDEST PUSH1 0x0 DUP1 PUSH1 0x0 DUP1 PUSH1 0x0 DUP1 PUSH1 0x0 DUP1 PUSH2 0x100 DUP10 DUP12 SUB SLT ISZERO PUSH2 0x2C44 JUMPI PUSH1 0x0 DUP1 REVERT JUMPDEST PUSH2 0x2C4D DUP10 PUSH2 0x28EC JUMP JUMPDEST SWAP8 POP PUSH2 0x2C5B PUSH1 0x20 DUP11 ADD PUSH2 0x28EC JUMP JUMPDEST SWAP7 POP PUSH1 0x40 DUP10 ADD CALLDATALOAD SWAP6 POP PUSH1 0x60 DUP10 ADD CALLDATALOAD SWAP5 POP PUSH1 0x80 DUP10 ADD CALLDATALOAD SWAP4 POP PUSH1 0xA0 DUP10 ADD CALLDATALOAD SWAP3 POP PUSH1 0xC0 DUP10 ADD CALLDATALOAD SWAP2 POP PUSH1 0xE0 DUP10 ADD CALLDATALOAD PUSH8 0xFFFFFFFFFFFFFFFF DUP2 GT ISZERO PUSH2 0x2C9A JUMPI PUSH1 0x0 DUP1 REVERT JUMPDEST PUSH2 0x2CA6 DUP12 DUP3 DUP13 ADD PUSH2 0x2996 JUMP JUMPDEST SWAP2 POP POP SWAP3 SWAP6 SWAP9 POP SWAP3 SWAP6 SWAP9 SWAP1 SWAP4 SWAP7 POP JUMP JUMPDEST PUSH1 0x0 DUP1 PUSH1 0x40 DUP4 DUP6 SUB SLT ISZERO PUSH2 0x2CC9 JUMPI PUSH1 0x0 DUP1 REVERT JUMPDEST PUSH2 0x2CD2 DUP4 PUSH2 0x28EC JUMP JUMPDEST SWAP5 PUSH1 0x20 SWAP4 SWAP1 SWAP4 ADD CALLDATALOAD SWAP4 POP POP POP JUMP JUMPDEST PUSH1 0x0 DUP1 PUSH1 0x0 PUSH1 0x60 DUP5 DUP7 SUB SLT ISZERO PUSH2 0x2CF5 JUMPI PUSH1 0x0 DUP1 REVERT JUMPDEST PUSH2 0x2CFE DUP5 PUSH2 0x28EC JUMP JUMPDEST SWAP3 POP PUSH1 0x20 DUP5 ADD CALLDATALOAD SWAP2 POP PUSH2 0x2D13 PUSH1 0x40 DUP6 ADD PUSH2 0x28EC JUMP JUMPDEST SWAP1 POP SWAP3 POP SWAP3 POP SWAP3 JUMP JUMPDEST PUSH1 0x0 DUP1 PUSH1 0x0 PUSH1 0x60 DUP5 DUP7 SUB SLT ISZERO PUSH2 0x2D31 JUMPI PUSH1 0x0 DUP1 REVERT JUMPDEST PUSH2 0x2D3A DUP5 PUSH2 0x28EC JUMP JUMPDEST SWAP6 PUSH1 0x20 DUP6 ADD CALLDATALOAD SWAP6 POP PUSH1 0x40 SWAP1 SWAP5 ADD CALLDATALOAD SWAP4 SWAP3 POP POP POP JUMP JUMPDEST PUSH1 0x0 DUP1 PUSH1 0x0 DUP1 PUSH1 0x80 DUP6 DUP8 SUB SLT ISZERO PUSH2 0x2D65 JUMPI PUSH1 0x0 DUP1 REVERT JUMPDEST PUSH2 0x2D6E DUP6 PUSH2 0x28EC JUMP JUMPDEST SWAP4 POP PUSH1 0x20 DUP6 ADD CALLDATALOAD SWAP3 POP PUSH1 0x40 DUP6 ADD CALLDATALOAD SWAP2 POP PUSH1 0x60 DUP6 ADD CALLDATALOAD PUSH8 0xFFFFFFFFFFFFFFFF DUP2 GT ISZERO PUSH2 0x2D98 JUMPI PUSH1 0x0 DUP1 REVERT JUMPDEST PUSH2 0x2DA4 DUP8 DUP3 DUP9 ADD PUSH2 0x2996 JUMP JUMPDEST SWAP2 POP POP SWAP3 SWAP6 SWAP2 SWAP5 POP SWAP3 POP JUMP JUMPDEST PUSH1 0x0 DUP1 PUSH1 0x0 DUP1 PUSH1 0x0 PUSH1 0xA0 DUP7 DUP9 SUB SLT ISZERO PUSH2 0x2DC8 JUMPI PUSH1 0x0 DUP1 REVERT JUMPDEST PUSH2 0x2DD1 DUP7 PUSH2 0x28EC JUMP JUMPDEST SWAP5 POP PUSH1 0x20 DUP7 ADD CALLDATALOAD SWAP4 POP PUSH1 0x40 DUP7 ADD CALLDATALOAD SWAP3 POP PUSH1 0x60 DUP7 ADD CALLDATALOAD SWAP2 POP PUSH1 0x80 DUP7 ADD CALLDATALOAD PUSH8 0xFFFFFFFFFFFFFFFF DUP2 GT ISZERO PUSH2 0x2E02 JUMPI PUSH1 0x0 DUP1 REVERT JUMPDEST PUSH2 0x2E0E DUP9 DUP3 DUP10 ADD PUSH2 0x2996 JUMP JUMPDEST SWAP2 POP POP SWAP3 SWAP6 POP SWAP3 SWAP6 SWAP1 SWAP4 POP JUMP JUMPDEST PUSH1 0x0 PUSH1 0x20 DUP3 DUP5 SUB SLT ISZERO PUSH2 0x2E2D JUMPI PUSH1 0x0 DUP1 REVERT JUMPDEST DUP2 MLOAD DUP1 ISZERO ISZERO DUP2 EQ PUSH2 0x22D2 JUMPI PUSH1 0x0 DUP1 REVERT JUMPDEST PUSH1 0x0 PUSH1 0x20 DUP3 DUP5 SUB SLT ISZERO PUSH2 0x2E4F JUMPI PUSH1 0x0 DUP1 REVERT JUMPDEST POP MLOAD SWAP2 SWAP1 POP JUMP JUMPDEST PUSH1 0x1 PUSH1 0x1 PUSH1 0xA0 SHL SUB SWAP8 DUP9 AND DUP2 MSTORE SWAP6 DUP8 AND PUSH1 0x20 DUP8 ADD MSTORE SWAP4 SWAP1 SWAP6 AND PUSH1 0x40 DUP6 ADD MSTORE PUSH1 0x60 DUP5 ADD SWAP2 SWAP1 SWAP2 MSTORE PUSH1 0x80 DUP4 ADD MSTORE PUSH1 0xA0 DUP3 ADD SWAP3 SWAP1 SWAP3 MSTORE PUSH1 0xC0 DUP2 ADD SWAP2 SWAP1 SWAP2 MSTORE PUSH1 0xE0 ADD SWAP1 JUMP JUMPDEST PUSH1 0x1 PUSH1 0x1 PUSH1 0xA0 SHL SUB SWAP4 DUP5 AND DUP2 MSTORE SWAP2 SWAP1 SWAP3 AND PUSH1 0x20 DUP3 ADD MSTORE PUSH1 0x40 DUP2 ADD SWAP2 SWAP1 SWAP2 MSTORE PUSH1 0x60 ADD SWAP1 JUMP JUMPDEST PUSH1 0x0 PUSH1 0x1 DUP1 PUSH1 0xA0 SHL SUB DUP1 DUP9 AND DUP4 MSTORE PUSH1 0x20 DUP2 DUP9 AND DUP2 DUP6 ADD MSTORE DUP7 PUSH1 0x40 DUP6 ADD MSTORE DUP6 PUSH1 0x60 DUP6 ADD MSTORE PUSH1 0xA0 PUSH1 0x80 DUP6 ADD MSTORE DUP5 MLOAD SWAP2 POP DUP2 PUSH1 0xA0 DUP6 ADD MSTORE PUSH1 0x0 JUMPDEST DUP3 DUP2 LT ISZERO PUSH2 0x2F0E JUMPI DUP6 DUP2 ADD DUP3 ADD MLOAD DUP6 DUP3 ADD PUSH1 0xC0 ADD MSTORE DUP2 ADD PUSH2 0x2EF2 JUMP JUMPDEST DUP3 DUP2 GT ISZERO PUSH2 0x2F20 JUMPI PUSH1 0x0 PUSH1 0xC0 DUP5 DUP8 ADD ADD MSTORE JUMPDEST POP POP PUSH1 0x1F ADD PUSH1 0x1F NOT AND SWAP2 SWAP1 SWAP2 ADD PUSH1 0xC0 ADD SWAP7 SWAP6 POP POP POP POP POP POP JUMP JUMPDEST PUSH1 0x1 PUSH1 0x1 PUSH1 0xA0 SHL SUB SWAP5 DUP6 AND DUP2 MSTORE SWAP3 SWAP1 SWAP4 AND PUSH1 0x20 DUP4 ADD MSTORE PUSH1 0x40 DUP3 ADD MSTORE PUSH1 0x60 DUP2 ADD SWAP2 SWAP1 SWAP2 MSTORE PUSH1 0xA0 PUSH1 0x80 DUP3 ADD DUP2 SWAP1 MSTORE PUSH1 0x0 SWAP1 DUP3 ADD MSTORE PUSH1 0xC0 ADD SWAP1 JUMP JUMPDEST PUSH1 0x20 DUP1 DUP3 MSTORE DUP3 MLOAD DUP3 DUP3 ADD DUP2 SWAP1 MSTORE PUSH1 0x0 SWAP2 SWAP1 PUSH1 0x40 SWAP1 DUP2 DUP6 ADD SWAP1 DUP7 DUP5 ADD DUP6 JUMPDEST DUP3 DUP2 LT ISZERO PUSH2 0x2FBD JUMPI DUP2 MLOAD DUP1 MLOAD PUSH1 0x1 PUSH1 0x1 PUSH1 0xA0 SHL SUB AND DUP6 MSTORE DUP7 ADD MLOAD DUP7 DUP6 ADD MSTORE SWAP3 DUP5 ADD SWAP3 SWAP1 DUP6 ADD SWAP1 PUSH1 0x1 ADD PUSH2 0x2F8F JUMP JUMPDEST POP SWAP2 SWAP8 SWAP7 POP POP POP POP POP POP POP JUMP JUMPDEST PUSH1 0x20 DUP1 DUP3 MSTORE PUSH1 0x11 SWAP1 DUP3 ADD MSTORE PUSH17 0x50726963652063616E6E6F74206265203 PUSH1 0x7C SHL PUSH1 0x40 DUP3 ADD MSTORE PUSH1 0x60 ADD SWAP1 JUMP JUMPDEST PUSH1 0x20 DUP1 DUP3 MSTORE PUSH1 0x15 SWAP1 DUP3 ADD MSTORE PUSH21 0x4E6674206E6F7420696E2066697865642073616C65 PUSH1 0x58 SHL PUSH1 0x40 DUP3 ADD MSTORE PUSH1 0x60 ADD SWAP1 JUMP JUMPDEST PUSH1 0x20 DUP1 DUP3 MSTORE PUSH1 0x17 SWAP1 DUP3 ADD MSTORE PUSH32 0x4E6674206E6F7420696E2061756374696F6E2073616C65000000000000000000 PUSH1 0x40 DUP3 ADD MSTORE PUSH1 0x60 ADD SWAP1 JUMP JUMPDEST PUSH1 0x20 DUP1 DUP3 MSTORE PUSH1 0x1D SWAP1 DUP3 ADD MSTORE PUSH32 0x4269642047726561746572207468616E2050726576696F757320426964000000 PUSH1 0x40 DUP3 ADD MSTORE PUSH1 0x60 ADD SWAP1 JUMP JUMPDEST PUSH1 0x20 DUP1 DUP3 MSTORE PUSH1 0xB SWAP1 DUP3 ADD MSTORE PUSH11 0x105D58DD1A5BDB88195B99 PUSH1 0xAA SHL PUSH1 0x40 DUP3 ADD MSTORE PUSH1 0x60 ADD SWAP1 JUMP JUMPDEST PUSH1 0x20 DUP1 DUP3 MSTORE PUSH1 0x15 SWAP1 DUP3 ADD MSTORE PUSH21 0x2CB7BA9030B932903737BA1037333A1037BBB732B9 PUSH1 0x59 SHL PUSH1 0x40 DUP3 ADD MSTORE PUSH1 0x60 ADD SWAP1 JUMP JUMPDEST PUSH1 0x0 DUP3 NOT DUP3 GT ISZERO PUSH2 0x30F9 JUMPI PUSH2 0x30F9 PUSH2 0x3134 JUMP JUMPDEST POP ADD SWAP1 JUMP JUMPDEST PUSH1 0x0 DUP2 PUSH1 0x0 NOT DIV DUP4 GT DUP3 ISZERO ISZERO AND ISZERO PUSH2 0x3118 JUMPI PUSH2 0x3118 PUSH2 0x3134 JUMP JUMPDEST POP MUL SWAP1 JUMP JUMPDEST PUSH1 0x0 DUP3 DUP3 LT ISZERO PUSH2 0x312F JUMPI PUSH2 0x312F PUSH2 0x3134 JUMP JUMPDEST POP SUB SWAP1 JUMP JUMPDEST PUSH4 0x4E487B71 PUSH1 0xE0 SHL PUSH1 0x0 MSTORE PUSH1 0x11 PUSH1 0x4 MSTORE PUSH1 0x24 PUSH1 0x0 REVERT JUMPDEST PUSH4 0x4E487B71 PUSH1 0xE0 SHL PUSH1 0x0 MSTORE PUSH1 0x32 PUSH1 0x4 MSTORE PUSH1 0x24 PUSH1 0x0 REVERT JUMPDEST PUSH4 0x4E487B71 PUSH1 0xE0 SHL PUSH1 0x0 MSTORE PUSH1 0x41 PUSH1 0x4 MSTORE PUSH1 0x24 PUSH1 0x0 REVERT INVALID LOG2 PUSH5 0x6970667358 0x22 SLT KECCAK256 OR 0xBE PUSH26 0x78601B486BB9783F9075B977E6A48C6CBE2F876DF09AD3E34A62 PUSH7 0x85C764736F6C63 NUMBER STOP ADDMOD SMOD STOP CALLER "
				},
				"gasEstimates": {
					"creation": {
						"codeDepositCost": "2543200",
						"executionCost": "2748",
						"totalCost": "2545948"
					},
					"external": {
						"IID_IERC1155()": "291",
						"Sell_AreveaToken(address,address,uint256)": "infinite",
						"_cancelAuctionSale(address,uint256)": "infinite",
						"buyAreveaToken(address,address,uint256)": "infinite",
						"buyFromFixedSale(address,uint256,uint256,uint256,bytes)": "infinite",
						"cancelFixedsale(address,uint256,uint256,bytes)": "infinite",
						"createNftAuctionSale(address,address,uint256,uint256,uint256,uint256,uint256,bytes)": "infinite",
						"getAuctionSaleNFT()": "infinite",
						"getFixedSale(address,uint256)": "11556",
						"getFixedSaleNFT()": "infinite",
						"getNftAuctionSaleDetails(address,uint256)": "18126",
						"isERC1155(address)": "infinite",
						"makeBid(address,uint256,uint256)": "infinite",
						"nftFixedSale(address,address,uint256,uint256,uint256,bytes)": "infinite",
						"nftSaleStatus(address,uint256)": "2723",
						"onERC1155BatchReceived(address,address,uint256[],uint256[],bytes)": "infinite",
						"onERC1155Received(address,address,uint256,uint256,bytes)": "infinite",
						"settleAuction(address,uint256)": "infinite",
						"updateFixedSalePrice(address,uint256,uint256)": "28900",
						"updateTheBidPrice(address,uint256,uint256)": "infinite",
						"userBidPriceOnNFT(address,uint256,address)": "infinite",
						"withdrawBid(address,uint256)": "14172"
					},
					"internal": {
						"_bidAmountTransfer(uint256,address)": "infinite",
						"_checkFixedSale(address,uint256,uint256)": "65550",
						"_isTokenOrCoin(address,address,uint256)": "infinite",
						"_nativeAmountTransfer(address,uint256)": "infinite",
						"_ownerOf(address,uint256)": "infinite",
						"_storedNftAuctionDetails(address,address,uint256,uint256,uint256,uint256,uint256,bytes memory)": "infinite",
						"_tokenAmountTransfer(address,address,uint256)": "infinite",
						"_transferNftAndPaySeller(address,uint256,uint256,address)": "infinite"
					}
				},
				"methodIdentifiers": {
					"IID_IERC1155()": "9b8cfe52",
					"Sell_AreveaToken(address,address,uint256)": "7ad47a21",
					"_cancelAuctionSale(address,uint256)": "842bc46a",
					"buyAreveaToken(address,address,uint256)": "00e2097c",
					"buyFromFixedSale(address,uint256,uint256,uint256,bytes)": "6eb84994",
					"cancelFixedsale(address,uint256,uint256,bytes)": "804e9f24",
					"createNftAuctionSale(address,address,uint256,uint256,uint256,uint256,uint256,bytes)": "423cdd4e",
					"getAuctionSaleNFT()": "1e7a044f",
					"getFixedSale(address,uint256)": "8c3417da",
					"getFixedSaleNFT()": "9f085a00",
					"getNftAuctionSaleDetails(address,uint256)": "6f8c9b1b",
					"isERC1155(address)": "282e460a",
					"makeBid(address,uint256,uint256)": "1bdae6f1",
					"nftFixedSale(address,address,uint256,uint256,uint256,bytes)": "771b5788",
					"nftSaleStatus(address,uint256)": "6916462f",
					"onERC1155BatchReceived(address,address,uint256[],uint256[],bytes)": "bc197c81",
					"onERC1155Received(address,address,uint256,uint256,bytes)": "f23a6e61",
					"settleAuction(address,uint256)": "5138b08c",
					"updateFixedSalePrice(address,uint256,uint256)": "4676adca",
					"updateTheBidPrice(address,uint256,uint256)": "3a713db8",
					"userBidPriceOnNFT(address,uint256,address)": "6fe02f24",
					"withdrawBid(address,uint256)": "4cb8ef5b"
				}
			},
			"storageLayout": {
				"storage": [
					{
						"astId": 809,
						"contract": "NFT-Contracts/new/final_market_Multi_nft.sol:NFTMultiMarketplace",
						"label": "nftContractFixedSale",
						"offset": 0,
						"slot": "0",
						"type": "t_mapping(t_address,t_mapping(t_uint256,t_struct(FixedSale)780_storage))"
					},
					{
						"astId": 815,
						"contract": "NFT-Contracts/new/final_market_Multi_nft.sol:NFTMultiMarketplace",
						"label": "nftSaleStatus",
						"offset": 0,
						"slot": "1",
						"type": "t_mapping(t_address,t_mapping(t_uint256,t_uint256))"
					},
					{
						"astId": 821,
						"contract": "NFT-Contracts/new/final_market_Multi_nft.sol:NFTMultiMarketplace",
						"label": "indexFixedSaleNFT",
						"offset": 0,
						"slot": "2",
						"type": "t_mapping(t_address,t_mapping(t_uint256,t_uint256))"
					},
					{
						"astId": 828,
						"contract": "NFT-Contracts/new/final_market_Multi_nft.sol:NFTMultiMarketplace",
						"label": "nftContractAuctionSale",
						"offset": 0,
						"slot": "3",
						"type": "t_mapping(t_address,t_mapping(t_uint256,t_struct(Auction)797_storage))"
					},
					{
						"astId": 836,
						"contract": "NFT-Contracts/new/final_market_Multi_nft.sol:NFTMultiMarketplace",
						"label": "userBidPriceOnNFT",
						"offset": 0,
						"slot": "4",
						"type": "t_mapping(t_address,t_mapping(t_uint256,t_mapping(t_address,t_uint256)))"
					},
					{
						"astId": 842,
						"contract": "NFT-Contracts/new/final_market_Multi_nft.sol:NFTMultiMarketplace",
						"label": "indexAuctionSaleNFT",
						"offset": 0,
						"slot": "5",
						"type": "t_mapping(t_address,t_mapping(t_uint256,t_uint256))"
					},
					{
						"astId": 846,
						"contract": "NFT-Contracts/new/final_market_Multi_nft.sol:NFTMultiMarketplace",
						"label": "fixedSaleNFT",
						"offset": 0,
						"slot": "6",
						"type": "t_array(t_struct(SaleInfo)802_storage)dyn_storage"
					},
					{
						"astId": 850,
						"contract": "NFT-Contracts/new/final_market_Multi_nft.sol:NFTMultiMarketplace",
						"label": "auctionSaleNFT",
						"offset": 0,
						"slot": "7",
						"type": "t_array(t_struct(SaleInfo)802_storage)dyn_storage"
					}
				],
				"types": {
					"t_address": {
						"encoding": "inplace",
						"label": "address",
						"numberOfBytes": "20"
					},
					"t_array(t_struct(SaleInfo)802_storage)dyn_storage": {
						"base": "t_struct(SaleInfo)802_storage",
						"encoding": "dynamic_array",
						"label": "struct NFTMultiMarketplace.SaleInfo[]",
						"numberOfBytes": "32"
					},
					"t_mapping(t_address,t_mapping(t_uint256,t_mapping(t_address,t_uint256)))": {
						"encoding": "mapping",
						"key": "t_address",
						"label": "mapping(address => mapping(uint256 => mapping(address => uint256)))",
						"numberOfBytes": "32",
						"value": "t_mapping(t_uint256,t_mapping(t_address,t_uint256))"
					},
					"t_mapping(t_address,t_mapping(t_uint256,t_struct(Auction)797_storage))": {
						"encoding": "mapping",
						"key": "t_address",
						"label": "mapping(address => mapping(uint256 => struct NFTMultiMarketplace.Auction))",
						"numberOfBytes": "32",
						"value": "t_mapping(t_uint256,t_struct(Auction)797_storage)"
					},
					"t_mapping(t_address,t_mapping(t_uint256,t_struct(FixedSale)780_storage))": {
						"encoding": "mapping",
						"key": "t_address",
						"label": "mapping(address => mapping(uint256 => struct NFTMultiMarketplace.FixedSale))",
						"numberOfBytes": "32",
						"value": "t_mapping(t_uint256,t_struct(FixedSale)780_storage)"
					},
					"t_mapping(t_address,t_mapping(t_uint256,t_uint256))": {
						"encoding": "mapping",
						"key": "t_address",
						"label": "mapping(address => mapping(uint256 => uint256))",
						"numberOfBytes": "32",
						"value": "t_mapping(t_uint256,t_uint256)"
					},
					"t_mapping(t_address,t_uint256)": {
						"encoding": "mapping",
						"key": "t_address",
						"label": "mapping(address => uint256)",
						"numberOfBytes": "32",
						"value": "t_uint256"
					},
					"t_mapping(t_uint256,t_mapping(t_address,t_uint256))": {
						"encoding": "mapping",
						"key": "t_uint256",
						"label": "mapping(uint256 => mapping(address => uint256))",
						"numberOfBytes": "32",
						"value": "t_mapping(t_address,t_uint256)"
					},
					"t_mapping(t_uint256,t_struct(Auction)797_storage)": {
						"encoding": "mapping",
						"key": "t_uint256",
						"label": "mapping(uint256 => struct NFTMultiMarketplace.Auction)",
						"numberOfBytes": "32",
						"value": "t_struct(Auction)797_storage"
					},
					"t_mapping(t_uint256,t_struct(FixedSale)780_storage)": {
						"encoding": "mapping",
						"key": "t_uint256",
						"label": "mapping(uint256 => struct NFTMultiMarketplace.FixedSale)",
						"numberOfBytes": "32",
						"value": "t_struct(FixedSale)780_storage"
					},
					"t_mapping(t_uint256,t_uint256)": {
						"encoding": "mapping",
						"key": "t_uint256",
						"label": "mapping(uint256 => uint256)",
						"numberOfBytes": "32",
						"value": "t_uint256"
					},
					"t_struct(Auction)797_storage": {
						"encoding": "inplace",
						"label": "struct NFTMultiMarketplace.Auction",
						"members": [
							{
								"astId": 782,
								"contract": "NFT-Contracts/new/final_market_Multi_nft.sol:NFTMultiMarketplace",
								"label": "auctionStart",
								"offset": 0,
								"slot": "0",
								"type": "t_uint256"
							},
							{
								"astId": 784,
								"contract": "NFT-Contracts/new/final_market_Multi_nft.sol:NFTMultiMarketplace",
								"label": "auctionEnd",
								"offset": 0,
								"slot": "1",
								"type": "t_uint256"
							},
							{
								"astId": 786,
								"contract": "NFT-Contracts/new/final_market_Multi_nft.sol:NFTMultiMarketplace",
								"label": "minPrice",
								"offset": 0,
								"slot": "2",
								"type": "t_uint256"
							},
							{
								"astId": 788,
								"contract": "NFT-Contracts/new/final_market_Multi_nft.sol:NFTMultiMarketplace",
								"label": "nftHighestBid",
								"offset": 0,
								"slot": "3",
								"type": "t_uint256"
							},
							{
								"astId": 790,
								"contract": "NFT-Contracts/new/final_market_Multi_nft.sol:NFTMultiMarketplace",
								"label": "nftAmount",
								"offset": 0,
								"slot": "4",
								"type": "t_uint256"
							},
							{
								"astId": 792,
								"contract": "NFT-Contracts/new/final_market_Multi_nft.sol:NFTMultiMarketplace",
								"label": "nftHighestBidder",
								"offset": 0,
								"slot": "5",
								"type": "t_address"
							},
							{
								"astId": 794,
								"contract": "NFT-Contracts/new/final_market_Multi_nft.sol:NFTMultiMarketplace",
								"label": "nftSeller",
								"offset": 0,
								"slot": "6",
								"type": "t_address"
							},
							{
								"astId": 796,
								"contract": "NFT-Contracts/new/final_market_Multi_nft.sol:NFTMultiMarketplace",
								"label": "erc20",
								"offset": 0,
								"slot": "7",
								"type": "t_address"
							}
						],
						"numberOfBytes": "256"
					},
					"t_struct(FixedSale)780_storage": {
						"encoding": "inplace",
						"label": "struct NFTMultiMarketplace.FixedSale",
						"members": [
							{
								"astId": 771,
								"contract": "NFT-Contracts/new/final_market_Multi_nft.sol:NFTMultiMarketplace",
								"label": "nftSeller",
								"offset": 0,
								"slot": "0",
								"type": "t_address"
							},
							{
								"astId": 773,
								"contract": "NFT-Contracts/new/final_market_Multi_nft.sol:NFTMultiMarketplace",
								"label": "nftBuyer",
								"offset": 0,
								"slot": "1",
								"type": "t_address"
							},
							{
								"astId": 775,
								"contract": "NFT-Contracts/new/final_market_Multi_nft.sol:NFTMultiMarketplace",
								"label": "erc20",
								"offset": 0,
								"slot": "2",
								"type": "t_address"
							},
							{
								"astId": 777,
								"contract": "NFT-Contracts/new/final_market_Multi_nft.sol:NFTMultiMarketplace",
								"label": "amount",
								"offset": 0,
								"slot": "3",
								"type": "t_uint256"
							},
							{
								"astId": 779,
								"contract": "NFT-Contracts/new/final_market_Multi_nft.sol:NFTMultiMarketplace",
								"label": "salePrice",
								"offset": 0,
								"slot": "4",
								"type": "t_uint256"
							}
						],
						"numberOfBytes": "160"
					},
					"t_struct(SaleInfo)802_storage": {
						"encoding": "inplace",
						"label": "struct NFTMultiMarketplace.SaleInfo",
						"members": [
							{
								"astId": 799,
								"contract": "NFT-Contracts/new/final_market_Multi_nft.sol:NFTMultiMarketplace",
								"label": "_nftContractAddress",
								"offset": 0,
								"slot": "0",
								"type": "t_address"
							},
							{
								"astId": 801,
								"contract": "NFT-Contracts/new/final_market_Multi_nft.sol:NFTMultiMarketplace",
								"label": "_tokenID",
								"offset": 0,
								"slot": "1",
								"type": "t_uint256"
							}
						],
						"numberOfBytes": "64"
					},
					"t_uint256": {
						"encoding": "inplace",
						"label": "uint256",
						"numberOfBytes": "32"
					}
				}
			},
			"userdoc": {
				"kind": "user",
				"methods": {},
				"version": 1
			}
		}
	}
}