{
	"market_place.sol": {
		"MarketPlace": {
			"abi": [
				{
					"inputs": [
						{
							"internalType": "uint8",
							"name": "_buyerFee",
							"type": "uint8"
						},
						{
							"internalType": "uint8",
							"name": "_sellerFee",
							"type": "uint8"
						}
					],
					"stateMutability": "nonpayable",
					"type": "constructor"
				},
				{
					"anonymous": false,
					"inputs": [
						{
							"indexed": true,
							"internalType": "address",
							"name": "Owner",
							"type": "address"
						},
						{
							"indexed": true,
							"internalType": "uint256",
							"name": "tokenId",
							"type": "uint256"
						},
						{
							"indexed": false,
							"internalType": "uint256",
							"name": "quantity",
							"type": "uint256"
						},
						{
							"indexed": true,
							"internalType": "address",
							"name": "buyer",
							"type": "address"
						}
					],
					"name": "BuyAsset",
					"type": "event"
				},
				{
					"anonymous": false,
					"inputs": [
						{
							"indexed": true,
							"internalType": "address",
							"name": "Owner",
							"type": "address"
						},
						{
							"indexed": true,
							"internalType": "uint256",
							"name": "tokenId",
							"type": "uint256"
						},
						{
							"indexed": false,
							"internalType": "uint256",
							"name": "quantity",
							"type": "uint256"
						},
						{
							"indexed": true,
							"internalType": "address",
							"name": "buyer",
							"type": "address"
						}
					],
					"name": "ExecuteBid",
					"type": "event"
				},
				{
					"anonymous": false,
					"inputs": [
						{
							"indexed": true,
							"internalType": "address",
							"name": "previousOwner",
							"type": "address"
						},
						{
							"indexed": true,
							"internalType": "address",
							"name": "newOwner",
							"type": "address"
						}
					],
					"name": "OwnershipTransferred",
					"type": "event"
				},
				{
					"inputs": [],
					"name": "Owner",
					"outputs": [
						{
							"internalType": "address",
							"name": "",
							"type": "address"
						}
					],
					"stateMutability": "view",
					"type": "function"
				},
				{
					"inputs": [
						{
							"components": [
								{
									"internalType": "address",
									"name": "seller",
									"type": "address"
								},
								{
									"internalType": "address",
									"name": "buyer",
									"type": "address"
								},
								{
									"internalType": "address",
									"name": "erc20Address",
									"type": "address"
								},
								{
									"internalType": "address",
									"name": "nftAddress",
									"type": "address"
								},
								{
									"internalType": "enum MarketPlace.BuyType",
									"name": "nftType",
									"type": "uint8"
								},
								{
									"internalType": "uint256",
									"name": "unitPrice",
									"type": "uint256"
								},
								{
									"internalType": "uint256",
									"name": "amount",
									"type": "uint256"
								},
								{
									"internalType": "uint256",
									"name": "tokenId",
									"type": "uint256"
								},
								{
									"internalType": "uint256",
									"name": "qty",
									"type": "uint256"
								}
							],
							"internalType": "struct MarketPlace.Trade",
							"name": "trade",
							"type": "tuple"
						},
						{
							"components": [
								{
									"internalType": "uint256",
									"name": "platformFee",
									"type": "uint256"
								},
								{
									"internalType": "uint256",
									"name": "assetFee",
									"type": "uint256"
								},
								{
									"internalType": "uint256",
									"name": "royaltyFee",
									"type": "uint256"
								},
								{
									"internalType": "uint256",
									"name": "price",
									"type": "uint256"
								},
								{
									"internalType": "address",
									"name": "tokenCreator",
									"type": "address"
								}
							],
							"internalType": "struct MarketPlace.Fee",
							"name": "fee",
							"type": "tuple"
						},
						{
							"internalType": "address",
							"name": "buyer",
							"type": "address"
						},
						{
							"internalType": "address",
							"name": "seller",
							"type": "address"
						}
					],
					"name": "Sell",
					"outputs": [],
					"stateMutability": "nonpayable",
					"type": "function"
				},
				{
					"inputs": [
						{
							"components": [
								{
									"internalType": "address",
									"name": "seller",
									"type": "address"
								},
								{
									"internalType": "address",
									"name": "buyer",
									"type": "address"
								},
								{
									"internalType": "address",
									"name": "erc20Address",
									"type": "address"
								},
								{
									"internalType": "address",
									"name": "nftAddress",
									"type": "address"
								},
								{
									"internalType": "enum MarketPlace.BuyType",
									"name": "nftType",
									"type": "uint8"
								},
								{
									"internalType": "uint256",
									"name": "unitPrice",
									"type": "uint256"
								},
								{
									"internalType": "uint256",
									"name": "amount",
									"type": "uint256"
								},
								{
									"internalType": "uint256",
									"name": "tokenId",
									"type": "uint256"
								},
								{
									"internalType": "uint256",
									"name": "qty",
									"type": "uint256"
								}
							],
							"internalType": "struct MarketPlace.Trade",
							"name": "trade",
							"type": "tuple"
						}
					],
					"name": "buyAsset",
					"outputs": [
						{
							"internalType": "bool",
							"name": "",
							"type": "bool"
						}
					],
					"stateMutability": "nonpayable",
					"type": "function"
				},
				{
					"inputs": [],
					"name": "buyerServiceFee",
					"outputs": [
						{
							"internalType": "uint8",
							"name": "",
							"type": "uint8"
						}
					],
					"stateMutability": "view",
					"type": "function"
				},
				{
					"inputs": [
						{
							"internalType": "uint256",
							"name": "_amount",
							"type": "uint256"
						},
						{
							"internalType": "enum MarketPlace.BuyType",
							"name": "buytype",
							"type": "uint8"
						},
						{
							"internalType": "address",
							"name": "_nftAddress",
							"type": "address"
						},
						{
							"internalType": "uint256",
							"name": "_tokenId",
							"type": "uint256"
						}
					],
					"name": "getFees",
					"outputs": [
						{
							"components": [
								{
									"internalType": "uint256",
									"name": "platformFee",
									"type": "uint256"
								},
								{
									"internalType": "uint256",
									"name": "assetFee",
									"type": "uint256"
								},
								{
									"internalType": "uint256",
									"name": "royaltyFee",
									"type": "uint256"
								},
								{
									"internalType": "uint256",
									"name": "price",
									"type": "uint256"
								},
								{
									"internalType": "address",
									"name": "tokenCreator",
									"type": "address"
								}
							],
							"internalType": "struct MarketPlace.Fee",
							"name": "",
							"type": "tuple"
						}
					],
					"stateMutability": "view",
					"type": "function"
				},
				{
					"inputs": [],
					"name": "owner",
					"outputs": [
						{
							"internalType": "address",
							"name": "",
							"type": "address"
						}
					],
					"stateMutability": "view",
					"type": "function"
				},
				{
					"inputs": [],
					"name": "renounceOwnership",
					"outputs": [],
					"stateMutability": "nonpayable",
					"type": "function"
				},
				{
					"inputs": [],
					"name": "sellerServiceFee",
					"outputs": [
						{
							"internalType": "uint8",
							"name": "",
							"type": "uint8"
						}
					],
					"stateMutability": "view",
					"type": "function"
				},
				{
					"inputs": [
						{
							"internalType": "uint8",
							"name": "_buyerFee",
							"type": "uint8"
						}
					],
					"name": "setBuyerServiceFee",
					"outputs": [
						{
							"internalType": "bool",
							"name": "",
							"type": "bool"
						}
					],
					"stateMutability": "nonpayable",
					"type": "function"
				},
				{
					"inputs": [
						{
							"internalType": "uint8",
							"name": "_sellerFee",
							"type": "uint8"
						}
					],
					"name": "setSellerServiceFee",
					"outputs": [
						{
							"internalType": "bool",
							"name": "",
							"type": "bool"
						}
					],
					"stateMutability": "nonpayable",
					"type": "function"
				},
				{
					"inputs": [
						{
							"internalType": "address",
							"name": "newOwner",
							"type": "address"
						}
					],
					"name": "transferOwnership",
					"outputs": [],
					"stateMutability": "nonpayable",
					"type": "function"
				}
			],
			"devdoc": {
				"kind": "dev",
				"methods": {
					"owner()": {
						"details": "Returns the address of the current owner."
					},
					"renounceOwnership()": {
						"details": "Leaves the contract without owner. It will not be possible to call `onlyOwner` functions anymore. Can only be called by the current owner. NOTE: Renouncing ownership will leave the contract without an owner, thereby removing any functionality that is only available to the owner."
					},
					"transferOwnership(address)": {
						"details": "Transfers ownership of the contract to a new account (`newOwner`). Can only be called by the current owner."
					}
				},
				"version": 1
			},
			"evm": {
				"assembly": "    /* \"market_place.sol\":261:3749  contract MarketPlace is Ownable{\r... */\n  mstore(0x40, 0x80)\n    /* \"market_place.sol\":1060:1180  constructor (uint8 _buyerFee, uint8 _sellerFee) {\r... */\n  callvalue\n  dup1\n  iszero\n  tag_1\n  jumpi\n  0x00\n  dup1\n  revert\ntag_1:\n  pop\n  mload(0x40)\n  sub(codesize, bytecodeSize)\n  dup1\n  bytecodeSize\n  dup4\n  codecopy\n  dup2\n  dup2\n  add\n  0x40\n  mstore\n  dup2\n  add\n  swap1\n  tag_2\n  swap2\n  swap1\n  tag_3\n  jump\t// in\ntag_2:\n    /* \"External/Ownable.sol\":957:989  _transferOwnership(_msgSender()) */\n  tag_7\n    /* \"External/Ownable.sol\":976:988  _msgSender() */\n  tag_8\n    /* \"External/Ownable.sol\":976:986  _msgSender */\n  shl(0x20, tag_9)\n    /* \"External/Ownable.sol\":976:988  _msgSender() */\n  0x20\n  shr\n  jump\t// in\ntag_8:\n    /* \"External/Ownable.sol\":957:975  _transferOwnership */\n  shl(0x20, tag_10)\n    /* \"External/Ownable.sol\":957:989  _transferOwnership(_msgSender()) */\n  0x20\n  shr\n  jump\t// in\ntag_7:\n    /* \"market_place.sol\":1130:1139  _buyerFee */\n  dup2\n    /* \"market_place.sol\":1119:1127  buyerFee */\n  0x00\n  0x14\n    /* \"market_place.sol\":1119:1139  buyerFee = _buyerFee */\n  0x0100\n  exp\n  dup2\n  sload\n  dup2\n  0xff\n  mul\n  not\n  and\n  swap1\n  dup4\n  0xff\n  and\n  mul\n  or\n  swap1\n  sstore\n  pop\n    /* \"market_place.sol\":1162:1172  _sellerFee */\n  dup1\n    /* \"market_place.sol\":1150:1159  sellerFee */\n  0x00\n  0x15\n    /* \"market_place.sol\":1150:1172  sellerFee = _sellerFee */\n  0x0100\n  exp\n  dup2\n  sload\n  dup2\n  0xff\n  mul\n  not\n  and\n  swap1\n  dup4\n  0xff\n  and\n  mul\n  or\n  swap1\n  sstore\n  pop\n    /* \"market_place.sol\":1060:1180  constructor (uint8 _buyerFee, uint8 _sellerFee) {\r... */\n  pop\n  pop\n    /* \"market_place.sol\":261:3749  contract MarketPlace is Ownable{\r... */\n  jump(tag_12)\n    /* \"External/Context.sol\":145:260  function _msgSender() internal view virtual returns (address payable) {\r... */\ntag_9:\n    /* \"External/Context.sol\":198:213  address payable */\n  0x00\n    /* \"External/Context.sol\":241:251  msg.sender */\n  caller\n    /* \"External/Context.sol\":226:252  return payable(msg.sender) */\n  swap1\n  pop\n    /* \"External/Context.sol\":145:260  function _msgSender() internal view virtual returns (address payable) {\r... */\n  swap1\n  jump\t// out\n    /* \"External/Ownable.sol\":2503:2694  function _transferOwnership(address newOwner) internal virtual {\r... */\ntag_10:\n    /* \"External/Ownable.sol\":2577:2593  address oldOwner */\n  0x00\n    /* \"External/Ownable.sol\":2596:2602  _owner */\n  dup1\n  0x00\n  swap1\n  sload\n  swap1\n  0x0100\n  exp\n  swap1\n  div\n  0xffffffffffffffffffffffffffffffffffffffff\n  and\n    /* \"External/Ownable.sol\":2577:2602  address oldOwner = _owner */\n  swap1\n  pop\n    /* \"External/Ownable.sol\":2622:2630  newOwner */\n  dup2\n    /* \"External/Ownable.sol\":2613:2619  _owner */\n  0x00\n  dup1\n    /* \"External/Ownable.sol\":2613:2630  _owner = newOwner */\n  0x0100\n  exp\n  dup2\n  sload\n  dup2\n  0xffffffffffffffffffffffffffffffffffffffff\n  mul\n  not\n  and\n  swap1\n  dup4\n  0xffffffffffffffffffffffffffffffffffffffff\n  and\n  mul\n  or\n  swap1\n  sstore\n  pop\n    /* \"External/Ownable.sol\":2677:2685  newOwner */\n  dup2\n    /* \"External/Ownable.sol\":2646:2686  OwnershipTransferred(oldOwner, newOwner) */\n  0xffffffffffffffffffffffffffffffffffffffff\n  and\n    /* \"External/Ownable.sol\":2667:2675  oldOwner */\n  dup2\n    /* \"External/Ownable.sol\":2646:2686  OwnershipTransferred(oldOwner, newOwner) */\n  0xffffffffffffffffffffffffffffffffffffffff\n  and\n  0x8be0079c531659141344cd1fd0a4f28419497f9722a3daafe3b4186f6b6457e0\n  mload(0x40)\n  mload(0x40)\n  dup1\n  swap2\n  sub\n  swap1\n  log3\n    /* \"External/Ownable.sol\":2566:2694  {\r... */\n  pop\n    /* \"External/Ownable.sol\":2503:2694  function _transferOwnership(address newOwner) internal virtual {\r... */\n  pop\n  jump\t// out\n    /* \"#utility.yul\":7:146   */\ntag_16:\n    /* \"#utility.yul\":62:67   */\n  0x00\n    /* \"#utility.yul\":93:99   */\n  dup2\n    /* \"#utility.yul\":87:100   */\n  mload\n    /* \"#utility.yul\":78:100   */\n  swap1\n  pop\n    /* \"#utility.yul\":109:140   */\n  tag_18\n    /* \"#utility.yul\":134:139   */\n  dup2\n    /* \"#utility.yul\":109:140   */\n  tag_19\n  jump\t// in\ntag_18:\n    /* \"#utility.yul\":7:146   */\n  swap3\n  swap2\n  pop\n  pop\n  jump\t// out\n    /* \"#utility.yul\":152:651   */\ntag_3:\n    /* \"#utility.yul\":227:233   */\n  0x00\n    /* \"#utility.yul\":235:241   */\n  dup1\n    /* \"#utility.yul\":284:286   */\n  0x40\n    /* \"#utility.yul\":272:281   */\n  dup4\n    /* \"#utility.yul\":263:270   */\n  dup6\n    /* \"#utility.yul\":259:282   */\n  sub\n    /* \"#utility.yul\":255:287   */\n  slt\n    /* \"#utility.yul\":252:371   */\n  iszero\n  tag_21\n  jumpi\n    /* \"#utility.yul\":290:369   */\n  tag_22\n  tag_23\n  jump\t// in\ntag_22:\n    /* \"#utility.yul\":252:371   */\ntag_21:\n    /* \"#utility.yul\":410:411   */\n  0x00\n    /* \"#utility.yul\":435:497   */\n  tag_24\n    /* \"#utility.yul\":489:496   */\n  dup6\n    /* \"#utility.yul\":480:486   */\n  dup3\n    /* \"#utility.yul\":469:478   */\n  dup7\n    /* \"#utility.yul\":465:487   */\n  add\n    /* \"#utility.yul\":435:497   */\n  tag_16\n  jump\t// in\ntag_24:\n    /* \"#utility.yul\":425:497   */\n  swap3\n  pop\n    /* \"#utility.yul\":381:507   */\n  pop\n    /* \"#utility.yul\":546:548   */\n  0x20\n    /* \"#utility.yul\":572:634   */\n  tag_25\n    /* \"#utility.yul\":626:633   */\n  dup6\n    /* \"#utility.yul\":617:623   */\n  dup3\n    /* \"#utility.yul\":606:615   */\n  dup7\n    /* \"#utility.yul\":602:624   */\n  add\n    /* \"#utility.yul\":572:634   */\n  tag_16\n  jump\t// in\ntag_25:\n    /* \"#utility.yul\":562:634   */\n  swap2\n  pop\n    /* \"#utility.yul\":517:644   */\n  pop\n    /* \"#utility.yul\":152:651   */\n  swap3\n  pop\n  swap3\n  swap1\n  pop\n  jump\t// out\n    /* \"#utility.yul\":738:824   */\ntag_28:\n    /* \"#utility.yul\":773:780   */\n  0x00\n    /* \"#utility.yul\":813:817   */\n  0xff\n    /* \"#utility.yul\":806:811   */\n  dup3\n    /* \"#utility.yul\":802:818   */\n  and\n    /* \"#utility.yul\":791:818   */\n  swap1\n  pop\n    /* \"#utility.yul\":738:824   */\n  swap2\n  swap1\n  pop\n  jump\t// out\n    /* \"#utility.yul\":953:1070   */\ntag_23:\n    /* \"#utility.yul\":1062:1063   */\n  0x00\n    /* \"#utility.yul\":1059:1060   */\n  dup1\n    /* \"#utility.yul\":1052:1064   */\n  revert\n    /* \"#utility.yul\":1076:1194   */\ntag_19:\n    /* \"#utility.yul\":1147:1169   */\n  tag_34\n    /* \"#utility.yul\":1163:1168   */\n  dup2\n    /* \"#utility.yul\":1147:1169   */\n  tag_28\n  jump\t// in\ntag_34:\n    /* \"#utility.yul\":1140:1145   */\n  dup2\n    /* \"#utility.yul\":1137:1170   */\n  eq\n    /* \"#utility.yul\":1127:1188   */\n  tag_35\n  jumpi\n    /* \"#utility.yul\":1184:1185   */\n  0x00\n    /* \"#utility.yul\":1181:1182   */\n  dup1\n    /* \"#utility.yul\":1174:1186   */\n  revert\n    /* \"#utility.yul\":1127:1188   */\ntag_35:\n    /* \"#utility.yul\":1076:1194   */\n  pop\n  jump\t// out\n    /* \"market_place.sol\":261:3749  contract MarketPlace is Ownable{\r... */\ntag_12:\n  dataSize(sub_0)\n  dup1\n  dataOffset(sub_0)\n  0x00\n  codecopy\n  0x00\n  return\nstop\n\nsub_0: assembly {\n        /* \"market_place.sol\":261:3749  contract MarketPlace is Ownable{\r... */\n      mstore(0x40, 0x80)\n      callvalue\n      dup1\n      iszero\n      tag_1\n      jumpi\n      0x00\n      dup1\n      revert\n    tag_1:\n      pop\n      jumpi(tag_2, lt(calldatasize, 0x04))\n      shr(0xe0, calldataload(0x00))\n      dup1\n      0xa3667c7b\n      gt\n      tag_14\n      jumpi\n      dup1\n      0xa3667c7b\n      eq\n      tag_8\n      jumpi\n      dup1\n      0xa96b446d\n      eq\n      tag_9\n      jumpi\n      dup1\n      0xb4a99a4e\n      eq\n      tag_10\n      jumpi\n      dup1\n      0xb6b49c8a\n      eq\n      tag_11\n      jumpi\n      dup1\n      0xdb90a177\n      eq\n      tag_12\n      jumpi\n      dup1\n      0xf2fde38b\n      eq\n      tag_13\n      jumpi\n      jump(tag_2)\n    tag_14:\n      dup1\n      0x2fd001c7\n      eq\n      tag_3\n      jumpi\n      dup1\n      0x60085da6\n      eq\n      tag_4\n      jumpi\n      dup1\n      0x715018a6\n      eq\n      tag_5\n      jumpi\n      dup1\n      0x8da5cb5b\n      eq\n      tag_6\n      jumpi\n      dup1\n      0x9c66809d\n      eq\n      tag_7\n      jumpi\n    tag_2:\n      0x00\n      dup1\n      revert\n        /* \"market_place.sol\":1701:2455  function Sell(Trade calldata trade, Fee memory fee, address buyer, address seller) public {\r... */\n    tag_3:\n      tag_15\n      0x04\n      dup1\n      calldatasize\n      sub\n      dup2\n      add\n      swap1\n      tag_16\n      swap2\n      swap1\n      tag_17\n      jump\t// in\n    tag_16:\n      tag_18\n      jump\t// in\n    tag_15:\n      stop\n        /* \"market_place.sol\":1291:1392  function sellerServiceFee() external view virtual returns (uint8) {\r... */\n    tag_4:\n      tag_19\n      tag_20\n      jump\t// in\n    tag_19:\n      mload(0x40)\n      tag_21\n      swap2\n      swap1\n      tag_22\n      jump\t// in\n    tag_21:\n      mload(0x40)\n      dup1\n      swap2\n      sub\n      swap1\n      return\n        /* \"External/Ownable.sol\":1884:1987  function renounceOwnership() public virtual onlyOwner {\r... */\n    tag_5:\n      tag_23\n      tag_24\n      jump\t// in\n    tag_23:\n      stop\n        /* \"External/Ownable.sol\":1236:1323  function owner() public view virtual returns (address) {\r... */\n    tag_6:\n      tag_25\n      tag_26\n      jump\t// in\n    tag_25:\n      mload(0x40)\n      tag_27\n      swap2\n      swap1\n      tag_28\n      jump\t// in\n    tag_27:\n      mload(0x40)\n      dup1\n      swap2\n      sub\n      swap1\n      return\n        /* \"market_place.sol\":1186:1285  function buyerServiceFee() external view virtual returns (uint8) {\r... */\n    tag_7:\n      tag_29\n      tag_30\n      jump\t// in\n    tag_29:\n      mload(0x40)\n      tag_31\n      swap2\n      swap1\n      tag_22\n      jump\t// in\n    tag_31:\n      mload(0x40)\n      dup1\n      swap2\n      sub\n      swap1\n      return\n        /* \"market_place.sol\":1544:1688  function setSellerServiceFee(uint8 _sellerFee) onlyOwner external  returns(bool) {\r... */\n    tag_8:\n      tag_32\n      0x04\n      dup1\n      calldatasize\n      sub\n      dup2\n      add\n      swap1\n      tag_33\n      swap2\n      swap1\n      tag_34\n      jump\t// in\n    tag_33:\n      tag_35\n      jump\t// in\n    tag_32:\n      mload(0x40)\n      tag_36\n      swap2\n      swap1\n      tag_37\n      jump\t// in\n    tag_36:\n      mload(0x40)\n      dup1\n      swap2\n      sub\n      swap1\n      return\n        /* \"market_place.sol\":1398:1538  function setBuyerServiceFee(uint8 _buyerFee) onlyOwner external  returns(bool) {\r... */\n    tag_9:\n      tag_38\n      0x04\n      dup1\n      calldatasize\n      sub\n      dup2\n      add\n      swap1\n      tag_39\n      swap2\n      swap1\n      tag_34\n      jump\t// in\n    tag_39:\n      tag_40\n      jump\t// in\n    tag_38:\n      mload(0x40)\n      tag_41\n      swap2\n      swap1\n      tag_37\n      jump\t// in\n    tag_41:\n      mload(0x40)\n      dup1\n      swap2\n      sub\n      swap1\n      return\n        /* \"market_place.sol\":618:638  address public Owner */\n    tag_10:\n      tag_42\n      tag_43\n      jump\t// in\n    tag_42:\n      mload(0x40)\n      tag_44\n      swap2\n      swap1\n      tag_28\n      jump\t// in\n    tag_44:\n      mload(0x40)\n      dup1\n      swap2\n      sub\n      swap1\n      return\n        /* \"market_place.sol\":2461:3292  function getFees(uint _amount, BuyType buytype, address _nftAddress, uint _tokenId )public view returns(Fee memory) {\r... */\n    tag_11:\n      tag_45\n      0x04\n      dup1\n      calldatasize\n      sub\n      dup2\n      add\n      swap1\n      tag_46\n      swap2\n      swap1\n      tag_47\n      jump\t// in\n    tag_46:\n      tag_48\n      jump\t// in\n    tag_45:\n      mload(0x40)\n      tag_49\n      swap2\n      swap1\n      tag_50\n      jump\t// in\n    tag_49:\n      mload(0x40)\n      dup1\n      swap2\n      sub\n      swap1\n      return\n        /* \"market_place.sol\":3305:3739  function buyAsset(Trade calldata trade) external returns(bool) {\r... */\n    tag_12:\n      tag_51\n      0x04\n      dup1\n      calldatasize\n      sub\n      dup2\n      add\n      swap1\n      tag_52\n      swap2\n      swap1\n      tag_53\n      jump\t// in\n    tag_52:\n      tag_54\n      jump\t// in\n    tag_51:\n      mload(0x40)\n      tag_55\n      swap2\n      swap1\n      tag_37\n      jump\t// in\n    tag_55:\n      mload(0x40)\n      dup1\n      swap2\n      sub\n      swap1\n      return\n        /* \"External/Ownable.sol\":2142:2343  function transferOwnership(address newOwner) public virtual onlyOwner {\r... */\n    tag_13:\n      tag_56\n      0x04\n      dup1\n      calldatasize\n      sub\n      dup2\n      add\n      swap1\n      tag_57\n      swap2\n      swap1\n      tag_58\n      jump\t// in\n    tag_57:\n      tag_59\n      jump\t// in\n    tag_56:\n      stop\n        /* \"market_place.sol\":1701:2455  function Sell(Trade calldata trade, Fee memory fee, address buyer, address seller) public {\r... */\n    tag_18:\n        /* \"market_place.sol\":1820:1834  BuyType.ERC721 */\n      0x01\n        /* \"market_place.sol\":1803:1834  trade.nftType == BuyType.ERC721 */\n      dup1\n      dup2\n      gt\n      iszero\n      tag_61\n      jumpi\n      tag_62\n      tag_63\n      jump\t// in\n    tag_62:\n    tag_61:\n        /* \"market_place.sol\":1803:1808  trade */\n      dup5\n        /* \"market_place.sol\":1803:1816  trade.nftType */\n      0x80\n      add\n      0x20\n      dup2\n      add\n      swap1\n      tag_64\n      swap2\n      swap1\n      tag_65\n      jump\t// in\n    tag_64:\n        /* \"market_place.sol\":1803:1834  trade.nftType == BuyType.ERC721 */\n      0x01\n      dup2\n      gt\n      iszero\n      tag_66\n      jumpi\n      tag_67\n      tag_63\n      jump\t// in\n    tag_67:\n    tag_66:\n      eq\n        /* \"market_place.sol\":1800:1935  if(trade.nftType == BuyType.ERC721) {\r... */\n      iszero\n      tag_68\n      jumpi\n        /* \"market_place.sol\":1859:1864  trade */\n      dup4\n        /* \"market_place.sol\":1859:1875  trade.nftAddress */\n      0x60\n      add\n      0x20\n      dup2\n      add\n      swap1\n      tag_69\n      swap2\n      swap1\n      tag_58\n      jump\t// in\n    tag_69:\n        /* \"market_place.sol\":1851:1893  IERC721(trade.nftAddress).safeTransferFrom */\n      0xffffffffffffffffffffffffffffffffffffffff\n      and\n      0x42842e0e\n        /* \"market_place.sol\":1894:1900  seller */\n      dup3\n        /* \"market_place.sol\":1902:1907  buyer */\n      dup5\n        /* \"market_place.sol\":1909:1914  trade */\n      dup8\n        /* \"market_place.sol\":1909:1922  trade.tokenId */\n      0xe0\n      add\n      calldataload\n        /* \"market_place.sol\":1851:1923  IERC721(trade.nftAddress).safeTransferFrom(seller, buyer, trade.tokenId) */\n      mload(0x40)\n      dup5\n      0xffffffff\n      and\n      0xe0\n      shl\n      dup2\n      mstore\n      0x04\n      add\n      tag_70\n      swap4\n      swap3\n      swap2\n      swap1\n      tag_71\n      jump\t// in\n    tag_70:\n      0x00\n      mload(0x40)\n      dup1\n      dup4\n      sub\n      dup2\n      0x00\n      dup8\n      dup1\n      extcodesize\n      iszero\n      dup1\n      iszero\n      tag_72\n      jumpi\n      0x00\n      dup1\n      revert\n    tag_72:\n      pop\n      gas\n      call\n      iszero\n      dup1\n      iszero\n      tag_74\n      jumpi\n      returndatasize\n      0x00\n      dup1\n      returndatacopy\n      revert(0x00, returndatasize)\n    tag_74:\n      pop\n      pop\n      pop\n      pop\n        /* \"market_place.sol\":1800:1935  if(trade.nftType == BuyType.ERC721) {\r... */\n    tag_68:\n        /* \"market_place.sol\":1965:1980  BuyType.ERC1155 */\n      0x00\n        /* \"market_place.sol\":1948:1980  trade.nftType == BuyType.ERC1155 */\n      0x01\n      dup2\n      gt\n      iszero\n      tag_75\n      jumpi\n      tag_76\n      tag_63\n      jump\t// in\n    tag_76:\n    tag_75:\n        /* \"market_place.sol\":1948:1953  trade */\n      dup5\n        /* \"market_place.sol\":1948:1961  trade.nftType */\n      0x80\n      add\n      0x20\n      dup2\n      add\n      swap1\n      tag_77\n      swap2\n      swap1\n      tag_65\n      jump\t// in\n    tag_77:\n        /* \"market_place.sol\":1948:1980  trade.nftType == BuyType.ERC1155 */\n      0x01\n      dup2\n      gt\n      iszero\n      tag_78\n      jumpi\n      tag_79\n      tag_63\n      jump\t// in\n    tag_79:\n    tag_78:\n      eq\n        /* \"market_place.sol\":1945:2098  if(trade.nftType == BuyType.ERC1155)  {\r... */\n      iszero\n      tag_80\n      jumpi\n        /* \"market_place.sol\":2007:2012  trade */\n      dup4\n        /* \"market_place.sol\":2007:2023  trade.nftAddress */\n      0x60\n      add\n      0x20\n      dup2\n      add\n      swap1\n      tag_81\n      swap2\n      swap1\n      tag_58\n      jump\t// in\n    tag_81:\n        /* \"market_place.sol\":1998:2041  IERC1155(trade.nftAddress).safeTransferFrom */\n      0xffffffffffffffffffffffffffffffffffffffff\n      and\n      0xf242432a\n        /* \"market_place.sol\":2042:2048  seller */\n      dup3\n        /* \"market_place.sol\":2050:2055  buyer */\n      dup5\n        /* \"market_place.sol\":2057:2062  trade */\n      dup8\n        /* \"market_place.sol\":2057:2070  trade.tokenId */\n      0xe0\n      add\n      calldataload\n        /* \"market_place.sol\":2072:2077  trade */\n      dup9\n        /* \"market_place.sol\":2072:2081  trade.qty */\n      0x0100\n      add\n      calldataload\n        /* \"market_place.sol\":1998:2086  IERC1155(trade.nftAddress).safeTransferFrom(seller, buyer, trade.tokenId, trade.qty, \"\") */\n      mload(0x40)\n      dup6\n      0xffffffff\n      and\n      0xe0\n      shl\n      dup2\n      mstore\n      0x04\n      add\n      tag_82\n      swap5\n      swap4\n      swap3\n      swap2\n      swap1\n      tag_83\n      jump\t// in\n    tag_82:\n      0x00\n      mload(0x40)\n      dup1\n      dup4\n      sub\n      dup2\n      0x00\n      dup8\n      dup1\n      extcodesize\n      iszero\n      dup1\n      iszero\n      tag_84\n      jumpi\n      0x00\n      dup1\n      revert\n    tag_84:\n      pop\n      gas\n      call\n      iszero\n      dup1\n      iszero\n      tag_86\n      jumpi\n      returndatasize\n      0x00\n      dup1\n      returndatacopy\n      revert(0x00, returndatasize)\n    tag_86:\n      pop\n      pop\n      pop\n      pop\n        /* \"market_place.sol\":1945:2098  if(trade.nftType == BuyType.ERC1155)  {\r... */\n    tag_80:\n        /* \"market_place.sol\":2129:2130  0 */\n      0x00\n        /* \"market_place.sol\":2111:2114  fee */\n      dup4\n        /* \"market_place.sol\":2111:2126  fee.platformFee */\n      0x00\n      add\n      mload\n        /* \"market_place.sol\":2111:2130  fee.platformFee > 0 */\n      gt\n        /* \"market_place.sol\":2108:2229  if(fee.platformFee > 0) {\r... */\n      iszero\n      tag_87\n      jumpi\n        /* \"market_place.sol\":2154:2159  trade */\n      dup4\n        /* \"market_place.sol\":2154:2172  trade.erc20Address */\n      0x40\n      add\n      0x20\n      dup2\n      add\n      swap1\n      tag_88\n      swap2\n      swap1\n      tag_58\n      jump\t// in\n    tag_88:\n        /* \"market_place.sol\":2147:2186  IERC20(trade.erc20Address).transferFrom */\n      0xffffffffffffffffffffffffffffffffffffffff\n      and\n      0x23b872dd\n        /* \"market_place.sol\":2187:2192  buyer */\n      dup4\n        /* \"market_place.sol\":2194:2199  Owner */\n      0x01\n      0x00\n      swap1\n      sload\n      swap1\n      0x0100\n      exp\n      swap1\n      div\n      0xffffffffffffffffffffffffffffffffffffffff\n      and\n        /* \"market_place.sol\":2201:2204  fee */\n      dup7\n        /* \"market_place.sol\":2201:2216  fee.platformFee */\n      0x00\n      add\n      mload\n        /* \"market_place.sol\":2147:2217  IERC20(trade.erc20Address).transferFrom(buyer, Owner, fee.platformFee) */\n      mload(0x40)\n      dup5\n      0xffffffff\n      and\n      0xe0\n      shl\n      dup2\n      mstore\n      0x04\n      add\n      tag_89\n      swap4\n      swap3\n      swap2\n      swap1\n      tag_71\n      jump\t// in\n    tag_89:\n      0x20\n      mload(0x40)\n      dup1\n      dup4\n      sub\n      dup2\n      0x00\n      dup8\n      dup1\n      extcodesize\n      iszero\n      dup1\n      iszero\n      tag_90\n      jumpi\n      0x00\n      dup1\n      revert\n    tag_90:\n      pop\n      gas\n      call\n      iszero\n      dup1\n      iszero\n      tag_92\n      jumpi\n      returndatasize\n      0x00\n      dup1\n      returndatacopy\n      revert(0x00, returndatasize)\n    tag_92:\n      pop\n      pop\n      pop\n      pop\n      mload(0x40)\n      returndatasize\n      not(0x1f)\n      0x1f\n      dup3\n      add\n      and\n      dup3\n      add\n      dup1\n      0x40\n      mstore\n      pop\n      dup2\n      add\n      swap1\n      tag_93\n      swap2\n      swap1\n      tag_94\n      jump\t// in\n    tag_93:\n      pop\n        /* \"market_place.sol\":2108:2229  if(fee.platformFee > 0) {\r... */\n    tag_87:\n        /* \"market_place.sol\":2259:2260  0 */\n      0x00\n        /* \"market_place.sol\":2242:2245  fee */\n      dup4\n        /* \"market_place.sol\":2242:2256  fee.royaltyFee */\n      0x40\n      add\n      mload\n        /* \"market_place.sol\":2242:2260  fee.royaltyFee > 0 */\n      gt\n        /* \"market_place.sol\":2239:2369  if(fee.royaltyFee > 0) {\r... */\n      iszero\n      tag_95\n      jumpi\n        /* \"market_place.sol\":2284:2289  trade */\n      dup4\n        /* \"market_place.sol\":2284:2302  trade.erc20Address */\n      0x40\n      add\n      0x20\n      dup2\n      add\n      swap1\n      tag_96\n      swap2\n      swap1\n      tag_58\n      jump\t// in\n    tag_96:\n        /* \"market_place.sol\":2277:2316  IERC20(trade.erc20Address).transferFrom */\n      0xffffffffffffffffffffffffffffffffffffffff\n      and\n      0x23b872dd\n        /* \"market_place.sol\":2317:2322  buyer */\n      dup4\n        /* \"market_place.sol\":2324:2327  fee */\n      dup6\n        /* \"market_place.sol\":2324:2340  fee.tokenCreator */\n      0x80\n      add\n      mload\n        /* \"market_place.sol\":2342:2345  fee */\n      dup7\n        /* \"market_place.sol\":2342:2356  fee.royaltyFee */\n      0x40\n      add\n      mload\n        /* \"market_place.sol\":2277:2357  IERC20(trade.erc20Address).transferFrom(buyer, fee.tokenCreator, fee.royaltyFee) */\n      mload(0x40)\n      dup5\n      0xffffffff\n      and\n      0xe0\n      shl\n      dup2\n      mstore\n      0x04\n      add\n      tag_97\n      swap4\n      swap3\n      swap2\n      swap1\n      tag_71\n      jump\t// in\n    tag_97:\n      0x20\n      mload(0x40)\n      dup1\n      dup4\n      sub\n      dup2\n      0x00\n      dup8\n      dup1\n      extcodesize\n      iszero\n      dup1\n      iszero\n      tag_98\n      jumpi\n      0x00\n      dup1\n      revert\n    tag_98:\n      pop\n      gas\n      call\n      iszero\n      dup1\n      iszero\n      tag_100\n      jumpi\n      returndatasize\n      0x00\n      dup1\n      returndatacopy\n      revert(0x00, returndatasize)\n    tag_100:\n      pop\n      pop\n      pop\n      pop\n      mload(0x40)\n      returndatasize\n      not(0x1f)\n      0x1f\n      dup3\n      add\n      and\n      dup3\n      add\n      dup1\n      0x40\n      mstore\n      pop\n      dup2\n      add\n      swap1\n      tag_101\n      swap2\n      swap1\n      tag_94\n      jump\t// in\n    tag_101:\n      pop\n        /* \"market_place.sol\":2239:2369  if(fee.royaltyFee > 0) {\r... */\n    tag_95:\n        /* \"market_place.sol\":2386:2391  trade */\n      dup4\n        /* \"market_place.sol\":2386:2404  trade.erc20Address */\n      0x40\n      add\n      0x20\n      dup2\n      add\n      swap1\n      tag_102\n      swap2\n      swap1\n      tag_58\n      jump\t// in\n    tag_102:\n        /* \"market_place.sol\":2379:2418  IERC20(trade.erc20Address).transferFrom */\n      0xffffffffffffffffffffffffffffffffffffffff\n      and\n      0x23b872dd\n        /* \"market_place.sol\":2419:2424  buyer */\n      dup4\n        /* \"market_place.sol\":2426:2432  seller */\n      dup4\n        /* \"market_place.sol\":2434:2437  fee */\n      dup7\n        /* \"market_place.sol\":2434:2446  fee.assetFee */\n      0x20\n      add\n      mload\n        /* \"market_place.sol\":2379:2447  IERC20(trade.erc20Address).transferFrom(buyer, seller, fee.assetFee) */\n      mload(0x40)\n      dup5\n      0xffffffff\n      and\n      0xe0\n      shl\n      dup2\n      mstore\n      0x04\n      add\n      tag_103\n      swap4\n      swap3\n      swap2\n      swap1\n      tag_71\n      jump\t// in\n    tag_103:\n      0x20\n      mload(0x40)\n      dup1\n      dup4\n      sub\n      dup2\n      0x00\n      dup8\n      dup1\n      extcodesize\n      iszero\n      dup1\n      iszero\n      tag_104\n      jumpi\n      0x00\n      dup1\n      revert\n    tag_104:\n      pop\n      gas\n      call\n      iszero\n      dup1\n      iszero\n      tag_106\n      jumpi\n      returndatasize\n      0x00\n      dup1\n      returndatacopy\n      revert(0x00, returndatasize)\n    tag_106:\n      pop\n      pop\n      pop\n      pop\n      mload(0x40)\n      returndatasize\n      not(0x1f)\n      0x1f\n      dup3\n      add\n      and\n      dup3\n      add\n      dup1\n      0x40\n      mstore\n      pop\n      dup2\n      add\n      swap1\n      tag_107\n      swap2\n      swap1\n      tag_94\n      jump\t// in\n    tag_107:\n      pop\n        /* \"market_place.sol\":1701:2455  function Sell(Trade calldata trade, Fee memory fee, address buyer, address seller) public {\r... */\n      pop\n      pop\n      pop\n      pop\n      jump\t// out\n        /* \"market_place.sol\":1291:1392  function sellerServiceFee() external view virtual returns (uint8) {\r... */\n    tag_20:\n        /* \"market_place.sol\":1350:1355  uint8 */\n      0x00\n        /* \"market_place.sol\":1375:1384  sellerFee */\n      dup1\n      0x15\n      swap1\n      sload\n      swap1\n      0x0100\n      exp\n      swap1\n      div\n      0xff\n      and\n        /* \"market_place.sol\":1368:1384  return sellerFee */\n      swap1\n      pop\n        /* \"market_place.sol\":1291:1392  function sellerServiceFee() external view virtual returns (uint8) {\r... */\n      swap1\n      jump\t// out\n        /* \"External/Ownable.sol\":1884:1987  function renounceOwnership() public virtual onlyOwner {\r... */\n    tag_24:\n        /* \"External/Ownable.sol\":1122:1135  _checkOwner() */\n      tag_110\n        /* \"External/Ownable.sol\":1122:1133  _checkOwner */\n      tag_111\n        /* \"External/Ownable.sol\":1122:1135  _checkOwner() */\n      jump\t// in\n    tag_110:\n        /* \"External/Ownable.sol\":1949:1979  _transferOwnership(address(0)) */\n      tag_113\n        /* \"External/Ownable.sol\":1976:1977  0 */\n      0x00\n        /* \"External/Ownable.sol\":1949:1967  _transferOwnership */\n      tag_114\n        /* \"External/Ownable.sol\":1949:1979  _transferOwnership(address(0)) */\n      jump\t// in\n    tag_113:\n        /* \"External/Ownable.sol\":1884:1987  function renounceOwnership() public virtual onlyOwner {\r... */\n      jump\t// out\n        /* \"External/Ownable.sol\":1236:1323  function owner() public view virtual returns (address) {\r... */\n    tag_26:\n        /* \"External/Ownable.sol\":1282:1289  address */\n      0x00\n        /* \"External/Ownable.sol\":1309:1315  _owner */\n      dup1\n      0x00\n      swap1\n      sload\n      swap1\n      0x0100\n      exp\n      swap1\n      div\n      0xffffffffffffffffffffffffffffffffffffffff\n      and\n        /* \"External/Ownable.sol\":1302:1315  return _owner */\n      swap1\n      pop\n        /* \"External/Ownable.sol\":1236:1323  function owner() public view virtual returns (address) {\r... */\n      swap1\n      jump\t// out\n        /* \"market_place.sol\":1186:1285  function buyerServiceFee() external view virtual returns (uint8) {\r... */\n    tag_30:\n        /* \"market_place.sol\":1244:1249  uint8 */\n      0x00\n        /* \"market_place.sol\":1269:1277  buyerFee */\n      dup1\n      0x14\n      swap1\n      sload\n      swap1\n      0x0100\n      exp\n      swap1\n      div\n      0xff\n      and\n        /* \"market_place.sol\":1262:1277  return buyerFee */\n      swap1\n      pop\n        /* \"market_place.sol\":1186:1285  function buyerServiceFee() external view virtual returns (uint8) {\r... */\n      swap1\n      jump\t// out\n        /* \"market_place.sol\":1544:1688  function setSellerServiceFee(uint8 _sellerFee) onlyOwner external  returns(bool) {\r... */\n    tag_35:\n        /* \"market_place.sol\":1619:1623  bool */\n      0x00\n        /* \"External/Ownable.sol\":1122:1135  _checkOwner() */\n      tag_118\n        /* \"External/Ownable.sol\":1122:1133  _checkOwner */\n      tag_111\n        /* \"External/Ownable.sol\":1122:1135  _checkOwner() */\n      jump\t// in\n    tag_118:\n        /* \"market_place.sol\":1648:1658  _sellerFee */\n      dup2\n        /* \"market_place.sol\":1636:1645  sellerFee */\n      0x00\n      0x15\n        /* \"market_place.sol\":1636:1658  sellerFee = _sellerFee */\n      0x0100\n      exp\n      dup2\n      sload\n      dup2\n      0xff\n      mul\n      not\n      and\n      swap1\n      dup4\n      0xff\n      and\n      mul\n      or\n      swap1\n      sstore\n      pop\n        /* \"market_place.sol\":1676:1680  true */\n      0x01\n        /* \"market_place.sol\":1669:1680  return true */\n      swap1\n      pop\n        /* \"market_place.sol\":1544:1688  function setSellerServiceFee(uint8 _sellerFee) onlyOwner external  returns(bool) {\r... */\n      swap2\n      swap1\n      pop\n      jump\t// out\n        /* \"market_place.sol\":1398:1538  function setBuyerServiceFee(uint8 _buyerFee) onlyOwner external  returns(bool) {\r... */\n    tag_40:\n        /* \"market_place.sol\":1471:1475  bool */\n      0x00\n        /* \"External/Ownable.sol\":1122:1135  _checkOwner() */\n      tag_121\n        /* \"External/Ownable.sol\":1122:1133  _checkOwner */\n      tag_111\n        /* \"External/Ownable.sol\":1122:1135  _checkOwner() */\n      jump\t// in\n    tag_121:\n        /* \"market_place.sol\":1499:1508  _buyerFee */\n      dup2\n        /* \"market_place.sol\":1488:1496  buyerFee */\n      0x00\n      0x14\n        /* \"market_place.sol\":1488:1508  buyerFee = _buyerFee */\n      0x0100\n      exp\n      dup2\n      sload\n      dup2\n      0xff\n      mul\n      not\n      and\n      swap1\n      dup4\n      0xff\n      and\n      mul\n      or\n      swap1\n      sstore\n      pop\n        /* \"market_place.sol\":1526:1530  true */\n      0x01\n        /* \"market_place.sol\":1519:1530  return true */\n      swap1\n      pop\n        /* \"market_place.sol\":1398:1538  function setBuyerServiceFee(uint8 _buyerFee) onlyOwner external  returns(bool) {\r... */\n      swap2\n      swap1\n      pop\n      jump\t// out\n        /* \"market_place.sol\":618:638  address public Owner */\n    tag_43:\n      0x01\n      0x00\n      swap1\n      sload\n      swap1\n      0x0100\n      exp\n      swap1\n      div\n      0xffffffffffffffffffffffffffffffffffffffff\n      and\n      dup2\n      jump\t// out\n        /* \"market_place.sol\":2461:3292  function getFees(uint _amount, BuyType buytype, address _nftAddress, uint _tokenId )public view returns(Fee memory) {\r... */\n    tag_48:\n        /* \"market_place.sol\":2565:2575  Fee memory */\n      tag_123\n      tag_124\n      jump\t// in\n    tag_123:\n        /* \"market_place.sol\":2584:2602  Trade memory trade */\n      tag_126\n      tag_127\n      jump\t// in\n    tag_126:\n        /* \"market_place.sol\":2628:2644  uint platformFee */\n      0x00\n        /* \"market_place.sol\":2670:2674  1000 */\n      0x03e8\n        /* \"market_place.sol\":2652:2657  trade */\n      dup3\n        /* \"market_place.sol\":2652:2667  trade.unitPrice */\n      0xa0\n      add\n      mload\n        /* \"market_place.sol\":2648:2650  25 */\n      0x19\n        /* \"market_place.sol\":2648:2668  25*(trade.unitPrice) */\n      tag_128\n      swap2\n      swap1\n      tag_129\n      jump\t// in\n    tag_128:\n        /* \"market_place.sol\":2647:2674  (25*(trade.unitPrice))/1000 */\n      tag_130\n      swap2\n      swap1\n      tag_131\n      jump\t// in\n    tag_130:\n        /* \"market_place.sol\":2628:2674  uint platformFee = (25*(trade.unitPrice))/1000 */\n      swap1\n      pop\n        /* \"market_place.sol\":2689:2702  uint assetFee */\n      0x00\n        /* \"market_place.sol\":2705:2710  trade */\n      dup3\n        /* \"market_place.sol\":2705:2720  trade.unitPrice */\n      0xa0\n      add\n      mload\n        /* \"market_place.sol\":2689:2721  uint assetFee =(trade.unitPrice) */\n      swap1\n      pop\n        /* \"market_place.sol\":2736:2751  uint royaltyFee */\n      0x00\n        /* \"market_place.sol\":2776:2779  100 */\n      0x64\n        /* \"market_place.sol\":2759:2764  trade */\n      dup5\n        /* \"market_place.sol\":2759:2774  trade.unitPrice */\n      0xa0\n      add\n      mload\n        /* \"market_place.sol\":2755:2757  10 */\n      0x0a\n        /* \"market_place.sol\":2755:2775  10*(trade.unitPrice) */\n      tag_132\n      swap2\n      swap1\n      tag_129\n      jump\t// in\n    tag_132:\n        /* \"market_place.sol\":2755:2779  10*(trade.unitPrice)/100 */\n      tag_133\n      swap2\n      swap1\n      tag_131\n      jump\t// in\n    tag_133:\n        /* \"market_place.sol\":2736:2780  uint royaltyFee = (10*(trade.unitPrice)/100) */\n      swap1\n      pop\n        /* \"market_place.sol\":2795:2805  uint price */\n      0x00\n        /* \"market_place.sol\":2852:2857  trade */\n      dup5\n        /* \"market_place.sol\":2852:2861  trade.qty */\n      0x0100\n      add\n      mload\n        /* \"market_place.sol\":2834:2839  trade */\n      dup6\n        /* \"market_place.sol\":2834:2849  trade.unitPrice */\n      0xa0\n      add\n      mload\n        /* \"market_place.sol\":2834:2861  trade.unitPrice * trade.qty */\n      tag_134\n      swap2\n      swap1\n      tag_129\n      jump\t// in\n    tag_134:\n        /* \"market_place.sol\":2823:2831  buyerFee */\n      0x00\n      0x14\n      swap1\n      sload\n      swap1\n      0x0100\n      exp\n      swap1\n      div\n      0xff\n      and\n        /* \"market_place.sol\":2809:2831  platformFee + buyerFee */\n      0xff\n      and\n        /* \"market_place.sol\":2809:2820  platformFee */\n      dup6\n        /* \"market_place.sol\":2809:2831  platformFee + buyerFee */\n      tag_135\n      swap2\n      swap1\n      tag_136\n      jump\t// in\n    tag_135:\n        /* \"market_place.sol\":2809:2862  platformFee + buyerFee+ (trade.unitPrice * trade.qty) */\n      tag_137\n      swap2\n      swap1\n      tag_136\n      jump\t// in\n    tag_137:\n        /* \"market_place.sol\":2795:2862  uint price =  platformFee + buyerFee+ (trade.unitPrice * trade.qty) */\n      swap1\n      pop\n        /* \"market_place.sol\":2919:2939  address tokenCreator */\n      0x00\n        /* \"market_place.sol\":2967:2981  BuyType.ERC721 */\n      0x01\n        /* \"market_place.sol\":2956:2981  buytype == BuyType.ERC721 */\n      dup1\n      dup2\n      gt\n      iszero\n      tag_138\n      jumpi\n      tag_139\n      tag_63\n      jump\t// in\n    tag_139:\n    tag_138:\n        /* \"market_place.sol\":2956:2963  buytype */\n      dup11\n        /* \"market_place.sol\":2956:2981  buytype == BuyType.ERC721 */\n      0x01\n      dup2\n      gt\n      iszero\n      tag_140\n      jumpi\n      tag_141\n      tag_63\n      jump\t// in\n    tag_141:\n    tag_140:\n      eq\n        /* \"market_place.sol\":2953:3065  if(buytype == BuyType.ERC721) {\r... */\n      iszero\n      tag_142\n      jumpi\n        /* \"market_place.sol\":3020:3031  _nftAddress */\n      dup9\n        /* \"market_place.sol\":3012:3043  IERC721(_nftAddress).getCreator */\n      0xffffffffffffffffffffffffffffffffffffffff\n      and\n      0xd48e638a\n        /* \"market_place.sol\":3044:3052  _tokenId */\n      dup10\n        /* \"market_place.sol\":3012:3053  IERC721(_nftAddress).getCreator(_tokenId) */\n      mload(0x40)\n      dup3\n      0xffffffff\n      and\n      0xe0\n      shl\n      dup2\n      mstore\n      0x04\n      add\n      tag_143\n      swap2\n      swap1\n      tag_144\n      jump\t// in\n    tag_143:\n      0x20\n      mload(0x40)\n      dup1\n      dup4\n      sub\n      dup2\n      dup7\n      dup1\n      extcodesize\n      iszero\n      dup1\n      iszero\n      tag_145\n      jumpi\n      0x00\n      dup1\n      revert\n    tag_145:\n      pop\n      gas\n      staticcall\n      iszero\n      dup1\n      iszero\n      tag_147\n      jumpi\n      returndatasize\n      0x00\n      dup1\n      returndatacopy\n      revert(0x00, returndatasize)\n    tag_147:\n      pop\n      pop\n      pop\n      pop\n      mload(0x40)\n      returndatasize\n      not(0x1f)\n      0x1f\n      dup3\n      add\n      and\n      dup3\n      add\n      dup1\n      0x40\n      mstore\n      pop\n      dup2\n      add\n      swap1\n      tag_148\n      swap2\n      swap1\n      tag_149\n      jump\t// in\n    tag_148:\n        /* \"market_place.sol\":2998:3053  tokenCreator= IERC721(_nftAddress).getCreator(_tokenId) */\n      swap1\n      pop\n        /* \"market_place.sol\":2953:3065  if(buytype == BuyType.ERC721) {\r... */\n    tag_142:\n        /* \"market_place.sol\":3089:3104  BuyType.ERC1155 */\n      0x00\n        /* \"market_place.sol\":3078:3104  buytype == BuyType.ERC1155 */\n      0x01\n      dup2\n      gt\n      iszero\n      tag_150\n      jumpi\n      tag_151\n      tag_63\n      jump\t// in\n    tag_151:\n    tag_150:\n        /* \"market_place.sol\":3078:3085  buytype */\n      dup11\n        /* \"market_place.sol\":3078:3104  buytype == BuyType.ERC1155 */\n      0x01\n      dup2\n      gt\n      iszero\n      tag_152\n      jumpi\n      tag_153\n      tag_63\n      jump\t// in\n    tag_153:\n    tag_152:\n      eq\n        /* \"market_place.sol\":3075:3185  if(buytype == BuyType.ERC1155) {\r... */\n      iszero\n      tag_154\n      jumpi\n        /* \"market_place.sol\":3140:3151  _nftAddress */\n      dup9\n        /* \"market_place.sol\":3131:3163  IERC1155(_nftAddress).getCreator */\n      0xffffffffffffffffffffffffffffffffffffffff\n      and\n      0xd48e638a\n        /* \"market_place.sol\":3164:3172  _tokenId */\n      dup10\n        /* \"market_place.sol\":3131:3173  IERC1155(_nftAddress).getCreator(_tokenId) */\n      mload(0x40)\n      dup3\n      0xffffffff\n      and\n      0xe0\n      shl\n      dup2\n      mstore\n      0x04\n      add\n      tag_155\n      swap2\n      swap1\n      tag_144\n      jump\t// in\n    tag_155:\n      0x20\n      mload(0x40)\n      dup1\n      dup4\n      sub\n      dup2\n      dup7\n      dup1\n      extcodesize\n      iszero\n      dup1\n      iszero\n      tag_156\n      jumpi\n      0x00\n      dup1\n      revert\n    tag_156:\n      pop\n      gas\n      staticcall\n      iszero\n      dup1\n      iszero\n      tag_158\n      jumpi\n      returndatasize\n      0x00\n      dup1\n      returndatacopy\n      revert(0x00, returndatasize)\n    tag_158:\n      pop\n      pop\n      pop\n      pop\n      mload(0x40)\n      returndatasize\n      not(0x1f)\n      0x1f\n      dup3\n      add\n      and\n      dup3\n      add\n      dup1\n      0x40\n      mstore\n      pop\n      dup2\n      add\n      swap1\n      tag_159\n      swap2\n      swap1\n      tag_149\n      jump\t// in\n    tag_159:\n        /* \"market_place.sol\":3117:3173  tokenCreator= IERC1155(_nftAddress).getCreator(_tokenId) */\n      swap1\n      pop\n        /* \"market_place.sol\":3075:3185  if(buytype == BuyType.ERC1155) {\r... */\n    tag_154:\n        /* \"market_place.sol\":3206:3261  Fee(platformFee,assetFee,royaltyFee,price,tokenCreator) */\n      mload(0x40)\n      dup1\n      0xa0\n      add\n      0x40\n      mstore\n      dup1\n        /* \"market_place.sol\":3210:3221  platformFee */\n      dup7\n        /* \"market_place.sol\":3206:3261  Fee(platformFee,assetFee,royaltyFee,price,tokenCreator) */\n      dup2\n      mstore\n      0x20\n      add\n        /* \"market_place.sol\":3222:3230  assetFee */\n      dup6\n        /* \"market_place.sol\":3206:3261  Fee(platformFee,assetFee,royaltyFee,price,tokenCreator) */\n      dup2\n      mstore\n      0x20\n      add\n        /* \"market_place.sol\":3231:3241  royaltyFee */\n      dup5\n        /* \"market_place.sol\":3206:3261  Fee(platformFee,assetFee,royaltyFee,price,tokenCreator) */\n      dup2\n      mstore\n      0x20\n      add\n        /* \"market_place.sol\":3242:3247  price */\n      dup4\n        /* \"market_place.sol\":3206:3261  Fee(platformFee,assetFee,royaltyFee,price,tokenCreator) */\n      dup2\n      mstore\n      0x20\n      add\n        /* \"market_place.sol\":3248:3260  tokenCreator */\n      dup3\n        /* \"market_place.sol\":3206:3261  Fee(platformFee,assetFee,royaltyFee,price,tokenCreator) */\n      0xffffffffffffffffffffffffffffffffffffffff\n      and\n      dup2\n      mstore\n      pop\n        /* \"market_place.sol\":3199:3261  return Fee(platformFee,assetFee,royaltyFee,price,tokenCreator) */\n      swap7\n      pop\n      pop\n      pop\n      pop\n      pop\n      pop\n      pop\n        /* \"market_place.sol\":2461:3292  function getFees(uint _amount, BuyType buytype, address _nftAddress, uint _tokenId )public view returns(Fee memory) {\r... */\n      swap5\n      swap4\n      pop\n      pop\n      pop\n      pop\n      jump\t// out\n        /* \"market_place.sol\":3305:3739  function buyAsset(Trade calldata trade) external returns(bool) {\r... */\n    tag_54:\n        /* \"market_place.sol\":3362:3366  bool */\n      0x00\n        /* \"market_place.sol\":3378:3392  Fee memory fee */\n      dup1\n        /* \"market_place.sol\":3396:3465  getFees(trade.amount, trade.nftType, trade.nftAddress, trade.tokenId) */\n      tag_161\n        /* \"market_place.sol\":3404:3409  trade */\n      dup4\n        /* \"market_place.sol\":3404:3416  trade.amount */\n      0xc0\n      add\n      calldataload\n        /* \"market_place.sol\":3418:3423  trade */\n      dup5\n        /* \"market_place.sol\":3418:3431  trade.nftType */\n      0x80\n      add\n      0x20\n      dup2\n      add\n      swap1\n      tag_162\n      swap2\n      swap1\n      tag_65\n      jump\t// in\n    tag_162:\n        /* \"market_place.sol\":3433:3438  trade */\n      dup6\n        /* \"market_place.sol\":3433:3449  trade.nftAddress */\n      0x60\n      add\n      0x20\n      dup2\n      add\n      swap1\n      tag_163\n      swap2\n      swap1\n      tag_58\n      jump\t// in\n    tag_163:\n        /* \"market_place.sol\":3451:3456  trade */\n      dup7\n        /* \"market_place.sol\":3451:3464  trade.tokenId */\n      0xe0\n      add\n      calldataload\n        /* \"market_place.sol\":3396:3403  getFees */\n      tag_48\n        /* \"market_place.sol\":3396:3465  getFees(trade.amount, trade.nftType, trade.nftAddress, trade.tokenId) */\n      jump\t// in\n    tag_161:\n        /* \"market_place.sol\":3378:3465  Fee memory fee  = getFees(trade.amount, trade.nftType, trade.nftAddress, trade.tokenId) */\n      swap1\n      pop\n        /* \"market_place.sol\":3514:3519  trade */\n      dup3\n        /* \"market_place.sol\":3514:3523  trade.qty */\n      0x0100\n      add\n      calldataload\n        /* \"market_place.sol\":3496:3501  trade */\n      dup4\n        /* \"market_place.sol\":3496:3511  trade.unitPrice */\n      0xa0\n      add\n      calldataload\n        /* \"market_place.sol\":3496:3523  trade.unitPrice * trade.qty */\n      tag_164\n      swap2\n      swap1\n      tag_129\n      jump\t// in\n    tag_164:\n        /* \"market_place.sol\":3483:3486  fee */\n      dup2\n        /* \"market_place.sol\":3483:3492  fee.price */\n      0x60\n      add\n      mload\n        /* \"market_place.sol\":3483:3523  fee.price >= trade.unitPrice * trade.qty */\n      lt\n      iszero\n        /* \"market_place.sol\":3474:3548  require((fee.price >= trade.unitPrice * trade.qty), \"Paid invalid amount\") */\n      tag_165\n      jumpi\n      mload(0x40)\n      0x08c379a000000000000000000000000000000000000000000000000000000000\n      dup2\n      mstore\n      0x04\n      add\n      tag_166\n      swap1\n      tag_167\n      jump\t// in\n    tag_166:\n      mload(0x40)\n      dup1\n      swap2\n      sub\n      swap1\n      revert\n    tag_165:\n        /* \"market_place.sol\":3559:3572  address buyer */\n      0x00\n        /* \"market_place.sol\":3575:3585  msg.sender */\n      caller\n        /* \"market_place.sol\":3559:3585  address buyer = msg.sender */\n      swap1\n      pop\n        /* \"market_place.sol\":3596:3633  Sell(trade, fee, buyer, trade.seller) */\n      tag_168\n        /* \"market_place.sol\":3601:3606  trade */\n      dup5\n        /* \"market_place.sol\":3608:3611  fee */\n      dup4\n        /* \"market_place.sol\":3613:3618  buyer */\n      dup4\n        /* \"market_place.sol\":3620:3625  trade */\n      dup8\n        /* \"market_place.sol\":3620:3632  trade.seller */\n      0x00\n      add\n      0x20\n      dup2\n      add\n      swap1\n      tag_169\n      swap2\n      swap1\n      tag_58\n      jump\t// in\n    tag_169:\n        /* \"market_place.sol\":3596:3600  Sell */\n      tag_18\n        /* \"market_place.sol\":3596:3633  Sell(trade, fee, buyer, trade.seller) */\n      jump\t// in\n    tag_168:\n        /* \"market_place.sol\":3698:3708  msg.sender */\n      caller\n        /* \"market_place.sol\":3649:3709  BuyAsset(trade.seller, trade.tokenId, trade.qty, msg.sender) */\n      0xffffffffffffffffffffffffffffffffffffffff\n      and\n        /* \"market_place.sol\":3672:3677  trade */\n      dup5\n        /* \"market_place.sol\":3672:3685  trade.tokenId */\n      0xe0\n      add\n      calldataload\n        /* \"market_place.sol\":3658:3663  trade */\n      dup6\n        /* \"market_place.sol\":3658:3670  trade.seller */\n      0x00\n      add\n      0x20\n      dup2\n      add\n      swap1\n      tag_170\n      swap2\n      swap1\n      tag_58\n      jump\t// in\n    tag_170:\n        /* \"market_place.sol\":3649:3709  BuyAsset(trade.seller, trade.tokenId, trade.qty, msg.sender) */\n      0xffffffffffffffffffffffffffffffffffffffff\n      and\n      0xb10197cef009fd301a90b892d25451c22c3701eb18ee2df1250d31e514fff394\n        /* \"market_place.sol\":3687:3692  trade */\n      dup8\n        /* \"market_place.sol\":3687:3696  trade.qty */\n      0x0100\n      add\n      calldataload\n        /* \"market_place.sol\":3649:3709  BuyAsset(trade.seller, trade.tokenId, trade.qty, msg.sender) */\n      mload(0x40)\n      tag_171\n      swap2\n      swap1\n      tag_144\n      jump\t// in\n    tag_171:\n      mload(0x40)\n      dup1\n      swap2\n      sub\n      swap1\n      log4\n        /* \"market_place.sol\":3727:3731  true */\n      0x01\n        /* \"market_place.sol\":3720:3731  return true */\n      swap3\n      pop\n      pop\n      pop\n        /* \"market_place.sol\":3305:3739  function buyAsset(Trade calldata trade) external returns(bool) {\r... */\n      swap2\n      swap1\n      pop\n      jump\t// out\n        /* \"External/Ownable.sol\":2142:2343  function transferOwnership(address newOwner) public virtual onlyOwner {\r... */\n    tag_59:\n        /* \"External/Ownable.sol\":1122:1135  _checkOwner() */\n      tag_173\n        /* \"External/Ownable.sol\":1122:1133  _checkOwner */\n      tag_111\n        /* \"External/Ownable.sol\":1122:1135  _checkOwner() */\n      jump\t// in\n    tag_173:\n        /* \"External/Ownable.sol\":2251:2252  0 */\n      0x00\n        /* \"External/Ownable.sol\":2231:2253  newOwner != address(0) */\n      0xffffffffffffffffffffffffffffffffffffffff\n      and\n        /* \"External/Ownable.sol\":2231:2239  newOwner */\n      dup2\n        /* \"External/Ownable.sol\":2231:2253  newOwner != address(0) */\n      0xffffffffffffffffffffffffffffffffffffffff\n      and\n      eq\n      iszero\n        /* \"External/Ownable.sol\":2223:2296  require(newOwner != address(0), \"Ownable: new owner is the zero address\") */\n      tag_175\n      jumpi\n      mload(0x40)\n      0x08c379a000000000000000000000000000000000000000000000000000000000\n      dup2\n      mstore\n      0x04\n      add\n      tag_176\n      swap1\n      tag_177\n      jump\t// in\n    tag_176:\n      mload(0x40)\n      dup1\n      swap2\n      sub\n      swap1\n      revert\n    tag_175:\n        /* \"External/Ownable.sol\":2307:2335  _transferOwnership(newOwner) */\n      tag_178\n        /* \"External/Ownable.sol\":2326:2334  newOwner */\n      dup2\n        /* \"External/Ownable.sol\":2307:2325  _transferOwnership */\n      tag_114\n        /* \"External/Ownable.sol\":2307:2335  _transferOwnership(newOwner) */\n      jump\t// in\n    tag_178:\n        /* \"External/Ownable.sol\":2142:2343  function transferOwnership(address newOwner) public virtual onlyOwner {\r... */\n      pop\n      jump\t// out\n        /* \"External/Ownable.sol\":1401:1533  function _checkOwner() internal view virtual {\r... */\n    tag_111:\n        /* \"External/Ownable.sol\":1476:1488  _msgSender() */\n      tag_180\n        /* \"External/Ownable.sol\":1476:1486  _msgSender */\n      tag_181\n        /* \"External/Ownable.sol\":1476:1488  _msgSender() */\n      jump\t// in\n    tag_180:\n        /* \"External/Ownable.sol\":1465:1488  owner() == _msgSender() */\n      0xffffffffffffffffffffffffffffffffffffffff\n      and\n        /* \"External/Ownable.sol\":1465:1472  owner() */\n      tag_182\n        /* \"External/Ownable.sol\":1465:1470  owner */\n      tag_26\n        /* \"External/Ownable.sol\":1465:1472  owner() */\n      jump\t// in\n    tag_182:\n        /* \"External/Ownable.sol\":1465:1488  owner() == _msgSender() */\n      0xffffffffffffffffffffffffffffffffffffffff\n      and\n      eq\n        /* \"External/Ownable.sol\":1457:1525  require(owner() == _msgSender(), \"Ownable: caller is not the owner\") */\n      tag_183\n      jumpi\n      mload(0x40)\n      0x08c379a000000000000000000000000000000000000000000000000000000000\n      dup2\n      mstore\n      0x04\n      add\n      tag_184\n      swap1\n      tag_185\n      jump\t// in\n    tag_184:\n      mload(0x40)\n      dup1\n      swap2\n      sub\n      swap1\n      revert\n    tag_183:\n        /* \"External/Ownable.sol\":1401:1533  function _checkOwner() internal view virtual {\r... */\n      jump\t// out\n        /* \"External/Ownable.sol\":2503:2694  function _transferOwnership(address newOwner) internal virtual {\r... */\n    tag_114:\n        /* \"External/Ownable.sol\":2577:2593  address oldOwner */\n      0x00\n        /* \"External/Ownable.sol\":2596:2602  _owner */\n      dup1\n      0x00\n      swap1\n      sload\n      swap1\n      0x0100\n      exp\n      swap1\n      div\n      0xffffffffffffffffffffffffffffffffffffffff\n      and\n        /* \"External/Ownable.sol\":2577:2602  address oldOwner = _owner */\n      swap1\n      pop\n        /* \"External/Ownable.sol\":2622:2630  newOwner */\n      dup2\n        /* \"External/Ownable.sol\":2613:2619  _owner */\n      0x00\n      dup1\n        /* \"External/Ownable.sol\":2613:2630  _owner = newOwner */\n      0x0100\n      exp\n      dup2\n      sload\n      dup2\n      0xffffffffffffffffffffffffffffffffffffffff\n      mul\n      not\n      and\n      swap1\n      dup4\n      0xffffffffffffffffffffffffffffffffffffffff\n      and\n      mul\n      or\n      swap1\n      sstore\n      pop\n        /* \"External/Ownable.sol\":2677:2685  newOwner */\n      dup2\n        /* \"External/Ownable.sol\":2646:2686  OwnershipTransferred(oldOwner, newOwner) */\n      0xffffffffffffffffffffffffffffffffffffffff\n      and\n        /* \"External/Ownable.sol\":2667:2675  oldOwner */\n      dup2\n        /* \"External/Ownable.sol\":2646:2686  OwnershipTransferred(oldOwner, newOwner) */\n      0xffffffffffffffffffffffffffffffffffffffff\n      and\n      0x8be0079c531659141344cd1fd0a4f28419497f9722a3daafe3b4186f6b6457e0\n      mload(0x40)\n      mload(0x40)\n      dup1\n      swap2\n      sub\n      swap1\n      log3\n        /* \"External/Ownable.sol\":2566:2694  {\r... */\n      pop\n        /* \"External/Ownable.sol\":2503:2694  function _transferOwnership(address newOwner) internal virtual {\r... */\n      pop\n      jump\t// out\n        /* \"External/Context.sol\":145:260  function _msgSender() internal view virtual returns (address payable) {\r... */\n    tag_181:\n        /* \"External/Context.sol\":198:213  address payable */\n      0x00\n        /* \"External/Context.sol\":241:251  msg.sender */\n      caller\n        /* \"External/Context.sol\":226:252  return payable(msg.sender) */\n      swap1\n      pop\n        /* \"External/Context.sol\":145:260  function _msgSender() internal view virtual returns (address payable) {\r... */\n      swap1\n      jump\t// out\n    tag_124:\n      mload(0x40)\n      dup1\n      0xa0\n      add\n      0x40\n      mstore\n      dup1\n      0x00\n      dup2\n      mstore\n      0x20\n      add\n      0x00\n      dup2\n      mstore\n      0x20\n      add\n      0x00\n      dup2\n      mstore\n      0x20\n      add\n      0x00\n      dup2\n      mstore\n      0x20\n      add\n      and(0xffffffffffffffffffffffffffffffffffffffff, 0x00)\n      dup2\n      mstore\n      pop\n      swap1\n      jump\t// out\n    tag_127:\n      mload(0x40)\n      dup1\n      0x0120\n      add\n      0x40\n      mstore\n      dup1\n      and(0xffffffffffffffffffffffffffffffffffffffff, 0x00)\n      dup2\n      mstore\n      0x20\n      add\n      and(0xffffffffffffffffffffffffffffffffffffffff, 0x00)\n      dup2\n      mstore\n      0x20\n      add\n      and(0xffffffffffffffffffffffffffffffffffffffff, 0x00)\n      dup2\n      mstore\n      0x20\n      add\n      and(0xffffffffffffffffffffffffffffffffffffffff, 0x00)\n      dup2\n      mstore\n      0x20\n      add\n      0x00\n      0x01\n      dup2\n      gt\n      iszero\n      tag_188\n      jumpi\n      tag_189\n      tag_63\n      jump\t// in\n    tag_189:\n    tag_188:\n      dup2\n      mstore\n      0x20\n      add\n      0x00\n      dup2\n      mstore\n      0x20\n      add\n      0x00\n      dup2\n      mstore\n      0x20\n      add\n      0x00\n      dup2\n      mstore\n      0x20\n      add\n      0x00\n      dup2\n      mstore\n      pop\n      swap1\n      jump\t// out\n        /* \"#utility.yul\":7:146   */\n    tag_191:\n        /* \"#utility.yul\":53:58   */\n      0x00\n        /* \"#utility.yul\":91:97   */\n      dup2\n        /* \"#utility.yul\":78:98   */\n      calldataload\n        /* \"#utility.yul\":69:98   */\n      swap1\n      pop\n        /* \"#utility.yul\":107:140   */\n      tag_193\n        /* \"#utility.yul\":134:139   */\n      dup2\n        /* \"#utility.yul\":107:140   */\n      tag_194\n      jump\t// in\n    tag_193:\n        /* \"#utility.yul\":7:146   */\n      swap3\n      swap2\n      pop\n      pop\n      jump\t// out\n        /* \"#utility.yul\":152:295   */\n    tag_195:\n        /* \"#utility.yul\":209:214   */\n      0x00\n        /* \"#utility.yul\":240:246   */\n      dup2\n        /* \"#utility.yul\":234:247   */\n      mload\n        /* \"#utility.yul\":225:247   */\n      swap1\n      pop\n        /* \"#utility.yul\":256:289   */\n      tag_197\n        /* \"#utility.yul\":283:288   */\n      dup2\n        /* \"#utility.yul\":256:289   */\n      tag_194\n      jump\t// in\n    tag_197:\n        /* \"#utility.yul\":152:295   */\n      swap3\n      swap2\n      pop\n      pop\n      jump\t// out\n        /* \"#utility.yul\":301:438   */\n    tag_198:\n        /* \"#utility.yul\":355:360   */\n      0x00\n        /* \"#utility.yul\":386:392   */\n      dup2\n        /* \"#utility.yul\":380:393   */\n      mload\n        /* \"#utility.yul\":371:393   */\n      swap1\n      pop\n        /* \"#utility.yul\":402:432   */\n      tag_200\n        /* \"#utility.yul\":426:431   */\n      dup2\n        /* \"#utility.yul\":402:432   */\n      tag_201\n      jump\t// in\n    tag_200:\n        /* \"#utility.yul\":301:438   */\n      swap3\n      swap2\n      pop\n      pop\n      jump\t// out\n        /* \"#utility.yul\":444:605   */\n    tag_202:\n        /* \"#utility.yul\":501:506   */\n      0x00\n        /* \"#utility.yul\":539:545   */\n      dup2\n        /* \"#utility.yul\":526:546   */\n      calldataload\n        /* \"#utility.yul\":517:546   */\n      swap1\n      pop\n        /* \"#utility.yul\":555:599   */\n      tag_204\n        /* \"#utility.yul\":593:598   */\n      dup2\n        /* \"#utility.yul\":555:599   */\n      tag_205\n      jump\t// in\n    tag_204:\n        /* \"#utility.yul\":444:605   */\n      swap3\n      swap2\n      pop\n      pop\n      jump\t// out\n        /* \"#utility.yul\":641:1720   */\n    tag_206:\n        /* \"#utility.yul\":710:715   */\n      0x00\n        /* \"#utility.yul\":754:758   */\n      0xa0\n        /* \"#utility.yul\":742:751   */\n      dup3\n        /* \"#utility.yul\":737:740   */\n      dup5\n        /* \"#utility.yul\":733:752   */\n      sub\n        /* \"#utility.yul\":729:759   */\n      slt\n        /* \"#utility.yul\":726:843   */\n      iszero\n      tag_208\n      jumpi\n        /* \"#utility.yul\":762:841   */\n      tag_209\n      tag_210\n      jump\t// in\n    tag_209:\n        /* \"#utility.yul\":726:843   */\n    tag_208:\n        /* \"#utility.yul\":861:882   */\n      tag_211\n        /* \"#utility.yul\":877:881   */\n      0xa0\n        /* \"#utility.yul\":861:882   */\n      tag_212\n      jump\t// in\n    tag_211:\n        /* \"#utility.yul\":852:882   */\n      swap1\n      pop\n        /* \"#utility.yul\":948:949   */\n      0x00\n        /* \"#utility.yul\":988:1037   */\n      tag_213\n        /* \"#utility.yul\":1033:1036   */\n      dup5\n        /* \"#utility.yul\":1024:1030   */\n      dup3\n        /* \"#utility.yul\":1013:1022   */\n      dup6\n        /* \"#utility.yul\":1009:1031   */\n      add\n        /* \"#utility.yul\":988:1037   */\n      tag_214\n      jump\t// in\n    tag_213:\n        /* \"#utility.yul\":981:985   */\n      0x00\n        /* \"#utility.yul\":974:979   */\n      dup4\n        /* \"#utility.yul\":970:986   */\n      add\n        /* \"#utility.yul\":963:1038   */\n      mstore\n        /* \"#utility.yul\":892:1049   */\n      pop\n        /* \"#utility.yul\":1112:1114   */\n      0x20\n        /* \"#utility.yul\":1153:1202   */\n      tag_215\n        /* \"#utility.yul\":1198:1201   */\n      dup5\n        /* \"#utility.yul\":1189:1195   */\n      dup3\n        /* \"#utility.yul\":1178:1187   */\n      dup6\n        /* \"#utility.yul\":1174:1196   */\n      add\n        /* \"#utility.yul\":1153:1202   */\n      tag_214\n      jump\t// in\n    tag_215:\n        /* \"#utility.yul\":1146:1150   */\n      0x20\n        /* \"#utility.yul\":1139:1144   */\n      dup4\n        /* \"#utility.yul\":1135:1151   */\n      add\n        /* \"#utility.yul\":1128:1203   */\n      mstore\n        /* \"#utility.yul\":1059:1214   */\n      pop\n        /* \"#utility.yul\":1279:1281   */\n      0x40\n        /* \"#utility.yul\":1320:1369   */\n      tag_216\n        /* \"#utility.yul\":1365:1368   */\n      dup5\n        /* \"#utility.yul\":1356:1362   */\n      dup3\n        /* \"#utility.yul\":1345:1354   */\n      dup6\n        /* \"#utility.yul\":1341:1363   */\n      add\n        /* \"#utility.yul\":1320:1369   */\n      tag_214\n      jump\t// in\n    tag_216:\n        /* \"#utility.yul\":1313:1317   */\n      0x40\n        /* \"#utility.yul\":1306:1311   */\n      dup4\n        /* \"#utility.yul\":1302:1318   */\n      add\n        /* \"#utility.yul\":1295:1370   */\n      mstore\n        /* \"#utility.yul\":1224:1381   */\n      pop\n        /* \"#utility.yul\":1441:1443   */\n      0x60\n        /* \"#utility.yul\":1482:1531   */\n      tag_217\n        /* \"#utility.yul\":1527:1530   */\n      dup5\n        /* \"#utility.yul\":1518:1524   */\n      dup3\n        /* \"#utility.yul\":1507:1516   */\n      dup6\n        /* \"#utility.yul\":1503:1525   */\n      add\n        /* \"#utility.yul\":1482:1531   */\n      tag_214\n      jump\t// in\n    tag_217:\n        /* \"#utility.yul\":1475:1479   */\n      0x60\n        /* \"#utility.yul\":1468:1473   */\n      dup4\n        /* \"#utility.yul\":1464:1480   */\n      add\n        /* \"#utility.yul\":1457:1532   */\n      mstore\n        /* \"#utility.yul\":1391:1543   */\n      pop\n        /* \"#utility.yul\":1610:1613   */\n      0x80\n        /* \"#utility.yul\":1652:1701   */\n      tag_218\n        /* \"#utility.yul\":1697:1700   */\n      dup5\n        /* \"#utility.yul\":1688:1694   */\n      dup3\n        /* \"#utility.yul\":1677:1686   */\n      dup6\n        /* \"#utility.yul\":1673:1695   */\n      add\n        /* \"#utility.yul\":1652:1701   */\n      tag_191\n      jump\t// in\n    tag_218:\n        /* \"#utility.yul\":1645:1649   */\n      0x80\n        /* \"#utility.yul\":1638:1643   */\n      dup4\n        /* \"#utility.yul\":1634:1650   */\n      add\n        /* \"#utility.yul\":1627:1702   */\n      mstore\n        /* \"#utility.yul\":1553:1713   */\n      pop\n        /* \"#utility.yul\":641:1720   */\n      swap3\n      swap2\n      pop\n      pop\n      jump\t// out\n        /* \"#utility.yul\":1758:1987   */\n    tag_219:\n        /* \"#utility.yul\":1828:1833   */\n      0x00\n        /* \"#utility.yul\":1869:1872   */\n      0x0120\n        /* \"#utility.yul\":1860:1866   */\n      dup3\n        /* \"#utility.yul\":1855:1858   */\n      dup5\n        /* \"#utility.yul\":1851:1867   */\n      sub\n        /* \"#utility.yul\":1847:1873   */\n      slt\n        /* \"#utility.yul\":1844:1957   */\n      iszero\n      tag_221\n      jumpi\n        /* \"#utility.yul\":1876:1955   */\n      tag_222\n      tag_223\n      jump\t// in\n    tag_222:\n        /* \"#utility.yul\":1844:1957   */\n    tag_221:\n        /* \"#utility.yul\":1975:1981   */\n      dup2\n        /* \"#utility.yul\":1966:1981   */\n      swap1\n      pop\n        /* \"#utility.yul\":1758:1987   */\n      swap3\n      swap2\n      pop\n      pop\n      jump\t// out\n        /* \"#utility.yul\":1993:2132   */\n    tag_214:\n        /* \"#utility.yul\":2039:2044   */\n      0x00\n        /* \"#utility.yul\":2077:2083   */\n      dup2\n        /* \"#utility.yul\":2064:2084   */\n      calldataload\n        /* \"#utility.yul\":2055:2084   */\n      swap1\n      pop\n        /* \"#utility.yul\":2093:2126   */\n      tag_225\n        /* \"#utility.yul\":2120:2125   */\n      dup2\n        /* \"#utility.yul\":2093:2126   */\n      tag_226\n      jump\t// in\n    tag_225:\n        /* \"#utility.yul\":1993:2132   */\n      swap3\n      swap2\n      pop\n      pop\n      jump\t// out\n        /* \"#utility.yul\":2138:2273   */\n    tag_227:\n        /* \"#utility.yul\":2182:2187   */\n      0x00\n        /* \"#utility.yul\":2220:2226   */\n      dup2\n        /* \"#utility.yul\":2207:2227   */\n      calldataload\n        /* \"#utility.yul\":2198:2227   */\n      swap1\n      pop\n        /* \"#utility.yul\":2236:2267   */\n      tag_229\n        /* \"#utility.yul\":2261:2266   */\n      dup2\n        /* \"#utility.yul\":2236:2267   */\n      tag_230\n      jump\t// in\n    tag_229:\n        /* \"#utility.yul\":2138:2273   */\n      swap3\n      swap2\n      pop\n      pop\n      jump\t// out\n        /* \"#utility.yul\":2279:2608   */\n    tag_58:\n        /* \"#utility.yul\":2338:2344   */\n      0x00\n        /* \"#utility.yul\":2387:2389   */\n      0x20\n        /* \"#utility.yul\":2375:2384   */\n      dup3\n        /* \"#utility.yul\":2366:2373   */\n      dup5\n        /* \"#utility.yul\":2362:2385   */\n      sub\n        /* \"#utility.yul\":2358:2390   */\n      slt\n        /* \"#utility.yul\":2355:2474   */\n      iszero\n      tag_232\n      jumpi\n        /* \"#utility.yul\":2393:2472   */\n      tag_233\n      tag_234\n      jump\t// in\n    tag_233:\n        /* \"#utility.yul\":2355:2474   */\n    tag_232:\n        /* \"#utility.yul\":2513:2514   */\n      0x00\n        /* \"#utility.yul\":2538:2591   */\n      tag_235\n        /* \"#utility.yul\":2583:2590   */\n      dup5\n        /* \"#utility.yul\":2574:2580   */\n      dup3\n        /* \"#utility.yul\":2563:2572   */\n      dup6\n        /* \"#utility.yul\":2559:2581   */\n      add\n        /* \"#utility.yul\":2538:2591   */\n      tag_191\n      jump\t// in\n    tag_235:\n        /* \"#utility.yul\":2528:2591   */\n      swap2\n      pop\n        /* \"#utility.yul\":2484:2601   */\n      pop\n        /* \"#utility.yul\":2279:2608   */\n      swap3\n      swap2\n      pop\n      pop\n      jump\t// out\n        /* \"#utility.yul\":2614:2965   */\n    tag_149:\n        /* \"#utility.yul\":2684:2690   */\n      0x00\n        /* \"#utility.yul\":2733:2735   */\n      0x20\n        /* \"#utility.yul\":2721:2730   */\n      dup3\n        /* \"#utility.yul\":2712:2719   */\n      dup5\n        /* \"#utility.yul\":2708:2731   */\n      sub\n        /* \"#utility.yul\":2704:2736   */\n      slt\n        /* \"#utility.yul\":2701:2820   */\n      iszero\n      tag_237\n      jumpi\n        /* \"#utility.yul\":2739:2818   */\n      tag_238\n      tag_234\n      jump\t// in\n    tag_238:\n        /* \"#utility.yul\":2701:2820   */\n    tag_237:\n        /* \"#utility.yul\":2859:2860   */\n      0x00\n        /* \"#utility.yul\":2884:2948   */\n      tag_239\n        /* \"#utility.yul\":2940:2947   */\n      dup5\n        /* \"#utility.yul\":2931:2937   */\n      dup3\n        /* \"#utility.yul\":2920:2929   */\n      dup6\n        /* \"#utility.yul\":2916:2938   */\n      add\n        /* \"#utility.yul\":2884:2948   */\n      tag_195\n      jump\t// in\n    tag_239:\n        /* \"#utility.yul\":2874:2948   */\n      swap2\n      pop\n        /* \"#utility.yul\":2830:2958   */\n      pop\n        /* \"#utility.yul\":2614:2965   */\n      swap3\n      swap2\n      pop\n      pop\n      jump\t// out\n        /* \"#utility.yul\":2971:3316   */\n    tag_94:\n        /* \"#utility.yul\":3038:3044   */\n      0x00\n        /* \"#utility.yul\":3087:3089   */\n      0x20\n        /* \"#utility.yul\":3075:3084   */\n      dup3\n        /* \"#utility.yul\":3066:3073   */\n      dup5\n        /* \"#utility.yul\":3062:3085   */\n      sub\n        /* \"#utility.yul\":3058:3090   */\n      slt\n        /* \"#utility.yul\":3055:3174   */\n      iszero\n      tag_241\n      jumpi\n        /* \"#utility.yul\":3093:3172   */\n      tag_242\n      tag_234\n      jump\t// in\n    tag_242:\n        /* \"#utility.yul\":3055:3174   */\n    tag_241:\n        /* \"#utility.yul\":3213:3214   */\n      0x00\n        /* \"#utility.yul\":3238:3299   */\n      tag_243\n        /* \"#utility.yul\":3291:3298   */\n      dup5\n        /* \"#utility.yul\":3282:3288   */\n      dup3\n        /* \"#utility.yul\":3271:3280   */\n      dup6\n        /* \"#utility.yul\":3267:3289   */\n      add\n        /* \"#utility.yul\":3238:3299   */\n      tag_198\n      jump\t// in\n    tag_243:\n        /* \"#utility.yul\":3228:3299   */\n      swap2\n      pop\n        /* \"#utility.yul\":3184:3309   */\n      pop\n        /* \"#utility.yul\":2971:3316   */\n      swap3\n      swap2\n      pop\n      pop\n      jump\t// out\n        /* \"#utility.yul\":3322:3673   */\n    tag_65:\n        /* \"#utility.yul\":3392:3398   */\n      0x00\n        /* \"#utility.yul\":3441:3443   */\n      0x20\n        /* \"#utility.yul\":3429:3438   */\n      dup3\n        /* \"#utility.yul\":3420:3427   */\n      dup5\n        /* \"#utility.yul\":3416:3439   */\n      sub\n        /* \"#utility.yul\":3412:3444   */\n      slt\n        /* \"#utility.yul\":3409:3528   */\n      iszero\n      tag_245\n      jumpi\n        /* \"#utility.yul\":3447:3526   */\n      tag_246\n      tag_234\n      jump\t// in\n    tag_246:\n        /* \"#utility.yul\":3409:3528   */\n    tag_245:\n        /* \"#utility.yul\":3567:3568   */\n      0x00\n        /* \"#utility.yul\":3592:3656   */\n      tag_247\n        /* \"#utility.yul\":3648:3655   */\n      dup5\n        /* \"#utility.yul\":3639:3645   */\n      dup3\n        /* \"#utility.yul\":3628:3637   */\n      dup6\n        /* \"#utility.yul\":3624:3646   */\n      add\n        /* \"#utility.yul\":3592:3656   */\n      tag_202\n      jump\t// in\n    tag_247:\n        /* \"#utility.yul\":3582:3656   */\n      swap2\n      pop\n        /* \"#utility.yul\":3538:3666   */\n      pop\n        /* \"#utility.yul\":3322:3673   */\n      swap3\n      swap2\n      pop\n      pop\n      jump\t// out\n        /* \"#utility.yul\":3679:4057   */\n    tag_53:\n        /* \"#utility.yul\":3762:3768   */\n      0x00\n        /* \"#utility.yul\":3811:3814   */\n      0x0120\n        /* \"#utility.yul\":3799:3808   */\n      dup3\n        /* \"#utility.yul\":3790:3797   */\n      dup5\n        /* \"#utility.yul\":3786:3809   */\n      sub\n        /* \"#utility.yul\":3782:3815   */\n      slt\n        /* \"#utility.yul\":3779:3899   */\n      iszero\n      tag_249\n      jumpi\n        /* \"#utility.yul\":3818:3897   */\n      tag_250\n      tag_234\n      jump\t// in\n    tag_250:\n        /* \"#utility.yul\":3779:3899   */\n    tag_249:\n        /* \"#utility.yul\":3938:3939   */\n      0x00\n        /* \"#utility.yul\":3963:4040   */\n      tag_251\n        /* \"#utility.yul\":4032:4039   */\n      dup5\n        /* \"#utility.yul\":4023:4029   */\n      dup3\n        /* \"#utility.yul\":4012:4021   */\n      dup6\n        /* \"#utility.yul\":4008:4030   */\n      add\n        /* \"#utility.yul\":3963:4040   */\n      tag_219\n      jump\t// in\n    tag_251:\n        /* \"#utility.yul\":3953:4040   */\n      swap2\n      pop\n        /* \"#utility.yul\":3909:4050   */\n      pop\n        /* \"#utility.yul\":3679:4057   */\n      swap3\n      swap2\n      pop\n      pop\n      jump\t// out\n        /* \"#utility.yul\":4063:4919   */\n    tag_17:\n        /* \"#utility.yul\":4193:4199   */\n      0x00\n        /* \"#utility.yul\":4201:4207   */\n      dup1\n        /* \"#utility.yul\":4209:4215   */\n      0x00\n        /* \"#utility.yul\":4217:4223   */\n      dup1\n        /* \"#utility.yul\":4266:4269   */\n      0x0200\n        /* \"#utility.yul\":4254:4263   */\n      dup6\n        /* \"#utility.yul\":4245:4252   */\n      dup8\n        /* \"#utility.yul\":4241:4264   */\n      sub\n        /* \"#utility.yul\":4237:4270   */\n      slt\n        /* \"#utility.yul\":4234:4354   */\n      iszero\n      tag_253\n      jumpi\n        /* \"#utility.yul\":4273:4352   */\n      tag_254\n      tag_234\n      jump\t// in\n    tag_254:\n        /* \"#utility.yul\":4234:4354   */\n    tag_253:\n        /* \"#utility.yul\":4393:4394   */\n      0x00\n        /* \"#utility.yul\":4418:4495   */\n      tag_255\n        /* \"#utility.yul\":4487:4494   */\n      dup8\n        /* \"#utility.yul\":4478:4484   */\n      dup3\n        /* \"#utility.yul\":4467:4476   */\n      dup9\n        /* \"#utility.yul\":4463:4485   */\n      add\n        /* \"#utility.yul\":4418:4495   */\n      tag_219\n      jump\t// in\n    tag_255:\n        /* \"#utility.yul\":4408:4495   */\n      swap5\n      pop\n        /* \"#utility.yul\":4364:4505   */\n      pop\n        /* \"#utility.yul\":4544:4547   */\n      0x0120\n        /* \"#utility.yul\":4571:4644   */\n      tag_256\n        /* \"#utility.yul\":4636:4643   */\n      dup8\n        /* \"#utility.yul\":4627:4633   */\n      dup3\n        /* \"#utility.yul\":4616:4625   */\n      dup9\n        /* \"#utility.yul\":4612:4634   */\n      add\n        /* \"#utility.yul\":4571:4644   */\n      tag_206\n      jump\t// in\n    tag_256:\n        /* \"#utility.yul\":4561:4644   */\n      swap4\n      pop\n        /* \"#utility.yul\":4515:4654   */\n      pop\n        /* \"#utility.yul\":4693:4696   */\n      0x01c0\n        /* \"#utility.yul\":4720:4773   */\n      tag_257\n        /* \"#utility.yul\":4765:4772   */\n      dup8\n        /* \"#utility.yul\":4756:4762   */\n      dup3\n        /* \"#utility.yul\":4745:4754   */\n      dup9\n        /* \"#utility.yul\":4741:4763   */\n      add\n        /* \"#utility.yul\":4720:4773   */\n      tag_191\n      jump\t// in\n    tag_257:\n        /* \"#utility.yul\":4710:4773   */\n      swap3\n      pop\n        /* \"#utility.yul\":4664:4783   */\n      pop\n        /* \"#utility.yul\":4822:4825   */\n      0x01e0\n        /* \"#utility.yul\":4849:4902   */\n      tag_258\n        /* \"#utility.yul\":4894:4901   */\n      dup8\n        /* \"#utility.yul\":4885:4891   */\n      dup3\n        /* \"#utility.yul\":4874:4883   */\n      dup9\n        /* \"#utility.yul\":4870:4892   */\n      add\n        /* \"#utility.yul\":4849:4902   */\n      tag_191\n      jump\t// in\n    tag_258:\n        /* \"#utility.yul\":4839:4902   */\n      swap2\n      pop\n        /* \"#utility.yul\":4793:4912   */\n      pop\n        /* \"#utility.yul\":4063:4919   */\n      swap3\n      swap6\n      swap2\n      swap5\n      pop\n      swap3\n      pop\n      jump\t// out\n        /* \"#utility.yul\":4925:5712   */\n    tag_47:\n        /* \"#utility.yul\":5022:5028   */\n      0x00\n        /* \"#utility.yul\":5030:5036   */\n      dup1\n        /* \"#utility.yul\":5038:5044   */\n      0x00\n        /* \"#utility.yul\":5046:5052   */\n      dup1\n        /* \"#utility.yul\":5095:5098   */\n      0x80\n        /* \"#utility.yul\":5083:5092   */\n      dup6\n        /* \"#utility.yul\":5074:5081   */\n      dup8\n        /* \"#utility.yul\":5070:5093   */\n      sub\n        /* \"#utility.yul\":5066:5099   */\n      slt\n        /* \"#utility.yul\":5063:5183   */\n      iszero\n      tag_260\n      jumpi\n        /* \"#utility.yul\":5102:5181   */\n      tag_261\n      tag_234\n      jump\t// in\n    tag_261:\n        /* \"#utility.yul\":5063:5183   */\n    tag_260:\n        /* \"#utility.yul\":5222:5223   */\n      0x00\n        /* \"#utility.yul\":5247:5300   */\n      tag_262\n        /* \"#utility.yul\":5292:5299   */\n      dup8\n        /* \"#utility.yul\":5283:5289   */\n      dup3\n        /* \"#utility.yul\":5272:5281   */\n      dup9\n        /* \"#utility.yul\":5268:5290   */\n      add\n        /* \"#utility.yul\":5247:5300   */\n      tag_214\n      jump\t// in\n    tag_262:\n        /* \"#utility.yul\":5237:5300   */\n      swap5\n      pop\n        /* \"#utility.yul\":5193:5310   */\n      pop\n        /* \"#utility.yul\":5349:5351   */\n      0x20\n        /* \"#utility.yul\":5375:5439   */\n      tag_263\n        /* \"#utility.yul\":5431:5438   */\n      dup8\n        /* \"#utility.yul\":5422:5428   */\n      dup3\n        /* \"#utility.yul\":5411:5420   */\n      dup9\n        /* \"#utility.yul\":5407:5429   */\n      add\n        /* \"#utility.yul\":5375:5439   */\n      tag_202\n      jump\t// in\n    tag_263:\n        /* \"#utility.yul\":5365:5439   */\n      swap4\n      pop\n        /* \"#utility.yul\":5320:5449   */\n      pop\n        /* \"#utility.yul\":5488:5490   */\n      0x40\n        /* \"#utility.yul\":5514:5567   */\n      tag_264\n        /* \"#utility.yul\":5559:5566   */\n      dup8\n        /* \"#utility.yul\":5550:5556   */\n      dup3\n        /* \"#utility.yul\":5539:5548   */\n      dup9\n        /* \"#utility.yul\":5535:5557   */\n      add\n        /* \"#utility.yul\":5514:5567   */\n      tag_191\n      jump\t// in\n    tag_264:\n        /* \"#utility.yul\":5504:5567   */\n      swap3\n      pop\n        /* \"#utility.yul\":5459:5577   */\n      pop\n        /* \"#utility.yul\":5616:5618   */\n      0x60\n        /* \"#utility.yul\":5642:5695   */\n      tag_265\n        /* \"#utility.yul\":5687:5694   */\n      dup8\n        /* \"#utility.yul\":5678:5684   */\n      dup3\n        /* \"#utility.yul\":5667:5676   */\n      dup9\n        /* \"#utility.yul\":5663:5685   */\n      add\n        /* \"#utility.yul\":5642:5695   */\n      tag_214\n      jump\t// in\n    tag_265:\n        /* \"#utility.yul\":5632:5695   */\n      swap2\n      pop\n        /* \"#utility.yul\":5587:5705   */\n      pop\n        /* \"#utility.yul\":4925:5712   */\n      swap3\n      swap6\n      swap2\n      swap5\n      pop\n      swap3\n      pop\n      jump\t// out\n        /* \"#utility.yul\":5718:6043   */\n    tag_34:\n        /* \"#utility.yul\":5775:5781   */\n      0x00\n        /* \"#utility.yul\":5824:5826   */\n      0x20\n        /* \"#utility.yul\":5812:5821   */\n      dup3\n        /* \"#utility.yul\":5803:5810   */\n      dup5\n        /* \"#utility.yul\":5799:5822   */\n      sub\n        /* \"#utility.yul\":5795:5827   */\n      slt\n        /* \"#utility.yul\":5792:5911   */\n      iszero\n      tag_267\n      jumpi\n        /* \"#utility.yul\":5830:5909   */\n      tag_268\n      tag_234\n      jump\t// in\n    tag_268:\n        /* \"#utility.yul\":5792:5911   */\n    tag_267:\n        /* \"#utility.yul\":5950:5951   */\n      0x00\n        /* \"#utility.yul\":5975:6026   */\n      tag_269\n        /* \"#utility.yul\":6018:6025   */\n      dup5\n        /* \"#utility.yul\":6009:6015   */\n      dup3\n        /* \"#utility.yul\":5998:6007   */\n      dup6\n        /* \"#utility.yul\":5994:6016   */\n      add\n        /* \"#utility.yul\":5975:6026   */\n      tag_227\n      jump\t// in\n    tag_269:\n        /* \"#utility.yul\":5965:6026   */\n      swap2\n      pop\n        /* \"#utility.yul\":5921:6036   */\n      pop\n        /* \"#utility.yul\":5718:6043   */\n      swap3\n      swap2\n      pop\n      pop\n      jump\t// out\n        /* \"#utility.yul\":6049:6157   */\n    tag_270:\n        /* \"#utility.yul\":6126:6150   */\n      tag_272\n        /* \"#utility.yul\":6144:6149   */\n      dup2\n        /* \"#utility.yul\":6126:6150   */\n      tag_273\n      jump\t// in\n    tag_272:\n        /* \"#utility.yul\":6121:6124   */\n      dup3\n        /* \"#utility.yul\":6114:6151   */\n      mstore\n        /* \"#utility.yul\":6049:6157   */\n      pop\n      pop\n      jump\t// out\n        /* \"#utility.yul\":6163:6281   */\n    tag_274:\n        /* \"#utility.yul\":6250:6274   */\n      tag_276\n        /* \"#utility.yul\":6268:6273   */\n      dup2\n        /* \"#utility.yul\":6250:6274   */\n      tag_273\n      jump\t// in\n    tag_276:\n        /* \"#utility.yul\":6245:6248   */\n      dup3\n        /* \"#utility.yul\":6238:6275   */\n      mstore\n        /* \"#utility.yul\":6163:6281   */\n      pop\n      pop\n      jump\t// out\n        /* \"#utility.yul\":6287:6396   */\n    tag_277:\n        /* \"#utility.yul\":6368:6389   */\n      tag_279\n        /* \"#utility.yul\":6383:6388   */\n      dup2\n        /* \"#utility.yul\":6368:6389   */\n      tag_280\n      jump\t// in\n    tag_279:\n        /* \"#utility.yul\":6363:6366   */\n      dup3\n        /* \"#utility.yul\":6356:6390   */\n      mstore\n        /* \"#utility.yul\":6287:6396   */\n      pop\n      pop\n      jump\t// out\n        /* \"#utility.yul\":6402:6768   */\n    tag_281:\n        /* \"#utility.yul\":6544:6547   */\n      0x00\n        /* \"#utility.yul\":6565:6632   */\n      tag_283\n        /* \"#utility.yul\":6629:6631   */\n      0x13\n        /* \"#utility.yul\":6624:6627   */\n      dup4\n        /* \"#utility.yul\":6565:6632   */\n      tag_284\n      jump\t// in\n    tag_283:\n        /* \"#utility.yul\":6558:6632   */\n      swap2\n      pop\n        /* \"#utility.yul\":6641:6734   */\n      tag_285\n        /* \"#utility.yul\":6730:6733   */\n      dup3\n        /* \"#utility.yul\":6641:6734   */\n      tag_286\n      jump\t// in\n    tag_285:\n        /* \"#utility.yul\":6759:6761   */\n      0x20\n        /* \"#utility.yul\":6754:6757   */\n      dup3\n        /* \"#utility.yul\":6750:6762   */\n      add\n        /* \"#utility.yul\":6743:6762   */\n      swap1\n      pop\n        /* \"#utility.yul\":6402:6768   */\n      swap2\n      swap1\n      pop\n      jump\t// out\n        /* \"#utility.yul\":6774:7140   */\n    tag_287:\n        /* \"#utility.yul\":6916:6919   */\n      0x00\n        /* \"#utility.yul\":6937:7004   */\n      tag_289\n        /* \"#utility.yul\":7001:7003   */\n      0x26\n        /* \"#utility.yul\":6996:6999   */\n      dup4\n        /* \"#utility.yul\":6937:7004   */\n      tag_284\n      jump\t// in\n    tag_289:\n        /* \"#utility.yul\":6930:7004   */\n      swap2\n      pop\n        /* \"#utility.yul\":7013:7106   */\n      tag_290\n        /* \"#utility.yul\":7102:7105   */\n      dup3\n        /* \"#utility.yul\":7013:7106   */\n      tag_291\n      jump\t// in\n    tag_290:\n        /* \"#utility.yul\":7131:7133   */\n      0x40\n        /* \"#utility.yul\":7126:7129   */\n      dup3\n        /* \"#utility.yul\":7122:7134   */\n      add\n        /* \"#utility.yul\":7115:7134   */\n      swap1\n      pop\n        /* \"#utility.yul\":6774:7140   */\n      swap2\n      swap1\n      pop\n      jump\t// out\n        /* \"#utility.yul\":7146:7512   */\n    tag_292:\n        /* \"#utility.yul\":7288:7291   */\n      0x00\n        /* \"#utility.yul\":7309:7376   */\n      tag_294\n        /* \"#utility.yul\":7373:7375   */\n      0x20\n        /* \"#utility.yul\":7368:7371   */\n      dup4\n        /* \"#utility.yul\":7309:7376   */\n      tag_284\n      jump\t// in\n    tag_294:\n        /* \"#utility.yul\":7302:7376   */\n      swap2\n      pop\n        /* \"#utility.yul\":7385:7478   */\n      tag_295\n        /* \"#utility.yul\":7474:7477   */\n      dup3\n        /* \"#utility.yul\":7385:7478   */\n      tag_296\n      jump\t// in\n    tag_295:\n        /* \"#utility.yul\":7503:7505   */\n      0x20\n        /* \"#utility.yul\":7498:7501   */\n      dup3\n        /* \"#utility.yul\":7494:7506   */\n      add\n        /* \"#utility.yul\":7487:7506   */\n      swap1\n      pop\n        /* \"#utility.yul\":7146:7512   */\n      swap2\n      swap1\n      pop\n      jump\t// out\n        /* \"#utility.yul\":7518:7880   */\n    tag_297:\n        /* \"#utility.yul\":7659:7662   */\n      0x00\n        /* \"#utility.yul\":7680:7745   */\n      tag_299\n        /* \"#utility.yul\":7743:7744   */\n      0x00\n        /* \"#utility.yul\":7738:7741   */\n      dup4\n        /* \"#utility.yul\":7680:7745   */\n      tag_300\n      jump\t// in\n    tag_299:\n        /* \"#utility.yul\":7673:7745   */\n      swap2\n      pop\n        /* \"#utility.yul\":7754:7847   */\n      tag_301\n        /* \"#utility.yul\":7843:7846   */\n      dup3\n        /* \"#utility.yul\":7754:7847   */\n      tag_302\n      jump\t// in\n    tag_301:\n        /* \"#utility.yul\":7872:7873   */\n      0x00\n        /* \"#utility.yul\":7867:7870   */\n      dup3\n        /* \"#utility.yul\":7863:7874   */\n      add\n        /* \"#utility.yul\":7856:7874   */\n      swap1\n      pop\n        /* \"#utility.yul\":7518:7880   */\n      swap2\n      swap1\n      pop\n      jump\t// out\n        /* \"#utility.yul\":7942:8987   */\n    tag_303:\n        /* \"#utility.yul\":8079:8083   */\n      0xa0\n        /* \"#utility.yul\":8074:8077   */\n      dup3\n        /* \"#utility.yul\":8070:8084   */\n      add\n        /* \"#utility.yul\":8173:8177   */\n      0x00\n        /* \"#utility.yul\":8166:8171   */\n      dup3\n        /* \"#utility.yul\":8162:8178   */\n      add\n        /* \"#utility.yul\":8156:8179   */\n      mload\n        /* \"#utility.yul\":8192:8255   */\n      tag_305\n        /* \"#utility.yul\":8249:8253   */\n      0x00\n        /* \"#utility.yul\":8244:8247   */\n      dup6\n        /* \"#utility.yul\":8240:8254   */\n      add\n        /* \"#utility.yul\":8226:8238   */\n      dup3\n        /* \"#utility.yul\":8192:8255   */\n      tag_306\n      jump\t// in\n    tag_305:\n        /* \"#utility.yul\":8094:8265   */\n      pop\n        /* \"#utility.yul\":8351:8355   */\n      0x20\n        /* \"#utility.yul\":8344:8349   */\n      dup3\n        /* \"#utility.yul\":8340:8356   */\n      add\n        /* \"#utility.yul\":8334:8357   */\n      mload\n        /* \"#utility.yul\":8370:8433   */\n      tag_307\n        /* \"#utility.yul\":8427:8431   */\n      0x20\n        /* \"#utility.yul\":8422:8425   */\n      dup6\n        /* \"#utility.yul\":8418:8432   */\n      add\n        /* \"#utility.yul\":8404:8416   */\n      dup3\n        /* \"#utility.yul\":8370:8433   */\n      tag_306\n      jump\t// in\n    tag_307:\n        /* \"#utility.yul\":8275:8443   */\n      pop\n        /* \"#utility.yul\":8531:8535   */\n      0x40\n        /* \"#utility.yul\":8524:8529   */\n      dup3\n        /* \"#utility.yul\":8520:8536   */\n      add\n        /* \"#utility.yul\":8514:8537   */\n      mload\n        /* \"#utility.yul\":8550:8613   */\n      tag_308\n        /* \"#utility.yul\":8607:8611   */\n      0x40\n        /* \"#utility.yul\":8602:8605   */\n      dup6\n        /* \"#utility.yul\":8598:8612   */\n      add\n        /* \"#utility.yul\":8584:8596   */\n      dup3\n        /* \"#utility.yul\":8550:8613   */\n      tag_306\n      jump\t// in\n    tag_308:\n        /* \"#utility.yul\":8453:8623   */\n      pop\n        /* \"#utility.yul\":8706:8710   */\n      0x60\n        /* \"#utility.yul\":8699:8704   */\n      dup3\n        /* \"#utility.yul\":8695:8711   */\n      add\n        /* \"#utility.yul\":8689:8712   */\n      mload\n        /* \"#utility.yul\":8725:8788   */\n      tag_309\n        /* \"#utility.yul\":8782:8786   */\n      0x60\n        /* \"#utility.yul\":8777:8780   */\n      dup6\n        /* \"#utility.yul\":8773:8787   */\n      add\n        /* \"#utility.yul\":8759:8771   */\n      dup3\n        /* \"#utility.yul\":8725:8788   */\n      tag_306\n      jump\t// in\n    tag_309:\n        /* \"#utility.yul\":8633:8798   */\n      pop\n        /* \"#utility.yul\":8888:8892   */\n      0x80\n        /* \"#utility.yul\":8881:8886   */\n      dup3\n        /* \"#utility.yul\":8877:8893   */\n      add\n        /* \"#utility.yul\":8871:8894   */\n      mload\n        /* \"#utility.yul\":8907:8970   */\n      tag_310\n        /* \"#utility.yul\":8964:8968   */\n      0x80\n        /* \"#utility.yul\":8959:8962   */\n      dup6\n        /* \"#utility.yul\":8955:8969   */\n      add\n        /* \"#utility.yul\":8941:8953   */\n      dup3\n        /* \"#utility.yul\":8907:8970   */\n      tag_270\n      jump\t// in\n    tag_310:\n        /* \"#utility.yul\":8808:8980   */\n      pop\n        /* \"#utility.yul\":8048:8987   */\n      pop\n        /* \"#utility.yul\":7942:8987   */\n      pop\n      pop\n      jump\t// out\n        /* \"#utility.yul\":8993:9101   */\n    tag_306:\n        /* \"#utility.yul\":9070:9094   */\n      tag_312\n        /* \"#utility.yul\":9088:9093   */\n      dup2\n        /* \"#utility.yul\":9070:9094   */\n      tag_313\n      jump\t// in\n    tag_312:\n        /* \"#utility.yul\":9065:9068   */\n      dup3\n        /* \"#utility.yul\":9058:9095   */\n      mstore\n        /* \"#utility.yul\":8993:9101   */\n      pop\n      pop\n      jump\t// out\n        /* \"#utility.yul\":9107:9225   */\n    tag_314:\n        /* \"#utility.yul\":9194:9218   */\n      tag_316\n        /* \"#utility.yul\":9212:9217   */\n      dup2\n        /* \"#utility.yul\":9194:9218   */\n      tag_313\n      jump\t// in\n    tag_316:\n        /* \"#utility.yul\":9189:9192   */\n      dup3\n        /* \"#utility.yul\":9182:9219   */\n      mstore\n        /* \"#utility.yul\":9107:9225   */\n      pop\n      pop\n      jump\t// out\n        /* \"#utility.yul\":9231:9343   */\n    tag_317:\n        /* \"#utility.yul\":9314:9336   */\n      tag_319\n        /* \"#utility.yul\":9330:9335   */\n      dup2\n        /* \"#utility.yul\":9314:9336   */\n      tag_320\n      jump\t// in\n    tag_319:\n        /* \"#utility.yul\":9309:9312   */\n      dup3\n        /* \"#utility.yul\":9302:9337   */\n      mstore\n        /* \"#utility.yul\":9231:9343   */\n      pop\n      pop\n      jump\t// out\n        /* \"#utility.yul\":9349:9571   */\n    tag_28:\n        /* \"#utility.yul\":9442:9446   */\n      0x00\n        /* \"#utility.yul\":9480:9482   */\n      0x20\n        /* \"#utility.yul\":9469:9478   */\n      dup3\n        /* \"#utility.yul\":9465:9483   */\n      add\n        /* \"#utility.yul\":9457:9483   */\n      swap1\n      pop\n        /* \"#utility.yul\":9493:9564   */\n      tag_322\n        /* \"#utility.yul\":9561:9562   */\n      0x00\n        /* \"#utility.yul\":9550:9559   */\n      dup4\n        /* \"#utility.yul\":9546:9563   */\n      add\n        /* \"#utility.yul\":9537:9543   */\n      dup5\n        /* \"#utility.yul\":9493:9564   */\n      tag_274\n      jump\t// in\n    tag_322:\n        /* \"#utility.yul\":9349:9571   */\n      swap3\n      swap2\n      pop\n      pop\n      jump\t// out\n        /* \"#utility.yul\":9577:10019   */\n    tag_71:\n        /* \"#utility.yul\":9726:9730   */\n      0x00\n        /* \"#utility.yul\":9764:9766   */\n      0x60\n        /* \"#utility.yul\":9753:9762   */\n      dup3\n        /* \"#utility.yul\":9749:9767   */\n      add\n        /* \"#utility.yul\":9741:9767   */\n      swap1\n      pop\n        /* \"#utility.yul\":9777:9848   */\n      tag_324\n        /* \"#utility.yul\":9845:9846   */\n      0x00\n        /* \"#utility.yul\":9834:9843   */\n      dup4\n        /* \"#utility.yul\":9830:9847   */\n      add\n        /* \"#utility.yul\":9821:9827   */\n      dup7\n        /* \"#utility.yul\":9777:9848   */\n      tag_274\n      jump\t// in\n    tag_324:\n        /* \"#utility.yul\":9858:9930   */\n      tag_325\n        /* \"#utility.yul\":9926:9928   */\n      0x20\n        /* \"#utility.yul\":9915:9924   */\n      dup4\n        /* \"#utility.yul\":9911:9929   */\n      add\n        /* \"#utility.yul\":9902:9908   */\n      dup6\n        /* \"#utility.yul\":9858:9930   */\n      tag_274\n      jump\t// in\n    tag_325:\n        /* \"#utility.yul\":9940:10012   */\n      tag_326\n        /* \"#utility.yul\":10008:10010   */\n      0x40\n        /* \"#utility.yul\":9997:10006   */\n      dup4\n        /* \"#utility.yul\":9993:10011   */\n      add\n        /* \"#utility.yul\":9984:9990   */\n      dup5\n        /* \"#utility.yul\":9940:10012   */\n      tag_314\n      jump\t// in\n    tag_326:\n        /* \"#utility.yul\":9577:10019   */\n      swap5\n      swap4\n      pop\n      pop\n      pop\n      pop\n      jump\t// out\n        /* \"#utility.yul\":10025:10884   */\n    tag_83:\n        /* \"#utility.yul\":10302:10306   */\n      0x00\n        /* \"#utility.yul\":10340:10343   */\n      0xa0\n        /* \"#utility.yul\":10329:10338   */\n      dup3\n        /* \"#utility.yul\":10325:10344   */\n      add\n        /* \"#utility.yul\":10317:10344   */\n      swap1\n      pop\n        /* \"#utility.yul\":10354:10425   */\n      tag_328\n        /* \"#utility.yul\":10422:10423   */\n      0x00\n        /* \"#utility.yul\":10411:10420   */\n      dup4\n        /* \"#utility.yul\":10407:10424   */\n      add\n        /* \"#utility.yul\":10398:10404   */\n      dup8\n        /* \"#utility.yul\":10354:10425   */\n      tag_274\n      jump\t// in\n    tag_328:\n        /* \"#utility.yul\":10435:10507   */\n      tag_329\n        /* \"#utility.yul\":10503:10505   */\n      0x20\n        /* \"#utility.yul\":10492:10501   */\n      dup4\n        /* \"#utility.yul\":10488:10506   */\n      add\n        /* \"#utility.yul\":10479:10485   */\n      dup7\n        /* \"#utility.yul\":10435:10507   */\n      tag_274\n      jump\t// in\n    tag_329:\n        /* \"#utility.yul\":10517:10589   */\n      tag_330\n        /* \"#utility.yul\":10585:10587   */\n      0x40\n        /* \"#utility.yul\":10574:10583   */\n      dup4\n        /* \"#utility.yul\":10570:10588   */\n      add\n        /* \"#utility.yul\":10561:10567   */\n      dup6\n        /* \"#utility.yul\":10517:10589   */\n      tag_314\n      jump\t// in\n    tag_330:\n        /* \"#utility.yul\":10599:10671   */\n      tag_331\n        /* \"#utility.yul\":10667:10669   */\n      0x60\n        /* \"#utility.yul\":10656:10665   */\n      dup4\n        /* \"#utility.yul\":10652:10670   */\n      add\n        /* \"#utility.yul\":10643:10649   */\n      dup5\n        /* \"#utility.yul\":10599:10671   */\n      tag_314\n      jump\t// in\n    tag_331:\n        /* \"#utility.yul\":10719:10728   */\n      dup2\n        /* \"#utility.yul\":10713:10717   */\n      dup2\n        /* \"#utility.yul\":10709:10729   */\n      sub\n        /* \"#utility.yul\":10703:10706   */\n      0x80\n        /* \"#utility.yul\":10692:10701   */\n      dup4\n        /* \"#utility.yul\":10688:10707   */\n      add\n        /* \"#utility.yul\":10681:10730   */\n      mstore\n        /* \"#utility.yul\":10747:10877   */\n      tag_332\n        /* \"#utility.yul\":10872:10876   */\n      dup2\n        /* \"#utility.yul\":10747:10877   */\n      tag_297\n      jump\t// in\n    tag_332:\n        /* \"#utility.yul\":10739:10877   */\n      swap1\n      pop\n        /* \"#utility.yul\":10025:10884   */\n      swap6\n      swap5\n      pop\n      pop\n      pop\n      pop\n      pop\n      jump\t// out\n        /* \"#utility.yul\":10890:11100   */\n    tag_37:\n        /* \"#utility.yul\":10977:10981   */\n      0x00\n        /* \"#utility.yul\":11015:11017   */\n      0x20\n        /* \"#utility.yul\":11004:11013   */\n      dup3\n        /* \"#utility.yul\":11000:11018   */\n      add\n        /* \"#utility.yul\":10992:11018   */\n      swap1\n      pop\n        /* \"#utility.yul\":11028:11093   */\n      tag_334\n        /* \"#utility.yul\":11090:11091   */\n      0x00\n        /* \"#utility.yul\":11079:11088   */\n      dup4\n        /* \"#utility.yul\":11075:11092   */\n      add\n        /* \"#utility.yul\":11066:11072   */\n      dup5\n        /* \"#utility.yul\":11028:11093   */\n      tag_277\n      jump\t// in\n    tag_334:\n        /* \"#utility.yul\":10890:11100   */\n      swap3\n      swap2\n      pop\n      pop\n      jump\t// out\n        /* \"#utility.yul\":11106:11525   */\n    tag_167:\n        /* \"#utility.yul\":11272:11276   */\n      0x00\n        /* \"#utility.yul\":11310:11312   */\n      0x20\n        /* \"#utility.yul\":11299:11308   */\n      dup3\n        /* \"#utility.yul\":11295:11313   */\n      add\n        /* \"#utility.yul\":11287:11313   */\n      swap1\n      pop\n        /* \"#utility.yul\":11359:11368   */\n      dup2\n        /* \"#utility.yul\":11353:11357   */\n      dup2\n        /* \"#utility.yul\":11349:11369   */\n      sub\n        /* \"#utility.yul\":11345:11346   */\n      0x00\n        /* \"#utility.yul\":11334:11343   */\n      dup4\n        /* \"#utility.yul\":11330:11347   */\n      add\n        /* \"#utility.yul\":11323:11370   */\n      mstore\n        /* \"#utility.yul\":11387:11518   */\n      tag_336\n        /* \"#utility.yul\":11513:11517   */\n      dup2\n        /* \"#utility.yul\":11387:11518   */\n      tag_281\n      jump\t// in\n    tag_336:\n        /* \"#utility.yul\":11379:11518   */\n      swap1\n      pop\n        /* \"#utility.yul\":11106:11525   */\n      swap2\n      swap1\n      pop\n      jump\t// out\n        /* \"#utility.yul\":11531:11950   */\n    tag_177:\n        /* \"#utility.yul\":11697:11701   */\n      0x00\n        /* \"#utility.yul\":11735:11737   */\n      0x20\n        /* \"#utility.yul\":11724:11733   */\n      dup3\n        /* \"#utility.yul\":11720:11738   */\n      add\n        /* \"#utility.yul\":11712:11738   */\n      swap1\n      pop\n        /* \"#utility.yul\":11784:11793   */\n      dup2\n        /* \"#utility.yul\":11778:11782   */\n      dup2\n        /* \"#utility.yul\":11774:11794   */\n      sub\n        /* \"#utility.yul\":11770:11771   */\n      0x00\n        /* \"#utility.yul\":11759:11768   */\n      dup4\n        /* \"#utility.yul\":11755:11772   */\n      add\n        /* \"#utility.yul\":11748:11795   */\n      mstore\n        /* \"#utility.yul\":11812:11943   */\n      tag_338\n        /* \"#utility.yul\":11938:11942   */\n      dup2\n        /* \"#utility.yul\":11812:11943   */\n      tag_287\n      jump\t// in\n    tag_338:\n        /* \"#utility.yul\":11804:11943   */\n      swap1\n      pop\n        /* \"#utility.yul\":11531:11950   */\n      swap2\n      swap1\n      pop\n      jump\t// out\n        /* \"#utility.yul\":11956:12375   */\n    tag_185:\n        /* \"#utility.yul\":12122:12126   */\n      0x00\n        /* \"#utility.yul\":12160:12162   */\n      0x20\n        /* \"#utility.yul\":12149:12158   */\n      dup3\n        /* \"#utility.yul\":12145:12163   */\n      add\n        /* \"#utility.yul\":12137:12163   */\n      swap1\n      pop\n        /* \"#utility.yul\":12209:12218   */\n      dup2\n        /* \"#utility.yul\":12203:12207   */\n      dup2\n        /* \"#utility.yul\":12199:12219   */\n      sub\n        /* \"#utility.yul\":12195:12196   */\n      0x00\n        /* \"#utility.yul\":12184:12193   */\n      dup4\n        /* \"#utility.yul\":12180:12197   */\n      add\n        /* \"#utility.yul\":12173:12220   */\n      mstore\n        /* \"#utility.yul\":12237:12368   */\n      tag_340\n        /* \"#utility.yul\":12363:12367   */\n      dup2\n        /* \"#utility.yul\":12237:12368   */\n      tag_292\n      jump\t// in\n    tag_340:\n        /* \"#utility.yul\":12229:12368   */\n      swap1\n      pop\n        /* \"#utility.yul\":11956:12375   */\n      swap2\n      swap1\n      pop\n      jump\t// out\n        /* \"#utility.yul\":12381:12684   */\n    tag_50:\n        /* \"#utility.yul\":12514:12518   */\n      0x00\n        /* \"#utility.yul\":12552:12555   */\n      0xa0\n        /* \"#utility.yul\":12541:12550   */\n      dup3\n        /* \"#utility.yul\":12537:12556   */\n      add\n        /* \"#utility.yul\":12529:12556   */\n      swap1\n      pop\n        /* \"#utility.yul\":12566:12677   */\n      tag_342\n        /* \"#utility.yul\":12674:12675   */\n      0x00\n        /* \"#utility.yul\":12663:12672   */\n      dup4\n        /* \"#utility.yul\":12659:12676   */\n      add\n        /* \"#utility.yul\":12650:12656   */\n      dup5\n        /* \"#utility.yul\":12566:12677   */\n      tag_303\n      jump\t// in\n    tag_342:\n        /* \"#utility.yul\":12381:12684   */\n      swap3\n      swap2\n      pop\n      pop\n      jump\t// out\n        /* \"#utility.yul\":12690:12912   */\n    tag_144:\n        /* \"#utility.yul\":12783:12787   */\n      0x00\n        /* \"#utility.yul\":12821:12823   */\n      0x20\n        /* \"#utility.yul\":12810:12819   */\n      dup3\n        /* \"#utility.yul\":12806:12824   */\n      add\n        /* \"#utility.yul\":12798:12824   */\n      swap1\n      pop\n        /* \"#utility.yul\":12834:12905   */\n      tag_344\n        /* \"#utility.yul\":12902:12903   */\n      0x00\n        /* \"#utility.yul\":12891:12900   */\n      dup4\n        /* \"#utility.yul\":12887:12904   */\n      add\n        /* \"#utility.yul\":12878:12884   */\n      dup5\n        /* \"#utility.yul\":12834:12905   */\n      tag_314\n      jump\t// in\n    tag_344:\n        /* \"#utility.yul\":12690:12912   */\n      swap3\n      swap2\n      pop\n      pop\n      jump\t// out\n        /* \"#utility.yul\":12918:13132   */\n    tag_22:\n        /* \"#utility.yul\":13007:13011   */\n      0x00\n        /* \"#utility.yul\":13045:13047   */\n      0x20\n        /* \"#utility.yul\":13034:13043   */\n      dup3\n        /* \"#utility.yul\":13030:13048   */\n      add\n        /* \"#utility.yul\":13022:13048   */\n      swap1\n      pop\n        /* \"#utility.yul\":13058:13125   */\n      tag_346\n        /* \"#utility.yul\":13122:13123   */\n      0x00\n        /* \"#utility.yul\":13111:13120   */\n      dup4\n        /* \"#utility.yul\":13107:13124   */\n      add\n        /* \"#utility.yul\":13098:13104   */\n      dup5\n        /* \"#utility.yul\":13058:13125   */\n      tag_317\n      jump\t// in\n    tag_346:\n        /* \"#utility.yul\":12918:13132   */\n      swap3\n      swap2\n      pop\n      pop\n      jump\t// out\n        /* \"#utility.yul\":13138:13267   */\n    tag_212:\n        /* \"#utility.yul\":13172:13178   */\n      0x00\n        /* \"#utility.yul\":13199:13219   */\n      tag_348\n      tag_349\n      jump\t// in\n    tag_348:\n        /* \"#utility.yul\":13189:13219   */\n      swap1\n      pop\n        /* \"#utility.yul\":13228:13261   */\n      tag_350\n        /* \"#utility.yul\":13256:13260   */\n      dup3\n        /* \"#utility.yul\":13248:13254   */\n      dup3\n        /* \"#utility.yul\":13228:13261   */\n      tag_351\n      jump\t// in\n    tag_350:\n        /* \"#utility.yul\":13138:13267   */\n      swap2\n      swap1\n      pop\n      jump\t// out\n        /* \"#utility.yul\":13273:13348   */\n    tag_349:\n        /* \"#utility.yul\":13306:13312   */\n      0x00\n        /* \"#utility.yul\":13339:13341   */\n      0x40\n        /* \"#utility.yul\":13333:13342   */\n      mload\n        /* \"#utility.yul\":13323:13342   */\n      swap1\n      pop\n        /* \"#utility.yul\":13273:13348   */\n      swap1\n      jump\t// out\n        /* \"#utility.yul\":13354:13522   */\n    tag_300:\n        /* \"#utility.yul\":13437:13448   */\n      0x00\n        /* \"#utility.yul\":13471:13477   */\n      dup3\n        /* \"#utility.yul\":13466:13469   */\n      dup3\n        /* \"#utility.yul\":13459:13478   */\n      mstore\n        /* \"#utility.yul\":13511:13515   */\n      0x20\n        /* \"#utility.yul\":13506:13509   */\n      dup3\n        /* \"#utility.yul\":13502:13516   */\n      add\n        /* \"#utility.yul\":13487:13516   */\n      swap1\n      pop\n        /* \"#utility.yul\":13354:13522   */\n      swap3\n      swap2\n      pop\n      pop\n      jump\t// out\n        /* \"#utility.yul\":13528:13697   */\n    tag_284:\n        /* \"#utility.yul\":13612:13623   */\n      0x00\n        /* \"#utility.yul\":13646:13652   */\n      dup3\n        /* \"#utility.yul\":13641:13644   */\n      dup3\n        /* \"#utility.yul\":13634:13653   */\n      mstore\n        /* \"#utility.yul\":13686:13690   */\n      0x20\n        /* \"#utility.yul\":13681:13684   */\n      dup3\n        /* \"#utility.yul\":13677:13691   */\n      add\n        /* \"#utility.yul\":13662:13691   */\n      swap1\n      pop\n        /* \"#utility.yul\":13528:13697   */\n      swap3\n      swap2\n      pop\n      pop\n      jump\t// out\n        /* \"#utility.yul\":13703:14008   */\n    tag_136:\n        /* \"#utility.yul\":13743:13746   */\n      0x00\n        /* \"#utility.yul\":13762:13782   */\n      tag_356\n        /* \"#utility.yul\":13780:13781   */\n      dup3\n        /* \"#utility.yul\":13762:13782   */\n      tag_313\n      jump\t// in\n    tag_356:\n        /* \"#utility.yul\":13757:13782   */\n      swap2\n      pop\n        /* \"#utility.yul\":13796:13816   */\n      tag_357\n        /* \"#utility.yul\":13814:13815   */\n      dup4\n        /* \"#utility.yul\":13796:13816   */\n      tag_313\n      jump\t// in\n    tag_357:\n        /* \"#utility.yul\":13791:13816   */\n      swap3\n      pop\n        /* \"#utility.yul\":13950:13951   */\n      dup3\n        /* \"#utility.yul\":13882:13948   */\n      0xffffffffffffffffffffffffffffffffffffffffffffffffffffffffffffffff\n        /* \"#utility.yul\":13878:13952   */\n      sub\n        /* \"#utility.yul\":13875:13876   */\n      dup3\n        /* \"#utility.yul\":13872:13953   */\n      gt\n        /* \"#utility.yul\":13869:13976   */\n      iszero\n      tag_358\n      jumpi\n        /* \"#utility.yul\":13956:13974   */\n      tag_359\n      tag_360\n      jump\t// in\n    tag_359:\n        /* \"#utility.yul\":13869:13976   */\n    tag_358:\n        /* \"#utility.yul\":14000:14001   */\n      dup3\n        /* \"#utility.yul\":13997:13998   */\n      dup3\n        /* \"#utility.yul\":13993:14002   */\n      add\n        /* \"#utility.yul\":13986:14002   */\n      swap1\n      pop\n        /* \"#utility.yul\":13703:14008   */\n      swap3\n      swap2\n      pop\n      pop\n      jump\t// out\n        /* \"#utility.yul\":14014:14199   */\n    tag_131:\n        /* \"#utility.yul\":14054:14055   */\n      0x00\n        /* \"#utility.yul\":14071:14091   */\n      tag_362\n        /* \"#utility.yul\":14089:14090   */\n      dup3\n        /* \"#utility.yul\":14071:14091   */\n      tag_313\n      jump\t// in\n    tag_362:\n        /* \"#utility.yul\":14066:14091   */\n      swap2\n      pop\n        /* \"#utility.yul\":14105:14125   */\n      tag_363\n        /* \"#utility.yul\":14123:14124   */\n      dup4\n        /* \"#utility.yul\":14105:14125   */\n      tag_313\n      jump\t// in\n    tag_363:\n        /* \"#utility.yul\":14100:14125   */\n      swap3\n      pop\n        /* \"#utility.yul\":14144:14145   */\n      dup3\n        /* \"#utility.yul\":14134:14169   */\n      tag_364\n      jumpi\n        /* \"#utility.yul\":14149:14167   */\n      tag_365\n      tag_366\n      jump\t// in\n    tag_365:\n        /* \"#utility.yul\":14134:14169   */\n    tag_364:\n        /* \"#utility.yul\":14191:14192   */\n      dup3\n        /* \"#utility.yul\":14188:14189   */\n      dup3\n        /* \"#utility.yul\":14184:14193   */\n      div\n        /* \"#utility.yul\":14179:14193   */\n      swap1\n      pop\n        /* \"#utility.yul\":14014:14199   */\n      swap3\n      swap2\n      pop\n      pop\n      jump\t// out\n        /* \"#utility.yul\":14205:14553   */\n    tag_129:\n        /* \"#utility.yul\":14245:14252   */\n      0x00\n        /* \"#utility.yul\":14268:14288   */\n      tag_368\n        /* \"#utility.yul\":14286:14287   */\n      dup3\n        /* \"#utility.yul\":14268:14288   */\n      tag_313\n      jump\t// in\n    tag_368:\n        /* \"#utility.yul\":14263:14288   */\n      swap2\n      pop\n        /* \"#utility.yul\":14302:14322   */\n      tag_369\n        /* \"#utility.yul\":14320:14321   */\n      dup4\n        /* \"#utility.yul\":14302:14322   */\n      tag_313\n      jump\t// in\n    tag_369:\n        /* \"#utility.yul\":14297:14322   */\n      swap3\n      pop\n        /* \"#utility.yul\":14490:14491   */\n      dup2\n        /* \"#utility.yul\":14422:14488   */\n      0xffffffffffffffffffffffffffffffffffffffffffffffffffffffffffffffff\n        /* \"#utility.yul\":14418:14492   */\n      div\n        /* \"#utility.yul\":14415:14416   */\n      dup4\n        /* \"#utility.yul\":14412:14493   */\n      gt\n        /* \"#utility.yul\":14407:14408   */\n      dup3\n        /* \"#utility.yul\":14400:14409   */\n      iszero\n        /* \"#utility.yul\":14393:14410   */\n      iszero\n        /* \"#utility.yul\":14389:14494   */\n      and\n        /* \"#utility.yul\":14386:14517   */\n      iszero\n      tag_370\n      jumpi\n        /* \"#utility.yul\":14497:14515   */\n      tag_371\n      tag_360\n      jump\t// in\n    tag_371:\n        /* \"#utility.yul\":14386:14517   */\n    tag_370:\n        /* \"#utility.yul\":14545:14546   */\n      dup3\n        /* \"#utility.yul\":14542:14543   */\n      dup3\n        /* \"#utility.yul\":14538:14547   */\n      mul\n        /* \"#utility.yul\":14527:14547   */\n      swap1\n      pop\n        /* \"#utility.yul\":14205:14553   */\n      swap3\n      swap2\n      pop\n      pop\n      jump\t// out\n        /* \"#utility.yul\":14559:14655   */\n    tag_273:\n        /* \"#utility.yul\":14596:14603   */\n      0x00\n        /* \"#utility.yul\":14625:14649   */\n      tag_373\n        /* \"#utility.yul\":14643:14648   */\n      dup3\n        /* \"#utility.yul\":14625:14649   */\n      tag_374\n      jump\t// in\n    tag_373:\n        /* \"#utility.yul\":14614:14649   */\n      swap1\n      pop\n        /* \"#utility.yul\":14559:14655   */\n      swap2\n      swap1\n      pop\n      jump\t// out\n        /* \"#utility.yul\":14661:14751   */\n    tag_280:\n        /* \"#utility.yul\":14695:14702   */\n      0x00\n        /* \"#utility.yul\":14738:14743   */\n      dup2\n        /* \"#utility.yul\":14731:14744   */\n      iszero\n        /* \"#utility.yul\":14724:14745   */\n      iszero\n        /* \"#utility.yul\":14713:14745   */\n      swap1\n      pop\n        /* \"#utility.yul\":14661:14751   */\n      swap2\n      swap1\n      pop\n      jump\t// out\n        /* \"#utility.yul\":14757:14883   */\n    tag_374:\n        /* \"#utility.yul\":14794:14801   */\n      0x00\n        /* \"#utility.yul\":14834:14876   */\n      0xffffffffffffffffffffffffffffffffffffffff\n        /* \"#utility.yul\":14827:14832   */\n      dup3\n        /* \"#utility.yul\":14823:14877   */\n      and\n        /* \"#utility.yul\":14812:14877   */\n      swap1\n      pop\n        /* \"#utility.yul\":14757:14883   */\n      swap2\n      swap1\n      pop\n      jump\t// out\n        /* \"#utility.yul\":14889:14966   */\n    tag_313:\n        /* \"#utility.yul\":14926:14933   */\n      0x00\n        /* \"#utility.yul\":14955:14960   */\n      dup2\n        /* \"#utility.yul\":14944:14960   */\n      swap1\n      pop\n        /* \"#utility.yul\":14889:14966   */\n      swap2\n      swap1\n      pop\n      jump\t// out\n        /* \"#utility.yul\":14972:15058   */\n    tag_320:\n        /* \"#utility.yul\":15007:15014   */\n      0x00\n        /* \"#utility.yul\":15047:15051   */\n      0xff\n        /* \"#utility.yul\":15040:15045   */\n      dup3\n        /* \"#utility.yul\":15036:15052   */\n      and\n        /* \"#utility.yul\":15025:15052   */\n      swap1\n      pop\n        /* \"#utility.yul\":14972:15058   */\n      swap2\n      swap1\n      pop\n      jump\t// out\n        /* \"#utility.yul\":15064:15345   */\n    tag_351:\n        /* \"#utility.yul\":15147:15174   */\n      tag_380\n        /* \"#utility.yul\":15169:15173   */\n      dup3\n        /* \"#utility.yul\":15147:15174   */\n      tag_381\n      jump\t// in\n    tag_380:\n        /* \"#utility.yul\":15139:15145   */\n      dup2\n        /* \"#utility.yul\":15135:15175   */\n      add\n        /* \"#utility.yul\":15277:15283   */\n      dup2\n        /* \"#utility.yul\":15265:15275   */\n      dup2\n        /* \"#utility.yul\":15262:15284   */\n      lt\n        /* \"#utility.yul\":15241:15259   */\n      0xffffffffffffffff\n        /* \"#utility.yul\":15229:15239   */\n      dup3\n        /* \"#utility.yul\":15226:15260   */\n      gt\n        /* \"#utility.yul\":15223:15285   */\n      or\n        /* \"#utility.yul\":15220:15308   */\n      iszero\n      tag_382\n      jumpi\n        /* \"#utility.yul\":15288:15306   */\n      tag_383\n      tag_384\n      jump\t// in\n    tag_383:\n        /* \"#utility.yul\":15220:15308   */\n    tag_382:\n        /* \"#utility.yul\":15328:15338   */\n      dup1\n        /* \"#utility.yul\":15324:15326   */\n      0x40\n        /* \"#utility.yul\":15317:15339   */\n      mstore\n        /* \"#utility.yul\":15107:15345   */\n      pop\n        /* \"#utility.yul\":15064:15345   */\n      pop\n      pop\n      jump\t// out\n        /* \"#utility.yul\":15351:15531   */\n    tag_360:\n        /* \"#utility.yul\":15399:15476   */\n      0x4e487b7100000000000000000000000000000000000000000000000000000000\n        /* \"#utility.yul\":15396:15397   */\n      0x00\n        /* \"#utility.yul\":15389:15477   */\n      mstore\n        /* \"#utility.yul\":15496:15500   */\n      0x11\n        /* \"#utility.yul\":15493:15494   */\n      0x04\n        /* \"#utility.yul\":15486:15501   */\n      mstore\n        /* \"#utility.yul\":15520:15524   */\n      0x24\n        /* \"#utility.yul\":15517:15518   */\n      0x00\n        /* \"#utility.yul\":15510:15525   */\n      revert\n        /* \"#utility.yul\":15537:15717   */\n    tag_366:\n        /* \"#utility.yul\":15585:15662   */\n      0x4e487b7100000000000000000000000000000000000000000000000000000000\n        /* \"#utility.yul\":15582:15583   */\n      0x00\n        /* \"#utility.yul\":15575:15663   */\n      mstore\n        /* \"#utility.yul\":15682:15686   */\n      0x12\n        /* \"#utility.yul\":15679:15680   */\n      0x04\n        /* \"#utility.yul\":15672:15687   */\n      mstore\n        /* \"#utility.yul\":15706:15710   */\n      0x24\n        /* \"#utility.yul\":15703:15704   */\n      0x00\n        /* \"#utility.yul\":15696:15711   */\n      revert\n        /* \"#utility.yul\":15723:15903   */\n    tag_63:\n        /* \"#utility.yul\":15771:15848   */\n      0x4e487b7100000000000000000000000000000000000000000000000000000000\n        /* \"#utility.yul\":15768:15769   */\n      0x00\n        /* \"#utility.yul\":15761:15849   */\n      mstore\n        /* \"#utility.yul\":15868:15872   */\n      0x21\n        /* \"#utility.yul\":15865:15866   */\n      0x04\n        /* \"#utility.yul\":15858:15873   */\n      mstore\n        /* \"#utility.yul\":15892:15896   */\n      0x24\n        /* \"#utility.yul\":15889:15890   */\n      0x00\n        /* \"#utility.yul\":15882:15897   */\n      revert\n        /* \"#utility.yul\":15909:16089   */\n    tag_384:\n        /* \"#utility.yul\":15957:16034   */\n      0x4e487b7100000000000000000000000000000000000000000000000000000000\n        /* \"#utility.yul\":15954:15955   */\n      0x00\n        /* \"#utility.yul\":15947:16035   */\n      mstore\n        /* \"#utility.yul\":16054:16058   */\n      0x41\n        /* \"#utility.yul\":16051:16052   */\n      0x04\n        /* \"#utility.yul\":16044:16059   */\n      mstore\n        /* \"#utility.yul\":16078:16082   */\n      0x24\n        /* \"#utility.yul\":16075:16076   */\n      0x00\n        /* \"#utility.yul\":16068:16083   */\n      revert\n        /* \"#utility.yul\":16095:16212   */\n    tag_223:\n        /* \"#utility.yul\":16204:16205   */\n      0x00\n        /* \"#utility.yul\":16201:16202   */\n      dup1\n        /* \"#utility.yul\":16194:16206   */\n      revert\n        /* \"#utility.yul\":16218:16335   */\n    tag_210:\n        /* \"#utility.yul\":16327:16328   */\n      0x00\n        /* \"#utility.yul\":16324:16325   */\n      dup1\n        /* \"#utility.yul\":16317:16329   */\n      revert\n        /* \"#utility.yul\":16587:16704   */\n    tag_234:\n        /* \"#utility.yul\":16696:16697   */\n      0x00\n        /* \"#utility.yul\":16693:16694   */\n      dup1\n        /* \"#utility.yul\":16686:16698   */\n      revert\n        /* \"#utility.yul\":16710:16812   */\n    tag_381:\n        /* \"#utility.yul\":16751:16757   */\n      0x00\n        /* \"#utility.yul\":16802:16804   */\n      0x1f\n        /* \"#utility.yul\":16798:16805   */\n      not\n        /* \"#utility.yul\":16793:16795   */\n      0x1f\n        /* \"#utility.yul\":16786:16791   */\n      dup4\n        /* \"#utility.yul\":16782:16796   */\n      add\n        /* \"#utility.yul\":16778:16806   */\n      and\n        /* \"#utility.yul\":16768:16806   */\n      swap1\n      pop\n        /* \"#utility.yul\":16710:16812   */\n      swap2\n      swap1\n      pop\n      jump\t// out\n        /* \"#utility.yul\":16818:16987   */\n    tag_286:\n        /* \"#utility.yul\":16958:16979   */\n      0x5061696420696e76616c696420616d6f756e7400000000000000000000000000\n        /* \"#utility.yul\":16954:16955   */\n      0x00\n        /* \"#utility.yul\":16946:16952   */\n      dup3\n        /* \"#utility.yul\":16942:16956   */\n      add\n        /* \"#utility.yul\":16935:16980   */\n      mstore\n        /* \"#utility.yul\":16818:16987   */\n      pop\n      jump\t// out\n        /* \"#utility.yul\":16993:17218   */\n    tag_291:\n        /* \"#utility.yul\":17133:17167   */\n      0x4f776e61626c653a206e6577206f776e657220697320746865207a65726f2061\n        /* \"#utility.yul\":17129:17130   */\n      0x00\n        /* \"#utility.yul\":17121:17127   */\n      dup3\n        /* \"#utility.yul\":17117:17131   */\n      add\n        /* \"#utility.yul\":17110:17168   */\n      mstore\n        /* \"#utility.yul\":17202:17210   */\n      0x6464726573730000000000000000000000000000000000000000000000000000\n        /* \"#utility.yul\":17197:17199   */\n      0x20\n        /* \"#utility.yul\":17189:17195   */\n      dup3\n        /* \"#utility.yul\":17185:17200   */\n      add\n        /* \"#utility.yul\":17178:17211   */\n      mstore\n        /* \"#utility.yul\":16993:17218   */\n      pop\n      jump\t// out\n        /* \"#utility.yul\":17224:17406   */\n    tag_296:\n        /* \"#utility.yul\":17364:17398   */\n      0x4f776e61626c653a2063616c6c6572206973206e6f7420746865206f776e6572\n        /* \"#utility.yul\":17360:17361   */\n      0x00\n        /* \"#utility.yul\":17352:17358   */\n      dup3\n        /* \"#utility.yul\":17348:17362   */\n      add\n        /* \"#utility.yul\":17341:17399   */\n      mstore\n        /* \"#utility.yul\":17224:17406   */\n      pop\n      jump\t// out\n        /* \"#utility.yul\":17412:17526   */\n    tag_302:\n      pop\n      jump\t// out\n        /* \"#utility.yul\":17532:17654   */\n    tag_194:\n        /* \"#utility.yul\":17605:17629   */\n      tag_402\n        /* \"#utility.yul\":17623:17628   */\n      dup2\n        /* \"#utility.yul\":17605:17629   */\n      tag_273\n      jump\t// in\n    tag_402:\n        /* \"#utility.yul\":17598:17603   */\n      dup2\n        /* \"#utility.yul\":17595:17630   */\n      eq\n        /* \"#utility.yul\":17585:17648   */\n      tag_403\n      jumpi\n        /* \"#utility.yul\":17644:17645   */\n      0x00\n        /* \"#utility.yul\":17641:17642   */\n      dup1\n        /* \"#utility.yul\":17634:17646   */\n      revert\n        /* \"#utility.yul\":17585:17648   */\n    tag_403:\n        /* \"#utility.yul\":17532:17654   */\n      pop\n      jump\t// out\n        /* \"#utility.yul\":17660:17776   */\n    tag_201:\n        /* \"#utility.yul\":17730:17751   */\n      tag_405\n        /* \"#utility.yul\":17745:17750   */\n      dup2\n        /* \"#utility.yul\":17730:17751   */\n      tag_280\n      jump\t// in\n    tag_405:\n        /* \"#utility.yul\":17723:17728   */\n      dup2\n        /* \"#utility.yul\":17720:17752   */\n      eq\n        /* \"#utility.yul\":17710:17770   */\n      tag_406\n      jumpi\n        /* \"#utility.yul\":17766:17767   */\n      0x00\n        /* \"#utility.yul\":17763:17764   */\n      dup1\n        /* \"#utility.yul\":17756:17768   */\n      revert\n        /* \"#utility.yul\":17710:17770   */\n    tag_406:\n        /* \"#utility.yul\":17660:17776   */\n      pop\n      jump\t// out\n        /* \"#utility.yul\":17782:17892   */\n    tag_205:\n        /* \"#utility.yul\":17866:17867   */\n      0x02\n        /* \"#utility.yul\":17859:17864   */\n      dup2\n        /* \"#utility.yul\":17856:17868   */\n      lt\n        /* \"#utility.yul\":17846:17886   */\n      tag_408\n      jumpi\n        /* \"#utility.yul\":17882:17883   */\n      0x00\n        /* \"#utility.yul\":17879:17880   */\n      dup1\n        /* \"#utility.yul\":17872:17884   */\n      revert\n        /* \"#utility.yul\":17846:17886   */\n    tag_408:\n        /* \"#utility.yul\":17782:17892   */\n      pop\n      jump\t// out\n        /* \"#utility.yul\":17898:18020   */\n    tag_226:\n        /* \"#utility.yul\":17971:17995   */\n      tag_410\n        /* \"#utility.yul\":17989:17994   */\n      dup2\n        /* \"#utility.yul\":17971:17995   */\n      tag_313\n      jump\t// in\n    tag_410:\n        /* \"#utility.yul\":17964:17969   */\n      dup2\n        /* \"#utility.yul\":17961:17996   */\n      eq\n        /* \"#utility.yul\":17951:18014   */\n      tag_411\n      jumpi\n        /* \"#utility.yul\":18010:18011   */\n      0x00\n        /* \"#utility.yul\":18007:18008   */\n      dup1\n        /* \"#utility.yul\":18000:18012   */\n      revert\n        /* \"#utility.yul\":17951:18014   */\n    tag_411:\n        /* \"#utility.yul\":17898:18020   */\n      pop\n      jump\t// out\n        /* \"#utility.yul\":18026:18144   */\n    tag_230:\n        /* \"#utility.yul\":18097:18119   */\n      tag_413\n        /* \"#utility.yul\":18113:18118   */\n      dup2\n        /* \"#utility.yul\":18097:18119   */\n      tag_320\n      jump\t// in\n    tag_413:\n        /* \"#utility.yul\":18090:18095   */\n      dup2\n        /* \"#utility.yul\":18087:18120   */\n      eq\n        /* \"#utility.yul\":18077:18138   */\n      tag_414\n      jumpi\n        /* \"#utility.yul\":18134:18135   */\n      0x00\n        /* \"#utility.yul\":18131:18132   */\n      dup1\n        /* \"#utility.yul\":18124:18136   */\n      revert\n        /* \"#utility.yul\":18077:18138   */\n    tag_414:\n        /* \"#utility.yul\":18026:18144   */\n      pop\n      jump\t// out\n\n    auxdata: 0xa2646970667358221220085abe82e6d03634b8f3f202fa81ef7a4378115e9dbe7335ff392563752ed01e64736f6c63430008070033\n}\n",
				"bytecode": {
					"linkReferences": {},
					"object": "60806040523480156200001157600080fd5b50604051620018e4380380620018e4833981810160405281019062000037919062000178565b620000576200004b6200009560201b60201c565b6200009d60201b60201c565b81600060146101000a81548160ff021916908360ff16021790555080600060156101000a81548160ff021916908360ff1602179055505050620001eb565b600033905090565b60008060009054906101000a900473ffffffffffffffffffffffffffffffffffffffff169050816000806101000a81548173ffffffffffffffffffffffffffffffffffffffff021916908373ffffffffffffffffffffffffffffffffffffffff1602179055508173ffffffffffffffffffffffffffffffffffffffff168173ffffffffffffffffffffffffffffffffffffffff167f8be0079c531659141344cd1fd0a4f28419497f9722a3daafe3b4186f6b6457e060405160405180910390a35050565b6000815190506200017281620001d1565b92915050565b60008060408385031215620001925762000191620001cc565b5b6000620001a28582860162000161565b9250506020620001b58582860162000161565b9150509250929050565b600060ff82169050919050565b600080fd5b620001dc81620001bf565b8114620001e857600080fd5b50565b6116e980620001fb6000396000f3fe608060405234801561001057600080fd5b50600436106100a95760003560e01c8063a3667c7b11610071578063a3667c7b1461012e578063a96b446d1461015e578063b4a99a4e1461018e578063b6b49c8a146101ac578063db90a177146101dc578063f2fde38b1461020c576100a9565b80632fd001c7146100ae57806360085da6146100ca578063715018a6146100e85780638da5cb5b146100f25780639c66809d14610110575b600080fd5b6100c860048036038101906100c39190610f56565b610228565b005b6100d26105f2565b6040516100df91906112fe565b60405180910390f35b6100f0610608565b005b6100fa61061c565b60405161010791906111a3565b60405180910390f35b610118610645565b60405161012591906112fe565b60405180910390f35b61014860048036038101906101439190611028565b61065b565b604051610155919061124d565b60405180910390f35b61017860048036038101906101739190611028565b610689565b604051610185919061124d565b60405180910390f35b6101966106b7565b6040516101a391906111a3565b60405180910390f35b6101c660048036038101906101c19190610fc1565b6106dd565b6040516101d391906112c8565b60405180910390f35b6101f660048036038101906101f19190610f28565b61093a565b604051610203919061124d565b60405180910390f35b61022660048036038101906102219190610e74565b610a81565b005b60018081111561023b5761023a611525565b5b84608001602081019061024e9190610efb565b60018111156102605761025f611525565b5b14156102ec578360600160208101906102799190610e74565b73ffffffffffffffffffffffffffffffffffffffff166342842e0e82848760e001356040518463ffffffff1660e01b81526004016102b9939291906111be565b600060405180830381600087803b1580156102d357600080fd5b505af11580156102e7573d6000803e3d6000fd5b505050505b60006001811115610300576102ff611525565b5b8460800160208101906103139190610efb565b600181111561032557610324611525565b5b14156103b85783606001602081019061033e9190610e74565b73ffffffffffffffffffffffffffffffffffffffff1663f242432a82848760e001358861010001356040518563ffffffff1660e01b815260040161038594939291906111f5565b600060405180830381600087803b15801561039f57600080fd5b505af11580156103b3573d6000803e3d6000fd5b505050505b60008360000151111561048e578360400160208101906103d89190610e74565b73ffffffffffffffffffffffffffffffffffffffff166323b872dd83600160009054906101000a900473ffffffffffffffffffffffffffffffffffffffff1686600001516040518463ffffffff1660e01b815260040161043a939291906111be565b602060405180830381600087803b15801561045457600080fd5b505af1158015610468573d6000803e3d6000fd5b505050506040513d601f19601f8201168201806040525081019061048c9190610ece565b505b600083604001511115610546578360400160208101906104ae9190610e74565b73ffffffffffffffffffffffffffffffffffffffff166323b872dd83856080015186604001516040518463ffffffff1660e01b81526004016104f2939291906111be565b602060405180830381600087803b15801561050c57600080fd5b505af1158015610520573d6000803e3d6000fd5b505050506040513d601f19601f820116820180604052508101906105449190610ece565b505b8360400160208101906105599190610e74565b73ffffffffffffffffffffffffffffffffffffffff166323b872dd838386602001516040518463ffffffff1660e01b8152600401610599939291906111be565b602060405180830381600087803b1580156105b357600080fd5b505af11580156105c7573d6000803e3d6000fd5b505050506040513d601f19601f820116820180604052508101906105eb9190610ece565b5050505050565b60008060159054906101000a900460ff16905090565b610610610b05565b61061a6000610b83565b565b60008060009054906101000a900473ffffffffffffffffffffffffffffffffffffffff16905090565b60008060149054906101000a900460ff16905090565b6000610665610b05565b81600060156101000a81548160ff021916908360ff16021790555060019050919050565b6000610693610b05565b81600060146101000a81548160ff021916908360ff16021790555060019050919050565b600160009054906101000a900473ffffffffffffffffffffffffffffffffffffffff1681565b6106e5610c4f565b6106ed610c94565b60006103e88260a00151601961070391906113e7565b61070d91906113b6565b905060008260a001519050600060648460a00151600a61072d91906113e7565b61073791906113b6565b905060008461010001518560a0015161075091906113e7565b600060149054906101000a900460ff1660ff168561076e9190611360565b6107789190611360565b9050600060018081111561078f5761078e611525565b5b8a60018111156107a2576107a1611525565b5b1415610834578873ffffffffffffffffffffffffffffffffffffffff1663d48e638a896040518263ffffffff1660e01b81526004016107e191906112e3565b60206040518083038186803b1580156107f957600080fd5b505afa15801561080d573d6000803e3d6000fd5b505050506040513d601f19601f820116820180604052508101906108319190610ea1565b90505b6000600181111561084857610847611525565b5b8a600181111561085b5761085a611525565b5b14156108ed578873ffffffffffffffffffffffffffffffffffffffff1663d48e638a896040518263ffffffff1660e01b815260040161089a91906112e3565b60206040518083038186803b1580156108b257600080fd5b505afa1580156108c6573d6000803e3d6000fd5b505050506040513d601f19601f820116820180604052508101906108ea9190610ea1565b90505b6040518060a001604052808681526020018581526020018481526020018381526020018273ffffffffffffffffffffffffffffffffffffffff168152509650505050505050949350505050565b6000806109758360c001358460800160208101906109589190610efb565b85606001602081019061096b9190610e74565b8660e001356106dd565b90508261010001358360a0013561098c91906113e7565b816060015110156109d2576040517f08c379a00000000000000000000000000000000000000000000000000000000081526004016109c990611268565b60405180910390fd5b60003390506109f58483838760000160208101906109f09190610e74565b610228565b3373ffffffffffffffffffffffffffffffffffffffff168460e00135856000016020810190610a249190610e74565b73ffffffffffffffffffffffffffffffffffffffff167fb10197cef009fd301a90b892d25451c22c3701eb18ee2df1250d31e514fff394876101000135604051610a6e91906112e3565b60405180910390a4600192505050919050565b610a89610b05565b600073ffffffffffffffffffffffffffffffffffffffff168173ffffffffffffffffffffffffffffffffffffffff161415610af9576040517f08c379a0000000000000000000000000000000000000000000000000000000008152600401610af090611288565b60405180910390fd5b610b0281610b83565b50565b610b0d610c47565b73ffffffffffffffffffffffffffffffffffffffff16610b2b61061c565b73ffffffffffffffffffffffffffffffffffffffff1614610b81576040517f08c379a0000000000000000000000000000000000000000000000000000000008152600401610b78906112a8565b60405180910390fd5b565b60008060009054906101000a900473ffffffffffffffffffffffffffffffffffffffff169050816000806101000a81548173ffffffffffffffffffffffffffffffffffffffff021916908373ffffffffffffffffffffffffffffffffffffffff1602179055508173ffffffffffffffffffffffffffffffffffffffff168173ffffffffffffffffffffffffffffffffffffffff167f8be0079c531659141344cd1fd0a4f28419497f9722a3daafe3b4186f6b6457e060405160405180910390a35050565b600033905090565b6040518060a0016040528060008152602001600081526020016000815260200160008152602001600073ffffffffffffffffffffffffffffffffffffffff1681525090565b604051806101200160405280600073ffffffffffffffffffffffffffffffffffffffff168152602001600073ffffffffffffffffffffffffffffffffffffffff168152602001600073ffffffffffffffffffffffffffffffffffffffff168152602001600073ffffffffffffffffffffffffffffffffffffffff16815260200160006001811115610d2857610d27611525565b5b8152602001600081526020016000815260200160008152602001600081525090565b600081359050610d5981611647565b92915050565b600081519050610d6e81611647565b92915050565b600081519050610d838161165e565b92915050565b600081359050610d9881611675565b92915050565b600060a08284031215610db457610db3611588565b5b610dbe60a0611319565b90506000610dce84828501610e4a565b6000830152506020610de284828501610e4a565b6020830152506040610df684828501610e4a565b6040830152506060610e0a84828501610e4a565b6060830152506080610e1e84828501610d4a565b60808301525092915050565b60006101208284031215610e4157610e40611583565b5b81905092915050565b600081359050610e5981611685565b92915050565b600081359050610e6e8161169c565b92915050565b600060208284031215610e8a57610e8961158d565b5b6000610e9884828501610d4a565b91505092915050565b600060208284031215610eb757610eb661158d565b5b6000610ec584828501610d5f565b91505092915050565b600060208284031215610ee457610ee361158d565b5b6000610ef284828501610d74565b91505092915050565b600060208284031215610f1157610f1061158d565b5b6000610f1f84828501610d89565b91505092915050565b60006101208284031215610f3f57610f3e61158d565b5b6000610f4d84828501610e2a565b91505092915050565b6000806000806102008587031215610f7157610f7061158d565b5b6000610f7f87828801610e2a565b945050610120610f9187828801610d9e565b9350506101c0610fa387828801610d4a565b9250506101e0610fb587828801610d4a565b91505092959194509250565b60008060008060808587031215610fdb57610fda61158d565b5b6000610fe987828801610e4a565b9450506020610ffa87828801610d89565b935050604061100b87828801610d4a565b925050606061101c87828801610e4a565b91505092959194509250565b60006020828403121561103e5761103d61158d565b5b600061104c84828501610e5f565b91505092915050565b61105e81611441565b82525050565b61106d81611441565b82525050565b61107c81611453565b82525050565b600061108f60138361134f565b915061109a826115a3565b602082019050919050565b60006110b260268361134f565b91506110bd826115cc565b604082019050919050565b60006110d560208361134f565b91506110e08261161b565b602082019050919050565b60006110f860008361133e565b915061110382611644565b600082019050919050565b60a0820160008201516111246000850182611176565b5060208201516111376020850182611176565b50604082015161114a6040850182611176565b50606082015161115d6060850182611176565b5060808201516111706080850182611055565b50505050565b61117f8161147f565b82525050565b61118e8161147f565b82525050565b61119d81611489565b82525050565b60006020820190506111b86000830184611064565b92915050565b60006060820190506111d36000830186611064565b6111e06020830185611064565b6111ed6040830184611185565b949350505050565b600060a08201905061120a6000830187611064565b6112176020830186611064565b6112246040830185611185565b6112316060830184611185565b8181036080830152611242816110eb565b905095945050505050565b60006020820190506112626000830184611073565b92915050565b6000602082019050818103600083015261128181611082565b9050919050565b600060208201905081810360008301526112a1816110a5565b9050919050565b600060208201905081810360008301526112c1816110c8565b9050919050565b600060a0820190506112dd600083018461110e565b92915050565b60006020820190506112f86000830184611185565b92915050565b60006020820190506113136000830184611194565b92915050565b6000611323611334565b905061132f8282611496565b919050565b6000604051905090565b600082825260208201905092915050565b600082825260208201905092915050565b600061136b8261147f565b91506113768361147f565b9250827fffffffffffffffffffffffffffffffffffffffffffffffffffffffffffffffff038211156113ab576113aa6114c7565b5b828201905092915050565b60006113c18261147f565b91506113cc8361147f565b9250826113dc576113db6114f6565b5b828204905092915050565b60006113f28261147f565b91506113fd8361147f565b9250817fffffffffffffffffffffffffffffffffffffffffffffffffffffffffffffffff0483118215151615611436576114356114c7565b5b828202905092915050565b600061144c8261145f565b9050919050565b60008115159050919050565b600073ffffffffffffffffffffffffffffffffffffffff82169050919050565b6000819050919050565b600060ff82169050919050565b61149f82611592565b810181811067ffffffffffffffff821117156114be576114bd611554565b5b80604052505050565b7f4e487b7100000000000000000000000000000000000000000000000000000000600052601160045260246000fd5b7f4e487b7100000000000000000000000000000000000000000000000000000000600052601260045260246000fd5b7f4e487b7100000000000000000000000000000000000000000000000000000000600052602160045260246000fd5b7f4e487b7100000000000000000000000000000000000000000000000000000000600052604160045260246000fd5b600080fd5b600080fd5b600080fd5b6000601f19601f8301169050919050565b7f5061696420696e76616c696420616d6f756e7400000000000000000000000000600082015250565b7f4f776e61626c653a206e6577206f776e657220697320746865207a65726f206160008201527f6464726573730000000000000000000000000000000000000000000000000000602082015250565b7f4f776e61626c653a2063616c6c6572206973206e6f7420746865206f776e6572600082015250565b50565b61165081611441565b811461165b57600080fd5b50565b61166781611453565b811461167257600080fd5b50565b6002811061168257600080fd5b50565b61168e8161147f565b811461169957600080fd5b50565b6116a581611489565b81146116b057600080fd5b5056fea2646970667358221220085abe82e6d03634b8f3f202fa81ef7a4378115e9dbe7335ff392563752ed01e64736f6c63430008070033",
					"opcodes": "PUSH1 0x80 PUSH1 0x40 MSTORE CALLVALUE DUP1 ISZERO PUSH3 0x11 JUMPI PUSH1 0x0 DUP1 REVERT JUMPDEST POP PUSH1 0x40 MLOAD PUSH3 0x18E4 CODESIZE SUB DUP1 PUSH3 0x18E4 DUP4 CODECOPY DUP2 DUP2 ADD PUSH1 0x40 MSTORE DUP2 ADD SWAP1 PUSH3 0x37 SWAP2 SWAP1 PUSH3 0x178 JUMP JUMPDEST PUSH3 0x57 PUSH3 0x4B PUSH3 0x95 PUSH1 0x20 SHL PUSH1 0x20 SHR JUMP JUMPDEST PUSH3 0x9D PUSH1 0x20 SHL PUSH1 0x20 SHR JUMP JUMPDEST DUP2 PUSH1 0x0 PUSH1 0x14 PUSH2 0x100 EXP DUP2 SLOAD DUP2 PUSH1 0xFF MUL NOT AND SWAP1 DUP4 PUSH1 0xFF AND MUL OR SWAP1 SSTORE POP DUP1 PUSH1 0x0 PUSH1 0x15 PUSH2 0x100 EXP DUP2 SLOAD DUP2 PUSH1 0xFF MUL NOT AND SWAP1 DUP4 PUSH1 0xFF AND MUL OR SWAP1 SSTORE POP POP POP PUSH3 0x1EB JUMP JUMPDEST PUSH1 0x0 CALLER SWAP1 POP SWAP1 JUMP JUMPDEST PUSH1 0x0 DUP1 PUSH1 0x0 SWAP1 SLOAD SWAP1 PUSH2 0x100 EXP SWAP1 DIV PUSH20 0xFFFFFFFFFFFFFFFFFFFFFFFFFFFFFFFFFFFFFFFF AND SWAP1 POP DUP2 PUSH1 0x0 DUP1 PUSH2 0x100 EXP DUP2 SLOAD DUP2 PUSH20 0xFFFFFFFFFFFFFFFFFFFFFFFFFFFFFFFFFFFFFFFF MUL NOT AND SWAP1 DUP4 PUSH20 0xFFFFFFFFFFFFFFFFFFFFFFFFFFFFFFFFFFFFFFFF AND MUL OR SWAP1 SSTORE POP DUP2 PUSH20 0xFFFFFFFFFFFFFFFFFFFFFFFFFFFFFFFFFFFFFFFF AND DUP2 PUSH20 0xFFFFFFFFFFFFFFFFFFFFFFFFFFFFFFFFFFFFFFFF AND PUSH32 0x8BE0079C531659141344CD1FD0A4F28419497F9722A3DAAFE3B4186F6B6457E0 PUSH1 0x40 MLOAD PUSH1 0x40 MLOAD DUP1 SWAP2 SUB SWAP1 LOG3 POP POP JUMP JUMPDEST PUSH1 0x0 DUP2 MLOAD SWAP1 POP PUSH3 0x172 DUP2 PUSH3 0x1D1 JUMP JUMPDEST SWAP3 SWAP2 POP POP JUMP JUMPDEST PUSH1 0x0 DUP1 PUSH1 0x40 DUP4 DUP6 SUB SLT ISZERO PUSH3 0x192 JUMPI PUSH3 0x191 PUSH3 0x1CC JUMP JUMPDEST JUMPDEST PUSH1 0x0 PUSH3 0x1A2 DUP6 DUP3 DUP7 ADD PUSH3 0x161 JUMP JUMPDEST SWAP3 POP POP PUSH1 0x20 PUSH3 0x1B5 DUP6 DUP3 DUP7 ADD PUSH3 0x161 JUMP JUMPDEST SWAP2 POP POP SWAP3 POP SWAP3 SWAP1 POP JUMP JUMPDEST PUSH1 0x0 PUSH1 0xFF DUP3 AND SWAP1 POP SWAP2 SWAP1 POP JUMP JUMPDEST PUSH1 0x0 DUP1 REVERT JUMPDEST PUSH3 0x1DC DUP2 PUSH3 0x1BF JUMP JUMPDEST DUP2 EQ PUSH3 0x1E8 JUMPI PUSH1 0x0 DUP1 REVERT JUMPDEST POP JUMP JUMPDEST PUSH2 0x16E9 DUP1 PUSH3 0x1FB PUSH1 0x0 CODECOPY PUSH1 0x0 RETURN INVALID PUSH1 0x80 PUSH1 0x40 MSTORE CALLVALUE DUP1 ISZERO PUSH2 0x10 JUMPI PUSH1 0x0 DUP1 REVERT JUMPDEST POP PUSH1 0x4 CALLDATASIZE LT PUSH2 0xA9 JUMPI PUSH1 0x0 CALLDATALOAD PUSH1 0xE0 SHR DUP1 PUSH4 0xA3667C7B GT PUSH2 0x71 JUMPI DUP1 PUSH4 0xA3667C7B EQ PUSH2 0x12E JUMPI DUP1 PUSH4 0xA96B446D EQ PUSH2 0x15E JUMPI DUP1 PUSH4 0xB4A99A4E EQ PUSH2 0x18E JUMPI DUP1 PUSH4 0xB6B49C8A EQ PUSH2 0x1AC JUMPI DUP1 PUSH4 0xDB90A177 EQ PUSH2 0x1DC JUMPI DUP1 PUSH4 0xF2FDE38B EQ PUSH2 0x20C JUMPI PUSH2 0xA9 JUMP JUMPDEST DUP1 PUSH4 0x2FD001C7 EQ PUSH2 0xAE JUMPI DUP1 PUSH4 0x60085DA6 EQ PUSH2 0xCA JUMPI DUP1 PUSH4 0x715018A6 EQ PUSH2 0xE8 JUMPI DUP1 PUSH4 0x8DA5CB5B EQ PUSH2 0xF2 JUMPI DUP1 PUSH4 0x9C66809D EQ PUSH2 0x110 JUMPI JUMPDEST PUSH1 0x0 DUP1 REVERT JUMPDEST PUSH2 0xC8 PUSH1 0x4 DUP1 CALLDATASIZE SUB DUP2 ADD SWAP1 PUSH2 0xC3 SWAP2 SWAP1 PUSH2 0xF56 JUMP JUMPDEST PUSH2 0x228 JUMP JUMPDEST STOP JUMPDEST PUSH2 0xD2 PUSH2 0x5F2 JUMP JUMPDEST PUSH1 0x40 MLOAD PUSH2 0xDF SWAP2 SWAP1 PUSH2 0x12FE JUMP JUMPDEST PUSH1 0x40 MLOAD DUP1 SWAP2 SUB SWAP1 RETURN JUMPDEST PUSH2 0xF0 PUSH2 0x608 JUMP JUMPDEST STOP JUMPDEST PUSH2 0xFA PUSH2 0x61C JUMP JUMPDEST PUSH1 0x40 MLOAD PUSH2 0x107 SWAP2 SWAP1 PUSH2 0x11A3 JUMP JUMPDEST PUSH1 0x40 MLOAD DUP1 SWAP2 SUB SWAP1 RETURN JUMPDEST PUSH2 0x118 PUSH2 0x645 JUMP JUMPDEST PUSH1 0x40 MLOAD PUSH2 0x125 SWAP2 SWAP1 PUSH2 0x12FE JUMP JUMPDEST PUSH1 0x40 MLOAD DUP1 SWAP2 SUB SWAP1 RETURN JUMPDEST PUSH2 0x148 PUSH1 0x4 DUP1 CALLDATASIZE SUB DUP2 ADD SWAP1 PUSH2 0x143 SWAP2 SWAP1 PUSH2 0x1028 JUMP JUMPDEST PUSH2 0x65B JUMP JUMPDEST PUSH1 0x40 MLOAD PUSH2 0x155 SWAP2 SWAP1 PUSH2 0x124D JUMP JUMPDEST PUSH1 0x40 MLOAD DUP1 SWAP2 SUB SWAP1 RETURN JUMPDEST PUSH2 0x178 PUSH1 0x4 DUP1 CALLDATASIZE SUB DUP2 ADD SWAP1 PUSH2 0x173 SWAP2 SWAP1 PUSH2 0x1028 JUMP JUMPDEST PUSH2 0x689 JUMP JUMPDEST PUSH1 0x40 MLOAD PUSH2 0x185 SWAP2 SWAP1 PUSH2 0x124D JUMP JUMPDEST PUSH1 0x40 MLOAD DUP1 SWAP2 SUB SWAP1 RETURN JUMPDEST PUSH2 0x196 PUSH2 0x6B7 JUMP JUMPDEST PUSH1 0x40 MLOAD PUSH2 0x1A3 SWAP2 SWAP1 PUSH2 0x11A3 JUMP JUMPDEST PUSH1 0x40 MLOAD DUP1 SWAP2 SUB SWAP1 RETURN JUMPDEST PUSH2 0x1C6 PUSH1 0x4 DUP1 CALLDATASIZE SUB DUP2 ADD SWAP1 PUSH2 0x1C1 SWAP2 SWAP1 PUSH2 0xFC1 JUMP JUMPDEST PUSH2 0x6DD JUMP JUMPDEST PUSH1 0x40 MLOAD PUSH2 0x1D3 SWAP2 SWAP1 PUSH2 0x12C8 JUMP JUMPDEST PUSH1 0x40 MLOAD DUP1 SWAP2 SUB SWAP1 RETURN JUMPDEST PUSH2 0x1F6 PUSH1 0x4 DUP1 CALLDATASIZE SUB DUP2 ADD SWAP1 PUSH2 0x1F1 SWAP2 SWAP1 PUSH2 0xF28 JUMP JUMPDEST PUSH2 0x93A JUMP JUMPDEST PUSH1 0x40 MLOAD PUSH2 0x203 SWAP2 SWAP1 PUSH2 0x124D JUMP JUMPDEST PUSH1 0x40 MLOAD DUP1 SWAP2 SUB SWAP1 RETURN JUMPDEST PUSH2 0x226 PUSH1 0x4 DUP1 CALLDATASIZE SUB DUP2 ADD SWAP1 PUSH2 0x221 SWAP2 SWAP1 PUSH2 0xE74 JUMP JUMPDEST PUSH2 0xA81 JUMP JUMPDEST STOP JUMPDEST PUSH1 0x1 DUP1 DUP2 GT ISZERO PUSH2 0x23B JUMPI PUSH2 0x23A PUSH2 0x1525 JUMP JUMPDEST JUMPDEST DUP5 PUSH1 0x80 ADD PUSH1 0x20 DUP2 ADD SWAP1 PUSH2 0x24E SWAP2 SWAP1 PUSH2 0xEFB JUMP JUMPDEST PUSH1 0x1 DUP2 GT ISZERO PUSH2 0x260 JUMPI PUSH2 0x25F PUSH2 0x1525 JUMP JUMPDEST JUMPDEST EQ ISZERO PUSH2 0x2EC JUMPI DUP4 PUSH1 0x60 ADD PUSH1 0x20 DUP2 ADD SWAP1 PUSH2 0x279 SWAP2 SWAP1 PUSH2 0xE74 JUMP JUMPDEST PUSH20 0xFFFFFFFFFFFFFFFFFFFFFFFFFFFFFFFFFFFFFFFF AND PUSH4 0x42842E0E DUP3 DUP5 DUP8 PUSH1 0xE0 ADD CALLDATALOAD PUSH1 0x40 MLOAD DUP5 PUSH4 0xFFFFFFFF AND PUSH1 0xE0 SHL DUP2 MSTORE PUSH1 0x4 ADD PUSH2 0x2B9 SWAP4 SWAP3 SWAP2 SWAP1 PUSH2 0x11BE JUMP JUMPDEST PUSH1 0x0 PUSH1 0x40 MLOAD DUP1 DUP4 SUB DUP2 PUSH1 0x0 DUP8 DUP1 EXTCODESIZE ISZERO DUP1 ISZERO PUSH2 0x2D3 JUMPI PUSH1 0x0 DUP1 REVERT JUMPDEST POP GAS CALL ISZERO DUP1 ISZERO PUSH2 0x2E7 JUMPI RETURNDATASIZE PUSH1 0x0 DUP1 RETURNDATACOPY RETURNDATASIZE PUSH1 0x0 REVERT JUMPDEST POP POP POP POP JUMPDEST PUSH1 0x0 PUSH1 0x1 DUP2 GT ISZERO PUSH2 0x300 JUMPI PUSH2 0x2FF PUSH2 0x1525 JUMP JUMPDEST JUMPDEST DUP5 PUSH1 0x80 ADD PUSH1 0x20 DUP2 ADD SWAP1 PUSH2 0x313 SWAP2 SWAP1 PUSH2 0xEFB JUMP JUMPDEST PUSH1 0x1 DUP2 GT ISZERO PUSH2 0x325 JUMPI PUSH2 0x324 PUSH2 0x1525 JUMP JUMPDEST JUMPDEST EQ ISZERO PUSH2 0x3B8 JUMPI DUP4 PUSH1 0x60 ADD PUSH1 0x20 DUP2 ADD SWAP1 PUSH2 0x33E SWAP2 SWAP1 PUSH2 0xE74 JUMP JUMPDEST PUSH20 0xFFFFFFFFFFFFFFFFFFFFFFFFFFFFFFFFFFFFFFFF AND PUSH4 0xF242432A DUP3 DUP5 DUP8 PUSH1 0xE0 ADD CALLDATALOAD DUP9 PUSH2 0x100 ADD CALLDATALOAD PUSH1 0x40 MLOAD DUP6 PUSH4 0xFFFFFFFF AND PUSH1 0xE0 SHL DUP2 MSTORE PUSH1 0x4 ADD PUSH2 0x385 SWAP5 SWAP4 SWAP3 SWAP2 SWAP1 PUSH2 0x11F5 JUMP JUMPDEST PUSH1 0x0 PUSH1 0x40 MLOAD DUP1 DUP4 SUB DUP2 PUSH1 0x0 DUP8 DUP1 EXTCODESIZE ISZERO DUP1 ISZERO PUSH2 0x39F JUMPI PUSH1 0x0 DUP1 REVERT JUMPDEST POP GAS CALL ISZERO DUP1 ISZERO PUSH2 0x3B3 JUMPI RETURNDATASIZE PUSH1 0x0 DUP1 RETURNDATACOPY RETURNDATASIZE PUSH1 0x0 REVERT JUMPDEST POP POP POP POP JUMPDEST PUSH1 0x0 DUP4 PUSH1 0x0 ADD MLOAD GT ISZERO PUSH2 0x48E JUMPI DUP4 PUSH1 0x40 ADD PUSH1 0x20 DUP2 ADD SWAP1 PUSH2 0x3D8 SWAP2 SWAP1 PUSH2 0xE74 JUMP JUMPDEST PUSH20 0xFFFFFFFFFFFFFFFFFFFFFFFFFFFFFFFFFFFFFFFF AND PUSH4 0x23B872DD DUP4 PUSH1 0x1 PUSH1 0x0 SWAP1 SLOAD SWAP1 PUSH2 0x100 EXP SWAP1 DIV PUSH20 0xFFFFFFFFFFFFFFFFFFFFFFFFFFFFFFFFFFFFFFFF AND DUP7 PUSH1 0x0 ADD MLOAD PUSH1 0x40 MLOAD DUP5 PUSH4 0xFFFFFFFF AND PUSH1 0xE0 SHL DUP2 MSTORE PUSH1 0x4 ADD PUSH2 0x43A SWAP4 SWAP3 SWAP2 SWAP1 PUSH2 0x11BE JUMP JUMPDEST PUSH1 0x20 PUSH1 0x40 MLOAD DUP1 DUP4 SUB DUP2 PUSH1 0x0 DUP8 DUP1 EXTCODESIZE ISZERO DUP1 ISZERO PUSH2 0x454 JUMPI PUSH1 0x0 DUP1 REVERT JUMPDEST POP GAS CALL ISZERO DUP1 ISZERO PUSH2 0x468 JUMPI RETURNDATASIZE PUSH1 0x0 DUP1 RETURNDATACOPY RETURNDATASIZE PUSH1 0x0 REVERT JUMPDEST POP POP POP POP PUSH1 0x40 MLOAD RETURNDATASIZE PUSH1 0x1F NOT PUSH1 0x1F DUP3 ADD AND DUP3 ADD DUP1 PUSH1 0x40 MSTORE POP DUP2 ADD SWAP1 PUSH2 0x48C SWAP2 SWAP1 PUSH2 0xECE JUMP JUMPDEST POP JUMPDEST PUSH1 0x0 DUP4 PUSH1 0x40 ADD MLOAD GT ISZERO PUSH2 0x546 JUMPI DUP4 PUSH1 0x40 ADD PUSH1 0x20 DUP2 ADD SWAP1 PUSH2 0x4AE SWAP2 SWAP1 PUSH2 0xE74 JUMP JUMPDEST PUSH20 0xFFFFFFFFFFFFFFFFFFFFFFFFFFFFFFFFFFFFFFFF AND PUSH4 0x23B872DD DUP4 DUP6 PUSH1 0x80 ADD MLOAD DUP7 PUSH1 0x40 ADD MLOAD PUSH1 0x40 MLOAD DUP5 PUSH4 0xFFFFFFFF AND PUSH1 0xE0 SHL DUP2 MSTORE PUSH1 0x4 ADD PUSH2 0x4F2 SWAP4 SWAP3 SWAP2 SWAP1 PUSH2 0x11BE JUMP JUMPDEST PUSH1 0x20 PUSH1 0x40 MLOAD DUP1 DUP4 SUB DUP2 PUSH1 0x0 DUP8 DUP1 EXTCODESIZE ISZERO DUP1 ISZERO PUSH2 0x50C JUMPI PUSH1 0x0 DUP1 REVERT JUMPDEST POP GAS CALL ISZERO DUP1 ISZERO PUSH2 0x520 JUMPI RETURNDATASIZE PUSH1 0x0 DUP1 RETURNDATACOPY RETURNDATASIZE PUSH1 0x0 REVERT JUMPDEST POP POP POP POP PUSH1 0x40 MLOAD RETURNDATASIZE PUSH1 0x1F NOT PUSH1 0x1F DUP3 ADD AND DUP3 ADD DUP1 PUSH1 0x40 MSTORE POP DUP2 ADD SWAP1 PUSH2 0x544 SWAP2 SWAP1 PUSH2 0xECE JUMP JUMPDEST POP JUMPDEST DUP4 PUSH1 0x40 ADD PUSH1 0x20 DUP2 ADD SWAP1 PUSH2 0x559 SWAP2 SWAP1 PUSH2 0xE74 JUMP JUMPDEST PUSH20 0xFFFFFFFFFFFFFFFFFFFFFFFFFFFFFFFFFFFFFFFF AND PUSH4 0x23B872DD DUP4 DUP4 DUP7 PUSH1 0x20 ADD MLOAD PUSH1 0x40 MLOAD DUP5 PUSH4 0xFFFFFFFF AND PUSH1 0xE0 SHL DUP2 MSTORE PUSH1 0x4 ADD PUSH2 0x599 SWAP4 SWAP3 SWAP2 SWAP1 PUSH2 0x11BE JUMP JUMPDEST PUSH1 0x20 PUSH1 0x40 MLOAD DUP1 DUP4 SUB DUP2 PUSH1 0x0 DUP8 DUP1 EXTCODESIZE ISZERO DUP1 ISZERO PUSH2 0x5B3 JUMPI PUSH1 0x0 DUP1 REVERT JUMPDEST POP GAS CALL ISZERO DUP1 ISZERO PUSH2 0x5C7 JUMPI RETURNDATASIZE PUSH1 0x0 DUP1 RETURNDATACOPY RETURNDATASIZE PUSH1 0x0 REVERT JUMPDEST POP POP POP POP PUSH1 0x40 MLOAD RETURNDATASIZE PUSH1 0x1F NOT PUSH1 0x1F DUP3 ADD AND DUP3 ADD DUP1 PUSH1 0x40 MSTORE POP DUP2 ADD SWAP1 PUSH2 0x5EB SWAP2 SWAP1 PUSH2 0xECE JUMP JUMPDEST POP POP POP POP POP JUMP JUMPDEST PUSH1 0x0 DUP1 PUSH1 0x15 SWAP1 SLOAD SWAP1 PUSH2 0x100 EXP SWAP1 DIV PUSH1 0xFF AND SWAP1 POP SWAP1 JUMP JUMPDEST PUSH2 0x610 PUSH2 0xB05 JUMP JUMPDEST PUSH2 0x61A PUSH1 0x0 PUSH2 0xB83 JUMP JUMPDEST JUMP JUMPDEST PUSH1 0x0 DUP1 PUSH1 0x0 SWAP1 SLOAD SWAP1 PUSH2 0x100 EXP SWAP1 DIV PUSH20 0xFFFFFFFFFFFFFFFFFFFFFFFFFFFFFFFFFFFFFFFF AND SWAP1 POP SWAP1 JUMP JUMPDEST PUSH1 0x0 DUP1 PUSH1 0x14 SWAP1 SLOAD SWAP1 PUSH2 0x100 EXP SWAP1 DIV PUSH1 0xFF AND SWAP1 POP SWAP1 JUMP JUMPDEST PUSH1 0x0 PUSH2 0x665 PUSH2 0xB05 JUMP JUMPDEST DUP2 PUSH1 0x0 PUSH1 0x15 PUSH2 0x100 EXP DUP2 SLOAD DUP2 PUSH1 0xFF MUL NOT AND SWAP1 DUP4 PUSH1 0xFF AND MUL OR SWAP1 SSTORE POP PUSH1 0x1 SWAP1 POP SWAP2 SWAP1 POP JUMP JUMPDEST PUSH1 0x0 PUSH2 0x693 PUSH2 0xB05 JUMP JUMPDEST DUP2 PUSH1 0x0 PUSH1 0x14 PUSH2 0x100 EXP DUP2 SLOAD DUP2 PUSH1 0xFF MUL NOT AND SWAP1 DUP4 PUSH1 0xFF AND MUL OR SWAP1 SSTORE POP PUSH1 0x1 SWAP1 POP SWAP2 SWAP1 POP JUMP JUMPDEST PUSH1 0x1 PUSH1 0x0 SWAP1 SLOAD SWAP1 PUSH2 0x100 EXP SWAP1 DIV PUSH20 0xFFFFFFFFFFFFFFFFFFFFFFFFFFFFFFFFFFFFFFFF AND DUP2 JUMP JUMPDEST PUSH2 0x6E5 PUSH2 0xC4F JUMP JUMPDEST PUSH2 0x6ED PUSH2 0xC94 JUMP JUMPDEST PUSH1 0x0 PUSH2 0x3E8 DUP3 PUSH1 0xA0 ADD MLOAD PUSH1 0x19 PUSH2 0x703 SWAP2 SWAP1 PUSH2 0x13E7 JUMP JUMPDEST PUSH2 0x70D SWAP2 SWAP1 PUSH2 0x13B6 JUMP JUMPDEST SWAP1 POP PUSH1 0x0 DUP3 PUSH1 0xA0 ADD MLOAD SWAP1 POP PUSH1 0x0 PUSH1 0x64 DUP5 PUSH1 0xA0 ADD MLOAD PUSH1 0xA PUSH2 0x72D SWAP2 SWAP1 PUSH2 0x13E7 JUMP JUMPDEST PUSH2 0x737 SWAP2 SWAP1 PUSH2 0x13B6 JUMP JUMPDEST SWAP1 POP PUSH1 0x0 DUP5 PUSH2 0x100 ADD MLOAD DUP6 PUSH1 0xA0 ADD MLOAD PUSH2 0x750 SWAP2 SWAP1 PUSH2 0x13E7 JUMP JUMPDEST PUSH1 0x0 PUSH1 0x14 SWAP1 SLOAD SWAP1 PUSH2 0x100 EXP SWAP1 DIV PUSH1 0xFF AND PUSH1 0xFF AND DUP6 PUSH2 0x76E SWAP2 SWAP1 PUSH2 0x1360 JUMP JUMPDEST PUSH2 0x778 SWAP2 SWAP1 PUSH2 0x1360 JUMP JUMPDEST SWAP1 POP PUSH1 0x0 PUSH1 0x1 DUP1 DUP2 GT ISZERO PUSH2 0x78F JUMPI PUSH2 0x78E PUSH2 0x1525 JUMP JUMPDEST JUMPDEST DUP11 PUSH1 0x1 DUP2 GT ISZERO PUSH2 0x7A2 JUMPI PUSH2 0x7A1 PUSH2 0x1525 JUMP JUMPDEST JUMPDEST EQ ISZERO PUSH2 0x834 JUMPI DUP9 PUSH20 0xFFFFFFFFFFFFFFFFFFFFFFFFFFFFFFFFFFFFFFFF AND PUSH4 0xD48E638A DUP10 PUSH1 0x40 MLOAD DUP3 PUSH4 0xFFFFFFFF AND PUSH1 0xE0 SHL DUP2 MSTORE PUSH1 0x4 ADD PUSH2 0x7E1 SWAP2 SWAP1 PUSH2 0x12E3 JUMP JUMPDEST PUSH1 0x20 PUSH1 0x40 MLOAD DUP1 DUP4 SUB DUP2 DUP7 DUP1 EXTCODESIZE ISZERO DUP1 ISZERO PUSH2 0x7F9 JUMPI PUSH1 0x0 DUP1 REVERT JUMPDEST POP GAS STATICCALL ISZERO DUP1 ISZERO PUSH2 0x80D JUMPI RETURNDATASIZE PUSH1 0x0 DUP1 RETURNDATACOPY RETURNDATASIZE PUSH1 0x0 REVERT JUMPDEST POP POP POP POP PUSH1 0x40 MLOAD RETURNDATASIZE PUSH1 0x1F NOT PUSH1 0x1F DUP3 ADD AND DUP3 ADD DUP1 PUSH1 0x40 MSTORE POP DUP2 ADD SWAP1 PUSH2 0x831 SWAP2 SWAP1 PUSH2 0xEA1 JUMP JUMPDEST SWAP1 POP JUMPDEST PUSH1 0x0 PUSH1 0x1 DUP2 GT ISZERO PUSH2 0x848 JUMPI PUSH2 0x847 PUSH2 0x1525 JUMP JUMPDEST JUMPDEST DUP11 PUSH1 0x1 DUP2 GT ISZERO PUSH2 0x85B JUMPI PUSH2 0x85A PUSH2 0x1525 JUMP JUMPDEST JUMPDEST EQ ISZERO PUSH2 0x8ED JUMPI DUP9 PUSH20 0xFFFFFFFFFFFFFFFFFFFFFFFFFFFFFFFFFFFFFFFF AND PUSH4 0xD48E638A DUP10 PUSH1 0x40 MLOAD DUP3 PUSH4 0xFFFFFFFF AND PUSH1 0xE0 SHL DUP2 MSTORE PUSH1 0x4 ADD PUSH2 0x89A SWAP2 SWAP1 PUSH2 0x12E3 JUMP JUMPDEST PUSH1 0x20 PUSH1 0x40 MLOAD DUP1 DUP4 SUB DUP2 DUP7 DUP1 EXTCODESIZE ISZERO DUP1 ISZERO PUSH2 0x8B2 JUMPI PUSH1 0x0 DUP1 REVERT JUMPDEST POP GAS STATICCALL ISZERO DUP1 ISZERO PUSH2 0x8C6 JUMPI RETURNDATASIZE PUSH1 0x0 DUP1 RETURNDATACOPY RETURNDATASIZE PUSH1 0x0 REVERT JUMPDEST POP POP POP POP PUSH1 0x40 MLOAD RETURNDATASIZE PUSH1 0x1F NOT PUSH1 0x1F DUP3 ADD AND DUP3 ADD DUP1 PUSH1 0x40 MSTORE POP DUP2 ADD SWAP1 PUSH2 0x8EA SWAP2 SWAP1 PUSH2 0xEA1 JUMP JUMPDEST SWAP1 POP JUMPDEST PUSH1 0x40 MLOAD DUP1 PUSH1 0xA0 ADD PUSH1 0x40 MSTORE DUP1 DUP7 DUP2 MSTORE PUSH1 0x20 ADD DUP6 DUP2 MSTORE PUSH1 0x20 ADD DUP5 DUP2 MSTORE PUSH1 0x20 ADD DUP4 DUP2 MSTORE PUSH1 0x20 ADD DUP3 PUSH20 0xFFFFFFFFFFFFFFFFFFFFFFFFFFFFFFFFFFFFFFFF AND DUP2 MSTORE POP SWAP7 POP POP POP POP POP POP POP SWAP5 SWAP4 POP POP POP POP JUMP JUMPDEST PUSH1 0x0 DUP1 PUSH2 0x975 DUP4 PUSH1 0xC0 ADD CALLDATALOAD DUP5 PUSH1 0x80 ADD PUSH1 0x20 DUP2 ADD SWAP1 PUSH2 0x958 SWAP2 SWAP1 PUSH2 0xEFB JUMP JUMPDEST DUP6 PUSH1 0x60 ADD PUSH1 0x20 DUP2 ADD SWAP1 PUSH2 0x96B SWAP2 SWAP1 PUSH2 0xE74 JUMP JUMPDEST DUP7 PUSH1 0xE0 ADD CALLDATALOAD PUSH2 0x6DD JUMP JUMPDEST SWAP1 POP DUP3 PUSH2 0x100 ADD CALLDATALOAD DUP4 PUSH1 0xA0 ADD CALLDATALOAD PUSH2 0x98C SWAP2 SWAP1 PUSH2 0x13E7 JUMP JUMPDEST DUP2 PUSH1 0x60 ADD MLOAD LT ISZERO PUSH2 0x9D2 JUMPI PUSH1 0x40 MLOAD PUSH32 0x8C379A000000000000000000000000000000000000000000000000000000000 DUP2 MSTORE PUSH1 0x4 ADD PUSH2 0x9C9 SWAP1 PUSH2 0x1268 JUMP JUMPDEST PUSH1 0x40 MLOAD DUP1 SWAP2 SUB SWAP1 REVERT JUMPDEST PUSH1 0x0 CALLER SWAP1 POP PUSH2 0x9F5 DUP5 DUP4 DUP4 DUP8 PUSH1 0x0 ADD PUSH1 0x20 DUP2 ADD SWAP1 PUSH2 0x9F0 SWAP2 SWAP1 PUSH2 0xE74 JUMP JUMPDEST PUSH2 0x228 JUMP JUMPDEST CALLER PUSH20 0xFFFFFFFFFFFFFFFFFFFFFFFFFFFFFFFFFFFFFFFF AND DUP5 PUSH1 0xE0 ADD CALLDATALOAD DUP6 PUSH1 0x0 ADD PUSH1 0x20 DUP2 ADD SWAP1 PUSH2 0xA24 SWAP2 SWAP1 PUSH2 0xE74 JUMP JUMPDEST PUSH20 0xFFFFFFFFFFFFFFFFFFFFFFFFFFFFFFFFFFFFFFFF AND PUSH32 0xB10197CEF009FD301A90B892D25451C22C3701EB18EE2DF1250D31E514FFF394 DUP8 PUSH2 0x100 ADD CALLDATALOAD PUSH1 0x40 MLOAD PUSH2 0xA6E SWAP2 SWAP1 PUSH2 0x12E3 JUMP JUMPDEST PUSH1 0x40 MLOAD DUP1 SWAP2 SUB SWAP1 LOG4 PUSH1 0x1 SWAP3 POP POP POP SWAP2 SWAP1 POP JUMP JUMPDEST PUSH2 0xA89 PUSH2 0xB05 JUMP JUMPDEST PUSH1 0x0 PUSH20 0xFFFFFFFFFFFFFFFFFFFFFFFFFFFFFFFFFFFFFFFF AND DUP2 PUSH20 0xFFFFFFFFFFFFFFFFFFFFFFFFFFFFFFFFFFFFFFFF AND EQ ISZERO PUSH2 0xAF9 JUMPI PUSH1 0x40 MLOAD PUSH32 0x8C379A000000000000000000000000000000000000000000000000000000000 DUP2 MSTORE PUSH1 0x4 ADD PUSH2 0xAF0 SWAP1 PUSH2 0x1288 JUMP JUMPDEST PUSH1 0x40 MLOAD DUP1 SWAP2 SUB SWAP1 REVERT JUMPDEST PUSH2 0xB02 DUP2 PUSH2 0xB83 JUMP JUMPDEST POP JUMP JUMPDEST PUSH2 0xB0D PUSH2 0xC47 JUMP JUMPDEST PUSH20 0xFFFFFFFFFFFFFFFFFFFFFFFFFFFFFFFFFFFFFFFF AND PUSH2 0xB2B PUSH2 0x61C JUMP JUMPDEST PUSH20 0xFFFFFFFFFFFFFFFFFFFFFFFFFFFFFFFFFFFFFFFF AND EQ PUSH2 0xB81 JUMPI PUSH1 0x40 MLOAD PUSH32 0x8C379A000000000000000000000000000000000000000000000000000000000 DUP2 MSTORE PUSH1 0x4 ADD PUSH2 0xB78 SWAP1 PUSH2 0x12A8 JUMP JUMPDEST PUSH1 0x40 MLOAD DUP1 SWAP2 SUB SWAP1 REVERT JUMPDEST JUMP JUMPDEST PUSH1 0x0 DUP1 PUSH1 0x0 SWAP1 SLOAD SWAP1 PUSH2 0x100 EXP SWAP1 DIV PUSH20 0xFFFFFFFFFFFFFFFFFFFFFFFFFFFFFFFFFFFFFFFF AND SWAP1 POP DUP2 PUSH1 0x0 DUP1 PUSH2 0x100 EXP DUP2 SLOAD DUP2 PUSH20 0xFFFFFFFFFFFFFFFFFFFFFFFFFFFFFFFFFFFFFFFF MUL NOT AND SWAP1 DUP4 PUSH20 0xFFFFFFFFFFFFFFFFFFFFFFFFFFFFFFFFFFFFFFFF AND MUL OR SWAP1 SSTORE POP DUP2 PUSH20 0xFFFFFFFFFFFFFFFFFFFFFFFFFFFFFFFFFFFFFFFF AND DUP2 PUSH20 0xFFFFFFFFFFFFFFFFFFFFFFFFFFFFFFFFFFFFFFFF AND PUSH32 0x8BE0079C531659141344CD1FD0A4F28419497F9722A3DAAFE3B4186F6B6457E0 PUSH1 0x40 MLOAD PUSH1 0x40 MLOAD DUP1 SWAP2 SUB SWAP1 LOG3 POP POP JUMP JUMPDEST PUSH1 0x0 CALLER SWAP1 POP SWAP1 JUMP JUMPDEST PUSH1 0x40 MLOAD DUP1 PUSH1 0xA0 ADD PUSH1 0x40 MSTORE DUP1 PUSH1 0x0 DUP2 MSTORE PUSH1 0x20 ADD PUSH1 0x0 DUP2 MSTORE PUSH1 0x20 ADD PUSH1 0x0 DUP2 MSTORE PUSH1 0x20 ADD PUSH1 0x0 DUP2 MSTORE PUSH1 0x20 ADD PUSH1 0x0 PUSH20 0xFFFFFFFFFFFFFFFFFFFFFFFFFFFFFFFFFFFFFFFF AND DUP2 MSTORE POP SWAP1 JUMP JUMPDEST PUSH1 0x40 MLOAD DUP1 PUSH2 0x120 ADD PUSH1 0x40 MSTORE DUP1 PUSH1 0x0 PUSH20 0xFFFFFFFFFFFFFFFFFFFFFFFFFFFFFFFFFFFFFFFF AND DUP2 MSTORE PUSH1 0x20 ADD PUSH1 0x0 PUSH20 0xFFFFFFFFFFFFFFFFFFFFFFFFFFFFFFFFFFFFFFFF AND DUP2 MSTORE PUSH1 0x20 ADD PUSH1 0x0 PUSH20 0xFFFFFFFFFFFFFFFFFFFFFFFFFFFFFFFFFFFFFFFF AND DUP2 MSTORE PUSH1 0x20 ADD PUSH1 0x0 PUSH20 0xFFFFFFFFFFFFFFFFFFFFFFFFFFFFFFFFFFFFFFFF AND DUP2 MSTORE PUSH1 0x20 ADD PUSH1 0x0 PUSH1 0x1 DUP2 GT ISZERO PUSH2 0xD28 JUMPI PUSH2 0xD27 PUSH2 0x1525 JUMP JUMPDEST JUMPDEST DUP2 MSTORE PUSH1 0x20 ADD PUSH1 0x0 DUP2 MSTORE PUSH1 0x20 ADD PUSH1 0x0 DUP2 MSTORE PUSH1 0x20 ADD PUSH1 0x0 DUP2 MSTORE PUSH1 0x20 ADD PUSH1 0x0 DUP2 MSTORE POP SWAP1 JUMP JUMPDEST PUSH1 0x0 DUP2 CALLDATALOAD SWAP1 POP PUSH2 0xD59 DUP2 PUSH2 0x1647 JUMP JUMPDEST SWAP3 SWAP2 POP POP JUMP JUMPDEST PUSH1 0x0 DUP2 MLOAD SWAP1 POP PUSH2 0xD6E DUP2 PUSH2 0x1647 JUMP JUMPDEST SWAP3 SWAP2 POP POP JUMP JUMPDEST PUSH1 0x0 DUP2 MLOAD SWAP1 POP PUSH2 0xD83 DUP2 PUSH2 0x165E JUMP JUMPDEST SWAP3 SWAP2 POP POP JUMP JUMPDEST PUSH1 0x0 DUP2 CALLDATALOAD SWAP1 POP PUSH2 0xD98 DUP2 PUSH2 0x1675 JUMP JUMPDEST SWAP3 SWAP2 POP POP JUMP JUMPDEST PUSH1 0x0 PUSH1 0xA0 DUP3 DUP5 SUB SLT ISZERO PUSH2 0xDB4 JUMPI PUSH2 0xDB3 PUSH2 0x1588 JUMP JUMPDEST JUMPDEST PUSH2 0xDBE PUSH1 0xA0 PUSH2 0x1319 JUMP JUMPDEST SWAP1 POP PUSH1 0x0 PUSH2 0xDCE DUP5 DUP3 DUP6 ADD PUSH2 0xE4A JUMP JUMPDEST PUSH1 0x0 DUP4 ADD MSTORE POP PUSH1 0x20 PUSH2 0xDE2 DUP5 DUP3 DUP6 ADD PUSH2 0xE4A JUMP JUMPDEST PUSH1 0x20 DUP4 ADD MSTORE POP PUSH1 0x40 PUSH2 0xDF6 DUP5 DUP3 DUP6 ADD PUSH2 0xE4A JUMP JUMPDEST PUSH1 0x40 DUP4 ADD MSTORE POP PUSH1 0x60 PUSH2 0xE0A DUP5 DUP3 DUP6 ADD PUSH2 0xE4A JUMP JUMPDEST PUSH1 0x60 DUP4 ADD MSTORE POP PUSH1 0x80 PUSH2 0xE1E DUP5 DUP3 DUP6 ADD PUSH2 0xD4A JUMP JUMPDEST PUSH1 0x80 DUP4 ADD MSTORE POP SWAP3 SWAP2 POP POP JUMP JUMPDEST PUSH1 0x0 PUSH2 0x120 DUP3 DUP5 SUB SLT ISZERO PUSH2 0xE41 JUMPI PUSH2 0xE40 PUSH2 0x1583 JUMP JUMPDEST JUMPDEST DUP2 SWAP1 POP SWAP3 SWAP2 POP POP JUMP JUMPDEST PUSH1 0x0 DUP2 CALLDATALOAD SWAP1 POP PUSH2 0xE59 DUP2 PUSH2 0x1685 JUMP JUMPDEST SWAP3 SWAP2 POP POP JUMP JUMPDEST PUSH1 0x0 DUP2 CALLDATALOAD SWAP1 POP PUSH2 0xE6E DUP2 PUSH2 0x169C JUMP JUMPDEST SWAP3 SWAP2 POP POP JUMP JUMPDEST PUSH1 0x0 PUSH1 0x20 DUP3 DUP5 SUB SLT ISZERO PUSH2 0xE8A JUMPI PUSH2 0xE89 PUSH2 0x158D JUMP JUMPDEST JUMPDEST PUSH1 0x0 PUSH2 0xE98 DUP5 DUP3 DUP6 ADD PUSH2 0xD4A JUMP JUMPDEST SWAP2 POP POP SWAP3 SWAP2 POP POP JUMP JUMPDEST PUSH1 0x0 PUSH1 0x20 DUP3 DUP5 SUB SLT ISZERO PUSH2 0xEB7 JUMPI PUSH2 0xEB6 PUSH2 0x158D JUMP JUMPDEST JUMPDEST PUSH1 0x0 PUSH2 0xEC5 DUP5 DUP3 DUP6 ADD PUSH2 0xD5F JUMP JUMPDEST SWAP2 POP POP SWAP3 SWAP2 POP POP JUMP JUMPDEST PUSH1 0x0 PUSH1 0x20 DUP3 DUP5 SUB SLT ISZERO PUSH2 0xEE4 JUMPI PUSH2 0xEE3 PUSH2 0x158D JUMP JUMPDEST JUMPDEST PUSH1 0x0 PUSH2 0xEF2 DUP5 DUP3 DUP6 ADD PUSH2 0xD74 JUMP JUMPDEST SWAP2 POP POP SWAP3 SWAP2 POP POP JUMP JUMPDEST PUSH1 0x0 PUSH1 0x20 DUP3 DUP5 SUB SLT ISZERO PUSH2 0xF11 JUMPI PUSH2 0xF10 PUSH2 0x158D JUMP JUMPDEST JUMPDEST PUSH1 0x0 PUSH2 0xF1F DUP5 DUP3 DUP6 ADD PUSH2 0xD89 JUMP JUMPDEST SWAP2 POP POP SWAP3 SWAP2 POP POP JUMP JUMPDEST PUSH1 0x0 PUSH2 0x120 DUP3 DUP5 SUB SLT ISZERO PUSH2 0xF3F JUMPI PUSH2 0xF3E PUSH2 0x158D JUMP JUMPDEST JUMPDEST PUSH1 0x0 PUSH2 0xF4D DUP5 DUP3 DUP6 ADD PUSH2 0xE2A JUMP JUMPDEST SWAP2 POP POP SWAP3 SWAP2 POP POP JUMP JUMPDEST PUSH1 0x0 DUP1 PUSH1 0x0 DUP1 PUSH2 0x200 DUP6 DUP8 SUB SLT ISZERO PUSH2 0xF71 JUMPI PUSH2 0xF70 PUSH2 0x158D JUMP JUMPDEST JUMPDEST PUSH1 0x0 PUSH2 0xF7F DUP8 DUP3 DUP9 ADD PUSH2 0xE2A JUMP JUMPDEST SWAP5 POP POP PUSH2 0x120 PUSH2 0xF91 DUP8 DUP3 DUP9 ADD PUSH2 0xD9E JUMP JUMPDEST SWAP4 POP POP PUSH2 0x1C0 PUSH2 0xFA3 DUP8 DUP3 DUP9 ADD PUSH2 0xD4A JUMP JUMPDEST SWAP3 POP POP PUSH2 0x1E0 PUSH2 0xFB5 DUP8 DUP3 DUP9 ADD PUSH2 0xD4A JUMP JUMPDEST SWAP2 POP POP SWAP3 SWAP6 SWAP2 SWAP5 POP SWAP3 POP JUMP JUMPDEST PUSH1 0x0 DUP1 PUSH1 0x0 DUP1 PUSH1 0x80 DUP6 DUP8 SUB SLT ISZERO PUSH2 0xFDB JUMPI PUSH2 0xFDA PUSH2 0x158D JUMP JUMPDEST JUMPDEST PUSH1 0x0 PUSH2 0xFE9 DUP8 DUP3 DUP9 ADD PUSH2 0xE4A JUMP JUMPDEST SWAP5 POP POP PUSH1 0x20 PUSH2 0xFFA DUP8 DUP3 DUP9 ADD PUSH2 0xD89 JUMP JUMPDEST SWAP4 POP POP PUSH1 0x40 PUSH2 0x100B DUP8 DUP3 DUP9 ADD PUSH2 0xD4A JUMP JUMPDEST SWAP3 POP POP PUSH1 0x60 PUSH2 0x101C DUP8 DUP3 DUP9 ADD PUSH2 0xE4A JUMP JUMPDEST SWAP2 POP POP SWAP3 SWAP6 SWAP2 SWAP5 POP SWAP3 POP JUMP JUMPDEST PUSH1 0x0 PUSH1 0x20 DUP3 DUP5 SUB SLT ISZERO PUSH2 0x103E JUMPI PUSH2 0x103D PUSH2 0x158D JUMP JUMPDEST JUMPDEST PUSH1 0x0 PUSH2 0x104C DUP5 DUP3 DUP6 ADD PUSH2 0xE5F JUMP JUMPDEST SWAP2 POP POP SWAP3 SWAP2 POP POP JUMP JUMPDEST PUSH2 0x105E DUP2 PUSH2 0x1441 JUMP JUMPDEST DUP3 MSTORE POP POP JUMP JUMPDEST PUSH2 0x106D DUP2 PUSH2 0x1441 JUMP JUMPDEST DUP3 MSTORE POP POP JUMP JUMPDEST PUSH2 0x107C DUP2 PUSH2 0x1453 JUMP JUMPDEST DUP3 MSTORE POP POP JUMP JUMPDEST PUSH1 0x0 PUSH2 0x108F PUSH1 0x13 DUP4 PUSH2 0x134F JUMP JUMPDEST SWAP2 POP PUSH2 0x109A DUP3 PUSH2 0x15A3 JUMP JUMPDEST PUSH1 0x20 DUP3 ADD SWAP1 POP SWAP2 SWAP1 POP JUMP JUMPDEST PUSH1 0x0 PUSH2 0x10B2 PUSH1 0x26 DUP4 PUSH2 0x134F JUMP JUMPDEST SWAP2 POP PUSH2 0x10BD DUP3 PUSH2 0x15CC JUMP JUMPDEST PUSH1 0x40 DUP3 ADD SWAP1 POP SWAP2 SWAP1 POP JUMP JUMPDEST PUSH1 0x0 PUSH2 0x10D5 PUSH1 0x20 DUP4 PUSH2 0x134F JUMP JUMPDEST SWAP2 POP PUSH2 0x10E0 DUP3 PUSH2 0x161B JUMP JUMPDEST PUSH1 0x20 DUP3 ADD SWAP1 POP SWAP2 SWAP1 POP JUMP JUMPDEST PUSH1 0x0 PUSH2 0x10F8 PUSH1 0x0 DUP4 PUSH2 0x133E JUMP JUMPDEST SWAP2 POP PUSH2 0x1103 DUP3 PUSH2 0x1644 JUMP JUMPDEST PUSH1 0x0 DUP3 ADD SWAP1 POP SWAP2 SWAP1 POP JUMP JUMPDEST PUSH1 0xA0 DUP3 ADD PUSH1 0x0 DUP3 ADD MLOAD PUSH2 0x1124 PUSH1 0x0 DUP6 ADD DUP3 PUSH2 0x1176 JUMP JUMPDEST POP PUSH1 0x20 DUP3 ADD MLOAD PUSH2 0x1137 PUSH1 0x20 DUP6 ADD DUP3 PUSH2 0x1176 JUMP JUMPDEST POP PUSH1 0x40 DUP3 ADD MLOAD PUSH2 0x114A PUSH1 0x40 DUP6 ADD DUP3 PUSH2 0x1176 JUMP JUMPDEST POP PUSH1 0x60 DUP3 ADD MLOAD PUSH2 0x115D PUSH1 0x60 DUP6 ADD DUP3 PUSH2 0x1176 JUMP JUMPDEST POP PUSH1 0x80 DUP3 ADD MLOAD PUSH2 0x1170 PUSH1 0x80 DUP6 ADD DUP3 PUSH2 0x1055 JUMP JUMPDEST POP POP POP POP JUMP JUMPDEST PUSH2 0x117F DUP2 PUSH2 0x147F JUMP JUMPDEST DUP3 MSTORE POP POP JUMP JUMPDEST PUSH2 0x118E DUP2 PUSH2 0x147F JUMP JUMPDEST DUP3 MSTORE POP POP JUMP JUMPDEST PUSH2 0x119D DUP2 PUSH2 0x1489 JUMP JUMPDEST DUP3 MSTORE POP POP JUMP JUMPDEST PUSH1 0x0 PUSH1 0x20 DUP3 ADD SWAP1 POP PUSH2 0x11B8 PUSH1 0x0 DUP4 ADD DUP5 PUSH2 0x1064 JUMP JUMPDEST SWAP3 SWAP2 POP POP JUMP JUMPDEST PUSH1 0x0 PUSH1 0x60 DUP3 ADD SWAP1 POP PUSH2 0x11D3 PUSH1 0x0 DUP4 ADD DUP7 PUSH2 0x1064 JUMP JUMPDEST PUSH2 0x11E0 PUSH1 0x20 DUP4 ADD DUP6 PUSH2 0x1064 JUMP JUMPDEST PUSH2 0x11ED PUSH1 0x40 DUP4 ADD DUP5 PUSH2 0x1185 JUMP JUMPDEST SWAP5 SWAP4 POP POP POP POP JUMP JUMPDEST PUSH1 0x0 PUSH1 0xA0 DUP3 ADD SWAP1 POP PUSH2 0x120A PUSH1 0x0 DUP4 ADD DUP8 PUSH2 0x1064 JUMP JUMPDEST PUSH2 0x1217 PUSH1 0x20 DUP4 ADD DUP7 PUSH2 0x1064 JUMP JUMPDEST PUSH2 0x1224 PUSH1 0x40 DUP4 ADD DUP6 PUSH2 0x1185 JUMP JUMPDEST PUSH2 0x1231 PUSH1 0x60 DUP4 ADD DUP5 PUSH2 0x1185 JUMP JUMPDEST DUP2 DUP2 SUB PUSH1 0x80 DUP4 ADD MSTORE PUSH2 0x1242 DUP2 PUSH2 0x10EB JUMP JUMPDEST SWAP1 POP SWAP6 SWAP5 POP POP POP POP POP JUMP JUMPDEST PUSH1 0x0 PUSH1 0x20 DUP3 ADD SWAP1 POP PUSH2 0x1262 PUSH1 0x0 DUP4 ADD DUP5 PUSH2 0x1073 JUMP JUMPDEST SWAP3 SWAP2 POP POP JUMP JUMPDEST PUSH1 0x0 PUSH1 0x20 DUP3 ADD SWAP1 POP DUP2 DUP2 SUB PUSH1 0x0 DUP4 ADD MSTORE PUSH2 0x1281 DUP2 PUSH2 0x1082 JUMP JUMPDEST SWAP1 POP SWAP2 SWAP1 POP JUMP JUMPDEST PUSH1 0x0 PUSH1 0x20 DUP3 ADD SWAP1 POP DUP2 DUP2 SUB PUSH1 0x0 DUP4 ADD MSTORE PUSH2 0x12A1 DUP2 PUSH2 0x10A5 JUMP JUMPDEST SWAP1 POP SWAP2 SWAP1 POP JUMP JUMPDEST PUSH1 0x0 PUSH1 0x20 DUP3 ADD SWAP1 POP DUP2 DUP2 SUB PUSH1 0x0 DUP4 ADD MSTORE PUSH2 0x12C1 DUP2 PUSH2 0x10C8 JUMP JUMPDEST SWAP1 POP SWAP2 SWAP1 POP JUMP JUMPDEST PUSH1 0x0 PUSH1 0xA0 DUP3 ADD SWAP1 POP PUSH2 0x12DD PUSH1 0x0 DUP4 ADD DUP5 PUSH2 0x110E JUMP JUMPDEST SWAP3 SWAP2 POP POP JUMP JUMPDEST PUSH1 0x0 PUSH1 0x20 DUP3 ADD SWAP1 POP PUSH2 0x12F8 PUSH1 0x0 DUP4 ADD DUP5 PUSH2 0x1185 JUMP JUMPDEST SWAP3 SWAP2 POP POP JUMP JUMPDEST PUSH1 0x0 PUSH1 0x20 DUP3 ADD SWAP1 POP PUSH2 0x1313 PUSH1 0x0 DUP4 ADD DUP5 PUSH2 0x1194 JUMP JUMPDEST SWAP3 SWAP2 POP POP JUMP JUMPDEST PUSH1 0x0 PUSH2 0x1323 PUSH2 0x1334 JUMP JUMPDEST SWAP1 POP PUSH2 0x132F DUP3 DUP3 PUSH2 0x1496 JUMP JUMPDEST SWAP2 SWAP1 POP JUMP JUMPDEST PUSH1 0x0 PUSH1 0x40 MLOAD SWAP1 POP SWAP1 JUMP JUMPDEST PUSH1 0x0 DUP3 DUP3 MSTORE PUSH1 0x20 DUP3 ADD SWAP1 POP SWAP3 SWAP2 POP POP JUMP JUMPDEST PUSH1 0x0 DUP3 DUP3 MSTORE PUSH1 0x20 DUP3 ADD SWAP1 POP SWAP3 SWAP2 POP POP JUMP JUMPDEST PUSH1 0x0 PUSH2 0x136B DUP3 PUSH2 0x147F JUMP JUMPDEST SWAP2 POP PUSH2 0x1376 DUP4 PUSH2 0x147F JUMP JUMPDEST SWAP3 POP DUP3 PUSH32 0xFFFFFFFFFFFFFFFFFFFFFFFFFFFFFFFFFFFFFFFFFFFFFFFFFFFFFFFFFFFFFFFF SUB DUP3 GT ISZERO PUSH2 0x13AB JUMPI PUSH2 0x13AA PUSH2 0x14C7 JUMP JUMPDEST JUMPDEST DUP3 DUP3 ADD SWAP1 POP SWAP3 SWAP2 POP POP JUMP JUMPDEST PUSH1 0x0 PUSH2 0x13C1 DUP3 PUSH2 0x147F JUMP JUMPDEST SWAP2 POP PUSH2 0x13CC DUP4 PUSH2 0x147F JUMP JUMPDEST SWAP3 POP DUP3 PUSH2 0x13DC JUMPI PUSH2 0x13DB PUSH2 0x14F6 JUMP JUMPDEST JUMPDEST DUP3 DUP3 DIV SWAP1 POP SWAP3 SWAP2 POP POP JUMP JUMPDEST PUSH1 0x0 PUSH2 0x13F2 DUP3 PUSH2 0x147F JUMP JUMPDEST SWAP2 POP PUSH2 0x13FD DUP4 PUSH2 0x147F JUMP JUMPDEST SWAP3 POP DUP2 PUSH32 0xFFFFFFFFFFFFFFFFFFFFFFFFFFFFFFFFFFFFFFFFFFFFFFFFFFFFFFFFFFFFFFFF DIV DUP4 GT DUP3 ISZERO ISZERO AND ISZERO PUSH2 0x1436 JUMPI PUSH2 0x1435 PUSH2 0x14C7 JUMP JUMPDEST JUMPDEST DUP3 DUP3 MUL SWAP1 POP SWAP3 SWAP2 POP POP JUMP JUMPDEST PUSH1 0x0 PUSH2 0x144C DUP3 PUSH2 0x145F JUMP JUMPDEST SWAP1 POP SWAP2 SWAP1 POP JUMP JUMPDEST PUSH1 0x0 DUP2 ISZERO ISZERO SWAP1 POP SWAP2 SWAP1 POP JUMP JUMPDEST PUSH1 0x0 PUSH20 0xFFFFFFFFFFFFFFFFFFFFFFFFFFFFFFFFFFFFFFFF DUP3 AND SWAP1 POP SWAP2 SWAP1 POP JUMP JUMPDEST PUSH1 0x0 DUP2 SWAP1 POP SWAP2 SWAP1 POP JUMP JUMPDEST PUSH1 0x0 PUSH1 0xFF DUP3 AND SWAP1 POP SWAP2 SWAP1 POP JUMP JUMPDEST PUSH2 0x149F DUP3 PUSH2 0x1592 JUMP JUMPDEST DUP2 ADD DUP2 DUP2 LT PUSH8 0xFFFFFFFFFFFFFFFF DUP3 GT OR ISZERO PUSH2 0x14BE JUMPI PUSH2 0x14BD PUSH2 0x1554 JUMP JUMPDEST JUMPDEST DUP1 PUSH1 0x40 MSTORE POP POP POP JUMP JUMPDEST PUSH32 0x4E487B7100000000000000000000000000000000000000000000000000000000 PUSH1 0x0 MSTORE PUSH1 0x11 PUSH1 0x4 MSTORE PUSH1 0x24 PUSH1 0x0 REVERT JUMPDEST PUSH32 0x4E487B7100000000000000000000000000000000000000000000000000000000 PUSH1 0x0 MSTORE PUSH1 0x12 PUSH1 0x4 MSTORE PUSH1 0x24 PUSH1 0x0 REVERT JUMPDEST PUSH32 0x4E487B7100000000000000000000000000000000000000000000000000000000 PUSH1 0x0 MSTORE PUSH1 0x21 PUSH1 0x4 MSTORE PUSH1 0x24 PUSH1 0x0 REVERT JUMPDEST PUSH32 0x4E487B7100000000000000000000000000000000000000000000000000000000 PUSH1 0x0 MSTORE PUSH1 0x41 PUSH1 0x4 MSTORE PUSH1 0x24 PUSH1 0x0 REVERT JUMPDEST PUSH1 0x0 DUP1 REVERT JUMPDEST PUSH1 0x0 DUP1 REVERT JUMPDEST PUSH1 0x0 DUP1 REVERT JUMPDEST PUSH1 0x0 PUSH1 0x1F NOT PUSH1 0x1F DUP4 ADD AND SWAP1 POP SWAP2 SWAP1 POP JUMP JUMPDEST PUSH32 0x5061696420696E76616C696420616D6F756E7400000000000000000000000000 PUSH1 0x0 DUP3 ADD MSTORE POP JUMP JUMPDEST PUSH32 0x4F776E61626C653A206E6577206F776E657220697320746865207A65726F2061 PUSH1 0x0 DUP3 ADD MSTORE PUSH32 0x6464726573730000000000000000000000000000000000000000000000000000 PUSH1 0x20 DUP3 ADD MSTORE POP JUMP JUMPDEST PUSH32 0x4F776E61626C653A2063616C6C6572206973206E6F7420746865206F776E6572 PUSH1 0x0 DUP3 ADD MSTORE POP JUMP JUMPDEST POP JUMP JUMPDEST PUSH2 0x1650 DUP2 PUSH2 0x1441 JUMP JUMPDEST DUP2 EQ PUSH2 0x165B JUMPI PUSH1 0x0 DUP1 REVERT JUMPDEST POP JUMP JUMPDEST PUSH2 0x1667 DUP2 PUSH2 0x1453 JUMP JUMPDEST DUP2 EQ PUSH2 0x1672 JUMPI PUSH1 0x0 DUP1 REVERT JUMPDEST POP JUMP JUMPDEST PUSH1 0x2 DUP2 LT PUSH2 0x1682 JUMPI PUSH1 0x0 DUP1 REVERT JUMPDEST POP JUMP JUMPDEST PUSH2 0x168E DUP2 PUSH2 0x147F JUMP JUMPDEST DUP2 EQ PUSH2 0x1699 JUMPI PUSH1 0x0 DUP1 REVERT JUMPDEST POP JUMP JUMPDEST PUSH2 0x16A5 DUP2 PUSH2 0x1489 JUMP JUMPDEST DUP2 EQ PUSH2 0x16B0 JUMPI PUSH1 0x0 DUP1 REVERT JUMPDEST POP JUMP INVALID LOG2 PUSH5 0x6970667358 0x22 SLT KECCAK256 ADDMOD GAS 0xBE DUP3 0xE6 0xD0 CALLDATASIZE CALLVALUE 0xB8 RETURN CALLCODE MUL STATICCALL DUP2 0xEF PUSH27 0x4378115E9DBE7335FF392563752ED01E64736F6C63430008070033 "
				},
				"gasEstimates": {
					"creation": {
						"codeDepositCost": "1173000",
						"executionCost": "infinite",
						"totalCost": "infinite"
					},
					"external": {
						"Owner()": "2558",
						"Sell((address,address,address,address,uint8,uint256,uint256,uint256,uint256),(uint256,uint256,uint256,uint256,address),address,address)": "infinite",
						"buyAsset((address,address,address,address,uint8,uint256,uint256,uint256,uint256))": "infinite",
						"buyerServiceFee()": "2618",
						"getFees(uint256,uint8,address,uint256)": "infinite",
						"owner()": "2589",
						"renounceOwnership()": "30443",
						"sellerServiceFee()": "2552",
						"setBuyerServiceFee(uint8)": "27217",
						"setSellerServiceFee(uint8)": "27195",
						"transferOwnership(address)": "30857"
					}
				},
				"methodIdentifiers": {
					"Owner()": "b4a99a4e",
					"Sell((address,address,address,address,uint8,uint256,uint256,uint256,uint256),(uint256,uint256,uint256,uint256,address),address,address)": "2fd001c7",
					"buyAsset((address,address,address,address,uint8,uint256,uint256,uint256,uint256))": "db90a177",
					"buyerServiceFee()": "9c66809d",
					"getFees(uint256,uint8,address,uint256)": "b6b49c8a",
					"owner()": "8da5cb5b",
					"renounceOwnership()": "715018a6",
					"sellerServiceFee()": "60085da6",
					"setBuyerServiceFee(uint8)": "a96b446d",
					"setSellerServiceFee(uint8)": "a3667c7b",
					"transferOwnership(address)": "f2fde38b"
				}
			},
			"storageLayout": {
				"storage": [
					{
						"astId": 307,
						"contract": "market_place.sol:MarketPlace",
						"label": "_owner",
						"offset": 0,
						"slot": "0",
						"type": "t_address"
					},
					{
						"astId": 525,
						"contract": "market_place.sol:MarketPlace",
						"label": "buyerFee",
						"offset": 20,
						"slot": "0",
						"type": "t_uint8"
					},
					{
						"astId": 527,
						"contract": "market_place.sol:MarketPlace",
						"label": "sellerFee",
						"offset": 21,
						"slot": "0",
						"type": "t_uint8"
					},
					{
						"astId": 529,
						"contract": "market_place.sol:MarketPlace",
						"label": "Owner",
						"offset": 0,
						"slot": "1",
						"type": "t_address"
					}
				],
				"types": {
					"t_address": {
						"encoding": "inplace",
						"label": "address",
						"numberOfBytes": "20"
					},
					"t_uint8": {
						"encoding": "inplace",
						"label": "uint8",
						"numberOfBytes": "1"
					}
				}
			},
			"userdoc": {
				"kind": "user",
				"methods": {},
				"version": 1
			}
		}
	}
}