{
	"data": {
		"bytecode": {
			"linkReferences": {},
			"object": "60806040523480156200001157600080fd5b50604051620033de380380620033de8339818101604052810190620000379190620002e7565b806200004981620000da60201b60201c565b50600081511162000091576040517f08c379a00000000000000000000000000000000000000000000000000000000081526004016200008890620003ae565b60405180910390fd5b81600760006101000a81548173ffffffffffffffffffffffffffffffffffffffff021916908373ffffffffffffffffffffffffffffffffffffffff160217905550505062000702565b8060029081620000eb91906200061b565b5050565b6000604051905090565b600080fd5b600080fd5b600073ffffffffffffffffffffffffffffffffffffffff82169050919050565b6000620001308262000103565b9050919050565b620001428162000123565b81146200014e57600080fd5b50565b600081519050620001628162000137565b92915050565b600080fd5b600080fd5b6000601f19601f8301169050919050565b7f4e487b7100000000000000000000000000000000000000000000000000000000600052604160045260246000fd5b620001bd8262000172565b810181811067ffffffffffffffff82111715620001df57620001de62000183565b5b80604052505050565b6000620001f4620000ef565b9050620002028282620001b2565b919050565b600067ffffffffffffffff82111562000225576200022462000183565b5b620002308262000172565b9050602081019050919050565b60005b838110156200025d57808201518184015260208101905062000240565b60008484015250505050565b6000620002806200027a8462000207565b620001e8565b9050828152602081018484840111156200029f576200029e6200016d565b5b620002ac8482856200023d565b509392505050565b600082601f830112620002cc57620002cb62000168565b5b8151620002de84826020860162000269565b91505092915050565b60008060408385031215620003015762000300620000f9565b5b6000620003118582860162000151565b925050602083015167ffffffffffffffff811115620003355762000334620000fe565b5b6200034385828601620002b4565b9150509250929050565b600082825260208201905092915050565b7f656d70747920737472696e67206e6f7420616c6c6f7765640000000000000000600082015250565b6000620003966018836200034d565b9150620003a3826200035e565b602082019050919050565b60006020820190508181036000830152620003c98162000387565b9050919050565b600081519050919050565b7f4e487b7100000000000000000000000000000000000000000000000000000000600052602260045260246000fd5b600060028204905060018216806200042357607f821691505b602082108103620004395762000438620003db565b5b50919050565b60008190508160005260206000209050919050565b60006020601f8301049050919050565b600082821b905092915050565b600060088302620004a37fffffffffffffffffffffffffffffffffffffffffffffffffffffffffffffffff8262000464565b620004af868362000464565b95508019841693508086168417925050509392505050565b6000819050919050565b6000819050919050565b6000620004fc620004f6620004f084620004c7565b620004d1565b620004c7565b9050919050565b6000819050919050565b6200051883620004db565b62000530620005278262000503565b84845462000471565b825550505050565b600090565b6200054762000538565b620005548184846200050d565b505050565b5b818110156200057c57620005706000826200053d565b6001810190506200055a565b5050565b601f821115620005cb5762000595816200043f565b620005a08462000454565b81016020851015620005b0578190505b620005c8620005bf8562000454565b83018262000559565b50505b505050565b600082821c905092915050565b6000620005f060001984600802620005d0565b1980831691505092915050565b60006200060b8383620005dd565b9150826002028217905092915050565b6200062682620003d0565b67ffffffffffffffff81111562000642576200064162000183565b5b6200064e82546200040a565b6200065b82828562000580565b600060209050601f8311600181146200069357600084156200067e578287015190505b6200068a8582620005fd565b865550620006fa565b601f198416620006a3866200043f565b60005b82811015620006cd57848901518255600182019150602085019450602081019050620006a6565b86831015620006ed5784890151620006e9601f891682620005dd565b8355505b6001600288020188555050505b505050505050565b612ccc80620007126000396000f3fe608060405234801561001057600080fd5b50600436106100a85760003560e01c80634b641181116100715780634b641181146101755780634e1273f414610191578063a22cb465146101c1578063bd85b039146101dd578063e985e9c51461020d578063f242432a1461023d576100a8565b8062fdd58e146100ad57806301ffc9a7146100dd5780630e89341c1461010d5780632db32baf1461013d5780632eb2c2d614610159575b600080fd5b6100c760048036038101906100c2919061190f565b610259565b6040516100d4919061195e565b60405180910390f35b6100f760048036038101906100f291906119d1565b610321565b6040516101049190611a19565b60405180910390f35b61012760048036038101906101229190611a34565b610403565b6040516101349190611af1565b60405180910390f35b61015760048036038101906101529190611d10565b610497565b005b610173600480360381019061016e9190611dcb565b6104e6565b005b61018f600480360381019061018a9190611e9a565b610587565b005b6101ab60048036038101906101a69190611fe0565b6105d6565b6040516101b89190612116565b60405180910390f35b6101db60048036038101906101d69190612164565b6106ef565b005b6101f760048036038101906101f29190611a34565b610705565b604051610204919061195e565b60405180910390f35b610227600480360381019061022291906121a4565b61070f565b6040516102349190611a19565b60405180910390f35b610257600480360381019061025291906121e4565b6107a3565b005b60008073ffffffffffffffffffffffffffffffffffffffff168373ffffffffffffffffffffffffffffffffffffffff16036102c9576040517f08c379a00000000000000000000000000000000000000000000000000000000081526004016102c0906122ed565b60405180910390fd5b60008083815260200190815260200160002060008473ffffffffffffffffffffffffffffffffffffffff1673ffffffffffffffffffffffffffffffffffffffff16815260200190815260200160002054905092915050565b60007fd9b67a26000000000000000000000000000000000000000000000000000000007bffffffffffffffffffffffffffffffffffffffffffffffffffffffff1916827bffffffffffffffffffffffffffffffffffffffffffffffffffffffff191614806103ec57507f0e89341c000000000000000000000000000000000000000000000000000000007bffffffffffffffffffffffffffffffffffffffffffffffffffffffff1916827bffffffffffffffffffffffffffffffffffffffffffffffffffffffff1916145b806103fc57506103fb82610844565b5b9050919050565b6060600280546104129061233c565b80601f016020809104026020016040519081016040528092919081815260200182805461043e9061233c565b801561048b5780601f106104605761010080835404028352916020019161048b565b820191906000526020600020905b81548152906001019060200180831161046e57829003601f168201915b50505050509050919050565b6104a3848484846108ae565b7f3d449d78c90065c4d01899b1dba64765adb8d2517686b1a85012600135924f80848484846040516104d894939291906123d1565b60405180910390a150505050565b6104ee610ada565b73ffffffffffffffffffffffffffffffffffffffff168573ffffffffffffffffffffffffffffffffffffffff16148061053457506105338561052e610ada565b61070f565b5b610573576040517f08c379a000000000000000000000000000000000000000000000000000000000815260040161056a9061249d565b60405180910390fd5b6105808585858585610ae2565b5050505050565b61059384848484610e03565b7fc9d929308ce6fe87635af5be60ec7a966d4c39625686bde0f3b8d6d6ffcea79f848484846040516105c894939291906124bd565b60405180910390a150505050565b6060815183511461061c576040517f08c379a00000000000000000000000000000000000000000000000000000000081526004016106139061257b565b60405180910390fd5b6000835167ffffffffffffffff81111561063957610638611b18565b5b6040519080825280602002602001820160405280156106675781602001602082028036833780820191505090505b50905060005b84518110156106e4576106b485828151811061068c5761068b61259b565b5b60200260200101518583815181106106a7576106a661259b565b5b6020026020010151610259565b8282815181106106c7576106c661259b565b5b602002602001018181525050806106dd906125f9565b905061066d565b508091505092915050565b6107016106fa610ada565b8383611005565b5050565b6000819050919050565b6000600160008473ffffffffffffffffffffffffffffffffffffffff1673ffffffffffffffffffffffffffffffffffffffff16815260200190815260200160002060008373ffffffffffffffffffffffffffffffffffffffff1673ffffffffffffffffffffffffffffffffffffffff16815260200190815260200160002060009054906101000a900460ff16905092915050565b6107ab610ada565b73ffffffffffffffffffffffffffffffffffffffff168573ffffffffffffffffffffffffffffffffffffffff1614806107f157506107f0856107eb610ada565b61070f565b5b610830576040517f08c379a00000000000000000000000000000000000000000000000000000000081526004016108279061249d565b60405180910390fd5b61083d8585858585611171565b5050505050565b60007f01ffc9a7000000000000000000000000000000000000000000000000000000007bffffffffffffffffffffffffffffffffffffffffffffffffffffffff1916827bffffffffffffffffffffffffffffffffffffffffffffffffffffffff1916149050919050565b600073ffffffffffffffffffffffffffffffffffffffff168473ffffffffffffffffffffffffffffffffffffffff160361091d576040517f08c379a0000000000000000000000000000000000000000000000000000000008152600401610914906126b3565b60405180910390fd5b8151835114610961576040517f08c379a000000000000000000000000000000000000000000000000000000000815260040161095890612745565b60405180910390fd5b600061096b610ada565b905061097c8160008787878761140c565b60005b8451811015610a355783818151811061099b5761099a61259b565b5b60200260200101516000808784815181106109b9576109b861259b565b5b6020026020010151815260200190815260200160002060008873ffffffffffffffffffffffffffffffffffffffff1673ffffffffffffffffffffffffffffffffffffffff1681526020019081526020016000206000828254610a1b9190612765565b925050819055508080610a2d906125f9565b91505061097f565b508473ffffffffffffffffffffffffffffffffffffffff16600073ffffffffffffffffffffffffffffffffffffffff168273ffffffffffffffffffffffffffffffffffffffff167f4a39dc06d4c0dbc64b70af90fd698a233a518aa5d07e595d983b8c0526c8f7fb8787604051610aad929190612799565b60405180910390a4610ac481600087878787611414565b610ad38160008787878761141c565b5050505050565b600033905090565b8151835114610b26576040517f08c379a0000000000000000000000000000000000000000000000000000000008152600401610b1d90612745565b60405180910390fd5b600073ffffffffffffffffffffffffffffffffffffffff168473ffffffffffffffffffffffffffffffffffffffff1603610b95576040517f08c379a0000000000000000000000000000000000000000000000000000000008152600401610b8c90612842565b60405180910390fd5b6000610b9f610ada565b9050610baf81878787878761140c565b60005b8451811015610d60576000858281518110610bd057610bcf61259b565b5b602002602001015190506000858381518110610bef57610bee61259b565b5b60200260200101519050600080600084815260200190815260200160002060008b73ffffffffffffffffffffffffffffffffffffffff1673ffffffffffffffffffffffffffffffffffffffff16815260200190815260200160002054905081811015610c90576040517f08c379a0000000000000000000000000000000000000000000000000000000008152600401610c87906128d4565b60405180910390fd5b81810360008085815260200190815260200160002060008c73ffffffffffffffffffffffffffffffffffffffff1673ffffffffffffffffffffffffffffffffffffffff168152602001908152602001600020819055508160008085815260200190815260200160002060008b73ffffffffffffffffffffffffffffffffffffffff1673ffffffffffffffffffffffffffffffffffffffff1681526020019081526020016000206000828254610d459190612765565b9250508190555050505080610d59906125f9565b9050610bb2565b508473ffffffffffffffffffffffffffffffffffffffff168673ffffffffffffffffffffffffffffffffffffffff168273ffffffffffffffffffffffffffffffffffffffff167f4a39dc06d4c0dbc64b70af90fd698a233a518aa5d07e595d983b8c0526c8f7fb8787604051610dd7929190612799565b60405180910390a4610ded818787878787611414565b610dfb81878787878761141c565b505050505050565b600073ffffffffffffffffffffffffffffffffffffffff168473ffffffffffffffffffffffffffffffffffffffff1603610e72576040517f08c379a0000000000000000000000000000000000000000000000000000000008152600401610e69906126b3565b60405180910390fd5b6000610e7c610ada565b90506000610e89856115f3565b90506000610e96856115f3565b9050336003600088815260200190815260200160002060006101000a81548173ffffffffffffffffffffffffffffffffffffffff021916908373ffffffffffffffffffffffffffffffffffffffff160217905550610ef98360008985858961140c565b8460008088815260200190815260200160002060008973ffffffffffffffffffffffffffffffffffffffff1673ffffffffffffffffffffffffffffffffffffffff1681526020019081526020016000206000828254610f589190612765565b925050819055508673ffffffffffffffffffffffffffffffffffffffff16600073ffffffffffffffffffffffffffffffffffffffff168473ffffffffffffffffffffffffffffffffffffffff167fc3d58168c5ae7397731d063d5bbf3d657854427343f4c083240f7aacaa2d0f628989604051610fd69291906128f4565b60405180910390a4610fed83600089858589611414565b610ffc8360008989898961166d565b50505050505050565b8173ffffffffffffffffffffffffffffffffffffffff168373ffffffffffffffffffffffffffffffffffffffff1603611073576040517f08c379a000000000000000000000000000000000000000000000000000000000815260040161106a9061298f565b60405180910390fd5b80600160008573ffffffffffffffffffffffffffffffffffffffff1673ffffffffffffffffffffffffffffffffffffffff16815260200190815260200160002060008473ffffffffffffffffffffffffffffffffffffffff1673ffffffffffffffffffffffffffffffffffffffff16815260200190815260200160002060006101000a81548160ff0219169083151502179055508173ffffffffffffffffffffffffffffffffffffffff168373ffffffffffffffffffffffffffffffffffffffff167f17307eab39ab6107e8899845ad3d59bd9653f200f220920489ca2b5937696c31836040516111649190611a19565b60405180910390a3505050565b600073ffffffffffffffffffffffffffffffffffffffff168473ffffffffffffffffffffffffffffffffffffffff16036111e0576040517f08c379a00000000000000000000000000000000000000000000000000000000081526004016111d790612842565b60405180910390fd5b60006111ea610ada565b905060006111f7856115f3565b90506000611204856115f3565b905061121483898985858961140c565b600080600088815260200190815260200160002060008a73ffffffffffffffffffffffffffffffffffffffff1673ffffffffffffffffffffffffffffffffffffffff168152602001908152602001600020549050858110156112ab576040517f08c379a00000000000000000000000000000000000000000000000000000000081526004016112a2906128d4565b60405180910390fd5b85810360008089815260200190815260200160002060008b73ffffffffffffffffffffffffffffffffffffffff1673ffffffffffffffffffffffffffffffffffffffff168152602001908152602001600020819055508560008089815260200190815260200160002060008a73ffffffffffffffffffffffffffffffffffffffff1673ffffffffffffffffffffffffffffffffffffffff16815260200190815260200160002060008282546113609190612765565b925050819055508773ffffffffffffffffffffffffffffffffffffffff168973ffffffffffffffffffffffffffffffffffffffff168573ffffffffffffffffffffffffffffffffffffffff167fc3d58168c5ae7397731d063d5bbf3d657854427343f4c083240f7aacaa2d0f628a8a6040516113dd9291906128f4565b60405180910390a46113f3848a8a86868a611414565b611401848a8a8a8a8a61166d565b505050505050505050565b505050505050565b505050505050565b61143b8473ffffffffffffffffffffffffffffffffffffffff16611844565b156115eb578373ffffffffffffffffffffffffffffffffffffffff1663bc197c8187878686866040518663ffffffff1660e01b81526004016114819594939291906129af565b6020604051808303816000875af19250505080156114bd57506040513d601f19601f820116820180604052508101906114ba9190612a2c565b60015b611562576114c9612a66565b806308c379a00361152557506114dd612a88565b806114e85750611527565b806040517f08c379a000000000000000000000000000000000000000000000000000000000815260040161151c9190611af1565b60405180910390fd5b505b6040517f08c379a000000000000000000000000000000000000000000000000000000000815260040161155990612b8a565b60405180910390fd5b63bc197c8160e01b7bffffffffffffffffffffffffffffffffffffffffffffffffffffffff1916817bffffffffffffffffffffffffffffffffffffffffffffffffffffffff1916146115e9576040517f08c379a00000000000000000000000000000000000000000000000000000000081526004016115e090612c1c565b60405180910390fd5b505b505050505050565b60606000600167ffffffffffffffff81111561161257611611611b18565b5b6040519080825280602002602001820160405280156116405781602001602082028036833780820191505090505b50905082816000815181106116585761165761259b565b5b60200260200101818152505080915050919050565b61168c8473ffffffffffffffffffffffffffffffffffffffff16611844565b1561183c578373ffffffffffffffffffffffffffffffffffffffff1663f23a6e6187878686866040518663ffffffff1660e01b81526004016116d2959493929190612c3c565b6020604051808303816000875af192505050801561170e57506040513d601f19601f8201168201806040525081019061170b9190612a2c565b60015b6117b35761171a612a66565b806308c379a003611776575061172e612a88565b806117395750611778565b806040517f08c379a000000000000000000000000000000000000000000000000000000000815260040161176d9190611af1565b60405180910390fd5b505b6040517f08c379a00000000000000000000000000000000000000000000000000000000081526004016117aa90612b8a565b60405180910390fd5b63f23a6e6160e01b7bffffffffffffffffffffffffffffffffffffffffffffffffffffffff1916817bffffffffffffffffffffffffffffffffffffffffffffffffffffffff19161461183a576040517f08c379a000000000000000000000000000000000000000000000000000000000815260040161183190612c1c565b60405180910390fd5b505b505050505050565b6000808273ffffffffffffffffffffffffffffffffffffffff163b119050919050565b6000604051905090565b600080fd5b600080fd5b600073ffffffffffffffffffffffffffffffffffffffff82169050919050565b60006118a68261187b565b9050919050565b6118b68161189b565b81146118c157600080fd5b50565b6000813590506118d3816118ad565b92915050565b6000819050919050565b6118ec816118d9565b81146118f757600080fd5b50565b600081359050611909816118e3565b92915050565b6000806040838503121561192657611925611871565b5b6000611934858286016118c4565b9250506020611945858286016118fa565b9150509250929050565b611958816118d9565b82525050565b6000602082019050611973600083018461194f565b92915050565b60007fffffffff0000000000000000000000000000000000000000000000000000000082169050919050565b6119ae81611979565b81146119b957600080fd5b50565b6000813590506119cb816119a5565b92915050565b6000602082840312156119e7576119e6611871565b5b60006119f5848285016119bc565b91505092915050565b60008115159050919050565b611a13816119fe565b82525050565b6000602082019050611a2e6000830184611a0a565b92915050565b600060208284031215611a4a57611a49611871565b5b6000611a58848285016118fa565b91505092915050565b600081519050919050565b600082825260208201905092915050565b60005b83811015611a9b578082015181840152602081019050611a80565b60008484015250505050565b6000601f19601f8301169050919050565b6000611ac382611a61565b611acd8185611a6c565b9350611add818560208601611a7d565b611ae681611aa7565b840191505092915050565b60006020820190508181036000830152611b0b8184611ab8565b905092915050565b600080fd5b7f4e487b7100000000000000000000000000000000000000000000000000000000600052604160045260246000fd5b611b5082611aa7565b810181811067ffffffffffffffff82111715611b6f57611b6e611b18565b5b80604052505050565b6000611b82611867565b9050611b8e8282611b47565b919050565b600067ffffffffffffffff821115611bae57611bad611b18565b5b602082029050602081019050919050565b600080fd5b6000611bd7611bd284611b93565b611b78565b90508083825260208201905060208402830185811115611bfa57611bf9611bbf565b5b835b81811015611c235780611c0f88826118fa565b845260208401935050602081019050611bfc565b5050509392505050565b600082601f830112611c4257611c41611b13565b5b8135611c52848260208601611bc4565b91505092915050565b600080fd5b600067ffffffffffffffff821115611c7b57611c7a611b18565b5b611c8482611aa7565b9050602081019050919050565b82818337600083830152505050565b6000611cb3611cae84611c60565b611b78565b905082815260208101848484011115611ccf57611cce611c5b565b5b611cda848285611c91565b509392505050565b600082601f830112611cf757611cf6611b13565b5b8135611d07848260208601611ca0565b91505092915050565b60008060008060808587031215611d2a57611d29611871565b5b6000611d38878288016118c4565b945050602085013567ffffffffffffffff811115611d5957611d58611876565b5b611d6587828801611c2d565b935050604085013567ffffffffffffffff811115611d8657611d85611876565b5b611d9287828801611c2d565b925050606085013567ffffffffffffffff811115611db357611db2611876565b5b611dbf87828801611ce2565b91505092959194509250565b600080600080600060a08688031215611de757611de6611871565b5b6000611df5888289016118c4565b9550506020611e06888289016118c4565b945050604086013567ffffffffffffffff811115611e2757611e26611876565b5b611e3388828901611c2d565b935050606086013567ffffffffffffffff811115611e5457611e53611876565b5b611e6088828901611c2d565b925050608086013567ffffffffffffffff811115611e8157611e80611876565b5b611e8d88828901611ce2565b9150509295509295909350565b60008060008060808587031215611eb457611eb3611871565b5b6000611ec2878288016118c4565b9450506020611ed3878288016118fa565b9350506040611ee4878288016118fa565b925050606085013567ffffffffffffffff811115611f0557611f04611876565b5b611f1187828801611ce2565b91505092959194509250565b600067ffffffffffffffff821115611f3857611f37611b18565b5b602082029050602081019050919050565b6000611f5c611f5784611f1d565b611b78565b90508083825260208201905060208402830185811115611f7f57611f7e611bbf565b5b835b81811015611fa85780611f9488826118c4565b845260208401935050602081019050611f81565b5050509392505050565b600082601f830112611fc757611fc6611b13565b5b8135611fd7848260208601611f49565b91505092915050565b60008060408385031215611ff757611ff6611871565b5b600083013567ffffffffffffffff81111561201557612014611876565b5b61202185828601611fb2565b925050602083013567ffffffffffffffff81111561204257612041611876565b5b61204e85828601611c2d565b9150509250929050565b600081519050919050565b600082825260208201905092915050565b6000819050602082019050919050565b61208d816118d9565b82525050565b600061209f8383612084565b60208301905092915050565b6000602082019050919050565b60006120c382612058565b6120cd8185612063565b93506120d883612074565b8060005b838110156121095781516120f08882612093565b97506120fb836120ab565b9250506001810190506120dc565b5085935050505092915050565b6000602082019050818103600083015261213081846120b8565b905092915050565b612141816119fe565b811461214c57600080fd5b50565b60008135905061215e81612138565b92915050565b6000806040838503121561217b5761217a611871565b5b6000612189858286016118c4565b925050602061219a8582860161214f565b9150509250929050565b600080604083850312156121bb576121ba611871565b5b60006121c9858286016118c4565b92505060206121da858286016118c4565b9150509250929050565b600080600080600060a08688031215612200576121ff611871565b5b600061220e888289016118c4565b955050602061221f888289016118c4565b9450506040612230888289016118fa565b9350506060612241888289016118fa565b925050608086013567ffffffffffffffff81111561226257612261611876565b5b61226e88828901611ce2565b9150509295509295909350565b7f455243313135353a2061646472657373207a65726f206973206e6f742061207660008201527f616c6964206f776e657200000000000000000000000000000000000000000000602082015250565b60006122d7602a83611a6c565b91506122e28261227b565b604082019050919050565b60006020820190508181036000830152612306816122ca565b9050919050565b7f4e487b7100000000000000000000000000000000000000000000000000000000600052602260045260246000fd5b6000600282049050600182168061235457607f821691505b6020821081036123675761236661230d565b5b50919050565b6123768161189b565b82525050565b600081519050919050565b600082825260208201905092915050565b60006123a38261237c565b6123ad8185612387565b93506123bd818560208601611a7d565b6123c681611aa7565b840191505092915050565b60006080820190506123e6600083018761236d565b81810360208301526123f881866120b8565b9050818103604083015261240c81856120b8565b905081810360608301526124208184612398565b905095945050505050565b7f455243313135353a2063616c6c6572206973206e6f7420746f6b656e206f776e60008201527f6572206f7220617070726f766564000000000000000000000000000000000000602082015250565b6000612487602e83611a6c565b91506124928261242b565b604082019050919050565b600060208201905081810360008301526124b68161247a565b9050919050565b60006080820190506124d2600083018761236d565b6124df602083018661194f565b6124ec604083018561194f565b81810360608301526124fe8184612398565b905095945050505050565b7f455243313135353a206163636f756e747320616e6420696473206c656e67746860008201527f206d69736d617463680000000000000000000000000000000000000000000000602082015250565b6000612565602983611a6c565b915061257082612509565b604082019050919050565b6000602082019050818103600083015261259481612558565b9050919050565b7f4e487b7100000000000000000000000000000000000000000000000000000000600052603260045260246000fd5b7f4e487b7100000000000000000000000000000000000000000000000000000000600052601160045260246000fd5b6000612604826118d9565b91507fffffffffffffffffffffffffffffffffffffffffffffffffffffffffffffffff8203612636576126356125ca565b5b600182019050919050565b7f455243313135353a206d696e7420746f20746865207a65726f2061646472657360008201527f7300000000000000000000000000000000000000000000000000000000000000602082015250565b600061269d602183611a6c565b91506126a882612641565b604082019050919050565b600060208201905081810360008301526126cc81612690565b9050919050565b7f455243313135353a2069647320616e6420616d6f756e7473206c656e6774682060008201527f6d69736d61746368000000000000000000000000000000000000000000000000602082015250565b600061272f602883611a6c565b915061273a826126d3565b604082019050919050565b6000602082019050818103600083015261275e81612722565b9050919050565b6000612770826118d9565b915061277b836118d9565b9250828201905080821115612793576127926125ca565b5b92915050565b600060408201905081810360008301526127b381856120b8565b905081810360208301526127c781846120b8565b90509392505050565b7f455243313135353a207472616e7366657220746f20746865207a65726f20616460008201527f6472657373000000000000000000000000000000000000000000000000000000602082015250565b600061282c602583611a6c565b9150612837826127d0565b604082019050919050565b6000602082019050818103600083015261285b8161281f565b9050919050565b7f455243313135353a20696e73756666696369656e742062616c616e636520666f60008201527f72207472616e7366657200000000000000000000000000000000000000000000602082015250565b60006128be602a83611a6c565b91506128c982612862565b604082019050919050565b600060208201905081810360008301526128ed816128b1565b9050919050565b6000604082019050612909600083018561194f565b612916602083018461194f565b9392505050565b7f455243313135353a2073657474696e6720617070726f76616c2073746174757360008201527f20666f722073656c660000000000000000000000000000000000000000000000602082015250565b6000612979602983611a6c565b91506129848261291d565b604082019050919050565b600060208201905081810360008301526129a88161296c565b9050919050565b600060a0820190506129c4600083018861236d565b6129d1602083018761236d565b81810360408301526129e381866120b8565b905081810360608301526129f781856120b8565b90508181036080830152612a0b8184612398565b90509695505050505050565b600081519050612a26816119a5565b92915050565b600060208284031215612a4257612a41611871565b5b6000612a5084828501612a17565b91505092915050565b60008160e01c9050919050565b600060033d1115612a855760046000803e612a82600051612a59565b90505b90565b600060443d10612b1557612a9a611867565b60043d036004823e80513d602482011167ffffffffffffffff82111715612ac2575050612b15565b808201805167ffffffffffffffff811115612ae05750505050612b15565b80602083010160043d038501811115612afd575050505050612b15565b612b0c82602001850186611b47565b82955050505050505b90565b7f455243313135353a207472616e7366657220746f206e6f6e2d4552433131353560008201527f526563656976657220696d706c656d656e746572000000000000000000000000602082015250565b6000612b74603483611a6c565b9150612b7f82612b18565b604082019050919050565b60006020820190508181036000830152612ba381612b67565b9050919050565b7f455243313135353a204552433131353552656365697665722072656a6563746560008201527f6420746f6b656e73000000000000000000000000000000000000000000000000602082015250565b6000612c06602883611a6c565b9150612c1182612baa565b604082019050919050565b60006020820190508181036000830152612c3581612bf9565b9050919050565b600060a082019050612c51600083018861236d565b612c5e602083018761236d565b612c6b604083018661194f565b612c78606083018561194f565b8181036080830152612c8a8184612398565b9050969550505050505056fea2646970667358221220ae0be6111063c42bd3d358d5574e3605662e0e74b156854fc1f32c255e27499264736f6c63430008110033",
			"opcodes": "PUSH1 0x80 PUSH1 0x40 MSTORE CALLVALUE DUP1 ISZERO PUSH3 0x11 JUMPI PUSH1 0x0 DUP1 REVERT JUMPDEST POP PUSH1 0x40 MLOAD PUSH3 0x33DE CODESIZE SUB DUP1 PUSH3 0x33DE DUP4 CODECOPY DUP2 DUP2 ADD PUSH1 0x40 MSTORE DUP2 ADD SWAP1 PUSH3 0x37 SWAP2 SWAP1 PUSH3 0x2E7 JUMP JUMPDEST DUP1 PUSH3 0x49 DUP2 PUSH3 0xDA PUSH1 0x20 SHL PUSH1 0x20 SHR JUMP JUMPDEST POP PUSH1 0x0 DUP2 MLOAD GT PUSH3 0x91 JUMPI PUSH1 0x40 MLOAD PUSH32 0x8C379A000000000000000000000000000000000000000000000000000000000 DUP2 MSTORE PUSH1 0x4 ADD PUSH3 0x88 SWAP1 PUSH3 0x3AE JUMP JUMPDEST PUSH1 0x40 MLOAD DUP1 SWAP2 SUB SWAP1 REVERT JUMPDEST DUP2 PUSH1 0x7 PUSH1 0x0 PUSH2 0x100 EXP DUP2 SLOAD DUP2 PUSH20 0xFFFFFFFFFFFFFFFFFFFFFFFFFFFFFFFFFFFFFFFF MUL NOT AND SWAP1 DUP4 PUSH20 0xFFFFFFFFFFFFFFFFFFFFFFFFFFFFFFFFFFFFFFFF AND MUL OR SWAP1 SSTORE POP POP POP PUSH3 0x702 JUMP JUMPDEST DUP1 PUSH1 0x2 SWAP1 DUP2 PUSH3 0xEB SWAP2 SWAP1 PUSH3 0x61B JUMP JUMPDEST POP POP JUMP JUMPDEST PUSH1 0x0 PUSH1 0x40 MLOAD SWAP1 POP SWAP1 JUMP JUMPDEST PUSH1 0x0 DUP1 REVERT JUMPDEST PUSH1 0x0 DUP1 REVERT JUMPDEST PUSH1 0x0 PUSH20 0xFFFFFFFFFFFFFFFFFFFFFFFFFFFFFFFFFFFFFFFF DUP3 AND SWAP1 POP SWAP2 SWAP1 POP JUMP JUMPDEST PUSH1 0x0 PUSH3 0x130 DUP3 PUSH3 0x103 JUMP JUMPDEST SWAP1 POP SWAP2 SWAP1 POP JUMP JUMPDEST PUSH3 0x142 DUP2 PUSH3 0x123 JUMP JUMPDEST DUP2 EQ PUSH3 0x14E JUMPI PUSH1 0x0 DUP1 REVERT JUMPDEST POP JUMP JUMPDEST PUSH1 0x0 DUP2 MLOAD SWAP1 POP PUSH3 0x162 DUP2 PUSH3 0x137 JUMP JUMPDEST SWAP3 SWAP2 POP POP JUMP JUMPDEST PUSH1 0x0 DUP1 REVERT JUMPDEST PUSH1 0x0 DUP1 REVERT JUMPDEST PUSH1 0x0 PUSH1 0x1F NOT PUSH1 0x1F DUP4 ADD AND SWAP1 POP SWAP2 SWAP1 POP JUMP JUMPDEST PUSH32 0x4E487B7100000000000000000000000000000000000000000000000000000000 PUSH1 0x0 MSTORE PUSH1 0x41 PUSH1 0x4 MSTORE PUSH1 0x24 PUSH1 0x0 REVERT JUMPDEST PUSH3 0x1BD DUP3 PUSH3 0x172 JUMP JUMPDEST DUP2 ADD DUP2 DUP2 LT PUSH8 0xFFFFFFFFFFFFFFFF DUP3 GT OR ISZERO PUSH3 0x1DF JUMPI PUSH3 0x1DE PUSH3 0x183 JUMP JUMPDEST JUMPDEST DUP1 PUSH1 0x40 MSTORE POP POP POP JUMP JUMPDEST PUSH1 0x0 PUSH3 0x1F4 PUSH3 0xEF JUMP JUMPDEST SWAP1 POP PUSH3 0x202 DUP3 DUP3 PUSH3 0x1B2 JUMP JUMPDEST SWAP2 SWAP1 POP JUMP JUMPDEST PUSH1 0x0 PUSH8 0xFFFFFFFFFFFFFFFF DUP3 GT ISZERO PUSH3 0x225 JUMPI PUSH3 0x224 PUSH3 0x183 JUMP JUMPDEST JUMPDEST PUSH3 0x230 DUP3 PUSH3 0x172 JUMP JUMPDEST SWAP1 POP PUSH1 0x20 DUP2 ADD SWAP1 POP SWAP2 SWAP1 POP JUMP JUMPDEST PUSH1 0x0 JUMPDEST DUP4 DUP2 LT ISZERO PUSH3 0x25D JUMPI DUP1 DUP3 ADD MLOAD DUP2 DUP5 ADD MSTORE PUSH1 0x20 DUP2 ADD SWAP1 POP PUSH3 0x240 JUMP JUMPDEST PUSH1 0x0 DUP5 DUP5 ADD MSTORE POP POP POP POP JUMP JUMPDEST PUSH1 0x0 PUSH3 0x280 PUSH3 0x27A DUP5 PUSH3 0x207 JUMP JUMPDEST PUSH3 0x1E8 JUMP JUMPDEST SWAP1 POP DUP3 DUP2 MSTORE PUSH1 0x20 DUP2 ADD DUP5 DUP5 DUP5 ADD GT ISZERO PUSH3 0x29F JUMPI PUSH3 0x29E PUSH3 0x16D JUMP JUMPDEST JUMPDEST PUSH3 0x2AC DUP5 DUP3 DUP6 PUSH3 0x23D JUMP JUMPDEST POP SWAP4 SWAP3 POP POP POP JUMP JUMPDEST PUSH1 0x0 DUP3 PUSH1 0x1F DUP4 ADD SLT PUSH3 0x2CC JUMPI PUSH3 0x2CB PUSH3 0x168 JUMP JUMPDEST JUMPDEST DUP2 MLOAD PUSH3 0x2DE DUP5 DUP3 PUSH1 0x20 DUP7 ADD PUSH3 0x269 JUMP JUMPDEST SWAP2 POP POP SWAP3 SWAP2 POP POP JUMP JUMPDEST PUSH1 0x0 DUP1 PUSH1 0x40 DUP4 DUP6 SUB SLT ISZERO PUSH3 0x301 JUMPI PUSH3 0x300 PUSH3 0xF9 JUMP JUMPDEST JUMPDEST PUSH1 0x0 PUSH3 0x311 DUP6 DUP3 DUP7 ADD PUSH3 0x151 JUMP JUMPDEST SWAP3 POP POP PUSH1 0x20 DUP4 ADD MLOAD PUSH8 0xFFFFFFFFFFFFFFFF DUP2 GT ISZERO PUSH3 0x335 JUMPI PUSH3 0x334 PUSH3 0xFE JUMP JUMPDEST JUMPDEST PUSH3 0x343 DUP6 DUP3 DUP7 ADD PUSH3 0x2B4 JUMP JUMPDEST SWAP2 POP POP SWAP3 POP SWAP3 SWAP1 POP JUMP JUMPDEST PUSH1 0x0 DUP3 DUP3 MSTORE PUSH1 0x20 DUP3 ADD SWAP1 POP SWAP3 SWAP2 POP POP JUMP JUMPDEST PUSH32 0x656D70747920737472696E67206E6F7420616C6C6F7765640000000000000000 PUSH1 0x0 DUP3 ADD MSTORE POP JUMP JUMPDEST PUSH1 0x0 PUSH3 0x396 PUSH1 0x18 DUP4 PUSH3 0x34D JUMP JUMPDEST SWAP2 POP PUSH3 0x3A3 DUP3 PUSH3 0x35E JUMP JUMPDEST PUSH1 0x20 DUP3 ADD SWAP1 POP SWAP2 SWAP1 POP JUMP JUMPDEST PUSH1 0x0 PUSH1 0x20 DUP3 ADD SWAP1 POP DUP2 DUP2 SUB PUSH1 0x0 DUP4 ADD MSTORE PUSH3 0x3C9 DUP2 PUSH3 0x387 JUMP JUMPDEST SWAP1 POP SWAP2 SWAP1 POP JUMP JUMPDEST PUSH1 0x0 DUP2 MLOAD SWAP1 POP SWAP2 SWAP1 POP JUMP JUMPDEST PUSH32 0x4E487B7100000000000000000000000000000000000000000000000000000000 PUSH1 0x0 MSTORE PUSH1 0x22 PUSH1 0x4 MSTORE PUSH1 0x24 PUSH1 0x0 REVERT JUMPDEST PUSH1 0x0 PUSH1 0x2 DUP3 DIV SWAP1 POP PUSH1 0x1 DUP3 AND DUP1 PUSH3 0x423 JUMPI PUSH1 0x7F DUP3 AND SWAP2 POP JUMPDEST PUSH1 0x20 DUP3 LT DUP2 SUB PUSH3 0x439 JUMPI PUSH3 0x438 PUSH3 0x3DB JUMP JUMPDEST JUMPDEST POP SWAP2 SWAP1 POP JUMP JUMPDEST PUSH1 0x0 DUP2 SWAP1 POP DUP2 PUSH1 0x0 MSTORE PUSH1 0x20 PUSH1 0x0 KECCAK256 SWAP1 POP SWAP2 SWAP1 POP JUMP JUMPDEST PUSH1 0x0 PUSH1 0x20 PUSH1 0x1F DUP4 ADD DIV SWAP1 POP SWAP2 SWAP1 POP JUMP JUMPDEST PUSH1 0x0 DUP3 DUP3 SHL SWAP1 POP SWAP3 SWAP2 POP POP JUMP JUMPDEST PUSH1 0x0 PUSH1 0x8 DUP4 MUL PUSH3 0x4A3 PUSH32 0xFFFFFFFFFFFFFFFFFFFFFFFFFFFFFFFFFFFFFFFFFFFFFFFFFFFFFFFFFFFFFFFF DUP3 PUSH3 0x464 JUMP JUMPDEST PUSH3 0x4AF DUP7 DUP4 PUSH3 0x464 JUMP JUMPDEST SWAP6 POP DUP1 NOT DUP5 AND SWAP4 POP DUP1 DUP7 AND DUP5 OR SWAP3 POP POP POP SWAP4 SWAP3 POP POP POP JUMP JUMPDEST PUSH1 0x0 DUP2 SWAP1 POP SWAP2 SWAP1 POP JUMP JUMPDEST PUSH1 0x0 DUP2 SWAP1 POP SWAP2 SWAP1 POP JUMP JUMPDEST PUSH1 0x0 PUSH3 0x4FC PUSH3 0x4F6 PUSH3 0x4F0 DUP5 PUSH3 0x4C7 JUMP JUMPDEST PUSH3 0x4D1 JUMP JUMPDEST PUSH3 0x4C7 JUMP JUMPDEST SWAP1 POP SWAP2 SWAP1 POP JUMP JUMPDEST PUSH1 0x0 DUP2 SWAP1 POP SWAP2 SWAP1 POP JUMP JUMPDEST PUSH3 0x518 DUP4 PUSH3 0x4DB JUMP JUMPDEST PUSH3 0x530 PUSH3 0x527 DUP3 PUSH3 0x503 JUMP JUMPDEST DUP5 DUP5 SLOAD PUSH3 0x471 JUMP JUMPDEST DUP3 SSTORE POP POP POP POP JUMP JUMPDEST PUSH1 0x0 SWAP1 JUMP JUMPDEST PUSH3 0x547 PUSH3 0x538 JUMP JUMPDEST PUSH3 0x554 DUP2 DUP5 DUP5 PUSH3 0x50D JUMP JUMPDEST POP POP POP JUMP JUMPDEST JUMPDEST DUP2 DUP2 LT ISZERO PUSH3 0x57C JUMPI PUSH3 0x570 PUSH1 0x0 DUP3 PUSH3 0x53D JUMP JUMPDEST PUSH1 0x1 DUP2 ADD SWAP1 POP PUSH3 0x55A JUMP JUMPDEST POP POP JUMP JUMPDEST PUSH1 0x1F DUP3 GT ISZERO PUSH3 0x5CB JUMPI PUSH3 0x595 DUP2 PUSH3 0x43F JUMP JUMPDEST PUSH3 0x5A0 DUP5 PUSH3 0x454 JUMP JUMPDEST DUP2 ADD PUSH1 0x20 DUP6 LT ISZERO PUSH3 0x5B0 JUMPI DUP2 SWAP1 POP JUMPDEST PUSH3 0x5C8 PUSH3 0x5BF DUP6 PUSH3 0x454 JUMP JUMPDEST DUP4 ADD DUP3 PUSH3 0x559 JUMP JUMPDEST POP POP JUMPDEST POP POP POP JUMP JUMPDEST PUSH1 0x0 DUP3 DUP3 SHR SWAP1 POP SWAP3 SWAP2 POP POP JUMP JUMPDEST PUSH1 0x0 PUSH3 0x5F0 PUSH1 0x0 NOT DUP5 PUSH1 0x8 MUL PUSH3 0x5D0 JUMP JUMPDEST NOT DUP1 DUP4 AND SWAP2 POP POP SWAP3 SWAP2 POP POP JUMP JUMPDEST PUSH1 0x0 PUSH3 0x60B DUP4 DUP4 PUSH3 0x5DD JUMP JUMPDEST SWAP2 POP DUP3 PUSH1 0x2 MUL DUP3 OR SWAP1 POP SWAP3 SWAP2 POP POP JUMP JUMPDEST PUSH3 0x626 DUP3 PUSH3 0x3D0 JUMP JUMPDEST PUSH8 0xFFFFFFFFFFFFFFFF DUP2 GT ISZERO PUSH3 0x642 JUMPI PUSH3 0x641 PUSH3 0x183 JUMP JUMPDEST JUMPDEST PUSH3 0x64E DUP3 SLOAD PUSH3 0x40A JUMP JUMPDEST PUSH3 0x65B DUP3 DUP3 DUP6 PUSH3 0x580 JUMP JUMPDEST PUSH1 0x0 PUSH1 0x20 SWAP1 POP PUSH1 0x1F DUP4 GT PUSH1 0x1 DUP2 EQ PUSH3 0x693 JUMPI PUSH1 0x0 DUP5 ISZERO PUSH3 0x67E JUMPI DUP3 DUP8 ADD MLOAD SWAP1 POP JUMPDEST PUSH3 0x68A DUP6 DUP3 PUSH3 0x5FD JUMP JUMPDEST DUP7 SSTORE POP PUSH3 0x6FA JUMP JUMPDEST PUSH1 0x1F NOT DUP5 AND PUSH3 0x6A3 DUP7 PUSH3 0x43F JUMP JUMPDEST PUSH1 0x0 JUMPDEST DUP3 DUP2 LT ISZERO PUSH3 0x6CD JUMPI DUP5 DUP10 ADD MLOAD DUP3 SSTORE PUSH1 0x1 DUP3 ADD SWAP2 POP PUSH1 0x20 DUP6 ADD SWAP5 POP PUSH1 0x20 DUP2 ADD SWAP1 POP PUSH3 0x6A6 JUMP JUMPDEST DUP7 DUP4 LT ISZERO PUSH3 0x6ED JUMPI DUP5 DUP10 ADD MLOAD PUSH3 0x6E9 PUSH1 0x1F DUP10 AND DUP3 PUSH3 0x5DD JUMP JUMPDEST DUP4 SSTORE POP JUMPDEST PUSH1 0x1 PUSH1 0x2 DUP9 MUL ADD DUP9 SSTORE POP POP POP JUMPDEST POP POP POP POP POP POP JUMP JUMPDEST PUSH2 0x2CCC DUP1 PUSH3 0x712 PUSH1 0x0 CODECOPY PUSH1 0x0 RETURN INVALID PUSH1 0x80 PUSH1 0x40 MSTORE CALLVALUE DUP1 ISZERO PUSH2 0x10 JUMPI PUSH1 0x0 DUP1 REVERT JUMPDEST POP PUSH1 0x4 CALLDATASIZE LT PUSH2 0xA8 JUMPI PUSH1 0x0 CALLDATALOAD PUSH1 0xE0 SHR DUP1 PUSH4 0x4B641181 GT PUSH2 0x71 JUMPI DUP1 PUSH4 0x4B641181 EQ PUSH2 0x175 JUMPI DUP1 PUSH4 0x4E1273F4 EQ PUSH2 0x191 JUMPI DUP1 PUSH4 0xA22CB465 EQ PUSH2 0x1C1 JUMPI DUP1 PUSH4 0xBD85B039 EQ PUSH2 0x1DD JUMPI DUP1 PUSH4 0xE985E9C5 EQ PUSH2 0x20D JUMPI DUP1 PUSH4 0xF242432A EQ PUSH2 0x23D JUMPI PUSH2 0xA8 JUMP JUMPDEST DUP1 PUSH3 0xFDD58E EQ PUSH2 0xAD JUMPI DUP1 PUSH4 0x1FFC9A7 EQ PUSH2 0xDD JUMPI DUP1 PUSH4 0xE89341C EQ PUSH2 0x10D JUMPI DUP1 PUSH4 0x2DB32BAF EQ PUSH2 0x13D JUMPI DUP1 PUSH4 0x2EB2C2D6 EQ PUSH2 0x159 JUMPI JUMPDEST PUSH1 0x0 DUP1 REVERT JUMPDEST PUSH2 0xC7 PUSH1 0x4 DUP1 CALLDATASIZE SUB DUP2 ADD SWAP1 PUSH2 0xC2 SWAP2 SWAP1 PUSH2 0x190F JUMP JUMPDEST PUSH2 0x259 JUMP JUMPDEST PUSH1 0x40 MLOAD PUSH2 0xD4 SWAP2 SWAP1 PUSH2 0x195E JUMP JUMPDEST PUSH1 0x40 MLOAD DUP1 SWAP2 SUB SWAP1 RETURN JUMPDEST PUSH2 0xF7 PUSH1 0x4 DUP1 CALLDATASIZE SUB DUP2 ADD SWAP1 PUSH2 0xF2 SWAP2 SWAP1 PUSH2 0x19D1 JUMP JUMPDEST PUSH2 0x321 JUMP JUMPDEST PUSH1 0x40 MLOAD PUSH2 0x104 SWAP2 SWAP1 PUSH2 0x1A19 JUMP JUMPDEST PUSH1 0x40 MLOAD DUP1 SWAP2 SUB SWAP1 RETURN JUMPDEST PUSH2 0x127 PUSH1 0x4 DUP1 CALLDATASIZE SUB DUP2 ADD SWAP1 PUSH2 0x122 SWAP2 SWAP1 PUSH2 0x1A34 JUMP JUMPDEST PUSH2 0x403 JUMP JUMPDEST PUSH1 0x40 MLOAD PUSH2 0x134 SWAP2 SWAP1 PUSH2 0x1AF1 JUMP JUMPDEST PUSH1 0x40 MLOAD DUP1 SWAP2 SUB SWAP1 RETURN JUMPDEST PUSH2 0x157 PUSH1 0x4 DUP1 CALLDATASIZE SUB DUP2 ADD SWAP1 PUSH2 0x152 SWAP2 SWAP1 PUSH2 0x1D10 JUMP JUMPDEST PUSH2 0x497 JUMP JUMPDEST STOP JUMPDEST PUSH2 0x173 PUSH1 0x4 DUP1 CALLDATASIZE SUB DUP2 ADD SWAP1 PUSH2 0x16E SWAP2 SWAP1 PUSH2 0x1DCB JUMP JUMPDEST PUSH2 0x4E6 JUMP JUMPDEST STOP JUMPDEST PUSH2 0x18F PUSH1 0x4 DUP1 CALLDATASIZE SUB DUP2 ADD SWAP1 PUSH2 0x18A SWAP2 SWAP1 PUSH2 0x1E9A JUMP JUMPDEST PUSH2 0x587 JUMP JUMPDEST STOP JUMPDEST PUSH2 0x1AB PUSH1 0x4 DUP1 CALLDATASIZE SUB DUP2 ADD SWAP1 PUSH2 0x1A6 SWAP2 SWAP1 PUSH2 0x1FE0 JUMP JUMPDEST PUSH2 0x5D6 JUMP JUMPDEST PUSH1 0x40 MLOAD PUSH2 0x1B8 SWAP2 SWAP1 PUSH2 0x2116 JUMP JUMPDEST PUSH1 0x40 MLOAD DUP1 SWAP2 SUB SWAP1 RETURN JUMPDEST PUSH2 0x1DB PUSH1 0x4 DUP1 CALLDATASIZE SUB DUP2 ADD SWAP1 PUSH2 0x1D6 SWAP2 SWAP1 PUSH2 0x2164 JUMP JUMPDEST PUSH2 0x6EF JUMP JUMPDEST STOP JUMPDEST PUSH2 0x1F7 PUSH1 0x4 DUP1 CALLDATASIZE SUB DUP2 ADD SWAP1 PUSH2 0x1F2 SWAP2 SWAP1 PUSH2 0x1A34 JUMP JUMPDEST PUSH2 0x705 JUMP JUMPDEST PUSH1 0x40 MLOAD PUSH2 0x204 SWAP2 SWAP1 PUSH2 0x195E JUMP JUMPDEST PUSH1 0x40 MLOAD DUP1 SWAP2 SUB SWAP1 RETURN JUMPDEST PUSH2 0x227 PUSH1 0x4 DUP1 CALLDATASIZE SUB DUP2 ADD SWAP1 PUSH2 0x222 SWAP2 SWAP1 PUSH2 0x21A4 JUMP JUMPDEST PUSH2 0x70F JUMP JUMPDEST PUSH1 0x40 MLOAD PUSH2 0x234 SWAP2 SWAP1 PUSH2 0x1A19 JUMP JUMPDEST PUSH1 0x40 MLOAD DUP1 SWAP2 SUB SWAP1 RETURN JUMPDEST PUSH2 0x257 PUSH1 0x4 DUP1 CALLDATASIZE SUB DUP2 ADD SWAP1 PUSH2 0x252 SWAP2 SWAP1 PUSH2 0x21E4 JUMP JUMPDEST PUSH2 0x7A3 JUMP JUMPDEST STOP JUMPDEST PUSH1 0x0 DUP1 PUSH20 0xFFFFFFFFFFFFFFFFFFFFFFFFFFFFFFFFFFFFFFFF AND DUP4 PUSH20 0xFFFFFFFFFFFFFFFFFFFFFFFFFFFFFFFFFFFFFFFF AND SUB PUSH2 0x2C9 JUMPI PUSH1 0x40 MLOAD PUSH32 0x8C379A000000000000000000000000000000000000000000000000000000000 DUP2 MSTORE PUSH1 0x4 ADD PUSH2 0x2C0 SWAP1 PUSH2 0x22ED JUMP JUMPDEST PUSH1 0x40 MLOAD DUP1 SWAP2 SUB SWAP1 REVERT JUMPDEST PUSH1 0x0 DUP1 DUP4 DUP2 MSTORE PUSH1 0x20 ADD SWAP1 DUP2 MSTORE PUSH1 0x20 ADD PUSH1 0x0 KECCAK256 PUSH1 0x0 DUP5 PUSH20 0xFFFFFFFFFFFFFFFFFFFFFFFFFFFFFFFFFFFFFFFF AND PUSH20 0xFFFFFFFFFFFFFFFFFFFFFFFFFFFFFFFFFFFFFFFF AND DUP2 MSTORE PUSH1 0x20 ADD SWAP1 DUP2 MSTORE PUSH1 0x20 ADD PUSH1 0x0 KECCAK256 SLOAD SWAP1 POP SWAP3 SWAP2 POP POP JUMP JUMPDEST PUSH1 0x0 PUSH32 0xD9B67A2600000000000000000000000000000000000000000000000000000000 PUSH28 0xFFFFFFFFFFFFFFFFFFFFFFFFFFFFFFFFFFFFFFFFFFFFFFFFFFFFFFFF NOT AND DUP3 PUSH28 0xFFFFFFFFFFFFFFFFFFFFFFFFFFFFFFFFFFFFFFFFFFFFFFFFFFFFFFFF NOT AND EQ DUP1 PUSH2 0x3EC JUMPI POP PUSH32 0xE89341C00000000000000000000000000000000000000000000000000000000 PUSH28 0xFFFFFFFFFFFFFFFFFFFFFFFFFFFFFFFFFFFFFFFFFFFFFFFFFFFFFFFF NOT AND DUP3 PUSH28 0xFFFFFFFFFFFFFFFFFFFFFFFFFFFFFFFFFFFFFFFFFFFFFFFFFFFFFFFF NOT AND EQ JUMPDEST DUP1 PUSH2 0x3FC JUMPI POP PUSH2 0x3FB DUP3 PUSH2 0x844 JUMP JUMPDEST JUMPDEST SWAP1 POP SWAP2 SWAP1 POP JUMP JUMPDEST PUSH1 0x60 PUSH1 0x2 DUP1 SLOAD PUSH2 0x412 SWAP1 PUSH2 0x233C JUMP JUMPDEST DUP1 PUSH1 0x1F ADD PUSH1 0x20 DUP1 SWAP2 DIV MUL PUSH1 0x20 ADD PUSH1 0x40 MLOAD SWAP1 DUP2 ADD PUSH1 0x40 MSTORE DUP1 SWAP3 SWAP2 SWAP1 DUP2 DUP2 MSTORE PUSH1 0x20 ADD DUP3 DUP1 SLOAD PUSH2 0x43E SWAP1 PUSH2 0x233C JUMP JUMPDEST DUP1 ISZERO PUSH2 0x48B JUMPI DUP1 PUSH1 0x1F LT PUSH2 0x460 JUMPI PUSH2 0x100 DUP1 DUP4 SLOAD DIV MUL DUP4 MSTORE SWAP2 PUSH1 0x20 ADD SWAP2 PUSH2 0x48B JUMP JUMPDEST DUP3 ADD SWAP2 SWAP1 PUSH1 0x0 MSTORE PUSH1 0x20 PUSH1 0x0 KECCAK256 SWAP1 JUMPDEST DUP2 SLOAD DUP2 MSTORE SWAP1 PUSH1 0x1 ADD SWAP1 PUSH1 0x20 ADD DUP1 DUP4 GT PUSH2 0x46E JUMPI DUP3 SWAP1 SUB PUSH1 0x1F AND DUP3 ADD SWAP2 JUMPDEST POP POP POP POP POP SWAP1 POP SWAP2 SWAP1 POP JUMP JUMPDEST PUSH2 0x4A3 DUP5 DUP5 DUP5 DUP5 PUSH2 0x8AE JUMP JUMPDEST PUSH32 0x3D449D78C90065C4D01899B1DBA64765ADB8D2517686B1A85012600135924F80 DUP5 DUP5 DUP5 DUP5 PUSH1 0x40 MLOAD PUSH2 0x4D8 SWAP5 SWAP4 SWAP3 SWAP2 SWAP1 PUSH2 0x23D1 JUMP JUMPDEST PUSH1 0x40 MLOAD DUP1 SWAP2 SUB SWAP1 LOG1 POP POP POP POP JUMP JUMPDEST PUSH2 0x4EE PUSH2 0xADA JUMP JUMPDEST PUSH20 0xFFFFFFFFFFFFFFFFFFFFFFFFFFFFFFFFFFFFFFFF AND DUP6 PUSH20 0xFFFFFFFFFFFFFFFFFFFFFFFFFFFFFFFFFFFFFFFF AND EQ DUP1 PUSH2 0x534 JUMPI POP PUSH2 0x533 DUP6 PUSH2 0x52E PUSH2 0xADA JUMP JUMPDEST PUSH2 0x70F JUMP JUMPDEST JUMPDEST PUSH2 0x573 JUMPI PUSH1 0x40 MLOAD PUSH32 0x8C379A000000000000000000000000000000000000000000000000000000000 DUP2 MSTORE PUSH1 0x4 ADD PUSH2 0x56A SWAP1 PUSH2 0x249D JUMP JUMPDEST PUSH1 0x40 MLOAD DUP1 SWAP2 SUB SWAP1 REVERT JUMPDEST PUSH2 0x580 DUP6 DUP6 DUP6 DUP6 DUP6 PUSH2 0xAE2 JUMP JUMPDEST POP POP POP POP POP JUMP JUMPDEST PUSH2 0x593 DUP5 DUP5 DUP5 DUP5 PUSH2 0xE03 JUMP JUMPDEST PUSH32 0xC9D929308CE6FE87635AF5BE60EC7A966D4C39625686BDE0F3B8D6D6FFCEA79F DUP5 DUP5 DUP5 DUP5 PUSH1 0x40 MLOAD PUSH2 0x5C8 SWAP5 SWAP4 SWAP3 SWAP2 SWAP1 PUSH2 0x24BD JUMP JUMPDEST PUSH1 0x40 MLOAD DUP1 SWAP2 SUB SWAP1 LOG1 POP POP POP POP JUMP JUMPDEST PUSH1 0x60 DUP2 MLOAD DUP4 MLOAD EQ PUSH2 0x61C JUMPI PUSH1 0x40 MLOAD PUSH32 0x8C379A000000000000000000000000000000000000000000000000000000000 DUP2 MSTORE PUSH1 0x4 ADD PUSH2 0x613 SWAP1 PUSH2 0x257B JUMP JUMPDEST PUSH1 0x40 MLOAD DUP1 SWAP2 SUB SWAP1 REVERT JUMPDEST PUSH1 0x0 DUP4 MLOAD PUSH8 0xFFFFFFFFFFFFFFFF DUP2 GT ISZERO PUSH2 0x639 JUMPI PUSH2 0x638 PUSH2 0x1B18 JUMP JUMPDEST JUMPDEST PUSH1 0x40 MLOAD SWAP1 DUP1 DUP3 MSTORE DUP1 PUSH1 0x20 MUL PUSH1 0x20 ADD DUP3 ADD PUSH1 0x40 MSTORE DUP1 ISZERO PUSH2 0x667 JUMPI DUP2 PUSH1 0x20 ADD PUSH1 0x20 DUP3 MUL DUP1 CALLDATASIZE DUP4 CALLDATACOPY DUP1 DUP3 ADD SWAP2 POP POP SWAP1 POP JUMPDEST POP SWAP1 POP PUSH1 0x0 JUMPDEST DUP5 MLOAD DUP2 LT ISZERO PUSH2 0x6E4 JUMPI PUSH2 0x6B4 DUP6 DUP3 DUP2 MLOAD DUP2 LT PUSH2 0x68C JUMPI PUSH2 0x68B PUSH2 0x259B JUMP JUMPDEST JUMPDEST PUSH1 0x20 MUL PUSH1 0x20 ADD ADD MLOAD DUP6 DUP4 DUP2 MLOAD DUP2 LT PUSH2 0x6A7 JUMPI PUSH2 0x6A6 PUSH2 0x259B JUMP JUMPDEST JUMPDEST PUSH1 0x20 MUL PUSH1 0x20 ADD ADD MLOAD PUSH2 0x259 JUMP JUMPDEST DUP3 DUP3 DUP2 MLOAD DUP2 LT PUSH2 0x6C7 JUMPI PUSH2 0x6C6 PUSH2 0x259B JUMP JUMPDEST JUMPDEST PUSH1 0x20 MUL PUSH1 0x20 ADD ADD DUP2 DUP2 MSTORE POP POP DUP1 PUSH2 0x6DD SWAP1 PUSH2 0x25F9 JUMP JUMPDEST SWAP1 POP PUSH2 0x66D JUMP JUMPDEST POP DUP1 SWAP2 POP POP SWAP3 SWAP2 POP POP JUMP JUMPDEST PUSH2 0x701 PUSH2 0x6FA PUSH2 0xADA JUMP JUMPDEST DUP4 DUP4 PUSH2 0x1005 JUMP JUMPDEST POP POP JUMP JUMPDEST PUSH1 0x0 DUP2 SWAP1 POP SWAP2 SWAP1 POP JUMP JUMPDEST PUSH1 0x0 PUSH1 0x1 PUSH1 0x0 DUP5 PUSH20 0xFFFFFFFFFFFFFFFFFFFFFFFFFFFFFFFFFFFFFFFF AND PUSH20 0xFFFFFFFFFFFFFFFFFFFFFFFFFFFFFFFFFFFFFFFF AND DUP2 MSTORE PUSH1 0x20 ADD SWAP1 DUP2 MSTORE PUSH1 0x20 ADD PUSH1 0x0 KECCAK256 PUSH1 0x0 DUP4 PUSH20 0xFFFFFFFFFFFFFFFFFFFFFFFFFFFFFFFFFFFFFFFF AND PUSH20 0xFFFFFFFFFFFFFFFFFFFFFFFFFFFFFFFFFFFFFFFF AND DUP2 MSTORE PUSH1 0x20 ADD SWAP1 DUP2 MSTORE PUSH1 0x20 ADD PUSH1 0x0 KECCAK256 PUSH1 0x0 SWAP1 SLOAD SWAP1 PUSH2 0x100 EXP SWAP1 DIV PUSH1 0xFF AND SWAP1 POP SWAP3 SWAP2 POP POP JUMP JUMPDEST PUSH2 0x7AB PUSH2 0xADA JUMP JUMPDEST PUSH20 0xFFFFFFFFFFFFFFFFFFFFFFFFFFFFFFFFFFFFFFFF AND DUP6 PUSH20 0xFFFFFFFFFFFFFFFFFFFFFFFFFFFFFFFFFFFFFFFF AND EQ DUP1 PUSH2 0x7F1 JUMPI POP PUSH2 0x7F0 DUP6 PUSH2 0x7EB PUSH2 0xADA JUMP JUMPDEST PUSH2 0x70F JUMP JUMPDEST JUMPDEST PUSH2 0x830 JUMPI PUSH1 0x40 MLOAD PUSH32 0x8C379A000000000000000000000000000000000000000000000000000000000 DUP2 MSTORE PUSH1 0x4 ADD PUSH2 0x827 SWAP1 PUSH2 0x249D JUMP JUMPDEST PUSH1 0x40 MLOAD DUP1 SWAP2 SUB SWAP1 REVERT JUMPDEST PUSH2 0x83D DUP6 DUP6 DUP6 DUP6 DUP6 PUSH2 0x1171 JUMP JUMPDEST POP POP POP POP POP JUMP JUMPDEST PUSH1 0x0 PUSH32 0x1FFC9A700000000000000000000000000000000000000000000000000000000 PUSH28 0xFFFFFFFFFFFFFFFFFFFFFFFFFFFFFFFFFFFFFFFFFFFFFFFFFFFFFFFF NOT AND DUP3 PUSH28 0xFFFFFFFFFFFFFFFFFFFFFFFFFFFFFFFFFFFFFFFFFFFFFFFFFFFFFFFF NOT AND EQ SWAP1 POP SWAP2 SWAP1 POP JUMP JUMPDEST PUSH1 0x0 PUSH20 0xFFFFFFFFFFFFFFFFFFFFFFFFFFFFFFFFFFFFFFFF AND DUP5 PUSH20 0xFFFFFFFFFFFFFFFFFFFFFFFFFFFFFFFFFFFFFFFF AND SUB PUSH2 0x91D JUMPI PUSH1 0x40 MLOAD PUSH32 0x8C379A000000000000000000000000000000000000000000000000000000000 DUP2 MSTORE PUSH1 0x4 ADD PUSH2 0x914 SWAP1 PUSH2 0x26B3 JUMP JUMPDEST PUSH1 0x40 MLOAD DUP1 SWAP2 SUB SWAP1 REVERT JUMPDEST DUP2 MLOAD DUP4 MLOAD EQ PUSH2 0x961 JUMPI PUSH1 0x40 MLOAD PUSH32 0x8C379A000000000000000000000000000000000000000000000000000000000 DUP2 MSTORE PUSH1 0x4 ADD PUSH2 0x958 SWAP1 PUSH2 0x2745 JUMP JUMPDEST PUSH1 0x40 MLOAD DUP1 SWAP2 SUB SWAP1 REVERT JUMPDEST PUSH1 0x0 PUSH2 0x96B PUSH2 0xADA JUMP JUMPDEST SWAP1 POP PUSH2 0x97C DUP2 PUSH1 0x0 DUP8 DUP8 DUP8 DUP8 PUSH2 0x140C JUMP JUMPDEST PUSH1 0x0 JUMPDEST DUP5 MLOAD DUP2 LT ISZERO PUSH2 0xA35 JUMPI DUP4 DUP2 DUP2 MLOAD DUP2 LT PUSH2 0x99B JUMPI PUSH2 0x99A PUSH2 0x259B JUMP JUMPDEST JUMPDEST PUSH1 0x20 MUL PUSH1 0x20 ADD ADD MLOAD PUSH1 0x0 DUP1 DUP8 DUP5 DUP2 MLOAD DUP2 LT PUSH2 0x9B9 JUMPI PUSH2 0x9B8 PUSH2 0x259B JUMP JUMPDEST JUMPDEST PUSH1 0x20 MUL PUSH1 0x20 ADD ADD MLOAD DUP2 MSTORE PUSH1 0x20 ADD SWAP1 DUP2 MSTORE PUSH1 0x20 ADD PUSH1 0x0 KECCAK256 PUSH1 0x0 DUP9 PUSH20 0xFFFFFFFFFFFFFFFFFFFFFFFFFFFFFFFFFFFFFFFF AND PUSH20 0xFFFFFFFFFFFFFFFFFFFFFFFFFFFFFFFFFFFFFFFF AND DUP2 MSTORE PUSH1 0x20 ADD SWAP1 DUP2 MSTORE PUSH1 0x20 ADD PUSH1 0x0 KECCAK256 PUSH1 0x0 DUP3 DUP3 SLOAD PUSH2 0xA1B SWAP2 SWAP1 PUSH2 0x2765 JUMP JUMPDEST SWAP3 POP POP DUP2 SWAP1 SSTORE POP DUP1 DUP1 PUSH2 0xA2D SWAP1 PUSH2 0x25F9 JUMP JUMPDEST SWAP2 POP POP PUSH2 0x97F JUMP JUMPDEST POP DUP5 PUSH20 0xFFFFFFFFFFFFFFFFFFFFFFFFFFFFFFFFFFFFFFFF AND PUSH1 0x0 PUSH20 0xFFFFFFFFFFFFFFFFFFFFFFFFFFFFFFFFFFFFFFFF AND DUP3 PUSH20 0xFFFFFFFFFFFFFFFFFFFFFFFFFFFFFFFFFFFFFFFF AND PUSH32 0x4A39DC06D4C0DBC64B70AF90FD698A233A518AA5D07E595D983B8C0526C8F7FB DUP8 DUP8 PUSH1 0x40 MLOAD PUSH2 0xAAD SWAP3 SWAP2 SWAP1 PUSH2 0x2799 JUMP JUMPDEST PUSH1 0x40 MLOAD DUP1 SWAP2 SUB SWAP1 LOG4 PUSH2 0xAC4 DUP2 PUSH1 0x0 DUP8 DUP8 DUP8 DUP8 PUSH2 0x1414 JUMP JUMPDEST PUSH2 0xAD3 DUP2 PUSH1 0x0 DUP8 DUP8 DUP8 DUP8 PUSH2 0x141C JUMP JUMPDEST POP POP POP POP POP JUMP JUMPDEST PUSH1 0x0 CALLER SWAP1 POP SWAP1 JUMP JUMPDEST DUP2 MLOAD DUP4 MLOAD EQ PUSH2 0xB26 JUMPI PUSH1 0x40 MLOAD PUSH32 0x8C379A000000000000000000000000000000000000000000000000000000000 DUP2 MSTORE PUSH1 0x4 ADD PUSH2 0xB1D SWAP1 PUSH2 0x2745 JUMP JUMPDEST PUSH1 0x40 MLOAD DUP1 SWAP2 SUB SWAP1 REVERT JUMPDEST PUSH1 0x0 PUSH20 0xFFFFFFFFFFFFFFFFFFFFFFFFFFFFFFFFFFFFFFFF AND DUP5 PUSH20 0xFFFFFFFFFFFFFFFFFFFFFFFFFFFFFFFFFFFFFFFF AND SUB PUSH2 0xB95 JUMPI PUSH1 0x40 MLOAD PUSH32 0x8C379A000000000000000000000000000000000000000000000000000000000 DUP2 MSTORE PUSH1 0x4 ADD PUSH2 0xB8C SWAP1 PUSH2 0x2842 JUMP JUMPDEST PUSH1 0x40 MLOAD DUP1 SWAP2 SUB SWAP1 REVERT JUMPDEST PUSH1 0x0 PUSH2 0xB9F PUSH2 0xADA JUMP JUMPDEST SWAP1 POP PUSH2 0xBAF DUP2 DUP8 DUP8 DUP8 DUP8 DUP8 PUSH2 0x140C JUMP JUMPDEST PUSH1 0x0 JUMPDEST DUP5 MLOAD DUP2 LT ISZERO PUSH2 0xD60 JUMPI PUSH1 0x0 DUP6 DUP3 DUP2 MLOAD DUP2 LT PUSH2 0xBD0 JUMPI PUSH2 0xBCF PUSH2 0x259B JUMP JUMPDEST JUMPDEST PUSH1 0x20 MUL PUSH1 0x20 ADD ADD MLOAD SWAP1 POP PUSH1 0x0 DUP6 DUP4 DUP2 MLOAD DUP2 LT PUSH2 0xBEF JUMPI PUSH2 0xBEE PUSH2 0x259B JUMP JUMPDEST JUMPDEST PUSH1 0x20 MUL PUSH1 0x20 ADD ADD MLOAD SWAP1 POP PUSH1 0x0 DUP1 PUSH1 0x0 DUP5 DUP2 MSTORE PUSH1 0x20 ADD SWAP1 DUP2 MSTORE PUSH1 0x20 ADD PUSH1 0x0 KECCAK256 PUSH1 0x0 DUP12 PUSH20 0xFFFFFFFFFFFFFFFFFFFFFFFFFFFFFFFFFFFFFFFF AND PUSH20 0xFFFFFFFFFFFFFFFFFFFFFFFFFFFFFFFFFFFFFFFF AND DUP2 MSTORE PUSH1 0x20 ADD SWAP1 DUP2 MSTORE PUSH1 0x20 ADD PUSH1 0x0 KECCAK256 SLOAD SWAP1 POP DUP2 DUP2 LT ISZERO PUSH2 0xC90 JUMPI PUSH1 0x40 MLOAD PUSH32 0x8C379A000000000000000000000000000000000000000000000000000000000 DUP2 MSTORE PUSH1 0x4 ADD PUSH2 0xC87 SWAP1 PUSH2 0x28D4 JUMP JUMPDEST PUSH1 0x40 MLOAD DUP1 SWAP2 SUB SWAP1 REVERT JUMPDEST DUP2 DUP2 SUB PUSH1 0x0 DUP1 DUP6 DUP2 MSTORE PUSH1 0x20 ADD SWAP1 DUP2 MSTORE PUSH1 0x20 ADD PUSH1 0x0 KECCAK256 PUSH1 0x0 DUP13 PUSH20 0xFFFFFFFFFFFFFFFFFFFFFFFFFFFFFFFFFFFFFFFF AND PUSH20 0xFFFFFFFFFFFFFFFFFFFFFFFFFFFFFFFFFFFFFFFF AND DUP2 MSTORE PUSH1 0x20 ADD SWAP1 DUP2 MSTORE PUSH1 0x20 ADD PUSH1 0x0 KECCAK256 DUP2 SWAP1 SSTORE POP DUP2 PUSH1 0x0 DUP1 DUP6 DUP2 MSTORE PUSH1 0x20 ADD SWAP1 DUP2 MSTORE PUSH1 0x20 ADD PUSH1 0x0 KECCAK256 PUSH1 0x0 DUP12 PUSH20 0xFFFFFFFFFFFFFFFFFFFFFFFFFFFFFFFFFFFFFFFF AND PUSH20 0xFFFFFFFFFFFFFFFFFFFFFFFFFFFFFFFFFFFFFFFF AND DUP2 MSTORE PUSH1 0x20 ADD SWAP1 DUP2 MSTORE PUSH1 0x20 ADD PUSH1 0x0 KECCAK256 PUSH1 0x0 DUP3 DUP3 SLOAD PUSH2 0xD45 SWAP2 SWAP1 PUSH2 0x2765 JUMP JUMPDEST SWAP3 POP POP DUP2 SWAP1 SSTORE POP POP POP POP DUP1 PUSH2 0xD59 SWAP1 PUSH2 0x25F9 JUMP JUMPDEST SWAP1 POP PUSH2 0xBB2 JUMP JUMPDEST POP DUP5 PUSH20 0xFFFFFFFFFFFFFFFFFFFFFFFFFFFFFFFFFFFFFFFF AND DUP7 PUSH20 0xFFFFFFFFFFFFFFFFFFFFFFFFFFFFFFFFFFFFFFFF AND DUP3 PUSH20 0xFFFFFFFFFFFFFFFFFFFFFFFFFFFFFFFFFFFFFFFF AND PUSH32 0x4A39DC06D4C0DBC64B70AF90FD698A233A518AA5D07E595D983B8C0526C8F7FB DUP8 DUP8 PUSH1 0x40 MLOAD PUSH2 0xDD7 SWAP3 SWAP2 SWAP1 PUSH2 0x2799 JUMP JUMPDEST PUSH1 0x40 MLOAD DUP1 SWAP2 SUB SWAP1 LOG4 PUSH2 0xDED DUP2 DUP8 DUP8 DUP8 DUP8 DUP8 PUSH2 0x1414 JUMP JUMPDEST PUSH2 0xDFB DUP2 DUP8 DUP8 DUP8 DUP8 DUP8 PUSH2 0x141C JUMP JUMPDEST POP POP POP POP POP POP JUMP JUMPDEST PUSH1 0x0 PUSH20 0xFFFFFFFFFFFFFFFFFFFFFFFFFFFFFFFFFFFFFFFF AND DUP5 PUSH20 0xFFFFFFFFFFFFFFFFFFFFFFFFFFFFFFFFFFFFFFFF AND SUB PUSH2 0xE72 JUMPI PUSH1 0x40 MLOAD PUSH32 0x8C379A000000000000000000000000000000000000000000000000000000000 DUP2 MSTORE PUSH1 0x4 ADD PUSH2 0xE69 SWAP1 PUSH2 0x26B3 JUMP JUMPDEST PUSH1 0x40 MLOAD DUP1 SWAP2 SUB SWAP1 REVERT JUMPDEST PUSH1 0x0 PUSH2 0xE7C PUSH2 0xADA JUMP JUMPDEST SWAP1 POP PUSH1 0x0 PUSH2 0xE89 DUP6 PUSH2 0x15F3 JUMP JUMPDEST SWAP1 POP PUSH1 0x0 PUSH2 0xE96 DUP6 PUSH2 0x15F3 JUMP JUMPDEST SWAP1 POP CALLER PUSH1 0x3 PUSH1 0x0 DUP9 DUP2 MSTORE PUSH1 0x20 ADD SWAP1 DUP2 MSTORE PUSH1 0x20 ADD PUSH1 0x0 KECCAK256 PUSH1 0x0 PUSH2 0x100 EXP DUP2 SLOAD DUP2 PUSH20 0xFFFFFFFFFFFFFFFFFFFFFFFFFFFFFFFFFFFFFFFF MUL NOT AND SWAP1 DUP4 PUSH20 0xFFFFFFFFFFFFFFFFFFFFFFFFFFFFFFFFFFFFFFFF AND MUL OR SWAP1 SSTORE POP PUSH2 0xEF9 DUP4 PUSH1 0x0 DUP10 DUP6 DUP6 DUP10 PUSH2 0x140C JUMP JUMPDEST DUP5 PUSH1 0x0 DUP1 DUP9 DUP2 MSTORE PUSH1 0x20 ADD SWAP1 DUP2 MSTORE PUSH1 0x20 ADD PUSH1 0x0 KECCAK256 PUSH1 0x0 DUP10 PUSH20 0xFFFFFFFFFFFFFFFFFFFFFFFFFFFFFFFFFFFFFFFF AND PUSH20 0xFFFFFFFFFFFFFFFFFFFFFFFFFFFFFFFFFFFFFFFF AND DUP2 MSTORE PUSH1 0x20 ADD SWAP1 DUP2 MSTORE PUSH1 0x20 ADD PUSH1 0x0 KECCAK256 PUSH1 0x0 DUP3 DUP3 SLOAD PUSH2 0xF58 SWAP2 SWAP1 PUSH2 0x2765 JUMP JUMPDEST SWAP3 POP POP DUP2 SWAP1 SSTORE POP DUP7 PUSH20 0xFFFFFFFFFFFFFFFFFFFFFFFFFFFFFFFFFFFFFFFF AND PUSH1 0x0 PUSH20 0xFFFFFFFFFFFFFFFFFFFFFFFFFFFFFFFFFFFFFFFF AND DUP5 PUSH20 0xFFFFFFFFFFFFFFFFFFFFFFFFFFFFFFFFFFFFFFFF AND PUSH32 0xC3D58168C5AE7397731D063D5BBF3D657854427343F4C083240F7AACAA2D0F62 DUP10 DUP10 PUSH1 0x40 MLOAD PUSH2 0xFD6 SWAP3 SWAP2 SWAP1 PUSH2 0x28F4 JUMP JUMPDEST PUSH1 0x40 MLOAD DUP1 SWAP2 SUB SWAP1 LOG4 PUSH2 0xFED DUP4 PUSH1 0x0 DUP10 DUP6 DUP6 DUP10 PUSH2 0x1414 JUMP JUMPDEST PUSH2 0xFFC DUP4 PUSH1 0x0 DUP10 DUP10 DUP10 DUP10 PUSH2 0x166D JUMP JUMPDEST POP POP POP POP POP POP POP JUMP JUMPDEST DUP2 PUSH20 0xFFFFFFFFFFFFFFFFFFFFFFFFFFFFFFFFFFFFFFFF AND DUP4 PUSH20 0xFFFFFFFFFFFFFFFFFFFFFFFFFFFFFFFFFFFFFFFF AND SUB PUSH2 0x1073 JUMPI PUSH1 0x40 MLOAD PUSH32 0x8C379A000000000000000000000000000000000000000000000000000000000 DUP2 MSTORE PUSH1 0x4 ADD PUSH2 0x106A SWAP1 PUSH2 0x298F JUMP JUMPDEST PUSH1 0x40 MLOAD DUP1 SWAP2 SUB SWAP1 REVERT JUMPDEST DUP1 PUSH1 0x1 PUSH1 0x0 DUP6 PUSH20 0xFFFFFFFFFFFFFFFFFFFFFFFFFFFFFFFFFFFFFFFF AND PUSH20 0xFFFFFFFFFFFFFFFFFFFFFFFFFFFFFFFFFFFFFFFF AND DUP2 MSTORE PUSH1 0x20 ADD SWAP1 DUP2 MSTORE PUSH1 0x20 ADD PUSH1 0x0 KECCAK256 PUSH1 0x0 DUP5 PUSH20 0xFFFFFFFFFFFFFFFFFFFFFFFFFFFFFFFFFFFFFFFF AND PUSH20 0xFFFFFFFFFFFFFFFFFFFFFFFFFFFFFFFFFFFFFFFF AND DUP2 MSTORE PUSH1 0x20 ADD SWAP1 DUP2 MSTORE PUSH1 0x20 ADD PUSH1 0x0 KECCAK256 PUSH1 0x0 PUSH2 0x100 EXP DUP2 SLOAD DUP2 PUSH1 0xFF MUL NOT AND SWAP1 DUP4 ISZERO ISZERO MUL OR SWAP1 SSTORE POP DUP2 PUSH20 0xFFFFFFFFFFFFFFFFFFFFFFFFFFFFFFFFFFFFFFFF AND DUP4 PUSH20 0xFFFFFFFFFFFFFFFFFFFFFFFFFFFFFFFFFFFFFFFF AND PUSH32 0x17307EAB39AB6107E8899845AD3D59BD9653F200F220920489CA2B5937696C31 DUP4 PUSH1 0x40 MLOAD PUSH2 0x1164 SWAP2 SWAP1 PUSH2 0x1A19 JUMP JUMPDEST PUSH1 0x40 MLOAD DUP1 SWAP2 SUB SWAP1 LOG3 POP POP POP JUMP JUMPDEST PUSH1 0x0 PUSH20 0xFFFFFFFFFFFFFFFFFFFFFFFFFFFFFFFFFFFFFFFF AND DUP5 PUSH20 0xFFFFFFFFFFFFFFFFFFFFFFFFFFFFFFFFFFFFFFFF AND SUB PUSH2 0x11E0 JUMPI PUSH1 0x40 MLOAD PUSH32 0x8C379A000000000000000000000000000000000000000000000000000000000 DUP2 MSTORE PUSH1 0x4 ADD PUSH2 0x11D7 SWAP1 PUSH2 0x2842 JUMP JUMPDEST PUSH1 0x40 MLOAD DUP1 SWAP2 SUB SWAP1 REVERT JUMPDEST PUSH1 0x0 PUSH2 0x11EA PUSH2 0xADA JUMP JUMPDEST SWAP1 POP PUSH1 0x0 PUSH2 0x11F7 DUP6 PUSH2 0x15F3 JUMP JUMPDEST SWAP1 POP PUSH1 0x0 PUSH2 0x1204 DUP6 PUSH2 0x15F3 JUMP JUMPDEST SWAP1 POP PUSH2 0x1214 DUP4 DUP10 DUP10 DUP6 DUP6 DUP10 PUSH2 0x140C JUMP JUMPDEST PUSH1 0x0 DUP1 PUSH1 0x0 DUP9 DUP2 MSTORE PUSH1 0x20 ADD SWAP1 DUP2 MSTORE PUSH1 0x20 ADD PUSH1 0x0 KECCAK256 PUSH1 0x0 DUP11 PUSH20 0xFFFFFFFFFFFFFFFFFFFFFFFFFFFFFFFFFFFFFFFF AND PUSH20 0xFFFFFFFFFFFFFFFFFFFFFFFFFFFFFFFFFFFFFFFF AND DUP2 MSTORE PUSH1 0x20 ADD SWAP1 DUP2 MSTORE PUSH1 0x20 ADD PUSH1 0x0 KECCAK256 SLOAD SWAP1 POP DUP6 DUP2 LT ISZERO PUSH2 0x12AB JUMPI PUSH1 0x40 MLOAD PUSH32 0x8C379A000000000000000000000000000000000000000000000000000000000 DUP2 MSTORE PUSH1 0x4 ADD PUSH2 0x12A2 SWAP1 PUSH2 0x28D4 JUMP JUMPDEST PUSH1 0x40 MLOAD DUP1 SWAP2 SUB SWAP1 REVERT JUMPDEST DUP6 DUP2 SUB PUSH1 0x0 DUP1 DUP10 DUP2 MSTORE PUSH1 0x20 ADD SWAP1 DUP2 MSTORE PUSH1 0x20 ADD PUSH1 0x0 KECCAK256 PUSH1 0x0 DUP12 PUSH20 0xFFFFFFFFFFFFFFFFFFFFFFFFFFFFFFFFFFFFFFFF AND PUSH20 0xFFFFFFFFFFFFFFFFFFFFFFFFFFFFFFFFFFFFFFFF AND DUP2 MSTORE PUSH1 0x20 ADD SWAP1 DUP2 MSTORE PUSH1 0x20 ADD PUSH1 0x0 KECCAK256 DUP2 SWAP1 SSTORE POP DUP6 PUSH1 0x0 DUP1 DUP10 DUP2 MSTORE PUSH1 0x20 ADD SWAP1 DUP2 MSTORE PUSH1 0x20 ADD PUSH1 0x0 KECCAK256 PUSH1 0x0 DUP11 PUSH20 0xFFFFFFFFFFFFFFFFFFFFFFFFFFFFFFFFFFFFFFFF AND PUSH20 0xFFFFFFFFFFFFFFFFFFFFFFFFFFFFFFFFFFFFFFFF AND DUP2 MSTORE PUSH1 0x20 ADD SWAP1 DUP2 MSTORE PUSH1 0x20 ADD PUSH1 0x0 KECCAK256 PUSH1 0x0 DUP3 DUP3 SLOAD PUSH2 0x1360 SWAP2 SWAP1 PUSH2 0x2765 JUMP JUMPDEST SWAP3 POP POP DUP2 SWAP1 SSTORE POP DUP8 PUSH20 0xFFFFFFFFFFFFFFFFFFFFFFFFFFFFFFFFFFFFFFFF AND DUP10 PUSH20 0xFFFFFFFFFFFFFFFFFFFFFFFFFFFFFFFFFFFFFFFF AND DUP6 PUSH20 0xFFFFFFFFFFFFFFFFFFFFFFFFFFFFFFFFFFFFFFFF AND PUSH32 0xC3D58168C5AE7397731D063D5BBF3D657854427343F4C083240F7AACAA2D0F62 DUP11 DUP11 PUSH1 0x40 MLOAD PUSH2 0x13DD SWAP3 SWAP2 SWAP1 PUSH2 0x28F4 JUMP JUMPDEST PUSH1 0x40 MLOAD DUP1 SWAP2 SUB SWAP1 LOG4 PUSH2 0x13F3 DUP5 DUP11 DUP11 DUP7 DUP7 DUP11 PUSH2 0x1414 JUMP JUMPDEST PUSH2 0x1401 DUP5 DUP11 DUP11 DUP11 DUP11 DUP11 PUSH2 0x166D JUMP JUMPDEST POP POP POP POP POP POP POP POP POP JUMP JUMPDEST POP POP POP POP POP POP JUMP JUMPDEST POP POP POP POP POP POP JUMP JUMPDEST PUSH2 0x143B DUP5 PUSH20 0xFFFFFFFFFFFFFFFFFFFFFFFFFFFFFFFFFFFFFFFF AND PUSH2 0x1844 JUMP JUMPDEST ISZERO PUSH2 0x15EB JUMPI DUP4 PUSH20 0xFFFFFFFFFFFFFFFFFFFFFFFFFFFFFFFFFFFFFFFF AND PUSH4 0xBC197C81 DUP8 DUP8 DUP7 DUP7 DUP7 PUSH1 0x40 MLOAD DUP7 PUSH4 0xFFFFFFFF AND PUSH1 0xE0 SHL DUP2 MSTORE PUSH1 0x4 ADD PUSH2 0x1481 SWAP6 SWAP5 SWAP4 SWAP3 SWAP2 SWAP1 PUSH2 0x29AF JUMP JUMPDEST PUSH1 0x20 PUSH1 0x40 MLOAD DUP1 DUP4 SUB DUP2 PUSH1 0x0 DUP8 GAS CALL SWAP3 POP POP POP DUP1 ISZERO PUSH2 0x14BD JUMPI POP PUSH1 0x40 MLOAD RETURNDATASIZE PUSH1 0x1F NOT PUSH1 0x1F DUP3 ADD AND DUP3 ADD DUP1 PUSH1 0x40 MSTORE POP DUP2 ADD SWAP1 PUSH2 0x14BA SWAP2 SWAP1 PUSH2 0x2A2C JUMP JUMPDEST PUSH1 0x1 JUMPDEST PUSH2 0x1562 JUMPI PUSH2 0x14C9 PUSH2 0x2A66 JUMP JUMPDEST DUP1 PUSH4 0x8C379A0 SUB PUSH2 0x1525 JUMPI POP PUSH2 0x14DD PUSH2 0x2A88 JUMP JUMPDEST DUP1 PUSH2 0x14E8 JUMPI POP PUSH2 0x1527 JUMP JUMPDEST DUP1 PUSH1 0x40 MLOAD PUSH32 0x8C379A000000000000000000000000000000000000000000000000000000000 DUP2 MSTORE PUSH1 0x4 ADD PUSH2 0x151C SWAP2 SWAP1 PUSH2 0x1AF1 JUMP JUMPDEST PUSH1 0x40 MLOAD DUP1 SWAP2 SUB SWAP1 REVERT JUMPDEST POP JUMPDEST PUSH1 0x40 MLOAD PUSH32 0x8C379A000000000000000000000000000000000000000000000000000000000 DUP2 MSTORE PUSH1 0x4 ADD PUSH2 0x1559 SWAP1 PUSH2 0x2B8A JUMP JUMPDEST PUSH1 0x40 MLOAD DUP1 SWAP2 SUB SWAP1 REVERT JUMPDEST PUSH4 0xBC197C81 PUSH1 0xE0 SHL PUSH28 0xFFFFFFFFFFFFFFFFFFFFFFFFFFFFFFFFFFFFFFFFFFFFFFFFFFFFFFFF NOT AND DUP2 PUSH28 0xFFFFFFFFFFFFFFFFFFFFFFFFFFFFFFFFFFFFFFFFFFFFFFFFFFFFFFFF NOT AND EQ PUSH2 0x15E9 JUMPI PUSH1 0x40 MLOAD PUSH32 0x8C379A000000000000000000000000000000000000000000000000000000000 DUP2 MSTORE PUSH1 0x4 ADD PUSH2 0x15E0 SWAP1 PUSH2 0x2C1C JUMP JUMPDEST PUSH1 0x40 MLOAD DUP1 SWAP2 SUB SWAP1 REVERT JUMPDEST POP JUMPDEST POP POP POP POP POP POP JUMP JUMPDEST PUSH1 0x60 PUSH1 0x0 PUSH1 0x1 PUSH8 0xFFFFFFFFFFFFFFFF DUP2 GT ISZERO PUSH2 0x1612 JUMPI PUSH2 0x1611 PUSH2 0x1B18 JUMP JUMPDEST JUMPDEST PUSH1 0x40 MLOAD SWAP1 DUP1 DUP3 MSTORE DUP1 PUSH1 0x20 MUL PUSH1 0x20 ADD DUP3 ADD PUSH1 0x40 MSTORE DUP1 ISZERO PUSH2 0x1640 JUMPI DUP2 PUSH1 0x20 ADD PUSH1 0x20 DUP3 MUL DUP1 CALLDATASIZE DUP4 CALLDATACOPY DUP1 DUP3 ADD SWAP2 POP POP SWAP1 POP JUMPDEST POP SWAP1 POP DUP3 DUP2 PUSH1 0x0 DUP2 MLOAD DUP2 LT PUSH2 0x1658 JUMPI PUSH2 0x1657 PUSH2 0x259B JUMP JUMPDEST JUMPDEST PUSH1 0x20 MUL PUSH1 0x20 ADD ADD DUP2 DUP2 MSTORE POP POP DUP1 SWAP2 POP POP SWAP2 SWAP1 POP JUMP JUMPDEST PUSH2 0x168C DUP5 PUSH20 0xFFFFFFFFFFFFFFFFFFFFFFFFFFFFFFFFFFFFFFFF AND PUSH2 0x1844 JUMP JUMPDEST ISZERO PUSH2 0x183C JUMPI DUP4 PUSH20 0xFFFFFFFFFFFFFFFFFFFFFFFFFFFFFFFFFFFFFFFF AND PUSH4 0xF23A6E61 DUP8 DUP8 DUP7 DUP7 DUP7 PUSH1 0x40 MLOAD DUP7 PUSH4 0xFFFFFFFF AND PUSH1 0xE0 SHL DUP2 MSTORE PUSH1 0x4 ADD PUSH2 0x16D2 SWAP6 SWAP5 SWAP4 SWAP3 SWAP2 SWAP1 PUSH2 0x2C3C JUMP JUMPDEST PUSH1 0x20 PUSH1 0x40 MLOAD DUP1 DUP4 SUB DUP2 PUSH1 0x0 DUP8 GAS CALL SWAP3 POP POP POP DUP1 ISZERO PUSH2 0x170E JUMPI POP PUSH1 0x40 MLOAD RETURNDATASIZE PUSH1 0x1F NOT PUSH1 0x1F DUP3 ADD AND DUP3 ADD DUP1 PUSH1 0x40 MSTORE POP DUP2 ADD SWAP1 PUSH2 0x170B SWAP2 SWAP1 PUSH2 0x2A2C JUMP JUMPDEST PUSH1 0x1 JUMPDEST PUSH2 0x17B3 JUMPI PUSH2 0x171A PUSH2 0x2A66 JUMP JUMPDEST DUP1 PUSH4 0x8C379A0 SUB PUSH2 0x1776 JUMPI POP PUSH2 0x172E PUSH2 0x2A88 JUMP JUMPDEST DUP1 PUSH2 0x1739 JUMPI POP PUSH2 0x1778 JUMP JUMPDEST DUP1 PUSH1 0x40 MLOAD PUSH32 0x8C379A000000000000000000000000000000000000000000000000000000000 DUP2 MSTORE PUSH1 0x4 ADD PUSH2 0x176D SWAP2 SWAP1 PUSH2 0x1AF1 JUMP JUMPDEST PUSH1 0x40 MLOAD DUP1 SWAP2 SUB SWAP1 REVERT JUMPDEST POP JUMPDEST PUSH1 0x40 MLOAD PUSH32 0x8C379A000000000000000000000000000000000000000000000000000000000 DUP2 MSTORE PUSH1 0x4 ADD PUSH2 0x17AA SWAP1 PUSH2 0x2B8A JUMP JUMPDEST PUSH1 0x40 MLOAD DUP1 SWAP2 SUB SWAP1 REVERT JUMPDEST PUSH4 0xF23A6E61 PUSH1 0xE0 SHL PUSH28 0xFFFFFFFFFFFFFFFFFFFFFFFFFFFFFFFFFFFFFFFFFFFFFFFFFFFFFFFF NOT AND DUP2 PUSH28 0xFFFFFFFFFFFFFFFFFFFFFFFFFFFFFFFFFFFFFFFFFFFFFFFFFFFFFFFF NOT AND EQ PUSH2 0x183A JUMPI PUSH1 0x40 MLOAD PUSH32 0x8C379A000000000000000000000000000000000000000000000000000000000 DUP2 MSTORE PUSH1 0x4 ADD PUSH2 0x1831 SWAP1 PUSH2 0x2C1C JUMP JUMPDEST PUSH1 0x40 MLOAD DUP1 SWAP2 SUB SWAP1 REVERT JUMPDEST POP JUMPDEST POP POP POP POP POP POP JUMP JUMPDEST PUSH1 0x0 DUP1 DUP3 PUSH20 0xFFFFFFFFFFFFFFFFFFFFFFFFFFFFFFFFFFFFFFFF AND EXTCODESIZE GT SWAP1 POP SWAP2 SWAP1 POP JUMP JUMPDEST PUSH1 0x0 PUSH1 0x40 MLOAD SWAP1 POP SWAP1 JUMP JUMPDEST PUSH1 0x0 DUP1 REVERT JUMPDEST PUSH1 0x0 DUP1 REVERT JUMPDEST PUSH1 0x0 PUSH20 0xFFFFFFFFFFFFFFFFFFFFFFFFFFFFFFFFFFFFFFFF DUP3 AND SWAP1 POP SWAP2 SWAP1 POP JUMP JUMPDEST PUSH1 0x0 PUSH2 0x18A6 DUP3 PUSH2 0x187B JUMP JUMPDEST SWAP1 POP SWAP2 SWAP1 POP JUMP JUMPDEST PUSH2 0x18B6 DUP2 PUSH2 0x189B JUMP JUMPDEST DUP2 EQ PUSH2 0x18C1 JUMPI PUSH1 0x0 DUP1 REVERT JUMPDEST POP JUMP JUMPDEST PUSH1 0x0 DUP2 CALLDATALOAD SWAP1 POP PUSH2 0x18D3 DUP2 PUSH2 0x18AD JUMP JUMPDEST SWAP3 SWAP2 POP POP JUMP JUMPDEST PUSH1 0x0 DUP2 SWAP1 POP SWAP2 SWAP1 POP JUMP JUMPDEST PUSH2 0x18EC DUP2 PUSH2 0x18D9 JUMP JUMPDEST DUP2 EQ PUSH2 0x18F7 JUMPI PUSH1 0x0 DUP1 REVERT JUMPDEST POP JUMP JUMPDEST PUSH1 0x0 DUP2 CALLDATALOAD SWAP1 POP PUSH2 0x1909 DUP2 PUSH2 0x18E3 JUMP JUMPDEST SWAP3 SWAP2 POP POP JUMP JUMPDEST PUSH1 0x0 DUP1 PUSH1 0x40 DUP4 DUP6 SUB SLT ISZERO PUSH2 0x1926 JUMPI PUSH2 0x1925 PUSH2 0x1871 JUMP JUMPDEST JUMPDEST PUSH1 0x0 PUSH2 0x1934 DUP6 DUP3 DUP7 ADD PUSH2 0x18C4 JUMP JUMPDEST SWAP3 POP POP PUSH1 0x20 PUSH2 0x1945 DUP6 DUP3 DUP7 ADD PUSH2 0x18FA JUMP JUMPDEST SWAP2 POP POP SWAP3 POP SWAP3 SWAP1 POP JUMP JUMPDEST PUSH2 0x1958 DUP2 PUSH2 0x18D9 JUMP JUMPDEST DUP3 MSTORE POP POP JUMP JUMPDEST PUSH1 0x0 PUSH1 0x20 DUP3 ADD SWAP1 POP PUSH2 0x1973 PUSH1 0x0 DUP4 ADD DUP5 PUSH2 0x194F JUMP JUMPDEST SWAP3 SWAP2 POP POP JUMP JUMPDEST PUSH1 0x0 PUSH32 0xFFFFFFFF00000000000000000000000000000000000000000000000000000000 DUP3 AND SWAP1 POP SWAP2 SWAP1 POP JUMP JUMPDEST PUSH2 0x19AE DUP2 PUSH2 0x1979 JUMP JUMPDEST DUP2 EQ PUSH2 0x19B9 JUMPI PUSH1 0x0 DUP1 REVERT JUMPDEST POP JUMP JUMPDEST PUSH1 0x0 DUP2 CALLDATALOAD SWAP1 POP PUSH2 0x19CB DUP2 PUSH2 0x19A5 JUMP JUMPDEST SWAP3 SWAP2 POP POP JUMP JUMPDEST PUSH1 0x0 PUSH1 0x20 DUP3 DUP5 SUB SLT ISZERO PUSH2 0x19E7 JUMPI PUSH2 0x19E6 PUSH2 0x1871 JUMP JUMPDEST JUMPDEST PUSH1 0x0 PUSH2 0x19F5 DUP5 DUP3 DUP6 ADD PUSH2 0x19BC JUMP JUMPDEST SWAP2 POP POP SWAP3 SWAP2 POP POP JUMP JUMPDEST PUSH1 0x0 DUP2 ISZERO ISZERO SWAP1 POP SWAP2 SWAP1 POP JUMP JUMPDEST PUSH2 0x1A13 DUP2 PUSH2 0x19FE JUMP JUMPDEST DUP3 MSTORE POP POP JUMP JUMPDEST PUSH1 0x0 PUSH1 0x20 DUP3 ADD SWAP1 POP PUSH2 0x1A2E PUSH1 0x0 DUP4 ADD DUP5 PUSH2 0x1A0A JUMP JUMPDEST SWAP3 SWAP2 POP POP JUMP JUMPDEST PUSH1 0x0 PUSH1 0x20 DUP3 DUP5 SUB SLT ISZERO PUSH2 0x1A4A JUMPI PUSH2 0x1A49 PUSH2 0x1871 JUMP JUMPDEST JUMPDEST PUSH1 0x0 PUSH2 0x1A58 DUP5 DUP3 DUP6 ADD PUSH2 0x18FA JUMP JUMPDEST SWAP2 POP POP SWAP3 SWAP2 POP POP JUMP JUMPDEST PUSH1 0x0 DUP2 MLOAD SWAP1 POP SWAP2 SWAP1 POP JUMP JUMPDEST PUSH1 0x0 DUP3 DUP3 MSTORE PUSH1 0x20 DUP3 ADD SWAP1 POP SWAP3 SWAP2 POP POP JUMP JUMPDEST PUSH1 0x0 JUMPDEST DUP4 DUP2 LT ISZERO PUSH2 0x1A9B JUMPI DUP1 DUP3 ADD MLOAD DUP2 DUP5 ADD MSTORE PUSH1 0x20 DUP2 ADD SWAP1 POP PUSH2 0x1A80 JUMP JUMPDEST PUSH1 0x0 DUP5 DUP5 ADD MSTORE POP POP POP POP JUMP JUMPDEST PUSH1 0x0 PUSH1 0x1F NOT PUSH1 0x1F DUP4 ADD AND SWAP1 POP SWAP2 SWAP1 POP JUMP JUMPDEST PUSH1 0x0 PUSH2 0x1AC3 DUP3 PUSH2 0x1A61 JUMP JUMPDEST PUSH2 0x1ACD DUP2 DUP6 PUSH2 0x1A6C JUMP JUMPDEST SWAP4 POP PUSH2 0x1ADD DUP2 DUP6 PUSH1 0x20 DUP7 ADD PUSH2 0x1A7D JUMP JUMPDEST PUSH2 0x1AE6 DUP2 PUSH2 0x1AA7 JUMP JUMPDEST DUP5 ADD SWAP2 POP POP SWAP3 SWAP2 POP POP JUMP JUMPDEST PUSH1 0x0 PUSH1 0x20 DUP3 ADD SWAP1 POP DUP2 DUP2 SUB PUSH1 0x0 DUP4 ADD MSTORE PUSH2 0x1B0B DUP2 DUP5 PUSH2 0x1AB8 JUMP JUMPDEST SWAP1 POP SWAP3 SWAP2 POP POP JUMP JUMPDEST PUSH1 0x0 DUP1 REVERT JUMPDEST PUSH32 0x4E487B7100000000000000000000000000000000000000000000000000000000 PUSH1 0x0 MSTORE PUSH1 0x41 PUSH1 0x4 MSTORE PUSH1 0x24 PUSH1 0x0 REVERT JUMPDEST PUSH2 0x1B50 DUP3 PUSH2 0x1AA7 JUMP JUMPDEST DUP2 ADD DUP2 DUP2 LT PUSH8 0xFFFFFFFFFFFFFFFF DUP3 GT OR ISZERO PUSH2 0x1B6F JUMPI PUSH2 0x1B6E PUSH2 0x1B18 JUMP JUMPDEST JUMPDEST DUP1 PUSH1 0x40 MSTORE POP POP POP JUMP JUMPDEST PUSH1 0x0 PUSH2 0x1B82 PUSH2 0x1867 JUMP JUMPDEST SWAP1 POP PUSH2 0x1B8E DUP3 DUP3 PUSH2 0x1B47 JUMP JUMPDEST SWAP2 SWAP1 POP JUMP JUMPDEST PUSH1 0x0 PUSH8 0xFFFFFFFFFFFFFFFF DUP3 GT ISZERO PUSH2 0x1BAE JUMPI PUSH2 0x1BAD PUSH2 0x1B18 JUMP JUMPDEST JUMPDEST PUSH1 0x20 DUP3 MUL SWAP1 POP PUSH1 0x20 DUP2 ADD SWAP1 POP SWAP2 SWAP1 POP JUMP JUMPDEST PUSH1 0x0 DUP1 REVERT JUMPDEST PUSH1 0x0 PUSH2 0x1BD7 PUSH2 0x1BD2 DUP5 PUSH2 0x1B93 JUMP JUMPDEST PUSH2 0x1B78 JUMP JUMPDEST SWAP1 POP DUP1 DUP4 DUP3 MSTORE PUSH1 0x20 DUP3 ADD SWAP1 POP PUSH1 0x20 DUP5 MUL DUP4 ADD DUP6 DUP2 GT ISZERO PUSH2 0x1BFA JUMPI PUSH2 0x1BF9 PUSH2 0x1BBF JUMP JUMPDEST JUMPDEST DUP4 JUMPDEST DUP2 DUP2 LT ISZERO PUSH2 0x1C23 JUMPI DUP1 PUSH2 0x1C0F DUP9 DUP3 PUSH2 0x18FA JUMP JUMPDEST DUP5 MSTORE PUSH1 0x20 DUP5 ADD SWAP4 POP POP PUSH1 0x20 DUP2 ADD SWAP1 POP PUSH2 0x1BFC JUMP JUMPDEST POP POP POP SWAP4 SWAP3 POP POP POP JUMP JUMPDEST PUSH1 0x0 DUP3 PUSH1 0x1F DUP4 ADD SLT PUSH2 0x1C42 JUMPI PUSH2 0x1C41 PUSH2 0x1B13 JUMP JUMPDEST JUMPDEST DUP2 CALLDATALOAD PUSH2 0x1C52 DUP5 DUP3 PUSH1 0x20 DUP7 ADD PUSH2 0x1BC4 JUMP JUMPDEST SWAP2 POP POP SWAP3 SWAP2 POP POP JUMP JUMPDEST PUSH1 0x0 DUP1 REVERT JUMPDEST PUSH1 0x0 PUSH8 0xFFFFFFFFFFFFFFFF DUP3 GT ISZERO PUSH2 0x1C7B JUMPI PUSH2 0x1C7A PUSH2 0x1B18 JUMP JUMPDEST JUMPDEST PUSH2 0x1C84 DUP3 PUSH2 0x1AA7 JUMP JUMPDEST SWAP1 POP PUSH1 0x20 DUP2 ADD SWAP1 POP SWAP2 SWAP1 POP JUMP JUMPDEST DUP3 DUP2 DUP4 CALLDATACOPY PUSH1 0x0 DUP4 DUP4 ADD MSTORE POP POP POP JUMP JUMPDEST PUSH1 0x0 PUSH2 0x1CB3 PUSH2 0x1CAE DUP5 PUSH2 0x1C60 JUMP JUMPDEST PUSH2 0x1B78 JUMP JUMPDEST SWAP1 POP DUP3 DUP2 MSTORE PUSH1 0x20 DUP2 ADD DUP5 DUP5 DUP5 ADD GT ISZERO PUSH2 0x1CCF JUMPI PUSH2 0x1CCE PUSH2 0x1C5B JUMP JUMPDEST JUMPDEST PUSH2 0x1CDA DUP5 DUP3 DUP6 PUSH2 0x1C91 JUMP JUMPDEST POP SWAP4 SWAP3 POP POP POP JUMP JUMPDEST PUSH1 0x0 DUP3 PUSH1 0x1F DUP4 ADD SLT PUSH2 0x1CF7 JUMPI PUSH2 0x1CF6 PUSH2 0x1B13 JUMP JUMPDEST JUMPDEST DUP2 CALLDATALOAD PUSH2 0x1D07 DUP5 DUP3 PUSH1 0x20 DUP7 ADD PUSH2 0x1CA0 JUMP JUMPDEST SWAP2 POP POP SWAP3 SWAP2 POP POP JUMP JUMPDEST PUSH1 0x0 DUP1 PUSH1 0x0 DUP1 PUSH1 0x80 DUP6 DUP8 SUB SLT ISZERO PUSH2 0x1D2A JUMPI PUSH2 0x1D29 PUSH2 0x1871 JUMP JUMPDEST JUMPDEST PUSH1 0x0 PUSH2 0x1D38 DUP8 DUP3 DUP9 ADD PUSH2 0x18C4 JUMP JUMPDEST SWAP5 POP POP PUSH1 0x20 DUP6 ADD CALLDATALOAD PUSH8 0xFFFFFFFFFFFFFFFF DUP2 GT ISZERO PUSH2 0x1D59 JUMPI PUSH2 0x1D58 PUSH2 0x1876 JUMP JUMPDEST JUMPDEST PUSH2 0x1D65 DUP8 DUP3 DUP9 ADD PUSH2 0x1C2D JUMP JUMPDEST SWAP4 POP POP PUSH1 0x40 DUP6 ADD CALLDATALOAD PUSH8 0xFFFFFFFFFFFFFFFF DUP2 GT ISZERO PUSH2 0x1D86 JUMPI PUSH2 0x1D85 PUSH2 0x1876 JUMP JUMPDEST JUMPDEST PUSH2 0x1D92 DUP8 DUP3 DUP9 ADD PUSH2 0x1C2D JUMP JUMPDEST SWAP3 POP POP PUSH1 0x60 DUP6 ADD CALLDATALOAD PUSH8 0xFFFFFFFFFFFFFFFF DUP2 GT ISZERO PUSH2 0x1DB3 JUMPI PUSH2 0x1DB2 PUSH2 0x1876 JUMP JUMPDEST JUMPDEST PUSH2 0x1DBF DUP8 DUP3 DUP9 ADD PUSH2 0x1CE2 JUMP JUMPDEST SWAP2 POP POP SWAP3 SWAP6 SWAP2 SWAP5 POP SWAP3 POP JUMP JUMPDEST PUSH1 0x0 DUP1 PUSH1 0x0 DUP1 PUSH1 0x0 PUSH1 0xA0 DUP7 DUP9 SUB SLT ISZERO PUSH2 0x1DE7 JUMPI PUSH2 0x1DE6 PUSH2 0x1871 JUMP JUMPDEST JUMPDEST PUSH1 0x0 PUSH2 0x1DF5 DUP9 DUP3 DUP10 ADD PUSH2 0x18C4 JUMP JUMPDEST SWAP6 POP POP PUSH1 0x20 PUSH2 0x1E06 DUP9 DUP3 DUP10 ADD PUSH2 0x18C4 JUMP JUMPDEST SWAP5 POP POP PUSH1 0x40 DUP7 ADD CALLDATALOAD PUSH8 0xFFFFFFFFFFFFFFFF DUP2 GT ISZERO PUSH2 0x1E27 JUMPI PUSH2 0x1E26 PUSH2 0x1876 JUMP JUMPDEST JUMPDEST PUSH2 0x1E33 DUP9 DUP3 DUP10 ADD PUSH2 0x1C2D JUMP JUMPDEST SWAP4 POP POP PUSH1 0x60 DUP7 ADD CALLDATALOAD PUSH8 0xFFFFFFFFFFFFFFFF DUP2 GT ISZERO PUSH2 0x1E54 JUMPI PUSH2 0x1E53 PUSH2 0x1876 JUMP JUMPDEST JUMPDEST PUSH2 0x1E60 DUP9 DUP3 DUP10 ADD PUSH2 0x1C2D JUMP JUMPDEST SWAP3 POP POP PUSH1 0x80 DUP7 ADD CALLDATALOAD PUSH8 0xFFFFFFFFFFFFFFFF DUP2 GT ISZERO PUSH2 0x1E81 JUMPI PUSH2 0x1E80 PUSH2 0x1876 JUMP JUMPDEST JUMPDEST PUSH2 0x1E8D DUP9 DUP3 DUP10 ADD PUSH2 0x1CE2 JUMP JUMPDEST SWAP2 POP POP SWAP3 SWAP6 POP SWAP3 SWAP6 SWAP1 SWAP4 POP JUMP JUMPDEST PUSH1 0x0 DUP1 PUSH1 0x0 DUP1 PUSH1 0x80 DUP6 DUP8 SUB SLT ISZERO PUSH2 0x1EB4 JUMPI PUSH2 0x1EB3 PUSH2 0x1871 JUMP JUMPDEST JUMPDEST PUSH1 0x0 PUSH2 0x1EC2 DUP8 DUP3 DUP9 ADD PUSH2 0x18C4 JUMP JUMPDEST SWAP5 POP POP PUSH1 0x20 PUSH2 0x1ED3 DUP8 DUP3 DUP9 ADD PUSH2 0x18FA JUMP JUMPDEST SWAP4 POP POP PUSH1 0x40 PUSH2 0x1EE4 DUP8 DUP3 DUP9 ADD PUSH2 0x18FA JUMP JUMPDEST SWAP3 POP POP PUSH1 0x60 DUP6 ADD CALLDATALOAD PUSH8 0xFFFFFFFFFFFFFFFF DUP2 GT ISZERO PUSH2 0x1F05 JUMPI PUSH2 0x1F04 PUSH2 0x1876 JUMP JUMPDEST JUMPDEST PUSH2 0x1F11 DUP8 DUP3 DUP9 ADD PUSH2 0x1CE2 JUMP JUMPDEST SWAP2 POP POP SWAP3 SWAP6 SWAP2 SWAP5 POP SWAP3 POP JUMP JUMPDEST PUSH1 0x0 PUSH8 0xFFFFFFFFFFFFFFFF DUP3 GT ISZERO PUSH2 0x1F38 JUMPI PUSH2 0x1F37 PUSH2 0x1B18 JUMP JUMPDEST JUMPDEST PUSH1 0x20 DUP3 MUL SWAP1 POP PUSH1 0x20 DUP2 ADD SWAP1 POP SWAP2 SWAP1 POP JUMP JUMPDEST PUSH1 0x0 PUSH2 0x1F5C PUSH2 0x1F57 DUP5 PUSH2 0x1F1D JUMP JUMPDEST PUSH2 0x1B78 JUMP JUMPDEST SWAP1 POP DUP1 DUP4 DUP3 MSTORE PUSH1 0x20 DUP3 ADD SWAP1 POP PUSH1 0x20 DUP5 MUL DUP4 ADD DUP6 DUP2 GT ISZERO PUSH2 0x1F7F JUMPI PUSH2 0x1F7E PUSH2 0x1BBF JUMP JUMPDEST JUMPDEST DUP4 JUMPDEST DUP2 DUP2 LT ISZERO PUSH2 0x1FA8 JUMPI DUP1 PUSH2 0x1F94 DUP9 DUP3 PUSH2 0x18C4 JUMP JUMPDEST DUP5 MSTORE PUSH1 0x20 DUP5 ADD SWAP4 POP POP PUSH1 0x20 DUP2 ADD SWAP1 POP PUSH2 0x1F81 JUMP JUMPDEST POP POP POP SWAP4 SWAP3 POP POP POP JUMP JUMPDEST PUSH1 0x0 DUP3 PUSH1 0x1F DUP4 ADD SLT PUSH2 0x1FC7 JUMPI PUSH2 0x1FC6 PUSH2 0x1B13 JUMP JUMPDEST JUMPDEST DUP2 CALLDATALOAD PUSH2 0x1FD7 DUP5 DUP3 PUSH1 0x20 DUP7 ADD PUSH2 0x1F49 JUMP JUMPDEST SWAP2 POP POP SWAP3 SWAP2 POP POP JUMP JUMPDEST PUSH1 0x0 DUP1 PUSH1 0x40 DUP4 DUP6 SUB SLT ISZERO PUSH2 0x1FF7 JUMPI PUSH2 0x1FF6 PUSH2 0x1871 JUMP JUMPDEST JUMPDEST PUSH1 0x0 DUP4 ADD CALLDATALOAD PUSH8 0xFFFFFFFFFFFFFFFF DUP2 GT ISZERO PUSH2 0x2015 JUMPI PUSH2 0x2014 PUSH2 0x1876 JUMP JUMPDEST JUMPDEST PUSH2 0x2021 DUP6 DUP3 DUP7 ADD PUSH2 0x1FB2 JUMP JUMPDEST SWAP3 POP POP PUSH1 0x20 DUP4 ADD CALLDATALOAD PUSH8 0xFFFFFFFFFFFFFFFF DUP2 GT ISZERO PUSH2 0x2042 JUMPI PUSH2 0x2041 PUSH2 0x1876 JUMP JUMPDEST JUMPDEST PUSH2 0x204E DUP6 DUP3 DUP7 ADD PUSH2 0x1C2D JUMP JUMPDEST SWAP2 POP POP SWAP3 POP SWAP3 SWAP1 POP JUMP JUMPDEST PUSH1 0x0 DUP2 MLOAD SWAP1 POP SWAP2 SWAP1 POP JUMP JUMPDEST PUSH1 0x0 DUP3 DUP3 MSTORE PUSH1 0x20 DUP3 ADD SWAP1 POP SWAP3 SWAP2 POP POP JUMP JUMPDEST PUSH1 0x0 DUP2 SWAP1 POP PUSH1 0x20 DUP3 ADD SWAP1 POP SWAP2 SWAP1 POP JUMP JUMPDEST PUSH2 0x208D DUP2 PUSH2 0x18D9 JUMP JUMPDEST DUP3 MSTORE POP POP JUMP JUMPDEST PUSH1 0x0 PUSH2 0x209F DUP4 DUP4 PUSH2 0x2084 JUMP JUMPDEST PUSH1 0x20 DUP4 ADD SWAP1 POP SWAP3 SWAP2 POP POP JUMP JUMPDEST PUSH1 0x0 PUSH1 0x20 DUP3 ADD SWAP1 POP SWAP2 SWAP1 POP JUMP JUMPDEST PUSH1 0x0 PUSH2 0x20C3 DUP3 PUSH2 0x2058 JUMP JUMPDEST PUSH2 0x20CD DUP2 DUP6 PUSH2 0x2063 JUMP JUMPDEST SWAP4 POP PUSH2 0x20D8 DUP4 PUSH2 0x2074 JUMP JUMPDEST DUP1 PUSH1 0x0 JUMPDEST DUP4 DUP2 LT ISZERO PUSH2 0x2109 JUMPI DUP2 MLOAD PUSH2 0x20F0 DUP9 DUP3 PUSH2 0x2093 JUMP JUMPDEST SWAP8 POP PUSH2 0x20FB DUP4 PUSH2 0x20AB JUMP JUMPDEST SWAP3 POP POP PUSH1 0x1 DUP2 ADD SWAP1 POP PUSH2 0x20DC JUMP JUMPDEST POP DUP6 SWAP4 POP POP POP POP SWAP3 SWAP2 POP POP JUMP JUMPDEST PUSH1 0x0 PUSH1 0x20 DUP3 ADD SWAP1 POP DUP2 DUP2 SUB PUSH1 0x0 DUP4 ADD MSTORE PUSH2 0x2130 DUP2 DUP5 PUSH2 0x20B8 JUMP JUMPDEST SWAP1 POP SWAP3 SWAP2 POP POP JUMP JUMPDEST PUSH2 0x2141 DUP2 PUSH2 0x19FE JUMP JUMPDEST DUP2 EQ PUSH2 0x214C JUMPI PUSH1 0x0 DUP1 REVERT JUMPDEST POP JUMP JUMPDEST PUSH1 0x0 DUP2 CALLDATALOAD SWAP1 POP PUSH2 0x215E DUP2 PUSH2 0x2138 JUMP JUMPDEST SWAP3 SWAP2 POP POP JUMP JUMPDEST PUSH1 0x0 DUP1 PUSH1 0x40 DUP4 DUP6 SUB SLT ISZERO PUSH2 0x217B JUMPI PUSH2 0x217A PUSH2 0x1871 JUMP JUMPDEST JUMPDEST PUSH1 0x0 PUSH2 0x2189 DUP6 DUP3 DUP7 ADD PUSH2 0x18C4 JUMP JUMPDEST SWAP3 POP POP PUSH1 0x20 PUSH2 0x219A DUP6 DUP3 DUP7 ADD PUSH2 0x214F JUMP JUMPDEST SWAP2 POP POP SWAP3 POP SWAP3 SWAP1 POP JUMP JUMPDEST PUSH1 0x0 DUP1 PUSH1 0x40 DUP4 DUP6 SUB SLT ISZERO PUSH2 0x21BB JUMPI PUSH2 0x21BA PUSH2 0x1871 JUMP JUMPDEST JUMPDEST PUSH1 0x0 PUSH2 0x21C9 DUP6 DUP3 DUP7 ADD PUSH2 0x18C4 JUMP JUMPDEST SWAP3 POP POP PUSH1 0x20 PUSH2 0x21DA DUP6 DUP3 DUP7 ADD PUSH2 0x18C4 JUMP JUMPDEST SWAP2 POP POP SWAP3 POP SWAP3 SWAP1 POP JUMP JUMPDEST PUSH1 0x0 DUP1 PUSH1 0x0 DUP1 PUSH1 0x0 PUSH1 0xA0 DUP7 DUP9 SUB SLT ISZERO PUSH2 0x2200 JUMPI PUSH2 0x21FF PUSH2 0x1871 JUMP JUMPDEST JUMPDEST PUSH1 0x0 PUSH2 0x220E DUP9 DUP3 DUP10 ADD PUSH2 0x18C4 JUMP JUMPDEST SWAP6 POP POP PUSH1 0x20 PUSH2 0x221F DUP9 DUP3 DUP10 ADD PUSH2 0x18C4 JUMP JUMPDEST SWAP5 POP POP PUSH1 0x40 PUSH2 0x2230 DUP9 DUP3 DUP10 ADD PUSH2 0x18FA JUMP JUMPDEST SWAP4 POP POP PUSH1 0x60 PUSH2 0x2241 DUP9 DUP3 DUP10 ADD PUSH2 0x18FA JUMP JUMPDEST SWAP3 POP POP PUSH1 0x80 DUP7 ADD CALLDATALOAD PUSH8 0xFFFFFFFFFFFFFFFF DUP2 GT ISZERO PUSH2 0x2262 JUMPI PUSH2 0x2261 PUSH2 0x1876 JUMP JUMPDEST JUMPDEST PUSH2 0x226E DUP9 DUP3 DUP10 ADD PUSH2 0x1CE2 JUMP JUMPDEST SWAP2 POP POP SWAP3 SWAP6 POP SWAP3 SWAP6 SWAP1 SWAP4 POP JUMP JUMPDEST PUSH32 0x455243313135353A2061646472657373207A65726F206973206E6F7420612076 PUSH1 0x0 DUP3 ADD MSTORE PUSH32 0x616C6964206F776E657200000000000000000000000000000000000000000000 PUSH1 0x20 DUP3 ADD MSTORE POP JUMP JUMPDEST PUSH1 0x0 PUSH2 0x22D7 PUSH1 0x2A DUP4 PUSH2 0x1A6C JUMP JUMPDEST SWAP2 POP PUSH2 0x22E2 DUP3 PUSH2 0x227B JUMP JUMPDEST PUSH1 0x40 DUP3 ADD SWAP1 POP SWAP2 SWAP1 POP JUMP JUMPDEST PUSH1 0x0 PUSH1 0x20 DUP3 ADD SWAP1 POP DUP2 DUP2 SUB PUSH1 0x0 DUP4 ADD MSTORE PUSH2 0x2306 DUP2 PUSH2 0x22CA JUMP JUMPDEST SWAP1 POP SWAP2 SWAP1 POP JUMP JUMPDEST PUSH32 0x4E487B7100000000000000000000000000000000000000000000000000000000 PUSH1 0x0 MSTORE PUSH1 0x22 PUSH1 0x4 MSTORE PUSH1 0x24 PUSH1 0x0 REVERT JUMPDEST PUSH1 0x0 PUSH1 0x2 DUP3 DIV SWAP1 POP PUSH1 0x1 DUP3 AND DUP1 PUSH2 0x2354 JUMPI PUSH1 0x7F DUP3 AND SWAP2 POP JUMPDEST PUSH1 0x20 DUP3 LT DUP2 SUB PUSH2 0x2367 JUMPI PUSH2 0x2366 PUSH2 0x230D JUMP JUMPDEST JUMPDEST POP SWAP2 SWAP1 POP JUMP JUMPDEST PUSH2 0x2376 DUP2 PUSH2 0x189B JUMP JUMPDEST DUP3 MSTORE POP POP JUMP JUMPDEST PUSH1 0x0 DUP2 MLOAD SWAP1 POP SWAP2 SWAP1 POP JUMP JUMPDEST PUSH1 0x0 DUP3 DUP3 MSTORE PUSH1 0x20 DUP3 ADD SWAP1 POP SWAP3 SWAP2 POP POP JUMP JUMPDEST PUSH1 0x0 PUSH2 0x23A3 DUP3 PUSH2 0x237C JUMP JUMPDEST PUSH2 0x23AD DUP2 DUP6 PUSH2 0x2387 JUMP JUMPDEST SWAP4 POP PUSH2 0x23BD DUP2 DUP6 PUSH1 0x20 DUP7 ADD PUSH2 0x1A7D JUMP JUMPDEST PUSH2 0x23C6 DUP2 PUSH2 0x1AA7 JUMP JUMPDEST DUP5 ADD SWAP2 POP POP SWAP3 SWAP2 POP POP JUMP JUMPDEST PUSH1 0x0 PUSH1 0x80 DUP3 ADD SWAP1 POP PUSH2 0x23E6 PUSH1 0x0 DUP4 ADD DUP8 PUSH2 0x236D JUMP JUMPDEST DUP2 DUP2 SUB PUSH1 0x20 DUP4 ADD MSTORE PUSH2 0x23F8 DUP2 DUP7 PUSH2 0x20B8 JUMP JUMPDEST SWAP1 POP DUP2 DUP2 SUB PUSH1 0x40 DUP4 ADD MSTORE PUSH2 0x240C DUP2 DUP6 PUSH2 0x20B8 JUMP JUMPDEST SWAP1 POP DUP2 DUP2 SUB PUSH1 0x60 DUP4 ADD MSTORE PUSH2 0x2420 DUP2 DUP5 PUSH2 0x2398 JUMP JUMPDEST SWAP1 POP SWAP6 SWAP5 POP POP POP POP POP JUMP JUMPDEST PUSH32 0x455243313135353A2063616C6C6572206973206E6F7420746F6B656E206F776E PUSH1 0x0 DUP3 ADD MSTORE PUSH32 0x6572206F7220617070726F766564000000000000000000000000000000000000 PUSH1 0x20 DUP3 ADD MSTORE POP JUMP JUMPDEST PUSH1 0x0 PUSH2 0x2487 PUSH1 0x2E DUP4 PUSH2 0x1A6C JUMP JUMPDEST SWAP2 POP PUSH2 0x2492 DUP3 PUSH2 0x242B JUMP JUMPDEST PUSH1 0x40 DUP3 ADD SWAP1 POP SWAP2 SWAP1 POP JUMP JUMPDEST PUSH1 0x0 PUSH1 0x20 DUP3 ADD SWAP1 POP DUP2 DUP2 SUB PUSH1 0x0 DUP4 ADD MSTORE PUSH2 0x24B6 DUP2 PUSH2 0x247A JUMP JUMPDEST SWAP1 POP SWAP2 SWAP1 POP JUMP JUMPDEST PUSH1 0x0 PUSH1 0x80 DUP3 ADD SWAP1 POP PUSH2 0x24D2 PUSH1 0x0 DUP4 ADD DUP8 PUSH2 0x236D JUMP JUMPDEST PUSH2 0x24DF PUSH1 0x20 DUP4 ADD DUP7 PUSH2 0x194F JUMP JUMPDEST PUSH2 0x24EC PUSH1 0x40 DUP4 ADD DUP6 PUSH2 0x194F JUMP JUMPDEST DUP2 DUP2 SUB PUSH1 0x60 DUP4 ADD MSTORE PUSH2 0x24FE DUP2 DUP5 PUSH2 0x2398 JUMP JUMPDEST SWAP1 POP SWAP6 SWAP5 POP POP POP POP POP JUMP JUMPDEST PUSH32 0x455243313135353A206163636F756E747320616E6420696473206C656E677468 PUSH1 0x0 DUP3 ADD MSTORE PUSH32 0x206D69736D617463680000000000000000000000000000000000000000000000 PUSH1 0x20 DUP3 ADD MSTORE POP JUMP JUMPDEST PUSH1 0x0 PUSH2 0x2565 PUSH1 0x29 DUP4 PUSH2 0x1A6C JUMP JUMPDEST SWAP2 POP PUSH2 0x2570 DUP3 PUSH2 0x2509 JUMP JUMPDEST PUSH1 0x40 DUP3 ADD SWAP1 POP SWAP2 SWAP1 POP JUMP JUMPDEST PUSH1 0x0 PUSH1 0x20 DUP3 ADD SWAP1 POP DUP2 DUP2 SUB PUSH1 0x0 DUP4 ADD MSTORE PUSH2 0x2594 DUP2 PUSH2 0x2558 JUMP JUMPDEST SWAP1 POP SWAP2 SWAP1 POP JUMP JUMPDEST PUSH32 0x4E487B7100000000000000000000000000000000000000000000000000000000 PUSH1 0x0 MSTORE PUSH1 0x32 PUSH1 0x4 MSTORE PUSH1 0x24 PUSH1 0x0 REVERT JUMPDEST PUSH32 0x4E487B7100000000000000000000000000000000000000000000000000000000 PUSH1 0x0 MSTORE PUSH1 0x11 PUSH1 0x4 MSTORE PUSH1 0x24 PUSH1 0x0 REVERT JUMPDEST PUSH1 0x0 PUSH2 0x2604 DUP3 PUSH2 0x18D9 JUMP JUMPDEST SWAP2 POP PUSH32 0xFFFFFFFFFFFFFFFFFFFFFFFFFFFFFFFFFFFFFFFFFFFFFFFFFFFFFFFFFFFFFFFF DUP3 SUB PUSH2 0x2636 JUMPI PUSH2 0x2635 PUSH2 0x25CA JUMP JUMPDEST JUMPDEST PUSH1 0x1 DUP3 ADD SWAP1 POP SWAP2 SWAP1 POP JUMP JUMPDEST PUSH32 0x455243313135353A206D696E7420746F20746865207A65726F20616464726573 PUSH1 0x0 DUP3 ADD MSTORE PUSH32 0x7300000000000000000000000000000000000000000000000000000000000000 PUSH1 0x20 DUP3 ADD MSTORE POP JUMP JUMPDEST PUSH1 0x0 PUSH2 0x269D PUSH1 0x21 DUP4 PUSH2 0x1A6C JUMP JUMPDEST SWAP2 POP PUSH2 0x26A8 DUP3 PUSH2 0x2641 JUMP JUMPDEST PUSH1 0x40 DUP3 ADD SWAP1 POP SWAP2 SWAP1 POP JUMP JUMPDEST PUSH1 0x0 PUSH1 0x20 DUP3 ADD SWAP1 POP DUP2 DUP2 SUB PUSH1 0x0 DUP4 ADD MSTORE PUSH2 0x26CC DUP2 PUSH2 0x2690 JUMP JUMPDEST SWAP1 POP SWAP2 SWAP1 POP JUMP JUMPDEST PUSH32 0x455243313135353A2069647320616E6420616D6F756E7473206C656E67746820 PUSH1 0x0 DUP3 ADD MSTORE PUSH32 0x6D69736D61746368000000000000000000000000000000000000000000000000 PUSH1 0x20 DUP3 ADD MSTORE POP JUMP JUMPDEST PUSH1 0x0 PUSH2 0x272F PUSH1 0x28 DUP4 PUSH2 0x1A6C JUMP JUMPDEST SWAP2 POP PUSH2 0x273A DUP3 PUSH2 0x26D3 JUMP JUMPDEST PUSH1 0x40 DUP3 ADD SWAP1 POP SWAP2 SWAP1 POP JUMP JUMPDEST PUSH1 0x0 PUSH1 0x20 DUP3 ADD SWAP1 POP DUP2 DUP2 SUB PUSH1 0x0 DUP4 ADD MSTORE PUSH2 0x275E DUP2 PUSH2 0x2722 JUMP JUMPDEST SWAP1 POP SWAP2 SWAP1 POP JUMP JUMPDEST PUSH1 0x0 PUSH2 0x2770 DUP3 PUSH2 0x18D9 JUMP JUMPDEST SWAP2 POP PUSH2 0x277B DUP4 PUSH2 0x18D9 JUMP JUMPDEST SWAP3 POP DUP3 DUP3 ADD SWAP1 POP DUP1 DUP3 GT ISZERO PUSH2 0x2793 JUMPI PUSH2 0x2792 PUSH2 0x25CA JUMP JUMPDEST JUMPDEST SWAP3 SWAP2 POP POP JUMP JUMPDEST PUSH1 0x0 PUSH1 0x40 DUP3 ADD SWAP1 POP DUP2 DUP2 SUB PUSH1 0x0 DUP4 ADD MSTORE PUSH2 0x27B3 DUP2 DUP6 PUSH2 0x20B8 JUMP JUMPDEST SWAP1 POP DUP2 DUP2 SUB PUSH1 0x20 DUP4 ADD MSTORE PUSH2 0x27C7 DUP2 DUP5 PUSH2 0x20B8 JUMP JUMPDEST SWAP1 POP SWAP4 SWAP3 POP POP POP JUMP JUMPDEST PUSH32 0x455243313135353A207472616E7366657220746F20746865207A65726F206164 PUSH1 0x0 DUP3 ADD MSTORE PUSH32 0x6472657373000000000000000000000000000000000000000000000000000000 PUSH1 0x20 DUP3 ADD MSTORE POP JUMP JUMPDEST PUSH1 0x0 PUSH2 0x282C PUSH1 0x25 DUP4 PUSH2 0x1A6C JUMP JUMPDEST SWAP2 POP PUSH2 0x2837 DUP3 PUSH2 0x27D0 JUMP JUMPDEST PUSH1 0x40 DUP3 ADD SWAP1 POP SWAP2 SWAP1 POP JUMP JUMPDEST PUSH1 0x0 PUSH1 0x20 DUP3 ADD SWAP1 POP DUP2 DUP2 SUB PUSH1 0x0 DUP4 ADD MSTORE PUSH2 0x285B DUP2 PUSH2 0x281F JUMP JUMPDEST SWAP1 POP SWAP2 SWAP1 POP JUMP JUMPDEST PUSH32 0x455243313135353A20696E73756666696369656E742062616C616E636520666F PUSH1 0x0 DUP3 ADD MSTORE PUSH32 0x72207472616E7366657200000000000000000000000000000000000000000000 PUSH1 0x20 DUP3 ADD MSTORE POP JUMP JUMPDEST PUSH1 0x0 PUSH2 0x28BE PUSH1 0x2A DUP4 PUSH2 0x1A6C JUMP JUMPDEST SWAP2 POP PUSH2 0x28C9 DUP3 PUSH2 0x2862 JUMP JUMPDEST PUSH1 0x40 DUP3 ADD SWAP1 POP SWAP2 SWAP1 POP JUMP JUMPDEST PUSH1 0x0 PUSH1 0x20 DUP3 ADD SWAP1 POP DUP2 DUP2 SUB PUSH1 0x0 DUP4 ADD MSTORE PUSH2 0x28ED DUP2 PUSH2 0x28B1 JUMP JUMPDEST SWAP1 POP SWAP2 SWAP1 POP JUMP JUMPDEST PUSH1 0x0 PUSH1 0x40 DUP3 ADD SWAP1 POP PUSH2 0x2909 PUSH1 0x0 DUP4 ADD DUP6 PUSH2 0x194F JUMP JUMPDEST PUSH2 0x2916 PUSH1 0x20 DUP4 ADD DUP5 PUSH2 0x194F JUMP JUMPDEST SWAP4 SWAP3 POP POP POP JUMP JUMPDEST PUSH32 0x455243313135353A2073657474696E6720617070726F76616C20737461747573 PUSH1 0x0 DUP3 ADD MSTORE PUSH32 0x20666F722073656C660000000000000000000000000000000000000000000000 PUSH1 0x20 DUP3 ADD MSTORE POP JUMP JUMPDEST PUSH1 0x0 PUSH2 0x2979 PUSH1 0x29 DUP4 PUSH2 0x1A6C JUMP JUMPDEST SWAP2 POP PUSH2 0x2984 DUP3 PUSH2 0x291D JUMP JUMPDEST PUSH1 0x40 DUP3 ADD SWAP1 POP SWAP2 SWAP1 POP JUMP JUMPDEST PUSH1 0x0 PUSH1 0x20 DUP3 ADD SWAP1 POP DUP2 DUP2 SUB PUSH1 0x0 DUP4 ADD MSTORE PUSH2 0x29A8 DUP2 PUSH2 0x296C JUMP JUMPDEST SWAP1 POP SWAP2 SWAP1 POP JUMP JUMPDEST PUSH1 0x0 PUSH1 0xA0 DUP3 ADD SWAP1 POP PUSH2 0x29C4 PUSH1 0x0 DUP4 ADD DUP9 PUSH2 0x236D JUMP JUMPDEST PUSH2 0x29D1 PUSH1 0x20 DUP4 ADD DUP8 PUSH2 0x236D JUMP JUMPDEST DUP2 DUP2 SUB PUSH1 0x40 DUP4 ADD MSTORE PUSH2 0x29E3 DUP2 DUP7 PUSH2 0x20B8 JUMP JUMPDEST SWAP1 POP DUP2 DUP2 SUB PUSH1 0x60 DUP4 ADD MSTORE PUSH2 0x29F7 DUP2 DUP6 PUSH2 0x20B8 JUMP JUMPDEST SWAP1 POP DUP2 DUP2 SUB PUSH1 0x80 DUP4 ADD MSTORE PUSH2 0x2A0B DUP2 DUP5 PUSH2 0x2398 JUMP JUMPDEST SWAP1 POP SWAP7 SWAP6 POP POP POP POP POP POP JUMP JUMPDEST PUSH1 0x0 DUP2 MLOAD SWAP1 POP PUSH2 0x2A26 DUP2 PUSH2 0x19A5 JUMP JUMPDEST SWAP3 SWAP2 POP POP JUMP JUMPDEST PUSH1 0x0 PUSH1 0x20 DUP3 DUP5 SUB SLT ISZERO PUSH2 0x2A42 JUMPI PUSH2 0x2A41 PUSH2 0x1871 JUMP JUMPDEST JUMPDEST PUSH1 0x0 PUSH2 0x2A50 DUP5 DUP3 DUP6 ADD PUSH2 0x2A17 JUMP JUMPDEST SWAP2 POP POP SWAP3 SWAP2 POP POP JUMP JUMPDEST PUSH1 0x0 DUP2 PUSH1 0xE0 SHR SWAP1 POP SWAP2 SWAP1 POP JUMP JUMPDEST PUSH1 0x0 PUSH1 0x3 RETURNDATASIZE GT ISZERO PUSH2 0x2A85 JUMPI PUSH1 0x4 PUSH1 0x0 DUP1 RETURNDATACOPY PUSH2 0x2A82 PUSH1 0x0 MLOAD PUSH2 0x2A59 JUMP JUMPDEST SWAP1 POP JUMPDEST SWAP1 JUMP JUMPDEST PUSH1 0x0 PUSH1 0x44 RETURNDATASIZE LT PUSH2 0x2B15 JUMPI PUSH2 0x2A9A PUSH2 0x1867 JUMP JUMPDEST PUSH1 0x4 RETURNDATASIZE SUB PUSH1 0x4 DUP3 RETURNDATACOPY DUP1 MLOAD RETURNDATASIZE PUSH1 0x24 DUP3 ADD GT PUSH8 0xFFFFFFFFFFFFFFFF DUP3 GT OR ISZERO PUSH2 0x2AC2 JUMPI POP POP PUSH2 0x2B15 JUMP JUMPDEST DUP1 DUP3 ADD DUP1 MLOAD PUSH8 0xFFFFFFFFFFFFFFFF DUP2 GT ISZERO PUSH2 0x2AE0 JUMPI POP POP POP POP PUSH2 0x2B15 JUMP JUMPDEST DUP1 PUSH1 0x20 DUP4 ADD ADD PUSH1 0x4 RETURNDATASIZE SUB DUP6 ADD DUP2 GT ISZERO PUSH2 0x2AFD JUMPI POP POP POP POP POP PUSH2 0x2B15 JUMP JUMPDEST PUSH2 0x2B0C DUP3 PUSH1 0x20 ADD DUP6 ADD DUP7 PUSH2 0x1B47 JUMP JUMPDEST DUP3 SWAP6 POP POP POP POP POP POP JUMPDEST SWAP1 JUMP JUMPDEST PUSH32 0x455243313135353A207472616E7366657220746F206E6F6E2D45524331313535 PUSH1 0x0 DUP3 ADD MSTORE PUSH32 0x526563656976657220696D706C656D656E746572000000000000000000000000 PUSH1 0x20 DUP3 ADD MSTORE POP JUMP JUMPDEST PUSH1 0x0 PUSH2 0x2B74 PUSH1 0x34 DUP4 PUSH2 0x1A6C JUMP JUMPDEST SWAP2 POP PUSH2 0x2B7F DUP3 PUSH2 0x2B18 JUMP JUMPDEST PUSH1 0x40 DUP3 ADD SWAP1 POP SWAP2 SWAP1 POP JUMP JUMPDEST PUSH1 0x0 PUSH1 0x20 DUP3 ADD SWAP1 POP DUP2 DUP2 SUB PUSH1 0x0 DUP4 ADD MSTORE PUSH2 0x2BA3 DUP2 PUSH2 0x2B67 JUMP JUMPDEST SWAP1 POP SWAP2 SWAP1 POP JUMP JUMPDEST PUSH32 0x455243313135353A204552433131353552656365697665722072656A65637465 PUSH1 0x0 DUP3 ADD MSTORE PUSH32 0x6420746F6B656E73000000000000000000000000000000000000000000000000 PUSH1 0x20 DUP3 ADD MSTORE POP JUMP JUMPDEST PUSH1 0x0 PUSH2 0x2C06 PUSH1 0x28 DUP4 PUSH2 0x1A6C JUMP JUMPDEST SWAP2 POP PUSH2 0x2C11 DUP3 PUSH2 0x2BAA JUMP JUMPDEST PUSH1 0x40 DUP3 ADD SWAP1 POP SWAP2 SWAP1 POP JUMP JUMPDEST PUSH1 0x0 PUSH1 0x20 DUP3 ADD SWAP1 POP DUP2 DUP2 SUB PUSH1 0x0 DUP4 ADD MSTORE PUSH2 0x2C35 DUP2 PUSH2 0x2BF9 JUMP JUMPDEST SWAP1 POP SWAP2 SWAP1 POP JUMP JUMPDEST PUSH1 0x0 PUSH1 0xA0 DUP3 ADD SWAP1 POP PUSH2 0x2C51 PUSH1 0x0 DUP4 ADD DUP9 PUSH2 0x236D JUMP JUMPDEST PUSH2 0x2C5E PUSH1 0x20 DUP4 ADD DUP8 PUSH2 0x236D JUMP JUMPDEST PUSH2 0x2C6B PUSH1 0x40 DUP4 ADD DUP7 PUSH2 0x194F JUMP JUMPDEST PUSH2 0x2C78 PUSH1 0x60 DUP4 ADD DUP6 PUSH2 0x194F JUMP JUMPDEST DUP2 DUP2 SUB PUSH1 0x80 DUP4 ADD MSTORE PUSH2 0x2C8A DUP2 DUP5 PUSH2 0x2398 JUMP JUMPDEST SWAP1 POP SWAP7 SWAP6 POP POP POP POP POP POP JUMP INVALID LOG2 PUSH5 0x6970667358 0x22 SLT KECCAK256 0xAE SIGNEXTEND 0xE6 GT LT PUSH4 0xC42BD3D3 PC 0xD5 JUMPI 0x4E CALLDATASIZE SDIV PUSH7 0x2E0E74B156854F 0xC1 RETURN 0x2C 0x25 0x5E 0x27 0x49 SWAP3 PUSH5 0x736F6C6343 STOP ADDMOD GT STOP CALLER "
		},
		"gasEstimates": {
			"creation": {
				"codeDepositCost": "2293600",
				"executionCost": "infinite",
				"totalCost": "infinite"
			},
			"external": {
				"balanceOf(address,uint256)": "infinite",
				"balanceOfBatch(address[],uint256[])": "infinite",
				"isApprovedForAll(address,address)": "infinite",
				"mintBatchNFT(address,uint256[],uint256[],bytes)": "infinite",
				"mintNFT(address,uint256,uint256,bytes)": "infinite",
				"safeBatchTransferFrom(address,address,uint256[],uint256[],bytes)": "infinite",
				"safeTransferFrom(address,address,uint256,uint256,bytes)": "infinite",
				"setApprovalForAll(address,bool)": "infinite",
				"supportsInterface(bytes4)": "796",
				"totalSupply(uint256)": "infinite",
				"uri(uint256)": "infinite"
			}
		},
		"methodIdentifiers": {
			"balanceOf(address,uint256)": "00fdd58e",
			"balanceOfBatch(address[],uint256[])": "4e1273f4",
			"isApprovedForAll(address,address)": "e985e9c5",
			"mintBatchNFT(address,uint256[],uint256[],bytes)": "2db32baf",
			"mintNFT(address,uint256,uint256,bytes)": "4b641181",
			"safeBatchTransferFrom(address,address,uint256[],uint256[],bytes)": "2eb2c2d6",
			"safeTransferFrom(address,address,uint256,uint256,bytes)": "f242432a",
			"setApprovalForAll(address,bool)": "a22cb465",
			"supportsInterface(bytes4)": "01ffc9a7",
			"totalSupply(uint256)": "bd85b039",
			"uri(uint256)": "0e89341c"
		}
	},
	"abi": [
		{
			"inputs": [
				{
					"internalType": "address",
					"name": "_owner",
					"type": "address"
				},
				{
					"internalType": "string",
					"name": "_url",
					"type": "string"
				}
			],
			"stateMutability": "nonpayable",
			"type": "constructor"
		},
		{
			"anonymous": false,
			"inputs": [
				{
					"indexed": true,
					"internalType": "address",
					"name": "account",
					"type": "address"
				},
				{
					"indexed": true,
					"internalType": "address",
					"name": "operator",
					"type": "address"
				},
				{
					"indexed": false,
					"internalType": "bool",
					"name": "approved",
					"type": "bool"
				}
			],
			"name": "ApprovalForAll",
			"type": "event"
		},
		{
			"anonymous": false,
			"inputs": [
				{
					"indexed": false,
					"internalType": "address",
					"name": "to",
					"type": "address"
				},
				{
					"indexed": false,
					"internalType": "uint256[]",
					"name": "ids",
					"type": "uint256[]"
				},
				{
					"indexed": false,
					"internalType": "uint256[]",
					"name": "amounts",
					"type": "uint256[]"
				},
				{
					"indexed": false,
					"internalType": "bytes",
					"name": "data",
					"type": "bytes"
				}
			],
			"name": "MintBatchNFT",
			"type": "event"
		},
		{
			"anonymous": false,
			"inputs": [
				{
					"indexed": false,
					"internalType": "address",
					"name": "to",
					"type": "address"
				},
				{
					"indexed": false,
					"internalType": "uint256",
					"name": "_id",
					"type": "uint256"
				},
				{
					"indexed": false,
					"internalType": "uint256",
					"name": "amount",
					"type": "uint256"
				},
				{
					"indexed": false,
					"internalType": "bytes",
					"name": "data",
					"type": "bytes"
				}
			],
			"name": "MintNFT",
			"type": "event"
		},
		{
			"anonymous": false,
			"inputs": [
				{
					"indexed": true,
					"internalType": "address",
					"name": "operator",
					"type": "address"
				},
				{
					"indexed": true,
					"internalType": "address",
					"name": "from",
					"type": "address"
				},
				{
					"indexed": true,
					"internalType": "address",
					"name": "to",
					"type": "address"
				},
				{
					"indexed": false,
					"internalType": "uint256[]",
					"name": "ids",
					"type": "uint256[]"
				},
				{
					"indexed": false,
					"internalType": "uint256[]",
					"name": "values",
					"type": "uint256[]"
				}
			],
			"name": "TransferBatch",
			"type": "event"
		},
		{
			"anonymous": false,
			"inputs": [
				{
					"indexed": true,
					"internalType": "address",
					"name": "operator",
					"type": "address"
				},
				{
					"indexed": true,
					"internalType": "address",
					"name": "from",
					"type": "address"
				},
				{
					"indexed": true,
					"internalType": "address",
					"name": "to",
					"type": "address"
				},
				{
					"indexed": false,
					"internalType": "uint256",
					"name": "id",
					"type": "uint256"
				},
				{
					"indexed": false,
					"internalType": "uint256",
					"name": "value",
					"type": "uint256"
				}
			],
			"name": "TransferSingle",
			"type": "event"
		},
		{
			"anonymous": false,
			"inputs": [
				{
					"indexed": false,
					"internalType": "string",
					"name": "value",
					"type": "string"
				},
				{
					"indexed": true,
					"internalType": "uint256",
					"name": "id",
					"type": "uint256"
				}
			],
			"name": "URI",
			"type": "event"
		},
		{
			"inputs": [
				{
					"internalType": "address",
					"name": "account",
					"type": "address"
				},
				{
					"internalType": "uint256",
					"name": "id",
					"type": "uint256"
				}
			],
			"name": "balanceOf",
			"outputs": [
				{
					"internalType": "uint256",
					"name": "",
					"type": "uint256"
				}
			],
			"stateMutability": "view",
			"type": "function"
		},
		{
			"inputs": [
				{
					"internalType": "address[]",
					"name": "accounts",
					"type": "address[]"
				},
				{
					"internalType": "uint256[]",
					"name": "ids",
					"type": "uint256[]"
				}
			],
			"name": "balanceOfBatch",
			"outputs": [
				{
					"internalType": "uint256[]",
					"name": "",
					"type": "uint256[]"
				}
			],
			"stateMutability": "view",
			"type": "function"
		},
		{
			"inputs": [
				{
					"internalType": "address",
					"name": "account",
					"type": "address"
				},
				{
					"internalType": "address",
					"name": "operator",
					"type": "address"
				}
			],
			"name": "isApprovedForAll",
			"outputs": [
				{
					"internalType": "bool",
					"name": "",
					"type": "bool"
				}
			],
			"stateMutability": "view",
			"type": "function"
		},
		{
			"inputs": [
				{
					"internalType": "address",
					"name": "to",
					"type": "address"
				},
				{
					"internalType": "uint256[]",
					"name": "ids",
					"type": "uint256[]"
				},
				{
					"internalType": "uint256[]",
					"name": "amounts",
					"type": "uint256[]"
				},
				{
					"internalType": "bytes",
					"name": "data",
					"type": "bytes"
				}
			],
			"name": "mintBatchNFT",
			"outputs": [],
			"stateMutability": "nonpayable",
			"type": "function"
		},
		{
			"inputs": [
				{
					"internalType": "address",
					"name": "to",
					"type": "address"
				},
				{
					"internalType": "uint256",
					"name": "_id",
					"type": "uint256"
				},
				{
					"internalType": "uint256",
					"name": "amount",
					"type": "uint256"
				},
				{
					"internalType": "bytes",
					"name": "data",
					"type": "bytes"
				}
			],
			"name": "mintNFT",
			"outputs": [],
			"stateMutability": "nonpayable",
			"type": "function"
		},
		{
			"inputs": [
				{
					"internalType": "address",
					"name": "from",
					"type": "address"
				},
				{
					"internalType": "address",
					"name": "to",
					"type": "address"
				},
				{
					"internalType": "uint256[]",
					"name": "ids",
					"type": "uint256[]"
				},
				{
					"internalType": "uint256[]",
					"name": "amounts",
					"type": "uint256[]"
				},
				{
					"internalType": "bytes",
					"name": "data",
					"type": "bytes"
				}
			],
			"name": "safeBatchTransferFrom",
			"outputs": [],
			"stateMutability": "nonpayable",
			"type": "function"
		},
		{
			"inputs": [
				{
					"internalType": "address",
					"name": "from",
					"type": "address"
				},
				{
					"internalType": "address",
					"name": "to",
					"type": "address"
				},
				{
					"internalType": "uint256",
					"name": "id",
					"type": "uint256"
				},
				{
					"internalType": "uint256",
					"name": "amount",
					"type": "uint256"
				},
				{
					"internalType": "bytes",
					"name": "data",
					"type": "bytes"
				}
			],
			"name": "safeTransferFrom",
			"outputs": [],
			"stateMutability": "nonpayable",
			"type": "function"
		},
		{
			"inputs": [
				{
					"internalType": "address",
					"name": "operator",
					"type": "address"
				},
				{
					"internalType": "bool",
					"name": "approved",
					"type": "bool"
				}
			],
			"name": "setApprovalForAll",
			"outputs": [],
			"stateMutability": "nonpayable",
			"type": "function"
		},
		{
			"inputs": [
				{
					"internalType": "bytes4",
					"name": "interfaceId",
					"type": "bytes4"
				}
			],
			"name": "supportsInterface",
			"outputs": [
				{
					"internalType": "bool",
					"name": "",
					"type": "bool"
				}
			],
			"stateMutability": "view",
			"type": "function"
		},
		{
			"inputs": [
				{
					"internalType": "uint256",
					"name": "id",
					"type": "uint256"
				}
			],
			"name": "totalSupply",
			"outputs": [
				{
					"internalType": "uint256",
					"name": "",
					"type": "uint256"
				}
			],
			"stateMutability": "view",
			"type": "function"
		},
		{
			"inputs": [
				{
					"internalType": "uint256",
					"name": "",
					"type": "uint256"
				}
			],
			"name": "uri",
			"outputs": [
				{
					"internalType": "string",
					"name": "",
					"type": "string"
				}
			],
			"stateMutability": "view",
			"type": "function"
		}
	]
}