{
	"NFT-Contracts/contracts/market_pri/market_place.sol": {
		"NFTMarketplace": {
			"abi": [
				{
					"anonymous": false,
					"inputs": [
						{
							"indexed": false,
							"internalType": "address",
							"name": "nftContractAddress",
							"type": "address"
						},
						{
							"indexed": false,
							"internalType": "address",
							"name": "nftSeller",
							"type": "address"
						},
						{
							"indexed": false,
							"internalType": "uint256",
							"name": "tokenId",
							"type": "uint256"
						}
					],
					"name": "CancelNftFixedSale",
					"type": "event"
				},
				{
					"anonymous": false,
					"inputs": [
						{
							"indexed": false,
							"internalType": "address",
							"name": "nftContractAddress",
							"type": "address"
						},
						{
							"indexed": false,
							"internalType": "address",
							"name": "nftBuyer",
							"type": "address"
						},
						{
							"indexed": false,
							"internalType": "uint256",
							"name": "tokenId",
							"type": "uint256"
						},
						{
							"indexed": false,
							"internalType": "uint256",
							"name": "nftBuyPrice",
							"type": "uint256"
						}
					],
					"name": "NftBuyFromFixedSale",
					"type": "event"
				},
				{
					"anonymous": false,
					"inputs": [
						{
							"indexed": false,
							"internalType": "address",
							"name": "nftContractAddress",
							"type": "address"
						},
						{
							"indexed": false,
							"internalType": "address",
							"name": "nftSeller",
							"type": "address"
						},
						{
							"indexed": false,
							"internalType": "address",
							"name": "erc20",
							"type": "address"
						},
						{
							"indexed": false,
							"internalType": "uint256",
							"name": "tokenId",
							"type": "uint256"
						},
						{
							"indexed": false,
							"internalType": "uint256",
							"name": "salePrice",
							"type": "uint256"
						},
						{
							"indexed": false,
							"internalType": "uint256",
							"name": "timeOfSale",
							"type": "uint256"
						}
					],
					"name": "NftFixedSale",
					"type": "event"
				},
				{
					"anonymous": false,
					"inputs": [
						{
							"indexed": false,
							"internalType": "address",
							"name": "nftContractAddress",
							"type": "address"
						},
						{
							"indexed": false,
							"internalType": "uint256",
							"name": "tokenId",
							"type": "uint256"
						},
						{
							"indexed": false,
							"internalType": "uint256",
							"name": "updateSalePrice",
							"type": "uint256"
						}
					],
					"name": "NftFixedSalePriceUpdated",
					"type": "event"
				},
				{
					"inputs": [
						{
							"internalType": "address",
							"name": "_nftContractAddress",
							"type": "address"
						},
						{
							"internalType": "uint256",
							"name": "_tokenId",
							"type": "uint256"
						},
						{
							"internalType": "uint256",
							"name": "_amount",
							"type": "uint256"
						}
					],
					"name": "buyFromFixedSale",
					"outputs": [],
					"stateMutability": "payable",
					"type": "function"
				},
				{
					"inputs": [
						{
							"internalType": "address",
							"name": "_nftContractAddress",
							"type": "address"
						},
						{
							"internalType": "uint256",
							"name": "_tokenId",
							"type": "uint256"
						}
					],
					"name": "cancelFixedsale",
					"outputs": [],
					"stateMutability": "nonpayable",
					"type": "function"
				},
				{
					"inputs": [
						{
							"internalType": "address",
							"name": "_nftContractAddress",
							"type": "address"
						},
						{
							"internalType": "address",
							"name": "_erc20",
							"type": "address"
						},
						{
							"internalType": "uint256",
							"name": "_tokenId",
							"type": "uint256"
						},
						{
							"internalType": "uint256",
							"name": "_salePrice",
							"type": "uint256"
						}
					],
					"name": "nftFixedSale",
					"outputs": [],
					"stateMutability": "nonpayable",
					"type": "function"
				},
				{
					"inputs": [
						{
							"internalType": "address",
							"name": "",
							"type": "address"
						},
						{
							"internalType": "uint256",
							"name": "",
							"type": "uint256"
						}
					],
					"name": "nftSaleStatus",
					"outputs": [
						{
							"internalType": "uint256",
							"name": "",
							"type": "uint256"
						}
					],
					"stateMutability": "view",
					"type": "function"
				},
				{
					"inputs": [
						{
							"internalType": "address",
							"name": "",
							"type": "address"
						},
						{
							"internalType": "address",
							"name": "from",
							"type": "address"
						},
						{
							"internalType": "uint256",
							"name": "",
							"type": "uint256"
						},
						{
							"internalType": "bytes",
							"name": "",
							"type": "bytes"
						}
					],
					"name": "onERC721Received",
					"outputs": [
						{
							"internalType": "bytes4",
							"name": "",
							"type": "bytes4"
						}
					],
					"stateMutability": "pure",
					"type": "function"
				},
				{
					"inputs": [
						{
							"internalType": "address",
							"name": "_nftContractAddress",
							"type": "address"
						},
						{
							"internalType": "uint256",
							"name": "_tokenId",
							"type": "uint256"
						},
						{
							"internalType": "uint256",
							"name": "_updateSalePrice",
							"type": "uint256"
						}
					],
					"name": "updateFixedSalePrice",
					"outputs": [],
					"stateMutability": "nonpayable",
					"type": "function"
				},
				{
					"stateMutability": "payable",
					"type": "receive"
				}
			],
			"devdoc": {
				"kind": "dev",
				"methods": {},
				"version": 1
			},
			"evm": {
				"assembly": "    /* \"NFT-Contracts/contracts/market_pri/market_place.sol\":173:7209  contract NFTMarketplace {... */\n  mstore(0x40, 0x80)\n  callvalue\n  dup1\n  iszero\n  tag_1\n  jumpi\n  0x00\n  dup1\n  revert\ntag_1:\n  pop\n  dataSize(sub_0)\n  dup1\n  dataOffset(sub_0)\n  0x00\n  codecopy\n  0x00\n  return\nstop\n\nsub_0: assembly {\n        /* \"NFT-Contracts/contracts/market_pri/market_place.sol\":173:7209  contract NFTMarketplace {... */\n      mstore(0x40, 0x80)\n      jumpi(tag_1, lt(calldatasize, 0x04))\n      shr(0xe0, calldataload(0x00))\n      dup1\n      0x150b7a02\n      eq\n      tag_3\n      jumpi\n      dup1\n      0x4676adca\n      eq\n      tag_4\n      jumpi\n      dup1\n      0x6916462f\n      eq\n      tag_5\n      jumpi\n      dup1\n      0x69a6d12e\n      eq\n      tag_6\n      jumpi\n      dup1\n      0xbaf4371e\n      eq\n      tag_7\n      jumpi\n      dup1\n      0xd3a6a6c9\n      eq\n      tag_8\n      jumpi\n      jump(tag_2)\n    tag_1:\n      jumpi(tag_2, calldatasize)\n      stop\n    tag_2:\n      0x00\n      dup1\n      revert\n        /* \"NFT-Contracts/contracts/market_pri/market_place.sol\":6105:6320  function onERC721Received(... */\n    tag_3:\n      callvalue\n      dup1\n      iszero\n      tag_11\n      jumpi\n      0x00\n      dup1\n      revert\n    tag_11:\n      pop\n      tag_12\n      0x04\n      dup1\n      calldatasize\n      sub\n      dup2\n      add\n      swap1\n      tag_13\n      swap2\n      swap1\n      tag_14\n      jump\t// in\n    tag_13:\n      tag_15\n      jump\t// in\n    tag_12:\n      mload(0x40)\n      tag_16\n      swap2\n      swap1\n      tag_17\n      jump\t// in\n    tag_16:\n      mload(0x40)\n      dup1\n      swap2\n      sub\n      swap1\n      return\n        /* \"NFT-Contracts/contracts/market_pri/market_place.sol\":4454:5032  function updateFixedSalePrice(... */\n    tag_4:\n      callvalue\n      dup1\n      iszero\n      tag_18\n      jumpi\n      0x00\n      dup1\n      revert\n    tag_18:\n      pop\n      tag_19\n      0x04\n      dup1\n      calldatasize\n      sub\n      dup2\n      add\n      swap1\n      tag_20\n      swap2\n      swap1\n      tag_21\n      jump\t// in\n    tag_20:\n      tag_22\n      jump\t// in\n    tag_19:\n      stop\n        /* \"NFT-Contracts/contracts/market_pri/market_place.sol\":456:524  mapping(address => mapping(uint256 => uint256)) public nftSaleStatus */\n    tag_5:\n      callvalue\n      dup1\n      iszero\n      tag_23\n      jumpi\n      0x00\n      dup1\n      revert\n    tag_23:\n      pop\n      tag_24\n      0x04\n      dup1\n      calldatasize\n      sub\n      dup2\n      add\n      swap1\n      tag_25\n      swap2\n      swap1\n      tag_26\n      jump\t// in\n    tag_25:\n      tag_27\n      jump\t// in\n    tag_24:\n      mload(0x40)\n      tag_28\n      swap2\n      swap1\n      tag_29\n      jump\t// in\n    tag_28:\n      mload(0x40)\n      dup1\n      swap2\n      sub\n      swap1\n      return\n        /* \"NFT-Contracts/contracts/market_pri/market_place.sol\":2953:3936  function nftFixedSale(... */\n    tag_6:\n      callvalue\n      dup1\n      iszero\n      tag_30\n      jumpi\n      0x00\n      dup1\n      revert\n    tag_30:\n      pop\n      tag_31\n      0x04\n      dup1\n      calldatasize\n      sub\n      dup2\n      add\n      swap1\n      tag_32\n      swap2\n      swap1\n      tag_33\n      jump\t// in\n    tag_32:\n      tag_34\n      jump\t// in\n    tag_31:\n      stop\n        /* \"NFT-Contracts/contracts/market_pri/market_place.sol\":5040:6097  function buyFromFixedSale(... */\n    tag_7:\n      tag_35\n      0x04\n      dup1\n      calldatasize\n      sub\n      dup2\n      add\n      swap1\n      tag_36\n      swap2\n      swap1\n      tag_21\n      jump\t// in\n    tag_36:\n      tag_37\n      jump\t// in\n    tag_35:\n      stop\n        /* \"NFT-Contracts/contracts/market_pri/market_place.sol\":3944:4446  function cancelFixedsale(address _nftContractAddress, uint256 _tokenId)... */\n    tag_8:\n      callvalue\n      dup1\n      iszero\n      tag_38\n      jumpi\n      0x00\n      dup1\n      revert\n    tag_38:\n      pop\n      tag_39\n      0x04\n      dup1\n      calldatasize\n      sub\n      dup2\n      add\n      swap1\n      tag_40\n      swap2\n      swap1\n      tag_26\n      jump\t// in\n    tag_40:\n      tag_41\n      jump\t// in\n    tag_39:\n      stop\n        /* \"NFT-Contracts/contracts/market_pri/market_place.sol\":6105:6320  function onERC721Received(... */\n    tag_15:\n        /* \"NFT-Contracts/contracts/market_pri/market_place.sol\":6245:6251  bytes4 */\n      0x00\n        /* \"NFT-Contracts/contracts/market_pri/market_place.sol\":6271:6312  IERC721Receiver.onERC721Received.selector */\n      shl(0xe0, 0x150b7a02)\n        /* \"NFT-Contracts/contracts/market_pri/market_place.sol\":6264:6312  return IERC721Receiver.onERC721Received.selector */\n      swap1\n      pop\n        /* \"NFT-Contracts/contracts/market_pri/market_place.sol\":6105:6320  function onERC721Received(... */\n      swap6\n      swap5\n      pop\n      pop\n      pop\n      pop\n      pop\n      jump\t// out\n        /* \"NFT-Contracts/contracts/market_pri/market_place.sol\":4454:5032  function updateFixedSalePrice(... */\n    tag_22:\n        /* \"NFT-Contracts/contracts/market_pri/market_place.sol\":4635:4654  _nftContractAddress */\n      dup3\n        /* \"NFT-Contracts/contracts/market_pri/market_place.sol\":4656:4664  _tokenId */\n      dup3\n        /* \"NFT-Contracts/contracts/market_pri/market_place.sol\":1560:1561  1 */\n      0x01\n        /* \"NFT-Contracts/contracts/market_pri/market_place.sol\":1512:1525  nftSaleStatus */\n      dup1\n        /* \"NFT-Contracts/contracts/market_pri/market_place.sol\":1512:1546  nftSaleStatus[_nftContractAddress] */\n      0x00\n        /* \"NFT-Contracts/contracts/market_pri/market_place.sol\":1526:1545  _nftContractAddress */\n      dup5\n        /* \"NFT-Contracts/contracts/market_pri/market_place.sol\":1512:1546  nftSaleStatus[_nftContractAddress] */\n      0xffffffffffffffffffffffffffffffffffffffff\n      and\n      0xffffffffffffffffffffffffffffffffffffffff\n      and\n      dup2\n      mstore\n      0x20\n      add\n      swap1\n      dup2\n      mstore\n      0x20\n      add\n      0x00\n      keccak256\n        /* \"NFT-Contracts/contracts/market_pri/market_place.sol\":1512:1556  nftSaleStatus[_nftContractAddress][_tokenId] */\n      0x00\n        /* \"NFT-Contracts/contracts/market_pri/market_place.sol\":1547:1555  _tokenId */\n      dup4\n        /* \"NFT-Contracts/contracts/market_pri/market_place.sol\":1512:1556  nftSaleStatus[_nftContractAddress][_tokenId] */\n      dup2\n      mstore\n      0x20\n      add\n      swap1\n      dup2\n      mstore\n      0x20\n      add\n      0x00\n      keccak256\n      sload\n        /* \"NFT-Contracts/contracts/market_pri/market_place.sol\":1512:1561  nftSaleStatus[_nftContractAddress][_tokenId] == 1 */\n      eq\n        /* \"NFT-Contracts/contracts/market_pri/market_place.sol\":1490:1610  require(... */\n      tag_44\n      jumpi\n      mload(0x40)\n      0x08c379a000000000000000000000000000000000000000000000000000000000\n      dup2\n      mstore\n      0x04\n      add\n      tag_45\n      swap1\n      tag_46\n      jump\t// in\n    tag_45:\n      mload(0x40)\n      dup1\n      swap2\n      sub\n      swap1\n      revert\n    tag_44:\n        /* \"NFT-Contracts/contracts/market_pri/market_place.sol\":4694:4713  _nftContractAddress */\n      dup5\n        /* \"NFT-Contracts/contracts/market_pri/market_place.sol\":4715:4723  _tokenId */\n      dup5\n        /* \"NFT-Contracts/contracts/market_pri/market_place.sol\":2022:2042  nftContractFixedSale */\n      0x00\n        /* \"NFT-Contracts/contracts/market_pri/market_place.sol\":2022:2063  nftContractFixedSale[_nftContractAddress] */\n      dup1\n        /* \"NFT-Contracts/contracts/market_pri/market_place.sol\":2043:2062  _nftContractAddress */\n      dup4\n        /* \"NFT-Contracts/contracts/market_pri/market_place.sol\":2022:2063  nftContractFixedSale[_nftContractAddress] */\n      0xffffffffffffffffffffffffffffffffffffffff\n      and\n      0xffffffffffffffffffffffffffffffffffffffff\n      and\n      dup2\n      mstore\n      0x20\n      add\n      swap1\n      dup2\n      mstore\n      0x20\n      add\n      0x00\n      keccak256\n        /* \"NFT-Contracts/contracts/market_pri/market_place.sol\":2022:2073  nftContractFixedSale[_nftContractAddress][_tokenId] */\n      0x00\n        /* \"NFT-Contracts/contracts/market_pri/market_place.sol\":2064:2072  _tokenId */\n      dup3\n        /* \"NFT-Contracts/contracts/market_pri/market_place.sol\":2022:2073  nftContractFixedSale[_nftContractAddress][_tokenId] */\n      dup2\n      mstore\n      0x20\n      add\n      swap1\n      dup2\n      mstore\n      0x20\n      add\n      0x00\n      keccak256\n        /* \"NFT-Contracts/contracts/market_pri/market_place.sol\":2022:2083  nftContractFixedSale[_nftContractAddress][_tokenId].nftSeller */\n      0x00\n      add\n      0x00\n      swap1\n      sload\n      swap1\n      0x0100\n      exp\n      swap1\n      div\n      0xffffffffffffffffffffffffffffffffffffffff\n      and\n        /* \"NFT-Contracts/contracts/market_pri/market_place.sol\":1991:2083  msg.sender ==... */\n      0xffffffffffffffffffffffffffffffffffffffff\n      and\n        /* \"NFT-Contracts/contracts/market_pri/market_place.sol\":1991:2001  msg.sender */\n      caller\n        /* \"NFT-Contracts/contracts/market_pri/market_place.sol\":1991:2083  msg.sender ==... */\n      0xffffffffffffffffffffffffffffffffffffffff\n      and\n      eq\n        /* \"NFT-Contracts/contracts/market_pri/market_place.sol\":1969:2132  require(... */\n      tag_48\n      jumpi\n      mload(0x40)\n      0x08c379a000000000000000000000000000000000000000000000000000000000\n      dup2\n      mstore\n      0x04\n      add\n      tag_49\n      swap1\n      tag_50\n      jump\t// in\n    tag_49:\n      mload(0x40)\n      dup1\n      swap2\n      sub\n      swap1\n      revert\n    tag_48:\n        /* \"NFT-Contracts/contracts/market_pri/market_place.sol\":4755:4771  _updateSalePrice */\n      dup5\n        /* \"NFT-Contracts/contracts/market_pri/market_place.sol\":2877:2878  0 */\n      0x00\n        /* \"NFT-Contracts/contracts/market_pri/market_place.sol\":2868:2874  _price */\n      dup2\n        /* \"NFT-Contracts/contracts/market_pri/market_place.sol\":2868:2878  _price > 0 */\n      gt\n        /* \"NFT-Contracts/contracts/market_pri/market_place.sol\":2860:2900  require(_price > 0, \"Price cannot be 0\") */\n      tag_52\n      jumpi\n      mload(0x40)\n      0x08c379a000000000000000000000000000000000000000000000000000000000\n      dup2\n      mstore\n      0x04\n      add\n      tag_53\n      swap1\n      tag_54\n      jump\t// in\n    tag_53:\n      mload(0x40)\n      dup1\n      swap2\n      sub\n      swap1\n      revert\n    tag_52:\n        /* \"NFT-Contracts/contracts/market_pri/market_place.sol\":4867:4883  _updateSalePrice */\n      dup6\n        /* \"NFT-Contracts/contracts/market_pri/market_place.sol\":4789:4809  nftContractFixedSale */\n      0x00\n        /* \"NFT-Contracts/contracts/market_pri/market_place.sol\":4789:4830  nftContractFixedSale[_nftContractAddress] */\n      dup1\n        /* \"NFT-Contracts/contracts/market_pri/market_place.sol\":4810:4829  _nftContractAddress */\n      dup11\n        /* \"NFT-Contracts/contracts/market_pri/market_place.sol\":4789:4830  nftContractFixedSale[_nftContractAddress] */\n      0xffffffffffffffffffffffffffffffffffffffff\n      and\n      0xffffffffffffffffffffffffffffffffffffffff\n      and\n      dup2\n      mstore\n      0x20\n      add\n      swap1\n      dup2\n      mstore\n      0x20\n      add\n      0x00\n      keccak256\n        /* \"NFT-Contracts/contracts/market_pri/market_place.sol\":4789:4840  nftContractFixedSale[_nftContractAddress][_tokenId] */\n      0x00\n        /* \"NFT-Contracts/contracts/market_pri/market_place.sol\":4831:4839  _tokenId */\n      dup10\n        /* \"NFT-Contracts/contracts/market_pri/market_place.sol\":4789:4840  nftContractFixedSale[_nftContractAddress][_tokenId] */\n      dup2\n      mstore\n      0x20\n      add\n      swap1\n      dup2\n      mstore\n      0x20\n      add\n      0x00\n      keccak256\n        /* \"NFT-Contracts/contracts/market_pri/market_place.sol\":4789:4864  nftContractFixedSale[_nftContractAddress][_tokenId]... */\n      0x03\n      add\n        /* \"NFT-Contracts/contracts/market_pri/market_place.sol\":4789:4883  nftContractFixedSale[_nftContractAddress][_tokenId]... */\n      dup2\n      swap1\n      sstore\n      pop\n        /* \"NFT-Contracts/contracts/market_pri/market_place.sol\":4901:5024  NftFixedSalePriceUpdated(... */\n      0x575a0876095ccf47276a37dce683308a625403d132d219f95205ce205b2e12bc\n        /* \"NFT-Contracts/contracts/market_pri/market_place.sol\":4940:4959  _nftContractAddress */\n      dup9\n        /* \"NFT-Contracts/contracts/market_pri/market_place.sol\":4974:4982  _tokenId */\n      dup9\n        /* \"NFT-Contracts/contracts/market_pri/market_place.sol\":4997:5013  _updateSalePrice */\n      dup9\n        /* \"NFT-Contracts/contracts/market_pri/market_place.sol\":4901:5024  NftFixedSalePriceUpdated(... */\n      mload(0x40)\n      tag_56\n      swap4\n      swap3\n      swap2\n      swap1\n      tag_57\n      jump\t// in\n    tag_56:\n      mload(0x40)\n      dup1\n      swap2\n      sub\n      swap1\n      log1\n        /* \"NFT-Contracts/contracts/market_pri/market_place.sol\":2143:2144  _ */\n      pop\n        /* \"NFT-Contracts/contracts/market_pri/market_place.sol\":1621:1622  _ */\n      pop\n      pop\n        /* \"NFT-Contracts/contracts/market_pri/market_place.sol\":4454:5032  function updateFixedSalePrice(... */\n      pop\n      pop\n      pop\n      pop\n      pop\n      jump\t// out\n        /* \"NFT-Contracts/contracts/market_pri/market_place.sol\":456:524  mapping(address => mapping(uint256 => uint256)) public nftSaleStatus */\n    tag_27:\n      mstore(0x20, 0x01)\n      dup2\n      0x00\n      mstore\n      mstore(0x20, keccak256(0x00, 0x40))\n      dup1\n      0x00\n      mstore\n      keccak256(0x00, 0x40)\n      0x00\n      swap2\n      pop\n      swap2\n      pop\n      pop\n      sload\n      dup2\n      jump\t// out\n        /* \"NFT-Contracts/contracts/market_pri/market_place.sol\":2953:3936  function nftFixedSale(... */\n    tag_34:\n        /* \"NFT-Contracts/contracts/market_pri/market_place.sol\":3147:3166  _nftContractAddress */\n      dup4\n        /* \"NFT-Contracts/contracts/market_pri/market_place.sol\":3168:3176  _tokenId */\n      dup3\n        /* \"NFT-Contracts/contracts/market_pri/market_place.sol\":1768:1787  _nftContractAddress */\n      dup2\n        /* \"NFT-Contracts/contracts/market_pri/market_place.sol\":1760:1796  IERC721(_nftContractAddress).ownerOf */\n      0xffffffffffffffffffffffffffffffffffffffff\n      and\n      0x6352211e\n        /* \"NFT-Contracts/contracts/market_pri/market_place.sol\":1797:1805  _tokenId */\n      dup3\n        /* \"NFT-Contracts/contracts/market_pri/market_place.sol\":1760:1806  IERC721(_nftContractAddress).ownerOf(_tokenId) */\n      mload(0x40)\n      dup3\n      0xffffffff\n      and\n      0xe0\n      shl\n      dup2\n      mstore\n      0x04\n      add\n      tag_59\n      swap2\n      swap1\n      tag_29\n      jump\t// in\n    tag_59:\n      0x20\n      mload(0x40)\n      dup1\n      dup4\n      sub\n      dup2\n      dup7\n      gas\n      staticcall\n      iszero\n      dup1\n      iszero\n      tag_61\n      jumpi\n      returndatasize\n      0x00\n      dup1\n      returndatacopy\n      revert(0x00, returndatasize)\n    tag_61:\n      pop\n      pop\n      pop\n      pop\n      mload(0x40)\n      returndatasize\n      not(0x1f)\n      0x1f\n      dup3\n      add\n      and\n      dup3\n      add\n      dup1\n      0x40\n      mstore\n      pop\n      dup2\n      add\n      swap1\n      tag_62\n      swap2\n      swap1\n      tag_63\n      jump\t// in\n    tag_62:\n        /* \"NFT-Contracts/contracts/market_pri/market_place.sol\":1746:1806  msg.sender == IERC721(_nftContractAddress).ownerOf(_tokenId) */\n      0xffffffffffffffffffffffffffffffffffffffff\n      and\n        /* \"NFT-Contracts/contracts/market_pri/market_place.sol\":1746:1756  msg.sender */\n      caller\n        /* \"NFT-Contracts/contracts/market_pri/market_place.sol\":1746:1806  msg.sender == IERC721(_nftContractAddress).ownerOf(_tokenId) */\n      0xffffffffffffffffffffffffffffffffffffffff\n      and\n      eq\n        /* \"NFT-Contracts/contracts/market_pri/market_place.sol\":1724:1855  require(... */\n      tag_64\n      jumpi\n      mload(0x40)\n      0x08c379a000000000000000000000000000000000000000000000000000000000\n      dup2\n      mstore\n      0x04\n      add\n      tag_65\n      swap1\n      tag_50\n      jump\t// in\n    tag_65:\n      mload(0x40)\n      dup1\n      swap2\n      sub\n      swap1\n      revert\n    tag_64:\n        /* \"NFT-Contracts/contracts/market_pri/market_place.sol\":3206:3225  _nftContractAddress */\n      dup6\n        /* \"NFT-Contracts/contracts/market_pri/market_place.sol\":3227:3235  _tokenId */\n      dup5\n        /* \"NFT-Contracts/contracts/market_pri/market_place.sol\":1330:1331  0 */\n      0x00\n        /* \"NFT-Contracts/contracts/market_pri/market_place.sol\":1282:1295  nftSaleStatus */\n      0x01\n        /* \"NFT-Contracts/contracts/market_pri/market_place.sol\":1282:1316  nftSaleStatus[_nftContractAddress] */\n      0x00\n        /* \"NFT-Contracts/contracts/market_pri/market_place.sol\":1296:1315  _nftContractAddress */\n      dup5\n        /* \"NFT-Contracts/contracts/market_pri/market_place.sol\":1282:1316  nftSaleStatus[_nftContractAddress] */\n      0xffffffffffffffffffffffffffffffffffffffff\n      and\n      0xffffffffffffffffffffffffffffffffffffffff\n      and\n      dup2\n      mstore\n      0x20\n      add\n      swap1\n      dup2\n      mstore\n      0x20\n      add\n      0x00\n      keccak256\n        /* \"NFT-Contracts/contracts/market_pri/market_place.sol\":1282:1326  nftSaleStatus[_nftContractAddress][_tokenId] */\n      0x00\n        /* \"NFT-Contracts/contracts/market_pri/market_place.sol\":1317:1325  _tokenId */\n      dup4\n        /* \"NFT-Contracts/contracts/market_pri/market_place.sol\":1282:1326  nftSaleStatus[_nftContractAddress][_tokenId] */\n      dup2\n      mstore\n      0x20\n      add\n      swap1\n      dup2\n      mstore\n      0x20\n      add\n      0x00\n      keccak256\n      sload\n        /* \"NFT-Contracts/contracts/market_pri/market_place.sol\":1282:1331  nftSaleStatus[_nftContractAddress][_tokenId] == 0 */\n      eq\n        /* \"NFT-Contracts/contracts/market_pri/market_place.sol\":1260:1378  require(... */\n      tag_67\n      jumpi\n      mload(0x40)\n      0x08c379a000000000000000000000000000000000000000000000000000000000\n      dup2\n      mstore\n      0x04\n      add\n      tag_68\n      swap1\n      tag_69\n      jump\t// in\n    tag_68:\n      mload(0x40)\n      dup1\n      swap2\n      sub\n      swap1\n      revert\n    tag_67:\n        /* \"NFT-Contracts/contracts/market_pri/market_place.sol\":3264:3283  _nftContractAddress */\n      dup8\n        /* \"NFT-Contracts/contracts/market_pri/market_place.sol\":3285:3293  _tokenId */\n      dup7\n        /* \"NFT-Contracts/contracts/market_pri/market_place.sol\":2275:2294  _nftContractAddress */\n      dup2\n        /* \"NFT-Contracts/contracts/market_pri/market_place.sol\":2267:2312  IERC721(_nftContractAddress).isApprovedForAll */\n      0xffffffffffffffffffffffffffffffffffffffff\n      and\n      0xe985e9c5\n        /* \"NFT-Contracts/contracts/market_pri/market_place.sol\":2331:2341  msg.sender */\n      caller\n        /* \"NFT-Contracts/contracts/market_pri/market_place.sol\":2368:2372  this */\n      address\n        /* \"NFT-Contracts/contracts/market_pri/market_place.sol\":2267:2388  IERC721(_nftContractAddress).isApprovedForAll(... */\n      mload(0x40)\n      dup4\n      0xffffffff\n      and\n      0xe0\n      shl\n      dup2\n      mstore\n      0x04\n      add\n      tag_71\n      swap3\n      swap2\n      swap1\n      tag_72\n      jump\t// in\n    tag_71:\n      0x20\n      mload(0x40)\n      dup1\n      dup4\n      sub\n      dup2\n      dup7\n      gas\n      staticcall\n      iszero\n      dup1\n      iszero\n      tag_74\n      jumpi\n      returndatasize\n      0x00\n      dup1\n      returndatacopy\n      revert(0x00, returndatasize)\n    tag_74:\n      pop\n      pop\n      pop\n      pop\n      mload(0x40)\n      returndatasize\n      not(0x1f)\n      0x1f\n      dup3\n      add\n      and\n      dup3\n      add\n      dup1\n      0x40\n      mstore\n      pop\n      dup2\n      add\n      swap1\n      tag_75\n      swap2\n      swap1\n      tag_76\n      jump\t// in\n    tag_75:\n        /* \"NFT-Contracts/contracts/market_pri/market_place.sol\":2245:2444  require(... */\n      tag_77\n      jumpi\n      mload(0x40)\n      0x08c379a000000000000000000000000000000000000000000000000000000000\n      dup2\n      mstore\n      0x04\n      add\n      tag_78\n      swap1\n      tag_79\n      jump\t// in\n    tag_78:\n      mload(0x40)\n      dup1\n      swap2\n      sub\n      swap1\n      revert\n    tag_77:\n        /* \"NFT-Contracts/contracts/market_pri/market_place.sol\":3325:3335  _salePrice */\n      dup7\n        /* \"NFT-Contracts/contracts/market_pri/market_place.sol\":2877:2878  0 */\n      0x00\n        /* \"NFT-Contracts/contracts/market_pri/market_place.sol\":2868:2874  _price */\n      dup2\n        /* \"NFT-Contracts/contracts/market_pri/market_place.sol\":2868:2878  _price > 0 */\n      gt\n        /* \"NFT-Contracts/contracts/market_pri/market_place.sol\":2860:2900  require(_price > 0, \"Price cannot be 0\") */\n      tag_81\n      jumpi\n      mload(0x40)\n      0x08c379a000000000000000000000000000000000000000000000000000000000\n      dup2\n      mstore\n      0x04\n      add\n      tag_82\n      swap1\n      tag_54\n      jump\t// in\n    tag_82:\n      mload(0x40)\n      dup1\n      swap2\n      sub\n      swap1\n      revert\n    tag_81:\n        /* \"NFT-Contracts/contracts/market_pri/market_place.sol\":3407:3523  FixedSale(... */\n      mload(0x40)\n      dup1\n      0x80\n      add\n      0x40\n      mstore\n      dup1\n        /* \"NFT-Contracts/contracts/market_pri/market_place.sol\":3431:3441  msg.sender */\n      caller\n        /* \"NFT-Contracts/contracts/market_pri/market_place.sol\":3407:3523  FixedSale(... */\n      0xffffffffffffffffffffffffffffffffffffffff\n      and\n      dup2\n      mstore\n      0x20\n      add\n        /* \"NFT-Contracts/contracts/market_pri/market_place.sol\":3464:3465  0 */\n      0x00\n        /* \"NFT-Contracts/contracts/market_pri/market_place.sol\":3407:3523  FixedSale(... */\n      0xffffffffffffffffffffffffffffffffffffffff\n      and\n      dup2\n      mstore\n      0x20\n      add\n        /* \"NFT-Contracts/contracts/market_pri/market_place.sol\":3481:3487  _erc20 */\n      dup12\n        /* \"NFT-Contracts/contracts/market_pri/market_place.sol\":3407:3523  FixedSale(... */\n      0xffffffffffffffffffffffffffffffffffffffff\n      and\n      dup2\n      mstore\n      0x20\n      add\n        /* \"NFT-Contracts/contracts/market_pri/market_place.sol\":3502:3512  _salePrice */\n      dup10\n        /* \"NFT-Contracts/contracts/market_pri/market_place.sol\":3407:3523  FixedSale(... */\n      dup2\n      mstore\n      pop\n        /* \"NFT-Contracts/contracts/market_pri/market_place.sol\":3353:3373  nftContractFixedSale */\n      0x00\n        /* \"NFT-Contracts/contracts/market_pri/market_place.sol\":3353:3394  nftContractFixedSale[_nftContractAddress] */\n      dup1\n        /* \"NFT-Contracts/contracts/market_pri/market_place.sol\":3374:3393  _nftContractAddress */\n      dup14\n        /* \"NFT-Contracts/contracts/market_pri/market_place.sol\":3353:3394  nftContractFixedSale[_nftContractAddress] */\n      0xffffffffffffffffffffffffffffffffffffffff\n      and\n      0xffffffffffffffffffffffffffffffffffffffff\n      and\n      dup2\n      mstore\n      0x20\n      add\n      swap1\n      dup2\n      mstore\n      0x20\n      add\n      0x00\n      keccak256\n        /* \"NFT-Contracts/contracts/market_pri/market_place.sol\":3353:3404  nftContractFixedSale[_nftContractAddress][_tokenId] */\n      0x00\n        /* \"NFT-Contracts/contracts/market_pri/market_place.sol\":3395:3403  _tokenId */\n      dup12\n        /* \"NFT-Contracts/contracts/market_pri/market_place.sol\":3353:3404  nftContractFixedSale[_nftContractAddress][_tokenId] */\n      dup2\n      mstore\n      0x20\n      add\n      swap1\n      dup2\n      mstore\n      0x20\n      add\n      0x00\n      keccak256\n        /* \"NFT-Contracts/contracts/market_pri/market_place.sol\":3353:3523  nftContractFixedSale[_nftContractAddress][_tokenId] = FixedSale(... */\n      0x00\n      dup3\n      add\n      mload\n      dup2\n      0x00\n      add\n      exp(0x0100, 0x00)\n      dup2\n      sload\n      dup2\n      0xffffffffffffffffffffffffffffffffffffffff\n      mul\n      not\n      and\n      swap1\n      dup4\n      0xffffffffffffffffffffffffffffffffffffffff\n      and\n      mul\n      or\n      swap1\n      sstore\n      pop\n      0x20\n      dup3\n      add\n      mload\n      dup2\n      0x01\n      add\n      exp(0x0100, 0x00)\n      dup2\n      sload\n      dup2\n      0xffffffffffffffffffffffffffffffffffffffff\n      mul\n      not\n      and\n      swap1\n      dup4\n      0xffffffffffffffffffffffffffffffffffffffff\n      and\n      mul\n      or\n      swap1\n      sstore\n      pop\n      0x40\n      dup3\n      add\n      mload\n      dup2\n      0x02\n      add\n      exp(0x0100, 0x00)\n      dup2\n      sload\n      dup2\n      0xffffffffffffffffffffffffffffffffffffffff\n      mul\n      not\n      and\n      swap1\n      dup4\n      0xffffffffffffffffffffffffffffffffffffffff\n      and\n      mul\n      or\n      swap1\n      sstore\n      pop\n      0x60\n      dup3\n      add\n      mload\n      dup2\n      0x03\n      add\n      sstore\n      swap1\n      pop\n      pop\n        /* \"NFT-Contracts/contracts/market_pri/market_place.sol\":3583:3584  1 */\n      0x01\n        /* \"NFT-Contracts/contracts/market_pri/market_place.sol\":3536:3549  nftSaleStatus */\n      dup1\n        /* \"NFT-Contracts/contracts/market_pri/market_place.sol\":3536:3570  nftSaleStatus[_nftContractAddress] */\n      0x00\n        /* \"NFT-Contracts/contracts/market_pri/market_place.sol\":3550:3569  _nftContractAddress */\n      dup14\n        /* \"NFT-Contracts/contracts/market_pri/market_place.sol\":3536:3570  nftSaleStatus[_nftContractAddress] */\n      0xffffffffffffffffffffffffffffffffffffffff\n      and\n      0xffffffffffffffffffffffffffffffffffffffff\n      and\n      dup2\n      mstore\n      0x20\n      add\n      swap1\n      dup2\n      mstore\n      0x20\n      add\n      0x00\n      keccak256\n        /* \"NFT-Contracts/contracts/market_pri/market_place.sol\":3536:3580  nftSaleStatus[_nftContractAddress][_tokenId] */\n      0x00\n        /* \"NFT-Contracts/contracts/market_pri/market_place.sol\":3571:3579  _tokenId */\n      dup12\n        /* \"NFT-Contracts/contracts/market_pri/market_place.sol\":3536:3580  nftSaleStatus[_nftContractAddress][_tokenId] */\n      dup2\n      mstore\n      0x20\n      add\n      swap1\n      dup2\n      mstore\n      0x20\n      add\n      0x00\n      keccak256\n        /* \"NFT-Contracts/contracts/market_pri/market_place.sol\":3536:3584  nftSaleStatus[_nftContractAddress][_tokenId] = 1 */\n      dup2\n      swap1\n      sstore\n      pop\n        /* \"NFT-Contracts/contracts/market_pri/market_place.sol\":3605:3624  _nftContractAddress */\n      dup11\n        /* \"NFT-Contracts/contracts/market_pri/market_place.sol\":3597:3642  IERC721(_nftContractAddress).safeTransferFrom */\n      0xffffffffffffffffffffffffffffffffffffffff\n      and\n      0x42842e0e\n        /* \"NFT-Contracts/contracts/market_pri/market_place.sol\":3657:3667  msg.sender */\n      caller\n        /* \"NFT-Contracts/contracts/market_pri/market_place.sol\":3690:3694  this */\n      address\n        /* \"NFT-Contracts/contracts/market_pri/market_place.sol\":3710:3718  _tokenId */\n      dup13\n        /* \"NFT-Contracts/contracts/market_pri/market_place.sol\":3597:3729  IERC721(_nftContractAddress).safeTransferFrom(... */\n      mload(0x40)\n      dup5\n      0xffffffff\n      and\n      0xe0\n      shl\n      dup2\n      mstore\n      0x04\n      add\n      tag_84\n      swap4\n      swap3\n      swap2\n      swap1\n      tag_85\n      jump\t// in\n    tag_84:\n      0x00\n      mload(0x40)\n      dup1\n      dup4\n      sub\n      dup2\n      0x00\n      dup8\n      dup1\n      extcodesize\n      iszero\n      dup1\n      iszero\n      tag_86\n      jumpi\n      0x00\n      dup1\n      revert\n    tag_86:\n      pop\n      gas\n      call\n      iszero\n      dup1\n      iszero\n      tag_88\n      jumpi\n      returndatasize\n      0x00\n      dup1\n      returndatacopy\n      revert(0x00, returndatasize)\n    tag_88:\n      pop\n      pop\n      pop\n      pop\n        /* \"NFT-Contracts/contracts/market_pri/market_place.sol\":3747:3928  NftFixedSale(... */\n      0x078eead3cd01ed921c7653d000a6b73aea643a7b9c066fb7d93eb2eae8acc2d9\n        /* \"NFT-Contracts/contracts/market_pri/market_place.sol\":3774:3793  _nftContractAddress */\n      dup12\n        /* \"NFT-Contracts/contracts/market_pri/market_place.sol\":3808:3818  msg.sender */\n      caller\n        /* \"NFT-Contracts/contracts/market_pri/market_place.sol\":3833:3839  _erc20 */\n      dup13\n        /* \"NFT-Contracts/contracts/market_pri/market_place.sol\":3854:3862  _tokenId */\n      dup13\n        /* \"NFT-Contracts/contracts/market_pri/market_place.sol\":3877:3887  _salePrice */\n      dup13\n        /* \"NFT-Contracts/contracts/market_pri/market_place.sol\":3902:3917  block.timestamp */\n      timestamp\n        /* \"NFT-Contracts/contracts/market_pri/market_place.sol\":3747:3928  NftFixedSale(... */\n      mload(0x40)\n      tag_89\n      swap7\n      swap6\n      swap5\n      swap4\n      swap3\n      swap2\n      swap1\n      tag_90\n      jump\t// in\n    tag_89:\n      mload(0x40)\n      dup1\n      swap2\n      sub\n      swap1\n      log1\n        /* \"NFT-Contracts/contracts/market_pri/market_place.sol\":2455:2456  _ */\n      pop\n        /* \"NFT-Contracts/contracts/market_pri/market_place.sol\":1389:1390  _ */\n      pop\n      pop\n        /* \"NFT-Contracts/contracts/market_pri/market_place.sol\":1866:1867  _ */\n      pop\n      pop\n        /* \"NFT-Contracts/contracts/market_pri/market_place.sol\":2953:3936  function nftFixedSale(... */\n      pop\n      pop\n      pop\n      pop\n      pop\n      pop\n      jump\t// out\n        /* \"NFT-Contracts/contracts/market_pri/market_place.sol\":5040:6097  function buyFromFixedSale(... */\n    tag_37:\n        /* \"NFT-Contracts/contracts/market_pri/market_place.sol\":5225:5244  _nftContractAddress */\n      dup3\n        /* \"NFT-Contracts/contracts/market_pri/market_place.sol\":5246:5254  _tokenId */\n      dup3\n        /* \"NFT-Contracts/contracts/market_pri/market_place.sol\":1560:1561  1 */\n      0x01\n        /* \"NFT-Contracts/contracts/market_pri/market_place.sol\":1512:1525  nftSaleStatus */\n      dup1\n        /* \"NFT-Contracts/contracts/market_pri/market_place.sol\":1512:1546  nftSaleStatus[_nftContractAddress] */\n      0x00\n        /* \"NFT-Contracts/contracts/market_pri/market_place.sol\":1526:1545  _nftContractAddress */\n      dup5\n        /* \"NFT-Contracts/contracts/market_pri/market_place.sol\":1512:1546  nftSaleStatus[_nftContractAddress] */\n      0xffffffffffffffffffffffffffffffffffffffff\n      and\n      0xffffffffffffffffffffffffffffffffffffffff\n      and\n      dup2\n      mstore\n      0x20\n      add\n      swap1\n      dup2\n      mstore\n      0x20\n      add\n      0x00\n      keccak256\n        /* \"NFT-Contracts/contracts/market_pri/market_place.sol\":1512:1556  nftSaleStatus[_nftContractAddress][_tokenId] */\n      0x00\n        /* \"NFT-Contracts/contracts/market_pri/market_place.sol\":1547:1555  _tokenId */\n      dup4\n        /* \"NFT-Contracts/contracts/market_pri/market_place.sol\":1512:1556  nftSaleStatus[_nftContractAddress][_tokenId] */\n      dup2\n      mstore\n      0x20\n      add\n      swap1\n      dup2\n      mstore\n      0x20\n      add\n      0x00\n      keccak256\n      sload\n        /* \"NFT-Contracts/contracts/market_pri/market_place.sol\":1512:1561  nftSaleStatus[_nftContractAddress][_tokenId] == 1 */\n      eq\n        /* \"NFT-Contracts/contracts/market_pri/market_place.sol\":1490:1610  require(... */\n      tag_92\n      jumpi\n      mload(0x40)\n      0x08c379a000000000000000000000000000000000000000000000000000000000\n      dup2\n      mstore\n      0x04\n      add\n      tag_93\n      swap1\n      tag_46\n      jump\t// in\n    tag_93:\n      mload(0x40)\n      dup1\n      swap2\n      sub\n      swap1\n      revert\n    tag_92:\n        /* \"NFT-Contracts/contracts/market_pri/market_place.sol\":5286:5293  _amount */\n      dup3\n        /* \"NFT-Contracts/contracts/market_pri/market_place.sol\":2877:2878  0 */\n      0x00\n        /* \"NFT-Contracts/contracts/market_pri/market_place.sol\":2868:2874  _price */\n      dup2\n        /* \"NFT-Contracts/contracts/market_pri/market_place.sol\":2868:2878  _price > 0 */\n      gt\n        /* \"NFT-Contracts/contracts/market_pri/market_place.sol\":2860:2900  require(_price > 0, \"Price cannot be 0\") */\n      tag_95\n      jumpi\n      mload(0x40)\n      0x08c379a000000000000000000000000000000000000000000000000000000000\n      dup2\n      mstore\n      0x04\n      add\n      tag_96\n      swap1\n      tag_54\n      jump\t// in\n    tag_96:\n      mload(0x40)\n      dup1\n      swap2\n      sub\n      swap1\n      revert\n    tag_95:\n        /* \"NFT-Contracts/contracts/market_pri/market_place.sol\":5326:5345  _nftContractAddress */\n      dup6\n        /* \"NFT-Contracts/contracts/market_pri/market_place.sol\":5347:5355  _tokenId */\n      dup6\n        /* \"NFT-Contracts/contracts/market_pri/market_place.sol\":5357:5364  _amount */\n      dup6\n        /* \"NFT-Contracts/contracts/market_pri/market_place.sol\":2666:2686  nftContractFixedSale */\n      0x00\n        /* \"NFT-Contracts/contracts/market_pri/market_place.sol\":2666:2707  nftContractFixedSale[_nftContractAddress] */\n      dup1\n        /* \"NFT-Contracts/contracts/market_pri/market_place.sol\":2687:2706  _nftContractAddress */\n      dup5\n        /* \"NFT-Contracts/contracts/market_pri/market_place.sol\":2666:2707  nftContractFixedSale[_nftContractAddress] */\n      0xffffffffffffffffffffffffffffffffffffffff\n      and\n      0xffffffffffffffffffffffffffffffffffffffff\n      and\n      dup2\n      mstore\n      0x20\n      add\n      swap1\n      dup2\n      mstore\n      0x20\n      add\n      0x00\n      keccak256\n        /* \"NFT-Contracts/contracts/market_pri/market_place.sol\":2666:2717  nftContractFixedSale[_nftContractAddress][_tokenId] */\n      0x00\n        /* \"NFT-Contracts/contracts/market_pri/market_place.sol\":2708:2716  _tokenId */\n      dup4\n        /* \"NFT-Contracts/contracts/market_pri/market_place.sol\":2666:2717  nftContractFixedSale[_nftContractAddress][_tokenId] */\n      dup2\n      mstore\n      0x20\n      add\n      swap1\n      dup2\n      mstore\n      0x20\n      add\n      0x00\n      keccak256\n        /* \"NFT-Contracts/contracts/market_pri/market_place.sol\":2666:2727  nftContractFixedSale[_nftContractAddress][_tokenId].salePrice */\n      0x03\n      add\n      sload\n        /* \"NFT-Contracts/contracts/market_pri/market_place.sol\":2636:2645  _buyPrice */\n      dup2\n        /* \"NFT-Contracts/contracts/market_pri/market_place.sol\":2636:2727  _buyPrice >=... */\n      lt\n      iszero\n        /* \"NFT-Contracts/contracts/market_pri/market_place.sol\":2614:2775  require(... */\n      tag_98\n      jumpi\n      mload(0x40)\n      0x08c379a000000000000000000000000000000000000000000000000000000000\n      dup2\n      mstore\n      0x04\n      add\n      tag_99\n      swap1\n      tag_100\n      jump\t// in\n    tag_99:\n      mload(0x40)\n      dup1\n      swap2\n      sub\n      swap1\n      revert\n    tag_98:\n        /* \"NFT-Contracts/contracts/market_pri/market_place.sol\":5390:5409  _nftContractAddress */\n      dup9\n        /* \"NFT-Contracts/contracts/market_pri/market_place.sol\":5382:5427  IERC721(_nftContractAddress).safeTransferFrom */\n      0xffffffffffffffffffffffffffffffffffffffff\n      and\n      0x42842e0e\n        /* \"NFT-Contracts/contracts/market_pri/market_place.sol\":5450:5454  this */\n      address\n        /* \"NFT-Contracts/contracts/market_pri/market_place.sol\":5470:5480  msg.sender */\n      caller\n        /* \"NFT-Contracts/contracts/market_pri/market_place.sol\":5495:5503  _tokenId */\n      dup12\n        /* \"NFT-Contracts/contracts/market_pri/market_place.sol\":5382:5514  IERC721(_nftContractAddress).safeTransferFrom(... */\n      mload(0x40)\n      dup5\n      0xffffffff\n      and\n      0xe0\n      shl\n      dup2\n      mstore\n      0x04\n      add\n      tag_102\n      swap4\n      swap3\n      swap2\n      swap1\n      tag_85\n      jump\t// in\n    tag_102:\n      0x00\n      mload(0x40)\n      dup1\n      dup4\n      sub\n      dup2\n      0x00\n      dup8\n      dup1\n      extcodesize\n      iszero\n      dup1\n      iszero\n      tag_103\n      jumpi\n      0x00\n      dup1\n      revert\n    tag_103:\n      pop\n      gas\n      call\n      iszero\n      dup1\n      iszero\n      tag_105\n      jumpi\n      returndatasize\n      0x00\n      dup1\n      returndatacopy\n      revert(0x00, returndatasize)\n    tag_105:\n      pop\n      pop\n      pop\n      pop\n        /* \"NFT-Contracts/contracts/market_pri/market_place.sol\":5574:5575  0 */\n      0x00\n        /* \"NFT-Contracts/contracts/market_pri/market_place.sol\":5527:5540  nftSaleStatus */\n      0x01\n        /* \"NFT-Contracts/contracts/market_pri/market_place.sol\":5527:5561  nftSaleStatus[_nftContractAddress] */\n      0x00\n        /* \"NFT-Contracts/contracts/market_pri/market_place.sol\":5541:5560  _nftContractAddress */\n      dup12\n        /* \"NFT-Contracts/contracts/market_pri/market_place.sol\":5527:5561  nftSaleStatus[_nftContractAddress] */\n      0xffffffffffffffffffffffffffffffffffffffff\n      and\n      0xffffffffffffffffffffffffffffffffffffffff\n      and\n      dup2\n      mstore\n      0x20\n      add\n      swap1\n      dup2\n      mstore\n      0x20\n      add\n      0x00\n      keccak256\n        /* \"NFT-Contracts/contracts/market_pri/market_place.sol\":5527:5571  nftSaleStatus[_nftContractAddress][_tokenId] */\n      0x00\n        /* \"NFT-Contracts/contracts/market_pri/market_place.sol\":5562:5570  _tokenId */\n      dup11\n        /* \"NFT-Contracts/contracts/market_pri/market_place.sol\":5527:5571  nftSaleStatus[_nftContractAddress][_tokenId] */\n      dup2\n      mstore\n      0x20\n      add\n      swap1\n      dup2\n      mstore\n      0x20\n      add\n      0x00\n      keccak256\n        /* \"NFT-Contracts/contracts/market_pri/market_place.sol\":5527:5575  nftSaleStatus[_nftContractAddress][_tokenId] = 0 */\n      dup2\n      swap1\n      sstore\n      pop\n        /* \"NFT-Contracts/contracts/market_pri/market_place.sol\":5651:5675  msg... */\n      caller\n        /* \"NFT-Contracts/contracts/market_pri/market_place.sol\":5588:5608  nftContractFixedSale */\n      0x00\n        /* \"NFT-Contracts/contracts/market_pri/market_place.sol\":5588:5629  nftContractFixedSale[_nftContractAddress] */\n      dup1\n        /* \"NFT-Contracts/contracts/market_pri/market_place.sol\":5609:5628  _nftContractAddress */\n      dup12\n        /* \"NFT-Contracts/contracts/market_pri/market_place.sol\":5588:5629  nftContractFixedSale[_nftContractAddress] */\n      0xffffffffffffffffffffffffffffffffffffffff\n      and\n      0xffffffffffffffffffffffffffffffffffffffff\n      and\n      dup2\n      mstore\n      0x20\n      add\n      swap1\n      dup2\n      mstore\n      0x20\n      add\n      0x00\n      keccak256\n        /* \"NFT-Contracts/contracts/market_pri/market_place.sol\":5588:5639  nftContractFixedSale[_nftContractAddress][_tokenId] */\n      0x00\n        /* \"NFT-Contracts/contracts/market_pri/market_place.sol\":5630:5638  _tokenId */\n      dup11\n        /* \"NFT-Contracts/contracts/market_pri/market_place.sol\":5588:5639  nftContractFixedSale[_nftContractAddress][_tokenId] */\n      dup2\n      mstore\n      0x20\n      add\n      swap1\n      dup2\n      mstore\n      0x20\n      add\n      0x00\n      keccak256\n        /* \"NFT-Contracts/contracts/market_pri/market_place.sol\":5588:5648  nftContractFixedSale[_nftContractAddress][_tokenId].nftBuyer */\n      0x01\n      add\n      0x00\n        /* \"NFT-Contracts/contracts/market_pri/market_place.sol\":5588:5675  nftContractFixedSale[_nftContractAddress][_tokenId].nftBuyer = msg... */\n      0x0100\n      exp\n      dup2\n      sload\n      dup2\n      0xffffffffffffffffffffffffffffffffffffffff\n      mul\n      not\n      and\n      swap1\n      dup4\n      0xffffffffffffffffffffffffffffffffffffffff\n      and\n      mul\n      or\n      swap1\n      sstore\n      pop\n        /* \"NFT-Contracts/contracts/market_pri/market_place.sol\":5688:5937  _isTokenOrCoin(... */\n      tag_106\n        /* \"NFT-Contracts/contracts/market_pri/market_place.sol\":5717:5737  nftContractFixedSale */\n      0x00\n        /* \"NFT-Contracts/contracts/market_pri/market_place.sol\":5717:5758  nftContractFixedSale[_nftContractAddress] */\n      dup1\n        /* \"NFT-Contracts/contracts/market_pri/market_place.sol\":5738:5757  _nftContractAddress */\n      dup12\n        /* \"NFT-Contracts/contracts/market_pri/market_place.sol\":5717:5758  nftContractFixedSale[_nftContractAddress] */\n      0xffffffffffffffffffffffffffffffffffffffff\n      and\n      0xffffffffffffffffffffffffffffffffffffffff\n      and\n      dup2\n      mstore\n      0x20\n      add\n      swap1\n      dup2\n      mstore\n      0x20\n      add\n      0x00\n      keccak256\n        /* \"NFT-Contracts/contracts/market_pri/market_place.sol\":5717:5768  nftContractFixedSale[_nftContractAddress][_tokenId] */\n      0x00\n        /* \"NFT-Contracts/contracts/market_pri/market_place.sol\":5759:5767  _tokenId */\n      dup11\n        /* \"NFT-Contracts/contracts/market_pri/market_place.sol\":5717:5768  nftContractFixedSale[_nftContractAddress][_tokenId] */\n      dup2\n      mstore\n      0x20\n      add\n      swap1\n      dup2\n      mstore\n      0x20\n      add\n      0x00\n      keccak256\n        /* \"NFT-Contracts/contracts/market_pri/market_place.sol\":5717:5778  nftContractFixedSale[_nftContractAddress][_tokenId].nftSeller */\n      0x00\n      add\n      0x00\n      swap1\n      sload\n      swap1\n      0x0100\n      exp\n      swap1\n      div\n      0xffffffffffffffffffffffffffffffffffffffff\n      and\n        /* \"NFT-Contracts/contracts/market_pri/market_place.sol\":5793:5813  nftContractFixedSale */\n      0x00\n        /* \"NFT-Contracts/contracts/market_pri/market_place.sol\":5793:5834  nftContractFixedSale[_nftContractAddress] */\n      dup1\n        /* \"NFT-Contracts/contracts/market_pri/market_place.sol\":5814:5833  _nftContractAddress */\n      dup13\n        /* \"NFT-Contracts/contracts/market_pri/market_place.sol\":5793:5834  nftContractFixedSale[_nftContractAddress] */\n      0xffffffffffffffffffffffffffffffffffffffff\n      and\n      0xffffffffffffffffffffffffffffffffffffffff\n      and\n      dup2\n      mstore\n      0x20\n      add\n      swap1\n      dup2\n      mstore\n      0x20\n      add\n      0x00\n      keccak256\n        /* \"NFT-Contracts/contracts/market_pri/market_place.sol\":5793:5844  nftContractFixedSale[_nftContractAddress][_tokenId] */\n      0x00\n        /* \"NFT-Contracts/contracts/market_pri/market_place.sol\":5835:5843  _tokenId */\n      dup12\n        /* \"NFT-Contracts/contracts/market_pri/market_place.sol\":5793:5844  nftContractFixedSale[_nftContractAddress][_tokenId] */\n      dup2\n      mstore\n      0x20\n      add\n      swap1\n      dup2\n      mstore\n      0x20\n      add\n      0x00\n      keccak256\n        /* \"NFT-Contracts/contracts/market_pri/market_place.sol\":5793:5850  nftContractFixedSale[_nftContractAddress][_tokenId].erc20 */\n      0x02\n      add\n      0x00\n      swap1\n      sload\n      swap1\n      0x0100\n      exp\n      swap1\n      div\n      0xffffffffffffffffffffffffffffffffffffffff\n      and\n        /* \"NFT-Contracts/contracts/market_pri/market_place.sol\":5865:5885  nftContractFixedSale */\n      0x00\n        /* \"NFT-Contracts/contracts/market_pri/market_place.sol\":5865:5906  nftContractFixedSale[_nftContractAddress] */\n      dup1\n        /* \"NFT-Contracts/contracts/market_pri/market_place.sol\":5886:5905  _nftContractAddress */\n      dup14\n        /* \"NFT-Contracts/contracts/market_pri/market_place.sol\":5865:5906  nftContractFixedSale[_nftContractAddress] */\n      0xffffffffffffffffffffffffffffffffffffffff\n      and\n      0xffffffffffffffffffffffffffffffffffffffff\n      and\n      dup2\n      mstore\n      0x20\n      add\n      swap1\n      dup2\n      mstore\n      0x20\n      add\n      0x00\n      keccak256\n        /* \"NFT-Contracts/contracts/market_pri/market_place.sol\":5865:5916  nftContractFixedSale[_nftContractAddress][_tokenId] */\n      0x00\n        /* \"NFT-Contracts/contracts/market_pri/market_place.sol\":5907:5915  _tokenId */\n      dup13\n        /* \"NFT-Contracts/contracts/market_pri/market_place.sol\":5865:5916  nftContractFixedSale[_nftContractAddress][_tokenId] */\n      dup2\n      mstore\n      0x20\n      add\n      swap1\n      dup2\n      mstore\n      0x20\n      add\n      0x00\n      keccak256\n        /* \"NFT-Contracts/contracts/market_pri/market_place.sol\":5865:5926  nftContractFixedSale[_nftContractAddress][_tokenId].salePrice */\n      0x03\n      add\n      sload\n        /* \"NFT-Contracts/contracts/market_pri/market_place.sol\":5688:5702  _isTokenOrCoin */\n      tag_107\n        /* \"NFT-Contracts/contracts/market_pri/market_place.sol\":5688:5937  _isTokenOrCoin(... */\n      jump\t// in\n    tag_106:\n        /* \"NFT-Contracts/contracts/market_pri/market_place.sol\":5955:6089  NftBuyFromFixedSale(... */\n      0x9fa3b1bb9266e05722b54a7a564d02a274bc80d39f4af21e6be405480996ceba\n        /* \"NFT-Contracts/contracts/market_pri/market_place.sol\":5989:6008  _nftContractAddress */\n      dup10\n        /* \"NFT-Contracts/contracts/market_pri/market_place.sol\":6023:6033  msg.sender */\n      caller\n        /* \"NFT-Contracts/contracts/market_pri/market_place.sol\":6048:6056  _tokenId */\n      dup11\n        /* \"NFT-Contracts/contracts/market_pri/market_place.sol\":6071:6078  _amount */\n      dup11\n        /* \"NFT-Contracts/contracts/market_pri/market_place.sol\":5955:6089  NftBuyFromFixedSale(... */\n      mload(0x40)\n      tag_108\n      swap5\n      swap4\n      swap3\n      swap2\n      swap1\n      tag_109\n      jump\t// in\n    tag_108:\n      mload(0x40)\n      dup1\n      swap2\n      sub\n      swap1\n      log1\n        /* \"NFT-Contracts/contracts/market_pri/market_place.sol\":2911:2912  _ */\n      pop\n      pop\n      pop\n        /* \"NFT-Contracts/contracts/market_pri/market_place.sol\":1621:1622  _ */\n      pop\n        /* \"NFT-Contracts/contracts/market_pri/market_place.sol\":5040:6097  function buyFromFixedSale(... */\n      pop\n      pop\n      pop\n      pop\n      pop\n      jump\t// out\n        /* \"NFT-Contracts/contracts/market_pri/market_place.sol\":3944:4446  function cancelFixedsale(address _nftContractAddress, uint256 _tokenId)... */\n    tag_41:\n        /* \"NFT-Contracts/contracts/market_pri/market_place.sol\":4060:4079  _nftContractAddress */\n      dup2\n        /* \"NFT-Contracts/contracts/market_pri/market_place.sol\":4081:4089  _tokenId */\n      dup2\n        /* \"NFT-Contracts/contracts/market_pri/market_place.sol\":1560:1561  1 */\n      0x01\n        /* \"NFT-Contracts/contracts/market_pri/market_place.sol\":1512:1525  nftSaleStatus */\n      dup1\n        /* \"NFT-Contracts/contracts/market_pri/market_place.sol\":1512:1546  nftSaleStatus[_nftContractAddress] */\n      0x00\n        /* \"NFT-Contracts/contracts/market_pri/market_place.sol\":1526:1545  _nftContractAddress */\n      dup5\n        /* \"NFT-Contracts/contracts/market_pri/market_place.sol\":1512:1546  nftSaleStatus[_nftContractAddress] */\n      0xffffffffffffffffffffffffffffffffffffffff\n      and\n      0xffffffffffffffffffffffffffffffffffffffff\n      and\n      dup2\n      mstore\n      0x20\n      add\n      swap1\n      dup2\n      mstore\n      0x20\n      add\n      0x00\n      keccak256\n        /* \"NFT-Contracts/contracts/market_pri/market_place.sol\":1512:1556  nftSaleStatus[_nftContractAddress][_tokenId] */\n      0x00\n        /* \"NFT-Contracts/contracts/market_pri/market_place.sol\":1547:1555  _tokenId */\n      dup4\n        /* \"NFT-Contracts/contracts/market_pri/market_place.sol\":1512:1556  nftSaleStatus[_nftContractAddress][_tokenId] */\n      dup2\n      mstore\n      0x20\n      add\n      swap1\n      dup2\n      mstore\n      0x20\n      add\n      0x00\n      keccak256\n      sload\n        /* \"NFT-Contracts/contracts/market_pri/market_place.sol\":1512:1561  nftSaleStatus[_nftContractAddress][_tokenId] == 1 */\n      eq\n        /* \"NFT-Contracts/contracts/market_pri/market_place.sol\":1490:1610  require(... */\n      tag_111\n      jumpi\n      mload(0x40)\n      0x08c379a000000000000000000000000000000000000000000000000000000000\n      dup2\n      mstore\n      0x04\n      add\n      tag_112\n      swap1\n      tag_46\n      jump\t// in\n    tag_112:\n      mload(0x40)\n      dup1\n      swap2\n      sub\n      swap1\n      revert\n    tag_111:\n        /* \"NFT-Contracts/contracts/market_pri/market_place.sol\":4119:4138  _nftContractAddress */\n      dup4\n        /* \"NFT-Contracts/contracts/market_pri/market_place.sol\":4140:4148  _tokenId */\n      dup4\n        /* \"NFT-Contracts/contracts/market_pri/market_place.sol\":2022:2042  nftContractFixedSale */\n      0x00\n        /* \"NFT-Contracts/contracts/market_pri/market_place.sol\":2022:2063  nftContractFixedSale[_nftContractAddress] */\n      dup1\n        /* \"NFT-Contracts/contracts/market_pri/market_place.sol\":2043:2062  _nftContractAddress */\n      dup4\n        /* \"NFT-Contracts/contracts/market_pri/market_place.sol\":2022:2063  nftContractFixedSale[_nftContractAddress] */\n      0xffffffffffffffffffffffffffffffffffffffff\n      and\n      0xffffffffffffffffffffffffffffffffffffffff\n      and\n      dup2\n      mstore\n      0x20\n      add\n      swap1\n      dup2\n      mstore\n      0x20\n      add\n      0x00\n      keccak256\n        /* \"NFT-Contracts/contracts/market_pri/market_place.sol\":2022:2073  nftContractFixedSale[_nftContractAddress][_tokenId] */\n      0x00\n        /* \"NFT-Contracts/contracts/market_pri/market_place.sol\":2064:2072  _tokenId */\n      dup3\n        /* \"NFT-Contracts/contracts/market_pri/market_place.sol\":2022:2073  nftContractFixedSale[_nftContractAddress][_tokenId] */\n      dup2\n      mstore\n      0x20\n      add\n      swap1\n      dup2\n      mstore\n      0x20\n      add\n      0x00\n      keccak256\n        /* \"NFT-Contracts/contracts/market_pri/market_place.sol\":2022:2083  nftContractFixedSale[_nftContractAddress][_tokenId].nftSeller */\n      0x00\n      add\n      0x00\n      swap1\n      sload\n      swap1\n      0x0100\n      exp\n      swap1\n      div\n      0xffffffffffffffffffffffffffffffffffffffff\n      and\n        /* \"NFT-Contracts/contracts/market_pri/market_place.sol\":1991:2083  msg.sender ==... */\n      0xffffffffffffffffffffffffffffffffffffffff\n      and\n        /* \"NFT-Contracts/contracts/market_pri/market_place.sol\":1991:2001  msg.sender */\n      caller\n        /* \"NFT-Contracts/contracts/market_pri/market_place.sol\":1991:2083  msg.sender ==... */\n      0xffffffffffffffffffffffffffffffffffffffff\n      and\n      eq\n        /* \"NFT-Contracts/contracts/market_pri/market_place.sol\":1969:2132  require(... */\n      tag_114\n      jumpi\n      mload(0x40)\n      0x08c379a000000000000000000000000000000000000000000000000000000000\n      dup2\n      mstore\n      0x04\n      add\n      tag_115\n      swap1\n      tag_50\n      jump\t// in\n    tag_115:\n      mload(0x40)\n      dup1\n      swap2\n      sub\n      swap1\n      revert\n    tag_114:\n        /* \"NFT-Contracts/contracts/market_pri/market_place.sol\":4174:4193  _nftContractAddress */\n      dup6\n        /* \"NFT-Contracts/contracts/market_pri/market_place.sol\":4166:4211  IERC721(_nftContractAddress).safeTransferFrom */\n      0xffffffffffffffffffffffffffffffffffffffff\n      and\n      0x42842e0e\n        /* \"NFT-Contracts/contracts/market_pri/market_place.sol\":4234:4238  this */\n      address\n        /* \"NFT-Contracts/contracts/market_pri/market_place.sol\":4254:4264  msg.sender */\n      caller\n        /* \"NFT-Contracts/contracts/market_pri/market_place.sol\":4279:4287  _tokenId */\n      dup9\n        /* \"NFT-Contracts/contracts/market_pri/market_place.sol\":4166:4298  IERC721(_nftContractAddress).safeTransferFrom(... */\n      mload(0x40)\n      dup5\n      0xffffffff\n      and\n      0xe0\n      shl\n      dup2\n      mstore\n      0x04\n      add\n      tag_117\n      swap4\n      swap3\n      swap2\n      swap1\n      tag_85\n      jump\t// in\n    tag_117:\n      0x00\n      mload(0x40)\n      dup1\n      dup4\n      sub\n      dup2\n      0x00\n      dup8\n      dup1\n      extcodesize\n      iszero\n      dup1\n      iszero\n      tag_118\n      jumpi\n      0x00\n      dup1\n      revert\n    tag_118:\n      pop\n      gas\n      call\n      iszero\n      dup1\n      iszero\n      tag_120\n      jumpi\n      returndatasize\n      0x00\n      dup1\n      returndatacopy\n      revert(0x00, returndatasize)\n    tag_120:\n      pop\n      pop\n      pop\n      pop\n        /* \"NFT-Contracts/contracts/market_pri/market_place.sol\":4358:4359  0 */\n      0x00\n        /* \"NFT-Contracts/contracts/market_pri/market_place.sol\":4311:4324  nftSaleStatus */\n      0x01\n        /* \"NFT-Contracts/contracts/market_pri/market_place.sol\":4311:4345  nftSaleStatus[_nftContractAddress] */\n      0x00\n        /* \"NFT-Contracts/contracts/market_pri/market_place.sol\":4325:4344  _nftContractAddress */\n      dup9\n        /* \"NFT-Contracts/contracts/market_pri/market_place.sol\":4311:4345  nftSaleStatus[_nftContractAddress] */\n      0xffffffffffffffffffffffffffffffffffffffff\n      and\n      0xffffffffffffffffffffffffffffffffffffffff\n      and\n      dup2\n      mstore\n      0x20\n      add\n      swap1\n      dup2\n      mstore\n      0x20\n      add\n      0x00\n      keccak256\n        /* \"NFT-Contracts/contracts/market_pri/market_place.sol\":4311:4355  nftSaleStatus[_nftContractAddress][_tokenId] */\n      0x00\n        /* \"NFT-Contracts/contracts/market_pri/market_place.sol\":4346:4354  _tokenId */\n      dup8\n        /* \"NFT-Contracts/contracts/market_pri/market_place.sol\":4311:4355  nftSaleStatus[_nftContractAddress][_tokenId] */\n      dup2\n      mstore\n      0x20\n      add\n      swap1\n      dup2\n      mstore\n      0x20\n      add\n      0x00\n      keccak256\n        /* \"NFT-Contracts/contracts/market_pri/market_place.sol\":4311:4359  nftSaleStatus[_nftContractAddress][_tokenId] = 0 */\n      dup2\n      swap1\n      sstore\n      pop\n        /* \"NFT-Contracts/contracts/market_pri/market_place.sol\":4377:4438  CancelNftFixedSale(_nftContractAddress, msg.sender, _tokenId) */\n      0xd7348ff00cf381a884144b50b3441398a48a7974ec349287df80e18cec9f5a31\n        /* \"NFT-Contracts/contracts/market_pri/market_place.sol\":4396:4415  _nftContractAddress */\n      dup7\n        /* \"NFT-Contracts/contracts/market_pri/market_place.sol\":4417:4427  msg.sender */\n      caller\n        /* \"NFT-Contracts/contracts/market_pri/market_place.sol\":4429:4437  _tokenId */\n      dup8\n        /* \"NFT-Contracts/contracts/market_pri/market_place.sol\":4377:4438  CancelNftFixedSale(_nftContractAddress, msg.sender, _tokenId) */\n      mload(0x40)\n      tag_121\n      swap4\n      swap3\n      swap2\n      swap1\n      tag_85\n      jump\t// in\n    tag_121:\n      mload(0x40)\n      dup1\n      swap2\n      sub\n      swap1\n      log1\n        /* \"NFT-Contracts/contracts/market_pri/market_place.sol\":1621:1622  _ */\n      pop\n      pop\n        /* \"NFT-Contracts/contracts/market_pri/market_place.sol\":3944:4446  function cancelFixedsale(address _nftContractAddress, uint256 _tokenId)... */\n      pop\n      pop\n      pop\n      pop\n      jump\t// out\n        /* \"NFT-Contracts/contracts/market_pri/market_place.sol\":6334:6658  function _isTokenOrCoin(... */\n    tag_107:\n        /* \"NFT-Contracts/contracts/market_pri/market_place.sol\":6490:6491  0 */\n      0x00\n        /* \"NFT-Contracts/contracts/market_pri/market_place.sol\":6472:6492  _erc20 != address(0) */\n      0xffffffffffffffffffffffffffffffffffffffff\n      and\n        /* \"NFT-Contracts/contracts/market_pri/market_place.sol\":6472:6478  _erc20 */\n      dup3\n        /* \"NFT-Contracts/contracts/market_pri/market_place.sol\":6472:6492  _erc20 != address(0) */\n      0xffffffffffffffffffffffffffffffffffffffff\n      and\n      eq\n        /* \"NFT-Contracts/contracts/market_pri/market_place.sol\":6468:6651  if (_erc20 != address(0)) {... */\n      tag_123\n      jumpi\n        /* \"NFT-Contracts/contracts/market_pri/market_place.sol\":6509:6561  _tokenAmountTransfer(_nftSeller, _erc20, _buyAmount) */\n      tag_124\n        /* \"NFT-Contracts/contracts/market_pri/market_place.sol\":6530:6540  _nftSeller */\n      dup4\n        /* \"NFT-Contracts/contracts/market_pri/market_place.sol\":6542:6548  _erc20 */\n      dup4\n        /* \"NFT-Contracts/contracts/market_pri/market_place.sol\":6550:6560  _buyAmount */\n      dup4\n        /* \"NFT-Contracts/contracts/market_pri/market_place.sol\":6509:6529  _tokenAmountTransfer */\n      tag_125\n        /* \"NFT-Contracts/contracts/market_pri/market_place.sol\":6509:6561  _tokenAmountTransfer(_nftSeller, _erc20, _buyAmount) */\n      jump\t// in\n    tag_124:\n        /* \"NFT-Contracts/contracts/market_pri/market_place.sol\":6468:6651  if (_erc20 != address(0)) {... */\n      jump(tag_126)\n    tag_123:\n        /* \"NFT-Contracts/contracts/market_pri/market_place.sol\":6594:6639  _nativeAmountTransfer(_nftSeller, _buyAmount) */\n      tag_127\n        /* \"NFT-Contracts/contracts/market_pri/market_place.sol\":6616:6626  _nftSeller */\n      dup4\n        /* \"NFT-Contracts/contracts/market_pri/market_place.sol\":6628:6638  _buyAmount */\n      dup3\n        /* \"NFT-Contracts/contracts/market_pri/market_place.sol\":6594:6615  _nativeAmountTransfer */\n      tag_128\n        /* \"NFT-Contracts/contracts/market_pri/market_place.sol\":6594:6639  _nativeAmountTransfer(_nftSeller, _buyAmount) */\n      jump\t// in\n    tag_127:\n        /* \"NFT-Contracts/contracts/market_pri/market_place.sol\":6468:6651  if (_erc20 != address(0)) {... */\n    tag_126:\n        /* \"NFT-Contracts/contracts/market_pri/market_place.sol\":6334:6658  function _isTokenOrCoin(... */\n      pop\n      pop\n      pop\n      jump\t// out\n        /* \"NFT-Contracts/contracts/market_pri/market_place.sol\":6666:6947  function _tokenAmountTransfer(... */\n    tag_125:\n        /* \"NFT-Contracts/contracts/market_pri/market_place.sol\":6835:6841  _erc20 */\n      dup2\n        /* \"NFT-Contracts/contracts/market_pri/market_place.sol\":6828:6855  IERC20(_erc20).transferFrom */\n      0xffffffffffffffffffffffffffffffffffffffff\n      and\n      0x23b872dd\n        /* \"NFT-Contracts/contracts/market_pri/market_place.sol\":6856:6866  msg.sender */\n      caller\n        /* \"NFT-Contracts/contracts/market_pri/market_place.sol\":6868:6878  _nftSeller */\n      dup6\n        /* \"NFT-Contracts/contracts/market_pri/market_place.sol\":6880:6890  _buyAmount */\n      dup5\n        /* \"NFT-Contracts/contracts/market_pri/market_place.sol\":6828:6891  IERC20(_erc20).transferFrom(msg.sender, _nftSeller, _buyAmount) */\n      mload(0x40)\n      dup5\n      0xffffffff\n      and\n      0xe0\n      shl\n      dup2\n      mstore\n      0x04\n      add\n      tag_130\n      swap4\n      swap3\n      swap2\n      swap1\n      tag_85\n      jump\t// in\n    tag_130:\n      0x20\n      mload(0x40)\n      dup1\n      dup4\n      sub\n      dup2\n      0x00\n      dup8\n      gas\n      call\n      iszero\n      dup1\n      iszero\n      tag_132\n      jumpi\n      returndatasize\n      0x00\n      dup1\n      returndatacopy\n      revert(0x00, returndatasize)\n    tag_132:\n      pop\n      pop\n      pop\n      pop\n      mload(0x40)\n      returndatasize\n      not(0x1f)\n      0x1f\n      dup3\n      add\n      and\n      dup3\n      add\n      dup1\n      0x40\n      mstore\n      pop\n      dup2\n      add\n      swap1\n      tag_133\n      swap2\n      swap1\n      tag_76\n      jump\t// in\n    tag_133:\n        /* \"NFT-Contracts/contracts/market_pri/market_place.sol\":6806:6939  require(... */\n      tag_134\n      jumpi\n      mload(0x40)\n      0x08c379a000000000000000000000000000000000000000000000000000000000\n      dup2\n      mstore\n      0x04\n      add\n      tag_135\n      swap1\n      tag_136\n      jump\t// in\n    tag_135:\n      mload(0x40)\n      dup1\n      swap2\n      sub\n      swap1\n      revert\n    tag_134:\n        /* \"NFT-Contracts/contracts/market_pri/market_place.sol\":6666:6947  function _tokenAmountTransfer(... */\n      pop\n      pop\n      pop\n      jump\t// out\n        /* \"NFT-Contracts/contracts/market_pri/market_place.sol\":6955:7169  function _nativeAmountTransfer(address _nftSeller, uint256 _buyAmount)... */\n    tag_128:\n        /* \"NFT-Contracts/contracts/market_pri/market_place.sol\":7061:7073  bool success */\n      0x00\n        /* \"NFT-Contracts/contracts/market_pri/market_place.sol\":7079:7089  _nftSeller */\n      dup3\n        /* \"NFT-Contracts/contracts/market_pri/market_place.sol\":7079:7094  _nftSeller.call */\n      0xffffffffffffffffffffffffffffffffffffffff\n      and\n        /* \"NFT-Contracts/contracts/market_pri/market_place.sol\":7102:7112  _buyAmount */\n      dup3\n        /* \"NFT-Contracts/contracts/market_pri/market_place.sol\":7079:7117  _nftSeller.call{value: _buyAmount}(\"\") */\n      mload(0x40)\n      tag_138\n      swap1\n      tag_139\n      jump\t// in\n    tag_138:\n      0x00\n      mload(0x40)\n      dup1\n      dup4\n      sub\n      dup2\n      dup6\n      dup8\n      gas\n      call\n      swap3\n      pop\n      pop\n      pop\n      returndatasize\n      dup1\n      0x00\n      dup2\n      eq\n      tag_142\n      jumpi\n      mload(0x40)\n      swap2\n      pop\n      and(add(returndatasize, 0x3f), not(0x1f))\n      dup3\n      add\n      0x40\n      mstore\n      returndatasize\n      dup3\n      mstore\n      returndatasize\n      0x00\n      0x20\n      dup5\n      add\n      returndatacopy\n      jump(tag_141)\n    tag_142:\n      0x60\n      swap2\n      pop\n    tag_141:\n      pop\n        /* \"NFT-Contracts/contracts/market_pri/market_place.sol\":7060:7117  (bool success, ) = _nftSeller.call{value: _buyAmount}(\"\") */\n      pop\n      swap1\n      pop\n        /* \"NFT-Contracts/contracts/market_pri/market_place.sol\":7136:7143  success */\n      dup1\n        /* \"NFT-Contracts/contracts/market_pri/market_place.sol\":7128:7161  require(success, \"refund failed\") */\n      tag_143\n      jumpi\n      mload(0x40)\n      0x08c379a000000000000000000000000000000000000000000000000000000000\n      dup2\n      mstore\n      0x04\n      add\n      tag_144\n      swap1\n      tag_145\n      jump\t// in\n    tag_144:\n      mload(0x40)\n      dup1\n      swap2\n      sub\n      swap1\n      revert\n    tag_143:\n        /* \"NFT-Contracts/contracts/market_pri/market_place.sol\":7049:7169  {... */\n      pop\n        /* \"NFT-Contracts/contracts/market_pri/market_place.sol\":6955:7169  function _nativeAmountTransfer(address _nftSeller, uint256 _buyAmount)... */\n      pop\n      pop\n      jump\t// out\n        /* \"#utility.yul\":88:205   */\n    tag_147:\n        /* \"#utility.yul\":197:198   */\n      0x00\n        /* \"#utility.yul\":194:195   */\n      dup1\n        /* \"#utility.yul\":187:199   */\n      revert\n        /* \"#utility.yul\":211:328   */\n    tag_148:\n        /* \"#utility.yul\":320:321   */\n      0x00\n        /* \"#utility.yul\":317:318   */\n      dup1\n        /* \"#utility.yul\":310:322   */\n      revert\n        /* \"#utility.yul\":334:460   */\n    tag_149:\n        /* \"#utility.yul\":371:378   */\n      0x00\n        /* \"#utility.yul\":411:453   */\n      0xffffffffffffffffffffffffffffffffffffffff\n        /* \"#utility.yul\":404:409   */\n      dup3\n        /* \"#utility.yul\":400:454   */\n      and\n        /* \"#utility.yul\":389:454   */\n      swap1\n      pop\n        /* \"#utility.yul\":334:460   */\n      swap2\n      swap1\n      pop\n      jump\t// out\n        /* \"#utility.yul\":466:562   */\n    tag_150:\n        /* \"#utility.yul\":503:510   */\n      0x00\n        /* \"#utility.yul\":532:556   */\n      tag_194\n        /* \"#utility.yul\":550:555   */\n      dup3\n        /* \"#utility.yul\":532:556   */\n      tag_149\n      jump\t// in\n    tag_194:\n        /* \"#utility.yul\":521:556   */\n      swap1\n      pop\n        /* \"#utility.yul\":466:562   */\n      swap2\n      swap1\n      pop\n      jump\t// out\n        /* \"#utility.yul\":568:690   */\n    tag_151:\n        /* \"#utility.yul\":641:665   */\n      tag_196\n        /* \"#utility.yul\":659:664   */\n      dup2\n        /* \"#utility.yul\":641:665   */\n      tag_150\n      jump\t// in\n    tag_196:\n        /* \"#utility.yul\":634:639   */\n      dup2\n        /* \"#utility.yul\":631:666   */\n      eq\n        /* \"#utility.yul\":621:684   */\n      tag_197\n      jumpi\n        /* \"#utility.yul\":680:681   */\n      0x00\n        /* \"#utility.yul\":677:678   */\n      dup1\n        /* \"#utility.yul\":670:682   */\n      revert\n        /* \"#utility.yul\":621:684   */\n    tag_197:\n        /* \"#utility.yul\":568:690   */\n      pop\n      jump\t// out\n        /* \"#utility.yul\":696:835   */\n    tag_152:\n        /* \"#utility.yul\":742:747   */\n      0x00\n        /* \"#utility.yul\":780:786   */\n      dup2\n        /* \"#utility.yul\":767:787   */\n      calldataload\n        /* \"#utility.yul\":758:787   */\n      swap1\n      pop\n        /* \"#utility.yul\":796:829   */\n      tag_199\n        /* \"#utility.yul\":823:828   */\n      dup2\n        /* \"#utility.yul\":796:829   */\n      tag_151\n      jump\t// in\n    tag_199:\n        /* \"#utility.yul\":696:835   */\n      swap3\n      swap2\n      pop\n      pop\n      jump\t// out\n        /* \"#utility.yul\":841:918   */\n    tag_153:\n        /* \"#utility.yul\":878:885   */\n      0x00\n        /* \"#utility.yul\":907:912   */\n      dup2\n        /* \"#utility.yul\":896:912   */\n      swap1\n      pop\n        /* \"#utility.yul\":841:918   */\n      swap2\n      swap1\n      pop\n      jump\t// out\n        /* \"#utility.yul\":924:1046   */\n    tag_154:\n        /* \"#utility.yul\":997:1021   */\n      tag_202\n        /* \"#utility.yul\":1015:1020   */\n      dup2\n        /* \"#utility.yul\":997:1021   */\n      tag_153\n      jump\t// in\n    tag_202:\n        /* \"#utility.yul\":990:995   */\n      dup2\n        /* \"#utility.yul\":987:1022   */\n      eq\n        /* \"#utility.yul\":977:1040   */\n      tag_203\n      jumpi\n        /* \"#utility.yul\":1036:1037   */\n      0x00\n        /* \"#utility.yul\":1033:1034   */\n      dup1\n        /* \"#utility.yul\":1026:1038   */\n      revert\n        /* \"#utility.yul\":977:1040   */\n    tag_203:\n        /* \"#utility.yul\":924:1046   */\n      pop\n      jump\t// out\n        /* \"#utility.yul\":1052:1191   */\n    tag_155:\n        /* \"#utility.yul\":1098:1103   */\n      0x00\n        /* \"#utility.yul\":1136:1142   */\n      dup2\n        /* \"#utility.yul\":1123:1143   */\n      calldataload\n        /* \"#utility.yul\":1114:1143   */\n      swap1\n      pop\n        /* \"#utility.yul\":1152:1185   */\n      tag_205\n        /* \"#utility.yul\":1179:1184   */\n      dup2\n        /* \"#utility.yul\":1152:1185   */\n      tag_154\n      jump\t// in\n    tag_205:\n        /* \"#utility.yul\":1052:1191   */\n      swap3\n      swap2\n      pop\n      pop\n      jump\t// out\n        /* \"#utility.yul\":1197:1314   */\n    tag_156:\n        /* \"#utility.yul\":1306:1307   */\n      0x00\n        /* \"#utility.yul\":1303:1304   */\n      dup1\n        /* \"#utility.yul\":1296:1308   */\n      revert\n        /* \"#utility.yul\":1320:1437   */\n    tag_157:\n        /* \"#utility.yul\":1429:1430   */\n      0x00\n        /* \"#utility.yul\":1426:1427   */\n      dup1\n        /* \"#utility.yul\":1419:1431   */\n      revert\n        /* \"#utility.yul\":1443:1560   */\n    tag_158:\n        /* \"#utility.yul\":1552:1553   */\n      0x00\n        /* \"#utility.yul\":1549:1550   */\n      dup1\n        /* \"#utility.yul\":1542:1554   */\n      revert\n        /* \"#utility.yul\":1579:2131   */\n    tag_159:\n        /* \"#utility.yul\":1636:1644   */\n      0x00\n        /* \"#utility.yul\":1646:1652   */\n      dup1\n        /* \"#utility.yul\":1696:1699   */\n      dup4\n        /* \"#utility.yul\":1689:1693   */\n      0x1f\n        /* \"#utility.yul\":1681:1687   */\n      dup5\n        /* \"#utility.yul\":1677:1694   */\n      add\n        /* \"#utility.yul\":1673:1700   */\n      slt\n        /* \"#utility.yul\":1663:1785   */\n      tag_210\n      jumpi\n        /* \"#utility.yul\":1704:1783   */\n      tag_211\n      tag_156\n      jump\t// in\n    tag_211:\n        /* \"#utility.yul\":1663:1785   */\n    tag_210:\n        /* \"#utility.yul\":1817:1823   */\n      dup3\n        /* \"#utility.yul\":1804:1824   */\n      calldataload\n        /* \"#utility.yul\":1794:1824   */\n      swap1\n      pop\n        /* \"#utility.yul\":1847:1865   */\n      0xffffffffffffffff\n        /* \"#utility.yul\":1839:1845   */\n      dup2\n        /* \"#utility.yul\":1836:1866   */\n      gt\n        /* \"#utility.yul\":1833:1950   */\n      iszero\n      tag_212\n      jumpi\n        /* \"#utility.yul\":1869:1948   */\n      tag_213\n      tag_157\n      jump\t// in\n    tag_213:\n        /* \"#utility.yul\":1833:1950   */\n    tag_212:\n        /* \"#utility.yul\":1983:1987   */\n      0x20\n        /* \"#utility.yul\":1975:1981   */\n      dup4\n        /* \"#utility.yul\":1971:1988   */\n      add\n        /* \"#utility.yul\":1959:1988   */\n      swap2\n      pop\n        /* \"#utility.yul\":2037:2040   */\n      dup4\n        /* \"#utility.yul\":2029:2033   */\n      0x01\n        /* \"#utility.yul\":2021:2027   */\n      dup3\n        /* \"#utility.yul\":2017:2034   */\n      mul\n        /* \"#utility.yul\":2007:2015   */\n      dup4\n        /* \"#utility.yul\":2003:2035   */\n      add\n        /* \"#utility.yul\":2000:2041   */\n      gt\n        /* \"#utility.yul\":1997:2125   */\n      iszero\n      tag_214\n      jumpi\n        /* \"#utility.yul\":2044:2123   */\n      tag_215\n      tag_158\n      jump\t// in\n    tag_215:\n        /* \"#utility.yul\":1997:2125   */\n    tag_214:\n        /* \"#utility.yul\":1579:2131   */\n      swap3\n      pop\n      swap3\n      swap1\n      pop\n      jump\t// out\n        /* \"#utility.yul\":2137:3100   */\n    tag_14:\n        /* \"#utility.yul\":2234:2240   */\n      0x00\n        /* \"#utility.yul\":2242:2248   */\n      dup1\n        /* \"#utility.yul\":2250:2256   */\n      0x00\n        /* \"#utility.yul\":2258:2264   */\n      dup1\n        /* \"#utility.yul\":2266:2272   */\n      0x00\n        /* \"#utility.yul\":2315:2318   */\n      0x80\n        /* \"#utility.yul\":2303:2312   */\n      dup7\n        /* \"#utility.yul\":2294:2301   */\n      dup9\n        /* \"#utility.yul\":2290:2313   */\n      sub\n        /* \"#utility.yul\":2286:2319   */\n      slt\n        /* \"#utility.yul\":2283:2403   */\n      iszero\n      tag_217\n      jumpi\n        /* \"#utility.yul\":2322:2401   */\n      tag_218\n      tag_147\n      jump\t// in\n    tag_218:\n        /* \"#utility.yul\":2283:2403   */\n    tag_217:\n        /* \"#utility.yul\":2442:2443   */\n      0x00\n        /* \"#utility.yul\":2467:2520   */\n      tag_219\n        /* \"#utility.yul\":2512:2519   */\n      dup9\n        /* \"#utility.yul\":2503:2509   */\n      dup3\n        /* \"#utility.yul\":2492:2501   */\n      dup10\n        /* \"#utility.yul\":2488:2510   */\n      add\n        /* \"#utility.yul\":2467:2520   */\n      tag_152\n      jump\t// in\n    tag_219:\n        /* \"#utility.yul\":2457:2520   */\n      swap6\n      pop\n        /* \"#utility.yul\":2413:2530   */\n      pop\n        /* \"#utility.yul\":2569:2571   */\n      0x20\n        /* \"#utility.yul\":2595:2648   */\n      tag_220\n        /* \"#utility.yul\":2640:2647   */\n      dup9\n        /* \"#utility.yul\":2631:2637   */\n      dup3\n        /* \"#utility.yul\":2620:2629   */\n      dup10\n        /* \"#utility.yul\":2616:2638   */\n      add\n        /* \"#utility.yul\":2595:2648   */\n      tag_152\n      jump\t// in\n    tag_220:\n        /* \"#utility.yul\":2585:2648   */\n      swap5\n      pop\n        /* \"#utility.yul\":2540:2658   */\n      pop\n        /* \"#utility.yul\":2697:2699   */\n      0x40\n        /* \"#utility.yul\":2723:2776   */\n      tag_221\n        /* \"#utility.yul\":2768:2775   */\n      dup9\n        /* \"#utility.yul\":2759:2765   */\n      dup3\n        /* \"#utility.yul\":2748:2757   */\n      dup10\n        /* \"#utility.yul\":2744:2766   */\n      add\n        /* \"#utility.yul\":2723:2776   */\n      tag_155\n      jump\t// in\n    tag_221:\n        /* \"#utility.yul\":2713:2776   */\n      swap4\n      pop\n        /* \"#utility.yul\":2668:2786   */\n      pop\n        /* \"#utility.yul\":2853:2855   */\n      0x60\n        /* \"#utility.yul\":2842:2851   */\n      dup7\n        /* \"#utility.yul\":2838:2856   */\n      add\n        /* \"#utility.yul\":2825:2857   */\n      calldataload\n        /* \"#utility.yul\":2884:2902   */\n      0xffffffffffffffff\n        /* \"#utility.yul\":2876:2882   */\n      dup2\n        /* \"#utility.yul\":2873:2903   */\n      gt\n        /* \"#utility.yul\":2870:2987   */\n      iszero\n      tag_222\n      jumpi\n        /* \"#utility.yul\":2906:2985   */\n      tag_223\n      tag_148\n      jump\t// in\n    tag_223:\n        /* \"#utility.yul\":2870:2987   */\n    tag_222:\n        /* \"#utility.yul\":3019:3083   */\n      tag_224\n        /* \"#utility.yul\":3075:3082   */\n      dup9\n        /* \"#utility.yul\":3066:3072   */\n      dup3\n        /* \"#utility.yul\":3055:3064   */\n      dup10\n        /* \"#utility.yul\":3051:3073   */\n      add\n        /* \"#utility.yul\":3019:3083   */\n      tag_159\n      jump\t// in\n    tag_224:\n        /* \"#utility.yul\":3001:3083   */\n      swap3\n      pop\n      swap3\n      pop\n        /* \"#utility.yul\":2796:3093   */\n      pop\n        /* \"#utility.yul\":2137:3100   */\n      swap3\n      swap6\n      pop\n      swap3\n      swap6\n      swap1\n      swap4\n      pop\n      jump\t// out\n        /* \"#utility.yul\":3106:3255   */\n    tag_160:\n        /* \"#utility.yul\":3142:3149   */\n      0x00\n        /* \"#utility.yul\":3182:3248   */\n      0xffffffff00000000000000000000000000000000000000000000000000000000\n        /* \"#utility.yul\":3175:3180   */\n      dup3\n        /* \"#utility.yul\":3171:3249   */\n      and\n        /* \"#utility.yul\":3160:3249   */\n      swap1\n      pop\n        /* \"#utility.yul\":3106:3255   */\n      swap2\n      swap1\n      pop\n      jump\t// out\n        /* \"#utility.yul\":3261:3376   */\n    tag_161:\n        /* \"#utility.yul\":3346:3369   */\n      tag_227\n        /* \"#utility.yul\":3363:3368   */\n      dup2\n        /* \"#utility.yul\":3346:3369   */\n      tag_160\n      jump\t// in\n    tag_227:\n        /* \"#utility.yul\":3341:3344   */\n      dup3\n        /* \"#utility.yul\":3334:3370   */\n      mstore\n        /* \"#utility.yul\":3261:3376   */\n      pop\n      pop\n      jump\t// out\n        /* \"#utility.yul\":3382:3600   */\n    tag_17:\n        /* \"#utility.yul\":3473:3477   */\n      0x00\n        /* \"#utility.yul\":3511:3513   */\n      0x20\n        /* \"#utility.yul\":3500:3509   */\n      dup3\n        /* \"#utility.yul\":3496:3514   */\n      add\n        /* \"#utility.yul\":3488:3514   */\n      swap1\n      pop\n        /* \"#utility.yul\":3524:3593   */\n      tag_229\n        /* \"#utility.yul\":3590:3591   */\n      0x00\n        /* \"#utility.yul\":3579:3588   */\n      dup4\n        /* \"#utility.yul\":3575:3592   */\n      add\n        /* \"#utility.yul\":3566:3572   */\n      dup5\n        /* \"#utility.yul\":3524:3593   */\n      tag_161\n      jump\t// in\n    tag_229:\n        /* \"#utility.yul\":3382:3600   */\n      swap3\n      swap2\n      pop\n      pop\n      jump\t// out\n        /* \"#utility.yul\":3606:4225   */\n    tag_21:\n        /* \"#utility.yul\":3683:3689   */\n      0x00\n        /* \"#utility.yul\":3691:3697   */\n      dup1\n        /* \"#utility.yul\":3699:3705   */\n      0x00\n        /* \"#utility.yul\":3748:3750   */\n      0x60\n        /* \"#utility.yul\":3736:3745   */\n      dup5\n        /* \"#utility.yul\":3727:3734   */\n      dup7\n        /* \"#utility.yul\":3723:3746   */\n      sub\n        /* \"#utility.yul\":3719:3751   */\n      slt\n        /* \"#utility.yul\":3716:3835   */\n      iszero\n      tag_231\n      jumpi\n        /* \"#utility.yul\":3754:3833   */\n      tag_232\n      tag_147\n      jump\t// in\n    tag_232:\n        /* \"#utility.yul\":3716:3835   */\n    tag_231:\n        /* \"#utility.yul\":3874:3875   */\n      0x00\n        /* \"#utility.yul\":3899:3952   */\n      tag_233\n        /* \"#utility.yul\":3944:3951   */\n      dup7\n        /* \"#utility.yul\":3935:3941   */\n      dup3\n        /* \"#utility.yul\":3924:3933   */\n      dup8\n        /* \"#utility.yul\":3920:3942   */\n      add\n        /* \"#utility.yul\":3899:3952   */\n      tag_152\n      jump\t// in\n    tag_233:\n        /* \"#utility.yul\":3889:3952   */\n      swap4\n      pop\n        /* \"#utility.yul\":3845:3962   */\n      pop\n        /* \"#utility.yul\":4001:4003   */\n      0x20\n        /* \"#utility.yul\":4027:4080   */\n      tag_234\n        /* \"#utility.yul\":4072:4079   */\n      dup7\n        /* \"#utility.yul\":4063:4069   */\n      dup3\n        /* \"#utility.yul\":4052:4061   */\n      dup8\n        /* \"#utility.yul\":4048:4070   */\n      add\n        /* \"#utility.yul\":4027:4080   */\n      tag_155\n      jump\t// in\n    tag_234:\n        /* \"#utility.yul\":4017:4080   */\n      swap3\n      pop\n        /* \"#utility.yul\":3972:4090   */\n      pop\n        /* \"#utility.yul\":4129:4131   */\n      0x40\n        /* \"#utility.yul\":4155:4208   */\n      tag_235\n        /* \"#utility.yul\":4200:4207   */\n      dup7\n        /* \"#utility.yul\":4191:4197   */\n      dup3\n        /* \"#utility.yul\":4180:4189   */\n      dup8\n        /* \"#utility.yul\":4176:4198   */\n      add\n        /* \"#utility.yul\":4155:4208   */\n      tag_155\n      jump\t// in\n    tag_235:\n        /* \"#utility.yul\":4145:4208   */\n      swap2\n      pop\n        /* \"#utility.yul\":4100:4218   */\n      pop\n        /* \"#utility.yul\":3606:4225   */\n      swap3\n      pop\n      swap3\n      pop\n      swap3\n      jump\t// out\n        /* \"#utility.yul\":4231:4705   */\n    tag_26:\n        /* \"#utility.yul\":4299:4305   */\n      0x00\n        /* \"#utility.yul\":4307:4313   */\n      dup1\n        /* \"#utility.yul\":4356:4358   */\n      0x40\n        /* \"#utility.yul\":4344:4353   */\n      dup4\n        /* \"#utility.yul\":4335:4342   */\n      dup6\n        /* \"#utility.yul\":4331:4354   */\n      sub\n        /* \"#utility.yul\":4327:4359   */\n      slt\n        /* \"#utility.yul\":4324:4443   */\n      iszero\n      tag_237\n      jumpi\n        /* \"#utility.yul\":4362:4441   */\n      tag_238\n      tag_147\n      jump\t// in\n    tag_238:\n        /* \"#utility.yul\":4324:4443   */\n    tag_237:\n        /* \"#utility.yul\":4482:4483   */\n      0x00\n        /* \"#utility.yul\":4507:4560   */\n      tag_239\n        /* \"#utility.yul\":4552:4559   */\n      dup6\n        /* \"#utility.yul\":4543:4549   */\n      dup3\n        /* \"#utility.yul\":4532:4541   */\n      dup7\n        /* \"#utility.yul\":4528:4550   */\n      add\n        /* \"#utility.yul\":4507:4560   */\n      tag_152\n      jump\t// in\n    tag_239:\n        /* \"#utility.yul\":4497:4560   */\n      swap3\n      pop\n        /* \"#utility.yul\":4453:4570   */\n      pop\n        /* \"#utility.yul\":4609:4611   */\n      0x20\n        /* \"#utility.yul\":4635:4688   */\n      tag_240\n        /* \"#utility.yul\":4680:4687   */\n      dup6\n        /* \"#utility.yul\":4671:4677   */\n      dup3\n        /* \"#utility.yul\":4660:4669   */\n      dup7\n        /* \"#utility.yul\":4656:4678   */\n      add\n        /* \"#utility.yul\":4635:4688   */\n      tag_155\n      jump\t// in\n    tag_240:\n        /* \"#utility.yul\":4625:4688   */\n      swap2\n      pop\n        /* \"#utility.yul\":4580:4698   */\n      pop\n        /* \"#utility.yul\":4231:4705   */\n      swap3\n      pop\n      swap3\n      swap1\n      pop\n      jump\t// out\n        /* \"#utility.yul\":4711:4829   */\n    tag_162:\n        /* \"#utility.yul\":4798:4822   */\n      tag_242\n        /* \"#utility.yul\":4816:4821   */\n      dup2\n        /* \"#utility.yul\":4798:4822   */\n      tag_153\n      jump\t// in\n    tag_242:\n        /* \"#utility.yul\":4793:4796   */\n      dup3\n        /* \"#utility.yul\":4786:4823   */\n      mstore\n        /* \"#utility.yul\":4711:4829   */\n      pop\n      pop\n      jump\t// out\n        /* \"#utility.yul\":4835:5057   */\n    tag_29:\n        /* \"#utility.yul\":4928:4932   */\n      0x00\n        /* \"#utility.yul\":4966:4968   */\n      0x20\n        /* \"#utility.yul\":4955:4964   */\n      dup3\n        /* \"#utility.yul\":4951:4969   */\n      add\n        /* \"#utility.yul\":4943:4969   */\n      swap1\n      pop\n        /* \"#utility.yul\":4979:5050   */\n      tag_244\n        /* \"#utility.yul\":5047:5048   */\n      0x00\n        /* \"#utility.yul\":5036:5045   */\n      dup4\n        /* \"#utility.yul\":5032:5049   */\n      add\n        /* \"#utility.yul\":5023:5029   */\n      dup5\n        /* \"#utility.yul\":4979:5050   */\n      tag_162\n      jump\t// in\n    tag_244:\n        /* \"#utility.yul\":4835:5057   */\n      swap3\n      swap2\n      pop\n      pop\n      jump\t// out\n        /* \"#utility.yul\":5063:5828   */\n    tag_33:\n        /* \"#utility.yul\":5149:5155   */\n      0x00\n        /* \"#utility.yul\":5157:5163   */\n      dup1\n        /* \"#utility.yul\":5165:5171   */\n      0x00\n        /* \"#utility.yul\":5173:5179   */\n      dup1\n        /* \"#utility.yul\":5222:5225   */\n      0x80\n        /* \"#utility.yul\":5210:5219   */\n      dup6\n        /* \"#utility.yul\":5201:5208   */\n      dup8\n        /* \"#utility.yul\":5197:5220   */\n      sub\n        /* \"#utility.yul\":5193:5226   */\n      slt\n        /* \"#utility.yul\":5190:5310   */\n      iszero\n      tag_246\n      jumpi\n        /* \"#utility.yul\":5229:5308   */\n      tag_247\n      tag_147\n      jump\t// in\n    tag_247:\n        /* \"#utility.yul\":5190:5310   */\n    tag_246:\n        /* \"#utility.yul\":5349:5350   */\n      0x00\n        /* \"#utility.yul\":5374:5427   */\n      tag_248\n        /* \"#utility.yul\":5419:5426   */\n      dup8\n        /* \"#utility.yul\":5410:5416   */\n      dup3\n        /* \"#utility.yul\":5399:5408   */\n      dup9\n        /* \"#utility.yul\":5395:5417   */\n      add\n        /* \"#utility.yul\":5374:5427   */\n      tag_152\n      jump\t// in\n    tag_248:\n        /* \"#utility.yul\":5364:5427   */\n      swap5\n      pop\n        /* \"#utility.yul\":5320:5437   */\n      pop\n        /* \"#utility.yul\":5476:5478   */\n      0x20\n        /* \"#utility.yul\":5502:5555   */\n      tag_249\n        /* \"#utility.yul\":5547:5554   */\n      dup8\n        /* \"#utility.yul\":5538:5544   */\n      dup3\n        /* \"#utility.yul\":5527:5536   */\n      dup9\n        /* \"#utility.yul\":5523:5545   */\n      add\n        /* \"#utility.yul\":5502:5555   */\n      tag_152\n      jump\t// in\n    tag_249:\n        /* \"#utility.yul\":5492:5555   */\n      swap4\n      pop\n        /* \"#utility.yul\":5447:5565   */\n      pop\n        /* \"#utility.yul\":5604:5606   */\n      0x40\n        /* \"#utility.yul\":5630:5683   */\n      tag_250\n        /* \"#utility.yul\":5675:5682   */\n      dup8\n        /* \"#utility.yul\":5666:5672   */\n      dup3\n        /* \"#utility.yul\":5655:5664   */\n      dup9\n        /* \"#utility.yul\":5651:5673   */\n      add\n        /* \"#utility.yul\":5630:5683   */\n      tag_155\n      jump\t// in\n    tag_250:\n        /* \"#utility.yul\":5620:5683   */\n      swap3\n      pop\n        /* \"#utility.yul\":5575:5693   */\n      pop\n        /* \"#utility.yul\":5732:5734   */\n      0x60\n        /* \"#utility.yul\":5758:5811   */\n      tag_251\n        /* \"#utility.yul\":5803:5810   */\n      dup8\n        /* \"#utility.yul\":5794:5800   */\n      dup3\n        /* \"#utility.yul\":5783:5792   */\n      dup9\n        /* \"#utility.yul\":5779:5801   */\n      add\n        /* \"#utility.yul\":5758:5811   */\n      tag_155\n      jump\t// in\n    tag_251:\n        /* \"#utility.yul\":5748:5811   */\n      swap2\n      pop\n        /* \"#utility.yul\":5703:5821   */\n      pop\n        /* \"#utility.yul\":5063:5828   */\n      swap3\n      swap6\n      swap2\n      swap5\n      pop\n      swap3\n      pop\n      jump\t// out\n        /* \"#utility.yul\":5834:6003   */\n    tag_163:\n        /* \"#utility.yul\":5918:5929   */\n      0x00\n        /* \"#utility.yul\":5952:5958   */\n      dup3\n        /* \"#utility.yul\":5947:5950   */\n      dup3\n        /* \"#utility.yul\":5940:5959   */\n      mstore\n        /* \"#utility.yul\":5992:5996   */\n      0x20\n        /* \"#utility.yul\":5987:5990   */\n      dup3\n        /* \"#utility.yul\":5983:5997   */\n      add\n        /* \"#utility.yul\":5968:5997   */\n      swap1\n      pop\n        /* \"#utility.yul\":5834:6003   */\n      swap3\n      swap2\n      pop\n      pop\n      jump\t// out\n        /* \"#utility.yul\":6009:6180   */\n    tag_164:\n        /* \"#utility.yul\":6149:6172   */\n      0x4e6674206e6f7420696e2066697865642073616c650000000000000000000000\n        /* \"#utility.yul\":6145:6146   */\n      0x00\n        /* \"#utility.yul\":6137:6143   */\n      dup3\n        /* \"#utility.yul\":6133:6147   */\n      add\n        /* \"#utility.yul\":6126:6173   */\n      mstore\n        /* \"#utility.yul\":6009:6180   */\n      pop\n      jump\t// out\n        /* \"#utility.yul\":6186:6552   */\n    tag_165:\n        /* \"#utility.yul\":6328:6331   */\n      0x00\n        /* \"#utility.yul\":6349:6416   */\n      tag_255\n        /* \"#utility.yul\":6413:6415   */\n      0x15\n        /* \"#utility.yul\":6408:6411   */\n      dup4\n        /* \"#utility.yul\":6349:6416   */\n      tag_163\n      jump\t// in\n    tag_255:\n        /* \"#utility.yul\":6342:6416   */\n      swap2\n      pop\n        /* \"#utility.yul\":6425:6518   */\n      tag_256\n        /* \"#utility.yul\":6514:6517   */\n      dup3\n        /* \"#utility.yul\":6425:6518   */\n      tag_164\n      jump\t// in\n    tag_256:\n        /* \"#utility.yul\":6543:6545   */\n      0x20\n        /* \"#utility.yul\":6538:6541   */\n      dup3\n        /* \"#utility.yul\":6534:6546   */\n      add\n        /* \"#utility.yul\":6527:6546   */\n      swap1\n      pop\n        /* \"#utility.yul\":6186:6552   */\n      swap2\n      swap1\n      pop\n      jump\t// out\n        /* \"#utility.yul\":6558:6977   */\n    tag_46:\n        /* \"#utility.yul\":6724:6728   */\n      0x00\n        /* \"#utility.yul\":6762:6764   */\n      0x20\n        /* \"#utility.yul\":6751:6760   */\n      dup3\n        /* \"#utility.yul\":6747:6765   */\n      add\n        /* \"#utility.yul\":6739:6765   */\n      swap1\n      pop\n        /* \"#utility.yul\":6811:6820   */\n      dup2\n        /* \"#utility.yul\":6805:6809   */\n      dup2\n        /* \"#utility.yul\":6801:6821   */\n      sub\n        /* \"#utility.yul\":6797:6798   */\n      0x00\n        /* \"#utility.yul\":6786:6795   */\n      dup4\n        /* \"#utility.yul\":6782:6799   */\n      add\n        /* \"#utility.yul\":6775:6822   */\n      mstore\n        /* \"#utility.yul\":6839:6970   */\n      tag_258\n        /* \"#utility.yul\":6965:6969   */\n      dup2\n        /* \"#utility.yul\":6839:6970   */\n      tag_165\n      jump\t// in\n    tag_258:\n        /* \"#utility.yul\":6831:6970   */\n      swap1\n      pop\n        /* \"#utility.yul\":6558:6977   */\n      swap2\n      swap1\n      pop\n      jump\t// out\n        /* \"#utility.yul\":6983:7154   */\n    tag_166:\n        /* \"#utility.yul\":7123:7146   */\n      0x596f7520617265206e6f74206e6674206f776e65720000000000000000000000\n        /* \"#utility.yul\":7119:7120   */\n      0x00\n        /* \"#utility.yul\":7111:7117   */\n      dup3\n        /* \"#utility.yul\":7107:7121   */\n      add\n        /* \"#utility.yul\":7100:7147   */\n      mstore\n        /* \"#utility.yul\":6983:7154   */\n      pop\n      jump\t// out\n        /* \"#utility.yul\":7160:7526   */\n    tag_167:\n        /* \"#utility.yul\":7302:7305   */\n      0x00\n        /* \"#utility.yul\":7323:7390   */\n      tag_261\n        /* \"#utility.yul\":7387:7389   */\n      0x15\n        /* \"#utility.yul\":7382:7385   */\n      dup4\n        /* \"#utility.yul\":7323:7390   */\n      tag_163\n      jump\t// in\n    tag_261:\n        /* \"#utility.yul\":7316:7390   */\n      swap2\n      pop\n        /* \"#utility.yul\":7399:7492   */\n      tag_262\n        /* \"#utility.yul\":7488:7491   */\n      dup3\n        /* \"#utility.yul\":7399:7492   */\n      tag_166\n      jump\t// in\n    tag_262:\n        /* \"#utility.yul\":7517:7519   */\n      0x20\n        /* \"#utility.yul\":7512:7515   */\n      dup3\n        /* \"#utility.yul\":7508:7520   */\n      add\n        /* \"#utility.yul\":7501:7520   */\n      swap1\n      pop\n        /* \"#utility.yul\":7160:7526   */\n      swap2\n      swap1\n      pop\n      jump\t// out\n        /* \"#utility.yul\":7532:7951   */\n    tag_50:\n        /* \"#utility.yul\":7698:7702   */\n      0x00\n        /* \"#utility.yul\":7736:7738   */\n      0x20\n        /* \"#utility.yul\":7725:7734   */\n      dup3\n        /* \"#utility.yul\":7721:7739   */\n      add\n        /* \"#utility.yul\":7713:7739   */\n      swap1\n      pop\n        /* \"#utility.yul\":7785:7794   */\n      dup2\n        /* \"#utility.yul\":7779:7783   */\n      dup2\n        /* \"#utility.yul\":7775:7795   */\n      sub\n        /* \"#utility.yul\":7771:7772   */\n      0x00\n        /* \"#utility.yul\":7760:7769   */\n      dup4\n        /* \"#utility.yul\":7756:7773   */\n      add\n        /* \"#utility.yul\":7749:7796   */\n      mstore\n        /* \"#utility.yul\":7813:7944   */\n      tag_264\n        /* \"#utility.yul\":7939:7943   */\n      dup2\n        /* \"#utility.yul\":7813:7944   */\n      tag_167\n      jump\t// in\n    tag_264:\n        /* \"#utility.yul\":7805:7944   */\n      swap1\n      pop\n        /* \"#utility.yul\":7532:7951   */\n      swap2\n      swap1\n      pop\n      jump\t// out\n        /* \"#utility.yul\":7957:8124   */\n    tag_168:\n        /* \"#utility.yul\":8097:8116   */\n      0x50726963652063616e6e6f742062652030000000000000000000000000000000\n        /* \"#utility.yul\":8093:8094   */\n      0x00\n        /* \"#utility.yul\":8085:8091   */\n      dup3\n        /* \"#utility.yul\":8081:8095   */\n      add\n        /* \"#utility.yul\":8074:8117   */\n      mstore\n        /* \"#utility.yul\":7957:8124   */\n      pop\n      jump\t// out\n        /* \"#utility.yul\":8130:8496   */\n    tag_169:\n        /* \"#utility.yul\":8272:8275   */\n      0x00\n        /* \"#utility.yul\":8293:8360   */\n      tag_267\n        /* \"#utility.yul\":8357:8359   */\n      0x11\n        /* \"#utility.yul\":8352:8355   */\n      dup4\n        /* \"#utility.yul\":8293:8360   */\n      tag_163\n      jump\t// in\n    tag_267:\n        /* \"#utility.yul\":8286:8360   */\n      swap2\n      pop\n        /* \"#utility.yul\":8369:8462   */\n      tag_268\n        /* \"#utility.yul\":8458:8461   */\n      dup3\n        /* \"#utility.yul\":8369:8462   */\n      tag_168\n      jump\t// in\n    tag_268:\n        /* \"#utility.yul\":8487:8489   */\n      0x20\n        /* \"#utility.yul\":8482:8485   */\n      dup3\n        /* \"#utility.yul\":8478:8490   */\n      add\n        /* \"#utility.yul\":8471:8490   */\n      swap1\n      pop\n        /* \"#utility.yul\":8130:8496   */\n      swap2\n      swap1\n      pop\n      jump\t// out\n        /* \"#utility.yul\":8502:8921   */\n    tag_54:\n        /* \"#utility.yul\":8668:8672   */\n      0x00\n        /* \"#utility.yul\":8706:8708   */\n      0x20\n        /* \"#utility.yul\":8695:8704   */\n      dup3\n        /* \"#utility.yul\":8691:8709   */\n      add\n        /* \"#utility.yul\":8683:8709   */\n      swap1\n      pop\n        /* \"#utility.yul\":8755:8764   */\n      dup2\n        /* \"#utility.yul\":8749:8753   */\n      dup2\n        /* \"#utility.yul\":8745:8765   */\n      sub\n        /* \"#utility.yul\":8741:8742   */\n      0x00\n        /* \"#utility.yul\":8730:8739   */\n      dup4\n        /* \"#utility.yul\":8726:8743   */\n      add\n        /* \"#utility.yul\":8719:8766   */\n      mstore\n        /* \"#utility.yul\":8783:8914   */\n      tag_270\n        /* \"#utility.yul\":8909:8913   */\n      dup2\n        /* \"#utility.yul\":8783:8914   */\n      tag_169\n      jump\t// in\n    tag_270:\n        /* \"#utility.yul\":8775:8914   */\n      swap1\n      pop\n        /* \"#utility.yul\":8502:8921   */\n      swap2\n      swap1\n      pop\n      jump\t// out\n        /* \"#utility.yul\":8927:9045   */\n    tag_170:\n        /* \"#utility.yul\":9014:9038   */\n      tag_272\n        /* \"#utility.yul\":9032:9037   */\n      dup2\n        /* \"#utility.yul\":9014:9038   */\n      tag_150\n      jump\t// in\n    tag_272:\n        /* \"#utility.yul\":9009:9012   */\n      dup3\n        /* \"#utility.yul\":9002:9039   */\n      mstore\n        /* \"#utility.yul\":8927:9045   */\n      pop\n      pop\n      jump\t// out\n        /* \"#utility.yul\":9051:9493   */\n    tag_57:\n        /* \"#utility.yul\":9200:9204   */\n      0x00\n        /* \"#utility.yul\":9238:9240   */\n      0x60\n        /* \"#utility.yul\":9227:9236   */\n      dup3\n        /* \"#utility.yul\":9223:9241   */\n      add\n        /* \"#utility.yul\":9215:9241   */\n      swap1\n      pop\n        /* \"#utility.yul\":9251:9322   */\n      tag_274\n        /* \"#utility.yul\":9319:9320   */\n      0x00\n        /* \"#utility.yul\":9308:9317   */\n      dup4\n        /* \"#utility.yul\":9304:9321   */\n      add\n        /* \"#utility.yul\":9295:9301   */\n      dup7\n        /* \"#utility.yul\":9251:9322   */\n      tag_170\n      jump\t// in\n    tag_274:\n        /* \"#utility.yul\":9332:9404   */\n      tag_275\n        /* \"#utility.yul\":9400:9402   */\n      0x20\n        /* \"#utility.yul\":9389:9398   */\n      dup4\n        /* \"#utility.yul\":9385:9403   */\n      add\n        /* \"#utility.yul\":9376:9382   */\n      dup6\n        /* \"#utility.yul\":9332:9404   */\n      tag_162\n      jump\t// in\n    tag_275:\n        /* \"#utility.yul\":9414:9486   */\n      tag_276\n        /* \"#utility.yul\":9482:9484   */\n      0x40\n        /* \"#utility.yul\":9471:9480   */\n      dup4\n        /* \"#utility.yul\":9467:9485   */\n      add\n        /* \"#utility.yul\":9458:9464   */\n      dup5\n        /* \"#utility.yul\":9414:9486   */\n      tag_162\n      jump\t// in\n    tag_276:\n        /* \"#utility.yul\":9051:9493   */\n      swap5\n      swap4\n      pop\n      pop\n      pop\n      pop\n      jump\t// out\n        /* \"#utility.yul\":9499:9642   */\n    tag_171:\n        /* \"#utility.yul\":9556:9561   */\n      0x00\n        /* \"#utility.yul\":9587:9593   */\n      dup2\n        /* \"#utility.yul\":9581:9594   */\n      mload\n        /* \"#utility.yul\":9572:9594   */\n      swap1\n      pop\n        /* \"#utility.yul\":9603:9636   */\n      tag_278\n        /* \"#utility.yul\":9630:9635   */\n      dup2\n        /* \"#utility.yul\":9603:9636   */\n      tag_151\n      jump\t// in\n    tag_278:\n        /* \"#utility.yul\":9499:9642   */\n      swap3\n      swap2\n      pop\n      pop\n      jump\t// out\n        /* \"#utility.yul\":9648:9999   */\n    tag_63:\n        /* \"#utility.yul\":9718:9724   */\n      0x00\n        /* \"#utility.yul\":9767:9769   */\n      0x20\n        /* \"#utility.yul\":9755:9764   */\n      dup3\n        /* \"#utility.yul\":9746:9753   */\n      dup5\n        /* \"#utility.yul\":9742:9765   */\n      sub\n        /* \"#utility.yul\":9738:9770   */\n      slt\n        /* \"#utility.yul\":9735:9854   */\n      iszero\n      tag_280\n      jumpi\n        /* \"#utility.yul\":9773:9852   */\n      tag_281\n      tag_147\n      jump\t// in\n    tag_281:\n        /* \"#utility.yul\":9735:9854   */\n    tag_280:\n        /* \"#utility.yul\":9893:9894   */\n      0x00\n        /* \"#utility.yul\":9918:9982   */\n      tag_282\n        /* \"#utility.yul\":9974:9981   */\n      dup5\n        /* \"#utility.yul\":9965:9971   */\n      dup3\n        /* \"#utility.yul\":9954:9963   */\n      dup6\n        /* \"#utility.yul\":9950:9972   */\n      add\n        /* \"#utility.yul\":9918:9982   */\n      tag_171\n      jump\t// in\n    tag_282:\n        /* \"#utility.yul\":9908:9982   */\n      swap2\n      pop\n        /* \"#utility.yul\":9864:9992   */\n      pop\n        /* \"#utility.yul\":9648:9999   */\n      swap3\n      swap2\n      pop\n      pop\n      jump\t// out\n        /* \"#utility.yul\":10005:10174   */\n    tag_172:\n        /* \"#utility.yul\":10145:10166   */\n      0x4e667420616c726561647920696e2073616c6500000000000000000000000000\n        /* \"#utility.yul\":10141:10142   */\n      0x00\n        /* \"#utility.yul\":10133:10139   */\n      dup3\n        /* \"#utility.yul\":10129:10143   */\n      add\n        /* \"#utility.yul\":10122:10167   */\n      mstore\n        /* \"#utility.yul\":10005:10174   */\n      pop\n      jump\t// out\n        /* \"#utility.yul\":10180:10546   */\n    tag_173:\n        /* \"#utility.yul\":10322:10325   */\n      0x00\n        /* \"#utility.yul\":10343:10410   */\n      tag_285\n        /* \"#utility.yul\":10407:10409   */\n      0x13\n        /* \"#utility.yul\":10402:10405   */\n      dup4\n        /* \"#utility.yul\":10343:10410   */\n      tag_163\n      jump\t// in\n    tag_285:\n        /* \"#utility.yul\":10336:10410   */\n      swap2\n      pop\n        /* \"#utility.yul\":10419:10512   */\n      tag_286\n        /* \"#utility.yul\":10508:10511   */\n      dup3\n        /* \"#utility.yul\":10419:10512   */\n      tag_172\n      jump\t// in\n    tag_286:\n        /* \"#utility.yul\":10537:10539   */\n      0x20\n        /* \"#utility.yul\":10532:10535   */\n      dup3\n        /* \"#utility.yul\":10528:10540   */\n      add\n        /* \"#utility.yul\":10521:10540   */\n      swap1\n      pop\n        /* \"#utility.yul\":10180:10546   */\n      swap2\n      swap1\n      pop\n      jump\t// out\n        /* \"#utility.yul\":10552:10971   */\n    tag_69:\n        /* \"#utility.yul\":10718:10722   */\n      0x00\n        /* \"#utility.yul\":10756:10758   */\n      0x20\n        /* \"#utility.yul\":10745:10754   */\n      dup3\n        /* \"#utility.yul\":10741:10759   */\n      add\n        /* \"#utility.yul\":10733:10759   */\n      swap1\n      pop\n        /* \"#utility.yul\":10805:10814   */\n      dup2\n        /* \"#utility.yul\":10799:10803   */\n      dup2\n        /* \"#utility.yul\":10795:10815   */\n      sub\n        /* \"#utility.yul\":10791:10792   */\n      0x00\n        /* \"#utility.yul\":10780:10789   */\n      dup4\n        /* \"#utility.yul\":10776:10793   */\n      add\n        /* \"#utility.yul\":10769:10816   */\n      mstore\n        /* \"#utility.yul\":10833:10964   */\n      tag_288\n        /* \"#utility.yul\":10959:10963   */\n      dup2\n        /* \"#utility.yul\":10833:10964   */\n      tag_173\n      jump\t// in\n    tag_288:\n        /* \"#utility.yul\":10825:10964   */\n      swap1\n      pop\n        /* \"#utility.yul\":10552:10971   */\n      swap2\n      swap1\n      pop\n      jump\t// out\n        /* \"#utility.yul\":10977:11309   */\n    tag_72:\n        /* \"#utility.yul\":11098:11102   */\n      0x00\n        /* \"#utility.yul\":11136:11138   */\n      0x40\n        /* \"#utility.yul\":11125:11134   */\n      dup3\n        /* \"#utility.yul\":11121:11139   */\n      add\n        /* \"#utility.yul\":11113:11139   */\n      swap1\n      pop\n        /* \"#utility.yul\":11149:11220   */\n      tag_290\n        /* \"#utility.yul\":11217:11218   */\n      0x00\n        /* \"#utility.yul\":11206:11215   */\n      dup4\n        /* \"#utility.yul\":11202:11219   */\n      add\n        /* \"#utility.yul\":11193:11199   */\n      dup6\n        /* \"#utility.yul\":11149:11220   */\n      tag_170\n      jump\t// in\n    tag_290:\n        /* \"#utility.yul\":11230:11302   */\n      tag_291\n        /* \"#utility.yul\":11298:11300   */\n      0x20\n        /* \"#utility.yul\":11287:11296   */\n      dup4\n        /* \"#utility.yul\":11283:11301   */\n      add\n        /* \"#utility.yul\":11274:11280   */\n      dup5\n        /* \"#utility.yul\":11230:11302   */\n      tag_170\n      jump\t// in\n    tag_291:\n        /* \"#utility.yul\":10977:11309   */\n      swap4\n      swap3\n      pop\n      pop\n      pop\n      jump\t// out\n        /* \"#utility.yul\":11315:11405   */\n    tag_174:\n        /* \"#utility.yul\":11349:11356   */\n      0x00\n        /* \"#utility.yul\":11392:11397   */\n      dup2\n        /* \"#utility.yul\":11385:11398   */\n      iszero\n        /* \"#utility.yul\":11378:11399   */\n      iszero\n        /* \"#utility.yul\":11367:11399   */\n      swap1\n      pop\n        /* \"#utility.yul\":11315:11405   */\n      swap2\n      swap1\n      pop\n      jump\t// out\n        /* \"#utility.yul\":11411:11527   */\n    tag_175:\n        /* \"#utility.yul\":11481:11502   */\n      tag_294\n        /* \"#utility.yul\":11496:11501   */\n      dup2\n        /* \"#utility.yul\":11481:11502   */\n      tag_174\n      jump\t// in\n    tag_294:\n        /* \"#utility.yul\":11474:11479   */\n      dup2\n        /* \"#utility.yul\":11471:11503   */\n      eq\n        /* \"#utility.yul\":11461:11521   */\n      tag_295\n      jumpi\n        /* \"#utility.yul\":11517:11518   */\n      0x00\n        /* \"#utility.yul\":11514:11515   */\n      dup1\n        /* \"#utility.yul\":11507:11519   */\n      revert\n        /* \"#utility.yul\":11461:11521   */\n    tag_295:\n        /* \"#utility.yul\":11411:11527   */\n      pop\n      jump\t// out\n        /* \"#utility.yul\":11533:11670   */\n    tag_176:\n        /* \"#utility.yul\":11587:11592   */\n      0x00\n        /* \"#utility.yul\":11618:11624   */\n      dup2\n        /* \"#utility.yul\":11612:11625   */\n      mload\n        /* \"#utility.yul\":11603:11625   */\n      swap1\n      pop\n        /* \"#utility.yul\":11634:11664   */\n      tag_297\n        /* \"#utility.yul\":11658:11663   */\n      dup2\n        /* \"#utility.yul\":11634:11664   */\n      tag_175\n      jump\t// in\n    tag_297:\n        /* \"#utility.yul\":11533:11670   */\n      swap3\n      swap2\n      pop\n      pop\n      jump\t// out\n        /* \"#utility.yul\":11676:12021   */\n    tag_76:\n        /* \"#utility.yul\":11743:11749   */\n      0x00\n        /* \"#utility.yul\":11792:11794   */\n      0x20\n        /* \"#utility.yul\":11780:11789   */\n      dup3\n        /* \"#utility.yul\":11771:11778   */\n      dup5\n        /* \"#utility.yul\":11767:11790   */\n      sub\n        /* \"#utility.yul\":11763:11795   */\n      slt\n        /* \"#utility.yul\":11760:11879   */\n      iszero\n      tag_299\n      jumpi\n        /* \"#utility.yul\":11798:11877   */\n      tag_300\n      tag_147\n      jump\t// in\n    tag_300:\n        /* \"#utility.yul\":11760:11879   */\n    tag_299:\n        /* \"#utility.yul\":11918:11919   */\n      0x00\n        /* \"#utility.yul\":11943:12004   */\n      tag_301\n        /* \"#utility.yul\":11996:12003   */\n      dup5\n        /* \"#utility.yul\":11987:11993   */\n      dup3\n        /* \"#utility.yul\":11976:11985   */\n      dup6\n        /* \"#utility.yul\":11972:11994   */\n      add\n        /* \"#utility.yul\":11943:12004   */\n      tag_176\n      jump\t// in\n    tag_301:\n        /* \"#utility.yul\":11933:12004   */\n      swap2\n      pop\n        /* \"#utility.yul\":11889:12014   */\n      pop\n        /* \"#utility.yul\":11676:12021   */\n      swap3\n      swap2\n      pop\n      pop\n      jump\t// out\n        /* \"#utility.yul\":12027:12205   */\n    tag_177:\n        /* \"#utility.yul\":12167:12197   */\n      0x4e6674206e6f7420617070726f76656420746f20636f6e747261637400000000\n        /* \"#utility.yul\":12163:12164   */\n      0x00\n        /* \"#utility.yul\":12155:12161   */\n      dup3\n        /* \"#utility.yul\":12151:12165   */\n      add\n        /* \"#utility.yul\":12144:12198   */\n      mstore\n        /* \"#utility.yul\":12027:12205   */\n      pop\n      jump\t// out\n        /* \"#utility.yul\":12211:12577   */\n    tag_178:\n        /* \"#utility.yul\":12353:12356   */\n      0x00\n        /* \"#utility.yul\":12374:12441   */\n      tag_304\n        /* \"#utility.yul\":12438:12440   */\n      0x1c\n        /* \"#utility.yul\":12433:12436   */\n      dup4\n        /* \"#utility.yul\":12374:12441   */\n      tag_163\n      jump\t// in\n    tag_304:\n        /* \"#utility.yul\":12367:12441   */\n      swap2\n      pop\n        /* \"#utility.yul\":12450:12543   */\n      tag_305\n        /* \"#utility.yul\":12539:12542   */\n      dup3\n        /* \"#utility.yul\":12450:12543   */\n      tag_177\n      jump\t// in\n    tag_305:\n        /* \"#utility.yul\":12568:12570   */\n      0x20\n        /* \"#utility.yul\":12563:12566   */\n      dup3\n        /* \"#utility.yul\":12559:12571   */\n      add\n        /* \"#utility.yul\":12552:12571   */\n      swap1\n      pop\n        /* \"#utility.yul\":12211:12577   */\n      swap2\n      swap1\n      pop\n      jump\t// out\n        /* \"#utility.yul\":12583:13002   */\n    tag_79:\n        /* \"#utility.yul\":12749:12753   */\n      0x00\n        /* \"#utility.yul\":12787:12789   */\n      0x20\n        /* \"#utility.yul\":12776:12785   */\n      dup3\n        /* \"#utility.yul\":12772:12790   */\n      add\n        /* \"#utility.yul\":12764:12790   */\n      swap1\n      pop\n        /* \"#utility.yul\":12836:12845   */\n      dup2\n        /* \"#utility.yul\":12830:12834   */\n      dup2\n        /* \"#utility.yul\":12826:12846   */\n      sub\n        /* \"#utility.yul\":12822:12823   */\n      0x00\n        /* \"#utility.yul\":12811:12820   */\n      dup4\n        /* \"#utility.yul\":12807:12824   */\n      add\n        /* \"#utility.yul\":12800:12847   */\n      mstore\n        /* \"#utility.yul\":12864:12995   */\n      tag_307\n        /* \"#utility.yul\":12990:12994   */\n      dup2\n        /* \"#utility.yul\":12864:12995   */\n      tag_178\n      jump\t// in\n    tag_307:\n        /* \"#utility.yul\":12856:12995   */\n      swap1\n      pop\n        /* \"#utility.yul\":12583:13002   */\n      swap2\n      swap1\n      pop\n      jump\t// out\n        /* \"#utility.yul\":13008:13450   */\n    tag_85:\n        /* \"#utility.yul\":13157:13161   */\n      0x00\n        /* \"#utility.yul\":13195:13197   */\n      0x60\n        /* \"#utility.yul\":13184:13193   */\n      dup3\n        /* \"#utility.yul\":13180:13198   */\n      add\n        /* \"#utility.yul\":13172:13198   */\n      swap1\n      pop\n        /* \"#utility.yul\":13208:13279   */\n      tag_309\n        /* \"#utility.yul\":13276:13277   */\n      0x00\n        /* \"#utility.yul\":13265:13274   */\n      dup4\n        /* \"#utility.yul\":13261:13278   */\n      add\n        /* \"#utility.yul\":13252:13258   */\n      dup7\n        /* \"#utility.yul\":13208:13279   */\n      tag_170\n      jump\t// in\n    tag_309:\n        /* \"#utility.yul\":13289:13361   */\n      tag_310\n        /* \"#utility.yul\":13357:13359   */\n      0x20\n        /* \"#utility.yul\":13346:13355   */\n      dup4\n        /* \"#utility.yul\":13342:13360   */\n      add\n        /* \"#utility.yul\":13333:13339   */\n      dup6\n        /* \"#utility.yul\":13289:13361   */\n      tag_170\n      jump\t// in\n    tag_310:\n        /* \"#utility.yul\":13371:13443   */\n      tag_311\n        /* \"#utility.yul\":13439:13441   */\n      0x40\n        /* \"#utility.yul\":13428:13437   */\n      dup4\n        /* \"#utility.yul\":13424:13442   */\n      add\n        /* \"#utility.yul\":13415:13421   */\n      dup5\n        /* \"#utility.yul\":13371:13443   */\n      tag_162\n      jump\t// in\n    tag_311:\n        /* \"#utility.yul\":13008:13450   */\n      swap5\n      swap4\n      pop\n      pop\n      pop\n      pop\n      jump\t// out\n        /* \"#utility.yul\":13456:14231   */\n    tag_90:\n        /* \"#utility.yul\":13689:13693   */\n      0x00\n        /* \"#utility.yul\":13727:13730   */\n      0xc0\n        /* \"#utility.yul\":13716:13725   */\n      dup3\n        /* \"#utility.yul\":13712:13731   */\n      add\n        /* \"#utility.yul\":13704:13731   */\n      swap1\n      pop\n        /* \"#utility.yul\":13741:13812   */\n      tag_313\n        /* \"#utility.yul\":13809:13810   */\n      0x00\n        /* \"#utility.yul\":13798:13807   */\n      dup4\n        /* \"#utility.yul\":13794:13811   */\n      add\n        /* \"#utility.yul\":13785:13791   */\n      dup10\n        /* \"#utility.yul\":13741:13812   */\n      tag_170\n      jump\t// in\n    tag_313:\n        /* \"#utility.yul\":13822:13894   */\n      tag_314\n        /* \"#utility.yul\":13890:13892   */\n      0x20\n        /* \"#utility.yul\":13879:13888   */\n      dup4\n        /* \"#utility.yul\":13875:13893   */\n      add\n        /* \"#utility.yul\":13866:13872   */\n      dup9\n        /* \"#utility.yul\":13822:13894   */\n      tag_170\n      jump\t// in\n    tag_314:\n        /* \"#utility.yul\":13904:13976   */\n      tag_315\n        /* \"#utility.yul\":13972:13974   */\n      0x40\n        /* \"#utility.yul\":13961:13970   */\n      dup4\n        /* \"#utility.yul\":13957:13975   */\n      add\n        /* \"#utility.yul\":13948:13954   */\n      dup8\n        /* \"#utility.yul\":13904:13976   */\n      tag_170\n      jump\t// in\n    tag_315:\n        /* \"#utility.yul\":13986:14058   */\n      tag_316\n        /* \"#utility.yul\":14054:14056   */\n      0x60\n        /* \"#utility.yul\":14043:14052   */\n      dup4\n        /* \"#utility.yul\":14039:14057   */\n      add\n        /* \"#utility.yul\":14030:14036   */\n      dup7\n        /* \"#utility.yul\":13986:14058   */\n      tag_162\n      jump\t// in\n    tag_316:\n        /* \"#utility.yul\":14068:14141   */\n      tag_317\n        /* \"#utility.yul\":14136:14139   */\n      0x80\n        /* \"#utility.yul\":14125:14134   */\n      dup4\n        /* \"#utility.yul\":14121:14140   */\n      add\n        /* \"#utility.yul\":14112:14118   */\n      dup6\n        /* \"#utility.yul\":14068:14141   */\n      tag_162\n      jump\t// in\n    tag_317:\n        /* \"#utility.yul\":14151:14224   */\n      tag_318\n        /* \"#utility.yul\":14219:14222   */\n      0xa0\n        /* \"#utility.yul\":14208:14217   */\n      dup4\n        /* \"#utility.yul\":14204:14223   */\n      add\n        /* \"#utility.yul\":14195:14201   */\n      dup5\n        /* \"#utility.yul\":14151:14224   */\n      tag_162\n      jump\t// in\n    tag_318:\n        /* \"#utility.yul\":13456:14231   */\n      swap8\n      swap7\n      pop\n      pop\n      pop\n      pop\n      pop\n      pop\n      pop\n      jump\t// out\n        /* \"#utility.yul\":14237:14407   */\n    tag_179:\n        /* \"#utility.yul\":14377:14399   */\n      0x627579205072696365206e6f7420656e6f756768000000000000000000000000\n        /* \"#utility.yul\":14373:14374   */\n      0x00\n        /* \"#utility.yul\":14365:14371   */\n      dup3\n        /* \"#utility.yul\":14361:14375   */\n      add\n        /* \"#utility.yul\":14354:14400   */\n      mstore\n        /* \"#utility.yul\":14237:14407   */\n      pop\n      jump\t// out\n        /* \"#utility.yul\":14413:14779   */\n    tag_180:\n        /* \"#utility.yul\":14555:14558   */\n      0x00\n        /* \"#utility.yul\":14576:14643   */\n      tag_321\n        /* \"#utility.yul\":14640:14642   */\n      0x14\n        /* \"#utility.yul\":14635:14638   */\n      dup4\n        /* \"#utility.yul\":14576:14643   */\n      tag_163\n      jump\t// in\n    tag_321:\n        /* \"#utility.yul\":14569:14643   */\n      swap2\n      pop\n        /* \"#utility.yul\":14652:14745   */\n      tag_322\n        /* \"#utility.yul\":14741:14744   */\n      dup3\n        /* \"#utility.yul\":14652:14745   */\n      tag_179\n      jump\t// in\n    tag_322:\n        /* \"#utility.yul\":14770:14772   */\n      0x20\n        /* \"#utility.yul\":14765:14768   */\n      dup3\n        /* \"#utility.yul\":14761:14773   */\n      add\n        /* \"#utility.yul\":14754:14773   */\n      swap1\n      pop\n        /* \"#utility.yul\":14413:14779   */\n      swap2\n      swap1\n      pop\n      jump\t// out\n        /* \"#utility.yul\":14785:15204   */\n    tag_100:\n        /* \"#utility.yul\":14951:14955   */\n      0x00\n        /* \"#utility.yul\":14989:14991   */\n      0x20\n        /* \"#utility.yul\":14978:14987   */\n      dup3\n        /* \"#utility.yul\":14974:14992   */\n      add\n        /* \"#utility.yul\":14966:14992   */\n      swap1\n      pop\n        /* \"#utility.yul\":15038:15047   */\n      dup2\n        /* \"#utility.yul\":15032:15036   */\n      dup2\n        /* \"#utility.yul\":15028:15048   */\n      sub\n        /* \"#utility.yul\":15024:15025   */\n      0x00\n        /* \"#utility.yul\":15013:15022   */\n      dup4\n        /* \"#utility.yul\":15009:15026   */\n      add\n        /* \"#utility.yul\":15002:15049   */\n      mstore\n        /* \"#utility.yul\":15066:15197   */\n      tag_324\n        /* \"#utility.yul\":15192:15196   */\n      dup2\n        /* \"#utility.yul\":15066:15197   */\n      tag_180\n      jump\t// in\n    tag_324:\n        /* \"#utility.yul\":15058:15197   */\n      swap1\n      pop\n        /* \"#utility.yul\":14785:15204   */\n      swap2\n      swap1\n      pop\n      jump\t// out\n        /* \"#utility.yul\":15210:15763   */\n    tag_109:\n        /* \"#utility.yul\":15387:15391   */\n      0x00\n        /* \"#utility.yul\":15425:15428   */\n      0x80\n        /* \"#utility.yul\":15414:15423   */\n      dup3\n        /* \"#utility.yul\":15410:15429   */\n      add\n        /* \"#utility.yul\":15402:15429   */\n      swap1\n      pop\n        /* \"#utility.yul\":15439:15510   */\n      tag_326\n        /* \"#utility.yul\":15507:15508   */\n      0x00\n        /* \"#utility.yul\":15496:15505   */\n      dup4\n        /* \"#utility.yul\":15492:15509   */\n      add\n        /* \"#utility.yul\":15483:15489   */\n      dup8\n        /* \"#utility.yul\":15439:15510   */\n      tag_170\n      jump\t// in\n    tag_326:\n        /* \"#utility.yul\":15520:15592   */\n      tag_327\n        /* \"#utility.yul\":15588:15590   */\n      0x20\n        /* \"#utility.yul\":15577:15586   */\n      dup4\n        /* \"#utility.yul\":15573:15591   */\n      add\n        /* \"#utility.yul\":15564:15570   */\n      dup7\n        /* \"#utility.yul\":15520:15592   */\n      tag_170\n      jump\t// in\n    tag_327:\n        /* \"#utility.yul\":15602:15674   */\n      tag_328\n        /* \"#utility.yul\":15670:15672   */\n      0x40\n        /* \"#utility.yul\":15659:15668   */\n      dup4\n        /* \"#utility.yul\":15655:15673   */\n      add\n        /* \"#utility.yul\":15646:15652   */\n      dup6\n        /* \"#utility.yul\":15602:15674   */\n      tag_162\n      jump\t// in\n    tag_328:\n        /* \"#utility.yul\":15684:15756   */\n      tag_329\n        /* \"#utility.yul\":15752:15754   */\n      0x60\n        /* \"#utility.yul\":15741:15750   */\n      dup4\n        /* \"#utility.yul\":15737:15755   */\n      add\n        /* \"#utility.yul\":15728:15734   */\n      dup5\n        /* \"#utility.yul\":15684:15756   */\n      tag_162\n      jump\t// in\n    tag_329:\n        /* \"#utility.yul\":15210:15763   */\n      swap6\n      swap5\n      pop\n      pop\n      pop\n      pop\n      pop\n      jump\t// out\n        /* \"#utility.yul\":15769:15939   */\n    tag_181:\n        /* \"#utility.yul\":15909:15931   */\n      0x616c6c6f77616e6365206e6f7420656e6f756768000000000000000000000000\n        /* \"#utility.yul\":15905:15906   */\n      0x00\n        /* \"#utility.yul\":15897:15903   */\n      dup3\n        /* \"#utility.yul\":15893:15907   */\n      add\n        /* \"#utility.yul\":15886:15932   */\n      mstore\n        /* \"#utility.yul\":15769:15939   */\n      pop\n      jump\t// out\n        /* \"#utility.yul\":15945:16311   */\n    tag_182:\n        /* \"#utility.yul\":16087:16090   */\n      0x00\n        /* \"#utility.yul\":16108:16175   */\n      tag_332\n        /* \"#utility.yul\":16172:16174   */\n      0x14\n        /* \"#utility.yul\":16167:16170   */\n      dup4\n        /* \"#utility.yul\":16108:16175   */\n      tag_163\n      jump\t// in\n    tag_332:\n        /* \"#utility.yul\":16101:16175   */\n      swap2\n      pop\n        /* \"#utility.yul\":16184:16277   */\n      tag_333\n        /* \"#utility.yul\":16273:16276   */\n      dup3\n        /* \"#utility.yul\":16184:16277   */\n      tag_181\n      jump\t// in\n    tag_333:\n        /* \"#utility.yul\":16302:16304   */\n      0x20\n        /* \"#utility.yul\":16297:16300   */\n      dup3\n        /* \"#utility.yul\":16293:16305   */\n      add\n        /* \"#utility.yul\":16286:16305   */\n      swap1\n      pop\n        /* \"#utility.yul\":15945:16311   */\n      swap2\n      swap1\n      pop\n      jump\t// out\n        /* \"#utility.yul\":16317:16736   */\n    tag_136:\n        /* \"#utility.yul\":16483:16487   */\n      0x00\n        /* \"#utility.yul\":16521:16523   */\n      0x20\n        /* \"#utility.yul\":16510:16519   */\n      dup3\n        /* \"#utility.yul\":16506:16524   */\n      add\n        /* \"#utility.yul\":16498:16524   */\n      swap1\n      pop\n        /* \"#utility.yul\":16570:16579   */\n      dup2\n        /* \"#utility.yul\":16564:16568   */\n      dup2\n        /* \"#utility.yul\":16560:16580   */\n      sub\n        /* \"#utility.yul\":16556:16557   */\n      0x00\n        /* \"#utility.yul\":16545:16554   */\n      dup4\n        /* \"#utility.yul\":16541:16558   */\n      add\n        /* \"#utility.yul\":16534:16581   */\n      mstore\n        /* \"#utility.yul\":16598:16729   */\n      tag_335\n        /* \"#utility.yul\":16724:16728   */\n      dup2\n        /* \"#utility.yul\":16598:16729   */\n      tag_182\n      jump\t// in\n    tag_335:\n        /* \"#utility.yul\":16590:16729   */\n      swap1\n      pop\n        /* \"#utility.yul\":16317:16736   */\n      swap2\n      swap1\n      pop\n      jump\t// out\n        /* \"#utility.yul\":16742:16889   */\n    tag_183:\n        /* \"#utility.yul\":16843:16854   */\n      0x00\n        /* \"#utility.yul\":16880:16883   */\n      dup2\n        /* \"#utility.yul\":16865:16883   */\n      swap1\n      pop\n        /* \"#utility.yul\":16742:16889   */\n      swap3\n      swap2\n      pop\n      pop\n      jump\t// out\n        /* \"#utility.yul\":16895:17009   */\n    tag_184:\n      pop\n      jump\t// out\n        /* \"#utility.yul\":17015:17413   */\n    tag_185:\n        /* \"#utility.yul\":17174:17177   */\n      0x00\n        /* \"#utility.yul\":17195:17278   */\n      tag_339\n        /* \"#utility.yul\":17276:17277   */\n      0x00\n        /* \"#utility.yul\":17271:17274   */\n      dup4\n        /* \"#utility.yul\":17195:17278   */\n      tag_183\n      jump\t// in\n    tag_339:\n        /* \"#utility.yul\":17188:17278   */\n      swap2\n      pop\n        /* \"#utility.yul\":17287:17380   */\n      tag_340\n        /* \"#utility.yul\":17376:17379   */\n      dup3\n        /* \"#utility.yul\":17287:17380   */\n      tag_184\n      jump\t// in\n    tag_340:\n        /* \"#utility.yul\":17405:17406   */\n      0x00\n        /* \"#utility.yul\":17400:17403   */\n      dup3\n        /* \"#utility.yul\":17396:17407   */\n      add\n        /* \"#utility.yul\":17389:17407   */\n      swap1\n      pop\n        /* \"#utility.yul\":17015:17413   */\n      swap2\n      swap1\n      pop\n      jump\t// out\n        /* \"#utility.yul\":17419:17798   */\n    tag_139:\n        /* \"#utility.yul\":17603:17606   */\n      0x00\n        /* \"#utility.yul\":17625:17772   */\n      tag_342\n        /* \"#utility.yul\":17768:17771   */\n      dup3\n        /* \"#utility.yul\":17625:17772   */\n      tag_185\n      jump\t// in\n    tag_342:\n        /* \"#utility.yul\":17618:17772   */\n      swap2\n      pop\n        /* \"#utility.yul\":17789:17792   */\n      dup2\n        /* \"#utility.yul\":17782:17792   */\n      swap1\n      pop\n        /* \"#utility.yul\":17419:17798   */\n      swap2\n      swap1\n      pop\n      jump\t// out\n        /* \"#utility.yul\":17804:17967   */\n    tag_186:\n        /* \"#utility.yul\":17944:17959   */\n      0x726566756e64206661696c656400000000000000000000000000000000000000\n        /* \"#utility.yul\":17940:17941   */\n      0x00\n        /* \"#utility.yul\":17932:17938   */\n      dup3\n        /* \"#utility.yul\":17928:17942   */\n      add\n        /* \"#utility.yul\":17921:17960   */\n      mstore\n        /* \"#utility.yul\":17804:17967   */\n      pop\n      jump\t// out\n        /* \"#utility.yul\":17973:18339   */\n    tag_187:\n        /* \"#utility.yul\":18115:18118   */\n      0x00\n        /* \"#utility.yul\":18136:18203   */\n      tag_345\n        /* \"#utility.yul\":18200:18202   */\n      0x0d\n        /* \"#utility.yul\":18195:18198   */\n      dup4\n        /* \"#utility.yul\":18136:18203   */\n      tag_163\n      jump\t// in\n    tag_345:\n        /* \"#utility.yul\":18129:18203   */\n      swap2\n      pop\n        /* \"#utility.yul\":18212:18305   */\n      tag_346\n        /* \"#utility.yul\":18301:18304   */\n      dup3\n        /* \"#utility.yul\":18212:18305   */\n      tag_186\n      jump\t// in\n    tag_346:\n        /* \"#utility.yul\":18330:18332   */\n      0x20\n        /* \"#utility.yul\":18325:18328   */\n      dup3\n        /* \"#utility.yul\":18321:18333   */\n      add\n        /* \"#utility.yul\":18314:18333   */\n      swap1\n      pop\n        /* \"#utility.yul\":17973:18339   */\n      swap2\n      swap1\n      pop\n      jump\t// out\n        /* \"#utility.yul\":18345:18764   */\n    tag_145:\n        /* \"#utility.yul\":18511:18515   */\n      0x00\n        /* \"#utility.yul\":18549:18551   */\n      0x20\n        /* \"#utility.yul\":18538:18547   */\n      dup3\n        /* \"#utility.yul\":18534:18552   */\n      add\n        /* \"#utility.yul\":18526:18552   */\n      swap1\n      pop\n        /* \"#utility.yul\":18598:18607   */\n      dup2\n        /* \"#utility.yul\":18592:18596   */\n      dup2\n        /* \"#utility.yul\":18588:18608   */\n      sub\n        /* \"#utility.yul\":18584:18585   */\n      0x00\n        /* \"#utility.yul\":18573:18582   */\n      dup4\n        /* \"#utility.yul\":18569:18586   */\n      add\n        /* \"#utility.yul\":18562:18609   */\n      mstore\n        /* \"#utility.yul\":18626:18757   */\n      tag_348\n        /* \"#utility.yul\":18752:18756   */\n      dup2\n        /* \"#utility.yul\":18626:18757   */\n      tag_187\n      jump\t// in\n    tag_348:\n        /* \"#utility.yul\":18618:18757   */\n      swap1\n      pop\n        /* \"#utility.yul\":18345:18764   */\n      swap2\n      swap1\n      pop\n      jump\t// out\n\n    auxdata: 0xa2646970667358221220d07e392bd287562d1f17c395cbd2c9bfaa1f4e7041d119a64dfac450d0771de664736f6c63430008100033\n}\n",
				"bytecode": {
					"linkReferences": {},
					"object": "608060405234801561001057600080fd5b50611aa7806100206000396000f3fe6080604052600436106100595760003560e01c8063150b7a02146100655780634676adca146100a25780636916462f146100cb57806369a6d12e14610108578063baf4371e14610131578063d3a6a6c91461014d57610060565b3661006057005b600080fd5b34801561007157600080fd5b5061008c600480360381019061008791906112c5565b610176565b6040516100999190611388565b60405180910390f35b3480156100ae57600080fd5b506100c960048036038101906100c491906113a3565b61018b565b005b3480156100d757600080fd5b506100f260048036038101906100ed91906113f6565b6103e1565b6040516100ff9190611445565b60405180910390f35b34801561011457600080fd5b5061012f600480360381019061012a9190611460565b610406565b005b61014b600480360381019061014691906113a3565b61092c565b005b34801561015957600080fd5b50610174600480360381019061016f91906113f6565b610d7b565b005b600063150b7a0260e01b905095945050505050565b828260018060008473ffffffffffffffffffffffffffffffffffffffff1673ffffffffffffffffffffffffffffffffffffffff1681526020019081526020016000206000838152602001908152602001600020541461021f576040517f08c379a000000000000000000000000000000000000000000000000000000000815260040161021690611524565b60405180910390fd5b84846000808373ffffffffffffffffffffffffffffffffffffffff1673ffffffffffffffffffffffffffffffffffffffff168152602001908152602001600020600082815260200190815260200160002060000160009054906101000a900473ffffffffffffffffffffffffffffffffffffffff1673ffffffffffffffffffffffffffffffffffffffff163373ffffffffffffffffffffffffffffffffffffffff1614610301576040517f08c379a00000000000000000000000000000000000000000000000000000000081526004016102f890611590565b60405180910390fd5b8460008111610345576040517f08c379a000000000000000000000000000000000000000000000000000000000815260040161033c906115fc565b60405180910390fd5b856000808a73ffffffffffffffffffffffffffffffffffffffff1673ffffffffffffffffffffffffffffffffffffffff1681526020019081526020016000206000898152602001908152602001600020600301819055507f575a0876095ccf47276a37dce683308a625403d132d219f95205ce205b2e12bc8888886040516103cf9392919061162b565b60405180910390a15050505050505050565b6001602052816000526040600020602052806000526040600020600091509150505481565b83828173ffffffffffffffffffffffffffffffffffffffff16636352211e826040518263ffffffff1660e01b81526004016104419190611445565b602060405180830381865afa15801561045e573d6000803e3d6000fd5b505050506040513d601f19601f820116820180604052508101906104829190611677565b73ffffffffffffffffffffffffffffffffffffffff163373ffffffffffffffffffffffffffffffffffffffff16146104ef576040517f08c379a00000000000000000000000000000000000000000000000000000000081526004016104e690611590565b60405180910390fd5b85846000600160008473ffffffffffffffffffffffffffffffffffffffff1673ffffffffffffffffffffffffffffffffffffffff16815260200190815260200160002060008381526020019081526020016000205414610584576040517f08c379a000000000000000000000000000000000000000000000000000000000815260040161057b906116f0565b60405180910390fd5b87868173ffffffffffffffffffffffffffffffffffffffff1663e985e9c533306040518363ffffffff1660e01b81526004016105c1929190611710565b602060405180830381865afa1580156105de573d6000803e3d6000fd5b505050506040513d601f19601f820116820180604052508101906106029190611771565b610641576040517f08c379a0000000000000000000000000000000000000000000000000000000008152600401610638906117ea565b60405180910390fd5b8660008111610685576040517f08c379a000000000000000000000000000000000000000000000000000000000815260040161067c906115fc565b60405180910390fd5b60405180608001604052803373ffffffffffffffffffffffffffffffffffffffff168152602001600073ffffffffffffffffffffffffffffffffffffffff1681526020018b73ffffffffffffffffffffffffffffffffffffffff168152602001898152506000808d73ffffffffffffffffffffffffffffffffffffffff1673ffffffffffffffffffffffffffffffffffffffff16815260200190815260200160002060008b815260200190815260200160002060008201518160000160006101000a81548173ffffffffffffffffffffffffffffffffffffffff021916908373ffffffffffffffffffffffffffffffffffffffff16021790555060208201518160010160006101000a81548173ffffffffffffffffffffffffffffffffffffffff021916908373ffffffffffffffffffffffffffffffffffffffff16021790555060408201518160020160006101000a81548173ffffffffffffffffffffffffffffffffffffffff021916908373ffffffffffffffffffffffffffffffffffffffff1602179055506060820151816003015590505060018060008d73ffffffffffffffffffffffffffffffffffffffff1673ffffffffffffffffffffffffffffffffffffffff16815260200190815260200160002060008b8152602001908152602001600020819055508a73ffffffffffffffffffffffffffffffffffffffff166342842e0e33308c6040518463ffffffff1660e01b81526004016108ac9392919061180a565b600060405180830381600087803b1580156108c657600080fd5b505af11580156108da573d6000803e3d6000fd5b505050507f078eead3cd01ed921c7653d000a6b73aea643a7b9c066fb7d93eb2eae8acc2d98b338c8c8c4260405161091796959493929190611841565b60405180910390a15050505050505050505050565b828260018060008473ffffffffffffffffffffffffffffffffffffffff1673ffffffffffffffffffffffffffffffffffffffff168152602001908152602001600020600083815260200190815260200160002054146109c0576040517f08c379a00000000000000000000000000000000000000000000000000000000081526004016109b790611524565b60405180910390fd5b8260008111610a04576040517f08c379a00000000000000000000000000000000000000000000000000000000081526004016109fb906115fc565b60405180910390fd5b8585856000808473ffffffffffffffffffffffffffffffffffffffff1673ffffffffffffffffffffffffffffffffffffffff168152602001908152602001600020600083815260200190815260200160002060030154811015610a9c576040517f08c379a0000000000000000000000000000000000000000000000000000000008152600401610a93906118ee565b60405180910390fd5b8873ffffffffffffffffffffffffffffffffffffffff166342842e0e30338b6040518463ffffffff1660e01b8152600401610ad99392919061180a565b600060405180830381600087803b158015610af357600080fd5b505af1158015610b07573d6000803e3d6000fd5b505050506000600160008b73ffffffffffffffffffffffffffffffffffffffff1673ffffffffffffffffffffffffffffffffffffffff16815260200190815260200160002060008a815260200190815260200160002081905550336000808b73ffffffffffffffffffffffffffffffffffffffff1673ffffffffffffffffffffffffffffffffffffffff16815260200190815260200160002060008a815260200190815260200160002060010160006101000a81548173ffffffffffffffffffffffffffffffffffffffff021916908373ffffffffffffffffffffffffffffffffffffffff160217905550610d336000808b73ffffffffffffffffffffffffffffffffffffffff1673ffffffffffffffffffffffffffffffffffffffff16815260200190815260200160002060008a815260200190815260200160002060000160009054906101000a900473ffffffffffffffffffffffffffffffffffffffff166000808c73ffffffffffffffffffffffffffffffffffffffff1673ffffffffffffffffffffffffffffffffffffffff16815260200190815260200160002060008b815260200190815260200160002060020160009054906101000a900473ffffffffffffffffffffffffffffffffffffffff166000808d73ffffffffffffffffffffffffffffffffffffffff1673ffffffffffffffffffffffffffffffffffffffff16815260200190815260200160002060008c815260200190815260200160002060030154610ff9565b7f9fa3b1bb9266e05722b54a7a564d02a274bc80d39f4af21e6be405480996ceba89338a8a604051610d68949392919061190e565b60405180910390a1505050505050505050565b818160018060008473ffffffffffffffffffffffffffffffffffffffff1673ffffffffffffffffffffffffffffffffffffffff16815260200190815260200160002060008381526020019081526020016000205414610e0f576040517f08c379a0000000000000000000000000000000000000000000000000000000008152600401610e0690611524565b60405180910390fd5b83836000808373ffffffffffffffffffffffffffffffffffffffff1673ffffffffffffffffffffffffffffffffffffffff168152602001908152602001600020600082815260200190815260200160002060000160009054906101000a900473ffffffffffffffffffffffffffffffffffffffff1673ffffffffffffffffffffffffffffffffffffffff163373ffffffffffffffffffffffffffffffffffffffff1614610ef1576040517f08c379a0000000000000000000000000000000000000000000000000000000008152600401610ee890611590565b60405180910390fd5b8573ffffffffffffffffffffffffffffffffffffffff166342842e0e3033886040518463ffffffff1660e01b8152600401610f2e9392919061180a565b600060405180830381600087803b158015610f4857600080fd5b505af1158015610f5c573d6000803e3d6000fd5b505050506000600160008873ffffffffffffffffffffffffffffffffffffffff1673ffffffffffffffffffffffffffffffffffffffff1681526020019081526020016000206000878152602001908152602001600020819055507fd7348ff00cf381a884144b50b3441398a48a7974ec349287df80e18cec9f5a31863387604051610fe99392919061180a565b60405180910390a1505050505050565b600073ffffffffffffffffffffffffffffffffffffffff168273ffffffffffffffffffffffffffffffffffffffff161461103d5761103883838361104d565b611048565b6110478382611111565b5b505050565b8173ffffffffffffffffffffffffffffffffffffffff166323b872dd3385846040518463ffffffff1660e01b815260040161108a9392919061180a565b6020604051808303816000875af11580156110a9573d6000803e3d6000fd5b505050506040513d601f19601f820116820180604052508101906110cd9190611771565b61110c576040517f08c379a00000000000000000000000000000000000000000000000000000000081526004016111039061199f565b60405180910390fd5b505050565b60008273ffffffffffffffffffffffffffffffffffffffff1682604051611137906119f0565b60006040518083038185875af1925050503d8060008114611174576040519150601f19603f3d011682016040523d82523d6000602084013e611179565b606091505b50509050806111bd576040517f08c379a00000000000000000000000000000000000000000000000000000000081526004016111b490611a51565b60405180910390fd5b505050565b600080fd5b600080fd5b600073ffffffffffffffffffffffffffffffffffffffff82169050919050565b60006111f7826111cc565b9050919050565b611207816111ec565b811461121257600080fd5b50565b600081359050611224816111fe565b92915050565b6000819050919050565b61123d8161122a565b811461124857600080fd5b50565b60008135905061125a81611234565b92915050565b600080fd5b600080fd5b600080fd5b60008083601f84011261128557611284611260565b5b8235905067ffffffffffffffff8111156112a2576112a1611265565b5b6020830191508360018202830111156112be576112bd61126a565b5b9250929050565b6000806000806000608086880312156112e1576112e06111c2565b5b60006112ef88828901611215565b955050602061130088828901611215565b94505060406113118882890161124b565b935050606086013567ffffffffffffffff811115611332576113316111c7565b5b61133e8882890161126f565b92509250509295509295909350565b60007fffffffff0000000000000000000000000000000000000000000000000000000082169050919050565b6113828161134d565b82525050565b600060208201905061139d6000830184611379565b92915050565b6000806000606084860312156113bc576113bb6111c2565b5b60006113ca86828701611215565b93505060206113db8682870161124b565b92505060406113ec8682870161124b565b9150509250925092565b6000806040838503121561140d5761140c6111c2565b5b600061141b85828601611215565b925050602061142c8582860161124b565b9150509250929050565b61143f8161122a565b82525050565b600060208201905061145a6000830184611436565b92915050565b6000806000806080858703121561147a576114796111c2565b5b600061148887828801611215565b945050602061149987828801611215565b93505060406114aa8782880161124b565b92505060606114bb8782880161124b565b91505092959194509250565b600082825260208201905092915050565b7f4e6674206e6f7420696e2066697865642073616c650000000000000000000000600082015250565b600061150e6015836114c7565b9150611519826114d8565b602082019050919050565b6000602082019050818103600083015261153d81611501565b9050919050565b7f596f7520617265206e6f74206e6674206f776e65720000000000000000000000600082015250565b600061157a6015836114c7565b915061158582611544565b602082019050919050565b600060208201905081810360008301526115a98161156d565b9050919050565b7f50726963652063616e6e6f742062652030000000000000000000000000000000600082015250565b60006115e66011836114c7565b91506115f1826115b0565b602082019050919050565b60006020820190508181036000830152611615816115d9565b9050919050565b611625816111ec565b82525050565b6000606082019050611640600083018661161c565b61164d6020830185611436565b61165a6040830184611436565b949350505050565b600081519050611671816111fe565b92915050565b60006020828403121561168d5761168c6111c2565b5b600061169b84828501611662565b91505092915050565b7f4e667420616c726561647920696e2073616c6500000000000000000000000000600082015250565b60006116da6013836114c7565b91506116e5826116a4565b602082019050919050565b60006020820190508181036000830152611709816116cd565b9050919050565b6000604082019050611725600083018561161c565b611732602083018461161c565b9392505050565b60008115159050919050565b61174e81611739565b811461175957600080fd5b50565b60008151905061176b81611745565b92915050565b600060208284031215611787576117866111c2565b5b60006117958482850161175c565b91505092915050565b7f4e6674206e6f7420617070726f76656420746f20636f6e747261637400000000600082015250565b60006117d4601c836114c7565b91506117df8261179e565b602082019050919050565b60006020820190508181036000830152611803816117c7565b9050919050565b600060608201905061181f600083018661161c565b61182c602083018561161c565b6118396040830184611436565b949350505050565b600060c082019050611856600083018961161c565b611863602083018861161c565b611870604083018761161c565b61187d6060830186611436565b61188a6080830185611436565b61189760a0830184611436565b979650505050505050565b7f627579205072696365206e6f7420656e6f756768000000000000000000000000600082015250565b60006118d86014836114c7565b91506118e3826118a2565b602082019050919050565b60006020820190508181036000830152611907816118cb565b9050919050565b6000608082019050611923600083018761161c565b611930602083018661161c565b61193d6040830185611436565b61194a6060830184611436565b95945050505050565b7f616c6c6f77616e6365206e6f7420656e6f756768000000000000000000000000600082015250565b60006119896014836114c7565b915061199482611953565b602082019050919050565b600060208201905081810360008301526119b88161197c565b9050919050565b600081905092915050565b50565b60006119da6000836119bf565b91506119e5826119ca565b600082019050919050565b60006119fb826119cd565b9150819050919050565b7f726566756e64206661696c656400000000000000000000000000000000000000600082015250565b6000611a3b600d836114c7565b9150611a4682611a05565b602082019050919050565b60006020820190508181036000830152611a6a81611a2e565b905091905056fea2646970667358221220d07e392bd287562d1f17c395cbd2c9bfaa1f4e7041d119a64dfac450d0771de664736f6c63430008100033",
					"opcodes": "PUSH1 0x80 PUSH1 0x40 MSTORE CALLVALUE DUP1 ISZERO PUSH2 0x10 JUMPI PUSH1 0x0 DUP1 REVERT JUMPDEST POP PUSH2 0x1AA7 DUP1 PUSH2 0x20 PUSH1 0x0 CODECOPY PUSH1 0x0 RETURN INVALID PUSH1 0x80 PUSH1 0x40 MSTORE PUSH1 0x4 CALLDATASIZE LT PUSH2 0x59 JUMPI PUSH1 0x0 CALLDATALOAD PUSH1 0xE0 SHR DUP1 PUSH4 0x150B7A02 EQ PUSH2 0x65 JUMPI DUP1 PUSH4 0x4676ADCA EQ PUSH2 0xA2 JUMPI DUP1 PUSH4 0x6916462F EQ PUSH2 0xCB JUMPI DUP1 PUSH4 0x69A6D12E EQ PUSH2 0x108 JUMPI DUP1 PUSH4 0xBAF4371E EQ PUSH2 0x131 JUMPI DUP1 PUSH4 0xD3A6A6C9 EQ PUSH2 0x14D JUMPI PUSH2 0x60 JUMP JUMPDEST CALLDATASIZE PUSH2 0x60 JUMPI STOP JUMPDEST PUSH1 0x0 DUP1 REVERT JUMPDEST CALLVALUE DUP1 ISZERO PUSH2 0x71 JUMPI PUSH1 0x0 DUP1 REVERT JUMPDEST POP PUSH2 0x8C PUSH1 0x4 DUP1 CALLDATASIZE SUB DUP2 ADD SWAP1 PUSH2 0x87 SWAP2 SWAP1 PUSH2 0x12C5 JUMP JUMPDEST PUSH2 0x176 JUMP JUMPDEST PUSH1 0x40 MLOAD PUSH2 0x99 SWAP2 SWAP1 PUSH2 0x1388 JUMP JUMPDEST PUSH1 0x40 MLOAD DUP1 SWAP2 SUB SWAP1 RETURN JUMPDEST CALLVALUE DUP1 ISZERO PUSH2 0xAE JUMPI PUSH1 0x0 DUP1 REVERT JUMPDEST POP PUSH2 0xC9 PUSH1 0x4 DUP1 CALLDATASIZE SUB DUP2 ADD SWAP1 PUSH2 0xC4 SWAP2 SWAP1 PUSH2 0x13A3 JUMP JUMPDEST PUSH2 0x18B JUMP JUMPDEST STOP JUMPDEST CALLVALUE DUP1 ISZERO PUSH2 0xD7 JUMPI PUSH1 0x0 DUP1 REVERT JUMPDEST POP PUSH2 0xF2 PUSH1 0x4 DUP1 CALLDATASIZE SUB DUP2 ADD SWAP1 PUSH2 0xED SWAP2 SWAP1 PUSH2 0x13F6 JUMP JUMPDEST PUSH2 0x3E1 JUMP JUMPDEST PUSH1 0x40 MLOAD PUSH2 0xFF SWAP2 SWAP1 PUSH2 0x1445 JUMP JUMPDEST PUSH1 0x40 MLOAD DUP1 SWAP2 SUB SWAP1 RETURN JUMPDEST CALLVALUE DUP1 ISZERO PUSH2 0x114 JUMPI PUSH1 0x0 DUP1 REVERT JUMPDEST POP PUSH2 0x12F PUSH1 0x4 DUP1 CALLDATASIZE SUB DUP2 ADD SWAP1 PUSH2 0x12A SWAP2 SWAP1 PUSH2 0x1460 JUMP JUMPDEST PUSH2 0x406 JUMP JUMPDEST STOP JUMPDEST PUSH2 0x14B PUSH1 0x4 DUP1 CALLDATASIZE SUB DUP2 ADD SWAP1 PUSH2 0x146 SWAP2 SWAP1 PUSH2 0x13A3 JUMP JUMPDEST PUSH2 0x92C JUMP JUMPDEST STOP JUMPDEST CALLVALUE DUP1 ISZERO PUSH2 0x159 JUMPI PUSH1 0x0 DUP1 REVERT JUMPDEST POP PUSH2 0x174 PUSH1 0x4 DUP1 CALLDATASIZE SUB DUP2 ADD SWAP1 PUSH2 0x16F SWAP2 SWAP1 PUSH2 0x13F6 JUMP JUMPDEST PUSH2 0xD7B JUMP JUMPDEST STOP JUMPDEST PUSH1 0x0 PUSH4 0x150B7A02 PUSH1 0xE0 SHL SWAP1 POP SWAP6 SWAP5 POP POP POP POP POP JUMP JUMPDEST DUP3 DUP3 PUSH1 0x1 DUP1 PUSH1 0x0 DUP5 PUSH20 0xFFFFFFFFFFFFFFFFFFFFFFFFFFFFFFFFFFFFFFFF AND PUSH20 0xFFFFFFFFFFFFFFFFFFFFFFFFFFFFFFFFFFFFFFFF AND DUP2 MSTORE PUSH1 0x20 ADD SWAP1 DUP2 MSTORE PUSH1 0x20 ADD PUSH1 0x0 KECCAK256 PUSH1 0x0 DUP4 DUP2 MSTORE PUSH1 0x20 ADD SWAP1 DUP2 MSTORE PUSH1 0x20 ADD PUSH1 0x0 KECCAK256 SLOAD EQ PUSH2 0x21F JUMPI PUSH1 0x40 MLOAD PUSH32 0x8C379A000000000000000000000000000000000000000000000000000000000 DUP2 MSTORE PUSH1 0x4 ADD PUSH2 0x216 SWAP1 PUSH2 0x1524 JUMP JUMPDEST PUSH1 0x40 MLOAD DUP1 SWAP2 SUB SWAP1 REVERT JUMPDEST DUP5 DUP5 PUSH1 0x0 DUP1 DUP4 PUSH20 0xFFFFFFFFFFFFFFFFFFFFFFFFFFFFFFFFFFFFFFFF AND PUSH20 0xFFFFFFFFFFFFFFFFFFFFFFFFFFFFFFFFFFFFFFFF AND DUP2 MSTORE PUSH1 0x20 ADD SWAP1 DUP2 MSTORE PUSH1 0x20 ADD PUSH1 0x0 KECCAK256 PUSH1 0x0 DUP3 DUP2 MSTORE PUSH1 0x20 ADD SWAP1 DUP2 MSTORE PUSH1 0x20 ADD PUSH1 0x0 KECCAK256 PUSH1 0x0 ADD PUSH1 0x0 SWAP1 SLOAD SWAP1 PUSH2 0x100 EXP SWAP1 DIV PUSH20 0xFFFFFFFFFFFFFFFFFFFFFFFFFFFFFFFFFFFFFFFF AND PUSH20 0xFFFFFFFFFFFFFFFFFFFFFFFFFFFFFFFFFFFFFFFF AND CALLER PUSH20 0xFFFFFFFFFFFFFFFFFFFFFFFFFFFFFFFFFFFFFFFF AND EQ PUSH2 0x301 JUMPI PUSH1 0x40 MLOAD PUSH32 0x8C379A000000000000000000000000000000000000000000000000000000000 DUP2 MSTORE PUSH1 0x4 ADD PUSH2 0x2F8 SWAP1 PUSH2 0x1590 JUMP JUMPDEST PUSH1 0x40 MLOAD DUP1 SWAP2 SUB SWAP1 REVERT JUMPDEST DUP5 PUSH1 0x0 DUP2 GT PUSH2 0x345 JUMPI PUSH1 0x40 MLOAD PUSH32 0x8C379A000000000000000000000000000000000000000000000000000000000 DUP2 MSTORE PUSH1 0x4 ADD PUSH2 0x33C SWAP1 PUSH2 0x15FC JUMP JUMPDEST PUSH1 0x40 MLOAD DUP1 SWAP2 SUB SWAP1 REVERT JUMPDEST DUP6 PUSH1 0x0 DUP1 DUP11 PUSH20 0xFFFFFFFFFFFFFFFFFFFFFFFFFFFFFFFFFFFFFFFF AND PUSH20 0xFFFFFFFFFFFFFFFFFFFFFFFFFFFFFFFFFFFFFFFF AND DUP2 MSTORE PUSH1 0x20 ADD SWAP1 DUP2 MSTORE PUSH1 0x20 ADD PUSH1 0x0 KECCAK256 PUSH1 0x0 DUP10 DUP2 MSTORE PUSH1 0x20 ADD SWAP1 DUP2 MSTORE PUSH1 0x20 ADD PUSH1 0x0 KECCAK256 PUSH1 0x3 ADD DUP2 SWAP1 SSTORE POP PUSH32 0x575A0876095CCF47276A37DCE683308A625403D132D219F95205CE205B2E12BC DUP9 DUP9 DUP9 PUSH1 0x40 MLOAD PUSH2 0x3CF SWAP4 SWAP3 SWAP2 SWAP1 PUSH2 0x162B JUMP JUMPDEST PUSH1 0x40 MLOAD DUP1 SWAP2 SUB SWAP1 LOG1 POP POP POP POP POP POP POP POP JUMP JUMPDEST PUSH1 0x1 PUSH1 0x20 MSTORE DUP2 PUSH1 0x0 MSTORE PUSH1 0x40 PUSH1 0x0 KECCAK256 PUSH1 0x20 MSTORE DUP1 PUSH1 0x0 MSTORE PUSH1 0x40 PUSH1 0x0 KECCAK256 PUSH1 0x0 SWAP2 POP SWAP2 POP POP SLOAD DUP2 JUMP JUMPDEST DUP4 DUP3 DUP2 PUSH20 0xFFFFFFFFFFFFFFFFFFFFFFFFFFFFFFFFFFFFFFFF AND PUSH4 0x6352211E DUP3 PUSH1 0x40 MLOAD DUP3 PUSH4 0xFFFFFFFF AND PUSH1 0xE0 SHL DUP2 MSTORE PUSH1 0x4 ADD PUSH2 0x441 SWAP2 SWAP1 PUSH2 0x1445 JUMP JUMPDEST PUSH1 0x20 PUSH1 0x40 MLOAD DUP1 DUP4 SUB DUP2 DUP7 GAS STATICCALL ISZERO DUP1 ISZERO PUSH2 0x45E JUMPI RETURNDATASIZE PUSH1 0x0 DUP1 RETURNDATACOPY RETURNDATASIZE PUSH1 0x0 REVERT JUMPDEST POP POP POP POP PUSH1 0x40 MLOAD RETURNDATASIZE PUSH1 0x1F NOT PUSH1 0x1F DUP3 ADD AND DUP3 ADD DUP1 PUSH1 0x40 MSTORE POP DUP2 ADD SWAP1 PUSH2 0x482 SWAP2 SWAP1 PUSH2 0x1677 JUMP JUMPDEST PUSH20 0xFFFFFFFFFFFFFFFFFFFFFFFFFFFFFFFFFFFFFFFF AND CALLER PUSH20 0xFFFFFFFFFFFFFFFFFFFFFFFFFFFFFFFFFFFFFFFF AND EQ PUSH2 0x4EF JUMPI PUSH1 0x40 MLOAD PUSH32 0x8C379A000000000000000000000000000000000000000000000000000000000 DUP2 MSTORE PUSH1 0x4 ADD PUSH2 0x4E6 SWAP1 PUSH2 0x1590 JUMP JUMPDEST PUSH1 0x40 MLOAD DUP1 SWAP2 SUB SWAP1 REVERT JUMPDEST DUP6 DUP5 PUSH1 0x0 PUSH1 0x1 PUSH1 0x0 DUP5 PUSH20 0xFFFFFFFFFFFFFFFFFFFFFFFFFFFFFFFFFFFFFFFF AND PUSH20 0xFFFFFFFFFFFFFFFFFFFFFFFFFFFFFFFFFFFFFFFF AND DUP2 MSTORE PUSH1 0x20 ADD SWAP1 DUP2 MSTORE PUSH1 0x20 ADD PUSH1 0x0 KECCAK256 PUSH1 0x0 DUP4 DUP2 MSTORE PUSH1 0x20 ADD SWAP1 DUP2 MSTORE PUSH1 0x20 ADD PUSH1 0x0 KECCAK256 SLOAD EQ PUSH2 0x584 JUMPI PUSH1 0x40 MLOAD PUSH32 0x8C379A000000000000000000000000000000000000000000000000000000000 DUP2 MSTORE PUSH1 0x4 ADD PUSH2 0x57B SWAP1 PUSH2 0x16F0 JUMP JUMPDEST PUSH1 0x40 MLOAD DUP1 SWAP2 SUB SWAP1 REVERT JUMPDEST DUP8 DUP7 DUP2 PUSH20 0xFFFFFFFFFFFFFFFFFFFFFFFFFFFFFFFFFFFFFFFF AND PUSH4 0xE985E9C5 CALLER ADDRESS PUSH1 0x40 MLOAD DUP4 PUSH4 0xFFFFFFFF AND PUSH1 0xE0 SHL DUP2 MSTORE PUSH1 0x4 ADD PUSH2 0x5C1 SWAP3 SWAP2 SWAP1 PUSH2 0x1710 JUMP JUMPDEST PUSH1 0x20 PUSH1 0x40 MLOAD DUP1 DUP4 SUB DUP2 DUP7 GAS STATICCALL ISZERO DUP1 ISZERO PUSH2 0x5DE JUMPI RETURNDATASIZE PUSH1 0x0 DUP1 RETURNDATACOPY RETURNDATASIZE PUSH1 0x0 REVERT JUMPDEST POP POP POP POP PUSH1 0x40 MLOAD RETURNDATASIZE PUSH1 0x1F NOT PUSH1 0x1F DUP3 ADD AND DUP3 ADD DUP1 PUSH1 0x40 MSTORE POP DUP2 ADD SWAP1 PUSH2 0x602 SWAP2 SWAP1 PUSH2 0x1771 JUMP JUMPDEST PUSH2 0x641 JUMPI PUSH1 0x40 MLOAD PUSH32 0x8C379A000000000000000000000000000000000000000000000000000000000 DUP2 MSTORE PUSH1 0x4 ADD PUSH2 0x638 SWAP1 PUSH2 0x17EA JUMP JUMPDEST PUSH1 0x40 MLOAD DUP1 SWAP2 SUB SWAP1 REVERT JUMPDEST DUP7 PUSH1 0x0 DUP2 GT PUSH2 0x685 JUMPI PUSH1 0x40 MLOAD PUSH32 0x8C379A000000000000000000000000000000000000000000000000000000000 DUP2 MSTORE PUSH1 0x4 ADD PUSH2 0x67C SWAP1 PUSH2 0x15FC JUMP JUMPDEST PUSH1 0x40 MLOAD DUP1 SWAP2 SUB SWAP1 REVERT JUMPDEST PUSH1 0x40 MLOAD DUP1 PUSH1 0x80 ADD PUSH1 0x40 MSTORE DUP1 CALLER PUSH20 0xFFFFFFFFFFFFFFFFFFFFFFFFFFFFFFFFFFFFFFFF AND DUP2 MSTORE PUSH1 0x20 ADD PUSH1 0x0 PUSH20 0xFFFFFFFFFFFFFFFFFFFFFFFFFFFFFFFFFFFFFFFF AND DUP2 MSTORE PUSH1 0x20 ADD DUP12 PUSH20 0xFFFFFFFFFFFFFFFFFFFFFFFFFFFFFFFFFFFFFFFF AND DUP2 MSTORE PUSH1 0x20 ADD DUP10 DUP2 MSTORE POP PUSH1 0x0 DUP1 DUP14 PUSH20 0xFFFFFFFFFFFFFFFFFFFFFFFFFFFFFFFFFFFFFFFF AND PUSH20 0xFFFFFFFFFFFFFFFFFFFFFFFFFFFFFFFFFFFFFFFF AND DUP2 MSTORE PUSH1 0x20 ADD SWAP1 DUP2 MSTORE PUSH1 0x20 ADD PUSH1 0x0 KECCAK256 PUSH1 0x0 DUP12 DUP2 MSTORE PUSH1 0x20 ADD SWAP1 DUP2 MSTORE PUSH1 0x20 ADD PUSH1 0x0 KECCAK256 PUSH1 0x0 DUP3 ADD MLOAD DUP2 PUSH1 0x0 ADD PUSH1 0x0 PUSH2 0x100 EXP DUP2 SLOAD DUP2 PUSH20 0xFFFFFFFFFFFFFFFFFFFFFFFFFFFFFFFFFFFFFFFF MUL NOT AND SWAP1 DUP4 PUSH20 0xFFFFFFFFFFFFFFFFFFFFFFFFFFFFFFFFFFFFFFFF AND MUL OR SWAP1 SSTORE POP PUSH1 0x20 DUP3 ADD MLOAD DUP2 PUSH1 0x1 ADD PUSH1 0x0 PUSH2 0x100 EXP DUP2 SLOAD DUP2 PUSH20 0xFFFFFFFFFFFFFFFFFFFFFFFFFFFFFFFFFFFFFFFF MUL NOT AND SWAP1 DUP4 PUSH20 0xFFFFFFFFFFFFFFFFFFFFFFFFFFFFFFFFFFFFFFFF AND MUL OR SWAP1 SSTORE POP PUSH1 0x40 DUP3 ADD MLOAD DUP2 PUSH1 0x2 ADD PUSH1 0x0 PUSH2 0x100 EXP DUP2 SLOAD DUP2 PUSH20 0xFFFFFFFFFFFFFFFFFFFFFFFFFFFFFFFFFFFFFFFF MUL NOT AND SWAP1 DUP4 PUSH20 0xFFFFFFFFFFFFFFFFFFFFFFFFFFFFFFFFFFFFFFFF AND MUL OR SWAP1 SSTORE POP PUSH1 0x60 DUP3 ADD MLOAD DUP2 PUSH1 0x3 ADD SSTORE SWAP1 POP POP PUSH1 0x1 DUP1 PUSH1 0x0 DUP14 PUSH20 0xFFFFFFFFFFFFFFFFFFFFFFFFFFFFFFFFFFFFFFFF AND PUSH20 0xFFFFFFFFFFFFFFFFFFFFFFFFFFFFFFFFFFFFFFFF AND DUP2 MSTORE PUSH1 0x20 ADD SWAP1 DUP2 MSTORE PUSH1 0x20 ADD PUSH1 0x0 KECCAK256 PUSH1 0x0 DUP12 DUP2 MSTORE PUSH1 0x20 ADD SWAP1 DUP2 MSTORE PUSH1 0x20 ADD PUSH1 0x0 KECCAK256 DUP2 SWAP1 SSTORE POP DUP11 PUSH20 0xFFFFFFFFFFFFFFFFFFFFFFFFFFFFFFFFFFFFFFFF AND PUSH4 0x42842E0E CALLER ADDRESS DUP13 PUSH1 0x40 MLOAD DUP5 PUSH4 0xFFFFFFFF AND PUSH1 0xE0 SHL DUP2 MSTORE PUSH1 0x4 ADD PUSH2 0x8AC SWAP4 SWAP3 SWAP2 SWAP1 PUSH2 0x180A JUMP JUMPDEST PUSH1 0x0 PUSH1 0x40 MLOAD DUP1 DUP4 SUB DUP2 PUSH1 0x0 DUP8 DUP1 EXTCODESIZE ISZERO DUP1 ISZERO PUSH2 0x8C6 JUMPI PUSH1 0x0 DUP1 REVERT JUMPDEST POP GAS CALL ISZERO DUP1 ISZERO PUSH2 0x8DA JUMPI RETURNDATASIZE PUSH1 0x0 DUP1 RETURNDATACOPY RETURNDATASIZE PUSH1 0x0 REVERT JUMPDEST POP POP POP POP PUSH32 0x78EEAD3CD01ED921C7653D000A6B73AEA643A7B9C066FB7D93EB2EAE8ACC2D9 DUP12 CALLER DUP13 DUP13 DUP13 TIMESTAMP PUSH1 0x40 MLOAD PUSH2 0x917 SWAP7 SWAP6 SWAP5 SWAP4 SWAP3 SWAP2 SWAP1 PUSH2 0x1841 JUMP JUMPDEST PUSH1 0x40 MLOAD DUP1 SWAP2 SUB SWAP1 LOG1 POP POP POP POP POP POP POP POP POP POP POP JUMP JUMPDEST DUP3 DUP3 PUSH1 0x1 DUP1 PUSH1 0x0 DUP5 PUSH20 0xFFFFFFFFFFFFFFFFFFFFFFFFFFFFFFFFFFFFFFFF AND PUSH20 0xFFFFFFFFFFFFFFFFFFFFFFFFFFFFFFFFFFFFFFFF AND DUP2 MSTORE PUSH1 0x20 ADD SWAP1 DUP2 MSTORE PUSH1 0x20 ADD PUSH1 0x0 KECCAK256 PUSH1 0x0 DUP4 DUP2 MSTORE PUSH1 0x20 ADD SWAP1 DUP2 MSTORE PUSH1 0x20 ADD PUSH1 0x0 KECCAK256 SLOAD EQ PUSH2 0x9C0 JUMPI PUSH1 0x40 MLOAD PUSH32 0x8C379A000000000000000000000000000000000000000000000000000000000 DUP2 MSTORE PUSH1 0x4 ADD PUSH2 0x9B7 SWAP1 PUSH2 0x1524 JUMP JUMPDEST PUSH1 0x40 MLOAD DUP1 SWAP2 SUB SWAP1 REVERT JUMPDEST DUP3 PUSH1 0x0 DUP2 GT PUSH2 0xA04 JUMPI PUSH1 0x40 MLOAD PUSH32 0x8C379A000000000000000000000000000000000000000000000000000000000 DUP2 MSTORE PUSH1 0x4 ADD PUSH2 0x9FB SWAP1 PUSH2 0x15FC JUMP JUMPDEST PUSH1 0x40 MLOAD DUP1 SWAP2 SUB SWAP1 REVERT JUMPDEST DUP6 DUP6 DUP6 PUSH1 0x0 DUP1 DUP5 PUSH20 0xFFFFFFFFFFFFFFFFFFFFFFFFFFFFFFFFFFFFFFFF AND PUSH20 0xFFFFFFFFFFFFFFFFFFFFFFFFFFFFFFFFFFFFFFFF AND DUP2 MSTORE PUSH1 0x20 ADD SWAP1 DUP2 MSTORE PUSH1 0x20 ADD PUSH1 0x0 KECCAK256 PUSH1 0x0 DUP4 DUP2 MSTORE PUSH1 0x20 ADD SWAP1 DUP2 MSTORE PUSH1 0x20 ADD PUSH1 0x0 KECCAK256 PUSH1 0x3 ADD SLOAD DUP2 LT ISZERO PUSH2 0xA9C JUMPI PUSH1 0x40 MLOAD PUSH32 0x8C379A000000000000000000000000000000000000000000000000000000000 DUP2 MSTORE PUSH1 0x4 ADD PUSH2 0xA93 SWAP1 PUSH2 0x18EE JUMP JUMPDEST PUSH1 0x40 MLOAD DUP1 SWAP2 SUB SWAP1 REVERT JUMPDEST DUP9 PUSH20 0xFFFFFFFFFFFFFFFFFFFFFFFFFFFFFFFFFFFFFFFF AND PUSH4 0x42842E0E ADDRESS CALLER DUP12 PUSH1 0x40 MLOAD DUP5 PUSH4 0xFFFFFFFF AND PUSH1 0xE0 SHL DUP2 MSTORE PUSH1 0x4 ADD PUSH2 0xAD9 SWAP4 SWAP3 SWAP2 SWAP1 PUSH2 0x180A JUMP JUMPDEST PUSH1 0x0 PUSH1 0x40 MLOAD DUP1 DUP4 SUB DUP2 PUSH1 0x0 DUP8 DUP1 EXTCODESIZE ISZERO DUP1 ISZERO PUSH2 0xAF3 JUMPI PUSH1 0x0 DUP1 REVERT JUMPDEST POP GAS CALL ISZERO DUP1 ISZERO PUSH2 0xB07 JUMPI RETURNDATASIZE PUSH1 0x0 DUP1 RETURNDATACOPY RETURNDATASIZE PUSH1 0x0 REVERT JUMPDEST POP POP POP POP PUSH1 0x0 PUSH1 0x1 PUSH1 0x0 DUP12 PUSH20 0xFFFFFFFFFFFFFFFFFFFFFFFFFFFFFFFFFFFFFFFF AND PUSH20 0xFFFFFFFFFFFFFFFFFFFFFFFFFFFFFFFFFFFFFFFF AND DUP2 MSTORE PUSH1 0x20 ADD SWAP1 DUP2 MSTORE PUSH1 0x20 ADD PUSH1 0x0 KECCAK256 PUSH1 0x0 DUP11 DUP2 MSTORE PUSH1 0x20 ADD SWAP1 DUP2 MSTORE PUSH1 0x20 ADD PUSH1 0x0 KECCAK256 DUP2 SWAP1 SSTORE POP CALLER PUSH1 0x0 DUP1 DUP12 PUSH20 0xFFFFFFFFFFFFFFFFFFFFFFFFFFFFFFFFFFFFFFFF AND PUSH20 0xFFFFFFFFFFFFFFFFFFFFFFFFFFFFFFFFFFFFFFFF AND DUP2 MSTORE PUSH1 0x20 ADD SWAP1 DUP2 MSTORE PUSH1 0x20 ADD PUSH1 0x0 KECCAK256 PUSH1 0x0 DUP11 DUP2 MSTORE PUSH1 0x20 ADD SWAP1 DUP2 MSTORE PUSH1 0x20 ADD PUSH1 0x0 KECCAK256 PUSH1 0x1 ADD PUSH1 0x0 PUSH2 0x100 EXP DUP2 SLOAD DUP2 PUSH20 0xFFFFFFFFFFFFFFFFFFFFFFFFFFFFFFFFFFFFFFFF MUL NOT AND SWAP1 DUP4 PUSH20 0xFFFFFFFFFFFFFFFFFFFFFFFFFFFFFFFFFFFFFFFF AND MUL OR SWAP1 SSTORE POP PUSH2 0xD33 PUSH1 0x0 DUP1 DUP12 PUSH20 0xFFFFFFFFFFFFFFFFFFFFFFFFFFFFFFFFFFFFFFFF AND PUSH20 0xFFFFFFFFFFFFFFFFFFFFFFFFFFFFFFFFFFFFFFFF AND DUP2 MSTORE PUSH1 0x20 ADD SWAP1 DUP2 MSTORE PUSH1 0x20 ADD PUSH1 0x0 KECCAK256 PUSH1 0x0 DUP11 DUP2 MSTORE PUSH1 0x20 ADD SWAP1 DUP2 MSTORE PUSH1 0x20 ADD PUSH1 0x0 KECCAK256 PUSH1 0x0 ADD PUSH1 0x0 SWAP1 SLOAD SWAP1 PUSH2 0x100 EXP SWAP1 DIV PUSH20 0xFFFFFFFFFFFFFFFFFFFFFFFFFFFFFFFFFFFFFFFF AND PUSH1 0x0 DUP1 DUP13 PUSH20 0xFFFFFFFFFFFFFFFFFFFFFFFFFFFFFFFFFFFFFFFF AND PUSH20 0xFFFFFFFFFFFFFFFFFFFFFFFFFFFFFFFFFFFFFFFF AND DUP2 MSTORE PUSH1 0x20 ADD SWAP1 DUP2 MSTORE PUSH1 0x20 ADD PUSH1 0x0 KECCAK256 PUSH1 0x0 DUP12 DUP2 MSTORE PUSH1 0x20 ADD SWAP1 DUP2 MSTORE PUSH1 0x20 ADD PUSH1 0x0 KECCAK256 PUSH1 0x2 ADD PUSH1 0x0 SWAP1 SLOAD SWAP1 PUSH2 0x100 EXP SWAP1 DIV PUSH20 0xFFFFFFFFFFFFFFFFFFFFFFFFFFFFFFFFFFFFFFFF AND PUSH1 0x0 DUP1 DUP14 PUSH20 0xFFFFFFFFFFFFFFFFFFFFFFFFFFFFFFFFFFFFFFFF AND PUSH20 0xFFFFFFFFFFFFFFFFFFFFFFFFFFFFFFFFFFFFFFFF AND DUP2 MSTORE PUSH1 0x20 ADD SWAP1 DUP2 MSTORE PUSH1 0x20 ADD PUSH1 0x0 KECCAK256 PUSH1 0x0 DUP13 DUP2 MSTORE PUSH1 0x20 ADD SWAP1 DUP2 MSTORE PUSH1 0x20 ADD PUSH1 0x0 KECCAK256 PUSH1 0x3 ADD SLOAD PUSH2 0xFF9 JUMP JUMPDEST PUSH32 0x9FA3B1BB9266E05722B54A7A564D02A274BC80D39F4AF21E6BE405480996CEBA DUP10 CALLER DUP11 DUP11 PUSH1 0x40 MLOAD PUSH2 0xD68 SWAP5 SWAP4 SWAP3 SWAP2 SWAP1 PUSH2 0x190E JUMP JUMPDEST PUSH1 0x40 MLOAD DUP1 SWAP2 SUB SWAP1 LOG1 POP POP POP POP POP POP POP POP POP JUMP JUMPDEST DUP2 DUP2 PUSH1 0x1 DUP1 PUSH1 0x0 DUP5 PUSH20 0xFFFFFFFFFFFFFFFFFFFFFFFFFFFFFFFFFFFFFFFF AND PUSH20 0xFFFFFFFFFFFFFFFFFFFFFFFFFFFFFFFFFFFFFFFF AND DUP2 MSTORE PUSH1 0x20 ADD SWAP1 DUP2 MSTORE PUSH1 0x20 ADD PUSH1 0x0 KECCAK256 PUSH1 0x0 DUP4 DUP2 MSTORE PUSH1 0x20 ADD SWAP1 DUP2 MSTORE PUSH1 0x20 ADD PUSH1 0x0 KECCAK256 SLOAD EQ PUSH2 0xE0F JUMPI PUSH1 0x40 MLOAD PUSH32 0x8C379A000000000000000000000000000000000000000000000000000000000 DUP2 MSTORE PUSH1 0x4 ADD PUSH2 0xE06 SWAP1 PUSH2 0x1524 JUMP JUMPDEST PUSH1 0x40 MLOAD DUP1 SWAP2 SUB SWAP1 REVERT JUMPDEST DUP4 DUP4 PUSH1 0x0 DUP1 DUP4 PUSH20 0xFFFFFFFFFFFFFFFFFFFFFFFFFFFFFFFFFFFFFFFF AND PUSH20 0xFFFFFFFFFFFFFFFFFFFFFFFFFFFFFFFFFFFFFFFF AND DUP2 MSTORE PUSH1 0x20 ADD SWAP1 DUP2 MSTORE PUSH1 0x20 ADD PUSH1 0x0 KECCAK256 PUSH1 0x0 DUP3 DUP2 MSTORE PUSH1 0x20 ADD SWAP1 DUP2 MSTORE PUSH1 0x20 ADD PUSH1 0x0 KECCAK256 PUSH1 0x0 ADD PUSH1 0x0 SWAP1 SLOAD SWAP1 PUSH2 0x100 EXP SWAP1 DIV PUSH20 0xFFFFFFFFFFFFFFFFFFFFFFFFFFFFFFFFFFFFFFFF AND PUSH20 0xFFFFFFFFFFFFFFFFFFFFFFFFFFFFFFFFFFFFFFFF AND CALLER PUSH20 0xFFFFFFFFFFFFFFFFFFFFFFFFFFFFFFFFFFFFFFFF AND EQ PUSH2 0xEF1 JUMPI PUSH1 0x40 MLOAD PUSH32 0x8C379A000000000000000000000000000000000000000000000000000000000 DUP2 MSTORE PUSH1 0x4 ADD PUSH2 0xEE8 SWAP1 PUSH2 0x1590 JUMP JUMPDEST PUSH1 0x40 MLOAD DUP1 SWAP2 SUB SWAP1 REVERT JUMPDEST DUP6 PUSH20 0xFFFFFFFFFFFFFFFFFFFFFFFFFFFFFFFFFFFFFFFF AND PUSH4 0x42842E0E ADDRESS CALLER DUP9 PUSH1 0x40 MLOAD DUP5 PUSH4 0xFFFFFFFF AND PUSH1 0xE0 SHL DUP2 MSTORE PUSH1 0x4 ADD PUSH2 0xF2E SWAP4 SWAP3 SWAP2 SWAP1 PUSH2 0x180A JUMP JUMPDEST PUSH1 0x0 PUSH1 0x40 MLOAD DUP1 DUP4 SUB DUP2 PUSH1 0x0 DUP8 DUP1 EXTCODESIZE ISZERO DUP1 ISZERO PUSH2 0xF48 JUMPI PUSH1 0x0 DUP1 REVERT JUMPDEST POP GAS CALL ISZERO DUP1 ISZERO PUSH2 0xF5C JUMPI RETURNDATASIZE PUSH1 0x0 DUP1 RETURNDATACOPY RETURNDATASIZE PUSH1 0x0 REVERT JUMPDEST POP POP POP POP PUSH1 0x0 PUSH1 0x1 PUSH1 0x0 DUP9 PUSH20 0xFFFFFFFFFFFFFFFFFFFFFFFFFFFFFFFFFFFFFFFF AND PUSH20 0xFFFFFFFFFFFFFFFFFFFFFFFFFFFFFFFFFFFFFFFF AND DUP2 MSTORE PUSH1 0x20 ADD SWAP1 DUP2 MSTORE PUSH1 0x20 ADD PUSH1 0x0 KECCAK256 PUSH1 0x0 DUP8 DUP2 MSTORE PUSH1 0x20 ADD SWAP1 DUP2 MSTORE PUSH1 0x20 ADD PUSH1 0x0 KECCAK256 DUP2 SWAP1 SSTORE POP PUSH32 0xD7348FF00CF381A884144B50B3441398A48A7974EC349287DF80E18CEC9F5A31 DUP7 CALLER DUP8 PUSH1 0x40 MLOAD PUSH2 0xFE9 SWAP4 SWAP3 SWAP2 SWAP1 PUSH2 0x180A JUMP JUMPDEST PUSH1 0x40 MLOAD DUP1 SWAP2 SUB SWAP1 LOG1 POP POP POP POP POP POP JUMP JUMPDEST PUSH1 0x0 PUSH20 0xFFFFFFFFFFFFFFFFFFFFFFFFFFFFFFFFFFFFFFFF AND DUP3 PUSH20 0xFFFFFFFFFFFFFFFFFFFFFFFFFFFFFFFFFFFFFFFF AND EQ PUSH2 0x103D JUMPI PUSH2 0x1038 DUP4 DUP4 DUP4 PUSH2 0x104D JUMP JUMPDEST PUSH2 0x1048 JUMP JUMPDEST PUSH2 0x1047 DUP4 DUP3 PUSH2 0x1111 JUMP JUMPDEST JUMPDEST POP POP POP JUMP JUMPDEST DUP2 PUSH20 0xFFFFFFFFFFFFFFFFFFFFFFFFFFFFFFFFFFFFFFFF AND PUSH4 0x23B872DD CALLER DUP6 DUP5 PUSH1 0x40 MLOAD DUP5 PUSH4 0xFFFFFFFF AND PUSH1 0xE0 SHL DUP2 MSTORE PUSH1 0x4 ADD PUSH2 0x108A SWAP4 SWAP3 SWAP2 SWAP1 PUSH2 0x180A JUMP JUMPDEST PUSH1 0x20 PUSH1 0x40 MLOAD DUP1 DUP4 SUB DUP2 PUSH1 0x0 DUP8 GAS CALL ISZERO DUP1 ISZERO PUSH2 0x10A9 JUMPI RETURNDATASIZE PUSH1 0x0 DUP1 RETURNDATACOPY RETURNDATASIZE PUSH1 0x0 REVERT JUMPDEST POP POP POP POP PUSH1 0x40 MLOAD RETURNDATASIZE PUSH1 0x1F NOT PUSH1 0x1F DUP3 ADD AND DUP3 ADD DUP1 PUSH1 0x40 MSTORE POP DUP2 ADD SWAP1 PUSH2 0x10CD SWAP2 SWAP1 PUSH2 0x1771 JUMP JUMPDEST PUSH2 0x110C JUMPI PUSH1 0x40 MLOAD PUSH32 0x8C379A000000000000000000000000000000000000000000000000000000000 DUP2 MSTORE PUSH1 0x4 ADD PUSH2 0x1103 SWAP1 PUSH2 0x199F JUMP JUMPDEST PUSH1 0x40 MLOAD DUP1 SWAP2 SUB SWAP1 REVERT JUMPDEST POP POP POP JUMP JUMPDEST PUSH1 0x0 DUP3 PUSH20 0xFFFFFFFFFFFFFFFFFFFFFFFFFFFFFFFFFFFFFFFF AND DUP3 PUSH1 0x40 MLOAD PUSH2 0x1137 SWAP1 PUSH2 0x19F0 JUMP JUMPDEST PUSH1 0x0 PUSH1 0x40 MLOAD DUP1 DUP4 SUB DUP2 DUP6 DUP8 GAS CALL SWAP3 POP POP POP RETURNDATASIZE DUP1 PUSH1 0x0 DUP2 EQ PUSH2 0x1174 JUMPI PUSH1 0x40 MLOAD SWAP2 POP PUSH1 0x1F NOT PUSH1 0x3F RETURNDATASIZE ADD AND DUP3 ADD PUSH1 0x40 MSTORE RETURNDATASIZE DUP3 MSTORE RETURNDATASIZE PUSH1 0x0 PUSH1 0x20 DUP5 ADD RETURNDATACOPY PUSH2 0x1179 JUMP JUMPDEST PUSH1 0x60 SWAP2 POP JUMPDEST POP POP SWAP1 POP DUP1 PUSH2 0x11BD JUMPI PUSH1 0x40 MLOAD PUSH32 0x8C379A000000000000000000000000000000000000000000000000000000000 DUP2 MSTORE PUSH1 0x4 ADD PUSH2 0x11B4 SWAP1 PUSH2 0x1A51 JUMP JUMPDEST PUSH1 0x40 MLOAD DUP1 SWAP2 SUB SWAP1 REVERT JUMPDEST POP POP POP JUMP JUMPDEST PUSH1 0x0 DUP1 REVERT JUMPDEST PUSH1 0x0 DUP1 REVERT JUMPDEST PUSH1 0x0 PUSH20 0xFFFFFFFFFFFFFFFFFFFFFFFFFFFFFFFFFFFFFFFF DUP3 AND SWAP1 POP SWAP2 SWAP1 POP JUMP JUMPDEST PUSH1 0x0 PUSH2 0x11F7 DUP3 PUSH2 0x11CC JUMP JUMPDEST SWAP1 POP SWAP2 SWAP1 POP JUMP JUMPDEST PUSH2 0x1207 DUP2 PUSH2 0x11EC JUMP JUMPDEST DUP2 EQ PUSH2 0x1212 JUMPI PUSH1 0x0 DUP1 REVERT JUMPDEST POP JUMP JUMPDEST PUSH1 0x0 DUP2 CALLDATALOAD SWAP1 POP PUSH2 0x1224 DUP2 PUSH2 0x11FE JUMP JUMPDEST SWAP3 SWAP2 POP POP JUMP JUMPDEST PUSH1 0x0 DUP2 SWAP1 POP SWAP2 SWAP1 POP JUMP JUMPDEST PUSH2 0x123D DUP2 PUSH2 0x122A JUMP JUMPDEST DUP2 EQ PUSH2 0x1248 JUMPI PUSH1 0x0 DUP1 REVERT JUMPDEST POP JUMP JUMPDEST PUSH1 0x0 DUP2 CALLDATALOAD SWAP1 POP PUSH2 0x125A DUP2 PUSH2 0x1234 JUMP JUMPDEST SWAP3 SWAP2 POP POP JUMP JUMPDEST PUSH1 0x0 DUP1 REVERT JUMPDEST PUSH1 0x0 DUP1 REVERT JUMPDEST PUSH1 0x0 DUP1 REVERT JUMPDEST PUSH1 0x0 DUP1 DUP4 PUSH1 0x1F DUP5 ADD SLT PUSH2 0x1285 JUMPI PUSH2 0x1284 PUSH2 0x1260 JUMP JUMPDEST JUMPDEST DUP3 CALLDATALOAD SWAP1 POP PUSH8 0xFFFFFFFFFFFFFFFF DUP2 GT ISZERO PUSH2 0x12A2 JUMPI PUSH2 0x12A1 PUSH2 0x1265 JUMP JUMPDEST JUMPDEST PUSH1 0x20 DUP4 ADD SWAP2 POP DUP4 PUSH1 0x1 DUP3 MUL DUP4 ADD GT ISZERO PUSH2 0x12BE JUMPI PUSH2 0x12BD PUSH2 0x126A JUMP JUMPDEST JUMPDEST SWAP3 POP SWAP3 SWAP1 POP JUMP JUMPDEST PUSH1 0x0 DUP1 PUSH1 0x0 DUP1 PUSH1 0x0 PUSH1 0x80 DUP7 DUP9 SUB SLT ISZERO PUSH2 0x12E1 JUMPI PUSH2 0x12E0 PUSH2 0x11C2 JUMP JUMPDEST JUMPDEST PUSH1 0x0 PUSH2 0x12EF DUP9 DUP3 DUP10 ADD PUSH2 0x1215 JUMP JUMPDEST SWAP6 POP POP PUSH1 0x20 PUSH2 0x1300 DUP9 DUP3 DUP10 ADD PUSH2 0x1215 JUMP JUMPDEST SWAP5 POP POP PUSH1 0x40 PUSH2 0x1311 DUP9 DUP3 DUP10 ADD PUSH2 0x124B JUMP JUMPDEST SWAP4 POP POP PUSH1 0x60 DUP7 ADD CALLDATALOAD PUSH8 0xFFFFFFFFFFFFFFFF DUP2 GT ISZERO PUSH2 0x1332 JUMPI PUSH2 0x1331 PUSH2 0x11C7 JUMP JUMPDEST JUMPDEST PUSH2 0x133E DUP9 DUP3 DUP10 ADD PUSH2 0x126F JUMP JUMPDEST SWAP3 POP SWAP3 POP POP SWAP3 SWAP6 POP SWAP3 SWAP6 SWAP1 SWAP4 POP JUMP JUMPDEST PUSH1 0x0 PUSH32 0xFFFFFFFF00000000000000000000000000000000000000000000000000000000 DUP3 AND SWAP1 POP SWAP2 SWAP1 POP JUMP JUMPDEST PUSH2 0x1382 DUP2 PUSH2 0x134D JUMP JUMPDEST DUP3 MSTORE POP POP JUMP JUMPDEST PUSH1 0x0 PUSH1 0x20 DUP3 ADD SWAP1 POP PUSH2 0x139D PUSH1 0x0 DUP4 ADD DUP5 PUSH2 0x1379 JUMP JUMPDEST SWAP3 SWAP2 POP POP JUMP JUMPDEST PUSH1 0x0 DUP1 PUSH1 0x0 PUSH1 0x60 DUP5 DUP7 SUB SLT ISZERO PUSH2 0x13BC JUMPI PUSH2 0x13BB PUSH2 0x11C2 JUMP JUMPDEST JUMPDEST PUSH1 0x0 PUSH2 0x13CA DUP7 DUP3 DUP8 ADD PUSH2 0x1215 JUMP JUMPDEST SWAP4 POP POP PUSH1 0x20 PUSH2 0x13DB DUP7 DUP3 DUP8 ADD PUSH2 0x124B JUMP JUMPDEST SWAP3 POP POP PUSH1 0x40 PUSH2 0x13EC DUP7 DUP3 DUP8 ADD PUSH2 0x124B JUMP JUMPDEST SWAP2 POP POP SWAP3 POP SWAP3 POP SWAP3 JUMP JUMPDEST PUSH1 0x0 DUP1 PUSH1 0x40 DUP4 DUP6 SUB SLT ISZERO PUSH2 0x140D JUMPI PUSH2 0x140C PUSH2 0x11C2 JUMP JUMPDEST JUMPDEST PUSH1 0x0 PUSH2 0x141B DUP6 DUP3 DUP7 ADD PUSH2 0x1215 JUMP JUMPDEST SWAP3 POP POP PUSH1 0x20 PUSH2 0x142C DUP6 DUP3 DUP7 ADD PUSH2 0x124B JUMP JUMPDEST SWAP2 POP POP SWAP3 POP SWAP3 SWAP1 POP JUMP JUMPDEST PUSH2 0x143F DUP2 PUSH2 0x122A JUMP JUMPDEST DUP3 MSTORE POP POP JUMP JUMPDEST PUSH1 0x0 PUSH1 0x20 DUP3 ADD SWAP1 POP PUSH2 0x145A PUSH1 0x0 DUP4 ADD DUP5 PUSH2 0x1436 JUMP JUMPDEST SWAP3 SWAP2 POP POP JUMP JUMPDEST PUSH1 0x0 DUP1 PUSH1 0x0 DUP1 PUSH1 0x80 DUP6 DUP8 SUB SLT ISZERO PUSH2 0x147A JUMPI PUSH2 0x1479 PUSH2 0x11C2 JUMP JUMPDEST JUMPDEST PUSH1 0x0 PUSH2 0x1488 DUP8 DUP3 DUP9 ADD PUSH2 0x1215 JUMP JUMPDEST SWAP5 POP POP PUSH1 0x20 PUSH2 0x1499 DUP8 DUP3 DUP9 ADD PUSH2 0x1215 JUMP JUMPDEST SWAP4 POP POP PUSH1 0x40 PUSH2 0x14AA DUP8 DUP3 DUP9 ADD PUSH2 0x124B JUMP JUMPDEST SWAP3 POP POP PUSH1 0x60 PUSH2 0x14BB DUP8 DUP3 DUP9 ADD PUSH2 0x124B JUMP JUMPDEST SWAP2 POP POP SWAP3 SWAP6 SWAP2 SWAP5 POP SWAP3 POP JUMP JUMPDEST PUSH1 0x0 DUP3 DUP3 MSTORE PUSH1 0x20 DUP3 ADD SWAP1 POP SWAP3 SWAP2 POP POP JUMP JUMPDEST PUSH32 0x4E6674206E6F7420696E2066697865642073616C650000000000000000000000 PUSH1 0x0 DUP3 ADD MSTORE POP JUMP JUMPDEST PUSH1 0x0 PUSH2 0x150E PUSH1 0x15 DUP4 PUSH2 0x14C7 JUMP JUMPDEST SWAP2 POP PUSH2 0x1519 DUP3 PUSH2 0x14D8 JUMP JUMPDEST PUSH1 0x20 DUP3 ADD SWAP1 POP SWAP2 SWAP1 POP JUMP JUMPDEST PUSH1 0x0 PUSH1 0x20 DUP3 ADD SWAP1 POP DUP2 DUP2 SUB PUSH1 0x0 DUP4 ADD MSTORE PUSH2 0x153D DUP2 PUSH2 0x1501 JUMP JUMPDEST SWAP1 POP SWAP2 SWAP1 POP JUMP JUMPDEST PUSH32 0x596F7520617265206E6F74206E6674206F776E65720000000000000000000000 PUSH1 0x0 DUP3 ADD MSTORE POP JUMP JUMPDEST PUSH1 0x0 PUSH2 0x157A PUSH1 0x15 DUP4 PUSH2 0x14C7 JUMP JUMPDEST SWAP2 POP PUSH2 0x1585 DUP3 PUSH2 0x1544 JUMP JUMPDEST PUSH1 0x20 DUP3 ADD SWAP1 POP SWAP2 SWAP1 POP JUMP JUMPDEST PUSH1 0x0 PUSH1 0x20 DUP3 ADD SWAP1 POP DUP2 DUP2 SUB PUSH1 0x0 DUP4 ADD MSTORE PUSH2 0x15A9 DUP2 PUSH2 0x156D JUMP JUMPDEST SWAP1 POP SWAP2 SWAP1 POP JUMP JUMPDEST PUSH32 0x50726963652063616E6E6F742062652030000000000000000000000000000000 PUSH1 0x0 DUP3 ADD MSTORE POP JUMP JUMPDEST PUSH1 0x0 PUSH2 0x15E6 PUSH1 0x11 DUP4 PUSH2 0x14C7 JUMP JUMPDEST SWAP2 POP PUSH2 0x15F1 DUP3 PUSH2 0x15B0 JUMP JUMPDEST PUSH1 0x20 DUP3 ADD SWAP1 POP SWAP2 SWAP1 POP JUMP JUMPDEST PUSH1 0x0 PUSH1 0x20 DUP3 ADD SWAP1 POP DUP2 DUP2 SUB PUSH1 0x0 DUP4 ADD MSTORE PUSH2 0x1615 DUP2 PUSH2 0x15D9 JUMP JUMPDEST SWAP1 POP SWAP2 SWAP1 POP JUMP JUMPDEST PUSH2 0x1625 DUP2 PUSH2 0x11EC JUMP JUMPDEST DUP3 MSTORE POP POP JUMP JUMPDEST PUSH1 0x0 PUSH1 0x60 DUP3 ADD SWAP1 POP PUSH2 0x1640 PUSH1 0x0 DUP4 ADD DUP7 PUSH2 0x161C JUMP JUMPDEST PUSH2 0x164D PUSH1 0x20 DUP4 ADD DUP6 PUSH2 0x1436 JUMP JUMPDEST PUSH2 0x165A PUSH1 0x40 DUP4 ADD DUP5 PUSH2 0x1436 JUMP JUMPDEST SWAP5 SWAP4 POP POP POP POP JUMP JUMPDEST PUSH1 0x0 DUP2 MLOAD SWAP1 POP PUSH2 0x1671 DUP2 PUSH2 0x11FE JUMP JUMPDEST SWAP3 SWAP2 POP POP JUMP JUMPDEST PUSH1 0x0 PUSH1 0x20 DUP3 DUP5 SUB SLT ISZERO PUSH2 0x168D JUMPI PUSH2 0x168C PUSH2 0x11C2 JUMP JUMPDEST JUMPDEST PUSH1 0x0 PUSH2 0x169B DUP5 DUP3 DUP6 ADD PUSH2 0x1662 JUMP JUMPDEST SWAP2 POP POP SWAP3 SWAP2 POP POP JUMP JUMPDEST PUSH32 0x4E667420616C726561647920696E2073616C6500000000000000000000000000 PUSH1 0x0 DUP3 ADD MSTORE POP JUMP JUMPDEST PUSH1 0x0 PUSH2 0x16DA PUSH1 0x13 DUP4 PUSH2 0x14C7 JUMP JUMPDEST SWAP2 POP PUSH2 0x16E5 DUP3 PUSH2 0x16A4 JUMP JUMPDEST PUSH1 0x20 DUP3 ADD SWAP1 POP SWAP2 SWAP1 POP JUMP JUMPDEST PUSH1 0x0 PUSH1 0x20 DUP3 ADD SWAP1 POP DUP2 DUP2 SUB PUSH1 0x0 DUP4 ADD MSTORE PUSH2 0x1709 DUP2 PUSH2 0x16CD JUMP JUMPDEST SWAP1 POP SWAP2 SWAP1 POP JUMP JUMPDEST PUSH1 0x0 PUSH1 0x40 DUP3 ADD SWAP1 POP PUSH2 0x1725 PUSH1 0x0 DUP4 ADD DUP6 PUSH2 0x161C JUMP JUMPDEST PUSH2 0x1732 PUSH1 0x20 DUP4 ADD DUP5 PUSH2 0x161C JUMP JUMPDEST SWAP4 SWAP3 POP POP POP JUMP JUMPDEST PUSH1 0x0 DUP2 ISZERO ISZERO SWAP1 POP SWAP2 SWAP1 POP JUMP JUMPDEST PUSH2 0x174E DUP2 PUSH2 0x1739 JUMP JUMPDEST DUP2 EQ PUSH2 0x1759 JUMPI PUSH1 0x0 DUP1 REVERT JUMPDEST POP JUMP JUMPDEST PUSH1 0x0 DUP2 MLOAD SWAP1 POP PUSH2 0x176B DUP2 PUSH2 0x1745 JUMP JUMPDEST SWAP3 SWAP2 POP POP JUMP JUMPDEST PUSH1 0x0 PUSH1 0x20 DUP3 DUP5 SUB SLT ISZERO PUSH2 0x1787 JUMPI PUSH2 0x1786 PUSH2 0x11C2 JUMP JUMPDEST JUMPDEST PUSH1 0x0 PUSH2 0x1795 DUP5 DUP3 DUP6 ADD PUSH2 0x175C JUMP JUMPDEST SWAP2 POP POP SWAP3 SWAP2 POP POP JUMP JUMPDEST PUSH32 0x4E6674206E6F7420617070726F76656420746F20636F6E747261637400000000 PUSH1 0x0 DUP3 ADD MSTORE POP JUMP JUMPDEST PUSH1 0x0 PUSH2 0x17D4 PUSH1 0x1C DUP4 PUSH2 0x14C7 JUMP JUMPDEST SWAP2 POP PUSH2 0x17DF DUP3 PUSH2 0x179E JUMP JUMPDEST PUSH1 0x20 DUP3 ADD SWAP1 POP SWAP2 SWAP1 POP JUMP JUMPDEST PUSH1 0x0 PUSH1 0x20 DUP3 ADD SWAP1 POP DUP2 DUP2 SUB PUSH1 0x0 DUP4 ADD MSTORE PUSH2 0x1803 DUP2 PUSH2 0x17C7 JUMP JUMPDEST SWAP1 POP SWAP2 SWAP1 POP JUMP JUMPDEST PUSH1 0x0 PUSH1 0x60 DUP3 ADD SWAP1 POP PUSH2 0x181F PUSH1 0x0 DUP4 ADD DUP7 PUSH2 0x161C JUMP JUMPDEST PUSH2 0x182C PUSH1 0x20 DUP4 ADD DUP6 PUSH2 0x161C JUMP JUMPDEST PUSH2 0x1839 PUSH1 0x40 DUP4 ADD DUP5 PUSH2 0x1436 JUMP JUMPDEST SWAP5 SWAP4 POP POP POP POP JUMP JUMPDEST PUSH1 0x0 PUSH1 0xC0 DUP3 ADD SWAP1 POP PUSH2 0x1856 PUSH1 0x0 DUP4 ADD DUP10 PUSH2 0x161C JUMP JUMPDEST PUSH2 0x1863 PUSH1 0x20 DUP4 ADD DUP9 PUSH2 0x161C JUMP JUMPDEST PUSH2 0x1870 PUSH1 0x40 DUP4 ADD DUP8 PUSH2 0x161C JUMP JUMPDEST PUSH2 0x187D PUSH1 0x60 DUP4 ADD DUP7 PUSH2 0x1436 JUMP JUMPDEST PUSH2 0x188A PUSH1 0x80 DUP4 ADD DUP6 PUSH2 0x1436 JUMP JUMPDEST PUSH2 0x1897 PUSH1 0xA0 DUP4 ADD DUP5 PUSH2 0x1436 JUMP JUMPDEST SWAP8 SWAP7 POP POP POP POP POP POP POP JUMP JUMPDEST PUSH32 0x627579205072696365206E6F7420656E6F756768000000000000000000000000 PUSH1 0x0 DUP3 ADD MSTORE POP JUMP JUMPDEST PUSH1 0x0 PUSH2 0x18D8 PUSH1 0x14 DUP4 PUSH2 0x14C7 JUMP JUMPDEST SWAP2 POP PUSH2 0x18E3 DUP3 PUSH2 0x18A2 JUMP JUMPDEST PUSH1 0x20 DUP3 ADD SWAP1 POP SWAP2 SWAP1 POP JUMP JUMPDEST PUSH1 0x0 PUSH1 0x20 DUP3 ADD SWAP1 POP DUP2 DUP2 SUB PUSH1 0x0 DUP4 ADD MSTORE PUSH2 0x1907 DUP2 PUSH2 0x18CB JUMP JUMPDEST SWAP1 POP SWAP2 SWAP1 POP JUMP JUMPDEST PUSH1 0x0 PUSH1 0x80 DUP3 ADD SWAP1 POP PUSH2 0x1923 PUSH1 0x0 DUP4 ADD DUP8 PUSH2 0x161C JUMP JUMPDEST PUSH2 0x1930 PUSH1 0x20 DUP4 ADD DUP7 PUSH2 0x161C JUMP JUMPDEST PUSH2 0x193D PUSH1 0x40 DUP4 ADD DUP6 PUSH2 0x1436 JUMP JUMPDEST PUSH2 0x194A PUSH1 0x60 DUP4 ADD DUP5 PUSH2 0x1436 JUMP JUMPDEST SWAP6 SWAP5 POP POP POP POP POP JUMP JUMPDEST PUSH32 0x616C6C6F77616E6365206E6F7420656E6F756768000000000000000000000000 PUSH1 0x0 DUP3 ADD MSTORE POP JUMP JUMPDEST PUSH1 0x0 PUSH2 0x1989 PUSH1 0x14 DUP4 PUSH2 0x14C7 JUMP JUMPDEST SWAP2 POP PUSH2 0x1994 DUP3 PUSH2 0x1953 JUMP JUMPDEST PUSH1 0x20 DUP3 ADD SWAP1 POP SWAP2 SWAP1 POP JUMP JUMPDEST PUSH1 0x0 PUSH1 0x20 DUP3 ADD SWAP1 POP DUP2 DUP2 SUB PUSH1 0x0 DUP4 ADD MSTORE PUSH2 0x19B8 DUP2 PUSH2 0x197C JUMP JUMPDEST SWAP1 POP SWAP2 SWAP1 POP JUMP JUMPDEST PUSH1 0x0 DUP2 SWAP1 POP SWAP3 SWAP2 POP POP JUMP JUMPDEST POP JUMP JUMPDEST PUSH1 0x0 PUSH2 0x19DA PUSH1 0x0 DUP4 PUSH2 0x19BF JUMP JUMPDEST SWAP2 POP PUSH2 0x19E5 DUP3 PUSH2 0x19CA JUMP JUMPDEST PUSH1 0x0 DUP3 ADD SWAP1 POP SWAP2 SWAP1 POP JUMP JUMPDEST PUSH1 0x0 PUSH2 0x19FB DUP3 PUSH2 0x19CD JUMP JUMPDEST SWAP2 POP DUP2 SWAP1 POP SWAP2 SWAP1 POP JUMP JUMPDEST PUSH32 0x726566756E64206661696C656400000000000000000000000000000000000000 PUSH1 0x0 DUP3 ADD MSTORE POP JUMP JUMPDEST PUSH1 0x0 PUSH2 0x1A3B PUSH1 0xD DUP4 PUSH2 0x14C7 JUMP JUMPDEST SWAP2 POP PUSH2 0x1A46 DUP3 PUSH2 0x1A05 JUMP JUMPDEST PUSH1 0x20 DUP3 ADD SWAP1 POP SWAP2 SWAP1 POP JUMP JUMPDEST PUSH1 0x0 PUSH1 0x20 DUP3 ADD SWAP1 POP DUP2 DUP2 SUB PUSH1 0x0 DUP4 ADD MSTORE PUSH2 0x1A6A DUP2 PUSH2 0x1A2E JUMP JUMPDEST SWAP1 POP SWAP2 SWAP1 POP JUMP INVALID LOG2 PUSH5 0x6970667358 0x22 SLT KECCAK256 0xD0 PUSH31 0x392BD287562D1F17C395CBD2C9BFAA1F4E7041D119A64DFAC450D0771DE664 PUSH20 0x6F6C634300081000330000000000000000000000 "
				},
				"gasEstimates": {
					"creation": {
						"codeDepositCost": "1364600",
						"executionCost": "1424",
						"totalCost": "1366024"
					},
					"external": {
						"buyFromFixedSale(address,uint256,uint256)": "infinite",
						"cancelFixedsale(address,uint256)": "infinite",
						"nftFixedSale(address,address,uint256,uint256)": "infinite",
						"nftSaleStatus(address,uint256)": "infinite",
						"onERC721Received(address,address,uint256,bytes)": "infinite",
						"updateFixedSalePrice(address,uint256,uint256)": "infinite"
					},
					"internal": {
						"_isTokenOrCoin(address,address,uint256)": "infinite",
						"_nativeAmountTransfer(address,uint256)": "infinite",
						"_tokenAmountTransfer(address,address,uint256)": "infinite"
					}
				},
				"methodIdentifiers": {
					"buyFromFixedSale(address,uint256,uint256)": "baf4371e",
					"cancelFixedsale(address,uint256)": "d3a6a6c9",
					"nftFixedSale(address,address,uint256,uint256)": "69a6d12e",
					"nftSaleStatus(address,uint256)": "6916462f",
					"onERC721Received(address,address,uint256,bytes)": "150b7a02",
					"updateFixedSalePrice(address,uint256,uint256)": "4676adca"
				}
			},
			"storageLayout": {
				"storage": [
					{
						"astId": 560,
						"contract": "NFT-Contracts/contracts/market_pri/market_place.sol:NFTMarketplace",
						"label": "nftContractFixedSale",
						"offset": 0,
						"slot": "0",
						"type": "t_mapping(t_address,t_mapping(t_uint256,t_struct(FixedSale)553_storage))"
					},
					{
						"astId": 566,
						"contract": "NFT-Contracts/contracts/market_pri/market_place.sol:NFTMarketplace",
						"label": "nftSaleStatus",
						"offset": 0,
						"slot": "1",
						"type": "t_mapping(t_address,t_mapping(t_uint256,t_uint256))"
					}
				],
				"types": {
					"t_address": {
						"encoding": "inplace",
						"label": "address",
						"numberOfBytes": "20"
					},
					"t_mapping(t_address,t_mapping(t_uint256,t_struct(FixedSale)553_storage))": {
						"encoding": "mapping",
						"key": "t_address",
						"label": "mapping(address => mapping(uint256 => struct NFTMarketplace.FixedSale))",
						"numberOfBytes": "32",
						"value": "t_mapping(t_uint256,t_struct(FixedSale)553_storage)"
					},
					"t_mapping(t_address,t_mapping(t_uint256,t_uint256))": {
						"encoding": "mapping",
						"key": "t_address",
						"label": "mapping(address => mapping(uint256 => uint256))",
						"numberOfBytes": "32",
						"value": "t_mapping(t_uint256,t_uint256)"
					},
					"t_mapping(t_uint256,t_struct(FixedSale)553_storage)": {
						"encoding": "mapping",
						"key": "t_uint256",
						"label": "mapping(uint256 => struct NFTMarketplace.FixedSale)",
						"numberOfBytes": "32",
						"value": "t_struct(FixedSale)553_storage"
					},
					"t_mapping(t_uint256,t_uint256)": {
						"encoding": "mapping",
						"key": "t_uint256",
						"label": "mapping(uint256 => uint256)",
						"numberOfBytes": "32",
						"value": "t_uint256"
					},
					"t_struct(FixedSale)553_storage": {
						"encoding": "inplace",
						"label": "struct NFTMarketplace.FixedSale",
						"members": [
							{
								"astId": 546,
								"contract": "NFT-Contracts/contracts/market_pri/market_place.sol:NFTMarketplace",
								"label": "nftSeller",
								"offset": 0,
								"slot": "0",
								"type": "t_address"
							},
							{
								"astId": 548,
								"contract": "NFT-Contracts/contracts/market_pri/market_place.sol:NFTMarketplace",
								"label": "nftBuyer",
								"offset": 0,
								"slot": "1",
								"type": "t_address"
							},
							{
								"astId": 550,
								"contract": "NFT-Contracts/contracts/market_pri/market_place.sol:NFTMarketplace",
								"label": "erc20",
								"offset": 0,
								"slot": "2",
								"type": "t_address"
							},
							{
								"astId": 552,
								"contract": "NFT-Contracts/contracts/market_pri/market_place.sol:NFTMarketplace",
								"label": "salePrice",
								"offset": 0,
								"slot": "3",
								"type": "t_uint256"
							}
						],
						"numberOfBytes": "128"
					},
					"t_uint256": {
						"encoding": "inplace",
						"label": "uint256",
						"numberOfBytes": "32"
					}
				}
			},
			"userdoc": {
				"kind": "user",
				"methods": {},
				"version": 1
			}
		}
	}
}