{
	"NFT-Contracts/contracts/market_pri/market_place.sol": {
		"NFTMarketplace": {
			"abi": [
				{
					"anonymous": false,
					"inputs": [
						{
							"indexed": false,
							"internalType": "address",
							"name": "nftContractAddress",
							"type": "address"
						},
						{
							"indexed": false,
							"internalType": "address",
							"name": "nftSeller",
							"type": "address"
						},
						{
							"indexed": false,
							"internalType": "uint256",
							"name": "tokenId",
							"type": "uint256"
						}
					],
					"name": "CancelNftFixedSale",
					"type": "event"
				},
				{
					"anonymous": false,
					"inputs": [
						{
							"indexed": false,
							"internalType": "address",
							"name": "nftContractAddress",
							"type": "address"
						},
						{
							"indexed": false,
							"internalType": "address",
							"name": "nftBuyer",
							"type": "address"
						},
						{
							"indexed": false,
							"internalType": "uint256",
							"name": "tokenId",
							"type": "uint256"
						},
						{
							"indexed": false,
							"internalType": "uint256",
							"name": "nftBuyPrice",
							"type": "uint256"
						}
					],
					"name": "NftBuyFromFixedSale",
					"type": "event"
				},
				{
					"anonymous": false,
					"inputs": [
						{
							"indexed": false,
							"internalType": "address",
							"name": "nftContractAddress",
							"type": "address"
						},
						{
							"indexed": false,
							"internalType": "address",
							"name": "nftSeller",
							"type": "address"
						},
						{
							"indexed": false,
							"internalType": "address",
							"name": "erc20",
							"type": "address"
						},
						{
							"indexed": false,
							"internalType": "uint256",
							"name": "tokenId",
							"type": "uint256"
						},
						{
							"indexed": false,
							"internalType": "uint256",
							"name": "salePrice",
							"type": "uint256"
						},
						{
							"indexed": false,
							"internalType": "uint256",
							"name": "timeOfSale",
							"type": "uint256"
						}
					],
					"name": "NftFixedSale",
					"type": "event"
				},
				{
					"anonymous": false,
					"inputs": [
						{
							"indexed": false,
							"internalType": "address",
							"name": "nftContractAddress",
							"type": "address"
						},
						{
							"indexed": false,
							"internalType": "uint256",
							"name": "tokenId",
							"type": "uint256"
						},
						{
							"indexed": false,
							"internalType": "uint256",
							"name": "updateSalePrice",
							"type": "uint256"
						}
					],
					"name": "NftFixedSalePriceUpdated",
					"type": "event"
				},
				{
					"inputs": [
						{
							"internalType": "address",
							"name": "_nftContractAddress",
							"type": "address"
						},
						{
							"internalType": "uint256",
							"name": "_tokenId",
							"type": "uint256"
						},
						{
							"internalType": "uint256",
							"name": "_amount",
							"type": "uint256"
						}
					],
					"name": "buyFromFixedSale",
					"outputs": [],
					"stateMutability": "payable",
					"type": "function"
				},
				{
					"inputs": [
						{
							"internalType": "address",
							"name": "_nftContractAddress",
							"type": "address"
						},
						{
							"internalType": "uint256",
							"name": "_tokenId",
							"type": "uint256"
						}
					],
					"name": "cancelFixedsale",
					"outputs": [],
					"stateMutability": "nonpayable",
					"type": "function"
				},
				{
					"inputs": [
						{
							"internalType": "address",
							"name": "_nftContractAddress",
							"type": "address"
						},
						{
							"internalType": "address",
							"name": "_erc20",
							"type": "address"
						},
						{
							"internalType": "uint256",
							"name": "_tokenId",
							"type": "uint256"
						},
						{
							"internalType": "uint256",
							"name": "_salePrice",
							"type": "uint256"
						}
					],
					"name": "nftFixedSale",
					"outputs": [],
					"stateMutability": "nonpayable",
					"type": "function"
				},
				{
					"inputs": [
						{
							"internalType": "address",
							"name": "",
							"type": "address"
						},
						{
							"internalType": "uint256",
							"name": "",
							"type": "uint256"
						}
					],
					"name": "nftSaleStatus",
					"outputs": [
						{
							"internalType": "uint256",
							"name": "",
							"type": "uint256"
						}
					],
					"stateMutability": "view",
					"type": "function"
				},
				{
					"inputs": [
						{
							"internalType": "address",
							"name": "",
							"type": "address"
						},
						{
							"internalType": "address",
							"name": "from",
							"type": "address"
						},
						{
							"internalType": "uint256",
							"name": "",
							"type": "uint256"
						},
						{
							"internalType": "bytes",
							"name": "",
							"type": "bytes"
						}
					],
					"name": "onERC721Received",
					"outputs": [
						{
							"internalType": "bytes4",
							"name": "",
							"type": "bytes4"
						}
					],
					"stateMutability": "pure",
					"type": "function"
				},
				{
					"inputs": [
						{
							"internalType": "address",
							"name": "_nftContractAddress",
							"type": "address"
						},
						{
							"internalType": "uint256",
							"name": "_tokenId",
							"type": "uint256"
						},
						{
							"internalType": "uint256",
							"name": "_updateSalePrice",
							"type": "uint256"
						}
					],
					"name": "updateFixedSalePrice",
					"outputs": [],
					"stateMutability": "nonpayable",
					"type": "function"
				},
				{
					"stateMutability": "payable",
					"type": "receive"
				}
			],
			"devdoc": {
				"kind": "dev",
				"methods": {},
				"version": 1
			},
			"evm": {
				"assembly": "    /* \"NFT-Contracts/contracts/market_pri/market_place.sol\":267:7303  contract NFTMarketplace {\r... */\n  mstore(0x40, 0x80)\n  callvalue\n  dup1\n  iszero\n  tag_1\n  jumpi\n  0x00\n  dup1\n  revert\ntag_1:\n  pop\n  dataSize(sub_0)\n  dup1\n  dataOffset(sub_0)\n  0x00\n  codecopy\n  0x00\n  return\nstop\n\nsub_0: assembly {\n        /* \"NFT-Contracts/contracts/market_pri/market_place.sol\":267:7303  contract NFTMarketplace {\r... */\n      mstore(0x40, 0x80)\n      jumpi(tag_1, lt(calldatasize, 0x04))\n      shr(0xe0, calldataload(0x00))\n      dup1\n      0x150b7a02\n      eq\n      tag_3\n      jumpi\n      dup1\n      0x4676adca\n      eq\n      tag_4\n      jumpi\n      dup1\n      0x6916462f\n      eq\n      tag_5\n      jumpi\n      dup1\n      0x69a6d12e\n      eq\n      tag_6\n      jumpi\n      dup1\n      0xbaf4371e\n      eq\n      tag_7\n      jumpi\n      dup1\n      0xd3a6a6c9\n      eq\n      tag_8\n      jumpi\n      jump(tag_2)\n    tag_1:\n      jumpi(tag_2, calldatasize)\n      stop\n    tag_2:\n      0x00\n      dup1\n      revert\n        /* \"NFT-Contracts/contracts/market_pri/market_place.sol\":6199:6414  function onERC721Received(\r... */\n    tag_3:\n      callvalue\n      dup1\n      iszero\n      tag_11\n      jumpi\n      0x00\n      dup1\n      revert\n    tag_11:\n      pop\n      tag_12\n      0x04\n      dup1\n      calldatasize\n      sub\n      dup2\n      add\n      swap1\n      tag_13\n      swap2\n      swap1\n      tag_14\n      jump\t// in\n    tag_13:\n      tag_15\n      jump\t// in\n    tag_12:\n      mload(0x40)\n      tag_16\n      swap2\n      swap1\n      tag_17\n      jump\t// in\n    tag_16:\n      mload(0x40)\n      dup1\n      swap2\n      sub\n      swap1\n      return\n        /* \"NFT-Contracts/contracts/market_pri/market_place.sol\":4548:5126  function updateFixedSalePrice(\r... */\n    tag_4:\n      callvalue\n      dup1\n      iszero\n      tag_18\n      jumpi\n      0x00\n      dup1\n      revert\n    tag_18:\n      pop\n      tag_19\n      0x04\n      dup1\n      calldatasize\n      sub\n      dup2\n      add\n      swap1\n      tag_20\n      swap2\n      swap1\n      tag_21\n      jump\t// in\n    tag_20:\n      tag_22\n      jump\t// in\n    tag_19:\n      stop\n        /* \"NFT-Contracts/contracts/market_pri/market_place.sol\":550:618  mapping(address => mapping(uint256 => uint256)) public nftSaleStatus */\n    tag_5:\n      callvalue\n      dup1\n      iszero\n      tag_23\n      jumpi\n      0x00\n      dup1\n      revert\n    tag_23:\n      pop\n      tag_24\n      0x04\n      dup1\n      calldatasize\n      sub\n      dup2\n      add\n      swap1\n      tag_25\n      swap2\n      swap1\n      tag_26\n      jump\t// in\n    tag_25:\n      tag_27\n      jump\t// in\n    tag_24:\n      mload(0x40)\n      tag_28\n      swap2\n      swap1\n      tag_29\n      jump\t// in\n    tag_28:\n      mload(0x40)\n      dup1\n      swap2\n      sub\n      swap1\n      return\n        /* \"NFT-Contracts/contracts/market_pri/market_place.sol\":3047:4030  function nftFixedSale(\r... */\n    tag_6:\n      callvalue\n      dup1\n      iszero\n      tag_30\n      jumpi\n      0x00\n      dup1\n      revert\n    tag_30:\n      pop\n      tag_31\n      0x04\n      dup1\n      calldatasize\n      sub\n      dup2\n      add\n      swap1\n      tag_32\n      swap2\n      swap1\n      tag_33\n      jump\t// in\n    tag_32:\n      tag_34\n      jump\t// in\n    tag_31:\n      stop\n        /* \"NFT-Contracts/contracts/market_pri/market_place.sol\":5134:6191  function buyFromFixedSale(\r... */\n    tag_7:\n      tag_35\n      0x04\n      dup1\n      calldatasize\n      sub\n      dup2\n      add\n      swap1\n      tag_36\n      swap2\n      swap1\n      tag_21\n      jump\t// in\n    tag_36:\n      tag_37\n      jump\t// in\n    tag_35:\n      stop\n        /* \"NFT-Contracts/contracts/market_pri/market_place.sol\":4038:4540  function cancelFixedsale(address _nftContractAddress, uint256 _tokenId)\r... */\n    tag_8:\n      callvalue\n      dup1\n      iszero\n      tag_38\n      jumpi\n      0x00\n      dup1\n      revert\n    tag_38:\n      pop\n      tag_39\n      0x04\n      dup1\n      calldatasize\n      sub\n      dup2\n      add\n      swap1\n      tag_40\n      swap2\n      swap1\n      tag_26\n      jump\t// in\n    tag_40:\n      tag_41\n      jump\t// in\n    tag_39:\n      stop\n        /* \"NFT-Contracts/contracts/market_pri/market_place.sol\":6199:6414  function onERC721Received(\r... */\n    tag_15:\n        /* \"NFT-Contracts/contracts/market_pri/market_place.sol\":6339:6345  bytes4 */\n      0x00\n        /* \"NFT-Contracts/contracts/market_pri/market_place.sol\":6365:6406  IERC721Receiver.onERC721Received.selector */\n      shl(0xe0, 0x150b7a02)\n        /* \"NFT-Contracts/contracts/market_pri/market_place.sol\":6358:6406  return IERC721Receiver.onERC721Received.selector */\n      swap1\n      pop\n        /* \"NFT-Contracts/contracts/market_pri/market_place.sol\":6199:6414  function onERC721Received(\r... */\n      swap6\n      swap5\n      pop\n      pop\n      pop\n      pop\n      pop\n      jump\t// out\n        /* \"NFT-Contracts/contracts/market_pri/market_place.sol\":4548:5126  function updateFixedSalePrice(\r... */\n    tag_22:\n        /* \"NFT-Contracts/contracts/market_pri/market_place.sol\":4729:4748  _nftContractAddress */\n      dup3\n        /* \"NFT-Contracts/contracts/market_pri/market_place.sol\":4750:4758  _tokenId */\n      dup3\n        /* \"NFT-Contracts/contracts/market_pri/market_place.sol\":1654:1655  1 */\n      0x01\n        /* \"NFT-Contracts/contracts/market_pri/market_place.sol\":1606:1619  nftSaleStatus */\n      dup1\n        /* \"NFT-Contracts/contracts/market_pri/market_place.sol\":1606:1640  nftSaleStatus[_nftContractAddress] */\n      0x00\n        /* \"NFT-Contracts/contracts/market_pri/market_place.sol\":1620:1639  _nftContractAddress */\n      dup5\n        /* \"NFT-Contracts/contracts/market_pri/market_place.sol\":1606:1640  nftSaleStatus[_nftContractAddress] */\n      0xffffffffffffffffffffffffffffffffffffffff\n      and\n      0xffffffffffffffffffffffffffffffffffffffff\n      and\n      dup2\n      mstore\n      0x20\n      add\n      swap1\n      dup2\n      mstore\n      0x20\n      add\n      0x00\n      keccak256\n        /* \"NFT-Contracts/contracts/market_pri/market_place.sol\":1606:1650  nftSaleStatus[_nftContractAddress][_tokenId] */\n      0x00\n        /* \"NFT-Contracts/contracts/market_pri/market_place.sol\":1641:1649  _tokenId */\n      dup4\n        /* \"NFT-Contracts/contracts/market_pri/market_place.sol\":1606:1650  nftSaleStatus[_nftContractAddress][_tokenId] */\n      dup2\n      mstore\n      0x20\n      add\n      swap1\n      dup2\n      mstore\n      0x20\n      add\n      0x00\n      keccak256\n      sload\n        /* \"NFT-Contracts/contracts/market_pri/market_place.sol\":1606:1655  nftSaleStatus[_nftContractAddress][_tokenId] == 1 */\n      eq\n        /* \"NFT-Contracts/contracts/market_pri/market_place.sol\":1584:1704  require(\r... */\n      tag_44\n      jumpi\n      mload(0x40)\n      0x08c379a000000000000000000000000000000000000000000000000000000000\n      dup2\n      mstore\n      0x04\n      add\n      tag_45\n      swap1\n      tag_46\n      jump\t// in\n    tag_45:\n      mload(0x40)\n      dup1\n      swap2\n      sub\n      swap1\n      revert\n    tag_44:\n        /* \"NFT-Contracts/contracts/market_pri/market_place.sol\":4788:4807  _nftContractAddress */\n      dup5\n        /* \"NFT-Contracts/contracts/market_pri/market_place.sol\":4809:4817  _tokenId */\n      dup5\n        /* \"NFT-Contracts/contracts/market_pri/market_place.sol\":2116:2136  nftContractFixedSale */\n      0x00\n        /* \"NFT-Contracts/contracts/market_pri/market_place.sol\":2116:2157  nftContractFixedSale[_nftContractAddress] */\n      dup1\n        /* \"NFT-Contracts/contracts/market_pri/market_place.sol\":2137:2156  _nftContractAddress */\n      dup4\n        /* \"NFT-Contracts/contracts/market_pri/market_place.sol\":2116:2157  nftContractFixedSale[_nftContractAddress] */\n      0xffffffffffffffffffffffffffffffffffffffff\n      and\n      0xffffffffffffffffffffffffffffffffffffffff\n      and\n      dup2\n      mstore\n      0x20\n      add\n      swap1\n      dup2\n      mstore\n      0x20\n      add\n      0x00\n      keccak256\n        /* \"NFT-Contracts/contracts/market_pri/market_place.sol\":2116:2167  nftContractFixedSale[_nftContractAddress][_tokenId] */\n      0x00\n        /* \"NFT-Contracts/contracts/market_pri/market_place.sol\":2158:2166  _tokenId */\n      dup3\n        /* \"NFT-Contracts/contracts/market_pri/market_place.sol\":2116:2167  nftContractFixedSale[_nftContractAddress][_tokenId] */\n      dup2\n      mstore\n      0x20\n      add\n      swap1\n      dup2\n      mstore\n      0x20\n      add\n      0x00\n      keccak256\n        /* \"NFT-Contracts/contracts/market_pri/market_place.sol\":2116:2177  nftContractFixedSale[_nftContractAddress][_tokenId].nftSeller */\n      0x00\n      add\n      0x00\n      swap1\n      sload\n      swap1\n      0x0100\n      exp\n      swap1\n      div\n      0xffffffffffffffffffffffffffffffffffffffff\n      and\n        /* \"NFT-Contracts/contracts/market_pri/market_place.sol\":2085:2177  msg.sender ==\r... */\n      0xffffffffffffffffffffffffffffffffffffffff\n      and\n        /* \"NFT-Contracts/contracts/market_pri/market_place.sol\":2085:2095  msg.sender */\n      caller\n        /* \"NFT-Contracts/contracts/market_pri/market_place.sol\":2085:2177  msg.sender ==\r... */\n      0xffffffffffffffffffffffffffffffffffffffff\n      and\n      eq\n        /* \"NFT-Contracts/contracts/market_pri/market_place.sol\":2063:2226  require(\r... */\n      tag_48\n      jumpi\n      mload(0x40)\n      0x08c379a000000000000000000000000000000000000000000000000000000000\n      dup2\n      mstore\n      0x04\n      add\n      tag_49\n      swap1\n      tag_50\n      jump\t// in\n    tag_49:\n      mload(0x40)\n      dup1\n      swap2\n      sub\n      swap1\n      revert\n    tag_48:\n        /* \"NFT-Contracts/contracts/market_pri/market_place.sol\":4849:4865  _updateSalePrice */\n      dup5\n        /* \"NFT-Contracts/contracts/market_pri/market_place.sol\":2971:2972  0 */\n      0x00\n        /* \"NFT-Contracts/contracts/market_pri/market_place.sol\":2962:2968  _price */\n      dup2\n        /* \"NFT-Contracts/contracts/market_pri/market_place.sol\":2962:2972  _price > 0 */\n      gt\n        /* \"NFT-Contracts/contracts/market_pri/market_place.sol\":2954:2994  require(_price > 0, \"Price cannot be 0\") */\n      tag_52\n      jumpi\n      mload(0x40)\n      0x08c379a000000000000000000000000000000000000000000000000000000000\n      dup2\n      mstore\n      0x04\n      add\n      tag_53\n      swap1\n      tag_54\n      jump\t// in\n    tag_53:\n      mload(0x40)\n      dup1\n      swap2\n      sub\n      swap1\n      revert\n    tag_52:\n        /* \"NFT-Contracts/contracts/market_pri/market_place.sol\":4961:4977  _updateSalePrice */\n      dup6\n        /* \"NFT-Contracts/contracts/market_pri/market_place.sol\":4883:4903  nftContractFixedSale */\n      0x00\n        /* \"NFT-Contracts/contracts/market_pri/market_place.sol\":4883:4924  nftContractFixedSale[_nftContractAddress] */\n      dup1\n        /* \"NFT-Contracts/contracts/market_pri/market_place.sol\":4904:4923  _nftContractAddress */\n      dup11\n        /* \"NFT-Contracts/contracts/market_pri/market_place.sol\":4883:4924  nftContractFixedSale[_nftContractAddress] */\n      0xffffffffffffffffffffffffffffffffffffffff\n      and\n      0xffffffffffffffffffffffffffffffffffffffff\n      and\n      dup2\n      mstore\n      0x20\n      add\n      swap1\n      dup2\n      mstore\n      0x20\n      add\n      0x00\n      keccak256\n        /* \"NFT-Contracts/contracts/market_pri/market_place.sol\":4883:4934  nftContractFixedSale[_nftContractAddress][_tokenId] */\n      0x00\n        /* \"NFT-Contracts/contracts/market_pri/market_place.sol\":4925:4933  _tokenId */\n      dup10\n        /* \"NFT-Contracts/contracts/market_pri/market_place.sol\":4883:4934  nftContractFixedSale[_nftContractAddress][_tokenId] */\n      dup2\n      mstore\n      0x20\n      add\n      swap1\n      dup2\n      mstore\n      0x20\n      add\n      0x00\n      keccak256\n        /* \"NFT-Contracts/contracts/market_pri/market_place.sol\":4883:4958  nftContractFixedSale[_nftContractAddress][_tokenId]\r... */\n      0x03\n      add\n        /* \"NFT-Contracts/contracts/market_pri/market_place.sol\":4883:4977  nftContractFixedSale[_nftContractAddress][_tokenId]\r... */\n      dup2\n      swap1\n      sstore\n      pop\n        /* \"NFT-Contracts/contracts/market_pri/market_place.sol\":4995:5118  NftFixedSalePriceUpdated(\r... */\n      0x575a0876095ccf47276a37dce683308a625403d132d219f95205ce205b2e12bc\n        /* \"NFT-Contracts/contracts/market_pri/market_place.sol\":5034:5053  _nftContractAddress */\n      dup9\n        /* \"NFT-Contracts/contracts/market_pri/market_place.sol\":5068:5076  _tokenId */\n      dup9\n        /* \"NFT-Contracts/contracts/market_pri/market_place.sol\":5091:5107  _updateSalePrice */\n      dup9\n        /* \"NFT-Contracts/contracts/market_pri/market_place.sol\":4995:5118  NftFixedSalePriceUpdated(\r... */\n      mload(0x40)\n      tag_56\n      swap4\n      swap3\n      swap2\n      swap1\n      tag_57\n      jump\t// in\n    tag_56:\n      mload(0x40)\n      dup1\n      swap2\n      sub\n      swap1\n      log1\n        /* \"NFT-Contracts/contracts/market_pri/market_place.sol\":2237:2238  _ */\n      pop\n        /* \"NFT-Contracts/contracts/market_pri/market_place.sol\":1715:1716  _ */\n      pop\n      pop\n        /* \"NFT-Contracts/contracts/market_pri/market_place.sol\":4548:5126  function updateFixedSalePrice(\r... */\n      pop\n      pop\n      pop\n      pop\n      pop\n      jump\t// out\n        /* \"NFT-Contracts/contracts/market_pri/market_place.sol\":550:618  mapping(address => mapping(uint256 => uint256)) public nftSaleStatus */\n    tag_27:\n      mstore(0x20, 0x01)\n      dup2\n      0x00\n      mstore\n      mstore(0x20, keccak256(0x00, 0x40))\n      dup1\n      0x00\n      mstore\n      keccak256(0x00, 0x40)\n      0x00\n      swap2\n      pop\n      swap2\n      pop\n      pop\n      sload\n      dup2\n      jump\t// out\n        /* \"NFT-Contracts/contracts/market_pri/market_place.sol\":3047:4030  function nftFixedSale(\r... */\n    tag_34:\n        /* \"NFT-Contracts/contracts/market_pri/market_place.sol\":3241:3260  _nftContractAddress */\n      dup4\n        /* \"NFT-Contracts/contracts/market_pri/market_place.sol\":3262:3270  _tokenId */\n      dup3\n        /* \"NFT-Contracts/contracts/market_pri/market_place.sol\":1862:1881  _nftContractAddress */\n      dup2\n        /* \"NFT-Contracts/contracts/market_pri/market_place.sol\":1854:1890  IERC721(_nftContractAddress).ownerOf */\n      0xffffffffffffffffffffffffffffffffffffffff\n      and\n      0x6352211e\n        /* \"NFT-Contracts/contracts/market_pri/market_place.sol\":1891:1899  _tokenId */\n      dup3\n        /* \"NFT-Contracts/contracts/market_pri/market_place.sol\":1854:1900  IERC721(_nftContractAddress).ownerOf(_tokenId) */\n      mload(0x40)\n      dup3\n      0xffffffff\n      and\n      0xe0\n      shl\n      dup2\n      mstore\n      0x04\n      add\n      tag_59\n      swap2\n      swap1\n      tag_29\n      jump\t// in\n    tag_59:\n      0x20\n      mload(0x40)\n      dup1\n      dup4\n      sub\n      dup2\n      dup7\n      dup1\n      extcodesize\n      iszero\n      dup1\n      iszero\n      tag_60\n      jumpi\n      0x00\n      dup1\n      revert\n    tag_60:\n      pop\n      gas\n      staticcall\n      iszero\n      dup1\n      iszero\n      tag_62\n      jumpi\n      returndatasize\n      0x00\n      dup1\n      returndatacopy\n      revert(0x00, returndatasize)\n    tag_62:\n      pop\n      pop\n      pop\n      pop\n      mload(0x40)\n      returndatasize\n      not(0x1f)\n      0x1f\n      dup3\n      add\n      and\n      dup3\n      add\n      dup1\n      0x40\n      mstore\n      pop\n      dup2\n      add\n      swap1\n      tag_63\n      swap2\n      swap1\n      tag_64\n      jump\t// in\n    tag_63:\n        /* \"NFT-Contracts/contracts/market_pri/market_place.sol\":1840:1900  msg.sender == IERC721(_nftContractAddress).ownerOf(_tokenId) */\n      0xffffffffffffffffffffffffffffffffffffffff\n      and\n        /* \"NFT-Contracts/contracts/market_pri/market_place.sol\":1840:1850  msg.sender */\n      caller\n        /* \"NFT-Contracts/contracts/market_pri/market_place.sol\":1840:1900  msg.sender == IERC721(_nftContractAddress).ownerOf(_tokenId) */\n      0xffffffffffffffffffffffffffffffffffffffff\n      and\n      eq\n        /* \"NFT-Contracts/contracts/market_pri/market_place.sol\":1818:1949  require(\r... */\n      tag_65\n      jumpi\n      mload(0x40)\n      0x08c379a000000000000000000000000000000000000000000000000000000000\n      dup2\n      mstore\n      0x04\n      add\n      tag_66\n      swap1\n      tag_50\n      jump\t// in\n    tag_66:\n      mload(0x40)\n      dup1\n      swap2\n      sub\n      swap1\n      revert\n    tag_65:\n        /* \"NFT-Contracts/contracts/market_pri/market_place.sol\":3300:3319  _nftContractAddress */\n      dup6\n        /* \"NFT-Contracts/contracts/market_pri/market_place.sol\":3321:3329  _tokenId */\n      dup5\n        /* \"NFT-Contracts/contracts/market_pri/market_place.sol\":1424:1425  0 */\n      0x00\n        /* \"NFT-Contracts/contracts/market_pri/market_place.sol\":1376:1389  nftSaleStatus */\n      0x01\n        /* \"NFT-Contracts/contracts/market_pri/market_place.sol\":1376:1410  nftSaleStatus[_nftContractAddress] */\n      0x00\n        /* \"NFT-Contracts/contracts/market_pri/market_place.sol\":1390:1409  _nftContractAddress */\n      dup5\n        /* \"NFT-Contracts/contracts/market_pri/market_place.sol\":1376:1410  nftSaleStatus[_nftContractAddress] */\n      0xffffffffffffffffffffffffffffffffffffffff\n      and\n      0xffffffffffffffffffffffffffffffffffffffff\n      and\n      dup2\n      mstore\n      0x20\n      add\n      swap1\n      dup2\n      mstore\n      0x20\n      add\n      0x00\n      keccak256\n        /* \"NFT-Contracts/contracts/market_pri/market_place.sol\":1376:1420  nftSaleStatus[_nftContractAddress][_tokenId] */\n      0x00\n        /* \"NFT-Contracts/contracts/market_pri/market_place.sol\":1411:1419  _tokenId */\n      dup4\n        /* \"NFT-Contracts/contracts/market_pri/market_place.sol\":1376:1420  nftSaleStatus[_nftContractAddress][_tokenId] */\n      dup2\n      mstore\n      0x20\n      add\n      swap1\n      dup2\n      mstore\n      0x20\n      add\n      0x00\n      keccak256\n      sload\n        /* \"NFT-Contracts/contracts/market_pri/market_place.sol\":1376:1425  nftSaleStatus[_nftContractAddress][_tokenId] == 0 */\n      eq\n        /* \"NFT-Contracts/contracts/market_pri/market_place.sol\":1354:1472  require(\r... */\n      tag_68\n      jumpi\n      mload(0x40)\n      0x08c379a000000000000000000000000000000000000000000000000000000000\n      dup2\n      mstore\n      0x04\n      add\n      tag_69\n      swap1\n      tag_70\n      jump\t// in\n    tag_69:\n      mload(0x40)\n      dup1\n      swap2\n      sub\n      swap1\n      revert\n    tag_68:\n        /* \"NFT-Contracts/contracts/market_pri/market_place.sol\":3358:3377  _nftContractAddress */\n      dup8\n        /* \"NFT-Contracts/contracts/market_pri/market_place.sol\":3379:3387  _tokenId */\n      dup7\n        /* \"NFT-Contracts/contracts/market_pri/market_place.sol\":2369:2388  _nftContractAddress */\n      dup2\n        /* \"NFT-Contracts/contracts/market_pri/market_place.sol\":2361:2406  IERC721(_nftContractAddress).isApprovedForAll */\n      0xffffffffffffffffffffffffffffffffffffffff\n      and\n      0xe985e9c5\n        /* \"NFT-Contracts/contracts/market_pri/market_place.sol\":2425:2435  msg.sender */\n      caller\n        /* \"NFT-Contracts/contracts/market_pri/market_place.sol\":2462:2466  this */\n      address\n        /* \"NFT-Contracts/contracts/market_pri/market_place.sol\":2361:2482  IERC721(_nftContractAddress).isApprovedForAll(\r... */\n      mload(0x40)\n      dup4\n      0xffffffff\n      and\n      0xe0\n      shl\n      dup2\n      mstore\n      0x04\n      add\n      tag_72\n      swap3\n      swap2\n      swap1\n      tag_73\n      jump\t// in\n    tag_72:\n      0x20\n      mload(0x40)\n      dup1\n      dup4\n      sub\n      dup2\n      dup7\n      dup1\n      extcodesize\n      iszero\n      dup1\n      iszero\n      tag_74\n      jumpi\n      0x00\n      dup1\n      revert\n    tag_74:\n      pop\n      gas\n      staticcall\n      iszero\n      dup1\n      iszero\n      tag_76\n      jumpi\n      returndatasize\n      0x00\n      dup1\n      returndatacopy\n      revert(0x00, returndatasize)\n    tag_76:\n      pop\n      pop\n      pop\n      pop\n      mload(0x40)\n      returndatasize\n      not(0x1f)\n      0x1f\n      dup3\n      add\n      and\n      dup3\n      add\n      dup1\n      0x40\n      mstore\n      pop\n      dup2\n      add\n      swap1\n      tag_77\n      swap2\n      swap1\n      tag_78\n      jump\t// in\n    tag_77:\n        /* \"NFT-Contracts/contracts/market_pri/market_place.sol\":2339:2538  require(\r... */\n      tag_79\n      jumpi\n      mload(0x40)\n      0x08c379a000000000000000000000000000000000000000000000000000000000\n      dup2\n      mstore\n      0x04\n      add\n      tag_80\n      swap1\n      tag_81\n      jump\t// in\n    tag_80:\n      mload(0x40)\n      dup1\n      swap2\n      sub\n      swap1\n      revert\n    tag_79:\n        /* \"NFT-Contracts/contracts/market_pri/market_place.sol\":3419:3429  _salePrice */\n      dup7\n        /* \"NFT-Contracts/contracts/market_pri/market_place.sol\":2971:2972  0 */\n      0x00\n        /* \"NFT-Contracts/contracts/market_pri/market_place.sol\":2962:2968  _price */\n      dup2\n        /* \"NFT-Contracts/contracts/market_pri/market_place.sol\":2962:2972  _price > 0 */\n      gt\n        /* \"NFT-Contracts/contracts/market_pri/market_place.sol\":2954:2994  require(_price > 0, \"Price cannot be 0\") */\n      tag_83\n      jumpi\n      mload(0x40)\n      0x08c379a000000000000000000000000000000000000000000000000000000000\n      dup2\n      mstore\n      0x04\n      add\n      tag_84\n      swap1\n      tag_54\n      jump\t// in\n    tag_84:\n      mload(0x40)\n      dup1\n      swap2\n      sub\n      swap1\n      revert\n    tag_83:\n        /* \"NFT-Contracts/contracts/market_pri/market_place.sol\":3501:3617  FixedSale(\r... */\n      mload(0x40)\n      dup1\n      0x80\n      add\n      0x40\n      mstore\n      dup1\n        /* \"NFT-Contracts/contracts/market_pri/market_place.sol\":3525:3535  msg.sender */\n      caller\n        /* \"NFT-Contracts/contracts/market_pri/market_place.sol\":3501:3617  FixedSale(\r... */\n      0xffffffffffffffffffffffffffffffffffffffff\n      and\n      dup2\n      mstore\n      0x20\n      add\n        /* \"NFT-Contracts/contracts/market_pri/market_place.sol\":3558:3559  0 */\n      0x00\n        /* \"NFT-Contracts/contracts/market_pri/market_place.sol\":3501:3617  FixedSale(\r... */\n      0xffffffffffffffffffffffffffffffffffffffff\n      and\n      dup2\n      mstore\n      0x20\n      add\n        /* \"NFT-Contracts/contracts/market_pri/market_place.sol\":3575:3581  _erc20 */\n      dup12\n        /* \"NFT-Contracts/contracts/market_pri/market_place.sol\":3501:3617  FixedSale(\r... */\n      0xffffffffffffffffffffffffffffffffffffffff\n      and\n      dup2\n      mstore\n      0x20\n      add\n        /* \"NFT-Contracts/contracts/market_pri/market_place.sol\":3596:3606  _salePrice */\n      dup10\n        /* \"NFT-Contracts/contracts/market_pri/market_place.sol\":3501:3617  FixedSale(\r... */\n      dup2\n      mstore\n      pop\n        /* \"NFT-Contracts/contracts/market_pri/market_place.sol\":3447:3467  nftContractFixedSale */\n      0x00\n        /* \"NFT-Contracts/contracts/market_pri/market_place.sol\":3447:3488  nftContractFixedSale[_nftContractAddress] */\n      dup1\n        /* \"NFT-Contracts/contracts/market_pri/market_place.sol\":3468:3487  _nftContractAddress */\n      dup14\n        /* \"NFT-Contracts/contracts/market_pri/market_place.sol\":3447:3488  nftContractFixedSale[_nftContractAddress] */\n      0xffffffffffffffffffffffffffffffffffffffff\n      and\n      0xffffffffffffffffffffffffffffffffffffffff\n      and\n      dup2\n      mstore\n      0x20\n      add\n      swap1\n      dup2\n      mstore\n      0x20\n      add\n      0x00\n      keccak256\n        /* \"NFT-Contracts/contracts/market_pri/market_place.sol\":3447:3498  nftContractFixedSale[_nftContractAddress][_tokenId] */\n      0x00\n        /* \"NFT-Contracts/contracts/market_pri/market_place.sol\":3489:3497  _tokenId */\n      dup12\n        /* \"NFT-Contracts/contracts/market_pri/market_place.sol\":3447:3498  nftContractFixedSale[_nftContractAddress][_tokenId] */\n      dup2\n      mstore\n      0x20\n      add\n      swap1\n      dup2\n      mstore\n      0x20\n      add\n      0x00\n      keccak256\n        /* \"NFT-Contracts/contracts/market_pri/market_place.sol\":3447:3617  nftContractFixedSale[_nftContractAddress][_tokenId] = FixedSale(\r... */\n      0x00\n      dup3\n      add\n      mload\n      dup2\n      0x00\n      add\n      exp(0x0100, 0x00)\n      dup2\n      sload\n      dup2\n      0xffffffffffffffffffffffffffffffffffffffff\n      mul\n      not\n      and\n      swap1\n      dup4\n      0xffffffffffffffffffffffffffffffffffffffff\n      and\n      mul\n      or\n      swap1\n      sstore\n      pop\n      0x20\n      dup3\n      add\n      mload\n      dup2\n      0x01\n      add\n      exp(0x0100, 0x00)\n      dup2\n      sload\n      dup2\n      0xffffffffffffffffffffffffffffffffffffffff\n      mul\n      not\n      and\n      swap1\n      dup4\n      0xffffffffffffffffffffffffffffffffffffffff\n      and\n      mul\n      or\n      swap1\n      sstore\n      pop\n      0x40\n      dup3\n      add\n      mload\n      dup2\n      0x02\n      add\n      exp(0x0100, 0x00)\n      dup2\n      sload\n      dup2\n      0xffffffffffffffffffffffffffffffffffffffff\n      mul\n      not\n      and\n      swap1\n      dup4\n      0xffffffffffffffffffffffffffffffffffffffff\n      and\n      mul\n      or\n      swap1\n      sstore\n      pop\n      0x60\n      dup3\n      add\n      mload\n      dup2\n      0x03\n      add\n      sstore\n      swap1\n      pop\n      pop\n        /* \"NFT-Contracts/contracts/market_pri/market_place.sol\":3677:3678  1 */\n      0x01\n        /* \"NFT-Contracts/contracts/market_pri/market_place.sol\":3630:3643  nftSaleStatus */\n      dup1\n        /* \"NFT-Contracts/contracts/market_pri/market_place.sol\":3630:3664  nftSaleStatus[_nftContractAddress] */\n      0x00\n        /* \"NFT-Contracts/contracts/market_pri/market_place.sol\":3644:3663  _nftContractAddress */\n      dup14\n        /* \"NFT-Contracts/contracts/market_pri/market_place.sol\":3630:3664  nftSaleStatus[_nftContractAddress] */\n      0xffffffffffffffffffffffffffffffffffffffff\n      and\n      0xffffffffffffffffffffffffffffffffffffffff\n      and\n      dup2\n      mstore\n      0x20\n      add\n      swap1\n      dup2\n      mstore\n      0x20\n      add\n      0x00\n      keccak256\n        /* \"NFT-Contracts/contracts/market_pri/market_place.sol\":3630:3674  nftSaleStatus[_nftContractAddress][_tokenId] */\n      0x00\n        /* \"NFT-Contracts/contracts/market_pri/market_place.sol\":3665:3673  _tokenId */\n      dup12\n        /* \"NFT-Contracts/contracts/market_pri/market_place.sol\":3630:3674  nftSaleStatus[_nftContractAddress][_tokenId] */\n      dup2\n      mstore\n      0x20\n      add\n      swap1\n      dup2\n      mstore\n      0x20\n      add\n      0x00\n      keccak256\n        /* \"NFT-Contracts/contracts/market_pri/market_place.sol\":3630:3678  nftSaleStatus[_nftContractAddress][_tokenId] = 1 */\n      dup2\n      swap1\n      sstore\n      pop\n        /* \"NFT-Contracts/contracts/market_pri/market_place.sol\":3699:3718  _nftContractAddress */\n      dup11\n        /* \"NFT-Contracts/contracts/market_pri/market_place.sol\":3691:3736  IERC721(_nftContractAddress).safeTransferFrom */\n      0xffffffffffffffffffffffffffffffffffffffff\n      and\n      0x42842e0e\n        /* \"NFT-Contracts/contracts/market_pri/market_place.sol\":3751:3761  msg.sender */\n      caller\n        /* \"NFT-Contracts/contracts/market_pri/market_place.sol\":3784:3788  this */\n      address\n        /* \"NFT-Contracts/contracts/market_pri/market_place.sol\":3804:3812  _tokenId */\n      dup13\n        /* \"NFT-Contracts/contracts/market_pri/market_place.sol\":3691:3823  IERC721(_nftContractAddress).safeTransferFrom(\r... */\n      mload(0x40)\n      dup5\n      0xffffffff\n      and\n      0xe0\n      shl\n      dup2\n      mstore\n      0x04\n      add\n      tag_86\n      swap4\n      swap3\n      swap2\n      swap1\n      tag_87\n      jump\t// in\n    tag_86:\n      0x00\n      mload(0x40)\n      dup1\n      dup4\n      sub\n      dup2\n      0x00\n      dup8\n      dup1\n      extcodesize\n      iszero\n      dup1\n      iszero\n      tag_88\n      jumpi\n      0x00\n      dup1\n      revert\n    tag_88:\n      pop\n      gas\n      call\n      iszero\n      dup1\n      iszero\n      tag_90\n      jumpi\n      returndatasize\n      0x00\n      dup1\n      returndatacopy\n      revert(0x00, returndatasize)\n    tag_90:\n      pop\n      pop\n      pop\n      pop\n        /* \"NFT-Contracts/contracts/market_pri/market_place.sol\":3841:4022  NftFixedSale(\r... */\n      0x078eead3cd01ed921c7653d000a6b73aea643a7b9c066fb7d93eb2eae8acc2d9\n        /* \"NFT-Contracts/contracts/market_pri/market_place.sol\":3868:3887  _nftContractAddress */\n      dup12\n        /* \"NFT-Contracts/contracts/market_pri/market_place.sol\":3902:3912  msg.sender */\n      caller\n        /* \"NFT-Contracts/contracts/market_pri/market_place.sol\":3927:3933  _erc20 */\n      dup13\n        /* \"NFT-Contracts/contracts/market_pri/market_place.sol\":3948:3956  _tokenId */\n      dup13\n        /* \"NFT-Contracts/contracts/market_pri/market_place.sol\":3971:3981  _salePrice */\n      dup13\n        /* \"NFT-Contracts/contracts/market_pri/market_place.sol\":3996:4011  block.timestamp */\n      timestamp\n        /* \"NFT-Contracts/contracts/market_pri/market_place.sol\":3841:4022  NftFixedSale(\r... */\n      mload(0x40)\n      tag_91\n      swap7\n      swap6\n      swap5\n      swap4\n      swap3\n      swap2\n      swap1\n      tag_92\n      jump\t// in\n    tag_91:\n      mload(0x40)\n      dup1\n      swap2\n      sub\n      swap1\n      log1\n        /* \"NFT-Contracts/contracts/market_pri/market_place.sol\":2549:2550  _ */\n      pop\n        /* \"NFT-Contracts/contracts/market_pri/market_place.sol\":1483:1484  _ */\n      pop\n      pop\n        /* \"NFT-Contracts/contracts/market_pri/market_place.sol\":1960:1961  _ */\n      pop\n      pop\n        /* \"NFT-Contracts/contracts/market_pri/market_place.sol\":3047:4030  function nftFixedSale(\r... */\n      pop\n      pop\n      pop\n      pop\n      pop\n      pop\n      jump\t// out\n        /* \"NFT-Contracts/contracts/market_pri/market_place.sol\":5134:6191  function buyFromFixedSale(\r... */\n    tag_37:\n        /* \"NFT-Contracts/contracts/market_pri/market_place.sol\":5319:5338  _nftContractAddress */\n      dup3\n        /* \"NFT-Contracts/contracts/market_pri/market_place.sol\":5340:5348  _tokenId */\n      dup3\n        /* \"NFT-Contracts/contracts/market_pri/market_place.sol\":1654:1655  1 */\n      0x01\n        /* \"NFT-Contracts/contracts/market_pri/market_place.sol\":1606:1619  nftSaleStatus */\n      dup1\n        /* \"NFT-Contracts/contracts/market_pri/market_place.sol\":1606:1640  nftSaleStatus[_nftContractAddress] */\n      0x00\n        /* \"NFT-Contracts/contracts/market_pri/market_place.sol\":1620:1639  _nftContractAddress */\n      dup5\n        /* \"NFT-Contracts/contracts/market_pri/market_place.sol\":1606:1640  nftSaleStatus[_nftContractAddress] */\n      0xffffffffffffffffffffffffffffffffffffffff\n      and\n      0xffffffffffffffffffffffffffffffffffffffff\n      and\n      dup2\n      mstore\n      0x20\n      add\n      swap1\n      dup2\n      mstore\n      0x20\n      add\n      0x00\n      keccak256\n        /* \"NFT-Contracts/contracts/market_pri/market_place.sol\":1606:1650  nftSaleStatus[_nftContractAddress][_tokenId] */\n      0x00\n        /* \"NFT-Contracts/contracts/market_pri/market_place.sol\":1641:1649  _tokenId */\n      dup4\n        /* \"NFT-Contracts/contracts/market_pri/market_place.sol\":1606:1650  nftSaleStatus[_nftContractAddress][_tokenId] */\n      dup2\n      mstore\n      0x20\n      add\n      swap1\n      dup2\n      mstore\n      0x20\n      add\n      0x00\n      keccak256\n      sload\n        /* \"NFT-Contracts/contracts/market_pri/market_place.sol\":1606:1655  nftSaleStatus[_nftContractAddress][_tokenId] == 1 */\n      eq\n        /* \"NFT-Contracts/contracts/market_pri/market_place.sol\":1584:1704  require(\r... */\n      tag_94\n      jumpi\n      mload(0x40)\n      0x08c379a000000000000000000000000000000000000000000000000000000000\n      dup2\n      mstore\n      0x04\n      add\n      tag_95\n      swap1\n      tag_46\n      jump\t// in\n    tag_95:\n      mload(0x40)\n      dup1\n      swap2\n      sub\n      swap1\n      revert\n    tag_94:\n        /* \"NFT-Contracts/contracts/market_pri/market_place.sol\":5380:5387  _amount */\n      dup3\n        /* \"NFT-Contracts/contracts/market_pri/market_place.sol\":2971:2972  0 */\n      0x00\n        /* \"NFT-Contracts/contracts/market_pri/market_place.sol\":2962:2968  _price */\n      dup2\n        /* \"NFT-Contracts/contracts/market_pri/market_place.sol\":2962:2972  _price > 0 */\n      gt\n        /* \"NFT-Contracts/contracts/market_pri/market_place.sol\":2954:2994  require(_price > 0, \"Price cannot be 0\") */\n      tag_97\n      jumpi\n      mload(0x40)\n      0x08c379a000000000000000000000000000000000000000000000000000000000\n      dup2\n      mstore\n      0x04\n      add\n      tag_98\n      swap1\n      tag_54\n      jump\t// in\n    tag_98:\n      mload(0x40)\n      dup1\n      swap2\n      sub\n      swap1\n      revert\n    tag_97:\n        /* \"NFT-Contracts/contracts/market_pri/market_place.sol\":5420:5439  _nftContractAddress */\n      dup6\n        /* \"NFT-Contracts/contracts/market_pri/market_place.sol\":5441:5449  _tokenId */\n      dup6\n        /* \"NFT-Contracts/contracts/market_pri/market_place.sol\":5451:5458  _amount */\n      dup6\n        /* \"NFT-Contracts/contracts/market_pri/market_place.sol\":2760:2780  nftContractFixedSale */\n      0x00\n        /* \"NFT-Contracts/contracts/market_pri/market_place.sol\":2760:2801  nftContractFixedSale[_nftContractAddress] */\n      dup1\n        /* \"NFT-Contracts/contracts/market_pri/market_place.sol\":2781:2800  _nftContractAddress */\n      dup5\n        /* \"NFT-Contracts/contracts/market_pri/market_place.sol\":2760:2801  nftContractFixedSale[_nftContractAddress] */\n      0xffffffffffffffffffffffffffffffffffffffff\n      and\n      0xffffffffffffffffffffffffffffffffffffffff\n      and\n      dup2\n      mstore\n      0x20\n      add\n      swap1\n      dup2\n      mstore\n      0x20\n      add\n      0x00\n      keccak256\n        /* \"NFT-Contracts/contracts/market_pri/market_place.sol\":2760:2811  nftContractFixedSale[_nftContractAddress][_tokenId] */\n      0x00\n        /* \"NFT-Contracts/contracts/market_pri/market_place.sol\":2802:2810  _tokenId */\n      dup4\n        /* \"NFT-Contracts/contracts/market_pri/market_place.sol\":2760:2811  nftContractFixedSale[_nftContractAddress][_tokenId] */\n      dup2\n      mstore\n      0x20\n      add\n      swap1\n      dup2\n      mstore\n      0x20\n      add\n      0x00\n      keccak256\n        /* \"NFT-Contracts/contracts/market_pri/market_place.sol\":2760:2821  nftContractFixedSale[_nftContractAddress][_tokenId].salePrice */\n      0x03\n      add\n      sload\n        /* \"NFT-Contracts/contracts/market_pri/market_place.sol\":2730:2739  _buyPrice */\n      dup2\n        /* \"NFT-Contracts/contracts/market_pri/market_place.sol\":2730:2821  _buyPrice >=\r... */\n      lt\n      iszero\n        /* \"NFT-Contracts/contracts/market_pri/market_place.sol\":2708:2869  require(\r... */\n      tag_100\n      jumpi\n      mload(0x40)\n      0x08c379a000000000000000000000000000000000000000000000000000000000\n      dup2\n      mstore\n      0x04\n      add\n      tag_101\n      swap1\n      tag_102\n      jump\t// in\n    tag_101:\n      mload(0x40)\n      dup1\n      swap2\n      sub\n      swap1\n      revert\n    tag_100:\n        /* \"NFT-Contracts/contracts/market_pri/market_place.sol\":5484:5503  _nftContractAddress */\n      dup9\n        /* \"NFT-Contracts/contracts/market_pri/market_place.sol\":5476:5521  IERC721(_nftContractAddress).safeTransferFrom */\n      0xffffffffffffffffffffffffffffffffffffffff\n      and\n      0x42842e0e\n        /* \"NFT-Contracts/contracts/market_pri/market_place.sol\":5544:5548  this */\n      address\n        /* \"NFT-Contracts/contracts/market_pri/market_place.sol\":5564:5574  msg.sender */\n      caller\n        /* \"NFT-Contracts/contracts/market_pri/market_place.sol\":5589:5597  _tokenId */\n      dup12\n        /* \"NFT-Contracts/contracts/market_pri/market_place.sol\":5476:5608  IERC721(_nftContractAddress).safeTransferFrom(\r... */\n      mload(0x40)\n      dup5\n      0xffffffff\n      and\n      0xe0\n      shl\n      dup2\n      mstore\n      0x04\n      add\n      tag_104\n      swap4\n      swap3\n      swap2\n      swap1\n      tag_87\n      jump\t// in\n    tag_104:\n      0x00\n      mload(0x40)\n      dup1\n      dup4\n      sub\n      dup2\n      0x00\n      dup8\n      dup1\n      extcodesize\n      iszero\n      dup1\n      iszero\n      tag_105\n      jumpi\n      0x00\n      dup1\n      revert\n    tag_105:\n      pop\n      gas\n      call\n      iszero\n      dup1\n      iszero\n      tag_107\n      jumpi\n      returndatasize\n      0x00\n      dup1\n      returndatacopy\n      revert(0x00, returndatasize)\n    tag_107:\n      pop\n      pop\n      pop\n      pop\n        /* \"NFT-Contracts/contracts/market_pri/market_place.sol\":5668:5669  0 */\n      0x00\n        /* \"NFT-Contracts/contracts/market_pri/market_place.sol\":5621:5634  nftSaleStatus */\n      0x01\n        /* \"NFT-Contracts/contracts/market_pri/market_place.sol\":5621:5655  nftSaleStatus[_nftContractAddress] */\n      0x00\n        /* \"NFT-Contracts/contracts/market_pri/market_place.sol\":5635:5654  _nftContractAddress */\n      dup12\n        /* \"NFT-Contracts/contracts/market_pri/market_place.sol\":5621:5655  nftSaleStatus[_nftContractAddress] */\n      0xffffffffffffffffffffffffffffffffffffffff\n      and\n      0xffffffffffffffffffffffffffffffffffffffff\n      and\n      dup2\n      mstore\n      0x20\n      add\n      swap1\n      dup2\n      mstore\n      0x20\n      add\n      0x00\n      keccak256\n        /* \"NFT-Contracts/contracts/market_pri/market_place.sol\":5621:5665  nftSaleStatus[_nftContractAddress][_tokenId] */\n      0x00\n        /* \"NFT-Contracts/contracts/market_pri/market_place.sol\":5656:5664  _tokenId */\n      dup11\n        /* \"NFT-Contracts/contracts/market_pri/market_place.sol\":5621:5665  nftSaleStatus[_nftContractAddress][_tokenId] */\n      dup2\n      mstore\n      0x20\n      add\n      swap1\n      dup2\n      mstore\n      0x20\n      add\n      0x00\n      keccak256\n        /* \"NFT-Contracts/contracts/market_pri/market_place.sol\":5621:5669  nftSaleStatus[_nftContractAddress][_tokenId] = 0 */\n      dup2\n      swap1\n      sstore\n      pop\n        /* \"NFT-Contracts/contracts/market_pri/market_place.sol\":5745:5769  msg\r... */\n      caller\n        /* \"NFT-Contracts/contracts/market_pri/market_place.sol\":5682:5702  nftContractFixedSale */\n      0x00\n        /* \"NFT-Contracts/contracts/market_pri/market_place.sol\":5682:5723  nftContractFixedSale[_nftContractAddress] */\n      dup1\n        /* \"NFT-Contracts/contracts/market_pri/market_place.sol\":5703:5722  _nftContractAddress */\n      dup12\n        /* \"NFT-Contracts/contracts/market_pri/market_place.sol\":5682:5723  nftContractFixedSale[_nftContractAddress] */\n      0xffffffffffffffffffffffffffffffffffffffff\n      and\n      0xffffffffffffffffffffffffffffffffffffffff\n      and\n      dup2\n      mstore\n      0x20\n      add\n      swap1\n      dup2\n      mstore\n      0x20\n      add\n      0x00\n      keccak256\n        /* \"NFT-Contracts/contracts/market_pri/market_place.sol\":5682:5733  nftContractFixedSale[_nftContractAddress][_tokenId] */\n      0x00\n        /* \"NFT-Contracts/contracts/market_pri/market_place.sol\":5724:5732  _tokenId */\n      dup11\n        /* \"NFT-Contracts/contracts/market_pri/market_place.sol\":5682:5733  nftContractFixedSale[_nftContractAddress][_tokenId] */\n      dup2\n      mstore\n      0x20\n      add\n      swap1\n      dup2\n      mstore\n      0x20\n      add\n      0x00\n      keccak256\n        /* \"NFT-Contracts/contracts/market_pri/market_place.sol\":5682:5742  nftContractFixedSale[_nftContractAddress][_tokenId].nftBuyer */\n      0x01\n      add\n      0x00\n        /* \"NFT-Contracts/contracts/market_pri/market_place.sol\":5682:5769  nftContractFixedSale[_nftContractAddress][_tokenId].nftBuyer = msg\r... */\n      0x0100\n      exp\n      dup2\n      sload\n      dup2\n      0xffffffffffffffffffffffffffffffffffffffff\n      mul\n      not\n      and\n      swap1\n      dup4\n      0xffffffffffffffffffffffffffffffffffffffff\n      and\n      mul\n      or\n      swap1\n      sstore\n      pop\n        /* \"NFT-Contracts/contracts/market_pri/market_place.sol\":5782:6031  _isTokenOrCoin(\r... */\n      tag_108\n        /* \"NFT-Contracts/contracts/market_pri/market_place.sol\":5811:5831  nftContractFixedSale */\n      0x00\n        /* \"NFT-Contracts/contracts/market_pri/market_place.sol\":5811:5852  nftContractFixedSale[_nftContractAddress] */\n      dup1\n        /* \"NFT-Contracts/contracts/market_pri/market_place.sol\":5832:5851  _nftContractAddress */\n      dup12\n        /* \"NFT-Contracts/contracts/market_pri/market_place.sol\":5811:5852  nftContractFixedSale[_nftContractAddress] */\n      0xffffffffffffffffffffffffffffffffffffffff\n      and\n      0xffffffffffffffffffffffffffffffffffffffff\n      and\n      dup2\n      mstore\n      0x20\n      add\n      swap1\n      dup2\n      mstore\n      0x20\n      add\n      0x00\n      keccak256\n        /* \"NFT-Contracts/contracts/market_pri/market_place.sol\":5811:5862  nftContractFixedSale[_nftContractAddress][_tokenId] */\n      0x00\n        /* \"NFT-Contracts/contracts/market_pri/market_place.sol\":5853:5861  _tokenId */\n      dup11\n        /* \"NFT-Contracts/contracts/market_pri/market_place.sol\":5811:5862  nftContractFixedSale[_nftContractAddress][_tokenId] */\n      dup2\n      mstore\n      0x20\n      add\n      swap1\n      dup2\n      mstore\n      0x20\n      add\n      0x00\n      keccak256\n        /* \"NFT-Contracts/contracts/market_pri/market_place.sol\":5811:5872  nftContractFixedSale[_nftContractAddress][_tokenId].nftSeller */\n      0x00\n      add\n      0x00\n      swap1\n      sload\n      swap1\n      0x0100\n      exp\n      swap1\n      div\n      0xffffffffffffffffffffffffffffffffffffffff\n      and\n        /* \"NFT-Contracts/contracts/market_pri/market_place.sol\":5887:5907  nftContractFixedSale */\n      0x00\n        /* \"NFT-Contracts/contracts/market_pri/market_place.sol\":5887:5928  nftContractFixedSale[_nftContractAddress] */\n      dup1\n        /* \"NFT-Contracts/contracts/market_pri/market_place.sol\":5908:5927  _nftContractAddress */\n      dup13\n        /* \"NFT-Contracts/contracts/market_pri/market_place.sol\":5887:5928  nftContractFixedSale[_nftContractAddress] */\n      0xffffffffffffffffffffffffffffffffffffffff\n      and\n      0xffffffffffffffffffffffffffffffffffffffff\n      and\n      dup2\n      mstore\n      0x20\n      add\n      swap1\n      dup2\n      mstore\n      0x20\n      add\n      0x00\n      keccak256\n        /* \"NFT-Contracts/contracts/market_pri/market_place.sol\":5887:5938  nftContractFixedSale[_nftContractAddress][_tokenId] */\n      0x00\n        /* \"NFT-Contracts/contracts/market_pri/market_place.sol\":5929:5937  _tokenId */\n      dup12\n        /* \"NFT-Contracts/contracts/market_pri/market_place.sol\":5887:5938  nftContractFixedSale[_nftContractAddress][_tokenId] */\n      dup2\n      mstore\n      0x20\n      add\n      swap1\n      dup2\n      mstore\n      0x20\n      add\n      0x00\n      keccak256\n        /* \"NFT-Contracts/contracts/market_pri/market_place.sol\":5887:5944  nftContractFixedSale[_nftContractAddress][_tokenId].erc20 */\n      0x02\n      add\n      0x00\n      swap1\n      sload\n      swap1\n      0x0100\n      exp\n      swap1\n      div\n      0xffffffffffffffffffffffffffffffffffffffff\n      and\n        /* \"NFT-Contracts/contracts/market_pri/market_place.sol\":5959:5979  nftContractFixedSale */\n      0x00\n        /* \"NFT-Contracts/contracts/market_pri/market_place.sol\":5959:6000  nftContractFixedSale[_nftContractAddress] */\n      dup1\n        /* \"NFT-Contracts/contracts/market_pri/market_place.sol\":5980:5999  _nftContractAddress */\n      dup14\n        /* \"NFT-Contracts/contracts/market_pri/market_place.sol\":5959:6000  nftContractFixedSale[_nftContractAddress] */\n      0xffffffffffffffffffffffffffffffffffffffff\n      and\n      0xffffffffffffffffffffffffffffffffffffffff\n      and\n      dup2\n      mstore\n      0x20\n      add\n      swap1\n      dup2\n      mstore\n      0x20\n      add\n      0x00\n      keccak256\n        /* \"NFT-Contracts/contracts/market_pri/market_place.sol\":5959:6010  nftContractFixedSale[_nftContractAddress][_tokenId] */\n      0x00\n        /* \"NFT-Contracts/contracts/market_pri/market_place.sol\":6001:6009  _tokenId */\n      dup13\n        /* \"NFT-Contracts/contracts/market_pri/market_place.sol\":5959:6010  nftContractFixedSale[_nftContractAddress][_tokenId] */\n      dup2\n      mstore\n      0x20\n      add\n      swap1\n      dup2\n      mstore\n      0x20\n      add\n      0x00\n      keccak256\n        /* \"NFT-Contracts/contracts/market_pri/market_place.sol\":5959:6020  nftContractFixedSale[_nftContractAddress][_tokenId].salePrice */\n      0x03\n      add\n      sload\n        /* \"NFT-Contracts/contracts/market_pri/market_place.sol\":5782:5796  _isTokenOrCoin */\n      tag_109\n        /* \"NFT-Contracts/contracts/market_pri/market_place.sol\":5782:6031  _isTokenOrCoin(\r... */\n      jump\t// in\n    tag_108:\n        /* \"NFT-Contracts/contracts/market_pri/market_place.sol\":6049:6183  NftBuyFromFixedSale(\r... */\n      0x9fa3b1bb9266e05722b54a7a564d02a274bc80d39f4af21e6be405480996ceba\n        /* \"NFT-Contracts/contracts/market_pri/market_place.sol\":6083:6102  _nftContractAddress */\n      dup10\n        /* \"NFT-Contracts/contracts/market_pri/market_place.sol\":6117:6127  msg.sender */\n      caller\n        /* \"NFT-Contracts/contracts/market_pri/market_place.sol\":6142:6150  _tokenId */\n      dup11\n        /* \"NFT-Contracts/contracts/market_pri/market_place.sol\":6165:6172  _amount */\n      dup11\n        /* \"NFT-Contracts/contracts/market_pri/market_place.sol\":6049:6183  NftBuyFromFixedSale(\r... */\n      mload(0x40)\n      tag_110\n      swap5\n      swap4\n      swap3\n      swap2\n      swap1\n      tag_111\n      jump\t// in\n    tag_110:\n      mload(0x40)\n      dup1\n      swap2\n      sub\n      swap1\n      log1\n        /* \"NFT-Contracts/contracts/market_pri/market_place.sol\":3005:3006  _ */\n      pop\n      pop\n      pop\n        /* \"NFT-Contracts/contracts/market_pri/market_place.sol\":1715:1716  _ */\n      pop\n        /* \"NFT-Contracts/contracts/market_pri/market_place.sol\":5134:6191  function buyFromFixedSale(\r... */\n      pop\n      pop\n      pop\n      pop\n      pop\n      jump\t// out\n        /* \"NFT-Contracts/contracts/market_pri/market_place.sol\":4038:4540  function cancelFixedsale(address _nftContractAddress, uint256 _tokenId)\r... */\n    tag_41:\n        /* \"NFT-Contracts/contracts/market_pri/market_place.sol\":4154:4173  _nftContractAddress */\n      dup2\n        /* \"NFT-Contracts/contracts/market_pri/market_place.sol\":4175:4183  _tokenId */\n      dup2\n        /* \"NFT-Contracts/contracts/market_pri/market_place.sol\":1654:1655  1 */\n      0x01\n        /* \"NFT-Contracts/contracts/market_pri/market_place.sol\":1606:1619  nftSaleStatus */\n      dup1\n        /* \"NFT-Contracts/contracts/market_pri/market_place.sol\":1606:1640  nftSaleStatus[_nftContractAddress] */\n      0x00\n        /* \"NFT-Contracts/contracts/market_pri/market_place.sol\":1620:1639  _nftContractAddress */\n      dup5\n        /* \"NFT-Contracts/contracts/market_pri/market_place.sol\":1606:1640  nftSaleStatus[_nftContractAddress] */\n      0xffffffffffffffffffffffffffffffffffffffff\n      and\n      0xffffffffffffffffffffffffffffffffffffffff\n      and\n      dup2\n      mstore\n      0x20\n      add\n      swap1\n      dup2\n      mstore\n      0x20\n      add\n      0x00\n      keccak256\n        /* \"NFT-Contracts/contracts/market_pri/market_place.sol\":1606:1650  nftSaleStatus[_nftContractAddress][_tokenId] */\n      0x00\n        /* \"NFT-Contracts/contracts/market_pri/market_place.sol\":1641:1649  _tokenId */\n      dup4\n        /* \"NFT-Contracts/contracts/market_pri/market_place.sol\":1606:1650  nftSaleStatus[_nftContractAddress][_tokenId] */\n      dup2\n      mstore\n      0x20\n      add\n      swap1\n      dup2\n      mstore\n      0x20\n      add\n      0x00\n      keccak256\n      sload\n        /* \"NFT-Contracts/contracts/market_pri/market_place.sol\":1606:1655  nftSaleStatus[_nftContractAddress][_tokenId] == 1 */\n      eq\n        /* \"NFT-Contracts/contracts/market_pri/market_place.sol\":1584:1704  require(\r... */\n      tag_113\n      jumpi\n      mload(0x40)\n      0x08c379a000000000000000000000000000000000000000000000000000000000\n      dup2\n      mstore\n      0x04\n      add\n      tag_114\n      swap1\n      tag_46\n      jump\t// in\n    tag_114:\n      mload(0x40)\n      dup1\n      swap2\n      sub\n      swap1\n      revert\n    tag_113:\n        /* \"NFT-Contracts/contracts/market_pri/market_place.sol\":4213:4232  _nftContractAddress */\n      dup4\n        /* \"NFT-Contracts/contracts/market_pri/market_place.sol\":4234:4242  _tokenId */\n      dup4\n        /* \"NFT-Contracts/contracts/market_pri/market_place.sol\":2116:2136  nftContractFixedSale */\n      0x00\n        /* \"NFT-Contracts/contracts/market_pri/market_place.sol\":2116:2157  nftContractFixedSale[_nftContractAddress] */\n      dup1\n        /* \"NFT-Contracts/contracts/market_pri/market_place.sol\":2137:2156  _nftContractAddress */\n      dup4\n        /* \"NFT-Contracts/contracts/market_pri/market_place.sol\":2116:2157  nftContractFixedSale[_nftContractAddress] */\n      0xffffffffffffffffffffffffffffffffffffffff\n      and\n      0xffffffffffffffffffffffffffffffffffffffff\n      and\n      dup2\n      mstore\n      0x20\n      add\n      swap1\n      dup2\n      mstore\n      0x20\n      add\n      0x00\n      keccak256\n        /* \"NFT-Contracts/contracts/market_pri/market_place.sol\":2116:2167  nftContractFixedSale[_nftContractAddress][_tokenId] */\n      0x00\n        /* \"NFT-Contracts/contracts/market_pri/market_place.sol\":2158:2166  _tokenId */\n      dup3\n        /* \"NFT-Contracts/contracts/market_pri/market_place.sol\":2116:2167  nftContractFixedSale[_nftContractAddress][_tokenId] */\n      dup2\n      mstore\n      0x20\n      add\n      swap1\n      dup2\n      mstore\n      0x20\n      add\n      0x00\n      keccak256\n        /* \"NFT-Contracts/contracts/market_pri/market_place.sol\":2116:2177  nftContractFixedSale[_nftContractAddress][_tokenId].nftSeller */\n      0x00\n      add\n      0x00\n      swap1\n      sload\n      swap1\n      0x0100\n      exp\n      swap1\n      div\n      0xffffffffffffffffffffffffffffffffffffffff\n      and\n        /* \"NFT-Contracts/contracts/market_pri/market_place.sol\":2085:2177  msg.sender ==\r... */\n      0xffffffffffffffffffffffffffffffffffffffff\n      and\n        /* \"NFT-Contracts/contracts/market_pri/market_place.sol\":2085:2095  msg.sender */\n      caller\n        /* \"NFT-Contracts/contracts/market_pri/market_place.sol\":2085:2177  msg.sender ==\r... */\n      0xffffffffffffffffffffffffffffffffffffffff\n      and\n      eq\n        /* \"NFT-Contracts/contracts/market_pri/market_place.sol\":2063:2226  require(\r... */\n      tag_116\n      jumpi\n      mload(0x40)\n      0x08c379a000000000000000000000000000000000000000000000000000000000\n      dup2\n      mstore\n      0x04\n      add\n      tag_117\n      swap1\n      tag_50\n      jump\t// in\n    tag_117:\n      mload(0x40)\n      dup1\n      swap2\n      sub\n      swap1\n      revert\n    tag_116:\n        /* \"NFT-Contracts/contracts/market_pri/market_place.sol\":4268:4287  _nftContractAddress */\n      dup6\n        /* \"NFT-Contracts/contracts/market_pri/market_place.sol\":4260:4305  IERC721(_nftContractAddress).safeTransferFrom */\n      0xffffffffffffffffffffffffffffffffffffffff\n      and\n      0x42842e0e\n        /* \"NFT-Contracts/contracts/market_pri/market_place.sol\":4328:4332  this */\n      address\n        /* \"NFT-Contracts/contracts/market_pri/market_place.sol\":4348:4358  msg.sender */\n      caller\n        /* \"NFT-Contracts/contracts/market_pri/market_place.sol\":4373:4381  _tokenId */\n      dup9\n        /* \"NFT-Contracts/contracts/market_pri/market_place.sol\":4260:4392  IERC721(_nftContractAddress).safeTransferFrom(\r... */\n      mload(0x40)\n      dup5\n      0xffffffff\n      and\n      0xe0\n      shl\n      dup2\n      mstore\n      0x04\n      add\n      tag_119\n      swap4\n      swap3\n      swap2\n      swap1\n      tag_87\n      jump\t// in\n    tag_119:\n      0x00\n      mload(0x40)\n      dup1\n      dup4\n      sub\n      dup2\n      0x00\n      dup8\n      dup1\n      extcodesize\n      iszero\n      dup1\n      iszero\n      tag_120\n      jumpi\n      0x00\n      dup1\n      revert\n    tag_120:\n      pop\n      gas\n      call\n      iszero\n      dup1\n      iszero\n      tag_122\n      jumpi\n      returndatasize\n      0x00\n      dup1\n      returndatacopy\n      revert(0x00, returndatasize)\n    tag_122:\n      pop\n      pop\n      pop\n      pop\n        /* \"NFT-Contracts/contracts/market_pri/market_place.sol\":4452:4453  0 */\n      0x00\n        /* \"NFT-Contracts/contracts/market_pri/market_place.sol\":4405:4418  nftSaleStatus */\n      0x01\n        /* \"NFT-Contracts/contracts/market_pri/market_place.sol\":4405:4439  nftSaleStatus[_nftContractAddress] */\n      0x00\n        /* \"NFT-Contracts/contracts/market_pri/market_place.sol\":4419:4438  _nftContractAddress */\n      dup9\n        /* \"NFT-Contracts/contracts/market_pri/market_place.sol\":4405:4439  nftSaleStatus[_nftContractAddress] */\n      0xffffffffffffffffffffffffffffffffffffffff\n      and\n      0xffffffffffffffffffffffffffffffffffffffff\n      and\n      dup2\n      mstore\n      0x20\n      add\n      swap1\n      dup2\n      mstore\n      0x20\n      add\n      0x00\n      keccak256\n        /* \"NFT-Contracts/contracts/market_pri/market_place.sol\":4405:4449  nftSaleStatus[_nftContractAddress][_tokenId] */\n      0x00\n        /* \"NFT-Contracts/contracts/market_pri/market_place.sol\":4440:4448  _tokenId */\n      dup8\n        /* \"NFT-Contracts/contracts/market_pri/market_place.sol\":4405:4449  nftSaleStatus[_nftContractAddress][_tokenId] */\n      dup2\n      mstore\n      0x20\n      add\n      swap1\n      dup2\n      mstore\n      0x20\n      add\n      0x00\n      keccak256\n        /* \"NFT-Contracts/contracts/market_pri/market_place.sol\":4405:4453  nftSaleStatus[_nftContractAddress][_tokenId] = 0 */\n      dup2\n      swap1\n      sstore\n      pop\n        /* \"NFT-Contracts/contracts/market_pri/market_place.sol\":4471:4532  CancelNftFixedSale(_nftContractAddress, msg.sender, _tokenId) */\n      0xd7348ff00cf381a884144b50b3441398a48a7974ec349287df80e18cec9f5a31\n        /* \"NFT-Contracts/contracts/market_pri/market_place.sol\":4490:4509  _nftContractAddress */\n      dup7\n        /* \"NFT-Contracts/contracts/market_pri/market_place.sol\":4511:4521  msg.sender */\n      caller\n        /* \"NFT-Contracts/contracts/market_pri/market_place.sol\":4523:4531  _tokenId */\n      dup8\n        /* \"NFT-Contracts/contracts/market_pri/market_place.sol\":4471:4532  CancelNftFixedSale(_nftContractAddress, msg.sender, _tokenId) */\n      mload(0x40)\n      tag_123\n      swap4\n      swap3\n      swap2\n      swap1\n      tag_87\n      jump\t// in\n    tag_123:\n      mload(0x40)\n      dup1\n      swap2\n      sub\n      swap1\n      log1\n        /* \"NFT-Contracts/contracts/market_pri/market_place.sol\":1715:1716  _ */\n      pop\n      pop\n        /* \"NFT-Contracts/contracts/market_pri/market_place.sol\":4038:4540  function cancelFixedsale(address _nftContractAddress, uint256 _tokenId)\r... */\n      pop\n      pop\n      pop\n      pop\n      jump\t// out\n        /* \"NFT-Contracts/contracts/market_pri/market_place.sol\":6428:6752  function _isTokenOrCoin(\r... */\n    tag_109:\n        /* \"NFT-Contracts/contracts/market_pri/market_place.sol\":6584:6585  0 */\n      0x00\n        /* \"NFT-Contracts/contracts/market_pri/market_place.sol\":6566:6586  _erc20 != address(0) */\n      0xffffffffffffffffffffffffffffffffffffffff\n      and\n        /* \"NFT-Contracts/contracts/market_pri/market_place.sol\":6566:6572  _erc20 */\n      dup3\n        /* \"NFT-Contracts/contracts/market_pri/market_place.sol\":6566:6586  _erc20 != address(0) */\n      0xffffffffffffffffffffffffffffffffffffffff\n      and\n      eq\n        /* \"NFT-Contracts/contracts/market_pri/market_place.sol\":6562:6745  if (_erc20 != address(0)) {\r... */\n      tag_125\n      jumpi\n        /* \"NFT-Contracts/contracts/market_pri/market_place.sol\":6603:6655  _tokenAmountTransfer(_nftSeller, _erc20, _buyAmount) */\n      tag_126\n        /* \"NFT-Contracts/contracts/market_pri/market_place.sol\":6624:6634  _nftSeller */\n      dup4\n        /* \"NFT-Contracts/contracts/market_pri/market_place.sol\":6636:6642  _erc20 */\n      dup4\n        /* \"NFT-Contracts/contracts/market_pri/market_place.sol\":6644:6654  _buyAmount */\n      dup4\n        /* \"NFT-Contracts/contracts/market_pri/market_place.sol\":6603:6623  _tokenAmountTransfer */\n      tag_127\n        /* \"NFT-Contracts/contracts/market_pri/market_place.sol\":6603:6655  _tokenAmountTransfer(_nftSeller, _erc20, _buyAmount) */\n      jump\t// in\n    tag_126:\n        /* \"NFT-Contracts/contracts/market_pri/market_place.sol\":6562:6745  if (_erc20 != address(0)) {\r... */\n      jump(tag_128)\n    tag_125:\n        /* \"NFT-Contracts/contracts/market_pri/market_place.sol\":6688:6733  _nativeAmountTransfer(_nftSeller, _buyAmount) */\n      tag_129\n        /* \"NFT-Contracts/contracts/market_pri/market_place.sol\":6710:6720  _nftSeller */\n      dup4\n        /* \"NFT-Contracts/contracts/market_pri/market_place.sol\":6722:6732  _buyAmount */\n      dup3\n        /* \"NFT-Contracts/contracts/market_pri/market_place.sol\":6688:6709  _nativeAmountTransfer */\n      tag_130\n        /* \"NFT-Contracts/contracts/market_pri/market_place.sol\":6688:6733  _nativeAmountTransfer(_nftSeller, _buyAmount) */\n      jump\t// in\n    tag_129:\n        /* \"NFT-Contracts/contracts/market_pri/market_place.sol\":6562:6745  if (_erc20 != address(0)) {\r... */\n    tag_128:\n        /* \"NFT-Contracts/contracts/market_pri/market_place.sol\":6428:6752  function _isTokenOrCoin(\r... */\n      pop\n      pop\n      pop\n      jump\t// out\n        /* \"NFT-Contracts/contracts/market_pri/market_place.sol\":6760:7041  function _tokenAmountTransfer(\r... */\n    tag_127:\n        /* \"NFT-Contracts/contracts/market_pri/market_place.sol\":6929:6935  _erc20 */\n      dup2\n        /* \"NFT-Contracts/contracts/market_pri/market_place.sol\":6922:6949  IERC20(_erc20).transferFrom */\n      0xffffffffffffffffffffffffffffffffffffffff\n      and\n      0x23b872dd\n        /* \"NFT-Contracts/contracts/market_pri/market_place.sol\":6950:6960  msg.sender */\n      caller\n        /* \"NFT-Contracts/contracts/market_pri/market_place.sol\":6962:6972  _nftSeller */\n      dup6\n        /* \"NFT-Contracts/contracts/market_pri/market_place.sol\":6974:6984  _buyAmount */\n      dup5\n        /* \"NFT-Contracts/contracts/market_pri/market_place.sol\":6922:6985  IERC20(_erc20).transferFrom(msg.sender, _nftSeller, _buyAmount) */\n      mload(0x40)\n      dup5\n      0xffffffff\n      and\n      0xe0\n      shl\n      dup2\n      mstore\n      0x04\n      add\n      tag_132\n      swap4\n      swap3\n      swap2\n      swap1\n      tag_87\n      jump\t// in\n    tag_132:\n      0x20\n      mload(0x40)\n      dup1\n      dup4\n      sub\n      dup2\n      0x00\n      dup8\n      dup1\n      extcodesize\n      iszero\n      dup1\n      iszero\n      tag_133\n      jumpi\n      0x00\n      dup1\n      revert\n    tag_133:\n      pop\n      gas\n      call\n      iszero\n      dup1\n      iszero\n      tag_135\n      jumpi\n      returndatasize\n      0x00\n      dup1\n      returndatacopy\n      revert(0x00, returndatasize)\n    tag_135:\n      pop\n      pop\n      pop\n      pop\n      mload(0x40)\n      returndatasize\n      not(0x1f)\n      0x1f\n      dup3\n      add\n      and\n      dup3\n      add\n      dup1\n      0x40\n      mstore\n      pop\n      dup2\n      add\n      swap1\n      tag_136\n      swap2\n      swap1\n      tag_78\n      jump\t// in\n    tag_136:\n        /* \"NFT-Contracts/contracts/market_pri/market_place.sol\":6900:7033  require(\r... */\n      tag_137\n      jumpi\n      mload(0x40)\n      0x08c379a000000000000000000000000000000000000000000000000000000000\n      dup2\n      mstore\n      0x04\n      add\n      tag_138\n      swap1\n      tag_139\n      jump\t// in\n    tag_138:\n      mload(0x40)\n      dup1\n      swap2\n      sub\n      swap1\n      revert\n    tag_137:\n        /* \"NFT-Contracts/contracts/market_pri/market_place.sol\":6760:7041  function _tokenAmountTransfer(\r... */\n      pop\n      pop\n      pop\n      jump\t// out\n        /* \"NFT-Contracts/contracts/market_pri/market_place.sol\":7049:7263  function _nativeAmountTransfer(address _nftSeller, uint256 _buyAmount)\r... */\n    tag_130:\n        /* \"NFT-Contracts/contracts/market_pri/market_place.sol\":7155:7167  bool success */\n      0x00\n        /* \"NFT-Contracts/contracts/market_pri/market_place.sol\":7173:7183  _nftSeller */\n      dup3\n        /* \"NFT-Contracts/contracts/market_pri/market_place.sol\":7173:7188  _nftSeller.call */\n      0xffffffffffffffffffffffffffffffffffffffff\n      and\n        /* \"NFT-Contracts/contracts/market_pri/market_place.sol\":7196:7206  _buyAmount */\n      dup3\n        /* \"NFT-Contracts/contracts/market_pri/market_place.sol\":7173:7211  _nftSeller.call{value: _buyAmount}(\"\") */\n      mload(0x40)\n      tag_141\n      swap1\n      tag_142\n      jump\t// in\n    tag_141:\n      0x00\n      mload(0x40)\n      dup1\n      dup4\n      sub\n      dup2\n      dup6\n      dup8\n      gas\n      call\n      swap3\n      pop\n      pop\n      pop\n      returndatasize\n      dup1\n      0x00\n      dup2\n      eq\n      tag_145\n      jumpi\n      mload(0x40)\n      swap2\n      pop\n      and(add(returndatasize, 0x3f), not(0x1f))\n      dup3\n      add\n      0x40\n      mstore\n      returndatasize\n      dup3\n      mstore\n      returndatasize\n      0x00\n      0x20\n      dup5\n      add\n      returndatacopy\n      jump(tag_144)\n    tag_145:\n      0x60\n      swap2\n      pop\n    tag_144:\n      pop\n        /* \"NFT-Contracts/contracts/market_pri/market_place.sol\":7154:7211  (bool success, ) = _nftSeller.call{value: _buyAmount}(\"\") */\n      pop\n      swap1\n      pop\n        /* \"NFT-Contracts/contracts/market_pri/market_place.sol\":7230:7237  success */\n      dup1\n        /* \"NFT-Contracts/contracts/market_pri/market_place.sol\":7222:7255  require(success, \"refund failed\") */\n      tag_146\n      jumpi\n      mload(0x40)\n      0x08c379a000000000000000000000000000000000000000000000000000000000\n      dup2\n      mstore\n      0x04\n      add\n      tag_147\n      swap1\n      tag_148\n      jump\t// in\n    tag_147:\n      mload(0x40)\n      dup1\n      swap2\n      sub\n      swap1\n      revert\n    tag_146:\n        /* \"NFT-Contracts/contracts/market_pri/market_place.sol\":7143:7263  {\r... */\n      pop\n        /* \"NFT-Contracts/contracts/market_pri/market_place.sol\":7049:7263  function _nativeAmountTransfer(address _nftSeller, uint256 _buyAmount)\r... */\n      pop\n      pop\n      jump\t// out\n        /* \"#utility.yul\":7:146   */\n    tag_150:\n        /* \"#utility.yul\":53:58   */\n      0x00\n        /* \"#utility.yul\":91:97   */\n      dup2\n        /* \"#utility.yul\":78:98   */\n      calldataload\n        /* \"#utility.yul\":69:98   */\n      swap1\n      pop\n        /* \"#utility.yul\":107:140   */\n      tag_152\n        /* \"#utility.yul\":134:139   */\n      dup2\n        /* \"#utility.yul\":107:140   */\n      tag_153\n      jump\t// in\n    tag_152:\n        /* \"#utility.yul\":7:146   */\n      swap3\n      swap2\n      pop\n      pop\n      jump\t// out\n        /* \"#utility.yul\":152:295   */\n    tag_154:\n        /* \"#utility.yul\":209:214   */\n      0x00\n        /* \"#utility.yul\":240:246   */\n      dup2\n        /* \"#utility.yul\":234:247   */\n      mload\n        /* \"#utility.yul\":225:247   */\n      swap1\n      pop\n        /* \"#utility.yul\":256:289   */\n      tag_156\n        /* \"#utility.yul\":283:288   */\n      dup2\n        /* \"#utility.yul\":256:289   */\n      tag_153\n      jump\t// in\n    tag_156:\n        /* \"#utility.yul\":152:295   */\n      swap3\n      swap2\n      pop\n      pop\n      jump\t// out\n        /* \"#utility.yul\":301:438   */\n    tag_157:\n        /* \"#utility.yul\":355:360   */\n      0x00\n        /* \"#utility.yul\":386:392   */\n      dup2\n        /* \"#utility.yul\":380:393   */\n      mload\n        /* \"#utility.yul\":371:393   */\n      swap1\n      pop\n        /* \"#utility.yul\":402:432   */\n      tag_159\n        /* \"#utility.yul\":426:431   */\n      dup2\n        /* \"#utility.yul\":402:432   */\n      tag_160\n      jump\t// in\n    tag_159:\n        /* \"#utility.yul\":301:438   */\n      swap3\n      swap2\n      pop\n      pop\n      jump\t// out\n        /* \"#utility.yul\":457:1009   */\n    tag_161:\n        /* \"#utility.yul\":514:522   */\n      0x00\n        /* \"#utility.yul\":524:530   */\n      dup1\n        /* \"#utility.yul\":574:577   */\n      dup4\n        /* \"#utility.yul\":567:571   */\n      0x1f\n        /* \"#utility.yul\":559:565   */\n      dup5\n        /* \"#utility.yul\":555:572   */\n      add\n        /* \"#utility.yul\":551:578   */\n      slt\n        /* \"#utility.yul\":541:663   */\n      tag_163\n      jumpi\n        /* \"#utility.yul\":582:661   */\n      tag_164\n      tag_165\n      jump\t// in\n    tag_164:\n        /* \"#utility.yul\":541:663   */\n    tag_163:\n        /* \"#utility.yul\":695:701   */\n      dup3\n        /* \"#utility.yul\":682:702   */\n      calldataload\n        /* \"#utility.yul\":672:702   */\n      swap1\n      pop\n        /* \"#utility.yul\":725:743   */\n      0xffffffffffffffff\n        /* \"#utility.yul\":717:723   */\n      dup2\n        /* \"#utility.yul\":714:744   */\n      gt\n        /* \"#utility.yul\":711:828   */\n      iszero\n      tag_166\n      jumpi\n        /* \"#utility.yul\":747:826   */\n      tag_167\n      tag_168\n      jump\t// in\n    tag_167:\n        /* \"#utility.yul\":711:828   */\n    tag_166:\n        /* \"#utility.yul\":861:865   */\n      0x20\n        /* \"#utility.yul\":853:859   */\n      dup4\n        /* \"#utility.yul\":849:866   */\n      add\n        /* \"#utility.yul\":837:866   */\n      swap2\n      pop\n        /* \"#utility.yul\":915:918   */\n      dup4\n        /* \"#utility.yul\":907:911   */\n      0x01\n        /* \"#utility.yul\":899:905   */\n      dup3\n        /* \"#utility.yul\":895:912   */\n      mul\n        /* \"#utility.yul\":885:893   */\n      dup4\n        /* \"#utility.yul\":881:913   */\n      add\n        /* \"#utility.yul\":878:919   */\n      gt\n        /* \"#utility.yul\":875:1003   */\n      iszero\n      tag_169\n      jumpi\n        /* \"#utility.yul\":922:1001   */\n      tag_170\n      tag_171\n      jump\t// in\n    tag_170:\n        /* \"#utility.yul\":875:1003   */\n    tag_169:\n        /* \"#utility.yul\":457:1009   */\n      swap3\n      pop\n      swap3\n      swap1\n      pop\n      jump\t// out\n        /* \"#utility.yul\":1015:1154   */\n    tag_172:\n        /* \"#utility.yul\":1061:1066   */\n      0x00\n        /* \"#utility.yul\":1099:1105   */\n      dup2\n        /* \"#utility.yul\":1086:1106   */\n      calldataload\n        /* \"#utility.yul\":1077:1106   */\n      swap1\n      pop\n        /* \"#utility.yul\":1115:1148   */\n      tag_174\n        /* \"#utility.yul\":1142:1147   */\n      dup2\n        /* \"#utility.yul\":1115:1148   */\n      tag_175\n      jump\t// in\n    tag_174:\n        /* \"#utility.yul\":1015:1154   */\n      swap3\n      swap2\n      pop\n      pop\n      jump\t// out\n        /* \"#utility.yul\":1160:1511   */\n    tag_64:\n        /* \"#utility.yul\":1230:1236   */\n      0x00\n        /* \"#utility.yul\":1279:1281   */\n      0x20\n        /* \"#utility.yul\":1267:1276   */\n      dup3\n        /* \"#utility.yul\":1258:1265   */\n      dup5\n        /* \"#utility.yul\":1254:1277   */\n      sub\n        /* \"#utility.yul\":1250:1282   */\n      slt\n        /* \"#utility.yul\":1247:1366   */\n      iszero\n      tag_177\n      jumpi\n        /* \"#utility.yul\":1285:1364   */\n      tag_178\n      tag_179\n      jump\t// in\n    tag_178:\n        /* \"#utility.yul\":1247:1366   */\n    tag_177:\n        /* \"#utility.yul\":1405:1406   */\n      0x00\n        /* \"#utility.yul\":1430:1494   */\n      tag_180\n        /* \"#utility.yul\":1486:1493   */\n      dup5\n        /* \"#utility.yul\":1477:1483   */\n      dup3\n        /* \"#utility.yul\":1466:1475   */\n      dup6\n        /* \"#utility.yul\":1462:1484   */\n      add\n        /* \"#utility.yul\":1430:1494   */\n      tag_154\n      jump\t// in\n    tag_180:\n        /* \"#utility.yul\":1420:1494   */\n      swap2\n      pop\n        /* \"#utility.yul\":1376:1504   */\n      pop\n        /* \"#utility.yul\":1160:1511   */\n      swap3\n      swap2\n      pop\n      pop\n      jump\t// out\n        /* \"#utility.yul\":1517:2480   */\n    tag_14:\n        /* \"#utility.yul\":1614:1620   */\n      0x00\n        /* \"#utility.yul\":1622:1628   */\n      dup1\n        /* \"#utility.yul\":1630:1636   */\n      0x00\n        /* \"#utility.yul\":1638:1644   */\n      dup1\n        /* \"#utility.yul\":1646:1652   */\n      0x00\n        /* \"#utility.yul\":1695:1698   */\n      0x80\n        /* \"#utility.yul\":1683:1692   */\n      dup7\n        /* \"#utility.yul\":1674:1681   */\n      dup9\n        /* \"#utility.yul\":1670:1693   */\n      sub\n        /* \"#utility.yul\":1666:1699   */\n      slt\n        /* \"#utility.yul\":1663:1783   */\n      iszero\n      tag_182\n      jumpi\n        /* \"#utility.yul\":1702:1781   */\n      tag_183\n      tag_179\n      jump\t// in\n    tag_183:\n        /* \"#utility.yul\":1663:1783   */\n    tag_182:\n        /* \"#utility.yul\":1822:1823   */\n      0x00\n        /* \"#utility.yul\":1847:1900   */\n      tag_184\n        /* \"#utility.yul\":1892:1899   */\n      dup9\n        /* \"#utility.yul\":1883:1889   */\n      dup3\n        /* \"#utility.yul\":1872:1881   */\n      dup10\n        /* \"#utility.yul\":1868:1890   */\n      add\n        /* \"#utility.yul\":1847:1900   */\n      tag_150\n      jump\t// in\n    tag_184:\n        /* \"#utility.yul\":1837:1900   */\n      swap6\n      pop\n        /* \"#utility.yul\":1793:1910   */\n      pop\n        /* \"#utility.yul\":1949:1951   */\n      0x20\n        /* \"#utility.yul\":1975:2028   */\n      tag_185\n        /* \"#utility.yul\":2020:2027   */\n      dup9\n        /* \"#utility.yul\":2011:2017   */\n      dup3\n        /* \"#utility.yul\":2000:2009   */\n      dup10\n        /* \"#utility.yul\":1996:2018   */\n      add\n        /* \"#utility.yul\":1975:2028   */\n      tag_150\n      jump\t// in\n    tag_185:\n        /* \"#utility.yul\":1965:2028   */\n      swap5\n      pop\n        /* \"#utility.yul\":1920:2038   */\n      pop\n        /* \"#utility.yul\":2077:2079   */\n      0x40\n        /* \"#utility.yul\":2103:2156   */\n      tag_186\n        /* \"#utility.yul\":2148:2155   */\n      dup9\n        /* \"#utility.yul\":2139:2145   */\n      dup3\n        /* \"#utility.yul\":2128:2137   */\n      dup10\n        /* \"#utility.yul\":2124:2146   */\n      add\n        /* \"#utility.yul\":2103:2156   */\n      tag_172\n      jump\t// in\n    tag_186:\n        /* \"#utility.yul\":2093:2156   */\n      swap4\n      pop\n        /* \"#utility.yul\":2048:2166   */\n      pop\n        /* \"#utility.yul\":2233:2235   */\n      0x60\n        /* \"#utility.yul\":2222:2231   */\n      dup7\n        /* \"#utility.yul\":2218:2236   */\n      add\n        /* \"#utility.yul\":2205:2237   */\n      calldataload\n        /* \"#utility.yul\":2264:2282   */\n      0xffffffffffffffff\n        /* \"#utility.yul\":2256:2262   */\n      dup2\n        /* \"#utility.yul\":2253:2283   */\n      gt\n        /* \"#utility.yul\":2250:2367   */\n      iszero\n      tag_187\n      jumpi\n        /* \"#utility.yul\":2286:2365   */\n      tag_188\n      tag_189\n      jump\t// in\n    tag_188:\n        /* \"#utility.yul\":2250:2367   */\n    tag_187:\n        /* \"#utility.yul\":2399:2463   */\n      tag_190\n        /* \"#utility.yul\":2455:2462   */\n      dup9\n        /* \"#utility.yul\":2446:2452   */\n      dup3\n        /* \"#utility.yul\":2435:2444   */\n      dup10\n        /* \"#utility.yul\":2431:2453   */\n      add\n        /* \"#utility.yul\":2399:2463   */\n      tag_161\n      jump\t// in\n    tag_190:\n        /* \"#utility.yul\":2381:2463   */\n      swap3\n      pop\n      swap3\n      pop\n        /* \"#utility.yul\":2176:2473   */\n      pop\n        /* \"#utility.yul\":1517:2480   */\n      swap3\n      swap6\n      pop\n      swap3\n      swap6\n      swap1\n      swap4\n      pop\n      jump\t// out\n        /* \"#utility.yul\":2486:3251   */\n    tag_33:\n        /* \"#utility.yul\":2572:2578   */\n      0x00\n        /* \"#utility.yul\":2580:2586   */\n      dup1\n        /* \"#utility.yul\":2588:2594   */\n      0x00\n        /* \"#utility.yul\":2596:2602   */\n      dup1\n        /* \"#utility.yul\":2645:2648   */\n      0x80\n        /* \"#utility.yul\":2633:2642   */\n      dup6\n        /* \"#utility.yul\":2624:2631   */\n      dup8\n        /* \"#utility.yul\":2620:2643   */\n      sub\n        /* \"#utility.yul\":2616:2649   */\n      slt\n        /* \"#utility.yul\":2613:2733   */\n      iszero\n      tag_192\n      jumpi\n        /* \"#utility.yul\":2652:2731   */\n      tag_193\n      tag_179\n      jump\t// in\n    tag_193:\n        /* \"#utility.yul\":2613:2733   */\n    tag_192:\n        /* \"#utility.yul\":2772:2773   */\n      0x00\n        /* \"#utility.yul\":2797:2850   */\n      tag_194\n        /* \"#utility.yul\":2842:2849   */\n      dup8\n        /* \"#utility.yul\":2833:2839   */\n      dup3\n        /* \"#utility.yul\":2822:2831   */\n      dup9\n        /* \"#utility.yul\":2818:2840   */\n      add\n        /* \"#utility.yul\":2797:2850   */\n      tag_150\n      jump\t// in\n    tag_194:\n        /* \"#utility.yul\":2787:2850   */\n      swap5\n      pop\n        /* \"#utility.yul\":2743:2860   */\n      pop\n        /* \"#utility.yul\":2899:2901   */\n      0x20\n        /* \"#utility.yul\":2925:2978   */\n      tag_195\n        /* \"#utility.yul\":2970:2977   */\n      dup8\n        /* \"#utility.yul\":2961:2967   */\n      dup3\n        /* \"#utility.yul\":2950:2959   */\n      dup9\n        /* \"#utility.yul\":2946:2968   */\n      add\n        /* \"#utility.yul\":2925:2978   */\n      tag_150\n      jump\t// in\n    tag_195:\n        /* \"#utility.yul\":2915:2978   */\n      swap4\n      pop\n        /* \"#utility.yul\":2870:2988   */\n      pop\n        /* \"#utility.yul\":3027:3029   */\n      0x40\n        /* \"#utility.yul\":3053:3106   */\n      tag_196\n        /* \"#utility.yul\":3098:3105   */\n      dup8\n        /* \"#utility.yul\":3089:3095   */\n      dup3\n        /* \"#utility.yul\":3078:3087   */\n      dup9\n        /* \"#utility.yul\":3074:3096   */\n      add\n        /* \"#utility.yul\":3053:3106   */\n      tag_172\n      jump\t// in\n    tag_196:\n        /* \"#utility.yul\":3043:3106   */\n      swap3\n      pop\n        /* \"#utility.yul\":2998:3116   */\n      pop\n        /* \"#utility.yul\":3155:3157   */\n      0x60\n        /* \"#utility.yul\":3181:3234   */\n      tag_197\n        /* \"#utility.yul\":3226:3233   */\n      dup8\n        /* \"#utility.yul\":3217:3223   */\n      dup3\n        /* \"#utility.yul\":3206:3215   */\n      dup9\n        /* \"#utility.yul\":3202:3224   */\n      add\n        /* \"#utility.yul\":3181:3234   */\n      tag_172\n      jump\t// in\n    tag_197:\n        /* \"#utility.yul\":3171:3234   */\n      swap2\n      pop\n        /* \"#utility.yul\":3126:3244   */\n      pop\n        /* \"#utility.yul\":2486:3251   */\n      swap3\n      swap6\n      swap2\n      swap5\n      pop\n      swap3\n      pop\n      jump\t// out\n        /* \"#utility.yul\":3257:3731   */\n    tag_26:\n        /* \"#utility.yul\":3325:3331   */\n      0x00\n        /* \"#utility.yul\":3333:3339   */\n      dup1\n        /* \"#utility.yul\":3382:3384   */\n      0x40\n        /* \"#utility.yul\":3370:3379   */\n      dup4\n        /* \"#utility.yul\":3361:3368   */\n      dup6\n        /* \"#utility.yul\":3357:3380   */\n      sub\n        /* \"#utility.yul\":3353:3385   */\n      slt\n        /* \"#utility.yul\":3350:3469   */\n      iszero\n      tag_199\n      jumpi\n        /* \"#utility.yul\":3388:3467   */\n      tag_200\n      tag_179\n      jump\t// in\n    tag_200:\n        /* \"#utility.yul\":3350:3469   */\n    tag_199:\n        /* \"#utility.yul\":3508:3509   */\n      0x00\n        /* \"#utility.yul\":3533:3586   */\n      tag_201\n        /* \"#utility.yul\":3578:3585   */\n      dup6\n        /* \"#utility.yul\":3569:3575   */\n      dup3\n        /* \"#utility.yul\":3558:3567   */\n      dup7\n        /* \"#utility.yul\":3554:3576   */\n      add\n        /* \"#utility.yul\":3533:3586   */\n      tag_150\n      jump\t// in\n    tag_201:\n        /* \"#utility.yul\":3523:3586   */\n      swap3\n      pop\n        /* \"#utility.yul\":3479:3596   */\n      pop\n        /* \"#utility.yul\":3635:3637   */\n      0x20\n        /* \"#utility.yul\":3661:3714   */\n      tag_202\n        /* \"#utility.yul\":3706:3713   */\n      dup6\n        /* \"#utility.yul\":3697:3703   */\n      dup3\n        /* \"#utility.yul\":3686:3695   */\n      dup7\n        /* \"#utility.yul\":3682:3704   */\n      add\n        /* \"#utility.yul\":3661:3714   */\n      tag_172\n      jump\t// in\n    tag_202:\n        /* \"#utility.yul\":3651:3714   */\n      swap2\n      pop\n        /* \"#utility.yul\":3606:3724   */\n      pop\n        /* \"#utility.yul\":3257:3731   */\n      swap3\n      pop\n      swap3\n      swap1\n      pop\n      jump\t// out\n        /* \"#utility.yul\":3737:4356   */\n    tag_21:\n        /* \"#utility.yul\":3814:3820   */\n      0x00\n        /* \"#utility.yul\":3822:3828   */\n      dup1\n        /* \"#utility.yul\":3830:3836   */\n      0x00\n        /* \"#utility.yul\":3879:3881   */\n      0x60\n        /* \"#utility.yul\":3867:3876   */\n      dup5\n        /* \"#utility.yul\":3858:3865   */\n      dup7\n        /* \"#utility.yul\":3854:3877   */\n      sub\n        /* \"#utility.yul\":3850:3882   */\n      slt\n        /* \"#utility.yul\":3847:3966   */\n      iszero\n      tag_204\n      jumpi\n        /* \"#utility.yul\":3885:3964   */\n      tag_205\n      tag_179\n      jump\t// in\n    tag_205:\n        /* \"#utility.yul\":3847:3966   */\n    tag_204:\n        /* \"#utility.yul\":4005:4006   */\n      0x00\n        /* \"#utility.yul\":4030:4083   */\n      tag_206\n        /* \"#utility.yul\":4075:4082   */\n      dup7\n        /* \"#utility.yul\":4066:4072   */\n      dup3\n        /* \"#utility.yul\":4055:4064   */\n      dup8\n        /* \"#utility.yul\":4051:4073   */\n      add\n        /* \"#utility.yul\":4030:4083   */\n      tag_150\n      jump\t// in\n    tag_206:\n        /* \"#utility.yul\":4020:4083   */\n      swap4\n      pop\n        /* \"#utility.yul\":3976:4093   */\n      pop\n        /* \"#utility.yul\":4132:4134   */\n      0x20\n        /* \"#utility.yul\":4158:4211   */\n      tag_207\n        /* \"#utility.yul\":4203:4210   */\n      dup7\n        /* \"#utility.yul\":4194:4200   */\n      dup3\n        /* \"#utility.yul\":4183:4192   */\n      dup8\n        /* \"#utility.yul\":4179:4201   */\n      add\n        /* \"#utility.yul\":4158:4211   */\n      tag_172\n      jump\t// in\n    tag_207:\n        /* \"#utility.yul\":4148:4211   */\n      swap3\n      pop\n        /* \"#utility.yul\":4103:4221   */\n      pop\n        /* \"#utility.yul\":4260:4262   */\n      0x40\n        /* \"#utility.yul\":4286:4339   */\n      tag_208\n        /* \"#utility.yul\":4331:4338   */\n      dup7\n        /* \"#utility.yul\":4322:4328   */\n      dup3\n        /* \"#utility.yul\":4311:4320   */\n      dup8\n        /* \"#utility.yul\":4307:4329   */\n      add\n        /* \"#utility.yul\":4286:4339   */\n      tag_172\n      jump\t// in\n    tag_208:\n        /* \"#utility.yul\":4276:4339   */\n      swap2\n      pop\n        /* \"#utility.yul\":4231:4349   */\n      pop\n        /* \"#utility.yul\":3737:4356   */\n      swap3\n      pop\n      swap3\n      pop\n      swap3\n      jump\t// out\n        /* \"#utility.yul\":4362:4707   */\n    tag_78:\n        /* \"#utility.yul\":4429:4435   */\n      0x00\n        /* \"#utility.yul\":4478:4480   */\n      0x20\n        /* \"#utility.yul\":4466:4475   */\n      dup3\n        /* \"#utility.yul\":4457:4464   */\n      dup5\n        /* \"#utility.yul\":4453:4476   */\n      sub\n        /* \"#utility.yul\":4449:4481   */\n      slt\n        /* \"#utility.yul\":4446:4565   */\n      iszero\n      tag_210\n      jumpi\n        /* \"#utility.yul\":4484:4563   */\n      tag_211\n      tag_179\n      jump\t// in\n    tag_211:\n        /* \"#utility.yul\":4446:4565   */\n    tag_210:\n        /* \"#utility.yul\":4604:4605   */\n      0x00\n        /* \"#utility.yul\":4629:4690   */\n      tag_212\n        /* \"#utility.yul\":4682:4689   */\n      dup5\n        /* \"#utility.yul\":4673:4679   */\n      dup3\n        /* \"#utility.yul\":4662:4671   */\n      dup6\n        /* \"#utility.yul\":4658:4680   */\n      add\n        /* \"#utility.yul\":4629:4690   */\n      tag_157\n      jump\t// in\n    tag_212:\n        /* \"#utility.yul\":4619:4690   */\n      swap2\n      pop\n        /* \"#utility.yul\":4575:4700   */\n      pop\n        /* \"#utility.yul\":4362:4707   */\n      swap3\n      swap2\n      pop\n      pop\n      jump\t// out\n        /* \"#utility.yul\":4713:4831   */\n    tag_213:\n        /* \"#utility.yul\":4800:4824   */\n      tag_215\n        /* \"#utility.yul\":4818:4823   */\n      dup2\n        /* \"#utility.yul\":4800:4824   */\n      tag_216\n      jump\t// in\n    tag_215:\n        /* \"#utility.yul\":4795:4798   */\n      dup3\n        /* \"#utility.yul\":4788:4825   */\n      mstore\n        /* \"#utility.yul\":4713:4831   */\n      pop\n      pop\n      jump\t// out\n        /* \"#utility.yul\":4837:4952   */\n    tag_217:\n        /* \"#utility.yul\":4922:4945   */\n      tag_219\n        /* \"#utility.yul\":4939:4944   */\n      dup2\n        /* \"#utility.yul\":4922:4945   */\n      tag_220\n      jump\t// in\n    tag_219:\n        /* \"#utility.yul\":4917:4920   */\n      dup3\n        /* \"#utility.yul\":4910:4946   */\n      mstore\n        /* \"#utility.yul\":4837:4952   */\n      pop\n      pop\n      jump\t// out\n        /* \"#utility.yul\":4958:5324   */\n    tag_221:\n        /* \"#utility.yul\":5100:5103   */\n      0x00\n        /* \"#utility.yul\":5121:5188   */\n      tag_223\n        /* \"#utility.yul\":5185:5187   */\n      0x1c\n        /* \"#utility.yul\":5180:5183   */\n      dup4\n        /* \"#utility.yul\":5121:5188   */\n      tag_224\n      jump\t// in\n    tag_223:\n        /* \"#utility.yul\":5114:5188   */\n      swap2\n      pop\n        /* \"#utility.yul\":5197:5290   */\n      tag_225\n        /* \"#utility.yul\":5286:5289   */\n      dup3\n        /* \"#utility.yul\":5197:5290   */\n      tag_226\n      jump\t// in\n    tag_225:\n        /* \"#utility.yul\":5315:5317   */\n      0x20\n        /* \"#utility.yul\":5310:5313   */\n      dup3\n        /* \"#utility.yul\":5306:5318   */\n      add\n        /* \"#utility.yul\":5299:5318   */\n      swap1\n      pop\n        /* \"#utility.yul\":4958:5324   */\n      swap2\n      swap1\n      pop\n      jump\t// out\n        /* \"#utility.yul\":5330:5696   */\n    tag_227:\n        /* \"#utility.yul\":5472:5475   */\n      0x00\n        /* \"#utility.yul\":5493:5560   */\n      tag_229\n        /* \"#utility.yul\":5557:5559   */\n      0x11\n        /* \"#utility.yul\":5552:5555   */\n      dup4\n        /* \"#utility.yul\":5493:5560   */\n      tag_224\n      jump\t// in\n    tag_229:\n        /* \"#utility.yul\":5486:5560   */\n      swap2\n      pop\n        /* \"#utility.yul\":5569:5662   */\n      tag_230\n        /* \"#utility.yul\":5658:5661   */\n      dup3\n        /* \"#utility.yul\":5569:5662   */\n      tag_231\n      jump\t// in\n    tag_230:\n        /* \"#utility.yul\":5687:5689   */\n      0x20\n        /* \"#utility.yul\":5682:5685   */\n      dup3\n        /* \"#utility.yul\":5678:5690   */\n      add\n        /* \"#utility.yul\":5671:5690   */\n      swap1\n      pop\n        /* \"#utility.yul\":5330:5696   */\n      swap2\n      swap1\n      pop\n      jump\t// out\n        /* \"#utility.yul\":5702:6068   */\n    tag_232:\n        /* \"#utility.yul\":5844:5847   */\n      0x00\n        /* \"#utility.yul\":5865:5932   */\n      tag_234\n        /* \"#utility.yul\":5929:5931   */\n      0x15\n        /* \"#utility.yul\":5924:5927   */\n      dup4\n        /* \"#utility.yul\":5865:5932   */\n      tag_224\n      jump\t// in\n    tag_234:\n        /* \"#utility.yul\":5858:5932   */\n      swap2\n      pop\n        /* \"#utility.yul\":5941:6034   */\n      tag_235\n        /* \"#utility.yul\":6030:6033   */\n      dup3\n        /* \"#utility.yul\":5941:6034   */\n      tag_236\n      jump\t// in\n    tag_235:\n        /* \"#utility.yul\":6059:6061   */\n      0x20\n        /* \"#utility.yul\":6054:6057   */\n      dup3\n        /* \"#utility.yul\":6050:6062   */\n      add\n        /* \"#utility.yul\":6043:6062   */\n      swap1\n      pop\n        /* \"#utility.yul\":5702:6068   */\n      swap2\n      swap1\n      pop\n      jump\t// out\n        /* \"#utility.yul\":6074:6440   */\n    tag_237:\n        /* \"#utility.yul\":6216:6219   */\n      0x00\n        /* \"#utility.yul\":6237:6304   */\n      tag_239\n        /* \"#utility.yul\":6301:6303   */\n      0x13\n        /* \"#utility.yul\":6296:6299   */\n      dup4\n        /* \"#utility.yul\":6237:6304   */\n      tag_224\n      jump\t// in\n    tag_239:\n        /* \"#utility.yul\":6230:6304   */\n      swap2\n      pop\n        /* \"#utility.yul\":6313:6406   */\n      tag_240\n        /* \"#utility.yul\":6402:6405   */\n      dup3\n        /* \"#utility.yul\":6313:6406   */\n      tag_241\n      jump\t// in\n    tag_240:\n        /* \"#utility.yul\":6431:6433   */\n      0x20\n        /* \"#utility.yul\":6426:6429   */\n      dup3\n        /* \"#utility.yul\":6422:6434   */\n      add\n        /* \"#utility.yul\":6415:6434   */\n      swap1\n      pop\n        /* \"#utility.yul\":6074:6440   */\n      swap2\n      swap1\n      pop\n      jump\t// out\n        /* \"#utility.yul\":6446:6812   */\n    tag_242:\n        /* \"#utility.yul\":6588:6591   */\n      0x00\n        /* \"#utility.yul\":6609:6676   */\n      tag_244\n        /* \"#utility.yul\":6673:6675   */\n      0x14\n        /* \"#utility.yul\":6668:6671   */\n      dup4\n        /* \"#utility.yul\":6609:6676   */\n      tag_224\n      jump\t// in\n    tag_244:\n        /* \"#utility.yul\":6602:6676   */\n      swap2\n      pop\n        /* \"#utility.yul\":6685:6778   */\n      tag_245\n        /* \"#utility.yul\":6774:6777   */\n      dup3\n        /* \"#utility.yul\":6685:6778   */\n      tag_246\n      jump\t// in\n    tag_245:\n        /* \"#utility.yul\":6803:6805   */\n      0x20\n        /* \"#utility.yul\":6798:6801   */\n      dup3\n        /* \"#utility.yul\":6794:6806   */\n      add\n        /* \"#utility.yul\":6787:6806   */\n      swap1\n      pop\n        /* \"#utility.yul\":6446:6812   */\n      swap2\n      swap1\n      pop\n      jump\t// out\n        /* \"#utility.yul\":6818:7184   */\n    tag_247:\n        /* \"#utility.yul\":6960:6963   */\n      0x00\n        /* \"#utility.yul\":6981:7048   */\n      tag_249\n        /* \"#utility.yul\":7045:7047   */\n      0x15\n        /* \"#utility.yul\":7040:7043   */\n      dup4\n        /* \"#utility.yul\":6981:7048   */\n      tag_224\n      jump\t// in\n    tag_249:\n        /* \"#utility.yul\":6974:7048   */\n      swap2\n      pop\n        /* \"#utility.yul\":7057:7150   */\n      tag_250\n        /* \"#utility.yul\":7146:7149   */\n      dup3\n        /* \"#utility.yul\":7057:7150   */\n      tag_251\n      jump\t// in\n    tag_250:\n        /* \"#utility.yul\":7175:7177   */\n      0x20\n        /* \"#utility.yul\":7170:7173   */\n      dup3\n        /* \"#utility.yul\":7166:7178   */\n      add\n        /* \"#utility.yul\":7159:7178   */\n      swap1\n      pop\n        /* \"#utility.yul\":6818:7184   */\n      swap2\n      swap1\n      pop\n      jump\t// out\n        /* \"#utility.yul\":7190:7588   */\n    tag_252:\n        /* \"#utility.yul\":7349:7352   */\n      0x00\n        /* \"#utility.yul\":7370:7453   */\n      tag_254\n        /* \"#utility.yul\":7451:7452   */\n      0x00\n        /* \"#utility.yul\":7446:7449   */\n      dup4\n        /* \"#utility.yul\":7370:7453   */\n      tag_255\n      jump\t// in\n    tag_254:\n        /* \"#utility.yul\":7363:7453   */\n      swap2\n      pop\n        /* \"#utility.yul\":7462:7555   */\n      tag_256\n        /* \"#utility.yul\":7551:7554   */\n      dup3\n        /* \"#utility.yul\":7462:7555   */\n      tag_257\n      jump\t// in\n    tag_256:\n        /* \"#utility.yul\":7580:7581   */\n      0x00\n        /* \"#utility.yul\":7575:7578   */\n      dup3\n        /* \"#utility.yul\":7571:7582   */\n      add\n        /* \"#utility.yul\":7564:7582   */\n      swap1\n      pop\n        /* \"#utility.yul\":7190:7588   */\n      swap2\n      swap1\n      pop\n      jump\t// out\n        /* \"#utility.yul\":7594:7960   */\n    tag_258:\n        /* \"#utility.yul\":7736:7739   */\n      0x00\n        /* \"#utility.yul\":7757:7824   */\n      tag_260\n        /* \"#utility.yul\":7821:7823   */\n      0x14\n        /* \"#utility.yul\":7816:7819   */\n      dup4\n        /* \"#utility.yul\":7757:7824   */\n      tag_224\n      jump\t// in\n    tag_260:\n        /* \"#utility.yul\":7750:7824   */\n      swap2\n      pop\n        /* \"#utility.yul\":7833:7926   */\n      tag_261\n        /* \"#utility.yul\":7922:7925   */\n      dup3\n        /* \"#utility.yul\":7833:7926   */\n      tag_262\n      jump\t// in\n    tag_261:\n        /* \"#utility.yul\":7951:7953   */\n      0x20\n        /* \"#utility.yul\":7946:7949   */\n      dup3\n        /* \"#utility.yul\":7942:7954   */\n      add\n        /* \"#utility.yul\":7935:7954   */\n      swap1\n      pop\n        /* \"#utility.yul\":7594:7960   */\n      swap2\n      swap1\n      pop\n      jump\t// out\n        /* \"#utility.yul\":7966:8332   */\n    tag_263:\n        /* \"#utility.yul\":8108:8111   */\n      0x00\n        /* \"#utility.yul\":8129:8196   */\n      tag_265\n        /* \"#utility.yul\":8193:8195   */\n      0x0d\n        /* \"#utility.yul\":8188:8191   */\n      dup4\n        /* \"#utility.yul\":8129:8196   */\n      tag_224\n      jump\t// in\n    tag_265:\n        /* \"#utility.yul\":8122:8196   */\n      swap2\n      pop\n        /* \"#utility.yul\":8205:8298   */\n      tag_266\n        /* \"#utility.yul\":8294:8297   */\n      dup3\n        /* \"#utility.yul\":8205:8298   */\n      tag_267\n      jump\t// in\n    tag_266:\n        /* \"#utility.yul\":8323:8325   */\n      0x20\n        /* \"#utility.yul\":8318:8321   */\n      dup3\n        /* \"#utility.yul\":8314:8326   */\n      add\n        /* \"#utility.yul\":8307:8326   */\n      swap1\n      pop\n        /* \"#utility.yul\":7966:8332   */\n      swap2\n      swap1\n      pop\n      jump\t// out\n        /* \"#utility.yul\":8338:8456   */\n    tag_268:\n        /* \"#utility.yul\":8425:8449   */\n      tag_270\n        /* \"#utility.yul\":8443:8448   */\n      dup2\n        /* \"#utility.yul\":8425:8449   */\n      tag_271\n      jump\t// in\n    tag_270:\n        /* \"#utility.yul\":8420:8423   */\n      dup3\n        /* \"#utility.yul\":8413:8450   */\n      mstore\n        /* \"#utility.yul\":8338:8456   */\n      pop\n      pop\n      jump\t// out\n        /* \"#utility.yul\":8462:8841   */\n    tag_142:\n        /* \"#utility.yul\":8646:8649   */\n      0x00\n        /* \"#utility.yul\":8668:8815   */\n      tag_273\n        /* \"#utility.yul\":8811:8814   */\n      dup3\n        /* \"#utility.yul\":8668:8815   */\n      tag_252\n      jump\t// in\n    tag_273:\n        /* \"#utility.yul\":8661:8815   */\n      swap2\n      pop\n        /* \"#utility.yul\":8832:8835   */\n      dup2\n        /* \"#utility.yul\":8825:8835   */\n      swap1\n      pop\n        /* \"#utility.yul\":8462:8841   */\n      swap2\n      swap1\n      pop\n      jump\t// out\n        /* \"#utility.yul\":8847:9179   */\n    tag_73:\n        /* \"#utility.yul\":8968:8972   */\n      0x00\n        /* \"#utility.yul\":9006:9008   */\n      0x40\n        /* \"#utility.yul\":8995:9004   */\n      dup3\n        /* \"#utility.yul\":8991:9009   */\n      add\n        /* \"#utility.yul\":8983:9009   */\n      swap1\n      pop\n        /* \"#utility.yul\":9019:9090   */\n      tag_275\n        /* \"#utility.yul\":9087:9088   */\n      0x00\n        /* \"#utility.yul\":9076:9085   */\n      dup4\n        /* \"#utility.yul\":9072:9089   */\n      add\n        /* \"#utility.yul\":9063:9069   */\n      dup6\n        /* \"#utility.yul\":9019:9090   */\n      tag_213\n      jump\t// in\n    tag_275:\n        /* \"#utility.yul\":9100:9172   */\n      tag_276\n        /* \"#utility.yul\":9168:9170   */\n      0x20\n        /* \"#utility.yul\":9157:9166   */\n      dup4\n        /* \"#utility.yul\":9153:9171   */\n      add\n        /* \"#utility.yul\":9144:9150   */\n      dup5\n        /* \"#utility.yul\":9100:9172   */\n      tag_213\n      jump\t// in\n    tag_276:\n        /* \"#utility.yul\":8847:9179   */\n      swap4\n      swap3\n      pop\n      pop\n      pop\n      jump\t// out\n        /* \"#utility.yul\":9185:9960   */\n    tag_92:\n        /* \"#utility.yul\":9418:9422   */\n      0x00\n        /* \"#utility.yul\":9456:9459   */\n      0xc0\n        /* \"#utility.yul\":9445:9454   */\n      dup3\n        /* \"#utility.yul\":9441:9460   */\n      add\n        /* \"#utility.yul\":9433:9460   */\n      swap1\n      pop\n        /* \"#utility.yul\":9470:9541   */\n      tag_278\n        /* \"#utility.yul\":9538:9539   */\n      0x00\n        /* \"#utility.yul\":9527:9536   */\n      dup4\n        /* \"#utility.yul\":9523:9540   */\n      add\n        /* \"#utility.yul\":9514:9520   */\n      dup10\n        /* \"#utility.yul\":9470:9541   */\n      tag_213\n      jump\t// in\n    tag_278:\n        /* \"#utility.yul\":9551:9623   */\n      tag_279\n        /* \"#utility.yul\":9619:9621   */\n      0x20\n        /* \"#utility.yul\":9608:9617   */\n      dup4\n        /* \"#utility.yul\":9604:9622   */\n      add\n        /* \"#utility.yul\":9595:9601   */\n      dup9\n        /* \"#utility.yul\":9551:9623   */\n      tag_213\n      jump\t// in\n    tag_279:\n        /* \"#utility.yul\":9633:9705   */\n      tag_280\n        /* \"#utility.yul\":9701:9703   */\n      0x40\n        /* \"#utility.yul\":9690:9699   */\n      dup4\n        /* \"#utility.yul\":9686:9704   */\n      add\n        /* \"#utility.yul\":9677:9683   */\n      dup8\n        /* \"#utility.yul\":9633:9705   */\n      tag_213\n      jump\t// in\n    tag_280:\n        /* \"#utility.yul\":9715:9787   */\n      tag_281\n        /* \"#utility.yul\":9783:9785   */\n      0x60\n        /* \"#utility.yul\":9772:9781   */\n      dup4\n        /* \"#utility.yul\":9768:9786   */\n      add\n        /* \"#utility.yul\":9759:9765   */\n      dup7\n        /* \"#utility.yul\":9715:9787   */\n      tag_268\n      jump\t// in\n    tag_281:\n        /* \"#utility.yul\":9797:9870   */\n      tag_282\n        /* \"#utility.yul\":9865:9868   */\n      0x80\n        /* \"#utility.yul\":9854:9863   */\n      dup4\n        /* \"#utility.yul\":9850:9869   */\n      add\n        /* \"#utility.yul\":9841:9847   */\n      dup6\n        /* \"#utility.yul\":9797:9870   */\n      tag_268\n      jump\t// in\n    tag_282:\n        /* \"#utility.yul\":9880:9953   */\n      tag_283\n        /* \"#utility.yul\":9948:9951   */\n      0xa0\n        /* \"#utility.yul\":9937:9946   */\n      dup4\n        /* \"#utility.yul\":9933:9952   */\n      add\n        /* \"#utility.yul\":9924:9930   */\n      dup5\n        /* \"#utility.yul\":9880:9953   */\n      tag_268\n      jump\t// in\n    tag_283:\n        /* \"#utility.yul\":9185:9960   */\n      swap8\n      swap7\n      pop\n      pop\n      pop\n      pop\n      pop\n      pop\n      pop\n      jump\t// out\n        /* \"#utility.yul\":9966:10408   */\n    tag_87:\n        /* \"#utility.yul\":10115:10119   */\n      0x00\n        /* \"#utility.yul\":10153:10155   */\n      0x60\n        /* \"#utility.yul\":10142:10151   */\n      dup3\n        /* \"#utility.yul\":10138:10156   */\n      add\n        /* \"#utility.yul\":10130:10156   */\n      swap1\n      pop\n        /* \"#utility.yul\":10166:10237   */\n      tag_285\n        /* \"#utility.yul\":10234:10235   */\n      0x00\n        /* \"#utility.yul\":10223:10232   */\n      dup4\n        /* \"#utility.yul\":10219:10236   */\n      add\n        /* \"#utility.yul\":10210:10216   */\n      dup7\n        /* \"#utility.yul\":10166:10237   */\n      tag_213\n      jump\t// in\n    tag_285:\n        /* \"#utility.yul\":10247:10319   */\n      tag_286\n        /* \"#utility.yul\":10315:10317   */\n      0x20\n        /* \"#utility.yul\":10304:10313   */\n      dup4\n        /* \"#utility.yul\":10300:10318   */\n      add\n        /* \"#utility.yul\":10291:10297   */\n      dup6\n        /* \"#utility.yul\":10247:10319   */\n      tag_213\n      jump\t// in\n    tag_286:\n        /* \"#utility.yul\":10329:10401   */\n      tag_287\n        /* \"#utility.yul\":10397:10399   */\n      0x40\n        /* \"#utility.yul\":10386:10395   */\n      dup4\n        /* \"#utility.yul\":10382:10400   */\n      add\n        /* \"#utility.yul\":10373:10379   */\n      dup5\n        /* \"#utility.yul\":10329:10401   */\n      tag_268\n      jump\t// in\n    tag_287:\n        /* \"#utility.yul\":9966:10408   */\n      swap5\n      swap4\n      pop\n      pop\n      pop\n      pop\n      jump\t// out\n        /* \"#utility.yul\":10414:10967   */\n    tag_111:\n        /* \"#utility.yul\":10591:10595   */\n      0x00\n        /* \"#utility.yul\":10629:10632   */\n      0x80\n        /* \"#utility.yul\":10618:10627   */\n      dup3\n        /* \"#utility.yul\":10614:10633   */\n      add\n        /* \"#utility.yul\":10606:10633   */\n      swap1\n      pop\n        /* \"#utility.yul\":10643:10714   */\n      tag_289\n        /* \"#utility.yul\":10711:10712   */\n      0x00\n        /* \"#utility.yul\":10700:10709   */\n      dup4\n        /* \"#utility.yul\":10696:10713   */\n      add\n        /* \"#utility.yul\":10687:10693   */\n      dup8\n        /* \"#utility.yul\":10643:10714   */\n      tag_213\n      jump\t// in\n    tag_289:\n        /* \"#utility.yul\":10724:10796   */\n      tag_290\n        /* \"#utility.yul\":10792:10794   */\n      0x20\n        /* \"#utility.yul\":10781:10790   */\n      dup4\n        /* \"#utility.yul\":10777:10795   */\n      add\n        /* \"#utility.yul\":10768:10774   */\n      dup7\n        /* \"#utility.yul\":10724:10796   */\n      tag_213\n      jump\t// in\n    tag_290:\n        /* \"#utility.yul\":10806:10878   */\n      tag_291\n        /* \"#utility.yul\":10874:10876   */\n      0x40\n        /* \"#utility.yul\":10863:10872   */\n      dup4\n        /* \"#utility.yul\":10859:10877   */\n      add\n        /* \"#utility.yul\":10850:10856   */\n      dup6\n        /* \"#utility.yul\":10806:10878   */\n      tag_268\n      jump\t// in\n    tag_291:\n        /* \"#utility.yul\":10888:10960   */\n      tag_292\n        /* \"#utility.yul\":10956:10958   */\n      0x60\n        /* \"#utility.yul\":10945:10954   */\n      dup4\n        /* \"#utility.yul\":10941:10959   */\n      add\n        /* \"#utility.yul\":10932:10938   */\n      dup5\n        /* \"#utility.yul\":10888:10960   */\n      tag_268\n      jump\t// in\n    tag_292:\n        /* \"#utility.yul\":10414:10967   */\n      swap6\n      swap5\n      pop\n      pop\n      pop\n      pop\n      pop\n      jump\t// out\n        /* \"#utility.yul\":10973:11415   */\n    tag_57:\n        /* \"#utility.yul\":11122:11126   */\n      0x00\n        /* \"#utility.yul\":11160:11162   */\n      0x60\n        /* \"#utility.yul\":11149:11158   */\n      dup3\n        /* \"#utility.yul\":11145:11163   */\n      add\n        /* \"#utility.yul\":11137:11163   */\n      swap1\n      pop\n        /* \"#utility.yul\":11173:11244   */\n      tag_294\n        /* \"#utility.yul\":11241:11242   */\n      0x00\n        /* \"#utility.yul\":11230:11239   */\n      dup4\n        /* \"#utility.yul\":11226:11243   */\n      add\n        /* \"#utility.yul\":11217:11223   */\n      dup7\n        /* \"#utility.yul\":11173:11244   */\n      tag_213\n      jump\t// in\n    tag_294:\n        /* \"#utility.yul\":11254:11326   */\n      tag_295\n        /* \"#utility.yul\":11322:11324   */\n      0x20\n        /* \"#utility.yul\":11311:11320   */\n      dup4\n        /* \"#utility.yul\":11307:11325   */\n      add\n        /* \"#utility.yul\":11298:11304   */\n      dup6\n        /* \"#utility.yul\":11254:11326   */\n      tag_268\n      jump\t// in\n    tag_295:\n        /* \"#utility.yul\":11336:11408   */\n      tag_296\n        /* \"#utility.yul\":11404:11406   */\n      0x40\n        /* \"#utility.yul\":11393:11402   */\n      dup4\n        /* \"#utility.yul\":11389:11407   */\n      add\n        /* \"#utility.yul\":11380:11386   */\n      dup5\n        /* \"#utility.yul\":11336:11408   */\n      tag_268\n      jump\t// in\n    tag_296:\n        /* \"#utility.yul\":10973:11415   */\n      swap5\n      swap4\n      pop\n      pop\n      pop\n      pop\n      jump\t// out\n        /* \"#utility.yul\":11421:11639   */\n    tag_17:\n        /* \"#utility.yul\":11512:11516   */\n      0x00\n        /* \"#utility.yul\":11550:11552   */\n      0x20\n        /* \"#utility.yul\":11539:11548   */\n      dup3\n        /* \"#utility.yul\":11535:11553   */\n      add\n        /* \"#utility.yul\":11527:11553   */\n      swap1\n      pop\n        /* \"#utility.yul\":11563:11632   */\n      tag_298\n        /* \"#utility.yul\":11629:11630   */\n      0x00\n        /* \"#utility.yul\":11618:11627   */\n      dup4\n        /* \"#utility.yul\":11614:11631   */\n      add\n        /* \"#utility.yul\":11605:11611   */\n      dup5\n        /* \"#utility.yul\":11563:11632   */\n      tag_217\n      jump\t// in\n    tag_298:\n        /* \"#utility.yul\":11421:11639   */\n      swap3\n      swap2\n      pop\n      pop\n      jump\t// out\n        /* \"#utility.yul\":11645:12064   */\n    tag_81:\n        /* \"#utility.yul\":11811:11815   */\n      0x00\n        /* \"#utility.yul\":11849:11851   */\n      0x20\n        /* \"#utility.yul\":11838:11847   */\n      dup3\n        /* \"#utility.yul\":11834:11852   */\n      add\n        /* \"#utility.yul\":11826:11852   */\n      swap1\n      pop\n        /* \"#utility.yul\":11898:11907   */\n      dup2\n        /* \"#utility.yul\":11892:11896   */\n      dup2\n        /* \"#utility.yul\":11888:11908   */\n      sub\n        /* \"#utility.yul\":11884:11885   */\n      0x00\n        /* \"#utility.yul\":11873:11882   */\n      dup4\n        /* \"#utility.yul\":11869:11886   */\n      add\n        /* \"#utility.yul\":11862:11909   */\n      mstore\n        /* \"#utility.yul\":11926:12057   */\n      tag_300\n        /* \"#utility.yul\":12052:12056   */\n      dup2\n        /* \"#utility.yul\":11926:12057   */\n      tag_221\n      jump\t// in\n    tag_300:\n        /* \"#utility.yul\":11918:12057   */\n      swap1\n      pop\n        /* \"#utility.yul\":11645:12064   */\n      swap2\n      swap1\n      pop\n      jump\t// out\n        /* \"#utility.yul\":12070:12489   */\n    tag_54:\n        /* \"#utility.yul\":12236:12240   */\n      0x00\n        /* \"#utility.yul\":12274:12276   */\n      0x20\n        /* \"#utility.yul\":12263:12272   */\n      dup3\n        /* \"#utility.yul\":12259:12277   */\n      add\n        /* \"#utility.yul\":12251:12277   */\n      swap1\n      pop\n        /* \"#utility.yul\":12323:12332   */\n      dup2\n        /* \"#utility.yul\":12317:12321   */\n      dup2\n        /* \"#utility.yul\":12313:12333   */\n      sub\n        /* \"#utility.yul\":12309:12310   */\n      0x00\n        /* \"#utility.yul\":12298:12307   */\n      dup4\n        /* \"#utility.yul\":12294:12311   */\n      add\n        /* \"#utility.yul\":12287:12334   */\n      mstore\n        /* \"#utility.yul\":12351:12482   */\n      tag_302\n        /* \"#utility.yul\":12477:12481   */\n      dup2\n        /* \"#utility.yul\":12351:12482   */\n      tag_227\n      jump\t// in\n    tag_302:\n        /* \"#utility.yul\":12343:12482   */\n      swap1\n      pop\n        /* \"#utility.yul\":12070:12489   */\n      swap2\n      swap1\n      pop\n      jump\t// out\n        /* \"#utility.yul\":12495:12914   */\n    tag_46:\n        /* \"#utility.yul\":12661:12665   */\n      0x00\n        /* \"#utility.yul\":12699:12701   */\n      0x20\n        /* \"#utility.yul\":12688:12697   */\n      dup3\n        /* \"#utility.yul\":12684:12702   */\n      add\n        /* \"#utility.yul\":12676:12702   */\n      swap1\n      pop\n        /* \"#utility.yul\":12748:12757   */\n      dup2\n        /* \"#utility.yul\":12742:12746   */\n      dup2\n        /* \"#utility.yul\":12738:12758   */\n      sub\n        /* \"#utility.yul\":12734:12735   */\n      0x00\n        /* \"#utility.yul\":12723:12732   */\n      dup4\n        /* \"#utility.yul\":12719:12736   */\n      add\n        /* \"#utility.yul\":12712:12759   */\n      mstore\n        /* \"#utility.yul\":12776:12907   */\n      tag_304\n        /* \"#utility.yul\":12902:12906   */\n      dup2\n        /* \"#utility.yul\":12776:12907   */\n      tag_232\n      jump\t// in\n    tag_304:\n        /* \"#utility.yul\":12768:12907   */\n      swap1\n      pop\n        /* \"#utility.yul\":12495:12914   */\n      swap2\n      swap1\n      pop\n      jump\t// out\n        /* \"#utility.yul\":12920:13339   */\n    tag_70:\n        /* \"#utility.yul\":13086:13090   */\n      0x00\n        /* \"#utility.yul\":13124:13126   */\n      0x20\n        /* \"#utility.yul\":13113:13122   */\n      dup3\n        /* \"#utility.yul\":13109:13127   */\n      add\n        /* \"#utility.yul\":13101:13127   */\n      swap1\n      pop\n        /* \"#utility.yul\":13173:13182   */\n      dup2\n        /* \"#utility.yul\":13167:13171   */\n      dup2\n        /* \"#utility.yul\":13163:13183   */\n      sub\n        /* \"#utility.yul\":13159:13160   */\n      0x00\n        /* \"#utility.yul\":13148:13157   */\n      dup4\n        /* \"#utility.yul\":13144:13161   */\n      add\n        /* \"#utility.yul\":13137:13184   */\n      mstore\n        /* \"#utility.yul\":13201:13332   */\n      tag_306\n        /* \"#utility.yul\":13327:13331   */\n      dup2\n        /* \"#utility.yul\":13201:13332   */\n      tag_237\n      jump\t// in\n    tag_306:\n        /* \"#utility.yul\":13193:13332   */\n      swap1\n      pop\n        /* \"#utility.yul\":12920:13339   */\n      swap2\n      swap1\n      pop\n      jump\t// out\n        /* \"#utility.yul\":13345:13764   */\n    tag_139:\n        /* \"#utility.yul\":13511:13515   */\n      0x00\n        /* \"#utility.yul\":13549:13551   */\n      0x20\n        /* \"#utility.yul\":13538:13547   */\n      dup3\n        /* \"#utility.yul\":13534:13552   */\n      add\n        /* \"#utility.yul\":13526:13552   */\n      swap1\n      pop\n        /* \"#utility.yul\":13598:13607   */\n      dup2\n        /* \"#utility.yul\":13592:13596   */\n      dup2\n        /* \"#utility.yul\":13588:13608   */\n      sub\n        /* \"#utility.yul\":13584:13585   */\n      0x00\n        /* \"#utility.yul\":13573:13582   */\n      dup4\n        /* \"#utility.yul\":13569:13586   */\n      add\n        /* \"#utility.yul\":13562:13609   */\n      mstore\n        /* \"#utility.yul\":13626:13757   */\n      tag_308\n        /* \"#utility.yul\":13752:13756   */\n      dup2\n        /* \"#utility.yul\":13626:13757   */\n      tag_242\n      jump\t// in\n    tag_308:\n        /* \"#utility.yul\":13618:13757   */\n      swap1\n      pop\n        /* \"#utility.yul\":13345:13764   */\n      swap2\n      swap1\n      pop\n      jump\t// out\n        /* \"#utility.yul\":13770:14189   */\n    tag_50:\n        /* \"#utility.yul\":13936:13940   */\n      0x00\n        /* \"#utility.yul\":13974:13976   */\n      0x20\n        /* \"#utility.yul\":13963:13972   */\n      dup3\n        /* \"#utility.yul\":13959:13977   */\n      add\n        /* \"#utility.yul\":13951:13977   */\n      swap1\n      pop\n        /* \"#utility.yul\":14023:14032   */\n      dup2\n        /* \"#utility.yul\":14017:14021   */\n      dup2\n        /* \"#utility.yul\":14013:14033   */\n      sub\n        /* \"#utility.yul\":14009:14010   */\n      0x00\n        /* \"#utility.yul\":13998:14007   */\n      dup4\n        /* \"#utility.yul\":13994:14011   */\n      add\n        /* \"#utility.yul\":13987:14034   */\n      mstore\n        /* \"#utility.yul\":14051:14182   */\n      tag_310\n        /* \"#utility.yul\":14177:14181   */\n      dup2\n        /* \"#utility.yul\":14051:14182   */\n      tag_247\n      jump\t// in\n    tag_310:\n        /* \"#utility.yul\":14043:14182   */\n      swap1\n      pop\n        /* \"#utility.yul\":13770:14189   */\n      swap2\n      swap1\n      pop\n      jump\t// out\n        /* \"#utility.yul\":14195:14614   */\n    tag_102:\n        /* \"#utility.yul\":14361:14365   */\n      0x00\n        /* \"#utility.yul\":14399:14401   */\n      0x20\n        /* \"#utility.yul\":14388:14397   */\n      dup3\n        /* \"#utility.yul\":14384:14402   */\n      add\n        /* \"#utility.yul\":14376:14402   */\n      swap1\n      pop\n        /* \"#utility.yul\":14448:14457   */\n      dup2\n        /* \"#utility.yul\":14442:14446   */\n      dup2\n        /* \"#utility.yul\":14438:14458   */\n      sub\n        /* \"#utility.yul\":14434:14435   */\n      0x00\n        /* \"#utility.yul\":14423:14432   */\n      dup4\n        /* \"#utility.yul\":14419:14436   */\n      add\n        /* \"#utility.yul\":14412:14459   */\n      mstore\n        /* \"#utility.yul\":14476:14607   */\n      tag_312\n        /* \"#utility.yul\":14602:14606   */\n      dup2\n        /* \"#utility.yul\":14476:14607   */\n      tag_258\n      jump\t// in\n    tag_312:\n        /* \"#utility.yul\":14468:14607   */\n      swap1\n      pop\n        /* \"#utility.yul\":14195:14614   */\n      swap2\n      swap1\n      pop\n      jump\t// out\n        /* \"#utility.yul\":14620:15039   */\n    tag_148:\n        /* \"#utility.yul\":14786:14790   */\n      0x00\n        /* \"#utility.yul\":14824:14826   */\n      0x20\n        /* \"#utility.yul\":14813:14822   */\n      dup3\n        /* \"#utility.yul\":14809:14827   */\n      add\n        /* \"#utility.yul\":14801:14827   */\n      swap1\n      pop\n        /* \"#utility.yul\":14873:14882   */\n      dup2\n        /* \"#utility.yul\":14867:14871   */\n      dup2\n        /* \"#utility.yul\":14863:14883   */\n      sub\n        /* \"#utility.yul\":14859:14860   */\n      0x00\n        /* \"#utility.yul\":14848:14857   */\n      dup4\n        /* \"#utility.yul\":14844:14861   */\n      add\n        /* \"#utility.yul\":14837:14884   */\n      mstore\n        /* \"#utility.yul\":14901:15032   */\n      tag_314\n        /* \"#utility.yul\":15027:15031   */\n      dup2\n        /* \"#utility.yul\":14901:15032   */\n      tag_263\n      jump\t// in\n    tag_314:\n        /* \"#utility.yul\":14893:15032   */\n      swap1\n      pop\n        /* \"#utility.yul\":14620:15039   */\n      swap2\n      swap1\n      pop\n      jump\t// out\n        /* \"#utility.yul\":15045:15267   */\n    tag_29:\n        /* \"#utility.yul\":15138:15142   */\n      0x00\n        /* \"#utility.yul\":15176:15178   */\n      0x20\n        /* \"#utility.yul\":15165:15174   */\n      dup3\n        /* \"#utility.yul\":15161:15179   */\n      add\n        /* \"#utility.yul\":15153:15179   */\n      swap1\n      pop\n        /* \"#utility.yul\":15189:15260   */\n      tag_316\n        /* \"#utility.yul\":15257:15258   */\n      0x00\n        /* \"#utility.yul\":15246:15255   */\n      dup4\n        /* \"#utility.yul\":15242:15259   */\n      add\n        /* \"#utility.yul\":15233:15239   */\n      dup5\n        /* \"#utility.yul\":15189:15260   */\n      tag_268\n      jump\t// in\n    tag_316:\n        /* \"#utility.yul\":15045:15267   */\n      swap3\n      swap2\n      pop\n      pop\n      jump\t// out\n        /* \"#utility.yul\":15354:15501   */\n    tag_255:\n        /* \"#utility.yul\":15455:15466   */\n      0x00\n        /* \"#utility.yul\":15492:15495   */\n      dup2\n        /* \"#utility.yul\":15477:15495   */\n      swap1\n      pop\n        /* \"#utility.yul\":15354:15501   */\n      swap3\n      swap2\n      pop\n      pop\n      jump\t// out\n        /* \"#utility.yul\":15507:15676   */\n    tag_224:\n        /* \"#utility.yul\":15591:15602   */\n      0x00\n        /* \"#utility.yul\":15625:15631   */\n      dup3\n        /* \"#utility.yul\":15620:15623   */\n      dup3\n        /* \"#utility.yul\":15613:15632   */\n      mstore\n        /* \"#utility.yul\":15665:15669   */\n      0x20\n        /* \"#utility.yul\":15660:15663   */\n      dup3\n        /* \"#utility.yul\":15656:15670   */\n      add\n        /* \"#utility.yul\":15641:15670   */\n      swap1\n      pop\n        /* \"#utility.yul\":15507:15676   */\n      swap3\n      swap2\n      pop\n      pop\n      jump\t// out\n        /* \"#utility.yul\":15682:15778   */\n    tag_216:\n        /* \"#utility.yul\":15719:15726   */\n      0x00\n        /* \"#utility.yul\":15748:15772   */\n      tag_322\n        /* \"#utility.yul\":15766:15771   */\n      dup3\n        /* \"#utility.yul\":15748:15772   */\n      tag_323\n      jump\t// in\n    tag_322:\n        /* \"#utility.yul\":15737:15772   */\n      swap1\n      pop\n        /* \"#utility.yul\":15682:15778   */\n      swap2\n      swap1\n      pop\n      jump\t// out\n        /* \"#utility.yul\":15784:15874   */\n    tag_324:\n        /* \"#utility.yul\":15818:15825   */\n      0x00\n        /* \"#utility.yul\":15861:15866   */\n      dup2\n        /* \"#utility.yul\":15854:15867   */\n      iszero\n        /* \"#utility.yul\":15847:15868   */\n      iszero\n        /* \"#utility.yul\":15836:15868   */\n      swap1\n      pop\n        /* \"#utility.yul\":15784:15874   */\n      swap2\n      swap1\n      pop\n      jump\t// out\n        /* \"#utility.yul\":15880:16029   */\n    tag_220:\n        /* \"#utility.yul\":15916:15923   */\n      0x00\n        /* \"#utility.yul\":15956:16022   */\n      0xffffffff00000000000000000000000000000000000000000000000000000000\n        /* \"#utility.yul\":15949:15954   */\n      dup3\n        /* \"#utility.yul\":15945:16023   */\n      and\n        /* \"#utility.yul\":15934:16023   */\n      swap1\n      pop\n        /* \"#utility.yul\":15880:16029   */\n      swap2\n      swap1\n      pop\n      jump\t// out\n        /* \"#utility.yul\":16035:16161   */\n    tag_323:\n        /* \"#utility.yul\":16072:16079   */\n      0x00\n        /* \"#utility.yul\":16112:16154   */\n      0xffffffffffffffffffffffffffffffffffffffff\n        /* \"#utility.yul\":16105:16110   */\n      dup3\n        /* \"#utility.yul\":16101:16155   */\n      and\n        /* \"#utility.yul\":16090:16155   */\n      swap1\n      pop\n        /* \"#utility.yul\":16035:16161   */\n      swap2\n      swap1\n      pop\n      jump\t// out\n        /* \"#utility.yul\":16167:16244   */\n    tag_271:\n        /* \"#utility.yul\":16204:16211   */\n      0x00\n        /* \"#utility.yul\":16233:16238   */\n      dup2\n        /* \"#utility.yul\":16222:16238   */\n      swap1\n      pop\n        /* \"#utility.yul\":16167:16244   */\n      swap2\n      swap1\n      pop\n      jump\t// out\n        /* \"#utility.yul\":16250:16367   */\n    tag_168:\n        /* \"#utility.yul\":16359:16360   */\n      0x00\n        /* \"#utility.yul\":16356:16357   */\n      dup1\n        /* \"#utility.yul\":16349:16361   */\n      revert\n        /* \"#utility.yul\":16373:16490   */\n    tag_165:\n        /* \"#utility.yul\":16482:16483   */\n      0x00\n        /* \"#utility.yul\":16479:16480   */\n      dup1\n        /* \"#utility.yul\":16472:16484   */\n      revert\n        /* \"#utility.yul\":16496:16613   */\n    tag_171:\n        /* \"#utility.yul\":16605:16606   */\n      0x00\n        /* \"#utility.yul\":16602:16603   */\n      dup1\n        /* \"#utility.yul\":16595:16607   */\n      revert\n        /* \"#utility.yul\":16619:16736   */\n    tag_189:\n        /* \"#utility.yul\":16728:16729   */\n      0x00\n        /* \"#utility.yul\":16725:16726   */\n      dup1\n        /* \"#utility.yul\":16718:16730   */\n      revert\n        /* \"#utility.yul\":16742:16859   */\n    tag_179:\n        /* \"#utility.yul\":16851:16852   */\n      0x00\n        /* \"#utility.yul\":16848:16849   */\n      dup1\n        /* \"#utility.yul\":16841:16853   */\n      revert\n        /* \"#utility.yul\":16865:17043   */\n    tag_226:\n        /* \"#utility.yul\":17005:17035   */\n      0x4e6674206e6f7420617070726f76656420746f20636f6e747261637400000000\n        /* \"#utility.yul\":17001:17002   */\n      0x00\n        /* \"#utility.yul\":16993:16999   */\n      dup3\n        /* \"#utility.yul\":16989:17003   */\n      add\n        /* \"#utility.yul\":16982:17036   */\n      mstore\n        /* \"#utility.yul\":16865:17043   */\n      pop\n      jump\t// out\n        /* \"#utility.yul\":17049:17216   */\n    tag_231:\n        /* \"#utility.yul\":17189:17208   */\n      0x50726963652063616e6e6f742062652030000000000000000000000000000000\n        /* \"#utility.yul\":17185:17186   */\n      0x00\n        /* \"#utility.yul\":17177:17183   */\n      dup3\n        /* \"#utility.yul\":17173:17187   */\n      add\n        /* \"#utility.yul\":17166:17209   */\n      mstore\n        /* \"#utility.yul\":17049:17216   */\n      pop\n      jump\t// out\n        /* \"#utility.yul\":17222:17393   */\n    tag_236:\n        /* \"#utility.yul\":17362:17385   */\n      0x4e6674206e6f7420696e2066697865642073616c650000000000000000000000\n        /* \"#utility.yul\":17358:17359   */\n      0x00\n        /* \"#utility.yul\":17350:17356   */\n      dup3\n        /* \"#utility.yul\":17346:17360   */\n      add\n        /* \"#utility.yul\":17339:17386   */\n      mstore\n        /* \"#utility.yul\":17222:17393   */\n      pop\n      jump\t// out\n        /* \"#utility.yul\":17399:17568   */\n    tag_241:\n        /* \"#utility.yul\":17539:17560   */\n      0x4e667420616c726561647920696e2073616c6500000000000000000000000000\n        /* \"#utility.yul\":17535:17536   */\n      0x00\n        /* \"#utility.yul\":17527:17533   */\n      dup3\n        /* \"#utility.yul\":17523:17537   */\n      add\n        /* \"#utility.yul\":17516:17561   */\n      mstore\n        /* \"#utility.yul\":17399:17568   */\n      pop\n      jump\t// out\n        /* \"#utility.yul\":17574:17744   */\n    tag_246:\n        /* \"#utility.yul\":17714:17736   */\n      0x616c6c6f77616e6365206e6f7420656e6f756768000000000000000000000000\n        /* \"#utility.yul\":17710:17711   */\n      0x00\n        /* \"#utility.yul\":17702:17708   */\n      dup3\n        /* \"#utility.yul\":17698:17712   */\n      add\n        /* \"#utility.yul\":17691:17737   */\n      mstore\n        /* \"#utility.yul\":17574:17744   */\n      pop\n      jump\t// out\n        /* \"#utility.yul\":17750:17921   */\n    tag_251:\n        /* \"#utility.yul\":17890:17913   */\n      0x596f7520617265206e6f74206e6674206f776e65720000000000000000000000\n        /* \"#utility.yul\":17886:17887   */\n      0x00\n        /* \"#utility.yul\":17878:17884   */\n      dup3\n        /* \"#utility.yul\":17874:17888   */\n      add\n        /* \"#utility.yul\":17867:17914   */\n      mstore\n        /* \"#utility.yul\":17750:17921   */\n      pop\n      jump\t// out\n        /* \"#utility.yul\":17927:18041   */\n    tag_257:\n      pop\n      jump\t// out\n        /* \"#utility.yul\":18047:18217   */\n    tag_262:\n        /* \"#utility.yul\":18187:18209   */\n      0x627579205072696365206e6f7420656e6f756768000000000000000000000000\n        /* \"#utility.yul\":18183:18184   */\n      0x00\n        /* \"#utility.yul\":18175:18181   */\n      dup3\n        /* \"#utility.yul\":18171:18185   */\n      add\n        /* \"#utility.yul\":18164:18210   */\n      mstore\n        /* \"#utility.yul\":18047:18217   */\n      pop\n      jump\t// out\n        /* \"#utility.yul\":18223:18386   */\n    tag_267:\n        /* \"#utility.yul\":18363:18378   */\n      0x726566756e64206661696c656400000000000000000000000000000000000000\n        /* \"#utility.yul\":18359:18360   */\n      0x00\n        /* \"#utility.yul\":18351:18357   */\n      dup3\n        /* \"#utility.yul\":18347:18361   */\n      add\n        /* \"#utility.yul\":18340:18379   */\n      mstore\n        /* \"#utility.yul\":18223:18386   */\n      pop\n      jump\t// out\n        /* \"#utility.yul\":18392:18514   */\n    tag_153:\n        /* \"#utility.yul\":18465:18489   */\n      tag_344\n        /* \"#utility.yul\":18483:18488   */\n      dup2\n        /* \"#utility.yul\":18465:18489   */\n      tag_216\n      jump\t// in\n    tag_344:\n        /* \"#utility.yul\":18458:18463   */\n      dup2\n        /* \"#utility.yul\":18455:18490   */\n      eq\n        /* \"#utility.yul\":18445:18508   */\n      tag_345\n      jumpi\n        /* \"#utility.yul\":18504:18505   */\n      0x00\n        /* \"#utility.yul\":18501:18502   */\n      dup1\n        /* \"#utility.yul\":18494:18506   */\n      revert\n        /* \"#utility.yul\":18445:18508   */\n    tag_345:\n        /* \"#utility.yul\":18392:18514   */\n      pop\n      jump\t// out\n        /* \"#utility.yul\":18520:18636   */\n    tag_160:\n        /* \"#utility.yul\":18590:18611   */\n      tag_347\n        /* \"#utility.yul\":18605:18610   */\n      dup2\n        /* \"#utility.yul\":18590:18611   */\n      tag_324\n      jump\t// in\n    tag_347:\n        /* \"#utility.yul\":18583:18588   */\n      dup2\n        /* \"#utility.yul\":18580:18612   */\n      eq\n        /* \"#utility.yul\":18570:18630   */\n      tag_348\n      jumpi\n        /* \"#utility.yul\":18626:18627   */\n      0x00\n        /* \"#utility.yul\":18623:18624   */\n      dup1\n        /* \"#utility.yul\":18616:18628   */\n      revert\n        /* \"#utility.yul\":18570:18630   */\n    tag_348:\n        /* \"#utility.yul\":18520:18636   */\n      pop\n      jump\t// out\n        /* \"#utility.yul\":18642:18764   */\n    tag_175:\n        /* \"#utility.yul\":18715:18739   */\n      tag_350\n        /* \"#utility.yul\":18733:18738   */\n      dup2\n        /* \"#utility.yul\":18715:18739   */\n      tag_271\n      jump\t// in\n    tag_350:\n        /* \"#utility.yul\":18708:18713   */\n      dup2\n        /* \"#utility.yul\":18705:18740   */\n      eq\n        /* \"#utility.yul\":18695:18758   */\n      tag_351\n      jumpi\n        /* \"#utility.yul\":18754:18755   */\n      0x00\n        /* \"#utility.yul\":18751:18752   */\n      dup1\n        /* \"#utility.yul\":18744:18756   */\n      revert\n        /* \"#utility.yul\":18695:18758   */\n    tag_351:\n        /* \"#utility.yul\":18642:18764   */\n      pop\n      jump\t// out\n\n    auxdata: 0xa2646970667358221220eba0ffc79d01d17f96b64bfb5e3c9ab4924265083004d488361dcaadefe9c44d64736f6c63430008070033\n}\n",
				"bytecode": {
					"linkReferences": {},
					"object": "608060405234801561001057600080fd5b50611ad4806100206000396000f3fe6080604052600436106100595760003560e01c8063150b7a02146100655780634676adca146100a25780636916462f146100cb57806369a6d12e14610108578063baf4371e14610131578063d3a6a6c91461014d57610060565b3661006057005b600080fd5b34801561007157600080fd5b5061008c600480360381019061008791906112c6565b610176565b604051610099919061172f565b60405180910390f35b3480156100ae57600080fd5b506100c960048036038101906100c491906113f5565b61018b565b005b3480156100d757600080fd5b506100f260048036038101906100ed91906113b5565b6103e1565b6040516100ff919061184a565b60405180910390f35b34801561011457600080fd5b5061012f600480360381019061012a919061134e565b610406565b005b61014b600480360381019061014691906113f5565b61094a565b005b34801561015957600080fd5b50610174600480360381019061016f91906113b5565b610d99565b005b600063150b7a0260e01b905095945050505050565b828260018060008473ffffffffffffffffffffffffffffffffffffffff1673ffffffffffffffffffffffffffffffffffffffff1681526020019081526020016000206000838152602001908152602001600020541461021f576040517f08c379a00000000000000000000000000000000000000000000000000000000081526004016102169061178a565b60405180910390fd5b84846000808373ffffffffffffffffffffffffffffffffffffffff1673ffffffffffffffffffffffffffffffffffffffff168152602001908152602001600020600082815260200190815260200160002060000160009054906101000a900473ffffffffffffffffffffffffffffffffffffffff1673ffffffffffffffffffffffffffffffffffffffff163373ffffffffffffffffffffffffffffffffffffffff1614610301576040517f08c379a00000000000000000000000000000000000000000000000000000000081526004016102f8906117ea565b60405180910390fd5b8460008111610345576040517f08c379a000000000000000000000000000000000000000000000000000000000815260040161033c9061176a565b60405180910390fd5b856000808a73ffffffffffffffffffffffffffffffffffffffff1673ffffffffffffffffffffffffffffffffffffffff1681526020019081526020016000206000898152602001908152602001600020600301819055507f575a0876095ccf47276a37dce683308a625403d132d219f95205ce205b2e12bc8888886040516103cf939291906116f8565b60405180910390a15050505050505050565b6001602052816000526040600020602052806000526040600020600091509150505481565b83828173ffffffffffffffffffffffffffffffffffffffff16636352211e826040518263ffffffff1660e01b8152600401610441919061184a565b60206040518083038186803b15801561045957600080fd5b505afa15801561046d573d6000803e3d6000fd5b505050506040513d601f19601f820116820180604052508101906104919190611299565b73ffffffffffffffffffffffffffffffffffffffff163373ffffffffffffffffffffffffffffffffffffffff16146104fe576040517f08c379a00000000000000000000000000000000000000000000000000000000081526004016104f5906117ea565b60405180910390fd5b85846000600160008473ffffffffffffffffffffffffffffffffffffffff1673ffffffffffffffffffffffffffffffffffffffff16815260200190815260200160002060008381526020019081526020016000205414610593576040517f08c379a000000000000000000000000000000000000000000000000000000000815260040161058a906117aa565b60405180910390fd5b87868173ffffffffffffffffffffffffffffffffffffffff1663e985e9c533306040518363ffffffff1660e01b81526004016105d09291906115f2565b60206040518083038186803b1580156105e857600080fd5b505afa1580156105fc573d6000803e3d6000fd5b505050506040513d601f19601f820116820180604052508101906106209190611448565b61065f576040517f08c379a00000000000000000000000000000000000000000000000000000000081526004016106569061174a565b60405180910390fd5b86600081116106a3576040517f08c379a000000000000000000000000000000000000000000000000000000000815260040161069a9061176a565b60405180910390fd5b60405180608001604052803373ffffffffffffffffffffffffffffffffffffffff168152602001600073ffffffffffffffffffffffffffffffffffffffff1681526020018b73ffffffffffffffffffffffffffffffffffffffff168152602001898152506000808d73ffffffffffffffffffffffffffffffffffffffff1673ffffffffffffffffffffffffffffffffffffffff16815260200190815260200160002060008b815260200190815260200160002060008201518160000160006101000a81548173ffffffffffffffffffffffffffffffffffffffff021916908373ffffffffffffffffffffffffffffffffffffffff16021790555060208201518160010160006101000a81548173ffffffffffffffffffffffffffffffffffffffff021916908373ffffffffffffffffffffffffffffffffffffffff16021790555060408201518160020160006101000a81548173ffffffffffffffffffffffffffffffffffffffff021916908373ffffffffffffffffffffffffffffffffffffffff1602179055506060820151816003015590505060018060008d73ffffffffffffffffffffffffffffffffffffffff1673ffffffffffffffffffffffffffffffffffffffff16815260200190815260200160002060008b8152602001908152602001600020819055508a73ffffffffffffffffffffffffffffffffffffffff166342842e0e33308c6040518463ffffffff1660e01b81526004016108ca9392919061167c565b600060405180830381600087803b1580156108e457600080fd5b505af11580156108f8573d6000803e3d6000fd5b505050507f078eead3cd01ed921c7653d000a6b73aea643a7b9c066fb7d93eb2eae8acc2d98b338c8c8c426040516109359695949392919061161b565b60405180910390a15050505050505050505050565b828260018060008473ffffffffffffffffffffffffffffffffffffffff1673ffffffffffffffffffffffffffffffffffffffff168152602001908152602001600020600083815260200190815260200160002054146109de576040517f08c379a00000000000000000000000000000000000000000000000000000000081526004016109d59061178a565b60405180910390fd5b8260008111610a22576040517f08c379a0000000000000000000000000000000000000000000000000000000008152600401610a199061176a565b60405180910390fd5b8585856000808473ffffffffffffffffffffffffffffffffffffffff1673ffffffffffffffffffffffffffffffffffffffff168152602001908152602001600020600083815260200190815260200160002060030154811015610aba576040517f08c379a0000000000000000000000000000000000000000000000000000000008152600401610ab19061180a565b60405180910390fd5b8873ffffffffffffffffffffffffffffffffffffffff166342842e0e30338b6040518463ffffffff1660e01b8152600401610af79392919061167c565b600060405180830381600087803b158015610b1157600080fd5b505af1158015610b25573d6000803e3d6000fd5b505050506000600160008b73ffffffffffffffffffffffffffffffffffffffff1673ffffffffffffffffffffffffffffffffffffffff16815260200190815260200160002060008a815260200190815260200160002081905550336000808b73ffffffffffffffffffffffffffffffffffffffff1673ffffffffffffffffffffffffffffffffffffffff16815260200190815260200160002060008a815260200190815260200160002060010160006101000a81548173ffffffffffffffffffffffffffffffffffffffff021916908373ffffffffffffffffffffffffffffffffffffffff160217905550610d516000808b73ffffffffffffffffffffffffffffffffffffffff1673ffffffffffffffffffffffffffffffffffffffff16815260200190815260200160002060008a815260200190815260200160002060000160009054906101000a900473ffffffffffffffffffffffffffffffffffffffff166000808c73ffffffffffffffffffffffffffffffffffffffff1673ffffffffffffffffffffffffffffffffffffffff16815260200190815260200160002060008b815260200190815260200160002060020160009054906101000a900473ffffffffffffffffffffffffffffffffffffffff166000808d73ffffffffffffffffffffffffffffffffffffffff1673ffffffffffffffffffffffffffffffffffffffff16815260200190815260200160002060008c815260200190815260200160002060030154611017565b7f9fa3b1bb9266e05722b54a7a564d02a274bc80d39f4af21e6be405480996ceba89338a8a604051610d8694939291906116b3565b60405180910390a1505050505050505050565b818160018060008473ffffffffffffffffffffffffffffffffffffffff1673ffffffffffffffffffffffffffffffffffffffff16815260200190815260200160002060008381526020019081526020016000205414610e2d576040517f08c379a0000000000000000000000000000000000000000000000000000000008152600401610e249061178a565b60405180910390fd5b83836000808373ffffffffffffffffffffffffffffffffffffffff1673ffffffffffffffffffffffffffffffffffffffff168152602001908152602001600020600082815260200190815260200160002060000160009054906101000a900473ffffffffffffffffffffffffffffffffffffffff1673ffffffffffffffffffffffffffffffffffffffff163373ffffffffffffffffffffffffffffffffffffffff1614610f0f576040517f08c379a0000000000000000000000000000000000000000000000000000000008152600401610f06906117ea565b60405180910390fd5b8573ffffffffffffffffffffffffffffffffffffffff166342842e0e3033886040518463ffffffff1660e01b8152600401610f4c9392919061167c565b600060405180830381600087803b158015610f6657600080fd5b505af1158015610f7a573d6000803e3d6000fd5b505050506000600160008873ffffffffffffffffffffffffffffffffffffffff1673ffffffffffffffffffffffffffffffffffffffff1681526020019081526020016000206000878152602001908152602001600020819055507fd7348ff00cf381a884144b50b3441398a48a7974ec349287df80e18cec9f5a318633876040516110079392919061167c565b60405180910390a1505050505050565b600073ffffffffffffffffffffffffffffffffffffffff168273ffffffffffffffffffffffffffffffffffffffff161461105b5761105683838361106b565b611066565b611065838261113e565b5b505050565b8173ffffffffffffffffffffffffffffffffffffffff166323b872dd3385846040518463ffffffff1660e01b81526004016110a89392919061167c565b602060405180830381600087803b1580156110c257600080fd5b505af11580156110d6573d6000803e3d6000fd5b505050506040513d601f19601f820116820180604052508101906110fa9190611448565b611139576040517f08c379a0000000000000000000000000000000000000000000000000000000008152600401611130906117ca565b60405180910390fd5b505050565b60008273ffffffffffffffffffffffffffffffffffffffff1682604051611164906115dd565b60006040518083038185875af1925050503d80600081146111a1576040519150601f19603f3d011682016040523d82523d6000602084013e6111a6565b606091505b50509050806111ea576040517f08c379a00000000000000000000000000000000000000000000000000000000081526004016111e19061182a565b60405180910390fd5b505050565b6000813590506111fe81611a59565b92915050565b60008151905061121381611a59565b92915050565b60008151905061122881611a70565b92915050565b60008083601f840112611244576112436118fa565b5b8235905067ffffffffffffffff811115611261576112606118f5565b5b60208301915083600182028301111561127d5761127c6118ff565b5b9250929050565b60008135905061129381611a87565b92915050565b6000602082840312156112af576112ae611909565b5b60006112bd84828501611204565b91505092915050565b6000806000806000608086880312156112e2576112e1611909565b5b60006112f0888289016111ef565b9550506020611301888289016111ef565b945050604061131288828901611284565b935050606086013567ffffffffffffffff81111561133357611332611904565b5b61133f8882890161122e565b92509250509295509295909350565b6000806000806080858703121561136857611367611909565b5b6000611376878288016111ef565b9450506020611387878288016111ef565b935050604061139887828801611284565b92505060606113a987828801611284565b91505092959194509250565b600080604083850312156113cc576113cb611909565b5b60006113da858286016111ef565b92505060206113eb85828601611284565b9150509250929050565b60008060006060848603121561140e5761140d611909565b5b600061141c868287016111ef565b935050602061142d86828701611284565b925050604061143e86828701611284565b9150509250925092565b60006020828403121561145e5761145d611909565b5b600061146c84828501611219565b91505092915050565b61147e81611881565b82525050565b61148d8161189f565b82525050565b60006114a0601c83611870565b91506114ab8261190e565b602082019050919050565b60006114c3601183611870565b91506114ce82611937565b602082019050919050565b60006114e6601583611870565b91506114f182611960565b602082019050919050565b6000611509601383611870565b915061151482611989565b602082019050919050565b600061152c601483611870565b9150611537826119b2565b602082019050919050565b600061154f601583611870565b915061155a826119db565b602082019050919050565b6000611572600083611865565b915061157d82611a04565b600082019050919050565b6000611595601483611870565b91506115a082611a07565b602082019050919050565b60006115b8600d83611870565b91506115c382611a30565b602082019050919050565b6115d7816118eb565b82525050565b60006115e882611565565b9150819050919050565b60006040820190506116076000830185611475565b6116146020830184611475565b9392505050565b600060c0820190506116306000830189611475565b61163d6020830188611475565b61164a6040830187611475565b61165760608301866115ce565b61166460808301856115ce565b61167160a08301846115ce565b979650505050505050565b60006060820190506116916000830186611475565b61169e6020830185611475565b6116ab60408301846115ce565b949350505050565b60006080820190506116c86000830187611475565b6116d56020830186611475565b6116e260408301856115ce565b6116ef60608301846115ce565b95945050505050565b600060608201905061170d6000830186611475565b61171a60208301856115ce565b61172760408301846115ce565b949350505050565b60006020820190506117446000830184611484565b92915050565b6000602082019050818103600083015261176381611493565b9050919050565b60006020820190508181036000830152611783816114b6565b9050919050565b600060208201905081810360008301526117a3816114d9565b9050919050565b600060208201905081810360008301526117c3816114fc565b9050919050565b600060208201905081810360008301526117e38161151f565b9050919050565b6000602082019050818103600083015261180381611542565b9050919050565b6000602082019050818103600083015261182381611588565b9050919050565b60006020820190508181036000830152611843816115ab565b9050919050565b600060208201905061185f60008301846115ce565b92915050565b600081905092915050565b600082825260208201905092915050565b600061188c826118cb565b9050919050565b60008115159050919050565b60007fffffffff0000000000000000000000000000000000000000000000000000000082169050919050565b600073ffffffffffffffffffffffffffffffffffffffff82169050919050565b6000819050919050565b600080fd5b600080fd5b600080fd5b600080fd5b600080fd5b7f4e6674206e6f7420617070726f76656420746f20636f6e747261637400000000600082015250565b7f50726963652063616e6e6f742062652030000000000000000000000000000000600082015250565b7f4e6674206e6f7420696e2066697865642073616c650000000000000000000000600082015250565b7f4e667420616c726561647920696e2073616c6500000000000000000000000000600082015250565b7f616c6c6f77616e6365206e6f7420656e6f756768000000000000000000000000600082015250565b7f596f7520617265206e6f74206e6674206f776e65720000000000000000000000600082015250565b50565b7f627579205072696365206e6f7420656e6f756768000000000000000000000000600082015250565b7f726566756e64206661696c656400000000000000000000000000000000000000600082015250565b611a6281611881565b8114611a6d57600080fd5b50565b611a7981611893565b8114611a8457600080fd5b50565b611a90816118eb565b8114611a9b57600080fd5b5056fea2646970667358221220eba0ffc79d01d17f96b64bfb5e3c9ab4924265083004d488361dcaadefe9c44d64736f6c63430008070033",
					"opcodes": "PUSH1 0x80 PUSH1 0x40 MSTORE CALLVALUE DUP1 ISZERO PUSH2 0x10 JUMPI PUSH1 0x0 DUP1 REVERT JUMPDEST POP PUSH2 0x1AD4 DUP1 PUSH2 0x20 PUSH1 0x0 CODECOPY PUSH1 0x0 RETURN INVALID PUSH1 0x80 PUSH1 0x40 MSTORE PUSH1 0x4 CALLDATASIZE LT PUSH2 0x59 JUMPI PUSH1 0x0 CALLDATALOAD PUSH1 0xE0 SHR DUP1 PUSH4 0x150B7A02 EQ PUSH2 0x65 JUMPI DUP1 PUSH4 0x4676ADCA EQ PUSH2 0xA2 JUMPI DUP1 PUSH4 0x6916462F EQ PUSH2 0xCB JUMPI DUP1 PUSH4 0x69A6D12E EQ PUSH2 0x108 JUMPI DUP1 PUSH4 0xBAF4371E EQ PUSH2 0x131 JUMPI DUP1 PUSH4 0xD3A6A6C9 EQ PUSH2 0x14D JUMPI PUSH2 0x60 JUMP JUMPDEST CALLDATASIZE PUSH2 0x60 JUMPI STOP JUMPDEST PUSH1 0x0 DUP1 REVERT JUMPDEST CALLVALUE DUP1 ISZERO PUSH2 0x71 JUMPI PUSH1 0x0 DUP1 REVERT JUMPDEST POP PUSH2 0x8C PUSH1 0x4 DUP1 CALLDATASIZE SUB DUP2 ADD SWAP1 PUSH2 0x87 SWAP2 SWAP1 PUSH2 0x12C6 JUMP JUMPDEST PUSH2 0x176 JUMP JUMPDEST PUSH1 0x40 MLOAD PUSH2 0x99 SWAP2 SWAP1 PUSH2 0x172F JUMP JUMPDEST PUSH1 0x40 MLOAD DUP1 SWAP2 SUB SWAP1 RETURN JUMPDEST CALLVALUE DUP1 ISZERO PUSH2 0xAE JUMPI PUSH1 0x0 DUP1 REVERT JUMPDEST POP PUSH2 0xC9 PUSH1 0x4 DUP1 CALLDATASIZE SUB DUP2 ADD SWAP1 PUSH2 0xC4 SWAP2 SWAP1 PUSH2 0x13F5 JUMP JUMPDEST PUSH2 0x18B JUMP JUMPDEST STOP JUMPDEST CALLVALUE DUP1 ISZERO PUSH2 0xD7 JUMPI PUSH1 0x0 DUP1 REVERT JUMPDEST POP PUSH2 0xF2 PUSH1 0x4 DUP1 CALLDATASIZE SUB DUP2 ADD SWAP1 PUSH2 0xED SWAP2 SWAP1 PUSH2 0x13B5 JUMP JUMPDEST PUSH2 0x3E1 JUMP JUMPDEST PUSH1 0x40 MLOAD PUSH2 0xFF SWAP2 SWAP1 PUSH2 0x184A JUMP JUMPDEST PUSH1 0x40 MLOAD DUP1 SWAP2 SUB SWAP1 RETURN JUMPDEST CALLVALUE DUP1 ISZERO PUSH2 0x114 JUMPI PUSH1 0x0 DUP1 REVERT JUMPDEST POP PUSH2 0x12F PUSH1 0x4 DUP1 CALLDATASIZE SUB DUP2 ADD SWAP1 PUSH2 0x12A SWAP2 SWAP1 PUSH2 0x134E JUMP JUMPDEST PUSH2 0x406 JUMP JUMPDEST STOP JUMPDEST PUSH2 0x14B PUSH1 0x4 DUP1 CALLDATASIZE SUB DUP2 ADD SWAP1 PUSH2 0x146 SWAP2 SWAP1 PUSH2 0x13F5 JUMP JUMPDEST PUSH2 0x94A JUMP JUMPDEST STOP JUMPDEST CALLVALUE DUP1 ISZERO PUSH2 0x159 JUMPI PUSH1 0x0 DUP1 REVERT JUMPDEST POP PUSH2 0x174 PUSH1 0x4 DUP1 CALLDATASIZE SUB DUP2 ADD SWAP1 PUSH2 0x16F SWAP2 SWAP1 PUSH2 0x13B5 JUMP JUMPDEST PUSH2 0xD99 JUMP JUMPDEST STOP JUMPDEST PUSH1 0x0 PUSH4 0x150B7A02 PUSH1 0xE0 SHL SWAP1 POP SWAP6 SWAP5 POP POP POP POP POP JUMP JUMPDEST DUP3 DUP3 PUSH1 0x1 DUP1 PUSH1 0x0 DUP5 PUSH20 0xFFFFFFFFFFFFFFFFFFFFFFFFFFFFFFFFFFFFFFFF AND PUSH20 0xFFFFFFFFFFFFFFFFFFFFFFFFFFFFFFFFFFFFFFFF AND DUP2 MSTORE PUSH1 0x20 ADD SWAP1 DUP2 MSTORE PUSH1 0x20 ADD PUSH1 0x0 KECCAK256 PUSH1 0x0 DUP4 DUP2 MSTORE PUSH1 0x20 ADD SWAP1 DUP2 MSTORE PUSH1 0x20 ADD PUSH1 0x0 KECCAK256 SLOAD EQ PUSH2 0x21F JUMPI PUSH1 0x40 MLOAD PUSH32 0x8C379A000000000000000000000000000000000000000000000000000000000 DUP2 MSTORE PUSH1 0x4 ADD PUSH2 0x216 SWAP1 PUSH2 0x178A JUMP JUMPDEST PUSH1 0x40 MLOAD DUP1 SWAP2 SUB SWAP1 REVERT JUMPDEST DUP5 DUP5 PUSH1 0x0 DUP1 DUP4 PUSH20 0xFFFFFFFFFFFFFFFFFFFFFFFFFFFFFFFFFFFFFFFF AND PUSH20 0xFFFFFFFFFFFFFFFFFFFFFFFFFFFFFFFFFFFFFFFF AND DUP2 MSTORE PUSH1 0x20 ADD SWAP1 DUP2 MSTORE PUSH1 0x20 ADD PUSH1 0x0 KECCAK256 PUSH1 0x0 DUP3 DUP2 MSTORE PUSH1 0x20 ADD SWAP1 DUP2 MSTORE PUSH1 0x20 ADD PUSH1 0x0 KECCAK256 PUSH1 0x0 ADD PUSH1 0x0 SWAP1 SLOAD SWAP1 PUSH2 0x100 EXP SWAP1 DIV PUSH20 0xFFFFFFFFFFFFFFFFFFFFFFFFFFFFFFFFFFFFFFFF AND PUSH20 0xFFFFFFFFFFFFFFFFFFFFFFFFFFFFFFFFFFFFFFFF AND CALLER PUSH20 0xFFFFFFFFFFFFFFFFFFFFFFFFFFFFFFFFFFFFFFFF AND EQ PUSH2 0x301 JUMPI PUSH1 0x40 MLOAD PUSH32 0x8C379A000000000000000000000000000000000000000000000000000000000 DUP2 MSTORE PUSH1 0x4 ADD PUSH2 0x2F8 SWAP1 PUSH2 0x17EA JUMP JUMPDEST PUSH1 0x40 MLOAD DUP1 SWAP2 SUB SWAP1 REVERT JUMPDEST DUP5 PUSH1 0x0 DUP2 GT PUSH2 0x345 JUMPI PUSH1 0x40 MLOAD PUSH32 0x8C379A000000000000000000000000000000000000000000000000000000000 DUP2 MSTORE PUSH1 0x4 ADD PUSH2 0x33C SWAP1 PUSH2 0x176A JUMP JUMPDEST PUSH1 0x40 MLOAD DUP1 SWAP2 SUB SWAP1 REVERT JUMPDEST DUP6 PUSH1 0x0 DUP1 DUP11 PUSH20 0xFFFFFFFFFFFFFFFFFFFFFFFFFFFFFFFFFFFFFFFF AND PUSH20 0xFFFFFFFFFFFFFFFFFFFFFFFFFFFFFFFFFFFFFFFF AND DUP2 MSTORE PUSH1 0x20 ADD SWAP1 DUP2 MSTORE PUSH1 0x20 ADD PUSH1 0x0 KECCAK256 PUSH1 0x0 DUP10 DUP2 MSTORE PUSH1 0x20 ADD SWAP1 DUP2 MSTORE PUSH1 0x20 ADD PUSH1 0x0 KECCAK256 PUSH1 0x3 ADD DUP2 SWAP1 SSTORE POP PUSH32 0x575A0876095CCF47276A37DCE683308A625403D132D219F95205CE205B2E12BC DUP9 DUP9 DUP9 PUSH1 0x40 MLOAD PUSH2 0x3CF SWAP4 SWAP3 SWAP2 SWAP1 PUSH2 0x16F8 JUMP JUMPDEST PUSH1 0x40 MLOAD DUP1 SWAP2 SUB SWAP1 LOG1 POP POP POP POP POP POP POP POP JUMP JUMPDEST PUSH1 0x1 PUSH1 0x20 MSTORE DUP2 PUSH1 0x0 MSTORE PUSH1 0x40 PUSH1 0x0 KECCAK256 PUSH1 0x20 MSTORE DUP1 PUSH1 0x0 MSTORE PUSH1 0x40 PUSH1 0x0 KECCAK256 PUSH1 0x0 SWAP2 POP SWAP2 POP POP SLOAD DUP2 JUMP JUMPDEST DUP4 DUP3 DUP2 PUSH20 0xFFFFFFFFFFFFFFFFFFFFFFFFFFFFFFFFFFFFFFFF AND PUSH4 0x6352211E DUP3 PUSH1 0x40 MLOAD DUP3 PUSH4 0xFFFFFFFF AND PUSH1 0xE0 SHL DUP2 MSTORE PUSH1 0x4 ADD PUSH2 0x441 SWAP2 SWAP1 PUSH2 0x184A JUMP JUMPDEST PUSH1 0x20 PUSH1 0x40 MLOAD DUP1 DUP4 SUB DUP2 DUP7 DUP1 EXTCODESIZE ISZERO DUP1 ISZERO PUSH2 0x459 JUMPI PUSH1 0x0 DUP1 REVERT JUMPDEST POP GAS STATICCALL ISZERO DUP1 ISZERO PUSH2 0x46D JUMPI RETURNDATASIZE PUSH1 0x0 DUP1 RETURNDATACOPY RETURNDATASIZE PUSH1 0x0 REVERT JUMPDEST POP POP POP POP PUSH1 0x40 MLOAD RETURNDATASIZE PUSH1 0x1F NOT PUSH1 0x1F DUP3 ADD AND DUP3 ADD DUP1 PUSH1 0x40 MSTORE POP DUP2 ADD SWAP1 PUSH2 0x491 SWAP2 SWAP1 PUSH2 0x1299 JUMP JUMPDEST PUSH20 0xFFFFFFFFFFFFFFFFFFFFFFFFFFFFFFFFFFFFFFFF AND CALLER PUSH20 0xFFFFFFFFFFFFFFFFFFFFFFFFFFFFFFFFFFFFFFFF AND EQ PUSH2 0x4FE JUMPI PUSH1 0x40 MLOAD PUSH32 0x8C379A000000000000000000000000000000000000000000000000000000000 DUP2 MSTORE PUSH1 0x4 ADD PUSH2 0x4F5 SWAP1 PUSH2 0x17EA JUMP JUMPDEST PUSH1 0x40 MLOAD DUP1 SWAP2 SUB SWAP1 REVERT JUMPDEST DUP6 DUP5 PUSH1 0x0 PUSH1 0x1 PUSH1 0x0 DUP5 PUSH20 0xFFFFFFFFFFFFFFFFFFFFFFFFFFFFFFFFFFFFFFFF AND PUSH20 0xFFFFFFFFFFFFFFFFFFFFFFFFFFFFFFFFFFFFFFFF AND DUP2 MSTORE PUSH1 0x20 ADD SWAP1 DUP2 MSTORE PUSH1 0x20 ADD PUSH1 0x0 KECCAK256 PUSH1 0x0 DUP4 DUP2 MSTORE PUSH1 0x20 ADD SWAP1 DUP2 MSTORE PUSH1 0x20 ADD PUSH1 0x0 KECCAK256 SLOAD EQ PUSH2 0x593 JUMPI PUSH1 0x40 MLOAD PUSH32 0x8C379A000000000000000000000000000000000000000000000000000000000 DUP2 MSTORE PUSH1 0x4 ADD PUSH2 0x58A SWAP1 PUSH2 0x17AA JUMP JUMPDEST PUSH1 0x40 MLOAD DUP1 SWAP2 SUB SWAP1 REVERT JUMPDEST DUP8 DUP7 DUP2 PUSH20 0xFFFFFFFFFFFFFFFFFFFFFFFFFFFFFFFFFFFFFFFF AND PUSH4 0xE985E9C5 CALLER ADDRESS PUSH1 0x40 MLOAD DUP4 PUSH4 0xFFFFFFFF AND PUSH1 0xE0 SHL DUP2 MSTORE PUSH1 0x4 ADD PUSH2 0x5D0 SWAP3 SWAP2 SWAP1 PUSH2 0x15F2 JUMP JUMPDEST PUSH1 0x20 PUSH1 0x40 MLOAD DUP1 DUP4 SUB DUP2 DUP7 DUP1 EXTCODESIZE ISZERO DUP1 ISZERO PUSH2 0x5E8 JUMPI PUSH1 0x0 DUP1 REVERT JUMPDEST POP GAS STATICCALL ISZERO DUP1 ISZERO PUSH2 0x5FC JUMPI RETURNDATASIZE PUSH1 0x0 DUP1 RETURNDATACOPY RETURNDATASIZE PUSH1 0x0 REVERT JUMPDEST POP POP POP POP PUSH1 0x40 MLOAD RETURNDATASIZE PUSH1 0x1F NOT PUSH1 0x1F DUP3 ADD AND DUP3 ADD DUP1 PUSH1 0x40 MSTORE POP DUP2 ADD SWAP1 PUSH2 0x620 SWAP2 SWAP1 PUSH2 0x1448 JUMP JUMPDEST PUSH2 0x65F JUMPI PUSH1 0x40 MLOAD PUSH32 0x8C379A000000000000000000000000000000000000000000000000000000000 DUP2 MSTORE PUSH1 0x4 ADD PUSH2 0x656 SWAP1 PUSH2 0x174A JUMP JUMPDEST PUSH1 0x40 MLOAD DUP1 SWAP2 SUB SWAP1 REVERT JUMPDEST DUP7 PUSH1 0x0 DUP2 GT PUSH2 0x6A3 JUMPI PUSH1 0x40 MLOAD PUSH32 0x8C379A000000000000000000000000000000000000000000000000000000000 DUP2 MSTORE PUSH1 0x4 ADD PUSH2 0x69A SWAP1 PUSH2 0x176A JUMP JUMPDEST PUSH1 0x40 MLOAD DUP1 SWAP2 SUB SWAP1 REVERT JUMPDEST PUSH1 0x40 MLOAD DUP1 PUSH1 0x80 ADD PUSH1 0x40 MSTORE DUP1 CALLER PUSH20 0xFFFFFFFFFFFFFFFFFFFFFFFFFFFFFFFFFFFFFFFF AND DUP2 MSTORE PUSH1 0x20 ADD PUSH1 0x0 PUSH20 0xFFFFFFFFFFFFFFFFFFFFFFFFFFFFFFFFFFFFFFFF AND DUP2 MSTORE PUSH1 0x20 ADD DUP12 PUSH20 0xFFFFFFFFFFFFFFFFFFFFFFFFFFFFFFFFFFFFFFFF AND DUP2 MSTORE PUSH1 0x20 ADD DUP10 DUP2 MSTORE POP PUSH1 0x0 DUP1 DUP14 PUSH20 0xFFFFFFFFFFFFFFFFFFFFFFFFFFFFFFFFFFFFFFFF AND PUSH20 0xFFFFFFFFFFFFFFFFFFFFFFFFFFFFFFFFFFFFFFFF AND DUP2 MSTORE PUSH1 0x20 ADD SWAP1 DUP2 MSTORE PUSH1 0x20 ADD PUSH1 0x0 KECCAK256 PUSH1 0x0 DUP12 DUP2 MSTORE PUSH1 0x20 ADD SWAP1 DUP2 MSTORE PUSH1 0x20 ADD PUSH1 0x0 KECCAK256 PUSH1 0x0 DUP3 ADD MLOAD DUP2 PUSH1 0x0 ADD PUSH1 0x0 PUSH2 0x100 EXP DUP2 SLOAD DUP2 PUSH20 0xFFFFFFFFFFFFFFFFFFFFFFFFFFFFFFFFFFFFFFFF MUL NOT AND SWAP1 DUP4 PUSH20 0xFFFFFFFFFFFFFFFFFFFFFFFFFFFFFFFFFFFFFFFF AND MUL OR SWAP1 SSTORE POP PUSH1 0x20 DUP3 ADD MLOAD DUP2 PUSH1 0x1 ADD PUSH1 0x0 PUSH2 0x100 EXP DUP2 SLOAD DUP2 PUSH20 0xFFFFFFFFFFFFFFFFFFFFFFFFFFFFFFFFFFFFFFFF MUL NOT AND SWAP1 DUP4 PUSH20 0xFFFFFFFFFFFFFFFFFFFFFFFFFFFFFFFFFFFFFFFF AND MUL OR SWAP1 SSTORE POP PUSH1 0x40 DUP3 ADD MLOAD DUP2 PUSH1 0x2 ADD PUSH1 0x0 PUSH2 0x100 EXP DUP2 SLOAD DUP2 PUSH20 0xFFFFFFFFFFFFFFFFFFFFFFFFFFFFFFFFFFFFFFFF MUL NOT AND SWAP1 DUP4 PUSH20 0xFFFFFFFFFFFFFFFFFFFFFFFFFFFFFFFFFFFFFFFF AND MUL OR SWAP1 SSTORE POP PUSH1 0x60 DUP3 ADD MLOAD DUP2 PUSH1 0x3 ADD SSTORE SWAP1 POP POP PUSH1 0x1 DUP1 PUSH1 0x0 DUP14 PUSH20 0xFFFFFFFFFFFFFFFFFFFFFFFFFFFFFFFFFFFFFFFF AND PUSH20 0xFFFFFFFFFFFFFFFFFFFFFFFFFFFFFFFFFFFFFFFF AND DUP2 MSTORE PUSH1 0x20 ADD SWAP1 DUP2 MSTORE PUSH1 0x20 ADD PUSH1 0x0 KECCAK256 PUSH1 0x0 DUP12 DUP2 MSTORE PUSH1 0x20 ADD SWAP1 DUP2 MSTORE PUSH1 0x20 ADD PUSH1 0x0 KECCAK256 DUP2 SWAP1 SSTORE POP DUP11 PUSH20 0xFFFFFFFFFFFFFFFFFFFFFFFFFFFFFFFFFFFFFFFF AND PUSH4 0x42842E0E CALLER ADDRESS DUP13 PUSH1 0x40 MLOAD DUP5 PUSH4 0xFFFFFFFF AND PUSH1 0xE0 SHL DUP2 MSTORE PUSH1 0x4 ADD PUSH2 0x8CA SWAP4 SWAP3 SWAP2 SWAP1 PUSH2 0x167C JUMP JUMPDEST PUSH1 0x0 PUSH1 0x40 MLOAD DUP1 DUP4 SUB DUP2 PUSH1 0x0 DUP8 DUP1 EXTCODESIZE ISZERO DUP1 ISZERO PUSH2 0x8E4 JUMPI PUSH1 0x0 DUP1 REVERT JUMPDEST POP GAS CALL ISZERO DUP1 ISZERO PUSH2 0x8F8 JUMPI RETURNDATASIZE PUSH1 0x0 DUP1 RETURNDATACOPY RETURNDATASIZE PUSH1 0x0 REVERT JUMPDEST POP POP POP POP PUSH32 0x78EEAD3CD01ED921C7653D000A6B73AEA643A7B9C066FB7D93EB2EAE8ACC2D9 DUP12 CALLER DUP13 DUP13 DUP13 TIMESTAMP PUSH1 0x40 MLOAD PUSH2 0x935 SWAP7 SWAP6 SWAP5 SWAP4 SWAP3 SWAP2 SWAP1 PUSH2 0x161B JUMP JUMPDEST PUSH1 0x40 MLOAD DUP1 SWAP2 SUB SWAP1 LOG1 POP POP POP POP POP POP POP POP POP POP POP JUMP JUMPDEST DUP3 DUP3 PUSH1 0x1 DUP1 PUSH1 0x0 DUP5 PUSH20 0xFFFFFFFFFFFFFFFFFFFFFFFFFFFFFFFFFFFFFFFF AND PUSH20 0xFFFFFFFFFFFFFFFFFFFFFFFFFFFFFFFFFFFFFFFF AND DUP2 MSTORE PUSH1 0x20 ADD SWAP1 DUP2 MSTORE PUSH1 0x20 ADD PUSH1 0x0 KECCAK256 PUSH1 0x0 DUP4 DUP2 MSTORE PUSH1 0x20 ADD SWAP1 DUP2 MSTORE PUSH1 0x20 ADD PUSH1 0x0 KECCAK256 SLOAD EQ PUSH2 0x9DE JUMPI PUSH1 0x40 MLOAD PUSH32 0x8C379A000000000000000000000000000000000000000000000000000000000 DUP2 MSTORE PUSH1 0x4 ADD PUSH2 0x9D5 SWAP1 PUSH2 0x178A JUMP JUMPDEST PUSH1 0x40 MLOAD DUP1 SWAP2 SUB SWAP1 REVERT JUMPDEST DUP3 PUSH1 0x0 DUP2 GT PUSH2 0xA22 JUMPI PUSH1 0x40 MLOAD PUSH32 0x8C379A000000000000000000000000000000000000000000000000000000000 DUP2 MSTORE PUSH1 0x4 ADD PUSH2 0xA19 SWAP1 PUSH2 0x176A JUMP JUMPDEST PUSH1 0x40 MLOAD DUP1 SWAP2 SUB SWAP1 REVERT JUMPDEST DUP6 DUP6 DUP6 PUSH1 0x0 DUP1 DUP5 PUSH20 0xFFFFFFFFFFFFFFFFFFFFFFFFFFFFFFFFFFFFFFFF AND PUSH20 0xFFFFFFFFFFFFFFFFFFFFFFFFFFFFFFFFFFFFFFFF AND DUP2 MSTORE PUSH1 0x20 ADD SWAP1 DUP2 MSTORE PUSH1 0x20 ADD PUSH1 0x0 KECCAK256 PUSH1 0x0 DUP4 DUP2 MSTORE PUSH1 0x20 ADD SWAP1 DUP2 MSTORE PUSH1 0x20 ADD PUSH1 0x0 KECCAK256 PUSH1 0x3 ADD SLOAD DUP2 LT ISZERO PUSH2 0xABA JUMPI PUSH1 0x40 MLOAD PUSH32 0x8C379A000000000000000000000000000000000000000000000000000000000 DUP2 MSTORE PUSH1 0x4 ADD PUSH2 0xAB1 SWAP1 PUSH2 0x180A JUMP JUMPDEST PUSH1 0x40 MLOAD DUP1 SWAP2 SUB SWAP1 REVERT JUMPDEST DUP9 PUSH20 0xFFFFFFFFFFFFFFFFFFFFFFFFFFFFFFFFFFFFFFFF AND PUSH4 0x42842E0E ADDRESS CALLER DUP12 PUSH1 0x40 MLOAD DUP5 PUSH4 0xFFFFFFFF AND PUSH1 0xE0 SHL DUP2 MSTORE PUSH1 0x4 ADD PUSH2 0xAF7 SWAP4 SWAP3 SWAP2 SWAP1 PUSH2 0x167C JUMP JUMPDEST PUSH1 0x0 PUSH1 0x40 MLOAD DUP1 DUP4 SUB DUP2 PUSH1 0x0 DUP8 DUP1 EXTCODESIZE ISZERO DUP1 ISZERO PUSH2 0xB11 JUMPI PUSH1 0x0 DUP1 REVERT JUMPDEST POP GAS CALL ISZERO DUP1 ISZERO PUSH2 0xB25 JUMPI RETURNDATASIZE PUSH1 0x0 DUP1 RETURNDATACOPY RETURNDATASIZE PUSH1 0x0 REVERT JUMPDEST POP POP POP POP PUSH1 0x0 PUSH1 0x1 PUSH1 0x0 DUP12 PUSH20 0xFFFFFFFFFFFFFFFFFFFFFFFFFFFFFFFFFFFFFFFF AND PUSH20 0xFFFFFFFFFFFFFFFFFFFFFFFFFFFFFFFFFFFFFFFF AND DUP2 MSTORE PUSH1 0x20 ADD SWAP1 DUP2 MSTORE PUSH1 0x20 ADD PUSH1 0x0 KECCAK256 PUSH1 0x0 DUP11 DUP2 MSTORE PUSH1 0x20 ADD SWAP1 DUP2 MSTORE PUSH1 0x20 ADD PUSH1 0x0 KECCAK256 DUP2 SWAP1 SSTORE POP CALLER PUSH1 0x0 DUP1 DUP12 PUSH20 0xFFFFFFFFFFFFFFFFFFFFFFFFFFFFFFFFFFFFFFFF AND PUSH20 0xFFFFFFFFFFFFFFFFFFFFFFFFFFFFFFFFFFFFFFFF AND DUP2 MSTORE PUSH1 0x20 ADD SWAP1 DUP2 MSTORE PUSH1 0x20 ADD PUSH1 0x0 KECCAK256 PUSH1 0x0 DUP11 DUP2 MSTORE PUSH1 0x20 ADD SWAP1 DUP2 MSTORE PUSH1 0x20 ADD PUSH1 0x0 KECCAK256 PUSH1 0x1 ADD PUSH1 0x0 PUSH2 0x100 EXP DUP2 SLOAD DUP2 PUSH20 0xFFFFFFFFFFFFFFFFFFFFFFFFFFFFFFFFFFFFFFFF MUL NOT AND SWAP1 DUP4 PUSH20 0xFFFFFFFFFFFFFFFFFFFFFFFFFFFFFFFFFFFFFFFF AND MUL OR SWAP1 SSTORE POP PUSH2 0xD51 PUSH1 0x0 DUP1 DUP12 PUSH20 0xFFFFFFFFFFFFFFFFFFFFFFFFFFFFFFFFFFFFFFFF AND PUSH20 0xFFFFFFFFFFFFFFFFFFFFFFFFFFFFFFFFFFFFFFFF AND DUP2 MSTORE PUSH1 0x20 ADD SWAP1 DUP2 MSTORE PUSH1 0x20 ADD PUSH1 0x0 KECCAK256 PUSH1 0x0 DUP11 DUP2 MSTORE PUSH1 0x20 ADD SWAP1 DUP2 MSTORE PUSH1 0x20 ADD PUSH1 0x0 KECCAK256 PUSH1 0x0 ADD PUSH1 0x0 SWAP1 SLOAD SWAP1 PUSH2 0x100 EXP SWAP1 DIV PUSH20 0xFFFFFFFFFFFFFFFFFFFFFFFFFFFFFFFFFFFFFFFF AND PUSH1 0x0 DUP1 DUP13 PUSH20 0xFFFFFFFFFFFFFFFFFFFFFFFFFFFFFFFFFFFFFFFF AND PUSH20 0xFFFFFFFFFFFFFFFFFFFFFFFFFFFFFFFFFFFFFFFF AND DUP2 MSTORE PUSH1 0x20 ADD SWAP1 DUP2 MSTORE PUSH1 0x20 ADD PUSH1 0x0 KECCAK256 PUSH1 0x0 DUP12 DUP2 MSTORE PUSH1 0x20 ADD SWAP1 DUP2 MSTORE PUSH1 0x20 ADD PUSH1 0x0 KECCAK256 PUSH1 0x2 ADD PUSH1 0x0 SWAP1 SLOAD SWAP1 PUSH2 0x100 EXP SWAP1 DIV PUSH20 0xFFFFFFFFFFFFFFFFFFFFFFFFFFFFFFFFFFFFFFFF AND PUSH1 0x0 DUP1 DUP14 PUSH20 0xFFFFFFFFFFFFFFFFFFFFFFFFFFFFFFFFFFFFFFFF AND PUSH20 0xFFFFFFFFFFFFFFFFFFFFFFFFFFFFFFFFFFFFFFFF AND DUP2 MSTORE PUSH1 0x20 ADD SWAP1 DUP2 MSTORE PUSH1 0x20 ADD PUSH1 0x0 KECCAK256 PUSH1 0x0 DUP13 DUP2 MSTORE PUSH1 0x20 ADD SWAP1 DUP2 MSTORE PUSH1 0x20 ADD PUSH1 0x0 KECCAK256 PUSH1 0x3 ADD SLOAD PUSH2 0x1017 JUMP JUMPDEST PUSH32 0x9FA3B1BB9266E05722B54A7A564D02A274BC80D39F4AF21E6BE405480996CEBA DUP10 CALLER DUP11 DUP11 PUSH1 0x40 MLOAD PUSH2 0xD86 SWAP5 SWAP4 SWAP3 SWAP2 SWAP1 PUSH2 0x16B3 JUMP JUMPDEST PUSH1 0x40 MLOAD DUP1 SWAP2 SUB SWAP1 LOG1 POP POP POP POP POP POP POP POP POP JUMP JUMPDEST DUP2 DUP2 PUSH1 0x1 DUP1 PUSH1 0x0 DUP5 PUSH20 0xFFFFFFFFFFFFFFFFFFFFFFFFFFFFFFFFFFFFFFFF AND PUSH20 0xFFFFFFFFFFFFFFFFFFFFFFFFFFFFFFFFFFFFFFFF AND DUP2 MSTORE PUSH1 0x20 ADD SWAP1 DUP2 MSTORE PUSH1 0x20 ADD PUSH1 0x0 KECCAK256 PUSH1 0x0 DUP4 DUP2 MSTORE PUSH1 0x20 ADD SWAP1 DUP2 MSTORE PUSH1 0x20 ADD PUSH1 0x0 KECCAK256 SLOAD EQ PUSH2 0xE2D JUMPI PUSH1 0x40 MLOAD PUSH32 0x8C379A000000000000000000000000000000000000000000000000000000000 DUP2 MSTORE PUSH1 0x4 ADD PUSH2 0xE24 SWAP1 PUSH2 0x178A JUMP JUMPDEST PUSH1 0x40 MLOAD DUP1 SWAP2 SUB SWAP1 REVERT JUMPDEST DUP4 DUP4 PUSH1 0x0 DUP1 DUP4 PUSH20 0xFFFFFFFFFFFFFFFFFFFFFFFFFFFFFFFFFFFFFFFF AND PUSH20 0xFFFFFFFFFFFFFFFFFFFFFFFFFFFFFFFFFFFFFFFF AND DUP2 MSTORE PUSH1 0x20 ADD SWAP1 DUP2 MSTORE PUSH1 0x20 ADD PUSH1 0x0 KECCAK256 PUSH1 0x0 DUP3 DUP2 MSTORE PUSH1 0x20 ADD SWAP1 DUP2 MSTORE PUSH1 0x20 ADD PUSH1 0x0 KECCAK256 PUSH1 0x0 ADD PUSH1 0x0 SWAP1 SLOAD SWAP1 PUSH2 0x100 EXP SWAP1 DIV PUSH20 0xFFFFFFFFFFFFFFFFFFFFFFFFFFFFFFFFFFFFFFFF AND PUSH20 0xFFFFFFFFFFFFFFFFFFFFFFFFFFFFFFFFFFFFFFFF AND CALLER PUSH20 0xFFFFFFFFFFFFFFFFFFFFFFFFFFFFFFFFFFFFFFFF AND EQ PUSH2 0xF0F JUMPI PUSH1 0x40 MLOAD PUSH32 0x8C379A000000000000000000000000000000000000000000000000000000000 DUP2 MSTORE PUSH1 0x4 ADD PUSH2 0xF06 SWAP1 PUSH2 0x17EA JUMP JUMPDEST PUSH1 0x40 MLOAD DUP1 SWAP2 SUB SWAP1 REVERT JUMPDEST DUP6 PUSH20 0xFFFFFFFFFFFFFFFFFFFFFFFFFFFFFFFFFFFFFFFF AND PUSH4 0x42842E0E ADDRESS CALLER DUP9 PUSH1 0x40 MLOAD DUP5 PUSH4 0xFFFFFFFF AND PUSH1 0xE0 SHL DUP2 MSTORE PUSH1 0x4 ADD PUSH2 0xF4C SWAP4 SWAP3 SWAP2 SWAP1 PUSH2 0x167C JUMP JUMPDEST PUSH1 0x0 PUSH1 0x40 MLOAD DUP1 DUP4 SUB DUP2 PUSH1 0x0 DUP8 DUP1 EXTCODESIZE ISZERO DUP1 ISZERO PUSH2 0xF66 JUMPI PUSH1 0x0 DUP1 REVERT JUMPDEST POP GAS CALL ISZERO DUP1 ISZERO PUSH2 0xF7A JUMPI RETURNDATASIZE PUSH1 0x0 DUP1 RETURNDATACOPY RETURNDATASIZE PUSH1 0x0 REVERT JUMPDEST POP POP POP POP PUSH1 0x0 PUSH1 0x1 PUSH1 0x0 DUP9 PUSH20 0xFFFFFFFFFFFFFFFFFFFFFFFFFFFFFFFFFFFFFFFF AND PUSH20 0xFFFFFFFFFFFFFFFFFFFFFFFFFFFFFFFFFFFFFFFF AND DUP2 MSTORE PUSH1 0x20 ADD SWAP1 DUP2 MSTORE PUSH1 0x20 ADD PUSH1 0x0 KECCAK256 PUSH1 0x0 DUP8 DUP2 MSTORE PUSH1 0x20 ADD SWAP1 DUP2 MSTORE PUSH1 0x20 ADD PUSH1 0x0 KECCAK256 DUP2 SWAP1 SSTORE POP PUSH32 0xD7348FF00CF381A884144B50B3441398A48A7974EC349287DF80E18CEC9F5A31 DUP7 CALLER DUP8 PUSH1 0x40 MLOAD PUSH2 0x1007 SWAP4 SWAP3 SWAP2 SWAP1 PUSH2 0x167C JUMP JUMPDEST PUSH1 0x40 MLOAD DUP1 SWAP2 SUB SWAP1 LOG1 POP POP POP POP POP POP JUMP JUMPDEST PUSH1 0x0 PUSH20 0xFFFFFFFFFFFFFFFFFFFFFFFFFFFFFFFFFFFFFFFF AND DUP3 PUSH20 0xFFFFFFFFFFFFFFFFFFFFFFFFFFFFFFFFFFFFFFFF AND EQ PUSH2 0x105B JUMPI PUSH2 0x1056 DUP4 DUP4 DUP4 PUSH2 0x106B JUMP JUMPDEST PUSH2 0x1066 JUMP JUMPDEST PUSH2 0x1065 DUP4 DUP3 PUSH2 0x113E JUMP JUMPDEST JUMPDEST POP POP POP JUMP JUMPDEST DUP2 PUSH20 0xFFFFFFFFFFFFFFFFFFFFFFFFFFFFFFFFFFFFFFFF AND PUSH4 0x23B872DD CALLER DUP6 DUP5 PUSH1 0x40 MLOAD DUP5 PUSH4 0xFFFFFFFF AND PUSH1 0xE0 SHL DUP2 MSTORE PUSH1 0x4 ADD PUSH2 0x10A8 SWAP4 SWAP3 SWAP2 SWAP1 PUSH2 0x167C JUMP JUMPDEST PUSH1 0x20 PUSH1 0x40 MLOAD DUP1 DUP4 SUB DUP2 PUSH1 0x0 DUP8 DUP1 EXTCODESIZE ISZERO DUP1 ISZERO PUSH2 0x10C2 JUMPI PUSH1 0x0 DUP1 REVERT JUMPDEST POP GAS CALL ISZERO DUP1 ISZERO PUSH2 0x10D6 JUMPI RETURNDATASIZE PUSH1 0x0 DUP1 RETURNDATACOPY RETURNDATASIZE PUSH1 0x0 REVERT JUMPDEST POP POP POP POP PUSH1 0x40 MLOAD RETURNDATASIZE PUSH1 0x1F NOT PUSH1 0x1F DUP3 ADD AND DUP3 ADD DUP1 PUSH1 0x40 MSTORE POP DUP2 ADD SWAP1 PUSH2 0x10FA SWAP2 SWAP1 PUSH2 0x1448 JUMP JUMPDEST PUSH2 0x1139 JUMPI PUSH1 0x40 MLOAD PUSH32 0x8C379A000000000000000000000000000000000000000000000000000000000 DUP2 MSTORE PUSH1 0x4 ADD PUSH2 0x1130 SWAP1 PUSH2 0x17CA JUMP JUMPDEST PUSH1 0x40 MLOAD DUP1 SWAP2 SUB SWAP1 REVERT JUMPDEST POP POP POP JUMP JUMPDEST PUSH1 0x0 DUP3 PUSH20 0xFFFFFFFFFFFFFFFFFFFFFFFFFFFFFFFFFFFFFFFF AND DUP3 PUSH1 0x40 MLOAD PUSH2 0x1164 SWAP1 PUSH2 0x15DD JUMP JUMPDEST PUSH1 0x0 PUSH1 0x40 MLOAD DUP1 DUP4 SUB DUP2 DUP6 DUP8 GAS CALL SWAP3 POP POP POP RETURNDATASIZE DUP1 PUSH1 0x0 DUP2 EQ PUSH2 0x11A1 JUMPI PUSH1 0x40 MLOAD SWAP2 POP PUSH1 0x1F NOT PUSH1 0x3F RETURNDATASIZE ADD AND DUP3 ADD PUSH1 0x40 MSTORE RETURNDATASIZE DUP3 MSTORE RETURNDATASIZE PUSH1 0x0 PUSH1 0x20 DUP5 ADD RETURNDATACOPY PUSH2 0x11A6 JUMP JUMPDEST PUSH1 0x60 SWAP2 POP JUMPDEST POP POP SWAP1 POP DUP1 PUSH2 0x11EA JUMPI PUSH1 0x40 MLOAD PUSH32 0x8C379A000000000000000000000000000000000000000000000000000000000 DUP2 MSTORE PUSH1 0x4 ADD PUSH2 0x11E1 SWAP1 PUSH2 0x182A JUMP JUMPDEST PUSH1 0x40 MLOAD DUP1 SWAP2 SUB SWAP1 REVERT JUMPDEST POP POP POP JUMP JUMPDEST PUSH1 0x0 DUP2 CALLDATALOAD SWAP1 POP PUSH2 0x11FE DUP2 PUSH2 0x1A59 JUMP JUMPDEST SWAP3 SWAP2 POP POP JUMP JUMPDEST PUSH1 0x0 DUP2 MLOAD SWAP1 POP PUSH2 0x1213 DUP2 PUSH2 0x1A59 JUMP JUMPDEST SWAP3 SWAP2 POP POP JUMP JUMPDEST PUSH1 0x0 DUP2 MLOAD SWAP1 POP PUSH2 0x1228 DUP2 PUSH2 0x1A70 JUMP JUMPDEST SWAP3 SWAP2 POP POP JUMP JUMPDEST PUSH1 0x0 DUP1 DUP4 PUSH1 0x1F DUP5 ADD SLT PUSH2 0x1244 JUMPI PUSH2 0x1243 PUSH2 0x18FA JUMP JUMPDEST JUMPDEST DUP3 CALLDATALOAD SWAP1 POP PUSH8 0xFFFFFFFFFFFFFFFF DUP2 GT ISZERO PUSH2 0x1261 JUMPI PUSH2 0x1260 PUSH2 0x18F5 JUMP JUMPDEST JUMPDEST PUSH1 0x20 DUP4 ADD SWAP2 POP DUP4 PUSH1 0x1 DUP3 MUL DUP4 ADD GT ISZERO PUSH2 0x127D JUMPI PUSH2 0x127C PUSH2 0x18FF JUMP JUMPDEST JUMPDEST SWAP3 POP SWAP3 SWAP1 POP JUMP JUMPDEST PUSH1 0x0 DUP2 CALLDATALOAD SWAP1 POP PUSH2 0x1293 DUP2 PUSH2 0x1A87 JUMP JUMPDEST SWAP3 SWAP2 POP POP JUMP JUMPDEST PUSH1 0x0 PUSH1 0x20 DUP3 DUP5 SUB SLT ISZERO PUSH2 0x12AF JUMPI PUSH2 0x12AE PUSH2 0x1909 JUMP JUMPDEST JUMPDEST PUSH1 0x0 PUSH2 0x12BD DUP5 DUP3 DUP6 ADD PUSH2 0x1204 JUMP JUMPDEST SWAP2 POP POP SWAP3 SWAP2 POP POP JUMP JUMPDEST PUSH1 0x0 DUP1 PUSH1 0x0 DUP1 PUSH1 0x0 PUSH1 0x80 DUP7 DUP9 SUB SLT ISZERO PUSH2 0x12E2 JUMPI PUSH2 0x12E1 PUSH2 0x1909 JUMP JUMPDEST JUMPDEST PUSH1 0x0 PUSH2 0x12F0 DUP9 DUP3 DUP10 ADD PUSH2 0x11EF JUMP JUMPDEST SWAP6 POP POP PUSH1 0x20 PUSH2 0x1301 DUP9 DUP3 DUP10 ADD PUSH2 0x11EF JUMP JUMPDEST SWAP5 POP POP PUSH1 0x40 PUSH2 0x1312 DUP9 DUP3 DUP10 ADD PUSH2 0x1284 JUMP JUMPDEST SWAP4 POP POP PUSH1 0x60 DUP7 ADD CALLDATALOAD PUSH8 0xFFFFFFFFFFFFFFFF DUP2 GT ISZERO PUSH2 0x1333 JUMPI PUSH2 0x1332 PUSH2 0x1904 JUMP JUMPDEST JUMPDEST PUSH2 0x133F DUP9 DUP3 DUP10 ADD PUSH2 0x122E JUMP JUMPDEST SWAP3 POP SWAP3 POP POP SWAP3 SWAP6 POP SWAP3 SWAP6 SWAP1 SWAP4 POP JUMP JUMPDEST PUSH1 0x0 DUP1 PUSH1 0x0 DUP1 PUSH1 0x80 DUP6 DUP8 SUB SLT ISZERO PUSH2 0x1368 JUMPI PUSH2 0x1367 PUSH2 0x1909 JUMP JUMPDEST JUMPDEST PUSH1 0x0 PUSH2 0x1376 DUP8 DUP3 DUP9 ADD PUSH2 0x11EF JUMP JUMPDEST SWAP5 POP POP PUSH1 0x20 PUSH2 0x1387 DUP8 DUP3 DUP9 ADD PUSH2 0x11EF JUMP JUMPDEST SWAP4 POP POP PUSH1 0x40 PUSH2 0x1398 DUP8 DUP3 DUP9 ADD PUSH2 0x1284 JUMP JUMPDEST SWAP3 POP POP PUSH1 0x60 PUSH2 0x13A9 DUP8 DUP3 DUP9 ADD PUSH2 0x1284 JUMP JUMPDEST SWAP2 POP POP SWAP3 SWAP6 SWAP2 SWAP5 POP SWAP3 POP JUMP JUMPDEST PUSH1 0x0 DUP1 PUSH1 0x40 DUP4 DUP6 SUB SLT ISZERO PUSH2 0x13CC JUMPI PUSH2 0x13CB PUSH2 0x1909 JUMP JUMPDEST JUMPDEST PUSH1 0x0 PUSH2 0x13DA DUP6 DUP3 DUP7 ADD PUSH2 0x11EF JUMP JUMPDEST SWAP3 POP POP PUSH1 0x20 PUSH2 0x13EB DUP6 DUP3 DUP7 ADD PUSH2 0x1284 JUMP JUMPDEST SWAP2 POP POP SWAP3 POP SWAP3 SWAP1 POP JUMP JUMPDEST PUSH1 0x0 DUP1 PUSH1 0x0 PUSH1 0x60 DUP5 DUP7 SUB SLT ISZERO PUSH2 0x140E JUMPI PUSH2 0x140D PUSH2 0x1909 JUMP JUMPDEST JUMPDEST PUSH1 0x0 PUSH2 0x141C DUP7 DUP3 DUP8 ADD PUSH2 0x11EF JUMP JUMPDEST SWAP4 POP POP PUSH1 0x20 PUSH2 0x142D DUP7 DUP3 DUP8 ADD PUSH2 0x1284 JUMP JUMPDEST SWAP3 POP POP PUSH1 0x40 PUSH2 0x143E DUP7 DUP3 DUP8 ADD PUSH2 0x1284 JUMP JUMPDEST SWAP2 POP POP SWAP3 POP SWAP3 POP SWAP3 JUMP JUMPDEST PUSH1 0x0 PUSH1 0x20 DUP3 DUP5 SUB SLT ISZERO PUSH2 0x145E JUMPI PUSH2 0x145D PUSH2 0x1909 JUMP JUMPDEST JUMPDEST PUSH1 0x0 PUSH2 0x146C DUP5 DUP3 DUP6 ADD PUSH2 0x1219 JUMP JUMPDEST SWAP2 POP POP SWAP3 SWAP2 POP POP JUMP JUMPDEST PUSH2 0x147E DUP2 PUSH2 0x1881 JUMP JUMPDEST DUP3 MSTORE POP POP JUMP JUMPDEST PUSH2 0x148D DUP2 PUSH2 0x189F JUMP JUMPDEST DUP3 MSTORE POP POP JUMP JUMPDEST PUSH1 0x0 PUSH2 0x14A0 PUSH1 0x1C DUP4 PUSH2 0x1870 JUMP JUMPDEST SWAP2 POP PUSH2 0x14AB DUP3 PUSH2 0x190E JUMP JUMPDEST PUSH1 0x20 DUP3 ADD SWAP1 POP SWAP2 SWAP1 POP JUMP JUMPDEST PUSH1 0x0 PUSH2 0x14C3 PUSH1 0x11 DUP4 PUSH2 0x1870 JUMP JUMPDEST SWAP2 POP PUSH2 0x14CE DUP3 PUSH2 0x1937 JUMP JUMPDEST PUSH1 0x20 DUP3 ADD SWAP1 POP SWAP2 SWAP1 POP JUMP JUMPDEST PUSH1 0x0 PUSH2 0x14E6 PUSH1 0x15 DUP4 PUSH2 0x1870 JUMP JUMPDEST SWAP2 POP PUSH2 0x14F1 DUP3 PUSH2 0x1960 JUMP JUMPDEST PUSH1 0x20 DUP3 ADD SWAP1 POP SWAP2 SWAP1 POP JUMP JUMPDEST PUSH1 0x0 PUSH2 0x1509 PUSH1 0x13 DUP4 PUSH2 0x1870 JUMP JUMPDEST SWAP2 POP PUSH2 0x1514 DUP3 PUSH2 0x1989 JUMP JUMPDEST PUSH1 0x20 DUP3 ADD SWAP1 POP SWAP2 SWAP1 POP JUMP JUMPDEST PUSH1 0x0 PUSH2 0x152C PUSH1 0x14 DUP4 PUSH2 0x1870 JUMP JUMPDEST SWAP2 POP PUSH2 0x1537 DUP3 PUSH2 0x19B2 JUMP JUMPDEST PUSH1 0x20 DUP3 ADD SWAP1 POP SWAP2 SWAP1 POP JUMP JUMPDEST PUSH1 0x0 PUSH2 0x154F PUSH1 0x15 DUP4 PUSH2 0x1870 JUMP JUMPDEST SWAP2 POP PUSH2 0x155A DUP3 PUSH2 0x19DB JUMP JUMPDEST PUSH1 0x20 DUP3 ADD SWAP1 POP SWAP2 SWAP1 POP JUMP JUMPDEST PUSH1 0x0 PUSH2 0x1572 PUSH1 0x0 DUP4 PUSH2 0x1865 JUMP JUMPDEST SWAP2 POP PUSH2 0x157D DUP3 PUSH2 0x1A04 JUMP JUMPDEST PUSH1 0x0 DUP3 ADD SWAP1 POP SWAP2 SWAP1 POP JUMP JUMPDEST PUSH1 0x0 PUSH2 0x1595 PUSH1 0x14 DUP4 PUSH2 0x1870 JUMP JUMPDEST SWAP2 POP PUSH2 0x15A0 DUP3 PUSH2 0x1A07 JUMP JUMPDEST PUSH1 0x20 DUP3 ADD SWAP1 POP SWAP2 SWAP1 POP JUMP JUMPDEST PUSH1 0x0 PUSH2 0x15B8 PUSH1 0xD DUP4 PUSH2 0x1870 JUMP JUMPDEST SWAP2 POP PUSH2 0x15C3 DUP3 PUSH2 0x1A30 JUMP JUMPDEST PUSH1 0x20 DUP3 ADD SWAP1 POP SWAP2 SWAP1 POP JUMP JUMPDEST PUSH2 0x15D7 DUP2 PUSH2 0x18EB JUMP JUMPDEST DUP3 MSTORE POP POP JUMP JUMPDEST PUSH1 0x0 PUSH2 0x15E8 DUP3 PUSH2 0x1565 JUMP JUMPDEST SWAP2 POP DUP2 SWAP1 POP SWAP2 SWAP1 POP JUMP JUMPDEST PUSH1 0x0 PUSH1 0x40 DUP3 ADD SWAP1 POP PUSH2 0x1607 PUSH1 0x0 DUP4 ADD DUP6 PUSH2 0x1475 JUMP JUMPDEST PUSH2 0x1614 PUSH1 0x20 DUP4 ADD DUP5 PUSH2 0x1475 JUMP JUMPDEST SWAP4 SWAP3 POP POP POP JUMP JUMPDEST PUSH1 0x0 PUSH1 0xC0 DUP3 ADD SWAP1 POP PUSH2 0x1630 PUSH1 0x0 DUP4 ADD DUP10 PUSH2 0x1475 JUMP JUMPDEST PUSH2 0x163D PUSH1 0x20 DUP4 ADD DUP9 PUSH2 0x1475 JUMP JUMPDEST PUSH2 0x164A PUSH1 0x40 DUP4 ADD DUP8 PUSH2 0x1475 JUMP JUMPDEST PUSH2 0x1657 PUSH1 0x60 DUP4 ADD DUP7 PUSH2 0x15CE JUMP JUMPDEST PUSH2 0x1664 PUSH1 0x80 DUP4 ADD DUP6 PUSH2 0x15CE JUMP JUMPDEST PUSH2 0x1671 PUSH1 0xA0 DUP4 ADD DUP5 PUSH2 0x15CE JUMP JUMPDEST SWAP8 SWAP7 POP POP POP POP POP POP POP JUMP JUMPDEST PUSH1 0x0 PUSH1 0x60 DUP3 ADD SWAP1 POP PUSH2 0x1691 PUSH1 0x0 DUP4 ADD DUP7 PUSH2 0x1475 JUMP JUMPDEST PUSH2 0x169E PUSH1 0x20 DUP4 ADD DUP6 PUSH2 0x1475 JUMP JUMPDEST PUSH2 0x16AB PUSH1 0x40 DUP4 ADD DUP5 PUSH2 0x15CE JUMP JUMPDEST SWAP5 SWAP4 POP POP POP POP JUMP JUMPDEST PUSH1 0x0 PUSH1 0x80 DUP3 ADD SWAP1 POP PUSH2 0x16C8 PUSH1 0x0 DUP4 ADD DUP8 PUSH2 0x1475 JUMP JUMPDEST PUSH2 0x16D5 PUSH1 0x20 DUP4 ADD DUP7 PUSH2 0x1475 JUMP JUMPDEST PUSH2 0x16E2 PUSH1 0x40 DUP4 ADD DUP6 PUSH2 0x15CE JUMP JUMPDEST PUSH2 0x16EF PUSH1 0x60 DUP4 ADD DUP5 PUSH2 0x15CE JUMP JUMPDEST SWAP6 SWAP5 POP POP POP POP POP JUMP JUMPDEST PUSH1 0x0 PUSH1 0x60 DUP3 ADD SWAP1 POP PUSH2 0x170D PUSH1 0x0 DUP4 ADD DUP7 PUSH2 0x1475 JUMP JUMPDEST PUSH2 0x171A PUSH1 0x20 DUP4 ADD DUP6 PUSH2 0x15CE JUMP JUMPDEST PUSH2 0x1727 PUSH1 0x40 DUP4 ADD DUP5 PUSH2 0x15CE JUMP JUMPDEST SWAP5 SWAP4 POP POP POP POP JUMP JUMPDEST PUSH1 0x0 PUSH1 0x20 DUP3 ADD SWAP1 POP PUSH2 0x1744 PUSH1 0x0 DUP4 ADD DUP5 PUSH2 0x1484 JUMP JUMPDEST SWAP3 SWAP2 POP POP JUMP JUMPDEST PUSH1 0x0 PUSH1 0x20 DUP3 ADD SWAP1 POP DUP2 DUP2 SUB PUSH1 0x0 DUP4 ADD MSTORE PUSH2 0x1763 DUP2 PUSH2 0x1493 JUMP JUMPDEST SWAP1 POP SWAP2 SWAP1 POP JUMP JUMPDEST PUSH1 0x0 PUSH1 0x20 DUP3 ADD SWAP1 POP DUP2 DUP2 SUB PUSH1 0x0 DUP4 ADD MSTORE PUSH2 0x1783 DUP2 PUSH2 0x14B6 JUMP JUMPDEST SWAP1 POP SWAP2 SWAP1 POP JUMP JUMPDEST PUSH1 0x0 PUSH1 0x20 DUP3 ADD SWAP1 POP DUP2 DUP2 SUB PUSH1 0x0 DUP4 ADD MSTORE PUSH2 0x17A3 DUP2 PUSH2 0x14D9 JUMP JUMPDEST SWAP1 POP SWAP2 SWAP1 POP JUMP JUMPDEST PUSH1 0x0 PUSH1 0x20 DUP3 ADD SWAP1 POP DUP2 DUP2 SUB PUSH1 0x0 DUP4 ADD MSTORE PUSH2 0x17C3 DUP2 PUSH2 0x14FC JUMP JUMPDEST SWAP1 POP SWAP2 SWAP1 POP JUMP JUMPDEST PUSH1 0x0 PUSH1 0x20 DUP3 ADD SWAP1 POP DUP2 DUP2 SUB PUSH1 0x0 DUP4 ADD MSTORE PUSH2 0x17E3 DUP2 PUSH2 0x151F JUMP JUMPDEST SWAP1 POP SWAP2 SWAP1 POP JUMP JUMPDEST PUSH1 0x0 PUSH1 0x20 DUP3 ADD SWAP1 POP DUP2 DUP2 SUB PUSH1 0x0 DUP4 ADD MSTORE PUSH2 0x1803 DUP2 PUSH2 0x1542 JUMP JUMPDEST SWAP1 POP SWAP2 SWAP1 POP JUMP JUMPDEST PUSH1 0x0 PUSH1 0x20 DUP3 ADD SWAP1 POP DUP2 DUP2 SUB PUSH1 0x0 DUP4 ADD MSTORE PUSH2 0x1823 DUP2 PUSH2 0x1588 JUMP JUMPDEST SWAP1 POP SWAP2 SWAP1 POP JUMP JUMPDEST PUSH1 0x0 PUSH1 0x20 DUP3 ADD SWAP1 POP DUP2 DUP2 SUB PUSH1 0x0 DUP4 ADD MSTORE PUSH2 0x1843 DUP2 PUSH2 0x15AB JUMP JUMPDEST SWAP1 POP SWAP2 SWAP1 POP JUMP JUMPDEST PUSH1 0x0 PUSH1 0x20 DUP3 ADD SWAP1 POP PUSH2 0x185F PUSH1 0x0 DUP4 ADD DUP5 PUSH2 0x15CE JUMP JUMPDEST SWAP3 SWAP2 POP POP JUMP JUMPDEST PUSH1 0x0 DUP2 SWAP1 POP SWAP3 SWAP2 POP POP JUMP JUMPDEST PUSH1 0x0 DUP3 DUP3 MSTORE PUSH1 0x20 DUP3 ADD SWAP1 POP SWAP3 SWAP2 POP POP JUMP JUMPDEST PUSH1 0x0 PUSH2 0x188C DUP3 PUSH2 0x18CB JUMP JUMPDEST SWAP1 POP SWAP2 SWAP1 POP JUMP JUMPDEST PUSH1 0x0 DUP2 ISZERO ISZERO SWAP1 POP SWAP2 SWAP1 POP JUMP JUMPDEST PUSH1 0x0 PUSH32 0xFFFFFFFF00000000000000000000000000000000000000000000000000000000 DUP3 AND SWAP1 POP SWAP2 SWAP1 POP JUMP JUMPDEST PUSH1 0x0 PUSH20 0xFFFFFFFFFFFFFFFFFFFFFFFFFFFFFFFFFFFFFFFF DUP3 AND SWAP1 POP SWAP2 SWAP1 POP JUMP JUMPDEST PUSH1 0x0 DUP2 SWAP1 POP SWAP2 SWAP1 POP JUMP JUMPDEST PUSH1 0x0 DUP1 REVERT JUMPDEST PUSH1 0x0 DUP1 REVERT JUMPDEST PUSH1 0x0 DUP1 REVERT JUMPDEST PUSH1 0x0 DUP1 REVERT JUMPDEST PUSH1 0x0 DUP1 REVERT JUMPDEST PUSH32 0x4E6674206E6F7420617070726F76656420746F20636F6E747261637400000000 PUSH1 0x0 DUP3 ADD MSTORE POP JUMP JUMPDEST PUSH32 0x50726963652063616E6E6F742062652030000000000000000000000000000000 PUSH1 0x0 DUP3 ADD MSTORE POP JUMP JUMPDEST PUSH32 0x4E6674206E6F7420696E2066697865642073616C650000000000000000000000 PUSH1 0x0 DUP3 ADD MSTORE POP JUMP JUMPDEST PUSH32 0x4E667420616C726561647920696E2073616C6500000000000000000000000000 PUSH1 0x0 DUP3 ADD MSTORE POP JUMP JUMPDEST PUSH32 0x616C6C6F77616E6365206E6F7420656E6F756768000000000000000000000000 PUSH1 0x0 DUP3 ADD MSTORE POP JUMP JUMPDEST PUSH32 0x596F7520617265206E6F74206E6674206F776E65720000000000000000000000 PUSH1 0x0 DUP3 ADD MSTORE POP JUMP JUMPDEST POP JUMP JUMPDEST PUSH32 0x627579205072696365206E6F7420656E6F756768000000000000000000000000 PUSH1 0x0 DUP3 ADD MSTORE POP JUMP JUMPDEST PUSH32 0x726566756E64206661696C656400000000000000000000000000000000000000 PUSH1 0x0 DUP3 ADD MSTORE POP JUMP JUMPDEST PUSH2 0x1A62 DUP2 PUSH2 0x1881 JUMP JUMPDEST DUP2 EQ PUSH2 0x1A6D JUMPI PUSH1 0x0 DUP1 REVERT JUMPDEST POP JUMP JUMPDEST PUSH2 0x1A79 DUP2 PUSH2 0x1893 JUMP JUMPDEST DUP2 EQ PUSH2 0x1A84 JUMPI PUSH1 0x0 DUP1 REVERT JUMPDEST POP JUMP JUMPDEST PUSH2 0x1A90 DUP2 PUSH2 0x18EB JUMP JUMPDEST DUP2 EQ PUSH2 0x1A9B JUMPI PUSH1 0x0 DUP1 REVERT JUMPDEST POP JUMP INVALID LOG2 PUSH5 0x6970667358 0x22 SLT KECCAK256 0xEB LOG0 SELFDESTRUCT 0xC7 SWAP14 ADD 0xD1 PUSH32 0x96B64BFB5E3C9AB4924265083004D488361DCAADEFE9C44D64736F6C63430008 SMOD STOP CALLER "
				},
				"gasEstimates": {
					"creation": {
						"codeDepositCost": "1373600",
						"executionCost": "1431",
						"totalCost": "1375031"
					},
					"external": {
						"buyFromFixedSale(address,uint256,uint256)": "infinite",
						"cancelFixedsale(address,uint256)": "infinite",
						"nftFixedSale(address,address,uint256,uint256)": "infinite",
						"nftSaleStatus(address,uint256)": "infinite",
						"onERC721Received(address,address,uint256,bytes)": "infinite",
						"updateFixedSalePrice(address,uint256,uint256)": "infinite"
					},
					"internal": {
						"_isTokenOrCoin(address,address,uint256)": "infinite",
						"_nativeAmountTransfer(address,uint256)": "infinite",
						"_tokenAmountTransfer(address,address,uint256)": "infinite"
					}
				},
				"methodIdentifiers": {
					"buyFromFixedSale(address,uint256,uint256)": "baf4371e",
					"cancelFixedsale(address,uint256)": "d3a6a6c9",
					"nftFixedSale(address,address,uint256,uint256)": "69a6d12e",
					"nftSaleStatus(address,uint256)": "6916462f",
					"onERC721Received(address,address,uint256,bytes)": "150b7a02",
					"updateFixedSalePrice(address,uint256,uint256)": "4676adca"
				}
			},
			"storageLayout": {
				"storage": [
					{
						"astId": 560,
						"contract": "NFT-Contracts/contracts/market_pri/market_place.sol:NFTMarketplace",
						"label": "nftContractFixedSale",
						"offset": 0,
						"slot": "0",
						"type": "t_mapping(t_address,t_mapping(t_uint256,t_struct(FixedSale)553_storage))"
					},
					{
						"astId": 566,
						"contract": "NFT-Contracts/contracts/market_pri/market_place.sol:NFTMarketplace",
						"label": "nftSaleStatus",
						"offset": 0,
						"slot": "1",
						"type": "t_mapping(t_address,t_mapping(t_uint256,t_uint256))"
					}
				],
				"types": {
					"t_address": {
						"encoding": "inplace",
						"label": "address",
						"numberOfBytes": "20"
					},
					"t_mapping(t_address,t_mapping(t_uint256,t_struct(FixedSale)553_storage))": {
						"encoding": "mapping",
						"key": "t_address",
						"label": "mapping(address => mapping(uint256 => struct NFTMarketplace.FixedSale))",
						"numberOfBytes": "32",
						"value": "t_mapping(t_uint256,t_struct(FixedSale)553_storage)"
					},
					"t_mapping(t_address,t_mapping(t_uint256,t_uint256))": {
						"encoding": "mapping",
						"key": "t_address",
						"label": "mapping(address => mapping(uint256 => uint256))",
						"numberOfBytes": "32",
						"value": "t_mapping(t_uint256,t_uint256)"
					},
					"t_mapping(t_uint256,t_struct(FixedSale)553_storage)": {
						"encoding": "mapping",
						"key": "t_uint256",
						"label": "mapping(uint256 => struct NFTMarketplace.FixedSale)",
						"numberOfBytes": "32",
						"value": "t_struct(FixedSale)553_storage"
					},
					"t_mapping(t_uint256,t_uint256)": {
						"encoding": "mapping",
						"key": "t_uint256",
						"label": "mapping(uint256 => uint256)",
						"numberOfBytes": "32",
						"value": "t_uint256"
					},
					"t_struct(FixedSale)553_storage": {
						"encoding": "inplace",
						"label": "struct NFTMarketplace.FixedSale",
						"members": [
							{
								"astId": 546,
								"contract": "NFT-Contracts/contracts/market_pri/market_place.sol:NFTMarketplace",
								"label": "nftSeller",
								"offset": 0,
								"slot": "0",
								"type": "t_address"
							},
							{
								"astId": 548,
								"contract": "NFT-Contracts/contracts/market_pri/market_place.sol:NFTMarketplace",
								"label": "nftBuyer",
								"offset": 0,
								"slot": "1",
								"type": "t_address"
							},
							{
								"astId": 550,
								"contract": "NFT-Contracts/contracts/market_pri/market_place.sol:NFTMarketplace",
								"label": "erc20",
								"offset": 0,
								"slot": "2",
								"type": "t_address"
							},
							{
								"astId": 552,
								"contract": "NFT-Contracts/contracts/market_pri/market_place.sol:NFTMarketplace",
								"label": "salePrice",
								"offset": 0,
								"slot": "3",
								"type": "t_uint256"
							}
						],
						"numberOfBytes": "128"
					},
					"t_uint256": {
						"encoding": "inplace",
						"label": "uint256",
						"numberOfBytes": "32"
					}
				}
			},
			"userdoc": {
				"kind": "user",
				"methods": {},
				"version": 1
			}
		}
	}
}