{
	"NFT-Contracts/contracts/market_pri/nft_market.sol": {
		"NFTMarketplace": {
			"abi": [
				{
					"anonymous": false,
					"inputs": [
						{
							"indexed": false,
							"internalType": "address",
							"name": "nftContractAddress",
							"type": "address"
						},
						{
							"indexed": false,
							"internalType": "address",
							"name": "nftSeller",
							"type": "address"
						},
						{
							"indexed": false,
							"internalType": "uint256",
							"name": "tokenId",
							"type": "uint256"
						}
					],
					"name": "CancelNftFixedSale",
					"type": "event"
				},
				{
					"anonymous": false,
					"inputs": [
						{
							"indexed": false,
							"internalType": "address",
							"name": "nftContractAddress",
							"type": "address"
						},
						{
							"indexed": false,
							"internalType": "address",
							"name": "nftBuyer",
							"type": "address"
						},
						{
							"indexed": false,
							"internalType": "uint256",
							"name": "tokenId",
							"type": "uint256"
						},
						{
							"indexed": false,
							"internalType": "uint256",
							"name": "nftBuyPrice",
							"type": "uint256"
						}
					],
					"name": "NftBuyFromFixedSale",
					"type": "event"
				},
				{
					"anonymous": false,
					"inputs": [
						{
							"indexed": false,
							"internalType": "address",
							"name": "nftContractAddress",
							"type": "address"
						},
						{
							"indexed": false,
							"internalType": "address",
							"name": "nftSeller",
							"type": "address"
						},
						{
							"indexed": false,
							"internalType": "address",
							"name": "erc20",
							"type": "address"
						},
						{
							"indexed": false,
							"internalType": "uint256",
							"name": "tokenId",
							"type": "uint256"
						},
						{
							"indexed": false,
							"internalType": "uint256",
							"name": "salePrice",
							"type": "uint256"
						},
						{
							"indexed": false,
							"internalType": "uint256",
							"name": "timeOfSale",
							"type": "uint256"
						}
					],
					"name": "NftFixedSale",
					"type": "event"
				},
				{
					"anonymous": false,
					"inputs": [
						{
							"indexed": false,
							"internalType": "address",
							"name": "nftContractAddress",
							"type": "address"
						},
						{
							"indexed": false,
							"internalType": "uint256",
							"name": "tokenId",
							"type": "uint256"
						},
						{
							"indexed": false,
							"internalType": "uint256",
							"name": "updateSalePrice",
							"type": "uint256"
						}
					],
					"name": "NftFixedSalePriceUpdated",
					"type": "event"
				},
				{
					"inputs": [
						{
							"internalType": "address",
							"name": "_nftContractAddress",
							"type": "address"
						},
						{
							"internalType": "uint256",
							"name": "_tokenId",
							"type": "uint256"
						},
						{
							"internalType": "uint256",
							"name": "_amount",
							"type": "uint256"
						}
					],
					"name": "buyFromFixedSale",
					"outputs": [],
					"stateMutability": "payable",
					"type": "function"
				},
				{
					"inputs": [
						{
							"internalType": "address",
							"name": "_nftContractAddress",
							"type": "address"
						},
						{
							"internalType": "uint256",
							"name": "_tokenId",
							"type": "uint256"
						}
					],
					"name": "cancelFixedsale",
					"outputs": [],
					"stateMutability": "nonpayable",
					"type": "function"
				},
				{
					"inputs": [
						{
							"internalType": "address",
							"name": "_nftContractAddress",
							"type": "address"
						},
						{
							"internalType": "uint256",
							"name": "_tokenId",
							"type": "uint256"
						}
					],
					"name": "getFixedSale",
					"outputs": [
						{
							"components": [
								{
									"internalType": "address",
									"name": "nftSeller",
									"type": "address"
								},
								{
									"internalType": "address",
									"name": "nftBuyer",
									"type": "address"
								},
								{
									"internalType": "address",
									"name": "erc20",
									"type": "address"
								},
								{
									"internalType": "uint256",
									"name": "salePrice",
									"type": "uint256"
								}
							],
							"internalType": "struct NFTMarketplace.FixedSale",
							"name": "",
							"type": "tuple"
						}
					],
					"stateMutability": "view",
					"type": "function"
				},
				{
					"inputs": [],
					"name": "getFixedSaleNFT",
					"outputs": [
						{
							"components": [
								{
									"internalType": "address",
									"name": "_nftContractAddress",
									"type": "address"
								},
								{
									"internalType": "uint256",
									"name": "_tokenID",
									"type": "uint256"
								}
							],
							"internalType": "struct NFTMarketplace.SaleInfo[]",
							"name": "",
							"type": "tuple[]"
						}
					],
					"stateMutability": "view",
					"type": "function"
				},
				{
					"inputs": [
						{
							"internalType": "address",
							"name": "_nftContractAddress",
							"type": "address"
						},
						{
							"internalType": "address",
							"name": "_erc20",
							"type": "address"
						},
						{
							"internalType": "uint256",
							"name": "_tokenId",
							"type": "uint256"
						},
						{
							"internalType": "uint256",
							"name": "_salePrice",
							"type": "uint256"
						}
					],
					"name": "nftFixedSale",
					"outputs": [],
					"stateMutability": "nonpayable",
					"type": "function"
				},
				{
					"inputs": [
						{
							"internalType": "address",
							"name": "",
							"type": "address"
						},
						{
							"internalType": "uint256",
							"name": "",
							"type": "uint256"
						}
					],
					"name": "nftSaleStatus",
					"outputs": [
						{
							"internalType": "uint256",
							"name": "",
							"type": "uint256"
						}
					],
					"stateMutability": "view",
					"type": "function"
				},
				{
					"inputs": [
						{
							"internalType": "address",
							"name": "",
							"type": "address"
						},
						{
							"internalType": "address",
							"name": "from",
							"type": "address"
						},
						{
							"internalType": "uint256",
							"name": "",
							"type": "uint256"
						},
						{
							"internalType": "bytes",
							"name": "",
							"type": "bytes"
						}
					],
					"name": "onERC721Received",
					"outputs": [
						{
							"internalType": "bytes4",
							"name": "",
							"type": "bytes4"
						}
					],
					"stateMutability": "pure",
					"type": "function"
				},
				{
					"inputs": [
						{
							"internalType": "address",
							"name": "_nftContractAddress",
							"type": "address"
						},
						{
							"internalType": "uint256",
							"name": "_tokenId",
							"type": "uint256"
						},
						{
							"internalType": "uint256",
							"name": "_updateSalePrice",
							"type": "uint256"
						}
					],
					"name": "updateFixedSalePrice",
					"outputs": [],
					"stateMutability": "nonpayable",
					"type": "function"
				},
				{
					"stateMutability": "payable",
					"type": "receive"
				}
			],
			"devdoc": {
				"kind": "dev",
				"methods": {},
				"version": 1
			},
			"evm": {
				"assembly": "    /* \"NFT-Contracts/contracts/market_pri/nft_market.sol\":175:8081  contract NFTMarketplace {... */\n  mstore(0x40, 0x80)\n  callvalue\n  dup1\n  iszero\n  tag_1\n  jumpi\n  0x00\n  dup1\n  revert\ntag_1:\n  pop\n  dataSize(sub_0)\n  dup1\n  dataOffset(sub_0)\n  0x00\n  codecopy\n  0x00\n  return\nstop\n\nsub_0: assembly {\n        /* \"NFT-Contracts/contracts/market_pri/nft_market.sol\":175:8081  contract NFTMarketplace {... */\n      mstore(0x40, 0x80)\n      jumpi(tag_1, lt(calldatasize, 0x04))\n      shr(0xe0, calldataload(0x00))\n      dup1\n      0x8c3417da\n      gt\n      tag_11\n      jumpi\n      dup1\n      0x8c3417da\n      eq\n      tag_7\n      jumpi\n      dup1\n      0x9f085a00\n      eq\n      tag_8\n      jumpi\n      dup1\n      0xbaf4371e\n      eq\n      tag_9\n      jumpi\n      dup1\n      0xd3a6a6c9\n      eq\n      tag_10\n      jumpi\n      jump(tag_2)\n    tag_11:\n      dup1\n      0x150b7a02\n      eq\n      tag_3\n      jumpi\n      dup1\n      0x4676adca\n      eq\n      tag_4\n      jumpi\n      dup1\n      0x6916462f\n      eq\n      tag_5\n      jumpi\n      dup1\n      0x69a6d12e\n      eq\n      tag_6\n      jumpi\n      jump(tag_2)\n    tag_1:\n      jumpi(tag_2, calldatasize)\n      stop\n    tag_2:\n      0x00\n      dup1\n      revert\n        /* \"NFT-Contracts/contracts/market_pri/nft_market.sol\":6977:7192  function onERC721Received(... */\n    tag_3:\n      callvalue\n      dup1\n      iszero\n      tag_14\n      jumpi\n      0x00\n      dup1\n      revert\n    tag_14:\n      pop\n      tag_15\n      0x04\n      dup1\n      calldatasize\n      sub\n      dup2\n      add\n      swap1\n      tag_16\n      swap2\n      swap1\n      tag_17\n      jump\t// in\n    tag_16:\n      tag_18\n      jump\t// in\n    tag_15:\n      mload(0x40)\n      tag_19\n      swap2\n      swap1\n      tag_20\n      jump\t// in\n    tag_19:\n      mload(0x40)\n      dup1\n      swap2\n      sub\n      swap1\n      return\n        /* \"NFT-Contracts/contracts/market_pri/nft_market.sol\":4894:5472  function updateFixedSalePrice(... */\n    tag_4:\n      callvalue\n      dup1\n      iszero\n      tag_21\n      jumpi\n      0x00\n      dup1\n      revert\n    tag_21:\n      pop\n      tag_22\n      0x04\n      dup1\n      calldatasize\n      sub\n      dup2\n      add\n      swap1\n      tag_23\n      swap2\n      swap1\n      tag_24\n      jump\t// in\n    tag_23:\n      tag_25\n      jump\t// in\n    tag_22:\n      stop\n        /* \"NFT-Contracts/contracts/market_pri/nft_market.sol\":561:629  mapping(address => mapping(uint256 => uint256)) public nftSaleStatus */\n    tag_5:\n      callvalue\n      dup1\n      iszero\n      tag_26\n      jumpi\n      0x00\n      dup1\n      revert\n    tag_26:\n      pop\n      tag_27\n      0x04\n      dup1\n      calldatasize\n      sub\n      dup2\n      add\n      swap1\n      tag_28\n      swap2\n      swap1\n      tag_29\n      jump\t// in\n    tag_28:\n      tag_30\n      jump\t// in\n    tag_27:\n      mload(0x40)\n      tag_31\n      swap2\n      swap1\n      tag_32\n      jump\t// in\n    tag_31:\n      mload(0x40)\n      dup1\n      swap2\n      sub\n      swap1\n      return\n        /* \"NFT-Contracts/contracts/market_pri/nft_market.sol\":3158:4292  function nftFixedSale(... */\n    tag_6:\n      callvalue\n      dup1\n      iszero\n      tag_33\n      jumpi\n      0x00\n      dup1\n      revert\n    tag_33:\n      pop\n      tag_34\n      0x04\n      dup1\n      calldatasize\n      sub\n      dup2\n      add\n      swap1\n      tag_35\n      swap2\n      swap1\n      tag_36\n      jump\t// in\n    tag_35:\n      tag_37\n      jump\t// in\n    tag_34:\n      stop\n        /* \"NFT-Contracts/contracts/market_pri/nft_market.sol\":6762:6969  function getFixedSale(address _nftContractAddress, uint256 _tokenId) external view returns(... */\n    tag_7:\n      callvalue\n      dup1\n      iszero\n      tag_38\n      jumpi\n      0x00\n      dup1\n      revert\n    tag_38:\n      pop\n      tag_39\n      0x04\n      dup1\n      calldatasize\n      sub\n      dup2\n      add\n      swap1\n      tag_40\n      swap2\n      swap1\n      tag_29\n      jump\t// in\n    tag_40:\n      tag_41\n      jump\t// in\n    tag_39:\n      mload(0x40)\n      tag_42\n      swap2\n      swap1\n      tag_43\n      jump\t// in\n    tag_42:\n      mload(0x40)\n      dup1\n      swap2\n      sub\n      swap1\n      return\n        /* \"NFT-Contracts/contracts/market_pri/nft_market.sol\":6627:6754  function getFixedSaleNFT() external view returns(... */\n    tag_8:\n      callvalue\n      dup1\n      iszero\n      tag_44\n      jumpi\n      0x00\n      dup1\n      revert\n    tag_44:\n      pop\n      tag_45\n      tag_46\n      jump\t// in\n    tag_45:\n      mload(0x40)\n      tag_47\n      swap2\n      swap1\n      tag_48\n      jump\t// in\n    tag_47:\n      mload(0x40)\n      dup1\n      swap2\n      sub\n      swap1\n      return\n        /* \"NFT-Contracts/contracts/market_pri/nft_market.sol\":5480:6619  function buyFromFixedSale(... */\n    tag_9:\n      tag_49\n      0x04\n      dup1\n      calldatasize\n      sub\n      dup2\n      add\n      swap1\n      tag_50\n      swap2\n      swap1\n      tag_24\n      jump\t// in\n    tag_50:\n      tag_51\n      jump\t// in\n    tag_49:\n      stop\n        /* \"NFT-Contracts/contracts/market_pri/nft_market.sol\":4300:4886  function cancelFixedsale(address _nftContractAddress, uint256 _tokenId)... */\n    tag_10:\n      callvalue\n      dup1\n      iszero\n      tag_52\n      jumpi\n      0x00\n      dup1\n      revert\n    tag_52:\n      pop\n      tag_53\n      0x04\n      dup1\n      calldatasize\n      sub\n      dup2\n      add\n      swap1\n      tag_54\n      swap2\n      swap1\n      tag_29\n      jump\t// in\n    tag_54:\n      tag_55\n      jump\t// in\n    tag_53:\n      stop\n        /* \"NFT-Contracts/contracts/market_pri/nft_market.sol\":6977:7192  function onERC721Received(... */\n    tag_18:\n        /* \"NFT-Contracts/contracts/market_pri/nft_market.sol\":7117:7123  bytes4 */\n      0x00\n        /* \"NFT-Contracts/contracts/market_pri/nft_market.sol\":7143:7184  IERC721Receiver.onERC721Received.selector */\n      shl(0xe0, 0x150b7a02)\n        /* \"NFT-Contracts/contracts/market_pri/nft_market.sol\":7136:7184  return IERC721Receiver.onERC721Received.selector */\n      swap1\n      pop\n        /* \"NFT-Contracts/contracts/market_pri/nft_market.sol\":6977:7192  function onERC721Received(... */\n      swap6\n      swap5\n      pop\n      pop\n      pop\n      pop\n      pop\n      jump\t// out\n        /* \"NFT-Contracts/contracts/market_pri/nft_market.sol\":4894:5472  function updateFixedSalePrice(... */\n    tag_25:\n        /* \"NFT-Contracts/contracts/market_pri/nft_market.sol\":5075:5094  _nftContractAddress */\n      dup3\n        /* \"NFT-Contracts/contracts/market_pri/nft_market.sol\":5096:5104  _tokenId */\n      dup3\n        /* \"NFT-Contracts/contracts/market_pri/nft_market.sol\":1765:1766  1 */\n      0x01\n        /* \"NFT-Contracts/contracts/market_pri/nft_market.sol\":1717:1730  nftSaleStatus */\n      dup1\n        /* \"NFT-Contracts/contracts/market_pri/nft_market.sol\":1717:1751  nftSaleStatus[_nftContractAddress] */\n      0x00\n        /* \"NFT-Contracts/contracts/market_pri/nft_market.sol\":1731:1750  _nftContractAddress */\n      dup5\n        /* \"NFT-Contracts/contracts/market_pri/nft_market.sol\":1717:1751  nftSaleStatus[_nftContractAddress] */\n      0xffffffffffffffffffffffffffffffffffffffff\n      and\n      0xffffffffffffffffffffffffffffffffffffffff\n      and\n      dup2\n      mstore\n      0x20\n      add\n      swap1\n      dup2\n      mstore\n      0x20\n      add\n      0x00\n      keccak256\n        /* \"NFT-Contracts/contracts/market_pri/nft_market.sol\":1717:1761  nftSaleStatus[_nftContractAddress][_tokenId] */\n      0x00\n        /* \"NFT-Contracts/contracts/market_pri/nft_market.sol\":1752:1760  _tokenId */\n      dup4\n        /* \"NFT-Contracts/contracts/market_pri/nft_market.sol\":1717:1761  nftSaleStatus[_nftContractAddress][_tokenId] */\n      dup2\n      mstore\n      0x20\n      add\n      swap1\n      dup2\n      mstore\n      0x20\n      add\n      0x00\n      keccak256\n      sload\n        /* \"NFT-Contracts/contracts/market_pri/nft_market.sol\":1717:1766  nftSaleStatus[_nftContractAddress][_tokenId] == 1 */\n      eq\n        /* \"NFT-Contracts/contracts/market_pri/nft_market.sol\":1695:1815  require(... */\n      tag_58\n      jumpi\n      mload(0x40)\n      0x08c379a000000000000000000000000000000000000000000000000000000000\n      dup2\n      mstore\n      0x04\n      add\n      tag_59\n      swap1\n      tag_60\n      jump\t// in\n    tag_59:\n      mload(0x40)\n      dup1\n      swap2\n      sub\n      swap1\n      revert\n    tag_58:\n        /* \"NFT-Contracts/contracts/market_pri/nft_market.sol\":5134:5153  _nftContractAddress */\n      dup5\n        /* \"NFT-Contracts/contracts/market_pri/nft_market.sol\":5155:5163  _tokenId */\n      dup5\n        /* \"NFT-Contracts/contracts/market_pri/nft_market.sol\":2227:2247  nftContractFixedSale */\n      0x00\n        /* \"NFT-Contracts/contracts/market_pri/nft_market.sol\":2227:2268  nftContractFixedSale[_nftContractAddress] */\n      dup1\n        /* \"NFT-Contracts/contracts/market_pri/nft_market.sol\":2248:2267  _nftContractAddress */\n      dup4\n        /* \"NFT-Contracts/contracts/market_pri/nft_market.sol\":2227:2268  nftContractFixedSale[_nftContractAddress] */\n      0xffffffffffffffffffffffffffffffffffffffff\n      and\n      0xffffffffffffffffffffffffffffffffffffffff\n      and\n      dup2\n      mstore\n      0x20\n      add\n      swap1\n      dup2\n      mstore\n      0x20\n      add\n      0x00\n      keccak256\n        /* \"NFT-Contracts/contracts/market_pri/nft_market.sol\":2227:2278  nftContractFixedSale[_nftContractAddress][_tokenId] */\n      0x00\n        /* \"NFT-Contracts/contracts/market_pri/nft_market.sol\":2269:2277  _tokenId */\n      dup3\n        /* \"NFT-Contracts/contracts/market_pri/nft_market.sol\":2227:2278  nftContractFixedSale[_nftContractAddress][_tokenId] */\n      dup2\n      mstore\n      0x20\n      add\n      swap1\n      dup2\n      mstore\n      0x20\n      add\n      0x00\n      keccak256\n        /* \"NFT-Contracts/contracts/market_pri/nft_market.sol\":2227:2288  nftContractFixedSale[_nftContractAddress][_tokenId].nftSeller */\n      0x00\n      add\n      0x00\n      swap1\n      sload\n      swap1\n      0x0100\n      exp\n      swap1\n      div\n      0xffffffffffffffffffffffffffffffffffffffff\n      and\n        /* \"NFT-Contracts/contracts/market_pri/nft_market.sol\":2196:2288  msg.sender ==... */\n      0xffffffffffffffffffffffffffffffffffffffff\n      and\n        /* \"NFT-Contracts/contracts/market_pri/nft_market.sol\":2196:2206  msg.sender */\n      caller\n        /* \"NFT-Contracts/contracts/market_pri/nft_market.sol\":2196:2288  msg.sender ==... */\n      0xffffffffffffffffffffffffffffffffffffffff\n      and\n      eq\n        /* \"NFT-Contracts/contracts/market_pri/nft_market.sol\":2174:2337  require(... */\n      tag_62\n      jumpi\n      mload(0x40)\n      0x08c379a000000000000000000000000000000000000000000000000000000000\n      dup2\n      mstore\n      0x04\n      add\n      tag_63\n      swap1\n      tag_64\n      jump\t// in\n    tag_63:\n      mload(0x40)\n      dup1\n      swap2\n      sub\n      swap1\n      revert\n    tag_62:\n        /* \"NFT-Contracts/contracts/market_pri/nft_market.sol\":5195:5211  _updateSalePrice */\n      dup5\n        /* \"NFT-Contracts/contracts/market_pri/nft_market.sol\":3082:3083  0 */\n      0x00\n        /* \"NFT-Contracts/contracts/market_pri/nft_market.sol\":3073:3079  _price */\n      dup2\n        /* \"NFT-Contracts/contracts/market_pri/nft_market.sol\":3073:3083  _price > 0 */\n      gt\n        /* \"NFT-Contracts/contracts/market_pri/nft_market.sol\":3065:3105  require(_price > 0, \"Price cannot be 0\") */\n      tag_66\n      jumpi\n      mload(0x40)\n      0x08c379a000000000000000000000000000000000000000000000000000000000\n      dup2\n      mstore\n      0x04\n      add\n      tag_67\n      swap1\n      tag_68\n      jump\t// in\n    tag_67:\n      mload(0x40)\n      dup1\n      swap2\n      sub\n      swap1\n      revert\n    tag_66:\n        /* \"NFT-Contracts/contracts/market_pri/nft_market.sol\":5307:5323  _updateSalePrice */\n      dup6\n        /* \"NFT-Contracts/contracts/market_pri/nft_market.sol\":5229:5249  nftContractFixedSale */\n      0x00\n        /* \"NFT-Contracts/contracts/market_pri/nft_market.sol\":5229:5270  nftContractFixedSale[_nftContractAddress] */\n      dup1\n        /* \"NFT-Contracts/contracts/market_pri/nft_market.sol\":5250:5269  _nftContractAddress */\n      dup11\n        /* \"NFT-Contracts/contracts/market_pri/nft_market.sol\":5229:5270  nftContractFixedSale[_nftContractAddress] */\n      0xffffffffffffffffffffffffffffffffffffffff\n      and\n      0xffffffffffffffffffffffffffffffffffffffff\n      and\n      dup2\n      mstore\n      0x20\n      add\n      swap1\n      dup2\n      mstore\n      0x20\n      add\n      0x00\n      keccak256\n        /* \"NFT-Contracts/contracts/market_pri/nft_market.sol\":5229:5280  nftContractFixedSale[_nftContractAddress][_tokenId] */\n      0x00\n        /* \"NFT-Contracts/contracts/market_pri/nft_market.sol\":5271:5279  _tokenId */\n      dup10\n        /* \"NFT-Contracts/contracts/market_pri/nft_market.sol\":5229:5280  nftContractFixedSale[_nftContractAddress][_tokenId] */\n      dup2\n      mstore\n      0x20\n      add\n      swap1\n      dup2\n      mstore\n      0x20\n      add\n      0x00\n      keccak256\n        /* \"NFT-Contracts/contracts/market_pri/nft_market.sol\":5229:5304  nftContractFixedSale[_nftContractAddress][_tokenId]... */\n      0x03\n      add\n        /* \"NFT-Contracts/contracts/market_pri/nft_market.sol\":5229:5323  nftContractFixedSale[_nftContractAddress][_tokenId]... */\n      dup2\n      swap1\n      sstore\n      pop\n        /* \"NFT-Contracts/contracts/market_pri/nft_market.sol\":5341:5464  NftFixedSalePriceUpdated(... */\n      0x575a0876095ccf47276a37dce683308a625403d132d219f95205ce205b2e12bc\n        /* \"NFT-Contracts/contracts/market_pri/nft_market.sol\":5380:5399  _nftContractAddress */\n      dup9\n        /* \"NFT-Contracts/contracts/market_pri/nft_market.sol\":5414:5422  _tokenId */\n      dup9\n        /* \"NFT-Contracts/contracts/market_pri/nft_market.sol\":5437:5453  _updateSalePrice */\n      dup9\n        /* \"NFT-Contracts/contracts/market_pri/nft_market.sol\":5341:5464  NftFixedSalePriceUpdated(... */\n      mload(0x40)\n      tag_70\n      swap4\n      swap3\n      swap2\n      swap1\n      tag_71\n      jump\t// in\n    tag_70:\n      mload(0x40)\n      dup1\n      swap2\n      sub\n      swap1\n      log1\n        /* \"NFT-Contracts/contracts/market_pri/nft_market.sol\":2348:2349  _ */\n      pop\n        /* \"NFT-Contracts/contracts/market_pri/nft_market.sol\":1826:1827  _ */\n      pop\n      pop\n        /* \"NFT-Contracts/contracts/market_pri/nft_market.sol\":4894:5472  function updateFixedSalePrice(... */\n      pop\n      pop\n      pop\n      pop\n      pop\n      jump\t// out\n        /* \"NFT-Contracts/contracts/market_pri/nft_market.sol\":561:629  mapping(address => mapping(uint256 => uint256)) public nftSaleStatus */\n    tag_30:\n      mstore(0x20, 0x01)\n      dup2\n      0x00\n      mstore\n      mstore(0x20, keccak256(0x00, 0x40))\n      dup1\n      0x00\n      mstore\n      keccak256(0x00, 0x40)\n      0x00\n      swap2\n      pop\n      swap2\n      pop\n      pop\n      sload\n      dup2\n      jump\t// out\n        /* \"NFT-Contracts/contracts/market_pri/nft_market.sol\":3158:4292  function nftFixedSale(... */\n    tag_37:\n        /* \"NFT-Contracts/contracts/market_pri/nft_market.sol\":3352:3371  _nftContractAddress */\n      dup4\n        /* \"NFT-Contracts/contracts/market_pri/nft_market.sol\":3373:3381  _tokenId */\n      dup3\n        /* \"NFT-Contracts/contracts/market_pri/nft_market.sol\":1973:1992  _nftContractAddress */\n      dup2\n        /* \"NFT-Contracts/contracts/market_pri/nft_market.sol\":1965:2001  IERC721(_nftContractAddress).ownerOf */\n      0xffffffffffffffffffffffffffffffffffffffff\n      and\n      0x6352211e\n        /* \"NFT-Contracts/contracts/market_pri/nft_market.sol\":2002:2010  _tokenId */\n      dup3\n        /* \"NFT-Contracts/contracts/market_pri/nft_market.sol\":1965:2011  IERC721(_nftContractAddress).ownerOf(_tokenId) */\n      mload(0x40)\n      dup3\n      0xffffffff\n      and\n      0xe0\n      shl\n      dup2\n      mstore\n      0x04\n      add\n      tag_73\n      swap2\n      swap1\n      tag_32\n      jump\t// in\n    tag_73:\n      0x20\n      mload(0x40)\n      dup1\n      dup4\n      sub\n      dup2\n      dup7\n      gas\n      staticcall\n      iszero\n      dup1\n      iszero\n      tag_75\n      jumpi\n      returndatasize\n      0x00\n      dup1\n      returndatacopy\n      revert(0x00, returndatasize)\n    tag_75:\n      pop\n      pop\n      pop\n      pop\n      mload(0x40)\n      returndatasize\n      not(0x1f)\n      0x1f\n      dup3\n      add\n      and\n      dup3\n      add\n      dup1\n      0x40\n      mstore\n      pop\n      dup2\n      add\n      swap1\n      tag_76\n      swap2\n      swap1\n      tag_77\n      jump\t// in\n    tag_76:\n        /* \"NFT-Contracts/contracts/market_pri/nft_market.sol\":1951:2011  msg.sender == IERC721(_nftContractAddress).ownerOf(_tokenId) */\n      0xffffffffffffffffffffffffffffffffffffffff\n      and\n        /* \"NFT-Contracts/contracts/market_pri/nft_market.sol\":1951:1961  msg.sender */\n      caller\n        /* \"NFT-Contracts/contracts/market_pri/nft_market.sol\":1951:2011  msg.sender == IERC721(_nftContractAddress).ownerOf(_tokenId) */\n      0xffffffffffffffffffffffffffffffffffffffff\n      and\n      eq\n        /* \"NFT-Contracts/contracts/market_pri/nft_market.sol\":1929:2060  require(... */\n      tag_78\n      jumpi\n      mload(0x40)\n      0x08c379a000000000000000000000000000000000000000000000000000000000\n      dup2\n      mstore\n      0x04\n      add\n      tag_79\n      swap1\n      tag_64\n      jump\t// in\n    tag_79:\n      mload(0x40)\n      dup1\n      swap2\n      sub\n      swap1\n      revert\n    tag_78:\n        /* \"NFT-Contracts/contracts/market_pri/nft_market.sol\":3411:3430  _nftContractAddress */\n      dup6\n        /* \"NFT-Contracts/contracts/market_pri/nft_market.sol\":3432:3440  _tokenId */\n      dup5\n        /* \"NFT-Contracts/contracts/market_pri/nft_market.sol\":1535:1536  0 */\n      0x00\n        /* \"NFT-Contracts/contracts/market_pri/nft_market.sol\":1487:1500  nftSaleStatus */\n      0x01\n        /* \"NFT-Contracts/contracts/market_pri/nft_market.sol\":1487:1521  nftSaleStatus[_nftContractAddress] */\n      0x00\n        /* \"NFT-Contracts/contracts/market_pri/nft_market.sol\":1501:1520  _nftContractAddress */\n      dup5\n        /* \"NFT-Contracts/contracts/market_pri/nft_market.sol\":1487:1521  nftSaleStatus[_nftContractAddress] */\n      0xffffffffffffffffffffffffffffffffffffffff\n      and\n      0xffffffffffffffffffffffffffffffffffffffff\n      and\n      dup2\n      mstore\n      0x20\n      add\n      swap1\n      dup2\n      mstore\n      0x20\n      add\n      0x00\n      keccak256\n        /* \"NFT-Contracts/contracts/market_pri/nft_market.sol\":1487:1531  nftSaleStatus[_nftContractAddress][_tokenId] */\n      0x00\n        /* \"NFT-Contracts/contracts/market_pri/nft_market.sol\":1522:1530  _tokenId */\n      dup4\n        /* \"NFT-Contracts/contracts/market_pri/nft_market.sol\":1487:1531  nftSaleStatus[_nftContractAddress][_tokenId] */\n      dup2\n      mstore\n      0x20\n      add\n      swap1\n      dup2\n      mstore\n      0x20\n      add\n      0x00\n      keccak256\n      sload\n        /* \"NFT-Contracts/contracts/market_pri/nft_market.sol\":1487:1536  nftSaleStatus[_nftContractAddress][_tokenId] == 0 */\n      eq\n        /* \"NFT-Contracts/contracts/market_pri/nft_market.sol\":1465:1583  require(... */\n      tag_81\n      jumpi\n      mload(0x40)\n      0x08c379a000000000000000000000000000000000000000000000000000000000\n      dup2\n      mstore\n      0x04\n      add\n      tag_82\n      swap1\n      tag_83\n      jump\t// in\n    tag_82:\n      mload(0x40)\n      dup1\n      swap2\n      sub\n      swap1\n      revert\n    tag_81:\n        /* \"NFT-Contracts/contracts/market_pri/nft_market.sol\":3469:3488  _nftContractAddress */\n      dup8\n        /* \"NFT-Contracts/contracts/market_pri/nft_market.sol\":3490:3498  _tokenId */\n      dup7\n        /* \"NFT-Contracts/contracts/market_pri/nft_market.sol\":2480:2499  _nftContractAddress */\n      dup2\n        /* \"NFT-Contracts/contracts/market_pri/nft_market.sol\":2472:2517  IERC721(_nftContractAddress).isApprovedForAll */\n      0xffffffffffffffffffffffffffffffffffffffff\n      and\n      0xe985e9c5\n        /* \"NFT-Contracts/contracts/market_pri/nft_market.sol\":2536:2546  msg.sender */\n      caller\n        /* \"NFT-Contracts/contracts/market_pri/nft_market.sol\":2573:2577  this */\n      address\n        /* \"NFT-Contracts/contracts/market_pri/nft_market.sol\":2472:2593  IERC721(_nftContractAddress).isApprovedForAll(... */\n      mload(0x40)\n      dup4\n      0xffffffff\n      and\n      0xe0\n      shl\n      dup2\n      mstore\n      0x04\n      add\n      tag_85\n      swap3\n      swap2\n      swap1\n      tag_86\n      jump\t// in\n    tag_85:\n      0x20\n      mload(0x40)\n      dup1\n      dup4\n      sub\n      dup2\n      dup7\n      gas\n      staticcall\n      iszero\n      dup1\n      iszero\n      tag_88\n      jumpi\n      returndatasize\n      0x00\n      dup1\n      returndatacopy\n      revert(0x00, returndatasize)\n    tag_88:\n      pop\n      pop\n      pop\n      pop\n      mload(0x40)\n      returndatasize\n      not(0x1f)\n      0x1f\n      dup3\n      add\n      and\n      dup3\n      add\n      dup1\n      0x40\n      mstore\n      pop\n      dup2\n      add\n      swap1\n      tag_89\n      swap2\n      swap1\n      tag_90\n      jump\t// in\n    tag_89:\n        /* \"NFT-Contracts/contracts/market_pri/nft_market.sol\":2450:2649  require(... */\n      tag_91\n      jumpi\n      mload(0x40)\n      0x08c379a000000000000000000000000000000000000000000000000000000000\n      dup2\n      mstore\n      0x04\n      add\n      tag_92\n      swap1\n      tag_93\n      jump\t// in\n    tag_92:\n      mload(0x40)\n      dup1\n      swap2\n      sub\n      swap1\n      revert\n    tag_91:\n        /* \"NFT-Contracts/contracts/market_pri/nft_market.sol\":3530:3540  _salePrice */\n      dup7\n        /* \"NFT-Contracts/contracts/market_pri/nft_market.sol\":3082:3083  0 */\n      0x00\n        /* \"NFT-Contracts/contracts/market_pri/nft_market.sol\":3073:3079  _price */\n      dup2\n        /* \"NFT-Contracts/contracts/market_pri/nft_market.sol\":3073:3083  _price > 0 */\n      gt\n        /* \"NFT-Contracts/contracts/market_pri/nft_market.sol\":3065:3105  require(_price > 0, \"Price cannot be 0\") */\n      tag_95\n      jumpi\n      mload(0x40)\n      0x08c379a000000000000000000000000000000000000000000000000000000000\n      dup2\n      mstore\n      0x04\n      add\n      tag_96\n      swap1\n      tag_68\n      jump\t// in\n    tag_96:\n      mload(0x40)\n      dup1\n      swap2\n      sub\n      swap1\n      revert\n    tag_95:\n        /* \"NFT-Contracts/contracts/market_pri/nft_market.sol\":3612:3728  FixedSale(... */\n      mload(0x40)\n      dup1\n      0x80\n      add\n      0x40\n      mstore\n      dup1\n        /* \"NFT-Contracts/contracts/market_pri/nft_market.sol\":3636:3646  msg.sender */\n      caller\n        /* \"NFT-Contracts/contracts/market_pri/nft_market.sol\":3612:3728  FixedSale(... */\n      0xffffffffffffffffffffffffffffffffffffffff\n      and\n      dup2\n      mstore\n      0x20\n      add\n        /* \"NFT-Contracts/contracts/market_pri/nft_market.sol\":3669:3670  0 */\n      0x00\n        /* \"NFT-Contracts/contracts/market_pri/nft_market.sol\":3612:3728  FixedSale(... */\n      0xffffffffffffffffffffffffffffffffffffffff\n      and\n      dup2\n      mstore\n      0x20\n      add\n        /* \"NFT-Contracts/contracts/market_pri/nft_market.sol\":3686:3692  _erc20 */\n      dup12\n        /* \"NFT-Contracts/contracts/market_pri/nft_market.sol\":3612:3728  FixedSale(... */\n      0xffffffffffffffffffffffffffffffffffffffff\n      and\n      dup2\n      mstore\n      0x20\n      add\n        /* \"NFT-Contracts/contracts/market_pri/nft_market.sol\":3707:3717  _salePrice */\n      dup10\n        /* \"NFT-Contracts/contracts/market_pri/nft_market.sol\":3612:3728  FixedSale(... */\n      dup2\n      mstore\n      pop\n        /* \"NFT-Contracts/contracts/market_pri/nft_market.sol\":3558:3578  nftContractFixedSale */\n      0x00\n        /* \"NFT-Contracts/contracts/market_pri/nft_market.sol\":3558:3599  nftContractFixedSale[_nftContractAddress] */\n      dup1\n        /* \"NFT-Contracts/contracts/market_pri/nft_market.sol\":3579:3598  _nftContractAddress */\n      dup14\n        /* \"NFT-Contracts/contracts/market_pri/nft_market.sol\":3558:3599  nftContractFixedSale[_nftContractAddress] */\n      0xffffffffffffffffffffffffffffffffffffffff\n      and\n      0xffffffffffffffffffffffffffffffffffffffff\n      and\n      dup2\n      mstore\n      0x20\n      add\n      swap1\n      dup2\n      mstore\n      0x20\n      add\n      0x00\n      keccak256\n        /* \"NFT-Contracts/contracts/market_pri/nft_market.sol\":3558:3609  nftContractFixedSale[_nftContractAddress][_tokenId] */\n      0x00\n        /* \"NFT-Contracts/contracts/market_pri/nft_market.sol\":3600:3608  _tokenId */\n      dup12\n        /* \"NFT-Contracts/contracts/market_pri/nft_market.sol\":3558:3609  nftContractFixedSale[_nftContractAddress][_tokenId] */\n      dup2\n      mstore\n      0x20\n      add\n      swap1\n      dup2\n      mstore\n      0x20\n      add\n      0x00\n      keccak256\n        /* \"NFT-Contracts/contracts/market_pri/nft_market.sol\":3558:3728  nftContractFixedSale[_nftContractAddress][_tokenId] = FixedSale(... */\n      0x00\n      dup3\n      add\n      mload\n      dup2\n      0x00\n      add\n      exp(0x0100, 0x00)\n      dup2\n      sload\n      dup2\n      0xffffffffffffffffffffffffffffffffffffffff\n      mul\n      not\n      and\n      swap1\n      dup4\n      0xffffffffffffffffffffffffffffffffffffffff\n      and\n      mul\n      or\n      swap1\n      sstore\n      pop\n      0x20\n      dup3\n      add\n      mload\n      dup2\n      0x01\n      add\n      exp(0x0100, 0x00)\n      dup2\n      sload\n      dup2\n      0xffffffffffffffffffffffffffffffffffffffff\n      mul\n      not\n      and\n      swap1\n      dup4\n      0xffffffffffffffffffffffffffffffffffffffff\n      and\n      mul\n      or\n      swap1\n      sstore\n      pop\n      0x40\n      dup3\n      add\n      mload\n      dup2\n      0x02\n      add\n      exp(0x0100, 0x00)\n      dup2\n      sload\n      dup2\n      0xffffffffffffffffffffffffffffffffffffffff\n      mul\n      not\n      and\n      swap1\n      dup4\n      0xffffffffffffffffffffffffffffffffffffffff\n      and\n      mul\n      or\n      swap1\n      sstore\n      pop\n      0x60\n      dup3\n      add\n      mload\n      dup2\n      0x03\n      add\n      sstore\n      swap1\n      pop\n      pop\n        /* \"NFT-Contracts/contracts/market_pri/nft_market.sol\":3788:3789  1 */\n      0x01\n        /* \"NFT-Contracts/contracts/market_pri/nft_market.sol\":3741:3754  nftSaleStatus */\n      dup1\n        /* \"NFT-Contracts/contracts/market_pri/nft_market.sol\":3741:3775  nftSaleStatus[_nftContractAddress] */\n      0x00\n        /* \"NFT-Contracts/contracts/market_pri/nft_market.sol\":3755:3774  _nftContractAddress */\n      dup14\n        /* \"NFT-Contracts/contracts/market_pri/nft_market.sol\":3741:3775  nftSaleStatus[_nftContractAddress] */\n      0xffffffffffffffffffffffffffffffffffffffff\n      and\n      0xffffffffffffffffffffffffffffffffffffffff\n      and\n      dup2\n      mstore\n      0x20\n      add\n      swap1\n      dup2\n      mstore\n      0x20\n      add\n      0x00\n      keccak256\n        /* \"NFT-Contracts/contracts/market_pri/nft_market.sol\":3741:3785  nftSaleStatus[_nftContractAddress][_tokenId] */\n      0x00\n        /* \"NFT-Contracts/contracts/market_pri/nft_market.sol\":3776:3784  _tokenId */\n      dup12\n        /* \"NFT-Contracts/contracts/market_pri/nft_market.sol\":3741:3785  nftSaleStatus[_nftContractAddress][_tokenId] */\n      dup2\n      mstore\n      0x20\n      add\n      swap1\n      dup2\n      mstore\n      0x20\n      add\n      0x00\n      keccak256\n        /* \"NFT-Contracts/contracts/market_pri/nft_market.sol\":3741:3789  nftSaleStatus[_nftContractAddress][_tokenId] = 1 */\n      dup2\n      swap1\n      sstore\n      pop\n        /* \"NFT-Contracts/contracts/market_pri/nft_market.sol\":3853:3865  fixedSaleNFT */\n      0x03\n        /* \"NFT-Contracts/contracts/market_pri/nft_market.sol\":3853:3872  fixedSaleNFT.length */\n      dup1\n      sload\n      swap1\n      pop\n        /* \"NFT-Contracts/contracts/market_pri/nft_market.sol\":3802:3819  indexFixedSaleNFT */\n      0x02\n        /* \"NFT-Contracts/contracts/market_pri/nft_market.sol\":3802:3840  indexFixedSaleNFT[_nftContractAddress] */\n      0x00\n        /* \"NFT-Contracts/contracts/market_pri/nft_market.sol\":3820:3839  _nftContractAddress */\n      dup14\n        /* \"NFT-Contracts/contracts/market_pri/nft_market.sol\":3802:3840  indexFixedSaleNFT[_nftContractAddress] */\n      0xffffffffffffffffffffffffffffffffffffffff\n      and\n      0xffffffffffffffffffffffffffffffffffffffff\n      and\n      dup2\n      mstore\n      0x20\n      add\n      swap1\n      dup2\n      mstore\n      0x20\n      add\n      0x00\n      keccak256\n        /* \"NFT-Contracts/contracts/market_pri/nft_market.sol\":3802:3850  indexFixedSaleNFT[_nftContractAddress][_tokenId] */\n      0x00\n        /* \"NFT-Contracts/contracts/market_pri/nft_market.sol\":3841:3849  _tokenId */\n      dup12\n        /* \"NFT-Contracts/contracts/market_pri/nft_market.sol\":3802:3850  indexFixedSaleNFT[_nftContractAddress][_tokenId] */\n      dup2\n      mstore\n      0x20\n      add\n      swap1\n      dup2\n      mstore\n      0x20\n      add\n      0x00\n      keccak256\n        /* \"NFT-Contracts/contracts/market_pri/nft_market.sol\":3802:3872  indexFixedSaleNFT[_nftContractAddress][_tokenId] = fixedSaleNFT.length */\n      dup2\n      swap1\n      sstore\n      pop\n        /* \"NFT-Contracts/contracts/market_pri/nft_market.sol\":3883:3895  fixedSaleNFT */\n      0x03\n        /* \"NFT-Contracts/contracts/market_pri/nft_market.sol\":3901:3939  SaleInfo(_nftContractAddress,_tokenId) */\n      mload(0x40)\n      dup1\n      0x40\n      add\n      0x40\n      mstore\n      dup1\n        /* \"NFT-Contracts/contracts/market_pri/nft_market.sol\":3910:3929  _nftContractAddress */\n      dup14\n        /* \"NFT-Contracts/contracts/market_pri/nft_market.sol\":3901:3939  SaleInfo(_nftContractAddress,_tokenId) */\n      0xffffffffffffffffffffffffffffffffffffffff\n      and\n      dup2\n      mstore\n      0x20\n      add\n        /* \"NFT-Contracts/contracts/market_pri/nft_market.sol\":3930:3938  _tokenId */\n      dup12\n        /* \"NFT-Contracts/contracts/market_pri/nft_market.sol\":3901:3939  SaleInfo(_nftContractAddress,_tokenId) */\n      dup2\n      mstore\n      pop\n        /* \"NFT-Contracts/contracts/market_pri/nft_market.sol\":3883:3940  fixedSaleNFT.push(SaleInfo(_nftContractAddress,_tokenId)) */\n      swap1\n      dup1\n      0x01\n      dup2\n      sload\n      add\n      dup1\n      dup3\n      sstore\n      dup1\n      swap2\n      pop\n      pop\n      0x01\n      swap1\n      sub\n      swap1\n      0x00\n      mstore\n      keccak256(0x00, 0x20)\n      swap1\n      0x02\n      mul\n      add\n      0x00\n      swap1\n      swap2\n      swap1\n      swap2\n      swap1\n      swap2\n      pop\n      0x00\n      dup3\n      add\n      mload\n      dup2\n      0x00\n      add\n      exp(0x0100, 0x00)\n      dup2\n      sload\n      dup2\n      0xffffffffffffffffffffffffffffffffffffffff\n      mul\n      not\n      and\n      swap1\n      dup4\n      0xffffffffffffffffffffffffffffffffffffffff\n      and\n      mul\n      or\n      swap1\n      sstore\n      pop\n      0x20\n      dup3\n      add\n      mload\n      dup2\n      0x01\n      add\n      sstore\n      pop\n      pop\n        /* \"NFT-Contracts/contracts/market_pri/nft_market.sol\":3961:3980  _nftContractAddress */\n      dup11\n        /* \"NFT-Contracts/contracts/market_pri/nft_market.sol\":3953:3998  IERC721(_nftContractAddress).safeTransferFrom */\n      0xffffffffffffffffffffffffffffffffffffffff\n      and\n      0x42842e0e\n        /* \"NFT-Contracts/contracts/market_pri/nft_market.sol\":4013:4023  msg.sender */\n      caller\n        /* \"NFT-Contracts/contracts/market_pri/nft_market.sol\":4046:4050  this */\n      address\n        /* \"NFT-Contracts/contracts/market_pri/nft_market.sol\":4066:4074  _tokenId */\n      dup13\n        /* \"NFT-Contracts/contracts/market_pri/nft_market.sol\":3953:4085  IERC721(_nftContractAddress).safeTransferFrom(... */\n      mload(0x40)\n      dup5\n      0xffffffff\n      and\n      0xe0\n      shl\n      dup2\n      mstore\n      0x04\n      add\n      tag_99\n      swap4\n      swap3\n      swap2\n      swap1\n      tag_100\n      jump\t// in\n    tag_99:\n      0x00\n      mload(0x40)\n      dup1\n      dup4\n      sub\n      dup2\n      0x00\n      dup8\n      dup1\n      extcodesize\n      iszero\n      dup1\n      iszero\n      tag_101\n      jumpi\n      0x00\n      dup1\n      revert\n    tag_101:\n      pop\n      gas\n      call\n      iszero\n      dup1\n      iszero\n      tag_103\n      jumpi\n      returndatasize\n      0x00\n      dup1\n      returndatacopy\n      revert(0x00, returndatasize)\n    tag_103:\n      pop\n      pop\n      pop\n      pop\n        /* \"NFT-Contracts/contracts/market_pri/nft_market.sol\":4103:4284  NftFixedSale(... */\n      0x078eead3cd01ed921c7653d000a6b73aea643a7b9c066fb7d93eb2eae8acc2d9\n        /* \"NFT-Contracts/contracts/market_pri/nft_market.sol\":4130:4149  _nftContractAddress */\n      dup12\n        /* \"NFT-Contracts/contracts/market_pri/nft_market.sol\":4164:4174  msg.sender */\n      caller\n        /* \"NFT-Contracts/contracts/market_pri/nft_market.sol\":4189:4195  _erc20 */\n      dup13\n        /* \"NFT-Contracts/contracts/market_pri/nft_market.sol\":4210:4218  _tokenId */\n      dup13\n        /* \"NFT-Contracts/contracts/market_pri/nft_market.sol\":4233:4243  _salePrice */\n      dup13\n        /* \"NFT-Contracts/contracts/market_pri/nft_market.sol\":4258:4273  block.timestamp */\n      timestamp\n        /* \"NFT-Contracts/contracts/market_pri/nft_market.sol\":4103:4284  NftFixedSale(... */\n      mload(0x40)\n      tag_104\n      swap7\n      swap6\n      swap5\n      swap4\n      swap3\n      swap2\n      swap1\n      tag_105\n      jump\t// in\n    tag_104:\n      mload(0x40)\n      dup1\n      swap2\n      sub\n      swap1\n      log1\n        /* \"NFT-Contracts/contracts/market_pri/nft_market.sol\":2660:2661  _ */\n      pop\n        /* \"NFT-Contracts/contracts/market_pri/nft_market.sol\":1594:1595  _ */\n      pop\n      pop\n        /* \"NFT-Contracts/contracts/market_pri/nft_market.sol\":2071:2072  _ */\n      pop\n      pop\n        /* \"NFT-Contracts/contracts/market_pri/nft_market.sol\":3158:4292  function nftFixedSale(... */\n      pop\n      pop\n      pop\n      pop\n      pop\n      pop\n      jump\t// out\n        /* \"NFT-Contracts/contracts/market_pri/nft_market.sol\":6762:6969  function getFixedSale(address _nftContractAddress, uint256 _tokenId) external view returns(... */\n    tag_41:\n        /* \"NFT-Contracts/contracts/market_pri/nft_market.sol\":6863:6879  FixedSale memory */\n      tag_106\n      tag_107\n      jump\t// in\n    tag_106:\n        /* \"NFT-Contracts/contracts/market_pri/nft_market.sol\":6910:6930  nftContractFixedSale */\n      0x00\n        /* \"NFT-Contracts/contracts/market_pri/nft_market.sol\":6910:6951  nftContractFixedSale[_nftContractAddress] */\n      dup1\n        /* \"NFT-Contracts/contracts/market_pri/nft_market.sol\":6931:6950  _nftContractAddress */\n      dup5\n        /* \"NFT-Contracts/contracts/market_pri/nft_market.sol\":6910:6951  nftContractFixedSale[_nftContractAddress] */\n      0xffffffffffffffffffffffffffffffffffffffff\n      and\n      0xffffffffffffffffffffffffffffffffffffffff\n      and\n      dup2\n      mstore\n      0x20\n      add\n      swap1\n      dup2\n      mstore\n      0x20\n      add\n      0x00\n      keccak256\n        /* \"NFT-Contracts/contracts/market_pri/nft_market.sol\":6910:6961  nftContractFixedSale[_nftContractAddress][_tokenId] */\n      0x00\n        /* \"NFT-Contracts/contracts/market_pri/nft_market.sol\":6952:6960  _tokenId */\n      dup4\n        /* \"NFT-Contracts/contracts/market_pri/nft_market.sol\":6910:6961  nftContractFixedSale[_nftContractAddress][_tokenId] */\n      dup2\n      mstore\n      0x20\n      add\n      swap1\n      dup2\n      mstore\n      0x20\n      add\n      0x00\n      keccak256\n        /* \"NFT-Contracts/contracts/market_pri/nft_market.sol\":6903:6961  return nftContractFixedSale[_nftContractAddress][_tokenId] */\n      mload(0x40)\n      dup1\n      0x80\n      add\n      0x40\n      mstore\n      swap1\n      dup2\n      0x00\n      dup3\n      add\n      0x00\n      swap1\n      sload\n      swap1\n      0x0100\n      exp\n      swap1\n      div\n      0xffffffffffffffffffffffffffffffffffffffff\n      and\n      0xffffffffffffffffffffffffffffffffffffffff\n      and\n      0xffffffffffffffffffffffffffffffffffffffff\n      and\n      dup2\n      mstore\n      0x20\n      add\n      0x01\n      dup3\n      add\n      0x00\n      swap1\n      sload\n      swap1\n      0x0100\n      exp\n      swap1\n      div\n      0xffffffffffffffffffffffffffffffffffffffff\n      and\n      0xffffffffffffffffffffffffffffffffffffffff\n      and\n      0xffffffffffffffffffffffffffffffffffffffff\n      and\n      dup2\n      mstore\n      0x20\n      add\n      0x02\n      dup3\n      add\n      0x00\n      swap1\n      sload\n      swap1\n      0x0100\n      exp\n      swap1\n      div\n      0xffffffffffffffffffffffffffffffffffffffff\n      and\n      0xffffffffffffffffffffffffffffffffffffffff\n      and\n      0xffffffffffffffffffffffffffffffffffffffff\n      and\n      dup2\n      mstore\n      0x20\n      add\n      0x03\n      dup3\n      add\n      sload\n      dup2\n      mstore\n      pop\n      pop\n      swap1\n      pop\n        /* \"NFT-Contracts/contracts/market_pri/nft_market.sol\":6762:6969  function getFixedSale(address _nftContractAddress, uint256 _tokenId) external view returns(... */\n      swap3\n      swap2\n      pop\n      pop\n      jump\t// out\n        /* \"NFT-Contracts/contracts/market_pri/nft_market.sol\":6627:6754  function getFixedSaleNFT() external view returns(... */\n    tag_46:\n        /* \"NFT-Contracts/contracts/market_pri/nft_market.sol\":6686:6703  SaleInfo[] memory */\n      0x60\n        /* \"NFT-Contracts/contracts/market_pri/nft_market.sol\":6734:6746  fixedSaleNFT */\n      0x03\n        /* \"NFT-Contracts/contracts/market_pri/nft_market.sol\":6727:6746  return fixedSaleNFT */\n      dup1\n      sload\n      dup1\n      0x20\n      mul\n      0x20\n      add\n      mload(0x40)\n      swap1\n      dup2\n      add\n      0x40\n      mstore\n      dup1\n      swap3\n      swap2\n      swap1\n      dup2\n      dup2\n      mstore\n      0x20\n      add\n      0x00\n      swap1\n    tag_110:\n      dup3\n      dup3\n      lt\n      iszero\n      tag_111\n      jumpi\n      dup4\n      dup3\n      swap1\n      0x00\n      mstore\n      keccak256(0x00, 0x20)\n      swap1\n      0x02\n      mul\n      add\n      mload(0x40)\n      dup1\n      0x40\n      add\n      0x40\n      mstore\n      swap1\n      dup2\n      0x00\n      dup3\n      add\n      0x00\n      swap1\n      sload\n      swap1\n      0x0100\n      exp\n      swap1\n      div\n      0xffffffffffffffffffffffffffffffffffffffff\n      and\n      0xffffffffffffffffffffffffffffffffffffffff\n      and\n      0xffffffffffffffffffffffffffffffffffffffff\n      and\n      dup2\n      mstore\n      0x20\n      add\n      0x01\n      dup3\n      add\n      sload\n      dup2\n      mstore\n      pop\n      pop\n      dup2\n      mstore\n      0x20\n      add\n      swap1\n      0x01\n      add\n      swap1\n      jump(tag_110)\n    tag_111:\n      pop\n      pop\n      pop\n      pop\n      swap1\n      pop\n        /* \"NFT-Contracts/contracts/market_pri/nft_market.sol\":6627:6754  function getFixedSaleNFT() external view returns(... */\n      swap1\n      jump\t// out\n        /* \"NFT-Contracts/contracts/market_pri/nft_market.sol\":5480:6619  function buyFromFixedSale(... */\n    tag_51:\n        /* \"NFT-Contracts/contracts/market_pri/nft_market.sol\":5665:5684  _nftContractAddress */\n      dup3\n        /* \"NFT-Contracts/contracts/market_pri/nft_market.sol\":5686:5694  _tokenId */\n      dup3\n        /* \"NFT-Contracts/contracts/market_pri/nft_market.sol\":1765:1766  1 */\n      0x01\n        /* \"NFT-Contracts/contracts/market_pri/nft_market.sol\":1717:1730  nftSaleStatus */\n      dup1\n        /* \"NFT-Contracts/contracts/market_pri/nft_market.sol\":1717:1751  nftSaleStatus[_nftContractAddress] */\n      0x00\n        /* \"NFT-Contracts/contracts/market_pri/nft_market.sol\":1731:1750  _nftContractAddress */\n      dup5\n        /* \"NFT-Contracts/contracts/market_pri/nft_market.sol\":1717:1751  nftSaleStatus[_nftContractAddress] */\n      0xffffffffffffffffffffffffffffffffffffffff\n      and\n      0xffffffffffffffffffffffffffffffffffffffff\n      and\n      dup2\n      mstore\n      0x20\n      add\n      swap1\n      dup2\n      mstore\n      0x20\n      add\n      0x00\n      keccak256\n        /* \"NFT-Contracts/contracts/market_pri/nft_market.sol\":1717:1761  nftSaleStatus[_nftContractAddress][_tokenId] */\n      0x00\n        /* \"NFT-Contracts/contracts/market_pri/nft_market.sol\":1752:1760  _tokenId */\n      dup4\n        /* \"NFT-Contracts/contracts/market_pri/nft_market.sol\":1717:1761  nftSaleStatus[_nftContractAddress][_tokenId] */\n      dup2\n      mstore\n      0x20\n      add\n      swap1\n      dup2\n      mstore\n      0x20\n      add\n      0x00\n      keccak256\n      sload\n        /* \"NFT-Contracts/contracts/market_pri/nft_market.sol\":1717:1766  nftSaleStatus[_nftContractAddress][_tokenId] == 1 */\n      eq\n        /* \"NFT-Contracts/contracts/market_pri/nft_market.sol\":1695:1815  require(... */\n      tag_114\n      jumpi\n      mload(0x40)\n      0x08c379a000000000000000000000000000000000000000000000000000000000\n      dup2\n      mstore\n      0x04\n      add\n      tag_115\n      swap1\n      tag_60\n      jump\t// in\n    tag_115:\n      mload(0x40)\n      dup1\n      swap2\n      sub\n      swap1\n      revert\n    tag_114:\n        /* \"NFT-Contracts/contracts/market_pri/nft_market.sol\":5726:5733  _amount */\n      dup3\n        /* \"NFT-Contracts/contracts/market_pri/nft_market.sol\":3082:3083  0 */\n      0x00\n        /* \"NFT-Contracts/contracts/market_pri/nft_market.sol\":3073:3079  _price */\n      dup2\n        /* \"NFT-Contracts/contracts/market_pri/nft_market.sol\":3073:3083  _price > 0 */\n      gt\n        /* \"NFT-Contracts/contracts/market_pri/nft_market.sol\":3065:3105  require(_price > 0, \"Price cannot be 0\") */\n      tag_117\n      jumpi\n      mload(0x40)\n      0x08c379a000000000000000000000000000000000000000000000000000000000\n      dup2\n      mstore\n      0x04\n      add\n      tag_118\n      swap1\n      tag_68\n      jump\t// in\n    tag_118:\n      mload(0x40)\n      dup1\n      swap2\n      sub\n      swap1\n      revert\n    tag_117:\n        /* \"NFT-Contracts/contracts/market_pri/nft_market.sol\":5766:5785  _nftContractAddress */\n      dup6\n        /* \"NFT-Contracts/contracts/market_pri/nft_market.sol\":5787:5795  _tokenId */\n      dup6\n        /* \"NFT-Contracts/contracts/market_pri/nft_market.sol\":5797:5804  _amount */\n      dup6\n        /* \"NFT-Contracts/contracts/market_pri/nft_market.sol\":2871:2891  nftContractFixedSale */\n      0x00\n        /* \"NFT-Contracts/contracts/market_pri/nft_market.sol\":2871:2912  nftContractFixedSale[_nftContractAddress] */\n      dup1\n        /* \"NFT-Contracts/contracts/market_pri/nft_market.sol\":2892:2911  _nftContractAddress */\n      dup5\n        /* \"NFT-Contracts/contracts/market_pri/nft_market.sol\":2871:2912  nftContractFixedSale[_nftContractAddress] */\n      0xffffffffffffffffffffffffffffffffffffffff\n      and\n      0xffffffffffffffffffffffffffffffffffffffff\n      and\n      dup2\n      mstore\n      0x20\n      add\n      swap1\n      dup2\n      mstore\n      0x20\n      add\n      0x00\n      keccak256\n        /* \"NFT-Contracts/contracts/market_pri/nft_market.sol\":2871:2922  nftContractFixedSale[_nftContractAddress][_tokenId] */\n      0x00\n        /* \"NFT-Contracts/contracts/market_pri/nft_market.sol\":2913:2921  _tokenId */\n      dup4\n        /* \"NFT-Contracts/contracts/market_pri/nft_market.sol\":2871:2922  nftContractFixedSale[_nftContractAddress][_tokenId] */\n      dup2\n      mstore\n      0x20\n      add\n      swap1\n      dup2\n      mstore\n      0x20\n      add\n      0x00\n      keccak256\n        /* \"NFT-Contracts/contracts/market_pri/nft_market.sol\":2871:2932  nftContractFixedSale[_nftContractAddress][_tokenId].salePrice */\n      0x03\n      add\n      sload\n        /* \"NFT-Contracts/contracts/market_pri/nft_market.sol\":2841:2850  _buyPrice */\n      dup2\n        /* \"NFT-Contracts/contracts/market_pri/nft_market.sol\":2841:2932  _buyPrice >=... */\n      lt\n      iszero\n        /* \"NFT-Contracts/contracts/market_pri/nft_market.sol\":2819:2980  require(... */\n      tag_120\n      jumpi\n      mload(0x40)\n      0x08c379a000000000000000000000000000000000000000000000000000000000\n      dup2\n      mstore\n      0x04\n      add\n      tag_121\n      swap1\n      tag_122\n      jump\t// in\n    tag_121:\n      mload(0x40)\n      dup1\n      swap2\n      sub\n      swap1\n      revert\n    tag_120:\n        /* \"NFT-Contracts/contracts/market_pri/nft_market.sol\":5830:5849  _nftContractAddress */\n      dup9\n        /* \"NFT-Contracts/contracts/market_pri/nft_market.sol\":5822:5867  IERC721(_nftContractAddress).safeTransferFrom */\n      0xffffffffffffffffffffffffffffffffffffffff\n      and\n      0x42842e0e\n        /* \"NFT-Contracts/contracts/market_pri/nft_market.sol\":5890:5894  this */\n      address\n        /* \"NFT-Contracts/contracts/market_pri/nft_market.sol\":5910:5920  msg.sender */\n      caller\n        /* \"NFT-Contracts/contracts/market_pri/nft_market.sol\":5935:5943  _tokenId */\n      dup12\n        /* \"NFT-Contracts/contracts/market_pri/nft_market.sol\":5822:5954  IERC721(_nftContractAddress).safeTransferFrom(... */\n      mload(0x40)\n      dup5\n      0xffffffff\n      and\n      0xe0\n      shl\n      dup2\n      mstore\n      0x04\n      add\n      tag_124\n      swap4\n      swap3\n      swap2\n      swap1\n      tag_100\n      jump\t// in\n    tag_124:\n      0x00\n      mload(0x40)\n      dup1\n      dup4\n      sub\n      dup2\n      0x00\n      dup8\n      dup1\n      extcodesize\n      iszero\n      dup1\n      iszero\n      tag_125\n      jumpi\n      0x00\n      dup1\n      revert\n    tag_125:\n      pop\n      gas\n      call\n      iszero\n      dup1\n      iszero\n      tag_127\n      jumpi\n      returndatasize\n      0x00\n      dup1\n      returndatacopy\n      revert(0x00, returndatasize)\n    tag_127:\n      pop\n      pop\n      pop\n      pop\n        /* \"NFT-Contracts/contracts/market_pri/nft_market.sol\":6014:6015  0 */\n      0x00\n        /* \"NFT-Contracts/contracts/market_pri/nft_market.sol\":5967:5980  nftSaleStatus */\n      0x01\n        /* \"NFT-Contracts/contracts/market_pri/nft_market.sol\":5967:6001  nftSaleStatus[_nftContractAddress] */\n      0x00\n        /* \"NFT-Contracts/contracts/market_pri/nft_market.sol\":5981:6000  _nftContractAddress */\n      dup12\n        /* \"NFT-Contracts/contracts/market_pri/nft_market.sol\":5967:6001  nftSaleStatus[_nftContractAddress] */\n      0xffffffffffffffffffffffffffffffffffffffff\n      and\n      0xffffffffffffffffffffffffffffffffffffffff\n      and\n      dup2\n      mstore\n      0x20\n      add\n      swap1\n      dup2\n      mstore\n      0x20\n      add\n      0x00\n      keccak256\n        /* \"NFT-Contracts/contracts/market_pri/nft_market.sol\":5967:6011  nftSaleStatus[_nftContractAddress][_tokenId] */\n      0x00\n        /* \"NFT-Contracts/contracts/market_pri/nft_market.sol\":6002:6010  _tokenId */\n      dup11\n        /* \"NFT-Contracts/contracts/market_pri/nft_market.sol\":5967:6011  nftSaleStatus[_nftContractAddress][_tokenId] */\n      dup2\n      mstore\n      0x20\n      add\n      swap1\n      dup2\n      mstore\n      0x20\n      add\n      0x00\n      keccak256\n        /* \"NFT-Contracts/contracts/market_pri/nft_market.sol\":5967:6015  nftSaleStatus[_nftContractAddress][_tokenId] = 0 */\n      dup2\n      swap1\n      sstore\n      pop\n        /* \"NFT-Contracts/contracts/market_pri/nft_market.sol\":6033:6045  fixedSaleNFT */\n      0x03\n        /* \"NFT-Contracts/contracts/market_pri/nft_market.sol\":6047:6064  indexFixedSaleNFT */\n      0x02\n        /* \"NFT-Contracts/contracts/market_pri/nft_market.sol\":6047:6085  indexFixedSaleNFT[_nftContractAddress] */\n      0x00\n        /* \"NFT-Contracts/contracts/market_pri/nft_market.sol\":6065:6084  _nftContractAddress */\n      dup12\n        /* \"NFT-Contracts/contracts/market_pri/nft_market.sol\":6047:6085  indexFixedSaleNFT[_nftContractAddress] */\n      0xffffffffffffffffffffffffffffffffffffffff\n      and\n      0xffffffffffffffffffffffffffffffffffffffff\n      and\n      dup2\n      mstore\n      0x20\n      add\n      swap1\n      dup2\n      mstore\n      0x20\n      add\n      0x00\n      keccak256\n        /* \"NFT-Contracts/contracts/market_pri/nft_market.sol\":6047:6095  indexFixedSaleNFT[_nftContractAddress][_tokenId] */\n      0x00\n        /* \"NFT-Contracts/contracts/market_pri/nft_market.sol\":6086:6094  _tokenId */\n      dup11\n        /* \"NFT-Contracts/contracts/market_pri/nft_market.sol\":6047:6095  indexFixedSaleNFT[_nftContractAddress][_tokenId] */\n      dup2\n      mstore\n      0x20\n      add\n      swap1\n      dup2\n      mstore\n      0x20\n      add\n      0x00\n      keccak256\n      sload\n        /* \"NFT-Contracts/contracts/market_pri/nft_market.sol\":6033:6097  fixedSaleNFT[(indexFixedSaleNFT[_nftContractAddress][_tokenId])] */\n      dup2\n      sload\n      dup2\n      lt\n      tag_128\n      jumpi\n      tag_129\n      tag_130\n      jump\t// in\n    tag_129:\n    tag_128:\n      swap1\n      0x00\n      mstore\n      keccak256(0x00, 0x20)\n      swap1\n      0x02\n      mul\n      add\n      0x00\n        /* \"NFT-Contracts/contracts/market_pri/nft_market.sol\":6026:6097  delete fixedSaleNFT[(indexFixedSaleNFT[_nftContractAddress][_tokenId])] */\n      dup1\n      dup3\n      add\n      exp(0x0100, 0x00)\n      dup2\n      sload\n      swap1\n      0xffffffffffffffffffffffffffffffffffffffff\n      mul\n      not\n      and\n      swap1\n      sstore\n      0x01\n      dup3\n      add\n      0x00\n      swap1\n      sstore\n      pop\n      pop\n        /* \"NFT-Contracts/contracts/market_pri/nft_market.sol\":6173:6197  msg... */\n      caller\n        /* \"NFT-Contracts/contracts/market_pri/nft_market.sol\":6110:6130  nftContractFixedSale */\n      0x00\n        /* \"NFT-Contracts/contracts/market_pri/nft_market.sol\":6110:6151  nftContractFixedSale[_nftContractAddress] */\n      dup1\n        /* \"NFT-Contracts/contracts/market_pri/nft_market.sol\":6131:6150  _nftContractAddress */\n      dup12\n        /* \"NFT-Contracts/contracts/market_pri/nft_market.sol\":6110:6151  nftContractFixedSale[_nftContractAddress] */\n      0xffffffffffffffffffffffffffffffffffffffff\n      and\n      0xffffffffffffffffffffffffffffffffffffffff\n      and\n      dup2\n      mstore\n      0x20\n      add\n      swap1\n      dup2\n      mstore\n      0x20\n      add\n      0x00\n      keccak256\n        /* \"NFT-Contracts/contracts/market_pri/nft_market.sol\":6110:6161  nftContractFixedSale[_nftContractAddress][_tokenId] */\n      0x00\n        /* \"NFT-Contracts/contracts/market_pri/nft_market.sol\":6152:6160  _tokenId */\n      dup11\n        /* \"NFT-Contracts/contracts/market_pri/nft_market.sol\":6110:6161  nftContractFixedSale[_nftContractAddress][_tokenId] */\n      dup2\n      mstore\n      0x20\n      add\n      swap1\n      dup2\n      mstore\n      0x20\n      add\n      0x00\n      keccak256\n        /* \"NFT-Contracts/contracts/market_pri/nft_market.sol\":6110:6170  nftContractFixedSale[_nftContractAddress][_tokenId].nftBuyer */\n      0x01\n      add\n      0x00\n        /* \"NFT-Contracts/contracts/market_pri/nft_market.sol\":6110:6197  nftContractFixedSale[_nftContractAddress][_tokenId].nftBuyer = msg... */\n      0x0100\n      exp\n      dup2\n      sload\n      dup2\n      0xffffffffffffffffffffffffffffffffffffffff\n      mul\n      not\n      and\n      swap1\n      dup4\n      0xffffffffffffffffffffffffffffffffffffffff\n      and\n      mul\n      or\n      swap1\n      sstore\n      pop\n        /* \"NFT-Contracts/contracts/market_pri/nft_market.sol\":6210:6459  _isTokenOrCoin(... */\n      tag_132\n        /* \"NFT-Contracts/contracts/market_pri/nft_market.sol\":6239:6259  nftContractFixedSale */\n      0x00\n        /* \"NFT-Contracts/contracts/market_pri/nft_market.sol\":6239:6280  nftContractFixedSale[_nftContractAddress] */\n      dup1\n        /* \"NFT-Contracts/contracts/market_pri/nft_market.sol\":6260:6279  _nftContractAddress */\n      dup12\n        /* \"NFT-Contracts/contracts/market_pri/nft_market.sol\":6239:6280  nftContractFixedSale[_nftContractAddress] */\n      0xffffffffffffffffffffffffffffffffffffffff\n      and\n      0xffffffffffffffffffffffffffffffffffffffff\n      and\n      dup2\n      mstore\n      0x20\n      add\n      swap1\n      dup2\n      mstore\n      0x20\n      add\n      0x00\n      keccak256\n        /* \"NFT-Contracts/contracts/market_pri/nft_market.sol\":6239:6290  nftContractFixedSale[_nftContractAddress][_tokenId] */\n      0x00\n        /* \"NFT-Contracts/contracts/market_pri/nft_market.sol\":6281:6289  _tokenId */\n      dup11\n        /* \"NFT-Contracts/contracts/market_pri/nft_market.sol\":6239:6290  nftContractFixedSale[_nftContractAddress][_tokenId] */\n      dup2\n      mstore\n      0x20\n      add\n      swap1\n      dup2\n      mstore\n      0x20\n      add\n      0x00\n      keccak256\n        /* \"NFT-Contracts/contracts/market_pri/nft_market.sol\":6239:6300  nftContractFixedSale[_nftContractAddress][_tokenId].nftSeller */\n      0x00\n      add\n      0x00\n      swap1\n      sload\n      swap1\n      0x0100\n      exp\n      swap1\n      div\n      0xffffffffffffffffffffffffffffffffffffffff\n      and\n        /* \"NFT-Contracts/contracts/market_pri/nft_market.sol\":6315:6335  nftContractFixedSale */\n      0x00\n        /* \"NFT-Contracts/contracts/market_pri/nft_market.sol\":6315:6356  nftContractFixedSale[_nftContractAddress] */\n      dup1\n        /* \"NFT-Contracts/contracts/market_pri/nft_market.sol\":6336:6355  _nftContractAddress */\n      dup13\n        /* \"NFT-Contracts/contracts/market_pri/nft_market.sol\":6315:6356  nftContractFixedSale[_nftContractAddress] */\n      0xffffffffffffffffffffffffffffffffffffffff\n      and\n      0xffffffffffffffffffffffffffffffffffffffff\n      and\n      dup2\n      mstore\n      0x20\n      add\n      swap1\n      dup2\n      mstore\n      0x20\n      add\n      0x00\n      keccak256\n        /* \"NFT-Contracts/contracts/market_pri/nft_market.sol\":6315:6366  nftContractFixedSale[_nftContractAddress][_tokenId] */\n      0x00\n        /* \"NFT-Contracts/contracts/market_pri/nft_market.sol\":6357:6365  _tokenId */\n      dup12\n        /* \"NFT-Contracts/contracts/market_pri/nft_market.sol\":6315:6366  nftContractFixedSale[_nftContractAddress][_tokenId] */\n      dup2\n      mstore\n      0x20\n      add\n      swap1\n      dup2\n      mstore\n      0x20\n      add\n      0x00\n      keccak256\n        /* \"NFT-Contracts/contracts/market_pri/nft_market.sol\":6315:6372  nftContractFixedSale[_nftContractAddress][_tokenId].erc20 */\n      0x02\n      add\n      0x00\n      swap1\n      sload\n      swap1\n      0x0100\n      exp\n      swap1\n      div\n      0xffffffffffffffffffffffffffffffffffffffff\n      and\n        /* \"NFT-Contracts/contracts/market_pri/nft_market.sol\":6387:6407  nftContractFixedSale */\n      0x00\n        /* \"NFT-Contracts/contracts/market_pri/nft_market.sol\":6387:6428  nftContractFixedSale[_nftContractAddress] */\n      dup1\n        /* \"NFT-Contracts/contracts/market_pri/nft_market.sol\":6408:6427  _nftContractAddress */\n      dup14\n        /* \"NFT-Contracts/contracts/market_pri/nft_market.sol\":6387:6428  nftContractFixedSale[_nftContractAddress] */\n      0xffffffffffffffffffffffffffffffffffffffff\n      and\n      0xffffffffffffffffffffffffffffffffffffffff\n      and\n      dup2\n      mstore\n      0x20\n      add\n      swap1\n      dup2\n      mstore\n      0x20\n      add\n      0x00\n      keccak256\n        /* \"NFT-Contracts/contracts/market_pri/nft_market.sol\":6387:6438  nftContractFixedSale[_nftContractAddress][_tokenId] */\n      0x00\n        /* \"NFT-Contracts/contracts/market_pri/nft_market.sol\":6429:6437  _tokenId */\n      dup13\n        /* \"NFT-Contracts/contracts/market_pri/nft_market.sol\":6387:6438  nftContractFixedSale[_nftContractAddress][_tokenId] */\n      dup2\n      mstore\n      0x20\n      add\n      swap1\n      dup2\n      mstore\n      0x20\n      add\n      0x00\n      keccak256\n        /* \"NFT-Contracts/contracts/market_pri/nft_market.sol\":6387:6448  nftContractFixedSale[_nftContractAddress][_tokenId].salePrice */\n      0x03\n      add\n      sload\n        /* \"NFT-Contracts/contracts/market_pri/nft_market.sol\":6210:6224  _isTokenOrCoin */\n      tag_133\n        /* \"NFT-Contracts/contracts/market_pri/nft_market.sol\":6210:6459  _isTokenOrCoin(... */\n      jump\t// in\n    tag_132:\n        /* \"NFT-Contracts/contracts/market_pri/nft_market.sol\":6477:6611  NftBuyFromFixedSale(... */\n      0x9fa3b1bb9266e05722b54a7a564d02a274bc80d39f4af21e6be405480996ceba\n        /* \"NFT-Contracts/contracts/market_pri/nft_market.sol\":6511:6530  _nftContractAddress */\n      dup10\n        /* \"NFT-Contracts/contracts/market_pri/nft_market.sol\":6545:6555  msg.sender */\n      caller\n        /* \"NFT-Contracts/contracts/market_pri/nft_market.sol\":6570:6578  _tokenId */\n      dup11\n        /* \"NFT-Contracts/contracts/market_pri/nft_market.sol\":6593:6600  _amount */\n      dup11\n        /* \"NFT-Contracts/contracts/market_pri/nft_market.sol\":6477:6611  NftBuyFromFixedSale(... */\n      mload(0x40)\n      tag_134\n      swap5\n      swap4\n      swap3\n      swap2\n      swap1\n      tag_135\n      jump\t// in\n    tag_134:\n      mload(0x40)\n      dup1\n      swap2\n      sub\n      swap1\n      log1\n        /* \"NFT-Contracts/contracts/market_pri/nft_market.sol\":3116:3117  _ */\n      pop\n      pop\n      pop\n        /* \"NFT-Contracts/contracts/market_pri/nft_market.sol\":1826:1827  _ */\n      pop\n        /* \"NFT-Contracts/contracts/market_pri/nft_market.sol\":5480:6619  function buyFromFixedSale(... */\n      pop\n      pop\n      pop\n      pop\n      pop\n      jump\t// out\n        /* \"NFT-Contracts/contracts/market_pri/nft_market.sol\":4300:4886  function cancelFixedsale(address _nftContractAddress, uint256 _tokenId)... */\n    tag_55:\n        /* \"NFT-Contracts/contracts/market_pri/nft_market.sol\":4416:4435  _nftContractAddress */\n      dup2\n        /* \"NFT-Contracts/contracts/market_pri/nft_market.sol\":4437:4445  _tokenId */\n      dup2\n        /* \"NFT-Contracts/contracts/market_pri/nft_market.sol\":1765:1766  1 */\n      0x01\n        /* \"NFT-Contracts/contracts/market_pri/nft_market.sol\":1717:1730  nftSaleStatus */\n      dup1\n        /* \"NFT-Contracts/contracts/market_pri/nft_market.sol\":1717:1751  nftSaleStatus[_nftContractAddress] */\n      0x00\n        /* \"NFT-Contracts/contracts/market_pri/nft_market.sol\":1731:1750  _nftContractAddress */\n      dup5\n        /* \"NFT-Contracts/contracts/market_pri/nft_market.sol\":1717:1751  nftSaleStatus[_nftContractAddress] */\n      0xffffffffffffffffffffffffffffffffffffffff\n      and\n      0xffffffffffffffffffffffffffffffffffffffff\n      and\n      dup2\n      mstore\n      0x20\n      add\n      swap1\n      dup2\n      mstore\n      0x20\n      add\n      0x00\n      keccak256\n        /* \"NFT-Contracts/contracts/market_pri/nft_market.sol\":1717:1761  nftSaleStatus[_nftContractAddress][_tokenId] */\n      0x00\n        /* \"NFT-Contracts/contracts/market_pri/nft_market.sol\":1752:1760  _tokenId */\n      dup4\n        /* \"NFT-Contracts/contracts/market_pri/nft_market.sol\":1717:1761  nftSaleStatus[_nftContractAddress][_tokenId] */\n      dup2\n      mstore\n      0x20\n      add\n      swap1\n      dup2\n      mstore\n      0x20\n      add\n      0x00\n      keccak256\n      sload\n        /* \"NFT-Contracts/contracts/market_pri/nft_market.sol\":1717:1766  nftSaleStatus[_nftContractAddress][_tokenId] == 1 */\n      eq\n        /* \"NFT-Contracts/contracts/market_pri/nft_market.sol\":1695:1815  require(... */\n      tag_137\n      jumpi\n      mload(0x40)\n      0x08c379a000000000000000000000000000000000000000000000000000000000\n      dup2\n      mstore\n      0x04\n      add\n      tag_138\n      swap1\n      tag_60\n      jump\t// in\n    tag_138:\n      mload(0x40)\n      dup1\n      swap2\n      sub\n      swap1\n      revert\n    tag_137:\n        /* \"NFT-Contracts/contracts/market_pri/nft_market.sol\":4475:4494  _nftContractAddress */\n      dup4\n        /* \"NFT-Contracts/contracts/market_pri/nft_market.sol\":4496:4504  _tokenId */\n      dup4\n        /* \"NFT-Contracts/contracts/market_pri/nft_market.sol\":2227:2247  nftContractFixedSale */\n      0x00\n        /* \"NFT-Contracts/contracts/market_pri/nft_market.sol\":2227:2268  nftContractFixedSale[_nftContractAddress] */\n      dup1\n        /* \"NFT-Contracts/contracts/market_pri/nft_market.sol\":2248:2267  _nftContractAddress */\n      dup4\n        /* \"NFT-Contracts/contracts/market_pri/nft_market.sol\":2227:2268  nftContractFixedSale[_nftContractAddress] */\n      0xffffffffffffffffffffffffffffffffffffffff\n      and\n      0xffffffffffffffffffffffffffffffffffffffff\n      and\n      dup2\n      mstore\n      0x20\n      add\n      swap1\n      dup2\n      mstore\n      0x20\n      add\n      0x00\n      keccak256\n        /* \"NFT-Contracts/contracts/market_pri/nft_market.sol\":2227:2278  nftContractFixedSale[_nftContractAddress][_tokenId] */\n      0x00\n        /* \"NFT-Contracts/contracts/market_pri/nft_market.sol\":2269:2277  _tokenId */\n      dup3\n        /* \"NFT-Contracts/contracts/market_pri/nft_market.sol\":2227:2278  nftContractFixedSale[_nftContractAddress][_tokenId] */\n      dup2\n      mstore\n      0x20\n      add\n      swap1\n      dup2\n      mstore\n      0x20\n      add\n      0x00\n      keccak256\n        /* \"NFT-Contracts/contracts/market_pri/nft_market.sol\":2227:2288  nftContractFixedSale[_nftContractAddress][_tokenId].nftSeller */\n      0x00\n      add\n      0x00\n      swap1\n      sload\n      swap1\n      0x0100\n      exp\n      swap1\n      div\n      0xffffffffffffffffffffffffffffffffffffffff\n      and\n        /* \"NFT-Contracts/contracts/market_pri/nft_market.sol\":2196:2288  msg.sender ==... */\n      0xffffffffffffffffffffffffffffffffffffffff\n      and\n        /* \"NFT-Contracts/contracts/market_pri/nft_market.sol\":2196:2206  msg.sender */\n      caller\n        /* \"NFT-Contracts/contracts/market_pri/nft_market.sol\":2196:2288  msg.sender ==... */\n      0xffffffffffffffffffffffffffffffffffffffff\n      and\n      eq\n        /* \"NFT-Contracts/contracts/market_pri/nft_market.sol\":2174:2337  require(... */\n      tag_140\n      jumpi\n      mload(0x40)\n      0x08c379a000000000000000000000000000000000000000000000000000000000\n      dup2\n      mstore\n      0x04\n      add\n      tag_141\n      swap1\n      tag_64\n      jump\t// in\n    tag_141:\n      mload(0x40)\n      dup1\n      swap2\n      sub\n      swap1\n      revert\n    tag_140:\n        /* \"NFT-Contracts/contracts/market_pri/nft_market.sol\":4530:4549  _nftContractAddress */\n      dup6\n        /* \"NFT-Contracts/contracts/market_pri/nft_market.sol\":4522:4567  IERC721(_nftContractAddress).safeTransferFrom */\n      0xffffffffffffffffffffffffffffffffffffffff\n      and\n      0x42842e0e\n        /* \"NFT-Contracts/contracts/market_pri/nft_market.sol\":4590:4594  this */\n      address\n        /* \"NFT-Contracts/contracts/market_pri/nft_market.sol\":4610:4620  msg.sender */\n      caller\n        /* \"NFT-Contracts/contracts/market_pri/nft_market.sol\":4635:4643  _tokenId */\n      dup9\n        /* \"NFT-Contracts/contracts/market_pri/nft_market.sol\":4522:4654  IERC721(_nftContractAddress).safeTransferFrom(... */\n      mload(0x40)\n      dup5\n      0xffffffff\n      and\n      0xe0\n      shl\n      dup2\n      mstore\n      0x04\n      add\n      tag_143\n      swap4\n      swap3\n      swap2\n      swap1\n      tag_100\n      jump\t// in\n    tag_143:\n      0x00\n      mload(0x40)\n      dup1\n      dup4\n      sub\n      dup2\n      0x00\n      dup8\n      dup1\n      extcodesize\n      iszero\n      dup1\n      iszero\n      tag_144\n      jumpi\n      0x00\n      dup1\n      revert\n    tag_144:\n      pop\n      gas\n      call\n      iszero\n      dup1\n      iszero\n      tag_146\n      jumpi\n      returndatasize\n      0x00\n      dup1\n      returndatacopy\n      revert(0x00, returndatasize)\n    tag_146:\n      pop\n      pop\n      pop\n      pop\n        /* \"NFT-Contracts/contracts/market_pri/nft_market.sol\":4714:4715  0 */\n      0x00\n        /* \"NFT-Contracts/contracts/market_pri/nft_market.sol\":4667:4680  nftSaleStatus */\n      0x01\n        /* \"NFT-Contracts/contracts/market_pri/nft_market.sol\":4667:4701  nftSaleStatus[_nftContractAddress] */\n      0x00\n        /* \"NFT-Contracts/contracts/market_pri/nft_market.sol\":4681:4700  _nftContractAddress */\n      dup9\n        /* \"NFT-Contracts/contracts/market_pri/nft_market.sol\":4667:4701  nftSaleStatus[_nftContractAddress] */\n      0xffffffffffffffffffffffffffffffffffffffff\n      and\n      0xffffffffffffffffffffffffffffffffffffffff\n      and\n      dup2\n      mstore\n      0x20\n      add\n      swap1\n      dup2\n      mstore\n      0x20\n      add\n      0x00\n      keccak256\n        /* \"NFT-Contracts/contracts/market_pri/nft_market.sol\":4667:4711  nftSaleStatus[_nftContractAddress][_tokenId] */\n      0x00\n        /* \"NFT-Contracts/contracts/market_pri/nft_market.sol\":4702:4710  _tokenId */\n      dup8\n        /* \"NFT-Contracts/contracts/market_pri/nft_market.sol\":4667:4711  nftSaleStatus[_nftContractAddress][_tokenId] */\n      dup2\n      mstore\n      0x20\n      add\n      swap1\n      dup2\n      mstore\n      0x20\n      add\n      0x00\n      keccak256\n        /* \"NFT-Contracts/contracts/market_pri/nft_market.sol\":4667:4715  nftSaleStatus[_nftContractAddress][_tokenId] = 0 */\n      dup2\n      swap1\n      sstore\n      pop\n        /* \"NFT-Contracts/contracts/market_pri/nft_market.sol\":4735:4747  fixedSaleNFT */\n      0x03\n        /* \"NFT-Contracts/contracts/market_pri/nft_market.sol\":4749:4766  indexFixedSaleNFT */\n      0x02\n        /* \"NFT-Contracts/contracts/market_pri/nft_market.sol\":4749:4787  indexFixedSaleNFT[_nftContractAddress] */\n      0x00\n        /* \"NFT-Contracts/contracts/market_pri/nft_market.sol\":4767:4786  _nftContractAddress */\n      dup9\n        /* \"NFT-Contracts/contracts/market_pri/nft_market.sol\":4749:4787  indexFixedSaleNFT[_nftContractAddress] */\n      0xffffffffffffffffffffffffffffffffffffffff\n      and\n      0xffffffffffffffffffffffffffffffffffffffff\n      and\n      dup2\n      mstore\n      0x20\n      add\n      swap1\n      dup2\n      mstore\n      0x20\n      add\n      0x00\n      keccak256\n        /* \"NFT-Contracts/contracts/market_pri/nft_market.sol\":4749:4797  indexFixedSaleNFT[_nftContractAddress][_tokenId] */\n      0x00\n        /* \"NFT-Contracts/contracts/market_pri/nft_market.sol\":4788:4796  _tokenId */\n      dup8\n        /* \"NFT-Contracts/contracts/market_pri/nft_market.sol\":4749:4797  indexFixedSaleNFT[_nftContractAddress][_tokenId] */\n      dup2\n      mstore\n      0x20\n      add\n      swap1\n      dup2\n      mstore\n      0x20\n      add\n      0x00\n      keccak256\n      sload\n        /* \"NFT-Contracts/contracts/market_pri/nft_market.sol\":4735:4799  fixedSaleNFT[(indexFixedSaleNFT[_nftContractAddress][_tokenId])] */\n      dup2\n      sload\n      dup2\n      lt\n      tag_147\n      jumpi\n      tag_148\n      tag_130\n      jump\t// in\n    tag_148:\n    tag_147:\n      swap1\n      0x00\n      mstore\n      keccak256(0x00, 0x20)\n      swap1\n      0x02\n      mul\n      add\n      0x00\n        /* \"NFT-Contracts/contracts/market_pri/nft_market.sol\":4728:4799  delete fixedSaleNFT[(indexFixedSaleNFT[_nftContractAddress][_tokenId])] */\n      dup1\n      dup3\n      add\n      exp(0x0100, 0x00)\n      dup2\n      sload\n      swap1\n      0xffffffffffffffffffffffffffffffffffffffff\n      mul\n      not\n      and\n      swap1\n      sstore\n      0x01\n      dup3\n      add\n      0x00\n      swap1\n      sstore\n      pop\n      pop\n        /* \"NFT-Contracts/contracts/market_pri/nft_market.sol\":4817:4878  CancelNftFixedSale(_nftContractAddress, msg.sender, _tokenId) */\n      0xd7348ff00cf381a884144b50b3441398a48a7974ec349287df80e18cec9f5a31\n        /* \"NFT-Contracts/contracts/market_pri/nft_market.sol\":4836:4855  _nftContractAddress */\n      dup7\n        /* \"NFT-Contracts/contracts/market_pri/nft_market.sol\":4857:4867  msg.sender */\n      caller\n        /* \"NFT-Contracts/contracts/market_pri/nft_market.sol\":4869:4877  _tokenId */\n      dup8\n        /* \"NFT-Contracts/contracts/market_pri/nft_market.sol\":4817:4878  CancelNftFixedSale(_nftContractAddress, msg.sender, _tokenId) */\n      mload(0x40)\n      tag_150\n      swap4\n      swap3\n      swap2\n      swap1\n      tag_100\n      jump\t// in\n    tag_150:\n      mload(0x40)\n      dup1\n      swap2\n      sub\n      swap1\n      log1\n        /* \"NFT-Contracts/contracts/market_pri/nft_market.sol\":1826:1827  _ */\n      pop\n      pop\n        /* \"NFT-Contracts/contracts/market_pri/nft_market.sol\":4300:4886  function cancelFixedsale(address _nftContractAddress, uint256 _tokenId)... */\n      pop\n      pop\n      pop\n      pop\n      jump\t// out\n        /* \"NFT-Contracts/contracts/market_pri/nft_market.sol\":7206:7530  function _isTokenOrCoin(... */\n    tag_133:\n        /* \"NFT-Contracts/contracts/market_pri/nft_market.sol\":7362:7363  0 */\n      0x00\n        /* \"NFT-Contracts/contracts/market_pri/nft_market.sol\":7344:7364  _erc20 != address(0) */\n      0xffffffffffffffffffffffffffffffffffffffff\n      and\n        /* \"NFT-Contracts/contracts/market_pri/nft_market.sol\":7344:7350  _erc20 */\n      dup3\n        /* \"NFT-Contracts/contracts/market_pri/nft_market.sol\":7344:7364  _erc20 != address(0) */\n      0xffffffffffffffffffffffffffffffffffffffff\n      and\n      eq\n        /* \"NFT-Contracts/contracts/market_pri/nft_market.sol\":7340:7523  if (_erc20 != address(0)) {... */\n      tag_152\n      jumpi\n        /* \"NFT-Contracts/contracts/market_pri/nft_market.sol\":7381:7433  _tokenAmountTransfer(_nftSeller, _erc20, _buyAmount) */\n      tag_153\n        /* \"NFT-Contracts/contracts/market_pri/nft_market.sol\":7402:7412  _nftSeller */\n      dup4\n        /* \"NFT-Contracts/contracts/market_pri/nft_market.sol\":7414:7420  _erc20 */\n      dup4\n        /* \"NFT-Contracts/contracts/market_pri/nft_market.sol\":7422:7432  _buyAmount */\n      dup4\n        /* \"NFT-Contracts/contracts/market_pri/nft_market.sol\":7381:7401  _tokenAmountTransfer */\n      tag_154\n        /* \"NFT-Contracts/contracts/market_pri/nft_market.sol\":7381:7433  _tokenAmountTransfer(_nftSeller, _erc20, _buyAmount) */\n      jump\t// in\n    tag_153:\n        /* \"NFT-Contracts/contracts/market_pri/nft_market.sol\":7340:7523  if (_erc20 != address(0)) {... */\n      jump(tag_155)\n    tag_152:\n        /* \"NFT-Contracts/contracts/market_pri/nft_market.sol\":7466:7511  _nativeAmountTransfer(_nftSeller, _buyAmount) */\n      tag_156\n        /* \"NFT-Contracts/contracts/market_pri/nft_market.sol\":7488:7498  _nftSeller */\n      dup4\n        /* \"NFT-Contracts/contracts/market_pri/nft_market.sol\":7500:7510  _buyAmount */\n      dup3\n        /* \"NFT-Contracts/contracts/market_pri/nft_market.sol\":7466:7487  _nativeAmountTransfer */\n      tag_157\n        /* \"NFT-Contracts/contracts/market_pri/nft_market.sol\":7466:7511  _nativeAmountTransfer(_nftSeller, _buyAmount) */\n      jump\t// in\n    tag_156:\n        /* \"NFT-Contracts/contracts/market_pri/nft_market.sol\":7340:7523  if (_erc20 != address(0)) {... */\n    tag_155:\n        /* \"NFT-Contracts/contracts/market_pri/nft_market.sol\":7206:7530  function _isTokenOrCoin(... */\n      pop\n      pop\n      pop\n      jump\t// out\n        /* \"NFT-Contracts/contracts/market_pri/nft_market.sol\":7538:7819  function _tokenAmountTransfer(... */\n    tag_154:\n        /* \"NFT-Contracts/contracts/market_pri/nft_market.sol\":7707:7713  _erc20 */\n      dup2\n        /* \"NFT-Contracts/contracts/market_pri/nft_market.sol\":7700:7727  IERC20(_erc20).transferFrom */\n      0xffffffffffffffffffffffffffffffffffffffff\n      and\n      0x23b872dd\n        /* \"NFT-Contracts/contracts/market_pri/nft_market.sol\":7728:7738  msg.sender */\n      caller\n        /* \"NFT-Contracts/contracts/market_pri/nft_market.sol\":7740:7750  _nftSeller */\n      dup6\n        /* \"NFT-Contracts/contracts/market_pri/nft_market.sol\":7752:7762  _buyAmount */\n      dup5\n        /* \"NFT-Contracts/contracts/market_pri/nft_market.sol\":7700:7763  IERC20(_erc20).transferFrom(msg.sender, _nftSeller, _buyAmount) */\n      mload(0x40)\n      dup5\n      0xffffffff\n      and\n      0xe0\n      shl\n      dup2\n      mstore\n      0x04\n      add\n      tag_159\n      swap4\n      swap3\n      swap2\n      swap1\n      tag_100\n      jump\t// in\n    tag_159:\n      0x20\n      mload(0x40)\n      dup1\n      dup4\n      sub\n      dup2\n      0x00\n      dup8\n      gas\n      call\n      iszero\n      dup1\n      iszero\n      tag_161\n      jumpi\n      returndatasize\n      0x00\n      dup1\n      returndatacopy\n      revert(0x00, returndatasize)\n    tag_161:\n      pop\n      pop\n      pop\n      pop\n      mload(0x40)\n      returndatasize\n      not(0x1f)\n      0x1f\n      dup3\n      add\n      and\n      dup3\n      add\n      dup1\n      0x40\n      mstore\n      pop\n      dup2\n      add\n      swap1\n      tag_162\n      swap2\n      swap1\n      tag_90\n      jump\t// in\n    tag_162:\n        /* \"NFT-Contracts/contracts/market_pri/nft_market.sol\":7678:7811  require(... */\n      tag_163\n      jumpi\n      mload(0x40)\n      0x08c379a000000000000000000000000000000000000000000000000000000000\n      dup2\n      mstore\n      0x04\n      add\n      tag_164\n      swap1\n      tag_165\n      jump\t// in\n    tag_164:\n      mload(0x40)\n      dup1\n      swap2\n      sub\n      swap1\n      revert\n    tag_163:\n        /* \"NFT-Contracts/contracts/market_pri/nft_market.sol\":7538:7819  function _tokenAmountTransfer(... */\n      pop\n      pop\n      pop\n      jump\t// out\n        /* \"NFT-Contracts/contracts/market_pri/nft_market.sol\":7827:8041  function _nativeAmountTransfer(address _nftSeller, uint256 _buyAmount)... */\n    tag_157:\n        /* \"NFT-Contracts/contracts/market_pri/nft_market.sol\":7933:7945  bool success */\n      0x00\n        /* \"NFT-Contracts/contracts/market_pri/nft_market.sol\":7951:7961  _nftSeller */\n      dup3\n        /* \"NFT-Contracts/contracts/market_pri/nft_market.sol\":7951:7966  _nftSeller.call */\n      0xffffffffffffffffffffffffffffffffffffffff\n      and\n        /* \"NFT-Contracts/contracts/market_pri/nft_market.sol\":7974:7984  _buyAmount */\n      dup3\n        /* \"NFT-Contracts/contracts/market_pri/nft_market.sol\":7951:7989  _nftSeller.call{value: _buyAmount}(\"\") */\n      mload(0x40)\n      tag_167\n      swap1\n      tag_168\n      jump\t// in\n    tag_167:\n      0x00\n      mload(0x40)\n      dup1\n      dup4\n      sub\n      dup2\n      dup6\n      dup8\n      gas\n      call\n      swap3\n      pop\n      pop\n      pop\n      returndatasize\n      dup1\n      0x00\n      dup2\n      eq\n      tag_171\n      jumpi\n      mload(0x40)\n      swap2\n      pop\n      and(add(returndatasize, 0x3f), not(0x1f))\n      dup3\n      add\n      0x40\n      mstore\n      returndatasize\n      dup3\n      mstore\n      returndatasize\n      0x00\n      0x20\n      dup5\n      add\n      returndatacopy\n      jump(tag_170)\n    tag_171:\n      0x60\n      swap2\n      pop\n    tag_170:\n      pop\n        /* \"NFT-Contracts/contracts/market_pri/nft_market.sol\":7932:7989  (bool success, ) = _nftSeller.call{value: _buyAmount}(\"\") */\n      pop\n      swap1\n      pop\n        /* \"NFT-Contracts/contracts/market_pri/nft_market.sol\":8008:8015  success */\n      dup1\n        /* \"NFT-Contracts/contracts/market_pri/nft_market.sol\":8000:8033  require(success, \"refund failed\") */\n      tag_172\n      jumpi\n      mload(0x40)\n      0x08c379a000000000000000000000000000000000000000000000000000000000\n      dup2\n      mstore\n      0x04\n      add\n      tag_173\n      swap1\n      tag_174\n      jump\t// in\n    tag_173:\n      mload(0x40)\n      dup1\n      swap2\n      sub\n      swap1\n      revert\n    tag_172:\n        /* \"NFT-Contracts/contracts/market_pri/nft_market.sol\":7921:8041  {... */\n      pop\n        /* \"NFT-Contracts/contracts/market_pri/nft_market.sol\":7827:8041  function _nativeAmountTransfer(address _nftSeller, uint256 _buyAmount)... */\n      pop\n      pop\n      jump\t// out\n    tag_107:\n      mload(0x40)\n      dup1\n      0x80\n      add\n      0x40\n      mstore\n      dup1\n      and(0xffffffffffffffffffffffffffffffffffffffff, 0x00)\n      dup2\n      mstore\n      0x20\n      add\n      and(0xffffffffffffffffffffffffffffffffffffffff, 0x00)\n      dup2\n      mstore\n      0x20\n      add\n      and(0xffffffffffffffffffffffffffffffffffffffff, 0x00)\n      dup2\n      mstore\n      0x20\n      add\n      0x00\n      dup2\n      mstore\n      pop\n      swap1\n      jump\t// out\n        /* \"#utility.yul\":88:205   */\n    tag_176:\n        /* \"#utility.yul\":197:198   */\n      0x00\n        /* \"#utility.yul\":194:195   */\n      dup1\n        /* \"#utility.yul\":187:199   */\n      revert\n        /* \"#utility.yul\":211:328   */\n    tag_177:\n        /* \"#utility.yul\":320:321   */\n      0x00\n        /* \"#utility.yul\":317:318   */\n      dup1\n        /* \"#utility.yul\":310:322   */\n      revert\n        /* \"#utility.yul\":334:460   */\n    tag_178:\n        /* \"#utility.yul\":371:378   */\n      0x00\n        /* \"#utility.yul\":411:453   */\n      0xffffffffffffffffffffffffffffffffffffffff\n        /* \"#utility.yul\":404:409   */\n      dup3\n        /* \"#utility.yul\":400:454   */\n      and\n        /* \"#utility.yul\":389:454   */\n      swap1\n      pop\n        /* \"#utility.yul\":334:460   */\n      swap2\n      swap1\n      pop\n      jump\t// out\n        /* \"#utility.yul\":466:562   */\n    tag_179:\n        /* \"#utility.yul\":503:510   */\n      0x00\n        /* \"#utility.yul\":532:556   */\n      tag_233\n        /* \"#utility.yul\":550:555   */\n      dup3\n        /* \"#utility.yul\":532:556   */\n      tag_178\n      jump\t// in\n    tag_233:\n        /* \"#utility.yul\":521:556   */\n      swap1\n      pop\n        /* \"#utility.yul\":466:562   */\n      swap2\n      swap1\n      pop\n      jump\t// out\n        /* \"#utility.yul\":568:690   */\n    tag_180:\n        /* \"#utility.yul\":641:665   */\n      tag_235\n        /* \"#utility.yul\":659:664   */\n      dup2\n        /* \"#utility.yul\":641:665   */\n      tag_179\n      jump\t// in\n    tag_235:\n        /* \"#utility.yul\":634:639   */\n      dup2\n        /* \"#utility.yul\":631:666   */\n      eq\n        /* \"#utility.yul\":621:684   */\n      tag_236\n      jumpi\n        /* \"#utility.yul\":680:681   */\n      0x00\n        /* \"#utility.yul\":677:678   */\n      dup1\n        /* \"#utility.yul\":670:682   */\n      revert\n        /* \"#utility.yul\":621:684   */\n    tag_236:\n        /* \"#utility.yul\":568:690   */\n      pop\n      jump\t// out\n        /* \"#utility.yul\":696:835   */\n    tag_181:\n        /* \"#utility.yul\":742:747   */\n      0x00\n        /* \"#utility.yul\":780:786   */\n      dup2\n        /* \"#utility.yul\":767:787   */\n      calldataload\n        /* \"#utility.yul\":758:787   */\n      swap1\n      pop\n        /* \"#utility.yul\":796:829   */\n      tag_238\n        /* \"#utility.yul\":823:828   */\n      dup2\n        /* \"#utility.yul\":796:829   */\n      tag_180\n      jump\t// in\n    tag_238:\n        /* \"#utility.yul\":696:835   */\n      swap3\n      swap2\n      pop\n      pop\n      jump\t// out\n        /* \"#utility.yul\":841:918   */\n    tag_182:\n        /* \"#utility.yul\":878:885   */\n      0x00\n        /* \"#utility.yul\":907:912   */\n      dup2\n        /* \"#utility.yul\":896:912   */\n      swap1\n      pop\n        /* \"#utility.yul\":841:918   */\n      swap2\n      swap1\n      pop\n      jump\t// out\n        /* \"#utility.yul\":924:1046   */\n    tag_183:\n        /* \"#utility.yul\":997:1021   */\n      tag_241\n        /* \"#utility.yul\":1015:1020   */\n      dup2\n        /* \"#utility.yul\":997:1021   */\n      tag_182\n      jump\t// in\n    tag_241:\n        /* \"#utility.yul\":990:995   */\n      dup2\n        /* \"#utility.yul\":987:1022   */\n      eq\n        /* \"#utility.yul\":977:1040   */\n      tag_242\n      jumpi\n        /* \"#utility.yul\":1036:1037   */\n      0x00\n        /* \"#utility.yul\":1033:1034   */\n      dup1\n        /* \"#utility.yul\":1026:1038   */\n      revert\n        /* \"#utility.yul\":977:1040   */\n    tag_242:\n        /* \"#utility.yul\":924:1046   */\n      pop\n      jump\t// out\n        /* \"#utility.yul\":1052:1191   */\n    tag_184:\n        /* \"#utility.yul\":1098:1103   */\n      0x00\n        /* \"#utility.yul\":1136:1142   */\n      dup2\n        /* \"#utility.yul\":1123:1143   */\n      calldataload\n        /* \"#utility.yul\":1114:1143   */\n      swap1\n      pop\n        /* \"#utility.yul\":1152:1185   */\n      tag_244\n        /* \"#utility.yul\":1179:1184   */\n      dup2\n        /* \"#utility.yul\":1152:1185   */\n      tag_183\n      jump\t// in\n    tag_244:\n        /* \"#utility.yul\":1052:1191   */\n      swap3\n      swap2\n      pop\n      pop\n      jump\t// out\n        /* \"#utility.yul\":1197:1314   */\n    tag_185:\n        /* \"#utility.yul\":1306:1307   */\n      0x00\n        /* \"#utility.yul\":1303:1304   */\n      dup1\n        /* \"#utility.yul\":1296:1308   */\n      revert\n        /* \"#utility.yul\":1320:1437   */\n    tag_186:\n        /* \"#utility.yul\":1429:1430   */\n      0x00\n        /* \"#utility.yul\":1426:1427   */\n      dup1\n        /* \"#utility.yul\":1419:1431   */\n      revert\n        /* \"#utility.yul\":1443:1560   */\n    tag_187:\n        /* \"#utility.yul\":1552:1553   */\n      0x00\n        /* \"#utility.yul\":1549:1550   */\n      dup1\n        /* \"#utility.yul\":1542:1554   */\n      revert\n        /* \"#utility.yul\":1579:2131   */\n    tag_188:\n        /* \"#utility.yul\":1636:1644   */\n      0x00\n        /* \"#utility.yul\":1646:1652   */\n      dup1\n        /* \"#utility.yul\":1696:1699   */\n      dup4\n        /* \"#utility.yul\":1689:1693   */\n      0x1f\n        /* \"#utility.yul\":1681:1687   */\n      dup5\n        /* \"#utility.yul\":1677:1694   */\n      add\n        /* \"#utility.yul\":1673:1700   */\n      slt\n        /* \"#utility.yul\":1663:1785   */\n      tag_249\n      jumpi\n        /* \"#utility.yul\":1704:1783   */\n      tag_250\n      tag_185\n      jump\t// in\n    tag_250:\n        /* \"#utility.yul\":1663:1785   */\n    tag_249:\n        /* \"#utility.yul\":1817:1823   */\n      dup3\n        /* \"#utility.yul\":1804:1824   */\n      calldataload\n        /* \"#utility.yul\":1794:1824   */\n      swap1\n      pop\n        /* \"#utility.yul\":1847:1865   */\n      0xffffffffffffffff\n        /* \"#utility.yul\":1839:1845   */\n      dup2\n        /* \"#utility.yul\":1836:1866   */\n      gt\n        /* \"#utility.yul\":1833:1950   */\n      iszero\n      tag_251\n      jumpi\n        /* \"#utility.yul\":1869:1948   */\n      tag_252\n      tag_186\n      jump\t// in\n    tag_252:\n        /* \"#utility.yul\":1833:1950   */\n    tag_251:\n        /* \"#utility.yul\":1983:1987   */\n      0x20\n        /* \"#utility.yul\":1975:1981   */\n      dup4\n        /* \"#utility.yul\":1971:1988   */\n      add\n        /* \"#utility.yul\":1959:1988   */\n      swap2\n      pop\n        /* \"#utility.yul\":2037:2040   */\n      dup4\n        /* \"#utility.yul\":2029:2033   */\n      0x01\n        /* \"#utility.yul\":2021:2027   */\n      dup3\n        /* \"#utility.yul\":2017:2034   */\n      mul\n        /* \"#utility.yul\":2007:2015   */\n      dup4\n        /* \"#utility.yul\":2003:2035   */\n      add\n        /* \"#utility.yul\":2000:2041   */\n      gt\n        /* \"#utility.yul\":1997:2125   */\n      iszero\n      tag_253\n      jumpi\n        /* \"#utility.yul\":2044:2123   */\n      tag_254\n      tag_187\n      jump\t// in\n    tag_254:\n        /* \"#utility.yul\":1997:2125   */\n    tag_253:\n        /* \"#utility.yul\":1579:2131   */\n      swap3\n      pop\n      swap3\n      swap1\n      pop\n      jump\t// out\n        /* \"#utility.yul\":2137:3100   */\n    tag_17:\n        /* \"#utility.yul\":2234:2240   */\n      0x00\n        /* \"#utility.yul\":2242:2248   */\n      dup1\n        /* \"#utility.yul\":2250:2256   */\n      0x00\n        /* \"#utility.yul\":2258:2264   */\n      dup1\n        /* \"#utility.yul\":2266:2272   */\n      0x00\n        /* \"#utility.yul\":2315:2318   */\n      0x80\n        /* \"#utility.yul\":2303:2312   */\n      dup7\n        /* \"#utility.yul\":2294:2301   */\n      dup9\n        /* \"#utility.yul\":2290:2313   */\n      sub\n        /* \"#utility.yul\":2286:2319   */\n      slt\n        /* \"#utility.yul\":2283:2403   */\n      iszero\n      tag_256\n      jumpi\n        /* \"#utility.yul\":2322:2401   */\n      tag_257\n      tag_176\n      jump\t// in\n    tag_257:\n        /* \"#utility.yul\":2283:2403   */\n    tag_256:\n        /* \"#utility.yul\":2442:2443   */\n      0x00\n        /* \"#utility.yul\":2467:2520   */\n      tag_258\n        /* \"#utility.yul\":2512:2519   */\n      dup9\n        /* \"#utility.yul\":2503:2509   */\n      dup3\n        /* \"#utility.yul\":2492:2501   */\n      dup10\n        /* \"#utility.yul\":2488:2510   */\n      add\n        /* \"#utility.yul\":2467:2520   */\n      tag_181\n      jump\t// in\n    tag_258:\n        /* \"#utility.yul\":2457:2520   */\n      swap6\n      pop\n        /* \"#utility.yul\":2413:2530   */\n      pop\n        /* \"#utility.yul\":2569:2571   */\n      0x20\n        /* \"#utility.yul\":2595:2648   */\n      tag_259\n        /* \"#utility.yul\":2640:2647   */\n      dup9\n        /* \"#utility.yul\":2631:2637   */\n      dup3\n        /* \"#utility.yul\":2620:2629   */\n      dup10\n        /* \"#utility.yul\":2616:2638   */\n      add\n        /* \"#utility.yul\":2595:2648   */\n      tag_181\n      jump\t// in\n    tag_259:\n        /* \"#utility.yul\":2585:2648   */\n      swap5\n      pop\n        /* \"#utility.yul\":2540:2658   */\n      pop\n        /* \"#utility.yul\":2697:2699   */\n      0x40\n        /* \"#utility.yul\":2723:2776   */\n      tag_260\n        /* \"#utility.yul\":2768:2775   */\n      dup9\n        /* \"#utility.yul\":2759:2765   */\n      dup3\n        /* \"#utility.yul\":2748:2757   */\n      dup10\n        /* \"#utility.yul\":2744:2766   */\n      add\n        /* \"#utility.yul\":2723:2776   */\n      tag_184\n      jump\t// in\n    tag_260:\n        /* \"#utility.yul\":2713:2776   */\n      swap4\n      pop\n        /* \"#utility.yul\":2668:2786   */\n      pop\n        /* \"#utility.yul\":2853:2855   */\n      0x60\n        /* \"#utility.yul\":2842:2851   */\n      dup7\n        /* \"#utility.yul\":2838:2856   */\n      add\n        /* \"#utility.yul\":2825:2857   */\n      calldataload\n        /* \"#utility.yul\":2884:2902   */\n      0xffffffffffffffff\n        /* \"#utility.yul\":2876:2882   */\n      dup2\n        /* \"#utility.yul\":2873:2903   */\n      gt\n        /* \"#utility.yul\":2870:2987   */\n      iszero\n      tag_261\n      jumpi\n        /* \"#utility.yul\":2906:2985   */\n      tag_262\n      tag_177\n      jump\t// in\n    tag_262:\n        /* \"#utility.yul\":2870:2987   */\n    tag_261:\n        /* \"#utility.yul\":3019:3083   */\n      tag_263\n        /* \"#utility.yul\":3075:3082   */\n      dup9\n        /* \"#utility.yul\":3066:3072   */\n      dup3\n        /* \"#utility.yul\":3055:3064   */\n      dup10\n        /* \"#utility.yul\":3051:3073   */\n      add\n        /* \"#utility.yul\":3019:3083   */\n      tag_188\n      jump\t// in\n    tag_263:\n        /* \"#utility.yul\":3001:3083   */\n      swap3\n      pop\n      swap3\n      pop\n        /* \"#utility.yul\":2796:3093   */\n      pop\n        /* \"#utility.yul\":2137:3100   */\n      swap3\n      swap6\n      pop\n      swap3\n      swap6\n      swap1\n      swap4\n      pop\n      jump\t// out\n        /* \"#utility.yul\":3106:3255   */\n    tag_189:\n        /* \"#utility.yul\":3142:3149   */\n      0x00\n        /* \"#utility.yul\":3182:3248   */\n      0xffffffff00000000000000000000000000000000000000000000000000000000\n        /* \"#utility.yul\":3175:3180   */\n      dup3\n        /* \"#utility.yul\":3171:3249   */\n      and\n        /* \"#utility.yul\":3160:3249   */\n      swap1\n      pop\n        /* \"#utility.yul\":3106:3255   */\n      swap2\n      swap1\n      pop\n      jump\t// out\n        /* \"#utility.yul\":3261:3376   */\n    tag_190:\n        /* \"#utility.yul\":3346:3369   */\n      tag_266\n        /* \"#utility.yul\":3363:3368   */\n      dup2\n        /* \"#utility.yul\":3346:3369   */\n      tag_189\n      jump\t// in\n    tag_266:\n        /* \"#utility.yul\":3341:3344   */\n      dup3\n        /* \"#utility.yul\":3334:3370   */\n      mstore\n        /* \"#utility.yul\":3261:3376   */\n      pop\n      pop\n      jump\t// out\n        /* \"#utility.yul\":3382:3600   */\n    tag_20:\n        /* \"#utility.yul\":3473:3477   */\n      0x00\n        /* \"#utility.yul\":3511:3513   */\n      0x20\n        /* \"#utility.yul\":3500:3509   */\n      dup3\n        /* \"#utility.yul\":3496:3514   */\n      add\n        /* \"#utility.yul\":3488:3514   */\n      swap1\n      pop\n        /* \"#utility.yul\":3524:3593   */\n      tag_268\n        /* \"#utility.yul\":3590:3591   */\n      0x00\n        /* \"#utility.yul\":3579:3588   */\n      dup4\n        /* \"#utility.yul\":3575:3592   */\n      add\n        /* \"#utility.yul\":3566:3572   */\n      dup5\n        /* \"#utility.yul\":3524:3593   */\n      tag_190\n      jump\t// in\n    tag_268:\n        /* \"#utility.yul\":3382:3600   */\n      swap3\n      swap2\n      pop\n      pop\n      jump\t// out\n        /* \"#utility.yul\":3606:4225   */\n    tag_24:\n        /* \"#utility.yul\":3683:3689   */\n      0x00\n        /* \"#utility.yul\":3691:3697   */\n      dup1\n        /* \"#utility.yul\":3699:3705   */\n      0x00\n        /* \"#utility.yul\":3748:3750   */\n      0x60\n        /* \"#utility.yul\":3736:3745   */\n      dup5\n        /* \"#utility.yul\":3727:3734   */\n      dup7\n        /* \"#utility.yul\":3723:3746   */\n      sub\n        /* \"#utility.yul\":3719:3751   */\n      slt\n        /* \"#utility.yul\":3716:3835   */\n      iszero\n      tag_270\n      jumpi\n        /* \"#utility.yul\":3754:3833   */\n      tag_271\n      tag_176\n      jump\t// in\n    tag_271:\n        /* \"#utility.yul\":3716:3835   */\n    tag_270:\n        /* \"#utility.yul\":3874:3875   */\n      0x00\n        /* \"#utility.yul\":3899:3952   */\n      tag_272\n        /* \"#utility.yul\":3944:3951   */\n      dup7\n        /* \"#utility.yul\":3935:3941   */\n      dup3\n        /* \"#utility.yul\":3924:3933   */\n      dup8\n        /* \"#utility.yul\":3920:3942   */\n      add\n        /* \"#utility.yul\":3899:3952   */\n      tag_181\n      jump\t// in\n    tag_272:\n        /* \"#utility.yul\":3889:3952   */\n      swap4\n      pop\n        /* \"#utility.yul\":3845:3962   */\n      pop\n        /* \"#utility.yul\":4001:4003   */\n      0x20\n        /* \"#utility.yul\":4027:4080   */\n      tag_273\n        /* \"#utility.yul\":4072:4079   */\n      dup7\n        /* \"#utility.yul\":4063:4069   */\n      dup3\n        /* \"#utility.yul\":4052:4061   */\n      dup8\n        /* \"#utility.yul\":4048:4070   */\n      add\n        /* \"#utility.yul\":4027:4080   */\n      tag_184\n      jump\t// in\n    tag_273:\n        /* \"#utility.yul\":4017:4080   */\n      swap3\n      pop\n        /* \"#utility.yul\":3972:4090   */\n      pop\n        /* \"#utility.yul\":4129:4131   */\n      0x40\n        /* \"#utility.yul\":4155:4208   */\n      tag_274\n        /* \"#utility.yul\":4200:4207   */\n      dup7\n        /* \"#utility.yul\":4191:4197   */\n      dup3\n        /* \"#utility.yul\":4180:4189   */\n      dup8\n        /* \"#utility.yul\":4176:4198   */\n      add\n        /* \"#utility.yul\":4155:4208   */\n      tag_184\n      jump\t// in\n    tag_274:\n        /* \"#utility.yul\":4145:4208   */\n      swap2\n      pop\n        /* \"#utility.yul\":4100:4218   */\n      pop\n        /* \"#utility.yul\":3606:4225   */\n      swap3\n      pop\n      swap3\n      pop\n      swap3\n      jump\t// out\n        /* \"#utility.yul\":4231:4705   */\n    tag_29:\n        /* \"#utility.yul\":4299:4305   */\n      0x00\n        /* \"#utility.yul\":4307:4313   */\n      dup1\n        /* \"#utility.yul\":4356:4358   */\n      0x40\n        /* \"#utility.yul\":4344:4353   */\n      dup4\n        /* \"#utility.yul\":4335:4342   */\n      dup6\n        /* \"#utility.yul\":4331:4354   */\n      sub\n        /* \"#utility.yul\":4327:4359   */\n      slt\n        /* \"#utility.yul\":4324:4443   */\n      iszero\n      tag_276\n      jumpi\n        /* \"#utility.yul\":4362:4441   */\n      tag_277\n      tag_176\n      jump\t// in\n    tag_277:\n        /* \"#utility.yul\":4324:4443   */\n    tag_276:\n        /* \"#utility.yul\":4482:4483   */\n      0x00\n        /* \"#utility.yul\":4507:4560   */\n      tag_278\n        /* \"#utility.yul\":4552:4559   */\n      dup6\n        /* \"#utility.yul\":4543:4549   */\n      dup3\n        /* \"#utility.yul\":4532:4541   */\n      dup7\n        /* \"#utility.yul\":4528:4550   */\n      add\n        /* \"#utility.yul\":4507:4560   */\n      tag_181\n      jump\t// in\n    tag_278:\n        /* \"#utility.yul\":4497:4560   */\n      swap3\n      pop\n        /* \"#utility.yul\":4453:4570   */\n      pop\n        /* \"#utility.yul\":4609:4611   */\n      0x20\n        /* \"#utility.yul\":4635:4688   */\n      tag_279\n        /* \"#utility.yul\":4680:4687   */\n      dup6\n        /* \"#utility.yul\":4671:4677   */\n      dup3\n        /* \"#utility.yul\":4660:4669   */\n      dup7\n        /* \"#utility.yul\":4656:4678   */\n      add\n        /* \"#utility.yul\":4635:4688   */\n      tag_184\n      jump\t// in\n    tag_279:\n        /* \"#utility.yul\":4625:4688   */\n      swap2\n      pop\n        /* \"#utility.yul\":4580:4698   */\n      pop\n        /* \"#utility.yul\":4231:4705   */\n      swap3\n      pop\n      swap3\n      swap1\n      pop\n      jump\t// out\n        /* \"#utility.yul\":4711:4829   */\n    tag_191:\n        /* \"#utility.yul\":4798:4822   */\n      tag_281\n        /* \"#utility.yul\":4816:4821   */\n      dup2\n        /* \"#utility.yul\":4798:4822   */\n      tag_182\n      jump\t// in\n    tag_281:\n        /* \"#utility.yul\":4793:4796   */\n      dup3\n        /* \"#utility.yul\":4786:4823   */\n      mstore\n        /* \"#utility.yul\":4711:4829   */\n      pop\n      pop\n      jump\t// out\n        /* \"#utility.yul\":4835:5057   */\n    tag_32:\n        /* \"#utility.yul\":4928:4932   */\n      0x00\n        /* \"#utility.yul\":4966:4968   */\n      0x20\n        /* \"#utility.yul\":4955:4964   */\n      dup3\n        /* \"#utility.yul\":4951:4969   */\n      add\n        /* \"#utility.yul\":4943:4969   */\n      swap1\n      pop\n        /* \"#utility.yul\":4979:5050   */\n      tag_283\n        /* \"#utility.yul\":5047:5048   */\n      0x00\n        /* \"#utility.yul\":5036:5045   */\n      dup4\n        /* \"#utility.yul\":5032:5049   */\n      add\n        /* \"#utility.yul\":5023:5029   */\n      dup5\n        /* \"#utility.yul\":4979:5050   */\n      tag_191\n      jump\t// in\n    tag_283:\n        /* \"#utility.yul\":4835:5057   */\n      swap3\n      swap2\n      pop\n      pop\n      jump\t// out\n        /* \"#utility.yul\":5063:5828   */\n    tag_36:\n        /* \"#utility.yul\":5149:5155   */\n      0x00\n        /* \"#utility.yul\":5157:5163   */\n      dup1\n        /* \"#utility.yul\":5165:5171   */\n      0x00\n        /* \"#utility.yul\":5173:5179   */\n      dup1\n        /* \"#utility.yul\":5222:5225   */\n      0x80\n        /* \"#utility.yul\":5210:5219   */\n      dup6\n        /* \"#utility.yul\":5201:5208   */\n      dup8\n        /* \"#utility.yul\":5197:5220   */\n      sub\n        /* \"#utility.yul\":5193:5226   */\n      slt\n        /* \"#utility.yul\":5190:5310   */\n      iszero\n      tag_285\n      jumpi\n        /* \"#utility.yul\":5229:5308   */\n      tag_286\n      tag_176\n      jump\t// in\n    tag_286:\n        /* \"#utility.yul\":5190:5310   */\n    tag_285:\n        /* \"#utility.yul\":5349:5350   */\n      0x00\n        /* \"#utility.yul\":5374:5427   */\n      tag_287\n        /* \"#utility.yul\":5419:5426   */\n      dup8\n        /* \"#utility.yul\":5410:5416   */\n      dup3\n        /* \"#utility.yul\":5399:5408   */\n      dup9\n        /* \"#utility.yul\":5395:5417   */\n      add\n        /* \"#utility.yul\":5374:5427   */\n      tag_181\n      jump\t// in\n    tag_287:\n        /* \"#utility.yul\":5364:5427   */\n      swap5\n      pop\n        /* \"#utility.yul\":5320:5437   */\n      pop\n        /* \"#utility.yul\":5476:5478   */\n      0x20\n        /* \"#utility.yul\":5502:5555   */\n      tag_288\n        /* \"#utility.yul\":5547:5554   */\n      dup8\n        /* \"#utility.yul\":5538:5544   */\n      dup3\n        /* \"#utility.yul\":5527:5536   */\n      dup9\n        /* \"#utility.yul\":5523:5545   */\n      add\n        /* \"#utility.yul\":5502:5555   */\n      tag_181\n      jump\t// in\n    tag_288:\n        /* \"#utility.yul\":5492:5555   */\n      swap4\n      pop\n        /* \"#utility.yul\":5447:5565   */\n      pop\n        /* \"#utility.yul\":5604:5606   */\n      0x40\n        /* \"#utility.yul\":5630:5683   */\n      tag_289\n        /* \"#utility.yul\":5675:5682   */\n      dup8\n        /* \"#utility.yul\":5666:5672   */\n      dup3\n        /* \"#utility.yul\":5655:5664   */\n      dup9\n        /* \"#utility.yul\":5651:5673   */\n      add\n        /* \"#utility.yul\":5630:5683   */\n      tag_184\n      jump\t// in\n    tag_289:\n        /* \"#utility.yul\":5620:5683   */\n      swap3\n      pop\n        /* \"#utility.yul\":5575:5693   */\n      pop\n        /* \"#utility.yul\":5732:5734   */\n      0x60\n        /* \"#utility.yul\":5758:5811   */\n      tag_290\n        /* \"#utility.yul\":5803:5810   */\n      dup8\n        /* \"#utility.yul\":5794:5800   */\n      dup3\n        /* \"#utility.yul\":5783:5792   */\n      dup9\n        /* \"#utility.yul\":5779:5801   */\n      add\n        /* \"#utility.yul\":5758:5811   */\n      tag_184\n      jump\t// in\n    tag_290:\n        /* \"#utility.yul\":5748:5811   */\n      swap2\n      pop\n        /* \"#utility.yul\":5703:5821   */\n      pop\n        /* \"#utility.yul\":5063:5828   */\n      swap3\n      swap6\n      swap2\n      swap5\n      pop\n      swap3\n      pop\n      jump\t// out\n        /* \"#utility.yul\":5834:5942   */\n    tag_192:\n        /* \"#utility.yul\":5911:5935   */\n      tag_292\n        /* \"#utility.yul\":5929:5934   */\n      dup2\n        /* \"#utility.yul\":5911:5935   */\n      tag_179\n      jump\t// in\n    tag_292:\n        /* \"#utility.yul\":5906:5909   */\n      dup3\n        /* \"#utility.yul\":5899:5936   */\n      mstore\n        /* \"#utility.yul\":5834:5942   */\n      pop\n      pop\n      jump\t// out\n        /* \"#utility.yul\":5948:6056   */\n    tag_193:\n        /* \"#utility.yul\":6025:6049   */\n      tag_294\n        /* \"#utility.yul\":6043:6048   */\n      dup2\n        /* \"#utility.yul\":6025:6049   */\n      tag_182\n      jump\t// in\n    tag_294:\n        /* \"#utility.yul\":6020:6023   */\n      dup3\n        /* \"#utility.yul\":6013:6050   */\n      mstore\n        /* \"#utility.yul\":5948:6056   */\n      pop\n      pop\n      jump\t// out\n        /* \"#utility.yul\":6136:7008   */\n    tag_194:\n        /* \"#utility.yul\":6285:6289   */\n      0x80\n        /* \"#utility.yul\":6280:6283   */\n      dup3\n        /* \"#utility.yul\":6276:6290   */\n      add\n        /* \"#utility.yul\":6377:6381   */\n      0x00\n        /* \"#utility.yul\":6370:6375   */\n      dup3\n        /* \"#utility.yul\":6366:6382   */\n      add\n        /* \"#utility.yul\":6360:6383   */\n      mload\n        /* \"#utility.yul\":6396:6459   */\n      tag_296\n        /* \"#utility.yul\":6453:6457   */\n      0x00\n        /* \"#utility.yul\":6448:6451   */\n      dup6\n        /* \"#utility.yul\":6444:6458   */\n      add\n        /* \"#utility.yul\":6430:6442   */\n      dup3\n        /* \"#utility.yul\":6396:6459   */\n      tag_192\n      jump\t// in\n    tag_296:\n        /* \"#utility.yul\":6300:6469   */\n      pop\n        /* \"#utility.yul\":6555:6559   */\n      0x20\n        /* \"#utility.yul\":6548:6553   */\n      dup3\n        /* \"#utility.yul\":6544:6560   */\n      add\n        /* \"#utility.yul\":6538:6561   */\n      mload\n        /* \"#utility.yul\":6574:6637   */\n      tag_297\n        /* \"#utility.yul\":6631:6635   */\n      0x20\n        /* \"#utility.yul\":6626:6629   */\n      dup6\n        /* \"#utility.yul\":6622:6636   */\n      add\n        /* \"#utility.yul\":6608:6620   */\n      dup3\n        /* \"#utility.yul\":6574:6637   */\n      tag_192\n      jump\t// in\n    tag_297:\n        /* \"#utility.yul\":6479:6647   */\n      pop\n        /* \"#utility.yul\":6730:6734   */\n      0x40\n        /* \"#utility.yul\":6723:6728   */\n      dup3\n        /* \"#utility.yul\":6719:6735   */\n      add\n        /* \"#utility.yul\":6713:6736   */\n      mload\n        /* \"#utility.yul\":6749:6812   */\n      tag_298\n        /* \"#utility.yul\":6806:6810   */\n      0x40\n        /* \"#utility.yul\":6801:6804   */\n      dup6\n        /* \"#utility.yul\":6797:6811   */\n      add\n        /* \"#utility.yul\":6783:6795   */\n      dup3\n        /* \"#utility.yul\":6749:6812   */\n      tag_192\n      jump\t// in\n    tag_298:\n        /* \"#utility.yul\":6657:6822   */\n      pop\n        /* \"#utility.yul\":6909:6913   */\n      0x60\n        /* \"#utility.yul\":6902:6907   */\n      dup3\n        /* \"#utility.yul\":6898:6914   */\n      add\n        /* \"#utility.yul\":6892:6915   */\n      mload\n        /* \"#utility.yul\":6928:6991   */\n      tag_299\n        /* \"#utility.yul\":6985:6989   */\n      0x60\n        /* \"#utility.yul\":6980:6983   */\n      dup6\n        /* \"#utility.yul\":6976:6990   */\n      add\n        /* \"#utility.yul\":6962:6974   */\n      dup3\n        /* \"#utility.yul\":6928:6991   */\n      tag_193\n      jump\t// in\n    tag_299:\n        /* \"#utility.yul\":6832:7001   */\n      pop\n        /* \"#utility.yul\":6254:7008   */\n      pop\n        /* \"#utility.yul\":6136:7008   */\n      pop\n      pop\n      jump\t// out\n        /* \"#utility.yul\":7014:7341   */\n    tag_43:\n        /* \"#utility.yul\":7159:7163   */\n      0x00\n        /* \"#utility.yul\":7197:7200   */\n      0x80\n        /* \"#utility.yul\":7186:7195   */\n      dup3\n        /* \"#utility.yul\":7182:7201   */\n      add\n        /* \"#utility.yul\":7174:7201   */\n      swap1\n      pop\n        /* \"#utility.yul\":7211:7334   */\n      tag_301\n        /* \"#utility.yul\":7331:7332   */\n      0x00\n        /* \"#utility.yul\":7320:7329   */\n      dup4\n        /* \"#utility.yul\":7316:7333   */\n      add\n        /* \"#utility.yul\":7307:7313   */\n      dup5\n        /* \"#utility.yul\":7211:7334   */\n      tag_194\n      jump\t// in\n    tag_301:\n        /* \"#utility.yul\":7014:7341   */\n      swap3\n      swap2\n      pop\n      pop\n      jump\t// out\n        /* \"#utility.yul\":7347:7486   */\n    tag_195:\n        /* \"#utility.yul\":7439:7445   */\n      0x00\n        /* \"#utility.yul\":7473:7478   */\n      dup2\n        /* \"#utility.yul\":7467:7479   */\n      mload\n        /* \"#utility.yul\":7457:7479   */\n      swap1\n      pop\n        /* \"#utility.yul\":7347:7486   */\n      swap2\n      swap1\n      pop\n      jump\t// out\n        /* \"#utility.yul\":7492:7701   */\n    tag_196:\n        /* \"#utility.yul\":7616:7627   */\n      0x00\n        /* \"#utility.yul\":7650:7656   */\n      dup3\n        /* \"#utility.yul\":7645:7648   */\n      dup3\n        /* \"#utility.yul\":7638:7657   */\n      mstore\n        /* \"#utility.yul\":7690:7694   */\n      0x20\n        /* \"#utility.yul\":7685:7688   */\n      dup3\n        /* \"#utility.yul\":7681:7695   */\n      add\n        /* \"#utility.yul\":7666:7695   */\n      swap1\n      pop\n        /* \"#utility.yul\":7492:7701   */\n      swap3\n      swap2\n      pop\n      pop\n      jump\t// out\n        /* \"#utility.yul\":7707:7864   */\n    tag_197:\n        /* \"#utility.yul\":7799:7803   */\n      0x00\n        /* \"#utility.yul\":7822:7825   */\n      dup2\n        /* \"#utility.yul\":7814:7825   */\n      swap1\n      pop\n        /* \"#utility.yul\":7852:7856   */\n      0x20\n        /* \"#utility.yul\":7847:7850   */\n      dup3\n        /* \"#utility.yul\":7843:7857   */\n      add\n        /* \"#utility.yul\":7835:7857   */\n      swap1\n      pop\n        /* \"#utility.yul\":7707:7864   */\n      swap2\n      swap1\n      pop\n      jump\t// out\n        /* \"#utility.yul\":7942:8458   */\n    tag_198:\n        /* \"#utility.yul\":8079:8083   */\n      0x40\n        /* \"#utility.yul\":8074:8077   */\n      dup3\n        /* \"#utility.yul\":8070:8084   */\n      add\n        /* \"#utility.yul\":8181:8185   */\n      0x00\n        /* \"#utility.yul\":8174:8179   */\n      dup3\n        /* \"#utility.yul\":8170:8186   */\n      add\n        /* \"#utility.yul\":8164:8187   */\n      mload\n        /* \"#utility.yul\":8200:8263   */\n      tag_306\n        /* \"#utility.yul\":8257:8261   */\n      0x00\n        /* \"#utility.yul\":8252:8255   */\n      dup6\n        /* \"#utility.yul\":8248:8262   */\n      add\n        /* \"#utility.yul\":8234:8246   */\n      dup3\n        /* \"#utility.yul\":8200:8263   */\n      tag_192\n      jump\t// in\n    tag_306:\n        /* \"#utility.yul\":8094:8273   */\n      pop\n        /* \"#utility.yul\":8359:8363   */\n      0x20\n        /* \"#utility.yul\":8352:8357   */\n      dup3\n        /* \"#utility.yul\":8348:8364   */\n      add\n        /* \"#utility.yul\":8342:8365   */\n      mload\n        /* \"#utility.yul\":8378:8441   */\n      tag_307\n        /* \"#utility.yul\":8435:8439   */\n      0x20\n        /* \"#utility.yul\":8430:8433   */\n      dup6\n        /* \"#utility.yul\":8426:8440   */\n      add\n        /* \"#utility.yul\":8412:8424   */\n      dup3\n        /* \"#utility.yul\":8378:8441   */\n      tag_193\n      jump\t// in\n    tag_307:\n        /* \"#utility.yul\":8283:8451   */\n      pop\n        /* \"#utility.yul\":8048:8458   */\n      pop\n        /* \"#utility.yul\":7942:8458   */\n      pop\n      pop\n      jump\t// out\n        /* \"#utility.yul\":8464:8743   */\n    tag_199:\n        /* \"#utility.yul\":8583:8593   */\n      0x00\n        /* \"#utility.yul\":8604:8700   */\n      tag_309\n        /* \"#utility.yul\":8696:8699   */\n      dup4\n        /* \"#utility.yul\":8688:8694   */\n      dup4\n        /* \"#utility.yul\":8604:8700   */\n      tag_198\n      jump\t// in\n    tag_309:\n        /* \"#utility.yul\":8732:8736   */\n      0x40\n        /* \"#utility.yul\":8727:8730   */\n      dup4\n        /* \"#utility.yul\":8723:8737   */\n      add\n        /* \"#utility.yul\":8709:8737   */\n      swap1\n      pop\n        /* \"#utility.yul\":8464:8743   */\n      swap3\n      swap2\n      pop\n      pop\n      jump\t// out\n        /* \"#utility.yul\":8749:8887   */\n    tag_200:\n        /* \"#utility.yul\":8844:8848   */\n      0x00\n        /* \"#utility.yul\":8876:8880   */\n      0x20\n        /* \"#utility.yul\":8871:8874   */\n      dup3\n        /* \"#utility.yul\":8867:8881   */\n      add\n        /* \"#utility.yul\":8859:8881   */\n      swap1\n      pop\n        /* \"#utility.yul\":8749:8887   */\n      swap2\n      swap1\n      pop\n      jump\t// out\n        /* \"#utility.yul\":8969:9901   */\n    tag_201:\n        /* \"#utility.yul\":9138:9141   */\n      0x00\n        /* \"#utility.yul\":9167:9246   */\n      tag_312\n        /* \"#utility.yul\":9240:9245   */\n      dup3\n        /* \"#utility.yul\":9167:9246   */\n      tag_195\n      jump\t// in\n    tag_312:\n        /* \"#utility.yul\":9262:9373   */\n      tag_313\n        /* \"#utility.yul\":9366:9372   */\n      dup2\n        /* \"#utility.yul\":9361:9364   */\n      dup6\n        /* \"#utility.yul\":9262:9373   */\n      tag_196\n      jump\t// in\n    tag_313:\n        /* \"#utility.yul\":9255:9373   */\n      swap4\n      pop\n        /* \"#utility.yul\":9397:9478   */\n      tag_314\n        /* \"#utility.yul\":9472:9477   */\n      dup4\n        /* \"#utility.yul\":9397:9478   */\n      tag_197\n      jump\t// in\n    tag_314:\n        /* \"#utility.yul\":9501:9508   */\n      dup1\n        /* \"#utility.yul\":9532:9533   */\n      0x00\n        /* \"#utility.yul\":9517:9876   */\n    tag_315:\n        /* \"#utility.yul\":9542:9548   */\n      dup4\n        /* \"#utility.yul\":9539:9540   */\n      dup2\n        /* \"#utility.yul\":9536:9549   */\n      lt\n        /* \"#utility.yul\":9517:9876   */\n      iszero\n      tag_317\n      jumpi\n        /* \"#utility.yul\":9618:9624   */\n      dup2\n        /* \"#utility.yul\":9612:9625   */\n      mload\n        /* \"#utility.yul\":9645:9758   */\n      tag_318\n        /* \"#utility.yul\":9754:9757   */\n      dup9\n        /* \"#utility.yul\":9739:9752   */\n      dup3\n        /* \"#utility.yul\":9645:9758   */\n      tag_199\n      jump\t// in\n    tag_318:\n        /* \"#utility.yul\":9638:9758   */\n      swap8\n      pop\n        /* \"#utility.yul\":9781:9866   */\n      tag_319\n        /* \"#utility.yul\":9859:9865   */\n      dup4\n        /* \"#utility.yul\":9781:9866   */\n      tag_200\n      jump\t// in\n    tag_319:\n        /* \"#utility.yul\":9771:9866   */\n      swap3\n      pop\n        /* \"#utility.yul\":9577:9876   */\n      pop\n        /* \"#utility.yul\":9564:9565   */\n      0x01\n        /* \"#utility.yul\":9561:9562   */\n      dup2\n        /* \"#utility.yul\":9557:9566   */\n      add\n        /* \"#utility.yul\":9552:9566   */\n      swap1\n      pop\n        /* \"#utility.yul\":9517:9876   */\n      jump(tag_315)\n    tag_317:\n        /* \"#utility.yul\":9521:9535   */\n      pop\n        /* \"#utility.yul\":9892:9895   */\n      dup6\n        /* \"#utility.yul\":9885:9895   */\n      swap4\n      pop\n        /* \"#utility.yul\":9143:9901   */\n      pop\n      pop\n      pop\n        /* \"#utility.yul\":8969:9901   */\n      swap3\n      swap2\n      pop\n      pop\n      jump\t// out\n        /* \"#utility.yul\":9907:10380   */\n    tag_48:\n        /* \"#utility.yul\":10100:10104   */\n      0x00\n        /* \"#utility.yul\":10138:10140   */\n      0x20\n        /* \"#utility.yul\":10127:10136   */\n      dup3\n        /* \"#utility.yul\":10123:10141   */\n      add\n        /* \"#utility.yul\":10115:10141   */\n      swap1\n      pop\n        /* \"#utility.yul\":10187:10196   */\n      dup2\n        /* \"#utility.yul\":10181:10185   */\n      dup2\n        /* \"#utility.yul\":10177:10197   */\n      sub\n        /* \"#utility.yul\":10173:10174   */\n      0x00\n        /* \"#utility.yul\":10162:10171   */\n      dup4\n        /* \"#utility.yul\":10158:10175   */\n      add\n        /* \"#utility.yul\":10151:10198   */\n      mstore\n        /* \"#utility.yul\":10215:10373   */\n      tag_321\n        /* \"#utility.yul\":10368:10372   */\n      dup2\n        /* \"#utility.yul\":10359:10365   */\n      dup5\n        /* \"#utility.yul\":10215:10373   */\n      tag_201\n      jump\t// in\n    tag_321:\n        /* \"#utility.yul\":10207:10373   */\n      swap1\n      pop\n        /* \"#utility.yul\":9907:10380   */\n      swap3\n      swap2\n      pop\n      pop\n      jump\t// out\n        /* \"#utility.yul\":10386:10555   */\n    tag_202:\n        /* \"#utility.yul\":10470:10481   */\n      0x00\n        /* \"#utility.yul\":10504:10510   */\n      dup3\n        /* \"#utility.yul\":10499:10502   */\n      dup3\n        /* \"#utility.yul\":10492:10511   */\n      mstore\n        /* \"#utility.yul\":10544:10548   */\n      0x20\n        /* \"#utility.yul\":10539:10542   */\n      dup3\n        /* \"#utility.yul\":10535:10549   */\n      add\n        /* \"#utility.yul\":10520:10549   */\n      swap1\n      pop\n        /* \"#utility.yul\":10386:10555   */\n      swap3\n      swap2\n      pop\n      pop\n      jump\t// out\n        /* \"#utility.yul\":10561:10732   */\n    tag_203:\n        /* \"#utility.yul\":10701:10724   */\n      0x4e6674206e6f7420696e2066697865642073616c650000000000000000000000\n        /* \"#utility.yul\":10697:10698   */\n      0x00\n        /* \"#utility.yul\":10689:10695   */\n      dup3\n        /* \"#utility.yul\":10685:10699   */\n      add\n        /* \"#utility.yul\":10678:10725   */\n      mstore\n        /* \"#utility.yul\":10561:10732   */\n      pop\n      jump\t// out\n        /* \"#utility.yul\":10738:11104   */\n    tag_204:\n        /* \"#utility.yul\":10880:10883   */\n      0x00\n        /* \"#utility.yul\":10901:10968   */\n      tag_325\n        /* \"#utility.yul\":10965:10967   */\n      0x15\n        /* \"#utility.yul\":10960:10963   */\n      dup4\n        /* \"#utility.yul\":10901:10968   */\n      tag_202\n      jump\t// in\n    tag_325:\n        /* \"#utility.yul\":10894:10968   */\n      swap2\n      pop\n        /* \"#utility.yul\":10977:11070   */\n      tag_326\n        /* \"#utility.yul\":11066:11069   */\n      dup3\n        /* \"#utility.yul\":10977:11070   */\n      tag_203\n      jump\t// in\n    tag_326:\n        /* \"#utility.yul\":11095:11097   */\n      0x20\n        /* \"#utility.yul\":11090:11093   */\n      dup3\n        /* \"#utility.yul\":11086:11098   */\n      add\n        /* \"#utility.yul\":11079:11098   */\n      swap1\n      pop\n        /* \"#utility.yul\":10738:11104   */\n      swap2\n      swap1\n      pop\n      jump\t// out\n        /* \"#utility.yul\":11110:11529   */\n    tag_60:\n        /* \"#utility.yul\":11276:11280   */\n      0x00\n        /* \"#utility.yul\":11314:11316   */\n      0x20\n        /* \"#utility.yul\":11303:11312   */\n      dup3\n        /* \"#utility.yul\":11299:11317   */\n      add\n        /* \"#utility.yul\":11291:11317   */\n      swap1\n      pop\n        /* \"#utility.yul\":11363:11372   */\n      dup2\n        /* \"#utility.yul\":11357:11361   */\n      dup2\n        /* \"#utility.yul\":11353:11373   */\n      sub\n        /* \"#utility.yul\":11349:11350   */\n      0x00\n        /* \"#utility.yul\":11338:11347   */\n      dup4\n        /* \"#utility.yul\":11334:11351   */\n      add\n        /* \"#utility.yul\":11327:11374   */\n      mstore\n        /* \"#utility.yul\":11391:11522   */\n      tag_328\n        /* \"#utility.yul\":11517:11521   */\n      dup2\n        /* \"#utility.yul\":11391:11522   */\n      tag_204\n      jump\t// in\n    tag_328:\n        /* \"#utility.yul\":11383:11522   */\n      swap1\n      pop\n        /* \"#utility.yul\":11110:11529   */\n      swap2\n      swap1\n      pop\n      jump\t// out\n        /* \"#utility.yul\":11535:11706   */\n    tag_205:\n        /* \"#utility.yul\":11675:11698   */\n      0x596f7520617265206e6f74206e6674206f776e65720000000000000000000000\n        /* \"#utility.yul\":11671:11672   */\n      0x00\n        /* \"#utility.yul\":11663:11669   */\n      dup3\n        /* \"#utility.yul\":11659:11673   */\n      add\n        /* \"#utility.yul\":11652:11699   */\n      mstore\n        /* \"#utility.yul\":11535:11706   */\n      pop\n      jump\t// out\n        /* \"#utility.yul\":11712:12078   */\n    tag_206:\n        /* \"#utility.yul\":11854:11857   */\n      0x00\n        /* \"#utility.yul\":11875:11942   */\n      tag_331\n        /* \"#utility.yul\":11939:11941   */\n      0x15\n        /* \"#utility.yul\":11934:11937   */\n      dup4\n        /* \"#utility.yul\":11875:11942   */\n      tag_202\n      jump\t// in\n    tag_331:\n        /* \"#utility.yul\":11868:11942   */\n      swap2\n      pop\n        /* \"#utility.yul\":11951:12044   */\n      tag_332\n        /* \"#utility.yul\":12040:12043   */\n      dup3\n        /* \"#utility.yul\":11951:12044   */\n      tag_205\n      jump\t// in\n    tag_332:\n        /* \"#utility.yul\":12069:12071   */\n      0x20\n        /* \"#utility.yul\":12064:12067   */\n      dup3\n        /* \"#utility.yul\":12060:12072   */\n      add\n        /* \"#utility.yul\":12053:12072   */\n      swap1\n      pop\n        /* \"#utility.yul\":11712:12078   */\n      swap2\n      swap1\n      pop\n      jump\t// out\n        /* \"#utility.yul\":12084:12503   */\n    tag_64:\n        /* \"#utility.yul\":12250:12254   */\n      0x00\n        /* \"#utility.yul\":12288:12290   */\n      0x20\n        /* \"#utility.yul\":12277:12286   */\n      dup3\n        /* \"#utility.yul\":12273:12291   */\n      add\n        /* \"#utility.yul\":12265:12291   */\n      swap1\n      pop\n        /* \"#utility.yul\":12337:12346   */\n      dup2\n        /* \"#utility.yul\":12331:12335   */\n      dup2\n        /* \"#utility.yul\":12327:12347   */\n      sub\n        /* \"#utility.yul\":12323:12324   */\n      0x00\n        /* \"#utility.yul\":12312:12321   */\n      dup4\n        /* \"#utility.yul\":12308:12325   */\n      add\n        /* \"#utility.yul\":12301:12348   */\n      mstore\n        /* \"#utility.yul\":12365:12496   */\n      tag_334\n        /* \"#utility.yul\":12491:12495   */\n      dup2\n        /* \"#utility.yul\":12365:12496   */\n      tag_206\n      jump\t// in\n    tag_334:\n        /* \"#utility.yul\":12357:12496   */\n      swap1\n      pop\n        /* \"#utility.yul\":12084:12503   */\n      swap2\n      swap1\n      pop\n      jump\t// out\n        /* \"#utility.yul\":12509:12676   */\n    tag_207:\n        /* \"#utility.yul\":12649:12668   */\n      0x50726963652063616e6e6f742062652030000000000000000000000000000000\n        /* \"#utility.yul\":12645:12646   */\n      0x00\n        /* \"#utility.yul\":12637:12643   */\n      dup3\n        /* \"#utility.yul\":12633:12647   */\n      add\n        /* \"#utility.yul\":12626:12669   */\n      mstore\n        /* \"#utility.yul\":12509:12676   */\n      pop\n      jump\t// out\n        /* \"#utility.yul\":12682:13048   */\n    tag_208:\n        /* \"#utility.yul\":12824:12827   */\n      0x00\n        /* \"#utility.yul\":12845:12912   */\n      tag_337\n        /* \"#utility.yul\":12909:12911   */\n      0x11\n        /* \"#utility.yul\":12904:12907   */\n      dup4\n        /* \"#utility.yul\":12845:12912   */\n      tag_202\n      jump\t// in\n    tag_337:\n        /* \"#utility.yul\":12838:12912   */\n      swap2\n      pop\n        /* \"#utility.yul\":12921:13014   */\n      tag_338\n        /* \"#utility.yul\":13010:13013   */\n      dup3\n        /* \"#utility.yul\":12921:13014   */\n      tag_207\n      jump\t// in\n    tag_338:\n        /* \"#utility.yul\":13039:13041   */\n      0x20\n        /* \"#utility.yul\":13034:13037   */\n      dup3\n        /* \"#utility.yul\":13030:13042   */\n      add\n        /* \"#utility.yul\":13023:13042   */\n      swap1\n      pop\n        /* \"#utility.yul\":12682:13048   */\n      swap2\n      swap1\n      pop\n      jump\t// out\n        /* \"#utility.yul\":13054:13473   */\n    tag_68:\n        /* \"#utility.yul\":13220:13224   */\n      0x00\n        /* \"#utility.yul\":13258:13260   */\n      0x20\n        /* \"#utility.yul\":13247:13256   */\n      dup3\n        /* \"#utility.yul\":13243:13261   */\n      add\n        /* \"#utility.yul\":13235:13261   */\n      swap1\n      pop\n        /* \"#utility.yul\":13307:13316   */\n      dup2\n        /* \"#utility.yul\":13301:13305   */\n      dup2\n        /* \"#utility.yul\":13297:13317   */\n      sub\n        /* \"#utility.yul\":13293:13294   */\n      0x00\n        /* \"#utility.yul\":13282:13291   */\n      dup4\n        /* \"#utility.yul\":13278:13295   */\n      add\n        /* \"#utility.yul\":13271:13318   */\n      mstore\n        /* \"#utility.yul\":13335:13466   */\n      tag_340\n        /* \"#utility.yul\":13461:13465   */\n      dup2\n        /* \"#utility.yul\":13335:13466   */\n      tag_208\n      jump\t// in\n    tag_340:\n        /* \"#utility.yul\":13327:13466   */\n      swap1\n      pop\n        /* \"#utility.yul\":13054:13473   */\n      swap2\n      swap1\n      pop\n      jump\t// out\n        /* \"#utility.yul\":13479:13597   */\n    tag_209:\n        /* \"#utility.yul\":13566:13590   */\n      tag_342\n        /* \"#utility.yul\":13584:13589   */\n      dup2\n        /* \"#utility.yul\":13566:13590   */\n      tag_179\n      jump\t// in\n    tag_342:\n        /* \"#utility.yul\":13561:13564   */\n      dup3\n        /* \"#utility.yul\":13554:13591   */\n      mstore\n        /* \"#utility.yul\":13479:13597   */\n      pop\n      pop\n      jump\t// out\n        /* \"#utility.yul\":13603:14045   */\n    tag_71:\n        /* \"#utility.yul\":13752:13756   */\n      0x00\n        /* \"#utility.yul\":13790:13792   */\n      0x60\n        /* \"#utility.yul\":13779:13788   */\n      dup3\n        /* \"#utility.yul\":13775:13793   */\n      add\n        /* \"#utility.yul\":13767:13793   */\n      swap1\n      pop\n        /* \"#utility.yul\":13803:13874   */\n      tag_344\n        /* \"#utility.yul\":13871:13872   */\n      0x00\n        /* \"#utility.yul\":13860:13869   */\n      dup4\n        /* \"#utility.yul\":13856:13873   */\n      add\n        /* \"#utility.yul\":13847:13853   */\n      dup7\n        /* \"#utility.yul\":13803:13874   */\n      tag_209\n      jump\t// in\n    tag_344:\n        /* \"#utility.yul\":13884:13956   */\n      tag_345\n        /* \"#utility.yul\":13952:13954   */\n      0x20\n        /* \"#utility.yul\":13941:13950   */\n      dup4\n        /* \"#utility.yul\":13937:13955   */\n      add\n        /* \"#utility.yul\":13928:13934   */\n      dup6\n        /* \"#utility.yul\":13884:13956   */\n      tag_191\n      jump\t// in\n    tag_345:\n        /* \"#utility.yul\":13966:14038   */\n      tag_346\n        /* \"#utility.yul\":14034:14036   */\n      0x40\n        /* \"#utility.yul\":14023:14032   */\n      dup4\n        /* \"#utility.yul\":14019:14037   */\n      add\n        /* \"#utility.yul\":14010:14016   */\n      dup5\n        /* \"#utility.yul\":13966:14038   */\n      tag_191\n      jump\t// in\n    tag_346:\n        /* \"#utility.yul\":13603:14045   */\n      swap5\n      swap4\n      pop\n      pop\n      pop\n      pop\n      jump\t// out\n        /* \"#utility.yul\":14051:14194   */\n    tag_210:\n        /* \"#utility.yul\":14108:14113   */\n      0x00\n        /* \"#utility.yul\":14139:14145   */\n      dup2\n        /* \"#utility.yul\":14133:14146   */\n      mload\n        /* \"#utility.yul\":14124:14146   */\n      swap1\n      pop\n        /* \"#utility.yul\":14155:14188   */\n      tag_348\n        /* \"#utility.yul\":14182:14187   */\n      dup2\n        /* \"#utility.yul\":14155:14188   */\n      tag_180\n      jump\t// in\n    tag_348:\n        /* \"#utility.yul\":14051:14194   */\n      swap3\n      swap2\n      pop\n      pop\n      jump\t// out\n        /* \"#utility.yul\":14200:14551   */\n    tag_77:\n        /* \"#utility.yul\":14270:14276   */\n      0x00\n        /* \"#utility.yul\":14319:14321   */\n      0x20\n        /* \"#utility.yul\":14307:14316   */\n      dup3\n        /* \"#utility.yul\":14298:14305   */\n      dup5\n        /* \"#utility.yul\":14294:14317   */\n      sub\n        /* \"#utility.yul\":14290:14322   */\n      slt\n        /* \"#utility.yul\":14287:14406   */\n      iszero\n      tag_350\n      jumpi\n        /* \"#utility.yul\":14325:14404   */\n      tag_351\n      tag_176\n      jump\t// in\n    tag_351:\n        /* \"#utility.yul\":14287:14406   */\n    tag_350:\n        /* \"#utility.yul\":14445:14446   */\n      0x00\n        /* \"#utility.yul\":14470:14534   */\n      tag_352\n        /* \"#utility.yul\":14526:14533   */\n      dup5\n        /* \"#utility.yul\":14517:14523   */\n      dup3\n        /* \"#utility.yul\":14506:14515   */\n      dup6\n        /* \"#utility.yul\":14502:14524   */\n      add\n        /* \"#utility.yul\":14470:14534   */\n      tag_210\n      jump\t// in\n    tag_352:\n        /* \"#utility.yul\":14460:14534   */\n      swap2\n      pop\n        /* \"#utility.yul\":14416:14544   */\n      pop\n        /* \"#utility.yul\":14200:14551   */\n      swap3\n      swap2\n      pop\n      pop\n      jump\t// out\n        /* \"#utility.yul\":14557:14726   */\n    tag_211:\n        /* \"#utility.yul\":14697:14718   */\n      0x4e667420616c726561647920696e2073616c6500000000000000000000000000\n        /* \"#utility.yul\":14693:14694   */\n      0x00\n        /* \"#utility.yul\":14685:14691   */\n      dup3\n        /* \"#utility.yul\":14681:14695   */\n      add\n        /* \"#utility.yul\":14674:14719   */\n      mstore\n        /* \"#utility.yul\":14557:14726   */\n      pop\n      jump\t// out\n        /* \"#utility.yul\":14732:15098   */\n    tag_212:\n        /* \"#utility.yul\":14874:14877   */\n      0x00\n        /* \"#utility.yul\":14895:14962   */\n      tag_355\n        /* \"#utility.yul\":14959:14961   */\n      0x13\n        /* \"#utility.yul\":14954:14957   */\n      dup4\n        /* \"#utility.yul\":14895:14962   */\n      tag_202\n      jump\t// in\n    tag_355:\n        /* \"#utility.yul\":14888:14962   */\n      swap2\n      pop\n        /* \"#utility.yul\":14971:15064   */\n      tag_356\n        /* \"#utility.yul\":15060:15063   */\n      dup3\n        /* \"#utility.yul\":14971:15064   */\n      tag_211\n      jump\t// in\n    tag_356:\n        /* \"#utility.yul\":15089:15091   */\n      0x20\n        /* \"#utility.yul\":15084:15087   */\n      dup3\n        /* \"#utility.yul\":15080:15092   */\n      add\n        /* \"#utility.yul\":15073:15092   */\n      swap1\n      pop\n        /* \"#utility.yul\":14732:15098   */\n      swap2\n      swap1\n      pop\n      jump\t// out\n        /* \"#utility.yul\":15104:15523   */\n    tag_83:\n        /* \"#utility.yul\":15270:15274   */\n      0x00\n        /* \"#utility.yul\":15308:15310   */\n      0x20\n        /* \"#utility.yul\":15297:15306   */\n      dup3\n        /* \"#utility.yul\":15293:15311   */\n      add\n        /* \"#utility.yul\":15285:15311   */\n      swap1\n      pop\n        /* \"#utility.yul\":15357:15366   */\n      dup2\n        /* \"#utility.yul\":15351:15355   */\n      dup2\n        /* \"#utility.yul\":15347:15367   */\n      sub\n        /* \"#utility.yul\":15343:15344   */\n      0x00\n        /* \"#utility.yul\":15332:15341   */\n      dup4\n        /* \"#utility.yul\":15328:15345   */\n      add\n        /* \"#utility.yul\":15321:15368   */\n      mstore\n        /* \"#utility.yul\":15385:15516   */\n      tag_358\n        /* \"#utility.yul\":15511:15515   */\n      dup2\n        /* \"#utility.yul\":15385:15516   */\n      tag_212\n      jump\t// in\n    tag_358:\n        /* \"#utility.yul\":15377:15516   */\n      swap1\n      pop\n        /* \"#utility.yul\":15104:15523   */\n      swap2\n      swap1\n      pop\n      jump\t// out\n        /* \"#utility.yul\":15529:15861   */\n    tag_86:\n        /* \"#utility.yul\":15650:15654   */\n      0x00\n        /* \"#utility.yul\":15688:15690   */\n      0x40\n        /* \"#utility.yul\":15677:15686   */\n      dup3\n        /* \"#utility.yul\":15673:15691   */\n      add\n        /* \"#utility.yul\":15665:15691   */\n      swap1\n      pop\n        /* \"#utility.yul\":15701:15772   */\n      tag_360\n        /* \"#utility.yul\":15769:15770   */\n      0x00\n        /* \"#utility.yul\":15758:15767   */\n      dup4\n        /* \"#utility.yul\":15754:15771   */\n      add\n        /* \"#utility.yul\":15745:15751   */\n      dup6\n        /* \"#utility.yul\":15701:15772   */\n      tag_209\n      jump\t// in\n    tag_360:\n        /* \"#utility.yul\":15782:15854   */\n      tag_361\n        /* \"#utility.yul\":15850:15852   */\n      0x20\n        /* \"#utility.yul\":15839:15848   */\n      dup4\n        /* \"#utility.yul\":15835:15853   */\n      add\n        /* \"#utility.yul\":15826:15832   */\n      dup5\n        /* \"#utility.yul\":15782:15854   */\n      tag_209\n      jump\t// in\n    tag_361:\n        /* \"#utility.yul\":15529:15861   */\n      swap4\n      swap3\n      pop\n      pop\n      pop\n      jump\t// out\n        /* \"#utility.yul\":15867:15957   */\n    tag_213:\n        /* \"#utility.yul\":15901:15908   */\n      0x00\n        /* \"#utility.yul\":15944:15949   */\n      dup2\n        /* \"#utility.yul\":15937:15950   */\n      iszero\n        /* \"#utility.yul\":15930:15951   */\n      iszero\n        /* \"#utility.yul\":15919:15951   */\n      swap1\n      pop\n        /* \"#utility.yul\":15867:15957   */\n      swap2\n      swap1\n      pop\n      jump\t// out\n        /* \"#utility.yul\":15963:16079   */\n    tag_214:\n        /* \"#utility.yul\":16033:16054   */\n      tag_364\n        /* \"#utility.yul\":16048:16053   */\n      dup2\n        /* \"#utility.yul\":16033:16054   */\n      tag_213\n      jump\t// in\n    tag_364:\n        /* \"#utility.yul\":16026:16031   */\n      dup2\n        /* \"#utility.yul\":16023:16055   */\n      eq\n        /* \"#utility.yul\":16013:16073   */\n      tag_365\n      jumpi\n        /* \"#utility.yul\":16069:16070   */\n      0x00\n        /* \"#utility.yul\":16066:16067   */\n      dup1\n        /* \"#utility.yul\":16059:16071   */\n      revert\n        /* \"#utility.yul\":16013:16073   */\n    tag_365:\n        /* \"#utility.yul\":15963:16079   */\n      pop\n      jump\t// out\n        /* \"#utility.yul\":16085:16222   */\n    tag_215:\n        /* \"#utility.yul\":16139:16144   */\n      0x00\n        /* \"#utility.yul\":16170:16176   */\n      dup2\n        /* \"#utility.yul\":16164:16177   */\n      mload\n        /* \"#utility.yul\":16155:16177   */\n      swap1\n      pop\n        /* \"#utility.yul\":16186:16216   */\n      tag_367\n        /* \"#utility.yul\":16210:16215   */\n      dup2\n        /* \"#utility.yul\":16186:16216   */\n      tag_214\n      jump\t// in\n    tag_367:\n        /* \"#utility.yul\":16085:16222   */\n      swap3\n      swap2\n      pop\n      pop\n      jump\t// out\n        /* \"#utility.yul\":16228:16573   */\n    tag_90:\n        /* \"#utility.yul\":16295:16301   */\n      0x00\n        /* \"#utility.yul\":16344:16346   */\n      0x20\n        /* \"#utility.yul\":16332:16341   */\n      dup3\n        /* \"#utility.yul\":16323:16330   */\n      dup5\n        /* \"#utility.yul\":16319:16342   */\n      sub\n        /* \"#utility.yul\":16315:16347   */\n      slt\n        /* \"#utility.yul\":16312:16431   */\n      iszero\n      tag_369\n      jumpi\n        /* \"#utility.yul\":16350:16429   */\n      tag_370\n      tag_176\n      jump\t// in\n    tag_370:\n        /* \"#utility.yul\":16312:16431   */\n    tag_369:\n        /* \"#utility.yul\":16470:16471   */\n      0x00\n        /* \"#utility.yul\":16495:16556   */\n      tag_371\n        /* \"#utility.yul\":16548:16555   */\n      dup5\n        /* \"#utility.yul\":16539:16545   */\n      dup3\n        /* \"#utility.yul\":16528:16537   */\n      dup6\n        /* \"#utility.yul\":16524:16546   */\n      add\n        /* \"#utility.yul\":16495:16556   */\n      tag_215\n      jump\t// in\n    tag_371:\n        /* \"#utility.yul\":16485:16556   */\n      swap2\n      pop\n        /* \"#utility.yul\":16441:16566   */\n      pop\n        /* \"#utility.yul\":16228:16573   */\n      swap3\n      swap2\n      pop\n      pop\n      jump\t// out\n        /* \"#utility.yul\":16579:16757   */\n    tag_216:\n        /* \"#utility.yul\":16719:16749   */\n      0x4e6674206e6f7420617070726f76656420746f20636f6e747261637400000000\n        /* \"#utility.yul\":16715:16716   */\n      0x00\n        /* \"#utility.yul\":16707:16713   */\n      dup3\n        /* \"#utility.yul\":16703:16717   */\n      add\n        /* \"#utility.yul\":16696:16750   */\n      mstore\n        /* \"#utility.yul\":16579:16757   */\n      pop\n      jump\t// out\n        /* \"#utility.yul\":16763:17129   */\n    tag_217:\n        /* \"#utility.yul\":16905:16908   */\n      0x00\n        /* \"#utility.yul\":16926:16993   */\n      tag_374\n        /* \"#utility.yul\":16990:16992   */\n      0x1c\n        /* \"#utility.yul\":16985:16988   */\n      dup4\n        /* \"#utility.yul\":16926:16993   */\n      tag_202\n      jump\t// in\n    tag_374:\n        /* \"#utility.yul\":16919:16993   */\n      swap2\n      pop\n        /* \"#utility.yul\":17002:17095   */\n      tag_375\n        /* \"#utility.yul\":17091:17094   */\n      dup3\n        /* \"#utility.yul\":17002:17095   */\n      tag_216\n      jump\t// in\n    tag_375:\n        /* \"#utility.yul\":17120:17122   */\n      0x20\n        /* \"#utility.yul\":17115:17118   */\n      dup3\n        /* \"#utility.yul\":17111:17123   */\n      add\n        /* \"#utility.yul\":17104:17123   */\n      swap1\n      pop\n        /* \"#utility.yul\":16763:17129   */\n      swap2\n      swap1\n      pop\n      jump\t// out\n        /* \"#utility.yul\":17135:17554   */\n    tag_93:\n        /* \"#utility.yul\":17301:17305   */\n      0x00\n        /* \"#utility.yul\":17339:17341   */\n      0x20\n        /* \"#utility.yul\":17328:17337   */\n      dup3\n        /* \"#utility.yul\":17324:17342   */\n      add\n        /* \"#utility.yul\":17316:17342   */\n      swap1\n      pop\n        /* \"#utility.yul\":17388:17397   */\n      dup2\n        /* \"#utility.yul\":17382:17386   */\n      dup2\n        /* \"#utility.yul\":17378:17398   */\n      sub\n        /* \"#utility.yul\":17374:17375   */\n      0x00\n        /* \"#utility.yul\":17363:17372   */\n      dup4\n        /* \"#utility.yul\":17359:17376   */\n      add\n        /* \"#utility.yul\":17352:17399   */\n      mstore\n        /* \"#utility.yul\":17416:17547   */\n      tag_377\n        /* \"#utility.yul\":17542:17546   */\n      dup2\n        /* \"#utility.yul\":17416:17547   */\n      tag_217\n      jump\t// in\n    tag_377:\n        /* \"#utility.yul\":17408:17547   */\n      swap1\n      pop\n        /* \"#utility.yul\":17135:17554   */\n      swap2\n      swap1\n      pop\n      jump\t// out\n        /* \"#utility.yul\":17560:18002   */\n    tag_100:\n        /* \"#utility.yul\":17709:17713   */\n      0x00\n        /* \"#utility.yul\":17747:17749   */\n      0x60\n        /* \"#utility.yul\":17736:17745   */\n      dup3\n        /* \"#utility.yul\":17732:17750   */\n      add\n        /* \"#utility.yul\":17724:17750   */\n      swap1\n      pop\n        /* \"#utility.yul\":17760:17831   */\n      tag_379\n        /* \"#utility.yul\":17828:17829   */\n      0x00\n        /* \"#utility.yul\":17817:17826   */\n      dup4\n        /* \"#utility.yul\":17813:17830   */\n      add\n        /* \"#utility.yul\":17804:17810   */\n      dup7\n        /* \"#utility.yul\":17760:17831   */\n      tag_209\n      jump\t// in\n    tag_379:\n        /* \"#utility.yul\":17841:17913   */\n      tag_380\n        /* \"#utility.yul\":17909:17911   */\n      0x20\n        /* \"#utility.yul\":17898:17907   */\n      dup4\n        /* \"#utility.yul\":17894:17912   */\n      add\n        /* \"#utility.yul\":17885:17891   */\n      dup6\n        /* \"#utility.yul\":17841:17913   */\n      tag_209\n      jump\t// in\n    tag_380:\n        /* \"#utility.yul\":17923:17995   */\n      tag_381\n        /* \"#utility.yul\":17991:17993   */\n      0x40\n        /* \"#utility.yul\":17980:17989   */\n      dup4\n        /* \"#utility.yul\":17976:17994   */\n      add\n        /* \"#utility.yul\":17967:17973   */\n      dup5\n        /* \"#utility.yul\":17923:17995   */\n      tag_191\n      jump\t// in\n    tag_381:\n        /* \"#utility.yul\":17560:18002   */\n      swap5\n      swap4\n      pop\n      pop\n      pop\n      pop\n      jump\t// out\n        /* \"#utility.yul\":18008:18783   */\n    tag_105:\n        /* \"#utility.yul\":18241:18245   */\n      0x00\n        /* \"#utility.yul\":18279:18282   */\n      0xc0\n        /* \"#utility.yul\":18268:18277   */\n      dup3\n        /* \"#utility.yul\":18264:18283   */\n      add\n        /* \"#utility.yul\":18256:18283   */\n      swap1\n      pop\n        /* \"#utility.yul\":18293:18364   */\n      tag_383\n        /* \"#utility.yul\":18361:18362   */\n      0x00\n        /* \"#utility.yul\":18350:18359   */\n      dup4\n        /* \"#utility.yul\":18346:18363   */\n      add\n        /* \"#utility.yul\":18337:18343   */\n      dup10\n        /* \"#utility.yul\":18293:18364   */\n      tag_209\n      jump\t// in\n    tag_383:\n        /* \"#utility.yul\":18374:18446   */\n      tag_384\n        /* \"#utility.yul\":18442:18444   */\n      0x20\n        /* \"#utility.yul\":18431:18440   */\n      dup4\n        /* \"#utility.yul\":18427:18445   */\n      add\n        /* \"#utility.yul\":18418:18424   */\n      dup9\n        /* \"#utility.yul\":18374:18446   */\n      tag_209\n      jump\t// in\n    tag_384:\n        /* \"#utility.yul\":18456:18528   */\n      tag_385\n        /* \"#utility.yul\":18524:18526   */\n      0x40\n        /* \"#utility.yul\":18513:18522   */\n      dup4\n        /* \"#utility.yul\":18509:18527   */\n      add\n        /* \"#utility.yul\":18500:18506   */\n      dup8\n        /* \"#utility.yul\":18456:18528   */\n      tag_209\n      jump\t// in\n    tag_385:\n        /* \"#utility.yul\":18538:18610   */\n      tag_386\n        /* \"#utility.yul\":18606:18608   */\n      0x60\n        /* \"#utility.yul\":18595:18604   */\n      dup4\n        /* \"#utility.yul\":18591:18609   */\n      add\n        /* \"#utility.yul\":18582:18588   */\n      dup7\n        /* \"#utility.yul\":18538:18610   */\n      tag_191\n      jump\t// in\n    tag_386:\n        /* \"#utility.yul\":18620:18693   */\n      tag_387\n        /* \"#utility.yul\":18688:18691   */\n      0x80\n        /* \"#utility.yul\":18677:18686   */\n      dup4\n        /* \"#utility.yul\":18673:18692   */\n      add\n        /* \"#utility.yul\":18664:18670   */\n      dup6\n        /* \"#utility.yul\":18620:18693   */\n      tag_191\n      jump\t// in\n    tag_387:\n        /* \"#utility.yul\":18703:18776   */\n      tag_388\n        /* \"#utility.yul\":18771:18774   */\n      0xa0\n        /* \"#utility.yul\":18760:18769   */\n      dup4\n        /* \"#utility.yul\":18756:18775   */\n      add\n        /* \"#utility.yul\":18747:18753   */\n      dup5\n        /* \"#utility.yul\":18703:18776   */\n      tag_191\n      jump\t// in\n    tag_388:\n        /* \"#utility.yul\":18008:18783   */\n      swap8\n      swap7\n      pop\n      pop\n      pop\n      pop\n      pop\n      pop\n      pop\n      jump\t// out\n        /* \"#utility.yul\":18789:18959   */\n    tag_218:\n        /* \"#utility.yul\":18929:18951   */\n      0x627579205072696365206e6f7420656e6f756768000000000000000000000000\n        /* \"#utility.yul\":18925:18926   */\n      0x00\n        /* \"#utility.yul\":18917:18923   */\n      dup3\n        /* \"#utility.yul\":18913:18927   */\n      add\n        /* \"#utility.yul\":18906:18952   */\n      mstore\n        /* \"#utility.yul\":18789:18959   */\n      pop\n      jump\t// out\n        /* \"#utility.yul\":18965:19331   */\n    tag_219:\n        /* \"#utility.yul\":19107:19110   */\n      0x00\n        /* \"#utility.yul\":19128:19195   */\n      tag_391\n        /* \"#utility.yul\":19192:19194   */\n      0x14\n        /* \"#utility.yul\":19187:19190   */\n      dup4\n        /* \"#utility.yul\":19128:19195   */\n      tag_202\n      jump\t// in\n    tag_391:\n        /* \"#utility.yul\":19121:19195   */\n      swap2\n      pop\n        /* \"#utility.yul\":19204:19297   */\n      tag_392\n        /* \"#utility.yul\":19293:19296   */\n      dup3\n        /* \"#utility.yul\":19204:19297   */\n      tag_218\n      jump\t// in\n    tag_392:\n        /* \"#utility.yul\":19322:19324   */\n      0x20\n        /* \"#utility.yul\":19317:19320   */\n      dup3\n        /* \"#utility.yul\":19313:19325   */\n      add\n        /* \"#utility.yul\":19306:19325   */\n      swap1\n      pop\n        /* \"#utility.yul\":18965:19331   */\n      swap2\n      swap1\n      pop\n      jump\t// out\n        /* \"#utility.yul\":19337:19756   */\n    tag_122:\n        /* \"#utility.yul\":19503:19507   */\n      0x00\n        /* \"#utility.yul\":19541:19543   */\n      0x20\n        /* \"#utility.yul\":19530:19539   */\n      dup3\n        /* \"#utility.yul\":19526:19544   */\n      add\n        /* \"#utility.yul\":19518:19544   */\n      swap1\n      pop\n        /* \"#utility.yul\":19590:19599   */\n      dup2\n        /* \"#utility.yul\":19584:19588   */\n      dup2\n        /* \"#utility.yul\":19580:19600   */\n      sub\n        /* \"#utility.yul\":19576:19577   */\n      0x00\n        /* \"#utility.yul\":19565:19574   */\n      dup4\n        /* \"#utility.yul\":19561:19578   */\n      add\n        /* \"#utility.yul\":19554:19601   */\n      mstore\n        /* \"#utility.yul\":19618:19749   */\n      tag_394\n        /* \"#utility.yul\":19744:19748   */\n      dup2\n        /* \"#utility.yul\":19618:19749   */\n      tag_219\n      jump\t// in\n    tag_394:\n        /* \"#utility.yul\":19610:19749   */\n      swap1\n      pop\n        /* \"#utility.yul\":19337:19756   */\n      swap2\n      swap1\n      pop\n      jump\t// out\n        /* \"#utility.yul\":19762:19942   */\n    tag_130:\n        /* \"#utility.yul\":19810:19887   */\n      0x4e487b7100000000000000000000000000000000000000000000000000000000\n        /* \"#utility.yul\":19807:19808   */\n      0x00\n        /* \"#utility.yul\":19800:19888   */\n      mstore\n        /* \"#utility.yul\":19907:19911   */\n      0x32\n        /* \"#utility.yul\":19904:19905   */\n      0x04\n        /* \"#utility.yul\":19897:19912   */\n      mstore\n        /* \"#utility.yul\":19931:19935   */\n      0x24\n        /* \"#utility.yul\":19928:19929   */\n      0x00\n        /* \"#utility.yul\":19921:19936   */\n      revert\n        /* \"#utility.yul\":19948:20501   */\n    tag_135:\n        /* \"#utility.yul\":20125:20129   */\n      0x00\n        /* \"#utility.yul\":20163:20166   */\n      0x80\n        /* \"#utility.yul\":20152:20161   */\n      dup3\n        /* \"#utility.yul\":20148:20167   */\n      add\n        /* \"#utility.yul\":20140:20167   */\n      swap1\n      pop\n        /* \"#utility.yul\":20177:20248   */\n      tag_397\n        /* \"#utility.yul\":20245:20246   */\n      0x00\n        /* \"#utility.yul\":20234:20243   */\n      dup4\n        /* \"#utility.yul\":20230:20247   */\n      add\n        /* \"#utility.yul\":20221:20227   */\n      dup8\n        /* \"#utility.yul\":20177:20248   */\n      tag_209\n      jump\t// in\n    tag_397:\n        /* \"#utility.yul\":20258:20330   */\n      tag_398\n        /* \"#utility.yul\":20326:20328   */\n      0x20\n        /* \"#utility.yul\":20315:20324   */\n      dup4\n        /* \"#utility.yul\":20311:20329   */\n      add\n        /* \"#utility.yul\":20302:20308   */\n      dup7\n        /* \"#utility.yul\":20258:20330   */\n      tag_209\n      jump\t// in\n    tag_398:\n        /* \"#utility.yul\":20340:20412   */\n      tag_399\n        /* \"#utility.yul\":20408:20410   */\n      0x40\n        /* \"#utility.yul\":20397:20406   */\n      dup4\n        /* \"#utility.yul\":20393:20411   */\n      add\n        /* \"#utility.yul\":20384:20390   */\n      dup6\n        /* \"#utility.yul\":20340:20412   */\n      tag_191\n      jump\t// in\n    tag_399:\n        /* \"#utility.yul\":20422:20494   */\n      tag_400\n        /* \"#utility.yul\":20490:20492   */\n      0x60\n        /* \"#utility.yul\":20479:20488   */\n      dup4\n        /* \"#utility.yul\":20475:20493   */\n      add\n        /* \"#utility.yul\":20466:20472   */\n      dup5\n        /* \"#utility.yul\":20422:20494   */\n      tag_191\n      jump\t// in\n    tag_400:\n        /* \"#utility.yul\":19948:20501   */\n      swap6\n      swap5\n      pop\n      pop\n      pop\n      pop\n      pop\n      jump\t// out\n        /* \"#utility.yul\":20507:20677   */\n    tag_220:\n        /* \"#utility.yul\":20647:20669   */\n      0x616c6c6f77616e6365206e6f7420656e6f756768000000000000000000000000\n        /* \"#utility.yul\":20643:20644   */\n      0x00\n        /* \"#utility.yul\":20635:20641   */\n      dup3\n        /* \"#utility.yul\":20631:20645   */\n      add\n        /* \"#utility.yul\":20624:20670   */\n      mstore\n        /* \"#utility.yul\":20507:20677   */\n      pop\n      jump\t// out\n        /* \"#utility.yul\":20683:21049   */\n    tag_221:\n        /* \"#utility.yul\":20825:20828   */\n      0x00\n        /* \"#utility.yul\":20846:20913   */\n      tag_403\n        /* \"#utility.yul\":20910:20912   */\n      0x14\n        /* \"#utility.yul\":20905:20908   */\n      dup4\n        /* \"#utility.yul\":20846:20913   */\n      tag_202\n      jump\t// in\n    tag_403:\n        /* \"#utility.yul\":20839:20913   */\n      swap2\n      pop\n        /* \"#utility.yul\":20922:21015   */\n      tag_404\n        /* \"#utility.yul\":21011:21014   */\n      dup3\n        /* \"#utility.yul\":20922:21015   */\n      tag_220\n      jump\t// in\n    tag_404:\n        /* \"#utility.yul\":21040:21042   */\n      0x20\n        /* \"#utility.yul\":21035:21038   */\n      dup3\n        /* \"#utility.yul\":21031:21043   */\n      add\n        /* \"#utility.yul\":21024:21043   */\n      swap1\n      pop\n        /* \"#utility.yul\":20683:21049   */\n      swap2\n      swap1\n      pop\n      jump\t// out\n        /* \"#utility.yul\":21055:21474   */\n    tag_165:\n        /* \"#utility.yul\":21221:21225   */\n      0x00\n        /* \"#utility.yul\":21259:21261   */\n      0x20\n        /* \"#utility.yul\":21248:21257   */\n      dup3\n        /* \"#utility.yul\":21244:21262   */\n      add\n        /* \"#utility.yul\":21236:21262   */\n      swap1\n      pop\n        /* \"#utility.yul\":21308:21317   */\n      dup2\n        /* \"#utility.yul\":21302:21306   */\n      dup2\n        /* \"#utility.yul\":21298:21318   */\n      sub\n        /* \"#utility.yul\":21294:21295   */\n      0x00\n        /* \"#utility.yul\":21283:21292   */\n      dup4\n        /* \"#utility.yul\":21279:21296   */\n      add\n        /* \"#utility.yul\":21272:21319   */\n      mstore\n        /* \"#utility.yul\":21336:21467   */\n      tag_406\n        /* \"#utility.yul\":21462:21466   */\n      dup2\n        /* \"#utility.yul\":21336:21467   */\n      tag_221\n      jump\t// in\n    tag_406:\n        /* \"#utility.yul\":21328:21467   */\n      swap1\n      pop\n        /* \"#utility.yul\":21055:21474   */\n      swap2\n      swap1\n      pop\n      jump\t// out\n        /* \"#utility.yul\":21480:21627   */\n    tag_222:\n        /* \"#utility.yul\":21581:21592   */\n      0x00\n        /* \"#utility.yul\":21618:21621   */\n      dup2\n        /* \"#utility.yul\":21603:21621   */\n      swap1\n      pop\n        /* \"#utility.yul\":21480:21627   */\n      swap3\n      swap2\n      pop\n      pop\n      jump\t// out\n        /* \"#utility.yul\":21633:21747   */\n    tag_223:\n      pop\n      jump\t// out\n        /* \"#utility.yul\":21753:22151   */\n    tag_224:\n        /* \"#utility.yul\":21912:21915   */\n      0x00\n        /* \"#utility.yul\":21933:22016   */\n      tag_410\n        /* \"#utility.yul\":22014:22015   */\n      0x00\n        /* \"#utility.yul\":22009:22012   */\n      dup4\n        /* \"#utility.yul\":21933:22016   */\n      tag_222\n      jump\t// in\n    tag_410:\n        /* \"#utility.yul\":21926:22016   */\n      swap2\n      pop\n        /* \"#utility.yul\":22025:22118   */\n      tag_411\n        /* \"#utility.yul\":22114:22117   */\n      dup3\n        /* \"#utility.yul\":22025:22118   */\n      tag_223\n      jump\t// in\n    tag_411:\n        /* \"#utility.yul\":22143:22144   */\n      0x00\n        /* \"#utility.yul\":22138:22141   */\n      dup3\n        /* \"#utility.yul\":22134:22145   */\n      add\n        /* \"#utility.yul\":22127:22145   */\n      swap1\n      pop\n        /* \"#utility.yul\":21753:22151   */\n      swap2\n      swap1\n      pop\n      jump\t// out\n        /* \"#utility.yul\":22157:22536   */\n    tag_168:\n        /* \"#utility.yul\":22341:22344   */\n      0x00\n        /* \"#utility.yul\":22363:22510   */\n      tag_413\n        /* \"#utility.yul\":22506:22509   */\n      dup3\n        /* \"#utility.yul\":22363:22510   */\n      tag_224\n      jump\t// in\n    tag_413:\n        /* \"#utility.yul\":22356:22510   */\n      swap2\n      pop\n        /* \"#utility.yul\":22527:22530   */\n      dup2\n        /* \"#utility.yul\":22520:22530   */\n      swap1\n      pop\n        /* \"#utility.yul\":22157:22536   */\n      swap2\n      swap1\n      pop\n      jump\t// out\n        /* \"#utility.yul\":22542:22705   */\n    tag_225:\n        /* \"#utility.yul\":22682:22697   */\n      0x726566756e64206661696c656400000000000000000000000000000000000000\n        /* \"#utility.yul\":22678:22679   */\n      0x00\n        /* \"#utility.yul\":22670:22676   */\n      dup3\n        /* \"#utility.yul\":22666:22680   */\n      add\n        /* \"#utility.yul\":22659:22698   */\n      mstore\n        /* \"#utility.yul\":22542:22705   */\n      pop\n      jump\t// out\n        /* \"#utility.yul\":22711:23077   */\n    tag_226:\n        /* \"#utility.yul\":22853:22856   */\n      0x00\n        /* \"#utility.yul\":22874:22941   */\n      tag_416\n        /* \"#utility.yul\":22938:22940   */\n      0x0d\n        /* \"#utility.yul\":22933:22936   */\n      dup4\n        /* \"#utility.yul\":22874:22941   */\n      tag_202\n      jump\t// in\n    tag_416:\n        /* \"#utility.yul\":22867:22941   */\n      swap2\n      pop\n        /* \"#utility.yul\":22950:23043   */\n      tag_417\n        /* \"#utility.yul\":23039:23042   */\n      dup3\n        /* \"#utility.yul\":22950:23043   */\n      tag_225\n      jump\t// in\n    tag_417:\n        /* \"#utility.yul\":23068:23070   */\n      0x20\n        /* \"#utility.yul\":23063:23066   */\n      dup3\n        /* \"#utility.yul\":23059:23071   */\n      add\n        /* \"#utility.yul\":23052:23071   */\n      swap1\n      pop\n        /* \"#utility.yul\":22711:23077   */\n      swap2\n      swap1\n      pop\n      jump\t// out\n        /* \"#utility.yul\":23083:23502   */\n    tag_174:\n        /* \"#utility.yul\":23249:23253   */\n      0x00\n        /* \"#utility.yul\":23287:23289   */\n      0x20\n        /* \"#utility.yul\":23276:23285   */\n      dup3\n        /* \"#utility.yul\":23272:23290   */\n      add\n        /* \"#utility.yul\":23264:23290   */\n      swap1\n      pop\n        /* \"#utility.yul\":23336:23345   */\n      dup2\n        /* \"#utility.yul\":23330:23334   */\n      dup2\n        /* \"#utility.yul\":23326:23346   */\n      sub\n        /* \"#utility.yul\":23322:23323   */\n      0x00\n        /* \"#utility.yul\":23311:23320   */\n      dup4\n        /* \"#utility.yul\":23307:23324   */\n      add\n        /* \"#utility.yul\":23300:23347   */\n      mstore\n        /* \"#utility.yul\":23364:23495   */\n      tag_419\n        /* \"#utility.yul\":23490:23494   */\n      dup2\n        /* \"#utility.yul\":23364:23495   */\n      tag_226\n      jump\t// in\n    tag_419:\n        /* \"#utility.yul\":23356:23495   */\n      swap1\n      pop\n        /* \"#utility.yul\":23083:23502   */\n      swap2\n      swap1\n      pop\n      jump\t// out\n\n    auxdata: 0xa264697066735822122074805ae67caa9cacbd590e44260bb19bc96eb489ed555f8b5367bd62872593d964736f6c63430008100033\n}\n",
				"bytecode": {
					"linkReferences": {},
					"object": "608060405234801561001057600080fd5b506121dc806100206000396000f3fe60806040526004361061007f5760003560e01c80638c3417da1161004e5780638c3417da146101575780639f085a0014610194578063baf4371e146101bf578063d3a6a6c9146101db57610086565b8063150b7a021461008b5780634676adca146100c85780636916462f146100f157806369a6d12e1461012e57610086565b3661008657005b600080fd5b34801561009757600080fd5b506100b260048036038101906100ad919061183d565b610204565b6040516100bf9190611900565b60405180910390f35b3480156100d457600080fd5b506100ef60048036038101906100ea919061191b565b610219565b005b3480156100fd57600080fd5b506101186004803603810190610113919061196e565b61046f565b60405161012591906119bd565b60405180910390f35b34801561013a57600080fd5b50610155600480360381019061015091906119d8565b610494565b005b34801561016357600080fd5b5061017e6004803603810190610179919061196e565b610abd565b60405161018b9190611ab2565b60405180910390f35b3480156101a057600080fd5b506101a9610c33565b6040516101b69190611bab565b60405180910390f35b6101d960048036038101906101d4919061191b565b610cf2565b005b3480156101e757600080fd5b5061020260048036038101906101fd919061196e565b6111e5565b005b600063150b7a0260e01b905095945050505050565b828260018060008473ffffffffffffffffffffffffffffffffffffffff1673ffffffffffffffffffffffffffffffffffffffff168152602001908152602001600020600083815260200190815260200160002054146102ad576040517f08c379a00000000000000000000000000000000000000000000000000000000081526004016102a490611c2a565b60405180910390fd5b84846000808373ffffffffffffffffffffffffffffffffffffffff1673ffffffffffffffffffffffffffffffffffffffff168152602001908152602001600020600082815260200190815260200160002060000160009054906101000a900473ffffffffffffffffffffffffffffffffffffffff1673ffffffffffffffffffffffffffffffffffffffff163373ffffffffffffffffffffffffffffffffffffffff161461038f576040517f08c379a000000000000000000000000000000000000000000000000000000000815260040161038690611c96565b60405180910390fd5b84600081116103d3576040517f08c379a00000000000000000000000000000000000000000000000000000000081526004016103ca90611d02565b60405180910390fd5b856000808a73ffffffffffffffffffffffffffffffffffffffff1673ffffffffffffffffffffffffffffffffffffffff1681526020019081526020016000206000898152602001908152602001600020600301819055507f575a0876095ccf47276a37dce683308a625403d132d219f95205ce205b2e12bc88888860405161045d93929190611d31565b60405180910390a15050505050505050565b6001602052816000526040600020602052806000526040600020600091509150505481565b83828173ffffffffffffffffffffffffffffffffffffffff16636352211e826040518263ffffffff1660e01b81526004016104cf91906119bd565b602060405180830381865afa1580156104ec573d6000803e3d6000fd5b505050506040513d601f19601f820116820180604052508101906105109190611d7d565b73ffffffffffffffffffffffffffffffffffffffff163373ffffffffffffffffffffffffffffffffffffffff161461057d576040517f08c379a000000000000000000000000000000000000000000000000000000000815260040161057490611c96565b60405180910390fd5b85846000600160008473ffffffffffffffffffffffffffffffffffffffff1673ffffffffffffffffffffffffffffffffffffffff16815260200190815260200160002060008381526020019081526020016000205414610612576040517f08c379a000000000000000000000000000000000000000000000000000000000815260040161060990611df6565b60405180910390fd5b87868173ffffffffffffffffffffffffffffffffffffffff1663e985e9c533306040518363ffffffff1660e01b815260040161064f929190611e16565b602060405180830381865afa15801561066c573d6000803e3d6000fd5b505050506040513d601f19601f820116820180604052508101906106909190611e77565b6106cf576040517f08c379a00000000000000000000000000000000000000000000000000000000081526004016106c690611ef0565b60405180910390fd5b8660008111610713576040517f08c379a000000000000000000000000000000000000000000000000000000000815260040161070a90611d02565b60405180910390fd5b60405180608001604052803373ffffffffffffffffffffffffffffffffffffffff168152602001600073ffffffffffffffffffffffffffffffffffffffff1681526020018b73ffffffffffffffffffffffffffffffffffffffff168152602001898152506000808d73ffffffffffffffffffffffffffffffffffffffff1673ffffffffffffffffffffffffffffffffffffffff16815260200190815260200160002060008b815260200190815260200160002060008201518160000160006101000a81548173ffffffffffffffffffffffffffffffffffffffff021916908373ffffffffffffffffffffffffffffffffffffffff16021790555060208201518160010160006101000a81548173ffffffffffffffffffffffffffffffffffffffff021916908373ffffffffffffffffffffffffffffffffffffffff16021790555060408201518160020160006101000a81548173ffffffffffffffffffffffffffffffffffffffff021916908373ffffffffffffffffffffffffffffffffffffffff1602179055506060820151816003015590505060018060008d73ffffffffffffffffffffffffffffffffffffffff1673ffffffffffffffffffffffffffffffffffffffff16815260200190815260200160002060008b815260200190815260200160002081905550600380549050600260008d73ffffffffffffffffffffffffffffffffffffffff1673ffffffffffffffffffffffffffffffffffffffff16815260200190815260200160002060008b815260200190815260200160002081905550600360405180604001604052808d73ffffffffffffffffffffffffffffffffffffffff1681526020018b815250908060018154018082558091505060019003906000526020600020906002020160009091909190915060008201518160000160006101000a81548173ffffffffffffffffffffffffffffffffffffffff021916908373ffffffffffffffffffffffffffffffffffffffff1602179055506020820151816001015550508a73ffffffffffffffffffffffffffffffffffffffff166342842e0e33308c6040518463ffffffff1660e01b8152600401610a3d93929190611f10565b600060405180830381600087803b158015610a5757600080fd5b505af1158015610a6b573d6000803e3d6000fd5b505050507f078eead3cd01ed921c7653d000a6b73aea643a7b9c066fb7d93eb2eae8acc2d98b338c8c8c42604051610aa896959493929190611f47565b60405180910390a15050505050505050505050565b610ac56116d0565b6000808473ffffffffffffffffffffffffffffffffffffffff1673ffffffffffffffffffffffffffffffffffffffff16815260200190815260200160002060008381526020019081526020016000206040518060800160405290816000820160009054906101000a900473ffffffffffffffffffffffffffffffffffffffff1673ffffffffffffffffffffffffffffffffffffffff1673ffffffffffffffffffffffffffffffffffffffff1681526020016001820160009054906101000a900473ffffffffffffffffffffffffffffffffffffffff1673ffffffffffffffffffffffffffffffffffffffff1673ffffffffffffffffffffffffffffffffffffffff1681526020016002820160009054906101000a900473ffffffffffffffffffffffffffffffffffffffff1673ffffffffffffffffffffffffffffffffffffffff1673ffffffffffffffffffffffffffffffffffffffff168152602001600382015481525050905092915050565b60606003805480602002602001604051908101604052809291908181526020016000905b82821015610ce957838290600052602060002090600202016040518060400160405290816000820160009054906101000a900473ffffffffffffffffffffffffffffffffffffffff1673ffffffffffffffffffffffffffffffffffffffff1673ffffffffffffffffffffffffffffffffffffffff16815260200160018201548152505081526020019060010190610c57565b50505050905090565b828260018060008473ffffffffffffffffffffffffffffffffffffffff1673ffffffffffffffffffffffffffffffffffffffff16815260200190815260200160002060008381526020019081526020016000205414610d86576040517f08c379a0000000000000000000000000000000000000000000000000000000008152600401610d7d90611c2a565b60405180910390fd5b8260008111610dca576040517f08c379a0000000000000000000000000000000000000000000000000000000008152600401610dc190611d02565b60405180910390fd5b8585856000808473ffffffffffffffffffffffffffffffffffffffff1673ffffffffffffffffffffffffffffffffffffffff168152602001908152602001600020600083815260200190815260200160002060030154811015610e62576040517f08c379a0000000000000000000000000000000000000000000000000000000008152600401610e5990611ff4565b60405180910390fd5b8873ffffffffffffffffffffffffffffffffffffffff166342842e0e30338b6040518463ffffffff1660e01b8152600401610e9f93929190611f10565b600060405180830381600087803b158015610eb957600080fd5b505af1158015610ecd573d6000803e3d6000fd5b505050506000600160008b73ffffffffffffffffffffffffffffffffffffffff1673ffffffffffffffffffffffffffffffffffffffff16815260200190815260200160002060008a8152602001908152602001600020819055506003600260008b73ffffffffffffffffffffffffffffffffffffffff1673ffffffffffffffffffffffffffffffffffffffff16815260200190815260200160002060008a81526020019081526020016000205481548110610f8b57610f8a612014565b5b9060005260206000209060020201600080820160006101000a81549073ffffffffffffffffffffffffffffffffffffffff021916905560018201600090555050336000808b73ffffffffffffffffffffffffffffffffffffffff1673ffffffffffffffffffffffffffffffffffffffff16815260200190815260200160002060008a815260200190815260200160002060010160006101000a81548173ffffffffffffffffffffffffffffffffffffffff021916908373ffffffffffffffffffffffffffffffffffffffff16021790555061119d6000808b73ffffffffffffffffffffffffffffffffffffffff1673ffffffffffffffffffffffffffffffffffffffff16815260200190815260200160002060008a815260200190815260200160002060000160009054906101000a900473ffffffffffffffffffffffffffffffffffffffff166000808c73ffffffffffffffffffffffffffffffffffffffff1673ffffffffffffffffffffffffffffffffffffffff16815260200190815260200160002060008b815260200190815260200160002060020160009054906101000a900473ffffffffffffffffffffffffffffffffffffffff166000808d73ffffffffffffffffffffffffffffffffffffffff1673ffffffffffffffffffffffffffffffffffffffff16815260200190815260200160002060008c815260200190815260200160002060030154611507565b7f9fa3b1bb9266e05722b54a7a564d02a274bc80d39f4af21e6be405480996ceba89338a8a6040516111d29493929190612043565b60405180910390a1505050505050505050565b818160018060008473ffffffffffffffffffffffffffffffffffffffff1673ffffffffffffffffffffffffffffffffffffffff16815260200190815260200160002060008381526020019081526020016000205414611279576040517f08c379a000000000000000000000000000000000000000000000000000000000815260040161127090611c2a565b60405180910390fd5b83836000808373ffffffffffffffffffffffffffffffffffffffff1673ffffffffffffffffffffffffffffffffffffffff168152602001908152602001600020600082815260200190815260200160002060000160009054906101000a900473ffffffffffffffffffffffffffffffffffffffff1673ffffffffffffffffffffffffffffffffffffffff163373ffffffffffffffffffffffffffffffffffffffff161461135b576040517f08c379a000000000000000000000000000000000000000000000000000000000815260040161135290611c96565b60405180910390fd5b8573ffffffffffffffffffffffffffffffffffffffff166342842e0e3033886040518463ffffffff1660e01b815260040161139893929190611f10565b600060405180830381600087803b1580156113b257600080fd5b505af11580156113c6573d6000803e3d6000fd5b505050506000600160008873ffffffffffffffffffffffffffffffffffffffff1673ffffffffffffffffffffffffffffffffffffffff1681526020019081526020016000206000878152602001908152602001600020819055506003600260008873ffffffffffffffffffffffffffffffffffffffff1673ffffffffffffffffffffffffffffffffffffffff1681526020019081526020016000206000878152602001908152602001600020548154811061148457611483612014565b5b9060005260206000209060020201600080820160006101000a81549073ffffffffffffffffffffffffffffffffffffffff0219169055600182016000905550507fd7348ff00cf381a884144b50b3441398a48a7974ec349287df80e18cec9f5a318633876040516114f793929190611f10565b60405180910390a1505050505050565b600073ffffffffffffffffffffffffffffffffffffffff168273ffffffffffffffffffffffffffffffffffffffff161461154b5761154683838361155b565b611556565b611555838261161f565b5b505050565b8173ffffffffffffffffffffffffffffffffffffffff166323b872dd3385846040518463ffffffff1660e01b815260040161159893929190611f10565b6020604051808303816000875af11580156115b7573d6000803e3d6000fd5b505050506040513d601f19601f820116820180604052508101906115db9190611e77565b61161a576040517f08c379a0000000000000000000000000000000000000000000000000000000008152600401611611906120d4565b60405180910390fd5b505050565b60008273ffffffffffffffffffffffffffffffffffffffff168260405161164590612125565b60006040518083038185875af1925050503d8060008114611682576040519150601f19603f3d011682016040523d82523d6000602084013e611687565b606091505b50509050806116cb576040517f08c379a00000000000000000000000000000000000000000000000000000000081526004016116c290612186565b60405180910390fd5b505050565b6040518060800160405280600073ffffffffffffffffffffffffffffffffffffffff168152602001600073ffffffffffffffffffffffffffffffffffffffff168152602001600073ffffffffffffffffffffffffffffffffffffffff168152602001600081525090565b600080fd5b600080fd5b600073ffffffffffffffffffffffffffffffffffffffff82169050919050565b600061176f82611744565b9050919050565b61177f81611764565b811461178a57600080fd5b50565b60008135905061179c81611776565b92915050565b6000819050919050565b6117b5816117a2565b81146117c057600080fd5b50565b6000813590506117d2816117ac565b92915050565b600080fd5b600080fd5b600080fd5b60008083601f8401126117fd576117fc6117d8565b5b8235905067ffffffffffffffff81111561181a576118196117dd565b5b602083019150836001820283011115611836576118356117e2565b5b9250929050565b6000806000806000608086880312156118595761185861173a565b5b60006118678882890161178d565b95505060206118788882890161178d565b9450506040611889888289016117c3565b935050606086013567ffffffffffffffff8111156118aa576118a961173f565b5b6118b6888289016117e7565b92509250509295509295909350565b60007fffffffff0000000000000000000000000000000000000000000000000000000082169050919050565b6118fa816118c5565b82525050565b600060208201905061191560008301846118f1565b92915050565b6000806000606084860312156119345761193361173a565b5b60006119428682870161178d565b9350506020611953868287016117c3565b9250506040611964868287016117c3565b9150509250925092565b600080604083850312156119855761198461173a565b5b60006119938582860161178d565b92505060206119a4858286016117c3565b9150509250929050565b6119b7816117a2565b82525050565b60006020820190506119d260008301846119ae565b92915050565b600080600080608085870312156119f2576119f161173a565b5b6000611a008782880161178d565b9450506020611a118782880161178d565b9350506040611a22878288016117c3565b9250506060611a33878288016117c3565b91505092959194509250565b611a4881611764565b82525050565b611a57816117a2565b82525050565b608082016000820151611a736000850182611a3f565b506020820151611a866020850182611a3f565b506040820151611a996040850182611a3f565b506060820151611aac6060850182611a4e565b50505050565b6000608082019050611ac76000830184611a5d565b92915050565b600081519050919050565b600082825260208201905092915050565b6000819050602082019050919050565b604082016000820151611b0f6000850182611a3f565b506020820151611b226020850182611a4e565b50505050565b6000611b348383611af9565b60408301905092915050565b6000602082019050919050565b6000611b5882611acd565b611b628185611ad8565b9350611b6d83611ae9565b8060005b83811015611b9e578151611b858882611b28565b9750611b9083611b40565b925050600181019050611b71565b5085935050505092915050565b60006020820190508181036000830152611bc58184611b4d565b905092915050565b600082825260208201905092915050565b7f4e6674206e6f7420696e2066697865642073616c650000000000000000000000600082015250565b6000611c14601583611bcd565b9150611c1f82611bde565b602082019050919050565b60006020820190508181036000830152611c4381611c07565b9050919050565b7f596f7520617265206e6f74206e6674206f776e65720000000000000000000000600082015250565b6000611c80601583611bcd565b9150611c8b82611c4a565b602082019050919050565b60006020820190508181036000830152611caf81611c73565b9050919050565b7f50726963652063616e6e6f742062652030000000000000000000000000000000600082015250565b6000611cec601183611bcd565b9150611cf782611cb6565b602082019050919050565b60006020820190508181036000830152611d1b81611cdf565b9050919050565b611d2b81611764565b82525050565b6000606082019050611d466000830186611d22565b611d5360208301856119ae565b611d6060408301846119ae565b949350505050565b600081519050611d7781611776565b92915050565b600060208284031215611d9357611d9261173a565b5b6000611da184828501611d68565b91505092915050565b7f4e667420616c726561647920696e2073616c6500000000000000000000000000600082015250565b6000611de0601383611bcd565b9150611deb82611daa565b602082019050919050565b60006020820190508181036000830152611e0f81611dd3565b9050919050565b6000604082019050611e2b6000830185611d22565b611e386020830184611d22565b9392505050565b60008115159050919050565b611e5481611e3f565b8114611e5f57600080fd5b50565b600081519050611e7181611e4b565b92915050565b600060208284031215611e8d57611e8c61173a565b5b6000611e9b84828501611e62565b91505092915050565b7f4e6674206e6f7420617070726f76656420746f20636f6e747261637400000000600082015250565b6000611eda601c83611bcd565b9150611ee582611ea4565b602082019050919050565b60006020820190508181036000830152611f0981611ecd565b9050919050565b6000606082019050611f256000830186611d22565b611f326020830185611d22565b611f3f60408301846119ae565b949350505050565b600060c082019050611f5c6000830189611d22565b611f696020830188611d22565b611f766040830187611d22565b611f8360608301866119ae565b611f9060808301856119ae565b611f9d60a08301846119ae565b979650505050505050565b7f627579205072696365206e6f7420656e6f756768000000000000000000000000600082015250565b6000611fde601483611bcd565b9150611fe982611fa8565b602082019050919050565b6000602082019050818103600083015261200d81611fd1565b9050919050565b7f4e487b7100000000000000000000000000000000000000000000000000000000600052603260045260246000fd5b60006080820190506120586000830187611d22565b6120656020830186611d22565b61207260408301856119ae565b61207f60608301846119ae565b95945050505050565b7f616c6c6f77616e6365206e6f7420656e6f756768000000000000000000000000600082015250565b60006120be601483611bcd565b91506120c982612088565b602082019050919050565b600060208201905081810360008301526120ed816120b1565b9050919050565b600081905092915050565b50565b600061210f6000836120f4565b915061211a826120ff565b600082019050919050565b600061213082612102565b9150819050919050565b7f726566756e64206661696c656400000000000000000000000000000000000000600082015250565b6000612170600d83611bcd565b915061217b8261213a565b602082019050919050565b6000602082019050818103600083015261219f81612163565b905091905056fea264697066735822122074805ae67caa9cacbd590e44260bb19bc96eb489ed555f8b5367bd62872593d964736f6c63430008100033",
					"opcodes": "PUSH1 0x80 PUSH1 0x40 MSTORE CALLVALUE DUP1 ISZERO PUSH2 0x10 JUMPI PUSH1 0x0 DUP1 REVERT JUMPDEST POP PUSH2 0x21DC DUP1 PUSH2 0x20 PUSH1 0x0 CODECOPY PUSH1 0x0 RETURN INVALID PUSH1 0x80 PUSH1 0x40 MSTORE PUSH1 0x4 CALLDATASIZE LT PUSH2 0x7F JUMPI PUSH1 0x0 CALLDATALOAD PUSH1 0xE0 SHR DUP1 PUSH4 0x8C3417DA GT PUSH2 0x4E JUMPI DUP1 PUSH4 0x8C3417DA EQ PUSH2 0x157 JUMPI DUP1 PUSH4 0x9F085A00 EQ PUSH2 0x194 JUMPI DUP1 PUSH4 0xBAF4371E EQ PUSH2 0x1BF JUMPI DUP1 PUSH4 0xD3A6A6C9 EQ PUSH2 0x1DB JUMPI PUSH2 0x86 JUMP JUMPDEST DUP1 PUSH4 0x150B7A02 EQ PUSH2 0x8B JUMPI DUP1 PUSH4 0x4676ADCA EQ PUSH2 0xC8 JUMPI DUP1 PUSH4 0x6916462F EQ PUSH2 0xF1 JUMPI DUP1 PUSH4 0x69A6D12E EQ PUSH2 0x12E JUMPI PUSH2 0x86 JUMP JUMPDEST CALLDATASIZE PUSH2 0x86 JUMPI STOP JUMPDEST PUSH1 0x0 DUP1 REVERT JUMPDEST CALLVALUE DUP1 ISZERO PUSH2 0x97 JUMPI PUSH1 0x0 DUP1 REVERT JUMPDEST POP PUSH2 0xB2 PUSH1 0x4 DUP1 CALLDATASIZE SUB DUP2 ADD SWAP1 PUSH2 0xAD SWAP2 SWAP1 PUSH2 0x183D JUMP JUMPDEST PUSH2 0x204 JUMP JUMPDEST PUSH1 0x40 MLOAD PUSH2 0xBF SWAP2 SWAP1 PUSH2 0x1900 JUMP JUMPDEST PUSH1 0x40 MLOAD DUP1 SWAP2 SUB SWAP1 RETURN JUMPDEST CALLVALUE DUP1 ISZERO PUSH2 0xD4 JUMPI PUSH1 0x0 DUP1 REVERT JUMPDEST POP PUSH2 0xEF PUSH1 0x4 DUP1 CALLDATASIZE SUB DUP2 ADD SWAP1 PUSH2 0xEA SWAP2 SWAP1 PUSH2 0x191B JUMP JUMPDEST PUSH2 0x219 JUMP JUMPDEST STOP JUMPDEST CALLVALUE DUP1 ISZERO PUSH2 0xFD JUMPI PUSH1 0x0 DUP1 REVERT JUMPDEST POP PUSH2 0x118 PUSH1 0x4 DUP1 CALLDATASIZE SUB DUP2 ADD SWAP1 PUSH2 0x113 SWAP2 SWAP1 PUSH2 0x196E JUMP JUMPDEST PUSH2 0x46F JUMP JUMPDEST PUSH1 0x40 MLOAD PUSH2 0x125 SWAP2 SWAP1 PUSH2 0x19BD JUMP JUMPDEST PUSH1 0x40 MLOAD DUP1 SWAP2 SUB SWAP1 RETURN JUMPDEST CALLVALUE DUP1 ISZERO PUSH2 0x13A JUMPI PUSH1 0x0 DUP1 REVERT JUMPDEST POP PUSH2 0x155 PUSH1 0x4 DUP1 CALLDATASIZE SUB DUP2 ADD SWAP1 PUSH2 0x150 SWAP2 SWAP1 PUSH2 0x19D8 JUMP JUMPDEST PUSH2 0x494 JUMP JUMPDEST STOP JUMPDEST CALLVALUE DUP1 ISZERO PUSH2 0x163 JUMPI PUSH1 0x0 DUP1 REVERT JUMPDEST POP PUSH2 0x17E PUSH1 0x4 DUP1 CALLDATASIZE SUB DUP2 ADD SWAP1 PUSH2 0x179 SWAP2 SWAP1 PUSH2 0x196E JUMP JUMPDEST PUSH2 0xABD JUMP JUMPDEST PUSH1 0x40 MLOAD PUSH2 0x18B SWAP2 SWAP1 PUSH2 0x1AB2 JUMP JUMPDEST PUSH1 0x40 MLOAD DUP1 SWAP2 SUB SWAP1 RETURN JUMPDEST CALLVALUE DUP1 ISZERO PUSH2 0x1A0 JUMPI PUSH1 0x0 DUP1 REVERT JUMPDEST POP PUSH2 0x1A9 PUSH2 0xC33 JUMP JUMPDEST PUSH1 0x40 MLOAD PUSH2 0x1B6 SWAP2 SWAP1 PUSH2 0x1BAB JUMP JUMPDEST PUSH1 0x40 MLOAD DUP1 SWAP2 SUB SWAP1 RETURN JUMPDEST PUSH2 0x1D9 PUSH1 0x4 DUP1 CALLDATASIZE SUB DUP2 ADD SWAP1 PUSH2 0x1D4 SWAP2 SWAP1 PUSH2 0x191B JUMP JUMPDEST PUSH2 0xCF2 JUMP JUMPDEST STOP JUMPDEST CALLVALUE DUP1 ISZERO PUSH2 0x1E7 JUMPI PUSH1 0x0 DUP1 REVERT JUMPDEST POP PUSH2 0x202 PUSH1 0x4 DUP1 CALLDATASIZE SUB DUP2 ADD SWAP1 PUSH2 0x1FD SWAP2 SWAP1 PUSH2 0x196E JUMP JUMPDEST PUSH2 0x11E5 JUMP JUMPDEST STOP JUMPDEST PUSH1 0x0 PUSH4 0x150B7A02 PUSH1 0xE0 SHL SWAP1 POP SWAP6 SWAP5 POP POP POP POP POP JUMP JUMPDEST DUP3 DUP3 PUSH1 0x1 DUP1 PUSH1 0x0 DUP5 PUSH20 0xFFFFFFFFFFFFFFFFFFFFFFFFFFFFFFFFFFFFFFFF AND PUSH20 0xFFFFFFFFFFFFFFFFFFFFFFFFFFFFFFFFFFFFFFFF AND DUP2 MSTORE PUSH1 0x20 ADD SWAP1 DUP2 MSTORE PUSH1 0x20 ADD PUSH1 0x0 KECCAK256 PUSH1 0x0 DUP4 DUP2 MSTORE PUSH1 0x20 ADD SWAP1 DUP2 MSTORE PUSH1 0x20 ADD PUSH1 0x0 KECCAK256 SLOAD EQ PUSH2 0x2AD JUMPI PUSH1 0x40 MLOAD PUSH32 0x8C379A000000000000000000000000000000000000000000000000000000000 DUP2 MSTORE PUSH1 0x4 ADD PUSH2 0x2A4 SWAP1 PUSH2 0x1C2A JUMP JUMPDEST PUSH1 0x40 MLOAD DUP1 SWAP2 SUB SWAP1 REVERT JUMPDEST DUP5 DUP5 PUSH1 0x0 DUP1 DUP4 PUSH20 0xFFFFFFFFFFFFFFFFFFFFFFFFFFFFFFFFFFFFFFFF AND PUSH20 0xFFFFFFFFFFFFFFFFFFFFFFFFFFFFFFFFFFFFFFFF AND DUP2 MSTORE PUSH1 0x20 ADD SWAP1 DUP2 MSTORE PUSH1 0x20 ADD PUSH1 0x0 KECCAK256 PUSH1 0x0 DUP3 DUP2 MSTORE PUSH1 0x20 ADD SWAP1 DUP2 MSTORE PUSH1 0x20 ADD PUSH1 0x0 KECCAK256 PUSH1 0x0 ADD PUSH1 0x0 SWAP1 SLOAD SWAP1 PUSH2 0x100 EXP SWAP1 DIV PUSH20 0xFFFFFFFFFFFFFFFFFFFFFFFFFFFFFFFFFFFFFFFF AND PUSH20 0xFFFFFFFFFFFFFFFFFFFFFFFFFFFFFFFFFFFFFFFF AND CALLER PUSH20 0xFFFFFFFFFFFFFFFFFFFFFFFFFFFFFFFFFFFFFFFF AND EQ PUSH2 0x38F JUMPI PUSH1 0x40 MLOAD PUSH32 0x8C379A000000000000000000000000000000000000000000000000000000000 DUP2 MSTORE PUSH1 0x4 ADD PUSH2 0x386 SWAP1 PUSH2 0x1C96 JUMP JUMPDEST PUSH1 0x40 MLOAD DUP1 SWAP2 SUB SWAP1 REVERT JUMPDEST DUP5 PUSH1 0x0 DUP2 GT PUSH2 0x3D3 JUMPI PUSH1 0x40 MLOAD PUSH32 0x8C379A000000000000000000000000000000000000000000000000000000000 DUP2 MSTORE PUSH1 0x4 ADD PUSH2 0x3CA SWAP1 PUSH2 0x1D02 JUMP JUMPDEST PUSH1 0x40 MLOAD DUP1 SWAP2 SUB SWAP1 REVERT JUMPDEST DUP6 PUSH1 0x0 DUP1 DUP11 PUSH20 0xFFFFFFFFFFFFFFFFFFFFFFFFFFFFFFFFFFFFFFFF AND PUSH20 0xFFFFFFFFFFFFFFFFFFFFFFFFFFFFFFFFFFFFFFFF AND DUP2 MSTORE PUSH1 0x20 ADD SWAP1 DUP2 MSTORE PUSH1 0x20 ADD PUSH1 0x0 KECCAK256 PUSH1 0x0 DUP10 DUP2 MSTORE PUSH1 0x20 ADD SWAP1 DUP2 MSTORE PUSH1 0x20 ADD PUSH1 0x0 KECCAK256 PUSH1 0x3 ADD DUP2 SWAP1 SSTORE POP PUSH32 0x575A0876095CCF47276A37DCE683308A625403D132D219F95205CE205B2E12BC DUP9 DUP9 DUP9 PUSH1 0x40 MLOAD PUSH2 0x45D SWAP4 SWAP3 SWAP2 SWAP1 PUSH2 0x1D31 JUMP JUMPDEST PUSH1 0x40 MLOAD DUP1 SWAP2 SUB SWAP1 LOG1 POP POP POP POP POP POP POP POP JUMP JUMPDEST PUSH1 0x1 PUSH1 0x20 MSTORE DUP2 PUSH1 0x0 MSTORE PUSH1 0x40 PUSH1 0x0 KECCAK256 PUSH1 0x20 MSTORE DUP1 PUSH1 0x0 MSTORE PUSH1 0x40 PUSH1 0x0 KECCAK256 PUSH1 0x0 SWAP2 POP SWAP2 POP POP SLOAD DUP2 JUMP JUMPDEST DUP4 DUP3 DUP2 PUSH20 0xFFFFFFFFFFFFFFFFFFFFFFFFFFFFFFFFFFFFFFFF AND PUSH4 0x6352211E DUP3 PUSH1 0x40 MLOAD DUP3 PUSH4 0xFFFFFFFF AND PUSH1 0xE0 SHL DUP2 MSTORE PUSH1 0x4 ADD PUSH2 0x4CF SWAP2 SWAP1 PUSH2 0x19BD JUMP JUMPDEST PUSH1 0x20 PUSH1 0x40 MLOAD DUP1 DUP4 SUB DUP2 DUP7 GAS STATICCALL ISZERO DUP1 ISZERO PUSH2 0x4EC JUMPI RETURNDATASIZE PUSH1 0x0 DUP1 RETURNDATACOPY RETURNDATASIZE PUSH1 0x0 REVERT JUMPDEST POP POP POP POP PUSH1 0x40 MLOAD RETURNDATASIZE PUSH1 0x1F NOT PUSH1 0x1F DUP3 ADD AND DUP3 ADD DUP1 PUSH1 0x40 MSTORE POP DUP2 ADD SWAP1 PUSH2 0x510 SWAP2 SWAP1 PUSH2 0x1D7D JUMP JUMPDEST PUSH20 0xFFFFFFFFFFFFFFFFFFFFFFFFFFFFFFFFFFFFFFFF AND CALLER PUSH20 0xFFFFFFFFFFFFFFFFFFFFFFFFFFFFFFFFFFFFFFFF AND EQ PUSH2 0x57D JUMPI PUSH1 0x40 MLOAD PUSH32 0x8C379A000000000000000000000000000000000000000000000000000000000 DUP2 MSTORE PUSH1 0x4 ADD PUSH2 0x574 SWAP1 PUSH2 0x1C96 JUMP JUMPDEST PUSH1 0x40 MLOAD DUP1 SWAP2 SUB SWAP1 REVERT JUMPDEST DUP6 DUP5 PUSH1 0x0 PUSH1 0x1 PUSH1 0x0 DUP5 PUSH20 0xFFFFFFFFFFFFFFFFFFFFFFFFFFFFFFFFFFFFFFFF AND PUSH20 0xFFFFFFFFFFFFFFFFFFFFFFFFFFFFFFFFFFFFFFFF AND DUP2 MSTORE PUSH1 0x20 ADD SWAP1 DUP2 MSTORE PUSH1 0x20 ADD PUSH1 0x0 KECCAK256 PUSH1 0x0 DUP4 DUP2 MSTORE PUSH1 0x20 ADD SWAP1 DUP2 MSTORE PUSH1 0x20 ADD PUSH1 0x0 KECCAK256 SLOAD EQ PUSH2 0x612 JUMPI PUSH1 0x40 MLOAD PUSH32 0x8C379A000000000000000000000000000000000000000000000000000000000 DUP2 MSTORE PUSH1 0x4 ADD PUSH2 0x609 SWAP1 PUSH2 0x1DF6 JUMP JUMPDEST PUSH1 0x40 MLOAD DUP1 SWAP2 SUB SWAP1 REVERT JUMPDEST DUP8 DUP7 DUP2 PUSH20 0xFFFFFFFFFFFFFFFFFFFFFFFFFFFFFFFFFFFFFFFF AND PUSH4 0xE985E9C5 CALLER ADDRESS PUSH1 0x40 MLOAD DUP4 PUSH4 0xFFFFFFFF AND PUSH1 0xE0 SHL DUP2 MSTORE PUSH1 0x4 ADD PUSH2 0x64F SWAP3 SWAP2 SWAP1 PUSH2 0x1E16 JUMP JUMPDEST PUSH1 0x20 PUSH1 0x40 MLOAD DUP1 DUP4 SUB DUP2 DUP7 GAS STATICCALL ISZERO DUP1 ISZERO PUSH2 0x66C JUMPI RETURNDATASIZE PUSH1 0x0 DUP1 RETURNDATACOPY RETURNDATASIZE PUSH1 0x0 REVERT JUMPDEST POP POP POP POP PUSH1 0x40 MLOAD RETURNDATASIZE PUSH1 0x1F NOT PUSH1 0x1F DUP3 ADD AND DUP3 ADD DUP1 PUSH1 0x40 MSTORE POP DUP2 ADD SWAP1 PUSH2 0x690 SWAP2 SWAP1 PUSH2 0x1E77 JUMP JUMPDEST PUSH2 0x6CF JUMPI PUSH1 0x40 MLOAD PUSH32 0x8C379A000000000000000000000000000000000000000000000000000000000 DUP2 MSTORE PUSH1 0x4 ADD PUSH2 0x6C6 SWAP1 PUSH2 0x1EF0 JUMP JUMPDEST PUSH1 0x40 MLOAD DUP1 SWAP2 SUB SWAP1 REVERT JUMPDEST DUP7 PUSH1 0x0 DUP2 GT PUSH2 0x713 JUMPI PUSH1 0x40 MLOAD PUSH32 0x8C379A000000000000000000000000000000000000000000000000000000000 DUP2 MSTORE PUSH1 0x4 ADD PUSH2 0x70A SWAP1 PUSH2 0x1D02 JUMP JUMPDEST PUSH1 0x40 MLOAD DUP1 SWAP2 SUB SWAP1 REVERT JUMPDEST PUSH1 0x40 MLOAD DUP1 PUSH1 0x80 ADD PUSH1 0x40 MSTORE DUP1 CALLER PUSH20 0xFFFFFFFFFFFFFFFFFFFFFFFFFFFFFFFFFFFFFFFF AND DUP2 MSTORE PUSH1 0x20 ADD PUSH1 0x0 PUSH20 0xFFFFFFFFFFFFFFFFFFFFFFFFFFFFFFFFFFFFFFFF AND DUP2 MSTORE PUSH1 0x20 ADD DUP12 PUSH20 0xFFFFFFFFFFFFFFFFFFFFFFFFFFFFFFFFFFFFFFFF AND DUP2 MSTORE PUSH1 0x20 ADD DUP10 DUP2 MSTORE POP PUSH1 0x0 DUP1 DUP14 PUSH20 0xFFFFFFFFFFFFFFFFFFFFFFFFFFFFFFFFFFFFFFFF AND PUSH20 0xFFFFFFFFFFFFFFFFFFFFFFFFFFFFFFFFFFFFFFFF AND DUP2 MSTORE PUSH1 0x20 ADD SWAP1 DUP2 MSTORE PUSH1 0x20 ADD PUSH1 0x0 KECCAK256 PUSH1 0x0 DUP12 DUP2 MSTORE PUSH1 0x20 ADD SWAP1 DUP2 MSTORE PUSH1 0x20 ADD PUSH1 0x0 KECCAK256 PUSH1 0x0 DUP3 ADD MLOAD DUP2 PUSH1 0x0 ADD PUSH1 0x0 PUSH2 0x100 EXP DUP2 SLOAD DUP2 PUSH20 0xFFFFFFFFFFFFFFFFFFFFFFFFFFFFFFFFFFFFFFFF MUL NOT AND SWAP1 DUP4 PUSH20 0xFFFFFFFFFFFFFFFFFFFFFFFFFFFFFFFFFFFFFFFF AND MUL OR SWAP1 SSTORE POP PUSH1 0x20 DUP3 ADD MLOAD DUP2 PUSH1 0x1 ADD PUSH1 0x0 PUSH2 0x100 EXP DUP2 SLOAD DUP2 PUSH20 0xFFFFFFFFFFFFFFFFFFFFFFFFFFFFFFFFFFFFFFFF MUL NOT AND SWAP1 DUP4 PUSH20 0xFFFFFFFFFFFFFFFFFFFFFFFFFFFFFFFFFFFFFFFF AND MUL OR SWAP1 SSTORE POP PUSH1 0x40 DUP3 ADD MLOAD DUP2 PUSH1 0x2 ADD PUSH1 0x0 PUSH2 0x100 EXP DUP2 SLOAD DUP2 PUSH20 0xFFFFFFFFFFFFFFFFFFFFFFFFFFFFFFFFFFFFFFFF MUL NOT AND SWAP1 DUP4 PUSH20 0xFFFFFFFFFFFFFFFFFFFFFFFFFFFFFFFFFFFFFFFF AND MUL OR SWAP1 SSTORE POP PUSH1 0x60 DUP3 ADD MLOAD DUP2 PUSH1 0x3 ADD SSTORE SWAP1 POP POP PUSH1 0x1 DUP1 PUSH1 0x0 DUP14 PUSH20 0xFFFFFFFFFFFFFFFFFFFFFFFFFFFFFFFFFFFFFFFF AND PUSH20 0xFFFFFFFFFFFFFFFFFFFFFFFFFFFFFFFFFFFFFFFF AND DUP2 MSTORE PUSH1 0x20 ADD SWAP1 DUP2 MSTORE PUSH1 0x20 ADD PUSH1 0x0 KECCAK256 PUSH1 0x0 DUP12 DUP2 MSTORE PUSH1 0x20 ADD SWAP1 DUP2 MSTORE PUSH1 0x20 ADD PUSH1 0x0 KECCAK256 DUP2 SWAP1 SSTORE POP PUSH1 0x3 DUP1 SLOAD SWAP1 POP PUSH1 0x2 PUSH1 0x0 DUP14 PUSH20 0xFFFFFFFFFFFFFFFFFFFFFFFFFFFFFFFFFFFFFFFF AND PUSH20 0xFFFFFFFFFFFFFFFFFFFFFFFFFFFFFFFFFFFFFFFF AND DUP2 MSTORE PUSH1 0x20 ADD SWAP1 DUP2 MSTORE PUSH1 0x20 ADD PUSH1 0x0 KECCAK256 PUSH1 0x0 DUP12 DUP2 MSTORE PUSH1 0x20 ADD SWAP1 DUP2 MSTORE PUSH1 0x20 ADD PUSH1 0x0 KECCAK256 DUP2 SWAP1 SSTORE POP PUSH1 0x3 PUSH1 0x40 MLOAD DUP1 PUSH1 0x40 ADD PUSH1 0x40 MSTORE DUP1 DUP14 PUSH20 0xFFFFFFFFFFFFFFFFFFFFFFFFFFFFFFFFFFFFFFFF AND DUP2 MSTORE PUSH1 0x20 ADD DUP12 DUP2 MSTORE POP SWAP1 DUP1 PUSH1 0x1 DUP2 SLOAD ADD DUP1 DUP3 SSTORE DUP1 SWAP2 POP POP PUSH1 0x1 SWAP1 SUB SWAP1 PUSH1 0x0 MSTORE PUSH1 0x20 PUSH1 0x0 KECCAK256 SWAP1 PUSH1 0x2 MUL ADD PUSH1 0x0 SWAP1 SWAP2 SWAP1 SWAP2 SWAP1 SWAP2 POP PUSH1 0x0 DUP3 ADD MLOAD DUP2 PUSH1 0x0 ADD PUSH1 0x0 PUSH2 0x100 EXP DUP2 SLOAD DUP2 PUSH20 0xFFFFFFFFFFFFFFFFFFFFFFFFFFFFFFFFFFFFFFFF MUL NOT AND SWAP1 DUP4 PUSH20 0xFFFFFFFFFFFFFFFFFFFFFFFFFFFFFFFFFFFFFFFF AND MUL OR SWAP1 SSTORE POP PUSH1 0x20 DUP3 ADD MLOAD DUP2 PUSH1 0x1 ADD SSTORE POP POP DUP11 PUSH20 0xFFFFFFFFFFFFFFFFFFFFFFFFFFFFFFFFFFFFFFFF AND PUSH4 0x42842E0E CALLER ADDRESS DUP13 PUSH1 0x40 MLOAD DUP5 PUSH4 0xFFFFFFFF AND PUSH1 0xE0 SHL DUP2 MSTORE PUSH1 0x4 ADD PUSH2 0xA3D SWAP4 SWAP3 SWAP2 SWAP1 PUSH2 0x1F10 JUMP JUMPDEST PUSH1 0x0 PUSH1 0x40 MLOAD DUP1 DUP4 SUB DUP2 PUSH1 0x0 DUP8 DUP1 EXTCODESIZE ISZERO DUP1 ISZERO PUSH2 0xA57 JUMPI PUSH1 0x0 DUP1 REVERT JUMPDEST POP GAS CALL ISZERO DUP1 ISZERO PUSH2 0xA6B JUMPI RETURNDATASIZE PUSH1 0x0 DUP1 RETURNDATACOPY RETURNDATASIZE PUSH1 0x0 REVERT JUMPDEST POP POP POP POP PUSH32 0x78EEAD3CD01ED921C7653D000A6B73AEA643A7B9C066FB7D93EB2EAE8ACC2D9 DUP12 CALLER DUP13 DUP13 DUP13 TIMESTAMP PUSH1 0x40 MLOAD PUSH2 0xAA8 SWAP7 SWAP6 SWAP5 SWAP4 SWAP3 SWAP2 SWAP1 PUSH2 0x1F47 JUMP JUMPDEST PUSH1 0x40 MLOAD DUP1 SWAP2 SUB SWAP1 LOG1 POP POP POP POP POP POP POP POP POP POP POP JUMP JUMPDEST PUSH2 0xAC5 PUSH2 0x16D0 JUMP JUMPDEST PUSH1 0x0 DUP1 DUP5 PUSH20 0xFFFFFFFFFFFFFFFFFFFFFFFFFFFFFFFFFFFFFFFF AND PUSH20 0xFFFFFFFFFFFFFFFFFFFFFFFFFFFFFFFFFFFFFFFF AND DUP2 MSTORE PUSH1 0x20 ADD SWAP1 DUP2 MSTORE PUSH1 0x20 ADD PUSH1 0x0 KECCAK256 PUSH1 0x0 DUP4 DUP2 MSTORE PUSH1 0x20 ADD SWAP1 DUP2 MSTORE PUSH1 0x20 ADD PUSH1 0x0 KECCAK256 PUSH1 0x40 MLOAD DUP1 PUSH1 0x80 ADD PUSH1 0x40 MSTORE SWAP1 DUP2 PUSH1 0x0 DUP3 ADD PUSH1 0x0 SWAP1 SLOAD SWAP1 PUSH2 0x100 EXP SWAP1 DIV PUSH20 0xFFFFFFFFFFFFFFFFFFFFFFFFFFFFFFFFFFFFFFFF AND PUSH20 0xFFFFFFFFFFFFFFFFFFFFFFFFFFFFFFFFFFFFFFFF AND PUSH20 0xFFFFFFFFFFFFFFFFFFFFFFFFFFFFFFFFFFFFFFFF AND DUP2 MSTORE PUSH1 0x20 ADD PUSH1 0x1 DUP3 ADD PUSH1 0x0 SWAP1 SLOAD SWAP1 PUSH2 0x100 EXP SWAP1 DIV PUSH20 0xFFFFFFFFFFFFFFFFFFFFFFFFFFFFFFFFFFFFFFFF AND PUSH20 0xFFFFFFFFFFFFFFFFFFFFFFFFFFFFFFFFFFFFFFFF AND PUSH20 0xFFFFFFFFFFFFFFFFFFFFFFFFFFFFFFFFFFFFFFFF AND DUP2 MSTORE PUSH1 0x20 ADD PUSH1 0x2 DUP3 ADD PUSH1 0x0 SWAP1 SLOAD SWAP1 PUSH2 0x100 EXP SWAP1 DIV PUSH20 0xFFFFFFFFFFFFFFFFFFFFFFFFFFFFFFFFFFFFFFFF AND PUSH20 0xFFFFFFFFFFFFFFFFFFFFFFFFFFFFFFFFFFFFFFFF AND PUSH20 0xFFFFFFFFFFFFFFFFFFFFFFFFFFFFFFFFFFFFFFFF AND DUP2 MSTORE PUSH1 0x20 ADD PUSH1 0x3 DUP3 ADD SLOAD DUP2 MSTORE POP POP SWAP1 POP SWAP3 SWAP2 POP POP JUMP JUMPDEST PUSH1 0x60 PUSH1 0x3 DUP1 SLOAD DUP1 PUSH1 0x20 MUL PUSH1 0x20 ADD PUSH1 0x40 MLOAD SWAP1 DUP2 ADD PUSH1 0x40 MSTORE DUP1 SWAP3 SWAP2 SWAP1 DUP2 DUP2 MSTORE PUSH1 0x20 ADD PUSH1 0x0 SWAP1 JUMPDEST DUP3 DUP3 LT ISZERO PUSH2 0xCE9 JUMPI DUP4 DUP3 SWAP1 PUSH1 0x0 MSTORE PUSH1 0x20 PUSH1 0x0 KECCAK256 SWAP1 PUSH1 0x2 MUL ADD PUSH1 0x40 MLOAD DUP1 PUSH1 0x40 ADD PUSH1 0x40 MSTORE SWAP1 DUP2 PUSH1 0x0 DUP3 ADD PUSH1 0x0 SWAP1 SLOAD SWAP1 PUSH2 0x100 EXP SWAP1 DIV PUSH20 0xFFFFFFFFFFFFFFFFFFFFFFFFFFFFFFFFFFFFFFFF AND PUSH20 0xFFFFFFFFFFFFFFFFFFFFFFFFFFFFFFFFFFFFFFFF AND PUSH20 0xFFFFFFFFFFFFFFFFFFFFFFFFFFFFFFFFFFFFFFFF AND DUP2 MSTORE PUSH1 0x20 ADD PUSH1 0x1 DUP3 ADD SLOAD DUP2 MSTORE POP POP DUP2 MSTORE PUSH1 0x20 ADD SWAP1 PUSH1 0x1 ADD SWAP1 PUSH2 0xC57 JUMP JUMPDEST POP POP POP POP SWAP1 POP SWAP1 JUMP JUMPDEST DUP3 DUP3 PUSH1 0x1 DUP1 PUSH1 0x0 DUP5 PUSH20 0xFFFFFFFFFFFFFFFFFFFFFFFFFFFFFFFFFFFFFFFF AND PUSH20 0xFFFFFFFFFFFFFFFFFFFFFFFFFFFFFFFFFFFFFFFF AND DUP2 MSTORE PUSH1 0x20 ADD SWAP1 DUP2 MSTORE PUSH1 0x20 ADD PUSH1 0x0 KECCAK256 PUSH1 0x0 DUP4 DUP2 MSTORE PUSH1 0x20 ADD SWAP1 DUP2 MSTORE PUSH1 0x20 ADD PUSH1 0x0 KECCAK256 SLOAD EQ PUSH2 0xD86 JUMPI PUSH1 0x40 MLOAD PUSH32 0x8C379A000000000000000000000000000000000000000000000000000000000 DUP2 MSTORE PUSH1 0x4 ADD PUSH2 0xD7D SWAP1 PUSH2 0x1C2A JUMP JUMPDEST PUSH1 0x40 MLOAD DUP1 SWAP2 SUB SWAP1 REVERT JUMPDEST DUP3 PUSH1 0x0 DUP2 GT PUSH2 0xDCA JUMPI PUSH1 0x40 MLOAD PUSH32 0x8C379A000000000000000000000000000000000000000000000000000000000 DUP2 MSTORE PUSH1 0x4 ADD PUSH2 0xDC1 SWAP1 PUSH2 0x1D02 JUMP JUMPDEST PUSH1 0x40 MLOAD DUP1 SWAP2 SUB SWAP1 REVERT JUMPDEST DUP6 DUP6 DUP6 PUSH1 0x0 DUP1 DUP5 PUSH20 0xFFFFFFFFFFFFFFFFFFFFFFFFFFFFFFFFFFFFFFFF AND PUSH20 0xFFFFFFFFFFFFFFFFFFFFFFFFFFFFFFFFFFFFFFFF AND DUP2 MSTORE PUSH1 0x20 ADD SWAP1 DUP2 MSTORE PUSH1 0x20 ADD PUSH1 0x0 KECCAK256 PUSH1 0x0 DUP4 DUP2 MSTORE PUSH1 0x20 ADD SWAP1 DUP2 MSTORE PUSH1 0x20 ADD PUSH1 0x0 KECCAK256 PUSH1 0x3 ADD SLOAD DUP2 LT ISZERO PUSH2 0xE62 JUMPI PUSH1 0x40 MLOAD PUSH32 0x8C379A000000000000000000000000000000000000000000000000000000000 DUP2 MSTORE PUSH1 0x4 ADD PUSH2 0xE59 SWAP1 PUSH2 0x1FF4 JUMP JUMPDEST PUSH1 0x40 MLOAD DUP1 SWAP2 SUB SWAP1 REVERT JUMPDEST DUP9 PUSH20 0xFFFFFFFFFFFFFFFFFFFFFFFFFFFFFFFFFFFFFFFF AND PUSH4 0x42842E0E ADDRESS CALLER DUP12 PUSH1 0x40 MLOAD DUP5 PUSH4 0xFFFFFFFF AND PUSH1 0xE0 SHL DUP2 MSTORE PUSH1 0x4 ADD PUSH2 0xE9F SWAP4 SWAP3 SWAP2 SWAP1 PUSH2 0x1F10 JUMP JUMPDEST PUSH1 0x0 PUSH1 0x40 MLOAD DUP1 DUP4 SUB DUP2 PUSH1 0x0 DUP8 DUP1 EXTCODESIZE ISZERO DUP1 ISZERO PUSH2 0xEB9 JUMPI PUSH1 0x0 DUP1 REVERT JUMPDEST POP GAS CALL ISZERO DUP1 ISZERO PUSH2 0xECD JUMPI RETURNDATASIZE PUSH1 0x0 DUP1 RETURNDATACOPY RETURNDATASIZE PUSH1 0x0 REVERT JUMPDEST POP POP POP POP PUSH1 0x0 PUSH1 0x1 PUSH1 0x0 DUP12 PUSH20 0xFFFFFFFFFFFFFFFFFFFFFFFFFFFFFFFFFFFFFFFF AND PUSH20 0xFFFFFFFFFFFFFFFFFFFFFFFFFFFFFFFFFFFFFFFF AND DUP2 MSTORE PUSH1 0x20 ADD SWAP1 DUP2 MSTORE PUSH1 0x20 ADD PUSH1 0x0 KECCAK256 PUSH1 0x0 DUP11 DUP2 MSTORE PUSH1 0x20 ADD SWAP1 DUP2 MSTORE PUSH1 0x20 ADD PUSH1 0x0 KECCAK256 DUP2 SWAP1 SSTORE POP PUSH1 0x3 PUSH1 0x2 PUSH1 0x0 DUP12 PUSH20 0xFFFFFFFFFFFFFFFFFFFFFFFFFFFFFFFFFFFFFFFF AND PUSH20 0xFFFFFFFFFFFFFFFFFFFFFFFFFFFFFFFFFFFFFFFF AND DUP2 MSTORE PUSH1 0x20 ADD SWAP1 DUP2 MSTORE PUSH1 0x20 ADD PUSH1 0x0 KECCAK256 PUSH1 0x0 DUP11 DUP2 MSTORE PUSH1 0x20 ADD SWAP1 DUP2 MSTORE PUSH1 0x20 ADD PUSH1 0x0 KECCAK256 SLOAD DUP2 SLOAD DUP2 LT PUSH2 0xF8B JUMPI PUSH2 0xF8A PUSH2 0x2014 JUMP JUMPDEST JUMPDEST SWAP1 PUSH1 0x0 MSTORE PUSH1 0x20 PUSH1 0x0 KECCAK256 SWAP1 PUSH1 0x2 MUL ADD PUSH1 0x0 DUP1 DUP3 ADD PUSH1 0x0 PUSH2 0x100 EXP DUP2 SLOAD SWAP1 PUSH20 0xFFFFFFFFFFFFFFFFFFFFFFFFFFFFFFFFFFFFFFFF MUL NOT AND SWAP1 SSTORE PUSH1 0x1 DUP3 ADD PUSH1 0x0 SWAP1 SSTORE POP POP CALLER PUSH1 0x0 DUP1 DUP12 PUSH20 0xFFFFFFFFFFFFFFFFFFFFFFFFFFFFFFFFFFFFFFFF AND PUSH20 0xFFFFFFFFFFFFFFFFFFFFFFFFFFFFFFFFFFFFFFFF AND DUP2 MSTORE PUSH1 0x20 ADD SWAP1 DUP2 MSTORE PUSH1 0x20 ADD PUSH1 0x0 KECCAK256 PUSH1 0x0 DUP11 DUP2 MSTORE PUSH1 0x20 ADD SWAP1 DUP2 MSTORE PUSH1 0x20 ADD PUSH1 0x0 KECCAK256 PUSH1 0x1 ADD PUSH1 0x0 PUSH2 0x100 EXP DUP2 SLOAD DUP2 PUSH20 0xFFFFFFFFFFFFFFFFFFFFFFFFFFFFFFFFFFFFFFFF MUL NOT AND SWAP1 DUP4 PUSH20 0xFFFFFFFFFFFFFFFFFFFFFFFFFFFFFFFFFFFFFFFF AND MUL OR SWAP1 SSTORE POP PUSH2 0x119D PUSH1 0x0 DUP1 DUP12 PUSH20 0xFFFFFFFFFFFFFFFFFFFFFFFFFFFFFFFFFFFFFFFF AND PUSH20 0xFFFFFFFFFFFFFFFFFFFFFFFFFFFFFFFFFFFFFFFF AND DUP2 MSTORE PUSH1 0x20 ADD SWAP1 DUP2 MSTORE PUSH1 0x20 ADD PUSH1 0x0 KECCAK256 PUSH1 0x0 DUP11 DUP2 MSTORE PUSH1 0x20 ADD SWAP1 DUP2 MSTORE PUSH1 0x20 ADD PUSH1 0x0 KECCAK256 PUSH1 0x0 ADD PUSH1 0x0 SWAP1 SLOAD SWAP1 PUSH2 0x100 EXP SWAP1 DIV PUSH20 0xFFFFFFFFFFFFFFFFFFFFFFFFFFFFFFFFFFFFFFFF AND PUSH1 0x0 DUP1 DUP13 PUSH20 0xFFFFFFFFFFFFFFFFFFFFFFFFFFFFFFFFFFFFFFFF AND PUSH20 0xFFFFFFFFFFFFFFFFFFFFFFFFFFFFFFFFFFFFFFFF AND DUP2 MSTORE PUSH1 0x20 ADD SWAP1 DUP2 MSTORE PUSH1 0x20 ADD PUSH1 0x0 KECCAK256 PUSH1 0x0 DUP12 DUP2 MSTORE PUSH1 0x20 ADD SWAP1 DUP2 MSTORE PUSH1 0x20 ADD PUSH1 0x0 KECCAK256 PUSH1 0x2 ADD PUSH1 0x0 SWAP1 SLOAD SWAP1 PUSH2 0x100 EXP SWAP1 DIV PUSH20 0xFFFFFFFFFFFFFFFFFFFFFFFFFFFFFFFFFFFFFFFF AND PUSH1 0x0 DUP1 DUP14 PUSH20 0xFFFFFFFFFFFFFFFFFFFFFFFFFFFFFFFFFFFFFFFF AND PUSH20 0xFFFFFFFFFFFFFFFFFFFFFFFFFFFFFFFFFFFFFFFF AND DUP2 MSTORE PUSH1 0x20 ADD SWAP1 DUP2 MSTORE PUSH1 0x20 ADD PUSH1 0x0 KECCAK256 PUSH1 0x0 DUP13 DUP2 MSTORE PUSH1 0x20 ADD SWAP1 DUP2 MSTORE PUSH1 0x20 ADD PUSH1 0x0 KECCAK256 PUSH1 0x3 ADD SLOAD PUSH2 0x1507 JUMP JUMPDEST PUSH32 0x9FA3B1BB9266E05722B54A7A564D02A274BC80D39F4AF21E6BE405480996CEBA DUP10 CALLER DUP11 DUP11 PUSH1 0x40 MLOAD PUSH2 0x11D2 SWAP5 SWAP4 SWAP3 SWAP2 SWAP1 PUSH2 0x2043 JUMP JUMPDEST PUSH1 0x40 MLOAD DUP1 SWAP2 SUB SWAP1 LOG1 POP POP POP POP POP POP POP POP POP JUMP JUMPDEST DUP2 DUP2 PUSH1 0x1 DUP1 PUSH1 0x0 DUP5 PUSH20 0xFFFFFFFFFFFFFFFFFFFFFFFFFFFFFFFFFFFFFFFF AND PUSH20 0xFFFFFFFFFFFFFFFFFFFFFFFFFFFFFFFFFFFFFFFF AND DUP2 MSTORE PUSH1 0x20 ADD SWAP1 DUP2 MSTORE PUSH1 0x20 ADD PUSH1 0x0 KECCAK256 PUSH1 0x0 DUP4 DUP2 MSTORE PUSH1 0x20 ADD SWAP1 DUP2 MSTORE PUSH1 0x20 ADD PUSH1 0x0 KECCAK256 SLOAD EQ PUSH2 0x1279 JUMPI PUSH1 0x40 MLOAD PUSH32 0x8C379A000000000000000000000000000000000000000000000000000000000 DUP2 MSTORE PUSH1 0x4 ADD PUSH2 0x1270 SWAP1 PUSH2 0x1C2A JUMP JUMPDEST PUSH1 0x40 MLOAD DUP1 SWAP2 SUB SWAP1 REVERT JUMPDEST DUP4 DUP4 PUSH1 0x0 DUP1 DUP4 PUSH20 0xFFFFFFFFFFFFFFFFFFFFFFFFFFFFFFFFFFFFFFFF AND PUSH20 0xFFFFFFFFFFFFFFFFFFFFFFFFFFFFFFFFFFFFFFFF AND DUP2 MSTORE PUSH1 0x20 ADD SWAP1 DUP2 MSTORE PUSH1 0x20 ADD PUSH1 0x0 KECCAK256 PUSH1 0x0 DUP3 DUP2 MSTORE PUSH1 0x20 ADD SWAP1 DUP2 MSTORE PUSH1 0x20 ADD PUSH1 0x0 KECCAK256 PUSH1 0x0 ADD PUSH1 0x0 SWAP1 SLOAD SWAP1 PUSH2 0x100 EXP SWAP1 DIV PUSH20 0xFFFFFFFFFFFFFFFFFFFFFFFFFFFFFFFFFFFFFFFF AND PUSH20 0xFFFFFFFFFFFFFFFFFFFFFFFFFFFFFFFFFFFFFFFF AND CALLER PUSH20 0xFFFFFFFFFFFFFFFFFFFFFFFFFFFFFFFFFFFFFFFF AND EQ PUSH2 0x135B JUMPI PUSH1 0x40 MLOAD PUSH32 0x8C379A000000000000000000000000000000000000000000000000000000000 DUP2 MSTORE PUSH1 0x4 ADD PUSH2 0x1352 SWAP1 PUSH2 0x1C96 JUMP JUMPDEST PUSH1 0x40 MLOAD DUP1 SWAP2 SUB SWAP1 REVERT JUMPDEST DUP6 PUSH20 0xFFFFFFFFFFFFFFFFFFFFFFFFFFFFFFFFFFFFFFFF AND PUSH4 0x42842E0E ADDRESS CALLER DUP9 PUSH1 0x40 MLOAD DUP5 PUSH4 0xFFFFFFFF AND PUSH1 0xE0 SHL DUP2 MSTORE PUSH1 0x4 ADD PUSH2 0x1398 SWAP4 SWAP3 SWAP2 SWAP1 PUSH2 0x1F10 JUMP JUMPDEST PUSH1 0x0 PUSH1 0x40 MLOAD DUP1 DUP4 SUB DUP2 PUSH1 0x0 DUP8 DUP1 EXTCODESIZE ISZERO DUP1 ISZERO PUSH2 0x13B2 JUMPI PUSH1 0x0 DUP1 REVERT JUMPDEST POP GAS CALL ISZERO DUP1 ISZERO PUSH2 0x13C6 JUMPI RETURNDATASIZE PUSH1 0x0 DUP1 RETURNDATACOPY RETURNDATASIZE PUSH1 0x0 REVERT JUMPDEST POP POP POP POP PUSH1 0x0 PUSH1 0x1 PUSH1 0x0 DUP9 PUSH20 0xFFFFFFFFFFFFFFFFFFFFFFFFFFFFFFFFFFFFFFFF AND PUSH20 0xFFFFFFFFFFFFFFFFFFFFFFFFFFFFFFFFFFFFFFFF AND DUP2 MSTORE PUSH1 0x20 ADD SWAP1 DUP2 MSTORE PUSH1 0x20 ADD PUSH1 0x0 KECCAK256 PUSH1 0x0 DUP8 DUP2 MSTORE PUSH1 0x20 ADD SWAP1 DUP2 MSTORE PUSH1 0x20 ADD PUSH1 0x0 KECCAK256 DUP2 SWAP1 SSTORE POP PUSH1 0x3 PUSH1 0x2 PUSH1 0x0 DUP9 PUSH20 0xFFFFFFFFFFFFFFFFFFFFFFFFFFFFFFFFFFFFFFFF AND PUSH20 0xFFFFFFFFFFFFFFFFFFFFFFFFFFFFFFFFFFFFFFFF AND DUP2 MSTORE PUSH1 0x20 ADD SWAP1 DUP2 MSTORE PUSH1 0x20 ADD PUSH1 0x0 KECCAK256 PUSH1 0x0 DUP8 DUP2 MSTORE PUSH1 0x20 ADD SWAP1 DUP2 MSTORE PUSH1 0x20 ADD PUSH1 0x0 KECCAK256 SLOAD DUP2 SLOAD DUP2 LT PUSH2 0x1484 JUMPI PUSH2 0x1483 PUSH2 0x2014 JUMP JUMPDEST JUMPDEST SWAP1 PUSH1 0x0 MSTORE PUSH1 0x20 PUSH1 0x0 KECCAK256 SWAP1 PUSH1 0x2 MUL ADD PUSH1 0x0 DUP1 DUP3 ADD PUSH1 0x0 PUSH2 0x100 EXP DUP2 SLOAD SWAP1 PUSH20 0xFFFFFFFFFFFFFFFFFFFFFFFFFFFFFFFFFFFFFFFF MUL NOT AND SWAP1 SSTORE PUSH1 0x1 DUP3 ADD PUSH1 0x0 SWAP1 SSTORE POP POP PUSH32 0xD7348FF00CF381A884144B50B3441398A48A7974EC349287DF80E18CEC9F5A31 DUP7 CALLER DUP8 PUSH1 0x40 MLOAD PUSH2 0x14F7 SWAP4 SWAP3 SWAP2 SWAP1 PUSH2 0x1F10 JUMP JUMPDEST PUSH1 0x40 MLOAD DUP1 SWAP2 SUB SWAP1 LOG1 POP POP POP POP POP POP JUMP JUMPDEST PUSH1 0x0 PUSH20 0xFFFFFFFFFFFFFFFFFFFFFFFFFFFFFFFFFFFFFFFF AND DUP3 PUSH20 0xFFFFFFFFFFFFFFFFFFFFFFFFFFFFFFFFFFFFFFFF AND EQ PUSH2 0x154B JUMPI PUSH2 0x1546 DUP4 DUP4 DUP4 PUSH2 0x155B JUMP JUMPDEST PUSH2 0x1556 JUMP JUMPDEST PUSH2 0x1555 DUP4 DUP3 PUSH2 0x161F JUMP JUMPDEST JUMPDEST POP POP POP JUMP JUMPDEST DUP2 PUSH20 0xFFFFFFFFFFFFFFFFFFFFFFFFFFFFFFFFFFFFFFFF AND PUSH4 0x23B872DD CALLER DUP6 DUP5 PUSH1 0x40 MLOAD DUP5 PUSH4 0xFFFFFFFF AND PUSH1 0xE0 SHL DUP2 MSTORE PUSH1 0x4 ADD PUSH2 0x1598 SWAP4 SWAP3 SWAP2 SWAP1 PUSH2 0x1F10 JUMP JUMPDEST PUSH1 0x20 PUSH1 0x40 MLOAD DUP1 DUP4 SUB DUP2 PUSH1 0x0 DUP8 GAS CALL ISZERO DUP1 ISZERO PUSH2 0x15B7 JUMPI RETURNDATASIZE PUSH1 0x0 DUP1 RETURNDATACOPY RETURNDATASIZE PUSH1 0x0 REVERT JUMPDEST POP POP POP POP PUSH1 0x40 MLOAD RETURNDATASIZE PUSH1 0x1F NOT PUSH1 0x1F DUP3 ADD AND DUP3 ADD DUP1 PUSH1 0x40 MSTORE POP DUP2 ADD SWAP1 PUSH2 0x15DB SWAP2 SWAP1 PUSH2 0x1E77 JUMP JUMPDEST PUSH2 0x161A JUMPI PUSH1 0x40 MLOAD PUSH32 0x8C379A000000000000000000000000000000000000000000000000000000000 DUP2 MSTORE PUSH1 0x4 ADD PUSH2 0x1611 SWAP1 PUSH2 0x20D4 JUMP JUMPDEST PUSH1 0x40 MLOAD DUP1 SWAP2 SUB SWAP1 REVERT JUMPDEST POP POP POP JUMP JUMPDEST PUSH1 0x0 DUP3 PUSH20 0xFFFFFFFFFFFFFFFFFFFFFFFFFFFFFFFFFFFFFFFF AND DUP3 PUSH1 0x40 MLOAD PUSH2 0x1645 SWAP1 PUSH2 0x2125 JUMP JUMPDEST PUSH1 0x0 PUSH1 0x40 MLOAD DUP1 DUP4 SUB DUP2 DUP6 DUP8 GAS CALL SWAP3 POP POP POP RETURNDATASIZE DUP1 PUSH1 0x0 DUP2 EQ PUSH2 0x1682 JUMPI PUSH1 0x40 MLOAD SWAP2 POP PUSH1 0x1F NOT PUSH1 0x3F RETURNDATASIZE ADD AND DUP3 ADD PUSH1 0x40 MSTORE RETURNDATASIZE DUP3 MSTORE RETURNDATASIZE PUSH1 0x0 PUSH1 0x20 DUP5 ADD RETURNDATACOPY PUSH2 0x1687 JUMP JUMPDEST PUSH1 0x60 SWAP2 POP JUMPDEST POP POP SWAP1 POP DUP1 PUSH2 0x16CB JUMPI PUSH1 0x40 MLOAD PUSH32 0x8C379A000000000000000000000000000000000000000000000000000000000 DUP2 MSTORE PUSH1 0x4 ADD PUSH2 0x16C2 SWAP1 PUSH2 0x2186 JUMP JUMPDEST PUSH1 0x40 MLOAD DUP1 SWAP2 SUB SWAP1 REVERT JUMPDEST POP POP POP JUMP JUMPDEST PUSH1 0x40 MLOAD DUP1 PUSH1 0x80 ADD PUSH1 0x40 MSTORE DUP1 PUSH1 0x0 PUSH20 0xFFFFFFFFFFFFFFFFFFFFFFFFFFFFFFFFFFFFFFFF AND DUP2 MSTORE PUSH1 0x20 ADD PUSH1 0x0 PUSH20 0xFFFFFFFFFFFFFFFFFFFFFFFFFFFFFFFFFFFFFFFF AND DUP2 MSTORE PUSH1 0x20 ADD PUSH1 0x0 PUSH20 0xFFFFFFFFFFFFFFFFFFFFFFFFFFFFFFFFFFFFFFFF AND DUP2 MSTORE PUSH1 0x20 ADD PUSH1 0x0 DUP2 MSTORE POP SWAP1 JUMP JUMPDEST PUSH1 0x0 DUP1 REVERT JUMPDEST PUSH1 0x0 DUP1 REVERT JUMPDEST PUSH1 0x0 PUSH20 0xFFFFFFFFFFFFFFFFFFFFFFFFFFFFFFFFFFFFFFFF DUP3 AND SWAP1 POP SWAP2 SWAP1 POP JUMP JUMPDEST PUSH1 0x0 PUSH2 0x176F DUP3 PUSH2 0x1744 JUMP JUMPDEST SWAP1 POP SWAP2 SWAP1 POP JUMP JUMPDEST PUSH2 0x177F DUP2 PUSH2 0x1764 JUMP JUMPDEST DUP2 EQ PUSH2 0x178A JUMPI PUSH1 0x0 DUP1 REVERT JUMPDEST POP JUMP JUMPDEST PUSH1 0x0 DUP2 CALLDATALOAD SWAP1 POP PUSH2 0x179C DUP2 PUSH2 0x1776 JUMP JUMPDEST SWAP3 SWAP2 POP POP JUMP JUMPDEST PUSH1 0x0 DUP2 SWAP1 POP SWAP2 SWAP1 POP JUMP JUMPDEST PUSH2 0x17B5 DUP2 PUSH2 0x17A2 JUMP JUMPDEST DUP2 EQ PUSH2 0x17C0 JUMPI PUSH1 0x0 DUP1 REVERT JUMPDEST POP JUMP JUMPDEST PUSH1 0x0 DUP2 CALLDATALOAD SWAP1 POP PUSH2 0x17D2 DUP2 PUSH2 0x17AC JUMP JUMPDEST SWAP3 SWAP2 POP POP JUMP JUMPDEST PUSH1 0x0 DUP1 REVERT JUMPDEST PUSH1 0x0 DUP1 REVERT JUMPDEST PUSH1 0x0 DUP1 REVERT JUMPDEST PUSH1 0x0 DUP1 DUP4 PUSH1 0x1F DUP5 ADD SLT PUSH2 0x17FD JUMPI PUSH2 0x17FC PUSH2 0x17D8 JUMP JUMPDEST JUMPDEST DUP3 CALLDATALOAD SWAP1 POP PUSH8 0xFFFFFFFFFFFFFFFF DUP2 GT ISZERO PUSH2 0x181A JUMPI PUSH2 0x1819 PUSH2 0x17DD JUMP JUMPDEST JUMPDEST PUSH1 0x20 DUP4 ADD SWAP2 POP DUP4 PUSH1 0x1 DUP3 MUL DUP4 ADD GT ISZERO PUSH2 0x1836 JUMPI PUSH2 0x1835 PUSH2 0x17E2 JUMP JUMPDEST JUMPDEST SWAP3 POP SWAP3 SWAP1 POP JUMP JUMPDEST PUSH1 0x0 DUP1 PUSH1 0x0 DUP1 PUSH1 0x0 PUSH1 0x80 DUP7 DUP9 SUB SLT ISZERO PUSH2 0x1859 JUMPI PUSH2 0x1858 PUSH2 0x173A JUMP JUMPDEST JUMPDEST PUSH1 0x0 PUSH2 0x1867 DUP9 DUP3 DUP10 ADD PUSH2 0x178D JUMP JUMPDEST SWAP6 POP POP PUSH1 0x20 PUSH2 0x1878 DUP9 DUP3 DUP10 ADD PUSH2 0x178D JUMP JUMPDEST SWAP5 POP POP PUSH1 0x40 PUSH2 0x1889 DUP9 DUP3 DUP10 ADD PUSH2 0x17C3 JUMP JUMPDEST SWAP4 POP POP PUSH1 0x60 DUP7 ADD CALLDATALOAD PUSH8 0xFFFFFFFFFFFFFFFF DUP2 GT ISZERO PUSH2 0x18AA JUMPI PUSH2 0x18A9 PUSH2 0x173F JUMP JUMPDEST JUMPDEST PUSH2 0x18B6 DUP9 DUP3 DUP10 ADD PUSH2 0x17E7 JUMP JUMPDEST SWAP3 POP SWAP3 POP POP SWAP3 SWAP6 POP SWAP3 SWAP6 SWAP1 SWAP4 POP JUMP JUMPDEST PUSH1 0x0 PUSH32 0xFFFFFFFF00000000000000000000000000000000000000000000000000000000 DUP3 AND SWAP1 POP SWAP2 SWAP1 POP JUMP JUMPDEST PUSH2 0x18FA DUP2 PUSH2 0x18C5 JUMP JUMPDEST DUP3 MSTORE POP POP JUMP JUMPDEST PUSH1 0x0 PUSH1 0x20 DUP3 ADD SWAP1 POP PUSH2 0x1915 PUSH1 0x0 DUP4 ADD DUP5 PUSH2 0x18F1 JUMP JUMPDEST SWAP3 SWAP2 POP POP JUMP JUMPDEST PUSH1 0x0 DUP1 PUSH1 0x0 PUSH1 0x60 DUP5 DUP7 SUB SLT ISZERO PUSH2 0x1934 JUMPI PUSH2 0x1933 PUSH2 0x173A JUMP JUMPDEST JUMPDEST PUSH1 0x0 PUSH2 0x1942 DUP7 DUP3 DUP8 ADD PUSH2 0x178D JUMP JUMPDEST SWAP4 POP POP PUSH1 0x20 PUSH2 0x1953 DUP7 DUP3 DUP8 ADD PUSH2 0x17C3 JUMP JUMPDEST SWAP3 POP POP PUSH1 0x40 PUSH2 0x1964 DUP7 DUP3 DUP8 ADD PUSH2 0x17C3 JUMP JUMPDEST SWAP2 POP POP SWAP3 POP SWAP3 POP SWAP3 JUMP JUMPDEST PUSH1 0x0 DUP1 PUSH1 0x40 DUP4 DUP6 SUB SLT ISZERO PUSH2 0x1985 JUMPI PUSH2 0x1984 PUSH2 0x173A JUMP JUMPDEST JUMPDEST PUSH1 0x0 PUSH2 0x1993 DUP6 DUP3 DUP7 ADD PUSH2 0x178D JUMP JUMPDEST SWAP3 POP POP PUSH1 0x20 PUSH2 0x19A4 DUP6 DUP3 DUP7 ADD PUSH2 0x17C3 JUMP JUMPDEST SWAP2 POP POP SWAP3 POP SWAP3 SWAP1 POP JUMP JUMPDEST PUSH2 0x19B7 DUP2 PUSH2 0x17A2 JUMP JUMPDEST DUP3 MSTORE POP POP JUMP JUMPDEST PUSH1 0x0 PUSH1 0x20 DUP3 ADD SWAP1 POP PUSH2 0x19D2 PUSH1 0x0 DUP4 ADD DUP5 PUSH2 0x19AE JUMP JUMPDEST SWAP3 SWAP2 POP POP JUMP JUMPDEST PUSH1 0x0 DUP1 PUSH1 0x0 DUP1 PUSH1 0x80 DUP6 DUP8 SUB SLT ISZERO PUSH2 0x19F2 JUMPI PUSH2 0x19F1 PUSH2 0x173A JUMP JUMPDEST JUMPDEST PUSH1 0x0 PUSH2 0x1A00 DUP8 DUP3 DUP9 ADD PUSH2 0x178D JUMP JUMPDEST SWAP5 POP POP PUSH1 0x20 PUSH2 0x1A11 DUP8 DUP3 DUP9 ADD PUSH2 0x178D JUMP JUMPDEST SWAP4 POP POP PUSH1 0x40 PUSH2 0x1A22 DUP8 DUP3 DUP9 ADD PUSH2 0x17C3 JUMP JUMPDEST SWAP3 POP POP PUSH1 0x60 PUSH2 0x1A33 DUP8 DUP3 DUP9 ADD PUSH2 0x17C3 JUMP JUMPDEST SWAP2 POP POP SWAP3 SWAP6 SWAP2 SWAP5 POP SWAP3 POP JUMP JUMPDEST PUSH2 0x1A48 DUP2 PUSH2 0x1764 JUMP JUMPDEST DUP3 MSTORE POP POP JUMP JUMPDEST PUSH2 0x1A57 DUP2 PUSH2 0x17A2 JUMP JUMPDEST DUP3 MSTORE POP POP JUMP JUMPDEST PUSH1 0x80 DUP3 ADD PUSH1 0x0 DUP3 ADD MLOAD PUSH2 0x1A73 PUSH1 0x0 DUP6 ADD DUP3 PUSH2 0x1A3F JUMP JUMPDEST POP PUSH1 0x20 DUP3 ADD MLOAD PUSH2 0x1A86 PUSH1 0x20 DUP6 ADD DUP3 PUSH2 0x1A3F JUMP JUMPDEST POP PUSH1 0x40 DUP3 ADD MLOAD PUSH2 0x1A99 PUSH1 0x40 DUP6 ADD DUP3 PUSH2 0x1A3F JUMP JUMPDEST POP PUSH1 0x60 DUP3 ADD MLOAD PUSH2 0x1AAC PUSH1 0x60 DUP6 ADD DUP3 PUSH2 0x1A4E JUMP JUMPDEST POP POP POP POP JUMP JUMPDEST PUSH1 0x0 PUSH1 0x80 DUP3 ADD SWAP1 POP PUSH2 0x1AC7 PUSH1 0x0 DUP4 ADD DUP5 PUSH2 0x1A5D JUMP JUMPDEST SWAP3 SWAP2 POP POP JUMP JUMPDEST PUSH1 0x0 DUP2 MLOAD SWAP1 POP SWAP2 SWAP1 POP JUMP JUMPDEST PUSH1 0x0 DUP3 DUP3 MSTORE PUSH1 0x20 DUP3 ADD SWAP1 POP SWAP3 SWAP2 POP POP JUMP JUMPDEST PUSH1 0x0 DUP2 SWAP1 POP PUSH1 0x20 DUP3 ADD SWAP1 POP SWAP2 SWAP1 POP JUMP JUMPDEST PUSH1 0x40 DUP3 ADD PUSH1 0x0 DUP3 ADD MLOAD PUSH2 0x1B0F PUSH1 0x0 DUP6 ADD DUP3 PUSH2 0x1A3F JUMP JUMPDEST POP PUSH1 0x20 DUP3 ADD MLOAD PUSH2 0x1B22 PUSH1 0x20 DUP6 ADD DUP3 PUSH2 0x1A4E JUMP JUMPDEST POP POP POP POP JUMP JUMPDEST PUSH1 0x0 PUSH2 0x1B34 DUP4 DUP4 PUSH2 0x1AF9 JUMP JUMPDEST PUSH1 0x40 DUP4 ADD SWAP1 POP SWAP3 SWAP2 POP POP JUMP JUMPDEST PUSH1 0x0 PUSH1 0x20 DUP3 ADD SWAP1 POP SWAP2 SWAP1 POP JUMP JUMPDEST PUSH1 0x0 PUSH2 0x1B58 DUP3 PUSH2 0x1ACD JUMP JUMPDEST PUSH2 0x1B62 DUP2 DUP6 PUSH2 0x1AD8 JUMP JUMPDEST SWAP4 POP PUSH2 0x1B6D DUP4 PUSH2 0x1AE9 JUMP JUMPDEST DUP1 PUSH1 0x0 JUMPDEST DUP4 DUP2 LT ISZERO PUSH2 0x1B9E JUMPI DUP2 MLOAD PUSH2 0x1B85 DUP9 DUP3 PUSH2 0x1B28 JUMP JUMPDEST SWAP8 POP PUSH2 0x1B90 DUP4 PUSH2 0x1B40 JUMP JUMPDEST SWAP3 POP POP PUSH1 0x1 DUP2 ADD SWAP1 POP PUSH2 0x1B71 JUMP JUMPDEST POP DUP6 SWAP4 POP POP POP POP SWAP3 SWAP2 POP POP JUMP JUMPDEST PUSH1 0x0 PUSH1 0x20 DUP3 ADD SWAP1 POP DUP2 DUP2 SUB PUSH1 0x0 DUP4 ADD MSTORE PUSH2 0x1BC5 DUP2 DUP5 PUSH2 0x1B4D JUMP JUMPDEST SWAP1 POP SWAP3 SWAP2 POP POP JUMP JUMPDEST PUSH1 0x0 DUP3 DUP3 MSTORE PUSH1 0x20 DUP3 ADD SWAP1 POP SWAP3 SWAP2 POP POP JUMP JUMPDEST PUSH32 0x4E6674206E6F7420696E2066697865642073616C650000000000000000000000 PUSH1 0x0 DUP3 ADD MSTORE POP JUMP JUMPDEST PUSH1 0x0 PUSH2 0x1C14 PUSH1 0x15 DUP4 PUSH2 0x1BCD JUMP JUMPDEST SWAP2 POP PUSH2 0x1C1F DUP3 PUSH2 0x1BDE JUMP JUMPDEST PUSH1 0x20 DUP3 ADD SWAP1 POP SWAP2 SWAP1 POP JUMP JUMPDEST PUSH1 0x0 PUSH1 0x20 DUP3 ADD SWAP1 POP DUP2 DUP2 SUB PUSH1 0x0 DUP4 ADD MSTORE PUSH2 0x1C43 DUP2 PUSH2 0x1C07 JUMP JUMPDEST SWAP1 POP SWAP2 SWAP1 POP JUMP JUMPDEST PUSH32 0x596F7520617265206E6F74206E6674206F776E65720000000000000000000000 PUSH1 0x0 DUP3 ADD MSTORE POP JUMP JUMPDEST PUSH1 0x0 PUSH2 0x1C80 PUSH1 0x15 DUP4 PUSH2 0x1BCD JUMP JUMPDEST SWAP2 POP PUSH2 0x1C8B DUP3 PUSH2 0x1C4A JUMP JUMPDEST PUSH1 0x20 DUP3 ADD SWAP1 POP SWAP2 SWAP1 POP JUMP JUMPDEST PUSH1 0x0 PUSH1 0x20 DUP3 ADD SWAP1 POP DUP2 DUP2 SUB PUSH1 0x0 DUP4 ADD MSTORE PUSH2 0x1CAF DUP2 PUSH2 0x1C73 JUMP JUMPDEST SWAP1 POP SWAP2 SWAP1 POP JUMP JUMPDEST PUSH32 0x50726963652063616E6E6F742062652030000000000000000000000000000000 PUSH1 0x0 DUP3 ADD MSTORE POP JUMP JUMPDEST PUSH1 0x0 PUSH2 0x1CEC PUSH1 0x11 DUP4 PUSH2 0x1BCD JUMP JUMPDEST SWAP2 POP PUSH2 0x1CF7 DUP3 PUSH2 0x1CB6 JUMP JUMPDEST PUSH1 0x20 DUP3 ADD SWAP1 POP SWAP2 SWAP1 POP JUMP JUMPDEST PUSH1 0x0 PUSH1 0x20 DUP3 ADD SWAP1 POP DUP2 DUP2 SUB PUSH1 0x0 DUP4 ADD MSTORE PUSH2 0x1D1B DUP2 PUSH2 0x1CDF JUMP JUMPDEST SWAP1 POP SWAP2 SWAP1 POP JUMP JUMPDEST PUSH2 0x1D2B DUP2 PUSH2 0x1764 JUMP JUMPDEST DUP3 MSTORE POP POP JUMP JUMPDEST PUSH1 0x0 PUSH1 0x60 DUP3 ADD SWAP1 POP PUSH2 0x1D46 PUSH1 0x0 DUP4 ADD DUP7 PUSH2 0x1D22 JUMP JUMPDEST PUSH2 0x1D53 PUSH1 0x20 DUP4 ADD DUP6 PUSH2 0x19AE JUMP JUMPDEST PUSH2 0x1D60 PUSH1 0x40 DUP4 ADD DUP5 PUSH2 0x19AE JUMP JUMPDEST SWAP5 SWAP4 POP POP POP POP JUMP JUMPDEST PUSH1 0x0 DUP2 MLOAD SWAP1 POP PUSH2 0x1D77 DUP2 PUSH2 0x1776 JUMP JUMPDEST SWAP3 SWAP2 POP POP JUMP JUMPDEST PUSH1 0x0 PUSH1 0x20 DUP3 DUP5 SUB SLT ISZERO PUSH2 0x1D93 JUMPI PUSH2 0x1D92 PUSH2 0x173A JUMP JUMPDEST JUMPDEST PUSH1 0x0 PUSH2 0x1DA1 DUP5 DUP3 DUP6 ADD PUSH2 0x1D68 JUMP JUMPDEST SWAP2 POP POP SWAP3 SWAP2 POP POP JUMP JUMPDEST PUSH32 0x4E667420616C726561647920696E2073616C6500000000000000000000000000 PUSH1 0x0 DUP3 ADD MSTORE POP JUMP JUMPDEST PUSH1 0x0 PUSH2 0x1DE0 PUSH1 0x13 DUP4 PUSH2 0x1BCD JUMP JUMPDEST SWAP2 POP PUSH2 0x1DEB DUP3 PUSH2 0x1DAA JUMP JUMPDEST PUSH1 0x20 DUP3 ADD SWAP1 POP SWAP2 SWAP1 POP JUMP JUMPDEST PUSH1 0x0 PUSH1 0x20 DUP3 ADD SWAP1 POP DUP2 DUP2 SUB PUSH1 0x0 DUP4 ADD MSTORE PUSH2 0x1E0F DUP2 PUSH2 0x1DD3 JUMP JUMPDEST SWAP1 POP SWAP2 SWAP1 POP JUMP JUMPDEST PUSH1 0x0 PUSH1 0x40 DUP3 ADD SWAP1 POP PUSH2 0x1E2B PUSH1 0x0 DUP4 ADD DUP6 PUSH2 0x1D22 JUMP JUMPDEST PUSH2 0x1E38 PUSH1 0x20 DUP4 ADD DUP5 PUSH2 0x1D22 JUMP JUMPDEST SWAP4 SWAP3 POP POP POP JUMP JUMPDEST PUSH1 0x0 DUP2 ISZERO ISZERO SWAP1 POP SWAP2 SWAP1 POP JUMP JUMPDEST PUSH2 0x1E54 DUP2 PUSH2 0x1E3F JUMP JUMPDEST DUP2 EQ PUSH2 0x1E5F JUMPI PUSH1 0x0 DUP1 REVERT JUMPDEST POP JUMP JUMPDEST PUSH1 0x0 DUP2 MLOAD SWAP1 POP PUSH2 0x1E71 DUP2 PUSH2 0x1E4B JUMP JUMPDEST SWAP3 SWAP2 POP POP JUMP JUMPDEST PUSH1 0x0 PUSH1 0x20 DUP3 DUP5 SUB SLT ISZERO PUSH2 0x1E8D JUMPI PUSH2 0x1E8C PUSH2 0x173A JUMP JUMPDEST JUMPDEST PUSH1 0x0 PUSH2 0x1E9B DUP5 DUP3 DUP6 ADD PUSH2 0x1E62 JUMP JUMPDEST SWAP2 POP POP SWAP3 SWAP2 POP POP JUMP JUMPDEST PUSH32 0x4E6674206E6F7420617070726F76656420746F20636F6E747261637400000000 PUSH1 0x0 DUP3 ADD MSTORE POP JUMP JUMPDEST PUSH1 0x0 PUSH2 0x1EDA PUSH1 0x1C DUP4 PUSH2 0x1BCD JUMP JUMPDEST SWAP2 POP PUSH2 0x1EE5 DUP3 PUSH2 0x1EA4 JUMP JUMPDEST PUSH1 0x20 DUP3 ADD SWAP1 POP SWAP2 SWAP1 POP JUMP JUMPDEST PUSH1 0x0 PUSH1 0x20 DUP3 ADD SWAP1 POP DUP2 DUP2 SUB PUSH1 0x0 DUP4 ADD MSTORE PUSH2 0x1F09 DUP2 PUSH2 0x1ECD JUMP JUMPDEST SWAP1 POP SWAP2 SWAP1 POP JUMP JUMPDEST PUSH1 0x0 PUSH1 0x60 DUP3 ADD SWAP1 POP PUSH2 0x1F25 PUSH1 0x0 DUP4 ADD DUP7 PUSH2 0x1D22 JUMP JUMPDEST PUSH2 0x1F32 PUSH1 0x20 DUP4 ADD DUP6 PUSH2 0x1D22 JUMP JUMPDEST PUSH2 0x1F3F PUSH1 0x40 DUP4 ADD DUP5 PUSH2 0x19AE JUMP JUMPDEST SWAP5 SWAP4 POP POP POP POP JUMP JUMPDEST PUSH1 0x0 PUSH1 0xC0 DUP3 ADD SWAP1 POP PUSH2 0x1F5C PUSH1 0x0 DUP4 ADD DUP10 PUSH2 0x1D22 JUMP JUMPDEST PUSH2 0x1F69 PUSH1 0x20 DUP4 ADD DUP9 PUSH2 0x1D22 JUMP JUMPDEST PUSH2 0x1F76 PUSH1 0x40 DUP4 ADD DUP8 PUSH2 0x1D22 JUMP JUMPDEST PUSH2 0x1F83 PUSH1 0x60 DUP4 ADD DUP7 PUSH2 0x19AE JUMP JUMPDEST PUSH2 0x1F90 PUSH1 0x80 DUP4 ADD DUP6 PUSH2 0x19AE JUMP JUMPDEST PUSH2 0x1F9D PUSH1 0xA0 DUP4 ADD DUP5 PUSH2 0x19AE JUMP JUMPDEST SWAP8 SWAP7 POP POP POP POP POP POP POP JUMP JUMPDEST PUSH32 0x627579205072696365206E6F7420656E6F756768000000000000000000000000 PUSH1 0x0 DUP3 ADD MSTORE POP JUMP JUMPDEST PUSH1 0x0 PUSH2 0x1FDE PUSH1 0x14 DUP4 PUSH2 0x1BCD JUMP JUMPDEST SWAP2 POP PUSH2 0x1FE9 DUP3 PUSH2 0x1FA8 JUMP JUMPDEST PUSH1 0x20 DUP3 ADD SWAP1 POP SWAP2 SWAP1 POP JUMP JUMPDEST PUSH1 0x0 PUSH1 0x20 DUP3 ADD SWAP1 POP DUP2 DUP2 SUB PUSH1 0x0 DUP4 ADD MSTORE PUSH2 0x200D DUP2 PUSH2 0x1FD1 JUMP JUMPDEST SWAP1 POP SWAP2 SWAP1 POP JUMP JUMPDEST PUSH32 0x4E487B7100000000000000000000000000000000000000000000000000000000 PUSH1 0x0 MSTORE PUSH1 0x32 PUSH1 0x4 MSTORE PUSH1 0x24 PUSH1 0x0 REVERT JUMPDEST PUSH1 0x0 PUSH1 0x80 DUP3 ADD SWAP1 POP PUSH2 0x2058 PUSH1 0x0 DUP4 ADD DUP8 PUSH2 0x1D22 JUMP JUMPDEST PUSH2 0x2065 PUSH1 0x20 DUP4 ADD DUP7 PUSH2 0x1D22 JUMP JUMPDEST PUSH2 0x2072 PUSH1 0x40 DUP4 ADD DUP6 PUSH2 0x19AE JUMP JUMPDEST PUSH2 0x207F PUSH1 0x60 DUP4 ADD DUP5 PUSH2 0x19AE JUMP JUMPDEST SWAP6 SWAP5 POP POP POP POP POP JUMP JUMPDEST PUSH32 0x616C6C6F77616E6365206E6F7420656E6F756768000000000000000000000000 PUSH1 0x0 DUP3 ADD MSTORE POP JUMP JUMPDEST PUSH1 0x0 PUSH2 0x20BE PUSH1 0x14 DUP4 PUSH2 0x1BCD JUMP JUMPDEST SWAP2 POP PUSH2 0x20C9 DUP3 PUSH2 0x2088 JUMP JUMPDEST PUSH1 0x20 DUP3 ADD SWAP1 POP SWAP2 SWAP1 POP JUMP JUMPDEST PUSH1 0x0 PUSH1 0x20 DUP3 ADD SWAP1 POP DUP2 DUP2 SUB PUSH1 0x0 DUP4 ADD MSTORE PUSH2 0x20ED DUP2 PUSH2 0x20B1 JUMP JUMPDEST SWAP1 POP SWAP2 SWAP1 POP JUMP JUMPDEST PUSH1 0x0 DUP2 SWAP1 POP SWAP3 SWAP2 POP POP JUMP JUMPDEST POP JUMP JUMPDEST PUSH1 0x0 PUSH2 0x210F PUSH1 0x0 DUP4 PUSH2 0x20F4 JUMP JUMPDEST SWAP2 POP PUSH2 0x211A DUP3 PUSH2 0x20FF JUMP JUMPDEST PUSH1 0x0 DUP3 ADD SWAP1 POP SWAP2 SWAP1 POP JUMP JUMPDEST PUSH1 0x0 PUSH2 0x2130 DUP3 PUSH2 0x2102 JUMP JUMPDEST SWAP2 POP DUP2 SWAP1 POP SWAP2 SWAP1 POP JUMP JUMPDEST PUSH32 0x726566756E64206661696C656400000000000000000000000000000000000000 PUSH1 0x0 DUP3 ADD MSTORE POP JUMP JUMPDEST PUSH1 0x0 PUSH2 0x2170 PUSH1 0xD DUP4 PUSH2 0x1BCD JUMP JUMPDEST SWAP2 POP PUSH2 0x217B DUP3 PUSH2 0x213A JUMP JUMPDEST PUSH1 0x20 DUP3 ADD SWAP1 POP SWAP2 SWAP1 POP JUMP JUMPDEST PUSH1 0x0 PUSH1 0x20 DUP3 ADD SWAP1 POP DUP2 DUP2 SUB PUSH1 0x0 DUP4 ADD MSTORE PUSH2 0x219F DUP2 PUSH2 0x2163 JUMP JUMPDEST SWAP1 POP SWAP2 SWAP1 POP JUMP INVALID LOG2 PUSH5 0x6970667358 0x22 SLT KECCAK256 PUSH21 0x805AE67CAA9CACBD590E44260BB19BC96EB489ED55 0x5F DUP12 MSTORE8 PUSH8 0xBD62872593D96473 PUSH16 0x6C634300081000330000000000000000 "
				},
				"gasEstimates": {
					"creation": {
						"codeDepositCost": "1733600",
						"executionCost": "1820",
						"totalCost": "1735420"
					},
					"external": {
						"buyFromFixedSale(address,uint256,uint256)": "infinite",
						"cancelFixedsale(address,uint256)": "infinite",
						"getFixedSale(address,uint256)": "infinite",
						"getFixedSaleNFT()": "infinite",
						"nftFixedSale(address,address,uint256,uint256)": "infinite",
						"nftSaleStatus(address,uint256)": "infinite",
						"onERC721Received(address,address,uint256,bytes)": "infinite",
						"updateFixedSalePrice(address,uint256,uint256)": "infinite"
					},
					"internal": {
						"_isTokenOrCoin(address,address,uint256)": "infinite",
						"_nativeAmountTransfer(address,uint256)": "infinite",
						"_tokenAmountTransfer(address,address,uint256)": "infinite"
					}
				},
				"methodIdentifiers": {
					"buyFromFixedSale(address,uint256,uint256)": "baf4371e",
					"cancelFixedsale(address,uint256)": "d3a6a6c9",
					"getFixedSale(address,uint256)": "8c3417da",
					"getFixedSaleNFT()": "9f085a00",
					"nftFixedSale(address,address,uint256,uint256)": "69a6d12e",
					"nftSaleStatus(address,uint256)": "6916462f",
					"onERC721Received(address,address,uint256,bytes)": "150b7a02",
					"updateFixedSalePrice(address,uint256,uint256)": "4676adca"
				}
			},
			"storageLayout": {
				"storage": [
					{
						"astId": 565,
						"contract": "NFT-Contracts/contracts/market_pri/nft_market.sol:NFTMarketplace",
						"label": "nftContractFixedSale",
						"offset": 0,
						"slot": "0",
						"type": "t_mapping(t_address,t_mapping(t_uint256,t_struct(FixedSale)553_storage))"
					},
					{
						"astId": 571,
						"contract": "NFT-Contracts/contracts/market_pri/nft_market.sol:NFTMarketplace",
						"label": "nftSaleStatus",
						"offset": 0,
						"slot": "1",
						"type": "t_mapping(t_address,t_mapping(t_uint256,t_uint256))"
					},
					{
						"astId": 577,
						"contract": "NFT-Contracts/contracts/market_pri/nft_market.sol:NFTMarketplace",
						"label": "indexFixedSaleNFT",
						"offset": 0,
						"slot": "2",
						"type": "t_mapping(t_address,t_mapping(t_uint256,t_uint256))"
					},
					{
						"astId": 581,
						"contract": "NFT-Contracts/contracts/market_pri/nft_market.sol:NFTMarketplace",
						"label": "fixedSaleNFT",
						"offset": 0,
						"slot": "3",
						"type": "t_array(t_struct(SaleInfo)558_storage)dyn_storage"
					}
				],
				"types": {
					"t_address": {
						"encoding": "inplace",
						"label": "address",
						"numberOfBytes": "20"
					},
					"t_array(t_struct(SaleInfo)558_storage)dyn_storage": {
						"base": "t_struct(SaleInfo)558_storage",
						"encoding": "dynamic_array",
						"label": "struct NFTMarketplace.SaleInfo[]",
						"numberOfBytes": "32"
					},
					"t_mapping(t_address,t_mapping(t_uint256,t_struct(FixedSale)553_storage))": {
						"encoding": "mapping",
						"key": "t_address",
						"label": "mapping(address => mapping(uint256 => struct NFTMarketplace.FixedSale))",
						"numberOfBytes": "32",
						"value": "t_mapping(t_uint256,t_struct(FixedSale)553_storage)"
					},
					"t_mapping(t_address,t_mapping(t_uint256,t_uint256))": {
						"encoding": "mapping",
						"key": "t_address",
						"label": "mapping(address => mapping(uint256 => uint256))",
						"numberOfBytes": "32",
						"value": "t_mapping(t_uint256,t_uint256)"
					},
					"t_mapping(t_uint256,t_struct(FixedSale)553_storage)": {
						"encoding": "mapping",
						"key": "t_uint256",
						"label": "mapping(uint256 => struct NFTMarketplace.FixedSale)",
						"numberOfBytes": "32",
						"value": "t_struct(FixedSale)553_storage"
					},
					"t_mapping(t_uint256,t_uint256)": {
						"encoding": "mapping",
						"key": "t_uint256",
						"label": "mapping(uint256 => uint256)",
						"numberOfBytes": "32",
						"value": "t_uint256"
					},
					"t_struct(FixedSale)553_storage": {
						"encoding": "inplace",
						"label": "struct NFTMarketplace.FixedSale",
						"members": [
							{
								"astId": 546,
								"contract": "NFT-Contracts/contracts/market_pri/nft_market.sol:NFTMarketplace",
								"label": "nftSeller",
								"offset": 0,
								"slot": "0",
								"type": "t_address"
							},
							{
								"astId": 548,
								"contract": "NFT-Contracts/contracts/market_pri/nft_market.sol:NFTMarketplace",
								"label": "nftBuyer",
								"offset": 0,
								"slot": "1",
								"type": "t_address"
							},
							{
								"astId": 550,
								"contract": "NFT-Contracts/contracts/market_pri/nft_market.sol:NFTMarketplace",
								"label": "erc20",
								"offset": 0,
								"slot": "2",
								"type": "t_address"
							},
							{
								"astId": 552,
								"contract": "NFT-Contracts/contracts/market_pri/nft_market.sol:NFTMarketplace",
								"label": "salePrice",
								"offset": 0,
								"slot": "3",
								"type": "t_uint256"
							}
						],
						"numberOfBytes": "128"
					},
					"t_struct(SaleInfo)558_storage": {
						"encoding": "inplace",
						"label": "struct NFTMarketplace.SaleInfo",
						"members": [
							{
								"astId": 555,
								"contract": "NFT-Contracts/contracts/market_pri/nft_market.sol:NFTMarketplace",
								"label": "_nftContractAddress",
								"offset": 0,
								"slot": "0",
								"type": "t_address"
							},
							{
								"astId": 557,
								"contract": "NFT-Contracts/contracts/market_pri/nft_market.sol:NFTMarketplace",
								"label": "_tokenID",
								"offset": 0,
								"slot": "1",
								"type": "t_uint256"
							}
						],
						"numberOfBytes": "64"
					},
					"t_uint256": {
						"encoding": "inplace",
						"label": "uint256",
						"numberOfBytes": "32"
					}
				}
			},
			"userdoc": {
				"kind": "user",
				"methods": {},
				"version": 1
			}
		}
	}
}