{
	"NFT-Contracts/contracts/market_pri/nft_new_market1155pri.sol": {
		"NFTMarketplace": {
			"abi": [
				{
					"anonymous": false,
					"inputs": [
						{
							"indexed": false,
							"internalType": "address",
							"name": "nftContractAddress",
							"type": "address"
						},
						{
							"indexed": false,
							"internalType": "address",
							"name": "nftSeller",
							"type": "address"
						},
						{
							"indexed": false,
							"internalType": "uint256",
							"name": "tokenId",
							"type": "uint256"
						}
					],
					"name": "CancelNftFixedSale",
					"type": "event"
				},
				{
					"anonymous": false,
					"inputs": [
						{
							"indexed": false,
							"internalType": "address",
							"name": "nftContractAddress",
							"type": "address"
						},
						{
							"indexed": false,
							"internalType": "address",
							"name": "nftBuyer",
							"type": "address"
						},
						{
							"indexed": false,
							"internalType": "uint256",
							"name": "amount",
							"type": "uint256"
						},
						{
							"indexed": false,
							"internalType": "uint256",
							"name": "tokenId",
							"type": "uint256"
						},
						{
							"indexed": false,
							"internalType": "uint256",
							"name": "nftBuyPrice",
							"type": "uint256"
						}
					],
					"name": "NftBuyFromFixedSale",
					"type": "event"
				},
				{
					"anonymous": false,
					"inputs": [
						{
							"indexed": false,
							"internalType": "address",
							"name": "nftContractAddress",
							"type": "address"
						},
						{
							"indexed": false,
							"internalType": "address",
							"name": "nftSeller",
							"type": "address"
						},
						{
							"indexed": false,
							"internalType": "address",
							"name": "erc20",
							"type": "address"
						},
						{
							"indexed": false,
							"internalType": "uint256",
							"name": "amount",
							"type": "uint256"
						},
						{
							"indexed": false,
							"internalType": "uint256",
							"name": "tokenId",
							"type": "uint256"
						},
						{
							"indexed": false,
							"internalType": "uint256",
							"name": "salePrice",
							"type": "uint256"
						},
						{
							"indexed": false,
							"internalType": "uint256",
							"name": "timeOfSale",
							"type": "uint256"
						}
					],
					"name": "NftFixedSale",
					"type": "event"
				},
				{
					"anonymous": false,
					"inputs": [
						{
							"indexed": false,
							"internalType": "address",
							"name": "nftContractAddress",
							"type": "address"
						},
						{
							"indexed": false,
							"internalType": "uint256",
							"name": "tokenId",
							"type": "uint256"
						},
						{
							"indexed": false,
							"internalType": "uint256",
							"name": "updateSalePrice",
							"type": "uint256"
						}
					],
					"name": "NftFixedSalePriceUpdated",
					"type": "event"
				},
				{
					"inputs": [],
					"name": "IID_IERC1155",
					"outputs": [
						{
							"internalType": "bytes4",
							"name": "",
							"type": "bytes4"
						}
					],
					"stateMutability": "view",
					"type": "function"
				},
				{
					"inputs": [
						{
							"internalType": "address",
							"name": "_nftContractAddress",
							"type": "address"
						},
						{
							"internalType": "uint256",
							"name": "_tokenId",
							"type": "uint256"
						},
						{
							"internalType": "uint256",
							"name": "_amount",
							"type": "uint256"
						},
						{
							"internalType": "uint256",
							"name": "_nftAmount",
							"type": "uint256"
						},
						{
							"internalType": "bytes",
							"name": "_data",
							"type": "bytes"
						}
					],
					"name": "buyFromFixedSale",
					"outputs": [],
					"stateMutability": "payable",
					"type": "function"
				},
				{
					"inputs": [
						{
							"internalType": "address",
							"name": "_nftContractAddress",
							"type": "address"
						},
						{
							"internalType": "uint256",
							"name": "_tokenId",
							"type": "uint256"
						},
						{
							"internalType": "uint256",
							"name": "_amount",
							"type": "uint256"
						},
						{
							"internalType": "bytes",
							"name": "_data",
							"type": "bytes"
						}
					],
					"name": "cancelFixedsale",
					"outputs": [],
					"stateMutability": "nonpayable",
					"type": "function"
				},
				{
					"inputs": [
						{
							"internalType": "address",
							"name": "_nftContractAddress",
							"type": "address"
						},
						{
							"internalType": "uint256",
							"name": "_tokenId",
							"type": "uint256"
						}
					],
					"name": "getFixedSale",
					"outputs": [
						{
							"components": [
								{
									"internalType": "address",
									"name": "nftSeller",
									"type": "address"
								},
								{
									"internalType": "address",
									"name": "nftBuyer",
									"type": "address"
								},
								{
									"internalType": "address",
									"name": "erc20",
									"type": "address"
								},
								{
									"internalType": "uint256",
									"name": "amount",
									"type": "uint256"
								},
								{
									"internalType": "uint256",
									"name": "salePrice",
									"type": "uint256"
								}
							],
							"internalType": "struct NFTMarketplace.FixedSale",
							"name": "",
							"type": "tuple"
						}
					],
					"stateMutability": "view",
					"type": "function"
				},
				{
					"inputs": [],
					"name": "getFixedSaleNFT",
					"outputs": [
						{
							"components": [
								{
									"internalType": "address",
									"name": "_nftContractAddress",
									"type": "address"
								},
								{
									"internalType": "uint256",
									"name": "_tokenID",
									"type": "uint256"
								}
							],
							"internalType": "struct NFTMarketplace.SaleInfo[]",
							"name": "",
							"type": "tuple[]"
						}
					],
					"stateMutability": "view",
					"type": "function"
				},
				{
					"inputs": [
						{
							"internalType": "address",
							"name": "_nftContractAddress",
							"type": "address"
						}
					],
					"name": "isERC1155",
					"outputs": [
						{
							"internalType": "bool",
							"name": "",
							"type": "bool"
						}
					],
					"stateMutability": "view",
					"type": "function"
				},
				{
					"inputs": [
						{
							"internalType": "address",
							"name": "_nftContractAddress",
							"type": "address"
						},
						{
							"internalType": "address",
							"name": "_erc20",
							"type": "address"
						},
						{
							"internalType": "uint256",
							"name": "_tokenId",
							"type": "uint256"
						},
						{
							"internalType": "uint256",
							"name": "_amount",
							"type": "uint256"
						},
						{
							"internalType": "uint256",
							"name": "_salePrice",
							"type": "uint256"
						},
						{
							"internalType": "bytes",
							"name": "_data",
							"type": "bytes"
						}
					],
					"name": "nftFixedSale",
					"outputs": [],
					"stateMutability": "nonpayable",
					"type": "function"
				},
				{
					"inputs": [
						{
							"internalType": "address",
							"name": "",
							"type": "address"
						},
						{
							"internalType": "uint256",
							"name": "",
							"type": "uint256"
						}
					],
					"name": "nftSaleStatus",
					"outputs": [
						{
							"internalType": "uint256",
							"name": "",
							"type": "uint256"
						}
					],
					"stateMutability": "view",
					"type": "function"
				},
				{
					"inputs": [
						{
							"internalType": "address",
							"name": "_operator",
							"type": "address"
						},
						{
							"internalType": "address",
							"name": "_from",
							"type": "address"
						},
						{
							"internalType": "uint256[]",
							"name": "_ids",
							"type": "uint256[]"
						},
						{
							"internalType": "uint256[]",
							"name": "_values",
							"type": "uint256[]"
						},
						{
							"internalType": "bytes",
							"name": "_data",
							"type": "bytes"
						}
					],
					"name": "onERC1155BatchReceived",
					"outputs": [
						{
							"internalType": "bytes4",
							"name": "",
							"type": "bytes4"
						}
					],
					"stateMutability": "pure",
					"type": "function"
				},
				{
					"inputs": [
						{
							"internalType": "address",
							"name": "_operator",
							"type": "address"
						},
						{
							"internalType": "address",
							"name": "_from",
							"type": "address"
						},
						{
							"internalType": "uint256",
							"name": "_id",
							"type": "uint256"
						},
						{
							"internalType": "uint256",
							"name": "_value",
							"type": "uint256"
						},
						{
							"internalType": "bytes",
							"name": "_data",
							"type": "bytes"
						}
					],
					"name": "onERC1155Received",
					"outputs": [
						{
							"internalType": "bytes4",
							"name": "",
							"type": "bytes4"
						}
					],
					"stateMutability": "pure",
					"type": "function"
				},
				{
					"inputs": [
						{
							"internalType": "address",
							"name": "_nftContractAddress",
							"type": "address"
						},
						{
							"internalType": "uint256",
							"name": "_tokenId",
							"type": "uint256"
						},
						{
							"internalType": "uint256",
							"name": "_updateSalePrice",
							"type": "uint256"
						}
					],
					"name": "updateFixedSalePrice",
					"outputs": [],
					"stateMutability": "nonpayable",
					"type": "function"
				},
				{
					"stateMutability": "payable",
					"type": "receive"
				}
			],
			"devdoc": {
				"kind": "dev",
				"methods": {},
				"version": 1
			},
			"evm": {
				"assembly": "    /* \"NFT-Contracts/contracts/market_pri/nft_new_market1155pri.sol\":451:10809  contract NFTMarketplace {... */\n  mstore(0x40, 0x80)\n  callvalue\n  dup1\n  iszero\n  tag_1\n  jumpi\n  0x00\n  dup1\n  revert\ntag_1:\n  pop\n  dataSize(sub_0)\n  dup1\n  dataOffset(sub_0)\n  0x00\n  codecopy\n  0x00\n  return\nstop\n\nsub_0: assembly {\n        /* \"NFT-Contracts/contracts/market_pri/nft_new_market1155pri.sol\":451:10809  contract NFTMarketplace {... */\n      mstore(0x40, 0x80)\n      jumpi(tag_1, lt(calldatasize, 0x04))\n      shr(0xe0, calldataload(0x00))\n      dup1\n      0x804e9f24\n      gt\n      tag_14\n      jumpi\n      dup1\n      0x804e9f24\n      eq\n      tag_8\n      jumpi\n      dup1\n      0x8c3417da\n      eq\n      tag_9\n      jumpi\n      dup1\n      0x9b8cfe52\n      eq\n      tag_10\n      jumpi\n      dup1\n      0x9f085a00\n      eq\n      tag_11\n      jumpi\n      dup1\n      0xbc197c81\n      eq\n      tag_12\n      jumpi\n      dup1\n      0xf23a6e61\n      eq\n      tag_13\n      jumpi\n      jump(tag_2)\n    tag_14:\n      dup1\n      0x282e460a\n      eq\n      tag_3\n      jumpi\n      dup1\n      0x4676adca\n      eq\n      tag_4\n      jumpi\n      dup1\n      0x6916462f\n      eq\n      tag_5\n      jumpi\n      dup1\n      0x6eb84994\n      eq\n      tag_6\n      jumpi\n      dup1\n      0x771b5788\n      eq\n      tag_7\n      jumpi\n      jump(tag_2)\n    tag_1:\n      jumpi(tag_2, calldatasize)\n      stop\n    tag_2:\n      0x00\n      dup1\n      revert\n        /* \"NFT-Contracts/contracts/market_pri/nft_new_market1155pri.sol\":10573:10769  function isERC1155(address _nftContractAddress)... */\n    tag_3:\n      callvalue\n      dup1\n      iszero\n      tag_17\n      jumpi\n      0x00\n      dup1\n      revert\n    tag_17:\n      pop\n      tag_18\n      0x04\n      dup1\n      calldatasize\n      sub\n      dup2\n      add\n      swap1\n      tag_19\n      swap2\n      swap1\n      tag_20\n      jump\t// in\n    tag_19:\n      tag_21\n      jump\t// in\n    tag_18:\n      mload(0x40)\n      tag_22\n      swap2\n      swap1\n      tag_23\n      jump\t// in\n    tag_22:\n      mload(0x40)\n      dup1\n      swap2\n      sub\n      swap1\n      return\n        /* \"NFT-Contracts/contracts/market_pri/nft_new_market1155pri.sol\":5687:6265  function updateFixedSalePrice(... */\n    tag_4:\n      callvalue\n      dup1\n      iszero\n      tag_24\n      jumpi\n      0x00\n      dup1\n      revert\n    tag_24:\n      pop\n      tag_25\n      0x04\n      dup1\n      calldatasize\n      sub\n      dup2\n      add\n      swap1\n      tag_26\n      swap2\n      swap1\n      tag_27\n      jump\t// in\n    tag_26:\n      tag_28\n      jump\t// in\n    tag_25:\n      stop\n        /* \"NFT-Contracts/contracts/market_pri/nft_new_market1155pri.sol\":856:924  mapping(address => mapping(uint256 => uint256)) public nftSaleStatus */\n    tag_5:\n      callvalue\n      dup1\n      iszero\n      tag_29\n      jumpi\n      0x00\n      dup1\n      revert\n    tag_29:\n      pop\n      tag_30\n      0x04\n      dup1\n      calldatasize\n      sub\n      dup2\n      add\n      swap1\n      tag_31\n      swap2\n      swap1\n      tag_32\n      jump\t// in\n    tag_31:\n      tag_33\n      jump\t// in\n    tag_30:\n      mload(0x40)\n      tag_34\n      swap2\n      swap1\n      tag_35\n      jump\t// in\n    tag_34:\n      mload(0x40)\n      dup1\n      swap2\n      sub\n      swap1\n      return\n        /* \"NFT-Contracts/contracts/market_pri/nft_new_market1155pri.sol\":6273:7754  function buyFromFixedSale(... */\n    tag_6:\n      tag_36\n      0x04\n      dup1\n      calldatasize\n      sub\n      dup2\n      add\n      swap1\n      tag_37\n      swap2\n      swap1\n      tag_38\n      jump\t// in\n    tag_37:\n      tag_39\n      jump\t// in\n    tag_36:\n      stop\n        /* \"NFT-Contracts/contracts/market_pri/nft_new_market1155pri.sol\":3685:4962  function nftFixedSale(... */\n    tag_7:\n      callvalue\n      dup1\n      iszero\n      tag_40\n      jumpi\n      0x00\n      dup1\n      revert\n    tag_40:\n      pop\n      tag_41\n      0x04\n      dup1\n      calldatasize\n      sub\n      dup2\n      add\n      swap1\n      tag_42\n      swap2\n      swap1\n      tag_43\n      jump\t// in\n    tag_42:\n      tag_44\n      jump\t// in\n    tag_41:\n      stop\n        /* \"NFT-Contracts/contracts/market_pri/nft_new_market1155pri.sol\":4970:5679  function cancelFixedsale(... */\n    tag_8:\n      callvalue\n      dup1\n      iszero\n      tag_45\n      jumpi\n      0x00\n      dup1\n      revert\n    tag_45:\n      pop\n      tag_46\n      0x04\n      dup1\n      calldatasize\n      sub\n      dup2\n      add\n      swap1\n      tag_47\n      swap2\n      swap1\n      tag_48\n      jump\t// in\n    tag_47:\n      tag_49\n      jump\t// in\n    tag_46:\n      stop\n        /* \"NFT-Contracts/contracts/market_pri/nft_new_market1155pri.sol\":7877:8096  function getFixedSale(address _nftContractAddress, uint256 _tokenId)... */\n    tag_9:\n      callvalue\n      dup1\n      iszero\n      tag_50\n      jumpi\n      0x00\n      dup1\n      revert\n    tag_50:\n      pop\n      tag_51\n      0x04\n      dup1\n      calldatasize\n      sub\n      dup2\n      add\n      swap1\n      tag_52\n      swap2\n      swap1\n      tag_32\n      jump\t// in\n    tag_52:\n      tag_53\n      jump\t// in\n    tag_51:\n      mload(0x40)\n      tag_54\n      swap2\n      swap1\n      tag_55\n      jump\t// in\n    tag_54:\n      mload(0x40)\n      dup1\n      swap2\n      sub\n      swap1\n      return\n        /* \"NFT-Contracts/contracts/market_pri/nft_new_market1155pri.sol\":1005:1069  bytes4 public constant IID_IERC1155 = type(IERC1155).interfaceId */\n    tag_10:\n      callvalue\n      dup1\n      iszero\n      tag_56\n      jumpi\n      0x00\n      dup1\n      revert\n    tag_56:\n      pop\n      tag_57\n      tag_58\n      jump\t// in\n    tag_57:\n      mload(0x40)\n      tag_59\n      swap2\n      swap1\n      tag_60\n      jump\t// in\n    tag_59:\n      mload(0x40)\n      dup1\n      swap2\n      sub\n      swap1\n      return\n        /* \"NFT-Contracts/contracts/market_pri/nft_new_market1155pri.sol\":7762:7869  function getFixedSaleNFT() external view returns (SaleInfo[] memory) {... */\n    tag_11:\n      callvalue\n      dup1\n      iszero\n      tag_61\n      jumpi\n      0x00\n      dup1\n      revert\n    tag_61:\n      pop\n      tag_62\n      tag_63\n      jump\t// in\n    tag_62:\n      mload(0x40)\n      tag_64\n      swap2\n      swap1\n      tag_65\n      jump\t// in\n    tag_64:\n      mload(0x40)\n      dup1\n      swap2\n      sub\n      swap1\n      return\n        /* \"NFT-Contracts/contracts/market_pri/nft_new_market1155pri.sol\":8343:8603  function onERC1155BatchReceived(... */\n    tag_12:\n      callvalue\n      dup1\n      iszero\n      tag_66\n      jumpi\n      0x00\n      dup1\n      revert\n    tag_66:\n      pop\n      tag_67\n      0x04\n      dup1\n      calldatasize\n      sub\n      dup2\n      add\n      swap1\n      tag_68\n      swap2\n      swap1\n      tag_69\n      jump\t// in\n    tag_68:\n      tag_70\n      jump\t// in\n    tag_67:\n      mload(0x40)\n      tag_71\n      swap2\n      swap1\n      tag_60\n      jump\t// in\n    tag_71:\n      mload(0x40)\n      dup1\n      swap2\n      sub\n      swap1\n      return\n        /* \"NFT-Contracts/contracts/market_pri/nft_new_market1155pri.sol\":8104:8335  function onERC1155Received(... */\n    tag_13:\n      callvalue\n      dup1\n      iszero\n      tag_72\n      jumpi\n      0x00\n      dup1\n      revert\n    tag_72:\n      pop\n      tag_73\n      0x04\n      dup1\n      calldatasize\n      sub\n      dup2\n      add\n      swap1\n      tag_74\n      swap2\n      swap1\n      tag_75\n      jump\t// in\n    tag_74:\n      tag_76\n      jump\t// in\n    tag_73:\n      mload(0x40)\n      tag_77\n      swap2\n      swap1\n      tag_60\n      jump\t// in\n    tag_77:\n      mload(0x40)\n      dup1\n      swap2\n      sub\n      swap1\n      return\n        /* \"NFT-Contracts/contracts/market_pri/nft_new_market1155pri.sol\":10573:10769  function isERC1155(address _nftContractAddress)... */\n    tag_21:\n        /* \"NFT-Contracts/contracts/market_pri/nft_new_market1155pri.sol\":10671:10675  bool */\n      0x00\n        /* \"NFT-Contracts/contracts/market_pri/nft_new_market1155pri.sol\":10709:10728  _nftContractAddress */\n      dup2\n        /* \"NFT-Contracts/contracts/market_pri/nft_new_market1155pri.sol\":10700:10747  IERC1155(_nftContractAddress).supportsInterface */\n      0xffffffffffffffffffffffffffffffffffffffff\n      and\n      0x01ffc9a7\n        /* \"NFT-Contracts/contracts/market_pri/nft_new_market1155pri.sol\":1043:1069  type(IERC1155).interfaceId */\n      0xd9b67a2600000000000000000000000000000000000000000000000000000000\n        /* \"NFT-Contracts/contracts/market_pri/nft_new_market1155pri.sol\":10700:10761  IERC1155(_nftContractAddress).supportsInterface(IID_IERC1155) */\n      mload(0x40)\n      dup3\n      0xffffffff\n      and\n      0xe0\n      shl\n      dup2\n      mstore\n      0x04\n      add\n      tag_79\n      swap2\n      swap1\n      tag_60\n      jump\t// in\n    tag_79:\n      0x20\n      mload(0x40)\n      dup1\n      dup4\n      sub\n      dup2\n      dup7\n      gas\n      staticcall\n      iszero\n      dup1\n      iszero\n      tag_81\n      jumpi\n      returndatasize\n      0x00\n      dup1\n      returndatacopy\n      revert(0x00, returndatasize)\n    tag_81:\n      pop\n      pop\n      pop\n      pop\n      mload(0x40)\n      returndatasize\n      not(0x1f)\n      0x1f\n      dup3\n      add\n      and\n      dup3\n      add\n      dup1\n      0x40\n      mstore\n      pop\n      dup2\n      add\n      swap1\n      tag_82\n      swap2\n      swap1\n      tag_83\n      jump\t// in\n    tag_82:\n        /* \"NFT-Contracts/contracts/market_pri/nft_new_market1155pri.sol\":10693:10761  return IERC1155(_nftContractAddress).supportsInterface(IID_IERC1155) */\n      swap1\n      pop\n        /* \"NFT-Contracts/contracts/market_pri/nft_new_market1155pri.sol\":10573:10769  function isERC1155(address _nftContractAddress)... */\n      swap2\n      swap1\n      pop\n      jump\t// out\n        /* \"NFT-Contracts/contracts/market_pri/nft_new_market1155pri.sol\":5687:6265  function updateFixedSalePrice(... */\n    tag_28:\n        /* \"NFT-Contracts/contracts/market_pri/nft_new_market1155pri.sol\":5868:5887  _nftContractAddress */\n      dup3\n        /* \"NFT-Contracts/contracts/market_pri/nft_new_market1155pri.sol\":5889:5897  _tokenId */\n      dup3\n        /* \"NFT-Contracts/contracts/market_pri/nft_new_market1155pri.sol\":2187:2188  1 */\n      0x01\n        /* \"NFT-Contracts/contracts/market_pri/nft_new_market1155pri.sol\":2139:2152  nftSaleStatus */\n      dup1\n        /* \"NFT-Contracts/contracts/market_pri/nft_new_market1155pri.sol\":2139:2173  nftSaleStatus[_nftContractAddress] */\n      0x00\n        /* \"NFT-Contracts/contracts/market_pri/nft_new_market1155pri.sol\":2153:2172  _nftContractAddress */\n      dup5\n        /* \"NFT-Contracts/contracts/market_pri/nft_new_market1155pri.sol\":2139:2173  nftSaleStatus[_nftContractAddress] */\n      0xffffffffffffffffffffffffffffffffffffffff\n      and\n      0xffffffffffffffffffffffffffffffffffffffff\n      and\n      dup2\n      mstore\n      0x20\n      add\n      swap1\n      dup2\n      mstore\n      0x20\n      add\n      0x00\n      keccak256\n        /* \"NFT-Contracts/contracts/market_pri/nft_new_market1155pri.sol\":2139:2183  nftSaleStatus[_nftContractAddress][_tokenId] */\n      0x00\n        /* \"NFT-Contracts/contracts/market_pri/nft_new_market1155pri.sol\":2174:2182  _tokenId */\n      dup4\n        /* \"NFT-Contracts/contracts/market_pri/nft_new_market1155pri.sol\":2139:2183  nftSaleStatus[_nftContractAddress][_tokenId] */\n      dup2\n      mstore\n      0x20\n      add\n      swap1\n      dup2\n      mstore\n      0x20\n      add\n      0x00\n      keccak256\n      sload\n        /* \"NFT-Contracts/contracts/market_pri/nft_new_market1155pri.sol\":2139:2188  nftSaleStatus[_nftContractAddress][_tokenId] == 1 */\n      eq\n        /* \"NFT-Contracts/contracts/market_pri/nft_new_market1155pri.sol\":2117:2237  require(... */\n      tag_85\n      jumpi\n      mload(0x40)\n      0x08c379a000000000000000000000000000000000000000000000000000000000\n      dup2\n      mstore\n      0x04\n      add\n      tag_86\n      swap1\n      tag_87\n      jump\t// in\n    tag_86:\n      mload(0x40)\n      dup1\n      swap2\n      sub\n      swap1\n      revert\n    tag_85:\n        /* \"NFT-Contracts/contracts/market_pri/nft_new_market1155pri.sol\":5927:5946  _nftContractAddress */\n      dup5\n        /* \"NFT-Contracts/contracts/market_pri/nft_new_market1155pri.sol\":5948:5956  _tokenId */\n      dup5\n        /* \"NFT-Contracts/contracts/market_pri/nft_new_market1155pri.sol\":2628:2648  nftContractFixedSale */\n      0x00\n        /* \"NFT-Contracts/contracts/market_pri/nft_new_market1155pri.sol\":2628:2669  nftContractFixedSale[_nftContractAddress] */\n      dup1\n        /* \"NFT-Contracts/contracts/market_pri/nft_new_market1155pri.sol\":2649:2668  _nftContractAddress */\n      dup4\n        /* \"NFT-Contracts/contracts/market_pri/nft_new_market1155pri.sol\":2628:2669  nftContractFixedSale[_nftContractAddress] */\n      0xffffffffffffffffffffffffffffffffffffffff\n      and\n      0xffffffffffffffffffffffffffffffffffffffff\n      and\n      dup2\n      mstore\n      0x20\n      add\n      swap1\n      dup2\n      mstore\n      0x20\n      add\n      0x00\n      keccak256\n        /* \"NFT-Contracts/contracts/market_pri/nft_new_market1155pri.sol\":2628:2679  nftContractFixedSale[_nftContractAddress][_tokenId] */\n      0x00\n        /* \"NFT-Contracts/contracts/market_pri/nft_new_market1155pri.sol\":2670:2678  _tokenId */\n      dup3\n        /* \"NFT-Contracts/contracts/market_pri/nft_new_market1155pri.sol\":2628:2679  nftContractFixedSale[_nftContractAddress][_tokenId] */\n      dup2\n      mstore\n      0x20\n      add\n      swap1\n      dup2\n      mstore\n      0x20\n      add\n      0x00\n      keccak256\n        /* \"NFT-Contracts/contracts/market_pri/nft_new_market1155pri.sol\":2628:2689  nftContractFixedSale[_nftContractAddress][_tokenId].nftSeller */\n      0x00\n      add\n      0x00\n      swap1\n      sload\n      swap1\n      0x0100\n      exp\n      swap1\n      div\n      0xffffffffffffffffffffffffffffffffffffffff\n      and\n        /* \"NFT-Contracts/contracts/market_pri/nft_new_market1155pri.sol\":2597:2689  msg.sender ==... */\n      0xffffffffffffffffffffffffffffffffffffffff\n      and\n        /* \"NFT-Contracts/contracts/market_pri/nft_new_market1155pri.sol\":2597:2607  msg.sender */\n      caller\n        /* \"NFT-Contracts/contracts/market_pri/nft_new_market1155pri.sol\":2597:2689  msg.sender ==... */\n      0xffffffffffffffffffffffffffffffffffffffff\n      and\n      eq\n        /* \"NFT-Contracts/contracts/market_pri/nft_new_market1155pri.sol\":2575:2738  require(... */\n      tag_89\n      jumpi\n      mload(0x40)\n      0x08c379a000000000000000000000000000000000000000000000000000000000\n      dup2\n      mstore\n      0x04\n      add\n      tag_90\n      swap1\n      tag_91\n      jump\t// in\n    tag_90:\n      mload(0x40)\n      dup1\n      swap2\n      sub\n      swap1\n      revert\n    tag_89:\n        /* \"NFT-Contracts/contracts/market_pri/nft_new_market1155pri.sol\":5988:6004  _updateSalePrice */\n      dup5\n        /* \"NFT-Contracts/contracts/market_pri/nft_new_market1155pri.sol\":3609:3610  0 */\n      0x00\n        /* \"NFT-Contracts/contracts/market_pri/nft_new_market1155pri.sol\":3600:3606  _price */\n      dup2\n        /* \"NFT-Contracts/contracts/market_pri/nft_new_market1155pri.sol\":3600:3610  _price > 0 */\n      gt\n        /* \"NFT-Contracts/contracts/market_pri/nft_new_market1155pri.sol\":3592:3632  require(_price > 0, \"Price cannot be 0\") */\n      tag_93\n      jumpi\n      mload(0x40)\n      0x08c379a000000000000000000000000000000000000000000000000000000000\n      dup2\n      mstore\n      0x04\n      add\n      tag_94\n      swap1\n      tag_95\n      jump\t// in\n    tag_94:\n      mload(0x40)\n      dup1\n      swap2\n      sub\n      swap1\n      revert\n    tag_93:\n        /* \"NFT-Contracts/contracts/market_pri/nft_new_market1155pri.sol\":6100:6116  _updateSalePrice */\n      dup6\n        /* \"NFT-Contracts/contracts/market_pri/nft_new_market1155pri.sol\":6022:6042  nftContractFixedSale */\n      0x00\n        /* \"NFT-Contracts/contracts/market_pri/nft_new_market1155pri.sol\":6022:6063  nftContractFixedSale[_nftContractAddress] */\n      dup1\n        /* \"NFT-Contracts/contracts/market_pri/nft_new_market1155pri.sol\":6043:6062  _nftContractAddress */\n      dup11\n        /* \"NFT-Contracts/contracts/market_pri/nft_new_market1155pri.sol\":6022:6063  nftContractFixedSale[_nftContractAddress] */\n      0xffffffffffffffffffffffffffffffffffffffff\n      and\n      0xffffffffffffffffffffffffffffffffffffffff\n      and\n      dup2\n      mstore\n      0x20\n      add\n      swap1\n      dup2\n      mstore\n      0x20\n      add\n      0x00\n      keccak256\n        /* \"NFT-Contracts/contracts/market_pri/nft_new_market1155pri.sol\":6022:6073  nftContractFixedSale[_nftContractAddress][_tokenId] */\n      0x00\n        /* \"NFT-Contracts/contracts/market_pri/nft_new_market1155pri.sol\":6064:6072  _tokenId */\n      dup10\n        /* \"NFT-Contracts/contracts/market_pri/nft_new_market1155pri.sol\":6022:6073  nftContractFixedSale[_nftContractAddress][_tokenId] */\n      dup2\n      mstore\n      0x20\n      add\n      swap1\n      dup2\n      mstore\n      0x20\n      add\n      0x00\n      keccak256\n        /* \"NFT-Contracts/contracts/market_pri/nft_new_market1155pri.sol\":6022:6097  nftContractFixedSale[_nftContractAddress][_tokenId]... */\n      0x04\n      add\n        /* \"NFT-Contracts/contracts/market_pri/nft_new_market1155pri.sol\":6022:6116  nftContractFixedSale[_nftContractAddress][_tokenId]... */\n      dup2\n      swap1\n      sstore\n      pop\n        /* \"NFT-Contracts/contracts/market_pri/nft_new_market1155pri.sol\":6134:6257  NftFixedSalePriceUpdated(... */\n      0x575a0876095ccf47276a37dce683308a625403d132d219f95205ce205b2e12bc\n        /* \"NFT-Contracts/contracts/market_pri/nft_new_market1155pri.sol\":6173:6192  _nftContractAddress */\n      dup9\n        /* \"NFT-Contracts/contracts/market_pri/nft_new_market1155pri.sol\":6207:6215  _tokenId */\n      dup9\n        /* \"NFT-Contracts/contracts/market_pri/nft_new_market1155pri.sol\":6230:6246  _updateSalePrice */\n      dup9\n        /* \"NFT-Contracts/contracts/market_pri/nft_new_market1155pri.sol\":6134:6257  NftFixedSalePriceUpdated(... */\n      mload(0x40)\n      tag_97\n      swap4\n      swap3\n      swap2\n      swap1\n      tag_98\n      jump\t// in\n    tag_97:\n      mload(0x40)\n      dup1\n      swap2\n      sub\n      swap1\n      log1\n        /* \"NFT-Contracts/contracts/market_pri/nft_new_market1155pri.sol\":2749:2750  _ */\n      pop\n        /* \"NFT-Contracts/contracts/market_pri/nft_new_market1155pri.sol\":2248:2249  _ */\n      pop\n      pop\n        /* \"NFT-Contracts/contracts/market_pri/nft_new_market1155pri.sol\":5687:6265  function updateFixedSalePrice(... */\n      pop\n      pop\n      pop\n      pop\n      pop\n      jump\t// out\n        /* \"NFT-Contracts/contracts/market_pri/nft_new_market1155pri.sol\":856:924  mapping(address => mapping(uint256 => uint256)) public nftSaleStatus */\n    tag_33:\n      mstore(0x20, 0x01)\n      dup2\n      0x00\n      mstore\n      mstore(0x20, keccak256(0x00, 0x40))\n      dup1\n      0x00\n      mstore\n      keccak256(0x00, 0x40)\n      0x00\n      swap2\n      pop\n      swap2\n      pop\n      pop\n      sload\n      dup2\n      jump\t// out\n        /* \"NFT-Contracts/contracts/market_pri/nft_new_market1155pri.sol\":6273:7754  function buyFromFixedSale(... */\n    tag_39:\n        /* \"NFT-Contracts/contracts/market_pri/nft_new_market1155pri.sol\":6516:6535  _nftContractAddress */\n      dup5\n        /* \"NFT-Contracts/contracts/market_pri/nft_new_market1155pri.sol\":6537:6545  _tokenId */\n      dup5\n        /* \"NFT-Contracts/contracts/market_pri/nft_new_market1155pri.sol\":2187:2188  1 */\n      0x01\n        /* \"NFT-Contracts/contracts/market_pri/nft_new_market1155pri.sol\":2139:2152  nftSaleStatus */\n      dup1\n        /* \"NFT-Contracts/contracts/market_pri/nft_new_market1155pri.sol\":2139:2173  nftSaleStatus[_nftContractAddress] */\n      0x00\n        /* \"NFT-Contracts/contracts/market_pri/nft_new_market1155pri.sol\":2153:2172  _nftContractAddress */\n      dup5\n        /* \"NFT-Contracts/contracts/market_pri/nft_new_market1155pri.sol\":2139:2173  nftSaleStatus[_nftContractAddress] */\n      0xffffffffffffffffffffffffffffffffffffffff\n      and\n      0xffffffffffffffffffffffffffffffffffffffff\n      and\n      dup2\n      mstore\n      0x20\n      add\n      swap1\n      dup2\n      mstore\n      0x20\n      add\n      0x00\n      keccak256\n        /* \"NFT-Contracts/contracts/market_pri/nft_new_market1155pri.sol\":2139:2183  nftSaleStatus[_nftContractAddress][_tokenId] */\n      0x00\n        /* \"NFT-Contracts/contracts/market_pri/nft_new_market1155pri.sol\":2174:2182  _tokenId */\n      dup4\n        /* \"NFT-Contracts/contracts/market_pri/nft_new_market1155pri.sol\":2139:2183  nftSaleStatus[_nftContractAddress][_tokenId] */\n      dup2\n      mstore\n      0x20\n      add\n      swap1\n      dup2\n      mstore\n      0x20\n      add\n      0x00\n      keccak256\n      sload\n        /* \"NFT-Contracts/contracts/market_pri/nft_new_market1155pri.sol\":2139:2188  nftSaleStatus[_nftContractAddress][_tokenId] == 1 */\n      eq\n        /* \"NFT-Contracts/contracts/market_pri/nft_new_market1155pri.sol\":2117:2237  require(... */\n      tag_100\n      jumpi\n      mload(0x40)\n      0x08c379a000000000000000000000000000000000000000000000000000000000\n      dup2\n      mstore\n      0x04\n      add\n      tag_101\n      swap1\n      tag_87\n      jump\t// in\n    tag_101:\n      mload(0x40)\n      dup1\n      swap2\n      sub\n      swap1\n      revert\n    tag_100:\n        /* \"NFT-Contracts/contracts/market_pri/nft_new_market1155pri.sol\":6577:6584  _amount */\n      dup5\n        /* \"NFT-Contracts/contracts/market_pri/nft_new_market1155pri.sol\":3609:3610  0 */\n      0x00\n        /* \"NFT-Contracts/contracts/market_pri/nft_new_market1155pri.sol\":3600:3606  _price */\n      dup2\n        /* \"NFT-Contracts/contracts/market_pri/nft_new_market1155pri.sol\":3600:3610  _price > 0 */\n      gt\n        /* \"NFT-Contracts/contracts/market_pri/nft_new_market1155pri.sol\":3592:3632  require(_price > 0, \"Price cannot be 0\") */\n      tag_103\n      jumpi\n      mload(0x40)\n      0x08c379a000000000000000000000000000000000000000000000000000000000\n      dup2\n      mstore\n      0x04\n      add\n      tag_104\n      swap1\n      tag_95\n      jump\t// in\n    tag_104:\n      mload(0x40)\n      dup1\n      swap2\n      sub\n      swap1\n      revert\n    tag_103:\n        /* \"NFT-Contracts/contracts/market_pri/nft_new_market1155pri.sol\":6631:6650  _nftContractAddress */\n      dup8\n        /* \"NFT-Contracts/contracts/market_pri/nft_new_market1155pri.sol\":6665:6673  _tokenId */\n      dup8\n        /* \"NFT-Contracts/contracts/market_pri/nft_new_market1155pri.sol\":6688:6695  _amount */\n      dup8\n        /* \"NFT-Contracts/contracts/market_pri/nft_new_market1155pri.sol\":6710:6720  _nftAmount */\n      dup8\n        /* \"NFT-Contracts/contracts/market_pri/nft_new_market1155pri.sol\":3452:3459  _amount */\n      dup1\n        /* \"NFT-Contracts/contracts/market_pri/nft_new_market1155pri.sol\":3322:3342  nftContractFixedSale */\n      0x00\n        /* \"NFT-Contracts/contracts/market_pri/nft_new_market1155pri.sol\":3322:3363  nftContractFixedSale[_nftContractAddress] */\n      dup1\n        /* \"NFT-Contracts/contracts/market_pri/nft_new_market1155pri.sol\":3343:3362  _nftContractAddress */\n      dup7\n        /* \"NFT-Contracts/contracts/market_pri/nft_new_market1155pri.sol\":3322:3363  nftContractFixedSale[_nftContractAddress] */\n      0xffffffffffffffffffffffffffffffffffffffff\n      and\n      0xffffffffffffffffffffffffffffffffffffffff\n      and\n      dup2\n      mstore\n      0x20\n      add\n      swap1\n      dup2\n      mstore\n      0x20\n      add\n      0x00\n      keccak256\n        /* \"NFT-Contracts/contracts/market_pri/nft_new_market1155pri.sol\":3322:3373  nftContractFixedSale[_nftContractAddress][_tokenId] */\n      0x00\n        /* \"NFT-Contracts/contracts/market_pri/nft_new_market1155pri.sol\":3364:3372  _tokenId */\n      dup6\n        /* \"NFT-Contracts/contracts/market_pri/nft_new_market1155pri.sol\":3322:3373  nftContractFixedSale[_nftContractAddress][_tokenId] */\n      dup2\n      mstore\n      0x20\n      add\n      swap1\n      dup2\n      mstore\n      0x20\n      add\n      0x00\n      keccak256\n        /* \"NFT-Contracts/contracts/market_pri/nft_new_market1155pri.sol\":3322:3409  nftContractFixedSale[_nftContractAddress][_tokenId]... */\n      0x04\n      add\n      sload\n        /* \"NFT-Contracts/contracts/market_pri/nft_new_market1155pri.sol\":3299:3459  (... */\n      tag_106\n      swap2\n      swap1\n      tag_107\n      jump\t// in\n    tag_106:\n        /* \"NFT-Contracts/contracts/market_pri/nft_new_market1155pri.sol\":3269:3278  _buyPrice */\n      dup3\n        /* \"NFT-Contracts/contracts/market_pri/nft_new_market1155pri.sol\":3269:3459  _buyPrice >=... */\n      lt\n      iszero\n        /* \"NFT-Contracts/contracts/market_pri/nft_new_market1155pri.sol\":3247:3507  require(... */\n      tag_108\n      jumpi\n      mload(0x40)\n      0x08c379a000000000000000000000000000000000000000000000000000000000\n      dup2\n      mstore\n      0x04\n      add\n      tag_109\n      swap1\n      tag_110\n      jump\t// in\n    tag_109:\n      mload(0x40)\n      dup1\n      swap2\n      sub\n      swap1\n      revert\n    tag_108:\n        /* \"NFT-Contracts/contracts/market_pri/nft_new_market1155pri.sol\":6784:6785  0 */\n      0x00\n        /* \"NFT-Contracts/contracts/market_pri/nft_new_market1155pri.sol\":6770:6780  _nftAmount */\n      dup10\n        /* \"NFT-Contracts/contracts/market_pri/nft_new_market1155pri.sol\":6770:6785  _nftAmount != 0 */\n      eq\n      iszero\n        /* \"NFT-Contracts/contracts/market_pri/nft_new_market1155pri.sol\":6770:6895  _nftAmount != 0 &&... */\n      dup1\n      iszero\n      tag_112\n      jumpi\n      pop\n        /* \"NFT-Contracts/contracts/market_pri/nft_new_market1155pri.sol\":6885:6895  _nftAmount */\n      dup9\n        /* \"NFT-Contracts/contracts/market_pri/nft_new_market1155pri.sol\":6806:6826  nftContractFixedSale */\n      0x00\n        /* \"NFT-Contracts/contracts/market_pri/nft_new_market1155pri.sol\":6806:6847  nftContractFixedSale[_nftContractAddress] */\n      dup1\n        /* \"NFT-Contracts/contracts/market_pri/nft_new_market1155pri.sol\":6827:6846  _nftContractAddress */\n      dup15\n        /* \"NFT-Contracts/contracts/market_pri/nft_new_market1155pri.sol\":6806:6847  nftContractFixedSale[_nftContractAddress] */\n      0xffffffffffffffffffffffffffffffffffffffff\n      and\n      0xffffffffffffffffffffffffffffffffffffffff\n      and\n      dup2\n      mstore\n      0x20\n      add\n      swap1\n      dup2\n      mstore\n      0x20\n      add\n      0x00\n      keccak256\n        /* \"NFT-Contracts/contracts/market_pri/nft_new_market1155pri.sol\":6806:6857  nftContractFixedSale[_nftContractAddress][_tokenId] */\n      0x00\n        /* \"NFT-Contracts/contracts/market_pri/nft_new_market1155pri.sol\":6848:6856  _tokenId */\n      dup14\n        /* \"NFT-Contracts/contracts/market_pri/nft_new_market1155pri.sol\":6806:6857  nftContractFixedSale[_nftContractAddress][_tokenId] */\n      dup2\n      mstore\n      0x20\n      add\n      swap1\n      dup2\n      mstore\n      0x20\n      add\n      0x00\n      keccak256\n        /* \"NFT-Contracts/contracts/market_pri/nft_new_market1155pri.sol\":6806:6864  nftContractFixedSale[_nftContractAddress][_tokenId].amount */\n      0x03\n      add\n      sload\n        /* \"NFT-Contracts/contracts/market_pri/nft_new_market1155pri.sol\":6806:6895  nftContractFixedSale[_nftContractAddress][_tokenId].amount >=... */\n      lt\n      iszero\n        /* \"NFT-Contracts/contracts/market_pri/nft_new_market1155pri.sol\":6770:6895  _nftAmount != 0 &&... */\n    tag_112:\n        /* \"NFT-Contracts/contracts/market_pri/nft_new_market1155pri.sol\":6748:6959  require(... */\n      tag_113\n      jumpi\n      mload(0x40)\n      0x08c379a000000000000000000000000000000000000000000000000000000000\n      dup2\n      mstore\n      0x04\n      add\n      tag_114\n      swap1\n      tag_115\n      jump\t// in\n    tag_114:\n      mload(0x40)\n      dup1\n      swap2\n      sub\n      swap1\n      revert\n    tag_113:\n        /* \"NFT-Contracts/contracts/market_pri/nft_new_market1155pri.sol\":6972:6998  address nftContractAddress */\n      0x00\n        /* \"NFT-Contracts/contracts/market_pri/nft_new_market1155pri.sol\":7001:7020  _nftContractAddress */\n      dup13\n        /* \"NFT-Contracts/contracts/market_pri/nft_new_market1155pri.sol\":6972:7020  address nftContractAddress = _nftContractAddress */\n      swap1\n      pop\n        /* \"NFT-Contracts/contracts/market_pri/nft_new_market1155pri.sol\":7031:7046  uint256 tokenID */\n      0x00\n        /* \"NFT-Contracts/contracts/market_pri/nft_new_market1155pri.sol\":7049:7057  _tokenId */\n      dup13\n        /* \"NFT-Contracts/contracts/market_pri/nft_new_market1155pri.sol\":7031:7057  uint256 tokenID = _tokenId */\n      swap1\n      pop\n        /* \"NFT-Contracts/contracts/market_pri/nft_new_market1155pri.sol\":7079:7097  nftContractAddress */\n      dup2\n        /* \"NFT-Contracts/contracts/market_pri/nft_new_market1155pri.sol\":7070:7115  IERC1155(nftContractAddress).safeTransferFrom */\n      0xffffffffffffffffffffffffffffffffffffffff\n      and\n      0xf242432a\n        /* \"NFT-Contracts/contracts/market_pri/nft_new_market1155pri.sol\":7130:7140  msg.sender */\n      caller\n        /* \"NFT-Contracts/contracts/market_pri/nft_new_market1155pri.sol\":7163:7167  this */\n      address\n        /* \"NFT-Contracts/contracts/market_pri/nft_new_market1155pri.sol\":7183:7190  tokenID */\n      dup5\n        /* \"NFT-Contracts/contracts/market_pri/nft_new_market1155pri.sol\":7205:7215  _nftAmount */\n      dup16\n        /* \"NFT-Contracts/contracts/market_pri/nft_new_market1155pri.sol\":7230:7235  _data */\n      dup16\n        /* \"NFT-Contracts/contracts/market_pri/nft_new_market1155pri.sol\":7070:7246  IERC1155(nftContractAddress).safeTransferFrom(... */\n      mload(0x40)\n      dup7\n      0xffffffff\n      and\n      0xe0\n      shl\n      dup2\n      mstore\n      0x04\n      add\n      tag_116\n      swap6\n      swap5\n      swap4\n      swap3\n      swap2\n      swap1\n      tag_117\n      jump\t// in\n    tag_116:\n      0x00\n      mload(0x40)\n      dup1\n      dup4\n      sub\n      dup2\n      0x00\n      dup8\n      dup1\n      extcodesize\n      iszero\n      dup1\n      iszero\n      tag_118\n      jumpi\n      0x00\n      dup1\n      revert\n    tag_118:\n      pop\n      gas\n      call\n      iszero\n      dup1\n      iszero\n      tag_120\n      jumpi\n      returndatasize\n      0x00\n      dup1\n      returndatacopy\n      revert(0x00, returndatasize)\n    tag_120:\n      pop\n      pop\n      pop\n      pop\n        /* \"NFT-Contracts/contracts/market_pri/nft_new_market1155pri.sol\":7259:7315  _checkFixedSale(nftContractAddress, tokenID, _nftAmount) */\n      tag_121\n        /* \"NFT-Contracts/contracts/market_pri/nft_new_market1155pri.sol\":7275:7293  nftContractAddress */\n      dup3\n        /* \"NFT-Contracts/contracts/market_pri/nft_new_market1155pri.sol\":7295:7302  tokenID */\n      dup3\n        /* \"NFT-Contracts/contracts/market_pri/nft_new_market1155pri.sol\":7304:7314  _nftAmount */\n      dup14\n        /* \"NFT-Contracts/contracts/market_pri/nft_new_market1155pri.sol\":7259:7274  _checkFixedSale */\n      tag_122\n        /* \"NFT-Contracts/contracts/market_pri/nft_new_market1155pri.sol\":7259:7315  _checkFixedSale(nftContractAddress, tokenID, _nftAmount) */\n      jump\t// in\n    tag_121:\n        /* \"NFT-Contracts/contracts/market_pri/nft_new_market1155pri.sol\":7328:7571  _isTokenOrCoin(... */\n      tag_123\n        /* \"NFT-Contracts/contracts/market_pri/nft_new_market1155pri.sol\":7357:7377  nftContractFixedSale */\n      0x00\n        /* \"NFT-Contracts/contracts/market_pri/nft_new_market1155pri.sol\":7357:7397  nftContractFixedSale[nftContractAddress] */\n      dup1\n        /* \"NFT-Contracts/contracts/market_pri/nft_new_market1155pri.sol\":7378:7396  nftContractAddress */\n      dup5\n        /* \"NFT-Contracts/contracts/market_pri/nft_new_market1155pri.sol\":7357:7397  nftContractFixedSale[nftContractAddress] */\n      0xffffffffffffffffffffffffffffffffffffffff\n      and\n      0xffffffffffffffffffffffffffffffffffffffff\n      and\n      dup2\n      mstore\n      0x20\n      add\n      swap1\n      dup2\n      mstore\n      0x20\n      add\n      0x00\n      keccak256\n        /* \"NFT-Contracts/contracts/market_pri/nft_new_market1155pri.sol\":7357:7406  nftContractFixedSale[nftContractAddress][tokenID] */\n      0x00\n        /* \"NFT-Contracts/contracts/market_pri/nft_new_market1155pri.sol\":7398:7405  tokenID */\n      dup4\n        /* \"NFT-Contracts/contracts/market_pri/nft_new_market1155pri.sol\":7357:7406  nftContractFixedSale[nftContractAddress][tokenID] */\n      dup2\n      mstore\n      0x20\n      add\n      swap1\n      dup2\n      mstore\n      0x20\n      add\n      0x00\n      keccak256\n        /* \"NFT-Contracts/contracts/market_pri/nft_new_market1155pri.sol\":7357:7416  nftContractFixedSale[nftContractAddress][tokenID].nftSeller */\n      0x00\n      add\n      0x00\n      swap1\n      sload\n      swap1\n      0x0100\n      exp\n      swap1\n      div\n      0xffffffffffffffffffffffffffffffffffffffff\n      and\n        /* \"NFT-Contracts/contracts/market_pri/nft_new_market1155pri.sol\":7431:7451  nftContractFixedSale */\n      0x00\n        /* \"NFT-Contracts/contracts/market_pri/nft_new_market1155pri.sol\":7431:7471  nftContractFixedSale[nftContractAddress] */\n      dup1\n        /* \"NFT-Contracts/contracts/market_pri/nft_new_market1155pri.sol\":7452:7470  nftContractAddress */\n      dup6\n        /* \"NFT-Contracts/contracts/market_pri/nft_new_market1155pri.sol\":7431:7471  nftContractFixedSale[nftContractAddress] */\n      0xffffffffffffffffffffffffffffffffffffffff\n      and\n      0xffffffffffffffffffffffffffffffffffffffff\n      and\n      dup2\n      mstore\n      0x20\n      add\n      swap1\n      dup2\n      mstore\n      0x20\n      add\n      0x00\n      keccak256\n        /* \"NFT-Contracts/contracts/market_pri/nft_new_market1155pri.sol\":7431:7480  nftContractFixedSale[nftContractAddress][tokenID] */\n      0x00\n        /* \"NFT-Contracts/contracts/market_pri/nft_new_market1155pri.sol\":7472:7479  tokenID */\n      dup5\n        /* \"NFT-Contracts/contracts/market_pri/nft_new_market1155pri.sol\":7431:7480  nftContractFixedSale[nftContractAddress][tokenID] */\n      dup2\n      mstore\n      0x20\n      add\n      swap1\n      dup2\n      mstore\n      0x20\n      add\n      0x00\n      keccak256\n        /* \"NFT-Contracts/contracts/market_pri/nft_new_market1155pri.sol\":7431:7486  nftContractFixedSale[nftContractAddress][tokenID].erc20 */\n      0x02\n      add\n      0x00\n      swap1\n      sload\n      swap1\n      0x0100\n      exp\n      swap1\n      div\n      0xffffffffffffffffffffffffffffffffffffffff\n      and\n        /* \"NFT-Contracts/contracts/market_pri/nft_new_market1155pri.sol\":7501:7521  nftContractFixedSale */\n      0x00\n        /* \"NFT-Contracts/contracts/market_pri/nft_new_market1155pri.sol\":7501:7541  nftContractFixedSale[nftContractAddress] */\n      dup1\n        /* \"NFT-Contracts/contracts/market_pri/nft_new_market1155pri.sol\":7522:7540  nftContractAddress */\n      dup7\n        /* \"NFT-Contracts/contracts/market_pri/nft_new_market1155pri.sol\":7501:7541  nftContractFixedSale[nftContractAddress] */\n      0xffffffffffffffffffffffffffffffffffffffff\n      and\n      0xffffffffffffffffffffffffffffffffffffffff\n      and\n      dup2\n      mstore\n      0x20\n      add\n      swap1\n      dup2\n      mstore\n      0x20\n      add\n      0x00\n      keccak256\n        /* \"NFT-Contracts/contracts/market_pri/nft_new_market1155pri.sol\":7501:7550  nftContractFixedSale[nftContractAddress][tokenID] */\n      0x00\n        /* \"NFT-Contracts/contracts/market_pri/nft_new_market1155pri.sol\":7542:7549  tokenID */\n      dup6\n        /* \"NFT-Contracts/contracts/market_pri/nft_new_market1155pri.sol\":7501:7550  nftContractFixedSale[nftContractAddress][tokenID] */\n      dup2\n      mstore\n      0x20\n      add\n      swap1\n      dup2\n      mstore\n      0x20\n      add\n      0x00\n      keccak256\n        /* \"NFT-Contracts/contracts/market_pri/nft_new_market1155pri.sol\":7501:7560  nftContractFixedSale[nftContractAddress][tokenID].salePrice */\n      0x04\n      add\n      sload\n        /* \"NFT-Contracts/contracts/market_pri/nft_new_market1155pri.sol\":7328:7342  _isTokenOrCoin */\n      tag_124\n        /* \"NFT-Contracts/contracts/market_pri/nft_new_market1155pri.sol\":7328:7571  _isTokenOrCoin(... */\n      jump\t// in\n    tag_123:\n        /* \"NFT-Contracts/contracts/market_pri/nft_new_market1155pri.sol\":7589:7746  NftBuyFromFixedSale(... */\n      0xb71c803b3dc073c348b9a8f845d03c3ffb6f423ea4a86e29fc5f5ca5a401c43a\n        /* \"NFT-Contracts/contracts/market_pri/nft_new_market1155pri.sol\":7623:7641  nftContractAddress */\n      dup3\n        /* \"NFT-Contracts/contracts/market_pri/nft_new_market1155pri.sol\":7656:7666  msg.sender */\n      caller\n        /* \"NFT-Contracts/contracts/market_pri/nft_new_market1155pri.sol\":7681:7688  tokenID */\n      dup4\n        /* \"NFT-Contracts/contracts/market_pri/nft_new_market1155pri.sol\":7703:7710  _amount */\n      dup16\n        /* \"NFT-Contracts/contracts/market_pri/nft_new_market1155pri.sol\":7725:7735  _nftAmount */\n      dup16\n        /* \"NFT-Contracts/contracts/market_pri/nft_new_market1155pri.sol\":7589:7746  NftBuyFromFixedSale(... */\n      mload(0x40)\n      tag_125\n      swap6\n      swap5\n      swap4\n      swap3\n      swap2\n      swap1\n      tag_126\n      jump\t// in\n    tag_125:\n      mload(0x40)\n      dup1\n      swap2\n      sub\n      swap1\n      log1\n        /* \"NFT-Contracts/contracts/market_pri/nft_new_market1155pri.sol\":6737:7754  {... */\n      pop\n      pop\n        /* \"NFT-Contracts/contracts/market_pri/nft_new_market1155pri.sol\":3643:3644  _ */\n      pop\n      pop\n      pop\n      pop\n        /* \"NFT-Contracts/contracts/market_pri/nft_new_market1155pri.sol\":2248:2249  _ */\n      pop\n        /* \"NFT-Contracts/contracts/market_pri/nft_new_market1155pri.sol\":6273:7754  function buyFromFixedSale(... */\n      pop\n      pop\n      pop\n      pop\n      pop\n      pop\n      pop\n      jump\t// out\n        /* \"NFT-Contracts/contracts/market_pri/nft_new_market1155pri.sol\":3685:4962  function nftFixedSale(... */\n    tag_44:\n        /* \"NFT-Contracts/contracts/market_pri/nft_new_market1155pri.sol\":3934:3953  _nftContractAddress */\n      dup6\n        /* \"NFT-Contracts/contracts/market_pri/nft_new_market1155pri.sol\":3955:3963  _tokenId */\n      dup5\n        /* \"NFT-Contracts/contracts/market_pri/nft_new_market1155pri.sol\":2373:2412  _ownerOf(_nftContractAddress, _tokenId) */\n      tag_128\n        /* \"NFT-Contracts/contracts/market_pri/nft_new_market1155pri.sol\":2382:2401  _nftContractAddress */\n      dup3\n        /* \"NFT-Contracts/contracts/market_pri/nft_new_market1155pri.sol\":2403:2411  _tokenId */\n      dup3\n        /* \"NFT-Contracts/contracts/market_pri/nft_new_market1155pri.sol\":2373:2381  _ownerOf */\n      tag_129\n        /* \"NFT-Contracts/contracts/market_pri/nft_new_market1155pri.sol\":2373:2412  _ownerOf(_nftContractAddress, _tokenId) */\n      jump\t// in\n    tag_128:\n        /* \"NFT-Contracts/contracts/market_pri/nft_new_market1155pri.sol\":2351:2461  require(... */\n      tag_130\n      jumpi\n      mload(0x40)\n      0x08c379a000000000000000000000000000000000000000000000000000000000\n      dup2\n      mstore\n      0x04\n      add\n      tag_131\n      swap1\n      tag_91\n      jump\t// in\n    tag_131:\n      mload(0x40)\n      dup1\n      swap2\n      sub\n      swap1\n      revert\n    tag_130:\n        /* \"NFT-Contracts/contracts/market_pri/nft_new_market1155pri.sol\":3993:4012  _nftContractAddress */\n      dup8\n        /* \"NFT-Contracts/contracts/market_pri/nft_new_market1155pri.sol\":4014:4022  _tokenId */\n      dup7\n        /* \"NFT-Contracts/contracts/market_pri/nft_new_market1155pri.sol\":1957:1958  0 */\n      0x00\n        /* \"NFT-Contracts/contracts/market_pri/nft_new_market1155pri.sol\":1909:1922  nftSaleStatus */\n      0x01\n        /* \"NFT-Contracts/contracts/market_pri/nft_new_market1155pri.sol\":1909:1943  nftSaleStatus[_nftContractAddress] */\n      0x00\n        /* \"NFT-Contracts/contracts/market_pri/nft_new_market1155pri.sol\":1923:1942  _nftContractAddress */\n      dup5\n        /* \"NFT-Contracts/contracts/market_pri/nft_new_market1155pri.sol\":1909:1943  nftSaleStatus[_nftContractAddress] */\n      0xffffffffffffffffffffffffffffffffffffffff\n      and\n      0xffffffffffffffffffffffffffffffffffffffff\n      and\n      dup2\n      mstore\n      0x20\n      add\n      swap1\n      dup2\n      mstore\n      0x20\n      add\n      0x00\n      keccak256\n        /* \"NFT-Contracts/contracts/market_pri/nft_new_market1155pri.sol\":1909:1953  nftSaleStatus[_nftContractAddress][_tokenId] */\n      0x00\n        /* \"NFT-Contracts/contracts/market_pri/nft_new_market1155pri.sol\":1944:1952  _tokenId */\n      dup4\n        /* \"NFT-Contracts/contracts/market_pri/nft_new_market1155pri.sol\":1909:1953  nftSaleStatus[_nftContractAddress][_tokenId] */\n      dup2\n      mstore\n      0x20\n      add\n      swap1\n      dup2\n      mstore\n      0x20\n      add\n      0x00\n      keccak256\n      sload\n        /* \"NFT-Contracts/contracts/market_pri/nft_new_market1155pri.sol\":1909:1958  nftSaleStatus[_nftContractAddress][_tokenId] == 0 */\n      eq\n        /* \"NFT-Contracts/contracts/market_pri/nft_new_market1155pri.sol\":1887:2005  require(... */\n      tag_133\n      jumpi\n      mload(0x40)\n      0x08c379a000000000000000000000000000000000000000000000000000000000\n      dup2\n      mstore\n      0x04\n      add\n      tag_134\n      swap1\n      tag_135\n      jump\t// in\n    tag_134:\n      mload(0x40)\n      dup1\n      swap2\n      sub\n      swap1\n      revert\n    tag_133:\n        /* \"NFT-Contracts/contracts/market_pri/nft_new_market1155pri.sol\":4051:4070  _nftContractAddress */\n      dup10\n        /* \"NFT-Contracts/contracts/market_pri/nft_new_market1155pri.sol\":4072:4080  _tokenId */\n      dup9\n        /* \"NFT-Contracts/contracts/market_pri/nft_new_market1155pri.sol\":2882:2901  _nftContractAddress */\n      dup2\n        /* \"NFT-Contracts/contracts/market_pri/nft_new_market1155pri.sol\":2873:2919  IERC1155(_nftContractAddress).isApprovedForAll */\n      0xffffffffffffffffffffffffffffffffffffffff\n      and\n      0xe985e9c5\n        /* \"NFT-Contracts/contracts/market_pri/nft_new_market1155pri.sol\":2938:2948  msg.sender */\n      caller\n        /* \"NFT-Contracts/contracts/market_pri/nft_new_market1155pri.sol\":2975:2979  this */\n      address\n        /* \"NFT-Contracts/contracts/market_pri/nft_new_market1155pri.sol\":2873:2995  IERC1155(_nftContractAddress).isApprovedForAll(... */\n      mload(0x40)\n      dup4\n      0xffffffff\n      and\n      0xe0\n      shl\n      dup2\n      mstore\n      0x04\n      add\n      tag_137\n      swap3\n      swap2\n      swap1\n      tag_138\n      jump\t// in\n    tag_137:\n      0x20\n      mload(0x40)\n      dup1\n      dup4\n      sub\n      dup2\n      dup7\n      gas\n      staticcall\n      iszero\n      dup1\n      iszero\n      tag_140\n      jumpi\n      returndatasize\n      0x00\n      dup1\n      returndatacopy\n      revert(0x00, returndatasize)\n    tag_140:\n      pop\n      pop\n      pop\n      pop\n      mload(0x40)\n      returndatasize\n      not(0x1f)\n      0x1f\n      dup3\n      add\n      and\n      dup3\n      add\n      dup1\n      0x40\n      mstore\n      pop\n      dup2\n      add\n      swap1\n      tag_141\n      swap2\n      swap1\n      tag_83\n      jump\t// in\n    tag_141:\n        /* \"NFT-Contracts/contracts/market_pri/nft_new_market1155pri.sol\":2851:3051  require(... */\n      tag_142\n      jumpi\n      mload(0x40)\n      0x08c379a000000000000000000000000000000000000000000000000000000000\n      dup2\n      mstore\n      0x04\n      add\n      tag_143\n      swap1\n      tag_144\n      jump\t// in\n    tag_143:\n      mload(0x40)\n      dup1\n      swap2\n      sub\n      swap1\n      revert\n    tag_142:\n        /* \"NFT-Contracts/contracts/market_pri/nft_new_market1155pri.sol\":4112:4122  _salePrice */\n      dup8\n        /* \"NFT-Contracts/contracts/market_pri/nft_new_market1155pri.sol\":3609:3610  0 */\n      0x00\n        /* \"NFT-Contracts/contracts/market_pri/nft_new_market1155pri.sol\":3600:3606  _price */\n      dup2\n        /* \"NFT-Contracts/contracts/market_pri/nft_new_market1155pri.sol\":3600:3610  _price > 0 */\n      gt\n        /* \"NFT-Contracts/contracts/market_pri/nft_new_market1155pri.sol\":3592:3632  require(_price > 0, \"Price cannot be 0\") */\n      tag_146\n      jumpi\n      mload(0x40)\n      0x08c379a000000000000000000000000000000000000000000000000000000000\n      dup2\n      mstore\n      0x04\n      add\n      tag_147\n      swap1\n      tag_95\n      jump\t// in\n    tag_147:\n      mload(0x40)\n      dup1\n      swap2\n      sub\n      swap1\n      revert\n    tag_146:\n        /* \"NFT-Contracts/contracts/market_pri/nft_new_market1155pri.sol\":4194:4332  FixedSale(... */\n      mload(0x40)\n      dup1\n      0xa0\n      add\n      0x40\n      mstore\n      dup1\n        /* \"NFT-Contracts/contracts/market_pri/nft_new_market1155pri.sol\":4218:4228  msg.sender */\n      caller\n        /* \"NFT-Contracts/contracts/market_pri/nft_new_market1155pri.sol\":4194:4332  FixedSale(... */\n      0xffffffffffffffffffffffffffffffffffffffff\n      and\n      dup2\n      mstore\n      0x20\n      add\n        /* \"NFT-Contracts/contracts/market_pri/nft_new_market1155pri.sol\":4251:4252  0 */\n      0x00\n        /* \"NFT-Contracts/contracts/market_pri/nft_new_market1155pri.sol\":4194:4332  FixedSale(... */\n      0xffffffffffffffffffffffffffffffffffffffff\n      and\n      dup2\n      mstore\n      0x20\n      add\n        /* \"NFT-Contracts/contracts/market_pri/nft_new_market1155pri.sol\":4268:4274  _erc20 */\n      dup14\n        /* \"NFT-Contracts/contracts/market_pri/nft_new_market1155pri.sol\":4194:4332  FixedSale(... */\n      0xffffffffffffffffffffffffffffffffffffffff\n      and\n      dup2\n      mstore\n      0x20\n      add\n        /* \"NFT-Contracts/contracts/market_pri/nft_new_market1155pri.sol\":4289:4296  _amount */\n      dup12\n        /* \"NFT-Contracts/contracts/market_pri/nft_new_market1155pri.sol\":4194:4332  FixedSale(... */\n      dup2\n      mstore\n      0x20\n      add\n        /* \"NFT-Contracts/contracts/market_pri/nft_new_market1155pri.sol\":4311:4321  _salePrice */\n      dup11\n        /* \"NFT-Contracts/contracts/market_pri/nft_new_market1155pri.sol\":4194:4332  FixedSale(... */\n      dup2\n      mstore\n      pop\n        /* \"NFT-Contracts/contracts/market_pri/nft_new_market1155pri.sol\":4140:4160  nftContractFixedSale */\n      0x00\n        /* \"NFT-Contracts/contracts/market_pri/nft_new_market1155pri.sol\":4140:4181  nftContractFixedSale[_nftContractAddress] */\n      dup1\n        /* \"NFT-Contracts/contracts/market_pri/nft_new_market1155pri.sol\":4161:4180  _nftContractAddress */\n      dup16\n        /* \"NFT-Contracts/contracts/market_pri/nft_new_market1155pri.sol\":4140:4181  nftContractFixedSale[_nftContractAddress] */\n      0xffffffffffffffffffffffffffffffffffffffff\n      and\n      0xffffffffffffffffffffffffffffffffffffffff\n      and\n      dup2\n      mstore\n      0x20\n      add\n      swap1\n      dup2\n      mstore\n      0x20\n      add\n      0x00\n      keccak256\n        /* \"NFT-Contracts/contracts/market_pri/nft_new_market1155pri.sol\":4140:4191  nftContractFixedSale[_nftContractAddress][_tokenId] */\n      0x00\n        /* \"NFT-Contracts/contracts/market_pri/nft_new_market1155pri.sol\":4182:4190  _tokenId */\n      dup14\n        /* \"NFT-Contracts/contracts/market_pri/nft_new_market1155pri.sol\":4140:4191  nftContractFixedSale[_nftContractAddress][_tokenId] */\n      dup2\n      mstore\n      0x20\n      add\n      swap1\n      dup2\n      mstore\n      0x20\n      add\n      0x00\n      keccak256\n        /* \"NFT-Contracts/contracts/market_pri/nft_new_market1155pri.sol\":4140:4332  nftContractFixedSale[_nftContractAddress][_tokenId] = FixedSale(... */\n      0x00\n      dup3\n      add\n      mload\n      dup2\n      0x00\n      add\n      exp(0x0100, 0x00)\n      dup2\n      sload\n      dup2\n      0xffffffffffffffffffffffffffffffffffffffff\n      mul\n      not\n      and\n      swap1\n      dup4\n      0xffffffffffffffffffffffffffffffffffffffff\n      and\n      mul\n      or\n      swap1\n      sstore\n      pop\n      0x20\n      dup3\n      add\n      mload\n      dup2\n      0x01\n      add\n      exp(0x0100, 0x00)\n      dup2\n      sload\n      dup2\n      0xffffffffffffffffffffffffffffffffffffffff\n      mul\n      not\n      and\n      swap1\n      dup4\n      0xffffffffffffffffffffffffffffffffffffffff\n      and\n      mul\n      or\n      swap1\n      sstore\n      pop\n      0x40\n      dup3\n      add\n      mload\n      dup2\n      0x02\n      add\n      exp(0x0100, 0x00)\n      dup2\n      sload\n      dup2\n      0xffffffffffffffffffffffffffffffffffffffff\n      mul\n      not\n      and\n      swap1\n      dup4\n      0xffffffffffffffffffffffffffffffffffffffff\n      and\n      mul\n      or\n      swap1\n      sstore\n      pop\n      0x60\n      dup3\n      add\n      mload\n      dup2\n      0x03\n      add\n      sstore\n      0x80\n      dup3\n      add\n      mload\n      dup2\n      0x04\n      add\n      sstore\n      swap1\n      pop\n      pop\n        /* \"NFT-Contracts/contracts/market_pri/nft_new_market1155pri.sol\":4392:4393  1 */\n      0x01\n        /* \"NFT-Contracts/contracts/market_pri/nft_new_market1155pri.sol\":4345:4358  nftSaleStatus */\n      dup1\n        /* \"NFT-Contracts/contracts/market_pri/nft_new_market1155pri.sol\":4345:4379  nftSaleStatus[_nftContractAddress] */\n      0x00\n        /* \"NFT-Contracts/contracts/market_pri/nft_new_market1155pri.sol\":4359:4378  _nftContractAddress */\n      dup16\n        /* \"NFT-Contracts/contracts/market_pri/nft_new_market1155pri.sol\":4345:4379  nftSaleStatus[_nftContractAddress] */\n      0xffffffffffffffffffffffffffffffffffffffff\n      and\n      0xffffffffffffffffffffffffffffffffffffffff\n      and\n      dup2\n      mstore\n      0x20\n      add\n      swap1\n      dup2\n      mstore\n      0x20\n      add\n      0x00\n      keccak256\n        /* \"NFT-Contracts/contracts/market_pri/nft_new_market1155pri.sol\":4345:4389  nftSaleStatus[_nftContractAddress][_tokenId] */\n      0x00\n        /* \"NFT-Contracts/contracts/market_pri/nft_new_market1155pri.sol\":4380:4388  _tokenId */\n      dup14\n        /* \"NFT-Contracts/contracts/market_pri/nft_new_market1155pri.sol\":4345:4389  nftSaleStatus[_nftContractAddress][_tokenId] */\n      dup2\n      mstore\n      0x20\n      add\n      swap1\n      dup2\n      mstore\n      0x20\n      add\n      0x00\n      keccak256\n        /* \"NFT-Contracts/contracts/market_pri/nft_new_market1155pri.sol\":4345:4393  nftSaleStatus[_nftContractAddress][_tokenId] = 1 */\n      dup2\n      swap1\n      sstore\n      pop\n        /* \"NFT-Contracts/contracts/market_pri/nft_new_market1155pri.sol\":4457:4469  fixedSaleNFT */\n      0x03\n        /* \"NFT-Contracts/contracts/market_pri/nft_new_market1155pri.sol\":4457:4476  fixedSaleNFT.length */\n      dup1\n      sload\n      swap1\n      pop\n        /* \"NFT-Contracts/contracts/market_pri/nft_new_market1155pri.sol\":4406:4423  indexFixedSaleNFT */\n      0x02\n        /* \"NFT-Contracts/contracts/market_pri/nft_new_market1155pri.sol\":4406:4444  indexFixedSaleNFT[_nftContractAddress] */\n      0x00\n        /* \"NFT-Contracts/contracts/market_pri/nft_new_market1155pri.sol\":4424:4443  _nftContractAddress */\n      dup16\n        /* \"NFT-Contracts/contracts/market_pri/nft_new_market1155pri.sol\":4406:4444  indexFixedSaleNFT[_nftContractAddress] */\n      0xffffffffffffffffffffffffffffffffffffffff\n      and\n      0xffffffffffffffffffffffffffffffffffffffff\n      and\n      dup2\n      mstore\n      0x20\n      add\n      swap1\n      dup2\n      mstore\n      0x20\n      add\n      0x00\n      keccak256\n        /* \"NFT-Contracts/contracts/market_pri/nft_new_market1155pri.sol\":4406:4454  indexFixedSaleNFT[_nftContractAddress][_tokenId] */\n      0x00\n        /* \"NFT-Contracts/contracts/market_pri/nft_new_market1155pri.sol\":4445:4453  _tokenId */\n      dup14\n        /* \"NFT-Contracts/contracts/market_pri/nft_new_market1155pri.sol\":4406:4454  indexFixedSaleNFT[_nftContractAddress][_tokenId] */\n      dup2\n      mstore\n      0x20\n      add\n      swap1\n      dup2\n      mstore\n      0x20\n      add\n      0x00\n      keccak256\n        /* \"NFT-Contracts/contracts/market_pri/nft_new_market1155pri.sol\":4406:4476  indexFixedSaleNFT[_nftContractAddress][_tokenId] = fixedSaleNFT.length */\n      dup2\n      swap1\n      sstore\n      pop\n        /* \"NFT-Contracts/contracts/market_pri/nft_new_market1155pri.sol\":4487:4499  fixedSaleNFT */\n      0x03\n        /* \"NFT-Contracts/contracts/market_pri/nft_new_market1155pri.sol\":4505:4544  SaleInfo(_nftContractAddress, _tokenId) */\n      mload(0x40)\n      dup1\n      0x40\n      add\n      0x40\n      mstore\n      dup1\n        /* \"NFT-Contracts/contracts/market_pri/nft_new_market1155pri.sol\":4514:4533  _nftContractAddress */\n      dup16\n        /* \"NFT-Contracts/contracts/market_pri/nft_new_market1155pri.sol\":4505:4544  SaleInfo(_nftContractAddress, _tokenId) */\n      0xffffffffffffffffffffffffffffffffffffffff\n      and\n      dup2\n      mstore\n      0x20\n      add\n        /* \"NFT-Contracts/contracts/market_pri/nft_new_market1155pri.sol\":4535:4543  _tokenId */\n      dup14\n        /* \"NFT-Contracts/contracts/market_pri/nft_new_market1155pri.sol\":4505:4544  SaleInfo(_nftContractAddress, _tokenId) */\n      dup2\n      mstore\n      pop\n        /* \"NFT-Contracts/contracts/market_pri/nft_new_market1155pri.sol\":4487:4545  fixedSaleNFT.push(SaleInfo(_nftContractAddress, _tokenId)) */\n      swap1\n      dup1\n      0x01\n      dup2\n      sload\n      add\n      dup1\n      dup3\n      sstore\n      dup1\n      swap2\n      pop\n      pop\n      0x01\n      swap1\n      sub\n      swap1\n      0x00\n      mstore\n      keccak256(0x00, 0x20)\n      swap1\n      0x02\n      mul\n      add\n      0x00\n      swap1\n      swap2\n      swap1\n      swap2\n      swap1\n      swap2\n      pop\n      0x00\n      dup3\n      add\n      mload\n      dup2\n      0x00\n      add\n      exp(0x0100, 0x00)\n      dup2\n      sload\n      dup2\n      0xffffffffffffffffffffffffffffffffffffffff\n      mul\n      not\n      and\n      swap1\n      dup4\n      0xffffffffffffffffffffffffffffffffffffffff\n      and\n      mul\n      or\n      swap1\n      sstore\n      pop\n      0x20\n      dup3\n      add\n      mload\n      dup2\n      0x01\n      add\n      sstore\n      pop\n      pop\n        /* \"NFT-Contracts/contracts/market_pri/nft_new_market1155pri.sol\":4567:4586  _nftContractAddress */\n      dup13\n        /* \"NFT-Contracts/contracts/market_pri/nft_new_market1155pri.sol\":4558:4604  IERC1155(_nftContractAddress).safeTransferFrom */\n      0xffffffffffffffffffffffffffffffffffffffff\n      and\n      0xf242432a\n        /* \"NFT-Contracts/contracts/market_pri/nft_new_market1155pri.sol\":4619:4629  msg.sender */\n      caller\n        /* \"NFT-Contracts/contracts/market_pri/nft_new_market1155pri.sol\":4652:4656  this */\n      address\n        /* \"NFT-Contracts/contracts/market_pri/nft_new_market1155pri.sol\":4672:4680  _tokenId */\n      dup15\n        /* \"NFT-Contracts/contracts/market_pri/nft_new_market1155pri.sol\":4695:4702  _amount */\n      dup15\n        /* \"NFT-Contracts/contracts/market_pri/nft_new_market1155pri.sol\":4717:4722  _data */\n      dup14\n        /* \"NFT-Contracts/contracts/market_pri/nft_new_market1155pri.sol\":4558:4733  IERC1155(_nftContractAddress).safeTransferFrom(... */\n      mload(0x40)\n      dup7\n      0xffffffff\n      and\n      0xe0\n      shl\n      dup2\n      mstore\n      0x04\n      add\n      tag_150\n      swap6\n      swap5\n      swap4\n      swap3\n      swap2\n      swap1\n      tag_117\n      jump\t// in\n    tag_150:\n      0x00\n      mload(0x40)\n      dup1\n      dup4\n      sub\n      dup2\n      0x00\n      dup8\n      dup1\n      extcodesize\n      iszero\n      dup1\n      iszero\n      tag_151\n      jumpi\n      0x00\n      dup1\n      revert\n    tag_151:\n      pop\n      gas\n      call\n      iszero\n      dup1\n      iszero\n      tag_153\n      jumpi\n      returndatasize\n      0x00\n      dup1\n      returndatacopy\n      revert(0x00, returndatasize)\n    tag_153:\n      pop\n      pop\n      pop\n      pop\n        /* \"NFT-Contracts/contracts/market_pri/nft_new_market1155pri.sol\":4751:4954  NftFixedSale(... */\n      0x938b2f79c6d40413c38c16569ce7d13d8fb10b1b1f5d6f4b6448aeb9d7b189f3\n        /* \"NFT-Contracts/contracts/market_pri/nft_new_market1155pri.sol\":4778:4797  _nftContractAddress */\n      dup14\n        /* \"NFT-Contracts/contracts/market_pri/nft_new_market1155pri.sol\":4812:4822  msg.sender */\n      caller\n        /* \"NFT-Contracts/contracts/market_pri/nft_new_market1155pri.sol\":4837:4843  _erc20 */\n      dup15\n        /* \"NFT-Contracts/contracts/market_pri/nft_new_market1155pri.sol\":4858:4866  _tokenId */\n      dup15\n        /* \"NFT-Contracts/contracts/market_pri/nft_new_market1155pri.sol\":4881:4888  _amount */\n      dup15\n        /* \"NFT-Contracts/contracts/market_pri/nft_new_market1155pri.sol\":4903:4913  _salePrice */\n      dup15\n        /* \"NFT-Contracts/contracts/market_pri/nft_new_market1155pri.sol\":4928:4943  block.timestamp */\n      timestamp\n        /* \"NFT-Contracts/contracts/market_pri/nft_new_market1155pri.sol\":4751:4954  NftFixedSale(... */\n      mload(0x40)\n      tag_154\n      swap8\n      swap7\n      swap6\n      swap5\n      swap4\n      swap3\n      swap2\n      swap1\n      tag_155\n      jump\t// in\n    tag_154:\n      mload(0x40)\n      dup1\n      swap2\n      sub\n      swap1\n      log1\n        /* \"NFT-Contracts/contracts/market_pri/nft_new_market1155pri.sol\":3062:3063  _ */\n      pop\n        /* \"NFT-Contracts/contracts/market_pri/nft_new_market1155pri.sol\":2016:2017  _ */\n      pop\n      pop\n        /* \"NFT-Contracts/contracts/market_pri/nft_new_market1155pri.sol\":2472:2473  _ */\n      pop\n      pop\n        /* \"NFT-Contracts/contracts/market_pri/nft_new_market1155pri.sol\":3685:4962  function nftFixedSale(... */\n      pop\n      pop\n      pop\n      pop\n      pop\n      pop\n      pop\n      pop\n      jump\t// out\n        /* \"NFT-Contracts/contracts/market_pri/nft_new_market1155pri.sol\":4970:5679  function cancelFixedsale(... */\n    tag_49:\n        /* \"NFT-Contracts/contracts/market_pri/nft_new_market1155pri.sol\":5166:5185  _nftContractAddress */\n      dup4\n        /* \"NFT-Contracts/contracts/market_pri/nft_new_market1155pri.sol\":5187:5195  _tokenId */\n      dup4\n        /* \"NFT-Contracts/contracts/market_pri/nft_new_market1155pri.sol\":2187:2188  1 */\n      0x01\n        /* \"NFT-Contracts/contracts/market_pri/nft_new_market1155pri.sol\":2139:2152  nftSaleStatus */\n      dup1\n        /* \"NFT-Contracts/contracts/market_pri/nft_new_market1155pri.sol\":2139:2173  nftSaleStatus[_nftContractAddress] */\n      0x00\n        /* \"NFT-Contracts/contracts/market_pri/nft_new_market1155pri.sol\":2153:2172  _nftContractAddress */\n      dup5\n        /* \"NFT-Contracts/contracts/market_pri/nft_new_market1155pri.sol\":2139:2173  nftSaleStatus[_nftContractAddress] */\n      0xffffffffffffffffffffffffffffffffffffffff\n      and\n      0xffffffffffffffffffffffffffffffffffffffff\n      and\n      dup2\n      mstore\n      0x20\n      add\n      swap1\n      dup2\n      mstore\n      0x20\n      add\n      0x00\n      keccak256\n        /* \"NFT-Contracts/contracts/market_pri/nft_new_market1155pri.sol\":2139:2183  nftSaleStatus[_nftContractAddress][_tokenId] */\n      0x00\n        /* \"NFT-Contracts/contracts/market_pri/nft_new_market1155pri.sol\":2174:2182  _tokenId */\n      dup4\n        /* \"NFT-Contracts/contracts/market_pri/nft_new_market1155pri.sol\":2139:2183  nftSaleStatus[_nftContractAddress][_tokenId] */\n      dup2\n      mstore\n      0x20\n      add\n      swap1\n      dup2\n      mstore\n      0x20\n      add\n      0x00\n      keccak256\n      sload\n        /* \"NFT-Contracts/contracts/market_pri/nft_new_market1155pri.sol\":2139:2188  nftSaleStatus[_nftContractAddress][_tokenId] == 1 */\n      eq\n        /* \"NFT-Contracts/contracts/market_pri/nft_new_market1155pri.sol\":2117:2237  require(... */\n      tag_157\n      jumpi\n      mload(0x40)\n      0x08c379a000000000000000000000000000000000000000000000000000000000\n      dup2\n      mstore\n      0x04\n      add\n      tag_158\n      swap1\n      tag_87\n      jump\t// in\n    tag_158:\n      mload(0x40)\n      dup1\n      swap2\n      sub\n      swap1\n      revert\n    tag_157:\n        /* \"NFT-Contracts/contracts/market_pri/nft_new_market1155pri.sol\":5225:5244  _nftContractAddress */\n      dup6\n        /* \"NFT-Contracts/contracts/market_pri/nft_new_market1155pri.sol\":5246:5254  _tokenId */\n      dup6\n        /* \"NFT-Contracts/contracts/market_pri/nft_new_market1155pri.sol\":2628:2648  nftContractFixedSale */\n      0x00\n        /* \"NFT-Contracts/contracts/market_pri/nft_new_market1155pri.sol\":2628:2669  nftContractFixedSale[_nftContractAddress] */\n      dup1\n        /* \"NFT-Contracts/contracts/market_pri/nft_new_market1155pri.sol\":2649:2668  _nftContractAddress */\n      dup4\n        /* \"NFT-Contracts/contracts/market_pri/nft_new_market1155pri.sol\":2628:2669  nftContractFixedSale[_nftContractAddress] */\n      0xffffffffffffffffffffffffffffffffffffffff\n      and\n      0xffffffffffffffffffffffffffffffffffffffff\n      and\n      dup2\n      mstore\n      0x20\n      add\n      swap1\n      dup2\n      mstore\n      0x20\n      add\n      0x00\n      keccak256\n        /* \"NFT-Contracts/contracts/market_pri/nft_new_market1155pri.sol\":2628:2679  nftContractFixedSale[_nftContractAddress][_tokenId] */\n      0x00\n        /* \"NFT-Contracts/contracts/market_pri/nft_new_market1155pri.sol\":2670:2678  _tokenId */\n      dup3\n        /* \"NFT-Contracts/contracts/market_pri/nft_new_market1155pri.sol\":2628:2679  nftContractFixedSale[_nftContractAddress][_tokenId] */\n      dup2\n      mstore\n      0x20\n      add\n      swap1\n      dup2\n      mstore\n      0x20\n      add\n      0x00\n      keccak256\n        /* \"NFT-Contracts/contracts/market_pri/nft_new_market1155pri.sol\":2628:2689  nftContractFixedSale[_nftContractAddress][_tokenId].nftSeller */\n      0x00\n      add\n      0x00\n      swap1\n      sload\n      swap1\n      0x0100\n      exp\n      swap1\n      div\n      0xffffffffffffffffffffffffffffffffffffffff\n      and\n        /* \"NFT-Contracts/contracts/market_pri/nft_new_market1155pri.sol\":2597:2689  msg.sender ==... */\n      0xffffffffffffffffffffffffffffffffffffffff\n      and\n        /* \"NFT-Contracts/contracts/market_pri/nft_new_market1155pri.sol\":2597:2607  msg.sender */\n      caller\n        /* \"NFT-Contracts/contracts/market_pri/nft_new_market1155pri.sol\":2597:2689  msg.sender ==... */\n      0xffffffffffffffffffffffffffffffffffffffff\n      and\n      eq\n        /* \"NFT-Contracts/contracts/market_pri/nft_new_market1155pri.sol\":2575:2738  require(... */\n      tag_160\n      jumpi\n      mload(0x40)\n      0x08c379a000000000000000000000000000000000000000000000000000000000\n      dup2\n      mstore\n      0x04\n      add\n      tag_161\n      swap1\n      tag_91\n      jump\t// in\n    tag_161:\n      mload(0x40)\n      dup1\n      swap2\n      sub\n      swap1\n      revert\n    tag_160:\n        /* \"NFT-Contracts/contracts/market_pri/nft_new_market1155pri.sol\":5281:5300  _nftContractAddress */\n      dup8\n        /* \"NFT-Contracts/contracts/market_pri/nft_new_market1155pri.sol\":5272:5318  IERC1155(_nftContractAddress).safeTransferFrom */\n      0xffffffffffffffffffffffffffffffffffffffff\n      and\n      0xf242432a\n        /* \"NFT-Contracts/contracts/market_pri/nft_new_market1155pri.sol\":5333:5343  msg.sender */\n      caller\n        /* \"NFT-Contracts/contracts/market_pri/nft_new_market1155pri.sol\":5366:5370  this */\n      address\n        /* \"NFT-Contracts/contracts/market_pri/nft_new_market1155pri.sol\":5386:5394  _tokenId */\n      dup11\n        /* \"NFT-Contracts/contracts/market_pri/nft_new_market1155pri.sol\":5409:5416  _amount */\n      dup11\n        /* \"NFT-Contracts/contracts/market_pri/nft_new_market1155pri.sol\":5431:5436  _data */\n      dup11\n        /* \"NFT-Contracts/contracts/market_pri/nft_new_market1155pri.sol\":5272:5447  IERC1155(_nftContractAddress).safeTransferFrom(... */\n      mload(0x40)\n      dup7\n      0xffffffff\n      and\n      0xe0\n      shl\n      dup2\n      mstore\n      0x04\n      add\n      tag_163\n      swap6\n      swap5\n      swap4\n      swap3\n      swap2\n      swap1\n      tag_117\n      jump\t// in\n    tag_163:\n      0x00\n      mload(0x40)\n      dup1\n      dup4\n      sub\n      dup2\n      0x00\n      dup8\n      dup1\n      extcodesize\n      iszero\n      dup1\n      iszero\n      tag_164\n      jumpi\n      0x00\n      dup1\n      revert\n    tag_164:\n      pop\n      gas\n      call\n      iszero\n      dup1\n      iszero\n      tag_166\n      jumpi\n      returndatasize\n      0x00\n      dup1\n      returndatacopy\n      revert(0x00, returndatasize)\n    tag_166:\n      pop\n      pop\n      pop\n      pop\n        /* \"NFT-Contracts/contracts/market_pri/nft_new_market1155pri.sol\":5507:5508  0 */\n      0x00\n        /* \"NFT-Contracts/contracts/market_pri/nft_new_market1155pri.sol\":5460:5473  nftSaleStatus */\n      0x01\n        /* \"NFT-Contracts/contracts/market_pri/nft_new_market1155pri.sol\":5460:5494  nftSaleStatus[_nftContractAddress] */\n      0x00\n        /* \"NFT-Contracts/contracts/market_pri/nft_new_market1155pri.sol\":5474:5493  _nftContractAddress */\n      dup11\n        /* \"NFT-Contracts/contracts/market_pri/nft_new_market1155pri.sol\":5460:5494  nftSaleStatus[_nftContractAddress] */\n      0xffffffffffffffffffffffffffffffffffffffff\n      and\n      0xffffffffffffffffffffffffffffffffffffffff\n      and\n      dup2\n      mstore\n      0x20\n      add\n      swap1\n      dup2\n      mstore\n      0x20\n      add\n      0x00\n      keccak256\n        /* \"NFT-Contracts/contracts/market_pri/nft_new_market1155pri.sol\":5460:5504  nftSaleStatus[_nftContractAddress][_tokenId] */\n      0x00\n        /* \"NFT-Contracts/contracts/market_pri/nft_new_market1155pri.sol\":5495:5503  _tokenId */\n      dup10\n        /* \"NFT-Contracts/contracts/market_pri/nft_new_market1155pri.sol\":5460:5504  nftSaleStatus[_nftContractAddress][_tokenId] */\n      dup2\n      mstore\n      0x20\n      add\n      swap1\n      dup2\n      mstore\n      0x20\n      add\n      0x00\n      keccak256\n        /* \"NFT-Contracts/contracts/market_pri/nft_new_market1155pri.sol\":5460:5508  nftSaleStatus[_nftContractAddress][_tokenId] = 0 */\n      dup2\n      swap1\n      sstore\n      pop\n        /* \"NFT-Contracts/contracts/market_pri/nft_new_market1155pri.sol\":5528:5540  fixedSaleNFT */\n      0x03\n        /* \"NFT-Contracts/contracts/market_pri/nft_new_market1155pri.sol\":5542:5559  indexFixedSaleNFT */\n      0x02\n        /* \"NFT-Contracts/contracts/market_pri/nft_new_market1155pri.sol\":5542:5580  indexFixedSaleNFT[_nftContractAddress] */\n      0x00\n        /* \"NFT-Contracts/contracts/market_pri/nft_new_market1155pri.sol\":5560:5579  _nftContractAddress */\n      dup11\n        /* \"NFT-Contracts/contracts/market_pri/nft_new_market1155pri.sol\":5542:5580  indexFixedSaleNFT[_nftContractAddress] */\n      0xffffffffffffffffffffffffffffffffffffffff\n      and\n      0xffffffffffffffffffffffffffffffffffffffff\n      and\n      dup2\n      mstore\n      0x20\n      add\n      swap1\n      dup2\n      mstore\n      0x20\n      add\n      0x00\n      keccak256\n        /* \"NFT-Contracts/contracts/market_pri/nft_new_market1155pri.sol\":5542:5590  indexFixedSaleNFT[_nftContractAddress][_tokenId] */\n      0x00\n        /* \"NFT-Contracts/contracts/market_pri/nft_new_market1155pri.sol\":5581:5589  _tokenId */\n      dup10\n        /* \"NFT-Contracts/contracts/market_pri/nft_new_market1155pri.sol\":5542:5590  indexFixedSaleNFT[_nftContractAddress][_tokenId] */\n      dup2\n      mstore\n      0x20\n      add\n      swap1\n      dup2\n      mstore\n      0x20\n      add\n      0x00\n      keccak256\n      sload\n        /* \"NFT-Contracts/contracts/market_pri/nft_new_market1155pri.sol\":5528:5592  fixedSaleNFT[(indexFixedSaleNFT[_nftContractAddress][_tokenId])] */\n      dup2\n      sload\n      dup2\n      lt\n      tag_167\n      jumpi\n      tag_168\n      tag_169\n      jump\t// in\n    tag_168:\n    tag_167:\n      swap1\n      0x00\n      mstore\n      keccak256(0x00, 0x20)\n      swap1\n      0x02\n      mul\n      add\n      0x00\n        /* \"NFT-Contracts/contracts/market_pri/nft_new_market1155pri.sol\":5521:5592  delete fixedSaleNFT[(indexFixedSaleNFT[_nftContractAddress][_tokenId])] */\n      dup1\n      dup3\n      add\n      exp(0x0100, 0x00)\n      dup2\n      sload\n      swap1\n      0xffffffffffffffffffffffffffffffffffffffff\n      mul\n      not\n      and\n      swap1\n      sstore\n      0x01\n      dup3\n      add\n      0x00\n      swap1\n      sstore\n      pop\n      pop\n        /* \"NFT-Contracts/contracts/market_pri/nft_new_market1155pri.sol\":5610:5671  CancelNftFixedSale(_nftContractAddress, msg.sender, _tokenId) */\n      0xd7348ff00cf381a884144b50b3441398a48a7974ec349287df80e18cec9f5a31\n        /* \"NFT-Contracts/contracts/market_pri/nft_new_market1155pri.sol\":5629:5648  _nftContractAddress */\n      dup9\n        /* \"NFT-Contracts/contracts/market_pri/nft_new_market1155pri.sol\":5650:5660  msg.sender */\n      caller\n        /* \"NFT-Contracts/contracts/market_pri/nft_new_market1155pri.sol\":5662:5670  _tokenId */\n      dup10\n        /* \"NFT-Contracts/contracts/market_pri/nft_new_market1155pri.sol\":5610:5671  CancelNftFixedSale(_nftContractAddress, msg.sender, _tokenId) */\n      mload(0x40)\n      tag_171\n      swap4\n      swap3\n      swap2\n      swap1\n      tag_172\n      jump\t// in\n    tag_171:\n      mload(0x40)\n      dup1\n      swap2\n      sub\n      swap1\n      log1\n        /* \"NFT-Contracts/contracts/market_pri/nft_new_market1155pri.sol\":2248:2249  _ */\n      pop\n      pop\n        /* \"NFT-Contracts/contracts/market_pri/nft_new_market1155pri.sol\":4970:5679  function cancelFixedsale(... */\n      pop\n      pop\n      pop\n      pop\n      pop\n      pop\n      jump\t// out\n        /* \"NFT-Contracts/contracts/market_pri/nft_new_market1155pri.sol\":7877:8096  function getFixedSale(address _nftContractAddress, uint256 _tokenId)... */\n    tag_53:\n        /* \"NFT-Contracts/contracts/market_pri/nft_new_market1155pri.sol\":7996:8012  FixedSale memory */\n      tag_173\n      tag_174\n      jump\t// in\n    tag_173:\n        /* \"NFT-Contracts/contracts/market_pri/nft_new_market1155pri.sol\":8037:8057  nftContractFixedSale */\n      0x00\n        /* \"NFT-Contracts/contracts/market_pri/nft_new_market1155pri.sol\":8037:8078  nftContractFixedSale[_nftContractAddress] */\n      dup1\n        /* \"NFT-Contracts/contracts/market_pri/nft_new_market1155pri.sol\":8058:8077  _nftContractAddress */\n      dup5\n        /* \"NFT-Contracts/contracts/market_pri/nft_new_market1155pri.sol\":8037:8078  nftContractFixedSale[_nftContractAddress] */\n      0xffffffffffffffffffffffffffffffffffffffff\n      and\n      0xffffffffffffffffffffffffffffffffffffffff\n      and\n      dup2\n      mstore\n      0x20\n      add\n      swap1\n      dup2\n      mstore\n      0x20\n      add\n      0x00\n      keccak256\n        /* \"NFT-Contracts/contracts/market_pri/nft_new_market1155pri.sol\":8037:8088  nftContractFixedSale[_nftContractAddress][_tokenId] */\n      0x00\n        /* \"NFT-Contracts/contracts/market_pri/nft_new_market1155pri.sol\":8079:8087  _tokenId */\n      dup4\n        /* \"NFT-Contracts/contracts/market_pri/nft_new_market1155pri.sol\":8037:8088  nftContractFixedSale[_nftContractAddress][_tokenId] */\n      dup2\n      mstore\n      0x20\n      add\n      swap1\n      dup2\n      mstore\n      0x20\n      add\n      0x00\n      keccak256\n        /* \"NFT-Contracts/contracts/market_pri/nft_new_market1155pri.sol\":8030:8088  return nftContractFixedSale[_nftContractAddress][_tokenId] */\n      mload(0x40)\n      dup1\n      0xa0\n      add\n      0x40\n      mstore\n      swap1\n      dup2\n      0x00\n      dup3\n      add\n      0x00\n      swap1\n      sload\n      swap1\n      0x0100\n      exp\n      swap1\n      div\n      0xffffffffffffffffffffffffffffffffffffffff\n      and\n      0xffffffffffffffffffffffffffffffffffffffff\n      and\n      0xffffffffffffffffffffffffffffffffffffffff\n      and\n      dup2\n      mstore\n      0x20\n      add\n      0x01\n      dup3\n      add\n      0x00\n      swap1\n      sload\n      swap1\n      0x0100\n      exp\n      swap1\n      div\n      0xffffffffffffffffffffffffffffffffffffffff\n      and\n      0xffffffffffffffffffffffffffffffffffffffff\n      and\n      0xffffffffffffffffffffffffffffffffffffffff\n      and\n      dup2\n      mstore\n      0x20\n      add\n      0x02\n      dup3\n      add\n      0x00\n      swap1\n      sload\n      swap1\n      0x0100\n      exp\n      swap1\n      div\n      0xffffffffffffffffffffffffffffffffffffffff\n      and\n      0xffffffffffffffffffffffffffffffffffffffff\n      and\n      0xffffffffffffffffffffffffffffffffffffffff\n      and\n      dup2\n      mstore\n      0x20\n      add\n      0x03\n      dup3\n      add\n      sload\n      dup2\n      mstore\n      0x20\n      add\n      0x04\n      dup3\n      add\n      sload\n      dup2\n      mstore\n      pop\n      pop\n      swap1\n      pop\n        /* \"NFT-Contracts/contracts/market_pri/nft_new_market1155pri.sol\":7877:8096  function getFixedSale(address _nftContractAddress, uint256 _tokenId)... */\n      swap3\n      swap2\n      pop\n      pop\n      jump\t// out\n        /* \"NFT-Contracts/contracts/market_pri/nft_new_market1155pri.sol\":1005:1069  bytes4 public constant IID_IERC1155 = type(IERC1155).interfaceId */\n    tag_58:\n        /* \"NFT-Contracts/contracts/market_pri/nft_new_market1155pri.sol\":1043:1069  type(IERC1155).interfaceId */\n      0xd9b67a2600000000000000000000000000000000000000000000000000000000\n        /* \"NFT-Contracts/contracts/market_pri/nft_new_market1155pri.sol\":1005:1069  bytes4 public constant IID_IERC1155 = type(IERC1155).interfaceId */\n      dup2\n      jump\t// out\n        /* \"NFT-Contracts/contracts/market_pri/nft_new_market1155pri.sol\":7762:7869  function getFixedSaleNFT() external view returns (SaleInfo[] memory) {... */\n    tag_63:\n        /* \"NFT-Contracts/contracts/market_pri/nft_new_market1155pri.sol\":7812:7829  SaleInfo[] memory */\n      0x60\n        /* \"NFT-Contracts/contracts/market_pri/nft_new_market1155pri.sol\":7849:7861  fixedSaleNFT */\n      0x03\n        /* \"NFT-Contracts/contracts/market_pri/nft_new_market1155pri.sol\":7842:7861  return fixedSaleNFT */\n      dup1\n      sload\n      dup1\n      0x20\n      mul\n      0x20\n      add\n      mload(0x40)\n      swap1\n      dup2\n      add\n      0x40\n      mstore\n      dup1\n      swap3\n      swap2\n      swap1\n      dup2\n      dup2\n      mstore\n      0x20\n      add\n      0x00\n      swap1\n    tag_177:\n      dup3\n      dup3\n      lt\n      iszero\n      tag_178\n      jumpi\n      dup4\n      dup3\n      swap1\n      0x00\n      mstore\n      keccak256(0x00, 0x20)\n      swap1\n      0x02\n      mul\n      add\n      mload(0x40)\n      dup1\n      0x40\n      add\n      0x40\n      mstore\n      swap1\n      dup2\n      0x00\n      dup3\n      add\n      0x00\n      swap1\n      sload\n      swap1\n      0x0100\n      exp\n      swap1\n      div\n      0xffffffffffffffffffffffffffffffffffffffff\n      and\n      0xffffffffffffffffffffffffffffffffffffffff\n      and\n      0xffffffffffffffffffffffffffffffffffffffff\n      and\n      dup2\n      mstore\n      0x20\n      add\n      0x01\n      dup3\n      add\n      sload\n      dup2\n      mstore\n      pop\n      pop\n      dup2\n      mstore\n      0x20\n      add\n      swap1\n      0x01\n      add\n      swap1\n      jump(tag_177)\n    tag_178:\n      pop\n      pop\n      pop\n      pop\n      swap1\n      pop\n        /* \"NFT-Contracts/contracts/market_pri/nft_new_market1155pri.sol\":7762:7869  function getFixedSaleNFT() external view returns (SaleInfo[] memory) {... */\n      swap1\n      jump\t// out\n        /* \"NFT-Contracts/contracts/market_pri/nft_new_market1155pri.sol\":8343:8603  function onERC1155BatchReceived(... */\n    tag_70:\n        /* \"NFT-Contracts/contracts/market_pri/nft_new_market1155pri.sol\":8559:8565  bytes4 */\n      0x00\n        /* \"NFT-Contracts/contracts/market_pri/nft_new_market1155pri.sol\":8585:8595  0xbc197c81 */\n      0xbc197c81\n        /* \"NFT-Contracts/contracts/market_pri/nft_new_market1155pri.sol\":8578:8595  return 0xbc197c81 */\n      0xe0\n      shl\n      swap1\n      pop\n        /* \"NFT-Contracts/contracts/market_pri/nft_new_market1155pri.sol\":8343:8603  function onERC1155BatchReceived(... */\n      swap9\n      swap8\n      pop\n      pop\n      pop\n      pop\n      pop\n      pop\n      pop\n      pop\n      jump\t// out\n        /* \"NFT-Contracts/contracts/market_pri/nft_new_market1155pri.sol\":8104:8335  function onERC1155Received(... */\n    tag_76:\n        /* \"NFT-Contracts/contracts/market_pri/nft_new_market1155pri.sol\":8291:8297  bytes4 */\n      0x00\n        /* \"NFT-Contracts/contracts/market_pri/nft_new_market1155pri.sol\":8317:8327  0xf23a6e61 */\n      0xf23a6e61\n        /* \"NFT-Contracts/contracts/market_pri/nft_new_market1155pri.sol\":8310:8327  return 0xf23a6e61 */\n      0xe0\n      shl\n      swap1\n      pop\n        /* \"NFT-Contracts/contracts/market_pri/nft_new_market1155pri.sol\":8104:8335  function onERC1155Received(... */\n      swap7\n      swap6\n      pop\n      pop\n      pop\n      pop\n      pop\n      pop\n      jump\t// out\n        /* \"NFT-Contracts/contracts/market_pri/nft_new_market1155pri.sol\":9454:10328  function _checkFixedSale(... */\n    tag_122:\n        /* \"NFT-Contracts/contracts/market_pri/nft_new_market1155pri.sol\":9693:9703  _nftAmount */\n      dup1\n        /* \"NFT-Contracts/contracts/market_pri/nft_new_market1155pri.sol\":9618:9638  nftContractFixedSale */\n      0x00\n        /* \"NFT-Contracts/contracts/market_pri/nft_new_market1155pri.sol\":9618:9659  nftContractFixedSale[_nftContractAddress] */\n      dup1\n        /* \"NFT-Contracts/contracts/market_pri/nft_new_market1155pri.sol\":9639:9658  _nftContractAddress */\n      dup6\n        /* \"NFT-Contracts/contracts/market_pri/nft_new_market1155pri.sol\":9618:9659  nftContractFixedSale[_nftContractAddress] */\n      0xffffffffffffffffffffffffffffffffffffffff\n      and\n      0xffffffffffffffffffffffffffffffffffffffff\n      and\n      dup2\n      mstore\n      0x20\n      add\n      swap1\n      dup2\n      mstore\n      0x20\n      add\n      0x00\n      keccak256\n        /* \"NFT-Contracts/contracts/market_pri/nft_new_market1155pri.sol\":9618:9669  nftContractFixedSale[_nftContractAddress][_tokenId] */\n      0x00\n        /* \"NFT-Contracts/contracts/market_pri/nft_new_market1155pri.sol\":9660:9668  _tokenId */\n      dup5\n        /* \"NFT-Contracts/contracts/market_pri/nft_new_market1155pri.sol\":9618:9669  nftContractFixedSale[_nftContractAddress][_tokenId] */\n      dup2\n      mstore\n      0x20\n      add\n      swap1\n      dup2\n      mstore\n      0x20\n      add\n      0x00\n      keccak256\n        /* \"NFT-Contracts/contracts/market_pri/nft_new_market1155pri.sol\":9618:9676  nftContractFixedSale[_nftContractAddress][_tokenId].amount */\n      0x03\n      add\n      sload\n        /* \"NFT-Contracts/contracts/market_pri/nft_new_market1155pri.sol\":9618:9703  nftContractFixedSale[_nftContractAddress][_tokenId].amount ==... */\n      sub\n        /* \"NFT-Contracts/contracts/market_pri/nft_new_market1155pri.sol\":9600:10321  if (... */\n      tag_183\n      jumpi\n        /* \"NFT-Contracts/contracts/market_pri/nft_new_market1155pri.sol\":9777:9778  0 */\n      0x00\n        /* \"NFT-Contracts/contracts/market_pri/nft_new_market1155pri.sol\":9730:9743  nftSaleStatus */\n      0x01\n        /* \"NFT-Contracts/contracts/market_pri/nft_new_market1155pri.sol\":9730:9764  nftSaleStatus[_nftContractAddress] */\n      0x00\n        /* \"NFT-Contracts/contracts/market_pri/nft_new_market1155pri.sol\":9744:9763  _nftContractAddress */\n      dup6\n        /* \"NFT-Contracts/contracts/market_pri/nft_new_market1155pri.sol\":9730:9764  nftSaleStatus[_nftContractAddress] */\n      0xffffffffffffffffffffffffffffffffffffffff\n      and\n      0xffffffffffffffffffffffffffffffffffffffff\n      and\n      dup2\n      mstore\n      0x20\n      add\n      swap1\n      dup2\n      mstore\n      0x20\n      add\n      0x00\n      keccak256\n        /* \"NFT-Contracts/contracts/market_pri/nft_new_market1155pri.sol\":9730:9774  nftSaleStatus[_nftContractAddress][_tokenId] */\n      0x00\n        /* \"NFT-Contracts/contracts/market_pri/nft_new_market1155pri.sol\":9765:9773  _tokenId */\n      dup5\n        /* \"NFT-Contracts/contracts/market_pri/nft_new_market1155pri.sol\":9730:9774  nftSaleStatus[_nftContractAddress][_tokenId] */\n      dup2\n      mstore\n      0x20\n      add\n      swap1\n      dup2\n      mstore\n      0x20\n      add\n      0x00\n      keccak256\n        /* \"NFT-Contracts/contracts/market_pri/nft_new_market1155pri.sol\":9730:9778  nftSaleStatus[_nftContractAddress][_tokenId] = 0 */\n      dup2\n      swap1\n      sstore\n      pop\n        /* \"NFT-Contracts/contracts/market_pri/nft_new_market1155pri.sol\":9800:9812  fixedSaleNFT */\n      0x03\n        /* \"NFT-Contracts/contracts/market_pri/nft_new_market1155pri.sol\":9832:9849  indexFixedSaleNFT */\n      0x02\n        /* \"NFT-Contracts/contracts/market_pri/nft_new_market1155pri.sol\":9832:9870  indexFixedSaleNFT[_nftContractAddress] */\n      0x00\n        /* \"NFT-Contracts/contracts/market_pri/nft_new_market1155pri.sol\":9850:9869  _nftContractAddress */\n      dup6\n        /* \"NFT-Contracts/contracts/market_pri/nft_new_market1155pri.sol\":9832:9870  indexFixedSaleNFT[_nftContractAddress] */\n      0xffffffffffffffffffffffffffffffffffffffff\n      and\n      0xffffffffffffffffffffffffffffffffffffffff\n      and\n      dup2\n      mstore\n      0x20\n      add\n      swap1\n      dup2\n      mstore\n      0x20\n      add\n      0x00\n      keccak256\n        /* \"NFT-Contracts/contracts/market_pri/nft_new_market1155pri.sol\":9832:9880  indexFixedSaleNFT[_nftContractAddress][_tokenId] */\n      0x00\n        /* \"NFT-Contracts/contracts/market_pri/nft_new_market1155pri.sol\":9871:9879  _tokenId */\n      dup5\n        /* \"NFT-Contracts/contracts/market_pri/nft_new_market1155pri.sol\":9832:9880  indexFixedSaleNFT[_nftContractAddress][_tokenId] */\n      dup2\n      mstore\n      0x20\n      add\n      swap1\n      dup2\n      mstore\n      0x20\n      add\n      0x00\n      keccak256\n      sload\n        /* \"NFT-Contracts/contracts/market_pri/nft_new_market1155pri.sol\":9800:9896  fixedSaleNFT[... */\n      dup2\n      sload\n      dup2\n      lt\n      tag_184\n      jumpi\n      tag_185\n      tag_169\n      jump\t// in\n    tag_185:\n    tag_184:\n      swap1\n      0x00\n      mstore\n      keccak256(0x00, 0x20)\n      swap1\n      0x02\n      mul\n      add\n      0x00\n        /* \"NFT-Contracts/contracts/market_pri/nft_new_market1155pri.sol\":9793:9896  delete fixedSaleNFT[... */\n      dup1\n      dup3\n      add\n      exp(0x0100, 0x00)\n      dup2\n      sload\n      swap1\n      0xffffffffffffffffffffffffffffffffffffffff\n      mul\n      not\n      and\n      swap1\n      sstore\n      0x01\n      dup3\n      add\n      0x00\n      swap1\n      sstore\n      pop\n      pop\n        /* \"NFT-Contracts/contracts/market_pri/nft_new_market1155pri.sol\":9976:10004  msg... */\n      caller\n        /* \"NFT-Contracts/contracts/market_pri/nft_new_market1155pri.sol\":9913:9933  nftContractFixedSale */\n      0x00\n        /* \"NFT-Contracts/contracts/market_pri/nft_new_market1155pri.sol\":9913:9954  nftContractFixedSale[_nftContractAddress] */\n      dup1\n        /* \"NFT-Contracts/contracts/market_pri/nft_new_market1155pri.sol\":9934:9953  _nftContractAddress */\n      dup6\n        /* \"NFT-Contracts/contracts/market_pri/nft_new_market1155pri.sol\":9913:9954  nftContractFixedSale[_nftContractAddress] */\n      0xffffffffffffffffffffffffffffffffffffffff\n      and\n      0xffffffffffffffffffffffffffffffffffffffff\n      and\n      dup2\n      mstore\n      0x20\n      add\n      swap1\n      dup2\n      mstore\n      0x20\n      add\n      0x00\n      keccak256\n        /* \"NFT-Contracts/contracts/market_pri/nft_new_market1155pri.sol\":9913:9964  nftContractFixedSale[_nftContractAddress][_tokenId] */\n      0x00\n        /* \"NFT-Contracts/contracts/market_pri/nft_new_market1155pri.sol\":9955:9963  _tokenId */\n      dup5\n        /* \"NFT-Contracts/contracts/market_pri/nft_new_market1155pri.sol\":9913:9964  nftContractFixedSale[_nftContractAddress][_tokenId] */\n      dup2\n      mstore\n      0x20\n      add\n      swap1\n      dup2\n      mstore\n      0x20\n      add\n      0x00\n      keccak256\n        /* \"NFT-Contracts/contracts/market_pri/nft_new_market1155pri.sol\":9913:9973  nftContractFixedSale[_nftContractAddress][_tokenId].nftBuyer */\n      0x01\n      add\n      0x00\n        /* \"NFT-Contracts/contracts/market_pri/nft_new_market1155pri.sol\":9913:10004  nftContractFixedSale[_nftContractAddress][_tokenId].nftBuyer = msg... */\n      0x0100\n      exp\n      dup2\n      sload\n      dup2\n      0xffffffffffffffffffffffffffffffffffffffff\n      mul\n      not\n      and\n      swap1\n      dup4\n      0xffffffffffffffffffffffffffffffffffffffff\n      and\n      mul\n      or\n      swap1\n      sstore\n      pop\n        /* \"NFT-Contracts/contracts/market_pri/nft_new_market1155pri.sol\":9600:10321  if (... */\n      jump(tag_187)\n    tag_183:\n        /* \"NFT-Contracts/contracts/market_pri/nft_new_market1155pri.sol\":10193:10203  _nftAmount */\n      dup1\n        /* \"NFT-Contracts/contracts/market_pri/nft_new_market1155pri.sol\":10115:10135  nftContractFixedSale */\n      0x00\n        /* \"NFT-Contracts/contracts/market_pri/nft_new_market1155pri.sol\":10115:10156  nftContractFixedSale[_nftContractAddress] */\n      dup1\n        /* \"NFT-Contracts/contracts/market_pri/nft_new_market1155pri.sol\":10136:10155  _nftContractAddress */\n      dup6\n        /* \"NFT-Contracts/contracts/market_pri/nft_new_market1155pri.sol\":10115:10156  nftContractFixedSale[_nftContractAddress] */\n      0xffffffffffffffffffffffffffffffffffffffff\n      and\n      0xffffffffffffffffffffffffffffffffffffffff\n      and\n      dup2\n      mstore\n      0x20\n      add\n      swap1\n      dup2\n      mstore\n      0x20\n      add\n      0x00\n      keccak256\n        /* \"NFT-Contracts/contracts/market_pri/nft_new_market1155pri.sol\":10115:10166  nftContractFixedSale[_nftContractAddress][_tokenId] */\n      0x00\n        /* \"NFT-Contracts/contracts/market_pri/nft_new_market1155pri.sol\":10157:10165  _tokenId */\n      dup5\n        /* \"NFT-Contracts/contracts/market_pri/nft_new_market1155pri.sol\":10115:10166  nftContractFixedSale[_nftContractAddress][_tokenId] */\n      dup2\n      mstore\n      0x20\n      add\n      swap1\n      dup2\n      mstore\n      0x20\n      add\n      0x00\n      keccak256\n        /* \"NFT-Contracts/contracts/market_pri/nft_new_market1155pri.sol\":10115:10173  nftContractFixedSale[_nftContractAddress][_tokenId].amount */\n      0x03\n      add\n      sload\n        /* \"NFT-Contracts/contracts/market_pri/nft_new_market1155pri.sol\":10115:10203  nftContractFixedSale[_nftContractAddress][_tokenId].amount -... */\n      tag_188\n      swap2\n      swap1\n      tag_189\n      jump\t// in\n    tag_188:\n        /* \"NFT-Contracts/contracts/market_pri/nft_new_market1155pri.sol\":10037:10057  nftContractFixedSale */\n      0x00\n        /* \"NFT-Contracts/contracts/market_pri/nft_new_market1155pri.sol\":10037:10078  nftContractFixedSale[_nftContractAddress] */\n      dup1\n        /* \"NFT-Contracts/contracts/market_pri/nft_new_market1155pri.sol\":10058:10077  _nftContractAddress */\n      dup6\n        /* \"NFT-Contracts/contracts/market_pri/nft_new_market1155pri.sol\":10037:10078  nftContractFixedSale[_nftContractAddress] */\n      0xffffffffffffffffffffffffffffffffffffffff\n      and\n      0xffffffffffffffffffffffffffffffffffffffff\n      and\n      dup2\n      mstore\n      0x20\n      add\n      swap1\n      dup2\n      mstore\n      0x20\n      add\n      0x00\n      keccak256\n        /* \"NFT-Contracts/contracts/market_pri/nft_new_market1155pri.sol\":10037:10088  nftContractFixedSale[_nftContractAddress][_tokenId] */\n      0x00\n        /* \"NFT-Contracts/contracts/market_pri/nft_new_market1155pri.sol\":10079:10087  _tokenId */\n      dup5\n        /* \"NFT-Contracts/contracts/market_pri/nft_new_market1155pri.sol\":10037:10088  nftContractFixedSale[_nftContractAddress][_tokenId] */\n      dup2\n      mstore\n      0x20\n      add\n      swap1\n      dup2\n      mstore\n      0x20\n      add\n      0x00\n      keccak256\n        /* \"NFT-Contracts/contracts/market_pri/nft_new_market1155pri.sol\":10037:10095  nftContractFixedSale[_nftContractAddress][_tokenId].amount */\n      0x03\n      add\n        /* \"NFT-Contracts/contracts/market_pri/nft_new_market1155pri.sol\":10037:10203  nftContractFixedSale[_nftContractAddress][_tokenId].amount =... */\n      dup2\n      swap1\n      sstore\n      pop\n        /* \"NFT-Contracts/contracts/market_pri/nft_new_market1155pri.sol\":10281:10309  msg... */\n      caller\n        /* \"NFT-Contracts/contracts/market_pri/nft_new_market1155pri.sol\":10218:10238  nftContractFixedSale */\n      0x00\n        /* \"NFT-Contracts/contracts/market_pri/nft_new_market1155pri.sol\":10218:10259  nftContractFixedSale[_nftContractAddress] */\n      dup1\n        /* \"NFT-Contracts/contracts/market_pri/nft_new_market1155pri.sol\":10239:10258  _nftContractAddress */\n      dup6\n        /* \"NFT-Contracts/contracts/market_pri/nft_new_market1155pri.sol\":10218:10259  nftContractFixedSale[_nftContractAddress] */\n      0xffffffffffffffffffffffffffffffffffffffff\n      and\n      0xffffffffffffffffffffffffffffffffffffffff\n      and\n      dup2\n      mstore\n      0x20\n      add\n      swap1\n      dup2\n      mstore\n      0x20\n      add\n      0x00\n      keccak256\n        /* \"NFT-Contracts/contracts/market_pri/nft_new_market1155pri.sol\":10218:10269  nftContractFixedSale[_nftContractAddress][_tokenId] */\n      0x00\n        /* \"NFT-Contracts/contracts/market_pri/nft_new_market1155pri.sol\":10260:10268  _tokenId */\n      dup5\n        /* \"NFT-Contracts/contracts/market_pri/nft_new_market1155pri.sol\":10218:10269  nftContractFixedSale[_nftContractAddress][_tokenId] */\n      dup2\n      mstore\n      0x20\n      add\n      swap1\n      dup2\n      mstore\n      0x20\n      add\n      0x00\n      keccak256\n        /* \"NFT-Contracts/contracts/market_pri/nft_new_market1155pri.sol\":10218:10278  nftContractFixedSale[_nftContractAddress][_tokenId].nftBuyer */\n      0x01\n      add\n      0x00\n        /* \"NFT-Contracts/contracts/market_pri/nft_new_market1155pri.sol\":10218:10309  nftContractFixedSale[_nftContractAddress][_tokenId].nftBuyer = msg... */\n      0x0100\n      exp\n      dup2\n      sload\n      dup2\n      0xffffffffffffffffffffffffffffffffffffffff\n      mul\n      not\n      and\n      swap1\n      dup4\n      0xffffffffffffffffffffffffffffffffffffffff\n      and\n      mul\n      or\n      swap1\n      sstore\n      pop\n        /* \"NFT-Contracts/contracts/market_pri/nft_new_market1155pri.sol\":9600:10321  if (... */\n    tag_187:\n        /* \"NFT-Contracts/contracts/market_pri/nft_new_market1155pri.sol\":9454:10328  function _checkFixedSale(... */\n      pop\n      pop\n      pop\n      jump\t// out\n        /* \"NFT-Contracts/contracts/market_pri/nft_new_market1155pri.sol\":8611:8935  function _isTokenOrCoin(... */\n    tag_124:\n        /* \"NFT-Contracts/contracts/market_pri/nft_new_market1155pri.sol\":8767:8768  0 */\n      0x00\n        /* \"NFT-Contracts/contracts/market_pri/nft_new_market1155pri.sol\":8749:8769  _erc20 != address(0) */\n      0xffffffffffffffffffffffffffffffffffffffff\n      and\n        /* \"NFT-Contracts/contracts/market_pri/nft_new_market1155pri.sol\":8749:8755  _erc20 */\n      dup3\n        /* \"NFT-Contracts/contracts/market_pri/nft_new_market1155pri.sol\":8749:8769  _erc20 != address(0) */\n      0xffffffffffffffffffffffffffffffffffffffff\n      and\n      eq\n        /* \"NFT-Contracts/contracts/market_pri/nft_new_market1155pri.sol\":8745:8928  if (_erc20 != address(0)) {... */\n      tag_191\n      jumpi\n        /* \"NFT-Contracts/contracts/market_pri/nft_new_market1155pri.sol\":8786:8838  _tokenAmountTransfer(_nftSeller, _erc20, _buyAmount) */\n      tag_192\n        /* \"NFT-Contracts/contracts/market_pri/nft_new_market1155pri.sol\":8807:8817  _nftSeller */\n      dup4\n        /* \"NFT-Contracts/contracts/market_pri/nft_new_market1155pri.sol\":8819:8825  _erc20 */\n      dup4\n        /* \"NFT-Contracts/contracts/market_pri/nft_new_market1155pri.sol\":8827:8837  _buyAmount */\n      dup4\n        /* \"NFT-Contracts/contracts/market_pri/nft_new_market1155pri.sol\":8786:8806  _tokenAmountTransfer */\n      tag_193\n        /* \"NFT-Contracts/contracts/market_pri/nft_new_market1155pri.sol\":8786:8838  _tokenAmountTransfer(_nftSeller, _erc20, _buyAmount) */\n      jump\t// in\n    tag_192:\n        /* \"NFT-Contracts/contracts/market_pri/nft_new_market1155pri.sol\":8745:8928  if (_erc20 != address(0)) {... */\n      jump(tag_194)\n    tag_191:\n        /* \"NFT-Contracts/contracts/market_pri/nft_new_market1155pri.sol\":8871:8916  _nativeAmountTransfer(_nftSeller, _buyAmount) */\n      tag_195\n        /* \"NFT-Contracts/contracts/market_pri/nft_new_market1155pri.sol\":8893:8903  _nftSeller */\n      dup4\n        /* \"NFT-Contracts/contracts/market_pri/nft_new_market1155pri.sol\":8905:8915  _buyAmount */\n      dup3\n        /* \"NFT-Contracts/contracts/market_pri/nft_new_market1155pri.sol\":8871:8892  _nativeAmountTransfer */\n      tag_196\n        /* \"NFT-Contracts/contracts/market_pri/nft_new_market1155pri.sol\":8871:8916  _nativeAmountTransfer(_nftSeller, _buyAmount) */\n      jump\t// in\n    tag_195:\n        /* \"NFT-Contracts/contracts/market_pri/nft_new_market1155pri.sol\":8745:8928  if (_erc20 != address(0)) {... */\n    tag_194:\n        /* \"NFT-Contracts/contracts/market_pri/nft_new_market1155pri.sol\":8611:8935  function _isTokenOrCoin(... */\n      pop\n      pop\n      pop\n      jump\t// out\n        /* \"NFT-Contracts/contracts/market_pri/nft_new_market1155pri.sol\":10336:10565  function _ownerOf(address _nftContractAddress, uint256 tokenId)... */\n    tag_129:\n        /* \"NFT-Contracts/contracts/market_pri/nft_new_market1155pri.sol\":10450:10454  bool */\n      0x00\n        /* \"NFT-Contracts/contracts/market_pri/nft_new_market1155pri.sol\":10556:10557  0 */\n      dup1\n        /* \"NFT-Contracts/contracts/market_pri/nft_new_market1155pri.sol\":10501:10520  _nftContractAddress */\n      dup4\n        /* \"NFT-Contracts/contracts/market_pri/nft_new_market1155pri.sol\":10492:10531  IERC1155(_nftContractAddress).balanceOf */\n      0xffffffffffffffffffffffffffffffffffffffff\n      and\n      0xfdd58e\n        /* \"NFT-Contracts/contracts/market_pri/nft_new_market1155pri.sol\":10532:10542  msg.sender */\n      caller\n        /* \"NFT-Contracts/contracts/market_pri/nft_new_market1155pri.sol\":10544:10551  tokenId */\n      dup6\n        /* \"NFT-Contracts/contracts/market_pri/nft_new_market1155pri.sol\":10492:10552  IERC1155(_nftContractAddress).balanceOf(msg.sender, tokenId) */\n      mload(0x40)\n      dup4\n      0xffffffff\n      and\n      0xe0\n      shl\n      dup2\n      mstore\n      0x04\n      add\n      tag_198\n      swap3\n      swap2\n      swap1\n      tag_199\n      jump\t// in\n    tag_198:\n      0x20\n      mload(0x40)\n      dup1\n      dup4\n      sub\n      dup2\n      dup7\n      gas\n      staticcall\n      iszero\n      dup1\n      iszero\n      tag_201\n      jumpi\n      returndatasize\n      0x00\n      dup1\n      returndatacopy\n      revert(0x00, returndatasize)\n    tag_201:\n      pop\n      pop\n      pop\n      pop\n      mload(0x40)\n      returndatasize\n      not(0x1f)\n      0x1f\n      dup3\n      add\n      and\n      dup3\n      add\n      dup1\n      0x40\n      mstore\n      pop\n      dup2\n      add\n      swap1\n      tag_202\n      swap2\n      swap1\n      tag_203\n      jump\t// in\n    tag_202:\n        /* \"NFT-Contracts/contracts/market_pri/nft_new_market1155pri.sol\":10492:10557  IERC1155(_nftContractAddress).balanceOf(msg.sender, tokenId) != 0 */\n      eq\n      iszero\n        /* \"NFT-Contracts/contracts/market_pri/nft_new_market1155pri.sol\":10472:10557  return... */\n      swap1\n      pop\n        /* \"NFT-Contracts/contracts/market_pri/nft_new_market1155pri.sol\":10336:10565  function _ownerOf(address _nftContractAddress, uint256 tokenId)... */\n      swap3\n      swap2\n      pop\n      pop\n      jump\t// out\n        /* \"NFT-Contracts/contracts/market_pri/nft_new_market1155pri.sol\":8943:9224  function _tokenAmountTransfer(... */\n    tag_193:\n        /* \"NFT-Contracts/contracts/market_pri/nft_new_market1155pri.sol\":9112:9118  _erc20 */\n      dup2\n        /* \"NFT-Contracts/contracts/market_pri/nft_new_market1155pri.sol\":9105:9132  IERC20(_erc20).transferFrom */\n      0xffffffffffffffffffffffffffffffffffffffff\n      and\n      0x23b872dd\n        /* \"NFT-Contracts/contracts/market_pri/nft_new_market1155pri.sol\":9133:9143  msg.sender */\n      caller\n        /* \"NFT-Contracts/contracts/market_pri/nft_new_market1155pri.sol\":9145:9155  _nftSeller */\n      dup6\n        /* \"NFT-Contracts/contracts/market_pri/nft_new_market1155pri.sol\":9157:9167  _buyAmount */\n      dup5\n        /* \"NFT-Contracts/contracts/market_pri/nft_new_market1155pri.sol\":9105:9168  IERC20(_erc20).transferFrom(msg.sender, _nftSeller, _buyAmount) */\n      mload(0x40)\n      dup5\n      0xffffffff\n      and\n      0xe0\n      shl\n      dup2\n      mstore\n      0x04\n      add\n      tag_205\n      swap4\n      swap3\n      swap2\n      swap1\n      tag_172\n      jump\t// in\n    tag_205:\n      0x20\n      mload(0x40)\n      dup1\n      dup4\n      sub\n      dup2\n      0x00\n      dup8\n      gas\n      call\n      iszero\n      dup1\n      iszero\n      tag_207\n      jumpi\n      returndatasize\n      0x00\n      dup1\n      returndatacopy\n      revert(0x00, returndatasize)\n    tag_207:\n      pop\n      pop\n      pop\n      pop\n      mload(0x40)\n      returndatasize\n      not(0x1f)\n      0x1f\n      dup3\n      add\n      and\n      dup3\n      add\n      dup1\n      0x40\n      mstore\n      pop\n      dup2\n      add\n      swap1\n      tag_208\n      swap2\n      swap1\n      tag_83\n      jump\t// in\n    tag_208:\n        /* \"NFT-Contracts/contracts/market_pri/nft_new_market1155pri.sol\":9083:9216  require(... */\n      tag_209\n      jumpi\n      mload(0x40)\n      0x08c379a000000000000000000000000000000000000000000000000000000000\n      dup2\n      mstore\n      0x04\n      add\n      tag_210\n      swap1\n      tag_211\n      jump\t// in\n    tag_210:\n      mload(0x40)\n      dup1\n      swap2\n      sub\n      swap1\n      revert\n    tag_209:\n        /* \"NFT-Contracts/contracts/market_pri/nft_new_market1155pri.sol\":8943:9224  function _tokenAmountTransfer(... */\n      pop\n      pop\n      pop\n      jump\t// out\n        /* \"NFT-Contracts/contracts/market_pri/nft_new_market1155pri.sol\":9232:9446  function _nativeAmountTransfer(address _nftSeller, uint256 _buyAmount)... */\n    tag_196:\n        /* \"NFT-Contracts/contracts/market_pri/nft_new_market1155pri.sol\":9338:9350  bool success */\n      0x00\n        /* \"NFT-Contracts/contracts/market_pri/nft_new_market1155pri.sol\":9356:9366  _nftSeller */\n      dup3\n        /* \"NFT-Contracts/contracts/market_pri/nft_new_market1155pri.sol\":9356:9371  _nftSeller.call */\n      0xffffffffffffffffffffffffffffffffffffffff\n      and\n        /* \"NFT-Contracts/contracts/market_pri/nft_new_market1155pri.sol\":9379:9389  _buyAmount */\n      dup3\n        /* \"NFT-Contracts/contracts/market_pri/nft_new_market1155pri.sol\":9356:9394  _nftSeller.call{value: _buyAmount}(\"\") */\n      mload(0x40)\n      tag_213\n      swap1\n      tag_214\n      jump\t// in\n    tag_213:\n      0x00\n      mload(0x40)\n      dup1\n      dup4\n      sub\n      dup2\n      dup6\n      dup8\n      gas\n      call\n      swap3\n      pop\n      pop\n      pop\n      returndatasize\n      dup1\n      0x00\n      dup2\n      eq\n      tag_217\n      jumpi\n      mload(0x40)\n      swap2\n      pop\n      and(add(returndatasize, 0x3f), not(0x1f))\n      dup3\n      add\n      0x40\n      mstore\n      returndatasize\n      dup3\n      mstore\n      returndatasize\n      0x00\n      0x20\n      dup5\n      add\n      returndatacopy\n      jump(tag_216)\n    tag_217:\n      0x60\n      swap2\n      pop\n    tag_216:\n      pop\n        /* \"NFT-Contracts/contracts/market_pri/nft_new_market1155pri.sol\":9337:9394  (bool success, ) = _nftSeller.call{value: _buyAmount}(\"\") */\n      pop\n      swap1\n      pop\n        /* \"NFT-Contracts/contracts/market_pri/nft_new_market1155pri.sol\":9413:9420  success */\n      dup1\n        /* \"NFT-Contracts/contracts/market_pri/nft_new_market1155pri.sol\":9405:9438  require(success, \"refund failed\") */\n      tag_218\n      jumpi\n      mload(0x40)\n      0x08c379a000000000000000000000000000000000000000000000000000000000\n      dup2\n      mstore\n      0x04\n      add\n      tag_219\n      swap1\n      tag_220\n      jump\t// in\n    tag_219:\n      mload(0x40)\n      dup1\n      swap2\n      sub\n      swap1\n      revert\n    tag_218:\n        /* \"NFT-Contracts/contracts/market_pri/nft_new_market1155pri.sol\":9326:9446  {... */\n      pop\n        /* \"NFT-Contracts/contracts/market_pri/nft_new_market1155pri.sol\":9232:9446  function _nativeAmountTransfer(address _nftSeller, uint256 _buyAmount)... */\n      pop\n      pop\n      jump\t// out\n    tag_174:\n      mload(0x40)\n      dup1\n      0xa0\n      add\n      0x40\n      mstore\n      dup1\n      and(0xffffffffffffffffffffffffffffffffffffffff, 0x00)\n      dup2\n      mstore\n      0x20\n      add\n      and(0xffffffffffffffffffffffffffffffffffffffff, 0x00)\n      dup2\n      mstore\n      0x20\n      add\n      and(0xffffffffffffffffffffffffffffffffffffffff, 0x00)\n      dup2\n      mstore\n      0x20\n      add\n      0x00\n      dup2\n      mstore\n      0x20\n      add\n      0x00\n      dup2\n      mstore\n      pop\n      swap1\n      jump\t// out\n        /* \"#utility.yul\":7:82   */\n    tag_221:\n        /* \"#utility.yul\":40:46   */\n      0x00\n        /* \"#utility.yul\":73:75   */\n      0x40\n        /* \"#utility.yul\":67:76   */\n      mload\n        /* \"#utility.yul\":57:76   */\n      swap1\n      pop\n        /* \"#utility.yul\":7:82   */\n      swap1\n      jump\t// out\n        /* \"#utility.yul\":88:205   */\n    tag_222:\n        /* \"#utility.yul\":197:198   */\n      0x00\n        /* \"#utility.yul\":194:195   */\n      dup1\n        /* \"#utility.yul\":187:199   */\n      revert\n        /* \"#utility.yul\":211:328   */\n    tag_223:\n        /* \"#utility.yul\":320:321   */\n      0x00\n        /* \"#utility.yul\":317:318   */\n      dup1\n        /* \"#utility.yul\":310:322   */\n      revert\n        /* \"#utility.yul\":334:460   */\n    tag_224:\n        /* \"#utility.yul\":371:378   */\n      0x00\n        /* \"#utility.yul\":411:453   */\n      0xffffffffffffffffffffffffffffffffffffffff\n        /* \"#utility.yul\":404:409   */\n      dup3\n        /* \"#utility.yul\":400:454   */\n      and\n        /* \"#utility.yul\":389:454   */\n      swap1\n      pop\n        /* \"#utility.yul\":334:460   */\n      swap2\n      swap1\n      pop\n      jump\t// out\n        /* \"#utility.yul\":466:562   */\n    tag_225:\n        /* \"#utility.yul\":503:510   */\n      0x00\n        /* \"#utility.yul\":532:556   */\n      tag_297\n        /* \"#utility.yul\":550:555   */\n      dup3\n        /* \"#utility.yul\":532:556   */\n      tag_224\n      jump\t// in\n    tag_297:\n        /* \"#utility.yul\":521:556   */\n      swap1\n      pop\n        /* \"#utility.yul\":466:562   */\n      swap2\n      swap1\n      pop\n      jump\t// out\n        /* \"#utility.yul\":568:690   */\n    tag_226:\n        /* \"#utility.yul\":641:665   */\n      tag_299\n        /* \"#utility.yul\":659:664   */\n      dup2\n        /* \"#utility.yul\":641:665   */\n      tag_225\n      jump\t// in\n    tag_299:\n        /* \"#utility.yul\":634:639   */\n      dup2\n        /* \"#utility.yul\":631:666   */\n      eq\n        /* \"#utility.yul\":621:684   */\n      tag_300\n      jumpi\n        /* \"#utility.yul\":680:681   */\n      0x00\n        /* \"#utility.yul\":677:678   */\n      dup1\n        /* \"#utility.yul\":670:682   */\n      revert\n        /* \"#utility.yul\":621:684   */\n    tag_300:\n        /* \"#utility.yul\":568:690   */\n      pop\n      jump\t// out\n        /* \"#utility.yul\":696:835   */\n    tag_227:\n        /* \"#utility.yul\":742:747   */\n      0x00\n        /* \"#utility.yul\":780:786   */\n      dup2\n        /* \"#utility.yul\":767:787   */\n      calldataload\n        /* \"#utility.yul\":758:787   */\n      swap1\n      pop\n        /* \"#utility.yul\":796:829   */\n      tag_302\n        /* \"#utility.yul\":823:828   */\n      dup2\n        /* \"#utility.yul\":796:829   */\n      tag_226\n      jump\t// in\n    tag_302:\n        /* \"#utility.yul\":696:835   */\n      swap3\n      swap2\n      pop\n      pop\n      jump\t// out\n        /* \"#utility.yul\":841:1170   */\n    tag_20:\n        /* \"#utility.yul\":900:906   */\n      0x00\n        /* \"#utility.yul\":949:951   */\n      0x20\n        /* \"#utility.yul\":937:946   */\n      dup3\n        /* \"#utility.yul\":928:935   */\n      dup5\n        /* \"#utility.yul\":924:947   */\n      sub\n        /* \"#utility.yul\":920:952   */\n      slt\n        /* \"#utility.yul\":917:1036   */\n      iszero\n      tag_304\n      jumpi\n        /* \"#utility.yul\":955:1034   */\n      tag_305\n      tag_222\n      jump\t// in\n    tag_305:\n        /* \"#utility.yul\":917:1036   */\n    tag_304:\n        /* \"#utility.yul\":1075:1076   */\n      0x00\n        /* \"#utility.yul\":1100:1153   */\n      tag_306\n        /* \"#utility.yul\":1145:1152   */\n      dup5\n        /* \"#utility.yul\":1136:1142   */\n      dup3\n        /* \"#utility.yul\":1125:1134   */\n      dup6\n        /* \"#utility.yul\":1121:1143   */\n      add\n        /* \"#utility.yul\":1100:1153   */\n      tag_227\n      jump\t// in\n    tag_306:\n        /* \"#utility.yul\":1090:1153   */\n      swap2\n      pop\n        /* \"#utility.yul\":1046:1163   */\n      pop\n        /* \"#utility.yul\":841:1170   */\n      swap3\n      swap2\n      pop\n      pop\n      jump\t// out\n        /* \"#utility.yul\":1176:1266   */\n    tag_228:\n        /* \"#utility.yul\":1210:1217   */\n      0x00\n        /* \"#utility.yul\":1253:1258   */\n      dup2\n        /* \"#utility.yul\":1246:1259   */\n      iszero\n        /* \"#utility.yul\":1239:1260   */\n      iszero\n        /* \"#utility.yul\":1228:1260   */\n      swap1\n      pop\n        /* \"#utility.yul\":1176:1266   */\n      swap2\n      swap1\n      pop\n      jump\t// out\n        /* \"#utility.yul\":1272:1381   */\n    tag_229:\n        /* \"#utility.yul\":1353:1374   */\n      tag_309\n        /* \"#utility.yul\":1368:1373   */\n      dup2\n        /* \"#utility.yul\":1353:1374   */\n      tag_228\n      jump\t// in\n    tag_309:\n        /* \"#utility.yul\":1348:1351   */\n      dup3\n        /* \"#utility.yul\":1341:1375   */\n      mstore\n        /* \"#utility.yul\":1272:1381   */\n      pop\n      pop\n      jump\t// out\n        /* \"#utility.yul\":1387:1597   */\n    tag_23:\n        /* \"#utility.yul\":1474:1478   */\n      0x00\n        /* \"#utility.yul\":1512:1514   */\n      0x20\n        /* \"#utility.yul\":1501:1510   */\n      dup3\n        /* \"#utility.yul\":1497:1515   */\n      add\n        /* \"#utility.yul\":1489:1515   */\n      swap1\n      pop\n        /* \"#utility.yul\":1525:1590   */\n      tag_311\n        /* \"#utility.yul\":1587:1588   */\n      0x00\n        /* \"#utility.yul\":1576:1585   */\n      dup4\n        /* \"#utility.yul\":1572:1589   */\n      add\n        /* \"#utility.yul\":1563:1569   */\n      dup5\n        /* \"#utility.yul\":1525:1590   */\n      tag_229\n      jump\t// in\n    tag_311:\n        /* \"#utility.yul\":1387:1597   */\n      swap3\n      swap2\n      pop\n      pop\n      jump\t// out\n        /* \"#utility.yul\":1603:1680   */\n    tag_230:\n        /* \"#utility.yul\":1640:1647   */\n      0x00\n        /* \"#utility.yul\":1669:1674   */\n      dup2\n        /* \"#utility.yul\":1658:1674   */\n      swap1\n      pop\n        /* \"#utility.yul\":1603:1680   */\n      swap2\n      swap1\n      pop\n      jump\t// out\n        /* \"#utility.yul\":1686:1808   */\n    tag_231:\n        /* \"#utility.yul\":1759:1783   */\n      tag_314\n        /* \"#utility.yul\":1777:1782   */\n      dup2\n        /* \"#utility.yul\":1759:1783   */\n      tag_230\n      jump\t// in\n    tag_314:\n        /* \"#utility.yul\":1752:1757   */\n      dup2\n        /* \"#utility.yul\":1749:1784   */\n      eq\n        /* \"#utility.yul\":1739:1802   */\n      tag_315\n      jumpi\n        /* \"#utility.yul\":1798:1799   */\n      0x00\n        /* \"#utility.yul\":1795:1796   */\n      dup1\n        /* \"#utility.yul\":1788:1800   */\n      revert\n        /* \"#utility.yul\":1739:1802   */\n    tag_315:\n        /* \"#utility.yul\":1686:1808   */\n      pop\n      jump\t// out\n        /* \"#utility.yul\":1814:1953   */\n    tag_232:\n        /* \"#utility.yul\":1860:1865   */\n      0x00\n        /* \"#utility.yul\":1898:1904   */\n      dup2\n        /* \"#utility.yul\":1885:1905   */\n      calldataload\n        /* \"#utility.yul\":1876:1905   */\n      swap1\n      pop\n        /* \"#utility.yul\":1914:1947   */\n      tag_317\n        /* \"#utility.yul\":1941:1946   */\n      dup2\n        /* \"#utility.yul\":1914:1947   */\n      tag_231\n      jump\t// in\n    tag_317:\n        /* \"#utility.yul\":1814:1953   */\n      swap3\n      swap2\n      pop\n      pop\n      jump\t// out\n        /* \"#utility.yul\":1959:2578   */\n    tag_27:\n        /* \"#utility.yul\":2036:2042   */\n      0x00\n        /* \"#utility.yul\":2044:2050   */\n      dup1\n        /* \"#utility.yul\":2052:2058   */\n      0x00\n        /* \"#utility.yul\":2101:2103   */\n      0x60\n        /* \"#utility.yul\":2089:2098   */\n      dup5\n        /* \"#utility.yul\":2080:2087   */\n      dup7\n        /* \"#utility.yul\":2076:2099   */\n      sub\n        /* \"#utility.yul\":2072:2104   */\n      slt\n        /* \"#utility.yul\":2069:2188   */\n      iszero\n      tag_319\n      jumpi\n        /* \"#utility.yul\":2107:2186   */\n      tag_320\n      tag_222\n      jump\t// in\n    tag_320:\n        /* \"#utility.yul\":2069:2188   */\n    tag_319:\n        /* \"#utility.yul\":2227:2228   */\n      0x00\n        /* \"#utility.yul\":2252:2305   */\n      tag_321\n        /* \"#utility.yul\":2297:2304   */\n      dup7\n        /* \"#utility.yul\":2288:2294   */\n      dup3\n        /* \"#utility.yul\":2277:2286   */\n      dup8\n        /* \"#utility.yul\":2273:2295   */\n      add\n        /* \"#utility.yul\":2252:2305   */\n      tag_227\n      jump\t// in\n    tag_321:\n        /* \"#utility.yul\":2242:2305   */\n      swap4\n      pop\n        /* \"#utility.yul\":2198:2315   */\n      pop\n        /* \"#utility.yul\":2354:2356   */\n      0x20\n        /* \"#utility.yul\":2380:2433   */\n      tag_322\n        /* \"#utility.yul\":2425:2432   */\n      dup7\n        /* \"#utility.yul\":2416:2422   */\n      dup3\n        /* \"#utility.yul\":2405:2414   */\n      dup8\n        /* \"#utility.yul\":2401:2423   */\n      add\n        /* \"#utility.yul\":2380:2433   */\n      tag_232\n      jump\t// in\n    tag_322:\n        /* \"#utility.yul\":2370:2433   */\n      swap3\n      pop\n        /* \"#utility.yul\":2325:2443   */\n      pop\n        /* \"#utility.yul\":2482:2484   */\n      0x40\n        /* \"#utility.yul\":2508:2561   */\n      tag_323\n        /* \"#utility.yul\":2553:2560   */\n      dup7\n        /* \"#utility.yul\":2544:2550   */\n      dup3\n        /* \"#utility.yul\":2533:2542   */\n      dup8\n        /* \"#utility.yul\":2529:2551   */\n      add\n        /* \"#utility.yul\":2508:2561   */\n      tag_232\n      jump\t// in\n    tag_323:\n        /* \"#utility.yul\":2498:2561   */\n      swap2\n      pop\n        /* \"#utility.yul\":2453:2571   */\n      pop\n        /* \"#utility.yul\":1959:2578   */\n      swap3\n      pop\n      swap3\n      pop\n      swap3\n      jump\t// out\n        /* \"#utility.yul\":2584:3058   */\n    tag_32:\n        /* \"#utility.yul\":2652:2658   */\n      0x00\n        /* \"#utility.yul\":2660:2666   */\n      dup1\n        /* \"#utility.yul\":2709:2711   */\n      0x40\n        /* \"#utility.yul\":2697:2706   */\n      dup4\n        /* \"#utility.yul\":2688:2695   */\n      dup6\n        /* \"#utility.yul\":2684:2707   */\n      sub\n        /* \"#utility.yul\":2680:2712   */\n      slt\n        /* \"#utility.yul\":2677:2796   */\n      iszero\n      tag_325\n      jumpi\n        /* \"#utility.yul\":2715:2794   */\n      tag_326\n      tag_222\n      jump\t// in\n    tag_326:\n        /* \"#utility.yul\":2677:2796   */\n    tag_325:\n        /* \"#utility.yul\":2835:2836   */\n      0x00\n        /* \"#utility.yul\":2860:2913   */\n      tag_327\n        /* \"#utility.yul\":2905:2912   */\n      dup6\n        /* \"#utility.yul\":2896:2902   */\n      dup3\n        /* \"#utility.yul\":2885:2894   */\n      dup7\n        /* \"#utility.yul\":2881:2903   */\n      add\n        /* \"#utility.yul\":2860:2913   */\n      tag_227\n      jump\t// in\n    tag_327:\n        /* \"#utility.yul\":2850:2913   */\n      swap3\n      pop\n        /* \"#utility.yul\":2806:2923   */\n      pop\n        /* \"#utility.yul\":2962:2964   */\n      0x20\n        /* \"#utility.yul\":2988:3041   */\n      tag_328\n        /* \"#utility.yul\":3033:3040   */\n      dup6\n        /* \"#utility.yul\":3024:3030   */\n      dup3\n        /* \"#utility.yul\":3013:3022   */\n      dup7\n        /* \"#utility.yul\":3009:3031   */\n      add\n        /* \"#utility.yul\":2988:3041   */\n      tag_232\n      jump\t// in\n    tag_328:\n        /* \"#utility.yul\":2978:3041   */\n      swap2\n      pop\n        /* \"#utility.yul\":2933:3051   */\n      pop\n        /* \"#utility.yul\":2584:3058   */\n      swap3\n      pop\n      swap3\n      swap1\n      pop\n      jump\t// out\n        /* \"#utility.yul\":3064:3182   */\n    tag_233:\n        /* \"#utility.yul\":3151:3175   */\n      tag_330\n        /* \"#utility.yul\":3169:3174   */\n      dup2\n        /* \"#utility.yul\":3151:3175   */\n      tag_230\n      jump\t// in\n    tag_330:\n        /* \"#utility.yul\":3146:3149   */\n      dup3\n        /* \"#utility.yul\":3139:3176   */\n      mstore\n        /* \"#utility.yul\":3064:3182   */\n      pop\n      pop\n      jump\t// out\n        /* \"#utility.yul\":3188:3410   */\n    tag_35:\n        /* \"#utility.yul\":3281:3285   */\n      0x00\n        /* \"#utility.yul\":3319:3321   */\n      0x20\n        /* \"#utility.yul\":3308:3317   */\n      dup3\n        /* \"#utility.yul\":3304:3322   */\n      add\n        /* \"#utility.yul\":3296:3322   */\n      swap1\n      pop\n        /* \"#utility.yul\":3332:3403   */\n      tag_332\n        /* \"#utility.yul\":3400:3401   */\n      0x00\n        /* \"#utility.yul\":3389:3398   */\n      dup4\n        /* \"#utility.yul\":3385:3402   */\n      add\n        /* \"#utility.yul\":3376:3382   */\n      dup5\n        /* \"#utility.yul\":3332:3403   */\n      tag_233\n      jump\t// in\n    tag_332:\n        /* \"#utility.yul\":3188:3410   */\n      swap3\n      swap2\n      pop\n      pop\n      jump\t// out\n        /* \"#utility.yul\":3416:3533   */\n    tag_234:\n        /* \"#utility.yul\":3525:3526   */\n      0x00\n        /* \"#utility.yul\":3522:3523   */\n      dup1\n        /* \"#utility.yul\":3515:3527   */\n      revert\n        /* \"#utility.yul\":3539:3656   */\n    tag_235:\n        /* \"#utility.yul\":3648:3649   */\n      0x00\n        /* \"#utility.yul\":3645:3646   */\n      dup1\n        /* \"#utility.yul\":3638:3650   */\n      revert\n        /* \"#utility.yul\":3662:3764   */\n    tag_236:\n        /* \"#utility.yul\":3703:3709   */\n      0x00\n        /* \"#utility.yul\":3754:3756   */\n      0x1f\n        /* \"#utility.yul\":3750:3757   */\n      not\n        /* \"#utility.yul\":3745:3747   */\n      0x1f\n        /* \"#utility.yul\":3738:3743   */\n      dup4\n        /* \"#utility.yul\":3734:3748   */\n      add\n        /* \"#utility.yul\":3730:3758   */\n      and\n        /* \"#utility.yul\":3720:3758   */\n      swap1\n      pop\n        /* \"#utility.yul\":3662:3764   */\n      swap2\n      swap1\n      pop\n      jump\t// out\n        /* \"#utility.yul\":3770:3950   */\n    tag_237:\n        /* \"#utility.yul\":3818:3895   */\n      0x4e487b7100000000000000000000000000000000000000000000000000000000\n        /* \"#utility.yul\":3815:3816   */\n      0x00\n        /* \"#utility.yul\":3808:3896   */\n      mstore\n        /* \"#utility.yul\":3915:3919   */\n      0x41\n        /* \"#utility.yul\":3912:3913   */\n      0x04\n        /* \"#utility.yul\":3905:3920   */\n      mstore\n        /* \"#utility.yul\":3939:3943   */\n      0x24\n        /* \"#utility.yul\":3936:3937   */\n      0x00\n        /* \"#utility.yul\":3929:3944   */\n      revert\n        /* \"#utility.yul\":3956:4237   */\n    tag_238:\n        /* \"#utility.yul\":4039:4066   */\n      tag_338\n        /* \"#utility.yul\":4061:4065   */\n      dup3\n        /* \"#utility.yul\":4039:4066   */\n      tag_236\n      jump\t// in\n    tag_338:\n        /* \"#utility.yul\":4031:4037   */\n      dup2\n        /* \"#utility.yul\":4027:4067   */\n      add\n        /* \"#utility.yul\":4169:4175   */\n      dup2\n        /* \"#utility.yul\":4157:4167   */\n      dup2\n        /* \"#utility.yul\":4154:4176   */\n      lt\n        /* \"#utility.yul\":4133:4151   */\n      0xffffffffffffffff\n        /* \"#utility.yul\":4121:4131   */\n      dup3\n        /* \"#utility.yul\":4118:4152   */\n      gt\n        /* \"#utility.yul\":4115:4177   */\n      or\n        /* \"#utility.yul\":4112:4200   */\n      iszero\n      tag_339\n      jumpi\n        /* \"#utility.yul\":4180:4198   */\n      tag_340\n      tag_237\n      jump\t// in\n    tag_340:\n        /* \"#utility.yul\":4112:4200   */\n    tag_339:\n        /* \"#utility.yul\":4220:4230   */\n      dup1\n        /* \"#utility.yul\":4216:4218   */\n      0x40\n        /* \"#utility.yul\":4209:4231   */\n      mstore\n        /* \"#utility.yul\":3999:4237   */\n      pop\n        /* \"#utility.yul\":3956:4237   */\n      pop\n      pop\n      jump\t// out\n        /* \"#utility.yul\":4243:4372   */\n    tag_239:\n        /* \"#utility.yul\":4277:4283   */\n      0x00\n        /* \"#utility.yul\":4304:4324   */\n      tag_342\n      tag_221\n      jump\t// in\n    tag_342:\n        /* \"#utility.yul\":4294:4324   */\n      swap1\n      pop\n        /* \"#utility.yul\":4333:4366   */\n      tag_343\n        /* \"#utility.yul\":4361:4365   */\n      dup3\n        /* \"#utility.yul\":4353:4359   */\n      dup3\n        /* \"#utility.yul\":4333:4366   */\n      tag_238\n      jump\t// in\n    tag_343:\n        /* \"#utility.yul\":4243:4372   */\n      swap2\n      swap1\n      pop\n      jump\t// out\n        /* \"#utility.yul\":4378:4685   */\n    tag_240:\n        /* \"#utility.yul\":4439:4443   */\n      0x00\n        /* \"#utility.yul\":4529:4547   */\n      0xffffffffffffffff\n        /* \"#utility.yul\":4521:4527   */\n      dup3\n        /* \"#utility.yul\":4518:4548   */\n      gt\n        /* \"#utility.yul\":4515:4571   */\n      iszero\n      tag_345\n      jumpi\n        /* \"#utility.yul\":4551:4569   */\n      tag_346\n      tag_237\n      jump\t// in\n    tag_346:\n        /* \"#utility.yul\":4515:4571   */\n    tag_345:\n        /* \"#utility.yul\":4589:4618   */\n      tag_347\n        /* \"#utility.yul\":4611:4617   */\n      dup3\n        /* \"#utility.yul\":4589:4618   */\n      tag_236\n      jump\t// in\n    tag_347:\n        /* \"#utility.yul\":4581:4618   */\n      swap1\n      pop\n        /* \"#utility.yul\":4673:4677   */\n      0x20\n        /* \"#utility.yul\":4667:4671   */\n      dup2\n        /* \"#utility.yul\":4663:4678   */\n      add\n        /* \"#utility.yul\":4655:4678   */\n      swap1\n      pop\n        /* \"#utility.yul\":4378:4685   */\n      swap2\n      swap1\n      pop\n      jump\t// out\n        /* \"#utility.yul\":4691:4837   */\n    tag_241:\n        /* \"#utility.yul\":4788:4794   */\n      dup3\n        /* \"#utility.yul\":4783:4786   */\n      dup2\n        /* \"#utility.yul\":4778:4781   */\n      dup4\n        /* \"#utility.yul\":4765:4795   */\n      calldatacopy\n        /* \"#utility.yul\":4829:4830   */\n      0x00\n        /* \"#utility.yul\":4820:4826   */\n      dup4\n        /* \"#utility.yul\":4815:4818   */\n      dup4\n        /* \"#utility.yul\":4811:4827   */\n      add\n        /* \"#utility.yul\":4804:4831   */\n      mstore\n        /* \"#utility.yul\":4691:4837   */\n      pop\n      pop\n      pop\n      jump\t// out\n        /* \"#utility.yul\":4843:5266   */\n    tag_242:\n        /* \"#utility.yul\":4920:4925   */\n      0x00\n        /* \"#utility.yul\":4945:5010   */\n      tag_350\n        /* \"#utility.yul\":4961:5009   */\n      tag_351\n        /* \"#utility.yul\":5002:5008   */\n      dup5\n        /* \"#utility.yul\":4961:5009   */\n      tag_240\n      jump\t// in\n    tag_351:\n        /* \"#utility.yul\":4945:5010   */\n      tag_239\n      jump\t// in\n    tag_350:\n        /* \"#utility.yul\":4936:5010   */\n      swap1\n      pop\n        /* \"#utility.yul\":5033:5039   */\n      dup3\n        /* \"#utility.yul\":5026:5031   */\n      dup2\n        /* \"#utility.yul\":5019:5040   */\n      mstore\n        /* \"#utility.yul\":5071:5075   */\n      0x20\n        /* \"#utility.yul\":5064:5069   */\n      dup2\n        /* \"#utility.yul\":5060:5076   */\n      add\n        /* \"#utility.yul\":5109:5112   */\n      dup5\n        /* \"#utility.yul\":5100:5106   */\n      dup5\n        /* \"#utility.yul\":5095:5098   */\n      dup5\n        /* \"#utility.yul\":5091:5107   */\n      add\n        /* \"#utility.yul\":5088:5113   */\n      gt\n        /* \"#utility.yul\":5085:5197   */\n      iszero\n      tag_352\n      jumpi\n        /* \"#utility.yul\":5116:5195   */\n      tag_353\n      tag_235\n      jump\t// in\n    tag_353:\n        /* \"#utility.yul\":5085:5197   */\n    tag_352:\n        /* \"#utility.yul\":5206:5260   */\n      tag_354\n        /* \"#utility.yul\":5253:5259   */\n      dup5\n        /* \"#utility.yul\":5248:5251   */\n      dup3\n        /* \"#utility.yul\":5243:5246   */\n      dup6\n        /* \"#utility.yul\":5206:5260   */\n      tag_241\n      jump\t// in\n    tag_354:\n        /* \"#utility.yul\":4926:5266   */\n      pop\n        /* \"#utility.yul\":4843:5266   */\n      swap4\n      swap3\n      pop\n      pop\n      pop\n      jump\t// out\n        /* \"#utility.yul\":5285:5623   */\n    tag_243:\n        /* \"#utility.yul\":5340:5345   */\n      0x00\n        /* \"#utility.yul\":5389:5392   */\n      dup3\n        /* \"#utility.yul\":5382:5386   */\n      0x1f\n        /* \"#utility.yul\":5374:5380   */\n      dup4\n        /* \"#utility.yul\":5370:5387   */\n      add\n        /* \"#utility.yul\":5366:5393   */\n      slt\n        /* \"#utility.yul\":5356:5478   */\n      tag_356\n      jumpi\n        /* \"#utility.yul\":5397:5476   */\n      tag_357\n      tag_234\n      jump\t// in\n    tag_357:\n        /* \"#utility.yul\":5356:5478   */\n    tag_356:\n        /* \"#utility.yul\":5514:5520   */\n      dup2\n        /* \"#utility.yul\":5501:5521   */\n      calldataload\n        /* \"#utility.yul\":5539:5617   */\n      tag_358\n        /* \"#utility.yul\":5613:5616   */\n      dup5\n        /* \"#utility.yul\":5605:5611   */\n      dup3\n        /* \"#utility.yul\":5598:5602   */\n      0x20\n        /* \"#utility.yul\":5590:5596   */\n      dup7\n        /* \"#utility.yul\":5586:5603   */\n      add\n        /* \"#utility.yul\":5539:5617   */\n      tag_242\n      jump\t// in\n    tag_358:\n        /* \"#utility.yul\":5530:5617   */\n      swap2\n      pop\n        /* \"#utility.yul\":5346:5623   */\n      pop\n        /* \"#utility.yul\":5285:5623   */\n      swap3\n      swap2\n      pop\n      pop\n      jump\t// out\n        /* \"#utility.yul\":5629:6718   */\n    tag_38:\n        /* \"#utility.yul\":5733:5739   */\n      0x00\n        /* \"#utility.yul\":5741:5747   */\n      dup1\n        /* \"#utility.yul\":5749:5755   */\n      0x00\n        /* \"#utility.yul\":5757:5763   */\n      dup1\n        /* \"#utility.yul\":5765:5771   */\n      0x00\n        /* \"#utility.yul\":5814:5817   */\n      0xa0\n        /* \"#utility.yul\":5802:5811   */\n      dup7\n        /* \"#utility.yul\":5793:5800   */\n      dup9\n        /* \"#utility.yul\":5789:5812   */\n      sub\n        /* \"#utility.yul\":5785:5818   */\n      slt\n        /* \"#utility.yul\":5782:5902   */\n      iszero\n      tag_360\n      jumpi\n        /* \"#utility.yul\":5821:5900   */\n      tag_361\n      tag_222\n      jump\t// in\n    tag_361:\n        /* \"#utility.yul\":5782:5902   */\n    tag_360:\n        /* \"#utility.yul\":5941:5942   */\n      0x00\n        /* \"#utility.yul\":5966:6019   */\n      tag_362\n        /* \"#utility.yul\":6011:6018   */\n      dup9\n        /* \"#utility.yul\":6002:6008   */\n      dup3\n        /* \"#utility.yul\":5991:6000   */\n      dup10\n        /* \"#utility.yul\":5987:6009   */\n      add\n        /* \"#utility.yul\":5966:6019   */\n      tag_227\n      jump\t// in\n    tag_362:\n        /* \"#utility.yul\":5956:6019   */\n      swap6\n      pop\n        /* \"#utility.yul\":5912:6029   */\n      pop\n        /* \"#utility.yul\":6068:6070   */\n      0x20\n        /* \"#utility.yul\":6094:6147   */\n      tag_363\n        /* \"#utility.yul\":6139:6146   */\n      dup9\n        /* \"#utility.yul\":6130:6136   */\n      dup3\n        /* \"#utility.yul\":6119:6128   */\n      dup10\n        /* \"#utility.yul\":6115:6137   */\n      add\n        /* \"#utility.yul\":6094:6147   */\n      tag_232\n      jump\t// in\n    tag_363:\n        /* \"#utility.yul\":6084:6147   */\n      swap5\n      pop\n        /* \"#utility.yul\":6039:6157   */\n      pop\n        /* \"#utility.yul\":6196:6198   */\n      0x40\n        /* \"#utility.yul\":6222:6275   */\n      tag_364\n        /* \"#utility.yul\":6267:6274   */\n      dup9\n        /* \"#utility.yul\":6258:6264   */\n      dup3\n        /* \"#utility.yul\":6247:6256   */\n      dup10\n        /* \"#utility.yul\":6243:6265   */\n      add\n        /* \"#utility.yul\":6222:6275   */\n      tag_232\n      jump\t// in\n    tag_364:\n        /* \"#utility.yul\":6212:6275   */\n      swap4\n      pop\n        /* \"#utility.yul\":6167:6285   */\n      pop\n        /* \"#utility.yul\":6324:6326   */\n      0x60\n        /* \"#utility.yul\":6350:6403   */\n      tag_365\n        /* \"#utility.yul\":6395:6402   */\n      dup9\n        /* \"#utility.yul\":6386:6392   */\n      dup3\n        /* \"#utility.yul\":6375:6384   */\n      dup10\n        /* \"#utility.yul\":6371:6393   */\n      add\n        /* \"#utility.yul\":6350:6403   */\n      tag_232\n      jump\t// in\n    tag_365:\n        /* \"#utility.yul\":6340:6403   */\n      swap3\n      pop\n        /* \"#utility.yul\":6295:6413   */\n      pop\n        /* \"#utility.yul\":6480:6483   */\n      0x80\n        /* \"#utility.yul\":6469:6478   */\n      dup7\n        /* \"#utility.yul\":6465:6484   */\n      add\n        /* \"#utility.yul\":6452:6485   */\n      calldataload\n        /* \"#utility.yul\":6512:6530   */\n      0xffffffffffffffff\n        /* \"#utility.yul\":6504:6510   */\n      dup2\n        /* \"#utility.yul\":6501:6531   */\n      gt\n        /* \"#utility.yul\":6498:6615   */\n      iszero\n      tag_366\n      jumpi\n        /* \"#utility.yul\":6534:6613   */\n      tag_367\n      tag_223\n      jump\t// in\n    tag_367:\n        /* \"#utility.yul\":6498:6615   */\n    tag_366:\n        /* \"#utility.yul\":6639:6701   */\n      tag_368\n        /* \"#utility.yul\":6693:6700   */\n      dup9\n        /* \"#utility.yul\":6684:6690   */\n      dup3\n        /* \"#utility.yul\":6673:6682   */\n      dup10\n        /* \"#utility.yul\":6669:6691   */\n      add\n        /* \"#utility.yul\":6639:6701   */\n      tag_243\n      jump\t// in\n    tag_368:\n        /* \"#utility.yul\":6629:6701   */\n      swap2\n      pop\n        /* \"#utility.yul\":6423:6711   */\n      pop\n        /* \"#utility.yul\":5629:6718   */\n      swap3\n      swap6\n      pop\n      swap3\n      swap6\n      swap1\n      swap4\n      pop\n      jump\t// out\n        /* \"#utility.yul\":6724:7959   */\n    tag_43:\n        /* \"#utility.yul\":6837:6843   */\n      0x00\n        /* \"#utility.yul\":6845:6851   */\n      dup1\n        /* \"#utility.yul\":6853:6859   */\n      0x00\n        /* \"#utility.yul\":6861:6867   */\n      dup1\n        /* \"#utility.yul\":6869:6875   */\n      0x00\n        /* \"#utility.yul\":6877:6883   */\n      dup1\n        /* \"#utility.yul\":6926:6929   */\n      0xc0\n        /* \"#utility.yul\":6914:6923   */\n      dup8\n        /* \"#utility.yul\":6905:6912   */\n      dup10\n        /* \"#utility.yul\":6901:6924   */\n      sub\n        /* \"#utility.yul\":6897:6930   */\n      slt\n        /* \"#utility.yul\":6894:7014   */\n      iszero\n      tag_370\n      jumpi\n        /* \"#utility.yul\":6933:7012   */\n      tag_371\n      tag_222\n      jump\t// in\n    tag_371:\n        /* \"#utility.yul\":6894:7014   */\n    tag_370:\n        /* \"#utility.yul\":7053:7054   */\n      0x00\n        /* \"#utility.yul\":7078:7131   */\n      tag_372\n        /* \"#utility.yul\":7123:7130   */\n      dup10\n        /* \"#utility.yul\":7114:7120   */\n      dup3\n        /* \"#utility.yul\":7103:7112   */\n      dup11\n        /* \"#utility.yul\":7099:7121   */\n      add\n        /* \"#utility.yul\":7078:7131   */\n      tag_227\n      jump\t// in\n    tag_372:\n        /* \"#utility.yul\":7068:7131   */\n      swap7\n      pop\n        /* \"#utility.yul\":7024:7141   */\n      pop\n        /* \"#utility.yul\":7180:7182   */\n      0x20\n        /* \"#utility.yul\":7206:7259   */\n      tag_373\n        /* \"#utility.yul\":7251:7258   */\n      dup10\n        /* \"#utility.yul\":7242:7248   */\n      dup3\n        /* \"#utility.yul\":7231:7240   */\n      dup11\n        /* \"#utility.yul\":7227:7249   */\n      add\n        /* \"#utility.yul\":7206:7259   */\n      tag_227\n      jump\t// in\n    tag_373:\n        /* \"#utility.yul\":7196:7259   */\n      swap6\n      pop\n        /* \"#utility.yul\":7151:7269   */\n      pop\n        /* \"#utility.yul\":7308:7310   */\n      0x40\n        /* \"#utility.yul\":7334:7387   */\n      tag_374\n        /* \"#utility.yul\":7379:7386   */\n      dup10\n        /* \"#utility.yul\":7370:7376   */\n      dup3\n        /* \"#utility.yul\":7359:7368   */\n      dup11\n        /* \"#utility.yul\":7355:7377   */\n      add\n        /* \"#utility.yul\":7334:7387   */\n      tag_232\n      jump\t// in\n    tag_374:\n        /* \"#utility.yul\":7324:7387   */\n      swap5\n      pop\n        /* \"#utility.yul\":7279:7397   */\n      pop\n        /* \"#utility.yul\":7436:7438   */\n      0x60\n        /* \"#utility.yul\":7462:7515   */\n      tag_375\n        /* \"#utility.yul\":7507:7514   */\n      dup10\n        /* \"#utility.yul\":7498:7504   */\n      dup3\n        /* \"#utility.yul\":7487:7496   */\n      dup11\n        /* \"#utility.yul\":7483:7505   */\n      add\n        /* \"#utility.yul\":7462:7515   */\n      tag_232\n      jump\t// in\n    tag_375:\n        /* \"#utility.yul\":7452:7515   */\n      swap4\n      pop\n        /* \"#utility.yul\":7407:7525   */\n      pop\n        /* \"#utility.yul\":7564:7567   */\n      0x80\n        /* \"#utility.yul\":7591:7644   */\n      tag_376\n        /* \"#utility.yul\":7636:7643   */\n      dup10\n        /* \"#utility.yul\":7627:7633   */\n      dup3\n        /* \"#utility.yul\":7616:7625   */\n      dup11\n        /* \"#utility.yul\":7612:7634   */\n      add\n        /* \"#utility.yul\":7591:7644   */\n      tag_232\n      jump\t// in\n    tag_376:\n        /* \"#utility.yul\":7581:7644   */\n      swap3\n      pop\n        /* \"#utility.yul\":7535:7654   */\n      pop\n        /* \"#utility.yul\":7721:7724   */\n      0xa0\n        /* \"#utility.yul\":7710:7719   */\n      dup8\n        /* \"#utility.yul\":7706:7725   */\n      add\n        /* \"#utility.yul\":7693:7726   */\n      calldataload\n        /* \"#utility.yul\":7753:7771   */\n      0xffffffffffffffff\n        /* \"#utility.yul\":7745:7751   */\n      dup2\n        /* \"#utility.yul\":7742:7772   */\n      gt\n        /* \"#utility.yul\":7739:7856   */\n      iszero\n      tag_377\n      jumpi\n        /* \"#utility.yul\":7775:7854   */\n      tag_378\n      tag_223\n      jump\t// in\n    tag_378:\n        /* \"#utility.yul\":7739:7856   */\n    tag_377:\n        /* \"#utility.yul\":7880:7942   */\n      tag_379\n        /* \"#utility.yul\":7934:7941   */\n      dup10\n        /* \"#utility.yul\":7925:7931   */\n      dup3\n        /* \"#utility.yul\":7914:7923   */\n      dup11\n        /* \"#utility.yul\":7910:7932   */\n      add\n        /* \"#utility.yul\":7880:7942   */\n      tag_243\n      jump\t// in\n    tag_379:\n        /* \"#utility.yul\":7870:7942   */\n      swap2\n      pop\n        /* \"#utility.yul\":7664:7952   */\n      pop\n        /* \"#utility.yul\":6724:7959   */\n      swap3\n      swap6\n      pop\n      swap3\n      swap6\n      pop\n      swap3\n      swap6\n      jump\t// out\n        /* \"#utility.yul\":7965:8908   */\n    tag_48:\n        /* \"#utility.yul\":8060:8066   */\n      0x00\n        /* \"#utility.yul\":8068:8074   */\n      dup1\n        /* \"#utility.yul\":8076:8082   */\n      0x00\n        /* \"#utility.yul\":8084:8090   */\n      dup1\n        /* \"#utility.yul\":8133:8136   */\n      0x80\n        /* \"#utility.yul\":8121:8130   */\n      dup6\n        /* \"#utility.yul\":8112:8119   */\n      dup8\n        /* \"#utility.yul\":8108:8131   */\n      sub\n        /* \"#utility.yul\":8104:8137   */\n      slt\n        /* \"#utility.yul\":8101:8221   */\n      iszero\n      tag_381\n      jumpi\n        /* \"#utility.yul\":8140:8219   */\n      tag_382\n      tag_222\n      jump\t// in\n    tag_382:\n        /* \"#utility.yul\":8101:8221   */\n    tag_381:\n        /* \"#utility.yul\":8260:8261   */\n      0x00\n        /* \"#utility.yul\":8285:8338   */\n      tag_383\n        /* \"#utility.yul\":8330:8337   */\n      dup8\n        /* \"#utility.yul\":8321:8327   */\n      dup3\n        /* \"#utility.yul\":8310:8319   */\n      dup9\n        /* \"#utility.yul\":8306:8328   */\n      add\n        /* \"#utility.yul\":8285:8338   */\n      tag_227\n      jump\t// in\n    tag_383:\n        /* \"#utility.yul\":8275:8338   */\n      swap5\n      pop\n        /* \"#utility.yul\":8231:8348   */\n      pop\n        /* \"#utility.yul\":8387:8389   */\n      0x20\n        /* \"#utility.yul\":8413:8466   */\n      tag_384\n        /* \"#utility.yul\":8458:8465   */\n      dup8\n        /* \"#utility.yul\":8449:8455   */\n      dup3\n        /* \"#utility.yul\":8438:8447   */\n      dup9\n        /* \"#utility.yul\":8434:8456   */\n      add\n        /* \"#utility.yul\":8413:8466   */\n      tag_232\n      jump\t// in\n    tag_384:\n        /* \"#utility.yul\":8403:8466   */\n      swap4\n      pop\n        /* \"#utility.yul\":8358:8476   */\n      pop\n        /* \"#utility.yul\":8515:8517   */\n      0x40\n        /* \"#utility.yul\":8541:8594   */\n      tag_385\n        /* \"#utility.yul\":8586:8593   */\n      dup8\n        /* \"#utility.yul\":8577:8583   */\n      dup3\n        /* \"#utility.yul\":8566:8575   */\n      dup9\n        /* \"#utility.yul\":8562:8584   */\n      add\n        /* \"#utility.yul\":8541:8594   */\n      tag_232\n      jump\t// in\n    tag_385:\n        /* \"#utility.yul\":8531:8594   */\n      swap3\n      pop\n        /* \"#utility.yul\":8486:8604   */\n      pop\n        /* \"#utility.yul\":8671:8673   */\n      0x60\n        /* \"#utility.yul\":8660:8669   */\n      dup6\n        /* \"#utility.yul\":8656:8674   */\n      add\n        /* \"#utility.yul\":8643:8675   */\n      calldataload\n        /* \"#utility.yul\":8702:8720   */\n      0xffffffffffffffff\n        /* \"#utility.yul\":8694:8700   */\n      dup2\n        /* \"#utility.yul\":8691:8721   */\n      gt\n        /* \"#utility.yul\":8688:8805   */\n      iszero\n      tag_386\n      jumpi\n        /* \"#utility.yul\":8724:8803   */\n      tag_387\n      tag_223\n      jump\t// in\n    tag_387:\n        /* \"#utility.yul\":8688:8805   */\n    tag_386:\n        /* \"#utility.yul\":8829:8891   */\n      tag_388\n        /* \"#utility.yul\":8883:8890   */\n      dup8\n        /* \"#utility.yul\":8874:8880   */\n      dup3\n        /* \"#utility.yul\":8863:8872   */\n      dup9\n        /* \"#utility.yul\":8859:8881   */\n      add\n        /* \"#utility.yul\":8829:8891   */\n      tag_243\n      jump\t// in\n    tag_388:\n        /* \"#utility.yul\":8819:8891   */\n      swap2\n      pop\n        /* \"#utility.yul\":8614:8901   */\n      pop\n        /* \"#utility.yul\":7965:8908   */\n      swap3\n      swap6\n      swap2\n      swap5\n      pop\n      swap3\n      pop\n      jump\t// out\n        /* \"#utility.yul\":8914:9022   */\n    tag_244:\n        /* \"#utility.yul\":8991:9015   */\n      tag_390\n        /* \"#utility.yul\":9009:9014   */\n      dup2\n        /* \"#utility.yul\":8991:9015   */\n      tag_225\n      jump\t// in\n    tag_390:\n        /* \"#utility.yul\":8986:8989   */\n      dup3\n        /* \"#utility.yul\":8979:9016   */\n      mstore\n        /* \"#utility.yul\":8914:9022   */\n      pop\n      pop\n      jump\t// out\n        /* \"#utility.yul\":9028:9136   */\n    tag_245:\n        /* \"#utility.yul\":9105:9129   */\n      tag_392\n        /* \"#utility.yul\":9123:9128   */\n      dup2\n        /* \"#utility.yul\":9105:9129   */\n      tag_230\n      jump\t// in\n    tag_392:\n        /* \"#utility.yul\":9100:9103   */\n      dup3\n        /* \"#utility.yul\":9093:9130   */\n      mstore\n        /* \"#utility.yul\":9028:9136   */\n      pop\n      pop\n      jump\t// out\n        /* \"#utility.yul\":9216:10264   */\n    tag_246:\n        /* \"#utility.yul\":9365:9369   */\n      0xa0\n        /* \"#utility.yul\":9360:9363   */\n      dup3\n        /* \"#utility.yul\":9356:9370   */\n      add\n        /* \"#utility.yul\":9457:9461   */\n      0x00\n        /* \"#utility.yul\":9450:9455   */\n      dup3\n        /* \"#utility.yul\":9446:9462   */\n      add\n        /* \"#utility.yul\":9440:9463   */\n      mload\n        /* \"#utility.yul\":9476:9539   */\n      tag_394\n        /* \"#utility.yul\":9533:9537   */\n      0x00\n        /* \"#utility.yul\":9528:9531   */\n      dup6\n        /* \"#utility.yul\":9524:9538   */\n      add\n        /* \"#utility.yul\":9510:9522   */\n      dup3\n        /* \"#utility.yul\":9476:9539   */\n      tag_244\n      jump\t// in\n    tag_394:\n        /* \"#utility.yul\":9380:9549   */\n      pop\n        /* \"#utility.yul\":9635:9639   */\n      0x20\n        /* \"#utility.yul\":9628:9633   */\n      dup3\n        /* \"#utility.yul\":9624:9640   */\n      add\n        /* \"#utility.yul\":9618:9641   */\n      mload\n        /* \"#utility.yul\":9654:9717   */\n      tag_395\n        /* \"#utility.yul\":9711:9715   */\n      0x20\n        /* \"#utility.yul\":9706:9709   */\n      dup6\n        /* \"#utility.yul\":9702:9716   */\n      add\n        /* \"#utility.yul\":9688:9700   */\n      dup3\n        /* \"#utility.yul\":9654:9717   */\n      tag_244\n      jump\t// in\n    tag_395:\n        /* \"#utility.yul\":9559:9727   */\n      pop\n        /* \"#utility.yul\":9810:9814   */\n      0x40\n        /* \"#utility.yul\":9803:9808   */\n      dup3\n        /* \"#utility.yul\":9799:9815   */\n      add\n        /* \"#utility.yul\":9793:9816   */\n      mload\n        /* \"#utility.yul\":9829:9892   */\n      tag_396\n        /* \"#utility.yul\":9886:9890   */\n      0x40\n        /* \"#utility.yul\":9881:9884   */\n      dup6\n        /* \"#utility.yul\":9877:9891   */\n      add\n        /* \"#utility.yul\":9863:9875   */\n      dup3\n        /* \"#utility.yul\":9829:9892   */\n      tag_244\n      jump\t// in\n    tag_396:\n        /* \"#utility.yul\":9737:9902   */\n      pop\n        /* \"#utility.yul\":9986:9990   */\n      0x60\n        /* \"#utility.yul\":9979:9984   */\n      dup3\n        /* \"#utility.yul\":9975:9991   */\n      add\n        /* \"#utility.yul\":9969:9992   */\n      mload\n        /* \"#utility.yul\":10005:10068   */\n      tag_397\n        /* \"#utility.yul\":10062:10066   */\n      0x60\n        /* \"#utility.yul\":10057:10060   */\n      dup6\n        /* \"#utility.yul\":10053:10067   */\n      add\n        /* \"#utility.yul\":10039:10051   */\n      dup3\n        /* \"#utility.yul\":10005:10068   */\n      tag_245\n      jump\t// in\n    tag_397:\n        /* \"#utility.yul\":9912:10078   */\n      pop\n        /* \"#utility.yul\":10165:10169   */\n      0x80\n        /* \"#utility.yul\":10158:10163   */\n      dup3\n        /* \"#utility.yul\":10154:10170   */\n      add\n        /* \"#utility.yul\":10148:10171   */\n      mload\n        /* \"#utility.yul\":10184:10247   */\n      tag_398\n        /* \"#utility.yul\":10241:10245   */\n      0x80\n        /* \"#utility.yul\":10236:10239   */\n      dup6\n        /* \"#utility.yul\":10232:10246   */\n      add\n        /* \"#utility.yul\":10218:10230   */\n      dup3\n        /* \"#utility.yul\":10184:10247   */\n      tag_245\n      jump\t// in\n    tag_398:\n        /* \"#utility.yul\":10088:10257   */\n      pop\n        /* \"#utility.yul\":9334:10264   */\n      pop\n        /* \"#utility.yul\":9216:10264   */\n      pop\n      pop\n      jump\t// out\n        /* \"#utility.yul\":10270:10597   */\n    tag_55:\n        /* \"#utility.yul\":10415:10419   */\n      0x00\n        /* \"#utility.yul\":10453:10456   */\n      0xa0\n        /* \"#utility.yul\":10442:10451   */\n      dup3\n        /* \"#utility.yul\":10438:10457   */\n      add\n        /* \"#utility.yul\":10430:10457   */\n      swap1\n      pop\n        /* \"#utility.yul\":10467:10590   */\n      tag_400\n        /* \"#utility.yul\":10587:10588   */\n      0x00\n        /* \"#utility.yul\":10576:10585   */\n      dup4\n        /* \"#utility.yul\":10572:10589   */\n      add\n        /* \"#utility.yul\":10563:10569   */\n      dup5\n        /* \"#utility.yul\":10467:10590   */\n      tag_246\n      jump\t// in\n    tag_400:\n        /* \"#utility.yul\":10270:10597   */\n      swap3\n      swap2\n      pop\n      pop\n      jump\t// out\n        /* \"#utility.yul\":10603:10752   */\n    tag_247:\n        /* \"#utility.yul\":10639:10646   */\n      0x00\n        /* \"#utility.yul\":10679:10745   */\n      0xffffffff00000000000000000000000000000000000000000000000000000000\n        /* \"#utility.yul\":10672:10677   */\n      dup3\n        /* \"#utility.yul\":10668:10746   */\n      and\n        /* \"#utility.yul\":10657:10746   */\n      swap1\n      pop\n        /* \"#utility.yul\":10603:10752   */\n      swap2\n      swap1\n      pop\n      jump\t// out\n        /* \"#utility.yul\":10758:10873   */\n    tag_248:\n        /* \"#utility.yul\":10843:10866   */\n      tag_403\n        /* \"#utility.yul\":10860:10865   */\n      dup2\n        /* \"#utility.yul\":10843:10866   */\n      tag_247\n      jump\t// in\n    tag_403:\n        /* \"#utility.yul\":10838:10841   */\n      dup3\n        /* \"#utility.yul\":10831:10867   */\n      mstore\n        /* \"#utility.yul\":10758:10873   */\n      pop\n      pop\n      jump\t// out\n        /* \"#utility.yul\":10879:11097   */\n    tag_60:\n        /* \"#utility.yul\":10970:10974   */\n      0x00\n        /* \"#utility.yul\":11008:11010   */\n      0x20\n        /* \"#utility.yul\":10997:11006   */\n      dup3\n        /* \"#utility.yul\":10993:11011   */\n      add\n        /* \"#utility.yul\":10985:11011   */\n      swap1\n      pop\n        /* \"#utility.yul\":11021:11090   */\n      tag_405\n        /* \"#utility.yul\":11087:11088   */\n      0x00\n        /* \"#utility.yul\":11076:11085   */\n      dup4\n        /* \"#utility.yul\":11072:11089   */\n      add\n        /* \"#utility.yul\":11063:11069   */\n      dup5\n        /* \"#utility.yul\":11021:11090   */\n      tag_248\n      jump\t// in\n    tag_405:\n        /* \"#utility.yul\":10879:11097   */\n      swap3\n      swap2\n      pop\n      pop\n      jump\t// out\n        /* \"#utility.yul\":11103:11242   */\n    tag_249:\n        /* \"#utility.yul\":11195:11201   */\n      0x00\n        /* \"#utility.yul\":11229:11234   */\n      dup2\n        /* \"#utility.yul\":11223:11235   */\n      mload\n        /* \"#utility.yul\":11213:11235   */\n      swap1\n      pop\n        /* \"#utility.yul\":11103:11242   */\n      swap2\n      swap1\n      pop\n      jump\t// out\n        /* \"#utility.yul\":11248:11457   */\n    tag_250:\n        /* \"#utility.yul\":11372:11383   */\n      0x00\n        /* \"#utility.yul\":11406:11412   */\n      dup3\n        /* \"#utility.yul\":11401:11404   */\n      dup3\n        /* \"#utility.yul\":11394:11413   */\n      mstore\n        /* \"#utility.yul\":11446:11450   */\n      0x20\n        /* \"#utility.yul\":11441:11444   */\n      dup3\n        /* \"#utility.yul\":11437:11451   */\n      add\n        /* \"#utility.yul\":11422:11451   */\n      swap1\n      pop\n        /* \"#utility.yul\":11248:11457   */\n      swap3\n      swap2\n      pop\n      pop\n      jump\t// out\n        /* \"#utility.yul\":11463:11620   */\n    tag_251:\n        /* \"#utility.yul\":11555:11559   */\n      0x00\n        /* \"#utility.yul\":11578:11581   */\n      dup2\n        /* \"#utility.yul\":11570:11581   */\n      swap1\n      pop\n        /* \"#utility.yul\":11608:11612   */\n      0x20\n        /* \"#utility.yul\":11603:11606   */\n      dup3\n        /* \"#utility.yul\":11599:11613   */\n      add\n        /* \"#utility.yul\":11591:11613   */\n      swap1\n      pop\n        /* \"#utility.yul\":11463:11620   */\n      swap2\n      swap1\n      pop\n      jump\t// out\n        /* \"#utility.yul\":11698:12214   */\n    tag_252:\n        /* \"#utility.yul\":11835:11839   */\n      0x40\n        /* \"#utility.yul\":11830:11833   */\n      dup3\n        /* \"#utility.yul\":11826:11840   */\n      add\n        /* \"#utility.yul\":11937:11941   */\n      0x00\n        /* \"#utility.yul\":11930:11935   */\n      dup3\n        /* \"#utility.yul\":11926:11942   */\n      add\n        /* \"#utility.yul\":11920:11943   */\n      mload\n        /* \"#utility.yul\":11956:12019   */\n      tag_410\n        /* \"#utility.yul\":12013:12017   */\n      0x00\n        /* \"#utility.yul\":12008:12011   */\n      dup6\n        /* \"#utility.yul\":12004:12018   */\n      add\n        /* \"#utility.yul\":11990:12002   */\n      dup3\n        /* \"#utility.yul\":11956:12019   */\n      tag_244\n      jump\t// in\n    tag_410:\n        /* \"#utility.yul\":11850:12029   */\n      pop\n        /* \"#utility.yul\":12115:12119   */\n      0x20\n        /* \"#utility.yul\":12108:12113   */\n      dup3\n        /* \"#utility.yul\":12104:12120   */\n      add\n        /* \"#utility.yul\":12098:12121   */\n      mload\n        /* \"#utility.yul\":12134:12197   */\n      tag_411\n        /* \"#utility.yul\":12191:12195   */\n      0x20\n        /* \"#utility.yul\":12186:12189   */\n      dup6\n        /* \"#utility.yul\":12182:12196   */\n      add\n        /* \"#utility.yul\":12168:12180   */\n      dup3\n        /* \"#utility.yul\":12134:12197   */\n      tag_245\n      jump\t// in\n    tag_411:\n        /* \"#utility.yul\":12039:12207   */\n      pop\n        /* \"#utility.yul\":11804:12214   */\n      pop\n        /* \"#utility.yul\":11698:12214   */\n      pop\n      pop\n      jump\t// out\n        /* \"#utility.yul\":12220:12499   */\n    tag_253:\n        /* \"#utility.yul\":12339:12349   */\n      0x00\n        /* \"#utility.yul\":12360:12456   */\n      tag_413\n        /* \"#utility.yul\":12452:12455   */\n      dup4\n        /* \"#utility.yul\":12444:12450   */\n      dup4\n        /* \"#utility.yul\":12360:12456   */\n      tag_252\n      jump\t// in\n    tag_413:\n        /* \"#utility.yul\":12488:12492   */\n      0x40\n        /* \"#utility.yul\":12483:12486   */\n      dup4\n        /* \"#utility.yul\":12479:12493   */\n      add\n        /* \"#utility.yul\":12465:12493   */\n      swap1\n      pop\n        /* \"#utility.yul\":12220:12499   */\n      swap3\n      swap2\n      pop\n      pop\n      jump\t// out\n        /* \"#utility.yul\":12505:12643   */\n    tag_254:\n        /* \"#utility.yul\":12600:12604   */\n      0x00\n        /* \"#utility.yul\":12632:12636   */\n      0x20\n        /* \"#utility.yul\":12627:12630   */\n      dup3\n        /* \"#utility.yul\":12623:12637   */\n      add\n        /* \"#utility.yul\":12615:12637   */\n      swap1\n      pop\n        /* \"#utility.yul\":12505:12643   */\n      swap2\n      swap1\n      pop\n      jump\t// out\n        /* \"#utility.yul\":12725:13657   */\n    tag_255:\n        /* \"#utility.yul\":12894:12897   */\n      0x00\n        /* \"#utility.yul\":12923:13002   */\n      tag_416\n        /* \"#utility.yul\":12996:13001   */\n      dup3\n        /* \"#utility.yul\":12923:13002   */\n      tag_249\n      jump\t// in\n    tag_416:\n        /* \"#utility.yul\":13018:13129   */\n      tag_417\n        /* \"#utility.yul\":13122:13128   */\n      dup2\n        /* \"#utility.yul\":13117:13120   */\n      dup6\n        /* \"#utility.yul\":13018:13129   */\n      tag_250\n      jump\t// in\n    tag_417:\n        /* \"#utility.yul\":13011:13129   */\n      swap4\n      pop\n        /* \"#utility.yul\":13153:13234   */\n      tag_418\n        /* \"#utility.yul\":13228:13233   */\n      dup4\n        /* \"#utility.yul\":13153:13234   */\n      tag_251\n      jump\t// in\n    tag_418:\n        /* \"#utility.yul\":13257:13264   */\n      dup1\n        /* \"#utility.yul\":13288:13289   */\n      0x00\n        /* \"#utility.yul\":13273:13632   */\n    tag_419:\n        /* \"#utility.yul\":13298:13304   */\n      dup4\n        /* \"#utility.yul\":13295:13296   */\n      dup2\n        /* \"#utility.yul\":13292:13305   */\n      lt\n        /* \"#utility.yul\":13273:13632   */\n      iszero\n      tag_421\n      jumpi\n        /* \"#utility.yul\":13374:13380   */\n      dup2\n        /* \"#utility.yul\":13368:13381   */\n      mload\n        /* \"#utility.yul\":13401:13514   */\n      tag_422\n        /* \"#utility.yul\":13510:13513   */\n      dup9\n        /* \"#utility.yul\":13495:13508   */\n      dup3\n        /* \"#utility.yul\":13401:13514   */\n      tag_253\n      jump\t// in\n    tag_422:\n        /* \"#utility.yul\":13394:13514   */\n      swap8\n      pop\n        /* \"#utility.yul\":13537:13622   */\n      tag_423\n        /* \"#utility.yul\":13615:13621   */\n      dup4\n        /* \"#utility.yul\":13537:13622   */\n      tag_254\n      jump\t// in\n    tag_423:\n        /* \"#utility.yul\":13527:13622   */\n      swap3\n      pop\n        /* \"#utility.yul\":13333:13632   */\n      pop\n        /* \"#utility.yul\":13320:13321   */\n      0x01\n        /* \"#utility.yul\":13317:13318   */\n      dup2\n        /* \"#utility.yul\":13313:13322   */\n      add\n        /* \"#utility.yul\":13308:13322   */\n      swap1\n      pop\n        /* \"#utility.yul\":13273:13632   */\n      jump(tag_419)\n    tag_421:\n        /* \"#utility.yul\":13277:13291   */\n      pop\n        /* \"#utility.yul\":13648:13651   */\n      dup6\n        /* \"#utility.yul\":13641:13651   */\n      swap4\n      pop\n        /* \"#utility.yul\":12899:13657   */\n      pop\n      pop\n      pop\n        /* \"#utility.yul\":12725:13657   */\n      swap3\n      swap2\n      pop\n      pop\n      jump\t// out\n        /* \"#utility.yul\":13663:14136   */\n    tag_65:\n        /* \"#utility.yul\":13856:13860   */\n      0x00\n        /* \"#utility.yul\":13894:13896   */\n      0x20\n        /* \"#utility.yul\":13883:13892   */\n      dup3\n        /* \"#utility.yul\":13879:13897   */\n      add\n        /* \"#utility.yul\":13871:13897   */\n      swap1\n      pop\n        /* \"#utility.yul\":13943:13952   */\n      dup2\n        /* \"#utility.yul\":13937:13941   */\n      dup2\n        /* \"#utility.yul\":13933:13953   */\n      sub\n        /* \"#utility.yul\":13929:13930   */\n      0x00\n        /* \"#utility.yul\":13918:13927   */\n      dup4\n        /* \"#utility.yul\":13914:13931   */\n      add\n        /* \"#utility.yul\":13907:13954   */\n      mstore\n        /* \"#utility.yul\":13971:14129   */\n      tag_425\n        /* \"#utility.yul\":14124:14128   */\n      dup2\n        /* \"#utility.yul\":14115:14121   */\n      dup5\n        /* \"#utility.yul\":13971:14129   */\n      tag_255\n      jump\t// in\n    tag_425:\n        /* \"#utility.yul\":13963:14129   */\n      swap1\n      pop\n        /* \"#utility.yul\":13663:14136   */\n      swap3\n      swap2\n      pop\n      pop\n      jump\t// out\n        /* \"#utility.yul\":14142:14259   */\n    tag_256:\n        /* \"#utility.yul\":14251:14252   */\n      0x00\n        /* \"#utility.yul\":14248:14249   */\n      dup1\n        /* \"#utility.yul\":14241:14253   */\n      revert\n        /* \"#utility.yul\":14265:14382   */\n    tag_257:\n        /* \"#utility.yul\":14374:14375   */\n      0x00\n        /* \"#utility.yul\":14371:14372   */\n      dup1\n        /* \"#utility.yul\":14364:14376   */\n      revert\n        /* \"#utility.yul\":14405:14973   */\n    tag_258:\n        /* \"#utility.yul\":14478:14486   */\n      0x00\n        /* \"#utility.yul\":14488:14494   */\n      dup1\n        /* \"#utility.yul\":14538:14541   */\n      dup4\n        /* \"#utility.yul\":14531:14535   */\n      0x1f\n        /* \"#utility.yul\":14523:14529   */\n      dup5\n        /* \"#utility.yul\":14519:14536   */\n      add\n        /* \"#utility.yul\":14515:14542   */\n      slt\n        /* \"#utility.yul\":14505:14627   */\n      tag_429\n      jumpi\n        /* \"#utility.yul\":14546:14625   */\n      tag_430\n      tag_234\n      jump\t// in\n    tag_430:\n        /* \"#utility.yul\":14505:14627   */\n    tag_429:\n        /* \"#utility.yul\":14659:14665   */\n      dup3\n        /* \"#utility.yul\":14646:14666   */\n      calldataload\n        /* \"#utility.yul\":14636:14666   */\n      swap1\n      pop\n        /* \"#utility.yul\":14689:14707   */\n      0xffffffffffffffff\n        /* \"#utility.yul\":14681:14687   */\n      dup2\n        /* \"#utility.yul\":14678:14708   */\n      gt\n        /* \"#utility.yul\":14675:14792   */\n      iszero\n      tag_431\n      jumpi\n        /* \"#utility.yul\":14711:14790   */\n      tag_432\n      tag_256\n      jump\t// in\n    tag_432:\n        /* \"#utility.yul\":14675:14792   */\n    tag_431:\n        /* \"#utility.yul\":14825:14829   */\n      0x20\n        /* \"#utility.yul\":14817:14823   */\n      dup4\n        /* \"#utility.yul\":14813:14830   */\n      add\n        /* \"#utility.yul\":14801:14830   */\n      swap2\n      pop\n        /* \"#utility.yul\":14879:14882   */\n      dup4\n        /* \"#utility.yul\":14871:14875   */\n      0x20\n        /* \"#utility.yul\":14863:14869   */\n      dup3\n        /* \"#utility.yul\":14859:14876   */\n      mul\n        /* \"#utility.yul\":14849:14857   */\n      dup4\n        /* \"#utility.yul\":14845:14877   */\n      add\n        /* \"#utility.yul\":14842:14883   */\n      gt\n        /* \"#utility.yul\":14839:14967   */\n      iszero\n      tag_433\n      jumpi\n        /* \"#utility.yul\":14886:14965   */\n      tag_434\n      tag_257\n      jump\t// in\n    tag_434:\n        /* \"#utility.yul\":14839:14967   */\n    tag_433:\n        /* \"#utility.yul\":14405:14973   */\n      swap3\n      pop\n      swap3\n      swap1\n      pop\n      jump\t// out\n        /* \"#utility.yul\":14992:15544   */\n    tag_259:\n        /* \"#utility.yul\":15049:15057   */\n      0x00\n        /* \"#utility.yul\":15059:15065   */\n      dup1\n        /* \"#utility.yul\":15109:15112   */\n      dup4\n        /* \"#utility.yul\":15102:15106   */\n      0x1f\n        /* \"#utility.yul\":15094:15100   */\n      dup5\n        /* \"#utility.yul\":15090:15107   */\n      add\n        /* \"#utility.yul\":15086:15113   */\n      slt\n        /* \"#utility.yul\":15076:15198   */\n      tag_436\n      jumpi\n        /* \"#utility.yul\":15117:15196   */\n      tag_437\n      tag_234\n      jump\t// in\n    tag_437:\n        /* \"#utility.yul\":15076:15198   */\n    tag_436:\n        /* \"#utility.yul\":15230:15236   */\n      dup3\n        /* \"#utility.yul\":15217:15237   */\n      calldataload\n        /* \"#utility.yul\":15207:15237   */\n      swap1\n      pop\n        /* \"#utility.yul\":15260:15278   */\n      0xffffffffffffffff\n        /* \"#utility.yul\":15252:15258   */\n      dup2\n        /* \"#utility.yul\":15249:15279   */\n      gt\n        /* \"#utility.yul\":15246:15363   */\n      iszero\n      tag_438\n      jumpi\n        /* \"#utility.yul\":15282:15361   */\n      tag_439\n      tag_256\n      jump\t// in\n    tag_439:\n        /* \"#utility.yul\":15246:15363   */\n    tag_438:\n        /* \"#utility.yul\":15396:15400   */\n      0x20\n        /* \"#utility.yul\":15388:15394   */\n      dup4\n        /* \"#utility.yul\":15384:15401   */\n      add\n        /* \"#utility.yul\":15372:15401   */\n      swap2\n      pop\n        /* \"#utility.yul\":15450:15453   */\n      dup4\n        /* \"#utility.yul\":15442:15446   */\n      0x01\n        /* \"#utility.yul\":15434:15440   */\n      dup3\n        /* \"#utility.yul\":15430:15447   */\n      mul\n        /* \"#utility.yul\":15420:15428   */\n      dup4\n        /* \"#utility.yul\":15416:15448   */\n      add\n        /* \"#utility.yul\":15413:15454   */\n      gt\n        /* \"#utility.yul\":15410:15538   */\n      iszero\n      tag_440\n      jumpi\n        /* \"#utility.yul\":15457:15536   */\n      tag_441\n      tag_257\n      jump\t// in\n    tag_441:\n        /* \"#utility.yul\":15410:15538   */\n    tag_440:\n        /* \"#utility.yul\":14992:15544   */\n      swap3\n      pop\n      swap3\n      swap1\n      pop\n      jump\t// out\n        /* \"#utility.yul\":15550:17119   */\n    tag_69:\n        /* \"#utility.yul\":15710:15716   */\n      0x00\n        /* \"#utility.yul\":15718:15724   */\n      dup1\n        /* \"#utility.yul\":15726:15732   */\n      0x00\n        /* \"#utility.yul\":15734:15740   */\n      dup1\n        /* \"#utility.yul\":15742:15748   */\n      0x00\n        /* \"#utility.yul\":15750:15756   */\n      dup1\n        /* \"#utility.yul\":15758:15764   */\n      0x00\n        /* \"#utility.yul\":15766:15772   */\n      dup1\n        /* \"#utility.yul\":15815:15818   */\n      0xa0\n        /* \"#utility.yul\":15803:15812   */\n      dup10\n        /* \"#utility.yul\":15794:15801   */\n      dup12\n        /* \"#utility.yul\":15790:15813   */\n      sub\n        /* \"#utility.yul\":15786:15819   */\n      slt\n        /* \"#utility.yul\":15783:15903   */\n      iszero\n      tag_443\n      jumpi\n        /* \"#utility.yul\":15822:15901   */\n      tag_444\n      tag_222\n      jump\t// in\n    tag_444:\n        /* \"#utility.yul\":15783:15903   */\n    tag_443:\n        /* \"#utility.yul\":15942:15943   */\n      0x00\n        /* \"#utility.yul\":15967:16020   */\n      tag_445\n        /* \"#utility.yul\":16012:16019   */\n      dup12\n        /* \"#utility.yul\":16003:16009   */\n      dup3\n        /* \"#utility.yul\":15992:16001   */\n      dup13\n        /* \"#utility.yul\":15988:16010   */\n      add\n        /* \"#utility.yul\":15967:16020   */\n      tag_227\n      jump\t// in\n    tag_445:\n        /* \"#utility.yul\":15957:16020   */\n      swap9\n      pop\n        /* \"#utility.yul\":15913:16030   */\n      pop\n        /* \"#utility.yul\":16069:16071   */\n      0x20\n        /* \"#utility.yul\":16095:16148   */\n      tag_446\n        /* \"#utility.yul\":16140:16147   */\n      dup12\n        /* \"#utility.yul\":16131:16137   */\n      dup3\n        /* \"#utility.yul\":16120:16129   */\n      dup13\n        /* \"#utility.yul\":16116:16138   */\n      add\n        /* \"#utility.yul\":16095:16148   */\n      tag_227\n      jump\t// in\n    tag_446:\n        /* \"#utility.yul\":16085:16148   */\n      swap8\n      pop\n        /* \"#utility.yul\":16040:16158   */\n      pop\n        /* \"#utility.yul\":16225:16227   */\n      0x40\n        /* \"#utility.yul\":16214:16223   */\n      dup10\n        /* \"#utility.yul\":16210:16228   */\n      add\n        /* \"#utility.yul\":16197:16229   */\n      calldataload\n        /* \"#utility.yul\":16256:16274   */\n      0xffffffffffffffff\n        /* \"#utility.yul\":16248:16254   */\n      dup2\n        /* \"#utility.yul\":16245:16275   */\n      gt\n        /* \"#utility.yul\":16242:16359   */\n      iszero\n      tag_447\n      jumpi\n        /* \"#utility.yul\":16278:16357   */\n      tag_448\n      tag_223\n      jump\t// in\n    tag_448:\n        /* \"#utility.yul\":16242:16359   */\n    tag_447:\n        /* \"#utility.yul\":16391:16471   */\n      tag_449\n        /* \"#utility.yul\":16463:16470   */\n      dup12\n        /* \"#utility.yul\":16454:16460   */\n      dup3\n        /* \"#utility.yul\":16443:16452   */\n      dup13\n        /* \"#utility.yul\":16439:16461   */\n      add\n        /* \"#utility.yul\":16391:16471   */\n      tag_258\n      jump\t// in\n    tag_449:\n        /* \"#utility.yul\":16373:16471   */\n      swap7\n      pop\n      swap7\n      pop\n        /* \"#utility.yul\":16168:16481   */\n      pop\n        /* \"#utility.yul\":16548:16550   */\n      0x60\n        /* \"#utility.yul\":16537:16546   */\n      dup10\n        /* \"#utility.yul\":16533:16551   */\n      add\n        /* \"#utility.yul\":16520:16552   */\n      calldataload\n        /* \"#utility.yul\":16579:16597   */\n      0xffffffffffffffff\n        /* \"#utility.yul\":16571:16577   */\n      dup2\n        /* \"#utility.yul\":16568:16598   */\n      gt\n        /* \"#utility.yul\":16565:16682   */\n      iszero\n      tag_450\n      jumpi\n        /* \"#utility.yul\":16601:16680   */\n      tag_451\n      tag_223\n      jump\t// in\n    tag_451:\n        /* \"#utility.yul\":16565:16682   */\n    tag_450:\n        /* \"#utility.yul\":16714:16794   */\n      tag_452\n        /* \"#utility.yul\":16786:16793   */\n      dup12\n        /* \"#utility.yul\":16777:16783   */\n      dup3\n        /* \"#utility.yul\":16766:16775   */\n      dup13\n        /* \"#utility.yul\":16762:16784   */\n      add\n        /* \"#utility.yul\":16714:16794   */\n      tag_258\n      jump\t// in\n    tag_452:\n        /* \"#utility.yul\":16696:16794   */\n      swap5\n      pop\n      swap5\n      pop\n        /* \"#utility.yul\":16491:16804   */\n      pop\n        /* \"#utility.yul\":16871:16874   */\n      0x80\n        /* \"#utility.yul\":16860:16869   */\n      dup10\n        /* \"#utility.yul\":16856:16875   */\n      add\n        /* \"#utility.yul\":16843:16876   */\n      calldataload\n        /* \"#utility.yul\":16903:16921   */\n      0xffffffffffffffff\n        /* \"#utility.yul\":16895:16901   */\n      dup2\n        /* \"#utility.yul\":16892:16922   */\n      gt\n        /* \"#utility.yul\":16889:17006   */\n      iszero\n      tag_453\n      jumpi\n        /* \"#utility.yul\":16925:17004   */\n      tag_454\n      tag_223\n      jump\t// in\n    tag_454:\n        /* \"#utility.yul\":16889:17006   */\n    tag_453:\n        /* \"#utility.yul\":17038:17102   */\n      tag_455\n        /* \"#utility.yul\":17094:17101   */\n      dup12\n        /* \"#utility.yul\":17085:17091   */\n      dup3\n        /* \"#utility.yul\":17074:17083   */\n      dup13\n        /* \"#utility.yul\":17070:17092   */\n      add\n        /* \"#utility.yul\":17038:17102   */\n      tag_259\n      jump\t// in\n    tag_455:\n        /* \"#utility.yul\":17020:17102   */\n      swap3\n      pop\n      swap3\n      pop\n        /* \"#utility.yul\":16814:17112   */\n      pop\n        /* \"#utility.yul\":15550:17119   */\n      swap3\n      swap6\n      swap9\n      pop\n      swap3\n      swap6\n      swap9\n      swap1\n      swap4\n      swap7\n      pop\n      jump\t// out\n        /* \"#utility.yul\":17125:18234   */\n    tag_75:\n        /* \"#utility.yul\":17231:17237   */\n      0x00\n        /* \"#utility.yul\":17239:17245   */\n      dup1\n        /* \"#utility.yul\":17247:17253   */\n      0x00\n        /* \"#utility.yul\":17255:17261   */\n      dup1\n        /* \"#utility.yul\":17263:17269   */\n      0x00\n        /* \"#utility.yul\":17271:17277   */\n      dup1\n        /* \"#utility.yul\":17320:17323   */\n      0xa0\n        /* \"#utility.yul\":17308:17317   */\n      dup8\n        /* \"#utility.yul\":17299:17306   */\n      dup10\n        /* \"#utility.yul\":17295:17318   */\n      sub\n        /* \"#utility.yul\":17291:17324   */\n      slt\n        /* \"#utility.yul\":17288:17408   */\n      iszero\n      tag_457\n      jumpi\n        /* \"#utility.yul\":17327:17406   */\n      tag_458\n      tag_222\n      jump\t// in\n    tag_458:\n        /* \"#utility.yul\":17288:17408   */\n    tag_457:\n        /* \"#utility.yul\":17447:17448   */\n      0x00\n        /* \"#utility.yul\":17472:17525   */\n      tag_459\n        /* \"#utility.yul\":17517:17524   */\n      dup10\n        /* \"#utility.yul\":17508:17514   */\n      dup3\n        /* \"#utility.yul\":17497:17506   */\n      dup11\n        /* \"#utility.yul\":17493:17515   */\n      add\n        /* \"#utility.yul\":17472:17525   */\n      tag_227\n      jump\t// in\n    tag_459:\n        /* \"#utility.yul\":17462:17525   */\n      swap7\n      pop\n        /* \"#utility.yul\":17418:17535   */\n      pop\n        /* \"#utility.yul\":17574:17576   */\n      0x20\n        /* \"#utility.yul\":17600:17653   */\n      tag_460\n        /* \"#utility.yul\":17645:17652   */\n      dup10\n        /* \"#utility.yul\":17636:17642   */\n      dup3\n        /* \"#utility.yul\":17625:17634   */\n      dup11\n        /* \"#utility.yul\":17621:17643   */\n      add\n        /* \"#utility.yul\":17600:17653   */\n      tag_227\n      jump\t// in\n    tag_460:\n        /* \"#utility.yul\":17590:17653   */\n      swap6\n      pop\n        /* \"#utility.yul\":17545:17663   */\n      pop\n        /* \"#utility.yul\":17702:17704   */\n      0x40\n        /* \"#utility.yul\":17728:17781   */\n      tag_461\n        /* \"#utility.yul\":17773:17780   */\n      dup10\n        /* \"#utility.yul\":17764:17770   */\n      dup3\n        /* \"#utility.yul\":17753:17762   */\n      dup11\n        /* \"#utility.yul\":17749:17771   */\n      add\n        /* \"#utility.yul\":17728:17781   */\n      tag_232\n      jump\t// in\n    tag_461:\n        /* \"#utility.yul\":17718:17781   */\n      swap5\n      pop\n        /* \"#utility.yul\":17673:17791   */\n      pop\n        /* \"#utility.yul\":17830:17832   */\n      0x60\n        /* \"#utility.yul\":17856:17909   */\n      tag_462\n        /* \"#utility.yul\":17901:17908   */\n      dup10\n        /* \"#utility.yul\":17892:17898   */\n      dup3\n        /* \"#utility.yul\":17881:17890   */\n      dup11\n        /* \"#utility.yul\":17877:17899   */\n      add\n        /* \"#utility.yul\":17856:17909   */\n      tag_232\n      jump\t// in\n    tag_462:\n        /* \"#utility.yul\":17846:17909   */\n      swap4\n      pop\n        /* \"#utility.yul\":17801:17919   */\n      pop\n        /* \"#utility.yul\":17986:17989   */\n      0x80\n        /* \"#utility.yul\":17975:17984   */\n      dup8\n        /* \"#utility.yul\":17971:17990   */\n      add\n        /* \"#utility.yul\":17958:17991   */\n      calldataload\n        /* \"#utility.yul\":18018:18036   */\n      0xffffffffffffffff\n        /* \"#utility.yul\":18010:18016   */\n      dup2\n        /* \"#utility.yul\":18007:18037   */\n      gt\n        /* \"#utility.yul\":18004:18121   */\n      iszero\n      tag_463\n      jumpi\n        /* \"#utility.yul\":18040:18119   */\n      tag_464\n      tag_223\n      jump\t// in\n    tag_464:\n        /* \"#utility.yul\":18004:18121   */\n    tag_463:\n        /* \"#utility.yul\":18153:18217   */\n      tag_465\n        /* \"#utility.yul\":18209:18216   */\n      dup10\n        /* \"#utility.yul\":18200:18206   */\n      dup3\n        /* \"#utility.yul\":18189:18198   */\n      dup11\n        /* \"#utility.yul\":18185:18207   */\n      add\n        /* \"#utility.yul\":18153:18217   */\n      tag_259\n      jump\t// in\n    tag_465:\n        /* \"#utility.yul\":18135:18217   */\n      swap3\n      pop\n      swap3\n      pop\n        /* \"#utility.yul\":17929:18227   */\n      pop\n        /* \"#utility.yul\":17125:18234   */\n      swap3\n      swap6\n      pop\n      swap3\n      swap6\n      pop\n      swap3\n      swap6\n      jump\t// out\n        /* \"#utility.yul\":18240:18356   */\n    tag_260:\n        /* \"#utility.yul\":18310:18331   */\n      tag_467\n        /* \"#utility.yul\":18325:18330   */\n      dup2\n        /* \"#utility.yul\":18310:18331   */\n      tag_228\n      jump\t// in\n    tag_467:\n        /* \"#utility.yul\":18303:18308   */\n      dup2\n        /* \"#utility.yul\":18300:18332   */\n      eq\n        /* \"#utility.yul\":18290:18350   */\n      tag_468\n      jumpi\n        /* \"#utility.yul\":18346:18347   */\n      0x00\n        /* \"#utility.yul\":18343:18344   */\n      dup1\n        /* \"#utility.yul\":18336:18348   */\n      revert\n        /* \"#utility.yul\":18290:18350   */\n    tag_468:\n        /* \"#utility.yul\":18240:18356   */\n      pop\n      jump\t// out\n        /* \"#utility.yul\":18362:18499   */\n    tag_261:\n        /* \"#utility.yul\":18416:18421   */\n      0x00\n        /* \"#utility.yul\":18447:18453   */\n      dup2\n        /* \"#utility.yul\":18441:18454   */\n      mload\n        /* \"#utility.yul\":18432:18454   */\n      swap1\n      pop\n        /* \"#utility.yul\":18463:18493   */\n      tag_470\n        /* \"#utility.yul\":18487:18492   */\n      dup2\n        /* \"#utility.yul\":18463:18493   */\n      tag_260\n      jump\t// in\n    tag_470:\n        /* \"#utility.yul\":18362:18499   */\n      swap3\n      swap2\n      pop\n      pop\n      jump\t// out\n        /* \"#utility.yul\":18505:18850   */\n    tag_83:\n        /* \"#utility.yul\":18572:18578   */\n      0x00\n        /* \"#utility.yul\":18621:18623   */\n      0x20\n        /* \"#utility.yul\":18609:18618   */\n      dup3\n        /* \"#utility.yul\":18600:18607   */\n      dup5\n        /* \"#utility.yul\":18596:18619   */\n      sub\n        /* \"#utility.yul\":18592:18624   */\n      slt\n        /* \"#utility.yul\":18589:18708   */\n      iszero\n      tag_472\n      jumpi\n        /* \"#utility.yul\":18627:18706   */\n      tag_473\n      tag_222\n      jump\t// in\n    tag_473:\n        /* \"#utility.yul\":18589:18708   */\n    tag_472:\n        /* \"#utility.yul\":18747:18748   */\n      0x00\n        /* \"#utility.yul\":18772:18833   */\n      tag_474\n        /* \"#utility.yul\":18825:18832   */\n      dup5\n        /* \"#utility.yul\":18816:18822   */\n      dup3\n        /* \"#utility.yul\":18805:18814   */\n      dup6\n        /* \"#utility.yul\":18801:18823   */\n      add\n        /* \"#utility.yul\":18772:18833   */\n      tag_261\n      jump\t// in\n    tag_474:\n        /* \"#utility.yul\":18762:18833   */\n      swap2\n      pop\n        /* \"#utility.yul\":18718:18843   */\n      pop\n        /* \"#utility.yul\":18505:18850   */\n      swap3\n      swap2\n      pop\n      pop\n      jump\t// out\n        /* \"#utility.yul\":18856:19025   */\n    tag_262:\n        /* \"#utility.yul\":18940:18951   */\n      0x00\n        /* \"#utility.yul\":18974:18980   */\n      dup3\n        /* \"#utility.yul\":18969:18972   */\n      dup3\n        /* \"#utility.yul\":18962:18981   */\n      mstore\n        /* \"#utility.yul\":19014:19018   */\n      0x20\n        /* \"#utility.yul\":19009:19012   */\n      dup3\n        /* \"#utility.yul\":19005:19019   */\n      add\n        /* \"#utility.yul\":18990:19019   */\n      swap1\n      pop\n        /* \"#utility.yul\":18856:19025   */\n      swap3\n      swap2\n      pop\n      pop\n      jump\t// out\n        /* \"#utility.yul\":19031:19202   */\n    tag_263:\n        /* \"#utility.yul\":19171:19194   */\n      0x4e6674206e6f7420696e2066697865642073616c650000000000000000000000\n        /* \"#utility.yul\":19167:19168   */\n      0x00\n        /* \"#utility.yul\":19159:19165   */\n      dup3\n        /* \"#utility.yul\":19155:19169   */\n      add\n        /* \"#utility.yul\":19148:19195   */\n      mstore\n        /* \"#utility.yul\":19031:19202   */\n      pop\n      jump\t// out\n        /* \"#utility.yul\":19208:19574   */\n    tag_264:\n        /* \"#utility.yul\":19350:19353   */\n      0x00\n        /* \"#utility.yul\":19371:19438   */\n      tag_478\n        /* \"#utility.yul\":19435:19437   */\n      0x15\n        /* \"#utility.yul\":19430:19433   */\n      dup4\n        /* \"#utility.yul\":19371:19438   */\n      tag_262\n      jump\t// in\n    tag_478:\n        /* \"#utility.yul\":19364:19438   */\n      swap2\n      pop\n        /* \"#utility.yul\":19447:19540   */\n      tag_479\n        /* \"#utility.yul\":19536:19539   */\n      dup3\n        /* \"#utility.yul\":19447:19540   */\n      tag_263\n      jump\t// in\n    tag_479:\n        /* \"#utility.yul\":19565:19567   */\n      0x20\n        /* \"#utility.yul\":19560:19563   */\n      dup3\n        /* \"#utility.yul\":19556:19568   */\n      add\n        /* \"#utility.yul\":19549:19568   */\n      swap1\n      pop\n        /* \"#utility.yul\":19208:19574   */\n      swap2\n      swap1\n      pop\n      jump\t// out\n        /* \"#utility.yul\":19580:19999   */\n    tag_87:\n        /* \"#utility.yul\":19746:19750   */\n      0x00\n        /* \"#utility.yul\":19784:19786   */\n      0x20\n        /* \"#utility.yul\":19773:19782   */\n      dup3\n        /* \"#utility.yul\":19769:19787   */\n      add\n        /* \"#utility.yul\":19761:19787   */\n      swap1\n      pop\n        /* \"#utility.yul\":19833:19842   */\n      dup2\n        /* \"#utility.yul\":19827:19831   */\n      dup2\n        /* \"#utility.yul\":19823:19843   */\n      sub\n        /* \"#utility.yul\":19819:19820   */\n      0x00\n        /* \"#utility.yul\":19808:19817   */\n      dup4\n        /* \"#utility.yul\":19804:19821   */\n      add\n        /* \"#utility.yul\":19797:19844   */\n      mstore\n        /* \"#utility.yul\":19861:19992   */\n      tag_481\n        /* \"#utility.yul\":19987:19991   */\n      dup2\n        /* \"#utility.yul\":19861:19992   */\n      tag_264\n      jump\t// in\n    tag_481:\n        /* \"#utility.yul\":19853:19992   */\n      swap1\n      pop\n        /* \"#utility.yul\":19580:19999   */\n      swap2\n      swap1\n      pop\n      jump\t// out\n        /* \"#utility.yul\":20005:20176   */\n    tag_265:\n        /* \"#utility.yul\":20145:20168   */\n      0x596f7520617265206e6f74206e6674206f776e65720000000000000000000000\n        /* \"#utility.yul\":20141:20142   */\n      0x00\n        /* \"#utility.yul\":20133:20139   */\n      dup3\n        /* \"#utility.yul\":20129:20143   */\n      add\n        /* \"#utility.yul\":20122:20169   */\n      mstore\n        /* \"#utility.yul\":20005:20176   */\n      pop\n      jump\t// out\n        /* \"#utility.yul\":20182:20548   */\n    tag_266:\n        /* \"#utility.yul\":20324:20327   */\n      0x00\n        /* \"#utility.yul\":20345:20412   */\n      tag_484\n        /* \"#utility.yul\":20409:20411   */\n      0x15\n        /* \"#utility.yul\":20404:20407   */\n      dup4\n        /* \"#utility.yul\":20345:20412   */\n      tag_262\n      jump\t// in\n    tag_484:\n        /* \"#utility.yul\":20338:20412   */\n      swap2\n      pop\n        /* \"#utility.yul\":20421:20514   */\n      tag_485\n        /* \"#utility.yul\":20510:20513   */\n      dup3\n        /* \"#utility.yul\":20421:20514   */\n      tag_265\n      jump\t// in\n    tag_485:\n        /* \"#utility.yul\":20539:20541   */\n      0x20\n        /* \"#utility.yul\":20534:20537   */\n      dup3\n        /* \"#utility.yul\":20530:20542   */\n      add\n        /* \"#utility.yul\":20523:20542   */\n      swap1\n      pop\n        /* \"#utility.yul\":20182:20548   */\n      swap2\n      swap1\n      pop\n      jump\t// out\n        /* \"#utility.yul\":20554:20973   */\n    tag_91:\n        /* \"#utility.yul\":20720:20724   */\n      0x00\n        /* \"#utility.yul\":20758:20760   */\n      0x20\n        /* \"#utility.yul\":20747:20756   */\n      dup3\n        /* \"#utility.yul\":20743:20761   */\n      add\n        /* \"#utility.yul\":20735:20761   */\n      swap1\n      pop\n        /* \"#utility.yul\":20807:20816   */\n      dup2\n        /* \"#utility.yul\":20801:20805   */\n      dup2\n        /* \"#utility.yul\":20797:20817   */\n      sub\n        /* \"#utility.yul\":20793:20794   */\n      0x00\n        /* \"#utility.yul\":20782:20791   */\n      dup4\n        /* \"#utility.yul\":20778:20795   */\n      add\n        /* \"#utility.yul\":20771:20818   */\n      mstore\n        /* \"#utility.yul\":20835:20966   */\n      tag_487\n        /* \"#utility.yul\":20961:20965   */\n      dup2\n        /* \"#utility.yul\":20835:20966   */\n      tag_266\n      jump\t// in\n    tag_487:\n        /* \"#utility.yul\":20827:20966   */\n      swap1\n      pop\n        /* \"#utility.yul\":20554:20973   */\n      swap2\n      swap1\n      pop\n      jump\t// out\n        /* \"#utility.yul\":20979:21146   */\n    tag_267:\n        /* \"#utility.yul\":21119:21138   */\n      0x50726963652063616e6e6f742062652030000000000000000000000000000000\n        /* \"#utility.yul\":21115:21116   */\n      0x00\n        /* \"#utility.yul\":21107:21113   */\n      dup3\n        /* \"#utility.yul\":21103:21117   */\n      add\n        /* \"#utility.yul\":21096:21139   */\n      mstore\n        /* \"#utility.yul\":20979:21146   */\n      pop\n      jump\t// out\n        /* \"#utility.yul\":21152:21518   */\n    tag_268:\n        /* \"#utility.yul\":21294:21297   */\n      0x00\n        /* \"#utility.yul\":21315:21382   */\n      tag_490\n        /* \"#utility.yul\":21379:21381   */\n      0x11\n        /* \"#utility.yul\":21374:21377   */\n      dup4\n        /* \"#utility.yul\":21315:21382   */\n      tag_262\n      jump\t// in\n    tag_490:\n        /* \"#utility.yul\":21308:21382   */\n      swap2\n      pop\n        /* \"#utility.yul\":21391:21484   */\n      tag_491\n        /* \"#utility.yul\":21480:21483   */\n      dup3\n        /* \"#utility.yul\":21391:21484   */\n      tag_267\n      jump\t// in\n    tag_491:\n        /* \"#utility.yul\":21509:21511   */\n      0x20\n        /* \"#utility.yul\":21504:21507   */\n      dup3\n        /* \"#utility.yul\":21500:21512   */\n      add\n        /* \"#utility.yul\":21493:21512   */\n      swap1\n      pop\n        /* \"#utility.yul\":21152:21518   */\n      swap2\n      swap1\n      pop\n      jump\t// out\n        /* \"#utility.yul\":21524:21943   */\n    tag_95:\n        /* \"#utility.yul\":21690:21694   */\n      0x00\n        /* \"#utility.yul\":21728:21730   */\n      0x20\n        /* \"#utility.yul\":21717:21726   */\n      dup3\n        /* \"#utility.yul\":21713:21731   */\n      add\n        /* \"#utility.yul\":21705:21731   */\n      swap1\n      pop\n        /* \"#utility.yul\":21777:21786   */\n      dup2\n        /* \"#utility.yul\":21771:21775   */\n      dup2\n        /* \"#utility.yul\":21767:21787   */\n      sub\n        /* \"#utility.yul\":21763:21764   */\n      0x00\n        /* \"#utility.yul\":21752:21761   */\n      dup4\n        /* \"#utility.yul\":21748:21765   */\n      add\n        /* \"#utility.yul\":21741:21788   */\n      mstore\n        /* \"#utility.yul\":21805:21936   */\n      tag_493\n        /* \"#utility.yul\":21931:21935   */\n      dup2\n        /* \"#utility.yul\":21805:21936   */\n      tag_268\n      jump\t// in\n    tag_493:\n        /* \"#utility.yul\":21797:21936   */\n      swap1\n      pop\n        /* \"#utility.yul\":21524:21943   */\n      swap2\n      swap1\n      pop\n      jump\t// out\n        /* \"#utility.yul\":21949:22067   */\n    tag_269:\n        /* \"#utility.yul\":22036:22060   */\n      tag_495\n        /* \"#utility.yul\":22054:22059   */\n      dup2\n        /* \"#utility.yul\":22036:22060   */\n      tag_225\n      jump\t// in\n    tag_495:\n        /* \"#utility.yul\":22031:22034   */\n      dup3\n        /* \"#utility.yul\":22024:22061   */\n      mstore\n        /* \"#utility.yul\":21949:22067   */\n      pop\n      pop\n      jump\t// out\n        /* \"#utility.yul\":22073:22515   */\n    tag_98:\n        /* \"#utility.yul\":22222:22226   */\n      0x00\n        /* \"#utility.yul\":22260:22262   */\n      0x60\n        /* \"#utility.yul\":22249:22258   */\n      dup3\n        /* \"#utility.yul\":22245:22263   */\n      add\n        /* \"#utility.yul\":22237:22263   */\n      swap1\n      pop\n        /* \"#utility.yul\":22273:22344   */\n      tag_497\n        /* \"#utility.yul\":22341:22342   */\n      0x00\n        /* \"#utility.yul\":22330:22339   */\n      dup4\n        /* \"#utility.yul\":22326:22343   */\n      add\n        /* \"#utility.yul\":22317:22323   */\n      dup7\n        /* \"#utility.yul\":22273:22344   */\n      tag_269\n      jump\t// in\n    tag_497:\n        /* \"#utility.yul\":22354:22426   */\n      tag_498\n        /* \"#utility.yul\":22422:22424   */\n      0x20\n        /* \"#utility.yul\":22411:22420   */\n      dup4\n        /* \"#utility.yul\":22407:22425   */\n      add\n        /* \"#utility.yul\":22398:22404   */\n      dup6\n        /* \"#utility.yul\":22354:22426   */\n      tag_233\n      jump\t// in\n    tag_498:\n        /* \"#utility.yul\":22436:22508   */\n      tag_499\n        /* \"#utility.yul\":22504:22506   */\n      0x40\n        /* \"#utility.yul\":22493:22502   */\n      dup4\n        /* \"#utility.yul\":22489:22507   */\n      add\n        /* \"#utility.yul\":22480:22486   */\n      dup5\n        /* \"#utility.yul\":22436:22508   */\n      tag_233\n      jump\t// in\n    tag_499:\n        /* \"#utility.yul\":22073:22515   */\n      swap5\n      swap4\n      pop\n      pop\n      pop\n      pop\n      jump\t// out\n        /* \"#utility.yul\":22521:22701   */\n    tag_270:\n        /* \"#utility.yul\":22569:22646   */\n      0x4e487b7100000000000000000000000000000000000000000000000000000000\n        /* \"#utility.yul\":22566:22567   */\n      0x00\n        /* \"#utility.yul\":22559:22647   */\n      mstore\n        /* \"#utility.yul\":22666:22670   */\n      0x11\n        /* \"#utility.yul\":22663:22664   */\n      0x04\n        /* \"#utility.yul\":22656:22671   */\n      mstore\n        /* \"#utility.yul\":22690:22694   */\n      0x24\n        /* \"#utility.yul\":22687:22688   */\n      0x00\n        /* \"#utility.yul\":22680:22695   */\n      revert\n        /* \"#utility.yul\":22707:23055   */\n    tag_107:\n        /* \"#utility.yul\":22747:22754   */\n      0x00\n        /* \"#utility.yul\":22770:22790   */\n      tag_502\n        /* \"#utility.yul\":22788:22789   */\n      dup3\n        /* \"#utility.yul\":22770:22790   */\n      tag_230\n      jump\t// in\n    tag_502:\n        /* \"#utility.yul\":22765:22790   */\n      swap2\n      pop\n        /* \"#utility.yul\":22804:22824   */\n      tag_503\n        /* \"#utility.yul\":22822:22823   */\n      dup4\n        /* \"#utility.yul\":22804:22824   */\n      tag_230\n      jump\t// in\n    tag_503:\n        /* \"#utility.yul\":22799:22824   */\n      swap3\n      pop\n        /* \"#utility.yul\":22992:22993   */\n      dup2\n        /* \"#utility.yul\":22924:22990   */\n      0xffffffffffffffffffffffffffffffffffffffffffffffffffffffffffffffff\n        /* \"#utility.yul\":22920:22994   */\n      div\n        /* \"#utility.yul\":22917:22918   */\n      dup4\n        /* \"#utility.yul\":22914:22995   */\n      gt\n        /* \"#utility.yul\":22909:22910   */\n      dup3\n        /* \"#utility.yul\":22902:22911   */\n      iszero\n        /* \"#utility.yul\":22895:22912   */\n      iszero\n        /* \"#utility.yul\":22891:22996   */\n      and\n        /* \"#utility.yul\":22888:23019   */\n      iszero\n      tag_504\n      jumpi\n        /* \"#utility.yul\":22999:23017   */\n      tag_505\n      tag_270\n      jump\t// in\n    tag_505:\n        /* \"#utility.yul\":22888:23019   */\n    tag_504:\n        /* \"#utility.yul\":23047:23048   */\n      dup3\n        /* \"#utility.yul\":23044:23045   */\n      dup3\n        /* \"#utility.yul\":23040:23049   */\n      mul\n        /* \"#utility.yul\":23029:23049   */\n      swap1\n      pop\n        /* \"#utility.yul\":22707:23055   */\n      swap3\n      swap2\n      pop\n      pop\n      jump\t// out\n        /* \"#utility.yul\":23061:23231   */\n    tag_271:\n        /* \"#utility.yul\":23201:23223   */\n      0x627579205072696365206e6f7420656e6f756768000000000000000000000000\n        /* \"#utility.yul\":23197:23198   */\n      0x00\n        /* \"#utility.yul\":23189:23195   */\n      dup3\n        /* \"#utility.yul\":23185:23199   */\n      add\n        /* \"#utility.yul\":23178:23224   */\n      mstore\n        /* \"#utility.yul\":23061:23231   */\n      pop\n      jump\t// out\n        /* \"#utility.yul\":23237:23603   */\n    tag_272:\n        /* \"#utility.yul\":23379:23382   */\n      0x00\n        /* \"#utility.yul\":23400:23467   */\n      tag_508\n        /* \"#utility.yul\":23464:23466   */\n      0x14\n        /* \"#utility.yul\":23459:23462   */\n      dup4\n        /* \"#utility.yul\":23400:23467   */\n      tag_262\n      jump\t// in\n    tag_508:\n        /* \"#utility.yul\":23393:23467   */\n      swap2\n      pop\n        /* \"#utility.yul\":23476:23569   */\n      tag_509\n        /* \"#utility.yul\":23565:23568   */\n      dup3\n        /* \"#utility.yul\":23476:23569   */\n      tag_271\n      jump\t// in\n    tag_509:\n        /* \"#utility.yul\":23594:23596   */\n      0x20\n        /* \"#utility.yul\":23589:23592   */\n      dup3\n        /* \"#utility.yul\":23585:23597   */\n      add\n        /* \"#utility.yul\":23578:23597   */\n      swap1\n      pop\n        /* \"#utility.yul\":23237:23603   */\n      swap2\n      swap1\n      pop\n      jump\t// out\n        /* \"#utility.yul\":23609:24028   */\n    tag_110:\n        /* \"#utility.yul\":23775:23779   */\n      0x00\n        /* \"#utility.yul\":23813:23815   */\n      0x20\n        /* \"#utility.yul\":23802:23811   */\n      dup3\n        /* \"#utility.yul\":23798:23816   */\n      add\n        /* \"#utility.yul\":23790:23816   */\n      swap1\n      pop\n        /* \"#utility.yul\":23862:23871   */\n      dup2\n        /* \"#utility.yul\":23856:23860   */\n      dup2\n        /* \"#utility.yul\":23852:23872   */\n      sub\n        /* \"#utility.yul\":23848:23849   */\n      0x00\n        /* \"#utility.yul\":23837:23846   */\n      dup4\n        /* \"#utility.yul\":23833:23850   */\n      add\n        /* \"#utility.yul\":23826:23873   */\n      mstore\n        /* \"#utility.yul\":23890:24021   */\n      tag_511\n        /* \"#utility.yul\":24016:24020   */\n      dup2\n        /* \"#utility.yul\":23890:24021   */\n      tag_272\n      jump\t// in\n    tag_511:\n        /* \"#utility.yul\":23882:24021   */\n      swap1\n      pop\n        /* \"#utility.yul\":23609:24028   */\n      swap2\n      swap1\n      pop\n      jump\t// out\n        /* \"#utility.yul\":24034:24257   */\n    tag_273:\n        /* \"#utility.yul\":24174:24208   */\n      0x6e6f6e2d7a65726f2076616c7565206f7220616d6f756e74206e6f7420677265\n        /* \"#utility.yul\":24170:24171   */\n      0x00\n        /* \"#utility.yul\":24162:24168   */\n      dup3\n        /* \"#utility.yul\":24158:24172   */\n      add\n        /* \"#utility.yul\":24151:24209   */\n      mstore\n        /* \"#utility.yul\":24243:24249   */\n      0x6174657200000000000000000000000000000000000000000000000000000000\n        /* \"#utility.yul\":24238:24240   */\n      0x20\n        /* \"#utility.yul\":24230:24236   */\n      dup3\n        /* \"#utility.yul\":24226:24241   */\n      add\n        /* \"#utility.yul\":24219:24250   */\n      mstore\n        /* \"#utility.yul\":24034:24257   */\n      pop\n      jump\t// out\n        /* \"#utility.yul\":24263:24629   */\n    tag_274:\n        /* \"#utility.yul\":24405:24408   */\n      0x00\n        /* \"#utility.yul\":24426:24493   */\n      tag_514\n        /* \"#utility.yul\":24490:24492   */\n      0x24\n        /* \"#utility.yul\":24485:24488   */\n      dup4\n        /* \"#utility.yul\":24426:24493   */\n      tag_262\n      jump\t// in\n    tag_514:\n        /* \"#utility.yul\":24419:24493   */\n      swap2\n      pop\n        /* \"#utility.yul\":24502:24595   */\n      tag_515\n        /* \"#utility.yul\":24591:24594   */\n      dup3\n        /* \"#utility.yul\":24502:24595   */\n      tag_273\n      jump\t// in\n    tag_515:\n        /* \"#utility.yul\":24620:24622   */\n      0x40\n        /* \"#utility.yul\":24615:24618   */\n      dup3\n        /* \"#utility.yul\":24611:24623   */\n      add\n        /* \"#utility.yul\":24604:24623   */\n      swap1\n      pop\n        /* \"#utility.yul\":24263:24629   */\n      swap2\n      swap1\n      pop\n      jump\t// out\n        /* \"#utility.yul\":24635:25054   */\n    tag_115:\n        /* \"#utility.yul\":24801:24805   */\n      0x00\n        /* \"#utility.yul\":24839:24841   */\n      0x20\n        /* \"#utility.yul\":24828:24837   */\n      dup3\n        /* \"#utility.yul\":24824:24842   */\n      add\n        /* \"#utility.yul\":24816:24842   */\n      swap1\n      pop\n        /* \"#utility.yul\":24888:24897   */\n      dup2\n        /* \"#utility.yul\":24882:24886   */\n      dup2\n        /* \"#utility.yul\":24878:24898   */\n      sub\n        /* \"#utility.yul\":24874:24875   */\n      0x00\n        /* \"#utility.yul\":24863:24872   */\n      dup4\n        /* \"#utility.yul\":24859:24876   */\n      add\n        /* \"#utility.yul\":24852:24899   */\n      mstore\n        /* \"#utility.yul\":24916:25047   */\n      tag_517\n        /* \"#utility.yul\":25042:25046   */\n      dup2\n        /* \"#utility.yul\":24916:25047   */\n      tag_274\n      jump\t// in\n    tag_517:\n        /* \"#utility.yul\":24908:25047   */\n      swap1\n      pop\n        /* \"#utility.yul\":24635:25054   */\n      swap2\n      swap1\n      pop\n      jump\t// out\n        /* \"#utility.yul\":25060:25158   */\n    tag_275:\n        /* \"#utility.yul\":25111:25117   */\n      0x00\n        /* \"#utility.yul\":25145:25150   */\n      dup2\n        /* \"#utility.yul\":25139:25151   */\n      mload\n        /* \"#utility.yul\":25129:25151   */\n      swap1\n      pop\n        /* \"#utility.yul\":25060:25158   */\n      swap2\n      swap1\n      pop\n      jump\t// out\n        /* \"#utility.yul\":25164:25332   */\n    tag_276:\n        /* \"#utility.yul\":25247:25258   */\n      0x00\n        /* \"#utility.yul\":25281:25287   */\n      dup3\n        /* \"#utility.yul\":25276:25279   */\n      dup3\n        /* \"#utility.yul\":25269:25288   */\n      mstore\n        /* \"#utility.yul\":25321:25325   */\n      0x20\n        /* \"#utility.yul\":25316:25319   */\n      dup3\n        /* \"#utility.yul\":25312:25326   */\n      add\n        /* \"#utility.yul\":25297:25326   */\n      swap1\n      pop\n        /* \"#utility.yul\":25164:25332   */\n      swap3\n      swap2\n      pop\n      pop\n      jump\t// out\n        /* \"#utility.yul\":25338:25584   */\n    tag_277:\n        /* \"#utility.yul\":25419:25420   */\n      0x00\n        /* \"#utility.yul\":25429:25542   */\n    tag_521:\n        /* \"#utility.yul\":25443:25449   */\n      dup4\n        /* \"#utility.yul\":25440:25441   */\n      dup2\n        /* \"#utility.yul\":25437:25450   */\n      lt\n        /* \"#utility.yul\":25429:25542   */\n      iszero\n      tag_523\n      jumpi\n        /* \"#utility.yul\":25528:25529   */\n      dup1\n        /* \"#utility.yul\":25523:25526   */\n      dup3\n        /* \"#utility.yul\":25519:25530   */\n      add\n        /* \"#utility.yul\":25513:25531   */\n      mload\n        /* \"#utility.yul\":25509:25510   */\n      dup2\n        /* \"#utility.yul\":25504:25507   */\n      dup5\n        /* \"#utility.yul\":25500:25511   */\n      add\n        /* \"#utility.yul\":25493:25532   */\n      mstore\n        /* \"#utility.yul\":25465:25467   */\n      0x20\n        /* \"#utility.yul\":25462:25463   */\n      dup2\n        /* \"#utility.yul\":25458:25468   */\n      add\n        /* \"#utility.yul\":25453:25468   */\n      swap1\n      pop\n        /* \"#utility.yul\":25429:25542   */\n      jump(tag_521)\n    tag_523:\n        /* \"#utility.yul\":25576:25577   */\n      0x00\n        /* \"#utility.yul\":25567:25573   */\n      dup5\n        /* \"#utility.yul\":25562:25565   */\n      dup5\n        /* \"#utility.yul\":25558:25574   */\n      add\n        /* \"#utility.yul\":25551:25578   */\n      mstore\n        /* \"#utility.yul\":25400:25584   */\n      pop\n        /* \"#utility.yul\":25338:25584   */\n      pop\n      pop\n      pop\n      jump\t// out\n        /* \"#utility.yul\":25590:25963   */\n    tag_278:\n        /* \"#utility.yul\":25676:25679   */\n      0x00\n        /* \"#utility.yul\":25704:25742   */\n      tag_525\n        /* \"#utility.yul\":25736:25741   */\n      dup3\n        /* \"#utility.yul\":25704:25742   */\n      tag_275\n      jump\t// in\n    tag_525:\n        /* \"#utility.yul\":25758:25828   */\n      tag_526\n        /* \"#utility.yul\":25821:25827   */\n      dup2\n        /* \"#utility.yul\":25816:25819   */\n      dup6\n        /* \"#utility.yul\":25758:25828   */\n      tag_276\n      jump\t// in\n    tag_526:\n        /* \"#utility.yul\":25751:25828   */\n      swap4\n      pop\n        /* \"#utility.yul\":25837:25902   */\n      tag_527\n        /* \"#utility.yul\":25895:25901   */\n      dup2\n        /* \"#utility.yul\":25890:25893   */\n      dup6\n        /* \"#utility.yul\":25883:25887   */\n      0x20\n        /* \"#utility.yul\":25876:25881   */\n      dup7\n        /* \"#utility.yul\":25872:25888   */\n      add\n        /* \"#utility.yul\":25837:25902   */\n      tag_277\n      jump\t// in\n    tag_527:\n        /* \"#utility.yul\":25927:25956   */\n      tag_528\n        /* \"#utility.yul\":25949:25955   */\n      dup2\n        /* \"#utility.yul\":25927:25956   */\n      tag_236\n      jump\t// in\n    tag_528:\n        /* \"#utility.yul\":25922:25925   */\n      dup5\n        /* \"#utility.yul\":25918:25957   */\n      add\n        /* \"#utility.yul\":25911:25957   */\n      swap2\n      pop\n        /* \"#utility.yul\":25680:25963   */\n      pop\n        /* \"#utility.yul\":25590:25963   */\n      swap3\n      swap2\n      pop\n      pop\n      jump\t// out\n        /* \"#utility.yul\":25969:26720   */\n    tag_117:\n        /* \"#utility.yul\":26192:26196   */\n      0x00\n        /* \"#utility.yul\":26230:26233   */\n      0xa0\n        /* \"#utility.yul\":26219:26228   */\n      dup3\n        /* \"#utility.yul\":26215:26234   */\n      add\n        /* \"#utility.yul\":26207:26234   */\n      swap1\n      pop\n        /* \"#utility.yul\":26244:26315   */\n      tag_530\n        /* \"#utility.yul\":26312:26313   */\n      0x00\n        /* \"#utility.yul\":26301:26310   */\n      dup4\n        /* \"#utility.yul\":26297:26314   */\n      add\n        /* \"#utility.yul\":26288:26294   */\n      dup9\n        /* \"#utility.yul\":26244:26315   */\n      tag_269\n      jump\t// in\n    tag_530:\n        /* \"#utility.yul\":26325:26397   */\n      tag_531\n        /* \"#utility.yul\":26393:26395   */\n      0x20\n        /* \"#utility.yul\":26382:26391   */\n      dup4\n        /* \"#utility.yul\":26378:26396   */\n      add\n        /* \"#utility.yul\":26369:26375   */\n      dup8\n        /* \"#utility.yul\":26325:26397   */\n      tag_269\n      jump\t// in\n    tag_531:\n        /* \"#utility.yul\":26407:26479   */\n      tag_532\n        /* \"#utility.yul\":26475:26477   */\n      0x40\n        /* \"#utility.yul\":26464:26473   */\n      dup4\n        /* \"#utility.yul\":26460:26478   */\n      add\n        /* \"#utility.yul\":26451:26457   */\n      dup7\n        /* \"#utility.yul\":26407:26479   */\n      tag_233\n      jump\t// in\n    tag_532:\n        /* \"#utility.yul\":26489:26561   */\n      tag_533\n        /* \"#utility.yul\":26557:26559   */\n      0x60\n        /* \"#utility.yul\":26546:26555   */\n      dup4\n        /* \"#utility.yul\":26542:26560   */\n      add\n        /* \"#utility.yul\":26533:26539   */\n      dup6\n        /* \"#utility.yul\":26489:26561   */\n      tag_233\n      jump\t// in\n    tag_533:\n        /* \"#utility.yul\":26609:26618   */\n      dup2\n        /* \"#utility.yul\":26603:26607   */\n      dup2\n        /* \"#utility.yul\":26599:26619   */\n      sub\n        /* \"#utility.yul\":26593:26596   */\n      0x80\n        /* \"#utility.yul\":26582:26591   */\n      dup4\n        /* \"#utility.yul\":26578:26597   */\n      add\n        /* \"#utility.yul\":26571:26620   */\n      mstore\n        /* \"#utility.yul\":26637:26713   */\n      tag_534\n        /* \"#utility.yul\":26708:26712   */\n      dup2\n        /* \"#utility.yul\":26699:26705   */\n      dup5\n        /* \"#utility.yul\":26637:26713   */\n      tag_278\n      jump\t// in\n    tag_534:\n        /* \"#utility.yul\":26629:26713   */\n      swap1\n      pop\n        /* \"#utility.yul\":25969:26720   */\n      swap7\n      swap6\n      pop\n      pop\n      pop\n      pop\n      pop\n      pop\n      jump\t// out\n        /* \"#utility.yul\":26726:27390   */\n    tag_126:\n        /* \"#utility.yul\":26931:26935   */\n      0x00\n        /* \"#utility.yul\":26969:26972   */\n      0xa0\n        /* \"#utility.yul\":26958:26967   */\n      dup3\n        /* \"#utility.yul\":26954:26973   */\n      add\n        /* \"#utility.yul\":26946:26973   */\n      swap1\n      pop\n        /* \"#utility.yul\":26983:27054   */\n      tag_536\n        /* \"#utility.yul\":27051:27052   */\n      0x00\n        /* \"#utility.yul\":27040:27049   */\n      dup4\n        /* \"#utility.yul\":27036:27053   */\n      add\n        /* \"#utility.yul\":27027:27033   */\n      dup9\n        /* \"#utility.yul\":26983:27054   */\n      tag_269\n      jump\t// in\n    tag_536:\n        /* \"#utility.yul\":27064:27136   */\n      tag_537\n        /* \"#utility.yul\":27132:27134   */\n      0x20\n        /* \"#utility.yul\":27121:27130   */\n      dup4\n        /* \"#utility.yul\":27117:27135   */\n      add\n        /* \"#utility.yul\":27108:27114   */\n      dup8\n        /* \"#utility.yul\":27064:27136   */\n      tag_269\n      jump\t// in\n    tag_537:\n        /* \"#utility.yul\":27146:27218   */\n      tag_538\n        /* \"#utility.yul\":27214:27216   */\n      0x40\n        /* \"#utility.yul\":27203:27212   */\n      dup4\n        /* \"#utility.yul\":27199:27217   */\n      add\n        /* \"#utility.yul\":27190:27196   */\n      dup7\n        /* \"#utility.yul\":27146:27218   */\n      tag_233\n      jump\t// in\n    tag_538:\n        /* \"#utility.yul\":27228:27300   */\n      tag_539\n        /* \"#utility.yul\":27296:27298   */\n      0x60\n        /* \"#utility.yul\":27285:27294   */\n      dup4\n        /* \"#utility.yul\":27281:27299   */\n      add\n        /* \"#utility.yul\":27272:27278   */\n      dup6\n        /* \"#utility.yul\":27228:27300   */\n      tag_233\n      jump\t// in\n    tag_539:\n        /* \"#utility.yul\":27310:27383   */\n      tag_540\n        /* \"#utility.yul\":27378:27381   */\n      0x80\n        /* \"#utility.yul\":27367:27376   */\n      dup4\n        /* \"#utility.yul\":27363:27382   */\n      add\n        /* \"#utility.yul\":27354:27360   */\n      dup5\n        /* \"#utility.yul\":27310:27383   */\n      tag_233\n      jump\t// in\n    tag_540:\n        /* \"#utility.yul\":26726:27390   */\n      swap7\n      swap6\n      pop\n      pop\n      pop\n      pop\n      pop\n      pop\n      jump\t// out\n        /* \"#utility.yul\":27396:27565   */\n    tag_279:\n        /* \"#utility.yul\":27536:27557   */\n      0x4e667420616c726561647920696e2073616c6500000000000000000000000000\n        /* \"#utility.yul\":27532:27533   */\n      0x00\n        /* \"#utility.yul\":27524:27530   */\n      dup3\n        /* \"#utility.yul\":27520:27534   */\n      add\n        /* \"#utility.yul\":27513:27558   */\n      mstore\n        /* \"#utility.yul\":27396:27565   */\n      pop\n      jump\t// out\n        /* \"#utility.yul\":27571:27937   */\n    tag_280:\n        /* \"#utility.yul\":27713:27716   */\n      0x00\n        /* \"#utility.yul\":27734:27801   */\n      tag_543\n        /* \"#utility.yul\":27798:27800   */\n      0x13\n        /* \"#utility.yul\":27793:27796   */\n      dup4\n        /* \"#utility.yul\":27734:27801   */\n      tag_262\n      jump\t// in\n    tag_543:\n        /* \"#utility.yul\":27727:27801   */\n      swap2\n      pop\n        /* \"#utility.yul\":27810:27903   */\n      tag_544\n        /* \"#utility.yul\":27899:27902   */\n      dup3\n        /* \"#utility.yul\":27810:27903   */\n      tag_279\n      jump\t// in\n    tag_544:\n        /* \"#utility.yul\":27928:27930   */\n      0x20\n        /* \"#utility.yul\":27923:27926   */\n      dup3\n        /* \"#utility.yul\":27919:27931   */\n      add\n        /* \"#utility.yul\":27912:27931   */\n      swap1\n      pop\n        /* \"#utility.yul\":27571:27937   */\n      swap2\n      swap1\n      pop\n      jump\t// out\n        /* \"#utility.yul\":27943:28362   */\n    tag_135:\n        /* \"#utility.yul\":28109:28113   */\n      0x00\n        /* \"#utility.yul\":28147:28149   */\n      0x20\n        /* \"#utility.yul\":28136:28145   */\n      dup3\n        /* \"#utility.yul\":28132:28150   */\n      add\n        /* \"#utility.yul\":28124:28150   */\n      swap1\n      pop\n        /* \"#utility.yul\":28196:28205   */\n      dup2\n        /* \"#utility.yul\":28190:28194   */\n      dup2\n        /* \"#utility.yul\":28186:28206   */\n      sub\n        /* \"#utility.yul\":28182:28183   */\n      0x00\n        /* \"#utility.yul\":28171:28180   */\n      dup4\n        /* \"#utility.yul\":28167:28184   */\n      add\n        /* \"#utility.yul\":28160:28207   */\n      mstore\n        /* \"#utility.yul\":28224:28355   */\n      tag_546\n        /* \"#utility.yul\":28350:28354   */\n      dup2\n        /* \"#utility.yul\":28224:28355   */\n      tag_280\n      jump\t// in\n    tag_546:\n        /* \"#utility.yul\":28216:28355   */\n      swap1\n      pop\n        /* \"#utility.yul\":27943:28362   */\n      swap2\n      swap1\n      pop\n      jump\t// out\n        /* \"#utility.yul\":28368:28700   */\n    tag_138:\n        /* \"#utility.yul\":28489:28493   */\n      0x00\n        /* \"#utility.yul\":28527:28529   */\n      0x40\n        /* \"#utility.yul\":28516:28525   */\n      dup3\n        /* \"#utility.yul\":28512:28530   */\n      add\n        /* \"#utility.yul\":28504:28530   */\n      swap1\n      pop\n        /* \"#utility.yul\":28540:28611   */\n      tag_548\n        /* \"#utility.yul\":28608:28609   */\n      0x00\n        /* \"#utility.yul\":28597:28606   */\n      dup4\n        /* \"#utility.yul\":28593:28610   */\n      add\n        /* \"#utility.yul\":28584:28590   */\n      dup6\n        /* \"#utility.yul\":28540:28611   */\n      tag_269\n      jump\t// in\n    tag_548:\n        /* \"#utility.yul\":28621:28693   */\n      tag_549\n        /* \"#utility.yul\":28689:28691   */\n      0x20\n        /* \"#utility.yul\":28678:28687   */\n      dup4\n        /* \"#utility.yul\":28674:28692   */\n      add\n        /* \"#utility.yul\":28665:28671   */\n      dup5\n        /* \"#utility.yul\":28621:28693   */\n      tag_269\n      jump\t// in\n    tag_549:\n        /* \"#utility.yul\":28368:28700   */\n      swap4\n      swap3\n      pop\n      pop\n      pop\n      jump\t// out\n        /* \"#utility.yul\":28706:28884   */\n    tag_281:\n        /* \"#utility.yul\":28846:28876   */\n      0x4e6674206e6f7420617070726f76656420746f20636f6e747261637400000000\n        /* \"#utility.yul\":28842:28843   */\n      0x00\n        /* \"#utility.yul\":28834:28840   */\n      dup3\n        /* \"#utility.yul\":28830:28844   */\n      add\n        /* \"#utility.yul\":28823:28877   */\n      mstore\n        /* \"#utility.yul\":28706:28884   */\n      pop\n      jump\t// out\n        /* \"#utility.yul\":28890:29256   */\n    tag_282:\n        /* \"#utility.yul\":29032:29035   */\n      0x00\n        /* \"#utility.yul\":29053:29120   */\n      tag_552\n        /* \"#utility.yul\":29117:29119   */\n      0x1c\n        /* \"#utility.yul\":29112:29115   */\n      dup4\n        /* \"#utility.yul\":29053:29120   */\n      tag_262\n      jump\t// in\n    tag_552:\n        /* \"#utility.yul\":29046:29120   */\n      swap2\n      pop\n        /* \"#utility.yul\":29129:29222   */\n      tag_553\n        /* \"#utility.yul\":29218:29221   */\n      dup3\n        /* \"#utility.yul\":29129:29222   */\n      tag_281\n      jump\t// in\n    tag_553:\n        /* \"#utility.yul\":29247:29249   */\n      0x20\n        /* \"#utility.yul\":29242:29245   */\n      dup3\n        /* \"#utility.yul\":29238:29250   */\n      add\n        /* \"#utility.yul\":29231:29250   */\n      swap1\n      pop\n        /* \"#utility.yul\":28890:29256   */\n      swap2\n      swap1\n      pop\n      jump\t// out\n        /* \"#utility.yul\":29262:29681   */\n    tag_144:\n        /* \"#utility.yul\":29428:29432   */\n      0x00\n        /* \"#utility.yul\":29466:29468   */\n      0x20\n        /* \"#utility.yul\":29455:29464   */\n      dup3\n        /* \"#utility.yul\":29451:29469   */\n      add\n        /* \"#utility.yul\":29443:29469   */\n      swap1\n      pop\n        /* \"#utility.yul\":29515:29524   */\n      dup2\n        /* \"#utility.yul\":29509:29513   */\n      dup2\n        /* \"#utility.yul\":29505:29525   */\n      sub\n        /* \"#utility.yul\":29501:29502   */\n      0x00\n        /* \"#utility.yul\":29490:29499   */\n      dup4\n        /* \"#utility.yul\":29486:29503   */\n      add\n        /* \"#utility.yul\":29479:29526   */\n      mstore\n        /* \"#utility.yul\":29543:29674   */\n      tag_555\n        /* \"#utility.yul\":29669:29673   */\n      dup2\n        /* \"#utility.yul\":29543:29674   */\n      tag_282\n      jump\t// in\n    tag_555:\n        /* \"#utility.yul\":29535:29674   */\n      swap1\n      pop\n        /* \"#utility.yul\":29262:29681   */\n      swap2\n      swap1\n      pop\n      jump\t// out\n        /* \"#utility.yul\":29687:30573   */\n    tag_155:\n        /* \"#utility.yul\":29948:29952   */\n      0x00\n        /* \"#utility.yul\":29986:29989   */\n      0xe0\n        /* \"#utility.yul\":29975:29984   */\n      dup3\n        /* \"#utility.yul\":29971:29990   */\n      add\n        /* \"#utility.yul\":29963:29990   */\n      swap1\n      pop\n        /* \"#utility.yul\":30000:30071   */\n      tag_557\n        /* \"#utility.yul\":30068:30069   */\n      0x00\n        /* \"#utility.yul\":30057:30066   */\n      dup4\n        /* \"#utility.yul\":30053:30070   */\n      add\n        /* \"#utility.yul\":30044:30050   */\n      dup11\n        /* \"#utility.yul\":30000:30071   */\n      tag_269\n      jump\t// in\n    tag_557:\n        /* \"#utility.yul\":30081:30153   */\n      tag_558\n        /* \"#utility.yul\":30149:30151   */\n      0x20\n        /* \"#utility.yul\":30138:30147   */\n      dup4\n        /* \"#utility.yul\":30134:30152   */\n      add\n        /* \"#utility.yul\":30125:30131   */\n      dup10\n        /* \"#utility.yul\":30081:30153   */\n      tag_269\n      jump\t// in\n    tag_558:\n        /* \"#utility.yul\":30163:30235   */\n      tag_559\n        /* \"#utility.yul\":30231:30233   */\n      0x40\n        /* \"#utility.yul\":30220:30229   */\n      dup4\n        /* \"#utility.yul\":30216:30234   */\n      add\n        /* \"#utility.yul\":30207:30213   */\n      dup9\n        /* \"#utility.yul\":30163:30235   */\n      tag_269\n      jump\t// in\n    tag_559:\n        /* \"#utility.yul\":30245:30317   */\n      tag_560\n        /* \"#utility.yul\":30313:30315   */\n      0x60\n        /* \"#utility.yul\":30302:30311   */\n      dup4\n        /* \"#utility.yul\":30298:30316   */\n      add\n        /* \"#utility.yul\":30289:30295   */\n      dup8\n        /* \"#utility.yul\":30245:30317   */\n      tag_233\n      jump\t// in\n    tag_560:\n        /* \"#utility.yul\":30327:30400   */\n      tag_561\n        /* \"#utility.yul\":30395:30398   */\n      0x80\n        /* \"#utility.yul\":30384:30393   */\n      dup4\n        /* \"#utility.yul\":30380:30399   */\n      add\n        /* \"#utility.yul\":30371:30377   */\n      dup7\n        /* \"#utility.yul\":30327:30400   */\n      tag_233\n      jump\t// in\n    tag_561:\n        /* \"#utility.yul\":30410:30483   */\n      tag_562\n        /* \"#utility.yul\":30478:30481   */\n      0xa0\n        /* \"#utility.yul\":30467:30476   */\n      dup4\n        /* \"#utility.yul\":30463:30482   */\n      add\n        /* \"#utility.yul\":30454:30460   */\n      dup6\n        /* \"#utility.yul\":30410:30483   */\n      tag_233\n      jump\t// in\n    tag_562:\n        /* \"#utility.yul\":30493:30566   */\n      tag_563\n        /* \"#utility.yul\":30561:30564   */\n      0xc0\n        /* \"#utility.yul\":30550:30559   */\n      dup4\n        /* \"#utility.yul\":30546:30565   */\n      add\n        /* \"#utility.yul\":30537:30543   */\n      dup5\n        /* \"#utility.yul\":30493:30566   */\n      tag_233\n      jump\t// in\n    tag_563:\n        /* \"#utility.yul\":29687:30573   */\n      swap9\n      swap8\n      pop\n      pop\n      pop\n      pop\n      pop\n      pop\n      pop\n      pop\n      jump\t// out\n        /* \"#utility.yul\":30579:30759   */\n    tag_169:\n        /* \"#utility.yul\":30627:30704   */\n      0x4e487b7100000000000000000000000000000000000000000000000000000000\n        /* \"#utility.yul\":30624:30625   */\n      0x00\n        /* \"#utility.yul\":30617:30705   */\n      mstore\n        /* \"#utility.yul\":30724:30728   */\n      0x32\n        /* \"#utility.yul\":30721:30722   */\n      0x04\n        /* \"#utility.yul\":30714:30729   */\n      mstore\n        /* \"#utility.yul\":30748:30752   */\n      0x24\n        /* \"#utility.yul\":30745:30746   */\n      0x00\n        /* \"#utility.yul\":30738:30753   */\n      revert\n        /* \"#utility.yul\":30765:31207   */\n    tag_172:\n        /* \"#utility.yul\":30914:30918   */\n      0x00\n        /* \"#utility.yul\":30952:30954   */\n      0x60\n        /* \"#utility.yul\":30941:30950   */\n      dup3\n        /* \"#utility.yul\":30937:30955   */\n      add\n        /* \"#utility.yul\":30929:30955   */\n      swap1\n      pop\n        /* \"#utility.yul\":30965:31036   */\n      tag_566\n        /* \"#utility.yul\":31033:31034   */\n      0x00\n        /* \"#utility.yul\":31022:31031   */\n      dup4\n        /* \"#utility.yul\":31018:31035   */\n      add\n        /* \"#utility.yul\":31009:31015   */\n      dup7\n        /* \"#utility.yul\":30965:31036   */\n      tag_269\n      jump\t// in\n    tag_566:\n        /* \"#utility.yul\":31046:31118   */\n      tag_567\n        /* \"#utility.yul\":31114:31116   */\n      0x20\n        /* \"#utility.yul\":31103:31112   */\n      dup4\n        /* \"#utility.yul\":31099:31117   */\n      add\n        /* \"#utility.yul\":31090:31096   */\n      dup6\n        /* \"#utility.yul\":31046:31118   */\n      tag_269\n      jump\t// in\n    tag_567:\n        /* \"#utility.yul\":31128:31200   */\n      tag_568\n        /* \"#utility.yul\":31196:31198   */\n      0x40\n        /* \"#utility.yul\":31185:31194   */\n      dup4\n        /* \"#utility.yul\":31181:31199   */\n      add\n        /* \"#utility.yul\":31172:31178   */\n      dup5\n        /* \"#utility.yul\":31128:31200   */\n      tag_233\n      jump\t// in\n    tag_568:\n        /* \"#utility.yul\":30765:31207   */\n      swap5\n      swap4\n      pop\n      pop\n      pop\n      pop\n      jump\t// out\n        /* \"#utility.yul\":31213:31407   */\n    tag_189:\n        /* \"#utility.yul\":31253:31257   */\n      0x00\n        /* \"#utility.yul\":31273:31293   */\n      tag_570\n        /* \"#utility.yul\":31291:31292   */\n      dup3\n        /* \"#utility.yul\":31273:31293   */\n      tag_230\n      jump\t// in\n    tag_570:\n        /* \"#utility.yul\":31268:31293   */\n      swap2\n      pop\n        /* \"#utility.yul\":31307:31327   */\n      tag_571\n        /* \"#utility.yul\":31325:31326   */\n      dup4\n        /* \"#utility.yul\":31307:31327   */\n      tag_230\n      jump\t// in\n    tag_571:\n        /* \"#utility.yul\":31302:31327   */\n      swap3\n      pop\n        /* \"#utility.yul\":31351:31352   */\n      dup3\n        /* \"#utility.yul\":31348:31349   */\n      dup3\n        /* \"#utility.yul\":31344:31353   */\n      sub\n        /* \"#utility.yul\":31336:31353   */\n      swap1\n      pop\n        /* \"#utility.yul\":31375:31376   */\n      dup2\n        /* \"#utility.yul\":31369:31373   */\n      dup2\n        /* \"#utility.yul\":31366:31377   */\n      gt\n        /* \"#utility.yul\":31363:31400   */\n      iszero\n      tag_572\n      jumpi\n        /* \"#utility.yul\":31380:31398   */\n      tag_573\n      tag_270\n      jump\t// in\n    tag_573:\n        /* \"#utility.yul\":31363:31400   */\n    tag_572:\n        /* \"#utility.yul\":31213:31407   */\n      swap3\n      swap2\n      pop\n      pop\n      jump\t// out\n        /* \"#utility.yul\":31413:31745   */\n    tag_199:\n        /* \"#utility.yul\":31534:31538   */\n      0x00\n        /* \"#utility.yul\":31572:31574   */\n      0x40\n        /* \"#utility.yul\":31561:31570   */\n      dup3\n        /* \"#utility.yul\":31557:31575   */\n      add\n        /* \"#utility.yul\":31549:31575   */\n      swap1\n      pop\n        /* \"#utility.yul\":31585:31656   */\n      tag_575\n        /* \"#utility.yul\":31653:31654   */\n      0x00\n        /* \"#utility.yul\":31642:31651   */\n      dup4\n        /* \"#utility.yul\":31638:31655   */\n      add\n        /* \"#utility.yul\":31629:31635   */\n      dup6\n        /* \"#utility.yul\":31585:31656   */\n      tag_269\n      jump\t// in\n    tag_575:\n        /* \"#utility.yul\":31666:31738   */\n      tag_576\n        /* \"#utility.yul\":31734:31736   */\n      0x20\n        /* \"#utility.yul\":31723:31732   */\n      dup4\n        /* \"#utility.yul\":31719:31737   */\n      add\n        /* \"#utility.yul\":31710:31716   */\n      dup5\n        /* \"#utility.yul\":31666:31738   */\n      tag_233\n      jump\t// in\n    tag_576:\n        /* \"#utility.yul\":31413:31745   */\n      swap4\n      swap3\n      pop\n      pop\n      pop\n      jump\t// out\n        /* \"#utility.yul\":31751:31894   */\n    tag_283:\n        /* \"#utility.yul\":31808:31813   */\n      0x00\n        /* \"#utility.yul\":31839:31845   */\n      dup2\n        /* \"#utility.yul\":31833:31846   */\n      mload\n        /* \"#utility.yul\":31824:31846   */\n      swap1\n      pop\n        /* \"#utility.yul\":31855:31888   */\n      tag_578\n        /* \"#utility.yul\":31882:31887   */\n      dup2\n        /* \"#utility.yul\":31855:31888   */\n      tag_231\n      jump\t// in\n    tag_578:\n        /* \"#utility.yul\":31751:31894   */\n      swap3\n      swap2\n      pop\n      pop\n      jump\t// out\n        /* \"#utility.yul\":31900:32251   */\n    tag_203:\n        /* \"#utility.yul\":31970:31976   */\n      0x00\n        /* \"#utility.yul\":32019:32021   */\n      0x20\n        /* \"#utility.yul\":32007:32016   */\n      dup3\n        /* \"#utility.yul\":31998:32005   */\n      dup5\n        /* \"#utility.yul\":31994:32017   */\n      sub\n        /* \"#utility.yul\":31990:32022   */\n      slt\n        /* \"#utility.yul\":31987:32106   */\n      iszero\n      tag_580\n      jumpi\n        /* \"#utility.yul\":32025:32104   */\n      tag_581\n      tag_222\n      jump\t// in\n    tag_581:\n        /* \"#utility.yul\":31987:32106   */\n    tag_580:\n        /* \"#utility.yul\":32145:32146   */\n      0x00\n        /* \"#utility.yul\":32170:32234   */\n      tag_582\n        /* \"#utility.yul\":32226:32233   */\n      dup5\n        /* \"#utility.yul\":32217:32223   */\n      dup3\n        /* \"#utility.yul\":32206:32215   */\n      dup6\n        /* \"#utility.yul\":32202:32224   */\n      add\n        /* \"#utility.yul\":32170:32234   */\n      tag_283\n      jump\t// in\n    tag_582:\n        /* \"#utility.yul\":32160:32234   */\n      swap2\n      pop\n        /* \"#utility.yul\":32116:32244   */\n      pop\n        /* \"#utility.yul\":31900:32251   */\n      swap3\n      swap2\n      pop\n      pop\n      jump\t// out\n        /* \"#utility.yul\":32257:32427   */\n    tag_284:\n        /* \"#utility.yul\":32397:32419   */\n      0x616c6c6f77616e6365206e6f7420656e6f756768000000000000000000000000\n        /* \"#utility.yul\":32393:32394   */\n      0x00\n        /* \"#utility.yul\":32385:32391   */\n      dup3\n        /* \"#utility.yul\":32381:32395   */\n      add\n        /* \"#utility.yul\":32374:32420   */\n      mstore\n        /* \"#utility.yul\":32257:32427   */\n      pop\n      jump\t// out\n        /* \"#utility.yul\":32433:32799   */\n    tag_285:\n        /* \"#utility.yul\":32575:32578   */\n      0x00\n        /* \"#utility.yul\":32596:32663   */\n      tag_585\n        /* \"#utility.yul\":32660:32662   */\n      0x14\n        /* \"#utility.yul\":32655:32658   */\n      dup4\n        /* \"#utility.yul\":32596:32663   */\n      tag_262\n      jump\t// in\n    tag_585:\n        /* \"#utility.yul\":32589:32663   */\n      swap2\n      pop\n        /* \"#utility.yul\":32672:32765   */\n      tag_586\n        /* \"#utility.yul\":32761:32764   */\n      dup3\n        /* \"#utility.yul\":32672:32765   */\n      tag_284\n      jump\t// in\n    tag_586:\n        /* \"#utility.yul\":32790:32792   */\n      0x20\n        /* \"#utility.yul\":32785:32788   */\n      dup3\n        /* \"#utility.yul\":32781:32793   */\n      add\n        /* \"#utility.yul\":32774:32793   */\n      swap1\n      pop\n        /* \"#utility.yul\":32433:32799   */\n      swap2\n      swap1\n      pop\n      jump\t// out\n        /* \"#utility.yul\":32805:33224   */\n    tag_211:\n        /* \"#utility.yul\":32971:32975   */\n      0x00\n        /* \"#utility.yul\":33009:33011   */\n      0x20\n        /* \"#utility.yul\":32998:33007   */\n      dup3\n        /* \"#utility.yul\":32994:33012   */\n      add\n        /* \"#utility.yul\":32986:33012   */\n      swap1\n      pop\n        /* \"#utility.yul\":33058:33067   */\n      dup2\n        /* \"#utility.yul\":33052:33056   */\n      dup2\n        /* \"#utility.yul\":33048:33068   */\n      sub\n        /* \"#utility.yul\":33044:33045   */\n      0x00\n        /* \"#utility.yul\":33033:33042   */\n      dup4\n        /* \"#utility.yul\":33029:33046   */\n      add\n        /* \"#utility.yul\":33022:33069   */\n      mstore\n        /* \"#utility.yul\":33086:33217   */\n      tag_588\n        /* \"#utility.yul\":33212:33216   */\n      dup2\n        /* \"#utility.yul\":33086:33217   */\n      tag_285\n      jump\t// in\n    tag_588:\n        /* \"#utility.yul\":33078:33217   */\n      swap1\n      pop\n        /* \"#utility.yul\":32805:33224   */\n      swap2\n      swap1\n      pop\n      jump\t// out\n        /* \"#utility.yul\":33230:33377   */\n    tag_286:\n        /* \"#utility.yul\":33331:33342   */\n      0x00\n        /* \"#utility.yul\":33368:33371   */\n      dup2\n        /* \"#utility.yul\":33353:33371   */\n      swap1\n      pop\n        /* \"#utility.yul\":33230:33377   */\n      swap3\n      swap2\n      pop\n      pop\n      jump\t// out\n        /* \"#utility.yul\":33383:33497   */\n    tag_287:\n      pop\n      jump\t// out\n        /* \"#utility.yul\":33503:33901   */\n    tag_288:\n        /* \"#utility.yul\":33662:33665   */\n      0x00\n        /* \"#utility.yul\":33683:33766   */\n      tag_592\n        /* \"#utility.yul\":33764:33765   */\n      0x00\n        /* \"#utility.yul\":33759:33762   */\n      dup4\n        /* \"#utility.yul\":33683:33766   */\n      tag_286\n      jump\t// in\n    tag_592:\n        /* \"#utility.yul\":33676:33766   */\n      swap2\n      pop\n        /* \"#utility.yul\":33775:33868   */\n      tag_593\n        /* \"#utility.yul\":33864:33867   */\n      dup3\n        /* \"#utility.yul\":33775:33868   */\n      tag_287\n      jump\t// in\n    tag_593:\n        /* \"#utility.yul\":33893:33894   */\n      0x00\n        /* \"#utility.yul\":33888:33891   */\n      dup3\n        /* \"#utility.yul\":33884:33895   */\n      add\n        /* \"#utility.yul\":33877:33895   */\n      swap1\n      pop\n        /* \"#utility.yul\":33503:33901   */\n      swap2\n      swap1\n      pop\n      jump\t// out\n        /* \"#utility.yul\":33907:34286   */\n    tag_214:\n        /* \"#utility.yul\":34091:34094   */\n      0x00\n        /* \"#utility.yul\":34113:34260   */\n      tag_595\n        /* \"#utility.yul\":34256:34259   */\n      dup3\n        /* \"#utility.yul\":34113:34260   */\n      tag_288\n      jump\t// in\n    tag_595:\n        /* \"#utility.yul\":34106:34260   */\n      swap2\n      pop\n        /* \"#utility.yul\":34277:34280   */\n      dup2\n        /* \"#utility.yul\":34270:34280   */\n      swap1\n      pop\n        /* \"#utility.yul\":33907:34286   */\n      swap2\n      swap1\n      pop\n      jump\t// out\n        /* \"#utility.yul\":34292:34455   */\n    tag_289:\n        /* \"#utility.yul\":34432:34447   */\n      0x726566756e64206661696c656400000000000000000000000000000000000000\n        /* \"#utility.yul\":34428:34429   */\n      0x00\n        /* \"#utility.yul\":34420:34426   */\n      dup3\n        /* \"#utility.yul\":34416:34430   */\n      add\n        /* \"#utility.yul\":34409:34448   */\n      mstore\n        /* \"#utility.yul\":34292:34455   */\n      pop\n      jump\t// out\n        /* \"#utility.yul\":34461:34827   */\n    tag_290:\n        /* \"#utility.yul\":34603:34606   */\n      0x00\n        /* \"#utility.yul\":34624:34691   */\n      tag_598\n        /* \"#utility.yul\":34688:34690   */\n      0x0d\n        /* \"#utility.yul\":34683:34686   */\n      dup4\n        /* \"#utility.yul\":34624:34691   */\n      tag_262\n      jump\t// in\n    tag_598:\n        /* \"#utility.yul\":34617:34691   */\n      swap2\n      pop\n        /* \"#utility.yul\":34700:34793   */\n      tag_599\n        /* \"#utility.yul\":34789:34792   */\n      dup3\n        /* \"#utility.yul\":34700:34793   */\n      tag_289\n      jump\t// in\n    tag_599:\n        /* \"#utility.yul\":34818:34820   */\n      0x20\n        /* \"#utility.yul\":34813:34816   */\n      dup3\n        /* \"#utility.yul\":34809:34821   */\n      add\n        /* \"#utility.yul\":34802:34821   */\n      swap1\n      pop\n        /* \"#utility.yul\":34461:34827   */\n      swap2\n      swap1\n      pop\n      jump\t// out\n        /* \"#utility.yul\":34833:35252   */\n    tag_220:\n        /* \"#utility.yul\":34999:35003   */\n      0x00\n        /* \"#utility.yul\":35037:35039   */\n      0x20\n        /* \"#utility.yul\":35026:35035   */\n      dup3\n        /* \"#utility.yul\":35022:35040   */\n      add\n        /* \"#utility.yul\":35014:35040   */\n      swap1\n      pop\n        /* \"#utility.yul\":35086:35095   */\n      dup2\n        /* \"#utility.yul\":35080:35084   */\n      dup2\n        /* \"#utility.yul\":35076:35096   */\n      sub\n        /* \"#utility.yul\":35072:35073   */\n      0x00\n        /* \"#utility.yul\":35061:35070   */\n      dup4\n        /* \"#utility.yul\":35057:35074   */\n      add\n        /* \"#utility.yul\":35050:35097   */\n      mstore\n        /* \"#utility.yul\":35114:35245   */\n      tag_601\n        /* \"#utility.yul\":35240:35244   */\n      dup2\n        /* \"#utility.yul\":35114:35245   */\n      tag_290\n      jump\t// in\n    tag_601:\n        /* \"#utility.yul\":35106:35245   */\n      swap1\n      pop\n        /* \"#utility.yul\":34833:35252   */\n      swap2\n      swap1\n      pop\n      jump\t// out\n\n    auxdata: 0xa26469706673582212200ba510c550d1bd4aff68cc9272b7d1e69c31ff63bb0ba0956fb8d8df91fc428464736f6c63430008100033\n}\n",
				"bytecode": {
					"linkReferences": {},
					"object": "608060405234801561001057600080fd5b50612cd4806100206000396000f3fe6080604052600436106100a05760003560e01c8063804e9f2411610064578063804e9f24146101945780638c3417da146101bd5780639b8cfe52146101fa5780639f085a0014610225578063bc197c8114610250578063f23a6e611461028d576100a7565b8063282e460a146100ac5780634676adca146100e95780636916462f146101125780636eb849941461014f578063771b57881461016b576100a7565b366100a757005b600080fd5b3480156100b857600080fd5b506100d360048036038101906100ce9190611be2565b6102ca565b6040516100e09190611c2a565b60405180910390f35b3480156100f557600080fd5b50610110600480360381019061010b9190611c7b565b61036d565b005b34801561011e57600080fd5b5061013960048036038101906101349190611cce565b6105c3565b6040516101469190611d1d565b60405180910390f35b61016960048036038101906101649190611e7e565b6105e8565b005b34801561017757600080fd5b50610192600480360381019061018d9190611f15565b610a1e565b005b3480156101a057600080fd5b506101bb60048036038101906101b69190611fbe565b610fc1565b005b3480156101c957600080fd5b506101e460048036038101906101df9190611cce565b6112e9565b6040516101f191906120c7565b60405180910390f35b34801561020657600080fd5b5061020f611469565b60405161021c919061211d565b60405180910390f35b34801561023157600080fd5b5061023a61148d565b6040516102479190612216565b60405180910390f35b34801561025c57600080fd5b50610277600480360381019061027291906122ee565b61154c565b604051610284919061211d565b60405180910390f35b34801561029957600080fd5b506102b460048036038101906102af91906123ca565b611564565b6040516102c1919061211d565b60405180910390f35b60008173ffffffffffffffffffffffffffffffffffffffff166301ffc9a77fd9b67a26000000000000000000000000000000000000000000000000000000006040518263ffffffff1660e01b8152600401610325919061211d565b602060405180830381865afa158015610342573d6000803e3d6000fd5b505050506040513d601f19601f820116820180604052508101906103669190612490565b9050919050565b828260018060008473ffffffffffffffffffffffffffffffffffffffff1673ffffffffffffffffffffffffffffffffffffffff16815260200190815260200160002060008381526020019081526020016000205414610401576040517f08c379a00000000000000000000000000000000000000000000000000000000081526004016103f89061251a565b60405180910390fd5b84846000808373ffffffffffffffffffffffffffffffffffffffff1673ffffffffffffffffffffffffffffffffffffffff168152602001908152602001600020600082815260200190815260200160002060000160009054906101000a900473ffffffffffffffffffffffffffffffffffffffff1673ffffffffffffffffffffffffffffffffffffffff163373ffffffffffffffffffffffffffffffffffffffff16146104e3576040517f08c379a00000000000000000000000000000000000000000000000000000000081526004016104da90612586565b60405180910390fd5b8460008111610527576040517f08c379a000000000000000000000000000000000000000000000000000000000815260040161051e906125f2565b60405180910390fd5b856000808a73ffffffffffffffffffffffffffffffffffffffff1673ffffffffffffffffffffffffffffffffffffffff1681526020019081526020016000206000898152602001908152602001600020600401819055507f575a0876095ccf47276a37dce683308a625403d132d219f95205ce205b2e12bc8888886040516105b193929190612621565b60405180910390a15050505050505050565b6001602052816000526040600020602052806000526040600020600091509150505481565b848460018060008473ffffffffffffffffffffffffffffffffffffffff1673ffffffffffffffffffffffffffffffffffffffff1681526020019081526020016000206000838152602001908152602001600020541461067c576040517f08c379a00000000000000000000000000000000000000000000000000000000081526004016106739061251a565b60405180910390fd5b84600081116106c0576040517f08c379a00000000000000000000000000000000000000000000000000000000081526004016106b7906125f2565b60405180910390fd5b87878787806000808673ffffffffffffffffffffffffffffffffffffffff1673ffffffffffffffffffffffffffffffffffffffff1681526020019081526020016000206000858152602001908152602001600020600401546107229190612687565b821015610764576040517f08c379a000000000000000000000000000000000000000000000000000000000815260040161075b9061272d565b60405180910390fd5b600089141580156107c75750886000808e73ffffffffffffffffffffffffffffffffffffffff1673ffffffffffffffffffffffffffffffffffffffff16815260200190815260200160002060008d81526020019081526020016000206003015410155b610806576040517f08c379a00000000000000000000000000000000000000000000000000000000081526004016107fd906127bf565b60405180910390fd5b60008c905060008c90508173ffffffffffffffffffffffffffffffffffffffff1663f242432a3330848f8f6040518663ffffffff1660e01b815260040161085195949392919061285e565b600060405180830381600087803b15801561086b57600080fd5b505af115801561087f573d6000803e3d6000fd5b5050505061088e82828d61157a565b6109cf6000808473ffffffffffffffffffffffffffffffffffffffff1673ffffffffffffffffffffffffffffffffffffffff168152602001908152602001600020600083815260200190815260200160002060000160009054906101000a900473ffffffffffffffffffffffffffffffffffffffff166000808573ffffffffffffffffffffffffffffffffffffffff1673ffffffffffffffffffffffffffffffffffffffff168152602001908152602001600020600084815260200190815260200160002060020160009054906101000a900473ffffffffffffffffffffffffffffffffffffffff166000808673ffffffffffffffffffffffffffffffffffffffff1673ffffffffffffffffffffffffffffffffffffffff1681526020019081526020016000206000858152602001908152602001600020600401546118ae565b7fb71c803b3dc073c348b9a8f845d03c3ffb6f423ea4a86e29fc5f5ca5a401c43a8233838f8f604051610a069594939291906128b8565b60405180910390a15050505050505050505050505050565b8584610a2a8282611902565b610a69576040517f08c379a0000000000000000000000000000000000000000000000000000000008152600401610a6090612586565b60405180910390fd5b87866000600160008473ffffffffffffffffffffffffffffffffffffffff1673ffffffffffffffffffffffffffffffffffffffff16815260200190815260200160002060008381526020019081526020016000205414610afe576040517f08c379a0000000000000000000000000000000000000000000000000000000008152600401610af590612957565b60405180910390fd5b89888173ffffffffffffffffffffffffffffffffffffffff1663e985e9c533306040518363ffffffff1660e01b8152600401610b3b929190612977565b602060405180830381865afa158015610b58573d6000803e3d6000fd5b505050506040513d601f19601f82011682018060405250810190610b7c9190612490565b610bbb576040517f08c379a0000000000000000000000000000000000000000000000000000000008152600401610bb2906129ec565b60405180910390fd5b8760008111610bff576040517f08c379a0000000000000000000000000000000000000000000000000000000008152600401610bf6906125f2565b60405180910390fd5b6040518060a001604052803373ffffffffffffffffffffffffffffffffffffffff168152602001600073ffffffffffffffffffffffffffffffffffffffff1681526020018d73ffffffffffffffffffffffffffffffffffffffff1681526020018b81526020018a8152506000808f73ffffffffffffffffffffffffffffffffffffffff1673ffffffffffffffffffffffffffffffffffffffff16815260200190815260200160002060008d815260200190815260200160002060008201518160000160006101000a81548173ffffffffffffffffffffffffffffffffffffffff021916908373ffffffffffffffffffffffffffffffffffffffff16021790555060208201518160010160006101000a81548173ffffffffffffffffffffffffffffffffffffffff021916908373ffffffffffffffffffffffffffffffffffffffff16021790555060408201518160020160006101000a81548173ffffffffffffffffffffffffffffffffffffffff021916908373ffffffffffffffffffffffffffffffffffffffff160217905550606082015181600301556080820151816004015590505060018060008f73ffffffffffffffffffffffffffffffffffffffff1673ffffffffffffffffffffffffffffffffffffffff16815260200190815260200160002060008d815260200190815260200160002081905550600380549050600260008f73ffffffffffffffffffffffffffffffffffffffff1673ffffffffffffffffffffffffffffffffffffffff16815260200190815260200160002060008d815260200190815260200160002081905550600360405180604001604052808f73ffffffffffffffffffffffffffffffffffffffff1681526020018d815250908060018154018082558091505060019003906000526020600020906002020160009091909190915060008201518160000160006101000a81548173ffffffffffffffffffffffffffffffffffffffff021916908373ffffffffffffffffffffffffffffffffffffffff1602179055506020820151816001015550508c73ffffffffffffffffffffffffffffffffffffffff1663f242432a33308e8e8d6040518663ffffffff1660e01b8152600401610f3d95949392919061285e565b600060405180830381600087803b158015610f5757600080fd5b505af1158015610f6b573d6000803e3d6000fd5b505050507f938b2f79c6d40413c38c16569ce7d13d8fb10b1b1f5d6f4b6448aeb9d7b189f38d338e8e8e8e42604051610faa9796959493929190612a0c565b60405180910390a150505050505050505050505050565b838360018060008473ffffffffffffffffffffffffffffffffffffffff1673ffffffffffffffffffffffffffffffffffffffff16815260200190815260200160002060008381526020019081526020016000205414611055576040517f08c379a000000000000000000000000000000000000000000000000000000000815260040161104c9061251a565b60405180910390fd5b85856000808373ffffffffffffffffffffffffffffffffffffffff1673ffffffffffffffffffffffffffffffffffffffff168152602001908152602001600020600082815260200190815260200160002060000160009054906101000a900473ffffffffffffffffffffffffffffffffffffffff1673ffffffffffffffffffffffffffffffffffffffff163373ffffffffffffffffffffffffffffffffffffffff1614611137576040517f08c379a000000000000000000000000000000000000000000000000000000000815260040161112e90612586565b60405180910390fd5b8773ffffffffffffffffffffffffffffffffffffffff1663f242432a33308a8a8a6040518663ffffffff1660e01b815260040161117895949392919061285e565b600060405180830381600087803b15801561119257600080fd5b505af11580156111a6573d6000803e3d6000fd5b505050506000600160008a73ffffffffffffffffffffffffffffffffffffffff1673ffffffffffffffffffffffffffffffffffffffff1681526020019081526020016000206000898152602001908152602001600020819055506003600260008a73ffffffffffffffffffffffffffffffffffffffff1673ffffffffffffffffffffffffffffffffffffffff1681526020019081526020016000206000898152602001908152602001600020548154811061126457611263612a7b565b5b9060005260206000209060020201600080820160006101000a81549073ffffffffffffffffffffffffffffffffffffffff0219169055600182016000905550507fd7348ff00cf381a884144b50b3441398a48a7974ec349287df80e18cec9f5a318833896040516112d793929190612aaa565b60405180910390a15050505050505050565b6112f1611aff565b6000808473ffffffffffffffffffffffffffffffffffffffff1673ffffffffffffffffffffffffffffffffffffffff16815260200190815260200160002060008381526020019081526020016000206040518060a00160405290816000820160009054906101000a900473ffffffffffffffffffffffffffffffffffffffff1673ffffffffffffffffffffffffffffffffffffffff1673ffffffffffffffffffffffffffffffffffffffff1681526020016001820160009054906101000a900473ffffffffffffffffffffffffffffffffffffffff1673ffffffffffffffffffffffffffffffffffffffff1673ffffffffffffffffffffffffffffffffffffffff1681526020016002820160009054906101000a900473ffffffffffffffffffffffffffffffffffffffff1673ffffffffffffffffffffffffffffffffffffffff1673ffffffffffffffffffffffffffffffffffffffff16815260200160038201548152602001600482015481525050905092915050565b7fd9b67a260000000000000000000000000000000000000000000000000000000081565b60606003805480602002602001604051908101604052809291908181526020016000905b8282101561154357838290600052602060002090600202016040518060400160405290816000820160009054906101000a900473ffffffffffffffffffffffffffffffffffffffff1673ffffffffffffffffffffffffffffffffffffffff1673ffffffffffffffffffffffffffffffffffffffff168152602001600182015481525050815260200190600101906114b1565b50505050905090565b600063bc197c8160e01b905098975050505050505050565b600063f23a6e6160e01b90509695505050505050565b806000808573ffffffffffffffffffffffffffffffffffffffff1673ffffffffffffffffffffffffffffffffffffffff16815260200190815260200160002060008481526020019081526020016000206003015403611763576000600160008573ffffffffffffffffffffffffffffffffffffffff1673ffffffffffffffffffffffffffffffffffffffff1681526020019081526020016000206000848152602001908152602001600020819055506003600260008573ffffffffffffffffffffffffffffffffffffffff1673ffffffffffffffffffffffffffffffffffffffff1681526020019081526020016000206000848152602001908152602001600020548154811061168d5761168c612a7b565b5b9060005260206000209060020201600080820160006101000a81549073ffffffffffffffffffffffffffffffffffffffff021916905560018201600090555050336000808573ffffffffffffffffffffffffffffffffffffffff1673ffffffffffffffffffffffffffffffffffffffff168152602001908152602001600020600084815260200190815260200160002060010160006101000a81548173ffffffffffffffffffffffffffffffffffffffff021916908373ffffffffffffffffffffffffffffffffffffffff1602179055506118a9565b806000808573ffffffffffffffffffffffffffffffffffffffff1673ffffffffffffffffffffffffffffffffffffffff1681526020019081526020016000206000848152602001908152602001600020600301546117c19190612ae1565b6000808573ffffffffffffffffffffffffffffffffffffffff1673ffffffffffffffffffffffffffffffffffffffff168152602001908152602001600020600084815260200190815260200160002060030181905550336000808573ffffffffffffffffffffffffffffffffffffffff1673ffffffffffffffffffffffffffffffffffffffff168152602001908152602001600020600084815260200190815260200160002060010160006101000a81548173ffffffffffffffffffffffffffffffffffffffff021916908373ffffffffffffffffffffffffffffffffffffffff1602179055505b505050565b600073ffffffffffffffffffffffffffffffffffffffff168273ffffffffffffffffffffffffffffffffffffffff16146118f2576118ed83838361198a565b6118fd565b6118fc8382611a4e565b5b505050565b6000808373ffffffffffffffffffffffffffffffffffffffff1662fdd58e33856040518363ffffffff1660e01b815260040161193f929190612b15565b602060405180830381865afa15801561195c573d6000803e3d6000fd5b505050506040513d601f19601f820116820180604052508101906119809190612b53565b1415905092915050565b8173ffffffffffffffffffffffffffffffffffffffff166323b872dd3385846040518463ffffffff1660e01b81526004016119c793929190612aaa565b6020604051808303816000875af11580156119e6573d6000803e3d6000fd5b505050506040513d601f19601f82011682018060405250810190611a0a9190612490565b611a49576040517f08c379a0000000000000000000000000000000000000000000000000000000008152600401611a4090612bcc565b60405180910390fd5b505050565b60008273ffffffffffffffffffffffffffffffffffffffff1682604051611a7490612c1d565b60006040518083038185875af1925050503d8060008114611ab1576040519150601f19603f3d011682016040523d82523d6000602084013e611ab6565b606091505b5050905080611afa576040517f08c379a0000000000000000000000000000000000000000000000000000000008152600401611af190612c7e565b60405180910390fd5b505050565b6040518060a00160405280600073ffffffffffffffffffffffffffffffffffffffff168152602001600073ffffffffffffffffffffffffffffffffffffffff168152602001600073ffffffffffffffffffffffffffffffffffffffff16815260200160008152602001600081525090565b6000604051905090565b600080fd5b600080fd5b600073ffffffffffffffffffffffffffffffffffffffff82169050919050565b6000611baf82611b84565b9050919050565b611bbf81611ba4565b8114611bca57600080fd5b50565b600081359050611bdc81611bb6565b92915050565b600060208284031215611bf857611bf7611b7a565b5b6000611c0684828501611bcd565b91505092915050565b60008115159050919050565b611c2481611c0f565b82525050565b6000602082019050611c3f6000830184611c1b565b92915050565b6000819050919050565b611c5881611c45565b8114611c6357600080fd5b50565b600081359050611c7581611c4f565b92915050565b600080600060608486031215611c9457611c93611b7a565b5b6000611ca286828701611bcd565b9350506020611cb386828701611c66565b9250506040611cc486828701611c66565b9150509250925092565b60008060408385031215611ce557611ce4611b7a565b5b6000611cf385828601611bcd565b9250506020611d0485828601611c66565b9150509250929050565b611d1781611c45565b82525050565b6000602082019050611d326000830184611d0e565b92915050565b600080fd5b600080fd5b6000601f19601f8301169050919050565b7f4e487b7100000000000000000000000000000000000000000000000000000000600052604160045260246000fd5b611d8b82611d42565b810181811067ffffffffffffffff82111715611daa57611da9611d53565b5b80604052505050565b6000611dbd611b70565b9050611dc98282611d82565b919050565b600067ffffffffffffffff821115611de957611de8611d53565b5b611df282611d42565b9050602081019050919050565b82818337600083830152505050565b6000611e21611e1c84611dce565b611db3565b905082815260208101848484011115611e3d57611e3c611d3d565b5b611e48848285611dff565b509392505050565b600082601f830112611e6557611e64611d38565b5b8135611e75848260208601611e0e565b91505092915050565b600080600080600060a08688031215611e9a57611e99611b7a565b5b6000611ea888828901611bcd565b9550506020611eb988828901611c66565b9450506040611eca88828901611c66565b9350506060611edb88828901611c66565b925050608086013567ffffffffffffffff811115611efc57611efb611b7f565b5b611f0888828901611e50565b9150509295509295909350565b60008060008060008060c08789031215611f3257611f31611b7a565b5b6000611f4089828a01611bcd565b9650506020611f5189828a01611bcd565b9550506040611f6289828a01611c66565b9450506060611f7389828a01611c66565b9350506080611f8489828a01611c66565b92505060a087013567ffffffffffffffff811115611fa557611fa4611b7f565b5b611fb189828a01611e50565b9150509295509295509295565b60008060008060808587031215611fd857611fd7611b7a565b5b6000611fe687828801611bcd565b9450506020611ff787828801611c66565b935050604061200887828801611c66565b925050606085013567ffffffffffffffff81111561202957612028611b7f565b5b61203587828801611e50565b91505092959194509250565b61204a81611ba4565b82525050565b61205981611c45565b82525050565b60a0820160008201516120756000850182612041565b5060208201516120886020850182612041565b50604082015161209b6040850182612041565b5060608201516120ae6060850182612050565b5060808201516120c16080850182612050565b50505050565b600060a0820190506120dc600083018461205f565b92915050565b60007fffffffff0000000000000000000000000000000000000000000000000000000082169050919050565b612117816120e2565b82525050565b6000602082019050612132600083018461210e565b92915050565b600081519050919050565b600082825260208201905092915050565b6000819050602082019050919050565b60408201600082015161217a6000850182612041565b50602082015161218d6020850182612050565b50505050565b600061219f8383612164565b60408301905092915050565b6000602082019050919050565b60006121c382612138565b6121cd8185612143565b93506121d883612154565b8060005b838110156122095781516121f08882612193565b97506121fb836121ab565b9250506001810190506121dc565b5085935050505092915050565b6000602082019050818103600083015261223081846121b8565b905092915050565b600080fd5b600080fd5b60008083601f84011261225857612257611d38565b5b8235905067ffffffffffffffff81111561227557612274612238565b5b6020830191508360208202830111156122915761229061223d565b5b9250929050565b60008083601f8401126122ae576122ad611d38565b5b8235905067ffffffffffffffff8111156122cb576122ca612238565b5b6020830191508360018202830111156122e7576122e661223d565b5b9250929050565b60008060008060008060008060a0898b03121561230e5761230d611b7a565b5b600061231c8b828c01611bcd565b985050602061232d8b828c01611bcd565b975050604089013567ffffffffffffffff81111561234e5761234d611b7f565b5b61235a8b828c01612242565b9650965050606089013567ffffffffffffffff81111561237d5761237c611b7f565b5b6123898b828c01612242565b9450945050608089013567ffffffffffffffff8111156123ac576123ab611b7f565b5b6123b88b828c01612298565b92509250509295985092959890939650565b60008060008060008060a087890312156123e7576123e6611b7a565b5b60006123f589828a01611bcd565b965050602061240689828a01611bcd565b955050604061241789828a01611c66565b945050606061242889828a01611c66565b935050608087013567ffffffffffffffff81111561244957612448611b7f565b5b61245589828a01612298565b92509250509295509295509295565b61246d81611c0f565b811461247857600080fd5b50565b60008151905061248a81612464565b92915050565b6000602082840312156124a6576124a5611b7a565b5b60006124b48482850161247b565b91505092915050565b600082825260208201905092915050565b7f4e6674206e6f7420696e2066697865642073616c650000000000000000000000600082015250565b60006125046015836124bd565b915061250f826124ce565b602082019050919050565b60006020820190508181036000830152612533816124f7565b9050919050565b7f596f7520617265206e6f74206e6674206f776e65720000000000000000000000600082015250565b60006125706015836124bd565b915061257b8261253a565b602082019050919050565b6000602082019050818103600083015261259f81612563565b9050919050565b7f50726963652063616e6e6f742062652030000000000000000000000000000000600082015250565b60006125dc6011836124bd565b91506125e7826125a6565b602082019050919050565b6000602082019050818103600083015261260b816125cf565b9050919050565b61261b81611ba4565b82525050565b60006060820190506126366000830186612612565b6126436020830185611d0e565b6126506040830184611d0e565b949350505050565b7f4e487b7100000000000000000000000000000000000000000000000000000000600052601160045260246000fd5b600061269282611c45565b915061269d83611c45565b9250817fffffffffffffffffffffffffffffffffffffffffffffffffffffffffffffffff04831182151516156126d6576126d5612658565b5b828202905092915050565b7f627579205072696365206e6f7420656e6f756768000000000000000000000000600082015250565b60006127176014836124bd565b9150612722826126e1565b602082019050919050565b600060208201905081810360008301526127468161270a565b9050919050565b7f6e6f6e2d7a65726f2076616c7565206f7220616d6f756e74206e6f742067726560008201527f6174657200000000000000000000000000000000000000000000000000000000602082015250565b60006127a96024836124bd565b91506127b48261274d565b604082019050919050565b600060208201905081810360008301526127d88161279c565b9050919050565b600081519050919050565b600082825260208201905092915050565b60005b838110156128195780820151818401526020810190506127fe565b60008484015250505050565b6000612830826127df565b61283a81856127ea565b935061284a8185602086016127fb565b61285381611d42565b840191505092915050565b600060a0820190506128736000830188612612565b6128806020830187612612565b61288d6040830186611d0e565b61289a6060830185611d0e565b81810360808301526128ac8184612825565b90509695505050505050565b600060a0820190506128cd6000830188612612565b6128da6020830187612612565b6128e76040830186611d0e565b6128f46060830185611d0e565b6129016080830184611d0e565b9695505050505050565b7f4e667420616c726561647920696e2073616c6500000000000000000000000000600082015250565b60006129416013836124bd565b915061294c8261290b565b602082019050919050565b6000602082019050818103600083015261297081612934565b9050919050565b600060408201905061298c6000830185612612565b6129996020830184612612565b9392505050565b7f4e6674206e6f7420617070726f76656420746f20636f6e747261637400000000600082015250565b60006129d6601c836124bd565b91506129e1826129a0565b602082019050919050565b60006020820190508181036000830152612a05816129c9565b9050919050565b600060e082019050612a21600083018a612612565b612a2e6020830189612612565b612a3b6040830188612612565b612a486060830187611d0e565b612a556080830186611d0e565b612a6260a0830185611d0e565b612a6f60c0830184611d0e565b98975050505050505050565b7f4e487b7100000000000000000000000000000000000000000000000000000000600052603260045260246000fd5b6000606082019050612abf6000830186612612565b612acc6020830185612612565b612ad96040830184611d0e565b949350505050565b6000612aec82611c45565b9150612af783611c45565b9250828203905081811115612b0f57612b0e612658565b5b92915050565b6000604082019050612b2a6000830185612612565b612b376020830184611d0e565b9392505050565b600081519050612b4d81611c4f565b92915050565b600060208284031215612b6957612b68611b7a565b5b6000612b7784828501612b3e565b91505092915050565b7f616c6c6f77616e6365206e6f7420656e6f756768000000000000000000000000600082015250565b6000612bb66014836124bd565b9150612bc182612b80565b602082019050919050565b60006020820190508181036000830152612be581612ba9565b9050919050565b600081905092915050565b50565b6000612c07600083612bec565b9150612c1282612bf7565b600082019050919050565b6000612c2882612bfa565b9150819050919050565b7f726566756e64206661696c656400000000000000000000000000000000000000600082015250565b6000612c68600d836124bd565b9150612c7382612c32565b602082019050919050565b60006020820190508181036000830152612c9781612c5b565b905091905056fea26469706673582212200ba510c550d1bd4aff68cc9272b7d1e69c31ff63bb0ba0956fb8d8df91fc428464736f6c63430008100033",
					"opcodes": "PUSH1 0x80 PUSH1 0x40 MSTORE CALLVALUE DUP1 ISZERO PUSH2 0x10 JUMPI PUSH1 0x0 DUP1 REVERT JUMPDEST POP PUSH2 0x2CD4 DUP1 PUSH2 0x20 PUSH1 0x0 CODECOPY PUSH1 0x0 RETURN INVALID PUSH1 0x80 PUSH1 0x40 MSTORE PUSH1 0x4 CALLDATASIZE LT PUSH2 0xA0 JUMPI PUSH1 0x0 CALLDATALOAD PUSH1 0xE0 SHR DUP1 PUSH4 0x804E9F24 GT PUSH2 0x64 JUMPI DUP1 PUSH4 0x804E9F24 EQ PUSH2 0x194 JUMPI DUP1 PUSH4 0x8C3417DA EQ PUSH2 0x1BD JUMPI DUP1 PUSH4 0x9B8CFE52 EQ PUSH2 0x1FA JUMPI DUP1 PUSH4 0x9F085A00 EQ PUSH2 0x225 JUMPI DUP1 PUSH4 0xBC197C81 EQ PUSH2 0x250 JUMPI DUP1 PUSH4 0xF23A6E61 EQ PUSH2 0x28D JUMPI PUSH2 0xA7 JUMP JUMPDEST DUP1 PUSH4 0x282E460A EQ PUSH2 0xAC JUMPI DUP1 PUSH4 0x4676ADCA EQ PUSH2 0xE9 JUMPI DUP1 PUSH4 0x6916462F EQ PUSH2 0x112 JUMPI DUP1 PUSH4 0x6EB84994 EQ PUSH2 0x14F JUMPI DUP1 PUSH4 0x771B5788 EQ PUSH2 0x16B JUMPI PUSH2 0xA7 JUMP JUMPDEST CALLDATASIZE PUSH2 0xA7 JUMPI STOP JUMPDEST PUSH1 0x0 DUP1 REVERT JUMPDEST CALLVALUE DUP1 ISZERO PUSH2 0xB8 JUMPI PUSH1 0x0 DUP1 REVERT JUMPDEST POP PUSH2 0xD3 PUSH1 0x4 DUP1 CALLDATASIZE SUB DUP2 ADD SWAP1 PUSH2 0xCE SWAP2 SWAP1 PUSH2 0x1BE2 JUMP JUMPDEST PUSH2 0x2CA JUMP JUMPDEST PUSH1 0x40 MLOAD PUSH2 0xE0 SWAP2 SWAP1 PUSH2 0x1C2A JUMP JUMPDEST PUSH1 0x40 MLOAD DUP1 SWAP2 SUB SWAP1 RETURN JUMPDEST CALLVALUE DUP1 ISZERO PUSH2 0xF5 JUMPI PUSH1 0x0 DUP1 REVERT JUMPDEST POP PUSH2 0x110 PUSH1 0x4 DUP1 CALLDATASIZE SUB DUP2 ADD SWAP1 PUSH2 0x10B SWAP2 SWAP1 PUSH2 0x1C7B JUMP JUMPDEST PUSH2 0x36D JUMP JUMPDEST STOP JUMPDEST CALLVALUE DUP1 ISZERO PUSH2 0x11E JUMPI PUSH1 0x0 DUP1 REVERT JUMPDEST POP PUSH2 0x139 PUSH1 0x4 DUP1 CALLDATASIZE SUB DUP2 ADD SWAP1 PUSH2 0x134 SWAP2 SWAP1 PUSH2 0x1CCE JUMP JUMPDEST PUSH2 0x5C3 JUMP JUMPDEST PUSH1 0x40 MLOAD PUSH2 0x146 SWAP2 SWAP1 PUSH2 0x1D1D JUMP JUMPDEST PUSH1 0x40 MLOAD DUP1 SWAP2 SUB SWAP1 RETURN JUMPDEST PUSH2 0x169 PUSH1 0x4 DUP1 CALLDATASIZE SUB DUP2 ADD SWAP1 PUSH2 0x164 SWAP2 SWAP1 PUSH2 0x1E7E JUMP JUMPDEST PUSH2 0x5E8 JUMP JUMPDEST STOP JUMPDEST CALLVALUE DUP1 ISZERO PUSH2 0x177 JUMPI PUSH1 0x0 DUP1 REVERT JUMPDEST POP PUSH2 0x192 PUSH1 0x4 DUP1 CALLDATASIZE SUB DUP2 ADD SWAP1 PUSH2 0x18D SWAP2 SWAP1 PUSH2 0x1F15 JUMP JUMPDEST PUSH2 0xA1E JUMP JUMPDEST STOP JUMPDEST CALLVALUE DUP1 ISZERO PUSH2 0x1A0 JUMPI PUSH1 0x0 DUP1 REVERT JUMPDEST POP PUSH2 0x1BB PUSH1 0x4 DUP1 CALLDATASIZE SUB DUP2 ADD SWAP1 PUSH2 0x1B6 SWAP2 SWAP1 PUSH2 0x1FBE JUMP JUMPDEST PUSH2 0xFC1 JUMP JUMPDEST STOP JUMPDEST CALLVALUE DUP1 ISZERO PUSH2 0x1C9 JUMPI PUSH1 0x0 DUP1 REVERT JUMPDEST POP PUSH2 0x1E4 PUSH1 0x4 DUP1 CALLDATASIZE SUB DUP2 ADD SWAP1 PUSH2 0x1DF SWAP2 SWAP1 PUSH2 0x1CCE JUMP JUMPDEST PUSH2 0x12E9 JUMP JUMPDEST PUSH1 0x40 MLOAD PUSH2 0x1F1 SWAP2 SWAP1 PUSH2 0x20C7 JUMP JUMPDEST PUSH1 0x40 MLOAD DUP1 SWAP2 SUB SWAP1 RETURN JUMPDEST CALLVALUE DUP1 ISZERO PUSH2 0x206 JUMPI PUSH1 0x0 DUP1 REVERT JUMPDEST POP PUSH2 0x20F PUSH2 0x1469 JUMP JUMPDEST PUSH1 0x40 MLOAD PUSH2 0x21C SWAP2 SWAP1 PUSH2 0x211D JUMP JUMPDEST PUSH1 0x40 MLOAD DUP1 SWAP2 SUB SWAP1 RETURN JUMPDEST CALLVALUE DUP1 ISZERO PUSH2 0x231 JUMPI PUSH1 0x0 DUP1 REVERT JUMPDEST POP PUSH2 0x23A PUSH2 0x148D JUMP JUMPDEST PUSH1 0x40 MLOAD PUSH2 0x247 SWAP2 SWAP1 PUSH2 0x2216 JUMP JUMPDEST PUSH1 0x40 MLOAD DUP1 SWAP2 SUB SWAP1 RETURN JUMPDEST CALLVALUE DUP1 ISZERO PUSH2 0x25C JUMPI PUSH1 0x0 DUP1 REVERT JUMPDEST POP PUSH2 0x277 PUSH1 0x4 DUP1 CALLDATASIZE SUB DUP2 ADD SWAP1 PUSH2 0x272 SWAP2 SWAP1 PUSH2 0x22EE JUMP JUMPDEST PUSH2 0x154C JUMP JUMPDEST PUSH1 0x40 MLOAD PUSH2 0x284 SWAP2 SWAP1 PUSH2 0x211D JUMP JUMPDEST PUSH1 0x40 MLOAD DUP1 SWAP2 SUB SWAP1 RETURN JUMPDEST CALLVALUE DUP1 ISZERO PUSH2 0x299 JUMPI PUSH1 0x0 DUP1 REVERT JUMPDEST POP PUSH2 0x2B4 PUSH1 0x4 DUP1 CALLDATASIZE SUB DUP2 ADD SWAP1 PUSH2 0x2AF SWAP2 SWAP1 PUSH2 0x23CA JUMP JUMPDEST PUSH2 0x1564 JUMP JUMPDEST PUSH1 0x40 MLOAD PUSH2 0x2C1 SWAP2 SWAP1 PUSH2 0x211D JUMP JUMPDEST PUSH1 0x40 MLOAD DUP1 SWAP2 SUB SWAP1 RETURN JUMPDEST PUSH1 0x0 DUP2 PUSH20 0xFFFFFFFFFFFFFFFFFFFFFFFFFFFFFFFFFFFFFFFF AND PUSH4 0x1FFC9A7 PUSH32 0xD9B67A2600000000000000000000000000000000000000000000000000000000 PUSH1 0x40 MLOAD DUP3 PUSH4 0xFFFFFFFF AND PUSH1 0xE0 SHL DUP2 MSTORE PUSH1 0x4 ADD PUSH2 0x325 SWAP2 SWAP1 PUSH2 0x211D JUMP JUMPDEST PUSH1 0x20 PUSH1 0x40 MLOAD DUP1 DUP4 SUB DUP2 DUP7 GAS STATICCALL ISZERO DUP1 ISZERO PUSH2 0x342 JUMPI RETURNDATASIZE PUSH1 0x0 DUP1 RETURNDATACOPY RETURNDATASIZE PUSH1 0x0 REVERT JUMPDEST POP POP POP POP PUSH1 0x40 MLOAD RETURNDATASIZE PUSH1 0x1F NOT PUSH1 0x1F DUP3 ADD AND DUP3 ADD DUP1 PUSH1 0x40 MSTORE POP DUP2 ADD SWAP1 PUSH2 0x366 SWAP2 SWAP1 PUSH2 0x2490 JUMP JUMPDEST SWAP1 POP SWAP2 SWAP1 POP JUMP JUMPDEST DUP3 DUP3 PUSH1 0x1 DUP1 PUSH1 0x0 DUP5 PUSH20 0xFFFFFFFFFFFFFFFFFFFFFFFFFFFFFFFFFFFFFFFF AND PUSH20 0xFFFFFFFFFFFFFFFFFFFFFFFFFFFFFFFFFFFFFFFF AND DUP2 MSTORE PUSH1 0x20 ADD SWAP1 DUP2 MSTORE PUSH1 0x20 ADD PUSH1 0x0 KECCAK256 PUSH1 0x0 DUP4 DUP2 MSTORE PUSH1 0x20 ADD SWAP1 DUP2 MSTORE PUSH1 0x20 ADD PUSH1 0x0 KECCAK256 SLOAD EQ PUSH2 0x401 JUMPI PUSH1 0x40 MLOAD PUSH32 0x8C379A000000000000000000000000000000000000000000000000000000000 DUP2 MSTORE PUSH1 0x4 ADD PUSH2 0x3F8 SWAP1 PUSH2 0x251A JUMP JUMPDEST PUSH1 0x40 MLOAD DUP1 SWAP2 SUB SWAP1 REVERT JUMPDEST DUP5 DUP5 PUSH1 0x0 DUP1 DUP4 PUSH20 0xFFFFFFFFFFFFFFFFFFFFFFFFFFFFFFFFFFFFFFFF AND PUSH20 0xFFFFFFFFFFFFFFFFFFFFFFFFFFFFFFFFFFFFFFFF AND DUP2 MSTORE PUSH1 0x20 ADD SWAP1 DUP2 MSTORE PUSH1 0x20 ADD PUSH1 0x0 KECCAK256 PUSH1 0x0 DUP3 DUP2 MSTORE PUSH1 0x20 ADD SWAP1 DUP2 MSTORE PUSH1 0x20 ADD PUSH1 0x0 KECCAK256 PUSH1 0x0 ADD PUSH1 0x0 SWAP1 SLOAD SWAP1 PUSH2 0x100 EXP SWAP1 DIV PUSH20 0xFFFFFFFFFFFFFFFFFFFFFFFFFFFFFFFFFFFFFFFF AND PUSH20 0xFFFFFFFFFFFFFFFFFFFFFFFFFFFFFFFFFFFFFFFF AND CALLER PUSH20 0xFFFFFFFFFFFFFFFFFFFFFFFFFFFFFFFFFFFFFFFF AND EQ PUSH2 0x4E3 JUMPI PUSH1 0x40 MLOAD PUSH32 0x8C379A000000000000000000000000000000000000000000000000000000000 DUP2 MSTORE PUSH1 0x4 ADD PUSH2 0x4DA SWAP1 PUSH2 0x2586 JUMP JUMPDEST PUSH1 0x40 MLOAD DUP1 SWAP2 SUB SWAP1 REVERT JUMPDEST DUP5 PUSH1 0x0 DUP2 GT PUSH2 0x527 JUMPI PUSH1 0x40 MLOAD PUSH32 0x8C379A000000000000000000000000000000000000000000000000000000000 DUP2 MSTORE PUSH1 0x4 ADD PUSH2 0x51E SWAP1 PUSH2 0x25F2 JUMP JUMPDEST PUSH1 0x40 MLOAD DUP1 SWAP2 SUB SWAP1 REVERT JUMPDEST DUP6 PUSH1 0x0 DUP1 DUP11 PUSH20 0xFFFFFFFFFFFFFFFFFFFFFFFFFFFFFFFFFFFFFFFF AND PUSH20 0xFFFFFFFFFFFFFFFFFFFFFFFFFFFFFFFFFFFFFFFF AND DUP2 MSTORE PUSH1 0x20 ADD SWAP1 DUP2 MSTORE PUSH1 0x20 ADD PUSH1 0x0 KECCAK256 PUSH1 0x0 DUP10 DUP2 MSTORE PUSH1 0x20 ADD SWAP1 DUP2 MSTORE PUSH1 0x20 ADD PUSH1 0x0 KECCAK256 PUSH1 0x4 ADD DUP2 SWAP1 SSTORE POP PUSH32 0x575A0876095CCF47276A37DCE683308A625403D132D219F95205CE205B2E12BC DUP9 DUP9 DUP9 PUSH1 0x40 MLOAD PUSH2 0x5B1 SWAP4 SWAP3 SWAP2 SWAP1 PUSH2 0x2621 JUMP JUMPDEST PUSH1 0x40 MLOAD DUP1 SWAP2 SUB SWAP1 LOG1 POP POP POP POP POP POP POP POP JUMP JUMPDEST PUSH1 0x1 PUSH1 0x20 MSTORE DUP2 PUSH1 0x0 MSTORE PUSH1 0x40 PUSH1 0x0 KECCAK256 PUSH1 0x20 MSTORE DUP1 PUSH1 0x0 MSTORE PUSH1 0x40 PUSH1 0x0 KECCAK256 PUSH1 0x0 SWAP2 POP SWAP2 POP POP SLOAD DUP2 JUMP JUMPDEST DUP5 DUP5 PUSH1 0x1 DUP1 PUSH1 0x0 DUP5 PUSH20 0xFFFFFFFFFFFFFFFFFFFFFFFFFFFFFFFFFFFFFFFF AND PUSH20 0xFFFFFFFFFFFFFFFFFFFFFFFFFFFFFFFFFFFFFFFF AND DUP2 MSTORE PUSH1 0x20 ADD SWAP1 DUP2 MSTORE PUSH1 0x20 ADD PUSH1 0x0 KECCAK256 PUSH1 0x0 DUP4 DUP2 MSTORE PUSH1 0x20 ADD SWAP1 DUP2 MSTORE PUSH1 0x20 ADD PUSH1 0x0 KECCAK256 SLOAD EQ PUSH2 0x67C JUMPI PUSH1 0x40 MLOAD PUSH32 0x8C379A000000000000000000000000000000000000000000000000000000000 DUP2 MSTORE PUSH1 0x4 ADD PUSH2 0x673 SWAP1 PUSH2 0x251A JUMP JUMPDEST PUSH1 0x40 MLOAD DUP1 SWAP2 SUB SWAP1 REVERT JUMPDEST DUP5 PUSH1 0x0 DUP2 GT PUSH2 0x6C0 JUMPI PUSH1 0x40 MLOAD PUSH32 0x8C379A000000000000000000000000000000000000000000000000000000000 DUP2 MSTORE PUSH1 0x4 ADD PUSH2 0x6B7 SWAP1 PUSH2 0x25F2 JUMP JUMPDEST PUSH1 0x40 MLOAD DUP1 SWAP2 SUB SWAP1 REVERT JUMPDEST DUP8 DUP8 DUP8 DUP8 DUP1 PUSH1 0x0 DUP1 DUP7 PUSH20 0xFFFFFFFFFFFFFFFFFFFFFFFFFFFFFFFFFFFFFFFF AND PUSH20 0xFFFFFFFFFFFFFFFFFFFFFFFFFFFFFFFFFFFFFFFF AND DUP2 MSTORE PUSH1 0x20 ADD SWAP1 DUP2 MSTORE PUSH1 0x20 ADD PUSH1 0x0 KECCAK256 PUSH1 0x0 DUP6 DUP2 MSTORE PUSH1 0x20 ADD SWAP1 DUP2 MSTORE PUSH1 0x20 ADD PUSH1 0x0 KECCAK256 PUSH1 0x4 ADD SLOAD PUSH2 0x722 SWAP2 SWAP1 PUSH2 0x2687 JUMP JUMPDEST DUP3 LT ISZERO PUSH2 0x764 JUMPI PUSH1 0x40 MLOAD PUSH32 0x8C379A000000000000000000000000000000000000000000000000000000000 DUP2 MSTORE PUSH1 0x4 ADD PUSH2 0x75B SWAP1 PUSH2 0x272D JUMP JUMPDEST PUSH1 0x40 MLOAD DUP1 SWAP2 SUB SWAP1 REVERT JUMPDEST PUSH1 0x0 DUP10 EQ ISZERO DUP1 ISZERO PUSH2 0x7C7 JUMPI POP DUP9 PUSH1 0x0 DUP1 DUP15 PUSH20 0xFFFFFFFFFFFFFFFFFFFFFFFFFFFFFFFFFFFFFFFF AND PUSH20 0xFFFFFFFFFFFFFFFFFFFFFFFFFFFFFFFFFFFFFFFF AND DUP2 MSTORE PUSH1 0x20 ADD SWAP1 DUP2 MSTORE PUSH1 0x20 ADD PUSH1 0x0 KECCAK256 PUSH1 0x0 DUP14 DUP2 MSTORE PUSH1 0x20 ADD SWAP1 DUP2 MSTORE PUSH1 0x20 ADD PUSH1 0x0 KECCAK256 PUSH1 0x3 ADD SLOAD LT ISZERO JUMPDEST PUSH2 0x806 JUMPI PUSH1 0x40 MLOAD PUSH32 0x8C379A000000000000000000000000000000000000000000000000000000000 DUP2 MSTORE PUSH1 0x4 ADD PUSH2 0x7FD SWAP1 PUSH2 0x27BF JUMP JUMPDEST PUSH1 0x40 MLOAD DUP1 SWAP2 SUB SWAP1 REVERT JUMPDEST PUSH1 0x0 DUP13 SWAP1 POP PUSH1 0x0 DUP13 SWAP1 POP DUP2 PUSH20 0xFFFFFFFFFFFFFFFFFFFFFFFFFFFFFFFFFFFFFFFF AND PUSH4 0xF242432A CALLER ADDRESS DUP5 DUP16 DUP16 PUSH1 0x40 MLOAD DUP7 PUSH4 0xFFFFFFFF AND PUSH1 0xE0 SHL DUP2 MSTORE PUSH1 0x4 ADD PUSH2 0x851 SWAP6 SWAP5 SWAP4 SWAP3 SWAP2 SWAP1 PUSH2 0x285E JUMP JUMPDEST PUSH1 0x0 PUSH1 0x40 MLOAD DUP1 DUP4 SUB DUP2 PUSH1 0x0 DUP8 DUP1 EXTCODESIZE ISZERO DUP1 ISZERO PUSH2 0x86B JUMPI PUSH1 0x0 DUP1 REVERT JUMPDEST POP GAS CALL ISZERO DUP1 ISZERO PUSH2 0x87F JUMPI RETURNDATASIZE PUSH1 0x0 DUP1 RETURNDATACOPY RETURNDATASIZE PUSH1 0x0 REVERT JUMPDEST POP POP POP POP PUSH2 0x88E DUP3 DUP3 DUP14 PUSH2 0x157A JUMP JUMPDEST PUSH2 0x9CF PUSH1 0x0 DUP1 DUP5 PUSH20 0xFFFFFFFFFFFFFFFFFFFFFFFFFFFFFFFFFFFFFFFF AND PUSH20 0xFFFFFFFFFFFFFFFFFFFFFFFFFFFFFFFFFFFFFFFF AND DUP2 MSTORE PUSH1 0x20 ADD SWAP1 DUP2 MSTORE PUSH1 0x20 ADD PUSH1 0x0 KECCAK256 PUSH1 0x0 DUP4 DUP2 MSTORE PUSH1 0x20 ADD SWAP1 DUP2 MSTORE PUSH1 0x20 ADD PUSH1 0x0 KECCAK256 PUSH1 0x0 ADD PUSH1 0x0 SWAP1 SLOAD SWAP1 PUSH2 0x100 EXP SWAP1 DIV PUSH20 0xFFFFFFFFFFFFFFFFFFFFFFFFFFFFFFFFFFFFFFFF AND PUSH1 0x0 DUP1 DUP6 PUSH20 0xFFFFFFFFFFFFFFFFFFFFFFFFFFFFFFFFFFFFFFFF AND PUSH20 0xFFFFFFFFFFFFFFFFFFFFFFFFFFFFFFFFFFFFFFFF AND DUP2 MSTORE PUSH1 0x20 ADD SWAP1 DUP2 MSTORE PUSH1 0x20 ADD PUSH1 0x0 KECCAK256 PUSH1 0x0 DUP5 DUP2 MSTORE PUSH1 0x20 ADD SWAP1 DUP2 MSTORE PUSH1 0x20 ADD PUSH1 0x0 KECCAK256 PUSH1 0x2 ADD PUSH1 0x0 SWAP1 SLOAD SWAP1 PUSH2 0x100 EXP SWAP1 DIV PUSH20 0xFFFFFFFFFFFFFFFFFFFFFFFFFFFFFFFFFFFFFFFF AND PUSH1 0x0 DUP1 DUP7 PUSH20 0xFFFFFFFFFFFFFFFFFFFFFFFFFFFFFFFFFFFFFFFF AND PUSH20 0xFFFFFFFFFFFFFFFFFFFFFFFFFFFFFFFFFFFFFFFF AND DUP2 MSTORE PUSH1 0x20 ADD SWAP1 DUP2 MSTORE PUSH1 0x20 ADD PUSH1 0x0 KECCAK256 PUSH1 0x0 DUP6 DUP2 MSTORE PUSH1 0x20 ADD SWAP1 DUP2 MSTORE PUSH1 0x20 ADD PUSH1 0x0 KECCAK256 PUSH1 0x4 ADD SLOAD PUSH2 0x18AE JUMP JUMPDEST PUSH32 0xB71C803B3DC073C348B9A8F845D03C3FFB6F423EA4A86E29FC5F5CA5A401C43A DUP3 CALLER DUP4 DUP16 DUP16 PUSH1 0x40 MLOAD PUSH2 0xA06 SWAP6 SWAP5 SWAP4 SWAP3 SWAP2 SWAP1 PUSH2 0x28B8 JUMP JUMPDEST PUSH1 0x40 MLOAD DUP1 SWAP2 SUB SWAP1 LOG1 POP POP POP POP POP POP POP POP POP POP POP POP POP POP JUMP JUMPDEST DUP6 DUP5 PUSH2 0xA2A DUP3 DUP3 PUSH2 0x1902 JUMP JUMPDEST PUSH2 0xA69 JUMPI PUSH1 0x40 MLOAD PUSH32 0x8C379A000000000000000000000000000000000000000000000000000000000 DUP2 MSTORE PUSH1 0x4 ADD PUSH2 0xA60 SWAP1 PUSH2 0x2586 JUMP JUMPDEST PUSH1 0x40 MLOAD DUP1 SWAP2 SUB SWAP1 REVERT JUMPDEST DUP8 DUP7 PUSH1 0x0 PUSH1 0x1 PUSH1 0x0 DUP5 PUSH20 0xFFFFFFFFFFFFFFFFFFFFFFFFFFFFFFFFFFFFFFFF AND PUSH20 0xFFFFFFFFFFFFFFFFFFFFFFFFFFFFFFFFFFFFFFFF AND DUP2 MSTORE PUSH1 0x20 ADD SWAP1 DUP2 MSTORE PUSH1 0x20 ADD PUSH1 0x0 KECCAK256 PUSH1 0x0 DUP4 DUP2 MSTORE PUSH1 0x20 ADD SWAP1 DUP2 MSTORE PUSH1 0x20 ADD PUSH1 0x0 KECCAK256 SLOAD EQ PUSH2 0xAFE JUMPI PUSH1 0x40 MLOAD PUSH32 0x8C379A000000000000000000000000000000000000000000000000000000000 DUP2 MSTORE PUSH1 0x4 ADD PUSH2 0xAF5 SWAP1 PUSH2 0x2957 JUMP JUMPDEST PUSH1 0x40 MLOAD DUP1 SWAP2 SUB SWAP1 REVERT JUMPDEST DUP10 DUP9 DUP2 PUSH20 0xFFFFFFFFFFFFFFFFFFFFFFFFFFFFFFFFFFFFFFFF AND PUSH4 0xE985E9C5 CALLER ADDRESS PUSH1 0x40 MLOAD DUP4 PUSH4 0xFFFFFFFF AND PUSH1 0xE0 SHL DUP2 MSTORE PUSH1 0x4 ADD PUSH2 0xB3B SWAP3 SWAP2 SWAP1 PUSH2 0x2977 JUMP JUMPDEST PUSH1 0x20 PUSH1 0x40 MLOAD DUP1 DUP4 SUB DUP2 DUP7 GAS STATICCALL ISZERO DUP1 ISZERO PUSH2 0xB58 JUMPI RETURNDATASIZE PUSH1 0x0 DUP1 RETURNDATACOPY RETURNDATASIZE PUSH1 0x0 REVERT JUMPDEST POP POP POP POP PUSH1 0x40 MLOAD RETURNDATASIZE PUSH1 0x1F NOT PUSH1 0x1F DUP3 ADD AND DUP3 ADD DUP1 PUSH1 0x40 MSTORE POP DUP2 ADD SWAP1 PUSH2 0xB7C SWAP2 SWAP1 PUSH2 0x2490 JUMP JUMPDEST PUSH2 0xBBB JUMPI PUSH1 0x40 MLOAD PUSH32 0x8C379A000000000000000000000000000000000000000000000000000000000 DUP2 MSTORE PUSH1 0x4 ADD PUSH2 0xBB2 SWAP1 PUSH2 0x29EC JUMP JUMPDEST PUSH1 0x40 MLOAD DUP1 SWAP2 SUB SWAP1 REVERT JUMPDEST DUP8 PUSH1 0x0 DUP2 GT PUSH2 0xBFF JUMPI PUSH1 0x40 MLOAD PUSH32 0x8C379A000000000000000000000000000000000000000000000000000000000 DUP2 MSTORE PUSH1 0x4 ADD PUSH2 0xBF6 SWAP1 PUSH2 0x25F2 JUMP JUMPDEST PUSH1 0x40 MLOAD DUP1 SWAP2 SUB SWAP1 REVERT JUMPDEST PUSH1 0x40 MLOAD DUP1 PUSH1 0xA0 ADD PUSH1 0x40 MSTORE DUP1 CALLER PUSH20 0xFFFFFFFFFFFFFFFFFFFFFFFFFFFFFFFFFFFFFFFF AND DUP2 MSTORE PUSH1 0x20 ADD PUSH1 0x0 PUSH20 0xFFFFFFFFFFFFFFFFFFFFFFFFFFFFFFFFFFFFFFFF AND DUP2 MSTORE PUSH1 0x20 ADD DUP14 PUSH20 0xFFFFFFFFFFFFFFFFFFFFFFFFFFFFFFFFFFFFFFFF AND DUP2 MSTORE PUSH1 0x20 ADD DUP12 DUP2 MSTORE PUSH1 0x20 ADD DUP11 DUP2 MSTORE POP PUSH1 0x0 DUP1 DUP16 PUSH20 0xFFFFFFFFFFFFFFFFFFFFFFFFFFFFFFFFFFFFFFFF AND PUSH20 0xFFFFFFFFFFFFFFFFFFFFFFFFFFFFFFFFFFFFFFFF AND DUP2 MSTORE PUSH1 0x20 ADD SWAP1 DUP2 MSTORE PUSH1 0x20 ADD PUSH1 0x0 KECCAK256 PUSH1 0x0 DUP14 DUP2 MSTORE PUSH1 0x20 ADD SWAP1 DUP2 MSTORE PUSH1 0x20 ADD PUSH1 0x0 KECCAK256 PUSH1 0x0 DUP3 ADD MLOAD DUP2 PUSH1 0x0 ADD PUSH1 0x0 PUSH2 0x100 EXP DUP2 SLOAD DUP2 PUSH20 0xFFFFFFFFFFFFFFFFFFFFFFFFFFFFFFFFFFFFFFFF MUL NOT AND SWAP1 DUP4 PUSH20 0xFFFFFFFFFFFFFFFFFFFFFFFFFFFFFFFFFFFFFFFF AND MUL OR SWAP1 SSTORE POP PUSH1 0x20 DUP3 ADD MLOAD DUP2 PUSH1 0x1 ADD PUSH1 0x0 PUSH2 0x100 EXP DUP2 SLOAD DUP2 PUSH20 0xFFFFFFFFFFFFFFFFFFFFFFFFFFFFFFFFFFFFFFFF MUL NOT AND SWAP1 DUP4 PUSH20 0xFFFFFFFFFFFFFFFFFFFFFFFFFFFFFFFFFFFFFFFF AND MUL OR SWAP1 SSTORE POP PUSH1 0x40 DUP3 ADD MLOAD DUP2 PUSH1 0x2 ADD PUSH1 0x0 PUSH2 0x100 EXP DUP2 SLOAD DUP2 PUSH20 0xFFFFFFFFFFFFFFFFFFFFFFFFFFFFFFFFFFFFFFFF MUL NOT AND SWAP1 DUP4 PUSH20 0xFFFFFFFFFFFFFFFFFFFFFFFFFFFFFFFFFFFFFFFF AND MUL OR SWAP1 SSTORE POP PUSH1 0x60 DUP3 ADD MLOAD DUP2 PUSH1 0x3 ADD SSTORE PUSH1 0x80 DUP3 ADD MLOAD DUP2 PUSH1 0x4 ADD SSTORE SWAP1 POP POP PUSH1 0x1 DUP1 PUSH1 0x0 DUP16 PUSH20 0xFFFFFFFFFFFFFFFFFFFFFFFFFFFFFFFFFFFFFFFF AND PUSH20 0xFFFFFFFFFFFFFFFFFFFFFFFFFFFFFFFFFFFFFFFF AND DUP2 MSTORE PUSH1 0x20 ADD SWAP1 DUP2 MSTORE PUSH1 0x20 ADD PUSH1 0x0 KECCAK256 PUSH1 0x0 DUP14 DUP2 MSTORE PUSH1 0x20 ADD SWAP1 DUP2 MSTORE PUSH1 0x20 ADD PUSH1 0x0 KECCAK256 DUP2 SWAP1 SSTORE POP PUSH1 0x3 DUP1 SLOAD SWAP1 POP PUSH1 0x2 PUSH1 0x0 DUP16 PUSH20 0xFFFFFFFFFFFFFFFFFFFFFFFFFFFFFFFFFFFFFFFF AND PUSH20 0xFFFFFFFFFFFFFFFFFFFFFFFFFFFFFFFFFFFFFFFF AND DUP2 MSTORE PUSH1 0x20 ADD SWAP1 DUP2 MSTORE PUSH1 0x20 ADD PUSH1 0x0 KECCAK256 PUSH1 0x0 DUP14 DUP2 MSTORE PUSH1 0x20 ADD SWAP1 DUP2 MSTORE PUSH1 0x20 ADD PUSH1 0x0 KECCAK256 DUP2 SWAP1 SSTORE POP PUSH1 0x3 PUSH1 0x40 MLOAD DUP1 PUSH1 0x40 ADD PUSH1 0x40 MSTORE DUP1 DUP16 PUSH20 0xFFFFFFFFFFFFFFFFFFFFFFFFFFFFFFFFFFFFFFFF AND DUP2 MSTORE PUSH1 0x20 ADD DUP14 DUP2 MSTORE POP SWAP1 DUP1 PUSH1 0x1 DUP2 SLOAD ADD DUP1 DUP3 SSTORE DUP1 SWAP2 POP POP PUSH1 0x1 SWAP1 SUB SWAP1 PUSH1 0x0 MSTORE PUSH1 0x20 PUSH1 0x0 KECCAK256 SWAP1 PUSH1 0x2 MUL ADD PUSH1 0x0 SWAP1 SWAP2 SWAP1 SWAP2 SWAP1 SWAP2 POP PUSH1 0x0 DUP3 ADD MLOAD DUP2 PUSH1 0x0 ADD PUSH1 0x0 PUSH2 0x100 EXP DUP2 SLOAD DUP2 PUSH20 0xFFFFFFFFFFFFFFFFFFFFFFFFFFFFFFFFFFFFFFFF MUL NOT AND SWAP1 DUP4 PUSH20 0xFFFFFFFFFFFFFFFFFFFFFFFFFFFFFFFFFFFFFFFF AND MUL OR SWAP1 SSTORE POP PUSH1 0x20 DUP3 ADD MLOAD DUP2 PUSH1 0x1 ADD SSTORE POP POP DUP13 PUSH20 0xFFFFFFFFFFFFFFFFFFFFFFFFFFFFFFFFFFFFFFFF AND PUSH4 0xF242432A CALLER ADDRESS DUP15 DUP15 DUP14 PUSH1 0x40 MLOAD DUP7 PUSH4 0xFFFFFFFF AND PUSH1 0xE0 SHL DUP2 MSTORE PUSH1 0x4 ADD PUSH2 0xF3D SWAP6 SWAP5 SWAP4 SWAP3 SWAP2 SWAP1 PUSH2 0x285E JUMP JUMPDEST PUSH1 0x0 PUSH1 0x40 MLOAD DUP1 DUP4 SUB DUP2 PUSH1 0x0 DUP8 DUP1 EXTCODESIZE ISZERO DUP1 ISZERO PUSH2 0xF57 JUMPI PUSH1 0x0 DUP1 REVERT JUMPDEST POP GAS CALL ISZERO DUP1 ISZERO PUSH2 0xF6B JUMPI RETURNDATASIZE PUSH1 0x0 DUP1 RETURNDATACOPY RETURNDATASIZE PUSH1 0x0 REVERT JUMPDEST POP POP POP POP PUSH32 0x938B2F79C6D40413C38C16569CE7D13D8FB10B1B1F5D6F4B6448AEB9D7B189F3 DUP14 CALLER DUP15 DUP15 DUP15 DUP15 TIMESTAMP PUSH1 0x40 MLOAD PUSH2 0xFAA SWAP8 SWAP7 SWAP6 SWAP5 SWAP4 SWAP3 SWAP2 SWAP1 PUSH2 0x2A0C JUMP JUMPDEST PUSH1 0x40 MLOAD DUP1 SWAP2 SUB SWAP1 LOG1 POP POP POP POP POP POP POP POP POP POP POP POP POP JUMP JUMPDEST DUP4 DUP4 PUSH1 0x1 DUP1 PUSH1 0x0 DUP5 PUSH20 0xFFFFFFFFFFFFFFFFFFFFFFFFFFFFFFFFFFFFFFFF AND PUSH20 0xFFFFFFFFFFFFFFFFFFFFFFFFFFFFFFFFFFFFFFFF AND DUP2 MSTORE PUSH1 0x20 ADD SWAP1 DUP2 MSTORE PUSH1 0x20 ADD PUSH1 0x0 KECCAK256 PUSH1 0x0 DUP4 DUP2 MSTORE PUSH1 0x20 ADD SWAP1 DUP2 MSTORE PUSH1 0x20 ADD PUSH1 0x0 KECCAK256 SLOAD EQ PUSH2 0x1055 JUMPI PUSH1 0x40 MLOAD PUSH32 0x8C379A000000000000000000000000000000000000000000000000000000000 DUP2 MSTORE PUSH1 0x4 ADD PUSH2 0x104C SWAP1 PUSH2 0x251A JUMP JUMPDEST PUSH1 0x40 MLOAD DUP1 SWAP2 SUB SWAP1 REVERT JUMPDEST DUP6 DUP6 PUSH1 0x0 DUP1 DUP4 PUSH20 0xFFFFFFFFFFFFFFFFFFFFFFFFFFFFFFFFFFFFFFFF AND PUSH20 0xFFFFFFFFFFFFFFFFFFFFFFFFFFFFFFFFFFFFFFFF AND DUP2 MSTORE PUSH1 0x20 ADD SWAP1 DUP2 MSTORE PUSH1 0x20 ADD PUSH1 0x0 KECCAK256 PUSH1 0x0 DUP3 DUP2 MSTORE PUSH1 0x20 ADD SWAP1 DUP2 MSTORE PUSH1 0x20 ADD PUSH1 0x0 KECCAK256 PUSH1 0x0 ADD PUSH1 0x0 SWAP1 SLOAD SWAP1 PUSH2 0x100 EXP SWAP1 DIV PUSH20 0xFFFFFFFFFFFFFFFFFFFFFFFFFFFFFFFFFFFFFFFF AND PUSH20 0xFFFFFFFFFFFFFFFFFFFFFFFFFFFFFFFFFFFFFFFF AND CALLER PUSH20 0xFFFFFFFFFFFFFFFFFFFFFFFFFFFFFFFFFFFFFFFF AND EQ PUSH2 0x1137 JUMPI PUSH1 0x40 MLOAD PUSH32 0x8C379A000000000000000000000000000000000000000000000000000000000 DUP2 MSTORE PUSH1 0x4 ADD PUSH2 0x112E SWAP1 PUSH2 0x2586 JUMP JUMPDEST PUSH1 0x40 MLOAD DUP1 SWAP2 SUB SWAP1 REVERT JUMPDEST DUP8 PUSH20 0xFFFFFFFFFFFFFFFFFFFFFFFFFFFFFFFFFFFFFFFF AND PUSH4 0xF242432A CALLER ADDRESS DUP11 DUP11 DUP11 PUSH1 0x40 MLOAD DUP7 PUSH4 0xFFFFFFFF AND PUSH1 0xE0 SHL DUP2 MSTORE PUSH1 0x4 ADD PUSH2 0x1178 SWAP6 SWAP5 SWAP4 SWAP3 SWAP2 SWAP1 PUSH2 0x285E JUMP JUMPDEST PUSH1 0x0 PUSH1 0x40 MLOAD DUP1 DUP4 SUB DUP2 PUSH1 0x0 DUP8 DUP1 EXTCODESIZE ISZERO DUP1 ISZERO PUSH2 0x1192 JUMPI PUSH1 0x0 DUP1 REVERT JUMPDEST POP GAS CALL ISZERO DUP1 ISZERO PUSH2 0x11A6 JUMPI RETURNDATASIZE PUSH1 0x0 DUP1 RETURNDATACOPY RETURNDATASIZE PUSH1 0x0 REVERT JUMPDEST POP POP POP POP PUSH1 0x0 PUSH1 0x1 PUSH1 0x0 DUP11 PUSH20 0xFFFFFFFFFFFFFFFFFFFFFFFFFFFFFFFFFFFFFFFF AND PUSH20 0xFFFFFFFFFFFFFFFFFFFFFFFFFFFFFFFFFFFFFFFF AND DUP2 MSTORE PUSH1 0x20 ADD SWAP1 DUP2 MSTORE PUSH1 0x20 ADD PUSH1 0x0 KECCAK256 PUSH1 0x0 DUP10 DUP2 MSTORE PUSH1 0x20 ADD SWAP1 DUP2 MSTORE PUSH1 0x20 ADD PUSH1 0x0 KECCAK256 DUP2 SWAP1 SSTORE POP PUSH1 0x3 PUSH1 0x2 PUSH1 0x0 DUP11 PUSH20 0xFFFFFFFFFFFFFFFFFFFFFFFFFFFFFFFFFFFFFFFF AND PUSH20 0xFFFFFFFFFFFFFFFFFFFFFFFFFFFFFFFFFFFFFFFF AND DUP2 MSTORE PUSH1 0x20 ADD SWAP1 DUP2 MSTORE PUSH1 0x20 ADD PUSH1 0x0 KECCAK256 PUSH1 0x0 DUP10 DUP2 MSTORE PUSH1 0x20 ADD SWAP1 DUP2 MSTORE PUSH1 0x20 ADD PUSH1 0x0 KECCAK256 SLOAD DUP2 SLOAD DUP2 LT PUSH2 0x1264 JUMPI PUSH2 0x1263 PUSH2 0x2A7B JUMP JUMPDEST JUMPDEST SWAP1 PUSH1 0x0 MSTORE PUSH1 0x20 PUSH1 0x0 KECCAK256 SWAP1 PUSH1 0x2 MUL ADD PUSH1 0x0 DUP1 DUP3 ADD PUSH1 0x0 PUSH2 0x100 EXP DUP2 SLOAD SWAP1 PUSH20 0xFFFFFFFFFFFFFFFFFFFFFFFFFFFFFFFFFFFFFFFF MUL NOT AND SWAP1 SSTORE PUSH1 0x1 DUP3 ADD PUSH1 0x0 SWAP1 SSTORE POP POP PUSH32 0xD7348FF00CF381A884144B50B3441398A48A7974EC349287DF80E18CEC9F5A31 DUP9 CALLER DUP10 PUSH1 0x40 MLOAD PUSH2 0x12D7 SWAP4 SWAP3 SWAP2 SWAP1 PUSH2 0x2AAA JUMP JUMPDEST PUSH1 0x40 MLOAD DUP1 SWAP2 SUB SWAP1 LOG1 POP POP POP POP POP POP POP POP JUMP JUMPDEST PUSH2 0x12F1 PUSH2 0x1AFF JUMP JUMPDEST PUSH1 0x0 DUP1 DUP5 PUSH20 0xFFFFFFFFFFFFFFFFFFFFFFFFFFFFFFFFFFFFFFFF AND PUSH20 0xFFFFFFFFFFFFFFFFFFFFFFFFFFFFFFFFFFFFFFFF AND DUP2 MSTORE PUSH1 0x20 ADD SWAP1 DUP2 MSTORE PUSH1 0x20 ADD PUSH1 0x0 KECCAK256 PUSH1 0x0 DUP4 DUP2 MSTORE PUSH1 0x20 ADD SWAP1 DUP2 MSTORE PUSH1 0x20 ADD PUSH1 0x0 KECCAK256 PUSH1 0x40 MLOAD DUP1 PUSH1 0xA0 ADD PUSH1 0x40 MSTORE SWAP1 DUP2 PUSH1 0x0 DUP3 ADD PUSH1 0x0 SWAP1 SLOAD SWAP1 PUSH2 0x100 EXP SWAP1 DIV PUSH20 0xFFFFFFFFFFFFFFFFFFFFFFFFFFFFFFFFFFFFFFFF AND PUSH20 0xFFFFFFFFFFFFFFFFFFFFFFFFFFFFFFFFFFFFFFFF AND PUSH20 0xFFFFFFFFFFFFFFFFFFFFFFFFFFFFFFFFFFFFFFFF AND DUP2 MSTORE PUSH1 0x20 ADD PUSH1 0x1 DUP3 ADD PUSH1 0x0 SWAP1 SLOAD SWAP1 PUSH2 0x100 EXP SWAP1 DIV PUSH20 0xFFFFFFFFFFFFFFFFFFFFFFFFFFFFFFFFFFFFFFFF AND PUSH20 0xFFFFFFFFFFFFFFFFFFFFFFFFFFFFFFFFFFFFFFFF AND PUSH20 0xFFFFFFFFFFFFFFFFFFFFFFFFFFFFFFFFFFFFFFFF AND DUP2 MSTORE PUSH1 0x20 ADD PUSH1 0x2 DUP3 ADD PUSH1 0x0 SWAP1 SLOAD SWAP1 PUSH2 0x100 EXP SWAP1 DIV PUSH20 0xFFFFFFFFFFFFFFFFFFFFFFFFFFFFFFFFFFFFFFFF AND PUSH20 0xFFFFFFFFFFFFFFFFFFFFFFFFFFFFFFFFFFFFFFFF AND PUSH20 0xFFFFFFFFFFFFFFFFFFFFFFFFFFFFFFFFFFFFFFFF AND DUP2 MSTORE PUSH1 0x20 ADD PUSH1 0x3 DUP3 ADD SLOAD DUP2 MSTORE PUSH1 0x20 ADD PUSH1 0x4 DUP3 ADD SLOAD DUP2 MSTORE POP POP SWAP1 POP SWAP3 SWAP2 POP POP JUMP JUMPDEST PUSH32 0xD9B67A2600000000000000000000000000000000000000000000000000000000 DUP2 JUMP JUMPDEST PUSH1 0x60 PUSH1 0x3 DUP1 SLOAD DUP1 PUSH1 0x20 MUL PUSH1 0x20 ADD PUSH1 0x40 MLOAD SWAP1 DUP2 ADD PUSH1 0x40 MSTORE DUP1 SWAP3 SWAP2 SWAP1 DUP2 DUP2 MSTORE PUSH1 0x20 ADD PUSH1 0x0 SWAP1 JUMPDEST DUP3 DUP3 LT ISZERO PUSH2 0x1543 JUMPI DUP4 DUP3 SWAP1 PUSH1 0x0 MSTORE PUSH1 0x20 PUSH1 0x0 KECCAK256 SWAP1 PUSH1 0x2 MUL ADD PUSH1 0x40 MLOAD DUP1 PUSH1 0x40 ADD PUSH1 0x40 MSTORE SWAP1 DUP2 PUSH1 0x0 DUP3 ADD PUSH1 0x0 SWAP1 SLOAD SWAP1 PUSH2 0x100 EXP SWAP1 DIV PUSH20 0xFFFFFFFFFFFFFFFFFFFFFFFFFFFFFFFFFFFFFFFF AND PUSH20 0xFFFFFFFFFFFFFFFFFFFFFFFFFFFFFFFFFFFFFFFF AND PUSH20 0xFFFFFFFFFFFFFFFFFFFFFFFFFFFFFFFFFFFFFFFF AND DUP2 MSTORE PUSH1 0x20 ADD PUSH1 0x1 DUP3 ADD SLOAD DUP2 MSTORE POP POP DUP2 MSTORE PUSH1 0x20 ADD SWAP1 PUSH1 0x1 ADD SWAP1 PUSH2 0x14B1 JUMP JUMPDEST POP POP POP POP SWAP1 POP SWAP1 JUMP JUMPDEST PUSH1 0x0 PUSH4 0xBC197C81 PUSH1 0xE0 SHL SWAP1 POP SWAP9 SWAP8 POP POP POP POP POP POP POP POP JUMP JUMPDEST PUSH1 0x0 PUSH4 0xF23A6E61 PUSH1 0xE0 SHL SWAP1 POP SWAP7 SWAP6 POP POP POP POP POP POP JUMP JUMPDEST DUP1 PUSH1 0x0 DUP1 DUP6 PUSH20 0xFFFFFFFFFFFFFFFFFFFFFFFFFFFFFFFFFFFFFFFF AND PUSH20 0xFFFFFFFFFFFFFFFFFFFFFFFFFFFFFFFFFFFFFFFF AND DUP2 MSTORE PUSH1 0x20 ADD SWAP1 DUP2 MSTORE PUSH1 0x20 ADD PUSH1 0x0 KECCAK256 PUSH1 0x0 DUP5 DUP2 MSTORE PUSH1 0x20 ADD SWAP1 DUP2 MSTORE PUSH1 0x20 ADD PUSH1 0x0 KECCAK256 PUSH1 0x3 ADD SLOAD SUB PUSH2 0x1763 JUMPI PUSH1 0x0 PUSH1 0x1 PUSH1 0x0 DUP6 PUSH20 0xFFFFFFFFFFFFFFFFFFFFFFFFFFFFFFFFFFFFFFFF AND PUSH20 0xFFFFFFFFFFFFFFFFFFFFFFFFFFFFFFFFFFFFFFFF AND DUP2 MSTORE PUSH1 0x20 ADD SWAP1 DUP2 MSTORE PUSH1 0x20 ADD PUSH1 0x0 KECCAK256 PUSH1 0x0 DUP5 DUP2 MSTORE PUSH1 0x20 ADD SWAP1 DUP2 MSTORE PUSH1 0x20 ADD PUSH1 0x0 KECCAK256 DUP2 SWAP1 SSTORE POP PUSH1 0x3 PUSH1 0x2 PUSH1 0x0 DUP6 PUSH20 0xFFFFFFFFFFFFFFFFFFFFFFFFFFFFFFFFFFFFFFFF AND PUSH20 0xFFFFFFFFFFFFFFFFFFFFFFFFFFFFFFFFFFFFFFFF AND DUP2 MSTORE PUSH1 0x20 ADD SWAP1 DUP2 MSTORE PUSH1 0x20 ADD PUSH1 0x0 KECCAK256 PUSH1 0x0 DUP5 DUP2 MSTORE PUSH1 0x20 ADD SWAP1 DUP2 MSTORE PUSH1 0x20 ADD PUSH1 0x0 KECCAK256 SLOAD DUP2 SLOAD DUP2 LT PUSH2 0x168D JUMPI PUSH2 0x168C PUSH2 0x2A7B JUMP JUMPDEST JUMPDEST SWAP1 PUSH1 0x0 MSTORE PUSH1 0x20 PUSH1 0x0 KECCAK256 SWAP1 PUSH1 0x2 MUL ADD PUSH1 0x0 DUP1 DUP3 ADD PUSH1 0x0 PUSH2 0x100 EXP DUP2 SLOAD SWAP1 PUSH20 0xFFFFFFFFFFFFFFFFFFFFFFFFFFFFFFFFFFFFFFFF MUL NOT AND SWAP1 SSTORE PUSH1 0x1 DUP3 ADD PUSH1 0x0 SWAP1 SSTORE POP POP CALLER PUSH1 0x0 DUP1 DUP6 PUSH20 0xFFFFFFFFFFFFFFFFFFFFFFFFFFFFFFFFFFFFFFFF AND PUSH20 0xFFFFFFFFFFFFFFFFFFFFFFFFFFFFFFFFFFFFFFFF AND DUP2 MSTORE PUSH1 0x20 ADD SWAP1 DUP2 MSTORE PUSH1 0x20 ADD PUSH1 0x0 KECCAK256 PUSH1 0x0 DUP5 DUP2 MSTORE PUSH1 0x20 ADD SWAP1 DUP2 MSTORE PUSH1 0x20 ADD PUSH1 0x0 KECCAK256 PUSH1 0x1 ADD PUSH1 0x0 PUSH2 0x100 EXP DUP2 SLOAD DUP2 PUSH20 0xFFFFFFFFFFFFFFFFFFFFFFFFFFFFFFFFFFFFFFFF MUL NOT AND SWAP1 DUP4 PUSH20 0xFFFFFFFFFFFFFFFFFFFFFFFFFFFFFFFFFFFFFFFF AND MUL OR SWAP1 SSTORE POP PUSH2 0x18A9 JUMP JUMPDEST DUP1 PUSH1 0x0 DUP1 DUP6 PUSH20 0xFFFFFFFFFFFFFFFFFFFFFFFFFFFFFFFFFFFFFFFF AND PUSH20 0xFFFFFFFFFFFFFFFFFFFFFFFFFFFFFFFFFFFFFFFF AND DUP2 MSTORE PUSH1 0x20 ADD SWAP1 DUP2 MSTORE PUSH1 0x20 ADD PUSH1 0x0 KECCAK256 PUSH1 0x0 DUP5 DUP2 MSTORE PUSH1 0x20 ADD SWAP1 DUP2 MSTORE PUSH1 0x20 ADD PUSH1 0x0 KECCAK256 PUSH1 0x3 ADD SLOAD PUSH2 0x17C1 SWAP2 SWAP1 PUSH2 0x2AE1 JUMP JUMPDEST PUSH1 0x0 DUP1 DUP6 PUSH20 0xFFFFFFFFFFFFFFFFFFFFFFFFFFFFFFFFFFFFFFFF AND PUSH20 0xFFFFFFFFFFFFFFFFFFFFFFFFFFFFFFFFFFFFFFFF AND DUP2 MSTORE PUSH1 0x20 ADD SWAP1 DUP2 MSTORE PUSH1 0x20 ADD PUSH1 0x0 KECCAK256 PUSH1 0x0 DUP5 DUP2 MSTORE PUSH1 0x20 ADD SWAP1 DUP2 MSTORE PUSH1 0x20 ADD PUSH1 0x0 KECCAK256 PUSH1 0x3 ADD DUP2 SWAP1 SSTORE POP CALLER PUSH1 0x0 DUP1 DUP6 PUSH20 0xFFFFFFFFFFFFFFFFFFFFFFFFFFFFFFFFFFFFFFFF AND PUSH20 0xFFFFFFFFFFFFFFFFFFFFFFFFFFFFFFFFFFFFFFFF AND DUP2 MSTORE PUSH1 0x20 ADD SWAP1 DUP2 MSTORE PUSH1 0x20 ADD PUSH1 0x0 KECCAK256 PUSH1 0x0 DUP5 DUP2 MSTORE PUSH1 0x20 ADD SWAP1 DUP2 MSTORE PUSH1 0x20 ADD PUSH1 0x0 KECCAK256 PUSH1 0x1 ADD PUSH1 0x0 PUSH2 0x100 EXP DUP2 SLOAD DUP2 PUSH20 0xFFFFFFFFFFFFFFFFFFFFFFFFFFFFFFFFFFFFFFFF MUL NOT AND SWAP1 DUP4 PUSH20 0xFFFFFFFFFFFFFFFFFFFFFFFFFFFFFFFFFFFFFFFF AND MUL OR SWAP1 SSTORE POP JUMPDEST POP POP POP JUMP JUMPDEST PUSH1 0x0 PUSH20 0xFFFFFFFFFFFFFFFFFFFFFFFFFFFFFFFFFFFFFFFF AND DUP3 PUSH20 0xFFFFFFFFFFFFFFFFFFFFFFFFFFFFFFFFFFFFFFFF AND EQ PUSH2 0x18F2 JUMPI PUSH2 0x18ED DUP4 DUP4 DUP4 PUSH2 0x198A JUMP JUMPDEST PUSH2 0x18FD JUMP JUMPDEST PUSH2 0x18FC DUP4 DUP3 PUSH2 0x1A4E JUMP JUMPDEST JUMPDEST POP POP POP JUMP JUMPDEST PUSH1 0x0 DUP1 DUP4 PUSH20 0xFFFFFFFFFFFFFFFFFFFFFFFFFFFFFFFFFFFFFFFF AND PUSH3 0xFDD58E CALLER DUP6 PUSH1 0x40 MLOAD DUP4 PUSH4 0xFFFFFFFF AND PUSH1 0xE0 SHL DUP2 MSTORE PUSH1 0x4 ADD PUSH2 0x193F SWAP3 SWAP2 SWAP1 PUSH2 0x2B15 JUMP JUMPDEST PUSH1 0x20 PUSH1 0x40 MLOAD DUP1 DUP4 SUB DUP2 DUP7 GAS STATICCALL ISZERO DUP1 ISZERO PUSH2 0x195C JUMPI RETURNDATASIZE PUSH1 0x0 DUP1 RETURNDATACOPY RETURNDATASIZE PUSH1 0x0 REVERT JUMPDEST POP POP POP POP PUSH1 0x40 MLOAD RETURNDATASIZE PUSH1 0x1F NOT PUSH1 0x1F DUP3 ADD AND DUP3 ADD DUP1 PUSH1 0x40 MSTORE POP DUP2 ADD SWAP1 PUSH2 0x1980 SWAP2 SWAP1 PUSH2 0x2B53 JUMP JUMPDEST EQ ISZERO SWAP1 POP SWAP3 SWAP2 POP POP JUMP JUMPDEST DUP2 PUSH20 0xFFFFFFFFFFFFFFFFFFFFFFFFFFFFFFFFFFFFFFFF AND PUSH4 0x23B872DD CALLER DUP6 DUP5 PUSH1 0x40 MLOAD DUP5 PUSH4 0xFFFFFFFF AND PUSH1 0xE0 SHL DUP2 MSTORE PUSH1 0x4 ADD PUSH2 0x19C7 SWAP4 SWAP3 SWAP2 SWAP1 PUSH2 0x2AAA JUMP JUMPDEST PUSH1 0x20 PUSH1 0x40 MLOAD DUP1 DUP4 SUB DUP2 PUSH1 0x0 DUP8 GAS CALL ISZERO DUP1 ISZERO PUSH2 0x19E6 JUMPI RETURNDATASIZE PUSH1 0x0 DUP1 RETURNDATACOPY RETURNDATASIZE PUSH1 0x0 REVERT JUMPDEST POP POP POP POP PUSH1 0x40 MLOAD RETURNDATASIZE PUSH1 0x1F NOT PUSH1 0x1F DUP3 ADD AND DUP3 ADD DUP1 PUSH1 0x40 MSTORE POP DUP2 ADD SWAP1 PUSH2 0x1A0A SWAP2 SWAP1 PUSH2 0x2490 JUMP JUMPDEST PUSH2 0x1A49 JUMPI PUSH1 0x40 MLOAD PUSH32 0x8C379A000000000000000000000000000000000000000000000000000000000 DUP2 MSTORE PUSH1 0x4 ADD PUSH2 0x1A40 SWAP1 PUSH2 0x2BCC JUMP JUMPDEST PUSH1 0x40 MLOAD DUP1 SWAP2 SUB SWAP1 REVERT JUMPDEST POP POP POP JUMP JUMPDEST PUSH1 0x0 DUP3 PUSH20 0xFFFFFFFFFFFFFFFFFFFFFFFFFFFFFFFFFFFFFFFF AND DUP3 PUSH1 0x40 MLOAD PUSH2 0x1A74 SWAP1 PUSH2 0x2C1D JUMP JUMPDEST PUSH1 0x0 PUSH1 0x40 MLOAD DUP1 DUP4 SUB DUP2 DUP6 DUP8 GAS CALL SWAP3 POP POP POP RETURNDATASIZE DUP1 PUSH1 0x0 DUP2 EQ PUSH2 0x1AB1 JUMPI PUSH1 0x40 MLOAD SWAP2 POP PUSH1 0x1F NOT PUSH1 0x3F RETURNDATASIZE ADD AND DUP3 ADD PUSH1 0x40 MSTORE RETURNDATASIZE DUP3 MSTORE RETURNDATASIZE PUSH1 0x0 PUSH1 0x20 DUP5 ADD RETURNDATACOPY PUSH2 0x1AB6 JUMP JUMPDEST PUSH1 0x60 SWAP2 POP JUMPDEST POP POP SWAP1 POP DUP1 PUSH2 0x1AFA JUMPI PUSH1 0x40 MLOAD PUSH32 0x8C379A000000000000000000000000000000000000000000000000000000000 DUP2 MSTORE PUSH1 0x4 ADD PUSH2 0x1AF1 SWAP1 PUSH2 0x2C7E JUMP JUMPDEST PUSH1 0x40 MLOAD DUP1 SWAP2 SUB SWAP1 REVERT JUMPDEST POP POP POP JUMP JUMPDEST PUSH1 0x40 MLOAD DUP1 PUSH1 0xA0 ADD PUSH1 0x40 MSTORE DUP1 PUSH1 0x0 PUSH20 0xFFFFFFFFFFFFFFFFFFFFFFFFFFFFFFFFFFFFFFFF AND DUP2 MSTORE PUSH1 0x20 ADD PUSH1 0x0 PUSH20 0xFFFFFFFFFFFFFFFFFFFFFFFFFFFFFFFFFFFFFFFF AND DUP2 MSTORE PUSH1 0x20 ADD PUSH1 0x0 PUSH20 0xFFFFFFFFFFFFFFFFFFFFFFFFFFFFFFFFFFFFFFFF AND DUP2 MSTORE PUSH1 0x20 ADD PUSH1 0x0 DUP2 MSTORE PUSH1 0x20 ADD PUSH1 0x0 DUP2 MSTORE POP SWAP1 JUMP JUMPDEST PUSH1 0x0 PUSH1 0x40 MLOAD SWAP1 POP SWAP1 JUMP JUMPDEST PUSH1 0x0 DUP1 REVERT JUMPDEST PUSH1 0x0 DUP1 REVERT JUMPDEST PUSH1 0x0 PUSH20 0xFFFFFFFFFFFFFFFFFFFFFFFFFFFFFFFFFFFFFFFF DUP3 AND SWAP1 POP SWAP2 SWAP1 POP JUMP JUMPDEST PUSH1 0x0 PUSH2 0x1BAF DUP3 PUSH2 0x1B84 JUMP JUMPDEST SWAP1 POP SWAP2 SWAP1 POP JUMP JUMPDEST PUSH2 0x1BBF DUP2 PUSH2 0x1BA4 JUMP JUMPDEST DUP2 EQ PUSH2 0x1BCA JUMPI PUSH1 0x0 DUP1 REVERT JUMPDEST POP JUMP JUMPDEST PUSH1 0x0 DUP2 CALLDATALOAD SWAP1 POP PUSH2 0x1BDC DUP2 PUSH2 0x1BB6 JUMP JUMPDEST SWAP3 SWAP2 POP POP JUMP JUMPDEST PUSH1 0x0 PUSH1 0x20 DUP3 DUP5 SUB SLT ISZERO PUSH2 0x1BF8 JUMPI PUSH2 0x1BF7 PUSH2 0x1B7A JUMP JUMPDEST JUMPDEST PUSH1 0x0 PUSH2 0x1C06 DUP5 DUP3 DUP6 ADD PUSH2 0x1BCD JUMP JUMPDEST SWAP2 POP POP SWAP3 SWAP2 POP POP JUMP JUMPDEST PUSH1 0x0 DUP2 ISZERO ISZERO SWAP1 POP SWAP2 SWAP1 POP JUMP JUMPDEST PUSH2 0x1C24 DUP2 PUSH2 0x1C0F JUMP JUMPDEST DUP3 MSTORE POP POP JUMP JUMPDEST PUSH1 0x0 PUSH1 0x20 DUP3 ADD SWAP1 POP PUSH2 0x1C3F PUSH1 0x0 DUP4 ADD DUP5 PUSH2 0x1C1B JUMP JUMPDEST SWAP3 SWAP2 POP POP JUMP JUMPDEST PUSH1 0x0 DUP2 SWAP1 POP SWAP2 SWAP1 POP JUMP JUMPDEST PUSH2 0x1C58 DUP2 PUSH2 0x1C45 JUMP JUMPDEST DUP2 EQ PUSH2 0x1C63 JUMPI PUSH1 0x0 DUP1 REVERT JUMPDEST POP JUMP JUMPDEST PUSH1 0x0 DUP2 CALLDATALOAD SWAP1 POP PUSH2 0x1C75 DUP2 PUSH2 0x1C4F JUMP JUMPDEST SWAP3 SWAP2 POP POP JUMP JUMPDEST PUSH1 0x0 DUP1 PUSH1 0x0 PUSH1 0x60 DUP5 DUP7 SUB SLT ISZERO PUSH2 0x1C94 JUMPI PUSH2 0x1C93 PUSH2 0x1B7A JUMP JUMPDEST JUMPDEST PUSH1 0x0 PUSH2 0x1CA2 DUP7 DUP3 DUP8 ADD PUSH2 0x1BCD JUMP JUMPDEST SWAP4 POP POP PUSH1 0x20 PUSH2 0x1CB3 DUP7 DUP3 DUP8 ADD PUSH2 0x1C66 JUMP JUMPDEST SWAP3 POP POP PUSH1 0x40 PUSH2 0x1CC4 DUP7 DUP3 DUP8 ADD PUSH2 0x1C66 JUMP JUMPDEST SWAP2 POP POP SWAP3 POP SWAP3 POP SWAP3 JUMP JUMPDEST PUSH1 0x0 DUP1 PUSH1 0x40 DUP4 DUP6 SUB SLT ISZERO PUSH2 0x1CE5 JUMPI PUSH2 0x1CE4 PUSH2 0x1B7A JUMP JUMPDEST JUMPDEST PUSH1 0x0 PUSH2 0x1CF3 DUP6 DUP3 DUP7 ADD PUSH2 0x1BCD JUMP JUMPDEST SWAP3 POP POP PUSH1 0x20 PUSH2 0x1D04 DUP6 DUP3 DUP7 ADD PUSH2 0x1C66 JUMP JUMPDEST SWAP2 POP POP SWAP3 POP SWAP3 SWAP1 POP JUMP JUMPDEST PUSH2 0x1D17 DUP2 PUSH2 0x1C45 JUMP JUMPDEST DUP3 MSTORE POP POP JUMP JUMPDEST PUSH1 0x0 PUSH1 0x20 DUP3 ADD SWAP1 POP PUSH2 0x1D32 PUSH1 0x0 DUP4 ADD DUP5 PUSH2 0x1D0E JUMP JUMPDEST SWAP3 SWAP2 POP POP JUMP JUMPDEST PUSH1 0x0 DUP1 REVERT JUMPDEST PUSH1 0x0 DUP1 REVERT JUMPDEST PUSH1 0x0 PUSH1 0x1F NOT PUSH1 0x1F DUP4 ADD AND SWAP1 POP SWAP2 SWAP1 POP JUMP JUMPDEST PUSH32 0x4E487B7100000000000000000000000000000000000000000000000000000000 PUSH1 0x0 MSTORE PUSH1 0x41 PUSH1 0x4 MSTORE PUSH1 0x24 PUSH1 0x0 REVERT JUMPDEST PUSH2 0x1D8B DUP3 PUSH2 0x1D42 JUMP JUMPDEST DUP2 ADD DUP2 DUP2 LT PUSH8 0xFFFFFFFFFFFFFFFF DUP3 GT OR ISZERO PUSH2 0x1DAA JUMPI PUSH2 0x1DA9 PUSH2 0x1D53 JUMP JUMPDEST JUMPDEST DUP1 PUSH1 0x40 MSTORE POP POP POP JUMP JUMPDEST PUSH1 0x0 PUSH2 0x1DBD PUSH2 0x1B70 JUMP JUMPDEST SWAP1 POP PUSH2 0x1DC9 DUP3 DUP3 PUSH2 0x1D82 JUMP JUMPDEST SWAP2 SWAP1 POP JUMP JUMPDEST PUSH1 0x0 PUSH8 0xFFFFFFFFFFFFFFFF DUP3 GT ISZERO PUSH2 0x1DE9 JUMPI PUSH2 0x1DE8 PUSH2 0x1D53 JUMP JUMPDEST JUMPDEST PUSH2 0x1DF2 DUP3 PUSH2 0x1D42 JUMP JUMPDEST SWAP1 POP PUSH1 0x20 DUP2 ADD SWAP1 POP SWAP2 SWAP1 POP JUMP JUMPDEST DUP3 DUP2 DUP4 CALLDATACOPY PUSH1 0x0 DUP4 DUP4 ADD MSTORE POP POP POP JUMP JUMPDEST PUSH1 0x0 PUSH2 0x1E21 PUSH2 0x1E1C DUP5 PUSH2 0x1DCE JUMP JUMPDEST PUSH2 0x1DB3 JUMP JUMPDEST SWAP1 POP DUP3 DUP2 MSTORE PUSH1 0x20 DUP2 ADD DUP5 DUP5 DUP5 ADD GT ISZERO PUSH2 0x1E3D JUMPI PUSH2 0x1E3C PUSH2 0x1D3D JUMP JUMPDEST JUMPDEST PUSH2 0x1E48 DUP5 DUP3 DUP6 PUSH2 0x1DFF JUMP JUMPDEST POP SWAP4 SWAP3 POP POP POP JUMP JUMPDEST PUSH1 0x0 DUP3 PUSH1 0x1F DUP4 ADD SLT PUSH2 0x1E65 JUMPI PUSH2 0x1E64 PUSH2 0x1D38 JUMP JUMPDEST JUMPDEST DUP2 CALLDATALOAD PUSH2 0x1E75 DUP5 DUP3 PUSH1 0x20 DUP7 ADD PUSH2 0x1E0E JUMP JUMPDEST SWAP2 POP POP SWAP3 SWAP2 POP POP JUMP JUMPDEST PUSH1 0x0 DUP1 PUSH1 0x0 DUP1 PUSH1 0x0 PUSH1 0xA0 DUP7 DUP9 SUB SLT ISZERO PUSH2 0x1E9A JUMPI PUSH2 0x1E99 PUSH2 0x1B7A JUMP JUMPDEST JUMPDEST PUSH1 0x0 PUSH2 0x1EA8 DUP9 DUP3 DUP10 ADD PUSH2 0x1BCD JUMP JUMPDEST SWAP6 POP POP PUSH1 0x20 PUSH2 0x1EB9 DUP9 DUP3 DUP10 ADD PUSH2 0x1C66 JUMP JUMPDEST SWAP5 POP POP PUSH1 0x40 PUSH2 0x1ECA DUP9 DUP3 DUP10 ADD PUSH2 0x1C66 JUMP JUMPDEST SWAP4 POP POP PUSH1 0x60 PUSH2 0x1EDB DUP9 DUP3 DUP10 ADD PUSH2 0x1C66 JUMP JUMPDEST SWAP3 POP POP PUSH1 0x80 DUP7 ADD CALLDATALOAD PUSH8 0xFFFFFFFFFFFFFFFF DUP2 GT ISZERO PUSH2 0x1EFC JUMPI PUSH2 0x1EFB PUSH2 0x1B7F JUMP JUMPDEST JUMPDEST PUSH2 0x1F08 DUP9 DUP3 DUP10 ADD PUSH2 0x1E50 JUMP JUMPDEST SWAP2 POP POP SWAP3 SWAP6 POP SWAP3 SWAP6 SWAP1 SWAP4 POP JUMP JUMPDEST PUSH1 0x0 DUP1 PUSH1 0x0 DUP1 PUSH1 0x0 DUP1 PUSH1 0xC0 DUP8 DUP10 SUB SLT ISZERO PUSH2 0x1F32 JUMPI PUSH2 0x1F31 PUSH2 0x1B7A JUMP JUMPDEST JUMPDEST PUSH1 0x0 PUSH2 0x1F40 DUP10 DUP3 DUP11 ADD PUSH2 0x1BCD JUMP JUMPDEST SWAP7 POP POP PUSH1 0x20 PUSH2 0x1F51 DUP10 DUP3 DUP11 ADD PUSH2 0x1BCD JUMP JUMPDEST SWAP6 POP POP PUSH1 0x40 PUSH2 0x1F62 DUP10 DUP3 DUP11 ADD PUSH2 0x1C66 JUMP JUMPDEST SWAP5 POP POP PUSH1 0x60 PUSH2 0x1F73 DUP10 DUP3 DUP11 ADD PUSH2 0x1C66 JUMP JUMPDEST SWAP4 POP POP PUSH1 0x80 PUSH2 0x1F84 DUP10 DUP3 DUP11 ADD PUSH2 0x1C66 JUMP JUMPDEST SWAP3 POP POP PUSH1 0xA0 DUP8 ADD CALLDATALOAD PUSH8 0xFFFFFFFFFFFFFFFF DUP2 GT ISZERO PUSH2 0x1FA5 JUMPI PUSH2 0x1FA4 PUSH2 0x1B7F JUMP JUMPDEST JUMPDEST PUSH2 0x1FB1 DUP10 DUP3 DUP11 ADD PUSH2 0x1E50 JUMP JUMPDEST SWAP2 POP POP SWAP3 SWAP6 POP SWAP3 SWAP6 POP SWAP3 SWAP6 JUMP JUMPDEST PUSH1 0x0 DUP1 PUSH1 0x0 DUP1 PUSH1 0x80 DUP6 DUP8 SUB SLT ISZERO PUSH2 0x1FD8 JUMPI PUSH2 0x1FD7 PUSH2 0x1B7A JUMP JUMPDEST JUMPDEST PUSH1 0x0 PUSH2 0x1FE6 DUP8 DUP3 DUP9 ADD PUSH2 0x1BCD JUMP JUMPDEST SWAP5 POP POP PUSH1 0x20 PUSH2 0x1FF7 DUP8 DUP3 DUP9 ADD PUSH2 0x1C66 JUMP JUMPDEST SWAP4 POP POP PUSH1 0x40 PUSH2 0x2008 DUP8 DUP3 DUP9 ADD PUSH2 0x1C66 JUMP JUMPDEST SWAP3 POP POP PUSH1 0x60 DUP6 ADD CALLDATALOAD PUSH8 0xFFFFFFFFFFFFFFFF DUP2 GT ISZERO PUSH2 0x2029 JUMPI PUSH2 0x2028 PUSH2 0x1B7F JUMP JUMPDEST JUMPDEST PUSH2 0x2035 DUP8 DUP3 DUP9 ADD PUSH2 0x1E50 JUMP JUMPDEST SWAP2 POP POP SWAP3 SWAP6 SWAP2 SWAP5 POP SWAP3 POP JUMP JUMPDEST PUSH2 0x204A DUP2 PUSH2 0x1BA4 JUMP JUMPDEST DUP3 MSTORE POP POP JUMP JUMPDEST PUSH2 0x2059 DUP2 PUSH2 0x1C45 JUMP JUMPDEST DUP3 MSTORE POP POP JUMP JUMPDEST PUSH1 0xA0 DUP3 ADD PUSH1 0x0 DUP3 ADD MLOAD PUSH2 0x2075 PUSH1 0x0 DUP6 ADD DUP3 PUSH2 0x2041 JUMP JUMPDEST POP PUSH1 0x20 DUP3 ADD MLOAD PUSH2 0x2088 PUSH1 0x20 DUP6 ADD DUP3 PUSH2 0x2041 JUMP JUMPDEST POP PUSH1 0x40 DUP3 ADD MLOAD PUSH2 0x209B PUSH1 0x40 DUP6 ADD DUP3 PUSH2 0x2041 JUMP JUMPDEST POP PUSH1 0x60 DUP3 ADD MLOAD PUSH2 0x20AE PUSH1 0x60 DUP6 ADD DUP3 PUSH2 0x2050 JUMP JUMPDEST POP PUSH1 0x80 DUP3 ADD MLOAD PUSH2 0x20C1 PUSH1 0x80 DUP6 ADD DUP3 PUSH2 0x2050 JUMP JUMPDEST POP POP POP POP JUMP JUMPDEST PUSH1 0x0 PUSH1 0xA0 DUP3 ADD SWAP1 POP PUSH2 0x20DC PUSH1 0x0 DUP4 ADD DUP5 PUSH2 0x205F JUMP JUMPDEST SWAP3 SWAP2 POP POP JUMP JUMPDEST PUSH1 0x0 PUSH32 0xFFFFFFFF00000000000000000000000000000000000000000000000000000000 DUP3 AND SWAP1 POP SWAP2 SWAP1 POP JUMP JUMPDEST PUSH2 0x2117 DUP2 PUSH2 0x20E2 JUMP JUMPDEST DUP3 MSTORE POP POP JUMP JUMPDEST PUSH1 0x0 PUSH1 0x20 DUP3 ADD SWAP1 POP PUSH2 0x2132 PUSH1 0x0 DUP4 ADD DUP5 PUSH2 0x210E JUMP JUMPDEST SWAP3 SWAP2 POP POP JUMP JUMPDEST PUSH1 0x0 DUP2 MLOAD SWAP1 POP SWAP2 SWAP1 POP JUMP JUMPDEST PUSH1 0x0 DUP3 DUP3 MSTORE PUSH1 0x20 DUP3 ADD SWAP1 POP SWAP3 SWAP2 POP POP JUMP JUMPDEST PUSH1 0x0 DUP2 SWAP1 POP PUSH1 0x20 DUP3 ADD SWAP1 POP SWAP2 SWAP1 POP JUMP JUMPDEST PUSH1 0x40 DUP3 ADD PUSH1 0x0 DUP3 ADD MLOAD PUSH2 0x217A PUSH1 0x0 DUP6 ADD DUP3 PUSH2 0x2041 JUMP JUMPDEST POP PUSH1 0x20 DUP3 ADD MLOAD PUSH2 0x218D PUSH1 0x20 DUP6 ADD DUP3 PUSH2 0x2050 JUMP JUMPDEST POP POP POP POP JUMP JUMPDEST PUSH1 0x0 PUSH2 0x219F DUP4 DUP4 PUSH2 0x2164 JUMP JUMPDEST PUSH1 0x40 DUP4 ADD SWAP1 POP SWAP3 SWAP2 POP POP JUMP JUMPDEST PUSH1 0x0 PUSH1 0x20 DUP3 ADD SWAP1 POP SWAP2 SWAP1 POP JUMP JUMPDEST PUSH1 0x0 PUSH2 0x21C3 DUP3 PUSH2 0x2138 JUMP JUMPDEST PUSH2 0x21CD DUP2 DUP6 PUSH2 0x2143 JUMP JUMPDEST SWAP4 POP PUSH2 0x21D8 DUP4 PUSH2 0x2154 JUMP JUMPDEST DUP1 PUSH1 0x0 JUMPDEST DUP4 DUP2 LT ISZERO PUSH2 0x2209 JUMPI DUP2 MLOAD PUSH2 0x21F0 DUP9 DUP3 PUSH2 0x2193 JUMP JUMPDEST SWAP8 POP PUSH2 0x21FB DUP4 PUSH2 0x21AB JUMP JUMPDEST SWAP3 POP POP PUSH1 0x1 DUP2 ADD SWAP1 POP PUSH2 0x21DC JUMP JUMPDEST POP DUP6 SWAP4 POP POP POP POP SWAP3 SWAP2 POP POP JUMP JUMPDEST PUSH1 0x0 PUSH1 0x20 DUP3 ADD SWAP1 POP DUP2 DUP2 SUB PUSH1 0x0 DUP4 ADD MSTORE PUSH2 0x2230 DUP2 DUP5 PUSH2 0x21B8 JUMP JUMPDEST SWAP1 POP SWAP3 SWAP2 POP POP JUMP JUMPDEST PUSH1 0x0 DUP1 REVERT JUMPDEST PUSH1 0x0 DUP1 REVERT JUMPDEST PUSH1 0x0 DUP1 DUP4 PUSH1 0x1F DUP5 ADD SLT PUSH2 0x2258 JUMPI PUSH2 0x2257 PUSH2 0x1D38 JUMP JUMPDEST JUMPDEST DUP3 CALLDATALOAD SWAP1 POP PUSH8 0xFFFFFFFFFFFFFFFF DUP2 GT ISZERO PUSH2 0x2275 JUMPI PUSH2 0x2274 PUSH2 0x2238 JUMP JUMPDEST JUMPDEST PUSH1 0x20 DUP4 ADD SWAP2 POP DUP4 PUSH1 0x20 DUP3 MUL DUP4 ADD GT ISZERO PUSH2 0x2291 JUMPI PUSH2 0x2290 PUSH2 0x223D JUMP JUMPDEST JUMPDEST SWAP3 POP SWAP3 SWAP1 POP JUMP JUMPDEST PUSH1 0x0 DUP1 DUP4 PUSH1 0x1F DUP5 ADD SLT PUSH2 0x22AE JUMPI PUSH2 0x22AD PUSH2 0x1D38 JUMP JUMPDEST JUMPDEST DUP3 CALLDATALOAD SWAP1 POP PUSH8 0xFFFFFFFFFFFFFFFF DUP2 GT ISZERO PUSH2 0x22CB JUMPI PUSH2 0x22CA PUSH2 0x2238 JUMP JUMPDEST JUMPDEST PUSH1 0x20 DUP4 ADD SWAP2 POP DUP4 PUSH1 0x1 DUP3 MUL DUP4 ADD GT ISZERO PUSH2 0x22E7 JUMPI PUSH2 0x22E6 PUSH2 0x223D JUMP JUMPDEST JUMPDEST SWAP3 POP SWAP3 SWAP1 POP JUMP JUMPDEST PUSH1 0x0 DUP1 PUSH1 0x0 DUP1 PUSH1 0x0 DUP1 PUSH1 0x0 DUP1 PUSH1 0xA0 DUP10 DUP12 SUB SLT ISZERO PUSH2 0x230E JUMPI PUSH2 0x230D PUSH2 0x1B7A JUMP JUMPDEST JUMPDEST PUSH1 0x0 PUSH2 0x231C DUP12 DUP3 DUP13 ADD PUSH2 0x1BCD JUMP JUMPDEST SWAP9 POP POP PUSH1 0x20 PUSH2 0x232D DUP12 DUP3 DUP13 ADD PUSH2 0x1BCD JUMP JUMPDEST SWAP8 POP POP PUSH1 0x40 DUP10 ADD CALLDATALOAD PUSH8 0xFFFFFFFFFFFFFFFF DUP2 GT ISZERO PUSH2 0x234E JUMPI PUSH2 0x234D PUSH2 0x1B7F JUMP JUMPDEST JUMPDEST PUSH2 0x235A DUP12 DUP3 DUP13 ADD PUSH2 0x2242 JUMP JUMPDEST SWAP7 POP SWAP7 POP POP PUSH1 0x60 DUP10 ADD CALLDATALOAD PUSH8 0xFFFFFFFFFFFFFFFF DUP2 GT ISZERO PUSH2 0x237D JUMPI PUSH2 0x237C PUSH2 0x1B7F JUMP JUMPDEST JUMPDEST PUSH2 0x2389 DUP12 DUP3 DUP13 ADD PUSH2 0x2242 JUMP JUMPDEST SWAP5 POP SWAP5 POP POP PUSH1 0x80 DUP10 ADD CALLDATALOAD PUSH8 0xFFFFFFFFFFFFFFFF DUP2 GT ISZERO PUSH2 0x23AC JUMPI PUSH2 0x23AB PUSH2 0x1B7F JUMP JUMPDEST JUMPDEST PUSH2 0x23B8 DUP12 DUP3 DUP13 ADD PUSH2 0x2298 JUMP JUMPDEST SWAP3 POP SWAP3 POP POP SWAP3 SWAP6 SWAP9 POP SWAP3 SWAP6 SWAP9 SWAP1 SWAP4 SWAP7 POP JUMP JUMPDEST PUSH1 0x0 DUP1 PUSH1 0x0 DUP1 PUSH1 0x0 DUP1 PUSH1 0xA0 DUP8 DUP10 SUB SLT ISZERO PUSH2 0x23E7 JUMPI PUSH2 0x23E6 PUSH2 0x1B7A JUMP JUMPDEST JUMPDEST PUSH1 0x0 PUSH2 0x23F5 DUP10 DUP3 DUP11 ADD PUSH2 0x1BCD JUMP JUMPDEST SWAP7 POP POP PUSH1 0x20 PUSH2 0x2406 DUP10 DUP3 DUP11 ADD PUSH2 0x1BCD JUMP JUMPDEST SWAP6 POP POP PUSH1 0x40 PUSH2 0x2417 DUP10 DUP3 DUP11 ADD PUSH2 0x1C66 JUMP JUMPDEST SWAP5 POP POP PUSH1 0x60 PUSH2 0x2428 DUP10 DUP3 DUP11 ADD PUSH2 0x1C66 JUMP JUMPDEST SWAP4 POP POP PUSH1 0x80 DUP8 ADD CALLDATALOAD PUSH8 0xFFFFFFFFFFFFFFFF DUP2 GT ISZERO PUSH2 0x2449 JUMPI PUSH2 0x2448 PUSH2 0x1B7F JUMP JUMPDEST JUMPDEST PUSH2 0x2455 DUP10 DUP3 DUP11 ADD PUSH2 0x2298 JUMP JUMPDEST SWAP3 POP SWAP3 POP POP SWAP3 SWAP6 POP SWAP3 SWAP6 POP SWAP3 SWAP6 JUMP JUMPDEST PUSH2 0x246D DUP2 PUSH2 0x1C0F JUMP JUMPDEST DUP2 EQ PUSH2 0x2478 JUMPI PUSH1 0x0 DUP1 REVERT JUMPDEST POP JUMP JUMPDEST PUSH1 0x0 DUP2 MLOAD SWAP1 POP PUSH2 0x248A DUP2 PUSH2 0x2464 JUMP JUMPDEST SWAP3 SWAP2 POP POP JUMP JUMPDEST PUSH1 0x0 PUSH1 0x20 DUP3 DUP5 SUB SLT ISZERO PUSH2 0x24A6 JUMPI PUSH2 0x24A5 PUSH2 0x1B7A JUMP JUMPDEST JUMPDEST PUSH1 0x0 PUSH2 0x24B4 DUP5 DUP3 DUP6 ADD PUSH2 0x247B JUMP JUMPDEST SWAP2 POP POP SWAP3 SWAP2 POP POP JUMP JUMPDEST PUSH1 0x0 DUP3 DUP3 MSTORE PUSH1 0x20 DUP3 ADD SWAP1 POP SWAP3 SWAP2 POP POP JUMP JUMPDEST PUSH32 0x4E6674206E6F7420696E2066697865642073616C650000000000000000000000 PUSH1 0x0 DUP3 ADD MSTORE POP JUMP JUMPDEST PUSH1 0x0 PUSH2 0x2504 PUSH1 0x15 DUP4 PUSH2 0x24BD JUMP JUMPDEST SWAP2 POP PUSH2 0x250F DUP3 PUSH2 0x24CE JUMP JUMPDEST PUSH1 0x20 DUP3 ADD SWAP1 POP SWAP2 SWAP1 POP JUMP JUMPDEST PUSH1 0x0 PUSH1 0x20 DUP3 ADD SWAP1 POP DUP2 DUP2 SUB PUSH1 0x0 DUP4 ADD MSTORE PUSH2 0x2533 DUP2 PUSH2 0x24F7 JUMP JUMPDEST SWAP1 POP SWAP2 SWAP1 POP JUMP JUMPDEST PUSH32 0x596F7520617265206E6F74206E6674206F776E65720000000000000000000000 PUSH1 0x0 DUP3 ADD MSTORE POP JUMP JUMPDEST PUSH1 0x0 PUSH2 0x2570 PUSH1 0x15 DUP4 PUSH2 0x24BD JUMP JUMPDEST SWAP2 POP PUSH2 0x257B DUP3 PUSH2 0x253A JUMP JUMPDEST PUSH1 0x20 DUP3 ADD SWAP1 POP SWAP2 SWAP1 POP JUMP JUMPDEST PUSH1 0x0 PUSH1 0x20 DUP3 ADD SWAP1 POP DUP2 DUP2 SUB PUSH1 0x0 DUP4 ADD MSTORE PUSH2 0x259F DUP2 PUSH2 0x2563 JUMP JUMPDEST SWAP1 POP SWAP2 SWAP1 POP JUMP JUMPDEST PUSH32 0x50726963652063616E6E6F742062652030000000000000000000000000000000 PUSH1 0x0 DUP3 ADD MSTORE POP JUMP JUMPDEST PUSH1 0x0 PUSH2 0x25DC PUSH1 0x11 DUP4 PUSH2 0x24BD JUMP JUMPDEST SWAP2 POP PUSH2 0x25E7 DUP3 PUSH2 0x25A6 JUMP JUMPDEST PUSH1 0x20 DUP3 ADD SWAP1 POP SWAP2 SWAP1 POP JUMP JUMPDEST PUSH1 0x0 PUSH1 0x20 DUP3 ADD SWAP1 POP DUP2 DUP2 SUB PUSH1 0x0 DUP4 ADD MSTORE PUSH2 0x260B DUP2 PUSH2 0x25CF JUMP JUMPDEST SWAP1 POP SWAP2 SWAP1 POP JUMP JUMPDEST PUSH2 0x261B DUP2 PUSH2 0x1BA4 JUMP JUMPDEST DUP3 MSTORE POP POP JUMP JUMPDEST PUSH1 0x0 PUSH1 0x60 DUP3 ADD SWAP1 POP PUSH2 0x2636 PUSH1 0x0 DUP4 ADD DUP7 PUSH2 0x2612 JUMP JUMPDEST PUSH2 0x2643 PUSH1 0x20 DUP4 ADD DUP6 PUSH2 0x1D0E JUMP JUMPDEST PUSH2 0x2650 PUSH1 0x40 DUP4 ADD DUP5 PUSH2 0x1D0E JUMP JUMPDEST SWAP5 SWAP4 POP POP POP POP JUMP JUMPDEST PUSH32 0x4E487B7100000000000000000000000000000000000000000000000000000000 PUSH1 0x0 MSTORE PUSH1 0x11 PUSH1 0x4 MSTORE PUSH1 0x24 PUSH1 0x0 REVERT JUMPDEST PUSH1 0x0 PUSH2 0x2692 DUP3 PUSH2 0x1C45 JUMP JUMPDEST SWAP2 POP PUSH2 0x269D DUP4 PUSH2 0x1C45 JUMP JUMPDEST SWAP3 POP DUP2 PUSH32 0xFFFFFFFFFFFFFFFFFFFFFFFFFFFFFFFFFFFFFFFFFFFFFFFFFFFFFFFFFFFFFFFF DIV DUP4 GT DUP3 ISZERO ISZERO AND ISZERO PUSH2 0x26D6 JUMPI PUSH2 0x26D5 PUSH2 0x2658 JUMP JUMPDEST JUMPDEST DUP3 DUP3 MUL SWAP1 POP SWAP3 SWAP2 POP POP JUMP JUMPDEST PUSH32 0x627579205072696365206E6F7420656E6F756768000000000000000000000000 PUSH1 0x0 DUP3 ADD MSTORE POP JUMP JUMPDEST PUSH1 0x0 PUSH2 0x2717 PUSH1 0x14 DUP4 PUSH2 0x24BD JUMP JUMPDEST SWAP2 POP PUSH2 0x2722 DUP3 PUSH2 0x26E1 JUMP JUMPDEST PUSH1 0x20 DUP3 ADD SWAP1 POP SWAP2 SWAP1 POP JUMP JUMPDEST PUSH1 0x0 PUSH1 0x20 DUP3 ADD SWAP1 POP DUP2 DUP2 SUB PUSH1 0x0 DUP4 ADD MSTORE PUSH2 0x2746 DUP2 PUSH2 0x270A JUMP JUMPDEST SWAP1 POP SWAP2 SWAP1 POP JUMP JUMPDEST PUSH32 0x6E6F6E2D7A65726F2076616C7565206F7220616D6F756E74206E6F7420677265 PUSH1 0x0 DUP3 ADD MSTORE PUSH32 0x6174657200000000000000000000000000000000000000000000000000000000 PUSH1 0x20 DUP3 ADD MSTORE POP JUMP JUMPDEST PUSH1 0x0 PUSH2 0x27A9 PUSH1 0x24 DUP4 PUSH2 0x24BD JUMP JUMPDEST SWAP2 POP PUSH2 0x27B4 DUP3 PUSH2 0x274D JUMP JUMPDEST PUSH1 0x40 DUP3 ADD SWAP1 POP SWAP2 SWAP1 POP JUMP JUMPDEST PUSH1 0x0 PUSH1 0x20 DUP3 ADD SWAP1 POP DUP2 DUP2 SUB PUSH1 0x0 DUP4 ADD MSTORE PUSH2 0x27D8 DUP2 PUSH2 0x279C JUMP JUMPDEST SWAP1 POP SWAP2 SWAP1 POP JUMP JUMPDEST PUSH1 0x0 DUP2 MLOAD SWAP1 POP SWAP2 SWAP1 POP JUMP JUMPDEST PUSH1 0x0 DUP3 DUP3 MSTORE PUSH1 0x20 DUP3 ADD SWAP1 POP SWAP3 SWAP2 POP POP JUMP JUMPDEST PUSH1 0x0 JUMPDEST DUP4 DUP2 LT ISZERO PUSH2 0x2819 JUMPI DUP1 DUP3 ADD MLOAD DUP2 DUP5 ADD MSTORE PUSH1 0x20 DUP2 ADD SWAP1 POP PUSH2 0x27FE JUMP JUMPDEST PUSH1 0x0 DUP5 DUP5 ADD MSTORE POP POP POP POP JUMP JUMPDEST PUSH1 0x0 PUSH2 0x2830 DUP3 PUSH2 0x27DF JUMP JUMPDEST PUSH2 0x283A DUP2 DUP6 PUSH2 0x27EA JUMP JUMPDEST SWAP4 POP PUSH2 0x284A DUP2 DUP6 PUSH1 0x20 DUP7 ADD PUSH2 0x27FB JUMP JUMPDEST PUSH2 0x2853 DUP2 PUSH2 0x1D42 JUMP JUMPDEST DUP5 ADD SWAP2 POP POP SWAP3 SWAP2 POP POP JUMP JUMPDEST PUSH1 0x0 PUSH1 0xA0 DUP3 ADD SWAP1 POP PUSH2 0x2873 PUSH1 0x0 DUP4 ADD DUP9 PUSH2 0x2612 JUMP JUMPDEST PUSH2 0x2880 PUSH1 0x20 DUP4 ADD DUP8 PUSH2 0x2612 JUMP JUMPDEST PUSH2 0x288D PUSH1 0x40 DUP4 ADD DUP7 PUSH2 0x1D0E JUMP JUMPDEST PUSH2 0x289A PUSH1 0x60 DUP4 ADD DUP6 PUSH2 0x1D0E JUMP JUMPDEST DUP2 DUP2 SUB PUSH1 0x80 DUP4 ADD MSTORE PUSH2 0x28AC DUP2 DUP5 PUSH2 0x2825 JUMP JUMPDEST SWAP1 POP SWAP7 SWAP6 POP POP POP POP POP POP JUMP JUMPDEST PUSH1 0x0 PUSH1 0xA0 DUP3 ADD SWAP1 POP PUSH2 0x28CD PUSH1 0x0 DUP4 ADD DUP9 PUSH2 0x2612 JUMP JUMPDEST PUSH2 0x28DA PUSH1 0x20 DUP4 ADD DUP8 PUSH2 0x2612 JUMP JUMPDEST PUSH2 0x28E7 PUSH1 0x40 DUP4 ADD DUP7 PUSH2 0x1D0E JUMP JUMPDEST PUSH2 0x28F4 PUSH1 0x60 DUP4 ADD DUP6 PUSH2 0x1D0E JUMP JUMPDEST PUSH2 0x2901 PUSH1 0x80 DUP4 ADD DUP5 PUSH2 0x1D0E JUMP JUMPDEST SWAP7 SWAP6 POP POP POP POP POP POP JUMP JUMPDEST PUSH32 0x4E667420616C726561647920696E2073616C6500000000000000000000000000 PUSH1 0x0 DUP3 ADD MSTORE POP JUMP JUMPDEST PUSH1 0x0 PUSH2 0x2941 PUSH1 0x13 DUP4 PUSH2 0x24BD JUMP JUMPDEST SWAP2 POP PUSH2 0x294C DUP3 PUSH2 0x290B JUMP JUMPDEST PUSH1 0x20 DUP3 ADD SWAP1 POP SWAP2 SWAP1 POP JUMP JUMPDEST PUSH1 0x0 PUSH1 0x20 DUP3 ADD SWAP1 POP DUP2 DUP2 SUB PUSH1 0x0 DUP4 ADD MSTORE PUSH2 0x2970 DUP2 PUSH2 0x2934 JUMP JUMPDEST SWAP1 POP SWAP2 SWAP1 POP JUMP JUMPDEST PUSH1 0x0 PUSH1 0x40 DUP3 ADD SWAP1 POP PUSH2 0x298C PUSH1 0x0 DUP4 ADD DUP6 PUSH2 0x2612 JUMP JUMPDEST PUSH2 0x2999 PUSH1 0x20 DUP4 ADD DUP5 PUSH2 0x2612 JUMP JUMPDEST SWAP4 SWAP3 POP POP POP JUMP JUMPDEST PUSH32 0x4E6674206E6F7420617070726F76656420746F20636F6E747261637400000000 PUSH1 0x0 DUP3 ADD MSTORE POP JUMP JUMPDEST PUSH1 0x0 PUSH2 0x29D6 PUSH1 0x1C DUP4 PUSH2 0x24BD JUMP JUMPDEST SWAP2 POP PUSH2 0x29E1 DUP3 PUSH2 0x29A0 JUMP JUMPDEST PUSH1 0x20 DUP3 ADD SWAP1 POP SWAP2 SWAP1 POP JUMP JUMPDEST PUSH1 0x0 PUSH1 0x20 DUP3 ADD SWAP1 POP DUP2 DUP2 SUB PUSH1 0x0 DUP4 ADD MSTORE PUSH2 0x2A05 DUP2 PUSH2 0x29C9 JUMP JUMPDEST SWAP1 POP SWAP2 SWAP1 POP JUMP JUMPDEST PUSH1 0x0 PUSH1 0xE0 DUP3 ADD SWAP1 POP PUSH2 0x2A21 PUSH1 0x0 DUP4 ADD DUP11 PUSH2 0x2612 JUMP JUMPDEST PUSH2 0x2A2E PUSH1 0x20 DUP4 ADD DUP10 PUSH2 0x2612 JUMP JUMPDEST PUSH2 0x2A3B PUSH1 0x40 DUP4 ADD DUP9 PUSH2 0x2612 JUMP JUMPDEST PUSH2 0x2A48 PUSH1 0x60 DUP4 ADD DUP8 PUSH2 0x1D0E JUMP JUMPDEST PUSH2 0x2A55 PUSH1 0x80 DUP4 ADD DUP7 PUSH2 0x1D0E JUMP JUMPDEST PUSH2 0x2A62 PUSH1 0xA0 DUP4 ADD DUP6 PUSH2 0x1D0E JUMP JUMPDEST PUSH2 0x2A6F PUSH1 0xC0 DUP4 ADD DUP5 PUSH2 0x1D0E JUMP JUMPDEST SWAP9 SWAP8 POP POP POP POP POP POP POP POP JUMP JUMPDEST PUSH32 0x4E487B7100000000000000000000000000000000000000000000000000000000 PUSH1 0x0 MSTORE PUSH1 0x32 PUSH1 0x4 MSTORE PUSH1 0x24 PUSH1 0x0 REVERT JUMPDEST PUSH1 0x0 PUSH1 0x60 DUP3 ADD SWAP1 POP PUSH2 0x2ABF PUSH1 0x0 DUP4 ADD DUP7 PUSH2 0x2612 JUMP JUMPDEST PUSH2 0x2ACC PUSH1 0x20 DUP4 ADD DUP6 PUSH2 0x2612 JUMP JUMPDEST PUSH2 0x2AD9 PUSH1 0x40 DUP4 ADD DUP5 PUSH2 0x1D0E JUMP JUMPDEST SWAP5 SWAP4 POP POP POP POP JUMP JUMPDEST PUSH1 0x0 PUSH2 0x2AEC DUP3 PUSH2 0x1C45 JUMP JUMPDEST SWAP2 POP PUSH2 0x2AF7 DUP4 PUSH2 0x1C45 JUMP JUMPDEST SWAP3 POP DUP3 DUP3 SUB SWAP1 POP DUP2 DUP2 GT ISZERO PUSH2 0x2B0F JUMPI PUSH2 0x2B0E PUSH2 0x2658 JUMP JUMPDEST JUMPDEST SWAP3 SWAP2 POP POP JUMP JUMPDEST PUSH1 0x0 PUSH1 0x40 DUP3 ADD SWAP1 POP PUSH2 0x2B2A PUSH1 0x0 DUP4 ADD DUP6 PUSH2 0x2612 JUMP JUMPDEST PUSH2 0x2B37 PUSH1 0x20 DUP4 ADD DUP5 PUSH2 0x1D0E JUMP JUMPDEST SWAP4 SWAP3 POP POP POP JUMP JUMPDEST PUSH1 0x0 DUP2 MLOAD SWAP1 POP PUSH2 0x2B4D DUP2 PUSH2 0x1C4F JUMP JUMPDEST SWAP3 SWAP2 POP POP JUMP JUMPDEST PUSH1 0x0 PUSH1 0x20 DUP3 DUP5 SUB SLT ISZERO PUSH2 0x2B69 JUMPI PUSH2 0x2B68 PUSH2 0x1B7A JUMP JUMPDEST JUMPDEST PUSH1 0x0 PUSH2 0x2B77 DUP5 DUP3 DUP6 ADD PUSH2 0x2B3E JUMP JUMPDEST SWAP2 POP POP SWAP3 SWAP2 POP POP JUMP JUMPDEST PUSH32 0x616C6C6F77616E6365206E6F7420656E6F756768000000000000000000000000 PUSH1 0x0 DUP3 ADD MSTORE POP JUMP JUMPDEST PUSH1 0x0 PUSH2 0x2BB6 PUSH1 0x14 DUP4 PUSH2 0x24BD JUMP JUMPDEST SWAP2 POP PUSH2 0x2BC1 DUP3 PUSH2 0x2B80 JUMP JUMPDEST PUSH1 0x20 DUP3 ADD SWAP1 POP SWAP2 SWAP1 POP JUMP JUMPDEST PUSH1 0x0 PUSH1 0x20 DUP3 ADD SWAP1 POP DUP2 DUP2 SUB PUSH1 0x0 DUP4 ADD MSTORE PUSH2 0x2BE5 DUP2 PUSH2 0x2BA9 JUMP JUMPDEST SWAP1 POP SWAP2 SWAP1 POP JUMP JUMPDEST PUSH1 0x0 DUP2 SWAP1 POP SWAP3 SWAP2 POP POP JUMP JUMPDEST POP JUMP JUMPDEST PUSH1 0x0 PUSH2 0x2C07 PUSH1 0x0 DUP4 PUSH2 0x2BEC JUMP JUMPDEST SWAP2 POP PUSH2 0x2C12 DUP3 PUSH2 0x2BF7 JUMP JUMPDEST PUSH1 0x0 DUP3 ADD SWAP1 POP SWAP2 SWAP1 POP JUMP JUMPDEST PUSH1 0x0 PUSH2 0x2C28 DUP3 PUSH2 0x2BFA JUMP JUMPDEST SWAP2 POP DUP2 SWAP1 POP SWAP2 SWAP1 POP JUMP JUMPDEST PUSH32 0x726566756E64206661696C656400000000000000000000000000000000000000 PUSH1 0x0 DUP3 ADD MSTORE POP JUMP JUMPDEST PUSH1 0x0 PUSH2 0x2C68 PUSH1 0xD DUP4 PUSH2 0x24BD JUMP JUMPDEST SWAP2 POP PUSH2 0x2C73 DUP3 PUSH2 0x2C32 JUMP JUMPDEST PUSH1 0x20 DUP3 ADD SWAP1 POP SWAP2 SWAP1 POP JUMP JUMPDEST PUSH1 0x0 PUSH1 0x20 DUP3 ADD SWAP1 POP DUP2 DUP2 SUB PUSH1 0x0 DUP4 ADD MSTORE PUSH2 0x2C97 DUP2 PUSH2 0x2C5B JUMP JUMPDEST SWAP1 POP SWAP2 SWAP1 POP JUMP INVALID LOG2 PUSH5 0x6970667358 0x22 SLT KECCAK256 SIGNEXTEND 0xA5 LT 0xC5 POP 0xD1 0xBD 0x4A SELFDESTRUCT PUSH9 0xCC9272B7D1E69C31FF PUSH4 0xBB0BA095 PUSH16 0xB8D8DF91FC428464736F6C6343000810 STOP CALLER "
				},
				"gasEstimates": {
					"creation": {
						"codeDepositCost": "2295200",
						"executionCost": "2456",
						"totalCost": "2297656"
					},
					"external": {
						"IID_IERC1155()": "379",
						"buyFromFixedSale(address,uint256,uint256,uint256,bytes)": "infinite",
						"cancelFixedsale(address,uint256,uint256,bytes)": "infinite",
						"getFixedSale(address,uint256)": "infinite",
						"getFixedSaleNFT()": "infinite",
						"isERC1155(address)": "infinite",
						"nftFixedSale(address,address,uint256,uint256,uint256,bytes)": "infinite",
						"nftSaleStatus(address,uint256)": "infinite",
						"onERC1155BatchReceived(address,address,uint256[],uint256[],bytes)": "infinite",
						"onERC1155Received(address,address,uint256,uint256,bytes)": "infinite",
						"updateFixedSalePrice(address,uint256,uint256)": "infinite"
					},
					"internal": {
						"_checkFixedSale(address,uint256,uint256)": "infinite",
						"_isTokenOrCoin(address,address,uint256)": "infinite",
						"_nativeAmountTransfer(address,uint256)": "infinite",
						"_ownerOf(address,uint256)": "infinite",
						"_tokenAmountTransfer(address,address,uint256)": "infinite"
					}
				},
				"methodIdentifiers": {
					"IID_IERC1155()": "9b8cfe52",
					"buyFromFixedSale(address,uint256,uint256,uint256,bytes)": "6eb84994",
					"cancelFixedsale(address,uint256,uint256,bytes)": "804e9f24",
					"getFixedSale(address,uint256)": "8c3417da",
					"getFixedSaleNFT()": "9f085a00",
					"isERC1155(address)": "282e460a",
					"nftFixedSale(address,address,uint256,uint256,uint256,bytes)": "771b5788",
					"nftSaleStatus(address,uint256)": "6916462f",
					"onERC1155BatchReceived(address,address,uint256[],uint256[],bytes)": "bc197c81",
					"onERC1155Received(address,address,uint256,uint256,bytes)": "f23a6e61",
					"updateFixedSalePrice(address,uint256,uint256)": "4676adca"
				}
			},
			"storageLayout": {
				"storage": [
					{
						"astId": 792,
						"contract": "NFT-Contracts/contracts/market_pri/nft_new_market1155pri.sol:NFTMarketplace",
						"label": "nftContractFixedSale",
						"offset": 0,
						"slot": "0",
						"type": "t_mapping(t_address,t_mapping(t_uint256,t_struct(FixedSale)780_storage))"
					},
					{
						"astId": 798,
						"contract": "NFT-Contracts/contracts/market_pri/nft_new_market1155pri.sol:NFTMarketplace",
						"label": "nftSaleStatus",
						"offset": 0,
						"slot": "1",
						"type": "t_mapping(t_address,t_mapping(t_uint256,t_uint256))"
					},
					{
						"astId": 804,
						"contract": "NFT-Contracts/contracts/market_pri/nft_new_market1155pri.sol:NFTMarketplace",
						"label": "indexFixedSaleNFT",
						"offset": 0,
						"slot": "2",
						"type": "t_mapping(t_address,t_mapping(t_uint256,t_uint256))"
					},
					{
						"astId": 814,
						"contract": "NFT-Contracts/contracts/market_pri/nft_new_market1155pri.sol:NFTMarketplace",
						"label": "fixedSaleNFT",
						"offset": 0,
						"slot": "3",
						"type": "t_array(t_struct(SaleInfo)785_storage)dyn_storage"
					}
				],
				"types": {
					"t_address": {
						"encoding": "inplace",
						"label": "address",
						"numberOfBytes": "20"
					},
					"t_array(t_struct(SaleInfo)785_storage)dyn_storage": {
						"base": "t_struct(SaleInfo)785_storage",
						"encoding": "dynamic_array",
						"label": "struct NFTMarketplace.SaleInfo[]",
						"numberOfBytes": "32"
					},
					"t_mapping(t_address,t_mapping(t_uint256,t_struct(FixedSale)780_storage))": {
						"encoding": "mapping",
						"key": "t_address",
						"label": "mapping(address => mapping(uint256 => struct NFTMarketplace.FixedSale))",
						"numberOfBytes": "32",
						"value": "t_mapping(t_uint256,t_struct(FixedSale)780_storage)"
					},
					"t_mapping(t_address,t_mapping(t_uint256,t_uint256))": {
						"encoding": "mapping",
						"key": "t_address",
						"label": "mapping(address => mapping(uint256 => uint256))",
						"numberOfBytes": "32",
						"value": "t_mapping(t_uint256,t_uint256)"
					},
					"t_mapping(t_uint256,t_struct(FixedSale)780_storage)": {
						"encoding": "mapping",
						"key": "t_uint256",
						"label": "mapping(uint256 => struct NFTMarketplace.FixedSale)",
						"numberOfBytes": "32",
						"value": "t_struct(FixedSale)780_storage"
					},
					"t_mapping(t_uint256,t_uint256)": {
						"encoding": "mapping",
						"key": "t_uint256",
						"label": "mapping(uint256 => uint256)",
						"numberOfBytes": "32",
						"value": "t_uint256"
					},
					"t_struct(FixedSale)780_storage": {
						"encoding": "inplace",
						"label": "struct NFTMarketplace.FixedSale",
						"members": [
							{
								"astId": 771,
								"contract": "NFT-Contracts/contracts/market_pri/nft_new_market1155pri.sol:NFTMarketplace",
								"label": "nftSeller",
								"offset": 0,
								"slot": "0",
								"type": "t_address"
							},
							{
								"astId": 773,
								"contract": "NFT-Contracts/contracts/market_pri/nft_new_market1155pri.sol:NFTMarketplace",
								"label": "nftBuyer",
								"offset": 0,
								"slot": "1",
								"type": "t_address"
							},
							{
								"astId": 775,
								"contract": "NFT-Contracts/contracts/market_pri/nft_new_market1155pri.sol:NFTMarketplace",
								"label": "erc20",
								"offset": 0,
								"slot": "2",
								"type": "t_address"
							},
							{
								"astId": 777,
								"contract": "NFT-Contracts/contracts/market_pri/nft_new_market1155pri.sol:NFTMarketplace",
								"label": "amount",
								"offset": 0,
								"slot": "3",
								"type": "t_uint256"
							},
							{
								"astId": 779,
								"contract": "NFT-Contracts/contracts/market_pri/nft_new_market1155pri.sol:NFTMarketplace",
								"label": "salePrice",
								"offset": 0,
								"slot": "4",
								"type": "t_uint256"
							}
						],
						"numberOfBytes": "160"
					},
					"t_struct(SaleInfo)785_storage": {
						"encoding": "inplace",
						"label": "struct NFTMarketplace.SaleInfo",
						"members": [
							{
								"astId": 782,
								"contract": "NFT-Contracts/contracts/market_pri/nft_new_market1155pri.sol:NFTMarketplace",
								"label": "_nftContractAddress",
								"offset": 0,
								"slot": "0",
								"type": "t_address"
							},
							{
								"astId": 784,
								"contract": "NFT-Contracts/contracts/market_pri/nft_new_market1155pri.sol:NFTMarketplace",
								"label": "_tokenID",
								"offset": 0,
								"slot": "1",
								"type": "t_uint256"
							}
						],
						"numberOfBytes": "64"
					},
					"t_uint256": {
						"encoding": "inplace",
						"label": "uint256",
						"numberOfBytes": "32"
					}
				}
			},
			"userdoc": {
				"kind": "user",
				"methods": {},
				"version": 1
			}
		}
	}
}