{
	"NFT-Contracts/new/finalMarket_single.sol": {
		"NFTMarketplace": {
			"abi": [
				{
					"anonymous": false,
					"inputs": [
						{
							"indexed": false,
							"internalType": "address",
							"name": "nftContractAddress",
							"type": "address"
						},
						{
							"indexed": false,
							"internalType": "uint256",
							"name": "tokenId",
							"type": "uint256"
						},
						{
							"indexed": false,
							"internalType": "address",
							"name": "nftSeller",
							"type": "address"
						}
					],
					"name": "CancelNftAuctionSale",
					"type": "event"
				},
				{
					"anonymous": false,
					"inputs": [
						{
							"indexed": false,
							"internalType": "address",
							"name": "nftContractAddress",
							"type": "address"
						},
						{
							"indexed": false,
							"internalType": "address",
							"name": "nftSeller",
							"type": "address"
						},
						{
							"indexed": false,
							"internalType": "uint256",
							"name": "tokenId",
							"type": "uint256"
						}
					],
					"name": "CancelNftFixedSale",
					"type": "event"
				},
				{
					"anonymous": false,
					"inputs": [
						{
							"indexed": false,
							"internalType": "address",
							"name": "nftContractAddress",
							"type": "address"
						},
						{
							"indexed": false,
							"internalType": "uint256",
							"name": "tokenId",
							"type": "uint256"
						},
						{
							"indexed": false,
							"internalType": "uint256",
							"name": "finalBidPrice",
							"type": "uint256"
						},
						{
							"indexed": false,
							"internalType": "address",
							"name": "nftBidder",
							"type": "address"
						}
					],
					"name": "NftAuctionBidPriceUpdate",
					"type": "event"
				},
				{
					"anonymous": false,
					"inputs": [
						{
							"indexed": false,
							"internalType": "address",
							"name": "nftContractAddress",
							"type": "address"
						},
						{
							"indexed": false,
							"internalType": "address",
							"name": "nftSeller",
							"type": "address"
						},
						{
							"indexed": false,
							"internalType": "address",
							"name": "erc20",
							"type": "address"
						},
						{
							"indexed": false,
							"internalType": "uint256",
							"name": "tokenId",
							"type": "uint256"
						},
						{
							"indexed": false,
							"internalType": "uint256",
							"name": "auctionStart",
							"type": "uint256"
						},
						{
							"indexed": false,
							"internalType": "uint256",
							"name": "auctionEnd",
							"type": "uint256"
						},
						{
							"indexed": false,
							"internalType": "uint256",
							"name": "minPrice",
							"type": "uint256"
						}
					],
					"name": "NftAuctionSale",
					"type": "event"
				},
				{
					"anonymous": false,
					"inputs": [
						{
							"indexed": false,
							"internalType": "address",
							"name": "nftContractAddress",
							"type": "address"
						},
						{
							"indexed": false,
							"internalType": "uint256",
							"name": "tokenId",
							"type": "uint256"
						},
						{
							"indexed": false,
							"internalType": "address",
							"name": "nftHighestBidder",
							"type": "address"
						},
						{
							"indexed": false,
							"internalType": "uint256",
							"name": "nftHighestBid",
							"type": "uint256"
						},
						{
							"indexed": false,
							"internalType": "address",
							"name": "nftSeller",
							"type": "address"
						}
					],
					"name": "NftAuctionSettle",
					"type": "event"
				},
				{
					"anonymous": false,
					"inputs": [
						{
							"indexed": false,
							"internalType": "address",
							"name": "nftContractAddress",
							"type": "address"
						},
						{
							"indexed": false,
							"internalType": "uint256",
							"name": "tokenId",
							"type": "uint256"
						},
						{
							"indexed": false,
							"internalType": "uint256",
							"name": "bidPrice",
							"type": "uint256"
						},
						{
							"indexed": false,
							"internalType": "address",
							"name": "nftBidder",
							"type": "address"
						}
					],
					"name": "NftBidPrice",
					"type": "event"
				},
				{
					"anonymous": false,
					"inputs": [
						{
							"indexed": false,
							"internalType": "address",
							"name": "nftContractAddress",
							"type": "address"
						},
						{
							"indexed": false,
							"internalType": "address",
							"name": "nftBuyer",
							"type": "address"
						},
						{
							"indexed": false,
							"internalType": "uint256",
							"name": "tokenId",
							"type": "uint256"
						},
						{
							"indexed": false,
							"internalType": "uint256",
							"name": "nftBuyPrice",
							"type": "uint256"
						}
					],
					"name": "NftBuyFromFixedSale",
					"type": "event"
				},
				{
					"anonymous": false,
					"inputs": [
						{
							"indexed": false,
							"internalType": "address",
							"name": "nftContractAddress",
							"type": "address"
						},
						{
							"indexed": false,
							"internalType": "uint256",
							"name": "tokenId",
							"type": "uint256"
						},
						{
							"indexed": false,
							"internalType": "uint256",
							"name": "updateBuyNowPrice",
							"type": "uint256"
						},
						{
							"indexed": false,
							"internalType": "address",
							"name": "nftOwner",
							"type": "address"
						}
					],
					"name": "NftBuyNowPriceUpdate",
					"type": "event"
				},
				{
					"anonymous": false,
					"inputs": [
						{
							"indexed": false,
							"internalType": "address",
							"name": "nftContractAddress",
							"type": "address"
						},
						{
							"indexed": false,
							"internalType": "address",
							"name": "nftSeller",
							"type": "address"
						},
						{
							"indexed": false,
							"internalType": "address",
							"name": "erc20",
							"type": "address"
						},
						{
							"indexed": false,
							"internalType": "uint256",
							"name": "tokenId",
							"type": "uint256"
						},
						{
							"indexed": false,
							"internalType": "uint256",
							"name": "salePrice",
							"type": "uint256"
						},
						{
							"indexed": false,
							"internalType": "uint256",
							"name": "timeOfSale",
							"type": "uint256"
						}
					],
					"name": "NftFixedSale",
					"type": "event"
				},
				{
					"anonymous": false,
					"inputs": [
						{
							"indexed": false,
							"internalType": "address",
							"name": "nftContractAddress",
							"type": "address"
						},
						{
							"indexed": false,
							"internalType": "uint256",
							"name": "tokenId",
							"type": "uint256"
						},
						{
							"indexed": false,
							"internalType": "uint256",
							"name": "updateSalePrice",
							"type": "uint256"
						}
					],
					"name": "NftFixedSalePriceUpdated",
					"type": "event"
				},
				{
					"anonymous": false,
					"inputs": [
						{
							"indexed": false,
							"internalType": "address",
							"name": "nftContractAddress",
							"type": "address"
						},
						{
							"indexed": false,
							"internalType": "uint256",
							"name": "tokenId",
							"type": "uint256"
						},
						{
							"indexed": false,
							"internalType": "address",
							"name": "bidClaimer",
							"type": "address"
						}
					],
					"name": "withdrawNftBid",
					"type": "event"
				},
				{
					"inputs": [
						{
							"internalType": "address",
							"name": "_nftContractAddress",
							"type": "address"
						},
						{
							"internalType": "uint256",
							"name": "_tokenId",
							"type": "uint256"
						}
					],
					"name": "_cancelAuctionSale",
					"outputs": [],
					"stateMutability": "nonpayable",
					"type": "function"
				},
				{
					"inputs": [
						{
							"internalType": "address",
							"name": "_nftContractAddress",
							"type": "address"
						},
						{
							"internalType": "uint256",
							"name": "_tokenId",
							"type": "uint256"
						},
						{
							"internalType": "uint256",
							"name": "_amount",
							"type": "uint256"
						}
					],
					"name": "buyFromFixedSale",
					"outputs": [],
					"stateMutability": "payable",
					"type": "function"
				},
				{
					"inputs": [
						{
							"internalType": "address",
							"name": "_nftContractAddress",
							"type": "address"
						},
						{
							"internalType": "uint256",
							"name": "_tokenId",
							"type": "uint256"
						}
					],
					"name": "cancelFixedsale",
					"outputs": [],
					"stateMutability": "nonpayable",
					"type": "function"
				},
				{
					"inputs": [
						{
							"internalType": "address",
							"name": "_nftContractAddress",
							"type": "address"
						},
						{
							"internalType": "address",
							"name": "_erc20",
							"type": "address"
						},
						{
							"internalType": "uint256",
							"name": "_tokenId",
							"type": "uint256"
						},
						{
							"internalType": "uint256",
							"name": "_auctionStart",
							"type": "uint256"
						},
						{
							"internalType": "uint256",
							"name": "_auctionEnd",
							"type": "uint256"
						},
						{
							"internalType": "uint256",
							"name": "_minPrice",
							"type": "uint256"
						}
					],
					"name": "createNftAuctionSale",
					"outputs": [],
					"stateMutability": "nonpayable",
					"type": "function"
				},
				{
					"inputs": [],
					"name": "getAuctionSaleNFT",
					"outputs": [
						{
							"components": [
								{
									"internalType": "address",
									"name": "_nftContractAddress",
									"type": "address"
								},
								{
									"internalType": "uint256",
									"name": "_tokenID",
									"type": "uint256"
								}
							],
							"internalType": "struct NFTMarketplace.SaleInfo[]",
							"name": "",
							"type": "tuple[]"
						}
					],
					"stateMutability": "view",
					"type": "function"
				},
				{
					"inputs": [
						{
							"internalType": "address",
							"name": "_nftContractAddress",
							"type": "address"
						},
						{
							"internalType": "uint256",
							"name": "_tokenId",
							"type": "uint256"
						}
					],
					"name": "getFixedSale",
					"outputs": [
						{
							"components": [
								{
									"internalType": "address",
									"name": "nftSeller",
									"type": "address"
								},
								{
									"internalType": "address",
									"name": "nftBuyer",
									"type": "address"
								},
								{
									"internalType": "address",
									"name": "erc20",
									"type": "address"
								},
								{
									"internalType": "uint256",
									"name": "salePrice",
									"type": "uint256"
								}
							],
							"internalType": "struct NFTMarketplace.FixedSale",
							"name": "",
							"type": "tuple"
						}
					],
					"stateMutability": "view",
					"type": "function"
				},
				{
					"inputs": [],
					"name": "getFixedSaleNFT",
					"outputs": [
						{
							"components": [
								{
									"internalType": "address",
									"name": "_nftContractAddress",
									"type": "address"
								},
								{
									"internalType": "uint256",
									"name": "_tokenID",
									"type": "uint256"
								}
							],
							"internalType": "struct NFTMarketplace.SaleInfo[]",
							"name": "",
							"type": "tuple[]"
						}
					],
					"stateMutability": "view",
					"type": "function"
				},
				{
					"inputs": [
						{
							"internalType": "address",
							"name": "_nftContractAddress",
							"type": "address"
						},
						{
							"internalType": "uint256",
							"name": "_tokenId",
							"type": "uint256"
						}
					],
					"name": "getNftAuctionSaleDetails",
					"outputs": [
						{
							"components": [
								{
									"internalType": "uint256",
									"name": "auctionStart",
									"type": "uint256"
								},
								{
									"internalType": "uint256",
									"name": "auctionEnd",
									"type": "uint256"
								},
								{
									"internalType": "uint256",
									"name": "minPrice",
									"type": "uint256"
								},
								{
									"internalType": "uint256",
									"name": "nftHighestBid",
									"type": "uint256"
								},
								{
									"internalType": "address",
									"name": "nftHighestBidder",
									"type": "address"
								},
								{
									"internalType": "address",
									"name": "nftSeller",
									"type": "address"
								},
								{
									"internalType": "address",
									"name": "erc20",
									"type": "address"
								}
							],
							"internalType": "struct NFTMarketplace.Auction",
							"name": "",
							"type": "tuple"
						}
					],
					"stateMutability": "view",
					"type": "function"
				},
				{
					"inputs": [
						{
							"internalType": "address",
							"name": "_nftContractAddress",
							"type": "address"
						},
						{
							"internalType": "uint256",
							"name": "_tokenId",
							"type": "uint256"
						},
						{
							"internalType": "uint256",
							"name": "_bidPrice",
							"type": "uint256"
						}
					],
					"name": "makeBid",
					"outputs": [],
					"stateMutability": "payable",
					"type": "function"
				},
				{
					"inputs": [
						{
							"internalType": "address",
							"name": "_nftContractAddress",
							"type": "address"
						},
						{
							"internalType": "address",
							"name": "_erc20",
							"type": "address"
						},
						{
							"internalType": "uint256",
							"name": "_tokenId",
							"type": "uint256"
						},
						{
							"internalType": "uint256",
							"name": "_salePrice",
							"type": "uint256"
						}
					],
					"name": "nftFixedSale",
					"outputs": [],
					"stateMutability": "nonpayable",
					"type": "function"
				},
				{
					"inputs": [
						{
							"internalType": "address",
							"name": "",
							"type": "address"
						},
						{
							"internalType": "uint256",
							"name": "",
							"type": "uint256"
						}
					],
					"name": "nftSaleStatus",
					"outputs": [
						{
							"internalType": "uint256",
							"name": "",
							"type": "uint256"
						}
					],
					"stateMutability": "view",
					"type": "function"
				},
				{
					"inputs": [
						{
							"internalType": "address",
							"name": "",
							"type": "address"
						},
						{
							"internalType": "address",
							"name": "from",
							"type": "address"
						},
						{
							"internalType": "uint256",
							"name": "",
							"type": "uint256"
						},
						{
							"internalType": "bytes",
							"name": "",
							"type": "bytes"
						}
					],
					"name": "onERC721Received",
					"outputs": [
						{
							"internalType": "bytes4",
							"name": "",
							"type": "bytes4"
						}
					],
					"stateMutability": "pure",
					"type": "function"
				},
				{
					"inputs": [
						{
							"internalType": "address",
							"name": "_nftContractAddress",
							"type": "address"
						},
						{
							"internalType": "uint256",
							"name": "_tokenId",
							"type": "uint256"
						}
					],
					"name": "settleAuction",
					"outputs": [],
					"stateMutability": "nonpayable",
					"type": "function"
				},
				{
					"inputs": [
						{
							"internalType": "address",
							"name": "_nftContractAddress",
							"type": "address"
						},
						{
							"internalType": "uint256",
							"name": "_tokenId",
							"type": "uint256"
						},
						{
							"internalType": "uint256",
							"name": "_updateSalePrice",
							"type": "uint256"
						}
					],
					"name": "updateFixedSalePrice",
					"outputs": [],
					"stateMutability": "nonpayable",
					"type": "function"
				},
				{
					"inputs": [
						{
							"internalType": "address",
							"name": "_nftContractAddress",
							"type": "address"
						},
						{
							"internalType": "uint256",
							"name": "_tokenId",
							"type": "uint256"
						},
						{
							"internalType": "uint256",
							"name": "_updateBidPrice",
							"type": "uint256"
						}
					],
					"name": "updateTheBidPrice",
					"outputs": [],
					"stateMutability": "payable",
					"type": "function"
				},
				{
					"inputs": [
						{
							"internalType": "address",
							"name": "",
							"type": "address"
						},
						{
							"internalType": "uint256",
							"name": "",
							"type": "uint256"
						},
						{
							"internalType": "address",
							"name": "",
							"type": "address"
						}
					],
					"name": "userBidPriceOnNFT",
					"outputs": [
						{
							"internalType": "uint256",
							"name": "",
							"type": "uint256"
						}
					],
					"stateMutability": "view",
					"type": "function"
				},
				{
					"inputs": [
						{
							"internalType": "address",
							"name": "_nftContractAddress",
							"type": "address"
						},
						{
							"internalType": "uint256",
							"name": "_tokenId",
							"type": "uint256"
						}
					],
					"name": "withdrawBid",
					"outputs": [],
					"stateMutability": "nonpayable",
					"type": "function"
				},
				{
					"stateMutability": "payable",
					"type": "receive"
				}
			],
			"devdoc": {
				"kind": "dev",
				"methods": {},
				"version": 1
			},
			"evm": {
				"assembly": "    /* \"NFT-Contracts/new/finalMarket_single.sol\":365:21443  contract NFTMarketplace {\r... */\n  mstore(0x40, 0x80)\n  callvalue\n  dup1\n  iszero\n  tag_1\n  jumpi\n  0x00\n  dup1\n  revert\ntag_1:\n  pop\n  dataSize(sub_0)\n  dup1\n  dataOffset(sub_0)\n  0x00\n  codecopy\n  0x00\n  return\nstop\n\nsub_0: assembly {\n        /* \"NFT-Contracts/new/finalMarket_single.sol\":365:21443  contract NFTMarketplace {\r... */\n      mstore(0x40, 0x80)\n      jumpi(tag_1, lt(calldatasize, 0x04))\n      shr(0xe0, calldataload(0x00))\n      dup1\n      0x69a6d12e\n      gt\n      tag_20\n      jumpi\n      dup1\n      0x8c3417da\n      gt\n      tag_21\n      jumpi\n      dup1\n      0x8c3417da\n      eq\n      tag_15\n      jumpi\n      dup1\n      0x9f085a00\n      eq\n      tag_16\n      jumpi\n      dup1\n      0xbaf4371e\n      eq\n      tag_17\n      jumpi\n      dup1\n      0xcf42b7e6\n      eq\n      tag_18\n      jumpi\n      dup1\n      0xd3a6a6c9\n      eq\n      tag_19\n      jumpi\n      jump(tag_2)\n    tag_21:\n      dup1\n      0x69a6d12e\n      eq\n      tag_11\n      jumpi\n      dup1\n      0x6f8c9b1b\n      eq\n      tag_12\n      jumpi\n      dup1\n      0x6fe02f24\n      eq\n      tag_13\n      jumpi\n      dup1\n      0x842bc46a\n      eq\n      tag_14\n      jumpi\n      jump(tag_2)\n    tag_20:\n      dup1\n      0x4676adca\n      gt\n      tag_22\n      jumpi\n      dup1\n      0x4676adca\n      eq\n      tag_7\n      jumpi\n      dup1\n      0x4cb8ef5b\n      eq\n      tag_8\n      jumpi\n      dup1\n      0x5138b08c\n      eq\n      tag_9\n      jumpi\n      dup1\n      0x6916462f\n      eq\n      tag_10\n      jumpi\n      jump(tag_2)\n    tag_22:\n      dup1\n      0x150b7a02\n      eq\n      tag_3\n      jumpi\n      dup1\n      0x1bdae6f1\n      eq\n      tag_4\n      jumpi\n      dup1\n      0x1e7a044f\n      eq\n      tag_5\n      jumpi\n      dup1\n      0x3a713db8\n      eq\n      tag_6\n      jumpi\n      jump(tag_2)\n    tag_1:\n      jumpi(tag_2, calldatasize)\n      stop\n    tag_2:\n      0x00\n      dup1\n      revert\n        /* \"NFT-Contracts/new/finalMarket_single.sol\":18734:18949  function onERC721Received(\r... */\n    tag_3:\n      callvalue\n      dup1\n      iszero\n      tag_25\n      jumpi\n      0x00\n      dup1\n      revert\n    tag_25:\n      pop\n      tag_26\n      0x04\n      dup1\n      calldatasize\n      sub\n      dup2\n      add\n      swap1\n      tag_27\n      swap2\n      swap1\n      tag_28\n      jump\t// in\n    tag_27:\n      tag_29\n      jump\t// in\n    tag_26:\n      mload(0x40)\n      tag_30\n      swap2\n      swap1\n      tag_31\n      jump\t// in\n    tag_30:\n      mload(0x40)\n      dup1\n      swap2\n      sub\n      swap1\n      return\n        /* \"NFT-Contracts/new/finalMarket_single.sol\":12803:13978  function makeBid(\r... */\n    tag_4:\n      tag_32\n      0x04\n      dup1\n      calldatasize\n      sub\n      dup2\n      add\n      swap1\n      tag_33\n      swap2\n      swap1\n      tag_34\n      jump\t// in\n    tag_33:\n      tag_35\n      jump\t// in\n    tag_32:\n      stop\n        /* \"NFT-Contracts/new/finalMarket_single.sol\":18273:18384  function getAuctionSaleNFT() external view returns (SaleInfo[] memory) {\r... */\n    tag_5:\n      callvalue\n      dup1\n      iszero\n      tag_36\n      jumpi\n      0x00\n      dup1\n      revert\n    tag_36:\n      pop\n      tag_37\n      tag_38\n      jump\t// in\n    tag_37:\n      mload(0x40)\n      tag_39\n      swap2\n      swap1\n      tag_40\n      jump\t// in\n    tag_39:\n      mload(0x40)\n      dup1\n      swap2\n      sub\n      swap1\n      return\n        /* \"NFT-Contracts/new/finalMarket_single.sol\":13986:15502  function updateTheBidPrice(\r... */\n    tag_6:\n      tag_41\n      0x04\n      dup1\n      calldatasize\n      sub\n      dup2\n      add\n      swap1\n      tag_42\n      swap2\n      swap1\n      tag_34\n      jump\t// in\n    tag_42:\n      tag_43\n      jump\t// in\n    tag_41:\n      stop\n        /* \"NFT-Contracts/new/finalMarket_single.sol\":9972:10550  function updateFixedSalePrice(\r... */\n    tag_7:\n      callvalue\n      dup1\n      iszero\n      tag_44\n      jumpi\n      0x00\n      dup1\n      revert\n    tag_44:\n      pop\n      tag_45\n      0x04\n      dup1\n      calldatasize\n      sub\n      dup2\n      add\n      swap1\n      tag_46\n      swap2\n      swap1\n      tag_34\n      jump\t// in\n    tag_46:\n      tag_47\n      jump\t// in\n    tag_45:\n      stop\n        /* \"NFT-Contracts/new/finalMarket_single.sol\":17275:18033  function withdrawBid(address _nftContractAddress, uint256 _tokenId)\r... */\n    tag_8:\n      callvalue\n      dup1\n      iszero\n      tag_48\n      jumpi\n      0x00\n      dup1\n      revert\n    tag_48:\n      pop\n      tag_49\n      0x04\n      dup1\n      calldatasize\n      sub\n      dup2\n      add\n      swap1\n      tag_50\n      swap2\n      swap1\n      tag_51\n      jump\t// in\n    tag_50:\n      tag_52\n      jump\t// in\n    tag_49:\n      stop\n        /* \"NFT-Contracts/new/finalMarket_single.sol\":16259:17267  function settleAuction(address _nftContractAddress, uint256 _tokenId)\r... */\n    tag_9:\n      callvalue\n      dup1\n      iszero\n      tag_53\n      jumpi\n      0x00\n      dup1\n      revert\n    tag_53:\n      pop\n      tag_54\n      0x04\n      dup1\n      calldatasize\n      sub\n      dup2\n      add\n      swap1\n      tag_55\n      swap2\n      swap1\n      tag_51\n      jump\t// in\n    tag_55:\n      tag_56\n      jump\t// in\n    tag_54:\n      stop\n        /* \"NFT-Contracts/new/finalMarket_single.sol\":1059:1127  mapping(address => mapping(uint256 => uint256)) public nftSaleStatus */\n    tag_10:\n      callvalue\n      dup1\n      iszero\n      tag_57\n      jumpi\n      0x00\n      dup1\n      revert\n    tag_57:\n      pop\n      tag_58\n      0x04\n      dup1\n      calldatasize\n      sub\n      dup2\n      add\n      swap1\n      tag_59\n      swap2\n      swap1\n      tag_51\n      jump\t// in\n    tag_59:\n      tag_60\n      jump\t// in\n    tag_58:\n      mload(0x40)\n      tag_61\n      swap2\n      swap1\n      tag_62\n      jump\t// in\n    tag_61:\n      mload(0x40)\n      dup1\n      swap2\n      sub\n      swap1\n      return\n        /* \"NFT-Contracts/new/finalMarket_single.sol\":8235:9370  function nftFixedSale(\r... */\n    tag_11:\n      callvalue\n      dup1\n      iszero\n      tag_63\n      jumpi\n      0x00\n      dup1\n      revert\n    tag_63:\n      pop\n      tag_64\n      0x04\n      dup1\n      calldatasize\n      sub\n      dup2\n      add\n      swap1\n      tag_65\n      swap2\n      swap1\n      tag_66\n      jump\t// in\n    tag_65:\n      tag_67\n      jump\t// in\n    tag_64:\n      stop\n        /* \"NFT-Contracts/new/finalMarket_single.sol\":18041:18265  function getNftAuctionSaleDetails(\r... */\n    tag_12:\n      callvalue\n      dup1\n      iszero\n      tag_68\n      jumpi\n      0x00\n      dup1\n      revert\n    tag_68:\n      pop\n      tag_69\n      0x04\n      dup1\n      calldatasize\n      sub\n      dup2\n      add\n      swap1\n      tag_70\n      swap2\n      swap1\n      tag_51\n      jump\t// in\n    tag_70:\n      tag_71\n      jump\t// in\n    tag_69:\n      mload(0x40)\n      tag_72\n      swap2\n      swap1\n      tag_73\n      jump\t// in\n    tag_72:\n      mload(0x40)\n      dup1\n      swap2\n      sub\n      swap1\n      return\n        /* \"NFT-Contracts/new/finalMarket_single.sol\":1134:1235  mapping(address => mapping(uint256 => mapping(address => uint256)))\r... */\n    tag_13:\n      callvalue\n      dup1\n      iszero\n      tag_74\n      jumpi\n      0x00\n      dup1\n      revert\n    tag_74:\n      pop\n      tag_75\n      0x04\n      dup1\n      calldatasize\n      sub\n      dup2\n      add\n      swap1\n      tag_76\n      swap2\n      swap1\n      tag_77\n      jump\t// in\n    tag_76:\n      tag_78\n      jump\t// in\n    tag_75:\n      mload(0x40)\n      tag_79\n      swap2\n      swap1\n      tag_62\n      jump\t// in\n    tag_79:\n      mload(0x40)\n      dup1\n      swap2\n      sub\n      swap1\n      return\n        /* \"NFT-Contracts/new/finalMarket_single.sol\":15510:16251  function _cancelAuctionSale(address _nftContractAddress, uint256 _tokenId)\r... */\n    tag_14:\n      callvalue\n      dup1\n      iszero\n      tag_80\n      jumpi\n      0x00\n      dup1\n      revert\n    tag_80:\n      pop\n      tag_81\n      0x04\n      dup1\n      calldatasize\n      sub\n      dup2\n      add\n      swap1\n      tag_82\n      swap2\n      swap1\n      tag_51\n      jump\t// in\n    tag_82:\n      tag_83\n      jump\t// in\n    tag_81:\n      stop\n        /* \"NFT-Contracts/new/finalMarket_single.sol\":18507:18726  function getFixedSale(address _nftContractAddress, uint256 _tokenId)\r... */\n    tag_15:\n      callvalue\n      dup1\n      iszero\n      tag_84\n      jumpi\n      0x00\n      dup1\n      revert\n    tag_84:\n      pop\n      tag_85\n      0x04\n      dup1\n      calldatasize\n      sub\n      dup2\n      add\n      swap1\n      tag_86\n      swap2\n      swap1\n      tag_51\n      jump\t// in\n    tag_86:\n      tag_87\n      jump\t// in\n    tag_85:\n      mload(0x40)\n      tag_88\n      swap2\n      swap1\n      tag_89\n      jump\t// in\n    tag_88:\n      mload(0x40)\n      dup1\n      swap2\n      sub\n      swap1\n      return\n        /* \"NFT-Contracts/new/finalMarket_single.sol\":18392:18499  function getFixedSaleNFT() external view returns (SaleInfo[] memory) {\r... */\n    tag_16:\n      callvalue\n      dup1\n      iszero\n      tag_90\n      jumpi\n      0x00\n      dup1\n      revert\n    tag_90:\n      pop\n      tag_91\n      tag_92\n      jump\t// in\n    tag_91:\n      mload(0x40)\n      tag_93\n      swap2\n      swap1\n      tag_40\n      jump\t// in\n    tag_93:\n      mload(0x40)\n      dup1\n      swap2\n      sub\n      swap1\n      return\n        /* \"NFT-Contracts/new/finalMarket_single.sol\":10558:11697  function buyFromFixedSale(\r... */\n    tag_17:\n      tag_94\n      0x04\n      dup1\n      calldatasize\n      sub\n      dup2\n      add\n      swap1\n      tag_95\n      swap2\n      swap1\n      tag_34\n      jump\t// in\n    tag_95:\n      tag_96\n      jump\t// in\n    tag_94:\n      stop\n        /* \"NFT-Contracts/new/finalMarket_single.sol\":11732:12795  function createNftAuctionSale(\r... */\n    tag_18:\n      callvalue\n      dup1\n      iszero\n      tag_97\n      jumpi\n      0x00\n      dup1\n      revert\n    tag_97:\n      pop\n      tag_98\n      0x04\n      dup1\n      calldatasize\n      sub\n      dup2\n      add\n      swap1\n      tag_99\n      swap2\n      swap1\n      tag_100\n      jump\t// in\n    tag_99:\n      tag_101\n      jump\t// in\n    tag_98:\n      stop\n        /* \"NFT-Contracts/new/finalMarket_single.sol\":9378:9964  function cancelFixedsale(address _nftContractAddress, uint256 _tokenId)\r... */\n    tag_19:\n      callvalue\n      dup1\n      iszero\n      tag_102\n      jumpi\n      0x00\n      dup1\n      revert\n    tag_102:\n      pop\n      tag_103\n      0x04\n      dup1\n      calldatasize\n      sub\n      dup2\n      add\n      swap1\n      tag_104\n      swap2\n      swap1\n      tag_51\n      jump\t// in\n    tag_104:\n      tag_105\n      jump\t// in\n    tag_103:\n      stop\n        /* \"NFT-Contracts/new/finalMarket_single.sol\":18734:18949  function onERC721Received(\r... */\n    tag_29:\n        /* \"NFT-Contracts/new/finalMarket_single.sol\":18874:18880  bytes4 */\n      0x00\n        /* \"NFT-Contracts/new/finalMarket_single.sol\":18900:18941  IERC721Receiver.onERC721Received.selector */\n      shl(0xe0, 0x150b7a02)\n        /* \"NFT-Contracts/new/finalMarket_single.sol\":18893:18941  return IERC721Receiver.onERC721Received.selector */\n      swap1\n      pop\n        /* \"NFT-Contracts/new/finalMarket_single.sol\":18734:18949  function onERC721Received(\r... */\n      swap6\n      swap5\n      pop\n      pop\n      pop\n      pop\n      pop\n      jump\t// out\n        /* \"NFT-Contracts/new/finalMarket_single.sol\":12803:13978  function makeBid(\r... */\n    tag_35:\n        /* \"NFT-Contracts/new/finalMarket_single.sol\":12983:13002  _nftContractAddress */\n      dup3\n        /* \"NFT-Contracts/new/finalMarket_single.sol\":13004:13012  _tokenId */\n      dup3\n        /* \"NFT-Contracts/new/finalMarket_single.sol\":3898:3899  2 */\n      0x02\n        /* \"NFT-Contracts/new/finalMarket_single.sol\":3850:3863  nftSaleStatus */\n      dup1\n        /* \"NFT-Contracts/new/finalMarket_single.sol\":3850:3884  nftSaleStatus[_nftContractAddress] */\n      0x00\n        /* \"NFT-Contracts/new/finalMarket_single.sol\":3864:3883  _nftContractAddress */\n      dup5\n        /* \"NFT-Contracts/new/finalMarket_single.sol\":3850:3884  nftSaleStatus[_nftContractAddress] */\n      0xffffffffffffffffffffffffffffffffffffffff\n      and\n      0xffffffffffffffffffffffffffffffffffffffff\n      and\n      dup2\n      mstore\n      0x20\n      add\n      swap1\n      dup2\n      mstore\n      0x20\n      add\n      0x00\n      keccak256\n        /* \"NFT-Contracts/new/finalMarket_single.sol\":3850:3894  nftSaleStatus[_nftContractAddress][_tokenId] */\n      0x00\n        /* \"NFT-Contracts/new/finalMarket_single.sol\":3885:3893  _tokenId */\n      dup4\n        /* \"NFT-Contracts/new/finalMarket_single.sol\":3850:3894  nftSaleStatus[_nftContractAddress][_tokenId] */\n      dup2\n      mstore\n      0x20\n      add\n      swap1\n      dup2\n      mstore\n      0x20\n      add\n      0x00\n      keccak256\n      sload\n        /* \"NFT-Contracts/new/finalMarket_single.sol\":3850:3899  nftSaleStatus[_nftContractAddress][_tokenId] == 2 */\n      eq\n        /* \"NFT-Contracts/new/finalMarket_single.sol\":3828:3950  require(\r... */\n      tag_108\n      jumpi\n      mload(0x40)\n      0x08c379a000000000000000000000000000000000000000000000000000000000\n      dup2\n      mstore\n      0x04\n      add\n      tag_109\n      swap1\n      tag_110\n      jump\t// in\n    tag_109:\n      mload(0x40)\n      dup1\n      swap2\n      sub\n      swap1\n      revert\n    tag_108:\n        /* \"NFT-Contracts/new/finalMarket_single.sol\":13040:13059  _nftContractAddress */\n      dup5\n        /* \"NFT-Contracts/new/finalMarket_single.sol\":13061:13069  _tokenId */\n      dup5\n        /* \"NFT-Contracts/new/finalMarket_single.sol\":6067:6089  nftContractAuctionSale */\n      0x01\n        /* \"NFT-Contracts/new/finalMarket_single.sol\":6067:6110  nftContractAuctionSale[_nftContractAddress] */\n      0x00\n        /* \"NFT-Contracts/new/finalMarket_single.sol\":6090:6109  _nftContractAddress */\n      dup4\n        /* \"NFT-Contracts/new/finalMarket_single.sol\":6067:6110  nftContractAuctionSale[_nftContractAddress] */\n      0xffffffffffffffffffffffffffffffffffffffff\n      and\n      0xffffffffffffffffffffffffffffffffffffffff\n      and\n      dup2\n      mstore\n      0x20\n      add\n      swap1\n      dup2\n      mstore\n      0x20\n      add\n      0x00\n      keccak256\n        /* \"NFT-Contracts/new/finalMarket_single.sol\":6067:6120  nftContractAuctionSale[_nftContractAddress][_tokenId] */\n      0x00\n        /* \"NFT-Contracts/new/finalMarket_single.sol\":6111:6119  _tokenId */\n      dup3\n        /* \"NFT-Contracts/new/finalMarket_single.sol\":6067:6120  nftContractAuctionSale[_nftContractAddress][_tokenId] */\n      dup2\n      mstore\n      0x20\n      add\n      swap1\n      dup2\n      mstore\n      0x20\n      add\n      0x00\n      keccak256\n        /* \"NFT-Contracts/new/finalMarket_single.sol\":6067:6153  nftContractAuctionSale[_nftContractAddress][_tokenId]\r... */\n      0x01\n      add\n      sload\n        /* \"NFT-Contracts/new/finalMarket_single.sol\":6032:6047  block.timestamp */\n      timestamp\n        /* \"NFT-Contracts/new/finalMarket_single.sol\":6032:6153  block.timestamp <\r... */\n      lt\n        /* \"NFT-Contracts/new/finalMarket_single.sol\":6010:6192  require(\r... */\n      tag_112\n      jumpi\n      mload(0x40)\n      0x08c379a000000000000000000000000000000000000000000000000000000000\n      dup2\n      mstore\n      0x04\n      add\n      tag_113\n      swap1\n      tag_114\n      jump\t// in\n    tag_113:\n      mload(0x40)\n      dup1\n      swap2\n      sub\n      swap1\n      revert\n    tag_112:\n        /* \"NFT-Contracts/new/finalMarket_single.sol\":13101:13110  _bidPrice */\n      dup5\n        /* \"NFT-Contracts/new/finalMarket_single.sol\":8147:8148  0 */\n      0x00\n        /* \"NFT-Contracts/new/finalMarket_single.sol\":8138:8144  _price */\n      dup2\n        /* \"NFT-Contracts/new/finalMarket_single.sol\":8138:8148  _price > 0 */\n      gt\n        /* \"NFT-Contracts/new/finalMarket_single.sol\":8130:8170  require(_price > 0, \"Price cannot be 0\") */\n      tag_116\n      jumpi\n      mload(0x40)\n      0x08c379a000000000000000000000000000000000000000000000000000000000\n      dup2\n      mstore\n      0x04\n      add\n      tag_117\n      swap1\n      tag_118\n      jump\t// in\n    tag_117:\n      mload(0x40)\n      dup1\n      swap2\n      sub\n      swap1\n      revert\n    tag_116:\n        /* \"NFT-Contracts/new/finalMarket_single.sol\":13165:13184  _nftContractAddress */\n      dup8\n        /* \"NFT-Contracts/new/finalMarket_single.sol\":13199:13207  _tokenId */\n      dup8\n        /* \"NFT-Contracts/new/finalMarket_single.sol\":13222:13231  msg.value */\n      callvalue\n        /* \"NFT-Contracts/new/finalMarket_single.sol\":13246:13255  _bidPrice */\n      dup9\n        /* \"NFT-Contracts/new/finalMarket_single.sol\":5388:5389  0 */\n      0x00\n        /* \"NFT-Contracts/new/finalMarket_single.sol\":5304:5390  nftContractAuctionSale[_nftContractAddress][_tokenId].erc20 ==\r... */\n      0xffffffffffffffffffffffffffffffffffffffff\n      and\n        /* \"NFT-Contracts/new/finalMarket_single.sol\":5304:5326  nftContractAuctionSale */\n      0x01\n        /* \"NFT-Contracts/new/finalMarket_single.sol\":5304:5347  nftContractAuctionSale[_nftContractAddress] */\n      0x00\n        /* \"NFT-Contracts/new/finalMarket_single.sol\":5327:5346  _nftContractAddress */\n      dup7\n        /* \"NFT-Contracts/new/finalMarket_single.sol\":5304:5347  nftContractAuctionSale[_nftContractAddress] */\n      0xffffffffffffffffffffffffffffffffffffffff\n      and\n      0xffffffffffffffffffffffffffffffffffffffff\n      and\n      dup2\n      mstore\n      0x20\n      add\n      swap1\n      dup2\n      mstore\n      0x20\n      add\n      0x00\n      keccak256\n        /* \"NFT-Contracts/new/finalMarket_single.sol\":5304:5357  nftContractAuctionSale[_nftContractAddress][_tokenId] */\n      0x00\n        /* \"NFT-Contracts/new/finalMarket_single.sol\":5348:5356  _tokenId */\n      dup6\n        /* \"NFT-Contracts/new/finalMarket_single.sol\":5304:5357  nftContractAuctionSale[_nftContractAddress][_tokenId] */\n      dup2\n      mstore\n      0x20\n      add\n      swap1\n      dup2\n      mstore\n      0x20\n      add\n      0x00\n      keccak256\n        /* \"NFT-Contracts/new/finalMarket_single.sol\":5304:5363  nftContractAuctionSale[_nftContractAddress][_tokenId].erc20 */\n      0x06\n      add\n      0x00\n      swap1\n      sload\n      swap1\n      0x0100\n      exp\n      swap1\n      div\n      0xffffffffffffffffffffffffffffffffffffffff\n      and\n        /* \"NFT-Contracts/new/finalMarket_single.sol\":5304:5390  nftContractAuctionSale[_nftContractAddress][_tokenId].erc20 ==\r... */\n      0xffffffffffffffffffffffffffffffffffffffff\n      and\n      eq\n        /* \"NFT-Contracts/new/finalMarket_single.sol\":5286:5897  if (\r... */\n      iszero\n      tag_120\n      jumpi\n        /* \"NFT-Contracts/new/finalMarket_single.sol\":5476:5498  nftContractAuctionSale */\n      0x01\n        /* \"NFT-Contracts/new/finalMarket_single.sol\":5476:5519  nftContractAuctionSale[_nftContractAddress] */\n      0x00\n        /* \"NFT-Contracts/new/finalMarket_single.sol\":5499:5518  _nftContractAddress */\n      dup6\n        /* \"NFT-Contracts/new/finalMarket_single.sol\":5476:5519  nftContractAuctionSale[_nftContractAddress] */\n      0xffffffffffffffffffffffffffffffffffffffff\n      and\n      0xffffffffffffffffffffffffffffffffffffffff\n      and\n      dup2\n      mstore\n      0x20\n      add\n      swap1\n      dup2\n      mstore\n      0x20\n      add\n      0x00\n      keccak256\n        /* \"NFT-Contracts/new/finalMarket_single.sol\":5476:5529  nftContractAuctionSale[_nftContractAddress][_tokenId] */\n      0x00\n        /* \"NFT-Contracts/new/finalMarket_single.sol\":5520:5528  _tokenId */\n      dup5\n        /* \"NFT-Contracts/new/finalMarket_single.sol\":5476:5529  nftContractAuctionSale[_nftContractAddress][_tokenId] */\n      dup2\n      mstore\n      0x20\n      add\n      swap1\n      dup2\n      mstore\n      0x20\n      add\n      0x00\n      keccak256\n        /* \"NFT-Contracts/new/finalMarket_single.sol\":5476:5569  nftContractAuctionSale[_nftContractAddress][_tokenId]\r... */\n      0x03\n      add\n      sload\n        /* \"NFT-Contracts/new/finalMarket_single.sol\":5443:5452  _bidPrice */\n      dup3\n        /* \"NFT-Contracts/new/finalMarket_single.sol\":5443:5569  _bidPrice >\r... */\n      gt\n        /* \"NFT-Contracts/new/finalMarket_single.sol\":5417:5634  require(\r... */\n      tag_121\n      jumpi\n      mload(0x40)\n      0x08c379a000000000000000000000000000000000000000000000000000000000\n      dup2\n      mstore\n      0x04\n      add\n      tag_122\n      swap1\n      tag_123\n      jump\t// in\n    tag_122:\n      mload(0x40)\n      dup1\n      swap2\n      sub\n      swap1\n      revert\n    tag_121:\n        /* \"NFT-Contracts/new/finalMarket_single.sol\":5286:5897  if (\r... */\n      jump(tag_124)\n    tag_120:\n        /* \"NFT-Contracts/new/finalMarket_single.sol\":5727:5749  nftContractAuctionSale */\n      0x01\n        /* \"NFT-Contracts/new/finalMarket_single.sol\":5727:5770  nftContractAuctionSale[_nftContractAddress] */\n      0x00\n        /* \"NFT-Contracts/new/finalMarket_single.sol\":5750:5769  _nftContractAddress */\n      dup6\n        /* \"NFT-Contracts/new/finalMarket_single.sol\":5727:5770  nftContractAuctionSale[_nftContractAddress] */\n      0xffffffffffffffffffffffffffffffffffffffff\n      and\n      0xffffffffffffffffffffffffffffffffffffffff\n      and\n      dup2\n      mstore\n      0x20\n      add\n      swap1\n      dup2\n      mstore\n      0x20\n      add\n      0x00\n      keccak256\n        /* \"NFT-Contracts/new/finalMarket_single.sol\":5727:5780  nftContractAuctionSale[_nftContractAddress][_tokenId] */\n      0x00\n        /* \"NFT-Contracts/new/finalMarket_single.sol\":5771:5779  _tokenId */\n      dup5\n        /* \"NFT-Contracts/new/finalMarket_single.sol\":5727:5780  nftContractAuctionSale[_nftContractAddress][_tokenId] */\n      dup2\n      mstore\n      0x20\n      add\n      swap1\n      dup2\n      mstore\n      0x20\n      add\n      0x00\n      keccak256\n        /* \"NFT-Contracts/new/finalMarket_single.sol\":5727:5820  nftContractAuctionSale[_nftContractAddress][_tokenId]\r... */\n      0x03\n      add\n      sload\n        /* \"NFT-Contracts/new/finalMarket_single.sol\":5693:5703  _bidPrice1 */\n      dup2\n        /* \"NFT-Contracts/new/finalMarket_single.sol\":5693:5820  _bidPrice1 >\r... */\n      gt\n        /* \"NFT-Contracts/new/finalMarket_single.sol\":5667:5885  require(\r... */\n      tag_125\n      jumpi\n      mload(0x40)\n      0x08c379a000000000000000000000000000000000000000000000000000000000\n      dup2\n      mstore\n      0x04\n      add\n      tag_126\n      swap1\n      tag_123\n      jump\t// in\n    tag_126:\n      mload(0x40)\n      dup1\n      swap2\n      sub\n      swap1\n      revert\n    tag_125:\n        /* \"NFT-Contracts/new/finalMarket_single.sol\":5286:5897  if (\r... */\n    tag_124:\n        /* \"NFT-Contracts/new/finalMarket_single.sol\":13385:13386  0 */\n      0x00\n        /* \"NFT-Contracts/new/finalMarket_single.sol\":13301:13387  nftContractAuctionSale[_nftContractAddress][_tokenId].erc20 !=\r... */\n      0xffffffffffffffffffffffffffffffffffffffff\n      and\n        /* \"NFT-Contracts/new/finalMarket_single.sol\":13301:13323  nftContractAuctionSale */\n      0x01\n        /* \"NFT-Contracts/new/finalMarket_single.sol\":13301:13344  nftContractAuctionSale[_nftContractAddress] */\n      0x00\n        /* \"NFT-Contracts/new/finalMarket_single.sol\":13324:13343  _nftContractAddress */\n      dup15\n        /* \"NFT-Contracts/new/finalMarket_single.sol\":13301:13344  nftContractAuctionSale[_nftContractAddress] */\n      0xffffffffffffffffffffffffffffffffffffffff\n      and\n      0xffffffffffffffffffffffffffffffffffffffff\n      and\n      dup2\n      mstore\n      0x20\n      add\n      swap1\n      dup2\n      mstore\n      0x20\n      add\n      0x00\n      keccak256\n        /* \"NFT-Contracts/new/finalMarket_single.sol\":13301:13354  nftContractAuctionSale[_nftContractAddress][_tokenId] */\n      0x00\n        /* \"NFT-Contracts/new/finalMarket_single.sol\":13345:13353  _tokenId */\n      dup14\n        /* \"NFT-Contracts/new/finalMarket_single.sol\":13301:13354  nftContractAuctionSale[_nftContractAddress][_tokenId] */\n      dup2\n      mstore\n      0x20\n      add\n      swap1\n      dup2\n      mstore\n      0x20\n      add\n      0x00\n      keccak256\n        /* \"NFT-Contracts/new/finalMarket_single.sol\":13301:13360  nftContractAuctionSale[_nftContractAddress][_tokenId].erc20 */\n      0x06\n      add\n      0x00\n      swap1\n      sload\n      swap1\n      0x0100\n      exp\n      swap1\n      div\n      0xffffffffffffffffffffffffffffffffffffffff\n      and\n        /* \"NFT-Contracts/new/finalMarket_single.sol\":13301:13387  nftContractAuctionSale[_nftContractAddress][_tokenId].erc20 !=\r... */\n      0xffffffffffffffffffffffffffffffffffffffff\n      and\n      eq\n        /* \"NFT-Contracts/new/finalMarket_single.sol\":13283:13565  if (\r... */\n      tag_128\n      jumpi\n        /* \"NFT-Contracts/new/finalMarket_single.sol\":13414:13553  _bidAmountTransfer(\r... */\n      tag_129\n        /* \"NFT-Contracts/new/finalMarket_single.sol\":13451:13460  _bidPrice */\n      dup11\n        /* \"NFT-Contracts/new/finalMarket_single.sol\":13479:13501  nftContractAuctionSale */\n      0x01\n        /* \"NFT-Contracts/new/finalMarket_single.sol\":13479:13522  nftContractAuctionSale[_nftContractAddress] */\n      0x00\n        /* \"NFT-Contracts/new/finalMarket_single.sol\":13502:13521  _nftContractAddress */\n      dup16\n        /* \"NFT-Contracts/new/finalMarket_single.sol\":13479:13522  nftContractAuctionSale[_nftContractAddress] */\n      0xffffffffffffffffffffffffffffffffffffffff\n      and\n      0xffffffffffffffffffffffffffffffffffffffff\n      and\n      dup2\n      mstore\n      0x20\n      add\n      swap1\n      dup2\n      mstore\n      0x20\n      add\n      0x00\n      keccak256\n        /* \"NFT-Contracts/new/finalMarket_single.sol\":13479:13532  nftContractAuctionSale[_nftContractAddress][_tokenId] */\n      0x00\n        /* \"NFT-Contracts/new/finalMarket_single.sol\":13523:13531  _tokenId */\n      dup15\n        /* \"NFT-Contracts/new/finalMarket_single.sol\":13479:13532  nftContractAuctionSale[_nftContractAddress][_tokenId] */\n      dup2\n      mstore\n      0x20\n      add\n      swap1\n      dup2\n      mstore\n      0x20\n      add\n      0x00\n      keccak256\n        /* \"NFT-Contracts/new/finalMarket_single.sol\":13479:13538  nftContractAuctionSale[_nftContractAddress][_tokenId].erc20 */\n      0x06\n      add\n      0x00\n      swap1\n      sload\n      swap1\n      0x0100\n      exp\n      swap1\n      div\n      0xffffffffffffffffffffffffffffffffffffffff\n      and\n        /* \"NFT-Contracts/new/finalMarket_single.sol\":13414:13432  _bidAmountTransfer */\n      tag_130\n        /* \"NFT-Contracts/new/finalMarket_single.sol\":13414:13553  _bidAmountTransfer(\r... */\n      jump\t// in\n    tag_129:\n        /* \"NFT-Contracts/new/finalMarket_single.sol\":13283:13565  if (\r... */\n    tag_128:\n        /* \"NFT-Contracts/new/finalMarket_single.sol\":13661:13670  _bidPrice */\n      dup10\n        /* \"NFT-Contracts/new/finalMarket_single.sol\":13577:13599  nftContractAuctionSale */\n      0x01\n        /* \"NFT-Contracts/new/finalMarket_single.sol\":13577:13620  nftContractAuctionSale[_nftContractAddress] */\n      0x00\n        /* \"NFT-Contracts/new/finalMarket_single.sol\":13600:13619  _nftContractAddress */\n      dup15\n        /* \"NFT-Contracts/new/finalMarket_single.sol\":13577:13620  nftContractAuctionSale[_nftContractAddress] */\n      0xffffffffffffffffffffffffffffffffffffffff\n      and\n      0xffffffffffffffffffffffffffffffffffffffff\n      and\n      dup2\n      mstore\n      0x20\n      add\n      swap1\n      dup2\n      mstore\n      0x20\n      add\n      0x00\n      keccak256\n        /* \"NFT-Contracts/new/finalMarket_single.sol\":13577:13630  nftContractAuctionSale[_nftContractAddress][_tokenId] */\n      0x00\n        /* \"NFT-Contracts/new/finalMarket_single.sol\":13621:13629  _tokenId */\n      dup14\n        /* \"NFT-Contracts/new/finalMarket_single.sol\":13577:13630  nftContractAuctionSale[_nftContractAddress][_tokenId] */\n      dup2\n      mstore\n      0x20\n      add\n      swap1\n      dup2\n      mstore\n      0x20\n      add\n      0x00\n      keccak256\n        /* \"NFT-Contracts/new/finalMarket_single.sol\":13577:13658  nftContractAuctionSale[_nftContractAddress][_tokenId]\r... */\n      0x03\n      add\n        /* \"NFT-Contracts/new/finalMarket_single.sol\":13577:13670  nftContractAuctionSale[_nftContractAddress][_tokenId]\r... */\n      dup2\n      swap1\n      sstore\n      pop\n        /* \"NFT-Contracts/new/finalMarket_single.sol\":13768:13778  msg.sender */\n      caller\n        /* \"NFT-Contracts/new/finalMarket_single.sol\":13681:13703  nftContractAuctionSale */\n      0x01\n        /* \"NFT-Contracts/new/finalMarket_single.sol\":13681:13724  nftContractAuctionSale[_nftContractAddress] */\n      0x00\n        /* \"NFT-Contracts/new/finalMarket_single.sol\":13704:13723  _nftContractAddress */\n      dup15\n        /* \"NFT-Contracts/new/finalMarket_single.sol\":13681:13724  nftContractAuctionSale[_nftContractAddress] */\n      0xffffffffffffffffffffffffffffffffffffffff\n      and\n      0xffffffffffffffffffffffffffffffffffffffff\n      and\n      dup2\n      mstore\n      0x20\n      add\n      swap1\n      dup2\n      mstore\n      0x20\n      add\n      0x00\n      keccak256\n        /* \"NFT-Contracts/new/finalMarket_single.sol\":13681:13734  nftContractAuctionSale[_nftContractAddress][_tokenId] */\n      0x00\n        /* \"NFT-Contracts/new/finalMarket_single.sol\":13725:13733  _tokenId */\n      dup14\n        /* \"NFT-Contracts/new/finalMarket_single.sol\":13681:13734  nftContractAuctionSale[_nftContractAddress][_tokenId] */\n      dup2\n      mstore\n      0x20\n      add\n      swap1\n      dup2\n      mstore\n      0x20\n      add\n      0x00\n      keccak256\n        /* \"NFT-Contracts/new/finalMarket_single.sol\":13681:13765  nftContractAuctionSale[_nftContractAddress][_tokenId]\r... */\n      0x04\n      add\n      0x00\n        /* \"NFT-Contracts/new/finalMarket_single.sol\":13681:13778  nftContractAuctionSale[_nftContractAddress][_tokenId]\r... */\n      0x0100\n      exp\n      dup2\n      sload\n      dup2\n      0xffffffffffffffffffffffffffffffffffffffff\n      mul\n      not\n      and\n      swap1\n      dup4\n      0xffffffffffffffffffffffffffffffffffffffff\n      and\n      mul\n      or\n      swap1\n      sstore\n      pop\n        /* \"NFT-Contracts/new/finalMarket_single.sol\":13878:13887  _bidPrice */\n      dup10\n        /* \"NFT-Contracts/new/finalMarket_single.sol\":13791:13808  userBidPriceOnNFT */\n      0x03\n        /* \"NFT-Contracts/new/finalMarket_single.sol\":13791:13829  userBidPriceOnNFT[_nftContractAddress] */\n      0x00\n        /* \"NFT-Contracts/new/finalMarket_single.sol\":13809:13828  _nftContractAddress */\n      dup15\n        /* \"NFT-Contracts/new/finalMarket_single.sol\":13791:13829  userBidPriceOnNFT[_nftContractAddress] */\n      0xffffffffffffffffffffffffffffffffffffffff\n      and\n      0xffffffffffffffffffffffffffffffffffffffff\n      and\n      dup2\n      mstore\n      0x20\n      add\n      swap1\n      dup2\n      mstore\n      0x20\n      add\n      0x00\n      keccak256\n        /* \"NFT-Contracts/new/finalMarket_single.sol\":13791:13839  userBidPriceOnNFT[_nftContractAddress][_tokenId] */\n      0x00\n        /* \"NFT-Contracts/new/finalMarket_single.sol\":13830:13838  _tokenId */\n      dup14\n        /* \"NFT-Contracts/new/finalMarket_single.sol\":13791:13839  userBidPriceOnNFT[_nftContractAddress][_tokenId] */\n      dup2\n      mstore\n      0x20\n      add\n      swap1\n      dup2\n      mstore\n      0x20\n      add\n      0x00\n      keccak256\n        /* \"NFT-Contracts/new/finalMarket_single.sol\":13791:13875  userBidPriceOnNFT[_nftContractAddress][_tokenId][\r... */\n      0x00\n        /* \"NFT-Contracts/new/finalMarket_single.sol\":13854:13864  msg.sender */\n      caller\n        /* \"NFT-Contracts/new/finalMarket_single.sol\":13791:13875  userBidPriceOnNFT[_nftContractAddress][_tokenId][\r... */\n      0xffffffffffffffffffffffffffffffffffffffff\n      and\n      0xffffffffffffffffffffffffffffffffffffffff\n      and\n      dup2\n      mstore\n      0x20\n      add\n      swap1\n      dup2\n      mstore\n      0x20\n      add\n      0x00\n      keccak256\n        /* \"NFT-Contracts/new/finalMarket_single.sol\":13791:13887  userBidPriceOnNFT[_nftContractAddress][_tokenId][\r... */\n      dup2\n      swap1\n      sstore\n      pop\n        /* \"NFT-Contracts/new/finalMarket_single.sol\":13905:13970  NftBidPrice(_nftContractAddress, _tokenId, _bidPrice, msg.sender) */\n      0xd56cb6210c78740462007b728932c802bc41b205ed5c8a98ab95421eaf054b22\n        /* \"NFT-Contracts/new/finalMarket_single.sol\":13917:13936  _nftContractAddress */\n      dup13\n        /* \"NFT-Contracts/new/finalMarket_single.sol\":13938:13946  _tokenId */\n      dup13\n        /* \"NFT-Contracts/new/finalMarket_single.sol\":13948:13957  _bidPrice */\n      dup13\n        /* \"NFT-Contracts/new/finalMarket_single.sol\":13959:13969  msg.sender */\n      caller\n        /* \"NFT-Contracts/new/finalMarket_single.sol\":13905:13970  NftBidPrice(_nftContractAddress, _tokenId, _bidPrice, msg.sender) */\n      mload(0x40)\n      tag_131\n      swap5\n      swap4\n      swap3\n      swap2\n      swap1\n      tag_132\n      jump\t// in\n    tag_131:\n      mload(0x40)\n      dup1\n      swap2\n      sub\n      swap1\n      log1\n        /* \"NFT-Contracts/new/finalMarket_single.sol\":8181:8182  _ */\n      pop\n      pop\n      pop\n      pop\n        /* \"NFT-Contracts/new/finalMarket_single.sol\":6203:6204  _ */\n      pop\n        /* \"NFT-Contracts/new/finalMarket_single.sol\":3961:3962  _ */\n      pop\n      pop\n        /* \"NFT-Contracts/new/finalMarket_single.sol\":12803:13978  function makeBid(\r... */\n      pop\n      pop\n      pop\n      pop\n      pop\n      jump\t// out\n        /* \"NFT-Contracts/new/finalMarket_single.sol\":18273:18384  function getAuctionSaleNFT() external view returns (SaleInfo[] memory) {\r... */\n    tag_38:\n        /* \"NFT-Contracts/new/finalMarket_single.sol\":18325:18342  SaleInfo[] memory */\n      0x60\n        /* \"NFT-Contracts/new/finalMarket_single.sol\":18362:18376  auctionSaleNFT */\n      0x07\n        /* \"NFT-Contracts/new/finalMarket_single.sol\":18355:18376  return auctionSaleNFT */\n      dup1\n      sload\n      dup1\n      0x20\n      mul\n      0x20\n      add\n      mload(0x40)\n      swap1\n      dup2\n      add\n      0x40\n      mstore\n      dup1\n      swap3\n      swap2\n      swap1\n      dup2\n      dup2\n      mstore\n      0x20\n      add\n      0x00\n      swap1\n    tag_134:\n      dup3\n      dup3\n      lt\n      iszero\n      tag_135\n      jumpi\n      dup4\n      dup3\n      swap1\n      0x00\n      mstore\n      keccak256(0x00, 0x20)\n      swap1\n      0x02\n      mul\n      add\n      mload(0x40)\n      dup1\n      0x40\n      add\n      0x40\n      mstore\n      swap1\n      dup2\n      0x00\n      dup3\n      add\n      0x00\n      swap1\n      sload\n      swap1\n      0x0100\n      exp\n      swap1\n      div\n      0xffffffffffffffffffffffffffffffffffffffff\n      and\n      0xffffffffffffffffffffffffffffffffffffffff\n      and\n      0xffffffffffffffffffffffffffffffffffffffff\n      and\n      dup2\n      mstore\n      0x20\n      add\n      0x01\n      dup3\n      add\n      sload\n      dup2\n      mstore\n      pop\n      pop\n      dup2\n      mstore\n      0x20\n      add\n      swap1\n      0x01\n      add\n      swap1\n      jump(tag_134)\n    tag_135:\n      pop\n      pop\n      pop\n      pop\n      swap1\n      pop\n        /* \"NFT-Contracts/new/finalMarket_single.sol\":18273:18384  function getAuctionSaleNFT() external view returns (SaleInfo[] memory) {\r... */\n      swap1\n      jump\t// out\n        /* \"NFT-Contracts/new/finalMarket_single.sol\":13986:15502  function updateTheBidPrice(\r... */\n    tag_43:\n        /* \"NFT-Contracts/new/finalMarket_single.sol\":14182:14201  _nftContractAddress */\n      dup3\n        /* \"NFT-Contracts/new/finalMarket_single.sol\":14203:14211  _tokenId */\n      dup3\n        /* \"NFT-Contracts/new/finalMarket_single.sol\":3898:3899  2 */\n      0x02\n        /* \"NFT-Contracts/new/finalMarket_single.sol\":3850:3863  nftSaleStatus */\n      dup1\n        /* \"NFT-Contracts/new/finalMarket_single.sol\":3850:3884  nftSaleStatus[_nftContractAddress] */\n      0x00\n        /* \"NFT-Contracts/new/finalMarket_single.sol\":3864:3883  _nftContractAddress */\n      dup5\n        /* \"NFT-Contracts/new/finalMarket_single.sol\":3850:3884  nftSaleStatus[_nftContractAddress] */\n      0xffffffffffffffffffffffffffffffffffffffff\n      and\n      0xffffffffffffffffffffffffffffffffffffffff\n      and\n      dup2\n      mstore\n      0x20\n      add\n      swap1\n      dup2\n      mstore\n      0x20\n      add\n      0x00\n      keccak256\n        /* \"NFT-Contracts/new/finalMarket_single.sol\":3850:3894  nftSaleStatus[_nftContractAddress][_tokenId] */\n      0x00\n        /* \"NFT-Contracts/new/finalMarket_single.sol\":3885:3893  _tokenId */\n      dup4\n        /* \"NFT-Contracts/new/finalMarket_single.sol\":3850:3894  nftSaleStatus[_nftContractAddress][_tokenId] */\n      dup2\n      mstore\n      0x20\n      add\n      swap1\n      dup2\n      mstore\n      0x20\n      add\n      0x00\n      keccak256\n      sload\n        /* \"NFT-Contracts/new/finalMarket_single.sol\":3850:3899  nftSaleStatus[_nftContractAddress][_tokenId] == 2 */\n      eq\n        /* \"NFT-Contracts/new/finalMarket_single.sol\":3828:3950  require(\r... */\n      tag_138\n      jumpi\n      mload(0x40)\n      0x08c379a000000000000000000000000000000000000000000000000000000000\n      dup2\n      mstore\n      0x04\n      add\n      tag_139\n      swap1\n      tag_110\n      jump\t// in\n    tag_139:\n      mload(0x40)\n      dup1\n      swap2\n      sub\n      swap1\n      revert\n    tag_138:\n        /* \"NFT-Contracts/new/finalMarket_single.sol\":14239:14258  _nftContractAddress */\n      dup5\n        /* \"NFT-Contracts/new/finalMarket_single.sol\":14260:14268  _tokenId */\n      dup5\n        /* \"NFT-Contracts/new/finalMarket_single.sol\":6067:6089  nftContractAuctionSale */\n      0x01\n        /* \"NFT-Contracts/new/finalMarket_single.sol\":6067:6110  nftContractAuctionSale[_nftContractAddress] */\n      0x00\n        /* \"NFT-Contracts/new/finalMarket_single.sol\":6090:6109  _nftContractAddress */\n      dup4\n        /* \"NFT-Contracts/new/finalMarket_single.sol\":6067:6110  nftContractAuctionSale[_nftContractAddress] */\n      0xffffffffffffffffffffffffffffffffffffffff\n      and\n      0xffffffffffffffffffffffffffffffffffffffff\n      and\n      dup2\n      mstore\n      0x20\n      add\n      swap1\n      dup2\n      mstore\n      0x20\n      add\n      0x00\n      keccak256\n        /* \"NFT-Contracts/new/finalMarket_single.sol\":6067:6120  nftContractAuctionSale[_nftContractAddress][_tokenId] */\n      0x00\n        /* \"NFT-Contracts/new/finalMarket_single.sol\":6111:6119  _tokenId */\n      dup3\n        /* \"NFT-Contracts/new/finalMarket_single.sol\":6067:6120  nftContractAuctionSale[_nftContractAddress][_tokenId] */\n      dup2\n      mstore\n      0x20\n      add\n      swap1\n      dup2\n      mstore\n      0x20\n      add\n      0x00\n      keccak256\n        /* \"NFT-Contracts/new/finalMarket_single.sol\":6067:6153  nftContractAuctionSale[_nftContractAddress][_tokenId]\r... */\n      0x01\n      add\n      sload\n        /* \"NFT-Contracts/new/finalMarket_single.sol\":6032:6047  block.timestamp */\n      timestamp\n        /* \"NFT-Contracts/new/finalMarket_single.sol\":6032:6153  block.timestamp <\r... */\n      lt\n        /* \"NFT-Contracts/new/finalMarket_single.sol\":6010:6192  require(\r... */\n      tag_141\n      jumpi\n      mload(0x40)\n      0x08c379a000000000000000000000000000000000000000000000000000000000\n      dup2\n      mstore\n      0x04\n      add\n      tag_142\n      swap1\n      tag_114\n      jump\t// in\n    tag_142:\n      mload(0x40)\n      dup1\n      swap2\n      sub\n      swap1\n      revert\n    tag_141:\n        /* \"NFT-Contracts/new/finalMarket_single.sol\":14300:14309  msg.value */\n      callvalue\n        /* \"NFT-Contracts/new/finalMarket_single.sol\":8147:8148  0 */\n      0x00\n        /* \"NFT-Contracts/new/finalMarket_single.sol\":8138:8144  _price */\n      dup2\n        /* \"NFT-Contracts/new/finalMarket_single.sol\":8138:8148  _price > 0 */\n      gt\n        /* \"NFT-Contracts/new/finalMarket_single.sol\":8130:8170  require(_price > 0, \"Price cannot be 0\") */\n      tag_144\n      jumpi\n      mload(0x40)\n      0x08c379a000000000000000000000000000000000000000000000000000000000\n      dup2\n      mstore\n      0x04\n      add\n      tag_145\n      swap1\n      tag_118\n      jump\t// in\n    tag_145:\n      mload(0x40)\n      dup1\n      swap2\n      sub\n      swap1\n      revert\n    tag_144:\n        /* \"NFT-Contracts/new/finalMarket_single.sol\":14365:14384  _nftContractAddress */\n      dup8\n        /* \"NFT-Contracts/new/finalMarket_single.sol\":14399:14407  _tokenId */\n      dup8\n        /* \"NFT-Contracts/new/finalMarket_single.sol\":14422:14431  msg.value */\n      callvalue\n        /* \"NFT-Contracts/new/finalMarket_single.sol\":14446:14461  _updateBidPrice */\n      dup9\n        /* \"NFT-Contracts/new/finalMarket_single.sol\":6711:6733  uint256 _finalBidPrice */\n      0x00\n        /* \"NFT-Contracts/new/finalMarket_single.sol\":6846:6847  0 */\n      dup1\n        /* \"NFT-Contracts/new/finalMarket_single.sol\":6762:6848  nftContractAuctionSale[_nftContractAddress][_tokenId].erc20 ==\r... */\n      0xffffffffffffffffffffffffffffffffffffffff\n      and\n        /* \"NFT-Contracts/new/finalMarket_single.sol\":6762:6784  nftContractAuctionSale */\n      0x01\n        /* \"NFT-Contracts/new/finalMarket_single.sol\":6762:6805  nftContractAuctionSale[_nftContractAddress] */\n      0x00\n        /* \"NFT-Contracts/new/finalMarket_single.sol\":6785:6804  _nftContractAddress */\n      dup8\n        /* \"NFT-Contracts/new/finalMarket_single.sol\":6762:6805  nftContractAuctionSale[_nftContractAddress] */\n      0xffffffffffffffffffffffffffffffffffffffff\n      and\n      0xffffffffffffffffffffffffffffffffffffffff\n      and\n      dup2\n      mstore\n      0x20\n      add\n      swap1\n      dup2\n      mstore\n      0x20\n      add\n      0x00\n      keccak256\n        /* \"NFT-Contracts/new/finalMarket_single.sol\":6762:6815  nftContractAuctionSale[_nftContractAddress][_tokenId] */\n      0x00\n        /* \"NFT-Contracts/new/finalMarket_single.sol\":6806:6814  _tokenId */\n      dup7\n        /* \"NFT-Contracts/new/finalMarket_single.sol\":6762:6815  nftContractAuctionSale[_nftContractAddress][_tokenId] */\n      dup2\n      mstore\n      0x20\n      add\n      swap1\n      dup2\n      mstore\n      0x20\n      add\n      0x00\n      keccak256\n        /* \"NFT-Contracts/new/finalMarket_single.sol\":6762:6821  nftContractAuctionSale[_nftContractAddress][_tokenId].erc20 */\n      0x06\n      add\n      0x00\n      swap1\n      sload\n      swap1\n      0x0100\n      exp\n      swap1\n      div\n      0xffffffffffffffffffffffffffffffffffffffff\n      and\n        /* \"NFT-Contracts/new/finalMarket_single.sol\":6762:6848  nftContractAuctionSale[_nftContractAddress][_tokenId].erc20 ==\r... */\n      0xffffffffffffffffffffffffffffffffffffffff\n      and\n      eq\n        /* \"NFT-Contracts/new/finalMarket_single.sol\":6744:7181  if (\r... */\n      iszero\n      tag_147\n      jumpi\n        /* \"NFT-Contracts/new/finalMarket_single.sol\":6892:7005  userBidPriceOnNFT[_nftContractAddress][_tokenId][\r... */\n      tag_148\n        /* \"NFT-Contracts/new/finalMarket_single.sol\":6989:7004  _updateBidPrice */\n      dup4\n        /* \"NFT-Contracts/new/finalMarket_single.sol\":6892:6909  userBidPriceOnNFT */\n      0x03\n        /* \"NFT-Contracts/new/finalMarket_single.sol\":6892:6930  userBidPriceOnNFT[_nftContractAddress] */\n      0x00\n        /* \"NFT-Contracts/new/finalMarket_single.sol\":6910:6929  _nftContractAddress */\n      dup9\n        /* \"NFT-Contracts/new/finalMarket_single.sol\":6892:6930  userBidPriceOnNFT[_nftContractAddress] */\n      0xffffffffffffffffffffffffffffffffffffffff\n      and\n      0xffffffffffffffffffffffffffffffffffffffff\n      and\n      dup2\n      mstore\n      0x20\n      add\n      swap1\n      dup2\n      mstore\n      0x20\n      add\n      0x00\n      keccak256\n        /* \"NFT-Contracts/new/finalMarket_single.sol\":6892:6940  userBidPriceOnNFT[_nftContractAddress][_tokenId] */\n      0x00\n        /* \"NFT-Contracts/new/finalMarket_single.sol\":6931:6939  _tokenId */\n      dup8\n        /* \"NFT-Contracts/new/finalMarket_single.sol\":6892:6940  userBidPriceOnNFT[_nftContractAddress][_tokenId] */\n      dup2\n      mstore\n      0x20\n      add\n      swap1\n      dup2\n      mstore\n      0x20\n      add\n      0x00\n      keccak256\n        /* \"NFT-Contracts/new/finalMarket_single.sol\":6892:6984  userBidPriceOnNFT[_nftContractAddress][_tokenId][\r... */\n      0x00\n        /* \"NFT-Contracts/new/finalMarket_single.sol\":6959:6969  msg.sender */\n      caller\n        /* \"NFT-Contracts/new/finalMarket_single.sol\":6892:6984  userBidPriceOnNFT[_nftContractAddress][_tokenId][\r... */\n      0xffffffffffffffffffffffffffffffffffffffff\n      and\n      0xffffffffffffffffffffffffffffffffffffffff\n      and\n      dup2\n      mstore\n      0x20\n      add\n      swap1\n      dup2\n      mstore\n      0x20\n      add\n      0x00\n      keccak256\n      sload\n        /* \"NFT-Contracts/new/finalMarket_single.sol\":6892:6988  userBidPriceOnNFT[_nftContractAddress][_tokenId][\r... */\n      tag_149\n      swap1\n        /* \"NFT-Contracts/new/finalMarket_single.sol\":6892:7005  userBidPriceOnNFT[_nftContractAddress][_tokenId][\r... */\n      swap2\n      swap1\n      0xffffffff\n      and\n      jump\t// in\n    tag_148:\n        /* \"NFT-Contracts/new/finalMarket_single.sol\":6875:7005  _finalBidPrice = userBidPriceOnNFT[_nftContractAddress][_tokenId][\r... */\n      swap1\n      pop\n        /* \"NFT-Contracts/new/finalMarket_single.sol\":6744:7181  if (\r... */\n      jump(tag_150)\n    tag_147:\n        /* \"NFT-Contracts/new/finalMarket_single.sol\":7055:7169  userBidPriceOnNFT[_nftContractAddress][_tokenId][\r... */\n      tag_151\n        /* \"NFT-Contracts/new/finalMarket_single.sol\":7152:7168  _updateBidPrice1 */\n      dup3\n        /* \"NFT-Contracts/new/finalMarket_single.sol\":7055:7072  userBidPriceOnNFT */\n      0x03\n        /* \"NFT-Contracts/new/finalMarket_single.sol\":7055:7093  userBidPriceOnNFT[_nftContractAddress] */\n      0x00\n        /* \"NFT-Contracts/new/finalMarket_single.sol\":7073:7092  _nftContractAddress */\n      dup9\n        /* \"NFT-Contracts/new/finalMarket_single.sol\":7055:7093  userBidPriceOnNFT[_nftContractAddress] */\n      0xffffffffffffffffffffffffffffffffffffffff\n      and\n      0xffffffffffffffffffffffffffffffffffffffff\n      and\n      dup2\n      mstore\n      0x20\n      add\n      swap1\n      dup2\n      mstore\n      0x20\n      add\n      0x00\n      keccak256\n        /* \"NFT-Contracts/new/finalMarket_single.sol\":7055:7103  userBidPriceOnNFT[_nftContractAddress][_tokenId] */\n      0x00\n        /* \"NFT-Contracts/new/finalMarket_single.sol\":7094:7102  _tokenId */\n      dup8\n        /* \"NFT-Contracts/new/finalMarket_single.sol\":7055:7103  userBidPriceOnNFT[_nftContractAddress][_tokenId] */\n      dup2\n      mstore\n      0x20\n      add\n      swap1\n      dup2\n      mstore\n      0x20\n      add\n      0x00\n      keccak256\n        /* \"NFT-Contracts/new/finalMarket_single.sol\":7055:7147  userBidPriceOnNFT[_nftContractAddress][_tokenId][\r... */\n      0x00\n        /* \"NFT-Contracts/new/finalMarket_single.sol\":7122:7132  msg.sender */\n      caller\n        /* \"NFT-Contracts/new/finalMarket_single.sol\":7055:7147  userBidPriceOnNFT[_nftContractAddress][_tokenId][\r... */\n      0xffffffffffffffffffffffffffffffffffffffff\n      and\n      0xffffffffffffffffffffffffffffffffffffffff\n      and\n      dup2\n      mstore\n      0x20\n      add\n      swap1\n      dup2\n      mstore\n      0x20\n      add\n      0x00\n      keccak256\n      sload\n        /* \"NFT-Contracts/new/finalMarket_single.sol\":7055:7151  userBidPriceOnNFT[_nftContractAddress][_tokenId][\r... */\n      tag_149\n      swap1\n        /* \"NFT-Contracts/new/finalMarket_single.sol\":7055:7169  userBidPriceOnNFT[_nftContractAddress][_tokenId][\r... */\n      swap2\n      swap1\n      0xffffffff\n      and\n      jump\t// in\n    tag_151:\n        /* \"NFT-Contracts/new/finalMarket_single.sol\":7038:7169  _finalBidPrice = userBidPriceOnNFT[_nftContractAddress][_tokenId][\r... */\n      swap1\n      pop\n        /* \"NFT-Contracts/new/finalMarket_single.sol\":6744:7181  if (\r... */\n    tag_150:\n        /* \"NFT-Contracts/new/finalMarket_single.sol\":7247:7269  nftContractAuctionSale */\n      0x01\n        /* \"NFT-Contracts/new/finalMarket_single.sol\":7247:7290  nftContractAuctionSale[_nftContractAddress] */\n      0x00\n        /* \"NFT-Contracts/new/finalMarket_single.sol\":7270:7289  _nftContractAddress */\n      dup7\n        /* \"NFT-Contracts/new/finalMarket_single.sol\":7247:7290  nftContractAuctionSale[_nftContractAddress] */\n      0xffffffffffffffffffffffffffffffffffffffff\n      and\n      0xffffffffffffffffffffffffffffffffffffffff\n      and\n      dup2\n      mstore\n      0x20\n      add\n      swap1\n      dup2\n      mstore\n      0x20\n      add\n      0x00\n      keccak256\n        /* \"NFT-Contracts/new/finalMarket_single.sol\":7247:7300  nftContractAuctionSale[_nftContractAddress][_tokenId] */\n      0x00\n        /* \"NFT-Contracts/new/finalMarket_single.sol\":7291:7299  _tokenId */\n      dup6\n        /* \"NFT-Contracts/new/finalMarket_single.sol\":7247:7300  nftContractAuctionSale[_nftContractAddress][_tokenId] */\n      dup2\n      mstore\n      0x20\n      add\n      swap1\n      dup2\n      mstore\n      0x20\n      add\n      0x00\n      keccak256\n        /* \"NFT-Contracts/new/finalMarket_single.sol\":7247:7336  nftContractAuctionSale[_nftContractAddress][_tokenId]\r... */\n      0x03\n      add\n      sload\n        /* \"NFT-Contracts/new/finalMarket_single.sol\":7213:7227  _finalBidPrice */\n      dup2\n        /* \"NFT-Contracts/new/finalMarket_single.sol\":7213:7336  _finalBidPrice >\r... */\n      gt\n        /* \"NFT-Contracts/new/finalMarket_single.sol\":7191:7393  require(\r... */\n      tag_152\n      jumpi\n      mload(0x40)\n      0x08c379a000000000000000000000000000000000000000000000000000000000\n      dup2\n      mstore\n      0x04\n      add\n      tag_153\n      swap1\n      tag_123\n      jump\t// in\n    tag_153:\n      mload(0x40)\n      dup1\n      swap2\n      sub\n      swap1\n      revert\n    tag_152:\n        /* \"NFT-Contracts/new/finalMarket_single.sol\":14489:14515  address nftContractAddress */\n      0x00\n        /* \"NFT-Contracts/new/finalMarket_single.sol\":14518:14537  _nftContractAddress */\n      dup14\n        /* \"NFT-Contracts/new/finalMarket_single.sol\":14489:14537  address nftContractAddress = _nftContractAddress */\n      swap1\n      pop\n        /* \"NFT-Contracts/new/finalMarket_single.sol\":14548:14563  uint256 tokenId */\n      0x00\n        /* \"NFT-Contracts/new/finalMarket_single.sol\":14566:14574  _tokenId */\n      dup14\n        /* \"NFT-Contracts/new/finalMarket_single.sol\":14548:14574  uint256 tokenId = _tokenId */\n      swap1\n      pop\n        /* \"NFT-Contracts/new/finalMarket_single.sol\":14585:14606  uint256 finalBidPrice */\n      0x00\n        /* \"NFT-Contracts/new/finalMarket_single.sol\":14609:14712  userBidPriceOnNFT[nftContractAddress][tokenId][\r... */\n      tag_155\n        /* \"NFT-Contracts/new/finalMarket_single.sol\":14696:14711  _updateBidPrice */\n      dup15\n        /* \"NFT-Contracts/new/finalMarket_single.sol\":14609:14626  userBidPriceOnNFT */\n      0x03\n        /* \"NFT-Contracts/new/finalMarket_single.sol\":14609:14646  userBidPriceOnNFT[nftContractAddress] */\n      0x00\n        /* \"NFT-Contracts/new/finalMarket_single.sol\":14627:14645  nftContractAddress */\n      dup7\n        /* \"NFT-Contracts/new/finalMarket_single.sol\":14609:14646  userBidPriceOnNFT[nftContractAddress] */\n      0xffffffffffffffffffffffffffffffffffffffff\n      and\n      0xffffffffffffffffffffffffffffffffffffffff\n      and\n      dup2\n      mstore\n      0x20\n      add\n      swap1\n      dup2\n      mstore\n      0x20\n      add\n      0x00\n      keccak256\n        /* \"NFT-Contracts/new/finalMarket_single.sol\":14609:14655  userBidPriceOnNFT[nftContractAddress][tokenId] */\n      0x00\n        /* \"NFT-Contracts/new/finalMarket_single.sol\":14647:14654  tokenId */\n      dup6\n        /* \"NFT-Contracts/new/finalMarket_single.sol\":14609:14655  userBidPriceOnNFT[nftContractAddress][tokenId] */\n      dup2\n      mstore\n      0x20\n      add\n      swap1\n      dup2\n      mstore\n      0x20\n      add\n      0x00\n      keccak256\n        /* \"NFT-Contracts/new/finalMarket_single.sol\":14609:14691  userBidPriceOnNFT[nftContractAddress][tokenId][\r... */\n      0x00\n        /* \"NFT-Contracts/new/finalMarket_single.sol\":14670:14680  msg.sender */\n      caller\n        /* \"NFT-Contracts/new/finalMarket_single.sol\":14609:14691  userBidPriceOnNFT[nftContractAddress][tokenId][\r... */\n      0xffffffffffffffffffffffffffffffffffffffff\n      and\n      0xffffffffffffffffffffffffffffffffffffffff\n      and\n      dup2\n      mstore\n      0x20\n      add\n      swap1\n      dup2\n      mstore\n      0x20\n      add\n      0x00\n      keccak256\n      sload\n        /* \"NFT-Contracts/new/finalMarket_single.sol\":14609:14695  userBidPriceOnNFT[nftContractAddress][tokenId][\r... */\n      tag_149\n      swap1\n        /* \"NFT-Contracts/new/finalMarket_single.sol\":14609:14712  userBidPriceOnNFT[nftContractAddress][tokenId][\r... */\n      swap2\n      swap1\n      0xffffffff\n      and\n      jump\t// in\n    tag_155:\n        /* \"NFT-Contracts/new/finalMarket_single.sol\":14585:14712  uint256 finalBidPrice = userBidPriceOnNFT[nftContractAddress][tokenId][\r... */\n      swap1\n      pop\n        /* \"NFT-Contracts/new/finalMarket_single.sol\":14825:14826  0 */\n      0x00\n        /* \"NFT-Contracts/new/finalMarket_single.sol\":14743:14827  nftContractAuctionSale[nftContractAddress][tokenId].erc20 !=\r... */\n      0xffffffffffffffffffffffffffffffffffffffff\n      and\n        /* \"NFT-Contracts/new/finalMarket_single.sol\":14743:14765  nftContractAuctionSale */\n      0x01\n        /* \"NFT-Contracts/new/finalMarket_single.sol\":14743:14785  nftContractAuctionSale[nftContractAddress] */\n      0x00\n        /* \"NFT-Contracts/new/finalMarket_single.sol\":14766:14784  nftContractAddress */\n      dup6\n        /* \"NFT-Contracts/new/finalMarket_single.sol\":14743:14785  nftContractAuctionSale[nftContractAddress] */\n      0xffffffffffffffffffffffffffffffffffffffff\n      and\n      0xffffffffffffffffffffffffffffffffffffffff\n      and\n      dup2\n      mstore\n      0x20\n      add\n      swap1\n      dup2\n      mstore\n      0x20\n      add\n      0x00\n      keccak256\n        /* \"NFT-Contracts/new/finalMarket_single.sol\":14743:14794  nftContractAuctionSale[nftContractAddress][tokenId] */\n      0x00\n        /* \"NFT-Contracts/new/finalMarket_single.sol\":14786:14793  tokenId */\n      dup5\n        /* \"NFT-Contracts/new/finalMarket_single.sol\":14743:14794  nftContractAuctionSale[nftContractAddress][tokenId] */\n      dup2\n      mstore\n      0x20\n      add\n      swap1\n      dup2\n      mstore\n      0x20\n      add\n      0x00\n      keccak256\n        /* \"NFT-Contracts/new/finalMarket_single.sol\":14743:14800  nftContractAuctionSale[nftContractAddress][tokenId].erc20 */\n      0x06\n      add\n      0x00\n      swap1\n      sload\n      swap1\n      0x0100\n      exp\n      swap1\n      div\n      0xffffffffffffffffffffffffffffffffffffffff\n      and\n        /* \"NFT-Contracts/new/finalMarket_single.sol\":14743:14827  nftContractAuctionSale[nftContractAddress][tokenId].erc20 !=\r... */\n      0xffffffffffffffffffffffffffffffffffffffff\n      and\n      eq\n        /* \"NFT-Contracts/new/finalMarket_single.sol\":14725:15009  if (\r... */\n      tag_156\n      jumpi\n        /* \"NFT-Contracts/new/finalMarket_single.sol\":14854:14997  _bidAmountTransfer(\r... */\n      tag_157\n        /* \"NFT-Contracts/new/finalMarket_single.sol\":14891:14906  _updateBidPrice */\n      dup15\n        /* \"NFT-Contracts/new/finalMarket_single.sol\":14925:14947  nftContractAuctionSale */\n      0x01\n        /* \"NFT-Contracts/new/finalMarket_single.sol\":14925:14967  nftContractAuctionSale[nftContractAddress] */\n      0x00\n        /* \"NFT-Contracts/new/finalMarket_single.sol\":14948:14966  nftContractAddress */\n      dup7\n        /* \"NFT-Contracts/new/finalMarket_single.sol\":14925:14967  nftContractAuctionSale[nftContractAddress] */\n      0xffffffffffffffffffffffffffffffffffffffff\n      and\n      0xffffffffffffffffffffffffffffffffffffffff\n      and\n      dup2\n      mstore\n      0x20\n      add\n      swap1\n      dup2\n      mstore\n      0x20\n      add\n      0x00\n      keccak256\n        /* \"NFT-Contracts/new/finalMarket_single.sol\":14925:14976  nftContractAuctionSale[nftContractAddress][tokenId] */\n      0x00\n        /* \"NFT-Contracts/new/finalMarket_single.sol\":14968:14975  tokenId */\n      dup6\n        /* \"NFT-Contracts/new/finalMarket_single.sol\":14925:14976  nftContractAuctionSale[nftContractAddress][tokenId] */\n      dup2\n      mstore\n      0x20\n      add\n      swap1\n      dup2\n      mstore\n      0x20\n      add\n      0x00\n      keccak256\n        /* \"NFT-Contracts/new/finalMarket_single.sol\":14925:14982  nftContractAuctionSale[nftContractAddress][tokenId].erc20 */\n      0x06\n      add\n      0x00\n      swap1\n      sload\n      swap1\n      0x0100\n      exp\n      swap1\n      div\n      0xffffffffffffffffffffffffffffffffffffffff\n      and\n        /* \"NFT-Contracts/new/finalMarket_single.sol\":14854:14872  _bidAmountTransfer */\n      tag_130\n        /* \"NFT-Contracts/new/finalMarket_single.sol\":14854:14997  _bidAmountTransfer(\r... */\n      jump\t// in\n    tag_157:\n        /* \"NFT-Contracts/new/finalMarket_single.sol\":14725:15009  if (\r... */\n    tag_156:\n        /* \"NFT-Contracts/new/finalMarket_single.sol\":15103:15116  finalBidPrice */\n      dup1\n        /* \"NFT-Contracts/new/finalMarket_single.sol\":15021:15043  nftContractAuctionSale */\n      0x01\n        /* \"NFT-Contracts/new/finalMarket_single.sol\":15021:15063  nftContractAuctionSale[nftContractAddress] */\n      0x00\n        /* \"NFT-Contracts/new/finalMarket_single.sol\":15044:15062  nftContractAddress */\n      dup6\n        /* \"NFT-Contracts/new/finalMarket_single.sol\":15021:15063  nftContractAuctionSale[nftContractAddress] */\n      0xffffffffffffffffffffffffffffffffffffffff\n      and\n      0xffffffffffffffffffffffffffffffffffffffff\n      and\n      dup2\n      mstore\n      0x20\n      add\n      swap1\n      dup2\n      mstore\n      0x20\n      add\n      0x00\n      keccak256\n        /* \"NFT-Contracts/new/finalMarket_single.sol\":15021:15072  nftContractAuctionSale[nftContractAddress][tokenId] */\n      0x00\n        /* \"NFT-Contracts/new/finalMarket_single.sol\":15064:15071  tokenId */\n      dup5\n        /* \"NFT-Contracts/new/finalMarket_single.sol\":15021:15072  nftContractAuctionSale[nftContractAddress][tokenId] */\n      dup2\n      mstore\n      0x20\n      add\n      swap1\n      dup2\n      mstore\n      0x20\n      add\n      0x00\n      keccak256\n        /* \"NFT-Contracts/new/finalMarket_single.sol\":15021:15100  nftContractAuctionSale[nftContractAddress][tokenId]\r... */\n      0x03\n      add\n        /* \"NFT-Contracts/new/finalMarket_single.sol\":15021:15116  nftContractAuctionSale[nftContractAddress][tokenId]\r... */\n      dup2\n      swap1\n      sstore\n      pop\n        /* \"NFT-Contracts/new/finalMarket_single.sol\":15212:15222  msg.sender */\n      caller\n        /* \"NFT-Contracts/new/finalMarket_single.sol\":15127:15149  nftContractAuctionSale */\n      0x01\n        /* \"NFT-Contracts/new/finalMarket_single.sol\":15127:15169  nftContractAuctionSale[nftContractAddress] */\n      0x00\n        /* \"NFT-Contracts/new/finalMarket_single.sol\":15150:15168  nftContractAddress */\n      dup6\n        /* \"NFT-Contracts/new/finalMarket_single.sol\":15127:15169  nftContractAuctionSale[nftContractAddress] */\n      0xffffffffffffffffffffffffffffffffffffffff\n      and\n      0xffffffffffffffffffffffffffffffffffffffff\n      and\n      dup2\n      mstore\n      0x20\n      add\n      swap1\n      dup2\n      mstore\n      0x20\n      add\n      0x00\n      keccak256\n        /* \"NFT-Contracts/new/finalMarket_single.sol\":15127:15178  nftContractAuctionSale[nftContractAddress][tokenId] */\n      0x00\n        /* \"NFT-Contracts/new/finalMarket_single.sol\":15170:15177  tokenId */\n      dup5\n        /* \"NFT-Contracts/new/finalMarket_single.sol\":15127:15178  nftContractAuctionSale[nftContractAddress][tokenId] */\n      dup2\n      mstore\n      0x20\n      add\n      swap1\n      dup2\n      mstore\n      0x20\n      add\n      0x00\n      keccak256\n        /* \"NFT-Contracts/new/finalMarket_single.sol\":15127:15209  nftContractAuctionSale[nftContractAddress][tokenId]\r... */\n      0x04\n      add\n      0x00\n        /* \"NFT-Contracts/new/finalMarket_single.sol\":15127:15222  nftContractAuctionSale[nftContractAddress][tokenId]\r... */\n      0x0100\n      exp\n      dup2\n      sload\n      dup2\n      0xffffffffffffffffffffffffffffffffffffffff\n      mul\n      not\n      and\n      swap1\n      dup4\n      0xffffffffffffffffffffffffffffffffffffffff\n      and\n      mul\n      or\n      swap1\n      sstore\n      pop\n        /* \"NFT-Contracts/new/finalMarket_single.sol\":15320:15333  finalBidPrice */\n      dup1\n        /* \"NFT-Contracts/new/finalMarket_single.sol\":15235:15252  userBidPriceOnNFT */\n      0x03\n        /* \"NFT-Contracts/new/finalMarket_single.sol\":15235:15272  userBidPriceOnNFT[nftContractAddress] */\n      0x00\n        /* \"NFT-Contracts/new/finalMarket_single.sol\":15253:15271  nftContractAddress */\n      dup6\n        /* \"NFT-Contracts/new/finalMarket_single.sol\":15235:15272  userBidPriceOnNFT[nftContractAddress] */\n      0xffffffffffffffffffffffffffffffffffffffff\n      and\n      0xffffffffffffffffffffffffffffffffffffffff\n      and\n      dup2\n      mstore\n      0x20\n      add\n      swap1\n      dup2\n      mstore\n      0x20\n      add\n      0x00\n      keccak256\n        /* \"NFT-Contracts/new/finalMarket_single.sol\":15235:15281  userBidPriceOnNFT[nftContractAddress][tokenId] */\n      0x00\n        /* \"NFT-Contracts/new/finalMarket_single.sol\":15273:15280  tokenId */\n      dup5\n        /* \"NFT-Contracts/new/finalMarket_single.sol\":15235:15281  userBidPriceOnNFT[nftContractAddress][tokenId] */\n      dup2\n      mstore\n      0x20\n      add\n      swap1\n      dup2\n      mstore\n      0x20\n      add\n      0x00\n      keccak256\n        /* \"NFT-Contracts/new/finalMarket_single.sol\":15235:15317  userBidPriceOnNFT[nftContractAddress][tokenId][\r... */\n      0x00\n        /* \"NFT-Contracts/new/finalMarket_single.sol\":15296:15306  msg.sender */\n      caller\n        /* \"NFT-Contracts/new/finalMarket_single.sol\":15235:15317  userBidPriceOnNFT[nftContractAddress][tokenId][\r... */\n      0xffffffffffffffffffffffffffffffffffffffff\n      and\n      0xffffffffffffffffffffffffffffffffffffffff\n      and\n      dup2\n      mstore\n      0x20\n      add\n      swap1\n      dup2\n      mstore\n      0x20\n      add\n      0x00\n      keccak256\n        /* \"NFT-Contracts/new/finalMarket_single.sol\":15235:15333  userBidPriceOnNFT[nftContractAddress][tokenId][\r... */\n      dup2\n      swap1\n      sstore\n      pop\n        /* \"NFT-Contracts/new/finalMarket_single.sol\":15351:15494  NftAuctionBidPriceUpdate(\r... */\n      0x907cdadc7c1a8abcdd80cdd85eb18377631e4f413fb6397a8252ff7b358ac6cb\n        /* \"NFT-Contracts/new/finalMarket_single.sol\":15390:15408  nftContractAddress */\n      dup4\n        /* \"NFT-Contracts/new/finalMarket_single.sol\":15423:15430  tokenId */\n      dup4\n        /* \"NFT-Contracts/new/finalMarket_single.sol\":15445:15458  finalBidPrice */\n      dup4\n        /* \"NFT-Contracts/new/finalMarket_single.sol\":15473:15483  msg.sender */\n      caller\n        /* \"NFT-Contracts/new/finalMarket_single.sol\":15351:15494  NftAuctionBidPriceUpdate(\r... */\n      mload(0x40)\n      tag_158\n      swap5\n      swap4\n      swap3\n      swap2\n      swap1\n      tag_132\n      jump\t// in\n    tag_158:\n      mload(0x40)\n      dup1\n      swap2\n      sub\n      swap1\n      log1\n        /* \"NFT-Contracts/new/finalMarket_single.sol\":14478:15502  {\r... */\n      pop\n      pop\n      pop\n        /* \"NFT-Contracts/new/finalMarket_single.sol\":6700:7413  {\r... */\n      pop\n        /* \"NFT-Contracts/new/finalMarket_single.sol\":8181:8182  _ */\n      pop\n      pop\n      pop\n      pop\n        /* \"NFT-Contracts/new/finalMarket_single.sol\":6203:6204  _ */\n      pop\n        /* \"NFT-Contracts/new/finalMarket_single.sol\":3961:3962  _ */\n      pop\n      pop\n        /* \"NFT-Contracts/new/finalMarket_single.sol\":13986:15502  function updateTheBidPrice(\r... */\n      pop\n      pop\n      pop\n      pop\n      pop\n      jump\t// out\n        /* \"NFT-Contracts/new/finalMarket_single.sol\":9972:10550  function updateFixedSalePrice(\r... */\n    tag_47:\n        /* \"NFT-Contracts/new/finalMarket_single.sol\":10153:10172  _nftContractAddress */\n      dup3\n        /* \"NFT-Contracts/new/finalMarket_single.sol\":10174:10182  _tokenId */\n      dup3\n        /* \"NFT-Contracts/new/finalMarket_single.sol\":3664:3665  1 */\n      0x01\n        /* \"NFT-Contracts/new/finalMarket_single.sol\":3616:3629  nftSaleStatus */\n      0x02\n        /* \"NFT-Contracts/new/finalMarket_single.sol\":3616:3650  nftSaleStatus[_nftContractAddress] */\n      0x00\n        /* \"NFT-Contracts/new/finalMarket_single.sol\":3630:3649  _nftContractAddress */\n      dup5\n        /* \"NFT-Contracts/new/finalMarket_single.sol\":3616:3650  nftSaleStatus[_nftContractAddress] */\n      0xffffffffffffffffffffffffffffffffffffffff\n      and\n      0xffffffffffffffffffffffffffffffffffffffff\n      and\n      dup2\n      mstore\n      0x20\n      add\n      swap1\n      dup2\n      mstore\n      0x20\n      add\n      0x00\n      keccak256\n        /* \"NFT-Contracts/new/finalMarket_single.sol\":3616:3660  nftSaleStatus[_nftContractAddress][_tokenId] */\n      0x00\n        /* \"NFT-Contracts/new/finalMarket_single.sol\":3651:3659  _tokenId */\n      dup4\n        /* \"NFT-Contracts/new/finalMarket_single.sol\":3616:3660  nftSaleStatus[_nftContractAddress][_tokenId] */\n      dup2\n      mstore\n      0x20\n      add\n      swap1\n      dup2\n      mstore\n      0x20\n      add\n      0x00\n      keccak256\n      sload\n        /* \"NFT-Contracts/new/finalMarket_single.sol\":3616:3665  nftSaleStatus[_nftContractAddress][_tokenId] == 1 */\n      eq\n        /* \"NFT-Contracts/new/finalMarket_single.sol\":3594:3714  require(\r... */\n      tag_160\n      jumpi\n      mload(0x40)\n      0x08c379a000000000000000000000000000000000000000000000000000000000\n      dup2\n      mstore\n      0x04\n      add\n      tag_161\n      swap1\n      tag_162\n      jump\t// in\n    tag_161:\n      mload(0x40)\n      dup1\n      swap2\n      sub\n      swap1\n      revert\n    tag_160:\n        /* \"NFT-Contracts/new/finalMarket_single.sol\":10212:10231  _nftContractAddress */\n      dup5\n        /* \"NFT-Contracts/new/finalMarket_single.sol\":10233:10241  _tokenId */\n      dup5\n        /* \"NFT-Contracts/new/finalMarket_single.sol\":4362:4382  nftContractFixedSale */\n      0x00\n        /* \"NFT-Contracts/new/finalMarket_single.sol\":4362:4403  nftContractFixedSale[_nftContractAddress] */\n      dup1\n        /* \"NFT-Contracts/new/finalMarket_single.sol\":4383:4402  _nftContractAddress */\n      dup4\n        /* \"NFT-Contracts/new/finalMarket_single.sol\":4362:4403  nftContractFixedSale[_nftContractAddress] */\n      0xffffffffffffffffffffffffffffffffffffffff\n      and\n      0xffffffffffffffffffffffffffffffffffffffff\n      and\n      dup2\n      mstore\n      0x20\n      add\n      swap1\n      dup2\n      mstore\n      0x20\n      add\n      0x00\n      keccak256\n        /* \"NFT-Contracts/new/finalMarket_single.sol\":4362:4413  nftContractFixedSale[_nftContractAddress][_tokenId] */\n      0x00\n        /* \"NFT-Contracts/new/finalMarket_single.sol\":4404:4412  _tokenId */\n      dup3\n        /* \"NFT-Contracts/new/finalMarket_single.sol\":4362:4413  nftContractFixedSale[_nftContractAddress][_tokenId] */\n      dup2\n      mstore\n      0x20\n      add\n      swap1\n      dup2\n      mstore\n      0x20\n      add\n      0x00\n      keccak256\n        /* \"NFT-Contracts/new/finalMarket_single.sol\":4362:4423  nftContractFixedSale[_nftContractAddress][_tokenId].nftSeller */\n      0x00\n      add\n      0x00\n      swap1\n      sload\n      swap1\n      0x0100\n      exp\n      swap1\n      div\n      0xffffffffffffffffffffffffffffffffffffffff\n      and\n        /* \"NFT-Contracts/new/finalMarket_single.sol\":4331:4423  msg.sender ==\r... */\n      0xffffffffffffffffffffffffffffffffffffffff\n      and\n        /* \"NFT-Contracts/new/finalMarket_single.sol\":4331:4341  msg.sender */\n      caller\n        /* \"NFT-Contracts/new/finalMarket_single.sol\":4331:4423  msg.sender ==\r... */\n      0xffffffffffffffffffffffffffffffffffffffff\n      and\n      eq\n        /* \"NFT-Contracts/new/finalMarket_single.sol\":4309:4472  require(\r... */\n      tag_164\n      jumpi\n      mload(0x40)\n      0x08c379a000000000000000000000000000000000000000000000000000000000\n      dup2\n      mstore\n      0x04\n      add\n      tag_165\n      swap1\n      tag_166\n      jump\t// in\n    tag_165:\n      mload(0x40)\n      dup1\n      swap2\n      sub\n      swap1\n      revert\n    tag_164:\n        /* \"NFT-Contracts/new/finalMarket_single.sol\":10273:10289  _updateSalePrice */\n      dup5\n        /* \"NFT-Contracts/new/finalMarket_single.sol\":8147:8148  0 */\n      0x00\n        /* \"NFT-Contracts/new/finalMarket_single.sol\":8138:8144  _price */\n      dup2\n        /* \"NFT-Contracts/new/finalMarket_single.sol\":8138:8148  _price > 0 */\n      gt\n        /* \"NFT-Contracts/new/finalMarket_single.sol\":8130:8170  require(_price > 0, \"Price cannot be 0\") */\n      tag_168\n      jumpi\n      mload(0x40)\n      0x08c379a000000000000000000000000000000000000000000000000000000000\n      dup2\n      mstore\n      0x04\n      add\n      tag_169\n      swap1\n      tag_118\n      jump\t// in\n    tag_169:\n      mload(0x40)\n      dup1\n      swap2\n      sub\n      swap1\n      revert\n    tag_168:\n        /* \"NFT-Contracts/new/finalMarket_single.sol\":10385:10401  _updateSalePrice */\n      dup6\n        /* \"NFT-Contracts/new/finalMarket_single.sol\":10307:10327  nftContractFixedSale */\n      0x00\n        /* \"NFT-Contracts/new/finalMarket_single.sol\":10307:10348  nftContractFixedSale[_nftContractAddress] */\n      dup1\n        /* \"NFT-Contracts/new/finalMarket_single.sol\":10328:10347  _nftContractAddress */\n      dup11\n        /* \"NFT-Contracts/new/finalMarket_single.sol\":10307:10348  nftContractFixedSale[_nftContractAddress] */\n      0xffffffffffffffffffffffffffffffffffffffff\n      and\n      0xffffffffffffffffffffffffffffffffffffffff\n      and\n      dup2\n      mstore\n      0x20\n      add\n      swap1\n      dup2\n      mstore\n      0x20\n      add\n      0x00\n      keccak256\n        /* \"NFT-Contracts/new/finalMarket_single.sol\":10307:10358  nftContractFixedSale[_nftContractAddress][_tokenId] */\n      0x00\n        /* \"NFT-Contracts/new/finalMarket_single.sol\":10349:10357  _tokenId */\n      dup10\n        /* \"NFT-Contracts/new/finalMarket_single.sol\":10307:10358  nftContractFixedSale[_nftContractAddress][_tokenId] */\n      dup2\n      mstore\n      0x20\n      add\n      swap1\n      dup2\n      mstore\n      0x20\n      add\n      0x00\n      keccak256\n        /* \"NFT-Contracts/new/finalMarket_single.sol\":10307:10382  nftContractFixedSale[_nftContractAddress][_tokenId]\r... */\n      0x03\n      add\n        /* \"NFT-Contracts/new/finalMarket_single.sol\":10307:10401  nftContractFixedSale[_nftContractAddress][_tokenId]\r... */\n      dup2\n      swap1\n      sstore\n      pop\n        /* \"NFT-Contracts/new/finalMarket_single.sol\":10419:10542  NftFixedSalePriceUpdated(\r... */\n      0x575a0876095ccf47276a37dce683308a625403d132d219f95205ce205b2e12bc\n        /* \"NFT-Contracts/new/finalMarket_single.sol\":10458:10477  _nftContractAddress */\n      dup9\n        /* \"NFT-Contracts/new/finalMarket_single.sol\":10492:10500  _tokenId */\n      dup9\n        /* \"NFT-Contracts/new/finalMarket_single.sol\":10515:10531  _updateSalePrice */\n      dup9\n        /* \"NFT-Contracts/new/finalMarket_single.sol\":10419:10542  NftFixedSalePriceUpdated(\r... */\n      mload(0x40)\n      tag_171\n      swap4\n      swap3\n      swap2\n      swap1\n      tag_172\n      jump\t// in\n    tag_171:\n      mload(0x40)\n      dup1\n      swap2\n      sub\n      swap1\n      log1\n        /* \"NFT-Contracts/new/finalMarket_single.sol\":4483:4484  _ */\n      pop\n        /* \"NFT-Contracts/new/finalMarket_single.sol\":3725:3726  _ */\n      pop\n      pop\n        /* \"NFT-Contracts/new/finalMarket_single.sol\":9972:10550  function updateFixedSalePrice(\r... */\n      pop\n      pop\n      pop\n      pop\n      pop\n      jump\t// out\n        /* \"NFT-Contracts/new/finalMarket_single.sol\":17275:18033  function withdrawBid(address _nftContractAddress, uint256 _tokenId)\r... */\n    tag_52:\n        /* \"NFT-Contracts/new/finalMarket_single.sol\":17384:17403  _nftContractAddress */\n      dup2\n        /* \"NFT-Contracts/new/finalMarket_single.sol\":17405:17413  _tokenId */\n      dup2\n        /* \"NFT-Contracts/new/finalMarket_single.sol\":4950:4972  nftContractAuctionSale */\n      0x01\n        /* \"NFT-Contracts/new/finalMarket_single.sol\":4950:4993  nftContractAuctionSale[_nftContractAddress] */\n      0x00\n        /* \"NFT-Contracts/new/finalMarket_single.sol\":4973:4992  _nftContractAddress */\n      dup4\n        /* \"NFT-Contracts/new/finalMarket_single.sol\":4950:4993  nftContractAuctionSale[_nftContractAddress] */\n      0xffffffffffffffffffffffffffffffffffffffff\n      and\n      0xffffffffffffffffffffffffffffffffffffffff\n      and\n      dup2\n      mstore\n      0x20\n      add\n      swap1\n      dup2\n      mstore\n      0x20\n      add\n      0x00\n      keccak256\n        /* \"NFT-Contracts/new/finalMarket_single.sol\":4950:5003  nftContractAuctionSale[_nftContractAddress][_tokenId] */\n      0x00\n        /* \"NFT-Contracts/new/finalMarket_single.sol\":4994:5002  _tokenId */\n      dup3\n        /* \"NFT-Contracts/new/finalMarket_single.sol\":4950:5003  nftContractAuctionSale[_nftContractAddress][_tokenId] */\n      dup2\n      mstore\n      0x20\n      add\n      swap1\n      dup2\n      mstore\n      0x20\n      add\n      0x00\n      keccak256\n        /* \"NFT-Contracts/new/finalMarket_single.sol\":4950:5036  nftContractAuctionSale[_nftContractAddress][_tokenId]\r... */\n      0x01\n      add\n      sload\n        /* \"NFT-Contracts/new/finalMarket_single.sol\":4915:4930  block.timestamp */\n      timestamp\n        /* \"NFT-Contracts/new/finalMarket_single.sol\":4915:5036  block.timestamp >\r... */\n      gt\n        /* \"NFT-Contracts/new/finalMarket_single.sol\":4893:5079  require(\r... */\n      tag_174\n      jumpi\n      mload(0x40)\n      0x08c379a000000000000000000000000000000000000000000000000000000000\n      dup2\n      mstore\n      0x04\n      add\n      tag_175\n      swap1\n      tag_176\n      jump\t// in\n    tag_175:\n      mload(0x40)\n      dup1\n      swap2\n      sub\n      swap1\n      revert\n    tag_174:\n        /* \"NFT-Contracts/new/finalMarket_single.sol\":17484:17506  nftContractAuctionSale */\n      0x01\n        /* \"NFT-Contracts/new/finalMarket_single.sol\":17484:17527  nftContractAuctionSale[_nftContractAddress] */\n      0x00\n        /* \"NFT-Contracts/new/finalMarket_single.sol\":17507:17526  _nftContractAddress */\n      dup6\n        /* \"NFT-Contracts/new/finalMarket_single.sol\":17484:17527  nftContractAuctionSale[_nftContractAddress] */\n      0xffffffffffffffffffffffffffffffffffffffff\n      and\n      0xffffffffffffffffffffffffffffffffffffffff\n      and\n      dup2\n      mstore\n      0x20\n      add\n      swap1\n      dup2\n      mstore\n      0x20\n      add\n      0x00\n      keccak256\n        /* \"NFT-Contracts/new/finalMarket_single.sol\":17484:17537  nftContractAuctionSale[_nftContractAddress][_tokenId] */\n      0x00\n        /* \"NFT-Contracts/new/finalMarket_single.sol\":17528:17536  _tokenId */\n      dup5\n        /* \"NFT-Contracts/new/finalMarket_single.sol\":17484:17537  nftContractAuctionSale[_nftContractAddress][_tokenId] */\n      dup2\n      mstore\n      0x20\n      add\n      swap1\n      dup2\n      mstore\n      0x20\n      add\n      0x00\n      keccak256\n        /* \"NFT-Contracts/new/finalMarket_single.sol\":17484:17576  nftContractAuctionSale[_nftContractAddress][_tokenId]\r... */\n      0x04\n      add\n      0x00\n      swap1\n      sload\n      swap1\n      0x0100\n      exp\n      swap1\n      div\n      0xffffffffffffffffffffffffffffffffffffffff\n      and\n        /* \"NFT-Contracts/new/finalMarket_single.sol\":17453:17576  msg.sender !=\r... */\n      0xffffffffffffffffffffffffffffffffffffffff\n      and\n        /* \"NFT-Contracts/new/finalMarket_single.sol\":17453:17463  msg.sender */\n      caller\n        /* \"NFT-Contracts/new/finalMarket_single.sol\":17453:17576  msg.sender !=\r... */\n      0xffffffffffffffffffffffffffffffffffffffff\n      and\n      eq\n      iszero\n        /* \"NFT-Contracts/new/finalMarket_single.sol\":17431:17626  require(\r... */\n      tag_178\n      jumpi\n      mload(0x40)\n      0x08c379a000000000000000000000000000000000000000000000000000000000\n      dup2\n      mstore\n      0x04\n      add\n      tag_179\n      swap1\n      tag_180\n      jump\t// in\n    tag_179:\n      mload(0x40)\n      dup1\n      swap2\n      sub\n      swap1\n      revert\n    tag_178:\n        /* \"NFT-Contracts/new/finalMarket_single.sol\":17722:17723  0 */\n      0x00\n        /* \"NFT-Contracts/new/finalMarket_single.sol\":17659:17676  userBidPriceOnNFT */\n      0x03\n        /* \"NFT-Contracts/new/finalMarket_single.sol\":17659:17697  userBidPriceOnNFT[_nftContractAddress] */\n      0x00\n        /* \"NFT-Contracts/new/finalMarket_single.sol\":17677:17696  _nftContractAddress */\n      dup7\n        /* \"NFT-Contracts/new/finalMarket_single.sol\":17659:17697  userBidPriceOnNFT[_nftContractAddress] */\n      0xffffffffffffffffffffffffffffffffffffffff\n      and\n      0xffffffffffffffffffffffffffffffffffffffff\n      and\n      dup2\n      mstore\n      0x20\n      add\n      swap1\n      dup2\n      mstore\n      0x20\n      add\n      0x00\n      keccak256\n        /* \"NFT-Contracts/new/finalMarket_single.sol\":17659:17707  userBidPriceOnNFT[_nftContractAddress][_tokenId] */\n      0x00\n        /* \"NFT-Contracts/new/finalMarket_single.sol\":17698:17706  _tokenId */\n      dup6\n        /* \"NFT-Contracts/new/finalMarket_single.sol\":17659:17707  userBidPriceOnNFT[_nftContractAddress][_tokenId] */\n      dup2\n      mstore\n      0x20\n      add\n      swap1\n      dup2\n      mstore\n      0x20\n      add\n      0x00\n      keccak256\n        /* \"NFT-Contracts/new/finalMarket_single.sol\":17659:17719  userBidPriceOnNFT[_nftContractAddress][_tokenId][msg.sender] */\n      0x00\n        /* \"NFT-Contracts/new/finalMarket_single.sol\":17708:17718  msg.sender */\n      caller\n        /* \"NFT-Contracts/new/finalMarket_single.sol\":17659:17719  userBidPriceOnNFT[_nftContractAddress][_tokenId][msg.sender] */\n      0xffffffffffffffffffffffffffffffffffffffff\n      and\n      0xffffffffffffffffffffffffffffffffffffffff\n      and\n      dup2\n      mstore\n      0x20\n      add\n      swap1\n      dup2\n      mstore\n      0x20\n      add\n      0x00\n      keccak256\n      sload\n        /* \"NFT-Contracts/new/finalMarket_single.sol\":17659:17723  userBidPriceOnNFT[_nftContractAddress][_tokenId][msg.sender] > 0 */\n      gt\n        /* \"NFT-Contracts/new/finalMarket_single.sol\":17637:17770  require(\r... */\n      tag_181\n      jumpi\n      mload(0x40)\n      0x08c379a000000000000000000000000000000000000000000000000000000000\n      dup2\n      mstore\n      0x04\n      add\n      tag_182\n      swap1\n      tag_183\n      jump\t// in\n    tag_182:\n      mload(0x40)\n      dup1\n      swap2\n      sub\n      swap1\n      revert\n    tag_181:\n        /* \"NFT-Contracts/new/finalMarket_single.sol\":17949:17950  0 */\n      0x00\n        /* \"NFT-Contracts/new/finalMarket_single.sol\":17886:17903  userBidPriceOnNFT */\n      0x03\n        /* \"NFT-Contracts/new/finalMarket_single.sol\":17886:17924  userBidPriceOnNFT[_nftContractAddress] */\n      0x00\n        /* \"NFT-Contracts/new/finalMarket_single.sol\":17904:17923  _nftContractAddress */\n      dup7\n        /* \"NFT-Contracts/new/finalMarket_single.sol\":17886:17924  userBidPriceOnNFT[_nftContractAddress] */\n      0xffffffffffffffffffffffffffffffffffffffff\n      and\n      0xffffffffffffffffffffffffffffffffffffffff\n      and\n      dup2\n      mstore\n      0x20\n      add\n      swap1\n      dup2\n      mstore\n      0x20\n      add\n      0x00\n      keccak256\n        /* \"NFT-Contracts/new/finalMarket_single.sol\":17886:17934  userBidPriceOnNFT[_nftContractAddress][_tokenId] */\n      0x00\n        /* \"NFT-Contracts/new/finalMarket_single.sol\":17925:17933  _tokenId */\n      dup6\n        /* \"NFT-Contracts/new/finalMarket_single.sol\":17886:17934  userBidPriceOnNFT[_nftContractAddress][_tokenId] */\n      dup2\n      mstore\n      0x20\n      add\n      swap1\n      dup2\n      mstore\n      0x20\n      add\n      0x00\n      keccak256\n        /* \"NFT-Contracts/new/finalMarket_single.sol\":17886:17946  userBidPriceOnNFT[_nftContractAddress][_tokenId][msg.sender] */\n      0x00\n        /* \"NFT-Contracts/new/finalMarket_single.sol\":17935:17945  msg.sender */\n      caller\n        /* \"NFT-Contracts/new/finalMarket_single.sol\":17886:17946  userBidPriceOnNFT[_nftContractAddress][_tokenId][msg.sender] */\n      0xffffffffffffffffffffffffffffffffffffffff\n      and\n      0xffffffffffffffffffffffffffffffffffffffff\n      and\n      dup2\n      mstore\n      0x20\n      add\n      swap1\n      dup2\n      mstore\n      0x20\n      add\n      0x00\n      keccak256\n        /* \"NFT-Contracts/new/finalMarket_single.sol\":17886:17950  userBidPriceOnNFT[_nftContractAddress][_tokenId][msg.sender] = 0 */\n      dup2\n      swap1\n      sstore\n      pop\n        /* \"NFT-Contracts/new/finalMarket_single.sol\":17968:18025  withdrawNftBid(_nftContractAddress, _tokenId, msg.sender) */\n      0xde8cb9aa2c755cf75d5fbc4fec824b10e311652306f1fca5c8e57a04758b0aa7\n        /* \"NFT-Contracts/new/finalMarket_single.sol\":17983:18002  _nftContractAddress */\n      dup5\n        /* \"NFT-Contracts/new/finalMarket_single.sol\":18004:18012  _tokenId */\n      dup5\n        /* \"NFT-Contracts/new/finalMarket_single.sol\":18014:18024  msg.sender */\n      caller\n        /* \"NFT-Contracts/new/finalMarket_single.sol\":17968:18025  withdrawNftBid(_nftContractAddress, _tokenId, msg.sender) */\n      mload(0x40)\n      tag_184\n      swap4\n      swap3\n      swap2\n      swap1\n      tag_185\n      jump\t// in\n    tag_184:\n      mload(0x40)\n      dup1\n      swap2\n      sub\n      swap1\n      log1\n        /* \"NFT-Contracts/new/finalMarket_single.sol\":17275:18033  function withdrawBid(address _nftContractAddress, uint256 _tokenId)\r... */\n      pop\n      pop\n      pop\n      pop\n      jump\t// out\n        /* \"NFT-Contracts/new/finalMarket_single.sol\":16259:17267  function settleAuction(address _nftContractAddress, uint256 _tokenId)\r... */\n    tag_56:\n        /* \"NFT-Contracts/new/finalMarket_single.sol\":16375:16394  _nftContractAddress */\n      dup2\n        /* \"NFT-Contracts/new/finalMarket_single.sol\":16396:16404  _tokenId */\n      dup2\n        /* \"NFT-Contracts/new/finalMarket_single.sol\":3898:3899  2 */\n      0x02\n        /* \"NFT-Contracts/new/finalMarket_single.sol\":3850:3863  nftSaleStatus */\n      dup1\n        /* \"NFT-Contracts/new/finalMarket_single.sol\":3850:3884  nftSaleStatus[_nftContractAddress] */\n      0x00\n        /* \"NFT-Contracts/new/finalMarket_single.sol\":3864:3883  _nftContractAddress */\n      dup5\n        /* \"NFT-Contracts/new/finalMarket_single.sol\":3850:3884  nftSaleStatus[_nftContractAddress] */\n      0xffffffffffffffffffffffffffffffffffffffff\n      and\n      0xffffffffffffffffffffffffffffffffffffffff\n      and\n      dup2\n      mstore\n      0x20\n      add\n      swap1\n      dup2\n      mstore\n      0x20\n      add\n      0x00\n      keccak256\n        /* \"NFT-Contracts/new/finalMarket_single.sol\":3850:3894  nftSaleStatus[_nftContractAddress][_tokenId] */\n      0x00\n        /* \"NFT-Contracts/new/finalMarket_single.sol\":3885:3893  _tokenId */\n      dup4\n        /* \"NFT-Contracts/new/finalMarket_single.sol\":3850:3894  nftSaleStatus[_nftContractAddress][_tokenId] */\n      dup2\n      mstore\n      0x20\n      add\n      swap1\n      dup2\n      mstore\n      0x20\n      add\n      0x00\n      keccak256\n      sload\n        /* \"NFT-Contracts/new/finalMarket_single.sol\":3850:3899  nftSaleStatus[_nftContractAddress][_tokenId] == 2 */\n      eq\n        /* \"NFT-Contracts/new/finalMarket_single.sol\":3828:3950  require(\r... */\n      tag_187\n      jumpi\n      mload(0x40)\n      0x08c379a000000000000000000000000000000000000000000000000000000000\n      dup2\n      mstore\n      0x04\n      add\n      tag_188\n      swap1\n      tag_110\n      jump\t// in\n    tag_188:\n      mload(0x40)\n      dup1\n      swap2\n      sub\n      swap1\n      revert\n    tag_187:\n        /* \"NFT-Contracts/new/finalMarket_single.sol\":16429:16448  _nftContractAddress */\n      dup4\n        /* \"NFT-Contracts/new/finalMarket_single.sol\":16450:16458  _tokenId */\n      dup4\n        /* \"NFT-Contracts/new/finalMarket_single.sol\":4950:4972  nftContractAuctionSale */\n      0x01\n        /* \"NFT-Contracts/new/finalMarket_single.sol\":4950:4993  nftContractAuctionSale[_nftContractAddress] */\n      0x00\n        /* \"NFT-Contracts/new/finalMarket_single.sol\":4973:4992  _nftContractAddress */\n      dup4\n        /* \"NFT-Contracts/new/finalMarket_single.sol\":4950:4993  nftContractAuctionSale[_nftContractAddress] */\n      0xffffffffffffffffffffffffffffffffffffffff\n      and\n      0xffffffffffffffffffffffffffffffffffffffff\n      and\n      dup2\n      mstore\n      0x20\n      add\n      swap1\n      dup2\n      mstore\n      0x20\n      add\n      0x00\n      keccak256\n        /* \"NFT-Contracts/new/finalMarket_single.sol\":4950:5003  nftContractAuctionSale[_nftContractAddress][_tokenId] */\n      0x00\n        /* \"NFT-Contracts/new/finalMarket_single.sol\":4994:5002  _tokenId */\n      dup3\n        /* \"NFT-Contracts/new/finalMarket_single.sol\":4950:5003  nftContractAuctionSale[_nftContractAddress][_tokenId] */\n      dup2\n      mstore\n      0x20\n      add\n      swap1\n      dup2\n      mstore\n      0x20\n      add\n      0x00\n      keccak256\n        /* \"NFT-Contracts/new/finalMarket_single.sol\":4950:5036  nftContractAuctionSale[_nftContractAddress][_tokenId]\r... */\n      0x01\n      add\n      sload\n        /* \"NFT-Contracts/new/finalMarket_single.sol\":4915:4930  block.timestamp */\n      timestamp\n        /* \"NFT-Contracts/new/finalMarket_single.sol\":4915:5036  block.timestamp >\r... */\n      gt\n        /* \"NFT-Contracts/new/finalMarket_single.sol\":4893:5079  require(\r... */\n      tag_190\n      jumpi\n      mload(0x40)\n      0x08c379a000000000000000000000000000000000000000000000000000000000\n      dup2\n      mstore\n      0x04\n      add\n      tag_191\n      swap1\n      tag_176\n      jump\t// in\n    tag_191:\n      mload(0x40)\n      dup1\n      swap2\n      sub\n      swap1\n      revert\n    tag_190:\n        /* \"NFT-Contracts/new/finalMarket_single.sol\":16476:16492  address nftBuyer */\n      0x00\n        /* \"NFT-Contracts/new/finalMarket_single.sol\":16495:16517  nftContractAuctionSale */\n      0x01\n        /* \"NFT-Contracts/new/finalMarket_single.sol\":16495:16538  nftContractAuctionSale[_nftContractAddress] */\n      0x00\n        /* \"NFT-Contracts/new/finalMarket_single.sol\":16518:16537  _nftContractAddress */\n      dup9\n        /* \"NFT-Contracts/new/finalMarket_single.sol\":16495:16538  nftContractAuctionSale[_nftContractAddress] */\n      0xffffffffffffffffffffffffffffffffffffffff\n      and\n      0xffffffffffffffffffffffffffffffffffffffff\n      and\n      dup2\n      mstore\n      0x20\n      add\n      swap1\n      dup2\n      mstore\n      0x20\n      add\n      0x00\n      keccak256\n        /* \"NFT-Contracts/new/finalMarket_single.sol\":16495:16548  nftContractAuctionSale[_nftContractAddress][_tokenId] */\n      0x00\n        /* \"NFT-Contracts/new/finalMarket_single.sol\":16539:16547  _tokenId */\n      dup8\n        /* \"NFT-Contracts/new/finalMarket_single.sol\":16495:16548  nftContractAuctionSale[_nftContractAddress][_tokenId] */\n      dup2\n      mstore\n      0x20\n      add\n      swap1\n      dup2\n      mstore\n      0x20\n      add\n      0x00\n      keccak256\n        /* \"NFT-Contracts/new/finalMarket_single.sol\":16495:16579  nftContractAuctionSale[_nftContractAddress][_tokenId]\r... */\n      0x04\n      add\n      0x00\n      swap1\n      sload\n      swap1\n      0x0100\n      exp\n      swap1\n      div\n      0xffffffffffffffffffffffffffffffffffffffff\n      and\n        /* \"NFT-Contracts/new/finalMarket_single.sol\":16476:16579  address nftBuyer = nftContractAuctionSale[_nftContractAddress][_tokenId]\r... */\n      swap1\n      pop\n        /* \"NFT-Contracts/new/finalMarket_single.sol\":16592:16789  _transferNftAndPaySeller(\r... */\n      tag_193\n        /* \"NFT-Contracts/new/finalMarket_single.sol\":16631:16650  _nftContractAddress */\n      dup8\n        /* \"NFT-Contracts/new/finalMarket_single.sol\":16665:16673  _tokenId */\n      dup8\n        /* \"NFT-Contracts/new/finalMarket_single.sol\":16688:16710  nftContractAuctionSale */\n      0x01\n        /* \"NFT-Contracts/new/finalMarket_single.sol\":16688:16731  nftContractAuctionSale[_nftContractAddress] */\n      0x00\n        /* \"NFT-Contracts/new/finalMarket_single.sol\":16711:16730  _nftContractAddress */\n      dup12\n        /* \"NFT-Contracts/new/finalMarket_single.sol\":16688:16731  nftContractAuctionSale[_nftContractAddress] */\n      0xffffffffffffffffffffffffffffffffffffffff\n      and\n      0xffffffffffffffffffffffffffffffffffffffff\n      and\n      dup2\n      mstore\n      0x20\n      add\n      swap1\n      dup2\n      mstore\n      0x20\n      add\n      0x00\n      keccak256\n        /* \"NFT-Contracts/new/finalMarket_single.sol\":16688:16741  nftContractAuctionSale[_nftContractAddress][_tokenId] */\n      0x00\n        /* \"NFT-Contracts/new/finalMarket_single.sol\":16732:16740  _tokenId */\n      dup11\n        /* \"NFT-Contracts/new/finalMarket_single.sol\":16688:16741  nftContractAuctionSale[_nftContractAddress][_tokenId] */\n      dup2\n      mstore\n      0x20\n      add\n      swap1\n      dup2\n      mstore\n      0x20\n      add\n      0x00\n      keccak256\n        /* \"NFT-Contracts/new/finalMarket_single.sol\":16688:16755  nftContractAuctionSale[_nftContractAddress][_tokenId].nftHighestBid */\n      0x03\n      add\n      sload\n        /* \"NFT-Contracts/new/finalMarket_single.sol\":16770:16778  nftBuyer */\n      dup5\n        /* \"NFT-Contracts/new/finalMarket_single.sol\":16592:16616  _transferNftAndPaySeller */\n      tag_194\n        /* \"NFT-Contracts/new/finalMarket_single.sol\":16592:16789  _transferNftAndPaySeller(\r... */\n      jump\t// in\n    tag_193:\n        /* \"NFT-Contracts/new/finalMarket_single.sol\":16863:16864  0 */\n      0x00\n        /* \"NFT-Contracts/new/finalMarket_single.sol\":16802:16819  userBidPriceOnNFT */\n      0x03\n        /* \"NFT-Contracts/new/finalMarket_single.sol\":16802:16840  userBidPriceOnNFT[_nftContractAddress] */\n      0x00\n        /* \"NFT-Contracts/new/finalMarket_single.sol\":16820:16839  _nftContractAddress */\n      dup10\n        /* \"NFT-Contracts/new/finalMarket_single.sol\":16802:16840  userBidPriceOnNFT[_nftContractAddress] */\n      0xffffffffffffffffffffffffffffffffffffffff\n      and\n      0xffffffffffffffffffffffffffffffffffffffff\n      and\n      dup2\n      mstore\n      0x20\n      add\n      swap1\n      dup2\n      mstore\n      0x20\n      add\n      0x00\n      keccak256\n        /* \"NFT-Contracts/new/finalMarket_single.sol\":16802:16850  userBidPriceOnNFT[_nftContractAddress][_tokenId] */\n      0x00\n        /* \"NFT-Contracts/new/finalMarket_single.sol\":16841:16849  _tokenId */\n      dup9\n        /* \"NFT-Contracts/new/finalMarket_single.sol\":16802:16850  userBidPriceOnNFT[_nftContractAddress][_tokenId] */\n      dup2\n      mstore\n      0x20\n      add\n      swap1\n      dup2\n      mstore\n      0x20\n      add\n      0x00\n      keccak256\n        /* \"NFT-Contracts/new/finalMarket_single.sol\":16802:16860  userBidPriceOnNFT[_nftContractAddress][_tokenId][nftBuyer] */\n      0x00\n        /* \"NFT-Contracts/new/finalMarket_single.sol\":16851:16859  nftBuyer */\n      dup4\n        /* \"NFT-Contracts/new/finalMarket_single.sol\":16802:16860  userBidPriceOnNFT[_nftContractAddress][_tokenId][nftBuyer] */\n      0xffffffffffffffffffffffffffffffffffffffff\n      and\n      0xffffffffffffffffffffffffffffffffffffffff\n      and\n      dup2\n      mstore\n      0x20\n      add\n      swap1\n      dup2\n      mstore\n      0x20\n      add\n      0x00\n      keccak256\n        /* \"NFT-Contracts/new/finalMarket_single.sol\":16802:16864  userBidPriceOnNFT[_nftContractAddress][_tokenId][nftBuyer] = 0 */\n      dup2\n      swap1\n      sstore\n      pop\n        /* \"NFT-Contracts/new/finalMarket_single.sol\":16882:16896  auctionSaleNFT */\n      0x07\n        /* \"NFT-Contracts/new/finalMarket_single.sol\":16912:16931  indexAuctionSaleNFT */\n      0x05\n        /* \"NFT-Contracts/new/finalMarket_single.sol\":16912:16952  indexAuctionSaleNFT[_nftContractAddress] */\n      0x00\n        /* \"NFT-Contracts/new/finalMarket_single.sol\":16932:16951  _nftContractAddress */\n      dup10\n        /* \"NFT-Contracts/new/finalMarket_single.sol\":16912:16952  indexAuctionSaleNFT[_nftContractAddress] */\n      0xffffffffffffffffffffffffffffffffffffffff\n      and\n      0xffffffffffffffffffffffffffffffffffffffff\n      and\n      dup2\n      mstore\n      0x20\n      add\n      swap1\n      dup2\n      mstore\n      0x20\n      add\n      0x00\n      keccak256\n        /* \"NFT-Contracts/new/finalMarket_single.sol\":16912:16962  indexAuctionSaleNFT[_nftContractAddress][_tokenId] */\n      0x00\n        /* \"NFT-Contracts/new/finalMarket_single.sol\":16953:16961  _tokenId */\n      dup9\n        /* \"NFT-Contracts/new/finalMarket_single.sol\":16912:16962  indexAuctionSaleNFT[_nftContractAddress][_tokenId] */\n      dup2\n      mstore\n      0x20\n      add\n      swap1\n      dup2\n      mstore\n      0x20\n      add\n      0x00\n      keccak256\n      sload\n        /* \"NFT-Contracts/new/finalMarket_single.sol\":16882:16974  auctionSaleNFT[\r... */\n      dup2\n      sload\n      dup2\n      lt\n      tag_195\n      jumpi\n      tag_196\n      tag_197\n      jump\t// in\n    tag_196:\n    tag_195:\n      swap1\n      0x00\n      mstore\n      keccak256(0x00, 0x20)\n      swap1\n      0x02\n      mul\n      add\n      0x00\n        /* \"NFT-Contracts/new/finalMarket_single.sol\":16875:16974  delete auctionSaleNFT[\r... */\n      dup1\n      dup3\n      add\n      exp(0x0100, 0x00)\n      dup2\n      sload\n      swap1\n      0xffffffffffffffffffffffffffffffffffffffff\n      mul\n      not\n      and\n      swap1\n      sstore\n      0x01\n      dup3\n      add\n      0x00\n      swap1\n      sstore\n      pop\n      pop\n        /* \"NFT-Contracts/new/finalMarket_single.sol\":16992:17259  NftAuctionSettle(\r... */\n      0xb31cb4f6609b11a57d1b6b14cc3f81f4b3e609f709a5b1e46892a45f9cc29ed8\n        /* \"NFT-Contracts/new/finalMarket_single.sol\":17023:17042  _nftContractAddress */\n      dup8\n        /* \"NFT-Contracts/new/finalMarket_single.sol\":17057:17065  _tokenId */\n      dup8\n        /* \"NFT-Contracts/new/finalMarket_single.sol\":17080:17088  nftBuyer */\n      dup4\n        /* \"NFT-Contracts/new/finalMarket_single.sol\":17103:17125  nftContractAuctionSale */\n      0x01\n        /* \"NFT-Contracts/new/finalMarket_single.sol\":17103:17146  nftContractAuctionSale[_nftContractAddress] */\n      0x00\n        /* \"NFT-Contracts/new/finalMarket_single.sol\":17126:17145  _nftContractAddress */\n      dup13\n        /* \"NFT-Contracts/new/finalMarket_single.sol\":17103:17146  nftContractAuctionSale[_nftContractAddress] */\n      0xffffffffffffffffffffffffffffffffffffffff\n      and\n      0xffffffffffffffffffffffffffffffffffffffff\n      and\n      dup2\n      mstore\n      0x20\n      add\n      swap1\n      dup2\n      mstore\n      0x20\n      add\n      0x00\n      keccak256\n        /* \"NFT-Contracts/new/finalMarket_single.sol\":17103:17156  nftContractAuctionSale[_nftContractAddress][_tokenId] */\n      0x00\n        /* \"NFT-Contracts/new/finalMarket_single.sol\":17147:17155  _tokenId */\n      dup12\n        /* \"NFT-Contracts/new/finalMarket_single.sol\":17103:17156  nftContractAuctionSale[_nftContractAddress][_tokenId] */\n      dup2\n      mstore\n      0x20\n      add\n      swap1\n      dup2\n      mstore\n      0x20\n      add\n      0x00\n      keccak256\n        /* \"NFT-Contracts/new/finalMarket_single.sol\":17103:17170  nftContractAuctionSale[_nftContractAddress][_tokenId].nftHighestBid */\n      0x03\n      add\n      sload\n        /* \"NFT-Contracts/new/finalMarket_single.sol\":17185:17207  nftContractAuctionSale */\n      0x01\n        /* \"NFT-Contracts/new/finalMarket_single.sol\":17185:17228  nftContractAuctionSale[_nftContractAddress] */\n      0x00\n        /* \"NFT-Contracts/new/finalMarket_single.sol\":17208:17227  _nftContractAddress */\n      dup14\n        /* \"NFT-Contracts/new/finalMarket_single.sol\":17185:17228  nftContractAuctionSale[_nftContractAddress] */\n      0xffffffffffffffffffffffffffffffffffffffff\n      and\n      0xffffffffffffffffffffffffffffffffffffffff\n      and\n      dup2\n      mstore\n      0x20\n      add\n      swap1\n      dup2\n      mstore\n      0x20\n      add\n      0x00\n      keccak256\n        /* \"NFT-Contracts/new/finalMarket_single.sol\":17185:17238  nftContractAuctionSale[_nftContractAddress][_tokenId] */\n      0x00\n        /* \"NFT-Contracts/new/finalMarket_single.sol\":17229:17237  _tokenId */\n      dup13\n        /* \"NFT-Contracts/new/finalMarket_single.sol\":17185:17238  nftContractAuctionSale[_nftContractAddress][_tokenId] */\n      dup2\n      mstore\n      0x20\n      add\n      swap1\n      dup2\n      mstore\n      0x20\n      add\n      0x00\n      keccak256\n        /* \"NFT-Contracts/new/finalMarket_single.sol\":17185:17248  nftContractAuctionSale[_nftContractAddress][_tokenId].nftSeller */\n      0x05\n      add\n      0x00\n      swap1\n      sload\n      swap1\n      0x0100\n      exp\n      swap1\n      div\n      0xffffffffffffffffffffffffffffffffffffffff\n      and\n        /* \"NFT-Contracts/new/finalMarket_single.sol\":16992:17259  NftAuctionSettle(\r... */\n      mload(0x40)\n      tag_199\n      swap6\n      swap5\n      swap4\n      swap3\n      swap2\n      swap1\n      tag_200\n      jump\t// in\n    tag_199:\n      mload(0x40)\n      dup1\n      swap2\n      sub\n      swap1\n      log1\n        /* \"NFT-Contracts/new/finalMarket_single.sol\":16465:17267  {\r... */\n      pop\n        /* \"NFT-Contracts/new/finalMarket_single.sol\":3961:3962  _ */\n      pop\n      pop\n        /* \"NFT-Contracts/new/finalMarket_single.sol\":16259:17267  function settleAuction(address _nftContractAddress, uint256 _tokenId)\r... */\n      pop\n      pop\n      pop\n      pop\n      jump\t// out\n        /* \"NFT-Contracts/new/finalMarket_single.sol\":1059:1127  mapping(address => mapping(uint256 => uint256)) public nftSaleStatus */\n    tag_60:\n      mstore(0x20, 0x02)\n      dup2\n      0x00\n      mstore\n      mstore(0x20, keccak256(0x00, 0x40))\n      dup1\n      0x00\n      mstore\n      keccak256(0x00, 0x40)\n      0x00\n      swap2\n      pop\n      swap2\n      pop\n      pop\n      sload\n      dup2\n      jump\t// out\n        /* \"NFT-Contracts/new/finalMarket_single.sol\":8235:9370  function nftFixedSale(\r... */\n    tag_67:\n        /* \"NFT-Contracts/new/finalMarket_single.sol\":8429:8448  _nftContractAddress */\n      dup4\n        /* \"NFT-Contracts/new/finalMarket_single.sol\":8450:8458  _tokenId */\n      dup3\n        /* \"NFT-Contracts/new/finalMarket_single.sol\":4108:4127  _nftContractAddress */\n      dup2\n        /* \"NFT-Contracts/new/finalMarket_single.sol\":4100:4136  IERC721(_nftContractAddress).ownerOf */\n      0xffffffffffffffffffffffffffffffffffffffff\n      and\n      0x6352211e\n        /* \"NFT-Contracts/new/finalMarket_single.sol\":4137:4145  _tokenId */\n      dup3\n        /* \"NFT-Contracts/new/finalMarket_single.sol\":4100:4146  IERC721(_nftContractAddress).ownerOf(_tokenId) */\n      mload(0x40)\n      dup3\n      0xffffffff\n      and\n      0xe0\n      shl\n      dup2\n      mstore\n      0x04\n      add\n      tag_202\n      swap2\n      swap1\n      tag_62\n      jump\t// in\n    tag_202:\n      0x20\n      mload(0x40)\n      dup1\n      dup4\n      sub\n      dup2\n      dup7\n      dup1\n      extcodesize\n      iszero\n      dup1\n      iszero\n      tag_203\n      jumpi\n      0x00\n      dup1\n      revert\n    tag_203:\n      pop\n      gas\n      staticcall\n      iszero\n      dup1\n      iszero\n      tag_205\n      jumpi\n      returndatasize\n      0x00\n      dup1\n      returndatacopy\n      revert(0x00, returndatasize)\n    tag_205:\n      pop\n      pop\n      pop\n      pop\n      mload(0x40)\n      returndatasize\n      not(0x1f)\n      0x1f\n      dup3\n      add\n      and\n      dup3\n      add\n      dup1\n      0x40\n      mstore\n      pop\n      dup2\n      add\n      swap1\n      tag_206\n      swap2\n      swap1\n      tag_207\n      jump\t// in\n    tag_206:\n        /* \"NFT-Contracts/new/finalMarket_single.sol\":4086:4146  msg.sender == IERC721(_nftContractAddress).ownerOf(_tokenId) */\n      0xffffffffffffffffffffffffffffffffffffffff\n      and\n        /* \"NFT-Contracts/new/finalMarket_single.sol\":4086:4096  msg.sender */\n      caller\n        /* \"NFT-Contracts/new/finalMarket_single.sol\":4086:4146  msg.sender == IERC721(_nftContractAddress).ownerOf(_tokenId) */\n      0xffffffffffffffffffffffffffffffffffffffff\n      and\n      eq\n        /* \"NFT-Contracts/new/finalMarket_single.sol\":4064:4195  require(\r... */\n      tag_208\n      jumpi\n      mload(0x40)\n      0x08c379a000000000000000000000000000000000000000000000000000000000\n      dup2\n      mstore\n      0x04\n      add\n      tag_209\n      swap1\n      tag_166\n      jump\t// in\n    tag_209:\n      mload(0x40)\n      dup1\n      swap2\n      sub\n      swap1\n      revert\n    tag_208:\n        /* \"NFT-Contracts/new/finalMarket_single.sol\":8488:8507  _nftContractAddress */\n      dup6\n        /* \"NFT-Contracts/new/finalMarket_single.sol\":8509:8517  _tokenId */\n      dup5\n        /* \"NFT-Contracts/new/finalMarket_single.sol\":3434:3435  0 */\n      0x00\n        /* \"NFT-Contracts/new/finalMarket_single.sol\":3386:3399  nftSaleStatus */\n      0x02\n        /* \"NFT-Contracts/new/finalMarket_single.sol\":3386:3420  nftSaleStatus[_nftContractAddress] */\n      0x00\n        /* \"NFT-Contracts/new/finalMarket_single.sol\":3400:3419  _nftContractAddress */\n      dup5\n        /* \"NFT-Contracts/new/finalMarket_single.sol\":3386:3420  nftSaleStatus[_nftContractAddress] */\n      0xffffffffffffffffffffffffffffffffffffffff\n      and\n      0xffffffffffffffffffffffffffffffffffffffff\n      and\n      dup2\n      mstore\n      0x20\n      add\n      swap1\n      dup2\n      mstore\n      0x20\n      add\n      0x00\n      keccak256\n        /* \"NFT-Contracts/new/finalMarket_single.sol\":3386:3430  nftSaleStatus[_nftContractAddress][_tokenId] */\n      0x00\n        /* \"NFT-Contracts/new/finalMarket_single.sol\":3421:3429  _tokenId */\n      dup4\n        /* \"NFT-Contracts/new/finalMarket_single.sol\":3386:3430  nftSaleStatus[_nftContractAddress][_tokenId] */\n      dup2\n      mstore\n      0x20\n      add\n      swap1\n      dup2\n      mstore\n      0x20\n      add\n      0x00\n      keccak256\n      sload\n        /* \"NFT-Contracts/new/finalMarket_single.sol\":3386:3435  nftSaleStatus[_nftContractAddress][_tokenId] == 0 */\n      eq\n        /* \"NFT-Contracts/new/finalMarket_single.sol\":3364:3482  require(\r... */\n      tag_211\n      jumpi\n      mload(0x40)\n      0x08c379a000000000000000000000000000000000000000000000000000000000\n      dup2\n      mstore\n      0x04\n      add\n      tag_212\n      swap1\n      tag_213\n      jump\t// in\n    tag_212:\n      mload(0x40)\n      dup1\n      swap2\n      sub\n      swap1\n      revert\n    tag_211:\n        /* \"NFT-Contracts/new/finalMarket_single.sol\":8546:8565  _nftContractAddress */\n      dup8\n        /* \"NFT-Contracts/new/finalMarket_single.sol\":8567:8575  _tokenId */\n      dup7\n        /* \"NFT-Contracts/new/finalMarket_single.sol\":4615:4634  _nftContractAddress */\n      dup2\n        /* \"NFT-Contracts/new/finalMarket_single.sol\":4607:4652  IERC721(_nftContractAddress).isApprovedForAll */\n      0xffffffffffffffffffffffffffffffffffffffff\n      and\n      0xe985e9c5\n        /* \"NFT-Contracts/new/finalMarket_single.sol\":4671:4681  msg.sender */\n      caller\n        /* \"NFT-Contracts/new/finalMarket_single.sol\":4708:4712  this */\n      address\n        /* \"NFT-Contracts/new/finalMarket_single.sol\":4607:4728  IERC721(_nftContractAddress).isApprovedForAll(\r... */\n      mload(0x40)\n      dup4\n      0xffffffff\n      and\n      0xe0\n      shl\n      dup2\n      mstore\n      0x04\n      add\n      tag_215\n      swap3\n      swap2\n      swap1\n      tag_216\n      jump\t// in\n    tag_215:\n      0x20\n      mload(0x40)\n      dup1\n      dup4\n      sub\n      dup2\n      dup7\n      dup1\n      extcodesize\n      iszero\n      dup1\n      iszero\n      tag_217\n      jumpi\n      0x00\n      dup1\n      revert\n    tag_217:\n      pop\n      gas\n      staticcall\n      iszero\n      dup1\n      iszero\n      tag_219\n      jumpi\n      returndatasize\n      0x00\n      dup1\n      returndatacopy\n      revert(0x00, returndatasize)\n    tag_219:\n      pop\n      pop\n      pop\n      pop\n      mload(0x40)\n      returndatasize\n      not(0x1f)\n      0x1f\n      dup3\n      add\n      and\n      dup3\n      add\n      dup1\n      0x40\n      mstore\n      pop\n      dup2\n      add\n      swap1\n      tag_220\n      swap2\n      swap1\n      tag_221\n      jump\t// in\n    tag_220:\n        /* \"NFT-Contracts/new/finalMarket_single.sol\":4585:4784  require(\r... */\n      tag_222\n      jumpi\n      mload(0x40)\n      0x08c379a000000000000000000000000000000000000000000000000000000000\n      dup2\n      mstore\n      0x04\n      add\n      tag_223\n      swap1\n      tag_224\n      jump\t// in\n    tag_223:\n      mload(0x40)\n      dup1\n      swap2\n      sub\n      swap1\n      revert\n    tag_222:\n        /* \"NFT-Contracts/new/finalMarket_single.sol\":8607:8617  _salePrice */\n      dup7\n        /* \"NFT-Contracts/new/finalMarket_single.sol\":8147:8148  0 */\n      0x00\n        /* \"NFT-Contracts/new/finalMarket_single.sol\":8138:8144  _price */\n      dup2\n        /* \"NFT-Contracts/new/finalMarket_single.sol\":8138:8148  _price > 0 */\n      gt\n        /* \"NFT-Contracts/new/finalMarket_single.sol\":8130:8170  require(_price > 0, \"Price cannot be 0\") */\n      tag_226\n      jumpi\n      mload(0x40)\n      0x08c379a000000000000000000000000000000000000000000000000000000000\n      dup2\n      mstore\n      0x04\n      add\n      tag_227\n      swap1\n      tag_118\n      jump\t// in\n    tag_227:\n      mload(0x40)\n      dup1\n      swap2\n      sub\n      swap1\n      revert\n    tag_226:\n        /* \"NFT-Contracts/new/finalMarket_single.sol\":8689:8805  FixedSale(\r... */\n      mload(0x40)\n      dup1\n      0x80\n      add\n      0x40\n      mstore\n      dup1\n        /* \"NFT-Contracts/new/finalMarket_single.sol\":8713:8723  msg.sender */\n      caller\n        /* \"NFT-Contracts/new/finalMarket_single.sol\":8689:8805  FixedSale(\r... */\n      0xffffffffffffffffffffffffffffffffffffffff\n      and\n      dup2\n      mstore\n      0x20\n      add\n        /* \"NFT-Contracts/new/finalMarket_single.sol\":8746:8747  0 */\n      0x00\n        /* \"NFT-Contracts/new/finalMarket_single.sol\":8689:8805  FixedSale(\r... */\n      0xffffffffffffffffffffffffffffffffffffffff\n      and\n      dup2\n      mstore\n      0x20\n      add\n        /* \"NFT-Contracts/new/finalMarket_single.sol\":8763:8769  _erc20 */\n      dup12\n        /* \"NFT-Contracts/new/finalMarket_single.sol\":8689:8805  FixedSale(\r... */\n      0xffffffffffffffffffffffffffffffffffffffff\n      and\n      dup2\n      mstore\n      0x20\n      add\n        /* \"NFT-Contracts/new/finalMarket_single.sol\":8784:8794  _salePrice */\n      dup10\n        /* \"NFT-Contracts/new/finalMarket_single.sol\":8689:8805  FixedSale(\r... */\n      dup2\n      mstore\n      pop\n        /* \"NFT-Contracts/new/finalMarket_single.sol\":8635:8655  nftContractFixedSale */\n      0x00\n        /* \"NFT-Contracts/new/finalMarket_single.sol\":8635:8676  nftContractFixedSale[_nftContractAddress] */\n      dup1\n        /* \"NFT-Contracts/new/finalMarket_single.sol\":8656:8675  _nftContractAddress */\n      dup14\n        /* \"NFT-Contracts/new/finalMarket_single.sol\":8635:8676  nftContractFixedSale[_nftContractAddress] */\n      0xffffffffffffffffffffffffffffffffffffffff\n      and\n      0xffffffffffffffffffffffffffffffffffffffff\n      and\n      dup2\n      mstore\n      0x20\n      add\n      swap1\n      dup2\n      mstore\n      0x20\n      add\n      0x00\n      keccak256\n        /* \"NFT-Contracts/new/finalMarket_single.sol\":8635:8686  nftContractFixedSale[_nftContractAddress][_tokenId] */\n      0x00\n        /* \"NFT-Contracts/new/finalMarket_single.sol\":8677:8685  _tokenId */\n      dup12\n        /* \"NFT-Contracts/new/finalMarket_single.sol\":8635:8686  nftContractFixedSale[_nftContractAddress][_tokenId] */\n      dup2\n      mstore\n      0x20\n      add\n      swap1\n      dup2\n      mstore\n      0x20\n      add\n      0x00\n      keccak256\n        /* \"NFT-Contracts/new/finalMarket_single.sol\":8635:8805  nftContractFixedSale[_nftContractAddress][_tokenId] = FixedSale(\r... */\n      0x00\n      dup3\n      add\n      mload\n      dup2\n      0x00\n      add\n      exp(0x0100, 0x00)\n      dup2\n      sload\n      dup2\n      0xffffffffffffffffffffffffffffffffffffffff\n      mul\n      not\n      and\n      swap1\n      dup4\n      0xffffffffffffffffffffffffffffffffffffffff\n      and\n      mul\n      or\n      swap1\n      sstore\n      pop\n      0x20\n      dup3\n      add\n      mload\n      dup2\n      0x01\n      add\n      exp(0x0100, 0x00)\n      dup2\n      sload\n      dup2\n      0xffffffffffffffffffffffffffffffffffffffff\n      mul\n      not\n      and\n      swap1\n      dup4\n      0xffffffffffffffffffffffffffffffffffffffff\n      and\n      mul\n      or\n      swap1\n      sstore\n      pop\n      0x40\n      dup3\n      add\n      mload\n      dup2\n      0x02\n      add\n      exp(0x0100, 0x00)\n      dup2\n      sload\n      dup2\n      0xffffffffffffffffffffffffffffffffffffffff\n      mul\n      not\n      and\n      swap1\n      dup4\n      0xffffffffffffffffffffffffffffffffffffffff\n      and\n      mul\n      or\n      swap1\n      sstore\n      pop\n      0x60\n      dup3\n      add\n      mload\n      dup2\n      0x03\n      add\n      sstore\n      swap1\n      pop\n      pop\n        /* \"NFT-Contracts/new/finalMarket_single.sol\":8865:8866  1 */\n      0x01\n        /* \"NFT-Contracts/new/finalMarket_single.sol\":8818:8831  nftSaleStatus */\n      0x02\n        /* \"NFT-Contracts/new/finalMarket_single.sol\":8818:8852  nftSaleStatus[_nftContractAddress] */\n      0x00\n        /* \"NFT-Contracts/new/finalMarket_single.sol\":8832:8851  _nftContractAddress */\n      dup14\n        /* \"NFT-Contracts/new/finalMarket_single.sol\":8818:8852  nftSaleStatus[_nftContractAddress] */\n      0xffffffffffffffffffffffffffffffffffffffff\n      and\n      0xffffffffffffffffffffffffffffffffffffffff\n      and\n      dup2\n      mstore\n      0x20\n      add\n      swap1\n      dup2\n      mstore\n      0x20\n      add\n      0x00\n      keccak256\n        /* \"NFT-Contracts/new/finalMarket_single.sol\":8818:8862  nftSaleStatus[_nftContractAddress][_tokenId] */\n      0x00\n        /* \"NFT-Contracts/new/finalMarket_single.sol\":8853:8861  _tokenId */\n      dup12\n        /* \"NFT-Contracts/new/finalMarket_single.sol\":8818:8862  nftSaleStatus[_nftContractAddress][_tokenId] */\n      dup2\n      mstore\n      0x20\n      add\n      swap1\n      dup2\n      mstore\n      0x20\n      add\n      0x00\n      keccak256\n        /* \"NFT-Contracts/new/finalMarket_single.sol\":8818:8866  nftSaleStatus[_nftContractAddress][_tokenId] = 1 */\n      dup2\n      swap1\n      sstore\n      pop\n        /* \"NFT-Contracts/new/finalMarket_single.sol\":8930:8942  fixedSaleNFT */\n      0x06\n        /* \"NFT-Contracts/new/finalMarket_single.sol\":8930:8949  fixedSaleNFT.length */\n      dup1\n      sload\n      swap1\n      pop\n        /* \"NFT-Contracts/new/finalMarket_single.sol\":8879:8896  indexFixedSaleNFT */\n      0x04\n        /* \"NFT-Contracts/new/finalMarket_single.sol\":8879:8917  indexFixedSaleNFT[_nftContractAddress] */\n      0x00\n        /* \"NFT-Contracts/new/finalMarket_single.sol\":8897:8916  _nftContractAddress */\n      dup14\n        /* \"NFT-Contracts/new/finalMarket_single.sol\":8879:8917  indexFixedSaleNFT[_nftContractAddress] */\n      0xffffffffffffffffffffffffffffffffffffffff\n      and\n      0xffffffffffffffffffffffffffffffffffffffff\n      and\n      dup2\n      mstore\n      0x20\n      add\n      swap1\n      dup2\n      mstore\n      0x20\n      add\n      0x00\n      keccak256\n        /* \"NFT-Contracts/new/finalMarket_single.sol\":8879:8927  indexFixedSaleNFT[_nftContractAddress][_tokenId] */\n      0x00\n        /* \"NFT-Contracts/new/finalMarket_single.sol\":8918:8926  _tokenId */\n      dup12\n        /* \"NFT-Contracts/new/finalMarket_single.sol\":8879:8927  indexFixedSaleNFT[_nftContractAddress][_tokenId] */\n      dup2\n      mstore\n      0x20\n      add\n      swap1\n      dup2\n      mstore\n      0x20\n      add\n      0x00\n      keccak256\n        /* \"NFT-Contracts/new/finalMarket_single.sol\":8879:8949  indexFixedSaleNFT[_nftContractAddress][_tokenId] = fixedSaleNFT.length */\n      dup2\n      swap1\n      sstore\n      pop\n        /* \"NFT-Contracts/new/finalMarket_single.sol\":8960:8972  fixedSaleNFT */\n      0x06\n        /* \"NFT-Contracts/new/finalMarket_single.sol\":8978:9017  SaleInfo(_nftContractAddress, _tokenId) */\n      mload(0x40)\n      dup1\n      0x40\n      add\n      0x40\n      mstore\n      dup1\n        /* \"NFT-Contracts/new/finalMarket_single.sol\":8987:9006  _nftContractAddress */\n      dup14\n        /* \"NFT-Contracts/new/finalMarket_single.sol\":8978:9017  SaleInfo(_nftContractAddress, _tokenId) */\n      0xffffffffffffffffffffffffffffffffffffffff\n      and\n      dup2\n      mstore\n      0x20\n      add\n        /* \"NFT-Contracts/new/finalMarket_single.sol\":9008:9016  _tokenId */\n      dup12\n        /* \"NFT-Contracts/new/finalMarket_single.sol\":8978:9017  SaleInfo(_nftContractAddress, _tokenId) */\n      dup2\n      mstore\n      pop\n        /* \"NFT-Contracts/new/finalMarket_single.sol\":8960:9018  fixedSaleNFT.push(SaleInfo(_nftContractAddress, _tokenId)) */\n      swap1\n      dup1\n      0x01\n      dup2\n      sload\n      add\n      dup1\n      dup3\n      sstore\n      dup1\n      swap2\n      pop\n      pop\n      0x01\n      swap1\n      sub\n      swap1\n      0x00\n      mstore\n      keccak256(0x00, 0x20)\n      swap1\n      0x02\n      mul\n      add\n      0x00\n      swap1\n      swap2\n      swap1\n      swap2\n      swap1\n      swap2\n      pop\n      0x00\n      dup3\n      add\n      mload\n      dup2\n      0x00\n      add\n      exp(0x0100, 0x00)\n      dup2\n      sload\n      dup2\n      0xffffffffffffffffffffffffffffffffffffffff\n      mul\n      not\n      and\n      swap1\n      dup4\n      0xffffffffffffffffffffffffffffffffffffffff\n      and\n      mul\n      or\n      swap1\n      sstore\n      pop\n      0x20\n      dup3\n      add\n      mload\n      dup2\n      0x01\n      add\n      sstore\n      pop\n      pop\n        /* \"NFT-Contracts/new/finalMarket_single.sol\":9039:9058  _nftContractAddress */\n      dup11\n        /* \"NFT-Contracts/new/finalMarket_single.sol\":9031:9076  IERC721(_nftContractAddress).safeTransferFrom */\n      0xffffffffffffffffffffffffffffffffffffffff\n      and\n      0x42842e0e\n        /* \"NFT-Contracts/new/finalMarket_single.sol\":9091:9101  msg.sender */\n      caller\n        /* \"NFT-Contracts/new/finalMarket_single.sol\":9124:9128  this */\n      address\n        /* \"NFT-Contracts/new/finalMarket_single.sol\":9144:9152  _tokenId */\n      dup13\n        /* \"NFT-Contracts/new/finalMarket_single.sol\":9031:9163  IERC721(_nftContractAddress).safeTransferFrom(\r... */\n      mload(0x40)\n      dup5\n      0xffffffff\n      and\n      0xe0\n      shl\n      dup2\n      mstore\n      0x04\n      add\n      tag_230\n      swap4\n      swap3\n      swap2\n      swap1\n      tag_231\n      jump\t// in\n    tag_230:\n      0x00\n      mload(0x40)\n      dup1\n      dup4\n      sub\n      dup2\n      0x00\n      dup8\n      dup1\n      extcodesize\n      iszero\n      dup1\n      iszero\n      tag_232\n      jumpi\n      0x00\n      dup1\n      revert\n    tag_232:\n      pop\n      gas\n      call\n      iszero\n      dup1\n      iszero\n      tag_234\n      jumpi\n      returndatasize\n      0x00\n      dup1\n      returndatacopy\n      revert(0x00, returndatasize)\n    tag_234:\n      pop\n      pop\n      pop\n      pop\n        /* \"NFT-Contracts/new/finalMarket_single.sol\":9181:9362  NftFixedSale(\r... */\n      0x078eead3cd01ed921c7653d000a6b73aea643a7b9c066fb7d93eb2eae8acc2d9\n        /* \"NFT-Contracts/new/finalMarket_single.sol\":9208:9227  _nftContractAddress */\n      dup12\n        /* \"NFT-Contracts/new/finalMarket_single.sol\":9242:9252  msg.sender */\n      caller\n        /* \"NFT-Contracts/new/finalMarket_single.sol\":9267:9273  _erc20 */\n      dup13\n        /* \"NFT-Contracts/new/finalMarket_single.sol\":9288:9296  _tokenId */\n      dup13\n        /* \"NFT-Contracts/new/finalMarket_single.sol\":9311:9321  _salePrice */\n      dup13\n        /* \"NFT-Contracts/new/finalMarket_single.sol\":9336:9351  block.timestamp */\n      timestamp\n        /* \"NFT-Contracts/new/finalMarket_single.sol\":9181:9362  NftFixedSale(\r... */\n      mload(0x40)\n      tag_235\n      swap7\n      swap6\n      swap5\n      swap4\n      swap3\n      swap2\n      swap1\n      tag_236\n      jump\t// in\n    tag_235:\n      mload(0x40)\n      dup1\n      swap2\n      sub\n      swap1\n      log1\n        /* \"NFT-Contracts/new/finalMarket_single.sol\":4795:4796  _ */\n      pop\n        /* \"NFT-Contracts/new/finalMarket_single.sol\":3493:3494  _ */\n      pop\n      pop\n        /* \"NFT-Contracts/new/finalMarket_single.sol\":4206:4207  _ */\n      pop\n      pop\n        /* \"NFT-Contracts/new/finalMarket_single.sol\":8235:9370  function nftFixedSale(\r... */\n      pop\n      pop\n      pop\n      pop\n      pop\n      pop\n      jump\t// out\n        /* \"NFT-Contracts/new/finalMarket_single.sol\":18041:18265  function getNftAuctionSaleDetails(\r... */\n    tag_71:\n        /* \"NFT-Contracts/new/finalMarket_single.sol\":18170:18184  Auction memory */\n      tag_237\n      tag_238\n      jump\t// in\n    tag_237:\n        /* \"NFT-Contracts/new/finalMarket_single.sol\":18204:18226  nftContractAuctionSale */\n      0x01\n        /* \"NFT-Contracts/new/finalMarket_single.sol\":18204:18247  nftContractAuctionSale[_nftContractAddress] */\n      0x00\n        /* \"NFT-Contracts/new/finalMarket_single.sol\":18227:18246  _nftContractAddress */\n      dup5\n        /* \"NFT-Contracts/new/finalMarket_single.sol\":18204:18247  nftContractAuctionSale[_nftContractAddress] */\n      0xffffffffffffffffffffffffffffffffffffffff\n      and\n      0xffffffffffffffffffffffffffffffffffffffff\n      and\n      dup2\n      mstore\n      0x20\n      add\n      swap1\n      dup2\n      mstore\n      0x20\n      add\n      0x00\n      keccak256\n        /* \"NFT-Contracts/new/finalMarket_single.sol\":18204:18257  nftContractAuctionSale[_nftContractAddress][_tokenId] */\n      0x00\n        /* \"NFT-Contracts/new/finalMarket_single.sol\":18248:18256  _tokenId */\n      dup4\n        /* \"NFT-Contracts/new/finalMarket_single.sol\":18204:18257  nftContractAuctionSale[_nftContractAddress][_tokenId] */\n      dup2\n      mstore\n      0x20\n      add\n      swap1\n      dup2\n      mstore\n      0x20\n      add\n      0x00\n      keccak256\n        /* \"NFT-Contracts/new/finalMarket_single.sol\":18197:18257  return nftContractAuctionSale[_nftContractAddress][_tokenId] */\n      mload(0x40)\n      dup1\n      0xe0\n      add\n      0x40\n      mstore\n      swap1\n      dup2\n      0x00\n      dup3\n      add\n      sload\n      dup2\n      mstore\n      0x20\n      add\n      0x01\n      dup3\n      add\n      sload\n      dup2\n      mstore\n      0x20\n      add\n      0x02\n      dup3\n      add\n      sload\n      dup2\n      mstore\n      0x20\n      add\n      0x03\n      dup3\n      add\n      sload\n      dup2\n      mstore\n      0x20\n      add\n      0x04\n      dup3\n      add\n      0x00\n      swap1\n      sload\n      swap1\n      0x0100\n      exp\n      swap1\n      div\n      0xffffffffffffffffffffffffffffffffffffffff\n      and\n      0xffffffffffffffffffffffffffffffffffffffff\n      and\n      0xffffffffffffffffffffffffffffffffffffffff\n      and\n      dup2\n      mstore\n      0x20\n      add\n      0x05\n      dup3\n      add\n      0x00\n      swap1\n      sload\n      swap1\n      0x0100\n      exp\n      swap1\n      div\n      0xffffffffffffffffffffffffffffffffffffffff\n      and\n      0xffffffffffffffffffffffffffffffffffffffff\n      and\n      0xffffffffffffffffffffffffffffffffffffffff\n      and\n      dup2\n      mstore\n      0x20\n      add\n      0x06\n      dup3\n      add\n      0x00\n      swap1\n      sload\n      swap1\n      0x0100\n      exp\n      swap1\n      div\n      0xffffffffffffffffffffffffffffffffffffffff\n      and\n      0xffffffffffffffffffffffffffffffffffffffff\n      and\n      0xffffffffffffffffffffffffffffffffffffffff\n      and\n      dup2\n      mstore\n      pop\n      pop\n      swap1\n      pop\n        /* \"NFT-Contracts/new/finalMarket_single.sol\":18041:18265  function getNftAuctionSaleDetails(\r... */\n      swap3\n      swap2\n      pop\n      pop\n      jump\t// out\n        /* \"NFT-Contracts/new/finalMarket_single.sol\":1134:1235  mapping(address => mapping(uint256 => mapping(address => uint256)))\r... */\n    tag_78:\n      mstore(0x20, 0x03)\n      dup3\n      0x00\n      mstore\n      mstore(0x20, keccak256(0x00, 0x40))\n      dup2\n      0x00\n      mstore\n      mstore(0x20, keccak256(0x00, 0x40))\n      dup1\n      0x00\n      mstore\n      keccak256(0x00, 0x40)\n      0x00\n      swap3\n      pop\n      swap3\n      pop\n      pop\n      pop\n      sload\n      dup2\n      jump\t// out\n        /* \"NFT-Contracts/new/finalMarket_single.sol\":15510:16251  function _cancelAuctionSale(address _nftContractAddress, uint256 _tokenId)\r... */\n    tag_83:\n        /* \"NFT-Contracts/new/finalMarket_single.sol\":15631:15650  _nftContractAddress */\n      dup2\n        /* \"NFT-Contracts/new/finalMarket_single.sol\":15652:15660  _tokenId */\n      dup2\n        /* \"NFT-Contracts/new/finalMarket_single.sol\":3898:3899  2 */\n      0x02\n        /* \"NFT-Contracts/new/finalMarket_single.sol\":3850:3863  nftSaleStatus */\n      dup1\n        /* \"NFT-Contracts/new/finalMarket_single.sol\":3850:3884  nftSaleStatus[_nftContractAddress] */\n      0x00\n        /* \"NFT-Contracts/new/finalMarket_single.sol\":3864:3883  _nftContractAddress */\n      dup5\n        /* \"NFT-Contracts/new/finalMarket_single.sol\":3850:3884  nftSaleStatus[_nftContractAddress] */\n      0xffffffffffffffffffffffffffffffffffffffff\n      and\n      0xffffffffffffffffffffffffffffffffffffffff\n      and\n      dup2\n      mstore\n      0x20\n      add\n      swap1\n      dup2\n      mstore\n      0x20\n      add\n      0x00\n      keccak256\n        /* \"NFT-Contracts/new/finalMarket_single.sol\":3850:3894  nftSaleStatus[_nftContractAddress][_tokenId] */\n      0x00\n        /* \"NFT-Contracts/new/finalMarket_single.sol\":3885:3893  _tokenId */\n      dup4\n        /* \"NFT-Contracts/new/finalMarket_single.sol\":3850:3894  nftSaleStatus[_nftContractAddress][_tokenId] */\n      dup2\n      mstore\n      0x20\n      add\n      swap1\n      dup2\n      mstore\n      0x20\n      add\n      0x00\n      keccak256\n      sload\n        /* \"NFT-Contracts/new/finalMarket_single.sol\":3850:3899  nftSaleStatus[_nftContractAddress][_tokenId] == 2 */\n      eq\n        /* \"NFT-Contracts/new/finalMarket_single.sol\":3828:3950  require(\r... */\n      tag_241\n      jumpi\n      mload(0x40)\n      0x08c379a000000000000000000000000000000000000000000000000000000000\n      dup2\n      mstore\n      0x04\n      add\n      tag_242\n      swap1\n      tag_110\n      jump\t// in\n    tag_242:\n      mload(0x40)\n      dup1\n      swap2\n      sub\n      swap1\n      revert\n    tag_241:\n        /* \"NFT-Contracts/new/finalMarket_single.sol\":15693:15712  _nftContractAddress */\n      dup4\n        /* \"NFT-Contracts/new/finalMarket_single.sol\":15714:15722  _tokenId */\n      dup4\n        /* \"NFT-Contracts/new/finalMarket_single.sol\":6387:6409  nftContractAuctionSale */\n      0x01\n        /* \"NFT-Contracts/new/finalMarket_single.sol\":6387:6430  nftContractAuctionSale[_nftContractAddress] */\n      0x00\n        /* \"NFT-Contracts/new/finalMarket_single.sol\":6410:6429  _nftContractAddress */\n      dup4\n        /* \"NFT-Contracts/new/finalMarket_single.sol\":6387:6430  nftContractAuctionSale[_nftContractAddress] */\n      0xffffffffffffffffffffffffffffffffffffffff\n      and\n      0xffffffffffffffffffffffffffffffffffffffff\n      and\n      dup2\n      mstore\n      0x20\n      add\n      swap1\n      dup2\n      mstore\n      0x20\n      add\n      0x00\n      keccak256\n        /* \"NFT-Contracts/new/finalMarket_single.sol\":6387:6440  nftContractAuctionSale[_nftContractAddress][_tokenId] */\n      0x00\n        /* \"NFT-Contracts/new/finalMarket_single.sol\":6431:6439  _tokenId */\n      dup3\n        /* \"NFT-Contracts/new/finalMarket_single.sol\":6387:6440  nftContractAuctionSale[_nftContractAddress][_tokenId] */\n      dup2\n      mstore\n      0x20\n      add\n      swap1\n      dup2\n      mstore\n      0x20\n      add\n      0x00\n      keccak256\n        /* \"NFT-Contracts/new/finalMarket_single.sol\":6387:6450  nftContractAuctionSale[_nftContractAddress][_tokenId].nftSeller */\n      0x05\n      add\n      0x00\n      swap1\n      sload\n      swap1\n      0x0100\n      exp\n      swap1\n      div\n      0xffffffffffffffffffffffffffffffffffffffff\n      and\n        /* \"NFT-Contracts/new/finalMarket_single.sol\":6356:6450  msg.sender ==\r... */\n      0xffffffffffffffffffffffffffffffffffffffff\n      and\n        /* \"NFT-Contracts/new/finalMarket_single.sol\":6356:6366  msg.sender */\n      caller\n        /* \"NFT-Contracts/new/finalMarket_single.sol\":6356:6450  msg.sender ==\r... */\n      0xffffffffffffffffffffffffffffffffffffffff\n      and\n      eq\n        /* \"NFT-Contracts/new/finalMarket_single.sol\":6334:6491  require(\r... */\n      tag_244\n      jumpi\n      mload(0x40)\n      0x08c379a000000000000000000000000000000000000000000000000000000000\n      dup2\n      mstore\n      0x04\n      add\n      tag_245\n      swap1\n      tag_246\n      jump\t// in\n    tag_245:\n      mload(0x40)\n      dup1\n      swap2\n      sub\n      swap1\n      revert\n    tag_244:\n        /* \"NFT-Contracts/new/finalMarket_single.sol\":15750:15769  _nftContractAddress */\n      dup6\n        /* \"NFT-Contracts/new/finalMarket_single.sol\":15771:15779  _tokenId */\n      dup6\n        /* \"NFT-Contracts/new/finalMarket_single.sol\":6067:6089  nftContractAuctionSale */\n      0x01\n        /* \"NFT-Contracts/new/finalMarket_single.sol\":6067:6110  nftContractAuctionSale[_nftContractAddress] */\n      0x00\n        /* \"NFT-Contracts/new/finalMarket_single.sol\":6090:6109  _nftContractAddress */\n      dup4\n        /* \"NFT-Contracts/new/finalMarket_single.sol\":6067:6110  nftContractAuctionSale[_nftContractAddress] */\n      0xffffffffffffffffffffffffffffffffffffffff\n      and\n      0xffffffffffffffffffffffffffffffffffffffff\n      and\n      dup2\n      mstore\n      0x20\n      add\n      swap1\n      dup2\n      mstore\n      0x20\n      add\n      0x00\n      keccak256\n        /* \"NFT-Contracts/new/finalMarket_single.sol\":6067:6120  nftContractAuctionSale[_nftContractAddress][_tokenId] */\n      0x00\n        /* \"NFT-Contracts/new/finalMarket_single.sol\":6111:6119  _tokenId */\n      dup3\n        /* \"NFT-Contracts/new/finalMarket_single.sol\":6067:6120  nftContractAuctionSale[_nftContractAddress][_tokenId] */\n      dup2\n      mstore\n      0x20\n      add\n      swap1\n      dup2\n      mstore\n      0x20\n      add\n      0x00\n      keccak256\n        /* \"NFT-Contracts/new/finalMarket_single.sol\":6067:6153  nftContractAuctionSale[_nftContractAddress][_tokenId]\r... */\n      0x01\n      add\n      sload\n        /* \"NFT-Contracts/new/finalMarket_single.sol\":6032:6047  block.timestamp */\n      timestamp\n        /* \"NFT-Contracts/new/finalMarket_single.sol\":6032:6153  block.timestamp <\r... */\n      lt\n        /* \"NFT-Contracts/new/finalMarket_single.sol\":6010:6192  require(\r... */\n      tag_248\n      jumpi\n      mload(0x40)\n      0x08c379a000000000000000000000000000000000000000000000000000000000\n      dup2\n      mstore\n      0x04\n      add\n      tag_249\n      swap1\n      tag_114\n      jump\t// in\n    tag_249:\n      mload(0x40)\n      dup1\n      swap2\n      sub\n      swap1\n      revert\n    tag_248:\n        /* \"NFT-Contracts/new/finalMarket_single.sol\":15810:15829  _nftContractAddress */\n      dup8\n        /* \"NFT-Contracts/new/finalMarket_single.sol\":15831:15839  _tokenId */\n      dup8\n        /* \"NFT-Contracts/new/finalMarket_single.sol\":7586:7608  nftContractAuctionSale */\n      0x01\n        /* \"NFT-Contracts/new/finalMarket_single.sol\":7586:7629  nftContractAuctionSale[_nftContractAddress] */\n      0x00\n        /* \"NFT-Contracts/new/finalMarket_single.sol\":7609:7628  _nftContractAddress */\n      dup4\n        /* \"NFT-Contracts/new/finalMarket_single.sol\":7586:7629  nftContractAuctionSale[_nftContractAddress] */\n      0xffffffffffffffffffffffffffffffffffffffff\n      and\n      0xffffffffffffffffffffffffffffffffffffffff\n      and\n      dup2\n      mstore\n      0x20\n      add\n      swap1\n      dup2\n      mstore\n      0x20\n      add\n      0x00\n      keccak256\n        /* \"NFT-Contracts/new/finalMarket_single.sol\":7586:7639  nftContractAuctionSale[_nftContractAddress][_tokenId] */\n      0x00\n        /* \"NFT-Contracts/new/finalMarket_single.sol\":7630:7638  _tokenId */\n      dup3\n        /* \"NFT-Contracts/new/finalMarket_single.sol\":7586:7639  nftContractAuctionSale[_nftContractAddress][_tokenId] */\n      dup2\n      mstore\n      0x20\n      add\n      swap1\n      dup2\n      mstore\n      0x20\n      add\n      0x00\n      keccak256\n        /* \"NFT-Contracts/new/finalMarket_single.sol\":7586:7678  nftContractAuctionSale[_nftContractAddress][_tokenId]\r... */\n      0x04\n      add\n      0x00\n      swap1\n      sload\n      swap1\n      0x0100\n      exp\n      swap1\n      div\n      0xffffffffffffffffffffffffffffffffffffffff\n      and\n        /* \"NFT-Contracts/new/finalMarket_single.sol\":7555:7678  address(0) ==\r... */\n      0xffffffffffffffffffffffffffffffffffffffff\n      and\n        /* \"NFT-Contracts/new/finalMarket_single.sol\":7563:7564  0 */\n      0x00\n        /* \"NFT-Contracts/new/finalMarket_single.sol\":7555:7678  address(0) ==\r... */\n      0xffffffffffffffffffffffffffffffffffffffff\n      and\n      eq\n        /* \"NFT-Contracts/new/finalMarket_single.sol\":7533:7714  require(\r... */\n      tag_251\n      jumpi\n      mload(0x40)\n      0x08c379a000000000000000000000000000000000000000000000000000000000\n      dup2\n      mstore\n      0x04\n      add\n      tag_252\n      swap1\n      tag_253\n      jump\t// in\n    tag_252:\n      mload(0x40)\n      dup1\n      swap2\n      sub\n      swap1\n      revert\n    tag_251:\n        /* \"NFT-Contracts/new/finalMarket_single.sol\":15904:15905  0 */\n      0x00\n        /* \"NFT-Contracts/new/finalMarket_single.sol\":15857:15870  nftSaleStatus */\n      0x02\n        /* \"NFT-Contracts/new/finalMarket_single.sol\":15857:15891  nftSaleStatus[_nftContractAddress] */\n      0x00\n        /* \"NFT-Contracts/new/finalMarket_single.sol\":15871:15890  _nftContractAddress */\n      dup13\n        /* \"NFT-Contracts/new/finalMarket_single.sol\":15857:15891  nftSaleStatus[_nftContractAddress] */\n      0xffffffffffffffffffffffffffffffffffffffff\n      and\n      0xffffffffffffffffffffffffffffffffffffffff\n      and\n      dup2\n      mstore\n      0x20\n      add\n      swap1\n      dup2\n      mstore\n      0x20\n      add\n      0x00\n      keccak256\n        /* \"NFT-Contracts/new/finalMarket_single.sol\":15857:15901  nftSaleStatus[_nftContractAddress][_tokenId] */\n      0x00\n        /* \"NFT-Contracts/new/finalMarket_single.sol\":15892:15900  _tokenId */\n      dup12\n        /* \"NFT-Contracts/new/finalMarket_single.sol\":15857:15901  nftSaleStatus[_nftContractAddress][_tokenId] */\n      dup2\n      mstore\n      0x20\n      add\n      swap1\n      dup2\n      mstore\n      0x20\n      add\n      0x00\n      keccak256\n        /* \"NFT-Contracts/new/finalMarket_single.sol\":15857:15905  nftSaleStatus[_nftContractAddress][_tokenId] = 0 */\n      dup2\n      swap1\n      sstore\n      pop\n        /* \"NFT-Contracts/new/finalMarket_single.sol\":15926:15945  _nftContractAddress */\n      dup10\n        /* \"NFT-Contracts/new/finalMarket_single.sol\":15918:15963  IERC721(_nftContractAddress).safeTransferFrom */\n      0xffffffffffffffffffffffffffffffffffffffff\n      and\n      0x42842e0e\n        /* \"NFT-Contracts/new/finalMarket_single.sol\":15986:15990  this */\n      address\n        /* \"NFT-Contracts/new/finalMarket_single.sol\":16006:16016  msg.sender */\n      caller\n        /* \"NFT-Contracts/new/finalMarket_single.sol\":16031:16039  _tokenId */\n      dup13\n        /* \"NFT-Contracts/new/finalMarket_single.sol\":15918:16050  IERC721(_nftContractAddress).safeTransferFrom(\r... */\n      mload(0x40)\n      dup5\n      0xffffffff\n      and\n      0xe0\n      shl\n      dup2\n      mstore\n      0x04\n      add\n      tag_255\n      swap4\n      swap3\n      swap2\n      swap1\n      tag_231\n      jump\t// in\n    tag_255:\n      0x00\n      mload(0x40)\n      dup1\n      dup4\n      sub\n      dup2\n      0x00\n      dup8\n      dup1\n      extcodesize\n      iszero\n      dup1\n      iszero\n      tag_256\n      jumpi\n      0x00\n      dup1\n      revert\n    tag_256:\n      pop\n      gas\n      call\n      iszero\n      dup1\n      iszero\n      tag_258\n      jumpi\n      returndatasize\n      0x00\n      dup1\n      returndatacopy\n      revert(0x00, returndatasize)\n    tag_258:\n      pop\n      pop\n      pop\n      pop\n        /* \"NFT-Contracts/new/finalMarket_single.sol\":16070:16084  auctionSaleNFT */\n      0x07\n        /* \"NFT-Contracts/new/finalMarket_single.sol\":16100:16119  indexAuctionSaleNFT */\n      0x05\n        /* \"NFT-Contracts/new/finalMarket_single.sol\":16100:16140  indexAuctionSaleNFT[_nftContractAddress] */\n      0x00\n        /* \"NFT-Contracts/new/finalMarket_single.sol\":16120:16139  _nftContractAddress */\n      dup13\n        /* \"NFT-Contracts/new/finalMarket_single.sol\":16100:16140  indexAuctionSaleNFT[_nftContractAddress] */\n      0xffffffffffffffffffffffffffffffffffffffff\n      and\n      0xffffffffffffffffffffffffffffffffffffffff\n      and\n      dup2\n      mstore\n      0x20\n      add\n      swap1\n      dup2\n      mstore\n      0x20\n      add\n      0x00\n      keccak256\n        /* \"NFT-Contracts/new/finalMarket_single.sol\":16100:16150  indexAuctionSaleNFT[_nftContractAddress][_tokenId] */\n      0x00\n        /* \"NFT-Contracts/new/finalMarket_single.sol\":16141:16149  _tokenId */\n      dup12\n        /* \"NFT-Contracts/new/finalMarket_single.sol\":16100:16150  indexAuctionSaleNFT[_nftContractAddress][_tokenId] */\n      dup2\n      mstore\n      0x20\n      add\n      swap1\n      dup2\n      mstore\n      0x20\n      add\n      0x00\n      keccak256\n      sload\n        /* \"NFT-Contracts/new/finalMarket_single.sol\":16070:16162  auctionSaleNFT[\r... */\n      dup2\n      sload\n      dup2\n      lt\n      tag_259\n      jumpi\n      tag_260\n      tag_197\n      jump\t// in\n    tag_260:\n    tag_259:\n      swap1\n      0x00\n      mstore\n      keccak256(0x00, 0x20)\n      swap1\n      0x02\n      mul\n      add\n      0x00\n        /* \"NFT-Contracts/new/finalMarket_single.sol\":16063:16162  delete auctionSaleNFT[\r... */\n      dup1\n      dup3\n      add\n      exp(0x0100, 0x00)\n      dup2\n      sload\n      swap1\n      0xffffffffffffffffffffffffffffffffffffffff\n      mul\n      not\n      and\n      swap1\n      sstore\n      0x01\n      dup3\n      add\n      0x00\n      swap1\n      sstore\n      pop\n      pop\n        /* \"NFT-Contracts/new/finalMarket_single.sol\":16180:16243  CancelNftAuctionSale(_nftContractAddress, _tokenId, msg.sender) */\n      0xb9d411977d4ee731f87bb8f16eb6f8c1fb579cff684642052bf6084e6e33238d\n        /* \"NFT-Contracts/new/finalMarket_single.sol\":16201:16220  _nftContractAddress */\n      dup11\n        /* \"NFT-Contracts/new/finalMarket_single.sol\":16222:16230  _tokenId */\n      dup11\n        /* \"NFT-Contracts/new/finalMarket_single.sol\":16232:16242  msg.sender */\n      caller\n        /* \"NFT-Contracts/new/finalMarket_single.sol\":16180:16243  CancelNftAuctionSale(_nftContractAddress, _tokenId, msg.sender) */\n      mload(0x40)\n      tag_262\n      swap4\n      swap3\n      swap2\n      swap1\n      tag_185\n      jump\t// in\n    tag_262:\n      mload(0x40)\n      dup1\n      swap2\n      sub\n      swap1\n      log1\n        /* \"NFT-Contracts/new/finalMarket_single.sol\":6203:6204  _ */\n      pop\n      pop\n        /* \"NFT-Contracts/new/finalMarket_single.sol\":6502:6503  _ */\n      pop\n      pop\n        /* \"NFT-Contracts/new/finalMarket_single.sol\":3961:3962  _ */\n      pop\n      pop\n        /* \"NFT-Contracts/new/finalMarket_single.sol\":15510:16251  function _cancelAuctionSale(address _nftContractAddress, uint256 _tokenId)\r... */\n      pop\n      pop\n      pop\n      pop\n      jump\t// out\n        /* \"NFT-Contracts/new/finalMarket_single.sol\":18507:18726  function getFixedSale(address _nftContractAddress, uint256 _tokenId)\r... */\n    tag_87:\n        /* \"NFT-Contracts/new/finalMarket_single.sol\":18626:18642  FixedSale memory */\n      tag_263\n      tag_264\n      jump\t// in\n    tag_263:\n        /* \"NFT-Contracts/new/finalMarket_single.sol\":18667:18687  nftContractFixedSale */\n      0x00\n        /* \"NFT-Contracts/new/finalMarket_single.sol\":18667:18708  nftContractFixedSale[_nftContractAddress] */\n      dup1\n        /* \"NFT-Contracts/new/finalMarket_single.sol\":18688:18707  _nftContractAddress */\n      dup5\n        /* \"NFT-Contracts/new/finalMarket_single.sol\":18667:18708  nftContractFixedSale[_nftContractAddress] */\n      0xffffffffffffffffffffffffffffffffffffffff\n      and\n      0xffffffffffffffffffffffffffffffffffffffff\n      and\n      dup2\n      mstore\n      0x20\n      add\n      swap1\n      dup2\n      mstore\n      0x20\n      add\n      0x00\n      keccak256\n        /* \"NFT-Contracts/new/finalMarket_single.sol\":18667:18718  nftContractFixedSale[_nftContractAddress][_tokenId] */\n      0x00\n        /* \"NFT-Contracts/new/finalMarket_single.sol\":18709:18717  _tokenId */\n      dup4\n        /* \"NFT-Contracts/new/finalMarket_single.sol\":18667:18718  nftContractFixedSale[_nftContractAddress][_tokenId] */\n      dup2\n      mstore\n      0x20\n      add\n      swap1\n      dup2\n      mstore\n      0x20\n      add\n      0x00\n      keccak256\n        /* \"NFT-Contracts/new/finalMarket_single.sol\":18660:18718  return nftContractFixedSale[_nftContractAddress][_tokenId] */\n      mload(0x40)\n      dup1\n      0x80\n      add\n      0x40\n      mstore\n      swap1\n      dup2\n      0x00\n      dup3\n      add\n      0x00\n      swap1\n      sload\n      swap1\n      0x0100\n      exp\n      swap1\n      div\n      0xffffffffffffffffffffffffffffffffffffffff\n      and\n      0xffffffffffffffffffffffffffffffffffffffff\n      and\n      0xffffffffffffffffffffffffffffffffffffffff\n      and\n      dup2\n      mstore\n      0x20\n      add\n      0x01\n      dup3\n      add\n      0x00\n      swap1\n      sload\n      swap1\n      0x0100\n      exp\n      swap1\n      div\n      0xffffffffffffffffffffffffffffffffffffffff\n      and\n      0xffffffffffffffffffffffffffffffffffffffff\n      and\n      0xffffffffffffffffffffffffffffffffffffffff\n      and\n      dup2\n      mstore\n      0x20\n      add\n      0x02\n      dup3\n      add\n      0x00\n      swap1\n      sload\n      swap1\n      0x0100\n      exp\n      swap1\n      div\n      0xffffffffffffffffffffffffffffffffffffffff\n      and\n      0xffffffffffffffffffffffffffffffffffffffff\n      and\n      0xffffffffffffffffffffffffffffffffffffffff\n      and\n      dup2\n      mstore\n      0x20\n      add\n      0x03\n      dup3\n      add\n      sload\n      dup2\n      mstore\n      pop\n      pop\n      swap1\n      pop\n        /* \"NFT-Contracts/new/finalMarket_single.sol\":18507:18726  function getFixedSale(address _nftContractAddress, uint256 _tokenId)\r... */\n      swap3\n      swap2\n      pop\n      pop\n      jump\t// out\n        /* \"NFT-Contracts/new/finalMarket_single.sol\":18392:18499  function getFixedSaleNFT() external view returns (SaleInfo[] memory) {\r... */\n    tag_92:\n        /* \"NFT-Contracts/new/finalMarket_single.sol\":18442:18459  SaleInfo[] memory */\n      0x60\n        /* \"NFT-Contracts/new/finalMarket_single.sol\":18479:18491  fixedSaleNFT */\n      0x06\n        /* \"NFT-Contracts/new/finalMarket_single.sol\":18472:18491  return fixedSaleNFT */\n      dup1\n      sload\n      dup1\n      0x20\n      mul\n      0x20\n      add\n      mload(0x40)\n      swap1\n      dup2\n      add\n      0x40\n      mstore\n      dup1\n      swap3\n      swap2\n      swap1\n      dup2\n      dup2\n      mstore\n      0x20\n      add\n      0x00\n      swap1\n    tag_267:\n      dup3\n      dup3\n      lt\n      iszero\n      tag_268\n      jumpi\n      dup4\n      dup3\n      swap1\n      0x00\n      mstore\n      keccak256(0x00, 0x20)\n      swap1\n      0x02\n      mul\n      add\n      mload(0x40)\n      dup1\n      0x40\n      add\n      0x40\n      mstore\n      swap1\n      dup2\n      0x00\n      dup3\n      add\n      0x00\n      swap1\n      sload\n      swap1\n      0x0100\n      exp\n      swap1\n      div\n      0xffffffffffffffffffffffffffffffffffffffff\n      and\n      0xffffffffffffffffffffffffffffffffffffffff\n      and\n      0xffffffffffffffffffffffffffffffffffffffff\n      and\n      dup2\n      mstore\n      0x20\n      add\n      0x01\n      dup3\n      add\n      sload\n      dup2\n      mstore\n      pop\n      pop\n      dup2\n      mstore\n      0x20\n      add\n      swap1\n      0x01\n      add\n      swap1\n      jump(tag_267)\n    tag_268:\n      pop\n      pop\n      pop\n      pop\n      swap1\n      pop\n        /* \"NFT-Contracts/new/finalMarket_single.sol\":18392:18499  function getFixedSaleNFT() external view returns (SaleInfo[] memory) {\r... */\n      swap1\n      jump\t// out\n        /* \"NFT-Contracts/new/finalMarket_single.sol\":10558:11697  function buyFromFixedSale(\r... */\n    tag_96:\n        /* \"NFT-Contracts/new/finalMarket_single.sol\":10743:10762  _nftContractAddress */\n      dup3\n        /* \"NFT-Contracts/new/finalMarket_single.sol\":10764:10772  _tokenId */\n      dup3\n        /* \"NFT-Contracts/new/finalMarket_single.sol\":3664:3665  1 */\n      0x01\n        /* \"NFT-Contracts/new/finalMarket_single.sol\":3616:3629  nftSaleStatus */\n      0x02\n        /* \"NFT-Contracts/new/finalMarket_single.sol\":3616:3650  nftSaleStatus[_nftContractAddress] */\n      0x00\n        /* \"NFT-Contracts/new/finalMarket_single.sol\":3630:3649  _nftContractAddress */\n      dup5\n        /* \"NFT-Contracts/new/finalMarket_single.sol\":3616:3650  nftSaleStatus[_nftContractAddress] */\n      0xffffffffffffffffffffffffffffffffffffffff\n      and\n      0xffffffffffffffffffffffffffffffffffffffff\n      and\n      dup2\n      mstore\n      0x20\n      add\n      swap1\n      dup2\n      mstore\n      0x20\n      add\n      0x00\n      keccak256\n        /* \"NFT-Contracts/new/finalMarket_single.sol\":3616:3660  nftSaleStatus[_nftContractAddress][_tokenId] */\n      0x00\n        /* \"NFT-Contracts/new/finalMarket_single.sol\":3651:3659  _tokenId */\n      dup4\n        /* \"NFT-Contracts/new/finalMarket_single.sol\":3616:3660  nftSaleStatus[_nftContractAddress][_tokenId] */\n      dup2\n      mstore\n      0x20\n      add\n      swap1\n      dup2\n      mstore\n      0x20\n      add\n      0x00\n      keccak256\n      sload\n        /* \"NFT-Contracts/new/finalMarket_single.sol\":3616:3665  nftSaleStatus[_nftContractAddress][_tokenId] == 1 */\n      eq\n        /* \"NFT-Contracts/new/finalMarket_single.sol\":3594:3714  require(\r... */\n      tag_271\n      jumpi\n      mload(0x40)\n      0x08c379a000000000000000000000000000000000000000000000000000000000\n      dup2\n      mstore\n      0x04\n      add\n      tag_272\n      swap1\n      tag_162\n      jump\t// in\n    tag_272:\n      mload(0x40)\n      dup1\n      swap2\n      sub\n      swap1\n      revert\n    tag_271:\n        /* \"NFT-Contracts/new/finalMarket_single.sol\":10804:10811  _amount */\n      dup3\n        /* \"NFT-Contracts/new/finalMarket_single.sol\":8147:8148  0 */\n      0x00\n        /* \"NFT-Contracts/new/finalMarket_single.sol\":8138:8144  _price */\n      dup2\n        /* \"NFT-Contracts/new/finalMarket_single.sol\":8138:8148  _price > 0 */\n      gt\n        /* \"NFT-Contracts/new/finalMarket_single.sol\":8130:8170  require(_price > 0, \"Price cannot be 0\") */\n      tag_274\n      jumpi\n      mload(0x40)\n      0x08c379a000000000000000000000000000000000000000000000000000000000\n      dup2\n      mstore\n      0x04\n      add\n      tag_275\n      swap1\n      tag_118\n      jump\t// in\n    tag_275:\n      mload(0x40)\n      dup1\n      swap2\n      sub\n      swap1\n      revert\n    tag_274:\n        /* \"NFT-Contracts/new/finalMarket_single.sol\":10844:10863  _nftContractAddress */\n      dup6\n        /* \"NFT-Contracts/new/finalMarket_single.sol\":10865:10873  _tokenId */\n      dup6\n        /* \"NFT-Contracts/new/finalMarket_single.sol\":10875:10882  _amount */\n      dup6\n        /* \"NFT-Contracts/new/finalMarket_single.sol\":7936:7956  nftContractFixedSale */\n      0x00\n        /* \"NFT-Contracts/new/finalMarket_single.sol\":7936:7977  nftContractFixedSale[_nftContractAddress] */\n      dup1\n        /* \"NFT-Contracts/new/finalMarket_single.sol\":7957:7976  _nftContractAddress */\n      dup5\n        /* \"NFT-Contracts/new/finalMarket_single.sol\":7936:7977  nftContractFixedSale[_nftContractAddress] */\n      0xffffffffffffffffffffffffffffffffffffffff\n      and\n      0xffffffffffffffffffffffffffffffffffffffff\n      and\n      dup2\n      mstore\n      0x20\n      add\n      swap1\n      dup2\n      mstore\n      0x20\n      add\n      0x00\n      keccak256\n        /* \"NFT-Contracts/new/finalMarket_single.sol\":7936:7987  nftContractFixedSale[_nftContractAddress][_tokenId] */\n      0x00\n        /* \"NFT-Contracts/new/finalMarket_single.sol\":7978:7986  _tokenId */\n      dup4\n        /* \"NFT-Contracts/new/finalMarket_single.sol\":7936:7987  nftContractFixedSale[_nftContractAddress][_tokenId] */\n      dup2\n      mstore\n      0x20\n      add\n      swap1\n      dup2\n      mstore\n      0x20\n      add\n      0x00\n      keccak256\n        /* \"NFT-Contracts/new/finalMarket_single.sol\":7936:7997  nftContractFixedSale[_nftContractAddress][_tokenId].salePrice */\n      0x03\n      add\n      sload\n        /* \"NFT-Contracts/new/finalMarket_single.sol\":7906:7915  _buyPrice */\n      dup2\n        /* \"NFT-Contracts/new/finalMarket_single.sol\":7906:7997  _buyPrice >=\r... */\n      lt\n      iszero\n        /* \"NFT-Contracts/new/finalMarket_single.sol\":7884:8045  require(\r... */\n      tag_277\n      jumpi\n      mload(0x40)\n      0x08c379a000000000000000000000000000000000000000000000000000000000\n      dup2\n      mstore\n      0x04\n      add\n      tag_278\n      swap1\n      tag_279\n      jump\t// in\n    tag_278:\n      mload(0x40)\n      dup1\n      swap2\n      sub\n      swap1\n      revert\n    tag_277:\n        /* \"NFT-Contracts/new/finalMarket_single.sol\":10908:10927  _nftContractAddress */\n      dup9\n        /* \"NFT-Contracts/new/finalMarket_single.sol\":10900:10945  IERC721(_nftContractAddress).safeTransferFrom */\n      0xffffffffffffffffffffffffffffffffffffffff\n      and\n      0x42842e0e\n        /* \"NFT-Contracts/new/finalMarket_single.sol\":10968:10972  this */\n      address\n        /* \"NFT-Contracts/new/finalMarket_single.sol\":10988:10998  msg.sender */\n      caller\n        /* \"NFT-Contracts/new/finalMarket_single.sol\":11013:11021  _tokenId */\n      dup12\n        /* \"NFT-Contracts/new/finalMarket_single.sol\":10900:11032  IERC721(_nftContractAddress).safeTransferFrom(\r... */\n      mload(0x40)\n      dup5\n      0xffffffff\n      and\n      0xe0\n      shl\n      dup2\n      mstore\n      0x04\n      add\n      tag_281\n      swap4\n      swap3\n      swap2\n      swap1\n      tag_231\n      jump\t// in\n    tag_281:\n      0x00\n      mload(0x40)\n      dup1\n      dup4\n      sub\n      dup2\n      0x00\n      dup8\n      dup1\n      extcodesize\n      iszero\n      dup1\n      iszero\n      tag_282\n      jumpi\n      0x00\n      dup1\n      revert\n    tag_282:\n      pop\n      gas\n      call\n      iszero\n      dup1\n      iszero\n      tag_284\n      jumpi\n      returndatasize\n      0x00\n      dup1\n      returndatacopy\n      revert(0x00, returndatasize)\n    tag_284:\n      pop\n      pop\n      pop\n      pop\n        /* \"NFT-Contracts/new/finalMarket_single.sol\":11092:11093  0 */\n      0x00\n        /* \"NFT-Contracts/new/finalMarket_single.sol\":11045:11058  nftSaleStatus */\n      0x02\n        /* \"NFT-Contracts/new/finalMarket_single.sol\":11045:11079  nftSaleStatus[_nftContractAddress] */\n      0x00\n        /* \"NFT-Contracts/new/finalMarket_single.sol\":11059:11078  _nftContractAddress */\n      dup12\n        /* \"NFT-Contracts/new/finalMarket_single.sol\":11045:11079  nftSaleStatus[_nftContractAddress] */\n      0xffffffffffffffffffffffffffffffffffffffff\n      and\n      0xffffffffffffffffffffffffffffffffffffffff\n      and\n      dup2\n      mstore\n      0x20\n      add\n      swap1\n      dup2\n      mstore\n      0x20\n      add\n      0x00\n      keccak256\n        /* \"NFT-Contracts/new/finalMarket_single.sol\":11045:11089  nftSaleStatus[_nftContractAddress][_tokenId] */\n      0x00\n        /* \"NFT-Contracts/new/finalMarket_single.sol\":11080:11088  _tokenId */\n      dup11\n        /* \"NFT-Contracts/new/finalMarket_single.sol\":11045:11089  nftSaleStatus[_nftContractAddress][_tokenId] */\n      dup2\n      mstore\n      0x20\n      add\n      swap1\n      dup2\n      mstore\n      0x20\n      add\n      0x00\n      keccak256\n        /* \"NFT-Contracts/new/finalMarket_single.sol\":11045:11093  nftSaleStatus[_nftContractAddress][_tokenId] = 0 */\n      dup2\n      swap1\n      sstore\n      pop\n        /* \"NFT-Contracts/new/finalMarket_single.sol\":11111:11123  fixedSaleNFT */\n      0x06\n        /* \"NFT-Contracts/new/finalMarket_single.sol\":11125:11142  indexFixedSaleNFT */\n      0x04\n        /* \"NFT-Contracts/new/finalMarket_single.sol\":11125:11163  indexFixedSaleNFT[_nftContractAddress] */\n      0x00\n        /* \"NFT-Contracts/new/finalMarket_single.sol\":11143:11162  _nftContractAddress */\n      dup12\n        /* \"NFT-Contracts/new/finalMarket_single.sol\":11125:11163  indexFixedSaleNFT[_nftContractAddress] */\n      0xffffffffffffffffffffffffffffffffffffffff\n      and\n      0xffffffffffffffffffffffffffffffffffffffff\n      and\n      dup2\n      mstore\n      0x20\n      add\n      swap1\n      dup2\n      mstore\n      0x20\n      add\n      0x00\n      keccak256\n        /* \"NFT-Contracts/new/finalMarket_single.sol\":11125:11173  indexFixedSaleNFT[_nftContractAddress][_tokenId] */\n      0x00\n        /* \"NFT-Contracts/new/finalMarket_single.sol\":11164:11172  _tokenId */\n      dup11\n        /* \"NFT-Contracts/new/finalMarket_single.sol\":11125:11173  indexFixedSaleNFT[_nftContractAddress][_tokenId] */\n      dup2\n      mstore\n      0x20\n      add\n      swap1\n      dup2\n      mstore\n      0x20\n      add\n      0x00\n      keccak256\n      sload\n        /* \"NFT-Contracts/new/finalMarket_single.sol\":11111:11175  fixedSaleNFT[(indexFixedSaleNFT[_nftContractAddress][_tokenId])] */\n      dup2\n      sload\n      dup2\n      lt\n      tag_285\n      jumpi\n      tag_286\n      tag_197\n      jump\t// in\n    tag_286:\n    tag_285:\n      swap1\n      0x00\n      mstore\n      keccak256(0x00, 0x20)\n      swap1\n      0x02\n      mul\n      add\n      0x00\n        /* \"NFT-Contracts/new/finalMarket_single.sol\":11104:11175  delete fixedSaleNFT[(indexFixedSaleNFT[_nftContractAddress][_tokenId])] */\n      dup1\n      dup3\n      add\n      exp(0x0100, 0x00)\n      dup2\n      sload\n      swap1\n      0xffffffffffffffffffffffffffffffffffffffff\n      mul\n      not\n      and\n      swap1\n      sstore\n      0x01\n      dup3\n      add\n      0x00\n      swap1\n      sstore\n      pop\n      pop\n        /* \"NFT-Contracts/new/finalMarket_single.sol\":11251:11275  msg\r... */\n      caller\n        /* \"NFT-Contracts/new/finalMarket_single.sol\":11188:11208  nftContractFixedSale */\n      0x00\n        /* \"NFT-Contracts/new/finalMarket_single.sol\":11188:11229  nftContractFixedSale[_nftContractAddress] */\n      dup1\n        /* \"NFT-Contracts/new/finalMarket_single.sol\":11209:11228  _nftContractAddress */\n      dup12\n        /* \"NFT-Contracts/new/finalMarket_single.sol\":11188:11229  nftContractFixedSale[_nftContractAddress] */\n      0xffffffffffffffffffffffffffffffffffffffff\n      and\n      0xffffffffffffffffffffffffffffffffffffffff\n      and\n      dup2\n      mstore\n      0x20\n      add\n      swap1\n      dup2\n      mstore\n      0x20\n      add\n      0x00\n      keccak256\n        /* \"NFT-Contracts/new/finalMarket_single.sol\":11188:11239  nftContractFixedSale[_nftContractAddress][_tokenId] */\n      0x00\n        /* \"NFT-Contracts/new/finalMarket_single.sol\":11230:11238  _tokenId */\n      dup11\n        /* \"NFT-Contracts/new/finalMarket_single.sol\":11188:11239  nftContractFixedSale[_nftContractAddress][_tokenId] */\n      dup2\n      mstore\n      0x20\n      add\n      swap1\n      dup2\n      mstore\n      0x20\n      add\n      0x00\n      keccak256\n        /* \"NFT-Contracts/new/finalMarket_single.sol\":11188:11248  nftContractFixedSale[_nftContractAddress][_tokenId].nftBuyer */\n      0x01\n      add\n      0x00\n        /* \"NFT-Contracts/new/finalMarket_single.sol\":11188:11275  nftContractFixedSale[_nftContractAddress][_tokenId].nftBuyer = msg\r... */\n      0x0100\n      exp\n      dup2\n      sload\n      dup2\n      0xffffffffffffffffffffffffffffffffffffffff\n      mul\n      not\n      and\n      swap1\n      dup4\n      0xffffffffffffffffffffffffffffffffffffffff\n      and\n      mul\n      or\n      swap1\n      sstore\n      pop\n        /* \"NFT-Contracts/new/finalMarket_single.sol\":11288:11537  _isTokenOrCoin(\r... */\n      tag_288\n        /* \"NFT-Contracts/new/finalMarket_single.sol\":11317:11337  nftContractFixedSale */\n      0x00\n        /* \"NFT-Contracts/new/finalMarket_single.sol\":11317:11358  nftContractFixedSale[_nftContractAddress] */\n      dup1\n        /* \"NFT-Contracts/new/finalMarket_single.sol\":11338:11357  _nftContractAddress */\n      dup12\n        /* \"NFT-Contracts/new/finalMarket_single.sol\":11317:11358  nftContractFixedSale[_nftContractAddress] */\n      0xffffffffffffffffffffffffffffffffffffffff\n      and\n      0xffffffffffffffffffffffffffffffffffffffff\n      and\n      dup2\n      mstore\n      0x20\n      add\n      swap1\n      dup2\n      mstore\n      0x20\n      add\n      0x00\n      keccak256\n        /* \"NFT-Contracts/new/finalMarket_single.sol\":11317:11368  nftContractFixedSale[_nftContractAddress][_tokenId] */\n      0x00\n        /* \"NFT-Contracts/new/finalMarket_single.sol\":11359:11367  _tokenId */\n      dup11\n        /* \"NFT-Contracts/new/finalMarket_single.sol\":11317:11368  nftContractFixedSale[_nftContractAddress][_tokenId] */\n      dup2\n      mstore\n      0x20\n      add\n      swap1\n      dup2\n      mstore\n      0x20\n      add\n      0x00\n      keccak256\n        /* \"NFT-Contracts/new/finalMarket_single.sol\":11317:11378  nftContractFixedSale[_nftContractAddress][_tokenId].nftSeller */\n      0x00\n      add\n      0x00\n      swap1\n      sload\n      swap1\n      0x0100\n      exp\n      swap1\n      div\n      0xffffffffffffffffffffffffffffffffffffffff\n      and\n        /* \"NFT-Contracts/new/finalMarket_single.sol\":11393:11413  nftContractFixedSale */\n      0x00\n        /* \"NFT-Contracts/new/finalMarket_single.sol\":11393:11434  nftContractFixedSale[_nftContractAddress] */\n      dup1\n        /* \"NFT-Contracts/new/finalMarket_single.sol\":11414:11433  _nftContractAddress */\n      dup13\n        /* \"NFT-Contracts/new/finalMarket_single.sol\":11393:11434  nftContractFixedSale[_nftContractAddress] */\n      0xffffffffffffffffffffffffffffffffffffffff\n      and\n      0xffffffffffffffffffffffffffffffffffffffff\n      and\n      dup2\n      mstore\n      0x20\n      add\n      swap1\n      dup2\n      mstore\n      0x20\n      add\n      0x00\n      keccak256\n        /* \"NFT-Contracts/new/finalMarket_single.sol\":11393:11444  nftContractFixedSale[_nftContractAddress][_tokenId] */\n      0x00\n        /* \"NFT-Contracts/new/finalMarket_single.sol\":11435:11443  _tokenId */\n      dup12\n        /* \"NFT-Contracts/new/finalMarket_single.sol\":11393:11444  nftContractFixedSale[_nftContractAddress][_tokenId] */\n      dup2\n      mstore\n      0x20\n      add\n      swap1\n      dup2\n      mstore\n      0x20\n      add\n      0x00\n      keccak256\n        /* \"NFT-Contracts/new/finalMarket_single.sol\":11393:11450  nftContractFixedSale[_nftContractAddress][_tokenId].erc20 */\n      0x02\n      add\n      0x00\n      swap1\n      sload\n      swap1\n      0x0100\n      exp\n      swap1\n      div\n      0xffffffffffffffffffffffffffffffffffffffff\n      and\n        /* \"NFT-Contracts/new/finalMarket_single.sol\":11465:11485  nftContractFixedSale */\n      0x00\n        /* \"NFT-Contracts/new/finalMarket_single.sol\":11465:11506  nftContractFixedSale[_nftContractAddress] */\n      dup1\n        /* \"NFT-Contracts/new/finalMarket_single.sol\":11486:11505  _nftContractAddress */\n      dup14\n        /* \"NFT-Contracts/new/finalMarket_single.sol\":11465:11506  nftContractFixedSale[_nftContractAddress] */\n      0xffffffffffffffffffffffffffffffffffffffff\n      and\n      0xffffffffffffffffffffffffffffffffffffffff\n      and\n      dup2\n      mstore\n      0x20\n      add\n      swap1\n      dup2\n      mstore\n      0x20\n      add\n      0x00\n      keccak256\n        /* \"NFT-Contracts/new/finalMarket_single.sol\":11465:11516  nftContractFixedSale[_nftContractAddress][_tokenId] */\n      0x00\n        /* \"NFT-Contracts/new/finalMarket_single.sol\":11507:11515  _tokenId */\n      dup13\n        /* \"NFT-Contracts/new/finalMarket_single.sol\":11465:11516  nftContractFixedSale[_nftContractAddress][_tokenId] */\n      dup2\n      mstore\n      0x20\n      add\n      swap1\n      dup2\n      mstore\n      0x20\n      add\n      0x00\n      keccak256\n        /* \"NFT-Contracts/new/finalMarket_single.sol\":11465:11526  nftContractFixedSale[_nftContractAddress][_tokenId].salePrice */\n      0x03\n      add\n      sload\n        /* \"NFT-Contracts/new/finalMarket_single.sol\":11288:11302  _isTokenOrCoin */\n      tag_289\n        /* \"NFT-Contracts/new/finalMarket_single.sol\":11288:11537  _isTokenOrCoin(\r... */\n      jump\t// in\n    tag_288:\n        /* \"NFT-Contracts/new/finalMarket_single.sol\":11555:11689  NftBuyFromFixedSale(\r... */\n      0x9fa3b1bb9266e05722b54a7a564d02a274bc80d39f4af21e6be405480996ceba\n        /* \"NFT-Contracts/new/finalMarket_single.sol\":11589:11608  _nftContractAddress */\n      dup10\n        /* \"NFT-Contracts/new/finalMarket_single.sol\":11623:11633  msg.sender */\n      caller\n        /* \"NFT-Contracts/new/finalMarket_single.sol\":11648:11656  _tokenId */\n      dup11\n        /* \"NFT-Contracts/new/finalMarket_single.sol\":11671:11678  _amount */\n      dup11\n        /* \"NFT-Contracts/new/finalMarket_single.sol\":11555:11689  NftBuyFromFixedSale(\r... */\n      mload(0x40)\n      tag_290\n      swap5\n      swap4\n      swap3\n      swap2\n      swap1\n      tag_291\n      jump\t// in\n    tag_290:\n      mload(0x40)\n      dup1\n      swap2\n      sub\n      swap1\n      log1\n        /* \"NFT-Contracts/new/finalMarket_single.sol\":8181:8182  _ */\n      pop\n      pop\n      pop\n        /* \"NFT-Contracts/new/finalMarket_single.sol\":3725:3726  _ */\n      pop\n        /* \"NFT-Contracts/new/finalMarket_single.sol\":10558:11697  function buyFromFixedSale(\r... */\n      pop\n      pop\n      pop\n      pop\n      pop\n      jump\t// out\n        /* \"NFT-Contracts/new/finalMarket_single.sol\":11732:12795  function createNftAuctionSale(\r... */\n    tag_101:\n        /* \"NFT-Contracts/new/finalMarket_single.sol\":11995:12014  _nftContractAddress */\n      dup6\n        /* \"NFT-Contracts/new/finalMarket_single.sol\":12016:12024  _tokenId */\n      dup5\n        /* \"NFT-Contracts/new/finalMarket_single.sol\":4108:4127  _nftContractAddress */\n      dup2\n        /* \"NFT-Contracts/new/finalMarket_single.sol\":4100:4136  IERC721(_nftContractAddress).ownerOf */\n      0xffffffffffffffffffffffffffffffffffffffff\n      and\n      0x6352211e\n        /* \"NFT-Contracts/new/finalMarket_single.sol\":4137:4145  _tokenId */\n      dup3\n        /* \"NFT-Contracts/new/finalMarket_single.sol\":4100:4146  IERC721(_nftContractAddress).ownerOf(_tokenId) */\n      mload(0x40)\n      dup3\n      0xffffffff\n      and\n      0xe0\n      shl\n      dup2\n      mstore\n      0x04\n      add\n      tag_293\n      swap2\n      swap1\n      tag_62\n      jump\t// in\n    tag_293:\n      0x20\n      mload(0x40)\n      dup1\n      dup4\n      sub\n      dup2\n      dup7\n      dup1\n      extcodesize\n      iszero\n      dup1\n      iszero\n      tag_294\n      jumpi\n      0x00\n      dup1\n      revert\n    tag_294:\n      pop\n      gas\n      staticcall\n      iszero\n      dup1\n      iszero\n      tag_296\n      jumpi\n      returndatasize\n      0x00\n      dup1\n      returndatacopy\n      revert(0x00, returndatasize)\n    tag_296:\n      pop\n      pop\n      pop\n      pop\n      mload(0x40)\n      returndatasize\n      not(0x1f)\n      0x1f\n      dup3\n      add\n      and\n      dup3\n      add\n      dup1\n      0x40\n      mstore\n      pop\n      dup2\n      add\n      swap1\n      tag_297\n      swap2\n      swap1\n      tag_207\n      jump\t// in\n    tag_297:\n        /* \"NFT-Contracts/new/finalMarket_single.sol\":4086:4146  msg.sender == IERC721(_nftContractAddress).ownerOf(_tokenId) */\n      0xffffffffffffffffffffffffffffffffffffffff\n      and\n        /* \"NFT-Contracts/new/finalMarket_single.sol\":4086:4096  msg.sender */\n      caller\n        /* \"NFT-Contracts/new/finalMarket_single.sol\":4086:4146  msg.sender == IERC721(_nftContractAddress).ownerOf(_tokenId) */\n      0xffffffffffffffffffffffffffffffffffffffff\n      and\n      eq\n        /* \"NFT-Contracts/new/finalMarket_single.sol\":4064:4195  require(\r... */\n      tag_298\n      jumpi\n      mload(0x40)\n      0x08c379a000000000000000000000000000000000000000000000000000000000\n      dup2\n      mstore\n      0x04\n      add\n      tag_299\n      swap1\n      tag_166\n      jump\t// in\n    tag_299:\n      mload(0x40)\n      dup1\n      swap2\n      sub\n      swap1\n      revert\n    tag_298:\n        /* \"NFT-Contracts/new/finalMarket_single.sol\":12054:12073  _nftContractAddress */\n      dup8\n        /* \"NFT-Contracts/new/finalMarket_single.sol\":12075:12083  _tokenId */\n      dup7\n        /* \"NFT-Contracts/new/finalMarket_single.sol\":3434:3435  0 */\n      0x00\n        /* \"NFT-Contracts/new/finalMarket_single.sol\":3386:3399  nftSaleStatus */\n      0x02\n        /* \"NFT-Contracts/new/finalMarket_single.sol\":3386:3420  nftSaleStatus[_nftContractAddress] */\n      0x00\n        /* \"NFT-Contracts/new/finalMarket_single.sol\":3400:3419  _nftContractAddress */\n      dup5\n        /* \"NFT-Contracts/new/finalMarket_single.sol\":3386:3420  nftSaleStatus[_nftContractAddress] */\n      0xffffffffffffffffffffffffffffffffffffffff\n      and\n      0xffffffffffffffffffffffffffffffffffffffff\n      and\n      dup2\n      mstore\n      0x20\n      add\n      swap1\n      dup2\n      mstore\n      0x20\n      add\n      0x00\n      keccak256\n        /* \"NFT-Contracts/new/finalMarket_single.sol\":3386:3430  nftSaleStatus[_nftContractAddress][_tokenId] */\n      0x00\n        /* \"NFT-Contracts/new/finalMarket_single.sol\":3421:3429  _tokenId */\n      dup4\n        /* \"NFT-Contracts/new/finalMarket_single.sol\":3386:3430  nftSaleStatus[_nftContractAddress][_tokenId] */\n      dup2\n      mstore\n      0x20\n      add\n      swap1\n      dup2\n      mstore\n      0x20\n      add\n      0x00\n      keccak256\n      sload\n        /* \"NFT-Contracts/new/finalMarket_single.sol\":3386:3435  nftSaleStatus[_nftContractAddress][_tokenId] == 0 */\n      eq\n        /* \"NFT-Contracts/new/finalMarket_single.sol\":3364:3482  require(\r... */\n      tag_301\n      jumpi\n      mload(0x40)\n      0x08c379a000000000000000000000000000000000000000000000000000000000\n      dup2\n      mstore\n      0x04\n      add\n      tag_302\n      swap1\n      tag_213\n      jump\t// in\n    tag_302:\n      mload(0x40)\n      dup1\n      swap2\n      sub\n      swap1\n      revert\n    tag_301:\n        /* \"NFT-Contracts/new/finalMarket_single.sol\":12112:12131  _nftContractAddress */\n      dup10\n        /* \"NFT-Contracts/new/finalMarket_single.sol\":12133:12141  _tokenId */\n      dup9\n        /* \"NFT-Contracts/new/finalMarket_single.sol\":4615:4634  _nftContractAddress */\n      dup2\n        /* \"NFT-Contracts/new/finalMarket_single.sol\":4607:4652  IERC721(_nftContractAddress).isApprovedForAll */\n      0xffffffffffffffffffffffffffffffffffffffff\n      and\n      0xe985e9c5\n        /* \"NFT-Contracts/new/finalMarket_single.sol\":4671:4681  msg.sender */\n      caller\n        /* \"NFT-Contracts/new/finalMarket_single.sol\":4708:4712  this */\n      address\n        /* \"NFT-Contracts/new/finalMarket_single.sol\":4607:4728  IERC721(_nftContractAddress).isApprovedForAll(\r... */\n      mload(0x40)\n      dup4\n      0xffffffff\n      and\n      0xe0\n      shl\n      dup2\n      mstore\n      0x04\n      add\n      tag_304\n      swap3\n      swap2\n      swap1\n      tag_216\n      jump\t// in\n    tag_304:\n      0x20\n      mload(0x40)\n      dup1\n      dup4\n      sub\n      dup2\n      dup7\n      dup1\n      extcodesize\n      iszero\n      dup1\n      iszero\n      tag_305\n      jumpi\n      0x00\n      dup1\n      revert\n    tag_305:\n      pop\n      gas\n      staticcall\n      iszero\n      dup1\n      iszero\n      tag_307\n      jumpi\n      returndatasize\n      0x00\n      dup1\n      returndatacopy\n      revert(0x00, returndatasize)\n    tag_307:\n      pop\n      pop\n      pop\n      pop\n      mload(0x40)\n      returndatasize\n      not(0x1f)\n      0x1f\n      dup3\n      add\n      and\n      dup3\n      add\n      dup1\n      0x40\n      mstore\n      pop\n      dup2\n      add\n      swap1\n      tag_308\n      swap2\n      swap1\n      tag_221\n      jump\t// in\n    tag_308:\n        /* \"NFT-Contracts/new/finalMarket_single.sol\":4585:4784  require(\r... */\n      tag_309\n      jumpi\n      mload(0x40)\n      0x08c379a000000000000000000000000000000000000000000000000000000000\n      dup2\n      mstore\n      0x04\n      add\n      tag_310\n      swap1\n      tag_224\n      jump\t// in\n    tag_310:\n      mload(0x40)\n      dup1\n      swap2\n      sub\n      swap1\n      revert\n    tag_309:\n        /* \"NFT-Contracts/new/finalMarket_single.sol\":12173:12182  _minPrice */\n      dup7\n        /* \"NFT-Contracts/new/finalMarket_single.sol\":8147:8148  0 */\n      0x00\n        /* \"NFT-Contracts/new/finalMarket_single.sol\":8138:8144  _price */\n      dup2\n        /* \"NFT-Contracts/new/finalMarket_single.sol\":8138:8148  _price > 0 */\n      gt\n        /* \"NFT-Contracts/new/finalMarket_single.sol\":8130:8170  require(_price > 0, \"Price cannot be 0\") */\n      tag_312\n      jumpi\n      mload(0x40)\n      0x08c379a000000000000000000000000000000000000000000000000000000000\n      dup2\n      mstore\n      0x04\n      add\n      tag_313\n      swap1\n      tag_118\n      jump\t// in\n    tag_313:\n      mload(0x40)\n      dup1\n      swap2\n      sub\n      swap1\n      revert\n    tag_312:\n        /* \"NFT-Contracts/new/finalMarket_single.sol\":12200:12391  _storedNftAuctionDetails(\r... */\n      tag_315\n        /* \"NFT-Contracts/new/finalMarket_single.sol\":12239:12258  _nftContractAddress */\n      dup14\n        /* \"NFT-Contracts/new/finalMarket_single.sol\":12273:12279  _erc20 */\n      dup14\n        /* \"NFT-Contracts/new/finalMarket_single.sol\":12294:12302  _tokenId */\n      dup14\n        /* \"NFT-Contracts/new/finalMarket_single.sol\":12317:12330  _auctionStart */\n      dup14\n        /* \"NFT-Contracts/new/finalMarket_single.sol\":12345:12356  _auctionEnd */\n      dup14\n        /* \"NFT-Contracts/new/finalMarket_single.sol\":12371:12380  _minPrice */\n      dup14\n        /* \"NFT-Contracts/new/finalMarket_single.sol\":12200:12224  _storedNftAuctionDetails */\n      tag_316\n        /* \"NFT-Contracts/new/finalMarket_single.sol\":12200:12391  _storedNftAuctionDetails(\r... */\n      jump\t// in\n    tag_315:\n        /* \"NFT-Contracts/new/finalMarket_single.sol\":12457:12471  auctionSaleNFT */\n      0x07\n        /* \"NFT-Contracts/new/finalMarket_single.sol\":12457:12492  auctionSaleNFT\r... */\n      dup1\n      sload\n      swap1\n      pop\n        /* \"NFT-Contracts/new/finalMarket_single.sol\":12404:12423  indexAuctionSaleNFT */\n      0x05\n        /* \"NFT-Contracts/new/finalMarket_single.sol\":12404:12444  indexAuctionSaleNFT[_nftContractAddress] */\n      0x00\n        /* \"NFT-Contracts/new/finalMarket_single.sol\":12424:12443  _nftContractAddress */\n      dup16\n        /* \"NFT-Contracts/new/finalMarket_single.sol\":12404:12444  indexAuctionSaleNFT[_nftContractAddress] */\n      0xffffffffffffffffffffffffffffffffffffffff\n      and\n      0xffffffffffffffffffffffffffffffffffffffff\n      and\n      dup2\n      mstore\n      0x20\n      add\n      swap1\n      dup2\n      mstore\n      0x20\n      add\n      0x00\n      keccak256\n        /* \"NFT-Contracts/new/finalMarket_single.sol\":12404:12454  indexAuctionSaleNFT[_nftContractAddress][_tokenId] */\n      0x00\n        /* \"NFT-Contracts/new/finalMarket_single.sol\":12445:12453  _tokenId */\n      dup14\n        /* \"NFT-Contracts/new/finalMarket_single.sol\":12404:12454  indexAuctionSaleNFT[_nftContractAddress][_tokenId] */\n      dup2\n      mstore\n      0x20\n      add\n      swap1\n      dup2\n      mstore\n      0x20\n      add\n      0x00\n      keccak256\n        /* \"NFT-Contracts/new/finalMarket_single.sol\":12404:12492  indexAuctionSaleNFT[_nftContractAddress][_tokenId] = auctionSaleNFT\r... */\n      dup2\n      swap1\n      sstore\n      pop\n        /* \"NFT-Contracts/new/finalMarket_single.sol\":12503:12517  auctionSaleNFT */\n      0x07\n        /* \"NFT-Contracts/new/finalMarket_single.sol\":12523:12562  SaleInfo(_nftContractAddress, _tokenId) */\n      mload(0x40)\n      dup1\n      0x40\n      add\n      0x40\n      mstore\n      dup1\n        /* \"NFT-Contracts/new/finalMarket_single.sol\":12532:12551  _nftContractAddress */\n      dup16\n        /* \"NFT-Contracts/new/finalMarket_single.sol\":12523:12562  SaleInfo(_nftContractAddress, _tokenId) */\n      0xffffffffffffffffffffffffffffffffffffffff\n      and\n      dup2\n      mstore\n      0x20\n      add\n        /* \"NFT-Contracts/new/finalMarket_single.sol\":12553:12561  _tokenId */\n      dup14\n        /* \"NFT-Contracts/new/finalMarket_single.sol\":12523:12562  SaleInfo(_nftContractAddress, _tokenId) */\n      dup2\n      mstore\n      pop\n        /* \"NFT-Contracts/new/finalMarket_single.sol\":12503:12563  auctionSaleNFT.push(SaleInfo(_nftContractAddress, _tokenId)) */\n      swap1\n      dup1\n      0x01\n      dup2\n      sload\n      add\n      dup1\n      dup3\n      sstore\n      dup1\n      swap2\n      pop\n      pop\n      0x01\n      swap1\n      sub\n      swap1\n      0x00\n      mstore\n      keccak256(0x00, 0x20)\n      swap1\n      0x02\n      mul\n      add\n      0x00\n      swap1\n      swap2\n      swap1\n      swap2\n      swap1\n      swap2\n      pop\n      0x00\n      dup3\n      add\n      mload\n      dup2\n      0x00\n      add\n      exp(0x0100, 0x00)\n      dup2\n      sload\n      dup2\n      0xffffffffffffffffffffffffffffffffffffffff\n      mul\n      not\n      and\n      swap1\n      dup4\n      0xffffffffffffffffffffffffffffffffffffffff\n      and\n      mul\n      or\n      swap1\n      sstore\n      pop\n      0x20\n      dup3\n      add\n      mload\n      dup2\n      0x01\n      add\n      sstore\n      pop\n      pop\n        /* \"NFT-Contracts/new/finalMarket_single.sol\":12581:12787  NftAuctionSale(\r... */\n      0xecbc6a097da08dbf6f781ce204aad454ce3dc8f112c51c7a56f1671de89cee8c\n        /* \"NFT-Contracts/new/finalMarket_single.sol\":12610:12629  _nftContractAddress */\n      dup14\n        /* \"NFT-Contracts/new/finalMarket_single.sol\":12644:12654  msg.sender */\n      caller\n        /* \"NFT-Contracts/new/finalMarket_single.sol\":12669:12675  _erc20 */\n      dup15\n        /* \"NFT-Contracts/new/finalMarket_single.sol\":12690:12698  _tokenId */\n      dup15\n        /* \"NFT-Contracts/new/finalMarket_single.sol\":12713:12726  _auctionStart */\n      dup15\n        /* \"NFT-Contracts/new/finalMarket_single.sol\":12741:12752  _auctionEnd */\n      dup15\n        /* \"NFT-Contracts/new/finalMarket_single.sol\":12767:12776  _minPrice */\n      dup15\n        /* \"NFT-Contracts/new/finalMarket_single.sol\":12581:12787  NftAuctionSale(\r... */\n      mload(0x40)\n      tag_318\n      swap8\n      swap7\n      swap6\n      swap5\n      swap4\n      swap3\n      swap2\n      swap1\n      tag_319\n      jump\t// in\n    tag_318:\n      mload(0x40)\n      dup1\n      swap2\n      sub\n      swap1\n      log1\n        /* \"NFT-Contracts/new/finalMarket_single.sol\":4795:4796  _ */\n      pop\n        /* \"NFT-Contracts/new/finalMarket_single.sol\":3493:3494  _ */\n      pop\n      pop\n        /* \"NFT-Contracts/new/finalMarket_single.sol\":4206:4207  _ */\n      pop\n      pop\n        /* \"NFT-Contracts/new/finalMarket_single.sol\":11732:12795  function createNftAuctionSale(\r... */\n      pop\n      pop\n      pop\n      pop\n      pop\n      pop\n      pop\n      pop\n      jump\t// out\n        /* \"NFT-Contracts/new/finalMarket_single.sol\":9378:9964  function cancelFixedsale(address _nftContractAddress, uint256 _tokenId)\r... */\n    tag_105:\n        /* \"NFT-Contracts/new/finalMarket_single.sol\":9494:9513  _nftContractAddress */\n      dup2\n        /* \"NFT-Contracts/new/finalMarket_single.sol\":9515:9523  _tokenId */\n      dup2\n        /* \"NFT-Contracts/new/finalMarket_single.sol\":3664:3665  1 */\n      0x01\n        /* \"NFT-Contracts/new/finalMarket_single.sol\":3616:3629  nftSaleStatus */\n      0x02\n        /* \"NFT-Contracts/new/finalMarket_single.sol\":3616:3650  nftSaleStatus[_nftContractAddress] */\n      0x00\n        /* \"NFT-Contracts/new/finalMarket_single.sol\":3630:3649  _nftContractAddress */\n      dup5\n        /* \"NFT-Contracts/new/finalMarket_single.sol\":3616:3650  nftSaleStatus[_nftContractAddress] */\n      0xffffffffffffffffffffffffffffffffffffffff\n      and\n      0xffffffffffffffffffffffffffffffffffffffff\n      and\n      dup2\n      mstore\n      0x20\n      add\n      swap1\n      dup2\n      mstore\n      0x20\n      add\n      0x00\n      keccak256\n        /* \"NFT-Contracts/new/finalMarket_single.sol\":3616:3660  nftSaleStatus[_nftContractAddress][_tokenId] */\n      0x00\n        /* \"NFT-Contracts/new/finalMarket_single.sol\":3651:3659  _tokenId */\n      dup4\n        /* \"NFT-Contracts/new/finalMarket_single.sol\":3616:3660  nftSaleStatus[_nftContractAddress][_tokenId] */\n      dup2\n      mstore\n      0x20\n      add\n      swap1\n      dup2\n      mstore\n      0x20\n      add\n      0x00\n      keccak256\n      sload\n        /* \"NFT-Contracts/new/finalMarket_single.sol\":3616:3665  nftSaleStatus[_nftContractAddress][_tokenId] == 1 */\n      eq\n        /* \"NFT-Contracts/new/finalMarket_single.sol\":3594:3714  require(\r... */\n      tag_321\n      jumpi\n      mload(0x40)\n      0x08c379a000000000000000000000000000000000000000000000000000000000\n      dup2\n      mstore\n      0x04\n      add\n      tag_322\n      swap1\n      tag_162\n      jump\t// in\n    tag_322:\n      mload(0x40)\n      dup1\n      swap2\n      sub\n      swap1\n      revert\n    tag_321:\n        /* \"NFT-Contracts/new/finalMarket_single.sol\":9553:9572  _nftContractAddress */\n      dup4\n        /* \"NFT-Contracts/new/finalMarket_single.sol\":9574:9582  _tokenId */\n      dup4\n        /* \"NFT-Contracts/new/finalMarket_single.sol\":4362:4382  nftContractFixedSale */\n      0x00\n        /* \"NFT-Contracts/new/finalMarket_single.sol\":4362:4403  nftContractFixedSale[_nftContractAddress] */\n      dup1\n        /* \"NFT-Contracts/new/finalMarket_single.sol\":4383:4402  _nftContractAddress */\n      dup4\n        /* \"NFT-Contracts/new/finalMarket_single.sol\":4362:4403  nftContractFixedSale[_nftContractAddress] */\n      0xffffffffffffffffffffffffffffffffffffffff\n      and\n      0xffffffffffffffffffffffffffffffffffffffff\n      and\n      dup2\n      mstore\n      0x20\n      add\n      swap1\n      dup2\n      mstore\n      0x20\n      add\n      0x00\n      keccak256\n        /* \"NFT-Contracts/new/finalMarket_single.sol\":4362:4413  nftContractFixedSale[_nftContractAddress][_tokenId] */\n      0x00\n        /* \"NFT-Contracts/new/finalMarket_single.sol\":4404:4412  _tokenId */\n      dup3\n        /* \"NFT-Contracts/new/finalMarket_single.sol\":4362:4413  nftContractFixedSale[_nftContractAddress][_tokenId] */\n      dup2\n      mstore\n      0x20\n      add\n      swap1\n      dup2\n      mstore\n      0x20\n      add\n      0x00\n      keccak256\n        /* \"NFT-Contracts/new/finalMarket_single.sol\":4362:4423  nftContractFixedSale[_nftContractAddress][_tokenId].nftSeller */\n      0x00\n      add\n      0x00\n      swap1\n      sload\n      swap1\n      0x0100\n      exp\n      swap1\n      div\n      0xffffffffffffffffffffffffffffffffffffffff\n      and\n        /* \"NFT-Contracts/new/finalMarket_single.sol\":4331:4423  msg.sender ==\r... */\n      0xffffffffffffffffffffffffffffffffffffffff\n      and\n        /* \"NFT-Contracts/new/finalMarket_single.sol\":4331:4341  msg.sender */\n      caller\n        /* \"NFT-Contracts/new/finalMarket_single.sol\":4331:4423  msg.sender ==\r... */\n      0xffffffffffffffffffffffffffffffffffffffff\n      and\n      eq\n        /* \"NFT-Contracts/new/finalMarket_single.sol\":4309:4472  require(\r... */\n      tag_324\n      jumpi\n      mload(0x40)\n      0x08c379a000000000000000000000000000000000000000000000000000000000\n      dup2\n      mstore\n      0x04\n      add\n      tag_325\n      swap1\n      tag_166\n      jump\t// in\n    tag_325:\n      mload(0x40)\n      dup1\n      swap2\n      sub\n      swap1\n      revert\n    tag_324:\n        /* \"NFT-Contracts/new/finalMarket_single.sol\":9608:9627  _nftContractAddress */\n      dup6\n        /* \"NFT-Contracts/new/finalMarket_single.sol\":9600:9645  IERC721(_nftContractAddress).safeTransferFrom */\n      0xffffffffffffffffffffffffffffffffffffffff\n      and\n      0x42842e0e\n        /* \"NFT-Contracts/new/finalMarket_single.sol\":9668:9672  this */\n      address\n        /* \"NFT-Contracts/new/finalMarket_single.sol\":9688:9698  msg.sender */\n      caller\n        /* \"NFT-Contracts/new/finalMarket_single.sol\":9713:9721  _tokenId */\n      dup9\n        /* \"NFT-Contracts/new/finalMarket_single.sol\":9600:9732  IERC721(_nftContractAddress).safeTransferFrom(\r... */\n      mload(0x40)\n      dup5\n      0xffffffff\n      and\n      0xe0\n      shl\n      dup2\n      mstore\n      0x04\n      add\n      tag_327\n      swap4\n      swap3\n      swap2\n      swap1\n      tag_231\n      jump\t// in\n    tag_327:\n      0x00\n      mload(0x40)\n      dup1\n      dup4\n      sub\n      dup2\n      0x00\n      dup8\n      dup1\n      extcodesize\n      iszero\n      dup1\n      iszero\n      tag_328\n      jumpi\n      0x00\n      dup1\n      revert\n    tag_328:\n      pop\n      gas\n      call\n      iszero\n      dup1\n      iszero\n      tag_330\n      jumpi\n      returndatasize\n      0x00\n      dup1\n      returndatacopy\n      revert(0x00, returndatasize)\n    tag_330:\n      pop\n      pop\n      pop\n      pop\n        /* \"NFT-Contracts/new/finalMarket_single.sol\":9792:9793  0 */\n      0x00\n        /* \"NFT-Contracts/new/finalMarket_single.sol\":9745:9758  nftSaleStatus */\n      0x02\n        /* \"NFT-Contracts/new/finalMarket_single.sol\":9745:9779  nftSaleStatus[_nftContractAddress] */\n      0x00\n        /* \"NFT-Contracts/new/finalMarket_single.sol\":9759:9778  _nftContractAddress */\n      dup9\n        /* \"NFT-Contracts/new/finalMarket_single.sol\":9745:9779  nftSaleStatus[_nftContractAddress] */\n      0xffffffffffffffffffffffffffffffffffffffff\n      and\n      0xffffffffffffffffffffffffffffffffffffffff\n      and\n      dup2\n      mstore\n      0x20\n      add\n      swap1\n      dup2\n      mstore\n      0x20\n      add\n      0x00\n      keccak256\n        /* \"NFT-Contracts/new/finalMarket_single.sol\":9745:9789  nftSaleStatus[_nftContractAddress][_tokenId] */\n      0x00\n        /* \"NFT-Contracts/new/finalMarket_single.sol\":9780:9788  _tokenId */\n      dup8\n        /* \"NFT-Contracts/new/finalMarket_single.sol\":9745:9789  nftSaleStatus[_nftContractAddress][_tokenId] */\n      dup2\n      mstore\n      0x20\n      add\n      swap1\n      dup2\n      mstore\n      0x20\n      add\n      0x00\n      keccak256\n        /* \"NFT-Contracts/new/finalMarket_single.sol\":9745:9793  nftSaleStatus[_nftContractAddress][_tokenId] = 0 */\n      dup2\n      swap1\n      sstore\n      pop\n        /* \"NFT-Contracts/new/finalMarket_single.sol\":9813:9825  fixedSaleNFT */\n      0x06\n        /* \"NFT-Contracts/new/finalMarket_single.sol\":9827:9844  indexFixedSaleNFT */\n      0x04\n        /* \"NFT-Contracts/new/finalMarket_single.sol\":9827:9865  indexFixedSaleNFT[_nftContractAddress] */\n      0x00\n        /* \"NFT-Contracts/new/finalMarket_single.sol\":9845:9864  _nftContractAddress */\n      dup9\n        /* \"NFT-Contracts/new/finalMarket_single.sol\":9827:9865  indexFixedSaleNFT[_nftContractAddress] */\n      0xffffffffffffffffffffffffffffffffffffffff\n      and\n      0xffffffffffffffffffffffffffffffffffffffff\n      and\n      dup2\n      mstore\n      0x20\n      add\n      swap1\n      dup2\n      mstore\n      0x20\n      add\n      0x00\n      keccak256\n        /* \"NFT-Contracts/new/finalMarket_single.sol\":9827:9875  indexFixedSaleNFT[_nftContractAddress][_tokenId] */\n      0x00\n        /* \"NFT-Contracts/new/finalMarket_single.sol\":9866:9874  _tokenId */\n      dup8\n        /* \"NFT-Contracts/new/finalMarket_single.sol\":9827:9875  indexFixedSaleNFT[_nftContractAddress][_tokenId] */\n      dup2\n      mstore\n      0x20\n      add\n      swap1\n      dup2\n      mstore\n      0x20\n      add\n      0x00\n      keccak256\n      sload\n        /* \"NFT-Contracts/new/finalMarket_single.sol\":9813:9877  fixedSaleNFT[(indexFixedSaleNFT[_nftContractAddress][_tokenId])] */\n      dup2\n      sload\n      dup2\n      lt\n      tag_331\n      jumpi\n      tag_332\n      tag_197\n      jump\t// in\n    tag_332:\n    tag_331:\n      swap1\n      0x00\n      mstore\n      keccak256(0x00, 0x20)\n      swap1\n      0x02\n      mul\n      add\n      0x00\n        /* \"NFT-Contracts/new/finalMarket_single.sol\":9806:9877  delete fixedSaleNFT[(indexFixedSaleNFT[_nftContractAddress][_tokenId])] */\n      dup1\n      dup3\n      add\n      exp(0x0100, 0x00)\n      dup2\n      sload\n      swap1\n      0xffffffffffffffffffffffffffffffffffffffff\n      mul\n      not\n      and\n      swap1\n      sstore\n      0x01\n      dup3\n      add\n      0x00\n      swap1\n      sstore\n      pop\n      pop\n        /* \"NFT-Contracts/new/finalMarket_single.sol\":9895:9956  CancelNftFixedSale(_nftContractAddress, msg.sender, _tokenId) */\n      0xd7348ff00cf381a884144b50b3441398a48a7974ec349287df80e18cec9f5a31\n        /* \"NFT-Contracts/new/finalMarket_single.sol\":9914:9933  _nftContractAddress */\n      dup7\n        /* \"NFT-Contracts/new/finalMarket_single.sol\":9935:9945  msg.sender */\n      caller\n        /* \"NFT-Contracts/new/finalMarket_single.sol\":9947:9955  _tokenId */\n      dup8\n        /* \"NFT-Contracts/new/finalMarket_single.sol\":9895:9956  CancelNftFixedSale(_nftContractAddress, msg.sender, _tokenId) */\n      mload(0x40)\n      tag_334\n      swap4\n      swap3\n      swap2\n      swap1\n      tag_231\n      jump\t// in\n    tag_334:\n      mload(0x40)\n      dup1\n      swap2\n      sub\n      swap1\n      log1\n        /* \"NFT-Contracts/new/finalMarket_single.sol\":3725:3726  _ */\n      pop\n      pop\n        /* \"NFT-Contracts/new/finalMarket_single.sol\":9378:9964  function cancelFixedsale(address _nftContractAddress, uint256 _tokenId)\r... */\n      pop\n      pop\n      pop\n      pop\n      jump\t// out\n        /* \"NFT-Contracts/new/finalMarket_single.sol\":21175:21403  function _bidAmountTransfer(uint256 _buyAmount, address _erc20) internal {\r... */\n    tag_130:\n        /* \"NFT-Contracts/new/finalMarket_single.sol\":21288:21294  _erc20 */\n      dup1\n        /* \"NFT-Contracts/new/finalMarket_single.sol\":21281:21308  IERC20(_erc20).transferFrom */\n      0xffffffffffffffffffffffffffffffffffffffff\n      and\n      0x23b872dd\n        /* \"NFT-Contracts/new/finalMarket_single.sol\":21309:21319  msg.sender */\n      caller\n        /* \"NFT-Contracts/new/finalMarket_single.sol\":21329:21333  this */\n      address\n        /* \"NFT-Contracts/new/finalMarket_single.sol\":21336:21346  _buyAmount */\n      dup6\n        /* \"NFT-Contracts/new/finalMarket_single.sol\":21281:21347  IERC20(_erc20).transferFrom(msg.sender, address(this), _buyAmount) */\n      mload(0x40)\n      dup5\n      0xffffffff\n      and\n      0xe0\n      shl\n      dup2\n      mstore\n      0x04\n      add\n      tag_336\n      swap4\n      swap3\n      swap2\n      swap1\n      tag_231\n      jump\t// in\n    tag_336:\n      0x20\n      mload(0x40)\n      dup1\n      dup4\n      sub\n      dup2\n      0x00\n      dup8\n      dup1\n      extcodesize\n      iszero\n      dup1\n      iszero\n      tag_337\n      jumpi\n      0x00\n      dup1\n      revert\n    tag_337:\n      pop\n      gas\n      call\n      iszero\n      dup1\n      iszero\n      tag_339\n      jumpi\n      returndatasize\n      0x00\n      dup1\n      returndatacopy\n      revert(0x00, returndatasize)\n    tag_339:\n      pop\n      pop\n      pop\n      pop\n      mload(0x40)\n      returndatasize\n      not(0x1f)\n      0x1f\n      dup3\n      add\n      and\n      dup3\n      add\n      dup1\n      0x40\n      mstore\n      pop\n      dup2\n      add\n      swap1\n      tag_340\n      swap2\n      swap1\n      tag_221\n      jump\t// in\n    tag_340:\n        /* \"NFT-Contracts/new/finalMarket_single.sol\":21259:21395  require(\r... */\n      tag_341\n      jumpi\n      mload(0x40)\n      0x08c379a000000000000000000000000000000000000000000000000000000000\n      dup2\n      mstore\n      0x04\n      add\n      tag_342\n      swap1\n      tag_343\n      jump\t// in\n    tag_342:\n      mload(0x40)\n      dup1\n      swap2\n      sub\n      swap1\n      revert\n    tag_341:\n        /* \"NFT-Contracts/new/finalMarket_single.sol\":21175:21403  function _bidAmountTransfer(uint256 _buyAmount, address _erc20) internal {\r... */\n      pop\n      pop\n      jump\t// out\n        /* \"@openzeppelin/contracts/utils/math/SafeMath.sol\":2755:2851  function add(uint256 a, uint256 b) internal pure returns (uint256) {... */\n    tag_149:\n        /* \"@openzeppelin/contracts/utils/math/SafeMath.sol\":2813:2820  uint256 */\n      0x00\n        /* \"@openzeppelin/contracts/utils/math/SafeMath.sol\":2843:2844  b */\n      dup2\n        /* \"@openzeppelin/contracts/utils/math/SafeMath.sol\":2839:2840  a */\n      dup4\n        /* \"@openzeppelin/contracts/utils/math/SafeMath.sol\":2839:2844  a + b */\n      tag_345\n      swap2\n      swap1\n      tag_346\n      jump\t// in\n    tag_345:\n        /* \"@openzeppelin/contracts/utils/math/SafeMath.sol\":2832:2844  return a + b */\n      swap1\n      pop\n        /* \"@openzeppelin/contracts/utils/math/SafeMath.sol\":2755:2851  function add(uint256 a, uint256 b) internal pure returns (uint256) {... */\n      swap3\n      swap2\n      pop\n      pop\n      jump\t// out\n        /* \"NFT-Contracts/new/finalMarket_single.sol\":18957:19553  function _transferNftAndPaySeller(\r... */\n    tag_194:\n        /* \"NFT-Contracts/new/finalMarket_single.sol\":19147:19166  _nftContractAddress */\n      dup4\n        /* \"NFT-Contracts/new/finalMarket_single.sol\":19139:19184  IERC721(_nftContractAddress).safeTransferFrom */\n      0xffffffffffffffffffffffffffffffffffffffff\n      and\n      0x42842e0e\n        /* \"NFT-Contracts/new/finalMarket_single.sol\":19207:19211  this */\n      address\n        /* \"NFT-Contracts/new/finalMarket_single.sol\":19227:19236  _nftBuyer */\n      dup4\n        /* \"NFT-Contracts/new/finalMarket_single.sol\":19251:19259  _tokenId */\n      dup7\n        /* \"NFT-Contracts/new/finalMarket_single.sol\":19139:19270  IERC721(_nftContractAddress).safeTransferFrom(\r... */\n      mload(0x40)\n      dup5\n      0xffffffff\n      and\n      0xe0\n      shl\n      dup2\n      mstore\n      0x04\n      add\n      tag_348\n      swap4\n      swap3\n      swap2\n      swap1\n      tag_231\n      jump\t// in\n    tag_348:\n      0x00\n      mload(0x40)\n      dup1\n      dup4\n      sub\n      dup2\n      0x00\n      dup8\n      dup1\n      extcodesize\n      iszero\n      dup1\n      iszero\n      tag_349\n      jumpi\n      0x00\n      dup1\n      revert\n    tag_349:\n      pop\n      gas\n      call\n      iszero\n      dup1\n      iszero\n      tag_351\n      jumpi\n      returndatasize\n      0x00\n      dup1\n      returndatacopy\n      revert(0x00, returndatasize)\n    tag_351:\n      pop\n      pop\n      pop\n      pop\n        /* \"NFT-Contracts/new/finalMarket_single.sol\":19330:19331  0 */\n      0x00\n        /* \"NFT-Contracts/new/finalMarket_single.sol\":19283:19296  nftSaleStatus */\n      0x02\n        /* \"NFT-Contracts/new/finalMarket_single.sol\":19283:19317  nftSaleStatus[_nftContractAddress] */\n      0x00\n        /* \"NFT-Contracts/new/finalMarket_single.sol\":19297:19316  _nftContractAddress */\n      dup7\n        /* \"NFT-Contracts/new/finalMarket_single.sol\":19283:19317  nftSaleStatus[_nftContractAddress] */\n      0xffffffffffffffffffffffffffffffffffffffff\n      and\n      0xffffffffffffffffffffffffffffffffffffffff\n      and\n      dup2\n      mstore\n      0x20\n      add\n      swap1\n      dup2\n      mstore\n      0x20\n      add\n      0x00\n      keccak256\n        /* \"NFT-Contracts/new/finalMarket_single.sol\":19283:19327  nftSaleStatus[_nftContractAddress][_tokenId] */\n      0x00\n        /* \"NFT-Contracts/new/finalMarket_single.sol\":19318:19326  _tokenId */\n      dup6\n        /* \"NFT-Contracts/new/finalMarket_single.sol\":19283:19327  nftSaleStatus[_nftContractAddress][_tokenId] */\n      dup2\n      mstore\n      0x20\n      add\n      swap1\n      dup2\n      mstore\n      0x20\n      add\n      0x00\n      keccak256\n        /* \"NFT-Contracts/new/finalMarket_single.sol\":19283:19331  nftSaleStatus[_nftContractAddress][_tokenId] = 0 */\n      dup2\n      swap1\n      sstore\n      pop\n        /* \"NFT-Contracts/new/finalMarket_single.sol\":19344:19545  _isTokenOrCoin(\r... */\n      tag_352\n        /* \"NFT-Contracts/new/finalMarket_single.sol\":19373:19395  nftContractAuctionSale */\n      0x01\n        /* \"NFT-Contracts/new/finalMarket_single.sol\":19373:19416  nftContractAuctionSale[_nftContractAddress] */\n      0x00\n        /* \"NFT-Contracts/new/finalMarket_single.sol\":19396:19415  _nftContractAddress */\n      dup7\n        /* \"NFT-Contracts/new/finalMarket_single.sol\":19373:19416  nftContractAuctionSale[_nftContractAddress] */\n      0xffffffffffffffffffffffffffffffffffffffff\n      and\n      0xffffffffffffffffffffffffffffffffffffffff\n      and\n      dup2\n      mstore\n      0x20\n      add\n      swap1\n      dup2\n      mstore\n      0x20\n      add\n      0x00\n      keccak256\n        /* \"NFT-Contracts/new/finalMarket_single.sol\":19373:19426  nftContractAuctionSale[_nftContractAddress][_tokenId] */\n      0x00\n        /* \"NFT-Contracts/new/finalMarket_single.sol\":19417:19425  _tokenId */\n      dup6\n        /* \"NFT-Contracts/new/finalMarket_single.sol\":19373:19426  nftContractAuctionSale[_nftContractAddress][_tokenId] */\n      dup2\n      mstore\n      0x20\n      add\n      swap1\n      dup2\n      mstore\n      0x20\n      add\n      0x00\n      keccak256\n        /* \"NFT-Contracts/new/finalMarket_single.sol\":19373:19436  nftContractAuctionSale[_nftContractAddress][_tokenId].nftSeller */\n      0x05\n      add\n      0x00\n      swap1\n      sload\n      swap1\n      0x0100\n      exp\n      swap1\n      div\n      0xffffffffffffffffffffffffffffffffffffffff\n      and\n        /* \"NFT-Contracts/new/finalMarket_single.sol\":19451:19473  nftContractAuctionSale */\n      0x01\n        /* \"NFT-Contracts/new/finalMarket_single.sol\":19451:19494  nftContractAuctionSale[_nftContractAddress] */\n      0x00\n        /* \"NFT-Contracts/new/finalMarket_single.sol\":19474:19493  _nftContractAddress */\n      dup8\n        /* \"NFT-Contracts/new/finalMarket_single.sol\":19451:19494  nftContractAuctionSale[_nftContractAddress] */\n      0xffffffffffffffffffffffffffffffffffffffff\n      and\n      0xffffffffffffffffffffffffffffffffffffffff\n      and\n      dup2\n      mstore\n      0x20\n      add\n      swap1\n      dup2\n      mstore\n      0x20\n      add\n      0x00\n      keccak256\n        /* \"NFT-Contracts/new/finalMarket_single.sol\":19451:19504  nftContractAuctionSale[_nftContractAddress][_tokenId] */\n      0x00\n        /* \"NFT-Contracts/new/finalMarket_single.sol\":19495:19503  _tokenId */\n      dup7\n        /* \"NFT-Contracts/new/finalMarket_single.sol\":19451:19504  nftContractAuctionSale[_nftContractAddress][_tokenId] */\n      dup2\n      mstore\n      0x20\n      add\n      swap1\n      dup2\n      mstore\n      0x20\n      add\n      0x00\n      keccak256\n        /* \"NFT-Contracts/new/finalMarket_single.sol\":19451:19510  nftContractAuctionSale[_nftContractAddress][_tokenId].erc20 */\n      0x06\n      add\n      0x00\n      swap1\n      sload\n      swap1\n      0x0100\n      exp\n      swap1\n      div\n      0xffffffffffffffffffffffffffffffffffffffff\n      and\n        /* \"NFT-Contracts/new/finalMarket_single.sol\":19525:19534  _bidPrice */\n      dup5\n        /* \"NFT-Contracts/new/finalMarket_single.sol\":19344:19358  _isTokenOrCoin */\n      tag_289\n        /* \"NFT-Contracts/new/finalMarket_single.sol\":19344:19545  _isTokenOrCoin(\r... */\n      jump\t// in\n    tag_352:\n        /* \"NFT-Contracts/new/finalMarket_single.sol\":18957:19553  function _transferNftAndPaySeller(\r... */\n      pop\n      pop\n      pop\n      pop\n      jump\t// out\n        /* \"NFT-Contracts/new/finalMarket_single.sol\":20843:21167  function _isTokenOrCoin(\r... */\n    tag_289:\n        /* \"NFT-Contracts/new/finalMarket_single.sol\":20999:21000  0 */\n      0x00\n        /* \"NFT-Contracts/new/finalMarket_single.sol\":20981:21001  _erc20 != address(0) */\n      0xffffffffffffffffffffffffffffffffffffffff\n      and\n        /* \"NFT-Contracts/new/finalMarket_single.sol\":20981:20987  _erc20 */\n      dup3\n        /* \"NFT-Contracts/new/finalMarket_single.sol\":20981:21001  _erc20 != address(0) */\n      0xffffffffffffffffffffffffffffffffffffffff\n      and\n      eq\n        /* \"NFT-Contracts/new/finalMarket_single.sol\":20977:21160  if (_erc20 != address(0)) {\r... */\n      tag_354\n      jumpi\n        /* \"NFT-Contracts/new/finalMarket_single.sol\":21018:21070  _tokenAmountTransfer(_nftSeller, _erc20, _buyAmount) */\n      tag_355\n        /* \"NFT-Contracts/new/finalMarket_single.sol\":21039:21049  _nftSeller */\n      dup4\n        /* \"NFT-Contracts/new/finalMarket_single.sol\":21051:21057  _erc20 */\n      dup4\n        /* \"NFT-Contracts/new/finalMarket_single.sol\":21059:21069  _buyAmount */\n      dup4\n        /* \"NFT-Contracts/new/finalMarket_single.sol\":21018:21038  _tokenAmountTransfer */\n      tag_356\n        /* \"NFT-Contracts/new/finalMarket_single.sol\":21018:21070  _tokenAmountTransfer(_nftSeller, _erc20, _buyAmount) */\n      jump\t// in\n    tag_355:\n        /* \"NFT-Contracts/new/finalMarket_single.sol\":20977:21160  if (_erc20 != address(0)) {\r... */\n      jump(tag_357)\n    tag_354:\n        /* \"NFT-Contracts/new/finalMarket_single.sol\":21103:21148  _nativeAmountTransfer(_nftSeller, _buyAmount) */\n      tag_358\n        /* \"NFT-Contracts/new/finalMarket_single.sol\":21125:21135  _nftSeller */\n      dup4\n        /* \"NFT-Contracts/new/finalMarket_single.sol\":21137:21147  _buyAmount */\n      dup3\n        /* \"NFT-Contracts/new/finalMarket_single.sol\":21103:21124  _nativeAmountTransfer */\n      tag_359\n        /* \"NFT-Contracts/new/finalMarket_single.sol\":21103:21148  _nativeAmountTransfer(_nftSeller, _buyAmount) */\n      jump\t// in\n    tag_358:\n        /* \"NFT-Contracts/new/finalMarket_single.sol\":20977:21160  if (_erc20 != address(0)) {\r... */\n    tag_357:\n        /* \"NFT-Contracts/new/finalMarket_single.sol\":20843:21167  function _isTokenOrCoin(\r... */\n      pop\n      pop\n      pop\n      jump\t// out\n        /* \"NFT-Contracts/new/finalMarket_single.sol\":20133:20835  function _storedNftAuctionDetails(\r... */\n    tag_316:\n        /* \"NFT-Contracts/new/finalMarket_single.sol\":20430:20621  Auction(\r... */\n      mload(0x40)\n      dup1\n      0xe0\n      add\n      0x40\n      mstore\n      dup1\n        /* \"NFT-Contracts/new/finalMarket_single.sol\":20452:20465  _auctionStart */\n      dup5\n        /* \"NFT-Contracts/new/finalMarket_single.sol\":20430:20621  Auction(\r... */\n      dup2\n      mstore\n      0x20\n      add\n        /* \"NFT-Contracts/new/finalMarket_single.sol\":20480:20491  _auctionEnd */\n      dup4\n        /* \"NFT-Contracts/new/finalMarket_single.sol\":20430:20621  Auction(\r... */\n      dup2\n      mstore\n      0x20\n      add\n        /* \"NFT-Contracts/new/finalMarket_single.sol\":20506:20515  _minPrice */\n      dup3\n        /* \"NFT-Contracts/new/finalMarket_single.sol\":20430:20621  Auction(\r... */\n      dup2\n      mstore\n      0x20\n      add\n        /* \"NFT-Contracts/new/finalMarket_single.sol\":20530:20539  _minPrice */\n      dup3\n        /* \"NFT-Contracts/new/finalMarket_single.sol\":20430:20621  Auction(\r... */\n      dup2\n      mstore\n      0x20\n      add\n        /* \"NFT-Contracts/new/finalMarket_single.sol\":20562:20563  0 */\n      0x00\n        /* \"NFT-Contracts/new/finalMarket_single.sol\":20430:20621  Auction(\r... */\n      0xffffffffffffffffffffffffffffffffffffffff\n      and\n      dup2\n      mstore\n      0x20\n      add\n        /* \"NFT-Contracts/new/finalMarket_single.sol\":20579:20589  msg.sender */\n      caller\n        /* \"NFT-Contracts/new/finalMarket_single.sol\":20430:20621  Auction(\r... */\n      0xffffffffffffffffffffffffffffffffffffffff\n      and\n      dup2\n      mstore\n      0x20\n      add\n        /* \"NFT-Contracts/new/finalMarket_single.sol\":20604:20610  _erc20 */\n      dup7\n        /* \"NFT-Contracts/new/finalMarket_single.sol\":20430:20621  Auction(\r... */\n      0xffffffffffffffffffffffffffffffffffffffff\n      and\n      dup2\n      mstore\n      pop\n        /* \"NFT-Contracts/new/finalMarket_single.sol\":20374:20396  nftContractAuctionSale */\n      0x01\n        /* \"NFT-Contracts/new/finalMarket_single.sol\":20374:20417  nftContractAuctionSale[_nftContractAddress] */\n      0x00\n        /* \"NFT-Contracts/new/finalMarket_single.sol\":20397:20416  _nftContractAddress */\n      dup9\n        /* \"NFT-Contracts/new/finalMarket_single.sol\":20374:20417  nftContractAuctionSale[_nftContractAddress] */\n      0xffffffffffffffffffffffffffffffffffffffff\n      and\n      0xffffffffffffffffffffffffffffffffffffffff\n      and\n      dup2\n      mstore\n      0x20\n      add\n      swap1\n      dup2\n      mstore\n      0x20\n      add\n      0x00\n      keccak256\n        /* \"NFT-Contracts/new/finalMarket_single.sol\":20374:20427  nftContractAuctionSale[_nftContractAddress][_tokenId] */\n      0x00\n        /* \"NFT-Contracts/new/finalMarket_single.sol\":20418:20426  _tokenId */\n      dup7\n        /* \"NFT-Contracts/new/finalMarket_single.sol\":20374:20427  nftContractAuctionSale[_nftContractAddress][_tokenId] */\n      dup2\n      mstore\n      0x20\n      add\n      swap1\n      dup2\n      mstore\n      0x20\n      add\n      0x00\n      keccak256\n        /* \"NFT-Contracts/new/finalMarket_single.sol\":20374:20621  nftContractAuctionSale[_nftContractAddress][_tokenId] = Auction(\r... */\n      0x00\n      dup3\n      add\n      mload\n      dup2\n      0x00\n      add\n      sstore\n      0x20\n      dup3\n      add\n      mload\n      dup2\n      0x01\n      add\n      sstore\n      0x40\n      dup3\n      add\n      mload\n      dup2\n      0x02\n      add\n      sstore\n      0x60\n      dup3\n      add\n      mload\n      dup2\n      0x03\n      add\n      sstore\n      0x80\n      dup3\n      add\n      mload\n      dup2\n      0x04\n      add\n      exp(0x0100, 0x00)\n      dup2\n      sload\n      dup2\n      0xffffffffffffffffffffffffffffffffffffffff\n      mul\n      not\n      and\n      swap1\n      dup4\n      0xffffffffffffffffffffffffffffffffffffffff\n      and\n      mul\n      or\n      swap1\n      sstore\n      pop\n      0xa0\n      dup3\n      add\n      mload\n      dup2\n      0x05\n      add\n      exp(0x0100, 0x00)\n      dup2\n      sload\n      dup2\n      0xffffffffffffffffffffffffffffffffffffffff\n      mul\n      not\n      and\n      swap1\n      dup4\n      0xffffffffffffffffffffffffffffffffffffffff\n      and\n      mul\n      or\n      swap1\n      sstore\n      pop\n      0xc0\n      dup3\n      add\n      mload\n      dup2\n      0x06\n      add\n      exp(0x0100, 0x00)\n      dup2\n      sload\n      dup2\n      0xffffffffffffffffffffffffffffffffffffffff\n      mul\n      not\n      and\n      swap1\n      dup4\n      0xffffffffffffffffffffffffffffffffffffffff\n      and\n      mul\n      or\n      swap1\n      sstore\n      pop\n      swap1\n      pop\n      pop\n        /* \"NFT-Contracts/new/finalMarket_single.sol\":20681:20682  2 */\n      0x02\n        /* \"NFT-Contracts/new/finalMarket_single.sol\":20634:20647  nftSaleStatus */\n      dup1\n        /* \"NFT-Contracts/new/finalMarket_single.sol\":20634:20668  nftSaleStatus[_nftContractAddress] */\n      0x00\n        /* \"NFT-Contracts/new/finalMarket_single.sol\":20648:20667  _nftContractAddress */\n      dup9\n        /* \"NFT-Contracts/new/finalMarket_single.sol\":20634:20668  nftSaleStatus[_nftContractAddress] */\n      0xffffffffffffffffffffffffffffffffffffffff\n      and\n      0xffffffffffffffffffffffffffffffffffffffff\n      and\n      dup2\n      mstore\n      0x20\n      add\n      swap1\n      dup2\n      mstore\n      0x20\n      add\n      0x00\n      keccak256\n        /* \"NFT-Contracts/new/finalMarket_single.sol\":20634:20678  nftSaleStatus[_nftContractAddress][_tokenId] */\n      0x00\n        /* \"NFT-Contracts/new/finalMarket_single.sol\":20669:20677  _tokenId */\n      dup7\n        /* \"NFT-Contracts/new/finalMarket_single.sol\":20634:20678  nftSaleStatus[_nftContractAddress][_tokenId] */\n      dup2\n      mstore\n      0x20\n      add\n      swap1\n      dup2\n      mstore\n      0x20\n      add\n      0x00\n      keccak256\n        /* \"NFT-Contracts/new/finalMarket_single.sol\":20634:20682  nftSaleStatus[_nftContractAddress][_tokenId] = 2 */\n      dup2\n      swap1\n      sstore\n      pop\n        /* \"NFT-Contracts/new/finalMarket_single.sol\":20703:20722  _nftContractAddress */\n      dup6\n        /* \"NFT-Contracts/new/finalMarket_single.sol\":20695:20740  IERC721(_nftContractAddress).safeTransferFrom */\n      0xffffffffffffffffffffffffffffffffffffffff\n      and\n      0x42842e0e\n        /* \"NFT-Contracts/new/finalMarket_single.sol\":20755:20765  msg.sender */\n      caller\n        /* \"NFT-Contracts/new/finalMarket_single.sol\":20788:20792  this */\n      address\n        /* \"NFT-Contracts/new/finalMarket_single.sol\":20808:20816  _tokenId */\n      dup8\n        /* \"NFT-Contracts/new/finalMarket_single.sol\":20695:20827  IERC721(_nftContractAddress).safeTransferFrom(\r... */\n      mload(0x40)\n      dup5\n      0xffffffff\n      and\n      0xe0\n      shl\n      dup2\n      mstore\n      0x04\n      add\n      tag_361\n      swap4\n      swap3\n      swap2\n      swap1\n      tag_231\n      jump\t// in\n    tag_361:\n      0x00\n      mload(0x40)\n      dup1\n      dup4\n      sub\n      dup2\n      0x00\n      dup8\n      dup1\n      extcodesize\n      iszero\n      dup1\n      iszero\n      tag_362\n      jumpi\n      0x00\n      dup1\n      revert\n    tag_362:\n      pop\n      gas\n      call\n      iszero\n      dup1\n      iszero\n      tag_364\n      jumpi\n      returndatasize\n      0x00\n      dup1\n      returndatacopy\n      revert(0x00, returndatasize)\n    tag_364:\n      pop\n      pop\n      pop\n      pop\n        /* \"NFT-Contracts/new/finalMarket_single.sol\":20133:20835  function _storedNftAuctionDetails(\r... */\n      pop\n      pop\n      pop\n      pop\n      pop\n      pop\n      jump\t// out\n        /* \"NFT-Contracts/new/finalMarket_single.sol\":19561:19903  function _tokenAmountTransfer(\r... */\n    tag_356:\n        /* \"NFT-Contracts/new/finalMarket_single.sol\":19730:19736  _erc20 */\n      dup2\n        /* \"NFT-Contracts/new/finalMarket_single.sol\":19723:19750  IERC20(_erc20).transferFrom */\n      0xffffffffffffffffffffffffffffffffffffffff\n      and\n      0x23b872dd\n        /* \"NFT-Contracts/new/finalMarket_single.sol\":19751:19761  msg.sender */\n      caller\n        /* \"NFT-Contracts/new/finalMarket_single.sol\":19771:19775  this */\n      address\n        /* \"NFT-Contracts/new/finalMarket_single.sol\":19778:19788  _buyAmount */\n      dup5\n        /* \"NFT-Contracts/new/finalMarket_single.sol\":19723:19789  IERC20(_erc20).transferFrom(msg.sender, address(this), _buyAmount) */\n      mload(0x40)\n      dup5\n      0xffffffff\n      and\n      0xe0\n      shl\n      dup2\n      mstore\n      0x04\n      add\n      tag_366\n      swap4\n      swap3\n      swap2\n      swap1\n      tag_231\n      jump\t// in\n    tag_366:\n      0x20\n      mload(0x40)\n      dup1\n      dup4\n      sub\n      dup2\n      0x00\n      dup8\n      dup1\n      extcodesize\n      iszero\n      dup1\n      iszero\n      tag_367\n      jumpi\n      0x00\n      dup1\n      revert\n    tag_367:\n      pop\n      gas\n      call\n      iszero\n      dup1\n      iszero\n      tag_369\n      jumpi\n      returndatasize\n      0x00\n      dup1\n      returndatacopy\n      revert(0x00, returndatasize)\n    tag_369:\n      pop\n      pop\n      pop\n      pop\n      mload(0x40)\n      returndatasize\n      not(0x1f)\n      0x1f\n      dup3\n      add\n      and\n      dup3\n      add\n      dup1\n      0x40\n      mstore\n      pop\n      dup2\n      add\n      swap1\n      tag_370\n      swap2\n      swap1\n      tag_221\n      jump\t// in\n    tag_370:\n        /* \"NFT-Contracts/new/finalMarket_single.sol\":19701:19837  require(\r... */\n      tag_371\n      jumpi\n      mload(0x40)\n      0x08c379a000000000000000000000000000000000000000000000000000000000\n      dup2\n      mstore\n      0x04\n      add\n      tag_372\n      swap1\n      tag_343\n      jump\t// in\n    tag_372:\n      mload(0x40)\n      dup1\n      swap2\n      sub\n      swap1\n      revert\n    tag_371:\n        /* \"NFT-Contracts/new/finalMarket_single.sol\":19855:19861  _erc20 */\n      dup2\n        /* \"NFT-Contracts/new/finalMarket_single.sol\":19848:19871  IERC20(_erc20).transfer */\n      0xffffffffffffffffffffffffffffffffffffffff\n      and\n      0xa9059cbb\n        /* \"NFT-Contracts/new/finalMarket_single.sol\":19872:19882  _nftSeller */\n      dup5\n        /* \"NFT-Contracts/new/finalMarket_single.sol\":19884:19894  _buyAmount */\n      dup4\n        /* \"NFT-Contracts/new/finalMarket_single.sol\":19848:19895  IERC20(_erc20).transfer(_nftSeller, _buyAmount) */\n      mload(0x40)\n      dup4\n      0xffffffff\n      and\n      0xe0\n      shl\n      dup2\n      mstore\n      0x04\n      add\n      tag_373\n      swap3\n      swap2\n      swap1\n      tag_374\n      jump\t// in\n    tag_373:\n      0x20\n      mload(0x40)\n      dup1\n      dup4\n      sub\n      dup2\n      0x00\n      dup8\n      dup1\n      extcodesize\n      iszero\n      dup1\n      iszero\n      tag_375\n      jumpi\n      0x00\n      dup1\n      revert\n    tag_375:\n      pop\n      gas\n      call\n      iszero\n      dup1\n      iszero\n      tag_377\n      jumpi\n      returndatasize\n      0x00\n      dup1\n      returndatacopy\n      revert(0x00, returndatasize)\n    tag_377:\n      pop\n      pop\n      pop\n      pop\n      mload(0x40)\n      returndatasize\n      not(0x1f)\n      0x1f\n      dup3\n      add\n      and\n      dup3\n      add\n      dup1\n      0x40\n      mstore\n      pop\n      dup2\n      add\n      swap1\n      tag_378\n      swap2\n      swap1\n      tag_221\n      jump\t// in\n    tag_378:\n      pop\n        /* \"NFT-Contracts/new/finalMarket_single.sol\":19561:19903  function _tokenAmountTransfer(\r... */\n      pop\n      pop\n      pop\n      jump\t// out\n        /* \"NFT-Contracts/new/finalMarket_single.sol\":19911:20125  function _nativeAmountTransfer(address _nftSeller, uint256 _buyAmount)\r... */\n    tag_359:\n        /* \"NFT-Contracts/new/finalMarket_single.sol\":20017:20029  bool success */\n      0x00\n        /* \"NFT-Contracts/new/finalMarket_single.sol\":20035:20045  _nftSeller */\n      dup3\n        /* \"NFT-Contracts/new/finalMarket_single.sol\":20035:20050  _nftSeller.call */\n      0xffffffffffffffffffffffffffffffffffffffff\n      and\n        /* \"NFT-Contracts/new/finalMarket_single.sol\":20058:20068  _buyAmount */\n      dup3\n        /* \"NFT-Contracts/new/finalMarket_single.sol\":20035:20073  _nftSeller.call{value: _buyAmount}(\"\") */\n      mload(0x40)\n      tag_380\n      swap1\n      tag_381\n      jump\t// in\n    tag_380:\n      0x00\n      mload(0x40)\n      dup1\n      dup4\n      sub\n      dup2\n      dup6\n      dup8\n      gas\n      call\n      swap3\n      pop\n      pop\n      pop\n      returndatasize\n      dup1\n      0x00\n      dup2\n      eq\n      tag_384\n      jumpi\n      mload(0x40)\n      swap2\n      pop\n      and(add(returndatasize, 0x3f), not(0x1f))\n      dup3\n      add\n      0x40\n      mstore\n      returndatasize\n      dup3\n      mstore\n      returndatasize\n      0x00\n      0x20\n      dup5\n      add\n      returndatacopy\n      jump(tag_383)\n    tag_384:\n      0x60\n      swap2\n      pop\n    tag_383:\n      pop\n        /* \"NFT-Contracts/new/finalMarket_single.sol\":20016:20073  (bool success, ) = _nftSeller.call{value: _buyAmount}(\"\") */\n      pop\n      swap1\n      pop\n        /* \"NFT-Contracts/new/finalMarket_single.sol\":20092:20099  success */\n      dup1\n        /* \"NFT-Contracts/new/finalMarket_single.sol\":20084:20117  require(success, \"refund failed\") */\n      tag_385\n      jumpi\n      mload(0x40)\n      0x08c379a000000000000000000000000000000000000000000000000000000000\n      dup2\n      mstore\n      0x04\n      add\n      tag_386\n      swap1\n      tag_387\n      jump\t// in\n    tag_386:\n      mload(0x40)\n      dup1\n      swap2\n      sub\n      swap1\n      revert\n    tag_385:\n        /* \"NFT-Contracts/new/finalMarket_single.sol\":20005:20125  {\r... */\n      pop\n        /* \"NFT-Contracts/new/finalMarket_single.sol\":19911:20125  function _nativeAmountTransfer(address _nftSeller, uint256 _buyAmount)\r... */\n      pop\n      pop\n      jump\t// out\n    tag_238:\n      mload(0x40)\n      dup1\n      0xe0\n      add\n      0x40\n      mstore\n      dup1\n      0x00\n      dup2\n      mstore\n      0x20\n      add\n      0x00\n      dup2\n      mstore\n      0x20\n      add\n      0x00\n      dup2\n      mstore\n      0x20\n      add\n      0x00\n      dup2\n      mstore\n      0x20\n      add\n      and(0xffffffffffffffffffffffffffffffffffffffff, 0x00)\n      dup2\n      mstore\n      0x20\n      add\n      and(0xffffffffffffffffffffffffffffffffffffffff, 0x00)\n      dup2\n      mstore\n      0x20\n      add\n      and(0xffffffffffffffffffffffffffffffffffffffff, 0x00)\n      dup2\n      mstore\n      pop\n      swap1\n      jump\t// out\n    tag_264:\n      mload(0x40)\n      dup1\n      0x80\n      add\n      0x40\n      mstore\n      dup1\n      and(0xffffffffffffffffffffffffffffffffffffffff, 0x00)\n      dup2\n      mstore\n      0x20\n      add\n      and(0xffffffffffffffffffffffffffffffffffffffff, 0x00)\n      dup2\n      mstore\n      0x20\n      add\n      and(0xffffffffffffffffffffffffffffffffffffffff, 0x00)\n      dup2\n      mstore\n      0x20\n      add\n      0x00\n      dup2\n      mstore\n      pop\n      swap1\n      jump\t// out\n        /* \"#utility.yul\":7:146   */\n    tag_389:\n        /* \"#utility.yul\":53:58   */\n      0x00\n        /* \"#utility.yul\":91:97   */\n      dup2\n        /* \"#utility.yul\":78:98   */\n      calldataload\n        /* \"#utility.yul\":69:98   */\n      swap1\n      pop\n        /* \"#utility.yul\":107:140   */\n      tag_391\n        /* \"#utility.yul\":134:139   */\n      dup2\n        /* \"#utility.yul\":107:140   */\n      tag_392\n      jump\t// in\n    tag_391:\n        /* \"#utility.yul\":7:146   */\n      swap3\n      swap2\n      pop\n      pop\n      jump\t// out\n        /* \"#utility.yul\":152:295   */\n    tag_393:\n        /* \"#utility.yul\":209:214   */\n      0x00\n        /* \"#utility.yul\":240:246   */\n      dup2\n        /* \"#utility.yul\":234:247   */\n      mload\n        /* \"#utility.yul\":225:247   */\n      swap1\n      pop\n        /* \"#utility.yul\":256:289   */\n      tag_395\n        /* \"#utility.yul\":283:288   */\n      dup2\n        /* \"#utility.yul\":256:289   */\n      tag_392\n      jump\t// in\n    tag_395:\n        /* \"#utility.yul\":152:295   */\n      swap3\n      swap2\n      pop\n      pop\n      jump\t// out\n        /* \"#utility.yul\":301:438   */\n    tag_396:\n        /* \"#utility.yul\":355:360   */\n      0x00\n        /* \"#utility.yul\":386:392   */\n      dup2\n        /* \"#utility.yul\":380:393   */\n      mload\n        /* \"#utility.yul\":371:393   */\n      swap1\n      pop\n        /* \"#utility.yul\":402:432   */\n      tag_398\n        /* \"#utility.yul\":426:431   */\n      dup2\n        /* \"#utility.yul\":402:432   */\n      tag_399\n      jump\t// in\n    tag_398:\n        /* \"#utility.yul\":301:438   */\n      swap3\n      swap2\n      pop\n      pop\n      jump\t// out\n        /* \"#utility.yul\":457:1009   */\n    tag_400:\n        /* \"#utility.yul\":514:522   */\n      0x00\n        /* \"#utility.yul\":524:530   */\n      dup1\n        /* \"#utility.yul\":574:577   */\n      dup4\n        /* \"#utility.yul\":567:571   */\n      0x1f\n        /* \"#utility.yul\":559:565   */\n      dup5\n        /* \"#utility.yul\":555:572   */\n      add\n        /* \"#utility.yul\":551:578   */\n      slt\n        /* \"#utility.yul\":541:663   */\n      tag_402\n      jumpi\n        /* \"#utility.yul\":582:661   */\n      tag_403\n      tag_404\n      jump\t// in\n    tag_403:\n        /* \"#utility.yul\":541:663   */\n    tag_402:\n        /* \"#utility.yul\":695:701   */\n      dup3\n        /* \"#utility.yul\":682:702   */\n      calldataload\n        /* \"#utility.yul\":672:702   */\n      swap1\n      pop\n        /* \"#utility.yul\":725:743   */\n      0xffffffffffffffff\n        /* \"#utility.yul\":717:723   */\n      dup2\n        /* \"#utility.yul\":714:744   */\n      gt\n        /* \"#utility.yul\":711:828   */\n      iszero\n      tag_405\n      jumpi\n        /* \"#utility.yul\":747:826   */\n      tag_406\n      tag_407\n      jump\t// in\n    tag_406:\n        /* \"#utility.yul\":711:828   */\n    tag_405:\n        /* \"#utility.yul\":861:865   */\n      0x20\n        /* \"#utility.yul\":853:859   */\n      dup4\n        /* \"#utility.yul\":849:866   */\n      add\n        /* \"#utility.yul\":837:866   */\n      swap2\n      pop\n        /* \"#utility.yul\":915:918   */\n      dup4\n        /* \"#utility.yul\":907:911   */\n      0x01\n        /* \"#utility.yul\":899:905   */\n      dup3\n        /* \"#utility.yul\":895:912   */\n      mul\n        /* \"#utility.yul\":885:893   */\n      dup4\n        /* \"#utility.yul\":881:913   */\n      add\n        /* \"#utility.yul\":878:919   */\n      gt\n        /* \"#utility.yul\":875:1003   */\n      iszero\n      tag_408\n      jumpi\n        /* \"#utility.yul\":922:1001   */\n      tag_409\n      tag_410\n      jump\t// in\n    tag_409:\n        /* \"#utility.yul\":875:1003   */\n    tag_408:\n        /* \"#utility.yul\":457:1009   */\n      swap3\n      pop\n      swap3\n      swap1\n      pop\n      jump\t// out\n        /* \"#utility.yul\":1015:1154   */\n    tag_411:\n        /* \"#utility.yul\":1061:1066   */\n      0x00\n        /* \"#utility.yul\":1099:1105   */\n      dup2\n        /* \"#utility.yul\":1086:1106   */\n      calldataload\n        /* \"#utility.yul\":1077:1106   */\n      swap1\n      pop\n        /* \"#utility.yul\":1115:1148   */\n      tag_413\n        /* \"#utility.yul\":1142:1147   */\n      dup2\n        /* \"#utility.yul\":1115:1148   */\n      tag_414\n      jump\t// in\n    tag_413:\n        /* \"#utility.yul\":1015:1154   */\n      swap3\n      swap2\n      pop\n      pop\n      jump\t// out\n        /* \"#utility.yul\":1160:1511   */\n    tag_207:\n        /* \"#utility.yul\":1230:1236   */\n      0x00\n        /* \"#utility.yul\":1279:1281   */\n      0x20\n        /* \"#utility.yul\":1267:1276   */\n      dup3\n        /* \"#utility.yul\":1258:1265   */\n      dup5\n        /* \"#utility.yul\":1254:1277   */\n      sub\n        /* \"#utility.yul\":1250:1282   */\n      slt\n        /* \"#utility.yul\":1247:1366   */\n      iszero\n      tag_416\n      jumpi\n        /* \"#utility.yul\":1285:1364   */\n      tag_417\n      tag_418\n      jump\t// in\n    tag_417:\n        /* \"#utility.yul\":1247:1366   */\n    tag_416:\n        /* \"#utility.yul\":1405:1406   */\n      0x00\n        /* \"#utility.yul\":1430:1494   */\n      tag_419\n        /* \"#utility.yul\":1486:1493   */\n      dup5\n        /* \"#utility.yul\":1477:1483   */\n      dup3\n        /* \"#utility.yul\":1466:1475   */\n      dup6\n        /* \"#utility.yul\":1462:1484   */\n      add\n        /* \"#utility.yul\":1430:1494   */\n      tag_393\n      jump\t// in\n    tag_419:\n        /* \"#utility.yul\":1420:1494   */\n      swap2\n      pop\n        /* \"#utility.yul\":1376:1504   */\n      pop\n        /* \"#utility.yul\":1160:1511   */\n      swap3\n      swap2\n      pop\n      pop\n      jump\t// out\n        /* \"#utility.yul\":1517:2480   */\n    tag_28:\n        /* \"#utility.yul\":1614:1620   */\n      0x00\n        /* \"#utility.yul\":1622:1628   */\n      dup1\n        /* \"#utility.yul\":1630:1636   */\n      0x00\n        /* \"#utility.yul\":1638:1644   */\n      dup1\n        /* \"#utility.yul\":1646:1652   */\n      0x00\n        /* \"#utility.yul\":1695:1698   */\n      0x80\n        /* \"#utility.yul\":1683:1692   */\n      dup7\n        /* \"#utility.yul\":1674:1681   */\n      dup9\n        /* \"#utility.yul\":1670:1693   */\n      sub\n        /* \"#utility.yul\":1666:1699   */\n      slt\n        /* \"#utility.yul\":1663:1783   */\n      iszero\n      tag_421\n      jumpi\n        /* \"#utility.yul\":1702:1781   */\n      tag_422\n      tag_418\n      jump\t// in\n    tag_422:\n        /* \"#utility.yul\":1663:1783   */\n    tag_421:\n        /* \"#utility.yul\":1822:1823   */\n      0x00\n        /* \"#utility.yul\":1847:1900   */\n      tag_423\n        /* \"#utility.yul\":1892:1899   */\n      dup9\n        /* \"#utility.yul\":1883:1889   */\n      dup3\n        /* \"#utility.yul\":1872:1881   */\n      dup10\n        /* \"#utility.yul\":1868:1890   */\n      add\n        /* \"#utility.yul\":1847:1900   */\n      tag_389\n      jump\t// in\n    tag_423:\n        /* \"#utility.yul\":1837:1900   */\n      swap6\n      pop\n        /* \"#utility.yul\":1793:1910   */\n      pop\n        /* \"#utility.yul\":1949:1951   */\n      0x20\n        /* \"#utility.yul\":1975:2028   */\n      tag_424\n        /* \"#utility.yul\":2020:2027   */\n      dup9\n        /* \"#utility.yul\":2011:2017   */\n      dup3\n        /* \"#utility.yul\":2000:2009   */\n      dup10\n        /* \"#utility.yul\":1996:2018   */\n      add\n        /* \"#utility.yul\":1975:2028   */\n      tag_389\n      jump\t// in\n    tag_424:\n        /* \"#utility.yul\":1965:2028   */\n      swap5\n      pop\n        /* \"#utility.yul\":1920:2038   */\n      pop\n        /* \"#utility.yul\":2077:2079   */\n      0x40\n        /* \"#utility.yul\":2103:2156   */\n      tag_425\n        /* \"#utility.yul\":2148:2155   */\n      dup9\n        /* \"#utility.yul\":2139:2145   */\n      dup3\n        /* \"#utility.yul\":2128:2137   */\n      dup10\n        /* \"#utility.yul\":2124:2146   */\n      add\n        /* \"#utility.yul\":2103:2156   */\n      tag_411\n      jump\t// in\n    tag_425:\n        /* \"#utility.yul\":2093:2156   */\n      swap4\n      pop\n        /* \"#utility.yul\":2048:2166   */\n      pop\n        /* \"#utility.yul\":2233:2235   */\n      0x60\n        /* \"#utility.yul\":2222:2231   */\n      dup7\n        /* \"#utility.yul\":2218:2236   */\n      add\n        /* \"#utility.yul\":2205:2237   */\n      calldataload\n        /* \"#utility.yul\":2264:2282   */\n      0xffffffffffffffff\n        /* \"#utility.yul\":2256:2262   */\n      dup2\n        /* \"#utility.yul\":2253:2283   */\n      gt\n        /* \"#utility.yul\":2250:2367   */\n      iszero\n      tag_426\n      jumpi\n        /* \"#utility.yul\":2286:2365   */\n      tag_427\n      tag_428\n      jump\t// in\n    tag_427:\n        /* \"#utility.yul\":2250:2367   */\n    tag_426:\n        /* \"#utility.yul\":2399:2463   */\n      tag_429\n        /* \"#utility.yul\":2455:2462   */\n      dup9\n        /* \"#utility.yul\":2446:2452   */\n      dup3\n        /* \"#utility.yul\":2435:2444   */\n      dup10\n        /* \"#utility.yul\":2431:2453   */\n      add\n        /* \"#utility.yul\":2399:2463   */\n      tag_400\n      jump\t// in\n    tag_429:\n        /* \"#utility.yul\":2381:2463   */\n      swap3\n      pop\n      swap3\n      pop\n        /* \"#utility.yul\":2176:2473   */\n      pop\n        /* \"#utility.yul\":1517:2480   */\n      swap3\n      swap6\n      pop\n      swap3\n      swap6\n      swap1\n      swap4\n      pop\n      jump\t// out\n        /* \"#utility.yul\":2486:3251   */\n    tag_66:\n        /* \"#utility.yul\":2572:2578   */\n      0x00\n        /* \"#utility.yul\":2580:2586   */\n      dup1\n        /* \"#utility.yul\":2588:2594   */\n      0x00\n        /* \"#utility.yul\":2596:2602   */\n      dup1\n        /* \"#utility.yul\":2645:2648   */\n      0x80\n        /* \"#utility.yul\":2633:2642   */\n      dup6\n        /* \"#utility.yul\":2624:2631   */\n      dup8\n        /* \"#utility.yul\":2620:2643   */\n      sub\n        /* \"#utility.yul\":2616:2649   */\n      slt\n        /* \"#utility.yul\":2613:2733   */\n      iszero\n      tag_431\n      jumpi\n        /* \"#utility.yul\":2652:2731   */\n      tag_432\n      tag_418\n      jump\t// in\n    tag_432:\n        /* \"#utility.yul\":2613:2733   */\n    tag_431:\n        /* \"#utility.yul\":2772:2773   */\n      0x00\n        /* \"#utility.yul\":2797:2850   */\n      tag_433\n        /* \"#utility.yul\":2842:2849   */\n      dup8\n        /* \"#utility.yul\":2833:2839   */\n      dup3\n        /* \"#utility.yul\":2822:2831   */\n      dup9\n        /* \"#utility.yul\":2818:2840   */\n      add\n        /* \"#utility.yul\":2797:2850   */\n      tag_389\n      jump\t// in\n    tag_433:\n        /* \"#utility.yul\":2787:2850   */\n      swap5\n      pop\n        /* \"#utility.yul\":2743:2860   */\n      pop\n        /* \"#utility.yul\":2899:2901   */\n      0x20\n        /* \"#utility.yul\":2925:2978   */\n      tag_434\n        /* \"#utility.yul\":2970:2977   */\n      dup8\n        /* \"#utility.yul\":2961:2967   */\n      dup3\n        /* \"#utility.yul\":2950:2959   */\n      dup9\n        /* \"#utility.yul\":2946:2968   */\n      add\n        /* \"#utility.yul\":2925:2978   */\n      tag_389\n      jump\t// in\n    tag_434:\n        /* \"#utility.yul\":2915:2978   */\n      swap4\n      pop\n        /* \"#utility.yul\":2870:2988   */\n      pop\n        /* \"#utility.yul\":3027:3029   */\n      0x40\n        /* \"#utility.yul\":3053:3106   */\n      tag_435\n        /* \"#utility.yul\":3098:3105   */\n      dup8\n        /* \"#utility.yul\":3089:3095   */\n      dup3\n        /* \"#utility.yul\":3078:3087   */\n      dup9\n        /* \"#utility.yul\":3074:3096   */\n      add\n        /* \"#utility.yul\":3053:3106   */\n      tag_411\n      jump\t// in\n    tag_435:\n        /* \"#utility.yul\":3043:3106   */\n      swap3\n      pop\n        /* \"#utility.yul\":2998:3116   */\n      pop\n        /* \"#utility.yul\":3155:3157   */\n      0x60\n        /* \"#utility.yul\":3181:3234   */\n      tag_436\n        /* \"#utility.yul\":3226:3233   */\n      dup8\n        /* \"#utility.yul\":3217:3223   */\n      dup3\n        /* \"#utility.yul\":3206:3215   */\n      dup9\n        /* \"#utility.yul\":3202:3224   */\n      add\n        /* \"#utility.yul\":3181:3234   */\n      tag_411\n      jump\t// in\n    tag_436:\n        /* \"#utility.yul\":3171:3234   */\n      swap2\n      pop\n        /* \"#utility.yul\":3126:3244   */\n      pop\n        /* \"#utility.yul\":2486:3251   */\n      swap3\n      swap6\n      swap2\n      swap5\n      pop\n      swap3\n      pop\n      jump\t// out\n        /* \"#utility.yul\":3257:4314   */\n    tag_100:\n        /* \"#utility.yul\":3361:3367   */\n      0x00\n        /* \"#utility.yul\":3369:3375   */\n      dup1\n        /* \"#utility.yul\":3377:3383   */\n      0x00\n        /* \"#utility.yul\":3385:3391   */\n      dup1\n        /* \"#utility.yul\":3393:3399   */\n      0x00\n        /* \"#utility.yul\":3401:3407   */\n      dup1\n        /* \"#utility.yul\":3450:3453   */\n      0xc0\n        /* \"#utility.yul\":3438:3447   */\n      dup8\n        /* \"#utility.yul\":3429:3436   */\n      dup10\n        /* \"#utility.yul\":3425:3448   */\n      sub\n        /* \"#utility.yul\":3421:3454   */\n      slt\n        /* \"#utility.yul\":3418:3538   */\n      iszero\n      tag_438\n      jumpi\n        /* \"#utility.yul\":3457:3536   */\n      tag_439\n      tag_418\n      jump\t// in\n    tag_439:\n        /* \"#utility.yul\":3418:3538   */\n    tag_438:\n        /* \"#utility.yul\":3577:3578   */\n      0x00\n        /* \"#utility.yul\":3602:3655   */\n      tag_440\n        /* \"#utility.yul\":3647:3654   */\n      dup10\n        /* \"#utility.yul\":3638:3644   */\n      dup3\n        /* \"#utility.yul\":3627:3636   */\n      dup11\n        /* \"#utility.yul\":3623:3645   */\n      add\n        /* \"#utility.yul\":3602:3655   */\n      tag_389\n      jump\t// in\n    tag_440:\n        /* \"#utility.yul\":3592:3655   */\n      swap7\n      pop\n        /* \"#utility.yul\":3548:3665   */\n      pop\n        /* \"#utility.yul\":3704:3706   */\n      0x20\n        /* \"#utility.yul\":3730:3783   */\n      tag_441\n        /* \"#utility.yul\":3775:3782   */\n      dup10\n        /* \"#utility.yul\":3766:3772   */\n      dup3\n        /* \"#utility.yul\":3755:3764   */\n      dup11\n        /* \"#utility.yul\":3751:3773   */\n      add\n        /* \"#utility.yul\":3730:3783   */\n      tag_389\n      jump\t// in\n    tag_441:\n        /* \"#utility.yul\":3720:3783   */\n      swap6\n      pop\n        /* \"#utility.yul\":3675:3793   */\n      pop\n        /* \"#utility.yul\":3832:3834   */\n      0x40\n        /* \"#utility.yul\":3858:3911   */\n      tag_442\n        /* \"#utility.yul\":3903:3910   */\n      dup10\n        /* \"#utility.yul\":3894:3900   */\n      dup3\n        /* \"#utility.yul\":3883:3892   */\n      dup11\n        /* \"#utility.yul\":3879:3901   */\n      add\n        /* \"#utility.yul\":3858:3911   */\n      tag_411\n      jump\t// in\n    tag_442:\n        /* \"#utility.yul\":3848:3911   */\n      swap5\n      pop\n        /* \"#utility.yul\":3803:3921   */\n      pop\n        /* \"#utility.yul\":3960:3962   */\n      0x60\n        /* \"#utility.yul\":3986:4039   */\n      tag_443\n        /* \"#utility.yul\":4031:4038   */\n      dup10\n        /* \"#utility.yul\":4022:4028   */\n      dup3\n        /* \"#utility.yul\":4011:4020   */\n      dup11\n        /* \"#utility.yul\":4007:4029   */\n      add\n        /* \"#utility.yul\":3986:4039   */\n      tag_411\n      jump\t// in\n    tag_443:\n        /* \"#utility.yul\":3976:4039   */\n      swap4\n      pop\n        /* \"#utility.yul\":3931:4049   */\n      pop\n        /* \"#utility.yul\":4088:4091   */\n      0x80\n        /* \"#utility.yul\":4115:4168   */\n      tag_444\n        /* \"#utility.yul\":4160:4167   */\n      dup10\n        /* \"#utility.yul\":4151:4157   */\n      dup3\n        /* \"#utility.yul\":4140:4149   */\n      dup11\n        /* \"#utility.yul\":4136:4158   */\n      add\n        /* \"#utility.yul\":4115:4168   */\n      tag_411\n      jump\t// in\n    tag_444:\n        /* \"#utility.yul\":4105:4168   */\n      swap3\n      pop\n        /* \"#utility.yul\":4059:4178   */\n      pop\n        /* \"#utility.yul\":4217:4220   */\n      0xa0\n        /* \"#utility.yul\":4244:4297   */\n      tag_445\n        /* \"#utility.yul\":4289:4296   */\n      dup10\n        /* \"#utility.yul\":4280:4286   */\n      dup3\n        /* \"#utility.yul\":4269:4278   */\n      dup11\n        /* \"#utility.yul\":4265:4287   */\n      add\n        /* \"#utility.yul\":4244:4297   */\n      tag_411\n      jump\t// in\n    tag_445:\n        /* \"#utility.yul\":4234:4297   */\n      swap2\n      pop\n        /* \"#utility.yul\":4188:4307   */\n      pop\n        /* \"#utility.yul\":3257:4314   */\n      swap3\n      swap6\n      pop\n      swap3\n      swap6\n      pop\n      swap3\n      swap6\n      jump\t// out\n        /* \"#utility.yul\":4320:4794   */\n    tag_51:\n        /* \"#utility.yul\":4388:4394   */\n      0x00\n        /* \"#utility.yul\":4396:4402   */\n      dup1\n        /* \"#utility.yul\":4445:4447   */\n      0x40\n        /* \"#utility.yul\":4433:4442   */\n      dup4\n        /* \"#utility.yul\":4424:4431   */\n      dup6\n        /* \"#utility.yul\":4420:4443   */\n      sub\n        /* \"#utility.yul\":4416:4448   */\n      slt\n        /* \"#utility.yul\":4413:4532   */\n      iszero\n      tag_447\n      jumpi\n        /* \"#utility.yul\":4451:4530   */\n      tag_448\n      tag_418\n      jump\t// in\n    tag_448:\n        /* \"#utility.yul\":4413:4532   */\n    tag_447:\n        /* \"#utility.yul\":4571:4572   */\n      0x00\n        /* \"#utility.yul\":4596:4649   */\n      tag_449\n        /* \"#utility.yul\":4641:4648   */\n      dup6\n        /* \"#utility.yul\":4632:4638   */\n      dup3\n        /* \"#utility.yul\":4621:4630   */\n      dup7\n        /* \"#utility.yul\":4617:4639   */\n      add\n        /* \"#utility.yul\":4596:4649   */\n      tag_389\n      jump\t// in\n    tag_449:\n        /* \"#utility.yul\":4586:4649   */\n      swap3\n      pop\n        /* \"#utility.yul\":4542:4659   */\n      pop\n        /* \"#utility.yul\":4698:4700   */\n      0x20\n        /* \"#utility.yul\":4724:4777   */\n      tag_450\n        /* \"#utility.yul\":4769:4776   */\n      dup6\n        /* \"#utility.yul\":4760:4766   */\n      dup3\n        /* \"#utility.yul\":4749:4758   */\n      dup7\n        /* \"#utility.yul\":4745:4767   */\n      add\n        /* \"#utility.yul\":4724:4777   */\n      tag_411\n      jump\t// in\n    tag_450:\n        /* \"#utility.yul\":4714:4777   */\n      swap2\n      pop\n        /* \"#utility.yul\":4669:4787   */\n      pop\n        /* \"#utility.yul\":4320:4794   */\n      swap3\n      pop\n      swap3\n      swap1\n      pop\n      jump\t// out\n        /* \"#utility.yul\":4800:5419   */\n    tag_77:\n        /* \"#utility.yul\":4877:4883   */\n      0x00\n        /* \"#utility.yul\":4885:4891   */\n      dup1\n        /* \"#utility.yul\":4893:4899   */\n      0x00\n        /* \"#utility.yul\":4942:4944   */\n      0x60\n        /* \"#utility.yul\":4930:4939   */\n      dup5\n        /* \"#utility.yul\":4921:4928   */\n      dup7\n        /* \"#utility.yul\":4917:4940   */\n      sub\n        /* \"#utility.yul\":4913:4945   */\n      slt\n        /* \"#utility.yul\":4910:5029   */\n      iszero\n      tag_452\n      jumpi\n        /* \"#utility.yul\":4948:5027   */\n      tag_453\n      tag_418\n      jump\t// in\n    tag_453:\n        /* \"#utility.yul\":4910:5029   */\n    tag_452:\n        /* \"#utility.yul\":5068:5069   */\n      0x00\n        /* \"#utility.yul\":5093:5146   */\n      tag_454\n        /* \"#utility.yul\":5138:5145   */\n      dup7\n        /* \"#utility.yul\":5129:5135   */\n      dup3\n        /* \"#utility.yul\":5118:5127   */\n      dup8\n        /* \"#utility.yul\":5114:5136   */\n      add\n        /* \"#utility.yul\":5093:5146   */\n      tag_389\n      jump\t// in\n    tag_454:\n        /* \"#utility.yul\":5083:5146   */\n      swap4\n      pop\n        /* \"#utility.yul\":5039:5156   */\n      pop\n        /* \"#utility.yul\":5195:5197   */\n      0x20\n        /* \"#utility.yul\":5221:5274   */\n      tag_455\n        /* \"#utility.yul\":5266:5273   */\n      dup7\n        /* \"#utility.yul\":5257:5263   */\n      dup3\n        /* \"#utility.yul\":5246:5255   */\n      dup8\n        /* \"#utility.yul\":5242:5264   */\n      add\n        /* \"#utility.yul\":5221:5274   */\n      tag_411\n      jump\t// in\n    tag_455:\n        /* \"#utility.yul\":5211:5274   */\n      swap3\n      pop\n        /* \"#utility.yul\":5166:5284   */\n      pop\n        /* \"#utility.yul\":5323:5325   */\n      0x40\n        /* \"#utility.yul\":5349:5402   */\n      tag_456\n        /* \"#utility.yul\":5394:5401   */\n      dup7\n        /* \"#utility.yul\":5385:5391   */\n      dup3\n        /* \"#utility.yul\":5374:5383   */\n      dup8\n        /* \"#utility.yul\":5370:5392   */\n      add\n        /* \"#utility.yul\":5349:5402   */\n      tag_389\n      jump\t// in\n    tag_456:\n        /* \"#utility.yul\":5339:5402   */\n      swap2\n      pop\n        /* \"#utility.yul\":5294:5412   */\n      pop\n        /* \"#utility.yul\":4800:5419   */\n      swap3\n      pop\n      swap3\n      pop\n      swap3\n      jump\t// out\n        /* \"#utility.yul\":5425:6044   */\n    tag_34:\n        /* \"#utility.yul\":5502:5508   */\n      0x00\n        /* \"#utility.yul\":5510:5516   */\n      dup1\n        /* \"#utility.yul\":5518:5524   */\n      0x00\n        /* \"#utility.yul\":5567:5569   */\n      0x60\n        /* \"#utility.yul\":5555:5564   */\n      dup5\n        /* \"#utility.yul\":5546:5553   */\n      dup7\n        /* \"#utility.yul\":5542:5565   */\n      sub\n        /* \"#utility.yul\":5538:5570   */\n      slt\n        /* \"#utility.yul\":5535:5654   */\n      iszero\n      tag_458\n      jumpi\n        /* \"#utility.yul\":5573:5652   */\n      tag_459\n      tag_418\n      jump\t// in\n    tag_459:\n        /* \"#utility.yul\":5535:5654   */\n    tag_458:\n        /* \"#utility.yul\":5693:5694   */\n      0x00\n        /* \"#utility.yul\":5718:5771   */\n      tag_460\n        /* \"#utility.yul\":5763:5770   */\n      dup7\n        /* \"#utility.yul\":5754:5760   */\n      dup3\n        /* \"#utility.yul\":5743:5752   */\n      dup8\n        /* \"#utility.yul\":5739:5761   */\n      add\n        /* \"#utility.yul\":5718:5771   */\n      tag_389\n      jump\t// in\n    tag_460:\n        /* \"#utility.yul\":5708:5771   */\n      swap4\n      pop\n        /* \"#utility.yul\":5664:5781   */\n      pop\n        /* \"#utility.yul\":5820:5822   */\n      0x20\n        /* \"#utility.yul\":5846:5899   */\n      tag_461\n        /* \"#utility.yul\":5891:5898   */\n      dup7\n        /* \"#utility.yul\":5882:5888   */\n      dup3\n        /* \"#utility.yul\":5871:5880   */\n      dup8\n        /* \"#utility.yul\":5867:5889   */\n      add\n        /* \"#utility.yul\":5846:5899   */\n      tag_411\n      jump\t// in\n    tag_461:\n        /* \"#utility.yul\":5836:5899   */\n      swap3\n      pop\n        /* \"#utility.yul\":5791:5909   */\n      pop\n        /* \"#utility.yul\":5948:5950   */\n      0x40\n        /* \"#utility.yul\":5974:6027   */\n      tag_462\n        /* \"#utility.yul\":6019:6026   */\n      dup7\n        /* \"#utility.yul\":6010:6016   */\n      dup3\n        /* \"#utility.yul\":5999:6008   */\n      dup8\n        /* \"#utility.yul\":5995:6017   */\n      add\n        /* \"#utility.yul\":5974:6027   */\n      tag_411\n      jump\t// in\n    tag_462:\n        /* \"#utility.yul\":5964:6027   */\n      swap2\n      pop\n        /* \"#utility.yul\":5919:6037   */\n      pop\n        /* \"#utility.yul\":5425:6044   */\n      swap3\n      pop\n      swap3\n      pop\n      swap3\n      jump\t// out\n        /* \"#utility.yul\":6050:6395   */\n    tag_221:\n        /* \"#utility.yul\":6117:6123   */\n      0x00\n        /* \"#utility.yul\":6166:6168   */\n      0x20\n        /* \"#utility.yul\":6154:6163   */\n      dup3\n        /* \"#utility.yul\":6145:6152   */\n      dup5\n        /* \"#utility.yul\":6141:6164   */\n      sub\n        /* \"#utility.yul\":6137:6169   */\n      slt\n        /* \"#utility.yul\":6134:6253   */\n      iszero\n      tag_464\n      jumpi\n        /* \"#utility.yul\":6172:6251   */\n      tag_465\n      tag_418\n      jump\t// in\n    tag_465:\n        /* \"#utility.yul\":6134:6253   */\n    tag_464:\n        /* \"#utility.yul\":6292:6293   */\n      0x00\n        /* \"#utility.yul\":6317:6378   */\n      tag_466\n        /* \"#utility.yul\":6370:6377   */\n      dup5\n        /* \"#utility.yul\":6361:6367   */\n      dup3\n        /* \"#utility.yul\":6350:6359   */\n      dup6\n        /* \"#utility.yul\":6346:6368   */\n      add\n        /* \"#utility.yul\":6317:6378   */\n      tag_396\n      jump\t// in\n    tag_466:\n        /* \"#utility.yul\":6307:6378   */\n      swap2\n      pop\n        /* \"#utility.yul\":6263:6388   */\n      pop\n        /* \"#utility.yul\":6050:6395   */\n      swap3\n      swap2\n      pop\n      pop\n      jump\t// out\n        /* \"#utility.yul\":6401:6680   */\n    tag_467:\n        /* \"#utility.yul\":6520:6530   */\n      0x00\n        /* \"#utility.yul\":6541:6637   */\n      tag_469\n        /* \"#utility.yul\":6633:6636   */\n      dup4\n        /* \"#utility.yul\":6625:6631   */\n      dup4\n        /* \"#utility.yul\":6541:6637   */\n      tag_470\n      jump\t// in\n    tag_469:\n        /* \"#utility.yul\":6669:6673   */\n      0x40\n        /* \"#utility.yul\":6664:6667   */\n      dup4\n        /* \"#utility.yul\":6660:6674   */\n      add\n        /* \"#utility.yul\":6646:6674   */\n      swap1\n      pop\n        /* \"#utility.yul\":6401:6680   */\n      swap3\n      swap2\n      pop\n      pop\n      jump\t// out\n        /* \"#utility.yul\":6686:6794   */\n    tag_471:\n        /* \"#utility.yul\":6763:6787   */\n      tag_473\n        /* \"#utility.yul\":6781:6786   */\n      dup2\n        /* \"#utility.yul\":6763:6787   */\n      tag_474\n      jump\t// in\n    tag_473:\n        /* \"#utility.yul\":6758:6761   */\n      dup3\n        /* \"#utility.yul\":6751:6788   */\n      mstore\n        /* \"#utility.yul\":6686:6794   */\n      pop\n      pop\n      jump\t// out\n        /* \"#utility.yul\":6800:6918   */\n    tag_475:\n        /* \"#utility.yul\":6887:6911   */\n      tag_477\n        /* \"#utility.yul\":6905:6910   */\n      dup2\n        /* \"#utility.yul\":6887:6911   */\n      tag_474\n      jump\t// in\n    tag_477:\n        /* \"#utility.yul\":6882:6885   */\n      dup3\n        /* \"#utility.yul\":6875:6912   */\n      mstore\n        /* \"#utility.yul\":6800:6918   */\n      pop\n      pop\n      jump\t// out\n        /* \"#utility.yul\":7000:7932   */\n    tag_478:\n        /* \"#utility.yul\":7169:7172   */\n      0x00\n        /* \"#utility.yul\":7198:7277   */\n      tag_480\n        /* \"#utility.yul\":7271:7276   */\n      dup3\n        /* \"#utility.yul\":7198:7277   */\n      tag_481\n      jump\t// in\n    tag_480:\n        /* \"#utility.yul\":7293:7404   */\n      tag_482\n        /* \"#utility.yul\":7397:7403   */\n      dup2\n        /* \"#utility.yul\":7392:7395   */\n      dup6\n        /* \"#utility.yul\":7293:7404   */\n      tag_483\n      jump\t// in\n    tag_482:\n        /* \"#utility.yul\":7286:7404   */\n      swap4\n      pop\n        /* \"#utility.yul\":7428:7509   */\n      tag_484\n        /* \"#utility.yul\":7503:7508   */\n      dup4\n        /* \"#utility.yul\":7428:7509   */\n      tag_485\n      jump\t// in\n    tag_484:\n        /* \"#utility.yul\":7532:7539   */\n      dup1\n        /* \"#utility.yul\":7563:7564   */\n      0x00\n        /* \"#utility.yul\":7548:7907   */\n    tag_486:\n        /* \"#utility.yul\":7573:7579   */\n      dup4\n        /* \"#utility.yul\":7570:7571   */\n      dup2\n        /* \"#utility.yul\":7567:7580   */\n      lt\n        /* \"#utility.yul\":7548:7907   */\n      iszero\n      tag_488\n      jumpi\n        /* \"#utility.yul\":7649:7655   */\n      dup2\n        /* \"#utility.yul\":7643:7656   */\n      mload\n        /* \"#utility.yul\":7676:7789   */\n      tag_489\n        /* \"#utility.yul\":7785:7788   */\n      dup9\n        /* \"#utility.yul\":7770:7783   */\n      dup3\n        /* \"#utility.yul\":7676:7789   */\n      tag_467\n      jump\t// in\n    tag_489:\n        /* \"#utility.yul\":7669:7789   */\n      swap8\n      pop\n        /* \"#utility.yul\":7812:7897   */\n      tag_490\n        /* \"#utility.yul\":7890:7896   */\n      dup4\n        /* \"#utility.yul\":7812:7897   */\n      tag_491\n      jump\t// in\n    tag_490:\n        /* \"#utility.yul\":7802:7897   */\n      swap3\n      pop\n        /* \"#utility.yul\":7608:7907   */\n      pop\n        /* \"#utility.yul\":7595:7596   */\n      0x01\n        /* \"#utility.yul\":7592:7593   */\n      dup2\n        /* \"#utility.yul\":7588:7597   */\n      add\n        /* \"#utility.yul\":7583:7597   */\n      swap1\n      pop\n        /* \"#utility.yul\":7548:7907   */\n      jump(tag_486)\n    tag_488:\n        /* \"#utility.yul\":7552:7566   */\n      pop\n        /* \"#utility.yul\":7923:7926   */\n      dup6\n        /* \"#utility.yul\":7916:7926   */\n      swap4\n      pop\n        /* \"#utility.yul\":7174:7932   */\n      pop\n      pop\n      pop\n        /* \"#utility.yul\":7000:7932   */\n      swap3\n      swap2\n      pop\n      pop\n      jump\t// out\n        /* \"#utility.yul\":7938:8053   */\n    tag_492:\n        /* \"#utility.yul\":8023:8046   */\n      tag_494\n        /* \"#utility.yul\":8040:8045   */\n      dup2\n        /* \"#utility.yul\":8023:8046   */\n      tag_495\n      jump\t// in\n    tag_494:\n        /* \"#utility.yul\":8018:8021   */\n      dup3\n        /* \"#utility.yul\":8011:8047   */\n      mstore\n        /* \"#utility.yul\":7938:8053   */\n      pop\n      pop\n      jump\t// out\n        /* \"#utility.yul\":8059:8425   */\n    tag_496:\n        /* \"#utility.yul\":8201:8204   */\n      0x00\n        /* \"#utility.yul\":8222:8289   */\n      tag_498\n        /* \"#utility.yul\":8286:8288   */\n      0x16\n        /* \"#utility.yul\":8281:8284   */\n      dup4\n        /* \"#utility.yul\":8222:8289   */\n      tag_499\n      jump\t// in\n    tag_498:\n        /* \"#utility.yul\":8215:8289   */\n      swap2\n      pop\n        /* \"#utility.yul\":8298:8391   */\n      tag_500\n        /* \"#utility.yul\":8387:8390   */\n      dup3\n        /* \"#utility.yul\":8298:8391   */\n      tag_501\n      jump\t// in\n    tag_500:\n        /* \"#utility.yul\":8416:8418   */\n      0x20\n        /* \"#utility.yul\":8411:8414   */\n      dup3\n        /* \"#utility.yul\":8407:8419   */\n      add\n        /* \"#utility.yul\":8400:8419   */\n      swap1\n      pop\n        /* \"#utility.yul\":8059:8425   */\n      swap2\n      swap1\n      pop\n      jump\t// out\n        /* \"#utility.yul\":8431:8797   */\n    tag_502:\n        /* \"#utility.yul\":8573:8576   */\n      0x00\n        /* \"#utility.yul\":8594:8661   */\n      tag_504\n        /* \"#utility.yul\":8658:8660   */\n      0x1c\n        /* \"#utility.yul\":8653:8656   */\n      dup4\n        /* \"#utility.yul\":8594:8661   */\n      tag_499\n      jump\t// in\n    tag_504:\n        /* \"#utility.yul\":8587:8661   */\n      swap2\n      pop\n        /* \"#utility.yul\":8670:8763   */\n      tag_505\n        /* \"#utility.yul\":8759:8762   */\n      dup3\n        /* \"#utility.yul\":8670:8763   */\n      tag_506\n      jump\t// in\n    tag_505:\n        /* \"#utility.yul\":8788:8790   */\n      0x20\n        /* \"#utility.yul\":8783:8786   */\n      dup3\n        /* \"#utility.yul\":8779:8791   */\n      add\n        /* \"#utility.yul\":8772:8791   */\n      swap1\n      pop\n        /* \"#utility.yul\":8431:8797   */\n      swap2\n      swap1\n      pop\n      jump\t// out\n        /* \"#utility.yul\":8803:9169   */\n    tag_507:\n        /* \"#utility.yul\":8945:8948   */\n      0x00\n        /* \"#utility.yul\":8966:9033   */\n      tag_509\n        /* \"#utility.yul\":9030:9032   */\n      0x11\n        /* \"#utility.yul\":9025:9028   */\n      dup4\n        /* \"#utility.yul\":8966:9033   */\n      tag_499\n      jump\t// in\n    tag_509:\n        /* \"#utility.yul\":8959:9033   */\n      swap2\n      pop\n        /* \"#utility.yul\":9042:9135   */\n      tag_510\n        /* \"#utility.yul\":9131:9134   */\n      dup3\n        /* \"#utility.yul\":9042:9135   */\n      tag_511\n      jump\t// in\n    tag_510:\n        /* \"#utility.yul\":9160:9162   */\n      0x20\n        /* \"#utility.yul\":9155:9158   */\n      dup3\n        /* \"#utility.yul\":9151:9163   */\n      add\n        /* \"#utility.yul\":9144:9163   */\n      swap1\n      pop\n        /* \"#utility.yul\":8803:9169   */\n      swap2\n      swap1\n      pop\n      jump\t// out\n        /* \"#utility.yul\":9175:9541   */\n    tag_512:\n        /* \"#utility.yul\":9317:9320   */\n      0x00\n        /* \"#utility.yul\":9338:9405   */\n      tag_514\n        /* \"#utility.yul\":9402:9404   */\n      0x0d\n        /* \"#utility.yul\":9397:9400   */\n      dup4\n        /* \"#utility.yul\":9338:9405   */\n      tag_499\n      jump\t// in\n    tag_514:\n        /* \"#utility.yul\":9331:9405   */\n      swap2\n      pop\n        /* \"#utility.yul\":9414:9507   */\n      tag_515\n        /* \"#utility.yul\":9503:9506   */\n      dup3\n        /* \"#utility.yul\":9414:9507   */\n      tag_516\n      jump\t// in\n    tag_515:\n        /* \"#utility.yul\":9532:9534   */\n      0x20\n        /* \"#utility.yul\":9527:9530   */\n      dup3\n        /* \"#utility.yul\":9523:9535   */\n      add\n        /* \"#utility.yul\":9516:9535   */\n      swap1\n      pop\n        /* \"#utility.yul\":9175:9541   */\n      swap2\n      swap1\n      pop\n      jump\t// out\n        /* \"#utility.yul\":9547:9913   */\n    tag_517:\n        /* \"#utility.yul\":9689:9692   */\n      0x00\n        /* \"#utility.yul\":9710:9777   */\n      tag_519\n        /* \"#utility.yul\":9774:9776   */\n      0x15\n        /* \"#utility.yul\":9769:9772   */\n      dup4\n        /* \"#utility.yul\":9710:9777   */\n      tag_499\n      jump\t// in\n    tag_519:\n        /* \"#utility.yul\":9703:9777   */\n      swap2\n      pop\n        /* \"#utility.yul\":9786:9879   */\n      tag_520\n        /* \"#utility.yul\":9875:9878   */\n      dup3\n        /* \"#utility.yul\":9786:9879   */\n      tag_521\n      jump\t// in\n    tag_520:\n        /* \"#utility.yul\":9904:9906   */\n      0x20\n        /* \"#utility.yul\":9899:9902   */\n      dup3\n        /* \"#utility.yul\":9895:9907   */\n      add\n        /* \"#utility.yul\":9888:9907   */\n      swap1\n      pop\n        /* \"#utility.yul\":9547:9913   */\n      swap2\n      swap1\n      pop\n      jump\t// out\n        /* \"#utility.yul\":9919:10285   */\n    tag_522:\n        /* \"#utility.yul\":10061:10064   */\n      0x00\n        /* \"#utility.yul\":10082:10149   */\n      tag_524\n        /* \"#utility.yul\":10146:10148   */\n      0x17\n        /* \"#utility.yul\":10141:10144   */\n      dup4\n        /* \"#utility.yul\":10082:10149   */\n      tag_499\n      jump\t// in\n    tag_524:\n        /* \"#utility.yul\":10075:10149   */\n      swap2\n      pop\n        /* \"#utility.yul\":10158:10251   */\n      tag_525\n        /* \"#utility.yul\":10247:10250   */\n      dup3\n        /* \"#utility.yul\":10158:10251   */\n      tag_526\n      jump\t// in\n    tag_525:\n        /* \"#utility.yul\":10276:10278   */\n      0x20\n        /* \"#utility.yul\":10271:10274   */\n      dup3\n        /* \"#utility.yul\":10267:10279   */\n      add\n        /* \"#utility.yul\":10260:10279   */\n      swap1\n      pop\n        /* \"#utility.yul\":9919:10285   */\n      swap2\n      swap1\n      pop\n      jump\t// out\n        /* \"#utility.yul\":10291:10657   */\n    tag_527:\n        /* \"#utility.yul\":10433:10436   */\n      0x00\n        /* \"#utility.yul\":10454:10521   */\n      tag_529\n        /* \"#utility.yul\":10518:10520   */\n      0x1d\n        /* \"#utility.yul\":10513:10516   */\n      dup4\n        /* \"#utility.yul\":10454:10521   */\n      tag_499\n      jump\t// in\n    tag_529:\n        /* \"#utility.yul\":10447:10521   */\n      swap2\n      pop\n        /* \"#utility.yul\":10530:10623   */\n      tag_530\n        /* \"#utility.yul\":10619:10622   */\n      dup3\n        /* \"#utility.yul\":10530:10623   */\n      tag_531\n      jump\t// in\n    tag_530:\n        /* \"#utility.yul\":10648:10650   */\n      0x20\n        /* \"#utility.yul\":10643:10646   */\n      dup3\n        /* \"#utility.yul\":10639:10651   */\n      add\n        /* \"#utility.yul\":10632:10651   */\n      swap1\n      pop\n        /* \"#utility.yul\":10291:10657   */\n      swap2\n      swap1\n      pop\n      jump\t// out\n        /* \"#utility.yul\":10663:11029   */\n    tag_532:\n        /* \"#utility.yul\":10805:10808   */\n      0x00\n        /* \"#utility.yul\":10826:10893   */\n      tag_534\n        /* \"#utility.yul\":10890:10892   */\n      0x0b\n        /* \"#utility.yul\":10885:10888   */\n      dup4\n        /* \"#utility.yul\":10826:10893   */\n      tag_499\n      jump\t// in\n    tag_534:\n        /* \"#utility.yul\":10819:10893   */\n      swap2\n      pop\n        /* \"#utility.yul\":10902:10995   */\n      tag_535\n        /* \"#utility.yul\":10991:10994   */\n      dup3\n        /* \"#utility.yul\":10902:10995   */\n      tag_536\n      jump\t// in\n    tag_535:\n        /* \"#utility.yul\":11020:11022   */\n      0x20\n        /* \"#utility.yul\":11015:11018   */\n      dup3\n        /* \"#utility.yul\":11011:11023   */\n      add\n        /* \"#utility.yul\":11004:11023   */\n      swap1\n      pop\n        /* \"#utility.yul\":10663:11029   */\n      swap2\n      swap1\n      pop\n      jump\t// out\n        /* \"#utility.yul\":11035:11401   */\n    tag_537:\n        /* \"#utility.yul\":11177:11180   */\n      0x00\n        /* \"#utility.yul\":11198:11265   */\n      tag_539\n        /* \"#utility.yul\":11262:11264   */\n      0x13\n        /* \"#utility.yul\":11257:11260   */\n      dup4\n        /* \"#utility.yul\":11198:11265   */\n      tag_499\n      jump\t// in\n    tag_539:\n        /* \"#utility.yul\":11191:11265   */\n      swap2\n      pop\n        /* \"#utility.yul\":11274:11367   */\n      tag_540\n        /* \"#utility.yul\":11363:11366   */\n      dup3\n        /* \"#utility.yul\":11274:11367   */\n      tag_541\n      jump\t// in\n    tag_540:\n        /* \"#utility.yul\":11392:11394   */\n      0x20\n        /* \"#utility.yul\":11387:11390   */\n      dup3\n        /* \"#utility.yul\":11383:11395   */\n      add\n        /* \"#utility.yul\":11376:11395   */\n      swap1\n      pop\n        /* \"#utility.yul\":11035:11401   */\n      swap2\n      swap1\n      pop\n      jump\t// out\n        /* \"#utility.yul\":11407:11772   */\n    tag_542:\n        /* \"#utility.yul\":11549:11552   */\n      0x00\n        /* \"#utility.yul\":11570:11636   */\n      tag_544\n        /* \"#utility.yul\":11634:11635   */\n      0x08\n        /* \"#utility.yul\":11629:11632   */\n      dup4\n        /* \"#utility.yul\":11570:11636   */\n      tag_499\n      jump\t// in\n    tag_544:\n        /* \"#utility.yul\":11563:11636   */\n      swap2\n      pop\n        /* \"#utility.yul\":11645:11738   */\n      tag_545\n        /* \"#utility.yul\":11734:11737   */\n      dup3\n        /* \"#utility.yul\":11645:11738   */\n      tag_546\n      jump\t// in\n    tag_545:\n        /* \"#utility.yul\":11763:11765   */\n      0x20\n        /* \"#utility.yul\":11758:11761   */\n      dup3\n        /* \"#utility.yul\":11754:11766   */\n      add\n        /* \"#utility.yul\":11747:11766   */\n      swap1\n      pop\n        /* \"#utility.yul\":11407:11772   */\n      swap2\n      swap1\n      pop\n      jump\t// out\n        /* \"#utility.yul\":11778:12144   */\n    tag_547:\n        /* \"#utility.yul\":11920:11923   */\n      0x00\n        /* \"#utility.yul\":11941:12008   */\n      tag_549\n        /* \"#utility.yul\":12005:12007   */\n      0x14\n        /* \"#utility.yul\":12000:12003   */\n      dup4\n        /* \"#utility.yul\":11941:12008   */\n      tag_499\n      jump\t// in\n    tag_549:\n        /* \"#utility.yul\":11934:12008   */\n      swap2\n      pop\n        /* \"#utility.yul\":12017:12110   */\n      tag_550\n        /* \"#utility.yul\":12106:12109   */\n      dup3\n        /* \"#utility.yul\":12017:12110   */\n      tag_551\n      jump\t// in\n    tag_550:\n        /* \"#utility.yul\":12135:12137   */\n      0x20\n        /* \"#utility.yul\":12130:12133   */\n      dup3\n        /* \"#utility.yul\":12126:12138   */\n      add\n        /* \"#utility.yul\":12119:12138   */\n      swap1\n      pop\n        /* \"#utility.yul\":11778:12144   */\n      swap2\n      swap1\n      pop\n      jump\t// out\n        /* \"#utility.yul\":12150:12516   */\n    tag_552:\n        /* \"#utility.yul\":12292:12295   */\n      0x00\n        /* \"#utility.yul\":12313:12380   */\n      tag_554\n        /* \"#utility.yul\":12377:12379   */\n      0x0f\n        /* \"#utility.yul\":12372:12375   */\n      dup4\n        /* \"#utility.yul\":12313:12380   */\n      tag_499\n      jump\t// in\n    tag_554:\n        /* \"#utility.yul\":12306:12380   */\n      swap2\n      pop\n        /* \"#utility.yul\":12389:12482   */\n      tag_555\n        /* \"#utility.yul\":12478:12481   */\n      dup3\n        /* \"#utility.yul\":12389:12482   */\n      tag_556\n      jump\t// in\n    tag_555:\n        /* \"#utility.yul\":12507:12509   */\n      0x20\n        /* \"#utility.yul\":12502:12505   */\n      dup3\n        /* \"#utility.yul\":12498:12510   */\n      add\n        /* \"#utility.yul\":12491:12510   */\n      swap1\n      pop\n        /* \"#utility.yul\":12150:12516   */\n      swap2\n      swap1\n      pop\n      jump\t// out\n        /* \"#utility.yul\":12522:12888   */\n    tag_557:\n        /* \"#utility.yul\":12664:12667   */\n      0x00\n        /* \"#utility.yul\":12685:12752   */\n      tag_559\n        /* \"#utility.yul\":12749:12751   */\n      0x15\n        /* \"#utility.yul\":12744:12747   */\n      dup4\n        /* \"#utility.yul\":12685:12752   */\n      tag_499\n      jump\t// in\n    tag_559:\n        /* \"#utility.yul\":12678:12752   */\n      swap2\n      pop\n        /* \"#utility.yul\":12761:12854   */\n      tag_560\n        /* \"#utility.yul\":12850:12853   */\n      dup3\n        /* \"#utility.yul\":12761:12854   */\n      tag_561\n      jump\t// in\n    tag_560:\n        /* \"#utility.yul\":12879:12881   */\n      0x20\n        /* \"#utility.yul\":12874:12877   */\n      dup3\n        /* \"#utility.yul\":12870:12882   */\n      add\n        /* \"#utility.yul\":12863:12882   */\n      swap1\n      pop\n        /* \"#utility.yul\":12522:12888   */\n      swap2\n      swap1\n      pop\n      jump\t// out\n        /* \"#utility.yul\":12894:13292   */\n    tag_562:\n        /* \"#utility.yul\":13053:13056   */\n      0x00\n        /* \"#utility.yul\":13074:13157   */\n      tag_564\n        /* \"#utility.yul\":13155:13156   */\n      0x00\n        /* \"#utility.yul\":13150:13153   */\n      dup4\n        /* \"#utility.yul\":13074:13157   */\n      tag_565\n      jump\t// in\n    tag_564:\n        /* \"#utility.yul\":13067:13157   */\n      swap2\n      pop\n        /* \"#utility.yul\":13166:13259   */\n      tag_566\n        /* \"#utility.yul\":13255:13258   */\n      dup3\n        /* \"#utility.yul\":13166:13259   */\n      tag_567\n      jump\t// in\n    tag_566:\n        /* \"#utility.yul\":13284:13285   */\n      0x00\n        /* \"#utility.yul\":13279:13282   */\n      dup3\n        /* \"#utility.yul\":13275:13286   */\n      add\n        /* \"#utility.yul\":13268:13286   */\n      swap1\n      pop\n        /* \"#utility.yul\":12894:13292   */\n      swap2\n      swap1\n      pop\n      jump\t// out\n        /* \"#utility.yul\":13298:13664   */\n    tag_568:\n        /* \"#utility.yul\":13440:13443   */\n      0x00\n        /* \"#utility.yul\":13461:13528   */\n      tag_570\n        /* \"#utility.yul\":13525:13527   */\n      0x13\n        /* \"#utility.yul\":13520:13523   */\n      dup4\n        /* \"#utility.yul\":13461:13528   */\n      tag_499\n      jump\t// in\n    tag_570:\n        /* \"#utility.yul\":13454:13528   */\n      swap2\n      pop\n        /* \"#utility.yul\":13537:13630   */\n      tag_571\n        /* \"#utility.yul\":13626:13629   */\n      dup3\n        /* \"#utility.yul\":13537:13630   */\n      tag_572\n      jump\t// in\n    tag_571:\n        /* \"#utility.yul\":13655:13657   */\n      0x20\n        /* \"#utility.yul\":13650:13653   */\n      dup3\n        /* \"#utility.yul\":13646:13658   */\n      add\n        /* \"#utility.yul\":13639:13658   */\n      swap1\n      pop\n        /* \"#utility.yul\":13298:13664   */\n      swap2\n      swap1\n      pop\n      jump\t// out\n        /* \"#utility.yul\":13670:14036   */\n    tag_573:\n        /* \"#utility.yul\":13812:13815   */\n      0x00\n        /* \"#utility.yul\":13833:13900   */\n      tag_575\n        /* \"#utility.yul\":13897:13899   */\n      0x14\n        /* \"#utility.yul\":13892:13895   */\n      dup4\n        /* \"#utility.yul\":13833:13900   */\n      tag_499\n      jump\t// in\n    tag_575:\n        /* \"#utility.yul\":13826:13900   */\n      swap2\n      pop\n        /* \"#utility.yul\":13909:14002   */\n      tag_576\n        /* \"#utility.yul\":13998:14001   */\n      dup3\n        /* \"#utility.yul\":13909:14002   */\n      tag_577\n      jump\t// in\n    tag_576:\n        /* \"#utility.yul\":14027:14029   */\n      0x20\n        /* \"#utility.yul\":14022:14025   */\n      dup3\n        /* \"#utility.yul\":14018:14030   */\n      add\n        /* \"#utility.yul\":14011:14030   */\n      swap1\n      pop\n        /* \"#utility.yul\":13670:14036   */\n      swap2\n      swap1\n      pop\n      jump\t// out\n        /* \"#utility.yul\":14042:14408   */\n    tag_578:\n        /* \"#utility.yul\":14184:14187   */\n      0x00\n        /* \"#utility.yul\":14205:14272   */\n      tag_580\n        /* \"#utility.yul\":14269:14271   */\n      0x0d\n        /* \"#utility.yul\":14264:14267   */\n      dup4\n        /* \"#utility.yul\":14205:14272   */\n      tag_499\n      jump\t// in\n    tag_580:\n        /* \"#utility.yul\":14198:14272   */\n      swap2\n      pop\n        /* \"#utility.yul\":14281:14374   */\n      tag_581\n        /* \"#utility.yul\":14370:14373   */\n      dup3\n        /* \"#utility.yul\":14281:14374   */\n      tag_582\n      jump\t// in\n    tag_581:\n        /* \"#utility.yul\":14399:14401   */\n      0x20\n        /* \"#utility.yul\":14394:14397   */\n      dup3\n        /* \"#utility.yul\":14390:14402   */\n      add\n        /* \"#utility.yul\":14383:14402   */\n      swap1\n      pop\n        /* \"#utility.yul\":14042:14408   */\n      swap2\n      swap1\n      pop\n      jump\t// out\n        /* \"#utility.yul\":14484:15904   */\n    tag_583:\n        /* \"#utility.yul\":14629:14633   */\n      0xe0\n        /* \"#utility.yul\":14624:14627   */\n      dup3\n        /* \"#utility.yul\":14620:14634   */\n      add\n        /* \"#utility.yul\":14724:14728   */\n      0x00\n        /* \"#utility.yul\":14717:14722   */\n      dup3\n        /* \"#utility.yul\":14713:14729   */\n      add\n        /* \"#utility.yul\":14707:14730   */\n      mload\n        /* \"#utility.yul\":14743:14806   */\n      tag_585\n        /* \"#utility.yul\":14800:14804   */\n      0x00\n        /* \"#utility.yul\":14795:14798   */\n      dup6\n        /* \"#utility.yul\":14791:14805   */\n      add\n        /* \"#utility.yul\":14777:14789   */\n      dup3\n        /* \"#utility.yul\":14743:14806   */\n      tag_586\n      jump\t// in\n    tag_585:\n        /* \"#utility.yul\":14644:14816   */\n      pop\n        /* \"#utility.yul\":14904:14908   */\n      0x20\n        /* \"#utility.yul\":14897:14902   */\n      dup3\n        /* \"#utility.yul\":14893:14909   */\n      add\n        /* \"#utility.yul\":14887:14910   */\n      mload\n        /* \"#utility.yul\":14923:14986   */\n      tag_587\n        /* \"#utility.yul\":14980:14984   */\n      0x20\n        /* \"#utility.yul\":14975:14978   */\n      dup6\n        /* \"#utility.yul\":14971:14985   */\n      add\n        /* \"#utility.yul\":14957:14969   */\n      dup3\n        /* \"#utility.yul\":14923:14986   */\n      tag_586\n      jump\t// in\n    tag_587:\n        /* \"#utility.yul\":14826:14996   */\n      pop\n        /* \"#utility.yul\":15082:15086   */\n      0x40\n        /* \"#utility.yul\":15075:15080   */\n      dup3\n        /* \"#utility.yul\":15071:15087   */\n      add\n        /* \"#utility.yul\":15065:15088   */\n      mload\n        /* \"#utility.yul\":15101:15164   */\n      tag_588\n        /* \"#utility.yul\":15158:15162   */\n      0x40\n        /* \"#utility.yul\":15153:15156   */\n      dup6\n        /* \"#utility.yul\":15149:15163   */\n      add\n        /* \"#utility.yul\":15135:15147   */\n      dup3\n        /* \"#utility.yul\":15101:15164   */\n      tag_586\n      jump\t// in\n    tag_588:\n        /* \"#utility.yul\":15006:15174   */\n      pop\n        /* \"#utility.yul\":15265:15269   */\n      0x60\n        /* \"#utility.yul\":15258:15263   */\n      dup3\n        /* \"#utility.yul\":15254:15270   */\n      add\n        /* \"#utility.yul\":15248:15271   */\n      mload\n        /* \"#utility.yul\":15284:15347   */\n      tag_589\n        /* \"#utility.yul\":15341:15345   */\n      0x60\n        /* \"#utility.yul\":15336:15339   */\n      dup6\n        /* \"#utility.yul\":15332:15346   */\n      add\n        /* \"#utility.yul\":15318:15330   */\n      dup3\n        /* \"#utility.yul\":15284:15347   */\n      tag_586\n      jump\t// in\n    tag_589:\n        /* \"#utility.yul\":15184:15357   */\n      pop\n        /* \"#utility.yul\":15451:15455   */\n      0x80\n        /* \"#utility.yul\":15444:15449   */\n      dup3\n        /* \"#utility.yul\":15440:15456   */\n      add\n        /* \"#utility.yul\":15434:15457   */\n      mload\n        /* \"#utility.yul\":15470:15533   */\n      tag_590\n        /* \"#utility.yul\":15527:15531   */\n      0x80\n        /* \"#utility.yul\":15522:15525   */\n      dup6\n        /* \"#utility.yul\":15518:15532   */\n      add\n        /* \"#utility.yul\":15504:15516   */\n      dup3\n        /* \"#utility.yul\":15470:15533   */\n      tag_471\n      jump\t// in\n    tag_590:\n        /* \"#utility.yul\":15367:15543   */\n      pop\n        /* \"#utility.yul\":15630:15634   */\n      0xa0\n        /* \"#utility.yul\":15623:15628   */\n      dup3\n        /* \"#utility.yul\":15619:15635   */\n      add\n        /* \"#utility.yul\":15613:15636   */\n      mload\n        /* \"#utility.yul\":15649:15712   */\n      tag_591\n        /* \"#utility.yul\":15706:15710   */\n      0xa0\n        /* \"#utility.yul\":15701:15704   */\n      dup6\n        /* \"#utility.yul\":15697:15711   */\n      add\n        /* \"#utility.yul\":15683:15695   */\n      dup3\n        /* \"#utility.yul\":15649:15712   */\n      tag_471\n      jump\t// in\n    tag_591:\n        /* \"#utility.yul\":15553:15722   */\n      pop\n        /* \"#utility.yul\":15805:15809   */\n      0xc0\n        /* \"#utility.yul\":15798:15803   */\n      dup3\n        /* \"#utility.yul\":15794:15810   */\n      add\n        /* \"#utility.yul\":15788:15811   */\n      mload\n        /* \"#utility.yul\":15824:15887   */\n      tag_592\n        /* \"#utility.yul\":15881:15885   */\n      0xc0\n        /* \"#utility.yul\":15876:15879   */\n      dup6\n        /* \"#utility.yul\":15872:15886   */\n      add\n        /* \"#utility.yul\":15858:15870   */\n      dup3\n        /* \"#utility.yul\":15824:15887   */\n      tag_471\n      jump\t// in\n    tag_592:\n        /* \"#utility.yul\":15732:15897   */\n      pop\n        /* \"#utility.yul\":14598:15904   */\n      pop\n        /* \"#utility.yul\":14484:15904   */\n      pop\n      pop\n      jump\t// out\n        /* \"#utility.yul\":15984:16856   */\n    tag_593:\n        /* \"#utility.yul\":16133:16137   */\n      0x80\n        /* \"#utility.yul\":16128:16131   */\n      dup3\n        /* \"#utility.yul\":16124:16138   */\n      add\n        /* \"#utility.yul\":16225:16229   */\n      0x00\n        /* \"#utility.yul\":16218:16223   */\n      dup3\n        /* \"#utility.yul\":16214:16230   */\n      add\n        /* \"#utility.yul\":16208:16231   */\n      mload\n        /* \"#utility.yul\":16244:16307   */\n      tag_595\n        /* \"#utility.yul\":16301:16305   */\n      0x00\n        /* \"#utility.yul\":16296:16299   */\n      dup6\n        /* \"#utility.yul\":16292:16306   */\n      add\n        /* \"#utility.yul\":16278:16290   */\n      dup3\n        /* \"#utility.yul\":16244:16307   */\n      tag_471\n      jump\t// in\n    tag_595:\n        /* \"#utility.yul\":16148:16317   */\n      pop\n        /* \"#utility.yul\":16403:16407   */\n      0x20\n        /* \"#utility.yul\":16396:16401   */\n      dup3\n        /* \"#utility.yul\":16392:16408   */\n      add\n        /* \"#utility.yul\":16386:16409   */\n      mload\n        /* \"#utility.yul\":16422:16485   */\n      tag_596\n        /* \"#utility.yul\":16479:16483   */\n      0x20\n        /* \"#utility.yul\":16474:16477   */\n      dup6\n        /* \"#utility.yul\":16470:16484   */\n      add\n        /* \"#utility.yul\":16456:16468   */\n      dup3\n        /* \"#utility.yul\":16422:16485   */\n      tag_471\n      jump\t// in\n    tag_596:\n        /* \"#utility.yul\":16327:16495   */\n      pop\n        /* \"#utility.yul\":16578:16582   */\n      0x40\n        /* \"#utility.yul\":16571:16576   */\n      dup3\n        /* \"#utility.yul\":16567:16583   */\n      add\n        /* \"#utility.yul\":16561:16584   */\n      mload\n        /* \"#utility.yul\":16597:16660   */\n      tag_597\n        /* \"#utility.yul\":16654:16658   */\n      0x40\n        /* \"#utility.yul\":16649:16652   */\n      dup6\n        /* \"#utility.yul\":16645:16659   */\n      add\n        /* \"#utility.yul\":16631:16643   */\n      dup3\n        /* \"#utility.yul\":16597:16660   */\n      tag_471\n      jump\t// in\n    tag_597:\n        /* \"#utility.yul\":16505:16670   */\n      pop\n        /* \"#utility.yul\":16757:16761   */\n      0x60\n        /* \"#utility.yul\":16750:16755   */\n      dup3\n        /* \"#utility.yul\":16746:16762   */\n      add\n        /* \"#utility.yul\":16740:16763   */\n      mload\n        /* \"#utility.yul\":16776:16839   */\n      tag_598\n        /* \"#utility.yul\":16833:16837   */\n      0x60\n        /* \"#utility.yul\":16828:16831   */\n      dup6\n        /* \"#utility.yul\":16824:16838   */\n      add\n        /* \"#utility.yul\":16810:16822   */\n      dup3\n        /* \"#utility.yul\":16776:16839   */\n      tag_586\n      jump\t// in\n    tag_598:\n        /* \"#utility.yul\":16680:16849   */\n      pop\n        /* \"#utility.yul\":16102:16856   */\n      pop\n        /* \"#utility.yul\":15984:16856   */\n      pop\n      pop\n      jump\t// out\n        /* \"#utility.yul\":16934:17450   */\n    tag_470:\n        /* \"#utility.yul\":17071:17075   */\n      0x40\n        /* \"#utility.yul\":17066:17069   */\n      dup3\n        /* \"#utility.yul\":17062:17076   */\n      add\n        /* \"#utility.yul\":17173:17177   */\n      0x00\n        /* \"#utility.yul\":17166:17171   */\n      dup3\n        /* \"#utility.yul\":17162:17178   */\n      add\n        /* \"#utility.yul\":17156:17179   */\n      mload\n        /* \"#utility.yul\":17192:17255   */\n      tag_600\n        /* \"#utility.yul\":17249:17253   */\n      0x00\n        /* \"#utility.yul\":17244:17247   */\n      dup6\n        /* \"#utility.yul\":17240:17254   */\n      add\n        /* \"#utility.yul\":17226:17238   */\n      dup3\n        /* \"#utility.yul\":17192:17255   */\n      tag_471\n      jump\t// in\n    tag_600:\n        /* \"#utility.yul\":17086:17265   */\n      pop\n        /* \"#utility.yul\":17351:17355   */\n      0x20\n        /* \"#utility.yul\":17344:17349   */\n      dup3\n        /* \"#utility.yul\":17340:17356   */\n      add\n        /* \"#utility.yul\":17334:17357   */\n      mload\n        /* \"#utility.yul\":17370:17433   */\n      tag_601\n        /* \"#utility.yul\":17427:17431   */\n      0x20\n        /* \"#utility.yul\":17422:17425   */\n      dup6\n        /* \"#utility.yul\":17418:17432   */\n      add\n        /* \"#utility.yul\":17404:17416   */\n      dup3\n        /* \"#utility.yul\":17370:17433   */\n      tag_586\n      jump\t// in\n    tag_601:\n        /* \"#utility.yul\":17275:17443   */\n      pop\n        /* \"#utility.yul\":17040:17450   */\n      pop\n        /* \"#utility.yul\":16934:17450   */\n      pop\n      pop\n      jump\t// out\n        /* \"#utility.yul\":17456:17564   */\n    tag_586:\n        /* \"#utility.yul\":17533:17557   */\n      tag_603\n        /* \"#utility.yul\":17551:17556   */\n      dup2\n        /* \"#utility.yul\":17533:17557   */\n      tag_604\n      jump\t// in\n    tag_603:\n        /* \"#utility.yul\":17528:17531   */\n      dup3\n        /* \"#utility.yul\":17521:17558   */\n      mstore\n        /* \"#utility.yul\":17456:17564   */\n      pop\n      pop\n      jump\t// out\n        /* \"#utility.yul\":17570:17688   */\n    tag_605:\n        /* \"#utility.yul\":17657:17681   */\n      tag_607\n        /* \"#utility.yul\":17675:17680   */\n      dup2\n        /* \"#utility.yul\":17657:17681   */\n      tag_604\n      jump\t// in\n    tag_607:\n        /* \"#utility.yul\":17652:17655   */\n      dup3\n        /* \"#utility.yul\":17645:17682   */\n      mstore\n        /* \"#utility.yul\":17570:17688   */\n      pop\n      pop\n      jump\t// out\n        /* \"#utility.yul\":17694:18073   */\n    tag_381:\n        /* \"#utility.yul\":17878:17881   */\n      0x00\n        /* \"#utility.yul\":17900:18047   */\n      tag_609\n        /* \"#utility.yul\":18043:18046   */\n      dup3\n        /* \"#utility.yul\":17900:18047   */\n      tag_562\n      jump\t// in\n    tag_609:\n        /* \"#utility.yul\":17893:18047   */\n      swap2\n      pop\n        /* \"#utility.yul\":18064:18067   */\n      dup2\n        /* \"#utility.yul\":18057:18067   */\n      swap1\n      pop\n        /* \"#utility.yul\":17694:18073   */\n      swap2\n      swap1\n      pop\n      jump\t// out\n        /* \"#utility.yul\":18079:18411   */\n    tag_216:\n        /* \"#utility.yul\":18200:18204   */\n      0x00\n        /* \"#utility.yul\":18238:18240   */\n      0x40\n        /* \"#utility.yul\":18227:18236   */\n      dup3\n        /* \"#utility.yul\":18223:18241   */\n      add\n        /* \"#utility.yul\":18215:18241   */\n      swap1\n      pop\n        /* \"#utility.yul\":18251:18322   */\n      tag_611\n        /* \"#utility.yul\":18319:18320   */\n      0x00\n        /* \"#utility.yul\":18308:18317   */\n      dup4\n        /* \"#utility.yul\":18304:18321   */\n      add\n        /* \"#utility.yul\":18295:18301   */\n      dup6\n        /* \"#utility.yul\":18251:18322   */\n      tag_475\n      jump\t// in\n    tag_611:\n        /* \"#utility.yul\":18332:18404   */\n      tag_612\n        /* \"#utility.yul\":18400:18402   */\n      0x20\n        /* \"#utility.yul\":18389:18398   */\n      dup4\n        /* \"#utility.yul\":18385:18403   */\n      add\n        /* \"#utility.yul\":18376:18382   */\n      dup5\n        /* \"#utility.yul\":18332:18404   */\n      tag_475\n      jump\t// in\n    tag_612:\n        /* \"#utility.yul\":18079:18411   */\n      swap4\n      swap3\n      pop\n      pop\n      pop\n      jump\t// out\n        /* \"#utility.yul\":18417:19192   */\n    tag_236:\n        /* \"#utility.yul\":18650:18654   */\n      0x00\n        /* \"#utility.yul\":18688:18691   */\n      0xc0\n        /* \"#utility.yul\":18677:18686   */\n      dup3\n        /* \"#utility.yul\":18673:18692   */\n      add\n        /* \"#utility.yul\":18665:18692   */\n      swap1\n      pop\n        /* \"#utility.yul\":18702:18773   */\n      tag_614\n        /* \"#utility.yul\":18770:18771   */\n      0x00\n        /* \"#utility.yul\":18759:18768   */\n      dup4\n        /* \"#utility.yul\":18755:18772   */\n      add\n        /* \"#utility.yul\":18746:18752   */\n      dup10\n        /* \"#utility.yul\":18702:18773   */\n      tag_475\n      jump\t// in\n    tag_614:\n        /* \"#utility.yul\":18783:18855   */\n      tag_615\n        /* \"#utility.yul\":18851:18853   */\n      0x20\n        /* \"#utility.yul\":18840:18849   */\n      dup4\n        /* \"#utility.yul\":18836:18854   */\n      add\n        /* \"#utility.yul\":18827:18833   */\n      dup9\n        /* \"#utility.yul\":18783:18855   */\n      tag_475\n      jump\t// in\n    tag_615:\n        /* \"#utility.yul\":18865:18937   */\n      tag_616\n        /* \"#utility.yul\":18933:18935   */\n      0x40\n        /* \"#utility.yul\":18922:18931   */\n      dup4\n        /* \"#utility.yul\":18918:18936   */\n      add\n        /* \"#utility.yul\":18909:18915   */\n      dup8\n        /* \"#utility.yul\":18865:18937   */\n      tag_475\n      jump\t// in\n    tag_616:\n        /* \"#utility.yul\":18947:19019   */\n      tag_617\n        /* \"#utility.yul\":19015:19017   */\n      0x60\n        /* \"#utility.yul\":19004:19013   */\n      dup4\n        /* \"#utility.yul\":19000:19018   */\n      add\n        /* \"#utility.yul\":18991:18997   */\n      dup7\n        /* \"#utility.yul\":18947:19019   */\n      tag_605\n      jump\t// in\n    tag_617:\n        /* \"#utility.yul\":19029:19102   */\n      tag_618\n        /* \"#utility.yul\":19097:19100   */\n      0x80\n        /* \"#utility.yul\":19086:19095   */\n      dup4\n        /* \"#utility.yul\":19082:19101   */\n      add\n        /* \"#utility.yul\":19073:19079   */\n      dup6\n        /* \"#utility.yul\":19029:19102   */\n      tag_605\n      jump\t// in\n    tag_618:\n        /* \"#utility.yul\":19112:19185   */\n      tag_619\n        /* \"#utility.yul\":19180:19183   */\n      0xa0\n        /* \"#utility.yul\":19169:19178   */\n      dup4\n        /* \"#utility.yul\":19165:19184   */\n      add\n        /* \"#utility.yul\":19156:19162   */\n      dup5\n        /* \"#utility.yul\":19112:19185   */\n      tag_605\n      jump\t// in\n    tag_619:\n        /* \"#utility.yul\":18417:19192   */\n      swap8\n      swap7\n      pop\n      pop\n      pop\n      pop\n      pop\n      pop\n      pop\n      jump\t// out\n        /* \"#utility.yul\":19198:20084   */\n    tag_319:\n        /* \"#utility.yul\":19459:19463   */\n      0x00\n        /* \"#utility.yul\":19497:19500   */\n      0xe0\n        /* \"#utility.yul\":19486:19495   */\n      dup3\n        /* \"#utility.yul\":19482:19501   */\n      add\n        /* \"#utility.yul\":19474:19501   */\n      swap1\n      pop\n        /* \"#utility.yul\":19511:19582   */\n      tag_621\n        /* \"#utility.yul\":19579:19580   */\n      0x00\n        /* \"#utility.yul\":19568:19577   */\n      dup4\n        /* \"#utility.yul\":19564:19581   */\n      add\n        /* \"#utility.yul\":19555:19561   */\n      dup11\n        /* \"#utility.yul\":19511:19582   */\n      tag_475\n      jump\t// in\n    tag_621:\n        /* \"#utility.yul\":19592:19664   */\n      tag_622\n        /* \"#utility.yul\":19660:19662   */\n      0x20\n        /* \"#utility.yul\":19649:19658   */\n      dup4\n        /* \"#utility.yul\":19645:19663   */\n      add\n        /* \"#utility.yul\":19636:19642   */\n      dup10\n        /* \"#utility.yul\":19592:19664   */\n      tag_475\n      jump\t// in\n    tag_622:\n        /* \"#utility.yul\":19674:19746   */\n      tag_623\n        /* \"#utility.yul\":19742:19744   */\n      0x40\n        /* \"#utility.yul\":19731:19740   */\n      dup4\n        /* \"#utility.yul\":19727:19745   */\n      add\n        /* \"#utility.yul\":19718:19724   */\n      dup9\n        /* \"#utility.yul\":19674:19746   */\n      tag_475\n      jump\t// in\n    tag_623:\n        /* \"#utility.yul\":19756:19828   */\n      tag_624\n        /* \"#utility.yul\":19824:19826   */\n      0x60\n        /* \"#utility.yul\":19813:19822   */\n      dup4\n        /* \"#utility.yul\":19809:19827   */\n      add\n        /* \"#utility.yul\":19800:19806   */\n      dup8\n        /* \"#utility.yul\":19756:19828   */\n      tag_605\n      jump\t// in\n    tag_624:\n        /* \"#utility.yul\":19838:19911   */\n      tag_625\n        /* \"#utility.yul\":19906:19909   */\n      0x80\n        /* \"#utility.yul\":19895:19904   */\n      dup4\n        /* \"#utility.yul\":19891:19910   */\n      add\n        /* \"#utility.yul\":19882:19888   */\n      dup7\n        /* \"#utility.yul\":19838:19911   */\n      tag_605\n      jump\t// in\n    tag_625:\n        /* \"#utility.yul\":19921:19994   */\n      tag_626\n        /* \"#utility.yul\":19989:19992   */\n      0xa0\n        /* \"#utility.yul\":19978:19987   */\n      dup4\n        /* \"#utility.yul\":19974:19993   */\n      add\n        /* \"#utility.yul\":19965:19971   */\n      dup6\n        /* \"#utility.yul\":19921:19994   */\n      tag_605\n      jump\t// in\n    tag_626:\n        /* \"#utility.yul\":20004:20077   */\n      tag_627\n        /* \"#utility.yul\":20072:20075   */\n      0xc0\n        /* \"#utility.yul\":20061:20070   */\n      dup4\n        /* \"#utility.yul\":20057:20076   */\n      add\n        /* \"#utility.yul\":20048:20054   */\n      dup5\n        /* \"#utility.yul\":20004:20077   */\n      tag_605\n      jump\t// in\n    tag_627:\n        /* \"#utility.yul\":19198:20084   */\n      swap9\n      swap8\n      pop\n      pop\n      pop\n      pop\n      pop\n      pop\n      pop\n      pop\n      jump\t// out\n        /* \"#utility.yul\":20090:20532   */\n    tag_231:\n        /* \"#utility.yul\":20239:20243   */\n      0x00\n        /* \"#utility.yul\":20277:20279   */\n      0x60\n        /* \"#utility.yul\":20266:20275   */\n      dup3\n        /* \"#utility.yul\":20262:20280   */\n      add\n        /* \"#utility.yul\":20254:20280   */\n      swap1\n      pop\n        /* \"#utility.yul\":20290:20361   */\n      tag_629\n        /* \"#utility.yul\":20358:20359   */\n      0x00\n        /* \"#utility.yul\":20347:20356   */\n      dup4\n        /* \"#utility.yul\":20343:20360   */\n      add\n        /* \"#utility.yul\":20334:20340   */\n      dup7\n        /* \"#utility.yul\":20290:20361   */\n      tag_475\n      jump\t// in\n    tag_629:\n        /* \"#utility.yul\":20371:20443   */\n      tag_630\n        /* \"#utility.yul\":20439:20441   */\n      0x20\n        /* \"#utility.yul\":20428:20437   */\n      dup4\n        /* \"#utility.yul\":20424:20442   */\n      add\n        /* \"#utility.yul\":20415:20421   */\n      dup6\n        /* \"#utility.yul\":20371:20443   */\n      tag_475\n      jump\t// in\n    tag_630:\n        /* \"#utility.yul\":20453:20525   */\n      tag_631\n        /* \"#utility.yul\":20521:20523   */\n      0x40\n        /* \"#utility.yul\":20510:20519   */\n      dup4\n        /* \"#utility.yul\":20506:20524   */\n      add\n        /* \"#utility.yul\":20497:20503   */\n      dup5\n        /* \"#utility.yul\":20453:20525   */\n      tag_605\n      jump\t// in\n    tag_631:\n        /* \"#utility.yul\":20090:20532   */\n      swap5\n      swap4\n      pop\n      pop\n      pop\n      pop\n      jump\t// out\n        /* \"#utility.yul\":20538:21091   */\n    tag_291:\n        /* \"#utility.yul\":20715:20719   */\n      0x00\n        /* \"#utility.yul\":20753:20756   */\n      0x80\n        /* \"#utility.yul\":20742:20751   */\n      dup3\n        /* \"#utility.yul\":20738:20757   */\n      add\n        /* \"#utility.yul\":20730:20757   */\n      swap1\n      pop\n        /* \"#utility.yul\":20767:20838   */\n      tag_633\n        /* \"#utility.yul\":20835:20836   */\n      0x00\n        /* \"#utility.yul\":20824:20833   */\n      dup4\n        /* \"#utility.yul\":20820:20837   */\n      add\n        /* \"#utility.yul\":20811:20817   */\n      dup8\n        /* \"#utility.yul\":20767:20838   */\n      tag_475\n      jump\t// in\n    tag_633:\n        /* \"#utility.yul\":20848:20920   */\n      tag_634\n        /* \"#utility.yul\":20916:20918   */\n      0x20\n        /* \"#utility.yul\":20905:20914   */\n      dup4\n        /* \"#utility.yul\":20901:20919   */\n      add\n        /* \"#utility.yul\":20892:20898   */\n      dup7\n        /* \"#utility.yul\":20848:20920   */\n      tag_475\n      jump\t// in\n    tag_634:\n        /* \"#utility.yul\":20930:21002   */\n      tag_635\n        /* \"#utility.yul\":20998:21000   */\n      0x40\n        /* \"#utility.yul\":20987:20996   */\n      dup4\n        /* \"#utility.yul\":20983:21001   */\n      add\n        /* \"#utility.yul\":20974:20980   */\n      dup6\n        /* \"#utility.yul\":20930:21002   */\n      tag_605\n      jump\t// in\n    tag_635:\n        /* \"#utility.yul\":21012:21084   */\n      tag_636\n        /* \"#utility.yul\":21080:21082   */\n      0x60\n        /* \"#utility.yul\":21069:21078   */\n      dup4\n        /* \"#utility.yul\":21065:21083   */\n      add\n        /* \"#utility.yul\":21056:21062   */\n      dup5\n        /* \"#utility.yul\":21012:21084   */\n      tag_605\n      jump\t// in\n    tag_636:\n        /* \"#utility.yul\":20538:21091   */\n      swap6\n      swap5\n      pop\n      pop\n      pop\n      pop\n      pop\n      jump\t// out\n        /* \"#utility.yul\":21097:21429   */\n    tag_374:\n        /* \"#utility.yul\":21218:21222   */\n      0x00\n        /* \"#utility.yul\":21256:21258   */\n      0x40\n        /* \"#utility.yul\":21245:21254   */\n      dup3\n        /* \"#utility.yul\":21241:21259   */\n      add\n        /* \"#utility.yul\":21233:21259   */\n      swap1\n      pop\n        /* \"#utility.yul\":21269:21340   */\n      tag_638\n        /* \"#utility.yul\":21337:21338   */\n      0x00\n        /* \"#utility.yul\":21326:21335   */\n      dup4\n        /* \"#utility.yul\":21322:21339   */\n      add\n        /* \"#utility.yul\":21313:21319   */\n      dup6\n        /* \"#utility.yul\":21269:21340   */\n      tag_475\n      jump\t// in\n    tag_638:\n        /* \"#utility.yul\":21350:21422   */\n      tag_639\n        /* \"#utility.yul\":21418:21420   */\n      0x20\n        /* \"#utility.yul\":21407:21416   */\n      dup4\n        /* \"#utility.yul\":21403:21421   */\n      add\n        /* \"#utility.yul\":21394:21400   */\n      dup5\n        /* \"#utility.yul\":21350:21422   */\n      tag_605\n      jump\t// in\n    tag_639:\n        /* \"#utility.yul\":21097:21429   */\n      swap4\n      swap3\n      pop\n      pop\n      pop\n      jump\t// out\n        /* \"#utility.yul\":21435:21877   */\n    tag_185:\n        /* \"#utility.yul\":21584:21588   */\n      0x00\n        /* \"#utility.yul\":21622:21624   */\n      0x60\n        /* \"#utility.yul\":21611:21620   */\n      dup3\n        /* \"#utility.yul\":21607:21625   */\n      add\n        /* \"#utility.yul\":21599:21625   */\n      swap1\n      pop\n        /* \"#utility.yul\":21635:21706   */\n      tag_641\n        /* \"#utility.yul\":21703:21704   */\n      0x00\n        /* \"#utility.yul\":21692:21701   */\n      dup4\n        /* \"#utility.yul\":21688:21705   */\n      add\n        /* \"#utility.yul\":21679:21685   */\n      dup7\n        /* \"#utility.yul\":21635:21706   */\n      tag_475\n      jump\t// in\n    tag_641:\n        /* \"#utility.yul\":21716:21788   */\n      tag_642\n        /* \"#utility.yul\":21784:21786   */\n      0x20\n        /* \"#utility.yul\":21773:21782   */\n      dup4\n        /* \"#utility.yul\":21769:21787   */\n      add\n        /* \"#utility.yul\":21760:21766   */\n      dup6\n        /* \"#utility.yul\":21716:21788   */\n      tag_605\n      jump\t// in\n    tag_642:\n        /* \"#utility.yul\":21798:21870   */\n      tag_643\n        /* \"#utility.yul\":21866:21868   */\n      0x40\n        /* \"#utility.yul\":21855:21864   */\n      dup4\n        /* \"#utility.yul\":21851:21869   */\n      add\n        /* \"#utility.yul\":21842:21848   */\n      dup5\n        /* \"#utility.yul\":21798:21870   */\n      tag_475\n      jump\t// in\n    tag_643:\n        /* \"#utility.yul\":21435:21877   */\n      swap5\n      swap4\n      pop\n      pop\n      pop\n      pop\n      jump\t// out\n        /* \"#utility.yul\":21883:22547   */\n    tag_200:\n        /* \"#utility.yul\":22088:22092   */\n      0x00\n        /* \"#utility.yul\":22126:22129   */\n      0xa0\n        /* \"#utility.yul\":22115:22124   */\n      dup3\n        /* \"#utility.yul\":22111:22130   */\n      add\n        /* \"#utility.yul\":22103:22130   */\n      swap1\n      pop\n        /* \"#utility.yul\":22140:22211   */\n      tag_645\n        /* \"#utility.yul\":22208:22209   */\n      0x00\n        /* \"#utility.yul\":22197:22206   */\n      dup4\n        /* \"#utility.yul\":22193:22210   */\n      add\n        /* \"#utility.yul\":22184:22190   */\n      dup9\n        /* \"#utility.yul\":22140:22211   */\n      tag_475\n      jump\t// in\n    tag_645:\n        /* \"#utility.yul\":22221:22293   */\n      tag_646\n        /* \"#utility.yul\":22289:22291   */\n      0x20\n        /* \"#utility.yul\":22278:22287   */\n      dup4\n        /* \"#utility.yul\":22274:22292   */\n      add\n        /* \"#utility.yul\":22265:22271   */\n      dup8\n        /* \"#utility.yul\":22221:22293   */\n      tag_605\n      jump\t// in\n    tag_646:\n        /* \"#utility.yul\":22303:22375   */\n      tag_647\n        /* \"#utility.yul\":22371:22373   */\n      0x40\n        /* \"#utility.yul\":22360:22369   */\n      dup4\n        /* \"#utility.yul\":22356:22374   */\n      add\n        /* \"#utility.yul\":22347:22353   */\n      dup7\n        /* \"#utility.yul\":22303:22375   */\n      tag_475\n      jump\t// in\n    tag_647:\n        /* \"#utility.yul\":22385:22457   */\n      tag_648\n        /* \"#utility.yul\":22453:22455   */\n      0x60\n        /* \"#utility.yul\":22442:22451   */\n      dup4\n        /* \"#utility.yul\":22438:22456   */\n      add\n        /* \"#utility.yul\":22429:22435   */\n      dup6\n        /* \"#utility.yul\":22385:22457   */\n      tag_605\n      jump\t// in\n    tag_648:\n        /* \"#utility.yul\":22467:22540   */\n      tag_649\n        /* \"#utility.yul\":22535:22538   */\n      0x80\n        /* \"#utility.yul\":22524:22533   */\n      dup4\n        /* \"#utility.yul\":22520:22539   */\n      add\n        /* \"#utility.yul\":22511:22517   */\n      dup5\n        /* \"#utility.yul\":22467:22540   */\n      tag_475\n      jump\t// in\n    tag_649:\n        /* \"#utility.yul\":21883:22547   */\n      swap7\n      swap6\n      pop\n      pop\n      pop\n      pop\n      pop\n      pop\n      jump\t// out\n        /* \"#utility.yul\":22553:22995   */\n    tag_172:\n        /* \"#utility.yul\":22702:22706   */\n      0x00\n        /* \"#utility.yul\":22740:22742   */\n      0x60\n        /* \"#utility.yul\":22729:22738   */\n      dup3\n        /* \"#utility.yul\":22725:22743   */\n      add\n        /* \"#utility.yul\":22717:22743   */\n      swap1\n      pop\n        /* \"#utility.yul\":22753:22824   */\n      tag_651\n        /* \"#utility.yul\":22821:22822   */\n      0x00\n        /* \"#utility.yul\":22810:22819   */\n      dup4\n        /* \"#utility.yul\":22806:22823   */\n      add\n        /* \"#utility.yul\":22797:22803   */\n      dup7\n        /* \"#utility.yul\":22753:22824   */\n      tag_475\n      jump\t// in\n    tag_651:\n        /* \"#utility.yul\":22834:22906   */\n      tag_652\n        /* \"#utility.yul\":22902:22904   */\n      0x20\n        /* \"#utility.yul\":22891:22900   */\n      dup4\n        /* \"#utility.yul\":22887:22905   */\n      add\n        /* \"#utility.yul\":22878:22884   */\n      dup6\n        /* \"#utility.yul\":22834:22906   */\n      tag_605\n      jump\t// in\n    tag_652:\n        /* \"#utility.yul\":22916:22988   */\n      tag_653\n        /* \"#utility.yul\":22984:22986   */\n      0x40\n        /* \"#utility.yul\":22973:22982   */\n      dup4\n        /* \"#utility.yul\":22969:22987   */\n      add\n        /* \"#utility.yul\":22960:22966   */\n      dup5\n        /* \"#utility.yul\":22916:22988   */\n      tag_605\n      jump\t// in\n    tag_653:\n        /* \"#utility.yul\":22553:22995   */\n      swap5\n      swap4\n      pop\n      pop\n      pop\n      pop\n      jump\t// out\n        /* \"#utility.yul\":23001:23554   */\n    tag_132:\n        /* \"#utility.yul\":23178:23182   */\n      0x00\n        /* \"#utility.yul\":23216:23219   */\n      0x80\n        /* \"#utility.yul\":23205:23214   */\n      dup3\n        /* \"#utility.yul\":23201:23220   */\n      add\n        /* \"#utility.yul\":23193:23220   */\n      swap1\n      pop\n        /* \"#utility.yul\":23230:23301   */\n      tag_655\n        /* \"#utility.yul\":23298:23299   */\n      0x00\n        /* \"#utility.yul\":23287:23296   */\n      dup4\n        /* \"#utility.yul\":23283:23300   */\n      add\n        /* \"#utility.yul\":23274:23280   */\n      dup8\n        /* \"#utility.yul\":23230:23301   */\n      tag_475\n      jump\t// in\n    tag_655:\n        /* \"#utility.yul\":23311:23383   */\n      tag_656\n        /* \"#utility.yul\":23379:23381   */\n      0x20\n        /* \"#utility.yul\":23368:23377   */\n      dup4\n        /* \"#utility.yul\":23364:23382   */\n      add\n        /* \"#utility.yul\":23355:23361   */\n      dup7\n        /* \"#utility.yul\":23311:23383   */\n      tag_605\n      jump\t// in\n    tag_656:\n        /* \"#utility.yul\":23393:23465   */\n      tag_657\n        /* \"#utility.yul\":23461:23463   */\n      0x40\n        /* \"#utility.yul\":23450:23459   */\n      dup4\n        /* \"#utility.yul\":23446:23464   */\n      add\n        /* \"#utility.yul\":23437:23443   */\n      dup6\n        /* \"#utility.yul\":23393:23465   */\n      tag_605\n      jump\t// in\n    tag_657:\n        /* \"#utility.yul\":23475:23547   */\n      tag_658\n        /* \"#utility.yul\":23543:23545   */\n      0x60\n        /* \"#utility.yul\":23532:23541   */\n      dup4\n        /* \"#utility.yul\":23528:23546   */\n      add\n        /* \"#utility.yul\":23519:23525   */\n      dup5\n        /* \"#utility.yul\":23475:23547   */\n      tag_475\n      jump\t// in\n    tag_658:\n        /* \"#utility.yul\":23001:23554   */\n      swap6\n      swap5\n      pop\n      pop\n      pop\n      pop\n      pop\n      jump\t// out\n        /* \"#utility.yul\":23560:24033   */\n    tag_40:\n        /* \"#utility.yul\":23753:23757   */\n      0x00\n        /* \"#utility.yul\":23791:23793   */\n      0x20\n        /* \"#utility.yul\":23780:23789   */\n      dup3\n        /* \"#utility.yul\":23776:23794   */\n      add\n        /* \"#utility.yul\":23768:23794   */\n      swap1\n      pop\n        /* \"#utility.yul\":23840:23849   */\n      dup2\n        /* \"#utility.yul\":23834:23838   */\n      dup2\n        /* \"#utility.yul\":23830:23850   */\n      sub\n        /* \"#utility.yul\":23826:23827   */\n      0x00\n        /* \"#utility.yul\":23815:23824   */\n      dup4\n        /* \"#utility.yul\":23811:23828   */\n      add\n        /* \"#utility.yul\":23804:23851   */\n      mstore\n        /* \"#utility.yul\":23868:24026   */\n      tag_660\n        /* \"#utility.yul\":24021:24025   */\n      dup2\n        /* \"#utility.yul\":24012:24018   */\n      dup5\n        /* \"#utility.yul\":23868:24026   */\n      tag_478\n      jump\t// in\n    tag_660:\n        /* \"#utility.yul\":23860:24026   */\n      swap1\n      pop\n        /* \"#utility.yul\":23560:24033   */\n      swap3\n      swap2\n      pop\n      pop\n      jump\t// out\n        /* \"#utility.yul\":24039:24257   */\n    tag_31:\n        /* \"#utility.yul\":24130:24134   */\n      0x00\n        /* \"#utility.yul\":24168:24170   */\n      0x20\n        /* \"#utility.yul\":24157:24166   */\n      dup3\n        /* \"#utility.yul\":24153:24171   */\n      add\n        /* \"#utility.yul\":24145:24171   */\n      swap1\n      pop\n        /* \"#utility.yul\":24181:24250   */\n      tag_662\n        /* \"#utility.yul\":24247:24248   */\n      0x00\n        /* \"#utility.yul\":24236:24245   */\n      dup4\n        /* \"#utility.yul\":24232:24249   */\n      add\n        /* \"#utility.yul\":24223:24229   */\n      dup5\n        /* \"#utility.yul\":24181:24250   */\n      tag_492\n      jump\t// in\n    tag_662:\n        /* \"#utility.yul\":24039:24257   */\n      swap3\n      swap2\n      pop\n      pop\n      jump\t// out\n        /* \"#utility.yul\":24263:24682   */\n    tag_180:\n        /* \"#utility.yul\":24429:24433   */\n      0x00\n        /* \"#utility.yul\":24467:24469   */\n      0x20\n        /* \"#utility.yul\":24456:24465   */\n      dup3\n        /* \"#utility.yul\":24452:24470   */\n      add\n        /* \"#utility.yul\":24444:24470   */\n      swap1\n      pop\n        /* \"#utility.yul\":24516:24525   */\n      dup2\n        /* \"#utility.yul\":24510:24514   */\n      dup2\n        /* \"#utility.yul\":24506:24526   */\n      sub\n        /* \"#utility.yul\":24502:24503   */\n      0x00\n        /* \"#utility.yul\":24491:24500   */\n      dup4\n        /* \"#utility.yul\":24487:24504   */\n      add\n        /* \"#utility.yul\":24480:24527   */\n      mstore\n        /* \"#utility.yul\":24544:24675   */\n      tag_664\n        /* \"#utility.yul\":24670:24674   */\n      dup2\n        /* \"#utility.yul\":24544:24675   */\n      tag_496\n      jump\t// in\n    tag_664:\n        /* \"#utility.yul\":24536:24675   */\n      swap1\n      pop\n        /* \"#utility.yul\":24263:24682   */\n      swap2\n      swap1\n      pop\n      jump\t// out\n        /* \"#utility.yul\":24688:25107   */\n    tag_224:\n        /* \"#utility.yul\":24854:24858   */\n      0x00\n        /* \"#utility.yul\":24892:24894   */\n      0x20\n        /* \"#utility.yul\":24881:24890   */\n      dup3\n        /* \"#utility.yul\":24877:24895   */\n      add\n        /* \"#utility.yul\":24869:24895   */\n      swap1\n      pop\n        /* \"#utility.yul\":24941:24950   */\n      dup2\n        /* \"#utility.yul\":24935:24939   */\n      dup2\n        /* \"#utility.yul\":24931:24951   */\n      sub\n        /* \"#utility.yul\":24927:24928   */\n      0x00\n        /* \"#utility.yul\":24916:24925   */\n      dup4\n        /* \"#utility.yul\":24912:24929   */\n      add\n        /* \"#utility.yul\":24905:24952   */\n      mstore\n        /* \"#utility.yul\":24969:25100   */\n      tag_666\n        /* \"#utility.yul\":25095:25099   */\n      dup2\n        /* \"#utility.yul\":24969:25100   */\n      tag_502\n      jump\t// in\n    tag_666:\n        /* \"#utility.yul\":24961:25100   */\n      swap1\n      pop\n        /* \"#utility.yul\":24688:25107   */\n      swap2\n      swap1\n      pop\n      jump\t// out\n        /* \"#utility.yul\":25113:25532   */\n    tag_118:\n        /* \"#utility.yul\":25279:25283   */\n      0x00\n        /* \"#utility.yul\":25317:25319   */\n      0x20\n        /* \"#utility.yul\":25306:25315   */\n      dup3\n        /* \"#utility.yul\":25302:25320   */\n      add\n        /* \"#utility.yul\":25294:25320   */\n      swap1\n      pop\n        /* \"#utility.yul\":25366:25375   */\n      dup2\n        /* \"#utility.yul\":25360:25364   */\n      dup2\n        /* \"#utility.yul\":25356:25376   */\n      sub\n        /* \"#utility.yul\":25352:25353   */\n      0x00\n        /* \"#utility.yul\":25341:25350   */\n      dup4\n        /* \"#utility.yul\":25337:25354   */\n      add\n        /* \"#utility.yul\":25330:25377   */\n      mstore\n        /* \"#utility.yul\":25394:25525   */\n      tag_668\n        /* \"#utility.yul\":25520:25524   */\n      dup2\n        /* \"#utility.yul\":25394:25525   */\n      tag_507\n      jump\t// in\n    tag_668:\n        /* \"#utility.yul\":25386:25525   */\n      swap1\n      pop\n        /* \"#utility.yul\":25113:25532   */\n      swap2\n      swap1\n      pop\n      jump\t// out\n        /* \"#utility.yul\":25538:25957   */\n    tag_246:\n        /* \"#utility.yul\":25704:25708   */\n      0x00\n        /* \"#utility.yul\":25742:25744   */\n      0x20\n        /* \"#utility.yul\":25731:25740   */\n      dup3\n        /* \"#utility.yul\":25727:25745   */\n      add\n        /* \"#utility.yul\":25719:25745   */\n      swap1\n      pop\n        /* \"#utility.yul\":25791:25800   */\n      dup2\n        /* \"#utility.yul\":25785:25789   */\n      dup2\n        /* \"#utility.yul\":25781:25801   */\n      sub\n        /* \"#utility.yul\":25777:25778   */\n      0x00\n        /* \"#utility.yul\":25766:25775   */\n      dup4\n        /* \"#utility.yul\":25762:25779   */\n      add\n        /* \"#utility.yul\":25755:25802   */\n      mstore\n        /* \"#utility.yul\":25819:25950   */\n      tag_670\n        /* \"#utility.yul\":25945:25949   */\n      dup2\n        /* \"#utility.yul\":25819:25950   */\n      tag_512\n      jump\t// in\n    tag_670:\n        /* \"#utility.yul\":25811:25950   */\n      swap1\n      pop\n        /* \"#utility.yul\":25538:25957   */\n      swap2\n      swap1\n      pop\n      jump\t// out\n        /* \"#utility.yul\":25963:26382   */\n    tag_162:\n        /* \"#utility.yul\":26129:26133   */\n      0x00\n        /* \"#utility.yul\":26167:26169   */\n      0x20\n        /* \"#utility.yul\":26156:26165   */\n      dup3\n        /* \"#utility.yul\":26152:26170   */\n      add\n        /* \"#utility.yul\":26144:26170   */\n      swap1\n      pop\n        /* \"#utility.yul\":26216:26225   */\n      dup2\n        /* \"#utility.yul\":26210:26214   */\n      dup2\n        /* \"#utility.yul\":26206:26226   */\n      sub\n        /* \"#utility.yul\":26202:26203   */\n      0x00\n        /* \"#utility.yul\":26191:26200   */\n      dup4\n        /* \"#utility.yul\":26187:26204   */\n      add\n        /* \"#utility.yul\":26180:26227   */\n      mstore\n        /* \"#utility.yul\":26244:26375   */\n      tag_672\n        /* \"#utility.yul\":26370:26374   */\n      dup2\n        /* \"#utility.yul\":26244:26375   */\n      tag_517\n      jump\t// in\n    tag_672:\n        /* \"#utility.yul\":26236:26375   */\n      swap1\n      pop\n        /* \"#utility.yul\":25963:26382   */\n      swap2\n      swap1\n      pop\n      jump\t// out\n        /* \"#utility.yul\":26388:26807   */\n    tag_110:\n        /* \"#utility.yul\":26554:26558   */\n      0x00\n        /* \"#utility.yul\":26592:26594   */\n      0x20\n        /* \"#utility.yul\":26581:26590   */\n      dup3\n        /* \"#utility.yul\":26577:26595   */\n      add\n        /* \"#utility.yul\":26569:26595   */\n      swap1\n      pop\n        /* \"#utility.yul\":26641:26650   */\n      dup2\n        /* \"#utility.yul\":26635:26639   */\n      dup2\n        /* \"#utility.yul\":26631:26651   */\n      sub\n        /* \"#utility.yul\":26627:26628   */\n      0x00\n        /* \"#utility.yul\":26616:26625   */\n      dup4\n        /* \"#utility.yul\":26612:26629   */\n      add\n        /* \"#utility.yul\":26605:26652   */\n      mstore\n        /* \"#utility.yul\":26669:26800   */\n      tag_674\n        /* \"#utility.yul\":26795:26799   */\n      dup2\n        /* \"#utility.yul\":26669:26800   */\n      tag_522\n      jump\t// in\n    tag_674:\n        /* \"#utility.yul\":26661:26800   */\n      swap1\n      pop\n        /* \"#utility.yul\":26388:26807   */\n      swap2\n      swap1\n      pop\n      jump\t// out\n        /* \"#utility.yul\":26813:27232   */\n    tag_123:\n        /* \"#utility.yul\":26979:26983   */\n      0x00\n        /* \"#utility.yul\":27017:27019   */\n      0x20\n        /* \"#utility.yul\":27006:27015   */\n      dup3\n        /* \"#utility.yul\":27002:27020   */\n      add\n        /* \"#utility.yul\":26994:27020   */\n      swap1\n      pop\n        /* \"#utility.yul\":27066:27075   */\n      dup2\n        /* \"#utility.yul\":27060:27064   */\n      dup2\n        /* \"#utility.yul\":27056:27076   */\n      sub\n        /* \"#utility.yul\":27052:27053   */\n      0x00\n        /* \"#utility.yul\":27041:27050   */\n      dup4\n        /* \"#utility.yul\":27037:27054   */\n      add\n        /* \"#utility.yul\":27030:27077   */\n      mstore\n        /* \"#utility.yul\":27094:27225   */\n      tag_676\n        /* \"#utility.yul\":27220:27224   */\n      dup2\n        /* \"#utility.yul\":27094:27225   */\n      tag_527\n      jump\t// in\n    tag_676:\n        /* \"#utility.yul\":27086:27225   */\n      swap1\n      pop\n        /* \"#utility.yul\":26813:27232   */\n      swap2\n      swap1\n      pop\n      jump\t// out\n        /* \"#utility.yul\":27238:27657   */\n    tag_114:\n        /* \"#utility.yul\":27404:27408   */\n      0x00\n        /* \"#utility.yul\":27442:27444   */\n      0x20\n        /* \"#utility.yul\":27431:27440   */\n      dup3\n        /* \"#utility.yul\":27427:27445   */\n      add\n        /* \"#utility.yul\":27419:27445   */\n      swap1\n      pop\n        /* \"#utility.yul\":27491:27500   */\n      dup2\n        /* \"#utility.yul\":27485:27489   */\n      dup2\n        /* \"#utility.yul\":27481:27501   */\n      sub\n        /* \"#utility.yul\":27477:27478   */\n      0x00\n        /* \"#utility.yul\":27466:27475   */\n      dup4\n        /* \"#utility.yul\":27462:27479   */\n      add\n        /* \"#utility.yul\":27455:27502   */\n      mstore\n        /* \"#utility.yul\":27519:27650   */\n      tag_678\n        /* \"#utility.yul\":27645:27649   */\n      dup2\n        /* \"#utility.yul\":27519:27650   */\n      tag_532\n      jump\t// in\n    tag_678:\n        /* \"#utility.yul\":27511:27650   */\n      swap1\n      pop\n        /* \"#utility.yul\":27238:27657   */\n      swap2\n      swap1\n      pop\n      jump\t// out\n        /* \"#utility.yul\":27663:28082   */\n    tag_213:\n        /* \"#utility.yul\":27829:27833   */\n      0x00\n        /* \"#utility.yul\":27867:27869   */\n      0x20\n        /* \"#utility.yul\":27856:27865   */\n      dup3\n        /* \"#utility.yul\":27852:27870   */\n      add\n        /* \"#utility.yul\":27844:27870   */\n      swap1\n      pop\n        /* \"#utility.yul\":27916:27925   */\n      dup2\n        /* \"#utility.yul\":27910:27914   */\n      dup2\n        /* \"#utility.yul\":27906:27926   */\n      sub\n        /* \"#utility.yul\":27902:27903   */\n      0x00\n        /* \"#utility.yul\":27891:27900   */\n      dup4\n        /* \"#utility.yul\":27887:27904   */\n      add\n        /* \"#utility.yul\":27880:27927   */\n      mstore\n        /* \"#utility.yul\":27944:28075   */\n      tag_680\n        /* \"#utility.yul\":28070:28074   */\n      dup2\n        /* \"#utility.yul\":27944:28075   */\n      tag_537\n      jump\t// in\n    tag_680:\n        /* \"#utility.yul\":27936:28075   */\n      swap1\n      pop\n        /* \"#utility.yul\":27663:28082   */\n      swap2\n      swap1\n      pop\n      jump\t// out\n        /* \"#utility.yul\":28088:28507   */\n    tag_253:\n        /* \"#utility.yul\":28254:28258   */\n      0x00\n        /* \"#utility.yul\":28292:28294   */\n      0x20\n        /* \"#utility.yul\":28281:28290   */\n      dup3\n        /* \"#utility.yul\":28277:28295   */\n      add\n        /* \"#utility.yul\":28269:28295   */\n      swap1\n      pop\n        /* \"#utility.yul\":28341:28350   */\n      dup2\n        /* \"#utility.yul\":28335:28339   */\n      dup2\n        /* \"#utility.yul\":28331:28351   */\n      sub\n        /* \"#utility.yul\":28327:28328   */\n      0x00\n        /* \"#utility.yul\":28316:28325   */\n      dup4\n        /* \"#utility.yul\":28312:28329   */\n      add\n        /* \"#utility.yul\":28305:28352   */\n      mstore\n        /* \"#utility.yul\":28369:28500   */\n      tag_682\n        /* \"#utility.yul\":28495:28499   */\n      dup2\n        /* \"#utility.yul\":28369:28500   */\n      tag_542\n      jump\t// in\n    tag_682:\n        /* \"#utility.yul\":28361:28500   */\n      swap1\n      pop\n        /* \"#utility.yul\":28088:28507   */\n      swap2\n      swap1\n      pop\n      jump\t// out\n        /* \"#utility.yul\":28513:28932   */\n    tag_343:\n        /* \"#utility.yul\":28679:28683   */\n      0x00\n        /* \"#utility.yul\":28717:28719   */\n      0x20\n        /* \"#utility.yul\":28706:28715   */\n      dup3\n        /* \"#utility.yul\":28702:28720   */\n      add\n        /* \"#utility.yul\":28694:28720   */\n      swap1\n      pop\n        /* \"#utility.yul\":28766:28775   */\n      dup2\n        /* \"#utility.yul\":28760:28764   */\n      dup2\n        /* \"#utility.yul\":28756:28776   */\n      sub\n        /* \"#utility.yul\":28752:28753   */\n      0x00\n        /* \"#utility.yul\":28741:28750   */\n      dup4\n        /* \"#utility.yul\":28737:28754   */\n      add\n        /* \"#utility.yul\":28730:28777   */\n      mstore\n        /* \"#utility.yul\":28794:28925   */\n      tag_684\n        /* \"#utility.yul\":28920:28924   */\n      dup2\n        /* \"#utility.yul\":28794:28925   */\n      tag_547\n      jump\t// in\n    tag_684:\n        /* \"#utility.yul\":28786:28925   */\n      swap1\n      pop\n        /* \"#utility.yul\":28513:28932   */\n      swap2\n      swap1\n      pop\n      jump\t// out\n        /* \"#utility.yul\":28938:29357   */\n    tag_176:\n        /* \"#utility.yul\":29104:29108   */\n      0x00\n        /* \"#utility.yul\":29142:29144   */\n      0x20\n        /* \"#utility.yul\":29131:29140   */\n      dup3\n        /* \"#utility.yul\":29127:29145   */\n      add\n        /* \"#utility.yul\":29119:29145   */\n      swap1\n      pop\n        /* \"#utility.yul\":29191:29200   */\n      dup2\n        /* \"#utility.yul\":29185:29189   */\n      dup2\n        /* \"#utility.yul\":29181:29201   */\n      sub\n        /* \"#utility.yul\":29177:29178   */\n      0x00\n        /* \"#utility.yul\":29166:29175   */\n      dup4\n        /* \"#utility.yul\":29162:29179   */\n      add\n        /* \"#utility.yul\":29155:29202   */\n      mstore\n        /* \"#utility.yul\":29219:29350   */\n      tag_686\n        /* \"#utility.yul\":29345:29349   */\n      dup2\n        /* \"#utility.yul\":29219:29350   */\n      tag_552\n      jump\t// in\n    tag_686:\n        /* \"#utility.yul\":29211:29350   */\n      swap1\n      pop\n        /* \"#utility.yul\":28938:29357   */\n      swap2\n      swap1\n      pop\n      jump\t// out\n        /* \"#utility.yul\":29363:29782   */\n    tag_166:\n        /* \"#utility.yul\":29529:29533   */\n      0x00\n        /* \"#utility.yul\":29567:29569   */\n      0x20\n        /* \"#utility.yul\":29556:29565   */\n      dup3\n        /* \"#utility.yul\":29552:29570   */\n      add\n        /* \"#utility.yul\":29544:29570   */\n      swap1\n      pop\n        /* \"#utility.yul\":29616:29625   */\n      dup2\n        /* \"#utility.yul\":29610:29614   */\n      dup2\n        /* \"#utility.yul\":29606:29626   */\n      sub\n        /* \"#utility.yul\":29602:29603   */\n      0x00\n        /* \"#utility.yul\":29591:29600   */\n      dup4\n        /* \"#utility.yul\":29587:29604   */\n      add\n        /* \"#utility.yul\":29580:29627   */\n      mstore\n        /* \"#utility.yul\":29644:29775   */\n      tag_688\n        /* \"#utility.yul\":29770:29774   */\n      dup2\n        /* \"#utility.yul\":29644:29775   */\n      tag_557\n      jump\t// in\n    tag_688:\n        /* \"#utility.yul\":29636:29775   */\n      swap1\n      pop\n        /* \"#utility.yul\":29363:29782   */\n      swap2\n      swap1\n      pop\n      jump\t// out\n        /* \"#utility.yul\":29788:30207   */\n    tag_183:\n        /* \"#utility.yul\":29954:29958   */\n      0x00\n        /* \"#utility.yul\":29992:29994   */\n      0x20\n        /* \"#utility.yul\":29981:29990   */\n      dup3\n        /* \"#utility.yul\":29977:29995   */\n      add\n        /* \"#utility.yul\":29969:29995   */\n      swap1\n      pop\n        /* \"#utility.yul\":30041:30050   */\n      dup2\n        /* \"#utility.yul\":30035:30039   */\n      dup2\n        /* \"#utility.yul\":30031:30051   */\n      sub\n        /* \"#utility.yul\":30027:30028   */\n      0x00\n        /* \"#utility.yul\":30016:30025   */\n      dup4\n        /* \"#utility.yul\":30012:30029   */\n      add\n        /* \"#utility.yul\":30005:30052   */\n      mstore\n        /* \"#utility.yul\":30069:30200   */\n      tag_690\n        /* \"#utility.yul\":30195:30199   */\n      dup2\n        /* \"#utility.yul\":30069:30200   */\n      tag_568\n      jump\t// in\n    tag_690:\n        /* \"#utility.yul\":30061:30200   */\n      swap1\n      pop\n        /* \"#utility.yul\":29788:30207   */\n      swap2\n      swap1\n      pop\n      jump\t// out\n        /* \"#utility.yul\":30213:30632   */\n    tag_279:\n        /* \"#utility.yul\":30379:30383   */\n      0x00\n        /* \"#utility.yul\":30417:30419   */\n      0x20\n        /* \"#utility.yul\":30406:30415   */\n      dup3\n        /* \"#utility.yul\":30402:30420   */\n      add\n        /* \"#utility.yul\":30394:30420   */\n      swap1\n      pop\n        /* \"#utility.yul\":30466:30475   */\n      dup2\n        /* \"#utility.yul\":30460:30464   */\n      dup2\n        /* \"#utility.yul\":30456:30476   */\n      sub\n        /* \"#utility.yul\":30452:30453   */\n      0x00\n        /* \"#utility.yul\":30441:30450   */\n      dup4\n        /* \"#utility.yul\":30437:30454   */\n      add\n        /* \"#utility.yul\":30430:30477   */\n      mstore\n        /* \"#utility.yul\":30494:30625   */\n      tag_692\n        /* \"#utility.yul\":30620:30624   */\n      dup2\n        /* \"#utility.yul\":30494:30625   */\n      tag_573\n      jump\t// in\n    tag_692:\n        /* \"#utility.yul\":30486:30625   */\n      swap1\n      pop\n        /* \"#utility.yul\":30213:30632   */\n      swap2\n      swap1\n      pop\n      jump\t// out\n        /* \"#utility.yul\":30638:31057   */\n    tag_387:\n        /* \"#utility.yul\":30804:30808   */\n      0x00\n        /* \"#utility.yul\":30842:30844   */\n      0x20\n        /* \"#utility.yul\":30831:30840   */\n      dup3\n        /* \"#utility.yul\":30827:30845   */\n      add\n        /* \"#utility.yul\":30819:30845   */\n      swap1\n      pop\n        /* \"#utility.yul\":30891:30900   */\n      dup2\n        /* \"#utility.yul\":30885:30889   */\n      dup2\n        /* \"#utility.yul\":30881:30901   */\n      sub\n        /* \"#utility.yul\":30877:30878   */\n      0x00\n        /* \"#utility.yul\":30866:30875   */\n      dup4\n        /* \"#utility.yul\":30862:30879   */\n      add\n        /* \"#utility.yul\":30855:30902   */\n      mstore\n        /* \"#utility.yul\":30919:31050   */\n      tag_694\n        /* \"#utility.yul\":31045:31049   */\n      dup2\n        /* \"#utility.yul\":30919:31050   */\n      tag_578\n      jump\t// in\n    tag_694:\n        /* \"#utility.yul\":30911:31050   */\n      swap1\n      pop\n        /* \"#utility.yul\":30638:31057   */\n      swap2\n      swap1\n      pop\n      jump\t// out\n        /* \"#utility.yul\":31063:31382   */\n    tag_73:\n        /* \"#utility.yul\":31204:31208   */\n      0x00\n        /* \"#utility.yul\":31242:31245   */\n      0xe0\n        /* \"#utility.yul\":31231:31240   */\n      dup3\n        /* \"#utility.yul\":31227:31246   */\n      add\n        /* \"#utility.yul\":31219:31246   */\n      swap1\n      pop\n        /* \"#utility.yul\":31256:31375   */\n      tag_696\n        /* \"#utility.yul\":31372:31373   */\n      0x00\n        /* \"#utility.yul\":31361:31370   */\n      dup4\n        /* \"#utility.yul\":31357:31374   */\n      add\n        /* \"#utility.yul\":31348:31354   */\n      dup5\n        /* \"#utility.yul\":31256:31375   */\n      tag_583\n      jump\t// in\n    tag_696:\n        /* \"#utility.yul\":31063:31382   */\n      swap3\n      swap2\n      pop\n      pop\n      jump\t// out\n        /* \"#utility.yul\":31388:31715   */\n    tag_89:\n        /* \"#utility.yul\":31533:31537   */\n      0x00\n        /* \"#utility.yul\":31571:31574   */\n      0x80\n        /* \"#utility.yul\":31560:31569   */\n      dup3\n        /* \"#utility.yul\":31556:31575   */\n      add\n        /* \"#utility.yul\":31548:31575   */\n      swap1\n      pop\n        /* \"#utility.yul\":31585:31708   */\n      tag_698\n        /* \"#utility.yul\":31705:31706   */\n      0x00\n        /* \"#utility.yul\":31694:31703   */\n      dup4\n        /* \"#utility.yul\":31690:31707   */\n      add\n        /* \"#utility.yul\":31681:31687   */\n      dup5\n        /* \"#utility.yul\":31585:31708   */\n      tag_593\n      jump\t// in\n    tag_698:\n        /* \"#utility.yul\":31388:31715   */\n      swap3\n      swap2\n      pop\n      pop\n      jump\t// out\n        /* \"#utility.yul\":31721:31943   */\n    tag_62:\n        /* \"#utility.yul\":31814:31818   */\n      0x00\n        /* \"#utility.yul\":31852:31854   */\n      0x20\n        /* \"#utility.yul\":31841:31850   */\n      dup3\n        /* \"#utility.yul\":31837:31855   */\n      add\n        /* \"#utility.yul\":31829:31855   */\n      swap1\n      pop\n        /* \"#utility.yul\":31865:31936   */\n      tag_700\n        /* \"#utility.yul\":31933:31934   */\n      0x00\n        /* \"#utility.yul\":31922:31931   */\n      dup4\n        /* \"#utility.yul\":31918:31935   */\n      add\n        /* \"#utility.yul\":31909:31915   */\n      dup5\n        /* \"#utility.yul\":31865:31936   */\n      tag_605\n      jump\t// in\n    tag_700:\n        /* \"#utility.yul\":31721:31943   */\n      swap3\n      swap2\n      pop\n      pop\n      jump\t// out\n        /* \"#utility.yul\":32030:32187   */\n    tag_485:\n        /* \"#utility.yul\":32122:32126   */\n      0x00\n        /* \"#utility.yul\":32145:32148   */\n      dup2\n        /* \"#utility.yul\":32137:32148   */\n      swap1\n      pop\n        /* \"#utility.yul\":32175:32179   */\n      0x20\n        /* \"#utility.yul\":32170:32173   */\n      dup3\n        /* \"#utility.yul\":32166:32180   */\n      add\n        /* \"#utility.yul\":32158:32180   */\n      swap1\n      pop\n        /* \"#utility.yul\":32030:32187   */\n      swap2\n      swap1\n      pop\n      jump\t// out\n        /* \"#utility.yul\":32193:32332   */\n    tag_481:\n        /* \"#utility.yul\":32285:32291   */\n      0x00\n        /* \"#utility.yul\":32319:32324   */\n      dup2\n        /* \"#utility.yul\":32313:32325   */\n      mload\n        /* \"#utility.yul\":32303:32325   */\n      swap1\n      pop\n        /* \"#utility.yul\":32193:32332   */\n      swap2\n      swap1\n      pop\n      jump\t// out\n        /* \"#utility.yul\":32338:32476   */\n    tag_491:\n        /* \"#utility.yul\":32433:32437   */\n      0x00\n        /* \"#utility.yul\":32465:32469   */\n      0x20\n        /* \"#utility.yul\":32460:32463   */\n      dup3\n        /* \"#utility.yul\":32456:32470   */\n      add\n        /* \"#utility.yul\":32448:32470   */\n      swap1\n      pop\n        /* \"#utility.yul\":32338:32476   */\n      swap2\n      swap1\n      pop\n      jump\t// out\n        /* \"#utility.yul\":32482:32691   */\n    tag_483:\n        /* \"#utility.yul\":32606:32617   */\n      0x00\n        /* \"#utility.yul\":32640:32646   */\n      dup3\n        /* \"#utility.yul\":32635:32638   */\n      dup3\n        /* \"#utility.yul\":32628:32647   */\n      mstore\n        /* \"#utility.yul\":32680:32684   */\n      0x20\n        /* \"#utility.yul\":32675:32678   */\n      dup3\n        /* \"#utility.yul\":32671:32685   */\n      add\n        /* \"#utility.yul\":32656:32685   */\n      swap1\n      pop\n        /* \"#utility.yul\":32482:32691   */\n      swap3\n      swap2\n      pop\n      pop\n      jump\t// out\n        /* \"#utility.yul\":32697:32844   */\n    tag_565:\n        /* \"#utility.yul\":32798:32809   */\n      0x00\n        /* \"#utility.yul\":32835:32838   */\n      dup2\n        /* \"#utility.yul\":32820:32838   */\n      swap1\n      pop\n        /* \"#utility.yul\":32697:32844   */\n      swap3\n      swap2\n      pop\n      pop\n      jump\t// out\n        /* \"#utility.yul\":32850:33019   */\n    tag_499:\n        /* \"#utility.yul\":32934:32945   */\n      0x00\n        /* \"#utility.yul\":32968:32974   */\n      dup3\n        /* \"#utility.yul\":32963:32966   */\n      dup3\n        /* \"#utility.yul\":32956:32975   */\n      mstore\n        /* \"#utility.yul\":33008:33012   */\n      0x20\n        /* \"#utility.yul\":33003:33006   */\n      dup3\n        /* \"#utility.yul\":32999:33013   */\n      add\n        /* \"#utility.yul\":32984:33013   */\n      swap1\n      pop\n        /* \"#utility.yul\":32850:33019   */\n      swap3\n      swap2\n      pop\n      pop\n      jump\t// out\n        /* \"#utility.yul\":33025:33330   */\n    tag_346:\n        /* \"#utility.yul\":33065:33068   */\n      0x00\n        /* \"#utility.yul\":33084:33104   */\n      tag_710\n        /* \"#utility.yul\":33102:33103   */\n      dup3\n        /* \"#utility.yul\":33084:33104   */\n      tag_604\n      jump\t// in\n    tag_710:\n        /* \"#utility.yul\":33079:33104   */\n      swap2\n      pop\n        /* \"#utility.yul\":33118:33138   */\n      tag_711\n        /* \"#utility.yul\":33136:33137   */\n      dup4\n        /* \"#utility.yul\":33118:33138   */\n      tag_604\n      jump\t// in\n    tag_711:\n        /* \"#utility.yul\":33113:33138   */\n      swap3\n      pop\n        /* \"#utility.yul\":33272:33273   */\n      dup3\n        /* \"#utility.yul\":33204:33270   */\n      0xffffffffffffffffffffffffffffffffffffffffffffffffffffffffffffffff\n        /* \"#utility.yul\":33200:33274   */\n      sub\n        /* \"#utility.yul\":33197:33198   */\n      dup3\n        /* \"#utility.yul\":33194:33275   */\n      gt\n        /* \"#utility.yul\":33191:33298   */\n      iszero\n      tag_712\n      jumpi\n        /* \"#utility.yul\":33278:33296   */\n      tag_713\n      tag_714\n      jump\t// in\n    tag_713:\n        /* \"#utility.yul\":33191:33298   */\n    tag_712:\n        /* \"#utility.yul\":33322:33323   */\n      dup3\n        /* \"#utility.yul\":33319:33320   */\n      dup3\n        /* \"#utility.yul\":33315:33324   */\n      add\n        /* \"#utility.yul\":33308:33324   */\n      swap1\n      pop\n        /* \"#utility.yul\":33025:33330   */\n      swap3\n      swap2\n      pop\n      pop\n      jump\t// out\n        /* \"#utility.yul\":33336:33432   */\n    tag_474:\n        /* \"#utility.yul\":33373:33380   */\n      0x00\n        /* \"#utility.yul\":33402:33426   */\n      tag_716\n        /* \"#utility.yul\":33420:33425   */\n      dup3\n        /* \"#utility.yul\":33402:33426   */\n      tag_717\n      jump\t// in\n    tag_716:\n        /* \"#utility.yul\":33391:33426   */\n      swap1\n      pop\n        /* \"#utility.yul\":33336:33432   */\n      swap2\n      swap1\n      pop\n      jump\t// out\n        /* \"#utility.yul\":33438:33528   */\n    tag_718:\n        /* \"#utility.yul\":33472:33479   */\n      0x00\n        /* \"#utility.yul\":33515:33520   */\n      dup2\n        /* \"#utility.yul\":33508:33521   */\n      iszero\n        /* \"#utility.yul\":33501:33522   */\n      iszero\n        /* \"#utility.yul\":33490:33522   */\n      swap1\n      pop\n        /* \"#utility.yul\":33438:33528   */\n      swap2\n      swap1\n      pop\n      jump\t// out\n        /* \"#utility.yul\":33534:33683   */\n    tag_495:\n        /* \"#utility.yul\":33570:33577   */\n      0x00\n        /* \"#utility.yul\":33610:33676   */\n      0xffffffff00000000000000000000000000000000000000000000000000000000\n        /* \"#utility.yul\":33603:33608   */\n      dup3\n        /* \"#utility.yul\":33599:33677   */\n      and\n        /* \"#utility.yul\":33588:33677   */\n      swap1\n      pop\n        /* \"#utility.yul\":33534:33683   */\n      swap2\n      swap1\n      pop\n      jump\t// out\n        /* \"#utility.yul\":33689:33815   */\n    tag_717:\n        /* \"#utility.yul\":33726:33733   */\n      0x00\n        /* \"#utility.yul\":33766:33808   */\n      0xffffffffffffffffffffffffffffffffffffffff\n        /* \"#utility.yul\":33759:33764   */\n      dup3\n        /* \"#utility.yul\":33755:33809   */\n      and\n        /* \"#utility.yul\":33744:33809   */\n      swap1\n      pop\n        /* \"#utility.yul\":33689:33815   */\n      swap2\n      swap1\n      pop\n      jump\t// out\n        /* \"#utility.yul\":33821:33898   */\n    tag_604:\n        /* \"#utility.yul\":33858:33865   */\n      0x00\n        /* \"#utility.yul\":33887:33892   */\n      dup2\n        /* \"#utility.yul\":33876:33892   */\n      swap1\n      pop\n        /* \"#utility.yul\":33821:33898   */\n      swap2\n      swap1\n      pop\n      jump\t// out\n        /* \"#utility.yul\":33904:34084   */\n    tag_714:\n        /* \"#utility.yul\":33952:34029   */\n      0x4e487b7100000000000000000000000000000000000000000000000000000000\n        /* \"#utility.yul\":33949:33950   */\n      0x00\n        /* \"#utility.yul\":33942:34030   */\n      mstore\n        /* \"#utility.yul\":34049:34053   */\n      0x11\n        /* \"#utility.yul\":34046:34047   */\n      0x04\n        /* \"#utility.yul\":34039:34054   */\n      mstore\n        /* \"#utility.yul\":34073:34077   */\n      0x24\n        /* \"#utility.yul\":34070:34071   */\n      0x00\n        /* \"#utility.yul\":34063:34078   */\n      revert\n        /* \"#utility.yul\":34090:34270   */\n    tag_197:\n        /* \"#utility.yul\":34138:34215   */\n      0x4e487b7100000000000000000000000000000000000000000000000000000000\n        /* \"#utility.yul\":34135:34136   */\n      0x00\n        /* \"#utility.yul\":34128:34216   */\n      mstore\n        /* \"#utility.yul\":34235:34239   */\n      0x32\n        /* \"#utility.yul\":34232:34233   */\n      0x04\n        /* \"#utility.yul\":34225:34240   */\n      mstore\n        /* \"#utility.yul\":34259:34263   */\n      0x24\n        /* \"#utility.yul\":34256:34257   */\n      0x00\n        /* \"#utility.yul\":34249:34264   */\n      revert\n        /* \"#utility.yul\":34276:34393   */\n    tag_407:\n        /* \"#utility.yul\":34385:34386   */\n      0x00\n        /* \"#utility.yul\":34382:34383   */\n      dup1\n        /* \"#utility.yul\":34375:34387   */\n      revert\n        /* \"#utility.yul\":34399:34516   */\n    tag_404:\n        /* \"#utility.yul\":34508:34509   */\n      0x00\n        /* \"#utility.yul\":34505:34506   */\n      dup1\n        /* \"#utility.yul\":34498:34510   */\n      revert\n        /* \"#utility.yul\":34522:34639   */\n    tag_410:\n        /* \"#utility.yul\":34631:34632   */\n      0x00\n        /* \"#utility.yul\":34628:34629   */\n      dup1\n        /* \"#utility.yul\":34621:34633   */\n      revert\n        /* \"#utility.yul\":34645:34762   */\n    tag_428:\n        /* \"#utility.yul\":34754:34755   */\n      0x00\n        /* \"#utility.yul\":34751:34752   */\n      dup1\n        /* \"#utility.yul\":34744:34756   */\n      revert\n        /* \"#utility.yul\":34768:34885   */\n    tag_418:\n        /* \"#utility.yul\":34877:34878   */\n      0x00\n        /* \"#utility.yul\":34874:34875   */\n      dup1\n        /* \"#utility.yul\":34867:34879   */\n      revert\n        /* \"#utility.yul\":34891:35063   */\n    tag_501:\n        /* \"#utility.yul\":35031:35055   */\n      0x596f752061726520686967686573742062696464657200000000000000000000\n        /* \"#utility.yul\":35027:35028   */\n      0x00\n        /* \"#utility.yul\":35019:35025   */\n      dup3\n        /* \"#utility.yul\":35015:35029   */\n      add\n        /* \"#utility.yul\":35008:35056   */\n      mstore\n        /* \"#utility.yul\":34891:35063   */\n      pop\n      jump\t// out\n        /* \"#utility.yul\":35069:35247   */\n    tag_506:\n        /* \"#utility.yul\":35209:35239   */\n      0x4e6674206e6f7420617070726f76656420746f20636f6e747261637400000000\n        /* \"#utility.yul\":35205:35206   */\n      0x00\n        /* \"#utility.yul\":35197:35203   */\n      dup3\n        /* \"#utility.yul\":35193:35207   */\n      add\n        /* \"#utility.yul\":35186:35240   */\n      mstore\n        /* \"#utility.yul\":35069:35247   */\n      pop\n      jump\t// out\n        /* \"#utility.yul\":35253:35420   */\n    tag_511:\n        /* \"#utility.yul\":35393:35412   */\n      0x50726963652063616e6e6f742062652030000000000000000000000000000000\n        /* \"#utility.yul\":35389:35390   */\n      0x00\n        /* \"#utility.yul\":35381:35387   */\n      dup3\n        /* \"#utility.yul\":35377:35391   */\n      add\n        /* \"#utility.yul\":35370:35413   */\n      mstore\n        /* \"#utility.yul\":35253:35420   */\n      pop\n      jump\t// out\n        /* \"#utility.yul\":35426:35589   */\n    tag_516:\n        /* \"#utility.yul\":35566:35581   */\n      0x6e6f74206e6674206f776e657200000000000000000000000000000000000000\n        /* \"#utility.yul\":35562:35563   */\n      0x00\n        /* \"#utility.yul\":35554:35560   */\n      dup3\n        /* \"#utility.yul\":35550:35564   */\n      add\n        /* \"#utility.yul\":35543:35582   */\n      mstore\n        /* \"#utility.yul\":35426:35589   */\n      pop\n      jump\t// out\n        /* \"#utility.yul\":35595:35766   */\n    tag_521:\n        /* \"#utility.yul\":35735:35758   */\n      0x4e6674206e6f7420696e2066697865642073616c650000000000000000000000\n        /* \"#utility.yul\":35731:35732   */\n      0x00\n        /* \"#utility.yul\":35723:35729   */\n      dup3\n        /* \"#utility.yul\":35719:35733   */\n      add\n        /* \"#utility.yul\":35712:35759   */\n      mstore\n        /* \"#utility.yul\":35595:35766   */\n      pop\n      jump\t// out\n        /* \"#utility.yul\":35772:35945   */\n    tag_526:\n        /* \"#utility.yul\":35912:35937   */\n      0x4e6674206e6f7420696e2061756374696f6e2073616c65000000000000000000\n        /* \"#utility.yul\":35908:35909   */\n      0x00\n        /* \"#utility.yul\":35900:35906   */\n      dup3\n        /* \"#utility.yul\":35896:35910   */\n      add\n        /* \"#utility.yul\":35889:35938   */\n      mstore\n        /* \"#utility.yul\":35772:35945   */\n      pop\n      jump\t// out\n        /* \"#utility.yul\":35951:36130   */\n    tag_531:\n        /* \"#utility.yul\":36091:36122   */\n      0x4269642047726561746572207468616e2050726576696f757320426964000000\n        /* \"#utility.yul\":36087:36088   */\n      0x00\n        /* \"#utility.yul\":36079:36085   */\n      dup3\n        /* \"#utility.yul\":36075:36089   */\n      add\n        /* \"#utility.yul\":36068:36123   */\n      mstore\n        /* \"#utility.yul\":35951:36130   */\n      pop\n      jump\t// out\n        /* \"#utility.yul\":36136:36297   */\n    tag_536:\n        /* \"#utility.yul\":36276:36289   */\n      0x41756374696f6e20656e64000000000000000000000000000000000000000000\n        /* \"#utility.yul\":36272:36273   */\n      0x00\n        /* \"#utility.yul\":36264:36270   */\n      dup3\n        /* \"#utility.yul\":36260:36274   */\n      add\n        /* \"#utility.yul\":36253:36290   */\n      mstore\n        /* \"#utility.yul\":36136:36297   */\n      pop\n      jump\t// out\n        /* \"#utility.yul\":36303:36472   */\n    tag_541:\n        /* \"#utility.yul\":36443:36464   */\n      0x4e667420616c726561647920696e2073616c6500000000000000000000000000\n        /* \"#utility.yul\":36439:36440   */\n      0x00\n        /* \"#utility.yul\":36431:36437   */\n      dup3\n        /* \"#utility.yul\":36427:36441   */\n      add\n        /* \"#utility.yul\":36420:36465   */\n      mstore\n        /* \"#utility.yul\":36303:36472   */\n      pop\n      jump\t// out\n        /* \"#utility.yul\":36478:36636   */\n    tag_546:\n        /* \"#utility.yul\":36618:36628   */\n      0x626964206d616b65000000000000000000000000000000000000000000000000\n        /* \"#utility.yul\":36614:36615   */\n      0x00\n        /* \"#utility.yul\":36606:36612   */\n      dup3\n        /* \"#utility.yul\":36602:36616   */\n      add\n        /* \"#utility.yul\":36595:36629   */\n      mstore\n        /* \"#utility.yul\":36478:36636   */\n      pop\n      jump\t// out\n        /* \"#utility.yul\":36642:36812   */\n    tag_551:\n        /* \"#utility.yul\":36782:36804   */\n      0x616c6c6f77616e6365206e6f7420656e6f756768000000000000000000000000\n        /* \"#utility.yul\":36778:36779   */\n      0x00\n        /* \"#utility.yul\":36770:36776   */\n      dup3\n        /* \"#utility.yul\":36766:36780   */\n      add\n        /* \"#utility.yul\":36759:36805   */\n      mstore\n        /* \"#utility.yul\":36642:36812   */\n      pop\n      jump\t// out\n        /* \"#utility.yul\":36818:36983   */\n    tag_556:\n        /* \"#utility.yul\":36958:36975   */\n      0x41756374696f6e206e6f7420656e640000000000000000000000000000000000\n        /* \"#utility.yul\":36954:36955   */\n      0x00\n        /* \"#utility.yul\":36946:36952   */\n      dup3\n        /* \"#utility.yul\":36942:36956   */\n      add\n        /* \"#utility.yul\":36935:36976   */\n      mstore\n        /* \"#utility.yul\":36818:36983   */\n      pop\n      jump\t// out\n        /* \"#utility.yul\":36989:37160   */\n    tag_561:\n        /* \"#utility.yul\":37129:37152   */\n      0x596f7520617265206e6f74206e6674206f776e65720000000000000000000000\n        /* \"#utility.yul\":37125:37126   */\n      0x00\n        /* \"#utility.yul\":37117:37123   */\n      dup3\n        /* \"#utility.yul\":37113:37127   */\n      add\n        /* \"#utility.yul\":37106:37153   */\n      mstore\n        /* \"#utility.yul\":36989:37160   */\n      pop\n      jump\t// out\n        /* \"#utility.yul\":37166:37280   */\n    tag_567:\n      pop\n      jump\t// out\n        /* \"#utility.yul\":37286:37455   */\n    tag_572:\n        /* \"#utility.yul\":37426:37447   */\n      0x6e6f7468696e6720746f20776974686472617700000000000000000000000000\n        /* \"#utility.yul\":37422:37423   */\n      0x00\n        /* \"#utility.yul\":37414:37420   */\n      dup3\n        /* \"#utility.yul\":37410:37424   */\n      add\n        /* \"#utility.yul\":37403:37448   */\n      mstore\n        /* \"#utility.yul\":37286:37455   */\n      pop\n      jump\t// out\n        /* \"#utility.yul\":37461:37631   */\n    tag_577:\n        /* \"#utility.yul\":37601:37623   */\n      0x627579205072696365206e6f7420656e6f756768000000000000000000000000\n        /* \"#utility.yul\":37597:37598   */\n      0x00\n        /* \"#utility.yul\":37589:37595   */\n      dup3\n        /* \"#utility.yul\":37585:37599   */\n      add\n        /* \"#utility.yul\":37578:37624   */\n      mstore\n        /* \"#utility.yul\":37461:37631   */\n      pop\n      jump\t// out\n        /* \"#utility.yul\":37637:37800   */\n    tag_582:\n        /* \"#utility.yul\":37777:37792   */\n      0x726566756e64206661696c656400000000000000000000000000000000000000\n        /* \"#utility.yul\":37773:37774   */\n      0x00\n        /* \"#utility.yul\":37765:37771   */\n      dup3\n        /* \"#utility.yul\":37761:37775   */\n      add\n        /* \"#utility.yul\":37754:37793   */\n      mstore\n        /* \"#utility.yul\":37637:37800   */\n      pop\n      jump\t// out\n        /* \"#utility.yul\":37806:37928   */\n    tag_392:\n        /* \"#utility.yul\":37879:37903   */\n      tag_748\n        /* \"#utility.yul\":37897:37902   */\n      dup2\n        /* \"#utility.yul\":37879:37903   */\n      tag_474\n      jump\t// in\n    tag_748:\n        /* \"#utility.yul\":37872:37877   */\n      dup2\n        /* \"#utility.yul\":37869:37904   */\n      eq\n        /* \"#utility.yul\":37859:37922   */\n      tag_749\n      jumpi\n        /* \"#utility.yul\":37918:37919   */\n      0x00\n        /* \"#utility.yul\":37915:37916   */\n      dup1\n        /* \"#utility.yul\":37908:37920   */\n      revert\n        /* \"#utility.yul\":37859:37922   */\n    tag_749:\n        /* \"#utility.yul\":37806:37928   */\n      pop\n      jump\t// out\n        /* \"#utility.yul\":37934:38050   */\n    tag_399:\n        /* \"#utility.yul\":38004:38025   */\n      tag_751\n        /* \"#utility.yul\":38019:38024   */\n      dup2\n        /* \"#utility.yul\":38004:38025   */\n      tag_718\n      jump\t// in\n    tag_751:\n        /* \"#utility.yul\":37997:38002   */\n      dup2\n        /* \"#utility.yul\":37994:38026   */\n      eq\n        /* \"#utility.yul\":37984:38044   */\n      tag_752\n      jumpi\n        /* \"#utility.yul\":38040:38041   */\n      0x00\n        /* \"#utility.yul\":38037:38038   */\n      dup1\n        /* \"#utility.yul\":38030:38042   */\n      revert\n        /* \"#utility.yul\":37984:38044   */\n    tag_752:\n        /* \"#utility.yul\":37934:38050   */\n      pop\n      jump\t// out\n        /* \"#utility.yul\":38056:38178   */\n    tag_414:\n        /* \"#utility.yul\":38129:38153   */\n      tag_754\n        /* \"#utility.yul\":38147:38152   */\n      dup2\n        /* \"#utility.yul\":38129:38153   */\n      tag_604\n      jump\t// in\n    tag_754:\n        /* \"#utility.yul\":38122:38127   */\n      dup2\n        /* \"#utility.yul\":38119:38154   */\n      eq\n        /* \"#utility.yul\":38109:38172   */\n      tag_755\n      jumpi\n        /* \"#utility.yul\":38168:38169   */\n      0x00\n        /* \"#utility.yul\":38165:38166   */\n      dup1\n        /* \"#utility.yul\":38158:38170   */\n      revert\n        /* \"#utility.yul\":38109:38172   */\n    tag_755:\n        /* \"#utility.yul\":38056:38178   */\n      pop\n      jump\t// out\n\n    auxdata: 0xa264697066735822122073652be7eb4d9c73941e9e4c95c227b3ac36b711cfbb53937fe9a14b4ded651e64736f6c63430008070033\n}\n",
				"bytecode": {
					"linkReferences": {},
					"object": "608060405234801561001057600080fd5b50615185806100206000396000f3fe6080604052600436106101025760003560e01c806369a6d12e116100955780638c3417da116100645780638c3417da146103325780639f085a001461036f578063baf4371e1461039a578063cf42b7e6146103b6578063d3a6a6c9146103df57610109565b806369a6d12e146102665780636f8c9b1b1461028f5780636fe02f24146102cc578063842bc46a1461030957610109565b80634676adca116100d15780634676adca146101ae5780634cb8ef5b146101d75780635138b08c146102005780636916462f1461022957610109565b8063150b7a021461010e5780631bdae6f11461014b5780631e7a044f146101675780633a713db81461019257610109565b3661010957005b600080fd5b34801561011a57600080fd5b50610135600480360381019061013091906140e5565b610408565b6040516101429190614a75565b60405180910390f35b610165600480360381019061016091906142f4565b61041d565b005b34801561017357600080fd5b5061017c610a54565b6040516101899190614a53565b60405180910390f35b6101ac60048036038101906101a791906142f4565b610b13565b005b3480156101ba57600080fd5b506101d560048036038101906101d091906142f4565b6112ac565b005b3480156101e357600080fd5b506101fe60048036038101906101f99190614261565b611503565b005b34801561020c57600080fd5b5061022760048036038101906102229190614261565b611820565b005b34801561023557600080fd5b50610250600480360381019061024b9190614261565b611c67565b60405161025d9190614cc6565b60405180910390f35b34801561027257600080fd5b5061028d6004803603810190610288919061416d565b611c8c565b005b34801561029b57600080fd5b506102b660048036038101906102b19190614261565b6122d4565b6040516102c39190614c90565b60405180910390f35b3480156102d857600080fd5b506102f360048036038101906102ee91906142a1565b612469565b6040516103009190614cc6565b60405180910390f35b34801561031557600080fd5b50610330600480360381019061032b9190614261565b61249b565b005b34801561033e57600080fd5b5061035960048036038101906103549190614261565b61293d565b6040516103669190614cab565b60405180910390f35b34801561037b57600080fd5b50610384612ab3565b6040516103919190614a53565b60405180910390f35b6103b460048036038101906103af91906142f4565b612b72565b005b3480156103c257600080fd5b506103dd60048036038101906103d891906141d4565b613066565b005b3480156103eb57600080fd5b5061040660048036038101906104019190614261565b613466565b005b600063150b7a0260e01b905095945050505050565b828260028060008473ffffffffffffffffffffffffffffffffffffffff1673ffffffffffffffffffffffffffffffffffffffff168152602001908152602001600020600083815260200190815260200160002054146104b1576040517f08c379a00000000000000000000000000000000000000000000000000000000081526004016104a890614b30565b60405180910390fd5b8484600160008373ffffffffffffffffffffffffffffffffffffffff1673ffffffffffffffffffffffffffffffffffffffff1681526020019081526020016000206000828152602001908152602001600020600101544210610548576040517f08c379a000000000000000000000000000000000000000000000000000000000815260040161053f90614b70565b60405180910390fd5b846000811161058c576040517f08c379a000000000000000000000000000000000000000000000000000000000815260040161058390614ad0565b60405180910390fd5b87873488600073ffffffffffffffffffffffffffffffffffffffff16600160008673ffffffffffffffffffffffffffffffffffffffff1673ffffffffffffffffffffffffffffffffffffffff168152602001908152602001600020600085815260200190815260200160002060060160009054906101000a900473ffffffffffffffffffffffffffffffffffffffff1673ffffffffffffffffffffffffffffffffffffffff1614156106d257600160008573ffffffffffffffffffffffffffffffffffffffff1673ffffffffffffffffffffffffffffffffffffffff16815260200190815260200160002060008481526020019081526020016000206003015482116106cd576040517f08c379a00000000000000000000000000000000000000000000000000000000081526004016106c490614b50565b60405180910390fd5b610768565b600160008573ffffffffffffffffffffffffffffffffffffffff1673ffffffffffffffffffffffffffffffffffffffff1681526020019081526020016000206000848152602001908152602001600020600301548111610767576040517f08c379a000000000000000000000000000000000000000000000000000000000815260040161075e90614b50565b60405180910390fd5b5b600073ffffffffffffffffffffffffffffffffffffffff16600160008e73ffffffffffffffffffffffffffffffffffffffff1673ffffffffffffffffffffffffffffffffffffffff16815260200190815260200160002060008d815260200190815260200160002060060160009054906101000a900473ffffffffffffffffffffffffffffffffffffffff1673ffffffffffffffffffffffffffffffffffffffff161461088d5761088c8a600160008f73ffffffffffffffffffffffffffffffffffffffff1673ffffffffffffffffffffffffffffffffffffffff16815260200190815260200160002060008e815260200190815260200160002060060160009054906101000a900473ffffffffffffffffffffffffffffffffffffffff16613789565b5b89600160008e73ffffffffffffffffffffffffffffffffffffffff1673ffffffffffffffffffffffffffffffffffffffff16815260200190815260200160002060008d81526020019081526020016000206003018190555033600160008e73ffffffffffffffffffffffffffffffffffffffff1673ffffffffffffffffffffffffffffffffffffffff16815260200190815260200160002060008d815260200190815260200160002060040160006101000a81548173ffffffffffffffffffffffffffffffffffffffff021916908373ffffffffffffffffffffffffffffffffffffffff16021790555089600360008e73ffffffffffffffffffffffffffffffffffffffff1673ffffffffffffffffffffffffffffffffffffffff16815260200190815260200160002060008d815260200190815260200160002060003373ffffffffffffffffffffffffffffffffffffffff1673ffffffffffffffffffffffffffffffffffffffff168152602001908152602001600020819055507fd56cb6210c78740462007b728932c802bc41b205ed5c8a98ab95421eaf054b228c8c8c33604051610a3e9493929190614a0e565b60405180910390a1505050505050505050505050565b60606007805480602002602001604051908101604052809291908181526020016000905b82821015610b0a57838290600052602060002090600202016040518060400160405290816000820160009054906101000a900473ffffffffffffffffffffffffffffffffffffffff1673ffffffffffffffffffffffffffffffffffffffff1673ffffffffffffffffffffffffffffffffffffffff16815260200160018201548152505081526020019060010190610a78565b50505050905090565b828260028060008473ffffffffffffffffffffffffffffffffffffffff1673ffffffffffffffffffffffffffffffffffffffff16815260200190815260200160002060008381526020019081526020016000205414610ba7576040517f08c379a0000000000000000000000000000000000000000000000000000000008152600401610b9e90614b30565b60405180910390fd5b8484600160008373ffffffffffffffffffffffffffffffffffffffff1673ffffffffffffffffffffffffffffffffffffffff1681526020019081526020016000206000828152602001908152602001600020600101544210610c3e576040517f08c379a0000000000000000000000000000000000000000000000000000000008152600401610c3590614b70565b60405180910390fd5b3460008111610c82576040517f08c379a0000000000000000000000000000000000000000000000000000000008152600401610c7990614ad0565b60405180910390fd5b8787348860008073ffffffffffffffffffffffffffffffffffffffff16600160008773ffffffffffffffffffffffffffffffffffffffff1673ffffffffffffffffffffffffffffffffffffffff168152602001908152602001600020600086815260200190815260200160002060060160009054906101000a900473ffffffffffffffffffffffffffffffffffffffff1673ffffffffffffffffffffffffffffffffffffffff161415610dd657610dcf83600360008873ffffffffffffffffffffffffffffffffffffffff1673ffffffffffffffffffffffffffffffffffffffff168152602001908152602001600020600087815260200190815260200160002060003373ffffffffffffffffffffffffffffffffffffffff1673ffffffffffffffffffffffffffffffffffffffff1681526020019081526020016000205461385b90919063ffffffff16565b9050610e79565b610e7682600360008873ffffffffffffffffffffffffffffffffffffffff1673ffffffffffffffffffffffffffffffffffffffff168152602001908152602001600020600087815260200190815260200160002060003373ffffffffffffffffffffffffffffffffffffffff1673ffffffffffffffffffffffffffffffffffffffff1681526020019081526020016000205461385b90919063ffffffff16565b90505b600160008673ffffffffffffffffffffffffffffffffffffffff1673ffffffffffffffffffffffffffffffffffffffff1681526020019081526020016000206000858152602001908152602001600020600301548111610f0e576040517f08c379a0000000000000000000000000000000000000000000000000000000008152600401610f0590614b50565b60405180910390fd5b60008d905060008d90506000610fba8e600360008673ffffffffffffffffffffffffffffffffffffffff1673ffffffffffffffffffffffffffffffffffffffff168152602001908152602001600020600085815260200190815260200160002060003373ffffffffffffffffffffffffffffffffffffffff1673ffffffffffffffffffffffffffffffffffffffff1681526020019081526020016000205461385b90919063ffffffff16565b9050600073ffffffffffffffffffffffffffffffffffffffff16600160008573ffffffffffffffffffffffffffffffffffffffff1673ffffffffffffffffffffffffffffffffffffffff168152602001908152602001600020600084815260200190815260200160002060060160009054906101000a900473ffffffffffffffffffffffffffffffffffffffff1673ffffffffffffffffffffffffffffffffffffffff16146110e1576110e08e600160008673ffffffffffffffffffffffffffffffffffffffff1673ffffffffffffffffffffffffffffffffffffffff168152602001908152602001600020600085815260200190815260200160002060060160009054906101000a900473ffffffffffffffffffffffffffffffffffffffff16613789565b5b80600160008573ffffffffffffffffffffffffffffffffffffffff1673ffffffffffffffffffffffffffffffffffffffff16815260200190815260200160002060008481526020019081526020016000206003018190555033600160008573ffffffffffffffffffffffffffffffffffffffff1673ffffffffffffffffffffffffffffffffffffffff168152602001908152602001600020600084815260200190815260200160002060040160006101000a81548173ffffffffffffffffffffffffffffffffffffffff021916908373ffffffffffffffffffffffffffffffffffffffff16021790555080600360008573ffffffffffffffffffffffffffffffffffffffff1673ffffffffffffffffffffffffffffffffffffffff168152602001908152602001600020600084815260200190815260200160002060003373ffffffffffffffffffffffffffffffffffffffff1673ffffffffffffffffffffffffffffffffffffffff168152602001908152602001600020819055507f907cdadc7c1a8abcdd80cdd85eb18377631e4f413fb6397a8252ff7b358ac6cb838383336040516112929493929190614a0e565b60405180910390a150505050505050505050505050505050565b82826001600260008473ffffffffffffffffffffffffffffffffffffffff1673ffffffffffffffffffffffffffffffffffffffff16815260200190815260200160002060008381526020019081526020016000205414611341576040517f08c379a000000000000000000000000000000000000000000000000000000000815260040161133890614b10565b60405180910390fd5b84846000808373ffffffffffffffffffffffffffffffffffffffff1673ffffffffffffffffffffffffffffffffffffffff168152602001908152602001600020600082815260200190815260200160002060000160009054906101000a900473ffffffffffffffffffffffffffffffffffffffff1673ffffffffffffffffffffffffffffffffffffffff163373ffffffffffffffffffffffffffffffffffffffff1614611423576040517f08c379a000000000000000000000000000000000000000000000000000000000815260040161141a90614c10565b60405180910390fd5b8460008111611467576040517f08c379a000000000000000000000000000000000000000000000000000000000815260040161145e90614ad0565b60405180910390fd5b856000808a73ffffffffffffffffffffffffffffffffffffffff1673ffffffffffffffffffffffffffffffffffffffff1681526020019081526020016000206000898152602001908152602001600020600301819055507f575a0876095ccf47276a37dce683308a625403d132d219f95205ce205b2e12bc8888886040516114f1939291906149d7565b60405180910390a15050505050505050565b8181600160008373ffffffffffffffffffffffffffffffffffffffff1673ffffffffffffffffffffffffffffffffffffffff168152602001908152602001600020600082815260200190815260200160002060010154421161159a576040517f08c379a000000000000000000000000000000000000000000000000000000000815260040161159190614bf0565b60405180910390fd5b600160008573ffffffffffffffffffffffffffffffffffffffff1673ffffffffffffffffffffffffffffffffffffffff168152602001908152602001600020600084815260200190815260200160002060040160009054906101000a900473ffffffffffffffffffffffffffffffffffffffff1673ffffffffffffffffffffffffffffffffffffffff163373ffffffffffffffffffffffffffffffffffffffff16141561167c576040517f08c379a000000000000000000000000000000000000000000000000000000000815260040161167390614a90565b60405180910390fd5b6000600360008673ffffffffffffffffffffffffffffffffffffffff1673ffffffffffffffffffffffffffffffffffffffff168152602001908152602001600020600085815260200190815260200160002060003373ffffffffffffffffffffffffffffffffffffffff1673ffffffffffffffffffffffffffffffffffffffff168152602001908152602001600020541161174c576040517f08c379a000000000000000000000000000000000000000000000000000000000815260040161174390614c30565b60405180910390fd5b6000600360008673ffffffffffffffffffffffffffffffffffffffff1673ffffffffffffffffffffffffffffffffffffffff168152602001908152602001600020600085815260200190815260200160002060003373ffffffffffffffffffffffffffffffffffffffff1673ffffffffffffffffffffffffffffffffffffffff168152602001908152602001600020819055507fde8cb9aa2c755cf75d5fbc4fec824b10e311652306f1fca5c8e57a04758b0aa78484336040516118129392919061494d565b60405180910390a150505050565b818160028060008473ffffffffffffffffffffffffffffffffffffffff1673ffffffffffffffffffffffffffffffffffffffff168152602001908152602001600020600083815260200190815260200160002054146118b4576040517f08c379a00000000000000000000000000000000000000000000000000000000081526004016118ab90614b30565b60405180910390fd5b8383600160008373ffffffffffffffffffffffffffffffffffffffff1673ffffffffffffffffffffffffffffffffffffffff168152602001908152602001600020600082815260200190815260200160002060010154421161194b576040517f08c379a000000000000000000000000000000000000000000000000000000000815260040161194290614bf0565b60405180910390fd5b6000600160008873ffffffffffffffffffffffffffffffffffffffff1673ffffffffffffffffffffffffffffffffffffffff168152602001908152602001600020600087815260200190815260200160002060040160009054906101000a900473ffffffffffffffffffffffffffffffffffffffff169050611a228787600160008b73ffffffffffffffffffffffffffffffffffffffff1673ffffffffffffffffffffffffffffffffffffffff16815260200190815260200160002060008a81526020019081526020016000206003015484613871565b6000600360008973ffffffffffffffffffffffffffffffffffffffff1673ffffffffffffffffffffffffffffffffffffffff168152602001908152602001600020600088815260200190815260200160002060008373ffffffffffffffffffffffffffffffffffffffff1673ffffffffffffffffffffffffffffffffffffffff168152602001908152602001600020819055506007600560008973ffffffffffffffffffffffffffffffffffffffff1673ffffffffffffffffffffffffffffffffffffffff16815260200190815260200160002060008881526020019081526020016000205481548110611b1957611b18614e2f565b5b9060005260206000209060020201600080820160006101000a81549073ffffffffffffffffffffffffffffffffffffffff0219169055600182016000905550507fb31cb4f6609b11a57d1b6b14cc3f81f4b3e609f709a5b1e46892a45f9cc29ed8878783600160008c73ffffffffffffffffffffffffffffffffffffffff1673ffffffffffffffffffffffffffffffffffffffff16815260200190815260200160002060008b815260200190815260200160002060030154600160008d73ffffffffffffffffffffffffffffffffffffffff1673ffffffffffffffffffffffffffffffffffffffff16815260200190815260200160002060008c815260200190815260200160002060050160009054906101000a900473ffffffffffffffffffffffffffffffffffffffff16604051611c56959493929190614984565b60405180910390a150505050505050565b6002602052816000526040600020602052806000526040600020600091509150505481565b83828173ffffffffffffffffffffffffffffffffffffffff16636352211e826040518263ffffffff1660e01b8152600401611cc79190614cc6565b60206040518083038186803b158015611cdf57600080fd5b505afa158015611cf3573d6000803e3d6000fd5b505050506040513d601f19601f82011682018060405250810190611d1791906140b8565b73ffffffffffffffffffffffffffffffffffffffff163373ffffffffffffffffffffffffffffffffffffffff1614611d84576040517f08c379a0000000000000000000000000000000000000000000000000000000008152600401611d7b90614c10565b60405180910390fd5b85846000600260008473ffffffffffffffffffffffffffffffffffffffff1673ffffffffffffffffffffffffffffffffffffffff16815260200190815260200160002060008381526020019081526020016000205414611e19576040517f08c379a0000000000000000000000000000000000000000000000000000000008152600401611e1090614b90565b60405180910390fd5b87868173ffffffffffffffffffffffffffffffffffffffff1663e985e9c533306040518363ffffffff1660e01b8152600401611e569291906147af565b60206040518083038186803b158015611e6e57600080fd5b505afa158015611e82573d6000803e3d6000fd5b505050506040513d601f19601f82011682018060405250810190611ea69190614347565b611ee5576040517f08c379a0000000000000000000000000000000000000000000000000000000008152600401611edc90614ab0565b60405180910390fd5b8660008111611f29576040517f08c379a0000000000000000000000000000000000000000000000000000000008152600401611f2090614ad0565b60405180910390fd5b60405180608001604052803373ffffffffffffffffffffffffffffffffffffffff168152602001600073ffffffffffffffffffffffffffffffffffffffff1681526020018b73ffffffffffffffffffffffffffffffffffffffff168152602001898152506000808d73ffffffffffffffffffffffffffffffffffffffff1673ffffffffffffffffffffffffffffffffffffffff16815260200190815260200160002060008b815260200190815260200160002060008201518160000160006101000a81548173ffffffffffffffffffffffffffffffffffffffff021916908373ffffffffffffffffffffffffffffffffffffffff16021790555060208201518160010160006101000a81548173ffffffffffffffffffffffffffffffffffffffff021916908373ffffffffffffffffffffffffffffffffffffffff16021790555060408201518160020160006101000a81548173ffffffffffffffffffffffffffffffffffffffff021916908373ffffffffffffffffffffffffffffffffffffffff160217905550606082015181600301559050506001600260008d73ffffffffffffffffffffffffffffffffffffffff1673ffffffffffffffffffffffffffffffffffffffff16815260200190815260200160002060008b815260200190815260200160002081905550600680549050600460008d73ffffffffffffffffffffffffffffffffffffffff1673ffffffffffffffffffffffffffffffffffffffff16815260200190815260200160002060008b815260200190815260200160002081905550600660405180604001604052808d73ffffffffffffffffffffffffffffffffffffffff1681526020018b815250908060018154018082558091505060019003906000526020600020906002020160009091909190915060008201518160000160006101000a81548173ffffffffffffffffffffffffffffffffffffffff021916908373ffffffffffffffffffffffffffffffffffffffff1602179055506020820151816001015550508a73ffffffffffffffffffffffffffffffffffffffff166342842e0e33308c6040518463ffffffff1660e01b8152600401612254939291906148a8565b600060405180830381600087803b15801561226e57600080fd5b505af1158015612282573d6000803e3d6000fd5b505050507f078eead3cd01ed921c7653d000a6b73aea643a7b9c066fb7d93eb2eae8acc2d98b338c8c8c426040516122bf969594939291906147d8565b60405180910390a15050505050505050505050565b6122dc613f25565b600160008473ffffffffffffffffffffffffffffffffffffffff1673ffffffffffffffffffffffffffffffffffffffff16815260200190815260200160002060008381526020019081526020016000206040518060e0016040529081600082015481526020016001820154815260200160028201548152602001600382015481526020016004820160009054906101000a900473ffffffffffffffffffffffffffffffffffffffff1673ffffffffffffffffffffffffffffffffffffffff1673ffffffffffffffffffffffffffffffffffffffff1681526020016005820160009054906101000a900473ffffffffffffffffffffffffffffffffffffffff1673ffffffffffffffffffffffffffffffffffffffff1673ffffffffffffffffffffffffffffffffffffffff1681526020016006820160009054906101000a900473ffffffffffffffffffffffffffffffffffffffff1673ffffffffffffffffffffffffffffffffffffffff1673ffffffffffffffffffffffffffffffffffffffff1681525050905092915050565b600360205282600052604060002060205281600052604060002060205280600052604060002060009250925050505481565b818160028060008473ffffffffffffffffffffffffffffffffffffffff1673ffffffffffffffffffffffffffffffffffffffff1681526020019081526020016000206000838152602001908152602001600020541461252f576040517f08c379a000000000000000000000000000000000000000000000000000000000815260040161252690614b30565b60405180910390fd5b8383600160008373ffffffffffffffffffffffffffffffffffffffff1673ffffffffffffffffffffffffffffffffffffffff168152602001908152602001600020600082815260200190815260200160002060050160009054906101000a900473ffffffffffffffffffffffffffffffffffffffff1673ffffffffffffffffffffffffffffffffffffffff163373ffffffffffffffffffffffffffffffffffffffff1614612612576040517f08c379a000000000000000000000000000000000000000000000000000000000815260040161260990614af0565b60405180910390fd5b8585600160008373ffffffffffffffffffffffffffffffffffffffff1673ffffffffffffffffffffffffffffffffffffffff16815260200190815260200160002060008281526020019081526020016000206001015442106126a9576040517f08c379a00000000000000000000000000000000000000000000000000000000081526004016126a090614b70565b60405180910390fd5b8787600160008373ffffffffffffffffffffffffffffffffffffffff1673ffffffffffffffffffffffffffffffffffffffff168152602001908152602001600020600082815260200190815260200160002060040160009054906101000a900473ffffffffffffffffffffffffffffffffffffffff1673ffffffffffffffffffffffffffffffffffffffff16600073ffffffffffffffffffffffffffffffffffffffff161461278d576040517f08c379a000000000000000000000000000000000000000000000000000000000815260040161278490614bb0565b60405180910390fd5b6000600260008c73ffffffffffffffffffffffffffffffffffffffff1673ffffffffffffffffffffffffffffffffffffffff16815260200190815260200160002060008b8152602001908152602001600020819055508973ffffffffffffffffffffffffffffffffffffffff166342842e0e30338c6040518463ffffffff1660e01b8152600401612820939291906148a8565b600060405180830381600087803b15801561283a57600080fd5b505af115801561284e573d6000803e3d6000fd5b505050506007600560008c73ffffffffffffffffffffffffffffffffffffffff1673ffffffffffffffffffffffffffffffffffffffff16815260200190815260200160002060008b815260200190815260200160002054815481106128b6576128b5614e2f565b5b9060005260206000209060020201600080820160006101000a81549073ffffffffffffffffffffffffffffffffffffffff0219169055600182016000905550507fb9d411977d4ee731f87bb8f16eb6f8c1fb579cff684642052bf6084e6e33238d8a8a336040516129299392919061494d565b60405180910390a150505050505050505050565b612945613fa4565b6000808473ffffffffffffffffffffffffffffffffffffffff1673ffffffffffffffffffffffffffffffffffffffff16815260200190815260200160002060008381526020019081526020016000206040518060800160405290816000820160009054906101000a900473ffffffffffffffffffffffffffffffffffffffff1673ffffffffffffffffffffffffffffffffffffffff1673ffffffffffffffffffffffffffffffffffffffff1681526020016001820160009054906101000a900473ffffffffffffffffffffffffffffffffffffffff1673ffffffffffffffffffffffffffffffffffffffff1673ffffffffffffffffffffffffffffffffffffffff1681526020016002820160009054906101000a900473ffffffffffffffffffffffffffffffffffffffff1673ffffffffffffffffffffffffffffffffffffffff1673ffffffffffffffffffffffffffffffffffffffff168152602001600382015481525050905092915050565b60606006805480602002602001604051908101604052809291908181526020016000905b82821015612b6957838290600052602060002090600202016040518060400160405290816000820160009054906101000a900473ffffffffffffffffffffffffffffffffffffffff1673ffffffffffffffffffffffffffffffffffffffff1673ffffffffffffffffffffffffffffffffffffffff16815260200160018201548152505081526020019060010190612ad7565b50505050905090565b82826001600260008473ffffffffffffffffffffffffffffffffffffffff1673ffffffffffffffffffffffffffffffffffffffff16815260200190815260200160002060008381526020019081526020016000205414612c07576040517f08c379a0000000000000000000000000000000000000000000000000000000008152600401612bfe90614b10565b60405180910390fd5b8260008111612c4b576040517f08c379a0000000000000000000000000000000000000000000000000000000008152600401612c4290614ad0565b60405180910390fd5b8585856000808473ffffffffffffffffffffffffffffffffffffffff1673ffffffffffffffffffffffffffffffffffffffff168152602001908152602001600020600083815260200190815260200160002060030154811015612ce3576040517f08c379a0000000000000000000000000000000000000000000000000000000008152600401612cda90614c50565b60405180910390fd5b8873ffffffffffffffffffffffffffffffffffffffff166342842e0e30338b6040518463ffffffff1660e01b8152600401612d20939291906148a8565b600060405180830381600087803b158015612d3a57600080fd5b505af1158015612d4e573d6000803e3d6000fd5b505050506000600260008b73ffffffffffffffffffffffffffffffffffffffff1673ffffffffffffffffffffffffffffffffffffffff16815260200190815260200160002060008a8152602001908152602001600020819055506006600460008b73ffffffffffffffffffffffffffffffffffffffff1673ffffffffffffffffffffffffffffffffffffffff16815260200190815260200160002060008a81526020019081526020016000205481548110612e0c57612e0b614e2f565b5b9060005260206000209060020201600080820160006101000a81549073ffffffffffffffffffffffffffffffffffffffff021916905560018201600090555050336000808b73ffffffffffffffffffffffffffffffffffffffff1673ffffffffffffffffffffffffffffffffffffffff16815260200190815260200160002060008a815260200190815260200160002060010160006101000a81548173ffffffffffffffffffffffffffffffffffffffff021916908373ffffffffffffffffffffffffffffffffffffffff16021790555061301e6000808b73ffffffffffffffffffffffffffffffffffffffff1673ffffffffffffffffffffffffffffffffffffffff16815260200190815260200160002060008a815260200190815260200160002060000160009054906101000a900473ffffffffffffffffffffffffffffffffffffffff166000808c73ffffffffffffffffffffffffffffffffffffffff1673ffffffffffffffffffffffffffffffffffffffff16815260200190815260200160002060008b815260200190815260200160002060020160009054906101000a900473ffffffffffffffffffffffffffffffffffffffff166000808d73ffffffffffffffffffffffffffffffffffffffff1673ffffffffffffffffffffffffffffffffffffffff16815260200190815260200160002060008c815260200190815260200160002060030154613a2d565b7f9fa3b1bb9266e05722b54a7a564d02a274bc80d39f4af21e6be405480996ceba89338a8a60405161305394939291906148df565b60405180910390a1505050505050505050565b85848173ffffffffffffffffffffffffffffffffffffffff16636352211e826040518263ffffffff1660e01b81526004016130a19190614cc6565b60206040518083038186803b1580156130b957600080fd5b505afa1580156130cd573d6000803e3d6000fd5b505050506040513d601f19601f820116820180604052508101906130f191906140b8565b73ffffffffffffffffffffffffffffffffffffffff163373ffffffffffffffffffffffffffffffffffffffff161461315e576040517f08c379a000000000000000000000000000000000000000000000000000000000815260040161315590614c10565b60405180910390fd5b87866000600260008473ffffffffffffffffffffffffffffffffffffffff1673ffffffffffffffffffffffffffffffffffffffff168152602001908152602001600020600083815260200190815260200160002054146131f3576040517f08c379a00000000000000000000000000000000000000000000000000000000081526004016131ea90614b90565b60405180910390fd5b89888173ffffffffffffffffffffffffffffffffffffffff1663e985e9c533306040518363ffffffff1660e01b81526004016132309291906147af565b60206040518083038186803b15801561324857600080fd5b505afa15801561325c573d6000803e3d6000fd5b505050506040513d601f19601f820116820180604052508101906132809190614347565b6132bf576040517f08c379a00000000000000000000000000000000000000000000000000000000081526004016132b690614ab0565b60405180910390fd5b8660008111613303576040517f08c379a00000000000000000000000000000000000000000000000000000000081526004016132fa90614ad0565b60405180910390fd5b6133118d8d8d8d8d8d613a81565b600780549050600560008f73ffffffffffffffffffffffffffffffffffffffff1673ffffffffffffffffffffffffffffffffffffffff16815260200190815260200160002060008d815260200190815260200160002081905550600760405180604001604052808f73ffffffffffffffffffffffffffffffffffffffff1681526020018d815250908060018154018082558091505060019003906000526020600020906002020160009091909190915060008201518160000160006101000a81548173ffffffffffffffffffffffffffffffffffffffff021916908373ffffffffffffffffffffffffffffffffffffffff1602179055506020820151816001015550507fecbc6a097da08dbf6f781ce204aad454ce3dc8f112c51c7a56f1671de89cee8c8d338e8e8e8e8e60405161344f9796959493929190614839565b60405180910390a150505050505050505050505050565b81816001600260008473ffffffffffffffffffffffffffffffffffffffff1673ffffffffffffffffffffffffffffffffffffffff168152602001908152602001600020600083815260200190815260200160002054146134fb576040517f08c379a00000000000000000000000000000000000000000000000000000000081526004016134f290614b10565b60405180910390fd5b83836000808373ffffffffffffffffffffffffffffffffffffffff1673ffffffffffffffffffffffffffffffffffffffff168152602001908152602001600020600082815260200190815260200160002060000160009054906101000a900473ffffffffffffffffffffffffffffffffffffffff1673ffffffffffffffffffffffffffffffffffffffff163373ffffffffffffffffffffffffffffffffffffffff16146135dd576040517f08c379a00000000000000000000000000000000000000000000000000000000081526004016135d490614c10565b60405180910390fd5b8573ffffffffffffffffffffffffffffffffffffffff166342842e0e3033886040518463ffffffff1660e01b815260040161361a939291906148a8565b600060405180830381600087803b15801561363457600080fd5b505af1158015613648573d6000803e3d6000fd5b505050506000600260008873ffffffffffffffffffffffffffffffffffffffff1673ffffffffffffffffffffffffffffffffffffffff1681526020019081526020016000206000878152602001908152602001600020819055506006600460008873ffffffffffffffffffffffffffffffffffffffff1673ffffffffffffffffffffffffffffffffffffffff1681526020019081526020016000206000878152602001908152602001600020548154811061370657613705614e2f565b5b9060005260206000209060020201600080820160006101000a81549073ffffffffffffffffffffffffffffffffffffffff0219169055600182016000905550507fd7348ff00cf381a884144b50b3441398a48a7974ec349287df80e18cec9f5a31863387604051613779939291906148a8565b60405180910390a1505050505050565b8073ffffffffffffffffffffffffffffffffffffffff166323b872dd3330856040518463ffffffff1660e01b81526004016137c6939291906148a8565b602060405180830381600087803b1580156137e057600080fd5b505af11580156137f4573d6000803e3d6000fd5b505050506040513d601f19601f820116820180604052508101906138189190614347565b613857576040517f08c379a000000000000000000000000000000000000000000000000000000000815260040161384e90614bd0565b60405180910390fd5b5050565b600081836138699190614d36565b905092915050565b8373ffffffffffffffffffffffffffffffffffffffff166342842e0e3083866040518463ffffffff1660e01b81526004016138ae939291906148a8565b600060405180830381600087803b1580156138c857600080fd5b505af11580156138dc573d6000803e3d6000fd5b505050506000600260008673ffffffffffffffffffffffffffffffffffffffff1673ffffffffffffffffffffffffffffffffffffffff168152602001908152602001600020600085815260200190815260200160002081905550613a27600160008673ffffffffffffffffffffffffffffffffffffffff1673ffffffffffffffffffffffffffffffffffffffff168152602001908152602001600020600085815260200190815260200160002060050160009054906101000a900473ffffffffffffffffffffffffffffffffffffffff16600160008773ffffffffffffffffffffffffffffffffffffffff1673ffffffffffffffffffffffffffffffffffffffff168152602001908152602001600020600086815260200190815260200160002060060160009054906101000a900473ffffffffffffffffffffffffffffffffffffffff1684613a2d565b50505050565b600073ffffffffffffffffffffffffffffffffffffffff168273ffffffffffffffffffffffffffffffffffffffff1614613a7157613a6c838383613d13565b613a7c565b613a7b8382613e74565b5b505050565b6040518060e00160405280848152602001838152602001828152602001828152602001600073ffffffffffffffffffffffffffffffffffffffff1681526020013373ffffffffffffffffffffffffffffffffffffffff1681526020018673ffffffffffffffffffffffffffffffffffffffff16815250600160008873ffffffffffffffffffffffffffffffffffffffff1673ffffffffffffffffffffffffffffffffffffffff16815260200190815260200160002060008681526020019081526020016000206000820151816000015560208201518160010155604082015181600201556060820151816003015560808201518160040160006101000a81548173ffffffffffffffffffffffffffffffffffffffff021916908373ffffffffffffffffffffffffffffffffffffffff16021790555060a08201518160050160006101000a81548173ffffffffffffffffffffffffffffffffffffffff021916908373ffffffffffffffffffffffffffffffffffffffff16021790555060c08201518160060160006101000a81548173ffffffffffffffffffffffffffffffffffffffff021916908373ffffffffffffffffffffffffffffffffffffffff16021790555090505060028060008873ffffffffffffffffffffffffffffffffffffffff1673ffffffffffffffffffffffffffffffffffffffff1681526020019081526020016000206000868152602001908152602001600020819055508573ffffffffffffffffffffffffffffffffffffffff166342842e0e3330876040518463ffffffff1660e01b8152600401613cd9939291906148a8565b600060405180830381600087803b158015613cf357600080fd5b505af1158015613d07573d6000803e3d6000fd5b50505050505050505050565b8173ffffffffffffffffffffffffffffffffffffffff166323b872dd3330846040518463ffffffff1660e01b8152600401613d50939291906148a8565b602060405180830381600087803b158015613d6a57600080fd5b505af1158015613d7e573d6000803e3d6000fd5b505050506040513d601f19601f82011682018060405250810190613da29190614347565b613de1576040517f08c379a0000000000000000000000000000000000000000000000000000000008152600401613dd890614bd0565b60405180910390fd5b8173ffffffffffffffffffffffffffffffffffffffff1663a9059cbb84836040518363ffffffff1660e01b8152600401613e1c929190614924565b602060405180830381600087803b158015613e3657600080fd5b505af1158015613e4a573d6000803e3d6000fd5b505050506040513d601f19601f82011682018060405250810190613e6e9190614347565b50505050565b60008273ffffffffffffffffffffffffffffffffffffffff1682604051613e9a9061479a565b60006040518083038185875af1925050503d8060008114613ed7576040519150601f19603f3d011682016040523d82523d6000602084013e613edc565b606091505b5050905080613f20576040517f08c379a0000000000000000000000000000000000000000000000000000000008152600401613f1790614c70565b60405180910390fd5b505050565b6040518060e0016040528060008152602001600081526020016000815260200160008152602001600073ffffffffffffffffffffffffffffffffffffffff168152602001600073ffffffffffffffffffffffffffffffffffffffff168152602001600073ffffffffffffffffffffffffffffffffffffffff1681525090565b6040518060800160405280600073ffffffffffffffffffffffffffffffffffffffff168152602001600073ffffffffffffffffffffffffffffffffffffffff168152602001600073ffffffffffffffffffffffffffffffffffffffff168152602001600081525090565b60008135905061401d8161510a565b92915050565b6000815190506140328161510a565b92915050565b60008151905061404781615121565b92915050565b60008083601f84011261406357614062614e63565b5b8235905067ffffffffffffffff8111156140805761407f614e5e565b5b60208301915083600182028301111561409c5761409b614e68565b5b9250929050565b6000813590506140b281615138565b92915050565b6000602082840312156140ce576140cd614e72565b5b60006140dc84828501614023565b91505092915050565b60008060008060006080868803121561410157614100614e72565b5b600061410f8882890161400e565b95505060206141208882890161400e565b9450506040614131888289016140a3565b935050606086013567ffffffffffffffff81111561415257614151614e6d565b5b61415e8882890161404d565b92509250509295509295909350565b6000806000806080858703121561418757614186614e72565b5b60006141958782880161400e565b94505060206141a68782880161400e565b93505060406141b7878288016140a3565b92505060606141c8878288016140a3565b91505092959194509250565b60008060008060008060c087890312156141f1576141f0614e72565b5b60006141ff89828a0161400e565b965050602061421089828a0161400e565b955050604061422189828a016140a3565b945050606061423289828a016140a3565b935050608061424389828a016140a3565b92505060a061425489828a016140a3565b9150509295509295509295565b6000806040838503121561427857614277614e72565b5b60006142868582860161400e565b9250506020614297858286016140a3565b9150509250929050565b6000806000606084860312156142ba576142b9614e72565b5b60006142c88682870161400e565b93505060206142d9868287016140a3565b92505060406142ea8682870161400e565b9150509250925092565b60008060006060848603121561430d5761430c614e72565b5b600061431b8682870161400e565b935050602061432c868287016140a3565b925050604061433d868287016140a3565b9150509250925092565b60006020828403121561435d5761435c614e72565b5b600061436b84828501614038565b91505092915050565b6000614380838361474d565b60408301905092915050565b61439581614d8c565b82525050565b6143a481614d8c565b82525050565b60006143b582614cf1565b6143bf8185614d09565b93506143ca83614ce1565b8060005b838110156143fb5781516143e28882614374565b97506143ed83614cfc565b9250506001810190506143ce565b5085935050505092915050565b61441181614daa565b82525050565b6000614424601683614d25565b915061442f82614e77565b602082019050919050565b6000614447601c83614d25565b915061445282614ea0565b602082019050919050565b600061446a601183614d25565b915061447582614ec9565b602082019050919050565b600061448d600d83614d25565b915061449882614ef2565b602082019050919050565b60006144b0601583614d25565b91506144bb82614f1b565b602082019050919050565b60006144d3601783614d25565b91506144de82614f44565b602082019050919050565b60006144f6601d83614d25565b915061450182614f6d565b602082019050919050565b6000614519600b83614d25565b915061452482614f96565b602082019050919050565b600061453c601383614d25565b915061454782614fbf565b602082019050919050565b600061455f600883614d25565b915061456a82614fe8565b602082019050919050565b6000614582601483614d25565b915061458d82615011565b602082019050919050565b60006145a5600f83614d25565b91506145b08261503a565b602082019050919050565b60006145c8601583614d25565b91506145d382615063565b602082019050919050565b60006145eb600083614d1a565b91506145f68261508c565b600082019050919050565b600061460e601383614d25565b91506146198261508f565b602082019050919050565b6000614631601483614d25565b915061463c826150b8565b602082019050919050565b6000614654600d83614d25565b915061465f826150e1565b602082019050919050565b60e082016000820151614680600085018261477c565b506020820151614693602085018261477c565b5060408201516146a6604085018261477c565b5060608201516146b9606085018261477c565b5060808201516146cc608085018261438c565b5060a08201516146df60a085018261438c565b5060c08201516146f260c085018261438c565b50505050565b60808201600082015161470e600085018261438c565b506020820151614721602085018261438c565b506040820151614734604085018261438c565b506060820151614747606085018261477c565b50505050565b604082016000820151614763600085018261438c565b506020820151614776602085018261477c565b50505050565b61478581614df6565b82525050565b61479481614df6565b82525050565b60006147a5826145de565b9150819050919050565b60006040820190506147c4600083018561439b565b6147d1602083018461439b565b9392505050565b600060c0820190506147ed600083018961439b565b6147fa602083018861439b565b614807604083018761439b565b614814606083018661478b565b614821608083018561478b565b61482e60a083018461478b565b979650505050505050565b600060e08201905061484e600083018a61439b565b61485b602083018961439b565b614868604083018861439b565b614875606083018761478b565b614882608083018661478b565b61488f60a083018561478b565b61489c60c083018461478b565b98975050505050505050565b60006060820190506148bd600083018661439b565b6148ca602083018561439b565b6148d7604083018461478b565b949350505050565b60006080820190506148f4600083018761439b565b614901602083018661439b565b61490e604083018561478b565b61491b606083018461478b565b95945050505050565b6000604082019050614939600083018561439b565b614946602083018461478b565b9392505050565b6000606082019050614962600083018661439b565b61496f602083018561478b565b61497c604083018461439b565b949350505050565b600060a082019050614999600083018861439b565b6149a6602083018761478b565b6149b3604083018661439b565b6149c0606083018561478b565b6149cd608083018461439b565b9695505050505050565b60006060820190506149ec600083018661439b565b6149f9602083018561478b565b614a06604083018461478b565b949350505050565b6000608082019050614a23600083018761439b565b614a30602083018661478b565b614a3d604083018561478b565b614a4a606083018461439b565b95945050505050565b60006020820190508181036000830152614a6d81846143aa565b905092915050565b6000602082019050614a8a6000830184614408565b92915050565b60006020820190508181036000830152614aa981614417565b9050919050565b60006020820190508181036000830152614ac98161443a565b9050919050565b60006020820190508181036000830152614ae98161445d565b9050919050565b60006020820190508181036000830152614b0981614480565b9050919050565b60006020820190508181036000830152614b29816144a3565b9050919050565b60006020820190508181036000830152614b49816144c6565b9050919050565b60006020820190508181036000830152614b69816144e9565b9050919050565b60006020820190508181036000830152614b898161450c565b9050919050565b60006020820190508181036000830152614ba98161452f565b9050919050565b60006020820190508181036000830152614bc981614552565b9050919050565b60006020820190508181036000830152614be981614575565b9050919050565b60006020820190508181036000830152614c0981614598565b9050919050565b60006020820190508181036000830152614c29816145bb565b9050919050565b60006020820190508181036000830152614c4981614601565b9050919050565b60006020820190508181036000830152614c6981614624565b9050919050565b60006020820190508181036000830152614c8981614647565b9050919050565b600060e082019050614ca5600083018461466a565b92915050565b6000608082019050614cc060008301846146f8565b92915050565b6000602082019050614cdb600083018461478b565b92915050565b6000819050602082019050919050565b600081519050919050565b6000602082019050919050565b600082825260208201905092915050565b600081905092915050565b600082825260208201905092915050565b6000614d4182614df6565b9150614d4c83614df6565b9250827fffffffffffffffffffffffffffffffffffffffffffffffffffffffffffffffff03821115614d8157614d80614e00565b5b828201905092915050565b6000614d9782614dd6565b9050919050565b60008115159050919050565b60007fffffffff0000000000000000000000000000000000000000000000000000000082169050919050565b600073ffffffffffffffffffffffffffffffffffffffff82169050919050565b6000819050919050565b7f4e487b7100000000000000000000000000000000000000000000000000000000600052601160045260246000fd5b7f4e487b7100000000000000000000000000000000000000000000000000000000600052603260045260246000fd5b600080fd5b600080fd5b600080fd5b600080fd5b600080fd5b7f596f752061726520686967686573742062696464657200000000000000000000600082015250565b7f4e6674206e6f7420617070726f76656420746f20636f6e747261637400000000600082015250565b7f50726963652063616e6e6f742062652030000000000000000000000000000000600082015250565b7f6e6f74206e6674206f776e657200000000000000000000000000000000000000600082015250565b7f4e6674206e6f7420696e2066697865642073616c650000000000000000000000600082015250565b7f4e6674206e6f7420696e2061756374696f6e2073616c65000000000000000000600082015250565b7f4269642047726561746572207468616e2050726576696f757320426964000000600082015250565b7f41756374696f6e20656e64000000000000000000000000000000000000000000600082015250565b7f4e667420616c726561647920696e2073616c6500000000000000000000000000600082015250565b7f626964206d616b65000000000000000000000000000000000000000000000000600082015250565b7f616c6c6f77616e6365206e6f7420656e6f756768000000000000000000000000600082015250565b7f41756374696f6e206e6f7420656e640000000000000000000000000000000000600082015250565b7f596f7520617265206e6f74206e6674206f776e65720000000000000000000000600082015250565b50565b7f6e6f7468696e6720746f20776974686472617700000000000000000000000000600082015250565b7f627579205072696365206e6f7420656e6f756768000000000000000000000000600082015250565b7f726566756e64206661696c656400000000000000000000000000000000000000600082015250565b61511381614d8c565b811461511e57600080fd5b50565b61512a81614d9e565b811461513557600080fd5b50565b61514181614df6565b811461514c57600080fd5b5056fea264697066735822122073652be7eb4d9c73941e9e4c95c227b3ac36b711cfbb53937fe9a14b4ded651e64736f6c63430008070033",
					"opcodes": "PUSH1 0x80 PUSH1 0x40 MSTORE CALLVALUE DUP1 ISZERO PUSH2 0x10 JUMPI PUSH1 0x0 DUP1 REVERT JUMPDEST POP PUSH2 0x5185 DUP1 PUSH2 0x20 PUSH1 0x0 CODECOPY PUSH1 0x0 RETURN INVALID PUSH1 0x80 PUSH1 0x40 MSTORE PUSH1 0x4 CALLDATASIZE LT PUSH2 0x102 JUMPI PUSH1 0x0 CALLDATALOAD PUSH1 0xE0 SHR DUP1 PUSH4 0x69A6D12E GT PUSH2 0x95 JUMPI DUP1 PUSH4 0x8C3417DA GT PUSH2 0x64 JUMPI DUP1 PUSH4 0x8C3417DA EQ PUSH2 0x332 JUMPI DUP1 PUSH4 0x9F085A00 EQ PUSH2 0x36F JUMPI DUP1 PUSH4 0xBAF4371E EQ PUSH2 0x39A JUMPI DUP1 PUSH4 0xCF42B7E6 EQ PUSH2 0x3B6 JUMPI DUP1 PUSH4 0xD3A6A6C9 EQ PUSH2 0x3DF JUMPI PUSH2 0x109 JUMP JUMPDEST DUP1 PUSH4 0x69A6D12E EQ PUSH2 0x266 JUMPI DUP1 PUSH4 0x6F8C9B1B EQ PUSH2 0x28F JUMPI DUP1 PUSH4 0x6FE02F24 EQ PUSH2 0x2CC JUMPI DUP1 PUSH4 0x842BC46A EQ PUSH2 0x309 JUMPI PUSH2 0x109 JUMP JUMPDEST DUP1 PUSH4 0x4676ADCA GT PUSH2 0xD1 JUMPI DUP1 PUSH4 0x4676ADCA EQ PUSH2 0x1AE JUMPI DUP1 PUSH4 0x4CB8EF5B EQ PUSH2 0x1D7 JUMPI DUP1 PUSH4 0x5138B08C EQ PUSH2 0x200 JUMPI DUP1 PUSH4 0x6916462F EQ PUSH2 0x229 JUMPI PUSH2 0x109 JUMP JUMPDEST DUP1 PUSH4 0x150B7A02 EQ PUSH2 0x10E JUMPI DUP1 PUSH4 0x1BDAE6F1 EQ PUSH2 0x14B JUMPI DUP1 PUSH4 0x1E7A044F EQ PUSH2 0x167 JUMPI DUP1 PUSH4 0x3A713DB8 EQ PUSH2 0x192 JUMPI PUSH2 0x109 JUMP JUMPDEST CALLDATASIZE PUSH2 0x109 JUMPI STOP JUMPDEST PUSH1 0x0 DUP1 REVERT JUMPDEST CALLVALUE DUP1 ISZERO PUSH2 0x11A JUMPI PUSH1 0x0 DUP1 REVERT JUMPDEST POP PUSH2 0x135 PUSH1 0x4 DUP1 CALLDATASIZE SUB DUP2 ADD SWAP1 PUSH2 0x130 SWAP2 SWAP1 PUSH2 0x40E5 JUMP JUMPDEST PUSH2 0x408 JUMP JUMPDEST PUSH1 0x40 MLOAD PUSH2 0x142 SWAP2 SWAP1 PUSH2 0x4A75 JUMP JUMPDEST PUSH1 0x40 MLOAD DUP1 SWAP2 SUB SWAP1 RETURN JUMPDEST PUSH2 0x165 PUSH1 0x4 DUP1 CALLDATASIZE SUB DUP2 ADD SWAP1 PUSH2 0x160 SWAP2 SWAP1 PUSH2 0x42F4 JUMP JUMPDEST PUSH2 0x41D JUMP JUMPDEST STOP JUMPDEST CALLVALUE DUP1 ISZERO PUSH2 0x173 JUMPI PUSH1 0x0 DUP1 REVERT JUMPDEST POP PUSH2 0x17C PUSH2 0xA54 JUMP JUMPDEST PUSH1 0x40 MLOAD PUSH2 0x189 SWAP2 SWAP1 PUSH2 0x4A53 JUMP JUMPDEST PUSH1 0x40 MLOAD DUP1 SWAP2 SUB SWAP1 RETURN JUMPDEST PUSH2 0x1AC PUSH1 0x4 DUP1 CALLDATASIZE SUB DUP2 ADD SWAP1 PUSH2 0x1A7 SWAP2 SWAP1 PUSH2 0x42F4 JUMP JUMPDEST PUSH2 0xB13 JUMP JUMPDEST STOP JUMPDEST CALLVALUE DUP1 ISZERO PUSH2 0x1BA JUMPI PUSH1 0x0 DUP1 REVERT JUMPDEST POP PUSH2 0x1D5 PUSH1 0x4 DUP1 CALLDATASIZE SUB DUP2 ADD SWAP1 PUSH2 0x1D0 SWAP2 SWAP1 PUSH2 0x42F4 JUMP JUMPDEST PUSH2 0x12AC JUMP JUMPDEST STOP JUMPDEST CALLVALUE DUP1 ISZERO PUSH2 0x1E3 JUMPI PUSH1 0x0 DUP1 REVERT JUMPDEST POP PUSH2 0x1FE PUSH1 0x4 DUP1 CALLDATASIZE SUB DUP2 ADD SWAP1 PUSH2 0x1F9 SWAP2 SWAP1 PUSH2 0x4261 JUMP JUMPDEST PUSH2 0x1503 JUMP JUMPDEST STOP JUMPDEST CALLVALUE DUP1 ISZERO PUSH2 0x20C JUMPI PUSH1 0x0 DUP1 REVERT JUMPDEST POP PUSH2 0x227 PUSH1 0x4 DUP1 CALLDATASIZE SUB DUP2 ADD SWAP1 PUSH2 0x222 SWAP2 SWAP1 PUSH2 0x4261 JUMP JUMPDEST PUSH2 0x1820 JUMP JUMPDEST STOP JUMPDEST CALLVALUE DUP1 ISZERO PUSH2 0x235 JUMPI PUSH1 0x0 DUP1 REVERT JUMPDEST POP PUSH2 0x250 PUSH1 0x4 DUP1 CALLDATASIZE SUB DUP2 ADD SWAP1 PUSH2 0x24B SWAP2 SWAP1 PUSH2 0x4261 JUMP JUMPDEST PUSH2 0x1C67 JUMP JUMPDEST PUSH1 0x40 MLOAD PUSH2 0x25D SWAP2 SWAP1 PUSH2 0x4CC6 JUMP JUMPDEST PUSH1 0x40 MLOAD DUP1 SWAP2 SUB SWAP1 RETURN JUMPDEST CALLVALUE DUP1 ISZERO PUSH2 0x272 JUMPI PUSH1 0x0 DUP1 REVERT JUMPDEST POP PUSH2 0x28D PUSH1 0x4 DUP1 CALLDATASIZE SUB DUP2 ADD SWAP1 PUSH2 0x288 SWAP2 SWAP1 PUSH2 0x416D JUMP JUMPDEST PUSH2 0x1C8C JUMP JUMPDEST STOP JUMPDEST CALLVALUE DUP1 ISZERO PUSH2 0x29B JUMPI PUSH1 0x0 DUP1 REVERT JUMPDEST POP PUSH2 0x2B6 PUSH1 0x4 DUP1 CALLDATASIZE SUB DUP2 ADD SWAP1 PUSH2 0x2B1 SWAP2 SWAP1 PUSH2 0x4261 JUMP JUMPDEST PUSH2 0x22D4 JUMP JUMPDEST PUSH1 0x40 MLOAD PUSH2 0x2C3 SWAP2 SWAP1 PUSH2 0x4C90 JUMP JUMPDEST PUSH1 0x40 MLOAD DUP1 SWAP2 SUB SWAP1 RETURN JUMPDEST CALLVALUE DUP1 ISZERO PUSH2 0x2D8 JUMPI PUSH1 0x0 DUP1 REVERT JUMPDEST POP PUSH2 0x2F3 PUSH1 0x4 DUP1 CALLDATASIZE SUB DUP2 ADD SWAP1 PUSH2 0x2EE SWAP2 SWAP1 PUSH2 0x42A1 JUMP JUMPDEST PUSH2 0x2469 JUMP JUMPDEST PUSH1 0x40 MLOAD PUSH2 0x300 SWAP2 SWAP1 PUSH2 0x4CC6 JUMP JUMPDEST PUSH1 0x40 MLOAD DUP1 SWAP2 SUB SWAP1 RETURN JUMPDEST CALLVALUE DUP1 ISZERO PUSH2 0x315 JUMPI PUSH1 0x0 DUP1 REVERT JUMPDEST POP PUSH2 0x330 PUSH1 0x4 DUP1 CALLDATASIZE SUB DUP2 ADD SWAP1 PUSH2 0x32B SWAP2 SWAP1 PUSH2 0x4261 JUMP JUMPDEST PUSH2 0x249B JUMP JUMPDEST STOP JUMPDEST CALLVALUE DUP1 ISZERO PUSH2 0x33E JUMPI PUSH1 0x0 DUP1 REVERT JUMPDEST POP PUSH2 0x359 PUSH1 0x4 DUP1 CALLDATASIZE SUB DUP2 ADD SWAP1 PUSH2 0x354 SWAP2 SWAP1 PUSH2 0x4261 JUMP JUMPDEST PUSH2 0x293D JUMP JUMPDEST PUSH1 0x40 MLOAD PUSH2 0x366 SWAP2 SWAP1 PUSH2 0x4CAB JUMP JUMPDEST PUSH1 0x40 MLOAD DUP1 SWAP2 SUB SWAP1 RETURN JUMPDEST CALLVALUE DUP1 ISZERO PUSH2 0x37B JUMPI PUSH1 0x0 DUP1 REVERT JUMPDEST POP PUSH2 0x384 PUSH2 0x2AB3 JUMP JUMPDEST PUSH1 0x40 MLOAD PUSH2 0x391 SWAP2 SWAP1 PUSH2 0x4A53 JUMP JUMPDEST PUSH1 0x40 MLOAD DUP1 SWAP2 SUB SWAP1 RETURN JUMPDEST PUSH2 0x3B4 PUSH1 0x4 DUP1 CALLDATASIZE SUB DUP2 ADD SWAP1 PUSH2 0x3AF SWAP2 SWAP1 PUSH2 0x42F4 JUMP JUMPDEST PUSH2 0x2B72 JUMP JUMPDEST STOP JUMPDEST CALLVALUE DUP1 ISZERO PUSH2 0x3C2 JUMPI PUSH1 0x0 DUP1 REVERT JUMPDEST POP PUSH2 0x3DD PUSH1 0x4 DUP1 CALLDATASIZE SUB DUP2 ADD SWAP1 PUSH2 0x3D8 SWAP2 SWAP1 PUSH2 0x41D4 JUMP JUMPDEST PUSH2 0x3066 JUMP JUMPDEST STOP JUMPDEST CALLVALUE DUP1 ISZERO PUSH2 0x3EB JUMPI PUSH1 0x0 DUP1 REVERT JUMPDEST POP PUSH2 0x406 PUSH1 0x4 DUP1 CALLDATASIZE SUB DUP2 ADD SWAP1 PUSH2 0x401 SWAP2 SWAP1 PUSH2 0x4261 JUMP JUMPDEST PUSH2 0x3466 JUMP JUMPDEST STOP JUMPDEST PUSH1 0x0 PUSH4 0x150B7A02 PUSH1 0xE0 SHL SWAP1 POP SWAP6 SWAP5 POP POP POP POP POP JUMP JUMPDEST DUP3 DUP3 PUSH1 0x2 DUP1 PUSH1 0x0 DUP5 PUSH20 0xFFFFFFFFFFFFFFFFFFFFFFFFFFFFFFFFFFFFFFFF AND PUSH20 0xFFFFFFFFFFFFFFFFFFFFFFFFFFFFFFFFFFFFFFFF AND DUP2 MSTORE PUSH1 0x20 ADD SWAP1 DUP2 MSTORE PUSH1 0x20 ADD PUSH1 0x0 KECCAK256 PUSH1 0x0 DUP4 DUP2 MSTORE PUSH1 0x20 ADD SWAP1 DUP2 MSTORE PUSH1 0x20 ADD PUSH1 0x0 KECCAK256 SLOAD EQ PUSH2 0x4B1 JUMPI PUSH1 0x40 MLOAD PUSH32 0x8C379A000000000000000000000000000000000000000000000000000000000 DUP2 MSTORE PUSH1 0x4 ADD PUSH2 0x4A8 SWAP1 PUSH2 0x4B30 JUMP JUMPDEST PUSH1 0x40 MLOAD DUP1 SWAP2 SUB SWAP1 REVERT JUMPDEST DUP5 DUP5 PUSH1 0x1 PUSH1 0x0 DUP4 PUSH20 0xFFFFFFFFFFFFFFFFFFFFFFFFFFFFFFFFFFFFFFFF AND PUSH20 0xFFFFFFFFFFFFFFFFFFFFFFFFFFFFFFFFFFFFFFFF AND DUP2 MSTORE PUSH1 0x20 ADD SWAP1 DUP2 MSTORE PUSH1 0x20 ADD PUSH1 0x0 KECCAK256 PUSH1 0x0 DUP3 DUP2 MSTORE PUSH1 0x20 ADD SWAP1 DUP2 MSTORE PUSH1 0x20 ADD PUSH1 0x0 KECCAK256 PUSH1 0x1 ADD SLOAD TIMESTAMP LT PUSH2 0x548 JUMPI PUSH1 0x40 MLOAD PUSH32 0x8C379A000000000000000000000000000000000000000000000000000000000 DUP2 MSTORE PUSH1 0x4 ADD PUSH2 0x53F SWAP1 PUSH2 0x4B70 JUMP JUMPDEST PUSH1 0x40 MLOAD DUP1 SWAP2 SUB SWAP1 REVERT JUMPDEST DUP5 PUSH1 0x0 DUP2 GT PUSH2 0x58C JUMPI PUSH1 0x40 MLOAD PUSH32 0x8C379A000000000000000000000000000000000000000000000000000000000 DUP2 MSTORE PUSH1 0x4 ADD PUSH2 0x583 SWAP1 PUSH2 0x4AD0 JUMP JUMPDEST PUSH1 0x40 MLOAD DUP1 SWAP2 SUB SWAP1 REVERT JUMPDEST DUP8 DUP8 CALLVALUE DUP9 PUSH1 0x0 PUSH20 0xFFFFFFFFFFFFFFFFFFFFFFFFFFFFFFFFFFFFFFFF AND PUSH1 0x1 PUSH1 0x0 DUP7 PUSH20 0xFFFFFFFFFFFFFFFFFFFFFFFFFFFFFFFFFFFFFFFF AND PUSH20 0xFFFFFFFFFFFFFFFFFFFFFFFFFFFFFFFFFFFFFFFF AND DUP2 MSTORE PUSH1 0x20 ADD SWAP1 DUP2 MSTORE PUSH1 0x20 ADD PUSH1 0x0 KECCAK256 PUSH1 0x0 DUP6 DUP2 MSTORE PUSH1 0x20 ADD SWAP1 DUP2 MSTORE PUSH1 0x20 ADD PUSH1 0x0 KECCAK256 PUSH1 0x6 ADD PUSH1 0x0 SWAP1 SLOAD SWAP1 PUSH2 0x100 EXP SWAP1 DIV PUSH20 0xFFFFFFFFFFFFFFFFFFFFFFFFFFFFFFFFFFFFFFFF AND PUSH20 0xFFFFFFFFFFFFFFFFFFFFFFFFFFFFFFFFFFFFFFFF AND EQ ISZERO PUSH2 0x6D2 JUMPI PUSH1 0x1 PUSH1 0x0 DUP6 PUSH20 0xFFFFFFFFFFFFFFFFFFFFFFFFFFFFFFFFFFFFFFFF AND PUSH20 0xFFFFFFFFFFFFFFFFFFFFFFFFFFFFFFFFFFFFFFFF AND DUP2 MSTORE PUSH1 0x20 ADD SWAP1 DUP2 MSTORE PUSH1 0x20 ADD PUSH1 0x0 KECCAK256 PUSH1 0x0 DUP5 DUP2 MSTORE PUSH1 0x20 ADD SWAP1 DUP2 MSTORE PUSH1 0x20 ADD PUSH1 0x0 KECCAK256 PUSH1 0x3 ADD SLOAD DUP3 GT PUSH2 0x6CD JUMPI PUSH1 0x40 MLOAD PUSH32 0x8C379A000000000000000000000000000000000000000000000000000000000 DUP2 MSTORE PUSH1 0x4 ADD PUSH2 0x6C4 SWAP1 PUSH2 0x4B50 JUMP JUMPDEST PUSH1 0x40 MLOAD DUP1 SWAP2 SUB SWAP1 REVERT JUMPDEST PUSH2 0x768 JUMP JUMPDEST PUSH1 0x1 PUSH1 0x0 DUP6 PUSH20 0xFFFFFFFFFFFFFFFFFFFFFFFFFFFFFFFFFFFFFFFF AND PUSH20 0xFFFFFFFFFFFFFFFFFFFFFFFFFFFFFFFFFFFFFFFF AND DUP2 MSTORE PUSH1 0x20 ADD SWAP1 DUP2 MSTORE PUSH1 0x20 ADD PUSH1 0x0 KECCAK256 PUSH1 0x0 DUP5 DUP2 MSTORE PUSH1 0x20 ADD SWAP1 DUP2 MSTORE PUSH1 0x20 ADD PUSH1 0x0 KECCAK256 PUSH1 0x3 ADD SLOAD DUP2 GT PUSH2 0x767 JUMPI PUSH1 0x40 MLOAD PUSH32 0x8C379A000000000000000000000000000000000000000000000000000000000 DUP2 MSTORE PUSH1 0x4 ADD PUSH2 0x75E SWAP1 PUSH2 0x4B50 JUMP JUMPDEST PUSH1 0x40 MLOAD DUP1 SWAP2 SUB SWAP1 REVERT JUMPDEST JUMPDEST PUSH1 0x0 PUSH20 0xFFFFFFFFFFFFFFFFFFFFFFFFFFFFFFFFFFFFFFFF AND PUSH1 0x1 PUSH1 0x0 DUP15 PUSH20 0xFFFFFFFFFFFFFFFFFFFFFFFFFFFFFFFFFFFFFFFF AND PUSH20 0xFFFFFFFFFFFFFFFFFFFFFFFFFFFFFFFFFFFFFFFF AND DUP2 MSTORE PUSH1 0x20 ADD SWAP1 DUP2 MSTORE PUSH1 0x20 ADD PUSH1 0x0 KECCAK256 PUSH1 0x0 DUP14 DUP2 MSTORE PUSH1 0x20 ADD SWAP1 DUP2 MSTORE PUSH1 0x20 ADD PUSH1 0x0 KECCAK256 PUSH1 0x6 ADD PUSH1 0x0 SWAP1 SLOAD SWAP1 PUSH2 0x100 EXP SWAP1 DIV PUSH20 0xFFFFFFFFFFFFFFFFFFFFFFFFFFFFFFFFFFFFFFFF AND PUSH20 0xFFFFFFFFFFFFFFFFFFFFFFFFFFFFFFFFFFFFFFFF AND EQ PUSH2 0x88D JUMPI PUSH2 0x88C DUP11 PUSH1 0x1 PUSH1 0x0 DUP16 PUSH20 0xFFFFFFFFFFFFFFFFFFFFFFFFFFFFFFFFFFFFFFFF AND PUSH20 0xFFFFFFFFFFFFFFFFFFFFFFFFFFFFFFFFFFFFFFFF AND DUP2 MSTORE PUSH1 0x20 ADD SWAP1 DUP2 MSTORE PUSH1 0x20 ADD PUSH1 0x0 KECCAK256 PUSH1 0x0 DUP15 DUP2 MSTORE PUSH1 0x20 ADD SWAP1 DUP2 MSTORE PUSH1 0x20 ADD PUSH1 0x0 KECCAK256 PUSH1 0x6 ADD PUSH1 0x0 SWAP1 SLOAD SWAP1 PUSH2 0x100 EXP SWAP1 DIV PUSH20 0xFFFFFFFFFFFFFFFFFFFFFFFFFFFFFFFFFFFFFFFF AND PUSH2 0x3789 JUMP JUMPDEST JUMPDEST DUP10 PUSH1 0x1 PUSH1 0x0 DUP15 PUSH20 0xFFFFFFFFFFFFFFFFFFFFFFFFFFFFFFFFFFFFFFFF AND PUSH20 0xFFFFFFFFFFFFFFFFFFFFFFFFFFFFFFFFFFFFFFFF AND DUP2 MSTORE PUSH1 0x20 ADD SWAP1 DUP2 MSTORE PUSH1 0x20 ADD PUSH1 0x0 KECCAK256 PUSH1 0x0 DUP14 DUP2 MSTORE PUSH1 0x20 ADD SWAP1 DUP2 MSTORE PUSH1 0x20 ADD PUSH1 0x0 KECCAK256 PUSH1 0x3 ADD DUP2 SWAP1 SSTORE POP CALLER PUSH1 0x1 PUSH1 0x0 DUP15 PUSH20 0xFFFFFFFFFFFFFFFFFFFFFFFFFFFFFFFFFFFFFFFF AND PUSH20 0xFFFFFFFFFFFFFFFFFFFFFFFFFFFFFFFFFFFFFFFF AND DUP2 MSTORE PUSH1 0x20 ADD SWAP1 DUP2 MSTORE PUSH1 0x20 ADD PUSH1 0x0 KECCAK256 PUSH1 0x0 DUP14 DUP2 MSTORE PUSH1 0x20 ADD SWAP1 DUP2 MSTORE PUSH1 0x20 ADD PUSH1 0x0 KECCAK256 PUSH1 0x4 ADD PUSH1 0x0 PUSH2 0x100 EXP DUP2 SLOAD DUP2 PUSH20 0xFFFFFFFFFFFFFFFFFFFFFFFFFFFFFFFFFFFFFFFF MUL NOT AND SWAP1 DUP4 PUSH20 0xFFFFFFFFFFFFFFFFFFFFFFFFFFFFFFFFFFFFFFFF AND MUL OR SWAP1 SSTORE POP DUP10 PUSH1 0x3 PUSH1 0x0 DUP15 PUSH20 0xFFFFFFFFFFFFFFFFFFFFFFFFFFFFFFFFFFFFFFFF AND PUSH20 0xFFFFFFFFFFFFFFFFFFFFFFFFFFFFFFFFFFFFFFFF AND DUP2 MSTORE PUSH1 0x20 ADD SWAP1 DUP2 MSTORE PUSH1 0x20 ADD PUSH1 0x0 KECCAK256 PUSH1 0x0 DUP14 DUP2 MSTORE PUSH1 0x20 ADD SWAP1 DUP2 MSTORE PUSH1 0x20 ADD PUSH1 0x0 KECCAK256 PUSH1 0x0 CALLER PUSH20 0xFFFFFFFFFFFFFFFFFFFFFFFFFFFFFFFFFFFFFFFF AND PUSH20 0xFFFFFFFFFFFFFFFFFFFFFFFFFFFFFFFFFFFFFFFF AND DUP2 MSTORE PUSH1 0x20 ADD SWAP1 DUP2 MSTORE PUSH1 0x20 ADD PUSH1 0x0 KECCAK256 DUP2 SWAP1 SSTORE POP PUSH32 0xD56CB6210C78740462007B728932C802BC41B205ED5C8A98AB95421EAF054B22 DUP13 DUP13 DUP13 CALLER PUSH1 0x40 MLOAD PUSH2 0xA3E SWAP5 SWAP4 SWAP3 SWAP2 SWAP1 PUSH2 0x4A0E JUMP JUMPDEST PUSH1 0x40 MLOAD DUP1 SWAP2 SUB SWAP1 LOG1 POP POP POP POP POP POP POP POP POP POP POP POP JUMP JUMPDEST PUSH1 0x60 PUSH1 0x7 DUP1 SLOAD DUP1 PUSH1 0x20 MUL PUSH1 0x20 ADD PUSH1 0x40 MLOAD SWAP1 DUP2 ADD PUSH1 0x40 MSTORE DUP1 SWAP3 SWAP2 SWAP1 DUP2 DUP2 MSTORE PUSH1 0x20 ADD PUSH1 0x0 SWAP1 JUMPDEST DUP3 DUP3 LT ISZERO PUSH2 0xB0A JUMPI DUP4 DUP3 SWAP1 PUSH1 0x0 MSTORE PUSH1 0x20 PUSH1 0x0 KECCAK256 SWAP1 PUSH1 0x2 MUL ADD PUSH1 0x40 MLOAD DUP1 PUSH1 0x40 ADD PUSH1 0x40 MSTORE SWAP1 DUP2 PUSH1 0x0 DUP3 ADD PUSH1 0x0 SWAP1 SLOAD SWAP1 PUSH2 0x100 EXP SWAP1 DIV PUSH20 0xFFFFFFFFFFFFFFFFFFFFFFFFFFFFFFFFFFFFFFFF AND PUSH20 0xFFFFFFFFFFFFFFFFFFFFFFFFFFFFFFFFFFFFFFFF AND PUSH20 0xFFFFFFFFFFFFFFFFFFFFFFFFFFFFFFFFFFFFFFFF AND DUP2 MSTORE PUSH1 0x20 ADD PUSH1 0x1 DUP3 ADD SLOAD DUP2 MSTORE POP POP DUP2 MSTORE PUSH1 0x20 ADD SWAP1 PUSH1 0x1 ADD SWAP1 PUSH2 0xA78 JUMP JUMPDEST POP POP POP POP SWAP1 POP SWAP1 JUMP JUMPDEST DUP3 DUP3 PUSH1 0x2 DUP1 PUSH1 0x0 DUP5 PUSH20 0xFFFFFFFFFFFFFFFFFFFFFFFFFFFFFFFFFFFFFFFF AND PUSH20 0xFFFFFFFFFFFFFFFFFFFFFFFFFFFFFFFFFFFFFFFF AND DUP2 MSTORE PUSH1 0x20 ADD SWAP1 DUP2 MSTORE PUSH1 0x20 ADD PUSH1 0x0 KECCAK256 PUSH1 0x0 DUP4 DUP2 MSTORE PUSH1 0x20 ADD SWAP1 DUP2 MSTORE PUSH1 0x20 ADD PUSH1 0x0 KECCAK256 SLOAD EQ PUSH2 0xBA7 JUMPI PUSH1 0x40 MLOAD PUSH32 0x8C379A000000000000000000000000000000000000000000000000000000000 DUP2 MSTORE PUSH1 0x4 ADD PUSH2 0xB9E SWAP1 PUSH2 0x4B30 JUMP JUMPDEST PUSH1 0x40 MLOAD DUP1 SWAP2 SUB SWAP1 REVERT JUMPDEST DUP5 DUP5 PUSH1 0x1 PUSH1 0x0 DUP4 PUSH20 0xFFFFFFFFFFFFFFFFFFFFFFFFFFFFFFFFFFFFFFFF AND PUSH20 0xFFFFFFFFFFFFFFFFFFFFFFFFFFFFFFFFFFFFFFFF AND DUP2 MSTORE PUSH1 0x20 ADD SWAP1 DUP2 MSTORE PUSH1 0x20 ADD PUSH1 0x0 KECCAK256 PUSH1 0x0 DUP3 DUP2 MSTORE PUSH1 0x20 ADD SWAP1 DUP2 MSTORE PUSH1 0x20 ADD PUSH1 0x0 KECCAK256 PUSH1 0x1 ADD SLOAD TIMESTAMP LT PUSH2 0xC3E JUMPI PUSH1 0x40 MLOAD PUSH32 0x8C379A000000000000000000000000000000000000000000000000000000000 DUP2 MSTORE PUSH1 0x4 ADD PUSH2 0xC35 SWAP1 PUSH2 0x4B70 JUMP JUMPDEST PUSH1 0x40 MLOAD DUP1 SWAP2 SUB SWAP1 REVERT JUMPDEST CALLVALUE PUSH1 0x0 DUP2 GT PUSH2 0xC82 JUMPI PUSH1 0x40 MLOAD PUSH32 0x8C379A000000000000000000000000000000000000000000000000000000000 DUP2 MSTORE PUSH1 0x4 ADD PUSH2 0xC79 SWAP1 PUSH2 0x4AD0 JUMP JUMPDEST PUSH1 0x40 MLOAD DUP1 SWAP2 SUB SWAP1 REVERT JUMPDEST DUP8 DUP8 CALLVALUE DUP9 PUSH1 0x0 DUP1 PUSH20 0xFFFFFFFFFFFFFFFFFFFFFFFFFFFFFFFFFFFFFFFF AND PUSH1 0x1 PUSH1 0x0 DUP8 PUSH20 0xFFFFFFFFFFFFFFFFFFFFFFFFFFFFFFFFFFFFFFFF AND PUSH20 0xFFFFFFFFFFFFFFFFFFFFFFFFFFFFFFFFFFFFFFFF AND DUP2 MSTORE PUSH1 0x20 ADD SWAP1 DUP2 MSTORE PUSH1 0x20 ADD PUSH1 0x0 KECCAK256 PUSH1 0x0 DUP7 DUP2 MSTORE PUSH1 0x20 ADD SWAP1 DUP2 MSTORE PUSH1 0x20 ADD PUSH1 0x0 KECCAK256 PUSH1 0x6 ADD PUSH1 0x0 SWAP1 SLOAD SWAP1 PUSH2 0x100 EXP SWAP1 DIV PUSH20 0xFFFFFFFFFFFFFFFFFFFFFFFFFFFFFFFFFFFFFFFF AND PUSH20 0xFFFFFFFFFFFFFFFFFFFFFFFFFFFFFFFFFFFFFFFF AND EQ ISZERO PUSH2 0xDD6 JUMPI PUSH2 0xDCF DUP4 PUSH1 0x3 PUSH1 0x0 DUP9 PUSH20 0xFFFFFFFFFFFFFFFFFFFFFFFFFFFFFFFFFFFFFFFF AND PUSH20 0xFFFFFFFFFFFFFFFFFFFFFFFFFFFFFFFFFFFFFFFF AND DUP2 MSTORE PUSH1 0x20 ADD SWAP1 DUP2 MSTORE PUSH1 0x20 ADD PUSH1 0x0 KECCAK256 PUSH1 0x0 DUP8 DUP2 MSTORE PUSH1 0x20 ADD SWAP1 DUP2 MSTORE PUSH1 0x20 ADD PUSH1 0x0 KECCAK256 PUSH1 0x0 CALLER PUSH20 0xFFFFFFFFFFFFFFFFFFFFFFFFFFFFFFFFFFFFFFFF AND PUSH20 0xFFFFFFFFFFFFFFFFFFFFFFFFFFFFFFFFFFFFFFFF AND DUP2 MSTORE PUSH1 0x20 ADD SWAP1 DUP2 MSTORE PUSH1 0x20 ADD PUSH1 0x0 KECCAK256 SLOAD PUSH2 0x385B SWAP1 SWAP2 SWAP1 PUSH4 0xFFFFFFFF AND JUMP JUMPDEST SWAP1 POP PUSH2 0xE79 JUMP JUMPDEST PUSH2 0xE76 DUP3 PUSH1 0x3 PUSH1 0x0 DUP9 PUSH20 0xFFFFFFFFFFFFFFFFFFFFFFFFFFFFFFFFFFFFFFFF AND PUSH20 0xFFFFFFFFFFFFFFFFFFFFFFFFFFFFFFFFFFFFFFFF AND DUP2 MSTORE PUSH1 0x20 ADD SWAP1 DUP2 MSTORE PUSH1 0x20 ADD PUSH1 0x0 KECCAK256 PUSH1 0x0 DUP8 DUP2 MSTORE PUSH1 0x20 ADD SWAP1 DUP2 MSTORE PUSH1 0x20 ADD PUSH1 0x0 KECCAK256 PUSH1 0x0 CALLER PUSH20 0xFFFFFFFFFFFFFFFFFFFFFFFFFFFFFFFFFFFFFFFF AND PUSH20 0xFFFFFFFFFFFFFFFFFFFFFFFFFFFFFFFFFFFFFFFF AND DUP2 MSTORE PUSH1 0x20 ADD SWAP1 DUP2 MSTORE PUSH1 0x20 ADD PUSH1 0x0 KECCAK256 SLOAD PUSH2 0x385B SWAP1 SWAP2 SWAP1 PUSH4 0xFFFFFFFF AND JUMP JUMPDEST SWAP1 POP JUMPDEST PUSH1 0x1 PUSH1 0x0 DUP7 PUSH20 0xFFFFFFFFFFFFFFFFFFFFFFFFFFFFFFFFFFFFFFFF AND PUSH20 0xFFFFFFFFFFFFFFFFFFFFFFFFFFFFFFFFFFFFFFFF AND DUP2 MSTORE PUSH1 0x20 ADD SWAP1 DUP2 MSTORE PUSH1 0x20 ADD PUSH1 0x0 KECCAK256 PUSH1 0x0 DUP6 DUP2 MSTORE PUSH1 0x20 ADD SWAP1 DUP2 MSTORE PUSH1 0x20 ADD PUSH1 0x0 KECCAK256 PUSH1 0x3 ADD SLOAD DUP2 GT PUSH2 0xF0E JUMPI PUSH1 0x40 MLOAD PUSH32 0x8C379A000000000000000000000000000000000000000000000000000000000 DUP2 MSTORE PUSH1 0x4 ADD PUSH2 0xF05 SWAP1 PUSH2 0x4B50 JUMP JUMPDEST PUSH1 0x40 MLOAD DUP1 SWAP2 SUB SWAP1 REVERT JUMPDEST PUSH1 0x0 DUP14 SWAP1 POP PUSH1 0x0 DUP14 SWAP1 POP PUSH1 0x0 PUSH2 0xFBA DUP15 PUSH1 0x3 PUSH1 0x0 DUP7 PUSH20 0xFFFFFFFFFFFFFFFFFFFFFFFFFFFFFFFFFFFFFFFF AND PUSH20 0xFFFFFFFFFFFFFFFFFFFFFFFFFFFFFFFFFFFFFFFF AND DUP2 MSTORE PUSH1 0x20 ADD SWAP1 DUP2 MSTORE PUSH1 0x20 ADD PUSH1 0x0 KECCAK256 PUSH1 0x0 DUP6 DUP2 MSTORE PUSH1 0x20 ADD SWAP1 DUP2 MSTORE PUSH1 0x20 ADD PUSH1 0x0 KECCAK256 PUSH1 0x0 CALLER PUSH20 0xFFFFFFFFFFFFFFFFFFFFFFFFFFFFFFFFFFFFFFFF AND PUSH20 0xFFFFFFFFFFFFFFFFFFFFFFFFFFFFFFFFFFFFFFFF AND DUP2 MSTORE PUSH1 0x20 ADD SWAP1 DUP2 MSTORE PUSH1 0x20 ADD PUSH1 0x0 KECCAK256 SLOAD PUSH2 0x385B SWAP1 SWAP2 SWAP1 PUSH4 0xFFFFFFFF AND JUMP JUMPDEST SWAP1 POP PUSH1 0x0 PUSH20 0xFFFFFFFFFFFFFFFFFFFFFFFFFFFFFFFFFFFFFFFF AND PUSH1 0x1 PUSH1 0x0 DUP6 PUSH20 0xFFFFFFFFFFFFFFFFFFFFFFFFFFFFFFFFFFFFFFFF AND PUSH20 0xFFFFFFFFFFFFFFFFFFFFFFFFFFFFFFFFFFFFFFFF AND DUP2 MSTORE PUSH1 0x20 ADD SWAP1 DUP2 MSTORE PUSH1 0x20 ADD PUSH1 0x0 KECCAK256 PUSH1 0x0 DUP5 DUP2 MSTORE PUSH1 0x20 ADD SWAP1 DUP2 MSTORE PUSH1 0x20 ADD PUSH1 0x0 KECCAK256 PUSH1 0x6 ADD PUSH1 0x0 SWAP1 SLOAD SWAP1 PUSH2 0x100 EXP SWAP1 DIV PUSH20 0xFFFFFFFFFFFFFFFFFFFFFFFFFFFFFFFFFFFFFFFF AND PUSH20 0xFFFFFFFFFFFFFFFFFFFFFFFFFFFFFFFFFFFFFFFF AND EQ PUSH2 0x10E1 JUMPI PUSH2 0x10E0 DUP15 PUSH1 0x1 PUSH1 0x0 DUP7 PUSH20 0xFFFFFFFFFFFFFFFFFFFFFFFFFFFFFFFFFFFFFFFF AND PUSH20 0xFFFFFFFFFFFFFFFFFFFFFFFFFFFFFFFFFFFFFFFF AND DUP2 MSTORE PUSH1 0x20 ADD SWAP1 DUP2 MSTORE PUSH1 0x20 ADD PUSH1 0x0 KECCAK256 PUSH1 0x0 DUP6 DUP2 MSTORE PUSH1 0x20 ADD SWAP1 DUP2 MSTORE PUSH1 0x20 ADD PUSH1 0x0 KECCAK256 PUSH1 0x6 ADD PUSH1 0x0 SWAP1 SLOAD SWAP1 PUSH2 0x100 EXP SWAP1 DIV PUSH20 0xFFFFFFFFFFFFFFFFFFFFFFFFFFFFFFFFFFFFFFFF AND PUSH2 0x3789 JUMP JUMPDEST JUMPDEST DUP1 PUSH1 0x1 PUSH1 0x0 DUP6 PUSH20 0xFFFFFFFFFFFFFFFFFFFFFFFFFFFFFFFFFFFFFFFF AND PUSH20 0xFFFFFFFFFFFFFFFFFFFFFFFFFFFFFFFFFFFFFFFF AND DUP2 MSTORE PUSH1 0x20 ADD SWAP1 DUP2 MSTORE PUSH1 0x20 ADD PUSH1 0x0 KECCAK256 PUSH1 0x0 DUP5 DUP2 MSTORE PUSH1 0x20 ADD SWAP1 DUP2 MSTORE PUSH1 0x20 ADD PUSH1 0x0 KECCAK256 PUSH1 0x3 ADD DUP2 SWAP1 SSTORE POP CALLER PUSH1 0x1 PUSH1 0x0 DUP6 PUSH20 0xFFFFFFFFFFFFFFFFFFFFFFFFFFFFFFFFFFFFFFFF AND PUSH20 0xFFFFFFFFFFFFFFFFFFFFFFFFFFFFFFFFFFFFFFFF AND DUP2 MSTORE PUSH1 0x20 ADD SWAP1 DUP2 MSTORE PUSH1 0x20 ADD PUSH1 0x0 KECCAK256 PUSH1 0x0 DUP5 DUP2 MSTORE PUSH1 0x20 ADD SWAP1 DUP2 MSTORE PUSH1 0x20 ADD PUSH1 0x0 KECCAK256 PUSH1 0x4 ADD PUSH1 0x0 PUSH2 0x100 EXP DUP2 SLOAD DUP2 PUSH20 0xFFFFFFFFFFFFFFFFFFFFFFFFFFFFFFFFFFFFFFFF MUL NOT AND SWAP1 DUP4 PUSH20 0xFFFFFFFFFFFFFFFFFFFFFFFFFFFFFFFFFFFFFFFF AND MUL OR SWAP1 SSTORE POP DUP1 PUSH1 0x3 PUSH1 0x0 DUP6 PUSH20 0xFFFFFFFFFFFFFFFFFFFFFFFFFFFFFFFFFFFFFFFF AND PUSH20 0xFFFFFFFFFFFFFFFFFFFFFFFFFFFFFFFFFFFFFFFF AND DUP2 MSTORE PUSH1 0x20 ADD SWAP1 DUP2 MSTORE PUSH1 0x20 ADD PUSH1 0x0 KECCAK256 PUSH1 0x0 DUP5 DUP2 MSTORE PUSH1 0x20 ADD SWAP1 DUP2 MSTORE PUSH1 0x20 ADD PUSH1 0x0 KECCAK256 PUSH1 0x0 CALLER PUSH20 0xFFFFFFFFFFFFFFFFFFFFFFFFFFFFFFFFFFFFFFFF AND PUSH20 0xFFFFFFFFFFFFFFFFFFFFFFFFFFFFFFFFFFFFFFFF AND DUP2 MSTORE PUSH1 0x20 ADD SWAP1 DUP2 MSTORE PUSH1 0x20 ADD PUSH1 0x0 KECCAK256 DUP2 SWAP1 SSTORE POP PUSH32 0x907CDADC7C1A8ABCDD80CDD85EB18377631E4F413FB6397A8252FF7B358AC6CB DUP4 DUP4 DUP4 CALLER PUSH1 0x40 MLOAD PUSH2 0x1292 SWAP5 SWAP4 SWAP3 SWAP2 SWAP1 PUSH2 0x4A0E JUMP JUMPDEST PUSH1 0x40 MLOAD DUP1 SWAP2 SUB SWAP1 LOG1 POP POP POP POP POP POP POP POP POP POP POP POP POP POP POP POP JUMP JUMPDEST DUP3 DUP3 PUSH1 0x1 PUSH1 0x2 PUSH1 0x0 DUP5 PUSH20 0xFFFFFFFFFFFFFFFFFFFFFFFFFFFFFFFFFFFFFFFF AND PUSH20 0xFFFFFFFFFFFFFFFFFFFFFFFFFFFFFFFFFFFFFFFF AND DUP2 MSTORE PUSH1 0x20 ADD SWAP1 DUP2 MSTORE PUSH1 0x20 ADD PUSH1 0x0 KECCAK256 PUSH1 0x0 DUP4 DUP2 MSTORE PUSH1 0x20 ADD SWAP1 DUP2 MSTORE PUSH1 0x20 ADD PUSH1 0x0 KECCAK256 SLOAD EQ PUSH2 0x1341 JUMPI PUSH1 0x40 MLOAD PUSH32 0x8C379A000000000000000000000000000000000000000000000000000000000 DUP2 MSTORE PUSH1 0x4 ADD PUSH2 0x1338 SWAP1 PUSH2 0x4B10 JUMP JUMPDEST PUSH1 0x40 MLOAD DUP1 SWAP2 SUB SWAP1 REVERT JUMPDEST DUP5 DUP5 PUSH1 0x0 DUP1 DUP4 PUSH20 0xFFFFFFFFFFFFFFFFFFFFFFFFFFFFFFFFFFFFFFFF AND PUSH20 0xFFFFFFFFFFFFFFFFFFFFFFFFFFFFFFFFFFFFFFFF AND DUP2 MSTORE PUSH1 0x20 ADD SWAP1 DUP2 MSTORE PUSH1 0x20 ADD PUSH1 0x0 KECCAK256 PUSH1 0x0 DUP3 DUP2 MSTORE PUSH1 0x20 ADD SWAP1 DUP2 MSTORE PUSH1 0x20 ADD PUSH1 0x0 KECCAK256 PUSH1 0x0 ADD PUSH1 0x0 SWAP1 SLOAD SWAP1 PUSH2 0x100 EXP SWAP1 DIV PUSH20 0xFFFFFFFFFFFFFFFFFFFFFFFFFFFFFFFFFFFFFFFF AND PUSH20 0xFFFFFFFFFFFFFFFFFFFFFFFFFFFFFFFFFFFFFFFF AND CALLER PUSH20 0xFFFFFFFFFFFFFFFFFFFFFFFFFFFFFFFFFFFFFFFF AND EQ PUSH2 0x1423 JUMPI PUSH1 0x40 MLOAD PUSH32 0x8C379A000000000000000000000000000000000000000000000000000000000 DUP2 MSTORE PUSH1 0x4 ADD PUSH2 0x141A SWAP1 PUSH2 0x4C10 JUMP JUMPDEST PUSH1 0x40 MLOAD DUP1 SWAP2 SUB SWAP1 REVERT JUMPDEST DUP5 PUSH1 0x0 DUP2 GT PUSH2 0x1467 JUMPI PUSH1 0x40 MLOAD PUSH32 0x8C379A000000000000000000000000000000000000000000000000000000000 DUP2 MSTORE PUSH1 0x4 ADD PUSH2 0x145E SWAP1 PUSH2 0x4AD0 JUMP JUMPDEST PUSH1 0x40 MLOAD DUP1 SWAP2 SUB SWAP1 REVERT JUMPDEST DUP6 PUSH1 0x0 DUP1 DUP11 PUSH20 0xFFFFFFFFFFFFFFFFFFFFFFFFFFFFFFFFFFFFFFFF AND PUSH20 0xFFFFFFFFFFFFFFFFFFFFFFFFFFFFFFFFFFFFFFFF AND DUP2 MSTORE PUSH1 0x20 ADD SWAP1 DUP2 MSTORE PUSH1 0x20 ADD PUSH1 0x0 KECCAK256 PUSH1 0x0 DUP10 DUP2 MSTORE PUSH1 0x20 ADD SWAP1 DUP2 MSTORE PUSH1 0x20 ADD PUSH1 0x0 KECCAK256 PUSH1 0x3 ADD DUP2 SWAP1 SSTORE POP PUSH32 0x575A0876095CCF47276A37DCE683308A625403D132D219F95205CE205B2E12BC DUP9 DUP9 DUP9 PUSH1 0x40 MLOAD PUSH2 0x14F1 SWAP4 SWAP3 SWAP2 SWAP1 PUSH2 0x49D7 JUMP JUMPDEST PUSH1 0x40 MLOAD DUP1 SWAP2 SUB SWAP1 LOG1 POP POP POP POP POP POP POP POP JUMP JUMPDEST DUP2 DUP2 PUSH1 0x1 PUSH1 0x0 DUP4 PUSH20 0xFFFFFFFFFFFFFFFFFFFFFFFFFFFFFFFFFFFFFFFF AND PUSH20 0xFFFFFFFFFFFFFFFFFFFFFFFFFFFFFFFFFFFFFFFF AND DUP2 MSTORE PUSH1 0x20 ADD SWAP1 DUP2 MSTORE PUSH1 0x20 ADD PUSH1 0x0 KECCAK256 PUSH1 0x0 DUP3 DUP2 MSTORE PUSH1 0x20 ADD SWAP1 DUP2 MSTORE PUSH1 0x20 ADD PUSH1 0x0 KECCAK256 PUSH1 0x1 ADD SLOAD TIMESTAMP GT PUSH2 0x159A JUMPI PUSH1 0x40 MLOAD PUSH32 0x8C379A000000000000000000000000000000000000000000000000000000000 DUP2 MSTORE PUSH1 0x4 ADD PUSH2 0x1591 SWAP1 PUSH2 0x4BF0 JUMP JUMPDEST PUSH1 0x40 MLOAD DUP1 SWAP2 SUB SWAP1 REVERT JUMPDEST PUSH1 0x1 PUSH1 0x0 DUP6 PUSH20 0xFFFFFFFFFFFFFFFFFFFFFFFFFFFFFFFFFFFFFFFF AND PUSH20 0xFFFFFFFFFFFFFFFFFFFFFFFFFFFFFFFFFFFFFFFF AND DUP2 MSTORE PUSH1 0x20 ADD SWAP1 DUP2 MSTORE PUSH1 0x20 ADD PUSH1 0x0 KECCAK256 PUSH1 0x0 DUP5 DUP2 MSTORE PUSH1 0x20 ADD SWAP1 DUP2 MSTORE PUSH1 0x20 ADD PUSH1 0x0 KECCAK256 PUSH1 0x4 ADD PUSH1 0x0 SWAP1 SLOAD SWAP1 PUSH2 0x100 EXP SWAP1 DIV PUSH20 0xFFFFFFFFFFFFFFFFFFFFFFFFFFFFFFFFFFFFFFFF AND PUSH20 0xFFFFFFFFFFFFFFFFFFFFFFFFFFFFFFFFFFFFFFFF AND CALLER PUSH20 0xFFFFFFFFFFFFFFFFFFFFFFFFFFFFFFFFFFFFFFFF AND EQ ISZERO PUSH2 0x167C JUMPI PUSH1 0x40 MLOAD PUSH32 0x8C379A000000000000000000000000000000000000000000000000000000000 DUP2 MSTORE PUSH1 0x4 ADD PUSH2 0x1673 SWAP1 PUSH2 0x4A90 JUMP JUMPDEST PUSH1 0x40 MLOAD DUP1 SWAP2 SUB SWAP1 REVERT JUMPDEST PUSH1 0x0 PUSH1 0x3 PUSH1 0x0 DUP7 PUSH20 0xFFFFFFFFFFFFFFFFFFFFFFFFFFFFFFFFFFFFFFFF AND PUSH20 0xFFFFFFFFFFFFFFFFFFFFFFFFFFFFFFFFFFFFFFFF AND DUP2 MSTORE PUSH1 0x20 ADD SWAP1 DUP2 MSTORE PUSH1 0x20 ADD PUSH1 0x0 KECCAK256 PUSH1 0x0 DUP6 DUP2 MSTORE PUSH1 0x20 ADD SWAP1 DUP2 MSTORE PUSH1 0x20 ADD PUSH1 0x0 KECCAK256 PUSH1 0x0 CALLER PUSH20 0xFFFFFFFFFFFFFFFFFFFFFFFFFFFFFFFFFFFFFFFF AND PUSH20 0xFFFFFFFFFFFFFFFFFFFFFFFFFFFFFFFFFFFFFFFF AND DUP2 MSTORE PUSH1 0x20 ADD SWAP1 DUP2 MSTORE PUSH1 0x20 ADD PUSH1 0x0 KECCAK256 SLOAD GT PUSH2 0x174C JUMPI PUSH1 0x40 MLOAD PUSH32 0x8C379A000000000000000000000000000000000000000000000000000000000 DUP2 MSTORE PUSH1 0x4 ADD PUSH2 0x1743 SWAP1 PUSH2 0x4C30 JUMP JUMPDEST PUSH1 0x40 MLOAD DUP1 SWAP2 SUB SWAP1 REVERT JUMPDEST PUSH1 0x0 PUSH1 0x3 PUSH1 0x0 DUP7 PUSH20 0xFFFFFFFFFFFFFFFFFFFFFFFFFFFFFFFFFFFFFFFF AND PUSH20 0xFFFFFFFFFFFFFFFFFFFFFFFFFFFFFFFFFFFFFFFF AND DUP2 MSTORE PUSH1 0x20 ADD SWAP1 DUP2 MSTORE PUSH1 0x20 ADD PUSH1 0x0 KECCAK256 PUSH1 0x0 DUP6 DUP2 MSTORE PUSH1 0x20 ADD SWAP1 DUP2 MSTORE PUSH1 0x20 ADD PUSH1 0x0 KECCAK256 PUSH1 0x0 CALLER PUSH20 0xFFFFFFFFFFFFFFFFFFFFFFFFFFFFFFFFFFFFFFFF AND PUSH20 0xFFFFFFFFFFFFFFFFFFFFFFFFFFFFFFFFFFFFFFFF AND DUP2 MSTORE PUSH1 0x20 ADD SWAP1 DUP2 MSTORE PUSH1 0x20 ADD PUSH1 0x0 KECCAK256 DUP2 SWAP1 SSTORE POP PUSH32 0xDE8CB9AA2C755CF75D5FBC4FEC824B10E311652306F1FCA5C8E57A04758B0AA7 DUP5 DUP5 CALLER PUSH1 0x40 MLOAD PUSH2 0x1812 SWAP4 SWAP3 SWAP2 SWAP1 PUSH2 0x494D JUMP JUMPDEST PUSH1 0x40 MLOAD DUP1 SWAP2 SUB SWAP1 LOG1 POP POP POP POP JUMP JUMPDEST DUP2 DUP2 PUSH1 0x2 DUP1 PUSH1 0x0 DUP5 PUSH20 0xFFFFFFFFFFFFFFFFFFFFFFFFFFFFFFFFFFFFFFFF AND PUSH20 0xFFFFFFFFFFFFFFFFFFFFFFFFFFFFFFFFFFFFFFFF AND DUP2 MSTORE PUSH1 0x20 ADD SWAP1 DUP2 MSTORE PUSH1 0x20 ADD PUSH1 0x0 KECCAK256 PUSH1 0x0 DUP4 DUP2 MSTORE PUSH1 0x20 ADD SWAP1 DUP2 MSTORE PUSH1 0x20 ADD PUSH1 0x0 KECCAK256 SLOAD EQ PUSH2 0x18B4 JUMPI PUSH1 0x40 MLOAD PUSH32 0x8C379A000000000000000000000000000000000000000000000000000000000 DUP2 MSTORE PUSH1 0x4 ADD PUSH2 0x18AB SWAP1 PUSH2 0x4B30 JUMP JUMPDEST PUSH1 0x40 MLOAD DUP1 SWAP2 SUB SWAP1 REVERT JUMPDEST DUP4 DUP4 PUSH1 0x1 PUSH1 0x0 DUP4 PUSH20 0xFFFFFFFFFFFFFFFFFFFFFFFFFFFFFFFFFFFFFFFF AND PUSH20 0xFFFFFFFFFFFFFFFFFFFFFFFFFFFFFFFFFFFFFFFF AND DUP2 MSTORE PUSH1 0x20 ADD SWAP1 DUP2 MSTORE PUSH1 0x20 ADD PUSH1 0x0 KECCAK256 PUSH1 0x0 DUP3 DUP2 MSTORE PUSH1 0x20 ADD SWAP1 DUP2 MSTORE PUSH1 0x20 ADD PUSH1 0x0 KECCAK256 PUSH1 0x1 ADD SLOAD TIMESTAMP GT PUSH2 0x194B JUMPI PUSH1 0x40 MLOAD PUSH32 0x8C379A000000000000000000000000000000000000000000000000000000000 DUP2 MSTORE PUSH1 0x4 ADD PUSH2 0x1942 SWAP1 PUSH2 0x4BF0 JUMP JUMPDEST PUSH1 0x40 MLOAD DUP1 SWAP2 SUB SWAP1 REVERT JUMPDEST PUSH1 0x0 PUSH1 0x1 PUSH1 0x0 DUP9 PUSH20 0xFFFFFFFFFFFFFFFFFFFFFFFFFFFFFFFFFFFFFFFF AND PUSH20 0xFFFFFFFFFFFFFFFFFFFFFFFFFFFFFFFFFFFFFFFF AND DUP2 MSTORE PUSH1 0x20 ADD SWAP1 DUP2 MSTORE PUSH1 0x20 ADD PUSH1 0x0 KECCAK256 PUSH1 0x0 DUP8 DUP2 MSTORE PUSH1 0x20 ADD SWAP1 DUP2 MSTORE PUSH1 0x20 ADD PUSH1 0x0 KECCAK256 PUSH1 0x4 ADD PUSH1 0x0 SWAP1 SLOAD SWAP1 PUSH2 0x100 EXP SWAP1 DIV PUSH20 0xFFFFFFFFFFFFFFFFFFFFFFFFFFFFFFFFFFFFFFFF AND SWAP1 POP PUSH2 0x1A22 DUP8 DUP8 PUSH1 0x1 PUSH1 0x0 DUP12 PUSH20 0xFFFFFFFFFFFFFFFFFFFFFFFFFFFFFFFFFFFFFFFF AND PUSH20 0xFFFFFFFFFFFFFFFFFFFFFFFFFFFFFFFFFFFFFFFF AND DUP2 MSTORE PUSH1 0x20 ADD SWAP1 DUP2 MSTORE PUSH1 0x20 ADD PUSH1 0x0 KECCAK256 PUSH1 0x0 DUP11 DUP2 MSTORE PUSH1 0x20 ADD SWAP1 DUP2 MSTORE PUSH1 0x20 ADD PUSH1 0x0 KECCAK256 PUSH1 0x3 ADD SLOAD DUP5 PUSH2 0x3871 JUMP JUMPDEST PUSH1 0x0 PUSH1 0x3 PUSH1 0x0 DUP10 PUSH20 0xFFFFFFFFFFFFFFFFFFFFFFFFFFFFFFFFFFFFFFFF AND PUSH20 0xFFFFFFFFFFFFFFFFFFFFFFFFFFFFFFFFFFFFFFFF AND DUP2 MSTORE PUSH1 0x20 ADD SWAP1 DUP2 MSTORE PUSH1 0x20 ADD PUSH1 0x0 KECCAK256 PUSH1 0x0 DUP9 DUP2 MSTORE PUSH1 0x20 ADD SWAP1 DUP2 MSTORE PUSH1 0x20 ADD PUSH1 0x0 KECCAK256 PUSH1 0x0 DUP4 PUSH20 0xFFFFFFFFFFFFFFFFFFFFFFFFFFFFFFFFFFFFFFFF AND PUSH20 0xFFFFFFFFFFFFFFFFFFFFFFFFFFFFFFFFFFFFFFFF AND DUP2 MSTORE PUSH1 0x20 ADD SWAP1 DUP2 MSTORE PUSH1 0x20 ADD PUSH1 0x0 KECCAK256 DUP2 SWAP1 SSTORE POP PUSH1 0x7 PUSH1 0x5 PUSH1 0x0 DUP10 PUSH20 0xFFFFFFFFFFFFFFFFFFFFFFFFFFFFFFFFFFFFFFFF AND PUSH20 0xFFFFFFFFFFFFFFFFFFFFFFFFFFFFFFFFFFFFFFFF AND DUP2 MSTORE PUSH1 0x20 ADD SWAP1 DUP2 MSTORE PUSH1 0x20 ADD PUSH1 0x0 KECCAK256 PUSH1 0x0 DUP9 DUP2 MSTORE PUSH1 0x20 ADD SWAP1 DUP2 MSTORE PUSH1 0x20 ADD PUSH1 0x0 KECCAK256 SLOAD DUP2 SLOAD DUP2 LT PUSH2 0x1B19 JUMPI PUSH2 0x1B18 PUSH2 0x4E2F JUMP JUMPDEST JUMPDEST SWAP1 PUSH1 0x0 MSTORE PUSH1 0x20 PUSH1 0x0 KECCAK256 SWAP1 PUSH1 0x2 MUL ADD PUSH1 0x0 DUP1 DUP3 ADD PUSH1 0x0 PUSH2 0x100 EXP DUP2 SLOAD SWAP1 PUSH20 0xFFFFFFFFFFFFFFFFFFFFFFFFFFFFFFFFFFFFFFFF MUL NOT AND SWAP1 SSTORE PUSH1 0x1 DUP3 ADD PUSH1 0x0 SWAP1 SSTORE POP POP PUSH32 0xB31CB4F6609B11A57D1B6B14CC3F81F4B3E609F709A5B1E46892A45F9CC29ED8 DUP8 DUP8 DUP4 PUSH1 0x1 PUSH1 0x0 DUP13 PUSH20 0xFFFFFFFFFFFFFFFFFFFFFFFFFFFFFFFFFFFFFFFF AND PUSH20 0xFFFFFFFFFFFFFFFFFFFFFFFFFFFFFFFFFFFFFFFF AND DUP2 MSTORE PUSH1 0x20 ADD SWAP1 DUP2 MSTORE PUSH1 0x20 ADD PUSH1 0x0 KECCAK256 PUSH1 0x0 DUP12 DUP2 MSTORE PUSH1 0x20 ADD SWAP1 DUP2 MSTORE PUSH1 0x20 ADD PUSH1 0x0 KECCAK256 PUSH1 0x3 ADD SLOAD PUSH1 0x1 PUSH1 0x0 DUP14 PUSH20 0xFFFFFFFFFFFFFFFFFFFFFFFFFFFFFFFFFFFFFFFF AND PUSH20 0xFFFFFFFFFFFFFFFFFFFFFFFFFFFFFFFFFFFFFFFF AND DUP2 MSTORE PUSH1 0x20 ADD SWAP1 DUP2 MSTORE PUSH1 0x20 ADD PUSH1 0x0 KECCAK256 PUSH1 0x0 DUP13 DUP2 MSTORE PUSH1 0x20 ADD SWAP1 DUP2 MSTORE PUSH1 0x20 ADD PUSH1 0x0 KECCAK256 PUSH1 0x5 ADD PUSH1 0x0 SWAP1 SLOAD SWAP1 PUSH2 0x100 EXP SWAP1 DIV PUSH20 0xFFFFFFFFFFFFFFFFFFFFFFFFFFFFFFFFFFFFFFFF AND PUSH1 0x40 MLOAD PUSH2 0x1C56 SWAP6 SWAP5 SWAP4 SWAP3 SWAP2 SWAP1 PUSH2 0x4984 JUMP JUMPDEST PUSH1 0x40 MLOAD DUP1 SWAP2 SUB SWAP1 LOG1 POP POP POP POP POP POP POP JUMP JUMPDEST PUSH1 0x2 PUSH1 0x20 MSTORE DUP2 PUSH1 0x0 MSTORE PUSH1 0x40 PUSH1 0x0 KECCAK256 PUSH1 0x20 MSTORE DUP1 PUSH1 0x0 MSTORE PUSH1 0x40 PUSH1 0x0 KECCAK256 PUSH1 0x0 SWAP2 POP SWAP2 POP POP SLOAD DUP2 JUMP JUMPDEST DUP4 DUP3 DUP2 PUSH20 0xFFFFFFFFFFFFFFFFFFFFFFFFFFFFFFFFFFFFFFFF AND PUSH4 0x6352211E DUP3 PUSH1 0x40 MLOAD DUP3 PUSH4 0xFFFFFFFF AND PUSH1 0xE0 SHL DUP2 MSTORE PUSH1 0x4 ADD PUSH2 0x1CC7 SWAP2 SWAP1 PUSH2 0x4CC6 JUMP JUMPDEST PUSH1 0x20 PUSH1 0x40 MLOAD DUP1 DUP4 SUB DUP2 DUP7 DUP1 EXTCODESIZE ISZERO DUP1 ISZERO PUSH2 0x1CDF JUMPI PUSH1 0x0 DUP1 REVERT JUMPDEST POP GAS STATICCALL ISZERO DUP1 ISZERO PUSH2 0x1CF3 JUMPI RETURNDATASIZE PUSH1 0x0 DUP1 RETURNDATACOPY RETURNDATASIZE PUSH1 0x0 REVERT JUMPDEST POP POP POP POP PUSH1 0x40 MLOAD RETURNDATASIZE PUSH1 0x1F NOT PUSH1 0x1F DUP3 ADD AND DUP3 ADD DUP1 PUSH1 0x40 MSTORE POP DUP2 ADD SWAP1 PUSH2 0x1D17 SWAP2 SWAP1 PUSH2 0x40B8 JUMP JUMPDEST PUSH20 0xFFFFFFFFFFFFFFFFFFFFFFFFFFFFFFFFFFFFFFFF AND CALLER PUSH20 0xFFFFFFFFFFFFFFFFFFFFFFFFFFFFFFFFFFFFFFFF AND EQ PUSH2 0x1D84 JUMPI PUSH1 0x40 MLOAD PUSH32 0x8C379A000000000000000000000000000000000000000000000000000000000 DUP2 MSTORE PUSH1 0x4 ADD PUSH2 0x1D7B SWAP1 PUSH2 0x4C10 JUMP JUMPDEST PUSH1 0x40 MLOAD DUP1 SWAP2 SUB SWAP1 REVERT JUMPDEST DUP6 DUP5 PUSH1 0x0 PUSH1 0x2 PUSH1 0x0 DUP5 PUSH20 0xFFFFFFFFFFFFFFFFFFFFFFFFFFFFFFFFFFFFFFFF AND PUSH20 0xFFFFFFFFFFFFFFFFFFFFFFFFFFFFFFFFFFFFFFFF AND DUP2 MSTORE PUSH1 0x20 ADD SWAP1 DUP2 MSTORE PUSH1 0x20 ADD PUSH1 0x0 KECCAK256 PUSH1 0x0 DUP4 DUP2 MSTORE PUSH1 0x20 ADD SWAP1 DUP2 MSTORE PUSH1 0x20 ADD PUSH1 0x0 KECCAK256 SLOAD EQ PUSH2 0x1E19 JUMPI PUSH1 0x40 MLOAD PUSH32 0x8C379A000000000000000000000000000000000000000000000000000000000 DUP2 MSTORE PUSH1 0x4 ADD PUSH2 0x1E10 SWAP1 PUSH2 0x4B90 JUMP JUMPDEST PUSH1 0x40 MLOAD DUP1 SWAP2 SUB SWAP1 REVERT JUMPDEST DUP8 DUP7 DUP2 PUSH20 0xFFFFFFFFFFFFFFFFFFFFFFFFFFFFFFFFFFFFFFFF AND PUSH4 0xE985E9C5 CALLER ADDRESS PUSH1 0x40 MLOAD DUP4 PUSH4 0xFFFFFFFF AND PUSH1 0xE0 SHL DUP2 MSTORE PUSH1 0x4 ADD PUSH2 0x1E56 SWAP3 SWAP2 SWAP1 PUSH2 0x47AF JUMP JUMPDEST PUSH1 0x20 PUSH1 0x40 MLOAD DUP1 DUP4 SUB DUP2 DUP7 DUP1 EXTCODESIZE ISZERO DUP1 ISZERO PUSH2 0x1E6E JUMPI PUSH1 0x0 DUP1 REVERT JUMPDEST POP GAS STATICCALL ISZERO DUP1 ISZERO PUSH2 0x1E82 JUMPI RETURNDATASIZE PUSH1 0x0 DUP1 RETURNDATACOPY RETURNDATASIZE PUSH1 0x0 REVERT JUMPDEST POP POP POP POP PUSH1 0x40 MLOAD RETURNDATASIZE PUSH1 0x1F NOT PUSH1 0x1F DUP3 ADD AND DUP3 ADD DUP1 PUSH1 0x40 MSTORE POP DUP2 ADD SWAP1 PUSH2 0x1EA6 SWAP2 SWAP1 PUSH2 0x4347 JUMP JUMPDEST PUSH2 0x1EE5 JUMPI PUSH1 0x40 MLOAD PUSH32 0x8C379A000000000000000000000000000000000000000000000000000000000 DUP2 MSTORE PUSH1 0x4 ADD PUSH2 0x1EDC SWAP1 PUSH2 0x4AB0 JUMP JUMPDEST PUSH1 0x40 MLOAD DUP1 SWAP2 SUB SWAP1 REVERT JUMPDEST DUP7 PUSH1 0x0 DUP2 GT PUSH2 0x1F29 JUMPI PUSH1 0x40 MLOAD PUSH32 0x8C379A000000000000000000000000000000000000000000000000000000000 DUP2 MSTORE PUSH1 0x4 ADD PUSH2 0x1F20 SWAP1 PUSH2 0x4AD0 JUMP JUMPDEST PUSH1 0x40 MLOAD DUP1 SWAP2 SUB SWAP1 REVERT JUMPDEST PUSH1 0x40 MLOAD DUP1 PUSH1 0x80 ADD PUSH1 0x40 MSTORE DUP1 CALLER PUSH20 0xFFFFFFFFFFFFFFFFFFFFFFFFFFFFFFFFFFFFFFFF AND DUP2 MSTORE PUSH1 0x20 ADD PUSH1 0x0 PUSH20 0xFFFFFFFFFFFFFFFFFFFFFFFFFFFFFFFFFFFFFFFF AND DUP2 MSTORE PUSH1 0x20 ADD DUP12 PUSH20 0xFFFFFFFFFFFFFFFFFFFFFFFFFFFFFFFFFFFFFFFF AND DUP2 MSTORE PUSH1 0x20 ADD DUP10 DUP2 MSTORE POP PUSH1 0x0 DUP1 DUP14 PUSH20 0xFFFFFFFFFFFFFFFFFFFFFFFFFFFFFFFFFFFFFFFF AND PUSH20 0xFFFFFFFFFFFFFFFFFFFFFFFFFFFFFFFFFFFFFFFF AND DUP2 MSTORE PUSH1 0x20 ADD SWAP1 DUP2 MSTORE PUSH1 0x20 ADD PUSH1 0x0 KECCAK256 PUSH1 0x0 DUP12 DUP2 MSTORE PUSH1 0x20 ADD SWAP1 DUP2 MSTORE PUSH1 0x20 ADD PUSH1 0x0 KECCAK256 PUSH1 0x0 DUP3 ADD MLOAD DUP2 PUSH1 0x0 ADD PUSH1 0x0 PUSH2 0x100 EXP DUP2 SLOAD DUP2 PUSH20 0xFFFFFFFFFFFFFFFFFFFFFFFFFFFFFFFFFFFFFFFF MUL NOT AND SWAP1 DUP4 PUSH20 0xFFFFFFFFFFFFFFFFFFFFFFFFFFFFFFFFFFFFFFFF AND MUL OR SWAP1 SSTORE POP PUSH1 0x20 DUP3 ADD MLOAD DUP2 PUSH1 0x1 ADD PUSH1 0x0 PUSH2 0x100 EXP DUP2 SLOAD DUP2 PUSH20 0xFFFFFFFFFFFFFFFFFFFFFFFFFFFFFFFFFFFFFFFF MUL NOT AND SWAP1 DUP4 PUSH20 0xFFFFFFFFFFFFFFFFFFFFFFFFFFFFFFFFFFFFFFFF AND MUL OR SWAP1 SSTORE POP PUSH1 0x40 DUP3 ADD MLOAD DUP2 PUSH1 0x2 ADD PUSH1 0x0 PUSH2 0x100 EXP DUP2 SLOAD DUP2 PUSH20 0xFFFFFFFFFFFFFFFFFFFFFFFFFFFFFFFFFFFFFFFF MUL NOT AND SWAP1 DUP4 PUSH20 0xFFFFFFFFFFFFFFFFFFFFFFFFFFFFFFFFFFFFFFFF AND MUL OR SWAP1 SSTORE POP PUSH1 0x60 DUP3 ADD MLOAD DUP2 PUSH1 0x3 ADD SSTORE SWAP1 POP POP PUSH1 0x1 PUSH1 0x2 PUSH1 0x0 DUP14 PUSH20 0xFFFFFFFFFFFFFFFFFFFFFFFFFFFFFFFFFFFFFFFF AND PUSH20 0xFFFFFFFFFFFFFFFFFFFFFFFFFFFFFFFFFFFFFFFF AND DUP2 MSTORE PUSH1 0x20 ADD SWAP1 DUP2 MSTORE PUSH1 0x20 ADD PUSH1 0x0 KECCAK256 PUSH1 0x0 DUP12 DUP2 MSTORE PUSH1 0x20 ADD SWAP1 DUP2 MSTORE PUSH1 0x20 ADD PUSH1 0x0 KECCAK256 DUP2 SWAP1 SSTORE POP PUSH1 0x6 DUP1 SLOAD SWAP1 POP PUSH1 0x4 PUSH1 0x0 DUP14 PUSH20 0xFFFFFFFFFFFFFFFFFFFFFFFFFFFFFFFFFFFFFFFF AND PUSH20 0xFFFFFFFFFFFFFFFFFFFFFFFFFFFFFFFFFFFFFFFF AND DUP2 MSTORE PUSH1 0x20 ADD SWAP1 DUP2 MSTORE PUSH1 0x20 ADD PUSH1 0x0 KECCAK256 PUSH1 0x0 DUP12 DUP2 MSTORE PUSH1 0x20 ADD SWAP1 DUP2 MSTORE PUSH1 0x20 ADD PUSH1 0x0 KECCAK256 DUP2 SWAP1 SSTORE POP PUSH1 0x6 PUSH1 0x40 MLOAD DUP1 PUSH1 0x40 ADD PUSH1 0x40 MSTORE DUP1 DUP14 PUSH20 0xFFFFFFFFFFFFFFFFFFFFFFFFFFFFFFFFFFFFFFFF AND DUP2 MSTORE PUSH1 0x20 ADD DUP12 DUP2 MSTORE POP SWAP1 DUP1 PUSH1 0x1 DUP2 SLOAD ADD DUP1 DUP3 SSTORE DUP1 SWAP2 POP POP PUSH1 0x1 SWAP1 SUB SWAP1 PUSH1 0x0 MSTORE PUSH1 0x20 PUSH1 0x0 KECCAK256 SWAP1 PUSH1 0x2 MUL ADD PUSH1 0x0 SWAP1 SWAP2 SWAP1 SWAP2 SWAP1 SWAP2 POP PUSH1 0x0 DUP3 ADD MLOAD DUP2 PUSH1 0x0 ADD PUSH1 0x0 PUSH2 0x100 EXP DUP2 SLOAD DUP2 PUSH20 0xFFFFFFFFFFFFFFFFFFFFFFFFFFFFFFFFFFFFFFFF MUL NOT AND SWAP1 DUP4 PUSH20 0xFFFFFFFFFFFFFFFFFFFFFFFFFFFFFFFFFFFFFFFF AND MUL OR SWAP1 SSTORE POP PUSH1 0x20 DUP3 ADD MLOAD DUP2 PUSH1 0x1 ADD SSTORE POP POP DUP11 PUSH20 0xFFFFFFFFFFFFFFFFFFFFFFFFFFFFFFFFFFFFFFFF AND PUSH4 0x42842E0E CALLER ADDRESS DUP13 PUSH1 0x40 MLOAD DUP5 PUSH4 0xFFFFFFFF AND PUSH1 0xE0 SHL DUP2 MSTORE PUSH1 0x4 ADD PUSH2 0x2254 SWAP4 SWAP3 SWAP2 SWAP1 PUSH2 0x48A8 JUMP JUMPDEST PUSH1 0x0 PUSH1 0x40 MLOAD DUP1 DUP4 SUB DUP2 PUSH1 0x0 DUP8 DUP1 EXTCODESIZE ISZERO DUP1 ISZERO PUSH2 0x226E JUMPI PUSH1 0x0 DUP1 REVERT JUMPDEST POP GAS CALL ISZERO DUP1 ISZERO PUSH2 0x2282 JUMPI RETURNDATASIZE PUSH1 0x0 DUP1 RETURNDATACOPY RETURNDATASIZE PUSH1 0x0 REVERT JUMPDEST POP POP POP POP PUSH32 0x78EEAD3CD01ED921C7653D000A6B73AEA643A7B9C066FB7D93EB2EAE8ACC2D9 DUP12 CALLER DUP13 DUP13 DUP13 TIMESTAMP PUSH1 0x40 MLOAD PUSH2 0x22BF SWAP7 SWAP6 SWAP5 SWAP4 SWAP3 SWAP2 SWAP1 PUSH2 0x47D8 JUMP JUMPDEST PUSH1 0x40 MLOAD DUP1 SWAP2 SUB SWAP1 LOG1 POP POP POP POP POP POP POP POP POP POP POP JUMP JUMPDEST PUSH2 0x22DC PUSH2 0x3F25 JUMP JUMPDEST PUSH1 0x1 PUSH1 0x0 DUP5 PUSH20 0xFFFFFFFFFFFFFFFFFFFFFFFFFFFFFFFFFFFFFFFF AND PUSH20 0xFFFFFFFFFFFFFFFFFFFFFFFFFFFFFFFFFFFFFFFF AND DUP2 MSTORE PUSH1 0x20 ADD SWAP1 DUP2 MSTORE PUSH1 0x20 ADD PUSH1 0x0 KECCAK256 PUSH1 0x0 DUP4 DUP2 MSTORE PUSH1 0x20 ADD SWAP1 DUP2 MSTORE PUSH1 0x20 ADD PUSH1 0x0 KECCAK256 PUSH1 0x40 MLOAD DUP1 PUSH1 0xE0 ADD PUSH1 0x40 MSTORE SWAP1 DUP2 PUSH1 0x0 DUP3 ADD SLOAD DUP2 MSTORE PUSH1 0x20 ADD PUSH1 0x1 DUP3 ADD SLOAD DUP2 MSTORE PUSH1 0x20 ADD PUSH1 0x2 DUP3 ADD SLOAD DUP2 MSTORE PUSH1 0x20 ADD PUSH1 0x3 DUP3 ADD SLOAD DUP2 MSTORE PUSH1 0x20 ADD PUSH1 0x4 DUP3 ADD PUSH1 0x0 SWAP1 SLOAD SWAP1 PUSH2 0x100 EXP SWAP1 DIV PUSH20 0xFFFFFFFFFFFFFFFFFFFFFFFFFFFFFFFFFFFFFFFF AND PUSH20 0xFFFFFFFFFFFFFFFFFFFFFFFFFFFFFFFFFFFFFFFF AND PUSH20 0xFFFFFFFFFFFFFFFFFFFFFFFFFFFFFFFFFFFFFFFF AND DUP2 MSTORE PUSH1 0x20 ADD PUSH1 0x5 DUP3 ADD PUSH1 0x0 SWAP1 SLOAD SWAP1 PUSH2 0x100 EXP SWAP1 DIV PUSH20 0xFFFFFFFFFFFFFFFFFFFFFFFFFFFFFFFFFFFFFFFF AND PUSH20 0xFFFFFFFFFFFFFFFFFFFFFFFFFFFFFFFFFFFFFFFF AND PUSH20 0xFFFFFFFFFFFFFFFFFFFFFFFFFFFFFFFFFFFFFFFF AND DUP2 MSTORE PUSH1 0x20 ADD PUSH1 0x6 DUP3 ADD PUSH1 0x0 SWAP1 SLOAD SWAP1 PUSH2 0x100 EXP SWAP1 DIV PUSH20 0xFFFFFFFFFFFFFFFFFFFFFFFFFFFFFFFFFFFFFFFF AND PUSH20 0xFFFFFFFFFFFFFFFFFFFFFFFFFFFFFFFFFFFFFFFF AND PUSH20 0xFFFFFFFFFFFFFFFFFFFFFFFFFFFFFFFFFFFFFFFF AND DUP2 MSTORE POP POP SWAP1 POP SWAP3 SWAP2 POP POP JUMP JUMPDEST PUSH1 0x3 PUSH1 0x20 MSTORE DUP3 PUSH1 0x0 MSTORE PUSH1 0x40 PUSH1 0x0 KECCAK256 PUSH1 0x20 MSTORE DUP2 PUSH1 0x0 MSTORE PUSH1 0x40 PUSH1 0x0 KECCAK256 PUSH1 0x20 MSTORE DUP1 PUSH1 0x0 MSTORE PUSH1 0x40 PUSH1 0x0 KECCAK256 PUSH1 0x0 SWAP3 POP SWAP3 POP POP POP SLOAD DUP2 JUMP JUMPDEST DUP2 DUP2 PUSH1 0x2 DUP1 PUSH1 0x0 DUP5 PUSH20 0xFFFFFFFFFFFFFFFFFFFFFFFFFFFFFFFFFFFFFFFF AND PUSH20 0xFFFFFFFFFFFFFFFFFFFFFFFFFFFFFFFFFFFFFFFF AND DUP2 MSTORE PUSH1 0x20 ADD SWAP1 DUP2 MSTORE PUSH1 0x20 ADD PUSH1 0x0 KECCAK256 PUSH1 0x0 DUP4 DUP2 MSTORE PUSH1 0x20 ADD SWAP1 DUP2 MSTORE PUSH1 0x20 ADD PUSH1 0x0 KECCAK256 SLOAD EQ PUSH2 0x252F JUMPI PUSH1 0x40 MLOAD PUSH32 0x8C379A000000000000000000000000000000000000000000000000000000000 DUP2 MSTORE PUSH1 0x4 ADD PUSH2 0x2526 SWAP1 PUSH2 0x4B30 JUMP JUMPDEST PUSH1 0x40 MLOAD DUP1 SWAP2 SUB SWAP1 REVERT JUMPDEST DUP4 DUP4 PUSH1 0x1 PUSH1 0x0 DUP4 PUSH20 0xFFFFFFFFFFFFFFFFFFFFFFFFFFFFFFFFFFFFFFFF AND PUSH20 0xFFFFFFFFFFFFFFFFFFFFFFFFFFFFFFFFFFFFFFFF AND DUP2 MSTORE PUSH1 0x20 ADD SWAP1 DUP2 MSTORE PUSH1 0x20 ADD PUSH1 0x0 KECCAK256 PUSH1 0x0 DUP3 DUP2 MSTORE PUSH1 0x20 ADD SWAP1 DUP2 MSTORE PUSH1 0x20 ADD PUSH1 0x0 KECCAK256 PUSH1 0x5 ADD PUSH1 0x0 SWAP1 SLOAD SWAP1 PUSH2 0x100 EXP SWAP1 DIV PUSH20 0xFFFFFFFFFFFFFFFFFFFFFFFFFFFFFFFFFFFFFFFF AND PUSH20 0xFFFFFFFFFFFFFFFFFFFFFFFFFFFFFFFFFFFFFFFF AND CALLER PUSH20 0xFFFFFFFFFFFFFFFFFFFFFFFFFFFFFFFFFFFFFFFF AND EQ PUSH2 0x2612 JUMPI PUSH1 0x40 MLOAD PUSH32 0x8C379A000000000000000000000000000000000000000000000000000000000 DUP2 MSTORE PUSH1 0x4 ADD PUSH2 0x2609 SWAP1 PUSH2 0x4AF0 JUMP JUMPDEST PUSH1 0x40 MLOAD DUP1 SWAP2 SUB SWAP1 REVERT JUMPDEST DUP6 DUP6 PUSH1 0x1 PUSH1 0x0 DUP4 PUSH20 0xFFFFFFFFFFFFFFFFFFFFFFFFFFFFFFFFFFFFFFFF AND PUSH20 0xFFFFFFFFFFFFFFFFFFFFFFFFFFFFFFFFFFFFFFFF AND DUP2 MSTORE PUSH1 0x20 ADD SWAP1 DUP2 MSTORE PUSH1 0x20 ADD PUSH1 0x0 KECCAK256 PUSH1 0x0 DUP3 DUP2 MSTORE PUSH1 0x20 ADD SWAP1 DUP2 MSTORE PUSH1 0x20 ADD PUSH1 0x0 KECCAK256 PUSH1 0x1 ADD SLOAD TIMESTAMP LT PUSH2 0x26A9 JUMPI PUSH1 0x40 MLOAD PUSH32 0x8C379A000000000000000000000000000000000000000000000000000000000 DUP2 MSTORE PUSH1 0x4 ADD PUSH2 0x26A0 SWAP1 PUSH2 0x4B70 JUMP JUMPDEST PUSH1 0x40 MLOAD DUP1 SWAP2 SUB SWAP1 REVERT JUMPDEST DUP8 DUP8 PUSH1 0x1 PUSH1 0x0 DUP4 PUSH20 0xFFFFFFFFFFFFFFFFFFFFFFFFFFFFFFFFFFFFFFFF AND PUSH20 0xFFFFFFFFFFFFFFFFFFFFFFFFFFFFFFFFFFFFFFFF AND DUP2 MSTORE PUSH1 0x20 ADD SWAP1 DUP2 MSTORE PUSH1 0x20 ADD PUSH1 0x0 KECCAK256 PUSH1 0x0 DUP3 DUP2 MSTORE PUSH1 0x20 ADD SWAP1 DUP2 MSTORE PUSH1 0x20 ADD PUSH1 0x0 KECCAK256 PUSH1 0x4 ADD PUSH1 0x0 SWAP1 SLOAD SWAP1 PUSH2 0x100 EXP SWAP1 DIV PUSH20 0xFFFFFFFFFFFFFFFFFFFFFFFFFFFFFFFFFFFFFFFF AND PUSH20 0xFFFFFFFFFFFFFFFFFFFFFFFFFFFFFFFFFFFFFFFF AND PUSH1 0x0 PUSH20 0xFFFFFFFFFFFFFFFFFFFFFFFFFFFFFFFFFFFFFFFF AND EQ PUSH2 0x278D JUMPI PUSH1 0x40 MLOAD PUSH32 0x8C379A000000000000000000000000000000000000000000000000000000000 DUP2 MSTORE PUSH1 0x4 ADD PUSH2 0x2784 SWAP1 PUSH2 0x4BB0 JUMP JUMPDEST PUSH1 0x40 MLOAD DUP1 SWAP2 SUB SWAP1 REVERT JUMPDEST PUSH1 0x0 PUSH1 0x2 PUSH1 0x0 DUP13 PUSH20 0xFFFFFFFFFFFFFFFFFFFFFFFFFFFFFFFFFFFFFFFF AND PUSH20 0xFFFFFFFFFFFFFFFFFFFFFFFFFFFFFFFFFFFFFFFF AND DUP2 MSTORE PUSH1 0x20 ADD SWAP1 DUP2 MSTORE PUSH1 0x20 ADD PUSH1 0x0 KECCAK256 PUSH1 0x0 DUP12 DUP2 MSTORE PUSH1 0x20 ADD SWAP1 DUP2 MSTORE PUSH1 0x20 ADD PUSH1 0x0 KECCAK256 DUP2 SWAP1 SSTORE POP DUP10 PUSH20 0xFFFFFFFFFFFFFFFFFFFFFFFFFFFFFFFFFFFFFFFF AND PUSH4 0x42842E0E ADDRESS CALLER DUP13 PUSH1 0x40 MLOAD DUP5 PUSH4 0xFFFFFFFF AND PUSH1 0xE0 SHL DUP2 MSTORE PUSH1 0x4 ADD PUSH2 0x2820 SWAP4 SWAP3 SWAP2 SWAP1 PUSH2 0x48A8 JUMP JUMPDEST PUSH1 0x0 PUSH1 0x40 MLOAD DUP1 DUP4 SUB DUP2 PUSH1 0x0 DUP8 DUP1 EXTCODESIZE ISZERO DUP1 ISZERO PUSH2 0x283A JUMPI PUSH1 0x0 DUP1 REVERT JUMPDEST POP GAS CALL ISZERO DUP1 ISZERO PUSH2 0x284E JUMPI RETURNDATASIZE PUSH1 0x0 DUP1 RETURNDATACOPY RETURNDATASIZE PUSH1 0x0 REVERT JUMPDEST POP POP POP POP PUSH1 0x7 PUSH1 0x5 PUSH1 0x0 DUP13 PUSH20 0xFFFFFFFFFFFFFFFFFFFFFFFFFFFFFFFFFFFFFFFF AND PUSH20 0xFFFFFFFFFFFFFFFFFFFFFFFFFFFFFFFFFFFFFFFF AND DUP2 MSTORE PUSH1 0x20 ADD SWAP1 DUP2 MSTORE PUSH1 0x20 ADD PUSH1 0x0 KECCAK256 PUSH1 0x0 DUP12 DUP2 MSTORE PUSH1 0x20 ADD SWAP1 DUP2 MSTORE PUSH1 0x20 ADD PUSH1 0x0 KECCAK256 SLOAD DUP2 SLOAD DUP2 LT PUSH2 0x28B6 JUMPI PUSH2 0x28B5 PUSH2 0x4E2F JUMP JUMPDEST JUMPDEST SWAP1 PUSH1 0x0 MSTORE PUSH1 0x20 PUSH1 0x0 KECCAK256 SWAP1 PUSH1 0x2 MUL ADD PUSH1 0x0 DUP1 DUP3 ADD PUSH1 0x0 PUSH2 0x100 EXP DUP2 SLOAD SWAP1 PUSH20 0xFFFFFFFFFFFFFFFFFFFFFFFFFFFFFFFFFFFFFFFF MUL NOT AND SWAP1 SSTORE PUSH1 0x1 DUP3 ADD PUSH1 0x0 SWAP1 SSTORE POP POP PUSH32 0xB9D411977D4EE731F87BB8F16EB6F8C1FB579CFF684642052BF6084E6E33238D DUP11 DUP11 CALLER PUSH1 0x40 MLOAD PUSH2 0x2929 SWAP4 SWAP3 SWAP2 SWAP1 PUSH2 0x494D JUMP JUMPDEST PUSH1 0x40 MLOAD DUP1 SWAP2 SUB SWAP1 LOG1 POP POP POP POP POP POP POP POP POP POP JUMP JUMPDEST PUSH2 0x2945 PUSH2 0x3FA4 JUMP JUMPDEST PUSH1 0x0 DUP1 DUP5 PUSH20 0xFFFFFFFFFFFFFFFFFFFFFFFFFFFFFFFFFFFFFFFF AND PUSH20 0xFFFFFFFFFFFFFFFFFFFFFFFFFFFFFFFFFFFFFFFF AND DUP2 MSTORE PUSH1 0x20 ADD SWAP1 DUP2 MSTORE PUSH1 0x20 ADD PUSH1 0x0 KECCAK256 PUSH1 0x0 DUP4 DUP2 MSTORE PUSH1 0x20 ADD SWAP1 DUP2 MSTORE PUSH1 0x20 ADD PUSH1 0x0 KECCAK256 PUSH1 0x40 MLOAD DUP1 PUSH1 0x80 ADD PUSH1 0x40 MSTORE SWAP1 DUP2 PUSH1 0x0 DUP3 ADD PUSH1 0x0 SWAP1 SLOAD SWAP1 PUSH2 0x100 EXP SWAP1 DIV PUSH20 0xFFFFFFFFFFFFFFFFFFFFFFFFFFFFFFFFFFFFFFFF AND PUSH20 0xFFFFFFFFFFFFFFFFFFFFFFFFFFFFFFFFFFFFFFFF AND PUSH20 0xFFFFFFFFFFFFFFFFFFFFFFFFFFFFFFFFFFFFFFFF AND DUP2 MSTORE PUSH1 0x20 ADD PUSH1 0x1 DUP3 ADD PUSH1 0x0 SWAP1 SLOAD SWAP1 PUSH2 0x100 EXP SWAP1 DIV PUSH20 0xFFFFFFFFFFFFFFFFFFFFFFFFFFFFFFFFFFFFFFFF AND PUSH20 0xFFFFFFFFFFFFFFFFFFFFFFFFFFFFFFFFFFFFFFFF AND PUSH20 0xFFFFFFFFFFFFFFFFFFFFFFFFFFFFFFFFFFFFFFFF AND DUP2 MSTORE PUSH1 0x20 ADD PUSH1 0x2 DUP3 ADD PUSH1 0x0 SWAP1 SLOAD SWAP1 PUSH2 0x100 EXP SWAP1 DIV PUSH20 0xFFFFFFFFFFFFFFFFFFFFFFFFFFFFFFFFFFFFFFFF AND PUSH20 0xFFFFFFFFFFFFFFFFFFFFFFFFFFFFFFFFFFFFFFFF AND PUSH20 0xFFFFFFFFFFFFFFFFFFFFFFFFFFFFFFFFFFFFFFFF AND DUP2 MSTORE PUSH1 0x20 ADD PUSH1 0x3 DUP3 ADD SLOAD DUP2 MSTORE POP POP SWAP1 POP SWAP3 SWAP2 POP POP JUMP JUMPDEST PUSH1 0x60 PUSH1 0x6 DUP1 SLOAD DUP1 PUSH1 0x20 MUL PUSH1 0x20 ADD PUSH1 0x40 MLOAD SWAP1 DUP2 ADD PUSH1 0x40 MSTORE DUP1 SWAP3 SWAP2 SWAP1 DUP2 DUP2 MSTORE PUSH1 0x20 ADD PUSH1 0x0 SWAP1 JUMPDEST DUP3 DUP3 LT ISZERO PUSH2 0x2B69 JUMPI DUP4 DUP3 SWAP1 PUSH1 0x0 MSTORE PUSH1 0x20 PUSH1 0x0 KECCAK256 SWAP1 PUSH1 0x2 MUL ADD PUSH1 0x40 MLOAD DUP1 PUSH1 0x40 ADD PUSH1 0x40 MSTORE SWAP1 DUP2 PUSH1 0x0 DUP3 ADD PUSH1 0x0 SWAP1 SLOAD SWAP1 PUSH2 0x100 EXP SWAP1 DIV PUSH20 0xFFFFFFFFFFFFFFFFFFFFFFFFFFFFFFFFFFFFFFFF AND PUSH20 0xFFFFFFFFFFFFFFFFFFFFFFFFFFFFFFFFFFFFFFFF AND PUSH20 0xFFFFFFFFFFFFFFFFFFFFFFFFFFFFFFFFFFFFFFFF AND DUP2 MSTORE PUSH1 0x20 ADD PUSH1 0x1 DUP3 ADD SLOAD DUP2 MSTORE POP POP DUP2 MSTORE PUSH1 0x20 ADD SWAP1 PUSH1 0x1 ADD SWAP1 PUSH2 0x2AD7 JUMP JUMPDEST POP POP POP POP SWAP1 POP SWAP1 JUMP JUMPDEST DUP3 DUP3 PUSH1 0x1 PUSH1 0x2 PUSH1 0x0 DUP5 PUSH20 0xFFFFFFFFFFFFFFFFFFFFFFFFFFFFFFFFFFFFFFFF AND PUSH20 0xFFFFFFFFFFFFFFFFFFFFFFFFFFFFFFFFFFFFFFFF AND DUP2 MSTORE PUSH1 0x20 ADD SWAP1 DUP2 MSTORE PUSH1 0x20 ADD PUSH1 0x0 KECCAK256 PUSH1 0x0 DUP4 DUP2 MSTORE PUSH1 0x20 ADD SWAP1 DUP2 MSTORE PUSH1 0x20 ADD PUSH1 0x0 KECCAK256 SLOAD EQ PUSH2 0x2C07 JUMPI PUSH1 0x40 MLOAD PUSH32 0x8C379A000000000000000000000000000000000000000000000000000000000 DUP2 MSTORE PUSH1 0x4 ADD PUSH2 0x2BFE SWAP1 PUSH2 0x4B10 JUMP JUMPDEST PUSH1 0x40 MLOAD DUP1 SWAP2 SUB SWAP1 REVERT JUMPDEST DUP3 PUSH1 0x0 DUP2 GT PUSH2 0x2C4B JUMPI PUSH1 0x40 MLOAD PUSH32 0x8C379A000000000000000000000000000000000000000000000000000000000 DUP2 MSTORE PUSH1 0x4 ADD PUSH2 0x2C42 SWAP1 PUSH2 0x4AD0 JUMP JUMPDEST PUSH1 0x40 MLOAD DUP1 SWAP2 SUB SWAP1 REVERT JUMPDEST DUP6 DUP6 DUP6 PUSH1 0x0 DUP1 DUP5 PUSH20 0xFFFFFFFFFFFFFFFFFFFFFFFFFFFFFFFFFFFFFFFF AND PUSH20 0xFFFFFFFFFFFFFFFFFFFFFFFFFFFFFFFFFFFFFFFF AND DUP2 MSTORE PUSH1 0x20 ADD SWAP1 DUP2 MSTORE PUSH1 0x20 ADD PUSH1 0x0 KECCAK256 PUSH1 0x0 DUP4 DUP2 MSTORE PUSH1 0x20 ADD SWAP1 DUP2 MSTORE PUSH1 0x20 ADD PUSH1 0x0 KECCAK256 PUSH1 0x3 ADD SLOAD DUP2 LT ISZERO PUSH2 0x2CE3 JUMPI PUSH1 0x40 MLOAD PUSH32 0x8C379A000000000000000000000000000000000000000000000000000000000 DUP2 MSTORE PUSH1 0x4 ADD PUSH2 0x2CDA SWAP1 PUSH2 0x4C50 JUMP JUMPDEST PUSH1 0x40 MLOAD DUP1 SWAP2 SUB SWAP1 REVERT JUMPDEST DUP9 PUSH20 0xFFFFFFFFFFFFFFFFFFFFFFFFFFFFFFFFFFFFFFFF AND PUSH4 0x42842E0E ADDRESS CALLER DUP12 PUSH1 0x40 MLOAD DUP5 PUSH4 0xFFFFFFFF AND PUSH1 0xE0 SHL DUP2 MSTORE PUSH1 0x4 ADD PUSH2 0x2D20 SWAP4 SWAP3 SWAP2 SWAP1 PUSH2 0x48A8 JUMP JUMPDEST PUSH1 0x0 PUSH1 0x40 MLOAD DUP1 DUP4 SUB DUP2 PUSH1 0x0 DUP8 DUP1 EXTCODESIZE ISZERO DUP1 ISZERO PUSH2 0x2D3A JUMPI PUSH1 0x0 DUP1 REVERT JUMPDEST POP GAS CALL ISZERO DUP1 ISZERO PUSH2 0x2D4E JUMPI RETURNDATASIZE PUSH1 0x0 DUP1 RETURNDATACOPY RETURNDATASIZE PUSH1 0x0 REVERT JUMPDEST POP POP POP POP PUSH1 0x0 PUSH1 0x2 PUSH1 0x0 DUP12 PUSH20 0xFFFFFFFFFFFFFFFFFFFFFFFFFFFFFFFFFFFFFFFF AND PUSH20 0xFFFFFFFFFFFFFFFFFFFFFFFFFFFFFFFFFFFFFFFF AND DUP2 MSTORE PUSH1 0x20 ADD SWAP1 DUP2 MSTORE PUSH1 0x20 ADD PUSH1 0x0 KECCAK256 PUSH1 0x0 DUP11 DUP2 MSTORE PUSH1 0x20 ADD SWAP1 DUP2 MSTORE PUSH1 0x20 ADD PUSH1 0x0 KECCAK256 DUP2 SWAP1 SSTORE POP PUSH1 0x6 PUSH1 0x4 PUSH1 0x0 DUP12 PUSH20 0xFFFFFFFFFFFFFFFFFFFFFFFFFFFFFFFFFFFFFFFF AND PUSH20 0xFFFFFFFFFFFFFFFFFFFFFFFFFFFFFFFFFFFFFFFF AND DUP2 MSTORE PUSH1 0x20 ADD SWAP1 DUP2 MSTORE PUSH1 0x20 ADD PUSH1 0x0 KECCAK256 PUSH1 0x0 DUP11 DUP2 MSTORE PUSH1 0x20 ADD SWAP1 DUP2 MSTORE PUSH1 0x20 ADD PUSH1 0x0 KECCAK256 SLOAD DUP2 SLOAD DUP2 LT PUSH2 0x2E0C JUMPI PUSH2 0x2E0B PUSH2 0x4E2F JUMP JUMPDEST JUMPDEST SWAP1 PUSH1 0x0 MSTORE PUSH1 0x20 PUSH1 0x0 KECCAK256 SWAP1 PUSH1 0x2 MUL ADD PUSH1 0x0 DUP1 DUP3 ADD PUSH1 0x0 PUSH2 0x100 EXP DUP2 SLOAD SWAP1 PUSH20 0xFFFFFFFFFFFFFFFFFFFFFFFFFFFFFFFFFFFFFFFF MUL NOT AND SWAP1 SSTORE PUSH1 0x1 DUP3 ADD PUSH1 0x0 SWAP1 SSTORE POP POP CALLER PUSH1 0x0 DUP1 DUP12 PUSH20 0xFFFFFFFFFFFFFFFFFFFFFFFFFFFFFFFFFFFFFFFF AND PUSH20 0xFFFFFFFFFFFFFFFFFFFFFFFFFFFFFFFFFFFFFFFF AND DUP2 MSTORE PUSH1 0x20 ADD SWAP1 DUP2 MSTORE PUSH1 0x20 ADD PUSH1 0x0 KECCAK256 PUSH1 0x0 DUP11 DUP2 MSTORE PUSH1 0x20 ADD SWAP1 DUP2 MSTORE PUSH1 0x20 ADD PUSH1 0x0 KECCAK256 PUSH1 0x1 ADD PUSH1 0x0 PUSH2 0x100 EXP DUP2 SLOAD DUP2 PUSH20 0xFFFFFFFFFFFFFFFFFFFFFFFFFFFFFFFFFFFFFFFF MUL NOT AND SWAP1 DUP4 PUSH20 0xFFFFFFFFFFFFFFFFFFFFFFFFFFFFFFFFFFFFFFFF AND MUL OR SWAP1 SSTORE POP PUSH2 0x301E PUSH1 0x0 DUP1 DUP12 PUSH20 0xFFFFFFFFFFFFFFFFFFFFFFFFFFFFFFFFFFFFFFFF AND PUSH20 0xFFFFFFFFFFFFFFFFFFFFFFFFFFFFFFFFFFFFFFFF AND DUP2 MSTORE PUSH1 0x20 ADD SWAP1 DUP2 MSTORE PUSH1 0x20 ADD PUSH1 0x0 KECCAK256 PUSH1 0x0 DUP11 DUP2 MSTORE PUSH1 0x20 ADD SWAP1 DUP2 MSTORE PUSH1 0x20 ADD PUSH1 0x0 KECCAK256 PUSH1 0x0 ADD PUSH1 0x0 SWAP1 SLOAD SWAP1 PUSH2 0x100 EXP SWAP1 DIV PUSH20 0xFFFFFFFFFFFFFFFFFFFFFFFFFFFFFFFFFFFFFFFF AND PUSH1 0x0 DUP1 DUP13 PUSH20 0xFFFFFFFFFFFFFFFFFFFFFFFFFFFFFFFFFFFFFFFF AND PUSH20 0xFFFFFFFFFFFFFFFFFFFFFFFFFFFFFFFFFFFFFFFF AND DUP2 MSTORE PUSH1 0x20 ADD SWAP1 DUP2 MSTORE PUSH1 0x20 ADD PUSH1 0x0 KECCAK256 PUSH1 0x0 DUP12 DUP2 MSTORE PUSH1 0x20 ADD SWAP1 DUP2 MSTORE PUSH1 0x20 ADD PUSH1 0x0 KECCAK256 PUSH1 0x2 ADD PUSH1 0x0 SWAP1 SLOAD SWAP1 PUSH2 0x100 EXP SWAP1 DIV PUSH20 0xFFFFFFFFFFFFFFFFFFFFFFFFFFFFFFFFFFFFFFFF AND PUSH1 0x0 DUP1 DUP14 PUSH20 0xFFFFFFFFFFFFFFFFFFFFFFFFFFFFFFFFFFFFFFFF AND PUSH20 0xFFFFFFFFFFFFFFFFFFFFFFFFFFFFFFFFFFFFFFFF AND DUP2 MSTORE PUSH1 0x20 ADD SWAP1 DUP2 MSTORE PUSH1 0x20 ADD PUSH1 0x0 KECCAK256 PUSH1 0x0 DUP13 DUP2 MSTORE PUSH1 0x20 ADD SWAP1 DUP2 MSTORE PUSH1 0x20 ADD PUSH1 0x0 KECCAK256 PUSH1 0x3 ADD SLOAD PUSH2 0x3A2D JUMP JUMPDEST PUSH32 0x9FA3B1BB9266E05722B54A7A564D02A274BC80D39F4AF21E6BE405480996CEBA DUP10 CALLER DUP11 DUP11 PUSH1 0x40 MLOAD PUSH2 0x3053 SWAP5 SWAP4 SWAP3 SWAP2 SWAP1 PUSH2 0x48DF JUMP JUMPDEST PUSH1 0x40 MLOAD DUP1 SWAP2 SUB SWAP1 LOG1 POP POP POP POP POP POP POP POP POP JUMP JUMPDEST DUP6 DUP5 DUP2 PUSH20 0xFFFFFFFFFFFFFFFFFFFFFFFFFFFFFFFFFFFFFFFF AND PUSH4 0x6352211E DUP3 PUSH1 0x40 MLOAD DUP3 PUSH4 0xFFFFFFFF AND PUSH1 0xE0 SHL DUP2 MSTORE PUSH1 0x4 ADD PUSH2 0x30A1 SWAP2 SWAP1 PUSH2 0x4CC6 JUMP JUMPDEST PUSH1 0x20 PUSH1 0x40 MLOAD DUP1 DUP4 SUB DUP2 DUP7 DUP1 EXTCODESIZE ISZERO DUP1 ISZERO PUSH2 0x30B9 JUMPI PUSH1 0x0 DUP1 REVERT JUMPDEST POP GAS STATICCALL ISZERO DUP1 ISZERO PUSH2 0x30CD JUMPI RETURNDATASIZE PUSH1 0x0 DUP1 RETURNDATACOPY RETURNDATASIZE PUSH1 0x0 REVERT JUMPDEST POP POP POP POP PUSH1 0x40 MLOAD RETURNDATASIZE PUSH1 0x1F NOT PUSH1 0x1F DUP3 ADD AND DUP3 ADD DUP1 PUSH1 0x40 MSTORE POP DUP2 ADD SWAP1 PUSH2 0x30F1 SWAP2 SWAP1 PUSH2 0x40B8 JUMP JUMPDEST PUSH20 0xFFFFFFFFFFFFFFFFFFFFFFFFFFFFFFFFFFFFFFFF AND CALLER PUSH20 0xFFFFFFFFFFFFFFFFFFFFFFFFFFFFFFFFFFFFFFFF AND EQ PUSH2 0x315E JUMPI PUSH1 0x40 MLOAD PUSH32 0x8C379A000000000000000000000000000000000000000000000000000000000 DUP2 MSTORE PUSH1 0x4 ADD PUSH2 0x3155 SWAP1 PUSH2 0x4C10 JUMP JUMPDEST PUSH1 0x40 MLOAD DUP1 SWAP2 SUB SWAP1 REVERT JUMPDEST DUP8 DUP7 PUSH1 0x0 PUSH1 0x2 PUSH1 0x0 DUP5 PUSH20 0xFFFFFFFFFFFFFFFFFFFFFFFFFFFFFFFFFFFFFFFF AND PUSH20 0xFFFFFFFFFFFFFFFFFFFFFFFFFFFFFFFFFFFFFFFF AND DUP2 MSTORE PUSH1 0x20 ADD SWAP1 DUP2 MSTORE PUSH1 0x20 ADD PUSH1 0x0 KECCAK256 PUSH1 0x0 DUP4 DUP2 MSTORE PUSH1 0x20 ADD SWAP1 DUP2 MSTORE PUSH1 0x20 ADD PUSH1 0x0 KECCAK256 SLOAD EQ PUSH2 0x31F3 JUMPI PUSH1 0x40 MLOAD PUSH32 0x8C379A000000000000000000000000000000000000000000000000000000000 DUP2 MSTORE PUSH1 0x4 ADD PUSH2 0x31EA SWAP1 PUSH2 0x4B90 JUMP JUMPDEST PUSH1 0x40 MLOAD DUP1 SWAP2 SUB SWAP1 REVERT JUMPDEST DUP10 DUP9 DUP2 PUSH20 0xFFFFFFFFFFFFFFFFFFFFFFFFFFFFFFFFFFFFFFFF AND PUSH4 0xE985E9C5 CALLER ADDRESS PUSH1 0x40 MLOAD DUP4 PUSH4 0xFFFFFFFF AND PUSH1 0xE0 SHL DUP2 MSTORE PUSH1 0x4 ADD PUSH2 0x3230 SWAP3 SWAP2 SWAP1 PUSH2 0x47AF JUMP JUMPDEST PUSH1 0x20 PUSH1 0x40 MLOAD DUP1 DUP4 SUB DUP2 DUP7 DUP1 EXTCODESIZE ISZERO DUP1 ISZERO PUSH2 0x3248 JUMPI PUSH1 0x0 DUP1 REVERT JUMPDEST POP GAS STATICCALL ISZERO DUP1 ISZERO PUSH2 0x325C JUMPI RETURNDATASIZE PUSH1 0x0 DUP1 RETURNDATACOPY RETURNDATASIZE PUSH1 0x0 REVERT JUMPDEST POP POP POP POP PUSH1 0x40 MLOAD RETURNDATASIZE PUSH1 0x1F NOT PUSH1 0x1F DUP3 ADD AND DUP3 ADD DUP1 PUSH1 0x40 MSTORE POP DUP2 ADD SWAP1 PUSH2 0x3280 SWAP2 SWAP1 PUSH2 0x4347 JUMP JUMPDEST PUSH2 0x32BF JUMPI PUSH1 0x40 MLOAD PUSH32 0x8C379A000000000000000000000000000000000000000000000000000000000 DUP2 MSTORE PUSH1 0x4 ADD PUSH2 0x32B6 SWAP1 PUSH2 0x4AB0 JUMP JUMPDEST PUSH1 0x40 MLOAD DUP1 SWAP2 SUB SWAP1 REVERT JUMPDEST DUP7 PUSH1 0x0 DUP2 GT PUSH2 0x3303 JUMPI PUSH1 0x40 MLOAD PUSH32 0x8C379A000000000000000000000000000000000000000000000000000000000 DUP2 MSTORE PUSH1 0x4 ADD PUSH2 0x32FA SWAP1 PUSH2 0x4AD0 JUMP JUMPDEST PUSH1 0x40 MLOAD DUP1 SWAP2 SUB SWAP1 REVERT JUMPDEST PUSH2 0x3311 DUP14 DUP14 DUP14 DUP14 DUP14 DUP14 PUSH2 0x3A81 JUMP JUMPDEST PUSH1 0x7 DUP1 SLOAD SWAP1 POP PUSH1 0x5 PUSH1 0x0 DUP16 PUSH20 0xFFFFFFFFFFFFFFFFFFFFFFFFFFFFFFFFFFFFFFFF AND PUSH20 0xFFFFFFFFFFFFFFFFFFFFFFFFFFFFFFFFFFFFFFFF AND DUP2 MSTORE PUSH1 0x20 ADD SWAP1 DUP2 MSTORE PUSH1 0x20 ADD PUSH1 0x0 KECCAK256 PUSH1 0x0 DUP14 DUP2 MSTORE PUSH1 0x20 ADD SWAP1 DUP2 MSTORE PUSH1 0x20 ADD PUSH1 0x0 KECCAK256 DUP2 SWAP1 SSTORE POP PUSH1 0x7 PUSH1 0x40 MLOAD DUP1 PUSH1 0x40 ADD PUSH1 0x40 MSTORE DUP1 DUP16 PUSH20 0xFFFFFFFFFFFFFFFFFFFFFFFFFFFFFFFFFFFFFFFF AND DUP2 MSTORE PUSH1 0x20 ADD DUP14 DUP2 MSTORE POP SWAP1 DUP1 PUSH1 0x1 DUP2 SLOAD ADD DUP1 DUP3 SSTORE DUP1 SWAP2 POP POP PUSH1 0x1 SWAP1 SUB SWAP1 PUSH1 0x0 MSTORE PUSH1 0x20 PUSH1 0x0 KECCAK256 SWAP1 PUSH1 0x2 MUL ADD PUSH1 0x0 SWAP1 SWAP2 SWAP1 SWAP2 SWAP1 SWAP2 POP PUSH1 0x0 DUP3 ADD MLOAD DUP2 PUSH1 0x0 ADD PUSH1 0x0 PUSH2 0x100 EXP DUP2 SLOAD DUP2 PUSH20 0xFFFFFFFFFFFFFFFFFFFFFFFFFFFFFFFFFFFFFFFF MUL NOT AND SWAP1 DUP4 PUSH20 0xFFFFFFFFFFFFFFFFFFFFFFFFFFFFFFFFFFFFFFFF AND MUL OR SWAP1 SSTORE POP PUSH1 0x20 DUP3 ADD MLOAD DUP2 PUSH1 0x1 ADD SSTORE POP POP PUSH32 0xECBC6A097DA08DBF6F781CE204AAD454CE3DC8F112C51C7A56F1671DE89CEE8C DUP14 CALLER DUP15 DUP15 DUP15 DUP15 DUP15 PUSH1 0x40 MLOAD PUSH2 0x344F SWAP8 SWAP7 SWAP6 SWAP5 SWAP4 SWAP3 SWAP2 SWAP1 PUSH2 0x4839 JUMP JUMPDEST PUSH1 0x40 MLOAD DUP1 SWAP2 SUB SWAP1 LOG1 POP POP POP POP POP POP POP POP POP POP POP POP POP JUMP JUMPDEST DUP2 DUP2 PUSH1 0x1 PUSH1 0x2 PUSH1 0x0 DUP5 PUSH20 0xFFFFFFFFFFFFFFFFFFFFFFFFFFFFFFFFFFFFFFFF AND PUSH20 0xFFFFFFFFFFFFFFFFFFFFFFFFFFFFFFFFFFFFFFFF AND DUP2 MSTORE PUSH1 0x20 ADD SWAP1 DUP2 MSTORE PUSH1 0x20 ADD PUSH1 0x0 KECCAK256 PUSH1 0x0 DUP4 DUP2 MSTORE PUSH1 0x20 ADD SWAP1 DUP2 MSTORE PUSH1 0x20 ADD PUSH1 0x0 KECCAK256 SLOAD EQ PUSH2 0x34FB JUMPI PUSH1 0x40 MLOAD PUSH32 0x8C379A000000000000000000000000000000000000000000000000000000000 DUP2 MSTORE PUSH1 0x4 ADD PUSH2 0x34F2 SWAP1 PUSH2 0x4B10 JUMP JUMPDEST PUSH1 0x40 MLOAD DUP1 SWAP2 SUB SWAP1 REVERT JUMPDEST DUP4 DUP4 PUSH1 0x0 DUP1 DUP4 PUSH20 0xFFFFFFFFFFFFFFFFFFFFFFFFFFFFFFFFFFFFFFFF AND PUSH20 0xFFFFFFFFFFFFFFFFFFFFFFFFFFFFFFFFFFFFFFFF AND DUP2 MSTORE PUSH1 0x20 ADD SWAP1 DUP2 MSTORE PUSH1 0x20 ADD PUSH1 0x0 KECCAK256 PUSH1 0x0 DUP3 DUP2 MSTORE PUSH1 0x20 ADD SWAP1 DUP2 MSTORE PUSH1 0x20 ADD PUSH1 0x0 KECCAK256 PUSH1 0x0 ADD PUSH1 0x0 SWAP1 SLOAD SWAP1 PUSH2 0x100 EXP SWAP1 DIV PUSH20 0xFFFFFFFFFFFFFFFFFFFFFFFFFFFFFFFFFFFFFFFF AND PUSH20 0xFFFFFFFFFFFFFFFFFFFFFFFFFFFFFFFFFFFFFFFF AND CALLER PUSH20 0xFFFFFFFFFFFFFFFFFFFFFFFFFFFFFFFFFFFFFFFF AND EQ PUSH2 0x35DD JUMPI PUSH1 0x40 MLOAD PUSH32 0x8C379A000000000000000000000000000000000000000000000000000000000 DUP2 MSTORE PUSH1 0x4 ADD PUSH2 0x35D4 SWAP1 PUSH2 0x4C10 JUMP JUMPDEST PUSH1 0x40 MLOAD DUP1 SWAP2 SUB SWAP1 REVERT JUMPDEST DUP6 PUSH20 0xFFFFFFFFFFFFFFFFFFFFFFFFFFFFFFFFFFFFFFFF AND PUSH4 0x42842E0E ADDRESS CALLER DUP9 PUSH1 0x40 MLOAD DUP5 PUSH4 0xFFFFFFFF AND PUSH1 0xE0 SHL DUP2 MSTORE PUSH1 0x4 ADD PUSH2 0x361A SWAP4 SWAP3 SWAP2 SWAP1 PUSH2 0x48A8 JUMP JUMPDEST PUSH1 0x0 PUSH1 0x40 MLOAD DUP1 DUP4 SUB DUP2 PUSH1 0x0 DUP8 DUP1 EXTCODESIZE ISZERO DUP1 ISZERO PUSH2 0x3634 JUMPI PUSH1 0x0 DUP1 REVERT JUMPDEST POP GAS CALL ISZERO DUP1 ISZERO PUSH2 0x3648 JUMPI RETURNDATASIZE PUSH1 0x0 DUP1 RETURNDATACOPY RETURNDATASIZE PUSH1 0x0 REVERT JUMPDEST POP POP POP POP PUSH1 0x0 PUSH1 0x2 PUSH1 0x0 DUP9 PUSH20 0xFFFFFFFFFFFFFFFFFFFFFFFFFFFFFFFFFFFFFFFF AND PUSH20 0xFFFFFFFFFFFFFFFFFFFFFFFFFFFFFFFFFFFFFFFF AND DUP2 MSTORE PUSH1 0x20 ADD SWAP1 DUP2 MSTORE PUSH1 0x20 ADD PUSH1 0x0 KECCAK256 PUSH1 0x0 DUP8 DUP2 MSTORE PUSH1 0x20 ADD SWAP1 DUP2 MSTORE PUSH1 0x20 ADD PUSH1 0x0 KECCAK256 DUP2 SWAP1 SSTORE POP PUSH1 0x6 PUSH1 0x4 PUSH1 0x0 DUP9 PUSH20 0xFFFFFFFFFFFFFFFFFFFFFFFFFFFFFFFFFFFFFFFF AND PUSH20 0xFFFFFFFFFFFFFFFFFFFFFFFFFFFFFFFFFFFFFFFF AND DUP2 MSTORE PUSH1 0x20 ADD SWAP1 DUP2 MSTORE PUSH1 0x20 ADD PUSH1 0x0 KECCAK256 PUSH1 0x0 DUP8 DUP2 MSTORE PUSH1 0x20 ADD SWAP1 DUP2 MSTORE PUSH1 0x20 ADD PUSH1 0x0 KECCAK256 SLOAD DUP2 SLOAD DUP2 LT PUSH2 0x3706 JUMPI PUSH2 0x3705 PUSH2 0x4E2F JUMP JUMPDEST JUMPDEST SWAP1 PUSH1 0x0 MSTORE PUSH1 0x20 PUSH1 0x0 KECCAK256 SWAP1 PUSH1 0x2 MUL ADD PUSH1 0x0 DUP1 DUP3 ADD PUSH1 0x0 PUSH2 0x100 EXP DUP2 SLOAD SWAP1 PUSH20 0xFFFFFFFFFFFFFFFFFFFFFFFFFFFFFFFFFFFFFFFF MUL NOT AND SWAP1 SSTORE PUSH1 0x1 DUP3 ADD PUSH1 0x0 SWAP1 SSTORE POP POP PUSH32 0xD7348FF00CF381A884144B50B3441398A48A7974EC349287DF80E18CEC9F5A31 DUP7 CALLER DUP8 PUSH1 0x40 MLOAD PUSH2 0x3779 SWAP4 SWAP3 SWAP2 SWAP1 PUSH2 0x48A8 JUMP JUMPDEST PUSH1 0x40 MLOAD DUP1 SWAP2 SUB SWAP1 LOG1 POP POP POP POP POP POP JUMP JUMPDEST DUP1 PUSH20 0xFFFFFFFFFFFFFFFFFFFFFFFFFFFFFFFFFFFFFFFF AND PUSH4 0x23B872DD CALLER ADDRESS DUP6 PUSH1 0x40 MLOAD DUP5 PUSH4 0xFFFFFFFF AND PUSH1 0xE0 SHL DUP2 MSTORE PUSH1 0x4 ADD PUSH2 0x37C6 SWAP4 SWAP3 SWAP2 SWAP1 PUSH2 0x48A8 JUMP JUMPDEST PUSH1 0x20 PUSH1 0x40 MLOAD DUP1 DUP4 SUB DUP2 PUSH1 0x0 DUP8 DUP1 EXTCODESIZE ISZERO DUP1 ISZERO PUSH2 0x37E0 JUMPI PUSH1 0x0 DUP1 REVERT JUMPDEST POP GAS CALL ISZERO DUP1 ISZERO PUSH2 0x37F4 JUMPI RETURNDATASIZE PUSH1 0x0 DUP1 RETURNDATACOPY RETURNDATASIZE PUSH1 0x0 REVERT JUMPDEST POP POP POP POP PUSH1 0x40 MLOAD RETURNDATASIZE PUSH1 0x1F NOT PUSH1 0x1F DUP3 ADD AND DUP3 ADD DUP1 PUSH1 0x40 MSTORE POP DUP2 ADD SWAP1 PUSH2 0x3818 SWAP2 SWAP1 PUSH2 0x4347 JUMP JUMPDEST PUSH2 0x3857 JUMPI PUSH1 0x40 MLOAD PUSH32 0x8C379A000000000000000000000000000000000000000000000000000000000 DUP2 MSTORE PUSH1 0x4 ADD PUSH2 0x384E SWAP1 PUSH2 0x4BD0 JUMP JUMPDEST PUSH1 0x40 MLOAD DUP1 SWAP2 SUB SWAP1 REVERT JUMPDEST POP POP JUMP JUMPDEST PUSH1 0x0 DUP2 DUP4 PUSH2 0x3869 SWAP2 SWAP1 PUSH2 0x4D36 JUMP JUMPDEST SWAP1 POP SWAP3 SWAP2 POP POP JUMP JUMPDEST DUP4 PUSH20 0xFFFFFFFFFFFFFFFFFFFFFFFFFFFFFFFFFFFFFFFF AND PUSH4 0x42842E0E ADDRESS DUP4 DUP7 PUSH1 0x40 MLOAD DUP5 PUSH4 0xFFFFFFFF AND PUSH1 0xE0 SHL DUP2 MSTORE PUSH1 0x4 ADD PUSH2 0x38AE SWAP4 SWAP3 SWAP2 SWAP1 PUSH2 0x48A8 JUMP JUMPDEST PUSH1 0x0 PUSH1 0x40 MLOAD DUP1 DUP4 SUB DUP2 PUSH1 0x0 DUP8 DUP1 EXTCODESIZE ISZERO DUP1 ISZERO PUSH2 0x38C8 JUMPI PUSH1 0x0 DUP1 REVERT JUMPDEST POP GAS CALL ISZERO DUP1 ISZERO PUSH2 0x38DC JUMPI RETURNDATASIZE PUSH1 0x0 DUP1 RETURNDATACOPY RETURNDATASIZE PUSH1 0x0 REVERT JUMPDEST POP POP POP POP PUSH1 0x0 PUSH1 0x2 PUSH1 0x0 DUP7 PUSH20 0xFFFFFFFFFFFFFFFFFFFFFFFFFFFFFFFFFFFFFFFF AND PUSH20 0xFFFFFFFFFFFFFFFFFFFFFFFFFFFFFFFFFFFFFFFF AND DUP2 MSTORE PUSH1 0x20 ADD SWAP1 DUP2 MSTORE PUSH1 0x20 ADD PUSH1 0x0 KECCAK256 PUSH1 0x0 DUP6 DUP2 MSTORE PUSH1 0x20 ADD SWAP1 DUP2 MSTORE PUSH1 0x20 ADD PUSH1 0x0 KECCAK256 DUP2 SWAP1 SSTORE POP PUSH2 0x3A27 PUSH1 0x1 PUSH1 0x0 DUP7 PUSH20 0xFFFFFFFFFFFFFFFFFFFFFFFFFFFFFFFFFFFFFFFF AND PUSH20 0xFFFFFFFFFFFFFFFFFFFFFFFFFFFFFFFFFFFFFFFF AND DUP2 MSTORE PUSH1 0x20 ADD SWAP1 DUP2 MSTORE PUSH1 0x20 ADD PUSH1 0x0 KECCAK256 PUSH1 0x0 DUP6 DUP2 MSTORE PUSH1 0x20 ADD SWAP1 DUP2 MSTORE PUSH1 0x20 ADD PUSH1 0x0 KECCAK256 PUSH1 0x5 ADD PUSH1 0x0 SWAP1 SLOAD SWAP1 PUSH2 0x100 EXP SWAP1 DIV PUSH20 0xFFFFFFFFFFFFFFFFFFFFFFFFFFFFFFFFFFFFFFFF AND PUSH1 0x1 PUSH1 0x0 DUP8 PUSH20 0xFFFFFFFFFFFFFFFFFFFFFFFFFFFFFFFFFFFFFFFF AND PUSH20 0xFFFFFFFFFFFFFFFFFFFFFFFFFFFFFFFFFFFFFFFF AND DUP2 MSTORE PUSH1 0x20 ADD SWAP1 DUP2 MSTORE PUSH1 0x20 ADD PUSH1 0x0 KECCAK256 PUSH1 0x0 DUP7 DUP2 MSTORE PUSH1 0x20 ADD SWAP1 DUP2 MSTORE PUSH1 0x20 ADD PUSH1 0x0 KECCAK256 PUSH1 0x6 ADD PUSH1 0x0 SWAP1 SLOAD SWAP1 PUSH2 0x100 EXP SWAP1 DIV PUSH20 0xFFFFFFFFFFFFFFFFFFFFFFFFFFFFFFFFFFFFFFFF AND DUP5 PUSH2 0x3A2D JUMP JUMPDEST POP POP POP POP JUMP JUMPDEST PUSH1 0x0 PUSH20 0xFFFFFFFFFFFFFFFFFFFFFFFFFFFFFFFFFFFFFFFF AND DUP3 PUSH20 0xFFFFFFFFFFFFFFFFFFFFFFFFFFFFFFFFFFFFFFFF AND EQ PUSH2 0x3A71 JUMPI PUSH2 0x3A6C DUP4 DUP4 DUP4 PUSH2 0x3D13 JUMP JUMPDEST PUSH2 0x3A7C JUMP JUMPDEST PUSH2 0x3A7B DUP4 DUP3 PUSH2 0x3E74 JUMP JUMPDEST JUMPDEST POP POP POP JUMP JUMPDEST PUSH1 0x40 MLOAD DUP1 PUSH1 0xE0 ADD PUSH1 0x40 MSTORE DUP1 DUP5 DUP2 MSTORE PUSH1 0x20 ADD DUP4 DUP2 MSTORE PUSH1 0x20 ADD DUP3 DUP2 MSTORE PUSH1 0x20 ADD DUP3 DUP2 MSTORE PUSH1 0x20 ADD PUSH1 0x0 PUSH20 0xFFFFFFFFFFFFFFFFFFFFFFFFFFFFFFFFFFFFFFFF AND DUP2 MSTORE PUSH1 0x20 ADD CALLER PUSH20 0xFFFFFFFFFFFFFFFFFFFFFFFFFFFFFFFFFFFFFFFF AND DUP2 MSTORE PUSH1 0x20 ADD DUP7 PUSH20 0xFFFFFFFFFFFFFFFFFFFFFFFFFFFFFFFFFFFFFFFF AND DUP2 MSTORE POP PUSH1 0x1 PUSH1 0x0 DUP9 PUSH20 0xFFFFFFFFFFFFFFFFFFFFFFFFFFFFFFFFFFFFFFFF AND PUSH20 0xFFFFFFFFFFFFFFFFFFFFFFFFFFFFFFFFFFFFFFFF AND DUP2 MSTORE PUSH1 0x20 ADD SWAP1 DUP2 MSTORE PUSH1 0x20 ADD PUSH1 0x0 KECCAK256 PUSH1 0x0 DUP7 DUP2 MSTORE PUSH1 0x20 ADD SWAP1 DUP2 MSTORE PUSH1 0x20 ADD PUSH1 0x0 KECCAK256 PUSH1 0x0 DUP3 ADD MLOAD DUP2 PUSH1 0x0 ADD SSTORE PUSH1 0x20 DUP3 ADD MLOAD DUP2 PUSH1 0x1 ADD SSTORE PUSH1 0x40 DUP3 ADD MLOAD DUP2 PUSH1 0x2 ADD SSTORE PUSH1 0x60 DUP3 ADD MLOAD DUP2 PUSH1 0x3 ADD SSTORE PUSH1 0x80 DUP3 ADD MLOAD DUP2 PUSH1 0x4 ADD PUSH1 0x0 PUSH2 0x100 EXP DUP2 SLOAD DUP2 PUSH20 0xFFFFFFFFFFFFFFFFFFFFFFFFFFFFFFFFFFFFFFFF MUL NOT AND SWAP1 DUP4 PUSH20 0xFFFFFFFFFFFFFFFFFFFFFFFFFFFFFFFFFFFFFFFF AND MUL OR SWAP1 SSTORE POP PUSH1 0xA0 DUP3 ADD MLOAD DUP2 PUSH1 0x5 ADD PUSH1 0x0 PUSH2 0x100 EXP DUP2 SLOAD DUP2 PUSH20 0xFFFFFFFFFFFFFFFFFFFFFFFFFFFFFFFFFFFFFFFF MUL NOT AND SWAP1 DUP4 PUSH20 0xFFFFFFFFFFFFFFFFFFFFFFFFFFFFFFFFFFFFFFFF AND MUL OR SWAP1 SSTORE POP PUSH1 0xC0 DUP3 ADD MLOAD DUP2 PUSH1 0x6 ADD PUSH1 0x0 PUSH2 0x100 EXP DUP2 SLOAD DUP2 PUSH20 0xFFFFFFFFFFFFFFFFFFFFFFFFFFFFFFFFFFFFFFFF MUL NOT AND SWAP1 DUP4 PUSH20 0xFFFFFFFFFFFFFFFFFFFFFFFFFFFFFFFFFFFFFFFF AND MUL OR SWAP1 SSTORE POP SWAP1 POP POP PUSH1 0x2 DUP1 PUSH1 0x0 DUP9 PUSH20 0xFFFFFFFFFFFFFFFFFFFFFFFFFFFFFFFFFFFFFFFF AND PUSH20 0xFFFFFFFFFFFFFFFFFFFFFFFFFFFFFFFFFFFFFFFF AND DUP2 MSTORE PUSH1 0x20 ADD SWAP1 DUP2 MSTORE PUSH1 0x20 ADD PUSH1 0x0 KECCAK256 PUSH1 0x0 DUP7 DUP2 MSTORE PUSH1 0x20 ADD SWAP1 DUP2 MSTORE PUSH1 0x20 ADD PUSH1 0x0 KECCAK256 DUP2 SWAP1 SSTORE POP DUP6 PUSH20 0xFFFFFFFFFFFFFFFFFFFFFFFFFFFFFFFFFFFFFFFF AND PUSH4 0x42842E0E CALLER ADDRESS DUP8 PUSH1 0x40 MLOAD DUP5 PUSH4 0xFFFFFFFF AND PUSH1 0xE0 SHL DUP2 MSTORE PUSH1 0x4 ADD PUSH2 0x3CD9 SWAP4 SWAP3 SWAP2 SWAP1 PUSH2 0x48A8 JUMP JUMPDEST PUSH1 0x0 PUSH1 0x40 MLOAD DUP1 DUP4 SUB DUP2 PUSH1 0x0 DUP8 DUP1 EXTCODESIZE ISZERO DUP1 ISZERO PUSH2 0x3CF3 JUMPI PUSH1 0x0 DUP1 REVERT JUMPDEST POP GAS CALL ISZERO DUP1 ISZERO PUSH2 0x3D07 JUMPI RETURNDATASIZE PUSH1 0x0 DUP1 RETURNDATACOPY RETURNDATASIZE PUSH1 0x0 REVERT JUMPDEST POP POP POP POP POP POP POP POP POP POP JUMP JUMPDEST DUP2 PUSH20 0xFFFFFFFFFFFFFFFFFFFFFFFFFFFFFFFFFFFFFFFF AND PUSH4 0x23B872DD CALLER ADDRESS DUP5 PUSH1 0x40 MLOAD DUP5 PUSH4 0xFFFFFFFF AND PUSH1 0xE0 SHL DUP2 MSTORE PUSH1 0x4 ADD PUSH2 0x3D50 SWAP4 SWAP3 SWAP2 SWAP1 PUSH2 0x48A8 JUMP JUMPDEST PUSH1 0x20 PUSH1 0x40 MLOAD DUP1 DUP4 SUB DUP2 PUSH1 0x0 DUP8 DUP1 EXTCODESIZE ISZERO DUP1 ISZERO PUSH2 0x3D6A JUMPI PUSH1 0x0 DUP1 REVERT JUMPDEST POP GAS CALL ISZERO DUP1 ISZERO PUSH2 0x3D7E JUMPI RETURNDATASIZE PUSH1 0x0 DUP1 RETURNDATACOPY RETURNDATASIZE PUSH1 0x0 REVERT JUMPDEST POP POP POP POP PUSH1 0x40 MLOAD RETURNDATASIZE PUSH1 0x1F NOT PUSH1 0x1F DUP3 ADD AND DUP3 ADD DUP1 PUSH1 0x40 MSTORE POP DUP2 ADD SWAP1 PUSH2 0x3DA2 SWAP2 SWAP1 PUSH2 0x4347 JUMP JUMPDEST PUSH2 0x3DE1 JUMPI PUSH1 0x40 MLOAD PUSH32 0x8C379A000000000000000000000000000000000000000000000000000000000 DUP2 MSTORE PUSH1 0x4 ADD PUSH2 0x3DD8 SWAP1 PUSH2 0x4BD0 JUMP JUMPDEST PUSH1 0x40 MLOAD DUP1 SWAP2 SUB SWAP1 REVERT JUMPDEST DUP2 PUSH20 0xFFFFFFFFFFFFFFFFFFFFFFFFFFFFFFFFFFFFFFFF AND PUSH4 0xA9059CBB DUP5 DUP4 PUSH1 0x40 MLOAD DUP4 PUSH4 0xFFFFFFFF AND PUSH1 0xE0 SHL DUP2 MSTORE PUSH1 0x4 ADD PUSH2 0x3E1C SWAP3 SWAP2 SWAP1 PUSH2 0x4924 JUMP JUMPDEST PUSH1 0x20 PUSH1 0x40 MLOAD DUP1 DUP4 SUB DUP2 PUSH1 0x0 DUP8 DUP1 EXTCODESIZE ISZERO DUP1 ISZERO PUSH2 0x3E36 JUMPI PUSH1 0x0 DUP1 REVERT JUMPDEST POP GAS CALL ISZERO DUP1 ISZERO PUSH2 0x3E4A JUMPI RETURNDATASIZE PUSH1 0x0 DUP1 RETURNDATACOPY RETURNDATASIZE PUSH1 0x0 REVERT JUMPDEST POP POP POP POP PUSH1 0x40 MLOAD RETURNDATASIZE PUSH1 0x1F NOT PUSH1 0x1F DUP3 ADD AND DUP3 ADD DUP1 PUSH1 0x40 MSTORE POP DUP2 ADD SWAP1 PUSH2 0x3E6E SWAP2 SWAP1 PUSH2 0x4347 JUMP JUMPDEST POP POP POP POP JUMP JUMPDEST PUSH1 0x0 DUP3 PUSH20 0xFFFFFFFFFFFFFFFFFFFFFFFFFFFFFFFFFFFFFFFF AND DUP3 PUSH1 0x40 MLOAD PUSH2 0x3E9A SWAP1 PUSH2 0x479A JUMP JUMPDEST PUSH1 0x0 PUSH1 0x40 MLOAD DUP1 DUP4 SUB DUP2 DUP6 DUP8 GAS CALL SWAP3 POP POP POP RETURNDATASIZE DUP1 PUSH1 0x0 DUP2 EQ PUSH2 0x3ED7 JUMPI PUSH1 0x40 MLOAD SWAP2 POP PUSH1 0x1F NOT PUSH1 0x3F RETURNDATASIZE ADD AND DUP3 ADD PUSH1 0x40 MSTORE RETURNDATASIZE DUP3 MSTORE RETURNDATASIZE PUSH1 0x0 PUSH1 0x20 DUP5 ADD RETURNDATACOPY PUSH2 0x3EDC JUMP JUMPDEST PUSH1 0x60 SWAP2 POP JUMPDEST POP POP SWAP1 POP DUP1 PUSH2 0x3F20 JUMPI PUSH1 0x40 MLOAD PUSH32 0x8C379A000000000000000000000000000000000000000000000000000000000 DUP2 MSTORE PUSH1 0x4 ADD PUSH2 0x3F17 SWAP1 PUSH2 0x4C70 JUMP JUMPDEST PUSH1 0x40 MLOAD DUP1 SWAP2 SUB SWAP1 REVERT JUMPDEST POP POP POP JUMP JUMPDEST PUSH1 0x40 MLOAD DUP1 PUSH1 0xE0 ADD PUSH1 0x40 MSTORE DUP1 PUSH1 0x0 DUP2 MSTORE PUSH1 0x20 ADD PUSH1 0x0 DUP2 MSTORE PUSH1 0x20 ADD PUSH1 0x0 DUP2 MSTORE PUSH1 0x20 ADD PUSH1 0x0 DUP2 MSTORE PUSH1 0x20 ADD PUSH1 0x0 PUSH20 0xFFFFFFFFFFFFFFFFFFFFFFFFFFFFFFFFFFFFFFFF AND DUP2 MSTORE PUSH1 0x20 ADD PUSH1 0x0 PUSH20 0xFFFFFFFFFFFFFFFFFFFFFFFFFFFFFFFFFFFFFFFF AND DUP2 MSTORE PUSH1 0x20 ADD PUSH1 0x0 PUSH20 0xFFFFFFFFFFFFFFFFFFFFFFFFFFFFFFFFFFFFFFFF AND DUP2 MSTORE POP SWAP1 JUMP JUMPDEST PUSH1 0x40 MLOAD DUP1 PUSH1 0x80 ADD PUSH1 0x40 MSTORE DUP1 PUSH1 0x0 PUSH20 0xFFFFFFFFFFFFFFFFFFFFFFFFFFFFFFFFFFFFFFFF AND DUP2 MSTORE PUSH1 0x20 ADD PUSH1 0x0 PUSH20 0xFFFFFFFFFFFFFFFFFFFFFFFFFFFFFFFFFFFFFFFF AND DUP2 MSTORE PUSH1 0x20 ADD PUSH1 0x0 PUSH20 0xFFFFFFFFFFFFFFFFFFFFFFFFFFFFFFFFFFFFFFFF AND DUP2 MSTORE PUSH1 0x20 ADD PUSH1 0x0 DUP2 MSTORE POP SWAP1 JUMP JUMPDEST PUSH1 0x0 DUP2 CALLDATALOAD SWAP1 POP PUSH2 0x401D DUP2 PUSH2 0x510A JUMP JUMPDEST SWAP3 SWAP2 POP POP JUMP JUMPDEST PUSH1 0x0 DUP2 MLOAD SWAP1 POP PUSH2 0x4032 DUP2 PUSH2 0x510A JUMP JUMPDEST SWAP3 SWAP2 POP POP JUMP JUMPDEST PUSH1 0x0 DUP2 MLOAD SWAP1 POP PUSH2 0x4047 DUP2 PUSH2 0x5121 JUMP JUMPDEST SWAP3 SWAP2 POP POP JUMP JUMPDEST PUSH1 0x0 DUP1 DUP4 PUSH1 0x1F DUP5 ADD SLT PUSH2 0x4063 JUMPI PUSH2 0x4062 PUSH2 0x4E63 JUMP JUMPDEST JUMPDEST DUP3 CALLDATALOAD SWAP1 POP PUSH8 0xFFFFFFFFFFFFFFFF DUP2 GT ISZERO PUSH2 0x4080 JUMPI PUSH2 0x407F PUSH2 0x4E5E JUMP JUMPDEST JUMPDEST PUSH1 0x20 DUP4 ADD SWAP2 POP DUP4 PUSH1 0x1 DUP3 MUL DUP4 ADD GT ISZERO PUSH2 0x409C JUMPI PUSH2 0x409B PUSH2 0x4E68 JUMP JUMPDEST JUMPDEST SWAP3 POP SWAP3 SWAP1 POP JUMP JUMPDEST PUSH1 0x0 DUP2 CALLDATALOAD SWAP1 POP PUSH2 0x40B2 DUP2 PUSH2 0x5138 JUMP JUMPDEST SWAP3 SWAP2 POP POP JUMP JUMPDEST PUSH1 0x0 PUSH1 0x20 DUP3 DUP5 SUB SLT ISZERO PUSH2 0x40CE JUMPI PUSH2 0x40CD PUSH2 0x4E72 JUMP JUMPDEST JUMPDEST PUSH1 0x0 PUSH2 0x40DC DUP5 DUP3 DUP6 ADD PUSH2 0x4023 JUMP JUMPDEST SWAP2 POP POP SWAP3 SWAP2 POP POP JUMP JUMPDEST PUSH1 0x0 DUP1 PUSH1 0x0 DUP1 PUSH1 0x0 PUSH1 0x80 DUP7 DUP9 SUB SLT ISZERO PUSH2 0x4101 JUMPI PUSH2 0x4100 PUSH2 0x4E72 JUMP JUMPDEST JUMPDEST PUSH1 0x0 PUSH2 0x410F DUP9 DUP3 DUP10 ADD PUSH2 0x400E JUMP JUMPDEST SWAP6 POP POP PUSH1 0x20 PUSH2 0x4120 DUP9 DUP3 DUP10 ADD PUSH2 0x400E JUMP JUMPDEST SWAP5 POP POP PUSH1 0x40 PUSH2 0x4131 DUP9 DUP3 DUP10 ADD PUSH2 0x40A3 JUMP JUMPDEST SWAP4 POP POP PUSH1 0x60 DUP7 ADD CALLDATALOAD PUSH8 0xFFFFFFFFFFFFFFFF DUP2 GT ISZERO PUSH2 0x4152 JUMPI PUSH2 0x4151 PUSH2 0x4E6D JUMP JUMPDEST JUMPDEST PUSH2 0x415E DUP9 DUP3 DUP10 ADD PUSH2 0x404D JUMP JUMPDEST SWAP3 POP SWAP3 POP POP SWAP3 SWAP6 POP SWAP3 SWAP6 SWAP1 SWAP4 POP JUMP JUMPDEST PUSH1 0x0 DUP1 PUSH1 0x0 DUP1 PUSH1 0x80 DUP6 DUP8 SUB SLT ISZERO PUSH2 0x4187 JUMPI PUSH2 0x4186 PUSH2 0x4E72 JUMP JUMPDEST JUMPDEST PUSH1 0x0 PUSH2 0x4195 DUP8 DUP3 DUP9 ADD PUSH2 0x400E JUMP JUMPDEST SWAP5 POP POP PUSH1 0x20 PUSH2 0x41A6 DUP8 DUP3 DUP9 ADD PUSH2 0x400E JUMP JUMPDEST SWAP4 POP POP PUSH1 0x40 PUSH2 0x41B7 DUP8 DUP3 DUP9 ADD PUSH2 0x40A3 JUMP JUMPDEST SWAP3 POP POP PUSH1 0x60 PUSH2 0x41C8 DUP8 DUP3 DUP9 ADD PUSH2 0x40A3 JUMP JUMPDEST SWAP2 POP POP SWAP3 SWAP6 SWAP2 SWAP5 POP SWAP3 POP JUMP JUMPDEST PUSH1 0x0 DUP1 PUSH1 0x0 DUP1 PUSH1 0x0 DUP1 PUSH1 0xC0 DUP8 DUP10 SUB SLT ISZERO PUSH2 0x41F1 JUMPI PUSH2 0x41F0 PUSH2 0x4E72 JUMP JUMPDEST JUMPDEST PUSH1 0x0 PUSH2 0x41FF DUP10 DUP3 DUP11 ADD PUSH2 0x400E JUMP JUMPDEST SWAP7 POP POP PUSH1 0x20 PUSH2 0x4210 DUP10 DUP3 DUP11 ADD PUSH2 0x400E JUMP JUMPDEST SWAP6 POP POP PUSH1 0x40 PUSH2 0x4221 DUP10 DUP3 DUP11 ADD PUSH2 0x40A3 JUMP JUMPDEST SWAP5 POP POP PUSH1 0x60 PUSH2 0x4232 DUP10 DUP3 DUP11 ADD PUSH2 0x40A3 JUMP JUMPDEST SWAP4 POP POP PUSH1 0x80 PUSH2 0x4243 DUP10 DUP3 DUP11 ADD PUSH2 0x40A3 JUMP JUMPDEST SWAP3 POP POP PUSH1 0xA0 PUSH2 0x4254 DUP10 DUP3 DUP11 ADD PUSH2 0x40A3 JUMP JUMPDEST SWAP2 POP POP SWAP3 SWAP6 POP SWAP3 SWAP6 POP SWAP3 SWAP6 JUMP JUMPDEST PUSH1 0x0 DUP1 PUSH1 0x40 DUP4 DUP6 SUB SLT ISZERO PUSH2 0x4278 JUMPI PUSH2 0x4277 PUSH2 0x4E72 JUMP JUMPDEST JUMPDEST PUSH1 0x0 PUSH2 0x4286 DUP6 DUP3 DUP7 ADD PUSH2 0x400E JUMP JUMPDEST SWAP3 POP POP PUSH1 0x20 PUSH2 0x4297 DUP6 DUP3 DUP7 ADD PUSH2 0x40A3 JUMP JUMPDEST SWAP2 POP POP SWAP3 POP SWAP3 SWAP1 POP JUMP JUMPDEST PUSH1 0x0 DUP1 PUSH1 0x0 PUSH1 0x60 DUP5 DUP7 SUB SLT ISZERO PUSH2 0x42BA JUMPI PUSH2 0x42B9 PUSH2 0x4E72 JUMP JUMPDEST JUMPDEST PUSH1 0x0 PUSH2 0x42C8 DUP7 DUP3 DUP8 ADD PUSH2 0x400E JUMP JUMPDEST SWAP4 POP POP PUSH1 0x20 PUSH2 0x42D9 DUP7 DUP3 DUP8 ADD PUSH2 0x40A3 JUMP JUMPDEST SWAP3 POP POP PUSH1 0x40 PUSH2 0x42EA DUP7 DUP3 DUP8 ADD PUSH2 0x400E JUMP JUMPDEST SWAP2 POP POP SWAP3 POP SWAP3 POP SWAP3 JUMP JUMPDEST PUSH1 0x0 DUP1 PUSH1 0x0 PUSH1 0x60 DUP5 DUP7 SUB SLT ISZERO PUSH2 0x430D JUMPI PUSH2 0x430C PUSH2 0x4E72 JUMP JUMPDEST JUMPDEST PUSH1 0x0 PUSH2 0x431B DUP7 DUP3 DUP8 ADD PUSH2 0x400E JUMP JUMPDEST SWAP4 POP POP PUSH1 0x20 PUSH2 0x432C DUP7 DUP3 DUP8 ADD PUSH2 0x40A3 JUMP JUMPDEST SWAP3 POP POP PUSH1 0x40 PUSH2 0x433D DUP7 DUP3 DUP8 ADD PUSH2 0x40A3 JUMP JUMPDEST SWAP2 POP POP SWAP3 POP SWAP3 POP SWAP3 JUMP JUMPDEST PUSH1 0x0 PUSH1 0x20 DUP3 DUP5 SUB SLT ISZERO PUSH2 0x435D JUMPI PUSH2 0x435C PUSH2 0x4E72 JUMP JUMPDEST JUMPDEST PUSH1 0x0 PUSH2 0x436B DUP5 DUP3 DUP6 ADD PUSH2 0x4038 JUMP JUMPDEST SWAP2 POP POP SWAP3 SWAP2 POP POP JUMP JUMPDEST PUSH1 0x0 PUSH2 0x4380 DUP4 DUP4 PUSH2 0x474D JUMP JUMPDEST PUSH1 0x40 DUP4 ADD SWAP1 POP SWAP3 SWAP2 POP POP JUMP JUMPDEST PUSH2 0x4395 DUP2 PUSH2 0x4D8C JUMP JUMPDEST DUP3 MSTORE POP POP JUMP JUMPDEST PUSH2 0x43A4 DUP2 PUSH2 0x4D8C JUMP JUMPDEST DUP3 MSTORE POP POP JUMP JUMPDEST PUSH1 0x0 PUSH2 0x43B5 DUP3 PUSH2 0x4CF1 JUMP JUMPDEST PUSH2 0x43BF DUP2 DUP6 PUSH2 0x4D09 JUMP JUMPDEST SWAP4 POP PUSH2 0x43CA DUP4 PUSH2 0x4CE1 JUMP JUMPDEST DUP1 PUSH1 0x0 JUMPDEST DUP4 DUP2 LT ISZERO PUSH2 0x43FB JUMPI DUP2 MLOAD PUSH2 0x43E2 DUP9 DUP3 PUSH2 0x4374 JUMP JUMPDEST SWAP8 POP PUSH2 0x43ED DUP4 PUSH2 0x4CFC JUMP JUMPDEST SWAP3 POP POP PUSH1 0x1 DUP2 ADD SWAP1 POP PUSH2 0x43CE JUMP JUMPDEST POP DUP6 SWAP4 POP POP POP POP SWAP3 SWAP2 POP POP JUMP JUMPDEST PUSH2 0x4411 DUP2 PUSH2 0x4DAA JUMP JUMPDEST DUP3 MSTORE POP POP JUMP JUMPDEST PUSH1 0x0 PUSH2 0x4424 PUSH1 0x16 DUP4 PUSH2 0x4D25 JUMP JUMPDEST SWAP2 POP PUSH2 0x442F DUP3 PUSH2 0x4E77 JUMP JUMPDEST PUSH1 0x20 DUP3 ADD SWAP1 POP SWAP2 SWAP1 POP JUMP JUMPDEST PUSH1 0x0 PUSH2 0x4447 PUSH1 0x1C DUP4 PUSH2 0x4D25 JUMP JUMPDEST SWAP2 POP PUSH2 0x4452 DUP3 PUSH2 0x4EA0 JUMP JUMPDEST PUSH1 0x20 DUP3 ADD SWAP1 POP SWAP2 SWAP1 POP JUMP JUMPDEST PUSH1 0x0 PUSH2 0x446A PUSH1 0x11 DUP4 PUSH2 0x4D25 JUMP JUMPDEST SWAP2 POP PUSH2 0x4475 DUP3 PUSH2 0x4EC9 JUMP JUMPDEST PUSH1 0x20 DUP3 ADD SWAP1 POP SWAP2 SWAP1 POP JUMP JUMPDEST PUSH1 0x0 PUSH2 0x448D PUSH1 0xD DUP4 PUSH2 0x4D25 JUMP JUMPDEST SWAP2 POP PUSH2 0x4498 DUP3 PUSH2 0x4EF2 JUMP JUMPDEST PUSH1 0x20 DUP3 ADD SWAP1 POP SWAP2 SWAP1 POP JUMP JUMPDEST PUSH1 0x0 PUSH2 0x44B0 PUSH1 0x15 DUP4 PUSH2 0x4D25 JUMP JUMPDEST SWAP2 POP PUSH2 0x44BB DUP3 PUSH2 0x4F1B JUMP JUMPDEST PUSH1 0x20 DUP3 ADD SWAP1 POP SWAP2 SWAP1 POP JUMP JUMPDEST PUSH1 0x0 PUSH2 0x44D3 PUSH1 0x17 DUP4 PUSH2 0x4D25 JUMP JUMPDEST SWAP2 POP PUSH2 0x44DE DUP3 PUSH2 0x4F44 JUMP JUMPDEST PUSH1 0x20 DUP3 ADD SWAP1 POP SWAP2 SWAP1 POP JUMP JUMPDEST PUSH1 0x0 PUSH2 0x44F6 PUSH1 0x1D DUP4 PUSH2 0x4D25 JUMP JUMPDEST SWAP2 POP PUSH2 0x4501 DUP3 PUSH2 0x4F6D JUMP JUMPDEST PUSH1 0x20 DUP3 ADD SWAP1 POP SWAP2 SWAP1 POP JUMP JUMPDEST PUSH1 0x0 PUSH2 0x4519 PUSH1 0xB DUP4 PUSH2 0x4D25 JUMP JUMPDEST SWAP2 POP PUSH2 0x4524 DUP3 PUSH2 0x4F96 JUMP JUMPDEST PUSH1 0x20 DUP3 ADD SWAP1 POP SWAP2 SWAP1 POP JUMP JUMPDEST PUSH1 0x0 PUSH2 0x453C PUSH1 0x13 DUP4 PUSH2 0x4D25 JUMP JUMPDEST SWAP2 POP PUSH2 0x4547 DUP3 PUSH2 0x4FBF JUMP JUMPDEST PUSH1 0x20 DUP3 ADD SWAP1 POP SWAP2 SWAP1 POP JUMP JUMPDEST PUSH1 0x0 PUSH2 0x455F PUSH1 0x8 DUP4 PUSH2 0x4D25 JUMP JUMPDEST SWAP2 POP PUSH2 0x456A DUP3 PUSH2 0x4FE8 JUMP JUMPDEST PUSH1 0x20 DUP3 ADD SWAP1 POP SWAP2 SWAP1 POP JUMP JUMPDEST PUSH1 0x0 PUSH2 0x4582 PUSH1 0x14 DUP4 PUSH2 0x4D25 JUMP JUMPDEST SWAP2 POP PUSH2 0x458D DUP3 PUSH2 0x5011 JUMP JUMPDEST PUSH1 0x20 DUP3 ADD SWAP1 POP SWAP2 SWAP1 POP JUMP JUMPDEST PUSH1 0x0 PUSH2 0x45A5 PUSH1 0xF DUP4 PUSH2 0x4D25 JUMP JUMPDEST SWAP2 POP PUSH2 0x45B0 DUP3 PUSH2 0x503A JUMP JUMPDEST PUSH1 0x20 DUP3 ADD SWAP1 POP SWAP2 SWAP1 POP JUMP JUMPDEST PUSH1 0x0 PUSH2 0x45C8 PUSH1 0x15 DUP4 PUSH2 0x4D25 JUMP JUMPDEST SWAP2 POP PUSH2 0x45D3 DUP3 PUSH2 0x5063 JUMP JUMPDEST PUSH1 0x20 DUP3 ADD SWAP1 POP SWAP2 SWAP1 POP JUMP JUMPDEST PUSH1 0x0 PUSH2 0x45EB PUSH1 0x0 DUP4 PUSH2 0x4D1A JUMP JUMPDEST SWAP2 POP PUSH2 0x45F6 DUP3 PUSH2 0x508C JUMP JUMPDEST PUSH1 0x0 DUP3 ADD SWAP1 POP SWAP2 SWAP1 POP JUMP JUMPDEST PUSH1 0x0 PUSH2 0x460E PUSH1 0x13 DUP4 PUSH2 0x4D25 JUMP JUMPDEST SWAP2 POP PUSH2 0x4619 DUP3 PUSH2 0x508F JUMP JUMPDEST PUSH1 0x20 DUP3 ADD SWAP1 POP SWAP2 SWAP1 POP JUMP JUMPDEST PUSH1 0x0 PUSH2 0x4631 PUSH1 0x14 DUP4 PUSH2 0x4D25 JUMP JUMPDEST SWAP2 POP PUSH2 0x463C DUP3 PUSH2 0x50B8 JUMP JUMPDEST PUSH1 0x20 DUP3 ADD SWAP1 POP SWAP2 SWAP1 POP JUMP JUMPDEST PUSH1 0x0 PUSH2 0x4654 PUSH1 0xD DUP4 PUSH2 0x4D25 JUMP JUMPDEST SWAP2 POP PUSH2 0x465F DUP3 PUSH2 0x50E1 JUMP JUMPDEST PUSH1 0x20 DUP3 ADD SWAP1 POP SWAP2 SWAP1 POP JUMP JUMPDEST PUSH1 0xE0 DUP3 ADD PUSH1 0x0 DUP3 ADD MLOAD PUSH2 0x4680 PUSH1 0x0 DUP6 ADD DUP3 PUSH2 0x477C JUMP JUMPDEST POP PUSH1 0x20 DUP3 ADD MLOAD PUSH2 0x4693 PUSH1 0x20 DUP6 ADD DUP3 PUSH2 0x477C JUMP JUMPDEST POP PUSH1 0x40 DUP3 ADD MLOAD PUSH2 0x46A6 PUSH1 0x40 DUP6 ADD DUP3 PUSH2 0x477C JUMP JUMPDEST POP PUSH1 0x60 DUP3 ADD MLOAD PUSH2 0x46B9 PUSH1 0x60 DUP6 ADD DUP3 PUSH2 0x477C JUMP JUMPDEST POP PUSH1 0x80 DUP3 ADD MLOAD PUSH2 0x46CC PUSH1 0x80 DUP6 ADD DUP3 PUSH2 0x438C JUMP JUMPDEST POP PUSH1 0xA0 DUP3 ADD MLOAD PUSH2 0x46DF PUSH1 0xA0 DUP6 ADD DUP3 PUSH2 0x438C JUMP JUMPDEST POP PUSH1 0xC0 DUP3 ADD MLOAD PUSH2 0x46F2 PUSH1 0xC0 DUP6 ADD DUP3 PUSH2 0x438C JUMP JUMPDEST POP POP POP POP JUMP JUMPDEST PUSH1 0x80 DUP3 ADD PUSH1 0x0 DUP3 ADD MLOAD PUSH2 0x470E PUSH1 0x0 DUP6 ADD DUP3 PUSH2 0x438C JUMP JUMPDEST POP PUSH1 0x20 DUP3 ADD MLOAD PUSH2 0x4721 PUSH1 0x20 DUP6 ADD DUP3 PUSH2 0x438C JUMP JUMPDEST POP PUSH1 0x40 DUP3 ADD MLOAD PUSH2 0x4734 PUSH1 0x40 DUP6 ADD DUP3 PUSH2 0x438C JUMP JUMPDEST POP PUSH1 0x60 DUP3 ADD MLOAD PUSH2 0x4747 PUSH1 0x60 DUP6 ADD DUP3 PUSH2 0x477C JUMP JUMPDEST POP POP POP POP JUMP JUMPDEST PUSH1 0x40 DUP3 ADD PUSH1 0x0 DUP3 ADD MLOAD PUSH2 0x4763 PUSH1 0x0 DUP6 ADD DUP3 PUSH2 0x438C JUMP JUMPDEST POP PUSH1 0x20 DUP3 ADD MLOAD PUSH2 0x4776 PUSH1 0x20 DUP6 ADD DUP3 PUSH2 0x477C JUMP JUMPDEST POP POP POP POP JUMP JUMPDEST PUSH2 0x4785 DUP2 PUSH2 0x4DF6 JUMP JUMPDEST DUP3 MSTORE POP POP JUMP JUMPDEST PUSH2 0x4794 DUP2 PUSH2 0x4DF6 JUMP JUMPDEST DUP3 MSTORE POP POP JUMP JUMPDEST PUSH1 0x0 PUSH2 0x47A5 DUP3 PUSH2 0x45DE JUMP JUMPDEST SWAP2 POP DUP2 SWAP1 POP SWAP2 SWAP1 POP JUMP JUMPDEST PUSH1 0x0 PUSH1 0x40 DUP3 ADD SWAP1 POP PUSH2 0x47C4 PUSH1 0x0 DUP4 ADD DUP6 PUSH2 0x439B JUMP JUMPDEST PUSH2 0x47D1 PUSH1 0x20 DUP4 ADD DUP5 PUSH2 0x439B JUMP JUMPDEST SWAP4 SWAP3 POP POP POP JUMP JUMPDEST PUSH1 0x0 PUSH1 0xC0 DUP3 ADD SWAP1 POP PUSH2 0x47ED PUSH1 0x0 DUP4 ADD DUP10 PUSH2 0x439B JUMP JUMPDEST PUSH2 0x47FA PUSH1 0x20 DUP4 ADD DUP9 PUSH2 0x439B JUMP JUMPDEST PUSH2 0x4807 PUSH1 0x40 DUP4 ADD DUP8 PUSH2 0x439B JUMP JUMPDEST PUSH2 0x4814 PUSH1 0x60 DUP4 ADD DUP7 PUSH2 0x478B JUMP JUMPDEST PUSH2 0x4821 PUSH1 0x80 DUP4 ADD DUP6 PUSH2 0x478B JUMP JUMPDEST PUSH2 0x482E PUSH1 0xA0 DUP4 ADD DUP5 PUSH2 0x478B JUMP JUMPDEST SWAP8 SWAP7 POP POP POP POP POP POP POP JUMP JUMPDEST PUSH1 0x0 PUSH1 0xE0 DUP3 ADD SWAP1 POP PUSH2 0x484E PUSH1 0x0 DUP4 ADD DUP11 PUSH2 0x439B JUMP JUMPDEST PUSH2 0x485B PUSH1 0x20 DUP4 ADD DUP10 PUSH2 0x439B JUMP JUMPDEST PUSH2 0x4868 PUSH1 0x40 DUP4 ADD DUP9 PUSH2 0x439B JUMP JUMPDEST PUSH2 0x4875 PUSH1 0x60 DUP4 ADD DUP8 PUSH2 0x478B JUMP JUMPDEST PUSH2 0x4882 PUSH1 0x80 DUP4 ADD DUP7 PUSH2 0x478B JUMP JUMPDEST PUSH2 0x488F PUSH1 0xA0 DUP4 ADD DUP6 PUSH2 0x478B JUMP JUMPDEST PUSH2 0x489C PUSH1 0xC0 DUP4 ADD DUP5 PUSH2 0x478B JUMP JUMPDEST SWAP9 SWAP8 POP POP POP POP POP POP POP POP JUMP JUMPDEST PUSH1 0x0 PUSH1 0x60 DUP3 ADD SWAP1 POP PUSH2 0x48BD PUSH1 0x0 DUP4 ADD DUP7 PUSH2 0x439B JUMP JUMPDEST PUSH2 0x48CA PUSH1 0x20 DUP4 ADD DUP6 PUSH2 0x439B JUMP JUMPDEST PUSH2 0x48D7 PUSH1 0x40 DUP4 ADD DUP5 PUSH2 0x478B JUMP JUMPDEST SWAP5 SWAP4 POP POP POP POP JUMP JUMPDEST PUSH1 0x0 PUSH1 0x80 DUP3 ADD SWAP1 POP PUSH2 0x48F4 PUSH1 0x0 DUP4 ADD DUP8 PUSH2 0x439B JUMP JUMPDEST PUSH2 0x4901 PUSH1 0x20 DUP4 ADD DUP7 PUSH2 0x439B JUMP JUMPDEST PUSH2 0x490E PUSH1 0x40 DUP4 ADD DUP6 PUSH2 0x478B JUMP JUMPDEST PUSH2 0x491B PUSH1 0x60 DUP4 ADD DUP5 PUSH2 0x478B JUMP JUMPDEST SWAP6 SWAP5 POP POP POP POP POP JUMP JUMPDEST PUSH1 0x0 PUSH1 0x40 DUP3 ADD SWAP1 POP PUSH2 0x4939 PUSH1 0x0 DUP4 ADD DUP6 PUSH2 0x439B JUMP JUMPDEST PUSH2 0x4946 PUSH1 0x20 DUP4 ADD DUP5 PUSH2 0x478B JUMP JUMPDEST SWAP4 SWAP3 POP POP POP JUMP JUMPDEST PUSH1 0x0 PUSH1 0x60 DUP3 ADD SWAP1 POP PUSH2 0x4962 PUSH1 0x0 DUP4 ADD DUP7 PUSH2 0x439B JUMP JUMPDEST PUSH2 0x496F PUSH1 0x20 DUP4 ADD DUP6 PUSH2 0x478B JUMP JUMPDEST PUSH2 0x497C PUSH1 0x40 DUP4 ADD DUP5 PUSH2 0x439B JUMP JUMPDEST SWAP5 SWAP4 POP POP POP POP JUMP JUMPDEST PUSH1 0x0 PUSH1 0xA0 DUP3 ADD SWAP1 POP PUSH2 0x4999 PUSH1 0x0 DUP4 ADD DUP9 PUSH2 0x439B JUMP JUMPDEST PUSH2 0x49A6 PUSH1 0x20 DUP4 ADD DUP8 PUSH2 0x478B JUMP JUMPDEST PUSH2 0x49B3 PUSH1 0x40 DUP4 ADD DUP7 PUSH2 0x439B JUMP JUMPDEST PUSH2 0x49C0 PUSH1 0x60 DUP4 ADD DUP6 PUSH2 0x478B JUMP JUMPDEST PUSH2 0x49CD PUSH1 0x80 DUP4 ADD DUP5 PUSH2 0x439B JUMP JUMPDEST SWAP7 SWAP6 POP POP POP POP POP POP JUMP JUMPDEST PUSH1 0x0 PUSH1 0x60 DUP3 ADD SWAP1 POP PUSH2 0x49EC PUSH1 0x0 DUP4 ADD DUP7 PUSH2 0x439B JUMP JUMPDEST PUSH2 0x49F9 PUSH1 0x20 DUP4 ADD DUP6 PUSH2 0x478B JUMP JUMPDEST PUSH2 0x4A06 PUSH1 0x40 DUP4 ADD DUP5 PUSH2 0x478B JUMP JUMPDEST SWAP5 SWAP4 POP POP POP POP JUMP JUMPDEST PUSH1 0x0 PUSH1 0x80 DUP3 ADD SWAP1 POP PUSH2 0x4A23 PUSH1 0x0 DUP4 ADD DUP8 PUSH2 0x439B JUMP JUMPDEST PUSH2 0x4A30 PUSH1 0x20 DUP4 ADD DUP7 PUSH2 0x478B JUMP JUMPDEST PUSH2 0x4A3D PUSH1 0x40 DUP4 ADD DUP6 PUSH2 0x478B JUMP JUMPDEST PUSH2 0x4A4A PUSH1 0x60 DUP4 ADD DUP5 PUSH2 0x439B JUMP JUMPDEST SWAP6 SWAP5 POP POP POP POP POP JUMP JUMPDEST PUSH1 0x0 PUSH1 0x20 DUP3 ADD SWAP1 POP DUP2 DUP2 SUB PUSH1 0x0 DUP4 ADD MSTORE PUSH2 0x4A6D DUP2 DUP5 PUSH2 0x43AA JUMP JUMPDEST SWAP1 POP SWAP3 SWAP2 POP POP JUMP JUMPDEST PUSH1 0x0 PUSH1 0x20 DUP3 ADD SWAP1 POP PUSH2 0x4A8A PUSH1 0x0 DUP4 ADD DUP5 PUSH2 0x4408 JUMP JUMPDEST SWAP3 SWAP2 POP POP JUMP JUMPDEST PUSH1 0x0 PUSH1 0x20 DUP3 ADD SWAP1 POP DUP2 DUP2 SUB PUSH1 0x0 DUP4 ADD MSTORE PUSH2 0x4AA9 DUP2 PUSH2 0x4417 JUMP JUMPDEST SWAP1 POP SWAP2 SWAP1 POP JUMP JUMPDEST PUSH1 0x0 PUSH1 0x20 DUP3 ADD SWAP1 POP DUP2 DUP2 SUB PUSH1 0x0 DUP4 ADD MSTORE PUSH2 0x4AC9 DUP2 PUSH2 0x443A JUMP JUMPDEST SWAP1 POP SWAP2 SWAP1 POP JUMP JUMPDEST PUSH1 0x0 PUSH1 0x20 DUP3 ADD SWAP1 POP DUP2 DUP2 SUB PUSH1 0x0 DUP4 ADD MSTORE PUSH2 0x4AE9 DUP2 PUSH2 0x445D JUMP JUMPDEST SWAP1 POP SWAP2 SWAP1 POP JUMP JUMPDEST PUSH1 0x0 PUSH1 0x20 DUP3 ADD SWAP1 POP DUP2 DUP2 SUB PUSH1 0x0 DUP4 ADD MSTORE PUSH2 0x4B09 DUP2 PUSH2 0x4480 JUMP JUMPDEST SWAP1 POP SWAP2 SWAP1 POP JUMP JUMPDEST PUSH1 0x0 PUSH1 0x20 DUP3 ADD SWAP1 POP DUP2 DUP2 SUB PUSH1 0x0 DUP4 ADD MSTORE PUSH2 0x4B29 DUP2 PUSH2 0x44A3 JUMP JUMPDEST SWAP1 POP SWAP2 SWAP1 POP JUMP JUMPDEST PUSH1 0x0 PUSH1 0x20 DUP3 ADD SWAP1 POP DUP2 DUP2 SUB PUSH1 0x0 DUP4 ADD MSTORE PUSH2 0x4B49 DUP2 PUSH2 0x44C6 JUMP JUMPDEST SWAP1 POP SWAP2 SWAP1 POP JUMP JUMPDEST PUSH1 0x0 PUSH1 0x20 DUP3 ADD SWAP1 POP DUP2 DUP2 SUB PUSH1 0x0 DUP4 ADD MSTORE PUSH2 0x4B69 DUP2 PUSH2 0x44E9 JUMP JUMPDEST SWAP1 POP SWAP2 SWAP1 POP JUMP JUMPDEST PUSH1 0x0 PUSH1 0x20 DUP3 ADD SWAP1 POP DUP2 DUP2 SUB PUSH1 0x0 DUP4 ADD MSTORE PUSH2 0x4B89 DUP2 PUSH2 0x450C JUMP JUMPDEST SWAP1 POP SWAP2 SWAP1 POP JUMP JUMPDEST PUSH1 0x0 PUSH1 0x20 DUP3 ADD SWAP1 POP DUP2 DUP2 SUB PUSH1 0x0 DUP4 ADD MSTORE PUSH2 0x4BA9 DUP2 PUSH2 0x452F JUMP JUMPDEST SWAP1 POP SWAP2 SWAP1 POP JUMP JUMPDEST PUSH1 0x0 PUSH1 0x20 DUP3 ADD SWAP1 POP DUP2 DUP2 SUB PUSH1 0x0 DUP4 ADD MSTORE PUSH2 0x4BC9 DUP2 PUSH2 0x4552 JUMP JUMPDEST SWAP1 POP SWAP2 SWAP1 POP JUMP JUMPDEST PUSH1 0x0 PUSH1 0x20 DUP3 ADD SWAP1 POP DUP2 DUP2 SUB PUSH1 0x0 DUP4 ADD MSTORE PUSH2 0x4BE9 DUP2 PUSH2 0x4575 JUMP JUMPDEST SWAP1 POP SWAP2 SWAP1 POP JUMP JUMPDEST PUSH1 0x0 PUSH1 0x20 DUP3 ADD SWAP1 POP DUP2 DUP2 SUB PUSH1 0x0 DUP4 ADD MSTORE PUSH2 0x4C09 DUP2 PUSH2 0x4598 JUMP JUMPDEST SWAP1 POP SWAP2 SWAP1 POP JUMP JUMPDEST PUSH1 0x0 PUSH1 0x20 DUP3 ADD SWAP1 POP DUP2 DUP2 SUB PUSH1 0x0 DUP4 ADD MSTORE PUSH2 0x4C29 DUP2 PUSH2 0x45BB JUMP JUMPDEST SWAP1 POP SWAP2 SWAP1 POP JUMP JUMPDEST PUSH1 0x0 PUSH1 0x20 DUP3 ADD SWAP1 POP DUP2 DUP2 SUB PUSH1 0x0 DUP4 ADD MSTORE PUSH2 0x4C49 DUP2 PUSH2 0x4601 JUMP JUMPDEST SWAP1 POP SWAP2 SWAP1 POP JUMP JUMPDEST PUSH1 0x0 PUSH1 0x20 DUP3 ADD SWAP1 POP DUP2 DUP2 SUB PUSH1 0x0 DUP4 ADD MSTORE PUSH2 0x4C69 DUP2 PUSH2 0x4624 JUMP JUMPDEST SWAP1 POP SWAP2 SWAP1 POP JUMP JUMPDEST PUSH1 0x0 PUSH1 0x20 DUP3 ADD SWAP1 POP DUP2 DUP2 SUB PUSH1 0x0 DUP4 ADD MSTORE PUSH2 0x4C89 DUP2 PUSH2 0x4647 JUMP JUMPDEST SWAP1 POP SWAP2 SWAP1 POP JUMP JUMPDEST PUSH1 0x0 PUSH1 0xE0 DUP3 ADD SWAP1 POP PUSH2 0x4CA5 PUSH1 0x0 DUP4 ADD DUP5 PUSH2 0x466A JUMP JUMPDEST SWAP3 SWAP2 POP POP JUMP JUMPDEST PUSH1 0x0 PUSH1 0x80 DUP3 ADD SWAP1 POP PUSH2 0x4CC0 PUSH1 0x0 DUP4 ADD DUP5 PUSH2 0x46F8 JUMP JUMPDEST SWAP3 SWAP2 POP POP JUMP JUMPDEST PUSH1 0x0 PUSH1 0x20 DUP3 ADD SWAP1 POP PUSH2 0x4CDB PUSH1 0x0 DUP4 ADD DUP5 PUSH2 0x478B JUMP JUMPDEST SWAP3 SWAP2 POP POP JUMP JUMPDEST PUSH1 0x0 DUP2 SWAP1 POP PUSH1 0x20 DUP3 ADD SWAP1 POP SWAP2 SWAP1 POP JUMP JUMPDEST PUSH1 0x0 DUP2 MLOAD SWAP1 POP SWAP2 SWAP1 POP JUMP JUMPDEST PUSH1 0x0 PUSH1 0x20 DUP3 ADD SWAP1 POP SWAP2 SWAP1 POP JUMP JUMPDEST PUSH1 0x0 DUP3 DUP3 MSTORE PUSH1 0x20 DUP3 ADD SWAP1 POP SWAP3 SWAP2 POP POP JUMP JUMPDEST PUSH1 0x0 DUP2 SWAP1 POP SWAP3 SWAP2 POP POP JUMP JUMPDEST PUSH1 0x0 DUP3 DUP3 MSTORE PUSH1 0x20 DUP3 ADD SWAP1 POP SWAP3 SWAP2 POP POP JUMP JUMPDEST PUSH1 0x0 PUSH2 0x4D41 DUP3 PUSH2 0x4DF6 JUMP JUMPDEST SWAP2 POP PUSH2 0x4D4C DUP4 PUSH2 0x4DF6 JUMP JUMPDEST SWAP3 POP DUP3 PUSH32 0xFFFFFFFFFFFFFFFFFFFFFFFFFFFFFFFFFFFFFFFFFFFFFFFFFFFFFFFFFFFFFFFF SUB DUP3 GT ISZERO PUSH2 0x4D81 JUMPI PUSH2 0x4D80 PUSH2 0x4E00 JUMP JUMPDEST JUMPDEST DUP3 DUP3 ADD SWAP1 POP SWAP3 SWAP2 POP POP JUMP JUMPDEST PUSH1 0x0 PUSH2 0x4D97 DUP3 PUSH2 0x4DD6 JUMP JUMPDEST SWAP1 POP SWAP2 SWAP1 POP JUMP JUMPDEST PUSH1 0x0 DUP2 ISZERO ISZERO SWAP1 POP SWAP2 SWAP1 POP JUMP JUMPDEST PUSH1 0x0 PUSH32 0xFFFFFFFF00000000000000000000000000000000000000000000000000000000 DUP3 AND SWAP1 POP SWAP2 SWAP1 POP JUMP JUMPDEST PUSH1 0x0 PUSH20 0xFFFFFFFFFFFFFFFFFFFFFFFFFFFFFFFFFFFFFFFF DUP3 AND SWAP1 POP SWAP2 SWAP1 POP JUMP JUMPDEST PUSH1 0x0 DUP2 SWAP1 POP SWAP2 SWAP1 POP JUMP JUMPDEST PUSH32 0x4E487B7100000000000000000000000000000000000000000000000000000000 PUSH1 0x0 MSTORE PUSH1 0x11 PUSH1 0x4 MSTORE PUSH1 0x24 PUSH1 0x0 REVERT JUMPDEST PUSH32 0x4E487B7100000000000000000000000000000000000000000000000000000000 PUSH1 0x0 MSTORE PUSH1 0x32 PUSH1 0x4 MSTORE PUSH1 0x24 PUSH1 0x0 REVERT JUMPDEST PUSH1 0x0 DUP1 REVERT JUMPDEST PUSH1 0x0 DUP1 REVERT JUMPDEST PUSH1 0x0 DUP1 REVERT JUMPDEST PUSH1 0x0 DUP1 REVERT JUMPDEST PUSH1 0x0 DUP1 REVERT JUMPDEST PUSH32 0x596F752061726520686967686573742062696464657200000000000000000000 PUSH1 0x0 DUP3 ADD MSTORE POP JUMP JUMPDEST PUSH32 0x4E6674206E6F7420617070726F76656420746F20636F6E747261637400000000 PUSH1 0x0 DUP3 ADD MSTORE POP JUMP JUMPDEST PUSH32 0x50726963652063616E6E6F742062652030000000000000000000000000000000 PUSH1 0x0 DUP3 ADD MSTORE POP JUMP JUMPDEST PUSH32 0x6E6F74206E6674206F776E657200000000000000000000000000000000000000 PUSH1 0x0 DUP3 ADD MSTORE POP JUMP JUMPDEST PUSH32 0x4E6674206E6F7420696E2066697865642073616C650000000000000000000000 PUSH1 0x0 DUP3 ADD MSTORE POP JUMP JUMPDEST PUSH32 0x4E6674206E6F7420696E2061756374696F6E2073616C65000000000000000000 PUSH1 0x0 DUP3 ADD MSTORE POP JUMP JUMPDEST PUSH32 0x4269642047726561746572207468616E2050726576696F757320426964000000 PUSH1 0x0 DUP3 ADD MSTORE POP JUMP JUMPDEST PUSH32 0x41756374696F6E20656E64000000000000000000000000000000000000000000 PUSH1 0x0 DUP3 ADD MSTORE POP JUMP JUMPDEST PUSH32 0x4E667420616C726561647920696E2073616C6500000000000000000000000000 PUSH1 0x0 DUP3 ADD MSTORE POP JUMP JUMPDEST PUSH32 0x626964206D616B65000000000000000000000000000000000000000000000000 PUSH1 0x0 DUP3 ADD MSTORE POP JUMP JUMPDEST PUSH32 0x616C6C6F77616E6365206E6F7420656E6F756768000000000000000000000000 PUSH1 0x0 DUP3 ADD MSTORE POP JUMP JUMPDEST PUSH32 0x41756374696F6E206E6F7420656E640000000000000000000000000000000000 PUSH1 0x0 DUP3 ADD MSTORE POP JUMP JUMPDEST PUSH32 0x596F7520617265206E6F74206E6674206F776E65720000000000000000000000 PUSH1 0x0 DUP3 ADD MSTORE POP JUMP JUMPDEST POP JUMP JUMPDEST PUSH32 0x6E6F7468696E6720746F20776974686472617700000000000000000000000000 PUSH1 0x0 DUP3 ADD MSTORE POP JUMP JUMPDEST PUSH32 0x627579205072696365206E6F7420656E6F756768000000000000000000000000 PUSH1 0x0 DUP3 ADD MSTORE POP JUMP JUMPDEST PUSH32 0x726566756E64206661696C656400000000000000000000000000000000000000 PUSH1 0x0 DUP3 ADD MSTORE POP JUMP JUMPDEST PUSH2 0x5113 DUP2 PUSH2 0x4D8C JUMP JUMPDEST DUP2 EQ PUSH2 0x511E JUMPI PUSH1 0x0 DUP1 REVERT JUMPDEST POP JUMP JUMPDEST PUSH2 0x512A DUP2 PUSH2 0x4D9E JUMP JUMPDEST DUP2 EQ PUSH2 0x5135 JUMPI PUSH1 0x0 DUP1 REVERT JUMPDEST POP JUMP JUMPDEST PUSH2 0x5141 DUP2 PUSH2 0x4DF6 JUMP JUMPDEST DUP2 EQ PUSH2 0x514C JUMPI PUSH1 0x0 DUP1 REVERT JUMPDEST POP JUMP INVALID LOG2 PUSH5 0x6970667358 0x22 SLT KECCAK256 PUSH20 0x652BE7EB4D9C73941E9E4C95C227B3AC36B711CF 0xBB MSTORE8 SWAP4 PUSH32 0xE9A14B4DED651E64736F6C634300080700330000000000000000000000000000 "
				},
				"gasEstimates": {
					"creation": {
						"codeDepositCost": "4173800",
						"executionCost": "4801",
						"totalCost": "4178601"
					},
					"external": {
						"_cancelAuctionSale(address,uint256)": "infinite",
						"buyFromFixedSale(address,uint256,uint256)": "infinite",
						"cancelFixedsale(address,uint256)": "infinite",
						"createNftAuctionSale(address,address,uint256,uint256,uint256,uint256)": "infinite",
						"getAuctionSaleNFT()": "infinite",
						"getFixedSale(address,uint256)": "infinite",
						"getFixedSaleNFT()": "infinite",
						"getNftAuctionSaleDetails(address,uint256)": "infinite",
						"makeBid(address,uint256,uint256)": "infinite",
						"nftFixedSale(address,address,uint256,uint256)": "infinite",
						"nftSaleStatus(address,uint256)": "infinite",
						"onERC721Received(address,address,uint256,bytes)": "infinite",
						"settleAuction(address,uint256)": "infinite",
						"updateFixedSalePrice(address,uint256,uint256)": "infinite",
						"updateTheBidPrice(address,uint256,uint256)": "infinite",
						"userBidPriceOnNFT(address,uint256,address)": "infinite",
						"withdrawBid(address,uint256)": "infinite"
					},
					"internal": {
						"_bidAmountTransfer(uint256,address)": "infinite",
						"_isTokenOrCoin(address,address,uint256)": "infinite",
						"_nativeAmountTransfer(address,uint256)": "infinite",
						"_storedNftAuctionDetails(address,address,uint256,uint256,uint256,uint256)": "infinite",
						"_tokenAmountTransfer(address,address,uint256)": "infinite",
						"_transferNftAndPaySeller(address,uint256,uint256,address)": "infinite"
					}
				},
				"methodIdentifiers": {
					"_cancelAuctionSale(address,uint256)": "842bc46a",
					"buyFromFixedSale(address,uint256,uint256)": "baf4371e",
					"cancelFixedsale(address,uint256)": "d3a6a6c9",
					"createNftAuctionSale(address,address,uint256,uint256,uint256,uint256)": "cf42b7e6",
					"getAuctionSaleNFT()": "1e7a044f",
					"getFixedSale(address,uint256)": "8c3417da",
					"getFixedSaleNFT()": "9f085a00",
					"getNftAuctionSaleDetails(address,uint256)": "6f8c9b1b",
					"makeBid(address,uint256,uint256)": "1bdae6f1",
					"nftFixedSale(address,address,uint256,uint256)": "69a6d12e",
					"nftSaleStatus(address,uint256)": "6916462f",
					"onERC721Received(address,address,uint256,bytes)": "150b7a02",
					"settleAuction(address,uint256)": "5138b08c",
					"updateFixedSalePrice(address,uint256,uint256)": "4676adca",
					"updateTheBidPrice(address,uint256,uint256)": "3a713db8",
					"userBidPriceOnNFT(address,uint256,address)": "6fe02f24",
					"withdrawBid(address,uint256)": "4cb8ef5b"
				}
			},
			"storageLayout": {
				"storage": [
					{
						"astId": 581,
						"contract": "NFT-Contracts/new/finalMarket_single.sol:NFTMarketplace",
						"label": "nftContractFixedSale",
						"offset": 0,
						"slot": "0",
						"type": "t_mapping(t_address,t_mapping(t_uint256,t_struct(FixedSale)569_storage))"
					},
					{
						"astId": 588,
						"contract": "NFT-Contracts/new/finalMarket_single.sol:NFTMarketplace",
						"label": "nftContractAuctionSale",
						"offset": 0,
						"slot": "1",
						"type": "t_mapping(t_address,t_mapping(t_uint256,t_struct(Auction)560_storage))"
					},
					{
						"astId": 594,
						"contract": "NFT-Contracts/new/finalMarket_single.sol:NFTMarketplace",
						"label": "nftSaleStatus",
						"offset": 0,
						"slot": "2",
						"type": "t_mapping(t_address,t_mapping(t_uint256,t_uint256))"
					},
					{
						"astId": 602,
						"contract": "NFT-Contracts/new/finalMarket_single.sol:NFTMarketplace",
						"label": "userBidPriceOnNFT",
						"offset": 0,
						"slot": "3",
						"type": "t_mapping(t_address,t_mapping(t_uint256,t_mapping(t_address,t_uint256)))"
					},
					{
						"astId": 608,
						"contract": "NFT-Contracts/new/finalMarket_single.sol:NFTMarketplace",
						"label": "indexFixedSaleNFT",
						"offset": 0,
						"slot": "4",
						"type": "t_mapping(t_address,t_mapping(t_uint256,t_uint256))"
					},
					{
						"astId": 614,
						"contract": "NFT-Contracts/new/finalMarket_single.sol:NFTMarketplace",
						"label": "indexAuctionSaleNFT",
						"offset": 0,
						"slot": "5",
						"type": "t_mapping(t_address,t_mapping(t_uint256,t_uint256))"
					},
					{
						"astId": 618,
						"contract": "NFT-Contracts/new/finalMarket_single.sol:NFTMarketplace",
						"label": "fixedSaleNFT",
						"offset": 0,
						"slot": "6",
						"type": "t_array(t_struct(SaleInfo)574_storage)dyn_storage"
					},
					{
						"astId": 622,
						"contract": "NFT-Contracts/new/finalMarket_single.sol:NFTMarketplace",
						"label": "auctionSaleNFT",
						"offset": 0,
						"slot": "7",
						"type": "t_array(t_struct(SaleInfo)574_storage)dyn_storage"
					}
				],
				"types": {
					"t_address": {
						"encoding": "inplace",
						"label": "address",
						"numberOfBytes": "20"
					},
					"t_array(t_struct(SaleInfo)574_storage)dyn_storage": {
						"base": "t_struct(SaleInfo)574_storage",
						"encoding": "dynamic_array",
						"label": "struct NFTMarketplace.SaleInfo[]",
						"numberOfBytes": "32"
					},
					"t_mapping(t_address,t_mapping(t_uint256,t_mapping(t_address,t_uint256)))": {
						"encoding": "mapping",
						"key": "t_address",
						"label": "mapping(address => mapping(uint256 => mapping(address => uint256)))",
						"numberOfBytes": "32",
						"value": "t_mapping(t_uint256,t_mapping(t_address,t_uint256))"
					},
					"t_mapping(t_address,t_mapping(t_uint256,t_struct(Auction)560_storage))": {
						"encoding": "mapping",
						"key": "t_address",
						"label": "mapping(address => mapping(uint256 => struct NFTMarketplace.Auction))",
						"numberOfBytes": "32",
						"value": "t_mapping(t_uint256,t_struct(Auction)560_storage)"
					},
					"t_mapping(t_address,t_mapping(t_uint256,t_struct(FixedSale)569_storage))": {
						"encoding": "mapping",
						"key": "t_address",
						"label": "mapping(address => mapping(uint256 => struct NFTMarketplace.FixedSale))",
						"numberOfBytes": "32",
						"value": "t_mapping(t_uint256,t_struct(FixedSale)569_storage)"
					},
					"t_mapping(t_address,t_mapping(t_uint256,t_uint256))": {
						"encoding": "mapping",
						"key": "t_address",
						"label": "mapping(address => mapping(uint256 => uint256))",
						"numberOfBytes": "32",
						"value": "t_mapping(t_uint256,t_uint256)"
					},
					"t_mapping(t_address,t_uint256)": {
						"encoding": "mapping",
						"key": "t_address",
						"label": "mapping(address => uint256)",
						"numberOfBytes": "32",
						"value": "t_uint256"
					},
					"t_mapping(t_uint256,t_mapping(t_address,t_uint256))": {
						"encoding": "mapping",
						"key": "t_uint256",
						"label": "mapping(uint256 => mapping(address => uint256))",
						"numberOfBytes": "32",
						"value": "t_mapping(t_address,t_uint256)"
					},
					"t_mapping(t_uint256,t_struct(Auction)560_storage)": {
						"encoding": "mapping",
						"key": "t_uint256",
						"label": "mapping(uint256 => struct NFTMarketplace.Auction)",
						"numberOfBytes": "32",
						"value": "t_struct(Auction)560_storage"
					},
					"t_mapping(t_uint256,t_struct(FixedSale)569_storage)": {
						"encoding": "mapping",
						"key": "t_uint256",
						"label": "mapping(uint256 => struct NFTMarketplace.FixedSale)",
						"numberOfBytes": "32",
						"value": "t_struct(FixedSale)569_storage"
					},
					"t_mapping(t_uint256,t_uint256)": {
						"encoding": "mapping",
						"key": "t_uint256",
						"label": "mapping(uint256 => uint256)",
						"numberOfBytes": "32",
						"value": "t_uint256"
					},
					"t_struct(Auction)560_storage": {
						"encoding": "inplace",
						"label": "struct NFTMarketplace.Auction",
						"members": [
							{
								"astId": 547,
								"contract": "NFT-Contracts/new/finalMarket_single.sol:NFTMarketplace",
								"label": "auctionStart",
								"offset": 0,
								"slot": "0",
								"type": "t_uint256"
							},
							{
								"astId": 549,
								"contract": "NFT-Contracts/new/finalMarket_single.sol:NFTMarketplace",
								"label": "auctionEnd",
								"offset": 0,
								"slot": "1",
								"type": "t_uint256"
							},
							{
								"astId": 551,
								"contract": "NFT-Contracts/new/finalMarket_single.sol:NFTMarketplace",
								"label": "minPrice",
								"offset": 0,
								"slot": "2",
								"type": "t_uint256"
							},
							{
								"astId": 553,
								"contract": "NFT-Contracts/new/finalMarket_single.sol:NFTMarketplace",
								"label": "nftHighestBid",
								"offset": 0,
								"slot": "3",
								"type": "t_uint256"
							},
							{
								"astId": 555,
								"contract": "NFT-Contracts/new/finalMarket_single.sol:NFTMarketplace",
								"label": "nftHighestBidder",
								"offset": 0,
								"slot": "4",
								"type": "t_address"
							},
							{
								"astId": 557,
								"contract": "NFT-Contracts/new/finalMarket_single.sol:NFTMarketplace",
								"label": "nftSeller",
								"offset": 0,
								"slot": "5",
								"type": "t_address"
							},
							{
								"astId": 559,
								"contract": "NFT-Contracts/new/finalMarket_single.sol:NFTMarketplace",
								"label": "erc20",
								"offset": 0,
								"slot": "6",
								"type": "t_address"
							}
						],
						"numberOfBytes": "224"
					},
					"t_struct(FixedSale)569_storage": {
						"encoding": "inplace",
						"label": "struct NFTMarketplace.FixedSale",
						"members": [
							{
								"astId": 562,
								"contract": "NFT-Contracts/new/finalMarket_single.sol:NFTMarketplace",
								"label": "nftSeller",
								"offset": 0,
								"slot": "0",
								"type": "t_address"
							},
							{
								"astId": 564,
								"contract": "NFT-Contracts/new/finalMarket_single.sol:NFTMarketplace",
								"label": "nftBuyer",
								"offset": 0,
								"slot": "1",
								"type": "t_address"
							},
							{
								"astId": 566,
								"contract": "NFT-Contracts/new/finalMarket_single.sol:NFTMarketplace",
								"label": "erc20",
								"offset": 0,
								"slot": "2",
								"type": "t_address"
							},
							{
								"astId": 568,
								"contract": "NFT-Contracts/new/finalMarket_single.sol:NFTMarketplace",
								"label": "salePrice",
								"offset": 0,
								"slot": "3",
								"type": "t_uint256"
							}
						],
						"numberOfBytes": "128"
					},
					"t_struct(SaleInfo)574_storage": {
						"encoding": "inplace",
						"label": "struct NFTMarketplace.SaleInfo",
						"members": [
							{
								"astId": 571,
								"contract": "NFT-Contracts/new/finalMarket_single.sol:NFTMarketplace",
								"label": "_nftContractAddress",
								"offset": 0,
								"slot": "0",
								"type": "t_address"
							},
							{
								"astId": 573,
								"contract": "NFT-Contracts/new/finalMarket_single.sol:NFTMarketplace",
								"label": "_tokenID",
								"offset": 0,
								"slot": "1",
								"type": "t_uint256"
							}
						],
						"numberOfBytes": "64"
					},
					"t_uint256": {
						"encoding": "inplace",
						"label": "uint256",
						"numberOfBytes": "32"
					}
				}
			},
			"userdoc": {
				"kind": "user",
				"methods": {},
				"version": 1
			}
		}
	}
}