{
	"NFT-Contracts/contracts/market_pri/NewMarket.sol": {
		"NFTMarketplace": {
			"abi": [
				{
					"anonymous": false,
					"inputs": [
						{
							"indexed": false,
							"internalType": "address",
							"name": "nftContractAddress",
							"type": "address"
						},
						{
							"indexed": false,
							"internalType": "uint256",
							"name": "tokenId",
							"type": "uint256"
						},
						{
							"indexed": false,
							"internalType": "address",
							"name": "nftSeller",
							"type": "address"
						}
					],
					"name": "CancelNftAuctionSale",
					"type": "event"
				},
				{
					"anonymous": false,
					"inputs": [
						{
							"indexed": false,
							"internalType": "address",
							"name": "nftContractAddress",
							"type": "address"
						},
						{
							"indexed": false,
							"internalType": "address",
							"name": "nftSeller",
							"type": "address"
						},
						{
							"indexed": false,
							"internalType": "uint256",
							"name": "tokenId",
							"type": "uint256"
						}
					],
					"name": "CancelNftFixedSale",
					"type": "event"
				},
				{
					"anonymous": false,
					"inputs": [
						{
							"indexed": false,
							"internalType": "address",
							"name": "nftContractAddress",
							"type": "address"
						},
						{
							"indexed": false,
							"internalType": "uint256",
							"name": "tokenId",
							"type": "uint256"
						},
						{
							"indexed": false,
							"internalType": "uint256",
							"name": "finalBidPrice",
							"type": "uint256"
						},
						{
							"indexed": false,
							"internalType": "address",
							"name": "nftBidder",
							"type": "address"
						}
					],
					"name": "NftAuctionBidPriceUpdate",
					"type": "event"
				},
				{
					"anonymous": false,
					"inputs": [
						{
							"indexed": false,
							"internalType": "address",
							"name": "nftContractAddress",
							"type": "address"
						},
						{
							"indexed": false,
							"internalType": "address",
							"name": "nftSeller",
							"type": "address"
						},
						{
							"indexed": false,
							"internalType": "address",
							"name": "erc20",
							"type": "address"
						},
						{
							"indexed": false,
							"internalType": "uint256",
							"name": "tokenId",
							"type": "uint256"
						},
						{
							"indexed": false,
							"internalType": "uint256",
							"name": "auctionStart",
							"type": "uint256"
						},
						{
							"indexed": false,
							"internalType": "uint256",
							"name": "auctionEnd",
							"type": "uint256"
						},
						{
							"indexed": false,
							"internalType": "uint256",
							"name": "minPrice",
							"type": "uint256"
						}
					],
					"name": "NftAuctionSale",
					"type": "event"
				},
				{
					"anonymous": false,
					"inputs": [
						{
							"indexed": false,
							"internalType": "address",
							"name": "nftContractAddress",
							"type": "address"
						},
						{
							"indexed": false,
							"internalType": "uint256",
							"name": "tokenId",
							"type": "uint256"
						},
						{
							"indexed": false,
							"internalType": "address",
							"name": "nftHighestBidder",
							"type": "address"
						},
						{
							"indexed": false,
							"internalType": "uint256",
							"name": "nftHighestBid",
							"type": "uint256"
						},
						{
							"indexed": false,
							"internalType": "address",
							"name": "nftSeller",
							"type": "address"
						}
					],
					"name": "NftAuctionSettle",
					"type": "event"
				},
				{
					"anonymous": false,
					"inputs": [
						{
							"indexed": false,
							"internalType": "address",
							"name": "nftContractAddress",
							"type": "address"
						},
						{
							"indexed": false,
							"internalType": "uint256",
							"name": "tokenId",
							"type": "uint256"
						},
						{
							"indexed": false,
							"internalType": "uint256",
							"name": "bidPrice",
							"type": "uint256"
						},
						{
							"indexed": false,
							"internalType": "address",
							"name": "nftBidder",
							"type": "address"
						}
					],
					"name": "NftBidPrice",
					"type": "event"
				},
				{
					"anonymous": false,
					"inputs": [
						{
							"indexed": false,
							"internalType": "address",
							"name": "nftContractAddress",
							"type": "address"
						},
						{
							"indexed": false,
							"internalType": "address",
							"name": "nftBuyer",
							"type": "address"
						},
						{
							"indexed": false,
							"internalType": "uint256",
							"name": "tokenId",
							"type": "uint256"
						},
						{
							"indexed": false,
							"internalType": "uint256",
							"name": "nftBuyPrice",
							"type": "uint256"
						}
					],
					"name": "NftBuyFromFixedSale",
					"type": "event"
				},
				{
					"anonymous": false,
					"inputs": [
						{
							"indexed": false,
							"internalType": "address",
							"name": "nftContractAddress",
							"type": "address"
						},
						{
							"indexed": false,
							"internalType": "uint256",
							"name": "tokenId",
							"type": "uint256"
						},
						{
							"indexed": false,
							"internalType": "uint256",
							"name": "updateBuyNowPrice",
							"type": "uint256"
						},
						{
							"indexed": false,
							"internalType": "address",
							"name": "nftOwner",
							"type": "address"
						}
					],
					"name": "NftBuyNowPriceUpdate",
					"type": "event"
				},
				{
					"anonymous": false,
					"inputs": [
						{
							"indexed": false,
							"internalType": "address",
							"name": "nftContractAddress",
							"type": "address"
						},
						{
							"indexed": false,
							"internalType": "address",
							"name": "nftSeller",
							"type": "address"
						},
						{
							"indexed": false,
							"internalType": "address",
							"name": "erc20",
							"type": "address"
						},
						{
							"indexed": false,
							"internalType": "uint256",
							"name": "tokenId",
							"type": "uint256"
						},
						{
							"indexed": false,
							"internalType": "uint256",
							"name": "salePrice",
							"type": "uint256"
						},
						{
							"indexed": false,
							"internalType": "uint256",
							"name": "timeOfSale",
							"type": "uint256"
						}
					],
					"name": "NftFixedSale",
					"type": "event"
				},
				{
					"anonymous": false,
					"inputs": [
						{
							"indexed": false,
							"internalType": "address",
							"name": "nftContractAddress",
							"type": "address"
						},
						{
							"indexed": false,
							"internalType": "uint256",
							"name": "tokenId",
							"type": "uint256"
						},
						{
							"indexed": false,
							"internalType": "uint256",
							"name": "updateSalePrice",
							"type": "uint256"
						}
					],
					"name": "NftFixedSalePriceUpdated",
					"type": "event"
				},
				{
					"anonymous": false,
					"inputs": [
						{
							"indexed": false,
							"internalType": "address",
							"name": "nftContractAddress",
							"type": "address"
						},
						{
							"indexed": false,
							"internalType": "uint256",
							"name": "tokenId",
							"type": "uint256"
						},
						{
							"indexed": false,
							"internalType": "address",
							"name": "bidClaimer",
							"type": "address"
						}
					],
					"name": "withdrawNftBid",
					"type": "event"
				},
				{
					"inputs": [
						{
							"internalType": "address",
							"name": "_nftContractAddress",
							"type": "address"
						},
						{
							"internalType": "uint256",
							"name": "_tokenId",
							"type": "uint256"
						}
					],
					"name": "_cancelAuctionSale",
					"outputs": [],
					"stateMutability": "nonpayable",
					"type": "function"
				},
				{
					"inputs": [
						{
							"internalType": "address",
							"name": "_nftContractAddress",
							"type": "address"
						},
						{
							"internalType": "uint256",
							"name": "_tokenId",
							"type": "uint256"
						},
						{
							"internalType": "uint256",
							"name": "_amount",
							"type": "uint256"
						}
					],
					"name": "buyFromFixedSale",
					"outputs": [],
					"stateMutability": "payable",
					"type": "function"
				},
				{
					"inputs": [
						{
							"internalType": "address",
							"name": "_nftContractAddress",
							"type": "address"
						},
						{
							"internalType": "uint256",
							"name": "_tokenId",
							"type": "uint256"
						}
					],
					"name": "cancelFixedsale",
					"outputs": [],
					"stateMutability": "nonpayable",
					"type": "function"
				},
				{
					"inputs": [
						{
							"internalType": "address",
							"name": "_nftContractAddress",
							"type": "address"
						},
						{
							"internalType": "address",
							"name": "_erc20",
							"type": "address"
						},
						{
							"internalType": "uint256",
							"name": "_tokenId",
							"type": "uint256"
						},
						{
							"internalType": "uint256",
							"name": "_auctionStart",
							"type": "uint256"
						},
						{
							"internalType": "uint256",
							"name": "_auctionEnd",
							"type": "uint256"
						},
						{
							"internalType": "uint256",
							"name": "_minPrice",
							"type": "uint256"
						}
					],
					"name": "createNftAuctionSale",
					"outputs": [],
					"stateMutability": "nonpayable",
					"type": "function"
				},
				{
					"inputs": [
						{
							"internalType": "address",
							"name": "_nftContractAddress",
							"type": "address"
						},
						{
							"internalType": "uint256",
							"name": "_tokenId",
							"type": "uint256"
						}
					],
					"name": "getFixedSale",
					"outputs": [
						{
							"components": [
								{
									"internalType": "address",
									"name": "nftSeller",
									"type": "address"
								},
								{
									"internalType": "address",
									"name": "nftBuyer",
									"type": "address"
								},
								{
									"internalType": "address",
									"name": "erc20",
									"type": "address"
								},
								{
									"internalType": "uint256",
									"name": "salePrice",
									"type": "uint256"
								}
							],
							"internalType": "struct NFTMarketplace.FixedSale",
							"name": "",
							"type": "tuple"
						}
					],
					"stateMutability": "view",
					"type": "function"
				},
				{
					"inputs": [],
					"name": "getFixedSaleNFT",
					"outputs": [
						{
							"components": [
								{
									"internalType": "address",
									"name": "_nftContractAddress",
									"type": "address"
								},
								{
									"internalType": "uint256",
									"name": "_tokenID",
									"type": "uint256"
								}
							],
							"internalType": "struct NFTMarketplace.SaleInfo[]",
							"name": "",
							"type": "tuple[]"
						}
					],
					"stateMutability": "view",
					"type": "function"
				},
				{
					"inputs": [
						{
							"internalType": "address",
							"name": "_nftContractAddress",
							"type": "address"
						},
						{
							"internalType": "uint256",
							"name": "_tokenId",
							"type": "uint256"
						}
					],
					"name": "getNftAuctionSaleDetails",
					"outputs": [
						{
							"components": [
								{
									"internalType": "uint256",
									"name": "auctionStart",
									"type": "uint256"
								},
								{
									"internalType": "uint256",
									"name": "auctionEnd",
									"type": "uint256"
								},
								{
									"internalType": "uint256",
									"name": "minPrice",
									"type": "uint256"
								},
								{
									"internalType": "uint256",
									"name": "nftHighestBid",
									"type": "uint256"
								},
								{
									"internalType": "address",
									"name": "nftHighestBidder",
									"type": "address"
								},
								{
									"internalType": "address",
									"name": "nftSeller",
									"type": "address"
								},
								{
									"internalType": "address",
									"name": "erc20",
									"type": "address"
								}
							],
							"internalType": "struct NFTMarketplace.Auction",
							"name": "",
							"type": "tuple"
						}
					],
					"stateMutability": "view",
					"type": "function"
				},
				{
					"inputs": [
						{
							"internalType": "address",
							"name": "_nftContractAddress",
							"type": "address"
						},
						{
							"internalType": "uint256",
							"name": "_tokenId",
							"type": "uint256"
						},
						{
							"internalType": "uint256",
							"name": "_bidPrice",
							"type": "uint256"
						}
					],
					"name": "makeBid",
					"outputs": [],
					"stateMutability": "payable",
					"type": "function"
				},
				{
					"inputs": [
						{
							"internalType": "address",
							"name": "_nftContractAddress",
							"type": "address"
						},
						{
							"internalType": "address",
							"name": "_erc20",
							"type": "address"
						},
						{
							"internalType": "uint256",
							"name": "_tokenId",
							"type": "uint256"
						},
						{
							"internalType": "uint256",
							"name": "_salePrice",
							"type": "uint256"
						}
					],
					"name": "nftFixedSale",
					"outputs": [],
					"stateMutability": "nonpayable",
					"type": "function"
				},
				{
					"inputs": [
						{
							"internalType": "address",
							"name": "",
							"type": "address"
						},
						{
							"internalType": "uint256",
							"name": "",
							"type": "uint256"
						}
					],
					"name": "nftSaleStatus",
					"outputs": [
						{
							"internalType": "uint256",
							"name": "",
							"type": "uint256"
						}
					],
					"stateMutability": "view",
					"type": "function"
				},
				{
					"inputs": [
						{
							"internalType": "address",
							"name": "",
							"type": "address"
						},
						{
							"internalType": "address",
							"name": "from",
							"type": "address"
						},
						{
							"internalType": "uint256",
							"name": "",
							"type": "uint256"
						},
						{
							"internalType": "bytes",
							"name": "",
							"type": "bytes"
						}
					],
					"name": "onERC721Received",
					"outputs": [
						{
							"internalType": "bytes4",
							"name": "",
							"type": "bytes4"
						}
					],
					"stateMutability": "pure",
					"type": "function"
				},
				{
					"inputs": [
						{
							"internalType": "address",
							"name": "_nftContractAddress",
							"type": "address"
						},
						{
							"internalType": "uint256",
							"name": "_tokenId",
							"type": "uint256"
						}
					],
					"name": "settleAuction",
					"outputs": [],
					"stateMutability": "nonpayable",
					"type": "function"
				},
				{
					"inputs": [
						{
							"internalType": "address",
							"name": "_nftContractAddress",
							"type": "address"
						},
						{
							"internalType": "uint256",
							"name": "_tokenId",
							"type": "uint256"
						},
						{
							"internalType": "uint256",
							"name": "_updateSalePrice",
							"type": "uint256"
						}
					],
					"name": "updateFixedSalePrice",
					"outputs": [],
					"stateMutability": "nonpayable",
					"type": "function"
				},
				{
					"inputs": [
						{
							"internalType": "address",
							"name": "_nftContractAddress",
							"type": "address"
						},
						{
							"internalType": "uint256",
							"name": "_tokenId",
							"type": "uint256"
						},
						{
							"internalType": "uint256",
							"name": "_updateBidPrice",
							"type": "uint256"
						}
					],
					"name": "updateTheBidPrice",
					"outputs": [],
					"stateMutability": "payable",
					"type": "function"
				},
				{
					"inputs": [
						{
							"internalType": "address",
							"name": "",
							"type": "address"
						},
						{
							"internalType": "uint256",
							"name": "",
							"type": "uint256"
						},
						{
							"internalType": "address",
							"name": "",
							"type": "address"
						}
					],
					"name": "userBidPriceOnNFT",
					"outputs": [
						{
							"internalType": "uint256",
							"name": "",
							"type": "uint256"
						}
					],
					"stateMutability": "view",
					"type": "function"
				},
				{
					"inputs": [
						{
							"internalType": "address",
							"name": "_nftContractAddress",
							"type": "address"
						},
						{
							"internalType": "uint256",
							"name": "_tokenId",
							"type": "uint256"
						}
					],
					"name": "withdrawBid",
					"outputs": [],
					"stateMutability": "nonpayable",
					"type": "function"
				},
				{
					"stateMutability": "payable",
					"type": "receive"
				}
			],
			"devdoc": {
				"kind": "dev",
				"methods": {},
				"version": 1
			},
			"evm": {
				"assembly": "    /* \"NFT-Contracts/contracts/market_pri/NewMarket.sol\":174:20629  contract NFTMarketplace {\r... */\n  mstore(0x40, 0x80)\n  callvalue\n  dup1\n  iszero\n  tag_1\n  jumpi\n  0x00\n  dup1\n  revert\ntag_1:\n  pop\n  dataSize(sub_0)\n  dup1\n  dataOffset(sub_0)\n  0x00\n  codecopy\n  0x00\n  return\nstop\n\nsub_0: assembly {\n        /* \"NFT-Contracts/contracts/market_pri/NewMarket.sol\":174:20629  contract NFTMarketplace {\r... */\n      mstore(0x40, 0x80)\n      jumpi(tag_1, lt(calldatasize, 0x04))\n      shr(0xe0, calldataload(0x00))\n      dup1\n      0x6f8c9b1b\n      gt\n      tag_19\n      jumpi\n      dup1\n      0x9f085a00\n      gt\n      tag_20\n      jumpi\n      dup1\n      0x9f085a00\n      eq\n      tag_15\n      jumpi\n      dup1\n      0xbaf4371e\n      eq\n      tag_16\n      jumpi\n      dup1\n      0xcf42b7e6\n      eq\n      tag_17\n      jumpi\n      dup1\n      0xd3a6a6c9\n      eq\n      tag_18\n      jumpi\n      jump(tag_2)\n    tag_20:\n      dup1\n      0x6f8c9b1b\n      eq\n      tag_11\n      jumpi\n      dup1\n      0x6fe02f24\n      eq\n      tag_12\n      jumpi\n      dup1\n      0x842bc46a\n      eq\n      tag_13\n      jumpi\n      dup1\n      0x8c3417da\n      eq\n      tag_14\n      jumpi\n      jump(tag_2)\n    tag_19:\n      dup1\n      0x4cb8ef5b\n      gt\n      tag_21\n      jumpi\n      dup1\n      0x4cb8ef5b\n      eq\n      tag_7\n      jumpi\n      dup1\n      0x5138b08c\n      eq\n      tag_8\n      jumpi\n      dup1\n      0x6916462f\n      eq\n      tag_9\n      jumpi\n      dup1\n      0x69a6d12e\n      eq\n      tag_10\n      jumpi\n      jump(tag_2)\n    tag_21:\n      dup1\n      0x150b7a02\n      eq\n      tag_3\n      jumpi\n      dup1\n      0x1bdae6f1\n      eq\n      tag_4\n      jumpi\n      dup1\n      0x3a713db8\n      eq\n      tag_5\n      jumpi\n      dup1\n      0x4676adca\n      eq\n      tag_6\n      jumpi\n      jump(tag_2)\n    tag_1:\n      jumpi(tag_2, calldatasize)\n      stop\n    tag_2:\n      0x00\n      dup1\n      revert\n        /* \"NFT-Contracts/contracts/market_pri/NewMarket.sol\":17920:18135  function onERC721Received(\r... */\n    tag_3:\n      callvalue\n      dup1\n      iszero\n      tag_24\n      jumpi\n      0x00\n      dup1\n      revert\n    tag_24:\n      pop\n      tag_25\n      0x04\n      dup1\n      calldatasize\n      sub\n      dup2\n      add\n      swap1\n      tag_26\n      swap2\n      swap1\n      tag_27\n      jump\t// in\n    tag_26:\n      tag_28\n      jump\t// in\n    tag_25:\n      mload(0x40)\n      tag_29\n      swap2\n      swap1\n      tag_30\n      jump\t// in\n    tag_29:\n      mload(0x40)\n      dup1\n      swap2\n      sub\n      swap1\n      return\n        /* \"NFT-Contracts/contracts/market_pri/NewMarket.sol\":12330:13505  function makeBid(\r... */\n    tag_4:\n      tag_31\n      0x04\n      dup1\n      calldatasize\n      sub\n      dup2\n      add\n      swap1\n      tag_32\n      swap2\n      swap1\n      tag_33\n      jump\t// in\n    tag_32:\n      tag_34\n      jump\t// in\n    tag_31:\n      stop\n        /* \"NFT-Contracts/contracts/market_pri/NewMarket.sol\":13513:15029  function updateTheBidPrice(\r... */\n    tag_5:\n      tag_35\n      0x04\n      dup1\n      calldatasize\n      sub\n      dup2\n      add\n      swap1\n      tag_36\n      swap2\n      swap1\n      tag_33\n      jump\t// in\n    tag_36:\n      tag_37\n      jump\t// in\n    tag_35:\n      stop\n        /* \"NFT-Contracts/contracts/market_pri/NewMarket.sol\":9661:10239  function updateFixedSalePrice(\r... */\n    tag_6:\n      callvalue\n      dup1\n      iszero\n      tag_38\n      jumpi\n      0x00\n      dup1\n      revert\n    tag_38:\n      pop\n      tag_39\n      0x04\n      dup1\n      calldatasize\n      sub\n      dup2\n      add\n      swap1\n      tag_40\n      swap2\n      swap1\n      tag_33\n      jump\t// in\n    tag_40:\n      tag_41\n      jump\t// in\n    tag_39:\n      stop\n        /* \"NFT-Contracts/contracts/market_pri/NewMarket.sol\":16580:17338  function withdrawBid(address _nftContractAddress, uint256 _tokenId)\r... */\n    tag_7:\n      callvalue\n      dup1\n      iszero\n      tag_42\n      jumpi\n      0x00\n      dup1\n      revert\n    tag_42:\n      pop\n      tag_43\n      0x04\n      dup1\n      calldatasize\n      sub\n      dup2\n      add\n      swap1\n      tag_44\n      swap2\n      swap1\n      tag_45\n      jump\t// in\n    tag_44:\n      tag_46\n      jump\t// in\n    tag_43:\n      stop\n        /* \"NFT-Contracts/contracts/market_pri/NewMarket.sol\":15674:16572  function settleAuction(address _nftContractAddress, uint256 _tokenId)\r... */\n    tag_8:\n      callvalue\n      dup1\n      iszero\n      tag_47\n      jumpi\n      0x00\n      dup1\n      revert\n    tag_47:\n      pop\n      tag_48\n      0x04\n      dup1\n      calldatasize\n      sub\n      dup2\n      add\n      swap1\n      tag_49\n      swap2\n      swap1\n      tag_45\n      jump\t// in\n    tag_49:\n      tag_50\n      jump\t// in\n    tag_48:\n      stop\n        /* \"NFT-Contracts/contracts/market_pri/NewMarket.sol\":868:936  mapping(address => mapping(uint256 => uint256)) public nftSaleStatus */\n    tag_9:\n      callvalue\n      dup1\n      iszero\n      tag_51\n      jumpi\n      0x00\n      dup1\n      revert\n    tag_51:\n      pop\n      tag_52\n      0x04\n      dup1\n      calldatasize\n      sub\n      dup2\n      add\n      swap1\n      tag_53\n      swap2\n      swap1\n      tag_45\n      jump\t// in\n    tag_53:\n      tag_54\n      jump\t// in\n    tag_52:\n      mload(0x40)\n      tag_55\n      swap2\n      swap1\n      tag_56\n      jump\t// in\n    tag_55:\n      mload(0x40)\n      dup1\n      swap2\n      sub\n      swap1\n      return\n        /* \"NFT-Contracts/contracts/market_pri/NewMarket.sol\":7924:9059  function nftFixedSale(\r... */\n    tag_10:\n      callvalue\n      dup1\n      iszero\n      tag_57\n      jumpi\n      0x00\n      dup1\n      revert\n    tag_57:\n      pop\n      tag_58\n      0x04\n      dup1\n      calldatasize\n      sub\n      dup2\n      add\n      swap1\n      tag_59\n      swap2\n      swap1\n      tag_60\n      jump\t// in\n    tag_59:\n      tag_61\n      jump\t// in\n    tag_58:\n      stop\n        /* \"NFT-Contracts/contracts/market_pri/NewMarket.sol\":17346:17570  function getNftAuctionSaleDetails(\r... */\n    tag_11:\n      callvalue\n      dup1\n      iszero\n      tag_62\n      jumpi\n      0x00\n      dup1\n      revert\n    tag_62:\n      pop\n      tag_63\n      0x04\n      dup1\n      calldatasize\n      sub\n      dup2\n      add\n      swap1\n      tag_64\n      swap2\n      swap1\n      tag_45\n      jump\t// in\n    tag_64:\n      tag_65\n      jump\t// in\n    tag_63:\n      mload(0x40)\n      tag_66\n      swap2\n      swap1\n      tag_67\n      jump\t// in\n    tag_66:\n      mload(0x40)\n      dup1\n      swap2\n      sub\n      swap1\n      return\n        /* \"NFT-Contracts/contracts/market_pri/NewMarket.sol\":943:1044  mapping(address => mapping(uint256 => mapping(address => uint256)))\r... */\n    tag_12:\n      callvalue\n      dup1\n      iszero\n      tag_68\n      jumpi\n      0x00\n      dup1\n      revert\n    tag_68:\n      pop\n      tag_69\n      0x04\n      dup1\n      calldatasize\n      sub\n      dup2\n      add\n      swap1\n      tag_70\n      swap2\n      swap1\n      tag_71\n      jump\t// in\n    tag_70:\n      tag_72\n      jump\t// in\n    tag_69:\n      mload(0x40)\n      tag_73\n      swap2\n      swap1\n      tag_56\n      jump\t// in\n    tag_73:\n      mload(0x40)\n      dup1\n      swap2\n      sub\n      swap1\n      return\n        /* \"NFT-Contracts/contracts/market_pri/NewMarket.sol\":15037:15666  function _cancelAuctionSale(address _nftContractAddress, uint256 _tokenId)\r... */\n    tag_13:\n      callvalue\n      dup1\n      iszero\n      tag_74\n      jumpi\n      0x00\n      dup1\n      revert\n    tag_74:\n      pop\n      tag_75\n      0x04\n      dup1\n      calldatasize\n      sub\n      dup2\n      add\n      swap1\n      tag_76\n      swap2\n      swap1\n      tag_45\n      jump\t// in\n    tag_76:\n      tag_77\n      jump\t// in\n    tag_75:\n      stop\n        /* \"NFT-Contracts/contracts/market_pri/NewMarket.sol\":17693:17912  function getFixedSale(address _nftContractAddress, uint256 _tokenId)\r... */\n    tag_14:\n      callvalue\n      dup1\n      iszero\n      tag_78\n      jumpi\n      0x00\n      dup1\n      revert\n    tag_78:\n      pop\n      tag_79\n      0x04\n      dup1\n      calldatasize\n      sub\n      dup2\n      add\n      swap1\n      tag_80\n      swap2\n      swap1\n      tag_45\n      jump\t// in\n    tag_80:\n      tag_81\n      jump\t// in\n    tag_79:\n      mload(0x40)\n      tag_82\n      swap2\n      swap1\n      tag_83\n      jump\t// in\n    tag_82:\n      mload(0x40)\n      dup1\n      swap2\n      sub\n      swap1\n      return\n        /* \"NFT-Contracts/contracts/market_pri/NewMarket.sol\":17578:17685  function getFixedSaleNFT() external view returns (SaleInfo[] memory) {\r... */\n    tag_15:\n      callvalue\n      dup1\n      iszero\n      tag_84\n      jumpi\n      0x00\n      dup1\n      revert\n    tag_84:\n      pop\n      tag_85\n      tag_86\n      jump\t// in\n    tag_85:\n      mload(0x40)\n      tag_87\n      swap2\n      swap1\n      tag_88\n      jump\t// in\n    tag_87:\n      mload(0x40)\n      dup1\n      swap2\n      sub\n      swap1\n      return\n        /* \"NFT-Contracts/contracts/market_pri/NewMarket.sol\":10257:11396  function buyFromFixedSale(\r... */\n    tag_16:\n      tag_89\n      0x04\n      dup1\n      calldatasize\n      sub\n      dup2\n      add\n      swap1\n      tag_90\n      swap2\n      swap1\n      tag_33\n      jump\t// in\n    tag_90:\n      tag_91\n      jump\t// in\n    tag_89:\n      stop\n        /* \"NFT-Contracts/contracts/market_pri/NewMarket.sol\":11431:12322  function createNftAuctionSale(\r... */\n    tag_17:\n      callvalue\n      dup1\n      iszero\n      tag_92\n      jumpi\n      0x00\n      dup1\n      revert\n    tag_92:\n      pop\n      tag_93\n      0x04\n      dup1\n      calldatasize\n      sub\n      dup2\n      add\n      swap1\n      tag_94\n      swap2\n      swap1\n      tag_95\n      jump\t// in\n    tag_94:\n      tag_96\n      jump\t// in\n    tag_93:\n      stop\n        /* \"NFT-Contracts/contracts/market_pri/NewMarket.sol\":9067:9653  function cancelFixedsale(address _nftContractAddress, uint256 _tokenId)\r... */\n    tag_18:\n      callvalue\n      dup1\n      iszero\n      tag_97\n      jumpi\n      0x00\n      dup1\n      revert\n    tag_97:\n      pop\n      tag_98\n      0x04\n      dup1\n      calldatasize\n      sub\n      dup2\n      add\n      swap1\n      tag_99\n      swap2\n      swap1\n      tag_45\n      jump\t// in\n    tag_99:\n      tag_100\n      jump\t// in\n    tag_98:\n      stop\n        /* \"NFT-Contracts/contracts/market_pri/NewMarket.sol\":17920:18135  function onERC721Received(\r... */\n    tag_28:\n        /* \"NFT-Contracts/contracts/market_pri/NewMarket.sol\":18060:18066  bytes4 */\n      0x00\n        /* \"NFT-Contracts/contracts/market_pri/NewMarket.sol\":18086:18127  IERC721Receiver.onERC721Received.selector */\n      shl(0xe0, 0x150b7a02)\n        /* \"NFT-Contracts/contracts/market_pri/NewMarket.sol\":18079:18127  return IERC721Receiver.onERC721Received.selector */\n      swap1\n      pop\n        /* \"NFT-Contracts/contracts/market_pri/NewMarket.sol\":17920:18135  function onERC721Received(\r... */\n      swap6\n      swap5\n      pop\n      pop\n      pop\n      pop\n      pop\n      jump\t// out\n        /* \"NFT-Contracts/contracts/market_pri/NewMarket.sol\":12330:13505  function makeBid(\r... */\n    tag_34:\n        /* \"NFT-Contracts/contracts/market_pri/NewMarket.sol\":12510:12529  _nftContractAddress */\n      dup3\n        /* \"NFT-Contracts/contracts/market_pri/NewMarket.sol\":12531:12539  _tokenId */\n      dup3\n        /* \"NFT-Contracts/contracts/market_pri/NewMarket.sol\":3599:3600  2 */\n      0x02\n        /* \"NFT-Contracts/contracts/market_pri/NewMarket.sol\":3551:3564  nftSaleStatus */\n      dup1\n        /* \"NFT-Contracts/contracts/market_pri/NewMarket.sol\":3551:3585  nftSaleStatus[_nftContractAddress] */\n      0x00\n        /* \"NFT-Contracts/contracts/market_pri/NewMarket.sol\":3565:3584  _nftContractAddress */\n      dup5\n        /* \"NFT-Contracts/contracts/market_pri/NewMarket.sol\":3551:3585  nftSaleStatus[_nftContractAddress] */\n      0xffffffffffffffffffffffffffffffffffffffff\n      and\n      0xffffffffffffffffffffffffffffffffffffffff\n      and\n      dup2\n      mstore\n      0x20\n      add\n      swap1\n      dup2\n      mstore\n      0x20\n      add\n      0x00\n      keccak256\n        /* \"NFT-Contracts/contracts/market_pri/NewMarket.sol\":3551:3595  nftSaleStatus[_nftContractAddress][_tokenId] */\n      0x00\n        /* \"NFT-Contracts/contracts/market_pri/NewMarket.sol\":3586:3594  _tokenId */\n      dup4\n        /* \"NFT-Contracts/contracts/market_pri/NewMarket.sol\":3551:3595  nftSaleStatus[_nftContractAddress][_tokenId] */\n      dup2\n      mstore\n      0x20\n      add\n      swap1\n      dup2\n      mstore\n      0x20\n      add\n      0x00\n      keccak256\n      sload\n        /* \"NFT-Contracts/contracts/market_pri/NewMarket.sol\":3551:3600  nftSaleStatus[_nftContractAddress][_tokenId] == 2 */\n      eq\n        /* \"NFT-Contracts/contracts/market_pri/NewMarket.sol\":3529:3651  require(\r... */\n      tag_103\n      jumpi\n      mload(0x40)\n      0x08c379a000000000000000000000000000000000000000000000000000000000\n      dup2\n      mstore\n      0x04\n      add\n      tag_104\n      swap1\n      tag_105\n      jump\t// in\n    tag_104:\n      mload(0x40)\n      dup1\n      swap2\n      sub\n      swap1\n      revert\n    tag_103:\n        /* \"NFT-Contracts/contracts/market_pri/NewMarket.sol\":12567:12586  _nftContractAddress */\n      dup5\n        /* \"NFT-Contracts/contracts/market_pri/NewMarket.sol\":12588:12596  _tokenId */\n      dup5\n        /* \"NFT-Contracts/contracts/market_pri/NewMarket.sol\":5768:5790  nftContractAuctionSale */\n      0x01\n        /* \"NFT-Contracts/contracts/market_pri/NewMarket.sol\":5768:5811  nftContractAuctionSale[_nftContractAddress] */\n      0x00\n        /* \"NFT-Contracts/contracts/market_pri/NewMarket.sol\":5791:5810  _nftContractAddress */\n      dup4\n        /* \"NFT-Contracts/contracts/market_pri/NewMarket.sol\":5768:5811  nftContractAuctionSale[_nftContractAddress] */\n      0xffffffffffffffffffffffffffffffffffffffff\n      and\n      0xffffffffffffffffffffffffffffffffffffffff\n      and\n      dup2\n      mstore\n      0x20\n      add\n      swap1\n      dup2\n      mstore\n      0x20\n      add\n      0x00\n      keccak256\n        /* \"NFT-Contracts/contracts/market_pri/NewMarket.sol\":5768:5821  nftContractAuctionSale[_nftContractAddress][_tokenId] */\n      0x00\n        /* \"NFT-Contracts/contracts/market_pri/NewMarket.sol\":5812:5820  _tokenId */\n      dup3\n        /* \"NFT-Contracts/contracts/market_pri/NewMarket.sol\":5768:5821  nftContractAuctionSale[_nftContractAddress][_tokenId] */\n      dup2\n      mstore\n      0x20\n      add\n      swap1\n      dup2\n      mstore\n      0x20\n      add\n      0x00\n      keccak256\n        /* \"NFT-Contracts/contracts/market_pri/NewMarket.sol\":5768:5854  nftContractAuctionSale[_nftContractAddress][_tokenId]\r... */\n      0x01\n      add\n      sload\n        /* \"NFT-Contracts/contracts/market_pri/NewMarket.sol\":5733:5748  block.timestamp */\n      timestamp\n        /* \"NFT-Contracts/contracts/market_pri/NewMarket.sol\":5733:5854  block.timestamp <\r... */\n      lt\n        /* \"NFT-Contracts/contracts/market_pri/NewMarket.sol\":5711:5893  require(\r... */\n      tag_107\n      jumpi\n      mload(0x40)\n      0x08c379a000000000000000000000000000000000000000000000000000000000\n      dup2\n      mstore\n      0x04\n      add\n      tag_108\n      swap1\n      tag_109\n      jump\t// in\n    tag_108:\n      mload(0x40)\n      dup1\n      swap2\n      sub\n      swap1\n      revert\n    tag_107:\n        /* \"NFT-Contracts/contracts/market_pri/NewMarket.sol\":12628:12637  _bidPrice */\n      dup5\n        /* \"NFT-Contracts/contracts/market_pri/NewMarket.sol\":7848:7849  0 */\n      0x00\n        /* \"NFT-Contracts/contracts/market_pri/NewMarket.sol\":7839:7845  _price */\n      dup2\n        /* \"NFT-Contracts/contracts/market_pri/NewMarket.sol\":7839:7849  _price > 0 */\n      gt\n        /* \"NFT-Contracts/contracts/market_pri/NewMarket.sol\":7831:7871  require(_price > 0, \"Price cannot be 0\") */\n      tag_111\n      jumpi\n      mload(0x40)\n      0x08c379a000000000000000000000000000000000000000000000000000000000\n      dup2\n      mstore\n      0x04\n      add\n      tag_112\n      swap1\n      tag_113\n      jump\t// in\n    tag_112:\n      mload(0x40)\n      dup1\n      swap2\n      sub\n      swap1\n      revert\n    tag_111:\n        /* \"NFT-Contracts/contracts/market_pri/NewMarket.sol\":12692:12711  _nftContractAddress */\n      dup8\n        /* \"NFT-Contracts/contracts/market_pri/NewMarket.sol\":12726:12734  _tokenId */\n      dup8\n        /* \"NFT-Contracts/contracts/market_pri/NewMarket.sol\":12749:12758  msg.value */\n      callvalue\n        /* \"NFT-Contracts/contracts/market_pri/NewMarket.sol\":12773:12782  _bidPrice */\n      dup9\n        /* \"NFT-Contracts/contracts/market_pri/NewMarket.sol\":5089:5090  0 */\n      0x00\n        /* \"NFT-Contracts/contracts/market_pri/NewMarket.sol\":5005:5091  nftContractAuctionSale[_nftContractAddress][_tokenId].erc20 ==\r... */\n      0xffffffffffffffffffffffffffffffffffffffff\n      and\n        /* \"NFT-Contracts/contracts/market_pri/NewMarket.sol\":5005:5027  nftContractAuctionSale */\n      0x01\n        /* \"NFT-Contracts/contracts/market_pri/NewMarket.sol\":5005:5048  nftContractAuctionSale[_nftContractAddress] */\n      0x00\n        /* \"NFT-Contracts/contracts/market_pri/NewMarket.sol\":5028:5047  _nftContractAddress */\n      dup7\n        /* \"NFT-Contracts/contracts/market_pri/NewMarket.sol\":5005:5048  nftContractAuctionSale[_nftContractAddress] */\n      0xffffffffffffffffffffffffffffffffffffffff\n      and\n      0xffffffffffffffffffffffffffffffffffffffff\n      and\n      dup2\n      mstore\n      0x20\n      add\n      swap1\n      dup2\n      mstore\n      0x20\n      add\n      0x00\n      keccak256\n        /* \"NFT-Contracts/contracts/market_pri/NewMarket.sol\":5005:5058  nftContractAuctionSale[_nftContractAddress][_tokenId] */\n      0x00\n        /* \"NFT-Contracts/contracts/market_pri/NewMarket.sol\":5049:5057  _tokenId */\n      dup6\n        /* \"NFT-Contracts/contracts/market_pri/NewMarket.sol\":5005:5058  nftContractAuctionSale[_nftContractAddress][_tokenId] */\n      dup2\n      mstore\n      0x20\n      add\n      swap1\n      dup2\n      mstore\n      0x20\n      add\n      0x00\n      keccak256\n        /* \"NFT-Contracts/contracts/market_pri/NewMarket.sol\":5005:5064  nftContractAuctionSale[_nftContractAddress][_tokenId].erc20 */\n      0x06\n      add\n      0x00\n      swap1\n      sload\n      swap1\n      0x0100\n      exp\n      swap1\n      div\n      0xffffffffffffffffffffffffffffffffffffffff\n      and\n        /* \"NFT-Contracts/contracts/market_pri/NewMarket.sol\":5005:5091  nftContractAuctionSale[_nftContractAddress][_tokenId].erc20 ==\r... */\n      0xffffffffffffffffffffffffffffffffffffffff\n      and\n      eq\n        /* \"NFT-Contracts/contracts/market_pri/NewMarket.sol\":4987:5598  if (\r... */\n      iszero\n      tag_115\n      jumpi\n        /* \"NFT-Contracts/contracts/market_pri/NewMarket.sol\":5177:5199  nftContractAuctionSale */\n      0x01\n        /* \"NFT-Contracts/contracts/market_pri/NewMarket.sol\":5177:5220  nftContractAuctionSale[_nftContractAddress] */\n      0x00\n        /* \"NFT-Contracts/contracts/market_pri/NewMarket.sol\":5200:5219  _nftContractAddress */\n      dup6\n        /* \"NFT-Contracts/contracts/market_pri/NewMarket.sol\":5177:5220  nftContractAuctionSale[_nftContractAddress] */\n      0xffffffffffffffffffffffffffffffffffffffff\n      and\n      0xffffffffffffffffffffffffffffffffffffffff\n      and\n      dup2\n      mstore\n      0x20\n      add\n      swap1\n      dup2\n      mstore\n      0x20\n      add\n      0x00\n      keccak256\n        /* \"NFT-Contracts/contracts/market_pri/NewMarket.sol\":5177:5230  nftContractAuctionSale[_nftContractAddress][_tokenId] */\n      0x00\n        /* \"NFT-Contracts/contracts/market_pri/NewMarket.sol\":5221:5229  _tokenId */\n      dup5\n        /* \"NFT-Contracts/contracts/market_pri/NewMarket.sol\":5177:5230  nftContractAuctionSale[_nftContractAddress][_tokenId] */\n      dup2\n      mstore\n      0x20\n      add\n      swap1\n      dup2\n      mstore\n      0x20\n      add\n      0x00\n      keccak256\n        /* \"NFT-Contracts/contracts/market_pri/NewMarket.sol\":5177:5270  nftContractAuctionSale[_nftContractAddress][_tokenId]\r... */\n      0x03\n      add\n      sload\n        /* \"NFT-Contracts/contracts/market_pri/NewMarket.sol\":5144:5153  _bidPrice */\n      dup3\n        /* \"NFT-Contracts/contracts/market_pri/NewMarket.sol\":5144:5270  _bidPrice >\r... */\n      gt\n        /* \"NFT-Contracts/contracts/market_pri/NewMarket.sol\":5118:5335  require(\r... */\n      tag_116\n      jumpi\n      mload(0x40)\n      0x08c379a000000000000000000000000000000000000000000000000000000000\n      dup2\n      mstore\n      0x04\n      add\n      tag_117\n      swap1\n      tag_118\n      jump\t// in\n    tag_117:\n      mload(0x40)\n      dup1\n      swap2\n      sub\n      swap1\n      revert\n    tag_116:\n        /* \"NFT-Contracts/contracts/market_pri/NewMarket.sol\":4987:5598  if (\r... */\n      jump(tag_119)\n    tag_115:\n        /* \"NFT-Contracts/contracts/market_pri/NewMarket.sol\":5428:5450  nftContractAuctionSale */\n      0x01\n        /* \"NFT-Contracts/contracts/market_pri/NewMarket.sol\":5428:5471  nftContractAuctionSale[_nftContractAddress] */\n      0x00\n        /* \"NFT-Contracts/contracts/market_pri/NewMarket.sol\":5451:5470  _nftContractAddress */\n      dup6\n        /* \"NFT-Contracts/contracts/market_pri/NewMarket.sol\":5428:5471  nftContractAuctionSale[_nftContractAddress] */\n      0xffffffffffffffffffffffffffffffffffffffff\n      and\n      0xffffffffffffffffffffffffffffffffffffffff\n      and\n      dup2\n      mstore\n      0x20\n      add\n      swap1\n      dup2\n      mstore\n      0x20\n      add\n      0x00\n      keccak256\n        /* \"NFT-Contracts/contracts/market_pri/NewMarket.sol\":5428:5481  nftContractAuctionSale[_nftContractAddress][_tokenId] */\n      0x00\n        /* \"NFT-Contracts/contracts/market_pri/NewMarket.sol\":5472:5480  _tokenId */\n      dup5\n        /* \"NFT-Contracts/contracts/market_pri/NewMarket.sol\":5428:5481  nftContractAuctionSale[_nftContractAddress][_tokenId] */\n      dup2\n      mstore\n      0x20\n      add\n      swap1\n      dup2\n      mstore\n      0x20\n      add\n      0x00\n      keccak256\n        /* \"NFT-Contracts/contracts/market_pri/NewMarket.sol\":5428:5521  nftContractAuctionSale[_nftContractAddress][_tokenId]\r... */\n      0x03\n      add\n      sload\n        /* \"NFT-Contracts/contracts/market_pri/NewMarket.sol\":5394:5404  _bidPrice1 */\n      dup2\n        /* \"NFT-Contracts/contracts/market_pri/NewMarket.sol\":5394:5521  _bidPrice1 >\r... */\n      gt\n        /* \"NFT-Contracts/contracts/market_pri/NewMarket.sol\":5368:5586  require(\r... */\n      tag_120\n      jumpi\n      mload(0x40)\n      0x08c379a000000000000000000000000000000000000000000000000000000000\n      dup2\n      mstore\n      0x04\n      add\n      tag_121\n      swap1\n      tag_118\n      jump\t// in\n    tag_121:\n      mload(0x40)\n      dup1\n      swap2\n      sub\n      swap1\n      revert\n    tag_120:\n        /* \"NFT-Contracts/contracts/market_pri/NewMarket.sol\":4987:5598  if (\r... */\n    tag_119:\n        /* \"NFT-Contracts/contracts/market_pri/NewMarket.sol\":12912:12913  0 */\n      0x00\n        /* \"NFT-Contracts/contracts/market_pri/NewMarket.sol\":12828:12914  nftContractAuctionSale[_nftContractAddress][_tokenId].erc20 !=\r... */\n      0xffffffffffffffffffffffffffffffffffffffff\n      and\n        /* \"NFT-Contracts/contracts/market_pri/NewMarket.sol\":12828:12850  nftContractAuctionSale */\n      0x01\n        /* \"NFT-Contracts/contracts/market_pri/NewMarket.sol\":12828:12871  nftContractAuctionSale[_nftContractAddress] */\n      0x00\n        /* \"NFT-Contracts/contracts/market_pri/NewMarket.sol\":12851:12870  _nftContractAddress */\n      dup15\n        /* \"NFT-Contracts/contracts/market_pri/NewMarket.sol\":12828:12871  nftContractAuctionSale[_nftContractAddress] */\n      0xffffffffffffffffffffffffffffffffffffffff\n      and\n      0xffffffffffffffffffffffffffffffffffffffff\n      and\n      dup2\n      mstore\n      0x20\n      add\n      swap1\n      dup2\n      mstore\n      0x20\n      add\n      0x00\n      keccak256\n        /* \"NFT-Contracts/contracts/market_pri/NewMarket.sol\":12828:12881  nftContractAuctionSale[_nftContractAddress][_tokenId] */\n      0x00\n        /* \"NFT-Contracts/contracts/market_pri/NewMarket.sol\":12872:12880  _tokenId */\n      dup14\n        /* \"NFT-Contracts/contracts/market_pri/NewMarket.sol\":12828:12881  nftContractAuctionSale[_nftContractAddress][_tokenId] */\n      dup2\n      mstore\n      0x20\n      add\n      swap1\n      dup2\n      mstore\n      0x20\n      add\n      0x00\n      keccak256\n        /* \"NFT-Contracts/contracts/market_pri/NewMarket.sol\":12828:12887  nftContractAuctionSale[_nftContractAddress][_tokenId].erc20 */\n      0x06\n      add\n      0x00\n      swap1\n      sload\n      swap1\n      0x0100\n      exp\n      swap1\n      div\n      0xffffffffffffffffffffffffffffffffffffffff\n      and\n        /* \"NFT-Contracts/contracts/market_pri/NewMarket.sol\":12828:12914  nftContractAuctionSale[_nftContractAddress][_tokenId].erc20 !=\r... */\n      0xffffffffffffffffffffffffffffffffffffffff\n      and\n      eq\n        /* \"NFT-Contracts/contracts/market_pri/NewMarket.sol\":12810:13092  if (\r... */\n      tag_123\n      jumpi\n        /* \"NFT-Contracts/contracts/market_pri/NewMarket.sol\":12941:13080  _bidAmountTransfer(\r... */\n      tag_124\n        /* \"NFT-Contracts/contracts/market_pri/NewMarket.sol\":12978:12987  _bidPrice */\n      dup11\n        /* \"NFT-Contracts/contracts/market_pri/NewMarket.sol\":13006:13028  nftContractAuctionSale */\n      0x01\n        /* \"NFT-Contracts/contracts/market_pri/NewMarket.sol\":13006:13049  nftContractAuctionSale[_nftContractAddress] */\n      0x00\n        /* \"NFT-Contracts/contracts/market_pri/NewMarket.sol\":13029:13048  _nftContractAddress */\n      dup16\n        /* \"NFT-Contracts/contracts/market_pri/NewMarket.sol\":13006:13049  nftContractAuctionSale[_nftContractAddress] */\n      0xffffffffffffffffffffffffffffffffffffffff\n      and\n      0xffffffffffffffffffffffffffffffffffffffff\n      and\n      dup2\n      mstore\n      0x20\n      add\n      swap1\n      dup2\n      mstore\n      0x20\n      add\n      0x00\n      keccak256\n        /* \"NFT-Contracts/contracts/market_pri/NewMarket.sol\":13006:13059  nftContractAuctionSale[_nftContractAddress][_tokenId] */\n      0x00\n        /* \"NFT-Contracts/contracts/market_pri/NewMarket.sol\":13050:13058  _tokenId */\n      dup15\n        /* \"NFT-Contracts/contracts/market_pri/NewMarket.sol\":13006:13059  nftContractAuctionSale[_nftContractAddress][_tokenId] */\n      dup2\n      mstore\n      0x20\n      add\n      swap1\n      dup2\n      mstore\n      0x20\n      add\n      0x00\n      keccak256\n        /* \"NFT-Contracts/contracts/market_pri/NewMarket.sol\":13006:13065  nftContractAuctionSale[_nftContractAddress][_tokenId].erc20 */\n      0x06\n      add\n      0x00\n      swap1\n      sload\n      swap1\n      0x0100\n      exp\n      swap1\n      div\n      0xffffffffffffffffffffffffffffffffffffffff\n      and\n        /* \"NFT-Contracts/contracts/market_pri/NewMarket.sol\":12941:12959  _bidAmountTransfer */\n      tag_125\n        /* \"NFT-Contracts/contracts/market_pri/NewMarket.sol\":12941:13080  _bidAmountTransfer(\r... */\n      jump\t// in\n    tag_124:\n        /* \"NFT-Contracts/contracts/market_pri/NewMarket.sol\":12810:13092  if (\r... */\n    tag_123:\n        /* \"NFT-Contracts/contracts/market_pri/NewMarket.sol\":13188:13197  _bidPrice */\n      dup10\n        /* \"NFT-Contracts/contracts/market_pri/NewMarket.sol\":13104:13126  nftContractAuctionSale */\n      0x01\n        /* \"NFT-Contracts/contracts/market_pri/NewMarket.sol\":13104:13147  nftContractAuctionSale[_nftContractAddress] */\n      0x00\n        /* \"NFT-Contracts/contracts/market_pri/NewMarket.sol\":13127:13146  _nftContractAddress */\n      dup15\n        /* \"NFT-Contracts/contracts/market_pri/NewMarket.sol\":13104:13147  nftContractAuctionSale[_nftContractAddress] */\n      0xffffffffffffffffffffffffffffffffffffffff\n      and\n      0xffffffffffffffffffffffffffffffffffffffff\n      and\n      dup2\n      mstore\n      0x20\n      add\n      swap1\n      dup2\n      mstore\n      0x20\n      add\n      0x00\n      keccak256\n        /* \"NFT-Contracts/contracts/market_pri/NewMarket.sol\":13104:13157  nftContractAuctionSale[_nftContractAddress][_tokenId] */\n      0x00\n        /* \"NFT-Contracts/contracts/market_pri/NewMarket.sol\":13148:13156  _tokenId */\n      dup14\n        /* \"NFT-Contracts/contracts/market_pri/NewMarket.sol\":13104:13157  nftContractAuctionSale[_nftContractAddress][_tokenId] */\n      dup2\n      mstore\n      0x20\n      add\n      swap1\n      dup2\n      mstore\n      0x20\n      add\n      0x00\n      keccak256\n        /* \"NFT-Contracts/contracts/market_pri/NewMarket.sol\":13104:13185  nftContractAuctionSale[_nftContractAddress][_tokenId]\r... */\n      0x03\n      add\n        /* \"NFT-Contracts/contracts/market_pri/NewMarket.sol\":13104:13197  nftContractAuctionSale[_nftContractAddress][_tokenId]\r... */\n      dup2\n      swap1\n      sstore\n      pop\n        /* \"NFT-Contracts/contracts/market_pri/NewMarket.sol\":13295:13305  msg.sender */\n      caller\n        /* \"NFT-Contracts/contracts/market_pri/NewMarket.sol\":13208:13230  nftContractAuctionSale */\n      0x01\n        /* \"NFT-Contracts/contracts/market_pri/NewMarket.sol\":13208:13251  nftContractAuctionSale[_nftContractAddress] */\n      0x00\n        /* \"NFT-Contracts/contracts/market_pri/NewMarket.sol\":13231:13250  _nftContractAddress */\n      dup15\n        /* \"NFT-Contracts/contracts/market_pri/NewMarket.sol\":13208:13251  nftContractAuctionSale[_nftContractAddress] */\n      0xffffffffffffffffffffffffffffffffffffffff\n      and\n      0xffffffffffffffffffffffffffffffffffffffff\n      and\n      dup2\n      mstore\n      0x20\n      add\n      swap1\n      dup2\n      mstore\n      0x20\n      add\n      0x00\n      keccak256\n        /* \"NFT-Contracts/contracts/market_pri/NewMarket.sol\":13208:13261  nftContractAuctionSale[_nftContractAddress][_tokenId] */\n      0x00\n        /* \"NFT-Contracts/contracts/market_pri/NewMarket.sol\":13252:13260  _tokenId */\n      dup14\n        /* \"NFT-Contracts/contracts/market_pri/NewMarket.sol\":13208:13261  nftContractAuctionSale[_nftContractAddress][_tokenId] */\n      dup2\n      mstore\n      0x20\n      add\n      swap1\n      dup2\n      mstore\n      0x20\n      add\n      0x00\n      keccak256\n        /* \"NFT-Contracts/contracts/market_pri/NewMarket.sol\":13208:13292  nftContractAuctionSale[_nftContractAddress][_tokenId]\r... */\n      0x04\n      add\n      0x00\n        /* \"NFT-Contracts/contracts/market_pri/NewMarket.sol\":13208:13305  nftContractAuctionSale[_nftContractAddress][_tokenId]\r... */\n      0x0100\n      exp\n      dup2\n      sload\n      dup2\n      0xffffffffffffffffffffffffffffffffffffffff\n      mul\n      not\n      and\n      swap1\n      dup4\n      0xffffffffffffffffffffffffffffffffffffffff\n      and\n      mul\n      or\n      swap1\n      sstore\n      pop\n        /* \"NFT-Contracts/contracts/market_pri/NewMarket.sol\":13405:13414  _bidPrice */\n      dup10\n        /* \"NFT-Contracts/contracts/market_pri/NewMarket.sol\":13318:13335  userBidPriceOnNFT */\n      0x03\n        /* \"NFT-Contracts/contracts/market_pri/NewMarket.sol\":13318:13356  userBidPriceOnNFT[_nftContractAddress] */\n      0x00\n        /* \"NFT-Contracts/contracts/market_pri/NewMarket.sol\":13336:13355  _nftContractAddress */\n      dup15\n        /* \"NFT-Contracts/contracts/market_pri/NewMarket.sol\":13318:13356  userBidPriceOnNFT[_nftContractAddress] */\n      0xffffffffffffffffffffffffffffffffffffffff\n      and\n      0xffffffffffffffffffffffffffffffffffffffff\n      and\n      dup2\n      mstore\n      0x20\n      add\n      swap1\n      dup2\n      mstore\n      0x20\n      add\n      0x00\n      keccak256\n        /* \"NFT-Contracts/contracts/market_pri/NewMarket.sol\":13318:13366  userBidPriceOnNFT[_nftContractAddress][_tokenId] */\n      0x00\n        /* \"NFT-Contracts/contracts/market_pri/NewMarket.sol\":13357:13365  _tokenId */\n      dup14\n        /* \"NFT-Contracts/contracts/market_pri/NewMarket.sol\":13318:13366  userBidPriceOnNFT[_nftContractAddress][_tokenId] */\n      dup2\n      mstore\n      0x20\n      add\n      swap1\n      dup2\n      mstore\n      0x20\n      add\n      0x00\n      keccak256\n        /* \"NFT-Contracts/contracts/market_pri/NewMarket.sol\":13318:13402  userBidPriceOnNFT[_nftContractAddress][_tokenId][\r... */\n      0x00\n        /* \"NFT-Contracts/contracts/market_pri/NewMarket.sol\":13381:13391  msg.sender */\n      caller\n        /* \"NFT-Contracts/contracts/market_pri/NewMarket.sol\":13318:13402  userBidPriceOnNFT[_nftContractAddress][_tokenId][\r... */\n      0xffffffffffffffffffffffffffffffffffffffff\n      and\n      0xffffffffffffffffffffffffffffffffffffffff\n      and\n      dup2\n      mstore\n      0x20\n      add\n      swap1\n      dup2\n      mstore\n      0x20\n      add\n      0x00\n      keccak256\n        /* \"NFT-Contracts/contracts/market_pri/NewMarket.sol\":13318:13414  userBidPriceOnNFT[_nftContractAddress][_tokenId][\r... */\n      dup2\n      swap1\n      sstore\n      pop\n        /* \"NFT-Contracts/contracts/market_pri/NewMarket.sol\":13432:13497  NftBidPrice(_nftContractAddress, _tokenId, _bidPrice, msg.sender) */\n      0xd56cb6210c78740462007b728932c802bc41b205ed5c8a98ab95421eaf054b22\n        /* \"NFT-Contracts/contracts/market_pri/NewMarket.sol\":13444:13463  _nftContractAddress */\n      dup13\n        /* \"NFT-Contracts/contracts/market_pri/NewMarket.sol\":13465:13473  _tokenId */\n      dup13\n        /* \"NFT-Contracts/contracts/market_pri/NewMarket.sol\":13475:13484  _bidPrice */\n      dup13\n        /* \"NFT-Contracts/contracts/market_pri/NewMarket.sol\":13486:13496  msg.sender */\n      caller\n        /* \"NFT-Contracts/contracts/market_pri/NewMarket.sol\":13432:13497  NftBidPrice(_nftContractAddress, _tokenId, _bidPrice, msg.sender) */\n      mload(0x40)\n      tag_126\n      swap5\n      swap4\n      swap3\n      swap2\n      swap1\n      tag_127\n      jump\t// in\n    tag_126:\n      mload(0x40)\n      dup1\n      swap2\n      sub\n      swap1\n      log1\n        /* \"NFT-Contracts/contracts/market_pri/NewMarket.sol\":7882:7883  _ */\n      pop\n      pop\n      pop\n      pop\n        /* \"NFT-Contracts/contracts/market_pri/NewMarket.sol\":5904:5905  _ */\n      pop\n        /* \"NFT-Contracts/contracts/market_pri/NewMarket.sol\":3662:3663  _ */\n      pop\n      pop\n        /* \"NFT-Contracts/contracts/market_pri/NewMarket.sol\":12330:13505  function makeBid(\r... */\n      pop\n      pop\n      pop\n      pop\n      pop\n      jump\t// out\n        /* \"NFT-Contracts/contracts/market_pri/NewMarket.sol\":13513:15029  function updateTheBidPrice(\r... */\n    tag_37:\n        /* \"NFT-Contracts/contracts/market_pri/NewMarket.sol\":13709:13728  _nftContractAddress */\n      dup3\n        /* \"NFT-Contracts/contracts/market_pri/NewMarket.sol\":13730:13738  _tokenId */\n      dup3\n        /* \"NFT-Contracts/contracts/market_pri/NewMarket.sol\":3599:3600  2 */\n      0x02\n        /* \"NFT-Contracts/contracts/market_pri/NewMarket.sol\":3551:3564  nftSaleStatus */\n      dup1\n        /* \"NFT-Contracts/contracts/market_pri/NewMarket.sol\":3551:3585  nftSaleStatus[_nftContractAddress] */\n      0x00\n        /* \"NFT-Contracts/contracts/market_pri/NewMarket.sol\":3565:3584  _nftContractAddress */\n      dup5\n        /* \"NFT-Contracts/contracts/market_pri/NewMarket.sol\":3551:3585  nftSaleStatus[_nftContractAddress] */\n      0xffffffffffffffffffffffffffffffffffffffff\n      and\n      0xffffffffffffffffffffffffffffffffffffffff\n      and\n      dup2\n      mstore\n      0x20\n      add\n      swap1\n      dup2\n      mstore\n      0x20\n      add\n      0x00\n      keccak256\n        /* \"NFT-Contracts/contracts/market_pri/NewMarket.sol\":3551:3595  nftSaleStatus[_nftContractAddress][_tokenId] */\n      0x00\n        /* \"NFT-Contracts/contracts/market_pri/NewMarket.sol\":3586:3594  _tokenId */\n      dup4\n        /* \"NFT-Contracts/contracts/market_pri/NewMarket.sol\":3551:3595  nftSaleStatus[_nftContractAddress][_tokenId] */\n      dup2\n      mstore\n      0x20\n      add\n      swap1\n      dup2\n      mstore\n      0x20\n      add\n      0x00\n      keccak256\n      sload\n        /* \"NFT-Contracts/contracts/market_pri/NewMarket.sol\":3551:3600  nftSaleStatus[_nftContractAddress][_tokenId] == 2 */\n      eq\n        /* \"NFT-Contracts/contracts/market_pri/NewMarket.sol\":3529:3651  require(\r... */\n      tag_129\n      jumpi\n      mload(0x40)\n      0x08c379a000000000000000000000000000000000000000000000000000000000\n      dup2\n      mstore\n      0x04\n      add\n      tag_130\n      swap1\n      tag_105\n      jump\t// in\n    tag_130:\n      mload(0x40)\n      dup1\n      swap2\n      sub\n      swap1\n      revert\n    tag_129:\n        /* \"NFT-Contracts/contracts/market_pri/NewMarket.sol\":13766:13785  _nftContractAddress */\n      dup5\n        /* \"NFT-Contracts/contracts/market_pri/NewMarket.sol\":13787:13795  _tokenId */\n      dup5\n        /* \"NFT-Contracts/contracts/market_pri/NewMarket.sol\":5768:5790  nftContractAuctionSale */\n      0x01\n        /* \"NFT-Contracts/contracts/market_pri/NewMarket.sol\":5768:5811  nftContractAuctionSale[_nftContractAddress] */\n      0x00\n        /* \"NFT-Contracts/contracts/market_pri/NewMarket.sol\":5791:5810  _nftContractAddress */\n      dup4\n        /* \"NFT-Contracts/contracts/market_pri/NewMarket.sol\":5768:5811  nftContractAuctionSale[_nftContractAddress] */\n      0xffffffffffffffffffffffffffffffffffffffff\n      and\n      0xffffffffffffffffffffffffffffffffffffffff\n      and\n      dup2\n      mstore\n      0x20\n      add\n      swap1\n      dup2\n      mstore\n      0x20\n      add\n      0x00\n      keccak256\n        /* \"NFT-Contracts/contracts/market_pri/NewMarket.sol\":5768:5821  nftContractAuctionSale[_nftContractAddress][_tokenId] */\n      0x00\n        /* \"NFT-Contracts/contracts/market_pri/NewMarket.sol\":5812:5820  _tokenId */\n      dup3\n        /* \"NFT-Contracts/contracts/market_pri/NewMarket.sol\":5768:5821  nftContractAuctionSale[_nftContractAddress][_tokenId] */\n      dup2\n      mstore\n      0x20\n      add\n      swap1\n      dup2\n      mstore\n      0x20\n      add\n      0x00\n      keccak256\n        /* \"NFT-Contracts/contracts/market_pri/NewMarket.sol\":5768:5854  nftContractAuctionSale[_nftContractAddress][_tokenId]\r... */\n      0x01\n      add\n      sload\n        /* \"NFT-Contracts/contracts/market_pri/NewMarket.sol\":5733:5748  block.timestamp */\n      timestamp\n        /* \"NFT-Contracts/contracts/market_pri/NewMarket.sol\":5733:5854  block.timestamp <\r... */\n      lt\n        /* \"NFT-Contracts/contracts/market_pri/NewMarket.sol\":5711:5893  require(\r... */\n      tag_132\n      jumpi\n      mload(0x40)\n      0x08c379a000000000000000000000000000000000000000000000000000000000\n      dup2\n      mstore\n      0x04\n      add\n      tag_133\n      swap1\n      tag_109\n      jump\t// in\n    tag_133:\n      mload(0x40)\n      dup1\n      swap2\n      sub\n      swap1\n      revert\n    tag_132:\n        /* \"NFT-Contracts/contracts/market_pri/NewMarket.sol\":13827:13836  msg.value */\n      callvalue\n        /* \"NFT-Contracts/contracts/market_pri/NewMarket.sol\":7848:7849  0 */\n      0x00\n        /* \"NFT-Contracts/contracts/market_pri/NewMarket.sol\":7839:7845  _price */\n      dup2\n        /* \"NFT-Contracts/contracts/market_pri/NewMarket.sol\":7839:7849  _price > 0 */\n      gt\n        /* \"NFT-Contracts/contracts/market_pri/NewMarket.sol\":7831:7871  require(_price > 0, \"Price cannot be 0\") */\n      tag_135\n      jumpi\n      mload(0x40)\n      0x08c379a000000000000000000000000000000000000000000000000000000000\n      dup2\n      mstore\n      0x04\n      add\n      tag_136\n      swap1\n      tag_113\n      jump\t// in\n    tag_136:\n      mload(0x40)\n      dup1\n      swap2\n      sub\n      swap1\n      revert\n    tag_135:\n        /* \"NFT-Contracts/contracts/market_pri/NewMarket.sol\":13892:13911  _nftContractAddress */\n      dup8\n        /* \"NFT-Contracts/contracts/market_pri/NewMarket.sol\":13926:13934  _tokenId */\n      dup8\n        /* \"NFT-Contracts/contracts/market_pri/NewMarket.sol\":13949:13958  msg.value */\n      callvalue\n        /* \"NFT-Contracts/contracts/market_pri/NewMarket.sol\":13973:13988  _updateBidPrice */\n      dup9\n        /* \"NFT-Contracts/contracts/market_pri/NewMarket.sol\":6412:6434  uint256 _finalBidPrice */\n      0x00\n        /* \"NFT-Contracts/contracts/market_pri/NewMarket.sol\":6547:6548  0 */\n      dup1\n        /* \"NFT-Contracts/contracts/market_pri/NewMarket.sol\":6463:6549  nftContractAuctionSale[_nftContractAddress][_tokenId].erc20 ==\r... */\n      0xffffffffffffffffffffffffffffffffffffffff\n      and\n        /* \"NFT-Contracts/contracts/market_pri/NewMarket.sol\":6463:6485  nftContractAuctionSale */\n      0x01\n        /* \"NFT-Contracts/contracts/market_pri/NewMarket.sol\":6463:6506  nftContractAuctionSale[_nftContractAddress] */\n      0x00\n        /* \"NFT-Contracts/contracts/market_pri/NewMarket.sol\":6486:6505  _nftContractAddress */\n      dup8\n        /* \"NFT-Contracts/contracts/market_pri/NewMarket.sol\":6463:6506  nftContractAuctionSale[_nftContractAddress] */\n      0xffffffffffffffffffffffffffffffffffffffff\n      and\n      0xffffffffffffffffffffffffffffffffffffffff\n      and\n      dup2\n      mstore\n      0x20\n      add\n      swap1\n      dup2\n      mstore\n      0x20\n      add\n      0x00\n      keccak256\n        /* \"NFT-Contracts/contracts/market_pri/NewMarket.sol\":6463:6516  nftContractAuctionSale[_nftContractAddress][_tokenId] */\n      0x00\n        /* \"NFT-Contracts/contracts/market_pri/NewMarket.sol\":6507:6515  _tokenId */\n      dup7\n        /* \"NFT-Contracts/contracts/market_pri/NewMarket.sol\":6463:6516  nftContractAuctionSale[_nftContractAddress][_tokenId] */\n      dup2\n      mstore\n      0x20\n      add\n      swap1\n      dup2\n      mstore\n      0x20\n      add\n      0x00\n      keccak256\n        /* \"NFT-Contracts/contracts/market_pri/NewMarket.sol\":6463:6522  nftContractAuctionSale[_nftContractAddress][_tokenId].erc20 */\n      0x06\n      add\n      0x00\n      swap1\n      sload\n      swap1\n      0x0100\n      exp\n      swap1\n      div\n      0xffffffffffffffffffffffffffffffffffffffff\n      and\n        /* \"NFT-Contracts/contracts/market_pri/NewMarket.sol\":6463:6549  nftContractAuctionSale[_nftContractAddress][_tokenId].erc20 ==\r... */\n      0xffffffffffffffffffffffffffffffffffffffff\n      and\n      eq\n        /* \"NFT-Contracts/contracts/market_pri/NewMarket.sol\":6445:6882  if (\r... */\n      iszero\n      tag_138\n      jumpi\n        /* \"NFT-Contracts/contracts/market_pri/NewMarket.sol\":6593:6706  userBidPriceOnNFT[_nftContractAddress][_tokenId][\r... */\n      tag_139\n        /* \"NFT-Contracts/contracts/market_pri/NewMarket.sol\":6690:6705  _updateBidPrice */\n      dup4\n        /* \"NFT-Contracts/contracts/market_pri/NewMarket.sol\":6593:6610  userBidPriceOnNFT */\n      0x03\n        /* \"NFT-Contracts/contracts/market_pri/NewMarket.sol\":6593:6631  userBidPriceOnNFT[_nftContractAddress] */\n      0x00\n        /* \"NFT-Contracts/contracts/market_pri/NewMarket.sol\":6611:6630  _nftContractAddress */\n      dup9\n        /* \"NFT-Contracts/contracts/market_pri/NewMarket.sol\":6593:6631  userBidPriceOnNFT[_nftContractAddress] */\n      0xffffffffffffffffffffffffffffffffffffffff\n      and\n      0xffffffffffffffffffffffffffffffffffffffff\n      and\n      dup2\n      mstore\n      0x20\n      add\n      swap1\n      dup2\n      mstore\n      0x20\n      add\n      0x00\n      keccak256\n        /* \"NFT-Contracts/contracts/market_pri/NewMarket.sol\":6593:6641  userBidPriceOnNFT[_nftContractAddress][_tokenId] */\n      0x00\n        /* \"NFT-Contracts/contracts/market_pri/NewMarket.sol\":6632:6640  _tokenId */\n      dup8\n        /* \"NFT-Contracts/contracts/market_pri/NewMarket.sol\":6593:6641  userBidPriceOnNFT[_nftContractAddress][_tokenId] */\n      dup2\n      mstore\n      0x20\n      add\n      swap1\n      dup2\n      mstore\n      0x20\n      add\n      0x00\n      keccak256\n        /* \"NFT-Contracts/contracts/market_pri/NewMarket.sol\":6593:6685  userBidPriceOnNFT[_nftContractAddress][_tokenId][\r... */\n      0x00\n        /* \"NFT-Contracts/contracts/market_pri/NewMarket.sol\":6660:6670  msg.sender */\n      caller\n        /* \"NFT-Contracts/contracts/market_pri/NewMarket.sol\":6593:6685  userBidPriceOnNFT[_nftContractAddress][_tokenId][\r... */\n      0xffffffffffffffffffffffffffffffffffffffff\n      and\n      0xffffffffffffffffffffffffffffffffffffffff\n      and\n      dup2\n      mstore\n      0x20\n      add\n      swap1\n      dup2\n      mstore\n      0x20\n      add\n      0x00\n      keccak256\n      sload\n        /* \"NFT-Contracts/contracts/market_pri/NewMarket.sol\":6593:6689  userBidPriceOnNFT[_nftContractAddress][_tokenId][\r... */\n      tag_140\n      swap1\n        /* \"NFT-Contracts/contracts/market_pri/NewMarket.sol\":6593:6706  userBidPriceOnNFT[_nftContractAddress][_tokenId][\r... */\n      swap2\n      swap1\n      0xffffffff\n      and\n      jump\t// in\n    tag_139:\n        /* \"NFT-Contracts/contracts/market_pri/NewMarket.sol\":6576:6706  _finalBidPrice = userBidPriceOnNFT[_nftContractAddress][_tokenId][\r... */\n      swap1\n      pop\n        /* \"NFT-Contracts/contracts/market_pri/NewMarket.sol\":6445:6882  if (\r... */\n      jump(tag_141)\n    tag_138:\n        /* \"NFT-Contracts/contracts/market_pri/NewMarket.sol\":6756:6870  userBidPriceOnNFT[_nftContractAddress][_tokenId][\r... */\n      tag_142\n        /* \"NFT-Contracts/contracts/market_pri/NewMarket.sol\":6853:6869  _updateBidPrice1 */\n      dup3\n        /* \"NFT-Contracts/contracts/market_pri/NewMarket.sol\":6756:6773  userBidPriceOnNFT */\n      0x03\n        /* \"NFT-Contracts/contracts/market_pri/NewMarket.sol\":6756:6794  userBidPriceOnNFT[_nftContractAddress] */\n      0x00\n        /* \"NFT-Contracts/contracts/market_pri/NewMarket.sol\":6774:6793  _nftContractAddress */\n      dup9\n        /* \"NFT-Contracts/contracts/market_pri/NewMarket.sol\":6756:6794  userBidPriceOnNFT[_nftContractAddress] */\n      0xffffffffffffffffffffffffffffffffffffffff\n      and\n      0xffffffffffffffffffffffffffffffffffffffff\n      and\n      dup2\n      mstore\n      0x20\n      add\n      swap1\n      dup2\n      mstore\n      0x20\n      add\n      0x00\n      keccak256\n        /* \"NFT-Contracts/contracts/market_pri/NewMarket.sol\":6756:6804  userBidPriceOnNFT[_nftContractAddress][_tokenId] */\n      0x00\n        /* \"NFT-Contracts/contracts/market_pri/NewMarket.sol\":6795:6803  _tokenId */\n      dup8\n        /* \"NFT-Contracts/contracts/market_pri/NewMarket.sol\":6756:6804  userBidPriceOnNFT[_nftContractAddress][_tokenId] */\n      dup2\n      mstore\n      0x20\n      add\n      swap1\n      dup2\n      mstore\n      0x20\n      add\n      0x00\n      keccak256\n        /* \"NFT-Contracts/contracts/market_pri/NewMarket.sol\":6756:6848  userBidPriceOnNFT[_nftContractAddress][_tokenId][\r... */\n      0x00\n        /* \"NFT-Contracts/contracts/market_pri/NewMarket.sol\":6823:6833  msg.sender */\n      caller\n        /* \"NFT-Contracts/contracts/market_pri/NewMarket.sol\":6756:6848  userBidPriceOnNFT[_nftContractAddress][_tokenId][\r... */\n      0xffffffffffffffffffffffffffffffffffffffff\n      and\n      0xffffffffffffffffffffffffffffffffffffffff\n      and\n      dup2\n      mstore\n      0x20\n      add\n      swap1\n      dup2\n      mstore\n      0x20\n      add\n      0x00\n      keccak256\n      sload\n        /* \"NFT-Contracts/contracts/market_pri/NewMarket.sol\":6756:6852  userBidPriceOnNFT[_nftContractAddress][_tokenId][\r... */\n      tag_140\n      swap1\n        /* \"NFT-Contracts/contracts/market_pri/NewMarket.sol\":6756:6870  userBidPriceOnNFT[_nftContractAddress][_tokenId][\r... */\n      swap2\n      swap1\n      0xffffffff\n      and\n      jump\t// in\n    tag_142:\n        /* \"NFT-Contracts/contracts/market_pri/NewMarket.sol\":6739:6870  _finalBidPrice = userBidPriceOnNFT[_nftContractAddress][_tokenId][\r... */\n      swap1\n      pop\n        /* \"NFT-Contracts/contracts/market_pri/NewMarket.sol\":6445:6882  if (\r... */\n    tag_141:\n        /* \"NFT-Contracts/contracts/market_pri/NewMarket.sol\":6948:6970  nftContractAuctionSale */\n      0x01\n        /* \"NFT-Contracts/contracts/market_pri/NewMarket.sol\":6948:6991  nftContractAuctionSale[_nftContractAddress] */\n      0x00\n        /* \"NFT-Contracts/contracts/market_pri/NewMarket.sol\":6971:6990  _nftContractAddress */\n      dup7\n        /* \"NFT-Contracts/contracts/market_pri/NewMarket.sol\":6948:6991  nftContractAuctionSale[_nftContractAddress] */\n      0xffffffffffffffffffffffffffffffffffffffff\n      and\n      0xffffffffffffffffffffffffffffffffffffffff\n      and\n      dup2\n      mstore\n      0x20\n      add\n      swap1\n      dup2\n      mstore\n      0x20\n      add\n      0x00\n      keccak256\n        /* \"NFT-Contracts/contracts/market_pri/NewMarket.sol\":6948:7001  nftContractAuctionSale[_nftContractAddress][_tokenId] */\n      0x00\n        /* \"NFT-Contracts/contracts/market_pri/NewMarket.sol\":6992:7000  _tokenId */\n      dup6\n        /* \"NFT-Contracts/contracts/market_pri/NewMarket.sol\":6948:7001  nftContractAuctionSale[_nftContractAddress][_tokenId] */\n      dup2\n      mstore\n      0x20\n      add\n      swap1\n      dup2\n      mstore\n      0x20\n      add\n      0x00\n      keccak256\n        /* \"NFT-Contracts/contracts/market_pri/NewMarket.sol\":6948:7037  nftContractAuctionSale[_nftContractAddress][_tokenId]\r... */\n      0x03\n      add\n      sload\n        /* \"NFT-Contracts/contracts/market_pri/NewMarket.sol\":6914:6928  _finalBidPrice */\n      dup2\n        /* \"NFT-Contracts/contracts/market_pri/NewMarket.sol\":6914:7037  _finalBidPrice >\r... */\n      gt\n        /* \"NFT-Contracts/contracts/market_pri/NewMarket.sol\":6892:7094  require(\r... */\n      tag_143\n      jumpi\n      mload(0x40)\n      0x08c379a000000000000000000000000000000000000000000000000000000000\n      dup2\n      mstore\n      0x04\n      add\n      tag_144\n      swap1\n      tag_118\n      jump\t// in\n    tag_144:\n      mload(0x40)\n      dup1\n      swap2\n      sub\n      swap1\n      revert\n    tag_143:\n        /* \"NFT-Contracts/contracts/market_pri/NewMarket.sol\":14016:14042  address nftContractAddress */\n      0x00\n        /* \"NFT-Contracts/contracts/market_pri/NewMarket.sol\":14045:14064  _nftContractAddress */\n      dup14\n        /* \"NFT-Contracts/contracts/market_pri/NewMarket.sol\":14016:14064  address nftContractAddress = _nftContractAddress */\n      swap1\n      pop\n        /* \"NFT-Contracts/contracts/market_pri/NewMarket.sol\":14075:14090  uint256 tokenId */\n      0x00\n        /* \"NFT-Contracts/contracts/market_pri/NewMarket.sol\":14093:14101  _tokenId */\n      dup14\n        /* \"NFT-Contracts/contracts/market_pri/NewMarket.sol\":14075:14101  uint256 tokenId = _tokenId */\n      swap1\n      pop\n        /* \"NFT-Contracts/contracts/market_pri/NewMarket.sol\":14112:14133  uint256 finalBidPrice */\n      0x00\n        /* \"NFT-Contracts/contracts/market_pri/NewMarket.sol\":14136:14239  userBidPriceOnNFT[nftContractAddress][tokenId][\r... */\n      tag_146\n        /* \"NFT-Contracts/contracts/market_pri/NewMarket.sol\":14223:14238  _updateBidPrice */\n      dup15\n        /* \"NFT-Contracts/contracts/market_pri/NewMarket.sol\":14136:14153  userBidPriceOnNFT */\n      0x03\n        /* \"NFT-Contracts/contracts/market_pri/NewMarket.sol\":14136:14173  userBidPriceOnNFT[nftContractAddress] */\n      0x00\n        /* \"NFT-Contracts/contracts/market_pri/NewMarket.sol\":14154:14172  nftContractAddress */\n      dup7\n        /* \"NFT-Contracts/contracts/market_pri/NewMarket.sol\":14136:14173  userBidPriceOnNFT[nftContractAddress] */\n      0xffffffffffffffffffffffffffffffffffffffff\n      and\n      0xffffffffffffffffffffffffffffffffffffffff\n      and\n      dup2\n      mstore\n      0x20\n      add\n      swap1\n      dup2\n      mstore\n      0x20\n      add\n      0x00\n      keccak256\n        /* \"NFT-Contracts/contracts/market_pri/NewMarket.sol\":14136:14182  userBidPriceOnNFT[nftContractAddress][tokenId] */\n      0x00\n        /* \"NFT-Contracts/contracts/market_pri/NewMarket.sol\":14174:14181  tokenId */\n      dup6\n        /* \"NFT-Contracts/contracts/market_pri/NewMarket.sol\":14136:14182  userBidPriceOnNFT[nftContractAddress][tokenId] */\n      dup2\n      mstore\n      0x20\n      add\n      swap1\n      dup2\n      mstore\n      0x20\n      add\n      0x00\n      keccak256\n        /* \"NFT-Contracts/contracts/market_pri/NewMarket.sol\":14136:14218  userBidPriceOnNFT[nftContractAddress][tokenId][\r... */\n      0x00\n        /* \"NFT-Contracts/contracts/market_pri/NewMarket.sol\":14197:14207  msg.sender */\n      caller\n        /* \"NFT-Contracts/contracts/market_pri/NewMarket.sol\":14136:14218  userBidPriceOnNFT[nftContractAddress][tokenId][\r... */\n      0xffffffffffffffffffffffffffffffffffffffff\n      and\n      0xffffffffffffffffffffffffffffffffffffffff\n      and\n      dup2\n      mstore\n      0x20\n      add\n      swap1\n      dup2\n      mstore\n      0x20\n      add\n      0x00\n      keccak256\n      sload\n        /* \"NFT-Contracts/contracts/market_pri/NewMarket.sol\":14136:14222  userBidPriceOnNFT[nftContractAddress][tokenId][\r... */\n      tag_140\n      swap1\n        /* \"NFT-Contracts/contracts/market_pri/NewMarket.sol\":14136:14239  userBidPriceOnNFT[nftContractAddress][tokenId][\r... */\n      swap2\n      swap1\n      0xffffffff\n      and\n      jump\t// in\n    tag_146:\n        /* \"NFT-Contracts/contracts/market_pri/NewMarket.sol\":14112:14239  uint256 finalBidPrice = userBidPriceOnNFT[nftContractAddress][tokenId][\r... */\n      swap1\n      pop\n        /* \"NFT-Contracts/contracts/market_pri/NewMarket.sol\":14352:14353  0 */\n      0x00\n        /* \"NFT-Contracts/contracts/market_pri/NewMarket.sol\":14270:14354  nftContractAuctionSale[nftContractAddress][tokenId].erc20 !=\r... */\n      0xffffffffffffffffffffffffffffffffffffffff\n      and\n        /* \"NFT-Contracts/contracts/market_pri/NewMarket.sol\":14270:14292  nftContractAuctionSale */\n      0x01\n        /* \"NFT-Contracts/contracts/market_pri/NewMarket.sol\":14270:14312  nftContractAuctionSale[nftContractAddress] */\n      0x00\n        /* \"NFT-Contracts/contracts/market_pri/NewMarket.sol\":14293:14311  nftContractAddress */\n      dup6\n        /* \"NFT-Contracts/contracts/market_pri/NewMarket.sol\":14270:14312  nftContractAuctionSale[nftContractAddress] */\n      0xffffffffffffffffffffffffffffffffffffffff\n      and\n      0xffffffffffffffffffffffffffffffffffffffff\n      and\n      dup2\n      mstore\n      0x20\n      add\n      swap1\n      dup2\n      mstore\n      0x20\n      add\n      0x00\n      keccak256\n        /* \"NFT-Contracts/contracts/market_pri/NewMarket.sol\":14270:14321  nftContractAuctionSale[nftContractAddress][tokenId] */\n      0x00\n        /* \"NFT-Contracts/contracts/market_pri/NewMarket.sol\":14313:14320  tokenId */\n      dup5\n        /* \"NFT-Contracts/contracts/market_pri/NewMarket.sol\":14270:14321  nftContractAuctionSale[nftContractAddress][tokenId] */\n      dup2\n      mstore\n      0x20\n      add\n      swap1\n      dup2\n      mstore\n      0x20\n      add\n      0x00\n      keccak256\n        /* \"NFT-Contracts/contracts/market_pri/NewMarket.sol\":14270:14327  nftContractAuctionSale[nftContractAddress][tokenId].erc20 */\n      0x06\n      add\n      0x00\n      swap1\n      sload\n      swap1\n      0x0100\n      exp\n      swap1\n      div\n      0xffffffffffffffffffffffffffffffffffffffff\n      and\n        /* \"NFT-Contracts/contracts/market_pri/NewMarket.sol\":14270:14354  nftContractAuctionSale[nftContractAddress][tokenId].erc20 !=\r... */\n      0xffffffffffffffffffffffffffffffffffffffff\n      and\n      eq\n        /* \"NFT-Contracts/contracts/market_pri/NewMarket.sol\":14252:14536  if (\r... */\n      tag_147\n      jumpi\n        /* \"NFT-Contracts/contracts/market_pri/NewMarket.sol\":14381:14524  _bidAmountTransfer(\r... */\n      tag_148\n        /* \"NFT-Contracts/contracts/market_pri/NewMarket.sol\":14418:14433  _updateBidPrice */\n      dup15\n        /* \"NFT-Contracts/contracts/market_pri/NewMarket.sol\":14452:14474  nftContractAuctionSale */\n      0x01\n        /* \"NFT-Contracts/contracts/market_pri/NewMarket.sol\":14452:14494  nftContractAuctionSale[nftContractAddress] */\n      0x00\n        /* \"NFT-Contracts/contracts/market_pri/NewMarket.sol\":14475:14493  nftContractAddress */\n      dup7\n        /* \"NFT-Contracts/contracts/market_pri/NewMarket.sol\":14452:14494  nftContractAuctionSale[nftContractAddress] */\n      0xffffffffffffffffffffffffffffffffffffffff\n      and\n      0xffffffffffffffffffffffffffffffffffffffff\n      and\n      dup2\n      mstore\n      0x20\n      add\n      swap1\n      dup2\n      mstore\n      0x20\n      add\n      0x00\n      keccak256\n        /* \"NFT-Contracts/contracts/market_pri/NewMarket.sol\":14452:14503  nftContractAuctionSale[nftContractAddress][tokenId] */\n      0x00\n        /* \"NFT-Contracts/contracts/market_pri/NewMarket.sol\":14495:14502  tokenId */\n      dup6\n        /* \"NFT-Contracts/contracts/market_pri/NewMarket.sol\":14452:14503  nftContractAuctionSale[nftContractAddress][tokenId] */\n      dup2\n      mstore\n      0x20\n      add\n      swap1\n      dup2\n      mstore\n      0x20\n      add\n      0x00\n      keccak256\n        /* \"NFT-Contracts/contracts/market_pri/NewMarket.sol\":14452:14509  nftContractAuctionSale[nftContractAddress][tokenId].erc20 */\n      0x06\n      add\n      0x00\n      swap1\n      sload\n      swap1\n      0x0100\n      exp\n      swap1\n      div\n      0xffffffffffffffffffffffffffffffffffffffff\n      and\n        /* \"NFT-Contracts/contracts/market_pri/NewMarket.sol\":14381:14399  _bidAmountTransfer */\n      tag_125\n        /* \"NFT-Contracts/contracts/market_pri/NewMarket.sol\":14381:14524  _bidAmountTransfer(\r... */\n      jump\t// in\n    tag_148:\n        /* \"NFT-Contracts/contracts/market_pri/NewMarket.sol\":14252:14536  if (\r... */\n    tag_147:\n        /* \"NFT-Contracts/contracts/market_pri/NewMarket.sol\":14630:14643  finalBidPrice */\n      dup1\n        /* \"NFT-Contracts/contracts/market_pri/NewMarket.sol\":14548:14570  nftContractAuctionSale */\n      0x01\n        /* \"NFT-Contracts/contracts/market_pri/NewMarket.sol\":14548:14590  nftContractAuctionSale[nftContractAddress] */\n      0x00\n        /* \"NFT-Contracts/contracts/market_pri/NewMarket.sol\":14571:14589  nftContractAddress */\n      dup6\n        /* \"NFT-Contracts/contracts/market_pri/NewMarket.sol\":14548:14590  nftContractAuctionSale[nftContractAddress] */\n      0xffffffffffffffffffffffffffffffffffffffff\n      and\n      0xffffffffffffffffffffffffffffffffffffffff\n      and\n      dup2\n      mstore\n      0x20\n      add\n      swap1\n      dup2\n      mstore\n      0x20\n      add\n      0x00\n      keccak256\n        /* \"NFT-Contracts/contracts/market_pri/NewMarket.sol\":14548:14599  nftContractAuctionSale[nftContractAddress][tokenId] */\n      0x00\n        /* \"NFT-Contracts/contracts/market_pri/NewMarket.sol\":14591:14598  tokenId */\n      dup5\n        /* \"NFT-Contracts/contracts/market_pri/NewMarket.sol\":14548:14599  nftContractAuctionSale[nftContractAddress][tokenId] */\n      dup2\n      mstore\n      0x20\n      add\n      swap1\n      dup2\n      mstore\n      0x20\n      add\n      0x00\n      keccak256\n        /* \"NFT-Contracts/contracts/market_pri/NewMarket.sol\":14548:14627  nftContractAuctionSale[nftContractAddress][tokenId]\r... */\n      0x03\n      add\n        /* \"NFT-Contracts/contracts/market_pri/NewMarket.sol\":14548:14643  nftContractAuctionSale[nftContractAddress][tokenId]\r... */\n      dup2\n      swap1\n      sstore\n      pop\n        /* \"NFT-Contracts/contracts/market_pri/NewMarket.sol\":14739:14749  msg.sender */\n      caller\n        /* \"NFT-Contracts/contracts/market_pri/NewMarket.sol\":14654:14676  nftContractAuctionSale */\n      0x01\n        /* \"NFT-Contracts/contracts/market_pri/NewMarket.sol\":14654:14696  nftContractAuctionSale[nftContractAddress] */\n      0x00\n        /* \"NFT-Contracts/contracts/market_pri/NewMarket.sol\":14677:14695  nftContractAddress */\n      dup6\n        /* \"NFT-Contracts/contracts/market_pri/NewMarket.sol\":14654:14696  nftContractAuctionSale[nftContractAddress] */\n      0xffffffffffffffffffffffffffffffffffffffff\n      and\n      0xffffffffffffffffffffffffffffffffffffffff\n      and\n      dup2\n      mstore\n      0x20\n      add\n      swap1\n      dup2\n      mstore\n      0x20\n      add\n      0x00\n      keccak256\n        /* \"NFT-Contracts/contracts/market_pri/NewMarket.sol\":14654:14705  nftContractAuctionSale[nftContractAddress][tokenId] */\n      0x00\n        /* \"NFT-Contracts/contracts/market_pri/NewMarket.sol\":14697:14704  tokenId */\n      dup5\n        /* \"NFT-Contracts/contracts/market_pri/NewMarket.sol\":14654:14705  nftContractAuctionSale[nftContractAddress][tokenId] */\n      dup2\n      mstore\n      0x20\n      add\n      swap1\n      dup2\n      mstore\n      0x20\n      add\n      0x00\n      keccak256\n        /* \"NFT-Contracts/contracts/market_pri/NewMarket.sol\":14654:14736  nftContractAuctionSale[nftContractAddress][tokenId]\r... */\n      0x04\n      add\n      0x00\n        /* \"NFT-Contracts/contracts/market_pri/NewMarket.sol\":14654:14749  nftContractAuctionSale[nftContractAddress][tokenId]\r... */\n      0x0100\n      exp\n      dup2\n      sload\n      dup2\n      0xffffffffffffffffffffffffffffffffffffffff\n      mul\n      not\n      and\n      swap1\n      dup4\n      0xffffffffffffffffffffffffffffffffffffffff\n      and\n      mul\n      or\n      swap1\n      sstore\n      pop\n        /* \"NFT-Contracts/contracts/market_pri/NewMarket.sol\":14847:14860  finalBidPrice */\n      dup1\n        /* \"NFT-Contracts/contracts/market_pri/NewMarket.sol\":14762:14779  userBidPriceOnNFT */\n      0x03\n        /* \"NFT-Contracts/contracts/market_pri/NewMarket.sol\":14762:14799  userBidPriceOnNFT[nftContractAddress] */\n      0x00\n        /* \"NFT-Contracts/contracts/market_pri/NewMarket.sol\":14780:14798  nftContractAddress */\n      dup6\n        /* \"NFT-Contracts/contracts/market_pri/NewMarket.sol\":14762:14799  userBidPriceOnNFT[nftContractAddress] */\n      0xffffffffffffffffffffffffffffffffffffffff\n      and\n      0xffffffffffffffffffffffffffffffffffffffff\n      and\n      dup2\n      mstore\n      0x20\n      add\n      swap1\n      dup2\n      mstore\n      0x20\n      add\n      0x00\n      keccak256\n        /* \"NFT-Contracts/contracts/market_pri/NewMarket.sol\":14762:14808  userBidPriceOnNFT[nftContractAddress][tokenId] */\n      0x00\n        /* \"NFT-Contracts/contracts/market_pri/NewMarket.sol\":14800:14807  tokenId */\n      dup5\n        /* \"NFT-Contracts/contracts/market_pri/NewMarket.sol\":14762:14808  userBidPriceOnNFT[nftContractAddress][tokenId] */\n      dup2\n      mstore\n      0x20\n      add\n      swap1\n      dup2\n      mstore\n      0x20\n      add\n      0x00\n      keccak256\n        /* \"NFT-Contracts/contracts/market_pri/NewMarket.sol\":14762:14844  userBidPriceOnNFT[nftContractAddress][tokenId][\r... */\n      0x00\n        /* \"NFT-Contracts/contracts/market_pri/NewMarket.sol\":14823:14833  msg.sender */\n      caller\n        /* \"NFT-Contracts/contracts/market_pri/NewMarket.sol\":14762:14844  userBidPriceOnNFT[nftContractAddress][tokenId][\r... */\n      0xffffffffffffffffffffffffffffffffffffffff\n      and\n      0xffffffffffffffffffffffffffffffffffffffff\n      and\n      dup2\n      mstore\n      0x20\n      add\n      swap1\n      dup2\n      mstore\n      0x20\n      add\n      0x00\n      keccak256\n        /* \"NFT-Contracts/contracts/market_pri/NewMarket.sol\":14762:14860  userBidPriceOnNFT[nftContractAddress][tokenId][\r... */\n      dup2\n      swap1\n      sstore\n      pop\n        /* \"NFT-Contracts/contracts/market_pri/NewMarket.sol\":14878:15021  NftAuctionBidPriceUpdate(\r... */\n      0x907cdadc7c1a8abcdd80cdd85eb18377631e4f413fb6397a8252ff7b358ac6cb\n        /* \"NFT-Contracts/contracts/market_pri/NewMarket.sol\":14917:14935  nftContractAddress */\n      dup4\n        /* \"NFT-Contracts/contracts/market_pri/NewMarket.sol\":14950:14957  tokenId */\n      dup4\n        /* \"NFT-Contracts/contracts/market_pri/NewMarket.sol\":14972:14985  finalBidPrice */\n      dup4\n        /* \"NFT-Contracts/contracts/market_pri/NewMarket.sol\":15000:15010  msg.sender */\n      caller\n        /* \"NFT-Contracts/contracts/market_pri/NewMarket.sol\":14878:15021  NftAuctionBidPriceUpdate(\r... */\n      mload(0x40)\n      tag_149\n      swap5\n      swap4\n      swap3\n      swap2\n      swap1\n      tag_127\n      jump\t// in\n    tag_149:\n      mload(0x40)\n      dup1\n      swap2\n      sub\n      swap1\n      log1\n        /* \"NFT-Contracts/contracts/market_pri/NewMarket.sol\":14005:15029  {\r... */\n      pop\n      pop\n      pop\n        /* \"NFT-Contracts/contracts/market_pri/NewMarket.sol\":6401:7114  {\r... */\n      pop\n        /* \"NFT-Contracts/contracts/market_pri/NewMarket.sol\":7882:7883  _ */\n      pop\n      pop\n      pop\n      pop\n        /* \"NFT-Contracts/contracts/market_pri/NewMarket.sol\":5904:5905  _ */\n      pop\n        /* \"NFT-Contracts/contracts/market_pri/NewMarket.sol\":3662:3663  _ */\n      pop\n      pop\n        /* \"NFT-Contracts/contracts/market_pri/NewMarket.sol\":13513:15029  function updateTheBidPrice(\r... */\n      pop\n      pop\n      pop\n      pop\n      pop\n      jump\t// out\n        /* \"NFT-Contracts/contracts/market_pri/NewMarket.sol\":9661:10239  function updateFixedSalePrice(\r... */\n    tag_41:\n        /* \"NFT-Contracts/contracts/market_pri/NewMarket.sol\":9842:9861  _nftContractAddress */\n      dup3\n        /* \"NFT-Contracts/contracts/market_pri/NewMarket.sol\":9863:9871  _tokenId */\n      dup3\n        /* \"NFT-Contracts/contracts/market_pri/NewMarket.sol\":3365:3366  1 */\n      0x01\n        /* \"NFT-Contracts/contracts/market_pri/NewMarket.sol\":3317:3330  nftSaleStatus */\n      0x02\n        /* \"NFT-Contracts/contracts/market_pri/NewMarket.sol\":3317:3351  nftSaleStatus[_nftContractAddress] */\n      0x00\n        /* \"NFT-Contracts/contracts/market_pri/NewMarket.sol\":3331:3350  _nftContractAddress */\n      dup5\n        /* \"NFT-Contracts/contracts/market_pri/NewMarket.sol\":3317:3351  nftSaleStatus[_nftContractAddress] */\n      0xffffffffffffffffffffffffffffffffffffffff\n      and\n      0xffffffffffffffffffffffffffffffffffffffff\n      and\n      dup2\n      mstore\n      0x20\n      add\n      swap1\n      dup2\n      mstore\n      0x20\n      add\n      0x00\n      keccak256\n        /* \"NFT-Contracts/contracts/market_pri/NewMarket.sol\":3317:3361  nftSaleStatus[_nftContractAddress][_tokenId] */\n      0x00\n        /* \"NFT-Contracts/contracts/market_pri/NewMarket.sol\":3352:3360  _tokenId */\n      dup4\n        /* \"NFT-Contracts/contracts/market_pri/NewMarket.sol\":3317:3361  nftSaleStatus[_nftContractAddress][_tokenId] */\n      dup2\n      mstore\n      0x20\n      add\n      swap1\n      dup2\n      mstore\n      0x20\n      add\n      0x00\n      keccak256\n      sload\n        /* \"NFT-Contracts/contracts/market_pri/NewMarket.sol\":3317:3366  nftSaleStatus[_nftContractAddress][_tokenId] == 1 */\n      eq\n        /* \"NFT-Contracts/contracts/market_pri/NewMarket.sol\":3295:3415  require(\r... */\n      tag_151\n      jumpi\n      mload(0x40)\n      0x08c379a000000000000000000000000000000000000000000000000000000000\n      dup2\n      mstore\n      0x04\n      add\n      tag_152\n      swap1\n      tag_153\n      jump\t// in\n    tag_152:\n      mload(0x40)\n      dup1\n      swap2\n      sub\n      swap1\n      revert\n    tag_151:\n        /* \"NFT-Contracts/contracts/market_pri/NewMarket.sol\":9901:9920  _nftContractAddress */\n      dup5\n        /* \"NFT-Contracts/contracts/market_pri/NewMarket.sol\":9922:9930  _tokenId */\n      dup5\n        /* \"NFT-Contracts/contracts/market_pri/NewMarket.sol\":4063:4083  nftContractFixedSale */\n      0x00\n        /* \"NFT-Contracts/contracts/market_pri/NewMarket.sol\":4063:4104  nftContractFixedSale[_nftContractAddress] */\n      dup1\n        /* \"NFT-Contracts/contracts/market_pri/NewMarket.sol\":4084:4103  _nftContractAddress */\n      dup4\n        /* \"NFT-Contracts/contracts/market_pri/NewMarket.sol\":4063:4104  nftContractFixedSale[_nftContractAddress] */\n      0xffffffffffffffffffffffffffffffffffffffff\n      and\n      0xffffffffffffffffffffffffffffffffffffffff\n      and\n      dup2\n      mstore\n      0x20\n      add\n      swap1\n      dup2\n      mstore\n      0x20\n      add\n      0x00\n      keccak256\n        /* \"NFT-Contracts/contracts/market_pri/NewMarket.sol\":4063:4114  nftContractFixedSale[_nftContractAddress][_tokenId] */\n      0x00\n        /* \"NFT-Contracts/contracts/market_pri/NewMarket.sol\":4105:4113  _tokenId */\n      dup3\n        /* \"NFT-Contracts/contracts/market_pri/NewMarket.sol\":4063:4114  nftContractFixedSale[_nftContractAddress][_tokenId] */\n      dup2\n      mstore\n      0x20\n      add\n      swap1\n      dup2\n      mstore\n      0x20\n      add\n      0x00\n      keccak256\n        /* \"NFT-Contracts/contracts/market_pri/NewMarket.sol\":4063:4124  nftContractFixedSale[_nftContractAddress][_tokenId].nftSeller */\n      0x00\n      add\n      0x00\n      swap1\n      sload\n      swap1\n      0x0100\n      exp\n      swap1\n      div\n      0xffffffffffffffffffffffffffffffffffffffff\n      and\n        /* \"NFT-Contracts/contracts/market_pri/NewMarket.sol\":4032:4124  msg.sender ==\r... */\n      0xffffffffffffffffffffffffffffffffffffffff\n      and\n        /* \"NFT-Contracts/contracts/market_pri/NewMarket.sol\":4032:4042  msg.sender */\n      caller\n        /* \"NFT-Contracts/contracts/market_pri/NewMarket.sol\":4032:4124  msg.sender ==\r... */\n      0xffffffffffffffffffffffffffffffffffffffff\n      and\n      eq\n        /* \"NFT-Contracts/contracts/market_pri/NewMarket.sol\":4010:4173  require(\r... */\n      tag_155\n      jumpi\n      mload(0x40)\n      0x08c379a000000000000000000000000000000000000000000000000000000000\n      dup2\n      mstore\n      0x04\n      add\n      tag_156\n      swap1\n      tag_157\n      jump\t// in\n    tag_156:\n      mload(0x40)\n      dup1\n      swap2\n      sub\n      swap1\n      revert\n    tag_155:\n        /* \"NFT-Contracts/contracts/market_pri/NewMarket.sol\":9962:9978  _updateSalePrice */\n      dup5\n        /* \"NFT-Contracts/contracts/market_pri/NewMarket.sol\":7848:7849  0 */\n      0x00\n        /* \"NFT-Contracts/contracts/market_pri/NewMarket.sol\":7839:7845  _price */\n      dup2\n        /* \"NFT-Contracts/contracts/market_pri/NewMarket.sol\":7839:7849  _price > 0 */\n      gt\n        /* \"NFT-Contracts/contracts/market_pri/NewMarket.sol\":7831:7871  require(_price > 0, \"Price cannot be 0\") */\n      tag_159\n      jumpi\n      mload(0x40)\n      0x08c379a000000000000000000000000000000000000000000000000000000000\n      dup2\n      mstore\n      0x04\n      add\n      tag_160\n      swap1\n      tag_113\n      jump\t// in\n    tag_160:\n      mload(0x40)\n      dup1\n      swap2\n      sub\n      swap1\n      revert\n    tag_159:\n        /* \"NFT-Contracts/contracts/market_pri/NewMarket.sol\":10074:10090  _updateSalePrice */\n      dup6\n        /* \"NFT-Contracts/contracts/market_pri/NewMarket.sol\":9996:10016  nftContractFixedSale */\n      0x00\n        /* \"NFT-Contracts/contracts/market_pri/NewMarket.sol\":9996:10037  nftContractFixedSale[_nftContractAddress] */\n      dup1\n        /* \"NFT-Contracts/contracts/market_pri/NewMarket.sol\":10017:10036  _nftContractAddress */\n      dup11\n        /* \"NFT-Contracts/contracts/market_pri/NewMarket.sol\":9996:10037  nftContractFixedSale[_nftContractAddress] */\n      0xffffffffffffffffffffffffffffffffffffffff\n      and\n      0xffffffffffffffffffffffffffffffffffffffff\n      and\n      dup2\n      mstore\n      0x20\n      add\n      swap1\n      dup2\n      mstore\n      0x20\n      add\n      0x00\n      keccak256\n        /* \"NFT-Contracts/contracts/market_pri/NewMarket.sol\":9996:10047  nftContractFixedSale[_nftContractAddress][_tokenId] */\n      0x00\n        /* \"NFT-Contracts/contracts/market_pri/NewMarket.sol\":10038:10046  _tokenId */\n      dup10\n        /* \"NFT-Contracts/contracts/market_pri/NewMarket.sol\":9996:10047  nftContractFixedSale[_nftContractAddress][_tokenId] */\n      dup2\n      mstore\n      0x20\n      add\n      swap1\n      dup2\n      mstore\n      0x20\n      add\n      0x00\n      keccak256\n        /* \"NFT-Contracts/contracts/market_pri/NewMarket.sol\":9996:10071  nftContractFixedSale[_nftContractAddress][_tokenId]\r... */\n      0x03\n      add\n        /* \"NFT-Contracts/contracts/market_pri/NewMarket.sol\":9996:10090  nftContractFixedSale[_nftContractAddress][_tokenId]\r... */\n      dup2\n      swap1\n      sstore\n      pop\n        /* \"NFT-Contracts/contracts/market_pri/NewMarket.sol\":10108:10231  NftFixedSalePriceUpdated(\r... */\n      0x575a0876095ccf47276a37dce683308a625403d132d219f95205ce205b2e12bc\n        /* \"NFT-Contracts/contracts/market_pri/NewMarket.sol\":10147:10166  _nftContractAddress */\n      dup9\n        /* \"NFT-Contracts/contracts/market_pri/NewMarket.sol\":10181:10189  _tokenId */\n      dup9\n        /* \"NFT-Contracts/contracts/market_pri/NewMarket.sol\":10204:10220  _updateSalePrice */\n      dup9\n        /* \"NFT-Contracts/contracts/market_pri/NewMarket.sol\":10108:10231  NftFixedSalePriceUpdated(\r... */\n      mload(0x40)\n      tag_162\n      swap4\n      swap3\n      swap2\n      swap1\n      tag_163\n      jump\t// in\n    tag_162:\n      mload(0x40)\n      dup1\n      swap2\n      sub\n      swap1\n      log1\n        /* \"NFT-Contracts/contracts/market_pri/NewMarket.sol\":4184:4185  _ */\n      pop\n        /* \"NFT-Contracts/contracts/market_pri/NewMarket.sol\":3426:3427  _ */\n      pop\n      pop\n        /* \"NFT-Contracts/contracts/market_pri/NewMarket.sol\":9661:10239  function updateFixedSalePrice(\r... */\n      pop\n      pop\n      pop\n      pop\n      pop\n      jump\t// out\n        /* \"NFT-Contracts/contracts/market_pri/NewMarket.sol\":16580:17338  function withdrawBid(address _nftContractAddress, uint256 _tokenId)\r... */\n    tag_46:\n        /* \"NFT-Contracts/contracts/market_pri/NewMarket.sol\":16689:16708  _nftContractAddress */\n      dup2\n        /* \"NFT-Contracts/contracts/market_pri/NewMarket.sol\":16710:16718  _tokenId */\n      dup2\n        /* \"NFT-Contracts/contracts/market_pri/NewMarket.sol\":4651:4673  nftContractAuctionSale */\n      0x01\n        /* \"NFT-Contracts/contracts/market_pri/NewMarket.sol\":4651:4694  nftContractAuctionSale[_nftContractAddress] */\n      0x00\n        /* \"NFT-Contracts/contracts/market_pri/NewMarket.sol\":4674:4693  _nftContractAddress */\n      dup4\n        /* \"NFT-Contracts/contracts/market_pri/NewMarket.sol\":4651:4694  nftContractAuctionSale[_nftContractAddress] */\n      0xffffffffffffffffffffffffffffffffffffffff\n      and\n      0xffffffffffffffffffffffffffffffffffffffff\n      and\n      dup2\n      mstore\n      0x20\n      add\n      swap1\n      dup2\n      mstore\n      0x20\n      add\n      0x00\n      keccak256\n        /* \"NFT-Contracts/contracts/market_pri/NewMarket.sol\":4651:4704  nftContractAuctionSale[_nftContractAddress][_tokenId] */\n      0x00\n        /* \"NFT-Contracts/contracts/market_pri/NewMarket.sol\":4695:4703  _tokenId */\n      dup3\n        /* \"NFT-Contracts/contracts/market_pri/NewMarket.sol\":4651:4704  nftContractAuctionSale[_nftContractAddress][_tokenId] */\n      dup2\n      mstore\n      0x20\n      add\n      swap1\n      dup2\n      mstore\n      0x20\n      add\n      0x00\n      keccak256\n        /* \"NFT-Contracts/contracts/market_pri/NewMarket.sol\":4651:4737  nftContractAuctionSale[_nftContractAddress][_tokenId]\r... */\n      0x01\n      add\n      sload\n        /* \"NFT-Contracts/contracts/market_pri/NewMarket.sol\":4616:4631  block.timestamp */\n      timestamp\n        /* \"NFT-Contracts/contracts/market_pri/NewMarket.sol\":4616:4737  block.timestamp >\r... */\n      gt\n        /* \"NFT-Contracts/contracts/market_pri/NewMarket.sol\":4594:4780  require(\r... */\n      tag_165\n      jumpi\n      mload(0x40)\n      0x08c379a000000000000000000000000000000000000000000000000000000000\n      dup2\n      mstore\n      0x04\n      add\n      tag_166\n      swap1\n      tag_167\n      jump\t// in\n    tag_166:\n      mload(0x40)\n      dup1\n      swap2\n      sub\n      swap1\n      revert\n    tag_165:\n        /* \"NFT-Contracts/contracts/market_pri/NewMarket.sol\":16789:16811  nftContractAuctionSale */\n      0x01\n        /* \"NFT-Contracts/contracts/market_pri/NewMarket.sol\":16789:16832  nftContractAuctionSale[_nftContractAddress] */\n      0x00\n        /* \"NFT-Contracts/contracts/market_pri/NewMarket.sol\":16812:16831  _nftContractAddress */\n      dup6\n        /* \"NFT-Contracts/contracts/market_pri/NewMarket.sol\":16789:16832  nftContractAuctionSale[_nftContractAddress] */\n      0xffffffffffffffffffffffffffffffffffffffff\n      and\n      0xffffffffffffffffffffffffffffffffffffffff\n      and\n      dup2\n      mstore\n      0x20\n      add\n      swap1\n      dup2\n      mstore\n      0x20\n      add\n      0x00\n      keccak256\n        /* \"NFT-Contracts/contracts/market_pri/NewMarket.sol\":16789:16842  nftContractAuctionSale[_nftContractAddress][_tokenId] */\n      0x00\n        /* \"NFT-Contracts/contracts/market_pri/NewMarket.sol\":16833:16841  _tokenId */\n      dup5\n        /* \"NFT-Contracts/contracts/market_pri/NewMarket.sol\":16789:16842  nftContractAuctionSale[_nftContractAddress][_tokenId] */\n      dup2\n      mstore\n      0x20\n      add\n      swap1\n      dup2\n      mstore\n      0x20\n      add\n      0x00\n      keccak256\n        /* \"NFT-Contracts/contracts/market_pri/NewMarket.sol\":16789:16881  nftContractAuctionSale[_nftContractAddress][_tokenId]\r... */\n      0x04\n      add\n      0x00\n      swap1\n      sload\n      swap1\n      0x0100\n      exp\n      swap1\n      div\n      0xffffffffffffffffffffffffffffffffffffffff\n      and\n        /* \"NFT-Contracts/contracts/market_pri/NewMarket.sol\":16758:16881  msg.sender !=\r... */\n      0xffffffffffffffffffffffffffffffffffffffff\n      and\n        /* \"NFT-Contracts/contracts/market_pri/NewMarket.sol\":16758:16768  msg.sender */\n      caller\n        /* \"NFT-Contracts/contracts/market_pri/NewMarket.sol\":16758:16881  msg.sender !=\r... */\n      0xffffffffffffffffffffffffffffffffffffffff\n      and\n      eq\n      iszero\n        /* \"NFT-Contracts/contracts/market_pri/NewMarket.sol\":16736:16931  require(\r... */\n      tag_169\n      jumpi\n      mload(0x40)\n      0x08c379a000000000000000000000000000000000000000000000000000000000\n      dup2\n      mstore\n      0x04\n      add\n      tag_170\n      swap1\n      tag_171\n      jump\t// in\n    tag_170:\n      mload(0x40)\n      dup1\n      swap2\n      sub\n      swap1\n      revert\n    tag_169:\n        /* \"NFT-Contracts/contracts/market_pri/NewMarket.sol\":17027:17028  0 */\n      0x00\n        /* \"NFT-Contracts/contracts/market_pri/NewMarket.sol\":16964:16981  userBidPriceOnNFT */\n      0x03\n        /* \"NFT-Contracts/contracts/market_pri/NewMarket.sol\":16964:17002  userBidPriceOnNFT[_nftContractAddress] */\n      0x00\n        /* \"NFT-Contracts/contracts/market_pri/NewMarket.sol\":16982:17001  _nftContractAddress */\n      dup7\n        /* \"NFT-Contracts/contracts/market_pri/NewMarket.sol\":16964:17002  userBidPriceOnNFT[_nftContractAddress] */\n      0xffffffffffffffffffffffffffffffffffffffff\n      and\n      0xffffffffffffffffffffffffffffffffffffffff\n      and\n      dup2\n      mstore\n      0x20\n      add\n      swap1\n      dup2\n      mstore\n      0x20\n      add\n      0x00\n      keccak256\n        /* \"NFT-Contracts/contracts/market_pri/NewMarket.sol\":16964:17012  userBidPriceOnNFT[_nftContractAddress][_tokenId] */\n      0x00\n        /* \"NFT-Contracts/contracts/market_pri/NewMarket.sol\":17003:17011  _tokenId */\n      dup6\n        /* \"NFT-Contracts/contracts/market_pri/NewMarket.sol\":16964:17012  userBidPriceOnNFT[_nftContractAddress][_tokenId] */\n      dup2\n      mstore\n      0x20\n      add\n      swap1\n      dup2\n      mstore\n      0x20\n      add\n      0x00\n      keccak256\n        /* \"NFT-Contracts/contracts/market_pri/NewMarket.sol\":16964:17024  userBidPriceOnNFT[_nftContractAddress][_tokenId][msg.sender] */\n      0x00\n        /* \"NFT-Contracts/contracts/market_pri/NewMarket.sol\":17013:17023  msg.sender */\n      caller\n        /* \"NFT-Contracts/contracts/market_pri/NewMarket.sol\":16964:17024  userBidPriceOnNFT[_nftContractAddress][_tokenId][msg.sender] */\n      0xffffffffffffffffffffffffffffffffffffffff\n      and\n      0xffffffffffffffffffffffffffffffffffffffff\n      and\n      dup2\n      mstore\n      0x20\n      add\n      swap1\n      dup2\n      mstore\n      0x20\n      add\n      0x00\n      keccak256\n      sload\n        /* \"NFT-Contracts/contracts/market_pri/NewMarket.sol\":16964:17028  userBidPriceOnNFT[_nftContractAddress][_tokenId][msg.sender] > 0 */\n      gt\n        /* \"NFT-Contracts/contracts/market_pri/NewMarket.sol\":16942:17075  require(\r... */\n      tag_172\n      jumpi\n      mload(0x40)\n      0x08c379a000000000000000000000000000000000000000000000000000000000\n      dup2\n      mstore\n      0x04\n      add\n      tag_173\n      swap1\n      tag_174\n      jump\t// in\n    tag_173:\n      mload(0x40)\n      dup1\n      swap2\n      sub\n      swap1\n      revert\n    tag_172:\n        /* \"NFT-Contracts/contracts/market_pri/NewMarket.sol\":17254:17255  0 */\n      0x00\n        /* \"NFT-Contracts/contracts/market_pri/NewMarket.sol\":17191:17208  userBidPriceOnNFT */\n      0x03\n        /* \"NFT-Contracts/contracts/market_pri/NewMarket.sol\":17191:17229  userBidPriceOnNFT[_nftContractAddress] */\n      0x00\n        /* \"NFT-Contracts/contracts/market_pri/NewMarket.sol\":17209:17228  _nftContractAddress */\n      dup7\n        /* \"NFT-Contracts/contracts/market_pri/NewMarket.sol\":17191:17229  userBidPriceOnNFT[_nftContractAddress] */\n      0xffffffffffffffffffffffffffffffffffffffff\n      and\n      0xffffffffffffffffffffffffffffffffffffffff\n      and\n      dup2\n      mstore\n      0x20\n      add\n      swap1\n      dup2\n      mstore\n      0x20\n      add\n      0x00\n      keccak256\n        /* \"NFT-Contracts/contracts/market_pri/NewMarket.sol\":17191:17239  userBidPriceOnNFT[_nftContractAddress][_tokenId] */\n      0x00\n        /* \"NFT-Contracts/contracts/market_pri/NewMarket.sol\":17230:17238  _tokenId */\n      dup6\n        /* \"NFT-Contracts/contracts/market_pri/NewMarket.sol\":17191:17239  userBidPriceOnNFT[_nftContractAddress][_tokenId] */\n      dup2\n      mstore\n      0x20\n      add\n      swap1\n      dup2\n      mstore\n      0x20\n      add\n      0x00\n      keccak256\n        /* \"NFT-Contracts/contracts/market_pri/NewMarket.sol\":17191:17251  userBidPriceOnNFT[_nftContractAddress][_tokenId][msg.sender] */\n      0x00\n        /* \"NFT-Contracts/contracts/market_pri/NewMarket.sol\":17240:17250  msg.sender */\n      caller\n        /* \"NFT-Contracts/contracts/market_pri/NewMarket.sol\":17191:17251  userBidPriceOnNFT[_nftContractAddress][_tokenId][msg.sender] */\n      0xffffffffffffffffffffffffffffffffffffffff\n      and\n      0xffffffffffffffffffffffffffffffffffffffff\n      and\n      dup2\n      mstore\n      0x20\n      add\n      swap1\n      dup2\n      mstore\n      0x20\n      add\n      0x00\n      keccak256\n        /* \"NFT-Contracts/contracts/market_pri/NewMarket.sol\":17191:17255  userBidPriceOnNFT[_nftContractAddress][_tokenId][msg.sender] = 0 */\n      dup2\n      swap1\n      sstore\n      pop\n        /* \"NFT-Contracts/contracts/market_pri/NewMarket.sol\":17273:17330  withdrawNftBid(_nftContractAddress, _tokenId, msg.sender) */\n      0xde8cb9aa2c755cf75d5fbc4fec824b10e311652306f1fca5c8e57a04758b0aa7\n        /* \"NFT-Contracts/contracts/market_pri/NewMarket.sol\":17288:17307  _nftContractAddress */\n      dup5\n        /* \"NFT-Contracts/contracts/market_pri/NewMarket.sol\":17309:17317  _tokenId */\n      dup5\n        /* \"NFT-Contracts/contracts/market_pri/NewMarket.sol\":17319:17329  msg.sender */\n      caller\n        /* \"NFT-Contracts/contracts/market_pri/NewMarket.sol\":17273:17330  withdrawNftBid(_nftContractAddress, _tokenId, msg.sender) */\n      mload(0x40)\n      tag_175\n      swap4\n      swap3\n      swap2\n      swap1\n      tag_176\n      jump\t// in\n    tag_175:\n      mload(0x40)\n      dup1\n      swap2\n      sub\n      swap1\n      log1\n        /* \"NFT-Contracts/contracts/market_pri/NewMarket.sol\":16580:17338  function withdrawBid(address _nftContractAddress, uint256 _tokenId)\r... */\n      pop\n      pop\n      pop\n      pop\n      jump\t// out\n        /* \"NFT-Contracts/contracts/market_pri/NewMarket.sol\":15674:16572  function settleAuction(address _nftContractAddress, uint256 _tokenId)\r... */\n    tag_50:\n        /* \"NFT-Contracts/contracts/market_pri/NewMarket.sol\":15790:15809  _nftContractAddress */\n      dup2\n        /* \"NFT-Contracts/contracts/market_pri/NewMarket.sol\":15811:15819  _tokenId */\n      dup2\n        /* \"NFT-Contracts/contracts/market_pri/NewMarket.sol\":3599:3600  2 */\n      0x02\n        /* \"NFT-Contracts/contracts/market_pri/NewMarket.sol\":3551:3564  nftSaleStatus */\n      dup1\n        /* \"NFT-Contracts/contracts/market_pri/NewMarket.sol\":3551:3585  nftSaleStatus[_nftContractAddress] */\n      0x00\n        /* \"NFT-Contracts/contracts/market_pri/NewMarket.sol\":3565:3584  _nftContractAddress */\n      dup5\n        /* \"NFT-Contracts/contracts/market_pri/NewMarket.sol\":3551:3585  nftSaleStatus[_nftContractAddress] */\n      0xffffffffffffffffffffffffffffffffffffffff\n      and\n      0xffffffffffffffffffffffffffffffffffffffff\n      and\n      dup2\n      mstore\n      0x20\n      add\n      swap1\n      dup2\n      mstore\n      0x20\n      add\n      0x00\n      keccak256\n        /* \"NFT-Contracts/contracts/market_pri/NewMarket.sol\":3551:3595  nftSaleStatus[_nftContractAddress][_tokenId] */\n      0x00\n        /* \"NFT-Contracts/contracts/market_pri/NewMarket.sol\":3586:3594  _tokenId */\n      dup4\n        /* \"NFT-Contracts/contracts/market_pri/NewMarket.sol\":3551:3595  nftSaleStatus[_nftContractAddress][_tokenId] */\n      dup2\n      mstore\n      0x20\n      add\n      swap1\n      dup2\n      mstore\n      0x20\n      add\n      0x00\n      keccak256\n      sload\n        /* \"NFT-Contracts/contracts/market_pri/NewMarket.sol\":3551:3600  nftSaleStatus[_nftContractAddress][_tokenId] == 2 */\n      eq\n        /* \"NFT-Contracts/contracts/market_pri/NewMarket.sol\":3529:3651  require(\r... */\n      tag_178\n      jumpi\n      mload(0x40)\n      0x08c379a000000000000000000000000000000000000000000000000000000000\n      dup2\n      mstore\n      0x04\n      add\n      tag_179\n      swap1\n      tag_105\n      jump\t// in\n    tag_179:\n      mload(0x40)\n      dup1\n      swap2\n      sub\n      swap1\n      revert\n    tag_178:\n        /* \"NFT-Contracts/contracts/market_pri/NewMarket.sol\":15844:15863  _nftContractAddress */\n      dup4\n        /* \"NFT-Contracts/contracts/market_pri/NewMarket.sol\":15865:15873  _tokenId */\n      dup4\n        /* \"NFT-Contracts/contracts/market_pri/NewMarket.sol\":4651:4673  nftContractAuctionSale */\n      0x01\n        /* \"NFT-Contracts/contracts/market_pri/NewMarket.sol\":4651:4694  nftContractAuctionSale[_nftContractAddress] */\n      0x00\n        /* \"NFT-Contracts/contracts/market_pri/NewMarket.sol\":4674:4693  _nftContractAddress */\n      dup4\n        /* \"NFT-Contracts/contracts/market_pri/NewMarket.sol\":4651:4694  nftContractAuctionSale[_nftContractAddress] */\n      0xffffffffffffffffffffffffffffffffffffffff\n      and\n      0xffffffffffffffffffffffffffffffffffffffff\n      and\n      dup2\n      mstore\n      0x20\n      add\n      swap1\n      dup2\n      mstore\n      0x20\n      add\n      0x00\n      keccak256\n        /* \"NFT-Contracts/contracts/market_pri/NewMarket.sol\":4651:4704  nftContractAuctionSale[_nftContractAddress][_tokenId] */\n      0x00\n        /* \"NFT-Contracts/contracts/market_pri/NewMarket.sol\":4695:4703  _tokenId */\n      dup3\n        /* \"NFT-Contracts/contracts/market_pri/NewMarket.sol\":4651:4704  nftContractAuctionSale[_nftContractAddress][_tokenId] */\n      dup2\n      mstore\n      0x20\n      add\n      swap1\n      dup2\n      mstore\n      0x20\n      add\n      0x00\n      keccak256\n        /* \"NFT-Contracts/contracts/market_pri/NewMarket.sol\":4651:4737  nftContractAuctionSale[_nftContractAddress][_tokenId]\r... */\n      0x01\n      add\n      sload\n        /* \"NFT-Contracts/contracts/market_pri/NewMarket.sol\":4616:4631  block.timestamp */\n      timestamp\n        /* \"NFT-Contracts/contracts/market_pri/NewMarket.sol\":4616:4737  block.timestamp >\r... */\n      gt\n        /* \"NFT-Contracts/contracts/market_pri/NewMarket.sol\":4594:4780  require(\r... */\n      tag_181\n      jumpi\n      mload(0x40)\n      0x08c379a000000000000000000000000000000000000000000000000000000000\n      dup2\n      mstore\n      0x04\n      add\n      tag_182\n      swap1\n      tag_167\n      jump\t// in\n    tag_182:\n      mload(0x40)\n      dup1\n      swap2\n      sub\n      swap1\n      revert\n    tag_181:\n        /* \"NFT-Contracts/contracts/market_pri/NewMarket.sol\":15891:15907  address nftBuyer */\n      0x00\n        /* \"NFT-Contracts/contracts/market_pri/NewMarket.sol\":15910:15932  nftContractAuctionSale */\n      0x01\n        /* \"NFT-Contracts/contracts/market_pri/NewMarket.sol\":15910:15953  nftContractAuctionSale[_nftContractAddress] */\n      0x00\n        /* \"NFT-Contracts/contracts/market_pri/NewMarket.sol\":15933:15952  _nftContractAddress */\n      dup9\n        /* \"NFT-Contracts/contracts/market_pri/NewMarket.sol\":15910:15953  nftContractAuctionSale[_nftContractAddress] */\n      0xffffffffffffffffffffffffffffffffffffffff\n      and\n      0xffffffffffffffffffffffffffffffffffffffff\n      and\n      dup2\n      mstore\n      0x20\n      add\n      swap1\n      dup2\n      mstore\n      0x20\n      add\n      0x00\n      keccak256\n        /* \"NFT-Contracts/contracts/market_pri/NewMarket.sol\":15910:15963  nftContractAuctionSale[_nftContractAddress][_tokenId] */\n      0x00\n        /* \"NFT-Contracts/contracts/market_pri/NewMarket.sol\":15954:15962  _tokenId */\n      dup8\n        /* \"NFT-Contracts/contracts/market_pri/NewMarket.sol\":15910:15963  nftContractAuctionSale[_nftContractAddress][_tokenId] */\n      dup2\n      mstore\n      0x20\n      add\n      swap1\n      dup2\n      mstore\n      0x20\n      add\n      0x00\n      keccak256\n        /* \"NFT-Contracts/contracts/market_pri/NewMarket.sol\":15910:15994  nftContractAuctionSale[_nftContractAddress][_tokenId]\r... */\n      0x04\n      add\n      0x00\n      swap1\n      sload\n      swap1\n      0x0100\n      exp\n      swap1\n      div\n      0xffffffffffffffffffffffffffffffffffffffff\n      and\n        /* \"NFT-Contracts/contracts/market_pri/NewMarket.sol\":15891:15994  address nftBuyer = nftContractAuctionSale[_nftContractAddress][_tokenId]\r... */\n      swap1\n      pop\n        /* \"NFT-Contracts/contracts/market_pri/NewMarket.sol\":16007:16204  _transferNftAndPaySeller(\r... */\n      tag_184\n        /* \"NFT-Contracts/contracts/market_pri/NewMarket.sol\":16046:16065  _nftContractAddress */\n      dup8\n        /* \"NFT-Contracts/contracts/market_pri/NewMarket.sol\":16080:16088  _tokenId */\n      dup8\n        /* \"NFT-Contracts/contracts/market_pri/NewMarket.sol\":16103:16125  nftContractAuctionSale */\n      0x01\n        /* \"NFT-Contracts/contracts/market_pri/NewMarket.sol\":16103:16146  nftContractAuctionSale[_nftContractAddress] */\n      0x00\n        /* \"NFT-Contracts/contracts/market_pri/NewMarket.sol\":16126:16145  _nftContractAddress */\n      dup12\n        /* \"NFT-Contracts/contracts/market_pri/NewMarket.sol\":16103:16146  nftContractAuctionSale[_nftContractAddress] */\n      0xffffffffffffffffffffffffffffffffffffffff\n      and\n      0xffffffffffffffffffffffffffffffffffffffff\n      and\n      dup2\n      mstore\n      0x20\n      add\n      swap1\n      dup2\n      mstore\n      0x20\n      add\n      0x00\n      keccak256\n        /* \"NFT-Contracts/contracts/market_pri/NewMarket.sol\":16103:16156  nftContractAuctionSale[_nftContractAddress][_tokenId] */\n      0x00\n        /* \"NFT-Contracts/contracts/market_pri/NewMarket.sol\":16147:16155  _tokenId */\n      dup11\n        /* \"NFT-Contracts/contracts/market_pri/NewMarket.sol\":16103:16156  nftContractAuctionSale[_nftContractAddress][_tokenId] */\n      dup2\n      mstore\n      0x20\n      add\n      swap1\n      dup2\n      mstore\n      0x20\n      add\n      0x00\n      keccak256\n        /* \"NFT-Contracts/contracts/market_pri/NewMarket.sol\":16103:16170  nftContractAuctionSale[_nftContractAddress][_tokenId].nftHighestBid */\n      0x03\n      add\n      sload\n        /* \"NFT-Contracts/contracts/market_pri/NewMarket.sol\":16185:16193  nftBuyer */\n      dup5\n        /* \"NFT-Contracts/contracts/market_pri/NewMarket.sol\":16007:16031  _transferNftAndPaySeller */\n      tag_185\n        /* \"NFT-Contracts/contracts/market_pri/NewMarket.sol\":16007:16204  _transferNftAndPaySeller(\r... */\n      jump\t// in\n    tag_184:\n        /* \"NFT-Contracts/contracts/market_pri/NewMarket.sol\":16278:16279  0 */\n      0x00\n        /* \"NFT-Contracts/contracts/market_pri/NewMarket.sol\":16217:16234  userBidPriceOnNFT */\n      0x03\n        /* \"NFT-Contracts/contracts/market_pri/NewMarket.sol\":16217:16255  userBidPriceOnNFT[_nftContractAddress] */\n      0x00\n        /* \"NFT-Contracts/contracts/market_pri/NewMarket.sol\":16235:16254  _nftContractAddress */\n      dup10\n        /* \"NFT-Contracts/contracts/market_pri/NewMarket.sol\":16217:16255  userBidPriceOnNFT[_nftContractAddress] */\n      0xffffffffffffffffffffffffffffffffffffffff\n      and\n      0xffffffffffffffffffffffffffffffffffffffff\n      and\n      dup2\n      mstore\n      0x20\n      add\n      swap1\n      dup2\n      mstore\n      0x20\n      add\n      0x00\n      keccak256\n        /* \"NFT-Contracts/contracts/market_pri/NewMarket.sol\":16217:16265  userBidPriceOnNFT[_nftContractAddress][_tokenId] */\n      0x00\n        /* \"NFT-Contracts/contracts/market_pri/NewMarket.sol\":16256:16264  _tokenId */\n      dup9\n        /* \"NFT-Contracts/contracts/market_pri/NewMarket.sol\":16217:16265  userBidPriceOnNFT[_nftContractAddress][_tokenId] */\n      dup2\n      mstore\n      0x20\n      add\n      swap1\n      dup2\n      mstore\n      0x20\n      add\n      0x00\n      keccak256\n        /* \"NFT-Contracts/contracts/market_pri/NewMarket.sol\":16217:16275  userBidPriceOnNFT[_nftContractAddress][_tokenId][nftBuyer] */\n      0x00\n        /* \"NFT-Contracts/contracts/market_pri/NewMarket.sol\":16266:16274  nftBuyer */\n      dup4\n        /* \"NFT-Contracts/contracts/market_pri/NewMarket.sol\":16217:16275  userBidPriceOnNFT[_nftContractAddress][_tokenId][nftBuyer] */\n      0xffffffffffffffffffffffffffffffffffffffff\n      and\n      0xffffffffffffffffffffffffffffffffffffffff\n      and\n      dup2\n      mstore\n      0x20\n      add\n      swap1\n      dup2\n      mstore\n      0x20\n      add\n      0x00\n      keccak256\n        /* \"NFT-Contracts/contracts/market_pri/NewMarket.sol\":16217:16279  userBidPriceOnNFT[_nftContractAddress][_tokenId][nftBuyer] = 0 */\n      dup2\n      swap1\n      sstore\n      pop\n        /* \"NFT-Contracts/contracts/market_pri/NewMarket.sol\":16297:16564  NftAuctionSettle(\r... */\n      0xb31cb4f6609b11a57d1b6b14cc3f81f4b3e609f709a5b1e46892a45f9cc29ed8\n        /* \"NFT-Contracts/contracts/market_pri/NewMarket.sol\":16328:16347  _nftContractAddress */\n      dup8\n        /* \"NFT-Contracts/contracts/market_pri/NewMarket.sol\":16362:16370  _tokenId */\n      dup8\n        /* \"NFT-Contracts/contracts/market_pri/NewMarket.sol\":16385:16393  nftBuyer */\n      dup4\n        /* \"NFT-Contracts/contracts/market_pri/NewMarket.sol\":16408:16430  nftContractAuctionSale */\n      0x01\n        /* \"NFT-Contracts/contracts/market_pri/NewMarket.sol\":16408:16451  nftContractAuctionSale[_nftContractAddress] */\n      0x00\n        /* \"NFT-Contracts/contracts/market_pri/NewMarket.sol\":16431:16450  _nftContractAddress */\n      dup13\n        /* \"NFT-Contracts/contracts/market_pri/NewMarket.sol\":16408:16451  nftContractAuctionSale[_nftContractAddress] */\n      0xffffffffffffffffffffffffffffffffffffffff\n      and\n      0xffffffffffffffffffffffffffffffffffffffff\n      and\n      dup2\n      mstore\n      0x20\n      add\n      swap1\n      dup2\n      mstore\n      0x20\n      add\n      0x00\n      keccak256\n        /* \"NFT-Contracts/contracts/market_pri/NewMarket.sol\":16408:16461  nftContractAuctionSale[_nftContractAddress][_tokenId] */\n      0x00\n        /* \"NFT-Contracts/contracts/market_pri/NewMarket.sol\":16452:16460  _tokenId */\n      dup12\n        /* \"NFT-Contracts/contracts/market_pri/NewMarket.sol\":16408:16461  nftContractAuctionSale[_nftContractAddress][_tokenId] */\n      dup2\n      mstore\n      0x20\n      add\n      swap1\n      dup2\n      mstore\n      0x20\n      add\n      0x00\n      keccak256\n        /* \"NFT-Contracts/contracts/market_pri/NewMarket.sol\":16408:16475  nftContractAuctionSale[_nftContractAddress][_tokenId].nftHighestBid */\n      0x03\n      add\n      sload\n        /* \"NFT-Contracts/contracts/market_pri/NewMarket.sol\":16490:16512  nftContractAuctionSale */\n      0x01\n        /* \"NFT-Contracts/contracts/market_pri/NewMarket.sol\":16490:16533  nftContractAuctionSale[_nftContractAddress] */\n      0x00\n        /* \"NFT-Contracts/contracts/market_pri/NewMarket.sol\":16513:16532  _nftContractAddress */\n      dup14\n        /* \"NFT-Contracts/contracts/market_pri/NewMarket.sol\":16490:16533  nftContractAuctionSale[_nftContractAddress] */\n      0xffffffffffffffffffffffffffffffffffffffff\n      and\n      0xffffffffffffffffffffffffffffffffffffffff\n      and\n      dup2\n      mstore\n      0x20\n      add\n      swap1\n      dup2\n      mstore\n      0x20\n      add\n      0x00\n      keccak256\n        /* \"NFT-Contracts/contracts/market_pri/NewMarket.sol\":16490:16543  nftContractAuctionSale[_nftContractAddress][_tokenId] */\n      0x00\n        /* \"NFT-Contracts/contracts/market_pri/NewMarket.sol\":16534:16542  _tokenId */\n      dup13\n        /* \"NFT-Contracts/contracts/market_pri/NewMarket.sol\":16490:16543  nftContractAuctionSale[_nftContractAddress][_tokenId] */\n      dup2\n      mstore\n      0x20\n      add\n      swap1\n      dup2\n      mstore\n      0x20\n      add\n      0x00\n      keccak256\n        /* \"NFT-Contracts/contracts/market_pri/NewMarket.sol\":16490:16553  nftContractAuctionSale[_nftContractAddress][_tokenId].nftSeller */\n      0x05\n      add\n      0x00\n      swap1\n      sload\n      swap1\n      0x0100\n      exp\n      swap1\n      div\n      0xffffffffffffffffffffffffffffffffffffffff\n      and\n        /* \"NFT-Contracts/contracts/market_pri/NewMarket.sol\":16297:16564  NftAuctionSettle(\r... */\n      mload(0x40)\n      tag_186\n      swap6\n      swap5\n      swap4\n      swap3\n      swap2\n      swap1\n      tag_187\n      jump\t// in\n    tag_186:\n      mload(0x40)\n      dup1\n      swap2\n      sub\n      swap1\n      log1\n        /* \"NFT-Contracts/contracts/market_pri/NewMarket.sol\":15880:16572  {\r... */\n      pop\n        /* \"NFT-Contracts/contracts/market_pri/NewMarket.sol\":3662:3663  _ */\n      pop\n      pop\n        /* \"NFT-Contracts/contracts/market_pri/NewMarket.sol\":15674:16572  function settleAuction(address _nftContractAddress, uint256 _tokenId)\r... */\n      pop\n      pop\n      pop\n      pop\n      jump\t// out\n        /* \"NFT-Contracts/contracts/market_pri/NewMarket.sol\":868:936  mapping(address => mapping(uint256 => uint256)) public nftSaleStatus */\n    tag_54:\n      mstore(0x20, 0x02)\n      dup2\n      0x00\n      mstore\n      mstore(0x20, keccak256(0x00, 0x40))\n      dup1\n      0x00\n      mstore\n      keccak256(0x00, 0x40)\n      0x00\n      swap2\n      pop\n      swap2\n      pop\n      pop\n      sload\n      dup2\n      jump\t// out\n        /* \"NFT-Contracts/contracts/market_pri/NewMarket.sol\":7924:9059  function nftFixedSale(\r... */\n    tag_61:\n        /* \"NFT-Contracts/contracts/market_pri/NewMarket.sol\":8118:8137  _nftContractAddress */\n      dup4\n        /* \"NFT-Contracts/contracts/market_pri/NewMarket.sol\":8139:8147  _tokenId */\n      dup3\n        /* \"NFT-Contracts/contracts/market_pri/NewMarket.sol\":3809:3828  _nftContractAddress */\n      dup2\n        /* \"NFT-Contracts/contracts/market_pri/NewMarket.sol\":3801:3837  IERC721(_nftContractAddress).ownerOf */\n      0xffffffffffffffffffffffffffffffffffffffff\n      and\n      0x6352211e\n        /* \"NFT-Contracts/contracts/market_pri/NewMarket.sol\":3838:3846  _tokenId */\n      dup3\n        /* \"NFT-Contracts/contracts/market_pri/NewMarket.sol\":3801:3847  IERC721(_nftContractAddress).ownerOf(_tokenId) */\n      mload(0x40)\n      dup3\n      0xffffffff\n      and\n      0xe0\n      shl\n      dup2\n      mstore\n      0x04\n      add\n      tag_189\n      swap2\n      swap1\n      tag_56\n      jump\t// in\n    tag_189:\n      0x20\n      mload(0x40)\n      dup1\n      dup4\n      sub\n      dup2\n      dup7\n      dup1\n      extcodesize\n      iszero\n      dup1\n      iszero\n      tag_190\n      jumpi\n      0x00\n      dup1\n      revert\n    tag_190:\n      pop\n      gas\n      staticcall\n      iszero\n      dup1\n      iszero\n      tag_192\n      jumpi\n      returndatasize\n      0x00\n      dup1\n      returndatacopy\n      revert(0x00, returndatasize)\n    tag_192:\n      pop\n      pop\n      pop\n      pop\n      mload(0x40)\n      returndatasize\n      not(0x1f)\n      0x1f\n      dup3\n      add\n      and\n      dup3\n      add\n      dup1\n      0x40\n      mstore\n      pop\n      dup2\n      add\n      swap1\n      tag_193\n      swap2\n      swap1\n      tag_194\n      jump\t// in\n    tag_193:\n        /* \"NFT-Contracts/contracts/market_pri/NewMarket.sol\":3787:3847  msg.sender == IERC721(_nftContractAddress).ownerOf(_tokenId) */\n      0xffffffffffffffffffffffffffffffffffffffff\n      and\n        /* \"NFT-Contracts/contracts/market_pri/NewMarket.sol\":3787:3797  msg.sender */\n      caller\n        /* \"NFT-Contracts/contracts/market_pri/NewMarket.sol\":3787:3847  msg.sender == IERC721(_nftContractAddress).ownerOf(_tokenId) */\n      0xffffffffffffffffffffffffffffffffffffffff\n      and\n      eq\n        /* \"NFT-Contracts/contracts/market_pri/NewMarket.sol\":3765:3896  require(\r... */\n      tag_195\n      jumpi\n      mload(0x40)\n      0x08c379a000000000000000000000000000000000000000000000000000000000\n      dup2\n      mstore\n      0x04\n      add\n      tag_196\n      swap1\n      tag_157\n      jump\t// in\n    tag_196:\n      mload(0x40)\n      dup1\n      swap2\n      sub\n      swap1\n      revert\n    tag_195:\n        /* \"NFT-Contracts/contracts/market_pri/NewMarket.sol\":8177:8196  _nftContractAddress */\n      dup6\n        /* \"NFT-Contracts/contracts/market_pri/NewMarket.sol\":8198:8206  _tokenId */\n      dup5\n        /* \"NFT-Contracts/contracts/market_pri/NewMarket.sol\":3135:3136  0 */\n      0x00\n        /* \"NFT-Contracts/contracts/market_pri/NewMarket.sol\":3087:3100  nftSaleStatus */\n      0x02\n        /* \"NFT-Contracts/contracts/market_pri/NewMarket.sol\":3087:3121  nftSaleStatus[_nftContractAddress] */\n      0x00\n        /* \"NFT-Contracts/contracts/market_pri/NewMarket.sol\":3101:3120  _nftContractAddress */\n      dup5\n        /* \"NFT-Contracts/contracts/market_pri/NewMarket.sol\":3087:3121  nftSaleStatus[_nftContractAddress] */\n      0xffffffffffffffffffffffffffffffffffffffff\n      and\n      0xffffffffffffffffffffffffffffffffffffffff\n      and\n      dup2\n      mstore\n      0x20\n      add\n      swap1\n      dup2\n      mstore\n      0x20\n      add\n      0x00\n      keccak256\n        /* \"NFT-Contracts/contracts/market_pri/NewMarket.sol\":3087:3131  nftSaleStatus[_nftContractAddress][_tokenId] */\n      0x00\n        /* \"NFT-Contracts/contracts/market_pri/NewMarket.sol\":3122:3130  _tokenId */\n      dup4\n        /* \"NFT-Contracts/contracts/market_pri/NewMarket.sol\":3087:3131  nftSaleStatus[_nftContractAddress][_tokenId] */\n      dup2\n      mstore\n      0x20\n      add\n      swap1\n      dup2\n      mstore\n      0x20\n      add\n      0x00\n      keccak256\n      sload\n        /* \"NFT-Contracts/contracts/market_pri/NewMarket.sol\":3087:3136  nftSaleStatus[_nftContractAddress][_tokenId] == 0 */\n      eq\n        /* \"NFT-Contracts/contracts/market_pri/NewMarket.sol\":3065:3183  require(\r... */\n      tag_198\n      jumpi\n      mload(0x40)\n      0x08c379a000000000000000000000000000000000000000000000000000000000\n      dup2\n      mstore\n      0x04\n      add\n      tag_199\n      swap1\n      tag_200\n      jump\t// in\n    tag_199:\n      mload(0x40)\n      dup1\n      swap2\n      sub\n      swap1\n      revert\n    tag_198:\n        /* \"NFT-Contracts/contracts/market_pri/NewMarket.sol\":8235:8254  _nftContractAddress */\n      dup8\n        /* \"NFT-Contracts/contracts/market_pri/NewMarket.sol\":8256:8264  _tokenId */\n      dup7\n        /* \"NFT-Contracts/contracts/market_pri/NewMarket.sol\":4316:4335  _nftContractAddress */\n      dup2\n        /* \"NFT-Contracts/contracts/market_pri/NewMarket.sol\":4308:4353  IERC721(_nftContractAddress).isApprovedForAll */\n      0xffffffffffffffffffffffffffffffffffffffff\n      and\n      0xe985e9c5\n        /* \"NFT-Contracts/contracts/market_pri/NewMarket.sol\":4372:4382  msg.sender */\n      caller\n        /* \"NFT-Contracts/contracts/market_pri/NewMarket.sol\":4409:4413  this */\n      address\n        /* \"NFT-Contracts/contracts/market_pri/NewMarket.sol\":4308:4429  IERC721(_nftContractAddress).isApprovedForAll(\r... */\n      mload(0x40)\n      dup4\n      0xffffffff\n      and\n      0xe0\n      shl\n      dup2\n      mstore\n      0x04\n      add\n      tag_202\n      swap3\n      swap2\n      swap1\n      tag_203\n      jump\t// in\n    tag_202:\n      0x20\n      mload(0x40)\n      dup1\n      dup4\n      sub\n      dup2\n      dup7\n      dup1\n      extcodesize\n      iszero\n      dup1\n      iszero\n      tag_204\n      jumpi\n      0x00\n      dup1\n      revert\n    tag_204:\n      pop\n      gas\n      staticcall\n      iszero\n      dup1\n      iszero\n      tag_206\n      jumpi\n      returndatasize\n      0x00\n      dup1\n      returndatacopy\n      revert(0x00, returndatasize)\n    tag_206:\n      pop\n      pop\n      pop\n      pop\n      mload(0x40)\n      returndatasize\n      not(0x1f)\n      0x1f\n      dup3\n      add\n      and\n      dup3\n      add\n      dup1\n      0x40\n      mstore\n      pop\n      dup2\n      add\n      swap1\n      tag_207\n      swap2\n      swap1\n      tag_208\n      jump\t// in\n    tag_207:\n        /* \"NFT-Contracts/contracts/market_pri/NewMarket.sol\":4286:4485  require(\r... */\n      tag_209\n      jumpi\n      mload(0x40)\n      0x08c379a000000000000000000000000000000000000000000000000000000000\n      dup2\n      mstore\n      0x04\n      add\n      tag_210\n      swap1\n      tag_211\n      jump\t// in\n    tag_210:\n      mload(0x40)\n      dup1\n      swap2\n      sub\n      swap1\n      revert\n    tag_209:\n        /* \"NFT-Contracts/contracts/market_pri/NewMarket.sol\":8296:8306  _salePrice */\n      dup7\n        /* \"NFT-Contracts/contracts/market_pri/NewMarket.sol\":7848:7849  0 */\n      0x00\n        /* \"NFT-Contracts/contracts/market_pri/NewMarket.sol\":7839:7845  _price */\n      dup2\n        /* \"NFT-Contracts/contracts/market_pri/NewMarket.sol\":7839:7849  _price > 0 */\n      gt\n        /* \"NFT-Contracts/contracts/market_pri/NewMarket.sol\":7831:7871  require(_price > 0, \"Price cannot be 0\") */\n      tag_213\n      jumpi\n      mload(0x40)\n      0x08c379a000000000000000000000000000000000000000000000000000000000\n      dup2\n      mstore\n      0x04\n      add\n      tag_214\n      swap1\n      tag_113\n      jump\t// in\n    tag_214:\n      mload(0x40)\n      dup1\n      swap2\n      sub\n      swap1\n      revert\n    tag_213:\n        /* \"NFT-Contracts/contracts/market_pri/NewMarket.sol\":8378:8494  FixedSale(\r... */\n      mload(0x40)\n      dup1\n      0x80\n      add\n      0x40\n      mstore\n      dup1\n        /* \"NFT-Contracts/contracts/market_pri/NewMarket.sol\":8402:8412  msg.sender */\n      caller\n        /* \"NFT-Contracts/contracts/market_pri/NewMarket.sol\":8378:8494  FixedSale(\r... */\n      0xffffffffffffffffffffffffffffffffffffffff\n      and\n      dup2\n      mstore\n      0x20\n      add\n        /* \"NFT-Contracts/contracts/market_pri/NewMarket.sol\":8435:8436  0 */\n      0x00\n        /* \"NFT-Contracts/contracts/market_pri/NewMarket.sol\":8378:8494  FixedSale(\r... */\n      0xffffffffffffffffffffffffffffffffffffffff\n      and\n      dup2\n      mstore\n      0x20\n      add\n        /* \"NFT-Contracts/contracts/market_pri/NewMarket.sol\":8452:8458  _erc20 */\n      dup12\n        /* \"NFT-Contracts/contracts/market_pri/NewMarket.sol\":8378:8494  FixedSale(\r... */\n      0xffffffffffffffffffffffffffffffffffffffff\n      and\n      dup2\n      mstore\n      0x20\n      add\n        /* \"NFT-Contracts/contracts/market_pri/NewMarket.sol\":8473:8483  _salePrice */\n      dup10\n        /* \"NFT-Contracts/contracts/market_pri/NewMarket.sol\":8378:8494  FixedSale(\r... */\n      dup2\n      mstore\n      pop\n        /* \"NFT-Contracts/contracts/market_pri/NewMarket.sol\":8324:8344  nftContractFixedSale */\n      0x00\n        /* \"NFT-Contracts/contracts/market_pri/NewMarket.sol\":8324:8365  nftContractFixedSale[_nftContractAddress] */\n      dup1\n        /* \"NFT-Contracts/contracts/market_pri/NewMarket.sol\":8345:8364  _nftContractAddress */\n      dup14\n        /* \"NFT-Contracts/contracts/market_pri/NewMarket.sol\":8324:8365  nftContractFixedSale[_nftContractAddress] */\n      0xffffffffffffffffffffffffffffffffffffffff\n      and\n      0xffffffffffffffffffffffffffffffffffffffff\n      and\n      dup2\n      mstore\n      0x20\n      add\n      swap1\n      dup2\n      mstore\n      0x20\n      add\n      0x00\n      keccak256\n        /* \"NFT-Contracts/contracts/market_pri/NewMarket.sol\":8324:8375  nftContractFixedSale[_nftContractAddress][_tokenId] */\n      0x00\n        /* \"NFT-Contracts/contracts/market_pri/NewMarket.sol\":8366:8374  _tokenId */\n      dup12\n        /* \"NFT-Contracts/contracts/market_pri/NewMarket.sol\":8324:8375  nftContractFixedSale[_nftContractAddress][_tokenId] */\n      dup2\n      mstore\n      0x20\n      add\n      swap1\n      dup2\n      mstore\n      0x20\n      add\n      0x00\n      keccak256\n        /* \"NFT-Contracts/contracts/market_pri/NewMarket.sol\":8324:8494  nftContractFixedSale[_nftContractAddress][_tokenId] = FixedSale(\r... */\n      0x00\n      dup3\n      add\n      mload\n      dup2\n      0x00\n      add\n      exp(0x0100, 0x00)\n      dup2\n      sload\n      dup2\n      0xffffffffffffffffffffffffffffffffffffffff\n      mul\n      not\n      and\n      swap1\n      dup4\n      0xffffffffffffffffffffffffffffffffffffffff\n      and\n      mul\n      or\n      swap1\n      sstore\n      pop\n      0x20\n      dup3\n      add\n      mload\n      dup2\n      0x01\n      add\n      exp(0x0100, 0x00)\n      dup2\n      sload\n      dup2\n      0xffffffffffffffffffffffffffffffffffffffff\n      mul\n      not\n      and\n      swap1\n      dup4\n      0xffffffffffffffffffffffffffffffffffffffff\n      and\n      mul\n      or\n      swap1\n      sstore\n      pop\n      0x40\n      dup3\n      add\n      mload\n      dup2\n      0x02\n      add\n      exp(0x0100, 0x00)\n      dup2\n      sload\n      dup2\n      0xffffffffffffffffffffffffffffffffffffffff\n      mul\n      not\n      and\n      swap1\n      dup4\n      0xffffffffffffffffffffffffffffffffffffffff\n      and\n      mul\n      or\n      swap1\n      sstore\n      pop\n      0x60\n      dup3\n      add\n      mload\n      dup2\n      0x03\n      add\n      sstore\n      swap1\n      pop\n      pop\n        /* \"NFT-Contracts/contracts/market_pri/NewMarket.sol\":8554:8555  1 */\n      0x01\n        /* \"NFT-Contracts/contracts/market_pri/NewMarket.sol\":8507:8520  nftSaleStatus */\n      0x02\n        /* \"NFT-Contracts/contracts/market_pri/NewMarket.sol\":8507:8541  nftSaleStatus[_nftContractAddress] */\n      0x00\n        /* \"NFT-Contracts/contracts/market_pri/NewMarket.sol\":8521:8540  _nftContractAddress */\n      dup14\n        /* \"NFT-Contracts/contracts/market_pri/NewMarket.sol\":8507:8541  nftSaleStatus[_nftContractAddress] */\n      0xffffffffffffffffffffffffffffffffffffffff\n      and\n      0xffffffffffffffffffffffffffffffffffffffff\n      and\n      dup2\n      mstore\n      0x20\n      add\n      swap1\n      dup2\n      mstore\n      0x20\n      add\n      0x00\n      keccak256\n        /* \"NFT-Contracts/contracts/market_pri/NewMarket.sol\":8507:8551  nftSaleStatus[_nftContractAddress][_tokenId] */\n      0x00\n        /* \"NFT-Contracts/contracts/market_pri/NewMarket.sol\":8542:8550  _tokenId */\n      dup12\n        /* \"NFT-Contracts/contracts/market_pri/NewMarket.sol\":8507:8551  nftSaleStatus[_nftContractAddress][_tokenId] */\n      dup2\n      mstore\n      0x20\n      add\n      swap1\n      dup2\n      mstore\n      0x20\n      add\n      0x00\n      keccak256\n        /* \"NFT-Contracts/contracts/market_pri/NewMarket.sol\":8507:8555  nftSaleStatus[_nftContractAddress][_tokenId] = 1 */\n      dup2\n      swap1\n      sstore\n      pop\n        /* \"NFT-Contracts/contracts/market_pri/NewMarket.sol\":8619:8631  fixedSaleNFT */\n      0x05\n        /* \"NFT-Contracts/contracts/market_pri/NewMarket.sol\":8619:8638  fixedSaleNFT.length */\n      dup1\n      sload\n      swap1\n      pop\n        /* \"NFT-Contracts/contracts/market_pri/NewMarket.sol\":8568:8585  indexFixedSaleNFT */\n      0x04\n        /* \"NFT-Contracts/contracts/market_pri/NewMarket.sol\":8568:8606  indexFixedSaleNFT[_nftContractAddress] */\n      0x00\n        /* \"NFT-Contracts/contracts/market_pri/NewMarket.sol\":8586:8605  _nftContractAddress */\n      dup14\n        /* \"NFT-Contracts/contracts/market_pri/NewMarket.sol\":8568:8606  indexFixedSaleNFT[_nftContractAddress] */\n      0xffffffffffffffffffffffffffffffffffffffff\n      and\n      0xffffffffffffffffffffffffffffffffffffffff\n      and\n      dup2\n      mstore\n      0x20\n      add\n      swap1\n      dup2\n      mstore\n      0x20\n      add\n      0x00\n      keccak256\n        /* \"NFT-Contracts/contracts/market_pri/NewMarket.sol\":8568:8616  indexFixedSaleNFT[_nftContractAddress][_tokenId] */\n      0x00\n        /* \"NFT-Contracts/contracts/market_pri/NewMarket.sol\":8607:8615  _tokenId */\n      dup12\n        /* \"NFT-Contracts/contracts/market_pri/NewMarket.sol\":8568:8616  indexFixedSaleNFT[_nftContractAddress][_tokenId] */\n      dup2\n      mstore\n      0x20\n      add\n      swap1\n      dup2\n      mstore\n      0x20\n      add\n      0x00\n      keccak256\n        /* \"NFT-Contracts/contracts/market_pri/NewMarket.sol\":8568:8638  indexFixedSaleNFT[_nftContractAddress][_tokenId] = fixedSaleNFT.length */\n      dup2\n      swap1\n      sstore\n      pop\n        /* \"NFT-Contracts/contracts/market_pri/NewMarket.sol\":8649:8661  fixedSaleNFT */\n      0x05\n        /* \"NFT-Contracts/contracts/market_pri/NewMarket.sol\":8667:8706  SaleInfo(_nftContractAddress, _tokenId) */\n      mload(0x40)\n      dup1\n      0x40\n      add\n      0x40\n      mstore\n      dup1\n        /* \"NFT-Contracts/contracts/market_pri/NewMarket.sol\":8676:8695  _nftContractAddress */\n      dup14\n        /* \"NFT-Contracts/contracts/market_pri/NewMarket.sol\":8667:8706  SaleInfo(_nftContractAddress, _tokenId) */\n      0xffffffffffffffffffffffffffffffffffffffff\n      and\n      dup2\n      mstore\n      0x20\n      add\n        /* \"NFT-Contracts/contracts/market_pri/NewMarket.sol\":8697:8705  _tokenId */\n      dup12\n        /* \"NFT-Contracts/contracts/market_pri/NewMarket.sol\":8667:8706  SaleInfo(_nftContractAddress, _tokenId) */\n      dup2\n      mstore\n      pop\n        /* \"NFT-Contracts/contracts/market_pri/NewMarket.sol\":8649:8707  fixedSaleNFT.push(SaleInfo(_nftContractAddress, _tokenId)) */\n      swap1\n      dup1\n      0x01\n      dup2\n      sload\n      add\n      dup1\n      dup3\n      sstore\n      dup1\n      swap2\n      pop\n      pop\n      0x01\n      swap1\n      sub\n      swap1\n      0x00\n      mstore\n      keccak256(0x00, 0x20)\n      swap1\n      0x02\n      mul\n      add\n      0x00\n      swap1\n      swap2\n      swap1\n      swap2\n      swap1\n      swap2\n      pop\n      0x00\n      dup3\n      add\n      mload\n      dup2\n      0x00\n      add\n      exp(0x0100, 0x00)\n      dup2\n      sload\n      dup2\n      0xffffffffffffffffffffffffffffffffffffffff\n      mul\n      not\n      and\n      swap1\n      dup4\n      0xffffffffffffffffffffffffffffffffffffffff\n      and\n      mul\n      or\n      swap1\n      sstore\n      pop\n      0x20\n      dup3\n      add\n      mload\n      dup2\n      0x01\n      add\n      sstore\n      pop\n      pop\n        /* \"NFT-Contracts/contracts/market_pri/NewMarket.sol\":8728:8747  _nftContractAddress */\n      dup11\n        /* \"NFT-Contracts/contracts/market_pri/NewMarket.sol\":8720:8765  IERC721(_nftContractAddress).safeTransferFrom */\n      0xffffffffffffffffffffffffffffffffffffffff\n      and\n      0x42842e0e\n        /* \"NFT-Contracts/contracts/market_pri/NewMarket.sol\":8780:8790  msg.sender */\n      caller\n        /* \"NFT-Contracts/contracts/market_pri/NewMarket.sol\":8813:8817  this */\n      address\n        /* \"NFT-Contracts/contracts/market_pri/NewMarket.sol\":8833:8841  _tokenId */\n      dup13\n        /* \"NFT-Contracts/contracts/market_pri/NewMarket.sol\":8720:8852  IERC721(_nftContractAddress).safeTransferFrom(\r... */\n      mload(0x40)\n      dup5\n      0xffffffff\n      and\n      0xe0\n      shl\n      dup2\n      mstore\n      0x04\n      add\n      tag_217\n      swap4\n      swap3\n      swap2\n      swap1\n      tag_218\n      jump\t// in\n    tag_217:\n      0x00\n      mload(0x40)\n      dup1\n      dup4\n      sub\n      dup2\n      0x00\n      dup8\n      dup1\n      extcodesize\n      iszero\n      dup1\n      iszero\n      tag_219\n      jumpi\n      0x00\n      dup1\n      revert\n    tag_219:\n      pop\n      gas\n      call\n      iszero\n      dup1\n      iszero\n      tag_221\n      jumpi\n      returndatasize\n      0x00\n      dup1\n      returndatacopy\n      revert(0x00, returndatasize)\n    tag_221:\n      pop\n      pop\n      pop\n      pop\n        /* \"NFT-Contracts/contracts/market_pri/NewMarket.sol\":8870:9051  NftFixedSale(\r... */\n      0x078eead3cd01ed921c7653d000a6b73aea643a7b9c066fb7d93eb2eae8acc2d9\n        /* \"NFT-Contracts/contracts/market_pri/NewMarket.sol\":8897:8916  _nftContractAddress */\n      dup12\n        /* \"NFT-Contracts/contracts/market_pri/NewMarket.sol\":8931:8941  msg.sender */\n      caller\n        /* \"NFT-Contracts/contracts/market_pri/NewMarket.sol\":8956:8962  _erc20 */\n      dup13\n        /* \"NFT-Contracts/contracts/market_pri/NewMarket.sol\":8977:8985  _tokenId */\n      dup13\n        /* \"NFT-Contracts/contracts/market_pri/NewMarket.sol\":9000:9010  _salePrice */\n      dup13\n        /* \"NFT-Contracts/contracts/market_pri/NewMarket.sol\":9025:9040  block.timestamp */\n      timestamp\n        /* \"NFT-Contracts/contracts/market_pri/NewMarket.sol\":8870:9051  NftFixedSale(\r... */\n      mload(0x40)\n      tag_222\n      swap7\n      swap6\n      swap5\n      swap4\n      swap3\n      swap2\n      swap1\n      tag_223\n      jump\t// in\n    tag_222:\n      mload(0x40)\n      dup1\n      swap2\n      sub\n      swap1\n      log1\n        /* \"NFT-Contracts/contracts/market_pri/NewMarket.sol\":4496:4497  _ */\n      pop\n        /* \"NFT-Contracts/contracts/market_pri/NewMarket.sol\":3194:3195  _ */\n      pop\n      pop\n        /* \"NFT-Contracts/contracts/market_pri/NewMarket.sol\":3907:3908  _ */\n      pop\n      pop\n        /* \"NFT-Contracts/contracts/market_pri/NewMarket.sol\":7924:9059  function nftFixedSale(\r... */\n      pop\n      pop\n      pop\n      pop\n      pop\n      pop\n      jump\t// out\n        /* \"NFT-Contracts/contracts/market_pri/NewMarket.sol\":17346:17570  function getNftAuctionSaleDetails(\r... */\n    tag_65:\n        /* \"NFT-Contracts/contracts/market_pri/NewMarket.sol\":17475:17489  Auction memory */\n      tag_224\n      tag_225\n      jump\t// in\n    tag_224:\n        /* \"NFT-Contracts/contracts/market_pri/NewMarket.sol\":17509:17531  nftContractAuctionSale */\n      0x01\n        /* \"NFT-Contracts/contracts/market_pri/NewMarket.sol\":17509:17552  nftContractAuctionSale[_nftContractAddress] */\n      0x00\n        /* \"NFT-Contracts/contracts/market_pri/NewMarket.sol\":17532:17551  _nftContractAddress */\n      dup5\n        /* \"NFT-Contracts/contracts/market_pri/NewMarket.sol\":17509:17552  nftContractAuctionSale[_nftContractAddress] */\n      0xffffffffffffffffffffffffffffffffffffffff\n      and\n      0xffffffffffffffffffffffffffffffffffffffff\n      and\n      dup2\n      mstore\n      0x20\n      add\n      swap1\n      dup2\n      mstore\n      0x20\n      add\n      0x00\n      keccak256\n        /* \"NFT-Contracts/contracts/market_pri/NewMarket.sol\":17509:17562  nftContractAuctionSale[_nftContractAddress][_tokenId] */\n      0x00\n        /* \"NFT-Contracts/contracts/market_pri/NewMarket.sol\":17553:17561  _tokenId */\n      dup4\n        /* \"NFT-Contracts/contracts/market_pri/NewMarket.sol\":17509:17562  nftContractAuctionSale[_nftContractAddress][_tokenId] */\n      dup2\n      mstore\n      0x20\n      add\n      swap1\n      dup2\n      mstore\n      0x20\n      add\n      0x00\n      keccak256\n        /* \"NFT-Contracts/contracts/market_pri/NewMarket.sol\":17502:17562  return nftContractAuctionSale[_nftContractAddress][_tokenId] */\n      mload(0x40)\n      dup1\n      0xe0\n      add\n      0x40\n      mstore\n      swap1\n      dup2\n      0x00\n      dup3\n      add\n      sload\n      dup2\n      mstore\n      0x20\n      add\n      0x01\n      dup3\n      add\n      sload\n      dup2\n      mstore\n      0x20\n      add\n      0x02\n      dup3\n      add\n      sload\n      dup2\n      mstore\n      0x20\n      add\n      0x03\n      dup3\n      add\n      sload\n      dup2\n      mstore\n      0x20\n      add\n      0x04\n      dup3\n      add\n      0x00\n      swap1\n      sload\n      swap1\n      0x0100\n      exp\n      swap1\n      div\n      0xffffffffffffffffffffffffffffffffffffffff\n      and\n      0xffffffffffffffffffffffffffffffffffffffff\n      and\n      0xffffffffffffffffffffffffffffffffffffffff\n      and\n      dup2\n      mstore\n      0x20\n      add\n      0x05\n      dup3\n      add\n      0x00\n      swap1\n      sload\n      swap1\n      0x0100\n      exp\n      swap1\n      div\n      0xffffffffffffffffffffffffffffffffffffffff\n      and\n      0xffffffffffffffffffffffffffffffffffffffff\n      and\n      0xffffffffffffffffffffffffffffffffffffffff\n      and\n      dup2\n      mstore\n      0x20\n      add\n      0x06\n      dup3\n      add\n      0x00\n      swap1\n      sload\n      swap1\n      0x0100\n      exp\n      swap1\n      div\n      0xffffffffffffffffffffffffffffffffffffffff\n      and\n      0xffffffffffffffffffffffffffffffffffffffff\n      and\n      0xffffffffffffffffffffffffffffffffffffffff\n      and\n      dup2\n      mstore\n      pop\n      pop\n      swap1\n      pop\n        /* \"NFT-Contracts/contracts/market_pri/NewMarket.sol\":17346:17570  function getNftAuctionSaleDetails(\r... */\n      swap3\n      swap2\n      pop\n      pop\n      jump\t// out\n        /* \"NFT-Contracts/contracts/market_pri/NewMarket.sol\":943:1044  mapping(address => mapping(uint256 => mapping(address => uint256)))\r... */\n    tag_72:\n      mstore(0x20, 0x03)\n      dup3\n      0x00\n      mstore\n      mstore(0x20, keccak256(0x00, 0x40))\n      dup2\n      0x00\n      mstore\n      mstore(0x20, keccak256(0x00, 0x40))\n      dup1\n      0x00\n      mstore\n      keccak256(0x00, 0x40)\n      0x00\n      swap3\n      pop\n      swap3\n      pop\n      pop\n      pop\n      sload\n      dup2\n      jump\t// out\n        /* \"NFT-Contracts/contracts/market_pri/NewMarket.sol\":15037:15666  function _cancelAuctionSale(address _nftContractAddress, uint256 _tokenId)\r... */\n    tag_77:\n        /* \"NFT-Contracts/contracts/market_pri/NewMarket.sol\":15158:15177  _nftContractAddress */\n      dup2\n        /* \"NFT-Contracts/contracts/market_pri/NewMarket.sol\":15179:15187  _tokenId */\n      dup2\n        /* \"NFT-Contracts/contracts/market_pri/NewMarket.sol\":3599:3600  2 */\n      0x02\n        /* \"NFT-Contracts/contracts/market_pri/NewMarket.sol\":3551:3564  nftSaleStatus */\n      dup1\n        /* \"NFT-Contracts/contracts/market_pri/NewMarket.sol\":3551:3585  nftSaleStatus[_nftContractAddress] */\n      0x00\n        /* \"NFT-Contracts/contracts/market_pri/NewMarket.sol\":3565:3584  _nftContractAddress */\n      dup5\n        /* \"NFT-Contracts/contracts/market_pri/NewMarket.sol\":3551:3585  nftSaleStatus[_nftContractAddress] */\n      0xffffffffffffffffffffffffffffffffffffffff\n      and\n      0xffffffffffffffffffffffffffffffffffffffff\n      and\n      dup2\n      mstore\n      0x20\n      add\n      swap1\n      dup2\n      mstore\n      0x20\n      add\n      0x00\n      keccak256\n        /* \"NFT-Contracts/contracts/market_pri/NewMarket.sol\":3551:3595  nftSaleStatus[_nftContractAddress][_tokenId] */\n      0x00\n        /* \"NFT-Contracts/contracts/market_pri/NewMarket.sol\":3586:3594  _tokenId */\n      dup4\n        /* \"NFT-Contracts/contracts/market_pri/NewMarket.sol\":3551:3595  nftSaleStatus[_nftContractAddress][_tokenId] */\n      dup2\n      mstore\n      0x20\n      add\n      swap1\n      dup2\n      mstore\n      0x20\n      add\n      0x00\n      keccak256\n      sload\n        /* \"NFT-Contracts/contracts/market_pri/NewMarket.sol\":3551:3600  nftSaleStatus[_nftContractAddress][_tokenId] == 2 */\n      eq\n        /* \"NFT-Contracts/contracts/market_pri/NewMarket.sol\":3529:3651  require(\r... */\n      tag_228\n      jumpi\n      mload(0x40)\n      0x08c379a000000000000000000000000000000000000000000000000000000000\n      dup2\n      mstore\n      0x04\n      add\n      tag_229\n      swap1\n      tag_105\n      jump\t// in\n    tag_229:\n      mload(0x40)\n      dup1\n      swap2\n      sub\n      swap1\n      revert\n    tag_228:\n        /* \"NFT-Contracts/contracts/market_pri/NewMarket.sol\":15220:15239  _nftContractAddress */\n      dup4\n        /* \"NFT-Contracts/contracts/market_pri/NewMarket.sol\":15241:15249  _tokenId */\n      dup4\n        /* \"NFT-Contracts/contracts/market_pri/NewMarket.sol\":6088:6110  nftContractAuctionSale */\n      0x01\n        /* \"NFT-Contracts/contracts/market_pri/NewMarket.sol\":6088:6131  nftContractAuctionSale[_nftContractAddress] */\n      0x00\n        /* \"NFT-Contracts/contracts/market_pri/NewMarket.sol\":6111:6130  _nftContractAddress */\n      dup4\n        /* \"NFT-Contracts/contracts/market_pri/NewMarket.sol\":6088:6131  nftContractAuctionSale[_nftContractAddress] */\n      0xffffffffffffffffffffffffffffffffffffffff\n      and\n      0xffffffffffffffffffffffffffffffffffffffff\n      and\n      dup2\n      mstore\n      0x20\n      add\n      swap1\n      dup2\n      mstore\n      0x20\n      add\n      0x00\n      keccak256\n        /* \"NFT-Contracts/contracts/market_pri/NewMarket.sol\":6088:6141  nftContractAuctionSale[_nftContractAddress][_tokenId] */\n      0x00\n        /* \"NFT-Contracts/contracts/market_pri/NewMarket.sol\":6132:6140  _tokenId */\n      dup3\n        /* \"NFT-Contracts/contracts/market_pri/NewMarket.sol\":6088:6141  nftContractAuctionSale[_nftContractAddress][_tokenId] */\n      dup2\n      mstore\n      0x20\n      add\n      swap1\n      dup2\n      mstore\n      0x20\n      add\n      0x00\n      keccak256\n        /* \"NFT-Contracts/contracts/market_pri/NewMarket.sol\":6088:6151  nftContractAuctionSale[_nftContractAddress][_tokenId].nftSeller */\n      0x05\n      add\n      0x00\n      swap1\n      sload\n      swap1\n      0x0100\n      exp\n      swap1\n      div\n      0xffffffffffffffffffffffffffffffffffffffff\n      and\n        /* \"NFT-Contracts/contracts/market_pri/NewMarket.sol\":6057:6151  msg.sender ==\r... */\n      0xffffffffffffffffffffffffffffffffffffffff\n      and\n        /* \"NFT-Contracts/contracts/market_pri/NewMarket.sol\":6057:6067  msg.sender */\n      caller\n        /* \"NFT-Contracts/contracts/market_pri/NewMarket.sol\":6057:6151  msg.sender ==\r... */\n      0xffffffffffffffffffffffffffffffffffffffff\n      and\n      eq\n        /* \"NFT-Contracts/contracts/market_pri/NewMarket.sol\":6035:6192  require(\r... */\n      tag_231\n      jumpi\n      mload(0x40)\n      0x08c379a000000000000000000000000000000000000000000000000000000000\n      dup2\n      mstore\n      0x04\n      add\n      tag_232\n      swap1\n      tag_233\n      jump\t// in\n    tag_232:\n      mload(0x40)\n      dup1\n      swap2\n      sub\n      swap1\n      revert\n    tag_231:\n        /* \"NFT-Contracts/contracts/market_pri/NewMarket.sol\":15277:15296  _nftContractAddress */\n      dup6\n        /* \"NFT-Contracts/contracts/market_pri/NewMarket.sol\":15298:15306  _tokenId */\n      dup6\n        /* \"NFT-Contracts/contracts/market_pri/NewMarket.sol\":5768:5790  nftContractAuctionSale */\n      0x01\n        /* \"NFT-Contracts/contracts/market_pri/NewMarket.sol\":5768:5811  nftContractAuctionSale[_nftContractAddress] */\n      0x00\n        /* \"NFT-Contracts/contracts/market_pri/NewMarket.sol\":5791:5810  _nftContractAddress */\n      dup4\n        /* \"NFT-Contracts/contracts/market_pri/NewMarket.sol\":5768:5811  nftContractAuctionSale[_nftContractAddress] */\n      0xffffffffffffffffffffffffffffffffffffffff\n      and\n      0xffffffffffffffffffffffffffffffffffffffff\n      and\n      dup2\n      mstore\n      0x20\n      add\n      swap1\n      dup2\n      mstore\n      0x20\n      add\n      0x00\n      keccak256\n        /* \"NFT-Contracts/contracts/market_pri/NewMarket.sol\":5768:5821  nftContractAuctionSale[_nftContractAddress][_tokenId] */\n      0x00\n        /* \"NFT-Contracts/contracts/market_pri/NewMarket.sol\":5812:5820  _tokenId */\n      dup3\n        /* \"NFT-Contracts/contracts/market_pri/NewMarket.sol\":5768:5821  nftContractAuctionSale[_nftContractAddress][_tokenId] */\n      dup2\n      mstore\n      0x20\n      add\n      swap1\n      dup2\n      mstore\n      0x20\n      add\n      0x00\n      keccak256\n        /* \"NFT-Contracts/contracts/market_pri/NewMarket.sol\":5768:5854  nftContractAuctionSale[_nftContractAddress][_tokenId]\r... */\n      0x01\n      add\n      sload\n        /* \"NFT-Contracts/contracts/market_pri/NewMarket.sol\":5733:5748  block.timestamp */\n      timestamp\n        /* \"NFT-Contracts/contracts/market_pri/NewMarket.sol\":5733:5854  block.timestamp <\r... */\n      lt\n        /* \"NFT-Contracts/contracts/market_pri/NewMarket.sol\":5711:5893  require(\r... */\n      tag_235\n      jumpi\n      mload(0x40)\n      0x08c379a000000000000000000000000000000000000000000000000000000000\n      dup2\n      mstore\n      0x04\n      add\n      tag_236\n      swap1\n      tag_109\n      jump\t// in\n    tag_236:\n      mload(0x40)\n      dup1\n      swap2\n      sub\n      swap1\n      revert\n    tag_235:\n        /* \"NFT-Contracts/contracts/market_pri/NewMarket.sol\":15337:15356  _nftContractAddress */\n      dup8\n        /* \"NFT-Contracts/contracts/market_pri/NewMarket.sol\":15358:15366  _tokenId */\n      dup8\n        /* \"NFT-Contracts/contracts/market_pri/NewMarket.sol\":7287:7309  nftContractAuctionSale */\n      0x01\n        /* \"NFT-Contracts/contracts/market_pri/NewMarket.sol\":7287:7330  nftContractAuctionSale[_nftContractAddress] */\n      0x00\n        /* \"NFT-Contracts/contracts/market_pri/NewMarket.sol\":7310:7329  _nftContractAddress */\n      dup4\n        /* \"NFT-Contracts/contracts/market_pri/NewMarket.sol\":7287:7330  nftContractAuctionSale[_nftContractAddress] */\n      0xffffffffffffffffffffffffffffffffffffffff\n      and\n      0xffffffffffffffffffffffffffffffffffffffff\n      and\n      dup2\n      mstore\n      0x20\n      add\n      swap1\n      dup2\n      mstore\n      0x20\n      add\n      0x00\n      keccak256\n        /* \"NFT-Contracts/contracts/market_pri/NewMarket.sol\":7287:7340  nftContractAuctionSale[_nftContractAddress][_tokenId] */\n      0x00\n        /* \"NFT-Contracts/contracts/market_pri/NewMarket.sol\":7331:7339  _tokenId */\n      dup3\n        /* \"NFT-Contracts/contracts/market_pri/NewMarket.sol\":7287:7340  nftContractAuctionSale[_nftContractAddress][_tokenId] */\n      dup2\n      mstore\n      0x20\n      add\n      swap1\n      dup2\n      mstore\n      0x20\n      add\n      0x00\n      keccak256\n        /* \"NFT-Contracts/contracts/market_pri/NewMarket.sol\":7287:7379  nftContractAuctionSale[_nftContractAddress][_tokenId]\r... */\n      0x04\n      add\n      0x00\n      swap1\n      sload\n      swap1\n      0x0100\n      exp\n      swap1\n      div\n      0xffffffffffffffffffffffffffffffffffffffff\n      and\n        /* \"NFT-Contracts/contracts/market_pri/NewMarket.sol\":7256:7379  address(0) ==\r... */\n      0xffffffffffffffffffffffffffffffffffffffff\n      and\n        /* \"NFT-Contracts/contracts/market_pri/NewMarket.sol\":7264:7265  0 */\n      0x00\n        /* \"NFT-Contracts/contracts/market_pri/NewMarket.sol\":7256:7379  address(0) ==\r... */\n      0xffffffffffffffffffffffffffffffffffffffff\n      and\n      eq\n        /* \"NFT-Contracts/contracts/market_pri/NewMarket.sol\":7234:7415  require(\r... */\n      tag_238\n      jumpi\n      mload(0x40)\n      0x08c379a000000000000000000000000000000000000000000000000000000000\n      dup2\n      mstore\n      0x04\n      add\n      tag_239\n      swap1\n      tag_240\n      jump\t// in\n    tag_239:\n      mload(0x40)\n      dup1\n      swap2\n      sub\n      swap1\n      revert\n    tag_238:\n        /* \"NFT-Contracts/contracts/market_pri/NewMarket.sol\":15431:15432  0 */\n      0x00\n        /* \"NFT-Contracts/contracts/market_pri/NewMarket.sol\":15384:15397  nftSaleStatus */\n      0x02\n        /* \"NFT-Contracts/contracts/market_pri/NewMarket.sol\":15384:15418  nftSaleStatus[_nftContractAddress] */\n      0x00\n        /* \"NFT-Contracts/contracts/market_pri/NewMarket.sol\":15398:15417  _nftContractAddress */\n      dup13\n        /* \"NFT-Contracts/contracts/market_pri/NewMarket.sol\":15384:15418  nftSaleStatus[_nftContractAddress] */\n      0xffffffffffffffffffffffffffffffffffffffff\n      and\n      0xffffffffffffffffffffffffffffffffffffffff\n      and\n      dup2\n      mstore\n      0x20\n      add\n      swap1\n      dup2\n      mstore\n      0x20\n      add\n      0x00\n      keccak256\n        /* \"NFT-Contracts/contracts/market_pri/NewMarket.sol\":15384:15428  nftSaleStatus[_nftContractAddress][_tokenId] */\n      0x00\n        /* \"NFT-Contracts/contracts/market_pri/NewMarket.sol\":15419:15427  _tokenId */\n      dup12\n        /* \"NFT-Contracts/contracts/market_pri/NewMarket.sol\":15384:15428  nftSaleStatus[_nftContractAddress][_tokenId] */\n      dup2\n      mstore\n      0x20\n      add\n      swap1\n      dup2\n      mstore\n      0x20\n      add\n      0x00\n      keccak256\n        /* \"NFT-Contracts/contracts/market_pri/NewMarket.sol\":15384:15432  nftSaleStatus[_nftContractAddress][_tokenId] = 0 */\n      dup2\n      swap1\n      sstore\n      pop\n        /* \"NFT-Contracts/contracts/market_pri/NewMarket.sol\":15453:15472  _nftContractAddress */\n      dup10\n        /* \"NFT-Contracts/contracts/market_pri/NewMarket.sol\":15445:15490  IERC721(_nftContractAddress).safeTransferFrom */\n      0xffffffffffffffffffffffffffffffffffffffff\n      and\n      0x42842e0e\n        /* \"NFT-Contracts/contracts/market_pri/NewMarket.sol\":15513:15517  this */\n      address\n        /* \"NFT-Contracts/contracts/market_pri/NewMarket.sol\":15533:15543  msg.sender */\n      caller\n        /* \"NFT-Contracts/contracts/market_pri/NewMarket.sol\":15558:15566  _tokenId */\n      dup13\n        /* \"NFT-Contracts/contracts/market_pri/NewMarket.sol\":15445:15577  IERC721(_nftContractAddress).safeTransferFrom(\r... */\n      mload(0x40)\n      dup5\n      0xffffffff\n      and\n      0xe0\n      shl\n      dup2\n      mstore\n      0x04\n      add\n      tag_242\n      swap4\n      swap3\n      swap2\n      swap1\n      tag_218\n      jump\t// in\n    tag_242:\n      0x00\n      mload(0x40)\n      dup1\n      dup4\n      sub\n      dup2\n      0x00\n      dup8\n      dup1\n      extcodesize\n      iszero\n      dup1\n      iszero\n      tag_243\n      jumpi\n      0x00\n      dup1\n      revert\n    tag_243:\n      pop\n      gas\n      call\n      iszero\n      dup1\n      iszero\n      tag_245\n      jumpi\n      returndatasize\n      0x00\n      dup1\n      returndatacopy\n      revert(0x00, returndatasize)\n    tag_245:\n      pop\n      pop\n      pop\n      pop\n        /* \"NFT-Contracts/contracts/market_pri/NewMarket.sol\":15595:15658  CancelNftAuctionSale(_nftContractAddress, _tokenId, msg.sender) */\n      0xb9d411977d4ee731f87bb8f16eb6f8c1fb579cff684642052bf6084e6e33238d\n        /* \"NFT-Contracts/contracts/market_pri/NewMarket.sol\":15616:15635  _nftContractAddress */\n      dup11\n        /* \"NFT-Contracts/contracts/market_pri/NewMarket.sol\":15637:15645  _tokenId */\n      dup11\n        /* \"NFT-Contracts/contracts/market_pri/NewMarket.sol\":15647:15657  msg.sender */\n      caller\n        /* \"NFT-Contracts/contracts/market_pri/NewMarket.sol\":15595:15658  CancelNftAuctionSale(_nftContractAddress, _tokenId, msg.sender) */\n      mload(0x40)\n      tag_246\n      swap4\n      swap3\n      swap2\n      swap1\n      tag_176\n      jump\t// in\n    tag_246:\n      mload(0x40)\n      dup1\n      swap2\n      sub\n      swap1\n      log1\n        /* \"NFT-Contracts/contracts/market_pri/NewMarket.sol\":5904:5905  _ */\n      pop\n      pop\n        /* \"NFT-Contracts/contracts/market_pri/NewMarket.sol\":6203:6204  _ */\n      pop\n      pop\n        /* \"NFT-Contracts/contracts/market_pri/NewMarket.sol\":3662:3663  _ */\n      pop\n      pop\n        /* \"NFT-Contracts/contracts/market_pri/NewMarket.sol\":15037:15666  function _cancelAuctionSale(address _nftContractAddress, uint256 _tokenId)\r... */\n      pop\n      pop\n      pop\n      pop\n      jump\t// out\n        /* \"NFT-Contracts/contracts/market_pri/NewMarket.sol\":17693:17912  function getFixedSale(address _nftContractAddress, uint256 _tokenId)\r... */\n    tag_81:\n        /* \"NFT-Contracts/contracts/market_pri/NewMarket.sol\":17812:17828  FixedSale memory */\n      tag_247\n      tag_248\n      jump\t// in\n    tag_247:\n        /* \"NFT-Contracts/contracts/market_pri/NewMarket.sol\":17853:17873  nftContractFixedSale */\n      0x00\n        /* \"NFT-Contracts/contracts/market_pri/NewMarket.sol\":17853:17894  nftContractFixedSale[_nftContractAddress] */\n      dup1\n        /* \"NFT-Contracts/contracts/market_pri/NewMarket.sol\":17874:17893  _nftContractAddress */\n      dup5\n        /* \"NFT-Contracts/contracts/market_pri/NewMarket.sol\":17853:17894  nftContractFixedSale[_nftContractAddress] */\n      0xffffffffffffffffffffffffffffffffffffffff\n      and\n      0xffffffffffffffffffffffffffffffffffffffff\n      and\n      dup2\n      mstore\n      0x20\n      add\n      swap1\n      dup2\n      mstore\n      0x20\n      add\n      0x00\n      keccak256\n        /* \"NFT-Contracts/contracts/market_pri/NewMarket.sol\":17853:17904  nftContractFixedSale[_nftContractAddress][_tokenId] */\n      0x00\n        /* \"NFT-Contracts/contracts/market_pri/NewMarket.sol\":17895:17903  _tokenId */\n      dup4\n        /* \"NFT-Contracts/contracts/market_pri/NewMarket.sol\":17853:17904  nftContractFixedSale[_nftContractAddress][_tokenId] */\n      dup2\n      mstore\n      0x20\n      add\n      swap1\n      dup2\n      mstore\n      0x20\n      add\n      0x00\n      keccak256\n        /* \"NFT-Contracts/contracts/market_pri/NewMarket.sol\":17846:17904  return nftContractFixedSale[_nftContractAddress][_tokenId] */\n      mload(0x40)\n      dup1\n      0x80\n      add\n      0x40\n      mstore\n      swap1\n      dup2\n      0x00\n      dup3\n      add\n      0x00\n      swap1\n      sload\n      swap1\n      0x0100\n      exp\n      swap1\n      div\n      0xffffffffffffffffffffffffffffffffffffffff\n      and\n      0xffffffffffffffffffffffffffffffffffffffff\n      and\n      0xffffffffffffffffffffffffffffffffffffffff\n      and\n      dup2\n      mstore\n      0x20\n      add\n      0x01\n      dup3\n      add\n      0x00\n      swap1\n      sload\n      swap1\n      0x0100\n      exp\n      swap1\n      div\n      0xffffffffffffffffffffffffffffffffffffffff\n      and\n      0xffffffffffffffffffffffffffffffffffffffff\n      and\n      0xffffffffffffffffffffffffffffffffffffffff\n      and\n      dup2\n      mstore\n      0x20\n      add\n      0x02\n      dup3\n      add\n      0x00\n      swap1\n      sload\n      swap1\n      0x0100\n      exp\n      swap1\n      div\n      0xffffffffffffffffffffffffffffffffffffffff\n      and\n      0xffffffffffffffffffffffffffffffffffffffff\n      and\n      0xffffffffffffffffffffffffffffffffffffffff\n      and\n      dup2\n      mstore\n      0x20\n      add\n      0x03\n      dup3\n      add\n      sload\n      dup2\n      mstore\n      pop\n      pop\n      swap1\n      pop\n        /* \"NFT-Contracts/contracts/market_pri/NewMarket.sol\":17693:17912  function getFixedSale(address _nftContractAddress, uint256 _tokenId)\r... */\n      swap3\n      swap2\n      pop\n      pop\n      jump\t// out\n        /* \"NFT-Contracts/contracts/market_pri/NewMarket.sol\":17578:17685  function getFixedSaleNFT() external view returns (SaleInfo[] memory) {\r... */\n    tag_86:\n        /* \"NFT-Contracts/contracts/market_pri/NewMarket.sol\":17628:17645  SaleInfo[] memory */\n      0x60\n        /* \"NFT-Contracts/contracts/market_pri/NewMarket.sol\":17665:17677  fixedSaleNFT */\n      0x05\n        /* \"NFT-Contracts/contracts/market_pri/NewMarket.sol\":17658:17677  return fixedSaleNFT */\n      dup1\n      sload\n      dup1\n      0x20\n      mul\n      0x20\n      add\n      mload(0x40)\n      swap1\n      dup2\n      add\n      0x40\n      mstore\n      dup1\n      swap3\n      swap2\n      swap1\n      dup2\n      dup2\n      mstore\n      0x20\n      add\n      0x00\n      swap1\n    tag_251:\n      dup3\n      dup3\n      lt\n      iszero\n      tag_252\n      jumpi\n      dup4\n      dup3\n      swap1\n      0x00\n      mstore\n      keccak256(0x00, 0x20)\n      swap1\n      0x02\n      mul\n      add\n      mload(0x40)\n      dup1\n      0x40\n      add\n      0x40\n      mstore\n      swap1\n      dup2\n      0x00\n      dup3\n      add\n      0x00\n      swap1\n      sload\n      swap1\n      0x0100\n      exp\n      swap1\n      div\n      0xffffffffffffffffffffffffffffffffffffffff\n      and\n      0xffffffffffffffffffffffffffffffffffffffff\n      and\n      0xffffffffffffffffffffffffffffffffffffffff\n      and\n      dup2\n      mstore\n      0x20\n      add\n      0x01\n      dup3\n      add\n      sload\n      dup2\n      mstore\n      pop\n      pop\n      dup2\n      mstore\n      0x20\n      add\n      swap1\n      0x01\n      add\n      swap1\n      jump(tag_251)\n    tag_252:\n      pop\n      pop\n      pop\n      pop\n      swap1\n      pop\n        /* \"NFT-Contracts/contracts/market_pri/NewMarket.sol\":17578:17685  function getFixedSaleNFT() external view returns (SaleInfo[] memory) {\r... */\n      swap1\n      jump\t// out\n        /* \"NFT-Contracts/contracts/market_pri/NewMarket.sol\":10257:11396  function buyFromFixedSale(\r... */\n    tag_91:\n        /* \"NFT-Contracts/contracts/market_pri/NewMarket.sol\":10442:10461  _nftContractAddress */\n      dup3\n        /* \"NFT-Contracts/contracts/market_pri/NewMarket.sol\":10463:10471  _tokenId */\n      dup3\n        /* \"NFT-Contracts/contracts/market_pri/NewMarket.sol\":3365:3366  1 */\n      0x01\n        /* \"NFT-Contracts/contracts/market_pri/NewMarket.sol\":3317:3330  nftSaleStatus */\n      0x02\n        /* \"NFT-Contracts/contracts/market_pri/NewMarket.sol\":3317:3351  nftSaleStatus[_nftContractAddress] */\n      0x00\n        /* \"NFT-Contracts/contracts/market_pri/NewMarket.sol\":3331:3350  _nftContractAddress */\n      dup5\n        /* \"NFT-Contracts/contracts/market_pri/NewMarket.sol\":3317:3351  nftSaleStatus[_nftContractAddress] */\n      0xffffffffffffffffffffffffffffffffffffffff\n      and\n      0xffffffffffffffffffffffffffffffffffffffff\n      and\n      dup2\n      mstore\n      0x20\n      add\n      swap1\n      dup2\n      mstore\n      0x20\n      add\n      0x00\n      keccak256\n        /* \"NFT-Contracts/contracts/market_pri/NewMarket.sol\":3317:3361  nftSaleStatus[_nftContractAddress][_tokenId] */\n      0x00\n        /* \"NFT-Contracts/contracts/market_pri/NewMarket.sol\":3352:3360  _tokenId */\n      dup4\n        /* \"NFT-Contracts/contracts/market_pri/NewMarket.sol\":3317:3361  nftSaleStatus[_nftContractAddress][_tokenId] */\n      dup2\n      mstore\n      0x20\n      add\n      swap1\n      dup2\n      mstore\n      0x20\n      add\n      0x00\n      keccak256\n      sload\n        /* \"NFT-Contracts/contracts/market_pri/NewMarket.sol\":3317:3366  nftSaleStatus[_nftContractAddress][_tokenId] == 1 */\n      eq\n        /* \"NFT-Contracts/contracts/market_pri/NewMarket.sol\":3295:3415  require(\r... */\n      tag_255\n      jumpi\n      mload(0x40)\n      0x08c379a000000000000000000000000000000000000000000000000000000000\n      dup2\n      mstore\n      0x04\n      add\n      tag_256\n      swap1\n      tag_153\n      jump\t// in\n    tag_256:\n      mload(0x40)\n      dup1\n      swap2\n      sub\n      swap1\n      revert\n    tag_255:\n        /* \"NFT-Contracts/contracts/market_pri/NewMarket.sol\":10503:10510  _amount */\n      dup3\n        /* \"NFT-Contracts/contracts/market_pri/NewMarket.sol\":7848:7849  0 */\n      0x00\n        /* \"NFT-Contracts/contracts/market_pri/NewMarket.sol\":7839:7845  _price */\n      dup2\n        /* \"NFT-Contracts/contracts/market_pri/NewMarket.sol\":7839:7849  _price > 0 */\n      gt\n        /* \"NFT-Contracts/contracts/market_pri/NewMarket.sol\":7831:7871  require(_price > 0, \"Price cannot be 0\") */\n      tag_258\n      jumpi\n      mload(0x40)\n      0x08c379a000000000000000000000000000000000000000000000000000000000\n      dup2\n      mstore\n      0x04\n      add\n      tag_259\n      swap1\n      tag_113\n      jump\t// in\n    tag_259:\n      mload(0x40)\n      dup1\n      swap2\n      sub\n      swap1\n      revert\n    tag_258:\n        /* \"NFT-Contracts/contracts/market_pri/NewMarket.sol\":10543:10562  _nftContractAddress */\n      dup6\n        /* \"NFT-Contracts/contracts/market_pri/NewMarket.sol\":10564:10572  _tokenId */\n      dup6\n        /* \"NFT-Contracts/contracts/market_pri/NewMarket.sol\":10574:10581  _amount */\n      dup6\n        /* \"NFT-Contracts/contracts/market_pri/NewMarket.sol\":7637:7657  nftContractFixedSale */\n      0x00\n        /* \"NFT-Contracts/contracts/market_pri/NewMarket.sol\":7637:7678  nftContractFixedSale[_nftContractAddress] */\n      dup1\n        /* \"NFT-Contracts/contracts/market_pri/NewMarket.sol\":7658:7677  _nftContractAddress */\n      dup5\n        /* \"NFT-Contracts/contracts/market_pri/NewMarket.sol\":7637:7678  nftContractFixedSale[_nftContractAddress] */\n      0xffffffffffffffffffffffffffffffffffffffff\n      and\n      0xffffffffffffffffffffffffffffffffffffffff\n      and\n      dup2\n      mstore\n      0x20\n      add\n      swap1\n      dup2\n      mstore\n      0x20\n      add\n      0x00\n      keccak256\n        /* \"NFT-Contracts/contracts/market_pri/NewMarket.sol\":7637:7688  nftContractFixedSale[_nftContractAddress][_tokenId] */\n      0x00\n        /* \"NFT-Contracts/contracts/market_pri/NewMarket.sol\":7679:7687  _tokenId */\n      dup4\n        /* \"NFT-Contracts/contracts/market_pri/NewMarket.sol\":7637:7688  nftContractFixedSale[_nftContractAddress][_tokenId] */\n      dup2\n      mstore\n      0x20\n      add\n      swap1\n      dup2\n      mstore\n      0x20\n      add\n      0x00\n      keccak256\n        /* \"NFT-Contracts/contracts/market_pri/NewMarket.sol\":7637:7698  nftContractFixedSale[_nftContractAddress][_tokenId].salePrice */\n      0x03\n      add\n      sload\n        /* \"NFT-Contracts/contracts/market_pri/NewMarket.sol\":7607:7616  _buyPrice */\n      dup2\n        /* \"NFT-Contracts/contracts/market_pri/NewMarket.sol\":7607:7698  _buyPrice >=\r... */\n      lt\n      iszero\n        /* \"NFT-Contracts/contracts/market_pri/NewMarket.sol\":7585:7746  require(\r... */\n      tag_261\n      jumpi\n      mload(0x40)\n      0x08c379a000000000000000000000000000000000000000000000000000000000\n      dup2\n      mstore\n      0x04\n      add\n      tag_262\n      swap1\n      tag_263\n      jump\t// in\n    tag_262:\n      mload(0x40)\n      dup1\n      swap2\n      sub\n      swap1\n      revert\n    tag_261:\n        /* \"NFT-Contracts/contracts/market_pri/NewMarket.sol\":10607:10626  _nftContractAddress */\n      dup9\n        /* \"NFT-Contracts/contracts/market_pri/NewMarket.sol\":10599:10644  IERC721(_nftContractAddress).safeTransferFrom */\n      0xffffffffffffffffffffffffffffffffffffffff\n      and\n      0x42842e0e\n        /* \"NFT-Contracts/contracts/market_pri/NewMarket.sol\":10667:10671  this */\n      address\n        /* \"NFT-Contracts/contracts/market_pri/NewMarket.sol\":10687:10697  msg.sender */\n      caller\n        /* \"NFT-Contracts/contracts/market_pri/NewMarket.sol\":10712:10720  _tokenId */\n      dup12\n        /* \"NFT-Contracts/contracts/market_pri/NewMarket.sol\":10599:10731  IERC721(_nftContractAddress).safeTransferFrom(\r... */\n      mload(0x40)\n      dup5\n      0xffffffff\n      and\n      0xe0\n      shl\n      dup2\n      mstore\n      0x04\n      add\n      tag_265\n      swap4\n      swap3\n      swap2\n      swap1\n      tag_218\n      jump\t// in\n    tag_265:\n      0x00\n      mload(0x40)\n      dup1\n      dup4\n      sub\n      dup2\n      0x00\n      dup8\n      dup1\n      extcodesize\n      iszero\n      dup1\n      iszero\n      tag_266\n      jumpi\n      0x00\n      dup1\n      revert\n    tag_266:\n      pop\n      gas\n      call\n      iszero\n      dup1\n      iszero\n      tag_268\n      jumpi\n      returndatasize\n      0x00\n      dup1\n      returndatacopy\n      revert(0x00, returndatasize)\n    tag_268:\n      pop\n      pop\n      pop\n      pop\n        /* \"NFT-Contracts/contracts/market_pri/NewMarket.sol\":10791:10792  0 */\n      0x00\n        /* \"NFT-Contracts/contracts/market_pri/NewMarket.sol\":10744:10757  nftSaleStatus */\n      0x02\n        /* \"NFT-Contracts/contracts/market_pri/NewMarket.sol\":10744:10778  nftSaleStatus[_nftContractAddress] */\n      0x00\n        /* \"NFT-Contracts/contracts/market_pri/NewMarket.sol\":10758:10777  _nftContractAddress */\n      dup12\n        /* \"NFT-Contracts/contracts/market_pri/NewMarket.sol\":10744:10778  nftSaleStatus[_nftContractAddress] */\n      0xffffffffffffffffffffffffffffffffffffffff\n      and\n      0xffffffffffffffffffffffffffffffffffffffff\n      and\n      dup2\n      mstore\n      0x20\n      add\n      swap1\n      dup2\n      mstore\n      0x20\n      add\n      0x00\n      keccak256\n        /* \"NFT-Contracts/contracts/market_pri/NewMarket.sol\":10744:10788  nftSaleStatus[_nftContractAddress][_tokenId] */\n      0x00\n        /* \"NFT-Contracts/contracts/market_pri/NewMarket.sol\":10779:10787  _tokenId */\n      dup11\n        /* \"NFT-Contracts/contracts/market_pri/NewMarket.sol\":10744:10788  nftSaleStatus[_nftContractAddress][_tokenId] */\n      dup2\n      mstore\n      0x20\n      add\n      swap1\n      dup2\n      mstore\n      0x20\n      add\n      0x00\n      keccak256\n        /* \"NFT-Contracts/contracts/market_pri/NewMarket.sol\":10744:10792  nftSaleStatus[_nftContractAddress][_tokenId] = 0 */\n      dup2\n      swap1\n      sstore\n      pop\n        /* \"NFT-Contracts/contracts/market_pri/NewMarket.sol\":10810:10822  fixedSaleNFT */\n      0x05\n        /* \"NFT-Contracts/contracts/market_pri/NewMarket.sol\":10824:10841  indexFixedSaleNFT */\n      0x04\n        /* \"NFT-Contracts/contracts/market_pri/NewMarket.sol\":10824:10862  indexFixedSaleNFT[_nftContractAddress] */\n      0x00\n        /* \"NFT-Contracts/contracts/market_pri/NewMarket.sol\":10842:10861  _nftContractAddress */\n      dup12\n        /* \"NFT-Contracts/contracts/market_pri/NewMarket.sol\":10824:10862  indexFixedSaleNFT[_nftContractAddress] */\n      0xffffffffffffffffffffffffffffffffffffffff\n      and\n      0xffffffffffffffffffffffffffffffffffffffff\n      and\n      dup2\n      mstore\n      0x20\n      add\n      swap1\n      dup2\n      mstore\n      0x20\n      add\n      0x00\n      keccak256\n        /* \"NFT-Contracts/contracts/market_pri/NewMarket.sol\":10824:10872  indexFixedSaleNFT[_nftContractAddress][_tokenId] */\n      0x00\n        /* \"NFT-Contracts/contracts/market_pri/NewMarket.sol\":10863:10871  _tokenId */\n      dup11\n        /* \"NFT-Contracts/contracts/market_pri/NewMarket.sol\":10824:10872  indexFixedSaleNFT[_nftContractAddress][_tokenId] */\n      dup2\n      mstore\n      0x20\n      add\n      swap1\n      dup2\n      mstore\n      0x20\n      add\n      0x00\n      keccak256\n      sload\n        /* \"NFT-Contracts/contracts/market_pri/NewMarket.sol\":10810:10874  fixedSaleNFT[(indexFixedSaleNFT[_nftContractAddress][_tokenId])] */\n      dup2\n      sload\n      dup2\n      lt\n      tag_269\n      jumpi\n      tag_270\n      tag_271\n      jump\t// in\n    tag_270:\n    tag_269:\n      swap1\n      0x00\n      mstore\n      keccak256(0x00, 0x20)\n      swap1\n      0x02\n      mul\n      add\n      0x00\n        /* \"NFT-Contracts/contracts/market_pri/NewMarket.sol\":10803:10874  delete fixedSaleNFT[(indexFixedSaleNFT[_nftContractAddress][_tokenId])] */\n      dup1\n      dup3\n      add\n      exp(0x0100, 0x00)\n      dup2\n      sload\n      swap1\n      0xffffffffffffffffffffffffffffffffffffffff\n      mul\n      not\n      and\n      swap1\n      sstore\n      0x01\n      dup3\n      add\n      0x00\n      swap1\n      sstore\n      pop\n      pop\n        /* \"NFT-Contracts/contracts/market_pri/NewMarket.sol\":10950:10974  msg\r... */\n      caller\n        /* \"NFT-Contracts/contracts/market_pri/NewMarket.sol\":10887:10907  nftContractFixedSale */\n      0x00\n        /* \"NFT-Contracts/contracts/market_pri/NewMarket.sol\":10887:10928  nftContractFixedSale[_nftContractAddress] */\n      dup1\n        /* \"NFT-Contracts/contracts/market_pri/NewMarket.sol\":10908:10927  _nftContractAddress */\n      dup12\n        /* \"NFT-Contracts/contracts/market_pri/NewMarket.sol\":10887:10928  nftContractFixedSale[_nftContractAddress] */\n      0xffffffffffffffffffffffffffffffffffffffff\n      and\n      0xffffffffffffffffffffffffffffffffffffffff\n      and\n      dup2\n      mstore\n      0x20\n      add\n      swap1\n      dup2\n      mstore\n      0x20\n      add\n      0x00\n      keccak256\n        /* \"NFT-Contracts/contracts/market_pri/NewMarket.sol\":10887:10938  nftContractFixedSale[_nftContractAddress][_tokenId] */\n      0x00\n        /* \"NFT-Contracts/contracts/market_pri/NewMarket.sol\":10929:10937  _tokenId */\n      dup11\n        /* \"NFT-Contracts/contracts/market_pri/NewMarket.sol\":10887:10938  nftContractFixedSale[_nftContractAddress][_tokenId] */\n      dup2\n      mstore\n      0x20\n      add\n      swap1\n      dup2\n      mstore\n      0x20\n      add\n      0x00\n      keccak256\n        /* \"NFT-Contracts/contracts/market_pri/NewMarket.sol\":10887:10947  nftContractFixedSale[_nftContractAddress][_tokenId].nftBuyer */\n      0x01\n      add\n      0x00\n        /* \"NFT-Contracts/contracts/market_pri/NewMarket.sol\":10887:10974  nftContractFixedSale[_nftContractAddress][_tokenId].nftBuyer = msg\r... */\n      0x0100\n      exp\n      dup2\n      sload\n      dup2\n      0xffffffffffffffffffffffffffffffffffffffff\n      mul\n      not\n      and\n      swap1\n      dup4\n      0xffffffffffffffffffffffffffffffffffffffff\n      and\n      mul\n      or\n      swap1\n      sstore\n      pop\n        /* \"NFT-Contracts/contracts/market_pri/NewMarket.sol\":10987:11236  _isTokenOrCoin(\r... */\n      tag_273\n        /* \"NFT-Contracts/contracts/market_pri/NewMarket.sol\":11016:11036  nftContractFixedSale */\n      0x00\n        /* \"NFT-Contracts/contracts/market_pri/NewMarket.sol\":11016:11057  nftContractFixedSale[_nftContractAddress] */\n      dup1\n        /* \"NFT-Contracts/contracts/market_pri/NewMarket.sol\":11037:11056  _nftContractAddress */\n      dup12\n        /* \"NFT-Contracts/contracts/market_pri/NewMarket.sol\":11016:11057  nftContractFixedSale[_nftContractAddress] */\n      0xffffffffffffffffffffffffffffffffffffffff\n      and\n      0xffffffffffffffffffffffffffffffffffffffff\n      and\n      dup2\n      mstore\n      0x20\n      add\n      swap1\n      dup2\n      mstore\n      0x20\n      add\n      0x00\n      keccak256\n        /* \"NFT-Contracts/contracts/market_pri/NewMarket.sol\":11016:11067  nftContractFixedSale[_nftContractAddress][_tokenId] */\n      0x00\n        /* \"NFT-Contracts/contracts/market_pri/NewMarket.sol\":11058:11066  _tokenId */\n      dup11\n        /* \"NFT-Contracts/contracts/market_pri/NewMarket.sol\":11016:11067  nftContractFixedSale[_nftContractAddress][_tokenId] */\n      dup2\n      mstore\n      0x20\n      add\n      swap1\n      dup2\n      mstore\n      0x20\n      add\n      0x00\n      keccak256\n        /* \"NFT-Contracts/contracts/market_pri/NewMarket.sol\":11016:11077  nftContractFixedSale[_nftContractAddress][_tokenId].nftSeller */\n      0x00\n      add\n      0x00\n      swap1\n      sload\n      swap1\n      0x0100\n      exp\n      swap1\n      div\n      0xffffffffffffffffffffffffffffffffffffffff\n      and\n        /* \"NFT-Contracts/contracts/market_pri/NewMarket.sol\":11092:11112  nftContractFixedSale */\n      0x00\n        /* \"NFT-Contracts/contracts/market_pri/NewMarket.sol\":11092:11133  nftContractFixedSale[_nftContractAddress] */\n      dup1\n        /* \"NFT-Contracts/contracts/market_pri/NewMarket.sol\":11113:11132  _nftContractAddress */\n      dup13\n        /* \"NFT-Contracts/contracts/market_pri/NewMarket.sol\":11092:11133  nftContractFixedSale[_nftContractAddress] */\n      0xffffffffffffffffffffffffffffffffffffffff\n      and\n      0xffffffffffffffffffffffffffffffffffffffff\n      and\n      dup2\n      mstore\n      0x20\n      add\n      swap1\n      dup2\n      mstore\n      0x20\n      add\n      0x00\n      keccak256\n        /* \"NFT-Contracts/contracts/market_pri/NewMarket.sol\":11092:11143  nftContractFixedSale[_nftContractAddress][_tokenId] */\n      0x00\n        /* \"NFT-Contracts/contracts/market_pri/NewMarket.sol\":11134:11142  _tokenId */\n      dup12\n        /* \"NFT-Contracts/contracts/market_pri/NewMarket.sol\":11092:11143  nftContractFixedSale[_nftContractAddress][_tokenId] */\n      dup2\n      mstore\n      0x20\n      add\n      swap1\n      dup2\n      mstore\n      0x20\n      add\n      0x00\n      keccak256\n        /* \"NFT-Contracts/contracts/market_pri/NewMarket.sol\":11092:11149  nftContractFixedSale[_nftContractAddress][_tokenId].erc20 */\n      0x02\n      add\n      0x00\n      swap1\n      sload\n      swap1\n      0x0100\n      exp\n      swap1\n      div\n      0xffffffffffffffffffffffffffffffffffffffff\n      and\n        /* \"NFT-Contracts/contracts/market_pri/NewMarket.sol\":11164:11184  nftContractFixedSale */\n      0x00\n        /* \"NFT-Contracts/contracts/market_pri/NewMarket.sol\":11164:11205  nftContractFixedSale[_nftContractAddress] */\n      dup1\n        /* \"NFT-Contracts/contracts/market_pri/NewMarket.sol\":11185:11204  _nftContractAddress */\n      dup14\n        /* \"NFT-Contracts/contracts/market_pri/NewMarket.sol\":11164:11205  nftContractFixedSale[_nftContractAddress] */\n      0xffffffffffffffffffffffffffffffffffffffff\n      and\n      0xffffffffffffffffffffffffffffffffffffffff\n      and\n      dup2\n      mstore\n      0x20\n      add\n      swap1\n      dup2\n      mstore\n      0x20\n      add\n      0x00\n      keccak256\n        /* \"NFT-Contracts/contracts/market_pri/NewMarket.sol\":11164:11215  nftContractFixedSale[_nftContractAddress][_tokenId] */\n      0x00\n        /* \"NFT-Contracts/contracts/market_pri/NewMarket.sol\":11206:11214  _tokenId */\n      dup13\n        /* \"NFT-Contracts/contracts/market_pri/NewMarket.sol\":11164:11215  nftContractFixedSale[_nftContractAddress][_tokenId] */\n      dup2\n      mstore\n      0x20\n      add\n      swap1\n      dup2\n      mstore\n      0x20\n      add\n      0x00\n      keccak256\n        /* \"NFT-Contracts/contracts/market_pri/NewMarket.sol\":11164:11225  nftContractFixedSale[_nftContractAddress][_tokenId].salePrice */\n      0x03\n      add\n      sload\n        /* \"NFT-Contracts/contracts/market_pri/NewMarket.sol\":10987:11001  _isTokenOrCoin */\n      tag_274\n        /* \"NFT-Contracts/contracts/market_pri/NewMarket.sol\":10987:11236  _isTokenOrCoin(\r... */\n      jump\t// in\n    tag_273:\n        /* \"NFT-Contracts/contracts/market_pri/NewMarket.sol\":11254:11388  NftBuyFromFixedSale(\r... */\n      0x9fa3b1bb9266e05722b54a7a564d02a274bc80d39f4af21e6be405480996ceba\n        /* \"NFT-Contracts/contracts/market_pri/NewMarket.sol\":11288:11307  _nftContractAddress */\n      dup10\n        /* \"NFT-Contracts/contracts/market_pri/NewMarket.sol\":11322:11332  msg.sender */\n      caller\n        /* \"NFT-Contracts/contracts/market_pri/NewMarket.sol\":11347:11355  _tokenId */\n      dup11\n        /* \"NFT-Contracts/contracts/market_pri/NewMarket.sol\":11370:11377  _amount */\n      dup11\n        /* \"NFT-Contracts/contracts/market_pri/NewMarket.sol\":11254:11388  NftBuyFromFixedSale(\r... */\n      mload(0x40)\n      tag_275\n      swap5\n      swap4\n      swap3\n      swap2\n      swap1\n      tag_276\n      jump\t// in\n    tag_275:\n      mload(0x40)\n      dup1\n      swap2\n      sub\n      swap1\n      log1\n        /* \"NFT-Contracts/contracts/market_pri/NewMarket.sol\":7882:7883  _ */\n      pop\n      pop\n      pop\n        /* \"NFT-Contracts/contracts/market_pri/NewMarket.sol\":3426:3427  _ */\n      pop\n        /* \"NFT-Contracts/contracts/market_pri/NewMarket.sol\":10257:11396  function buyFromFixedSale(\r... */\n      pop\n      pop\n      pop\n      pop\n      pop\n      jump\t// out\n        /* \"NFT-Contracts/contracts/market_pri/NewMarket.sol\":11431:12322  function createNftAuctionSale(\r... */\n    tag_96:\n        /* \"NFT-Contracts/contracts/market_pri/NewMarket.sol\":11694:11713  _nftContractAddress */\n      dup6\n        /* \"NFT-Contracts/contracts/market_pri/NewMarket.sol\":11715:11723  _tokenId */\n      dup5\n        /* \"NFT-Contracts/contracts/market_pri/NewMarket.sol\":3809:3828  _nftContractAddress */\n      dup2\n        /* \"NFT-Contracts/contracts/market_pri/NewMarket.sol\":3801:3837  IERC721(_nftContractAddress).ownerOf */\n      0xffffffffffffffffffffffffffffffffffffffff\n      and\n      0x6352211e\n        /* \"NFT-Contracts/contracts/market_pri/NewMarket.sol\":3838:3846  _tokenId */\n      dup3\n        /* \"NFT-Contracts/contracts/market_pri/NewMarket.sol\":3801:3847  IERC721(_nftContractAddress).ownerOf(_tokenId) */\n      mload(0x40)\n      dup3\n      0xffffffff\n      and\n      0xe0\n      shl\n      dup2\n      mstore\n      0x04\n      add\n      tag_278\n      swap2\n      swap1\n      tag_56\n      jump\t// in\n    tag_278:\n      0x20\n      mload(0x40)\n      dup1\n      dup4\n      sub\n      dup2\n      dup7\n      dup1\n      extcodesize\n      iszero\n      dup1\n      iszero\n      tag_279\n      jumpi\n      0x00\n      dup1\n      revert\n    tag_279:\n      pop\n      gas\n      staticcall\n      iszero\n      dup1\n      iszero\n      tag_281\n      jumpi\n      returndatasize\n      0x00\n      dup1\n      returndatacopy\n      revert(0x00, returndatasize)\n    tag_281:\n      pop\n      pop\n      pop\n      pop\n      mload(0x40)\n      returndatasize\n      not(0x1f)\n      0x1f\n      dup3\n      add\n      and\n      dup3\n      add\n      dup1\n      0x40\n      mstore\n      pop\n      dup2\n      add\n      swap1\n      tag_282\n      swap2\n      swap1\n      tag_194\n      jump\t// in\n    tag_282:\n        /* \"NFT-Contracts/contracts/market_pri/NewMarket.sol\":3787:3847  msg.sender == IERC721(_nftContractAddress).ownerOf(_tokenId) */\n      0xffffffffffffffffffffffffffffffffffffffff\n      and\n        /* \"NFT-Contracts/contracts/market_pri/NewMarket.sol\":3787:3797  msg.sender */\n      caller\n        /* \"NFT-Contracts/contracts/market_pri/NewMarket.sol\":3787:3847  msg.sender == IERC721(_nftContractAddress).ownerOf(_tokenId) */\n      0xffffffffffffffffffffffffffffffffffffffff\n      and\n      eq\n        /* \"NFT-Contracts/contracts/market_pri/NewMarket.sol\":3765:3896  require(\r... */\n      tag_283\n      jumpi\n      mload(0x40)\n      0x08c379a000000000000000000000000000000000000000000000000000000000\n      dup2\n      mstore\n      0x04\n      add\n      tag_284\n      swap1\n      tag_157\n      jump\t// in\n    tag_284:\n      mload(0x40)\n      dup1\n      swap2\n      sub\n      swap1\n      revert\n    tag_283:\n        /* \"NFT-Contracts/contracts/market_pri/NewMarket.sol\":11753:11772  _nftContractAddress */\n      dup8\n        /* \"NFT-Contracts/contracts/market_pri/NewMarket.sol\":11774:11782  _tokenId */\n      dup7\n        /* \"NFT-Contracts/contracts/market_pri/NewMarket.sol\":3135:3136  0 */\n      0x00\n        /* \"NFT-Contracts/contracts/market_pri/NewMarket.sol\":3087:3100  nftSaleStatus */\n      0x02\n        /* \"NFT-Contracts/contracts/market_pri/NewMarket.sol\":3087:3121  nftSaleStatus[_nftContractAddress] */\n      0x00\n        /* \"NFT-Contracts/contracts/market_pri/NewMarket.sol\":3101:3120  _nftContractAddress */\n      dup5\n        /* \"NFT-Contracts/contracts/market_pri/NewMarket.sol\":3087:3121  nftSaleStatus[_nftContractAddress] */\n      0xffffffffffffffffffffffffffffffffffffffff\n      and\n      0xffffffffffffffffffffffffffffffffffffffff\n      and\n      dup2\n      mstore\n      0x20\n      add\n      swap1\n      dup2\n      mstore\n      0x20\n      add\n      0x00\n      keccak256\n        /* \"NFT-Contracts/contracts/market_pri/NewMarket.sol\":3087:3131  nftSaleStatus[_nftContractAddress][_tokenId] */\n      0x00\n        /* \"NFT-Contracts/contracts/market_pri/NewMarket.sol\":3122:3130  _tokenId */\n      dup4\n        /* \"NFT-Contracts/contracts/market_pri/NewMarket.sol\":3087:3131  nftSaleStatus[_nftContractAddress][_tokenId] */\n      dup2\n      mstore\n      0x20\n      add\n      swap1\n      dup2\n      mstore\n      0x20\n      add\n      0x00\n      keccak256\n      sload\n        /* \"NFT-Contracts/contracts/market_pri/NewMarket.sol\":3087:3136  nftSaleStatus[_nftContractAddress][_tokenId] == 0 */\n      eq\n        /* \"NFT-Contracts/contracts/market_pri/NewMarket.sol\":3065:3183  require(\r... */\n      tag_286\n      jumpi\n      mload(0x40)\n      0x08c379a000000000000000000000000000000000000000000000000000000000\n      dup2\n      mstore\n      0x04\n      add\n      tag_287\n      swap1\n      tag_200\n      jump\t// in\n    tag_287:\n      mload(0x40)\n      dup1\n      swap2\n      sub\n      swap1\n      revert\n    tag_286:\n        /* \"NFT-Contracts/contracts/market_pri/NewMarket.sol\":11811:11830  _nftContractAddress */\n      dup10\n        /* \"NFT-Contracts/contracts/market_pri/NewMarket.sol\":11832:11840  _tokenId */\n      dup9\n        /* \"NFT-Contracts/contracts/market_pri/NewMarket.sol\":4316:4335  _nftContractAddress */\n      dup2\n        /* \"NFT-Contracts/contracts/market_pri/NewMarket.sol\":4308:4353  IERC721(_nftContractAddress).isApprovedForAll */\n      0xffffffffffffffffffffffffffffffffffffffff\n      and\n      0xe985e9c5\n        /* \"NFT-Contracts/contracts/market_pri/NewMarket.sol\":4372:4382  msg.sender */\n      caller\n        /* \"NFT-Contracts/contracts/market_pri/NewMarket.sol\":4409:4413  this */\n      address\n        /* \"NFT-Contracts/contracts/market_pri/NewMarket.sol\":4308:4429  IERC721(_nftContractAddress).isApprovedForAll(\r... */\n      mload(0x40)\n      dup4\n      0xffffffff\n      and\n      0xe0\n      shl\n      dup2\n      mstore\n      0x04\n      add\n      tag_289\n      swap3\n      swap2\n      swap1\n      tag_203\n      jump\t// in\n    tag_289:\n      0x20\n      mload(0x40)\n      dup1\n      dup4\n      sub\n      dup2\n      dup7\n      dup1\n      extcodesize\n      iszero\n      dup1\n      iszero\n      tag_290\n      jumpi\n      0x00\n      dup1\n      revert\n    tag_290:\n      pop\n      gas\n      staticcall\n      iszero\n      dup1\n      iszero\n      tag_292\n      jumpi\n      returndatasize\n      0x00\n      dup1\n      returndatacopy\n      revert(0x00, returndatasize)\n    tag_292:\n      pop\n      pop\n      pop\n      pop\n      mload(0x40)\n      returndatasize\n      not(0x1f)\n      0x1f\n      dup3\n      add\n      and\n      dup3\n      add\n      dup1\n      0x40\n      mstore\n      pop\n      dup2\n      add\n      swap1\n      tag_293\n      swap2\n      swap1\n      tag_208\n      jump\t// in\n    tag_293:\n        /* \"NFT-Contracts/contracts/market_pri/NewMarket.sol\":4286:4485  require(\r... */\n      tag_294\n      jumpi\n      mload(0x40)\n      0x08c379a000000000000000000000000000000000000000000000000000000000\n      dup2\n      mstore\n      0x04\n      add\n      tag_295\n      swap1\n      tag_211\n      jump\t// in\n    tag_295:\n      mload(0x40)\n      dup1\n      swap2\n      sub\n      swap1\n      revert\n    tag_294:\n        /* \"NFT-Contracts/contracts/market_pri/NewMarket.sol\":11872:11881  _minPrice */\n      dup7\n        /* \"NFT-Contracts/contracts/market_pri/NewMarket.sol\":7848:7849  0 */\n      0x00\n        /* \"NFT-Contracts/contracts/market_pri/NewMarket.sol\":7839:7845  _price */\n      dup2\n        /* \"NFT-Contracts/contracts/market_pri/NewMarket.sol\":7839:7849  _price > 0 */\n      gt\n        /* \"NFT-Contracts/contracts/market_pri/NewMarket.sol\":7831:7871  require(_price > 0, \"Price cannot be 0\") */\n      tag_297\n      jumpi\n      mload(0x40)\n      0x08c379a000000000000000000000000000000000000000000000000000000000\n      dup2\n      mstore\n      0x04\n      add\n      tag_298\n      swap1\n      tag_113\n      jump\t// in\n    tag_298:\n      mload(0x40)\n      dup1\n      swap2\n      sub\n      swap1\n      revert\n    tag_297:\n        /* \"NFT-Contracts/contracts/market_pri/NewMarket.sol\":11899:12090  _storedNftAuctionDetails(\r... */\n      tag_300\n        /* \"NFT-Contracts/contracts/market_pri/NewMarket.sol\":11938:11957  _nftContractAddress */\n      dup14\n        /* \"NFT-Contracts/contracts/market_pri/NewMarket.sol\":11972:11978  _erc20 */\n      dup14\n        /* \"NFT-Contracts/contracts/market_pri/NewMarket.sol\":11993:12001  _tokenId */\n      dup14\n        /* \"NFT-Contracts/contracts/market_pri/NewMarket.sol\":12016:12029  _auctionStart */\n      dup14\n        /* \"NFT-Contracts/contracts/market_pri/NewMarket.sol\":12044:12055  _auctionEnd */\n      dup14\n        /* \"NFT-Contracts/contracts/market_pri/NewMarket.sol\":12070:12079  _minPrice */\n      dup14\n        /* \"NFT-Contracts/contracts/market_pri/NewMarket.sol\":11899:11923  _storedNftAuctionDetails */\n      tag_301\n        /* \"NFT-Contracts/contracts/market_pri/NewMarket.sol\":11899:12090  _storedNftAuctionDetails(\r... */\n      jump\t// in\n    tag_300:\n        /* \"NFT-Contracts/contracts/market_pri/NewMarket.sol\":12108:12314  NftAuctionSale(\r... */\n      0xecbc6a097da08dbf6f781ce204aad454ce3dc8f112c51c7a56f1671de89cee8c\n        /* \"NFT-Contracts/contracts/market_pri/NewMarket.sol\":12137:12156  _nftContractAddress */\n      dup14\n        /* \"NFT-Contracts/contracts/market_pri/NewMarket.sol\":12171:12181  msg.sender */\n      caller\n        /* \"NFT-Contracts/contracts/market_pri/NewMarket.sol\":12196:12202  _erc20 */\n      dup15\n        /* \"NFT-Contracts/contracts/market_pri/NewMarket.sol\":12217:12225  _tokenId */\n      dup15\n        /* \"NFT-Contracts/contracts/market_pri/NewMarket.sol\":12240:12253  _auctionStart */\n      dup15\n        /* \"NFT-Contracts/contracts/market_pri/NewMarket.sol\":12268:12279  _auctionEnd */\n      dup15\n        /* \"NFT-Contracts/contracts/market_pri/NewMarket.sol\":12294:12303  _minPrice */\n      dup15\n        /* \"NFT-Contracts/contracts/market_pri/NewMarket.sol\":12108:12314  NftAuctionSale(\r... */\n      mload(0x40)\n      tag_302\n      swap8\n      swap7\n      swap6\n      swap5\n      swap4\n      swap3\n      swap2\n      swap1\n      tag_303\n      jump\t// in\n    tag_302:\n      mload(0x40)\n      dup1\n      swap2\n      sub\n      swap1\n      log1\n        /* \"NFT-Contracts/contracts/market_pri/NewMarket.sol\":4496:4497  _ */\n      pop\n        /* \"NFT-Contracts/contracts/market_pri/NewMarket.sol\":3194:3195  _ */\n      pop\n      pop\n        /* \"NFT-Contracts/contracts/market_pri/NewMarket.sol\":3907:3908  _ */\n      pop\n      pop\n        /* \"NFT-Contracts/contracts/market_pri/NewMarket.sol\":11431:12322  function createNftAuctionSale(\r... */\n      pop\n      pop\n      pop\n      pop\n      pop\n      pop\n      pop\n      pop\n      jump\t// out\n        /* \"NFT-Contracts/contracts/market_pri/NewMarket.sol\":9067:9653  function cancelFixedsale(address _nftContractAddress, uint256 _tokenId)\r... */\n    tag_100:\n        /* \"NFT-Contracts/contracts/market_pri/NewMarket.sol\":9183:9202  _nftContractAddress */\n      dup2\n        /* \"NFT-Contracts/contracts/market_pri/NewMarket.sol\":9204:9212  _tokenId */\n      dup2\n        /* \"NFT-Contracts/contracts/market_pri/NewMarket.sol\":3365:3366  1 */\n      0x01\n        /* \"NFT-Contracts/contracts/market_pri/NewMarket.sol\":3317:3330  nftSaleStatus */\n      0x02\n        /* \"NFT-Contracts/contracts/market_pri/NewMarket.sol\":3317:3351  nftSaleStatus[_nftContractAddress] */\n      0x00\n        /* \"NFT-Contracts/contracts/market_pri/NewMarket.sol\":3331:3350  _nftContractAddress */\n      dup5\n        /* \"NFT-Contracts/contracts/market_pri/NewMarket.sol\":3317:3351  nftSaleStatus[_nftContractAddress] */\n      0xffffffffffffffffffffffffffffffffffffffff\n      and\n      0xffffffffffffffffffffffffffffffffffffffff\n      and\n      dup2\n      mstore\n      0x20\n      add\n      swap1\n      dup2\n      mstore\n      0x20\n      add\n      0x00\n      keccak256\n        /* \"NFT-Contracts/contracts/market_pri/NewMarket.sol\":3317:3361  nftSaleStatus[_nftContractAddress][_tokenId] */\n      0x00\n        /* \"NFT-Contracts/contracts/market_pri/NewMarket.sol\":3352:3360  _tokenId */\n      dup4\n        /* \"NFT-Contracts/contracts/market_pri/NewMarket.sol\":3317:3361  nftSaleStatus[_nftContractAddress][_tokenId] */\n      dup2\n      mstore\n      0x20\n      add\n      swap1\n      dup2\n      mstore\n      0x20\n      add\n      0x00\n      keccak256\n      sload\n        /* \"NFT-Contracts/contracts/market_pri/NewMarket.sol\":3317:3366  nftSaleStatus[_nftContractAddress][_tokenId] == 1 */\n      eq\n        /* \"NFT-Contracts/contracts/market_pri/NewMarket.sol\":3295:3415  require(\r... */\n      tag_305\n      jumpi\n      mload(0x40)\n      0x08c379a000000000000000000000000000000000000000000000000000000000\n      dup2\n      mstore\n      0x04\n      add\n      tag_306\n      swap1\n      tag_153\n      jump\t// in\n    tag_306:\n      mload(0x40)\n      dup1\n      swap2\n      sub\n      swap1\n      revert\n    tag_305:\n        /* \"NFT-Contracts/contracts/market_pri/NewMarket.sol\":9242:9261  _nftContractAddress */\n      dup4\n        /* \"NFT-Contracts/contracts/market_pri/NewMarket.sol\":9263:9271  _tokenId */\n      dup4\n        /* \"NFT-Contracts/contracts/market_pri/NewMarket.sol\":4063:4083  nftContractFixedSale */\n      0x00\n        /* \"NFT-Contracts/contracts/market_pri/NewMarket.sol\":4063:4104  nftContractFixedSale[_nftContractAddress] */\n      dup1\n        /* \"NFT-Contracts/contracts/market_pri/NewMarket.sol\":4084:4103  _nftContractAddress */\n      dup4\n        /* \"NFT-Contracts/contracts/market_pri/NewMarket.sol\":4063:4104  nftContractFixedSale[_nftContractAddress] */\n      0xffffffffffffffffffffffffffffffffffffffff\n      and\n      0xffffffffffffffffffffffffffffffffffffffff\n      and\n      dup2\n      mstore\n      0x20\n      add\n      swap1\n      dup2\n      mstore\n      0x20\n      add\n      0x00\n      keccak256\n        /* \"NFT-Contracts/contracts/market_pri/NewMarket.sol\":4063:4114  nftContractFixedSale[_nftContractAddress][_tokenId] */\n      0x00\n        /* \"NFT-Contracts/contracts/market_pri/NewMarket.sol\":4105:4113  _tokenId */\n      dup3\n        /* \"NFT-Contracts/contracts/market_pri/NewMarket.sol\":4063:4114  nftContractFixedSale[_nftContractAddress][_tokenId] */\n      dup2\n      mstore\n      0x20\n      add\n      swap1\n      dup2\n      mstore\n      0x20\n      add\n      0x00\n      keccak256\n        /* \"NFT-Contracts/contracts/market_pri/NewMarket.sol\":4063:4124  nftContractFixedSale[_nftContractAddress][_tokenId].nftSeller */\n      0x00\n      add\n      0x00\n      swap1\n      sload\n      swap1\n      0x0100\n      exp\n      swap1\n      div\n      0xffffffffffffffffffffffffffffffffffffffff\n      and\n        /* \"NFT-Contracts/contracts/market_pri/NewMarket.sol\":4032:4124  msg.sender ==\r... */\n      0xffffffffffffffffffffffffffffffffffffffff\n      and\n        /* \"NFT-Contracts/contracts/market_pri/NewMarket.sol\":4032:4042  msg.sender */\n      caller\n        /* \"NFT-Contracts/contracts/market_pri/NewMarket.sol\":4032:4124  msg.sender ==\r... */\n      0xffffffffffffffffffffffffffffffffffffffff\n      and\n      eq\n        /* \"NFT-Contracts/contracts/market_pri/NewMarket.sol\":4010:4173  require(\r... */\n      tag_308\n      jumpi\n      mload(0x40)\n      0x08c379a000000000000000000000000000000000000000000000000000000000\n      dup2\n      mstore\n      0x04\n      add\n      tag_309\n      swap1\n      tag_157\n      jump\t// in\n    tag_309:\n      mload(0x40)\n      dup1\n      swap2\n      sub\n      swap1\n      revert\n    tag_308:\n        /* \"NFT-Contracts/contracts/market_pri/NewMarket.sol\":9297:9316  _nftContractAddress */\n      dup6\n        /* \"NFT-Contracts/contracts/market_pri/NewMarket.sol\":9289:9334  IERC721(_nftContractAddress).safeTransferFrom */\n      0xffffffffffffffffffffffffffffffffffffffff\n      and\n      0x42842e0e\n        /* \"NFT-Contracts/contracts/market_pri/NewMarket.sol\":9357:9361  this */\n      address\n        /* \"NFT-Contracts/contracts/market_pri/NewMarket.sol\":9377:9387  msg.sender */\n      caller\n        /* \"NFT-Contracts/contracts/market_pri/NewMarket.sol\":9402:9410  _tokenId */\n      dup9\n        /* \"NFT-Contracts/contracts/market_pri/NewMarket.sol\":9289:9421  IERC721(_nftContractAddress).safeTransferFrom(\r... */\n      mload(0x40)\n      dup5\n      0xffffffff\n      and\n      0xe0\n      shl\n      dup2\n      mstore\n      0x04\n      add\n      tag_311\n      swap4\n      swap3\n      swap2\n      swap1\n      tag_218\n      jump\t// in\n    tag_311:\n      0x00\n      mload(0x40)\n      dup1\n      dup4\n      sub\n      dup2\n      0x00\n      dup8\n      dup1\n      extcodesize\n      iszero\n      dup1\n      iszero\n      tag_312\n      jumpi\n      0x00\n      dup1\n      revert\n    tag_312:\n      pop\n      gas\n      call\n      iszero\n      dup1\n      iszero\n      tag_314\n      jumpi\n      returndatasize\n      0x00\n      dup1\n      returndatacopy\n      revert(0x00, returndatasize)\n    tag_314:\n      pop\n      pop\n      pop\n      pop\n        /* \"NFT-Contracts/contracts/market_pri/NewMarket.sol\":9481:9482  0 */\n      0x00\n        /* \"NFT-Contracts/contracts/market_pri/NewMarket.sol\":9434:9447  nftSaleStatus */\n      0x02\n        /* \"NFT-Contracts/contracts/market_pri/NewMarket.sol\":9434:9468  nftSaleStatus[_nftContractAddress] */\n      0x00\n        /* \"NFT-Contracts/contracts/market_pri/NewMarket.sol\":9448:9467  _nftContractAddress */\n      dup9\n        /* \"NFT-Contracts/contracts/market_pri/NewMarket.sol\":9434:9468  nftSaleStatus[_nftContractAddress] */\n      0xffffffffffffffffffffffffffffffffffffffff\n      and\n      0xffffffffffffffffffffffffffffffffffffffff\n      and\n      dup2\n      mstore\n      0x20\n      add\n      swap1\n      dup2\n      mstore\n      0x20\n      add\n      0x00\n      keccak256\n        /* \"NFT-Contracts/contracts/market_pri/NewMarket.sol\":9434:9478  nftSaleStatus[_nftContractAddress][_tokenId] */\n      0x00\n        /* \"NFT-Contracts/contracts/market_pri/NewMarket.sol\":9469:9477  _tokenId */\n      dup8\n        /* \"NFT-Contracts/contracts/market_pri/NewMarket.sol\":9434:9478  nftSaleStatus[_nftContractAddress][_tokenId] */\n      dup2\n      mstore\n      0x20\n      add\n      swap1\n      dup2\n      mstore\n      0x20\n      add\n      0x00\n      keccak256\n        /* \"NFT-Contracts/contracts/market_pri/NewMarket.sol\":9434:9482  nftSaleStatus[_nftContractAddress][_tokenId] = 0 */\n      dup2\n      swap1\n      sstore\n      pop\n        /* \"NFT-Contracts/contracts/market_pri/NewMarket.sol\":9502:9514  fixedSaleNFT */\n      0x05\n        /* \"NFT-Contracts/contracts/market_pri/NewMarket.sol\":9516:9533  indexFixedSaleNFT */\n      0x04\n        /* \"NFT-Contracts/contracts/market_pri/NewMarket.sol\":9516:9554  indexFixedSaleNFT[_nftContractAddress] */\n      0x00\n        /* \"NFT-Contracts/contracts/market_pri/NewMarket.sol\":9534:9553  _nftContractAddress */\n      dup9\n        /* \"NFT-Contracts/contracts/market_pri/NewMarket.sol\":9516:9554  indexFixedSaleNFT[_nftContractAddress] */\n      0xffffffffffffffffffffffffffffffffffffffff\n      and\n      0xffffffffffffffffffffffffffffffffffffffff\n      and\n      dup2\n      mstore\n      0x20\n      add\n      swap1\n      dup2\n      mstore\n      0x20\n      add\n      0x00\n      keccak256\n        /* \"NFT-Contracts/contracts/market_pri/NewMarket.sol\":9516:9564  indexFixedSaleNFT[_nftContractAddress][_tokenId] */\n      0x00\n        /* \"NFT-Contracts/contracts/market_pri/NewMarket.sol\":9555:9563  _tokenId */\n      dup8\n        /* \"NFT-Contracts/contracts/market_pri/NewMarket.sol\":9516:9564  indexFixedSaleNFT[_nftContractAddress][_tokenId] */\n      dup2\n      mstore\n      0x20\n      add\n      swap1\n      dup2\n      mstore\n      0x20\n      add\n      0x00\n      keccak256\n      sload\n        /* \"NFT-Contracts/contracts/market_pri/NewMarket.sol\":9502:9566  fixedSaleNFT[(indexFixedSaleNFT[_nftContractAddress][_tokenId])] */\n      dup2\n      sload\n      dup2\n      lt\n      tag_315\n      jumpi\n      tag_316\n      tag_271\n      jump\t// in\n    tag_316:\n    tag_315:\n      swap1\n      0x00\n      mstore\n      keccak256(0x00, 0x20)\n      swap1\n      0x02\n      mul\n      add\n      0x00\n        /* \"NFT-Contracts/contracts/market_pri/NewMarket.sol\":9495:9566  delete fixedSaleNFT[(indexFixedSaleNFT[_nftContractAddress][_tokenId])] */\n      dup1\n      dup3\n      add\n      exp(0x0100, 0x00)\n      dup2\n      sload\n      swap1\n      0xffffffffffffffffffffffffffffffffffffffff\n      mul\n      not\n      and\n      swap1\n      sstore\n      0x01\n      dup3\n      add\n      0x00\n      swap1\n      sstore\n      pop\n      pop\n        /* \"NFT-Contracts/contracts/market_pri/NewMarket.sol\":9584:9645  CancelNftFixedSale(_nftContractAddress, msg.sender, _tokenId) */\n      0xd7348ff00cf381a884144b50b3441398a48a7974ec349287df80e18cec9f5a31\n        /* \"NFT-Contracts/contracts/market_pri/NewMarket.sol\":9603:9622  _nftContractAddress */\n      dup7\n        /* \"NFT-Contracts/contracts/market_pri/NewMarket.sol\":9624:9634  msg.sender */\n      caller\n        /* \"NFT-Contracts/contracts/market_pri/NewMarket.sol\":9636:9644  _tokenId */\n      dup8\n        /* \"NFT-Contracts/contracts/market_pri/NewMarket.sol\":9584:9645  CancelNftFixedSale(_nftContractAddress, msg.sender, _tokenId) */\n      mload(0x40)\n      tag_318\n      swap4\n      swap3\n      swap2\n      swap1\n      tag_218\n      jump\t// in\n    tag_318:\n      mload(0x40)\n      dup1\n      swap2\n      sub\n      swap1\n      log1\n        /* \"NFT-Contracts/contracts/market_pri/NewMarket.sol\":3426:3427  _ */\n      pop\n      pop\n        /* \"NFT-Contracts/contracts/market_pri/NewMarket.sol\":9067:9653  function cancelFixedsale(address _nftContractAddress, uint256 _tokenId)\r... */\n      pop\n      pop\n      pop\n      pop\n      jump\t// out\n        /* \"NFT-Contracts/contracts/market_pri/NewMarket.sol\":20361:20589  function _bidAmountTransfer(uint256 _buyAmount, address _erc20) internal {\r... */\n    tag_125:\n        /* \"NFT-Contracts/contracts/market_pri/NewMarket.sol\":20474:20480  _erc20 */\n      dup1\n        /* \"NFT-Contracts/contracts/market_pri/NewMarket.sol\":20467:20494  IERC20(_erc20).transferFrom */\n      0xffffffffffffffffffffffffffffffffffffffff\n      and\n      0x23b872dd\n        /* \"NFT-Contracts/contracts/market_pri/NewMarket.sol\":20495:20505  msg.sender */\n      caller\n        /* \"NFT-Contracts/contracts/market_pri/NewMarket.sol\":20515:20519  this */\n      address\n        /* \"NFT-Contracts/contracts/market_pri/NewMarket.sol\":20522:20532  _buyAmount */\n      dup6\n        /* \"NFT-Contracts/contracts/market_pri/NewMarket.sol\":20467:20533  IERC20(_erc20).transferFrom(msg.sender, address(this), _buyAmount) */\n      mload(0x40)\n      dup5\n      0xffffffff\n      and\n      0xe0\n      shl\n      dup2\n      mstore\n      0x04\n      add\n      tag_320\n      swap4\n      swap3\n      swap2\n      swap1\n      tag_218\n      jump\t// in\n    tag_320:\n      0x20\n      mload(0x40)\n      dup1\n      dup4\n      sub\n      dup2\n      0x00\n      dup8\n      dup1\n      extcodesize\n      iszero\n      dup1\n      iszero\n      tag_321\n      jumpi\n      0x00\n      dup1\n      revert\n    tag_321:\n      pop\n      gas\n      call\n      iszero\n      dup1\n      iszero\n      tag_323\n      jumpi\n      returndatasize\n      0x00\n      dup1\n      returndatacopy\n      revert(0x00, returndatasize)\n    tag_323:\n      pop\n      pop\n      pop\n      pop\n      mload(0x40)\n      returndatasize\n      not(0x1f)\n      0x1f\n      dup3\n      add\n      and\n      dup3\n      add\n      dup1\n      0x40\n      mstore\n      pop\n      dup2\n      add\n      swap1\n      tag_324\n      swap2\n      swap1\n      tag_208\n      jump\t// in\n    tag_324:\n        /* \"NFT-Contracts/contracts/market_pri/NewMarket.sol\":20445:20581  require(\r... */\n      tag_325\n      jumpi\n      mload(0x40)\n      0x08c379a000000000000000000000000000000000000000000000000000000000\n      dup2\n      mstore\n      0x04\n      add\n      tag_326\n      swap1\n      tag_327\n      jump\t// in\n    tag_326:\n      mload(0x40)\n      dup1\n      swap2\n      sub\n      swap1\n      revert\n    tag_325:\n        /* \"NFT-Contracts/contracts/market_pri/NewMarket.sol\":20361:20589  function _bidAmountTransfer(uint256 _buyAmount, address _erc20) internal {\r... */\n      pop\n      pop\n      jump\t// out\n        /* \"NFT-Contracts/contracts/market_pri/SafeMath.sol\":2847:2945  function add(uint256 a, uint256 b) internal pure returns (uint256) {\r... */\n    tag_140:\n        /* \"NFT-Contracts/contracts/market_pri/SafeMath.sol\":2905:2912  uint256 */\n      0x00\n        /* \"NFT-Contracts/contracts/market_pri/SafeMath.sol\":2936:2937  b */\n      dup2\n        /* \"NFT-Contracts/contracts/market_pri/SafeMath.sol\":2932:2933  a */\n      dup4\n        /* \"NFT-Contracts/contracts/market_pri/SafeMath.sol\":2932:2937  a + b */\n      tag_329\n      swap2\n      swap1\n      tag_330\n      jump\t// in\n    tag_329:\n        /* \"NFT-Contracts/contracts/market_pri/SafeMath.sol\":2925:2937  return a + b */\n      swap1\n      pop\n        /* \"NFT-Contracts/contracts/market_pri/SafeMath.sol\":2847:2945  function add(uint256 a, uint256 b) internal pure returns (uint256) {\r... */\n      swap3\n      swap2\n      pop\n      pop\n      jump\t// out\n        /* \"NFT-Contracts/contracts/market_pri/NewMarket.sol\":18143:18739  function _transferNftAndPaySeller(\r... */\n    tag_185:\n        /* \"NFT-Contracts/contracts/market_pri/NewMarket.sol\":18333:18352  _nftContractAddress */\n      dup4\n        /* \"NFT-Contracts/contracts/market_pri/NewMarket.sol\":18325:18370  IERC721(_nftContractAddress).safeTransferFrom */\n      0xffffffffffffffffffffffffffffffffffffffff\n      and\n      0x42842e0e\n        /* \"NFT-Contracts/contracts/market_pri/NewMarket.sol\":18393:18397  this */\n      address\n        /* \"NFT-Contracts/contracts/market_pri/NewMarket.sol\":18413:18422  _nftBuyer */\n      dup4\n        /* \"NFT-Contracts/contracts/market_pri/NewMarket.sol\":18437:18445  _tokenId */\n      dup7\n        /* \"NFT-Contracts/contracts/market_pri/NewMarket.sol\":18325:18456  IERC721(_nftContractAddress).safeTransferFrom(\r... */\n      mload(0x40)\n      dup5\n      0xffffffff\n      and\n      0xe0\n      shl\n      dup2\n      mstore\n      0x04\n      add\n      tag_332\n      swap4\n      swap3\n      swap2\n      swap1\n      tag_218\n      jump\t// in\n    tag_332:\n      0x00\n      mload(0x40)\n      dup1\n      dup4\n      sub\n      dup2\n      0x00\n      dup8\n      dup1\n      extcodesize\n      iszero\n      dup1\n      iszero\n      tag_333\n      jumpi\n      0x00\n      dup1\n      revert\n    tag_333:\n      pop\n      gas\n      call\n      iszero\n      dup1\n      iszero\n      tag_335\n      jumpi\n      returndatasize\n      0x00\n      dup1\n      returndatacopy\n      revert(0x00, returndatasize)\n    tag_335:\n      pop\n      pop\n      pop\n      pop\n        /* \"NFT-Contracts/contracts/market_pri/NewMarket.sol\":18516:18517  0 */\n      0x00\n        /* \"NFT-Contracts/contracts/market_pri/NewMarket.sol\":18469:18482  nftSaleStatus */\n      0x02\n        /* \"NFT-Contracts/contracts/market_pri/NewMarket.sol\":18469:18503  nftSaleStatus[_nftContractAddress] */\n      0x00\n        /* \"NFT-Contracts/contracts/market_pri/NewMarket.sol\":18483:18502  _nftContractAddress */\n      dup7\n        /* \"NFT-Contracts/contracts/market_pri/NewMarket.sol\":18469:18503  nftSaleStatus[_nftContractAddress] */\n      0xffffffffffffffffffffffffffffffffffffffff\n      and\n      0xffffffffffffffffffffffffffffffffffffffff\n      and\n      dup2\n      mstore\n      0x20\n      add\n      swap1\n      dup2\n      mstore\n      0x20\n      add\n      0x00\n      keccak256\n        /* \"NFT-Contracts/contracts/market_pri/NewMarket.sol\":18469:18513  nftSaleStatus[_nftContractAddress][_tokenId] */\n      0x00\n        /* \"NFT-Contracts/contracts/market_pri/NewMarket.sol\":18504:18512  _tokenId */\n      dup6\n        /* \"NFT-Contracts/contracts/market_pri/NewMarket.sol\":18469:18513  nftSaleStatus[_nftContractAddress][_tokenId] */\n      dup2\n      mstore\n      0x20\n      add\n      swap1\n      dup2\n      mstore\n      0x20\n      add\n      0x00\n      keccak256\n        /* \"NFT-Contracts/contracts/market_pri/NewMarket.sol\":18469:18517  nftSaleStatus[_nftContractAddress][_tokenId] = 0 */\n      dup2\n      swap1\n      sstore\n      pop\n        /* \"NFT-Contracts/contracts/market_pri/NewMarket.sol\":18530:18731  _isTokenOrCoin(\r... */\n      tag_336\n        /* \"NFT-Contracts/contracts/market_pri/NewMarket.sol\":18559:18581  nftContractAuctionSale */\n      0x01\n        /* \"NFT-Contracts/contracts/market_pri/NewMarket.sol\":18559:18602  nftContractAuctionSale[_nftContractAddress] */\n      0x00\n        /* \"NFT-Contracts/contracts/market_pri/NewMarket.sol\":18582:18601  _nftContractAddress */\n      dup7\n        /* \"NFT-Contracts/contracts/market_pri/NewMarket.sol\":18559:18602  nftContractAuctionSale[_nftContractAddress] */\n      0xffffffffffffffffffffffffffffffffffffffff\n      and\n      0xffffffffffffffffffffffffffffffffffffffff\n      and\n      dup2\n      mstore\n      0x20\n      add\n      swap1\n      dup2\n      mstore\n      0x20\n      add\n      0x00\n      keccak256\n        /* \"NFT-Contracts/contracts/market_pri/NewMarket.sol\":18559:18612  nftContractAuctionSale[_nftContractAddress][_tokenId] */\n      0x00\n        /* \"NFT-Contracts/contracts/market_pri/NewMarket.sol\":18603:18611  _tokenId */\n      dup6\n        /* \"NFT-Contracts/contracts/market_pri/NewMarket.sol\":18559:18612  nftContractAuctionSale[_nftContractAddress][_tokenId] */\n      dup2\n      mstore\n      0x20\n      add\n      swap1\n      dup2\n      mstore\n      0x20\n      add\n      0x00\n      keccak256\n        /* \"NFT-Contracts/contracts/market_pri/NewMarket.sol\":18559:18622  nftContractAuctionSale[_nftContractAddress][_tokenId].nftSeller */\n      0x05\n      add\n      0x00\n      swap1\n      sload\n      swap1\n      0x0100\n      exp\n      swap1\n      div\n      0xffffffffffffffffffffffffffffffffffffffff\n      and\n        /* \"NFT-Contracts/contracts/market_pri/NewMarket.sol\":18637:18659  nftContractAuctionSale */\n      0x01\n        /* \"NFT-Contracts/contracts/market_pri/NewMarket.sol\":18637:18680  nftContractAuctionSale[_nftContractAddress] */\n      0x00\n        /* \"NFT-Contracts/contracts/market_pri/NewMarket.sol\":18660:18679  _nftContractAddress */\n      dup8\n        /* \"NFT-Contracts/contracts/market_pri/NewMarket.sol\":18637:18680  nftContractAuctionSale[_nftContractAddress] */\n      0xffffffffffffffffffffffffffffffffffffffff\n      and\n      0xffffffffffffffffffffffffffffffffffffffff\n      and\n      dup2\n      mstore\n      0x20\n      add\n      swap1\n      dup2\n      mstore\n      0x20\n      add\n      0x00\n      keccak256\n        /* \"NFT-Contracts/contracts/market_pri/NewMarket.sol\":18637:18690  nftContractAuctionSale[_nftContractAddress][_tokenId] */\n      0x00\n        /* \"NFT-Contracts/contracts/market_pri/NewMarket.sol\":18681:18689  _tokenId */\n      dup7\n        /* \"NFT-Contracts/contracts/market_pri/NewMarket.sol\":18637:18690  nftContractAuctionSale[_nftContractAddress][_tokenId] */\n      dup2\n      mstore\n      0x20\n      add\n      swap1\n      dup2\n      mstore\n      0x20\n      add\n      0x00\n      keccak256\n        /* \"NFT-Contracts/contracts/market_pri/NewMarket.sol\":18637:18696  nftContractAuctionSale[_nftContractAddress][_tokenId].erc20 */\n      0x06\n      add\n      0x00\n      swap1\n      sload\n      swap1\n      0x0100\n      exp\n      swap1\n      div\n      0xffffffffffffffffffffffffffffffffffffffff\n      and\n        /* \"NFT-Contracts/contracts/market_pri/NewMarket.sol\":18711:18720  _bidPrice */\n      dup5\n        /* \"NFT-Contracts/contracts/market_pri/NewMarket.sol\":18530:18544  _isTokenOrCoin */\n      tag_274\n        /* \"NFT-Contracts/contracts/market_pri/NewMarket.sol\":18530:18731  _isTokenOrCoin(\r... */\n      jump\t// in\n    tag_336:\n        /* \"NFT-Contracts/contracts/market_pri/NewMarket.sol\":18143:18739  function _transferNftAndPaySeller(\r... */\n      pop\n      pop\n      pop\n      pop\n      jump\t// out\n        /* \"NFT-Contracts/contracts/market_pri/NewMarket.sol\":20029:20353  function _isTokenOrCoin(\r... */\n    tag_274:\n        /* \"NFT-Contracts/contracts/market_pri/NewMarket.sol\":20185:20186  0 */\n      0x00\n        /* \"NFT-Contracts/contracts/market_pri/NewMarket.sol\":20167:20187  _erc20 != address(0) */\n      0xffffffffffffffffffffffffffffffffffffffff\n      and\n        /* \"NFT-Contracts/contracts/market_pri/NewMarket.sol\":20167:20173  _erc20 */\n      dup3\n        /* \"NFT-Contracts/contracts/market_pri/NewMarket.sol\":20167:20187  _erc20 != address(0) */\n      0xffffffffffffffffffffffffffffffffffffffff\n      and\n      eq\n        /* \"NFT-Contracts/contracts/market_pri/NewMarket.sol\":20163:20346  if (_erc20 != address(0)) {\r... */\n      tag_338\n      jumpi\n        /* \"NFT-Contracts/contracts/market_pri/NewMarket.sol\":20204:20256  _tokenAmountTransfer(_nftSeller, _erc20, _buyAmount) */\n      tag_339\n        /* \"NFT-Contracts/contracts/market_pri/NewMarket.sol\":20225:20235  _nftSeller */\n      dup4\n        /* \"NFT-Contracts/contracts/market_pri/NewMarket.sol\":20237:20243  _erc20 */\n      dup4\n        /* \"NFT-Contracts/contracts/market_pri/NewMarket.sol\":20245:20255  _buyAmount */\n      dup4\n        /* \"NFT-Contracts/contracts/market_pri/NewMarket.sol\":20204:20224  _tokenAmountTransfer */\n      tag_340\n        /* \"NFT-Contracts/contracts/market_pri/NewMarket.sol\":20204:20256  _tokenAmountTransfer(_nftSeller, _erc20, _buyAmount) */\n      jump\t// in\n    tag_339:\n        /* \"NFT-Contracts/contracts/market_pri/NewMarket.sol\":20163:20346  if (_erc20 != address(0)) {\r... */\n      jump(tag_341)\n    tag_338:\n        /* \"NFT-Contracts/contracts/market_pri/NewMarket.sol\":20289:20334  _nativeAmountTransfer(_nftSeller, _buyAmount) */\n      tag_342\n        /* \"NFT-Contracts/contracts/market_pri/NewMarket.sol\":20311:20321  _nftSeller */\n      dup4\n        /* \"NFT-Contracts/contracts/market_pri/NewMarket.sol\":20323:20333  _buyAmount */\n      dup3\n        /* \"NFT-Contracts/contracts/market_pri/NewMarket.sol\":20289:20310  _nativeAmountTransfer */\n      tag_343\n        /* \"NFT-Contracts/contracts/market_pri/NewMarket.sol\":20289:20334  _nativeAmountTransfer(_nftSeller, _buyAmount) */\n      jump\t// in\n    tag_342:\n        /* \"NFT-Contracts/contracts/market_pri/NewMarket.sol\":20163:20346  if (_erc20 != address(0)) {\r... */\n    tag_341:\n        /* \"NFT-Contracts/contracts/market_pri/NewMarket.sol\":20029:20353  function _isTokenOrCoin(\r... */\n      pop\n      pop\n      pop\n      jump\t// out\n        /* \"NFT-Contracts/contracts/market_pri/NewMarket.sol\":19319:20021  function _storedNftAuctionDetails(\r... */\n    tag_301:\n        /* \"NFT-Contracts/contracts/market_pri/NewMarket.sol\":19616:19807  Auction(\r... */\n      mload(0x40)\n      dup1\n      0xe0\n      add\n      0x40\n      mstore\n      dup1\n        /* \"NFT-Contracts/contracts/market_pri/NewMarket.sol\":19638:19651  _auctionStart */\n      dup5\n        /* \"NFT-Contracts/contracts/market_pri/NewMarket.sol\":19616:19807  Auction(\r... */\n      dup2\n      mstore\n      0x20\n      add\n        /* \"NFT-Contracts/contracts/market_pri/NewMarket.sol\":19666:19677  _auctionEnd */\n      dup4\n        /* \"NFT-Contracts/contracts/market_pri/NewMarket.sol\":19616:19807  Auction(\r... */\n      dup2\n      mstore\n      0x20\n      add\n        /* \"NFT-Contracts/contracts/market_pri/NewMarket.sol\":19692:19701  _minPrice */\n      dup3\n        /* \"NFT-Contracts/contracts/market_pri/NewMarket.sol\":19616:19807  Auction(\r... */\n      dup2\n      mstore\n      0x20\n      add\n        /* \"NFT-Contracts/contracts/market_pri/NewMarket.sol\":19716:19725  _minPrice */\n      dup3\n        /* \"NFT-Contracts/contracts/market_pri/NewMarket.sol\":19616:19807  Auction(\r... */\n      dup2\n      mstore\n      0x20\n      add\n        /* \"NFT-Contracts/contracts/market_pri/NewMarket.sol\":19748:19749  0 */\n      0x00\n        /* \"NFT-Contracts/contracts/market_pri/NewMarket.sol\":19616:19807  Auction(\r... */\n      0xffffffffffffffffffffffffffffffffffffffff\n      and\n      dup2\n      mstore\n      0x20\n      add\n        /* \"NFT-Contracts/contracts/market_pri/NewMarket.sol\":19765:19775  msg.sender */\n      caller\n        /* \"NFT-Contracts/contracts/market_pri/NewMarket.sol\":19616:19807  Auction(\r... */\n      0xffffffffffffffffffffffffffffffffffffffff\n      and\n      dup2\n      mstore\n      0x20\n      add\n        /* \"NFT-Contracts/contracts/market_pri/NewMarket.sol\":19790:19796  _erc20 */\n      dup7\n        /* \"NFT-Contracts/contracts/market_pri/NewMarket.sol\":19616:19807  Auction(\r... */\n      0xffffffffffffffffffffffffffffffffffffffff\n      and\n      dup2\n      mstore\n      pop\n        /* \"NFT-Contracts/contracts/market_pri/NewMarket.sol\":19560:19582  nftContractAuctionSale */\n      0x01\n        /* \"NFT-Contracts/contracts/market_pri/NewMarket.sol\":19560:19603  nftContractAuctionSale[_nftContractAddress] */\n      0x00\n        /* \"NFT-Contracts/contracts/market_pri/NewMarket.sol\":19583:19602  _nftContractAddress */\n      dup9\n        /* \"NFT-Contracts/contracts/market_pri/NewMarket.sol\":19560:19603  nftContractAuctionSale[_nftContractAddress] */\n      0xffffffffffffffffffffffffffffffffffffffff\n      and\n      0xffffffffffffffffffffffffffffffffffffffff\n      and\n      dup2\n      mstore\n      0x20\n      add\n      swap1\n      dup2\n      mstore\n      0x20\n      add\n      0x00\n      keccak256\n        /* \"NFT-Contracts/contracts/market_pri/NewMarket.sol\":19560:19613  nftContractAuctionSale[_nftContractAddress][_tokenId] */\n      0x00\n        /* \"NFT-Contracts/contracts/market_pri/NewMarket.sol\":19604:19612  _tokenId */\n      dup7\n        /* \"NFT-Contracts/contracts/market_pri/NewMarket.sol\":19560:19613  nftContractAuctionSale[_nftContractAddress][_tokenId] */\n      dup2\n      mstore\n      0x20\n      add\n      swap1\n      dup2\n      mstore\n      0x20\n      add\n      0x00\n      keccak256\n        /* \"NFT-Contracts/contracts/market_pri/NewMarket.sol\":19560:19807  nftContractAuctionSale[_nftContractAddress][_tokenId] = Auction(\r... */\n      0x00\n      dup3\n      add\n      mload\n      dup2\n      0x00\n      add\n      sstore\n      0x20\n      dup3\n      add\n      mload\n      dup2\n      0x01\n      add\n      sstore\n      0x40\n      dup3\n      add\n      mload\n      dup2\n      0x02\n      add\n      sstore\n      0x60\n      dup3\n      add\n      mload\n      dup2\n      0x03\n      add\n      sstore\n      0x80\n      dup3\n      add\n      mload\n      dup2\n      0x04\n      add\n      exp(0x0100, 0x00)\n      dup2\n      sload\n      dup2\n      0xffffffffffffffffffffffffffffffffffffffff\n      mul\n      not\n      and\n      swap1\n      dup4\n      0xffffffffffffffffffffffffffffffffffffffff\n      and\n      mul\n      or\n      swap1\n      sstore\n      pop\n      0xa0\n      dup3\n      add\n      mload\n      dup2\n      0x05\n      add\n      exp(0x0100, 0x00)\n      dup2\n      sload\n      dup2\n      0xffffffffffffffffffffffffffffffffffffffff\n      mul\n      not\n      and\n      swap1\n      dup4\n      0xffffffffffffffffffffffffffffffffffffffff\n      and\n      mul\n      or\n      swap1\n      sstore\n      pop\n      0xc0\n      dup3\n      add\n      mload\n      dup2\n      0x06\n      add\n      exp(0x0100, 0x00)\n      dup2\n      sload\n      dup2\n      0xffffffffffffffffffffffffffffffffffffffff\n      mul\n      not\n      and\n      swap1\n      dup4\n      0xffffffffffffffffffffffffffffffffffffffff\n      and\n      mul\n      or\n      swap1\n      sstore\n      pop\n      swap1\n      pop\n      pop\n        /* \"NFT-Contracts/contracts/market_pri/NewMarket.sol\":19867:19868  2 */\n      0x02\n        /* \"NFT-Contracts/contracts/market_pri/NewMarket.sol\":19820:19833  nftSaleStatus */\n      dup1\n        /* \"NFT-Contracts/contracts/market_pri/NewMarket.sol\":19820:19854  nftSaleStatus[_nftContractAddress] */\n      0x00\n        /* \"NFT-Contracts/contracts/market_pri/NewMarket.sol\":19834:19853  _nftContractAddress */\n      dup9\n        /* \"NFT-Contracts/contracts/market_pri/NewMarket.sol\":19820:19854  nftSaleStatus[_nftContractAddress] */\n      0xffffffffffffffffffffffffffffffffffffffff\n      and\n      0xffffffffffffffffffffffffffffffffffffffff\n      and\n      dup2\n      mstore\n      0x20\n      add\n      swap1\n      dup2\n      mstore\n      0x20\n      add\n      0x00\n      keccak256\n        /* \"NFT-Contracts/contracts/market_pri/NewMarket.sol\":19820:19864  nftSaleStatus[_nftContractAddress][_tokenId] */\n      0x00\n        /* \"NFT-Contracts/contracts/market_pri/NewMarket.sol\":19855:19863  _tokenId */\n      dup7\n        /* \"NFT-Contracts/contracts/market_pri/NewMarket.sol\":19820:19864  nftSaleStatus[_nftContractAddress][_tokenId] */\n      dup2\n      mstore\n      0x20\n      add\n      swap1\n      dup2\n      mstore\n      0x20\n      add\n      0x00\n      keccak256\n        /* \"NFT-Contracts/contracts/market_pri/NewMarket.sol\":19820:19868  nftSaleStatus[_nftContractAddress][_tokenId] = 2 */\n      dup2\n      swap1\n      sstore\n      pop\n        /* \"NFT-Contracts/contracts/market_pri/NewMarket.sol\":19889:19908  _nftContractAddress */\n      dup6\n        /* \"NFT-Contracts/contracts/market_pri/NewMarket.sol\":19881:19926  IERC721(_nftContractAddress).safeTransferFrom */\n      0xffffffffffffffffffffffffffffffffffffffff\n      and\n      0x42842e0e\n        /* \"NFT-Contracts/contracts/market_pri/NewMarket.sol\":19941:19951  msg.sender */\n      caller\n        /* \"NFT-Contracts/contracts/market_pri/NewMarket.sol\":19974:19978  this */\n      address\n        /* \"NFT-Contracts/contracts/market_pri/NewMarket.sol\":19994:20002  _tokenId */\n      dup8\n        /* \"NFT-Contracts/contracts/market_pri/NewMarket.sol\":19881:20013  IERC721(_nftContractAddress).safeTransferFrom(\r... */\n      mload(0x40)\n      dup5\n      0xffffffff\n      and\n      0xe0\n      shl\n      dup2\n      mstore\n      0x04\n      add\n      tag_345\n      swap4\n      swap3\n      swap2\n      swap1\n      tag_218\n      jump\t// in\n    tag_345:\n      0x00\n      mload(0x40)\n      dup1\n      dup4\n      sub\n      dup2\n      0x00\n      dup8\n      dup1\n      extcodesize\n      iszero\n      dup1\n      iszero\n      tag_346\n      jumpi\n      0x00\n      dup1\n      revert\n    tag_346:\n      pop\n      gas\n      call\n      iszero\n      dup1\n      iszero\n      tag_348\n      jumpi\n      returndatasize\n      0x00\n      dup1\n      returndatacopy\n      revert(0x00, returndatasize)\n    tag_348:\n      pop\n      pop\n      pop\n      pop\n        /* \"NFT-Contracts/contracts/market_pri/NewMarket.sol\":19319:20021  function _storedNftAuctionDetails(\r... */\n      pop\n      pop\n      pop\n      pop\n      pop\n      pop\n      jump\t// out\n        /* \"NFT-Contracts/contracts/market_pri/NewMarket.sol\":18747:19089  function _tokenAmountTransfer(\r... */\n    tag_340:\n        /* \"NFT-Contracts/contracts/market_pri/NewMarket.sol\":18916:18922  _erc20 */\n      dup2\n        /* \"NFT-Contracts/contracts/market_pri/NewMarket.sol\":18909:18936  IERC20(_erc20).transferFrom */\n      0xffffffffffffffffffffffffffffffffffffffff\n      and\n      0x23b872dd\n        /* \"NFT-Contracts/contracts/market_pri/NewMarket.sol\":18937:18947  msg.sender */\n      caller\n        /* \"NFT-Contracts/contracts/market_pri/NewMarket.sol\":18957:18961  this */\n      address\n        /* \"NFT-Contracts/contracts/market_pri/NewMarket.sol\":18964:18974  _buyAmount */\n      dup5\n        /* \"NFT-Contracts/contracts/market_pri/NewMarket.sol\":18909:18975  IERC20(_erc20).transferFrom(msg.sender, address(this), _buyAmount) */\n      mload(0x40)\n      dup5\n      0xffffffff\n      and\n      0xe0\n      shl\n      dup2\n      mstore\n      0x04\n      add\n      tag_350\n      swap4\n      swap3\n      swap2\n      swap1\n      tag_218\n      jump\t// in\n    tag_350:\n      0x20\n      mload(0x40)\n      dup1\n      dup4\n      sub\n      dup2\n      0x00\n      dup8\n      dup1\n      extcodesize\n      iszero\n      dup1\n      iszero\n      tag_351\n      jumpi\n      0x00\n      dup1\n      revert\n    tag_351:\n      pop\n      gas\n      call\n      iszero\n      dup1\n      iszero\n      tag_353\n      jumpi\n      returndatasize\n      0x00\n      dup1\n      returndatacopy\n      revert(0x00, returndatasize)\n    tag_353:\n      pop\n      pop\n      pop\n      pop\n      mload(0x40)\n      returndatasize\n      not(0x1f)\n      0x1f\n      dup3\n      add\n      and\n      dup3\n      add\n      dup1\n      0x40\n      mstore\n      pop\n      dup2\n      add\n      swap1\n      tag_354\n      swap2\n      swap1\n      tag_208\n      jump\t// in\n    tag_354:\n        /* \"NFT-Contracts/contracts/market_pri/NewMarket.sol\":18887:19023  require(\r... */\n      tag_355\n      jumpi\n      mload(0x40)\n      0x08c379a000000000000000000000000000000000000000000000000000000000\n      dup2\n      mstore\n      0x04\n      add\n      tag_356\n      swap1\n      tag_327\n      jump\t// in\n    tag_356:\n      mload(0x40)\n      dup1\n      swap2\n      sub\n      swap1\n      revert\n    tag_355:\n        /* \"NFT-Contracts/contracts/market_pri/NewMarket.sol\":19041:19047  _erc20 */\n      dup2\n        /* \"NFT-Contracts/contracts/market_pri/NewMarket.sol\":19034:19057  IERC20(_erc20).transfer */\n      0xffffffffffffffffffffffffffffffffffffffff\n      and\n      0xa9059cbb\n        /* \"NFT-Contracts/contracts/market_pri/NewMarket.sol\":19058:19068  _nftSeller */\n      dup5\n        /* \"NFT-Contracts/contracts/market_pri/NewMarket.sol\":19070:19080  _buyAmount */\n      dup4\n        /* \"NFT-Contracts/contracts/market_pri/NewMarket.sol\":19034:19081  IERC20(_erc20).transfer(_nftSeller, _buyAmount) */\n      mload(0x40)\n      dup4\n      0xffffffff\n      and\n      0xe0\n      shl\n      dup2\n      mstore\n      0x04\n      add\n      tag_357\n      swap3\n      swap2\n      swap1\n      tag_358\n      jump\t// in\n    tag_357:\n      0x20\n      mload(0x40)\n      dup1\n      dup4\n      sub\n      dup2\n      0x00\n      dup8\n      dup1\n      extcodesize\n      iszero\n      dup1\n      iszero\n      tag_359\n      jumpi\n      0x00\n      dup1\n      revert\n    tag_359:\n      pop\n      gas\n      call\n      iszero\n      dup1\n      iszero\n      tag_361\n      jumpi\n      returndatasize\n      0x00\n      dup1\n      returndatacopy\n      revert(0x00, returndatasize)\n    tag_361:\n      pop\n      pop\n      pop\n      pop\n      mload(0x40)\n      returndatasize\n      not(0x1f)\n      0x1f\n      dup3\n      add\n      and\n      dup3\n      add\n      dup1\n      0x40\n      mstore\n      pop\n      dup2\n      add\n      swap1\n      tag_362\n      swap2\n      swap1\n      tag_208\n      jump\t// in\n    tag_362:\n      pop\n        /* \"NFT-Contracts/contracts/market_pri/NewMarket.sol\":18747:19089  function _tokenAmountTransfer(\r... */\n      pop\n      pop\n      pop\n      jump\t// out\n        /* \"NFT-Contracts/contracts/market_pri/NewMarket.sol\":19097:19311  function _nativeAmountTransfer(address _nftSeller, uint256 _buyAmount)\r... */\n    tag_343:\n        /* \"NFT-Contracts/contracts/market_pri/NewMarket.sol\":19203:19215  bool success */\n      0x00\n        /* \"NFT-Contracts/contracts/market_pri/NewMarket.sol\":19221:19231  _nftSeller */\n      dup3\n        /* \"NFT-Contracts/contracts/market_pri/NewMarket.sol\":19221:19236  _nftSeller.call */\n      0xffffffffffffffffffffffffffffffffffffffff\n      and\n        /* \"NFT-Contracts/contracts/market_pri/NewMarket.sol\":19244:19254  _buyAmount */\n      dup3\n        /* \"NFT-Contracts/contracts/market_pri/NewMarket.sol\":19221:19259  _nftSeller.call{value: _buyAmount}(\"\") */\n      mload(0x40)\n      tag_364\n      swap1\n      tag_365\n      jump\t// in\n    tag_364:\n      0x00\n      mload(0x40)\n      dup1\n      dup4\n      sub\n      dup2\n      dup6\n      dup8\n      gas\n      call\n      swap3\n      pop\n      pop\n      pop\n      returndatasize\n      dup1\n      0x00\n      dup2\n      eq\n      tag_368\n      jumpi\n      mload(0x40)\n      swap2\n      pop\n      and(add(returndatasize, 0x3f), not(0x1f))\n      dup3\n      add\n      0x40\n      mstore\n      returndatasize\n      dup3\n      mstore\n      returndatasize\n      0x00\n      0x20\n      dup5\n      add\n      returndatacopy\n      jump(tag_367)\n    tag_368:\n      0x60\n      swap2\n      pop\n    tag_367:\n      pop\n        /* \"NFT-Contracts/contracts/market_pri/NewMarket.sol\":19202:19259  (bool success, ) = _nftSeller.call{value: _buyAmount}(\"\") */\n      pop\n      swap1\n      pop\n        /* \"NFT-Contracts/contracts/market_pri/NewMarket.sol\":19278:19285  success */\n      dup1\n        /* \"NFT-Contracts/contracts/market_pri/NewMarket.sol\":19270:19303  require(success, \"refund failed\") */\n      tag_369\n      jumpi\n      mload(0x40)\n      0x08c379a000000000000000000000000000000000000000000000000000000000\n      dup2\n      mstore\n      0x04\n      add\n      tag_370\n      swap1\n      tag_371\n      jump\t// in\n    tag_370:\n      mload(0x40)\n      dup1\n      swap2\n      sub\n      swap1\n      revert\n    tag_369:\n        /* \"NFT-Contracts/contracts/market_pri/NewMarket.sol\":19191:19311  {\r... */\n      pop\n        /* \"NFT-Contracts/contracts/market_pri/NewMarket.sol\":19097:19311  function _nativeAmountTransfer(address _nftSeller, uint256 _buyAmount)\r... */\n      pop\n      pop\n      jump\t// out\n    tag_225:\n      mload(0x40)\n      dup1\n      0xe0\n      add\n      0x40\n      mstore\n      dup1\n      0x00\n      dup2\n      mstore\n      0x20\n      add\n      0x00\n      dup2\n      mstore\n      0x20\n      add\n      0x00\n      dup2\n      mstore\n      0x20\n      add\n      0x00\n      dup2\n      mstore\n      0x20\n      add\n      and(0xffffffffffffffffffffffffffffffffffffffff, 0x00)\n      dup2\n      mstore\n      0x20\n      add\n      and(0xffffffffffffffffffffffffffffffffffffffff, 0x00)\n      dup2\n      mstore\n      0x20\n      add\n      and(0xffffffffffffffffffffffffffffffffffffffff, 0x00)\n      dup2\n      mstore\n      pop\n      swap1\n      jump\t// out\n    tag_248:\n      mload(0x40)\n      dup1\n      0x80\n      add\n      0x40\n      mstore\n      dup1\n      and(0xffffffffffffffffffffffffffffffffffffffff, 0x00)\n      dup2\n      mstore\n      0x20\n      add\n      and(0xffffffffffffffffffffffffffffffffffffffff, 0x00)\n      dup2\n      mstore\n      0x20\n      add\n      and(0xffffffffffffffffffffffffffffffffffffffff, 0x00)\n      dup2\n      mstore\n      0x20\n      add\n      0x00\n      dup2\n      mstore\n      pop\n      swap1\n      jump\t// out\n        /* \"#utility.yul\":7:146   */\n    tag_373:\n        /* \"#utility.yul\":53:58   */\n      0x00\n        /* \"#utility.yul\":91:97   */\n      dup2\n        /* \"#utility.yul\":78:98   */\n      calldataload\n        /* \"#utility.yul\":69:98   */\n      swap1\n      pop\n        /* \"#utility.yul\":107:140   */\n      tag_375\n        /* \"#utility.yul\":134:139   */\n      dup2\n        /* \"#utility.yul\":107:140   */\n      tag_376\n      jump\t// in\n    tag_375:\n        /* \"#utility.yul\":7:146   */\n      swap3\n      swap2\n      pop\n      pop\n      jump\t// out\n        /* \"#utility.yul\":152:295   */\n    tag_377:\n        /* \"#utility.yul\":209:214   */\n      0x00\n        /* \"#utility.yul\":240:246   */\n      dup2\n        /* \"#utility.yul\":234:247   */\n      mload\n        /* \"#utility.yul\":225:247   */\n      swap1\n      pop\n        /* \"#utility.yul\":256:289   */\n      tag_379\n        /* \"#utility.yul\":283:288   */\n      dup2\n        /* \"#utility.yul\":256:289   */\n      tag_376\n      jump\t// in\n    tag_379:\n        /* \"#utility.yul\":152:295   */\n      swap3\n      swap2\n      pop\n      pop\n      jump\t// out\n        /* \"#utility.yul\":301:438   */\n    tag_380:\n        /* \"#utility.yul\":355:360   */\n      0x00\n        /* \"#utility.yul\":386:392   */\n      dup2\n        /* \"#utility.yul\":380:393   */\n      mload\n        /* \"#utility.yul\":371:393   */\n      swap1\n      pop\n        /* \"#utility.yul\":402:432   */\n      tag_382\n        /* \"#utility.yul\":426:431   */\n      dup2\n        /* \"#utility.yul\":402:432   */\n      tag_383\n      jump\t// in\n    tag_382:\n        /* \"#utility.yul\":301:438   */\n      swap3\n      swap2\n      pop\n      pop\n      jump\t// out\n        /* \"#utility.yul\":457:1009   */\n    tag_384:\n        /* \"#utility.yul\":514:522   */\n      0x00\n        /* \"#utility.yul\":524:530   */\n      dup1\n        /* \"#utility.yul\":574:577   */\n      dup4\n        /* \"#utility.yul\":567:571   */\n      0x1f\n        /* \"#utility.yul\":559:565   */\n      dup5\n        /* \"#utility.yul\":555:572   */\n      add\n        /* \"#utility.yul\":551:578   */\n      slt\n        /* \"#utility.yul\":541:663   */\n      tag_386\n      jumpi\n        /* \"#utility.yul\":582:661   */\n      tag_387\n      tag_388\n      jump\t// in\n    tag_387:\n        /* \"#utility.yul\":541:663   */\n    tag_386:\n        /* \"#utility.yul\":695:701   */\n      dup3\n        /* \"#utility.yul\":682:702   */\n      calldataload\n        /* \"#utility.yul\":672:702   */\n      swap1\n      pop\n        /* \"#utility.yul\":725:743   */\n      0xffffffffffffffff\n        /* \"#utility.yul\":717:723   */\n      dup2\n        /* \"#utility.yul\":714:744   */\n      gt\n        /* \"#utility.yul\":711:828   */\n      iszero\n      tag_389\n      jumpi\n        /* \"#utility.yul\":747:826   */\n      tag_390\n      tag_391\n      jump\t// in\n    tag_390:\n        /* \"#utility.yul\":711:828   */\n    tag_389:\n        /* \"#utility.yul\":861:865   */\n      0x20\n        /* \"#utility.yul\":853:859   */\n      dup4\n        /* \"#utility.yul\":849:866   */\n      add\n        /* \"#utility.yul\":837:866   */\n      swap2\n      pop\n        /* \"#utility.yul\":915:918   */\n      dup4\n        /* \"#utility.yul\":907:911   */\n      0x01\n        /* \"#utility.yul\":899:905   */\n      dup3\n        /* \"#utility.yul\":895:912   */\n      mul\n        /* \"#utility.yul\":885:893   */\n      dup4\n        /* \"#utility.yul\":881:913   */\n      add\n        /* \"#utility.yul\":878:919   */\n      gt\n        /* \"#utility.yul\":875:1003   */\n      iszero\n      tag_392\n      jumpi\n        /* \"#utility.yul\":922:1001   */\n      tag_393\n      tag_394\n      jump\t// in\n    tag_393:\n        /* \"#utility.yul\":875:1003   */\n    tag_392:\n        /* \"#utility.yul\":457:1009   */\n      swap3\n      pop\n      swap3\n      swap1\n      pop\n      jump\t// out\n        /* \"#utility.yul\":1015:1154   */\n    tag_395:\n        /* \"#utility.yul\":1061:1066   */\n      0x00\n        /* \"#utility.yul\":1099:1105   */\n      dup2\n        /* \"#utility.yul\":1086:1106   */\n      calldataload\n        /* \"#utility.yul\":1077:1106   */\n      swap1\n      pop\n        /* \"#utility.yul\":1115:1148   */\n      tag_397\n        /* \"#utility.yul\":1142:1147   */\n      dup2\n        /* \"#utility.yul\":1115:1148   */\n      tag_398\n      jump\t// in\n    tag_397:\n        /* \"#utility.yul\":1015:1154   */\n      swap3\n      swap2\n      pop\n      pop\n      jump\t// out\n        /* \"#utility.yul\":1160:1511   */\n    tag_194:\n        /* \"#utility.yul\":1230:1236   */\n      0x00\n        /* \"#utility.yul\":1279:1281   */\n      0x20\n        /* \"#utility.yul\":1267:1276   */\n      dup3\n        /* \"#utility.yul\":1258:1265   */\n      dup5\n        /* \"#utility.yul\":1254:1277   */\n      sub\n        /* \"#utility.yul\":1250:1282   */\n      slt\n        /* \"#utility.yul\":1247:1366   */\n      iszero\n      tag_400\n      jumpi\n        /* \"#utility.yul\":1285:1364   */\n      tag_401\n      tag_402\n      jump\t// in\n    tag_401:\n        /* \"#utility.yul\":1247:1366   */\n    tag_400:\n        /* \"#utility.yul\":1405:1406   */\n      0x00\n        /* \"#utility.yul\":1430:1494   */\n      tag_403\n        /* \"#utility.yul\":1486:1493   */\n      dup5\n        /* \"#utility.yul\":1477:1483   */\n      dup3\n        /* \"#utility.yul\":1466:1475   */\n      dup6\n        /* \"#utility.yul\":1462:1484   */\n      add\n        /* \"#utility.yul\":1430:1494   */\n      tag_377\n      jump\t// in\n    tag_403:\n        /* \"#utility.yul\":1420:1494   */\n      swap2\n      pop\n        /* \"#utility.yul\":1376:1504   */\n      pop\n        /* \"#utility.yul\":1160:1511   */\n      swap3\n      swap2\n      pop\n      pop\n      jump\t// out\n        /* \"#utility.yul\":1517:2480   */\n    tag_27:\n        /* \"#utility.yul\":1614:1620   */\n      0x00\n        /* \"#utility.yul\":1622:1628   */\n      dup1\n        /* \"#utility.yul\":1630:1636   */\n      0x00\n        /* \"#utility.yul\":1638:1644   */\n      dup1\n        /* \"#utility.yul\":1646:1652   */\n      0x00\n        /* \"#utility.yul\":1695:1698   */\n      0x80\n        /* \"#utility.yul\":1683:1692   */\n      dup7\n        /* \"#utility.yul\":1674:1681   */\n      dup9\n        /* \"#utility.yul\":1670:1693   */\n      sub\n        /* \"#utility.yul\":1666:1699   */\n      slt\n        /* \"#utility.yul\":1663:1783   */\n      iszero\n      tag_405\n      jumpi\n        /* \"#utility.yul\":1702:1781   */\n      tag_406\n      tag_402\n      jump\t// in\n    tag_406:\n        /* \"#utility.yul\":1663:1783   */\n    tag_405:\n        /* \"#utility.yul\":1822:1823   */\n      0x00\n        /* \"#utility.yul\":1847:1900   */\n      tag_407\n        /* \"#utility.yul\":1892:1899   */\n      dup9\n        /* \"#utility.yul\":1883:1889   */\n      dup3\n        /* \"#utility.yul\":1872:1881   */\n      dup10\n        /* \"#utility.yul\":1868:1890   */\n      add\n        /* \"#utility.yul\":1847:1900   */\n      tag_373\n      jump\t// in\n    tag_407:\n        /* \"#utility.yul\":1837:1900   */\n      swap6\n      pop\n        /* \"#utility.yul\":1793:1910   */\n      pop\n        /* \"#utility.yul\":1949:1951   */\n      0x20\n        /* \"#utility.yul\":1975:2028   */\n      tag_408\n        /* \"#utility.yul\":2020:2027   */\n      dup9\n        /* \"#utility.yul\":2011:2017   */\n      dup3\n        /* \"#utility.yul\":2000:2009   */\n      dup10\n        /* \"#utility.yul\":1996:2018   */\n      add\n        /* \"#utility.yul\":1975:2028   */\n      tag_373\n      jump\t// in\n    tag_408:\n        /* \"#utility.yul\":1965:2028   */\n      swap5\n      pop\n        /* \"#utility.yul\":1920:2038   */\n      pop\n        /* \"#utility.yul\":2077:2079   */\n      0x40\n        /* \"#utility.yul\":2103:2156   */\n      tag_409\n        /* \"#utility.yul\":2148:2155   */\n      dup9\n        /* \"#utility.yul\":2139:2145   */\n      dup3\n        /* \"#utility.yul\":2128:2137   */\n      dup10\n        /* \"#utility.yul\":2124:2146   */\n      add\n        /* \"#utility.yul\":2103:2156   */\n      tag_395\n      jump\t// in\n    tag_409:\n        /* \"#utility.yul\":2093:2156   */\n      swap4\n      pop\n        /* \"#utility.yul\":2048:2166   */\n      pop\n        /* \"#utility.yul\":2233:2235   */\n      0x60\n        /* \"#utility.yul\":2222:2231   */\n      dup7\n        /* \"#utility.yul\":2218:2236   */\n      add\n        /* \"#utility.yul\":2205:2237   */\n      calldataload\n        /* \"#utility.yul\":2264:2282   */\n      0xffffffffffffffff\n        /* \"#utility.yul\":2256:2262   */\n      dup2\n        /* \"#utility.yul\":2253:2283   */\n      gt\n        /* \"#utility.yul\":2250:2367   */\n      iszero\n      tag_410\n      jumpi\n        /* \"#utility.yul\":2286:2365   */\n      tag_411\n      tag_412\n      jump\t// in\n    tag_411:\n        /* \"#utility.yul\":2250:2367   */\n    tag_410:\n        /* \"#utility.yul\":2399:2463   */\n      tag_413\n        /* \"#utility.yul\":2455:2462   */\n      dup9\n        /* \"#utility.yul\":2446:2452   */\n      dup3\n        /* \"#utility.yul\":2435:2444   */\n      dup10\n        /* \"#utility.yul\":2431:2453   */\n      add\n        /* \"#utility.yul\":2399:2463   */\n      tag_384\n      jump\t// in\n    tag_413:\n        /* \"#utility.yul\":2381:2463   */\n      swap3\n      pop\n      swap3\n      pop\n        /* \"#utility.yul\":2176:2473   */\n      pop\n        /* \"#utility.yul\":1517:2480   */\n      swap3\n      swap6\n      pop\n      swap3\n      swap6\n      swap1\n      swap4\n      pop\n      jump\t// out\n        /* \"#utility.yul\":2486:3251   */\n    tag_60:\n        /* \"#utility.yul\":2572:2578   */\n      0x00\n        /* \"#utility.yul\":2580:2586   */\n      dup1\n        /* \"#utility.yul\":2588:2594   */\n      0x00\n        /* \"#utility.yul\":2596:2602   */\n      dup1\n        /* \"#utility.yul\":2645:2648   */\n      0x80\n        /* \"#utility.yul\":2633:2642   */\n      dup6\n        /* \"#utility.yul\":2624:2631   */\n      dup8\n        /* \"#utility.yul\":2620:2643   */\n      sub\n        /* \"#utility.yul\":2616:2649   */\n      slt\n        /* \"#utility.yul\":2613:2733   */\n      iszero\n      tag_415\n      jumpi\n        /* \"#utility.yul\":2652:2731   */\n      tag_416\n      tag_402\n      jump\t// in\n    tag_416:\n        /* \"#utility.yul\":2613:2733   */\n    tag_415:\n        /* \"#utility.yul\":2772:2773   */\n      0x00\n        /* \"#utility.yul\":2797:2850   */\n      tag_417\n        /* \"#utility.yul\":2842:2849   */\n      dup8\n        /* \"#utility.yul\":2833:2839   */\n      dup3\n        /* \"#utility.yul\":2822:2831   */\n      dup9\n        /* \"#utility.yul\":2818:2840   */\n      add\n        /* \"#utility.yul\":2797:2850   */\n      tag_373\n      jump\t// in\n    tag_417:\n        /* \"#utility.yul\":2787:2850   */\n      swap5\n      pop\n        /* \"#utility.yul\":2743:2860   */\n      pop\n        /* \"#utility.yul\":2899:2901   */\n      0x20\n        /* \"#utility.yul\":2925:2978   */\n      tag_418\n        /* \"#utility.yul\":2970:2977   */\n      dup8\n        /* \"#utility.yul\":2961:2967   */\n      dup3\n        /* \"#utility.yul\":2950:2959   */\n      dup9\n        /* \"#utility.yul\":2946:2968   */\n      add\n        /* \"#utility.yul\":2925:2978   */\n      tag_373\n      jump\t// in\n    tag_418:\n        /* \"#utility.yul\":2915:2978   */\n      swap4\n      pop\n        /* \"#utility.yul\":2870:2988   */\n      pop\n        /* \"#utility.yul\":3027:3029   */\n      0x40\n        /* \"#utility.yul\":3053:3106   */\n      tag_419\n        /* \"#utility.yul\":3098:3105   */\n      dup8\n        /* \"#utility.yul\":3089:3095   */\n      dup3\n        /* \"#utility.yul\":3078:3087   */\n      dup9\n        /* \"#utility.yul\":3074:3096   */\n      add\n        /* \"#utility.yul\":3053:3106   */\n      tag_395\n      jump\t// in\n    tag_419:\n        /* \"#utility.yul\":3043:3106   */\n      swap3\n      pop\n        /* \"#utility.yul\":2998:3116   */\n      pop\n        /* \"#utility.yul\":3155:3157   */\n      0x60\n        /* \"#utility.yul\":3181:3234   */\n      tag_420\n        /* \"#utility.yul\":3226:3233   */\n      dup8\n        /* \"#utility.yul\":3217:3223   */\n      dup3\n        /* \"#utility.yul\":3206:3215   */\n      dup9\n        /* \"#utility.yul\":3202:3224   */\n      add\n        /* \"#utility.yul\":3181:3234   */\n      tag_395\n      jump\t// in\n    tag_420:\n        /* \"#utility.yul\":3171:3234   */\n      swap2\n      pop\n        /* \"#utility.yul\":3126:3244   */\n      pop\n        /* \"#utility.yul\":2486:3251   */\n      swap3\n      swap6\n      swap2\n      swap5\n      pop\n      swap3\n      pop\n      jump\t// out\n        /* \"#utility.yul\":3257:4314   */\n    tag_95:\n        /* \"#utility.yul\":3361:3367   */\n      0x00\n        /* \"#utility.yul\":3369:3375   */\n      dup1\n        /* \"#utility.yul\":3377:3383   */\n      0x00\n        /* \"#utility.yul\":3385:3391   */\n      dup1\n        /* \"#utility.yul\":3393:3399   */\n      0x00\n        /* \"#utility.yul\":3401:3407   */\n      dup1\n        /* \"#utility.yul\":3450:3453   */\n      0xc0\n        /* \"#utility.yul\":3438:3447   */\n      dup8\n        /* \"#utility.yul\":3429:3436   */\n      dup10\n        /* \"#utility.yul\":3425:3448   */\n      sub\n        /* \"#utility.yul\":3421:3454   */\n      slt\n        /* \"#utility.yul\":3418:3538   */\n      iszero\n      tag_422\n      jumpi\n        /* \"#utility.yul\":3457:3536   */\n      tag_423\n      tag_402\n      jump\t// in\n    tag_423:\n        /* \"#utility.yul\":3418:3538   */\n    tag_422:\n        /* \"#utility.yul\":3577:3578   */\n      0x00\n        /* \"#utility.yul\":3602:3655   */\n      tag_424\n        /* \"#utility.yul\":3647:3654   */\n      dup10\n        /* \"#utility.yul\":3638:3644   */\n      dup3\n        /* \"#utility.yul\":3627:3636   */\n      dup11\n        /* \"#utility.yul\":3623:3645   */\n      add\n        /* \"#utility.yul\":3602:3655   */\n      tag_373\n      jump\t// in\n    tag_424:\n        /* \"#utility.yul\":3592:3655   */\n      swap7\n      pop\n        /* \"#utility.yul\":3548:3665   */\n      pop\n        /* \"#utility.yul\":3704:3706   */\n      0x20\n        /* \"#utility.yul\":3730:3783   */\n      tag_425\n        /* \"#utility.yul\":3775:3782   */\n      dup10\n        /* \"#utility.yul\":3766:3772   */\n      dup3\n        /* \"#utility.yul\":3755:3764   */\n      dup11\n        /* \"#utility.yul\":3751:3773   */\n      add\n        /* \"#utility.yul\":3730:3783   */\n      tag_373\n      jump\t// in\n    tag_425:\n        /* \"#utility.yul\":3720:3783   */\n      swap6\n      pop\n        /* \"#utility.yul\":3675:3793   */\n      pop\n        /* \"#utility.yul\":3832:3834   */\n      0x40\n        /* \"#utility.yul\":3858:3911   */\n      tag_426\n        /* \"#utility.yul\":3903:3910   */\n      dup10\n        /* \"#utility.yul\":3894:3900   */\n      dup3\n        /* \"#utility.yul\":3883:3892   */\n      dup11\n        /* \"#utility.yul\":3879:3901   */\n      add\n        /* \"#utility.yul\":3858:3911   */\n      tag_395\n      jump\t// in\n    tag_426:\n        /* \"#utility.yul\":3848:3911   */\n      swap5\n      pop\n        /* \"#utility.yul\":3803:3921   */\n      pop\n        /* \"#utility.yul\":3960:3962   */\n      0x60\n        /* \"#utility.yul\":3986:4039   */\n      tag_427\n        /* \"#utility.yul\":4031:4038   */\n      dup10\n        /* \"#utility.yul\":4022:4028   */\n      dup3\n        /* \"#utility.yul\":4011:4020   */\n      dup11\n        /* \"#utility.yul\":4007:4029   */\n      add\n        /* \"#utility.yul\":3986:4039   */\n      tag_395\n      jump\t// in\n    tag_427:\n        /* \"#utility.yul\":3976:4039   */\n      swap4\n      pop\n        /* \"#utility.yul\":3931:4049   */\n      pop\n        /* \"#utility.yul\":4088:4091   */\n      0x80\n        /* \"#utility.yul\":4115:4168   */\n      tag_428\n        /* \"#utility.yul\":4160:4167   */\n      dup10\n        /* \"#utility.yul\":4151:4157   */\n      dup3\n        /* \"#utility.yul\":4140:4149   */\n      dup11\n        /* \"#utility.yul\":4136:4158   */\n      add\n        /* \"#utility.yul\":4115:4168   */\n      tag_395\n      jump\t// in\n    tag_428:\n        /* \"#utility.yul\":4105:4168   */\n      swap3\n      pop\n        /* \"#utility.yul\":4059:4178   */\n      pop\n        /* \"#utility.yul\":4217:4220   */\n      0xa0\n        /* \"#utility.yul\":4244:4297   */\n      tag_429\n        /* \"#utility.yul\":4289:4296   */\n      dup10\n        /* \"#utility.yul\":4280:4286   */\n      dup3\n        /* \"#utility.yul\":4269:4278   */\n      dup11\n        /* \"#utility.yul\":4265:4287   */\n      add\n        /* \"#utility.yul\":4244:4297   */\n      tag_395\n      jump\t// in\n    tag_429:\n        /* \"#utility.yul\":4234:4297   */\n      swap2\n      pop\n        /* \"#utility.yul\":4188:4307   */\n      pop\n        /* \"#utility.yul\":3257:4314   */\n      swap3\n      swap6\n      pop\n      swap3\n      swap6\n      pop\n      swap3\n      swap6\n      jump\t// out\n        /* \"#utility.yul\":4320:4794   */\n    tag_45:\n        /* \"#utility.yul\":4388:4394   */\n      0x00\n        /* \"#utility.yul\":4396:4402   */\n      dup1\n        /* \"#utility.yul\":4445:4447   */\n      0x40\n        /* \"#utility.yul\":4433:4442   */\n      dup4\n        /* \"#utility.yul\":4424:4431   */\n      dup6\n        /* \"#utility.yul\":4420:4443   */\n      sub\n        /* \"#utility.yul\":4416:4448   */\n      slt\n        /* \"#utility.yul\":4413:4532   */\n      iszero\n      tag_431\n      jumpi\n        /* \"#utility.yul\":4451:4530   */\n      tag_432\n      tag_402\n      jump\t// in\n    tag_432:\n        /* \"#utility.yul\":4413:4532   */\n    tag_431:\n        /* \"#utility.yul\":4571:4572   */\n      0x00\n        /* \"#utility.yul\":4596:4649   */\n      tag_433\n        /* \"#utility.yul\":4641:4648   */\n      dup6\n        /* \"#utility.yul\":4632:4638   */\n      dup3\n        /* \"#utility.yul\":4621:4630   */\n      dup7\n        /* \"#utility.yul\":4617:4639   */\n      add\n        /* \"#utility.yul\":4596:4649   */\n      tag_373\n      jump\t// in\n    tag_433:\n        /* \"#utility.yul\":4586:4649   */\n      swap3\n      pop\n        /* \"#utility.yul\":4542:4659   */\n      pop\n        /* \"#utility.yul\":4698:4700   */\n      0x20\n        /* \"#utility.yul\":4724:4777   */\n      tag_434\n        /* \"#utility.yul\":4769:4776   */\n      dup6\n        /* \"#utility.yul\":4760:4766   */\n      dup3\n        /* \"#utility.yul\":4749:4758   */\n      dup7\n        /* \"#utility.yul\":4745:4767   */\n      add\n        /* \"#utility.yul\":4724:4777   */\n      tag_395\n      jump\t// in\n    tag_434:\n        /* \"#utility.yul\":4714:4777   */\n      swap2\n      pop\n        /* \"#utility.yul\":4669:4787   */\n      pop\n        /* \"#utility.yul\":4320:4794   */\n      swap3\n      pop\n      swap3\n      swap1\n      pop\n      jump\t// out\n        /* \"#utility.yul\":4800:5419   */\n    tag_71:\n        /* \"#utility.yul\":4877:4883   */\n      0x00\n        /* \"#utility.yul\":4885:4891   */\n      dup1\n        /* \"#utility.yul\":4893:4899   */\n      0x00\n        /* \"#utility.yul\":4942:4944   */\n      0x60\n        /* \"#utility.yul\":4930:4939   */\n      dup5\n        /* \"#utility.yul\":4921:4928   */\n      dup7\n        /* \"#utility.yul\":4917:4940   */\n      sub\n        /* \"#utility.yul\":4913:4945   */\n      slt\n        /* \"#utility.yul\":4910:5029   */\n      iszero\n      tag_436\n      jumpi\n        /* \"#utility.yul\":4948:5027   */\n      tag_437\n      tag_402\n      jump\t// in\n    tag_437:\n        /* \"#utility.yul\":4910:5029   */\n    tag_436:\n        /* \"#utility.yul\":5068:5069   */\n      0x00\n        /* \"#utility.yul\":5093:5146   */\n      tag_438\n        /* \"#utility.yul\":5138:5145   */\n      dup7\n        /* \"#utility.yul\":5129:5135   */\n      dup3\n        /* \"#utility.yul\":5118:5127   */\n      dup8\n        /* \"#utility.yul\":5114:5136   */\n      add\n        /* \"#utility.yul\":5093:5146   */\n      tag_373\n      jump\t// in\n    tag_438:\n        /* \"#utility.yul\":5083:5146   */\n      swap4\n      pop\n        /* \"#utility.yul\":5039:5156   */\n      pop\n        /* \"#utility.yul\":5195:5197   */\n      0x20\n        /* \"#utility.yul\":5221:5274   */\n      tag_439\n        /* \"#utility.yul\":5266:5273   */\n      dup7\n        /* \"#utility.yul\":5257:5263   */\n      dup3\n        /* \"#utility.yul\":5246:5255   */\n      dup8\n        /* \"#utility.yul\":5242:5264   */\n      add\n        /* \"#utility.yul\":5221:5274   */\n      tag_395\n      jump\t// in\n    tag_439:\n        /* \"#utility.yul\":5211:5274   */\n      swap3\n      pop\n        /* \"#utility.yul\":5166:5284   */\n      pop\n        /* \"#utility.yul\":5323:5325   */\n      0x40\n        /* \"#utility.yul\":5349:5402   */\n      tag_440\n        /* \"#utility.yul\":5394:5401   */\n      dup7\n        /* \"#utility.yul\":5385:5391   */\n      dup3\n        /* \"#utility.yul\":5374:5383   */\n      dup8\n        /* \"#utility.yul\":5370:5392   */\n      add\n        /* \"#utility.yul\":5349:5402   */\n      tag_373\n      jump\t// in\n    tag_440:\n        /* \"#utility.yul\":5339:5402   */\n      swap2\n      pop\n        /* \"#utility.yul\":5294:5412   */\n      pop\n        /* \"#utility.yul\":4800:5419   */\n      swap3\n      pop\n      swap3\n      pop\n      swap3\n      jump\t// out\n        /* \"#utility.yul\":5425:6044   */\n    tag_33:\n        /* \"#utility.yul\":5502:5508   */\n      0x00\n        /* \"#utility.yul\":5510:5516   */\n      dup1\n        /* \"#utility.yul\":5518:5524   */\n      0x00\n        /* \"#utility.yul\":5567:5569   */\n      0x60\n        /* \"#utility.yul\":5555:5564   */\n      dup5\n        /* \"#utility.yul\":5546:5553   */\n      dup7\n        /* \"#utility.yul\":5542:5565   */\n      sub\n        /* \"#utility.yul\":5538:5570   */\n      slt\n        /* \"#utility.yul\":5535:5654   */\n      iszero\n      tag_442\n      jumpi\n        /* \"#utility.yul\":5573:5652   */\n      tag_443\n      tag_402\n      jump\t// in\n    tag_443:\n        /* \"#utility.yul\":5535:5654   */\n    tag_442:\n        /* \"#utility.yul\":5693:5694   */\n      0x00\n        /* \"#utility.yul\":5718:5771   */\n      tag_444\n        /* \"#utility.yul\":5763:5770   */\n      dup7\n        /* \"#utility.yul\":5754:5760   */\n      dup3\n        /* \"#utility.yul\":5743:5752   */\n      dup8\n        /* \"#utility.yul\":5739:5761   */\n      add\n        /* \"#utility.yul\":5718:5771   */\n      tag_373\n      jump\t// in\n    tag_444:\n        /* \"#utility.yul\":5708:5771   */\n      swap4\n      pop\n        /* \"#utility.yul\":5664:5781   */\n      pop\n        /* \"#utility.yul\":5820:5822   */\n      0x20\n        /* \"#utility.yul\":5846:5899   */\n      tag_445\n        /* \"#utility.yul\":5891:5898   */\n      dup7\n        /* \"#utility.yul\":5882:5888   */\n      dup3\n        /* \"#utility.yul\":5871:5880   */\n      dup8\n        /* \"#utility.yul\":5867:5889   */\n      add\n        /* \"#utility.yul\":5846:5899   */\n      tag_395\n      jump\t// in\n    tag_445:\n        /* \"#utility.yul\":5836:5899   */\n      swap3\n      pop\n        /* \"#utility.yul\":5791:5909   */\n      pop\n        /* \"#utility.yul\":5948:5950   */\n      0x40\n        /* \"#utility.yul\":5974:6027   */\n      tag_446\n        /* \"#utility.yul\":6019:6026   */\n      dup7\n        /* \"#utility.yul\":6010:6016   */\n      dup3\n        /* \"#utility.yul\":5999:6008   */\n      dup8\n        /* \"#utility.yul\":5995:6017   */\n      add\n        /* \"#utility.yul\":5974:6027   */\n      tag_395\n      jump\t// in\n    tag_446:\n        /* \"#utility.yul\":5964:6027   */\n      swap2\n      pop\n        /* \"#utility.yul\":5919:6037   */\n      pop\n        /* \"#utility.yul\":5425:6044   */\n      swap3\n      pop\n      swap3\n      pop\n      swap3\n      jump\t// out\n        /* \"#utility.yul\":6050:6395   */\n    tag_208:\n        /* \"#utility.yul\":6117:6123   */\n      0x00\n        /* \"#utility.yul\":6166:6168   */\n      0x20\n        /* \"#utility.yul\":6154:6163   */\n      dup3\n        /* \"#utility.yul\":6145:6152   */\n      dup5\n        /* \"#utility.yul\":6141:6164   */\n      sub\n        /* \"#utility.yul\":6137:6169   */\n      slt\n        /* \"#utility.yul\":6134:6253   */\n      iszero\n      tag_448\n      jumpi\n        /* \"#utility.yul\":6172:6251   */\n      tag_449\n      tag_402\n      jump\t// in\n    tag_449:\n        /* \"#utility.yul\":6134:6253   */\n    tag_448:\n        /* \"#utility.yul\":6292:6293   */\n      0x00\n        /* \"#utility.yul\":6317:6378   */\n      tag_450\n        /* \"#utility.yul\":6370:6377   */\n      dup5\n        /* \"#utility.yul\":6361:6367   */\n      dup3\n        /* \"#utility.yul\":6350:6359   */\n      dup6\n        /* \"#utility.yul\":6346:6368   */\n      add\n        /* \"#utility.yul\":6317:6378   */\n      tag_380\n      jump\t// in\n    tag_450:\n        /* \"#utility.yul\":6307:6378   */\n      swap2\n      pop\n        /* \"#utility.yul\":6263:6388   */\n      pop\n        /* \"#utility.yul\":6050:6395   */\n      swap3\n      swap2\n      pop\n      pop\n      jump\t// out\n        /* \"#utility.yul\":6401:6680   */\n    tag_451:\n        /* \"#utility.yul\":6520:6530   */\n      0x00\n        /* \"#utility.yul\":6541:6637   */\n      tag_453\n        /* \"#utility.yul\":6633:6636   */\n      dup4\n        /* \"#utility.yul\":6625:6631   */\n      dup4\n        /* \"#utility.yul\":6541:6637   */\n      tag_454\n      jump\t// in\n    tag_453:\n        /* \"#utility.yul\":6669:6673   */\n      0x40\n        /* \"#utility.yul\":6664:6667   */\n      dup4\n        /* \"#utility.yul\":6660:6674   */\n      add\n        /* \"#utility.yul\":6646:6674   */\n      swap1\n      pop\n        /* \"#utility.yul\":6401:6680   */\n      swap3\n      swap2\n      pop\n      pop\n      jump\t// out\n        /* \"#utility.yul\":6686:6794   */\n    tag_455:\n        /* \"#utility.yul\":6763:6787   */\n      tag_457\n        /* \"#utility.yul\":6781:6786   */\n      dup2\n        /* \"#utility.yul\":6763:6787   */\n      tag_458\n      jump\t// in\n    tag_457:\n        /* \"#utility.yul\":6758:6761   */\n      dup3\n        /* \"#utility.yul\":6751:6788   */\n      mstore\n        /* \"#utility.yul\":6686:6794   */\n      pop\n      pop\n      jump\t// out\n        /* \"#utility.yul\":6800:6918   */\n    tag_459:\n        /* \"#utility.yul\":6887:6911   */\n      tag_461\n        /* \"#utility.yul\":6905:6910   */\n      dup2\n        /* \"#utility.yul\":6887:6911   */\n      tag_458\n      jump\t// in\n    tag_461:\n        /* \"#utility.yul\":6882:6885   */\n      dup3\n        /* \"#utility.yul\":6875:6912   */\n      mstore\n        /* \"#utility.yul\":6800:6918   */\n      pop\n      pop\n      jump\t// out\n        /* \"#utility.yul\":7000:7932   */\n    tag_462:\n        /* \"#utility.yul\":7169:7172   */\n      0x00\n        /* \"#utility.yul\":7198:7277   */\n      tag_464\n        /* \"#utility.yul\":7271:7276   */\n      dup3\n        /* \"#utility.yul\":7198:7277   */\n      tag_465\n      jump\t// in\n    tag_464:\n        /* \"#utility.yul\":7293:7404   */\n      tag_466\n        /* \"#utility.yul\":7397:7403   */\n      dup2\n        /* \"#utility.yul\":7392:7395   */\n      dup6\n        /* \"#utility.yul\":7293:7404   */\n      tag_467\n      jump\t// in\n    tag_466:\n        /* \"#utility.yul\":7286:7404   */\n      swap4\n      pop\n        /* \"#utility.yul\":7428:7509   */\n      tag_468\n        /* \"#utility.yul\":7503:7508   */\n      dup4\n        /* \"#utility.yul\":7428:7509   */\n      tag_469\n      jump\t// in\n    tag_468:\n        /* \"#utility.yul\":7532:7539   */\n      dup1\n        /* \"#utility.yul\":7563:7564   */\n      0x00\n        /* \"#utility.yul\":7548:7907   */\n    tag_470:\n        /* \"#utility.yul\":7573:7579   */\n      dup4\n        /* \"#utility.yul\":7570:7571   */\n      dup2\n        /* \"#utility.yul\":7567:7580   */\n      lt\n        /* \"#utility.yul\":7548:7907   */\n      iszero\n      tag_472\n      jumpi\n        /* \"#utility.yul\":7649:7655   */\n      dup2\n        /* \"#utility.yul\":7643:7656   */\n      mload\n        /* \"#utility.yul\":7676:7789   */\n      tag_473\n        /* \"#utility.yul\":7785:7788   */\n      dup9\n        /* \"#utility.yul\":7770:7783   */\n      dup3\n        /* \"#utility.yul\":7676:7789   */\n      tag_451\n      jump\t// in\n    tag_473:\n        /* \"#utility.yul\":7669:7789   */\n      swap8\n      pop\n        /* \"#utility.yul\":7812:7897   */\n      tag_474\n        /* \"#utility.yul\":7890:7896   */\n      dup4\n        /* \"#utility.yul\":7812:7897   */\n      tag_475\n      jump\t// in\n    tag_474:\n        /* \"#utility.yul\":7802:7897   */\n      swap3\n      pop\n        /* \"#utility.yul\":7608:7907   */\n      pop\n        /* \"#utility.yul\":7595:7596   */\n      0x01\n        /* \"#utility.yul\":7592:7593   */\n      dup2\n        /* \"#utility.yul\":7588:7597   */\n      add\n        /* \"#utility.yul\":7583:7597   */\n      swap1\n      pop\n        /* \"#utility.yul\":7548:7907   */\n      jump(tag_470)\n    tag_472:\n        /* \"#utility.yul\":7552:7566   */\n      pop\n        /* \"#utility.yul\":7923:7926   */\n      dup6\n        /* \"#utility.yul\":7916:7926   */\n      swap4\n      pop\n        /* \"#utility.yul\":7174:7932   */\n      pop\n      pop\n      pop\n        /* \"#utility.yul\":7000:7932   */\n      swap3\n      swap2\n      pop\n      pop\n      jump\t// out\n        /* \"#utility.yul\":7938:8053   */\n    tag_476:\n        /* \"#utility.yul\":8023:8046   */\n      tag_478\n        /* \"#utility.yul\":8040:8045   */\n      dup2\n        /* \"#utility.yul\":8023:8046   */\n      tag_479\n      jump\t// in\n    tag_478:\n        /* \"#utility.yul\":8018:8021   */\n      dup3\n        /* \"#utility.yul\":8011:8047   */\n      mstore\n        /* \"#utility.yul\":7938:8053   */\n      pop\n      pop\n      jump\t// out\n        /* \"#utility.yul\":8059:8425   */\n    tag_480:\n        /* \"#utility.yul\":8201:8204   */\n      0x00\n        /* \"#utility.yul\":8222:8289   */\n      tag_482\n        /* \"#utility.yul\":8286:8288   */\n      0x16\n        /* \"#utility.yul\":8281:8284   */\n      dup4\n        /* \"#utility.yul\":8222:8289   */\n      tag_483\n      jump\t// in\n    tag_482:\n        /* \"#utility.yul\":8215:8289   */\n      swap2\n      pop\n        /* \"#utility.yul\":8298:8391   */\n      tag_484\n        /* \"#utility.yul\":8387:8390   */\n      dup3\n        /* \"#utility.yul\":8298:8391   */\n      tag_485\n      jump\t// in\n    tag_484:\n        /* \"#utility.yul\":8416:8418   */\n      0x20\n        /* \"#utility.yul\":8411:8414   */\n      dup3\n        /* \"#utility.yul\":8407:8419   */\n      add\n        /* \"#utility.yul\":8400:8419   */\n      swap1\n      pop\n        /* \"#utility.yul\":8059:8425   */\n      swap2\n      swap1\n      pop\n      jump\t// out\n        /* \"#utility.yul\":8431:8797   */\n    tag_486:\n        /* \"#utility.yul\":8573:8576   */\n      0x00\n        /* \"#utility.yul\":8594:8661   */\n      tag_488\n        /* \"#utility.yul\":8658:8660   */\n      0x1c\n        /* \"#utility.yul\":8653:8656   */\n      dup4\n        /* \"#utility.yul\":8594:8661   */\n      tag_483\n      jump\t// in\n    tag_488:\n        /* \"#utility.yul\":8587:8661   */\n      swap2\n      pop\n        /* \"#utility.yul\":8670:8763   */\n      tag_489\n        /* \"#utility.yul\":8759:8762   */\n      dup3\n        /* \"#utility.yul\":8670:8763   */\n      tag_490\n      jump\t// in\n    tag_489:\n        /* \"#utility.yul\":8788:8790   */\n      0x20\n        /* \"#utility.yul\":8783:8786   */\n      dup3\n        /* \"#utility.yul\":8779:8791   */\n      add\n        /* \"#utility.yul\":8772:8791   */\n      swap1\n      pop\n        /* \"#utility.yul\":8431:8797   */\n      swap2\n      swap1\n      pop\n      jump\t// out\n        /* \"#utility.yul\":8803:9169   */\n    tag_491:\n        /* \"#utility.yul\":8945:8948   */\n      0x00\n        /* \"#utility.yul\":8966:9033   */\n      tag_493\n        /* \"#utility.yul\":9030:9032   */\n      0x11\n        /* \"#utility.yul\":9025:9028   */\n      dup4\n        /* \"#utility.yul\":8966:9033   */\n      tag_483\n      jump\t// in\n    tag_493:\n        /* \"#utility.yul\":8959:9033   */\n      swap2\n      pop\n        /* \"#utility.yul\":9042:9135   */\n      tag_494\n        /* \"#utility.yul\":9131:9134   */\n      dup3\n        /* \"#utility.yul\":9042:9135   */\n      tag_495\n      jump\t// in\n    tag_494:\n        /* \"#utility.yul\":9160:9162   */\n      0x20\n        /* \"#utility.yul\":9155:9158   */\n      dup3\n        /* \"#utility.yul\":9151:9163   */\n      add\n        /* \"#utility.yul\":9144:9163   */\n      swap1\n      pop\n        /* \"#utility.yul\":8803:9169   */\n      swap2\n      swap1\n      pop\n      jump\t// out\n        /* \"#utility.yul\":9175:9541   */\n    tag_496:\n        /* \"#utility.yul\":9317:9320   */\n      0x00\n        /* \"#utility.yul\":9338:9405   */\n      tag_498\n        /* \"#utility.yul\":9402:9404   */\n      0x0d\n        /* \"#utility.yul\":9397:9400   */\n      dup4\n        /* \"#utility.yul\":9338:9405   */\n      tag_483\n      jump\t// in\n    tag_498:\n        /* \"#utility.yul\":9331:9405   */\n      swap2\n      pop\n        /* \"#utility.yul\":9414:9507   */\n      tag_499\n        /* \"#utility.yul\":9503:9506   */\n      dup3\n        /* \"#utility.yul\":9414:9507   */\n      tag_500\n      jump\t// in\n    tag_499:\n        /* \"#utility.yul\":9532:9534   */\n      0x20\n        /* \"#utility.yul\":9527:9530   */\n      dup3\n        /* \"#utility.yul\":9523:9535   */\n      add\n        /* \"#utility.yul\":9516:9535   */\n      swap1\n      pop\n        /* \"#utility.yul\":9175:9541   */\n      swap2\n      swap1\n      pop\n      jump\t// out\n        /* \"#utility.yul\":9547:9913   */\n    tag_501:\n        /* \"#utility.yul\":9689:9692   */\n      0x00\n        /* \"#utility.yul\":9710:9777   */\n      tag_503\n        /* \"#utility.yul\":9774:9776   */\n      0x15\n        /* \"#utility.yul\":9769:9772   */\n      dup4\n        /* \"#utility.yul\":9710:9777   */\n      tag_483\n      jump\t// in\n    tag_503:\n        /* \"#utility.yul\":9703:9777   */\n      swap2\n      pop\n        /* \"#utility.yul\":9786:9879   */\n      tag_504\n        /* \"#utility.yul\":9875:9878   */\n      dup3\n        /* \"#utility.yul\":9786:9879   */\n      tag_505\n      jump\t// in\n    tag_504:\n        /* \"#utility.yul\":9904:9906   */\n      0x20\n        /* \"#utility.yul\":9899:9902   */\n      dup3\n        /* \"#utility.yul\":9895:9907   */\n      add\n        /* \"#utility.yul\":9888:9907   */\n      swap1\n      pop\n        /* \"#utility.yul\":9547:9913   */\n      swap2\n      swap1\n      pop\n      jump\t// out\n        /* \"#utility.yul\":9919:10285   */\n    tag_506:\n        /* \"#utility.yul\":10061:10064   */\n      0x00\n        /* \"#utility.yul\":10082:10149   */\n      tag_508\n        /* \"#utility.yul\":10146:10148   */\n      0x17\n        /* \"#utility.yul\":10141:10144   */\n      dup4\n        /* \"#utility.yul\":10082:10149   */\n      tag_483\n      jump\t// in\n    tag_508:\n        /* \"#utility.yul\":10075:10149   */\n      swap2\n      pop\n        /* \"#utility.yul\":10158:10251   */\n      tag_509\n        /* \"#utility.yul\":10247:10250   */\n      dup3\n        /* \"#utility.yul\":10158:10251   */\n      tag_510\n      jump\t// in\n    tag_509:\n        /* \"#utility.yul\":10276:10278   */\n      0x20\n        /* \"#utility.yul\":10271:10274   */\n      dup3\n        /* \"#utility.yul\":10267:10279   */\n      add\n        /* \"#utility.yul\":10260:10279   */\n      swap1\n      pop\n        /* \"#utility.yul\":9919:10285   */\n      swap2\n      swap1\n      pop\n      jump\t// out\n        /* \"#utility.yul\":10291:10657   */\n    tag_511:\n        /* \"#utility.yul\":10433:10436   */\n      0x00\n        /* \"#utility.yul\":10454:10521   */\n      tag_513\n        /* \"#utility.yul\":10518:10520   */\n      0x1d\n        /* \"#utility.yul\":10513:10516   */\n      dup4\n        /* \"#utility.yul\":10454:10521   */\n      tag_483\n      jump\t// in\n    tag_513:\n        /* \"#utility.yul\":10447:10521   */\n      swap2\n      pop\n        /* \"#utility.yul\":10530:10623   */\n      tag_514\n        /* \"#utility.yul\":10619:10622   */\n      dup3\n        /* \"#utility.yul\":10530:10623   */\n      tag_515\n      jump\t// in\n    tag_514:\n        /* \"#utility.yul\":10648:10650   */\n      0x20\n        /* \"#utility.yul\":10643:10646   */\n      dup3\n        /* \"#utility.yul\":10639:10651   */\n      add\n        /* \"#utility.yul\":10632:10651   */\n      swap1\n      pop\n        /* \"#utility.yul\":10291:10657   */\n      swap2\n      swap1\n      pop\n      jump\t// out\n        /* \"#utility.yul\":10663:11029   */\n    tag_516:\n        /* \"#utility.yul\":10805:10808   */\n      0x00\n        /* \"#utility.yul\":10826:10893   */\n      tag_518\n        /* \"#utility.yul\":10890:10892   */\n      0x0b\n        /* \"#utility.yul\":10885:10888   */\n      dup4\n        /* \"#utility.yul\":10826:10893   */\n      tag_483\n      jump\t// in\n    tag_518:\n        /* \"#utility.yul\":10819:10893   */\n      swap2\n      pop\n        /* \"#utility.yul\":10902:10995   */\n      tag_519\n        /* \"#utility.yul\":10991:10994   */\n      dup3\n        /* \"#utility.yul\":10902:10995   */\n      tag_520\n      jump\t// in\n    tag_519:\n        /* \"#utility.yul\":11020:11022   */\n      0x20\n        /* \"#utility.yul\":11015:11018   */\n      dup3\n        /* \"#utility.yul\":11011:11023   */\n      add\n        /* \"#utility.yul\":11004:11023   */\n      swap1\n      pop\n        /* \"#utility.yul\":10663:11029   */\n      swap2\n      swap1\n      pop\n      jump\t// out\n        /* \"#utility.yul\":11035:11401   */\n    tag_521:\n        /* \"#utility.yul\":11177:11180   */\n      0x00\n        /* \"#utility.yul\":11198:11265   */\n      tag_523\n        /* \"#utility.yul\":11262:11264   */\n      0x13\n        /* \"#utility.yul\":11257:11260   */\n      dup4\n        /* \"#utility.yul\":11198:11265   */\n      tag_483\n      jump\t// in\n    tag_523:\n        /* \"#utility.yul\":11191:11265   */\n      swap2\n      pop\n        /* \"#utility.yul\":11274:11367   */\n      tag_524\n        /* \"#utility.yul\":11363:11366   */\n      dup3\n        /* \"#utility.yul\":11274:11367   */\n      tag_525\n      jump\t// in\n    tag_524:\n        /* \"#utility.yul\":11392:11394   */\n      0x20\n        /* \"#utility.yul\":11387:11390   */\n      dup3\n        /* \"#utility.yul\":11383:11395   */\n      add\n        /* \"#utility.yul\":11376:11395   */\n      swap1\n      pop\n        /* \"#utility.yul\":11035:11401   */\n      swap2\n      swap1\n      pop\n      jump\t// out\n        /* \"#utility.yul\":11407:11772   */\n    tag_526:\n        /* \"#utility.yul\":11549:11552   */\n      0x00\n        /* \"#utility.yul\":11570:11636   */\n      tag_528\n        /* \"#utility.yul\":11634:11635   */\n      0x08\n        /* \"#utility.yul\":11629:11632   */\n      dup4\n        /* \"#utility.yul\":11570:11636   */\n      tag_483\n      jump\t// in\n    tag_528:\n        /* \"#utility.yul\":11563:11636   */\n      swap2\n      pop\n        /* \"#utility.yul\":11645:11738   */\n      tag_529\n        /* \"#utility.yul\":11734:11737   */\n      dup3\n        /* \"#utility.yul\":11645:11738   */\n      tag_530\n      jump\t// in\n    tag_529:\n        /* \"#utility.yul\":11763:11765   */\n      0x20\n        /* \"#utility.yul\":11758:11761   */\n      dup3\n        /* \"#utility.yul\":11754:11766   */\n      add\n        /* \"#utility.yul\":11747:11766   */\n      swap1\n      pop\n        /* \"#utility.yul\":11407:11772   */\n      swap2\n      swap1\n      pop\n      jump\t// out\n        /* \"#utility.yul\":11778:12144   */\n    tag_531:\n        /* \"#utility.yul\":11920:11923   */\n      0x00\n        /* \"#utility.yul\":11941:12008   */\n      tag_533\n        /* \"#utility.yul\":12005:12007   */\n      0x14\n        /* \"#utility.yul\":12000:12003   */\n      dup4\n        /* \"#utility.yul\":11941:12008   */\n      tag_483\n      jump\t// in\n    tag_533:\n        /* \"#utility.yul\":11934:12008   */\n      swap2\n      pop\n        /* \"#utility.yul\":12017:12110   */\n      tag_534\n        /* \"#utility.yul\":12106:12109   */\n      dup3\n        /* \"#utility.yul\":12017:12110   */\n      tag_535\n      jump\t// in\n    tag_534:\n        /* \"#utility.yul\":12135:12137   */\n      0x20\n        /* \"#utility.yul\":12130:12133   */\n      dup3\n        /* \"#utility.yul\":12126:12138   */\n      add\n        /* \"#utility.yul\":12119:12138   */\n      swap1\n      pop\n        /* \"#utility.yul\":11778:12144   */\n      swap2\n      swap1\n      pop\n      jump\t// out\n        /* \"#utility.yul\":12150:12516   */\n    tag_536:\n        /* \"#utility.yul\":12292:12295   */\n      0x00\n        /* \"#utility.yul\":12313:12380   */\n      tag_538\n        /* \"#utility.yul\":12377:12379   */\n      0x0f\n        /* \"#utility.yul\":12372:12375   */\n      dup4\n        /* \"#utility.yul\":12313:12380   */\n      tag_483\n      jump\t// in\n    tag_538:\n        /* \"#utility.yul\":12306:12380   */\n      swap2\n      pop\n        /* \"#utility.yul\":12389:12482   */\n      tag_539\n        /* \"#utility.yul\":12478:12481   */\n      dup3\n        /* \"#utility.yul\":12389:12482   */\n      tag_540\n      jump\t// in\n    tag_539:\n        /* \"#utility.yul\":12507:12509   */\n      0x20\n        /* \"#utility.yul\":12502:12505   */\n      dup3\n        /* \"#utility.yul\":12498:12510   */\n      add\n        /* \"#utility.yul\":12491:12510   */\n      swap1\n      pop\n        /* \"#utility.yul\":12150:12516   */\n      swap2\n      swap1\n      pop\n      jump\t// out\n        /* \"#utility.yul\":12522:12888   */\n    tag_541:\n        /* \"#utility.yul\":12664:12667   */\n      0x00\n        /* \"#utility.yul\":12685:12752   */\n      tag_543\n        /* \"#utility.yul\":12749:12751   */\n      0x15\n        /* \"#utility.yul\":12744:12747   */\n      dup4\n        /* \"#utility.yul\":12685:12752   */\n      tag_483\n      jump\t// in\n    tag_543:\n        /* \"#utility.yul\":12678:12752   */\n      swap2\n      pop\n        /* \"#utility.yul\":12761:12854   */\n      tag_544\n        /* \"#utility.yul\":12850:12853   */\n      dup3\n        /* \"#utility.yul\":12761:12854   */\n      tag_545\n      jump\t// in\n    tag_544:\n        /* \"#utility.yul\":12879:12881   */\n      0x20\n        /* \"#utility.yul\":12874:12877   */\n      dup3\n        /* \"#utility.yul\":12870:12882   */\n      add\n        /* \"#utility.yul\":12863:12882   */\n      swap1\n      pop\n        /* \"#utility.yul\":12522:12888   */\n      swap2\n      swap1\n      pop\n      jump\t// out\n        /* \"#utility.yul\":12894:13292   */\n    tag_546:\n        /* \"#utility.yul\":13053:13056   */\n      0x00\n        /* \"#utility.yul\":13074:13157   */\n      tag_548\n        /* \"#utility.yul\":13155:13156   */\n      0x00\n        /* \"#utility.yul\":13150:13153   */\n      dup4\n        /* \"#utility.yul\":13074:13157   */\n      tag_549\n      jump\t// in\n    tag_548:\n        /* \"#utility.yul\":13067:13157   */\n      swap2\n      pop\n        /* \"#utility.yul\":13166:13259   */\n      tag_550\n        /* \"#utility.yul\":13255:13258   */\n      dup3\n        /* \"#utility.yul\":13166:13259   */\n      tag_551\n      jump\t// in\n    tag_550:\n        /* \"#utility.yul\":13284:13285   */\n      0x00\n        /* \"#utility.yul\":13279:13282   */\n      dup3\n        /* \"#utility.yul\":13275:13286   */\n      add\n        /* \"#utility.yul\":13268:13286   */\n      swap1\n      pop\n        /* \"#utility.yul\":12894:13292   */\n      swap2\n      swap1\n      pop\n      jump\t// out\n        /* \"#utility.yul\":13298:13664   */\n    tag_552:\n        /* \"#utility.yul\":13440:13443   */\n      0x00\n        /* \"#utility.yul\":13461:13528   */\n      tag_554\n        /* \"#utility.yul\":13525:13527   */\n      0x13\n        /* \"#utility.yul\":13520:13523   */\n      dup4\n        /* \"#utility.yul\":13461:13528   */\n      tag_483\n      jump\t// in\n    tag_554:\n        /* \"#utility.yul\":13454:13528   */\n      swap2\n      pop\n        /* \"#utility.yul\":13537:13630   */\n      tag_555\n        /* \"#utility.yul\":13626:13629   */\n      dup3\n        /* \"#utility.yul\":13537:13630   */\n      tag_556\n      jump\t// in\n    tag_555:\n        /* \"#utility.yul\":13655:13657   */\n      0x20\n        /* \"#utility.yul\":13650:13653   */\n      dup3\n        /* \"#utility.yul\":13646:13658   */\n      add\n        /* \"#utility.yul\":13639:13658   */\n      swap1\n      pop\n        /* \"#utility.yul\":13298:13664   */\n      swap2\n      swap1\n      pop\n      jump\t// out\n        /* \"#utility.yul\":13670:14036   */\n    tag_557:\n        /* \"#utility.yul\":13812:13815   */\n      0x00\n        /* \"#utility.yul\":13833:13900   */\n      tag_559\n        /* \"#utility.yul\":13897:13899   */\n      0x14\n        /* \"#utility.yul\":13892:13895   */\n      dup4\n        /* \"#utility.yul\":13833:13900   */\n      tag_483\n      jump\t// in\n    tag_559:\n        /* \"#utility.yul\":13826:13900   */\n      swap2\n      pop\n        /* \"#utility.yul\":13909:14002   */\n      tag_560\n        /* \"#utility.yul\":13998:14001   */\n      dup3\n        /* \"#utility.yul\":13909:14002   */\n      tag_561\n      jump\t// in\n    tag_560:\n        /* \"#utility.yul\":14027:14029   */\n      0x20\n        /* \"#utility.yul\":14022:14025   */\n      dup3\n        /* \"#utility.yul\":14018:14030   */\n      add\n        /* \"#utility.yul\":14011:14030   */\n      swap1\n      pop\n        /* \"#utility.yul\":13670:14036   */\n      swap2\n      swap1\n      pop\n      jump\t// out\n        /* \"#utility.yul\":14042:14408   */\n    tag_562:\n        /* \"#utility.yul\":14184:14187   */\n      0x00\n        /* \"#utility.yul\":14205:14272   */\n      tag_564\n        /* \"#utility.yul\":14269:14271   */\n      0x0d\n        /* \"#utility.yul\":14264:14267   */\n      dup4\n        /* \"#utility.yul\":14205:14272   */\n      tag_483\n      jump\t// in\n    tag_564:\n        /* \"#utility.yul\":14198:14272   */\n      swap2\n      pop\n        /* \"#utility.yul\":14281:14374   */\n      tag_565\n        /* \"#utility.yul\":14370:14373   */\n      dup3\n        /* \"#utility.yul\":14281:14374   */\n      tag_566\n      jump\t// in\n    tag_565:\n        /* \"#utility.yul\":14399:14401   */\n      0x20\n        /* \"#utility.yul\":14394:14397   */\n      dup3\n        /* \"#utility.yul\":14390:14402   */\n      add\n        /* \"#utility.yul\":14383:14402   */\n      swap1\n      pop\n        /* \"#utility.yul\":14042:14408   */\n      swap2\n      swap1\n      pop\n      jump\t// out\n        /* \"#utility.yul\":14484:15904   */\n    tag_567:\n        /* \"#utility.yul\":14629:14633   */\n      0xe0\n        /* \"#utility.yul\":14624:14627   */\n      dup3\n        /* \"#utility.yul\":14620:14634   */\n      add\n        /* \"#utility.yul\":14724:14728   */\n      0x00\n        /* \"#utility.yul\":14717:14722   */\n      dup3\n        /* \"#utility.yul\":14713:14729   */\n      add\n        /* \"#utility.yul\":14707:14730   */\n      mload\n        /* \"#utility.yul\":14743:14806   */\n      tag_569\n        /* \"#utility.yul\":14800:14804   */\n      0x00\n        /* \"#utility.yul\":14795:14798   */\n      dup6\n        /* \"#utility.yul\":14791:14805   */\n      add\n        /* \"#utility.yul\":14777:14789   */\n      dup3\n        /* \"#utility.yul\":14743:14806   */\n      tag_570\n      jump\t// in\n    tag_569:\n        /* \"#utility.yul\":14644:14816   */\n      pop\n        /* \"#utility.yul\":14904:14908   */\n      0x20\n        /* \"#utility.yul\":14897:14902   */\n      dup3\n        /* \"#utility.yul\":14893:14909   */\n      add\n        /* \"#utility.yul\":14887:14910   */\n      mload\n        /* \"#utility.yul\":14923:14986   */\n      tag_571\n        /* \"#utility.yul\":14980:14984   */\n      0x20\n        /* \"#utility.yul\":14975:14978   */\n      dup6\n        /* \"#utility.yul\":14971:14985   */\n      add\n        /* \"#utility.yul\":14957:14969   */\n      dup3\n        /* \"#utility.yul\":14923:14986   */\n      tag_570\n      jump\t// in\n    tag_571:\n        /* \"#utility.yul\":14826:14996   */\n      pop\n        /* \"#utility.yul\":15082:15086   */\n      0x40\n        /* \"#utility.yul\":15075:15080   */\n      dup3\n        /* \"#utility.yul\":15071:15087   */\n      add\n        /* \"#utility.yul\":15065:15088   */\n      mload\n        /* \"#utility.yul\":15101:15164   */\n      tag_572\n        /* \"#utility.yul\":15158:15162   */\n      0x40\n        /* \"#utility.yul\":15153:15156   */\n      dup6\n        /* \"#utility.yul\":15149:15163   */\n      add\n        /* \"#utility.yul\":15135:15147   */\n      dup3\n        /* \"#utility.yul\":15101:15164   */\n      tag_570\n      jump\t// in\n    tag_572:\n        /* \"#utility.yul\":15006:15174   */\n      pop\n        /* \"#utility.yul\":15265:15269   */\n      0x60\n        /* \"#utility.yul\":15258:15263   */\n      dup3\n        /* \"#utility.yul\":15254:15270   */\n      add\n        /* \"#utility.yul\":15248:15271   */\n      mload\n        /* \"#utility.yul\":15284:15347   */\n      tag_573\n        /* \"#utility.yul\":15341:15345   */\n      0x60\n        /* \"#utility.yul\":15336:15339   */\n      dup6\n        /* \"#utility.yul\":15332:15346   */\n      add\n        /* \"#utility.yul\":15318:15330   */\n      dup3\n        /* \"#utility.yul\":15284:15347   */\n      tag_570\n      jump\t// in\n    tag_573:\n        /* \"#utility.yul\":15184:15357   */\n      pop\n        /* \"#utility.yul\":15451:15455   */\n      0x80\n        /* \"#utility.yul\":15444:15449   */\n      dup3\n        /* \"#utility.yul\":15440:15456   */\n      add\n        /* \"#utility.yul\":15434:15457   */\n      mload\n        /* \"#utility.yul\":15470:15533   */\n      tag_574\n        /* \"#utility.yul\":15527:15531   */\n      0x80\n        /* \"#utility.yul\":15522:15525   */\n      dup6\n        /* \"#utility.yul\":15518:15532   */\n      add\n        /* \"#utility.yul\":15504:15516   */\n      dup3\n        /* \"#utility.yul\":15470:15533   */\n      tag_455\n      jump\t// in\n    tag_574:\n        /* \"#utility.yul\":15367:15543   */\n      pop\n        /* \"#utility.yul\":15630:15634   */\n      0xa0\n        /* \"#utility.yul\":15623:15628   */\n      dup3\n        /* \"#utility.yul\":15619:15635   */\n      add\n        /* \"#utility.yul\":15613:15636   */\n      mload\n        /* \"#utility.yul\":15649:15712   */\n      tag_575\n        /* \"#utility.yul\":15706:15710   */\n      0xa0\n        /* \"#utility.yul\":15701:15704   */\n      dup6\n        /* \"#utility.yul\":15697:15711   */\n      add\n        /* \"#utility.yul\":15683:15695   */\n      dup3\n        /* \"#utility.yul\":15649:15712   */\n      tag_455\n      jump\t// in\n    tag_575:\n        /* \"#utility.yul\":15553:15722   */\n      pop\n        /* \"#utility.yul\":15805:15809   */\n      0xc0\n        /* \"#utility.yul\":15798:15803   */\n      dup3\n        /* \"#utility.yul\":15794:15810   */\n      add\n        /* \"#utility.yul\":15788:15811   */\n      mload\n        /* \"#utility.yul\":15824:15887   */\n      tag_576\n        /* \"#utility.yul\":15881:15885   */\n      0xc0\n        /* \"#utility.yul\":15876:15879   */\n      dup6\n        /* \"#utility.yul\":15872:15886   */\n      add\n        /* \"#utility.yul\":15858:15870   */\n      dup3\n        /* \"#utility.yul\":15824:15887   */\n      tag_455\n      jump\t// in\n    tag_576:\n        /* \"#utility.yul\":15732:15897   */\n      pop\n        /* \"#utility.yul\":14598:15904   */\n      pop\n        /* \"#utility.yul\":14484:15904   */\n      pop\n      pop\n      jump\t// out\n        /* \"#utility.yul\":15984:16856   */\n    tag_577:\n        /* \"#utility.yul\":16133:16137   */\n      0x80\n        /* \"#utility.yul\":16128:16131   */\n      dup3\n        /* \"#utility.yul\":16124:16138   */\n      add\n        /* \"#utility.yul\":16225:16229   */\n      0x00\n        /* \"#utility.yul\":16218:16223   */\n      dup3\n        /* \"#utility.yul\":16214:16230   */\n      add\n        /* \"#utility.yul\":16208:16231   */\n      mload\n        /* \"#utility.yul\":16244:16307   */\n      tag_579\n        /* \"#utility.yul\":16301:16305   */\n      0x00\n        /* \"#utility.yul\":16296:16299   */\n      dup6\n        /* \"#utility.yul\":16292:16306   */\n      add\n        /* \"#utility.yul\":16278:16290   */\n      dup3\n        /* \"#utility.yul\":16244:16307   */\n      tag_455\n      jump\t// in\n    tag_579:\n        /* \"#utility.yul\":16148:16317   */\n      pop\n        /* \"#utility.yul\":16403:16407   */\n      0x20\n        /* \"#utility.yul\":16396:16401   */\n      dup3\n        /* \"#utility.yul\":16392:16408   */\n      add\n        /* \"#utility.yul\":16386:16409   */\n      mload\n        /* \"#utility.yul\":16422:16485   */\n      tag_580\n        /* \"#utility.yul\":16479:16483   */\n      0x20\n        /* \"#utility.yul\":16474:16477   */\n      dup6\n        /* \"#utility.yul\":16470:16484   */\n      add\n        /* \"#utility.yul\":16456:16468   */\n      dup3\n        /* \"#utility.yul\":16422:16485   */\n      tag_455\n      jump\t// in\n    tag_580:\n        /* \"#utility.yul\":16327:16495   */\n      pop\n        /* \"#utility.yul\":16578:16582   */\n      0x40\n        /* \"#utility.yul\":16571:16576   */\n      dup3\n        /* \"#utility.yul\":16567:16583   */\n      add\n        /* \"#utility.yul\":16561:16584   */\n      mload\n        /* \"#utility.yul\":16597:16660   */\n      tag_581\n        /* \"#utility.yul\":16654:16658   */\n      0x40\n        /* \"#utility.yul\":16649:16652   */\n      dup6\n        /* \"#utility.yul\":16645:16659   */\n      add\n        /* \"#utility.yul\":16631:16643   */\n      dup3\n        /* \"#utility.yul\":16597:16660   */\n      tag_455\n      jump\t// in\n    tag_581:\n        /* \"#utility.yul\":16505:16670   */\n      pop\n        /* \"#utility.yul\":16757:16761   */\n      0x60\n        /* \"#utility.yul\":16750:16755   */\n      dup3\n        /* \"#utility.yul\":16746:16762   */\n      add\n        /* \"#utility.yul\":16740:16763   */\n      mload\n        /* \"#utility.yul\":16776:16839   */\n      tag_582\n        /* \"#utility.yul\":16833:16837   */\n      0x60\n        /* \"#utility.yul\":16828:16831   */\n      dup6\n        /* \"#utility.yul\":16824:16838   */\n      add\n        /* \"#utility.yul\":16810:16822   */\n      dup3\n        /* \"#utility.yul\":16776:16839   */\n      tag_570\n      jump\t// in\n    tag_582:\n        /* \"#utility.yul\":16680:16849   */\n      pop\n        /* \"#utility.yul\":16102:16856   */\n      pop\n        /* \"#utility.yul\":15984:16856   */\n      pop\n      pop\n      jump\t// out\n        /* \"#utility.yul\":16934:17450   */\n    tag_454:\n        /* \"#utility.yul\":17071:17075   */\n      0x40\n        /* \"#utility.yul\":17066:17069   */\n      dup3\n        /* \"#utility.yul\":17062:17076   */\n      add\n        /* \"#utility.yul\":17173:17177   */\n      0x00\n        /* \"#utility.yul\":17166:17171   */\n      dup3\n        /* \"#utility.yul\":17162:17178   */\n      add\n        /* \"#utility.yul\":17156:17179   */\n      mload\n        /* \"#utility.yul\":17192:17255   */\n      tag_584\n        /* \"#utility.yul\":17249:17253   */\n      0x00\n        /* \"#utility.yul\":17244:17247   */\n      dup6\n        /* \"#utility.yul\":17240:17254   */\n      add\n        /* \"#utility.yul\":17226:17238   */\n      dup3\n        /* \"#utility.yul\":17192:17255   */\n      tag_455\n      jump\t// in\n    tag_584:\n        /* \"#utility.yul\":17086:17265   */\n      pop\n        /* \"#utility.yul\":17351:17355   */\n      0x20\n        /* \"#utility.yul\":17344:17349   */\n      dup3\n        /* \"#utility.yul\":17340:17356   */\n      add\n        /* \"#utility.yul\":17334:17357   */\n      mload\n        /* \"#utility.yul\":17370:17433   */\n      tag_585\n        /* \"#utility.yul\":17427:17431   */\n      0x20\n        /* \"#utility.yul\":17422:17425   */\n      dup6\n        /* \"#utility.yul\":17418:17432   */\n      add\n        /* \"#utility.yul\":17404:17416   */\n      dup3\n        /* \"#utility.yul\":17370:17433   */\n      tag_570\n      jump\t// in\n    tag_585:\n        /* \"#utility.yul\":17275:17443   */\n      pop\n        /* \"#utility.yul\":17040:17450   */\n      pop\n        /* \"#utility.yul\":16934:17450   */\n      pop\n      pop\n      jump\t// out\n        /* \"#utility.yul\":17456:17564   */\n    tag_570:\n        /* \"#utility.yul\":17533:17557   */\n      tag_587\n        /* \"#utility.yul\":17551:17556   */\n      dup2\n        /* \"#utility.yul\":17533:17557   */\n      tag_588\n      jump\t// in\n    tag_587:\n        /* \"#utility.yul\":17528:17531   */\n      dup3\n        /* \"#utility.yul\":17521:17558   */\n      mstore\n        /* \"#utility.yul\":17456:17564   */\n      pop\n      pop\n      jump\t// out\n        /* \"#utility.yul\":17570:17688   */\n    tag_589:\n        /* \"#utility.yul\":17657:17681   */\n      tag_591\n        /* \"#utility.yul\":17675:17680   */\n      dup2\n        /* \"#utility.yul\":17657:17681   */\n      tag_588\n      jump\t// in\n    tag_591:\n        /* \"#utility.yul\":17652:17655   */\n      dup3\n        /* \"#utility.yul\":17645:17682   */\n      mstore\n        /* \"#utility.yul\":17570:17688   */\n      pop\n      pop\n      jump\t// out\n        /* \"#utility.yul\":17694:18073   */\n    tag_365:\n        /* \"#utility.yul\":17878:17881   */\n      0x00\n        /* \"#utility.yul\":17900:18047   */\n      tag_593\n        /* \"#utility.yul\":18043:18046   */\n      dup3\n        /* \"#utility.yul\":17900:18047   */\n      tag_546\n      jump\t// in\n    tag_593:\n        /* \"#utility.yul\":17893:18047   */\n      swap2\n      pop\n        /* \"#utility.yul\":18064:18067   */\n      dup2\n        /* \"#utility.yul\":18057:18067   */\n      swap1\n      pop\n        /* \"#utility.yul\":17694:18073   */\n      swap2\n      swap1\n      pop\n      jump\t// out\n        /* \"#utility.yul\":18079:18411   */\n    tag_203:\n        /* \"#utility.yul\":18200:18204   */\n      0x00\n        /* \"#utility.yul\":18238:18240   */\n      0x40\n        /* \"#utility.yul\":18227:18236   */\n      dup3\n        /* \"#utility.yul\":18223:18241   */\n      add\n        /* \"#utility.yul\":18215:18241   */\n      swap1\n      pop\n        /* \"#utility.yul\":18251:18322   */\n      tag_595\n        /* \"#utility.yul\":18319:18320   */\n      0x00\n        /* \"#utility.yul\":18308:18317   */\n      dup4\n        /* \"#utility.yul\":18304:18321   */\n      add\n        /* \"#utility.yul\":18295:18301   */\n      dup6\n        /* \"#utility.yul\":18251:18322   */\n      tag_459\n      jump\t// in\n    tag_595:\n        /* \"#utility.yul\":18332:18404   */\n      tag_596\n        /* \"#utility.yul\":18400:18402   */\n      0x20\n        /* \"#utility.yul\":18389:18398   */\n      dup4\n        /* \"#utility.yul\":18385:18403   */\n      add\n        /* \"#utility.yul\":18376:18382   */\n      dup5\n        /* \"#utility.yul\":18332:18404   */\n      tag_459\n      jump\t// in\n    tag_596:\n        /* \"#utility.yul\":18079:18411   */\n      swap4\n      swap3\n      pop\n      pop\n      pop\n      jump\t// out\n        /* \"#utility.yul\":18417:19192   */\n    tag_223:\n        /* \"#utility.yul\":18650:18654   */\n      0x00\n        /* \"#utility.yul\":18688:18691   */\n      0xc0\n        /* \"#utility.yul\":18677:18686   */\n      dup3\n        /* \"#utility.yul\":18673:18692   */\n      add\n        /* \"#utility.yul\":18665:18692   */\n      swap1\n      pop\n        /* \"#utility.yul\":18702:18773   */\n      tag_598\n        /* \"#utility.yul\":18770:18771   */\n      0x00\n        /* \"#utility.yul\":18759:18768   */\n      dup4\n        /* \"#utility.yul\":18755:18772   */\n      add\n        /* \"#utility.yul\":18746:18752   */\n      dup10\n        /* \"#utility.yul\":18702:18773   */\n      tag_459\n      jump\t// in\n    tag_598:\n        /* \"#utility.yul\":18783:18855   */\n      tag_599\n        /* \"#utility.yul\":18851:18853   */\n      0x20\n        /* \"#utility.yul\":18840:18849   */\n      dup4\n        /* \"#utility.yul\":18836:18854   */\n      add\n        /* \"#utility.yul\":18827:18833   */\n      dup9\n        /* \"#utility.yul\":18783:18855   */\n      tag_459\n      jump\t// in\n    tag_599:\n        /* \"#utility.yul\":18865:18937   */\n      tag_600\n        /* \"#utility.yul\":18933:18935   */\n      0x40\n        /* \"#utility.yul\":18922:18931   */\n      dup4\n        /* \"#utility.yul\":18918:18936   */\n      add\n        /* \"#utility.yul\":18909:18915   */\n      dup8\n        /* \"#utility.yul\":18865:18937   */\n      tag_459\n      jump\t// in\n    tag_600:\n        /* \"#utility.yul\":18947:19019   */\n      tag_601\n        /* \"#utility.yul\":19015:19017   */\n      0x60\n        /* \"#utility.yul\":19004:19013   */\n      dup4\n        /* \"#utility.yul\":19000:19018   */\n      add\n        /* \"#utility.yul\":18991:18997   */\n      dup7\n        /* \"#utility.yul\":18947:19019   */\n      tag_589\n      jump\t// in\n    tag_601:\n        /* \"#utility.yul\":19029:19102   */\n      tag_602\n        /* \"#utility.yul\":19097:19100   */\n      0x80\n        /* \"#utility.yul\":19086:19095   */\n      dup4\n        /* \"#utility.yul\":19082:19101   */\n      add\n        /* \"#utility.yul\":19073:19079   */\n      dup6\n        /* \"#utility.yul\":19029:19102   */\n      tag_589\n      jump\t// in\n    tag_602:\n        /* \"#utility.yul\":19112:19185   */\n      tag_603\n        /* \"#utility.yul\":19180:19183   */\n      0xa0\n        /* \"#utility.yul\":19169:19178   */\n      dup4\n        /* \"#utility.yul\":19165:19184   */\n      add\n        /* \"#utility.yul\":19156:19162   */\n      dup5\n        /* \"#utility.yul\":19112:19185   */\n      tag_589\n      jump\t// in\n    tag_603:\n        /* \"#utility.yul\":18417:19192   */\n      swap8\n      swap7\n      pop\n      pop\n      pop\n      pop\n      pop\n      pop\n      pop\n      jump\t// out\n        /* \"#utility.yul\":19198:20084   */\n    tag_303:\n        /* \"#utility.yul\":19459:19463   */\n      0x00\n        /* \"#utility.yul\":19497:19500   */\n      0xe0\n        /* \"#utility.yul\":19486:19495   */\n      dup3\n        /* \"#utility.yul\":19482:19501   */\n      add\n        /* \"#utility.yul\":19474:19501   */\n      swap1\n      pop\n        /* \"#utility.yul\":19511:19582   */\n      tag_605\n        /* \"#utility.yul\":19579:19580   */\n      0x00\n        /* \"#utility.yul\":19568:19577   */\n      dup4\n        /* \"#utility.yul\":19564:19581   */\n      add\n        /* \"#utility.yul\":19555:19561   */\n      dup11\n        /* \"#utility.yul\":19511:19582   */\n      tag_459\n      jump\t// in\n    tag_605:\n        /* \"#utility.yul\":19592:19664   */\n      tag_606\n        /* \"#utility.yul\":19660:19662   */\n      0x20\n        /* \"#utility.yul\":19649:19658   */\n      dup4\n        /* \"#utility.yul\":19645:19663   */\n      add\n        /* \"#utility.yul\":19636:19642   */\n      dup10\n        /* \"#utility.yul\":19592:19664   */\n      tag_459\n      jump\t// in\n    tag_606:\n        /* \"#utility.yul\":19674:19746   */\n      tag_607\n        /* \"#utility.yul\":19742:19744   */\n      0x40\n        /* \"#utility.yul\":19731:19740   */\n      dup4\n        /* \"#utility.yul\":19727:19745   */\n      add\n        /* \"#utility.yul\":19718:19724   */\n      dup9\n        /* \"#utility.yul\":19674:19746   */\n      tag_459\n      jump\t// in\n    tag_607:\n        /* \"#utility.yul\":19756:19828   */\n      tag_608\n        /* \"#utility.yul\":19824:19826   */\n      0x60\n        /* \"#utility.yul\":19813:19822   */\n      dup4\n        /* \"#utility.yul\":19809:19827   */\n      add\n        /* \"#utility.yul\":19800:19806   */\n      dup8\n        /* \"#utility.yul\":19756:19828   */\n      tag_589\n      jump\t// in\n    tag_608:\n        /* \"#utility.yul\":19838:19911   */\n      tag_609\n        /* \"#utility.yul\":19906:19909   */\n      0x80\n        /* \"#utility.yul\":19895:19904   */\n      dup4\n        /* \"#utility.yul\":19891:19910   */\n      add\n        /* \"#utility.yul\":19882:19888   */\n      dup7\n        /* \"#utility.yul\":19838:19911   */\n      tag_589\n      jump\t// in\n    tag_609:\n        /* \"#utility.yul\":19921:19994   */\n      tag_610\n        /* \"#utility.yul\":19989:19992   */\n      0xa0\n        /* \"#utility.yul\":19978:19987   */\n      dup4\n        /* \"#utility.yul\":19974:19993   */\n      add\n        /* \"#utility.yul\":19965:19971   */\n      dup6\n        /* \"#utility.yul\":19921:19994   */\n      tag_589\n      jump\t// in\n    tag_610:\n        /* \"#utility.yul\":20004:20077   */\n      tag_611\n        /* \"#utility.yul\":20072:20075   */\n      0xc0\n        /* \"#utility.yul\":20061:20070   */\n      dup4\n        /* \"#utility.yul\":20057:20076   */\n      add\n        /* \"#utility.yul\":20048:20054   */\n      dup5\n        /* \"#utility.yul\":20004:20077   */\n      tag_589\n      jump\t// in\n    tag_611:\n        /* \"#utility.yul\":19198:20084   */\n      swap9\n      swap8\n      pop\n      pop\n      pop\n      pop\n      pop\n      pop\n      pop\n      pop\n      jump\t// out\n        /* \"#utility.yul\":20090:20532   */\n    tag_218:\n        /* \"#utility.yul\":20239:20243   */\n      0x00\n        /* \"#utility.yul\":20277:20279   */\n      0x60\n        /* \"#utility.yul\":20266:20275   */\n      dup3\n        /* \"#utility.yul\":20262:20280   */\n      add\n        /* \"#utility.yul\":20254:20280   */\n      swap1\n      pop\n        /* \"#utility.yul\":20290:20361   */\n      tag_613\n        /* \"#utility.yul\":20358:20359   */\n      0x00\n        /* \"#utility.yul\":20347:20356   */\n      dup4\n        /* \"#utility.yul\":20343:20360   */\n      add\n        /* \"#utility.yul\":20334:20340   */\n      dup7\n        /* \"#utility.yul\":20290:20361   */\n      tag_459\n      jump\t// in\n    tag_613:\n        /* \"#utility.yul\":20371:20443   */\n      tag_614\n        /* \"#utility.yul\":20439:20441   */\n      0x20\n        /* \"#utility.yul\":20428:20437   */\n      dup4\n        /* \"#utility.yul\":20424:20442   */\n      add\n        /* \"#utility.yul\":20415:20421   */\n      dup6\n        /* \"#utility.yul\":20371:20443   */\n      tag_459\n      jump\t// in\n    tag_614:\n        /* \"#utility.yul\":20453:20525   */\n      tag_615\n        /* \"#utility.yul\":20521:20523   */\n      0x40\n        /* \"#utility.yul\":20510:20519   */\n      dup4\n        /* \"#utility.yul\":20506:20524   */\n      add\n        /* \"#utility.yul\":20497:20503   */\n      dup5\n        /* \"#utility.yul\":20453:20525   */\n      tag_589\n      jump\t// in\n    tag_615:\n        /* \"#utility.yul\":20090:20532   */\n      swap5\n      swap4\n      pop\n      pop\n      pop\n      pop\n      jump\t// out\n        /* \"#utility.yul\":20538:21091   */\n    tag_276:\n        /* \"#utility.yul\":20715:20719   */\n      0x00\n        /* \"#utility.yul\":20753:20756   */\n      0x80\n        /* \"#utility.yul\":20742:20751   */\n      dup3\n        /* \"#utility.yul\":20738:20757   */\n      add\n        /* \"#utility.yul\":20730:20757   */\n      swap1\n      pop\n        /* \"#utility.yul\":20767:20838   */\n      tag_617\n        /* \"#utility.yul\":20835:20836   */\n      0x00\n        /* \"#utility.yul\":20824:20833   */\n      dup4\n        /* \"#utility.yul\":20820:20837   */\n      add\n        /* \"#utility.yul\":20811:20817   */\n      dup8\n        /* \"#utility.yul\":20767:20838   */\n      tag_459\n      jump\t// in\n    tag_617:\n        /* \"#utility.yul\":20848:20920   */\n      tag_618\n        /* \"#utility.yul\":20916:20918   */\n      0x20\n        /* \"#utility.yul\":20905:20914   */\n      dup4\n        /* \"#utility.yul\":20901:20919   */\n      add\n        /* \"#utility.yul\":20892:20898   */\n      dup7\n        /* \"#utility.yul\":20848:20920   */\n      tag_459\n      jump\t// in\n    tag_618:\n        /* \"#utility.yul\":20930:21002   */\n      tag_619\n        /* \"#utility.yul\":20998:21000   */\n      0x40\n        /* \"#utility.yul\":20987:20996   */\n      dup4\n        /* \"#utility.yul\":20983:21001   */\n      add\n        /* \"#utility.yul\":20974:20980   */\n      dup6\n        /* \"#utility.yul\":20930:21002   */\n      tag_589\n      jump\t// in\n    tag_619:\n        /* \"#utility.yul\":21012:21084   */\n      tag_620\n        /* \"#utility.yul\":21080:21082   */\n      0x60\n        /* \"#utility.yul\":21069:21078   */\n      dup4\n        /* \"#utility.yul\":21065:21083   */\n      add\n        /* \"#utility.yul\":21056:21062   */\n      dup5\n        /* \"#utility.yul\":21012:21084   */\n      tag_589\n      jump\t// in\n    tag_620:\n        /* \"#utility.yul\":20538:21091   */\n      swap6\n      swap5\n      pop\n      pop\n      pop\n      pop\n      pop\n      jump\t// out\n        /* \"#utility.yul\":21097:21429   */\n    tag_358:\n        /* \"#utility.yul\":21218:21222   */\n      0x00\n        /* \"#utility.yul\":21256:21258   */\n      0x40\n        /* \"#utility.yul\":21245:21254   */\n      dup3\n        /* \"#utility.yul\":21241:21259   */\n      add\n        /* \"#utility.yul\":21233:21259   */\n      swap1\n      pop\n        /* \"#utility.yul\":21269:21340   */\n      tag_622\n        /* \"#utility.yul\":21337:21338   */\n      0x00\n        /* \"#utility.yul\":21326:21335   */\n      dup4\n        /* \"#utility.yul\":21322:21339   */\n      add\n        /* \"#utility.yul\":21313:21319   */\n      dup6\n        /* \"#utility.yul\":21269:21340   */\n      tag_459\n      jump\t// in\n    tag_622:\n        /* \"#utility.yul\":21350:21422   */\n      tag_623\n        /* \"#utility.yul\":21418:21420   */\n      0x20\n        /* \"#utility.yul\":21407:21416   */\n      dup4\n        /* \"#utility.yul\":21403:21421   */\n      add\n        /* \"#utility.yul\":21394:21400   */\n      dup5\n        /* \"#utility.yul\":21350:21422   */\n      tag_589\n      jump\t// in\n    tag_623:\n        /* \"#utility.yul\":21097:21429   */\n      swap4\n      swap3\n      pop\n      pop\n      pop\n      jump\t// out\n        /* \"#utility.yul\":21435:21877   */\n    tag_176:\n        /* \"#utility.yul\":21584:21588   */\n      0x00\n        /* \"#utility.yul\":21622:21624   */\n      0x60\n        /* \"#utility.yul\":21611:21620   */\n      dup3\n        /* \"#utility.yul\":21607:21625   */\n      add\n        /* \"#utility.yul\":21599:21625   */\n      swap1\n      pop\n        /* \"#utility.yul\":21635:21706   */\n      tag_625\n        /* \"#utility.yul\":21703:21704   */\n      0x00\n        /* \"#utility.yul\":21692:21701   */\n      dup4\n        /* \"#utility.yul\":21688:21705   */\n      add\n        /* \"#utility.yul\":21679:21685   */\n      dup7\n        /* \"#utility.yul\":21635:21706   */\n      tag_459\n      jump\t// in\n    tag_625:\n        /* \"#utility.yul\":21716:21788   */\n      tag_626\n        /* \"#utility.yul\":21784:21786   */\n      0x20\n        /* \"#utility.yul\":21773:21782   */\n      dup4\n        /* \"#utility.yul\":21769:21787   */\n      add\n        /* \"#utility.yul\":21760:21766   */\n      dup6\n        /* \"#utility.yul\":21716:21788   */\n      tag_589\n      jump\t// in\n    tag_626:\n        /* \"#utility.yul\":21798:21870   */\n      tag_627\n        /* \"#utility.yul\":21866:21868   */\n      0x40\n        /* \"#utility.yul\":21855:21864   */\n      dup4\n        /* \"#utility.yul\":21851:21869   */\n      add\n        /* \"#utility.yul\":21842:21848   */\n      dup5\n        /* \"#utility.yul\":21798:21870   */\n      tag_459\n      jump\t// in\n    tag_627:\n        /* \"#utility.yul\":21435:21877   */\n      swap5\n      swap4\n      pop\n      pop\n      pop\n      pop\n      jump\t// out\n        /* \"#utility.yul\":21883:22547   */\n    tag_187:\n        /* \"#utility.yul\":22088:22092   */\n      0x00\n        /* \"#utility.yul\":22126:22129   */\n      0xa0\n        /* \"#utility.yul\":22115:22124   */\n      dup3\n        /* \"#utility.yul\":22111:22130   */\n      add\n        /* \"#utility.yul\":22103:22130   */\n      swap1\n      pop\n        /* \"#utility.yul\":22140:22211   */\n      tag_629\n        /* \"#utility.yul\":22208:22209   */\n      0x00\n        /* \"#utility.yul\":22197:22206   */\n      dup4\n        /* \"#utility.yul\":22193:22210   */\n      add\n        /* \"#utility.yul\":22184:22190   */\n      dup9\n        /* \"#utility.yul\":22140:22211   */\n      tag_459\n      jump\t// in\n    tag_629:\n        /* \"#utility.yul\":22221:22293   */\n      tag_630\n        /* \"#utility.yul\":22289:22291   */\n      0x20\n        /* \"#utility.yul\":22278:22287   */\n      dup4\n        /* \"#utility.yul\":22274:22292   */\n      add\n        /* \"#utility.yul\":22265:22271   */\n      dup8\n        /* \"#utility.yul\":22221:22293   */\n      tag_589\n      jump\t// in\n    tag_630:\n        /* \"#utility.yul\":22303:22375   */\n      tag_631\n        /* \"#utility.yul\":22371:22373   */\n      0x40\n        /* \"#utility.yul\":22360:22369   */\n      dup4\n        /* \"#utility.yul\":22356:22374   */\n      add\n        /* \"#utility.yul\":22347:22353   */\n      dup7\n        /* \"#utility.yul\":22303:22375   */\n      tag_459\n      jump\t// in\n    tag_631:\n        /* \"#utility.yul\":22385:22457   */\n      tag_632\n        /* \"#utility.yul\":22453:22455   */\n      0x60\n        /* \"#utility.yul\":22442:22451   */\n      dup4\n        /* \"#utility.yul\":22438:22456   */\n      add\n        /* \"#utility.yul\":22429:22435   */\n      dup6\n        /* \"#utility.yul\":22385:22457   */\n      tag_589\n      jump\t// in\n    tag_632:\n        /* \"#utility.yul\":22467:22540   */\n      tag_633\n        /* \"#utility.yul\":22535:22538   */\n      0x80\n        /* \"#utility.yul\":22524:22533   */\n      dup4\n        /* \"#utility.yul\":22520:22539   */\n      add\n        /* \"#utility.yul\":22511:22517   */\n      dup5\n        /* \"#utility.yul\":22467:22540   */\n      tag_459\n      jump\t// in\n    tag_633:\n        /* \"#utility.yul\":21883:22547   */\n      swap7\n      swap6\n      pop\n      pop\n      pop\n      pop\n      pop\n      pop\n      jump\t// out\n        /* \"#utility.yul\":22553:22995   */\n    tag_163:\n        /* \"#utility.yul\":22702:22706   */\n      0x00\n        /* \"#utility.yul\":22740:22742   */\n      0x60\n        /* \"#utility.yul\":22729:22738   */\n      dup3\n        /* \"#utility.yul\":22725:22743   */\n      add\n        /* \"#utility.yul\":22717:22743   */\n      swap1\n      pop\n        /* \"#utility.yul\":22753:22824   */\n      tag_635\n        /* \"#utility.yul\":22821:22822   */\n      0x00\n        /* \"#utility.yul\":22810:22819   */\n      dup4\n        /* \"#utility.yul\":22806:22823   */\n      add\n        /* \"#utility.yul\":22797:22803   */\n      dup7\n        /* \"#utility.yul\":22753:22824   */\n      tag_459\n      jump\t// in\n    tag_635:\n        /* \"#utility.yul\":22834:22906   */\n      tag_636\n        /* \"#utility.yul\":22902:22904   */\n      0x20\n        /* \"#utility.yul\":22891:22900   */\n      dup4\n        /* \"#utility.yul\":22887:22905   */\n      add\n        /* \"#utility.yul\":22878:22884   */\n      dup6\n        /* \"#utility.yul\":22834:22906   */\n      tag_589\n      jump\t// in\n    tag_636:\n        /* \"#utility.yul\":22916:22988   */\n      tag_637\n        /* \"#utility.yul\":22984:22986   */\n      0x40\n        /* \"#utility.yul\":22973:22982   */\n      dup4\n        /* \"#utility.yul\":22969:22987   */\n      add\n        /* \"#utility.yul\":22960:22966   */\n      dup5\n        /* \"#utility.yul\":22916:22988   */\n      tag_589\n      jump\t// in\n    tag_637:\n        /* \"#utility.yul\":22553:22995   */\n      swap5\n      swap4\n      pop\n      pop\n      pop\n      pop\n      jump\t// out\n        /* \"#utility.yul\":23001:23554   */\n    tag_127:\n        /* \"#utility.yul\":23178:23182   */\n      0x00\n        /* \"#utility.yul\":23216:23219   */\n      0x80\n        /* \"#utility.yul\":23205:23214   */\n      dup3\n        /* \"#utility.yul\":23201:23220   */\n      add\n        /* \"#utility.yul\":23193:23220   */\n      swap1\n      pop\n        /* \"#utility.yul\":23230:23301   */\n      tag_639\n        /* \"#utility.yul\":23298:23299   */\n      0x00\n        /* \"#utility.yul\":23287:23296   */\n      dup4\n        /* \"#utility.yul\":23283:23300   */\n      add\n        /* \"#utility.yul\":23274:23280   */\n      dup8\n        /* \"#utility.yul\":23230:23301   */\n      tag_459\n      jump\t// in\n    tag_639:\n        /* \"#utility.yul\":23311:23383   */\n      tag_640\n        /* \"#utility.yul\":23379:23381   */\n      0x20\n        /* \"#utility.yul\":23368:23377   */\n      dup4\n        /* \"#utility.yul\":23364:23382   */\n      add\n        /* \"#utility.yul\":23355:23361   */\n      dup7\n        /* \"#utility.yul\":23311:23383   */\n      tag_589\n      jump\t// in\n    tag_640:\n        /* \"#utility.yul\":23393:23465   */\n      tag_641\n        /* \"#utility.yul\":23461:23463   */\n      0x40\n        /* \"#utility.yul\":23450:23459   */\n      dup4\n        /* \"#utility.yul\":23446:23464   */\n      add\n        /* \"#utility.yul\":23437:23443   */\n      dup6\n        /* \"#utility.yul\":23393:23465   */\n      tag_589\n      jump\t// in\n    tag_641:\n        /* \"#utility.yul\":23475:23547   */\n      tag_642\n        /* \"#utility.yul\":23543:23545   */\n      0x60\n        /* \"#utility.yul\":23532:23541   */\n      dup4\n        /* \"#utility.yul\":23528:23546   */\n      add\n        /* \"#utility.yul\":23519:23525   */\n      dup5\n        /* \"#utility.yul\":23475:23547   */\n      tag_459\n      jump\t// in\n    tag_642:\n        /* \"#utility.yul\":23001:23554   */\n      swap6\n      swap5\n      pop\n      pop\n      pop\n      pop\n      pop\n      jump\t// out\n        /* \"#utility.yul\":23560:24033   */\n    tag_88:\n        /* \"#utility.yul\":23753:23757   */\n      0x00\n        /* \"#utility.yul\":23791:23793   */\n      0x20\n        /* \"#utility.yul\":23780:23789   */\n      dup3\n        /* \"#utility.yul\":23776:23794   */\n      add\n        /* \"#utility.yul\":23768:23794   */\n      swap1\n      pop\n        /* \"#utility.yul\":23840:23849   */\n      dup2\n        /* \"#utility.yul\":23834:23838   */\n      dup2\n        /* \"#utility.yul\":23830:23850   */\n      sub\n        /* \"#utility.yul\":23826:23827   */\n      0x00\n        /* \"#utility.yul\":23815:23824   */\n      dup4\n        /* \"#utility.yul\":23811:23828   */\n      add\n        /* \"#utility.yul\":23804:23851   */\n      mstore\n        /* \"#utility.yul\":23868:24026   */\n      tag_644\n        /* \"#utility.yul\":24021:24025   */\n      dup2\n        /* \"#utility.yul\":24012:24018   */\n      dup5\n        /* \"#utility.yul\":23868:24026   */\n      tag_462\n      jump\t// in\n    tag_644:\n        /* \"#utility.yul\":23860:24026   */\n      swap1\n      pop\n        /* \"#utility.yul\":23560:24033   */\n      swap3\n      swap2\n      pop\n      pop\n      jump\t// out\n        /* \"#utility.yul\":24039:24257   */\n    tag_30:\n        /* \"#utility.yul\":24130:24134   */\n      0x00\n        /* \"#utility.yul\":24168:24170   */\n      0x20\n        /* \"#utility.yul\":24157:24166   */\n      dup3\n        /* \"#utility.yul\":24153:24171   */\n      add\n        /* \"#utility.yul\":24145:24171   */\n      swap1\n      pop\n        /* \"#utility.yul\":24181:24250   */\n      tag_646\n        /* \"#utility.yul\":24247:24248   */\n      0x00\n        /* \"#utility.yul\":24236:24245   */\n      dup4\n        /* \"#utility.yul\":24232:24249   */\n      add\n        /* \"#utility.yul\":24223:24229   */\n      dup5\n        /* \"#utility.yul\":24181:24250   */\n      tag_476\n      jump\t// in\n    tag_646:\n        /* \"#utility.yul\":24039:24257   */\n      swap3\n      swap2\n      pop\n      pop\n      jump\t// out\n        /* \"#utility.yul\":24263:24682   */\n    tag_171:\n        /* \"#utility.yul\":24429:24433   */\n      0x00\n        /* \"#utility.yul\":24467:24469   */\n      0x20\n        /* \"#utility.yul\":24456:24465   */\n      dup3\n        /* \"#utility.yul\":24452:24470   */\n      add\n        /* \"#utility.yul\":24444:24470   */\n      swap1\n      pop\n        /* \"#utility.yul\":24516:24525   */\n      dup2\n        /* \"#utility.yul\":24510:24514   */\n      dup2\n        /* \"#utility.yul\":24506:24526   */\n      sub\n        /* \"#utility.yul\":24502:24503   */\n      0x00\n        /* \"#utility.yul\":24491:24500   */\n      dup4\n        /* \"#utility.yul\":24487:24504   */\n      add\n        /* \"#utility.yul\":24480:24527   */\n      mstore\n        /* \"#utility.yul\":24544:24675   */\n      tag_648\n        /* \"#utility.yul\":24670:24674   */\n      dup2\n        /* \"#utility.yul\":24544:24675   */\n      tag_480\n      jump\t// in\n    tag_648:\n        /* \"#utility.yul\":24536:24675   */\n      swap1\n      pop\n        /* \"#utility.yul\":24263:24682   */\n      swap2\n      swap1\n      pop\n      jump\t// out\n        /* \"#utility.yul\":24688:25107   */\n    tag_211:\n        /* \"#utility.yul\":24854:24858   */\n      0x00\n        /* \"#utility.yul\":24892:24894   */\n      0x20\n        /* \"#utility.yul\":24881:24890   */\n      dup3\n        /* \"#utility.yul\":24877:24895   */\n      add\n        /* \"#utility.yul\":24869:24895   */\n      swap1\n      pop\n        /* \"#utility.yul\":24941:24950   */\n      dup2\n        /* \"#utility.yul\":24935:24939   */\n      dup2\n        /* \"#utility.yul\":24931:24951   */\n      sub\n        /* \"#utility.yul\":24927:24928   */\n      0x00\n        /* \"#utility.yul\":24916:24925   */\n      dup4\n        /* \"#utility.yul\":24912:24929   */\n      add\n        /* \"#utility.yul\":24905:24952   */\n      mstore\n        /* \"#utility.yul\":24969:25100   */\n      tag_650\n        /* \"#utility.yul\":25095:25099   */\n      dup2\n        /* \"#utility.yul\":24969:25100   */\n      tag_486\n      jump\t// in\n    tag_650:\n        /* \"#utility.yul\":24961:25100   */\n      swap1\n      pop\n        /* \"#utility.yul\":24688:25107   */\n      swap2\n      swap1\n      pop\n      jump\t// out\n        /* \"#utility.yul\":25113:25532   */\n    tag_113:\n        /* \"#utility.yul\":25279:25283   */\n      0x00\n        /* \"#utility.yul\":25317:25319   */\n      0x20\n        /* \"#utility.yul\":25306:25315   */\n      dup3\n        /* \"#utility.yul\":25302:25320   */\n      add\n        /* \"#utility.yul\":25294:25320   */\n      swap1\n      pop\n        /* \"#utility.yul\":25366:25375   */\n      dup2\n        /* \"#utility.yul\":25360:25364   */\n      dup2\n        /* \"#utility.yul\":25356:25376   */\n      sub\n        /* \"#utility.yul\":25352:25353   */\n      0x00\n        /* \"#utility.yul\":25341:25350   */\n      dup4\n        /* \"#utility.yul\":25337:25354   */\n      add\n        /* \"#utility.yul\":25330:25377   */\n      mstore\n        /* \"#utility.yul\":25394:25525   */\n      tag_652\n        /* \"#utility.yul\":25520:25524   */\n      dup2\n        /* \"#utility.yul\":25394:25525   */\n      tag_491\n      jump\t// in\n    tag_652:\n        /* \"#utility.yul\":25386:25525   */\n      swap1\n      pop\n        /* \"#utility.yul\":25113:25532   */\n      swap2\n      swap1\n      pop\n      jump\t// out\n        /* \"#utility.yul\":25538:25957   */\n    tag_233:\n        /* \"#utility.yul\":25704:25708   */\n      0x00\n        /* \"#utility.yul\":25742:25744   */\n      0x20\n        /* \"#utility.yul\":25731:25740   */\n      dup3\n        /* \"#utility.yul\":25727:25745   */\n      add\n        /* \"#utility.yul\":25719:25745   */\n      swap1\n      pop\n        /* \"#utility.yul\":25791:25800   */\n      dup2\n        /* \"#utility.yul\":25785:25789   */\n      dup2\n        /* \"#utility.yul\":25781:25801   */\n      sub\n        /* \"#utility.yul\":25777:25778   */\n      0x00\n        /* \"#utility.yul\":25766:25775   */\n      dup4\n        /* \"#utility.yul\":25762:25779   */\n      add\n        /* \"#utility.yul\":25755:25802   */\n      mstore\n        /* \"#utility.yul\":25819:25950   */\n      tag_654\n        /* \"#utility.yul\":25945:25949   */\n      dup2\n        /* \"#utility.yul\":25819:25950   */\n      tag_496\n      jump\t// in\n    tag_654:\n        /* \"#utility.yul\":25811:25950   */\n      swap1\n      pop\n        /* \"#utility.yul\":25538:25957   */\n      swap2\n      swap1\n      pop\n      jump\t// out\n        /* \"#utility.yul\":25963:26382   */\n    tag_153:\n        /* \"#utility.yul\":26129:26133   */\n      0x00\n        /* \"#utility.yul\":26167:26169   */\n      0x20\n        /* \"#utility.yul\":26156:26165   */\n      dup3\n        /* \"#utility.yul\":26152:26170   */\n      add\n        /* \"#utility.yul\":26144:26170   */\n      swap1\n      pop\n        /* \"#utility.yul\":26216:26225   */\n      dup2\n        /* \"#utility.yul\":26210:26214   */\n      dup2\n        /* \"#utility.yul\":26206:26226   */\n      sub\n        /* \"#utility.yul\":26202:26203   */\n      0x00\n        /* \"#utility.yul\":26191:26200   */\n      dup4\n        /* \"#utility.yul\":26187:26204   */\n      add\n        /* \"#utility.yul\":26180:26227   */\n      mstore\n        /* \"#utility.yul\":26244:26375   */\n      tag_656\n        /* \"#utility.yul\":26370:26374   */\n      dup2\n        /* \"#utility.yul\":26244:26375   */\n      tag_501\n      jump\t// in\n    tag_656:\n        /* \"#utility.yul\":26236:26375   */\n      swap1\n      pop\n        /* \"#utility.yul\":25963:26382   */\n      swap2\n      swap1\n      pop\n      jump\t// out\n        /* \"#utility.yul\":26388:26807   */\n    tag_105:\n        /* \"#utility.yul\":26554:26558   */\n      0x00\n        /* \"#utility.yul\":26592:26594   */\n      0x20\n        /* \"#utility.yul\":26581:26590   */\n      dup3\n        /* \"#utility.yul\":26577:26595   */\n      add\n        /* \"#utility.yul\":26569:26595   */\n      swap1\n      pop\n        /* \"#utility.yul\":26641:26650   */\n      dup2\n        /* \"#utility.yul\":26635:26639   */\n      dup2\n        /* \"#utility.yul\":26631:26651   */\n      sub\n        /* \"#utility.yul\":26627:26628   */\n      0x00\n        /* \"#utility.yul\":26616:26625   */\n      dup4\n        /* \"#utility.yul\":26612:26629   */\n      add\n        /* \"#utility.yul\":26605:26652   */\n      mstore\n        /* \"#utility.yul\":26669:26800   */\n      tag_658\n        /* \"#utility.yul\":26795:26799   */\n      dup2\n        /* \"#utility.yul\":26669:26800   */\n      tag_506\n      jump\t// in\n    tag_658:\n        /* \"#utility.yul\":26661:26800   */\n      swap1\n      pop\n        /* \"#utility.yul\":26388:26807   */\n      swap2\n      swap1\n      pop\n      jump\t// out\n        /* \"#utility.yul\":26813:27232   */\n    tag_118:\n        /* \"#utility.yul\":26979:26983   */\n      0x00\n        /* \"#utility.yul\":27017:27019   */\n      0x20\n        /* \"#utility.yul\":27006:27015   */\n      dup3\n        /* \"#utility.yul\":27002:27020   */\n      add\n        /* \"#utility.yul\":26994:27020   */\n      swap1\n      pop\n        /* \"#utility.yul\":27066:27075   */\n      dup2\n        /* \"#utility.yul\":27060:27064   */\n      dup2\n        /* \"#utility.yul\":27056:27076   */\n      sub\n        /* \"#utility.yul\":27052:27053   */\n      0x00\n        /* \"#utility.yul\":27041:27050   */\n      dup4\n        /* \"#utility.yul\":27037:27054   */\n      add\n        /* \"#utility.yul\":27030:27077   */\n      mstore\n        /* \"#utility.yul\":27094:27225   */\n      tag_660\n        /* \"#utility.yul\":27220:27224   */\n      dup2\n        /* \"#utility.yul\":27094:27225   */\n      tag_511\n      jump\t// in\n    tag_660:\n        /* \"#utility.yul\":27086:27225   */\n      swap1\n      pop\n        /* \"#utility.yul\":26813:27232   */\n      swap2\n      swap1\n      pop\n      jump\t// out\n        /* \"#utility.yul\":27238:27657   */\n    tag_109:\n        /* \"#utility.yul\":27404:27408   */\n      0x00\n        /* \"#utility.yul\":27442:27444   */\n      0x20\n        /* \"#utility.yul\":27431:27440   */\n      dup3\n        /* \"#utility.yul\":27427:27445   */\n      add\n        /* \"#utility.yul\":27419:27445   */\n      swap1\n      pop\n        /* \"#utility.yul\":27491:27500   */\n      dup2\n        /* \"#utility.yul\":27485:27489   */\n      dup2\n        /* \"#utility.yul\":27481:27501   */\n      sub\n        /* \"#utility.yul\":27477:27478   */\n      0x00\n        /* \"#utility.yul\":27466:27475   */\n      dup4\n        /* \"#utility.yul\":27462:27479   */\n      add\n        /* \"#utility.yul\":27455:27502   */\n      mstore\n        /* \"#utility.yul\":27519:27650   */\n      tag_662\n        /* \"#utility.yul\":27645:27649   */\n      dup2\n        /* \"#utility.yul\":27519:27650   */\n      tag_516\n      jump\t// in\n    tag_662:\n        /* \"#utility.yul\":27511:27650   */\n      swap1\n      pop\n        /* \"#utility.yul\":27238:27657   */\n      swap2\n      swap1\n      pop\n      jump\t// out\n        /* \"#utility.yul\":27663:28082   */\n    tag_200:\n        /* \"#utility.yul\":27829:27833   */\n      0x00\n        /* \"#utility.yul\":27867:27869   */\n      0x20\n        /* \"#utility.yul\":27856:27865   */\n      dup3\n        /* \"#utility.yul\":27852:27870   */\n      add\n        /* \"#utility.yul\":27844:27870   */\n      swap1\n      pop\n        /* \"#utility.yul\":27916:27925   */\n      dup2\n        /* \"#utility.yul\":27910:27914   */\n      dup2\n        /* \"#utility.yul\":27906:27926   */\n      sub\n        /* \"#utility.yul\":27902:27903   */\n      0x00\n        /* \"#utility.yul\":27891:27900   */\n      dup4\n        /* \"#utility.yul\":27887:27904   */\n      add\n        /* \"#utility.yul\":27880:27927   */\n      mstore\n        /* \"#utility.yul\":27944:28075   */\n      tag_664\n        /* \"#utility.yul\":28070:28074   */\n      dup2\n        /* \"#utility.yul\":27944:28075   */\n      tag_521\n      jump\t// in\n    tag_664:\n        /* \"#utility.yul\":27936:28075   */\n      swap1\n      pop\n        /* \"#utility.yul\":27663:28082   */\n      swap2\n      swap1\n      pop\n      jump\t// out\n        /* \"#utility.yul\":28088:28507   */\n    tag_240:\n        /* \"#utility.yul\":28254:28258   */\n      0x00\n        /* \"#utility.yul\":28292:28294   */\n      0x20\n        /* \"#utility.yul\":28281:28290   */\n      dup3\n        /* \"#utility.yul\":28277:28295   */\n      add\n        /* \"#utility.yul\":28269:28295   */\n      swap1\n      pop\n        /* \"#utility.yul\":28341:28350   */\n      dup2\n        /* \"#utility.yul\":28335:28339   */\n      dup2\n        /* \"#utility.yul\":28331:28351   */\n      sub\n        /* \"#utility.yul\":28327:28328   */\n      0x00\n        /* \"#utility.yul\":28316:28325   */\n      dup4\n        /* \"#utility.yul\":28312:28329   */\n      add\n        /* \"#utility.yul\":28305:28352   */\n      mstore\n        /* \"#utility.yul\":28369:28500   */\n      tag_666\n        /* \"#utility.yul\":28495:28499   */\n      dup2\n        /* \"#utility.yul\":28369:28500   */\n      tag_526\n      jump\t// in\n    tag_666:\n        /* \"#utility.yul\":28361:28500   */\n      swap1\n      pop\n        /* \"#utility.yul\":28088:28507   */\n      swap2\n      swap1\n      pop\n      jump\t// out\n        /* \"#utility.yul\":28513:28932   */\n    tag_327:\n        /* \"#utility.yul\":28679:28683   */\n      0x00\n        /* \"#utility.yul\":28717:28719   */\n      0x20\n        /* \"#utility.yul\":28706:28715   */\n      dup3\n        /* \"#utility.yul\":28702:28720   */\n      add\n        /* \"#utility.yul\":28694:28720   */\n      swap1\n      pop\n        /* \"#utility.yul\":28766:28775   */\n      dup2\n        /* \"#utility.yul\":28760:28764   */\n      dup2\n        /* \"#utility.yul\":28756:28776   */\n      sub\n        /* \"#utility.yul\":28752:28753   */\n      0x00\n        /* \"#utility.yul\":28741:28750   */\n      dup4\n        /* \"#utility.yul\":28737:28754   */\n      add\n        /* \"#utility.yul\":28730:28777   */\n      mstore\n        /* \"#utility.yul\":28794:28925   */\n      tag_668\n        /* \"#utility.yul\":28920:28924   */\n      dup2\n        /* \"#utility.yul\":28794:28925   */\n      tag_531\n      jump\t// in\n    tag_668:\n        /* \"#utility.yul\":28786:28925   */\n      swap1\n      pop\n        /* \"#utility.yul\":28513:28932   */\n      swap2\n      swap1\n      pop\n      jump\t// out\n        /* \"#utility.yul\":28938:29357   */\n    tag_167:\n        /* \"#utility.yul\":29104:29108   */\n      0x00\n        /* \"#utility.yul\":29142:29144   */\n      0x20\n        /* \"#utility.yul\":29131:29140   */\n      dup3\n        /* \"#utility.yul\":29127:29145   */\n      add\n        /* \"#utility.yul\":29119:29145   */\n      swap1\n      pop\n        /* \"#utility.yul\":29191:29200   */\n      dup2\n        /* \"#utility.yul\":29185:29189   */\n      dup2\n        /* \"#utility.yul\":29181:29201   */\n      sub\n        /* \"#utility.yul\":29177:29178   */\n      0x00\n        /* \"#utility.yul\":29166:29175   */\n      dup4\n        /* \"#utility.yul\":29162:29179   */\n      add\n        /* \"#utility.yul\":29155:29202   */\n      mstore\n        /* \"#utility.yul\":29219:29350   */\n      tag_670\n        /* \"#utility.yul\":29345:29349   */\n      dup2\n        /* \"#utility.yul\":29219:29350   */\n      tag_536\n      jump\t// in\n    tag_670:\n        /* \"#utility.yul\":29211:29350   */\n      swap1\n      pop\n        /* \"#utility.yul\":28938:29357   */\n      swap2\n      swap1\n      pop\n      jump\t// out\n        /* \"#utility.yul\":29363:29782   */\n    tag_157:\n        /* \"#utility.yul\":29529:29533   */\n      0x00\n        /* \"#utility.yul\":29567:29569   */\n      0x20\n        /* \"#utility.yul\":29556:29565   */\n      dup3\n        /* \"#utility.yul\":29552:29570   */\n      add\n        /* \"#utility.yul\":29544:29570   */\n      swap1\n      pop\n        /* \"#utility.yul\":29616:29625   */\n      dup2\n        /* \"#utility.yul\":29610:29614   */\n      dup2\n        /* \"#utility.yul\":29606:29626   */\n      sub\n        /* \"#utility.yul\":29602:29603   */\n      0x00\n        /* \"#utility.yul\":29591:29600   */\n      dup4\n        /* \"#utility.yul\":29587:29604   */\n      add\n        /* \"#utility.yul\":29580:29627   */\n      mstore\n        /* \"#utility.yul\":29644:29775   */\n      tag_672\n        /* \"#utility.yul\":29770:29774   */\n      dup2\n        /* \"#utility.yul\":29644:29775   */\n      tag_541\n      jump\t// in\n    tag_672:\n        /* \"#utility.yul\":29636:29775   */\n      swap1\n      pop\n        /* \"#utility.yul\":29363:29782   */\n      swap2\n      swap1\n      pop\n      jump\t// out\n        /* \"#utility.yul\":29788:30207   */\n    tag_174:\n        /* \"#utility.yul\":29954:29958   */\n      0x00\n        /* \"#utility.yul\":29992:29994   */\n      0x20\n        /* \"#utility.yul\":29981:29990   */\n      dup3\n        /* \"#utility.yul\":29977:29995   */\n      add\n        /* \"#utility.yul\":29969:29995   */\n      swap1\n      pop\n        /* \"#utility.yul\":30041:30050   */\n      dup2\n        /* \"#utility.yul\":30035:30039   */\n      dup2\n        /* \"#utility.yul\":30031:30051   */\n      sub\n        /* \"#utility.yul\":30027:30028   */\n      0x00\n        /* \"#utility.yul\":30016:30025   */\n      dup4\n        /* \"#utility.yul\":30012:30029   */\n      add\n        /* \"#utility.yul\":30005:30052   */\n      mstore\n        /* \"#utility.yul\":30069:30200   */\n      tag_674\n        /* \"#utility.yul\":30195:30199   */\n      dup2\n        /* \"#utility.yul\":30069:30200   */\n      tag_552\n      jump\t// in\n    tag_674:\n        /* \"#utility.yul\":30061:30200   */\n      swap1\n      pop\n        /* \"#utility.yul\":29788:30207   */\n      swap2\n      swap1\n      pop\n      jump\t// out\n        /* \"#utility.yul\":30213:30632   */\n    tag_263:\n        /* \"#utility.yul\":30379:30383   */\n      0x00\n        /* \"#utility.yul\":30417:30419   */\n      0x20\n        /* \"#utility.yul\":30406:30415   */\n      dup3\n        /* \"#utility.yul\":30402:30420   */\n      add\n        /* \"#utility.yul\":30394:30420   */\n      swap1\n      pop\n        /* \"#utility.yul\":30466:30475   */\n      dup2\n        /* \"#utility.yul\":30460:30464   */\n      dup2\n        /* \"#utility.yul\":30456:30476   */\n      sub\n        /* \"#utility.yul\":30452:30453   */\n      0x00\n        /* \"#utility.yul\":30441:30450   */\n      dup4\n        /* \"#utility.yul\":30437:30454   */\n      add\n        /* \"#utility.yul\":30430:30477   */\n      mstore\n        /* \"#utility.yul\":30494:30625   */\n      tag_676\n        /* \"#utility.yul\":30620:30624   */\n      dup2\n        /* \"#utility.yul\":30494:30625   */\n      tag_557\n      jump\t// in\n    tag_676:\n        /* \"#utility.yul\":30486:30625   */\n      swap1\n      pop\n        /* \"#utility.yul\":30213:30632   */\n      swap2\n      swap1\n      pop\n      jump\t// out\n        /* \"#utility.yul\":30638:31057   */\n    tag_371:\n        /* \"#utility.yul\":30804:30808   */\n      0x00\n        /* \"#utility.yul\":30842:30844   */\n      0x20\n        /* \"#utility.yul\":30831:30840   */\n      dup3\n        /* \"#utility.yul\":30827:30845   */\n      add\n        /* \"#utility.yul\":30819:30845   */\n      swap1\n      pop\n        /* \"#utility.yul\":30891:30900   */\n      dup2\n        /* \"#utility.yul\":30885:30889   */\n      dup2\n        /* \"#utility.yul\":30881:30901   */\n      sub\n        /* \"#utility.yul\":30877:30878   */\n      0x00\n        /* \"#utility.yul\":30866:30875   */\n      dup4\n        /* \"#utility.yul\":30862:30879   */\n      add\n        /* \"#utility.yul\":30855:30902   */\n      mstore\n        /* \"#utility.yul\":30919:31050   */\n      tag_678\n        /* \"#utility.yul\":31045:31049   */\n      dup2\n        /* \"#utility.yul\":30919:31050   */\n      tag_562\n      jump\t// in\n    tag_678:\n        /* \"#utility.yul\":30911:31050   */\n      swap1\n      pop\n        /* \"#utility.yul\":30638:31057   */\n      swap2\n      swap1\n      pop\n      jump\t// out\n        /* \"#utility.yul\":31063:31382   */\n    tag_67:\n        /* \"#utility.yul\":31204:31208   */\n      0x00\n        /* \"#utility.yul\":31242:31245   */\n      0xe0\n        /* \"#utility.yul\":31231:31240   */\n      dup3\n        /* \"#utility.yul\":31227:31246   */\n      add\n        /* \"#utility.yul\":31219:31246   */\n      swap1\n      pop\n        /* \"#utility.yul\":31256:31375   */\n      tag_680\n        /* \"#utility.yul\":31372:31373   */\n      0x00\n        /* \"#utility.yul\":31361:31370   */\n      dup4\n        /* \"#utility.yul\":31357:31374   */\n      add\n        /* \"#utility.yul\":31348:31354   */\n      dup5\n        /* \"#utility.yul\":31256:31375   */\n      tag_567\n      jump\t// in\n    tag_680:\n        /* \"#utility.yul\":31063:31382   */\n      swap3\n      swap2\n      pop\n      pop\n      jump\t// out\n        /* \"#utility.yul\":31388:31715   */\n    tag_83:\n        /* \"#utility.yul\":31533:31537   */\n      0x00\n        /* \"#utility.yul\":31571:31574   */\n      0x80\n        /* \"#utility.yul\":31560:31569   */\n      dup3\n        /* \"#utility.yul\":31556:31575   */\n      add\n        /* \"#utility.yul\":31548:31575   */\n      swap1\n      pop\n        /* \"#utility.yul\":31585:31708   */\n      tag_682\n        /* \"#utility.yul\":31705:31706   */\n      0x00\n        /* \"#utility.yul\":31694:31703   */\n      dup4\n        /* \"#utility.yul\":31690:31707   */\n      add\n        /* \"#utility.yul\":31681:31687   */\n      dup5\n        /* \"#utility.yul\":31585:31708   */\n      tag_577\n      jump\t// in\n    tag_682:\n        /* \"#utility.yul\":31388:31715   */\n      swap3\n      swap2\n      pop\n      pop\n      jump\t// out\n        /* \"#utility.yul\":31721:31943   */\n    tag_56:\n        /* \"#utility.yul\":31814:31818   */\n      0x00\n        /* \"#utility.yul\":31852:31854   */\n      0x20\n        /* \"#utility.yul\":31841:31850   */\n      dup3\n        /* \"#utility.yul\":31837:31855   */\n      add\n        /* \"#utility.yul\":31829:31855   */\n      swap1\n      pop\n        /* \"#utility.yul\":31865:31936   */\n      tag_684\n        /* \"#utility.yul\":31933:31934   */\n      0x00\n        /* \"#utility.yul\":31922:31931   */\n      dup4\n        /* \"#utility.yul\":31918:31935   */\n      add\n        /* \"#utility.yul\":31909:31915   */\n      dup5\n        /* \"#utility.yul\":31865:31936   */\n      tag_589\n      jump\t// in\n    tag_684:\n        /* \"#utility.yul\":31721:31943   */\n      swap3\n      swap2\n      pop\n      pop\n      jump\t// out\n        /* \"#utility.yul\":32030:32187   */\n    tag_469:\n        /* \"#utility.yul\":32122:32126   */\n      0x00\n        /* \"#utility.yul\":32145:32148   */\n      dup2\n        /* \"#utility.yul\":32137:32148   */\n      swap1\n      pop\n        /* \"#utility.yul\":32175:32179   */\n      0x20\n        /* \"#utility.yul\":32170:32173   */\n      dup3\n        /* \"#utility.yul\":32166:32180   */\n      add\n        /* \"#utility.yul\":32158:32180   */\n      swap1\n      pop\n        /* \"#utility.yul\":32030:32187   */\n      swap2\n      swap1\n      pop\n      jump\t// out\n        /* \"#utility.yul\":32193:32332   */\n    tag_465:\n        /* \"#utility.yul\":32285:32291   */\n      0x00\n        /* \"#utility.yul\":32319:32324   */\n      dup2\n        /* \"#utility.yul\":32313:32325   */\n      mload\n        /* \"#utility.yul\":32303:32325   */\n      swap1\n      pop\n        /* \"#utility.yul\":32193:32332   */\n      swap2\n      swap1\n      pop\n      jump\t// out\n        /* \"#utility.yul\":32338:32476   */\n    tag_475:\n        /* \"#utility.yul\":32433:32437   */\n      0x00\n        /* \"#utility.yul\":32465:32469   */\n      0x20\n        /* \"#utility.yul\":32460:32463   */\n      dup3\n        /* \"#utility.yul\":32456:32470   */\n      add\n        /* \"#utility.yul\":32448:32470   */\n      swap1\n      pop\n        /* \"#utility.yul\":32338:32476   */\n      swap2\n      swap1\n      pop\n      jump\t// out\n        /* \"#utility.yul\":32482:32691   */\n    tag_467:\n        /* \"#utility.yul\":32606:32617   */\n      0x00\n        /* \"#utility.yul\":32640:32646   */\n      dup3\n        /* \"#utility.yul\":32635:32638   */\n      dup3\n        /* \"#utility.yul\":32628:32647   */\n      mstore\n        /* \"#utility.yul\":32680:32684   */\n      0x20\n        /* \"#utility.yul\":32675:32678   */\n      dup3\n        /* \"#utility.yul\":32671:32685   */\n      add\n        /* \"#utility.yul\":32656:32685   */\n      swap1\n      pop\n        /* \"#utility.yul\":32482:32691   */\n      swap3\n      swap2\n      pop\n      pop\n      jump\t// out\n        /* \"#utility.yul\":32697:32844   */\n    tag_549:\n        /* \"#utility.yul\":32798:32809   */\n      0x00\n        /* \"#utility.yul\":32835:32838   */\n      dup2\n        /* \"#utility.yul\":32820:32838   */\n      swap1\n      pop\n        /* \"#utility.yul\":32697:32844   */\n      swap3\n      swap2\n      pop\n      pop\n      jump\t// out\n        /* \"#utility.yul\":32850:33019   */\n    tag_483:\n        /* \"#utility.yul\":32934:32945   */\n      0x00\n        /* \"#utility.yul\":32968:32974   */\n      dup3\n        /* \"#utility.yul\":32963:32966   */\n      dup3\n        /* \"#utility.yul\":32956:32975   */\n      mstore\n        /* \"#utility.yul\":33008:33012   */\n      0x20\n        /* \"#utility.yul\":33003:33006   */\n      dup3\n        /* \"#utility.yul\":32999:33013   */\n      add\n        /* \"#utility.yul\":32984:33013   */\n      swap1\n      pop\n        /* \"#utility.yul\":32850:33019   */\n      swap3\n      swap2\n      pop\n      pop\n      jump\t// out\n        /* \"#utility.yul\":33025:33330   */\n    tag_330:\n        /* \"#utility.yul\":33065:33068   */\n      0x00\n        /* \"#utility.yul\":33084:33104   */\n      tag_694\n        /* \"#utility.yul\":33102:33103   */\n      dup3\n        /* \"#utility.yul\":33084:33104   */\n      tag_588\n      jump\t// in\n    tag_694:\n        /* \"#utility.yul\":33079:33104   */\n      swap2\n      pop\n        /* \"#utility.yul\":33118:33138   */\n      tag_695\n        /* \"#utility.yul\":33136:33137   */\n      dup4\n        /* \"#utility.yul\":33118:33138   */\n      tag_588\n      jump\t// in\n    tag_695:\n        /* \"#utility.yul\":33113:33138   */\n      swap3\n      pop\n        /* \"#utility.yul\":33272:33273   */\n      dup3\n        /* \"#utility.yul\":33204:33270   */\n      0xffffffffffffffffffffffffffffffffffffffffffffffffffffffffffffffff\n        /* \"#utility.yul\":33200:33274   */\n      sub\n        /* \"#utility.yul\":33197:33198   */\n      dup3\n        /* \"#utility.yul\":33194:33275   */\n      gt\n        /* \"#utility.yul\":33191:33298   */\n      iszero\n      tag_696\n      jumpi\n        /* \"#utility.yul\":33278:33296   */\n      tag_697\n      tag_698\n      jump\t// in\n    tag_697:\n        /* \"#utility.yul\":33191:33298   */\n    tag_696:\n        /* \"#utility.yul\":33322:33323   */\n      dup3\n        /* \"#utility.yul\":33319:33320   */\n      dup3\n        /* \"#utility.yul\":33315:33324   */\n      add\n        /* \"#utility.yul\":33308:33324   */\n      swap1\n      pop\n        /* \"#utility.yul\":33025:33330   */\n      swap3\n      swap2\n      pop\n      pop\n      jump\t// out\n        /* \"#utility.yul\":33336:33432   */\n    tag_458:\n        /* \"#utility.yul\":33373:33380   */\n      0x00\n        /* \"#utility.yul\":33402:33426   */\n      tag_700\n        /* \"#utility.yul\":33420:33425   */\n      dup3\n        /* \"#utility.yul\":33402:33426   */\n      tag_701\n      jump\t// in\n    tag_700:\n        /* \"#utility.yul\":33391:33426   */\n      swap1\n      pop\n        /* \"#utility.yul\":33336:33432   */\n      swap2\n      swap1\n      pop\n      jump\t// out\n        /* \"#utility.yul\":33438:33528   */\n    tag_702:\n        /* \"#utility.yul\":33472:33479   */\n      0x00\n        /* \"#utility.yul\":33515:33520   */\n      dup2\n        /* \"#utility.yul\":33508:33521   */\n      iszero\n        /* \"#utility.yul\":33501:33522   */\n      iszero\n        /* \"#utility.yul\":33490:33522   */\n      swap1\n      pop\n        /* \"#utility.yul\":33438:33528   */\n      swap2\n      swap1\n      pop\n      jump\t// out\n        /* \"#utility.yul\":33534:33683   */\n    tag_479:\n        /* \"#utility.yul\":33570:33577   */\n      0x00\n        /* \"#utility.yul\":33610:33676   */\n      0xffffffff00000000000000000000000000000000000000000000000000000000\n        /* \"#utility.yul\":33603:33608   */\n      dup3\n        /* \"#utility.yul\":33599:33677   */\n      and\n        /* \"#utility.yul\":33588:33677   */\n      swap1\n      pop\n        /* \"#utility.yul\":33534:33683   */\n      swap2\n      swap1\n      pop\n      jump\t// out\n        /* \"#utility.yul\":33689:33815   */\n    tag_701:\n        /* \"#utility.yul\":33726:33733   */\n      0x00\n        /* \"#utility.yul\":33766:33808   */\n      0xffffffffffffffffffffffffffffffffffffffff\n        /* \"#utility.yul\":33759:33764   */\n      dup3\n        /* \"#utility.yul\":33755:33809   */\n      and\n        /* \"#utility.yul\":33744:33809   */\n      swap1\n      pop\n        /* \"#utility.yul\":33689:33815   */\n      swap2\n      swap1\n      pop\n      jump\t// out\n        /* \"#utility.yul\":33821:33898   */\n    tag_588:\n        /* \"#utility.yul\":33858:33865   */\n      0x00\n        /* \"#utility.yul\":33887:33892   */\n      dup2\n        /* \"#utility.yul\":33876:33892   */\n      swap1\n      pop\n        /* \"#utility.yul\":33821:33898   */\n      swap2\n      swap1\n      pop\n      jump\t// out\n        /* \"#utility.yul\":33904:34084   */\n    tag_698:\n        /* \"#utility.yul\":33952:34029   */\n      0x4e487b7100000000000000000000000000000000000000000000000000000000\n        /* \"#utility.yul\":33949:33950   */\n      0x00\n        /* \"#utility.yul\":33942:34030   */\n      mstore\n        /* \"#utility.yul\":34049:34053   */\n      0x11\n        /* \"#utility.yul\":34046:34047   */\n      0x04\n        /* \"#utility.yul\":34039:34054   */\n      mstore\n        /* \"#utility.yul\":34073:34077   */\n      0x24\n        /* \"#utility.yul\":34070:34071   */\n      0x00\n        /* \"#utility.yul\":34063:34078   */\n      revert\n        /* \"#utility.yul\":34090:34270   */\n    tag_271:\n        /* \"#utility.yul\":34138:34215   */\n      0x4e487b7100000000000000000000000000000000000000000000000000000000\n        /* \"#utility.yul\":34135:34136   */\n      0x00\n        /* \"#utility.yul\":34128:34216   */\n      mstore\n        /* \"#utility.yul\":34235:34239   */\n      0x32\n        /* \"#utility.yul\":34232:34233   */\n      0x04\n        /* \"#utility.yul\":34225:34240   */\n      mstore\n        /* \"#utility.yul\":34259:34263   */\n      0x24\n        /* \"#utility.yul\":34256:34257   */\n      0x00\n        /* \"#utility.yul\":34249:34264   */\n      revert\n        /* \"#utility.yul\":34276:34393   */\n    tag_391:\n        /* \"#utility.yul\":34385:34386   */\n      0x00\n        /* \"#utility.yul\":34382:34383   */\n      dup1\n        /* \"#utility.yul\":34375:34387   */\n      revert\n        /* \"#utility.yul\":34399:34516   */\n    tag_388:\n        /* \"#utility.yul\":34508:34509   */\n      0x00\n        /* \"#utility.yul\":34505:34506   */\n      dup1\n        /* \"#utility.yul\":34498:34510   */\n      revert\n        /* \"#utility.yul\":34522:34639   */\n    tag_394:\n        /* \"#utility.yul\":34631:34632   */\n      0x00\n        /* \"#utility.yul\":34628:34629   */\n      dup1\n        /* \"#utility.yul\":34621:34633   */\n      revert\n        /* \"#utility.yul\":34645:34762   */\n    tag_412:\n        /* \"#utility.yul\":34754:34755   */\n      0x00\n        /* \"#utility.yul\":34751:34752   */\n      dup1\n        /* \"#utility.yul\":34744:34756   */\n      revert\n        /* \"#utility.yul\":34768:34885   */\n    tag_402:\n        /* \"#utility.yul\":34877:34878   */\n      0x00\n        /* \"#utility.yul\":34874:34875   */\n      dup1\n        /* \"#utility.yul\":34867:34879   */\n      revert\n        /* \"#utility.yul\":34891:35063   */\n    tag_485:\n        /* \"#utility.yul\":35031:35055   */\n      0x596f752061726520686967686573742062696464657200000000000000000000\n        /* \"#utility.yul\":35027:35028   */\n      0x00\n        /* \"#utility.yul\":35019:35025   */\n      dup3\n        /* \"#utility.yul\":35015:35029   */\n      add\n        /* \"#utility.yul\":35008:35056   */\n      mstore\n        /* \"#utility.yul\":34891:35063   */\n      pop\n      jump\t// out\n        /* \"#utility.yul\":35069:35247   */\n    tag_490:\n        /* \"#utility.yul\":35209:35239   */\n      0x4e6674206e6f7420617070726f76656420746f20636f6e747261637400000000\n        /* \"#utility.yul\":35205:35206   */\n      0x00\n        /* \"#utility.yul\":35197:35203   */\n      dup3\n        /* \"#utility.yul\":35193:35207   */\n      add\n        /* \"#utility.yul\":35186:35240   */\n      mstore\n        /* \"#utility.yul\":35069:35247   */\n      pop\n      jump\t// out\n        /* \"#utility.yul\":35253:35420   */\n    tag_495:\n        /* \"#utility.yul\":35393:35412   */\n      0x50726963652063616e6e6f742062652030000000000000000000000000000000\n        /* \"#utility.yul\":35389:35390   */\n      0x00\n        /* \"#utility.yul\":35381:35387   */\n      dup3\n        /* \"#utility.yul\":35377:35391   */\n      add\n        /* \"#utility.yul\":35370:35413   */\n      mstore\n        /* \"#utility.yul\":35253:35420   */\n      pop\n      jump\t// out\n        /* \"#utility.yul\":35426:35589   */\n    tag_500:\n        /* \"#utility.yul\":35566:35581   */\n      0x6e6f74206e6674206f776e657200000000000000000000000000000000000000\n        /* \"#utility.yul\":35562:35563   */\n      0x00\n        /* \"#utility.yul\":35554:35560   */\n      dup3\n        /* \"#utility.yul\":35550:35564   */\n      add\n        /* \"#utility.yul\":35543:35582   */\n      mstore\n        /* \"#utility.yul\":35426:35589   */\n      pop\n      jump\t// out\n        /* \"#utility.yul\":35595:35766   */\n    tag_505:\n        /* \"#utility.yul\":35735:35758   */\n      0x4e6674206e6f7420696e2066697865642073616c650000000000000000000000\n        /* \"#utility.yul\":35731:35732   */\n      0x00\n        /* \"#utility.yul\":35723:35729   */\n      dup3\n        /* \"#utility.yul\":35719:35733   */\n      add\n        /* \"#utility.yul\":35712:35759   */\n      mstore\n        /* \"#utility.yul\":35595:35766   */\n      pop\n      jump\t// out\n        /* \"#utility.yul\":35772:35945   */\n    tag_510:\n        /* \"#utility.yul\":35912:35937   */\n      0x4e6674206e6f7420696e2061756374696f6e2073616c65000000000000000000\n        /* \"#utility.yul\":35908:35909   */\n      0x00\n        /* \"#utility.yul\":35900:35906   */\n      dup3\n        /* \"#utility.yul\":35896:35910   */\n      add\n        /* \"#utility.yul\":35889:35938   */\n      mstore\n        /* \"#utility.yul\":35772:35945   */\n      pop\n      jump\t// out\n        /* \"#utility.yul\":35951:36130   */\n    tag_515:\n        /* \"#utility.yul\":36091:36122   */\n      0x4269642047726561746572207468616e2050726576696f757320426964000000\n        /* \"#utility.yul\":36087:36088   */\n      0x00\n        /* \"#utility.yul\":36079:36085   */\n      dup3\n        /* \"#utility.yul\":36075:36089   */\n      add\n        /* \"#utility.yul\":36068:36123   */\n      mstore\n        /* \"#utility.yul\":35951:36130   */\n      pop\n      jump\t// out\n        /* \"#utility.yul\":36136:36297   */\n    tag_520:\n        /* \"#utility.yul\":36276:36289   */\n      0x41756374696f6e20656e64000000000000000000000000000000000000000000\n        /* \"#utility.yul\":36272:36273   */\n      0x00\n        /* \"#utility.yul\":36264:36270   */\n      dup3\n        /* \"#utility.yul\":36260:36274   */\n      add\n        /* \"#utility.yul\":36253:36290   */\n      mstore\n        /* \"#utility.yul\":36136:36297   */\n      pop\n      jump\t// out\n        /* \"#utility.yul\":36303:36472   */\n    tag_525:\n        /* \"#utility.yul\":36443:36464   */\n      0x4e667420616c726561647920696e2073616c6500000000000000000000000000\n        /* \"#utility.yul\":36439:36440   */\n      0x00\n        /* \"#utility.yul\":36431:36437   */\n      dup3\n        /* \"#utility.yul\":36427:36441   */\n      add\n        /* \"#utility.yul\":36420:36465   */\n      mstore\n        /* \"#utility.yul\":36303:36472   */\n      pop\n      jump\t// out\n        /* \"#utility.yul\":36478:36636   */\n    tag_530:\n        /* \"#utility.yul\":36618:36628   */\n      0x626964206d616b65000000000000000000000000000000000000000000000000\n        /* \"#utility.yul\":36614:36615   */\n      0x00\n        /* \"#utility.yul\":36606:36612   */\n      dup3\n        /* \"#utility.yul\":36602:36616   */\n      add\n        /* \"#utility.yul\":36595:36629   */\n      mstore\n        /* \"#utility.yul\":36478:36636   */\n      pop\n      jump\t// out\n        /* \"#utility.yul\":36642:36812   */\n    tag_535:\n        /* \"#utility.yul\":36782:36804   */\n      0x616c6c6f77616e6365206e6f7420656e6f756768000000000000000000000000\n        /* \"#utility.yul\":36778:36779   */\n      0x00\n        /* \"#utility.yul\":36770:36776   */\n      dup3\n        /* \"#utility.yul\":36766:36780   */\n      add\n        /* \"#utility.yul\":36759:36805   */\n      mstore\n        /* \"#utility.yul\":36642:36812   */\n      pop\n      jump\t// out\n        /* \"#utility.yul\":36818:36983   */\n    tag_540:\n        /* \"#utility.yul\":36958:36975   */\n      0x41756374696f6e206e6f7420656e640000000000000000000000000000000000\n        /* \"#utility.yul\":36954:36955   */\n      0x00\n        /* \"#utility.yul\":36946:36952   */\n      dup3\n        /* \"#utility.yul\":36942:36956   */\n      add\n        /* \"#utility.yul\":36935:36976   */\n      mstore\n        /* \"#utility.yul\":36818:36983   */\n      pop\n      jump\t// out\n        /* \"#utility.yul\":36989:37160   */\n    tag_545:\n        /* \"#utility.yul\":37129:37152   */\n      0x596f7520617265206e6f74206e6674206f776e65720000000000000000000000\n        /* \"#utility.yul\":37125:37126   */\n      0x00\n        /* \"#utility.yul\":37117:37123   */\n      dup3\n        /* \"#utility.yul\":37113:37127   */\n      add\n        /* \"#utility.yul\":37106:37153   */\n      mstore\n        /* \"#utility.yul\":36989:37160   */\n      pop\n      jump\t// out\n        /* \"#utility.yul\":37166:37280   */\n    tag_551:\n      pop\n      jump\t// out\n        /* \"#utility.yul\":37286:37455   */\n    tag_556:\n        /* \"#utility.yul\":37426:37447   */\n      0x6e6f7468696e6720746f20776974686472617700000000000000000000000000\n        /* \"#utility.yul\":37422:37423   */\n      0x00\n        /* \"#utility.yul\":37414:37420   */\n      dup3\n        /* \"#utility.yul\":37410:37424   */\n      add\n        /* \"#utility.yul\":37403:37448   */\n      mstore\n        /* \"#utility.yul\":37286:37455   */\n      pop\n      jump\t// out\n        /* \"#utility.yul\":37461:37631   */\n    tag_561:\n        /* \"#utility.yul\":37601:37623   */\n      0x627579205072696365206e6f7420656e6f756768000000000000000000000000\n        /* \"#utility.yul\":37597:37598   */\n      0x00\n        /* \"#utility.yul\":37589:37595   */\n      dup3\n        /* \"#utility.yul\":37585:37599   */\n      add\n        /* \"#utility.yul\":37578:37624   */\n      mstore\n        /* \"#utility.yul\":37461:37631   */\n      pop\n      jump\t// out\n        /* \"#utility.yul\":37637:37800   */\n    tag_566:\n        /* \"#utility.yul\":37777:37792   */\n      0x726566756e64206661696c656400000000000000000000000000000000000000\n        /* \"#utility.yul\":37773:37774   */\n      0x00\n        /* \"#utility.yul\":37765:37771   */\n      dup3\n        /* \"#utility.yul\":37761:37775   */\n      add\n        /* \"#utility.yul\":37754:37793   */\n      mstore\n        /* \"#utility.yul\":37637:37800   */\n      pop\n      jump\t// out\n        /* \"#utility.yul\":37806:37928   */\n    tag_376:\n        /* \"#utility.yul\":37879:37903   */\n      tag_732\n        /* \"#utility.yul\":37897:37902   */\n      dup2\n        /* \"#utility.yul\":37879:37903   */\n      tag_458\n      jump\t// in\n    tag_732:\n        /* \"#utility.yul\":37872:37877   */\n      dup2\n        /* \"#utility.yul\":37869:37904   */\n      eq\n        /* \"#utility.yul\":37859:37922   */\n      tag_733\n      jumpi\n        /* \"#utility.yul\":37918:37919   */\n      0x00\n        /* \"#utility.yul\":37915:37916   */\n      dup1\n        /* \"#utility.yul\":37908:37920   */\n      revert\n        /* \"#utility.yul\":37859:37922   */\n    tag_733:\n        /* \"#utility.yul\":37806:37928   */\n      pop\n      jump\t// out\n        /* \"#utility.yul\":37934:38050   */\n    tag_383:\n        /* \"#utility.yul\":38004:38025   */\n      tag_735\n        /* \"#utility.yul\":38019:38024   */\n      dup2\n        /* \"#utility.yul\":38004:38025   */\n      tag_702\n      jump\t// in\n    tag_735:\n        /* \"#utility.yul\":37997:38002   */\n      dup2\n        /* \"#utility.yul\":37994:38026   */\n      eq\n        /* \"#utility.yul\":37984:38044   */\n      tag_736\n      jumpi\n        /* \"#utility.yul\":38040:38041   */\n      0x00\n        /* \"#utility.yul\":38037:38038   */\n      dup1\n        /* \"#utility.yul\":38030:38042   */\n      revert\n        /* \"#utility.yul\":37984:38044   */\n    tag_736:\n        /* \"#utility.yul\":37934:38050   */\n      pop\n      jump\t// out\n        /* \"#utility.yul\":38056:38178   */\n    tag_398:\n        /* \"#utility.yul\":38129:38153   */\n      tag_738\n        /* \"#utility.yul\":38147:38152   */\n      dup2\n        /* \"#utility.yul\":38129:38153   */\n      tag_588\n      jump\t// in\n    tag_738:\n        /* \"#utility.yul\":38122:38127   */\n      dup2\n        /* \"#utility.yul\":38119:38154   */\n      eq\n        /* \"#utility.yul\":38109:38172   */\n      tag_739\n      jumpi\n        /* \"#utility.yul\":38168:38169   */\n      0x00\n        /* \"#utility.yul\":38165:38166   */\n      dup1\n        /* \"#utility.yul\":38158:38170   */\n      revert\n        /* \"#utility.yul\":38109:38172   */\n    tag_739:\n        /* \"#utility.yul\":38056:38178   */\n      pop\n      jump\t// out\n\n    auxdata: 0xa2646970667358221220df6993faf940b041c37c5ae6a48d54cb306fca58ab2b3271999b7143f601150f64736f6c63430008070033\n}\n",
				"bytecode": {
					"linkReferences": {},
					"object": "608060405234801561001057600080fd5b50614e45806100206000396000f3fe6080604052600436106100f75760003560e01c80636f8c9b1b1161008a5780639f085a00116100595780639f085a0014610339578063baf4371e14610364578063cf42b7e614610380578063d3a6a6c9146103a9576100fe565b80636f8c9b1b146102595780636fe02f2414610296578063842bc46a146102d35780638c3417da146102fc576100fe565b80634cb8ef5b116100c65780634cb8ef5b146101a15780635138b08c146101ca5780636916462f146101f357806369a6d12e14610230576100fe565b8063150b7a02146101035780631bdae6f1146101405780633a713db81461015c5780634676adca14610178576100fe565b366100fe57005b600080fd5b34801561010f57600080fd5b5061012a60048036038101906101259190613da5565b6103d2565b6040516101379190614735565b60405180910390f35b61015a60048036038101906101559190613fb4565b6103e7565b005b61017660048036038101906101719190613fb4565b610a1e565b005b34801561018457600080fd5b5061019f600480360381019061019a9190613fb4565b6111b7565b005b3480156101ad57600080fd5b506101c860048036038101906101c39190613f21565b61140e565b005b3480156101d657600080fd5b506101f160048036038101906101ec9190613f21565b61172b565b005b3480156101ff57600080fd5b5061021a60048036038101906102159190613f21565b611ace565b6040516102279190614986565b60405180910390f35b34801561023c57600080fd5b5061025760048036038101906102529190613e2d565b611af3565b005b34801561026557600080fd5b50610280600480360381019061027b9190613f21565b61213b565b60405161028d9190614950565b60405180910390f35b3480156102a257600080fd5b506102bd60048036038101906102b89190613f61565b6122d0565b6040516102ca9190614986565b60405180910390f35b3480156102df57600080fd5b506102fa60048036038101906102f59190613f21565b612302565b005b34801561030857600080fd5b50610323600480360381019061031e9190613f21565b612700565b604051610330919061496b565b60405180910390f35b34801561034557600080fd5b5061034e612876565b60405161035b9190614713565b60405180910390f35b61037e60048036038101906103799190613fb4565b612935565b005b34801561038c57600080fd5b506103a760048036038101906103a29190613e94565b612e29565b005b3480156103b557600080fd5b506103d060048036038101906103cb9190613f21565b613126565b005b600063150b7a0260e01b905095945050505050565b828260028060008473ffffffffffffffffffffffffffffffffffffffff1673ffffffffffffffffffffffffffffffffffffffff1681526020019081526020016000206000838152602001908152602001600020541461047b576040517f08c379a0000000000000000000000000000000000000000000000000000000008152600401610472906147f0565b60405180910390fd5b8484600160008373ffffffffffffffffffffffffffffffffffffffff1673ffffffffffffffffffffffffffffffffffffffff1681526020019081526020016000206000828152602001908152602001600020600101544210610512576040517f08c379a000000000000000000000000000000000000000000000000000000000815260040161050990614830565b60405180910390fd5b8460008111610556576040517f08c379a000000000000000000000000000000000000000000000000000000000815260040161054d90614790565b60405180910390fd5b87873488600073ffffffffffffffffffffffffffffffffffffffff16600160008673ffffffffffffffffffffffffffffffffffffffff1673ffffffffffffffffffffffffffffffffffffffff168152602001908152602001600020600085815260200190815260200160002060060160009054906101000a900473ffffffffffffffffffffffffffffffffffffffff1673ffffffffffffffffffffffffffffffffffffffff16141561069c57600160008573ffffffffffffffffffffffffffffffffffffffff1673ffffffffffffffffffffffffffffffffffffffff1681526020019081526020016000206000848152602001908152602001600020600301548211610697576040517f08c379a000000000000000000000000000000000000000000000000000000000815260040161068e90614810565b60405180910390fd5b610732565b600160008573ffffffffffffffffffffffffffffffffffffffff1673ffffffffffffffffffffffffffffffffffffffff1681526020019081526020016000206000848152602001908152602001600020600301548111610731576040517f08c379a000000000000000000000000000000000000000000000000000000000815260040161072890614810565b60405180910390fd5b5b600073ffffffffffffffffffffffffffffffffffffffff16600160008e73ffffffffffffffffffffffffffffffffffffffff1673ffffffffffffffffffffffffffffffffffffffff16815260200190815260200160002060008d815260200190815260200160002060060160009054906101000a900473ffffffffffffffffffffffffffffffffffffffff1673ffffffffffffffffffffffffffffffffffffffff1614610857576108568a600160008f73ffffffffffffffffffffffffffffffffffffffff1673ffffffffffffffffffffffffffffffffffffffff16815260200190815260200160002060008e815260200190815260200160002060060160009054906101000a900473ffffffffffffffffffffffffffffffffffffffff16613449565b5b89600160008e73ffffffffffffffffffffffffffffffffffffffff1673ffffffffffffffffffffffffffffffffffffffff16815260200190815260200160002060008d81526020019081526020016000206003018190555033600160008e73ffffffffffffffffffffffffffffffffffffffff1673ffffffffffffffffffffffffffffffffffffffff16815260200190815260200160002060008d815260200190815260200160002060040160006101000a81548173ffffffffffffffffffffffffffffffffffffffff021916908373ffffffffffffffffffffffffffffffffffffffff16021790555089600360008e73ffffffffffffffffffffffffffffffffffffffff1673ffffffffffffffffffffffffffffffffffffffff16815260200190815260200160002060008d815260200190815260200160002060003373ffffffffffffffffffffffffffffffffffffffff1673ffffffffffffffffffffffffffffffffffffffff168152602001908152602001600020819055507fd56cb6210c78740462007b728932c802bc41b205ed5c8a98ab95421eaf054b228c8c8c33604051610a0894939291906146ce565b60405180910390a1505050505050505050505050565b828260028060008473ffffffffffffffffffffffffffffffffffffffff1673ffffffffffffffffffffffffffffffffffffffff16815260200190815260200160002060008381526020019081526020016000205414610ab2576040517f08c379a0000000000000000000000000000000000000000000000000000000008152600401610aa9906147f0565b60405180910390fd5b8484600160008373ffffffffffffffffffffffffffffffffffffffff1673ffffffffffffffffffffffffffffffffffffffff1681526020019081526020016000206000828152602001908152602001600020600101544210610b49576040517f08c379a0000000000000000000000000000000000000000000000000000000008152600401610b4090614830565b60405180910390fd5b3460008111610b8d576040517f08c379a0000000000000000000000000000000000000000000000000000000008152600401610b8490614790565b60405180910390fd5b8787348860008073ffffffffffffffffffffffffffffffffffffffff16600160008773ffffffffffffffffffffffffffffffffffffffff1673ffffffffffffffffffffffffffffffffffffffff168152602001908152602001600020600086815260200190815260200160002060060160009054906101000a900473ffffffffffffffffffffffffffffffffffffffff1673ffffffffffffffffffffffffffffffffffffffff161415610ce157610cda83600360008873ffffffffffffffffffffffffffffffffffffffff1673ffffffffffffffffffffffffffffffffffffffff168152602001908152602001600020600087815260200190815260200160002060003373ffffffffffffffffffffffffffffffffffffffff1673ffffffffffffffffffffffffffffffffffffffff1681526020019081526020016000205461351b90919063ffffffff16565b9050610d84565b610d8182600360008873ffffffffffffffffffffffffffffffffffffffff1673ffffffffffffffffffffffffffffffffffffffff168152602001908152602001600020600087815260200190815260200160002060003373ffffffffffffffffffffffffffffffffffffffff1673ffffffffffffffffffffffffffffffffffffffff1681526020019081526020016000205461351b90919063ffffffff16565b90505b600160008673ffffffffffffffffffffffffffffffffffffffff1673ffffffffffffffffffffffffffffffffffffffff1681526020019081526020016000206000858152602001908152602001600020600301548111610e19576040517f08c379a0000000000000000000000000000000000000000000000000000000008152600401610e1090614810565b60405180910390fd5b60008d905060008d90506000610ec58e600360008673ffffffffffffffffffffffffffffffffffffffff1673ffffffffffffffffffffffffffffffffffffffff168152602001908152602001600020600085815260200190815260200160002060003373ffffffffffffffffffffffffffffffffffffffff1673ffffffffffffffffffffffffffffffffffffffff1681526020019081526020016000205461351b90919063ffffffff16565b9050600073ffffffffffffffffffffffffffffffffffffffff16600160008573ffffffffffffffffffffffffffffffffffffffff1673ffffffffffffffffffffffffffffffffffffffff168152602001908152602001600020600084815260200190815260200160002060060160009054906101000a900473ffffffffffffffffffffffffffffffffffffffff1673ffffffffffffffffffffffffffffffffffffffff1614610fec57610feb8e600160008673ffffffffffffffffffffffffffffffffffffffff1673ffffffffffffffffffffffffffffffffffffffff168152602001908152602001600020600085815260200190815260200160002060060160009054906101000a900473ffffffffffffffffffffffffffffffffffffffff16613449565b5b80600160008573ffffffffffffffffffffffffffffffffffffffff1673ffffffffffffffffffffffffffffffffffffffff16815260200190815260200160002060008481526020019081526020016000206003018190555033600160008573ffffffffffffffffffffffffffffffffffffffff1673ffffffffffffffffffffffffffffffffffffffff168152602001908152602001600020600084815260200190815260200160002060040160006101000a81548173ffffffffffffffffffffffffffffffffffffffff021916908373ffffffffffffffffffffffffffffffffffffffff16021790555080600360008573ffffffffffffffffffffffffffffffffffffffff1673ffffffffffffffffffffffffffffffffffffffff168152602001908152602001600020600084815260200190815260200160002060003373ffffffffffffffffffffffffffffffffffffffff1673ffffffffffffffffffffffffffffffffffffffff168152602001908152602001600020819055507f907cdadc7c1a8abcdd80cdd85eb18377631e4f413fb6397a8252ff7b358ac6cb8383833360405161119d94939291906146ce565b60405180910390a150505050505050505050505050505050565b82826001600260008473ffffffffffffffffffffffffffffffffffffffff1673ffffffffffffffffffffffffffffffffffffffff1681526020019081526020016000206000838152602001908152602001600020541461124c576040517f08c379a0000000000000000000000000000000000000000000000000000000008152600401611243906147d0565b60405180910390fd5b84846000808373ffffffffffffffffffffffffffffffffffffffff1673ffffffffffffffffffffffffffffffffffffffff168152602001908152602001600020600082815260200190815260200160002060000160009054906101000a900473ffffffffffffffffffffffffffffffffffffffff1673ffffffffffffffffffffffffffffffffffffffff163373ffffffffffffffffffffffffffffffffffffffff161461132e576040517f08c379a0000000000000000000000000000000000000000000000000000000008152600401611325906148d0565b60405180910390fd5b8460008111611372576040517f08c379a000000000000000000000000000000000000000000000000000000000815260040161136990614790565b60405180910390fd5b856000808a73ffffffffffffffffffffffffffffffffffffffff1673ffffffffffffffffffffffffffffffffffffffff1681526020019081526020016000206000898152602001908152602001600020600301819055507f575a0876095ccf47276a37dce683308a625403d132d219f95205ce205b2e12bc8888886040516113fc93929190614697565b60405180910390a15050505050505050565b8181600160008373ffffffffffffffffffffffffffffffffffffffff1673ffffffffffffffffffffffffffffffffffffffff16815260200190815260200160002060008281526020019081526020016000206001015442116114a5576040517f08c379a000000000000000000000000000000000000000000000000000000000815260040161149c906148b0565b60405180910390fd5b600160008573ffffffffffffffffffffffffffffffffffffffff1673ffffffffffffffffffffffffffffffffffffffff168152602001908152602001600020600084815260200190815260200160002060040160009054906101000a900473ffffffffffffffffffffffffffffffffffffffff1673ffffffffffffffffffffffffffffffffffffffff163373ffffffffffffffffffffffffffffffffffffffff161415611587576040517f08c379a000000000000000000000000000000000000000000000000000000000815260040161157e90614750565b60405180910390fd5b6000600360008673ffffffffffffffffffffffffffffffffffffffff1673ffffffffffffffffffffffffffffffffffffffff168152602001908152602001600020600085815260200190815260200160002060003373ffffffffffffffffffffffffffffffffffffffff1673ffffffffffffffffffffffffffffffffffffffff1681526020019081526020016000205411611657576040517f08c379a000000000000000000000000000000000000000000000000000000000815260040161164e906148f0565b60405180910390fd5b6000600360008673ffffffffffffffffffffffffffffffffffffffff1673ffffffffffffffffffffffffffffffffffffffff168152602001908152602001600020600085815260200190815260200160002060003373ffffffffffffffffffffffffffffffffffffffff1673ffffffffffffffffffffffffffffffffffffffff168152602001908152602001600020819055507fde8cb9aa2c755cf75d5fbc4fec824b10e311652306f1fca5c8e57a04758b0aa784843360405161171d9392919061460d565b60405180910390a150505050565b818160028060008473ffffffffffffffffffffffffffffffffffffffff1673ffffffffffffffffffffffffffffffffffffffff168152602001908152602001600020600083815260200190815260200160002054146117bf576040517f08c379a00000000000000000000000000000000000000000000000000000000081526004016117b6906147f0565b60405180910390fd5b8383600160008373ffffffffffffffffffffffffffffffffffffffff1673ffffffffffffffffffffffffffffffffffffffff1681526020019081526020016000206000828152602001908152602001600020600101544211611856576040517f08c379a000000000000000000000000000000000000000000000000000000000815260040161184d906148b0565b60405180910390fd5b6000600160008873ffffffffffffffffffffffffffffffffffffffff1673ffffffffffffffffffffffffffffffffffffffff168152602001908152602001600020600087815260200190815260200160002060040160009054906101000a900473ffffffffffffffffffffffffffffffffffffffff16905061192d8787600160008b73ffffffffffffffffffffffffffffffffffffffff1673ffffffffffffffffffffffffffffffffffffffff16815260200190815260200160002060008a81526020019081526020016000206003015484613531565b6000600360008973ffffffffffffffffffffffffffffffffffffffff1673ffffffffffffffffffffffffffffffffffffffff168152602001908152602001600020600088815260200190815260200160002060008373ffffffffffffffffffffffffffffffffffffffff1673ffffffffffffffffffffffffffffffffffffffff168152602001908152602001600020819055507fb31cb4f6609b11a57d1b6b14cc3f81f4b3e609f709a5b1e46892a45f9cc29ed8878783600160008c73ffffffffffffffffffffffffffffffffffffffff1673ffffffffffffffffffffffffffffffffffffffff16815260200190815260200160002060008b815260200190815260200160002060030154600160008d73ffffffffffffffffffffffffffffffffffffffff1673ffffffffffffffffffffffffffffffffffffffff16815260200190815260200160002060008c815260200190815260200160002060050160009054906101000a900473ffffffffffffffffffffffffffffffffffffffff16604051611abd959493929190614644565b60405180910390a150505050505050565b6002602052816000526040600020602052806000526040600020600091509150505481565b83828173ffffffffffffffffffffffffffffffffffffffff16636352211e826040518263ffffffff1660e01b8152600401611b2e9190614986565b60206040518083038186803b158015611b4657600080fd5b505afa158015611b5a573d6000803e3d6000fd5b505050506040513d601f19601f82011682018060405250810190611b7e9190613d78565b73ffffffffffffffffffffffffffffffffffffffff163373ffffffffffffffffffffffffffffffffffffffff1614611beb576040517f08c379a0000000000000000000000000000000000000000000000000000000008152600401611be2906148d0565b60405180910390fd5b85846000600260008473ffffffffffffffffffffffffffffffffffffffff1673ffffffffffffffffffffffffffffffffffffffff16815260200190815260200160002060008381526020019081526020016000205414611c80576040517f08c379a0000000000000000000000000000000000000000000000000000000008152600401611c7790614850565b60405180910390fd5b87868173ffffffffffffffffffffffffffffffffffffffff1663e985e9c533306040518363ffffffff1660e01b8152600401611cbd92919061446f565b60206040518083038186803b158015611cd557600080fd5b505afa158015611ce9573d6000803e3d6000fd5b505050506040513d601f19601f82011682018060405250810190611d0d9190614007565b611d4c576040517f08c379a0000000000000000000000000000000000000000000000000000000008152600401611d4390614770565b60405180910390fd5b8660008111611d90576040517f08c379a0000000000000000000000000000000000000000000000000000000008152600401611d8790614790565b60405180910390fd5b60405180608001604052803373ffffffffffffffffffffffffffffffffffffffff168152602001600073ffffffffffffffffffffffffffffffffffffffff1681526020018b73ffffffffffffffffffffffffffffffffffffffff168152602001898152506000808d73ffffffffffffffffffffffffffffffffffffffff1673ffffffffffffffffffffffffffffffffffffffff16815260200190815260200160002060008b815260200190815260200160002060008201518160000160006101000a81548173ffffffffffffffffffffffffffffffffffffffff021916908373ffffffffffffffffffffffffffffffffffffffff16021790555060208201518160010160006101000a81548173ffffffffffffffffffffffffffffffffffffffff021916908373ffffffffffffffffffffffffffffffffffffffff16021790555060408201518160020160006101000a81548173ffffffffffffffffffffffffffffffffffffffff021916908373ffffffffffffffffffffffffffffffffffffffff160217905550606082015181600301559050506001600260008d73ffffffffffffffffffffffffffffffffffffffff1673ffffffffffffffffffffffffffffffffffffffff16815260200190815260200160002060008b815260200190815260200160002081905550600580549050600460008d73ffffffffffffffffffffffffffffffffffffffff1673ffffffffffffffffffffffffffffffffffffffff16815260200190815260200160002060008b815260200190815260200160002081905550600560405180604001604052808d73ffffffffffffffffffffffffffffffffffffffff1681526020018b815250908060018154018082558091505060019003906000526020600020906002020160009091909190915060008201518160000160006101000a81548173ffffffffffffffffffffffffffffffffffffffff021916908373ffffffffffffffffffffffffffffffffffffffff1602179055506020820151816001015550508a73ffffffffffffffffffffffffffffffffffffffff166342842e0e33308c6040518463ffffffff1660e01b81526004016120bb93929190614568565b600060405180830381600087803b1580156120d557600080fd5b505af11580156120e9573d6000803e3d6000fd5b505050507f078eead3cd01ed921c7653d000a6b73aea643a7b9c066fb7d93eb2eae8acc2d98b338c8c8c4260405161212696959493929190614498565b60405180910390a15050505050505050505050565b612143613be5565b600160008473ffffffffffffffffffffffffffffffffffffffff1673ffffffffffffffffffffffffffffffffffffffff16815260200190815260200160002060008381526020019081526020016000206040518060e0016040529081600082015481526020016001820154815260200160028201548152602001600382015481526020016004820160009054906101000a900473ffffffffffffffffffffffffffffffffffffffff1673ffffffffffffffffffffffffffffffffffffffff1673ffffffffffffffffffffffffffffffffffffffff1681526020016005820160009054906101000a900473ffffffffffffffffffffffffffffffffffffffff1673ffffffffffffffffffffffffffffffffffffffff1673ffffffffffffffffffffffffffffffffffffffff1681526020016006820160009054906101000a900473ffffffffffffffffffffffffffffffffffffffff1673ffffffffffffffffffffffffffffffffffffffff1673ffffffffffffffffffffffffffffffffffffffff1681525050905092915050565b600360205282600052604060002060205281600052604060002060205280600052604060002060009250925050505481565b818160028060008473ffffffffffffffffffffffffffffffffffffffff1673ffffffffffffffffffffffffffffffffffffffff16815260200190815260200160002060008381526020019081526020016000205414612396576040517f08c379a000000000000000000000000000000000000000000000000000000000815260040161238d906147f0565b60405180910390fd5b8383600160008373ffffffffffffffffffffffffffffffffffffffff1673ffffffffffffffffffffffffffffffffffffffff168152602001908152602001600020600082815260200190815260200160002060050160009054906101000a900473ffffffffffffffffffffffffffffffffffffffff1673ffffffffffffffffffffffffffffffffffffffff163373ffffffffffffffffffffffffffffffffffffffff1614612479576040517f08c379a0000000000000000000000000000000000000000000000000000000008152600401612470906147b0565b60405180910390fd5b8585600160008373ffffffffffffffffffffffffffffffffffffffff1673ffffffffffffffffffffffffffffffffffffffff1681526020019081526020016000206000828152602001908152602001600020600101544210612510576040517f08c379a000000000000000000000000000000000000000000000000000000000815260040161250790614830565b60405180910390fd5b8787600160008373ffffffffffffffffffffffffffffffffffffffff1673ffffffffffffffffffffffffffffffffffffffff168152602001908152602001600020600082815260200190815260200160002060040160009054906101000a900473ffffffffffffffffffffffffffffffffffffffff1673ffffffffffffffffffffffffffffffffffffffff16600073ffffffffffffffffffffffffffffffffffffffff16146125f4576040517f08c379a00000000000000000000000000000000000000000000000000000000081526004016125eb90614870565b60405180910390fd5b6000600260008c73ffffffffffffffffffffffffffffffffffffffff1673ffffffffffffffffffffffffffffffffffffffff16815260200190815260200160002060008b8152602001908152602001600020819055508973ffffffffffffffffffffffffffffffffffffffff166342842e0e30338c6040518463ffffffff1660e01b815260040161268793929190614568565b600060405180830381600087803b1580156126a157600080fd5b505af11580156126b5573d6000803e3d6000fd5b505050507fb9d411977d4ee731f87bb8f16eb6f8c1fb579cff684642052bf6084e6e33238d8a8a336040516126ec9392919061460d565b60405180910390a150505050505050505050565b612708613c64565b6000808473ffffffffffffffffffffffffffffffffffffffff1673ffffffffffffffffffffffffffffffffffffffff16815260200190815260200160002060008381526020019081526020016000206040518060800160405290816000820160009054906101000a900473ffffffffffffffffffffffffffffffffffffffff1673ffffffffffffffffffffffffffffffffffffffff1673ffffffffffffffffffffffffffffffffffffffff1681526020016001820160009054906101000a900473ffffffffffffffffffffffffffffffffffffffff1673ffffffffffffffffffffffffffffffffffffffff1673ffffffffffffffffffffffffffffffffffffffff1681526020016002820160009054906101000a900473ffffffffffffffffffffffffffffffffffffffff1673ffffffffffffffffffffffffffffffffffffffff1673ffffffffffffffffffffffffffffffffffffffff168152602001600382015481525050905092915050565b60606005805480602002602001604051908101604052809291908181526020016000905b8282101561292c57838290600052602060002090600202016040518060400160405290816000820160009054906101000a900473ffffffffffffffffffffffffffffffffffffffff1673ffffffffffffffffffffffffffffffffffffffff1673ffffffffffffffffffffffffffffffffffffffff1681526020016001820154815250508152602001906001019061289a565b50505050905090565b82826001600260008473ffffffffffffffffffffffffffffffffffffffff1673ffffffffffffffffffffffffffffffffffffffff168152602001908152602001600020600083815260200190815260200160002054146129ca576040517f08c379a00000000000000000000000000000000000000000000000000000000081526004016129c1906147d0565b60405180910390fd5b8260008111612a0e576040517f08c379a0000000000000000000000000000000000000000000000000000000008152600401612a0590614790565b60405180910390fd5b8585856000808473ffffffffffffffffffffffffffffffffffffffff1673ffffffffffffffffffffffffffffffffffffffff168152602001908152602001600020600083815260200190815260200160002060030154811015612aa6576040517f08c379a0000000000000000000000000000000000000000000000000000000008152600401612a9d90614910565b60405180910390fd5b8873ffffffffffffffffffffffffffffffffffffffff166342842e0e30338b6040518463ffffffff1660e01b8152600401612ae393929190614568565b600060405180830381600087803b158015612afd57600080fd5b505af1158015612b11573d6000803e3d6000fd5b505050506000600260008b73ffffffffffffffffffffffffffffffffffffffff1673ffffffffffffffffffffffffffffffffffffffff16815260200190815260200160002060008a8152602001908152602001600020819055506005600460008b73ffffffffffffffffffffffffffffffffffffffff1673ffffffffffffffffffffffffffffffffffffffff16815260200190815260200160002060008a81526020019081526020016000205481548110612bcf57612bce614aef565b5b9060005260206000209060020201600080820160006101000a81549073ffffffffffffffffffffffffffffffffffffffff021916905560018201600090555050336000808b73ffffffffffffffffffffffffffffffffffffffff1673ffffffffffffffffffffffffffffffffffffffff16815260200190815260200160002060008a815260200190815260200160002060010160006101000a81548173ffffffffffffffffffffffffffffffffffffffff021916908373ffffffffffffffffffffffffffffffffffffffff160217905550612de16000808b73ffffffffffffffffffffffffffffffffffffffff1673ffffffffffffffffffffffffffffffffffffffff16815260200190815260200160002060008a815260200190815260200160002060000160009054906101000a900473ffffffffffffffffffffffffffffffffffffffff166000808c73ffffffffffffffffffffffffffffffffffffffff1673ffffffffffffffffffffffffffffffffffffffff16815260200190815260200160002060008b815260200190815260200160002060020160009054906101000a900473ffffffffffffffffffffffffffffffffffffffff166000808d73ffffffffffffffffffffffffffffffffffffffff1673ffffffffffffffffffffffffffffffffffffffff16815260200190815260200160002060008c8152602001908152602001600020600301546136ed565b7f9fa3b1bb9266e05722b54a7a564d02a274bc80d39f4af21e6be405480996ceba89338a8a604051612e16949392919061459f565b60405180910390a1505050505050505050565b85848173ffffffffffffffffffffffffffffffffffffffff16636352211e826040518263ffffffff1660e01b8152600401612e649190614986565b60206040518083038186803b158015612e7c57600080fd5b505afa158015612e90573d6000803e3d6000fd5b505050506040513d601f19601f82011682018060405250810190612eb49190613d78565b73ffffffffffffffffffffffffffffffffffffffff163373ffffffffffffffffffffffffffffffffffffffff1614612f21576040517f08c379a0000000000000000000000000000000000000000000000000000000008152600401612f18906148d0565b60405180910390fd5b87866000600260008473ffffffffffffffffffffffffffffffffffffffff1673ffffffffffffffffffffffffffffffffffffffff16815260200190815260200160002060008381526020019081526020016000205414612fb6576040517f08c379a0000000000000000000000000000000000000000000000000000000008152600401612fad90614850565b60405180910390fd5b89888173ffffffffffffffffffffffffffffffffffffffff1663e985e9c533306040518363ffffffff1660e01b8152600401612ff392919061446f565b60206040518083038186803b15801561300b57600080fd5b505afa15801561301f573d6000803e3d6000fd5b505050506040513d601f19601f820116820180604052508101906130439190614007565b613082576040517f08c379a000000000000000000000000000000000000000000000000000000000815260040161307990614770565b60405180910390fd5b86600081116130c6576040517f08c379a00000000000000000000000000000000000000000000000000000000081526004016130bd90614790565b60405180910390fd5b6130d48d8d8d8d8d8d613741565b7fecbc6a097da08dbf6f781ce204aad454ce3dc8f112c51c7a56f1671de89cee8c8d338e8e8e8e8e60405161310f97969594939291906144f9565b60405180910390a150505050505050505050505050565b81816001600260008473ffffffffffffffffffffffffffffffffffffffff1673ffffffffffffffffffffffffffffffffffffffff168152602001908152602001600020600083815260200190815260200160002054146131bb576040517f08c379a00000000000000000000000000000000000000000000000000000000081526004016131b2906147d0565b60405180910390fd5b83836000808373ffffffffffffffffffffffffffffffffffffffff1673ffffffffffffffffffffffffffffffffffffffff168152602001908152602001600020600082815260200190815260200160002060000160009054906101000a900473ffffffffffffffffffffffffffffffffffffffff1673ffffffffffffffffffffffffffffffffffffffff163373ffffffffffffffffffffffffffffffffffffffff161461329d576040517f08c379a0000000000000000000000000000000000000000000000000000000008152600401613294906148d0565b60405180910390fd5b8573ffffffffffffffffffffffffffffffffffffffff166342842e0e3033886040518463ffffffff1660e01b81526004016132da93929190614568565b600060405180830381600087803b1580156132f457600080fd5b505af1158015613308573d6000803e3d6000fd5b505050506000600260008873ffffffffffffffffffffffffffffffffffffffff1673ffffffffffffffffffffffffffffffffffffffff1681526020019081526020016000206000878152602001908152602001600020819055506005600460008873ffffffffffffffffffffffffffffffffffffffff1673ffffffffffffffffffffffffffffffffffffffff168152602001908152602001600020600087815260200190815260200160002054815481106133c6576133c5614aef565b5b9060005260206000209060020201600080820160006101000a81549073ffffffffffffffffffffffffffffffffffffffff0219169055600182016000905550507fd7348ff00cf381a884144b50b3441398a48a7974ec349287df80e18cec9f5a3186338760405161343993929190614568565b60405180910390a1505050505050565b8073ffffffffffffffffffffffffffffffffffffffff166323b872dd3330856040518463ffffffff1660e01b815260040161348693929190614568565b602060405180830381600087803b1580156134a057600080fd5b505af11580156134b4573d6000803e3d6000fd5b505050506040513d601f19601f820116820180604052508101906134d89190614007565b613517576040517f08c379a000000000000000000000000000000000000000000000000000000000815260040161350e90614890565b60405180910390fd5b5050565b6000818361352991906149f6565b905092915050565b8373ffffffffffffffffffffffffffffffffffffffff166342842e0e3083866040518463ffffffff1660e01b815260040161356e93929190614568565b600060405180830381600087803b15801561358857600080fd5b505af115801561359c573d6000803e3d6000fd5b505050506000600260008673ffffffffffffffffffffffffffffffffffffffff1673ffffffffffffffffffffffffffffffffffffffff1681526020019081526020016000206000858152602001908152602001600020819055506136e7600160008673ffffffffffffffffffffffffffffffffffffffff1673ffffffffffffffffffffffffffffffffffffffff168152602001908152602001600020600085815260200190815260200160002060050160009054906101000a900473ffffffffffffffffffffffffffffffffffffffff16600160008773ffffffffffffffffffffffffffffffffffffffff1673ffffffffffffffffffffffffffffffffffffffff168152602001908152602001600020600086815260200190815260200160002060060160009054906101000a900473ffffffffffffffffffffffffffffffffffffffff16846136ed565b50505050565b600073ffffffffffffffffffffffffffffffffffffffff168273ffffffffffffffffffffffffffffffffffffffff16146137315761372c8383836139d3565b61373c565b61373b8382613b34565b5b505050565b6040518060e00160405280848152602001838152602001828152602001828152602001600073ffffffffffffffffffffffffffffffffffffffff1681526020013373ffffffffffffffffffffffffffffffffffffffff1681526020018673ffffffffffffffffffffffffffffffffffffffff16815250600160008873ffffffffffffffffffffffffffffffffffffffff1673ffffffffffffffffffffffffffffffffffffffff16815260200190815260200160002060008681526020019081526020016000206000820151816000015560208201518160010155604082015181600201556060820151816003015560808201518160040160006101000a81548173ffffffffffffffffffffffffffffffffffffffff021916908373ffffffffffffffffffffffffffffffffffffffff16021790555060a08201518160050160006101000a81548173ffffffffffffffffffffffffffffffffffffffff021916908373ffffffffffffffffffffffffffffffffffffffff16021790555060c08201518160060160006101000a81548173ffffffffffffffffffffffffffffffffffffffff021916908373ffffffffffffffffffffffffffffffffffffffff16021790555090505060028060008873ffffffffffffffffffffffffffffffffffffffff1673ffffffffffffffffffffffffffffffffffffffff1681526020019081526020016000206000868152602001908152602001600020819055508573ffffffffffffffffffffffffffffffffffffffff166342842e0e3330876040518463ffffffff1660e01b815260040161399993929190614568565b600060405180830381600087803b1580156139b357600080fd5b505af11580156139c7573d6000803e3d6000fd5b50505050505050505050565b8173ffffffffffffffffffffffffffffffffffffffff166323b872dd3330846040518463ffffffff1660e01b8152600401613a1093929190614568565b602060405180830381600087803b158015613a2a57600080fd5b505af1158015613a3e573d6000803e3d6000fd5b505050506040513d601f19601f82011682018060405250810190613a629190614007565b613aa1576040517f08c379a0000000000000000000000000000000000000000000000000000000008152600401613a9890614890565b60405180910390fd5b8173ffffffffffffffffffffffffffffffffffffffff1663a9059cbb84836040518363ffffffff1660e01b8152600401613adc9291906145e4565b602060405180830381600087803b158015613af657600080fd5b505af1158015613b0a573d6000803e3d6000fd5b505050506040513d601f19601f82011682018060405250810190613b2e9190614007565b50505050565b60008273ffffffffffffffffffffffffffffffffffffffff1682604051613b5a9061445a565b60006040518083038185875af1925050503d8060008114613b97576040519150601f19603f3d011682016040523d82523d6000602084013e613b9c565b606091505b5050905080613be0576040517f08c379a0000000000000000000000000000000000000000000000000000000008152600401613bd790614930565b60405180910390fd5b505050565b6040518060e0016040528060008152602001600081526020016000815260200160008152602001600073ffffffffffffffffffffffffffffffffffffffff168152602001600073ffffffffffffffffffffffffffffffffffffffff168152602001600073ffffffffffffffffffffffffffffffffffffffff1681525090565b6040518060800160405280600073ffffffffffffffffffffffffffffffffffffffff168152602001600073ffffffffffffffffffffffffffffffffffffffff168152602001600073ffffffffffffffffffffffffffffffffffffffff168152602001600081525090565b600081359050613cdd81614dca565b92915050565b600081519050613cf281614dca565b92915050565b600081519050613d0781614de1565b92915050565b60008083601f840112613d2357613d22614b23565b5b8235905067ffffffffffffffff811115613d4057613d3f614b1e565b5b602083019150836001820283011115613d5c57613d5b614b28565b5b9250929050565b600081359050613d7281614df8565b92915050565b600060208284031215613d8e57613d8d614b32565b5b6000613d9c84828501613ce3565b91505092915050565b600080600080600060808688031215613dc157613dc0614b32565b5b6000613dcf88828901613cce565b9550506020613de088828901613cce565b9450506040613df188828901613d63565b935050606086013567ffffffffffffffff811115613e1257613e11614b2d565b5b613e1e88828901613d0d565b92509250509295509295909350565b60008060008060808587031215613e4757613e46614b32565b5b6000613e5587828801613cce565b9450506020613e6687828801613cce565b9350506040613e7787828801613d63565b9250506060613e8887828801613d63565b91505092959194509250565b60008060008060008060c08789031215613eb157613eb0614b32565b5b6000613ebf89828a01613cce565b9650506020613ed089828a01613cce565b9550506040613ee189828a01613d63565b9450506060613ef289828a01613d63565b9350506080613f0389828a01613d63565b92505060a0613f1489828a01613d63565b9150509295509295509295565b60008060408385031215613f3857613f37614b32565b5b6000613f4685828601613cce565b9250506020613f5785828601613d63565b9150509250929050565b600080600060608486031215613f7a57613f79614b32565b5b6000613f8886828701613cce565b9350506020613f9986828701613d63565b9250506040613faa86828701613cce565b9150509250925092565b600080600060608486031215613fcd57613fcc614b32565b5b6000613fdb86828701613cce565b9350506020613fec86828701613d63565b9250506040613ffd86828701613d63565b9150509250925092565b60006020828403121561401d5761401c614b32565b5b600061402b84828501613cf8565b91505092915050565b6000614040838361440d565b60408301905092915050565b61405581614a4c565b82525050565b61406481614a4c565b82525050565b6000614075826149b1565b61407f81856149c9565b935061408a836149a1565b8060005b838110156140bb5781516140a28882614034565b97506140ad836149bc565b92505060018101905061408e565b5085935050505092915050565b6140d181614a6a565b82525050565b60006140e46016836149e5565b91506140ef82614b37565b602082019050919050565b6000614107601c836149e5565b915061411282614b60565b602082019050919050565b600061412a6011836149e5565b915061413582614b89565b602082019050919050565b600061414d600d836149e5565b915061415882614bb2565b602082019050919050565b60006141706015836149e5565b915061417b82614bdb565b602082019050919050565b60006141936017836149e5565b915061419e82614c04565b602082019050919050565b60006141b6601d836149e5565b91506141c182614c2d565b602082019050919050565b60006141d9600b836149e5565b91506141e482614c56565b602082019050919050565b60006141fc6013836149e5565b915061420782614c7f565b602082019050919050565b600061421f6008836149e5565b915061422a82614ca8565b602082019050919050565b60006142426014836149e5565b915061424d82614cd1565b602082019050919050565b6000614265600f836149e5565b915061427082614cfa565b602082019050919050565b60006142886015836149e5565b915061429382614d23565b602082019050919050565b60006142ab6000836149da565b91506142b682614d4c565b600082019050919050565b60006142ce6013836149e5565b91506142d982614d4f565b602082019050919050565b60006142f16014836149e5565b91506142fc82614d78565b602082019050919050565b6000614314600d836149e5565b915061431f82614da1565b602082019050919050565b60e082016000820151614340600085018261443c565b506020820151614353602085018261443c565b506040820151614366604085018261443c565b506060820151614379606085018261443c565b50608082015161438c608085018261404c565b5060a082015161439f60a085018261404c565b5060c08201516143b260c085018261404c565b50505050565b6080820160008201516143ce600085018261404c565b5060208201516143e1602085018261404c565b5060408201516143f4604085018261404c565b506060820151614407606085018261443c565b50505050565b604082016000820151614423600085018261404c565b506020820151614436602085018261443c565b50505050565b61444581614ab6565b82525050565b61445481614ab6565b82525050565b60006144658261429e565b9150819050919050565b6000604082019050614484600083018561405b565b614491602083018461405b565b9392505050565b600060c0820190506144ad600083018961405b565b6144ba602083018861405b565b6144c7604083018761405b565b6144d4606083018661444b565b6144e1608083018561444b565b6144ee60a083018461444b565b979650505050505050565b600060e08201905061450e600083018a61405b565b61451b602083018961405b565b614528604083018861405b565b614535606083018761444b565b614542608083018661444b565b61454f60a083018561444b565b61455c60c083018461444b565b98975050505050505050565b600060608201905061457d600083018661405b565b61458a602083018561405b565b614597604083018461444b565b949350505050565b60006080820190506145b4600083018761405b565b6145c1602083018661405b565b6145ce604083018561444b565b6145db606083018461444b565b95945050505050565b60006040820190506145f9600083018561405b565b614606602083018461444b565b9392505050565b6000606082019050614622600083018661405b565b61462f602083018561444b565b61463c604083018461405b565b949350505050565b600060a082019050614659600083018861405b565b614666602083018761444b565b614673604083018661405b565b614680606083018561444b565b61468d608083018461405b565b9695505050505050565b60006060820190506146ac600083018661405b565b6146b9602083018561444b565b6146c6604083018461444b565b949350505050565b60006080820190506146e3600083018761405b565b6146f0602083018661444b565b6146fd604083018561444b565b61470a606083018461405b565b95945050505050565b6000602082019050818103600083015261472d818461406a565b905092915050565b600060208201905061474a60008301846140c8565b92915050565b60006020820190508181036000830152614769816140d7565b9050919050565b60006020820190508181036000830152614789816140fa565b9050919050565b600060208201905081810360008301526147a98161411d565b9050919050565b600060208201905081810360008301526147c981614140565b9050919050565b600060208201905081810360008301526147e981614163565b9050919050565b6000602082019050818103600083015261480981614186565b9050919050565b60006020820190508181036000830152614829816141a9565b9050919050565b60006020820190508181036000830152614849816141cc565b9050919050565b60006020820190508181036000830152614869816141ef565b9050919050565b6000602082019050818103600083015261488981614212565b9050919050565b600060208201905081810360008301526148a981614235565b9050919050565b600060208201905081810360008301526148c981614258565b9050919050565b600060208201905081810360008301526148e98161427b565b9050919050565b60006020820190508181036000830152614909816142c1565b9050919050565b60006020820190508181036000830152614929816142e4565b9050919050565b6000602082019050818103600083015261494981614307565b9050919050565b600060e082019050614965600083018461432a565b92915050565b600060808201905061498060008301846143b8565b92915050565b600060208201905061499b600083018461444b565b92915050565b6000819050602082019050919050565b600081519050919050565b6000602082019050919050565b600082825260208201905092915050565b600081905092915050565b600082825260208201905092915050565b6000614a0182614ab6565b9150614a0c83614ab6565b9250827fffffffffffffffffffffffffffffffffffffffffffffffffffffffffffffffff03821115614a4157614a40614ac0565b5b828201905092915050565b6000614a5782614a96565b9050919050565b60008115159050919050565b60007fffffffff0000000000000000000000000000000000000000000000000000000082169050919050565b600073ffffffffffffffffffffffffffffffffffffffff82169050919050565b6000819050919050565b7f4e487b7100000000000000000000000000000000000000000000000000000000600052601160045260246000fd5b7f4e487b7100000000000000000000000000000000000000000000000000000000600052603260045260246000fd5b600080fd5b600080fd5b600080fd5b600080fd5b600080fd5b7f596f752061726520686967686573742062696464657200000000000000000000600082015250565b7f4e6674206e6f7420617070726f76656420746f20636f6e747261637400000000600082015250565b7f50726963652063616e6e6f742062652030000000000000000000000000000000600082015250565b7f6e6f74206e6674206f776e657200000000000000000000000000000000000000600082015250565b7f4e6674206e6f7420696e2066697865642073616c650000000000000000000000600082015250565b7f4e6674206e6f7420696e2061756374696f6e2073616c65000000000000000000600082015250565b7f4269642047726561746572207468616e2050726576696f757320426964000000600082015250565b7f41756374696f6e20656e64000000000000000000000000000000000000000000600082015250565b7f4e667420616c726561647920696e2073616c6500000000000000000000000000600082015250565b7f626964206d616b65000000000000000000000000000000000000000000000000600082015250565b7f616c6c6f77616e6365206e6f7420656e6f756768000000000000000000000000600082015250565b7f41756374696f6e206e6f7420656e640000000000000000000000000000000000600082015250565b7f596f7520617265206e6f74206e6674206f776e65720000000000000000000000600082015250565b50565b7f6e6f7468696e6720746f20776974686472617700000000000000000000000000600082015250565b7f627579205072696365206e6f7420656e6f756768000000000000000000000000600082015250565b7f726566756e64206661696c656400000000000000000000000000000000000000600082015250565b614dd381614a4c565b8114614dde57600080fd5b50565b614dea81614a5e565b8114614df557600080fd5b50565b614e0181614ab6565b8114614e0c57600080fd5b5056fea2646970667358221220df6993faf940b041c37c5ae6a48d54cb306fca58ab2b3271999b7143f601150f64736f6c63430008070033",
					"opcodes": "PUSH1 0x80 PUSH1 0x40 MSTORE CALLVALUE DUP1 ISZERO PUSH2 0x10 JUMPI PUSH1 0x0 DUP1 REVERT JUMPDEST POP PUSH2 0x4E45 DUP1 PUSH2 0x20 PUSH1 0x0 CODECOPY PUSH1 0x0 RETURN INVALID PUSH1 0x80 PUSH1 0x40 MSTORE PUSH1 0x4 CALLDATASIZE LT PUSH2 0xF7 JUMPI PUSH1 0x0 CALLDATALOAD PUSH1 0xE0 SHR DUP1 PUSH4 0x6F8C9B1B GT PUSH2 0x8A JUMPI DUP1 PUSH4 0x9F085A00 GT PUSH2 0x59 JUMPI DUP1 PUSH4 0x9F085A00 EQ PUSH2 0x339 JUMPI DUP1 PUSH4 0xBAF4371E EQ PUSH2 0x364 JUMPI DUP1 PUSH4 0xCF42B7E6 EQ PUSH2 0x380 JUMPI DUP1 PUSH4 0xD3A6A6C9 EQ PUSH2 0x3A9 JUMPI PUSH2 0xFE JUMP JUMPDEST DUP1 PUSH4 0x6F8C9B1B EQ PUSH2 0x259 JUMPI DUP1 PUSH4 0x6FE02F24 EQ PUSH2 0x296 JUMPI DUP1 PUSH4 0x842BC46A EQ PUSH2 0x2D3 JUMPI DUP1 PUSH4 0x8C3417DA EQ PUSH2 0x2FC JUMPI PUSH2 0xFE JUMP JUMPDEST DUP1 PUSH4 0x4CB8EF5B GT PUSH2 0xC6 JUMPI DUP1 PUSH4 0x4CB8EF5B EQ PUSH2 0x1A1 JUMPI DUP1 PUSH4 0x5138B08C EQ PUSH2 0x1CA JUMPI DUP1 PUSH4 0x6916462F EQ PUSH2 0x1F3 JUMPI DUP1 PUSH4 0x69A6D12E EQ PUSH2 0x230 JUMPI PUSH2 0xFE JUMP JUMPDEST DUP1 PUSH4 0x150B7A02 EQ PUSH2 0x103 JUMPI DUP1 PUSH4 0x1BDAE6F1 EQ PUSH2 0x140 JUMPI DUP1 PUSH4 0x3A713DB8 EQ PUSH2 0x15C JUMPI DUP1 PUSH4 0x4676ADCA EQ PUSH2 0x178 JUMPI PUSH2 0xFE JUMP JUMPDEST CALLDATASIZE PUSH2 0xFE JUMPI STOP JUMPDEST PUSH1 0x0 DUP1 REVERT JUMPDEST CALLVALUE DUP1 ISZERO PUSH2 0x10F JUMPI PUSH1 0x0 DUP1 REVERT JUMPDEST POP PUSH2 0x12A PUSH1 0x4 DUP1 CALLDATASIZE SUB DUP2 ADD SWAP1 PUSH2 0x125 SWAP2 SWAP1 PUSH2 0x3DA5 JUMP JUMPDEST PUSH2 0x3D2 JUMP JUMPDEST PUSH1 0x40 MLOAD PUSH2 0x137 SWAP2 SWAP1 PUSH2 0x4735 JUMP JUMPDEST PUSH1 0x40 MLOAD DUP1 SWAP2 SUB SWAP1 RETURN JUMPDEST PUSH2 0x15A PUSH1 0x4 DUP1 CALLDATASIZE SUB DUP2 ADD SWAP1 PUSH2 0x155 SWAP2 SWAP1 PUSH2 0x3FB4 JUMP JUMPDEST PUSH2 0x3E7 JUMP JUMPDEST STOP JUMPDEST PUSH2 0x176 PUSH1 0x4 DUP1 CALLDATASIZE SUB DUP2 ADD SWAP1 PUSH2 0x171 SWAP2 SWAP1 PUSH2 0x3FB4 JUMP JUMPDEST PUSH2 0xA1E JUMP JUMPDEST STOP JUMPDEST CALLVALUE DUP1 ISZERO PUSH2 0x184 JUMPI PUSH1 0x0 DUP1 REVERT JUMPDEST POP PUSH2 0x19F PUSH1 0x4 DUP1 CALLDATASIZE SUB DUP2 ADD SWAP1 PUSH2 0x19A SWAP2 SWAP1 PUSH2 0x3FB4 JUMP JUMPDEST PUSH2 0x11B7 JUMP JUMPDEST STOP JUMPDEST CALLVALUE DUP1 ISZERO PUSH2 0x1AD JUMPI PUSH1 0x0 DUP1 REVERT JUMPDEST POP PUSH2 0x1C8 PUSH1 0x4 DUP1 CALLDATASIZE SUB DUP2 ADD SWAP1 PUSH2 0x1C3 SWAP2 SWAP1 PUSH2 0x3F21 JUMP JUMPDEST PUSH2 0x140E JUMP JUMPDEST STOP JUMPDEST CALLVALUE DUP1 ISZERO PUSH2 0x1D6 JUMPI PUSH1 0x0 DUP1 REVERT JUMPDEST POP PUSH2 0x1F1 PUSH1 0x4 DUP1 CALLDATASIZE SUB DUP2 ADD SWAP1 PUSH2 0x1EC SWAP2 SWAP1 PUSH2 0x3F21 JUMP JUMPDEST PUSH2 0x172B JUMP JUMPDEST STOP JUMPDEST CALLVALUE DUP1 ISZERO PUSH2 0x1FF JUMPI PUSH1 0x0 DUP1 REVERT JUMPDEST POP PUSH2 0x21A PUSH1 0x4 DUP1 CALLDATASIZE SUB DUP2 ADD SWAP1 PUSH2 0x215 SWAP2 SWAP1 PUSH2 0x3F21 JUMP JUMPDEST PUSH2 0x1ACE JUMP JUMPDEST PUSH1 0x40 MLOAD PUSH2 0x227 SWAP2 SWAP1 PUSH2 0x4986 JUMP JUMPDEST PUSH1 0x40 MLOAD DUP1 SWAP2 SUB SWAP1 RETURN JUMPDEST CALLVALUE DUP1 ISZERO PUSH2 0x23C JUMPI PUSH1 0x0 DUP1 REVERT JUMPDEST POP PUSH2 0x257 PUSH1 0x4 DUP1 CALLDATASIZE SUB DUP2 ADD SWAP1 PUSH2 0x252 SWAP2 SWAP1 PUSH2 0x3E2D JUMP JUMPDEST PUSH2 0x1AF3 JUMP JUMPDEST STOP JUMPDEST CALLVALUE DUP1 ISZERO PUSH2 0x265 JUMPI PUSH1 0x0 DUP1 REVERT JUMPDEST POP PUSH2 0x280 PUSH1 0x4 DUP1 CALLDATASIZE SUB DUP2 ADD SWAP1 PUSH2 0x27B SWAP2 SWAP1 PUSH2 0x3F21 JUMP JUMPDEST PUSH2 0x213B JUMP JUMPDEST PUSH1 0x40 MLOAD PUSH2 0x28D SWAP2 SWAP1 PUSH2 0x4950 JUMP JUMPDEST PUSH1 0x40 MLOAD DUP1 SWAP2 SUB SWAP1 RETURN JUMPDEST CALLVALUE DUP1 ISZERO PUSH2 0x2A2 JUMPI PUSH1 0x0 DUP1 REVERT JUMPDEST POP PUSH2 0x2BD PUSH1 0x4 DUP1 CALLDATASIZE SUB DUP2 ADD SWAP1 PUSH2 0x2B8 SWAP2 SWAP1 PUSH2 0x3F61 JUMP JUMPDEST PUSH2 0x22D0 JUMP JUMPDEST PUSH1 0x40 MLOAD PUSH2 0x2CA SWAP2 SWAP1 PUSH2 0x4986 JUMP JUMPDEST PUSH1 0x40 MLOAD DUP1 SWAP2 SUB SWAP1 RETURN JUMPDEST CALLVALUE DUP1 ISZERO PUSH2 0x2DF JUMPI PUSH1 0x0 DUP1 REVERT JUMPDEST POP PUSH2 0x2FA PUSH1 0x4 DUP1 CALLDATASIZE SUB DUP2 ADD SWAP1 PUSH2 0x2F5 SWAP2 SWAP1 PUSH2 0x3F21 JUMP JUMPDEST PUSH2 0x2302 JUMP JUMPDEST STOP JUMPDEST CALLVALUE DUP1 ISZERO PUSH2 0x308 JUMPI PUSH1 0x0 DUP1 REVERT JUMPDEST POP PUSH2 0x323 PUSH1 0x4 DUP1 CALLDATASIZE SUB DUP2 ADD SWAP1 PUSH2 0x31E SWAP2 SWAP1 PUSH2 0x3F21 JUMP JUMPDEST PUSH2 0x2700 JUMP JUMPDEST PUSH1 0x40 MLOAD PUSH2 0x330 SWAP2 SWAP1 PUSH2 0x496B JUMP JUMPDEST PUSH1 0x40 MLOAD DUP1 SWAP2 SUB SWAP1 RETURN JUMPDEST CALLVALUE DUP1 ISZERO PUSH2 0x345 JUMPI PUSH1 0x0 DUP1 REVERT JUMPDEST POP PUSH2 0x34E PUSH2 0x2876 JUMP JUMPDEST PUSH1 0x40 MLOAD PUSH2 0x35B SWAP2 SWAP1 PUSH2 0x4713 JUMP JUMPDEST PUSH1 0x40 MLOAD DUP1 SWAP2 SUB SWAP1 RETURN JUMPDEST PUSH2 0x37E PUSH1 0x4 DUP1 CALLDATASIZE SUB DUP2 ADD SWAP1 PUSH2 0x379 SWAP2 SWAP1 PUSH2 0x3FB4 JUMP JUMPDEST PUSH2 0x2935 JUMP JUMPDEST STOP JUMPDEST CALLVALUE DUP1 ISZERO PUSH2 0x38C JUMPI PUSH1 0x0 DUP1 REVERT JUMPDEST POP PUSH2 0x3A7 PUSH1 0x4 DUP1 CALLDATASIZE SUB DUP2 ADD SWAP1 PUSH2 0x3A2 SWAP2 SWAP1 PUSH2 0x3E94 JUMP JUMPDEST PUSH2 0x2E29 JUMP JUMPDEST STOP JUMPDEST CALLVALUE DUP1 ISZERO PUSH2 0x3B5 JUMPI PUSH1 0x0 DUP1 REVERT JUMPDEST POP PUSH2 0x3D0 PUSH1 0x4 DUP1 CALLDATASIZE SUB DUP2 ADD SWAP1 PUSH2 0x3CB SWAP2 SWAP1 PUSH2 0x3F21 JUMP JUMPDEST PUSH2 0x3126 JUMP JUMPDEST STOP JUMPDEST PUSH1 0x0 PUSH4 0x150B7A02 PUSH1 0xE0 SHL SWAP1 POP SWAP6 SWAP5 POP POP POP POP POP JUMP JUMPDEST DUP3 DUP3 PUSH1 0x2 DUP1 PUSH1 0x0 DUP5 PUSH20 0xFFFFFFFFFFFFFFFFFFFFFFFFFFFFFFFFFFFFFFFF AND PUSH20 0xFFFFFFFFFFFFFFFFFFFFFFFFFFFFFFFFFFFFFFFF AND DUP2 MSTORE PUSH1 0x20 ADD SWAP1 DUP2 MSTORE PUSH1 0x20 ADD PUSH1 0x0 KECCAK256 PUSH1 0x0 DUP4 DUP2 MSTORE PUSH1 0x20 ADD SWAP1 DUP2 MSTORE PUSH1 0x20 ADD PUSH1 0x0 KECCAK256 SLOAD EQ PUSH2 0x47B JUMPI PUSH1 0x40 MLOAD PUSH32 0x8C379A000000000000000000000000000000000000000000000000000000000 DUP2 MSTORE PUSH1 0x4 ADD PUSH2 0x472 SWAP1 PUSH2 0x47F0 JUMP JUMPDEST PUSH1 0x40 MLOAD DUP1 SWAP2 SUB SWAP1 REVERT JUMPDEST DUP5 DUP5 PUSH1 0x1 PUSH1 0x0 DUP4 PUSH20 0xFFFFFFFFFFFFFFFFFFFFFFFFFFFFFFFFFFFFFFFF AND PUSH20 0xFFFFFFFFFFFFFFFFFFFFFFFFFFFFFFFFFFFFFFFF AND DUP2 MSTORE PUSH1 0x20 ADD SWAP1 DUP2 MSTORE PUSH1 0x20 ADD PUSH1 0x0 KECCAK256 PUSH1 0x0 DUP3 DUP2 MSTORE PUSH1 0x20 ADD SWAP1 DUP2 MSTORE PUSH1 0x20 ADD PUSH1 0x0 KECCAK256 PUSH1 0x1 ADD SLOAD TIMESTAMP LT PUSH2 0x512 JUMPI PUSH1 0x40 MLOAD PUSH32 0x8C379A000000000000000000000000000000000000000000000000000000000 DUP2 MSTORE PUSH1 0x4 ADD PUSH2 0x509 SWAP1 PUSH2 0x4830 JUMP JUMPDEST PUSH1 0x40 MLOAD DUP1 SWAP2 SUB SWAP1 REVERT JUMPDEST DUP5 PUSH1 0x0 DUP2 GT PUSH2 0x556 JUMPI PUSH1 0x40 MLOAD PUSH32 0x8C379A000000000000000000000000000000000000000000000000000000000 DUP2 MSTORE PUSH1 0x4 ADD PUSH2 0x54D SWAP1 PUSH2 0x4790 JUMP JUMPDEST PUSH1 0x40 MLOAD DUP1 SWAP2 SUB SWAP1 REVERT JUMPDEST DUP8 DUP8 CALLVALUE DUP9 PUSH1 0x0 PUSH20 0xFFFFFFFFFFFFFFFFFFFFFFFFFFFFFFFFFFFFFFFF AND PUSH1 0x1 PUSH1 0x0 DUP7 PUSH20 0xFFFFFFFFFFFFFFFFFFFFFFFFFFFFFFFFFFFFFFFF AND PUSH20 0xFFFFFFFFFFFFFFFFFFFFFFFFFFFFFFFFFFFFFFFF AND DUP2 MSTORE PUSH1 0x20 ADD SWAP1 DUP2 MSTORE PUSH1 0x20 ADD PUSH1 0x0 KECCAK256 PUSH1 0x0 DUP6 DUP2 MSTORE PUSH1 0x20 ADD SWAP1 DUP2 MSTORE PUSH1 0x20 ADD PUSH1 0x0 KECCAK256 PUSH1 0x6 ADD PUSH1 0x0 SWAP1 SLOAD SWAP1 PUSH2 0x100 EXP SWAP1 DIV PUSH20 0xFFFFFFFFFFFFFFFFFFFFFFFFFFFFFFFFFFFFFFFF AND PUSH20 0xFFFFFFFFFFFFFFFFFFFFFFFFFFFFFFFFFFFFFFFF AND EQ ISZERO PUSH2 0x69C JUMPI PUSH1 0x1 PUSH1 0x0 DUP6 PUSH20 0xFFFFFFFFFFFFFFFFFFFFFFFFFFFFFFFFFFFFFFFF AND PUSH20 0xFFFFFFFFFFFFFFFFFFFFFFFFFFFFFFFFFFFFFFFF AND DUP2 MSTORE PUSH1 0x20 ADD SWAP1 DUP2 MSTORE PUSH1 0x20 ADD PUSH1 0x0 KECCAK256 PUSH1 0x0 DUP5 DUP2 MSTORE PUSH1 0x20 ADD SWAP1 DUP2 MSTORE PUSH1 0x20 ADD PUSH1 0x0 KECCAK256 PUSH1 0x3 ADD SLOAD DUP3 GT PUSH2 0x697 JUMPI PUSH1 0x40 MLOAD PUSH32 0x8C379A000000000000000000000000000000000000000000000000000000000 DUP2 MSTORE PUSH1 0x4 ADD PUSH2 0x68E SWAP1 PUSH2 0x4810 JUMP JUMPDEST PUSH1 0x40 MLOAD DUP1 SWAP2 SUB SWAP1 REVERT JUMPDEST PUSH2 0x732 JUMP JUMPDEST PUSH1 0x1 PUSH1 0x0 DUP6 PUSH20 0xFFFFFFFFFFFFFFFFFFFFFFFFFFFFFFFFFFFFFFFF AND PUSH20 0xFFFFFFFFFFFFFFFFFFFFFFFFFFFFFFFFFFFFFFFF AND DUP2 MSTORE PUSH1 0x20 ADD SWAP1 DUP2 MSTORE PUSH1 0x20 ADD PUSH1 0x0 KECCAK256 PUSH1 0x0 DUP5 DUP2 MSTORE PUSH1 0x20 ADD SWAP1 DUP2 MSTORE PUSH1 0x20 ADD PUSH1 0x0 KECCAK256 PUSH1 0x3 ADD SLOAD DUP2 GT PUSH2 0x731 JUMPI PUSH1 0x40 MLOAD PUSH32 0x8C379A000000000000000000000000000000000000000000000000000000000 DUP2 MSTORE PUSH1 0x4 ADD PUSH2 0x728 SWAP1 PUSH2 0x4810 JUMP JUMPDEST PUSH1 0x40 MLOAD DUP1 SWAP2 SUB SWAP1 REVERT JUMPDEST JUMPDEST PUSH1 0x0 PUSH20 0xFFFFFFFFFFFFFFFFFFFFFFFFFFFFFFFFFFFFFFFF AND PUSH1 0x1 PUSH1 0x0 DUP15 PUSH20 0xFFFFFFFFFFFFFFFFFFFFFFFFFFFFFFFFFFFFFFFF AND PUSH20 0xFFFFFFFFFFFFFFFFFFFFFFFFFFFFFFFFFFFFFFFF AND DUP2 MSTORE PUSH1 0x20 ADD SWAP1 DUP2 MSTORE PUSH1 0x20 ADD PUSH1 0x0 KECCAK256 PUSH1 0x0 DUP14 DUP2 MSTORE PUSH1 0x20 ADD SWAP1 DUP2 MSTORE PUSH1 0x20 ADD PUSH1 0x0 KECCAK256 PUSH1 0x6 ADD PUSH1 0x0 SWAP1 SLOAD SWAP1 PUSH2 0x100 EXP SWAP1 DIV PUSH20 0xFFFFFFFFFFFFFFFFFFFFFFFFFFFFFFFFFFFFFFFF AND PUSH20 0xFFFFFFFFFFFFFFFFFFFFFFFFFFFFFFFFFFFFFFFF AND EQ PUSH2 0x857 JUMPI PUSH2 0x856 DUP11 PUSH1 0x1 PUSH1 0x0 DUP16 PUSH20 0xFFFFFFFFFFFFFFFFFFFFFFFFFFFFFFFFFFFFFFFF AND PUSH20 0xFFFFFFFFFFFFFFFFFFFFFFFFFFFFFFFFFFFFFFFF AND DUP2 MSTORE PUSH1 0x20 ADD SWAP1 DUP2 MSTORE PUSH1 0x20 ADD PUSH1 0x0 KECCAK256 PUSH1 0x0 DUP15 DUP2 MSTORE PUSH1 0x20 ADD SWAP1 DUP2 MSTORE PUSH1 0x20 ADD PUSH1 0x0 KECCAK256 PUSH1 0x6 ADD PUSH1 0x0 SWAP1 SLOAD SWAP1 PUSH2 0x100 EXP SWAP1 DIV PUSH20 0xFFFFFFFFFFFFFFFFFFFFFFFFFFFFFFFFFFFFFFFF AND PUSH2 0x3449 JUMP JUMPDEST JUMPDEST DUP10 PUSH1 0x1 PUSH1 0x0 DUP15 PUSH20 0xFFFFFFFFFFFFFFFFFFFFFFFFFFFFFFFFFFFFFFFF AND PUSH20 0xFFFFFFFFFFFFFFFFFFFFFFFFFFFFFFFFFFFFFFFF AND DUP2 MSTORE PUSH1 0x20 ADD SWAP1 DUP2 MSTORE PUSH1 0x20 ADD PUSH1 0x0 KECCAK256 PUSH1 0x0 DUP14 DUP2 MSTORE PUSH1 0x20 ADD SWAP1 DUP2 MSTORE PUSH1 0x20 ADD PUSH1 0x0 KECCAK256 PUSH1 0x3 ADD DUP2 SWAP1 SSTORE POP CALLER PUSH1 0x1 PUSH1 0x0 DUP15 PUSH20 0xFFFFFFFFFFFFFFFFFFFFFFFFFFFFFFFFFFFFFFFF AND PUSH20 0xFFFFFFFFFFFFFFFFFFFFFFFFFFFFFFFFFFFFFFFF AND DUP2 MSTORE PUSH1 0x20 ADD SWAP1 DUP2 MSTORE PUSH1 0x20 ADD PUSH1 0x0 KECCAK256 PUSH1 0x0 DUP14 DUP2 MSTORE PUSH1 0x20 ADD SWAP1 DUP2 MSTORE PUSH1 0x20 ADD PUSH1 0x0 KECCAK256 PUSH1 0x4 ADD PUSH1 0x0 PUSH2 0x100 EXP DUP2 SLOAD DUP2 PUSH20 0xFFFFFFFFFFFFFFFFFFFFFFFFFFFFFFFFFFFFFFFF MUL NOT AND SWAP1 DUP4 PUSH20 0xFFFFFFFFFFFFFFFFFFFFFFFFFFFFFFFFFFFFFFFF AND MUL OR SWAP1 SSTORE POP DUP10 PUSH1 0x3 PUSH1 0x0 DUP15 PUSH20 0xFFFFFFFFFFFFFFFFFFFFFFFFFFFFFFFFFFFFFFFF AND PUSH20 0xFFFFFFFFFFFFFFFFFFFFFFFFFFFFFFFFFFFFFFFF AND DUP2 MSTORE PUSH1 0x20 ADD SWAP1 DUP2 MSTORE PUSH1 0x20 ADD PUSH1 0x0 KECCAK256 PUSH1 0x0 DUP14 DUP2 MSTORE PUSH1 0x20 ADD SWAP1 DUP2 MSTORE PUSH1 0x20 ADD PUSH1 0x0 KECCAK256 PUSH1 0x0 CALLER PUSH20 0xFFFFFFFFFFFFFFFFFFFFFFFFFFFFFFFFFFFFFFFF AND PUSH20 0xFFFFFFFFFFFFFFFFFFFFFFFFFFFFFFFFFFFFFFFF AND DUP2 MSTORE PUSH1 0x20 ADD SWAP1 DUP2 MSTORE PUSH1 0x20 ADD PUSH1 0x0 KECCAK256 DUP2 SWAP1 SSTORE POP PUSH32 0xD56CB6210C78740462007B728932C802BC41B205ED5C8A98AB95421EAF054B22 DUP13 DUP13 DUP13 CALLER PUSH1 0x40 MLOAD PUSH2 0xA08 SWAP5 SWAP4 SWAP3 SWAP2 SWAP1 PUSH2 0x46CE JUMP JUMPDEST PUSH1 0x40 MLOAD DUP1 SWAP2 SUB SWAP1 LOG1 POP POP POP POP POP POP POP POP POP POP POP POP JUMP JUMPDEST DUP3 DUP3 PUSH1 0x2 DUP1 PUSH1 0x0 DUP5 PUSH20 0xFFFFFFFFFFFFFFFFFFFFFFFFFFFFFFFFFFFFFFFF AND PUSH20 0xFFFFFFFFFFFFFFFFFFFFFFFFFFFFFFFFFFFFFFFF AND DUP2 MSTORE PUSH1 0x20 ADD SWAP1 DUP2 MSTORE PUSH1 0x20 ADD PUSH1 0x0 KECCAK256 PUSH1 0x0 DUP4 DUP2 MSTORE PUSH1 0x20 ADD SWAP1 DUP2 MSTORE PUSH1 0x20 ADD PUSH1 0x0 KECCAK256 SLOAD EQ PUSH2 0xAB2 JUMPI PUSH1 0x40 MLOAD PUSH32 0x8C379A000000000000000000000000000000000000000000000000000000000 DUP2 MSTORE PUSH1 0x4 ADD PUSH2 0xAA9 SWAP1 PUSH2 0x47F0 JUMP JUMPDEST PUSH1 0x40 MLOAD DUP1 SWAP2 SUB SWAP1 REVERT JUMPDEST DUP5 DUP5 PUSH1 0x1 PUSH1 0x0 DUP4 PUSH20 0xFFFFFFFFFFFFFFFFFFFFFFFFFFFFFFFFFFFFFFFF AND PUSH20 0xFFFFFFFFFFFFFFFFFFFFFFFFFFFFFFFFFFFFFFFF AND DUP2 MSTORE PUSH1 0x20 ADD SWAP1 DUP2 MSTORE PUSH1 0x20 ADD PUSH1 0x0 KECCAK256 PUSH1 0x0 DUP3 DUP2 MSTORE PUSH1 0x20 ADD SWAP1 DUP2 MSTORE PUSH1 0x20 ADD PUSH1 0x0 KECCAK256 PUSH1 0x1 ADD SLOAD TIMESTAMP LT PUSH2 0xB49 JUMPI PUSH1 0x40 MLOAD PUSH32 0x8C379A000000000000000000000000000000000000000000000000000000000 DUP2 MSTORE PUSH1 0x4 ADD PUSH2 0xB40 SWAP1 PUSH2 0x4830 JUMP JUMPDEST PUSH1 0x40 MLOAD DUP1 SWAP2 SUB SWAP1 REVERT JUMPDEST CALLVALUE PUSH1 0x0 DUP2 GT PUSH2 0xB8D JUMPI PUSH1 0x40 MLOAD PUSH32 0x8C379A000000000000000000000000000000000000000000000000000000000 DUP2 MSTORE PUSH1 0x4 ADD PUSH2 0xB84 SWAP1 PUSH2 0x4790 JUMP JUMPDEST PUSH1 0x40 MLOAD DUP1 SWAP2 SUB SWAP1 REVERT JUMPDEST DUP8 DUP8 CALLVALUE DUP9 PUSH1 0x0 DUP1 PUSH20 0xFFFFFFFFFFFFFFFFFFFFFFFFFFFFFFFFFFFFFFFF AND PUSH1 0x1 PUSH1 0x0 DUP8 PUSH20 0xFFFFFFFFFFFFFFFFFFFFFFFFFFFFFFFFFFFFFFFF AND PUSH20 0xFFFFFFFFFFFFFFFFFFFFFFFFFFFFFFFFFFFFFFFF AND DUP2 MSTORE PUSH1 0x20 ADD SWAP1 DUP2 MSTORE PUSH1 0x20 ADD PUSH1 0x0 KECCAK256 PUSH1 0x0 DUP7 DUP2 MSTORE PUSH1 0x20 ADD SWAP1 DUP2 MSTORE PUSH1 0x20 ADD PUSH1 0x0 KECCAK256 PUSH1 0x6 ADD PUSH1 0x0 SWAP1 SLOAD SWAP1 PUSH2 0x100 EXP SWAP1 DIV PUSH20 0xFFFFFFFFFFFFFFFFFFFFFFFFFFFFFFFFFFFFFFFF AND PUSH20 0xFFFFFFFFFFFFFFFFFFFFFFFFFFFFFFFFFFFFFFFF AND EQ ISZERO PUSH2 0xCE1 JUMPI PUSH2 0xCDA DUP4 PUSH1 0x3 PUSH1 0x0 DUP9 PUSH20 0xFFFFFFFFFFFFFFFFFFFFFFFFFFFFFFFFFFFFFFFF AND PUSH20 0xFFFFFFFFFFFFFFFFFFFFFFFFFFFFFFFFFFFFFFFF AND DUP2 MSTORE PUSH1 0x20 ADD SWAP1 DUP2 MSTORE PUSH1 0x20 ADD PUSH1 0x0 KECCAK256 PUSH1 0x0 DUP8 DUP2 MSTORE PUSH1 0x20 ADD SWAP1 DUP2 MSTORE PUSH1 0x20 ADD PUSH1 0x0 KECCAK256 PUSH1 0x0 CALLER PUSH20 0xFFFFFFFFFFFFFFFFFFFFFFFFFFFFFFFFFFFFFFFF AND PUSH20 0xFFFFFFFFFFFFFFFFFFFFFFFFFFFFFFFFFFFFFFFF AND DUP2 MSTORE PUSH1 0x20 ADD SWAP1 DUP2 MSTORE PUSH1 0x20 ADD PUSH1 0x0 KECCAK256 SLOAD PUSH2 0x351B SWAP1 SWAP2 SWAP1 PUSH4 0xFFFFFFFF AND JUMP JUMPDEST SWAP1 POP PUSH2 0xD84 JUMP JUMPDEST PUSH2 0xD81 DUP3 PUSH1 0x3 PUSH1 0x0 DUP9 PUSH20 0xFFFFFFFFFFFFFFFFFFFFFFFFFFFFFFFFFFFFFFFF AND PUSH20 0xFFFFFFFFFFFFFFFFFFFFFFFFFFFFFFFFFFFFFFFF AND DUP2 MSTORE PUSH1 0x20 ADD SWAP1 DUP2 MSTORE PUSH1 0x20 ADD PUSH1 0x0 KECCAK256 PUSH1 0x0 DUP8 DUP2 MSTORE PUSH1 0x20 ADD SWAP1 DUP2 MSTORE PUSH1 0x20 ADD PUSH1 0x0 KECCAK256 PUSH1 0x0 CALLER PUSH20 0xFFFFFFFFFFFFFFFFFFFFFFFFFFFFFFFFFFFFFFFF AND PUSH20 0xFFFFFFFFFFFFFFFFFFFFFFFFFFFFFFFFFFFFFFFF AND DUP2 MSTORE PUSH1 0x20 ADD SWAP1 DUP2 MSTORE PUSH1 0x20 ADD PUSH1 0x0 KECCAK256 SLOAD PUSH2 0x351B SWAP1 SWAP2 SWAP1 PUSH4 0xFFFFFFFF AND JUMP JUMPDEST SWAP1 POP JUMPDEST PUSH1 0x1 PUSH1 0x0 DUP7 PUSH20 0xFFFFFFFFFFFFFFFFFFFFFFFFFFFFFFFFFFFFFFFF AND PUSH20 0xFFFFFFFFFFFFFFFFFFFFFFFFFFFFFFFFFFFFFFFF AND DUP2 MSTORE PUSH1 0x20 ADD SWAP1 DUP2 MSTORE PUSH1 0x20 ADD PUSH1 0x0 KECCAK256 PUSH1 0x0 DUP6 DUP2 MSTORE PUSH1 0x20 ADD SWAP1 DUP2 MSTORE PUSH1 0x20 ADD PUSH1 0x0 KECCAK256 PUSH1 0x3 ADD SLOAD DUP2 GT PUSH2 0xE19 JUMPI PUSH1 0x40 MLOAD PUSH32 0x8C379A000000000000000000000000000000000000000000000000000000000 DUP2 MSTORE PUSH1 0x4 ADD PUSH2 0xE10 SWAP1 PUSH2 0x4810 JUMP JUMPDEST PUSH1 0x40 MLOAD DUP1 SWAP2 SUB SWAP1 REVERT JUMPDEST PUSH1 0x0 DUP14 SWAP1 POP PUSH1 0x0 DUP14 SWAP1 POP PUSH1 0x0 PUSH2 0xEC5 DUP15 PUSH1 0x3 PUSH1 0x0 DUP7 PUSH20 0xFFFFFFFFFFFFFFFFFFFFFFFFFFFFFFFFFFFFFFFF AND PUSH20 0xFFFFFFFFFFFFFFFFFFFFFFFFFFFFFFFFFFFFFFFF AND DUP2 MSTORE PUSH1 0x20 ADD SWAP1 DUP2 MSTORE PUSH1 0x20 ADD PUSH1 0x0 KECCAK256 PUSH1 0x0 DUP6 DUP2 MSTORE PUSH1 0x20 ADD SWAP1 DUP2 MSTORE PUSH1 0x20 ADD PUSH1 0x0 KECCAK256 PUSH1 0x0 CALLER PUSH20 0xFFFFFFFFFFFFFFFFFFFFFFFFFFFFFFFFFFFFFFFF AND PUSH20 0xFFFFFFFFFFFFFFFFFFFFFFFFFFFFFFFFFFFFFFFF AND DUP2 MSTORE PUSH1 0x20 ADD SWAP1 DUP2 MSTORE PUSH1 0x20 ADD PUSH1 0x0 KECCAK256 SLOAD PUSH2 0x351B SWAP1 SWAP2 SWAP1 PUSH4 0xFFFFFFFF AND JUMP JUMPDEST SWAP1 POP PUSH1 0x0 PUSH20 0xFFFFFFFFFFFFFFFFFFFFFFFFFFFFFFFFFFFFFFFF AND PUSH1 0x1 PUSH1 0x0 DUP6 PUSH20 0xFFFFFFFFFFFFFFFFFFFFFFFFFFFFFFFFFFFFFFFF AND PUSH20 0xFFFFFFFFFFFFFFFFFFFFFFFFFFFFFFFFFFFFFFFF AND DUP2 MSTORE PUSH1 0x20 ADD SWAP1 DUP2 MSTORE PUSH1 0x20 ADD PUSH1 0x0 KECCAK256 PUSH1 0x0 DUP5 DUP2 MSTORE PUSH1 0x20 ADD SWAP1 DUP2 MSTORE PUSH1 0x20 ADD PUSH1 0x0 KECCAK256 PUSH1 0x6 ADD PUSH1 0x0 SWAP1 SLOAD SWAP1 PUSH2 0x100 EXP SWAP1 DIV PUSH20 0xFFFFFFFFFFFFFFFFFFFFFFFFFFFFFFFFFFFFFFFF AND PUSH20 0xFFFFFFFFFFFFFFFFFFFFFFFFFFFFFFFFFFFFFFFF AND EQ PUSH2 0xFEC JUMPI PUSH2 0xFEB DUP15 PUSH1 0x1 PUSH1 0x0 DUP7 PUSH20 0xFFFFFFFFFFFFFFFFFFFFFFFFFFFFFFFFFFFFFFFF AND PUSH20 0xFFFFFFFFFFFFFFFFFFFFFFFFFFFFFFFFFFFFFFFF AND DUP2 MSTORE PUSH1 0x20 ADD SWAP1 DUP2 MSTORE PUSH1 0x20 ADD PUSH1 0x0 KECCAK256 PUSH1 0x0 DUP6 DUP2 MSTORE PUSH1 0x20 ADD SWAP1 DUP2 MSTORE PUSH1 0x20 ADD PUSH1 0x0 KECCAK256 PUSH1 0x6 ADD PUSH1 0x0 SWAP1 SLOAD SWAP1 PUSH2 0x100 EXP SWAP1 DIV PUSH20 0xFFFFFFFFFFFFFFFFFFFFFFFFFFFFFFFFFFFFFFFF AND PUSH2 0x3449 JUMP JUMPDEST JUMPDEST DUP1 PUSH1 0x1 PUSH1 0x0 DUP6 PUSH20 0xFFFFFFFFFFFFFFFFFFFFFFFFFFFFFFFFFFFFFFFF AND PUSH20 0xFFFFFFFFFFFFFFFFFFFFFFFFFFFFFFFFFFFFFFFF AND DUP2 MSTORE PUSH1 0x20 ADD SWAP1 DUP2 MSTORE PUSH1 0x20 ADD PUSH1 0x0 KECCAK256 PUSH1 0x0 DUP5 DUP2 MSTORE PUSH1 0x20 ADD SWAP1 DUP2 MSTORE PUSH1 0x20 ADD PUSH1 0x0 KECCAK256 PUSH1 0x3 ADD DUP2 SWAP1 SSTORE POP CALLER PUSH1 0x1 PUSH1 0x0 DUP6 PUSH20 0xFFFFFFFFFFFFFFFFFFFFFFFFFFFFFFFFFFFFFFFF AND PUSH20 0xFFFFFFFFFFFFFFFFFFFFFFFFFFFFFFFFFFFFFFFF AND DUP2 MSTORE PUSH1 0x20 ADD SWAP1 DUP2 MSTORE PUSH1 0x20 ADD PUSH1 0x0 KECCAK256 PUSH1 0x0 DUP5 DUP2 MSTORE PUSH1 0x20 ADD SWAP1 DUP2 MSTORE PUSH1 0x20 ADD PUSH1 0x0 KECCAK256 PUSH1 0x4 ADD PUSH1 0x0 PUSH2 0x100 EXP DUP2 SLOAD DUP2 PUSH20 0xFFFFFFFFFFFFFFFFFFFFFFFFFFFFFFFFFFFFFFFF MUL NOT AND SWAP1 DUP4 PUSH20 0xFFFFFFFFFFFFFFFFFFFFFFFFFFFFFFFFFFFFFFFF AND MUL OR SWAP1 SSTORE POP DUP1 PUSH1 0x3 PUSH1 0x0 DUP6 PUSH20 0xFFFFFFFFFFFFFFFFFFFFFFFFFFFFFFFFFFFFFFFF AND PUSH20 0xFFFFFFFFFFFFFFFFFFFFFFFFFFFFFFFFFFFFFFFF AND DUP2 MSTORE PUSH1 0x20 ADD SWAP1 DUP2 MSTORE PUSH1 0x20 ADD PUSH1 0x0 KECCAK256 PUSH1 0x0 DUP5 DUP2 MSTORE PUSH1 0x20 ADD SWAP1 DUP2 MSTORE PUSH1 0x20 ADD PUSH1 0x0 KECCAK256 PUSH1 0x0 CALLER PUSH20 0xFFFFFFFFFFFFFFFFFFFFFFFFFFFFFFFFFFFFFFFF AND PUSH20 0xFFFFFFFFFFFFFFFFFFFFFFFFFFFFFFFFFFFFFFFF AND DUP2 MSTORE PUSH1 0x20 ADD SWAP1 DUP2 MSTORE PUSH1 0x20 ADD PUSH1 0x0 KECCAK256 DUP2 SWAP1 SSTORE POP PUSH32 0x907CDADC7C1A8ABCDD80CDD85EB18377631E4F413FB6397A8252FF7B358AC6CB DUP4 DUP4 DUP4 CALLER PUSH1 0x40 MLOAD PUSH2 0x119D SWAP5 SWAP4 SWAP3 SWAP2 SWAP1 PUSH2 0x46CE JUMP JUMPDEST PUSH1 0x40 MLOAD DUP1 SWAP2 SUB SWAP1 LOG1 POP POP POP POP POP POP POP POP POP POP POP POP POP POP POP POP JUMP JUMPDEST DUP3 DUP3 PUSH1 0x1 PUSH1 0x2 PUSH1 0x0 DUP5 PUSH20 0xFFFFFFFFFFFFFFFFFFFFFFFFFFFFFFFFFFFFFFFF AND PUSH20 0xFFFFFFFFFFFFFFFFFFFFFFFFFFFFFFFFFFFFFFFF AND DUP2 MSTORE PUSH1 0x20 ADD SWAP1 DUP2 MSTORE PUSH1 0x20 ADD PUSH1 0x0 KECCAK256 PUSH1 0x0 DUP4 DUP2 MSTORE PUSH1 0x20 ADD SWAP1 DUP2 MSTORE PUSH1 0x20 ADD PUSH1 0x0 KECCAK256 SLOAD EQ PUSH2 0x124C JUMPI PUSH1 0x40 MLOAD PUSH32 0x8C379A000000000000000000000000000000000000000000000000000000000 DUP2 MSTORE PUSH1 0x4 ADD PUSH2 0x1243 SWAP1 PUSH2 0x47D0 JUMP JUMPDEST PUSH1 0x40 MLOAD DUP1 SWAP2 SUB SWAP1 REVERT JUMPDEST DUP5 DUP5 PUSH1 0x0 DUP1 DUP4 PUSH20 0xFFFFFFFFFFFFFFFFFFFFFFFFFFFFFFFFFFFFFFFF AND PUSH20 0xFFFFFFFFFFFFFFFFFFFFFFFFFFFFFFFFFFFFFFFF AND DUP2 MSTORE PUSH1 0x20 ADD SWAP1 DUP2 MSTORE PUSH1 0x20 ADD PUSH1 0x0 KECCAK256 PUSH1 0x0 DUP3 DUP2 MSTORE PUSH1 0x20 ADD SWAP1 DUP2 MSTORE PUSH1 0x20 ADD PUSH1 0x0 KECCAK256 PUSH1 0x0 ADD PUSH1 0x0 SWAP1 SLOAD SWAP1 PUSH2 0x100 EXP SWAP1 DIV PUSH20 0xFFFFFFFFFFFFFFFFFFFFFFFFFFFFFFFFFFFFFFFF AND PUSH20 0xFFFFFFFFFFFFFFFFFFFFFFFFFFFFFFFFFFFFFFFF AND CALLER PUSH20 0xFFFFFFFFFFFFFFFFFFFFFFFFFFFFFFFFFFFFFFFF AND EQ PUSH2 0x132E JUMPI PUSH1 0x40 MLOAD PUSH32 0x8C379A000000000000000000000000000000000000000000000000000000000 DUP2 MSTORE PUSH1 0x4 ADD PUSH2 0x1325 SWAP1 PUSH2 0x48D0 JUMP JUMPDEST PUSH1 0x40 MLOAD DUP1 SWAP2 SUB SWAP1 REVERT JUMPDEST DUP5 PUSH1 0x0 DUP2 GT PUSH2 0x1372 JUMPI PUSH1 0x40 MLOAD PUSH32 0x8C379A000000000000000000000000000000000000000000000000000000000 DUP2 MSTORE PUSH1 0x4 ADD PUSH2 0x1369 SWAP1 PUSH2 0x4790 JUMP JUMPDEST PUSH1 0x40 MLOAD DUP1 SWAP2 SUB SWAP1 REVERT JUMPDEST DUP6 PUSH1 0x0 DUP1 DUP11 PUSH20 0xFFFFFFFFFFFFFFFFFFFFFFFFFFFFFFFFFFFFFFFF AND PUSH20 0xFFFFFFFFFFFFFFFFFFFFFFFFFFFFFFFFFFFFFFFF AND DUP2 MSTORE PUSH1 0x20 ADD SWAP1 DUP2 MSTORE PUSH1 0x20 ADD PUSH1 0x0 KECCAK256 PUSH1 0x0 DUP10 DUP2 MSTORE PUSH1 0x20 ADD SWAP1 DUP2 MSTORE PUSH1 0x20 ADD PUSH1 0x0 KECCAK256 PUSH1 0x3 ADD DUP2 SWAP1 SSTORE POP PUSH32 0x575A0876095CCF47276A37DCE683308A625403D132D219F95205CE205B2E12BC DUP9 DUP9 DUP9 PUSH1 0x40 MLOAD PUSH2 0x13FC SWAP4 SWAP3 SWAP2 SWAP1 PUSH2 0x4697 JUMP JUMPDEST PUSH1 0x40 MLOAD DUP1 SWAP2 SUB SWAP1 LOG1 POP POP POP POP POP POP POP POP JUMP JUMPDEST DUP2 DUP2 PUSH1 0x1 PUSH1 0x0 DUP4 PUSH20 0xFFFFFFFFFFFFFFFFFFFFFFFFFFFFFFFFFFFFFFFF AND PUSH20 0xFFFFFFFFFFFFFFFFFFFFFFFFFFFFFFFFFFFFFFFF AND DUP2 MSTORE PUSH1 0x20 ADD SWAP1 DUP2 MSTORE PUSH1 0x20 ADD PUSH1 0x0 KECCAK256 PUSH1 0x0 DUP3 DUP2 MSTORE PUSH1 0x20 ADD SWAP1 DUP2 MSTORE PUSH1 0x20 ADD PUSH1 0x0 KECCAK256 PUSH1 0x1 ADD SLOAD TIMESTAMP GT PUSH2 0x14A5 JUMPI PUSH1 0x40 MLOAD PUSH32 0x8C379A000000000000000000000000000000000000000000000000000000000 DUP2 MSTORE PUSH1 0x4 ADD PUSH2 0x149C SWAP1 PUSH2 0x48B0 JUMP JUMPDEST PUSH1 0x40 MLOAD DUP1 SWAP2 SUB SWAP1 REVERT JUMPDEST PUSH1 0x1 PUSH1 0x0 DUP6 PUSH20 0xFFFFFFFFFFFFFFFFFFFFFFFFFFFFFFFFFFFFFFFF AND PUSH20 0xFFFFFFFFFFFFFFFFFFFFFFFFFFFFFFFFFFFFFFFF AND DUP2 MSTORE PUSH1 0x20 ADD SWAP1 DUP2 MSTORE PUSH1 0x20 ADD PUSH1 0x0 KECCAK256 PUSH1 0x0 DUP5 DUP2 MSTORE PUSH1 0x20 ADD SWAP1 DUP2 MSTORE PUSH1 0x20 ADD PUSH1 0x0 KECCAK256 PUSH1 0x4 ADD PUSH1 0x0 SWAP1 SLOAD SWAP1 PUSH2 0x100 EXP SWAP1 DIV PUSH20 0xFFFFFFFFFFFFFFFFFFFFFFFFFFFFFFFFFFFFFFFF AND PUSH20 0xFFFFFFFFFFFFFFFFFFFFFFFFFFFFFFFFFFFFFFFF AND CALLER PUSH20 0xFFFFFFFFFFFFFFFFFFFFFFFFFFFFFFFFFFFFFFFF AND EQ ISZERO PUSH2 0x1587 JUMPI PUSH1 0x40 MLOAD PUSH32 0x8C379A000000000000000000000000000000000000000000000000000000000 DUP2 MSTORE PUSH1 0x4 ADD PUSH2 0x157E SWAP1 PUSH2 0x4750 JUMP JUMPDEST PUSH1 0x40 MLOAD DUP1 SWAP2 SUB SWAP1 REVERT JUMPDEST PUSH1 0x0 PUSH1 0x3 PUSH1 0x0 DUP7 PUSH20 0xFFFFFFFFFFFFFFFFFFFFFFFFFFFFFFFFFFFFFFFF AND PUSH20 0xFFFFFFFFFFFFFFFFFFFFFFFFFFFFFFFFFFFFFFFF AND DUP2 MSTORE PUSH1 0x20 ADD SWAP1 DUP2 MSTORE PUSH1 0x20 ADD PUSH1 0x0 KECCAK256 PUSH1 0x0 DUP6 DUP2 MSTORE PUSH1 0x20 ADD SWAP1 DUP2 MSTORE PUSH1 0x20 ADD PUSH1 0x0 KECCAK256 PUSH1 0x0 CALLER PUSH20 0xFFFFFFFFFFFFFFFFFFFFFFFFFFFFFFFFFFFFFFFF AND PUSH20 0xFFFFFFFFFFFFFFFFFFFFFFFFFFFFFFFFFFFFFFFF AND DUP2 MSTORE PUSH1 0x20 ADD SWAP1 DUP2 MSTORE PUSH1 0x20 ADD PUSH1 0x0 KECCAK256 SLOAD GT PUSH2 0x1657 JUMPI PUSH1 0x40 MLOAD PUSH32 0x8C379A000000000000000000000000000000000000000000000000000000000 DUP2 MSTORE PUSH1 0x4 ADD PUSH2 0x164E SWAP1 PUSH2 0x48F0 JUMP JUMPDEST PUSH1 0x40 MLOAD DUP1 SWAP2 SUB SWAP1 REVERT JUMPDEST PUSH1 0x0 PUSH1 0x3 PUSH1 0x0 DUP7 PUSH20 0xFFFFFFFFFFFFFFFFFFFFFFFFFFFFFFFFFFFFFFFF AND PUSH20 0xFFFFFFFFFFFFFFFFFFFFFFFFFFFFFFFFFFFFFFFF AND DUP2 MSTORE PUSH1 0x20 ADD SWAP1 DUP2 MSTORE PUSH1 0x20 ADD PUSH1 0x0 KECCAK256 PUSH1 0x0 DUP6 DUP2 MSTORE PUSH1 0x20 ADD SWAP1 DUP2 MSTORE PUSH1 0x20 ADD PUSH1 0x0 KECCAK256 PUSH1 0x0 CALLER PUSH20 0xFFFFFFFFFFFFFFFFFFFFFFFFFFFFFFFFFFFFFFFF AND PUSH20 0xFFFFFFFFFFFFFFFFFFFFFFFFFFFFFFFFFFFFFFFF AND DUP2 MSTORE PUSH1 0x20 ADD SWAP1 DUP2 MSTORE PUSH1 0x20 ADD PUSH1 0x0 KECCAK256 DUP2 SWAP1 SSTORE POP PUSH32 0xDE8CB9AA2C755CF75D5FBC4FEC824B10E311652306F1FCA5C8E57A04758B0AA7 DUP5 DUP5 CALLER PUSH1 0x40 MLOAD PUSH2 0x171D SWAP4 SWAP3 SWAP2 SWAP1 PUSH2 0x460D JUMP JUMPDEST PUSH1 0x40 MLOAD DUP1 SWAP2 SUB SWAP1 LOG1 POP POP POP POP JUMP JUMPDEST DUP2 DUP2 PUSH1 0x2 DUP1 PUSH1 0x0 DUP5 PUSH20 0xFFFFFFFFFFFFFFFFFFFFFFFFFFFFFFFFFFFFFFFF AND PUSH20 0xFFFFFFFFFFFFFFFFFFFFFFFFFFFFFFFFFFFFFFFF AND DUP2 MSTORE PUSH1 0x20 ADD SWAP1 DUP2 MSTORE PUSH1 0x20 ADD PUSH1 0x0 KECCAK256 PUSH1 0x0 DUP4 DUP2 MSTORE PUSH1 0x20 ADD SWAP1 DUP2 MSTORE PUSH1 0x20 ADD PUSH1 0x0 KECCAK256 SLOAD EQ PUSH2 0x17BF JUMPI PUSH1 0x40 MLOAD PUSH32 0x8C379A000000000000000000000000000000000000000000000000000000000 DUP2 MSTORE PUSH1 0x4 ADD PUSH2 0x17B6 SWAP1 PUSH2 0x47F0 JUMP JUMPDEST PUSH1 0x40 MLOAD DUP1 SWAP2 SUB SWAP1 REVERT JUMPDEST DUP4 DUP4 PUSH1 0x1 PUSH1 0x0 DUP4 PUSH20 0xFFFFFFFFFFFFFFFFFFFFFFFFFFFFFFFFFFFFFFFF AND PUSH20 0xFFFFFFFFFFFFFFFFFFFFFFFFFFFFFFFFFFFFFFFF AND DUP2 MSTORE PUSH1 0x20 ADD SWAP1 DUP2 MSTORE PUSH1 0x20 ADD PUSH1 0x0 KECCAK256 PUSH1 0x0 DUP3 DUP2 MSTORE PUSH1 0x20 ADD SWAP1 DUP2 MSTORE PUSH1 0x20 ADD PUSH1 0x0 KECCAK256 PUSH1 0x1 ADD SLOAD TIMESTAMP GT PUSH2 0x1856 JUMPI PUSH1 0x40 MLOAD PUSH32 0x8C379A000000000000000000000000000000000000000000000000000000000 DUP2 MSTORE PUSH1 0x4 ADD PUSH2 0x184D SWAP1 PUSH2 0x48B0 JUMP JUMPDEST PUSH1 0x40 MLOAD DUP1 SWAP2 SUB SWAP1 REVERT JUMPDEST PUSH1 0x0 PUSH1 0x1 PUSH1 0x0 DUP9 PUSH20 0xFFFFFFFFFFFFFFFFFFFFFFFFFFFFFFFFFFFFFFFF AND PUSH20 0xFFFFFFFFFFFFFFFFFFFFFFFFFFFFFFFFFFFFFFFF AND DUP2 MSTORE PUSH1 0x20 ADD SWAP1 DUP2 MSTORE PUSH1 0x20 ADD PUSH1 0x0 KECCAK256 PUSH1 0x0 DUP8 DUP2 MSTORE PUSH1 0x20 ADD SWAP1 DUP2 MSTORE PUSH1 0x20 ADD PUSH1 0x0 KECCAK256 PUSH1 0x4 ADD PUSH1 0x0 SWAP1 SLOAD SWAP1 PUSH2 0x100 EXP SWAP1 DIV PUSH20 0xFFFFFFFFFFFFFFFFFFFFFFFFFFFFFFFFFFFFFFFF AND SWAP1 POP PUSH2 0x192D DUP8 DUP8 PUSH1 0x1 PUSH1 0x0 DUP12 PUSH20 0xFFFFFFFFFFFFFFFFFFFFFFFFFFFFFFFFFFFFFFFF AND PUSH20 0xFFFFFFFFFFFFFFFFFFFFFFFFFFFFFFFFFFFFFFFF AND DUP2 MSTORE PUSH1 0x20 ADD SWAP1 DUP2 MSTORE PUSH1 0x20 ADD PUSH1 0x0 KECCAK256 PUSH1 0x0 DUP11 DUP2 MSTORE PUSH1 0x20 ADD SWAP1 DUP2 MSTORE PUSH1 0x20 ADD PUSH1 0x0 KECCAK256 PUSH1 0x3 ADD SLOAD DUP5 PUSH2 0x3531 JUMP JUMPDEST PUSH1 0x0 PUSH1 0x3 PUSH1 0x0 DUP10 PUSH20 0xFFFFFFFFFFFFFFFFFFFFFFFFFFFFFFFFFFFFFFFF AND PUSH20 0xFFFFFFFFFFFFFFFFFFFFFFFFFFFFFFFFFFFFFFFF AND DUP2 MSTORE PUSH1 0x20 ADD SWAP1 DUP2 MSTORE PUSH1 0x20 ADD PUSH1 0x0 KECCAK256 PUSH1 0x0 DUP9 DUP2 MSTORE PUSH1 0x20 ADD SWAP1 DUP2 MSTORE PUSH1 0x20 ADD PUSH1 0x0 KECCAK256 PUSH1 0x0 DUP4 PUSH20 0xFFFFFFFFFFFFFFFFFFFFFFFFFFFFFFFFFFFFFFFF AND PUSH20 0xFFFFFFFFFFFFFFFFFFFFFFFFFFFFFFFFFFFFFFFF AND DUP2 MSTORE PUSH1 0x20 ADD SWAP1 DUP2 MSTORE PUSH1 0x20 ADD PUSH1 0x0 KECCAK256 DUP2 SWAP1 SSTORE POP PUSH32 0xB31CB4F6609B11A57D1B6B14CC3F81F4B3E609F709A5B1E46892A45F9CC29ED8 DUP8 DUP8 DUP4 PUSH1 0x1 PUSH1 0x0 DUP13 PUSH20 0xFFFFFFFFFFFFFFFFFFFFFFFFFFFFFFFFFFFFFFFF AND PUSH20 0xFFFFFFFFFFFFFFFFFFFFFFFFFFFFFFFFFFFFFFFF AND DUP2 MSTORE PUSH1 0x20 ADD SWAP1 DUP2 MSTORE PUSH1 0x20 ADD PUSH1 0x0 KECCAK256 PUSH1 0x0 DUP12 DUP2 MSTORE PUSH1 0x20 ADD SWAP1 DUP2 MSTORE PUSH1 0x20 ADD PUSH1 0x0 KECCAK256 PUSH1 0x3 ADD SLOAD PUSH1 0x1 PUSH1 0x0 DUP14 PUSH20 0xFFFFFFFFFFFFFFFFFFFFFFFFFFFFFFFFFFFFFFFF AND PUSH20 0xFFFFFFFFFFFFFFFFFFFFFFFFFFFFFFFFFFFFFFFF AND DUP2 MSTORE PUSH1 0x20 ADD SWAP1 DUP2 MSTORE PUSH1 0x20 ADD PUSH1 0x0 KECCAK256 PUSH1 0x0 DUP13 DUP2 MSTORE PUSH1 0x20 ADD SWAP1 DUP2 MSTORE PUSH1 0x20 ADD PUSH1 0x0 KECCAK256 PUSH1 0x5 ADD PUSH1 0x0 SWAP1 SLOAD SWAP1 PUSH2 0x100 EXP SWAP1 DIV PUSH20 0xFFFFFFFFFFFFFFFFFFFFFFFFFFFFFFFFFFFFFFFF AND PUSH1 0x40 MLOAD PUSH2 0x1ABD SWAP6 SWAP5 SWAP4 SWAP3 SWAP2 SWAP1 PUSH2 0x4644 JUMP JUMPDEST PUSH1 0x40 MLOAD DUP1 SWAP2 SUB SWAP1 LOG1 POP POP POP POP POP POP POP JUMP JUMPDEST PUSH1 0x2 PUSH1 0x20 MSTORE DUP2 PUSH1 0x0 MSTORE PUSH1 0x40 PUSH1 0x0 KECCAK256 PUSH1 0x20 MSTORE DUP1 PUSH1 0x0 MSTORE PUSH1 0x40 PUSH1 0x0 KECCAK256 PUSH1 0x0 SWAP2 POP SWAP2 POP POP SLOAD DUP2 JUMP JUMPDEST DUP4 DUP3 DUP2 PUSH20 0xFFFFFFFFFFFFFFFFFFFFFFFFFFFFFFFFFFFFFFFF AND PUSH4 0x6352211E DUP3 PUSH1 0x40 MLOAD DUP3 PUSH4 0xFFFFFFFF AND PUSH1 0xE0 SHL DUP2 MSTORE PUSH1 0x4 ADD PUSH2 0x1B2E SWAP2 SWAP1 PUSH2 0x4986 JUMP JUMPDEST PUSH1 0x20 PUSH1 0x40 MLOAD DUP1 DUP4 SUB DUP2 DUP7 DUP1 EXTCODESIZE ISZERO DUP1 ISZERO PUSH2 0x1B46 JUMPI PUSH1 0x0 DUP1 REVERT JUMPDEST POP GAS STATICCALL ISZERO DUP1 ISZERO PUSH2 0x1B5A JUMPI RETURNDATASIZE PUSH1 0x0 DUP1 RETURNDATACOPY RETURNDATASIZE PUSH1 0x0 REVERT JUMPDEST POP POP POP POP PUSH1 0x40 MLOAD RETURNDATASIZE PUSH1 0x1F NOT PUSH1 0x1F DUP3 ADD AND DUP3 ADD DUP1 PUSH1 0x40 MSTORE POP DUP2 ADD SWAP1 PUSH2 0x1B7E SWAP2 SWAP1 PUSH2 0x3D78 JUMP JUMPDEST PUSH20 0xFFFFFFFFFFFFFFFFFFFFFFFFFFFFFFFFFFFFFFFF AND CALLER PUSH20 0xFFFFFFFFFFFFFFFFFFFFFFFFFFFFFFFFFFFFFFFF AND EQ PUSH2 0x1BEB JUMPI PUSH1 0x40 MLOAD PUSH32 0x8C379A000000000000000000000000000000000000000000000000000000000 DUP2 MSTORE PUSH1 0x4 ADD PUSH2 0x1BE2 SWAP1 PUSH2 0x48D0 JUMP JUMPDEST PUSH1 0x40 MLOAD DUP1 SWAP2 SUB SWAP1 REVERT JUMPDEST DUP6 DUP5 PUSH1 0x0 PUSH1 0x2 PUSH1 0x0 DUP5 PUSH20 0xFFFFFFFFFFFFFFFFFFFFFFFFFFFFFFFFFFFFFFFF AND PUSH20 0xFFFFFFFFFFFFFFFFFFFFFFFFFFFFFFFFFFFFFFFF AND DUP2 MSTORE PUSH1 0x20 ADD SWAP1 DUP2 MSTORE PUSH1 0x20 ADD PUSH1 0x0 KECCAK256 PUSH1 0x0 DUP4 DUP2 MSTORE PUSH1 0x20 ADD SWAP1 DUP2 MSTORE PUSH1 0x20 ADD PUSH1 0x0 KECCAK256 SLOAD EQ PUSH2 0x1C80 JUMPI PUSH1 0x40 MLOAD PUSH32 0x8C379A000000000000000000000000000000000000000000000000000000000 DUP2 MSTORE PUSH1 0x4 ADD PUSH2 0x1C77 SWAP1 PUSH2 0x4850 JUMP JUMPDEST PUSH1 0x40 MLOAD DUP1 SWAP2 SUB SWAP1 REVERT JUMPDEST DUP8 DUP7 DUP2 PUSH20 0xFFFFFFFFFFFFFFFFFFFFFFFFFFFFFFFFFFFFFFFF AND PUSH4 0xE985E9C5 CALLER ADDRESS PUSH1 0x40 MLOAD DUP4 PUSH4 0xFFFFFFFF AND PUSH1 0xE0 SHL DUP2 MSTORE PUSH1 0x4 ADD PUSH2 0x1CBD SWAP3 SWAP2 SWAP1 PUSH2 0x446F JUMP JUMPDEST PUSH1 0x20 PUSH1 0x40 MLOAD DUP1 DUP4 SUB DUP2 DUP7 DUP1 EXTCODESIZE ISZERO DUP1 ISZERO PUSH2 0x1CD5 JUMPI PUSH1 0x0 DUP1 REVERT JUMPDEST POP GAS STATICCALL ISZERO DUP1 ISZERO PUSH2 0x1CE9 JUMPI RETURNDATASIZE PUSH1 0x0 DUP1 RETURNDATACOPY RETURNDATASIZE PUSH1 0x0 REVERT JUMPDEST POP POP POP POP PUSH1 0x40 MLOAD RETURNDATASIZE PUSH1 0x1F NOT PUSH1 0x1F DUP3 ADD AND DUP3 ADD DUP1 PUSH1 0x40 MSTORE POP DUP2 ADD SWAP1 PUSH2 0x1D0D SWAP2 SWAP1 PUSH2 0x4007 JUMP JUMPDEST PUSH2 0x1D4C JUMPI PUSH1 0x40 MLOAD PUSH32 0x8C379A000000000000000000000000000000000000000000000000000000000 DUP2 MSTORE PUSH1 0x4 ADD PUSH2 0x1D43 SWAP1 PUSH2 0x4770 JUMP JUMPDEST PUSH1 0x40 MLOAD DUP1 SWAP2 SUB SWAP1 REVERT JUMPDEST DUP7 PUSH1 0x0 DUP2 GT PUSH2 0x1D90 JUMPI PUSH1 0x40 MLOAD PUSH32 0x8C379A000000000000000000000000000000000000000000000000000000000 DUP2 MSTORE PUSH1 0x4 ADD PUSH2 0x1D87 SWAP1 PUSH2 0x4790 JUMP JUMPDEST PUSH1 0x40 MLOAD DUP1 SWAP2 SUB SWAP1 REVERT JUMPDEST PUSH1 0x40 MLOAD DUP1 PUSH1 0x80 ADD PUSH1 0x40 MSTORE DUP1 CALLER PUSH20 0xFFFFFFFFFFFFFFFFFFFFFFFFFFFFFFFFFFFFFFFF AND DUP2 MSTORE PUSH1 0x20 ADD PUSH1 0x0 PUSH20 0xFFFFFFFFFFFFFFFFFFFFFFFFFFFFFFFFFFFFFFFF AND DUP2 MSTORE PUSH1 0x20 ADD DUP12 PUSH20 0xFFFFFFFFFFFFFFFFFFFFFFFFFFFFFFFFFFFFFFFF AND DUP2 MSTORE PUSH1 0x20 ADD DUP10 DUP2 MSTORE POP PUSH1 0x0 DUP1 DUP14 PUSH20 0xFFFFFFFFFFFFFFFFFFFFFFFFFFFFFFFFFFFFFFFF AND PUSH20 0xFFFFFFFFFFFFFFFFFFFFFFFFFFFFFFFFFFFFFFFF AND DUP2 MSTORE PUSH1 0x20 ADD SWAP1 DUP2 MSTORE PUSH1 0x20 ADD PUSH1 0x0 KECCAK256 PUSH1 0x0 DUP12 DUP2 MSTORE PUSH1 0x20 ADD SWAP1 DUP2 MSTORE PUSH1 0x20 ADD PUSH1 0x0 KECCAK256 PUSH1 0x0 DUP3 ADD MLOAD DUP2 PUSH1 0x0 ADD PUSH1 0x0 PUSH2 0x100 EXP DUP2 SLOAD DUP2 PUSH20 0xFFFFFFFFFFFFFFFFFFFFFFFFFFFFFFFFFFFFFFFF MUL NOT AND SWAP1 DUP4 PUSH20 0xFFFFFFFFFFFFFFFFFFFFFFFFFFFFFFFFFFFFFFFF AND MUL OR SWAP1 SSTORE POP PUSH1 0x20 DUP3 ADD MLOAD DUP2 PUSH1 0x1 ADD PUSH1 0x0 PUSH2 0x100 EXP DUP2 SLOAD DUP2 PUSH20 0xFFFFFFFFFFFFFFFFFFFFFFFFFFFFFFFFFFFFFFFF MUL NOT AND SWAP1 DUP4 PUSH20 0xFFFFFFFFFFFFFFFFFFFFFFFFFFFFFFFFFFFFFFFF AND MUL OR SWAP1 SSTORE POP PUSH1 0x40 DUP3 ADD MLOAD DUP2 PUSH1 0x2 ADD PUSH1 0x0 PUSH2 0x100 EXP DUP2 SLOAD DUP2 PUSH20 0xFFFFFFFFFFFFFFFFFFFFFFFFFFFFFFFFFFFFFFFF MUL NOT AND SWAP1 DUP4 PUSH20 0xFFFFFFFFFFFFFFFFFFFFFFFFFFFFFFFFFFFFFFFF AND MUL OR SWAP1 SSTORE POP PUSH1 0x60 DUP3 ADD MLOAD DUP2 PUSH1 0x3 ADD SSTORE SWAP1 POP POP PUSH1 0x1 PUSH1 0x2 PUSH1 0x0 DUP14 PUSH20 0xFFFFFFFFFFFFFFFFFFFFFFFFFFFFFFFFFFFFFFFF AND PUSH20 0xFFFFFFFFFFFFFFFFFFFFFFFFFFFFFFFFFFFFFFFF AND DUP2 MSTORE PUSH1 0x20 ADD SWAP1 DUP2 MSTORE PUSH1 0x20 ADD PUSH1 0x0 KECCAK256 PUSH1 0x0 DUP12 DUP2 MSTORE PUSH1 0x20 ADD SWAP1 DUP2 MSTORE PUSH1 0x20 ADD PUSH1 0x0 KECCAK256 DUP2 SWAP1 SSTORE POP PUSH1 0x5 DUP1 SLOAD SWAP1 POP PUSH1 0x4 PUSH1 0x0 DUP14 PUSH20 0xFFFFFFFFFFFFFFFFFFFFFFFFFFFFFFFFFFFFFFFF AND PUSH20 0xFFFFFFFFFFFFFFFFFFFFFFFFFFFFFFFFFFFFFFFF AND DUP2 MSTORE PUSH1 0x20 ADD SWAP1 DUP2 MSTORE PUSH1 0x20 ADD PUSH1 0x0 KECCAK256 PUSH1 0x0 DUP12 DUP2 MSTORE PUSH1 0x20 ADD SWAP1 DUP2 MSTORE PUSH1 0x20 ADD PUSH1 0x0 KECCAK256 DUP2 SWAP1 SSTORE POP PUSH1 0x5 PUSH1 0x40 MLOAD DUP1 PUSH1 0x40 ADD PUSH1 0x40 MSTORE DUP1 DUP14 PUSH20 0xFFFFFFFFFFFFFFFFFFFFFFFFFFFFFFFFFFFFFFFF AND DUP2 MSTORE PUSH1 0x20 ADD DUP12 DUP2 MSTORE POP SWAP1 DUP1 PUSH1 0x1 DUP2 SLOAD ADD DUP1 DUP3 SSTORE DUP1 SWAP2 POP POP PUSH1 0x1 SWAP1 SUB SWAP1 PUSH1 0x0 MSTORE PUSH1 0x20 PUSH1 0x0 KECCAK256 SWAP1 PUSH1 0x2 MUL ADD PUSH1 0x0 SWAP1 SWAP2 SWAP1 SWAP2 SWAP1 SWAP2 POP PUSH1 0x0 DUP3 ADD MLOAD DUP2 PUSH1 0x0 ADD PUSH1 0x0 PUSH2 0x100 EXP DUP2 SLOAD DUP2 PUSH20 0xFFFFFFFFFFFFFFFFFFFFFFFFFFFFFFFFFFFFFFFF MUL NOT AND SWAP1 DUP4 PUSH20 0xFFFFFFFFFFFFFFFFFFFFFFFFFFFFFFFFFFFFFFFF AND MUL OR SWAP1 SSTORE POP PUSH1 0x20 DUP3 ADD MLOAD DUP2 PUSH1 0x1 ADD SSTORE POP POP DUP11 PUSH20 0xFFFFFFFFFFFFFFFFFFFFFFFFFFFFFFFFFFFFFFFF AND PUSH4 0x42842E0E CALLER ADDRESS DUP13 PUSH1 0x40 MLOAD DUP5 PUSH4 0xFFFFFFFF AND PUSH1 0xE0 SHL DUP2 MSTORE PUSH1 0x4 ADD PUSH2 0x20BB SWAP4 SWAP3 SWAP2 SWAP1 PUSH2 0x4568 JUMP JUMPDEST PUSH1 0x0 PUSH1 0x40 MLOAD DUP1 DUP4 SUB DUP2 PUSH1 0x0 DUP8 DUP1 EXTCODESIZE ISZERO DUP1 ISZERO PUSH2 0x20D5 JUMPI PUSH1 0x0 DUP1 REVERT JUMPDEST POP GAS CALL ISZERO DUP1 ISZERO PUSH2 0x20E9 JUMPI RETURNDATASIZE PUSH1 0x0 DUP1 RETURNDATACOPY RETURNDATASIZE PUSH1 0x0 REVERT JUMPDEST POP POP POP POP PUSH32 0x78EEAD3CD01ED921C7653D000A6B73AEA643A7B9C066FB7D93EB2EAE8ACC2D9 DUP12 CALLER DUP13 DUP13 DUP13 TIMESTAMP PUSH1 0x40 MLOAD PUSH2 0x2126 SWAP7 SWAP6 SWAP5 SWAP4 SWAP3 SWAP2 SWAP1 PUSH2 0x4498 JUMP JUMPDEST PUSH1 0x40 MLOAD DUP1 SWAP2 SUB SWAP1 LOG1 POP POP POP POP POP POP POP POP POP POP POP JUMP JUMPDEST PUSH2 0x2143 PUSH2 0x3BE5 JUMP JUMPDEST PUSH1 0x1 PUSH1 0x0 DUP5 PUSH20 0xFFFFFFFFFFFFFFFFFFFFFFFFFFFFFFFFFFFFFFFF AND PUSH20 0xFFFFFFFFFFFFFFFFFFFFFFFFFFFFFFFFFFFFFFFF AND DUP2 MSTORE PUSH1 0x20 ADD SWAP1 DUP2 MSTORE PUSH1 0x20 ADD PUSH1 0x0 KECCAK256 PUSH1 0x0 DUP4 DUP2 MSTORE PUSH1 0x20 ADD SWAP1 DUP2 MSTORE PUSH1 0x20 ADD PUSH1 0x0 KECCAK256 PUSH1 0x40 MLOAD DUP1 PUSH1 0xE0 ADD PUSH1 0x40 MSTORE SWAP1 DUP2 PUSH1 0x0 DUP3 ADD SLOAD DUP2 MSTORE PUSH1 0x20 ADD PUSH1 0x1 DUP3 ADD SLOAD DUP2 MSTORE PUSH1 0x20 ADD PUSH1 0x2 DUP3 ADD SLOAD DUP2 MSTORE PUSH1 0x20 ADD PUSH1 0x3 DUP3 ADD SLOAD DUP2 MSTORE PUSH1 0x20 ADD PUSH1 0x4 DUP3 ADD PUSH1 0x0 SWAP1 SLOAD SWAP1 PUSH2 0x100 EXP SWAP1 DIV PUSH20 0xFFFFFFFFFFFFFFFFFFFFFFFFFFFFFFFFFFFFFFFF AND PUSH20 0xFFFFFFFFFFFFFFFFFFFFFFFFFFFFFFFFFFFFFFFF AND PUSH20 0xFFFFFFFFFFFFFFFFFFFFFFFFFFFFFFFFFFFFFFFF AND DUP2 MSTORE PUSH1 0x20 ADD PUSH1 0x5 DUP3 ADD PUSH1 0x0 SWAP1 SLOAD SWAP1 PUSH2 0x100 EXP SWAP1 DIV PUSH20 0xFFFFFFFFFFFFFFFFFFFFFFFFFFFFFFFFFFFFFFFF AND PUSH20 0xFFFFFFFFFFFFFFFFFFFFFFFFFFFFFFFFFFFFFFFF AND PUSH20 0xFFFFFFFFFFFFFFFFFFFFFFFFFFFFFFFFFFFFFFFF AND DUP2 MSTORE PUSH1 0x20 ADD PUSH1 0x6 DUP3 ADD PUSH1 0x0 SWAP1 SLOAD SWAP1 PUSH2 0x100 EXP SWAP1 DIV PUSH20 0xFFFFFFFFFFFFFFFFFFFFFFFFFFFFFFFFFFFFFFFF AND PUSH20 0xFFFFFFFFFFFFFFFFFFFFFFFFFFFFFFFFFFFFFFFF AND PUSH20 0xFFFFFFFFFFFFFFFFFFFFFFFFFFFFFFFFFFFFFFFF AND DUP2 MSTORE POP POP SWAP1 POP SWAP3 SWAP2 POP POP JUMP JUMPDEST PUSH1 0x3 PUSH1 0x20 MSTORE DUP3 PUSH1 0x0 MSTORE PUSH1 0x40 PUSH1 0x0 KECCAK256 PUSH1 0x20 MSTORE DUP2 PUSH1 0x0 MSTORE PUSH1 0x40 PUSH1 0x0 KECCAK256 PUSH1 0x20 MSTORE DUP1 PUSH1 0x0 MSTORE PUSH1 0x40 PUSH1 0x0 KECCAK256 PUSH1 0x0 SWAP3 POP SWAP3 POP POP POP SLOAD DUP2 JUMP JUMPDEST DUP2 DUP2 PUSH1 0x2 DUP1 PUSH1 0x0 DUP5 PUSH20 0xFFFFFFFFFFFFFFFFFFFFFFFFFFFFFFFFFFFFFFFF AND PUSH20 0xFFFFFFFFFFFFFFFFFFFFFFFFFFFFFFFFFFFFFFFF AND DUP2 MSTORE PUSH1 0x20 ADD SWAP1 DUP2 MSTORE PUSH1 0x20 ADD PUSH1 0x0 KECCAK256 PUSH1 0x0 DUP4 DUP2 MSTORE PUSH1 0x20 ADD SWAP1 DUP2 MSTORE PUSH1 0x20 ADD PUSH1 0x0 KECCAK256 SLOAD EQ PUSH2 0x2396 JUMPI PUSH1 0x40 MLOAD PUSH32 0x8C379A000000000000000000000000000000000000000000000000000000000 DUP2 MSTORE PUSH1 0x4 ADD PUSH2 0x238D SWAP1 PUSH2 0x47F0 JUMP JUMPDEST PUSH1 0x40 MLOAD DUP1 SWAP2 SUB SWAP1 REVERT JUMPDEST DUP4 DUP4 PUSH1 0x1 PUSH1 0x0 DUP4 PUSH20 0xFFFFFFFFFFFFFFFFFFFFFFFFFFFFFFFFFFFFFFFF AND PUSH20 0xFFFFFFFFFFFFFFFFFFFFFFFFFFFFFFFFFFFFFFFF AND DUP2 MSTORE PUSH1 0x20 ADD SWAP1 DUP2 MSTORE PUSH1 0x20 ADD PUSH1 0x0 KECCAK256 PUSH1 0x0 DUP3 DUP2 MSTORE PUSH1 0x20 ADD SWAP1 DUP2 MSTORE PUSH1 0x20 ADD PUSH1 0x0 KECCAK256 PUSH1 0x5 ADD PUSH1 0x0 SWAP1 SLOAD SWAP1 PUSH2 0x100 EXP SWAP1 DIV PUSH20 0xFFFFFFFFFFFFFFFFFFFFFFFFFFFFFFFFFFFFFFFF AND PUSH20 0xFFFFFFFFFFFFFFFFFFFFFFFFFFFFFFFFFFFFFFFF AND CALLER PUSH20 0xFFFFFFFFFFFFFFFFFFFFFFFFFFFFFFFFFFFFFFFF AND EQ PUSH2 0x2479 JUMPI PUSH1 0x40 MLOAD PUSH32 0x8C379A000000000000000000000000000000000000000000000000000000000 DUP2 MSTORE PUSH1 0x4 ADD PUSH2 0x2470 SWAP1 PUSH2 0x47B0 JUMP JUMPDEST PUSH1 0x40 MLOAD DUP1 SWAP2 SUB SWAP1 REVERT JUMPDEST DUP6 DUP6 PUSH1 0x1 PUSH1 0x0 DUP4 PUSH20 0xFFFFFFFFFFFFFFFFFFFFFFFFFFFFFFFFFFFFFFFF AND PUSH20 0xFFFFFFFFFFFFFFFFFFFFFFFFFFFFFFFFFFFFFFFF AND DUP2 MSTORE PUSH1 0x20 ADD SWAP1 DUP2 MSTORE PUSH1 0x20 ADD PUSH1 0x0 KECCAK256 PUSH1 0x0 DUP3 DUP2 MSTORE PUSH1 0x20 ADD SWAP1 DUP2 MSTORE PUSH1 0x20 ADD PUSH1 0x0 KECCAK256 PUSH1 0x1 ADD SLOAD TIMESTAMP LT PUSH2 0x2510 JUMPI PUSH1 0x40 MLOAD PUSH32 0x8C379A000000000000000000000000000000000000000000000000000000000 DUP2 MSTORE PUSH1 0x4 ADD PUSH2 0x2507 SWAP1 PUSH2 0x4830 JUMP JUMPDEST PUSH1 0x40 MLOAD DUP1 SWAP2 SUB SWAP1 REVERT JUMPDEST DUP8 DUP8 PUSH1 0x1 PUSH1 0x0 DUP4 PUSH20 0xFFFFFFFFFFFFFFFFFFFFFFFFFFFFFFFFFFFFFFFF AND PUSH20 0xFFFFFFFFFFFFFFFFFFFFFFFFFFFFFFFFFFFFFFFF AND DUP2 MSTORE PUSH1 0x20 ADD SWAP1 DUP2 MSTORE PUSH1 0x20 ADD PUSH1 0x0 KECCAK256 PUSH1 0x0 DUP3 DUP2 MSTORE PUSH1 0x20 ADD SWAP1 DUP2 MSTORE PUSH1 0x20 ADD PUSH1 0x0 KECCAK256 PUSH1 0x4 ADD PUSH1 0x0 SWAP1 SLOAD SWAP1 PUSH2 0x100 EXP SWAP1 DIV PUSH20 0xFFFFFFFFFFFFFFFFFFFFFFFFFFFFFFFFFFFFFFFF AND PUSH20 0xFFFFFFFFFFFFFFFFFFFFFFFFFFFFFFFFFFFFFFFF AND PUSH1 0x0 PUSH20 0xFFFFFFFFFFFFFFFFFFFFFFFFFFFFFFFFFFFFFFFF AND EQ PUSH2 0x25F4 JUMPI PUSH1 0x40 MLOAD PUSH32 0x8C379A000000000000000000000000000000000000000000000000000000000 DUP2 MSTORE PUSH1 0x4 ADD PUSH2 0x25EB SWAP1 PUSH2 0x4870 JUMP JUMPDEST PUSH1 0x40 MLOAD DUP1 SWAP2 SUB SWAP1 REVERT JUMPDEST PUSH1 0x0 PUSH1 0x2 PUSH1 0x0 DUP13 PUSH20 0xFFFFFFFFFFFFFFFFFFFFFFFFFFFFFFFFFFFFFFFF AND PUSH20 0xFFFFFFFFFFFFFFFFFFFFFFFFFFFFFFFFFFFFFFFF AND DUP2 MSTORE PUSH1 0x20 ADD SWAP1 DUP2 MSTORE PUSH1 0x20 ADD PUSH1 0x0 KECCAK256 PUSH1 0x0 DUP12 DUP2 MSTORE PUSH1 0x20 ADD SWAP1 DUP2 MSTORE PUSH1 0x20 ADD PUSH1 0x0 KECCAK256 DUP2 SWAP1 SSTORE POP DUP10 PUSH20 0xFFFFFFFFFFFFFFFFFFFFFFFFFFFFFFFFFFFFFFFF AND PUSH4 0x42842E0E ADDRESS CALLER DUP13 PUSH1 0x40 MLOAD DUP5 PUSH4 0xFFFFFFFF AND PUSH1 0xE0 SHL DUP2 MSTORE PUSH1 0x4 ADD PUSH2 0x2687 SWAP4 SWAP3 SWAP2 SWAP1 PUSH2 0x4568 JUMP JUMPDEST PUSH1 0x0 PUSH1 0x40 MLOAD DUP1 DUP4 SUB DUP2 PUSH1 0x0 DUP8 DUP1 EXTCODESIZE ISZERO DUP1 ISZERO PUSH2 0x26A1 JUMPI PUSH1 0x0 DUP1 REVERT JUMPDEST POP GAS CALL ISZERO DUP1 ISZERO PUSH2 0x26B5 JUMPI RETURNDATASIZE PUSH1 0x0 DUP1 RETURNDATACOPY RETURNDATASIZE PUSH1 0x0 REVERT JUMPDEST POP POP POP POP PUSH32 0xB9D411977D4EE731F87BB8F16EB6F8C1FB579CFF684642052BF6084E6E33238D DUP11 DUP11 CALLER PUSH1 0x40 MLOAD PUSH2 0x26EC SWAP4 SWAP3 SWAP2 SWAP1 PUSH2 0x460D JUMP JUMPDEST PUSH1 0x40 MLOAD DUP1 SWAP2 SUB SWAP1 LOG1 POP POP POP POP POP POP POP POP POP POP JUMP JUMPDEST PUSH2 0x2708 PUSH2 0x3C64 JUMP JUMPDEST PUSH1 0x0 DUP1 DUP5 PUSH20 0xFFFFFFFFFFFFFFFFFFFFFFFFFFFFFFFFFFFFFFFF AND PUSH20 0xFFFFFFFFFFFFFFFFFFFFFFFFFFFFFFFFFFFFFFFF AND DUP2 MSTORE PUSH1 0x20 ADD SWAP1 DUP2 MSTORE PUSH1 0x20 ADD PUSH1 0x0 KECCAK256 PUSH1 0x0 DUP4 DUP2 MSTORE PUSH1 0x20 ADD SWAP1 DUP2 MSTORE PUSH1 0x20 ADD PUSH1 0x0 KECCAK256 PUSH1 0x40 MLOAD DUP1 PUSH1 0x80 ADD PUSH1 0x40 MSTORE SWAP1 DUP2 PUSH1 0x0 DUP3 ADD PUSH1 0x0 SWAP1 SLOAD SWAP1 PUSH2 0x100 EXP SWAP1 DIV PUSH20 0xFFFFFFFFFFFFFFFFFFFFFFFFFFFFFFFFFFFFFFFF AND PUSH20 0xFFFFFFFFFFFFFFFFFFFFFFFFFFFFFFFFFFFFFFFF AND PUSH20 0xFFFFFFFFFFFFFFFFFFFFFFFFFFFFFFFFFFFFFFFF AND DUP2 MSTORE PUSH1 0x20 ADD PUSH1 0x1 DUP3 ADD PUSH1 0x0 SWAP1 SLOAD SWAP1 PUSH2 0x100 EXP SWAP1 DIV PUSH20 0xFFFFFFFFFFFFFFFFFFFFFFFFFFFFFFFFFFFFFFFF AND PUSH20 0xFFFFFFFFFFFFFFFFFFFFFFFFFFFFFFFFFFFFFFFF AND PUSH20 0xFFFFFFFFFFFFFFFFFFFFFFFFFFFFFFFFFFFFFFFF AND DUP2 MSTORE PUSH1 0x20 ADD PUSH1 0x2 DUP3 ADD PUSH1 0x0 SWAP1 SLOAD SWAP1 PUSH2 0x100 EXP SWAP1 DIV PUSH20 0xFFFFFFFFFFFFFFFFFFFFFFFFFFFFFFFFFFFFFFFF AND PUSH20 0xFFFFFFFFFFFFFFFFFFFFFFFFFFFFFFFFFFFFFFFF AND PUSH20 0xFFFFFFFFFFFFFFFFFFFFFFFFFFFFFFFFFFFFFFFF AND DUP2 MSTORE PUSH1 0x20 ADD PUSH1 0x3 DUP3 ADD SLOAD DUP2 MSTORE POP POP SWAP1 POP SWAP3 SWAP2 POP POP JUMP JUMPDEST PUSH1 0x60 PUSH1 0x5 DUP1 SLOAD DUP1 PUSH1 0x20 MUL PUSH1 0x20 ADD PUSH1 0x40 MLOAD SWAP1 DUP2 ADD PUSH1 0x40 MSTORE DUP1 SWAP3 SWAP2 SWAP1 DUP2 DUP2 MSTORE PUSH1 0x20 ADD PUSH1 0x0 SWAP1 JUMPDEST DUP3 DUP3 LT ISZERO PUSH2 0x292C JUMPI DUP4 DUP3 SWAP1 PUSH1 0x0 MSTORE PUSH1 0x20 PUSH1 0x0 KECCAK256 SWAP1 PUSH1 0x2 MUL ADD PUSH1 0x40 MLOAD DUP1 PUSH1 0x40 ADD PUSH1 0x40 MSTORE SWAP1 DUP2 PUSH1 0x0 DUP3 ADD PUSH1 0x0 SWAP1 SLOAD SWAP1 PUSH2 0x100 EXP SWAP1 DIV PUSH20 0xFFFFFFFFFFFFFFFFFFFFFFFFFFFFFFFFFFFFFFFF AND PUSH20 0xFFFFFFFFFFFFFFFFFFFFFFFFFFFFFFFFFFFFFFFF AND PUSH20 0xFFFFFFFFFFFFFFFFFFFFFFFFFFFFFFFFFFFFFFFF AND DUP2 MSTORE PUSH1 0x20 ADD PUSH1 0x1 DUP3 ADD SLOAD DUP2 MSTORE POP POP DUP2 MSTORE PUSH1 0x20 ADD SWAP1 PUSH1 0x1 ADD SWAP1 PUSH2 0x289A JUMP JUMPDEST POP POP POP POP SWAP1 POP SWAP1 JUMP JUMPDEST DUP3 DUP3 PUSH1 0x1 PUSH1 0x2 PUSH1 0x0 DUP5 PUSH20 0xFFFFFFFFFFFFFFFFFFFFFFFFFFFFFFFFFFFFFFFF AND PUSH20 0xFFFFFFFFFFFFFFFFFFFFFFFFFFFFFFFFFFFFFFFF AND DUP2 MSTORE PUSH1 0x20 ADD SWAP1 DUP2 MSTORE PUSH1 0x20 ADD PUSH1 0x0 KECCAK256 PUSH1 0x0 DUP4 DUP2 MSTORE PUSH1 0x20 ADD SWAP1 DUP2 MSTORE PUSH1 0x20 ADD PUSH1 0x0 KECCAK256 SLOAD EQ PUSH2 0x29CA JUMPI PUSH1 0x40 MLOAD PUSH32 0x8C379A000000000000000000000000000000000000000000000000000000000 DUP2 MSTORE PUSH1 0x4 ADD PUSH2 0x29C1 SWAP1 PUSH2 0x47D0 JUMP JUMPDEST PUSH1 0x40 MLOAD DUP1 SWAP2 SUB SWAP1 REVERT JUMPDEST DUP3 PUSH1 0x0 DUP2 GT PUSH2 0x2A0E JUMPI PUSH1 0x40 MLOAD PUSH32 0x8C379A000000000000000000000000000000000000000000000000000000000 DUP2 MSTORE PUSH1 0x4 ADD PUSH2 0x2A05 SWAP1 PUSH2 0x4790 JUMP JUMPDEST PUSH1 0x40 MLOAD DUP1 SWAP2 SUB SWAP1 REVERT JUMPDEST DUP6 DUP6 DUP6 PUSH1 0x0 DUP1 DUP5 PUSH20 0xFFFFFFFFFFFFFFFFFFFFFFFFFFFFFFFFFFFFFFFF AND PUSH20 0xFFFFFFFFFFFFFFFFFFFFFFFFFFFFFFFFFFFFFFFF AND DUP2 MSTORE PUSH1 0x20 ADD SWAP1 DUP2 MSTORE PUSH1 0x20 ADD PUSH1 0x0 KECCAK256 PUSH1 0x0 DUP4 DUP2 MSTORE PUSH1 0x20 ADD SWAP1 DUP2 MSTORE PUSH1 0x20 ADD PUSH1 0x0 KECCAK256 PUSH1 0x3 ADD SLOAD DUP2 LT ISZERO PUSH2 0x2AA6 JUMPI PUSH1 0x40 MLOAD PUSH32 0x8C379A000000000000000000000000000000000000000000000000000000000 DUP2 MSTORE PUSH1 0x4 ADD PUSH2 0x2A9D SWAP1 PUSH2 0x4910 JUMP JUMPDEST PUSH1 0x40 MLOAD DUP1 SWAP2 SUB SWAP1 REVERT JUMPDEST DUP9 PUSH20 0xFFFFFFFFFFFFFFFFFFFFFFFFFFFFFFFFFFFFFFFF AND PUSH4 0x42842E0E ADDRESS CALLER DUP12 PUSH1 0x40 MLOAD DUP5 PUSH4 0xFFFFFFFF AND PUSH1 0xE0 SHL DUP2 MSTORE PUSH1 0x4 ADD PUSH2 0x2AE3 SWAP4 SWAP3 SWAP2 SWAP1 PUSH2 0x4568 JUMP JUMPDEST PUSH1 0x0 PUSH1 0x40 MLOAD DUP1 DUP4 SUB DUP2 PUSH1 0x0 DUP8 DUP1 EXTCODESIZE ISZERO DUP1 ISZERO PUSH2 0x2AFD JUMPI PUSH1 0x0 DUP1 REVERT JUMPDEST POP GAS CALL ISZERO DUP1 ISZERO PUSH2 0x2B11 JUMPI RETURNDATASIZE PUSH1 0x0 DUP1 RETURNDATACOPY RETURNDATASIZE PUSH1 0x0 REVERT JUMPDEST POP POP POP POP PUSH1 0x0 PUSH1 0x2 PUSH1 0x0 DUP12 PUSH20 0xFFFFFFFFFFFFFFFFFFFFFFFFFFFFFFFFFFFFFFFF AND PUSH20 0xFFFFFFFFFFFFFFFFFFFFFFFFFFFFFFFFFFFFFFFF AND DUP2 MSTORE PUSH1 0x20 ADD SWAP1 DUP2 MSTORE PUSH1 0x20 ADD PUSH1 0x0 KECCAK256 PUSH1 0x0 DUP11 DUP2 MSTORE PUSH1 0x20 ADD SWAP1 DUP2 MSTORE PUSH1 0x20 ADD PUSH1 0x0 KECCAK256 DUP2 SWAP1 SSTORE POP PUSH1 0x5 PUSH1 0x4 PUSH1 0x0 DUP12 PUSH20 0xFFFFFFFFFFFFFFFFFFFFFFFFFFFFFFFFFFFFFFFF AND PUSH20 0xFFFFFFFFFFFFFFFFFFFFFFFFFFFFFFFFFFFFFFFF AND DUP2 MSTORE PUSH1 0x20 ADD SWAP1 DUP2 MSTORE PUSH1 0x20 ADD PUSH1 0x0 KECCAK256 PUSH1 0x0 DUP11 DUP2 MSTORE PUSH1 0x20 ADD SWAP1 DUP2 MSTORE PUSH1 0x20 ADD PUSH1 0x0 KECCAK256 SLOAD DUP2 SLOAD DUP2 LT PUSH2 0x2BCF JUMPI PUSH2 0x2BCE PUSH2 0x4AEF JUMP JUMPDEST JUMPDEST SWAP1 PUSH1 0x0 MSTORE PUSH1 0x20 PUSH1 0x0 KECCAK256 SWAP1 PUSH1 0x2 MUL ADD PUSH1 0x0 DUP1 DUP3 ADD PUSH1 0x0 PUSH2 0x100 EXP DUP2 SLOAD SWAP1 PUSH20 0xFFFFFFFFFFFFFFFFFFFFFFFFFFFFFFFFFFFFFFFF MUL NOT AND SWAP1 SSTORE PUSH1 0x1 DUP3 ADD PUSH1 0x0 SWAP1 SSTORE POP POP CALLER PUSH1 0x0 DUP1 DUP12 PUSH20 0xFFFFFFFFFFFFFFFFFFFFFFFFFFFFFFFFFFFFFFFF AND PUSH20 0xFFFFFFFFFFFFFFFFFFFFFFFFFFFFFFFFFFFFFFFF AND DUP2 MSTORE PUSH1 0x20 ADD SWAP1 DUP2 MSTORE PUSH1 0x20 ADD PUSH1 0x0 KECCAK256 PUSH1 0x0 DUP11 DUP2 MSTORE PUSH1 0x20 ADD SWAP1 DUP2 MSTORE PUSH1 0x20 ADD PUSH1 0x0 KECCAK256 PUSH1 0x1 ADD PUSH1 0x0 PUSH2 0x100 EXP DUP2 SLOAD DUP2 PUSH20 0xFFFFFFFFFFFFFFFFFFFFFFFFFFFFFFFFFFFFFFFF MUL NOT AND SWAP1 DUP4 PUSH20 0xFFFFFFFFFFFFFFFFFFFFFFFFFFFFFFFFFFFFFFFF AND MUL OR SWAP1 SSTORE POP PUSH2 0x2DE1 PUSH1 0x0 DUP1 DUP12 PUSH20 0xFFFFFFFFFFFFFFFFFFFFFFFFFFFFFFFFFFFFFFFF AND PUSH20 0xFFFFFFFFFFFFFFFFFFFFFFFFFFFFFFFFFFFFFFFF AND DUP2 MSTORE PUSH1 0x20 ADD SWAP1 DUP2 MSTORE PUSH1 0x20 ADD PUSH1 0x0 KECCAK256 PUSH1 0x0 DUP11 DUP2 MSTORE PUSH1 0x20 ADD SWAP1 DUP2 MSTORE PUSH1 0x20 ADD PUSH1 0x0 KECCAK256 PUSH1 0x0 ADD PUSH1 0x0 SWAP1 SLOAD SWAP1 PUSH2 0x100 EXP SWAP1 DIV PUSH20 0xFFFFFFFFFFFFFFFFFFFFFFFFFFFFFFFFFFFFFFFF AND PUSH1 0x0 DUP1 DUP13 PUSH20 0xFFFFFFFFFFFFFFFFFFFFFFFFFFFFFFFFFFFFFFFF AND PUSH20 0xFFFFFFFFFFFFFFFFFFFFFFFFFFFFFFFFFFFFFFFF AND DUP2 MSTORE PUSH1 0x20 ADD SWAP1 DUP2 MSTORE PUSH1 0x20 ADD PUSH1 0x0 KECCAK256 PUSH1 0x0 DUP12 DUP2 MSTORE PUSH1 0x20 ADD SWAP1 DUP2 MSTORE PUSH1 0x20 ADD PUSH1 0x0 KECCAK256 PUSH1 0x2 ADD PUSH1 0x0 SWAP1 SLOAD SWAP1 PUSH2 0x100 EXP SWAP1 DIV PUSH20 0xFFFFFFFFFFFFFFFFFFFFFFFFFFFFFFFFFFFFFFFF AND PUSH1 0x0 DUP1 DUP14 PUSH20 0xFFFFFFFFFFFFFFFFFFFFFFFFFFFFFFFFFFFFFFFF AND PUSH20 0xFFFFFFFFFFFFFFFFFFFFFFFFFFFFFFFFFFFFFFFF AND DUP2 MSTORE PUSH1 0x20 ADD SWAP1 DUP2 MSTORE PUSH1 0x20 ADD PUSH1 0x0 KECCAK256 PUSH1 0x0 DUP13 DUP2 MSTORE PUSH1 0x20 ADD SWAP1 DUP2 MSTORE PUSH1 0x20 ADD PUSH1 0x0 KECCAK256 PUSH1 0x3 ADD SLOAD PUSH2 0x36ED JUMP JUMPDEST PUSH32 0x9FA3B1BB9266E05722B54A7A564D02A274BC80D39F4AF21E6BE405480996CEBA DUP10 CALLER DUP11 DUP11 PUSH1 0x40 MLOAD PUSH2 0x2E16 SWAP5 SWAP4 SWAP3 SWAP2 SWAP1 PUSH2 0x459F JUMP JUMPDEST PUSH1 0x40 MLOAD DUP1 SWAP2 SUB SWAP1 LOG1 POP POP POP POP POP POP POP POP POP JUMP JUMPDEST DUP6 DUP5 DUP2 PUSH20 0xFFFFFFFFFFFFFFFFFFFFFFFFFFFFFFFFFFFFFFFF AND PUSH4 0x6352211E DUP3 PUSH1 0x40 MLOAD DUP3 PUSH4 0xFFFFFFFF AND PUSH1 0xE0 SHL DUP2 MSTORE PUSH1 0x4 ADD PUSH2 0x2E64 SWAP2 SWAP1 PUSH2 0x4986 JUMP JUMPDEST PUSH1 0x20 PUSH1 0x40 MLOAD DUP1 DUP4 SUB DUP2 DUP7 DUP1 EXTCODESIZE ISZERO DUP1 ISZERO PUSH2 0x2E7C JUMPI PUSH1 0x0 DUP1 REVERT JUMPDEST POP GAS STATICCALL ISZERO DUP1 ISZERO PUSH2 0x2E90 JUMPI RETURNDATASIZE PUSH1 0x0 DUP1 RETURNDATACOPY RETURNDATASIZE PUSH1 0x0 REVERT JUMPDEST POP POP POP POP PUSH1 0x40 MLOAD RETURNDATASIZE PUSH1 0x1F NOT PUSH1 0x1F DUP3 ADD AND DUP3 ADD DUP1 PUSH1 0x40 MSTORE POP DUP2 ADD SWAP1 PUSH2 0x2EB4 SWAP2 SWAP1 PUSH2 0x3D78 JUMP JUMPDEST PUSH20 0xFFFFFFFFFFFFFFFFFFFFFFFFFFFFFFFFFFFFFFFF AND CALLER PUSH20 0xFFFFFFFFFFFFFFFFFFFFFFFFFFFFFFFFFFFFFFFF AND EQ PUSH2 0x2F21 JUMPI PUSH1 0x40 MLOAD PUSH32 0x8C379A000000000000000000000000000000000000000000000000000000000 DUP2 MSTORE PUSH1 0x4 ADD PUSH2 0x2F18 SWAP1 PUSH2 0x48D0 JUMP JUMPDEST PUSH1 0x40 MLOAD DUP1 SWAP2 SUB SWAP1 REVERT JUMPDEST DUP8 DUP7 PUSH1 0x0 PUSH1 0x2 PUSH1 0x0 DUP5 PUSH20 0xFFFFFFFFFFFFFFFFFFFFFFFFFFFFFFFFFFFFFFFF AND PUSH20 0xFFFFFFFFFFFFFFFFFFFFFFFFFFFFFFFFFFFFFFFF AND DUP2 MSTORE PUSH1 0x20 ADD SWAP1 DUP2 MSTORE PUSH1 0x20 ADD PUSH1 0x0 KECCAK256 PUSH1 0x0 DUP4 DUP2 MSTORE PUSH1 0x20 ADD SWAP1 DUP2 MSTORE PUSH1 0x20 ADD PUSH1 0x0 KECCAK256 SLOAD EQ PUSH2 0x2FB6 JUMPI PUSH1 0x40 MLOAD PUSH32 0x8C379A000000000000000000000000000000000000000000000000000000000 DUP2 MSTORE PUSH1 0x4 ADD PUSH2 0x2FAD SWAP1 PUSH2 0x4850 JUMP JUMPDEST PUSH1 0x40 MLOAD DUP1 SWAP2 SUB SWAP1 REVERT JUMPDEST DUP10 DUP9 DUP2 PUSH20 0xFFFFFFFFFFFFFFFFFFFFFFFFFFFFFFFFFFFFFFFF AND PUSH4 0xE985E9C5 CALLER ADDRESS PUSH1 0x40 MLOAD DUP4 PUSH4 0xFFFFFFFF AND PUSH1 0xE0 SHL DUP2 MSTORE PUSH1 0x4 ADD PUSH2 0x2FF3 SWAP3 SWAP2 SWAP1 PUSH2 0x446F JUMP JUMPDEST PUSH1 0x20 PUSH1 0x40 MLOAD DUP1 DUP4 SUB DUP2 DUP7 DUP1 EXTCODESIZE ISZERO DUP1 ISZERO PUSH2 0x300B JUMPI PUSH1 0x0 DUP1 REVERT JUMPDEST POP GAS STATICCALL ISZERO DUP1 ISZERO PUSH2 0x301F JUMPI RETURNDATASIZE PUSH1 0x0 DUP1 RETURNDATACOPY RETURNDATASIZE PUSH1 0x0 REVERT JUMPDEST POP POP POP POP PUSH1 0x40 MLOAD RETURNDATASIZE PUSH1 0x1F NOT PUSH1 0x1F DUP3 ADD AND DUP3 ADD DUP1 PUSH1 0x40 MSTORE POP DUP2 ADD SWAP1 PUSH2 0x3043 SWAP2 SWAP1 PUSH2 0x4007 JUMP JUMPDEST PUSH2 0x3082 JUMPI PUSH1 0x40 MLOAD PUSH32 0x8C379A000000000000000000000000000000000000000000000000000000000 DUP2 MSTORE PUSH1 0x4 ADD PUSH2 0x3079 SWAP1 PUSH2 0x4770 JUMP JUMPDEST PUSH1 0x40 MLOAD DUP1 SWAP2 SUB SWAP1 REVERT JUMPDEST DUP7 PUSH1 0x0 DUP2 GT PUSH2 0x30C6 JUMPI PUSH1 0x40 MLOAD PUSH32 0x8C379A000000000000000000000000000000000000000000000000000000000 DUP2 MSTORE PUSH1 0x4 ADD PUSH2 0x30BD SWAP1 PUSH2 0x4790 JUMP JUMPDEST PUSH1 0x40 MLOAD DUP1 SWAP2 SUB SWAP1 REVERT JUMPDEST PUSH2 0x30D4 DUP14 DUP14 DUP14 DUP14 DUP14 DUP14 PUSH2 0x3741 JUMP JUMPDEST PUSH32 0xECBC6A097DA08DBF6F781CE204AAD454CE3DC8F112C51C7A56F1671DE89CEE8C DUP14 CALLER DUP15 DUP15 DUP15 DUP15 DUP15 PUSH1 0x40 MLOAD PUSH2 0x310F SWAP8 SWAP7 SWAP6 SWAP5 SWAP4 SWAP3 SWAP2 SWAP1 PUSH2 0x44F9 JUMP JUMPDEST PUSH1 0x40 MLOAD DUP1 SWAP2 SUB SWAP1 LOG1 POP POP POP POP POP POP POP POP POP POP POP POP POP JUMP JUMPDEST DUP2 DUP2 PUSH1 0x1 PUSH1 0x2 PUSH1 0x0 DUP5 PUSH20 0xFFFFFFFFFFFFFFFFFFFFFFFFFFFFFFFFFFFFFFFF AND PUSH20 0xFFFFFFFFFFFFFFFFFFFFFFFFFFFFFFFFFFFFFFFF AND DUP2 MSTORE PUSH1 0x20 ADD SWAP1 DUP2 MSTORE PUSH1 0x20 ADD PUSH1 0x0 KECCAK256 PUSH1 0x0 DUP4 DUP2 MSTORE PUSH1 0x20 ADD SWAP1 DUP2 MSTORE PUSH1 0x20 ADD PUSH1 0x0 KECCAK256 SLOAD EQ PUSH2 0x31BB JUMPI PUSH1 0x40 MLOAD PUSH32 0x8C379A000000000000000000000000000000000000000000000000000000000 DUP2 MSTORE PUSH1 0x4 ADD PUSH2 0x31B2 SWAP1 PUSH2 0x47D0 JUMP JUMPDEST PUSH1 0x40 MLOAD DUP1 SWAP2 SUB SWAP1 REVERT JUMPDEST DUP4 DUP4 PUSH1 0x0 DUP1 DUP4 PUSH20 0xFFFFFFFFFFFFFFFFFFFFFFFFFFFFFFFFFFFFFFFF AND PUSH20 0xFFFFFFFFFFFFFFFFFFFFFFFFFFFFFFFFFFFFFFFF AND DUP2 MSTORE PUSH1 0x20 ADD SWAP1 DUP2 MSTORE PUSH1 0x20 ADD PUSH1 0x0 KECCAK256 PUSH1 0x0 DUP3 DUP2 MSTORE PUSH1 0x20 ADD SWAP1 DUP2 MSTORE PUSH1 0x20 ADD PUSH1 0x0 KECCAK256 PUSH1 0x0 ADD PUSH1 0x0 SWAP1 SLOAD SWAP1 PUSH2 0x100 EXP SWAP1 DIV PUSH20 0xFFFFFFFFFFFFFFFFFFFFFFFFFFFFFFFFFFFFFFFF AND PUSH20 0xFFFFFFFFFFFFFFFFFFFFFFFFFFFFFFFFFFFFFFFF AND CALLER PUSH20 0xFFFFFFFFFFFFFFFFFFFFFFFFFFFFFFFFFFFFFFFF AND EQ PUSH2 0x329D JUMPI PUSH1 0x40 MLOAD PUSH32 0x8C379A000000000000000000000000000000000000000000000000000000000 DUP2 MSTORE PUSH1 0x4 ADD PUSH2 0x3294 SWAP1 PUSH2 0x48D0 JUMP JUMPDEST PUSH1 0x40 MLOAD DUP1 SWAP2 SUB SWAP1 REVERT JUMPDEST DUP6 PUSH20 0xFFFFFFFFFFFFFFFFFFFFFFFFFFFFFFFFFFFFFFFF AND PUSH4 0x42842E0E ADDRESS CALLER DUP9 PUSH1 0x40 MLOAD DUP5 PUSH4 0xFFFFFFFF AND PUSH1 0xE0 SHL DUP2 MSTORE PUSH1 0x4 ADD PUSH2 0x32DA SWAP4 SWAP3 SWAP2 SWAP1 PUSH2 0x4568 JUMP JUMPDEST PUSH1 0x0 PUSH1 0x40 MLOAD DUP1 DUP4 SUB DUP2 PUSH1 0x0 DUP8 DUP1 EXTCODESIZE ISZERO DUP1 ISZERO PUSH2 0x32F4 JUMPI PUSH1 0x0 DUP1 REVERT JUMPDEST POP GAS CALL ISZERO DUP1 ISZERO PUSH2 0x3308 JUMPI RETURNDATASIZE PUSH1 0x0 DUP1 RETURNDATACOPY RETURNDATASIZE PUSH1 0x0 REVERT JUMPDEST POP POP POP POP PUSH1 0x0 PUSH1 0x2 PUSH1 0x0 DUP9 PUSH20 0xFFFFFFFFFFFFFFFFFFFFFFFFFFFFFFFFFFFFFFFF AND PUSH20 0xFFFFFFFFFFFFFFFFFFFFFFFFFFFFFFFFFFFFFFFF AND DUP2 MSTORE PUSH1 0x20 ADD SWAP1 DUP2 MSTORE PUSH1 0x20 ADD PUSH1 0x0 KECCAK256 PUSH1 0x0 DUP8 DUP2 MSTORE PUSH1 0x20 ADD SWAP1 DUP2 MSTORE PUSH1 0x20 ADD PUSH1 0x0 KECCAK256 DUP2 SWAP1 SSTORE POP PUSH1 0x5 PUSH1 0x4 PUSH1 0x0 DUP9 PUSH20 0xFFFFFFFFFFFFFFFFFFFFFFFFFFFFFFFFFFFFFFFF AND PUSH20 0xFFFFFFFFFFFFFFFFFFFFFFFFFFFFFFFFFFFFFFFF AND DUP2 MSTORE PUSH1 0x20 ADD SWAP1 DUP2 MSTORE PUSH1 0x20 ADD PUSH1 0x0 KECCAK256 PUSH1 0x0 DUP8 DUP2 MSTORE PUSH1 0x20 ADD SWAP1 DUP2 MSTORE PUSH1 0x20 ADD PUSH1 0x0 KECCAK256 SLOAD DUP2 SLOAD DUP2 LT PUSH2 0x33C6 JUMPI PUSH2 0x33C5 PUSH2 0x4AEF JUMP JUMPDEST JUMPDEST SWAP1 PUSH1 0x0 MSTORE PUSH1 0x20 PUSH1 0x0 KECCAK256 SWAP1 PUSH1 0x2 MUL ADD PUSH1 0x0 DUP1 DUP3 ADD PUSH1 0x0 PUSH2 0x100 EXP DUP2 SLOAD SWAP1 PUSH20 0xFFFFFFFFFFFFFFFFFFFFFFFFFFFFFFFFFFFFFFFF MUL NOT AND SWAP1 SSTORE PUSH1 0x1 DUP3 ADD PUSH1 0x0 SWAP1 SSTORE POP POP PUSH32 0xD7348FF00CF381A884144B50B3441398A48A7974EC349287DF80E18CEC9F5A31 DUP7 CALLER DUP8 PUSH1 0x40 MLOAD PUSH2 0x3439 SWAP4 SWAP3 SWAP2 SWAP1 PUSH2 0x4568 JUMP JUMPDEST PUSH1 0x40 MLOAD DUP1 SWAP2 SUB SWAP1 LOG1 POP POP POP POP POP POP JUMP JUMPDEST DUP1 PUSH20 0xFFFFFFFFFFFFFFFFFFFFFFFFFFFFFFFFFFFFFFFF AND PUSH4 0x23B872DD CALLER ADDRESS DUP6 PUSH1 0x40 MLOAD DUP5 PUSH4 0xFFFFFFFF AND PUSH1 0xE0 SHL DUP2 MSTORE PUSH1 0x4 ADD PUSH2 0x3486 SWAP4 SWAP3 SWAP2 SWAP1 PUSH2 0x4568 JUMP JUMPDEST PUSH1 0x20 PUSH1 0x40 MLOAD DUP1 DUP4 SUB DUP2 PUSH1 0x0 DUP8 DUP1 EXTCODESIZE ISZERO DUP1 ISZERO PUSH2 0x34A0 JUMPI PUSH1 0x0 DUP1 REVERT JUMPDEST POP GAS CALL ISZERO DUP1 ISZERO PUSH2 0x34B4 JUMPI RETURNDATASIZE PUSH1 0x0 DUP1 RETURNDATACOPY RETURNDATASIZE PUSH1 0x0 REVERT JUMPDEST POP POP POP POP PUSH1 0x40 MLOAD RETURNDATASIZE PUSH1 0x1F NOT PUSH1 0x1F DUP3 ADD AND DUP3 ADD DUP1 PUSH1 0x40 MSTORE POP DUP2 ADD SWAP1 PUSH2 0x34D8 SWAP2 SWAP1 PUSH2 0x4007 JUMP JUMPDEST PUSH2 0x3517 JUMPI PUSH1 0x40 MLOAD PUSH32 0x8C379A000000000000000000000000000000000000000000000000000000000 DUP2 MSTORE PUSH1 0x4 ADD PUSH2 0x350E SWAP1 PUSH2 0x4890 JUMP JUMPDEST PUSH1 0x40 MLOAD DUP1 SWAP2 SUB SWAP1 REVERT JUMPDEST POP POP JUMP JUMPDEST PUSH1 0x0 DUP2 DUP4 PUSH2 0x3529 SWAP2 SWAP1 PUSH2 0x49F6 JUMP JUMPDEST SWAP1 POP SWAP3 SWAP2 POP POP JUMP JUMPDEST DUP4 PUSH20 0xFFFFFFFFFFFFFFFFFFFFFFFFFFFFFFFFFFFFFFFF AND PUSH4 0x42842E0E ADDRESS DUP4 DUP7 PUSH1 0x40 MLOAD DUP5 PUSH4 0xFFFFFFFF AND PUSH1 0xE0 SHL DUP2 MSTORE PUSH1 0x4 ADD PUSH2 0x356E SWAP4 SWAP3 SWAP2 SWAP1 PUSH2 0x4568 JUMP JUMPDEST PUSH1 0x0 PUSH1 0x40 MLOAD DUP1 DUP4 SUB DUP2 PUSH1 0x0 DUP8 DUP1 EXTCODESIZE ISZERO DUP1 ISZERO PUSH2 0x3588 JUMPI PUSH1 0x0 DUP1 REVERT JUMPDEST POP GAS CALL ISZERO DUP1 ISZERO PUSH2 0x359C JUMPI RETURNDATASIZE PUSH1 0x0 DUP1 RETURNDATACOPY RETURNDATASIZE PUSH1 0x0 REVERT JUMPDEST POP POP POP POP PUSH1 0x0 PUSH1 0x2 PUSH1 0x0 DUP7 PUSH20 0xFFFFFFFFFFFFFFFFFFFFFFFFFFFFFFFFFFFFFFFF AND PUSH20 0xFFFFFFFFFFFFFFFFFFFFFFFFFFFFFFFFFFFFFFFF AND DUP2 MSTORE PUSH1 0x20 ADD SWAP1 DUP2 MSTORE PUSH1 0x20 ADD PUSH1 0x0 KECCAK256 PUSH1 0x0 DUP6 DUP2 MSTORE PUSH1 0x20 ADD SWAP1 DUP2 MSTORE PUSH1 0x20 ADD PUSH1 0x0 KECCAK256 DUP2 SWAP1 SSTORE POP PUSH2 0x36E7 PUSH1 0x1 PUSH1 0x0 DUP7 PUSH20 0xFFFFFFFFFFFFFFFFFFFFFFFFFFFFFFFFFFFFFFFF AND PUSH20 0xFFFFFFFFFFFFFFFFFFFFFFFFFFFFFFFFFFFFFFFF AND DUP2 MSTORE PUSH1 0x20 ADD SWAP1 DUP2 MSTORE PUSH1 0x20 ADD PUSH1 0x0 KECCAK256 PUSH1 0x0 DUP6 DUP2 MSTORE PUSH1 0x20 ADD SWAP1 DUP2 MSTORE PUSH1 0x20 ADD PUSH1 0x0 KECCAK256 PUSH1 0x5 ADD PUSH1 0x0 SWAP1 SLOAD SWAP1 PUSH2 0x100 EXP SWAP1 DIV PUSH20 0xFFFFFFFFFFFFFFFFFFFFFFFFFFFFFFFFFFFFFFFF AND PUSH1 0x1 PUSH1 0x0 DUP8 PUSH20 0xFFFFFFFFFFFFFFFFFFFFFFFFFFFFFFFFFFFFFFFF AND PUSH20 0xFFFFFFFFFFFFFFFFFFFFFFFFFFFFFFFFFFFFFFFF AND DUP2 MSTORE PUSH1 0x20 ADD SWAP1 DUP2 MSTORE PUSH1 0x20 ADD PUSH1 0x0 KECCAK256 PUSH1 0x0 DUP7 DUP2 MSTORE PUSH1 0x20 ADD SWAP1 DUP2 MSTORE PUSH1 0x20 ADD PUSH1 0x0 KECCAK256 PUSH1 0x6 ADD PUSH1 0x0 SWAP1 SLOAD SWAP1 PUSH2 0x100 EXP SWAP1 DIV PUSH20 0xFFFFFFFFFFFFFFFFFFFFFFFFFFFFFFFFFFFFFFFF AND DUP5 PUSH2 0x36ED JUMP JUMPDEST POP POP POP POP JUMP JUMPDEST PUSH1 0x0 PUSH20 0xFFFFFFFFFFFFFFFFFFFFFFFFFFFFFFFFFFFFFFFF AND DUP3 PUSH20 0xFFFFFFFFFFFFFFFFFFFFFFFFFFFFFFFFFFFFFFFF AND EQ PUSH2 0x3731 JUMPI PUSH2 0x372C DUP4 DUP4 DUP4 PUSH2 0x39D3 JUMP JUMPDEST PUSH2 0x373C JUMP JUMPDEST PUSH2 0x373B DUP4 DUP3 PUSH2 0x3B34 JUMP JUMPDEST JUMPDEST POP POP POP JUMP JUMPDEST PUSH1 0x40 MLOAD DUP1 PUSH1 0xE0 ADD PUSH1 0x40 MSTORE DUP1 DUP5 DUP2 MSTORE PUSH1 0x20 ADD DUP4 DUP2 MSTORE PUSH1 0x20 ADD DUP3 DUP2 MSTORE PUSH1 0x20 ADD DUP3 DUP2 MSTORE PUSH1 0x20 ADD PUSH1 0x0 PUSH20 0xFFFFFFFFFFFFFFFFFFFFFFFFFFFFFFFFFFFFFFFF AND DUP2 MSTORE PUSH1 0x20 ADD CALLER PUSH20 0xFFFFFFFFFFFFFFFFFFFFFFFFFFFFFFFFFFFFFFFF AND DUP2 MSTORE PUSH1 0x20 ADD DUP7 PUSH20 0xFFFFFFFFFFFFFFFFFFFFFFFFFFFFFFFFFFFFFFFF AND DUP2 MSTORE POP PUSH1 0x1 PUSH1 0x0 DUP9 PUSH20 0xFFFFFFFFFFFFFFFFFFFFFFFFFFFFFFFFFFFFFFFF AND PUSH20 0xFFFFFFFFFFFFFFFFFFFFFFFFFFFFFFFFFFFFFFFF AND DUP2 MSTORE PUSH1 0x20 ADD SWAP1 DUP2 MSTORE PUSH1 0x20 ADD PUSH1 0x0 KECCAK256 PUSH1 0x0 DUP7 DUP2 MSTORE PUSH1 0x20 ADD SWAP1 DUP2 MSTORE PUSH1 0x20 ADD PUSH1 0x0 KECCAK256 PUSH1 0x0 DUP3 ADD MLOAD DUP2 PUSH1 0x0 ADD SSTORE PUSH1 0x20 DUP3 ADD MLOAD DUP2 PUSH1 0x1 ADD SSTORE PUSH1 0x40 DUP3 ADD MLOAD DUP2 PUSH1 0x2 ADD SSTORE PUSH1 0x60 DUP3 ADD MLOAD DUP2 PUSH1 0x3 ADD SSTORE PUSH1 0x80 DUP3 ADD MLOAD DUP2 PUSH1 0x4 ADD PUSH1 0x0 PUSH2 0x100 EXP DUP2 SLOAD DUP2 PUSH20 0xFFFFFFFFFFFFFFFFFFFFFFFFFFFFFFFFFFFFFFFF MUL NOT AND SWAP1 DUP4 PUSH20 0xFFFFFFFFFFFFFFFFFFFFFFFFFFFFFFFFFFFFFFFF AND MUL OR SWAP1 SSTORE POP PUSH1 0xA0 DUP3 ADD MLOAD DUP2 PUSH1 0x5 ADD PUSH1 0x0 PUSH2 0x100 EXP DUP2 SLOAD DUP2 PUSH20 0xFFFFFFFFFFFFFFFFFFFFFFFFFFFFFFFFFFFFFFFF MUL NOT AND SWAP1 DUP4 PUSH20 0xFFFFFFFFFFFFFFFFFFFFFFFFFFFFFFFFFFFFFFFF AND MUL OR SWAP1 SSTORE POP PUSH1 0xC0 DUP3 ADD MLOAD DUP2 PUSH1 0x6 ADD PUSH1 0x0 PUSH2 0x100 EXP DUP2 SLOAD DUP2 PUSH20 0xFFFFFFFFFFFFFFFFFFFFFFFFFFFFFFFFFFFFFFFF MUL NOT AND SWAP1 DUP4 PUSH20 0xFFFFFFFFFFFFFFFFFFFFFFFFFFFFFFFFFFFFFFFF AND MUL OR SWAP1 SSTORE POP SWAP1 POP POP PUSH1 0x2 DUP1 PUSH1 0x0 DUP9 PUSH20 0xFFFFFFFFFFFFFFFFFFFFFFFFFFFFFFFFFFFFFFFF AND PUSH20 0xFFFFFFFFFFFFFFFFFFFFFFFFFFFFFFFFFFFFFFFF AND DUP2 MSTORE PUSH1 0x20 ADD SWAP1 DUP2 MSTORE PUSH1 0x20 ADD PUSH1 0x0 KECCAK256 PUSH1 0x0 DUP7 DUP2 MSTORE PUSH1 0x20 ADD SWAP1 DUP2 MSTORE PUSH1 0x20 ADD PUSH1 0x0 KECCAK256 DUP2 SWAP1 SSTORE POP DUP6 PUSH20 0xFFFFFFFFFFFFFFFFFFFFFFFFFFFFFFFFFFFFFFFF AND PUSH4 0x42842E0E CALLER ADDRESS DUP8 PUSH1 0x40 MLOAD DUP5 PUSH4 0xFFFFFFFF AND PUSH1 0xE0 SHL DUP2 MSTORE PUSH1 0x4 ADD PUSH2 0x3999 SWAP4 SWAP3 SWAP2 SWAP1 PUSH2 0x4568 JUMP JUMPDEST PUSH1 0x0 PUSH1 0x40 MLOAD DUP1 DUP4 SUB DUP2 PUSH1 0x0 DUP8 DUP1 EXTCODESIZE ISZERO DUP1 ISZERO PUSH2 0x39B3 JUMPI PUSH1 0x0 DUP1 REVERT JUMPDEST POP GAS CALL ISZERO DUP1 ISZERO PUSH2 0x39C7 JUMPI RETURNDATASIZE PUSH1 0x0 DUP1 RETURNDATACOPY RETURNDATASIZE PUSH1 0x0 REVERT JUMPDEST POP POP POP POP POP POP POP POP POP POP JUMP JUMPDEST DUP2 PUSH20 0xFFFFFFFFFFFFFFFFFFFFFFFFFFFFFFFFFFFFFFFF AND PUSH4 0x23B872DD CALLER ADDRESS DUP5 PUSH1 0x40 MLOAD DUP5 PUSH4 0xFFFFFFFF AND PUSH1 0xE0 SHL DUP2 MSTORE PUSH1 0x4 ADD PUSH2 0x3A10 SWAP4 SWAP3 SWAP2 SWAP1 PUSH2 0x4568 JUMP JUMPDEST PUSH1 0x20 PUSH1 0x40 MLOAD DUP1 DUP4 SUB DUP2 PUSH1 0x0 DUP8 DUP1 EXTCODESIZE ISZERO DUP1 ISZERO PUSH2 0x3A2A JUMPI PUSH1 0x0 DUP1 REVERT JUMPDEST POP GAS CALL ISZERO DUP1 ISZERO PUSH2 0x3A3E JUMPI RETURNDATASIZE PUSH1 0x0 DUP1 RETURNDATACOPY RETURNDATASIZE PUSH1 0x0 REVERT JUMPDEST POP POP POP POP PUSH1 0x40 MLOAD RETURNDATASIZE PUSH1 0x1F NOT PUSH1 0x1F DUP3 ADD AND DUP3 ADD DUP1 PUSH1 0x40 MSTORE POP DUP2 ADD SWAP1 PUSH2 0x3A62 SWAP2 SWAP1 PUSH2 0x4007 JUMP JUMPDEST PUSH2 0x3AA1 JUMPI PUSH1 0x40 MLOAD PUSH32 0x8C379A000000000000000000000000000000000000000000000000000000000 DUP2 MSTORE PUSH1 0x4 ADD PUSH2 0x3A98 SWAP1 PUSH2 0x4890 JUMP JUMPDEST PUSH1 0x40 MLOAD DUP1 SWAP2 SUB SWAP1 REVERT JUMPDEST DUP2 PUSH20 0xFFFFFFFFFFFFFFFFFFFFFFFFFFFFFFFFFFFFFFFF AND PUSH4 0xA9059CBB DUP5 DUP4 PUSH1 0x40 MLOAD DUP4 PUSH4 0xFFFFFFFF AND PUSH1 0xE0 SHL DUP2 MSTORE PUSH1 0x4 ADD PUSH2 0x3ADC SWAP3 SWAP2 SWAP1 PUSH2 0x45E4 JUMP JUMPDEST PUSH1 0x20 PUSH1 0x40 MLOAD DUP1 DUP4 SUB DUP2 PUSH1 0x0 DUP8 DUP1 EXTCODESIZE ISZERO DUP1 ISZERO PUSH2 0x3AF6 JUMPI PUSH1 0x0 DUP1 REVERT JUMPDEST POP GAS CALL ISZERO DUP1 ISZERO PUSH2 0x3B0A JUMPI RETURNDATASIZE PUSH1 0x0 DUP1 RETURNDATACOPY RETURNDATASIZE PUSH1 0x0 REVERT JUMPDEST POP POP POP POP PUSH1 0x40 MLOAD RETURNDATASIZE PUSH1 0x1F NOT PUSH1 0x1F DUP3 ADD AND DUP3 ADD DUP1 PUSH1 0x40 MSTORE POP DUP2 ADD SWAP1 PUSH2 0x3B2E SWAP2 SWAP1 PUSH2 0x4007 JUMP JUMPDEST POP POP POP POP JUMP JUMPDEST PUSH1 0x0 DUP3 PUSH20 0xFFFFFFFFFFFFFFFFFFFFFFFFFFFFFFFFFFFFFFFF AND DUP3 PUSH1 0x40 MLOAD PUSH2 0x3B5A SWAP1 PUSH2 0x445A JUMP JUMPDEST PUSH1 0x0 PUSH1 0x40 MLOAD DUP1 DUP4 SUB DUP2 DUP6 DUP8 GAS CALL SWAP3 POP POP POP RETURNDATASIZE DUP1 PUSH1 0x0 DUP2 EQ PUSH2 0x3B97 JUMPI PUSH1 0x40 MLOAD SWAP2 POP PUSH1 0x1F NOT PUSH1 0x3F RETURNDATASIZE ADD AND DUP3 ADD PUSH1 0x40 MSTORE RETURNDATASIZE DUP3 MSTORE RETURNDATASIZE PUSH1 0x0 PUSH1 0x20 DUP5 ADD RETURNDATACOPY PUSH2 0x3B9C JUMP JUMPDEST PUSH1 0x60 SWAP2 POP JUMPDEST POP POP SWAP1 POP DUP1 PUSH2 0x3BE0 JUMPI PUSH1 0x40 MLOAD PUSH32 0x8C379A000000000000000000000000000000000000000000000000000000000 DUP2 MSTORE PUSH1 0x4 ADD PUSH2 0x3BD7 SWAP1 PUSH2 0x4930 JUMP JUMPDEST PUSH1 0x40 MLOAD DUP1 SWAP2 SUB SWAP1 REVERT JUMPDEST POP POP POP JUMP JUMPDEST PUSH1 0x40 MLOAD DUP1 PUSH1 0xE0 ADD PUSH1 0x40 MSTORE DUP1 PUSH1 0x0 DUP2 MSTORE PUSH1 0x20 ADD PUSH1 0x0 DUP2 MSTORE PUSH1 0x20 ADD PUSH1 0x0 DUP2 MSTORE PUSH1 0x20 ADD PUSH1 0x0 DUP2 MSTORE PUSH1 0x20 ADD PUSH1 0x0 PUSH20 0xFFFFFFFFFFFFFFFFFFFFFFFFFFFFFFFFFFFFFFFF AND DUP2 MSTORE PUSH1 0x20 ADD PUSH1 0x0 PUSH20 0xFFFFFFFFFFFFFFFFFFFFFFFFFFFFFFFFFFFFFFFF AND DUP2 MSTORE PUSH1 0x20 ADD PUSH1 0x0 PUSH20 0xFFFFFFFFFFFFFFFFFFFFFFFFFFFFFFFFFFFFFFFF AND DUP2 MSTORE POP SWAP1 JUMP JUMPDEST PUSH1 0x40 MLOAD DUP1 PUSH1 0x80 ADD PUSH1 0x40 MSTORE DUP1 PUSH1 0x0 PUSH20 0xFFFFFFFFFFFFFFFFFFFFFFFFFFFFFFFFFFFFFFFF AND DUP2 MSTORE PUSH1 0x20 ADD PUSH1 0x0 PUSH20 0xFFFFFFFFFFFFFFFFFFFFFFFFFFFFFFFFFFFFFFFF AND DUP2 MSTORE PUSH1 0x20 ADD PUSH1 0x0 PUSH20 0xFFFFFFFFFFFFFFFFFFFFFFFFFFFFFFFFFFFFFFFF AND DUP2 MSTORE PUSH1 0x20 ADD PUSH1 0x0 DUP2 MSTORE POP SWAP1 JUMP JUMPDEST PUSH1 0x0 DUP2 CALLDATALOAD SWAP1 POP PUSH2 0x3CDD DUP2 PUSH2 0x4DCA JUMP JUMPDEST SWAP3 SWAP2 POP POP JUMP JUMPDEST PUSH1 0x0 DUP2 MLOAD SWAP1 POP PUSH2 0x3CF2 DUP2 PUSH2 0x4DCA JUMP JUMPDEST SWAP3 SWAP2 POP POP JUMP JUMPDEST PUSH1 0x0 DUP2 MLOAD SWAP1 POP PUSH2 0x3D07 DUP2 PUSH2 0x4DE1 JUMP JUMPDEST SWAP3 SWAP2 POP POP JUMP JUMPDEST PUSH1 0x0 DUP1 DUP4 PUSH1 0x1F DUP5 ADD SLT PUSH2 0x3D23 JUMPI PUSH2 0x3D22 PUSH2 0x4B23 JUMP JUMPDEST JUMPDEST DUP3 CALLDATALOAD SWAP1 POP PUSH8 0xFFFFFFFFFFFFFFFF DUP2 GT ISZERO PUSH2 0x3D40 JUMPI PUSH2 0x3D3F PUSH2 0x4B1E JUMP JUMPDEST JUMPDEST PUSH1 0x20 DUP4 ADD SWAP2 POP DUP4 PUSH1 0x1 DUP3 MUL DUP4 ADD GT ISZERO PUSH2 0x3D5C JUMPI PUSH2 0x3D5B PUSH2 0x4B28 JUMP JUMPDEST JUMPDEST SWAP3 POP SWAP3 SWAP1 POP JUMP JUMPDEST PUSH1 0x0 DUP2 CALLDATALOAD SWAP1 POP PUSH2 0x3D72 DUP2 PUSH2 0x4DF8 JUMP JUMPDEST SWAP3 SWAP2 POP POP JUMP JUMPDEST PUSH1 0x0 PUSH1 0x20 DUP3 DUP5 SUB SLT ISZERO PUSH2 0x3D8E JUMPI PUSH2 0x3D8D PUSH2 0x4B32 JUMP JUMPDEST JUMPDEST PUSH1 0x0 PUSH2 0x3D9C DUP5 DUP3 DUP6 ADD PUSH2 0x3CE3 JUMP JUMPDEST SWAP2 POP POP SWAP3 SWAP2 POP POP JUMP JUMPDEST PUSH1 0x0 DUP1 PUSH1 0x0 DUP1 PUSH1 0x0 PUSH1 0x80 DUP7 DUP9 SUB SLT ISZERO PUSH2 0x3DC1 JUMPI PUSH2 0x3DC0 PUSH2 0x4B32 JUMP JUMPDEST JUMPDEST PUSH1 0x0 PUSH2 0x3DCF DUP9 DUP3 DUP10 ADD PUSH2 0x3CCE JUMP JUMPDEST SWAP6 POP POP PUSH1 0x20 PUSH2 0x3DE0 DUP9 DUP3 DUP10 ADD PUSH2 0x3CCE JUMP JUMPDEST SWAP5 POP POP PUSH1 0x40 PUSH2 0x3DF1 DUP9 DUP3 DUP10 ADD PUSH2 0x3D63 JUMP JUMPDEST SWAP4 POP POP PUSH1 0x60 DUP7 ADD CALLDATALOAD PUSH8 0xFFFFFFFFFFFFFFFF DUP2 GT ISZERO PUSH2 0x3E12 JUMPI PUSH2 0x3E11 PUSH2 0x4B2D JUMP JUMPDEST JUMPDEST PUSH2 0x3E1E DUP9 DUP3 DUP10 ADD PUSH2 0x3D0D JUMP JUMPDEST SWAP3 POP SWAP3 POP POP SWAP3 SWAP6 POP SWAP3 SWAP6 SWAP1 SWAP4 POP JUMP JUMPDEST PUSH1 0x0 DUP1 PUSH1 0x0 DUP1 PUSH1 0x80 DUP6 DUP8 SUB SLT ISZERO PUSH2 0x3E47 JUMPI PUSH2 0x3E46 PUSH2 0x4B32 JUMP JUMPDEST JUMPDEST PUSH1 0x0 PUSH2 0x3E55 DUP8 DUP3 DUP9 ADD PUSH2 0x3CCE JUMP JUMPDEST SWAP5 POP POP PUSH1 0x20 PUSH2 0x3E66 DUP8 DUP3 DUP9 ADD PUSH2 0x3CCE JUMP JUMPDEST SWAP4 POP POP PUSH1 0x40 PUSH2 0x3E77 DUP8 DUP3 DUP9 ADD PUSH2 0x3D63 JUMP JUMPDEST SWAP3 POP POP PUSH1 0x60 PUSH2 0x3E88 DUP8 DUP3 DUP9 ADD PUSH2 0x3D63 JUMP JUMPDEST SWAP2 POP POP SWAP3 SWAP6 SWAP2 SWAP5 POP SWAP3 POP JUMP JUMPDEST PUSH1 0x0 DUP1 PUSH1 0x0 DUP1 PUSH1 0x0 DUP1 PUSH1 0xC0 DUP8 DUP10 SUB SLT ISZERO PUSH2 0x3EB1 JUMPI PUSH2 0x3EB0 PUSH2 0x4B32 JUMP JUMPDEST JUMPDEST PUSH1 0x0 PUSH2 0x3EBF DUP10 DUP3 DUP11 ADD PUSH2 0x3CCE JUMP JUMPDEST SWAP7 POP POP PUSH1 0x20 PUSH2 0x3ED0 DUP10 DUP3 DUP11 ADD PUSH2 0x3CCE JUMP JUMPDEST SWAP6 POP POP PUSH1 0x40 PUSH2 0x3EE1 DUP10 DUP3 DUP11 ADD PUSH2 0x3D63 JUMP JUMPDEST SWAP5 POP POP PUSH1 0x60 PUSH2 0x3EF2 DUP10 DUP3 DUP11 ADD PUSH2 0x3D63 JUMP JUMPDEST SWAP4 POP POP PUSH1 0x80 PUSH2 0x3F03 DUP10 DUP3 DUP11 ADD PUSH2 0x3D63 JUMP JUMPDEST SWAP3 POP POP PUSH1 0xA0 PUSH2 0x3F14 DUP10 DUP3 DUP11 ADD PUSH2 0x3D63 JUMP JUMPDEST SWAP2 POP POP SWAP3 SWAP6 POP SWAP3 SWAP6 POP SWAP3 SWAP6 JUMP JUMPDEST PUSH1 0x0 DUP1 PUSH1 0x40 DUP4 DUP6 SUB SLT ISZERO PUSH2 0x3F38 JUMPI PUSH2 0x3F37 PUSH2 0x4B32 JUMP JUMPDEST JUMPDEST PUSH1 0x0 PUSH2 0x3F46 DUP6 DUP3 DUP7 ADD PUSH2 0x3CCE JUMP JUMPDEST SWAP3 POP POP PUSH1 0x20 PUSH2 0x3F57 DUP6 DUP3 DUP7 ADD PUSH2 0x3D63 JUMP JUMPDEST SWAP2 POP POP SWAP3 POP SWAP3 SWAP1 POP JUMP JUMPDEST PUSH1 0x0 DUP1 PUSH1 0x0 PUSH1 0x60 DUP5 DUP7 SUB SLT ISZERO PUSH2 0x3F7A JUMPI PUSH2 0x3F79 PUSH2 0x4B32 JUMP JUMPDEST JUMPDEST PUSH1 0x0 PUSH2 0x3F88 DUP7 DUP3 DUP8 ADD PUSH2 0x3CCE JUMP JUMPDEST SWAP4 POP POP PUSH1 0x20 PUSH2 0x3F99 DUP7 DUP3 DUP8 ADD PUSH2 0x3D63 JUMP JUMPDEST SWAP3 POP POP PUSH1 0x40 PUSH2 0x3FAA DUP7 DUP3 DUP8 ADD PUSH2 0x3CCE JUMP JUMPDEST SWAP2 POP POP SWAP3 POP SWAP3 POP SWAP3 JUMP JUMPDEST PUSH1 0x0 DUP1 PUSH1 0x0 PUSH1 0x60 DUP5 DUP7 SUB SLT ISZERO PUSH2 0x3FCD JUMPI PUSH2 0x3FCC PUSH2 0x4B32 JUMP JUMPDEST JUMPDEST PUSH1 0x0 PUSH2 0x3FDB DUP7 DUP3 DUP8 ADD PUSH2 0x3CCE JUMP JUMPDEST SWAP4 POP POP PUSH1 0x20 PUSH2 0x3FEC DUP7 DUP3 DUP8 ADD PUSH2 0x3D63 JUMP JUMPDEST SWAP3 POP POP PUSH1 0x40 PUSH2 0x3FFD DUP7 DUP3 DUP8 ADD PUSH2 0x3D63 JUMP JUMPDEST SWAP2 POP POP SWAP3 POP SWAP3 POP SWAP3 JUMP JUMPDEST PUSH1 0x0 PUSH1 0x20 DUP3 DUP5 SUB SLT ISZERO PUSH2 0x401D JUMPI PUSH2 0x401C PUSH2 0x4B32 JUMP JUMPDEST JUMPDEST PUSH1 0x0 PUSH2 0x402B DUP5 DUP3 DUP6 ADD PUSH2 0x3CF8 JUMP JUMPDEST SWAP2 POP POP SWAP3 SWAP2 POP POP JUMP JUMPDEST PUSH1 0x0 PUSH2 0x4040 DUP4 DUP4 PUSH2 0x440D JUMP JUMPDEST PUSH1 0x40 DUP4 ADD SWAP1 POP SWAP3 SWAP2 POP POP JUMP JUMPDEST PUSH2 0x4055 DUP2 PUSH2 0x4A4C JUMP JUMPDEST DUP3 MSTORE POP POP JUMP JUMPDEST PUSH2 0x4064 DUP2 PUSH2 0x4A4C JUMP JUMPDEST DUP3 MSTORE POP POP JUMP JUMPDEST PUSH1 0x0 PUSH2 0x4075 DUP3 PUSH2 0x49B1 JUMP JUMPDEST PUSH2 0x407F DUP2 DUP6 PUSH2 0x49C9 JUMP JUMPDEST SWAP4 POP PUSH2 0x408A DUP4 PUSH2 0x49A1 JUMP JUMPDEST DUP1 PUSH1 0x0 JUMPDEST DUP4 DUP2 LT ISZERO PUSH2 0x40BB JUMPI DUP2 MLOAD PUSH2 0x40A2 DUP9 DUP3 PUSH2 0x4034 JUMP JUMPDEST SWAP8 POP PUSH2 0x40AD DUP4 PUSH2 0x49BC JUMP JUMPDEST SWAP3 POP POP PUSH1 0x1 DUP2 ADD SWAP1 POP PUSH2 0x408E JUMP JUMPDEST POP DUP6 SWAP4 POP POP POP POP SWAP3 SWAP2 POP POP JUMP JUMPDEST PUSH2 0x40D1 DUP2 PUSH2 0x4A6A JUMP JUMPDEST DUP3 MSTORE POP POP JUMP JUMPDEST PUSH1 0x0 PUSH2 0x40E4 PUSH1 0x16 DUP4 PUSH2 0x49E5 JUMP JUMPDEST SWAP2 POP PUSH2 0x40EF DUP3 PUSH2 0x4B37 JUMP JUMPDEST PUSH1 0x20 DUP3 ADD SWAP1 POP SWAP2 SWAP1 POP JUMP JUMPDEST PUSH1 0x0 PUSH2 0x4107 PUSH1 0x1C DUP4 PUSH2 0x49E5 JUMP JUMPDEST SWAP2 POP PUSH2 0x4112 DUP3 PUSH2 0x4B60 JUMP JUMPDEST PUSH1 0x20 DUP3 ADD SWAP1 POP SWAP2 SWAP1 POP JUMP JUMPDEST PUSH1 0x0 PUSH2 0x412A PUSH1 0x11 DUP4 PUSH2 0x49E5 JUMP JUMPDEST SWAP2 POP PUSH2 0x4135 DUP3 PUSH2 0x4B89 JUMP JUMPDEST PUSH1 0x20 DUP3 ADD SWAP1 POP SWAP2 SWAP1 POP JUMP JUMPDEST PUSH1 0x0 PUSH2 0x414D PUSH1 0xD DUP4 PUSH2 0x49E5 JUMP JUMPDEST SWAP2 POP PUSH2 0x4158 DUP3 PUSH2 0x4BB2 JUMP JUMPDEST PUSH1 0x20 DUP3 ADD SWAP1 POP SWAP2 SWAP1 POP JUMP JUMPDEST PUSH1 0x0 PUSH2 0x4170 PUSH1 0x15 DUP4 PUSH2 0x49E5 JUMP JUMPDEST SWAP2 POP PUSH2 0x417B DUP3 PUSH2 0x4BDB JUMP JUMPDEST PUSH1 0x20 DUP3 ADD SWAP1 POP SWAP2 SWAP1 POP JUMP JUMPDEST PUSH1 0x0 PUSH2 0x4193 PUSH1 0x17 DUP4 PUSH2 0x49E5 JUMP JUMPDEST SWAP2 POP PUSH2 0x419E DUP3 PUSH2 0x4C04 JUMP JUMPDEST PUSH1 0x20 DUP3 ADD SWAP1 POP SWAP2 SWAP1 POP JUMP JUMPDEST PUSH1 0x0 PUSH2 0x41B6 PUSH1 0x1D DUP4 PUSH2 0x49E5 JUMP JUMPDEST SWAP2 POP PUSH2 0x41C1 DUP3 PUSH2 0x4C2D JUMP JUMPDEST PUSH1 0x20 DUP3 ADD SWAP1 POP SWAP2 SWAP1 POP JUMP JUMPDEST PUSH1 0x0 PUSH2 0x41D9 PUSH1 0xB DUP4 PUSH2 0x49E5 JUMP JUMPDEST SWAP2 POP PUSH2 0x41E4 DUP3 PUSH2 0x4C56 JUMP JUMPDEST PUSH1 0x20 DUP3 ADD SWAP1 POP SWAP2 SWAP1 POP JUMP JUMPDEST PUSH1 0x0 PUSH2 0x41FC PUSH1 0x13 DUP4 PUSH2 0x49E5 JUMP JUMPDEST SWAP2 POP PUSH2 0x4207 DUP3 PUSH2 0x4C7F JUMP JUMPDEST PUSH1 0x20 DUP3 ADD SWAP1 POP SWAP2 SWAP1 POP JUMP JUMPDEST PUSH1 0x0 PUSH2 0x421F PUSH1 0x8 DUP4 PUSH2 0x49E5 JUMP JUMPDEST SWAP2 POP PUSH2 0x422A DUP3 PUSH2 0x4CA8 JUMP JUMPDEST PUSH1 0x20 DUP3 ADD SWAP1 POP SWAP2 SWAP1 POP JUMP JUMPDEST PUSH1 0x0 PUSH2 0x4242 PUSH1 0x14 DUP4 PUSH2 0x49E5 JUMP JUMPDEST SWAP2 POP PUSH2 0x424D DUP3 PUSH2 0x4CD1 JUMP JUMPDEST PUSH1 0x20 DUP3 ADD SWAP1 POP SWAP2 SWAP1 POP JUMP JUMPDEST PUSH1 0x0 PUSH2 0x4265 PUSH1 0xF DUP4 PUSH2 0x49E5 JUMP JUMPDEST SWAP2 POP PUSH2 0x4270 DUP3 PUSH2 0x4CFA JUMP JUMPDEST PUSH1 0x20 DUP3 ADD SWAP1 POP SWAP2 SWAP1 POP JUMP JUMPDEST PUSH1 0x0 PUSH2 0x4288 PUSH1 0x15 DUP4 PUSH2 0x49E5 JUMP JUMPDEST SWAP2 POP PUSH2 0x4293 DUP3 PUSH2 0x4D23 JUMP JUMPDEST PUSH1 0x20 DUP3 ADD SWAP1 POP SWAP2 SWAP1 POP JUMP JUMPDEST PUSH1 0x0 PUSH2 0x42AB PUSH1 0x0 DUP4 PUSH2 0x49DA JUMP JUMPDEST SWAP2 POP PUSH2 0x42B6 DUP3 PUSH2 0x4D4C JUMP JUMPDEST PUSH1 0x0 DUP3 ADD SWAP1 POP SWAP2 SWAP1 POP JUMP JUMPDEST PUSH1 0x0 PUSH2 0x42CE PUSH1 0x13 DUP4 PUSH2 0x49E5 JUMP JUMPDEST SWAP2 POP PUSH2 0x42D9 DUP3 PUSH2 0x4D4F JUMP JUMPDEST PUSH1 0x20 DUP3 ADD SWAP1 POP SWAP2 SWAP1 POP JUMP JUMPDEST PUSH1 0x0 PUSH2 0x42F1 PUSH1 0x14 DUP4 PUSH2 0x49E5 JUMP JUMPDEST SWAP2 POP PUSH2 0x42FC DUP3 PUSH2 0x4D78 JUMP JUMPDEST PUSH1 0x20 DUP3 ADD SWAP1 POP SWAP2 SWAP1 POP JUMP JUMPDEST PUSH1 0x0 PUSH2 0x4314 PUSH1 0xD DUP4 PUSH2 0x49E5 JUMP JUMPDEST SWAP2 POP PUSH2 0x431F DUP3 PUSH2 0x4DA1 JUMP JUMPDEST PUSH1 0x20 DUP3 ADD SWAP1 POP SWAP2 SWAP1 POP JUMP JUMPDEST PUSH1 0xE0 DUP3 ADD PUSH1 0x0 DUP3 ADD MLOAD PUSH2 0x4340 PUSH1 0x0 DUP6 ADD DUP3 PUSH2 0x443C JUMP JUMPDEST POP PUSH1 0x20 DUP3 ADD MLOAD PUSH2 0x4353 PUSH1 0x20 DUP6 ADD DUP3 PUSH2 0x443C JUMP JUMPDEST POP PUSH1 0x40 DUP3 ADD MLOAD PUSH2 0x4366 PUSH1 0x40 DUP6 ADD DUP3 PUSH2 0x443C JUMP JUMPDEST POP PUSH1 0x60 DUP3 ADD MLOAD PUSH2 0x4379 PUSH1 0x60 DUP6 ADD DUP3 PUSH2 0x443C JUMP JUMPDEST POP PUSH1 0x80 DUP3 ADD MLOAD PUSH2 0x438C PUSH1 0x80 DUP6 ADD DUP3 PUSH2 0x404C JUMP JUMPDEST POP PUSH1 0xA0 DUP3 ADD MLOAD PUSH2 0x439F PUSH1 0xA0 DUP6 ADD DUP3 PUSH2 0x404C JUMP JUMPDEST POP PUSH1 0xC0 DUP3 ADD MLOAD PUSH2 0x43B2 PUSH1 0xC0 DUP6 ADD DUP3 PUSH2 0x404C JUMP JUMPDEST POP POP POP POP JUMP JUMPDEST PUSH1 0x80 DUP3 ADD PUSH1 0x0 DUP3 ADD MLOAD PUSH2 0x43CE PUSH1 0x0 DUP6 ADD DUP3 PUSH2 0x404C JUMP JUMPDEST POP PUSH1 0x20 DUP3 ADD MLOAD PUSH2 0x43E1 PUSH1 0x20 DUP6 ADD DUP3 PUSH2 0x404C JUMP JUMPDEST POP PUSH1 0x40 DUP3 ADD MLOAD PUSH2 0x43F4 PUSH1 0x40 DUP6 ADD DUP3 PUSH2 0x404C JUMP JUMPDEST POP PUSH1 0x60 DUP3 ADD MLOAD PUSH2 0x4407 PUSH1 0x60 DUP6 ADD DUP3 PUSH2 0x443C JUMP JUMPDEST POP POP POP POP JUMP JUMPDEST PUSH1 0x40 DUP3 ADD PUSH1 0x0 DUP3 ADD MLOAD PUSH2 0x4423 PUSH1 0x0 DUP6 ADD DUP3 PUSH2 0x404C JUMP JUMPDEST POP PUSH1 0x20 DUP3 ADD MLOAD PUSH2 0x4436 PUSH1 0x20 DUP6 ADD DUP3 PUSH2 0x443C JUMP JUMPDEST POP POP POP POP JUMP JUMPDEST PUSH2 0x4445 DUP2 PUSH2 0x4AB6 JUMP JUMPDEST DUP3 MSTORE POP POP JUMP JUMPDEST PUSH2 0x4454 DUP2 PUSH2 0x4AB6 JUMP JUMPDEST DUP3 MSTORE POP POP JUMP JUMPDEST PUSH1 0x0 PUSH2 0x4465 DUP3 PUSH2 0x429E JUMP JUMPDEST SWAP2 POP DUP2 SWAP1 POP SWAP2 SWAP1 POP JUMP JUMPDEST PUSH1 0x0 PUSH1 0x40 DUP3 ADD SWAP1 POP PUSH2 0x4484 PUSH1 0x0 DUP4 ADD DUP6 PUSH2 0x405B JUMP JUMPDEST PUSH2 0x4491 PUSH1 0x20 DUP4 ADD DUP5 PUSH2 0x405B JUMP JUMPDEST SWAP4 SWAP3 POP POP POP JUMP JUMPDEST PUSH1 0x0 PUSH1 0xC0 DUP3 ADD SWAP1 POP PUSH2 0x44AD PUSH1 0x0 DUP4 ADD DUP10 PUSH2 0x405B JUMP JUMPDEST PUSH2 0x44BA PUSH1 0x20 DUP4 ADD DUP9 PUSH2 0x405B JUMP JUMPDEST PUSH2 0x44C7 PUSH1 0x40 DUP4 ADD DUP8 PUSH2 0x405B JUMP JUMPDEST PUSH2 0x44D4 PUSH1 0x60 DUP4 ADD DUP7 PUSH2 0x444B JUMP JUMPDEST PUSH2 0x44E1 PUSH1 0x80 DUP4 ADD DUP6 PUSH2 0x444B JUMP JUMPDEST PUSH2 0x44EE PUSH1 0xA0 DUP4 ADD DUP5 PUSH2 0x444B JUMP JUMPDEST SWAP8 SWAP7 POP POP POP POP POP POP POP JUMP JUMPDEST PUSH1 0x0 PUSH1 0xE0 DUP3 ADD SWAP1 POP PUSH2 0x450E PUSH1 0x0 DUP4 ADD DUP11 PUSH2 0x405B JUMP JUMPDEST PUSH2 0x451B PUSH1 0x20 DUP4 ADD DUP10 PUSH2 0x405B JUMP JUMPDEST PUSH2 0x4528 PUSH1 0x40 DUP4 ADD DUP9 PUSH2 0x405B JUMP JUMPDEST PUSH2 0x4535 PUSH1 0x60 DUP4 ADD DUP8 PUSH2 0x444B JUMP JUMPDEST PUSH2 0x4542 PUSH1 0x80 DUP4 ADD DUP7 PUSH2 0x444B JUMP JUMPDEST PUSH2 0x454F PUSH1 0xA0 DUP4 ADD DUP6 PUSH2 0x444B JUMP JUMPDEST PUSH2 0x455C PUSH1 0xC0 DUP4 ADD DUP5 PUSH2 0x444B JUMP JUMPDEST SWAP9 SWAP8 POP POP POP POP POP POP POP POP JUMP JUMPDEST PUSH1 0x0 PUSH1 0x60 DUP3 ADD SWAP1 POP PUSH2 0x457D PUSH1 0x0 DUP4 ADD DUP7 PUSH2 0x405B JUMP JUMPDEST PUSH2 0x458A PUSH1 0x20 DUP4 ADD DUP6 PUSH2 0x405B JUMP JUMPDEST PUSH2 0x4597 PUSH1 0x40 DUP4 ADD DUP5 PUSH2 0x444B JUMP JUMPDEST SWAP5 SWAP4 POP POP POP POP JUMP JUMPDEST PUSH1 0x0 PUSH1 0x80 DUP3 ADD SWAP1 POP PUSH2 0x45B4 PUSH1 0x0 DUP4 ADD DUP8 PUSH2 0x405B JUMP JUMPDEST PUSH2 0x45C1 PUSH1 0x20 DUP4 ADD DUP7 PUSH2 0x405B JUMP JUMPDEST PUSH2 0x45CE PUSH1 0x40 DUP4 ADD DUP6 PUSH2 0x444B JUMP JUMPDEST PUSH2 0x45DB PUSH1 0x60 DUP4 ADD DUP5 PUSH2 0x444B JUMP JUMPDEST SWAP6 SWAP5 POP POP POP POP POP JUMP JUMPDEST PUSH1 0x0 PUSH1 0x40 DUP3 ADD SWAP1 POP PUSH2 0x45F9 PUSH1 0x0 DUP4 ADD DUP6 PUSH2 0x405B JUMP JUMPDEST PUSH2 0x4606 PUSH1 0x20 DUP4 ADD DUP5 PUSH2 0x444B JUMP JUMPDEST SWAP4 SWAP3 POP POP POP JUMP JUMPDEST PUSH1 0x0 PUSH1 0x60 DUP3 ADD SWAP1 POP PUSH2 0x4622 PUSH1 0x0 DUP4 ADD DUP7 PUSH2 0x405B JUMP JUMPDEST PUSH2 0x462F PUSH1 0x20 DUP4 ADD DUP6 PUSH2 0x444B JUMP JUMPDEST PUSH2 0x463C PUSH1 0x40 DUP4 ADD DUP5 PUSH2 0x405B JUMP JUMPDEST SWAP5 SWAP4 POP POP POP POP JUMP JUMPDEST PUSH1 0x0 PUSH1 0xA0 DUP3 ADD SWAP1 POP PUSH2 0x4659 PUSH1 0x0 DUP4 ADD DUP9 PUSH2 0x405B JUMP JUMPDEST PUSH2 0x4666 PUSH1 0x20 DUP4 ADD DUP8 PUSH2 0x444B JUMP JUMPDEST PUSH2 0x4673 PUSH1 0x40 DUP4 ADD DUP7 PUSH2 0x405B JUMP JUMPDEST PUSH2 0x4680 PUSH1 0x60 DUP4 ADD DUP6 PUSH2 0x444B JUMP JUMPDEST PUSH2 0x468D PUSH1 0x80 DUP4 ADD DUP5 PUSH2 0x405B JUMP JUMPDEST SWAP7 SWAP6 POP POP POP POP POP POP JUMP JUMPDEST PUSH1 0x0 PUSH1 0x60 DUP3 ADD SWAP1 POP PUSH2 0x46AC PUSH1 0x0 DUP4 ADD DUP7 PUSH2 0x405B JUMP JUMPDEST PUSH2 0x46B9 PUSH1 0x20 DUP4 ADD DUP6 PUSH2 0x444B JUMP JUMPDEST PUSH2 0x46C6 PUSH1 0x40 DUP4 ADD DUP5 PUSH2 0x444B JUMP JUMPDEST SWAP5 SWAP4 POP POP POP POP JUMP JUMPDEST PUSH1 0x0 PUSH1 0x80 DUP3 ADD SWAP1 POP PUSH2 0x46E3 PUSH1 0x0 DUP4 ADD DUP8 PUSH2 0x405B JUMP JUMPDEST PUSH2 0x46F0 PUSH1 0x20 DUP4 ADD DUP7 PUSH2 0x444B JUMP JUMPDEST PUSH2 0x46FD PUSH1 0x40 DUP4 ADD DUP6 PUSH2 0x444B JUMP JUMPDEST PUSH2 0x470A PUSH1 0x60 DUP4 ADD DUP5 PUSH2 0x405B JUMP JUMPDEST SWAP6 SWAP5 POP POP POP POP POP JUMP JUMPDEST PUSH1 0x0 PUSH1 0x20 DUP3 ADD SWAP1 POP DUP2 DUP2 SUB PUSH1 0x0 DUP4 ADD MSTORE PUSH2 0x472D DUP2 DUP5 PUSH2 0x406A JUMP JUMPDEST SWAP1 POP SWAP3 SWAP2 POP POP JUMP JUMPDEST PUSH1 0x0 PUSH1 0x20 DUP3 ADD SWAP1 POP PUSH2 0x474A PUSH1 0x0 DUP4 ADD DUP5 PUSH2 0x40C8 JUMP JUMPDEST SWAP3 SWAP2 POP POP JUMP JUMPDEST PUSH1 0x0 PUSH1 0x20 DUP3 ADD SWAP1 POP DUP2 DUP2 SUB PUSH1 0x0 DUP4 ADD MSTORE PUSH2 0x4769 DUP2 PUSH2 0x40D7 JUMP JUMPDEST SWAP1 POP SWAP2 SWAP1 POP JUMP JUMPDEST PUSH1 0x0 PUSH1 0x20 DUP3 ADD SWAP1 POP DUP2 DUP2 SUB PUSH1 0x0 DUP4 ADD MSTORE PUSH2 0x4789 DUP2 PUSH2 0x40FA JUMP JUMPDEST SWAP1 POP SWAP2 SWAP1 POP JUMP JUMPDEST PUSH1 0x0 PUSH1 0x20 DUP3 ADD SWAP1 POP DUP2 DUP2 SUB PUSH1 0x0 DUP4 ADD MSTORE PUSH2 0x47A9 DUP2 PUSH2 0x411D JUMP JUMPDEST SWAP1 POP SWAP2 SWAP1 POP JUMP JUMPDEST PUSH1 0x0 PUSH1 0x20 DUP3 ADD SWAP1 POP DUP2 DUP2 SUB PUSH1 0x0 DUP4 ADD MSTORE PUSH2 0x47C9 DUP2 PUSH2 0x4140 JUMP JUMPDEST SWAP1 POP SWAP2 SWAP1 POP JUMP JUMPDEST PUSH1 0x0 PUSH1 0x20 DUP3 ADD SWAP1 POP DUP2 DUP2 SUB PUSH1 0x0 DUP4 ADD MSTORE PUSH2 0x47E9 DUP2 PUSH2 0x4163 JUMP JUMPDEST SWAP1 POP SWAP2 SWAP1 POP JUMP JUMPDEST PUSH1 0x0 PUSH1 0x20 DUP3 ADD SWAP1 POP DUP2 DUP2 SUB PUSH1 0x0 DUP4 ADD MSTORE PUSH2 0x4809 DUP2 PUSH2 0x4186 JUMP JUMPDEST SWAP1 POP SWAP2 SWAP1 POP JUMP JUMPDEST PUSH1 0x0 PUSH1 0x20 DUP3 ADD SWAP1 POP DUP2 DUP2 SUB PUSH1 0x0 DUP4 ADD MSTORE PUSH2 0x4829 DUP2 PUSH2 0x41A9 JUMP JUMPDEST SWAP1 POP SWAP2 SWAP1 POP JUMP JUMPDEST PUSH1 0x0 PUSH1 0x20 DUP3 ADD SWAP1 POP DUP2 DUP2 SUB PUSH1 0x0 DUP4 ADD MSTORE PUSH2 0x4849 DUP2 PUSH2 0x41CC JUMP JUMPDEST SWAP1 POP SWAP2 SWAP1 POP JUMP JUMPDEST PUSH1 0x0 PUSH1 0x20 DUP3 ADD SWAP1 POP DUP2 DUP2 SUB PUSH1 0x0 DUP4 ADD MSTORE PUSH2 0x4869 DUP2 PUSH2 0x41EF JUMP JUMPDEST SWAP1 POP SWAP2 SWAP1 POP JUMP JUMPDEST PUSH1 0x0 PUSH1 0x20 DUP3 ADD SWAP1 POP DUP2 DUP2 SUB PUSH1 0x0 DUP4 ADD MSTORE PUSH2 0x4889 DUP2 PUSH2 0x4212 JUMP JUMPDEST SWAP1 POP SWAP2 SWAP1 POP JUMP JUMPDEST PUSH1 0x0 PUSH1 0x20 DUP3 ADD SWAP1 POP DUP2 DUP2 SUB PUSH1 0x0 DUP4 ADD MSTORE PUSH2 0x48A9 DUP2 PUSH2 0x4235 JUMP JUMPDEST SWAP1 POP SWAP2 SWAP1 POP JUMP JUMPDEST PUSH1 0x0 PUSH1 0x20 DUP3 ADD SWAP1 POP DUP2 DUP2 SUB PUSH1 0x0 DUP4 ADD MSTORE PUSH2 0x48C9 DUP2 PUSH2 0x4258 JUMP JUMPDEST SWAP1 POP SWAP2 SWAP1 POP JUMP JUMPDEST PUSH1 0x0 PUSH1 0x20 DUP3 ADD SWAP1 POP DUP2 DUP2 SUB PUSH1 0x0 DUP4 ADD MSTORE PUSH2 0x48E9 DUP2 PUSH2 0x427B JUMP JUMPDEST SWAP1 POP SWAP2 SWAP1 POP JUMP JUMPDEST PUSH1 0x0 PUSH1 0x20 DUP3 ADD SWAP1 POP DUP2 DUP2 SUB PUSH1 0x0 DUP4 ADD MSTORE PUSH2 0x4909 DUP2 PUSH2 0x42C1 JUMP JUMPDEST SWAP1 POP SWAP2 SWAP1 POP JUMP JUMPDEST PUSH1 0x0 PUSH1 0x20 DUP3 ADD SWAP1 POP DUP2 DUP2 SUB PUSH1 0x0 DUP4 ADD MSTORE PUSH2 0x4929 DUP2 PUSH2 0x42E4 JUMP JUMPDEST SWAP1 POP SWAP2 SWAP1 POP JUMP JUMPDEST PUSH1 0x0 PUSH1 0x20 DUP3 ADD SWAP1 POP DUP2 DUP2 SUB PUSH1 0x0 DUP4 ADD MSTORE PUSH2 0x4949 DUP2 PUSH2 0x4307 JUMP JUMPDEST SWAP1 POP SWAP2 SWAP1 POP JUMP JUMPDEST PUSH1 0x0 PUSH1 0xE0 DUP3 ADD SWAP1 POP PUSH2 0x4965 PUSH1 0x0 DUP4 ADD DUP5 PUSH2 0x432A JUMP JUMPDEST SWAP3 SWAP2 POP POP JUMP JUMPDEST PUSH1 0x0 PUSH1 0x80 DUP3 ADD SWAP1 POP PUSH2 0x4980 PUSH1 0x0 DUP4 ADD DUP5 PUSH2 0x43B8 JUMP JUMPDEST SWAP3 SWAP2 POP POP JUMP JUMPDEST PUSH1 0x0 PUSH1 0x20 DUP3 ADD SWAP1 POP PUSH2 0x499B PUSH1 0x0 DUP4 ADD DUP5 PUSH2 0x444B JUMP JUMPDEST SWAP3 SWAP2 POP POP JUMP JUMPDEST PUSH1 0x0 DUP2 SWAP1 POP PUSH1 0x20 DUP3 ADD SWAP1 POP SWAP2 SWAP1 POP JUMP JUMPDEST PUSH1 0x0 DUP2 MLOAD SWAP1 POP SWAP2 SWAP1 POP JUMP JUMPDEST PUSH1 0x0 PUSH1 0x20 DUP3 ADD SWAP1 POP SWAP2 SWAP1 POP JUMP JUMPDEST PUSH1 0x0 DUP3 DUP3 MSTORE PUSH1 0x20 DUP3 ADD SWAP1 POP SWAP3 SWAP2 POP POP JUMP JUMPDEST PUSH1 0x0 DUP2 SWAP1 POP SWAP3 SWAP2 POP POP JUMP JUMPDEST PUSH1 0x0 DUP3 DUP3 MSTORE PUSH1 0x20 DUP3 ADD SWAP1 POP SWAP3 SWAP2 POP POP JUMP JUMPDEST PUSH1 0x0 PUSH2 0x4A01 DUP3 PUSH2 0x4AB6 JUMP JUMPDEST SWAP2 POP PUSH2 0x4A0C DUP4 PUSH2 0x4AB6 JUMP JUMPDEST SWAP3 POP DUP3 PUSH32 0xFFFFFFFFFFFFFFFFFFFFFFFFFFFFFFFFFFFFFFFFFFFFFFFFFFFFFFFFFFFFFFFF SUB DUP3 GT ISZERO PUSH2 0x4A41 JUMPI PUSH2 0x4A40 PUSH2 0x4AC0 JUMP JUMPDEST JUMPDEST DUP3 DUP3 ADD SWAP1 POP SWAP3 SWAP2 POP POP JUMP JUMPDEST PUSH1 0x0 PUSH2 0x4A57 DUP3 PUSH2 0x4A96 JUMP JUMPDEST SWAP1 POP SWAP2 SWAP1 POP JUMP JUMPDEST PUSH1 0x0 DUP2 ISZERO ISZERO SWAP1 POP SWAP2 SWAP1 POP JUMP JUMPDEST PUSH1 0x0 PUSH32 0xFFFFFFFF00000000000000000000000000000000000000000000000000000000 DUP3 AND SWAP1 POP SWAP2 SWAP1 POP JUMP JUMPDEST PUSH1 0x0 PUSH20 0xFFFFFFFFFFFFFFFFFFFFFFFFFFFFFFFFFFFFFFFF DUP3 AND SWAP1 POP SWAP2 SWAP1 POP JUMP JUMPDEST PUSH1 0x0 DUP2 SWAP1 POP SWAP2 SWAP1 POP JUMP JUMPDEST PUSH32 0x4E487B7100000000000000000000000000000000000000000000000000000000 PUSH1 0x0 MSTORE PUSH1 0x11 PUSH1 0x4 MSTORE PUSH1 0x24 PUSH1 0x0 REVERT JUMPDEST PUSH32 0x4E487B7100000000000000000000000000000000000000000000000000000000 PUSH1 0x0 MSTORE PUSH1 0x32 PUSH1 0x4 MSTORE PUSH1 0x24 PUSH1 0x0 REVERT JUMPDEST PUSH1 0x0 DUP1 REVERT JUMPDEST PUSH1 0x0 DUP1 REVERT JUMPDEST PUSH1 0x0 DUP1 REVERT JUMPDEST PUSH1 0x0 DUP1 REVERT JUMPDEST PUSH1 0x0 DUP1 REVERT JUMPDEST PUSH32 0x596F752061726520686967686573742062696464657200000000000000000000 PUSH1 0x0 DUP3 ADD MSTORE POP JUMP JUMPDEST PUSH32 0x4E6674206E6F7420617070726F76656420746F20636F6E747261637400000000 PUSH1 0x0 DUP3 ADD MSTORE POP JUMP JUMPDEST PUSH32 0x50726963652063616E6E6F742062652030000000000000000000000000000000 PUSH1 0x0 DUP3 ADD MSTORE POP JUMP JUMPDEST PUSH32 0x6E6F74206E6674206F776E657200000000000000000000000000000000000000 PUSH1 0x0 DUP3 ADD MSTORE POP JUMP JUMPDEST PUSH32 0x4E6674206E6F7420696E2066697865642073616C650000000000000000000000 PUSH1 0x0 DUP3 ADD MSTORE POP JUMP JUMPDEST PUSH32 0x4E6674206E6F7420696E2061756374696F6E2073616C65000000000000000000 PUSH1 0x0 DUP3 ADD MSTORE POP JUMP JUMPDEST PUSH32 0x4269642047726561746572207468616E2050726576696F757320426964000000 PUSH1 0x0 DUP3 ADD MSTORE POP JUMP JUMPDEST PUSH32 0x41756374696F6E20656E64000000000000000000000000000000000000000000 PUSH1 0x0 DUP3 ADD MSTORE POP JUMP JUMPDEST PUSH32 0x4E667420616C726561647920696E2073616C6500000000000000000000000000 PUSH1 0x0 DUP3 ADD MSTORE POP JUMP JUMPDEST PUSH32 0x626964206D616B65000000000000000000000000000000000000000000000000 PUSH1 0x0 DUP3 ADD MSTORE POP JUMP JUMPDEST PUSH32 0x616C6C6F77616E6365206E6F7420656E6F756768000000000000000000000000 PUSH1 0x0 DUP3 ADD MSTORE POP JUMP JUMPDEST PUSH32 0x41756374696F6E206E6F7420656E640000000000000000000000000000000000 PUSH1 0x0 DUP3 ADD MSTORE POP JUMP JUMPDEST PUSH32 0x596F7520617265206E6F74206E6674206F776E65720000000000000000000000 PUSH1 0x0 DUP3 ADD MSTORE POP JUMP JUMPDEST POP JUMP JUMPDEST PUSH32 0x6E6F7468696E6720746F20776974686472617700000000000000000000000000 PUSH1 0x0 DUP3 ADD MSTORE POP JUMP JUMPDEST PUSH32 0x627579205072696365206E6F7420656E6F756768000000000000000000000000 PUSH1 0x0 DUP3 ADD MSTORE POP JUMP JUMPDEST PUSH32 0x726566756E64206661696C656400000000000000000000000000000000000000 PUSH1 0x0 DUP3 ADD MSTORE POP JUMP JUMPDEST PUSH2 0x4DD3 DUP2 PUSH2 0x4A4C JUMP JUMPDEST DUP2 EQ PUSH2 0x4DDE JUMPI PUSH1 0x0 DUP1 REVERT JUMPDEST POP JUMP JUMPDEST PUSH2 0x4DEA DUP2 PUSH2 0x4A5E JUMP JUMPDEST DUP2 EQ PUSH2 0x4DF5 JUMPI PUSH1 0x0 DUP1 REVERT JUMPDEST POP JUMP JUMPDEST PUSH2 0x4E01 DUP2 PUSH2 0x4AB6 JUMP JUMPDEST DUP2 EQ PUSH2 0x4E0C JUMPI PUSH1 0x0 DUP1 REVERT JUMPDEST POP JUMP INVALID LOG2 PUSH5 0x6970667358 0x22 SLT KECCAK256 0xDF PUSH10 0x93FAF940B041C37C5AE6 LOG4 DUP14 SLOAD 0xCB ADDRESS PUSH16 0xCA58AB2B3271999B7143F601150F6473 PUSH16 0x6C634300080700330000000000000000 "
				},
				"gasEstimates": {
					"creation": {
						"codeDepositCost": "4007400",
						"executionCost": "4580",
						"totalCost": "4011980"
					},
					"external": {
						"_cancelAuctionSale(address,uint256)": "infinite",
						"buyFromFixedSale(address,uint256,uint256)": "infinite",
						"cancelFixedsale(address,uint256)": "infinite",
						"createNftAuctionSale(address,address,uint256,uint256,uint256,uint256)": "infinite",
						"getFixedSale(address,uint256)": "infinite",
						"getFixedSaleNFT()": "infinite",
						"getNftAuctionSaleDetails(address,uint256)": "infinite",
						"makeBid(address,uint256,uint256)": "infinite",
						"nftFixedSale(address,address,uint256,uint256)": "infinite",
						"nftSaleStatus(address,uint256)": "infinite",
						"onERC721Received(address,address,uint256,bytes)": "infinite",
						"settleAuction(address,uint256)": "infinite",
						"updateFixedSalePrice(address,uint256,uint256)": "infinite",
						"updateTheBidPrice(address,uint256,uint256)": "infinite",
						"userBidPriceOnNFT(address,uint256,address)": "infinite",
						"withdrawBid(address,uint256)": "infinite"
					},
					"internal": {
						"_bidAmountTransfer(uint256,address)": "infinite",
						"_isTokenOrCoin(address,address,uint256)": "infinite",
						"_nativeAmountTransfer(address,uint256)": "infinite",
						"_storedNftAuctionDetails(address,address,uint256,uint256,uint256,uint256)": "infinite",
						"_tokenAmountTransfer(address,address,uint256)": "infinite",
						"_transferNftAndPaySeller(address,uint256,uint256,address)": "infinite"
					}
				},
				"methodIdentifiers": {
					"_cancelAuctionSale(address,uint256)": "842bc46a",
					"buyFromFixedSale(address,uint256,uint256)": "baf4371e",
					"cancelFixedsale(address,uint256)": "d3a6a6c9",
					"createNftAuctionSale(address,address,uint256,uint256,uint256,uint256)": "cf42b7e6",
					"getFixedSale(address,uint256)": "8c3417da",
					"getFixedSaleNFT()": "9f085a00",
					"getNftAuctionSaleDetails(address,uint256)": "6f8c9b1b",
					"makeBid(address,uint256,uint256)": "1bdae6f1",
					"nftFixedSale(address,address,uint256,uint256)": "69a6d12e",
					"nftSaleStatus(address,uint256)": "6916462f",
					"onERC721Received(address,address,uint256,bytes)": "150b7a02",
					"settleAuction(address,uint256)": "5138b08c",
					"updateFixedSalePrice(address,uint256,uint256)": "4676adca",
					"updateTheBidPrice(address,uint256,uint256)": "3a713db8",
					"userBidPriceOnNFT(address,uint256,address)": "6fe02f24",
					"withdrawBid(address,uint256)": "4cb8ef5b"
				}
			},
			"storageLayout": {
				"storage": [
					{
						"astId": 268,
						"contract": "NFT-Contracts/contracts/market_pri/NewMarket.sol:NFTMarketplace",
						"label": "nftContractFixedSale",
						"offset": 0,
						"slot": "0",
						"type": "t_mapping(t_address,t_mapping(t_uint256,t_struct(FixedSale)256_storage))"
					},
					{
						"astId": 275,
						"contract": "NFT-Contracts/contracts/market_pri/NewMarket.sol:NFTMarketplace",
						"label": "nftContractAuctionSale",
						"offset": 0,
						"slot": "1",
						"type": "t_mapping(t_address,t_mapping(t_uint256,t_struct(Auction)247_storage))"
					},
					{
						"astId": 281,
						"contract": "NFT-Contracts/contracts/market_pri/NewMarket.sol:NFTMarketplace",
						"label": "nftSaleStatus",
						"offset": 0,
						"slot": "2",
						"type": "t_mapping(t_address,t_mapping(t_uint256,t_uint256))"
					},
					{
						"astId": 289,
						"contract": "NFT-Contracts/contracts/market_pri/NewMarket.sol:NFTMarketplace",
						"label": "userBidPriceOnNFT",
						"offset": 0,
						"slot": "3",
						"type": "t_mapping(t_address,t_mapping(t_uint256,t_mapping(t_address,t_uint256)))"
					},
					{
						"astId": 295,
						"contract": "NFT-Contracts/contracts/market_pri/NewMarket.sol:NFTMarketplace",
						"label": "indexFixedSaleNFT",
						"offset": 0,
						"slot": "4",
						"type": "t_mapping(t_address,t_mapping(t_uint256,t_uint256))"
					},
					{
						"astId": 299,
						"contract": "NFT-Contracts/contracts/market_pri/NewMarket.sol:NFTMarketplace",
						"label": "fixedSaleNFT",
						"offset": 0,
						"slot": "5",
						"type": "t_array(t_struct(SaleInfo)261_storage)dyn_storage"
					}
				],
				"types": {
					"t_address": {
						"encoding": "inplace",
						"label": "address",
						"numberOfBytes": "20"
					},
					"t_array(t_struct(SaleInfo)261_storage)dyn_storage": {
						"base": "t_struct(SaleInfo)261_storage",
						"encoding": "dynamic_array",
						"label": "struct NFTMarketplace.SaleInfo[]",
						"numberOfBytes": "32"
					},
					"t_mapping(t_address,t_mapping(t_uint256,t_mapping(t_address,t_uint256)))": {
						"encoding": "mapping",
						"key": "t_address",
						"label": "mapping(address => mapping(uint256 => mapping(address => uint256)))",
						"numberOfBytes": "32",
						"value": "t_mapping(t_uint256,t_mapping(t_address,t_uint256))"
					},
					"t_mapping(t_address,t_mapping(t_uint256,t_struct(Auction)247_storage))": {
						"encoding": "mapping",
						"key": "t_address",
						"label": "mapping(address => mapping(uint256 => struct NFTMarketplace.Auction))",
						"numberOfBytes": "32",
						"value": "t_mapping(t_uint256,t_struct(Auction)247_storage)"
					},
					"t_mapping(t_address,t_mapping(t_uint256,t_struct(FixedSale)256_storage))": {
						"encoding": "mapping",
						"key": "t_address",
						"label": "mapping(address => mapping(uint256 => struct NFTMarketplace.FixedSale))",
						"numberOfBytes": "32",
						"value": "t_mapping(t_uint256,t_struct(FixedSale)256_storage)"
					},
					"t_mapping(t_address,t_mapping(t_uint256,t_uint256))": {
						"encoding": "mapping",
						"key": "t_address",
						"label": "mapping(address => mapping(uint256 => uint256))",
						"numberOfBytes": "32",
						"value": "t_mapping(t_uint256,t_uint256)"
					},
					"t_mapping(t_address,t_uint256)": {
						"encoding": "mapping",
						"key": "t_address",
						"label": "mapping(address => uint256)",
						"numberOfBytes": "32",
						"value": "t_uint256"
					},
					"t_mapping(t_uint256,t_mapping(t_address,t_uint256))": {
						"encoding": "mapping",
						"key": "t_uint256",
						"label": "mapping(uint256 => mapping(address => uint256))",
						"numberOfBytes": "32",
						"value": "t_mapping(t_address,t_uint256)"
					},
					"t_mapping(t_uint256,t_struct(Auction)247_storage)": {
						"encoding": "mapping",
						"key": "t_uint256",
						"label": "mapping(uint256 => struct NFTMarketplace.Auction)",
						"numberOfBytes": "32",
						"value": "t_struct(Auction)247_storage"
					},
					"t_mapping(t_uint256,t_struct(FixedSale)256_storage)": {
						"encoding": "mapping",
						"key": "t_uint256",
						"label": "mapping(uint256 => struct NFTMarketplace.FixedSale)",
						"numberOfBytes": "32",
						"value": "t_struct(FixedSale)256_storage"
					},
					"t_mapping(t_uint256,t_uint256)": {
						"encoding": "mapping",
						"key": "t_uint256",
						"label": "mapping(uint256 => uint256)",
						"numberOfBytes": "32",
						"value": "t_uint256"
					},
					"t_struct(Auction)247_storage": {
						"encoding": "inplace",
						"label": "struct NFTMarketplace.Auction",
						"members": [
							{
								"astId": 234,
								"contract": "NFT-Contracts/contracts/market_pri/NewMarket.sol:NFTMarketplace",
								"label": "auctionStart",
								"offset": 0,
								"slot": "0",
								"type": "t_uint256"
							},
							{
								"astId": 236,
								"contract": "NFT-Contracts/contracts/market_pri/NewMarket.sol:NFTMarketplace",
								"label": "auctionEnd",
								"offset": 0,
								"slot": "1",
								"type": "t_uint256"
							},
							{
								"astId": 238,
								"contract": "NFT-Contracts/contracts/market_pri/NewMarket.sol:NFTMarketplace",
								"label": "minPrice",
								"offset": 0,
								"slot": "2",
								"type": "t_uint256"
							},
							{
								"astId": 240,
								"contract": "NFT-Contracts/contracts/market_pri/NewMarket.sol:NFTMarketplace",
								"label": "nftHighestBid",
								"offset": 0,
								"slot": "3",
								"type": "t_uint256"
							},
							{
								"astId": 242,
								"contract": "NFT-Contracts/contracts/market_pri/NewMarket.sol:NFTMarketplace",
								"label": "nftHighestBidder",
								"offset": 0,
								"slot": "4",
								"type": "t_address"
							},
							{
								"astId": 244,
								"contract": "NFT-Contracts/contracts/market_pri/NewMarket.sol:NFTMarketplace",
								"label": "nftSeller",
								"offset": 0,
								"slot": "5",
								"type": "t_address"
							},
							{
								"astId": 246,
								"contract": "NFT-Contracts/contracts/market_pri/NewMarket.sol:NFTMarketplace",
								"label": "erc20",
								"offset": 0,
								"slot": "6",
								"type": "t_address"
							}
						],
						"numberOfBytes": "224"
					},
					"t_struct(FixedSale)256_storage": {
						"encoding": "inplace",
						"label": "struct NFTMarketplace.FixedSale",
						"members": [
							{
								"astId": 249,
								"contract": "NFT-Contracts/contracts/market_pri/NewMarket.sol:NFTMarketplace",
								"label": "nftSeller",
								"offset": 0,
								"slot": "0",
								"type": "t_address"
							},
							{
								"astId": 251,
								"contract": "NFT-Contracts/contracts/market_pri/NewMarket.sol:NFTMarketplace",
								"label": "nftBuyer",
								"offset": 0,
								"slot": "1",
								"type": "t_address"
							},
							{
								"astId": 253,
								"contract": "NFT-Contracts/contracts/market_pri/NewMarket.sol:NFTMarketplace",
								"label": "erc20",
								"offset": 0,
								"slot": "2",
								"type": "t_address"
							},
							{
								"astId": 255,
								"contract": "NFT-Contracts/contracts/market_pri/NewMarket.sol:NFTMarketplace",
								"label": "salePrice",
								"offset": 0,
								"slot": "3",
								"type": "t_uint256"
							}
						],
						"numberOfBytes": "128"
					},
					"t_struct(SaleInfo)261_storage": {
						"encoding": "inplace",
						"label": "struct NFTMarketplace.SaleInfo",
						"members": [
							{
								"astId": 258,
								"contract": "NFT-Contracts/contracts/market_pri/NewMarket.sol:NFTMarketplace",
								"label": "_nftContractAddress",
								"offset": 0,
								"slot": "0",
								"type": "t_address"
							},
							{
								"astId": 260,
								"contract": "NFT-Contracts/contracts/market_pri/NewMarket.sol:NFTMarketplace",
								"label": "_tokenID",
								"offset": 0,
								"slot": "1",
								"type": "t_uint256"
							}
						],
						"numberOfBytes": "64"
					},
					"t_uint256": {
						"encoding": "inplace",
						"label": "uint256",
						"numberOfBytes": "32"
					}
				}
			},
			"userdoc": {
				"kind": "user",
				"methods": {},
				"version": 1
			}
		}
	}
}