{
	"NFT-Contracts/contracts/market_pri/NewMarket.sol": {
		"NFTMarketplace": {
			"abi": [
				{
					"anonymous": false,
					"inputs": [
						{
							"indexed": false,
							"internalType": "address",
							"name": "nftContractAddress",
							"type": "address"
						},
						{
							"indexed": false,
							"internalType": "uint256",
							"name": "tokenId",
							"type": "uint256"
						},
						{
							"indexed": false,
							"internalType": "address",
							"name": "nftSeller",
							"type": "address"
						}
					],
					"name": "CancelNftAuctionSale",
					"type": "event"
				},
				{
					"anonymous": false,
					"inputs": [
						{
							"indexed": false,
							"internalType": "address",
							"name": "nftContractAddress",
							"type": "address"
						},
						{
							"indexed": false,
							"internalType": "address",
							"name": "nftSeller",
							"type": "address"
						},
						{
							"indexed": false,
							"internalType": "uint256",
							"name": "tokenId",
							"type": "uint256"
						}
					],
					"name": "CancelNftFixedSale",
					"type": "event"
				},
				{
					"anonymous": false,
					"inputs": [
						{
							"indexed": false,
							"internalType": "address",
							"name": "nftContractAddress",
							"type": "address"
						},
						{
							"indexed": false,
							"internalType": "uint256",
							"name": "tokenId",
							"type": "uint256"
						},
						{
							"indexed": false,
							"internalType": "uint256",
							"name": "finalBidPrice",
							"type": "uint256"
						},
						{
							"indexed": false,
							"internalType": "address",
							"name": "nftBidder",
							"type": "address"
						}
					],
					"name": "NftAuctionBidPriceUpdate",
					"type": "event"
				},
				{
					"anonymous": false,
					"inputs": [
						{
							"indexed": false,
							"internalType": "address",
							"name": "nftContractAddress",
							"type": "address"
						},
						{
							"indexed": false,
							"internalType": "address",
							"name": "nftSeller",
							"type": "address"
						},
						{
							"indexed": false,
							"internalType": "address",
							"name": "erc20",
							"type": "address"
						},
						{
							"indexed": false,
							"internalType": "uint256",
							"name": "tokenId",
							"type": "uint256"
						},
						{
							"indexed": false,
							"internalType": "uint256",
							"name": "auctionStart",
							"type": "uint256"
						},
						{
							"indexed": false,
							"internalType": "uint256",
							"name": "auctionEnd",
							"type": "uint256"
						},
						{
							"indexed": false,
							"internalType": "uint256",
							"name": "minPrice",
							"type": "uint256"
						}
					],
					"name": "NftAuctionSale",
					"type": "event"
				},
				{
					"anonymous": false,
					"inputs": [
						{
							"indexed": false,
							"internalType": "address",
							"name": "nftContractAddress",
							"type": "address"
						},
						{
							"indexed": false,
							"internalType": "uint256",
							"name": "tokenId",
							"type": "uint256"
						},
						{
							"indexed": false,
							"internalType": "address",
							"name": "nftHighestBidder",
							"type": "address"
						},
						{
							"indexed": false,
							"internalType": "uint256",
							"name": "nftHighestBid",
							"type": "uint256"
						},
						{
							"indexed": false,
							"internalType": "address",
							"name": "nftSeller",
							"type": "address"
						}
					],
					"name": "NftAuctionSettle",
					"type": "event"
				},
				{
					"anonymous": false,
					"inputs": [
						{
							"indexed": false,
							"internalType": "address",
							"name": "nftContractAddress",
							"type": "address"
						},
						{
							"indexed": false,
							"internalType": "uint256",
							"name": "tokenId",
							"type": "uint256"
						},
						{
							"indexed": false,
							"internalType": "uint256",
							"name": "bidPrice",
							"type": "uint256"
						},
						{
							"indexed": false,
							"internalType": "address",
							"name": "nftBidder",
							"type": "address"
						}
					],
					"name": "NftBidPrice",
					"type": "event"
				},
				{
					"anonymous": false,
					"inputs": [
						{
							"indexed": false,
							"internalType": "address",
							"name": "nftContractAddress",
							"type": "address"
						},
						{
							"indexed": false,
							"internalType": "address",
							"name": "nftBuyer",
							"type": "address"
						},
						{
							"indexed": false,
							"internalType": "uint256",
							"name": "tokenId",
							"type": "uint256"
						},
						{
							"indexed": false,
							"internalType": "uint256",
							"name": "nftBuyPrice",
							"type": "uint256"
						}
					],
					"name": "NftBuyFromFixedSale",
					"type": "event"
				},
				{
					"anonymous": false,
					"inputs": [
						{
							"indexed": false,
							"internalType": "address",
							"name": "nftContractAddress",
							"type": "address"
						},
						{
							"indexed": false,
							"internalType": "uint256",
							"name": "tokenId",
							"type": "uint256"
						},
						{
							"indexed": false,
							"internalType": "uint256",
							"name": "updateBuyNowPrice",
							"type": "uint256"
						},
						{
							"indexed": false,
							"internalType": "address",
							"name": "nftOwner",
							"type": "address"
						}
					],
					"name": "NftBuyNowPriceUpdate",
					"type": "event"
				},
				{
					"anonymous": false,
					"inputs": [
						{
							"indexed": false,
							"internalType": "address",
							"name": "nftContractAddress",
							"type": "address"
						},
						{
							"indexed": false,
							"internalType": "address",
							"name": "nftSeller",
							"type": "address"
						},
						{
							"indexed": false,
							"internalType": "address",
							"name": "erc20",
							"type": "address"
						},
						{
							"indexed": false,
							"internalType": "uint256",
							"name": "tokenId",
							"type": "uint256"
						},
						{
							"indexed": false,
							"internalType": "uint256",
							"name": "salePrice",
							"type": "uint256"
						},
						{
							"indexed": false,
							"internalType": "uint256",
							"name": "timeOfSale",
							"type": "uint256"
						}
					],
					"name": "NftFixedSale",
					"type": "event"
				},
				{
					"anonymous": false,
					"inputs": [
						{
							"indexed": false,
							"internalType": "address",
							"name": "nftContractAddress",
							"type": "address"
						},
						{
							"indexed": false,
							"internalType": "uint256",
							"name": "tokenId",
							"type": "uint256"
						},
						{
							"indexed": false,
							"internalType": "uint256",
							"name": "updateSalePrice",
							"type": "uint256"
						}
					],
					"name": "NftFixedSalePriceUpdated",
					"type": "event"
				},
				{
					"anonymous": false,
					"inputs": [
						{
							"indexed": false,
							"internalType": "address",
							"name": "nftContractAddress",
							"type": "address"
						},
						{
							"indexed": false,
							"internalType": "uint256",
							"name": "tokenId",
							"type": "uint256"
						},
						{
							"indexed": false,
							"internalType": "address",
							"name": "bidClaimer",
							"type": "address"
						}
					],
					"name": "withdrawNftBid",
					"type": "event"
				},
				{
					"inputs": [
						{
							"internalType": "address",
							"name": "_erc20_contract",
							"type": "address"
						},
						{
							"internalType": "address",
							"name": "seller",
							"type": "address"
						},
						{
							"internalType": "uint256",
							"name": "_amount",
							"type": "uint256"
						}
					],
					"name": "Sell_AreveaToken",
					"outputs": [
						{
							"internalType": "bool",
							"name": "",
							"type": "bool"
						}
					],
					"stateMutability": "nonpayable",
					"type": "function"
				},
				{
					"inputs": [
						{
							"internalType": "address",
							"name": "_nftContractAddress",
							"type": "address"
						},
						{
							"internalType": "uint256",
							"name": "_tokenId",
							"type": "uint256"
						}
					],
					"name": "_cancelAuctionSale",
					"outputs": [],
					"stateMutability": "nonpayable",
					"type": "function"
				},
				{
					"inputs": [
						{
							"internalType": "address",
							"name": "_erc20_contract",
							"type": "address"
						},
						{
							"internalType": "address",
							"name": "_buyer",
							"type": "address"
						},
						{
							"internalType": "uint256",
							"name": "_amount",
							"type": "uint256"
						}
					],
					"name": "buyAreveaToken",
					"outputs": [
						{
							"internalType": "bool",
							"name": "",
							"type": "bool"
						}
					],
					"stateMutability": "nonpayable",
					"type": "function"
				},
				{
					"inputs": [
						{
							"internalType": "address",
							"name": "_nftContractAddress",
							"type": "address"
						},
						{
							"internalType": "uint256",
							"name": "_tokenId",
							"type": "uint256"
						},
						{
							"internalType": "uint256",
							"name": "_amount",
							"type": "uint256"
						}
					],
					"name": "buyFromFixedSale",
					"outputs": [],
					"stateMutability": "payable",
					"type": "function"
				},
				{
					"inputs": [
						{
							"internalType": "address",
							"name": "_nftContractAddress",
							"type": "address"
						},
						{
							"internalType": "uint256",
							"name": "_tokenId",
							"type": "uint256"
						}
					],
					"name": "cancelFixedsale",
					"outputs": [],
					"stateMutability": "nonpayable",
					"type": "function"
				},
				{
					"inputs": [
						{
							"internalType": "address",
							"name": "_nftContractAddress",
							"type": "address"
						},
						{
							"internalType": "address",
							"name": "_erc20",
							"type": "address"
						},
						{
							"internalType": "uint256",
							"name": "_tokenId",
							"type": "uint256"
						},
						{
							"internalType": "uint256",
							"name": "_auctionStart",
							"type": "uint256"
						},
						{
							"internalType": "uint256",
							"name": "_auctionEnd",
							"type": "uint256"
						},
						{
							"internalType": "uint256",
							"name": "_minPrice",
							"type": "uint256"
						}
					],
					"name": "createNftAuctionSale",
					"outputs": [],
					"stateMutability": "nonpayable",
					"type": "function"
				},
				{
					"inputs": [
						{
							"internalType": "address",
							"name": "_nftContractAddress",
							"type": "address"
						},
						{
							"internalType": "uint256",
							"name": "_tokenId",
							"type": "uint256"
						}
					],
					"name": "getFixedSale",
					"outputs": [
						{
							"components": [
								{
									"internalType": "address",
									"name": "nftSeller",
									"type": "address"
								},
								{
									"internalType": "address",
									"name": "nftBuyer",
									"type": "address"
								},
								{
									"internalType": "address",
									"name": "erc20",
									"type": "address"
								},
								{
									"internalType": "uint256",
									"name": "salePrice",
									"type": "uint256"
								}
							],
							"internalType": "struct NFTMarketplace.FixedSale",
							"name": "",
							"type": "tuple"
						}
					],
					"stateMutability": "view",
					"type": "function"
				},
				{
					"inputs": [],
					"name": "getFixedSaleNFT",
					"outputs": [
						{
							"components": [
								{
									"internalType": "address",
									"name": "_nftContractAddress",
									"type": "address"
								},
								{
									"internalType": "uint256",
									"name": "_tokenID",
									"type": "uint256"
								}
							],
							"internalType": "struct NFTMarketplace.SaleInfo[]",
							"name": "",
							"type": "tuple[]"
						}
					],
					"stateMutability": "view",
					"type": "function"
				},
				{
					"inputs": [
						{
							"internalType": "address",
							"name": "_nftContractAddress",
							"type": "address"
						},
						{
							"internalType": "uint256",
							"name": "_tokenId",
							"type": "uint256"
						}
					],
					"name": "getNftAuctionSaleDetails",
					"outputs": [
						{
							"components": [
								{
									"internalType": "uint256",
									"name": "auctionStart",
									"type": "uint256"
								},
								{
									"internalType": "uint256",
									"name": "auctionEnd",
									"type": "uint256"
								},
								{
									"internalType": "uint256",
									"name": "minPrice",
									"type": "uint256"
								},
								{
									"internalType": "uint256",
									"name": "nftHighestBid",
									"type": "uint256"
								},
								{
									"internalType": "address",
									"name": "nftHighestBidder",
									"type": "address"
								},
								{
									"internalType": "address",
									"name": "nftSeller",
									"type": "address"
								},
								{
									"internalType": "address",
									"name": "erc20",
									"type": "address"
								}
							],
							"internalType": "struct NFTMarketplace.Auction",
							"name": "",
							"type": "tuple"
						}
					],
					"stateMutability": "view",
					"type": "function"
				},
				{
					"inputs": [
						{
							"internalType": "address",
							"name": "_nftContractAddress",
							"type": "address"
						},
						{
							"internalType": "uint256",
							"name": "_tokenId",
							"type": "uint256"
						},
						{
							"internalType": "uint256",
							"name": "_bidPrice",
							"type": "uint256"
						}
					],
					"name": "makeBid",
					"outputs": [],
					"stateMutability": "payable",
					"type": "function"
				},
				{
					"inputs": [
						{
							"internalType": "address",
							"name": "_nftContractAddress",
							"type": "address"
						},
						{
							"internalType": "address",
							"name": "_erc20",
							"type": "address"
						},
						{
							"internalType": "uint256",
							"name": "_tokenId",
							"type": "uint256"
						},
						{
							"internalType": "uint256",
							"name": "_salePrice",
							"type": "uint256"
						}
					],
					"name": "nftFixedSale",
					"outputs": [],
					"stateMutability": "nonpayable",
					"type": "function"
				},
				{
					"inputs": [
						{
							"internalType": "address",
							"name": "",
							"type": "address"
						},
						{
							"internalType": "uint256",
							"name": "",
							"type": "uint256"
						}
					],
					"name": "nftSaleStatus",
					"outputs": [
						{
							"internalType": "uint256",
							"name": "",
							"type": "uint256"
						}
					],
					"stateMutability": "view",
					"type": "function"
				},
				{
					"inputs": [
						{
							"internalType": "address",
							"name": "",
							"type": "address"
						},
						{
							"internalType": "address",
							"name": "from",
							"type": "address"
						},
						{
							"internalType": "uint256",
							"name": "",
							"type": "uint256"
						},
						{
							"internalType": "bytes",
							"name": "",
							"type": "bytes"
						}
					],
					"name": "onERC721Received",
					"outputs": [
						{
							"internalType": "bytes4",
							"name": "",
							"type": "bytes4"
						}
					],
					"stateMutability": "pure",
					"type": "function"
				},
				{
					"inputs": [
						{
							"internalType": "address",
							"name": "_nftContractAddress",
							"type": "address"
						},
						{
							"internalType": "uint256",
							"name": "_tokenId",
							"type": "uint256"
						}
					],
					"name": "settleAuction",
					"outputs": [],
					"stateMutability": "nonpayable",
					"type": "function"
				},
				{
					"inputs": [
						{
							"internalType": "address",
							"name": "_nftContractAddress",
							"type": "address"
						},
						{
							"internalType": "uint256",
							"name": "_tokenId",
							"type": "uint256"
						},
						{
							"internalType": "uint256",
							"name": "_updateSalePrice",
							"type": "uint256"
						}
					],
					"name": "updateFixedSalePrice",
					"outputs": [],
					"stateMutability": "nonpayable",
					"type": "function"
				},
				{
					"inputs": [
						{
							"internalType": "address",
							"name": "_nftContractAddress",
							"type": "address"
						},
						{
							"internalType": "uint256",
							"name": "_tokenId",
							"type": "uint256"
						},
						{
							"internalType": "uint256",
							"name": "_updateBidPrice",
							"type": "uint256"
						}
					],
					"name": "updateTheBidPrice",
					"outputs": [],
					"stateMutability": "payable",
					"type": "function"
				},
				{
					"inputs": [
						{
							"internalType": "address",
							"name": "",
							"type": "address"
						},
						{
							"internalType": "uint256",
							"name": "",
							"type": "uint256"
						},
						{
							"internalType": "address",
							"name": "",
							"type": "address"
						}
					],
					"name": "userBidPriceOnNFT",
					"outputs": [
						{
							"internalType": "uint256",
							"name": "",
							"type": "uint256"
						}
					],
					"stateMutability": "view",
					"type": "function"
				},
				{
					"inputs": [
						{
							"internalType": "address",
							"name": "_nftContractAddress",
							"type": "address"
						},
						{
							"internalType": "uint256",
							"name": "_tokenId",
							"type": "uint256"
						}
					],
					"name": "withdrawBid",
					"outputs": [],
					"stateMutability": "nonpayable",
					"type": "function"
				},
				{
					"stateMutability": "payable",
					"type": "receive"
				}
			],
			"devdoc": {
				"kind": "dev",
				"methods": {},
				"version": 1
			},
			"evm": {
				"assembly": "    /* \"NFT-Contracts/contracts/market_pri/NewMarket.sol\":174:21211  contract NFTMarketplace {\r... */\n  mstore(0x40, 0x80)\n  callvalue\n  dup1\n  iszero\n  tag_1\n  jumpi\n  0x00\n  dup1\n  revert\ntag_1:\n  pop\n  dataSize(sub_0)\n  dup1\n  dataOffset(sub_0)\n  0x00\n  codecopy\n  0x00\n  return\nstop\n\nsub_0: assembly {\n        /* \"NFT-Contracts/contracts/market_pri/NewMarket.sol\":174:21211  contract NFTMarketplace {\r... */\n      mstore(0x40, 0x80)\n      jumpi(tag_1, lt(calldatasize, 0x04))\n      shr(0xe0, calldataload(0x00))\n      dup1\n      0x6f8c9b1b\n      gt\n      tag_21\n      jumpi\n      dup1\n      0x8c3417da\n      gt\n      tag_22\n      jumpi\n      dup1\n      0x8c3417da\n      eq\n      tag_16\n      jumpi\n      dup1\n      0x9f085a00\n      eq\n      tag_17\n      jumpi\n      dup1\n      0xbaf4371e\n      eq\n      tag_18\n      jumpi\n      dup1\n      0xcf42b7e6\n      eq\n      tag_19\n      jumpi\n      dup1\n      0xd3a6a6c9\n      eq\n      tag_20\n      jumpi\n      jump(tag_2)\n    tag_22:\n      dup1\n      0x6f8c9b1b\n      eq\n      tag_12\n      jumpi\n      dup1\n      0x6fe02f24\n      eq\n      tag_13\n      jumpi\n      dup1\n      0x7ad47a21\n      eq\n      tag_14\n      jumpi\n      dup1\n      0x842bc46a\n      eq\n      tag_15\n      jumpi\n      jump(tag_2)\n    tag_21:\n      dup1\n      0x4676adca\n      gt\n      tag_23\n      jumpi\n      dup1\n      0x4676adca\n      eq\n      tag_7\n      jumpi\n      dup1\n      0x4cb8ef5b\n      eq\n      tag_8\n      jumpi\n      dup1\n      0x5138b08c\n      eq\n      tag_9\n      jumpi\n      dup1\n      0x6916462f\n      eq\n      tag_10\n      jumpi\n      dup1\n      0x69a6d12e\n      eq\n      tag_11\n      jumpi\n      jump(tag_2)\n    tag_23:\n      dup1\n      0xe2097c\n      eq\n      tag_3\n      jumpi\n      dup1\n      0x150b7a02\n      eq\n      tag_4\n      jumpi\n      dup1\n      0x1bdae6f1\n      eq\n      tag_5\n      jumpi\n      dup1\n      0x3a713db8\n      eq\n      tag_6\n      jumpi\n      jump(tag_2)\n    tag_1:\n      jumpi(tag_2, calldatasize)\n      stop\n    tag_2:\n      0x00\n      dup1\n      revert\n        /* \"NFT-Contracts/contracts/market_pri/NewMarket.sol\":10246:10530  function buyAreveaToken(address _erc20_contract, address _buyer, uint256 _amount) public returns (bool){\r... */\n    tag_3:\n      callvalue\n      dup1\n      iszero\n      tag_26\n      jumpi\n      0x00\n      dup1\n      revert\n    tag_26:\n      pop\n      tag_27\n      0x04\n      dup1\n      calldatasize\n      sub\n      dup2\n      add\n      swap1\n      tag_28\n      swap2\n      swap1\n      tag_29\n      jump\t// in\n    tag_28:\n      tag_30\n      jump\t// in\n    tag_27:\n      mload(0x40)\n      tag_31\n      swap2\n      swap1\n      tag_32\n      jump\t// in\n    tag_31:\n      mload(0x40)\n      dup1\n      swap2\n      sub\n      swap1\n      return\n        /* \"NFT-Contracts/contracts/market_pri/NewMarket.sol\":18502:18717  function onERC721Received(\r... */\n    tag_4:\n      callvalue\n      dup1\n      iszero\n      tag_33\n      jumpi\n      0x00\n      dup1\n      revert\n    tag_33:\n      pop\n      tag_34\n      0x04\n      dup1\n      calldatasize\n      sub\n      dup2\n      add\n      swap1\n      tag_35\n      swap2\n      swap1\n      tag_36\n      jump\t// in\n    tag_35:\n      tag_37\n      jump\t// in\n    tag_34:\n      mload(0x40)\n      tag_38\n      swap2\n      swap1\n      tag_39\n      jump\t// in\n    tag_38:\n      mload(0x40)\n      dup1\n      swap2\n      sub\n      swap1\n      return\n        /* \"NFT-Contracts/contracts/market_pri/NewMarket.sol\":12912:14087  function makeBid(\r... */\n    tag_5:\n      tag_40\n      0x04\n      dup1\n      calldatasize\n      sub\n      dup2\n      add\n      swap1\n      tag_41\n      swap2\n      swap1\n      tag_42\n      jump\t// in\n    tag_41:\n      tag_43\n      jump\t// in\n    tag_40:\n      stop\n        /* \"NFT-Contracts/contracts/market_pri/NewMarket.sol\":14095:15611  function updateTheBidPrice(\r... */\n    tag_6:\n      tag_44\n      0x04\n      dup1\n      calldatasize\n      sub\n      dup2\n      add\n      swap1\n      tag_45\n      swap2\n      swap1\n      tag_42\n      jump\t// in\n    tag_45:\n      tag_46\n      jump\t// in\n    tag_44:\n      stop\n        /* \"NFT-Contracts/contracts/market_pri/NewMarket.sol\":9661:10239  function updateFixedSalePrice(\r... */\n    tag_7:\n      callvalue\n      dup1\n      iszero\n      tag_47\n      jumpi\n      0x00\n      dup1\n      revert\n    tag_47:\n      pop\n      tag_48\n      0x04\n      dup1\n      calldatasize\n      sub\n      dup2\n      add\n      swap1\n      tag_49\n      swap2\n      swap1\n      tag_42\n      jump\t// in\n    tag_49:\n      tag_50\n      jump\t// in\n    tag_48:\n      stop\n        /* \"NFT-Contracts/contracts/market_pri/NewMarket.sol\":17162:17920  function withdrawBid(address _nftContractAddress, uint256 _tokenId)\r... */\n    tag_8:\n      callvalue\n      dup1\n      iszero\n      tag_51\n      jumpi\n      0x00\n      dup1\n      revert\n    tag_51:\n      pop\n      tag_52\n      0x04\n      dup1\n      calldatasize\n      sub\n      dup2\n      add\n      swap1\n      tag_53\n      swap2\n      swap1\n      tag_54\n      jump\t// in\n    tag_53:\n      tag_55\n      jump\t// in\n    tag_52:\n      stop\n        /* \"NFT-Contracts/contracts/market_pri/NewMarket.sol\":16256:17154  function settleAuction(address _nftContractAddress, uint256 _tokenId)\r... */\n    tag_9:\n      callvalue\n      dup1\n      iszero\n      tag_56\n      jumpi\n      0x00\n      dup1\n      revert\n    tag_56:\n      pop\n      tag_57\n      0x04\n      dup1\n      calldatasize\n      sub\n      dup2\n      add\n      swap1\n      tag_58\n      swap2\n      swap1\n      tag_54\n      jump\t// in\n    tag_58:\n      tag_59\n      jump\t// in\n    tag_57:\n      stop\n        /* \"NFT-Contracts/contracts/market_pri/NewMarket.sol\":868:936  mapping(address => mapping(uint256 => uint256)) public nftSaleStatus */\n    tag_10:\n      callvalue\n      dup1\n      iszero\n      tag_60\n      jumpi\n      0x00\n      dup1\n      revert\n    tag_60:\n      pop\n      tag_61\n      0x04\n      dup1\n      calldatasize\n      sub\n      dup2\n      add\n      swap1\n      tag_62\n      swap2\n      swap1\n      tag_54\n      jump\t// in\n    tag_62:\n      tag_63\n      jump\t// in\n    tag_61:\n      mload(0x40)\n      tag_64\n      swap2\n      swap1\n      tag_65\n      jump\t// in\n    tag_64:\n      mload(0x40)\n      dup1\n      swap2\n      sub\n      swap1\n      return\n        /* \"NFT-Contracts/contracts/market_pri/NewMarket.sol\":7924:9059  function nftFixedSale(\r... */\n    tag_11:\n      callvalue\n      dup1\n      iszero\n      tag_66\n      jumpi\n      0x00\n      dup1\n      revert\n    tag_66:\n      pop\n      tag_67\n      0x04\n      dup1\n      calldatasize\n      sub\n      dup2\n      add\n      swap1\n      tag_68\n      swap2\n      swap1\n      tag_69\n      jump\t// in\n    tag_68:\n      tag_70\n      jump\t// in\n    tag_67:\n      stop\n        /* \"NFT-Contracts/contracts/market_pri/NewMarket.sol\":17928:18152  function getNftAuctionSaleDetails(\r... */\n    tag_12:\n      callvalue\n      dup1\n      iszero\n      tag_71\n      jumpi\n      0x00\n      dup1\n      revert\n    tag_71:\n      pop\n      tag_72\n      0x04\n      dup1\n      calldatasize\n      sub\n      dup2\n      add\n      swap1\n      tag_73\n      swap2\n      swap1\n      tag_54\n      jump\t// in\n    tag_73:\n      tag_74\n      jump\t// in\n    tag_72:\n      mload(0x40)\n      tag_75\n      swap2\n      swap1\n      tag_76\n      jump\t// in\n    tag_75:\n      mload(0x40)\n      dup1\n      swap2\n      sub\n      swap1\n      return\n        /* \"NFT-Contracts/contracts/market_pri/NewMarket.sol\":943:1044  mapping(address => mapping(uint256 => mapping(address => uint256)))\r... */\n    tag_13:\n      callvalue\n      dup1\n      iszero\n      tag_77\n      jumpi\n      0x00\n      dup1\n      revert\n    tag_77:\n      pop\n      tag_78\n      0x04\n      dup1\n      calldatasize\n      sub\n      dup2\n      add\n      swap1\n      tag_79\n      swap2\n      swap1\n      tag_80\n      jump\t// in\n    tag_79:\n      tag_81\n      jump\t// in\n    tag_78:\n      mload(0x40)\n      tag_82\n      swap2\n      swap1\n      tag_65\n      jump\t// in\n    tag_82:\n      mload(0x40)\n      dup1\n      swap2\n      sub\n      swap1\n      return\n        /* \"NFT-Contracts/contracts/market_pri/NewMarket.sol\":10536:10825  function Sell_AreveaToken(address _erc20_contract, address seller, uint256 _amount) public returns (bool){\r... */\n    tag_14:\n      callvalue\n      dup1\n      iszero\n      tag_83\n      jumpi\n      0x00\n      dup1\n      revert\n    tag_83:\n      pop\n      tag_84\n      0x04\n      dup1\n      calldatasize\n      sub\n      dup2\n      add\n      swap1\n      tag_85\n      swap2\n      swap1\n      tag_29\n      jump\t// in\n    tag_85:\n      tag_86\n      jump\t// in\n    tag_84:\n      mload(0x40)\n      tag_87\n      swap2\n      swap1\n      tag_32\n      jump\t// in\n    tag_87:\n      mload(0x40)\n      dup1\n      swap2\n      sub\n      swap1\n      return\n        /* \"NFT-Contracts/contracts/market_pri/NewMarket.sol\":15619:16248  function _cancelAuctionSale(address _nftContractAddress, uint256 _tokenId)\r... */\n    tag_15:\n      callvalue\n      dup1\n      iszero\n      tag_88\n      jumpi\n      0x00\n      dup1\n      revert\n    tag_88:\n      pop\n      tag_89\n      0x04\n      dup1\n      calldatasize\n      sub\n      dup2\n      add\n      swap1\n      tag_90\n      swap2\n      swap1\n      tag_54\n      jump\t// in\n    tag_90:\n      tag_91\n      jump\t// in\n    tag_89:\n      stop\n        /* \"NFT-Contracts/contracts/market_pri/NewMarket.sol\":18275:18494  function getFixedSale(address _nftContractAddress, uint256 _tokenId)\r... */\n    tag_16:\n      callvalue\n      dup1\n      iszero\n      tag_92\n      jumpi\n      0x00\n      dup1\n      revert\n    tag_92:\n      pop\n      tag_93\n      0x04\n      dup1\n      calldatasize\n      sub\n      dup2\n      add\n      swap1\n      tag_94\n      swap2\n      swap1\n      tag_54\n      jump\t// in\n    tag_94:\n      tag_95\n      jump\t// in\n    tag_93:\n      mload(0x40)\n      tag_96\n      swap2\n      swap1\n      tag_97\n      jump\t// in\n    tag_96:\n      mload(0x40)\n      dup1\n      swap2\n      sub\n      swap1\n      return\n        /* \"NFT-Contracts/contracts/market_pri/NewMarket.sol\":18160:18267  function getFixedSaleNFT() external view returns (SaleInfo[] memory) {\r... */\n    tag_17:\n      callvalue\n      dup1\n      iszero\n      tag_98\n      jumpi\n      0x00\n      dup1\n      revert\n    tag_98:\n      pop\n      tag_99\n      tag_100\n      jump\t// in\n    tag_99:\n      mload(0x40)\n      tag_101\n      swap2\n      swap1\n      tag_102\n      jump\t// in\n    tag_101:\n      mload(0x40)\n      dup1\n      swap2\n      sub\n      swap1\n      return\n        /* \"NFT-Contracts/contracts/market_pri/NewMarket.sol\":10839:11978  function buyFromFixedSale(\r... */\n    tag_18:\n      tag_103\n      0x04\n      dup1\n      calldatasize\n      sub\n      dup2\n      add\n      swap1\n      tag_104\n      swap2\n      swap1\n      tag_42\n      jump\t// in\n    tag_104:\n      tag_105\n      jump\t// in\n    tag_103:\n      stop\n        /* \"NFT-Contracts/contracts/market_pri/NewMarket.sol\":12013:12904  function createNftAuctionSale(\r... */\n    tag_19:\n      callvalue\n      dup1\n      iszero\n      tag_106\n      jumpi\n      0x00\n      dup1\n      revert\n    tag_106:\n      pop\n      tag_107\n      0x04\n      dup1\n      calldatasize\n      sub\n      dup2\n      add\n      swap1\n      tag_108\n      swap2\n      swap1\n      tag_109\n      jump\t// in\n    tag_108:\n      tag_110\n      jump\t// in\n    tag_107:\n      stop\n        /* \"NFT-Contracts/contracts/market_pri/NewMarket.sol\":9067:9653  function cancelFixedsale(address _nftContractAddress, uint256 _tokenId)\r... */\n    tag_20:\n      callvalue\n      dup1\n      iszero\n      tag_111\n      jumpi\n      0x00\n      dup1\n      revert\n    tag_111:\n      pop\n      tag_112\n      0x04\n      dup1\n      calldatasize\n      sub\n      dup2\n      add\n      swap1\n      tag_113\n      swap2\n      swap1\n      tag_54\n      jump\t// in\n    tag_113:\n      tag_114\n      jump\t// in\n    tag_112:\n      stop\n        /* \"NFT-Contracts/contracts/market_pri/NewMarket.sol\":10246:10530  function buyAreveaToken(address _erc20_contract, address _buyer, uint256 _amount) public returns (bool){\r... */\n    tag_30:\n        /* \"NFT-Contracts/contracts/market_pri/NewMarket.sol\":10344:10348  bool */\n      0x00\n        /* \"NFT-Contracts/contracts/market_pri/NewMarket.sol\":10358:10381  address  ERC20_contract */\n      dup1\n        /* \"NFT-Contracts/contracts/market_pri/NewMarket.sol\":10383:10398  _erc20_contract */\n      dup5\n        /* \"NFT-Contracts/contracts/market_pri/NewMarket.sol\":10358:10398  address  ERC20_contract= _erc20_contract */\n      swap1\n      pop\n        /* \"NFT-Contracts/contracts/market_pri/NewMarket.sol\":10414:10428  ERC20_contract */\n      dup1\n        /* \"NFT-Contracts/contracts/market_pri/NewMarket.sol\":10407:10442  IERC20(ERC20_contract).transferFrom */\n      0xffffffffffffffffffffffffffffffffffffffff\n      and\n      0x23b872dd\n        /* \"NFT-Contracts/contracts/market_pri/NewMarket.sol\":10443:10485  0x2258c5b9C82ff0Fa923756ED3FD2aCb5616dF57c */\n      0x2258c5b9c82ff0fa923756ed3fd2acb5616df57c\n        /* \"NFT-Contracts/contracts/market_pri/NewMarket.sol\":10486:10492  _buyer */\n      dup7\n        /* \"NFT-Contracts/contracts/market_pri/NewMarket.sol\":10494:10501  _amount */\n      dup7\n        /* \"NFT-Contracts/contracts/market_pri/NewMarket.sol\":10407:10502  IERC20(ERC20_contract).transferFrom(0x2258c5b9C82ff0Fa923756ED3FD2aCb5616dF57c,_buyer, _amount) */\n      mload(0x40)\n      dup5\n      0xffffffff\n      and\n      0xe0\n      shl\n      dup2\n      mstore\n      0x04\n      add\n      tag_116\n      swap4\n      swap3\n      swap2\n      swap1\n      tag_117\n      jump\t// in\n    tag_116:\n      0x20\n      mload(0x40)\n      dup1\n      dup4\n      sub\n      dup2\n      0x00\n      dup8\n      dup1\n      extcodesize\n      iszero\n      dup1\n      iszero\n      tag_118\n      jumpi\n      0x00\n      dup1\n      revert\n    tag_118:\n      pop\n      gas\n      call\n      iszero\n      dup1\n      iszero\n      tag_120\n      jumpi\n      returndatasize\n      0x00\n      dup1\n      returndatacopy\n      revert(0x00, returndatasize)\n    tag_120:\n      pop\n      pop\n      pop\n      pop\n      mload(0x40)\n      returndatasize\n      not(0x1f)\n      0x1f\n      dup3\n      add\n      and\n      dup3\n      add\n      dup1\n      0x40\n      mstore\n      pop\n      dup2\n      add\n      swap1\n      tag_121\n      swap2\n      swap1\n      tag_122\n      jump\t// in\n    tag_121:\n      pop\n        /* \"NFT-Contracts/contracts/market_pri/NewMarket.sol\":10516:10520  true */\n      0x01\n        /* \"NFT-Contracts/contracts/market_pri/NewMarket.sol\":10509:10521  return(true) */\n      swap2\n      pop\n      pop\n        /* \"NFT-Contracts/contracts/market_pri/NewMarket.sol\":10246:10530  function buyAreveaToken(address _erc20_contract, address _buyer, uint256 _amount) public returns (bool){\r... */\n      swap4\n      swap3\n      pop\n      pop\n      pop\n      jump\t// out\n        /* \"NFT-Contracts/contracts/market_pri/NewMarket.sol\":18502:18717  function onERC721Received(\r... */\n    tag_37:\n        /* \"NFT-Contracts/contracts/market_pri/NewMarket.sol\":18642:18648  bytes4 */\n      0x00\n        /* \"NFT-Contracts/contracts/market_pri/NewMarket.sol\":18668:18709  IERC721Receiver.onERC721Received.selector */\n      shl(0xe0, 0x150b7a02)\n        /* \"NFT-Contracts/contracts/market_pri/NewMarket.sol\":18661:18709  return IERC721Receiver.onERC721Received.selector */\n      swap1\n      pop\n        /* \"NFT-Contracts/contracts/market_pri/NewMarket.sol\":18502:18717  function onERC721Received(\r... */\n      swap6\n      swap5\n      pop\n      pop\n      pop\n      pop\n      pop\n      jump\t// out\n        /* \"NFT-Contracts/contracts/market_pri/NewMarket.sol\":12912:14087  function makeBid(\r... */\n    tag_43:\n        /* \"NFT-Contracts/contracts/market_pri/NewMarket.sol\":13092:13111  _nftContractAddress */\n      dup3\n        /* \"NFT-Contracts/contracts/market_pri/NewMarket.sol\":13113:13121  _tokenId */\n      dup3\n        /* \"NFT-Contracts/contracts/market_pri/NewMarket.sol\":3599:3600  2 */\n      0x02\n        /* \"NFT-Contracts/contracts/market_pri/NewMarket.sol\":3551:3564  nftSaleStatus */\n      dup1\n        /* \"NFT-Contracts/contracts/market_pri/NewMarket.sol\":3551:3585  nftSaleStatus[_nftContractAddress] */\n      0x00\n        /* \"NFT-Contracts/contracts/market_pri/NewMarket.sol\":3565:3584  _nftContractAddress */\n      dup5\n        /* \"NFT-Contracts/contracts/market_pri/NewMarket.sol\":3551:3585  nftSaleStatus[_nftContractAddress] */\n      0xffffffffffffffffffffffffffffffffffffffff\n      and\n      0xffffffffffffffffffffffffffffffffffffffff\n      and\n      dup2\n      mstore\n      0x20\n      add\n      swap1\n      dup2\n      mstore\n      0x20\n      add\n      0x00\n      keccak256\n        /* \"NFT-Contracts/contracts/market_pri/NewMarket.sol\":3551:3595  nftSaleStatus[_nftContractAddress][_tokenId] */\n      0x00\n        /* \"NFT-Contracts/contracts/market_pri/NewMarket.sol\":3586:3594  _tokenId */\n      dup4\n        /* \"NFT-Contracts/contracts/market_pri/NewMarket.sol\":3551:3595  nftSaleStatus[_nftContractAddress][_tokenId] */\n      dup2\n      mstore\n      0x20\n      add\n      swap1\n      dup2\n      mstore\n      0x20\n      add\n      0x00\n      keccak256\n      sload\n        /* \"NFT-Contracts/contracts/market_pri/NewMarket.sol\":3551:3600  nftSaleStatus[_nftContractAddress][_tokenId] == 2 */\n      eq\n        /* \"NFT-Contracts/contracts/market_pri/NewMarket.sol\":3529:3651  require(\r... */\n      tag_125\n      jumpi\n      mload(0x40)\n      0x08c379a000000000000000000000000000000000000000000000000000000000\n      dup2\n      mstore\n      0x04\n      add\n      tag_126\n      swap1\n      tag_127\n      jump\t// in\n    tag_126:\n      mload(0x40)\n      dup1\n      swap2\n      sub\n      swap1\n      revert\n    tag_125:\n        /* \"NFT-Contracts/contracts/market_pri/NewMarket.sol\":13149:13168  _nftContractAddress */\n      dup5\n        /* \"NFT-Contracts/contracts/market_pri/NewMarket.sol\":13170:13178  _tokenId */\n      dup5\n        /* \"NFT-Contracts/contracts/market_pri/NewMarket.sol\":5768:5790  nftContractAuctionSale */\n      0x01\n        /* \"NFT-Contracts/contracts/market_pri/NewMarket.sol\":5768:5811  nftContractAuctionSale[_nftContractAddress] */\n      0x00\n        /* \"NFT-Contracts/contracts/market_pri/NewMarket.sol\":5791:5810  _nftContractAddress */\n      dup4\n        /* \"NFT-Contracts/contracts/market_pri/NewMarket.sol\":5768:5811  nftContractAuctionSale[_nftContractAddress] */\n      0xffffffffffffffffffffffffffffffffffffffff\n      and\n      0xffffffffffffffffffffffffffffffffffffffff\n      and\n      dup2\n      mstore\n      0x20\n      add\n      swap1\n      dup2\n      mstore\n      0x20\n      add\n      0x00\n      keccak256\n        /* \"NFT-Contracts/contracts/market_pri/NewMarket.sol\":5768:5821  nftContractAuctionSale[_nftContractAddress][_tokenId] */\n      0x00\n        /* \"NFT-Contracts/contracts/market_pri/NewMarket.sol\":5812:5820  _tokenId */\n      dup3\n        /* \"NFT-Contracts/contracts/market_pri/NewMarket.sol\":5768:5821  nftContractAuctionSale[_nftContractAddress][_tokenId] */\n      dup2\n      mstore\n      0x20\n      add\n      swap1\n      dup2\n      mstore\n      0x20\n      add\n      0x00\n      keccak256\n        /* \"NFT-Contracts/contracts/market_pri/NewMarket.sol\":5768:5854  nftContractAuctionSale[_nftContractAddress][_tokenId]\r... */\n      0x01\n      add\n      sload\n        /* \"NFT-Contracts/contracts/market_pri/NewMarket.sol\":5733:5748  block.timestamp */\n      timestamp\n        /* \"NFT-Contracts/contracts/market_pri/NewMarket.sol\":5733:5854  block.timestamp <\r... */\n      lt\n        /* \"NFT-Contracts/contracts/market_pri/NewMarket.sol\":5711:5893  require(\r... */\n      tag_129\n      jumpi\n      mload(0x40)\n      0x08c379a000000000000000000000000000000000000000000000000000000000\n      dup2\n      mstore\n      0x04\n      add\n      tag_130\n      swap1\n      tag_131\n      jump\t// in\n    tag_130:\n      mload(0x40)\n      dup1\n      swap2\n      sub\n      swap1\n      revert\n    tag_129:\n        /* \"NFT-Contracts/contracts/market_pri/NewMarket.sol\":13210:13219  _bidPrice */\n      dup5\n        /* \"NFT-Contracts/contracts/market_pri/NewMarket.sol\":7848:7849  0 */\n      0x00\n        /* \"NFT-Contracts/contracts/market_pri/NewMarket.sol\":7839:7845  _price */\n      dup2\n        /* \"NFT-Contracts/contracts/market_pri/NewMarket.sol\":7839:7849  _price > 0 */\n      gt\n        /* \"NFT-Contracts/contracts/market_pri/NewMarket.sol\":7831:7871  require(_price > 0, \"Price cannot be 0\") */\n      tag_133\n      jumpi\n      mload(0x40)\n      0x08c379a000000000000000000000000000000000000000000000000000000000\n      dup2\n      mstore\n      0x04\n      add\n      tag_134\n      swap1\n      tag_135\n      jump\t// in\n    tag_134:\n      mload(0x40)\n      dup1\n      swap2\n      sub\n      swap1\n      revert\n    tag_133:\n        /* \"NFT-Contracts/contracts/market_pri/NewMarket.sol\":13274:13293  _nftContractAddress */\n      dup8\n        /* \"NFT-Contracts/contracts/market_pri/NewMarket.sol\":13308:13316  _tokenId */\n      dup8\n        /* \"NFT-Contracts/contracts/market_pri/NewMarket.sol\":13331:13340  msg.value */\n      callvalue\n        /* \"NFT-Contracts/contracts/market_pri/NewMarket.sol\":13355:13364  _bidPrice */\n      dup9\n        /* \"NFT-Contracts/contracts/market_pri/NewMarket.sol\":5089:5090  0 */\n      0x00\n        /* \"NFT-Contracts/contracts/market_pri/NewMarket.sol\":5005:5091  nftContractAuctionSale[_nftContractAddress][_tokenId].erc20 ==\r... */\n      0xffffffffffffffffffffffffffffffffffffffff\n      and\n        /* \"NFT-Contracts/contracts/market_pri/NewMarket.sol\":5005:5027  nftContractAuctionSale */\n      0x01\n        /* \"NFT-Contracts/contracts/market_pri/NewMarket.sol\":5005:5048  nftContractAuctionSale[_nftContractAddress] */\n      0x00\n        /* \"NFT-Contracts/contracts/market_pri/NewMarket.sol\":5028:5047  _nftContractAddress */\n      dup7\n        /* \"NFT-Contracts/contracts/market_pri/NewMarket.sol\":5005:5048  nftContractAuctionSale[_nftContractAddress] */\n      0xffffffffffffffffffffffffffffffffffffffff\n      and\n      0xffffffffffffffffffffffffffffffffffffffff\n      and\n      dup2\n      mstore\n      0x20\n      add\n      swap1\n      dup2\n      mstore\n      0x20\n      add\n      0x00\n      keccak256\n        /* \"NFT-Contracts/contracts/market_pri/NewMarket.sol\":5005:5058  nftContractAuctionSale[_nftContractAddress][_tokenId] */\n      0x00\n        /* \"NFT-Contracts/contracts/market_pri/NewMarket.sol\":5049:5057  _tokenId */\n      dup6\n        /* \"NFT-Contracts/contracts/market_pri/NewMarket.sol\":5005:5058  nftContractAuctionSale[_nftContractAddress][_tokenId] */\n      dup2\n      mstore\n      0x20\n      add\n      swap1\n      dup2\n      mstore\n      0x20\n      add\n      0x00\n      keccak256\n        /* \"NFT-Contracts/contracts/market_pri/NewMarket.sol\":5005:5064  nftContractAuctionSale[_nftContractAddress][_tokenId].erc20 */\n      0x06\n      add\n      0x00\n      swap1\n      sload\n      swap1\n      0x0100\n      exp\n      swap1\n      div\n      0xffffffffffffffffffffffffffffffffffffffff\n      and\n        /* \"NFT-Contracts/contracts/market_pri/NewMarket.sol\":5005:5091  nftContractAuctionSale[_nftContractAddress][_tokenId].erc20 ==\r... */\n      0xffffffffffffffffffffffffffffffffffffffff\n      and\n      eq\n        /* \"NFT-Contracts/contracts/market_pri/NewMarket.sol\":4987:5598  if (\r... */\n      iszero\n      tag_137\n      jumpi\n        /* \"NFT-Contracts/contracts/market_pri/NewMarket.sol\":5177:5199  nftContractAuctionSale */\n      0x01\n        /* \"NFT-Contracts/contracts/market_pri/NewMarket.sol\":5177:5220  nftContractAuctionSale[_nftContractAddress] */\n      0x00\n        /* \"NFT-Contracts/contracts/market_pri/NewMarket.sol\":5200:5219  _nftContractAddress */\n      dup6\n        /* \"NFT-Contracts/contracts/market_pri/NewMarket.sol\":5177:5220  nftContractAuctionSale[_nftContractAddress] */\n      0xffffffffffffffffffffffffffffffffffffffff\n      and\n      0xffffffffffffffffffffffffffffffffffffffff\n      and\n      dup2\n      mstore\n      0x20\n      add\n      swap1\n      dup2\n      mstore\n      0x20\n      add\n      0x00\n      keccak256\n        /* \"NFT-Contracts/contracts/market_pri/NewMarket.sol\":5177:5230  nftContractAuctionSale[_nftContractAddress][_tokenId] */\n      0x00\n        /* \"NFT-Contracts/contracts/market_pri/NewMarket.sol\":5221:5229  _tokenId */\n      dup5\n        /* \"NFT-Contracts/contracts/market_pri/NewMarket.sol\":5177:5230  nftContractAuctionSale[_nftContractAddress][_tokenId] */\n      dup2\n      mstore\n      0x20\n      add\n      swap1\n      dup2\n      mstore\n      0x20\n      add\n      0x00\n      keccak256\n        /* \"NFT-Contracts/contracts/market_pri/NewMarket.sol\":5177:5270  nftContractAuctionSale[_nftContractAddress][_tokenId]\r... */\n      0x03\n      add\n      sload\n        /* \"NFT-Contracts/contracts/market_pri/NewMarket.sol\":5144:5153  _bidPrice */\n      dup3\n        /* \"NFT-Contracts/contracts/market_pri/NewMarket.sol\":5144:5270  _bidPrice >\r... */\n      gt\n        /* \"NFT-Contracts/contracts/market_pri/NewMarket.sol\":5118:5335  require(\r... */\n      tag_138\n      jumpi\n      mload(0x40)\n      0x08c379a000000000000000000000000000000000000000000000000000000000\n      dup2\n      mstore\n      0x04\n      add\n      tag_139\n      swap1\n      tag_140\n      jump\t// in\n    tag_139:\n      mload(0x40)\n      dup1\n      swap2\n      sub\n      swap1\n      revert\n    tag_138:\n        /* \"NFT-Contracts/contracts/market_pri/NewMarket.sol\":4987:5598  if (\r... */\n      jump(tag_141)\n    tag_137:\n        /* \"NFT-Contracts/contracts/market_pri/NewMarket.sol\":5428:5450  nftContractAuctionSale */\n      0x01\n        /* \"NFT-Contracts/contracts/market_pri/NewMarket.sol\":5428:5471  nftContractAuctionSale[_nftContractAddress] */\n      0x00\n        /* \"NFT-Contracts/contracts/market_pri/NewMarket.sol\":5451:5470  _nftContractAddress */\n      dup6\n        /* \"NFT-Contracts/contracts/market_pri/NewMarket.sol\":5428:5471  nftContractAuctionSale[_nftContractAddress] */\n      0xffffffffffffffffffffffffffffffffffffffff\n      and\n      0xffffffffffffffffffffffffffffffffffffffff\n      and\n      dup2\n      mstore\n      0x20\n      add\n      swap1\n      dup2\n      mstore\n      0x20\n      add\n      0x00\n      keccak256\n        /* \"NFT-Contracts/contracts/market_pri/NewMarket.sol\":5428:5481  nftContractAuctionSale[_nftContractAddress][_tokenId] */\n      0x00\n        /* \"NFT-Contracts/contracts/market_pri/NewMarket.sol\":5472:5480  _tokenId */\n      dup5\n        /* \"NFT-Contracts/contracts/market_pri/NewMarket.sol\":5428:5481  nftContractAuctionSale[_nftContractAddress][_tokenId] */\n      dup2\n      mstore\n      0x20\n      add\n      swap1\n      dup2\n      mstore\n      0x20\n      add\n      0x00\n      keccak256\n        /* \"NFT-Contracts/contracts/market_pri/NewMarket.sol\":5428:5521  nftContractAuctionSale[_nftContractAddress][_tokenId]\r... */\n      0x03\n      add\n      sload\n        /* \"NFT-Contracts/contracts/market_pri/NewMarket.sol\":5394:5404  _bidPrice1 */\n      dup2\n        /* \"NFT-Contracts/contracts/market_pri/NewMarket.sol\":5394:5521  _bidPrice1 >\r... */\n      gt\n        /* \"NFT-Contracts/contracts/market_pri/NewMarket.sol\":5368:5586  require(\r... */\n      tag_142\n      jumpi\n      mload(0x40)\n      0x08c379a000000000000000000000000000000000000000000000000000000000\n      dup2\n      mstore\n      0x04\n      add\n      tag_143\n      swap1\n      tag_140\n      jump\t// in\n    tag_143:\n      mload(0x40)\n      dup1\n      swap2\n      sub\n      swap1\n      revert\n    tag_142:\n        /* \"NFT-Contracts/contracts/market_pri/NewMarket.sol\":4987:5598  if (\r... */\n    tag_141:\n        /* \"NFT-Contracts/contracts/market_pri/NewMarket.sol\":13494:13495  0 */\n      0x00\n        /* \"NFT-Contracts/contracts/market_pri/NewMarket.sol\":13410:13496  nftContractAuctionSale[_nftContractAddress][_tokenId].erc20 !=\r... */\n      0xffffffffffffffffffffffffffffffffffffffff\n      and\n        /* \"NFT-Contracts/contracts/market_pri/NewMarket.sol\":13410:13432  nftContractAuctionSale */\n      0x01\n        /* \"NFT-Contracts/contracts/market_pri/NewMarket.sol\":13410:13453  nftContractAuctionSale[_nftContractAddress] */\n      0x00\n        /* \"NFT-Contracts/contracts/market_pri/NewMarket.sol\":13433:13452  _nftContractAddress */\n      dup15\n        /* \"NFT-Contracts/contracts/market_pri/NewMarket.sol\":13410:13453  nftContractAuctionSale[_nftContractAddress] */\n      0xffffffffffffffffffffffffffffffffffffffff\n      and\n      0xffffffffffffffffffffffffffffffffffffffff\n      and\n      dup2\n      mstore\n      0x20\n      add\n      swap1\n      dup2\n      mstore\n      0x20\n      add\n      0x00\n      keccak256\n        /* \"NFT-Contracts/contracts/market_pri/NewMarket.sol\":13410:13463  nftContractAuctionSale[_nftContractAddress][_tokenId] */\n      0x00\n        /* \"NFT-Contracts/contracts/market_pri/NewMarket.sol\":13454:13462  _tokenId */\n      dup14\n        /* \"NFT-Contracts/contracts/market_pri/NewMarket.sol\":13410:13463  nftContractAuctionSale[_nftContractAddress][_tokenId] */\n      dup2\n      mstore\n      0x20\n      add\n      swap1\n      dup2\n      mstore\n      0x20\n      add\n      0x00\n      keccak256\n        /* \"NFT-Contracts/contracts/market_pri/NewMarket.sol\":13410:13469  nftContractAuctionSale[_nftContractAddress][_tokenId].erc20 */\n      0x06\n      add\n      0x00\n      swap1\n      sload\n      swap1\n      0x0100\n      exp\n      swap1\n      div\n      0xffffffffffffffffffffffffffffffffffffffff\n      and\n        /* \"NFT-Contracts/contracts/market_pri/NewMarket.sol\":13410:13496  nftContractAuctionSale[_nftContractAddress][_tokenId].erc20 !=\r... */\n      0xffffffffffffffffffffffffffffffffffffffff\n      and\n      eq\n        /* \"NFT-Contracts/contracts/market_pri/NewMarket.sol\":13392:13674  if (\r... */\n      tag_145\n      jumpi\n        /* \"NFT-Contracts/contracts/market_pri/NewMarket.sol\":13523:13662  _bidAmountTransfer(\r... */\n      tag_146\n        /* \"NFT-Contracts/contracts/market_pri/NewMarket.sol\":13560:13569  _bidPrice */\n      dup11\n        /* \"NFT-Contracts/contracts/market_pri/NewMarket.sol\":13588:13610  nftContractAuctionSale */\n      0x01\n        /* \"NFT-Contracts/contracts/market_pri/NewMarket.sol\":13588:13631  nftContractAuctionSale[_nftContractAddress] */\n      0x00\n        /* \"NFT-Contracts/contracts/market_pri/NewMarket.sol\":13611:13630  _nftContractAddress */\n      dup16\n        /* \"NFT-Contracts/contracts/market_pri/NewMarket.sol\":13588:13631  nftContractAuctionSale[_nftContractAddress] */\n      0xffffffffffffffffffffffffffffffffffffffff\n      and\n      0xffffffffffffffffffffffffffffffffffffffff\n      and\n      dup2\n      mstore\n      0x20\n      add\n      swap1\n      dup2\n      mstore\n      0x20\n      add\n      0x00\n      keccak256\n        /* \"NFT-Contracts/contracts/market_pri/NewMarket.sol\":13588:13641  nftContractAuctionSale[_nftContractAddress][_tokenId] */\n      0x00\n        /* \"NFT-Contracts/contracts/market_pri/NewMarket.sol\":13632:13640  _tokenId */\n      dup15\n        /* \"NFT-Contracts/contracts/market_pri/NewMarket.sol\":13588:13641  nftContractAuctionSale[_nftContractAddress][_tokenId] */\n      dup2\n      mstore\n      0x20\n      add\n      swap1\n      dup2\n      mstore\n      0x20\n      add\n      0x00\n      keccak256\n        /* \"NFT-Contracts/contracts/market_pri/NewMarket.sol\":13588:13647  nftContractAuctionSale[_nftContractAddress][_tokenId].erc20 */\n      0x06\n      add\n      0x00\n      swap1\n      sload\n      swap1\n      0x0100\n      exp\n      swap1\n      div\n      0xffffffffffffffffffffffffffffffffffffffff\n      and\n        /* \"NFT-Contracts/contracts/market_pri/NewMarket.sol\":13523:13541  _bidAmountTransfer */\n      tag_147\n        /* \"NFT-Contracts/contracts/market_pri/NewMarket.sol\":13523:13662  _bidAmountTransfer(\r... */\n      jump\t// in\n    tag_146:\n        /* \"NFT-Contracts/contracts/market_pri/NewMarket.sol\":13392:13674  if (\r... */\n    tag_145:\n        /* \"NFT-Contracts/contracts/market_pri/NewMarket.sol\":13770:13779  _bidPrice */\n      dup10\n        /* \"NFT-Contracts/contracts/market_pri/NewMarket.sol\":13686:13708  nftContractAuctionSale */\n      0x01\n        /* \"NFT-Contracts/contracts/market_pri/NewMarket.sol\":13686:13729  nftContractAuctionSale[_nftContractAddress] */\n      0x00\n        /* \"NFT-Contracts/contracts/market_pri/NewMarket.sol\":13709:13728  _nftContractAddress */\n      dup15\n        /* \"NFT-Contracts/contracts/market_pri/NewMarket.sol\":13686:13729  nftContractAuctionSale[_nftContractAddress] */\n      0xffffffffffffffffffffffffffffffffffffffff\n      and\n      0xffffffffffffffffffffffffffffffffffffffff\n      and\n      dup2\n      mstore\n      0x20\n      add\n      swap1\n      dup2\n      mstore\n      0x20\n      add\n      0x00\n      keccak256\n        /* \"NFT-Contracts/contracts/market_pri/NewMarket.sol\":13686:13739  nftContractAuctionSale[_nftContractAddress][_tokenId] */\n      0x00\n        /* \"NFT-Contracts/contracts/market_pri/NewMarket.sol\":13730:13738  _tokenId */\n      dup14\n        /* \"NFT-Contracts/contracts/market_pri/NewMarket.sol\":13686:13739  nftContractAuctionSale[_nftContractAddress][_tokenId] */\n      dup2\n      mstore\n      0x20\n      add\n      swap1\n      dup2\n      mstore\n      0x20\n      add\n      0x00\n      keccak256\n        /* \"NFT-Contracts/contracts/market_pri/NewMarket.sol\":13686:13767  nftContractAuctionSale[_nftContractAddress][_tokenId]\r... */\n      0x03\n      add\n        /* \"NFT-Contracts/contracts/market_pri/NewMarket.sol\":13686:13779  nftContractAuctionSale[_nftContractAddress][_tokenId]\r... */\n      dup2\n      swap1\n      sstore\n      pop\n        /* \"NFT-Contracts/contracts/market_pri/NewMarket.sol\":13877:13887  msg.sender */\n      caller\n        /* \"NFT-Contracts/contracts/market_pri/NewMarket.sol\":13790:13812  nftContractAuctionSale */\n      0x01\n        /* \"NFT-Contracts/contracts/market_pri/NewMarket.sol\":13790:13833  nftContractAuctionSale[_nftContractAddress] */\n      0x00\n        /* \"NFT-Contracts/contracts/market_pri/NewMarket.sol\":13813:13832  _nftContractAddress */\n      dup15\n        /* \"NFT-Contracts/contracts/market_pri/NewMarket.sol\":13790:13833  nftContractAuctionSale[_nftContractAddress] */\n      0xffffffffffffffffffffffffffffffffffffffff\n      and\n      0xffffffffffffffffffffffffffffffffffffffff\n      and\n      dup2\n      mstore\n      0x20\n      add\n      swap1\n      dup2\n      mstore\n      0x20\n      add\n      0x00\n      keccak256\n        /* \"NFT-Contracts/contracts/market_pri/NewMarket.sol\":13790:13843  nftContractAuctionSale[_nftContractAddress][_tokenId] */\n      0x00\n        /* \"NFT-Contracts/contracts/market_pri/NewMarket.sol\":13834:13842  _tokenId */\n      dup14\n        /* \"NFT-Contracts/contracts/market_pri/NewMarket.sol\":13790:13843  nftContractAuctionSale[_nftContractAddress][_tokenId] */\n      dup2\n      mstore\n      0x20\n      add\n      swap1\n      dup2\n      mstore\n      0x20\n      add\n      0x00\n      keccak256\n        /* \"NFT-Contracts/contracts/market_pri/NewMarket.sol\":13790:13874  nftContractAuctionSale[_nftContractAddress][_tokenId]\r... */\n      0x04\n      add\n      0x00\n        /* \"NFT-Contracts/contracts/market_pri/NewMarket.sol\":13790:13887  nftContractAuctionSale[_nftContractAddress][_tokenId]\r... */\n      0x0100\n      exp\n      dup2\n      sload\n      dup2\n      0xffffffffffffffffffffffffffffffffffffffff\n      mul\n      not\n      and\n      swap1\n      dup4\n      0xffffffffffffffffffffffffffffffffffffffff\n      and\n      mul\n      or\n      swap1\n      sstore\n      pop\n        /* \"NFT-Contracts/contracts/market_pri/NewMarket.sol\":13987:13996  _bidPrice */\n      dup10\n        /* \"NFT-Contracts/contracts/market_pri/NewMarket.sol\":13900:13917  userBidPriceOnNFT */\n      0x03\n        /* \"NFT-Contracts/contracts/market_pri/NewMarket.sol\":13900:13938  userBidPriceOnNFT[_nftContractAddress] */\n      0x00\n        /* \"NFT-Contracts/contracts/market_pri/NewMarket.sol\":13918:13937  _nftContractAddress */\n      dup15\n        /* \"NFT-Contracts/contracts/market_pri/NewMarket.sol\":13900:13938  userBidPriceOnNFT[_nftContractAddress] */\n      0xffffffffffffffffffffffffffffffffffffffff\n      and\n      0xffffffffffffffffffffffffffffffffffffffff\n      and\n      dup2\n      mstore\n      0x20\n      add\n      swap1\n      dup2\n      mstore\n      0x20\n      add\n      0x00\n      keccak256\n        /* \"NFT-Contracts/contracts/market_pri/NewMarket.sol\":13900:13948  userBidPriceOnNFT[_nftContractAddress][_tokenId] */\n      0x00\n        /* \"NFT-Contracts/contracts/market_pri/NewMarket.sol\":13939:13947  _tokenId */\n      dup14\n        /* \"NFT-Contracts/contracts/market_pri/NewMarket.sol\":13900:13948  userBidPriceOnNFT[_nftContractAddress][_tokenId] */\n      dup2\n      mstore\n      0x20\n      add\n      swap1\n      dup2\n      mstore\n      0x20\n      add\n      0x00\n      keccak256\n        /* \"NFT-Contracts/contracts/market_pri/NewMarket.sol\":13900:13984  userBidPriceOnNFT[_nftContractAddress][_tokenId][\r... */\n      0x00\n        /* \"NFT-Contracts/contracts/market_pri/NewMarket.sol\":13963:13973  msg.sender */\n      caller\n        /* \"NFT-Contracts/contracts/market_pri/NewMarket.sol\":13900:13984  userBidPriceOnNFT[_nftContractAddress][_tokenId][\r... */\n      0xffffffffffffffffffffffffffffffffffffffff\n      and\n      0xffffffffffffffffffffffffffffffffffffffff\n      and\n      dup2\n      mstore\n      0x20\n      add\n      swap1\n      dup2\n      mstore\n      0x20\n      add\n      0x00\n      keccak256\n        /* \"NFT-Contracts/contracts/market_pri/NewMarket.sol\":13900:13996  userBidPriceOnNFT[_nftContractAddress][_tokenId][\r... */\n      dup2\n      swap1\n      sstore\n      pop\n        /* \"NFT-Contracts/contracts/market_pri/NewMarket.sol\":14014:14079  NftBidPrice(_nftContractAddress, _tokenId, _bidPrice, msg.sender) */\n      0xd56cb6210c78740462007b728932c802bc41b205ed5c8a98ab95421eaf054b22\n        /* \"NFT-Contracts/contracts/market_pri/NewMarket.sol\":14026:14045  _nftContractAddress */\n      dup13\n        /* \"NFT-Contracts/contracts/market_pri/NewMarket.sol\":14047:14055  _tokenId */\n      dup13\n        /* \"NFT-Contracts/contracts/market_pri/NewMarket.sol\":14057:14066  _bidPrice */\n      dup13\n        /* \"NFT-Contracts/contracts/market_pri/NewMarket.sol\":14068:14078  msg.sender */\n      caller\n        /* \"NFT-Contracts/contracts/market_pri/NewMarket.sol\":14014:14079  NftBidPrice(_nftContractAddress, _tokenId, _bidPrice, msg.sender) */\n      mload(0x40)\n      tag_148\n      swap5\n      swap4\n      swap3\n      swap2\n      swap1\n      tag_149\n      jump\t// in\n    tag_148:\n      mload(0x40)\n      dup1\n      swap2\n      sub\n      swap1\n      log1\n        /* \"NFT-Contracts/contracts/market_pri/NewMarket.sol\":7882:7883  _ */\n      pop\n      pop\n      pop\n      pop\n        /* \"NFT-Contracts/contracts/market_pri/NewMarket.sol\":5904:5905  _ */\n      pop\n        /* \"NFT-Contracts/contracts/market_pri/NewMarket.sol\":3662:3663  _ */\n      pop\n      pop\n        /* \"NFT-Contracts/contracts/market_pri/NewMarket.sol\":12912:14087  function makeBid(\r... */\n      pop\n      pop\n      pop\n      pop\n      pop\n      jump\t// out\n        /* \"NFT-Contracts/contracts/market_pri/NewMarket.sol\":14095:15611  function updateTheBidPrice(\r... */\n    tag_46:\n        /* \"NFT-Contracts/contracts/market_pri/NewMarket.sol\":14291:14310  _nftContractAddress */\n      dup3\n        /* \"NFT-Contracts/contracts/market_pri/NewMarket.sol\":14312:14320  _tokenId */\n      dup3\n        /* \"NFT-Contracts/contracts/market_pri/NewMarket.sol\":3599:3600  2 */\n      0x02\n        /* \"NFT-Contracts/contracts/market_pri/NewMarket.sol\":3551:3564  nftSaleStatus */\n      dup1\n        /* \"NFT-Contracts/contracts/market_pri/NewMarket.sol\":3551:3585  nftSaleStatus[_nftContractAddress] */\n      0x00\n        /* \"NFT-Contracts/contracts/market_pri/NewMarket.sol\":3565:3584  _nftContractAddress */\n      dup5\n        /* \"NFT-Contracts/contracts/market_pri/NewMarket.sol\":3551:3585  nftSaleStatus[_nftContractAddress] */\n      0xffffffffffffffffffffffffffffffffffffffff\n      and\n      0xffffffffffffffffffffffffffffffffffffffff\n      and\n      dup2\n      mstore\n      0x20\n      add\n      swap1\n      dup2\n      mstore\n      0x20\n      add\n      0x00\n      keccak256\n        /* \"NFT-Contracts/contracts/market_pri/NewMarket.sol\":3551:3595  nftSaleStatus[_nftContractAddress][_tokenId] */\n      0x00\n        /* \"NFT-Contracts/contracts/market_pri/NewMarket.sol\":3586:3594  _tokenId */\n      dup4\n        /* \"NFT-Contracts/contracts/market_pri/NewMarket.sol\":3551:3595  nftSaleStatus[_nftContractAddress][_tokenId] */\n      dup2\n      mstore\n      0x20\n      add\n      swap1\n      dup2\n      mstore\n      0x20\n      add\n      0x00\n      keccak256\n      sload\n        /* \"NFT-Contracts/contracts/market_pri/NewMarket.sol\":3551:3600  nftSaleStatus[_nftContractAddress][_tokenId] == 2 */\n      eq\n        /* \"NFT-Contracts/contracts/market_pri/NewMarket.sol\":3529:3651  require(\r... */\n      tag_151\n      jumpi\n      mload(0x40)\n      0x08c379a000000000000000000000000000000000000000000000000000000000\n      dup2\n      mstore\n      0x04\n      add\n      tag_152\n      swap1\n      tag_127\n      jump\t// in\n    tag_152:\n      mload(0x40)\n      dup1\n      swap2\n      sub\n      swap1\n      revert\n    tag_151:\n        /* \"NFT-Contracts/contracts/market_pri/NewMarket.sol\":14348:14367  _nftContractAddress */\n      dup5\n        /* \"NFT-Contracts/contracts/market_pri/NewMarket.sol\":14369:14377  _tokenId */\n      dup5\n        /* \"NFT-Contracts/contracts/market_pri/NewMarket.sol\":5768:5790  nftContractAuctionSale */\n      0x01\n        /* \"NFT-Contracts/contracts/market_pri/NewMarket.sol\":5768:5811  nftContractAuctionSale[_nftContractAddress] */\n      0x00\n        /* \"NFT-Contracts/contracts/market_pri/NewMarket.sol\":5791:5810  _nftContractAddress */\n      dup4\n        /* \"NFT-Contracts/contracts/market_pri/NewMarket.sol\":5768:5811  nftContractAuctionSale[_nftContractAddress] */\n      0xffffffffffffffffffffffffffffffffffffffff\n      and\n      0xffffffffffffffffffffffffffffffffffffffff\n      and\n      dup2\n      mstore\n      0x20\n      add\n      swap1\n      dup2\n      mstore\n      0x20\n      add\n      0x00\n      keccak256\n        /* \"NFT-Contracts/contracts/market_pri/NewMarket.sol\":5768:5821  nftContractAuctionSale[_nftContractAddress][_tokenId] */\n      0x00\n        /* \"NFT-Contracts/contracts/market_pri/NewMarket.sol\":5812:5820  _tokenId */\n      dup3\n        /* \"NFT-Contracts/contracts/market_pri/NewMarket.sol\":5768:5821  nftContractAuctionSale[_nftContractAddress][_tokenId] */\n      dup2\n      mstore\n      0x20\n      add\n      swap1\n      dup2\n      mstore\n      0x20\n      add\n      0x00\n      keccak256\n        /* \"NFT-Contracts/contracts/market_pri/NewMarket.sol\":5768:5854  nftContractAuctionSale[_nftContractAddress][_tokenId]\r... */\n      0x01\n      add\n      sload\n        /* \"NFT-Contracts/contracts/market_pri/NewMarket.sol\":5733:5748  block.timestamp */\n      timestamp\n        /* \"NFT-Contracts/contracts/market_pri/NewMarket.sol\":5733:5854  block.timestamp <\r... */\n      lt\n        /* \"NFT-Contracts/contracts/market_pri/NewMarket.sol\":5711:5893  require(\r... */\n      tag_154\n      jumpi\n      mload(0x40)\n      0x08c379a000000000000000000000000000000000000000000000000000000000\n      dup2\n      mstore\n      0x04\n      add\n      tag_155\n      swap1\n      tag_131\n      jump\t// in\n    tag_155:\n      mload(0x40)\n      dup1\n      swap2\n      sub\n      swap1\n      revert\n    tag_154:\n        /* \"NFT-Contracts/contracts/market_pri/NewMarket.sol\":14409:14418  msg.value */\n      callvalue\n        /* \"NFT-Contracts/contracts/market_pri/NewMarket.sol\":7848:7849  0 */\n      0x00\n        /* \"NFT-Contracts/contracts/market_pri/NewMarket.sol\":7839:7845  _price */\n      dup2\n        /* \"NFT-Contracts/contracts/market_pri/NewMarket.sol\":7839:7849  _price > 0 */\n      gt\n        /* \"NFT-Contracts/contracts/market_pri/NewMarket.sol\":7831:7871  require(_price > 0, \"Price cannot be 0\") */\n      tag_157\n      jumpi\n      mload(0x40)\n      0x08c379a000000000000000000000000000000000000000000000000000000000\n      dup2\n      mstore\n      0x04\n      add\n      tag_158\n      swap1\n      tag_135\n      jump\t// in\n    tag_158:\n      mload(0x40)\n      dup1\n      swap2\n      sub\n      swap1\n      revert\n    tag_157:\n        /* \"NFT-Contracts/contracts/market_pri/NewMarket.sol\":14474:14493  _nftContractAddress */\n      dup8\n        /* \"NFT-Contracts/contracts/market_pri/NewMarket.sol\":14508:14516  _tokenId */\n      dup8\n        /* \"NFT-Contracts/contracts/market_pri/NewMarket.sol\":14531:14540  msg.value */\n      callvalue\n        /* \"NFT-Contracts/contracts/market_pri/NewMarket.sol\":14555:14570  _updateBidPrice */\n      dup9\n        /* \"NFT-Contracts/contracts/market_pri/NewMarket.sol\":6412:6434  uint256 _finalBidPrice */\n      0x00\n        /* \"NFT-Contracts/contracts/market_pri/NewMarket.sol\":6547:6548  0 */\n      dup1\n        /* \"NFT-Contracts/contracts/market_pri/NewMarket.sol\":6463:6549  nftContractAuctionSale[_nftContractAddress][_tokenId].erc20 ==\r... */\n      0xffffffffffffffffffffffffffffffffffffffff\n      and\n        /* \"NFT-Contracts/contracts/market_pri/NewMarket.sol\":6463:6485  nftContractAuctionSale */\n      0x01\n        /* \"NFT-Contracts/contracts/market_pri/NewMarket.sol\":6463:6506  nftContractAuctionSale[_nftContractAddress] */\n      0x00\n        /* \"NFT-Contracts/contracts/market_pri/NewMarket.sol\":6486:6505  _nftContractAddress */\n      dup8\n        /* \"NFT-Contracts/contracts/market_pri/NewMarket.sol\":6463:6506  nftContractAuctionSale[_nftContractAddress] */\n      0xffffffffffffffffffffffffffffffffffffffff\n      and\n      0xffffffffffffffffffffffffffffffffffffffff\n      and\n      dup2\n      mstore\n      0x20\n      add\n      swap1\n      dup2\n      mstore\n      0x20\n      add\n      0x00\n      keccak256\n        /* \"NFT-Contracts/contracts/market_pri/NewMarket.sol\":6463:6516  nftContractAuctionSale[_nftContractAddress][_tokenId] */\n      0x00\n        /* \"NFT-Contracts/contracts/market_pri/NewMarket.sol\":6507:6515  _tokenId */\n      dup7\n        /* \"NFT-Contracts/contracts/market_pri/NewMarket.sol\":6463:6516  nftContractAuctionSale[_nftContractAddress][_tokenId] */\n      dup2\n      mstore\n      0x20\n      add\n      swap1\n      dup2\n      mstore\n      0x20\n      add\n      0x00\n      keccak256\n        /* \"NFT-Contracts/contracts/market_pri/NewMarket.sol\":6463:6522  nftContractAuctionSale[_nftContractAddress][_tokenId].erc20 */\n      0x06\n      add\n      0x00\n      swap1\n      sload\n      swap1\n      0x0100\n      exp\n      swap1\n      div\n      0xffffffffffffffffffffffffffffffffffffffff\n      and\n        /* \"NFT-Contracts/contracts/market_pri/NewMarket.sol\":6463:6549  nftContractAuctionSale[_nftContractAddress][_tokenId].erc20 ==\r... */\n      0xffffffffffffffffffffffffffffffffffffffff\n      and\n      eq\n        /* \"NFT-Contracts/contracts/market_pri/NewMarket.sol\":6445:6882  if (\r... */\n      iszero\n      tag_160\n      jumpi\n        /* \"NFT-Contracts/contracts/market_pri/NewMarket.sol\":6593:6706  userBidPriceOnNFT[_nftContractAddress][_tokenId][\r... */\n      tag_161\n        /* \"NFT-Contracts/contracts/market_pri/NewMarket.sol\":6690:6705  _updateBidPrice */\n      dup4\n        /* \"NFT-Contracts/contracts/market_pri/NewMarket.sol\":6593:6610  userBidPriceOnNFT */\n      0x03\n        /* \"NFT-Contracts/contracts/market_pri/NewMarket.sol\":6593:6631  userBidPriceOnNFT[_nftContractAddress] */\n      0x00\n        /* \"NFT-Contracts/contracts/market_pri/NewMarket.sol\":6611:6630  _nftContractAddress */\n      dup9\n        /* \"NFT-Contracts/contracts/market_pri/NewMarket.sol\":6593:6631  userBidPriceOnNFT[_nftContractAddress] */\n      0xffffffffffffffffffffffffffffffffffffffff\n      and\n      0xffffffffffffffffffffffffffffffffffffffff\n      and\n      dup2\n      mstore\n      0x20\n      add\n      swap1\n      dup2\n      mstore\n      0x20\n      add\n      0x00\n      keccak256\n        /* \"NFT-Contracts/contracts/market_pri/NewMarket.sol\":6593:6641  userBidPriceOnNFT[_nftContractAddress][_tokenId] */\n      0x00\n        /* \"NFT-Contracts/contracts/market_pri/NewMarket.sol\":6632:6640  _tokenId */\n      dup8\n        /* \"NFT-Contracts/contracts/market_pri/NewMarket.sol\":6593:6641  userBidPriceOnNFT[_nftContractAddress][_tokenId] */\n      dup2\n      mstore\n      0x20\n      add\n      swap1\n      dup2\n      mstore\n      0x20\n      add\n      0x00\n      keccak256\n        /* \"NFT-Contracts/contracts/market_pri/NewMarket.sol\":6593:6685  userBidPriceOnNFT[_nftContractAddress][_tokenId][\r... */\n      0x00\n        /* \"NFT-Contracts/contracts/market_pri/NewMarket.sol\":6660:6670  msg.sender */\n      caller\n        /* \"NFT-Contracts/contracts/market_pri/NewMarket.sol\":6593:6685  userBidPriceOnNFT[_nftContractAddress][_tokenId][\r... */\n      0xffffffffffffffffffffffffffffffffffffffff\n      and\n      0xffffffffffffffffffffffffffffffffffffffff\n      and\n      dup2\n      mstore\n      0x20\n      add\n      swap1\n      dup2\n      mstore\n      0x20\n      add\n      0x00\n      keccak256\n      sload\n        /* \"NFT-Contracts/contracts/market_pri/NewMarket.sol\":6593:6689  userBidPriceOnNFT[_nftContractAddress][_tokenId][\r... */\n      tag_162\n      swap1\n        /* \"NFT-Contracts/contracts/market_pri/NewMarket.sol\":6593:6706  userBidPriceOnNFT[_nftContractAddress][_tokenId][\r... */\n      swap2\n      swap1\n      0xffffffff\n      and\n      jump\t// in\n    tag_161:\n        /* \"NFT-Contracts/contracts/market_pri/NewMarket.sol\":6576:6706  _finalBidPrice = userBidPriceOnNFT[_nftContractAddress][_tokenId][\r... */\n      swap1\n      pop\n        /* \"NFT-Contracts/contracts/market_pri/NewMarket.sol\":6445:6882  if (\r... */\n      jump(tag_163)\n    tag_160:\n        /* \"NFT-Contracts/contracts/market_pri/NewMarket.sol\":6756:6870  userBidPriceOnNFT[_nftContractAddress][_tokenId][\r... */\n      tag_164\n        /* \"NFT-Contracts/contracts/market_pri/NewMarket.sol\":6853:6869  _updateBidPrice1 */\n      dup3\n        /* \"NFT-Contracts/contracts/market_pri/NewMarket.sol\":6756:6773  userBidPriceOnNFT */\n      0x03\n        /* \"NFT-Contracts/contracts/market_pri/NewMarket.sol\":6756:6794  userBidPriceOnNFT[_nftContractAddress] */\n      0x00\n        /* \"NFT-Contracts/contracts/market_pri/NewMarket.sol\":6774:6793  _nftContractAddress */\n      dup9\n        /* \"NFT-Contracts/contracts/market_pri/NewMarket.sol\":6756:6794  userBidPriceOnNFT[_nftContractAddress] */\n      0xffffffffffffffffffffffffffffffffffffffff\n      and\n      0xffffffffffffffffffffffffffffffffffffffff\n      and\n      dup2\n      mstore\n      0x20\n      add\n      swap1\n      dup2\n      mstore\n      0x20\n      add\n      0x00\n      keccak256\n        /* \"NFT-Contracts/contracts/market_pri/NewMarket.sol\":6756:6804  userBidPriceOnNFT[_nftContractAddress][_tokenId] */\n      0x00\n        /* \"NFT-Contracts/contracts/market_pri/NewMarket.sol\":6795:6803  _tokenId */\n      dup8\n        /* \"NFT-Contracts/contracts/market_pri/NewMarket.sol\":6756:6804  userBidPriceOnNFT[_nftContractAddress][_tokenId] */\n      dup2\n      mstore\n      0x20\n      add\n      swap1\n      dup2\n      mstore\n      0x20\n      add\n      0x00\n      keccak256\n        /* \"NFT-Contracts/contracts/market_pri/NewMarket.sol\":6756:6848  userBidPriceOnNFT[_nftContractAddress][_tokenId][\r... */\n      0x00\n        /* \"NFT-Contracts/contracts/market_pri/NewMarket.sol\":6823:6833  msg.sender */\n      caller\n        /* \"NFT-Contracts/contracts/market_pri/NewMarket.sol\":6756:6848  userBidPriceOnNFT[_nftContractAddress][_tokenId][\r... */\n      0xffffffffffffffffffffffffffffffffffffffff\n      and\n      0xffffffffffffffffffffffffffffffffffffffff\n      and\n      dup2\n      mstore\n      0x20\n      add\n      swap1\n      dup2\n      mstore\n      0x20\n      add\n      0x00\n      keccak256\n      sload\n        /* \"NFT-Contracts/contracts/market_pri/NewMarket.sol\":6756:6852  userBidPriceOnNFT[_nftContractAddress][_tokenId][\r... */\n      tag_162\n      swap1\n        /* \"NFT-Contracts/contracts/market_pri/NewMarket.sol\":6756:6870  userBidPriceOnNFT[_nftContractAddress][_tokenId][\r... */\n      swap2\n      swap1\n      0xffffffff\n      and\n      jump\t// in\n    tag_164:\n        /* \"NFT-Contracts/contracts/market_pri/NewMarket.sol\":6739:6870  _finalBidPrice = userBidPriceOnNFT[_nftContractAddress][_tokenId][\r... */\n      swap1\n      pop\n        /* \"NFT-Contracts/contracts/market_pri/NewMarket.sol\":6445:6882  if (\r... */\n    tag_163:\n        /* \"NFT-Contracts/contracts/market_pri/NewMarket.sol\":6948:6970  nftContractAuctionSale */\n      0x01\n        /* \"NFT-Contracts/contracts/market_pri/NewMarket.sol\":6948:6991  nftContractAuctionSale[_nftContractAddress] */\n      0x00\n        /* \"NFT-Contracts/contracts/market_pri/NewMarket.sol\":6971:6990  _nftContractAddress */\n      dup7\n        /* \"NFT-Contracts/contracts/market_pri/NewMarket.sol\":6948:6991  nftContractAuctionSale[_nftContractAddress] */\n      0xffffffffffffffffffffffffffffffffffffffff\n      and\n      0xffffffffffffffffffffffffffffffffffffffff\n      and\n      dup2\n      mstore\n      0x20\n      add\n      swap1\n      dup2\n      mstore\n      0x20\n      add\n      0x00\n      keccak256\n        /* \"NFT-Contracts/contracts/market_pri/NewMarket.sol\":6948:7001  nftContractAuctionSale[_nftContractAddress][_tokenId] */\n      0x00\n        /* \"NFT-Contracts/contracts/market_pri/NewMarket.sol\":6992:7000  _tokenId */\n      dup6\n        /* \"NFT-Contracts/contracts/market_pri/NewMarket.sol\":6948:7001  nftContractAuctionSale[_nftContractAddress][_tokenId] */\n      dup2\n      mstore\n      0x20\n      add\n      swap1\n      dup2\n      mstore\n      0x20\n      add\n      0x00\n      keccak256\n        /* \"NFT-Contracts/contracts/market_pri/NewMarket.sol\":6948:7037  nftContractAuctionSale[_nftContractAddress][_tokenId]\r... */\n      0x03\n      add\n      sload\n        /* \"NFT-Contracts/contracts/market_pri/NewMarket.sol\":6914:6928  _finalBidPrice */\n      dup2\n        /* \"NFT-Contracts/contracts/market_pri/NewMarket.sol\":6914:7037  _finalBidPrice >\r... */\n      gt\n        /* \"NFT-Contracts/contracts/market_pri/NewMarket.sol\":6892:7094  require(\r... */\n      tag_165\n      jumpi\n      mload(0x40)\n      0x08c379a000000000000000000000000000000000000000000000000000000000\n      dup2\n      mstore\n      0x04\n      add\n      tag_166\n      swap1\n      tag_140\n      jump\t// in\n    tag_166:\n      mload(0x40)\n      dup1\n      swap2\n      sub\n      swap1\n      revert\n    tag_165:\n        /* \"NFT-Contracts/contracts/market_pri/NewMarket.sol\":14598:14624  address nftContractAddress */\n      0x00\n        /* \"NFT-Contracts/contracts/market_pri/NewMarket.sol\":14627:14646  _nftContractAddress */\n      dup14\n        /* \"NFT-Contracts/contracts/market_pri/NewMarket.sol\":14598:14646  address nftContractAddress = _nftContractAddress */\n      swap1\n      pop\n        /* \"NFT-Contracts/contracts/market_pri/NewMarket.sol\":14657:14672  uint256 tokenId */\n      0x00\n        /* \"NFT-Contracts/contracts/market_pri/NewMarket.sol\":14675:14683  _tokenId */\n      dup14\n        /* \"NFT-Contracts/contracts/market_pri/NewMarket.sol\":14657:14683  uint256 tokenId = _tokenId */\n      swap1\n      pop\n        /* \"NFT-Contracts/contracts/market_pri/NewMarket.sol\":14694:14715  uint256 finalBidPrice */\n      0x00\n        /* \"NFT-Contracts/contracts/market_pri/NewMarket.sol\":14718:14821  userBidPriceOnNFT[nftContractAddress][tokenId][\r... */\n      tag_168\n        /* \"NFT-Contracts/contracts/market_pri/NewMarket.sol\":14805:14820  _updateBidPrice */\n      dup15\n        /* \"NFT-Contracts/contracts/market_pri/NewMarket.sol\":14718:14735  userBidPriceOnNFT */\n      0x03\n        /* \"NFT-Contracts/contracts/market_pri/NewMarket.sol\":14718:14755  userBidPriceOnNFT[nftContractAddress] */\n      0x00\n        /* \"NFT-Contracts/contracts/market_pri/NewMarket.sol\":14736:14754  nftContractAddress */\n      dup7\n        /* \"NFT-Contracts/contracts/market_pri/NewMarket.sol\":14718:14755  userBidPriceOnNFT[nftContractAddress] */\n      0xffffffffffffffffffffffffffffffffffffffff\n      and\n      0xffffffffffffffffffffffffffffffffffffffff\n      and\n      dup2\n      mstore\n      0x20\n      add\n      swap1\n      dup2\n      mstore\n      0x20\n      add\n      0x00\n      keccak256\n        /* \"NFT-Contracts/contracts/market_pri/NewMarket.sol\":14718:14764  userBidPriceOnNFT[nftContractAddress][tokenId] */\n      0x00\n        /* \"NFT-Contracts/contracts/market_pri/NewMarket.sol\":14756:14763  tokenId */\n      dup6\n        /* \"NFT-Contracts/contracts/market_pri/NewMarket.sol\":14718:14764  userBidPriceOnNFT[nftContractAddress][tokenId] */\n      dup2\n      mstore\n      0x20\n      add\n      swap1\n      dup2\n      mstore\n      0x20\n      add\n      0x00\n      keccak256\n        /* \"NFT-Contracts/contracts/market_pri/NewMarket.sol\":14718:14800  userBidPriceOnNFT[nftContractAddress][tokenId][\r... */\n      0x00\n        /* \"NFT-Contracts/contracts/market_pri/NewMarket.sol\":14779:14789  msg.sender */\n      caller\n        /* \"NFT-Contracts/contracts/market_pri/NewMarket.sol\":14718:14800  userBidPriceOnNFT[nftContractAddress][tokenId][\r... */\n      0xffffffffffffffffffffffffffffffffffffffff\n      and\n      0xffffffffffffffffffffffffffffffffffffffff\n      and\n      dup2\n      mstore\n      0x20\n      add\n      swap1\n      dup2\n      mstore\n      0x20\n      add\n      0x00\n      keccak256\n      sload\n        /* \"NFT-Contracts/contracts/market_pri/NewMarket.sol\":14718:14804  userBidPriceOnNFT[nftContractAddress][tokenId][\r... */\n      tag_162\n      swap1\n        /* \"NFT-Contracts/contracts/market_pri/NewMarket.sol\":14718:14821  userBidPriceOnNFT[nftContractAddress][tokenId][\r... */\n      swap2\n      swap1\n      0xffffffff\n      and\n      jump\t// in\n    tag_168:\n        /* \"NFT-Contracts/contracts/market_pri/NewMarket.sol\":14694:14821  uint256 finalBidPrice = userBidPriceOnNFT[nftContractAddress][tokenId][\r... */\n      swap1\n      pop\n        /* \"NFT-Contracts/contracts/market_pri/NewMarket.sol\":14934:14935  0 */\n      0x00\n        /* \"NFT-Contracts/contracts/market_pri/NewMarket.sol\":14852:14936  nftContractAuctionSale[nftContractAddress][tokenId].erc20 !=\r... */\n      0xffffffffffffffffffffffffffffffffffffffff\n      and\n        /* \"NFT-Contracts/contracts/market_pri/NewMarket.sol\":14852:14874  nftContractAuctionSale */\n      0x01\n        /* \"NFT-Contracts/contracts/market_pri/NewMarket.sol\":14852:14894  nftContractAuctionSale[nftContractAddress] */\n      0x00\n        /* \"NFT-Contracts/contracts/market_pri/NewMarket.sol\":14875:14893  nftContractAddress */\n      dup6\n        /* \"NFT-Contracts/contracts/market_pri/NewMarket.sol\":14852:14894  nftContractAuctionSale[nftContractAddress] */\n      0xffffffffffffffffffffffffffffffffffffffff\n      and\n      0xffffffffffffffffffffffffffffffffffffffff\n      and\n      dup2\n      mstore\n      0x20\n      add\n      swap1\n      dup2\n      mstore\n      0x20\n      add\n      0x00\n      keccak256\n        /* \"NFT-Contracts/contracts/market_pri/NewMarket.sol\":14852:14903  nftContractAuctionSale[nftContractAddress][tokenId] */\n      0x00\n        /* \"NFT-Contracts/contracts/market_pri/NewMarket.sol\":14895:14902  tokenId */\n      dup5\n        /* \"NFT-Contracts/contracts/market_pri/NewMarket.sol\":14852:14903  nftContractAuctionSale[nftContractAddress][tokenId] */\n      dup2\n      mstore\n      0x20\n      add\n      swap1\n      dup2\n      mstore\n      0x20\n      add\n      0x00\n      keccak256\n        /* \"NFT-Contracts/contracts/market_pri/NewMarket.sol\":14852:14909  nftContractAuctionSale[nftContractAddress][tokenId].erc20 */\n      0x06\n      add\n      0x00\n      swap1\n      sload\n      swap1\n      0x0100\n      exp\n      swap1\n      div\n      0xffffffffffffffffffffffffffffffffffffffff\n      and\n        /* \"NFT-Contracts/contracts/market_pri/NewMarket.sol\":14852:14936  nftContractAuctionSale[nftContractAddress][tokenId].erc20 !=\r... */\n      0xffffffffffffffffffffffffffffffffffffffff\n      and\n      eq\n        /* \"NFT-Contracts/contracts/market_pri/NewMarket.sol\":14834:15118  if (\r... */\n      tag_169\n      jumpi\n        /* \"NFT-Contracts/contracts/market_pri/NewMarket.sol\":14963:15106  _bidAmountTransfer(\r... */\n      tag_170\n        /* \"NFT-Contracts/contracts/market_pri/NewMarket.sol\":15000:15015  _updateBidPrice */\n      dup15\n        /* \"NFT-Contracts/contracts/market_pri/NewMarket.sol\":15034:15056  nftContractAuctionSale */\n      0x01\n        /* \"NFT-Contracts/contracts/market_pri/NewMarket.sol\":15034:15076  nftContractAuctionSale[nftContractAddress] */\n      0x00\n        /* \"NFT-Contracts/contracts/market_pri/NewMarket.sol\":15057:15075  nftContractAddress */\n      dup7\n        /* \"NFT-Contracts/contracts/market_pri/NewMarket.sol\":15034:15076  nftContractAuctionSale[nftContractAddress] */\n      0xffffffffffffffffffffffffffffffffffffffff\n      and\n      0xffffffffffffffffffffffffffffffffffffffff\n      and\n      dup2\n      mstore\n      0x20\n      add\n      swap1\n      dup2\n      mstore\n      0x20\n      add\n      0x00\n      keccak256\n        /* \"NFT-Contracts/contracts/market_pri/NewMarket.sol\":15034:15085  nftContractAuctionSale[nftContractAddress][tokenId] */\n      0x00\n        /* \"NFT-Contracts/contracts/market_pri/NewMarket.sol\":15077:15084  tokenId */\n      dup6\n        /* \"NFT-Contracts/contracts/market_pri/NewMarket.sol\":15034:15085  nftContractAuctionSale[nftContractAddress][tokenId] */\n      dup2\n      mstore\n      0x20\n      add\n      swap1\n      dup2\n      mstore\n      0x20\n      add\n      0x00\n      keccak256\n        /* \"NFT-Contracts/contracts/market_pri/NewMarket.sol\":15034:15091  nftContractAuctionSale[nftContractAddress][tokenId].erc20 */\n      0x06\n      add\n      0x00\n      swap1\n      sload\n      swap1\n      0x0100\n      exp\n      swap1\n      div\n      0xffffffffffffffffffffffffffffffffffffffff\n      and\n        /* \"NFT-Contracts/contracts/market_pri/NewMarket.sol\":14963:14981  _bidAmountTransfer */\n      tag_147\n        /* \"NFT-Contracts/contracts/market_pri/NewMarket.sol\":14963:15106  _bidAmountTransfer(\r... */\n      jump\t// in\n    tag_170:\n        /* \"NFT-Contracts/contracts/market_pri/NewMarket.sol\":14834:15118  if (\r... */\n    tag_169:\n        /* \"NFT-Contracts/contracts/market_pri/NewMarket.sol\":15212:15225  finalBidPrice */\n      dup1\n        /* \"NFT-Contracts/contracts/market_pri/NewMarket.sol\":15130:15152  nftContractAuctionSale */\n      0x01\n        /* \"NFT-Contracts/contracts/market_pri/NewMarket.sol\":15130:15172  nftContractAuctionSale[nftContractAddress] */\n      0x00\n        /* \"NFT-Contracts/contracts/market_pri/NewMarket.sol\":15153:15171  nftContractAddress */\n      dup6\n        /* \"NFT-Contracts/contracts/market_pri/NewMarket.sol\":15130:15172  nftContractAuctionSale[nftContractAddress] */\n      0xffffffffffffffffffffffffffffffffffffffff\n      and\n      0xffffffffffffffffffffffffffffffffffffffff\n      and\n      dup2\n      mstore\n      0x20\n      add\n      swap1\n      dup2\n      mstore\n      0x20\n      add\n      0x00\n      keccak256\n        /* \"NFT-Contracts/contracts/market_pri/NewMarket.sol\":15130:15181  nftContractAuctionSale[nftContractAddress][tokenId] */\n      0x00\n        /* \"NFT-Contracts/contracts/market_pri/NewMarket.sol\":15173:15180  tokenId */\n      dup5\n        /* \"NFT-Contracts/contracts/market_pri/NewMarket.sol\":15130:15181  nftContractAuctionSale[nftContractAddress][tokenId] */\n      dup2\n      mstore\n      0x20\n      add\n      swap1\n      dup2\n      mstore\n      0x20\n      add\n      0x00\n      keccak256\n        /* \"NFT-Contracts/contracts/market_pri/NewMarket.sol\":15130:15209  nftContractAuctionSale[nftContractAddress][tokenId]\r... */\n      0x03\n      add\n        /* \"NFT-Contracts/contracts/market_pri/NewMarket.sol\":15130:15225  nftContractAuctionSale[nftContractAddress][tokenId]\r... */\n      dup2\n      swap1\n      sstore\n      pop\n        /* \"NFT-Contracts/contracts/market_pri/NewMarket.sol\":15321:15331  msg.sender */\n      caller\n        /* \"NFT-Contracts/contracts/market_pri/NewMarket.sol\":15236:15258  nftContractAuctionSale */\n      0x01\n        /* \"NFT-Contracts/contracts/market_pri/NewMarket.sol\":15236:15278  nftContractAuctionSale[nftContractAddress] */\n      0x00\n        /* \"NFT-Contracts/contracts/market_pri/NewMarket.sol\":15259:15277  nftContractAddress */\n      dup6\n        /* \"NFT-Contracts/contracts/market_pri/NewMarket.sol\":15236:15278  nftContractAuctionSale[nftContractAddress] */\n      0xffffffffffffffffffffffffffffffffffffffff\n      and\n      0xffffffffffffffffffffffffffffffffffffffff\n      and\n      dup2\n      mstore\n      0x20\n      add\n      swap1\n      dup2\n      mstore\n      0x20\n      add\n      0x00\n      keccak256\n        /* \"NFT-Contracts/contracts/market_pri/NewMarket.sol\":15236:15287  nftContractAuctionSale[nftContractAddress][tokenId] */\n      0x00\n        /* \"NFT-Contracts/contracts/market_pri/NewMarket.sol\":15279:15286  tokenId */\n      dup5\n        /* \"NFT-Contracts/contracts/market_pri/NewMarket.sol\":15236:15287  nftContractAuctionSale[nftContractAddress][tokenId] */\n      dup2\n      mstore\n      0x20\n      add\n      swap1\n      dup2\n      mstore\n      0x20\n      add\n      0x00\n      keccak256\n        /* \"NFT-Contracts/contracts/market_pri/NewMarket.sol\":15236:15318  nftContractAuctionSale[nftContractAddress][tokenId]\r... */\n      0x04\n      add\n      0x00\n        /* \"NFT-Contracts/contracts/market_pri/NewMarket.sol\":15236:15331  nftContractAuctionSale[nftContractAddress][tokenId]\r... */\n      0x0100\n      exp\n      dup2\n      sload\n      dup2\n      0xffffffffffffffffffffffffffffffffffffffff\n      mul\n      not\n      and\n      swap1\n      dup4\n      0xffffffffffffffffffffffffffffffffffffffff\n      and\n      mul\n      or\n      swap1\n      sstore\n      pop\n        /* \"NFT-Contracts/contracts/market_pri/NewMarket.sol\":15429:15442  finalBidPrice */\n      dup1\n        /* \"NFT-Contracts/contracts/market_pri/NewMarket.sol\":15344:15361  userBidPriceOnNFT */\n      0x03\n        /* \"NFT-Contracts/contracts/market_pri/NewMarket.sol\":15344:15381  userBidPriceOnNFT[nftContractAddress] */\n      0x00\n        /* \"NFT-Contracts/contracts/market_pri/NewMarket.sol\":15362:15380  nftContractAddress */\n      dup6\n        /* \"NFT-Contracts/contracts/market_pri/NewMarket.sol\":15344:15381  userBidPriceOnNFT[nftContractAddress] */\n      0xffffffffffffffffffffffffffffffffffffffff\n      and\n      0xffffffffffffffffffffffffffffffffffffffff\n      and\n      dup2\n      mstore\n      0x20\n      add\n      swap1\n      dup2\n      mstore\n      0x20\n      add\n      0x00\n      keccak256\n        /* \"NFT-Contracts/contracts/market_pri/NewMarket.sol\":15344:15390  userBidPriceOnNFT[nftContractAddress][tokenId] */\n      0x00\n        /* \"NFT-Contracts/contracts/market_pri/NewMarket.sol\":15382:15389  tokenId */\n      dup5\n        /* \"NFT-Contracts/contracts/market_pri/NewMarket.sol\":15344:15390  userBidPriceOnNFT[nftContractAddress][tokenId] */\n      dup2\n      mstore\n      0x20\n      add\n      swap1\n      dup2\n      mstore\n      0x20\n      add\n      0x00\n      keccak256\n        /* \"NFT-Contracts/contracts/market_pri/NewMarket.sol\":15344:15426  userBidPriceOnNFT[nftContractAddress][tokenId][\r... */\n      0x00\n        /* \"NFT-Contracts/contracts/market_pri/NewMarket.sol\":15405:15415  msg.sender */\n      caller\n        /* \"NFT-Contracts/contracts/market_pri/NewMarket.sol\":15344:15426  userBidPriceOnNFT[nftContractAddress][tokenId][\r... */\n      0xffffffffffffffffffffffffffffffffffffffff\n      and\n      0xffffffffffffffffffffffffffffffffffffffff\n      and\n      dup2\n      mstore\n      0x20\n      add\n      swap1\n      dup2\n      mstore\n      0x20\n      add\n      0x00\n      keccak256\n        /* \"NFT-Contracts/contracts/market_pri/NewMarket.sol\":15344:15442  userBidPriceOnNFT[nftContractAddress][tokenId][\r... */\n      dup2\n      swap1\n      sstore\n      pop\n        /* \"NFT-Contracts/contracts/market_pri/NewMarket.sol\":15460:15603  NftAuctionBidPriceUpdate(\r... */\n      0x907cdadc7c1a8abcdd80cdd85eb18377631e4f413fb6397a8252ff7b358ac6cb\n        /* \"NFT-Contracts/contracts/market_pri/NewMarket.sol\":15499:15517  nftContractAddress */\n      dup4\n        /* \"NFT-Contracts/contracts/market_pri/NewMarket.sol\":15532:15539  tokenId */\n      dup4\n        /* \"NFT-Contracts/contracts/market_pri/NewMarket.sol\":15554:15567  finalBidPrice */\n      dup4\n        /* \"NFT-Contracts/contracts/market_pri/NewMarket.sol\":15582:15592  msg.sender */\n      caller\n        /* \"NFT-Contracts/contracts/market_pri/NewMarket.sol\":15460:15603  NftAuctionBidPriceUpdate(\r... */\n      mload(0x40)\n      tag_171\n      swap5\n      swap4\n      swap3\n      swap2\n      swap1\n      tag_149\n      jump\t// in\n    tag_171:\n      mload(0x40)\n      dup1\n      swap2\n      sub\n      swap1\n      log1\n        /* \"NFT-Contracts/contracts/market_pri/NewMarket.sol\":14587:15611  {\r... */\n      pop\n      pop\n      pop\n        /* \"NFT-Contracts/contracts/market_pri/NewMarket.sol\":6401:7114  {\r... */\n      pop\n        /* \"NFT-Contracts/contracts/market_pri/NewMarket.sol\":7882:7883  _ */\n      pop\n      pop\n      pop\n      pop\n        /* \"NFT-Contracts/contracts/market_pri/NewMarket.sol\":5904:5905  _ */\n      pop\n        /* \"NFT-Contracts/contracts/market_pri/NewMarket.sol\":3662:3663  _ */\n      pop\n      pop\n        /* \"NFT-Contracts/contracts/market_pri/NewMarket.sol\":14095:15611  function updateTheBidPrice(\r... */\n      pop\n      pop\n      pop\n      pop\n      pop\n      jump\t// out\n        /* \"NFT-Contracts/contracts/market_pri/NewMarket.sol\":9661:10239  function updateFixedSalePrice(\r... */\n    tag_50:\n        /* \"NFT-Contracts/contracts/market_pri/NewMarket.sol\":9842:9861  _nftContractAddress */\n      dup3\n        /* \"NFT-Contracts/contracts/market_pri/NewMarket.sol\":9863:9871  _tokenId */\n      dup3\n        /* \"NFT-Contracts/contracts/market_pri/NewMarket.sol\":3365:3366  1 */\n      0x01\n        /* \"NFT-Contracts/contracts/market_pri/NewMarket.sol\":3317:3330  nftSaleStatus */\n      0x02\n        /* \"NFT-Contracts/contracts/market_pri/NewMarket.sol\":3317:3351  nftSaleStatus[_nftContractAddress] */\n      0x00\n        /* \"NFT-Contracts/contracts/market_pri/NewMarket.sol\":3331:3350  _nftContractAddress */\n      dup5\n        /* \"NFT-Contracts/contracts/market_pri/NewMarket.sol\":3317:3351  nftSaleStatus[_nftContractAddress] */\n      0xffffffffffffffffffffffffffffffffffffffff\n      and\n      0xffffffffffffffffffffffffffffffffffffffff\n      and\n      dup2\n      mstore\n      0x20\n      add\n      swap1\n      dup2\n      mstore\n      0x20\n      add\n      0x00\n      keccak256\n        /* \"NFT-Contracts/contracts/market_pri/NewMarket.sol\":3317:3361  nftSaleStatus[_nftContractAddress][_tokenId] */\n      0x00\n        /* \"NFT-Contracts/contracts/market_pri/NewMarket.sol\":3352:3360  _tokenId */\n      dup4\n        /* \"NFT-Contracts/contracts/market_pri/NewMarket.sol\":3317:3361  nftSaleStatus[_nftContractAddress][_tokenId] */\n      dup2\n      mstore\n      0x20\n      add\n      swap1\n      dup2\n      mstore\n      0x20\n      add\n      0x00\n      keccak256\n      sload\n        /* \"NFT-Contracts/contracts/market_pri/NewMarket.sol\":3317:3366  nftSaleStatus[_nftContractAddress][_tokenId] == 1 */\n      eq\n        /* \"NFT-Contracts/contracts/market_pri/NewMarket.sol\":3295:3415  require(\r... */\n      tag_173\n      jumpi\n      mload(0x40)\n      0x08c379a000000000000000000000000000000000000000000000000000000000\n      dup2\n      mstore\n      0x04\n      add\n      tag_174\n      swap1\n      tag_175\n      jump\t// in\n    tag_174:\n      mload(0x40)\n      dup1\n      swap2\n      sub\n      swap1\n      revert\n    tag_173:\n        /* \"NFT-Contracts/contracts/market_pri/NewMarket.sol\":9901:9920  _nftContractAddress */\n      dup5\n        /* \"NFT-Contracts/contracts/market_pri/NewMarket.sol\":9922:9930  _tokenId */\n      dup5\n        /* \"NFT-Contracts/contracts/market_pri/NewMarket.sol\":4063:4083  nftContractFixedSale */\n      0x00\n        /* \"NFT-Contracts/contracts/market_pri/NewMarket.sol\":4063:4104  nftContractFixedSale[_nftContractAddress] */\n      dup1\n        /* \"NFT-Contracts/contracts/market_pri/NewMarket.sol\":4084:4103  _nftContractAddress */\n      dup4\n        /* \"NFT-Contracts/contracts/market_pri/NewMarket.sol\":4063:4104  nftContractFixedSale[_nftContractAddress] */\n      0xffffffffffffffffffffffffffffffffffffffff\n      and\n      0xffffffffffffffffffffffffffffffffffffffff\n      and\n      dup2\n      mstore\n      0x20\n      add\n      swap1\n      dup2\n      mstore\n      0x20\n      add\n      0x00\n      keccak256\n        /* \"NFT-Contracts/contracts/market_pri/NewMarket.sol\":4063:4114  nftContractFixedSale[_nftContractAddress][_tokenId] */\n      0x00\n        /* \"NFT-Contracts/contracts/market_pri/NewMarket.sol\":4105:4113  _tokenId */\n      dup3\n        /* \"NFT-Contracts/contracts/market_pri/NewMarket.sol\":4063:4114  nftContractFixedSale[_nftContractAddress][_tokenId] */\n      dup2\n      mstore\n      0x20\n      add\n      swap1\n      dup2\n      mstore\n      0x20\n      add\n      0x00\n      keccak256\n        /* \"NFT-Contracts/contracts/market_pri/NewMarket.sol\":4063:4124  nftContractFixedSale[_nftContractAddress][_tokenId].nftSeller */\n      0x00\n      add\n      0x00\n      swap1\n      sload\n      swap1\n      0x0100\n      exp\n      swap1\n      div\n      0xffffffffffffffffffffffffffffffffffffffff\n      and\n        /* \"NFT-Contracts/contracts/market_pri/NewMarket.sol\":4032:4124  msg.sender ==\r... */\n      0xffffffffffffffffffffffffffffffffffffffff\n      and\n        /* \"NFT-Contracts/contracts/market_pri/NewMarket.sol\":4032:4042  msg.sender */\n      caller\n        /* \"NFT-Contracts/contracts/market_pri/NewMarket.sol\":4032:4124  msg.sender ==\r... */\n      0xffffffffffffffffffffffffffffffffffffffff\n      and\n      eq\n        /* \"NFT-Contracts/contracts/market_pri/NewMarket.sol\":4010:4173  require(\r... */\n      tag_177\n      jumpi\n      mload(0x40)\n      0x08c379a000000000000000000000000000000000000000000000000000000000\n      dup2\n      mstore\n      0x04\n      add\n      tag_178\n      swap1\n      tag_179\n      jump\t// in\n    tag_178:\n      mload(0x40)\n      dup1\n      swap2\n      sub\n      swap1\n      revert\n    tag_177:\n        /* \"NFT-Contracts/contracts/market_pri/NewMarket.sol\":9962:9978  _updateSalePrice */\n      dup5\n        /* \"NFT-Contracts/contracts/market_pri/NewMarket.sol\":7848:7849  0 */\n      0x00\n        /* \"NFT-Contracts/contracts/market_pri/NewMarket.sol\":7839:7845  _price */\n      dup2\n        /* \"NFT-Contracts/contracts/market_pri/NewMarket.sol\":7839:7849  _price > 0 */\n      gt\n        /* \"NFT-Contracts/contracts/market_pri/NewMarket.sol\":7831:7871  require(_price > 0, \"Price cannot be 0\") */\n      tag_181\n      jumpi\n      mload(0x40)\n      0x08c379a000000000000000000000000000000000000000000000000000000000\n      dup2\n      mstore\n      0x04\n      add\n      tag_182\n      swap1\n      tag_135\n      jump\t// in\n    tag_182:\n      mload(0x40)\n      dup1\n      swap2\n      sub\n      swap1\n      revert\n    tag_181:\n        /* \"NFT-Contracts/contracts/market_pri/NewMarket.sol\":10074:10090  _updateSalePrice */\n      dup6\n        /* \"NFT-Contracts/contracts/market_pri/NewMarket.sol\":9996:10016  nftContractFixedSale */\n      0x00\n        /* \"NFT-Contracts/contracts/market_pri/NewMarket.sol\":9996:10037  nftContractFixedSale[_nftContractAddress] */\n      dup1\n        /* \"NFT-Contracts/contracts/market_pri/NewMarket.sol\":10017:10036  _nftContractAddress */\n      dup11\n        /* \"NFT-Contracts/contracts/market_pri/NewMarket.sol\":9996:10037  nftContractFixedSale[_nftContractAddress] */\n      0xffffffffffffffffffffffffffffffffffffffff\n      and\n      0xffffffffffffffffffffffffffffffffffffffff\n      and\n      dup2\n      mstore\n      0x20\n      add\n      swap1\n      dup2\n      mstore\n      0x20\n      add\n      0x00\n      keccak256\n        /* \"NFT-Contracts/contracts/market_pri/NewMarket.sol\":9996:10047  nftContractFixedSale[_nftContractAddress][_tokenId] */\n      0x00\n        /* \"NFT-Contracts/contracts/market_pri/NewMarket.sol\":10038:10046  _tokenId */\n      dup10\n        /* \"NFT-Contracts/contracts/market_pri/NewMarket.sol\":9996:10047  nftContractFixedSale[_nftContractAddress][_tokenId] */\n      dup2\n      mstore\n      0x20\n      add\n      swap1\n      dup2\n      mstore\n      0x20\n      add\n      0x00\n      keccak256\n        /* \"NFT-Contracts/contracts/market_pri/NewMarket.sol\":9996:10071  nftContractFixedSale[_nftContractAddress][_tokenId]\r... */\n      0x03\n      add\n        /* \"NFT-Contracts/contracts/market_pri/NewMarket.sol\":9996:10090  nftContractFixedSale[_nftContractAddress][_tokenId]\r... */\n      dup2\n      swap1\n      sstore\n      pop\n        /* \"NFT-Contracts/contracts/market_pri/NewMarket.sol\":10108:10231  NftFixedSalePriceUpdated(\r... */\n      0x575a0876095ccf47276a37dce683308a625403d132d219f95205ce205b2e12bc\n        /* \"NFT-Contracts/contracts/market_pri/NewMarket.sol\":10147:10166  _nftContractAddress */\n      dup9\n        /* \"NFT-Contracts/contracts/market_pri/NewMarket.sol\":10181:10189  _tokenId */\n      dup9\n        /* \"NFT-Contracts/contracts/market_pri/NewMarket.sol\":10204:10220  _updateSalePrice */\n      dup9\n        /* \"NFT-Contracts/contracts/market_pri/NewMarket.sol\":10108:10231  NftFixedSalePriceUpdated(\r... */\n      mload(0x40)\n      tag_184\n      swap4\n      swap3\n      swap2\n      swap1\n      tag_185\n      jump\t// in\n    tag_184:\n      mload(0x40)\n      dup1\n      swap2\n      sub\n      swap1\n      log1\n        /* \"NFT-Contracts/contracts/market_pri/NewMarket.sol\":4184:4185  _ */\n      pop\n        /* \"NFT-Contracts/contracts/market_pri/NewMarket.sol\":3426:3427  _ */\n      pop\n      pop\n        /* \"NFT-Contracts/contracts/market_pri/NewMarket.sol\":9661:10239  function updateFixedSalePrice(\r... */\n      pop\n      pop\n      pop\n      pop\n      pop\n      jump\t// out\n        /* \"NFT-Contracts/contracts/market_pri/NewMarket.sol\":17162:17920  function withdrawBid(address _nftContractAddress, uint256 _tokenId)\r... */\n    tag_55:\n        /* \"NFT-Contracts/contracts/market_pri/NewMarket.sol\":17271:17290  _nftContractAddress */\n      dup2\n        /* \"NFT-Contracts/contracts/market_pri/NewMarket.sol\":17292:17300  _tokenId */\n      dup2\n        /* \"NFT-Contracts/contracts/market_pri/NewMarket.sol\":4651:4673  nftContractAuctionSale */\n      0x01\n        /* \"NFT-Contracts/contracts/market_pri/NewMarket.sol\":4651:4694  nftContractAuctionSale[_nftContractAddress] */\n      0x00\n        /* \"NFT-Contracts/contracts/market_pri/NewMarket.sol\":4674:4693  _nftContractAddress */\n      dup4\n        /* \"NFT-Contracts/contracts/market_pri/NewMarket.sol\":4651:4694  nftContractAuctionSale[_nftContractAddress] */\n      0xffffffffffffffffffffffffffffffffffffffff\n      and\n      0xffffffffffffffffffffffffffffffffffffffff\n      and\n      dup2\n      mstore\n      0x20\n      add\n      swap1\n      dup2\n      mstore\n      0x20\n      add\n      0x00\n      keccak256\n        /* \"NFT-Contracts/contracts/market_pri/NewMarket.sol\":4651:4704  nftContractAuctionSale[_nftContractAddress][_tokenId] */\n      0x00\n        /* \"NFT-Contracts/contracts/market_pri/NewMarket.sol\":4695:4703  _tokenId */\n      dup3\n        /* \"NFT-Contracts/contracts/market_pri/NewMarket.sol\":4651:4704  nftContractAuctionSale[_nftContractAddress][_tokenId] */\n      dup2\n      mstore\n      0x20\n      add\n      swap1\n      dup2\n      mstore\n      0x20\n      add\n      0x00\n      keccak256\n        /* \"NFT-Contracts/contracts/market_pri/NewMarket.sol\":4651:4737  nftContractAuctionSale[_nftContractAddress][_tokenId]\r... */\n      0x01\n      add\n      sload\n        /* \"NFT-Contracts/contracts/market_pri/NewMarket.sol\":4616:4631  block.timestamp */\n      timestamp\n        /* \"NFT-Contracts/contracts/market_pri/NewMarket.sol\":4616:4737  block.timestamp >\r... */\n      gt\n        /* \"NFT-Contracts/contracts/market_pri/NewMarket.sol\":4594:4780  require(\r... */\n      tag_187\n      jumpi\n      mload(0x40)\n      0x08c379a000000000000000000000000000000000000000000000000000000000\n      dup2\n      mstore\n      0x04\n      add\n      tag_188\n      swap1\n      tag_189\n      jump\t// in\n    tag_188:\n      mload(0x40)\n      dup1\n      swap2\n      sub\n      swap1\n      revert\n    tag_187:\n        /* \"NFT-Contracts/contracts/market_pri/NewMarket.sol\":17371:17393  nftContractAuctionSale */\n      0x01\n        /* \"NFT-Contracts/contracts/market_pri/NewMarket.sol\":17371:17414  nftContractAuctionSale[_nftContractAddress] */\n      0x00\n        /* \"NFT-Contracts/contracts/market_pri/NewMarket.sol\":17394:17413  _nftContractAddress */\n      dup6\n        /* \"NFT-Contracts/contracts/market_pri/NewMarket.sol\":17371:17414  nftContractAuctionSale[_nftContractAddress] */\n      0xffffffffffffffffffffffffffffffffffffffff\n      and\n      0xffffffffffffffffffffffffffffffffffffffff\n      and\n      dup2\n      mstore\n      0x20\n      add\n      swap1\n      dup2\n      mstore\n      0x20\n      add\n      0x00\n      keccak256\n        /* \"NFT-Contracts/contracts/market_pri/NewMarket.sol\":17371:17424  nftContractAuctionSale[_nftContractAddress][_tokenId] */\n      0x00\n        /* \"NFT-Contracts/contracts/market_pri/NewMarket.sol\":17415:17423  _tokenId */\n      dup5\n        /* \"NFT-Contracts/contracts/market_pri/NewMarket.sol\":17371:17424  nftContractAuctionSale[_nftContractAddress][_tokenId] */\n      dup2\n      mstore\n      0x20\n      add\n      swap1\n      dup2\n      mstore\n      0x20\n      add\n      0x00\n      keccak256\n        /* \"NFT-Contracts/contracts/market_pri/NewMarket.sol\":17371:17463  nftContractAuctionSale[_nftContractAddress][_tokenId]\r... */\n      0x04\n      add\n      0x00\n      swap1\n      sload\n      swap1\n      0x0100\n      exp\n      swap1\n      div\n      0xffffffffffffffffffffffffffffffffffffffff\n      and\n        /* \"NFT-Contracts/contracts/market_pri/NewMarket.sol\":17340:17463  msg.sender !=\r... */\n      0xffffffffffffffffffffffffffffffffffffffff\n      and\n        /* \"NFT-Contracts/contracts/market_pri/NewMarket.sol\":17340:17350  msg.sender */\n      caller\n        /* \"NFT-Contracts/contracts/market_pri/NewMarket.sol\":17340:17463  msg.sender !=\r... */\n      0xffffffffffffffffffffffffffffffffffffffff\n      and\n      eq\n      iszero\n        /* \"NFT-Contracts/contracts/market_pri/NewMarket.sol\":17318:17513  require(\r... */\n      tag_191\n      jumpi\n      mload(0x40)\n      0x08c379a000000000000000000000000000000000000000000000000000000000\n      dup2\n      mstore\n      0x04\n      add\n      tag_192\n      swap1\n      tag_193\n      jump\t// in\n    tag_192:\n      mload(0x40)\n      dup1\n      swap2\n      sub\n      swap1\n      revert\n    tag_191:\n        /* \"NFT-Contracts/contracts/market_pri/NewMarket.sol\":17609:17610  0 */\n      0x00\n        /* \"NFT-Contracts/contracts/market_pri/NewMarket.sol\":17546:17563  userBidPriceOnNFT */\n      0x03\n        /* \"NFT-Contracts/contracts/market_pri/NewMarket.sol\":17546:17584  userBidPriceOnNFT[_nftContractAddress] */\n      0x00\n        /* \"NFT-Contracts/contracts/market_pri/NewMarket.sol\":17564:17583  _nftContractAddress */\n      dup7\n        /* \"NFT-Contracts/contracts/market_pri/NewMarket.sol\":17546:17584  userBidPriceOnNFT[_nftContractAddress] */\n      0xffffffffffffffffffffffffffffffffffffffff\n      and\n      0xffffffffffffffffffffffffffffffffffffffff\n      and\n      dup2\n      mstore\n      0x20\n      add\n      swap1\n      dup2\n      mstore\n      0x20\n      add\n      0x00\n      keccak256\n        /* \"NFT-Contracts/contracts/market_pri/NewMarket.sol\":17546:17594  userBidPriceOnNFT[_nftContractAddress][_tokenId] */\n      0x00\n        /* \"NFT-Contracts/contracts/market_pri/NewMarket.sol\":17585:17593  _tokenId */\n      dup6\n        /* \"NFT-Contracts/contracts/market_pri/NewMarket.sol\":17546:17594  userBidPriceOnNFT[_nftContractAddress][_tokenId] */\n      dup2\n      mstore\n      0x20\n      add\n      swap1\n      dup2\n      mstore\n      0x20\n      add\n      0x00\n      keccak256\n        /* \"NFT-Contracts/contracts/market_pri/NewMarket.sol\":17546:17606  userBidPriceOnNFT[_nftContractAddress][_tokenId][msg.sender] */\n      0x00\n        /* \"NFT-Contracts/contracts/market_pri/NewMarket.sol\":17595:17605  msg.sender */\n      caller\n        /* \"NFT-Contracts/contracts/market_pri/NewMarket.sol\":17546:17606  userBidPriceOnNFT[_nftContractAddress][_tokenId][msg.sender] */\n      0xffffffffffffffffffffffffffffffffffffffff\n      and\n      0xffffffffffffffffffffffffffffffffffffffff\n      and\n      dup2\n      mstore\n      0x20\n      add\n      swap1\n      dup2\n      mstore\n      0x20\n      add\n      0x00\n      keccak256\n      sload\n        /* \"NFT-Contracts/contracts/market_pri/NewMarket.sol\":17546:17610  userBidPriceOnNFT[_nftContractAddress][_tokenId][msg.sender] > 0 */\n      gt\n        /* \"NFT-Contracts/contracts/market_pri/NewMarket.sol\":17524:17657  require(\r... */\n      tag_194\n      jumpi\n      mload(0x40)\n      0x08c379a000000000000000000000000000000000000000000000000000000000\n      dup2\n      mstore\n      0x04\n      add\n      tag_195\n      swap1\n      tag_196\n      jump\t// in\n    tag_195:\n      mload(0x40)\n      dup1\n      swap2\n      sub\n      swap1\n      revert\n    tag_194:\n        /* \"NFT-Contracts/contracts/market_pri/NewMarket.sol\":17836:17837  0 */\n      0x00\n        /* \"NFT-Contracts/contracts/market_pri/NewMarket.sol\":17773:17790  userBidPriceOnNFT */\n      0x03\n        /* \"NFT-Contracts/contracts/market_pri/NewMarket.sol\":17773:17811  userBidPriceOnNFT[_nftContractAddress] */\n      0x00\n        /* \"NFT-Contracts/contracts/market_pri/NewMarket.sol\":17791:17810  _nftContractAddress */\n      dup7\n        /* \"NFT-Contracts/contracts/market_pri/NewMarket.sol\":17773:17811  userBidPriceOnNFT[_nftContractAddress] */\n      0xffffffffffffffffffffffffffffffffffffffff\n      and\n      0xffffffffffffffffffffffffffffffffffffffff\n      and\n      dup2\n      mstore\n      0x20\n      add\n      swap1\n      dup2\n      mstore\n      0x20\n      add\n      0x00\n      keccak256\n        /* \"NFT-Contracts/contracts/market_pri/NewMarket.sol\":17773:17821  userBidPriceOnNFT[_nftContractAddress][_tokenId] */\n      0x00\n        /* \"NFT-Contracts/contracts/market_pri/NewMarket.sol\":17812:17820  _tokenId */\n      dup6\n        /* \"NFT-Contracts/contracts/market_pri/NewMarket.sol\":17773:17821  userBidPriceOnNFT[_nftContractAddress][_tokenId] */\n      dup2\n      mstore\n      0x20\n      add\n      swap1\n      dup2\n      mstore\n      0x20\n      add\n      0x00\n      keccak256\n        /* \"NFT-Contracts/contracts/market_pri/NewMarket.sol\":17773:17833  userBidPriceOnNFT[_nftContractAddress][_tokenId][msg.sender] */\n      0x00\n        /* \"NFT-Contracts/contracts/market_pri/NewMarket.sol\":17822:17832  msg.sender */\n      caller\n        /* \"NFT-Contracts/contracts/market_pri/NewMarket.sol\":17773:17833  userBidPriceOnNFT[_nftContractAddress][_tokenId][msg.sender] */\n      0xffffffffffffffffffffffffffffffffffffffff\n      and\n      0xffffffffffffffffffffffffffffffffffffffff\n      and\n      dup2\n      mstore\n      0x20\n      add\n      swap1\n      dup2\n      mstore\n      0x20\n      add\n      0x00\n      keccak256\n        /* \"NFT-Contracts/contracts/market_pri/NewMarket.sol\":17773:17837  userBidPriceOnNFT[_nftContractAddress][_tokenId][msg.sender] = 0 */\n      dup2\n      swap1\n      sstore\n      pop\n        /* \"NFT-Contracts/contracts/market_pri/NewMarket.sol\":17855:17912  withdrawNftBid(_nftContractAddress, _tokenId, msg.sender) */\n      0xde8cb9aa2c755cf75d5fbc4fec824b10e311652306f1fca5c8e57a04758b0aa7\n        /* \"NFT-Contracts/contracts/market_pri/NewMarket.sol\":17870:17889  _nftContractAddress */\n      dup5\n        /* \"NFT-Contracts/contracts/market_pri/NewMarket.sol\":17891:17899  _tokenId */\n      dup5\n        /* \"NFT-Contracts/contracts/market_pri/NewMarket.sol\":17901:17911  msg.sender */\n      caller\n        /* \"NFT-Contracts/contracts/market_pri/NewMarket.sol\":17855:17912  withdrawNftBid(_nftContractAddress, _tokenId, msg.sender) */\n      mload(0x40)\n      tag_197\n      swap4\n      swap3\n      swap2\n      swap1\n      tag_198\n      jump\t// in\n    tag_197:\n      mload(0x40)\n      dup1\n      swap2\n      sub\n      swap1\n      log1\n        /* \"NFT-Contracts/contracts/market_pri/NewMarket.sol\":17162:17920  function withdrawBid(address _nftContractAddress, uint256 _tokenId)\r... */\n      pop\n      pop\n      pop\n      pop\n      jump\t// out\n        /* \"NFT-Contracts/contracts/market_pri/NewMarket.sol\":16256:17154  function settleAuction(address _nftContractAddress, uint256 _tokenId)\r... */\n    tag_59:\n        /* \"NFT-Contracts/contracts/market_pri/NewMarket.sol\":16372:16391  _nftContractAddress */\n      dup2\n        /* \"NFT-Contracts/contracts/market_pri/NewMarket.sol\":16393:16401  _tokenId */\n      dup2\n        /* \"NFT-Contracts/contracts/market_pri/NewMarket.sol\":3599:3600  2 */\n      0x02\n        /* \"NFT-Contracts/contracts/market_pri/NewMarket.sol\":3551:3564  nftSaleStatus */\n      dup1\n        /* \"NFT-Contracts/contracts/market_pri/NewMarket.sol\":3551:3585  nftSaleStatus[_nftContractAddress] */\n      0x00\n        /* \"NFT-Contracts/contracts/market_pri/NewMarket.sol\":3565:3584  _nftContractAddress */\n      dup5\n        /* \"NFT-Contracts/contracts/market_pri/NewMarket.sol\":3551:3585  nftSaleStatus[_nftContractAddress] */\n      0xffffffffffffffffffffffffffffffffffffffff\n      and\n      0xffffffffffffffffffffffffffffffffffffffff\n      and\n      dup2\n      mstore\n      0x20\n      add\n      swap1\n      dup2\n      mstore\n      0x20\n      add\n      0x00\n      keccak256\n        /* \"NFT-Contracts/contracts/market_pri/NewMarket.sol\":3551:3595  nftSaleStatus[_nftContractAddress][_tokenId] */\n      0x00\n        /* \"NFT-Contracts/contracts/market_pri/NewMarket.sol\":3586:3594  _tokenId */\n      dup4\n        /* \"NFT-Contracts/contracts/market_pri/NewMarket.sol\":3551:3595  nftSaleStatus[_nftContractAddress][_tokenId] */\n      dup2\n      mstore\n      0x20\n      add\n      swap1\n      dup2\n      mstore\n      0x20\n      add\n      0x00\n      keccak256\n      sload\n        /* \"NFT-Contracts/contracts/market_pri/NewMarket.sol\":3551:3600  nftSaleStatus[_nftContractAddress][_tokenId] == 2 */\n      eq\n        /* \"NFT-Contracts/contracts/market_pri/NewMarket.sol\":3529:3651  require(\r... */\n      tag_200\n      jumpi\n      mload(0x40)\n      0x08c379a000000000000000000000000000000000000000000000000000000000\n      dup2\n      mstore\n      0x04\n      add\n      tag_201\n      swap1\n      tag_127\n      jump\t// in\n    tag_201:\n      mload(0x40)\n      dup1\n      swap2\n      sub\n      swap1\n      revert\n    tag_200:\n        /* \"NFT-Contracts/contracts/market_pri/NewMarket.sol\":16426:16445  _nftContractAddress */\n      dup4\n        /* \"NFT-Contracts/contracts/market_pri/NewMarket.sol\":16447:16455  _tokenId */\n      dup4\n        /* \"NFT-Contracts/contracts/market_pri/NewMarket.sol\":4651:4673  nftContractAuctionSale */\n      0x01\n        /* \"NFT-Contracts/contracts/market_pri/NewMarket.sol\":4651:4694  nftContractAuctionSale[_nftContractAddress] */\n      0x00\n        /* \"NFT-Contracts/contracts/market_pri/NewMarket.sol\":4674:4693  _nftContractAddress */\n      dup4\n        /* \"NFT-Contracts/contracts/market_pri/NewMarket.sol\":4651:4694  nftContractAuctionSale[_nftContractAddress] */\n      0xffffffffffffffffffffffffffffffffffffffff\n      and\n      0xffffffffffffffffffffffffffffffffffffffff\n      and\n      dup2\n      mstore\n      0x20\n      add\n      swap1\n      dup2\n      mstore\n      0x20\n      add\n      0x00\n      keccak256\n        /* \"NFT-Contracts/contracts/market_pri/NewMarket.sol\":4651:4704  nftContractAuctionSale[_nftContractAddress][_tokenId] */\n      0x00\n        /* \"NFT-Contracts/contracts/market_pri/NewMarket.sol\":4695:4703  _tokenId */\n      dup3\n        /* \"NFT-Contracts/contracts/market_pri/NewMarket.sol\":4651:4704  nftContractAuctionSale[_nftContractAddress][_tokenId] */\n      dup2\n      mstore\n      0x20\n      add\n      swap1\n      dup2\n      mstore\n      0x20\n      add\n      0x00\n      keccak256\n        /* \"NFT-Contracts/contracts/market_pri/NewMarket.sol\":4651:4737  nftContractAuctionSale[_nftContractAddress][_tokenId]\r... */\n      0x01\n      add\n      sload\n        /* \"NFT-Contracts/contracts/market_pri/NewMarket.sol\":4616:4631  block.timestamp */\n      timestamp\n        /* \"NFT-Contracts/contracts/market_pri/NewMarket.sol\":4616:4737  block.timestamp >\r... */\n      gt\n        /* \"NFT-Contracts/contracts/market_pri/NewMarket.sol\":4594:4780  require(\r... */\n      tag_203\n      jumpi\n      mload(0x40)\n      0x08c379a000000000000000000000000000000000000000000000000000000000\n      dup2\n      mstore\n      0x04\n      add\n      tag_204\n      swap1\n      tag_189\n      jump\t// in\n    tag_204:\n      mload(0x40)\n      dup1\n      swap2\n      sub\n      swap1\n      revert\n    tag_203:\n        /* \"NFT-Contracts/contracts/market_pri/NewMarket.sol\":16473:16489  address nftBuyer */\n      0x00\n        /* \"NFT-Contracts/contracts/market_pri/NewMarket.sol\":16492:16514  nftContractAuctionSale */\n      0x01\n        /* \"NFT-Contracts/contracts/market_pri/NewMarket.sol\":16492:16535  nftContractAuctionSale[_nftContractAddress] */\n      0x00\n        /* \"NFT-Contracts/contracts/market_pri/NewMarket.sol\":16515:16534  _nftContractAddress */\n      dup9\n        /* \"NFT-Contracts/contracts/market_pri/NewMarket.sol\":16492:16535  nftContractAuctionSale[_nftContractAddress] */\n      0xffffffffffffffffffffffffffffffffffffffff\n      and\n      0xffffffffffffffffffffffffffffffffffffffff\n      and\n      dup2\n      mstore\n      0x20\n      add\n      swap1\n      dup2\n      mstore\n      0x20\n      add\n      0x00\n      keccak256\n        /* \"NFT-Contracts/contracts/market_pri/NewMarket.sol\":16492:16545  nftContractAuctionSale[_nftContractAddress][_tokenId] */\n      0x00\n        /* \"NFT-Contracts/contracts/market_pri/NewMarket.sol\":16536:16544  _tokenId */\n      dup8\n        /* \"NFT-Contracts/contracts/market_pri/NewMarket.sol\":16492:16545  nftContractAuctionSale[_nftContractAddress][_tokenId] */\n      dup2\n      mstore\n      0x20\n      add\n      swap1\n      dup2\n      mstore\n      0x20\n      add\n      0x00\n      keccak256\n        /* \"NFT-Contracts/contracts/market_pri/NewMarket.sol\":16492:16576  nftContractAuctionSale[_nftContractAddress][_tokenId]\r... */\n      0x04\n      add\n      0x00\n      swap1\n      sload\n      swap1\n      0x0100\n      exp\n      swap1\n      div\n      0xffffffffffffffffffffffffffffffffffffffff\n      and\n        /* \"NFT-Contracts/contracts/market_pri/NewMarket.sol\":16473:16576  address nftBuyer = nftContractAuctionSale[_nftContractAddress][_tokenId]\r... */\n      swap1\n      pop\n        /* \"NFT-Contracts/contracts/market_pri/NewMarket.sol\":16589:16786  _transferNftAndPaySeller(\r... */\n      tag_206\n        /* \"NFT-Contracts/contracts/market_pri/NewMarket.sol\":16628:16647  _nftContractAddress */\n      dup8\n        /* \"NFT-Contracts/contracts/market_pri/NewMarket.sol\":16662:16670  _tokenId */\n      dup8\n        /* \"NFT-Contracts/contracts/market_pri/NewMarket.sol\":16685:16707  nftContractAuctionSale */\n      0x01\n        /* \"NFT-Contracts/contracts/market_pri/NewMarket.sol\":16685:16728  nftContractAuctionSale[_nftContractAddress] */\n      0x00\n        /* \"NFT-Contracts/contracts/market_pri/NewMarket.sol\":16708:16727  _nftContractAddress */\n      dup12\n        /* \"NFT-Contracts/contracts/market_pri/NewMarket.sol\":16685:16728  nftContractAuctionSale[_nftContractAddress] */\n      0xffffffffffffffffffffffffffffffffffffffff\n      and\n      0xffffffffffffffffffffffffffffffffffffffff\n      and\n      dup2\n      mstore\n      0x20\n      add\n      swap1\n      dup2\n      mstore\n      0x20\n      add\n      0x00\n      keccak256\n        /* \"NFT-Contracts/contracts/market_pri/NewMarket.sol\":16685:16738  nftContractAuctionSale[_nftContractAddress][_tokenId] */\n      0x00\n        /* \"NFT-Contracts/contracts/market_pri/NewMarket.sol\":16729:16737  _tokenId */\n      dup11\n        /* \"NFT-Contracts/contracts/market_pri/NewMarket.sol\":16685:16738  nftContractAuctionSale[_nftContractAddress][_tokenId] */\n      dup2\n      mstore\n      0x20\n      add\n      swap1\n      dup2\n      mstore\n      0x20\n      add\n      0x00\n      keccak256\n        /* \"NFT-Contracts/contracts/market_pri/NewMarket.sol\":16685:16752  nftContractAuctionSale[_nftContractAddress][_tokenId].nftHighestBid */\n      0x03\n      add\n      sload\n        /* \"NFT-Contracts/contracts/market_pri/NewMarket.sol\":16767:16775  nftBuyer */\n      dup5\n        /* \"NFT-Contracts/contracts/market_pri/NewMarket.sol\":16589:16613  _transferNftAndPaySeller */\n      tag_207\n        /* \"NFT-Contracts/contracts/market_pri/NewMarket.sol\":16589:16786  _transferNftAndPaySeller(\r... */\n      jump\t// in\n    tag_206:\n        /* \"NFT-Contracts/contracts/market_pri/NewMarket.sol\":16860:16861  0 */\n      0x00\n        /* \"NFT-Contracts/contracts/market_pri/NewMarket.sol\":16799:16816  userBidPriceOnNFT */\n      0x03\n        /* \"NFT-Contracts/contracts/market_pri/NewMarket.sol\":16799:16837  userBidPriceOnNFT[_nftContractAddress] */\n      0x00\n        /* \"NFT-Contracts/contracts/market_pri/NewMarket.sol\":16817:16836  _nftContractAddress */\n      dup10\n        /* \"NFT-Contracts/contracts/market_pri/NewMarket.sol\":16799:16837  userBidPriceOnNFT[_nftContractAddress] */\n      0xffffffffffffffffffffffffffffffffffffffff\n      and\n      0xffffffffffffffffffffffffffffffffffffffff\n      and\n      dup2\n      mstore\n      0x20\n      add\n      swap1\n      dup2\n      mstore\n      0x20\n      add\n      0x00\n      keccak256\n        /* \"NFT-Contracts/contracts/market_pri/NewMarket.sol\":16799:16847  userBidPriceOnNFT[_nftContractAddress][_tokenId] */\n      0x00\n        /* \"NFT-Contracts/contracts/market_pri/NewMarket.sol\":16838:16846  _tokenId */\n      dup9\n        /* \"NFT-Contracts/contracts/market_pri/NewMarket.sol\":16799:16847  userBidPriceOnNFT[_nftContractAddress][_tokenId] */\n      dup2\n      mstore\n      0x20\n      add\n      swap1\n      dup2\n      mstore\n      0x20\n      add\n      0x00\n      keccak256\n        /* \"NFT-Contracts/contracts/market_pri/NewMarket.sol\":16799:16857  userBidPriceOnNFT[_nftContractAddress][_tokenId][nftBuyer] */\n      0x00\n        /* \"NFT-Contracts/contracts/market_pri/NewMarket.sol\":16848:16856  nftBuyer */\n      dup4\n        /* \"NFT-Contracts/contracts/market_pri/NewMarket.sol\":16799:16857  userBidPriceOnNFT[_nftContractAddress][_tokenId][nftBuyer] */\n      0xffffffffffffffffffffffffffffffffffffffff\n      and\n      0xffffffffffffffffffffffffffffffffffffffff\n      and\n      dup2\n      mstore\n      0x20\n      add\n      swap1\n      dup2\n      mstore\n      0x20\n      add\n      0x00\n      keccak256\n        /* \"NFT-Contracts/contracts/market_pri/NewMarket.sol\":16799:16861  userBidPriceOnNFT[_nftContractAddress][_tokenId][nftBuyer] = 0 */\n      dup2\n      swap1\n      sstore\n      pop\n        /* \"NFT-Contracts/contracts/market_pri/NewMarket.sol\":16879:17146  NftAuctionSettle(\r... */\n      0xb31cb4f6609b11a57d1b6b14cc3f81f4b3e609f709a5b1e46892a45f9cc29ed8\n        /* \"NFT-Contracts/contracts/market_pri/NewMarket.sol\":16910:16929  _nftContractAddress */\n      dup8\n        /* \"NFT-Contracts/contracts/market_pri/NewMarket.sol\":16944:16952  _tokenId */\n      dup8\n        /* \"NFT-Contracts/contracts/market_pri/NewMarket.sol\":16967:16975  nftBuyer */\n      dup4\n        /* \"NFT-Contracts/contracts/market_pri/NewMarket.sol\":16990:17012  nftContractAuctionSale */\n      0x01\n        /* \"NFT-Contracts/contracts/market_pri/NewMarket.sol\":16990:17033  nftContractAuctionSale[_nftContractAddress] */\n      0x00\n        /* \"NFT-Contracts/contracts/market_pri/NewMarket.sol\":17013:17032  _nftContractAddress */\n      dup13\n        /* \"NFT-Contracts/contracts/market_pri/NewMarket.sol\":16990:17033  nftContractAuctionSale[_nftContractAddress] */\n      0xffffffffffffffffffffffffffffffffffffffff\n      and\n      0xffffffffffffffffffffffffffffffffffffffff\n      and\n      dup2\n      mstore\n      0x20\n      add\n      swap1\n      dup2\n      mstore\n      0x20\n      add\n      0x00\n      keccak256\n        /* \"NFT-Contracts/contracts/market_pri/NewMarket.sol\":16990:17043  nftContractAuctionSale[_nftContractAddress][_tokenId] */\n      0x00\n        /* \"NFT-Contracts/contracts/market_pri/NewMarket.sol\":17034:17042  _tokenId */\n      dup12\n        /* \"NFT-Contracts/contracts/market_pri/NewMarket.sol\":16990:17043  nftContractAuctionSale[_nftContractAddress][_tokenId] */\n      dup2\n      mstore\n      0x20\n      add\n      swap1\n      dup2\n      mstore\n      0x20\n      add\n      0x00\n      keccak256\n        /* \"NFT-Contracts/contracts/market_pri/NewMarket.sol\":16990:17057  nftContractAuctionSale[_nftContractAddress][_tokenId].nftHighestBid */\n      0x03\n      add\n      sload\n        /* \"NFT-Contracts/contracts/market_pri/NewMarket.sol\":17072:17094  nftContractAuctionSale */\n      0x01\n        /* \"NFT-Contracts/contracts/market_pri/NewMarket.sol\":17072:17115  nftContractAuctionSale[_nftContractAddress] */\n      0x00\n        /* \"NFT-Contracts/contracts/market_pri/NewMarket.sol\":17095:17114  _nftContractAddress */\n      dup14\n        /* \"NFT-Contracts/contracts/market_pri/NewMarket.sol\":17072:17115  nftContractAuctionSale[_nftContractAddress] */\n      0xffffffffffffffffffffffffffffffffffffffff\n      and\n      0xffffffffffffffffffffffffffffffffffffffff\n      and\n      dup2\n      mstore\n      0x20\n      add\n      swap1\n      dup2\n      mstore\n      0x20\n      add\n      0x00\n      keccak256\n        /* \"NFT-Contracts/contracts/market_pri/NewMarket.sol\":17072:17125  nftContractAuctionSale[_nftContractAddress][_tokenId] */\n      0x00\n        /* \"NFT-Contracts/contracts/market_pri/NewMarket.sol\":17116:17124  _tokenId */\n      dup13\n        /* \"NFT-Contracts/contracts/market_pri/NewMarket.sol\":17072:17125  nftContractAuctionSale[_nftContractAddress][_tokenId] */\n      dup2\n      mstore\n      0x20\n      add\n      swap1\n      dup2\n      mstore\n      0x20\n      add\n      0x00\n      keccak256\n        /* \"NFT-Contracts/contracts/market_pri/NewMarket.sol\":17072:17135  nftContractAuctionSale[_nftContractAddress][_tokenId].nftSeller */\n      0x05\n      add\n      0x00\n      swap1\n      sload\n      swap1\n      0x0100\n      exp\n      swap1\n      div\n      0xffffffffffffffffffffffffffffffffffffffff\n      and\n        /* \"NFT-Contracts/contracts/market_pri/NewMarket.sol\":16879:17146  NftAuctionSettle(\r... */\n      mload(0x40)\n      tag_208\n      swap6\n      swap5\n      swap4\n      swap3\n      swap2\n      swap1\n      tag_209\n      jump\t// in\n    tag_208:\n      mload(0x40)\n      dup1\n      swap2\n      sub\n      swap1\n      log1\n        /* \"NFT-Contracts/contracts/market_pri/NewMarket.sol\":16462:17154  {\r... */\n      pop\n        /* \"NFT-Contracts/contracts/market_pri/NewMarket.sol\":3662:3663  _ */\n      pop\n      pop\n        /* \"NFT-Contracts/contracts/market_pri/NewMarket.sol\":16256:17154  function settleAuction(address _nftContractAddress, uint256 _tokenId)\r... */\n      pop\n      pop\n      pop\n      pop\n      jump\t// out\n        /* \"NFT-Contracts/contracts/market_pri/NewMarket.sol\":868:936  mapping(address => mapping(uint256 => uint256)) public nftSaleStatus */\n    tag_63:\n      mstore(0x20, 0x02)\n      dup2\n      0x00\n      mstore\n      mstore(0x20, keccak256(0x00, 0x40))\n      dup1\n      0x00\n      mstore\n      keccak256(0x00, 0x40)\n      0x00\n      swap2\n      pop\n      swap2\n      pop\n      pop\n      sload\n      dup2\n      jump\t// out\n        /* \"NFT-Contracts/contracts/market_pri/NewMarket.sol\":7924:9059  function nftFixedSale(\r... */\n    tag_70:\n        /* \"NFT-Contracts/contracts/market_pri/NewMarket.sol\":8118:8137  _nftContractAddress */\n      dup4\n        /* \"NFT-Contracts/contracts/market_pri/NewMarket.sol\":8139:8147  _tokenId */\n      dup3\n        /* \"NFT-Contracts/contracts/market_pri/NewMarket.sol\":3809:3828  _nftContractAddress */\n      dup2\n        /* \"NFT-Contracts/contracts/market_pri/NewMarket.sol\":3801:3837  IERC721(_nftContractAddress).ownerOf */\n      0xffffffffffffffffffffffffffffffffffffffff\n      and\n      0x6352211e\n        /* \"NFT-Contracts/contracts/market_pri/NewMarket.sol\":3838:3846  _tokenId */\n      dup3\n        /* \"NFT-Contracts/contracts/market_pri/NewMarket.sol\":3801:3847  IERC721(_nftContractAddress).ownerOf(_tokenId) */\n      mload(0x40)\n      dup3\n      0xffffffff\n      and\n      0xe0\n      shl\n      dup2\n      mstore\n      0x04\n      add\n      tag_211\n      swap2\n      swap1\n      tag_65\n      jump\t// in\n    tag_211:\n      0x20\n      mload(0x40)\n      dup1\n      dup4\n      sub\n      dup2\n      dup7\n      dup1\n      extcodesize\n      iszero\n      dup1\n      iszero\n      tag_212\n      jumpi\n      0x00\n      dup1\n      revert\n    tag_212:\n      pop\n      gas\n      staticcall\n      iszero\n      dup1\n      iszero\n      tag_214\n      jumpi\n      returndatasize\n      0x00\n      dup1\n      returndatacopy\n      revert(0x00, returndatasize)\n    tag_214:\n      pop\n      pop\n      pop\n      pop\n      mload(0x40)\n      returndatasize\n      not(0x1f)\n      0x1f\n      dup3\n      add\n      and\n      dup3\n      add\n      dup1\n      0x40\n      mstore\n      pop\n      dup2\n      add\n      swap1\n      tag_215\n      swap2\n      swap1\n      tag_216\n      jump\t// in\n    tag_215:\n        /* \"NFT-Contracts/contracts/market_pri/NewMarket.sol\":3787:3847  msg.sender == IERC721(_nftContractAddress).ownerOf(_tokenId) */\n      0xffffffffffffffffffffffffffffffffffffffff\n      and\n        /* \"NFT-Contracts/contracts/market_pri/NewMarket.sol\":3787:3797  msg.sender */\n      caller\n        /* \"NFT-Contracts/contracts/market_pri/NewMarket.sol\":3787:3847  msg.sender == IERC721(_nftContractAddress).ownerOf(_tokenId) */\n      0xffffffffffffffffffffffffffffffffffffffff\n      and\n      eq\n        /* \"NFT-Contracts/contracts/market_pri/NewMarket.sol\":3765:3896  require(\r... */\n      tag_217\n      jumpi\n      mload(0x40)\n      0x08c379a000000000000000000000000000000000000000000000000000000000\n      dup2\n      mstore\n      0x04\n      add\n      tag_218\n      swap1\n      tag_179\n      jump\t// in\n    tag_218:\n      mload(0x40)\n      dup1\n      swap2\n      sub\n      swap1\n      revert\n    tag_217:\n        /* \"NFT-Contracts/contracts/market_pri/NewMarket.sol\":8177:8196  _nftContractAddress */\n      dup6\n        /* \"NFT-Contracts/contracts/market_pri/NewMarket.sol\":8198:8206  _tokenId */\n      dup5\n        /* \"NFT-Contracts/contracts/market_pri/NewMarket.sol\":3135:3136  0 */\n      0x00\n        /* \"NFT-Contracts/contracts/market_pri/NewMarket.sol\":3087:3100  nftSaleStatus */\n      0x02\n        /* \"NFT-Contracts/contracts/market_pri/NewMarket.sol\":3087:3121  nftSaleStatus[_nftContractAddress] */\n      0x00\n        /* \"NFT-Contracts/contracts/market_pri/NewMarket.sol\":3101:3120  _nftContractAddress */\n      dup5\n        /* \"NFT-Contracts/contracts/market_pri/NewMarket.sol\":3087:3121  nftSaleStatus[_nftContractAddress] */\n      0xffffffffffffffffffffffffffffffffffffffff\n      and\n      0xffffffffffffffffffffffffffffffffffffffff\n      and\n      dup2\n      mstore\n      0x20\n      add\n      swap1\n      dup2\n      mstore\n      0x20\n      add\n      0x00\n      keccak256\n        /* \"NFT-Contracts/contracts/market_pri/NewMarket.sol\":3087:3131  nftSaleStatus[_nftContractAddress][_tokenId] */\n      0x00\n        /* \"NFT-Contracts/contracts/market_pri/NewMarket.sol\":3122:3130  _tokenId */\n      dup4\n        /* \"NFT-Contracts/contracts/market_pri/NewMarket.sol\":3087:3131  nftSaleStatus[_nftContractAddress][_tokenId] */\n      dup2\n      mstore\n      0x20\n      add\n      swap1\n      dup2\n      mstore\n      0x20\n      add\n      0x00\n      keccak256\n      sload\n        /* \"NFT-Contracts/contracts/market_pri/NewMarket.sol\":3087:3136  nftSaleStatus[_nftContractAddress][_tokenId] == 0 */\n      eq\n        /* \"NFT-Contracts/contracts/market_pri/NewMarket.sol\":3065:3183  require(\r... */\n      tag_220\n      jumpi\n      mload(0x40)\n      0x08c379a000000000000000000000000000000000000000000000000000000000\n      dup2\n      mstore\n      0x04\n      add\n      tag_221\n      swap1\n      tag_222\n      jump\t// in\n    tag_221:\n      mload(0x40)\n      dup1\n      swap2\n      sub\n      swap1\n      revert\n    tag_220:\n        /* \"NFT-Contracts/contracts/market_pri/NewMarket.sol\":8235:8254  _nftContractAddress */\n      dup8\n        /* \"NFT-Contracts/contracts/market_pri/NewMarket.sol\":8256:8264  _tokenId */\n      dup7\n        /* \"NFT-Contracts/contracts/market_pri/NewMarket.sol\":4316:4335  _nftContractAddress */\n      dup2\n        /* \"NFT-Contracts/contracts/market_pri/NewMarket.sol\":4308:4353  IERC721(_nftContractAddress).isApprovedForAll */\n      0xffffffffffffffffffffffffffffffffffffffff\n      and\n      0xe985e9c5\n        /* \"NFT-Contracts/contracts/market_pri/NewMarket.sol\":4372:4382  msg.sender */\n      caller\n        /* \"NFT-Contracts/contracts/market_pri/NewMarket.sol\":4409:4413  this */\n      address\n        /* \"NFT-Contracts/contracts/market_pri/NewMarket.sol\":4308:4429  IERC721(_nftContractAddress).isApprovedForAll(\r... */\n      mload(0x40)\n      dup4\n      0xffffffff\n      and\n      0xe0\n      shl\n      dup2\n      mstore\n      0x04\n      add\n      tag_224\n      swap3\n      swap2\n      swap1\n      tag_225\n      jump\t// in\n    tag_224:\n      0x20\n      mload(0x40)\n      dup1\n      dup4\n      sub\n      dup2\n      dup7\n      dup1\n      extcodesize\n      iszero\n      dup1\n      iszero\n      tag_226\n      jumpi\n      0x00\n      dup1\n      revert\n    tag_226:\n      pop\n      gas\n      staticcall\n      iszero\n      dup1\n      iszero\n      tag_228\n      jumpi\n      returndatasize\n      0x00\n      dup1\n      returndatacopy\n      revert(0x00, returndatasize)\n    tag_228:\n      pop\n      pop\n      pop\n      pop\n      mload(0x40)\n      returndatasize\n      not(0x1f)\n      0x1f\n      dup3\n      add\n      and\n      dup3\n      add\n      dup1\n      0x40\n      mstore\n      pop\n      dup2\n      add\n      swap1\n      tag_229\n      swap2\n      swap1\n      tag_122\n      jump\t// in\n    tag_229:\n        /* \"NFT-Contracts/contracts/market_pri/NewMarket.sol\":4286:4485  require(\r... */\n      tag_230\n      jumpi\n      mload(0x40)\n      0x08c379a000000000000000000000000000000000000000000000000000000000\n      dup2\n      mstore\n      0x04\n      add\n      tag_231\n      swap1\n      tag_232\n      jump\t// in\n    tag_231:\n      mload(0x40)\n      dup1\n      swap2\n      sub\n      swap1\n      revert\n    tag_230:\n        /* \"NFT-Contracts/contracts/market_pri/NewMarket.sol\":8296:8306  _salePrice */\n      dup7\n        /* \"NFT-Contracts/contracts/market_pri/NewMarket.sol\":7848:7849  0 */\n      0x00\n        /* \"NFT-Contracts/contracts/market_pri/NewMarket.sol\":7839:7845  _price */\n      dup2\n        /* \"NFT-Contracts/contracts/market_pri/NewMarket.sol\":7839:7849  _price > 0 */\n      gt\n        /* \"NFT-Contracts/contracts/market_pri/NewMarket.sol\":7831:7871  require(_price > 0, \"Price cannot be 0\") */\n      tag_234\n      jumpi\n      mload(0x40)\n      0x08c379a000000000000000000000000000000000000000000000000000000000\n      dup2\n      mstore\n      0x04\n      add\n      tag_235\n      swap1\n      tag_135\n      jump\t// in\n    tag_235:\n      mload(0x40)\n      dup1\n      swap2\n      sub\n      swap1\n      revert\n    tag_234:\n        /* \"NFT-Contracts/contracts/market_pri/NewMarket.sol\":8378:8494  FixedSale(\r... */\n      mload(0x40)\n      dup1\n      0x80\n      add\n      0x40\n      mstore\n      dup1\n        /* \"NFT-Contracts/contracts/market_pri/NewMarket.sol\":8402:8412  msg.sender */\n      caller\n        /* \"NFT-Contracts/contracts/market_pri/NewMarket.sol\":8378:8494  FixedSale(\r... */\n      0xffffffffffffffffffffffffffffffffffffffff\n      and\n      dup2\n      mstore\n      0x20\n      add\n        /* \"NFT-Contracts/contracts/market_pri/NewMarket.sol\":8435:8436  0 */\n      0x00\n        /* \"NFT-Contracts/contracts/market_pri/NewMarket.sol\":8378:8494  FixedSale(\r... */\n      0xffffffffffffffffffffffffffffffffffffffff\n      and\n      dup2\n      mstore\n      0x20\n      add\n        /* \"NFT-Contracts/contracts/market_pri/NewMarket.sol\":8452:8458  _erc20 */\n      dup12\n        /* \"NFT-Contracts/contracts/market_pri/NewMarket.sol\":8378:8494  FixedSale(\r... */\n      0xffffffffffffffffffffffffffffffffffffffff\n      and\n      dup2\n      mstore\n      0x20\n      add\n        /* \"NFT-Contracts/contracts/market_pri/NewMarket.sol\":8473:8483  _salePrice */\n      dup10\n        /* \"NFT-Contracts/contracts/market_pri/NewMarket.sol\":8378:8494  FixedSale(\r... */\n      dup2\n      mstore\n      pop\n        /* \"NFT-Contracts/contracts/market_pri/NewMarket.sol\":8324:8344  nftContractFixedSale */\n      0x00\n        /* \"NFT-Contracts/contracts/market_pri/NewMarket.sol\":8324:8365  nftContractFixedSale[_nftContractAddress] */\n      dup1\n        /* \"NFT-Contracts/contracts/market_pri/NewMarket.sol\":8345:8364  _nftContractAddress */\n      dup14\n        /* \"NFT-Contracts/contracts/market_pri/NewMarket.sol\":8324:8365  nftContractFixedSale[_nftContractAddress] */\n      0xffffffffffffffffffffffffffffffffffffffff\n      and\n      0xffffffffffffffffffffffffffffffffffffffff\n      and\n      dup2\n      mstore\n      0x20\n      add\n      swap1\n      dup2\n      mstore\n      0x20\n      add\n      0x00\n      keccak256\n        /* \"NFT-Contracts/contracts/market_pri/NewMarket.sol\":8324:8375  nftContractFixedSale[_nftContractAddress][_tokenId] */\n      0x00\n        /* \"NFT-Contracts/contracts/market_pri/NewMarket.sol\":8366:8374  _tokenId */\n      dup12\n        /* \"NFT-Contracts/contracts/market_pri/NewMarket.sol\":8324:8375  nftContractFixedSale[_nftContractAddress][_tokenId] */\n      dup2\n      mstore\n      0x20\n      add\n      swap1\n      dup2\n      mstore\n      0x20\n      add\n      0x00\n      keccak256\n        /* \"NFT-Contracts/contracts/market_pri/NewMarket.sol\":8324:8494  nftContractFixedSale[_nftContractAddress][_tokenId] = FixedSale(\r... */\n      0x00\n      dup3\n      add\n      mload\n      dup2\n      0x00\n      add\n      exp(0x0100, 0x00)\n      dup2\n      sload\n      dup2\n      0xffffffffffffffffffffffffffffffffffffffff\n      mul\n      not\n      and\n      swap1\n      dup4\n      0xffffffffffffffffffffffffffffffffffffffff\n      and\n      mul\n      or\n      swap1\n      sstore\n      pop\n      0x20\n      dup3\n      add\n      mload\n      dup2\n      0x01\n      add\n      exp(0x0100, 0x00)\n      dup2\n      sload\n      dup2\n      0xffffffffffffffffffffffffffffffffffffffff\n      mul\n      not\n      and\n      swap1\n      dup4\n      0xffffffffffffffffffffffffffffffffffffffff\n      and\n      mul\n      or\n      swap1\n      sstore\n      pop\n      0x40\n      dup3\n      add\n      mload\n      dup2\n      0x02\n      add\n      exp(0x0100, 0x00)\n      dup2\n      sload\n      dup2\n      0xffffffffffffffffffffffffffffffffffffffff\n      mul\n      not\n      and\n      swap1\n      dup4\n      0xffffffffffffffffffffffffffffffffffffffff\n      and\n      mul\n      or\n      swap1\n      sstore\n      pop\n      0x60\n      dup3\n      add\n      mload\n      dup2\n      0x03\n      add\n      sstore\n      swap1\n      pop\n      pop\n        /* \"NFT-Contracts/contracts/market_pri/NewMarket.sol\":8554:8555  1 */\n      0x01\n        /* \"NFT-Contracts/contracts/market_pri/NewMarket.sol\":8507:8520  nftSaleStatus */\n      0x02\n        /* \"NFT-Contracts/contracts/market_pri/NewMarket.sol\":8507:8541  nftSaleStatus[_nftContractAddress] */\n      0x00\n        /* \"NFT-Contracts/contracts/market_pri/NewMarket.sol\":8521:8540  _nftContractAddress */\n      dup14\n        /* \"NFT-Contracts/contracts/market_pri/NewMarket.sol\":8507:8541  nftSaleStatus[_nftContractAddress] */\n      0xffffffffffffffffffffffffffffffffffffffff\n      and\n      0xffffffffffffffffffffffffffffffffffffffff\n      and\n      dup2\n      mstore\n      0x20\n      add\n      swap1\n      dup2\n      mstore\n      0x20\n      add\n      0x00\n      keccak256\n        /* \"NFT-Contracts/contracts/market_pri/NewMarket.sol\":8507:8551  nftSaleStatus[_nftContractAddress][_tokenId] */\n      0x00\n        /* \"NFT-Contracts/contracts/market_pri/NewMarket.sol\":8542:8550  _tokenId */\n      dup12\n        /* \"NFT-Contracts/contracts/market_pri/NewMarket.sol\":8507:8551  nftSaleStatus[_nftContractAddress][_tokenId] */\n      dup2\n      mstore\n      0x20\n      add\n      swap1\n      dup2\n      mstore\n      0x20\n      add\n      0x00\n      keccak256\n        /* \"NFT-Contracts/contracts/market_pri/NewMarket.sol\":8507:8555  nftSaleStatus[_nftContractAddress][_tokenId] = 1 */\n      dup2\n      swap1\n      sstore\n      pop\n        /* \"NFT-Contracts/contracts/market_pri/NewMarket.sol\":8619:8631  fixedSaleNFT */\n      0x05\n        /* \"NFT-Contracts/contracts/market_pri/NewMarket.sol\":8619:8638  fixedSaleNFT.length */\n      dup1\n      sload\n      swap1\n      pop\n        /* \"NFT-Contracts/contracts/market_pri/NewMarket.sol\":8568:8585  indexFixedSaleNFT */\n      0x04\n        /* \"NFT-Contracts/contracts/market_pri/NewMarket.sol\":8568:8606  indexFixedSaleNFT[_nftContractAddress] */\n      0x00\n        /* \"NFT-Contracts/contracts/market_pri/NewMarket.sol\":8586:8605  _nftContractAddress */\n      dup14\n        /* \"NFT-Contracts/contracts/market_pri/NewMarket.sol\":8568:8606  indexFixedSaleNFT[_nftContractAddress] */\n      0xffffffffffffffffffffffffffffffffffffffff\n      and\n      0xffffffffffffffffffffffffffffffffffffffff\n      and\n      dup2\n      mstore\n      0x20\n      add\n      swap1\n      dup2\n      mstore\n      0x20\n      add\n      0x00\n      keccak256\n        /* \"NFT-Contracts/contracts/market_pri/NewMarket.sol\":8568:8616  indexFixedSaleNFT[_nftContractAddress][_tokenId] */\n      0x00\n        /* \"NFT-Contracts/contracts/market_pri/NewMarket.sol\":8607:8615  _tokenId */\n      dup12\n        /* \"NFT-Contracts/contracts/market_pri/NewMarket.sol\":8568:8616  indexFixedSaleNFT[_nftContractAddress][_tokenId] */\n      dup2\n      mstore\n      0x20\n      add\n      swap1\n      dup2\n      mstore\n      0x20\n      add\n      0x00\n      keccak256\n        /* \"NFT-Contracts/contracts/market_pri/NewMarket.sol\":8568:8638  indexFixedSaleNFT[_nftContractAddress][_tokenId] = fixedSaleNFT.length */\n      dup2\n      swap1\n      sstore\n      pop\n        /* \"NFT-Contracts/contracts/market_pri/NewMarket.sol\":8649:8661  fixedSaleNFT */\n      0x05\n        /* \"NFT-Contracts/contracts/market_pri/NewMarket.sol\":8667:8706  SaleInfo(_nftContractAddress, _tokenId) */\n      mload(0x40)\n      dup1\n      0x40\n      add\n      0x40\n      mstore\n      dup1\n        /* \"NFT-Contracts/contracts/market_pri/NewMarket.sol\":8676:8695  _nftContractAddress */\n      dup14\n        /* \"NFT-Contracts/contracts/market_pri/NewMarket.sol\":8667:8706  SaleInfo(_nftContractAddress, _tokenId) */\n      0xffffffffffffffffffffffffffffffffffffffff\n      and\n      dup2\n      mstore\n      0x20\n      add\n        /* \"NFT-Contracts/contracts/market_pri/NewMarket.sol\":8697:8705  _tokenId */\n      dup12\n        /* \"NFT-Contracts/contracts/market_pri/NewMarket.sol\":8667:8706  SaleInfo(_nftContractAddress, _tokenId) */\n      dup2\n      mstore\n      pop\n        /* \"NFT-Contracts/contracts/market_pri/NewMarket.sol\":8649:8707  fixedSaleNFT.push(SaleInfo(_nftContractAddress, _tokenId)) */\n      swap1\n      dup1\n      0x01\n      dup2\n      sload\n      add\n      dup1\n      dup3\n      sstore\n      dup1\n      swap2\n      pop\n      pop\n      0x01\n      swap1\n      sub\n      swap1\n      0x00\n      mstore\n      keccak256(0x00, 0x20)\n      swap1\n      0x02\n      mul\n      add\n      0x00\n      swap1\n      swap2\n      swap1\n      swap2\n      swap1\n      swap2\n      pop\n      0x00\n      dup3\n      add\n      mload\n      dup2\n      0x00\n      add\n      exp(0x0100, 0x00)\n      dup2\n      sload\n      dup2\n      0xffffffffffffffffffffffffffffffffffffffff\n      mul\n      not\n      and\n      swap1\n      dup4\n      0xffffffffffffffffffffffffffffffffffffffff\n      and\n      mul\n      or\n      swap1\n      sstore\n      pop\n      0x20\n      dup3\n      add\n      mload\n      dup2\n      0x01\n      add\n      sstore\n      pop\n      pop\n        /* \"NFT-Contracts/contracts/market_pri/NewMarket.sol\":8728:8747  _nftContractAddress */\n      dup11\n        /* \"NFT-Contracts/contracts/market_pri/NewMarket.sol\":8720:8765  IERC721(_nftContractAddress).safeTransferFrom */\n      0xffffffffffffffffffffffffffffffffffffffff\n      and\n      0x42842e0e\n        /* \"NFT-Contracts/contracts/market_pri/NewMarket.sol\":8780:8790  msg.sender */\n      caller\n        /* \"NFT-Contracts/contracts/market_pri/NewMarket.sol\":8813:8817  this */\n      address\n        /* \"NFT-Contracts/contracts/market_pri/NewMarket.sol\":8833:8841  _tokenId */\n      dup13\n        /* \"NFT-Contracts/contracts/market_pri/NewMarket.sol\":8720:8852  IERC721(_nftContractAddress).safeTransferFrom(\r... */\n      mload(0x40)\n      dup5\n      0xffffffff\n      and\n      0xe0\n      shl\n      dup2\n      mstore\n      0x04\n      add\n      tag_238\n      swap4\n      swap3\n      swap2\n      swap1\n      tag_117\n      jump\t// in\n    tag_238:\n      0x00\n      mload(0x40)\n      dup1\n      dup4\n      sub\n      dup2\n      0x00\n      dup8\n      dup1\n      extcodesize\n      iszero\n      dup1\n      iszero\n      tag_239\n      jumpi\n      0x00\n      dup1\n      revert\n    tag_239:\n      pop\n      gas\n      call\n      iszero\n      dup1\n      iszero\n      tag_241\n      jumpi\n      returndatasize\n      0x00\n      dup1\n      returndatacopy\n      revert(0x00, returndatasize)\n    tag_241:\n      pop\n      pop\n      pop\n      pop\n        /* \"NFT-Contracts/contracts/market_pri/NewMarket.sol\":8870:9051  NftFixedSale(\r... */\n      0x078eead3cd01ed921c7653d000a6b73aea643a7b9c066fb7d93eb2eae8acc2d9\n        /* \"NFT-Contracts/contracts/market_pri/NewMarket.sol\":8897:8916  _nftContractAddress */\n      dup12\n        /* \"NFT-Contracts/contracts/market_pri/NewMarket.sol\":8931:8941  msg.sender */\n      caller\n        /* \"NFT-Contracts/contracts/market_pri/NewMarket.sol\":8956:8962  _erc20 */\n      dup13\n        /* \"NFT-Contracts/contracts/market_pri/NewMarket.sol\":8977:8985  _tokenId */\n      dup13\n        /* \"NFT-Contracts/contracts/market_pri/NewMarket.sol\":9000:9010  _salePrice */\n      dup13\n        /* \"NFT-Contracts/contracts/market_pri/NewMarket.sol\":9025:9040  block.timestamp */\n      timestamp\n        /* \"NFT-Contracts/contracts/market_pri/NewMarket.sol\":8870:9051  NftFixedSale(\r... */\n      mload(0x40)\n      tag_242\n      swap7\n      swap6\n      swap5\n      swap4\n      swap3\n      swap2\n      swap1\n      tag_243\n      jump\t// in\n    tag_242:\n      mload(0x40)\n      dup1\n      swap2\n      sub\n      swap1\n      log1\n        /* \"NFT-Contracts/contracts/market_pri/NewMarket.sol\":4496:4497  _ */\n      pop\n        /* \"NFT-Contracts/contracts/market_pri/NewMarket.sol\":3194:3195  _ */\n      pop\n      pop\n        /* \"NFT-Contracts/contracts/market_pri/NewMarket.sol\":3907:3908  _ */\n      pop\n      pop\n        /* \"NFT-Contracts/contracts/market_pri/NewMarket.sol\":7924:9059  function nftFixedSale(\r... */\n      pop\n      pop\n      pop\n      pop\n      pop\n      pop\n      jump\t// out\n        /* \"NFT-Contracts/contracts/market_pri/NewMarket.sol\":17928:18152  function getNftAuctionSaleDetails(\r... */\n    tag_74:\n        /* \"NFT-Contracts/contracts/market_pri/NewMarket.sol\":18057:18071  Auction memory */\n      tag_244\n      tag_245\n      jump\t// in\n    tag_244:\n        /* \"NFT-Contracts/contracts/market_pri/NewMarket.sol\":18091:18113  nftContractAuctionSale */\n      0x01\n        /* \"NFT-Contracts/contracts/market_pri/NewMarket.sol\":18091:18134  nftContractAuctionSale[_nftContractAddress] */\n      0x00\n        /* \"NFT-Contracts/contracts/market_pri/NewMarket.sol\":18114:18133  _nftContractAddress */\n      dup5\n        /* \"NFT-Contracts/contracts/market_pri/NewMarket.sol\":18091:18134  nftContractAuctionSale[_nftContractAddress] */\n      0xffffffffffffffffffffffffffffffffffffffff\n      and\n      0xffffffffffffffffffffffffffffffffffffffff\n      and\n      dup2\n      mstore\n      0x20\n      add\n      swap1\n      dup2\n      mstore\n      0x20\n      add\n      0x00\n      keccak256\n        /* \"NFT-Contracts/contracts/market_pri/NewMarket.sol\":18091:18144  nftContractAuctionSale[_nftContractAddress][_tokenId] */\n      0x00\n        /* \"NFT-Contracts/contracts/market_pri/NewMarket.sol\":18135:18143  _tokenId */\n      dup4\n        /* \"NFT-Contracts/contracts/market_pri/NewMarket.sol\":18091:18144  nftContractAuctionSale[_nftContractAddress][_tokenId] */\n      dup2\n      mstore\n      0x20\n      add\n      swap1\n      dup2\n      mstore\n      0x20\n      add\n      0x00\n      keccak256\n        /* \"NFT-Contracts/contracts/market_pri/NewMarket.sol\":18084:18144  return nftContractAuctionSale[_nftContractAddress][_tokenId] */\n      mload(0x40)\n      dup1\n      0xe0\n      add\n      0x40\n      mstore\n      swap1\n      dup2\n      0x00\n      dup3\n      add\n      sload\n      dup2\n      mstore\n      0x20\n      add\n      0x01\n      dup3\n      add\n      sload\n      dup2\n      mstore\n      0x20\n      add\n      0x02\n      dup3\n      add\n      sload\n      dup2\n      mstore\n      0x20\n      add\n      0x03\n      dup3\n      add\n      sload\n      dup2\n      mstore\n      0x20\n      add\n      0x04\n      dup3\n      add\n      0x00\n      swap1\n      sload\n      swap1\n      0x0100\n      exp\n      swap1\n      div\n      0xffffffffffffffffffffffffffffffffffffffff\n      and\n      0xffffffffffffffffffffffffffffffffffffffff\n      and\n      0xffffffffffffffffffffffffffffffffffffffff\n      and\n      dup2\n      mstore\n      0x20\n      add\n      0x05\n      dup3\n      add\n      0x00\n      swap1\n      sload\n      swap1\n      0x0100\n      exp\n      swap1\n      div\n      0xffffffffffffffffffffffffffffffffffffffff\n      and\n      0xffffffffffffffffffffffffffffffffffffffff\n      and\n      0xffffffffffffffffffffffffffffffffffffffff\n      and\n      dup2\n      mstore\n      0x20\n      add\n      0x06\n      dup3\n      add\n      0x00\n      swap1\n      sload\n      swap1\n      0x0100\n      exp\n      swap1\n      div\n      0xffffffffffffffffffffffffffffffffffffffff\n      and\n      0xffffffffffffffffffffffffffffffffffffffff\n      and\n      0xffffffffffffffffffffffffffffffffffffffff\n      and\n      dup2\n      mstore\n      pop\n      pop\n      swap1\n      pop\n        /* \"NFT-Contracts/contracts/market_pri/NewMarket.sol\":17928:18152  function getNftAuctionSaleDetails(\r... */\n      swap3\n      swap2\n      pop\n      pop\n      jump\t// out\n        /* \"NFT-Contracts/contracts/market_pri/NewMarket.sol\":943:1044  mapping(address => mapping(uint256 => mapping(address => uint256)))\r... */\n    tag_81:\n      mstore(0x20, 0x03)\n      dup3\n      0x00\n      mstore\n      mstore(0x20, keccak256(0x00, 0x40))\n      dup2\n      0x00\n      mstore\n      mstore(0x20, keccak256(0x00, 0x40))\n      dup1\n      0x00\n      mstore\n      keccak256(0x00, 0x40)\n      0x00\n      swap3\n      pop\n      swap3\n      pop\n      pop\n      pop\n      sload\n      dup2\n      jump\t// out\n        /* \"NFT-Contracts/contracts/market_pri/NewMarket.sol\":10536:10825  function Sell_AreveaToken(address _erc20_contract, address seller, uint256 _amount) public returns (bool){\r... */\n    tag_86:\n        /* \"NFT-Contracts/contracts/market_pri/NewMarket.sol\":10636:10640  bool */\n      0x00\n        /* \"NFT-Contracts/contracts/market_pri/NewMarket.sol\":10650:10673  address  ERC20_contract */\n      dup1\n        /* \"NFT-Contracts/contracts/market_pri/NewMarket.sol\":10675:10690  _erc20_contract */\n      dup5\n        /* \"NFT-Contracts/contracts/market_pri/NewMarket.sol\":10650:10690  address  ERC20_contract= _erc20_contract */\n      swap1\n      pop\n        /* \"NFT-Contracts/contracts/market_pri/NewMarket.sol\":10706:10720  ERC20_contract */\n      dup1\n        /* \"NFT-Contracts/contracts/market_pri/NewMarket.sol\":10699:10734  IERC20(ERC20_contract).transferFrom */\n      0xffffffffffffffffffffffffffffffffffffffff\n      and\n      0x23b872dd\n        /* \"NFT-Contracts/contracts/market_pri/NewMarket.sol\":10735:10741  seller */\n      dup6\n        /* \"NFT-Contracts/contracts/market_pri/NewMarket.sol\":10743:10785  0x2258c5b9C82ff0Fa923756ED3FD2aCb5616dF57c */\n      0x2258c5b9c82ff0fa923756ed3fd2acb5616df57c\n        /* \"NFT-Contracts/contracts/market_pri/NewMarket.sol\":10787:10794  _amount */\n      dup7\n        /* \"NFT-Contracts/contracts/market_pri/NewMarket.sol\":10699:10795  IERC20(ERC20_contract).transferFrom(seller, 0x2258c5b9C82ff0Fa923756ED3FD2aCb5616dF57c, _amount) */\n      mload(0x40)\n      dup5\n      0xffffffff\n      and\n      0xe0\n      shl\n      dup2\n      mstore\n      0x04\n      add\n      tag_248\n      swap4\n      swap3\n      swap2\n      swap1\n      tag_117\n      jump\t// in\n    tag_248:\n      0x20\n      mload(0x40)\n      dup1\n      dup4\n      sub\n      dup2\n      0x00\n      dup8\n      dup1\n      extcodesize\n      iszero\n      dup1\n      iszero\n      tag_249\n      jumpi\n      0x00\n      dup1\n      revert\n    tag_249:\n      pop\n      gas\n      call\n      iszero\n      dup1\n      iszero\n      tag_251\n      jumpi\n      returndatasize\n      0x00\n      dup1\n      returndatacopy\n      revert(0x00, returndatasize)\n    tag_251:\n      pop\n      pop\n      pop\n      pop\n      mload(0x40)\n      returndatasize\n      not(0x1f)\n      0x1f\n      dup3\n      add\n      and\n      dup3\n      add\n      dup1\n      0x40\n      mstore\n      pop\n      dup2\n      add\n      swap1\n      tag_252\n      swap2\n      swap1\n      tag_122\n      jump\t// in\n    tag_252:\n      pop\n        /* \"NFT-Contracts/contracts/market_pri/NewMarket.sol\":10811:10815  true */\n      0x01\n        /* \"NFT-Contracts/contracts/market_pri/NewMarket.sol\":10804:10816  return(true) */\n      swap2\n      pop\n      pop\n        /* \"NFT-Contracts/contracts/market_pri/NewMarket.sol\":10536:10825  function Sell_AreveaToken(address _erc20_contract, address seller, uint256 _amount) public returns (bool){\r... */\n      swap4\n      swap3\n      pop\n      pop\n      pop\n      jump\t// out\n        /* \"NFT-Contracts/contracts/market_pri/NewMarket.sol\":15619:16248  function _cancelAuctionSale(address _nftContractAddress, uint256 _tokenId)\r... */\n    tag_91:\n        /* \"NFT-Contracts/contracts/market_pri/NewMarket.sol\":15740:15759  _nftContractAddress */\n      dup2\n        /* \"NFT-Contracts/contracts/market_pri/NewMarket.sol\":15761:15769  _tokenId */\n      dup2\n        /* \"NFT-Contracts/contracts/market_pri/NewMarket.sol\":3599:3600  2 */\n      0x02\n        /* \"NFT-Contracts/contracts/market_pri/NewMarket.sol\":3551:3564  nftSaleStatus */\n      dup1\n        /* \"NFT-Contracts/contracts/market_pri/NewMarket.sol\":3551:3585  nftSaleStatus[_nftContractAddress] */\n      0x00\n        /* \"NFT-Contracts/contracts/market_pri/NewMarket.sol\":3565:3584  _nftContractAddress */\n      dup5\n        /* \"NFT-Contracts/contracts/market_pri/NewMarket.sol\":3551:3585  nftSaleStatus[_nftContractAddress] */\n      0xffffffffffffffffffffffffffffffffffffffff\n      and\n      0xffffffffffffffffffffffffffffffffffffffff\n      and\n      dup2\n      mstore\n      0x20\n      add\n      swap1\n      dup2\n      mstore\n      0x20\n      add\n      0x00\n      keccak256\n        /* \"NFT-Contracts/contracts/market_pri/NewMarket.sol\":3551:3595  nftSaleStatus[_nftContractAddress][_tokenId] */\n      0x00\n        /* \"NFT-Contracts/contracts/market_pri/NewMarket.sol\":3586:3594  _tokenId */\n      dup4\n        /* \"NFT-Contracts/contracts/market_pri/NewMarket.sol\":3551:3595  nftSaleStatus[_nftContractAddress][_tokenId] */\n      dup2\n      mstore\n      0x20\n      add\n      swap1\n      dup2\n      mstore\n      0x20\n      add\n      0x00\n      keccak256\n      sload\n        /* \"NFT-Contracts/contracts/market_pri/NewMarket.sol\":3551:3600  nftSaleStatus[_nftContractAddress][_tokenId] == 2 */\n      eq\n        /* \"NFT-Contracts/contracts/market_pri/NewMarket.sol\":3529:3651  require(\r... */\n      tag_254\n      jumpi\n      mload(0x40)\n      0x08c379a000000000000000000000000000000000000000000000000000000000\n      dup2\n      mstore\n      0x04\n      add\n      tag_255\n      swap1\n      tag_127\n      jump\t// in\n    tag_255:\n      mload(0x40)\n      dup1\n      swap2\n      sub\n      swap1\n      revert\n    tag_254:\n        /* \"NFT-Contracts/contracts/market_pri/NewMarket.sol\":15802:15821  _nftContractAddress */\n      dup4\n        /* \"NFT-Contracts/contracts/market_pri/NewMarket.sol\":15823:15831  _tokenId */\n      dup4\n        /* \"NFT-Contracts/contracts/market_pri/NewMarket.sol\":6088:6110  nftContractAuctionSale */\n      0x01\n        /* \"NFT-Contracts/contracts/market_pri/NewMarket.sol\":6088:6131  nftContractAuctionSale[_nftContractAddress] */\n      0x00\n        /* \"NFT-Contracts/contracts/market_pri/NewMarket.sol\":6111:6130  _nftContractAddress */\n      dup4\n        /* \"NFT-Contracts/contracts/market_pri/NewMarket.sol\":6088:6131  nftContractAuctionSale[_nftContractAddress] */\n      0xffffffffffffffffffffffffffffffffffffffff\n      and\n      0xffffffffffffffffffffffffffffffffffffffff\n      and\n      dup2\n      mstore\n      0x20\n      add\n      swap1\n      dup2\n      mstore\n      0x20\n      add\n      0x00\n      keccak256\n        /* \"NFT-Contracts/contracts/market_pri/NewMarket.sol\":6088:6141  nftContractAuctionSale[_nftContractAddress][_tokenId] */\n      0x00\n        /* \"NFT-Contracts/contracts/market_pri/NewMarket.sol\":6132:6140  _tokenId */\n      dup3\n        /* \"NFT-Contracts/contracts/market_pri/NewMarket.sol\":6088:6141  nftContractAuctionSale[_nftContractAddress][_tokenId] */\n      dup2\n      mstore\n      0x20\n      add\n      swap1\n      dup2\n      mstore\n      0x20\n      add\n      0x00\n      keccak256\n        /* \"NFT-Contracts/contracts/market_pri/NewMarket.sol\":6088:6151  nftContractAuctionSale[_nftContractAddress][_tokenId].nftSeller */\n      0x05\n      add\n      0x00\n      swap1\n      sload\n      swap1\n      0x0100\n      exp\n      swap1\n      div\n      0xffffffffffffffffffffffffffffffffffffffff\n      and\n        /* \"NFT-Contracts/contracts/market_pri/NewMarket.sol\":6057:6151  msg.sender ==\r... */\n      0xffffffffffffffffffffffffffffffffffffffff\n      and\n        /* \"NFT-Contracts/contracts/market_pri/NewMarket.sol\":6057:6067  msg.sender */\n      caller\n        /* \"NFT-Contracts/contracts/market_pri/NewMarket.sol\":6057:6151  msg.sender ==\r... */\n      0xffffffffffffffffffffffffffffffffffffffff\n      and\n      eq\n        /* \"NFT-Contracts/contracts/market_pri/NewMarket.sol\":6035:6192  require(\r... */\n      tag_257\n      jumpi\n      mload(0x40)\n      0x08c379a000000000000000000000000000000000000000000000000000000000\n      dup2\n      mstore\n      0x04\n      add\n      tag_258\n      swap1\n      tag_259\n      jump\t// in\n    tag_258:\n      mload(0x40)\n      dup1\n      swap2\n      sub\n      swap1\n      revert\n    tag_257:\n        /* \"NFT-Contracts/contracts/market_pri/NewMarket.sol\":15859:15878  _nftContractAddress */\n      dup6\n        /* \"NFT-Contracts/contracts/market_pri/NewMarket.sol\":15880:15888  _tokenId */\n      dup6\n        /* \"NFT-Contracts/contracts/market_pri/NewMarket.sol\":5768:5790  nftContractAuctionSale */\n      0x01\n        /* \"NFT-Contracts/contracts/market_pri/NewMarket.sol\":5768:5811  nftContractAuctionSale[_nftContractAddress] */\n      0x00\n        /* \"NFT-Contracts/contracts/market_pri/NewMarket.sol\":5791:5810  _nftContractAddress */\n      dup4\n        /* \"NFT-Contracts/contracts/market_pri/NewMarket.sol\":5768:5811  nftContractAuctionSale[_nftContractAddress] */\n      0xffffffffffffffffffffffffffffffffffffffff\n      and\n      0xffffffffffffffffffffffffffffffffffffffff\n      and\n      dup2\n      mstore\n      0x20\n      add\n      swap1\n      dup2\n      mstore\n      0x20\n      add\n      0x00\n      keccak256\n        /* \"NFT-Contracts/contracts/market_pri/NewMarket.sol\":5768:5821  nftContractAuctionSale[_nftContractAddress][_tokenId] */\n      0x00\n        /* \"NFT-Contracts/contracts/market_pri/NewMarket.sol\":5812:5820  _tokenId */\n      dup3\n        /* \"NFT-Contracts/contracts/market_pri/NewMarket.sol\":5768:5821  nftContractAuctionSale[_nftContractAddress][_tokenId] */\n      dup2\n      mstore\n      0x20\n      add\n      swap1\n      dup2\n      mstore\n      0x20\n      add\n      0x00\n      keccak256\n        /* \"NFT-Contracts/contracts/market_pri/NewMarket.sol\":5768:5854  nftContractAuctionSale[_nftContractAddress][_tokenId]\r... */\n      0x01\n      add\n      sload\n        /* \"NFT-Contracts/contracts/market_pri/NewMarket.sol\":5733:5748  block.timestamp */\n      timestamp\n        /* \"NFT-Contracts/contracts/market_pri/NewMarket.sol\":5733:5854  block.timestamp <\r... */\n      lt\n        /* \"NFT-Contracts/contracts/market_pri/NewMarket.sol\":5711:5893  require(\r... */\n      tag_261\n      jumpi\n      mload(0x40)\n      0x08c379a000000000000000000000000000000000000000000000000000000000\n      dup2\n      mstore\n      0x04\n      add\n      tag_262\n      swap1\n      tag_131\n      jump\t// in\n    tag_262:\n      mload(0x40)\n      dup1\n      swap2\n      sub\n      swap1\n      revert\n    tag_261:\n        /* \"NFT-Contracts/contracts/market_pri/NewMarket.sol\":15919:15938  _nftContractAddress */\n      dup8\n        /* \"NFT-Contracts/contracts/market_pri/NewMarket.sol\":15940:15948  _tokenId */\n      dup8\n        /* \"NFT-Contracts/contracts/market_pri/NewMarket.sol\":7287:7309  nftContractAuctionSale */\n      0x01\n        /* \"NFT-Contracts/contracts/market_pri/NewMarket.sol\":7287:7330  nftContractAuctionSale[_nftContractAddress] */\n      0x00\n        /* \"NFT-Contracts/contracts/market_pri/NewMarket.sol\":7310:7329  _nftContractAddress */\n      dup4\n        /* \"NFT-Contracts/contracts/market_pri/NewMarket.sol\":7287:7330  nftContractAuctionSale[_nftContractAddress] */\n      0xffffffffffffffffffffffffffffffffffffffff\n      and\n      0xffffffffffffffffffffffffffffffffffffffff\n      and\n      dup2\n      mstore\n      0x20\n      add\n      swap1\n      dup2\n      mstore\n      0x20\n      add\n      0x00\n      keccak256\n        /* \"NFT-Contracts/contracts/market_pri/NewMarket.sol\":7287:7340  nftContractAuctionSale[_nftContractAddress][_tokenId] */\n      0x00\n        /* \"NFT-Contracts/contracts/market_pri/NewMarket.sol\":7331:7339  _tokenId */\n      dup3\n        /* \"NFT-Contracts/contracts/market_pri/NewMarket.sol\":7287:7340  nftContractAuctionSale[_nftContractAddress][_tokenId] */\n      dup2\n      mstore\n      0x20\n      add\n      swap1\n      dup2\n      mstore\n      0x20\n      add\n      0x00\n      keccak256\n        /* \"NFT-Contracts/contracts/market_pri/NewMarket.sol\":7287:7379  nftContractAuctionSale[_nftContractAddress][_tokenId]\r... */\n      0x04\n      add\n      0x00\n      swap1\n      sload\n      swap1\n      0x0100\n      exp\n      swap1\n      div\n      0xffffffffffffffffffffffffffffffffffffffff\n      and\n        /* \"NFT-Contracts/contracts/market_pri/NewMarket.sol\":7256:7379  address(0) ==\r... */\n      0xffffffffffffffffffffffffffffffffffffffff\n      and\n        /* \"NFT-Contracts/contracts/market_pri/NewMarket.sol\":7264:7265  0 */\n      0x00\n        /* \"NFT-Contracts/contracts/market_pri/NewMarket.sol\":7256:7379  address(0) ==\r... */\n      0xffffffffffffffffffffffffffffffffffffffff\n      and\n      eq\n        /* \"NFT-Contracts/contracts/market_pri/NewMarket.sol\":7234:7415  require(\r... */\n      tag_264\n      jumpi\n      mload(0x40)\n      0x08c379a000000000000000000000000000000000000000000000000000000000\n      dup2\n      mstore\n      0x04\n      add\n      tag_265\n      swap1\n      tag_266\n      jump\t// in\n    tag_265:\n      mload(0x40)\n      dup1\n      swap2\n      sub\n      swap1\n      revert\n    tag_264:\n        /* \"NFT-Contracts/contracts/market_pri/NewMarket.sol\":16013:16014  0 */\n      0x00\n        /* \"NFT-Contracts/contracts/market_pri/NewMarket.sol\":15966:15979  nftSaleStatus */\n      0x02\n        /* \"NFT-Contracts/contracts/market_pri/NewMarket.sol\":15966:16000  nftSaleStatus[_nftContractAddress] */\n      0x00\n        /* \"NFT-Contracts/contracts/market_pri/NewMarket.sol\":15980:15999  _nftContractAddress */\n      dup13\n        /* \"NFT-Contracts/contracts/market_pri/NewMarket.sol\":15966:16000  nftSaleStatus[_nftContractAddress] */\n      0xffffffffffffffffffffffffffffffffffffffff\n      and\n      0xffffffffffffffffffffffffffffffffffffffff\n      and\n      dup2\n      mstore\n      0x20\n      add\n      swap1\n      dup2\n      mstore\n      0x20\n      add\n      0x00\n      keccak256\n        /* \"NFT-Contracts/contracts/market_pri/NewMarket.sol\":15966:16010  nftSaleStatus[_nftContractAddress][_tokenId] */\n      0x00\n        /* \"NFT-Contracts/contracts/market_pri/NewMarket.sol\":16001:16009  _tokenId */\n      dup12\n        /* \"NFT-Contracts/contracts/market_pri/NewMarket.sol\":15966:16010  nftSaleStatus[_nftContractAddress][_tokenId] */\n      dup2\n      mstore\n      0x20\n      add\n      swap1\n      dup2\n      mstore\n      0x20\n      add\n      0x00\n      keccak256\n        /* \"NFT-Contracts/contracts/market_pri/NewMarket.sol\":15966:16014  nftSaleStatus[_nftContractAddress][_tokenId] = 0 */\n      dup2\n      swap1\n      sstore\n      pop\n        /* \"NFT-Contracts/contracts/market_pri/NewMarket.sol\":16035:16054  _nftContractAddress */\n      dup10\n        /* \"NFT-Contracts/contracts/market_pri/NewMarket.sol\":16027:16072  IERC721(_nftContractAddress).safeTransferFrom */\n      0xffffffffffffffffffffffffffffffffffffffff\n      and\n      0x42842e0e\n        /* \"NFT-Contracts/contracts/market_pri/NewMarket.sol\":16095:16099  this */\n      address\n        /* \"NFT-Contracts/contracts/market_pri/NewMarket.sol\":16115:16125  msg.sender */\n      caller\n        /* \"NFT-Contracts/contracts/market_pri/NewMarket.sol\":16140:16148  _tokenId */\n      dup13\n        /* \"NFT-Contracts/contracts/market_pri/NewMarket.sol\":16027:16159  IERC721(_nftContractAddress).safeTransferFrom(\r... */\n      mload(0x40)\n      dup5\n      0xffffffff\n      and\n      0xe0\n      shl\n      dup2\n      mstore\n      0x04\n      add\n      tag_268\n      swap4\n      swap3\n      swap2\n      swap1\n      tag_117\n      jump\t// in\n    tag_268:\n      0x00\n      mload(0x40)\n      dup1\n      dup4\n      sub\n      dup2\n      0x00\n      dup8\n      dup1\n      extcodesize\n      iszero\n      dup1\n      iszero\n      tag_269\n      jumpi\n      0x00\n      dup1\n      revert\n    tag_269:\n      pop\n      gas\n      call\n      iszero\n      dup1\n      iszero\n      tag_271\n      jumpi\n      returndatasize\n      0x00\n      dup1\n      returndatacopy\n      revert(0x00, returndatasize)\n    tag_271:\n      pop\n      pop\n      pop\n      pop\n        /* \"NFT-Contracts/contracts/market_pri/NewMarket.sol\":16177:16240  CancelNftAuctionSale(_nftContractAddress, _tokenId, msg.sender) */\n      0xb9d411977d4ee731f87bb8f16eb6f8c1fb579cff684642052bf6084e6e33238d\n        /* \"NFT-Contracts/contracts/market_pri/NewMarket.sol\":16198:16217  _nftContractAddress */\n      dup11\n        /* \"NFT-Contracts/contracts/market_pri/NewMarket.sol\":16219:16227  _tokenId */\n      dup11\n        /* \"NFT-Contracts/contracts/market_pri/NewMarket.sol\":16229:16239  msg.sender */\n      caller\n        /* \"NFT-Contracts/contracts/market_pri/NewMarket.sol\":16177:16240  CancelNftAuctionSale(_nftContractAddress, _tokenId, msg.sender) */\n      mload(0x40)\n      tag_272\n      swap4\n      swap3\n      swap2\n      swap1\n      tag_198\n      jump\t// in\n    tag_272:\n      mload(0x40)\n      dup1\n      swap2\n      sub\n      swap1\n      log1\n        /* \"NFT-Contracts/contracts/market_pri/NewMarket.sol\":5904:5905  _ */\n      pop\n      pop\n        /* \"NFT-Contracts/contracts/market_pri/NewMarket.sol\":6203:6204  _ */\n      pop\n      pop\n        /* \"NFT-Contracts/contracts/market_pri/NewMarket.sol\":3662:3663  _ */\n      pop\n      pop\n        /* \"NFT-Contracts/contracts/market_pri/NewMarket.sol\":15619:16248  function _cancelAuctionSale(address _nftContractAddress, uint256 _tokenId)\r... */\n      pop\n      pop\n      pop\n      pop\n      jump\t// out\n        /* \"NFT-Contracts/contracts/market_pri/NewMarket.sol\":18275:18494  function getFixedSale(address _nftContractAddress, uint256 _tokenId)\r... */\n    tag_95:\n        /* \"NFT-Contracts/contracts/market_pri/NewMarket.sol\":18394:18410  FixedSale memory */\n      tag_273\n      tag_274\n      jump\t// in\n    tag_273:\n        /* \"NFT-Contracts/contracts/market_pri/NewMarket.sol\":18435:18455  nftContractFixedSale */\n      0x00\n        /* \"NFT-Contracts/contracts/market_pri/NewMarket.sol\":18435:18476  nftContractFixedSale[_nftContractAddress] */\n      dup1\n        /* \"NFT-Contracts/contracts/market_pri/NewMarket.sol\":18456:18475  _nftContractAddress */\n      dup5\n        /* \"NFT-Contracts/contracts/market_pri/NewMarket.sol\":18435:18476  nftContractFixedSale[_nftContractAddress] */\n      0xffffffffffffffffffffffffffffffffffffffff\n      and\n      0xffffffffffffffffffffffffffffffffffffffff\n      and\n      dup2\n      mstore\n      0x20\n      add\n      swap1\n      dup2\n      mstore\n      0x20\n      add\n      0x00\n      keccak256\n        /* \"NFT-Contracts/contracts/market_pri/NewMarket.sol\":18435:18486  nftContractFixedSale[_nftContractAddress][_tokenId] */\n      0x00\n        /* \"NFT-Contracts/contracts/market_pri/NewMarket.sol\":18477:18485  _tokenId */\n      dup4\n        /* \"NFT-Contracts/contracts/market_pri/NewMarket.sol\":18435:18486  nftContractFixedSale[_nftContractAddress][_tokenId] */\n      dup2\n      mstore\n      0x20\n      add\n      swap1\n      dup2\n      mstore\n      0x20\n      add\n      0x00\n      keccak256\n        /* \"NFT-Contracts/contracts/market_pri/NewMarket.sol\":18428:18486  return nftContractFixedSale[_nftContractAddress][_tokenId] */\n      mload(0x40)\n      dup1\n      0x80\n      add\n      0x40\n      mstore\n      swap1\n      dup2\n      0x00\n      dup3\n      add\n      0x00\n      swap1\n      sload\n      swap1\n      0x0100\n      exp\n      swap1\n      div\n      0xffffffffffffffffffffffffffffffffffffffff\n      and\n      0xffffffffffffffffffffffffffffffffffffffff\n      and\n      0xffffffffffffffffffffffffffffffffffffffff\n      and\n      dup2\n      mstore\n      0x20\n      add\n      0x01\n      dup3\n      add\n      0x00\n      swap1\n      sload\n      swap1\n      0x0100\n      exp\n      swap1\n      div\n      0xffffffffffffffffffffffffffffffffffffffff\n      and\n      0xffffffffffffffffffffffffffffffffffffffff\n      and\n      0xffffffffffffffffffffffffffffffffffffffff\n      and\n      dup2\n      mstore\n      0x20\n      add\n      0x02\n      dup3\n      add\n      0x00\n      swap1\n      sload\n      swap1\n      0x0100\n      exp\n      swap1\n      div\n      0xffffffffffffffffffffffffffffffffffffffff\n      and\n      0xffffffffffffffffffffffffffffffffffffffff\n      and\n      0xffffffffffffffffffffffffffffffffffffffff\n      and\n      dup2\n      mstore\n      0x20\n      add\n      0x03\n      dup3\n      add\n      sload\n      dup2\n      mstore\n      pop\n      pop\n      swap1\n      pop\n        /* \"NFT-Contracts/contracts/market_pri/NewMarket.sol\":18275:18494  function getFixedSale(address _nftContractAddress, uint256 _tokenId)\r... */\n      swap3\n      swap2\n      pop\n      pop\n      jump\t// out\n        /* \"NFT-Contracts/contracts/market_pri/NewMarket.sol\":18160:18267  function getFixedSaleNFT() external view returns (SaleInfo[] memory) {\r... */\n    tag_100:\n        /* \"NFT-Contracts/contracts/market_pri/NewMarket.sol\":18210:18227  SaleInfo[] memory */\n      0x60\n        /* \"NFT-Contracts/contracts/market_pri/NewMarket.sol\":18247:18259  fixedSaleNFT */\n      0x05\n        /* \"NFT-Contracts/contracts/market_pri/NewMarket.sol\":18240:18259  return fixedSaleNFT */\n      dup1\n      sload\n      dup1\n      0x20\n      mul\n      0x20\n      add\n      mload(0x40)\n      swap1\n      dup2\n      add\n      0x40\n      mstore\n      dup1\n      swap3\n      swap2\n      swap1\n      dup2\n      dup2\n      mstore\n      0x20\n      add\n      0x00\n      swap1\n    tag_277:\n      dup3\n      dup3\n      lt\n      iszero\n      tag_278\n      jumpi\n      dup4\n      dup3\n      swap1\n      0x00\n      mstore\n      keccak256(0x00, 0x20)\n      swap1\n      0x02\n      mul\n      add\n      mload(0x40)\n      dup1\n      0x40\n      add\n      0x40\n      mstore\n      swap1\n      dup2\n      0x00\n      dup3\n      add\n      0x00\n      swap1\n      sload\n      swap1\n      0x0100\n      exp\n      swap1\n      div\n      0xffffffffffffffffffffffffffffffffffffffff\n      and\n      0xffffffffffffffffffffffffffffffffffffffff\n      and\n      0xffffffffffffffffffffffffffffffffffffffff\n      and\n      dup2\n      mstore\n      0x20\n      add\n      0x01\n      dup3\n      add\n      sload\n      dup2\n      mstore\n      pop\n      pop\n      dup2\n      mstore\n      0x20\n      add\n      swap1\n      0x01\n      add\n      swap1\n      jump(tag_277)\n    tag_278:\n      pop\n      pop\n      pop\n      pop\n      swap1\n      pop\n        /* \"NFT-Contracts/contracts/market_pri/NewMarket.sol\":18160:18267  function getFixedSaleNFT() external view returns (SaleInfo[] memory) {\r... */\n      swap1\n      jump\t// out\n        /* \"NFT-Contracts/contracts/market_pri/NewMarket.sol\":10839:11978  function buyFromFixedSale(\r... */\n    tag_105:\n        /* \"NFT-Contracts/contracts/market_pri/NewMarket.sol\":11024:11043  _nftContractAddress */\n      dup3\n        /* \"NFT-Contracts/contracts/market_pri/NewMarket.sol\":11045:11053  _tokenId */\n      dup3\n        /* \"NFT-Contracts/contracts/market_pri/NewMarket.sol\":3365:3366  1 */\n      0x01\n        /* \"NFT-Contracts/contracts/market_pri/NewMarket.sol\":3317:3330  nftSaleStatus */\n      0x02\n        /* \"NFT-Contracts/contracts/market_pri/NewMarket.sol\":3317:3351  nftSaleStatus[_nftContractAddress] */\n      0x00\n        /* \"NFT-Contracts/contracts/market_pri/NewMarket.sol\":3331:3350  _nftContractAddress */\n      dup5\n        /* \"NFT-Contracts/contracts/market_pri/NewMarket.sol\":3317:3351  nftSaleStatus[_nftContractAddress] */\n      0xffffffffffffffffffffffffffffffffffffffff\n      and\n      0xffffffffffffffffffffffffffffffffffffffff\n      and\n      dup2\n      mstore\n      0x20\n      add\n      swap1\n      dup2\n      mstore\n      0x20\n      add\n      0x00\n      keccak256\n        /* \"NFT-Contracts/contracts/market_pri/NewMarket.sol\":3317:3361  nftSaleStatus[_nftContractAddress][_tokenId] */\n      0x00\n        /* \"NFT-Contracts/contracts/market_pri/NewMarket.sol\":3352:3360  _tokenId */\n      dup4\n        /* \"NFT-Contracts/contracts/market_pri/NewMarket.sol\":3317:3361  nftSaleStatus[_nftContractAddress][_tokenId] */\n      dup2\n      mstore\n      0x20\n      add\n      swap1\n      dup2\n      mstore\n      0x20\n      add\n      0x00\n      keccak256\n      sload\n        /* \"NFT-Contracts/contracts/market_pri/NewMarket.sol\":3317:3366  nftSaleStatus[_nftContractAddress][_tokenId] == 1 */\n      eq\n        /* \"NFT-Contracts/contracts/market_pri/NewMarket.sol\":3295:3415  require(\r... */\n      tag_281\n      jumpi\n      mload(0x40)\n      0x08c379a000000000000000000000000000000000000000000000000000000000\n      dup2\n      mstore\n      0x04\n      add\n      tag_282\n      swap1\n      tag_175\n      jump\t// in\n    tag_282:\n      mload(0x40)\n      dup1\n      swap2\n      sub\n      swap1\n      revert\n    tag_281:\n        /* \"NFT-Contracts/contracts/market_pri/NewMarket.sol\":11085:11092  _amount */\n      dup3\n        /* \"NFT-Contracts/contracts/market_pri/NewMarket.sol\":7848:7849  0 */\n      0x00\n        /* \"NFT-Contracts/contracts/market_pri/NewMarket.sol\":7839:7845  _price */\n      dup2\n        /* \"NFT-Contracts/contracts/market_pri/NewMarket.sol\":7839:7849  _price > 0 */\n      gt\n        /* \"NFT-Contracts/contracts/market_pri/NewMarket.sol\":7831:7871  require(_price > 0, \"Price cannot be 0\") */\n      tag_284\n      jumpi\n      mload(0x40)\n      0x08c379a000000000000000000000000000000000000000000000000000000000\n      dup2\n      mstore\n      0x04\n      add\n      tag_285\n      swap1\n      tag_135\n      jump\t// in\n    tag_285:\n      mload(0x40)\n      dup1\n      swap2\n      sub\n      swap1\n      revert\n    tag_284:\n        /* \"NFT-Contracts/contracts/market_pri/NewMarket.sol\":11125:11144  _nftContractAddress */\n      dup6\n        /* \"NFT-Contracts/contracts/market_pri/NewMarket.sol\":11146:11154  _tokenId */\n      dup6\n        /* \"NFT-Contracts/contracts/market_pri/NewMarket.sol\":11156:11163  _amount */\n      dup6\n        /* \"NFT-Contracts/contracts/market_pri/NewMarket.sol\":7637:7657  nftContractFixedSale */\n      0x00\n        /* \"NFT-Contracts/contracts/market_pri/NewMarket.sol\":7637:7678  nftContractFixedSale[_nftContractAddress] */\n      dup1\n        /* \"NFT-Contracts/contracts/market_pri/NewMarket.sol\":7658:7677  _nftContractAddress */\n      dup5\n        /* \"NFT-Contracts/contracts/market_pri/NewMarket.sol\":7637:7678  nftContractFixedSale[_nftContractAddress] */\n      0xffffffffffffffffffffffffffffffffffffffff\n      and\n      0xffffffffffffffffffffffffffffffffffffffff\n      and\n      dup2\n      mstore\n      0x20\n      add\n      swap1\n      dup2\n      mstore\n      0x20\n      add\n      0x00\n      keccak256\n        /* \"NFT-Contracts/contracts/market_pri/NewMarket.sol\":7637:7688  nftContractFixedSale[_nftContractAddress][_tokenId] */\n      0x00\n        /* \"NFT-Contracts/contracts/market_pri/NewMarket.sol\":7679:7687  _tokenId */\n      dup4\n        /* \"NFT-Contracts/contracts/market_pri/NewMarket.sol\":7637:7688  nftContractFixedSale[_nftContractAddress][_tokenId] */\n      dup2\n      mstore\n      0x20\n      add\n      swap1\n      dup2\n      mstore\n      0x20\n      add\n      0x00\n      keccak256\n        /* \"NFT-Contracts/contracts/market_pri/NewMarket.sol\":7637:7698  nftContractFixedSale[_nftContractAddress][_tokenId].salePrice */\n      0x03\n      add\n      sload\n        /* \"NFT-Contracts/contracts/market_pri/NewMarket.sol\":7607:7616  _buyPrice */\n      dup2\n        /* \"NFT-Contracts/contracts/market_pri/NewMarket.sol\":7607:7698  _buyPrice >=\r... */\n      lt\n      iszero\n        /* \"NFT-Contracts/contracts/market_pri/NewMarket.sol\":7585:7746  require(\r... */\n      tag_287\n      jumpi\n      mload(0x40)\n      0x08c379a000000000000000000000000000000000000000000000000000000000\n      dup2\n      mstore\n      0x04\n      add\n      tag_288\n      swap1\n      tag_289\n      jump\t// in\n    tag_288:\n      mload(0x40)\n      dup1\n      swap2\n      sub\n      swap1\n      revert\n    tag_287:\n        /* \"NFT-Contracts/contracts/market_pri/NewMarket.sol\":11189:11208  _nftContractAddress */\n      dup9\n        /* \"NFT-Contracts/contracts/market_pri/NewMarket.sol\":11181:11226  IERC721(_nftContractAddress).safeTransferFrom */\n      0xffffffffffffffffffffffffffffffffffffffff\n      and\n      0x42842e0e\n        /* \"NFT-Contracts/contracts/market_pri/NewMarket.sol\":11249:11253  this */\n      address\n        /* \"NFT-Contracts/contracts/market_pri/NewMarket.sol\":11269:11279  msg.sender */\n      caller\n        /* \"NFT-Contracts/contracts/market_pri/NewMarket.sol\":11294:11302  _tokenId */\n      dup12\n        /* \"NFT-Contracts/contracts/market_pri/NewMarket.sol\":11181:11313  IERC721(_nftContractAddress).safeTransferFrom(\r... */\n      mload(0x40)\n      dup5\n      0xffffffff\n      and\n      0xe0\n      shl\n      dup2\n      mstore\n      0x04\n      add\n      tag_291\n      swap4\n      swap3\n      swap2\n      swap1\n      tag_117\n      jump\t// in\n    tag_291:\n      0x00\n      mload(0x40)\n      dup1\n      dup4\n      sub\n      dup2\n      0x00\n      dup8\n      dup1\n      extcodesize\n      iszero\n      dup1\n      iszero\n      tag_292\n      jumpi\n      0x00\n      dup1\n      revert\n    tag_292:\n      pop\n      gas\n      call\n      iszero\n      dup1\n      iszero\n      tag_294\n      jumpi\n      returndatasize\n      0x00\n      dup1\n      returndatacopy\n      revert(0x00, returndatasize)\n    tag_294:\n      pop\n      pop\n      pop\n      pop\n        /* \"NFT-Contracts/contracts/market_pri/NewMarket.sol\":11373:11374  0 */\n      0x00\n        /* \"NFT-Contracts/contracts/market_pri/NewMarket.sol\":11326:11339  nftSaleStatus */\n      0x02\n        /* \"NFT-Contracts/contracts/market_pri/NewMarket.sol\":11326:11360  nftSaleStatus[_nftContractAddress] */\n      0x00\n        /* \"NFT-Contracts/contracts/market_pri/NewMarket.sol\":11340:11359  _nftContractAddress */\n      dup12\n        /* \"NFT-Contracts/contracts/market_pri/NewMarket.sol\":11326:11360  nftSaleStatus[_nftContractAddress] */\n      0xffffffffffffffffffffffffffffffffffffffff\n      and\n      0xffffffffffffffffffffffffffffffffffffffff\n      and\n      dup2\n      mstore\n      0x20\n      add\n      swap1\n      dup2\n      mstore\n      0x20\n      add\n      0x00\n      keccak256\n        /* \"NFT-Contracts/contracts/market_pri/NewMarket.sol\":11326:11370  nftSaleStatus[_nftContractAddress][_tokenId] */\n      0x00\n        /* \"NFT-Contracts/contracts/market_pri/NewMarket.sol\":11361:11369  _tokenId */\n      dup11\n        /* \"NFT-Contracts/contracts/market_pri/NewMarket.sol\":11326:11370  nftSaleStatus[_nftContractAddress][_tokenId] */\n      dup2\n      mstore\n      0x20\n      add\n      swap1\n      dup2\n      mstore\n      0x20\n      add\n      0x00\n      keccak256\n        /* \"NFT-Contracts/contracts/market_pri/NewMarket.sol\":11326:11374  nftSaleStatus[_nftContractAddress][_tokenId] = 0 */\n      dup2\n      swap1\n      sstore\n      pop\n        /* \"NFT-Contracts/contracts/market_pri/NewMarket.sol\":11392:11404  fixedSaleNFT */\n      0x05\n        /* \"NFT-Contracts/contracts/market_pri/NewMarket.sol\":11406:11423  indexFixedSaleNFT */\n      0x04\n        /* \"NFT-Contracts/contracts/market_pri/NewMarket.sol\":11406:11444  indexFixedSaleNFT[_nftContractAddress] */\n      0x00\n        /* \"NFT-Contracts/contracts/market_pri/NewMarket.sol\":11424:11443  _nftContractAddress */\n      dup12\n        /* \"NFT-Contracts/contracts/market_pri/NewMarket.sol\":11406:11444  indexFixedSaleNFT[_nftContractAddress] */\n      0xffffffffffffffffffffffffffffffffffffffff\n      and\n      0xffffffffffffffffffffffffffffffffffffffff\n      and\n      dup2\n      mstore\n      0x20\n      add\n      swap1\n      dup2\n      mstore\n      0x20\n      add\n      0x00\n      keccak256\n        /* \"NFT-Contracts/contracts/market_pri/NewMarket.sol\":11406:11454  indexFixedSaleNFT[_nftContractAddress][_tokenId] */\n      0x00\n        /* \"NFT-Contracts/contracts/market_pri/NewMarket.sol\":11445:11453  _tokenId */\n      dup11\n        /* \"NFT-Contracts/contracts/market_pri/NewMarket.sol\":11406:11454  indexFixedSaleNFT[_nftContractAddress][_tokenId] */\n      dup2\n      mstore\n      0x20\n      add\n      swap1\n      dup2\n      mstore\n      0x20\n      add\n      0x00\n      keccak256\n      sload\n        /* \"NFT-Contracts/contracts/market_pri/NewMarket.sol\":11392:11456  fixedSaleNFT[(indexFixedSaleNFT[_nftContractAddress][_tokenId])] */\n      dup2\n      sload\n      dup2\n      lt\n      tag_295\n      jumpi\n      tag_296\n      tag_297\n      jump\t// in\n    tag_296:\n    tag_295:\n      swap1\n      0x00\n      mstore\n      keccak256(0x00, 0x20)\n      swap1\n      0x02\n      mul\n      add\n      0x00\n        /* \"NFT-Contracts/contracts/market_pri/NewMarket.sol\":11385:11456  delete fixedSaleNFT[(indexFixedSaleNFT[_nftContractAddress][_tokenId])] */\n      dup1\n      dup3\n      add\n      exp(0x0100, 0x00)\n      dup2\n      sload\n      swap1\n      0xffffffffffffffffffffffffffffffffffffffff\n      mul\n      not\n      and\n      swap1\n      sstore\n      0x01\n      dup3\n      add\n      0x00\n      swap1\n      sstore\n      pop\n      pop\n        /* \"NFT-Contracts/contracts/market_pri/NewMarket.sol\":11532:11556  msg\r... */\n      caller\n        /* \"NFT-Contracts/contracts/market_pri/NewMarket.sol\":11469:11489  nftContractFixedSale */\n      0x00\n        /* \"NFT-Contracts/contracts/market_pri/NewMarket.sol\":11469:11510  nftContractFixedSale[_nftContractAddress] */\n      dup1\n        /* \"NFT-Contracts/contracts/market_pri/NewMarket.sol\":11490:11509  _nftContractAddress */\n      dup12\n        /* \"NFT-Contracts/contracts/market_pri/NewMarket.sol\":11469:11510  nftContractFixedSale[_nftContractAddress] */\n      0xffffffffffffffffffffffffffffffffffffffff\n      and\n      0xffffffffffffffffffffffffffffffffffffffff\n      and\n      dup2\n      mstore\n      0x20\n      add\n      swap1\n      dup2\n      mstore\n      0x20\n      add\n      0x00\n      keccak256\n        /* \"NFT-Contracts/contracts/market_pri/NewMarket.sol\":11469:11520  nftContractFixedSale[_nftContractAddress][_tokenId] */\n      0x00\n        /* \"NFT-Contracts/contracts/market_pri/NewMarket.sol\":11511:11519  _tokenId */\n      dup11\n        /* \"NFT-Contracts/contracts/market_pri/NewMarket.sol\":11469:11520  nftContractFixedSale[_nftContractAddress][_tokenId] */\n      dup2\n      mstore\n      0x20\n      add\n      swap1\n      dup2\n      mstore\n      0x20\n      add\n      0x00\n      keccak256\n        /* \"NFT-Contracts/contracts/market_pri/NewMarket.sol\":11469:11529  nftContractFixedSale[_nftContractAddress][_tokenId].nftBuyer */\n      0x01\n      add\n      0x00\n        /* \"NFT-Contracts/contracts/market_pri/NewMarket.sol\":11469:11556  nftContractFixedSale[_nftContractAddress][_tokenId].nftBuyer = msg\r... */\n      0x0100\n      exp\n      dup2\n      sload\n      dup2\n      0xffffffffffffffffffffffffffffffffffffffff\n      mul\n      not\n      and\n      swap1\n      dup4\n      0xffffffffffffffffffffffffffffffffffffffff\n      and\n      mul\n      or\n      swap1\n      sstore\n      pop\n        /* \"NFT-Contracts/contracts/market_pri/NewMarket.sol\":11569:11818  _isTokenOrCoin(\r... */\n      tag_299\n        /* \"NFT-Contracts/contracts/market_pri/NewMarket.sol\":11598:11618  nftContractFixedSale */\n      0x00\n        /* \"NFT-Contracts/contracts/market_pri/NewMarket.sol\":11598:11639  nftContractFixedSale[_nftContractAddress] */\n      dup1\n        /* \"NFT-Contracts/contracts/market_pri/NewMarket.sol\":11619:11638  _nftContractAddress */\n      dup12\n        /* \"NFT-Contracts/contracts/market_pri/NewMarket.sol\":11598:11639  nftContractFixedSale[_nftContractAddress] */\n      0xffffffffffffffffffffffffffffffffffffffff\n      and\n      0xffffffffffffffffffffffffffffffffffffffff\n      and\n      dup2\n      mstore\n      0x20\n      add\n      swap1\n      dup2\n      mstore\n      0x20\n      add\n      0x00\n      keccak256\n        /* \"NFT-Contracts/contracts/market_pri/NewMarket.sol\":11598:11649  nftContractFixedSale[_nftContractAddress][_tokenId] */\n      0x00\n        /* \"NFT-Contracts/contracts/market_pri/NewMarket.sol\":11640:11648  _tokenId */\n      dup11\n        /* \"NFT-Contracts/contracts/market_pri/NewMarket.sol\":11598:11649  nftContractFixedSale[_nftContractAddress][_tokenId] */\n      dup2\n      mstore\n      0x20\n      add\n      swap1\n      dup2\n      mstore\n      0x20\n      add\n      0x00\n      keccak256\n        /* \"NFT-Contracts/contracts/market_pri/NewMarket.sol\":11598:11659  nftContractFixedSale[_nftContractAddress][_tokenId].nftSeller */\n      0x00\n      add\n      0x00\n      swap1\n      sload\n      swap1\n      0x0100\n      exp\n      swap1\n      div\n      0xffffffffffffffffffffffffffffffffffffffff\n      and\n        /* \"NFT-Contracts/contracts/market_pri/NewMarket.sol\":11674:11694  nftContractFixedSale */\n      0x00\n        /* \"NFT-Contracts/contracts/market_pri/NewMarket.sol\":11674:11715  nftContractFixedSale[_nftContractAddress] */\n      dup1\n        /* \"NFT-Contracts/contracts/market_pri/NewMarket.sol\":11695:11714  _nftContractAddress */\n      dup13\n        /* \"NFT-Contracts/contracts/market_pri/NewMarket.sol\":11674:11715  nftContractFixedSale[_nftContractAddress] */\n      0xffffffffffffffffffffffffffffffffffffffff\n      and\n      0xffffffffffffffffffffffffffffffffffffffff\n      and\n      dup2\n      mstore\n      0x20\n      add\n      swap1\n      dup2\n      mstore\n      0x20\n      add\n      0x00\n      keccak256\n        /* \"NFT-Contracts/contracts/market_pri/NewMarket.sol\":11674:11725  nftContractFixedSale[_nftContractAddress][_tokenId] */\n      0x00\n        /* \"NFT-Contracts/contracts/market_pri/NewMarket.sol\":11716:11724  _tokenId */\n      dup12\n        /* \"NFT-Contracts/contracts/market_pri/NewMarket.sol\":11674:11725  nftContractFixedSale[_nftContractAddress][_tokenId] */\n      dup2\n      mstore\n      0x20\n      add\n      swap1\n      dup2\n      mstore\n      0x20\n      add\n      0x00\n      keccak256\n        /* \"NFT-Contracts/contracts/market_pri/NewMarket.sol\":11674:11731  nftContractFixedSale[_nftContractAddress][_tokenId].erc20 */\n      0x02\n      add\n      0x00\n      swap1\n      sload\n      swap1\n      0x0100\n      exp\n      swap1\n      div\n      0xffffffffffffffffffffffffffffffffffffffff\n      and\n        /* \"NFT-Contracts/contracts/market_pri/NewMarket.sol\":11746:11766  nftContractFixedSale */\n      0x00\n        /* \"NFT-Contracts/contracts/market_pri/NewMarket.sol\":11746:11787  nftContractFixedSale[_nftContractAddress] */\n      dup1\n        /* \"NFT-Contracts/contracts/market_pri/NewMarket.sol\":11767:11786  _nftContractAddress */\n      dup14\n        /* \"NFT-Contracts/contracts/market_pri/NewMarket.sol\":11746:11787  nftContractFixedSale[_nftContractAddress] */\n      0xffffffffffffffffffffffffffffffffffffffff\n      and\n      0xffffffffffffffffffffffffffffffffffffffff\n      and\n      dup2\n      mstore\n      0x20\n      add\n      swap1\n      dup2\n      mstore\n      0x20\n      add\n      0x00\n      keccak256\n        /* \"NFT-Contracts/contracts/market_pri/NewMarket.sol\":11746:11797  nftContractFixedSale[_nftContractAddress][_tokenId] */\n      0x00\n        /* \"NFT-Contracts/contracts/market_pri/NewMarket.sol\":11788:11796  _tokenId */\n      dup13\n        /* \"NFT-Contracts/contracts/market_pri/NewMarket.sol\":11746:11797  nftContractFixedSale[_nftContractAddress][_tokenId] */\n      dup2\n      mstore\n      0x20\n      add\n      swap1\n      dup2\n      mstore\n      0x20\n      add\n      0x00\n      keccak256\n        /* \"NFT-Contracts/contracts/market_pri/NewMarket.sol\":11746:11807  nftContractFixedSale[_nftContractAddress][_tokenId].salePrice */\n      0x03\n      add\n      sload\n        /* \"NFT-Contracts/contracts/market_pri/NewMarket.sol\":11569:11583  _isTokenOrCoin */\n      tag_300\n        /* \"NFT-Contracts/contracts/market_pri/NewMarket.sol\":11569:11818  _isTokenOrCoin(\r... */\n      jump\t// in\n    tag_299:\n        /* \"NFT-Contracts/contracts/market_pri/NewMarket.sol\":11836:11970  NftBuyFromFixedSale(\r... */\n      0x9fa3b1bb9266e05722b54a7a564d02a274bc80d39f4af21e6be405480996ceba\n        /* \"NFT-Contracts/contracts/market_pri/NewMarket.sol\":11870:11889  _nftContractAddress */\n      dup10\n        /* \"NFT-Contracts/contracts/market_pri/NewMarket.sol\":11904:11914  msg.sender */\n      caller\n        /* \"NFT-Contracts/contracts/market_pri/NewMarket.sol\":11929:11937  _tokenId */\n      dup11\n        /* \"NFT-Contracts/contracts/market_pri/NewMarket.sol\":11952:11959  _amount */\n      dup11\n        /* \"NFT-Contracts/contracts/market_pri/NewMarket.sol\":11836:11970  NftBuyFromFixedSale(\r... */\n      mload(0x40)\n      tag_301\n      swap5\n      swap4\n      swap3\n      swap2\n      swap1\n      tag_302\n      jump\t// in\n    tag_301:\n      mload(0x40)\n      dup1\n      swap2\n      sub\n      swap1\n      log1\n        /* \"NFT-Contracts/contracts/market_pri/NewMarket.sol\":7882:7883  _ */\n      pop\n      pop\n      pop\n        /* \"NFT-Contracts/contracts/market_pri/NewMarket.sol\":3426:3427  _ */\n      pop\n        /* \"NFT-Contracts/contracts/market_pri/NewMarket.sol\":10839:11978  function buyFromFixedSale(\r... */\n      pop\n      pop\n      pop\n      pop\n      pop\n      jump\t// out\n        /* \"NFT-Contracts/contracts/market_pri/NewMarket.sol\":12013:12904  function createNftAuctionSale(\r... */\n    tag_110:\n        /* \"NFT-Contracts/contracts/market_pri/NewMarket.sol\":12276:12295  _nftContractAddress */\n      dup6\n        /* \"NFT-Contracts/contracts/market_pri/NewMarket.sol\":12297:12305  _tokenId */\n      dup5\n        /* \"NFT-Contracts/contracts/market_pri/NewMarket.sol\":3809:3828  _nftContractAddress */\n      dup2\n        /* \"NFT-Contracts/contracts/market_pri/NewMarket.sol\":3801:3837  IERC721(_nftContractAddress).ownerOf */\n      0xffffffffffffffffffffffffffffffffffffffff\n      and\n      0x6352211e\n        /* \"NFT-Contracts/contracts/market_pri/NewMarket.sol\":3838:3846  _tokenId */\n      dup3\n        /* \"NFT-Contracts/contracts/market_pri/NewMarket.sol\":3801:3847  IERC721(_nftContractAddress).ownerOf(_tokenId) */\n      mload(0x40)\n      dup3\n      0xffffffff\n      and\n      0xe0\n      shl\n      dup2\n      mstore\n      0x04\n      add\n      tag_304\n      swap2\n      swap1\n      tag_65\n      jump\t// in\n    tag_304:\n      0x20\n      mload(0x40)\n      dup1\n      dup4\n      sub\n      dup2\n      dup7\n      dup1\n      extcodesize\n      iszero\n      dup1\n      iszero\n      tag_305\n      jumpi\n      0x00\n      dup1\n      revert\n    tag_305:\n      pop\n      gas\n      staticcall\n      iszero\n      dup1\n      iszero\n      tag_307\n      jumpi\n      returndatasize\n      0x00\n      dup1\n      returndatacopy\n      revert(0x00, returndatasize)\n    tag_307:\n      pop\n      pop\n      pop\n      pop\n      mload(0x40)\n      returndatasize\n      not(0x1f)\n      0x1f\n      dup3\n      add\n      and\n      dup3\n      add\n      dup1\n      0x40\n      mstore\n      pop\n      dup2\n      add\n      swap1\n      tag_308\n      swap2\n      swap1\n      tag_216\n      jump\t// in\n    tag_308:\n        /* \"NFT-Contracts/contracts/market_pri/NewMarket.sol\":3787:3847  msg.sender == IERC721(_nftContractAddress).ownerOf(_tokenId) */\n      0xffffffffffffffffffffffffffffffffffffffff\n      and\n        /* \"NFT-Contracts/contracts/market_pri/NewMarket.sol\":3787:3797  msg.sender */\n      caller\n        /* \"NFT-Contracts/contracts/market_pri/NewMarket.sol\":3787:3847  msg.sender == IERC721(_nftContractAddress).ownerOf(_tokenId) */\n      0xffffffffffffffffffffffffffffffffffffffff\n      and\n      eq\n        /* \"NFT-Contracts/contracts/market_pri/NewMarket.sol\":3765:3896  require(\r... */\n      tag_309\n      jumpi\n      mload(0x40)\n      0x08c379a000000000000000000000000000000000000000000000000000000000\n      dup2\n      mstore\n      0x04\n      add\n      tag_310\n      swap1\n      tag_179\n      jump\t// in\n    tag_310:\n      mload(0x40)\n      dup1\n      swap2\n      sub\n      swap1\n      revert\n    tag_309:\n        /* \"NFT-Contracts/contracts/market_pri/NewMarket.sol\":12335:12354  _nftContractAddress */\n      dup8\n        /* \"NFT-Contracts/contracts/market_pri/NewMarket.sol\":12356:12364  _tokenId */\n      dup7\n        /* \"NFT-Contracts/contracts/market_pri/NewMarket.sol\":3135:3136  0 */\n      0x00\n        /* \"NFT-Contracts/contracts/market_pri/NewMarket.sol\":3087:3100  nftSaleStatus */\n      0x02\n        /* \"NFT-Contracts/contracts/market_pri/NewMarket.sol\":3087:3121  nftSaleStatus[_nftContractAddress] */\n      0x00\n        /* \"NFT-Contracts/contracts/market_pri/NewMarket.sol\":3101:3120  _nftContractAddress */\n      dup5\n        /* \"NFT-Contracts/contracts/market_pri/NewMarket.sol\":3087:3121  nftSaleStatus[_nftContractAddress] */\n      0xffffffffffffffffffffffffffffffffffffffff\n      and\n      0xffffffffffffffffffffffffffffffffffffffff\n      and\n      dup2\n      mstore\n      0x20\n      add\n      swap1\n      dup2\n      mstore\n      0x20\n      add\n      0x00\n      keccak256\n        /* \"NFT-Contracts/contracts/market_pri/NewMarket.sol\":3087:3131  nftSaleStatus[_nftContractAddress][_tokenId] */\n      0x00\n        /* \"NFT-Contracts/contracts/market_pri/NewMarket.sol\":3122:3130  _tokenId */\n      dup4\n        /* \"NFT-Contracts/contracts/market_pri/NewMarket.sol\":3087:3131  nftSaleStatus[_nftContractAddress][_tokenId] */\n      dup2\n      mstore\n      0x20\n      add\n      swap1\n      dup2\n      mstore\n      0x20\n      add\n      0x00\n      keccak256\n      sload\n        /* \"NFT-Contracts/contracts/market_pri/NewMarket.sol\":3087:3136  nftSaleStatus[_nftContractAddress][_tokenId] == 0 */\n      eq\n        /* \"NFT-Contracts/contracts/market_pri/NewMarket.sol\":3065:3183  require(\r... */\n      tag_312\n      jumpi\n      mload(0x40)\n      0x08c379a000000000000000000000000000000000000000000000000000000000\n      dup2\n      mstore\n      0x04\n      add\n      tag_313\n      swap1\n      tag_222\n      jump\t// in\n    tag_313:\n      mload(0x40)\n      dup1\n      swap2\n      sub\n      swap1\n      revert\n    tag_312:\n        /* \"NFT-Contracts/contracts/market_pri/NewMarket.sol\":12393:12412  _nftContractAddress */\n      dup10\n        /* \"NFT-Contracts/contracts/market_pri/NewMarket.sol\":12414:12422  _tokenId */\n      dup9\n        /* \"NFT-Contracts/contracts/market_pri/NewMarket.sol\":4316:4335  _nftContractAddress */\n      dup2\n        /* \"NFT-Contracts/contracts/market_pri/NewMarket.sol\":4308:4353  IERC721(_nftContractAddress).isApprovedForAll */\n      0xffffffffffffffffffffffffffffffffffffffff\n      and\n      0xe985e9c5\n        /* \"NFT-Contracts/contracts/market_pri/NewMarket.sol\":4372:4382  msg.sender */\n      caller\n        /* \"NFT-Contracts/contracts/market_pri/NewMarket.sol\":4409:4413  this */\n      address\n        /* \"NFT-Contracts/contracts/market_pri/NewMarket.sol\":4308:4429  IERC721(_nftContractAddress).isApprovedForAll(\r... */\n      mload(0x40)\n      dup4\n      0xffffffff\n      and\n      0xe0\n      shl\n      dup2\n      mstore\n      0x04\n      add\n      tag_315\n      swap3\n      swap2\n      swap1\n      tag_225\n      jump\t// in\n    tag_315:\n      0x20\n      mload(0x40)\n      dup1\n      dup4\n      sub\n      dup2\n      dup7\n      dup1\n      extcodesize\n      iszero\n      dup1\n      iszero\n      tag_316\n      jumpi\n      0x00\n      dup1\n      revert\n    tag_316:\n      pop\n      gas\n      staticcall\n      iszero\n      dup1\n      iszero\n      tag_318\n      jumpi\n      returndatasize\n      0x00\n      dup1\n      returndatacopy\n      revert(0x00, returndatasize)\n    tag_318:\n      pop\n      pop\n      pop\n      pop\n      mload(0x40)\n      returndatasize\n      not(0x1f)\n      0x1f\n      dup3\n      add\n      and\n      dup3\n      add\n      dup1\n      0x40\n      mstore\n      pop\n      dup2\n      add\n      swap1\n      tag_319\n      swap2\n      swap1\n      tag_122\n      jump\t// in\n    tag_319:\n        /* \"NFT-Contracts/contracts/market_pri/NewMarket.sol\":4286:4485  require(\r... */\n      tag_320\n      jumpi\n      mload(0x40)\n      0x08c379a000000000000000000000000000000000000000000000000000000000\n      dup2\n      mstore\n      0x04\n      add\n      tag_321\n      swap1\n      tag_232\n      jump\t// in\n    tag_321:\n      mload(0x40)\n      dup1\n      swap2\n      sub\n      swap1\n      revert\n    tag_320:\n        /* \"NFT-Contracts/contracts/market_pri/NewMarket.sol\":12454:12463  _minPrice */\n      dup7\n        /* \"NFT-Contracts/contracts/market_pri/NewMarket.sol\":7848:7849  0 */\n      0x00\n        /* \"NFT-Contracts/contracts/market_pri/NewMarket.sol\":7839:7845  _price */\n      dup2\n        /* \"NFT-Contracts/contracts/market_pri/NewMarket.sol\":7839:7849  _price > 0 */\n      gt\n        /* \"NFT-Contracts/contracts/market_pri/NewMarket.sol\":7831:7871  require(_price > 0, \"Price cannot be 0\") */\n      tag_323\n      jumpi\n      mload(0x40)\n      0x08c379a000000000000000000000000000000000000000000000000000000000\n      dup2\n      mstore\n      0x04\n      add\n      tag_324\n      swap1\n      tag_135\n      jump\t// in\n    tag_324:\n      mload(0x40)\n      dup1\n      swap2\n      sub\n      swap1\n      revert\n    tag_323:\n        /* \"NFT-Contracts/contracts/market_pri/NewMarket.sol\":12481:12672  _storedNftAuctionDetails(\r... */\n      tag_326\n        /* \"NFT-Contracts/contracts/market_pri/NewMarket.sol\":12520:12539  _nftContractAddress */\n      dup14\n        /* \"NFT-Contracts/contracts/market_pri/NewMarket.sol\":12554:12560  _erc20 */\n      dup14\n        /* \"NFT-Contracts/contracts/market_pri/NewMarket.sol\":12575:12583  _tokenId */\n      dup14\n        /* \"NFT-Contracts/contracts/market_pri/NewMarket.sol\":12598:12611  _auctionStart */\n      dup14\n        /* \"NFT-Contracts/contracts/market_pri/NewMarket.sol\":12626:12637  _auctionEnd */\n      dup14\n        /* \"NFT-Contracts/contracts/market_pri/NewMarket.sol\":12652:12661  _minPrice */\n      dup14\n        /* \"NFT-Contracts/contracts/market_pri/NewMarket.sol\":12481:12505  _storedNftAuctionDetails */\n      tag_327\n        /* \"NFT-Contracts/contracts/market_pri/NewMarket.sol\":12481:12672  _storedNftAuctionDetails(\r... */\n      jump\t// in\n    tag_326:\n        /* \"NFT-Contracts/contracts/market_pri/NewMarket.sol\":12690:12896  NftAuctionSale(\r... */\n      0xecbc6a097da08dbf6f781ce204aad454ce3dc8f112c51c7a56f1671de89cee8c\n        /* \"NFT-Contracts/contracts/market_pri/NewMarket.sol\":12719:12738  _nftContractAddress */\n      dup14\n        /* \"NFT-Contracts/contracts/market_pri/NewMarket.sol\":12753:12763  msg.sender */\n      caller\n        /* \"NFT-Contracts/contracts/market_pri/NewMarket.sol\":12778:12784  _erc20 */\n      dup15\n        /* \"NFT-Contracts/contracts/market_pri/NewMarket.sol\":12799:12807  _tokenId */\n      dup15\n        /* \"NFT-Contracts/contracts/market_pri/NewMarket.sol\":12822:12835  _auctionStart */\n      dup15\n        /* \"NFT-Contracts/contracts/market_pri/NewMarket.sol\":12850:12861  _auctionEnd */\n      dup15\n        /* \"NFT-Contracts/contracts/market_pri/NewMarket.sol\":12876:12885  _minPrice */\n      dup15\n        /* \"NFT-Contracts/contracts/market_pri/NewMarket.sol\":12690:12896  NftAuctionSale(\r... */\n      mload(0x40)\n      tag_328\n      swap8\n      swap7\n      swap6\n      swap5\n      swap4\n      swap3\n      swap2\n      swap1\n      tag_329\n      jump\t// in\n    tag_328:\n      mload(0x40)\n      dup1\n      swap2\n      sub\n      swap1\n      log1\n        /* \"NFT-Contracts/contracts/market_pri/NewMarket.sol\":4496:4497  _ */\n      pop\n        /* \"NFT-Contracts/contracts/market_pri/NewMarket.sol\":3194:3195  _ */\n      pop\n      pop\n        /* \"NFT-Contracts/contracts/market_pri/NewMarket.sol\":3907:3908  _ */\n      pop\n      pop\n        /* \"NFT-Contracts/contracts/market_pri/NewMarket.sol\":12013:12904  function createNftAuctionSale(\r... */\n      pop\n      pop\n      pop\n      pop\n      pop\n      pop\n      pop\n      pop\n      jump\t// out\n        /* \"NFT-Contracts/contracts/market_pri/NewMarket.sol\":9067:9653  function cancelFixedsale(address _nftContractAddress, uint256 _tokenId)\r... */\n    tag_114:\n        /* \"NFT-Contracts/contracts/market_pri/NewMarket.sol\":9183:9202  _nftContractAddress */\n      dup2\n        /* \"NFT-Contracts/contracts/market_pri/NewMarket.sol\":9204:9212  _tokenId */\n      dup2\n        /* \"NFT-Contracts/contracts/market_pri/NewMarket.sol\":3365:3366  1 */\n      0x01\n        /* \"NFT-Contracts/contracts/market_pri/NewMarket.sol\":3317:3330  nftSaleStatus */\n      0x02\n        /* \"NFT-Contracts/contracts/market_pri/NewMarket.sol\":3317:3351  nftSaleStatus[_nftContractAddress] */\n      0x00\n        /* \"NFT-Contracts/contracts/market_pri/NewMarket.sol\":3331:3350  _nftContractAddress */\n      dup5\n        /* \"NFT-Contracts/contracts/market_pri/NewMarket.sol\":3317:3351  nftSaleStatus[_nftContractAddress] */\n      0xffffffffffffffffffffffffffffffffffffffff\n      and\n      0xffffffffffffffffffffffffffffffffffffffff\n      and\n      dup2\n      mstore\n      0x20\n      add\n      swap1\n      dup2\n      mstore\n      0x20\n      add\n      0x00\n      keccak256\n        /* \"NFT-Contracts/contracts/market_pri/NewMarket.sol\":3317:3361  nftSaleStatus[_nftContractAddress][_tokenId] */\n      0x00\n        /* \"NFT-Contracts/contracts/market_pri/NewMarket.sol\":3352:3360  _tokenId */\n      dup4\n        /* \"NFT-Contracts/contracts/market_pri/NewMarket.sol\":3317:3361  nftSaleStatus[_nftContractAddress][_tokenId] */\n      dup2\n      mstore\n      0x20\n      add\n      swap1\n      dup2\n      mstore\n      0x20\n      add\n      0x00\n      keccak256\n      sload\n        /* \"NFT-Contracts/contracts/market_pri/NewMarket.sol\":3317:3366  nftSaleStatus[_nftContractAddress][_tokenId] == 1 */\n      eq\n        /* \"NFT-Contracts/contracts/market_pri/NewMarket.sol\":3295:3415  require(\r... */\n      tag_331\n      jumpi\n      mload(0x40)\n      0x08c379a000000000000000000000000000000000000000000000000000000000\n      dup2\n      mstore\n      0x04\n      add\n      tag_332\n      swap1\n      tag_175\n      jump\t// in\n    tag_332:\n      mload(0x40)\n      dup1\n      swap2\n      sub\n      swap1\n      revert\n    tag_331:\n        /* \"NFT-Contracts/contracts/market_pri/NewMarket.sol\":9242:9261  _nftContractAddress */\n      dup4\n        /* \"NFT-Contracts/contracts/market_pri/NewMarket.sol\":9263:9271  _tokenId */\n      dup4\n        /* \"NFT-Contracts/contracts/market_pri/NewMarket.sol\":4063:4083  nftContractFixedSale */\n      0x00\n        /* \"NFT-Contracts/contracts/market_pri/NewMarket.sol\":4063:4104  nftContractFixedSale[_nftContractAddress] */\n      dup1\n        /* \"NFT-Contracts/contracts/market_pri/NewMarket.sol\":4084:4103  _nftContractAddress */\n      dup4\n        /* \"NFT-Contracts/contracts/market_pri/NewMarket.sol\":4063:4104  nftContractFixedSale[_nftContractAddress] */\n      0xffffffffffffffffffffffffffffffffffffffff\n      and\n      0xffffffffffffffffffffffffffffffffffffffff\n      and\n      dup2\n      mstore\n      0x20\n      add\n      swap1\n      dup2\n      mstore\n      0x20\n      add\n      0x00\n      keccak256\n        /* \"NFT-Contracts/contracts/market_pri/NewMarket.sol\":4063:4114  nftContractFixedSale[_nftContractAddress][_tokenId] */\n      0x00\n        /* \"NFT-Contracts/contracts/market_pri/NewMarket.sol\":4105:4113  _tokenId */\n      dup3\n        /* \"NFT-Contracts/contracts/market_pri/NewMarket.sol\":4063:4114  nftContractFixedSale[_nftContractAddress][_tokenId] */\n      dup2\n      mstore\n      0x20\n      add\n      swap1\n      dup2\n      mstore\n      0x20\n      add\n      0x00\n      keccak256\n        /* \"NFT-Contracts/contracts/market_pri/NewMarket.sol\":4063:4124  nftContractFixedSale[_nftContractAddress][_tokenId].nftSeller */\n      0x00\n      add\n      0x00\n      swap1\n      sload\n      swap1\n      0x0100\n      exp\n      swap1\n      div\n      0xffffffffffffffffffffffffffffffffffffffff\n      and\n        /* \"NFT-Contracts/contracts/market_pri/NewMarket.sol\":4032:4124  msg.sender ==\r... */\n      0xffffffffffffffffffffffffffffffffffffffff\n      and\n        /* \"NFT-Contracts/contracts/market_pri/NewMarket.sol\":4032:4042  msg.sender */\n      caller\n        /* \"NFT-Contracts/contracts/market_pri/NewMarket.sol\":4032:4124  msg.sender ==\r... */\n      0xffffffffffffffffffffffffffffffffffffffff\n      and\n      eq\n        /* \"NFT-Contracts/contracts/market_pri/NewMarket.sol\":4010:4173  require(\r... */\n      tag_334\n      jumpi\n      mload(0x40)\n      0x08c379a000000000000000000000000000000000000000000000000000000000\n      dup2\n      mstore\n      0x04\n      add\n      tag_335\n      swap1\n      tag_179\n      jump\t// in\n    tag_335:\n      mload(0x40)\n      dup1\n      swap2\n      sub\n      swap1\n      revert\n    tag_334:\n        /* \"NFT-Contracts/contracts/market_pri/NewMarket.sol\":9297:9316  _nftContractAddress */\n      dup6\n        /* \"NFT-Contracts/contracts/market_pri/NewMarket.sol\":9289:9334  IERC721(_nftContractAddress).safeTransferFrom */\n      0xffffffffffffffffffffffffffffffffffffffff\n      and\n      0x42842e0e\n        /* \"NFT-Contracts/contracts/market_pri/NewMarket.sol\":9357:9361  this */\n      address\n        /* \"NFT-Contracts/contracts/market_pri/NewMarket.sol\":9377:9387  msg.sender */\n      caller\n        /* \"NFT-Contracts/contracts/market_pri/NewMarket.sol\":9402:9410  _tokenId */\n      dup9\n        /* \"NFT-Contracts/contracts/market_pri/NewMarket.sol\":9289:9421  IERC721(_nftContractAddress).safeTransferFrom(\r... */\n      mload(0x40)\n      dup5\n      0xffffffff\n      and\n      0xe0\n      shl\n      dup2\n      mstore\n      0x04\n      add\n      tag_337\n      swap4\n      swap3\n      swap2\n      swap1\n      tag_117\n      jump\t// in\n    tag_337:\n      0x00\n      mload(0x40)\n      dup1\n      dup4\n      sub\n      dup2\n      0x00\n      dup8\n      dup1\n      extcodesize\n      iszero\n      dup1\n      iszero\n      tag_338\n      jumpi\n      0x00\n      dup1\n      revert\n    tag_338:\n      pop\n      gas\n      call\n      iszero\n      dup1\n      iszero\n      tag_340\n      jumpi\n      returndatasize\n      0x00\n      dup1\n      returndatacopy\n      revert(0x00, returndatasize)\n    tag_340:\n      pop\n      pop\n      pop\n      pop\n        /* \"NFT-Contracts/contracts/market_pri/NewMarket.sol\":9481:9482  0 */\n      0x00\n        /* \"NFT-Contracts/contracts/market_pri/NewMarket.sol\":9434:9447  nftSaleStatus */\n      0x02\n        /* \"NFT-Contracts/contracts/market_pri/NewMarket.sol\":9434:9468  nftSaleStatus[_nftContractAddress] */\n      0x00\n        /* \"NFT-Contracts/contracts/market_pri/NewMarket.sol\":9448:9467  _nftContractAddress */\n      dup9\n        /* \"NFT-Contracts/contracts/market_pri/NewMarket.sol\":9434:9468  nftSaleStatus[_nftContractAddress] */\n      0xffffffffffffffffffffffffffffffffffffffff\n      and\n      0xffffffffffffffffffffffffffffffffffffffff\n      and\n      dup2\n      mstore\n      0x20\n      add\n      swap1\n      dup2\n      mstore\n      0x20\n      add\n      0x00\n      keccak256\n        /* \"NFT-Contracts/contracts/market_pri/NewMarket.sol\":9434:9478  nftSaleStatus[_nftContractAddress][_tokenId] */\n      0x00\n        /* \"NFT-Contracts/contracts/market_pri/NewMarket.sol\":9469:9477  _tokenId */\n      dup8\n        /* \"NFT-Contracts/contracts/market_pri/NewMarket.sol\":9434:9478  nftSaleStatus[_nftContractAddress][_tokenId] */\n      dup2\n      mstore\n      0x20\n      add\n      swap1\n      dup2\n      mstore\n      0x20\n      add\n      0x00\n      keccak256\n        /* \"NFT-Contracts/contracts/market_pri/NewMarket.sol\":9434:9482  nftSaleStatus[_nftContractAddress][_tokenId] = 0 */\n      dup2\n      swap1\n      sstore\n      pop\n        /* \"NFT-Contracts/contracts/market_pri/NewMarket.sol\":9502:9514  fixedSaleNFT */\n      0x05\n        /* \"NFT-Contracts/contracts/market_pri/NewMarket.sol\":9516:9533  indexFixedSaleNFT */\n      0x04\n        /* \"NFT-Contracts/contracts/market_pri/NewMarket.sol\":9516:9554  indexFixedSaleNFT[_nftContractAddress] */\n      0x00\n        /* \"NFT-Contracts/contracts/market_pri/NewMarket.sol\":9534:9553  _nftContractAddress */\n      dup9\n        /* \"NFT-Contracts/contracts/market_pri/NewMarket.sol\":9516:9554  indexFixedSaleNFT[_nftContractAddress] */\n      0xffffffffffffffffffffffffffffffffffffffff\n      and\n      0xffffffffffffffffffffffffffffffffffffffff\n      and\n      dup2\n      mstore\n      0x20\n      add\n      swap1\n      dup2\n      mstore\n      0x20\n      add\n      0x00\n      keccak256\n        /* \"NFT-Contracts/contracts/market_pri/NewMarket.sol\":9516:9564  indexFixedSaleNFT[_nftContractAddress][_tokenId] */\n      0x00\n        /* \"NFT-Contracts/contracts/market_pri/NewMarket.sol\":9555:9563  _tokenId */\n      dup8\n        /* \"NFT-Contracts/contracts/market_pri/NewMarket.sol\":9516:9564  indexFixedSaleNFT[_nftContractAddress][_tokenId] */\n      dup2\n      mstore\n      0x20\n      add\n      swap1\n      dup2\n      mstore\n      0x20\n      add\n      0x00\n      keccak256\n      sload\n        /* \"NFT-Contracts/contracts/market_pri/NewMarket.sol\":9502:9566  fixedSaleNFT[(indexFixedSaleNFT[_nftContractAddress][_tokenId])] */\n      dup2\n      sload\n      dup2\n      lt\n      tag_341\n      jumpi\n      tag_342\n      tag_297\n      jump\t// in\n    tag_342:\n    tag_341:\n      swap1\n      0x00\n      mstore\n      keccak256(0x00, 0x20)\n      swap1\n      0x02\n      mul\n      add\n      0x00\n        /* \"NFT-Contracts/contracts/market_pri/NewMarket.sol\":9495:9566  delete fixedSaleNFT[(indexFixedSaleNFT[_nftContractAddress][_tokenId])] */\n      dup1\n      dup3\n      add\n      exp(0x0100, 0x00)\n      dup2\n      sload\n      swap1\n      0xffffffffffffffffffffffffffffffffffffffff\n      mul\n      not\n      and\n      swap1\n      sstore\n      0x01\n      dup3\n      add\n      0x00\n      swap1\n      sstore\n      pop\n      pop\n        /* \"NFT-Contracts/contracts/market_pri/NewMarket.sol\":9584:9645  CancelNftFixedSale(_nftContractAddress, msg.sender, _tokenId) */\n      0xd7348ff00cf381a884144b50b3441398a48a7974ec349287df80e18cec9f5a31\n        /* \"NFT-Contracts/contracts/market_pri/NewMarket.sol\":9603:9622  _nftContractAddress */\n      dup7\n        /* \"NFT-Contracts/contracts/market_pri/NewMarket.sol\":9624:9634  msg.sender */\n      caller\n        /* \"NFT-Contracts/contracts/market_pri/NewMarket.sol\":9636:9644  _tokenId */\n      dup8\n        /* \"NFT-Contracts/contracts/market_pri/NewMarket.sol\":9584:9645  CancelNftFixedSale(_nftContractAddress, msg.sender, _tokenId) */\n      mload(0x40)\n      tag_344\n      swap4\n      swap3\n      swap2\n      swap1\n      tag_117\n      jump\t// in\n    tag_344:\n      mload(0x40)\n      dup1\n      swap2\n      sub\n      swap1\n      log1\n        /* \"NFT-Contracts/contracts/market_pri/NewMarket.sol\":3426:3427  _ */\n      pop\n      pop\n        /* \"NFT-Contracts/contracts/market_pri/NewMarket.sol\":9067:9653  function cancelFixedsale(address _nftContractAddress, uint256 _tokenId)\r... */\n      pop\n      pop\n      pop\n      pop\n      jump\t// out\n        /* \"NFT-Contracts/contracts/market_pri/NewMarket.sol\":20943:21171  function _bidAmountTransfer(uint256 _buyAmount, address _erc20) internal {\r... */\n    tag_147:\n        /* \"NFT-Contracts/contracts/market_pri/NewMarket.sol\":21056:21062  _erc20 */\n      dup1\n        /* \"NFT-Contracts/contracts/market_pri/NewMarket.sol\":21049:21076  IERC20(_erc20).transferFrom */\n      0xffffffffffffffffffffffffffffffffffffffff\n      and\n      0x23b872dd\n        /* \"NFT-Contracts/contracts/market_pri/NewMarket.sol\":21077:21087  msg.sender */\n      caller\n        /* \"NFT-Contracts/contracts/market_pri/NewMarket.sol\":21097:21101  this */\n      address\n        /* \"NFT-Contracts/contracts/market_pri/NewMarket.sol\":21104:21114  _buyAmount */\n      dup6\n        /* \"NFT-Contracts/contracts/market_pri/NewMarket.sol\":21049:21115  IERC20(_erc20).transferFrom(msg.sender, address(this), _buyAmount) */\n      mload(0x40)\n      dup5\n      0xffffffff\n      and\n      0xe0\n      shl\n      dup2\n      mstore\n      0x04\n      add\n      tag_346\n      swap4\n      swap3\n      swap2\n      swap1\n      tag_117\n      jump\t// in\n    tag_346:\n      0x20\n      mload(0x40)\n      dup1\n      dup4\n      sub\n      dup2\n      0x00\n      dup8\n      dup1\n      extcodesize\n      iszero\n      dup1\n      iszero\n      tag_347\n      jumpi\n      0x00\n      dup1\n      revert\n    tag_347:\n      pop\n      gas\n      call\n      iszero\n      dup1\n      iszero\n      tag_349\n      jumpi\n      returndatasize\n      0x00\n      dup1\n      returndatacopy\n      revert(0x00, returndatasize)\n    tag_349:\n      pop\n      pop\n      pop\n      pop\n      mload(0x40)\n      returndatasize\n      not(0x1f)\n      0x1f\n      dup3\n      add\n      and\n      dup3\n      add\n      dup1\n      0x40\n      mstore\n      pop\n      dup2\n      add\n      swap1\n      tag_350\n      swap2\n      swap1\n      tag_122\n      jump\t// in\n    tag_350:\n        /* \"NFT-Contracts/contracts/market_pri/NewMarket.sol\":21027:21163  require(\r... */\n      tag_351\n      jumpi\n      mload(0x40)\n      0x08c379a000000000000000000000000000000000000000000000000000000000\n      dup2\n      mstore\n      0x04\n      add\n      tag_352\n      swap1\n      tag_353\n      jump\t// in\n    tag_352:\n      mload(0x40)\n      dup1\n      swap2\n      sub\n      swap1\n      revert\n    tag_351:\n        /* \"NFT-Contracts/contracts/market_pri/NewMarket.sol\":20943:21171  function _bidAmountTransfer(uint256 _buyAmount, address _erc20) internal {\r... */\n      pop\n      pop\n      jump\t// out\n        /* \"NFT-Contracts/contracts/market_pri/SafeMath.sol\":2847:2945  function add(uint256 a, uint256 b) internal pure returns (uint256) {\r... */\n    tag_162:\n        /* \"NFT-Contracts/contracts/market_pri/SafeMath.sol\":2905:2912  uint256 */\n      0x00\n        /* \"NFT-Contracts/contracts/market_pri/SafeMath.sol\":2936:2937  b */\n      dup2\n        /* \"NFT-Contracts/contracts/market_pri/SafeMath.sol\":2932:2933  a */\n      dup4\n        /* \"NFT-Contracts/contracts/market_pri/SafeMath.sol\":2932:2937  a + b */\n      tag_355\n      swap2\n      swap1\n      tag_356\n      jump\t// in\n    tag_355:\n        /* \"NFT-Contracts/contracts/market_pri/SafeMath.sol\":2925:2937  return a + b */\n      swap1\n      pop\n        /* \"NFT-Contracts/contracts/market_pri/SafeMath.sol\":2847:2945  function add(uint256 a, uint256 b) internal pure returns (uint256) {\r... */\n      swap3\n      swap2\n      pop\n      pop\n      jump\t// out\n        /* \"NFT-Contracts/contracts/market_pri/NewMarket.sol\":18725:19321  function _transferNftAndPaySeller(\r... */\n    tag_207:\n        /* \"NFT-Contracts/contracts/market_pri/NewMarket.sol\":18915:18934  _nftContractAddress */\n      dup4\n        /* \"NFT-Contracts/contracts/market_pri/NewMarket.sol\":18907:18952  IERC721(_nftContractAddress).safeTransferFrom */\n      0xffffffffffffffffffffffffffffffffffffffff\n      and\n      0x42842e0e\n        /* \"NFT-Contracts/contracts/market_pri/NewMarket.sol\":18975:18979  this */\n      address\n        /* \"NFT-Contracts/contracts/market_pri/NewMarket.sol\":18995:19004  _nftBuyer */\n      dup4\n        /* \"NFT-Contracts/contracts/market_pri/NewMarket.sol\":19019:19027  _tokenId */\n      dup7\n        /* \"NFT-Contracts/contracts/market_pri/NewMarket.sol\":18907:19038  IERC721(_nftContractAddress).safeTransferFrom(\r... */\n      mload(0x40)\n      dup5\n      0xffffffff\n      and\n      0xe0\n      shl\n      dup2\n      mstore\n      0x04\n      add\n      tag_358\n      swap4\n      swap3\n      swap2\n      swap1\n      tag_117\n      jump\t// in\n    tag_358:\n      0x00\n      mload(0x40)\n      dup1\n      dup4\n      sub\n      dup2\n      0x00\n      dup8\n      dup1\n      extcodesize\n      iszero\n      dup1\n      iszero\n      tag_359\n      jumpi\n      0x00\n      dup1\n      revert\n    tag_359:\n      pop\n      gas\n      call\n      iszero\n      dup1\n      iszero\n      tag_361\n      jumpi\n      returndatasize\n      0x00\n      dup1\n      returndatacopy\n      revert(0x00, returndatasize)\n    tag_361:\n      pop\n      pop\n      pop\n      pop\n        /* \"NFT-Contracts/contracts/market_pri/NewMarket.sol\":19098:19099  0 */\n      0x00\n        /* \"NFT-Contracts/contracts/market_pri/NewMarket.sol\":19051:19064  nftSaleStatus */\n      0x02\n        /* \"NFT-Contracts/contracts/market_pri/NewMarket.sol\":19051:19085  nftSaleStatus[_nftContractAddress] */\n      0x00\n        /* \"NFT-Contracts/contracts/market_pri/NewMarket.sol\":19065:19084  _nftContractAddress */\n      dup7\n        /* \"NFT-Contracts/contracts/market_pri/NewMarket.sol\":19051:19085  nftSaleStatus[_nftContractAddress] */\n      0xffffffffffffffffffffffffffffffffffffffff\n      and\n      0xffffffffffffffffffffffffffffffffffffffff\n      and\n      dup2\n      mstore\n      0x20\n      add\n      swap1\n      dup2\n      mstore\n      0x20\n      add\n      0x00\n      keccak256\n        /* \"NFT-Contracts/contracts/market_pri/NewMarket.sol\":19051:19095  nftSaleStatus[_nftContractAddress][_tokenId] */\n      0x00\n        /* \"NFT-Contracts/contracts/market_pri/NewMarket.sol\":19086:19094  _tokenId */\n      dup6\n        /* \"NFT-Contracts/contracts/market_pri/NewMarket.sol\":19051:19095  nftSaleStatus[_nftContractAddress][_tokenId] */\n      dup2\n      mstore\n      0x20\n      add\n      swap1\n      dup2\n      mstore\n      0x20\n      add\n      0x00\n      keccak256\n        /* \"NFT-Contracts/contracts/market_pri/NewMarket.sol\":19051:19099  nftSaleStatus[_nftContractAddress][_tokenId] = 0 */\n      dup2\n      swap1\n      sstore\n      pop\n        /* \"NFT-Contracts/contracts/market_pri/NewMarket.sol\":19112:19313  _isTokenOrCoin(\r... */\n      tag_362\n        /* \"NFT-Contracts/contracts/market_pri/NewMarket.sol\":19141:19163  nftContractAuctionSale */\n      0x01\n        /* \"NFT-Contracts/contracts/market_pri/NewMarket.sol\":19141:19184  nftContractAuctionSale[_nftContractAddress] */\n      0x00\n        /* \"NFT-Contracts/contracts/market_pri/NewMarket.sol\":19164:19183  _nftContractAddress */\n      dup7\n        /* \"NFT-Contracts/contracts/market_pri/NewMarket.sol\":19141:19184  nftContractAuctionSale[_nftContractAddress] */\n      0xffffffffffffffffffffffffffffffffffffffff\n      and\n      0xffffffffffffffffffffffffffffffffffffffff\n      and\n      dup2\n      mstore\n      0x20\n      add\n      swap1\n      dup2\n      mstore\n      0x20\n      add\n      0x00\n      keccak256\n        /* \"NFT-Contracts/contracts/market_pri/NewMarket.sol\":19141:19194  nftContractAuctionSale[_nftContractAddress][_tokenId] */\n      0x00\n        /* \"NFT-Contracts/contracts/market_pri/NewMarket.sol\":19185:19193  _tokenId */\n      dup6\n        /* \"NFT-Contracts/contracts/market_pri/NewMarket.sol\":19141:19194  nftContractAuctionSale[_nftContractAddress][_tokenId] */\n      dup2\n      mstore\n      0x20\n      add\n      swap1\n      dup2\n      mstore\n      0x20\n      add\n      0x00\n      keccak256\n        /* \"NFT-Contracts/contracts/market_pri/NewMarket.sol\":19141:19204  nftContractAuctionSale[_nftContractAddress][_tokenId].nftSeller */\n      0x05\n      add\n      0x00\n      swap1\n      sload\n      swap1\n      0x0100\n      exp\n      swap1\n      div\n      0xffffffffffffffffffffffffffffffffffffffff\n      and\n        /* \"NFT-Contracts/contracts/market_pri/NewMarket.sol\":19219:19241  nftContractAuctionSale */\n      0x01\n        /* \"NFT-Contracts/contracts/market_pri/NewMarket.sol\":19219:19262  nftContractAuctionSale[_nftContractAddress] */\n      0x00\n        /* \"NFT-Contracts/contracts/market_pri/NewMarket.sol\":19242:19261  _nftContractAddress */\n      dup8\n        /* \"NFT-Contracts/contracts/market_pri/NewMarket.sol\":19219:19262  nftContractAuctionSale[_nftContractAddress] */\n      0xffffffffffffffffffffffffffffffffffffffff\n      and\n      0xffffffffffffffffffffffffffffffffffffffff\n      and\n      dup2\n      mstore\n      0x20\n      add\n      swap1\n      dup2\n      mstore\n      0x20\n      add\n      0x00\n      keccak256\n        /* \"NFT-Contracts/contracts/market_pri/NewMarket.sol\":19219:19272  nftContractAuctionSale[_nftContractAddress][_tokenId] */\n      0x00\n        /* \"NFT-Contracts/contracts/market_pri/NewMarket.sol\":19263:19271  _tokenId */\n      dup7\n        /* \"NFT-Contracts/contracts/market_pri/NewMarket.sol\":19219:19272  nftContractAuctionSale[_nftContractAddress][_tokenId] */\n      dup2\n      mstore\n      0x20\n      add\n      swap1\n      dup2\n      mstore\n      0x20\n      add\n      0x00\n      keccak256\n        /* \"NFT-Contracts/contracts/market_pri/NewMarket.sol\":19219:19278  nftContractAuctionSale[_nftContractAddress][_tokenId].erc20 */\n      0x06\n      add\n      0x00\n      swap1\n      sload\n      swap1\n      0x0100\n      exp\n      swap1\n      div\n      0xffffffffffffffffffffffffffffffffffffffff\n      and\n        /* \"NFT-Contracts/contracts/market_pri/NewMarket.sol\":19293:19302  _bidPrice */\n      dup5\n        /* \"NFT-Contracts/contracts/market_pri/NewMarket.sol\":19112:19126  _isTokenOrCoin */\n      tag_300\n        /* \"NFT-Contracts/contracts/market_pri/NewMarket.sol\":19112:19313  _isTokenOrCoin(\r... */\n      jump\t// in\n    tag_362:\n        /* \"NFT-Contracts/contracts/market_pri/NewMarket.sol\":18725:19321  function _transferNftAndPaySeller(\r... */\n      pop\n      pop\n      pop\n      pop\n      jump\t// out\n        /* \"NFT-Contracts/contracts/market_pri/NewMarket.sol\":20611:20935  function _isTokenOrCoin(\r... */\n    tag_300:\n        /* \"NFT-Contracts/contracts/market_pri/NewMarket.sol\":20767:20768  0 */\n      0x00\n        /* \"NFT-Contracts/contracts/market_pri/NewMarket.sol\":20749:20769  _erc20 != address(0) */\n      0xffffffffffffffffffffffffffffffffffffffff\n      and\n        /* \"NFT-Contracts/contracts/market_pri/NewMarket.sol\":20749:20755  _erc20 */\n      dup3\n        /* \"NFT-Contracts/contracts/market_pri/NewMarket.sol\":20749:20769  _erc20 != address(0) */\n      0xffffffffffffffffffffffffffffffffffffffff\n      and\n      eq\n        /* \"NFT-Contracts/contracts/market_pri/NewMarket.sol\":20745:20928  if (_erc20 != address(0)) {\r... */\n      tag_364\n      jumpi\n        /* \"NFT-Contracts/contracts/market_pri/NewMarket.sol\":20786:20838  _tokenAmountTransfer(_nftSeller, _erc20, _buyAmount) */\n      tag_365\n        /* \"NFT-Contracts/contracts/market_pri/NewMarket.sol\":20807:20817  _nftSeller */\n      dup4\n        /* \"NFT-Contracts/contracts/market_pri/NewMarket.sol\":20819:20825  _erc20 */\n      dup4\n        /* \"NFT-Contracts/contracts/market_pri/NewMarket.sol\":20827:20837  _buyAmount */\n      dup4\n        /* \"NFT-Contracts/contracts/market_pri/NewMarket.sol\":20786:20806  _tokenAmountTransfer */\n      tag_366\n        /* \"NFT-Contracts/contracts/market_pri/NewMarket.sol\":20786:20838  _tokenAmountTransfer(_nftSeller, _erc20, _buyAmount) */\n      jump\t// in\n    tag_365:\n        /* \"NFT-Contracts/contracts/market_pri/NewMarket.sol\":20745:20928  if (_erc20 != address(0)) {\r... */\n      jump(tag_367)\n    tag_364:\n        /* \"NFT-Contracts/contracts/market_pri/NewMarket.sol\":20871:20916  _nativeAmountTransfer(_nftSeller, _buyAmount) */\n      tag_368\n        /* \"NFT-Contracts/contracts/market_pri/NewMarket.sol\":20893:20903  _nftSeller */\n      dup4\n        /* \"NFT-Contracts/contracts/market_pri/NewMarket.sol\":20905:20915  _buyAmount */\n      dup3\n        /* \"NFT-Contracts/contracts/market_pri/NewMarket.sol\":20871:20892  _nativeAmountTransfer */\n      tag_369\n        /* \"NFT-Contracts/contracts/market_pri/NewMarket.sol\":20871:20916  _nativeAmountTransfer(_nftSeller, _buyAmount) */\n      jump\t// in\n    tag_368:\n        /* \"NFT-Contracts/contracts/market_pri/NewMarket.sol\":20745:20928  if (_erc20 != address(0)) {\r... */\n    tag_367:\n        /* \"NFT-Contracts/contracts/market_pri/NewMarket.sol\":20611:20935  function _isTokenOrCoin(\r... */\n      pop\n      pop\n      pop\n      jump\t// out\n        /* \"NFT-Contracts/contracts/market_pri/NewMarket.sol\":19901:20603  function _storedNftAuctionDetails(\r... */\n    tag_327:\n        /* \"NFT-Contracts/contracts/market_pri/NewMarket.sol\":20198:20389  Auction(\r... */\n      mload(0x40)\n      dup1\n      0xe0\n      add\n      0x40\n      mstore\n      dup1\n        /* \"NFT-Contracts/contracts/market_pri/NewMarket.sol\":20220:20233  _auctionStart */\n      dup5\n        /* \"NFT-Contracts/contracts/market_pri/NewMarket.sol\":20198:20389  Auction(\r... */\n      dup2\n      mstore\n      0x20\n      add\n        /* \"NFT-Contracts/contracts/market_pri/NewMarket.sol\":20248:20259  _auctionEnd */\n      dup4\n        /* \"NFT-Contracts/contracts/market_pri/NewMarket.sol\":20198:20389  Auction(\r... */\n      dup2\n      mstore\n      0x20\n      add\n        /* \"NFT-Contracts/contracts/market_pri/NewMarket.sol\":20274:20283  _minPrice */\n      dup3\n        /* \"NFT-Contracts/contracts/market_pri/NewMarket.sol\":20198:20389  Auction(\r... */\n      dup2\n      mstore\n      0x20\n      add\n        /* \"NFT-Contracts/contracts/market_pri/NewMarket.sol\":20298:20307  _minPrice */\n      dup3\n        /* \"NFT-Contracts/contracts/market_pri/NewMarket.sol\":20198:20389  Auction(\r... */\n      dup2\n      mstore\n      0x20\n      add\n        /* \"NFT-Contracts/contracts/market_pri/NewMarket.sol\":20330:20331  0 */\n      0x00\n        /* \"NFT-Contracts/contracts/market_pri/NewMarket.sol\":20198:20389  Auction(\r... */\n      0xffffffffffffffffffffffffffffffffffffffff\n      and\n      dup2\n      mstore\n      0x20\n      add\n        /* \"NFT-Contracts/contracts/market_pri/NewMarket.sol\":20347:20357  msg.sender */\n      caller\n        /* \"NFT-Contracts/contracts/market_pri/NewMarket.sol\":20198:20389  Auction(\r... */\n      0xffffffffffffffffffffffffffffffffffffffff\n      and\n      dup2\n      mstore\n      0x20\n      add\n        /* \"NFT-Contracts/contracts/market_pri/NewMarket.sol\":20372:20378  _erc20 */\n      dup7\n        /* \"NFT-Contracts/contracts/market_pri/NewMarket.sol\":20198:20389  Auction(\r... */\n      0xffffffffffffffffffffffffffffffffffffffff\n      and\n      dup2\n      mstore\n      pop\n        /* \"NFT-Contracts/contracts/market_pri/NewMarket.sol\":20142:20164  nftContractAuctionSale */\n      0x01\n        /* \"NFT-Contracts/contracts/market_pri/NewMarket.sol\":20142:20185  nftContractAuctionSale[_nftContractAddress] */\n      0x00\n        /* \"NFT-Contracts/contracts/market_pri/NewMarket.sol\":20165:20184  _nftContractAddress */\n      dup9\n        /* \"NFT-Contracts/contracts/market_pri/NewMarket.sol\":20142:20185  nftContractAuctionSale[_nftContractAddress] */\n      0xffffffffffffffffffffffffffffffffffffffff\n      and\n      0xffffffffffffffffffffffffffffffffffffffff\n      and\n      dup2\n      mstore\n      0x20\n      add\n      swap1\n      dup2\n      mstore\n      0x20\n      add\n      0x00\n      keccak256\n        /* \"NFT-Contracts/contracts/market_pri/NewMarket.sol\":20142:20195  nftContractAuctionSale[_nftContractAddress][_tokenId] */\n      0x00\n        /* \"NFT-Contracts/contracts/market_pri/NewMarket.sol\":20186:20194  _tokenId */\n      dup7\n        /* \"NFT-Contracts/contracts/market_pri/NewMarket.sol\":20142:20195  nftContractAuctionSale[_nftContractAddress][_tokenId] */\n      dup2\n      mstore\n      0x20\n      add\n      swap1\n      dup2\n      mstore\n      0x20\n      add\n      0x00\n      keccak256\n        /* \"NFT-Contracts/contracts/market_pri/NewMarket.sol\":20142:20389  nftContractAuctionSale[_nftContractAddress][_tokenId] = Auction(\r... */\n      0x00\n      dup3\n      add\n      mload\n      dup2\n      0x00\n      add\n      sstore\n      0x20\n      dup3\n      add\n      mload\n      dup2\n      0x01\n      add\n      sstore\n      0x40\n      dup3\n      add\n      mload\n      dup2\n      0x02\n      add\n      sstore\n      0x60\n      dup3\n      add\n      mload\n      dup2\n      0x03\n      add\n      sstore\n      0x80\n      dup3\n      add\n      mload\n      dup2\n      0x04\n      add\n      exp(0x0100, 0x00)\n      dup2\n      sload\n      dup2\n      0xffffffffffffffffffffffffffffffffffffffff\n      mul\n      not\n      and\n      swap1\n      dup4\n      0xffffffffffffffffffffffffffffffffffffffff\n      and\n      mul\n      or\n      swap1\n      sstore\n      pop\n      0xa0\n      dup3\n      add\n      mload\n      dup2\n      0x05\n      add\n      exp(0x0100, 0x00)\n      dup2\n      sload\n      dup2\n      0xffffffffffffffffffffffffffffffffffffffff\n      mul\n      not\n      and\n      swap1\n      dup4\n      0xffffffffffffffffffffffffffffffffffffffff\n      and\n      mul\n      or\n      swap1\n      sstore\n      pop\n      0xc0\n      dup3\n      add\n      mload\n      dup2\n      0x06\n      add\n      exp(0x0100, 0x00)\n      dup2\n      sload\n      dup2\n      0xffffffffffffffffffffffffffffffffffffffff\n      mul\n      not\n      and\n      swap1\n      dup4\n      0xffffffffffffffffffffffffffffffffffffffff\n      and\n      mul\n      or\n      swap1\n      sstore\n      pop\n      swap1\n      pop\n      pop\n        /* \"NFT-Contracts/contracts/market_pri/NewMarket.sol\":20449:20450  2 */\n      0x02\n        /* \"NFT-Contracts/contracts/market_pri/NewMarket.sol\":20402:20415  nftSaleStatus */\n      dup1\n        /* \"NFT-Contracts/contracts/market_pri/NewMarket.sol\":20402:20436  nftSaleStatus[_nftContractAddress] */\n      0x00\n        /* \"NFT-Contracts/contracts/market_pri/NewMarket.sol\":20416:20435  _nftContractAddress */\n      dup9\n        /* \"NFT-Contracts/contracts/market_pri/NewMarket.sol\":20402:20436  nftSaleStatus[_nftContractAddress] */\n      0xffffffffffffffffffffffffffffffffffffffff\n      and\n      0xffffffffffffffffffffffffffffffffffffffff\n      and\n      dup2\n      mstore\n      0x20\n      add\n      swap1\n      dup2\n      mstore\n      0x20\n      add\n      0x00\n      keccak256\n        /* \"NFT-Contracts/contracts/market_pri/NewMarket.sol\":20402:20446  nftSaleStatus[_nftContractAddress][_tokenId] */\n      0x00\n        /* \"NFT-Contracts/contracts/market_pri/NewMarket.sol\":20437:20445  _tokenId */\n      dup7\n        /* \"NFT-Contracts/contracts/market_pri/NewMarket.sol\":20402:20446  nftSaleStatus[_nftContractAddress][_tokenId] */\n      dup2\n      mstore\n      0x20\n      add\n      swap1\n      dup2\n      mstore\n      0x20\n      add\n      0x00\n      keccak256\n        /* \"NFT-Contracts/contracts/market_pri/NewMarket.sol\":20402:20450  nftSaleStatus[_nftContractAddress][_tokenId] = 2 */\n      dup2\n      swap1\n      sstore\n      pop\n        /* \"NFT-Contracts/contracts/market_pri/NewMarket.sol\":20471:20490  _nftContractAddress */\n      dup6\n        /* \"NFT-Contracts/contracts/market_pri/NewMarket.sol\":20463:20508  IERC721(_nftContractAddress).safeTransferFrom */\n      0xffffffffffffffffffffffffffffffffffffffff\n      and\n      0x42842e0e\n        /* \"NFT-Contracts/contracts/market_pri/NewMarket.sol\":20523:20533  msg.sender */\n      caller\n        /* \"NFT-Contracts/contracts/market_pri/NewMarket.sol\":20556:20560  this */\n      address\n        /* \"NFT-Contracts/contracts/market_pri/NewMarket.sol\":20576:20584  _tokenId */\n      dup8\n        /* \"NFT-Contracts/contracts/market_pri/NewMarket.sol\":20463:20595  IERC721(_nftContractAddress).safeTransferFrom(\r... */\n      mload(0x40)\n      dup5\n      0xffffffff\n      and\n      0xe0\n      shl\n      dup2\n      mstore\n      0x04\n      add\n      tag_371\n      swap4\n      swap3\n      swap2\n      swap1\n      tag_117\n      jump\t// in\n    tag_371:\n      0x00\n      mload(0x40)\n      dup1\n      dup4\n      sub\n      dup2\n      0x00\n      dup8\n      dup1\n      extcodesize\n      iszero\n      dup1\n      iszero\n      tag_372\n      jumpi\n      0x00\n      dup1\n      revert\n    tag_372:\n      pop\n      gas\n      call\n      iszero\n      dup1\n      iszero\n      tag_374\n      jumpi\n      returndatasize\n      0x00\n      dup1\n      returndatacopy\n      revert(0x00, returndatasize)\n    tag_374:\n      pop\n      pop\n      pop\n      pop\n        /* \"NFT-Contracts/contracts/market_pri/NewMarket.sol\":19901:20603  function _storedNftAuctionDetails(\r... */\n      pop\n      pop\n      pop\n      pop\n      pop\n      pop\n      jump\t// out\n        /* \"NFT-Contracts/contracts/market_pri/NewMarket.sol\":19329:19671  function _tokenAmountTransfer(\r... */\n    tag_366:\n        /* \"NFT-Contracts/contracts/market_pri/NewMarket.sol\":19498:19504  _erc20 */\n      dup2\n        /* \"NFT-Contracts/contracts/market_pri/NewMarket.sol\":19491:19518  IERC20(_erc20).transferFrom */\n      0xffffffffffffffffffffffffffffffffffffffff\n      and\n      0x23b872dd\n        /* \"NFT-Contracts/contracts/market_pri/NewMarket.sol\":19519:19529  msg.sender */\n      caller\n        /* \"NFT-Contracts/contracts/market_pri/NewMarket.sol\":19539:19543  this */\n      address\n        /* \"NFT-Contracts/contracts/market_pri/NewMarket.sol\":19546:19556  _buyAmount */\n      dup5\n        /* \"NFT-Contracts/contracts/market_pri/NewMarket.sol\":19491:19557  IERC20(_erc20).transferFrom(msg.sender, address(this), _buyAmount) */\n      mload(0x40)\n      dup5\n      0xffffffff\n      and\n      0xe0\n      shl\n      dup2\n      mstore\n      0x04\n      add\n      tag_376\n      swap4\n      swap3\n      swap2\n      swap1\n      tag_117\n      jump\t// in\n    tag_376:\n      0x20\n      mload(0x40)\n      dup1\n      dup4\n      sub\n      dup2\n      0x00\n      dup8\n      dup1\n      extcodesize\n      iszero\n      dup1\n      iszero\n      tag_377\n      jumpi\n      0x00\n      dup1\n      revert\n    tag_377:\n      pop\n      gas\n      call\n      iszero\n      dup1\n      iszero\n      tag_379\n      jumpi\n      returndatasize\n      0x00\n      dup1\n      returndatacopy\n      revert(0x00, returndatasize)\n    tag_379:\n      pop\n      pop\n      pop\n      pop\n      mload(0x40)\n      returndatasize\n      not(0x1f)\n      0x1f\n      dup3\n      add\n      and\n      dup3\n      add\n      dup1\n      0x40\n      mstore\n      pop\n      dup2\n      add\n      swap1\n      tag_380\n      swap2\n      swap1\n      tag_122\n      jump\t// in\n    tag_380:\n        /* \"NFT-Contracts/contracts/market_pri/NewMarket.sol\":19469:19605  require(\r... */\n      tag_381\n      jumpi\n      mload(0x40)\n      0x08c379a000000000000000000000000000000000000000000000000000000000\n      dup2\n      mstore\n      0x04\n      add\n      tag_382\n      swap1\n      tag_353\n      jump\t// in\n    tag_382:\n      mload(0x40)\n      dup1\n      swap2\n      sub\n      swap1\n      revert\n    tag_381:\n        /* \"NFT-Contracts/contracts/market_pri/NewMarket.sol\":19623:19629  _erc20 */\n      dup2\n        /* \"NFT-Contracts/contracts/market_pri/NewMarket.sol\":19616:19639  IERC20(_erc20).transfer */\n      0xffffffffffffffffffffffffffffffffffffffff\n      and\n      0xa9059cbb\n        /* \"NFT-Contracts/contracts/market_pri/NewMarket.sol\":19640:19650  _nftSeller */\n      dup5\n        /* \"NFT-Contracts/contracts/market_pri/NewMarket.sol\":19652:19662  _buyAmount */\n      dup4\n        /* \"NFT-Contracts/contracts/market_pri/NewMarket.sol\":19616:19663  IERC20(_erc20).transfer(_nftSeller, _buyAmount) */\n      mload(0x40)\n      dup4\n      0xffffffff\n      and\n      0xe0\n      shl\n      dup2\n      mstore\n      0x04\n      add\n      tag_383\n      swap3\n      swap2\n      swap1\n      tag_384\n      jump\t// in\n    tag_383:\n      0x20\n      mload(0x40)\n      dup1\n      dup4\n      sub\n      dup2\n      0x00\n      dup8\n      dup1\n      extcodesize\n      iszero\n      dup1\n      iszero\n      tag_385\n      jumpi\n      0x00\n      dup1\n      revert\n    tag_385:\n      pop\n      gas\n      call\n      iszero\n      dup1\n      iszero\n      tag_387\n      jumpi\n      returndatasize\n      0x00\n      dup1\n      returndatacopy\n      revert(0x00, returndatasize)\n    tag_387:\n      pop\n      pop\n      pop\n      pop\n      mload(0x40)\n      returndatasize\n      not(0x1f)\n      0x1f\n      dup3\n      add\n      and\n      dup3\n      add\n      dup1\n      0x40\n      mstore\n      pop\n      dup2\n      add\n      swap1\n      tag_388\n      swap2\n      swap1\n      tag_122\n      jump\t// in\n    tag_388:\n      pop\n        /* \"NFT-Contracts/contracts/market_pri/NewMarket.sol\":19329:19671  function _tokenAmountTransfer(\r... */\n      pop\n      pop\n      pop\n      jump\t// out\n        /* \"NFT-Contracts/contracts/market_pri/NewMarket.sol\":19679:19893  function _nativeAmountTransfer(address _nftSeller, uint256 _buyAmount)\r... */\n    tag_369:\n        /* \"NFT-Contracts/contracts/market_pri/NewMarket.sol\":19785:19797  bool success */\n      0x00\n        /* \"NFT-Contracts/contracts/market_pri/NewMarket.sol\":19803:19813  _nftSeller */\n      dup3\n        /* \"NFT-Contracts/contracts/market_pri/NewMarket.sol\":19803:19818  _nftSeller.call */\n      0xffffffffffffffffffffffffffffffffffffffff\n      and\n        /* \"NFT-Contracts/contracts/market_pri/NewMarket.sol\":19826:19836  _buyAmount */\n      dup3\n        /* \"NFT-Contracts/contracts/market_pri/NewMarket.sol\":19803:19841  _nftSeller.call{value: _buyAmount}(\"\") */\n      mload(0x40)\n      tag_390\n      swap1\n      tag_391\n      jump\t// in\n    tag_390:\n      0x00\n      mload(0x40)\n      dup1\n      dup4\n      sub\n      dup2\n      dup6\n      dup8\n      gas\n      call\n      swap3\n      pop\n      pop\n      pop\n      returndatasize\n      dup1\n      0x00\n      dup2\n      eq\n      tag_394\n      jumpi\n      mload(0x40)\n      swap2\n      pop\n      and(add(returndatasize, 0x3f), not(0x1f))\n      dup3\n      add\n      0x40\n      mstore\n      returndatasize\n      dup3\n      mstore\n      returndatasize\n      0x00\n      0x20\n      dup5\n      add\n      returndatacopy\n      jump(tag_393)\n    tag_394:\n      0x60\n      swap2\n      pop\n    tag_393:\n      pop\n        /* \"NFT-Contracts/contracts/market_pri/NewMarket.sol\":19784:19841  (bool success, ) = _nftSeller.call{value: _buyAmount}(\"\") */\n      pop\n      swap1\n      pop\n        /* \"NFT-Contracts/contracts/market_pri/NewMarket.sol\":19860:19867  success */\n      dup1\n        /* \"NFT-Contracts/contracts/market_pri/NewMarket.sol\":19852:19885  require(success, \"refund failed\") */\n      tag_395\n      jumpi\n      mload(0x40)\n      0x08c379a000000000000000000000000000000000000000000000000000000000\n      dup2\n      mstore\n      0x04\n      add\n      tag_396\n      swap1\n      tag_397\n      jump\t// in\n    tag_396:\n      mload(0x40)\n      dup1\n      swap2\n      sub\n      swap1\n      revert\n    tag_395:\n        /* \"NFT-Contracts/contracts/market_pri/NewMarket.sol\":19773:19893  {\r... */\n      pop\n        /* \"NFT-Contracts/contracts/market_pri/NewMarket.sol\":19679:19893  function _nativeAmountTransfer(address _nftSeller, uint256 _buyAmount)\r... */\n      pop\n      pop\n      jump\t// out\n    tag_245:\n      mload(0x40)\n      dup1\n      0xe0\n      add\n      0x40\n      mstore\n      dup1\n      0x00\n      dup2\n      mstore\n      0x20\n      add\n      0x00\n      dup2\n      mstore\n      0x20\n      add\n      0x00\n      dup2\n      mstore\n      0x20\n      add\n      0x00\n      dup2\n      mstore\n      0x20\n      add\n      and(0xffffffffffffffffffffffffffffffffffffffff, 0x00)\n      dup2\n      mstore\n      0x20\n      add\n      and(0xffffffffffffffffffffffffffffffffffffffff, 0x00)\n      dup2\n      mstore\n      0x20\n      add\n      and(0xffffffffffffffffffffffffffffffffffffffff, 0x00)\n      dup2\n      mstore\n      pop\n      swap1\n      jump\t// out\n    tag_274:\n      mload(0x40)\n      dup1\n      0x80\n      add\n      0x40\n      mstore\n      dup1\n      and(0xffffffffffffffffffffffffffffffffffffffff, 0x00)\n      dup2\n      mstore\n      0x20\n      add\n      and(0xffffffffffffffffffffffffffffffffffffffff, 0x00)\n      dup2\n      mstore\n      0x20\n      add\n      and(0xffffffffffffffffffffffffffffffffffffffff, 0x00)\n      dup2\n      mstore\n      0x20\n      add\n      0x00\n      dup2\n      mstore\n      pop\n      swap1\n      jump\t// out\n        /* \"#utility.yul\":7:146   */\n    tag_399:\n        /* \"#utility.yul\":53:58   */\n      0x00\n        /* \"#utility.yul\":91:97   */\n      dup2\n        /* \"#utility.yul\":78:98   */\n      calldataload\n        /* \"#utility.yul\":69:98   */\n      swap1\n      pop\n        /* \"#utility.yul\":107:140   */\n      tag_401\n        /* \"#utility.yul\":134:139   */\n      dup2\n        /* \"#utility.yul\":107:140   */\n      tag_402\n      jump\t// in\n    tag_401:\n        /* \"#utility.yul\":7:146   */\n      swap3\n      swap2\n      pop\n      pop\n      jump\t// out\n        /* \"#utility.yul\":152:295   */\n    tag_403:\n        /* \"#utility.yul\":209:214   */\n      0x00\n        /* \"#utility.yul\":240:246   */\n      dup2\n        /* \"#utility.yul\":234:247   */\n      mload\n        /* \"#utility.yul\":225:247   */\n      swap1\n      pop\n        /* \"#utility.yul\":256:289   */\n      tag_405\n        /* \"#utility.yul\":283:288   */\n      dup2\n        /* \"#utility.yul\":256:289   */\n      tag_402\n      jump\t// in\n    tag_405:\n        /* \"#utility.yul\":152:295   */\n      swap3\n      swap2\n      pop\n      pop\n      jump\t// out\n        /* \"#utility.yul\":301:438   */\n    tag_406:\n        /* \"#utility.yul\":355:360   */\n      0x00\n        /* \"#utility.yul\":386:392   */\n      dup2\n        /* \"#utility.yul\":380:393   */\n      mload\n        /* \"#utility.yul\":371:393   */\n      swap1\n      pop\n        /* \"#utility.yul\":402:432   */\n      tag_408\n        /* \"#utility.yul\":426:431   */\n      dup2\n        /* \"#utility.yul\":402:432   */\n      tag_409\n      jump\t// in\n    tag_408:\n        /* \"#utility.yul\":301:438   */\n      swap3\n      swap2\n      pop\n      pop\n      jump\t// out\n        /* \"#utility.yul\":457:1009   */\n    tag_410:\n        /* \"#utility.yul\":514:522   */\n      0x00\n        /* \"#utility.yul\":524:530   */\n      dup1\n        /* \"#utility.yul\":574:577   */\n      dup4\n        /* \"#utility.yul\":567:571   */\n      0x1f\n        /* \"#utility.yul\":559:565   */\n      dup5\n        /* \"#utility.yul\":555:572   */\n      add\n        /* \"#utility.yul\":551:578   */\n      slt\n        /* \"#utility.yul\":541:663   */\n      tag_412\n      jumpi\n        /* \"#utility.yul\":582:661   */\n      tag_413\n      tag_414\n      jump\t// in\n    tag_413:\n        /* \"#utility.yul\":541:663   */\n    tag_412:\n        /* \"#utility.yul\":695:701   */\n      dup3\n        /* \"#utility.yul\":682:702   */\n      calldataload\n        /* \"#utility.yul\":672:702   */\n      swap1\n      pop\n        /* \"#utility.yul\":725:743   */\n      0xffffffffffffffff\n        /* \"#utility.yul\":717:723   */\n      dup2\n        /* \"#utility.yul\":714:744   */\n      gt\n        /* \"#utility.yul\":711:828   */\n      iszero\n      tag_415\n      jumpi\n        /* \"#utility.yul\":747:826   */\n      tag_416\n      tag_417\n      jump\t// in\n    tag_416:\n        /* \"#utility.yul\":711:828   */\n    tag_415:\n        /* \"#utility.yul\":861:865   */\n      0x20\n        /* \"#utility.yul\":853:859   */\n      dup4\n        /* \"#utility.yul\":849:866   */\n      add\n        /* \"#utility.yul\":837:866   */\n      swap2\n      pop\n        /* \"#utility.yul\":915:918   */\n      dup4\n        /* \"#utility.yul\":907:911   */\n      0x01\n        /* \"#utility.yul\":899:905   */\n      dup3\n        /* \"#utility.yul\":895:912   */\n      mul\n        /* \"#utility.yul\":885:893   */\n      dup4\n        /* \"#utility.yul\":881:913   */\n      add\n        /* \"#utility.yul\":878:919   */\n      gt\n        /* \"#utility.yul\":875:1003   */\n      iszero\n      tag_418\n      jumpi\n        /* \"#utility.yul\":922:1001   */\n      tag_419\n      tag_420\n      jump\t// in\n    tag_419:\n        /* \"#utility.yul\":875:1003   */\n    tag_418:\n        /* \"#utility.yul\":457:1009   */\n      swap3\n      pop\n      swap3\n      swap1\n      pop\n      jump\t// out\n        /* \"#utility.yul\":1015:1154   */\n    tag_421:\n        /* \"#utility.yul\":1061:1066   */\n      0x00\n        /* \"#utility.yul\":1099:1105   */\n      dup2\n        /* \"#utility.yul\":1086:1106   */\n      calldataload\n        /* \"#utility.yul\":1077:1106   */\n      swap1\n      pop\n        /* \"#utility.yul\":1115:1148   */\n      tag_423\n        /* \"#utility.yul\":1142:1147   */\n      dup2\n        /* \"#utility.yul\":1115:1148   */\n      tag_424\n      jump\t// in\n    tag_423:\n        /* \"#utility.yul\":1015:1154   */\n      swap3\n      swap2\n      pop\n      pop\n      jump\t// out\n        /* \"#utility.yul\":1160:1511   */\n    tag_216:\n        /* \"#utility.yul\":1230:1236   */\n      0x00\n        /* \"#utility.yul\":1279:1281   */\n      0x20\n        /* \"#utility.yul\":1267:1276   */\n      dup3\n        /* \"#utility.yul\":1258:1265   */\n      dup5\n        /* \"#utility.yul\":1254:1277   */\n      sub\n        /* \"#utility.yul\":1250:1282   */\n      slt\n        /* \"#utility.yul\":1247:1366   */\n      iszero\n      tag_426\n      jumpi\n        /* \"#utility.yul\":1285:1364   */\n      tag_427\n      tag_428\n      jump\t// in\n    tag_427:\n        /* \"#utility.yul\":1247:1366   */\n    tag_426:\n        /* \"#utility.yul\":1405:1406   */\n      0x00\n        /* \"#utility.yul\":1430:1494   */\n      tag_429\n        /* \"#utility.yul\":1486:1493   */\n      dup5\n        /* \"#utility.yul\":1477:1483   */\n      dup3\n        /* \"#utility.yul\":1466:1475   */\n      dup6\n        /* \"#utility.yul\":1462:1484   */\n      add\n        /* \"#utility.yul\":1430:1494   */\n      tag_403\n      jump\t// in\n    tag_429:\n        /* \"#utility.yul\":1420:1494   */\n      swap2\n      pop\n        /* \"#utility.yul\":1376:1504   */\n      pop\n        /* \"#utility.yul\":1160:1511   */\n      swap3\n      swap2\n      pop\n      pop\n      jump\t// out\n        /* \"#utility.yul\":1517:2136   */\n    tag_29:\n        /* \"#utility.yul\":1594:1600   */\n      0x00\n        /* \"#utility.yul\":1602:1608   */\n      dup1\n        /* \"#utility.yul\":1610:1616   */\n      0x00\n        /* \"#utility.yul\":1659:1661   */\n      0x60\n        /* \"#utility.yul\":1647:1656   */\n      dup5\n        /* \"#utility.yul\":1638:1645   */\n      dup7\n        /* \"#utility.yul\":1634:1657   */\n      sub\n        /* \"#utility.yul\":1630:1662   */\n      slt\n        /* \"#utility.yul\":1627:1746   */\n      iszero\n      tag_431\n      jumpi\n        /* \"#utility.yul\":1665:1744   */\n      tag_432\n      tag_428\n      jump\t// in\n    tag_432:\n        /* \"#utility.yul\":1627:1746   */\n    tag_431:\n        /* \"#utility.yul\":1785:1786   */\n      0x00\n        /* \"#utility.yul\":1810:1863   */\n      tag_433\n        /* \"#utility.yul\":1855:1862   */\n      dup7\n        /* \"#utility.yul\":1846:1852   */\n      dup3\n        /* \"#utility.yul\":1835:1844   */\n      dup8\n        /* \"#utility.yul\":1831:1853   */\n      add\n        /* \"#utility.yul\":1810:1863   */\n      tag_399\n      jump\t// in\n    tag_433:\n        /* \"#utility.yul\":1800:1863   */\n      swap4\n      pop\n        /* \"#utility.yul\":1756:1873   */\n      pop\n        /* \"#utility.yul\":1912:1914   */\n      0x20\n        /* \"#utility.yul\":1938:1991   */\n      tag_434\n        /* \"#utility.yul\":1983:1990   */\n      dup7\n        /* \"#utility.yul\":1974:1980   */\n      dup3\n        /* \"#utility.yul\":1963:1972   */\n      dup8\n        /* \"#utility.yul\":1959:1981   */\n      add\n        /* \"#utility.yul\":1938:1991   */\n      tag_399\n      jump\t// in\n    tag_434:\n        /* \"#utility.yul\":1928:1991   */\n      swap3\n      pop\n        /* \"#utility.yul\":1883:2001   */\n      pop\n        /* \"#utility.yul\":2040:2042   */\n      0x40\n        /* \"#utility.yul\":2066:2119   */\n      tag_435\n        /* \"#utility.yul\":2111:2118   */\n      dup7\n        /* \"#utility.yul\":2102:2108   */\n      dup3\n        /* \"#utility.yul\":2091:2100   */\n      dup8\n        /* \"#utility.yul\":2087:2109   */\n      add\n        /* \"#utility.yul\":2066:2119   */\n      tag_421\n      jump\t// in\n    tag_435:\n        /* \"#utility.yul\":2056:2119   */\n      swap2\n      pop\n        /* \"#utility.yul\":2011:2129   */\n      pop\n        /* \"#utility.yul\":1517:2136   */\n      swap3\n      pop\n      swap3\n      pop\n      swap3\n      jump\t// out\n        /* \"#utility.yul\":2142:3105   */\n    tag_36:\n        /* \"#utility.yul\":2239:2245   */\n      0x00\n        /* \"#utility.yul\":2247:2253   */\n      dup1\n        /* \"#utility.yul\":2255:2261   */\n      0x00\n        /* \"#utility.yul\":2263:2269   */\n      dup1\n        /* \"#utility.yul\":2271:2277   */\n      0x00\n        /* \"#utility.yul\":2320:2323   */\n      0x80\n        /* \"#utility.yul\":2308:2317   */\n      dup7\n        /* \"#utility.yul\":2299:2306   */\n      dup9\n        /* \"#utility.yul\":2295:2318   */\n      sub\n        /* \"#utility.yul\":2291:2324   */\n      slt\n        /* \"#utility.yul\":2288:2408   */\n      iszero\n      tag_437\n      jumpi\n        /* \"#utility.yul\":2327:2406   */\n      tag_438\n      tag_428\n      jump\t// in\n    tag_438:\n        /* \"#utility.yul\":2288:2408   */\n    tag_437:\n        /* \"#utility.yul\":2447:2448   */\n      0x00\n        /* \"#utility.yul\":2472:2525   */\n      tag_439\n        /* \"#utility.yul\":2517:2524   */\n      dup9\n        /* \"#utility.yul\":2508:2514   */\n      dup3\n        /* \"#utility.yul\":2497:2506   */\n      dup10\n        /* \"#utility.yul\":2493:2515   */\n      add\n        /* \"#utility.yul\":2472:2525   */\n      tag_399\n      jump\t// in\n    tag_439:\n        /* \"#utility.yul\":2462:2525   */\n      swap6\n      pop\n        /* \"#utility.yul\":2418:2535   */\n      pop\n        /* \"#utility.yul\":2574:2576   */\n      0x20\n        /* \"#utility.yul\":2600:2653   */\n      tag_440\n        /* \"#utility.yul\":2645:2652   */\n      dup9\n        /* \"#utility.yul\":2636:2642   */\n      dup3\n        /* \"#utility.yul\":2625:2634   */\n      dup10\n        /* \"#utility.yul\":2621:2643   */\n      add\n        /* \"#utility.yul\":2600:2653   */\n      tag_399\n      jump\t// in\n    tag_440:\n        /* \"#utility.yul\":2590:2653   */\n      swap5\n      pop\n        /* \"#utility.yul\":2545:2663   */\n      pop\n        /* \"#utility.yul\":2702:2704   */\n      0x40\n        /* \"#utility.yul\":2728:2781   */\n      tag_441\n        /* \"#utility.yul\":2773:2780   */\n      dup9\n        /* \"#utility.yul\":2764:2770   */\n      dup3\n        /* \"#utility.yul\":2753:2762   */\n      dup10\n        /* \"#utility.yul\":2749:2771   */\n      add\n        /* \"#utility.yul\":2728:2781   */\n      tag_421\n      jump\t// in\n    tag_441:\n        /* \"#utility.yul\":2718:2781   */\n      swap4\n      pop\n        /* \"#utility.yul\":2673:2791   */\n      pop\n        /* \"#utility.yul\":2858:2860   */\n      0x60\n        /* \"#utility.yul\":2847:2856   */\n      dup7\n        /* \"#utility.yul\":2843:2861   */\n      add\n        /* \"#utility.yul\":2830:2862   */\n      calldataload\n        /* \"#utility.yul\":2889:2907   */\n      0xffffffffffffffff\n        /* \"#utility.yul\":2881:2887   */\n      dup2\n        /* \"#utility.yul\":2878:2908   */\n      gt\n        /* \"#utility.yul\":2875:2992   */\n      iszero\n      tag_442\n      jumpi\n        /* \"#utility.yul\":2911:2990   */\n      tag_443\n      tag_444\n      jump\t// in\n    tag_443:\n        /* \"#utility.yul\":2875:2992   */\n    tag_442:\n        /* \"#utility.yul\":3024:3088   */\n      tag_445\n        /* \"#utility.yul\":3080:3087   */\n      dup9\n        /* \"#utility.yul\":3071:3077   */\n      dup3\n        /* \"#utility.yul\":3060:3069   */\n      dup10\n        /* \"#utility.yul\":3056:3078   */\n      add\n        /* \"#utility.yul\":3024:3088   */\n      tag_410\n      jump\t// in\n    tag_445:\n        /* \"#utility.yul\":3006:3088   */\n      swap3\n      pop\n      swap3\n      pop\n        /* \"#utility.yul\":2801:3098   */\n      pop\n        /* \"#utility.yul\":2142:3105   */\n      swap3\n      swap6\n      pop\n      swap3\n      swap6\n      swap1\n      swap4\n      pop\n      jump\t// out\n        /* \"#utility.yul\":3111:3876   */\n    tag_69:\n        /* \"#utility.yul\":3197:3203   */\n      0x00\n        /* \"#utility.yul\":3205:3211   */\n      dup1\n        /* \"#utility.yul\":3213:3219   */\n      0x00\n        /* \"#utility.yul\":3221:3227   */\n      dup1\n        /* \"#utility.yul\":3270:3273   */\n      0x80\n        /* \"#utility.yul\":3258:3267   */\n      dup6\n        /* \"#utility.yul\":3249:3256   */\n      dup8\n        /* \"#utility.yul\":3245:3268   */\n      sub\n        /* \"#utility.yul\":3241:3274   */\n      slt\n        /* \"#utility.yul\":3238:3358   */\n      iszero\n      tag_447\n      jumpi\n        /* \"#utility.yul\":3277:3356   */\n      tag_448\n      tag_428\n      jump\t// in\n    tag_448:\n        /* \"#utility.yul\":3238:3358   */\n    tag_447:\n        /* \"#utility.yul\":3397:3398   */\n      0x00\n        /* \"#utility.yul\":3422:3475   */\n      tag_449\n        /* \"#utility.yul\":3467:3474   */\n      dup8\n        /* \"#utility.yul\":3458:3464   */\n      dup3\n        /* \"#utility.yul\":3447:3456   */\n      dup9\n        /* \"#utility.yul\":3443:3465   */\n      add\n        /* \"#utility.yul\":3422:3475   */\n      tag_399\n      jump\t// in\n    tag_449:\n        /* \"#utility.yul\":3412:3475   */\n      swap5\n      pop\n        /* \"#utility.yul\":3368:3485   */\n      pop\n        /* \"#utility.yul\":3524:3526   */\n      0x20\n        /* \"#utility.yul\":3550:3603   */\n      tag_450\n        /* \"#utility.yul\":3595:3602   */\n      dup8\n        /* \"#utility.yul\":3586:3592   */\n      dup3\n        /* \"#utility.yul\":3575:3584   */\n      dup9\n        /* \"#utility.yul\":3571:3593   */\n      add\n        /* \"#utility.yul\":3550:3603   */\n      tag_399\n      jump\t// in\n    tag_450:\n        /* \"#utility.yul\":3540:3603   */\n      swap4\n      pop\n        /* \"#utility.yul\":3495:3613   */\n      pop\n        /* \"#utility.yul\":3652:3654   */\n      0x40\n        /* \"#utility.yul\":3678:3731   */\n      tag_451\n        /* \"#utility.yul\":3723:3730   */\n      dup8\n        /* \"#utility.yul\":3714:3720   */\n      dup3\n        /* \"#utility.yul\":3703:3712   */\n      dup9\n        /* \"#utility.yul\":3699:3721   */\n      add\n        /* \"#utility.yul\":3678:3731   */\n      tag_421\n      jump\t// in\n    tag_451:\n        /* \"#utility.yul\":3668:3731   */\n      swap3\n      pop\n        /* \"#utility.yul\":3623:3741   */\n      pop\n        /* \"#utility.yul\":3780:3782   */\n      0x60\n        /* \"#utility.yul\":3806:3859   */\n      tag_452\n        /* \"#utility.yul\":3851:3858   */\n      dup8\n        /* \"#utility.yul\":3842:3848   */\n      dup3\n        /* \"#utility.yul\":3831:3840   */\n      dup9\n        /* \"#utility.yul\":3827:3849   */\n      add\n        /* \"#utility.yul\":3806:3859   */\n      tag_421\n      jump\t// in\n    tag_452:\n        /* \"#utility.yul\":3796:3859   */\n      swap2\n      pop\n        /* \"#utility.yul\":3751:3869   */\n      pop\n        /* \"#utility.yul\":3111:3876   */\n      swap3\n      swap6\n      swap2\n      swap5\n      pop\n      swap3\n      pop\n      jump\t// out\n        /* \"#utility.yul\":3882:4939   */\n    tag_109:\n        /* \"#utility.yul\":3986:3992   */\n      0x00\n        /* \"#utility.yul\":3994:4000   */\n      dup1\n        /* \"#utility.yul\":4002:4008   */\n      0x00\n        /* \"#utility.yul\":4010:4016   */\n      dup1\n        /* \"#utility.yul\":4018:4024   */\n      0x00\n        /* \"#utility.yul\":4026:4032   */\n      dup1\n        /* \"#utility.yul\":4075:4078   */\n      0xc0\n        /* \"#utility.yul\":4063:4072   */\n      dup8\n        /* \"#utility.yul\":4054:4061   */\n      dup10\n        /* \"#utility.yul\":4050:4073   */\n      sub\n        /* \"#utility.yul\":4046:4079   */\n      slt\n        /* \"#utility.yul\":4043:4163   */\n      iszero\n      tag_454\n      jumpi\n        /* \"#utility.yul\":4082:4161   */\n      tag_455\n      tag_428\n      jump\t// in\n    tag_455:\n        /* \"#utility.yul\":4043:4163   */\n    tag_454:\n        /* \"#utility.yul\":4202:4203   */\n      0x00\n        /* \"#utility.yul\":4227:4280   */\n      tag_456\n        /* \"#utility.yul\":4272:4279   */\n      dup10\n        /* \"#utility.yul\":4263:4269   */\n      dup3\n        /* \"#utility.yul\":4252:4261   */\n      dup11\n        /* \"#utility.yul\":4248:4270   */\n      add\n        /* \"#utility.yul\":4227:4280   */\n      tag_399\n      jump\t// in\n    tag_456:\n        /* \"#utility.yul\":4217:4280   */\n      swap7\n      pop\n        /* \"#utility.yul\":4173:4290   */\n      pop\n        /* \"#utility.yul\":4329:4331   */\n      0x20\n        /* \"#utility.yul\":4355:4408   */\n      tag_457\n        /* \"#utility.yul\":4400:4407   */\n      dup10\n        /* \"#utility.yul\":4391:4397   */\n      dup3\n        /* \"#utility.yul\":4380:4389   */\n      dup11\n        /* \"#utility.yul\":4376:4398   */\n      add\n        /* \"#utility.yul\":4355:4408   */\n      tag_399\n      jump\t// in\n    tag_457:\n        /* \"#utility.yul\":4345:4408   */\n      swap6\n      pop\n        /* \"#utility.yul\":4300:4418   */\n      pop\n        /* \"#utility.yul\":4457:4459   */\n      0x40\n        /* \"#utility.yul\":4483:4536   */\n      tag_458\n        /* \"#utility.yul\":4528:4535   */\n      dup10\n        /* \"#utility.yul\":4519:4525   */\n      dup3\n        /* \"#utility.yul\":4508:4517   */\n      dup11\n        /* \"#utility.yul\":4504:4526   */\n      add\n        /* \"#utility.yul\":4483:4536   */\n      tag_421\n      jump\t// in\n    tag_458:\n        /* \"#utility.yul\":4473:4536   */\n      swap5\n      pop\n        /* \"#utility.yul\":4428:4546   */\n      pop\n        /* \"#utility.yul\":4585:4587   */\n      0x60\n        /* \"#utility.yul\":4611:4664   */\n      tag_459\n        /* \"#utility.yul\":4656:4663   */\n      dup10\n        /* \"#utility.yul\":4647:4653   */\n      dup3\n        /* \"#utility.yul\":4636:4645   */\n      dup11\n        /* \"#utility.yul\":4632:4654   */\n      add\n        /* \"#utility.yul\":4611:4664   */\n      tag_421\n      jump\t// in\n    tag_459:\n        /* \"#utility.yul\":4601:4664   */\n      swap4\n      pop\n        /* \"#utility.yul\":4556:4674   */\n      pop\n        /* \"#utility.yul\":4713:4716   */\n      0x80\n        /* \"#utility.yul\":4740:4793   */\n      tag_460\n        /* \"#utility.yul\":4785:4792   */\n      dup10\n        /* \"#utility.yul\":4776:4782   */\n      dup3\n        /* \"#utility.yul\":4765:4774   */\n      dup11\n        /* \"#utility.yul\":4761:4783   */\n      add\n        /* \"#utility.yul\":4740:4793   */\n      tag_421\n      jump\t// in\n    tag_460:\n        /* \"#utility.yul\":4730:4793   */\n      swap3\n      pop\n        /* \"#utility.yul\":4684:4803   */\n      pop\n        /* \"#utility.yul\":4842:4845   */\n      0xa0\n        /* \"#utility.yul\":4869:4922   */\n      tag_461\n        /* \"#utility.yul\":4914:4921   */\n      dup10\n        /* \"#utility.yul\":4905:4911   */\n      dup3\n        /* \"#utility.yul\":4894:4903   */\n      dup11\n        /* \"#utility.yul\":4890:4912   */\n      add\n        /* \"#utility.yul\":4869:4922   */\n      tag_421\n      jump\t// in\n    tag_461:\n        /* \"#utility.yul\":4859:4922   */\n      swap2\n      pop\n        /* \"#utility.yul\":4813:4932   */\n      pop\n        /* \"#utility.yul\":3882:4939   */\n      swap3\n      swap6\n      pop\n      swap3\n      swap6\n      pop\n      swap3\n      swap6\n      jump\t// out\n        /* \"#utility.yul\":4945:5419   */\n    tag_54:\n        /* \"#utility.yul\":5013:5019   */\n      0x00\n        /* \"#utility.yul\":5021:5027   */\n      dup1\n        /* \"#utility.yul\":5070:5072   */\n      0x40\n        /* \"#utility.yul\":5058:5067   */\n      dup4\n        /* \"#utility.yul\":5049:5056   */\n      dup6\n        /* \"#utility.yul\":5045:5068   */\n      sub\n        /* \"#utility.yul\":5041:5073   */\n      slt\n        /* \"#utility.yul\":5038:5157   */\n      iszero\n      tag_463\n      jumpi\n        /* \"#utility.yul\":5076:5155   */\n      tag_464\n      tag_428\n      jump\t// in\n    tag_464:\n        /* \"#utility.yul\":5038:5157   */\n    tag_463:\n        /* \"#utility.yul\":5196:5197   */\n      0x00\n        /* \"#utility.yul\":5221:5274   */\n      tag_465\n        /* \"#utility.yul\":5266:5273   */\n      dup6\n        /* \"#utility.yul\":5257:5263   */\n      dup3\n        /* \"#utility.yul\":5246:5255   */\n      dup7\n        /* \"#utility.yul\":5242:5264   */\n      add\n        /* \"#utility.yul\":5221:5274   */\n      tag_399\n      jump\t// in\n    tag_465:\n        /* \"#utility.yul\":5211:5274   */\n      swap3\n      pop\n        /* \"#utility.yul\":5167:5284   */\n      pop\n        /* \"#utility.yul\":5323:5325   */\n      0x20\n        /* \"#utility.yul\":5349:5402   */\n      tag_466\n        /* \"#utility.yul\":5394:5401   */\n      dup6\n        /* \"#utility.yul\":5385:5391   */\n      dup3\n        /* \"#utility.yul\":5374:5383   */\n      dup7\n        /* \"#utility.yul\":5370:5392   */\n      add\n        /* \"#utility.yul\":5349:5402   */\n      tag_421\n      jump\t// in\n    tag_466:\n        /* \"#utility.yul\":5339:5402   */\n      swap2\n      pop\n        /* \"#utility.yul\":5294:5412   */\n      pop\n        /* \"#utility.yul\":4945:5419   */\n      swap3\n      pop\n      swap3\n      swap1\n      pop\n      jump\t// out\n        /* \"#utility.yul\":5425:6044   */\n    tag_80:\n        /* \"#utility.yul\":5502:5508   */\n      0x00\n        /* \"#utility.yul\":5510:5516   */\n      dup1\n        /* \"#utility.yul\":5518:5524   */\n      0x00\n        /* \"#utility.yul\":5567:5569   */\n      0x60\n        /* \"#utility.yul\":5555:5564   */\n      dup5\n        /* \"#utility.yul\":5546:5553   */\n      dup7\n        /* \"#utility.yul\":5542:5565   */\n      sub\n        /* \"#utility.yul\":5538:5570   */\n      slt\n        /* \"#utility.yul\":5535:5654   */\n      iszero\n      tag_468\n      jumpi\n        /* \"#utility.yul\":5573:5652   */\n      tag_469\n      tag_428\n      jump\t// in\n    tag_469:\n        /* \"#utility.yul\":5535:5654   */\n    tag_468:\n        /* \"#utility.yul\":5693:5694   */\n      0x00\n        /* \"#utility.yul\":5718:5771   */\n      tag_470\n        /* \"#utility.yul\":5763:5770   */\n      dup7\n        /* \"#utility.yul\":5754:5760   */\n      dup3\n        /* \"#utility.yul\":5743:5752   */\n      dup8\n        /* \"#utility.yul\":5739:5761   */\n      add\n        /* \"#utility.yul\":5718:5771   */\n      tag_399\n      jump\t// in\n    tag_470:\n        /* \"#utility.yul\":5708:5771   */\n      swap4\n      pop\n        /* \"#utility.yul\":5664:5781   */\n      pop\n        /* \"#utility.yul\":5820:5822   */\n      0x20\n        /* \"#utility.yul\":5846:5899   */\n      tag_471\n        /* \"#utility.yul\":5891:5898   */\n      dup7\n        /* \"#utility.yul\":5882:5888   */\n      dup3\n        /* \"#utility.yul\":5871:5880   */\n      dup8\n        /* \"#utility.yul\":5867:5889   */\n      add\n        /* \"#utility.yul\":5846:5899   */\n      tag_421\n      jump\t// in\n    tag_471:\n        /* \"#utility.yul\":5836:5899   */\n      swap3\n      pop\n        /* \"#utility.yul\":5791:5909   */\n      pop\n        /* \"#utility.yul\":5948:5950   */\n      0x40\n        /* \"#utility.yul\":5974:6027   */\n      tag_472\n        /* \"#utility.yul\":6019:6026   */\n      dup7\n        /* \"#utility.yul\":6010:6016   */\n      dup3\n        /* \"#utility.yul\":5999:6008   */\n      dup8\n        /* \"#utility.yul\":5995:6017   */\n      add\n        /* \"#utility.yul\":5974:6027   */\n      tag_399\n      jump\t// in\n    tag_472:\n        /* \"#utility.yul\":5964:6027   */\n      swap2\n      pop\n        /* \"#utility.yul\":5919:6037   */\n      pop\n        /* \"#utility.yul\":5425:6044   */\n      swap3\n      pop\n      swap3\n      pop\n      swap3\n      jump\t// out\n        /* \"#utility.yul\":6050:6669   */\n    tag_42:\n        /* \"#utility.yul\":6127:6133   */\n      0x00\n        /* \"#utility.yul\":6135:6141   */\n      dup1\n        /* \"#utility.yul\":6143:6149   */\n      0x00\n        /* \"#utility.yul\":6192:6194   */\n      0x60\n        /* \"#utility.yul\":6180:6189   */\n      dup5\n        /* \"#utility.yul\":6171:6178   */\n      dup7\n        /* \"#utility.yul\":6167:6190   */\n      sub\n        /* \"#utility.yul\":6163:6195   */\n      slt\n        /* \"#utility.yul\":6160:6279   */\n      iszero\n      tag_474\n      jumpi\n        /* \"#utility.yul\":6198:6277   */\n      tag_475\n      tag_428\n      jump\t// in\n    tag_475:\n        /* \"#utility.yul\":6160:6279   */\n    tag_474:\n        /* \"#utility.yul\":6318:6319   */\n      0x00\n        /* \"#utility.yul\":6343:6396   */\n      tag_476\n        /* \"#utility.yul\":6388:6395   */\n      dup7\n        /* \"#utility.yul\":6379:6385   */\n      dup3\n        /* \"#utility.yul\":6368:6377   */\n      dup8\n        /* \"#utility.yul\":6364:6386   */\n      add\n        /* \"#utility.yul\":6343:6396   */\n      tag_399\n      jump\t// in\n    tag_476:\n        /* \"#utility.yul\":6333:6396   */\n      swap4\n      pop\n        /* \"#utility.yul\":6289:6406   */\n      pop\n        /* \"#utility.yul\":6445:6447   */\n      0x20\n        /* \"#utility.yul\":6471:6524   */\n      tag_477\n        /* \"#utility.yul\":6516:6523   */\n      dup7\n        /* \"#utility.yul\":6507:6513   */\n      dup3\n        /* \"#utility.yul\":6496:6505   */\n      dup8\n        /* \"#utility.yul\":6492:6514   */\n      add\n        /* \"#utility.yul\":6471:6524   */\n      tag_421\n      jump\t// in\n    tag_477:\n        /* \"#utility.yul\":6461:6524   */\n      swap3\n      pop\n        /* \"#utility.yul\":6416:6534   */\n      pop\n        /* \"#utility.yul\":6573:6575   */\n      0x40\n        /* \"#utility.yul\":6599:6652   */\n      tag_478\n        /* \"#utility.yul\":6644:6651   */\n      dup7\n        /* \"#utility.yul\":6635:6641   */\n      dup3\n        /* \"#utility.yul\":6624:6633   */\n      dup8\n        /* \"#utility.yul\":6620:6642   */\n      add\n        /* \"#utility.yul\":6599:6652   */\n      tag_421\n      jump\t// in\n    tag_478:\n        /* \"#utility.yul\":6589:6652   */\n      swap2\n      pop\n        /* \"#utility.yul\":6544:6662   */\n      pop\n        /* \"#utility.yul\":6050:6669   */\n      swap3\n      pop\n      swap3\n      pop\n      swap3\n      jump\t// out\n        /* \"#utility.yul\":6675:7020   */\n    tag_122:\n        /* \"#utility.yul\":6742:6748   */\n      0x00\n        /* \"#utility.yul\":6791:6793   */\n      0x20\n        /* \"#utility.yul\":6779:6788   */\n      dup3\n        /* \"#utility.yul\":6770:6777   */\n      dup5\n        /* \"#utility.yul\":6766:6789   */\n      sub\n        /* \"#utility.yul\":6762:6794   */\n      slt\n        /* \"#utility.yul\":6759:6878   */\n      iszero\n      tag_480\n      jumpi\n        /* \"#utility.yul\":6797:6876   */\n      tag_481\n      tag_428\n      jump\t// in\n    tag_481:\n        /* \"#utility.yul\":6759:6878   */\n    tag_480:\n        /* \"#utility.yul\":6917:6918   */\n      0x00\n        /* \"#utility.yul\":6942:7003   */\n      tag_482\n        /* \"#utility.yul\":6995:7002   */\n      dup5\n        /* \"#utility.yul\":6986:6992   */\n      dup3\n        /* \"#utility.yul\":6975:6984   */\n      dup6\n        /* \"#utility.yul\":6971:6993   */\n      add\n        /* \"#utility.yul\":6942:7003   */\n      tag_406\n      jump\t// in\n    tag_482:\n        /* \"#utility.yul\":6932:7003   */\n      swap2\n      pop\n        /* \"#utility.yul\":6888:7013   */\n      pop\n        /* \"#utility.yul\":6675:7020   */\n      swap3\n      swap2\n      pop\n      pop\n      jump\t// out\n        /* \"#utility.yul\":7026:7305   */\n    tag_483:\n        /* \"#utility.yul\":7145:7155   */\n      0x00\n        /* \"#utility.yul\":7166:7262   */\n      tag_485\n        /* \"#utility.yul\":7258:7261   */\n      dup4\n        /* \"#utility.yul\":7250:7256   */\n      dup4\n        /* \"#utility.yul\":7166:7262   */\n      tag_486\n      jump\t// in\n    tag_485:\n        /* \"#utility.yul\":7294:7298   */\n      0x40\n        /* \"#utility.yul\":7289:7292   */\n      dup4\n        /* \"#utility.yul\":7285:7299   */\n      add\n        /* \"#utility.yul\":7271:7299   */\n      swap1\n      pop\n        /* \"#utility.yul\":7026:7305   */\n      swap3\n      swap2\n      pop\n      pop\n      jump\t// out\n        /* \"#utility.yul\":7311:7419   */\n    tag_487:\n        /* \"#utility.yul\":7388:7412   */\n      tag_489\n        /* \"#utility.yul\":7406:7411   */\n      dup2\n        /* \"#utility.yul\":7388:7412   */\n      tag_490\n      jump\t// in\n    tag_489:\n        /* \"#utility.yul\":7383:7386   */\n      dup3\n        /* \"#utility.yul\":7376:7413   */\n      mstore\n        /* \"#utility.yul\":7311:7419   */\n      pop\n      pop\n      jump\t// out\n        /* \"#utility.yul\":7425:7543   */\n    tag_491:\n        /* \"#utility.yul\":7512:7536   */\n      tag_493\n        /* \"#utility.yul\":7530:7535   */\n      dup2\n        /* \"#utility.yul\":7512:7536   */\n      tag_490\n      jump\t// in\n    tag_493:\n        /* \"#utility.yul\":7507:7510   */\n      dup3\n        /* \"#utility.yul\":7500:7537   */\n      mstore\n        /* \"#utility.yul\":7425:7543   */\n      pop\n      pop\n      jump\t// out\n        /* \"#utility.yul\":7625:8557   */\n    tag_494:\n        /* \"#utility.yul\":7794:7797   */\n      0x00\n        /* \"#utility.yul\":7823:7902   */\n      tag_496\n        /* \"#utility.yul\":7896:7901   */\n      dup3\n        /* \"#utility.yul\":7823:7902   */\n      tag_497\n      jump\t// in\n    tag_496:\n        /* \"#utility.yul\":7918:8029   */\n      tag_498\n        /* \"#utility.yul\":8022:8028   */\n      dup2\n        /* \"#utility.yul\":8017:8020   */\n      dup6\n        /* \"#utility.yul\":7918:8029   */\n      tag_499\n      jump\t// in\n    tag_498:\n        /* \"#utility.yul\":7911:8029   */\n      swap4\n      pop\n        /* \"#utility.yul\":8053:8134   */\n      tag_500\n        /* \"#utility.yul\":8128:8133   */\n      dup4\n        /* \"#utility.yul\":8053:8134   */\n      tag_501\n      jump\t// in\n    tag_500:\n        /* \"#utility.yul\":8157:8164   */\n      dup1\n        /* \"#utility.yul\":8188:8189   */\n      0x00\n        /* \"#utility.yul\":8173:8532   */\n    tag_502:\n        /* \"#utility.yul\":8198:8204   */\n      dup4\n        /* \"#utility.yul\":8195:8196   */\n      dup2\n        /* \"#utility.yul\":8192:8205   */\n      lt\n        /* \"#utility.yul\":8173:8532   */\n      iszero\n      tag_504\n      jumpi\n        /* \"#utility.yul\":8274:8280   */\n      dup2\n        /* \"#utility.yul\":8268:8281   */\n      mload\n        /* \"#utility.yul\":8301:8414   */\n      tag_505\n        /* \"#utility.yul\":8410:8413   */\n      dup9\n        /* \"#utility.yul\":8395:8408   */\n      dup3\n        /* \"#utility.yul\":8301:8414   */\n      tag_483\n      jump\t// in\n    tag_505:\n        /* \"#utility.yul\":8294:8414   */\n      swap8\n      pop\n        /* \"#utility.yul\":8437:8522   */\n      tag_506\n        /* \"#utility.yul\":8515:8521   */\n      dup4\n        /* \"#utility.yul\":8437:8522   */\n      tag_507\n      jump\t// in\n    tag_506:\n        /* \"#utility.yul\":8427:8522   */\n      swap3\n      pop\n        /* \"#utility.yul\":8233:8532   */\n      pop\n        /* \"#utility.yul\":8220:8221   */\n      0x01\n        /* \"#utility.yul\":8217:8218   */\n      dup2\n        /* \"#utility.yul\":8213:8222   */\n      add\n        /* \"#utility.yul\":8208:8222   */\n      swap1\n      pop\n        /* \"#utility.yul\":8173:8532   */\n      jump(tag_502)\n    tag_504:\n        /* \"#utility.yul\":8177:8191   */\n      pop\n        /* \"#utility.yul\":8548:8551   */\n      dup6\n        /* \"#utility.yul\":8541:8551   */\n      swap4\n      pop\n        /* \"#utility.yul\":7799:8557   */\n      pop\n      pop\n      pop\n        /* \"#utility.yul\":7625:8557   */\n      swap3\n      swap2\n      pop\n      pop\n      jump\t// out\n        /* \"#utility.yul\":8563:8672   */\n    tag_508:\n        /* \"#utility.yul\":8644:8665   */\n      tag_510\n        /* \"#utility.yul\":8659:8664   */\n      dup2\n        /* \"#utility.yul\":8644:8665   */\n      tag_511\n      jump\t// in\n    tag_510:\n        /* \"#utility.yul\":8639:8642   */\n      dup3\n        /* \"#utility.yul\":8632:8666   */\n      mstore\n        /* \"#utility.yul\":8563:8672   */\n      pop\n      pop\n      jump\t// out\n        /* \"#utility.yul\":8678:8793   */\n    tag_512:\n        /* \"#utility.yul\":8763:8786   */\n      tag_514\n        /* \"#utility.yul\":8780:8785   */\n      dup2\n        /* \"#utility.yul\":8763:8786   */\n      tag_515\n      jump\t// in\n    tag_514:\n        /* \"#utility.yul\":8758:8761   */\n      dup3\n        /* \"#utility.yul\":8751:8787   */\n      mstore\n        /* \"#utility.yul\":8678:8793   */\n      pop\n      pop\n      jump\t// out\n        /* \"#utility.yul\":8799:9165   */\n    tag_516:\n        /* \"#utility.yul\":8941:8944   */\n      0x00\n        /* \"#utility.yul\":8962:9029   */\n      tag_518\n        /* \"#utility.yul\":9026:9028   */\n      0x16\n        /* \"#utility.yul\":9021:9024   */\n      dup4\n        /* \"#utility.yul\":8962:9029   */\n      tag_519\n      jump\t// in\n    tag_518:\n        /* \"#utility.yul\":8955:9029   */\n      swap2\n      pop\n        /* \"#utility.yul\":9038:9131   */\n      tag_520\n        /* \"#utility.yul\":9127:9130   */\n      dup3\n        /* \"#utility.yul\":9038:9131   */\n      tag_521\n      jump\t// in\n    tag_520:\n        /* \"#utility.yul\":9156:9158   */\n      0x20\n        /* \"#utility.yul\":9151:9154   */\n      dup3\n        /* \"#utility.yul\":9147:9159   */\n      add\n        /* \"#utility.yul\":9140:9159   */\n      swap1\n      pop\n        /* \"#utility.yul\":8799:9165   */\n      swap2\n      swap1\n      pop\n      jump\t// out\n        /* \"#utility.yul\":9171:9537   */\n    tag_522:\n        /* \"#utility.yul\":9313:9316   */\n      0x00\n        /* \"#utility.yul\":9334:9401   */\n      tag_524\n        /* \"#utility.yul\":9398:9400   */\n      0x1c\n        /* \"#utility.yul\":9393:9396   */\n      dup4\n        /* \"#utility.yul\":9334:9401   */\n      tag_519\n      jump\t// in\n    tag_524:\n        /* \"#utility.yul\":9327:9401   */\n      swap2\n      pop\n        /* \"#utility.yul\":9410:9503   */\n      tag_525\n        /* \"#utility.yul\":9499:9502   */\n      dup3\n        /* \"#utility.yul\":9410:9503   */\n      tag_526\n      jump\t// in\n    tag_525:\n        /* \"#utility.yul\":9528:9530   */\n      0x20\n        /* \"#utility.yul\":9523:9526   */\n      dup3\n        /* \"#utility.yul\":9519:9531   */\n      add\n        /* \"#utility.yul\":9512:9531   */\n      swap1\n      pop\n        /* \"#utility.yul\":9171:9537   */\n      swap2\n      swap1\n      pop\n      jump\t// out\n        /* \"#utility.yul\":9543:9909   */\n    tag_527:\n        /* \"#utility.yul\":9685:9688   */\n      0x00\n        /* \"#utility.yul\":9706:9773   */\n      tag_529\n        /* \"#utility.yul\":9770:9772   */\n      0x11\n        /* \"#utility.yul\":9765:9768   */\n      dup4\n        /* \"#utility.yul\":9706:9773   */\n      tag_519\n      jump\t// in\n    tag_529:\n        /* \"#utility.yul\":9699:9773   */\n      swap2\n      pop\n        /* \"#utility.yul\":9782:9875   */\n      tag_530\n        /* \"#utility.yul\":9871:9874   */\n      dup3\n        /* \"#utility.yul\":9782:9875   */\n      tag_531\n      jump\t// in\n    tag_530:\n        /* \"#utility.yul\":9900:9902   */\n      0x20\n        /* \"#utility.yul\":9895:9898   */\n      dup3\n        /* \"#utility.yul\":9891:9903   */\n      add\n        /* \"#utility.yul\":9884:9903   */\n      swap1\n      pop\n        /* \"#utility.yul\":9543:9909   */\n      swap2\n      swap1\n      pop\n      jump\t// out\n        /* \"#utility.yul\":9915:10281   */\n    tag_532:\n        /* \"#utility.yul\":10057:10060   */\n      0x00\n        /* \"#utility.yul\":10078:10145   */\n      tag_534\n        /* \"#utility.yul\":10142:10144   */\n      0x0d\n        /* \"#utility.yul\":10137:10140   */\n      dup4\n        /* \"#utility.yul\":10078:10145   */\n      tag_519\n      jump\t// in\n    tag_534:\n        /* \"#utility.yul\":10071:10145   */\n      swap2\n      pop\n        /* \"#utility.yul\":10154:10247   */\n      tag_535\n        /* \"#utility.yul\":10243:10246   */\n      dup3\n        /* \"#utility.yul\":10154:10247   */\n      tag_536\n      jump\t// in\n    tag_535:\n        /* \"#utility.yul\":10272:10274   */\n      0x20\n        /* \"#utility.yul\":10267:10270   */\n      dup3\n        /* \"#utility.yul\":10263:10275   */\n      add\n        /* \"#utility.yul\":10256:10275   */\n      swap1\n      pop\n        /* \"#utility.yul\":9915:10281   */\n      swap2\n      swap1\n      pop\n      jump\t// out\n        /* \"#utility.yul\":10287:10653   */\n    tag_537:\n        /* \"#utility.yul\":10429:10432   */\n      0x00\n        /* \"#utility.yul\":10450:10517   */\n      tag_539\n        /* \"#utility.yul\":10514:10516   */\n      0x15\n        /* \"#utility.yul\":10509:10512   */\n      dup4\n        /* \"#utility.yul\":10450:10517   */\n      tag_519\n      jump\t// in\n    tag_539:\n        /* \"#utility.yul\":10443:10517   */\n      swap2\n      pop\n        /* \"#utility.yul\":10526:10619   */\n      tag_540\n        /* \"#utility.yul\":10615:10618   */\n      dup3\n        /* \"#utility.yul\":10526:10619   */\n      tag_541\n      jump\t// in\n    tag_540:\n        /* \"#utility.yul\":10644:10646   */\n      0x20\n        /* \"#utility.yul\":10639:10642   */\n      dup3\n        /* \"#utility.yul\":10635:10647   */\n      add\n        /* \"#utility.yul\":10628:10647   */\n      swap1\n      pop\n        /* \"#utility.yul\":10287:10653   */\n      swap2\n      swap1\n      pop\n      jump\t// out\n        /* \"#utility.yul\":10659:11025   */\n    tag_542:\n        /* \"#utility.yul\":10801:10804   */\n      0x00\n        /* \"#utility.yul\":10822:10889   */\n      tag_544\n        /* \"#utility.yul\":10886:10888   */\n      0x17\n        /* \"#utility.yul\":10881:10884   */\n      dup4\n        /* \"#utility.yul\":10822:10889   */\n      tag_519\n      jump\t// in\n    tag_544:\n        /* \"#utility.yul\":10815:10889   */\n      swap2\n      pop\n        /* \"#utility.yul\":10898:10991   */\n      tag_545\n        /* \"#utility.yul\":10987:10990   */\n      dup3\n        /* \"#utility.yul\":10898:10991   */\n      tag_546\n      jump\t// in\n    tag_545:\n        /* \"#utility.yul\":11016:11018   */\n      0x20\n        /* \"#utility.yul\":11011:11014   */\n      dup3\n        /* \"#utility.yul\":11007:11019   */\n      add\n        /* \"#utility.yul\":11000:11019   */\n      swap1\n      pop\n        /* \"#utility.yul\":10659:11025   */\n      swap2\n      swap1\n      pop\n      jump\t// out\n        /* \"#utility.yul\":11031:11397   */\n    tag_547:\n        /* \"#utility.yul\":11173:11176   */\n      0x00\n        /* \"#utility.yul\":11194:11261   */\n      tag_549\n        /* \"#utility.yul\":11258:11260   */\n      0x1d\n        /* \"#utility.yul\":11253:11256   */\n      dup4\n        /* \"#utility.yul\":11194:11261   */\n      tag_519\n      jump\t// in\n    tag_549:\n        /* \"#utility.yul\":11187:11261   */\n      swap2\n      pop\n        /* \"#utility.yul\":11270:11363   */\n      tag_550\n        /* \"#utility.yul\":11359:11362   */\n      dup3\n        /* \"#utility.yul\":11270:11363   */\n      tag_551\n      jump\t// in\n    tag_550:\n        /* \"#utility.yul\":11388:11390   */\n      0x20\n        /* \"#utility.yul\":11383:11386   */\n      dup3\n        /* \"#utility.yul\":11379:11391   */\n      add\n        /* \"#utility.yul\":11372:11391   */\n      swap1\n      pop\n        /* \"#utility.yul\":11031:11397   */\n      swap2\n      swap1\n      pop\n      jump\t// out\n        /* \"#utility.yul\":11403:11769   */\n    tag_552:\n        /* \"#utility.yul\":11545:11548   */\n      0x00\n        /* \"#utility.yul\":11566:11633   */\n      tag_554\n        /* \"#utility.yul\":11630:11632   */\n      0x0b\n        /* \"#utility.yul\":11625:11628   */\n      dup4\n        /* \"#utility.yul\":11566:11633   */\n      tag_519\n      jump\t// in\n    tag_554:\n        /* \"#utility.yul\":11559:11633   */\n      swap2\n      pop\n        /* \"#utility.yul\":11642:11735   */\n      tag_555\n        /* \"#utility.yul\":11731:11734   */\n      dup3\n        /* \"#utility.yul\":11642:11735   */\n      tag_556\n      jump\t// in\n    tag_555:\n        /* \"#utility.yul\":11760:11762   */\n      0x20\n        /* \"#utility.yul\":11755:11758   */\n      dup3\n        /* \"#utility.yul\":11751:11763   */\n      add\n        /* \"#utility.yul\":11744:11763   */\n      swap1\n      pop\n        /* \"#utility.yul\":11403:11769   */\n      swap2\n      swap1\n      pop\n      jump\t// out\n        /* \"#utility.yul\":11775:12141   */\n    tag_557:\n        /* \"#utility.yul\":11917:11920   */\n      0x00\n        /* \"#utility.yul\":11938:12005   */\n      tag_559\n        /* \"#utility.yul\":12002:12004   */\n      0x13\n        /* \"#utility.yul\":11997:12000   */\n      dup4\n        /* \"#utility.yul\":11938:12005   */\n      tag_519\n      jump\t// in\n    tag_559:\n        /* \"#utility.yul\":11931:12005   */\n      swap2\n      pop\n        /* \"#utility.yul\":12014:12107   */\n      tag_560\n        /* \"#utility.yul\":12103:12106   */\n      dup3\n        /* \"#utility.yul\":12014:12107   */\n      tag_561\n      jump\t// in\n    tag_560:\n        /* \"#utility.yul\":12132:12134   */\n      0x20\n        /* \"#utility.yul\":12127:12130   */\n      dup3\n        /* \"#utility.yul\":12123:12135   */\n      add\n        /* \"#utility.yul\":12116:12135   */\n      swap1\n      pop\n        /* \"#utility.yul\":11775:12141   */\n      swap2\n      swap1\n      pop\n      jump\t// out\n        /* \"#utility.yul\":12147:12512   */\n    tag_562:\n        /* \"#utility.yul\":12289:12292   */\n      0x00\n        /* \"#utility.yul\":12310:12376   */\n      tag_564\n        /* \"#utility.yul\":12374:12375   */\n      0x08\n        /* \"#utility.yul\":12369:12372   */\n      dup4\n        /* \"#utility.yul\":12310:12376   */\n      tag_519\n      jump\t// in\n    tag_564:\n        /* \"#utility.yul\":12303:12376   */\n      swap2\n      pop\n        /* \"#utility.yul\":12385:12478   */\n      tag_565\n        /* \"#utility.yul\":12474:12477   */\n      dup3\n        /* \"#utility.yul\":12385:12478   */\n      tag_566\n      jump\t// in\n    tag_565:\n        /* \"#utility.yul\":12503:12505   */\n      0x20\n        /* \"#utility.yul\":12498:12501   */\n      dup3\n        /* \"#utility.yul\":12494:12506   */\n      add\n        /* \"#utility.yul\":12487:12506   */\n      swap1\n      pop\n        /* \"#utility.yul\":12147:12512   */\n      swap2\n      swap1\n      pop\n      jump\t// out\n        /* \"#utility.yul\":12518:12884   */\n    tag_567:\n        /* \"#utility.yul\":12660:12663   */\n      0x00\n        /* \"#utility.yul\":12681:12748   */\n      tag_569\n        /* \"#utility.yul\":12745:12747   */\n      0x14\n        /* \"#utility.yul\":12740:12743   */\n      dup4\n        /* \"#utility.yul\":12681:12748   */\n      tag_519\n      jump\t// in\n    tag_569:\n        /* \"#utility.yul\":12674:12748   */\n      swap2\n      pop\n        /* \"#utility.yul\":12757:12850   */\n      tag_570\n        /* \"#utility.yul\":12846:12849   */\n      dup3\n        /* \"#utility.yul\":12757:12850   */\n      tag_571\n      jump\t// in\n    tag_570:\n        /* \"#utility.yul\":12875:12877   */\n      0x20\n        /* \"#utility.yul\":12870:12873   */\n      dup3\n        /* \"#utility.yul\":12866:12878   */\n      add\n        /* \"#utility.yul\":12859:12878   */\n      swap1\n      pop\n        /* \"#utility.yul\":12518:12884   */\n      swap2\n      swap1\n      pop\n      jump\t// out\n        /* \"#utility.yul\":12890:13256   */\n    tag_572:\n        /* \"#utility.yul\":13032:13035   */\n      0x00\n        /* \"#utility.yul\":13053:13120   */\n      tag_574\n        /* \"#utility.yul\":13117:13119   */\n      0x0f\n        /* \"#utility.yul\":13112:13115   */\n      dup4\n        /* \"#utility.yul\":13053:13120   */\n      tag_519\n      jump\t// in\n    tag_574:\n        /* \"#utility.yul\":13046:13120   */\n      swap2\n      pop\n        /* \"#utility.yul\":13129:13222   */\n      tag_575\n        /* \"#utility.yul\":13218:13221   */\n      dup3\n        /* \"#utility.yul\":13129:13222   */\n      tag_576\n      jump\t// in\n    tag_575:\n        /* \"#utility.yul\":13247:13249   */\n      0x20\n        /* \"#utility.yul\":13242:13245   */\n      dup3\n        /* \"#utility.yul\":13238:13250   */\n      add\n        /* \"#utility.yul\":13231:13250   */\n      swap1\n      pop\n        /* \"#utility.yul\":12890:13256   */\n      swap2\n      swap1\n      pop\n      jump\t// out\n        /* \"#utility.yul\":13262:13628   */\n    tag_577:\n        /* \"#utility.yul\":13404:13407   */\n      0x00\n        /* \"#utility.yul\":13425:13492   */\n      tag_579\n        /* \"#utility.yul\":13489:13491   */\n      0x15\n        /* \"#utility.yul\":13484:13487   */\n      dup4\n        /* \"#utility.yul\":13425:13492   */\n      tag_519\n      jump\t// in\n    tag_579:\n        /* \"#utility.yul\":13418:13492   */\n      swap2\n      pop\n        /* \"#utility.yul\":13501:13594   */\n      tag_580\n        /* \"#utility.yul\":13590:13593   */\n      dup3\n        /* \"#utility.yul\":13501:13594   */\n      tag_581\n      jump\t// in\n    tag_580:\n        /* \"#utility.yul\":13619:13621   */\n      0x20\n        /* \"#utility.yul\":13614:13617   */\n      dup3\n        /* \"#utility.yul\":13610:13622   */\n      add\n        /* \"#utility.yul\":13603:13622   */\n      swap1\n      pop\n        /* \"#utility.yul\":13262:13628   */\n      swap2\n      swap1\n      pop\n      jump\t// out\n        /* \"#utility.yul\":13634:14032   */\n    tag_582:\n        /* \"#utility.yul\":13793:13796   */\n      0x00\n        /* \"#utility.yul\":13814:13897   */\n      tag_584\n        /* \"#utility.yul\":13895:13896   */\n      0x00\n        /* \"#utility.yul\":13890:13893   */\n      dup4\n        /* \"#utility.yul\":13814:13897   */\n      tag_585\n      jump\t// in\n    tag_584:\n        /* \"#utility.yul\":13807:13897   */\n      swap2\n      pop\n        /* \"#utility.yul\":13906:13999   */\n      tag_586\n        /* \"#utility.yul\":13995:13998   */\n      dup3\n        /* \"#utility.yul\":13906:13999   */\n      tag_587\n      jump\t// in\n    tag_586:\n        /* \"#utility.yul\":14024:14025   */\n      0x00\n        /* \"#utility.yul\":14019:14022   */\n      dup3\n        /* \"#utility.yul\":14015:14026   */\n      add\n        /* \"#utility.yul\":14008:14026   */\n      swap1\n      pop\n        /* \"#utility.yul\":13634:14032   */\n      swap2\n      swap1\n      pop\n      jump\t// out\n        /* \"#utility.yul\":14038:14404   */\n    tag_588:\n        /* \"#utility.yul\":14180:14183   */\n      0x00\n        /* \"#utility.yul\":14201:14268   */\n      tag_590\n        /* \"#utility.yul\":14265:14267   */\n      0x13\n        /* \"#utility.yul\":14260:14263   */\n      dup4\n        /* \"#utility.yul\":14201:14268   */\n      tag_519\n      jump\t// in\n    tag_590:\n        /* \"#utility.yul\":14194:14268   */\n      swap2\n      pop\n        /* \"#utility.yul\":14277:14370   */\n      tag_591\n        /* \"#utility.yul\":14366:14369   */\n      dup3\n        /* \"#utility.yul\":14277:14370   */\n      tag_592\n      jump\t// in\n    tag_591:\n        /* \"#utility.yul\":14395:14397   */\n      0x20\n        /* \"#utility.yul\":14390:14393   */\n      dup3\n        /* \"#utility.yul\":14386:14398   */\n      add\n        /* \"#utility.yul\":14379:14398   */\n      swap1\n      pop\n        /* \"#utility.yul\":14038:14404   */\n      swap2\n      swap1\n      pop\n      jump\t// out\n        /* \"#utility.yul\":14410:14776   */\n    tag_593:\n        /* \"#utility.yul\":14552:14555   */\n      0x00\n        /* \"#utility.yul\":14573:14640   */\n      tag_595\n        /* \"#utility.yul\":14637:14639   */\n      0x14\n        /* \"#utility.yul\":14632:14635   */\n      dup4\n        /* \"#utility.yul\":14573:14640   */\n      tag_519\n      jump\t// in\n    tag_595:\n        /* \"#utility.yul\":14566:14640   */\n      swap2\n      pop\n        /* \"#utility.yul\":14649:14742   */\n      tag_596\n        /* \"#utility.yul\":14738:14741   */\n      dup3\n        /* \"#utility.yul\":14649:14742   */\n      tag_597\n      jump\t// in\n    tag_596:\n        /* \"#utility.yul\":14767:14769   */\n      0x20\n        /* \"#utility.yul\":14762:14765   */\n      dup3\n        /* \"#utility.yul\":14758:14770   */\n      add\n        /* \"#utility.yul\":14751:14770   */\n      swap1\n      pop\n        /* \"#utility.yul\":14410:14776   */\n      swap2\n      swap1\n      pop\n      jump\t// out\n        /* \"#utility.yul\":14782:15148   */\n    tag_598:\n        /* \"#utility.yul\":14924:14927   */\n      0x00\n        /* \"#utility.yul\":14945:15012   */\n      tag_600\n        /* \"#utility.yul\":15009:15011   */\n      0x0d\n        /* \"#utility.yul\":15004:15007   */\n      dup4\n        /* \"#utility.yul\":14945:15012   */\n      tag_519\n      jump\t// in\n    tag_600:\n        /* \"#utility.yul\":14938:15012   */\n      swap2\n      pop\n        /* \"#utility.yul\":15021:15114   */\n      tag_601\n        /* \"#utility.yul\":15110:15113   */\n      dup3\n        /* \"#utility.yul\":15021:15114   */\n      tag_602\n      jump\t// in\n    tag_601:\n        /* \"#utility.yul\":15139:15141   */\n      0x20\n        /* \"#utility.yul\":15134:15137   */\n      dup3\n        /* \"#utility.yul\":15130:15142   */\n      add\n        /* \"#utility.yul\":15123:15142   */\n      swap1\n      pop\n        /* \"#utility.yul\":14782:15148   */\n      swap2\n      swap1\n      pop\n      jump\t// out\n        /* \"#utility.yul\":15224:16644   */\n    tag_603:\n        /* \"#utility.yul\":15369:15373   */\n      0xe0\n        /* \"#utility.yul\":15364:15367   */\n      dup3\n        /* \"#utility.yul\":15360:15374   */\n      add\n        /* \"#utility.yul\":15464:15468   */\n      0x00\n        /* \"#utility.yul\":15457:15462   */\n      dup3\n        /* \"#utility.yul\":15453:15469   */\n      add\n        /* \"#utility.yul\":15447:15470   */\n      mload\n        /* \"#utility.yul\":15483:15546   */\n      tag_605\n        /* \"#utility.yul\":15540:15544   */\n      0x00\n        /* \"#utility.yul\":15535:15538   */\n      dup6\n        /* \"#utility.yul\":15531:15545   */\n      add\n        /* \"#utility.yul\":15517:15529   */\n      dup3\n        /* \"#utility.yul\":15483:15546   */\n      tag_606\n      jump\t// in\n    tag_605:\n        /* \"#utility.yul\":15384:15556   */\n      pop\n        /* \"#utility.yul\":15644:15648   */\n      0x20\n        /* \"#utility.yul\":15637:15642   */\n      dup3\n        /* \"#utility.yul\":15633:15649   */\n      add\n        /* \"#utility.yul\":15627:15650   */\n      mload\n        /* \"#utility.yul\":15663:15726   */\n      tag_607\n        /* \"#utility.yul\":15720:15724   */\n      0x20\n        /* \"#utility.yul\":15715:15718   */\n      dup6\n        /* \"#utility.yul\":15711:15725   */\n      add\n        /* \"#utility.yul\":15697:15709   */\n      dup3\n        /* \"#utility.yul\":15663:15726   */\n      tag_606\n      jump\t// in\n    tag_607:\n        /* \"#utility.yul\":15566:15736   */\n      pop\n        /* \"#utility.yul\":15822:15826   */\n      0x40\n        /* \"#utility.yul\":15815:15820   */\n      dup3\n        /* \"#utility.yul\":15811:15827   */\n      add\n        /* \"#utility.yul\":15805:15828   */\n      mload\n        /* \"#utility.yul\":15841:15904   */\n      tag_608\n        /* \"#utility.yul\":15898:15902   */\n      0x40\n        /* \"#utility.yul\":15893:15896   */\n      dup6\n        /* \"#utility.yul\":15889:15903   */\n      add\n        /* \"#utility.yul\":15875:15887   */\n      dup3\n        /* \"#utility.yul\":15841:15904   */\n      tag_606\n      jump\t// in\n    tag_608:\n        /* \"#utility.yul\":15746:15914   */\n      pop\n        /* \"#utility.yul\":16005:16009   */\n      0x60\n        /* \"#utility.yul\":15998:16003   */\n      dup3\n        /* \"#utility.yul\":15994:16010   */\n      add\n        /* \"#utility.yul\":15988:16011   */\n      mload\n        /* \"#utility.yul\":16024:16087   */\n      tag_609\n        /* \"#utility.yul\":16081:16085   */\n      0x60\n        /* \"#utility.yul\":16076:16079   */\n      dup6\n        /* \"#utility.yul\":16072:16086   */\n      add\n        /* \"#utility.yul\":16058:16070   */\n      dup3\n        /* \"#utility.yul\":16024:16087   */\n      tag_606\n      jump\t// in\n    tag_609:\n        /* \"#utility.yul\":15924:16097   */\n      pop\n        /* \"#utility.yul\":16191:16195   */\n      0x80\n        /* \"#utility.yul\":16184:16189   */\n      dup3\n        /* \"#utility.yul\":16180:16196   */\n      add\n        /* \"#utility.yul\":16174:16197   */\n      mload\n        /* \"#utility.yul\":16210:16273   */\n      tag_610\n        /* \"#utility.yul\":16267:16271   */\n      0x80\n        /* \"#utility.yul\":16262:16265   */\n      dup6\n        /* \"#utility.yul\":16258:16272   */\n      add\n        /* \"#utility.yul\":16244:16256   */\n      dup3\n        /* \"#utility.yul\":16210:16273   */\n      tag_487\n      jump\t// in\n    tag_610:\n        /* \"#utility.yul\":16107:16283   */\n      pop\n        /* \"#utility.yul\":16370:16374   */\n      0xa0\n        /* \"#utility.yul\":16363:16368   */\n      dup3\n        /* \"#utility.yul\":16359:16375   */\n      add\n        /* \"#utility.yul\":16353:16376   */\n      mload\n        /* \"#utility.yul\":16389:16452   */\n      tag_611\n        /* \"#utility.yul\":16446:16450   */\n      0xa0\n        /* \"#utility.yul\":16441:16444   */\n      dup6\n        /* \"#utility.yul\":16437:16451   */\n      add\n        /* \"#utility.yul\":16423:16435   */\n      dup3\n        /* \"#utility.yul\":16389:16452   */\n      tag_487\n      jump\t// in\n    tag_611:\n        /* \"#utility.yul\":16293:16462   */\n      pop\n        /* \"#utility.yul\":16545:16549   */\n      0xc0\n        /* \"#utility.yul\":16538:16543   */\n      dup3\n        /* \"#utility.yul\":16534:16550   */\n      add\n        /* \"#utility.yul\":16528:16551   */\n      mload\n        /* \"#utility.yul\":16564:16627   */\n      tag_612\n        /* \"#utility.yul\":16621:16625   */\n      0xc0\n        /* \"#utility.yul\":16616:16619   */\n      dup6\n        /* \"#utility.yul\":16612:16626   */\n      add\n        /* \"#utility.yul\":16598:16610   */\n      dup3\n        /* \"#utility.yul\":16564:16627   */\n      tag_487\n      jump\t// in\n    tag_612:\n        /* \"#utility.yul\":16472:16637   */\n      pop\n        /* \"#utility.yul\":15338:16644   */\n      pop\n        /* \"#utility.yul\":15224:16644   */\n      pop\n      pop\n      jump\t// out\n        /* \"#utility.yul\":16724:17596   */\n    tag_613:\n        /* \"#utility.yul\":16873:16877   */\n      0x80\n        /* \"#utility.yul\":16868:16871   */\n      dup3\n        /* \"#utility.yul\":16864:16878   */\n      add\n        /* \"#utility.yul\":16965:16969   */\n      0x00\n        /* \"#utility.yul\":16958:16963   */\n      dup3\n        /* \"#utility.yul\":16954:16970   */\n      add\n        /* \"#utility.yul\":16948:16971   */\n      mload\n        /* \"#utility.yul\":16984:17047   */\n      tag_615\n        /* \"#utility.yul\":17041:17045   */\n      0x00\n        /* \"#utility.yul\":17036:17039   */\n      dup6\n        /* \"#utility.yul\":17032:17046   */\n      add\n        /* \"#utility.yul\":17018:17030   */\n      dup3\n        /* \"#utility.yul\":16984:17047   */\n      tag_487\n      jump\t// in\n    tag_615:\n        /* \"#utility.yul\":16888:17057   */\n      pop\n        /* \"#utility.yul\":17143:17147   */\n      0x20\n        /* \"#utility.yul\":17136:17141   */\n      dup3\n        /* \"#utility.yul\":17132:17148   */\n      add\n        /* \"#utility.yul\":17126:17149   */\n      mload\n        /* \"#utility.yul\":17162:17225   */\n      tag_616\n        /* \"#utility.yul\":17219:17223   */\n      0x20\n        /* \"#utility.yul\":17214:17217   */\n      dup6\n        /* \"#utility.yul\":17210:17224   */\n      add\n        /* \"#utility.yul\":17196:17208   */\n      dup3\n        /* \"#utility.yul\":17162:17225   */\n      tag_487\n      jump\t// in\n    tag_616:\n        /* \"#utility.yul\":17067:17235   */\n      pop\n        /* \"#utility.yul\":17318:17322   */\n      0x40\n        /* \"#utility.yul\":17311:17316   */\n      dup3\n        /* \"#utility.yul\":17307:17323   */\n      add\n        /* \"#utility.yul\":17301:17324   */\n      mload\n        /* \"#utility.yul\":17337:17400   */\n      tag_617\n        /* \"#utility.yul\":17394:17398   */\n      0x40\n        /* \"#utility.yul\":17389:17392   */\n      dup6\n        /* \"#utility.yul\":17385:17399   */\n      add\n        /* \"#utility.yul\":17371:17383   */\n      dup3\n        /* \"#utility.yul\":17337:17400   */\n      tag_487\n      jump\t// in\n    tag_617:\n        /* \"#utility.yul\":17245:17410   */\n      pop\n        /* \"#utility.yul\":17497:17501   */\n      0x60\n        /* \"#utility.yul\":17490:17495   */\n      dup3\n        /* \"#utility.yul\":17486:17502   */\n      add\n        /* \"#utility.yul\":17480:17503   */\n      mload\n        /* \"#utility.yul\":17516:17579   */\n      tag_618\n        /* \"#utility.yul\":17573:17577   */\n      0x60\n        /* \"#utility.yul\":17568:17571   */\n      dup6\n        /* \"#utility.yul\":17564:17578   */\n      add\n        /* \"#utility.yul\":17550:17562   */\n      dup3\n        /* \"#utility.yul\":17516:17579   */\n      tag_606\n      jump\t// in\n    tag_618:\n        /* \"#utility.yul\":17420:17589   */\n      pop\n        /* \"#utility.yul\":16842:17596   */\n      pop\n        /* \"#utility.yul\":16724:17596   */\n      pop\n      pop\n      jump\t// out\n        /* \"#utility.yul\":17674:18190   */\n    tag_486:\n        /* \"#utility.yul\":17811:17815   */\n      0x40\n        /* \"#utility.yul\":17806:17809   */\n      dup3\n        /* \"#utility.yul\":17802:17816   */\n      add\n        /* \"#utility.yul\":17913:17917   */\n      0x00\n        /* \"#utility.yul\":17906:17911   */\n      dup3\n        /* \"#utility.yul\":17902:17918   */\n      add\n        /* \"#utility.yul\":17896:17919   */\n      mload\n        /* \"#utility.yul\":17932:17995   */\n      tag_620\n        /* \"#utility.yul\":17989:17993   */\n      0x00\n        /* \"#utility.yul\":17984:17987   */\n      dup6\n        /* \"#utility.yul\":17980:17994   */\n      add\n        /* \"#utility.yul\":17966:17978   */\n      dup3\n        /* \"#utility.yul\":17932:17995   */\n      tag_487\n      jump\t// in\n    tag_620:\n        /* \"#utility.yul\":17826:18005   */\n      pop\n        /* \"#utility.yul\":18091:18095   */\n      0x20\n        /* \"#utility.yul\":18084:18089   */\n      dup3\n        /* \"#utility.yul\":18080:18096   */\n      add\n        /* \"#utility.yul\":18074:18097   */\n      mload\n        /* \"#utility.yul\":18110:18173   */\n      tag_621\n        /* \"#utility.yul\":18167:18171   */\n      0x20\n        /* \"#utility.yul\":18162:18165   */\n      dup6\n        /* \"#utility.yul\":18158:18172   */\n      add\n        /* \"#utility.yul\":18144:18156   */\n      dup3\n        /* \"#utility.yul\":18110:18173   */\n      tag_606\n      jump\t// in\n    tag_621:\n        /* \"#utility.yul\":18015:18183   */\n      pop\n        /* \"#utility.yul\":17780:18190   */\n      pop\n        /* \"#utility.yul\":17674:18190   */\n      pop\n      pop\n      jump\t// out\n        /* \"#utility.yul\":18196:18304   */\n    tag_606:\n        /* \"#utility.yul\":18273:18297   */\n      tag_623\n        /* \"#utility.yul\":18291:18296   */\n      dup2\n        /* \"#utility.yul\":18273:18297   */\n      tag_624\n      jump\t// in\n    tag_623:\n        /* \"#utility.yul\":18268:18271   */\n      dup3\n        /* \"#utility.yul\":18261:18298   */\n      mstore\n        /* \"#utility.yul\":18196:18304   */\n      pop\n      pop\n      jump\t// out\n        /* \"#utility.yul\":18310:18428   */\n    tag_625:\n        /* \"#utility.yul\":18397:18421   */\n      tag_627\n        /* \"#utility.yul\":18415:18420   */\n      dup2\n        /* \"#utility.yul\":18397:18421   */\n      tag_624\n      jump\t// in\n    tag_627:\n        /* \"#utility.yul\":18392:18395   */\n      dup3\n        /* \"#utility.yul\":18385:18422   */\n      mstore\n        /* \"#utility.yul\":18310:18428   */\n      pop\n      pop\n      jump\t// out\n        /* \"#utility.yul\":18434:18813   */\n    tag_391:\n        /* \"#utility.yul\":18618:18621   */\n      0x00\n        /* \"#utility.yul\":18640:18787   */\n      tag_629\n        /* \"#utility.yul\":18783:18786   */\n      dup3\n        /* \"#utility.yul\":18640:18787   */\n      tag_582\n      jump\t// in\n    tag_629:\n        /* \"#utility.yul\":18633:18787   */\n      swap2\n      pop\n        /* \"#utility.yul\":18804:18807   */\n      dup2\n        /* \"#utility.yul\":18797:18807   */\n      swap1\n      pop\n        /* \"#utility.yul\":18434:18813   */\n      swap2\n      swap1\n      pop\n      jump\t// out\n        /* \"#utility.yul\":18819:19151   */\n    tag_225:\n        /* \"#utility.yul\":18940:18944   */\n      0x00\n        /* \"#utility.yul\":18978:18980   */\n      0x40\n        /* \"#utility.yul\":18967:18976   */\n      dup3\n        /* \"#utility.yul\":18963:18981   */\n      add\n        /* \"#utility.yul\":18955:18981   */\n      swap1\n      pop\n        /* \"#utility.yul\":18991:19062   */\n      tag_631\n        /* \"#utility.yul\":19059:19060   */\n      0x00\n        /* \"#utility.yul\":19048:19057   */\n      dup4\n        /* \"#utility.yul\":19044:19061   */\n      add\n        /* \"#utility.yul\":19035:19041   */\n      dup6\n        /* \"#utility.yul\":18991:19062   */\n      tag_491\n      jump\t// in\n    tag_631:\n        /* \"#utility.yul\":19072:19144   */\n      tag_632\n        /* \"#utility.yul\":19140:19142   */\n      0x20\n        /* \"#utility.yul\":19129:19138   */\n      dup4\n        /* \"#utility.yul\":19125:19143   */\n      add\n        /* \"#utility.yul\":19116:19122   */\n      dup5\n        /* \"#utility.yul\":19072:19144   */\n      tag_491\n      jump\t// in\n    tag_632:\n        /* \"#utility.yul\":18819:19151   */\n      swap4\n      swap3\n      pop\n      pop\n      pop\n      jump\t// out\n        /* \"#utility.yul\":19157:19932   */\n    tag_243:\n        /* \"#utility.yul\":19390:19394   */\n      0x00\n        /* \"#utility.yul\":19428:19431   */\n      0xc0\n        /* \"#utility.yul\":19417:19426   */\n      dup3\n        /* \"#utility.yul\":19413:19432   */\n      add\n        /* \"#utility.yul\":19405:19432   */\n      swap1\n      pop\n        /* \"#utility.yul\":19442:19513   */\n      tag_634\n        /* \"#utility.yul\":19510:19511   */\n      0x00\n        /* \"#utility.yul\":19499:19508   */\n      dup4\n        /* \"#utility.yul\":19495:19512   */\n      add\n        /* \"#utility.yul\":19486:19492   */\n      dup10\n        /* \"#utility.yul\":19442:19513   */\n      tag_491\n      jump\t// in\n    tag_634:\n        /* \"#utility.yul\":19523:19595   */\n      tag_635\n        /* \"#utility.yul\":19591:19593   */\n      0x20\n        /* \"#utility.yul\":19580:19589   */\n      dup4\n        /* \"#utility.yul\":19576:19594   */\n      add\n        /* \"#utility.yul\":19567:19573   */\n      dup9\n        /* \"#utility.yul\":19523:19595   */\n      tag_491\n      jump\t// in\n    tag_635:\n        /* \"#utility.yul\":19605:19677   */\n      tag_636\n        /* \"#utility.yul\":19673:19675   */\n      0x40\n        /* \"#utility.yul\":19662:19671   */\n      dup4\n        /* \"#utility.yul\":19658:19676   */\n      add\n        /* \"#utility.yul\":19649:19655   */\n      dup8\n        /* \"#utility.yul\":19605:19677   */\n      tag_491\n      jump\t// in\n    tag_636:\n        /* \"#utility.yul\":19687:19759   */\n      tag_637\n        /* \"#utility.yul\":19755:19757   */\n      0x60\n        /* \"#utility.yul\":19744:19753   */\n      dup4\n        /* \"#utility.yul\":19740:19758   */\n      add\n        /* \"#utility.yul\":19731:19737   */\n      dup7\n        /* \"#utility.yul\":19687:19759   */\n      tag_625\n      jump\t// in\n    tag_637:\n        /* \"#utility.yul\":19769:19842   */\n      tag_638\n        /* \"#utility.yul\":19837:19840   */\n      0x80\n        /* \"#utility.yul\":19826:19835   */\n      dup4\n        /* \"#utility.yul\":19822:19841   */\n      add\n        /* \"#utility.yul\":19813:19819   */\n      dup6\n        /* \"#utility.yul\":19769:19842   */\n      tag_625\n      jump\t// in\n    tag_638:\n        /* \"#utility.yul\":19852:19925   */\n      tag_639\n        /* \"#utility.yul\":19920:19923   */\n      0xa0\n        /* \"#utility.yul\":19909:19918   */\n      dup4\n        /* \"#utility.yul\":19905:19924   */\n      add\n        /* \"#utility.yul\":19896:19902   */\n      dup5\n        /* \"#utility.yul\":19852:19925   */\n      tag_625\n      jump\t// in\n    tag_639:\n        /* \"#utility.yul\":19157:19932   */\n      swap8\n      swap7\n      pop\n      pop\n      pop\n      pop\n      pop\n      pop\n      pop\n      jump\t// out\n        /* \"#utility.yul\":19938:20824   */\n    tag_329:\n        /* \"#utility.yul\":20199:20203   */\n      0x00\n        /* \"#utility.yul\":20237:20240   */\n      0xe0\n        /* \"#utility.yul\":20226:20235   */\n      dup3\n        /* \"#utility.yul\":20222:20241   */\n      add\n        /* \"#utility.yul\":20214:20241   */\n      swap1\n      pop\n        /* \"#utility.yul\":20251:20322   */\n      tag_641\n        /* \"#utility.yul\":20319:20320   */\n      0x00\n        /* \"#utility.yul\":20308:20317   */\n      dup4\n        /* \"#utility.yul\":20304:20321   */\n      add\n        /* \"#utility.yul\":20295:20301   */\n      dup11\n        /* \"#utility.yul\":20251:20322   */\n      tag_491\n      jump\t// in\n    tag_641:\n        /* \"#utility.yul\":20332:20404   */\n      tag_642\n        /* \"#utility.yul\":20400:20402   */\n      0x20\n        /* \"#utility.yul\":20389:20398   */\n      dup4\n        /* \"#utility.yul\":20385:20403   */\n      add\n        /* \"#utility.yul\":20376:20382   */\n      dup10\n        /* \"#utility.yul\":20332:20404   */\n      tag_491\n      jump\t// in\n    tag_642:\n        /* \"#utility.yul\":20414:20486   */\n      tag_643\n        /* \"#utility.yul\":20482:20484   */\n      0x40\n        /* \"#utility.yul\":20471:20480   */\n      dup4\n        /* \"#utility.yul\":20467:20485   */\n      add\n        /* \"#utility.yul\":20458:20464   */\n      dup9\n        /* \"#utility.yul\":20414:20486   */\n      tag_491\n      jump\t// in\n    tag_643:\n        /* \"#utility.yul\":20496:20568   */\n      tag_644\n        /* \"#utility.yul\":20564:20566   */\n      0x60\n        /* \"#utility.yul\":20553:20562   */\n      dup4\n        /* \"#utility.yul\":20549:20567   */\n      add\n        /* \"#utility.yul\":20540:20546   */\n      dup8\n        /* \"#utility.yul\":20496:20568   */\n      tag_625\n      jump\t// in\n    tag_644:\n        /* \"#utility.yul\":20578:20651   */\n      tag_645\n        /* \"#utility.yul\":20646:20649   */\n      0x80\n        /* \"#utility.yul\":20635:20644   */\n      dup4\n        /* \"#utility.yul\":20631:20650   */\n      add\n        /* \"#utility.yul\":20622:20628   */\n      dup7\n        /* \"#utility.yul\":20578:20651   */\n      tag_625\n      jump\t// in\n    tag_645:\n        /* \"#utility.yul\":20661:20734   */\n      tag_646\n        /* \"#utility.yul\":20729:20732   */\n      0xa0\n        /* \"#utility.yul\":20718:20727   */\n      dup4\n        /* \"#utility.yul\":20714:20733   */\n      add\n        /* \"#utility.yul\":20705:20711   */\n      dup6\n        /* \"#utility.yul\":20661:20734   */\n      tag_625\n      jump\t// in\n    tag_646:\n        /* \"#utility.yul\":20744:20817   */\n      tag_647\n        /* \"#utility.yul\":20812:20815   */\n      0xc0\n        /* \"#utility.yul\":20801:20810   */\n      dup4\n        /* \"#utility.yul\":20797:20816   */\n      add\n        /* \"#utility.yul\":20788:20794   */\n      dup5\n        /* \"#utility.yul\":20744:20817   */\n      tag_625\n      jump\t// in\n    tag_647:\n        /* \"#utility.yul\":19938:20824   */\n      swap9\n      swap8\n      pop\n      pop\n      pop\n      pop\n      pop\n      pop\n      pop\n      pop\n      jump\t// out\n        /* \"#utility.yul\":20830:21272   */\n    tag_117:\n        /* \"#utility.yul\":20979:20983   */\n      0x00\n        /* \"#utility.yul\":21017:21019   */\n      0x60\n        /* \"#utility.yul\":21006:21015   */\n      dup3\n        /* \"#utility.yul\":21002:21020   */\n      add\n        /* \"#utility.yul\":20994:21020   */\n      swap1\n      pop\n        /* \"#utility.yul\":21030:21101   */\n      tag_649\n        /* \"#utility.yul\":21098:21099   */\n      0x00\n        /* \"#utility.yul\":21087:21096   */\n      dup4\n        /* \"#utility.yul\":21083:21100   */\n      add\n        /* \"#utility.yul\":21074:21080   */\n      dup7\n        /* \"#utility.yul\":21030:21101   */\n      tag_491\n      jump\t// in\n    tag_649:\n        /* \"#utility.yul\":21111:21183   */\n      tag_650\n        /* \"#utility.yul\":21179:21181   */\n      0x20\n        /* \"#utility.yul\":21168:21177   */\n      dup4\n        /* \"#utility.yul\":21164:21182   */\n      add\n        /* \"#utility.yul\":21155:21161   */\n      dup6\n        /* \"#utility.yul\":21111:21183   */\n      tag_491\n      jump\t// in\n    tag_650:\n        /* \"#utility.yul\":21193:21265   */\n      tag_651\n        /* \"#utility.yul\":21261:21263   */\n      0x40\n        /* \"#utility.yul\":21250:21259   */\n      dup4\n        /* \"#utility.yul\":21246:21264   */\n      add\n        /* \"#utility.yul\":21237:21243   */\n      dup5\n        /* \"#utility.yul\":21193:21265   */\n      tag_625\n      jump\t// in\n    tag_651:\n        /* \"#utility.yul\":20830:21272   */\n      swap5\n      swap4\n      pop\n      pop\n      pop\n      pop\n      jump\t// out\n        /* \"#utility.yul\":21278:21831   */\n    tag_302:\n        /* \"#utility.yul\":21455:21459   */\n      0x00\n        /* \"#utility.yul\":21493:21496   */\n      0x80\n        /* \"#utility.yul\":21482:21491   */\n      dup3\n        /* \"#utility.yul\":21478:21497   */\n      add\n        /* \"#utility.yul\":21470:21497   */\n      swap1\n      pop\n        /* \"#utility.yul\":21507:21578   */\n      tag_653\n        /* \"#utility.yul\":21575:21576   */\n      0x00\n        /* \"#utility.yul\":21564:21573   */\n      dup4\n        /* \"#utility.yul\":21560:21577   */\n      add\n        /* \"#utility.yul\":21551:21557   */\n      dup8\n        /* \"#utility.yul\":21507:21578   */\n      tag_491\n      jump\t// in\n    tag_653:\n        /* \"#utility.yul\":21588:21660   */\n      tag_654\n        /* \"#utility.yul\":21656:21658   */\n      0x20\n        /* \"#utility.yul\":21645:21654   */\n      dup4\n        /* \"#utility.yul\":21641:21659   */\n      add\n        /* \"#utility.yul\":21632:21638   */\n      dup7\n        /* \"#utility.yul\":21588:21660   */\n      tag_491\n      jump\t// in\n    tag_654:\n        /* \"#utility.yul\":21670:21742   */\n      tag_655\n        /* \"#utility.yul\":21738:21740   */\n      0x40\n        /* \"#utility.yul\":21727:21736   */\n      dup4\n        /* \"#utility.yul\":21723:21741   */\n      add\n        /* \"#utility.yul\":21714:21720   */\n      dup6\n        /* \"#utility.yul\":21670:21742   */\n      tag_625\n      jump\t// in\n    tag_655:\n        /* \"#utility.yul\":21752:21824   */\n      tag_656\n        /* \"#utility.yul\":21820:21822   */\n      0x60\n        /* \"#utility.yul\":21809:21818   */\n      dup4\n        /* \"#utility.yul\":21805:21823   */\n      add\n        /* \"#utility.yul\":21796:21802   */\n      dup5\n        /* \"#utility.yul\":21752:21824   */\n      tag_625\n      jump\t// in\n    tag_656:\n        /* \"#utility.yul\":21278:21831   */\n      swap6\n      swap5\n      pop\n      pop\n      pop\n      pop\n      pop\n      jump\t// out\n        /* \"#utility.yul\":21837:22169   */\n    tag_384:\n        /* \"#utility.yul\":21958:21962   */\n      0x00\n        /* \"#utility.yul\":21996:21998   */\n      0x40\n        /* \"#utility.yul\":21985:21994   */\n      dup3\n        /* \"#utility.yul\":21981:21999   */\n      add\n        /* \"#utility.yul\":21973:21999   */\n      swap1\n      pop\n        /* \"#utility.yul\":22009:22080   */\n      tag_658\n        /* \"#utility.yul\":22077:22078   */\n      0x00\n        /* \"#utility.yul\":22066:22075   */\n      dup4\n        /* \"#utility.yul\":22062:22079   */\n      add\n        /* \"#utility.yul\":22053:22059   */\n      dup6\n        /* \"#utility.yul\":22009:22080   */\n      tag_491\n      jump\t// in\n    tag_658:\n        /* \"#utility.yul\":22090:22162   */\n      tag_659\n        /* \"#utility.yul\":22158:22160   */\n      0x20\n        /* \"#utility.yul\":22147:22156   */\n      dup4\n        /* \"#utility.yul\":22143:22161   */\n      add\n        /* \"#utility.yul\":22134:22140   */\n      dup5\n        /* \"#utility.yul\":22090:22162   */\n      tag_625\n      jump\t// in\n    tag_659:\n        /* \"#utility.yul\":21837:22169   */\n      swap4\n      swap3\n      pop\n      pop\n      pop\n      jump\t// out\n        /* \"#utility.yul\":22175:22617   */\n    tag_198:\n        /* \"#utility.yul\":22324:22328   */\n      0x00\n        /* \"#utility.yul\":22362:22364   */\n      0x60\n        /* \"#utility.yul\":22351:22360   */\n      dup3\n        /* \"#utility.yul\":22347:22365   */\n      add\n        /* \"#utility.yul\":22339:22365   */\n      swap1\n      pop\n        /* \"#utility.yul\":22375:22446   */\n      tag_661\n        /* \"#utility.yul\":22443:22444   */\n      0x00\n        /* \"#utility.yul\":22432:22441   */\n      dup4\n        /* \"#utility.yul\":22428:22445   */\n      add\n        /* \"#utility.yul\":22419:22425   */\n      dup7\n        /* \"#utility.yul\":22375:22446   */\n      tag_491\n      jump\t// in\n    tag_661:\n        /* \"#utility.yul\":22456:22528   */\n      tag_662\n        /* \"#utility.yul\":22524:22526   */\n      0x20\n        /* \"#utility.yul\":22513:22522   */\n      dup4\n        /* \"#utility.yul\":22509:22527   */\n      add\n        /* \"#utility.yul\":22500:22506   */\n      dup6\n        /* \"#utility.yul\":22456:22528   */\n      tag_625\n      jump\t// in\n    tag_662:\n        /* \"#utility.yul\":22538:22610   */\n      tag_663\n        /* \"#utility.yul\":22606:22608   */\n      0x40\n        /* \"#utility.yul\":22595:22604   */\n      dup4\n        /* \"#utility.yul\":22591:22609   */\n      add\n        /* \"#utility.yul\":22582:22588   */\n      dup5\n        /* \"#utility.yul\":22538:22610   */\n      tag_491\n      jump\t// in\n    tag_663:\n        /* \"#utility.yul\":22175:22617   */\n      swap5\n      swap4\n      pop\n      pop\n      pop\n      pop\n      jump\t// out\n        /* \"#utility.yul\":22623:23287   */\n    tag_209:\n        /* \"#utility.yul\":22828:22832   */\n      0x00\n        /* \"#utility.yul\":22866:22869   */\n      0xa0\n        /* \"#utility.yul\":22855:22864   */\n      dup3\n        /* \"#utility.yul\":22851:22870   */\n      add\n        /* \"#utility.yul\":22843:22870   */\n      swap1\n      pop\n        /* \"#utility.yul\":22880:22951   */\n      tag_665\n        /* \"#utility.yul\":22948:22949   */\n      0x00\n        /* \"#utility.yul\":22937:22946   */\n      dup4\n        /* \"#utility.yul\":22933:22950   */\n      add\n        /* \"#utility.yul\":22924:22930   */\n      dup9\n        /* \"#utility.yul\":22880:22951   */\n      tag_491\n      jump\t// in\n    tag_665:\n        /* \"#utility.yul\":22961:23033   */\n      tag_666\n        /* \"#utility.yul\":23029:23031   */\n      0x20\n        /* \"#utility.yul\":23018:23027   */\n      dup4\n        /* \"#utility.yul\":23014:23032   */\n      add\n        /* \"#utility.yul\":23005:23011   */\n      dup8\n        /* \"#utility.yul\":22961:23033   */\n      tag_625\n      jump\t// in\n    tag_666:\n        /* \"#utility.yul\":23043:23115   */\n      tag_667\n        /* \"#utility.yul\":23111:23113   */\n      0x40\n        /* \"#utility.yul\":23100:23109   */\n      dup4\n        /* \"#utility.yul\":23096:23114   */\n      add\n        /* \"#utility.yul\":23087:23093   */\n      dup7\n        /* \"#utility.yul\":23043:23115   */\n      tag_491\n      jump\t// in\n    tag_667:\n        /* \"#utility.yul\":23125:23197   */\n      tag_668\n        /* \"#utility.yul\":23193:23195   */\n      0x60\n        /* \"#utility.yul\":23182:23191   */\n      dup4\n        /* \"#utility.yul\":23178:23196   */\n      add\n        /* \"#utility.yul\":23169:23175   */\n      dup6\n        /* \"#utility.yul\":23125:23197   */\n      tag_625\n      jump\t// in\n    tag_668:\n        /* \"#utility.yul\":23207:23280   */\n      tag_669\n        /* \"#utility.yul\":23275:23278   */\n      0x80\n        /* \"#utility.yul\":23264:23273   */\n      dup4\n        /* \"#utility.yul\":23260:23279   */\n      add\n        /* \"#utility.yul\":23251:23257   */\n      dup5\n        /* \"#utility.yul\":23207:23280   */\n      tag_491\n      jump\t// in\n    tag_669:\n        /* \"#utility.yul\":22623:23287   */\n      swap7\n      swap6\n      pop\n      pop\n      pop\n      pop\n      pop\n      pop\n      jump\t// out\n        /* \"#utility.yul\":23293:23735   */\n    tag_185:\n        /* \"#utility.yul\":23442:23446   */\n      0x00\n        /* \"#utility.yul\":23480:23482   */\n      0x60\n        /* \"#utility.yul\":23469:23478   */\n      dup3\n        /* \"#utility.yul\":23465:23483   */\n      add\n        /* \"#utility.yul\":23457:23483   */\n      swap1\n      pop\n        /* \"#utility.yul\":23493:23564   */\n      tag_671\n        /* \"#utility.yul\":23561:23562   */\n      0x00\n        /* \"#utility.yul\":23550:23559   */\n      dup4\n        /* \"#utility.yul\":23546:23563   */\n      add\n        /* \"#utility.yul\":23537:23543   */\n      dup7\n        /* \"#utility.yul\":23493:23564   */\n      tag_491\n      jump\t// in\n    tag_671:\n        /* \"#utility.yul\":23574:23646   */\n      tag_672\n        /* \"#utility.yul\":23642:23644   */\n      0x20\n        /* \"#utility.yul\":23631:23640   */\n      dup4\n        /* \"#utility.yul\":23627:23645   */\n      add\n        /* \"#utility.yul\":23618:23624   */\n      dup6\n        /* \"#utility.yul\":23574:23646   */\n      tag_625\n      jump\t// in\n    tag_672:\n        /* \"#utility.yul\":23656:23728   */\n      tag_673\n        /* \"#utility.yul\":23724:23726   */\n      0x40\n        /* \"#utility.yul\":23713:23722   */\n      dup4\n        /* \"#utility.yul\":23709:23727   */\n      add\n        /* \"#utility.yul\":23700:23706   */\n      dup5\n        /* \"#utility.yul\":23656:23728   */\n      tag_625\n      jump\t// in\n    tag_673:\n        /* \"#utility.yul\":23293:23735   */\n      swap5\n      swap4\n      pop\n      pop\n      pop\n      pop\n      jump\t// out\n        /* \"#utility.yul\":23741:24294   */\n    tag_149:\n        /* \"#utility.yul\":23918:23922   */\n      0x00\n        /* \"#utility.yul\":23956:23959   */\n      0x80\n        /* \"#utility.yul\":23945:23954   */\n      dup3\n        /* \"#utility.yul\":23941:23960   */\n      add\n        /* \"#utility.yul\":23933:23960   */\n      swap1\n      pop\n        /* \"#utility.yul\":23970:24041   */\n      tag_675\n        /* \"#utility.yul\":24038:24039   */\n      0x00\n        /* \"#utility.yul\":24027:24036   */\n      dup4\n        /* \"#utility.yul\":24023:24040   */\n      add\n        /* \"#utility.yul\":24014:24020   */\n      dup8\n        /* \"#utility.yul\":23970:24041   */\n      tag_491\n      jump\t// in\n    tag_675:\n        /* \"#utility.yul\":24051:24123   */\n      tag_676\n        /* \"#utility.yul\":24119:24121   */\n      0x20\n        /* \"#utility.yul\":24108:24117   */\n      dup4\n        /* \"#utility.yul\":24104:24122   */\n      add\n        /* \"#utility.yul\":24095:24101   */\n      dup7\n        /* \"#utility.yul\":24051:24123   */\n      tag_625\n      jump\t// in\n    tag_676:\n        /* \"#utility.yul\":24133:24205   */\n      tag_677\n        /* \"#utility.yul\":24201:24203   */\n      0x40\n        /* \"#utility.yul\":24190:24199   */\n      dup4\n        /* \"#utility.yul\":24186:24204   */\n      add\n        /* \"#utility.yul\":24177:24183   */\n      dup6\n        /* \"#utility.yul\":24133:24205   */\n      tag_625\n      jump\t// in\n    tag_677:\n        /* \"#utility.yul\":24215:24287   */\n      tag_678\n        /* \"#utility.yul\":24283:24285   */\n      0x60\n        /* \"#utility.yul\":24272:24281   */\n      dup4\n        /* \"#utility.yul\":24268:24286   */\n      add\n        /* \"#utility.yul\":24259:24265   */\n      dup5\n        /* \"#utility.yul\":24215:24287   */\n      tag_491\n      jump\t// in\n    tag_678:\n        /* \"#utility.yul\":23741:24294   */\n      swap6\n      swap5\n      pop\n      pop\n      pop\n      pop\n      pop\n      jump\t// out\n        /* \"#utility.yul\":24300:24773   */\n    tag_102:\n        /* \"#utility.yul\":24493:24497   */\n      0x00\n        /* \"#utility.yul\":24531:24533   */\n      0x20\n        /* \"#utility.yul\":24520:24529   */\n      dup3\n        /* \"#utility.yul\":24516:24534   */\n      add\n        /* \"#utility.yul\":24508:24534   */\n      swap1\n      pop\n        /* \"#utility.yul\":24580:24589   */\n      dup2\n        /* \"#utility.yul\":24574:24578   */\n      dup2\n        /* \"#utility.yul\":24570:24590   */\n      sub\n        /* \"#utility.yul\":24566:24567   */\n      0x00\n        /* \"#utility.yul\":24555:24564   */\n      dup4\n        /* \"#utility.yul\":24551:24568   */\n      add\n        /* \"#utility.yul\":24544:24591   */\n      mstore\n        /* \"#utility.yul\":24608:24766   */\n      tag_680\n        /* \"#utility.yul\":24761:24765   */\n      dup2\n        /* \"#utility.yul\":24752:24758   */\n      dup5\n        /* \"#utility.yul\":24608:24766   */\n      tag_494\n      jump\t// in\n    tag_680:\n        /* \"#utility.yul\":24600:24766   */\n      swap1\n      pop\n        /* \"#utility.yul\":24300:24773   */\n      swap3\n      swap2\n      pop\n      pop\n      jump\t// out\n        /* \"#utility.yul\":24779:24989   */\n    tag_32:\n        /* \"#utility.yul\":24866:24870   */\n      0x00\n        /* \"#utility.yul\":24904:24906   */\n      0x20\n        /* \"#utility.yul\":24893:24902   */\n      dup3\n        /* \"#utility.yul\":24889:24907   */\n      add\n        /* \"#utility.yul\":24881:24907   */\n      swap1\n      pop\n        /* \"#utility.yul\":24917:24982   */\n      tag_682\n        /* \"#utility.yul\":24979:24980   */\n      0x00\n        /* \"#utility.yul\":24968:24977   */\n      dup4\n        /* \"#utility.yul\":24964:24981   */\n      add\n        /* \"#utility.yul\":24955:24961   */\n      dup5\n        /* \"#utility.yul\":24917:24982   */\n      tag_508\n      jump\t// in\n    tag_682:\n        /* \"#utility.yul\":24779:24989   */\n      swap3\n      swap2\n      pop\n      pop\n      jump\t// out\n        /* \"#utility.yul\":24995:25213   */\n    tag_39:\n        /* \"#utility.yul\":25086:25090   */\n      0x00\n        /* \"#utility.yul\":25124:25126   */\n      0x20\n        /* \"#utility.yul\":25113:25122   */\n      dup3\n        /* \"#utility.yul\":25109:25127   */\n      add\n        /* \"#utility.yul\":25101:25127   */\n      swap1\n      pop\n        /* \"#utility.yul\":25137:25206   */\n      tag_684\n        /* \"#utility.yul\":25203:25204   */\n      0x00\n        /* \"#utility.yul\":25192:25201   */\n      dup4\n        /* \"#utility.yul\":25188:25205   */\n      add\n        /* \"#utility.yul\":25179:25185   */\n      dup5\n        /* \"#utility.yul\":25137:25206   */\n      tag_512\n      jump\t// in\n    tag_684:\n        /* \"#utility.yul\":24995:25213   */\n      swap3\n      swap2\n      pop\n      pop\n      jump\t// out\n        /* \"#utility.yul\":25219:25638   */\n    tag_193:\n        /* \"#utility.yul\":25385:25389   */\n      0x00\n        /* \"#utility.yul\":25423:25425   */\n      0x20\n        /* \"#utility.yul\":25412:25421   */\n      dup3\n        /* \"#utility.yul\":25408:25426   */\n      add\n        /* \"#utility.yul\":25400:25426   */\n      swap1\n      pop\n        /* \"#utility.yul\":25472:25481   */\n      dup2\n        /* \"#utility.yul\":25466:25470   */\n      dup2\n        /* \"#utility.yul\":25462:25482   */\n      sub\n        /* \"#utility.yul\":25458:25459   */\n      0x00\n        /* \"#utility.yul\":25447:25456   */\n      dup4\n        /* \"#utility.yul\":25443:25460   */\n      add\n        /* \"#utility.yul\":25436:25483   */\n      mstore\n        /* \"#utility.yul\":25500:25631   */\n      tag_686\n        /* \"#utility.yul\":25626:25630   */\n      dup2\n        /* \"#utility.yul\":25500:25631   */\n      tag_516\n      jump\t// in\n    tag_686:\n        /* \"#utility.yul\":25492:25631   */\n      swap1\n      pop\n        /* \"#utility.yul\":25219:25638   */\n      swap2\n      swap1\n      pop\n      jump\t// out\n        /* \"#utility.yul\":25644:26063   */\n    tag_232:\n        /* \"#utility.yul\":25810:25814   */\n      0x00\n        /* \"#utility.yul\":25848:25850   */\n      0x20\n        /* \"#utility.yul\":25837:25846   */\n      dup3\n        /* \"#utility.yul\":25833:25851   */\n      add\n        /* \"#utility.yul\":25825:25851   */\n      swap1\n      pop\n        /* \"#utility.yul\":25897:25906   */\n      dup2\n        /* \"#utility.yul\":25891:25895   */\n      dup2\n        /* \"#utility.yul\":25887:25907   */\n      sub\n        /* \"#utility.yul\":25883:25884   */\n      0x00\n        /* \"#utility.yul\":25872:25881   */\n      dup4\n        /* \"#utility.yul\":25868:25885   */\n      add\n        /* \"#utility.yul\":25861:25908   */\n      mstore\n        /* \"#utility.yul\":25925:26056   */\n      tag_688\n        /* \"#utility.yul\":26051:26055   */\n      dup2\n        /* \"#utility.yul\":25925:26056   */\n      tag_522\n      jump\t// in\n    tag_688:\n        /* \"#utility.yul\":25917:26056   */\n      swap1\n      pop\n        /* \"#utility.yul\":25644:26063   */\n      swap2\n      swap1\n      pop\n      jump\t// out\n        /* \"#utility.yul\":26069:26488   */\n    tag_135:\n        /* \"#utility.yul\":26235:26239   */\n      0x00\n        /* \"#utility.yul\":26273:26275   */\n      0x20\n        /* \"#utility.yul\":26262:26271   */\n      dup3\n        /* \"#utility.yul\":26258:26276   */\n      add\n        /* \"#utility.yul\":26250:26276   */\n      swap1\n      pop\n        /* \"#utility.yul\":26322:26331   */\n      dup2\n        /* \"#utility.yul\":26316:26320   */\n      dup2\n        /* \"#utility.yul\":26312:26332   */\n      sub\n        /* \"#utility.yul\":26308:26309   */\n      0x00\n        /* \"#utility.yul\":26297:26306   */\n      dup4\n        /* \"#utility.yul\":26293:26310   */\n      add\n        /* \"#utility.yul\":26286:26333   */\n      mstore\n        /* \"#utility.yul\":26350:26481   */\n      tag_690\n        /* \"#utility.yul\":26476:26480   */\n      dup2\n        /* \"#utility.yul\":26350:26481   */\n      tag_527\n      jump\t// in\n    tag_690:\n        /* \"#utility.yul\":26342:26481   */\n      swap1\n      pop\n        /* \"#utility.yul\":26069:26488   */\n      swap2\n      swap1\n      pop\n      jump\t// out\n        /* \"#utility.yul\":26494:26913   */\n    tag_259:\n        /* \"#utility.yul\":26660:26664   */\n      0x00\n        /* \"#utility.yul\":26698:26700   */\n      0x20\n        /* \"#utility.yul\":26687:26696   */\n      dup3\n        /* \"#utility.yul\":26683:26701   */\n      add\n        /* \"#utility.yul\":26675:26701   */\n      swap1\n      pop\n        /* \"#utility.yul\":26747:26756   */\n      dup2\n        /* \"#utility.yul\":26741:26745   */\n      dup2\n        /* \"#utility.yul\":26737:26757   */\n      sub\n        /* \"#utility.yul\":26733:26734   */\n      0x00\n        /* \"#utility.yul\":26722:26731   */\n      dup4\n        /* \"#utility.yul\":26718:26735   */\n      add\n        /* \"#utility.yul\":26711:26758   */\n      mstore\n        /* \"#utility.yul\":26775:26906   */\n      tag_692\n        /* \"#utility.yul\":26901:26905   */\n      dup2\n        /* \"#utility.yul\":26775:26906   */\n      tag_532\n      jump\t// in\n    tag_692:\n        /* \"#utility.yul\":26767:26906   */\n      swap1\n      pop\n        /* \"#utility.yul\":26494:26913   */\n      swap2\n      swap1\n      pop\n      jump\t// out\n        /* \"#utility.yul\":26919:27338   */\n    tag_175:\n        /* \"#utility.yul\":27085:27089   */\n      0x00\n        /* \"#utility.yul\":27123:27125   */\n      0x20\n        /* \"#utility.yul\":27112:27121   */\n      dup3\n        /* \"#utility.yul\":27108:27126   */\n      add\n        /* \"#utility.yul\":27100:27126   */\n      swap1\n      pop\n        /* \"#utility.yul\":27172:27181   */\n      dup2\n        /* \"#utility.yul\":27166:27170   */\n      dup2\n        /* \"#utility.yul\":27162:27182   */\n      sub\n        /* \"#utility.yul\":27158:27159   */\n      0x00\n        /* \"#utility.yul\":27147:27156   */\n      dup4\n        /* \"#utility.yul\":27143:27160   */\n      add\n        /* \"#utility.yul\":27136:27183   */\n      mstore\n        /* \"#utility.yul\":27200:27331   */\n      tag_694\n        /* \"#utility.yul\":27326:27330   */\n      dup2\n        /* \"#utility.yul\":27200:27331   */\n      tag_537\n      jump\t// in\n    tag_694:\n        /* \"#utility.yul\":27192:27331   */\n      swap1\n      pop\n        /* \"#utility.yul\":26919:27338   */\n      swap2\n      swap1\n      pop\n      jump\t// out\n        /* \"#utility.yul\":27344:27763   */\n    tag_127:\n        /* \"#utility.yul\":27510:27514   */\n      0x00\n        /* \"#utility.yul\":27548:27550   */\n      0x20\n        /* \"#utility.yul\":27537:27546   */\n      dup3\n        /* \"#utility.yul\":27533:27551   */\n      add\n        /* \"#utility.yul\":27525:27551   */\n      swap1\n      pop\n        /* \"#utility.yul\":27597:27606   */\n      dup2\n        /* \"#utility.yul\":27591:27595   */\n      dup2\n        /* \"#utility.yul\":27587:27607   */\n      sub\n        /* \"#utility.yul\":27583:27584   */\n      0x00\n        /* \"#utility.yul\":27572:27581   */\n      dup4\n        /* \"#utility.yul\":27568:27585   */\n      add\n        /* \"#utility.yul\":27561:27608   */\n      mstore\n        /* \"#utility.yul\":27625:27756   */\n      tag_696\n        /* \"#utility.yul\":27751:27755   */\n      dup2\n        /* \"#utility.yul\":27625:27756   */\n      tag_542\n      jump\t// in\n    tag_696:\n        /* \"#utility.yul\":27617:27756   */\n      swap1\n      pop\n        /* \"#utility.yul\":27344:27763   */\n      swap2\n      swap1\n      pop\n      jump\t// out\n        /* \"#utility.yul\":27769:28188   */\n    tag_140:\n        /* \"#utility.yul\":27935:27939   */\n      0x00\n        /* \"#utility.yul\":27973:27975   */\n      0x20\n        /* \"#utility.yul\":27962:27971   */\n      dup3\n        /* \"#utility.yul\":27958:27976   */\n      add\n        /* \"#utility.yul\":27950:27976   */\n      swap1\n      pop\n        /* \"#utility.yul\":28022:28031   */\n      dup2\n        /* \"#utility.yul\":28016:28020   */\n      dup2\n        /* \"#utility.yul\":28012:28032   */\n      sub\n        /* \"#utility.yul\":28008:28009   */\n      0x00\n        /* \"#utility.yul\":27997:28006   */\n      dup4\n        /* \"#utility.yul\":27993:28010   */\n      add\n        /* \"#utility.yul\":27986:28033   */\n      mstore\n        /* \"#utility.yul\":28050:28181   */\n      tag_698\n        /* \"#utility.yul\":28176:28180   */\n      dup2\n        /* \"#utility.yul\":28050:28181   */\n      tag_547\n      jump\t// in\n    tag_698:\n        /* \"#utility.yul\":28042:28181   */\n      swap1\n      pop\n        /* \"#utility.yul\":27769:28188   */\n      swap2\n      swap1\n      pop\n      jump\t// out\n        /* \"#utility.yul\":28194:28613   */\n    tag_131:\n        /* \"#utility.yul\":28360:28364   */\n      0x00\n        /* \"#utility.yul\":28398:28400   */\n      0x20\n        /* \"#utility.yul\":28387:28396   */\n      dup3\n        /* \"#utility.yul\":28383:28401   */\n      add\n        /* \"#utility.yul\":28375:28401   */\n      swap1\n      pop\n        /* \"#utility.yul\":28447:28456   */\n      dup2\n        /* \"#utility.yul\":28441:28445   */\n      dup2\n        /* \"#utility.yul\":28437:28457   */\n      sub\n        /* \"#utility.yul\":28433:28434   */\n      0x00\n        /* \"#utility.yul\":28422:28431   */\n      dup4\n        /* \"#utility.yul\":28418:28435   */\n      add\n        /* \"#utility.yul\":28411:28458   */\n      mstore\n        /* \"#utility.yul\":28475:28606   */\n      tag_700\n        /* \"#utility.yul\":28601:28605   */\n      dup2\n        /* \"#utility.yul\":28475:28606   */\n      tag_552\n      jump\t// in\n    tag_700:\n        /* \"#utility.yul\":28467:28606   */\n      swap1\n      pop\n        /* \"#utility.yul\":28194:28613   */\n      swap2\n      swap1\n      pop\n      jump\t// out\n        /* \"#utility.yul\":28619:29038   */\n    tag_222:\n        /* \"#utility.yul\":28785:28789   */\n      0x00\n        /* \"#utility.yul\":28823:28825   */\n      0x20\n        /* \"#utility.yul\":28812:28821   */\n      dup3\n        /* \"#utility.yul\":28808:28826   */\n      add\n        /* \"#utility.yul\":28800:28826   */\n      swap1\n      pop\n        /* \"#utility.yul\":28872:28881   */\n      dup2\n        /* \"#utility.yul\":28866:28870   */\n      dup2\n        /* \"#utility.yul\":28862:28882   */\n      sub\n        /* \"#utility.yul\":28858:28859   */\n      0x00\n        /* \"#utility.yul\":28847:28856   */\n      dup4\n        /* \"#utility.yul\":28843:28860   */\n      add\n        /* \"#utility.yul\":28836:28883   */\n      mstore\n        /* \"#utility.yul\":28900:29031   */\n      tag_702\n        /* \"#utility.yul\":29026:29030   */\n      dup2\n        /* \"#utility.yul\":28900:29031   */\n      tag_557\n      jump\t// in\n    tag_702:\n        /* \"#utility.yul\":28892:29031   */\n      swap1\n      pop\n        /* \"#utility.yul\":28619:29038   */\n      swap2\n      swap1\n      pop\n      jump\t// out\n        /* \"#utility.yul\":29044:29463   */\n    tag_266:\n        /* \"#utility.yul\":29210:29214   */\n      0x00\n        /* \"#utility.yul\":29248:29250   */\n      0x20\n        /* \"#utility.yul\":29237:29246   */\n      dup3\n        /* \"#utility.yul\":29233:29251   */\n      add\n        /* \"#utility.yul\":29225:29251   */\n      swap1\n      pop\n        /* \"#utility.yul\":29297:29306   */\n      dup2\n        /* \"#utility.yul\":29291:29295   */\n      dup2\n        /* \"#utility.yul\":29287:29307   */\n      sub\n        /* \"#utility.yul\":29283:29284   */\n      0x00\n        /* \"#utility.yul\":29272:29281   */\n      dup4\n        /* \"#utility.yul\":29268:29285   */\n      add\n        /* \"#utility.yul\":29261:29308   */\n      mstore\n        /* \"#utility.yul\":29325:29456   */\n      tag_704\n        /* \"#utility.yul\":29451:29455   */\n      dup2\n        /* \"#utility.yul\":29325:29456   */\n      tag_562\n      jump\t// in\n    tag_704:\n        /* \"#utility.yul\":29317:29456   */\n      swap1\n      pop\n        /* \"#utility.yul\":29044:29463   */\n      swap2\n      swap1\n      pop\n      jump\t// out\n        /* \"#utility.yul\":29469:29888   */\n    tag_353:\n        /* \"#utility.yul\":29635:29639   */\n      0x00\n        /* \"#utility.yul\":29673:29675   */\n      0x20\n        /* \"#utility.yul\":29662:29671   */\n      dup3\n        /* \"#utility.yul\":29658:29676   */\n      add\n        /* \"#utility.yul\":29650:29676   */\n      swap1\n      pop\n        /* \"#utility.yul\":29722:29731   */\n      dup2\n        /* \"#utility.yul\":29716:29720   */\n      dup2\n        /* \"#utility.yul\":29712:29732   */\n      sub\n        /* \"#utility.yul\":29708:29709   */\n      0x00\n        /* \"#utility.yul\":29697:29706   */\n      dup4\n        /* \"#utility.yul\":29693:29710   */\n      add\n        /* \"#utility.yul\":29686:29733   */\n      mstore\n        /* \"#utility.yul\":29750:29881   */\n      tag_706\n        /* \"#utility.yul\":29876:29880   */\n      dup2\n        /* \"#utility.yul\":29750:29881   */\n      tag_567\n      jump\t// in\n    tag_706:\n        /* \"#utility.yul\":29742:29881   */\n      swap1\n      pop\n        /* \"#utility.yul\":29469:29888   */\n      swap2\n      swap1\n      pop\n      jump\t// out\n        /* \"#utility.yul\":29894:30313   */\n    tag_189:\n        /* \"#utility.yul\":30060:30064   */\n      0x00\n        /* \"#utility.yul\":30098:30100   */\n      0x20\n        /* \"#utility.yul\":30087:30096   */\n      dup3\n        /* \"#utility.yul\":30083:30101   */\n      add\n        /* \"#utility.yul\":30075:30101   */\n      swap1\n      pop\n        /* \"#utility.yul\":30147:30156   */\n      dup2\n        /* \"#utility.yul\":30141:30145   */\n      dup2\n        /* \"#utility.yul\":30137:30157   */\n      sub\n        /* \"#utility.yul\":30133:30134   */\n      0x00\n        /* \"#utility.yul\":30122:30131   */\n      dup4\n        /* \"#utility.yul\":30118:30135   */\n      add\n        /* \"#utility.yul\":30111:30158   */\n      mstore\n        /* \"#utility.yul\":30175:30306   */\n      tag_708\n        /* \"#utility.yul\":30301:30305   */\n      dup2\n        /* \"#utility.yul\":30175:30306   */\n      tag_572\n      jump\t// in\n    tag_708:\n        /* \"#utility.yul\":30167:30306   */\n      swap1\n      pop\n        /* \"#utility.yul\":29894:30313   */\n      swap2\n      swap1\n      pop\n      jump\t// out\n        /* \"#utility.yul\":30319:30738   */\n    tag_179:\n        /* \"#utility.yul\":30485:30489   */\n      0x00\n        /* \"#utility.yul\":30523:30525   */\n      0x20\n        /* \"#utility.yul\":30512:30521   */\n      dup3\n        /* \"#utility.yul\":30508:30526   */\n      add\n        /* \"#utility.yul\":30500:30526   */\n      swap1\n      pop\n        /* \"#utility.yul\":30572:30581   */\n      dup2\n        /* \"#utility.yul\":30566:30570   */\n      dup2\n        /* \"#utility.yul\":30562:30582   */\n      sub\n        /* \"#utility.yul\":30558:30559   */\n      0x00\n        /* \"#utility.yul\":30547:30556   */\n      dup4\n        /* \"#utility.yul\":30543:30560   */\n      add\n        /* \"#utility.yul\":30536:30583   */\n      mstore\n        /* \"#utility.yul\":30600:30731   */\n      tag_710\n        /* \"#utility.yul\":30726:30730   */\n      dup2\n        /* \"#utility.yul\":30600:30731   */\n      tag_577\n      jump\t// in\n    tag_710:\n        /* \"#utility.yul\":30592:30731   */\n      swap1\n      pop\n        /* \"#utility.yul\":30319:30738   */\n      swap2\n      swap1\n      pop\n      jump\t// out\n        /* \"#utility.yul\":30744:31163   */\n    tag_196:\n        /* \"#utility.yul\":30910:30914   */\n      0x00\n        /* \"#utility.yul\":30948:30950   */\n      0x20\n        /* \"#utility.yul\":30937:30946   */\n      dup3\n        /* \"#utility.yul\":30933:30951   */\n      add\n        /* \"#utility.yul\":30925:30951   */\n      swap1\n      pop\n        /* \"#utility.yul\":30997:31006   */\n      dup2\n        /* \"#utility.yul\":30991:30995   */\n      dup2\n        /* \"#utility.yul\":30987:31007   */\n      sub\n        /* \"#utility.yul\":30983:30984   */\n      0x00\n        /* \"#utility.yul\":30972:30981   */\n      dup4\n        /* \"#utility.yul\":30968:30985   */\n      add\n        /* \"#utility.yul\":30961:31008   */\n      mstore\n        /* \"#utility.yul\":31025:31156   */\n      tag_712\n        /* \"#utility.yul\":31151:31155   */\n      dup2\n        /* \"#utility.yul\":31025:31156   */\n      tag_588\n      jump\t// in\n    tag_712:\n        /* \"#utility.yul\":31017:31156   */\n      swap1\n      pop\n        /* \"#utility.yul\":30744:31163   */\n      swap2\n      swap1\n      pop\n      jump\t// out\n        /* \"#utility.yul\":31169:31588   */\n    tag_289:\n        /* \"#utility.yul\":31335:31339   */\n      0x00\n        /* \"#utility.yul\":31373:31375   */\n      0x20\n        /* \"#utility.yul\":31362:31371   */\n      dup3\n        /* \"#utility.yul\":31358:31376   */\n      add\n        /* \"#utility.yul\":31350:31376   */\n      swap1\n      pop\n        /* \"#utility.yul\":31422:31431   */\n      dup2\n        /* \"#utility.yul\":31416:31420   */\n      dup2\n        /* \"#utility.yul\":31412:31432   */\n      sub\n        /* \"#utility.yul\":31408:31409   */\n      0x00\n        /* \"#utility.yul\":31397:31406   */\n      dup4\n        /* \"#utility.yul\":31393:31410   */\n      add\n        /* \"#utility.yul\":31386:31433   */\n      mstore\n        /* \"#utility.yul\":31450:31581   */\n      tag_714\n        /* \"#utility.yul\":31576:31580   */\n      dup2\n        /* \"#utility.yul\":31450:31581   */\n      tag_593\n      jump\t// in\n    tag_714:\n        /* \"#utility.yul\":31442:31581   */\n      swap1\n      pop\n        /* \"#utility.yul\":31169:31588   */\n      swap2\n      swap1\n      pop\n      jump\t// out\n        /* \"#utility.yul\":31594:32013   */\n    tag_397:\n        /* \"#utility.yul\":31760:31764   */\n      0x00\n        /* \"#utility.yul\":31798:31800   */\n      0x20\n        /* \"#utility.yul\":31787:31796   */\n      dup3\n        /* \"#utility.yul\":31783:31801   */\n      add\n        /* \"#utility.yul\":31775:31801   */\n      swap1\n      pop\n        /* \"#utility.yul\":31847:31856   */\n      dup2\n        /* \"#utility.yul\":31841:31845   */\n      dup2\n        /* \"#utility.yul\":31837:31857   */\n      sub\n        /* \"#utility.yul\":31833:31834   */\n      0x00\n        /* \"#utility.yul\":31822:31831   */\n      dup4\n        /* \"#utility.yul\":31818:31835   */\n      add\n        /* \"#utility.yul\":31811:31858   */\n      mstore\n        /* \"#utility.yul\":31875:32006   */\n      tag_716\n        /* \"#utility.yul\":32001:32005   */\n      dup2\n        /* \"#utility.yul\":31875:32006   */\n      tag_598\n      jump\t// in\n    tag_716:\n        /* \"#utility.yul\":31867:32006   */\n      swap1\n      pop\n        /* \"#utility.yul\":31594:32013   */\n      swap2\n      swap1\n      pop\n      jump\t// out\n        /* \"#utility.yul\":32019:32338   */\n    tag_76:\n        /* \"#utility.yul\":32160:32164   */\n      0x00\n        /* \"#utility.yul\":32198:32201   */\n      0xe0\n        /* \"#utility.yul\":32187:32196   */\n      dup3\n        /* \"#utility.yul\":32183:32202   */\n      add\n        /* \"#utility.yul\":32175:32202   */\n      swap1\n      pop\n        /* \"#utility.yul\":32212:32331   */\n      tag_718\n        /* \"#utility.yul\":32328:32329   */\n      0x00\n        /* \"#utility.yul\":32317:32326   */\n      dup4\n        /* \"#utility.yul\":32313:32330   */\n      add\n        /* \"#utility.yul\":32304:32310   */\n      dup5\n        /* \"#utility.yul\":32212:32331   */\n      tag_603\n      jump\t// in\n    tag_718:\n        /* \"#utility.yul\":32019:32338   */\n      swap3\n      swap2\n      pop\n      pop\n      jump\t// out\n        /* \"#utility.yul\":32344:32671   */\n    tag_97:\n        /* \"#utility.yul\":32489:32493   */\n      0x00\n        /* \"#utility.yul\":32527:32530   */\n      0x80\n        /* \"#utility.yul\":32516:32525   */\n      dup3\n        /* \"#utility.yul\":32512:32531   */\n      add\n        /* \"#utility.yul\":32504:32531   */\n      swap1\n      pop\n        /* \"#utility.yul\":32541:32664   */\n      tag_720\n        /* \"#utility.yul\":32661:32662   */\n      0x00\n        /* \"#utility.yul\":32650:32659   */\n      dup4\n        /* \"#utility.yul\":32646:32663   */\n      add\n        /* \"#utility.yul\":32637:32643   */\n      dup5\n        /* \"#utility.yul\":32541:32664   */\n      tag_613\n      jump\t// in\n    tag_720:\n        /* \"#utility.yul\":32344:32671   */\n      swap3\n      swap2\n      pop\n      pop\n      jump\t// out\n        /* \"#utility.yul\":32677:32899   */\n    tag_65:\n        /* \"#utility.yul\":32770:32774   */\n      0x00\n        /* \"#utility.yul\":32808:32810   */\n      0x20\n        /* \"#utility.yul\":32797:32806   */\n      dup3\n        /* \"#utility.yul\":32793:32811   */\n      add\n        /* \"#utility.yul\":32785:32811   */\n      swap1\n      pop\n        /* \"#utility.yul\":32821:32892   */\n      tag_722\n        /* \"#utility.yul\":32889:32890   */\n      0x00\n        /* \"#utility.yul\":32878:32887   */\n      dup4\n        /* \"#utility.yul\":32874:32891   */\n      add\n        /* \"#utility.yul\":32865:32871   */\n      dup5\n        /* \"#utility.yul\":32821:32892   */\n      tag_625\n      jump\t// in\n    tag_722:\n        /* \"#utility.yul\":32677:32899   */\n      swap3\n      swap2\n      pop\n      pop\n      jump\t// out\n        /* \"#utility.yul\":32986:33143   */\n    tag_501:\n        /* \"#utility.yul\":33078:33082   */\n      0x00\n        /* \"#utility.yul\":33101:33104   */\n      dup2\n        /* \"#utility.yul\":33093:33104   */\n      swap1\n      pop\n        /* \"#utility.yul\":33131:33135   */\n      0x20\n        /* \"#utility.yul\":33126:33129   */\n      dup3\n        /* \"#utility.yul\":33122:33136   */\n      add\n        /* \"#utility.yul\":33114:33136   */\n      swap1\n      pop\n        /* \"#utility.yul\":32986:33143   */\n      swap2\n      swap1\n      pop\n      jump\t// out\n        /* \"#utility.yul\":33149:33288   */\n    tag_497:\n        /* \"#utility.yul\":33241:33247   */\n      0x00\n        /* \"#utility.yul\":33275:33280   */\n      dup2\n        /* \"#utility.yul\":33269:33281   */\n      mload\n        /* \"#utility.yul\":33259:33281   */\n      swap1\n      pop\n        /* \"#utility.yul\":33149:33288   */\n      swap2\n      swap1\n      pop\n      jump\t// out\n        /* \"#utility.yul\":33294:33432   */\n    tag_507:\n        /* \"#utility.yul\":33389:33393   */\n      0x00\n        /* \"#utility.yul\":33421:33425   */\n      0x20\n        /* \"#utility.yul\":33416:33419   */\n      dup3\n        /* \"#utility.yul\":33412:33426   */\n      add\n        /* \"#utility.yul\":33404:33426   */\n      swap1\n      pop\n        /* \"#utility.yul\":33294:33432   */\n      swap2\n      swap1\n      pop\n      jump\t// out\n        /* \"#utility.yul\":33438:33647   */\n    tag_499:\n        /* \"#utility.yul\":33562:33573   */\n      0x00\n        /* \"#utility.yul\":33596:33602   */\n      dup3\n        /* \"#utility.yul\":33591:33594   */\n      dup3\n        /* \"#utility.yul\":33584:33603   */\n      mstore\n        /* \"#utility.yul\":33636:33640   */\n      0x20\n        /* \"#utility.yul\":33631:33634   */\n      dup3\n        /* \"#utility.yul\":33627:33641   */\n      add\n        /* \"#utility.yul\":33612:33641   */\n      swap1\n      pop\n        /* \"#utility.yul\":33438:33647   */\n      swap3\n      swap2\n      pop\n      pop\n      jump\t// out\n        /* \"#utility.yul\":33653:33800   */\n    tag_585:\n        /* \"#utility.yul\":33754:33765   */\n      0x00\n        /* \"#utility.yul\":33791:33794   */\n      dup2\n        /* \"#utility.yul\":33776:33794   */\n      swap1\n      pop\n        /* \"#utility.yul\":33653:33800   */\n      swap3\n      swap2\n      pop\n      pop\n      jump\t// out\n        /* \"#utility.yul\":33806:33975   */\n    tag_519:\n        /* \"#utility.yul\":33890:33901   */\n      0x00\n        /* \"#utility.yul\":33924:33930   */\n      dup3\n        /* \"#utility.yul\":33919:33922   */\n      dup3\n        /* \"#utility.yul\":33912:33931   */\n      mstore\n        /* \"#utility.yul\":33964:33968   */\n      0x20\n        /* \"#utility.yul\":33959:33962   */\n      dup3\n        /* \"#utility.yul\":33955:33969   */\n      add\n        /* \"#utility.yul\":33940:33969   */\n      swap1\n      pop\n        /* \"#utility.yul\":33806:33975   */\n      swap3\n      swap2\n      pop\n      pop\n      jump\t// out\n        /* \"#utility.yul\":33981:34286   */\n    tag_356:\n        /* \"#utility.yul\":34021:34024   */\n      0x00\n        /* \"#utility.yul\":34040:34060   */\n      tag_732\n        /* \"#utility.yul\":34058:34059   */\n      dup3\n        /* \"#utility.yul\":34040:34060   */\n      tag_624\n      jump\t// in\n    tag_732:\n        /* \"#utility.yul\":34035:34060   */\n      swap2\n      pop\n        /* \"#utility.yul\":34074:34094   */\n      tag_733\n        /* \"#utility.yul\":34092:34093   */\n      dup4\n        /* \"#utility.yul\":34074:34094   */\n      tag_624\n      jump\t// in\n    tag_733:\n        /* \"#utility.yul\":34069:34094   */\n      swap3\n      pop\n        /* \"#utility.yul\":34228:34229   */\n      dup3\n        /* \"#utility.yul\":34160:34226   */\n      0xffffffffffffffffffffffffffffffffffffffffffffffffffffffffffffffff\n        /* \"#utility.yul\":34156:34230   */\n      sub\n        /* \"#utility.yul\":34153:34154   */\n      dup3\n        /* \"#utility.yul\":34150:34231   */\n      gt\n        /* \"#utility.yul\":34147:34254   */\n      iszero\n      tag_734\n      jumpi\n        /* \"#utility.yul\":34234:34252   */\n      tag_735\n      tag_736\n      jump\t// in\n    tag_735:\n        /* \"#utility.yul\":34147:34254   */\n    tag_734:\n        /* \"#utility.yul\":34278:34279   */\n      dup3\n        /* \"#utility.yul\":34275:34276   */\n      dup3\n        /* \"#utility.yul\":34271:34280   */\n      add\n        /* \"#utility.yul\":34264:34280   */\n      swap1\n      pop\n        /* \"#utility.yul\":33981:34286   */\n      swap3\n      swap2\n      pop\n      pop\n      jump\t// out\n        /* \"#utility.yul\":34292:34388   */\n    tag_490:\n        /* \"#utility.yul\":34329:34336   */\n      0x00\n        /* \"#utility.yul\":34358:34382   */\n      tag_738\n        /* \"#utility.yul\":34376:34381   */\n      dup3\n        /* \"#utility.yul\":34358:34382   */\n      tag_739\n      jump\t// in\n    tag_738:\n        /* \"#utility.yul\":34347:34382   */\n      swap1\n      pop\n        /* \"#utility.yul\":34292:34388   */\n      swap2\n      swap1\n      pop\n      jump\t// out\n        /* \"#utility.yul\":34394:34484   */\n    tag_511:\n        /* \"#utility.yul\":34428:34435   */\n      0x00\n        /* \"#utility.yul\":34471:34476   */\n      dup2\n        /* \"#utility.yul\":34464:34477   */\n      iszero\n        /* \"#utility.yul\":34457:34478   */\n      iszero\n        /* \"#utility.yul\":34446:34478   */\n      swap1\n      pop\n        /* \"#utility.yul\":34394:34484   */\n      swap2\n      swap1\n      pop\n      jump\t// out\n        /* \"#utility.yul\":34490:34639   */\n    tag_515:\n        /* \"#utility.yul\":34526:34533   */\n      0x00\n        /* \"#utility.yul\":34566:34632   */\n      0xffffffff00000000000000000000000000000000000000000000000000000000\n        /* \"#utility.yul\":34559:34564   */\n      dup3\n        /* \"#utility.yul\":34555:34633   */\n      and\n        /* \"#utility.yul\":34544:34633   */\n      swap1\n      pop\n        /* \"#utility.yul\":34490:34639   */\n      swap2\n      swap1\n      pop\n      jump\t// out\n        /* \"#utility.yul\":34645:34771   */\n    tag_739:\n        /* \"#utility.yul\":34682:34689   */\n      0x00\n        /* \"#utility.yul\":34722:34764   */\n      0xffffffffffffffffffffffffffffffffffffffff\n        /* \"#utility.yul\":34715:34720   */\n      dup3\n        /* \"#utility.yul\":34711:34765   */\n      and\n        /* \"#utility.yul\":34700:34765   */\n      swap1\n      pop\n        /* \"#utility.yul\":34645:34771   */\n      swap2\n      swap1\n      pop\n      jump\t// out\n        /* \"#utility.yul\":34777:34854   */\n    tag_624:\n        /* \"#utility.yul\":34814:34821   */\n      0x00\n        /* \"#utility.yul\":34843:34848   */\n      dup2\n        /* \"#utility.yul\":34832:34848   */\n      swap1\n      pop\n        /* \"#utility.yul\":34777:34854   */\n      swap2\n      swap1\n      pop\n      jump\t// out\n        /* \"#utility.yul\":34860:35040   */\n    tag_736:\n        /* \"#utility.yul\":34908:34985   */\n      0x4e487b7100000000000000000000000000000000000000000000000000000000\n        /* \"#utility.yul\":34905:34906   */\n      0x00\n        /* \"#utility.yul\":34898:34986   */\n      mstore\n        /* \"#utility.yul\":35005:35009   */\n      0x11\n        /* \"#utility.yul\":35002:35003   */\n      0x04\n        /* \"#utility.yul\":34995:35010   */\n      mstore\n        /* \"#utility.yul\":35029:35033   */\n      0x24\n        /* \"#utility.yul\":35026:35027   */\n      0x00\n        /* \"#utility.yul\":35019:35034   */\n      revert\n        /* \"#utility.yul\":35046:35226   */\n    tag_297:\n        /* \"#utility.yul\":35094:35171   */\n      0x4e487b7100000000000000000000000000000000000000000000000000000000\n        /* \"#utility.yul\":35091:35092   */\n      0x00\n        /* \"#utility.yul\":35084:35172   */\n      mstore\n        /* \"#utility.yul\":35191:35195   */\n      0x32\n        /* \"#utility.yul\":35188:35189   */\n      0x04\n        /* \"#utility.yul\":35181:35196   */\n      mstore\n        /* \"#utility.yul\":35215:35219   */\n      0x24\n        /* \"#utility.yul\":35212:35213   */\n      0x00\n        /* \"#utility.yul\":35205:35220   */\n      revert\n        /* \"#utility.yul\":35232:35349   */\n    tag_417:\n        /* \"#utility.yul\":35341:35342   */\n      0x00\n        /* \"#utility.yul\":35338:35339   */\n      dup1\n        /* \"#utility.yul\":35331:35343   */\n      revert\n        /* \"#utility.yul\":35355:35472   */\n    tag_414:\n        /* \"#utility.yul\":35464:35465   */\n      0x00\n        /* \"#utility.yul\":35461:35462   */\n      dup1\n        /* \"#utility.yul\":35454:35466   */\n      revert\n        /* \"#utility.yul\":35478:35595   */\n    tag_420:\n        /* \"#utility.yul\":35587:35588   */\n      0x00\n        /* \"#utility.yul\":35584:35585   */\n      dup1\n        /* \"#utility.yul\":35577:35589   */\n      revert\n        /* \"#utility.yul\":35601:35718   */\n    tag_444:\n        /* \"#utility.yul\":35710:35711   */\n      0x00\n        /* \"#utility.yul\":35707:35708   */\n      dup1\n        /* \"#utility.yul\":35700:35712   */\n      revert\n        /* \"#utility.yul\":35724:35841   */\n    tag_428:\n        /* \"#utility.yul\":35833:35834   */\n      0x00\n        /* \"#utility.yul\":35830:35831   */\n      dup1\n        /* \"#utility.yul\":35823:35835   */\n      revert\n        /* \"#utility.yul\":35847:36019   */\n    tag_521:\n        /* \"#utility.yul\":35987:36011   */\n      0x596f752061726520686967686573742062696464657200000000000000000000\n        /* \"#utility.yul\":35983:35984   */\n      0x00\n        /* \"#utility.yul\":35975:35981   */\n      dup3\n        /* \"#utility.yul\":35971:35985   */\n      add\n        /* \"#utility.yul\":35964:36012   */\n      mstore\n        /* \"#utility.yul\":35847:36019   */\n      pop\n      jump\t// out\n        /* \"#utility.yul\":36025:36203   */\n    tag_526:\n        /* \"#utility.yul\":36165:36195   */\n      0x4e6674206e6f7420617070726f76656420746f20636f6e747261637400000000\n        /* \"#utility.yul\":36161:36162   */\n      0x00\n        /* \"#utility.yul\":36153:36159   */\n      dup3\n        /* \"#utility.yul\":36149:36163   */\n      add\n        /* \"#utility.yul\":36142:36196   */\n      mstore\n        /* \"#utility.yul\":36025:36203   */\n      pop\n      jump\t// out\n        /* \"#utility.yul\":36209:36376   */\n    tag_531:\n        /* \"#utility.yul\":36349:36368   */\n      0x50726963652063616e6e6f742062652030000000000000000000000000000000\n        /* \"#utility.yul\":36345:36346   */\n      0x00\n        /* \"#utility.yul\":36337:36343   */\n      dup3\n        /* \"#utility.yul\":36333:36347   */\n      add\n        /* \"#utility.yul\":36326:36369   */\n      mstore\n        /* \"#utility.yul\":36209:36376   */\n      pop\n      jump\t// out\n        /* \"#utility.yul\":36382:36545   */\n    tag_536:\n        /* \"#utility.yul\":36522:36537   */\n      0x6e6f74206e6674206f776e657200000000000000000000000000000000000000\n        /* \"#utility.yul\":36518:36519   */\n      0x00\n        /* \"#utility.yul\":36510:36516   */\n      dup3\n        /* \"#utility.yul\":36506:36520   */\n      add\n        /* \"#utility.yul\":36499:36538   */\n      mstore\n        /* \"#utility.yul\":36382:36545   */\n      pop\n      jump\t// out\n        /* \"#utility.yul\":36551:36722   */\n    tag_541:\n        /* \"#utility.yul\":36691:36714   */\n      0x4e6674206e6f7420696e2066697865642073616c650000000000000000000000\n        /* \"#utility.yul\":36687:36688   */\n      0x00\n        /* \"#utility.yul\":36679:36685   */\n      dup3\n        /* \"#utility.yul\":36675:36689   */\n      add\n        /* \"#utility.yul\":36668:36715   */\n      mstore\n        /* \"#utility.yul\":36551:36722   */\n      pop\n      jump\t// out\n        /* \"#utility.yul\":36728:36901   */\n    tag_546:\n        /* \"#utility.yul\":36868:36893   */\n      0x4e6674206e6f7420696e2061756374696f6e2073616c65000000000000000000\n        /* \"#utility.yul\":36864:36865   */\n      0x00\n        /* \"#utility.yul\":36856:36862   */\n      dup3\n        /* \"#utility.yul\":36852:36866   */\n      add\n        /* \"#utility.yul\":36845:36894   */\n      mstore\n        /* \"#utility.yul\":36728:36901   */\n      pop\n      jump\t// out\n        /* \"#utility.yul\":36907:37086   */\n    tag_551:\n        /* \"#utility.yul\":37047:37078   */\n      0x4269642047726561746572207468616e2050726576696f757320426964000000\n        /* \"#utility.yul\":37043:37044   */\n      0x00\n        /* \"#utility.yul\":37035:37041   */\n      dup3\n        /* \"#utility.yul\":37031:37045   */\n      add\n        /* \"#utility.yul\":37024:37079   */\n      mstore\n        /* \"#utility.yul\":36907:37086   */\n      pop\n      jump\t// out\n        /* \"#utility.yul\":37092:37253   */\n    tag_556:\n        /* \"#utility.yul\":37232:37245   */\n      0x41756374696f6e20656e64000000000000000000000000000000000000000000\n        /* \"#utility.yul\":37228:37229   */\n      0x00\n        /* \"#utility.yul\":37220:37226   */\n      dup3\n        /* \"#utility.yul\":37216:37230   */\n      add\n        /* \"#utility.yul\":37209:37246   */\n      mstore\n        /* \"#utility.yul\":37092:37253   */\n      pop\n      jump\t// out\n        /* \"#utility.yul\":37259:37428   */\n    tag_561:\n        /* \"#utility.yul\":37399:37420   */\n      0x4e667420616c726561647920696e2073616c6500000000000000000000000000\n        /* \"#utility.yul\":37395:37396   */\n      0x00\n        /* \"#utility.yul\":37387:37393   */\n      dup3\n        /* \"#utility.yul\":37383:37397   */\n      add\n        /* \"#utility.yul\":37376:37421   */\n      mstore\n        /* \"#utility.yul\":37259:37428   */\n      pop\n      jump\t// out\n        /* \"#utility.yul\":37434:37592   */\n    tag_566:\n        /* \"#utility.yul\":37574:37584   */\n      0x626964206d616b65000000000000000000000000000000000000000000000000\n        /* \"#utility.yul\":37570:37571   */\n      0x00\n        /* \"#utility.yul\":37562:37568   */\n      dup3\n        /* \"#utility.yul\":37558:37572   */\n      add\n        /* \"#utility.yul\":37551:37585   */\n      mstore\n        /* \"#utility.yul\":37434:37592   */\n      pop\n      jump\t// out\n        /* \"#utility.yul\":37598:37768   */\n    tag_571:\n        /* \"#utility.yul\":37738:37760   */\n      0x616c6c6f77616e6365206e6f7420656e6f756768000000000000000000000000\n        /* \"#utility.yul\":37734:37735   */\n      0x00\n        /* \"#utility.yul\":37726:37732   */\n      dup3\n        /* \"#utility.yul\":37722:37736   */\n      add\n        /* \"#utility.yul\":37715:37761   */\n      mstore\n        /* \"#utility.yul\":37598:37768   */\n      pop\n      jump\t// out\n        /* \"#utility.yul\":37774:37939   */\n    tag_576:\n        /* \"#utility.yul\":37914:37931   */\n      0x41756374696f6e206e6f7420656e640000000000000000000000000000000000\n        /* \"#utility.yul\":37910:37911   */\n      0x00\n        /* \"#utility.yul\":37902:37908   */\n      dup3\n        /* \"#utility.yul\":37898:37912   */\n      add\n        /* \"#utility.yul\":37891:37932   */\n      mstore\n        /* \"#utility.yul\":37774:37939   */\n      pop\n      jump\t// out\n        /* \"#utility.yul\":37945:38116   */\n    tag_581:\n        /* \"#utility.yul\":38085:38108   */\n      0x596f7520617265206e6f74206e6674206f776e65720000000000000000000000\n        /* \"#utility.yul\":38081:38082   */\n      0x00\n        /* \"#utility.yul\":38073:38079   */\n      dup3\n        /* \"#utility.yul\":38069:38083   */\n      add\n        /* \"#utility.yul\":38062:38109   */\n      mstore\n        /* \"#utility.yul\":37945:38116   */\n      pop\n      jump\t// out\n        /* \"#utility.yul\":38122:38236   */\n    tag_587:\n      pop\n      jump\t// out\n        /* \"#utility.yul\":38242:38411   */\n    tag_592:\n        /* \"#utility.yul\":38382:38403   */\n      0x6e6f7468696e6720746f20776974686472617700000000000000000000000000\n        /* \"#utility.yul\":38378:38379   */\n      0x00\n        /* \"#utility.yul\":38370:38376   */\n      dup3\n        /* \"#utility.yul\":38366:38380   */\n      add\n        /* \"#utility.yul\":38359:38404   */\n      mstore\n        /* \"#utility.yul\":38242:38411   */\n      pop\n      jump\t// out\n        /* \"#utility.yul\":38417:38587   */\n    tag_597:\n        /* \"#utility.yul\":38557:38579   */\n      0x627579205072696365206e6f7420656e6f756768000000000000000000000000\n        /* \"#utility.yul\":38553:38554   */\n      0x00\n        /* \"#utility.yul\":38545:38551   */\n      dup3\n        /* \"#utility.yul\":38541:38555   */\n      add\n        /* \"#utility.yul\":38534:38580   */\n      mstore\n        /* \"#utility.yul\":38417:38587   */\n      pop\n      jump\t// out\n        /* \"#utility.yul\":38593:38756   */\n    tag_602:\n        /* \"#utility.yul\":38733:38748   */\n      0x726566756e64206661696c656400000000000000000000000000000000000000\n        /* \"#utility.yul\":38729:38730   */\n      0x00\n        /* \"#utility.yul\":38721:38727   */\n      dup3\n        /* \"#utility.yul\":38717:38731   */\n      add\n        /* \"#utility.yul\":38710:38749   */\n      mstore\n        /* \"#utility.yul\":38593:38756   */\n      pop\n      jump\t// out\n        /* \"#utility.yul\":38762:38884   */\n    tag_402:\n        /* \"#utility.yul\":38835:38859   */\n      tag_769\n        /* \"#utility.yul\":38853:38858   */\n      dup2\n        /* \"#utility.yul\":38835:38859   */\n      tag_490\n      jump\t// in\n    tag_769:\n        /* \"#utility.yul\":38828:38833   */\n      dup2\n        /* \"#utility.yul\":38825:38860   */\n      eq\n        /* \"#utility.yul\":38815:38878   */\n      tag_770\n      jumpi\n        /* \"#utility.yul\":38874:38875   */\n      0x00\n        /* \"#utility.yul\":38871:38872   */\n      dup1\n        /* \"#utility.yul\":38864:38876   */\n      revert\n        /* \"#utility.yul\":38815:38878   */\n    tag_770:\n        /* \"#utility.yul\":38762:38884   */\n      pop\n      jump\t// out\n        /* \"#utility.yul\":38890:39006   */\n    tag_409:\n        /* \"#utility.yul\":38960:38981   */\n      tag_772\n        /* \"#utility.yul\":38975:38980   */\n      dup2\n        /* \"#utility.yul\":38960:38981   */\n      tag_511\n      jump\t// in\n    tag_772:\n        /* \"#utility.yul\":38953:38958   */\n      dup2\n        /* \"#utility.yul\":38950:38982   */\n      eq\n        /* \"#utility.yul\":38940:39000   */\n      tag_773\n      jumpi\n        /* \"#utility.yul\":38996:38997   */\n      0x00\n        /* \"#utility.yul\":38993:38994   */\n      dup1\n        /* \"#utility.yul\":38986:38998   */\n      revert\n        /* \"#utility.yul\":38940:39000   */\n    tag_773:\n        /* \"#utility.yul\":38890:39006   */\n      pop\n      jump\t// out\n        /* \"#utility.yul\":39012:39134   */\n    tag_424:\n        /* \"#utility.yul\":39085:39109   */\n      tag_775\n        /* \"#utility.yul\":39103:39108   */\n      dup2\n        /* \"#utility.yul\":39085:39109   */\n      tag_624\n      jump\t// in\n    tag_775:\n        /* \"#utility.yul\":39078:39083   */\n      dup2\n        /* \"#utility.yul\":39075:39110   */\n      eq\n        /* \"#utility.yul\":39065:39128   */\n      tag_776\n      jumpi\n        /* \"#utility.yul\":39124:39125   */\n      0x00\n        /* \"#utility.yul\":39121:39122   */\n      dup1\n        /* \"#utility.yul\":39114:39126   */\n      revert\n        /* \"#utility.yul\":39065:39128   */\n    tag_776:\n        /* \"#utility.yul\":39012:39134   */\n      pop\n      jump\t// out\n\n    auxdata: 0xa264697066735822122066b504b29ca0031427c02f76922158fe49d965a047f7b234cd0810388ec403cf64736f6c63430008070033\n}\n",
				"bytecode": {
					"linkReferences": {},
					"object": "608060405234801561001057600080fd5b506150bd806100206000396000f3fe60806040526004361061010c5760003560e01c80636f8c9b1b116100955780638c3417da116100645780638c3417da1461038b5780639f085a00146103c8578063baf4371e146103f3578063cf42b7e61461040f578063d3a6a6c91461043857610113565b80636f8c9b1b146102ab5780636fe02f24146102e85780637ad47a2114610325578063842bc46a1461036257610113565b80634676adca116100dc5780634676adca146101ca5780634cb8ef5b146101f35780635138b08c1461021c5780636916462f1461024557806369a6d12e1461028257610113565b8062e2097c14610118578063150b7a02146101555780631bdae6f1146101925780633a713db8146101ae57610113565b3661011357005b600080fd5b34801561012457600080fd5b5061013f600480360381019061013a9190613fa0565b610461565b60405161014c9190614992565b60405180910390f35b34801561016157600080fd5b5061017c60048036038101906101779190613ff3565b610517565b60405161018991906149ad565b60405180910390f35b6101ac60048036038101906101a79190614202565b61052c565b005b6101c860048036038101906101c39190614202565b610b63565b005b3480156101d657600080fd5b506101f160048036038101906101ec9190614202565b6112fc565b005b3480156101ff57600080fd5b5061021a6004803603810190610215919061416f565b611553565b005b34801561022857600080fd5b50610243600480360381019061023e919061416f565b611870565b005b34801561025157600080fd5b5061026c6004803603810190610267919061416f565b611c13565b6040516102799190614bfe565b60405180910390f35b34801561028e57600080fd5b506102a960048036038101906102a4919061407b565b611c38565b005b3480156102b757600080fd5b506102d260048036038101906102cd919061416f565b612280565b6040516102df9190614bc8565b60405180910390f35b3480156102f457600080fd5b5061030f600480360381019061030a91906141af565b612415565b60405161031c9190614bfe565b60405180910390f35b34801561033157600080fd5b5061034c60048036038101906103479190613fa0565b612447565b6040516103599190614992565b60405180910390f35b34801561036e57600080fd5b506103896004803603810190610384919061416f565b6124fd565b005b34801561039757600080fd5b506103b260048036038101906103ad919061416f565b6128fb565b6040516103bf9190614be3565b60405180910390f35b3480156103d457600080fd5b506103dd612a71565b6040516103ea9190614970565b60405180910390f35b61040d60048036038101906104089190614202565b612b30565b005b34801561041b57600080fd5b50610436600480360381019061043191906140e2565b613024565b005b34801561044457600080fd5b5061045f600480360381019061045a919061416f565b613321565b005b6000808490508073ffffffffffffffffffffffffffffffffffffffff166323b872dd732258c5b9c82ff0fa923756ed3fd2acb5616df57c86866040518463ffffffff1660e01b81526004016104b8939291906147c5565b602060405180830381600087803b1580156104d257600080fd5b505af11580156104e6573d6000803e3d6000fd5b505050506040513d601f19601f8201168201806040525081019061050a9190614255565b5060019150509392505050565b600063150b7a0260e01b905095945050505050565b828260028060008473ffffffffffffffffffffffffffffffffffffffff1673ffffffffffffffffffffffffffffffffffffffff168152602001908152602001600020600083815260200190815260200160002054146105c0576040517f08c379a00000000000000000000000000000000000000000000000000000000081526004016105b790614a68565b60405180910390fd5b8484600160008373ffffffffffffffffffffffffffffffffffffffff1673ffffffffffffffffffffffffffffffffffffffff1681526020019081526020016000206000828152602001908152602001600020600101544210610657576040517f08c379a000000000000000000000000000000000000000000000000000000000815260040161064e90614aa8565b60405180910390fd5b846000811161069b576040517f08c379a000000000000000000000000000000000000000000000000000000000815260040161069290614a08565b60405180910390fd5b87873488600073ffffffffffffffffffffffffffffffffffffffff16600160008673ffffffffffffffffffffffffffffffffffffffff1673ffffffffffffffffffffffffffffffffffffffff168152602001908152602001600020600085815260200190815260200160002060060160009054906101000a900473ffffffffffffffffffffffffffffffffffffffff1673ffffffffffffffffffffffffffffffffffffffff1614156107e157600160008573ffffffffffffffffffffffffffffffffffffffff1673ffffffffffffffffffffffffffffffffffffffff16815260200190815260200160002060008481526020019081526020016000206003015482116107dc576040517f08c379a00000000000000000000000000000000000000000000000000000000081526004016107d390614a88565b60405180910390fd5b610877565b600160008573ffffffffffffffffffffffffffffffffffffffff1673ffffffffffffffffffffffffffffffffffffffff1681526020019081526020016000206000848152602001908152602001600020600301548111610876576040517f08c379a000000000000000000000000000000000000000000000000000000000815260040161086d90614a88565b60405180910390fd5b5b600073ffffffffffffffffffffffffffffffffffffffff16600160008e73ffffffffffffffffffffffffffffffffffffffff1673ffffffffffffffffffffffffffffffffffffffff16815260200190815260200160002060008d815260200190815260200160002060060160009054906101000a900473ffffffffffffffffffffffffffffffffffffffff1673ffffffffffffffffffffffffffffffffffffffff161461099c5761099b8a600160008f73ffffffffffffffffffffffffffffffffffffffff1673ffffffffffffffffffffffffffffffffffffffff16815260200190815260200160002060008e815260200190815260200160002060060160009054906101000a900473ffffffffffffffffffffffffffffffffffffffff16613644565b5b89600160008e73ffffffffffffffffffffffffffffffffffffffff1673ffffffffffffffffffffffffffffffffffffffff16815260200190815260200160002060008d81526020019081526020016000206003018190555033600160008e73ffffffffffffffffffffffffffffffffffffffff1673ffffffffffffffffffffffffffffffffffffffff16815260200190815260200160002060008d815260200190815260200160002060040160006101000a81548173ffffffffffffffffffffffffffffffffffffffff021916908373ffffffffffffffffffffffffffffffffffffffff16021790555089600360008e73ffffffffffffffffffffffffffffffffffffffff1673ffffffffffffffffffffffffffffffffffffffff16815260200190815260200160002060008d815260200190815260200160002060003373ffffffffffffffffffffffffffffffffffffffff1673ffffffffffffffffffffffffffffffffffffffff168152602001908152602001600020819055507fd56cb6210c78740462007b728932c802bc41b205ed5c8a98ab95421eaf054b228c8c8c33604051610b4d949392919061492b565b60405180910390a1505050505050505050505050565b828260028060008473ffffffffffffffffffffffffffffffffffffffff1673ffffffffffffffffffffffffffffffffffffffff16815260200190815260200160002060008381526020019081526020016000205414610bf7576040517f08c379a0000000000000000000000000000000000000000000000000000000008152600401610bee90614a68565b60405180910390fd5b8484600160008373ffffffffffffffffffffffffffffffffffffffff1673ffffffffffffffffffffffffffffffffffffffff1681526020019081526020016000206000828152602001908152602001600020600101544210610c8e576040517f08c379a0000000000000000000000000000000000000000000000000000000008152600401610c8590614aa8565b60405180910390fd5b3460008111610cd2576040517f08c379a0000000000000000000000000000000000000000000000000000000008152600401610cc990614a08565b60405180910390fd5b8787348860008073ffffffffffffffffffffffffffffffffffffffff16600160008773ffffffffffffffffffffffffffffffffffffffff1673ffffffffffffffffffffffffffffffffffffffff168152602001908152602001600020600086815260200190815260200160002060060160009054906101000a900473ffffffffffffffffffffffffffffffffffffffff1673ffffffffffffffffffffffffffffffffffffffff161415610e2657610e1f83600360008873ffffffffffffffffffffffffffffffffffffffff1673ffffffffffffffffffffffffffffffffffffffff168152602001908152602001600020600087815260200190815260200160002060003373ffffffffffffffffffffffffffffffffffffffff1673ffffffffffffffffffffffffffffffffffffffff1681526020019081526020016000205461371690919063ffffffff16565b9050610ec9565b610ec682600360008873ffffffffffffffffffffffffffffffffffffffff1673ffffffffffffffffffffffffffffffffffffffff168152602001908152602001600020600087815260200190815260200160002060003373ffffffffffffffffffffffffffffffffffffffff1673ffffffffffffffffffffffffffffffffffffffff1681526020019081526020016000205461371690919063ffffffff16565b90505b600160008673ffffffffffffffffffffffffffffffffffffffff1673ffffffffffffffffffffffffffffffffffffffff1681526020019081526020016000206000858152602001908152602001600020600301548111610f5e576040517f08c379a0000000000000000000000000000000000000000000000000000000008152600401610f5590614a88565b60405180910390fd5b60008d905060008d9050600061100a8e600360008673ffffffffffffffffffffffffffffffffffffffff1673ffffffffffffffffffffffffffffffffffffffff168152602001908152602001600020600085815260200190815260200160002060003373ffffffffffffffffffffffffffffffffffffffff1673ffffffffffffffffffffffffffffffffffffffff1681526020019081526020016000205461371690919063ffffffff16565b9050600073ffffffffffffffffffffffffffffffffffffffff16600160008573ffffffffffffffffffffffffffffffffffffffff1673ffffffffffffffffffffffffffffffffffffffff168152602001908152602001600020600084815260200190815260200160002060060160009054906101000a900473ffffffffffffffffffffffffffffffffffffffff1673ffffffffffffffffffffffffffffffffffffffff1614611131576111308e600160008673ffffffffffffffffffffffffffffffffffffffff1673ffffffffffffffffffffffffffffffffffffffff168152602001908152602001600020600085815260200190815260200160002060060160009054906101000a900473ffffffffffffffffffffffffffffffffffffffff16613644565b5b80600160008573ffffffffffffffffffffffffffffffffffffffff1673ffffffffffffffffffffffffffffffffffffffff16815260200190815260200160002060008481526020019081526020016000206003018190555033600160008573ffffffffffffffffffffffffffffffffffffffff1673ffffffffffffffffffffffffffffffffffffffff168152602001908152602001600020600084815260200190815260200160002060040160006101000a81548173ffffffffffffffffffffffffffffffffffffffff021916908373ffffffffffffffffffffffffffffffffffffffff16021790555080600360008573ffffffffffffffffffffffffffffffffffffffff1673ffffffffffffffffffffffffffffffffffffffff168152602001908152602001600020600084815260200190815260200160002060003373ffffffffffffffffffffffffffffffffffffffff1673ffffffffffffffffffffffffffffffffffffffff168152602001908152602001600020819055507f907cdadc7c1a8abcdd80cdd85eb18377631e4f413fb6397a8252ff7b358ac6cb838383336040516112e2949392919061492b565b60405180910390a150505050505050505050505050505050565b82826001600260008473ffffffffffffffffffffffffffffffffffffffff1673ffffffffffffffffffffffffffffffffffffffff16815260200190815260200160002060008381526020019081526020016000205414611391576040517f08c379a000000000000000000000000000000000000000000000000000000000815260040161138890614a48565b60405180910390fd5b84846000808373ffffffffffffffffffffffffffffffffffffffff1673ffffffffffffffffffffffffffffffffffffffff168152602001908152602001600020600082815260200190815260200160002060000160009054906101000a900473ffffffffffffffffffffffffffffffffffffffff1673ffffffffffffffffffffffffffffffffffffffff163373ffffffffffffffffffffffffffffffffffffffff1614611473576040517f08c379a000000000000000000000000000000000000000000000000000000000815260040161146a90614b48565b60405180910390fd5b84600081116114b7576040517f08c379a00000000000000000000000000000000000000000000000000000000081526004016114ae90614a08565b60405180910390fd5b856000808a73ffffffffffffffffffffffffffffffffffffffff1673ffffffffffffffffffffffffffffffffffffffff1681526020019081526020016000206000898152602001908152602001600020600301819055507f575a0876095ccf47276a37dce683308a625403d132d219f95205ce205b2e12bc888888604051611541939291906148f4565b60405180910390a15050505050505050565b8181600160008373ffffffffffffffffffffffffffffffffffffffff1673ffffffffffffffffffffffffffffffffffffffff16815260200190815260200160002060008281526020019081526020016000206001015442116115ea576040517f08c379a00000000000000000000000000000000000000000000000000000000081526004016115e190614b28565b60405180910390fd5b600160008573ffffffffffffffffffffffffffffffffffffffff1673ffffffffffffffffffffffffffffffffffffffff168152602001908152602001600020600084815260200190815260200160002060040160009054906101000a900473ffffffffffffffffffffffffffffffffffffffff1673ffffffffffffffffffffffffffffffffffffffff163373ffffffffffffffffffffffffffffffffffffffff1614156116cc576040517f08c379a00000000000000000000000000000000000000000000000000000000081526004016116c3906149c8565b60405180910390fd5b6000600360008673ffffffffffffffffffffffffffffffffffffffff1673ffffffffffffffffffffffffffffffffffffffff168152602001908152602001600020600085815260200190815260200160002060003373ffffffffffffffffffffffffffffffffffffffff1673ffffffffffffffffffffffffffffffffffffffff168152602001908152602001600020541161179c576040517f08c379a000000000000000000000000000000000000000000000000000000000815260040161179390614b68565b60405180910390fd5b6000600360008673ffffffffffffffffffffffffffffffffffffffff1673ffffffffffffffffffffffffffffffffffffffff168152602001908152602001600020600085815260200190815260200160002060003373ffffffffffffffffffffffffffffffffffffffff1673ffffffffffffffffffffffffffffffffffffffff168152602001908152602001600020819055507fde8cb9aa2c755cf75d5fbc4fec824b10e311652306f1fca5c8e57a04758b0aa78484336040516118629392919061486a565b60405180910390a150505050565b818160028060008473ffffffffffffffffffffffffffffffffffffffff1673ffffffffffffffffffffffffffffffffffffffff16815260200190815260200160002060008381526020019081526020016000205414611904576040517f08c379a00000000000000000000000000000000000000000000000000000000081526004016118fb90614a68565b60405180910390fd5b8383600160008373ffffffffffffffffffffffffffffffffffffffff1673ffffffffffffffffffffffffffffffffffffffff168152602001908152602001600020600082815260200190815260200160002060010154421161199b576040517f08c379a000000000000000000000000000000000000000000000000000000000815260040161199290614b28565b60405180910390fd5b6000600160008873ffffffffffffffffffffffffffffffffffffffff1673ffffffffffffffffffffffffffffffffffffffff168152602001908152602001600020600087815260200190815260200160002060040160009054906101000a900473ffffffffffffffffffffffffffffffffffffffff169050611a728787600160008b73ffffffffffffffffffffffffffffffffffffffff1673ffffffffffffffffffffffffffffffffffffffff16815260200190815260200160002060008a8152602001908152602001600020600301548461372c565b6000600360008973ffffffffffffffffffffffffffffffffffffffff1673ffffffffffffffffffffffffffffffffffffffff168152602001908152602001600020600088815260200190815260200160002060008373ffffffffffffffffffffffffffffffffffffffff1673ffffffffffffffffffffffffffffffffffffffff168152602001908152602001600020819055507fb31cb4f6609b11a57d1b6b14cc3f81f4b3e609f709a5b1e46892a45f9cc29ed8878783600160008c73ffffffffffffffffffffffffffffffffffffffff1673ffffffffffffffffffffffffffffffffffffffff16815260200190815260200160002060008b815260200190815260200160002060030154600160008d73ffffffffffffffffffffffffffffffffffffffff1673ffffffffffffffffffffffffffffffffffffffff16815260200190815260200160002060008c815260200190815260200160002060050160009054906101000a900473ffffffffffffffffffffffffffffffffffffffff16604051611c029594939291906148a1565b60405180910390a150505050505050565b6002602052816000526040600020602052806000526040600020600091509150505481565b83828173ffffffffffffffffffffffffffffffffffffffff16636352211e826040518263ffffffff1660e01b8152600401611c739190614bfe565b60206040518083038186803b158015611c8b57600080fd5b505afa158015611c9f573d6000803e3d6000fd5b505050506040513d601f19601f82011682018060405250810190611cc39190613f73565b73ffffffffffffffffffffffffffffffffffffffff163373ffffffffffffffffffffffffffffffffffffffff1614611d30576040517f08c379a0000000000000000000000000000000000000000000000000000000008152600401611d2790614b48565b60405180910390fd5b85846000600260008473ffffffffffffffffffffffffffffffffffffffff1673ffffffffffffffffffffffffffffffffffffffff16815260200190815260200160002060008381526020019081526020016000205414611dc5576040517f08c379a0000000000000000000000000000000000000000000000000000000008152600401611dbc90614ac8565b60405180910390fd5b87868173ffffffffffffffffffffffffffffffffffffffff1663e985e9c533306040518363ffffffff1660e01b8152600401611e029291906146cc565b60206040518083038186803b158015611e1a57600080fd5b505afa158015611e2e573d6000803e3d6000fd5b505050506040513d601f19601f82011682018060405250810190611e529190614255565b611e91576040517f08c379a0000000000000000000000000000000000000000000000000000000008152600401611e88906149e8565b60405180910390fd5b8660008111611ed5576040517f08c379a0000000000000000000000000000000000000000000000000000000008152600401611ecc90614a08565b60405180910390fd5b60405180608001604052803373ffffffffffffffffffffffffffffffffffffffff168152602001600073ffffffffffffffffffffffffffffffffffffffff1681526020018b73ffffffffffffffffffffffffffffffffffffffff168152602001898152506000808d73ffffffffffffffffffffffffffffffffffffffff1673ffffffffffffffffffffffffffffffffffffffff16815260200190815260200160002060008b815260200190815260200160002060008201518160000160006101000a81548173ffffffffffffffffffffffffffffffffffffffff021916908373ffffffffffffffffffffffffffffffffffffffff16021790555060208201518160010160006101000a81548173ffffffffffffffffffffffffffffffffffffffff021916908373ffffffffffffffffffffffffffffffffffffffff16021790555060408201518160020160006101000a81548173ffffffffffffffffffffffffffffffffffffffff021916908373ffffffffffffffffffffffffffffffffffffffff160217905550606082015181600301559050506001600260008d73ffffffffffffffffffffffffffffffffffffffff1673ffffffffffffffffffffffffffffffffffffffff16815260200190815260200160002060008b815260200190815260200160002081905550600580549050600460008d73ffffffffffffffffffffffffffffffffffffffff1673ffffffffffffffffffffffffffffffffffffffff16815260200190815260200160002060008b815260200190815260200160002081905550600560405180604001604052808d73ffffffffffffffffffffffffffffffffffffffff1681526020018b815250908060018154018082558091505060019003906000526020600020906002020160009091909190915060008201518160000160006101000a81548173ffffffffffffffffffffffffffffffffffffffff021916908373ffffffffffffffffffffffffffffffffffffffff1602179055506020820151816001015550508a73ffffffffffffffffffffffffffffffffffffffff166342842e0e33308c6040518463ffffffff1660e01b8152600401612200939291906147c5565b600060405180830381600087803b15801561221a57600080fd5b505af115801561222e573d6000803e3d6000fd5b505050507f078eead3cd01ed921c7653d000a6b73aea643a7b9c066fb7d93eb2eae8acc2d98b338c8c8c4260405161226b969594939291906146f5565b60405180910390a15050505050505050505050565b612288613de0565b600160008473ffffffffffffffffffffffffffffffffffffffff1673ffffffffffffffffffffffffffffffffffffffff16815260200190815260200160002060008381526020019081526020016000206040518060e0016040529081600082015481526020016001820154815260200160028201548152602001600382015481526020016004820160009054906101000a900473ffffffffffffffffffffffffffffffffffffffff1673ffffffffffffffffffffffffffffffffffffffff1673ffffffffffffffffffffffffffffffffffffffff1681526020016005820160009054906101000a900473ffffffffffffffffffffffffffffffffffffffff1673ffffffffffffffffffffffffffffffffffffffff1673ffffffffffffffffffffffffffffffffffffffff1681526020016006820160009054906101000a900473ffffffffffffffffffffffffffffffffffffffff1673ffffffffffffffffffffffffffffffffffffffff1673ffffffffffffffffffffffffffffffffffffffff1681525050905092915050565b600360205282600052604060002060205281600052604060002060205280600052604060002060009250925050505481565b6000808490508073ffffffffffffffffffffffffffffffffffffffff166323b872dd85732258c5b9c82ff0fa923756ed3fd2acb5616df57c866040518463ffffffff1660e01b815260040161249e939291906147c5565b602060405180830381600087803b1580156124b857600080fd5b505af11580156124cc573d6000803e3d6000fd5b505050506040513d601f19601f820116820180604052508101906124f09190614255565b5060019150509392505050565b818160028060008473ffffffffffffffffffffffffffffffffffffffff1673ffffffffffffffffffffffffffffffffffffffff16815260200190815260200160002060008381526020019081526020016000205414612591576040517f08c379a000000000000000000000000000000000000000000000000000000000815260040161258890614a68565b60405180910390fd5b8383600160008373ffffffffffffffffffffffffffffffffffffffff1673ffffffffffffffffffffffffffffffffffffffff168152602001908152602001600020600082815260200190815260200160002060050160009054906101000a900473ffffffffffffffffffffffffffffffffffffffff1673ffffffffffffffffffffffffffffffffffffffff163373ffffffffffffffffffffffffffffffffffffffff1614612674576040517f08c379a000000000000000000000000000000000000000000000000000000000815260040161266b90614a28565b60405180910390fd5b8585600160008373ffffffffffffffffffffffffffffffffffffffff1673ffffffffffffffffffffffffffffffffffffffff168152602001908152602001600020600082815260200190815260200160002060010154421061270b576040517f08c379a000000000000000000000000000000000000000000000000000000000815260040161270290614aa8565b60405180910390fd5b8787600160008373ffffffffffffffffffffffffffffffffffffffff1673ffffffffffffffffffffffffffffffffffffffff168152602001908152602001600020600082815260200190815260200160002060040160009054906101000a900473ffffffffffffffffffffffffffffffffffffffff1673ffffffffffffffffffffffffffffffffffffffff16600073ffffffffffffffffffffffffffffffffffffffff16146127ef576040517f08c379a00000000000000000000000000000000000000000000000000000000081526004016127e690614ae8565b60405180910390fd5b6000600260008c73ffffffffffffffffffffffffffffffffffffffff1673ffffffffffffffffffffffffffffffffffffffff16815260200190815260200160002060008b8152602001908152602001600020819055508973ffffffffffffffffffffffffffffffffffffffff166342842e0e30338c6040518463ffffffff1660e01b8152600401612882939291906147c5565b600060405180830381600087803b15801561289c57600080fd5b505af11580156128b0573d6000803e3d6000fd5b505050507fb9d411977d4ee731f87bb8f16eb6f8c1fb579cff684642052bf6084e6e33238d8a8a336040516128e79392919061486a565b60405180910390a150505050505050505050565b612903613e5f565b6000808473ffffffffffffffffffffffffffffffffffffffff1673ffffffffffffffffffffffffffffffffffffffff16815260200190815260200160002060008381526020019081526020016000206040518060800160405290816000820160009054906101000a900473ffffffffffffffffffffffffffffffffffffffff1673ffffffffffffffffffffffffffffffffffffffff1673ffffffffffffffffffffffffffffffffffffffff1681526020016001820160009054906101000a900473ffffffffffffffffffffffffffffffffffffffff1673ffffffffffffffffffffffffffffffffffffffff1673ffffffffffffffffffffffffffffffffffffffff1681526020016002820160009054906101000a900473ffffffffffffffffffffffffffffffffffffffff1673ffffffffffffffffffffffffffffffffffffffff1673ffffffffffffffffffffffffffffffffffffffff168152602001600382015481525050905092915050565b60606005805480602002602001604051908101604052809291908181526020016000905b82821015612b2757838290600052602060002090600202016040518060400160405290816000820160009054906101000a900473ffffffffffffffffffffffffffffffffffffffff1673ffffffffffffffffffffffffffffffffffffffff1673ffffffffffffffffffffffffffffffffffffffff16815260200160018201548152505081526020019060010190612a95565b50505050905090565b82826001600260008473ffffffffffffffffffffffffffffffffffffffff1673ffffffffffffffffffffffffffffffffffffffff16815260200190815260200160002060008381526020019081526020016000205414612bc5576040517f08c379a0000000000000000000000000000000000000000000000000000000008152600401612bbc90614a48565b60405180910390fd5b8260008111612c09576040517f08c379a0000000000000000000000000000000000000000000000000000000008152600401612c0090614a08565b60405180910390fd5b8585856000808473ffffffffffffffffffffffffffffffffffffffff1673ffffffffffffffffffffffffffffffffffffffff168152602001908152602001600020600083815260200190815260200160002060030154811015612ca1576040517f08c379a0000000000000000000000000000000000000000000000000000000008152600401612c9890614b88565b60405180910390fd5b8873ffffffffffffffffffffffffffffffffffffffff166342842e0e30338b6040518463ffffffff1660e01b8152600401612cde939291906147c5565b600060405180830381600087803b158015612cf857600080fd5b505af1158015612d0c573d6000803e3d6000fd5b505050506000600260008b73ffffffffffffffffffffffffffffffffffffffff1673ffffffffffffffffffffffffffffffffffffffff16815260200190815260200160002060008a8152602001908152602001600020819055506005600460008b73ffffffffffffffffffffffffffffffffffffffff1673ffffffffffffffffffffffffffffffffffffffff16815260200190815260200160002060008a81526020019081526020016000205481548110612dca57612dc9614d67565b5b9060005260206000209060020201600080820160006101000a81549073ffffffffffffffffffffffffffffffffffffffff021916905560018201600090555050336000808b73ffffffffffffffffffffffffffffffffffffffff1673ffffffffffffffffffffffffffffffffffffffff16815260200190815260200160002060008a815260200190815260200160002060010160006101000a81548173ffffffffffffffffffffffffffffffffffffffff021916908373ffffffffffffffffffffffffffffffffffffffff160217905550612fdc6000808b73ffffffffffffffffffffffffffffffffffffffff1673ffffffffffffffffffffffffffffffffffffffff16815260200190815260200160002060008a815260200190815260200160002060000160009054906101000a900473ffffffffffffffffffffffffffffffffffffffff166000808c73ffffffffffffffffffffffffffffffffffffffff1673ffffffffffffffffffffffffffffffffffffffff16815260200190815260200160002060008b815260200190815260200160002060020160009054906101000a900473ffffffffffffffffffffffffffffffffffffffff166000808d73ffffffffffffffffffffffffffffffffffffffff1673ffffffffffffffffffffffffffffffffffffffff16815260200190815260200160002060008c8152602001908152602001600020600301546138e8565b7f9fa3b1bb9266e05722b54a7a564d02a274bc80d39f4af21e6be405480996ceba89338a8a60405161301194939291906147fc565b60405180910390a1505050505050505050565b85848173ffffffffffffffffffffffffffffffffffffffff16636352211e826040518263ffffffff1660e01b815260040161305f9190614bfe565b60206040518083038186803b15801561307757600080fd5b505afa15801561308b573d6000803e3d6000fd5b505050506040513d601f19601f820116820180604052508101906130af9190613f73565b73ffffffffffffffffffffffffffffffffffffffff163373ffffffffffffffffffffffffffffffffffffffff161461311c576040517f08c379a000000000000000000000000000000000000000000000000000000000815260040161311390614b48565b60405180910390fd5b87866000600260008473ffffffffffffffffffffffffffffffffffffffff1673ffffffffffffffffffffffffffffffffffffffff168152602001908152602001600020600083815260200190815260200160002054146131b1576040517f08c379a00000000000000000000000000000000000000000000000000000000081526004016131a890614ac8565b60405180910390fd5b89888173ffffffffffffffffffffffffffffffffffffffff1663e985e9c533306040518363ffffffff1660e01b81526004016131ee9291906146cc565b60206040518083038186803b15801561320657600080fd5b505afa15801561321a573d6000803e3d6000fd5b505050506040513d601f19601f8201168201806040525081019061323e9190614255565b61327d576040517f08c379a0000000000000000000000000000000000000000000000000000000008152600401613274906149e8565b60405180910390fd5b86600081116132c1576040517f08c379a00000000000000000000000000000000000000000000000000000000081526004016132b890614a08565b60405180910390fd5b6132cf8d8d8d8d8d8d61393c565b7fecbc6a097da08dbf6f781ce204aad454ce3dc8f112c51c7a56f1671de89cee8c8d338e8e8e8e8e60405161330a9796959493929190614756565b60405180910390a150505050505050505050505050565b81816001600260008473ffffffffffffffffffffffffffffffffffffffff1673ffffffffffffffffffffffffffffffffffffffff168152602001908152602001600020600083815260200190815260200160002054146133b6576040517f08c379a00000000000000000000000000000000000000000000000000000000081526004016133ad90614a48565b60405180910390fd5b83836000808373ffffffffffffffffffffffffffffffffffffffff1673ffffffffffffffffffffffffffffffffffffffff168152602001908152602001600020600082815260200190815260200160002060000160009054906101000a900473ffffffffffffffffffffffffffffffffffffffff1673ffffffffffffffffffffffffffffffffffffffff163373ffffffffffffffffffffffffffffffffffffffff1614613498576040517f08c379a000000000000000000000000000000000000000000000000000000000815260040161348f90614b48565b60405180910390fd5b8573ffffffffffffffffffffffffffffffffffffffff166342842e0e3033886040518463ffffffff1660e01b81526004016134d5939291906147c5565b600060405180830381600087803b1580156134ef57600080fd5b505af1158015613503573d6000803e3d6000fd5b505050506000600260008873ffffffffffffffffffffffffffffffffffffffff1673ffffffffffffffffffffffffffffffffffffffff1681526020019081526020016000206000878152602001908152602001600020819055506005600460008873ffffffffffffffffffffffffffffffffffffffff1673ffffffffffffffffffffffffffffffffffffffff168152602001908152602001600020600087815260200190815260200160002054815481106135c1576135c0614d67565b5b9060005260206000209060020201600080820160006101000a81549073ffffffffffffffffffffffffffffffffffffffff0219169055600182016000905550507fd7348ff00cf381a884144b50b3441398a48a7974ec349287df80e18cec9f5a31863387604051613634939291906147c5565b60405180910390a1505050505050565b8073ffffffffffffffffffffffffffffffffffffffff166323b872dd3330856040518463ffffffff1660e01b8152600401613681939291906147c5565b602060405180830381600087803b15801561369b57600080fd5b505af11580156136af573d6000803e3d6000fd5b505050506040513d601f19601f820116820180604052508101906136d39190614255565b613712576040517f08c379a000000000000000000000000000000000000000000000000000000000815260040161370990614b08565b60405180910390fd5b5050565b600081836137249190614c6e565b905092915050565b8373ffffffffffffffffffffffffffffffffffffffff166342842e0e3083866040518463ffffffff1660e01b8152600401613769939291906147c5565b600060405180830381600087803b15801561378357600080fd5b505af1158015613797573d6000803e3d6000fd5b505050506000600260008673ffffffffffffffffffffffffffffffffffffffff1673ffffffffffffffffffffffffffffffffffffffff1681526020019081526020016000206000858152602001908152602001600020819055506138e2600160008673ffffffffffffffffffffffffffffffffffffffff1673ffffffffffffffffffffffffffffffffffffffff168152602001908152602001600020600085815260200190815260200160002060050160009054906101000a900473ffffffffffffffffffffffffffffffffffffffff16600160008773ffffffffffffffffffffffffffffffffffffffff1673ffffffffffffffffffffffffffffffffffffffff168152602001908152602001600020600086815260200190815260200160002060060160009054906101000a900473ffffffffffffffffffffffffffffffffffffffff16846138e8565b50505050565b600073ffffffffffffffffffffffffffffffffffffffff168273ffffffffffffffffffffffffffffffffffffffff161461392c57613927838383613bce565b613937565b6139368382613d2f565b5b505050565b6040518060e00160405280848152602001838152602001828152602001828152602001600073ffffffffffffffffffffffffffffffffffffffff1681526020013373ffffffffffffffffffffffffffffffffffffffff1681526020018673ffffffffffffffffffffffffffffffffffffffff16815250600160008873ffffffffffffffffffffffffffffffffffffffff1673ffffffffffffffffffffffffffffffffffffffff16815260200190815260200160002060008681526020019081526020016000206000820151816000015560208201518160010155604082015181600201556060820151816003015560808201518160040160006101000a81548173ffffffffffffffffffffffffffffffffffffffff021916908373ffffffffffffffffffffffffffffffffffffffff16021790555060a08201518160050160006101000a81548173ffffffffffffffffffffffffffffffffffffffff021916908373ffffffffffffffffffffffffffffffffffffffff16021790555060c08201518160060160006101000a81548173ffffffffffffffffffffffffffffffffffffffff021916908373ffffffffffffffffffffffffffffffffffffffff16021790555090505060028060008873ffffffffffffffffffffffffffffffffffffffff1673ffffffffffffffffffffffffffffffffffffffff1681526020019081526020016000206000868152602001908152602001600020819055508573ffffffffffffffffffffffffffffffffffffffff166342842e0e3330876040518463ffffffff1660e01b8152600401613b94939291906147c5565b600060405180830381600087803b158015613bae57600080fd5b505af1158015613bc2573d6000803e3d6000fd5b50505050505050505050565b8173ffffffffffffffffffffffffffffffffffffffff166323b872dd3330846040518463ffffffff1660e01b8152600401613c0b939291906147c5565b602060405180830381600087803b158015613c2557600080fd5b505af1158015613c39573d6000803e3d6000fd5b505050506040513d601f19601f82011682018060405250810190613c5d9190614255565b613c9c576040517f08c379a0000000000000000000000000000000000000000000000000000000008152600401613c9390614b08565b60405180910390fd5b8173ffffffffffffffffffffffffffffffffffffffff1663a9059cbb84836040518363ffffffff1660e01b8152600401613cd7929190614841565b602060405180830381600087803b158015613cf157600080fd5b505af1158015613d05573d6000803e3d6000fd5b505050506040513d601f19601f82011682018060405250810190613d299190614255565b50505050565b60008273ffffffffffffffffffffffffffffffffffffffff1682604051613d55906146b7565b60006040518083038185875af1925050503d8060008114613d92576040519150601f19603f3d011682016040523d82523d6000602084013e613d97565b606091505b5050905080613ddb576040517f08c379a0000000000000000000000000000000000000000000000000000000008152600401613dd290614ba8565b60405180910390fd5b505050565b6040518060e0016040528060008152602001600081526020016000815260200160008152602001600073ffffffffffffffffffffffffffffffffffffffff168152602001600073ffffffffffffffffffffffffffffffffffffffff168152602001600073ffffffffffffffffffffffffffffffffffffffff1681525090565b6040518060800160405280600073ffffffffffffffffffffffffffffffffffffffff168152602001600073ffffffffffffffffffffffffffffffffffffffff168152602001600073ffffffffffffffffffffffffffffffffffffffff168152602001600081525090565b600081359050613ed881615042565b92915050565b600081519050613eed81615042565b92915050565b600081519050613f0281615059565b92915050565b60008083601f840112613f1e57613f1d614d9b565b5b8235905067ffffffffffffffff811115613f3b57613f3a614d96565b5b602083019150836001820283011115613f5757613f56614da0565b5b9250929050565b600081359050613f6d81615070565b92915050565b600060208284031215613f8957613f88614daa565b5b6000613f9784828501613ede565b91505092915050565b600080600060608486031215613fb957613fb8614daa565b5b6000613fc786828701613ec9565b9350506020613fd886828701613ec9565b9250506040613fe986828701613f5e565b9150509250925092565b60008060008060006080868803121561400f5761400e614daa565b5b600061401d88828901613ec9565b955050602061402e88828901613ec9565b945050604061403f88828901613f5e565b935050606086013567ffffffffffffffff8111156140605761405f614da5565b5b61406c88828901613f08565b92509250509295509295909350565b6000806000806080858703121561409557614094614daa565b5b60006140a387828801613ec9565b94505060206140b487828801613ec9565b93505060406140c587828801613f5e565b92505060606140d687828801613f5e565b91505092959194509250565b60008060008060008060c087890312156140ff576140fe614daa565b5b600061410d89828a01613ec9565b965050602061411e89828a01613ec9565b955050604061412f89828a01613f5e565b945050606061414089828a01613f5e565b935050608061415189828a01613f5e565b92505060a061416289828a01613f5e565b9150509295509295509295565b6000806040838503121561418657614185614daa565b5b600061419485828601613ec9565b92505060206141a585828601613f5e565b9150509250929050565b6000806000606084860312156141c8576141c7614daa565b5b60006141d686828701613ec9565b93505060206141e786828701613f5e565b92505060406141f886828701613ec9565b9150509250925092565b60008060006060848603121561421b5761421a614daa565b5b600061422986828701613ec9565b935050602061423a86828701613f5e565b925050604061424b86828701613f5e565b9150509250925092565b60006020828403121561426b5761426a614daa565b5b600061427984828501613ef3565b91505092915050565b600061428e838361466a565b60408301905092915050565b6142a381614cc4565b82525050565b6142b281614cc4565b82525050565b60006142c382614c29565b6142cd8185614c41565b93506142d883614c19565b8060005b838110156143095781516142f08882614282565b97506142fb83614c34565b9250506001810190506142dc565b5085935050505092915050565b61431f81614cd6565b82525050565b61432e81614ce2565b82525050565b6000614341601683614c5d565b915061434c82614daf565b602082019050919050565b6000614364601c83614c5d565b915061436f82614dd8565b602082019050919050565b6000614387601183614c5d565b915061439282614e01565b602082019050919050565b60006143aa600d83614c5d565b91506143b582614e2a565b602082019050919050565b60006143cd601583614c5d565b91506143d882614e53565b602082019050919050565b60006143f0601783614c5d565b91506143fb82614e7c565b602082019050919050565b6000614413601d83614c5d565b915061441e82614ea5565b602082019050919050565b6000614436600b83614c5d565b915061444182614ece565b602082019050919050565b6000614459601383614c5d565b915061446482614ef7565b602082019050919050565b600061447c600883614c5d565b915061448782614f20565b602082019050919050565b600061449f601483614c5d565b91506144aa82614f49565b602082019050919050565b60006144c2600f83614c5d565b91506144cd82614f72565b602082019050919050565b60006144e5601583614c5d565b91506144f082614f9b565b602082019050919050565b6000614508600083614c52565b915061451382614fc4565b600082019050919050565b600061452b601383614c5d565b915061453682614fc7565b602082019050919050565b600061454e601483614c5d565b915061455982614ff0565b602082019050919050565b6000614571600d83614c5d565b915061457c82615019565b602082019050919050565b60e08201600082015161459d6000850182614699565b5060208201516145b06020850182614699565b5060408201516145c36040850182614699565b5060608201516145d66060850182614699565b5060808201516145e9608085018261429a565b5060a08201516145fc60a085018261429a565b5060c082015161460f60c085018261429a565b50505050565b60808201600082015161462b600085018261429a565b50602082015161463e602085018261429a565b506040820151614651604085018261429a565b5060608201516146646060850182614699565b50505050565b604082016000820151614680600085018261429a565b5060208201516146936020850182614699565b50505050565b6146a281614d2e565b82525050565b6146b181614d2e565b82525050565b60006146c2826144fb565b9150819050919050565b60006040820190506146e160008301856142a9565b6146ee60208301846142a9565b9392505050565b600060c08201905061470a60008301896142a9565b61471760208301886142a9565b61472460408301876142a9565b61473160608301866146a8565b61473e60808301856146a8565b61474b60a08301846146a8565b979650505050505050565b600060e08201905061476b600083018a6142a9565b61477860208301896142a9565b61478560408301886142a9565b61479260608301876146a8565b61479f60808301866146a8565b6147ac60a08301856146a8565b6147b960c08301846146a8565b98975050505050505050565b60006060820190506147da60008301866142a9565b6147e760208301856142a9565b6147f460408301846146a8565b949350505050565b600060808201905061481160008301876142a9565b61481e60208301866142a9565b61482b60408301856146a8565b61483860608301846146a8565b95945050505050565b600060408201905061485660008301856142a9565b61486360208301846146a8565b9392505050565b600060608201905061487f60008301866142a9565b61488c60208301856146a8565b61489960408301846142a9565b949350505050565b600060a0820190506148b660008301886142a9565b6148c360208301876146a8565b6148d060408301866142a9565b6148dd60608301856146a8565b6148ea60808301846142a9565b9695505050505050565b600060608201905061490960008301866142a9565b61491660208301856146a8565b61492360408301846146a8565b949350505050565b600060808201905061494060008301876142a9565b61494d60208301866146a8565b61495a60408301856146a8565b61496760608301846142a9565b95945050505050565b6000602082019050818103600083015261498a81846142b8565b905092915050565b60006020820190506149a76000830184614316565b92915050565b60006020820190506149c26000830184614325565b92915050565b600060208201905081810360008301526149e181614334565b9050919050565b60006020820190508181036000830152614a0181614357565b9050919050565b60006020820190508181036000830152614a218161437a565b9050919050565b60006020820190508181036000830152614a418161439d565b9050919050565b60006020820190508181036000830152614a61816143c0565b9050919050565b60006020820190508181036000830152614a81816143e3565b9050919050565b60006020820190508181036000830152614aa181614406565b9050919050565b60006020820190508181036000830152614ac181614429565b9050919050565b60006020820190508181036000830152614ae18161444c565b9050919050565b60006020820190508181036000830152614b018161446f565b9050919050565b60006020820190508181036000830152614b2181614492565b9050919050565b60006020820190508181036000830152614b41816144b5565b9050919050565b60006020820190508181036000830152614b61816144d8565b9050919050565b60006020820190508181036000830152614b818161451e565b9050919050565b60006020820190508181036000830152614ba181614541565b9050919050565b60006020820190508181036000830152614bc181614564565b9050919050565b600060e082019050614bdd6000830184614587565b92915050565b6000608082019050614bf86000830184614615565b92915050565b6000602082019050614c1360008301846146a8565b92915050565b6000819050602082019050919050565b600081519050919050565b6000602082019050919050565b600082825260208201905092915050565b600081905092915050565b600082825260208201905092915050565b6000614c7982614d2e565b9150614c8483614d2e565b9250827fffffffffffffffffffffffffffffffffffffffffffffffffffffffffffffffff03821115614cb957614cb8614d38565b5b828201905092915050565b6000614ccf82614d0e565b9050919050565b60008115159050919050565b60007fffffffff0000000000000000000000000000000000000000000000000000000082169050919050565b600073ffffffffffffffffffffffffffffffffffffffff82169050919050565b6000819050919050565b7f4e487b7100000000000000000000000000000000000000000000000000000000600052601160045260246000fd5b7f4e487b7100000000000000000000000000000000000000000000000000000000600052603260045260246000fd5b600080fd5b600080fd5b600080fd5b600080fd5b600080fd5b7f596f752061726520686967686573742062696464657200000000000000000000600082015250565b7f4e6674206e6f7420617070726f76656420746f20636f6e747261637400000000600082015250565b7f50726963652063616e6e6f742062652030000000000000000000000000000000600082015250565b7f6e6f74206e6674206f776e657200000000000000000000000000000000000000600082015250565b7f4e6674206e6f7420696e2066697865642073616c650000000000000000000000600082015250565b7f4e6674206e6f7420696e2061756374696f6e2073616c65000000000000000000600082015250565b7f4269642047726561746572207468616e2050726576696f757320426964000000600082015250565b7f41756374696f6e20656e64000000000000000000000000000000000000000000600082015250565b7f4e667420616c726561647920696e2073616c6500000000000000000000000000600082015250565b7f626964206d616b65000000000000000000000000000000000000000000000000600082015250565b7f616c6c6f77616e6365206e6f7420656e6f756768000000000000000000000000600082015250565b7f41756374696f6e206e6f7420656e640000000000000000000000000000000000600082015250565b7f596f7520617265206e6f74206e6674206f776e65720000000000000000000000600082015250565b50565b7f6e6f7468696e6720746f20776974686472617700000000000000000000000000600082015250565b7f627579205072696365206e6f7420656e6f756768000000000000000000000000600082015250565b7f726566756e64206661696c656400000000000000000000000000000000000000600082015250565b61504b81614cc4565b811461505657600080fd5b50565b61506281614cd6565b811461506d57600080fd5b50565b61507981614d2e565b811461508457600080fd5b5056fea264697066735822122066b504b29ca0031427c02f76922158fe49d965a047f7b234cd0810388ec403cf64736f6c63430008070033",
					"opcodes": "PUSH1 0x80 PUSH1 0x40 MSTORE CALLVALUE DUP1 ISZERO PUSH2 0x10 JUMPI PUSH1 0x0 DUP1 REVERT JUMPDEST POP PUSH2 0x50BD DUP1 PUSH2 0x20 PUSH1 0x0 CODECOPY PUSH1 0x0 RETURN INVALID PUSH1 0x80 PUSH1 0x40 MSTORE PUSH1 0x4 CALLDATASIZE LT PUSH2 0x10C JUMPI PUSH1 0x0 CALLDATALOAD PUSH1 0xE0 SHR DUP1 PUSH4 0x6F8C9B1B GT PUSH2 0x95 JUMPI DUP1 PUSH4 0x8C3417DA GT PUSH2 0x64 JUMPI DUP1 PUSH4 0x8C3417DA EQ PUSH2 0x38B JUMPI DUP1 PUSH4 0x9F085A00 EQ PUSH2 0x3C8 JUMPI DUP1 PUSH4 0xBAF4371E EQ PUSH2 0x3F3 JUMPI DUP1 PUSH4 0xCF42B7E6 EQ PUSH2 0x40F JUMPI DUP1 PUSH4 0xD3A6A6C9 EQ PUSH2 0x438 JUMPI PUSH2 0x113 JUMP JUMPDEST DUP1 PUSH4 0x6F8C9B1B EQ PUSH2 0x2AB JUMPI DUP1 PUSH4 0x6FE02F24 EQ PUSH2 0x2E8 JUMPI DUP1 PUSH4 0x7AD47A21 EQ PUSH2 0x325 JUMPI DUP1 PUSH4 0x842BC46A EQ PUSH2 0x362 JUMPI PUSH2 0x113 JUMP JUMPDEST DUP1 PUSH4 0x4676ADCA GT PUSH2 0xDC JUMPI DUP1 PUSH4 0x4676ADCA EQ PUSH2 0x1CA JUMPI DUP1 PUSH4 0x4CB8EF5B EQ PUSH2 0x1F3 JUMPI DUP1 PUSH4 0x5138B08C EQ PUSH2 0x21C JUMPI DUP1 PUSH4 0x6916462F EQ PUSH2 0x245 JUMPI DUP1 PUSH4 0x69A6D12E EQ PUSH2 0x282 JUMPI PUSH2 0x113 JUMP JUMPDEST DUP1 PUSH3 0xE2097C EQ PUSH2 0x118 JUMPI DUP1 PUSH4 0x150B7A02 EQ PUSH2 0x155 JUMPI DUP1 PUSH4 0x1BDAE6F1 EQ PUSH2 0x192 JUMPI DUP1 PUSH4 0x3A713DB8 EQ PUSH2 0x1AE JUMPI PUSH2 0x113 JUMP JUMPDEST CALLDATASIZE PUSH2 0x113 JUMPI STOP JUMPDEST PUSH1 0x0 DUP1 REVERT JUMPDEST CALLVALUE DUP1 ISZERO PUSH2 0x124 JUMPI PUSH1 0x0 DUP1 REVERT JUMPDEST POP PUSH2 0x13F PUSH1 0x4 DUP1 CALLDATASIZE SUB DUP2 ADD SWAP1 PUSH2 0x13A SWAP2 SWAP1 PUSH2 0x3FA0 JUMP JUMPDEST PUSH2 0x461 JUMP JUMPDEST PUSH1 0x40 MLOAD PUSH2 0x14C SWAP2 SWAP1 PUSH2 0x4992 JUMP JUMPDEST PUSH1 0x40 MLOAD DUP1 SWAP2 SUB SWAP1 RETURN JUMPDEST CALLVALUE DUP1 ISZERO PUSH2 0x161 JUMPI PUSH1 0x0 DUP1 REVERT JUMPDEST POP PUSH2 0x17C PUSH1 0x4 DUP1 CALLDATASIZE SUB DUP2 ADD SWAP1 PUSH2 0x177 SWAP2 SWAP1 PUSH2 0x3FF3 JUMP JUMPDEST PUSH2 0x517 JUMP JUMPDEST PUSH1 0x40 MLOAD PUSH2 0x189 SWAP2 SWAP1 PUSH2 0x49AD JUMP JUMPDEST PUSH1 0x40 MLOAD DUP1 SWAP2 SUB SWAP1 RETURN JUMPDEST PUSH2 0x1AC PUSH1 0x4 DUP1 CALLDATASIZE SUB DUP2 ADD SWAP1 PUSH2 0x1A7 SWAP2 SWAP1 PUSH2 0x4202 JUMP JUMPDEST PUSH2 0x52C JUMP JUMPDEST STOP JUMPDEST PUSH2 0x1C8 PUSH1 0x4 DUP1 CALLDATASIZE SUB DUP2 ADD SWAP1 PUSH2 0x1C3 SWAP2 SWAP1 PUSH2 0x4202 JUMP JUMPDEST PUSH2 0xB63 JUMP JUMPDEST STOP JUMPDEST CALLVALUE DUP1 ISZERO PUSH2 0x1D6 JUMPI PUSH1 0x0 DUP1 REVERT JUMPDEST POP PUSH2 0x1F1 PUSH1 0x4 DUP1 CALLDATASIZE SUB DUP2 ADD SWAP1 PUSH2 0x1EC SWAP2 SWAP1 PUSH2 0x4202 JUMP JUMPDEST PUSH2 0x12FC JUMP JUMPDEST STOP JUMPDEST CALLVALUE DUP1 ISZERO PUSH2 0x1FF JUMPI PUSH1 0x0 DUP1 REVERT JUMPDEST POP PUSH2 0x21A PUSH1 0x4 DUP1 CALLDATASIZE SUB DUP2 ADD SWAP1 PUSH2 0x215 SWAP2 SWAP1 PUSH2 0x416F JUMP JUMPDEST PUSH2 0x1553 JUMP JUMPDEST STOP JUMPDEST CALLVALUE DUP1 ISZERO PUSH2 0x228 JUMPI PUSH1 0x0 DUP1 REVERT JUMPDEST POP PUSH2 0x243 PUSH1 0x4 DUP1 CALLDATASIZE SUB DUP2 ADD SWAP1 PUSH2 0x23E SWAP2 SWAP1 PUSH2 0x416F JUMP JUMPDEST PUSH2 0x1870 JUMP JUMPDEST STOP JUMPDEST CALLVALUE DUP1 ISZERO PUSH2 0x251 JUMPI PUSH1 0x0 DUP1 REVERT JUMPDEST POP PUSH2 0x26C PUSH1 0x4 DUP1 CALLDATASIZE SUB DUP2 ADD SWAP1 PUSH2 0x267 SWAP2 SWAP1 PUSH2 0x416F JUMP JUMPDEST PUSH2 0x1C13 JUMP JUMPDEST PUSH1 0x40 MLOAD PUSH2 0x279 SWAP2 SWAP1 PUSH2 0x4BFE JUMP JUMPDEST PUSH1 0x40 MLOAD DUP1 SWAP2 SUB SWAP1 RETURN JUMPDEST CALLVALUE DUP1 ISZERO PUSH2 0x28E JUMPI PUSH1 0x0 DUP1 REVERT JUMPDEST POP PUSH2 0x2A9 PUSH1 0x4 DUP1 CALLDATASIZE SUB DUP2 ADD SWAP1 PUSH2 0x2A4 SWAP2 SWAP1 PUSH2 0x407B JUMP JUMPDEST PUSH2 0x1C38 JUMP JUMPDEST STOP JUMPDEST CALLVALUE DUP1 ISZERO PUSH2 0x2B7 JUMPI PUSH1 0x0 DUP1 REVERT JUMPDEST POP PUSH2 0x2D2 PUSH1 0x4 DUP1 CALLDATASIZE SUB DUP2 ADD SWAP1 PUSH2 0x2CD SWAP2 SWAP1 PUSH2 0x416F JUMP JUMPDEST PUSH2 0x2280 JUMP JUMPDEST PUSH1 0x40 MLOAD PUSH2 0x2DF SWAP2 SWAP1 PUSH2 0x4BC8 JUMP JUMPDEST PUSH1 0x40 MLOAD DUP1 SWAP2 SUB SWAP1 RETURN JUMPDEST CALLVALUE DUP1 ISZERO PUSH2 0x2F4 JUMPI PUSH1 0x0 DUP1 REVERT JUMPDEST POP PUSH2 0x30F PUSH1 0x4 DUP1 CALLDATASIZE SUB DUP2 ADD SWAP1 PUSH2 0x30A SWAP2 SWAP1 PUSH2 0x41AF JUMP JUMPDEST PUSH2 0x2415 JUMP JUMPDEST PUSH1 0x40 MLOAD PUSH2 0x31C SWAP2 SWAP1 PUSH2 0x4BFE JUMP JUMPDEST PUSH1 0x40 MLOAD DUP1 SWAP2 SUB SWAP1 RETURN JUMPDEST CALLVALUE DUP1 ISZERO PUSH2 0x331 JUMPI PUSH1 0x0 DUP1 REVERT JUMPDEST POP PUSH2 0x34C PUSH1 0x4 DUP1 CALLDATASIZE SUB DUP2 ADD SWAP1 PUSH2 0x347 SWAP2 SWAP1 PUSH2 0x3FA0 JUMP JUMPDEST PUSH2 0x2447 JUMP JUMPDEST PUSH1 0x40 MLOAD PUSH2 0x359 SWAP2 SWAP1 PUSH2 0x4992 JUMP JUMPDEST PUSH1 0x40 MLOAD DUP1 SWAP2 SUB SWAP1 RETURN JUMPDEST CALLVALUE DUP1 ISZERO PUSH2 0x36E JUMPI PUSH1 0x0 DUP1 REVERT JUMPDEST POP PUSH2 0x389 PUSH1 0x4 DUP1 CALLDATASIZE SUB DUP2 ADD SWAP1 PUSH2 0x384 SWAP2 SWAP1 PUSH2 0x416F JUMP JUMPDEST PUSH2 0x24FD JUMP JUMPDEST STOP JUMPDEST CALLVALUE DUP1 ISZERO PUSH2 0x397 JUMPI PUSH1 0x0 DUP1 REVERT JUMPDEST POP PUSH2 0x3B2 PUSH1 0x4 DUP1 CALLDATASIZE SUB DUP2 ADD SWAP1 PUSH2 0x3AD SWAP2 SWAP1 PUSH2 0x416F JUMP JUMPDEST PUSH2 0x28FB JUMP JUMPDEST PUSH1 0x40 MLOAD PUSH2 0x3BF SWAP2 SWAP1 PUSH2 0x4BE3 JUMP JUMPDEST PUSH1 0x40 MLOAD DUP1 SWAP2 SUB SWAP1 RETURN JUMPDEST CALLVALUE DUP1 ISZERO PUSH2 0x3D4 JUMPI PUSH1 0x0 DUP1 REVERT JUMPDEST POP PUSH2 0x3DD PUSH2 0x2A71 JUMP JUMPDEST PUSH1 0x40 MLOAD PUSH2 0x3EA SWAP2 SWAP1 PUSH2 0x4970 JUMP JUMPDEST PUSH1 0x40 MLOAD DUP1 SWAP2 SUB SWAP1 RETURN JUMPDEST PUSH2 0x40D PUSH1 0x4 DUP1 CALLDATASIZE SUB DUP2 ADD SWAP1 PUSH2 0x408 SWAP2 SWAP1 PUSH2 0x4202 JUMP JUMPDEST PUSH2 0x2B30 JUMP JUMPDEST STOP JUMPDEST CALLVALUE DUP1 ISZERO PUSH2 0x41B JUMPI PUSH1 0x0 DUP1 REVERT JUMPDEST POP PUSH2 0x436 PUSH1 0x4 DUP1 CALLDATASIZE SUB DUP2 ADD SWAP1 PUSH2 0x431 SWAP2 SWAP1 PUSH2 0x40E2 JUMP JUMPDEST PUSH2 0x3024 JUMP JUMPDEST STOP JUMPDEST CALLVALUE DUP1 ISZERO PUSH2 0x444 JUMPI PUSH1 0x0 DUP1 REVERT JUMPDEST POP PUSH2 0x45F PUSH1 0x4 DUP1 CALLDATASIZE SUB DUP2 ADD SWAP1 PUSH2 0x45A SWAP2 SWAP1 PUSH2 0x416F JUMP JUMPDEST PUSH2 0x3321 JUMP JUMPDEST STOP JUMPDEST PUSH1 0x0 DUP1 DUP5 SWAP1 POP DUP1 PUSH20 0xFFFFFFFFFFFFFFFFFFFFFFFFFFFFFFFFFFFFFFFF AND PUSH4 0x23B872DD PUSH20 0x2258C5B9C82FF0FA923756ED3FD2ACB5616DF57C DUP7 DUP7 PUSH1 0x40 MLOAD DUP5 PUSH4 0xFFFFFFFF AND PUSH1 0xE0 SHL DUP2 MSTORE PUSH1 0x4 ADD PUSH2 0x4B8 SWAP4 SWAP3 SWAP2 SWAP1 PUSH2 0x47C5 JUMP JUMPDEST PUSH1 0x20 PUSH1 0x40 MLOAD DUP1 DUP4 SUB DUP2 PUSH1 0x0 DUP8 DUP1 EXTCODESIZE ISZERO DUP1 ISZERO PUSH2 0x4D2 JUMPI PUSH1 0x0 DUP1 REVERT JUMPDEST POP GAS CALL ISZERO DUP1 ISZERO PUSH2 0x4E6 JUMPI RETURNDATASIZE PUSH1 0x0 DUP1 RETURNDATACOPY RETURNDATASIZE PUSH1 0x0 REVERT JUMPDEST POP POP POP POP PUSH1 0x40 MLOAD RETURNDATASIZE PUSH1 0x1F NOT PUSH1 0x1F DUP3 ADD AND DUP3 ADD DUP1 PUSH1 0x40 MSTORE POP DUP2 ADD SWAP1 PUSH2 0x50A SWAP2 SWAP1 PUSH2 0x4255 JUMP JUMPDEST POP PUSH1 0x1 SWAP2 POP POP SWAP4 SWAP3 POP POP POP JUMP JUMPDEST PUSH1 0x0 PUSH4 0x150B7A02 PUSH1 0xE0 SHL SWAP1 POP SWAP6 SWAP5 POP POP POP POP POP JUMP JUMPDEST DUP3 DUP3 PUSH1 0x2 DUP1 PUSH1 0x0 DUP5 PUSH20 0xFFFFFFFFFFFFFFFFFFFFFFFFFFFFFFFFFFFFFFFF AND PUSH20 0xFFFFFFFFFFFFFFFFFFFFFFFFFFFFFFFFFFFFFFFF AND DUP2 MSTORE PUSH1 0x20 ADD SWAP1 DUP2 MSTORE PUSH1 0x20 ADD PUSH1 0x0 KECCAK256 PUSH1 0x0 DUP4 DUP2 MSTORE PUSH1 0x20 ADD SWAP1 DUP2 MSTORE PUSH1 0x20 ADD PUSH1 0x0 KECCAK256 SLOAD EQ PUSH2 0x5C0 JUMPI PUSH1 0x40 MLOAD PUSH32 0x8C379A000000000000000000000000000000000000000000000000000000000 DUP2 MSTORE PUSH1 0x4 ADD PUSH2 0x5B7 SWAP1 PUSH2 0x4A68 JUMP JUMPDEST PUSH1 0x40 MLOAD DUP1 SWAP2 SUB SWAP1 REVERT JUMPDEST DUP5 DUP5 PUSH1 0x1 PUSH1 0x0 DUP4 PUSH20 0xFFFFFFFFFFFFFFFFFFFFFFFFFFFFFFFFFFFFFFFF AND PUSH20 0xFFFFFFFFFFFFFFFFFFFFFFFFFFFFFFFFFFFFFFFF AND DUP2 MSTORE PUSH1 0x20 ADD SWAP1 DUP2 MSTORE PUSH1 0x20 ADD PUSH1 0x0 KECCAK256 PUSH1 0x0 DUP3 DUP2 MSTORE PUSH1 0x20 ADD SWAP1 DUP2 MSTORE PUSH1 0x20 ADD PUSH1 0x0 KECCAK256 PUSH1 0x1 ADD SLOAD TIMESTAMP LT PUSH2 0x657 JUMPI PUSH1 0x40 MLOAD PUSH32 0x8C379A000000000000000000000000000000000000000000000000000000000 DUP2 MSTORE PUSH1 0x4 ADD PUSH2 0x64E SWAP1 PUSH2 0x4AA8 JUMP JUMPDEST PUSH1 0x40 MLOAD DUP1 SWAP2 SUB SWAP1 REVERT JUMPDEST DUP5 PUSH1 0x0 DUP2 GT PUSH2 0x69B JUMPI PUSH1 0x40 MLOAD PUSH32 0x8C379A000000000000000000000000000000000000000000000000000000000 DUP2 MSTORE PUSH1 0x4 ADD PUSH2 0x692 SWAP1 PUSH2 0x4A08 JUMP JUMPDEST PUSH1 0x40 MLOAD DUP1 SWAP2 SUB SWAP1 REVERT JUMPDEST DUP8 DUP8 CALLVALUE DUP9 PUSH1 0x0 PUSH20 0xFFFFFFFFFFFFFFFFFFFFFFFFFFFFFFFFFFFFFFFF AND PUSH1 0x1 PUSH1 0x0 DUP7 PUSH20 0xFFFFFFFFFFFFFFFFFFFFFFFFFFFFFFFFFFFFFFFF AND PUSH20 0xFFFFFFFFFFFFFFFFFFFFFFFFFFFFFFFFFFFFFFFF AND DUP2 MSTORE PUSH1 0x20 ADD SWAP1 DUP2 MSTORE PUSH1 0x20 ADD PUSH1 0x0 KECCAK256 PUSH1 0x0 DUP6 DUP2 MSTORE PUSH1 0x20 ADD SWAP1 DUP2 MSTORE PUSH1 0x20 ADD PUSH1 0x0 KECCAK256 PUSH1 0x6 ADD PUSH1 0x0 SWAP1 SLOAD SWAP1 PUSH2 0x100 EXP SWAP1 DIV PUSH20 0xFFFFFFFFFFFFFFFFFFFFFFFFFFFFFFFFFFFFFFFF AND PUSH20 0xFFFFFFFFFFFFFFFFFFFFFFFFFFFFFFFFFFFFFFFF AND EQ ISZERO PUSH2 0x7E1 JUMPI PUSH1 0x1 PUSH1 0x0 DUP6 PUSH20 0xFFFFFFFFFFFFFFFFFFFFFFFFFFFFFFFFFFFFFFFF AND PUSH20 0xFFFFFFFFFFFFFFFFFFFFFFFFFFFFFFFFFFFFFFFF AND DUP2 MSTORE PUSH1 0x20 ADD SWAP1 DUP2 MSTORE PUSH1 0x20 ADD PUSH1 0x0 KECCAK256 PUSH1 0x0 DUP5 DUP2 MSTORE PUSH1 0x20 ADD SWAP1 DUP2 MSTORE PUSH1 0x20 ADD PUSH1 0x0 KECCAK256 PUSH1 0x3 ADD SLOAD DUP3 GT PUSH2 0x7DC JUMPI PUSH1 0x40 MLOAD PUSH32 0x8C379A000000000000000000000000000000000000000000000000000000000 DUP2 MSTORE PUSH1 0x4 ADD PUSH2 0x7D3 SWAP1 PUSH2 0x4A88 JUMP JUMPDEST PUSH1 0x40 MLOAD DUP1 SWAP2 SUB SWAP1 REVERT JUMPDEST PUSH2 0x877 JUMP JUMPDEST PUSH1 0x1 PUSH1 0x0 DUP6 PUSH20 0xFFFFFFFFFFFFFFFFFFFFFFFFFFFFFFFFFFFFFFFF AND PUSH20 0xFFFFFFFFFFFFFFFFFFFFFFFFFFFFFFFFFFFFFFFF AND DUP2 MSTORE PUSH1 0x20 ADD SWAP1 DUP2 MSTORE PUSH1 0x20 ADD PUSH1 0x0 KECCAK256 PUSH1 0x0 DUP5 DUP2 MSTORE PUSH1 0x20 ADD SWAP1 DUP2 MSTORE PUSH1 0x20 ADD PUSH1 0x0 KECCAK256 PUSH1 0x3 ADD SLOAD DUP2 GT PUSH2 0x876 JUMPI PUSH1 0x40 MLOAD PUSH32 0x8C379A000000000000000000000000000000000000000000000000000000000 DUP2 MSTORE PUSH1 0x4 ADD PUSH2 0x86D SWAP1 PUSH2 0x4A88 JUMP JUMPDEST PUSH1 0x40 MLOAD DUP1 SWAP2 SUB SWAP1 REVERT JUMPDEST JUMPDEST PUSH1 0x0 PUSH20 0xFFFFFFFFFFFFFFFFFFFFFFFFFFFFFFFFFFFFFFFF AND PUSH1 0x1 PUSH1 0x0 DUP15 PUSH20 0xFFFFFFFFFFFFFFFFFFFFFFFFFFFFFFFFFFFFFFFF AND PUSH20 0xFFFFFFFFFFFFFFFFFFFFFFFFFFFFFFFFFFFFFFFF AND DUP2 MSTORE PUSH1 0x20 ADD SWAP1 DUP2 MSTORE PUSH1 0x20 ADD PUSH1 0x0 KECCAK256 PUSH1 0x0 DUP14 DUP2 MSTORE PUSH1 0x20 ADD SWAP1 DUP2 MSTORE PUSH1 0x20 ADD PUSH1 0x0 KECCAK256 PUSH1 0x6 ADD PUSH1 0x0 SWAP1 SLOAD SWAP1 PUSH2 0x100 EXP SWAP1 DIV PUSH20 0xFFFFFFFFFFFFFFFFFFFFFFFFFFFFFFFFFFFFFFFF AND PUSH20 0xFFFFFFFFFFFFFFFFFFFFFFFFFFFFFFFFFFFFFFFF AND EQ PUSH2 0x99C JUMPI PUSH2 0x99B DUP11 PUSH1 0x1 PUSH1 0x0 DUP16 PUSH20 0xFFFFFFFFFFFFFFFFFFFFFFFFFFFFFFFFFFFFFFFF AND PUSH20 0xFFFFFFFFFFFFFFFFFFFFFFFFFFFFFFFFFFFFFFFF AND DUP2 MSTORE PUSH1 0x20 ADD SWAP1 DUP2 MSTORE PUSH1 0x20 ADD PUSH1 0x0 KECCAK256 PUSH1 0x0 DUP15 DUP2 MSTORE PUSH1 0x20 ADD SWAP1 DUP2 MSTORE PUSH1 0x20 ADD PUSH1 0x0 KECCAK256 PUSH1 0x6 ADD PUSH1 0x0 SWAP1 SLOAD SWAP1 PUSH2 0x100 EXP SWAP1 DIV PUSH20 0xFFFFFFFFFFFFFFFFFFFFFFFFFFFFFFFFFFFFFFFF AND PUSH2 0x3644 JUMP JUMPDEST JUMPDEST DUP10 PUSH1 0x1 PUSH1 0x0 DUP15 PUSH20 0xFFFFFFFFFFFFFFFFFFFFFFFFFFFFFFFFFFFFFFFF AND PUSH20 0xFFFFFFFFFFFFFFFFFFFFFFFFFFFFFFFFFFFFFFFF AND DUP2 MSTORE PUSH1 0x20 ADD SWAP1 DUP2 MSTORE PUSH1 0x20 ADD PUSH1 0x0 KECCAK256 PUSH1 0x0 DUP14 DUP2 MSTORE PUSH1 0x20 ADD SWAP1 DUP2 MSTORE PUSH1 0x20 ADD PUSH1 0x0 KECCAK256 PUSH1 0x3 ADD DUP2 SWAP1 SSTORE POP CALLER PUSH1 0x1 PUSH1 0x0 DUP15 PUSH20 0xFFFFFFFFFFFFFFFFFFFFFFFFFFFFFFFFFFFFFFFF AND PUSH20 0xFFFFFFFFFFFFFFFFFFFFFFFFFFFFFFFFFFFFFFFF AND DUP2 MSTORE PUSH1 0x20 ADD SWAP1 DUP2 MSTORE PUSH1 0x20 ADD PUSH1 0x0 KECCAK256 PUSH1 0x0 DUP14 DUP2 MSTORE PUSH1 0x20 ADD SWAP1 DUP2 MSTORE PUSH1 0x20 ADD PUSH1 0x0 KECCAK256 PUSH1 0x4 ADD PUSH1 0x0 PUSH2 0x100 EXP DUP2 SLOAD DUP2 PUSH20 0xFFFFFFFFFFFFFFFFFFFFFFFFFFFFFFFFFFFFFFFF MUL NOT AND SWAP1 DUP4 PUSH20 0xFFFFFFFFFFFFFFFFFFFFFFFFFFFFFFFFFFFFFFFF AND MUL OR SWAP1 SSTORE POP DUP10 PUSH1 0x3 PUSH1 0x0 DUP15 PUSH20 0xFFFFFFFFFFFFFFFFFFFFFFFFFFFFFFFFFFFFFFFF AND PUSH20 0xFFFFFFFFFFFFFFFFFFFFFFFFFFFFFFFFFFFFFFFF AND DUP2 MSTORE PUSH1 0x20 ADD SWAP1 DUP2 MSTORE PUSH1 0x20 ADD PUSH1 0x0 KECCAK256 PUSH1 0x0 DUP14 DUP2 MSTORE PUSH1 0x20 ADD SWAP1 DUP2 MSTORE PUSH1 0x20 ADD PUSH1 0x0 KECCAK256 PUSH1 0x0 CALLER PUSH20 0xFFFFFFFFFFFFFFFFFFFFFFFFFFFFFFFFFFFFFFFF AND PUSH20 0xFFFFFFFFFFFFFFFFFFFFFFFFFFFFFFFFFFFFFFFF AND DUP2 MSTORE PUSH1 0x20 ADD SWAP1 DUP2 MSTORE PUSH1 0x20 ADD PUSH1 0x0 KECCAK256 DUP2 SWAP1 SSTORE POP PUSH32 0xD56CB6210C78740462007B728932C802BC41B205ED5C8A98AB95421EAF054B22 DUP13 DUP13 DUP13 CALLER PUSH1 0x40 MLOAD PUSH2 0xB4D SWAP5 SWAP4 SWAP3 SWAP2 SWAP1 PUSH2 0x492B JUMP JUMPDEST PUSH1 0x40 MLOAD DUP1 SWAP2 SUB SWAP1 LOG1 POP POP POP POP POP POP POP POP POP POP POP POP JUMP JUMPDEST DUP3 DUP3 PUSH1 0x2 DUP1 PUSH1 0x0 DUP5 PUSH20 0xFFFFFFFFFFFFFFFFFFFFFFFFFFFFFFFFFFFFFFFF AND PUSH20 0xFFFFFFFFFFFFFFFFFFFFFFFFFFFFFFFFFFFFFFFF AND DUP2 MSTORE PUSH1 0x20 ADD SWAP1 DUP2 MSTORE PUSH1 0x20 ADD PUSH1 0x0 KECCAK256 PUSH1 0x0 DUP4 DUP2 MSTORE PUSH1 0x20 ADD SWAP1 DUP2 MSTORE PUSH1 0x20 ADD PUSH1 0x0 KECCAK256 SLOAD EQ PUSH2 0xBF7 JUMPI PUSH1 0x40 MLOAD PUSH32 0x8C379A000000000000000000000000000000000000000000000000000000000 DUP2 MSTORE PUSH1 0x4 ADD PUSH2 0xBEE SWAP1 PUSH2 0x4A68 JUMP JUMPDEST PUSH1 0x40 MLOAD DUP1 SWAP2 SUB SWAP1 REVERT JUMPDEST DUP5 DUP5 PUSH1 0x1 PUSH1 0x0 DUP4 PUSH20 0xFFFFFFFFFFFFFFFFFFFFFFFFFFFFFFFFFFFFFFFF AND PUSH20 0xFFFFFFFFFFFFFFFFFFFFFFFFFFFFFFFFFFFFFFFF AND DUP2 MSTORE PUSH1 0x20 ADD SWAP1 DUP2 MSTORE PUSH1 0x20 ADD PUSH1 0x0 KECCAK256 PUSH1 0x0 DUP3 DUP2 MSTORE PUSH1 0x20 ADD SWAP1 DUP2 MSTORE PUSH1 0x20 ADD PUSH1 0x0 KECCAK256 PUSH1 0x1 ADD SLOAD TIMESTAMP LT PUSH2 0xC8E JUMPI PUSH1 0x40 MLOAD PUSH32 0x8C379A000000000000000000000000000000000000000000000000000000000 DUP2 MSTORE PUSH1 0x4 ADD PUSH2 0xC85 SWAP1 PUSH2 0x4AA8 JUMP JUMPDEST PUSH1 0x40 MLOAD DUP1 SWAP2 SUB SWAP1 REVERT JUMPDEST CALLVALUE PUSH1 0x0 DUP2 GT PUSH2 0xCD2 JUMPI PUSH1 0x40 MLOAD PUSH32 0x8C379A000000000000000000000000000000000000000000000000000000000 DUP2 MSTORE PUSH1 0x4 ADD PUSH2 0xCC9 SWAP1 PUSH2 0x4A08 JUMP JUMPDEST PUSH1 0x40 MLOAD DUP1 SWAP2 SUB SWAP1 REVERT JUMPDEST DUP8 DUP8 CALLVALUE DUP9 PUSH1 0x0 DUP1 PUSH20 0xFFFFFFFFFFFFFFFFFFFFFFFFFFFFFFFFFFFFFFFF AND PUSH1 0x1 PUSH1 0x0 DUP8 PUSH20 0xFFFFFFFFFFFFFFFFFFFFFFFFFFFFFFFFFFFFFFFF AND PUSH20 0xFFFFFFFFFFFFFFFFFFFFFFFFFFFFFFFFFFFFFFFF AND DUP2 MSTORE PUSH1 0x20 ADD SWAP1 DUP2 MSTORE PUSH1 0x20 ADD PUSH1 0x0 KECCAK256 PUSH1 0x0 DUP7 DUP2 MSTORE PUSH1 0x20 ADD SWAP1 DUP2 MSTORE PUSH1 0x20 ADD PUSH1 0x0 KECCAK256 PUSH1 0x6 ADD PUSH1 0x0 SWAP1 SLOAD SWAP1 PUSH2 0x100 EXP SWAP1 DIV PUSH20 0xFFFFFFFFFFFFFFFFFFFFFFFFFFFFFFFFFFFFFFFF AND PUSH20 0xFFFFFFFFFFFFFFFFFFFFFFFFFFFFFFFFFFFFFFFF AND EQ ISZERO PUSH2 0xE26 JUMPI PUSH2 0xE1F DUP4 PUSH1 0x3 PUSH1 0x0 DUP9 PUSH20 0xFFFFFFFFFFFFFFFFFFFFFFFFFFFFFFFFFFFFFFFF AND PUSH20 0xFFFFFFFFFFFFFFFFFFFFFFFFFFFFFFFFFFFFFFFF AND DUP2 MSTORE PUSH1 0x20 ADD SWAP1 DUP2 MSTORE PUSH1 0x20 ADD PUSH1 0x0 KECCAK256 PUSH1 0x0 DUP8 DUP2 MSTORE PUSH1 0x20 ADD SWAP1 DUP2 MSTORE PUSH1 0x20 ADD PUSH1 0x0 KECCAK256 PUSH1 0x0 CALLER PUSH20 0xFFFFFFFFFFFFFFFFFFFFFFFFFFFFFFFFFFFFFFFF AND PUSH20 0xFFFFFFFFFFFFFFFFFFFFFFFFFFFFFFFFFFFFFFFF AND DUP2 MSTORE PUSH1 0x20 ADD SWAP1 DUP2 MSTORE PUSH1 0x20 ADD PUSH1 0x0 KECCAK256 SLOAD PUSH2 0x3716 SWAP1 SWAP2 SWAP1 PUSH4 0xFFFFFFFF AND JUMP JUMPDEST SWAP1 POP PUSH2 0xEC9 JUMP JUMPDEST PUSH2 0xEC6 DUP3 PUSH1 0x3 PUSH1 0x0 DUP9 PUSH20 0xFFFFFFFFFFFFFFFFFFFFFFFFFFFFFFFFFFFFFFFF AND PUSH20 0xFFFFFFFFFFFFFFFFFFFFFFFFFFFFFFFFFFFFFFFF AND DUP2 MSTORE PUSH1 0x20 ADD SWAP1 DUP2 MSTORE PUSH1 0x20 ADD PUSH1 0x0 KECCAK256 PUSH1 0x0 DUP8 DUP2 MSTORE PUSH1 0x20 ADD SWAP1 DUP2 MSTORE PUSH1 0x20 ADD PUSH1 0x0 KECCAK256 PUSH1 0x0 CALLER PUSH20 0xFFFFFFFFFFFFFFFFFFFFFFFFFFFFFFFFFFFFFFFF AND PUSH20 0xFFFFFFFFFFFFFFFFFFFFFFFFFFFFFFFFFFFFFFFF AND DUP2 MSTORE PUSH1 0x20 ADD SWAP1 DUP2 MSTORE PUSH1 0x20 ADD PUSH1 0x0 KECCAK256 SLOAD PUSH2 0x3716 SWAP1 SWAP2 SWAP1 PUSH4 0xFFFFFFFF AND JUMP JUMPDEST SWAP1 POP JUMPDEST PUSH1 0x1 PUSH1 0x0 DUP7 PUSH20 0xFFFFFFFFFFFFFFFFFFFFFFFFFFFFFFFFFFFFFFFF AND PUSH20 0xFFFFFFFFFFFFFFFFFFFFFFFFFFFFFFFFFFFFFFFF AND DUP2 MSTORE PUSH1 0x20 ADD SWAP1 DUP2 MSTORE PUSH1 0x20 ADD PUSH1 0x0 KECCAK256 PUSH1 0x0 DUP6 DUP2 MSTORE PUSH1 0x20 ADD SWAP1 DUP2 MSTORE PUSH1 0x20 ADD PUSH1 0x0 KECCAK256 PUSH1 0x3 ADD SLOAD DUP2 GT PUSH2 0xF5E JUMPI PUSH1 0x40 MLOAD PUSH32 0x8C379A000000000000000000000000000000000000000000000000000000000 DUP2 MSTORE PUSH1 0x4 ADD PUSH2 0xF55 SWAP1 PUSH2 0x4A88 JUMP JUMPDEST PUSH1 0x40 MLOAD DUP1 SWAP2 SUB SWAP1 REVERT JUMPDEST PUSH1 0x0 DUP14 SWAP1 POP PUSH1 0x0 DUP14 SWAP1 POP PUSH1 0x0 PUSH2 0x100A DUP15 PUSH1 0x3 PUSH1 0x0 DUP7 PUSH20 0xFFFFFFFFFFFFFFFFFFFFFFFFFFFFFFFFFFFFFFFF AND PUSH20 0xFFFFFFFFFFFFFFFFFFFFFFFFFFFFFFFFFFFFFFFF AND DUP2 MSTORE PUSH1 0x20 ADD SWAP1 DUP2 MSTORE PUSH1 0x20 ADD PUSH1 0x0 KECCAK256 PUSH1 0x0 DUP6 DUP2 MSTORE PUSH1 0x20 ADD SWAP1 DUP2 MSTORE PUSH1 0x20 ADD PUSH1 0x0 KECCAK256 PUSH1 0x0 CALLER PUSH20 0xFFFFFFFFFFFFFFFFFFFFFFFFFFFFFFFFFFFFFFFF AND PUSH20 0xFFFFFFFFFFFFFFFFFFFFFFFFFFFFFFFFFFFFFFFF AND DUP2 MSTORE PUSH1 0x20 ADD SWAP1 DUP2 MSTORE PUSH1 0x20 ADD PUSH1 0x0 KECCAK256 SLOAD PUSH2 0x3716 SWAP1 SWAP2 SWAP1 PUSH4 0xFFFFFFFF AND JUMP JUMPDEST SWAP1 POP PUSH1 0x0 PUSH20 0xFFFFFFFFFFFFFFFFFFFFFFFFFFFFFFFFFFFFFFFF AND PUSH1 0x1 PUSH1 0x0 DUP6 PUSH20 0xFFFFFFFFFFFFFFFFFFFFFFFFFFFFFFFFFFFFFFFF AND PUSH20 0xFFFFFFFFFFFFFFFFFFFFFFFFFFFFFFFFFFFFFFFF AND DUP2 MSTORE PUSH1 0x20 ADD SWAP1 DUP2 MSTORE PUSH1 0x20 ADD PUSH1 0x0 KECCAK256 PUSH1 0x0 DUP5 DUP2 MSTORE PUSH1 0x20 ADD SWAP1 DUP2 MSTORE PUSH1 0x20 ADD PUSH1 0x0 KECCAK256 PUSH1 0x6 ADD PUSH1 0x0 SWAP1 SLOAD SWAP1 PUSH2 0x100 EXP SWAP1 DIV PUSH20 0xFFFFFFFFFFFFFFFFFFFFFFFFFFFFFFFFFFFFFFFF AND PUSH20 0xFFFFFFFFFFFFFFFFFFFFFFFFFFFFFFFFFFFFFFFF AND EQ PUSH2 0x1131 JUMPI PUSH2 0x1130 DUP15 PUSH1 0x1 PUSH1 0x0 DUP7 PUSH20 0xFFFFFFFFFFFFFFFFFFFFFFFFFFFFFFFFFFFFFFFF AND PUSH20 0xFFFFFFFFFFFFFFFFFFFFFFFFFFFFFFFFFFFFFFFF AND DUP2 MSTORE PUSH1 0x20 ADD SWAP1 DUP2 MSTORE PUSH1 0x20 ADD PUSH1 0x0 KECCAK256 PUSH1 0x0 DUP6 DUP2 MSTORE PUSH1 0x20 ADD SWAP1 DUP2 MSTORE PUSH1 0x20 ADD PUSH1 0x0 KECCAK256 PUSH1 0x6 ADD PUSH1 0x0 SWAP1 SLOAD SWAP1 PUSH2 0x100 EXP SWAP1 DIV PUSH20 0xFFFFFFFFFFFFFFFFFFFFFFFFFFFFFFFFFFFFFFFF AND PUSH2 0x3644 JUMP JUMPDEST JUMPDEST DUP1 PUSH1 0x1 PUSH1 0x0 DUP6 PUSH20 0xFFFFFFFFFFFFFFFFFFFFFFFFFFFFFFFFFFFFFFFF AND PUSH20 0xFFFFFFFFFFFFFFFFFFFFFFFFFFFFFFFFFFFFFFFF AND DUP2 MSTORE PUSH1 0x20 ADD SWAP1 DUP2 MSTORE PUSH1 0x20 ADD PUSH1 0x0 KECCAK256 PUSH1 0x0 DUP5 DUP2 MSTORE PUSH1 0x20 ADD SWAP1 DUP2 MSTORE PUSH1 0x20 ADD PUSH1 0x0 KECCAK256 PUSH1 0x3 ADD DUP2 SWAP1 SSTORE POP CALLER PUSH1 0x1 PUSH1 0x0 DUP6 PUSH20 0xFFFFFFFFFFFFFFFFFFFFFFFFFFFFFFFFFFFFFFFF AND PUSH20 0xFFFFFFFFFFFFFFFFFFFFFFFFFFFFFFFFFFFFFFFF AND DUP2 MSTORE PUSH1 0x20 ADD SWAP1 DUP2 MSTORE PUSH1 0x20 ADD PUSH1 0x0 KECCAK256 PUSH1 0x0 DUP5 DUP2 MSTORE PUSH1 0x20 ADD SWAP1 DUP2 MSTORE PUSH1 0x20 ADD PUSH1 0x0 KECCAK256 PUSH1 0x4 ADD PUSH1 0x0 PUSH2 0x100 EXP DUP2 SLOAD DUP2 PUSH20 0xFFFFFFFFFFFFFFFFFFFFFFFFFFFFFFFFFFFFFFFF MUL NOT AND SWAP1 DUP4 PUSH20 0xFFFFFFFFFFFFFFFFFFFFFFFFFFFFFFFFFFFFFFFF AND MUL OR SWAP1 SSTORE POP DUP1 PUSH1 0x3 PUSH1 0x0 DUP6 PUSH20 0xFFFFFFFFFFFFFFFFFFFFFFFFFFFFFFFFFFFFFFFF AND PUSH20 0xFFFFFFFFFFFFFFFFFFFFFFFFFFFFFFFFFFFFFFFF AND DUP2 MSTORE PUSH1 0x20 ADD SWAP1 DUP2 MSTORE PUSH1 0x20 ADD PUSH1 0x0 KECCAK256 PUSH1 0x0 DUP5 DUP2 MSTORE PUSH1 0x20 ADD SWAP1 DUP2 MSTORE PUSH1 0x20 ADD PUSH1 0x0 KECCAK256 PUSH1 0x0 CALLER PUSH20 0xFFFFFFFFFFFFFFFFFFFFFFFFFFFFFFFFFFFFFFFF AND PUSH20 0xFFFFFFFFFFFFFFFFFFFFFFFFFFFFFFFFFFFFFFFF AND DUP2 MSTORE PUSH1 0x20 ADD SWAP1 DUP2 MSTORE PUSH1 0x20 ADD PUSH1 0x0 KECCAK256 DUP2 SWAP1 SSTORE POP PUSH32 0x907CDADC7C1A8ABCDD80CDD85EB18377631E4F413FB6397A8252FF7B358AC6CB DUP4 DUP4 DUP4 CALLER PUSH1 0x40 MLOAD PUSH2 0x12E2 SWAP5 SWAP4 SWAP3 SWAP2 SWAP1 PUSH2 0x492B JUMP JUMPDEST PUSH1 0x40 MLOAD DUP1 SWAP2 SUB SWAP1 LOG1 POP POP POP POP POP POP POP POP POP POP POP POP POP POP POP POP JUMP JUMPDEST DUP3 DUP3 PUSH1 0x1 PUSH1 0x2 PUSH1 0x0 DUP5 PUSH20 0xFFFFFFFFFFFFFFFFFFFFFFFFFFFFFFFFFFFFFFFF AND PUSH20 0xFFFFFFFFFFFFFFFFFFFFFFFFFFFFFFFFFFFFFFFF AND DUP2 MSTORE PUSH1 0x20 ADD SWAP1 DUP2 MSTORE PUSH1 0x20 ADD PUSH1 0x0 KECCAK256 PUSH1 0x0 DUP4 DUP2 MSTORE PUSH1 0x20 ADD SWAP1 DUP2 MSTORE PUSH1 0x20 ADD PUSH1 0x0 KECCAK256 SLOAD EQ PUSH2 0x1391 JUMPI PUSH1 0x40 MLOAD PUSH32 0x8C379A000000000000000000000000000000000000000000000000000000000 DUP2 MSTORE PUSH1 0x4 ADD PUSH2 0x1388 SWAP1 PUSH2 0x4A48 JUMP JUMPDEST PUSH1 0x40 MLOAD DUP1 SWAP2 SUB SWAP1 REVERT JUMPDEST DUP5 DUP5 PUSH1 0x0 DUP1 DUP4 PUSH20 0xFFFFFFFFFFFFFFFFFFFFFFFFFFFFFFFFFFFFFFFF AND PUSH20 0xFFFFFFFFFFFFFFFFFFFFFFFFFFFFFFFFFFFFFFFF AND DUP2 MSTORE PUSH1 0x20 ADD SWAP1 DUP2 MSTORE PUSH1 0x20 ADD PUSH1 0x0 KECCAK256 PUSH1 0x0 DUP3 DUP2 MSTORE PUSH1 0x20 ADD SWAP1 DUP2 MSTORE PUSH1 0x20 ADD PUSH1 0x0 KECCAK256 PUSH1 0x0 ADD PUSH1 0x0 SWAP1 SLOAD SWAP1 PUSH2 0x100 EXP SWAP1 DIV PUSH20 0xFFFFFFFFFFFFFFFFFFFFFFFFFFFFFFFFFFFFFFFF AND PUSH20 0xFFFFFFFFFFFFFFFFFFFFFFFFFFFFFFFFFFFFFFFF AND CALLER PUSH20 0xFFFFFFFFFFFFFFFFFFFFFFFFFFFFFFFFFFFFFFFF AND EQ PUSH2 0x1473 JUMPI PUSH1 0x40 MLOAD PUSH32 0x8C379A000000000000000000000000000000000000000000000000000000000 DUP2 MSTORE PUSH1 0x4 ADD PUSH2 0x146A SWAP1 PUSH2 0x4B48 JUMP JUMPDEST PUSH1 0x40 MLOAD DUP1 SWAP2 SUB SWAP1 REVERT JUMPDEST DUP5 PUSH1 0x0 DUP2 GT PUSH2 0x14B7 JUMPI PUSH1 0x40 MLOAD PUSH32 0x8C379A000000000000000000000000000000000000000000000000000000000 DUP2 MSTORE PUSH1 0x4 ADD PUSH2 0x14AE SWAP1 PUSH2 0x4A08 JUMP JUMPDEST PUSH1 0x40 MLOAD DUP1 SWAP2 SUB SWAP1 REVERT JUMPDEST DUP6 PUSH1 0x0 DUP1 DUP11 PUSH20 0xFFFFFFFFFFFFFFFFFFFFFFFFFFFFFFFFFFFFFFFF AND PUSH20 0xFFFFFFFFFFFFFFFFFFFFFFFFFFFFFFFFFFFFFFFF AND DUP2 MSTORE PUSH1 0x20 ADD SWAP1 DUP2 MSTORE PUSH1 0x20 ADD PUSH1 0x0 KECCAK256 PUSH1 0x0 DUP10 DUP2 MSTORE PUSH1 0x20 ADD SWAP1 DUP2 MSTORE PUSH1 0x20 ADD PUSH1 0x0 KECCAK256 PUSH1 0x3 ADD DUP2 SWAP1 SSTORE POP PUSH32 0x575A0876095CCF47276A37DCE683308A625403D132D219F95205CE205B2E12BC DUP9 DUP9 DUP9 PUSH1 0x40 MLOAD PUSH2 0x1541 SWAP4 SWAP3 SWAP2 SWAP1 PUSH2 0x48F4 JUMP JUMPDEST PUSH1 0x40 MLOAD DUP1 SWAP2 SUB SWAP1 LOG1 POP POP POP POP POP POP POP POP JUMP JUMPDEST DUP2 DUP2 PUSH1 0x1 PUSH1 0x0 DUP4 PUSH20 0xFFFFFFFFFFFFFFFFFFFFFFFFFFFFFFFFFFFFFFFF AND PUSH20 0xFFFFFFFFFFFFFFFFFFFFFFFFFFFFFFFFFFFFFFFF AND DUP2 MSTORE PUSH1 0x20 ADD SWAP1 DUP2 MSTORE PUSH1 0x20 ADD PUSH1 0x0 KECCAK256 PUSH1 0x0 DUP3 DUP2 MSTORE PUSH1 0x20 ADD SWAP1 DUP2 MSTORE PUSH1 0x20 ADD PUSH1 0x0 KECCAK256 PUSH1 0x1 ADD SLOAD TIMESTAMP GT PUSH2 0x15EA JUMPI PUSH1 0x40 MLOAD PUSH32 0x8C379A000000000000000000000000000000000000000000000000000000000 DUP2 MSTORE PUSH1 0x4 ADD PUSH2 0x15E1 SWAP1 PUSH2 0x4B28 JUMP JUMPDEST PUSH1 0x40 MLOAD DUP1 SWAP2 SUB SWAP1 REVERT JUMPDEST PUSH1 0x1 PUSH1 0x0 DUP6 PUSH20 0xFFFFFFFFFFFFFFFFFFFFFFFFFFFFFFFFFFFFFFFF AND PUSH20 0xFFFFFFFFFFFFFFFFFFFFFFFFFFFFFFFFFFFFFFFF AND DUP2 MSTORE PUSH1 0x20 ADD SWAP1 DUP2 MSTORE PUSH1 0x20 ADD PUSH1 0x0 KECCAK256 PUSH1 0x0 DUP5 DUP2 MSTORE PUSH1 0x20 ADD SWAP1 DUP2 MSTORE PUSH1 0x20 ADD PUSH1 0x0 KECCAK256 PUSH1 0x4 ADD PUSH1 0x0 SWAP1 SLOAD SWAP1 PUSH2 0x100 EXP SWAP1 DIV PUSH20 0xFFFFFFFFFFFFFFFFFFFFFFFFFFFFFFFFFFFFFFFF AND PUSH20 0xFFFFFFFFFFFFFFFFFFFFFFFFFFFFFFFFFFFFFFFF AND CALLER PUSH20 0xFFFFFFFFFFFFFFFFFFFFFFFFFFFFFFFFFFFFFFFF AND EQ ISZERO PUSH2 0x16CC JUMPI PUSH1 0x40 MLOAD PUSH32 0x8C379A000000000000000000000000000000000000000000000000000000000 DUP2 MSTORE PUSH1 0x4 ADD PUSH2 0x16C3 SWAP1 PUSH2 0x49C8 JUMP JUMPDEST PUSH1 0x40 MLOAD DUP1 SWAP2 SUB SWAP1 REVERT JUMPDEST PUSH1 0x0 PUSH1 0x3 PUSH1 0x0 DUP7 PUSH20 0xFFFFFFFFFFFFFFFFFFFFFFFFFFFFFFFFFFFFFFFF AND PUSH20 0xFFFFFFFFFFFFFFFFFFFFFFFFFFFFFFFFFFFFFFFF AND DUP2 MSTORE PUSH1 0x20 ADD SWAP1 DUP2 MSTORE PUSH1 0x20 ADD PUSH1 0x0 KECCAK256 PUSH1 0x0 DUP6 DUP2 MSTORE PUSH1 0x20 ADD SWAP1 DUP2 MSTORE PUSH1 0x20 ADD PUSH1 0x0 KECCAK256 PUSH1 0x0 CALLER PUSH20 0xFFFFFFFFFFFFFFFFFFFFFFFFFFFFFFFFFFFFFFFF AND PUSH20 0xFFFFFFFFFFFFFFFFFFFFFFFFFFFFFFFFFFFFFFFF AND DUP2 MSTORE PUSH1 0x20 ADD SWAP1 DUP2 MSTORE PUSH1 0x20 ADD PUSH1 0x0 KECCAK256 SLOAD GT PUSH2 0x179C JUMPI PUSH1 0x40 MLOAD PUSH32 0x8C379A000000000000000000000000000000000000000000000000000000000 DUP2 MSTORE PUSH1 0x4 ADD PUSH2 0x1793 SWAP1 PUSH2 0x4B68 JUMP JUMPDEST PUSH1 0x40 MLOAD DUP1 SWAP2 SUB SWAP1 REVERT JUMPDEST PUSH1 0x0 PUSH1 0x3 PUSH1 0x0 DUP7 PUSH20 0xFFFFFFFFFFFFFFFFFFFFFFFFFFFFFFFFFFFFFFFF AND PUSH20 0xFFFFFFFFFFFFFFFFFFFFFFFFFFFFFFFFFFFFFFFF AND DUP2 MSTORE PUSH1 0x20 ADD SWAP1 DUP2 MSTORE PUSH1 0x20 ADD PUSH1 0x0 KECCAK256 PUSH1 0x0 DUP6 DUP2 MSTORE PUSH1 0x20 ADD SWAP1 DUP2 MSTORE PUSH1 0x20 ADD PUSH1 0x0 KECCAK256 PUSH1 0x0 CALLER PUSH20 0xFFFFFFFFFFFFFFFFFFFFFFFFFFFFFFFFFFFFFFFF AND PUSH20 0xFFFFFFFFFFFFFFFFFFFFFFFFFFFFFFFFFFFFFFFF AND DUP2 MSTORE PUSH1 0x20 ADD SWAP1 DUP2 MSTORE PUSH1 0x20 ADD PUSH1 0x0 KECCAK256 DUP2 SWAP1 SSTORE POP PUSH32 0xDE8CB9AA2C755CF75D5FBC4FEC824B10E311652306F1FCA5C8E57A04758B0AA7 DUP5 DUP5 CALLER PUSH1 0x40 MLOAD PUSH2 0x1862 SWAP4 SWAP3 SWAP2 SWAP1 PUSH2 0x486A JUMP JUMPDEST PUSH1 0x40 MLOAD DUP1 SWAP2 SUB SWAP1 LOG1 POP POP POP POP JUMP JUMPDEST DUP2 DUP2 PUSH1 0x2 DUP1 PUSH1 0x0 DUP5 PUSH20 0xFFFFFFFFFFFFFFFFFFFFFFFFFFFFFFFFFFFFFFFF AND PUSH20 0xFFFFFFFFFFFFFFFFFFFFFFFFFFFFFFFFFFFFFFFF AND DUP2 MSTORE PUSH1 0x20 ADD SWAP1 DUP2 MSTORE PUSH1 0x20 ADD PUSH1 0x0 KECCAK256 PUSH1 0x0 DUP4 DUP2 MSTORE PUSH1 0x20 ADD SWAP1 DUP2 MSTORE PUSH1 0x20 ADD PUSH1 0x0 KECCAK256 SLOAD EQ PUSH2 0x1904 JUMPI PUSH1 0x40 MLOAD PUSH32 0x8C379A000000000000000000000000000000000000000000000000000000000 DUP2 MSTORE PUSH1 0x4 ADD PUSH2 0x18FB SWAP1 PUSH2 0x4A68 JUMP JUMPDEST PUSH1 0x40 MLOAD DUP1 SWAP2 SUB SWAP1 REVERT JUMPDEST DUP4 DUP4 PUSH1 0x1 PUSH1 0x0 DUP4 PUSH20 0xFFFFFFFFFFFFFFFFFFFFFFFFFFFFFFFFFFFFFFFF AND PUSH20 0xFFFFFFFFFFFFFFFFFFFFFFFFFFFFFFFFFFFFFFFF AND DUP2 MSTORE PUSH1 0x20 ADD SWAP1 DUP2 MSTORE PUSH1 0x20 ADD PUSH1 0x0 KECCAK256 PUSH1 0x0 DUP3 DUP2 MSTORE PUSH1 0x20 ADD SWAP1 DUP2 MSTORE PUSH1 0x20 ADD PUSH1 0x0 KECCAK256 PUSH1 0x1 ADD SLOAD TIMESTAMP GT PUSH2 0x199B JUMPI PUSH1 0x40 MLOAD PUSH32 0x8C379A000000000000000000000000000000000000000000000000000000000 DUP2 MSTORE PUSH1 0x4 ADD PUSH2 0x1992 SWAP1 PUSH2 0x4B28 JUMP JUMPDEST PUSH1 0x40 MLOAD DUP1 SWAP2 SUB SWAP1 REVERT JUMPDEST PUSH1 0x0 PUSH1 0x1 PUSH1 0x0 DUP9 PUSH20 0xFFFFFFFFFFFFFFFFFFFFFFFFFFFFFFFFFFFFFFFF AND PUSH20 0xFFFFFFFFFFFFFFFFFFFFFFFFFFFFFFFFFFFFFFFF AND DUP2 MSTORE PUSH1 0x20 ADD SWAP1 DUP2 MSTORE PUSH1 0x20 ADD PUSH1 0x0 KECCAK256 PUSH1 0x0 DUP8 DUP2 MSTORE PUSH1 0x20 ADD SWAP1 DUP2 MSTORE PUSH1 0x20 ADD PUSH1 0x0 KECCAK256 PUSH1 0x4 ADD PUSH1 0x0 SWAP1 SLOAD SWAP1 PUSH2 0x100 EXP SWAP1 DIV PUSH20 0xFFFFFFFFFFFFFFFFFFFFFFFFFFFFFFFFFFFFFFFF AND SWAP1 POP PUSH2 0x1A72 DUP8 DUP8 PUSH1 0x1 PUSH1 0x0 DUP12 PUSH20 0xFFFFFFFFFFFFFFFFFFFFFFFFFFFFFFFFFFFFFFFF AND PUSH20 0xFFFFFFFFFFFFFFFFFFFFFFFFFFFFFFFFFFFFFFFF AND DUP2 MSTORE PUSH1 0x20 ADD SWAP1 DUP2 MSTORE PUSH1 0x20 ADD PUSH1 0x0 KECCAK256 PUSH1 0x0 DUP11 DUP2 MSTORE PUSH1 0x20 ADD SWAP1 DUP2 MSTORE PUSH1 0x20 ADD PUSH1 0x0 KECCAK256 PUSH1 0x3 ADD SLOAD DUP5 PUSH2 0x372C JUMP JUMPDEST PUSH1 0x0 PUSH1 0x3 PUSH1 0x0 DUP10 PUSH20 0xFFFFFFFFFFFFFFFFFFFFFFFFFFFFFFFFFFFFFFFF AND PUSH20 0xFFFFFFFFFFFFFFFFFFFFFFFFFFFFFFFFFFFFFFFF AND DUP2 MSTORE PUSH1 0x20 ADD SWAP1 DUP2 MSTORE PUSH1 0x20 ADD PUSH1 0x0 KECCAK256 PUSH1 0x0 DUP9 DUP2 MSTORE PUSH1 0x20 ADD SWAP1 DUP2 MSTORE PUSH1 0x20 ADD PUSH1 0x0 KECCAK256 PUSH1 0x0 DUP4 PUSH20 0xFFFFFFFFFFFFFFFFFFFFFFFFFFFFFFFFFFFFFFFF AND PUSH20 0xFFFFFFFFFFFFFFFFFFFFFFFFFFFFFFFFFFFFFFFF AND DUP2 MSTORE PUSH1 0x20 ADD SWAP1 DUP2 MSTORE PUSH1 0x20 ADD PUSH1 0x0 KECCAK256 DUP2 SWAP1 SSTORE POP PUSH32 0xB31CB4F6609B11A57D1B6B14CC3F81F4B3E609F709A5B1E46892A45F9CC29ED8 DUP8 DUP8 DUP4 PUSH1 0x1 PUSH1 0x0 DUP13 PUSH20 0xFFFFFFFFFFFFFFFFFFFFFFFFFFFFFFFFFFFFFFFF AND PUSH20 0xFFFFFFFFFFFFFFFFFFFFFFFFFFFFFFFFFFFFFFFF AND DUP2 MSTORE PUSH1 0x20 ADD SWAP1 DUP2 MSTORE PUSH1 0x20 ADD PUSH1 0x0 KECCAK256 PUSH1 0x0 DUP12 DUP2 MSTORE PUSH1 0x20 ADD SWAP1 DUP2 MSTORE PUSH1 0x20 ADD PUSH1 0x0 KECCAK256 PUSH1 0x3 ADD SLOAD PUSH1 0x1 PUSH1 0x0 DUP14 PUSH20 0xFFFFFFFFFFFFFFFFFFFFFFFFFFFFFFFFFFFFFFFF AND PUSH20 0xFFFFFFFFFFFFFFFFFFFFFFFFFFFFFFFFFFFFFFFF AND DUP2 MSTORE PUSH1 0x20 ADD SWAP1 DUP2 MSTORE PUSH1 0x20 ADD PUSH1 0x0 KECCAK256 PUSH1 0x0 DUP13 DUP2 MSTORE PUSH1 0x20 ADD SWAP1 DUP2 MSTORE PUSH1 0x20 ADD PUSH1 0x0 KECCAK256 PUSH1 0x5 ADD PUSH1 0x0 SWAP1 SLOAD SWAP1 PUSH2 0x100 EXP SWAP1 DIV PUSH20 0xFFFFFFFFFFFFFFFFFFFFFFFFFFFFFFFFFFFFFFFF AND PUSH1 0x40 MLOAD PUSH2 0x1C02 SWAP6 SWAP5 SWAP4 SWAP3 SWAP2 SWAP1 PUSH2 0x48A1 JUMP JUMPDEST PUSH1 0x40 MLOAD DUP1 SWAP2 SUB SWAP1 LOG1 POP POP POP POP POP POP POP JUMP JUMPDEST PUSH1 0x2 PUSH1 0x20 MSTORE DUP2 PUSH1 0x0 MSTORE PUSH1 0x40 PUSH1 0x0 KECCAK256 PUSH1 0x20 MSTORE DUP1 PUSH1 0x0 MSTORE PUSH1 0x40 PUSH1 0x0 KECCAK256 PUSH1 0x0 SWAP2 POP SWAP2 POP POP SLOAD DUP2 JUMP JUMPDEST DUP4 DUP3 DUP2 PUSH20 0xFFFFFFFFFFFFFFFFFFFFFFFFFFFFFFFFFFFFFFFF AND PUSH4 0x6352211E DUP3 PUSH1 0x40 MLOAD DUP3 PUSH4 0xFFFFFFFF AND PUSH1 0xE0 SHL DUP2 MSTORE PUSH1 0x4 ADD PUSH2 0x1C73 SWAP2 SWAP1 PUSH2 0x4BFE JUMP JUMPDEST PUSH1 0x20 PUSH1 0x40 MLOAD DUP1 DUP4 SUB DUP2 DUP7 DUP1 EXTCODESIZE ISZERO DUP1 ISZERO PUSH2 0x1C8B JUMPI PUSH1 0x0 DUP1 REVERT JUMPDEST POP GAS STATICCALL ISZERO DUP1 ISZERO PUSH2 0x1C9F JUMPI RETURNDATASIZE PUSH1 0x0 DUP1 RETURNDATACOPY RETURNDATASIZE PUSH1 0x0 REVERT JUMPDEST POP POP POP POP PUSH1 0x40 MLOAD RETURNDATASIZE PUSH1 0x1F NOT PUSH1 0x1F DUP3 ADD AND DUP3 ADD DUP1 PUSH1 0x40 MSTORE POP DUP2 ADD SWAP1 PUSH2 0x1CC3 SWAP2 SWAP1 PUSH2 0x3F73 JUMP JUMPDEST PUSH20 0xFFFFFFFFFFFFFFFFFFFFFFFFFFFFFFFFFFFFFFFF AND CALLER PUSH20 0xFFFFFFFFFFFFFFFFFFFFFFFFFFFFFFFFFFFFFFFF AND EQ PUSH2 0x1D30 JUMPI PUSH1 0x40 MLOAD PUSH32 0x8C379A000000000000000000000000000000000000000000000000000000000 DUP2 MSTORE PUSH1 0x4 ADD PUSH2 0x1D27 SWAP1 PUSH2 0x4B48 JUMP JUMPDEST PUSH1 0x40 MLOAD DUP1 SWAP2 SUB SWAP1 REVERT JUMPDEST DUP6 DUP5 PUSH1 0x0 PUSH1 0x2 PUSH1 0x0 DUP5 PUSH20 0xFFFFFFFFFFFFFFFFFFFFFFFFFFFFFFFFFFFFFFFF AND PUSH20 0xFFFFFFFFFFFFFFFFFFFFFFFFFFFFFFFFFFFFFFFF AND DUP2 MSTORE PUSH1 0x20 ADD SWAP1 DUP2 MSTORE PUSH1 0x20 ADD PUSH1 0x0 KECCAK256 PUSH1 0x0 DUP4 DUP2 MSTORE PUSH1 0x20 ADD SWAP1 DUP2 MSTORE PUSH1 0x20 ADD PUSH1 0x0 KECCAK256 SLOAD EQ PUSH2 0x1DC5 JUMPI PUSH1 0x40 MLOAD PUSH32 0x8C379A000000000000000000000000000000000000000000000000000000000 DUP2 MSTORE PUSH1 0x4 ADD PUSH2 0x1DBC SWAP1 PUSH2 0x4AC8 JUMP JUMPDEST PUSH1 0x40 MLOAD DUP1 SWAP2 SUB SWAP1 REVERT JUMPDEST DUP8 DUP7 DUP2 PUSH20 0xFFFFFFFFFFFFFFFFFFFFFFFFFFFFFFFFFFFFFFFF AND PUSH4 0xE985E9C5 CALLER ADDRESS PUSH1 0x40 MLOAD DUP4 PUSH4 0xFFFFFFFF AND PUSH1 0xE0 SHL DUP2 MSTORE PUSH1 0x4 ADD PUSH2 0x1E02 SWAP3 SWAP2 SWAP1 PUSH2 0x46CC JUMP JUMPDEST PUSH1 0x20 PUSH1 0x40 MLOAD DUP1 DUP4 SUB DUP2 DUP7 DUP1 EXTCODESIZE ISZERO DUP1 ISZERO PUSH2 0x1E1A JUMPI PUSH1 0x0 DUP1 REVERT JUMPDEST POP GAS STATICCALL ISZERO DUP1 ISZERO PUSH2 0x1E2E JUMPI RETURNDATASIZE PUSH1 0x0 DUP1 RETURNDATACOPY RETURNDATASIZE PUSH1 0x0 REVERT JUMPDEST POP POP POP POP PUSH1 0x40 MLOAD RETURNDATASIZE PUSH1 0x1F NOT PUSH1 0x1F DUP3 ADD AND DUP3 ADD DUP1 PUSH1 0x40 MSTORE POP DUP2 ADD SWAP1 PUSH2 0x1E52 SWAP2 SWAP1 PUSH2 0x4255 JUMP JUMPDEST PUSH2 0x1E91 JUMPI PUSH1 0x40 MLOAD PUSH32 0x8C379A000000000000000000000000000000000000000000000000000000000 DUP2 MSTORE PUSH1 0x4 ADD PUSH2 0x1E88 SWAP1 PUSH2 0x49E8 JUMP JUMPDEST PUSH1 0x40 MLOAD DUP1 SWAP2 SUB SWAP1 REVERT JUMPDEST DUP7 PUSH1 0x0 DUP2 GT PUSH2 0x1ED5 JUMPI PUSH1 0x40 MLOAD PUSH32 0x8C379A000000000000000000000000000000000000000000000000000000000 DUP2 MSTORE PUSH1 0x4 ADD PUSH2 0x1ECC SWAP1 PUSH2 0x4A08 JUMP JUMPDEST PUSH1 0x40 MLOAD DUP1 SWAP2 SUB SWAP1 REVERT JUMPDEST PUSH1 0x40 MLOAD DUP1 PUSH1 0x80 ADD PUSH1 0x40 MSTORE DUP1 CALLER PUSH20 0xFFFFFFFFFFFFFFFFFFFFFFFFFFFFFFFFFFFFFFFF AND DUP2 MSTORE PUSH1 0x20 ADD PUSH1 0x0 PUSH20 0xFFFFFFFFFFFFFFFFFFFFFFFFFFFFFFFFFFFFFFFF AND DUP2 MSTORE PUSH1 0x20 ADD DUP12 PUSH20 0xFFFFFFFFFFFFFFFFFFFFFFFFFFFFFFFFFFFFFFFF AND DUP2 MSTORE PUSH1 0x20 ADD DUP10 DUP2 MSTORE POP PUSH1 0x0 DUP1 DUP14 PUSH20 0xFFFFFFFFFFFFFFFFFFFFFFFFFFFFFFFFFFFFFFFF AND PUSH20 0xFFFFFFFFFFFFFFFFFFFFFFFFFFFFFFFFFFFFFFFF AND DUP2 MSTORE PUSH1 0x20 ADD SWAP1 DUP2 MSTORE PUSH1 0x20 ADD PUSH1 0x0 KECCAK256 PUSH1 0x0 DUP12 DUP2 MSTORE PUSH1 0x20 ADD SWAP1 DUP2 MSTORE PUSH1 0x20 ADD PUSH1 0x0 KECCAK256 PUSH1 0x0 DUP3 ADD MLOAD DUP2 PUSH1 0x0 ADD PUSH1 0x0 PUSH2 0x100 EXP DUP2 SLOAD DUP2 PUSH20 0xFFFFFFFFFFFFFFFFFFFFFFFFFFFFFFFFFFFFFFFF MUL NOT AND SWAP1 DUP4 PUSH20 0xFFFFFFFFFFFFFFFFFFFFFFFFFFFFFFFFFFFFFFFF AND MUL OR SWAP1 SSTORE POP PUSH1 0x20 DUP3 ADD MLOAD DUP2 PUSH1 0x1 ADD PUSH1 0x0 PUSH2 0x100 EXP DUP2 SLOAD DUP2 PUSH20 0xFFFFFFFFFFFFFFFFFFFFFFFFFFFFFFFFFFFFFFFF MUL NOT AND SWAP1 DUP4 PUSH20 0xFFFFFFFFFFFFFFFFFFFFFFFFFFFFFFFFFFFFFFFF AND MUL OR SWAP1 SSTORE POP PUSH1 0x40 DUP3 ADD MLOAD DUP2 PUSH1 0x2 ADD PUSH1 0x0 PUSH2 0x100 EXP DUP2 SLOAD DUP2 PUSH20 0xFFFFFFFFFFFFFFFFFFFFFFFFFFFFFFFFFFFFFFFF MUL NOT AND SWAP1 DUP4 PUSH20 0xFFFFFFFFFFFFFFFFFFFFFFFFFFFFFFFFFFFFFFFF AND MUL OR SWAP1 SSTORE POP PUSH1 0x60 DUP3 ADD MLOAD DUP2 PUSH1 0x3 ADD SSTORE SWAP1 POP POP PUSH1 0x1 PUSH1 0x2 PUSH1 0x0 DUP14 PUSH20 0xFFFFFFFFFFFFFFFFFFFFFFFFFFFFFFFFFFFFFFFF AND PUSH20 0xFFFFFFFFFFFFFFFFFFFFFFFFFFFFFFFFFFFFFFFF AND DUP2 MSTORE PUSH1 0x20 ADD SWAP1 DUP2 MSTORE PUSH1 0x20 ADD PUSH1 0x0 KECCAK256 PUSH1 0x0 DUP12 DUP2 MSTORE PUSH1 0x20 ADD SWAP1 DUP2 MSTORE PUSH1 0x20 ADD PUSH1 0x0 KECCAK256 DUP2 SWAP1 SSTORE POP PUSH1 0x5 DUP1 SLOAD SWAP1 POP PUSH1 0x4 PUSH1 0x0 DUP14 PUSH20 0xFFFFFFFFFFFFFFFFFFFFFFFFFFFFFFFFFFFFFFFF AND PUSH20 0xFFFFFFFFFFFFFFFFFFFFFFFFFFFFFFFFFFFFFFFF AND DUP2 MSTORE PUSH1 0x20 ADD SWAP1 DUP2 MSTORE PUSH1 0x20 ADD PUSH1 0x0 KECCAK256 PUSH1 0x0 DUP12 DUP2 MSTORE PUSH1 0x20 ADD SWAP1 DUP2 MSTORE PUSH1 0x20 ADD PUSH1 0x0 KECCAK256 DUP2 SWAP1 SSTORE POP PUSH1 0x5 PUSH1 0x40 MLOAD DUP1 PUSH1 0x40 ADD PUSH1 0x40 MSTORE DUP1 DUP14 PUSH20 0xFFFFFFFFFFFFFFFFFFFFFFFFFFFFFFFFFFFFFFFF AND DUP2 MSTORE PUSH1 0x20 ADD DUP12 DUP2 MSTORE POP SWAP1 DUP1 PUSH1 0x1 DUP2 SLOAD ADD DUP1 DUP3 SSTORE DUP1 SWAP2 POP POP PUSH1 0x1 SWAP1 SUB SWAP1 PUSH1 0x0 MSTORE PUSH1 0x20 PUSH1 0x0 KECCAK256 SWAP1 PUSH1 0x2 MUL ADD PUSH1 0x0 SWAP1 SWAP2 SWAP1 SWAP2 SWAP1 SWAP2 POP PUSH1 0x0 DUP3 ADD MLOAD DUP2 PUSH1 0x0 ADD PUSH1 0x0 PUSH2 0x100 EXP DUP2 SLOAD DUP2 PUSH20 0xFFFFFFFFFFFFFFFFFFFFFFFFFFFFFFFFFFFFFFFF MUL NOT AND SWAP1 DUP4 PUSH20 0xFFFFFFFFFFFFFFFFFFFFFFFFFFFFFFFFFFFFFFFF AND MUL OR SWAP1 SSTORE POP PUSH1 0x20 DUP3 ADD MLOAD DUP2 PUSH1 0x1 ADD SSTORE POP POP DUP11 PUSH20 0xFFFFFFFFFFFFFFFFFFFFFFFFFFFFFFFFFFFFFFFF AND PUSH4 0x42842E0E CALLER ADDRESS DUP13 PUSH1 0x40 MLOAD DUP5 PUSH4 0xFFFFFFFF AND PUSH1 0xE0 SHL DUP2 MSTORE PUSH1 0x4 ADD PUSH2 0x2200 SWAP4 SWAP3 SWAP2 SWAP1 PUSH2 0x47C5 JUMP JUMPDEST PUSH1 0x0 PUSH1 0x40 MLOAD DUP1 DUP4 SUB DUP2 PUSH1 0x0 DUP8 DUP1 EXTCODESIZE ISZERO DUP1 ISZERO PUSH2 0x221A JUMPI PUSH1 0x0 DUP1 REVERT JUMPDEST POP GAS CALL ISZERO DUP1 ISZERO PUSH2 0x222E JUMPI RETURNDATASIZE PUSH1 0x0 DUP1 RETURNDATACOPY RETURNDATASIZE PUSH1 0x0 REVERT JUMPDEST POP POP POP POP PUSH32 0x78EEAD3CD01ED921C7653D000A6B73AEA643A7B9C066FB7D93EB2EAE8ACC2D9 DUP12 CALLER DUP13 DUP13 DUP13 TIMESTAMP PUSH1 0x40 MLOAD PUSH2 0x226B SWAP7 SWAP6 SWAP5 SWAP4 SWAP3 SWAP2 SWAP1 PUSH2 0x46F5 JUMP JUMPDEST PUSH1 0x40 MLOAD DUP1 SWAP2 SUB SWAP1 LOG1 POP POP POP POP POP POP POP POP POP POP POP JUMP JUMPDEST PUSH2 0x2288 PUSH2 0x3DE0 JUMP JUMPDEST PUSH1 0x1 PUSH1 0x0 DUP5 PUSH20 0xFFFFFFFFFFFFFFFFFFFFFFFFFFFFFFFFFFFFFFFF AND PUSH20 0xFFFFFFFFFFFFFFFFFFFFFFFFFFFFFFFFFFFFFFFF AND DUP2 MSTORE PUSH1 0x20 ADD SWAP1 DUP2 MSTORE PUSH1 0x20 ADD PUSH1 0x0 KECCAK256 PUSH1 0x0 DUP4 DUP2 MSTORE PUSH1 0x20 ADD SWAP1 DUP2 MSTORE PUSH1 0x20 ADD PUSH1 0x0 KECCAK256 PUSH1 0x40 MLOAD DUP1 PUSH1 0xE0 ADD PUSH1 0x40 MSTORE SWAP1 DUP2 PUSH1 0x0 DUP3 ADD SLOAD DUP2 MSTORE PUSH1 0x20 ADD PUSH1 0x1 DUP3 ADD SLOAD DUP2 MSTORE PUSH1 0x20 ADD PUSH1 0x2 DUP3 ADD SLOAD DUP2 MSTORE PUSH1 0x20 ADD PUSH1 0x3 DUP3 ADD SLOAD DUP2 MSTORE PUSH1 0x20 ADD PUSH1 0x4 DUP3 ADD PUSH1 0x0 SWAP1 SLOAD SWAP1 PUSH2 0x100 EXP SWAP1 DIV PUSH20 0xFFFFFFFFFFFFFFFFFFFFFFFFFFFFFFFFFFFFFFFF AND PUSH20 0xFFFFFFFFFFFFFFFFFFFFFFFFFFFFFFFFFFFFFFFF AND PUSH20 0xFFFFFFFFFFFFFFFFFFFFFFFFFFFFFFFFFFFFFFFF AND DUP2 MSTORE PUSH1 0x20 ADD PUSH1 0x5 DUP3 ADD PUSH1 0x0 SWAP1 SLOAD SWAP1 PUSH2 0x100 EXP SWAP1 DIV PUSH20 0xFFFFFFFFFFFFFFFFFFFFFFFFFFFFFFFFFFFFFFFF AND PUSH20 0xFFFFFFFFFFFFFFFFFFFFFFFFFFFFFFFFFFFFFFFF AND PUSH20 0xFFFFFFFFFFFFFFFFFFFFFFFFFFFFFFFFFFFFFFFF AND DUP2 MSTORE PUSH1 0x20 ADD PUSH1 0x6 DUP3 ADD PUSH1 0x0 SWAP1 SLOAD SWAP1 PUSH2 0x100 EXP SWAP1 DIV PUSH20 0xFFFFFFFFFFFFFFFFFFFFFFFFFFFFFFFFFFFFFFFF AND PUSH20 0xFFFFFFFFFFFFFFFFFFFFFFFFFFFFFFFFFFFFFFFF AND PUSH20 0xFFFFFFFFFFFFFFFFFFFFFFFFFFFFFFFFFFFFFFFF AND DUP2 MSTORE POP POP SWAP1 POP SWAP3 SWAP2 POP POP JUMP JUMPDEST PUSH1 0x3 PUSH1 0x20 MSTORE DUP3 PUSH1 0x0 MSTORE PUSH1 0x40 PUSH1 0x0 KECCAK256 PUSH1 0x20 MSTORE DUP2 PUSH1 0x0 MSTORE PUSH1 0x40 PUSH1 0x0 KECCAK256 PUSH1 0x20 MSTORE DUP1 PUSH1 0x0 MSTORE PUSH1 0x40 PUSH1 0x0 KECCAK256 PUSH1 0x0 SWAP3 POP SWAP3 POP POP POP SLOAD DUP2 JUMP JUMPDEST PUSH1 0x0 DUP1 DUP5 SWAP1 POP DUP1 PUSH20 0xFFFFFFFFFFFFFFFFFFFFFFFFFFFFFFFFFFFFFFFF AND PUSH4 0x23B872DD DUP6 PUSH20 0x2258C5B9C82FF0FA923756ED3FD2ACB5616DF57C DUP7 PUSH1 0x40 MLOAD DUP5 PUSH4 0xFFFFFFFF AND PUSH1 0xE0 SHL DUP2 MSTORE PUSH1 0x4 ADD PUSH2 0x249E SWAP4 SWAP3 SWAP2 SWAP1 PUSH2 0x47C5 JUMP JUMPDEST PUSH1 0x20 PUSH1 0x40 MLOAD DUP1 DUP4 SUB DUP2 PUSH1 0x0 DUP8 DUP1 EXTCODESIZE ISZERO DUP1 ISZERO PUSH2 0x24B8 JUMPI PUSH1 0x0 DUP1 REVERT JUMPDEST POP GAS CALL ISZERO DUP1 ISZERO PUSH2 0x24CC JUMPI RETURNDATASIZE PUSH1 0x0 DUP1 RETURNDATACOPY RETURNDATASIZE PUSH1 0x0 REVERT JUMPDEST POP POP POP POP PUSH1 0x40 MLOAD RETURNDATASIZE PUSH1 0x1F NOT PUSH1 0x1F DUP3 ADD AND DUP3 ADD DUP1 PUSH1 0x40 MSTORE POP DUP2 ADD SWAP1 PUSH2 0x24F0 SWAP2 SWAP1 PUSH2 0x4255 JUMP JUMPDEST POP PUSH1 0x1 SWAP2 POP POP SWAP4 SWAP3 POP POP POP JUMP JUMPDEST DUP2 DUP2 PUSH1 0x2 DUP1 PUSH1 0x0 DUP5 PUSH20 0xFFFFFFFFFFFFFFFFFFFFFFFFFFFFFFFFFFFFFFFF AND PUSH20 0xFFFFFFFFFFFFFFFFFFFFFFFFFFFFFFFFFFFFFFFF AND DUP2 MSTORE PUSH1 0x20 ADD SWAP1 DUP2 MSTORE PUSH1 0x20 ADD PUSH1 0x0 KECCAK256 PUSH1 0x0 DUP4 DUP2 MSTORE PUSH1 0x20 ADD SWAP1 DUP2 MSTORE PUSH1 0x20 ADD PUSH1 0x0 KECCAK256 SLOAD EQ PUSH2 0x2591 JUMPI PUSH1 0x40 MLOAD PUSH32 0x8C379A000000000000000000000000000000000000000000000000000000000 DUP2 MSTORE PUSH1 0x4 ADD PUSH2 0x2588 SWAP1 PUSH2 0x4A68 JUMP JUMPDEST PUSH1 0x40 MLOAD DUP1 SWAP2 SUB SWAP1 REVERT JUMPDEST DUP4 DUP4 PUSH1 0x1 PUSH1 0x0 DUP4 PUSH20 0xFFFFFFFFFFFFFFFFFFFFFFFFFFFFFFFFFFFFFFFF AND PUSH20 0xFFFFFFFFFFFFFFFFFFFFFFFFFFFFFFFFFFFFFFFF AND DUP2 MSTORE PUSH1 0x20 ADD SWAP1 DUP2 MSTORE PUSH1 0x20 ADD PUSH1 0x0 KECCAK256 PUSH1 0x0 DUP3 DUP2 MSTORE PUSH1 0x20 ADD SWAP1 DUP2 MSTORE PUSH1 0x20 ADD PUSH1 0x0 KECCAK256 PUSH1 0x5 ADD PUSH1 0x0 SWAP1 SLOAD SWAP1 PUSH2 0x100 EXP SWAP1 DIV PUSH20 0xFFFFFFFFFFFFFFFFFFFFFFFFFFFFFFFFFFFFFFFF AND PUSH20 0xFFFFFFFFFFFFFFFFFFFFFFFFFFFFFFFFFFFFFFFF AND CALLER PUSH20 0xFFFFFFFFFFFFFFFFFFFFFFFFFFFFFFFFFFFFFFFF AND EQ PUSH2 0x2674 JUMPI PUSH1 0x40 MLOAD PUSH32 0x8C379A000000000000000000000000000000000000000000000000000000000 DUP2 MSTORE PUSH1 0x4 ADD PUSH2 0x266B SWAP1 PUSH2 0x4A28 JUMP JUMPDEST PUSH1 0x40 MLOAD DUP1 SWAP2 SUB SWAP1 REVERT JUMPDEST DUP6 DUP6 PUSH1 0x1 PUSH1 0x0 DUP4 PUSH20 0xFFFFFFFFFFFFFFFFFFFFFFFFFFFFFFFFFFFFFFFF AND PUSH20 0xFFFFFFFFFFFFFFFFFFFFFFFFFFFFFFFFFFFFFFFF AND DUP2 MSTORE PUSH1 0x20 ADD SWAP1 DUP2 MSTORE PUSH1 0x20 ADD PUSH1 0x0 KECCAK256 PUSH1 0x0 DUP3 DUP2 MSTORE PUSH1 0x20 ADD SWAP1 DUP2 MSTORE PUSH1 0x20 ADD PUSH1 0x0 KECCAK256 PUSH1 0x1 ADD SLOAD TIMESTAMP LT PUSH2 0x270B JUMPI PUSH1 0x40 MLOAD PUSH32 0x8C379A000000000000000000000000000000000000000000000000000000000 DUP2 MSTORE PUSH1 0x4 ADD PUSH2 0x2702 SWAP1 PUSH2 0x4AA8 JUMP JUMPDEST PUSH1 0x40 MLOAD DUP1 SWAP2 SUB SWAP1 REVERT JUMPDEST DUP8 DUP8 PUSH1 0x1 PUSH1 0x0 DUP4 PUSH20 0xFFFFFFFFFFFFFFFFFFFFFFFFFFFFFFFFFFFFFFFF AND PUSH20 0xFFFFFFFFFFFFFFFFFFFFFFFFFFFFFFFFFFFFFFFF AND DUP2 MSTORE PUSH1 0x20 ADD SWAP1 DUP2 MSTORE PUSH1 0x20 ADD PUSH1 0x0 KECCAK256 PUSH1 0x0 DUP3 DUP2 MSTORE PUSH1 0x20 ADD SWAP1 DUP2 MSTORE PUSH1 0x20 ADD PUSH1 0x0 KECCAK256 PUSH1 0x4 ADD PUSH1 0x0 SWAP1 SLOAD SWAP1 PUSH2 0x100 EXP SWAP1 DIV PUSH20 0xFFFFFFFFFFFFFFFFFFFFFFFFFFFFFFFFFFFFFFFF AND PUSH20 0xFFFFFFFFFFFFFFFFFFFFFFFFFFFFFFFFFFFFFFFF AND PUSH1 0x0 PUSH20 0xFFFFFFFFFFFFFFFFFFFFFFFFFFFFFFFFFFFFFFFF AND EQ PUSH2 0x27EF JUMPI PUSH1 0x40 MLOAD PUSH32 0x8C379A000000000000000000000000000000000000000000000000000000000 DUP2 MSTORE PUSH1 0x4 ADD PUSH2 0x27E6 SWAP1 PUSH2 0x4AE8 JUMP JUMPDEST PUSH1 0x40 MLOAD DUP1 SWAP2 SUB SWAP1 REVERT JUMPDEST PUSH1 0x0 PUSH1 0x2 PUSH1 0x0 DUP13 PUSH20 0xFFFFFFFFFFFFFFFFFFFFFFFFFFFFFFFFFFFFFFFF AND PUSH20 0xFFFFFFFFFFFFFFFFFFFFFFFFFFFFFFFFFFFFFFFF AND DUP2 MSTORE PUSH1 0x20 ADD SWAP1 DUP2 MSTORE PUSH1 0x20 ADD PUSH1 0x0 KECCAK256 PUSH1 0x0 DUP12 DUP2 MSTORE PUSH1 0x20 ADD SWAP1 DUP2 MSTORE PUSH1 0x20 ADD PUSH1 0x0 KECCAK256 DUP2 SWAP1 SSTORE POP DUP10 PUSH20 0xFFFFFFFFFFFFFFFFFFFFFFFFFFFFFFFFFFFFFFFF AND PUSH4 0x42842E0E ADDRESS CALLER DUP13 PUSH1 0x40 MLOAD DUP5 PUSH4 0xFFFFFFFF AND PUSH1 0xE0 SHL DUP2 MSTORE PUSH1 0x4 ADD PUSH2 0x2882 SWAP4 SWAP3 SWAP2 SWAP1 PUSH2 0x47C5 JUMP JUMPDEST PUSH1 0x0 PUSH1 0x40 MLOAD DUP1 DUP4 SUB DUP2 PUSH1 0x0 DUP8 DUP1 EXTCODESIZE ISZERO DUP1 ISZERO PUSH2 0x289C JUMPI PUSH1 0x0 DUP1 REVERT JUMPDEST POP GAS CALL ISZERO DUP1 ISZERO PUSH2 0x28B0 JUMPI RETURNDATASIZE PUSH1 0x0 DUP1 RETURNDATACOPY RETURNDATASIZE PUSH1 0x0 REVERT JUMPDEST POP POP POP POP PUSH32 0xB9D411977D4EE731F87BB8F16EB6F8C1FB579CFF684642052BF6084E6E33238D DUP11 DUP11 CALLER PUSH1 0x40 MLOAD PUSH2 0x28E7 SWAP4 SWAP3 SWAP2 SWAP1 PUSH2 0x486A JUMP JUMPDEST PUSH1 0x40 MLOAD DUP1 SWAP2 SUB SWAP1 LOG1 POP POP POP POP POP POP POP POP POP POP JUMP JUMPDEST PUSH2 0x2903 PUSH2 0x3E5F JUMP JUMPDEST PUSH1 0x0 DUP1 DUP5 PUSH20 0xFFFFFFFFFFFFFFFFFFFFFFFFFFFFFFFFFFFFFFFF AND PUSH20 0xFFFFFFFFFFFFFFFFFFFFFFFFFFFFFFFFFFFFFFFF AND DUP2 MSTORE PUSH1 0x20 ADD SWAP1 DUP2 MSTORE PUSH1 0x20 ADD PUSH1 0x0 KECCAK256 PUSH1 0x0 DUP4 DUP2 MSTORE PUSH1 0x20 ADD SWAP1 DUP2 MSTORE PUSH1 0x20 ADD PUSH1 0x0 KECCAK256 PUSH1 0x40 MLOAD DUP1 PUSH1 0x80 ADD PUSH1 0x40 MSTORE SWAP1 DUP2 PUSH1 0x0 DUP3 ADD PUSH1 0x0 SWAP1 SLOAD SWAP1 PUSH2 0x100 EXP SWAP1 DIV PUSH20 0xFFFFFFFFFFFFFFFFFFFFFFFFFFFFFFFFFFFFFFFF AND PUSH20 0xFFFFFFFFFFFFFFFFFFFFFFFFFFFFFFFFFFFFFFFF AND PUSH20 0xFFFFFFFFFFFFFFFFFFFFFFFFFFFFFFFFFFFFFFFF AND DUP2 MSTORE PUSH1 0x20 ADD PUSH1 0x1 DUP3 ADD PUSH1 0x0 SWAP1 SLOAD SWAP1 PUSH2 0x100 EXP SWAP1 DIV PUSH20 0xFFFFFFFFFFFFFFFFFFFFFFFFFFFFFFFFFFFFFFFF AND PUSH20 0xFFFFFFFFFFFFFFFFFFFFFFFFFFFFFFFFFFFFFFFF AND PUSH20 0xFFFFFFFFFFFFFFFFFFFFFFFFFFFFFFFFFFFFFFFF AND DUP2 MSTORE PUSH1 0x20 ADD PUSH1 0x2 DUP3 ADD PUSH1 0x0 SWAP1 SLOAD SWAP1 PUSH2 0x100 EXP SWAP1 DIV PUSH20 0xFFFFFFFFFFFFFFFFFFFFFFFFFFFFFFFFFFFFFFFF AND PUSH20 0xFFFFFFFFFFFFFFFFFFFFFFFFFFFFFFFFFFFFFFFF AND PUSH20 0xFFFFFFFFFFFFFFFFFFFFFFFFFFFFFFFFFFFFFFFF AND DUP2 MSTORE PUSH1 0x20 ADD PUSH1 0x3 DUP3 ADD SLOAD DUP2 MSTORE POP POP SWAP1 POP SWAP3 SWAP2 POP POP JUMP JUMPDEST PUSH1 0x60 PUSH1 0x5 DUP1 SLOAD DUP1 PUSH1 0x20 MUL PUSH1 0x20 ADD PUSH1 0x40 MLOAD SWAP1 DUP2 ADD PUSH1 0x40 MSTORE DUP1 SWAP3 SWAP2 SWAP1 DUP2 DUP2 MSTORE PUSH1 0x20 ADD PUSH1 0x0 SWAP1 JUMPDEST DUP3 DUP3 LT ISZERO PUSH2 0x2B27 JUMPI DUP4 DUP3 SWAP1 PUSH1 0x0 MSTORE PUSH1 0x20 PUSH1 0x0 KECCAK256 SWAP1 PUSH1 0x2 MUL ADD PUSH1 0x40 MLOAD DUP1 PUSH1 0x40 ADD PUSH1 0x40 MSTORE SWAP1 DUP2 PUSH1 0x0 DUP3 ADD PUSH1 0x0 SWAP1 SLOAD SWAP1 PUSH2 0x100 EXP SWAP1 DIV PUSH20 0xFFFFFFFFFFFFFFFFFFFFFFFFFFFFFFFFFFFFFFFF AND PUSH20 0xFFFFFFFFFFFFFFFFFFFFFFFFFFFFFFFFFFFFFFFF AND PUSH20 0xFFFFFFFFFFFFFFFFFFFFFFFFFFFFFFFFFFFFFFFF AND DUP2 MSTORE PUSH1 0x20 ADD PUSH1 0x1 DUP3 ADD SLOAD DUP2 MSTORE POP POP DUP2 MSTORE PUSH1 0x20 ADD SWAP1 PUSH1 0x1 ADD SWAP1 PUSH2 0x2A95 JUMP JUMPDEST POP POP POP POP SWAP1 POP SWAP1 JUMP JUMPDEST DUP3 DUP3 PUSH1 0x1 PUSH1 0x2 PUSH1 0x0 DUP5 PUSH20 0xFFFFFFFFFFFFFFFFFFFFFFFFFFFFFFFFFFFFFFFF AND PUSH20 0xFFFFFFFFFFFFFFFFFFFFFFFFFFFFFFFFFFFFFFFF AND DUP2 MSTORE PUSH1 0x20 ADD SWAP1 DUP2 MSTORE PUSH1 0x20 ADD PUSH1 0x0 KECCAK256 PUSH1 0x0 DUP4 DUP2 MSTORE PUSH1 0x20 ADD SWAP1 DUP2 MSTORE PUSH1 0x20 ADD PUSH1 0x0 KECCAK256 SLOAD EQ PUSH2 0x2BC5 JUMPI PUSH1 0x40 MLOAD PUSH32 0x8C379A000000000000000000000000000000000000000000000000000000000 DUP2 MSTORE PUSH1 0x4 ADD PUSH2 0x2BBC SWAP1 PUSH2 0x4A48 JUMP JUMPDEST PUSH1 0x40 MLOAD DUP1 SWAP2 SUB SWAP1 REVERT JUMPDEST DUP3 PUSH1 0x0 DUP2 GT PUSH2 0x2C09 JUMPI PUSH1 0x40 MLOAD PUSH32 0x8C379A000000000000000000000000000000000000000000000000000000000 DUP2 MSTORE PUSH1 0x4 ADD PUSH2 0x2C00 SWAP1 PUSH2 0x4A08 JUMP JUMPDEST PUSH1 0x40 MLOAD DUP1 SWAP2 SUB SWAP1 REVERT JUMPDEST DUP6 DUP6 DUP6 PUSH1 0x0 DUP1 DUP5 PUSH20 0xFFFFFFFFFFFFFFFFFFFFFFFFFFFFFFFFFFFFFFFF AND PUSH20 0xFFFFFFFFFFFFFFFFFFFFFFFFFFFFFFFFFFFFFFFF AND DUP2 MSTORE PUSH1 0x20 ADD SWAP1 DUP2 MSTORE PUSH1 0x20 ADD PUSH1 0x0 KECCAK256 PUSH1 0x0 DUP4 DUP2 MSTORE PUSH1 0x20 ADD SWAP1 DUP2 MSTORE PUSH1 0x20 ADD PUSH1 0x0 KECCAK256 PUSH1 0x3 ADD SLOAD DUP2 LT ISZERO PUSH2 0x2CA1 JUMPI PUSH1 0x40 MLOAD PUSH32 0x8C379A000000000000000000000000000000000000000000000000000000000 DUP2 MSTORE PUSH1 0x4 ADD PUSH2 0x2C98 SWAP1 PUSH2 0x4B88 JUMP JUMPDEST PUSH1 0x40 MLOAD DUP1 SWAP2 SUB SWAP1 REVERT JUMPDEST DUP9 PUSH20 0xFFFFFFFFFFFFFFFFFFFFFFFFFFFFFFFFFFFFFFFF AND PUSH4 0x42842E0E ADDRESS CALLER DUP12 PUSH1 0x40 MLOAD DUP5 PUSH4 0xFFFFFFFF AND PUSH1 0xE0 SHL DUP2 MSTORE PUSH1 0x4 ADD PUSH2 0x2CDE SWAP4 SWAP3 SWAP2 SWAP1 PUSH2 0x47C5 JUMP JUMPDEST PUSH1 0x0 PUSH1 0x40 MLOAD DUP1 DUP4 SUB DUP2 PUSH1 0x0 DUP8 DUP1 EXTCODESIZE ISZERO DUP1 ISZERO PUSH2 0x2CF8 JUMPI PUSH1 0x0 DUP1 REVERT JUMPDEST POP GAS CALL ISZERO DUP1 ISZERO PUSH2 0x2D0C JUMPI RETURNDATASIZE PUSH1 0x0 DUP1 RETURNDATACOPY RETURNDATASIZE PUSH1 0x0 REVERT JUMPDEST POP POP POP POP PUSH1 0x0 PUSH1 0x2 PUSH1 0x0 DUP12 PUSH20 0xFFFFFFFFFFFFFFFFFFFFFFFFFFFFFFFFFFFFFFFF AND PUSH20 0xFFFFFFFFFFFFFFFFFFFFFFFFFFFFFFFFFFFFFFFF AND DUP2 MSTORE PUSH1 0x20 ADD SWAP1 DUP2 MSTORE PUSH1 0x20 ADD PUSH1 0x0 KECCAK256 PUSH1 0x0 DUP11 DUP2 MSTORE PUSH1 0x20 ADD SWAP1 DUP2 MSTORE PUSH1 0x20 ADD PUSH1 0x0 KECCAK256 DUP2 SWAP1 SSTORE POP PUSH1 0x5 PUSH1 0x4 PUSH1 0x0 DUP12 PUSH20 0xFFFFFFFFFFFFFFFFFFFFFFFFFFFFFFFFFFFFFFFF AND PUSH20 0xFFFFFFFFFFFFFFFFFFFFFFFFFFFFFFFFFFFFFFFF AND DUP2 MSTORE PUSH1 0x20 ADD SWAP1 DUP2 MSTORE PUSH1 0x20 ADD PUSH1 0x0 KECCAK256 PUSH1 0x0 DUP11 DUP2 MSTORE PUSH1 0x20 ADD SWAP1 DUP2 MSTORE PUSH1 0x20 ADD PUSH1 0x0 KECCAK256 SLOAD DUP2 SLOAD DUP2 LT PUSH2 0x2DCA JUMPI PUSH2 0x2DC9 PUSH2 0x4D67 JUMP JUMPDEST JUMPDEST SWAP1 PUSH1 0x0 MSTORE PUSH1 0x20 PUSH1 0x0 KECCAK256 SWAP1 PUSH1 0x2 MUL ADD PUSH1 0x0 DUP1 DUP3 ADD PUSH1 0x0 PUSH2 0x100 EXP DUP2 SLOAD SWAP1 PUSH20 0xFFFFFFFFFFFFFFFFFFFFFFFFFFFFFFFFFFFFFFFF MUL NOT AND SWAP1 SSTORE PUSH1 0x1 DUP3 ADD PUSH1 0x0 SWAP1 SSTORE POP POP CALLER PUSH1 0x0 DUP1 DUP12 PUSH20 0xFFFFFFFFFFFFFFFFFFFFFFFFFFFFFFFFFFFFFFFF AND PUSH20 0xFFFFFFFFFFFFFFFFFFFFFFFFFFFFFFFFFFFFFFFF AND DUP2 MSTORE PUSH1 0x20 ADD SWAP1 DUP2 MSTORE PUSH1 0x20 ADD PUSH1 0x0 KECCAK256 PUSH1 0x0 DUP11 DUP2 MSTORE PUSH1 0x20 ADD SWAP1 DUP2 MSTORE PUSH1 0x20 ADD PUSH1 0x0 KECCAK256 PUSH1 0x1 ADD PUSH1 0x0 PUSH2 0x100 EXP DUP2 SLOAD DUP2 PUSH20 0xFFFFFFFFFFFFFFFFFFFFFFFFFFFFFFFFFFFFFFFF MUL NOT AND SWAP1 DUP4 PUSH20 0xFFFFFFFFFFFFFFFFFFFFFFFFFFFFFFFFFFFFFFFF AND MUL OR SWAP1 SSTORE POP PUSH2 0x2FDC PUSH1 0x0 DUP1 DUP12 PUSH20 0xFFFFFFFFFFFFFFFFFFFFFFFFFFFFFFFFFFFFFFFF AND PUSH20 0xFFFFFFFFFFFFFFFFFFFFFFFFFFFFFFFFFFFFFFFF AND DUP2 MSTORE PUSH1 0x20 ADD SWAP1 DUP2 MSTORE PUSH1 0x20 ADD PUSH1 0x0 KECCAK256 PUSH1 0x0 DUP11 DUP2 MSTORE PUSH1 0x20 ADD SWAP1 DUP2 MSTORE PUSH1 0x20 ADD PUSH1 0x0 KECCAK256 PUSH1 0x0 ADD PUSH1 0x0 SWAP1 SLOAD SWAP1 PUSH2 0x100 EXP SWAP1 DIV PUSH20 0xFFFFFFFFFFFFFFFFFFFFFFFFFFFFFFFFFFFFFFFF AND PUSH1 0x0 DUP1 DUP13 PUSH20 0xFFFFFFFFFFFFFFFFFFFFFFFFFFFFFFFFFFFFFFFF AND PUSH20 0xFFFFFFFFFFFFFFFFFFFFFFFFFFFFFFFFFFFFFFFF AND DUP2 MSTORE PUSH1 0x20 ADD SWAP1 DUP2 MSTORE PUSH1 0x20 ADD PUSH1 0x0 KECCAK256 PUSH1 0x0 DUP12 DUP2 MSTORE PUSH1 0x20 ADD SWAP1 DUP2 MSTORE PUSH1 0x20 ADD PUSH1 0x0 KECCAK256 PUSH1 0x2 ADD PUSH1 0x0 SWAP1 SLOAD SWAP1 PUSH2 0x100 EXP SWAP1 DIV PUSH20 0xFFFFFFFFFFFFFFFFFFFFFFFFFFFFFFFFFFFFFFFF AND PUSH1 0x0 DUP1 DUP14 PUSH20 0xFFFFFFFFFFFFFFFFFFFFFFFFFFFFFFFFFFFFFFFF AND PUSH20 0xFFFFFFFFFFFFFFFFFFFFFFFFFFFFFFFFFFFFFFFF AND DUP2 MSTORE PUSH1 0x20 ADD SWAP1 DUP2 MSTORE PUSH1 0x20 ADD PUSH1 0x0 KECCAK256 PUSH1 0x0 DUP13 DUP2 MSTORE PUSH1 0x20 ADD SWAP1 DUP2 MSTORE PUSH1 0x20 ADD PUSH1 0x0 KECCAK256 PUSH1 0x3 ADD SLOAD PUSH2 0x38E8 JUMP JUMPDEST PUSH32 0x9FA3B1BB9266E05722B54A7A564D02A274BC80D39F4AF21E6BE405480996CEBA DUP10 CALLER DUP11 DUP11 PUSH1 0x40 MLOAD PUSH2 0x3011 SWAP5 SWAP4 SWAP3 SWAP2 SWAP1 PUSH2 0x47FC JUMP JUMPDEST PUSH1 0x40 MLOAD DUP1 SWAP2 SUB SWAP1 LOG1 POP POP POP POP POP POP POP POP POP JUMP JUMPDEST DUP6 DUP5 DUP2 PUSH20 0xFFFFFFFFFFFFFFFFFFFFFFFFFFFFFFFFFFFFFFFF AND PUSH4 0x6352211E DUP3 PUSH1 0x40 MLOAD DUP3 PUSH4 0xFFFFFFFF AND PUSH1 0xE0 SHL DUP2 MSTORE PUSH1 0x4 ADD PUSH2 0x305F SWAP2 SWAP1 PUSH2 0x4BFE JUMP JUMPDEST PUSH1 0x20 PUSH1 0x40 MLOAD DUP1 DUP4 SUB DUP2 DUP7 DUP1 EXTCODESIZE ISZERO DUP1 ISZERO PUSH2 0x3077 JUMPI PUSH1 0x0 DUP1 REVERT JUMPDEST POP GAS STATICCALL ISZERO DUP1 ISZERO PUSH2 0x308B JUMPI RETURNDATASIZE PUSH1 0x0 DUP1 RETURNDATACOPY RETURNDATASIZE PUSH1 0x0 REVERT JUMPDEST POP POP POP POP PUSH1 0x40 MLOAD RETURNDATASIZE PUSH1 0x1F NOT PUSH1 0x1F DUP3 ADD AND DUP3 ADD DUP1 PUSH1 0x40 MSTORE POP DUP2 ADD SWAP1 PUSH2 0x30AF SWAP2 SWAP1 PUSH2 0x3F73 JUMP JUMPDEST PUSH20 0xFFFFFFFFFFFFFFFFFFFFFFFFFFFFFFFFFFFFFFFF AND CALLER PUSH20 0xFFFFFFFFFFFFFFFFFFFFFFFFFFFFFFFFFFFFFFFF AND EQ PUSH2 0x311C JUMPI PUSH1 0x40 MLOAD PUSH32 0x8C379A000000000000000000000000000000000000000000000000000000000 DUP2 MSTORE PUSH1 0x4 ADD PUSH2 0x3113 SWAP1 PUSH2 0x4B48 JUMP JUMPDEST PUSH1 0x40 MLOAD DUP1 SWAP2 SUB SWAP1 REVERT JUMPDEST DUP8 DUP7 PUSH1 0x0 PUSH1 0x2 PUSH1 0x0 DUP5 PUSH20 0xFFFFFFFFFFFFFFFFFFFFFFFFFFFFFFFFFFFFFFFF AND PUSH20 0xFFFFFFFFFFFFFFFFFFFFFFFFFFFFFFFFFFFFFFFF AND DUP2 MSTORE PUSH1 0x20 ADD SWAP1 DUP2 MSTORE PUSH1 0x20 ADD PUSH1 0x0 KECCAK256 PUSH1 0x0 DUP4 DUP2 MSTORE PUSH1 0x20 ADD SWAP1 DUP2 MSTORE PUSH1 0x20 ADD PUSH1 0x0 KECCAK256 SLOAD EQ PUSH2 0x31B1 JUMPI PUSH1 0x40 MLOAD PUSH32 0x8C379A000000000000000000000000000000000000000000000000000000000 DUP2 MSTORE PUSH1 0x4 ADD PUSH2 0x31A8 SWAP1 PUSH2 0x4AC8 JUMP JUMPDEST PUSH1 0x40 MLOAD DUP1 SWAP2 SUB SWAP1 REVERT JUMPDEST DUP10 DUP9 DUP2 PUSH20 0xFFFFFFFFFFFFFFFFFFFFFFFFFFFFFFFFFFFFFFFF AND PUSH4 0xE985E9C5 CALLER ADDRESS PUSH1 0x40 MLOAD DUP4 PUSH4 0xFFFFFFFF AND PUSH1 0xE0 SHL DUP2 MSTORE PUSH1 0x4 ADD PUSH2 0x31EE SWAP3 SWAP2 SWAP1 PUSH2 0x46CC JUMP JUMPDEST PUSH1 0x20 PUSH1 0x40 MLOAD DUP1 DUP4 SUB DUP2 DUP7 DUP1 EXTCODESIZE ISZERO DUP1 ISZERO PUSH2 0x3206 JUMPI PUSH1 0x0 DUP1 REVERT JUMPDEST POP GAS STATICCALL ISZERO DUP1 ISZERO PUSH2 0x321A JUMPI RETURNDATASIZE PUSH1 0x0 DUP1 RETURNDATACOPY RETURNDATASIZE PUSH1 0x0 REVERT JUMPDEST POP POP POP POP PUSH1 0x40 MLOAD RETURNDATASIZE PUSH1 0x1F NOT PUSH1 0x1F DUP3 ADD AND DUP3 ADD DUP1 PUSH1 0x40 MSTORE POP DUP2 ADD SWAP1 PUSH2 0x323E SWAP2 SWAP1 PUSH2 0x4255 JUMP JUMPDEST PUSH2 0x327D JUMPI PUSH1 0x40 MLOAD PUSH32 0x8C379A000000000000000000000000000000000000000000000000000000000 DUP2 MSTORE PUSH1 0x4 ADD PUSH2 0x3274 SWAP1 PUSH2 0x49E8 JUMP JUMPDEST PUSH1 0x40 MLOAD DUP1 SWAP2 SUB SWAP1 REVERT JUMPDEST DUP7 PUSH1 0x0 DUP2 GT PUSH2 0x32C1 JUMPI PUSH1 0x40 MLOAD PUSH32 0x8C379A000000000000000000000000000000000000000000000000000000000 DUP2 MSTORE PUSH1 0x4 ADD PUSH2 0x32B8 SWAP1 PUSH2 0x4A08 JUMP JUMPDEST PUSH1 0x40 MLOAD DUP1 SWAP2 SUB SWAP1 REVERT JUMPDEST PUSH2 0x32CF DUP14 DUP14 DUP14 DUP14 DUP14 DUP14 PUSH2 0x393C JUMP JUMPDEST PUSH32 0xECBC6A097DA08DBF6F781CE204AAD454CE3DC8F112C51C7A56F1671DE89CEE8C DUP14 CALLER DUP15 DUP15 DUP15 DUP15 DUP15 PUSH1 0x40 MLOAD PUSH2 0x330A SWAP8 SWAP7 SWAP6 SWAP5 SWAP4 SWAP3 SWAP2 SWAP1 PUSH2 0x4756 JUMP JUMPDEST PUSH1 0x40 MLOAD DUP1 SWAP2 SUB SWAP1 LOG1 POP POP POP POP POP POP POP POP POP POP POP POP POP JUMP JUMPDEST DUP2 DUP2 PUSH1 0x1 PUSH1 0x2 PUSH1 0x0 DUP5 PUSH20 0xFFFFFFFFFFFFFFFFFFFFFFFFFFFFFFFFFFFFFFFF AND PUSH20 0xFFFFFFFFFFFFFFFFFFFFFFFFFFFFFFFFFFFFFFFF AND DUP2 MSTORE PUSH1 0x20 ADD SWAP1 DUP2 MSTORE PUSH1 0x20 ADD PUSH1 0x0 KECCAK256 PUSH1 0x0 DUP4 DUP2 MSTORE PUSH1 0x20 ADD SWAP1 DUP2 MSTORE PUSH1 0x20 ADD PUSH1 0x0 KECCAK256 SLOAD EQ PUSH2 0x33B6 JUMPI PUSH1 0x40 MLOAD PUSH32 0x8C379A000000000000000000000000000000000000000000000000000000000 DUP2 MSTORE PUSH1 0x4 ADD PUSH2 0x33AD SWAP1 PUSH2 0x4A48 JUMP JUMPDEST PUSH1 0x40 MLOAD DUP1 SWAP2 SUB SWAP1 REVERT JUMPDEST DUP4 DUP4 PUSH1 0x0 DUP1 DUP4 PUSH20 0xFFFFFFFFFFFFFFFFFFFFFFFFFFFFFFFFFFFFFFFF AND PUSH20 0xFFFFFFFFFFFFFFFFFFFFFFFFFFFFFFFFFFFFFFFF AND DUP2 MSTORE PUSH1 0x20 ADD SWAP1 DUP2 MSTORE PUSH1 0x20 ADD PUSH1 0x0 KECCAK256 PUSH1 0x0 DUP3 DUP2 MSTORE PUSH1 0x20 ADD SWAP1 DUP2 MSTORE PUSH1 0x20 ADD PUSH1 0x0 KECCAK256 PUSH1 0x0 ADD PUSH1 0x0 SWAP1 SLOAD SWAP1 PUSH2 0x100 EXP SWAP1 DIV PUSH20 0xFFFFFFFFFFFFFFFFFFFFFFFFFFFFFFFFFFFFFFFF AND PUSH20 0xFFFFFFFFFFFFFFFFFFFFFFFFFFFFFFFFFFFFFFFF AND CALLER PUSH20 0xFFFFFFFFFFFFFFFFFFFFFFFFFFFFFFFFFFFFFFFF AND EQ PUSH2 0x3498 JUMPI PUSH1 0x40 MLOAD PUSH32 0x8C379A000000000000000000000000000000000000000000000000000000000 DUP2 MSTORE PUSH1 0x4 ADD PUSH2 0x348F SWAP1 PUSH2 0x4B48 JUMP JUMPDEST PUSH1 0x40 MLOAD DUP1 SWAP2 SUB SWAP1 REVERT JUMPDEST DUP6 PUSH20 0xFFFFFFFFFFFFFFFFFFFFFFFFFFFFFFFFFFFFFFFF AND PUSH4 0x42842E0E ADDRESS CALLER DUP9 PUSH1 0x40 MLOAD DUP5 PUSH4 0xFFFFFFFF AND PUSH1 0xE0 SHL DUP2 MSTORE PUSH1 0x4 ADD PUSH2 0x34D5 SWAP4 SWAP3 SWAP2 SWAP1 PUSH2 0x47C5 JUMP JUMPDEST PUSH1 0x0 PUSH1 0x40 MLOAD DUP1 DUP4 SUB DUP2 PUSH1 0x0 DUP8 DUP1 EXTCODESIZE ISZERO DUP1 ISZERO PUSH2 0x34EF JUMPI PUSH1 0x0 DUP1 REVERT JUMPDEST POP GAS CALL ISZERO DUP1 ISZERO PUSH2 0x3503 JUMPI RETURNDATASIZE PUSH1 0x0 DUP1 RETURNDATACOPY RETURNDATASIZE PUSH1 0x0 REVERT JUMPDEST POP POP POP POP PUSH1 0x0 PUSH1 0x2 PUSH1 0x0 DUP9 PUSH20 0xFFFFFFFFFFFFFFFFFFFFFFFFFFFFFFFFFFFFFFFF AND PUSH20 0xFFFFFFFFFFFFFFFFFFFFFFFFFFFFFFFFFFFFFFFF AND DUP2 MSTORE PUSH1 0x20 ADD SWAP1 DUP2 MSTORE PUSH1 0x20 ADD PUSH1 0x0 KECCAK256 PUSH1 0x0 DUP8 DUP2 MSTORE PUSH1 0x20 ADD SWAP1 DUP2 MSTORE PUSH1 0x20 ADD PUSH1 0x0 KECCAK256 DUP2 SWAP1 SSTORE POP PUSH1 0x5 PUSH1 0x4 PUSH1 0x0 DUP9 PUSH20 0xFFFFFFFFFFFFFFFFFFFFFFFFFFFFFFFFFFFFFFFF AND PUSH20 0xFFFFFFFFFFFFFFFFFFFFFFFFFFFFFFFFFFFFFFFF AND DUP2 MSTORE PUSH1 0x20 ADD SWAP1 DUP2 MSTORE PUSH1 0x20 ADD PUSH1 0x0 KECCAK256 PUSH1 0x0 DUP8 DUP2 MSTORE PUSH1 0x20 ADD SWAP1 DUP2 MSTORE PUSH1 0x20 ADD PUSH1 0x0 KECCAK256 SLOAD DUP2 SLOAD DUP2 LT PUSH2 0x35C1 JUMPI PUSH2 0x35C0 PUSH2 0x4D67 JUMP JUMPDEST JUMPDEST SWAP1 PUSH1 0x0 MSTORE PUSH1 0x20 PUSH1 0x0 KECCAK256 SWAP1 PUSH1 0x2 MUL ADD PUSH1 0x0 DUP1 DUP3 ADD PUSH1 0x0 PUSH2 0x100 EXP DUP2 SLOAD SWAP1 PUSH20 0xFFFFFFFFFFFFFFFFFFFFFFFFFFFFFFFFFFFFFFFF MUL NOT AND SWAP1 SSTORE PUSH1 0x1 DUP3 ADD PUSH1 0x0 SWAP1 SSTORE POP POP PUSH32 0xD7348FF00CF381A884144B50B3441398A48A7974EC349287DF80E18CEC9F5A31 DUP7 CALLER DUP8 PUSH1 0x40 MLOAD PUSH2 0x3634 SWAP4 SWAP3 SWAP2 SWAP1 PUSH2 0x47C5 JUMP JUMPDEST PUSH1 0x40 MLOAD DUP1 SWAP2 SUB SWAP1 LOG1 POP POP POP POP POP POP JUMP JUMPDEST DUP1 PUSH20 0xFFFFFFFFFFFFFFFFFFFFFFFFFFFFFFFFFFFFFFFF AND PUSH4 0x23B872DD CALLER ADDRESS DUP6 PUSH1 0x40 MLOAD DUP5 PUSH4 0xFFFFFFFF AND PUSH1 0xE0 SHL DUP2 MSTORE PUSH1 0x4 ADD PUSH2 0x3681 SWAP4 SWAP3 SWAP2 SWAP1 PUSH2 0x47C5 JUMP JUMPDEST PUSH1 0x20 PUSH1 0x40 MLOAD DUP1 DUP4 SUB DUP2 PUSH1 0x0 DUP8 DUP1 EXTCODESIZE ISZERO DUP1 ISZERO PUSH2 0x369B JUMPI PUSH1 0x0 DUP1 REVERT JUMPDEST POP GAS CALL ISZERO DUP1 ISZERO PUSH2 0x36AF JUMPI RETURNDATASIZE PUSH1 0x0 DUP1 RETURNDATACOPY RETURNDATASIZE PUSH1 0x0 REVERT JUMPDEST POP POP POP POP PUSH1 0x40 MLOAD RETURNDATASIZE PUSH1 0x1F NOT PUSH1 0x1F DUP3 ADD AND DUP3 ADD DUP1 PUSH1 0x40 MSTORE POP DUP2 ADD SWAP1 PUSH2 0x36D3 SWAP2 SWAP1 PUSH2 0x4255 JUMP JUMPDEST PUSH2 0x3712 JUMPI PUSH1 0x40 MLOAD PUSH32 0x8C379A000000000000000000000000000000000000000000000000000000000 DUP2 MSTORE PUSH1 0x4 ADD PUSH2 0x3709 SWAP1 PUSH2 0x4B08 JUMP JUMPDEST PUSH1 0x40 MLOAD DUP1 SWAP2 SUB SWAP1 REVERT JUMPDEST POP POP JUMP JUMPDEST PUSH1 0x0 DUP2 DUP4 PUSH2 0x3724 SWAP2 SWAP1 PUSH2 0x4C6E JUMP JUMPDEST SWAP1 POP SWAP3 SWAP2 POP POP JUMP JUMPDEST DUP4 PUSH20 0xFFFFFFFFFFFFFFFFFFFFFFFFFFFFFFFFFFFFFFFF AND PUSH4 0x42842E0E ADDRESS DUP4 DUP7 PUSH1 0x40 MLOAD DUP5 PUSH4 0xFFFFFFFF AND PUSH1 0xE0 SHL DUP2 MSTORE PUSH1 0x4 ADD PUSH2 0x3769 SWAP4 SWAP3 SWAP2 SWAP1 PUSH2 0x47C5 JUMP JUMPDEST PUSH1 0x0 PUSH1 0x40 MLOAD DUP1 DUP4 SUB DUP2 PUSH1 0x0 DUP8 DUP1 EXTCODESIZE ISZERO DUP1 ISZERO PUSH2 0x3783 JUMPI PUSH1 0x0 DUP1 REVERT JUMPDEST POP GAS CALL ISZERO DUP1 ISZERO PUSH2 0x3797 JUMPI RETURNDATASIZE PUSH1 0x0 DUP1 RETURNDATACOPY RETURNDATASIZE PUSH1 0x0 REVERT JUMPDEST POP POP POP POP PUSH1 0x0 PUSH1 0x2 PUSH1 0x0 DUP7 PUSH20 0xFFFFFFFFFFFFFFFFFFFFFFFFFFFFFFFFFFFFFFFF AND PUSH20 0xFFFFFFFFFFFFFFFFFFFFFFFFFFFFFFFFFFFFFFFF AND DUP2 MSTORE PUSH1 0x20 ADD SWAP1 DUP2 MSTORE PUSH1 0x20 ADD PUSH1 0x0 KECCAK256 PUSH1 0x0 DUP6 DUP2 MSTORE PUSH1 0x20 ADD SWAP1 DUP2 MSTORE PUSH1 0x20 ADD PUSH1 0x0 KECCAK256 DUP2 SWAP1 SSTORE POP PUSH2 0x38E2 PUSH1 0x1 PUSH1 0x0 DUP7 PUSH20 0xFFFFFFFFFFFFFFFFFFFFFFFFFFFFFFFFFFFFFFFF AND PUSH20 0xFFFFFFFFFFFFFFFFFFFFFFFFFFFFFFFFFFFFFFFF AND DUP2 MSTORE PUSH1 0x20 ADD SWAP1 DUP2 MSTORE PUSH1 0x20 ADD PUSH1 0x0 KECCAK256 PUSH1 0x0 DUP6 DUP2 MSTORE PUSH1 0x20 ADD SWAP1 DUP2 MSTORE PUSH1 0x20 ADD PUSH1 0x0 KECCAK256 PUSH1 0x5 ADD PUSH1 0x0 SWAP1 SLOAD SWAP1 PUSH2 0x100 EXP SWAP1 DIV PUSH20 0xFFFFFFFFFFFFFFFFFFFFFFFFFFFFFFFFFFFFFFFF AND PUSH1 0x1 PUSH1 0x0 DUP8 PUSH20 0xFFFFFFFFFFFFFFFFFFFFFFFFFFFFFFFFFFFFFFFF AND PUSH20 0xFFFFFFFFFFFFFFFFFFFFFFFFFFFFFFFFFFFFFFFF AND DUP2 MSTORE PUSH1 0x20 ADD SWAP1 DUP2 MSTORE PUSH1 0x20 ADD PUSH1 0x0 KECCAK256 PUSH1 0x0 DUP7 DUP2 MSTORE PUSH1 0x20 ADD SWAP1 DUP2 MSTORE PUSH1 0x20 ADD PUSH1 0x0 KECCAK256 PUSH1 0x6 ADD PUSH1 0x0 SWAP1 SLOAD SWAP1 PUSH2 0x100 EXP SWAP1 DIV PUSH20 0xFFFFFFFFFFFFFFFFFFFFFFFFFFFFFFFFFFFFFFFF AND DUP5 PUSH2 0x38E8 JUMP JUMPDEST POP POP POP POP JUMP JUMPDEST PUSH1 0x0 PUSH20 0xFFFFFFFFFFFFFFFFFFFFFFFFFFFFFFFFFFFFFFFF AND DUP3 PUSH20 0xFFFFFFFFFFFFFFFFFFFFFFFFFFFFFFFFFFFFFFFF AND EQ PUSH2 0x392C JUMPI PUSH2 0x3927 DUP4 DUP4 DUP4 PUSH2 0x3BCE JUMP JUMPDEST PUSH2 0x3937 JUMP JUMPDEST PUSH2 0x3936 DUP4 DUP3 PUSH2 0x3D2F JUMP JUMPDEST JUMPDEST POP POP POP JUMP JUMPDEST PUSH1 0x40 MLOAD DUP1 PUSH1 0xE0 ADD PUSH1 0x40 MSTORE DUP1 DUP5 DUP2 MSTORE PUSH1 0x20 ADD DUP4 DUP2 MSTORE PUSH1 0x20 ADD DUP3 DUP2 MSTORE PUSH1 0x20 ADD DUP3 DUP2 MSTORE PUSH1 0x20 ADD PUSH1 0x0 PUSH20 0xFFFFFFFFFFFFFFFFFFFFFFFFFFFFFFFFFFFFFFFF AND DUP2 MSTORE PUSH1 0x20 ADD CALLER PUSH20 0xFFFFFFFFFFFFFFFFFFFFFFFFFFFFFFFFFFFFFFFF AND DUP2 MSTORE PUSH1 0x20 ADD DUP7 PUSH20 0xFFFFFFFFFFFFFFFFFFFFFFFFFFFFFFFFFFFFFFFF AND DUP2 MSTORE POP PUSH1 0x1 PUSH1 0x0 DUP9 PUSH20 0xFFFFFFFFFFFFFFFFFFFFFFFFFFFFFFFFFFFFFFFF AND PUSH20 0xFFFFFFFFFFFFFFFFFFFFFFFFFFFFFFFFFFFFFFFF AND DUP2 MSTORE PUSH1 0x20 ADD SWAP1 DUP2 MSTORE PUSH1 0x20 ADD PUSH1 0x0 KECCAK256 PUSH1 0x0 DUP7 DUP2 MSTORE PUSH1 0x20 ADD SWAP1 DUP2 MSTORE PUSH1 0x20 ADD PUSH1 0x0 KECCAK256 PUSH1 0x0 DUP3 ADD MLOAD DUP2 PUSH1 0x0 ADD SSTORE PUSH1 0x20 DUP3 ADD MLOAD DUP2 PUSH1 0x1 ADD SSTORE PUSH1 0x40 DUP3 ADD MLOAD DUP2 PUSH1 0x2 ADD SSTORE PUSH1 0x60 DUP3 ADD MLOAD DUP2 PUSH1 0x3 ADD SSTORE PUSH1 0x80 DUP3 ADD MLOAD DUP2 PUSH1 0x4 ADD PUSH1 0x0 PUSH2 0x100 EXP DUP2 SLOAD DUP2 PUSH20 0xFFFFFFFFFFFFFFFFFFFFFFFFFFFFFFFFFFFFFFFF MUL NOT AND SWAP1 DUP4 PUSH20 0xFFFFFFFFFFFFFFFFFFFFFFFFFFFFFFFFFFFFFFFF AND MUL OR SWAP1 SSTORE POP PUSH1 0xA0 DUP3 ADD MLOAD DUP2 PUSH1 0x5 ADD PUSH1 0x0 PUSH2 0x100 EXP DUP2 SLOAD DUP2 PUSH20 0xFFFFFFFFFFFFFFFFFFFFFFFFFFFFFFFFFFFFFFFF MUL NOT AND SWAP1 DUP4 PUSH20 0xFFFFFFFFFFFFFFFFFFFFFFFFFFFFFFFFFFFFFFFF AND MUL OR SWAP1 SSTORE POP PUSH1 0xC0 DUP3 ADD MLOAD DUP2 PUSH1 0x6 ADD PUSH1 0x0 PUSH2 0x100 EXP DUP2 SLOAD DUP2 PUSH20 0xFFFFFFFFFFFFFFFFFFFFFFFFFFFFFFFFFFFFFFFF MUL NOT AND SWAP1 DUP4 PUSH20 0xFFFFFFFFFFFFFFFFFFFFFFFFFFFFFFFFFFFFFFFF AND MUL OR SWAP1 SSTORE POP SWAP1 POP POP PUSH1 0x2 DUP1 PUSH1 0x0 DUP9 PUSH20 0xFFFFFFFFFFFFFFFFFFFFFFFFFFFFFFFFFFFFFFFF AND PUSH20 0xFFFFFFFFFFFFFFFFFFFFFFFFFFFFFFFFFFFFFFFF AND DUP2 MSTORE PUSH1 0x20 ADD SWAP1 DUP2 MSTORE PUSH1 0x20 ADD PUSH1 0x0 KECCAK256 PUSH1 0x0 DUP7 DUP2 MSTORE PUSH1 0x20 ADD SWAP1 DUP2 MSTORE PUSH1 0x20 ADD PUSH1 0x0 KECCAK256 DUP2 SWAP1 SSTORE POP DUP6 PUSH20 0xFFFFFFFFFFFFFFFFFFFFFFFFFFFFFFFFFFFFFFFF AND PUSH4 0x42842E0E CALLER ADDRESS DUP8 PUSH1 0x40 MLOAD DUP5 PUSH4 0xFFFFFFFF AND PUSH1 0xE0 SHL DUP2 MSTORE PUSH1 0x4 ADD PUSH2 0x3B94 SWAP4 SWAP3 SWAP2 SWAP1 PUSH2 0x47C5 JUMP JUMPDEST PUSH1 0x0 PUSH1 0x40 MLOAD DUP1 DUP4 SUB DUP2 PUSH1 0x0 DUP8 DUP1 EXTCODESIZE ISZERO DUP1 ISZERO PUSH2 0x3BAE JUMPI PUSH1 0x0 DUP1 REVERT JUMPDEST POP GAS CALL ISZERO DUP1 ISZERO PUSH2 0x3BC2 JUMPI RETURNDATASIZE PUSH1 0x0 DUP1 RETURNDATACOPY RETURNDATASIZE PUSH1 0x0 REVERT JUMPDEST POP POP POP POP POP POP POP POP POP POP JUMP JUMPDEST DUP2 PUSH20 0xFFFFFFFFFFFFFFFFFFFFFFFFFFFFFFFFFFFFFFFF AND PUSH4 0x23B872DD CALLER ADDRESS DUP5 PUSH1 0x40 MLOAD DUP5 PUSH4 0xFFFFFFFF AND PUSH1 0xE0 SHL DUP2 MSTORE PUSH1 0x4 ADD PUSH2 0x3C0B SWAP4 SWAP3 SWAP2 SWAP1 PUSH2 0x47C5 JUMP JUMPDEST PUSH1 0x20 PUSH1 0x40 MLOAD DUP1 DUP4 SUB DUP2 PUSH1 0x0 DUP8 DUP1 EXTCODESIZE ISZERO DUP1 ISZERO PUSH2 0x3C25 JUMPI PUSH1 0x0 DUP1 REVERT JUMPDEST POP GAS CALL ISZERO DUP1 ISZERO PUSH2 0x3C39 JUMPI RETURNDATASIZE PUSH1 0x0 DUP1 RETURNDATACOPY RETURNDATASIZE PUSH1 0x0 REVERT JUMPDEST POP POP POP POP PUSH1 0x40 MLOAD RETURNDATASIZE PUSH1 0x1F NOT PUSH1 0x1F DUP3 ADD AND DUP3 ADD DUP1 PUSH1 0x40 MSTORE POP DUP2 ADD SWAP1 PUSH2 0x3C5D SWAP2 SWAP1 PUSH2 0x4255 JUMP JUMPDEST PUSH2 0x3C9C JUMPI PUSH1 0x40 MLOAD PUSH32 0x8C379A000000000000000000000000000000000000000000000000000000000 DUP2 MSTORE PUSH1 0x4 ADD PUSH2 0x3C93 SWAP1 PUSH2 0x4B08 JUMP JUMPDEST PUSH1 0x40 MLOAD DUP1 SWAP2 SUB SWAP1 REVERT JUMPDEST DUP2 PUSH20 0xFFFFFFFFFFFFFFFFFFFFFFFFFFFFFFFFFFFFFFFF AND PUSH4 0xA9059CBB DUP5 DUP4 PUSH1 0x40 MLOAD DUP4 PUSH4 0xFFFFFFFF AND PUSH1 0xE0 SHL DUP2 MSTORE PUSH1 0x4 ADD PUSH2 0x3CD7 SWAP3 SWAP2 SWAP1 PUSH2 0x4841 JUMP JUMPDEST PUSH1 0x20 PUSH1 0x40 MLOAD DUP1 DUP4 SUB DUP2 PUSH1 0x0 DUP8 DUP1 EXTCODESIZE ISZERO DUP1 ISZERO PUSH2 0x3CF1 JUMPI PUSH1 0x0 DUP1 REVERT JUMPDEST POP GAS CALL ISZERO DUP1 ISZERO PUSH2 0x3D05 JUMPI RETURNDATASIZE PUSH1 0x0 DUP1 RETURNDATACOPY RETURNDATASIZE PUSH1 0x0 REVERT JUMPDEST POP POP POP POP PUSH1 0x40 MLOAD RETURNDATASIZE PUSH1 0x1F NOT PUSH1 0x1F DUP3 ADD AND DUP3 ADD DUP1 PUSH1 0x40 MSTORE POP DUP2 ADD SWAP1 PUSH2 0x3D29 SWAP2 SWAP1 PUSH2 0x4255 JUMP JUMPDEST POP POP POP POP JUMP JUMPDEST PUSH1 0x0 DUP3 PUSH20 0xFFFFFFFFFFFFFFFFFFFFFFFFFFFFFFFFFFFFFFFF AND DUP3 PUSH1 0x40 MLOAD PUSH2 0x3D55 SWAP1 PUSH2 0x46B7 JUMP JUMPDEST PUSH1 0x0 PUSH1 0x40 MLOAD DUP1 DUP4 SUB DUP2 DUP6 DUP8 GAS CALL SWAP3 POP POP POP RETURNDATASIZE DUP1 PUSH1 0x0 DUP2 EQ PUSH2 0x3D92 JUMPI PUSH1 0x40 MLOAD SWAP2 POP PUSH1 0x1F NOT PUSH1 0x3F RETURNDATASIZE ADD AND DUP3 ADD PUSH1 0x40 MSTORE RETURNDATASIZE DUP3 MSTORE RETURNDATASIZE PUSH1 0x0 PUSH1 0x20 DUP5 ADD RETURNDATACOPY PUSH2 0x3D97 JUMP JUMPDEST PUSH1 0x60 SWAP2 POP JUMPDEST POP POP SWAP1 POP DUP1 PUSH2 0x3DDB JUMPI PUSH1 0x40 MLOAD PUSH32 0x8C379A000000000000000000000000000000000000000000000000000000000 DUP2 MSTORE PUSH1 0x4 ADD PUSH2 0x3DD2 SWAP1 PUSH2 0x4BA8 JUMP JUMPDEST PUSH1 0x40 MLOAD DUP1 SWAP2 SUB SWAP1 REVERT JUMPDEST POP POP POP JUMP JUMPDEST PUSH1 0x40 MLOAD DUP1 PUSH1 0xE0 ADD PUSH1 0x40 MSTORE DUP1 PUSH1 0x0 DUP2 MSTORE PUSH1 0x20 ADD PUSH1 0x0 DUP2 MSTORE PUSH1 0x20 ADD PUSH1 0x0 DUP2 MSTORE PUSH1 0x20 ADD PUSH1 0x0 DUP2 MSTORE PUSH1 0x20 ADD PUSH1 0x0 PUSH20 0xFFFFFFFFFFFFFFFFFFFFFFFFFFFFFFFFFFFFFFFF AND DUP2 MSTORE PUSH1 0x20 ADD PUSH1 0x0 PUSH20 0xFFFFFFFFFFFFFFFFFFFFFFFFFFFFFFFFFFFFFFFF AND DUP2 MSTORE PUSH1 0x20 ADD PUSH1 0x0 PUSH20 0xFFFFFFFFFFFFFFFFFFFFFFFFFFFFFFFFFFFFFFFF AND DUP2 MSTORE POP SWAP1 JUMP JUMPDEST PUSH1 0x40 MLOAD DUP1 PUSH1 0x80 ADD PUSH1 0x40 MSTORE DUP1 PUSH1 0x0 PUSH20 0xFFFFFFFFFFFFFFFFFFFFFFFFFFFFFFFFFFFFFFFF AND DUP2 MSTORE PUSH1 0x20 ADD PUSH1 0x0 PUSH20 0xFFFFFFFFFFFFFFFFFFFFFFFFFFFFFFFFFFFFFFFF AND DUP2 MSTORE PUSH1 0x20 ADD PUSH1 0x0 PUSH20 0xFFFFFFFFFFFFFFFFFFFFFFFFFFFFFFFFFFFFFFFF AND DUP2 MSTORE PUSH1 0x20 ADD PUSH1 0x0 DUP2 MSTORE POP SWAP1 JUMP JUMPDEST PUSH1 0x0 DUP2 CALLDATALOAD SWAP1 POP PUSH2 0x3ED8 DUP2 PUSH2 0x5042 JUMP JUMPDEST SWAP3 SWAP2 POP POP JUMP JUMPDEST PUSH1 0x0 DUP2 MLOAD SWAP1 POP PUSH2 0x3EED DUP2 PUSH2 0x5042 JUMP JUMPDEST SWAP3 SWAP2 POP POP JUMP JUMPDEST PUSH1 0x0 DUP2 MLOAD SWAP1 POP PUSH2 0x3F02 DUP2 PUSH2 0x5059 JUMP JUMPDEST SWAP3 SWAP2 POP POP JUMP JUMPDEST PUSH1 0x0 DUP1 DUP4 PUSH1 0x1F DUP5 ADD SLT PUSH2 0x3F1E JUMPI PUSH2 0x3F1D PUSH2 0x4D9B JUMP JUMPDEST JUMPDEST DUP3 CALLDATALOAD SWAP1 POP PUSH8 0xFFFFFFFFFFFFFFFF DUP2 GT ISZERO PUSH2 0x3F3B JUMPI PUSH2 0x3F3A PUSH2 0x4D96 JUMP JUMPDEST JUMPDEST PUSH1 0x20 DUP4 ADD SWAP2 POP DUP4 PUSH1 0x1 DUP3 MUL DUP4 ADD GT ISZERO PUSH2 0x3F57 JUMPI PUSH2 0x3F56 PUSH2 0x4DA0 JUMP JUMPDEST JUMPDEST SWAP3 POP SWAP3 SWAP1 POP JUMP JUMPDEST PUSH1 0x0 DUP2 CALLDATALOAD SWAP1 POP PUSH2 0x3F6D DUP2 PUSH2 0x5070 JUMP JUMPDEST SWAP3 SWAP2 POP POP JUMP JUMPDEST PUSH1 0x0 PUSH1 0x20 DUP3 DUP5 SUB SLT ISZERO PUSH2 0x3F89 JUMPI PUSH2 0x3F88 PUSH2 0x4DAA JUMP JUMPDEST JUMPDEST PUSH1 0x0 PUSH2 0x3F97 DUP5 DUP3 DUP6 ADD PUSH2 0x3EDE JUMP JUMPDEST SWAP2 POP POP SWAP3 SWAP2 POP POP JUMP JUMPDEST PUSH1 0x0 DUP1 PUSH1 0x0 PUSH1 0x60 DUP5 DUP7 SUB SLT ISZERO PUSH2 0x3FB9 JUMPI PUSH2 0x3FB8 PUSH2 0x4DAA JUMP JUMPDEST JUMPDEST PUSH1 0x0 PUSH2 0x3FC7 DUP7 DUP3 DUP8 ADD PUSH2 0x3EC9 JUMP JUMPDEST SWAP4 POP POP PUSH1 0x20 PUSH2 0x3FD8 DUP7 DUP3 DUP8 ADD PUSH2 0x3EC9 JUMP JUMPDEST SWAP3 POP POP PUSH1 0x40 PUSH2 0x3FE9 DUP7 DUP3 DUP8 ADD PUSH2 0x3F5E JUMP JUMPDEST SWAP2 POP POP SWAP3 POP SWAP3 POP SWAP3 JUMP JUMPDEST PUSH1 0x0 DUP1 PUSH1 0x0 DUP1 PUSH1 0x0 PUSH1 0x80 DUP7 DUP9 SUB SLT ISZERO PUSH2 0x400F JUMPI PUSH2 0x400E PUSH2 0x4DAA JUMP JUMPDEST JUMPDEST PUSH1 0x0 PUSH2 0x401D DUP9 DUP3 DUP10 ADD PUSH2 0x3EC9 JUMP JUMPDEST SWAP6 POP POP PUSH1 0x20 PUSH2 0x402E DUP9 DUP3 DUP10 ADD PUSH2 0x3EC9 JUMP JUMPDEST SWAP5 POP POP PUSH1 0x40 PUSH2 0x403F DUP9 DUP3 DUP10 ADD PUSH2 0x3F5E JUMP JUMPDEST SWAP4 POP POP PUSH1 0x60 DUP7 ADD CALLDATALOAD PUSH8 0xFFFFFFFFFFFFFFFF DUP2 GT ISZERO PUSH2 0x4060 JUMPI PUSH2 0x405F PUSH2 0x4DA5 JUMP JUMPDEST JUMPDEST PUSH2 0x406C DUP9 DUP3 DUP10 ADD PUSH2 0x3F08 JUMP JUMPDEST SWAP3 POP SWAP3 POP POP SWAP3 SWAP6 POP SWAP3 SWAP6 SWAP1 SWAP4 POP JUMP JUMPDEST PUSH1 0x0 DUP1 PUSH1 0x0 DUP1 PUSH1 0x80 DUP6 DUP8 SUB SLT ISZERO PUSH2 0x4095 JUMPI PUSH2 0x4094 PUSH2 0x4DAA JUMP JUMPDEST JUMPDEST PUSH1 0x0 PUSH2 0x40A3 DUP8 DUP3 DUP9 ADD PUSH2 0x3EC9 JUMP JUMPDEST SWAP5 POP POP PUSH1 0x20 PUSH2 0x40B4 DUP8 DUP3 DUP9 ADD PUSH2 0x3EC9 JUMP JUMPDEST SWAP4 POP POP PUSH1 0x40 PUSH2 0x40C5 DUP8 DUP3 DUP9 ADD PUSH2 0x3F5E JUMP JUMPDEST SWAP3 POP POP PUSH1 0x60 PUSH2 0x40D6 DUP8 DUP3 DUP9 ADD PUSH2 0x3F5E JUMP JUMPDEST SWAP2 POP POP SWAP3 SWAP6 SWAP2 SWAP5 POP SWAP3 POP JUMP JUMPDEST PUSH1 0x0 DUP1 PUSH1 0x0 DUP1 PUSH1 0x0 DUP1 PUSH1 0xC0 DUP8 DUP10 SUB SLT ISZERO PUSH2 0x40FF JUMPI PUSH2 0x40FE PUSH2 0x4DAA JUMP JUMPDEST JUMPDEST PUSH1 0x0 PUSH2 0x410D DUP10 DUP3 DUP11 ADD PUSH2 0x3EC9 JUMP JUMPDEST SWAP7 POP POP PUSH1 0x20 PUSH2 0x411E DUP10 DUP3 DUP11 ADD PUSH2 0x3EC9 JUMP JUMPDEST SWAP6 POP POP PUSH1 0x40 PUSH2 0x412F DUP10 DUP3 DUP11 ADD PUSH2 0x3F5E JUMP JUMPDEST SWAP5 POP POP PUSH1 0x60 PUSH2 0x4140 DUP10 DUP3 DUP11 ADD PUSH2 0x3F5E JUMP JUMPDEST SWAP4 POP POP PUSH1 0x80 PUSH2 0x4151 DUP10 DUP3 DUP11 ADD PUSH2 0x3F5E JUMP JUMPDEST SWAP3 POP POP PUSH1 0xA0 PUSH2 0x4162 DUP10 DUP3 DUP11 ADD PUSH2 0x3F5E JUMP JUMPDEST SWAP2 POP POP SWAP3 SWAP6 POP SWAP3 SWAP6 POP SWAP3 SWAP6 JUMP JUMPDEST PUSH1 0x0 DUP1 PUSH1 0x40 DUP4 DUP6 SUB SLT ISZERO PUSH2 0x4186 JUMPI PUSH2 0x4185 PUSH2 0x4DAA JUMP JUMPDEST JUMPDEST PUSH1 0x0 PUSH2 0x4194 DUP6 DUP3 DUP7 ADD PUSH2 0x3EC9 JUMP JUMPDEST SWAP3 POP POP PUSH1 0x20 PUSH2 0x41A5 DUP6 DUP3 DUP7 ADD PUSH2 0x3F5E JUMP JUMPDEST SWAP2 POP POP SWAP3 POP SWAP3 SWAP1 POP JUMP JUMPDEST PUSH1 0x0 DUP1 PUSH1 0x0 PUSH1 0x60 DUP5 DUP7 SUB SLT ISZERO PUSH2 0x41C8 JUMPI PUSH2 0x41C7 PUSH2 0x4DAA JUMP JUMPDEST JUMPDEST PUSH1 0x0 PUSH2 0x41D6 DUP7 DUP3 DUP8 ADD PUSH2 0x3EC9 JUMP JUMPDEST SWAP4 POP POP PUSH1 0x20 PUSH2 0x41E7 DUP7 DUP3 DUP8 ADD PUSH2 0x3F5E JUMP JUMPDEST SWAP3 POP POP PUSH1 0x40 PUSH2 0x41F8 DUP7 DUP3 DUP8 ADD PUSH2 0x3EC9 JUMP JUMPDEST SWAP2 POP POP SWAP3 POP SWAP3 POP SWAP3 JUMP JUMPDEST PUSH1 0x0 DUP1 PUSH1 0x0 PUSH1 0x60 DUP5 DUP7 SUB SLT ISZERO PUSH2 0x421B JUMPI PUSH2 0x421A PUSH2 0x4DAA JUMP JUMPDEST JUMPDEST PUSH1 0x0 PUSH2 0x4229 DUP7 DUP3 DUP8 ADD PUSH2 0x3EC9 JUMP JUMPDEST SWAP4 POP POP PUSH1 0x20 PUSH2 0x423A DUP7 DUP3 DUP8 ADD PUSH2 0x3F5E JUMP JUMPDEST SWAP3 POP POP PUSH1 0x40 PUSH2 0x424B DUP7 DUP3 DUP8 ADD PUSH2 0x3F5E JUMP JUMPDEST SWAP2 POP POP SWAP3 POP SWAP3 POP SWAP3 JUMP JUMPDEST PUSH1 0x0 PUSH1 0x20 DUP3 DUP5 SUB SLT ISZERO PUSH2 0x426B JUMPI PUSH2 0x426A PUSH2 0x4DAA JUMP JUMPDEST JUMPDEST PUSH1 0x0 PUSH2 0x4279 DUP5 DUP3 DUP6 ADD PUSH2 0x3EF3 JUMP JUMPDEST SWAP2 POP POP SWAP3 SWAP2 POP POP JUMP JUMPDEST PUSH1 0x0 PUSH2 0x428E DUP4 DUP4 PUSH2 0x466A JUMP JUMPDEST PUSH1 0x40 DUP4 ADD SWAP1 POP SWAP3 SWAP2 POP POP JUMP JUMPDEST PUSH2 0x42A3 DUP2 PUSH2 0x4CC4 JUMP JUMPDEST DUP3 MSTORE POP POP JUMP JUMPDEST PUSH2 0x42B2 DUP2 PUSH2 0x4CC4 JUMP JUMPDEST DUP3 MSTORE POP POP JUMP JUMPDEST PUSH1 0x0 PUSH2 0x42C3 DUP3 PUSH2 0x4C29 JUMP JUMPDEST PUSH2 0x42CD DUP2 DUP6 PUSH2 0x4C41 JUMP JUMPDEST SWAP4 POP PUSH2 0x42D8 DUP4 PUSH2 0x4C19 JUMP JUMPDEST DUP1 PUSH1 0x0 JUMPDEST DUP4 DUP2 LT ISZERO PUSH2 0x4309 JUMPI DUP2 MLOAD PUSH2 0x42F0 DUP9 DUP3 PUSH2 0x4282 JUMP JUMPDEST SWAP8 POP PUSH2 0x42FB DUP4 PUSH2 0x4C34 JUMP JUMPDEST SWAP3 POP POP PUSH1 0x1 DUP2 ADD SWAP1 POP PUSH2 0x42DC JUMP JUMPDEST POP DUP6 SWAP4 POP POP POP POP SWAP3 SWAP2 POP POP JUMP JUMPDEST PUSH2 0x431F DUP2 PUSH2 0x4CD6 JUMP JUMPDEST DUP3 MSTORE POP POP JUMP JUMPDEST PUSH2 0x432E DUP2 PUSH2 0x4CE2 JUMP JUMPDEST DUP3 MSTORE POP POP JUMP JUMPDEST PUSH1 0x0 PUSH2 0x4341 PUSH1 0x16 DUP4 PUSH2 0x4C5D JUMP JUMPDEST SWAP2 POP PUSH2 0x434C DUP3 PUSH2 0x4DAF JUMP JUMPDEST PUSH1 0x20 DUP3 ADD SWAP1 POP SWAP2 SWAP1 POP JUMP JUMPDEST PUSH1 0x0 PUSH2 0x4364 PUSH1 0x1C DUP4 PUSH2 0x4C5D JUMP JUMPDEST SWAP2 POP PUSH2 0x436F DUP3 PUSH2 0x4DD8 JUMP JUMPDEST PUSH1 0x20 DUP3 ADD SWAP1 POP SWAP2 SWAP1 POP JUMP JUMPDEST PUSH1 0x0 PUSH2 0x4387 PUSH1 0x11 DUP4 PUSH2 0x4C5D JUMP JUMPDEST SWAP2 POP PUSH2 0x4392 DUP3 PUSH2 0x4E01 JUMP JUMPDEST PUSH1 0x20 DUP3 ADD SWAP1 POP SWAP2 SWAP1 POP JUMP JUMPDEST PUSH1 0x0 PUSH2 0x43AA PUSH1 0xD DUP4 PUSH2 0x4C5D JUMP JUMPDEST SWAP2 POP PUSH2 0x43B5 DUP3 PUSH2 0x4E2A JUMP JUMPDEST PUSH1 0x20 DUP3 ADD SWAP1 POP SWAP2 SWAP1 POP JUMP JUMPDEST PUSH1 0x0 PUSH2 0x43CD PUSH1 0x15 DUP4 PUSH2 0x4C5D JUMP JUMPDEST SWAP2 POP PUSH2 0x43D8 DUP3 PUSH2 0x4E53 JUMP JUMPDEST PUSH1 0x20 DUP3 ADD SWAP1 POP SWAP2 SWAP1 POP JUMP JUMPDEST PUSH1 0x0 PUSH2 0x43F0 PUSH1 0x17 DUP4 PUSH2 0x4C5D JUMP JUMPDEST SWAP2 POP PUSH2 0x43FB DUP3 PUSH2 0x4E7C JUMP JUMPDEST PUSH1 0x20 DUP3 ADD SWAP1 POP SWAP2 SWAP1 POP JUMP JUMPDEST PUSH1 0x0 PUSH2 0x4413 PUSH1 0x1D DUP4 PUSH2 0x4C5D JUMP JUMPDEST SWAP2 POP PUSH2 0x441E DUP3 PUSH2 0x4EA5 JUMP JUMPDEST PUSH1 0x20 DUP3 ADD SWAP1 POP SWAP2 SWAP1 POP JUMP JUMPDEST PUSH1 0x0 PUSH2 0x4436 PUSH1 0xB DUP4 PUSH2 0x4C5D JUMP JUMPDEST SWAP2 POP PUSH2 0x4441 DUP3 PUSH2 0x4ECE JUMP JUMPDEST PUSH1 0x20 DUP3 ADD SWAP1 POP SWAP2 SWAP1 POP JUMP JUMPDEST PUSH1 0x0 PUSH2 0x4459 PUSH1 0x13 DUP4 PUSH2 0x4C5D JUMP JUMPDEST SWAP2 POP PUSH2 0x4464 DUP3 PUSH2 0x4EF7 JUMP JUMPDEST PUSH1 0x20 DUP3 ADD SWAP1 POP SWAP2 SWAP1 POP JUMP JUMPDEST PUSH1 0x0 PUSH2 0x447C PUSH1 0x8 DUP4 PUSH2 0x4C5D JUMP JUMPDEST SWAP2 POP PUSH2 0x4487 DUP3 PUSH2 0x4F20 JUMP JUMPDEST PUSH1 0x20 DUP3 ADD SWAP1 POP SWAP2 SWAP1 POP JUMP JUMPDEST PUSH1 0x0 PUSH2 0x449F PUSH1 0x14 DUP4 PUSH2 0x4C5D JUMP JUMPDEST SWAP2 POP PUSH2 0x44AA DUP3 PUSH2 0x4F49 JUMP JUMPDEST PUSH1 0x20 DUP3 ADD SWAP1 POP SWAP2 SWAP1 POP JUMP JUMPDEST PUSH1 0x0 PUSH2 0x44C2 PUSH1 0xF DUP4 PUSH2 0x4C5D JUMP JUMPDEST SWAP2 POP PUSH2 0x44CD DUP3 PUSH2 0x4F72 JUMP JUMPDEST PUSH1 0x20 DUP3 ADD SWAP1 POP SWAP2 SWAP1 POP JUMP JUMPDEST PUSH1 0x0 PUSH2 0x44E5 PUSH1 0x15 DUP4 PUSH2 0x4C5D JUMP JUMPDEST SWAP2 POP PUSH2 0x44F0 DUP3 PUSH2 0x4F9B JUMP JUMPDEST PUSH1 0x20 DUP3 ADD SWAP1 POP SWAP2 SWAP1 POP JUMP JUMPDEST PUSH1 0x0 PUSH2 0x4508 PUSH1 0x0 DUP4 PUSH2 0x4C52 JUMP JUMPDEST SWAP2 POP PUSH2 0x4513 DUP3 PUSH2 0x4FC4 JUMP JUMPDEST PUSH1 0x0 DUP3 ADD SWAP1 POP SWAP2 SWAP1 POP JUMP JUMPDEST PUSH1 0x0 PUSH2 0x452B PUSH1 0x13 DUP4 PUSH2 0x4C5D JUMP JUMPDEST SWAP2 POP PUSH2 0x4536 DUP3 PUSH2 0x4FC7 JUMP JUMPDEST PUSH1 0x20 DUP3 ADD SWAP1 POP SWAP2 SWAP1 POP JUMP JUMPDEST PUSH1 0x0 PUSH2 0x454E PUSH1 0x14 DUP4 PUSH2 0x4C5D JUMP JUMPDEST SWAP2 POP PUSH2 0x4559 DUP3 PUSH2 0x4FF0 JUMP JUMPDEST PUSH1 0x20 DUP3 ADD SWAP1 POP SWAP2 SWAP1 POP JUMP JUMPDEST PUSH1 0x0 PUSH2 0x4571 PUSH1 0xD DUP4 PUSH2 0x4C5D JUMP JUMPDEST SWAP2 POP PUSH2 0x457C DUP3 PUSH2 0x5019 JUMP JUMPDEST PUSH1 0x20 DUP3 ADD SWAP1 POP SWAP2 SWAP1 POP JUMP JUMPDEST PUSH1 0xE0 DUP3 ADD PUSH1 0x0 DUP3 ADD MLOAD PUSH2 0x459D PUSH1 0x0 DUP6 ADD DUP3 PUSH2 0x4699 JUMP JUMPDEST POP PUSH1 0x20 DUP3 ADD MLOAD PUSH2 0x45B0 PUSH1 0x20 DUP6 ADD DUP3 PUSH2 0x4699 JUMP JUMPDEST POP PUSH1 0x40 DUP3 ADD MLOAD PUSH2 0x45C3 PUSH1 0x40 DUP6 ADD DUP3 PUSH2 0x4699 JUMP JUMPDEST POP PUSH1 0x60 DUP3 ADD MLOAD PUSH2 0x45D6 PUSH1 0x60 DUP6 ADD DUP3 PUSH2 0x4699 JUMP JUMPDEST POP PUSH1 0x80 DUP3 ADD MLOAD PUSH2 0x45E9 PUSH1 0x80 DUP6 ADD DUP3 PUSH2 0x429A JUMP JUMPDEST POP PUSH1 0xA0 DUP3 ADD MLOAD PUSH2 0x45FC PUSH1 0xA0 DUP6 ADD DUP3 PUSH2 0x429A JUMP JUMPDEST POP PUSH1 0xC0 DUP3 ADD MLOAD PUSH2 0x460F PUSH1 0xC0 DUP6 ADD DUP3 PUSH2 0x429A JUMP JUMPDEST POP POP POP POP JUMP JUMPDEST PUSH1 0x80 DUP3 ADD PUSH1 0x0 DUP3 ADD MLOAD PUSH2 0x462B PUSH1 0x0 DUP6 ADD DUP3 PUSH2 0x429A JUMP JUMPDEST POP PUSH1 0x20 DUP3 ADD MLOAD PUSH2 0x463E PUSH1 0x20 DUP6 ADD DUP3 PUSH2 0x429A JUMP JUMPDEST POP PUSH1 0x40 DUP3 ADD MLOAD PUSH2 0x4651 PUSH1 0x40 DUP6 ADD DUP3 PUSH2 0x429A JUMP JUMPDEST POP PUSH1 0x60 DUP3 ADD MLOAD PUSH2 0x4664 PUSH1 0x60 DUP6 ADD DUP3 PUSH2 0x4699 JUMP JUMPDEST POP POP POP POP JUMP JUMPDEST PUSH1 0x40 DUP3 ADD PUSH1 0x0 DUP3 ADD MLOAD PUSH2 0x4680 PUSH1 0x0 DUP6 ADD DUP3 PUSH2 0x429A JUMP JUMPDEST POP PUSH1 0x20 DUP3 ADD MLOAD PUSH2 0x4693 PUSH1 0x20 DUP6 ADD DUP3 PUSH2 0x4699 JUMP JUMPDEST POP POP POP POP JUMP JUMPDEST PUSH2 0x46A2 DUP2 PUSH2 0x4D2E JUMP JUMPDEST DUP3 MSTORE POP POP JUMP JUMPDEST PUSH2 0x46B1 DUP2 PUSH2 0x4D2E JUMP JUMPDEST DUP3 MSTORE POP POP JUMP JUMPDEST PUSH1 0x0 PUSH2 0x46C2 DUP3 PUSH2 0x44FB JUMP JUMPDEST SWAP2 POP DUP2 SWAP1 POP SWAP2 SWAP1 POP JUMP JUMPDEST PUSH1 0x0 PUSH1 0x40 DUP3 ADD SWAP1 POP PUSH2 0x46E1 PUSH1 0x0 DUP4 ADD DUP6 PUSH2 0x42A9 JUMP JUMPDEST PUSH2 0x46EE PUSH1 0x20 DUP4 ADD DUP5 PUSH2 0x42A9 JUMP JUMPDEST SWAP4 SWAP3 POP POP POP JUMP JUMPDEST PUSH1 0x0 PUSH1 0xC0 DUP3 ADD SWAP1 POP PUSH2 0x470A PUSH1 0x0 DUP4 ADD DUP10 PUSH2 0x42A9 JUMP JUMPDEST PUSH2 0x4717 PUSH1 0x20 DUP4 ADD DUP9 PUSH2 0x42A9 JUMP JUMPDEST PUSH2 0x4724 PUSH1 0x40 DUP4 ADD DUP8 PUSH2 0x42A9 JUMP JUMPDEST PUSH2 0x4731 PUSH1 0x60 DUP4 ADD DUP7 PUSH2 0x46A8 JUMP JUMPDEST PUSH2 0x473E PUSH1 0x80 DUP4 ADD DUP6 PUSH2 0x46A8 JUMP JUMPDEST PUSH2 0x474B PUSH1 0xA0 DUP4 ADD DUP5 PUSH2 0x46A8 JUMP JUMPDEST SWAP8 SWAP7 POP POP POP POP POP POP POP JUMP JUMPDEST PUSH1 0x0 PUSH1 0xE0 DUP3 ADD SWAP1 POP PUSH2 0x476B PUSH1 0x0 DUP4 ADD DUP11 PUSH2 0x42A9 JUMP JUMPDEST PUSH2 0x4778 PUSH1 0x20 DUP4 ADD DUP10 PUSH2 0x42A9 JUMP JUMPDEST PUSH2 0x4785 PUSH1 0x40 DUP4 ADD DUP9 PUSH2 0x42A9 JUMP JUMPDEST PUSH2 0x4792 PUSH1 0x60 DUP4 ADD DUP8 PUSH2 0x46A8 JUMP JUMPDEST PUSH2 0x479F PUSH1 0x80 DUP4 ADD DUP7 PUSH2 0x46A8 JUMP JUMPDEST PUSH2 0x47AC PUSH1 0xA0 DUP4 ADD DUP6 PUSH2 0x46A8 JUMP JUMPDEST PUSH2 0x47B9 PUSH1 0xC0 DUP4 ADD DUP5 PUSH2 0x46A8 JUMP JUMPDEST SWAP9 SWAP8 POP POP POP POP POP POP POP POP JUMP JUMPDEST PUSH1 0x0 PUSH1 0x60 DUP3 ADD SWAP1 POP PUSH2 0x47DA PUSH1 0x0 DUP4 ADD DUP7 PUSH2 0x42A9 JUMP JUMPDEST PUSH2 0x47E7 PUSH1 0x20 DUP4 ADD DUP6 PUSH2 0x42A9 JUMP JUMPDEST PUSH2 0x47F4 PUSH1 0x40 DUP4 ADD DUP5 PUSH2 0x46A8 JUMP JUMPDEST SWAP5 SWAP4 POP POP POP POP JUMP JUMPDEST PUSH1 0x0 PUSH1 0x80 DUP3 ADD SWAP1 POP PUSH2 0x4811 PUSH1 0x0 DUP4 ADD DUP8 PUSH2 0x42A9 JUMP JUMPDEST PUSH2 0x481E PUSH1 0x20 DUP4 ADD DUP7 PUSH2 0x42A9 JUMP JUMPDEST PUSH2 0x482B PUSH1 0x40 DUP4 ADD DUP6 PUSH2 0x46A8 JUMP JUMPDEST PUSH2 0x4838 PUSH1 0x60 DUP4 ADD DUP5 PUSH2 0x46A8 JUMP JUMPDEST SWAP6 SWAP5 POP POP POP POP POP JUMP JUMPDEST PUSH1 0x0 PUSH1 0x40 DUP3 ADD SWAP1 POP PUSH2 0x4856 PUSH1 0x0 DUP4 ADD DUP6 PUSH2 0x42A9 JUMP JUMPDEST PUSH2 0x4863 PUSH1 0x20 DUP4 ADD DUP5 PUSH2 0x46A8 JUMP JUMPDEST SWAP4 SWAP3 POP POP POP JUMP JUMPDEST PUSH1 0x0 PUSH1 0x60 DUP3 ADD SWAP1 POP PUSH2 0x487F PUSH1 0x0 DUP4 ADD DUP7 PUSH2 0x42A9 JUMP JUMPDEST PUSH2 0x488C PUSH1 0x20 DUP4 ADD DUP6 PUSH2 0x46A8 JUMP JUMPDEST PUSH2 0x4899 PUSH1 0x40 DUP4 ADD DUP5 PUSH2 0x42A9 JUMP JUMPDEST SWAP5 SWAP4 POP POP POP POP JUMP JUMPDEST PUSH1 0x0 PUSH1 0xA0 DUP3 ADD SWAP1 POP PUSH2 0x48B6 PUSH1 0x0 DUP4 ADD DUP9 PUSH2 0x42A9 JUMP JUMPDEST PUSH2 0x48C3 PUSH1 0x20 DUP4 ADD DUP8 PUSH2 0x46A8 JUMP JUMPDEST PUSH2 0x48D0 PUSH1 0x40 DUP4 ADD DUP7 PUSH2 0x42A9 JUMP JUMPDEST PUSH2 0x48DD PUSH1 0x60 DUP4 ADD DUP6 PUSH2 0x46A8 JUMP JUMPDEST PUSH2 0x48EA PUSH1 0x80 DUP4 ADD DUP5 PUSH2 0x42A9 JUMP JUMPDEST SWAP7 SWAP6 POP POP POP POP POP POP JUMP JUMPDEST PUSH1 0x0 PUSH1 0x60 DUP3 ADD SWAP1 POP PUSH2 0x4909 PUSH1 0x0 DUP4 ADD DUP7 PUSH2 0x42A9 JUMP JUMPDEST PUSH2 0x4916 PUSH1 0x20 DUP4 ADD DUP6 PUSH2 0x46A8 JUMP JUMPDEST PUSH2 0x4923 PUSH1 0x40 DUP4 ADD DUP5 PUSH2 0x46A8 JUMP JUMPDEST SWAP5 SWAP4 POP POP POP POP JUMP JUMPDEST PUSH1 0x0 PUSH1 0x80 DUP3 ADD SWAP1 POP PUSH2 0x4940 PUSH1 0x0 DUP4 ADD DUP8 PUSH2 0x42A9 JUMP JUMPDEST PUSH2 0x494D PUSH1 0x20 DUP4 ADD DUP7 PUSH2 0x46A8 JUMP JUMPDEST PUSH2 0x495A PUSH1 0x40 DUP4 ADD DUP6 PUSH2 0x46A8 JUMP JUMPDEST PUSH2 0x4967 PUSH1 0x60 DUP4 ADD DUP5 PUSH2 0x42A9 JUMP JUMPDEST SWAP6 SWAP5 POP POP POP POP POP JUMP JUMPDEST PUSH1 0x0 PUSH1 0x20 DUP3 ADD SWAP1 POP DUP2 DUP2 SUB PUSH1 0x0 DUP4 ADD MSTORE PUSH2 0x498A DUP2 DUP5 PUSH2 0x42B8 JUMP JUMPDEST SWAP1 POP SWAP3 SWAP2 POP POP JUMP JUMPDEST PUSH1 0x0 PUSH1 0x20 DUP3 ADD SWAP1 POP PUSH2 0x49A7 PUSH1 0x0 DUP4 ADD DUP5 PUSH2 0x4316 JUMP JUMPDEST SWAP3 SWAP2 POP POP JUMP JUMPDEST PUSH1 0x0 PUSH1 0x20 DUP3 ADD SWAP1 POP PUSH2 0x49C2 PUSH1 0x0 DUP4 ADD DUP5 PUSH2 0x4325 JUMP JUMPDEST SWAP3 SWAP2 POP POP JUMP JUMPDEST PUSH1 0x0 PUSH1 0x20 DUP3 ADD SWAP1 POP DUP2 DUP2 SUB PUSH1 0x0 DUP4 ADD MSTORE PUSH2 0x49E1 DUP2 PUSH2 0x4334 JUMP JUMPDEST SWAP1 POP SWAP2 SWAP1 POP JUMP JUMPDEST PUSH1 0x0 PUSH1 0x20 DUP3 ADD SWAP1 POP DUP2 DUP2 SUB PUSH1 0x0 DUP4 ADD MSTORE PUSH2 0x4A01 DUP2 PUSH2 0x4357 JUMP JUMPDEST SWAP1 POP SWAP2 SWAP1 POP JUMP JUMPDEST PUSH1 0x0 PUSH1 0x20 DUP3 ADD SWAP1 POP DUP2 DUP2 SUB PUSH1 0x0 DUP4 ADD MSTORE PUSH2 0x4A21 DUP2 PUSH2 0x437A JUMP JUMPDEST SWAP1 POP SWAP2 SWAP1 POP JUMP JUMPDEST PUSH1 0x0 PUSH1 0x20 DUP3 ADD SWAP1 POP DUP2 DUP2 SUB PUSH1 0x0 DUP4 ADD MSTORE PUSH2 0x4A41 DUP2 PUSH2 0x439D JUMP JUMPDEST SWAP1 POP SWAP2 SWAP1 POP JUMP JUMPDEST PUSH1 0x0 PUSH1 0x20 DUP3 ADD SWAP1 POP DUP2 DUP2 SUB PUSH1 0x0 DUP4 ADD MSTORE PUSH2 0x4A61 DUP2 PUSH2 0x43C0 JUMP JUMPDEST SWAP1 POP SWAP2 SWAP1 POP JUMP JUMPDEST PUSH1 0x0 PUSH1 0x20 DUP3 ADD SWAP1 POP DUP2 DUP2 SUB PUSH1 0x0 DUP4 ADD MSTORE PUSH2 0x4A81 DUP2 PUSH2 0x43E3 JUMP JUMPDEST SWAP1 POP SWAP2 SWAP1 POP JUMP JUMPDEST PUSH1 0x0 PUSH1 0x20 DUP3 ADD SWAP1 POP DUP2 DUP2 SUB PUSH1 0x0 DUP4 ADD MSTORE PUSH2 0x4AA1 DUP2 PUSH2 0x4406 JUMP JUMPDEST SWAP1 POP SWAP2 SWAP1 POP JUMP JUMPDEST PUSH1 0x0 PUSH1 0x20 DUP3 ADD SWAP1 POP DUP2 DUP2 SUB PUSH1 0x0 DUP4 ADD MSTORE PUSH2 0x4AC1 DUP2 PUSH2 0x4429 JUMP JUMPDEST SWAP1 POP SWAP2 SWAP1 POP JUMP JUMPDEST PUSH1 0x0 PUSH1 0x20 DUP3 ADD SWAP1 POP DUP2 DUP2 SUB PUSH1 0x0 DUP4 ADD MSTORE PUSH2 0x4AE1 DUP2 PUSH2 0x444C JUMP JUMPDEST SWAP1 POP SWAP2 SWAP1 POP JUMP JUMPDEST PUSH1 0x0 PUSH1 0x20 DUP3 ADD SWAP1 POP DUP2 DUP2 SUB PUSH1 0x0 DUP4 ADD MSTORE PUSH2 0x4B01 DUP2 PUSH2 0x446F JUMP JUMPDEST SWAP1 POP SWAP2 SWAP1 POP JUMP JUMPDEST PUSH1 0x0 PUSH1 0x20 DUP3 ADD SWAP1 POP DUP2 DUP2 SUB PUSH1 0x0 DUP4 ADD MSTORE PUSH2 0x4B21 DUP2 PUSH2 0x4492 JUMP JUMPDEST SWAP1 POP SWAP2 SWAP1 POP JUMP JUMPDEST PUSH1 0x0 PUSH1 0x20 DUP3 ADD SWAP1 POP DUP2 DUP2 SUB PUSH1 0x0 DUP4 ADD MSTORE PUSH2 0x4B41 DUP2 PUSH2 0x44B5 JUMP JUMPDEST SWAP1 POP SWAP2 SWAP1 POP JUMP JUMPDEST PUSH1 0x0 PUSH1 0x20 DUP3 ADD SWAP1 POP DUP2 DUP2 SUB PUSH1 0x0 DUP4 ADD MSTORE PUSH2 0x4B61 DUP2 PUSH2 0x44D8 JUMP JUMPDEST SWAP1 POP SWAP2 SWAP1 POP JUMP JUMPDEST PUSH1 0x0 PUSH1 0x20 DUP3 ADD SWAP1 POP DUP2 DUP2 SUB PUSH1 0x0 DUP4 ADD MSTORE PUSH2 0x4B81 DUP2 PUSH2 0x451E JUMP JUMPDEST SWAP1 POP SWAP2 SWAP1 POP JUMP JUMPDEST PUSH1 0x0 PUSH1 0x20 DUP3 ADD SWAP1 POP DUP2 DUP2 SUB PUSH1 0x0 DUP4 ADD MSTORE PUSH2 0x4BA1 DUP2 PUSH2 0x4541 JUMP JUMPDEST SWAP1 POP SWAP2 SWAP1 POP JUMP JUMPDEST PUSH1 0x0 PUSH1 0x20 DUP3 ADD SWAP1 POP DUP2 DUP2 SUB PUSH1 0x0 DUP4 ADD MSTORE PUSH2 0x4BC1 DUP2 PUSH2 0x4564 JUMP JUMPDEST SWAP1 POP SWAP2 SWAP1 POP JUMP JUMPDEST PUSH1 0x0 PUSH1 0xE0 DUP3 ADD SWAP1 POP PUSH2 0x4BDD PUSH1 0x0 DUP4 ADD DUP5 PUSH2 0x4587 JUMP JUMPDEST SWAP3 SWAP2 POP POP JUMP JUMPDEST PUSH1 0x0 PUSH1 0x80 DUP3 ADD SWAP1 POP PUSH2 0x4BF8 PUSH1 0x0 DUP4 ADD DUP5 PUSH2 0x4615 JUMP JUMPDEST SWAP3 SWAP2 POP POP JUMP JUMPDEST PUSH1 0x0 PUSH1 0x20 DUP3 ADD SWAP1 POP PUSH2 0x4C13 PUSH1 0x0 DUP4 ADD DUP5 PUSH2 0x46A8 JUMP JUMPDEST SWAP3 SWAP2 POP POP JUMP JUMPDEST PUSH1 0x0 DUP2 SWAP1 POP PUSH1 0x20 DUP3 ADD SWAP1 POP SWAP2 SWAP1 POP JUMP JUMPDEST PUSH1 0x0 DUP2 MLOAD SWAP1 POP SWAP2 SWAP1 POP JUMP JUMPDEST PUSH1 0x0 PUSH1 0x20 DUP3 ADD SWAP1 POP SWAP2 SWAP1 POP JUMP JUMPDEST PUSH1 0x0 DUP3 DUP3 MSTORE PUSH1 0x20 DUP3 ADD SWAP1 POP SWAP3 SWAP2 POP POP JUMP JUMPDEST PUSH1 0x0 DUP2 SWAP1 POP SWAP3 SWAP2 POP POP JUMP JUMPDEST PUSH1 0x0 DUP3 DUP3 MSTORE PUSH1 0x20 DUP3 ADD SWAP1 POP SWAP3 SWAP2 POP POP JUMP JUMPDEST PUSH1 0x0 PUSH2 0x4C79 DUP3 PUSH2 0x4D2E JUMP JUMPDEST SWAP2 POP PUSH2 0x4C84 DUP4 PUSH2 0x4D2E JUMP JUMPDEST SWAP3 POP DUP3 PUSH32 0xFFFFFFFFFFFFFFFFFFFFFFFFFFFFFFFFFFFFFFFFFFFFFFFFFFFFFFFFFFFFFFFF SUB DUP3 GT ISZERO PUSH2 0x4CB9 JUMPI PUSH2 0x4CB8 PUSH2 0x4D38 JUMP JUMPDEST JUMPDEST DUP3 DUP3 ADD SWAP1 POP SWAP3 SWAP2 POP POP JUMP JUMPDEST PUSH1 0x0 PUSH2 0x4CCF DUP3 PUSH2 0x4D0E JUMP JUMPDEST SWAP1 POP SWAP2 SWAP1 POP JUMP JUMPDEST PUSH1 0x0 DUP2 ISZERO ISZERO SWAP1 POP SWAP2 SWAP1 POP JUMP JUMPDEST PUSH1 0x0 PUSH32 0xFFFFFFFF00000000000000000000000000000000000000000000000000000000 DUP3 AND SWAP1 POP SWAP2 SWAP1 POP JUMP JUMPDEST PUSH1 0x0 PUSH20 0xFFFFFFFFFFFFFFFFFFFFFFFFFFFFFFFFFFFFFFFF DUP3 AND SWAP1 POP SWAP2 SWAP1 POP JUMP JUMPDEST PUSH1 0x0 DUP2 SWAP1 POP SWAP2 SWAP1 POP JUMP JUMPDEST PUSH32 0x4E487B7100000000000000000000000000000000000000000000000000000000 PUSH1 0x0 MSTORE PUSH1 0x11 PUSH1 0x4 MSTORE PUSH1 0x24 PUSH1 0x0 REVERT JUMPDEST PUSH32 0x4E487B7100000000000000000000000000000000000000000000000000000000 PUSH1 0x0 MSTORE PUSH1 0x32 PUSH1 0x4 MSTORE PUSH1 0x24 PUSH1 0x0 REVERT JUMPDEST PUSH1 0x0 DUP1 REVERT JUMPDEST PUSH1 0x0 DUP1 REVERT JUMPDEST PUSH1 0x0 DUP1 REVERT JUMPDEST PUSH1 0x0 DUP1 REVERT JUMPDEST PUSH1 0x0 DUP1 REVERT JUMPDEST PUSH32 0x596F752061726520686967686573742062696464657200000000000000000000 PUSH1 0x0 DUP3 ADD MSTORE POP JUMP JUMPDEST PUSH32 0x4E6674206E6F7420617070726F76656420746F20636F6E747261637400000000 PUSH1 0x0 DUP3 ADD MSTORE POP JUMP JUMPDEST PUSH32 0x50726963652063616E6E6F742062652030000000000000000000000000000000 PUSH1 0x0 DUP3 ADD MSTORE POP JUMP JUMPDEST PUSH32 0x6E6F74206E6674206F776E657200000000000000000000000000000000000000 PUSH1 0x0 DUP3 ADD MSTORE POP JUMP JUMPDEST PUSH32 0x4E6674206E6F7420696E2066697865642073616C650000000000000000000000 PUSH1 0x0 DUP3 ADD MSTORE POP JUMP JUMPDEST PUSH32 0x4E6674206E6F7420696E2061756374696F6E2073616C65000000000000000000 PUSH1 0x0 DUP3 ADD MSTORE POP JUMP JUMPDEST PUSH32 0x4269642047726561746572207468616E2050726576696F757320426964000000 PUSH1 0x0 DUP3 ADD MSTORE POP JUMP JUMPDEST PUSH32 0x41756374696F6E20656E64000000000000000000000000000000000000000000 PUSH1 0x0 DUP3 ADD MSTORE POP JUMP JUMPDEST PUSH32 0x4E667420616C726561647920696E2073616C6500000000000000000000000000 PUSH1 0x0 DUP3 ADD MSTORE POP JUMP JUMPDEST PUSH32 0x626964206D616B65000000000000000000000000000000000000000000000000 PUSH1 0x0 DUP3 ADD MSTORE POP JUMP JUMPDEST PUSH32 0x616C6C6F77616E6365206E6F7420656E6F756768000000000000000000000000 PUSH1 0x0 DUP3 ADD MSTORE POP JUMP JUMPDEST PUSH32 0x41756374696F6E206E6F7420656E640000000000000000000000000000000000 PUSH1 0x0 DUP3 ADD MSTORE POP JUMP JUMPDEST PUSH32 0x596F7520617265206E6F74206E6674206F776E65720000000000000000000000 PUSH1 0x0 DUP3 ADD MSTORE POP JUMP JUMPDEST POP JUMP JUMPDEST PUSH32 0x6E6F7468696E6720746F20776974686472617700000000000000000000000000 PUSH1 0x0 DUP3 ADD MSTORE POP JUMP JUMPDEST PUSH32 0x627579205072696365206E6F7420656E6F756768000000000000000000000000 PUSH1 0x0 DUP3 ADD MSTORE POP JUMP JUMPDEST PUSH32 0x726566756E64206661696C656400000000000000000000000000000000000000 PUSH1 0x0 DUP3 ADD MSTORE POP JUMP JUMPDEST PUSH2 0x504B DUP2 PUSH2 0x4CC4 JUMP JUMPDEST DUP2 EQ PUSH2 0x5056 JUMPI PUSH1 0x0 DUP1 REVERT JUMPDEST POP JUMP JUMPDEST PUSH2 0x5062 DUP2 PUSH2 0x4CD6 JUMP JUMPDEST DUP2 EQ PUSH2 0x506D JUMPI PUSH1 0x0 DUP1 REVERT JUMPDEST POP JUMP JUMPDEST PUSH2 0x5079 DUP2 PUSH2 0x4D2E JUMP JUMPDEST DUP2 EQ PUSH2 0x5084 JUMPI PUSH1 0x0 DUP1 REVERT JUMPDEST POP JUMP INVALID LOG2 PUSH5 0x6970667358 0x22 SLT KECCAK256 PUSH7 0xB504B29CA00314 0x27 0xC0 0x2F PUSH23 0x922158FE49D965A047F7B234CD0810388EC403CF64736F PUSH13 0x63430008070033000000000000 "
				},
				"gasEstimates": {
					"creation": {
						"codeDepositCost": "4133800",
						"executionCost": "4742",
						"totalCost": "4138542"
					},
					"external": {
						"Sell_AreveaToken(address,address,uint256)": "infinite",
						"_cancelAuctionSale(address,uint256)": "infinite",
						"buyAreveaToken(address,address,uint256)": "infinite",
						"buyFromFixedSale(address,uint256,uint256)": "infinite",
						"cancelFixedsale(address,uint256)": "infinite",
						"createNftAuctionSale(address,address,uint256,uint256,uint256,uint256)": "infinite",
						"getFixedSale(address,uint256)": "infinite",
						"getFixedSaleNFT()": "infinite",
						"getNftAuctionSaleDetails(address,uint256)": "infinite",
						"makeBid(address,uint256,uint256)": "infinite",
						"nftFixedSale(address,address,uint256,uint256)": "infinite",
						"nftSaleStatus(address,uint256)": "infinite",
						"onERC721Received(address,address,uint256,bytes)": "infinite",
						"settleAuction(address,uint256)": "infinite",
						"updateFixedSalePrice(address,uint256,uint256)": "infinite",
						"updateTheBidPrice(address,uint256,uint256)": "infinite",
						"userBidPriceOnNFT(address,uint256,address)": "infinite",
						"withdrawBid(address,uint256)": "infinite"
					},
					"internal": {
						"_bidAmountTransfer(uint256,address)": "infinite",
						"_isTokenOrCoin(address,address,uint256)": "infinite",
						"_nativeAmountTransfer(address,uint256)": "infinite",
						"_storedNftAuctionDetails(address,address,uint256,uint256,uint256,uint256)": "infinite",
						"_tokenAmountTransfer(address,address,uint256)": "infinite",
						"_transferNftAndPaySeller(address,uint256,uint256,address)": "infinite"
					}
				},
				"methodIdentifiers": {
					"Sell_AreveaToken(address,address,uint256)": "7ad47a21",
					"_cancelAuctionSale(address,uint256)": "842bc46a",
					"buyAreveaToken(address,address,uint256)": "00e2097c",
					"buyFromFixedSale(address,uint256,uint256)": "baf4371e",
					"cancelFixedsale(address,uint256)": "d3a6a6c9",
					"createNftAuctionSale(address,address,uint256,uint256,uint256,uint256)": "cf42b7e6",
					"getFixedSale(address,uint256)": "8c3417da",
					"getFixedSaleNFT()": "9f085a00",
					"getNftAuctionSaleDetails(address,uint256)": "6f8c9b1b",
					"makeBid(address,uint256,uint256)": "1bdae6f1",
					"nftFixedSale(address,address,uint256,uint256)": "69a6d12e",
					"nftSaleStatus(address,uint256)": "6916462f",
					"onERC721Received(address,address,uint256,bytes)": "150b7a02",
					"settleAuction(address,uint256)": "5138b08c",
					"updateFixedSalePrice(address,uint256,uint256)": "4676adca",
					"updateTheBidPrice(address,uint256,uint256)": "3a713db8",
					"userBidPriceOnNFT(address,uint256,address)": "6fe02f24",
					"withdrawBid(address,uint256)": "4cb8ef5b"
				}
			},
			"storageLayout": {
				"storage": [
					{
						"astId": 268,
						"contract": "NFT-Contracts/contracts/market_pri/NewMarket.sol:NFTMarketplace",
						"label": "nftContractFixedSale",
						"offset": 0,
						"slot": "0",
						"type": "t_mapping(t_address,t_mapping(t_uint256,t_struct(FixedSale)256_storage))"
					},
					{
						"astId": 275,
						"contract": "NFT-Contracts/contracts/market_pri/NewMarket.sol:NFTMarketplace",
						"label": "nftContractAuctionSale",
						"offset": 0,
						"slot": "1",
						"type": "t_mapping(t_address,t_mapping(t_uint256,t_struct(Auction)247_storage))"
					},
					{
						"astId": 281,
						"contract": "NFT-Contracts/contracts/market_pri/NewMarket.sol:NFTMarketplace",
						"label": "nftSaleStatus",
						"offset": 0,
						"slot": "2",
						"type": "t_mapping(t_address,t_mapping(t_uint256,t_uint256))"
					},
					{
						"astId": 289,
						"contract": "NFT-Contracts/contracts/market_pri/NewMarket.sol:NFTMarketplace",
						"label": "userBidPriceOnNFT",
						"offset": 0,
						"slot": "3",
						"type": "t_mapping(t_address,t_mapping(t_uint256,t_mapping(t_address,t_uint256)))"
					},
					{
						"astId": 295,
						"contract": "NFT-Contracts/contracts/market_pri/NewMarket.sol:NFTMarketplace",
						"label": "indexFixedSaleNFT",
						"offset": 0,
						"slot": "4",
						"type": "t_mapping(t_address,t_mapping(t_uint256,t_uint256))"
					},
					{
						"astId": 299,
						"contract": "NFT-Contracts/contracts/market_pri/NewMarket.sol:NFTMarketplace",
						"label": "fixedSaleNFT",
						"offset": 0,
						"slot": "5",
						"type": "t_array(t_struct(SaleInfo)261_storage)dyn_storage"
					}
				],
				"types": {
					"t_address": {
						"encoding": "inplace",
						"label": "address",
						"numberOfBytes": "20"
					},
					"t_array(t_struct(SaleInfo)261_storage)dyn_storage": {
						"base": "t_struct(SaleInfo)261_storage",
						"encoding": "dynamic_array",
						"label": "struct NFTMarketplace.SaleInfo[]",
						"numberOfBytes": "32"
					},
					"t_mapping(t_address,t_mapping(t_uint256,t_mapping(t_address,t_uint256)))": {
						"encoding": "mapping",
						"key": "t_address",
						"label": "mapping(address => mapping(uint256 => mapping(address => uint256)))",
						"numberOfBytes": "32",
						"value": "t_mapping(t_uint256,t_mapping(t_address,t_uint256))"
					},
					"t_mapping(t_address,t_mapping(t_uint256,t_struct(Auction)247_storage))": {
						"encoding": "mapping",
						"key": "t_address",
						"label": "mapping(address => mapping(uint256 => struct NFTMarketplace.Auction))",
						"numberOfBytes": "32",
						"value": "t_mapping(t_uint256,t_struct(Auction)247_storage)"
					},
					"t_mapping(t_address,t_mapping(t_uint256,t_struct(FixedSale)256_storage))": {
						"encoding": "mapping",
						"key": "t_address",
						"label": "mapping(address => mapping(uint256 => struct NFTMarketplace.FixedSale))",
						"numberOfBytes": "32",
						"value": "t_mapping(t_uint256,t_struct(FixedSale)256_storage)"
					},
					"t_mapping(t_address,t_mapping(t_uint256,t_uint256))": {
						"encoding": "mapping",
						"key": "t_address",
						"label": "mapping(address => mapping(uint256 => uint256))",
						"numberOfBytes": "32",
						"value": "t_mapping(t_uint256,t_uint256)"
					},
					"t_mapping(t_address,t_uint256)": {
						"encoding": "mapping",
						"key": "t_address",
						"label": "mapping(address => uint256)",
						"numberOfBytes": "32",
						"value": "t_uint256"
					},
					"t_mapping(t_uint256,t_mapping(t_address,t_uint256))": {
						"encoding": "mapping",
						"key": "t_uint256",
						"label": "mapping(uint256 => mapping(address => uint256))",
						"numberOfBytes": "32",
						"value": "t_mapping(t_address,t_uint256)"
					},
					"t_mapping(t_uint256,t_struct(Auction)247_storage)": {
						"encoding": "mapping",
						"key": "t_uint256",
						"label": "mapping(uint256 => struct NFTMarketplace.Auction)",
						"numberOfBytes": "32",
						"value": "t_struct(Auction)247_storage"
					},
					"t_mapping(t_uint256,t_struct(FixedSale)256_storage)": {
						"encoding": "mapping",
						"key": "t_uint256",
						"label": "mapping(uint256 => struct NFTMarketplace.FixedSale)",
						"numberOfBytes": "32",
						"value": "t_struct(FixedSale)256_storage"
					},
					"t_mapping(t_uint256,t_uint256)": {
						"encoding": "mapping",
						"key": "t_uint256",
						"label": "mapping(uint256 => uint256)",
						"numberOfBytes": "32",
						"value": "t_uint256"
					},
					"t_struct(Auction)247_storage": {
						"encoding": "inplace",
						"label": "struct NFTMarketplace.Auction",
						"members": [
							{
								"astId": 234,
								"contract": "NFT-Contracts/contracts/market_pri/NewMarket.sol:NFTMarketplace",
								"label": "auctionStart",
								"offset": 0,
								"slot": "0",
								"type": "t_uint256"
							},
							{
								"astId": 236,
								"contract": "NFT-Contracts/contracts/market_pri/NewMarket.sol:NFTMarketplace",
								"label": "auctionEnd",
								"offset": 0,
								"slot": "1",
								"type": "t_uint256"
							},
							{
								"astId": 238,
								"contract": "NFT-Contracts/contracts/market_pri/NewMarket.sol:NFTMarketplace",
								"label": "minPrice",
								"offset": 0,
								"slot": "2",
								"type": "t_uint256"
							},
							{
								"astId": 240,
								"contract": "NFT-Contracts/contracts/market_pri/NewMarket.sol:NFTMarketplace",
								"label": "nftHighestBid",
								"offset": 0,
								"slot": "3",
								"type": "t_uint256"
							},
							{
								"astId": 242,
								"contract": "NFT-Contracts/contracts/market_pri/NewMarket.sol:NFTMarketplace",
								"label": "nftHighestBidder",
								"offset": 0,
								"slot": "4",
								"type": "t_address"
							},
							{
								"astId": 244,
								"contract": "NFT-Contracts/contracts/market_pri/NewMarket.sol:NFTMarketplace",
								"label": "nftSeller",
								"offset": 0,
								"slot": "5",
								"type": "t_address"
							},
							{
								"astId": 246,
								"contract": "NFT-Contracts/contracts/market_pri/NewMarket.sol:NFTMarketplace",
								"label": "erc20",
								"offset": 0,
								"slot": "6",
								"type": "t_address"
							}
						],
						"numberOfBytes": "224"
					},
					"t_struct(FixedSale)256_storage": {
						"encoding": "inplace",
						"label": "struct NFTMarketplace.FixedSale",
						"members": [
							{
								"astId": 249,
								"contract": "NFT-Contracts/contracts/market_pri/NewMarket.sol:NFTMarketplace",
								"label": "nftSeller",
								"offset": 0,
								"slot": "0",
								"type": "t_address"
							},
							{
								"astId": 251,
								"contract": "NFT-Contracts/contracts/market_pri/NewMarket.sol:NFTMarketplace",
								"label": "nftBuyer",
								"offset": 0,
								"slot": "1",
								"type": "t_address"
							},
							{
								"astId": 253,
								"contract": "NFT-Contracts/contracts/market_pri/NewMarket.sol:NFTMarketplace",
								"label": "erc20",
								"offset": 0,
								"slot": "2",
								"type": "t_address"
							},
							{
								"astId": 255,
								"contract": "NFT-Contracts/contracts/market_pri/NewMarket.sol:NFTMarketplace",
								"label": "salePrice",
								"offset": 0,
								"slot": "3",
								"type": "t_uint256"
							}
						],
						"numberOfBytes": "128"
					},
					"t_struct(SaleInfo)261_storage": {
						"encoding": "inplace",
						"label": "struct NFTMarketplace.SaleInfo",
						"members": [
							{
								"astId": 258,
								"contract": "NFT-Contracts/contracts/market_pri/NewMarket.sol:NFTMarketplace",
								"label": "_nftContractAddress",
								"offset": 0,
								"slot": "0",
								"type": "t_address"
							},
							{
								"astId": 260,
								"contract": "NFT-Contracts/contracts/market_pri/NewMarket.sol:NFTMarketplace",
								"label": "_tokenID",
								"offset": 0,
								"slot": "1",
								"type": "t_uint256"
							}
						],
						"numberOfBytes": "64"
					},
					"t_uint256": {
						"encoding": "inplace",
						"label": "uint256",
						"numberOfBytes": "32"
					}
				}
			},
			"userdoc": {
				"kind": "user",
				"methods": {},
				"version": 1
			}
		}
	}
}