{
	"NFT-Contracts/contracts/market_pri/nft_market.sol": {
		"NFTMarketplace": {
			"abi": [
				{
					"anonymous": false,
					"inputs": [
						{
							"indexed": false,
							"internalType": "address",
							"name": "nftContractAddress",
							"type": "address"
						},
						{
							"indexed": false,
							"internalType": "address",
							"name": "nftSeller",
							"type": "address"
						},
						{
							"indexed": false,
							"internalType": "uint256",
							"name": "tokenId",
							"type": "uint256"
						}
					],
					"name": "CancelNftFixedSale",
					"type": "event"
				},
				{
					"anonymous": false,
					"inputs": [
						{
							"indexed": false,
							"internalType": "address",
							"name": "nftContractAddress",
							"type": "address"
						},
						{
							"indexed": false,
							"internalType": "address",
							"name": "nftBuyer",
							"type": "address"
						},
						{
							"indexed": false,
							"internalType": "uint256",
							"name": "tokenId",
							"type": "uint256"
						},
						{
							"indexed": false,
							"internalType": "uint256",
							"name": "nftBuyPrice",
							"type": "uint256"
						}
					],
					"name": "NftBuyFromFixedSale",
					"type": "event"
				},
				{
					"anonymous": false,
					"inputs": [
						{
							"indexed": false,
							"internalType": "address",
							"name": "nftContractAddress",
							"type": "address"
						},
						{
							"indexed": false,
							"internalType": "address",
							"name": "nftSeller",
							"type": "address"
						},
						{
							"indexed": false,
							"internalType": "address",
							"name": "erc20",
							"type": "address"
						},
						{
							"indexed": false,
							"internalType": "uint256",
							"name": "tokenId",
							"type": "uint256"
						},
						{
							"indexed": false,
							"internalType": "uint256",
							"name": "salePrice",
							"type": "uint256"
						},
						{
							"indexed": false,
							"internalType": "uint256",
							"name": "timeOfSale",
							"type": "uint256"
						}
					],
					"name": "NftFixedSale",
					"type": "event"
				},
				{
					"anonymous": false,
					"inputs": [
						{
							"indexed": false,
							"internalType": "address",
							"name": "nftContractAddress",
							"type": "address"
						},
						{
							"indexed": false,
							"internalType": "uint256",
							"name": "tokenId",
							"type": "uint256"
						},
						{
							"indexed": false,
							"internalType": "uint256",
							"name": "updateSalePrice",
							"type": "uint256"
						}
					],
					"name": "NftFixedSalePriceUpdated",
					"type": "event"
				},
				{
					"inputs": [
						{
							"internalType": "address",
							"name": "_nftContractAddress",
							"type": "address"
						},
						{
							"internalType": "uint256",
							"name": "_tokenId",
							"type": "uint256"
						},
						{
							"internalType": "uint256",
							"name": "_amount",
							"type": "uint256"
						}
					],
					"name": "buyFromFixedSale",
					"outputs": [],
					"stateMutability": "payable",
					"type": "function"
				},
				{
					"inputs": [
						{
							"internalType": "address",
							"name": "_nftContractAddress",
							"type": "address"
						},
						{
							"internalType": "uint256",
							"name": "_tokenId",
							"type": "uint256"
						}
					],
					"name": "cancelFixedsale",
					"outputs": [],
					"stateMutability": "nonpayable",
					"type": "function"
				},
				{
					"inputs": [
						{
							"internalType": "address",
							"name": "_nftContractAddress",
							"type": "address"
						},
						{
							"internalType": "uint256",
							"name": "_tokenId",
							"type": "uint256"
						}
					],
					"name": "getFixedSale",
					"outputs": [
						{
							"components": [
								{
									"internalType": "address",
									"name": "nftSeller",
									"type": "address"
								},
								{
									"internalType": "address",
									"name": "nftBuyer",
									"type": "address"
								},
								{
									"internalType": "address",
									"name": "erc20",
									"type": "address"
								},
								{
									"internalType": "uint256",
									"name": "salePrice",
									"type": "uint256"
								}
							],
							"internalType": "struct NFTMarketplace.FixedSale",
							"name": "",
							"type": "tuple"
						}
					],
					"stateMutability": "view",
					"type": "function"
				},
				{
					"inputs": [],
					"name": "getFixedSaleNFT",
					"outputs": [
						{
							"components": [
								{
									"internalType": "address",
									"name": "_nftContractAddress",
									"type": "address"
								},
								{
									"internalType": "uint256",
									"name": "_tokenID",
									"type": "uint256"
								}
							],
							"internalType": "struct NFTMarketplace.SaleInfo[]",
							"name": "",
							"type": "tuple[]"
						}
					],
					"stateMutability": "view",
					"type": "function"
				},
				{
					"inputs": [
						{
							"internalType": "address",
							"name": "_nftContractAddress",
							"type": "address"
						},
						{
							"internalType": "address",
							"name": "_erc20",
							"type": "address"
						},
						{
							"internalType": "uint256",
							"name": "_tokenId",
							"type": "uint256"
						},
						{
							"internalType": "uint256",
							"name": "_salePrice",
							"type": "uint256"
						}
					],
					"name": "nftFixedSale",
					"outputs": [],
					"stateMutability": "nonpayable",
					"type": "function"
				},
				{
					"inputs": [
						{
							"internalType": "address",
							"name": "",
							"type": "address"
						},
						{
							"internalType": "uint256",
							"name": "",
							"type": "uint256"
						}
					],
					"name": "nftSaleStatus",
					"outputs": [
						{
							"internalType": "uint256",
							"name": "",
							"type": "uint256"
						}
					],
					"stateMutability": "view",
					"type": "function"
				},
				{
					"inputs": [
						{
							"internalType": "address",
							"name": "",
							"type": "address"
						},
						{
							"internalType": "address",
							"name": "from",
							"type": "address"
						},
						{
							"internalType": "uint256",
							"name": "",
							"type": "uint256"
						},
						{
							"internalType": "bytes",
							"name": "",
							"type": "bytes"
						}
					],
					"name": "onERC721Received",
					"outputs": [
						{
							"internalType": "bytes4",
							"name": "",
							"type": "bytes4"
						}
					],
					"stateMutability": "pure",
					"type": "function"
				},
				{
					"inputs": [
						{
							"internalType": "address",
							"name": "_nftContractAddress",
							"type": "address"
						},
						{
							"internalType": "uint256",
							"name": "_tokenId",
							"type": "uint256"
						},
						{
							"internalType": "uint256",
							"name": "_updateSalePrice",
							"type": "uint256"
						}
					],
					"name": "updateFixedSalePrice",
					"outputs": [],
					"stateMutability": "nonpayable",
					"type": "function"
				},
				{
					"stateMutability": "payable",
					"type": "receive"
				}
			],
			"devdoc": {
				"kind": "dev",
				"methods": {},
				"version": 1
			},
			"evm": {
				"assembly": "    /* \"NFT-Contracts/contracts/market_pri/nft_market.sol\":175:8081  contract NFTMarketplace {\r... */\n  mstore(0x40, 0x80)\n  callvalue\n  dup1\n  iszero\n  tag_1\n  jumpi\n  0x00\n  dup1\n  revert\ntag_1:\n  pop\n  dataSize(sub_0)\n  dup1\n  dataOffset(sub_0)\n  0x00\n  codecopy\n  0x00\n  return\nstop\n\nsub_0: assembly {\n        /* \"NFT-Contracts/contracts/market_pri/nft_market.sol\":175:8081  contract NFTMarketplace {\r... */\n      mstore(0x40, 0x80)\n      jumpi(tag_1, lt(calldatasize, 0x04))\n      shr(0xe0, calldataload(0x00))\n      dup1\n      0x8c3417da\n      gt\n      tag_11\n      jumpi\n      dup1\n      0x8c3417da\n      eq\n      tag_7\n      jumpi\n      dup1\n      0x9f085a00\n      eq\n      tag_8\n      jumpi\n      dup1\n      0xbaf4371e\n      eq\n      tag_9\n      jumpi\n      dup1\n      0xd3a6a6c9\n      eq\n      tag_10\n      jumpi\n      jump(tag_2)\n    tag_11:\n      dup1\n      0x150b7a02\n      eq\n      tag_3\n      jumpi\n      dup1\n      0x4676adca\n      eq\n      tag_4\n      jumpi\n      dup1\n      0x6916462f\n      eq\n      tag_5\n      jumpi\n      dup1\n      0x69a6d12e\n      eq\n      tag_6\n      jumpi\n      jump(tag_2)\n    tag_1:\n      jumpi(tag_2, calldatasize)\n      stop\n    tag_2:\n      0x00\n      dup1\n      revert\n        /* \"NFT-Contracts/contracts/market_pri/nft_market.sol\":6977:7192  function onERC721Received(\r... */\n    tag_3:\n      callvalue\n      dup1\n      iszero\n      tag_14\n      jumpi\n      0x00\n      dup1\n      revert\n    tag_14:\n      pop\n      tag_15\n      0x04\n      dup1\n      calldatasize\n      sub\n      dup2\n      add\n      swap1\n      tag_16\n      swap2\n      swap1\n      tag_17\n      jump\t// in\n    tag_16:\n      tag_18\n      jump\t// in\n    tag_15:\n      mload(0x40)\n      tag_19\n      swap2\n      swap1\n      tag_20\n      jump\t// in\n    tag_19:\n      mload(0x40)\n      dup1\n      swap2\n      sub\n      swap1\n      return\n        /* \"NFT-Contracts/contracts/market_pri/nft_market.sol\":4894:5472  function updateFixedSalePrice(\r... */\n    tag_4:\n      callvalue\n      dup1\n      iszero\n      tag_21\n      jumpi\n      0x00\n      dup1\n      revert\n    tag_21:\n      pop\n      tag_22\n      0x04\n      dup1\n      calldatasize\n      sub\n      dup2\n      add\n      swap1\n      tag_23\n      swap2\n      swap1\n      tag_24\n      jump\t// in\n    tag_23:\n      tag_25\n      jump\t// in\n    tag_22:\n      stop\n        /* \"NFT-Contracts/contracts/market_pri/nft_market.sol\":561:629  mapping(address => mapping(uint256 => uint256)) public nftSaleStatus */\n    tag_5:\n      callvalue\n      dup1\n      iszero\n      tag_26\n      jumpi\n      0x00\n      dup1\n      revert\n    tag_26:\n      pop\n      tag_27\n      0x04\n      dup1\n      calldatasize\n      sub\n      dup2\n      add\n      swap1\n      tag_28\n      swap2\n      swap1\n      tag_29\n      jump\t// in\n    tag_28:\n      tag_30\n      jump\t// in\n    tag_27:\n      mload(0x40)\n      tag_31\n      swap2\n      swap1\n      tag_32\n      jump\t// in\n    tag_31:\n      mload(0x40)\n      dup1\n      swap2\n      sub\n      swap1\n      return\n        /* \"NFT-Contracts/contracts/market_pri/nft_market.sol\":3158:4292  function nftFixedSale(\r... */\n    tag_6:\n      callvalue\n      dup1\n      iszero\n      tag_33\n      jumpi\n      0x00\n      dup1\n      revert\n    tag_33:\n      pop\n      tag_34\n      0x04\n      dup1\n      calldatasize\n      sub\n      dup2\n      add\n      swap1\n      tag_35\n      swap2\n      swap1\n      tag_36\n      jump\t// in\n    tag_35:\n      tag_37\n      jump\t// in\n    tag_34:\n      stop\n        /* \"NFT-Contracts/contracts/market_pri/nft_market.sol\":6762:6969  function getFixedSale(address _nftContractAddress, uint256 _tokenId) external view returns(\r... */\n    tag_7:\n      callvalue\n      dup1\n      iszero\n      tag_38\n      jumpi\n      0x00\n      dup1\n      revert\n    tag_38:\n      pop\n      tag_39\n      0x04\n      dup1\n      calldatasize\n      sub\n      dup2\n      add\n      swap1\n      tag_40\n      swap2\n      swap1\n      tag_29\n      jump\t// in\n    tag_40:\n      tag_41\n      jump\t// in\n    tag_39:\n      mload(0x40)\n      tag_42\n      swap2\n      swap1\n      tag_43\n      jump\t// in\n    tag_42:\n      mload(0x40)\n      dup1\n      swap2\n      sub\n      swap1\n      return\n        /* \"NFT-Contracts/contracts/market_pri/nft_market.sol\":6627:6754  function getFixedSaleNFT() external view returns(\r... */\n    tag_8:\n      callvalue\n      dup1\n      iszero\n      tag_44\n      jumpi\n      0x00\n      dup1\n      revert\n    tag_44:\n      pop\n      tag_45\n      tag_46\n      jump\t// in\n    tag_45:\n      mload(0x40)\n      tag_47\n      swap2\n      swap1\n      tag_48\n      jump\t// in\n    tag_47:\n      mload(0x40)\n      dup1\n      swap2\n      sub\n      swap1\n      return\n        /* \"NFT-Contracts/contracts/market_pri/nft_market.sol\":5480:6619  function buyFromFixedSale(\r... */\n    tag_9:\n      tag_49\n      0x04\n      dup1\n      calldatasize\n      sub\n      dup2\n      add\n      swap1\n      tag_50\n      swap2\n      swap1\n      tag_24\n      jump\t// in\n    tag_50:\n      tag_51\n      jump\t// in\n    tag_49:\n      stop\n        /* \"NFT-Contracts/contracts/market_pri/nft_market.sol\":4300:4886  function cancelFixedsale(address _nftContractAddress, uint256 _tokenId)\r... */\n    tag_10:\n      callvalue\n      dup1\n      iszero\n      tag_52\n      jumpi\n      0x00\n      dup1\n      revert\n    tag_52:\n      pop\n      tag_53\n      0x04\n      dup1\n      calldatasize\n      sub\n      dup2\n      add\n      swap1\n      tag_54\n      swap2\n      swap1\n      tag_29\n      jump\t// in\n    tag_54:\n      tag_55\n      jump\t// in\n    tag_53:\n      stop\n        /* \"NFT-Contracts/contracts/market_pri/nft_market.sol\":6977:7192  function onERC721Received(\r... */\n    tag_18:\n        /* \"NFT-Contracts/contracts/market_pri/nft_market.sol\":7117:7123  bytes4 */\n      0x00\n        /* \"NFT-Contracts/contracts/market_pri/nft_market.sol\":7143:7184  IERC721Receiver.onERC721Received.selector */\n      shl(0xe0, 0x150b7a02)\n        /* \"NFT-Contracts/contracts/market_pri/nft_market.sol\":7136:7184  return IERC721Receiver.onERC721Received.selector */\n      swap1\n      pop\n        /* \"NFT-Contracts/contracts/market_pri/nft_market.sol\":6977:7192  function onERC721Received(\r... */\n      swap6\n      swap5\n      pop\n      pop\n      pop\n      pop\n      pop\n      jump\t// out\n        /* \"NFT-Contracts/contracts/market_pri/nft_market.sol\":4894:5472  function updateFixedSalePrice(\r... */\n    tag_25:\n        /* \"NFT-Contracts/contracts/market_pri/nft_market.sol\":5075:5094  _nftContractAddress */\n      dup3\n        /* \"NFT-Contracts/contracts/market_pri/nft_market.sol\":5096:5104  _tokenId */\n      dup3\n        /* \"NFT-Contracts/contracts/market_pri/nft_market.sol\":1765:1766  1 */\n      0x01\n        /* \"NFT-Contracts/contracts/market_pri/nft_market.sol\":1717:1730  nftSaleStatus */\n      dup1\n        /* \"NFT-Contracts/contracts/market_pri/nft_market.sol\":1717:1751  nftSaleStatus[_nftContractAddress] */\n      0x00\n        /* \"NFT-Contracts/contracts/market_pri/nft_market.sol\":1731:1750  _nftContractAddress */\n      dup5\n        /* \"NFT-Contracts/contracts/market_pri/nft_market.sol\":1717:1751  nftSaleStatus[_nftContractAddress] */\n      0xffffffffffffffffffffffffffffffffffffffff\n      and\n      0xffffffffffffffffffffffffffffffffffffffff\n      and\n      dup2\n      mstore\n      0x20\n      add\n      swap1\n      dup2\n      mstore\n      0x20\n      add\n      0x00\n      keccak256\n        /* \"NFT-Contracts/contracts/market_pri/nft_market.sol\":1717:1761  nftSaleStatus[_nftContractAddress][_tokenId] */\n      0x00\n        /* \"NFT-Contracts/contracts/market_pri/nft_market.sol\":1752:1760  _tokenId */\n      dup4\n        /* \"NFT-Contracts/contracts/market_pri/nft_market.sol\":1717:1761  nftSaleStatus[_nftContractAddress][_tokenId] */\n      dup2\n      mstore\n      0x20\n      add\n      swap1\n      dup2\n      mstore\n      0x20\n      add\n      0x00\n      keccak256\n      sload\n        /* \"NFT-Contracts/contracts/market_pri/nft_market.sol\":1717:1766  nftSaleStatus[_nftContractAddress][_tokenId] == 1 */\n      eq\n        /* \"NFT-Contracts/contracts/market_pri/nft_market.sol\":1695:1815  require(\r... */\n      tag_58\n      jumpi\n      mload(0x40)\n      0x08c379a000000000000000000000000000000000000000000000000000000000\n      dup2\n      mstore\n      0x04\n      add\n      tag_59\n      swap1\n      tag_60\n      jump\t// in\n    tag_59:\n      mload(0x40)\n      dup1\n      swap2\n      sub\n      swap1\n      revert\n    tag_58:\n        /* \"NFT-Contracts/contracts/market_pri/nft_market.sol\":5134:5153  _nftContractAddress */\n      dup5\n        /* \"NFT-Contracts/contracts/market_pri/nft_market.sol\":5155:5163  _tokenId */\n      dup5\n        /* \"NFT-Contracts/contracts/market_pri/nft_market.sol\":2227:2247  nftContractFixedSale */\n      0x00\n        /* \"NFT-Contracts/contracts/market_pri/nft_market.sol\":2227:2268  nftContractFixedSale[_nftContractAddress] */\n      dup1\n        /* \"NFT-Contracts/contracts/market_pri/nft_market.sol\":2248:2267  _nftContractAddress */\n      dup4\n        /* \"NFT-Contracts/contracts/market_pri/nft_market.sol\":2227:2268  nftContractFixedSale[_nftContractAddress] */\n      0xffffffffffffffffffffffffffffffffffffffff\n      and\n      0xffffffffffffffffffffffffffffffffffffffff\n      and\n      dup2\n      mstore\n      0x20\n      add\n      swap1\n      dup2\n      mstore\n      0x20\n      add\n      0x00\n      keccak256\n        /* \"NFT-Contracts/contracts/market_pri/nft_market.sol\":2227:2278  nftContractFixedSale[_nftContractAddress][_tokenId] */\n      0x00\n        /* \"NFT-Contracts/contracts/market_pri/nft_market.sol\":2269:2277  _tokenId */\n      dup3\n        /* \"NFT-Contracts/contracts/market_pri/nft_market.sol\":2227:2278  nftContractFixedSale[_nftContractAddress][_tokenId] */\n      dup2\n      mstore\n      0x20\n      add\n      swap1\n      dup2\n      mstore\n      0x20\n      add\n      0x00\n      keccak256\n        /* \"NFT-Contracts/contracts/market_pri/nft_market.sol\":2227:2288  nftContractFixedSale[_nftContractAddress][_tokenId].nftSeller */\n      0x00\n      add\n      0x00\n      swap1\n      sload\n      swap1\n      0x0100\n      exp\n      swap1\n      div\n      0xffffffffffffffffffffffffffffffffffffffff\n      and\n        /* \"NFT-Contracts/contracts/market_pri/nft_market.sol\":2196:2288  msg.sender ==\r... */\n      0xffffffffffffffffffffffffffffffffffffffff\n      and\n        /* \"NFT-Contracts/contracts/market_pri/nft_market.sol\":2196:2206  msg.sender */\n      caller\n        /* \"NFT-Contracts/contracts/market_pri/nft_market.sol\":2196:2288  msg.sender ==\r... */\n      0xffffffffffffffffffffffffffffffffffffffff\n      and\n      eq\n        /* \"NFT-Contracts/contracts/market_pri/nft_market.sol\":2174:2337  require(\r... */\n      tag_62\n      jumpi\n      mload(0x40)\n      0x08c379a000000000000000000000000000000000000000000000000000000000\n      dup2\n      mstore\n      0x04\n      add\n      tag_63\n      swap1\n      tag_64\n      jump\t// in\n    tag_63:\n      mload(0x40)\n      dup1\n      swap2\n      sub\n      swap1\n      revert\n    tag_62:\n        /* \"NFT-Contracts/contracts/market_pri/nft_market.sol\":5195:5211  _updateSalePrice */\n      dup5\n        /* \"NFT-Contracts/contracts/market_pri/nft_market.sol\":3082:3083  0 */\n      0x00\n        /* \"NFT-Contracts/contracts/market_pri/nft_market.sol\":3073:3079  _price */\n      dup2\n        /* \"NFT-Contracts/contracts/market_pri/nft_market.sol\":3073:3083  _price > 0 */\n      gt\n        /* \"NFT-Contracts/contracts/market_pri/nft_market.sol\":3065:3105  require(_price > 0, \"Price cannot be 0\") */\n      tag_66\n      jumpi\n      mload(0x40)\n      0x08c379a000000000000000000000000000000000000000000000000000000000\n      dup2\n      mstore\n      0x04\n      add\n      tag_67\n      swap1\n      tag_68\n      jump\t// in\n    tag_67:\n      mload(0x40)\n      dup1\n      swap2\n      sub\n      swap1\n      revert\n    tag_66:\n        /* \"NFT-Contracts/contracts/market_pri/nft_market.sol\":5307:5323  _updateSalePrice */\n      dup6\n        /* \"NFT-Contracts/contracts/market_pri/nft_market.sol\":5229:5249  nftContractFixedSale */\n      0x00\n        /* \"NFT-Contracts/contracts/market_pri/nft_market.sol\":5229:5270  nftContractFixedSale[_nftContractAddress] */\n      dup1\n        /* \"NFT-Contracts/contracts/market_pri/nft_market.sol\":5250:5269  _nftContractAddress */\n      dup11\n        /* \"NFT-Contracts/contracts/market_pri/nft_market.sol\":5229:5270  nftContractFixedSale[_nftContractAddress] */\n      0xffffffffffffffffffffffffffffffffffffffff\n      and\n      0xffffffffffffffffffffffffffffffffffffffff\n      and\n      dup2\n      mstore\n      0x20\n      add\n      swap1\n      dup2\n      mstore\n      0x20\n      add\n      0x00\n      keccak256\n        /* \"NFT-Contracts/contracts/market_pri/nft_market.sol\":5229:5280  nftContractFixedSale[_nftContractAddress][_tokenId] */\n      0x00\n        /* \"NFT-Contracts/contracts/market_pri/nft_market.sol\":5271:5279  _tokenId */\n      dup10\n        /* \"NFT-Contracts/contracts/market_pri/nft_market.sol\":5229:5280  nftContractFixedSale[_nftContractAddress][_tokenId] */\n      dup2\n      mstore\n      0x20\n      add\n      swap1\n      dup2\n      mstore\n      0x20\n      add\n      0x00\n      keccak256\n        /* \"NFT-Contracts/contracts/market_pri/nft_market.sol\":5229:5304  nftContractFixedSale[_nftContractAddress][_tokenId]\r... */\n      0x03\n      add\n        /* \"NFT-Contracts/contracts/market_pri/nft_market.sol\":5229:5323  nftContractFixedSale[_nftContractAddress][_tokenId]\r... */\n      dup2\n      swap1\n      sstore\n      pop\n        /* \"NFT-Contracts/contracts/market_pri/nft_market.sol\":5341:5464  NftFixedSalePriceUpdated(\r... */\n      0x575a0876095ccf47276a37dce683308a625403d132d219f95205ce205b2e12bc\n        /* \"NFT-Contracts/contracts/market_pri/nft_market.sol\":5380:5399  _nftContractAddress */\n      dup9\n        /* \"NFT-Contracts/contracts/market_pri/nft_market.sol\":5414:5422  _tokenId */\n      dup9\n        /* \"NFT-Contracts/contracts/market_pri/nft_market.sol\":5437:5453  _updateSalePrice */\n      dup9\n        /* \"NFT-Contracts/contracts/market_pri/nft_market.sol\":5341:5464  NftFixedSalePriceUpdated(\r... */\n      mload(0x40)\n      tag_70\n      swap4\n      swap3\n      swap2\n      swap1\n      tag_71\n      jump\t// in\n    tag_70:\n      mload(0x40)\n      dup1\n      swap2\n      sub\n      swap1\n      log1\n        /* \"NFT-Contracts/contracts/market_pri/nft_market.sol\":2348:2349  _ */\n      pop\n        /* \"NFT-Contracts/contracts/market_pri/nft_market.sol\":1826:1827  _ */\n      pop\n      pop\n        /* \"NFT-Contracts/contracts/market_pri/nft_market.sol\":4894:5472  function updateFixedSalePrice(\r... */\n      pop\n      pop\n      pop\n      pop\n      pop\n      jump\t// out\n        /* \"NFT-Contracts/contracts/market_pri/nft_market.sol\":561:629  mapping(address => mapping(uint256 => uint256)) public nftSaleStatus */\n    tag_30:\n      mstore(0x20, 0x01)\n      dup2\n      0x00\n      mstore\n      mstore(0x20, keccak256(0x00, 0x40))\n      dup1\n      0x00\n      mstore\n      keccak256(0x00, 0x40)\n      0x00\n      swap2\n      pop\n      swap2\n      pop\n      pop\n      sload\n      dup2\n      jump\t// out\n        /* \"NFT-Contracts/contracts/market_pri/nft_market.sol\":3158:4292  function nftFixedSale(\r... */\n    tag_37:\n        /* \"NFT-Contracts/contracts/market_pri/nft_market.sol\":3352:3371  _nftContractAddress */\n      dup4\n        /* \"NFT-Contracts/contracts/market_pri/nft_market.sol\":3373:3381  _tokenId */\n      dup3\n        /* \"NFT-Contracts/contracts/market_pri/nft_market.sol\":1973:1992  _nftContractAddress */\n      dup2\n        /* \"NFT-Contracts/contracts/market_pri/nft_market.sol\":1965:2001  IERC721(_nftContractAddress).ownerOf */\n      0xffffffffffffffffffffffffffffffffffffffff\n      and\n      0x6352211e\n        /* \"NFT-Contracts/contracts/market_pri/nft_market.sol\":2002:2010  _tokenId */\n      dup3\n        /* \"NFT-Contracts/contracts/market_pri/nft_market.sol\":1965:2011  IERC721(_nftContractAddress).ownerOf(_tokenId) */\n      mload(0x40)\n      dup3\n      0xffffffff\n      and\n      0xe0\n      shl\n      dup2\n      mstore\n      0x04\n      add\n      tag_73\n      swap2\n      swap1\n      tag_32\n      jump\t// in\n    tag_73:\n      0x20\n      mload(0x40)\n      dup1\n      dup4\n      sub\n      dup2\n      dup7\n      dup1\n      extcodesize\n      iszero\n      dup1\n      iszero\n      tag_74\n      jumpi\n      0x00\n      dup1\n      revert\n    tag_74:\n      pop\n      gas\n      staticcall\n      iszero\n      dup1\n      iszero\n      tag_76\n      jumpi\n      returndatasize\n      0x00\n      dup1\n      returndatacopy\n      revert(0x00, returndatasize)\n    tag_76:\n      pop\n      pop\n      pop\n      pop\n      mload(0x40)\n      returndatasize\n      not(0x1f)\n      0x1f\n      dup3\n      add\n      and\n      dup3\n      add\n      dup1\n      0x40\n      mstore\n      pop\n      dup2\n      add\n      swap1\n      tag_77\n      swap2\n      swap1\n      tag_78\n      jump\t// in\n    tag_77:\n        /* \"NFT-Contracts/contracts/market_pri/nft_market.sol\":1951:2011  msg.sender == IERC721(_nftContractAddress).ownerOf(_tokenId) */\n      0xffffffffffffffffffffffffffffffffffffffff\n      and\n        /* \"NFT-Contracts/contracts/market_pri/nft_market.sol\":1951:1961  msg.sender */\n      caller\n        /* \"NFT-Contracts/contracts/market_pri/nft_market.sol\":1951:2011  msg.sender == IERC721(_nftContractAddress).ownerOf(_tokenId) */\n      0xffffffffffffffffffffffffffffffffffffffff\n      and\n      eq\n        /* \"NFT-Contracts/contracts/market_pri/nft_market.sol\":1929:2060  require(\r... */\n      tag_79\n      jumpi\n      mload(0x40)\n      0x08c379a000000000000000000000000000000000000000000000000000000000\n      dup2\n      mstore\n      0x04\n      add\n      tag_80\n      swap1\n      tag_64\n      jump\t// in\n    tag_80:\n      mload(0x40)\n      dup1\n      swap2\n      sub\n      swap1\n      revert\n    tag_79:\n        /* \"NFT-Contracts/contracts/market_pri/nft_market.sol\":3411:3430  _nftContractAddress */\n      dup6\n        /* \"NFT-Contracts/contracts/market_pri/nft_market.sol\":3432:3440  _tokenId */\n      dup5\n        /* \"NFT-Contracts/contracts/market_pri/nft_market.sol\":1535:1536  0 */\n      0x00\n        /* \"NFT-Contracts/contracts/market_pri/nft_market.sol\":1487:1500  nftSaleStatus */\n      0x01\n        /* \"NFT-Contracts/contracts/market_pri/nft_market.sol\":1487:1521  nftSaleStatus[_nftContractAddress] */\n      0x00\n        /* \"NFT-Contracts/contracts/market_pri/nft_market.sol\":1501:1520  _nftContractAddress */\n      dup5\n        /* \"NFT-Contracts/contracts/market_pri/nft_market.sol\":1487:1521  nftSaleStatus[_nftContractAddress] */\n      0xffffffffffffffffffffffffffffffffffffffff\n      and\n      0xffffffffffffffffffffffffffffffffffffffff\n      and\n      dup2\n      mstore\n      0x20\n      add\n      swap1\n      dup2\n      mstore\n      0x20\n      add\n      0x00\n      keccak256\n        /* \"NFT-Contracts/contracts/market_pri/nft_market.sol\":1487:1531  nftSaleStatus[_nftContractAddress][_tokenId] */\n      0x00\n        /* \"NFT-Contracts/contracts/market_pri/nft_market.sol\":1522:1530  _tokenId */\n      dup4\n        /* \"NFT-Contracts/contracts/market_pri/nft_market.sol\":1487:1531  nftSaleStatus[_nftContractAddress][_tokenId] */\n      dup2\n      mstore\n      0x20\n      add\n      swap1\n      dup2\n      mstore\n      0x20\n      add\n      0x00\n      keccak256\n      sload\n        /* \"NFT-Contracts/contracts/market_pri/nft_market.sol\":1487:1536  nftSaleStatus[_nftContractAddress][_tokenId] == 0 */\n      eq\n        /* \"NFT-Contracts/contracts/market_pri/nft_market.sol\":1465:1583  require(\r... */\n      tag_82\n      jumpi\n      mload(0x40)\n      0x08c379a000000000000000000000000000000000000000000000000000000000\n      dup2\n      mstore\n      0x04\n      add\n      tag_83\n      swap1\n      tag_84\n      jump\t// in\n    tag_83:\n      mload(0x40)\n      dup1\n      swap2\n      sub\n      swap1\n      revert\n    tag_82:\n        /* \"NFT-Contracts/contracts/market_pri/nft_market.sol\":3469:3488  _nftContractAddress */\n      dup8\n        /* \"NFT-Contracts/contracts/market_pri/nft_market.sol\":3490:3498  _tokenId */\n      dup7\n        /* \"NFT-Contracts/contracts/market_pri/nft_market.sol\":2480:2499  _nftContractAddress */\n      dup2\n        /* \"NFT-Contracts/contracts/market_pri/nft_market.sol\":2472:2517  IERC721(_nftContractAddress).isApprovedForAll */\n      0xffffffffffffffffffffffffffffffffffffffff\n      and\n      0xe985e9c5\n        /* \"NFT-Contracts/contracts/market_pri/nft_market.sol\":2536:2546  msg.sender */\n      caller\n        /* \"NFT-Contracts/contracts/market_pri/nft_market.sol\":2573:2577  this */\n      address\n        /* \"NFT-Contracts/contracts/market_pri/nft_market.sol\":2472:2593  IERC721(_nftContractAddress).isApprovedForAll(\r... */\n      mload(0x40)\n      dup4\n      0xffffffff\n      and\n      0xe0\n      shl\n      dup2\n      mstore\n      0x04\n      add\n      tag_86\n      swap3\n      swap2\n      swap1\n      tag_87\n      jump\t// in\n    tag_86:\n      0x20\n      mload(0x40)\n      dup1\n      dup4\n      sub\n      dup2\n      dup7\n      dup1\n      extcodesize\n      iszero\n      dup1\n      iszero\n      tag_88\n      jumpi\n      0x00\n      dup1\n      revert\n    tag_88:\n      pop\n      gas\n      staticcall\n      iszero\n      dup1\n      iszero\n      tag_90\n      jumpi\n      returndatasize\n      0x00\n      dup1\n      returndatacopy\n      revert(0x00, returndatasize)\n    tag_90:\n      pop\n      pop\n      pop\n      pop\n      mload(0x40)\n      returndatasize\n      not(0x1f)\n      0x1f\n      dup3\n      add\n      and\n      dup3\n      add\n      dup1\n      0x40\n      mstore\n      pop\n      dup2\n      add\n      swap1\n      tag_91\n      swap2\n      swap1\n      tag_92\n      jump\t// in\n    tag_91:\n        /* \"NFT-Contracts/contracts/market_pri/nft_market.sol\":2450:2649  require(\r... */\n      tag_93\n      jumpi\n      mload(0x40)\n      0x08c379a000000000000000000000000000000000000000000000000000000000\n      dup2\n      mstore\n      0x04\n      add\n      tag_94\n      swap1\n      tag_95\n      jump\t// in\n    tag_94:\n      mload(0x40)\n      dup1\n      swap2\n      sub\n      swap1\n      revert\n    tag_93:\n        /* \"NFT-Contracts/contracts/market_pri/nft_market.sol\":3530:3540  _salePrice */\n      dup7\n        /* \"NFT-Contracts/contracts/market_pri/nft_market.sol\":3082:3083  0 */\n      0x00\n        /* \"NFT-Contracts/contracts/market_pri/nft_market.sol\":3073:3079  _price */\n      dup2\n        /* \"NFT-Contracts/contracts/market_pri/nft_market.sol\":3073:3083  _price > 0 */\n      gt\n        /* \"NFT-Contracts/contracts/market_pri/nft_market.sol\":3065:3105  require(_price > 0, \"Price cannot be 0\") */\n      tag_97\n      jumpi\n      mload(0x40)\n      0x08c379a000000000000000000000000000000000000000000000000000000000\n      dup2\n      mstore\n      0x04\n      add\n      tag_98\n      swap1\n      tag_68\n      jump\t// in\n    tag_98:\n      mload(0x40)\n      dup1\n      swap2\n      sub\n      swap1\n      revert\n    tag_97:\n        /* \"NFT-Contracts/contracts/market_pri/nft_market.sol\":3612:3728  FixedSale(\r... */\n      mload(0x40)\n      dup1\n      0x80\n      add\n      0x40\n      mstore\n      dup1\n        /* \"NFT-Contracts/contracts/market_pri/nft_market.sol\":3636:3646  msg.sender */\n      caller\n        /* \"NFT-Contracts/contracts/market_pri/nft_market.sol\":3612:3728  FixedSale(\r... */\n      0xffffffffffffffffffffffffffffffffffffffff\n      and\n      dup2\n      mstore\n      0x20\n      add\n        /* \"NFT-Contracts/contracts/market_pri/nft_market.sol\":3669:3670  0 */\n      0x00\n        /* \"NFT-Contracts/contracts/market_pri/nft_market.sol\":3612:3728  FixedSale(\r... */\n      0xffffffffffffffffffffffffffffffffffffffff\n      and\n      dup2\n      mstore\n      0x20\n      add\n        /* \"NFT-Contracts/contracts/market_pri/nft_market.sol\":3686:3692  _erc20 */\n      dup12\n        /* \"NFT-Contracts/contracts/market_pri/nft_market.sol\":3612:3728  FixedSale(\r... */\n      0xffffffffffffffffffffffffffffffffffffffff\n      and\n      dup2\n      mstore\n      0x20\n      add\n        /* \"NFT-Contracts/contracts/market_pri/nft_market.sol\":3707:3717  _salePrice */\n      dup10\n        /* \"NFT-Contracts/contracts/market_pri/nft_market.sol\":3612:3728  FixedSale(\r... */\n      dup2\n      mstore\n      pop\n        /* \"NFT-Contracts/contracts/market_pri/nft_market.sol\":3558:3578  nftContractFixedSale */\n      0x00\n        /* \"NFT-Contracts/contracts/market_pri/nft_market.sol\":3558:3599  nftContractFixedSale[_nftContractAddress] */\n      dup1\n        /* \"NFT-Contracts/contracts/market_pri/nft_market.sol\":3579:3598  _nftContractAddress */\n      dup14\n        /* \"NFT-Contracts/contracts/market_pri/nft_market.sol\":3558:3599  nftContractFixedSale[_nftContractAddress] */\n      0xffffffffffffffffffffffffffffffffffffffff\n      and\n      0xffffffffffffffffffffffffffffffffffffffff\n      and\n      dup2\n      mstore\n      0x20\n      add\n      swap1\n      dup2\n      mstore\n      0x20\n      add\n      0x00\n      keccak256\n        /* \"NFT-Contracts/contracts/market_pri/nft_market.sol\":3558:3609  nftContractFixedSale[_nftContractAddress][_tokenId] */\n      0x00\n        /* \"NFT-Contracts/contracts/market_pri/nft_market.sol\":3600:3608  _tokenId */\n      dup12\n        /* \"NFT-Contracts/contracts/market_pri/nft_market.sol\":3558:3609  nftContractFixedSale[_nftContractAddress][_tokenId] */\n      dup2\n      mstore\n      0x20\n      add\n      swap1\n      dup2\n      mstore\n      0x20\n      add\n      0x00\n      keccak256\n        /* \"NFT-Contracts/contracts/market_pri/nft_market.sol\":3558:3728  nftContractFixedSale[_nftContractAddress][_tokenId] = FixedSale(\r... */\n      0x00\n      dup3\n      add\n      mload\n      dup2\n      0x00\n      add\n      exp(0x0100, 0x00)\n      dup2\n      sload\n      dup2\n      0xffffffffffffffffffffffffffffffffffffffff\n      mul\n      not\n      and\n      swap1\n      dup4\n      0xffffffffffffffffffffffffffffffffffffffff\n      and\n      mul\n      or\n      swap1\n      sstore\n      pop\n      0x20\n      dup3\n      add\n      mload\n      dup2\n      0x01\n      add\n      exp(0x0100, 0x00)\n      dup2\n      sload\n      dup2\n      0xffffffffffffffffffffffffffffffffffffffff\n      mul\n      not\n      and\n      swap1\n      dup4\n      0xffffffffffffffffffffffffffffffffffffffff\n      and\n      mul\n      or\n      swap1\n      sstore\n      pop\n      0x40\n      dup3\n      add\n      mload\n      dup2\n      0x02\n      add\n      exp(0x0100, 0x00)\n      dup2\n      sload\n      dup2\n      0xffffffffffffffffffffffffffffffffffffffff\n      mul\n      not\n      and\n      swap1\n      dup4\n      0xffffffffffffffffffffffffffffffffffffffff\n      and\n      mul\n      or\n      swap1\n      sstore\n      pop\n      0x60\n      dup3\n      add\n      mload\n      dup2\n      0x03\n      add\n      sstore\n      swap1\n      pop\n      pop\n        /* \"NFT-Contracts/contracts/market_pri/nft_market.sol\":3788:3789  1 */\n      0x01\n        /* \"NFT-Contracts/contracts/market_pri/nft_market.sol\":3741:3754  nftSaleStatus */\n      dup1\n        /* \"NFT-Contracts/contracts/market_pri/nft_market.sol\":3741:3775  nftSaleStatus[_nftContractAddress] */\n      0x00\n        /* \"NFT-Contracts/contracts/market_pri/nft_market.sol\":3755:3774  _nftContractAddress */\n      dup14\n        /* \"NFT-Contracts/contracts/market_pri/nft_market.sol\":3741:3775  nftSaleStatus[_nftContractAddress] */\n      0xffffffffffffffffffffffffffffffffffffffff\n      and\n      0xffffffffffffffffffffffffffffffffffffffff\n      and\n      dup2\n      mstore\n      0x20\n      add\n      swap1\n      dup2\n      mstore\n      0x20\n      add\n      0x00\n      keccak256\n        /* \"NFT-Contracts/contracts/market_pri/nft_market.sol\":3741:3785  nftSaleStatus[_nftContractAddress][_tokenId] */\n      0x00\n        /* \"NFT-Contracts/contracts/market_pri/nft_market.sol\":3776:3784  _tokenId */\n      dup12\n        /* \"NFT-Contracts/contracts/market_pri/nft_market.sol\":3741:3785  nftSaleStatus[_nftContractAddress][_tokenId] */\n      dup2\n      mstore\n      0x20\n      add\n      swap1\n      dup2\n      mstore\n      0x20\n      add\n      0x00\n      keccak256\n        /* \"NFT-Contracts/contracts/market_pri/nft_market.sol\":3741:3789  nftSaleStatus[_nftContractAddress][_tokenId] = 1 */\n      dup2\n      swap1\n      sstore\n      pop\n        /* \"NFT-Contracts/contracts/market_pri/nft_market.sol\":3853:3865  fixedSaleNFT */\n      0x03\n        /* \"NFT-Contracts/contracts/market_pri/nft_market.sol\":3853:3872  fixedSaleNFT.length */\n      dup1\n      sload\n      swap1\n      pop\n        /* \"NFT-Contracts/contracts/market_pri/nft_market.sol\":3802:3819  indexFixedSaleNFT */\n      0x02\n        /* \"NFT-Contracts/contracts/market_pri/nft_market.sol\":3802:3840  indexFixedSaleNFT[_nftContractAddress] */\n      0x00\n        /* \"NFT-Contracts/contracts/market_pri/nft_market.sol\":3820:3839  _nftContractAddress */\n      dup14\n        /* \"NFT-Contracts/contracts/market_pri/nft_market.sol\":3802:3840  indexFixedSaleNFT[_nftContractAddress] */\n      0xffffffffffffffffffffffffffffffffffffffff\n      and\n      0xffffffffffffffffffffffffffffffffffffffff\n      and\n      dup2\n      mstore\n      0x20\n      add\n      swap1\n      dup2\n      mstore\n      0x20\n      add\n      0x00\n      keccak256\n        /* \"NFT-Contracts/contracts/market_pri/nft_market.sol\":3802:3850  indexFixedSaleNFT[_nftContractAddress][_tokenId] */\n      0x00\n        /* \"NFT-Contracts/contracts/market_pri/nft_market.sol\":3841:3849  _tokenId */\n      dup12\n        /* \"NFT-Contracts/contracts/market_pri/nft_market.sol\":3802:3850  indexFixedSaleNFT[_nftContractAddress][_tokenId] */\n      dup2\n      mstore\n      0x20\n      add\n      swap1\n      dup2\n      mstore\n      0x20\n      add\n      0x00\n      keccak256\n        /* \"NFT-Contracts/contracts/market_pri/nft_market.sol\":3802:3872  indexFixedSaleNFT[_nftContractAddress][_tokenId] = fixedSaleNFT.length */\n      dup2\n      swap1\n      sstore\n      pop\n        /* \"NFT-Contracts/contracts/market_pri/nft_market.sol\":3883:3895  fixedSaleNFT */\n      0x03\n        /* \"NFT-Contracts/contracts/market_pri/nft_market.sol\":3901:3939  SaleInfo(_nftContractAddress,_tokenId) */\n      mload(0x40)\n      dup1\n      0x40\n      add\n      0x40\n      mstore\n      dup1\n        /* \"NFT-Contracts/contracts/market_pri/nft_market.sol\":3910:3929  _nftContractAddress */\n      dup14\n        /* \"NFT-Contracts/contracts/market_pri/nft_market.sol\":3901:3939  SaleInfo(_nftContractAddress,_tokenId) */\n      0xffffffffffffffffffffffffffffffffffffffff\n      and\n      dup2\n      mstore\n      0x20\n      add\n        /* \"NFT-Contracts/contracts/market_pri/nft_market.sol\":3930:3938  _tokenId */\n      dup12\n        /* \"NFT-Contracts/contracts/market_pri/nft_market.sol\":3901:3939  SaleInfo(_nftContractAddress,_tokenId) */\n      dup2\n      mstore\n      pop\n        /* \"NFT-Contracts/contracts/market_pri/nft_market.sol\":3883:3940  fixedSaleNFT.push(SaleInfo(_nftContractAddress,_tokenId)) */\n      swap1\n      dup1\n      0x01\n      dup2\n      sload\n      add\n      dup1\n      dup3\n      sstore\n      dup1\n      swap2\n      pop\n      pop\n      0x01\n      swap1\n      sub\n      swap1\n      0x00\n      mstore\n      keccak256(0x00, 0x20)\n      swap1\n      0x02\n      mul\n      add\n      0x00\n      swap1\n      swap2\n      swap1\n      swap2\n      swap1\n      swap2\n      pop\n      0x00\n      dup3\n      add\n      mload\n      dup2\n      0x00\n      add\n      exp(0x0100, 0x00)\n      dup2\n      sload\n      dup2\n      0xffffffffffffffffffffffffffffffffffffffff\n      mul\n      not\n      and\n      swap1\n      dup4\n      0xffffffffffffffffffffffffffffffffffffffff\n      and\n      mul\n      or\n      swap1\n      sstore\n      pop\n      0x20\n      dup3\n      add\n      mload\n      dup2\n      0x01\n      add\n      sstore\n      pop\n      pop\n        /* \"NFT-Contracts/contracts/market_pri/nft_market.sol\":3961:3980  _nftContractAddress */\n      dup11\n        /* \"NFT-Contracts/contracts/market_pri/nft_market.sol\":3953:3998  IERC721(_nftContractAddress).safeTransferFrom */\n      0xffffffffffffffffffffffffffffffffffffffff\n      and\n      0x42842e0e\n        /* \"NFT-Contracts/contracts/market_pri/nft_market.sol\":4013:4023  msg.sender */\n      caller\n        /* \"NFT-Contracts/contracts/market_pri/nft_market.sol\":4046:4050  this */\n      address\n        /* \"NFT-Contracts/contracts/market_pri/nft_market.sol\":4066:4074  _tokenId */\n      dup13\n        /* \"NFT-Contracts/contracts/market_pri/nft_market.sol\":3953:4085  IERC721(_nftContractAddress).safeTransferFrom(\r... */\n      mload(0x40)\n      dup5\n      0xffffffff\n      and\n      0xe0\n      shl\n      dup2\n      mstore\n      0x04\n      add\n      tag_101\n      swap4\n      swap3\n      swap2\n      swap1\n      tag_102\n      jump\t// in\n    tag_101:\n      0x00\n      mload(0x40)\n      dup1\n      dup4\n      sub\n      dup2\n      0x00\n      dup8\n      dup1\n      extcodesize\n      iszero\n      dup1\n      iszero\n      tag_103\n      jumpi\n      0x00\n      dup1\n      revert\n    tag_103:\n      pop\n      gas\n      call\n      iszero\n      dup1\n      iszero\n      tag_105\n      jumpi\n      returndatasize\n      0x00\n      dup1\n      returndatacopy\n      revert(0x00, returndatasize)\n    tag_105:\n      pop\n      pop\n      pop\n      pop\n        /* \"NFT-Contracts/contracts/market_pri/nft_market.sol\":4103:4284  NftFixedSale(\r... */\n      0x078eead3cd01ed921c7653d000a6b73aea643a7b9c066fb7d93eb2eae8acc2d9\n        /* \"NFT-Contracts/contracts/market_pri/nft_market.sol\":4130:4149  _nftContractAddress */\n      dup12\n        /* \"NFT-Contracts/contracts/market_pri/nft_market.sol\":4164:4174  msg.sender */\n      caller\n        /* \"NFT-Contracts/contracts/market_pri/nft_market.sol\":4189:4195  _erc20 */\n      dup13\n        /* \"NFT-Contracts/contracts/market_pri/nft_market.sol\":4210:4218  _tokenId */\n      dup13\n        /* \"NFT-Contracts/contracts/market_pri/nft_market.sol\":4233:4243  _salePrice */\n      dup13\n        /* \"NFT-Contracts/contracts/market_pri/nft_market.sol\":4258:4273  block.timestamp */\n      timestamp\n        /* \"NFT-Contracts/contracts/market_pri/nft_market.sol\":4103:4284  NftFixedSale(\r... */\n      mload(0x40)\n      tag_106\n      swap7\n      swap6\n      swap5\n      swap4\n      swap3\n      swap2\n      swap1\n      tag_107\n      jump\t// in\n    tag_106:\n      mload(0x40)\n      dup1\n      swap2\n      sub\n      swap1\n      log1\n        /* \"NFT-Contracts/contracts/market_pri/nft_market.sol\":2660:2661  _ */\n      pop\n        /* \"NFT-Contracts/contracts/market_pri/nft_market.sol\":1594:1595  _ */\n      pop\n      pop\n        /* \"NFT-Contracts/contracts/market_pri/nft_market.sol\":2071:2072  _ */\n      pop\n      pop\n        /* \"NFT-Contracts/contracts/market_pri/nft_market.sol\":3158:4292  function nftFixedSale(\r... */\n      pop\n      pop\n      pop\n      pop\n      pop\n      pop\n      jump\t// out\n        /* \"NFT-Contracts/contracts/market_pri/nft_market.sol\":6762:6969  function getFixedSale(address _nftContractAddress, uint256 _tokenId) external view returns(\r... */\n    tag_41:\n        /* \"NFT-Contracts/contracts/market_pri/nft_market.sol\":6863:6879  FixedSale memory */\n      tag_108\n      tag_109\n      jump\t// in\n    tag_108:\n        /* \"NFT-Contracts/contracts/market_pri/nft_market.sol\":6910:6930  nftContractFixedSale */\n      0x00\n        /* \"NFT-Contracts/contracts/market_pri/nft_market.sol\":6910:6951  nftContractFixedSale[_nftContractAddress] */\n      dup1\n        /* \"NFT-Contracts/contracts/market_pri/nft_market.sol\":6931:6950  _nftContractAddress */\n      dup5\n        /* \"NFT-Contracts/contracts/market_pri/nft_market.sol\":6910:6951  nftContractFixedSale[_nftContractAddress] */\n      0xffffffffffffffffffffffffffffffffffffffff\n      and\n      0xffffffffffffffffffffffffffffffffffffffff\n      and\n      dup2\n      mstore\n      0x20\n      add\n      swap1\n      dup2\n      mstore\n      0x20\n      add\n      0x00\n      keccak256\n        /* \"NFT-Contracts/contracts/market_pri/nft_market.sol\":6910:6961  nftContractFixedSale[_nftContractAddress][_tokenId] */\n      0x00\n        /* \"NFT-Contracts/contracts/market_pri/nft_market.sol\":6952:6960  _tokenId */\n      dup4\n        /* \"NFT-Contracts/contracts/market_pri/nft_market.sol\":6910:6961  nftContractFixedSale[_nftContractAddress][_tokenId] */\n      dup2\n      mstore\n      0x20\n      add\n      swap1\n      dup2\n      mstore\n      0x20\n      add\n      0x00\n      keccak256\n        /* \"NFT-Contracts/contracts/market_pri/nft_market.sol\":6903:6961  return nftContractFixedSale[_nftContractAddress][_tokenId] */\n      mload(0x40)\n      dup1\n      0x80\n      add\n      0x40\n      mstore\n      swap1\n      dup2\n      0x00\n      dup3\n      add\n      0x00\n      swap1\n      sload\n      swap1\n      0x0100\n      exp\n      swap1\n      div\n      0xffffffffffffffffffffffffffffffffffffffff\n      and\n      0xffffffffffffffffffffffffffffffffffffffff\n      and\n      0xffffffffffffffffffffffffffffffffffffffff\n      and\n      dup2\n      mstore\n      0x20\n      add\n      0x01\n      dup3\n      add\n      0x00\n      swap1\n      sload\n      swap1\n      0x0100\n      exp\n      swap1\n      div\n      0xffffffffffffffffffffffffffffffffffffffff\n      and\n      0xffffffffffffffffffffffffffffffffffffffff\n      and\n      0xffffffffffffffffffffffffffffffffffffffff\n      and\n      dup2\n      mstore\n      0x20\n      add\n      0x02\n      dup3\n      add\n      0x00\n      swap1\n      sload\n      swap1\n      0x0100\n      exp\n      swap1\n      div\n      0xffffffffffffffffffffffffffffffffffffffff\n      and\n      0xffffffffffffffffffffffffffffffffffffffff\n      and\n      0xffffffffffffffffffffffffffffffffffffffff\n      and\n      dup2\n      mstore\n      0x20\n      add\n      0x03\n      dup3\n      add\n      sload\n      dup2\n      mstore\n      pop\n      pop\n      swap1\n      pop\n        /* \"NFT-Contracts/contracts/market_pri/nft_market.sol\":6762:6969  function getFixedSale(address _nftContractAddress, uint256 _tokenId) external view returns(\r... */\n      swap3\n      swap2\n      pop\n      pop\n      jump\t// out\n        /* \"NFT-Contracts/contracts/market_pri/nft_market.sol\":6627:6754  function getFixedSaleNFT() external view returns(\r... */\n    tag_46:\n        /* \"NFT-Contracts/contracts/market_pri/nft_market.sol\":6686:6703  SaleInfo[] memory */\n      0x60\n        /* \"NFT-Contracts/contracts/market_pri/nft_market.sol\":6734:6746  fixedSaleNFT */\n      0x03\n        /* \"NFT-Contracts/contracts/market_pri/nft_market.sol\":6727:6746  return fixedSaleNFT */\n      dup1\n      sload\n      dup1\n      0x20\n      mul\n      0x20\n      add\n      mload(0x40)\n      swap1\n      dup2\n      add\n      0x40\n      mstore\n      dup1\n      swap3\n      swap2\n      swap1\n      dup2\n      dup2\n      mstore\n      0x20\n      add\n      0x00\n      swap1\n    tag_112:\n      dup3\n      dup3\n      lt\n      iszero\n      tag_113\n      jumpi\n      dup4\n      dup3\n      swap1\n      0x00\n      mstore\n      keccak256(0x00, 0x20)\n      swap1\n      0x02\n      mul\n      add\n      mload(0x40)\n      dup1\n      0x40\n      add\n      0x40\n      mstore\n      swap1\n      dup2\n      0x00\n      dup3\n      add\n      0x00\n      swap1\n      sload\n      swap1\n      0x0100\n      exp\n      swap1\n      div\n      0xffffffffffffffffffffffffffffffffffffffff\n      and\n      0xffffffffffffffffffffffffffffffffffffffff\n      and\n      0xffffffffffffffffffffffffffffffffffffffff\n      and\n      dup2\n      mstore\n      0x20\n      add\n      0x01\n      dup3\n      add\n      sload\n      dup2\n      mstore\n      pop\n      pop\n      dup2\n      mstore\n      0x20\n      add\n      swap1\n      0x01\n      add\n      swap1\n      jump(tag_112)\n    tag_113:\n      pop\n      pop\n      pop\n      pop\n      swap1\n      pop\n        /* \"NFT-Contracts/contracts/market_pri/nft_market.sol\":6627:6754  function getFixedSaleNFT() external view returns(\r... */\n      swap1\n      jump\t// out\n        /* \"NFT-Contracts/contracts/market_pri/nft_market.sol\":5480:6619  function buyFromFixedSale(\r... */\n    tag_51:\n        /* \"NFT-Contracts/contracts/market_pri/nft_market.sol\":5665:5684  _nftContractAddress */\n      dup3\n        /* \"NFT-Contracts/contracts/market_pri/nft_market.sol\":5686:5694  _tokenId */\n      dup3\n        /* \"NFT-Contracts/contracts/market_pri/nft_market.sol\":1765:1766  1 */\n      0x01\n        /* \"NFT-Contracts/contracts/market_pri/nft_market.sol\":1717:1730  nftSaleStatus */\n      dup1\n        /* \"NFT-Contracts/contracts/market_pri/nft_market.sol\":1717:1751  nftSaleStatus[_nftContractAddress] */\n      0x00\n        /* \"NFT-Contracts/contracts/market_pri/nft_market.sol\":1731:1750  _nftContractAddress */\n      dup5\n        /* \"NFT-Contracts/contracts/market_pri/nft_market.sol\":1717:1751  nftSaleStatus[_nftContractAddress] */\n      0xffffffffffffffffffffffffffffffffffffffff\n      and\n      0xffffffffffffffffffffffffffffffffffffffff\n      and\n      dup2\n      mstore\n      0x20\n      add\n      swap1\n      dup2\n      mstore\n      0x20\n      add\n      0x00\n      keccak256\n        /* \"NFT-Contracts/contracts/market_pri/nft_market.sol\":1717:1761  nftSaleStatus[_nftContractAddress][_tokenId] */\n      0x00\n        /* \"NFT-Contracts/contracts/market_pri/nft_market.sol\":1752:1760  _tokenId */\n      dup4\n        /* \"NFT-Contracts/contracts/market_pri/nft_market.sol\":1717:1761  nftSaleStatus[_nftContractAddress][_tokenId] */\n      dup2\n      mstore\n      0x20\n      add\n      swap1\n      dup2\n      mstore\n      0x20\n      add\n      0x00\n      keccak256\n      sload\n        /* \"NFT-Contracts/contracts/market_pri/nft_market.sol\":1717:1766  nftSaleStatus[_nftContractAddress][_tokenId] == 1 */\n      eq\n        /* \"NFT-Contracts/contracts/market_pri/nft_market.sol\":1695:1815  require(\r... */\n      tag_116\n      jumpi\n      mload(0x40)\n      0x08c379a000000000000000000000000000000000000000000000000000000000\n      dup2\n      mstore\n      0x04\n      add\n      tag_117\n      swap1\n      tag_60\n      jump\t// in\n    tag_117:\n      mload(0x40)\n      dup1\n      swap2\n      sub\n      swap1\n      revert\n    tag_116:\n        /* \"NFT-Contracts/contracts/market_pri/nft_market.sol\":5726:5733  _amount */\n      dup3\n        /* \"NFT-Contracts/contracts/market_pri/nft_market.sol\":3082:3083  0 */\n      0x00\n        /* \"NFT-Contracts/contracts/market_pri/nft_market.sol\":3073:3079  _price */\n      dup2\n        /* \"NFT-Contracts/contracts/market_pri/nft_market.sol\":3073:3083  _price > 0 */\n      gt\n        /* \"NFT-Contracts/contracts/market_pri/nft_market.sol\":3065:3105  require(_price > 0, \"Price cannot be 0\") */\n      tag_119\n      jumpi\n      mload(0x40)\n      0x08c379a000000000000000000000000000000000000000000000000000000000\n      dup2\n      mstore\n      0x04\n      add\n      tag_120\n      swap1\n      tag_68\n      jump\t// in\n    tag_120:\n      mload(0x40)\n      dup1\n      swap2\n      sub\n      swap1\n      revert\n    tag_119:\n        /* \"NFT-Contracts/contracts/market_pri/nft_market.sol\":5766:5785  _nftContractAddress */\n      dup6\n        /* \"NFT-Contracts/contracts/market_pri/nft_market.sol\":5787:5795  _tokenId */\n      dup6\n        /* \"NFT-Contracts/contracts/market_pri/nft_market.sol\":5797:5804  _amount */\n      dup6\n        /* \"NFT-Contracts/contracts/market_pri/nft_market.sol\":2871:2891  nftContractFixedSale */\n      0x00\n        /* \"NFT-Contracts/contracts/market_pri/nft_market.sol\":2871:2912  nftContractFixedSale[_nftContractAddress] */\n      dup1\n        /* \"NFT-Contracts/contracts/market_pri/nft_market.sol\":2892:2911  _nftContractAddress */\n      dup5\n        /* \"NFT-Contracts/contracts/market_pri/nft_market.sol\":2871:2912  nftContractFixedSale[_nftContractAddress] */\n      0xffffffffffffffffffffffffffffffffffffffff\n      and\n      0xffffffffffffffffffffffffffffffffffffffff\n      and\n      dup2\n      mstore\n      0x20\n      add\n      swap1\n      dup2\n      mstore\n      0x20\n      add\n      0x00\n      keccak256\n        /* \"NFT-Contracts/contracts/market_pri/nft_market.sol\":2871:2922  nftContractFixedSale[_nftContractAddress][_tokenId] */\n      0x00\n        /* \"NFT-Contracts/contracts/market_pri/nft_market.sol\":2913:2921  _tokenId */\n      dup4\n        /* \"NFT-Contracts/contracts/market_pri/nft_market.sol\":2871:2922  nftContractFixedSale[_nftContractAddress][_tokenId] */\n      dup2\n      mstore\n      0x20\n      add\n      swap1\n      dup2\n      mstore\n      0x20\n      add\n      0x00\n      keccak256\n        /* \"NFT-Contracts/contracts/market_pri/nft_market.sol\":2871:2932  nftContractFixedSale[_nftContractAddress][_tokenId].salePrice */\n      0x03\n      add\n      sload\n        /* \"NFT-Contracts/contracts/market_pri/nft_market.sol\":2841:2850  _buyPrice */\n      dup2\n        /* \"NFT-Contracts/contracts/market_pri/nft_market.sol\":2841:2932  _buyPrice >=\r... */\n      lt\n      iszero\n        /* \"NFT-Contracts/contracts/market_pri/nft_market.sol\":2819:2980  require(\r... */\n      tag_122\n      jumpi\n      mload(0x40)\n      0x08c379a000000000000000000000000000000000000000000000000000000000\n      dup2\n      mstore\n      0x04\n      add\n      tag_123\n      swap1\n      tag_124\n      jump\t// in\n    tag_123:\n      mload(0x40)\n      dup1\n      swap2\n      sub\n      swap1\n      revert\n    tag_122:\n        /* \"NFT-Contracts/contracts/market_pri/nft_market.sol\":5830:5849  _nftContractAddress */\n      dup9\n        /* \"NFT-Contracts/contracts/market_pri/nft_market.sol\":5822:5867  IERC721(_nftContractAddress).safeTransferFrom */\n      0xffffffffffffffffffffffffffffffffffffffff\n      and\n      0x42842e0e\n        /* \"NFT-Contracts/contracts/market_pri/nft_market.sol\":5890:5894  this */\n      address\n        /* \"NFT-Contracts/contracts/market_pri/nft_market.sol\":5910:5920  msg.sender */\n      caller\n        /* \"NFT-Contracts/contracts/market_pri/nft_market.sol\":5935:5943  _tokenId */\n      dup12\n        /* \"NFT-Contracts/contracts/market_pri/nft_market.sol\":5822:5954  IERC721(_nftContractAddress).safeTransferFrom(\r... */\n      mload(0x40)\n      dup5\n      0xffffffff\n      and\n      0xe0\n      shl\n      dup2\n      mstore\n      0x04\n      add\n      tag_126\n      swap4\n      swap3\n      swap2\n      swap1\n      tag_102\n      jump\t// in\n    tag_126:\n      0x00\n      mload(0x40)\n      dup1\n      dup4\n      sub\n      dup2\n      0x00\n      dup8\n      dup1\n      extcodesize\n      iszero\n      dup1\n      iszero\n      tag_127\n      jumpi\n      0x00\n      dup1\n      revert\n    tag_127:\n      pop\n      gas\n      call\n      iszero\n      dup1\n      iszero\n      tag_129\n      jumpi\n      returndatasize\n      0x00\n      dup1\n      returndatacopy\n      revert(0x00, returndatasize)\n    tag_129:\n      pop\n      pop\n      pop\n      pop\n        /* \"NFT-Contracts/contracts/market_pri/nft_market.sol\":6014:6015  0 */\n      0x00\n        /* \"NFT-Contracts/contracts/market_pri/nft_market.sol\":5967:5980  nftSaleStatus */\n      0x01\n        /* \"NFT-Contracts/contracts/market_pri/nft_market.sol\":5967:6001  nftSaleStatus[_nftContractAddress] */\n      0x00\n        /* \"NFT-Contracts/contracts/market_pri/nft_market.sol\":5981:6000  _nftContractAddress */\n      dup12\n        /* \"NFT-Contracts/contracts/market_pri/nft_market.sol\":5967:6001  nftSaleStatus[_nftContractAddress] */\n      0xffffffffffffffffffffffffffffffffffffffff\n      and\n      0xffffffffffffffffffffffffffffffffffffffff\n      and\n      dup2\n      mstore\n      0x20\n      add\n      swap1\n      dup2\n      mstore\n      0x20\n      add\n      0x00\n      keccak256\n        /* \"NFT-Contracts/contracts/market_pri/nft_market.sol\":5967:6011  nftSaleStatus[_nftContractAddress][_tokenId] */\n      0x00\n        /* \"NFT-Contracts/contracts/market_pri/nft_market.sol\":6002:6010  _tokenId */\n      dup11\n        /* \"NFT-Contracts/contracts/market_pri/nft_market.sol\":5967:6011  nftSaleStatus[_nftContractAddress][_tokenId] */\n      dup2\n      mstore\n      0x20\n      add\n      swap1\n      dup2\n      mstore\n      0x20\n      add\n      0x00\n      keccak256\n        /* \"NFT-Contracts/contracts/market_pri/nft_market.sol\":5967:6015  nftSaleStatus[_nftContractAddress][_tokenId] = 0 */\n      dup2\n      swap1\n      sstore\n      pop\n        /* \"NFT-Contracts/contracts/market_pri/nft_market.sol\":6033:6045  fixedSaleNFT */\n      0x03\n        /* \"NFT-Contracts/contracts/market_pri/nft_market.sol\":6047:6064  indexFixedSaleNFT */\n      0x02\n        /* \"NFT-Contracts/contracts/market_pri/nft_market.sol\":6047:6085  indexFixedSaleNFT[_nftContractAddress] */\n      0x00\n        /* \"NFT-Contracts/contracts/market_pri/nft_market.sol\":6065:6084  _nftContractAddress */\n      dup12\n        /* \"NFT-Contracts/contracts/market_pri/nft_market.sol\":6047:6085  indexFixedSaleNFT[_nftContractAddress] */\n      0xffffffffffffffffffffffffffffffffffffffff\n      and\n      0xffffffffffffffffffffffffffffffffffffffff\n      and\n      dup2\n      mstore\n      0x20\n      add\n      swap1\n      dup2\n      mstore\n      0x20\n      add\n      0x00\n      keccak256\n        /* \"NFT-Contracts/contracts/market_pri/nft_market.sol\":6047:6095  indexFixedSaleNFT[_nftContractAddress][_tokenId] */\n      0x00\n        /* \"NFT-Contracts/contracts/market_pri/nft_market.sol\":6086:6094  _tokenId */\n      dup11\n        /* \"NFT-Contracts/contracts/market_pri/nft_market.sol\":6047:6095  indexFixedSaleNFT[_nftContractAddress][_tokenId] */\n      dup2\n      mstore\n      0x20\n      add\n      swap1\n      dup2\n      mstore\n      0x20\n      add\n      0x00\n      keccak256\n      sload\n        /* \"NFT-Contracts/contracts/market_pri/nft_market.sol\":6033:6097  fixedSaleNFT[(indexFixedSaleNFT[_nftContractAddress][_tokenId])] */\n      dup2\n      sload\n      dup2\n      lt\n      tag_130\n      jumpi\n      mstore(0x00, 0x4e487b7100000000000000000000000000000000000000000000000000000000)\n      mstore(0x04, 0x32)\n      revert(0x00, 0x24)\n    tag_130:\n      swap1\n      0x00\n      mstore\n      keccak256(0x00, 0x20)\n      swap1\n      0x02\n      mul\n      add\n      0x00\n        /* \"NFT-Contracts/contracts/market_pri/nft_market.sol\":6026:6097  delete fixedSaleNFT[(indexFixedSaleNFT[_nftContractAddress][_tokenId])] */\n      dup1\n      dup3\n      add\n      exp(0x0100, 0x00)\n      dup2\n      sload\n      swap1\n      0xffffffffffffffffffffffffffffffffffffffff\n      mul\n      not\n      and\n      swap1\n      sstore\n      0x01\n      dup3\n      add\n      0x00\n      swap1\n      sstore\n      pop\n      pop\n        /* \"NFT-Contracts/contracts/market_pri/nft_market.sol\":6173:6197  msg\r... */\n      caller\n        /* \"NFT-Contracts/contracts/market_pri/nft_market.sol\":6110:6130  nftContractFixedSale */\n      0x00\n        /* \"NFT-Contracts/contracts/market_pri/nft_market.sol\":6110:6151  nftContractFixedSale[_nftContractAddress] */\n      dup1\n        /* \"NFT-Contracts/contracts/market_pri/nft_market.sol\":6131:6150  _nftContractAddress */\n      dup12\n        /* \"NFT-Contracts/contracts/market_pri/nft_market.sol\":6110:6151  nftContractFixedSale[_nftContractAddress] */\n      0xffffffffffffffffffffffffffffffffffffffff\n      and\n      0xffffffffffffffffffffffffffffffffffffffff\n      and\n      dup2\n      mstore\n      0x20\n      add\n      swap1\n      dup2\n      mstore\n      0x20\n      add\n      0x00\n      keccak256\n        /* \"NFT-Contracts/contracts/market_pri/nft_market.sol\":6110:6161  nftContractFixedSale[_nftContractAddress][_tokenId] */\n      0x00\n        /* \"NFT-Contracts/contracts/market_pri/nft_market.sol\":6152:6160  _tokenId */\n      dup11\n        /* \"NFT-Contracts/contracts/market_pri/nft_market.sol\":6110:6161  nftContractFixedSale[_nftContractAddress][_tokenId] */\n      dup2\n      mstore\n      0x20\n      add\n      swap1\n      dup2\n      mstore\n      0x20\n      add\n      0x00\n      keccak256\n        /* \"NFT-Contracts/contracts/market_pri/nft_market.sol\":6110:6170  nftContractFixedSale[_nftContractAddress][_tokenId].nftBuyer */\n      0x01\n      add\n      0x00\n        /* \"NFT-Contracts/contracts/market_pri/nft_market.sol\":6110:6197  nftContractFixedSale[_nftContractAddress][_tokenId].nftBuyer = msg\r... */\n      0x0100\n      exp\n      dup2\n      sload\n      dup2\n      0xffffffffffffffffffffffffffffffffffffffff\n      mul\n      not\n      and\n      swap1\n      dup4\n      0xffffffffffffffffffffffffffffffffffffffff\n      and\n      mul\n      or\n      swap1\n      sstore\n      pop\n        /* \"NFT-Contracts/contracts/market_pri/nft_market.sol\":6210:6459  _isTokenOrCoin(\r... */\n      tag_132\n        /* \"NFT-Contracts/contracts/market_pri/nft_market.sol\":6239:6259  nftContractFixedSale */\n      0x00\n        /* \"NFT-Contracts/contracts/market_pri/nft_market.sol\":6239:6280  nftContractFixedSale[_nftContractAddress] */\n      dup1\n        /* \"NFT-Contracts/contracts/market_pri/nft_market.sol\":6260:6279  _nftContractAddress */\n      dup12\n        /* \"NFT-Contracts/contracts/market_pri/nft_market.sol\":6239:6280  nftContractFixedSale[_nftContractAddress] */\n      0xffffffffffffffffffffffffffffffffffffffff\n      and\n      0xffffffffffffffffffffffffffffffffffffffff\n      and\n      dup2\n      mstore\n      0x20\n      add\n      swap1\n      dup2\n      mstore\n      0x20\n      add\n      0x00\n      keccak256\n        /* \"NFT-Contracts/contracts/market_pri/nft_market.sol\":6239:6290  nftContractFixedSale[_nftContractAddress][_tokenId] */\n      0x00\n        /* \"NFT-Contracts/contracts/market_pri/nft_market.sol\":6281:6289  _tokenId */\n      dup11\n        /* \"NFT-Contracts/contracts/market_pri/nft_market.sol\":6239:6290  nftContractFixedSale[_nftContractAddress][_tokenId] */\n      dup2\n      mstore\n      0x20\n      add\n      swap1\n      dup2\n      mstore\n      0x20\n      add\n      0x00\n      keccak256\n        /* \"NFT-Contracts/contracts/market_pri/nft_market.sol\":6239:6300  nftContractFixedSale[_nftContractAddress][_tokenId].nftSeller */\n      0x00\n      add\n      0x00\n      swap1\n      sload\n      swap1\n      0x0100\n      exp\n      swap1\n      div\n      0xffffffffffffffffffffffffffffffffffffffff\n      and\n        /* \"NFT-Contracts/contracts/market_pri/nft_market.sol\":6315:6335  nftContractFixedSale */\n      0x00\n        /* \"NFT-Contracts/contracts/market_pri/nft_market.sol\":6315:6356  nftContractFixedSale[_nftContractAddress] */\n      dup1\n        /* \"NFT-Contracts/contracts/market_pri/nft_market.sol\":6336:6355  _nftContractAddress */\n      dup13\n        /* \"NFT-Contracts/contracts/market_pri/nft_market.sol\":6315:6356  nftContractFixedSale[_nftContractAddress] */\n      0xffffffffffffffffffffffffffffffffffffffff\n      and\n      0xffffffffffffffffffffffffffffffffffffffff\n      and\n      dup2\n      mstore\n      0x20\n      add\n      swap1\n      dup2\n      mstore\n      0x20\n      add\n      0x00\n      keccak256\n        /* \"NFT-Contracts/contracts/market_pri/nft_market.sol\":6315:6366  nftContractFixedSale[_nftContractAddress][_tokenId] */\n      0x00\n        /* \"NFT-Contracts/contracts/market_pri/nft_market.sol\":6357:6365  _tokenId */\n      dup12\n        /* \"NFT-Contracts/contracts/market_pri/nft_market.sol\":6315:6366  nftContractFixedSale[_nftContractAddress][_tokenId] */\n      dup2\n      mstore\n      0x20\n      add\n      swap1\n      dup2\n      mstore\n      0x20\n      add\n      0x00\n      keccak256\n        /* \"NFT-Contracts/contracts/market_pri/nft_market.sol\":6315:6372  nftContractFixedSale[_nftContractAddress][_tokenId].erc20 */\n      0x02\n      add\n      0x00\n      swap1\n      sload\n      swap1\n      0x0100\n      exp\n      swap1\n      div\n      0xffffffffffffffffffffffffffffffffffffffff\n      and\n        /* \"NFT-Contracts/contracts/market_pri/nft_market.sol\":6387:6407  nftContractFixedSale */\n      0x00\n        /* \"NFT-Contracts/contracts/market_pri/nft_market.sol\":6387:6428  nftContractFixedSale[_nftContractAddress] */\n      dup1\n        /* \"NFT-Contracts/contracts/market_pri/nft_market.sol\":6408:6427  _nftContractAddress */\n      dup14\n        /* \"NFT-Contracts/contracts/market_pri/nft_market.sol\":6387:6428  nftContractFixedSale[_nftContractAddress] */\n      0xffffffffffffffffffffffffffffffffffffffff\n      and\n      0xffffffffffffffffffffffffffffffffffffffff\n      and\n      dup2\n      mstore\n      0x20\n      add\n      swap1\n      dup2\n      mstore\n      0x20\n      add\n      0x00\n      keccak256\n        /* \"NFT-Contracts/contracts/market_pri/nft_market.sol\":6387:6438  nftContractFixedSale[_nftContractAddress][_tokenId] */\n      0x00\n        /* \"NFT-Contracts/contracts/market_pri/nft_market.sol\":6429:6437  _tokenId */\n      dup13\n        /* \"NFT-Contracts/contracts/market_pri/nft_market.sol\":6387:6438  nftContractFixedSale[_nftContractAddress][_tokenId] */\n      dup2\n      mstore\n      0x20\n      add\n      swap1\n      dup2\n      mstore\n      0x20\n      add\n      0x00\n      keccak256\n        /* \"NFT-Contracts/contracts/market_pri/nft_market.sol\":6387:6448  nftContractFixedSale[_nftContractAddress][_tokenId].salePrice */\n      0x03\n      add\n      sload\n        /* \"NFT-Contracts/contracts/market_pri/nft_market.sol\":6210:6224  _isTokenOrCoin */\n      tag_133\n        /* \"NFT-Contracts/contracts/market_pri/nft_market.sol\":6210:6459  _isTokenOrCoin(\r... */\n      jump\t// in\n    tag_132:\n        /* \"NFT-Contracts/contracts/market_pri/nft_market.sol\":6477:6611  NftBuyFromFixedSale(\r... */\n      0x9fa3b1bb9266e05722b54a7a564d02a274bc80d39f4af21e6be405480996ceba\n        /* \"NFT-Contracts/contracts/market_pri/nft_market.sol\":6511:6530  _nftContractAddress */\n      dup10\n        /* \"NFT-Contracts/contracts/market_pri/nft_market.sol\":6545:6555  msg.sender */\n      caller\n        /* \"NFT-Contracts/contracts/market_pri/nft_market.sol\":6570:6578  _tokenId */\n      dup11\n        /* \"NFT-Contracts/contracts/market_pri/nft_market.sol\":6593:6600  _amount */\n      dup11\n        /* \"NFT-Contracts/contracts/market_pri/nft_market.sol\":6477:6611  NftBuyFromFixedSale(\r... */\n      mload(0x40)\n      tag_134\n      swap5\n      swap4\n      swap3\n      swap2\n      swap1\n      tag_135\n      jump\t// in\n    tag_134:\n      mload(0x40)\n      dup1\n      swap2\n      sub\n      swap1\n      log1\n        /* \"NFT-Contracts/contracts/market_pri/nft_market.sol\":3116:3117  _ */\n      pop\n      pop\n      pop\n        /* \"NFT-Contracts/contracts/market_pri/nft_market.sol\":1826:1827  _ */\n      pop\n        /* \"NFT-Contracts/contracts/market_pri/nft_market.sol\":5480:6619  function buyFromFixedSale(\r... */\n      pop\n      pop\n      pop\n      pop\n      pop\n      jump\t// out\n        /* \"NFT-Contracts/contracts/market_pri/nft_market.sol\":4300:4886  function cancelFixedsale(address _nftContractAddress, uint256 _tokenId)\r... */\n    tag_55:\n        /* \"NFT-Contracts/contracts/market_pri/nft_market.sol\":4416:4435  _nftContractAddress */\n      dup2\n        /* \"NFT-Contracts/contracts/market_pri/nft_market.sol\":4437:4445  _tokenId */\n      dup2\n        /* \"NFT-Contracts/contracts/market_pri/nft_market.sol\":1765:1766  1 */\n      0x01\n        /* \"NFT-Contracts/contracts/market_pri/nft_market.sol\":1717:1730  nftSaleStatus */\n      dup1\n        /* \"NFT-Contracts/contracts/market_pri/nft_market.sol\":1717:1751  nftSaleStatus[_nftContractAddress] */\n      0x00\n        /* \"NFT-Contracts/contracts/market_pri/nft_market.sol\":1731:1750  _nftContractAddress */\n      dup5\n        /* \"NFT-Contracts/contracts/market_pri/nft_market.sol\":1717:1751  nftSaleStatus[_nftContractAddress] */\n      0xffffffffffffffffffffffffffffffffffffffff\n      and\n      0xffffffffffffffffffffffffffffffffffffffff\n      and\n      dup2\n      mstore\n      0x20\n      add\n      swap1\n      dup2\n      mstore\n      0x20\n      add\n      0x00\n      keccak256\n        /* \"NFT-Contracts/contracts/market_pri/nft_market.sol\":1717:1761  nftSaleStatus[_nftContractAddress][_tokenId] */\n      0x00\n        /* \"NFT-Contracts/contracts/market_pri/nft_market.sol\":1752:1760  _tokenId */\n      dup4\n        /* \"NFT-Contracts/contracts/market_pri/nft_market.sol\":1717:1761  nftSaleStatus[_nftContractAddress][_tokenId] */\n      dup2\n      mstore\n      0x20\n      add\n      swap1\n      dup2\n      mstore\n      0x20\n      add\n      0x00\n      keccak256\n      sload\n        /* \"NFT-Contracts/contracts/market_pri/nft_market.sol\":1717:1766  nftSaleStatus[_nftContractAddress][_tokenId] == 1 */\n      eq\n        /* \"NFT-Contracts/contracts/market_pri/nft_market.sol\":1695:1815  require(\r... */\n      tag_137\n      jumpi\n      mload(0x40)\n      0x08c379a000000000000000000000000000000000000000000000000000000000\n      dup2\n      mstore\n      0x04\n      add\n      tag_138\n      swap1\n      tag_60\n      jump\t// in\n    tag_138:\n      mload(0x40)\n      dup1\n      swap2\n      sub\n      swap1\n      revert\n    tag_137:\n        /* \"NFT-Contracts/contracts/market_pri/nft_market.sol\":4475:4494  _nftContractAddress */\n      dup4\n        /* \"NFT-Contracts/contracts/market_pri/nft_market.sol\":4496:4504  _tokenId */\n      dup4\n        /* \"NFT-Contracts/contracts/market_pri/nft_market.sol\":2227:2247  nftContractFixedSale */\n      0x00\n        /* \"NFT-Contracts/contracts/market_pri/nft_market.sol\":2227:2268  nftContractFixedSale[_nftContractAddress] */\n      dup1\n        /* \"NFT-Contracts/contracts/market_pri/nft_market.sol\":2248:2267  _nftContractAddress */\n      dup4\n        /* \"NFT-Contracts/contracts/market_pri/nft_market.sol\":2227:2268  nftContractFixedSale[_nftContractAddress] */\n      0xffffffffffffffffffffffffffffffffffffffff\n      and\n      0xffffffffffffffffffffffffffffffffffffffff\n      and\n      dup2\n      mstore\n      0x20\n      add\n      swap1\n      dup2\n      mstore\n      0x20\n      add\n      0x00\n      keccak256\n        /* \"NFT-Contracts/contracts/market_pri/nft_market.sol\":2227:2278  nftContractFixedSale[_nftContractAddress][_tokenId] */\n      0x00\n        /* \"NFT-Contracts/contracts/market_pri/nft_market.sol\":2269:2277  _tokenId */\n      dup3\n        /* \"NFT-Contracts/contracts/market_pri/nft_market.sol\":2227:2278  nftContractFixedSale[_nftContractAddress][_tokenId] */\n      dup2\n      mstore\n      0x20\n      add\n      swap1\n      dup2\n      mstore\n      0x20\n      add\n      0x00\n      keccak256\n        /* \"NFT-Contracts/contracts/market_pri/nft_market.sol\":2227:2288  nftContractFixedSale[_nftContractAddress][_tokenId].nftSeller */\n      0x00\n      add\n      0x00\n      swap1\n      sload\n      swap1\n      0x0100\n      exp\n      swap1\n      div\n      0xffffffffffffffffffffffffffffffffffffffff\n      and\n        /* \"NFT-Contracts/contracts/market_pri/nft_market.sol\":2196:2288  msg.sender ==\r... */\n      0xffffffffffffffffffffffffffffffffffffffff\n      and\n        /* \"NFT-Contracts/contracts/market_pri/nft_market.sol\":2196:2206  msg.sender */\n      caller\n        /* \"NFT-Contracts/contracts/market_pri/nft_market.sol\":2196:2288  msg.sender ==\r... */\n      0xffffffffffffffffffffffffffffffffffffffff\n      and\n      eq\n        /* \"NFT-Contracts/contracts/market_pri/nft_market.sol\":2174:2337  require(\r... */\n      tag_140\n      jumpi\n      mload(0x40)\n      0x08c379a000000000000000000000000000000000000000000000000000000000\n      dup2\n      mstore\n      0x04\n      add\n      tag_141\n      swap1\n      tag_64\n      jump\t// in\n    tag_141:\n      mload(0x40)\n      dup1\n      swap2\n      sub\n      swap1\n      revert\n    tag_140:\n        /* \"NFT-Contracts/contracts/market_pri/nft_market.sol\":4530:4549  _nftContractAddress */\n      dup6\n        /* \"NFT-Contracts/contracts/market_pri/nft_market.sol\":4522:4567  IERC721(_nftContractAddress).safeTransferFrom */\n      0xffffffffffffffffffffffffffffffffffffffff\n      and\n      0x42842e0e\n        /* \"NFT-Contracts/contracts/market_pri/nft_market.sol\":4590:4594  this */\n      address\n        /* \"NFT-Contracts/contracts/market_pri/nft_market.sol\":4610:4620  msg.sender */\n      caller\n        /* \"NFT-Contracts/contracts/market_pri/nft_market.sol\":4635:4643  _tokenId */\n      dup9\n        /* \"NFT-Contracts/contracts/market_pri/nft_market.sol\":4522:4654  IERC721(_nftContractAddress).safeTransferFrom(\r... */\n      mload(0x40)\n      dup5\n      0xffffffff\n      and\n      0xe0\n      shl\n      dup2\n      mstore\n      0x04\n      add\n      tag_143\n      swap4\n      swap3\n      swap2\n      swap1\n      tag_102\n      jump\t// in\n    tag_143:\n      0x00\n      mload(0x40)\n      dup1\n      dup4\n      sub\n      dup2\n      0x00\n      dup8\n      dup1\n      extcodesize\n      iszero\n      dup1\n      iszero\n      tag_144\n      jumpi\n      0x00\n      dup1\n      revert\n    tag_144:\n      pop\n      gas\n      call\n      iszero\n      dup1\n      iszero\n      tag_146\n      jumpi\n      returndatasize\n      0x00\n      dup1\n      returndatacopy\n      revert(0x00, returndatasize)\n    tag_146:\n      pop\n      pop\n      pop\n      pop\n        /* \"NFT-Contracts/contracts/market_pri/nft_market.sol\":4714:4715  0 */\n      0x00\n        /* \"NFT-Contracts/contracts/market_pri/nft_market.sol\":4667:4680  nftSaleStatus */\n      0x01\n        /* \"NFT-Contracts/contracts/market_pri/nft_market.sol\":4667:4701  nftSaleStatus[_nftContractAddress] */\n      0x00\n        /* \"NFT-Contracts/contracts/market_pri/nft_market.sol\":4681:4700  _nftContractAddress */\n      dup9\n        /* \"NFT-Contracts/contracts/market_pri/nft_market.sol\":4667:4701  nftSaleStatus[_nftContractAddress] */\n      0xffffffffffffffffffffffffffffffffffffffff\n      and\n      0xffffffffffffffffffffffffffffffffffffffff\n      and\n      dup2\n      mstore\n      0x20\n      add\n      swap1\n      dup2\n      mstore\n      0x20\n      add\n      0x00\n      keccak256\n        /* \"NFT-Contracts/contracts/market_pri/nft_market.sol\":4667:4711  nftSaleStatus[_nftContractAddress][_tokenId] */\n      0x00\n        /* \"NFT-Contracts/contracts/market_pri/nft_market.sol\":4702:4710  _tokenId */\n      dup8\n        /* \"NFT-Contracts/contracts/market_pri/nft_market.sol\":4667:4711  nftSaleStatus[_nftContractAddress][_tokenId] */\n      dup2\n      mstore\n      0x20\n      add\n      swap1\n      dup2\n      mstore\n      0x20\n      add\n      0x00\n      keccak256\n        /* \"NFT-Contracts/contracts/market_pri/nft_market.sol\":4667:4715  nftSaleStatus[_nftContractAddress][_tokenId] = 0 */\n      dup2\n      swap1\n      sstore\n      pop\n        /* \"NFT-Contracts/contracts/market_pri/nft_market.sol\":4735:4747  fixedSaleNFT */\n      0x03\n        /* \"NFT-Contracts/contracts/market_pri/nft_market.sol\":4749:4766  indexFixedSaleNFT */\n      0x02\n        /* \"NFT-Contracts/contracts/market_pri/nft_market.sol\":4749:4787  indexFixedSaleNFT[_nftContractAddress] */\n      0x00\n        /* \"NFT-Contracts/contracts/market_pri/nft_market.sol\":4767:4786  _nftContractAddress */\n      dup9\n        /* \"NFT-Contracts/contracts/market_pri/nft_market.sol\":4749:4787  indexFixedSaleNFT[_nftContractAddress] */\n      0xffffffffffffffffffffffffffffffffffffffff\n      and\n      0xffffffffffffffffffffffffffffffffffffffff\n      and\n      dup2\n      mstore\n      0x20\n      add\n      swap1\n      dup2\n      mstore\n      0x20\n      add\n      0x00\n      keccak256\n        /* \"NFT-Contracts/contracts/market_pri/nft_market.sol\":4749:4797  indexFixedSaleNFT[_nftContractAddress][_tokenId] */\n      0x00\n        /* \"NFT-Contracts/contracts/market_pri/nft_market.sol\":4788:4796  _tokenId */\n      dup8\n        /* \"NFT-Contracts/contracts/market_pri/nft_market.sol\":4749:4797  indexFixedSaleNFT[_nftContractAddress][_tokenId] */\n      dup2\n      mstore\n      0x20\n      add\n      swap1\n      dup2\n      mstore\n      0x20\n      add\n      0x00\n      keccak256\n      sload\n        /* \"NFT-Contracts/contracts/market_pri/nft_market.sol\":4735:4799  fixedSaleNFT[(indexFixedSaleNFT[_nftContractAddress][_tokenId])] */\n      dup2\n      sload\n      dup2\n      lt\n      tag_147\n      jumpi\n      mstore(0x00, 0x4e487b7100000000000000000000000000000000000000000000000000000000)\n      mstore(0x04, 0x32)\n      revert(0x00, 0x24)\n    tag_147:\n      swap1\n      0x00\n      mstore\n      keccak256(0x00, 0x20)\n      swap1\n      0x02\n      mul\n      add\n      0x00\n        /* \"NFT-Contracts/contracts/market_pri/nft_market.sol\":4728:4799  delete fixedSaleNFT[(indexFixedSaleNFT[_nftContractAddress][_tokenId])] */\n      dup1\n      dup3\n      add\n      exp(0x0100, 0x00)\n      dup2\n      sload\n      swap1\n      0xffffffffffffffffffffffffffffffffffffffff\n      mul\n      not\n      and\n      swap1\n      sstore\n      0x01\n      dup3\n      add\n      0x00\n      swap1\n      sstore\n      pop\n      pop\n        /* \"NFT-Contracts/contracts/market_pri/nft_market.sol\":4817:4878  CancelNftFixedSale(_nftContractAddress, msg.sender, _tokenId) */\n      0xd7348ff00cf381a884144b50b3441398a48a7974ec349287df80e18cec9f5a31\n        /* \"NFT-Contracts/contracts/market_pri/nft_market.sol\":4836:4855  _nftContractAddress */\n      dup7\n        /* \"NFT-Contracts/contracts/market_pri/nft_market.sol\":4857:4867  msg.sender */\n      caller\n        /* \"NFT-Contracts/contracts/market_pri/nft_market.sol\":4869:4877  _tokenId */\n      dup8\n        /* \"NFT-Contracts/contracts/market_pri/nft_market.sol\":4817:4878  CancelNftFixedSale(_nftContractAddress, msg.sender, _tokenId) */\n      mload(0x40)\n      tag_149\n      swap4\n      swap3\n      swap2\n      swap1\n      tag_102\n      jump\t// in\n    tag_149:\n      mload(0x40)\n      dup1\n      swap2\n      sub\n      swap1\n      log1\n        /* \"NFT-Contracts/contracts/market_pri/nft_market.sol\":1826:1827  _ */\n      pop\n      pop\n        /* \"NFT-Contracts/contracts/market_pri/nft_market.sol\":4300:4886  function cancelFixedsale(address _nftContractAddress, uint256 _tokenId)\r... */\n      pop\n      pop\n      pop\n      pop\n      jump\t// out\n        /* \"NFT-Contracts/contracts/market_pri/nft_market.sol\":7206:7530  function _isTokenOrCoin(\r... */\n    tag_133:\n        /* \"NFT-Contracts/contracts/market_pri/nft_market.sol\":7362:7363  0 */\n      0x00\n        /* \"NFT-Contracts/contracts/market_pri/nft_market.sol\":7344:7364  _erc20 != address(0) */\n      0xffffffffffffffffffffffffffffffffffffffff\n      and\n        /* \"NFT-Contracts/contracts/market_pri/nft_market.sol\":7344:7350  _erc20 */\n      dup3\n        /* \"NFT-Contracts/contracts/market_pri/nft_market.sol\":7344:7364  _erc20 != address(0) */\n      0xffffffffffffffffffffffffffffffffffffffff\n      and\n      eq\n        /* \"NFT-Contracts/contracts/market_pri/nft_market.sol\":7340:7523  if (_erc20 != address(0)) {\r... */\n      tag_151\n      jumpi\n        /* \"NFT-Contracts/contracts/market_pri/nft_market.sol\":7381:7433  _tokenAmountTransfer(_nftSeller, _erc20, _buyAmount) */\n      tag_152\n        /* \"NFT-Contracts/contracts/market_pri/nft_market.sol\":7402:7412  _nftSeller */\n      dup4\n        /* \"NFT-Contracts/contracts/market_pri/nft_market.sol\":7414:7420  _erc20 */\n      dup4\n        /* \"NFT-Contracts/contracts/market_pri/nft_market.sol\":7422:7432  _buyAmount */\n      dup4\n        /* \"NFT-Contracts/contracts/market_pri/nft_market.sol\":7381:7401  _tokenAmountTransfer */\n      tag_153\n        /* \"NFT-Contracts/contracts/market_pri/nft_market.sol\":7381:7433  _tokenAmountTransfer(_nftSeller, _erc20, _buyAmount) */\n      jump\t// in\n    tag_152:\n        /* \"NFT-Contracts/contracts/market_pri/nft_market.sol\":7340:7523  if (_erc20 != address(0)) {\r... */\n      jump(tag_154)\n    tag_151:\n        /* \"NFT-Contracts/contracts/market_pri/nft_market.sol\":7466:7511  _nativeAmountTransfer(_nftSeller, _buyAmount) */\n      tag_155\n        /* \"NFT-Contracts/contracts/market_pri/nft_market.sol\":7488:7498  _nftSeller */\n      dup4\n        /* \"NFT-Contracts/contracts/market_pri/nft_market.sol\":7500:7510  _buyAmount */\n      dup3\n        /* \"NFT-Contracts/contracts/market_pri/nft_market.sol\":7466:7487  _nativeAmountTransfer */\n      tag_156\n        /* \"NFT-Contracts/contracts/market_pri/nft_market.sol\":7466:7511  _nativeAmountTransfer(_nftSeller, _buyAmount) */\n      jump\t// in\n    tag_155:\n        /* \"NFT-Contracts/contracts/market_pri/nft_market.sol\":7340:7523  if (_erc20 != address(0)) {\r... */\n    tag_154:\n        /* \"NFT-Contracts/contracts/market_pri/nft_market.sol\":7206:7530  function _isTokenOrCoin(\r... */\n      pop\n      pop\n      pop\n      jump\t// out\n        /* \"NFT-Contracts/contracts/market_pri/nft_market.sol\":7538:7819  function _tokenAmountTransfer(\r... */\n    tag_153:\n        /* \"NFT-Contracts/contracts/market_pri/nft_market.sol\":7707:7713  _erc20 */\n      dup2\n        /* \"NFT-Contracts/contracts/market_pri/nft_market.sol\":7700:7727  IERC20(_erc20).transferFrom */\n      0xffffffffffffffffffffffffffffffffffffffff\n      and\n      0x23b872dd\n        /* \"NFT-Contracts/contracts/market_pri/nft_market.sol\":7728:7738  msg.sender */\n      caller\n        /* \"NFT-Contracts/contracts/market_pri/nft_market.sol\":7740:7750  _nftSeller */\n      dup6\n        /* \"NFT-Contracts/contracts/market_pri/nft_market.sol\":7752:7762  _buyAmount */\n      dup5\n        /* \"NFT-Contracts/contracts/market_pri/nft_market.sol\":7700:7763  IERC20(_erc20).transferFrom(msg.sender, _nftSeller, _buyAmount) */\n      mload(0x40)\n      dup5\n      0xffffffff\n      and\n      0xe0\n      shl\n      dup2\n      mstore\n      0x04\n      add\n      tag_158\n      swap4\n      swap3\n      swap2\n      swap1\n      tag_102\n      jump\t// in\n    tag_158:\n      0x20\n      mload(0x40)\n      dup1\n      dup4\n      sub\n      dup2\n      0x00\n      dup8\n      dup1\n      extcodesize\n      iszero\n      dup1\n      iszero\n      tag_159\n      jumpi\n      0x00\n      dup1\n      revert\n    tag_159:\n      pop\n      gas\n      call\n      iszero\n      dup1\n      iszero\n      tag_161\n      jumpi\n      returndatasize\n      0x00\n      dup1\n      returndatacopy\n      revert(0x00, returndatasize)\n    tag_161:\n      pop\n      pop\n      pop\n      pop\n      mload(0x40)\n      returndatasize\n      not(0x1f)\n      0x1f\n      dup3\n      add\n      and\n      dup3\n      add\n      dup1\n      0x40\n      mstore\n      pop\n      dup2\n      add\n      swap1\n      tag_162\n      swap2\n      swap1\n      tag_92\n      jump\t// in\n    tag_162:\n        /* \"NFT-Contracts/contracts/market_pri/nft_market.sol\":7678:7811  require(\r... */\n      tag_163\n      jumpi\n      mload(0x40)\n      0x08c379a000000000000000000000000000000000000000000000000000000000\n      dup2\n      mstore\n      0x04\n      add\n      tag_164\n      swap1\n      tag_165\n      jump\t// in\n    tag_164:\n      mload(0x40)\n      dup1\n      swap2\n      sub\n      swap1\n      revert\n    tag_163:\n        /* \"NFT-Contracts/contracts/market_pri/nft_market.sol\":7538:7819  function _tokenAmountTransfer(\r... */\n      pop\n      pop\n      pop\n      jump\t// out\n        /* \"NFT-Contracts/contracts/market_pri/nft_market.sol\":7827:8041  function _nativeAmountTransfer(address _nftSeller, uint256 _buyAmount)\r... */\n    tag_156:\n        /* \"NFT-Contracts/contracts/market_pri/nft_market.sol\":7933:7945  bool success */\n      0x00\n        /* \"NFT-Contracts/contracts/market_pri/nft_market.sol\":7951:7961  _nftSeller */\n      dup3\n        /* \"NFT-Contracts/contracts/market_pri/nft_market.sol\":7951:7966  _nftSeller.call */\n      0xffffffffffffffffffffffffffffffffffffffff\n      and\n        /* \"NFT-Contracts/contracts/market_pri/nft_market.sol\":7974:7984  _buyAmount */\n      dup3\n        /* \"NFT-Contracts/contracts/market_pri/nft_market.sol\":7951:7989  _nftSeller.call{value: _buyAmount}(\"\") */\n      mload(0x40)\n      tag_167\n      swap1\n      tag_168\n      jump\t// in\n    tag_167:\n      0x00\n      mload(0x40)\n      dup1\n      dup4\n      sub\n      dup2\n      dup6\n      dup8\n      gas\n      call\n      swap3\n      pop\n      pop\n      pop\n      returndatasize\n      dup1\n      0x00\n      dup2\n      eq\n      tag_171\n      jumpi\n      mload(0x40)\n      swap2\n      pop\n      and(add(returndatasize, 0x3f), not(0x1f))\n      dup3\n      add\n      0x40\n      mstore\n      returndatasize\n      dup3\n      mstore\n      returndatasize\n      0x00\n      0x20\n      dup5\n      add\n      returndatacopy\n      jump(tag_170)\n    tag_171:\n      0x60\n      swap2\n      pop\n    tag_170:\n      pop\n        /* \"NFT-Contracts/contracts/market_pri/nft_market.sol\":7932:7989  (bool success, ) = _nftSeller.call{value: _buyAmount}(\"\") */\n      pop\n      swap1\n      pop\n        /* \"NFT-Contracts/contracts/market_pri/nft_market.sol\":8008:8015  success */\n      dup1\n        /* \"NFT-Contracts/contracts/market_pri/nft_market.sol\":8000:8033  require(success, \"refund failed\") */\n      tag_172\n      jumpi\n      mload(0x40)\n      0x08c379a000000000000000000000000000000000000000000000000000000000\n      dup2\n      mstore\n      0x04\n      add\n      tag_173\n      swap1\n      tag_174\n      jump\t// in\n    tag_173:\n      mload(0x40)\n      dup1\n      swap2\n      sub\n      swap1\n      revert\n    tag_172:\n        /* \"NFT-Contracts/contracts/market_pri/nft_market.sol\":7827:8041  function _nativeAmountTransfer(address _nftSeller, uint256 _buyAmount)\r... */\n      pop\n      pop\n      pop\n      jump\t// out\n    tag_109:\n      mload(0x40)\n      dup1\n      0x80\n      add\n      0x40\n      mstore\n      dup1\n      and(0xffffffffffffffffffffffffffffffffffffffff, 0x00)\n      dup2\n      mstore\n      0x20\n      add\n      and(0xffffffffffffffffffffffffffffffffffffffff, 0x00)\n      dup2\n      mstore\n      0x20\n      add\n      and(0xffffffffffffffffffffffffffffffffffffffff, 0x00)\n      dup2\n      mstore\n      0x20\n      add\n      0x00\n      dup2\n      mstore\n      pop\n      swap1\n      jump\t// out\n        /* \"#utility.yul\":7:146   */\n    tag_176:\n        /* \"#utility.yul\":53:58   */\n      0x00\n        /* \"#utility.yul\":91:97   */\n      dup2\n        /* \"#utility.yul\":78:98   */\n      calldataload\n        /* \"#utility.yul\":69:98   */\n      swap1\n      pop\n        /* \"#utility.yul\":107:140   */\n      tag_178\n        /* \"#utility.yul\":134:139   */\n      dup2\n        /* \"#utility.yul\":107:140   */\n      tag_179\n      jump\t// in\n    tag_178:\n        /* \"#utility.yul\":59:146   */\n      swap3\n      swap2\n      pop\n      pop\n      jump\t// out\n        /* \"#utility.yul\":152:295   */\n    tag_180:\n        /* \"#utility.yul\":209:214   */\n      0x00\n        /* \"#utility.yul\":240:246   */\n      dup2\n        /* \"#utility.yul\":234:247   */\n      mload\n        /* \"#utility.yul\":225:247   */\n      swap1\n      pop\n        /* \"#utility.yul\":256:289   */\n      tag_182\n        /* \"#utility.yul\":283:288   */\n      dup2\n        /* \"#utility.yul\":256:289   */\n      tag_179\n      jump\t// in\n    tag_182:\n        /* \"#utility.yul\":215:295   */\n      swap3\n      swap2\n      pop\n      pop\n      jump\t// out\n        /* \"#utility.yul\":301:438   */\n    tag_183:\n        /* \"#utility.yul\":355:360   */\n      0x00\n        /* \"#utility.yul\":386:392   */\n      dup2\n        /* \"#utility.yul\":380:393   */\n      mload\n        /* \"#utility.yul\":371:393   */\n      swap1\n      pop\n        /* \"#utility.yul\":402:432   */\n      tag_185\n        /* \"#utility.yul\":426:431   */\n      dup2\n        /* \"#utility.yul\":402:432   */\n      tag_186\n      jump\t// in\n    tag_185:\n        /* \"#utility.yul\":361:438   */\n      swap3\n      swap2\n      pop\n      pop\n      jump\t// out\n        /* \"#utility.yul\":457:808   */\n    tag_187:\n        /* \"#utility.yul\":514:522   */\n      0x00\n        /* \"#utility.yul\":524:530   */\n      dup1\n        /* \"#utility.yul\":574:577   */\n      dup4\n        /* \"#utility.yul\":567:571   */\n      0x1f\n        /* \"#utility.yul\":559:565   */\n      dup5\n        /* \"#utility.yul\":555:572   */\n      add\n        /* \"#utility.yul\":551:578   */\n      slt\n        /* \"#utility.yul\":541:543   */\n      tag_189\n      jumpi\n        /* \"#utility.yul\":592:593   */\n      0x00\n        /* \"#utility.yul\":589:590   */\n      dup1\n        /* \"#utility.yul\":582:594   */\n      revert\n        /* \"#utility.yul\":541:543   */\n    tag_189:\n        /* \"#utility.yul\":628:634   */\n      dup3\n        /* \"#utility.yul\":615:635   */\n      calldataload\n        /* \"#utility.yul\":605:635   */\n      swap1\n      pop\n        /* \"#utility.yul\":658:676   */\n      0xffffffffffffffff\n        /* \"#utility.yul\":650:656   */\n      dup2\n        /* \"#utility.yul\":647:677   */\n      gt\n        /* \"#utility.yul\":644:646   */\n      iszero\n      tag_190\n      jumpi\n        /* \"#utility.yul\":690:691   */\n      0x00\n        /* \"#utility.yul\":687:688   */\n      dup1\n        /* \"#utility.yul\":680:692   */\n      revert\n        /* \"#utility.yul\":644:646   */\n    tag_190:\n        /* \"#utility.yul\":727:731   */\n      0x20\n        /* \"#utility.yul\":719:725   */\n      dup4\n        /* \"#utility.yul\":715:732   */\n      add\n        /* \"#utility.yul\":703:732   */\n      swap2\n      pop\n        /* \"#utility.yul\":781:784   */\n      dup4\n        /* \"#utility.yul\":773:777   */\n      0x01\n        /* \"#utility.yul\":765:771   */\n      dup3\n        /* \"#utility.yul\":761:778   */\n      mul\n        /* \"#utility.yul\":751:759   */\n      dup4\n        /* \"#utility.yul\":747:779   */\n      add\n        /* \"#utility.yul\":744:785   */\n      gt\n        /* \"#utility.yul\":741:743   */\n      iszero\n      tag_191\n      jumpi\n        /* \"#utility.yul\":798:799   */\n      0x00\n        /* \"#utility.yul\":795:796   */\n      dup1\n        /* \"#utility.yul\":788:800   */\n      revert\n        /* \"#utility.yul\":741:743   */\n    tag_191:\n        /* \"#utility.yul\":531:808   */\n      swap3\n      pop\n      swap3\n      swap1\n      pop\n      jump\t// out\n        /* \"#utility.yul\":814:953   */\n    tag_192:\n        /* \"#utility.yul\":860:865   */\n      0x00\n        /* \"#utility.yul\":898:904   */\n      dup2\n        /* \"#utility.yul\":885:905   */\n      calldataload\n        /* \"#utility.yul\":876:905   */\n      swap1\n      pop\n        /* \"#utility.yul\":914:947   */\n      tag_194\n        /* \"#utility.yul\":941:946   */\n      dup2\n        /* \"#utility.yul\":914:947   */\n      tag_195\n      jump\t// in\n    tag_194:\n        /* \"#utility.yul\":866:953   */\n      swap3\n      swap2\n      pop\n      pop\n      jump\t// out\n        /* \"#utility.yul\":959:1243   */\n    tag_78:\n        /* \"#utility.yul\":1029:1035   */\n      0x00\n        /* \"#utility.yul\":1078:1080   */\n      0x20\n        /* \"#utility.yul\":1066:1075   */\n      dup3\n        /* \"#utility.yul\":1057:1064   */\n      dup5\n        /* \"#utility.yul\":1053:1076   */\n      sub\n        /* \"#utility.yul\":1049:1081   */\n      slt\n        /* \"#utility.yul\":1046:1048   */\n      iszero\n      tag_197\n      jumpi\n        /* \"#utility.yul\":1094:1095   */\n      0x00\n        /* \"#utility.yul\":1091:1092   */\n      dup1\n        /* \"#utility.yul\":1084:1096   */\n      revert\n        /* \"#utility.yul\":1046:1048   */\n    tag_197:\n        /* \"#utility.yul\":1137:1138   */\n      0x00\n        /* \"#utility.yul\":1162:1226   */\n      tag_198\n        /* \"#utility.yul\":1218:1225   */\n      dup5\n        /* \"#utility.yul\":1209:1215   */\n      dup3\n        /* \"#utility.yul\":1198:1207   */\n      dup6\n        /* \"#utility.yul\":1194:1216   */\n      add\n        /* \"#utility.yul\":1162:1226   */\n      tag_180\n      jump\t// in\n    tag_198:\n        /* \"#utility.yul\":1152:1226   */\n      swap2\n      pop\n        /* \"#utility.yul\":1108:1236   */\n      pop\n        /* \"#utility.yul\":1036:1243   */\n      swap3\n      swap2\n      pop\n      pop\n      jump\t// out\n        /* \"#utility.yul\":1249:2078   */\n    tag_17:\n        /* \"#utility.yul\":1346:1352   */\n      0x00\n        /* \"#utility.yul\":1354:1360   */\n      dup1\n        /* \"#utility.yul\":1362:1368   */\n      0x00\n        /* \"#utility.yul\":1370:1376   */\n      dup1\n        /* \"#utility.yul\":1378:1384   */\n      0x00\n        /* \"#utility.yul\":1427:1430   */\n      0x80\n        /* \"#utility.yul\":1415:1424   */\n      dup7\n        /* \"#utility.yul\":1406:1413   */\n      dup9\n        /* \"#utility.yul\":1402:1425   */\n      sub\n        /* \"#utility.yul\":1398:1431   */\n      slt\n        /* \"#utility.yul\":1395:1397   */\n      iszero\n      tag_200\n      jumpi\n        /* \"#utility.yul\":1444:1445   */\n      0x00\n        /* \"#utility.yul\":1441:1442   */\n      dup1\n        /* \"#utility.yul\":1434:1446   */\n      revert\n        /* \"#utility.yul\":1395:1397   */\n    tag_200:\n        /* \"#utility.yul\":1487:1488   */\n      0x00\n        /* \"#utility.yul\":1512:1565   */\n      tag_201\n        /* \"#utility.yul\":1557:1564   */\n      dup9\n        /* \"#utility.yul\":1548:1554   */\n      dup3\n        /* \"#utility.yul\":1537:1546   */\n      dup10\n        /* \"#utility.yul\":1533:1555   */\n      add\n        /* \"#utility.yul\":1512:1565   */\n      tag_176\n      jump\t// in\n    tag_201:\n        /* \"#utility.yul\":1502:1565   */\n      swap6\n      pop\n        /* \"#utility.yul\":1458:1575   */\n      pop\n        /* \"#utility.yul\":1614:1616   */\n      0x20\n        /* \"#utility.yul\":1640:1693   */\n      tag_202\n        /* \"#utility.yul\":1685:1692   */\n      dup9\n        /* \"#utility.yul\":1676:1682   */\n      dup3\n        /* \"#utility.yul\":1665:1674   */\n      dup10\n        /* \"#utility.yul\":1661:1683   */\n      add\n        /* \"#utility.yul\":1640:1693   */\n      tag_176\n      jump\t// in\n    tag_202:\n        /* \"#utility.yul\":1630:1693   */\n      swap5\n      pop\n        /* \"#utility.yul\":1585:1703   */\n      pop\n        /* \"#utility.yul\":1742:1744   */\n      0x40\n        /* \"#utility.yul\":1768:1821   */\n      tag_203\n        /* \"#utility.yul\":1813:1820   */\n      dup9\n        /* \"#utility.yul\":1804:1810   */\n      dup3\n        /* \"#utility.yul\":1793:1802   */\n      dup10\n        /* \"#utility.yul\":1789:1811   */\n      add\n        /* \"#utility.yul\":1768:1821   */\n      tag_192\n      jump\t// in\n    tag_203:\n        /* \"#utility.yul\":1758:1821   */\n      swap4\n      pop\n        /* \"#utility.yul\":1713:1831   */\n      pop\n        /* \"#utility.yul\":1898:1900   */\n      0x60\n        /* \"#utility.yul\":1887:1896   */\n      dup7\n        /* \"#utility.yul\":1883:1901   */\n      add\n        /* \"#utility.yul\":1870:1902   */\n      calldataload\n        /* \"#utility.yul\":1929:1947   */\n      0xffffffffffffffff\n        /* \"#utility.yul\":1921:1927   */\n      dup2\n        /* \"#utility.yul\":1918:1948   */\n      gt\n        /* \"#utility.yul\":1915:1917   */\n      iszero\n      tag_204\n      jumpi\n        /* \"#utility.yul\":1961:1962   */\n      0x00\n        /* \"#utility.yul\":1958:1959   */\n      dup1\n        /* \"#utility.yul\":1951:1963   */\n      revert\n        /* \"#utility.yul\":1915:1917   */\n    tag_204:\n        /* \"#utility.yul\":1997:2061   */\n      tag_205\n        /* \"#utility.yul\":2053:2060   */\n      dup9\n        /* \"#utility.yul\":2044:2050   */\n      dup3\n        /* \"#utility.yul\":2033:2042   */\n      dup10\n        /* \"#utility.yul\":2029:2051   */\n      add\n        /* \"#utility.yul\":1997:2061   */\n      tag_187\n      jump\t// in\n    tag_205:\n        /* \"#utility.yul\":1979:2061   */\n      swap3\n      pop\n      swap3\n      pop\n        /* \"#utility.yul\":1841:2071   */\n      pop\n        /* \"#utility.yul\":1385:2078   */\n      swap3\n      swap6\n      pop\n      swap3\n      swap6\n      swap1\n      swap4\n      pop\n      jump\t// out\n        /* \"#utility.yul\":2084:2782   */\n    tag_36:\n        /* \"#utility.yul\":2170:2176   */\n      0x00\n        /* \"#utility.yul\":2178:2184   */\n      dup1\n        /* \"#utility.yul\":2186:2192   */\n      0x00\n        /* \"#utility.yul\":2194:2200   */\n      dup1\n        /* \"#utility.yul\":2243:2246   */\n      0x80\n        /* \"#utility.yul\":2231:2240   */\n      dup6\n        /* \"#utility.yul\":2222:2229   */\n      dup8\n        /* \"#utility.yul\":2218:2241   */\n      sub\n        /* \"#utility.yul\":2214:2247   */\n      slt\n        /* \"#utility.yul\":2211:2213   */\n      iszero\n      tag_207\n      jumpi\n        /* \"#utility.yul\":2260:2261   */\n      0x00\n        /* \"#utility.yul\":2257:2258   */\n      dup1\n        /* \"#utility.yul\":2250:2262   */\n      revert\n        /* \"#utility.yul\":2211:2213   */\n    tag_207:\n        /* \"#utility.yul\":2303:2304   */\n      0x00\n        /* \"#utility.yul\":2328:2381   */\n      tag_208\n        /* \"#utility.yul\":2373:2380   */\n      dup8\n        /* \"#utility.yul\":2364:2370   */\n      dup3\n        /* \"#utility.yul\":2353:2362   */\n      dup9\n        /* \"#utility.yul\":2349:2371   */\n      add\n        /* \"#utility.yul\":2328:2381   */\n      tag_176\n      jump\t// in\n    tag_208:\n        /* \"#utility.yul\":2318:2381   */\n      swap5\n      pop\n        /* \"#utility.yul\":2274:2391   */\n      pop\n        /* \"#utility.yul\":2430:2432   */\n      0x20\n        /* \"#utility.yul\":2456:2509   */\n      tag_209\n        /* \"#utility.yul\":2501:2508   */\n      dup8\n        /* \"#utility.yul\":2492:2498   */\n      dup3\n        /* \"#utility.yul\":2481:2490   */\n      dup9\n        /* \"#utility.yul\":2477:2499   */\n      add\n        /* \"#utility.yul\":2456:2509   */\n      tag_176\n      jump\t// in\n    tag_209:\n        /* \"#utility.yul\":2446:2509   */\n      swap4\n      pop\n        /* \"#utility.yul\":2401:2519   */\n      pop\n        /* \"#utility.yul\":2558:2560   */\n      0x40\n        /* \"#utility.yul\":2584:2637   */\n      tag_210\n        /* \"#utility.yul\":2629:2636   */\n      dup8\n        /* \"#utility.yul\":2620:2626   */\n      dup3\n        /* \"#utility.yul\":2609:2618   */\n      dup9\n        /* \"#utility.yul\":2605:2627   */\n      add\n        /* \"#utility.yul\":2584:2637   */\n      tag_192\n      jump\t// in\n    tag_210:\n        /* \"#utility.yul\":2574:2637   */\n      swap3\n      pop\n        /* \"#utility.yul\":2529:2647   */\n      pop\n        /* \"#utility.yul\":2686:2688   */\n      0x60\n        /* \"#utility.yul\":2712:2765   */\n      tag_211\n        /* \"#utility.yul\":2757:2764   */\n      dup8\n        /* \"#utility.yul\":2748:2754   */\n      dup3\n        /* \"#utility.yul\":2737:2746   */\n      dup9\n        /* \"#utility.yul\":2733:2755   */\n      add\n        /* \"#utility.yul\":2712:2765   */\n      tag_192\n      jump\t// in\n    tag_211:\n        /* \"#utility.yul\":2702:2765   */\n      swap2\n      pop\n        /* \"#utility.yul\":2657:2775   */\n      pop\n        /* \"#utility.yul\":2201:2782   */\n      swap3\n      swap6\n      swap2\n      swap5\n      pop\n      swap3\n      pop\n      jump\t// out\n        /* \"#utility.yul\":2788:3195   */\n    tag_29:\n        /* \"#utility.yul\":2856:2862   */\n      0x00\n        /* \"#utility.yul\":2864:2870   */\n      dup1\n        /* \"#utility.yul\":2913:2915   */\n      0x40\n        /* \"#utility.yul\":2901:2910   */\n      dup4\n        /* \"#utility.yul\":2892:2899   */\n      dup6\n        /* \"#utility.yul\":2888:2911   */\n      sub\n        /* \"#utility.yul\":2884:2916   */\n      slt\n        /* \"#utility.yul\":2881:2883   */\n      iszero\n      tag_213\n      jumpi\n        /* \"#utility.yul\":2929:2930   */\n      0x00\n        /* \"#utility.yul\":2926:2927   */\n      dup1\n        /* \"#utility.yul\":2919:2931   */\n      revert\n        /* \"#utility.yul\":2881:2883   */\n    tag_213:\n        /* \"#utility.yul\":2972:2973   */\n      0x00\n        /* \"#utility.yul\":2997:3050   */\n      tag_214\n        /* \"#utility.yul\":3042:3049   */\n      dup6\n        /* \"#utility.yul\":3033:3039   */\n      dup3\n        /* \"#utility.yul\":3022:3031   */\n      dup7\n        /* \"#utility.yul\":3018:3040   */\n      add\n        /* \"#utility.yul\":2997:3050   */\n      tag_176\n      jump\t// in\n    tag_214:\n        /* \"#utility.yul\":2987:3050   */\n      swap3\n      pop\n        /* \"#utility.yul\":2943:3060   */\n      pop\n        /* \"#utility.yul\":3099:3101   */\n      0x20\n        /* \"#utility.yul\":3125:3178   */\n      tag_215\n        /* \"#utility.yul\":3170:3177   */\n      dup6\n        /* \"#utility.yul\":3161:3167   */\n      dup3\n        /* \"#utility.yul\":3150:3159   */\n      dup7\n        /* \"#utility.yul\":3146:3168   */\n      add\n        /* \"#utility.yul\":3125:3178   */\n      tag_192\n      jump\t// in\n    tag_215:\n        /* \"#utility.yul\":3115:3178   */\n      swap2\n      pop\n        /* \"#utility.yul\":3070:3188   */\n      pop\n        /* \"#utility.yul\":2871:3195   */\n      swap3\n      pop\n      swap3\n      swap1\n      pop\n      jump\t// out\n        /* \"#utility.yul\":3201:3753   */\n    tag_24:\n        /* \"#utility.yul\":3278:3284   */\n      0x00\n        /* \"#utility.yul\":3286:3292   */\n      dup1\n        /* \"#utility.yul\":3294:3300   */\n      0x00\n        /* \"#utility.yul\":3343:3345   */\n      0x60\n        /* \"#utility.yul\":3331:3340   */\n      dup5\n        /* \"#utility.yul\":3322:3329   */\n      dup7\n        /* \"#utility.yul\":3318:3341   */\n      sub\n        /* \"#utility.yul\":3314:3346   */\n      slt\n        /* \"#utility.yul\":3311:3313   */\n      iszero\n      tag_217\n      jumpi\n        /* \"#utility.yul\":3359:3360   */\n      0x00\n        /* \"#utility.yul\":3356:3357   */\n      dup1\n        /* \"#utility.yul\":3349:3361   */\n      revert\n        /* \"#utility.yul\":3311:3313   */\n    tag_217:\n        /* \"#utility.yul\":3402:3403   */\n      0x00\n        /* \"#utility.yul\":3427:3480   */\n      tag_218\n        /* \"#utility.yul\":3472:3479   */\n      dup7\n        /* \"#utility.yul\":3463:3469   */\n      dup3\n        /* \"#utility.yul\":3452:3461   */\n      dup8\n        /* \"#utility.yul\":3448:3470   */\n      add\n        /* \"#utility.yul\":3427:3480   */\n      tag_176\n      jump\t// in\n    tag_218:\n        /* \"#utility.yul\":3417:3480   */\n      swap4\n      pop\n        /* \"#utility.yul\":3373:3490   */\n      pop\n        /* \"#utility.yul\":3529:3531   */\n      0x20\n        /* \"#utility.yul\":3555:3608   */\n      tag_219\n        /* \"#utility.yul\":3600:3607   */\n      dup7\n        /* \"#utility.yul\":3591:3597   */\n      dup3\n        /* \"#utility.yul\":3580:3589   */\n      dup8\n        /* \"#utility.yul\":3576:3598   */\n      add\n        /* \"#utility.yul\":3555:3608   */\n      tag_192\n      jump\t// in\n    tag_219:\n        /* \"#utility.yul\":3545:3608   */\n      swap3\n      pop\n        /* \"#utility.yul\":3500:3618   */\n      pop\n        /* \"#utility.yul\":3657:3659   */\n      0x40\n        /* \"#utility.yul\":3683:3736   */\n      tag_220\n        /* \"#utility.yul\":3728:3735   */\n      dup7\n        /* \"#utility.yul\":3719:3725   */\n      dup3\n        /* \"#utility.yul\":3708:3717   */\n      dup8\n        /* \"#utility.yul\":3704:3726   */\n      add\n        /* \"#utility.yul\":3683:3736   */\n      tag_192\n      jump\t// in\n    tag_220:\n        /* \"#utility.yul\":3673:3736   */\n      swap2\n      pop\n        /* \"#utility.yul\":3628:3746   */\n      pop\n        /* \"#utility.yul\":3301:3753   */\n      swap3\n      pop\n      swap3\n      pop\n      swap3\n      jump\t// out\n        /* \"#utility.yul\":3759:4037   */\n    tag_92:\n        /* \"#utility.yul\":3826:3832   */\n      0x00\n        /* \"#utility.yul\":3875:3877   */\n      0x20\n        /* \"#utility.yul\":3863:3872   */\n      dup3\n        /* \"#utility.yul\":3854:3861   */\n      dup5\n        /* \"#utility.yul\":3850:3873   */\n      sub\n        /* \"#utility.yul\":3846:3878   */\n      slt\n        /* \"#utility.yul\":3843:3845   */\n      iszero\n      tag_222\n      jumpi\n        /* \"#utility.yul\":3891:3892   */\n      0x00\n        /* \"#utility.yul\":3888:3889   */\n      dup1\n        /* \"#utility.yul\":3881:3893   */\n      revert\n        /* \"#utility.yul\":3843:3845   */\n    tag_222:\n        /* \"#utility.yul\":3934:3935   */\n      0x00\n        /* \"#utility.yul\":3959:4020   */\n      tag_223\n        /* \"#utility.yul\":4012:4019   */\n      dup5\n        /* \"#utility.yul\":4003:4009   */\n      dup3\n        /* \"#utility.yul\":3992:4001   */\n      dup6\n        /* \"#utility.yul\":3988:4010   */\n      add\n        /* \"#utility.yul\":3959:4020   */\n      tag_183\n      jump\t// in\n    tag_223:\n        /* \"#utility.yul\":3949:4020   */\n      swap2\n      pop\n        /* \"#utility.yul\":3905:4030   */\n      pop\n        /* \"#utility.yul\":3833:4037   */\n      swap3\n      swap2\n      pop\n      pop\n      jump\t// out\n        /* \"#utility.yul\":4043:4322   */\n    tag_224:\n        /* \"#utility.yul\":4162:4172   */\n      0x00\n        /* \"#utility.yul\":4183:4279   */\n      tag_226\n        /* \"#utility.yul\":4275:4278   */\n      dup4\n        /* \"#utility.yul\":4267:4273   */\n      dup4\n        /* \"#utility.yul\":4183:4279   */\n      tag_227\n      jump\t// in\n    tag_226:\n        /* \"#utility.yul\":4311:4315   */\n      0x40\n        /* \"#utility.yul\":4306:4309   */\n      dup4\n        /* \"#utility.yul\":4302:4316   */\n      add\n        /* \"#utility.yul\":4288:4316   */\n      swap1\n      pop\n        /* \"#utility.yul\":4173:4322   */\n      swap3\n      swap2\n      pop\n      pop\n      jump\t// out\n        /* \"#utility.yul\":4328:4436   */\n    tag_228:\n        /* \"#utility.yul\":4405:4429   */\n      tag_230\n        /* \"#utility.yul\":4423:4428   */\n      dup2\n        /* \"#utility.yul\":4405:4429   */\n      tag_231\n      jump\t// in\n    tag_230:\n        /* \"#utility.yul\":4400:4403   */\n      dup3\n        /* \"#utility.yul\":4393:4430   */\n      mstore\n        /* \"#utility.yul\":4383:4436   */\n      pop\n      pop\n      jump\t// out\n        /* \"#utility.yul\":4442:4560   */\n    tag_232:\n        /* \"#utility.yul\":4529:4553   */\n      tag_234\n        /* \"#utility.yul\":4547:4552   */\n      dup2\n        /* \"#utility.yul\":4529:4553   */\n      tag_231\n      jump\t// in\n    tag_234:\n        /* \"#utility.yul\":4524:4527   */\n      dup3\n        /* \"#utility.yul\":4517:4554   */\n      mstore\n        /* \"#utility.yul\":4507:4560   */\n      pop\n      pop\n      jump\t// out\n        /* \"#utility.yul\":4642:5574   */\n    tag_235:\n        /* \"#utility.yul\":4811:4814   */\n      0x00\n        /* \"#utility.yul\":4840:4919   */\n      tag_237\n        /* \"#utility.yul\":4913:4918   */\n      dup3\n        /* \"#utility.yul\":4840:4919   */\n      tag_238\n      jump\t// in\n    tag_237:\n        /* \"#utility.yul\":4935:5046   */\n      tag_239\n        /* \"#utility.yul\":5039:5045   */\n      dup2\n        /* \"#utility.yul\":5034:5037   */\n      dup6\n        /* \"#utility.yul\":4935:5046   */\n      tag_240\n      jump\t// in\n    tag_239:\n        /* \"#utility.yul\":4928:5046   */\n      swap4\n      pop\n        /* \"#utility.yul\":5070:5151   */\n      tag_241\n        /* \"#utility.yul\":5145:5150   */\n      dup4\n        /* \"#utility.yul\":5070:5151   */\n      tag_242\n      jump\t// in\n    tag_241:\n        /* \"#utility.yul\":5174:5181   */\n      dup1\n        /* \"#utility.yul\":5205:5206   */\n      0x00\n        /* \"#utility.yul\":5190:5549   */\n    tag_243:\n        /* \"#utility.yul\":5215:5221   */\n      dup4\n        /* \"#utility.yul\":5212:5213   */\n      dup2\n        /* \"#utility.yul\":5209:5222   */\n      lt\n        /* \"#utility.yul\":5190:5549   */\n      iszero\n      tag_245\n      jumpi\n        /* \"#utility.yul\":5291:5297   */\n      dup2\n        /* \"#utility.yul\":5285:5298   */\n      mload\n        /* \"#utility.yul\":5318:5431   */\n      tag_246\n        /* \"#utility.yul\":5427:5430   */\n      dup9\n        /* \"#utility.yul\":5412:5425   */\n      dup3\n        /* \"#utility.yul\":5318:5431   */\n      tag_224\n      jump\t// in\n    tag_246:\n        /* \"#utility.yul\":5311:5431   */\n      swap8\n      pop\n        /* \"#utility.yul\":5454:5539   */\n      tag_247\n        /* \"#utility.yul\":5532:5538   */\n      dup4\n        /* \"#utility.yul\":5454:5539   */\n      tag_248\n      jump\t// in\n    tag_247:\n        /* \"#utility.yul\":5444:5539   */\n      swap3\n      pop\n        /* \"#utility.yul\":5250:5549   */\n      pop\n        /* \"#utility.yul\":5237:5238   */\n      0x01\n        /* \"#utility.yul\":5234:5235   */\n      dup2\n        /* \"#utility.yul\":5230:5239   */\n      add\n        /* \"#utility.yul\":5225:5239   */\n      swap1\n      pop\n        /* \"#utility.yul\":5190:5549   */\n      jump(tag_243)\n    tag_245:\n        /* \"#utility.yul\":5194:5208   */\n      pop\n        /* \"#utility.yul\":5565:5568   */\n      dup6\n        /* \"#utility.yul\":5558:5568   */\n      swap4\n      pop\n        /* \"#utility.yul\":4816:5574   */\n      pop\n      pop\n      pop\n      swap3\n      swap2\n      pop\n      pop\n      jump\t// out\n        /* \"#utility.yul\":5580:5695   */\n    tag_249:\n        /* \"#utility.yul\":5665:5688   */\n      tag_251\n        /* \"#utility.yul\":5682:5687   */\n      dup2\n        /* \"#utility.yul\":5665:5688   */\n      tag_252\n      jump\t// in\n    tag_251:\n        /* \"#utility.yul\":5660:5663   */\n      dup3\n        /* \"#utility.yul\":5653:5689   */\n      mstore\n        /* \"#utility.yul\":5643:5695   */\n      pop\n      pop\n      jump\t// out\n        /* \"#utility.yul\":5701:6067   */\n    tag_253:\n        /* \"#utility.yul\":5843:5846   */\n      0x00\n        /* \"#utility.yul\":5864:5931   */\n      tag_255\n        /* \"#utility.yul\":5928:5930   */\n      0x1c\n        /* \"#utility.yul\":5923:5926   */\n      dup4\n        /* \"#utility.yul\":5864:5931   */\n      tag_256\n      jump\t// in\n    tag_255:\n        /* \"#utility.yul\":5857:5931   */\n      swap2\n      pop\n        /* \"#utility.yul\":5940:6033   */\n      tag_257\n        /* \"#utility.yul\":6029:6032   */\n      dup3\n        /* \"#utility.yul\":5940:6033   */\n      tag_258\n      jump\t// in\n    tag_257:\n        /* \"#utility.yul\":6058:6060   */\n      0x20\n        /* \"#utility.yul\":6053:6056   */\n      dup3\n        /* \"#utility.yul\":6049:6061   */\n      add\n        /* \"#utility.yul\":6042:6061   */\n      swap1\n      pop\n        /* \"#utility.yul\":5847:6067   */\n      swap2\n      swap1\n      pop\n      jump\t// out\n        /* \"#utility.yul\":6073:6439   */\n    tag_259:\n        /* \"#utility.yul\":6215:6218   */\n      0x00\n        /* \"#utility.yul\":6236:6303   */\n      tag_261\n        /* \"#utility.yul\":6300:6302   */\n      0x11\n        /* \"#utility.yul\":6295:6298   */\n      dup4\n        /* \"#utility.yul\":6236:6303   */\n      tag_256\n      jump\t// in\n    tag_261:\n        /* \"#utility.yul\":6229:6303   */\n      swap2\n      pop\n        /* \"#utility.yul\":6312:6405   */\n      tag_262\n        /* \"#utility.yul\":6401:6404   */\n      dup3\n        /* \"#utility.yul\":6312:6405   */\n      tag_263\n      jump\t// in\n    tag_262:\n        /* \"#utility.yul\":6430:6432   */\n      0x20\n        /* \"#utility.yul\":6425:6428   */\n      dup3\n        /* \"#utility.yul\":6421:6433   */\n      add\n        /* \"#utility.yul\":6414:6433   */\n      swap1\n      pop\n        /* \"#utility.yul\":6219:6439   */\n      swap2\n      swap1\n      pop\n      jump\t// out\n        /* \"#utility.yul\":6445:6811   */\n    tag_264:\n        /* \"#utility.yul\":6587:6590   */\n      0x00\n        /* \"#utility.yul\":6608:6675   */\n      tag_266\n        /* \"#utility.yul\":6672:6674   */\n      0x15\n        /* \"#utility.yul\":6667:6670   */\n      dup4\n        /* \"#utility.yul\":6608:6675   */\n      tag_256\n      jump\t// in\n    tag_266:\n        /* \"#utility.yul\":6601:6675   */\n      swap2\n      pop\n        /* \"#utility.yul\":6684:6777   */\n      tag_267\n        /* \"#utility.yul\":6773:6776   */\n      dup3\n        /* \"#utility.yul\":6684:6777   */\n      tag_268\n      jump\t// in\n    tag_267:\n        /* \"#utility.yul\":6802:6804   */\n      0x20\n        /* \"#utility.yul\":6797:6800   */\n      dup3\n        /* \"#utility.yul\":6793:6805   */\n      add\n        /* \"#utility.yul\":6786:6805   */\n      swap1\n      pop\n        /* \"#utility.yul\":6591:6811   */\n      swap2\n      swap1\n      pop\n      jump\t// out\n        /* \"#utility.yul\":6817:7183   */\n    tag_269:\n        /* \"#utility.yul\":6959:6962   */\n      0x00\n        /* \"#utility.yul\":6980:7047   */\n      tag_271\n        /* \"#utility.yul\":7044:7046   */\n      0x13\n        /* \"#utility.yul\":7039:7042   */\n      dup4\n        /* \"#utility.yul\":6980:7047   */\n      tag_256\n      jump\t// in\n    tag_271:\n        /* \"#utility.yul\":6973:7047   */\n      swap2\n      pop\n        /* \"#utility.yul\":7056:7149   */\n      tag_272\n        /* \"#utility.yul\":7145:7148   */\n      dup3\n        /* \"#utility.yul\":7056:7149   */\n      tag_273\n      jump\t// in\n    tag_272:\n        /* \"#utility.yul\":7174:7176   */\n      0x20\n        /* \"#utility.yul\":7169:7172   */\n      dup3\n        /* \"#utility.yul\":7165:7177   */\n      add\n        /* \"#utility.yul\":7158:7177   */\n      swap1\n      pop\n        /* \"#utility.yul\":6963:7183   */\n      swap2\n      swap1\n      pop\n      jump\t// out\n        /* \"#utility.yul\":7189:7555   */\n    tag_274:\n        /* \"#utility.yul\":7331:7334   */\n      0x00\n        /* \"#utility.yul\":7352:7419   */\n      tag_276\n        /* \"#utility.yul\":7416:7418   */\n      0x14\n        /* \"#utility.yul\":7411:7414   */\n      dup4\n        /* \"#utility.yul\":7352:7419   */\n      tag_256\n      jump\t// in\n    tag_276:\n        /* \"#utility.yul\":7345:7419   */\n      swap2\n      pop\n        /* \"#utility.yul\":7428:7521   */\n      tag_277\n        /* \"#utility.yul\":7517:7520   */\n      dup3\n        /* \"#utility.yul\":7428:7521   */\n      tag_278\n      jump\t// in\n    tag_277:\n        /* \"#utility.yul\":7546:7548   */\n      0x20\n        /* \"#utility.yul\":7541:7544   */\n      dup3\n        /* \"#utility.yul\":7537:7549   */\n      add\n        /* \"#utility.yul\":7530:7549   */\n      swap1\n      pop\n        /* \"#utility.yul\":7335:7555   */\n      swap2\n      swap1\n      pop\n      jump\t// out\n        /* \"#utility.yul\":7561:7927   */\n    tag_279:\n        /* \"#utility.yul\":7703:7706   */\n      0x00\n        /* \"#utility.yul\":7724:7791   */\n      tag_281\n        /* \"#utility.yul\":7788:7790   */\n      0x15\n        /* \"#utility.yul\":7783:7786   */\n      dup4\n        /* \"#utility.yul\":7724:7791   */\n      tag_256\n      jump\t// in\n    tag_281:\n        /* \"#utility.yul\":7717:7791   */\n      swap2\n      pop\n        /* \"#utility.yul\":7800:7893   */\n      tag_282\n        /* \"#utility.yul\":7889:7892   */\n      dup3\n        /* \"#utility.yul\":7800:7893   */\n      tag_283\n      jump\t// in\n    tag_282:\n        /* \"#utility.yul\":7918:7920   */\n      0x20\n        /* \"#utility.yul\":7913:7916   */\n      dup3\n        /* \"#utility.yul\":7909:7921   */\n      add\n        /* \"#utility.yul\":7902:7921   */\n      swap1\n      pop\n        /* \"#utility.yul\":7707:7927   */\n      swap2\n      swap1\n      pop\n      jump\t// out\n        /* \"#utility.yul\":7933:8331   */\n    tag_284:\n        /* \"#utility.yul\":8092:8095   */\n      0x00\n        /* \"#utility.yul\":8113:8196   */\n      tag_286\n        /* \"#utility.yul\":8194:8195   */\n      0x00\n        /* \"#utility.yul\":8189:8192   */\n      dup4\n        /* \"#utility.yul\":8113:8196   */\n      tag_287\n      jump\t// in\n    tag_286:\n        /* \"#utility.yul\":8106:8196   */\n      swap2\n      pop\n        /* \"#utility.yul\":8205:8298   */\n      tag_288\n        /* \"#utility.yul\":8294:8297   */\n      dup3\n        /* \"#utility.yul\":8205:8298   */\n      tag_289\n      jump\t// in\n    tag_288:\n        /* \"#utility.yul\":8323:8324   */\n      0x00\n        /* \"#utility.yul\":8318:8321   */\n      dup3\n        /* \"#utility.yul\":8314:8325   */\n      add\n        /* \"#utility.yul\":8307:8325   */\n      swap1\n      pop\n        /* \"#utility.yul\":8096:8331   */\n      swap2\n      swap1\n      pop\n      jump\t// out\n        /* \"#utility.yul\":8337:8703   */\n    tag_290:\n        /* \"#utility.yul\":8479:8482   */\n      0x00\n        /* \"#utility.yul\":8500:8567   */\n      tag_292\n        /* \"#utility.yul\":8564:8566   */\n      0x14\n        /* \"#utility.yul\":8559:8562   */\n      dup4\n        /* \"#utility.yul\":8500:8567   */\n      tag_256\n      jump\t// in\n    tag_292:\n        /* \"#utility.yul\":8493:8567   */\n      swap2\n      pop\n        /* \"#utility.yul\":8576:8669   */\n      tag_293\n        /* \"#utility.yul\":8665:8668   */\n      dup3\n        /* \"#utility.yul\":8576:8669   */\n      tag_294\n      jump\t// in\n    tag_293:\n        /* \"#utility.yul\":8694:8696   */\n      0x20\n        /* \"#utility.yul\":8689:8692   */\n      dup3\n        /* \"#utility.yul\":8685:8697   */\n      add\n        /* \"#utility.yul\":8678:8697   */\n      swap1\n      pop\n        /* \"#utility.yul\":8483:8703   */\n      swap2\n      swap1\n      pop\n      jump\t// out\n        /* \"#utility.yul\":8709:9075   */\n    tag_295:\n        /* \"#utility.yul\":8851:8854   */\n      0x00\n        /* \"#utility.yul\":8872:8939   */\n      tag_297\n        /* \"#utility.yul\":8936:8938   */\n      0x0d\n        /* \"#utility.yul\":8931:8934   */\n      dup4\n        /* \"#utility.yul\":8872:8939   */\n      tag_256\n      jump\t// in\n    tag_297:\n        /* \"#utility.yul\":8865:8939   */\n      swap2\n      pop\n        /* \"#utility.yul\":8948:9041   */\n      tag_298\n        /* \"#utility.yul\":9037:9040   */\n      dup3\n        /* \"#utility.yul\":8948:9041   */\n      tag_299\n      jump\t// in\n    tag_298:\n        /* \"#utility.yul\":9066:9068   */\n      0x20\n        /* \"#utility.yul\":9061:9064   */\n      dup3\n        /* \"#utility.yul\":9057:9069   */\n      add\n        /* \"#utility.yul\":9050:9069   */\n      swap1\n      pop\n        /* \"#utility.yul\":8855:9075   */\n      swap2\n      swap1\n      pop\n      jump\t// out\n        /* \"#utility.yul\":9155:10027   */\n    tag_300:\n        /* \"#utility.yul\":9304:9308   */\n      0x80\n        /* \"#utility.yul\":9299:9302   */\n      dup3\n        /* \"#utility.yul\":9295:9309   */\n      add\n        /* \"#utility.yul\":9396:9400   */\n      0x00\n        /* \"#utility.yul\":9389:9394   */\n      dup3\n        /* \"#utility.yul\":9385:9401   */\n      add\n        /* \"#utility.yul\":9379:9402   */\n      mload\n        /* \"#utility.yul\":9415:9478   */\n      tag_302\n        /* \"#utility.yul\":9472:9476   */\n      0x00\n        /* \"#utility.yul\":9467:9470   */\n      dup6\n        /* \"#utility.yul\":9463:9477   */\n      add\n        /* \"#utility.yul\":9449:9461   */\n      dup3\n        /* \"#utility.yul\":9415:9478   */\n      tag_228\n      jump\t// in\n    tag_302:\n        /* \"#utility.yul\":9319:9488   */\n      pop\n        /* \"#utility.yul\":9574:9578   */\n      0x20\n        /* \"#utility.yul\":9567:9572   */\n      dup3\n        /* \"#utility.yul\":9563:9579   */\n      add\n        /* \"#utility.yul\":9557:9580   */\n      mload\n        /* \"#utility.yul\":9593:9656   */\n      tag_303\n        /* \"#utility.yul\":9650:9654   */\n      0x20\n        /* \"#utility.yul\":9645:9648   */\n      dup6\n        /* \"#utility.yul\":9641:9655   */\n      add\n        /* \"#utility.yul\":9627:9639   */\n      dup3\n        /* \"#utility.yul\":9593:9656   */\n      tag_228\n      jump\t// in\n    tag_303:\n        /* \"#utility.yul\":9498:9666   */\n      pop\n        /* \"#utility.yul\":9749:9753   */\n      0x40\n        /* \"#utility.yul\":9742:9747   */\n      dup3\n        /* \"#utility.yul\":9738:9754   */\n      add\n        /* \"#utility.yul\":9732:9755   */\n      mload\n        /* \"#utility.yul\":9768:9831   */\n      tag_304\n        /* \"#utility.yul\":9825:9829   */\n      0x40\n        /* \"#utility.yul\":9820:9823   */\n      dup6\n        /* \"#utility.yul\":9816:9830   */\n      add\n        /* \"#utility.yul\":9802:9814   */\n      dup3\n        /* \"#utility.yul\":9768:9831   */\n      tag_228\n      jump\t// in\n    tag_304:\n        /* \"#utility.yul\":9676:9841   */\n      pop\n        /* \"#utility.yul\":9928:9932   */\n      0x60\n        /* \"#utility.yul\":9921:9926   */\n      dup3\n        /* \"#utility.yul\":9917:9933   */\n      add\n        /* \"#utility.yul\":9911:9934   */\n      mload\n        /* \"#utility.yul\":9947:10010   */\n      tag_305\n        /* \"#utility.yul\":10004:10008   */\n      0x60\n        /* \"#utility.yul\":9999:10002   */\n      dup6\n        /* \"#utility.yul\":9995:10009   */\n      add\n        /* \"#utility.yul\":9981:9993   */\n      dup3\n        /* \"#utility.yul\":9947:10010   */\n      tag_306\n      jump\t// in\n    tag_305:\n        /* \"#utility.yul\":9851:10020   */\n      pop\n        /* \"#utility.yul\":9273:10027   */\n      pop\n      pop\n      pop\n      jump\t// out\n        /* \"#utility.yul\":10105:10621   */\n    tag_227:\n        /* \"#utility.yul\":10242:10246   */\n      0x40\n        /* \"#utility.yul\":10237:10240   */\n      dup3\n        /* \"#utility.yul\":10233:10247   */\n      add\n        /* \"#utility.yul\":10344:10348   */\n      0x00\n        /* \"#utility.yul\":10337:10342   */\n      dup3\n        /* \"#utility.yul\":10333:10349   */\n      add\n        /* \"#utility.yul\":10327:10350   */\n      mload\n        /* \"#utility.yul\":10363:10426   */\n      tag_308\n        /* \"#utility.yul\":10420:10424   */\n      0x00\n        /* \"#utility.yul\":10415:10418   */\n      dup6\n        /* \"#utility.yul\":10411:10425   */\n      add\n        /* \"#utility.yul\":10397:10409   */\n      dup3\n        /* \"#utility.yul\":10363:10426   */\n      tag_228\n      jump\t// in\n    tag_308:\n        /* \"#utility.yul\":10257:10436   */\n      pop\n        /* \"#utility.yul\":10522:10526   */\n      0x20\n        /* \"#utility.yul\":10515:10520   */\n      dup3\n        /* \"#utility.yul\":10511:10527   */\n      add\n        /* \"#utility.yul\":10505:10528   */\n      mload\n        /* \"#utility.yul\":10541:10604   */\n      tag_309\n        /* \"#utility.yul\":10598:10602   */\n      0x20\n        /* \"#utility.yul\":10593:10596   */\n      dup6\n        /* \"#utility.yul\":10589:10603   */\n      add\n        /* \"#utility.yul\":10575:10587   */\n      dup3\n        /* \"#utility.yul\":10541:10604   */\n      tag_306\n      jump\t// in\n    tag_309:\n        /* \"#utility.yul\":10446:10614   */\n      pop\n        /* \"#utility.yul\":10211:10621   */\n      pop\n      pop\n      pop\n      jump\t// out\n        /* \"#utility.yul\":10627:10735   */\n    tag_306:\n        /* \"#utility.yul\":10704:10728   */\n      tag_311\n        /* \"#utility.yul\":10722:10727   */\n      dup2\n        /* \"#utility.yul\":10704:10728   */\n      tag_312\n      jump\t// in\n    tag_311:\n        /* \"#utility.yul\":10699:10702   */\n      dup3\n        /* \"#utility.yul\":10692:10729   */\n      mstore\n        /* \"#utility.yul\":10682:10735   */\n      pop\n      pop\n      jump\t// out\n        /* \"#utility.yul\":10741:10859   */\n    tag_313:\n        /* \"#utility.yul\":10828:10852   */\n      tag_315\n        /* \"#utility.yul\":10846:10851   */\n      dup2\n        /* \"#utility.yul\":10828:10852   */\n      tag_312\n      jump\t// in\n    tag_315:\n        /* \"#utility.yul\":10823:10826   */\n      dup3\n        /* \"#utility.yul\":10816:10853   */\n      mstore\n        /* \"#utility.yul\":10806:10859   */\n      pop\n      pop\n      jump\t// out\n        /* \"#utility.yul\":10865:11244   */\n    tag_168:\n        /* \"#utility.yul\":11049:11052   */\n      0x00\n        /* \"#utility.yul\":11071:11218   */\n      tag_317\n        /* \"#utility.yul\":11214:11217   */\n      dup3\n        /* \"#utility.yul\":11071:11218   */\n      tag_284\n      jump\t// in\n    tag_317:\n        /* \"#utility.yul\":11064:11218   */\n      swap2\n      pop\n        /* \"#utility.yul\":11235:11238   */\n      dup2\n        /* \"#utility.yul\":11228:11238   */\n      swap1\n      pop\n        /* \"#utility.yul\":11053:11244   */\n      swap2\n      swap1\n      pop\n      jump\t// out\n        /* \"#utility.yul\":11250:11582   */\n    tag_87:\n        /* \"#utility.yul\":11371:11375   */\n      0x00\n        /* \"#utility.yul\":11409:11411   */\n      0x40\n        /* \"#utility.yul\":11398:11407   */\n      dup3\n        /* \"#utility.yul\":11394:11412   */\n      add\n        /* \"#utility.yul\":11386:11412   */\n      swap1\n      pop\n        /* \"#utility.yul\":11422:11493   */\n      tag_319\n        /* \"#utility.yul\":11490:11491   */\n      0x00\n        /* \"#utility.yul\":11479:11488   */\n      dup4\n        /* \"#utility.yul\":11475:11492   */\n      add\n        /* \"#utility.yul\":11466:11472   */\n      dup6\n        /* \"#utility.yul\":11422:11493   */\n      tag_232\n      jump\t// in\n    tag_319:\n        /* \"#utility.yul\":11503:11575   */\n      tag_320\n        /* \"#utility.yul\":11571:11573   */\n      0x20\n        /* \"#utility.yul\":11560:11569   */\n      dup4\n        /* \"#utility.yul\":11556:11574   */\n      add\n        /* \"#utility.yul\":11547:11553   */\n      dup5\n        /* \"#utility.yul\":11503:11575   */\n      tag_232\n      jump\t// in\n    tag_320:\n        /* \"#utility.yul\":11376:11582   */\n      swap4\n      swap3\n      pop\n      pop\n      pop\n      jump\t// out\n        /* \"#utility.yul\":11588:12363   */\n    tag_107:\n        /* \"#utility.yul\":11821:11825   */\n      0x00\n        /* \"#utility.yul\":11859:11862   */\n      0xc0\n        /* \"#utility.yul\":11848:11857   */\n      dup3\n        /* \"#utility.yul\":11844:11863   */\n      add\n        /* \"#utility.yul\":11836:11863   */\n      swap1\n      pop\n        /* \"#utility.yul\":11873:11944   */\n      tag_322\n        /* \"#utility.yul\":11941:11942   */\n      0x00\n        /* \"#utility.yul\":11930:11939   */\n      dup4\n        /* \"#utility.yul\":11926:11943   */\n      add\n        /* \"#utility.yul\":11917:11923   */\n      dup10\n        /* \"#utility.yul\":11873:11944   */\n      tag_232\n      jump\t// in\n    tag_322:\n        /* \"#utility.yul\":11954:12026   */\n      tag_323\n        /* \"#utility.yul\":12022:12024   */\n      0x20\n        /* \"#utility.yul\":12011:12020   */\n      dup4\n        /* \"#utility.yul\":12007:12025   */\n      add\n        /* \"#utility.yul\":11998:12004   */\n      dup9\n        /* \"#utility.yul\":11954:12026   */\n      tag_232\n      jump\t// in\n    tag_323:\n        /* \"#utility.yul\":12036:12108   */\n      tag_324\n        /* \"#utility.yul\":12104:12106   */\n      0x40\n        /* \"#utility.yul\":12093:12102   */\n      dup4\n        /* \"#utility.yul\":12089:12107   */\n      add\n        /* \"#utility.yul\":12080:12086   */\n      dup8\n        /* \"#utility.yul\":12036:12108   */\n      tag_232\n      jump\t// in\n    tag_324:\n        /* \"#utility.yul\":12118:12190   */\n      tag_325\n        /* \"#utility.yul\":12186:12188   */\n      0x60\n        /* \"#utility.yul\":12175:12184   */\n      dup4\n        /* \"#utility.yul\":12171:12189   */\n      add\n        /* \"#utility.yul\":12162:12168   */\n      dup7\n        /* \"#utility.yul\":12118:12190   */\n      tag_313\n      jump\t// in\n    tag_325:\n        /* \"#utility.yul\":12200:12273   */\n      tag_326\n        /* \"#utility.yul\":12268:12271   */\n      0x80\n        /* \"#utility.yul\":12257:12266   */\n      dup4\n        /* \"#utility.yul\":12253:12272   */\n      add\n        /* \"#utility.yul\":12244:12250   */\n      dup6\n        /* \"#utility.yul\":12200:12273   */\n      tag_313\n      jump\t// in\n    tag_326:\n        /* \"#utility.yul\":12283:12356   */\n      tag_327\n        /* \"#utility.yul\":12351:12354   */\n      0xa0\n        /* \"#utility.yul\":12340:12349   */\n      dup4\n        /* \"#utility.yul\":12336:12355   */\n      add\n        /* \"#utility.yul\":12327:12333   */\n      dup5\n        /* \"#utility.yul\":12283:12356   */\n      tag_313\n      jump\t// in\n    tag_327:\n        /* \"#utility.yul\":11826:12363   */\n      swap8\n      swap7\n      pop\n      pop\n      pop\n      pop\n      pop\n      pop\n      pop\n      jump\t// out\n        /* \"#utility.yul\":12369:12811   */\n    tag_102:\n        /* \"#utility.yul\":12518:12522   */\n      0x00\n        /* \"#utility.yul\":12556:12558   */\n      0x60\n        /* \"#utility.yul\":12545:12554   */\n      dup3\n        /* \"#utility.yul\":12541:12559   */\n      add\n        /* \"#utility.yul\":12533:12559   */\n      swap1\n      pop\n        /* \"#utility.yul\":12569:12640   */\n      tag_329\n        /* \"#utility.yul\":12637:12638   */\n      0x00\n        /* \"#utility.yul\":12626:12635   */\n      dup4\n        /* \"#utility.yul\":12622:12639   */\n      add\n        /* \"#utility.yul\":12613:12619   */\n      dup7\n        /* \"#utility.yul\":12569:12640   */\n      tag_232\n      jump\t// in\n    tag_329:\n        /* \"#utility.yul\":12650:12722   */\n      tag_330\n        /* \"#utility.yul\":12718:12720   */\n      0x20\n        /* \"#utility.yul\":12707:12716   */\n      dup4\n        /* \"#utility.yul\":12703:12721   */\n      add\n        /* \"#utility.yul\":12694:12700   */\n      dup6\n        /* \"#utility.yul\":12650:12722   */\n      tag_232\n      jump\t// in\n    tag_330:\n        /* \"#utility.yul\":12732:12804   */\n      tag_331\n        /* \"#utility.yul\":12800:12802   */\n      0x40\n        /* \"#utility.yul\":12789:12798   */\n      dup4\n        /* \"#utility.yul\":12785:12803   */\n      add\n        /* \"#utility.yul\":12776:12782   */\n      dup5\n        /* \"#utility.yul\":12732:12804   */\n      tag_313\n      jump\t// in\n    tag_331:\n        /* \"#utility.yul\":12523:12811   */\n      swap5\n      swap4\n      pop\n      pop\n      pop\n      pop\n      jump\t// out\n        /* \"#utility.yul\":12817:13370   */\n    tag_135:\n        /* \"#utility.yul\":12994:12998   */\n      0x00\n        /* \"#utility.yul\":13032:13035   */\n      0x80\n        /* \"#utility.yul\":13021:13030   */\n      dup3\n        /* \"#utility.yul\":13017:13036   */\n      add\n        /* \"#utility.yul\":13009:13036   */\n      swap1\n      pop\n        /* \"#utility.yul\":13046:13117   */\n      tag_333\n        /* \"#utility.yul\":13114:13115   */\n      0x00\n        /* \"#utility.yul\":13103:13112   */\n      dup4\n        /* \"#utility.yul\":13099:13116   */\n      add\n        /* \"#utility.yul\":13090:13096   */\n      dup8\n        /* \"#utility.yul\":13046:13117   */\n      tag_232\n      jump\t// in\n    tag_333:\n        /* \"#utility.yul\":13127:13199   */\n      tag_334\n        /* \"#utility.yul\":13195:13197   */\n      0x20\n        /* \"#utility.yul\":13184:13193   */\n      dup4\n        /* \"#utility.yul\":13180:13198   */\n      add\n        /* \"#utility.yul\":13171:13177   */\n      dup7\n        /* \"#utility.yul\":13127:13199   */\n      tag_232\n      jump\t// in\n    tag_334:\n        /* \"#utility.yul\":13209:13281   */\n      tag_335\n        /* \"#utility.yul\":13277:13279   */\n      0x40\n        /* \"#utility.yul\":13266:13275   */\n      dup4\n        /* \"#utility.yul\":13262:13280   */\n      add\n        /* \"#utility.yul\":13253:13259   */\n      dup6\n        /* \"#utility.yul\":13209:13281   */\n      tag_313\n      jump\t// in\n    tag_335:\n        /* \"#utility.yul\":13291:13363   */\n      tag_336\n        /* \"#utility.yul\":13359:13361   */\n      0x60\n        /* \"#utility.yul\":13348:13357   */\n      dup4\n        /* \"#utility.yul\":13344:13362   */\n      add\n        /* \"#utility.yul\":13335:13341   */\n      dup5\n        /* \"#utility.yul\":13291:13363   */\n      tag_313\n      jump\t// in\n    tag_336:\n        /* \"#utility.yul\":12999:13370   */\n      swap6\n      swap5\n      pop\n      pop\n      pop\n      pop\n      pop\n      jump\t// out\n        /* \"#utility.yul\":13376:13818   */\n    tag_71:\n        /* \"#utility.yul\":13525:13529   */\n      0x00\n        /* \"#utility.yul\":13563:13565   */\n      0x60\n        /* \"#utility.yul\":13552:13561   */\n      dup3\n        /* \"#utility.yul\":13548:13566   */\n      add\n        /* \"#utility.yul\":13540:13566   */\n      swap1\n      pop\n        /* \"#utility.yul\":13576:13647   */\n      tag_338\n        /* \"#utility.yul\":13644:13645   */\n      0x00\n        /* \"#utility.yul\":13633:13642   */\n      dup4\n        /* \"#utility.yul\":13629:13646   */\n      add\n        /* \"#utility.yul\":13620:13626   */\n      dup7\n        /* \"#utility.yul\":13576:13647   */\n      tag_232\n      jump\t// in\n    tag_338:\n        /* \"#utility.yul\":13657:13729   */\n      tag_339\n        /* \"#utility.yul\":13725:13727   */\n      0x20\n        /* \"#utility.yul\":13714:13723   */\n      dup4\n        /* \"#utility.yul\":13710:13728   */\n      add\n        /* \"#utility.yul\":13701:13707   */\n      dup6\n        /* \"#utility.yul\":13657:13729   */\n      tag_313\n      jump\t// in\n    tag_339:\n        /* \"#utility.yul\":13739:13811   */\n      tag_340\n        /* \"#utility.yul\":13807:13809   */\n      0x40\n        /* \"#utility.yul\":13796:13805   */\n      dup4\n        /* \"#utility.yul\":13792:13810   */\n      add\n        /* \"#utility.yul\":13783:13789   */\n      dup5\n        /* \"#utility.yul\":13739:13811   */\n      tag_313\n      jump\t// in\n    tag_340:\n        /* \"#utility.yul\":13530:13818   */\n      swap5\n      swap4\n      pop\n      pop\n      pop\n      pop\n      jump\t// out\n        /* \"#utility.yul\":13824:14297   */\n    tag_48:\n        /* \"#utility.yul\":14017:14021   */\n      0x00\n        /* \"#utility.yul\":14055:14057   */\n      0x20\n        /* \"#utility.yul\":14044:14053   */\n      dup3\n        /* \"#utility.yul\":14040:14058   */\n      add\n        /* \"#utility.yul\":14032:14058   */\n      swap1\n      pop\n        /* \"#utility.yul\":14104:14113   */\n      dup2\n        /* \"#utility.yul\":14098:14102   */\n      dup2\n        /* \"#utility.yul\":14094:14114   */\n      sub\n        /* \"#utility.yul\":14090:14091   */\n      0x00\n        /* \"#utility.yul\":14079:14088   */\n      dup4\n        /* \"#utility.yul\":14075:14092   */\n      add\n        /* \"#utility.yul\":14068:14115   */\n      mstore\n        /* \"#utility.yul\":14132:14290   */\n      tag_342\n        /* \"#utility.yul\":14285:14289   */\n      dup2\n        /* \"#utility.yul\":14276:14282   */\n      dup5\n        /* \"#utility.yul\":14132:14290   */\n      tag_235\n      jump\t// in\n    tag_342:\n        /* \"#utility.yul\":14124:14290   */\n      swap1\n      pop\n        /* \"#utility.yul\":14022:14297   */\n      swap3\n      swap2\n      pop\n      pop\n      jump\t// out\n        /* \"#utility.yul\":14303:14521   */\n    tag_20:\n        /* \"#utility.yul\":14394:14398   */\n      0x00\n        /* \"#utility.yul\":14432:14434   */\n      0x20\n        /* \"#utility.yul\":14421:14430   */\n      dup3\n        /* \"#utility.yul\":14417:14435   */\n      add\n        /* \"#utility.yul\":14409:14435   */\n      swap1\n      pop\n        /* \"#utility.yul\":14445:14514   */\n      tag_344\n        /* \"#utility.yul\":14511:14512   */\n      0x00\n        /* \"#utility.yul\":14500:14509   */\n      dup4\n        /* \"#utility.yul\":14496:14513   */\n      add\n        /* \"#utility.yul\":14487:14493   */\n      dup5\n        /* \"#utility.yul\":14445:14514   */\n      tag_249\n      jump\t// in\n    tag_344:\n        /* \"#utility.yul\":14399:14521   */\n      swap3\n      swap2\n      pop\n      pop\n      jump\t// out\n        /* \"#utility.yul\":14527:14946   */\n    tag_95:\n        /* \"#utility.yul\":14693:14697   */\n      0x00\n        /* \"#utility.yul\":14731:14733   */\n      0x20\n        /* \"#utility.yul\":14720:14729   */\n      dup3\n        /* \"#utility.yul\":14716:14734   */\n      add\n        /* \"#utility.yul\":14708:14734   */\n      swap1\n      pop\n        /* \"#utility.yul\":14780:14789   */\n      dup2\n        /* \"#utility.yul\":14774:14778   */\n      dup2\n        /* \"#utility.yul\":14770:14790   */\n      sub\n        /* \"#utility.yul\":14766:14767   */\n      0x00\n        /* \"#utility.yul\":14755:14764   */\n      dup4\n        /* \"#utility.yul\":14751:14768   */\n      add\n        /* \"#utility.yul\":14744:14791   */\n      mstore\n        /* \"#utility.yul\":14808:14939   */\n      tag_346\n        /* \"#utility.yul\":14934:14938   */\n      dup2\n        /* \"#utility.yul\":14808:14939   */\n      tag_253\n      jump\t// in\n    tag_346:\n        /* \"#utility.yul\":14800:14939   */\n      swap1\n      pop\n        /* \"#utility.yul\":14698:14946   */\n      swap2\n      swap1\n      pop\n      jump\t// out\n        /* \"#utility.yul\":14952:15371   */\n    tag_68:\n        /* \"#utility.yul\":15118:15122   */\n      0x00\n        /* \"#utility.yul\":15156:15158   */\n      0x20\n        /* \"#utility.yul\":15145:15154   */\n      dup3\n        /* \"#utility.yul\":15141:15159   */\n      add\n        /* \"#utility.yul\":15133:15159   */\n      swap1\n      pop\n        /* \"#utility.yul\":15205:15214   */\n      dup2\n        /* \"#utility.yul\":15199:15203   */\n      dup2\n        /* \"#utility.yul\":15195:15215   */\n      sub\n        /* \"#utility.yul\":15191:15192   */\n      0x00\n        /* \"#utility.yul\":15180:15189   */\n      dup4\n        /* \"#utility.yul\":15176:15193   */\n      add\n        /* \"#utility.yul\":15169:15216   */\n      mstore\n        /* \"#utility.yul\":15233:15364   */\n      tag_348\n        /* \"#utility.yul\":15359:15363   */\n      dup2\n        /* \"#utility.yul\":15233:15364   */\n      tag_259\n      jump\t// in\n    tag_348:\n        /* \"#utility.yul\":15225:15364   */\n      swap1\n      pop\n        /* \"#utility.yul\":15123:15371   */\n      swap2\n      swap1\n      pop\n      jump\t// out\n        /* \"#utility.yul\":15377:15796   */\n    tag_60:\n        /* \"#utility.yul\":15543:15547   */\n      0x00\n        /* \"#utility.yul\":15581:15583   */\n      0x20\n        /* \"#utility.yul\":15570:15579   */\n      dup3\n        /* \"#utility.yul\":15566:15584   */\n      add\n        /* \"#utility.yul\":15558:15584   */\n      swap1\n      pop\n        /* \"#utility.yul\":15630:15639   */\n      dup2\n        /* \"#utility.yul\":15624:15628   */\n      dup2\n        /* \"#utility.yul\":15620:15640   */\n      sub\n        /* \"#utility.yul\":15616:15617   */\n      0x00\n        /* \"#utility.yul\":15605:15614   */\n      dup4\n        /* \"#utility.yul\":15601:15618   */\n      add\n        /* \"#utility.yul\":15594:15641   */\n      mstore\n        /* \"#utility.yul\":15658:15789   */\n      tag_350\n        /* \"#utility.yul\":15784:15788   */\n      dup2\n        /* \"#utility.yul\":15658:15789   */\n      tag_264\n      jump\t// in\n    tag_350:\n        /* \"#utility.yul\":15650:15789   */\n      swap1\n      pop\n        /* \"#utility.yul\":15548:15796   */\n      swap2\n      swap1\n      pop\n      jump\t// out\n        /* \"#utility.yul\":15802:16221   */\n    tag_84:\n        /* \"#utility.yul\":15968:15972   */\n      0x00\n        /* \"#utility.yul\":16006:16008   */\n      0x20\n        /* \"#utility.yul\":15995:16004   */\n      dup3\n        /* \"#utility.yul\":15991:16009   */\n      add\n        /* \"#utility.yul\":15983:16009   */\n      swap1\n      pop\n        /* \"#utility.yul\":16055:16064   */\n      dup2\n        /* \"#utility.yul\":16049:16053   */\n      dup2\n        /* \"#utility.yul\":16045:16065   */\n      sub\n        /* \"#utility.yul\":16041:16042   */\n      0x00\n        /* \"#utility.yul\":16030:16039   */\n      dup4\n        /* \"#utility.yul\":16026:16043   */\n      add\n        /* \"#utility.yul\":16019:16066   */\n      mstore\n        /* \"#utility.yul\":16083:16214   */\n      tag_352\n        /* \"#utility.yul\":16209:16213   */\n      dup2\n        /* \"#utility.yul\":16083:16214   */\n      tag_269\n      jump\t// in\n    tag_352:\n        /* \"#utility.yul\":16075:16214   */\n      swap1\n      pop\n        /* \"#utility.yul\":15973:16221   */\n      swap2\n      swap1\n      pop\n      jump\t// out\n        /* \"#utility.yul\":16227:16646   */\n    tag_165:\n        /* \"#utility.yul\":16393:16397   */\n      0x00\n        /* \"#utility.yul\":16431:16433   */\n      0x20\n        /* \"#utility.yul\":16420:16429   */\n      dup3\n        /* \"#utility.yul\":16416:16434   */\n      add\n        /* \"#utility.yul\":16408:16434   */\n      swap1\n      pop\n        /* \"#utility.yul\":16480:16489   */\n      dup2\n        /* \"#utility.yul\":16474:16478   */\n      dup2\n        /* \"#utility.yul\":16470:16490   */\n      sub\n        /* \"#utility.yul\":16466:16467   */\n      0x00\n        /* \"#utility.yul\":16455:16464   */\n      dup4\n        /* \"#utility.yul\":16451:16468   */\n      add\n        /* \"#utility.yul\":16444:16491   */\n      mstore\n        /* \"#utility.yul\":16508:16639   */\n      tag_354\n        /* \"#utility.yul\":16634:16638   */\n      dup2\n        /* \"#utility.yul\":16508:16639   */\n      tag_274\n      jump\t// in\n    tag_354:\n        /* \"#utility.yul\":16500:16639   */\n      swap1\n      pop\n        /* \"#utility.yul\":16398:16646   */\n      swap2\n      swap1\n      pop\n      jump\t// out\n        /* \"#utility.yul\":16652:17071   */\n    tag_64:\n        /* \"#utility.yul\":16818:16822   */\n      0x00\n        /* \"#utility.yul\":16856:16858   */\n      0x20\n        /* \"#utility.yul\":16845:16854   */\n      dup3\n        /* \"#utility.yul\":16841:16859   */\n      add\n        /* \"#utility.yul\":16833:16859   */\n      swap1\n      pop\n        /* \"#utility.yul\":16905:16914   */\n      dup2\n        /* \"#utility.yul\":16899:16903   */\n      dup2\n        /* \"#utility.yul\":16895:16915   */\n      sub\n        /* \"#utility.yul\":16891:16892   */\n      0x00\n        /* \"#utility.yul\":16880:16889   */\n      dup4\n        /* \"#utility.yul\":16876:16893   */\n      add\n        /* \"#utility.yul\":16869:16916   */\n      mstore\n        /* \"#utility.yul\":16933:17064   */\n      tag_356\n        /* \"#utility.yul\":17059:17063   */\n      dup2\n        /* \"#utility.yul\":16933:17064   */\n      tag_279\n      jump\t// in\n    tag_356:\n        /* \"#utility.yul\":16925:17064   */\n      swap1\n      pop\n        /* \"#utility.yul\":16823:17071   */\n      swap2\n      swap1\n      pop\n      jump\t// out\n        /* \"#utility.yul\":17077:17496   */\n    tag_124:\n        /* \"#utility.yul\":17243:17247   */\n      0x00\n        /* \"#utility.yul\":17281:17283   */\n      0x20\n        /* \"#utility.yul\":17270:17279   */\n      dup3\n        /* \"#utility.yul\":17266:17284   */\n      add\n        /* \"#utility.yul\":17258:17284   */\n      swap1\n      pop\n        /* \"#utility.yul\":17330:17339   */\n      dup2\n        /* \"#utility.yul\":17324:17328   */\n      dup2\n        /* \"#utility.yul\":17320:17340   */\n      sub\n        /* \"#utility.yul\":17316:17317   */\n      0x00\n        /* \"#utility.yul\":17305:17314   */\n      dup4\n        /* \"#utility.yul\":17301:17318   */\n      add\n        /* \"#utility.yul\":17294:17341   */\n      mstore\n        /* \"#utility.yul\":17358:17489   */\n      tag_358\n        /* \"#utility.yul\":17484:17488   */\n      dup2\n        /* \"#utility.yul\":17358:17489   */\n      tag_290\n      jump\t// in\n    tag_358:\n        /* \"#utility.yul\":17350:17489   */\n      swap1\n      pop\n        /* \"#utility.yul\":17248:17496   */\n      swap2\n      swap1\n      pop\n      jump\t// out\n        /* \"#utility.yul\":17502:17921   */\n    tag_174:\n        /* \"#utility.yul\":17668:17672   */\n      0x00\n        /* \"#utility.yul\":17706:17708   */\n      0x20\n        /* \"#utility.yul\":17695:17704   */\n      dup3\n        /* \"#utility.yul\":17691:17709   */\n      add\n        /* \"#utility.yul\":17683:17709   */\n      swap1\n      pop\n        /* \"#utility.yul\":17755:17764   */\n      dup2\n        /* \"#utility.yul\":17749:17753   */\n      dup2\n        /* \"#utility.yul\":17745:17765   */\n      sub\n        /* \"#utility.yul\":17741:17742   */\n      0x00\n        /* \"#utility.yul\":17730:17739   */\n      dup4\n        /* \"#utility.yul\":17726:17743   */\n      add\n        /* \"#utility.yul\":17719:17766   */\n      mstore\n        /* \"#utility.yul\":17783:17914   */\n      tag_360\n        /* \"#utility.yul\":17909:17913   */\n      dup2\n        /* \"#utility.yul\":17783:17914   */\n      tag_295\n      jump\t// in\n    tag_360:\n        /* \"#utility.yul\":17775:17914   */\n      swap1\n      pop\n        /* \"#utility.yul\":17673:17921   */\n      swap2\n      swap1\n      pop\n      jump\t// out\n        /* \"#utility.yul\":17927:18254   */\n    tag_43:\n        /* \"#utility.yul\":18072:18076   */\n      0x00\n        /* \"#utility.yul\":18110:18113   */\n      0x80\n        /* \"#utility.yul\":18099:18108   */\n      dup3\n        /* \"#utility.yul\":18095:18114   */\n      add\n        /* \"#utility.yul\":18087:18114   */\n      swap1\n      pop\n        /* \"#utility.yul\":18124:18247   */\n      tag_362\n        /* \"#utility.yul\":18244:18245   */\n      0x00\n        /* \"#utility.yul\":18233:18242   */\n      dup4\n        /* \"#utility.yul\":18229:18246   */\n      add\n        /* \"#utility.yul\":18220:18226   */\n      dup5\n        /* \"#utility.yul\":18124:18247   */\n      tag_300\n      jump\t// in\n    tag_362:\n        /* \"#utility.yul\":18077:18254   */\n      swap3\n      swap2\n      pop\n      pop\n      jump\t// out\n        /* \"#utility.yul\":18260:18482   */\n    tag_32:\n        /* \"#utility.yul\":18353:18357   */\n      0x00\n        /* \"#utility.yul\":18391:18393   */\n      0x20\n        /* \"#utility.yul\":18380:18389   */\n      dup3\n        /* \"#utility.yul\":18376:18394   */\n      add\n        /* \"#utility.yul\":18368:18394   */\n      swap1\n      pop\n        /* \"#utility.yul\":18404:18475   */\n      tag_364\n        /* \"#utility.yul\":18472:18473   */\n      0x00\n        /* \"#utility.yul\":18461:18470   */\n      dup4\n        /* \"#utility.yul\":18457:18474   */\n      add\n        /* \"#utility.yul\":18448:18454   */\n      dup5\n        /* \"#utility.yul\":18404:18475   */\n      tag_313\n      jump\t// in\n    tag_364:\n        /* \"#utility.yul\":18358:18482   */\n      swap3\n      swap2\n      pop\n      pop\n      jump\t// out\n        /* \"#utility.yul\":18488:18645   */\n    tag_242:\n        /* \"#utility.yul\":18580:18584   */\n      0x00\n        /* \"#utility.yul\":18603:18606   */\n      dup2\n        /* \"#utility.yul\":18595:18606   */\n      swap1\n      pop\n        /* \"#utility.yul\":18633:18637   */\n      0x20\n        /* \"#utility.yul\":18628:18631   */\n      dup3\n        /* \"#utility.yul\":18624:18638   */\n      add\n        /* \"#utility.yul\":18616:18638   */\n      swap1\n      pop\n        /* \"#utility.yul\":18585:18645   */\n      swap2\n      swap1\n      pop\n      jump\t// out\n        /* \"#utility.yul\":18651:18790   */\n    tag_238:\n        /* \"#utility.yul\":18743:18749   */\n      0x00\n        /* \"#utility.yul\":18777:18782   */\n      dup2\n        /* \"#utility.yul\":18771:18783   */\n      mload\n        /* \"#utility.yul\":18761:18783   */\n      swap1\n      pop\n        /* \"#utility.yul\":18750:18790   */\n      swap2\n      swap1\n      pop\n      jump\t// out\n        /* \"#utility.yul\":18796:18934   */\n    tag_248:\n        /* \"#utility.yul\":18891:18895   */\n      0x00\n        /* \"#utility.yul\":18923:18927   */\n      0x20\n        /* \"#utility.yul\":18918:18921   */\n      dup3\n        /* \"#utility.yul\":18914:18928   */\n      add\n        /* \"#utility.yul\":18906:18928   */\n      swap1\n      pop\n        /* \"#utility.yul\":18896:18934   */\n      swap2\n      swap1\n      pop\n      jump\t// out\n        /* \"#utility.yul\":18940:19149   */\n    tag_240:\n        /* \"#utility.yul\":19064:19075   */\n      0x00\n        /* \"#utility.yul\":19098:19104   */\n      dup3\n        /* \"#utility.yul\":19093:19096   */\n      dup3\n        /* \"#utility.yul\":19086:19105   */\n      mstore\n        /* \"#utility.yul\":19138:19142   */\n      0x20\n        /* \"#utility.yul\":19133:19136   */\n      dup3\n        /* \"#utility.yul\":19129:19143   */\n      add\n        /* \"#utility.yul\":19114:19143   */\n      swap1\n      pop\n        /* \"#utility.yul\":19076:19149   */\n      swap3\n      swap2\n      pop\n      pop\n      jump\t// out\n        /* \"#utility.yul\":19155:19302   */\n    tag_287:\n        /* \"#utility.yul\":19256:19267   */\n      0x00\n        /* \"#utility.yul\":19293:19296   */\n      dup2\n        /* \"#utility.yul\":19278:19296   */\n      swap1\n      pop\n        /* \"#utility.yul\":19268:19302   */\n      swap3\n      swap2\n      pop\n      pop\n      jump\t// out\n        /* \"#utility.yul\":19308:19477   */\n    tag_256:\n        /* \"#utility.yul\":19392:19403   */\n      0x00\n        /* \"#utility.yul\":19426:19432   */\n      dup3\n        /* \"#utility.yul\":19421:19424   */\n      dup3\n        /* \"#utility.yul\":19414:19433   */\n      mstore\n        /* \"#utility.yul\":19466:19470   */\n      0x20\n        /* \"#utility.yul\":19461:19464   */\n      dup3\n        /* \"#utility.yul\":19457:19471   */\n      add\n        /* \"#utility.yul\":19442:19471   */\n      swap1\n      pop\n        /* \"#utility.yul\":19404:19477   */\n      swap3\n      swap2\n      pop\n      pop\n      jump\t// out\n        /* \"#utility.yul\":19483:19579   */\n    tag_231:\n        /* \"#utility.yul\":19520:19527   */\n      0x00\n        /* \"#utility.yul\":19549:19573   */\n      tag_372\n        /* \"#utility.yul\":19567:19572   */\n      dup3\n        /* \"#utility.yul\":19549:19573   */\n      tag_373\n      jump\t// in\n    tag_372:\n        /* \"#utility.yul\":19538:19573   */\n      swap1\n      pop\n        /* \"#utility.yul\":19528:19579   */\n      swap2\n      swap1\n      pop\n      jump\t// out\n        /* \"#utility.yul\":19585:19675   */\n    tag_374:\n        /* \"#utility.yul\":19619:19626   */\n      0x00\n        /* \"#utility.yul\":19662:19667   */\n      dup2\n        /* \"#utility.yul\":19655:19668   */\n      iszero\n        /* \"#utility.yul\":19648:19669   */\n      iszero\n        /* \"#utility.yul\":19637:19669   */\n      swap1\n      pop\n        /* \"#utility.yul\":19627:19675   */\n      swap2\n      swap1\n      pop\n      jump\t// out\n        /* \"#utility.yul\":19681:19830   */\n    tag_252:\n        /* \"#utility.yul\":19717:19724   */\n      0x00\n        /* \"#utility.yul\":19757:19823   */\n      0xffffffff00000000000000000000000000000000000000000000000000000000\n        /* \"#utility.yul\":19750:19755   */\n      dup3\n        /* \"#utility.yul\":19746:19824   */\n      and\n        /* \"#utility.yul\":19735:19824   */\n      swap1\n      pop\n        /* \"#utility.yul\":19725:19830   */\n      swap2\n      swap1\n      pop\n      jump\t// out\n        /* \"#utility.yul\":19836:19962   */\n    tag_373:\n        /* \"#utility.yul\":19873:19880   */\n      0x00\n        /* \"#utility.yul\":19913:19955   */\n      0xffffffffffffffffffffffffffffffffffffffff\n        /* \"#utility.yul\":19906:19911   */\n      dup3\n        /* \"#utility.yul\":19902:19956   */\n      and\n        /* \"#utility.yul\":19891:19956   */\n      swap1\n      pop\n        /* \"#utility.yul\":19881:19962   */\n      swap2\n      swap1\n      pop\n      jump\t// out\n        /* \"#utility.yul\":19968:20045   */\n    tag_312:\n        /* \"#utility.yul\":20005:20012   */\n      0x00\n        /* \"#utility.yul\":20034:20039   */\n      dup2\n        /* \"#utility.yul\":20023:20039   */\n      swap1\n      pop\n        /* \"#utility.yul\":20013:20045   */\n      swap2\n      swap1\n      pop\n      jump\t// out\n        /* \"#utility.yul\":20051:20229   */\n    tag_258:\n        /* \"#utility.yul\":20191:20221   */\n      0x4e6674206e6f7420617070726f76656420746f20636f6e747261637400000000\n        /* \"#utility.yul\":20187:20188   */\n      0x00\n        /* \"#utility.yul\":20179:20185   */\n      dup3\n        /* \"#utility.yul\":20175:20189   */\n      add\n        /* \"#utility.yul\":20168:20222   */\n      mstore\n        /* \"#utility.yul\":20157:20229   */\n      pop\n      jump\t// out\n        /* \"#utility.yul\":20235:20402   */\n    tag_263:\n        /* \"#utility.yul\":20375:20394   */\n      0x50726963652063616e6e6f742062652030000000000000000000000000000000\n        /* \"#utility.yul\":20371:20372   */\n      0x00\n        /* \"#utility.yul\":20363:20369   */\n      dup3\n        /* \"#utility.yul\":20359:20373   */\n      add\n        /* \"#utility.yul\":20352:20395   */\n      mstore\n        /* \"#utility.yul\":20341:20402   */\n      pop\n      jump\t// out\n        /* \"#utility.yul\":20408:20579   */\n    tag_268:\n        /* \"#utility.yul\":20548:20571   */\n      0x4e6674206e6f7420696e2066697865642073616c650000000000000000000000\n        /* \"#utility.yul\":20544:20545   */\n      0x00\n        /* \"#utility.yul\":20536:20542   */\n      dup3\n        /* \"#utility.yul\":20532:20546   */\n      add\n        /* \"#utility.yul\":20525:20572   */\n      mstore\n        /* \"#utility.yul\":20514:20579   */\n      pop\n      jump\t// out\n        /* \"#utility.yul\":20585:20754   */\n    tag_273:\n        /* \"#utility.yul\":20725:20746   */\n      0x4e667420616c726561647920696e2073616c6500000000000000000000000000\n        /* \"#utility.yul\":20721:20722   */\n      0x00\n        /* \"#utility.yul\":20713:20719   */\n      dup3\n        /* \"#utility.yul\":20709:20723   */\n      add\n        /* \"#utility.yul\":20702:20747   */\n      mstore\n        /* \"#utility.yul\":20691:20754   */\n      pop\n      jump\t// out\n        /* \"#utility.yul\":20760:20930   */\n    tag_278:\n        /* \"#utility.yul\":20900:20922   */\n      0x616c6c6f77616e6365206e6f7420656e6f756768000000000000000000000000\n        /* \"#utility.yul\":20896:20897   */\n      0x00\n        /* \"#utility.yul\":20888:20894   */\n      dup3\n        /* \"#utility.yul\":20884:20898   */\n      add\n        /* \"#utility.yul\":20877:20923   */\n      mstore\n        /* \"#utility.yul\":20866:20930   */\n      pop\n      jump\t// out\n        /* \"#utility.yul\":20936:21107   */\n    tag_283:\n        /* \"#utility.yul\":21076:21099   */\n      0x596f7520617265206e6f74206e6674206f776e65720000000000000000000000\n        /* \"#utility.yul\":21072:21073   */\n      0x00\n        /* \"#utility.yul\":21064:21070   */\n      dup3\n        /* \"#utility.yul\":21060:21074   */\n      add\n        /* \"#utility.yul\":21053:21100   */\n      mstore\n        /* \"#utility.yul\":21042:21107   */\n      pop\n      jump\t// out\n        /* \"#utility.yul\":21113:21227   */\n    tag_289:\n        /* \"#utility.yul\":21219:21227   */\n      pop\n      jump\t// out\n        /* \"#utility.yul\":21233:21403   */\n    tag_294:\n        /* \"#utility.yul\":21373:21395   */\n      0x627579205072696365206e6f7420656e6f756768000000000000000000000000\n        /* \"#utility.yul\":21369:21370   */\n      0x00\n        /* \"#utility.yul\":21361:21367   */\n      dup3\n        /* \"#utility.yul\":21357:21371   */\n      add\n        /* \"#utility.yul\":21350:21396   */\n      mstore\n        /* \"#utility.yul\":21339:21403   */\n      pop\n      jump\t// out\n        /* \"#utility.yul\":21409:21572   */\n    tag_299:\n        /* \"#utility.yul\":21549:21564   */\n      0x726566756e64206661696c656400000000000000000000000000000000000000\n        /* \"#utility.yul\":21545:21546   */\n      0x00\n        /* \"#utility.yul\":21537:21543   */\n      dup3\n        /* \"#utility.yul\":21533:21547   */\n      add\n        /* \"#utility.yul\":21526:21565   */\n      mstore\n        /* \"#utility.yul\":21515:21572   */\n      pop\n      jump\t// out\n        /* \"#utility.yul\":21578:21700   */\n    tag_179:\n        /* \"#utility.yul\":21651:21675   */\n      tag_389\n        /* \"#utility.yul\":21669:21674   */\n      dup2\n        /* \"#utility.yul\":21651:21675   */\n      tag_231\n      jump\t// in\n    tag_389:\n        /* \"#utility.yul\":21644:21649   */\n      dup2\n        /* \"#utility.yul\":21641:21676   */\n      eq\n        /* \"#utility.yul\":21631:21633   */\n      tag_390\n      jumpi\n        /* \"#utility.yul\":21690:21691   */\n      0x00\n        /* \"#utility.yul\":21687:21688   */\n      dup1\n        /* \"#utility.yul\":21680:21692   */\n      revert\n        /* \"#utility.yul\":21631:21633   */\n    tag_390:\n        /* \"#utility.yul\":21621:21700   */\n      pop\n      jump\t// out\n        /* \"#utility.yul\":21706:21822   */\n    tag_186:\n        /* \"#utility.yul\":21776:21797   */\n      tag_392\n        /* \"#utility.yul\":21791:21796   */\n      dup2\n        /* \"#utility.yul\":21776:21797   */\n      tag_374\n      jump\t// in\n    tag_392:\n        /* \"#utility.yul\":21769:21774   */\n      dup2\n        /* \"#utility.yul\":21766:21798   */\n      eq\n        /* \"#utility.yul\":21756:21758   */\n      tag_393\n      jumpi\n        /* \"#utility.yul\":21812:21813   */\n      0x00\n        /* \"#utility.yul\":21809:21810   */\n      dup1\n        /* \"#utility.yul\":21802:21814   */\n      revert\n        /* \"#utility.yul\":21756:21758   */\n    tag_393:\n        /* \"#utility.yul\":21746:21822   */\n      pop\n      jump\t// out\n        /* \"#utility.yul\":21828:21950   */\n    tag_195:\n        /* \"#utility.yul\":21901:21925   */\n      tag_395\n        /* \"#utility.yul\":21919:21924   */\n      dup2\n        /* \"#utility.yul\":21901:21925   */\n      tag_312\n      jump\t// in\n    tag_395:\n        /* \"#utility.yul\":21894:21899   */\n      dup2\n        /* \"#utility.yul\":21891:21926   */\n      eq\n        /* \"#utility.yul\":21881:21883   */\n      tag_396\n      jumpi\n        /* \"#utility.yul\":21940:21941   */\n      0x00\n        /* \"#utility.yul\":21937:21938   */\n      dup1\n        /* \"#utility.yul\":21930:21942   */\n      revert\n        /* \"#utility.yul\":21881:21883   */\n    tag_396:\n        /* \"#utility.yul\":21871:21950   */\n      pop\n      jump\t// out\n\n    auxdata: 0xa26469706673582212207cd7fd5eaeb025db02829475c86b62e2dc291984a2ca15fd11dc2031049e893564736f6c63430008040033\n}\n",
				"bytecode": {
					"linkReferences": {},
					"object": "608060405234801561001057600080fd5b506121e5806100206000396000f3fe60806040526004361061007f5760003560e01c80638c3417da1161004e5780638c3417da146101575780639f085a0014610194578063baf4371e146101bf578063d3a6a6c9146101db57610086565b8063150b7a021461008b5780634676adca146100c85780636916462f146100f157806369a6d12e1461012e57610086565b3661008657005b600080fd5b34801561009757600080fd5b506100b260048036038101906100ad919061187a565b610204565b6040516100bf9190611e05565b60405180910390f35b3480156100d457600080fd5b506100ef60048036038101906100ea9190611999565b610219565b005b3480156100fd57600080fd5b506101186004803603810190610113919061195d565b61046f565b6040516101259190611f3b565b60405180910390f35b34801561013a57600080fd5b50610155600480360381019061015091906118fa565b610494565b005b34801561016357600080fd5b5061017e6004803603810190610179919061195d565b610adb565b60405161018b9190611f20565b60405180910390f35b3480156101a057600080fd5b506101a9610c51565b6040516101b69190611de3565b60405180910390f35b6101d960048036038101906101d49190611999565b610d10565b005b3480156101e757600080fd5b5061020260048036038101906101fd919061195d565b611229565b005b600063150b7a0260e01b905095945050505050565b828260018060008473ffffffffffffffffffffffffffffffffffffffff1673ffffffffffffffffffffffffffffffffffffffff168152602001908152602001600020600083815260200190815260200160002054146102ad576040517f08c379a00000000000000000000000000000000000000000000000000000000081526004016102a490611e60565b60405180910390fd5b84846000808373ffffffffffffffffffffffffffffffffffffffff1673ffffffffffffffffffffffffffffffffffffffff168152602001908152602001600020600082815260200190815260200160002060000160009054906101000a900473ffffffffffffffffffffffffffffffffffffffff1673ffffffffffffffffffffffffffffffffffffffff163373ffffffffffffffffffffffffffffffffffffffff161461038f576040517f08c379a000000000000000000000000000000000000000000000000000000000815260040161038690611ec0565b60405180910390fd5b84600081116103d3576040517f08c379a00000000000000000000000000000000000000000000000000000000081526004016103ca90611e40565b60405180910390fd5b856000808a73ffffffffffffffffffffffffffffffffffffffff1673ffffffffffffffffffffffffffffffffffffffff1681526020019081526020016000206000898152602001908152602001600020600301819055507f575a0876095ccf47276a37dce683308a625403d132d219f95205ce205b2e12bc88888860405161045d93929190611dac565b60405180910390a15050505050505050565b6001602052816000526040600020602052806000526040600020600091509150505481565b83828173ffffffffffffffffffffffffffffffffffffffff16636352211e826040518263ffffffff1660e01b81526004016104cf9190611f3b565b60206040518083038186803b1580156104e757600080fd5b505afa1580156104fb573d6000803e3d6000fd5b505050506040513d601f19601f8201168201806040525081019061051f9190611851565b73ffffffffffffffffffffffffffffffffffffffff163373ffffffffffffffffffffffffffffffffffffffff161461058c576040517f08c379a000000000000000000000000000000000000000000000000000000000815260040161058390611ec0565b60405180910390fd5b85846000600160008473ffffffffffffffffffffffffffffffffffffffff1673ffffffffffffffffffffffffffffffffffffffff16815260200190815260200160002060008381526020019081526020016000205414610621576040517f08c379a000000000000000000000000000000000000000000000000000000000815260040161061890611e80565b60405180910390fd5b87868173ffffffffffffffffffffffffffffffffffffffff1663e985e9c533306040518363ffffffff1660e01b815260040161065e929190611ca6565b60206040518083038186803b15801561067657600080fd5b505afa15801561068a573d6000803e3d6000fd5b505050506040513d601f19601f820116820180604052508101906106ae91906119e8565b6106ed576040517f08c379a00000000000000000000000000000000000000000000000000000000081526004016106e490611e20565b60405180910390fd5b8660008111610731576040517f08c379a000000000000000000000000000000000000000000000000000000000815260040161072890611e40565b60405180910390fd5b60405180608001604052803373ffffffffffffffffffffffffffffffffffffffff168152602001600073ffffffffffffffffffffffffffffffffffffffff1681526020018b73ffffffffffffffffffffffffffffffffffffffff168152602001898152506000808d73ffffffffffffffffffffffffffffffffffffffff1673ffffffffffffffffffffffffffffffffffffffff16815260200190815260200160002060008b815260200190815260200160002060008201518160000160006101000a81548173ffffffffffffffffffffffffffffffffffffffff021916908373ffffffffffffffffffffffffffffffffffffffff16021790555060208201518160010160006101000a81548173ffffffffffffffffffffffffffffffffffffffff021916908373ffffffffffffffffffffffffffffffffffffffff16021790555060408201518160020160006101000a81548173ffffffffffffffffffffffffffffffffffffffff021916908373ffffffffffffffffffffffffffffffffffffffff1602179055506060820151816003015590505060018060008d73ffffffffffffffffffffffffffffffffffffffff1673ffffffffffffffffffffffffffffffffffffffff16815260200190815260200160002060008b815260200190815260200160002081905550600380549050600260008d73ffffffffffffffffffffffffffffffffffffffff1673ffffffffffffffffffffffffffffffffffffffff16815260200190815260200160002060008b815260200190815260200160002081905550600360405180604001604052808d73ffffffffffffffffffffffffffffffffffffffff1681526020018b815250908060018154018082558091505060019003906000526020600020906002020160009091909190915060008201518160000160006101000a81548173ffffffffffffffffffffffffffffffffffffffff021916908373ffffffffffffffffffffffffffffffffffffffff1602179055506020820151816001015550508a73ffffffffffffffffffffffffffffffffffffffff166342842e0e33308c6040518463ffffffff1660e01b8152600401610a5b93929190611d30565b600060405180830381600087803b158015610a7557600080fd5b505af1158015610a89573d6000803e3d6000fd5b505050507f078eead3cd01ed921c7653d000a6b73aea643a7b9c066fb7d93eb2eae8acc2d98b338c8c8c42604051610ac696959493929190611ccf565b60405180910390a15050505050505050505050565b610ae3611749565b6000808473ffffffffffffffffffffffffffffffffffffffff1673ffffffffffffffffffffffffffffffffffffffff16815260200190815260200160002060008381526020019081526020016000206040518060800160405290816000820160009054906101000a900473ffffffffffffffffffffffffffffffffffffffff1673ffffffffffffffffffffffffffffffffffffffff1673ffffffffffffffffffffffffffffffffffffffff1681526020016001820160009054906101000a900473ffffffffffffffffffffffffffffffffffffffff1673ffffffffffffffffffffffffffffffffffffffff1673ffffffffffffffffffffffffffffffffffffffff1681526020016002820160009054906101000a900473ffffffffffffffffffffffffffffffffffffffff1673ffffffffffffffffffffffffffffffffffffffff1673ffffffffffffffffffffffffffffffffffffffff168152602001600382015481525050905092915050565b60606003805480602002602001604051908101604052809291908181526020016000905b82821015610d0757838290600052602060002090600202016040518060400160405290816000820160009054906101000a900473ffffffffffffffffffffffffffffffffffffffff1673ffffffffffffffffffffffffffffffffffffffff1673ffffffffffffffffffffffffffffffffffffffff16815260200160018201548152505081526020019060010190610c75565b50505050905090565b828260018060008473ffffffffffffffffffffffffffffffffffffffff1673ffffffffffffffffffffffffffffffffffffffff16815260200190815260200160002060008381526020019081526020016000205414610da4576040517f08c379a0000000000000000000000000000000000000000000000000000000008152600401610d9b90611e60565b60405180910390fd5b8260008111610de8576040517f08c379a0000000000000000000000000000000000000000000000000000000008152600401610ddf90611e40565b60405180910390fd5b8585856000808473ffffffffffffffffffffffffffffffffffffffff1673ffffffffffffffffffffffffffffffffffffffff168152602001908152602001600020600083815260200190815260200160002060030154811015610e80576040517f08c379a0000000000000000000000000000000000000000000000000000000008152600401610e7790611ee0565b60405180910390fd5b8873ffffffffffffffffffffffffffffffffffffffff166342842e0e30338b6040518463ffffffff1660e01b8152600401610ebd93929190611d30565b600060405180830381600087803b158015610ed757600080fd5b505af1158015610eeb573d6000803e3d6000fd5b505050506000600160008b73ffffffffffffffffffffffffffffffffffffffff1673ffffffffffffffffffffffffffffffffffffffff16815260200190815260200160002060008a8152602001908152602001600020819055506003600260008b73ffffffffffffffffffffffffffffffffffffffff1673ffffffffffffffffffffffffffffffffffffffff16815260200190815260200160002060008a81526020019081526020016000205481548110610fcf577f4e487b7100000000000000000000000000000000000000000000000000000000600052603260045260246000fd5b9060005260206000209060020201600080820160006101000a81549073ffffffffffffffffffffffffffffffffffffffff021916905560018201600090555050336000808b73ffffffffffffffffffffffffffffffffffffffff1673ffffffffffffffffffffffffffffffffffffffff16815260200190815260200160002060008a815260200190815260200160002060010160006101000a81548173ffffffffffffffffffffffffffffffffffffffff021916908373ffffffffffffffffffffffffffffffffffffffff1602179055506111e16000808b73ffffffffffffffffffffffffffffffffffffffff1673ffffffffffffffffffffffffffffffffffffffff16815260200190815260200160002060008a815260200190815260200160002060000160009054906101000a900473ffffffffffffffffffffffffffffffffffffffff166000808c73ffffffffffffffffffffffffffffffffffffffff1673ffffffffffffffffffffffffffffffffffffffff16815260200190815260200160002060008b815260200190815260200160002060020160009054906101000a900473ffffffffffffffffffffffffffffffffffffffff166000808d73ffffffffffffffffffffffffffffffffffffffff1673ffffffffffffffffffffffffffffffffffffffff16815260200190815260200160002060008c815260200190815260200160002060030154611571565b7f9fa3b1bb9266e05722b54a7a564d02a274bc80d39f4af21e6be405480996ceba89338a8a6040516112169493929190611d67565b60405180910390a1505050505050505050565b818160018060008473ffffffffffffffffffffffffffffffffffffffff1673ffffffffffffffffffffffffffffffffffffffff168152602001908152602001600020600083815260200190815260200160002054146112bd576040517f08c379a00000000000000000000000000000000000000000000000000000000081526004016112b490611e60565b60405180910390fd5b83836000808373ffffffffffffffffffffffffffffffffffffffff1673ffffffffffffffffffffffffffffffffffffffff168152602001908152602001600020600082815260200190815260200160002060000160009054906101000a900473ffffffffffffffffffffffffffffffffffffffff1673ffffffffffffffffffffffffffffffffffffffff163373ffffffffffffffffffffffffffffffffffffffff161461139f576040517f08c379a000000000000000000000000000000000000000000000000000000000815260040161139690611ec0565b60405180910390fd5b8573ffffffffffffffffffffffffffffffffffffffff166342842e0e3033886040518463ffffffff1660e01b81526004016113dc93929190611d30565b600060405180830381600087803b1580156113f657600080fd5b505af115801561140a573d6000803e3d6000fd5b505050506000600160008873ffffffffffffffffffffffffffffffffffffffff1673ffffffffffffffffffffffffffffffffffffffff1681526020019081526020016000206000878152602001908152602001600020819055506003600260008873ffffffffffffffffffffffffffffffffffffffff1673ffffffffffffffffffffffffffffffffffffffff168152602001908152602001600020600087815260200190815260200160002054815481106114ee577f4e487b7100000000000000000000000000000000000000000000000000000000600052603260045260246000fd5b9060005260206000209060020201600080820160006101000a81549073ffffffffffffffffffffffffffffffffffffffff0219169055600182016000905550507fd7348ff00cf381a884144b50b3441398a48a7974ec349287df80e18cec9f5a3186338760405161156193929190611d30565b60405180910390a1505050505050565b600073ffffffffffffffffffffffffffffffffffffffff168273ffffffffffffffffffffffffffffffffffffffff16146115b5576115b08383836115c5565b6115c0565b6115bf8382611698565b5b505050565b8173ffffffffffffffffffffffffffffffffffffffff166323b872dd3385846040518463ffffffff1660e01b815260040161160293929190611d30565b602060405180830381600087803b15801561161c57600080fd5b505af1158015611630573d6000803e3d6000fd5b505050506040513d601f19601f8201168201806040525081019061165491906119e8565b611693576040517f08c379a000000000000000000000000000000000000000000000000000000000815260040161168a90611ea0565b60405180910390fd5b505050565b60008273ffffffffffffffffffffffffffffffffffffffff16826040516116be90611c91565b60006040518083038185875af1925050503d80600081146116fb576040519150601f19603f3d011682016040523d82523d6000602084013e611700565b606091505b5050905080611744576040517f08c379a000000000000000000000000000000000000000000000000000000000815260040161173b90611f00565b60405180910390fd5b505050565b6040518060800160405280600073ffffffffffffffffffffffffffffffffffffffff168152602001600073ffffffffffffffffffffffffffffffffffffffff168152602001600073ffffffffffffffffffffffffffffffffffffffff168152602001600081525090565b6000813590506117c28161216a565b92915050565b6000815190506117d78161216a565b92915050565b6000815190506117ec81612181565b92915050565b60008083601f84011261180457600080fd5b8235905067ffffffffffffffff81111561181d57600080fd5b60208301915083600182028301111561183557600080fd5b9250929050565b60008135905061184b81612198565b92915050565b60006020828403121561186357600080fd5b6000611871848285016117c8565b91505092915050565b60008060008060006080868803121561189257600080fd5b60006118a0888289016117b3565b95505060206118b1888289016117b3565b94505060406118c28882890161183c565b935050606086013567ffffffffffffffff8111156118df57600080fd5b6118eb888289016117f2565b92509250509295509295909350565b6000806000806080858703121561191057600080fd5b600061191e878288016117b3565b945050602061192f878288016117b3565b93505060406119408782880161183c565b92505060606119518782880161183c565b91505092959194509250565b6000806040838503121561197057600080fd5b600061197e858286016117b3565b925050602061198f8582860161183c565b9150509250929050565b6000806000606084860312156119ae57600080fd5b60006119bc868287016117b3565b93505060206119cd8682870161183c565b92505060406119de8682870161183c565b9150509250925092565b6000602082840312156119fa57600080fd5b6000611a08848285016117dd565b91505092915050565b6000611a1d8383611c44565b60408301905092915050565b611a3281611fab565b82525050565b611a4181611fab565b82525050565b6000611a5282611f66565b611a5c8185611f7e565b9350611a6783611f56565b8060005b83811015611a98578151611a7f8882611a11565b9750611a8a83611f71565b925050600181019050611a6b565b5085935050505092915050565b611aae81611fc9565b82525050565b6000611ac1601c83611f9a565b9150611acc8261201f565b602082019050919050565b6000611ae4601183611f9a565b9150611aef82612048565b602082019050919050565b6000611b07601583611f9a565b9150611b1282612071565b602082019050919050565b6000611b2a601383611f9a565b9150611b358261209a565b602082019050919050565b6000611b4d601483611f9a565b9150611b58826120c3565b602082019050919050565b6000611b70601583611f9a565b9150611b7b826120ec565b602082019050919050565b6000611b93600083611f8f565b9150611b9e82612115565b600082019050919050565b6000611bb6601483611f9a565b9150611bc182612118565b602082019050919050565b6000611bd9600d83611f9a565b9150611be482612141565b602082019050919050565b608082016000820151611c056000850182611a29565b506020820151611c186020850182611a29565b506040820151611c2b6040850182611a29565b506060820151611c3e6060850182611c73565b50505050565b604082016000820151611c5a6000850182611a29565b506020820151611c6d6020850182611c73565b50505050565b611c7c81612015565b82525050565b611c8b81612015565b82525050565b6000611c9c82611b86565b9150819050919050565b6000604082019050611cbb6000830185611a38565b611cc86020830184611a38565b9392505050565b600060c082019050611ce46000830189611a38565b611cf16020830188611a38565b611cfe6040830187611a38565b611d0b6060830186611c82565b611d186080830185611c82565b611d2560a0830184611c82565b979650505050505050565b6000606082019050611d456000830186611a38565b611d526020830185611a38565b611d5f6040830184611c82565b949350505050565b6000608082019050611d7c6000830187611a38565b611d896020830186611a38565b611d966040830185611c82565b611da36060830184611c82565b95945050505050565b6000606082019050611dc16000830186611a38565b611dce6020830185611c82565b611ddb6040830184611c82565b949350505050565b60006020820190508181036000830152611dfd8184611a47565b905092915050565b6000602082019050611e1a6000830184611aa5565b92915050565b60006020820190508181036000830152611e3981611ab4565b9050919050565b60006020820190508181036000830152611e5981611ad7565b9050919050565b60006020820190508181036000830152611e7981611afa565b9050919050565b60006020820190508181036000830152611e9981611b1d565b9050919050565b60006020820190508181036000830152611eb981611b40565b9050919050565b60006020820190508181036000830152611ed981611b63565b9050919050565b60006020820190508181036000830152611ef981611ba9565b9050919050565b60006020820190508181036000830152611f1981611bcc565b9050919050565b6000608082019050611f356000830184611bef565b92915050565b6000602082019050611f506000830184611c82565b92915050565b6000819050602082019050919050565b600081519050919050565b6000602082019050919050565b600082825260208201905092915050565b600081905092915050565b600082825260208201905092915050565b6000611fb682611ff5565b9050919050565b60008115159050919050565b60007fffffffff0000000000000000000000000000000000000000000000000000000082169050919050565b600073ffffffffffffffffffffffffffffffffffffffff82169050919050565b6000819050919050565b7f4e6674206e6f7420617070726f76656420746f20636f6e747261637400000000600082015250565b7f50726963652063616e6e6f742062652030000000000000000000000000000000600082015250565b7f4e6674206e6f7420696e2066697865642073616c650000000000000000000000600082015250565b7f4e667420616c726561647920696e2073616c6500000000000000000000000000600082015250565b7f616c6c6f77616e6365206e6f7420656e6f756768000000000000000000000000600082015250565b7f596f7520617265206e6f74206e6674206f776e65720000000000000000000000600082015250565b50565b7f627579205072696365206e6f7420656e6f756768000000000000000000000000600082015250565b7f726566756e64206661696c656400000000000000000000000000000000000000600082015250565b61217381611fab565b811461217e57600080fd5b50565b61218a81611fbd565b811461219557600080fd5b50565b6121a181612015565b81146121ac57600080fd5b5056fea26469706673582212207cd7fd5eaeb025db02829475c86b62e2dc291984a2ca15fd11dc2031049e893564736f6c63430008040033",
					"opcodes": "PUSH1 0x80 PUSH1 0x40 MSTORE CALLVALUE DUP1 ISZERO PUSH2 0x10 JUMPI PUSH1 0x0 DUP1 REVERT JUMPDEST POP PUSH2 0x21E5 DUP1 PUSH2 0x20 PUSH1 0x0 CODECOPY PUSH1 0x0 RETURN INVALID PUSH1 0x80 PUSH1 0x40 MSTORE PUSH1 0x4 CALLDATASIZE LT PUSH2 0x7F JUMPI PUSH1 0x0 CALLDATALOAD PUSH1 0xE0 SHR DUP1 PUSH4 0x8C3417DA GT PUSH2 0x4E JUMPI DUP1 PUSH4 0x8C3417DA EQ PUSH2 0x157 JUMPI DUP1 PUSH4 0x9F085A00 EQ PUSH2 0x194 JUMPI DUP1 PUSH4 0xBAF4371E EQ PUSH2 0x1BF JUMPI DUP1 PUSH4 0xD3A6A6C9 EQ PUSH2 0x1DB JUMPI PUSH2 0x86 JUMP JUMPDEST DUP1 PUSH4 0x150B7A02 EQ PUSH2 0x8B JUMPI DUP1 PUSH4 0x4676ADCA EQ PUSH2 0xC8 JUMPI DUP1 PUSH4 0x6916462F EQ PUSH2 0xF1 JUMPI DUP1 PUSH4 0x69A6D12E EQ PUSH2 0x12E JUMPI PUSH2 0x86 JUMP JUMPDEST CALLDATASIZE PUSH2 0x86 JUMPI STOP JUMPDEST PUSH1 0x0 DUP1 REVERT JUMPDEST CALLVALUE DUP1 ISZERO PUSH2 0x97 JUMPI PUSH1 0x0 DUP1 REVERT JUMPDEST POP PUSH2 0xB2 PUSH1 0x4 DUP1 CALLDATASIZE SUB DUP2 ADD SWAP1 PUSH2 0xAD SWAP2 SWAP1 PUSH2 0x187A JUMP JUMPDEST PUSH2 0x204 JUMP JUMPDEST PUSH1 0x40 MLOAD PUSH2 0xBF SWAP2 SWAP1 PUSH2 0x1E05 JUMP JUMPDEST PUSH1 0x40 MLOAD DUP1 SWAP2 SUB SWAP1 RETURN JUMPDEST CALLVALUE DUP1 ISZERO PUSH2 0xD4 JUMPI PUSH1 0x0 DUP1 REVERT JUMPDEST POP PUSH2 0xEF PUSH1 0x4 DUP1 CALLDATASIZE SUB DUP2 ADD SWAP1 PUSH2 0xEA SWAP2 SWAP1 PUSH2 0x1999 JUMP JUMPDEST PUSH2 0x219 JUMP JUMPDEST STOP JUMPDEST CALLVALUE DUP1 ISZERO PUSH2 0xFD JUMPI PUSH1 0x0 DUP1 REVERT JUMPDEST POP PUSH2 0x118 PUSH1 0x4 DUP1 CALLDATASIZE SUB DUP2 ADD SWAP1 PUSH2 0x113 SWAP2 SWAP1 PUSH2 0x195D JUMP JUMPDEST PUSH2 0x46F JUMP JUMPDEST PUSH1 0x40 MLOAD PUSH2 0x125 SWAP2 SWAP1 PUSH2 0x1F3B JUMP JUMPDEST PUSH1 0x40 MLOAD DUP1 SWAP2 SUB SWAP1 RETURN JUMPDEST CALLVALUE DUP1 ISZERO PUSH2 0x13A JUMPI PUSH1 0x0 DUP1 REVERT JUMPDEST POP PUSH2 0x155 PUSH1 0x4 DUP1 CALLDATASIZE SUB DUP2 ADD SWAP1 PUSH2 0x150 SWAP2 SWAP1 PUSH2 0x18FA JUMP JUMPDEST PUSH2 0x494 JUMP JUMPDEST STOP JUMPDEST CALLVALUE DUP1 ISZERO PUSH2 0x163 JUMPI PUSH1 0x0 DUP1 REVERT JUMPDEST POP PUSH2 0x17E PUSH1 0x4 DUP1 CALLDATASIZE SUB DUP2 ADD SWAP1 PUSH2 0x179 SWAP2 SWAP1 PUSH2 0x195D JUMP JUMPDEST PUSH2 0xADB JUMP JUMPDEST PUSH1 0x40 MLOAD PUSH2 0x18B SWAP2 SWAP1 PUSH2 0x1F20 JUMP JUMPDEST PUSH1 0x40 MLOAD DUP1 SWAP2 SUB SWAP1 RETURN JUMPDEST CALLVALUE DUP1 ISZERO PUSH2 0x1A0 JUMPI PUSH1 0x0 DUP1 REVERT JUMPDEST POP PUSH2 0x1A9 PUSH2 0xC51 JUMP JUMPDEST PUSH1 0x40 MLOAD PUSH2 0x1B6 SWAP2 SWAP1 PUSH2 0x1DE3 JUMP JUMPDEST PUSH1 0x40 MLOAD DUP1 SWAP2 SUB SWAP1 RETURN JUMPDEST PUSH2 0x1D9 PUSH1 0x4 DUP1 CALLDATASIZE SUB DUP2 ADD SWAP1 PUSH2 0x1D4 SWAP2 SWAP1 PUSH2 0x1999 JUMP JUMPDEST PUSH2 0xD10 JUMP JUMPDEST STOP JUMPDEST CALLVALUE DUP1 ISZERO PUSH2 0x1E7 JUMPI PUSH1 0x0 DUP1 REVERT JUMPDEST POP PUSH2 0x202 PUSH1 0x4 DUP1 CALLDATASIZE SUB DUP2 ADD SWAP1 PUSH2 0x1FD SWAP2 SWAP1 PUSH2 0x195D JUMP JUMPDEST PUSH2 0x1229 JUMP JUMPDEST STOP JUMPDEST PUSH1 0x0 PUSH4 0x150B7A02 PUSH1 0xE0 SHL SWAP1 POP SWAP6 SWAP5 POP POP POP POP POP JUMP JUMPDEST DUP3 DUP3 PUSH1 0x1 DUP1 PUSH1 0x0 DUP5 PUSH20 0xFFFFFFFFFFFFFFFFFFFFFFFFFFFFFFFFFFFFFFFF AND PUSH20 0xFFFFFFFFFFFFFFFFFFFFFFFFFFFFFFFFFFFFFFFF AND DUP2 MSTORE PUSH1 0x20 ADD SWAP1 DUP2 MSTORE PUSH1 0x20 ADD PUSH1 0x0 KECCAK256 PUSH1 0x0 DUP4 DUP2 MSTORE PUSH1 0x20 ADD SWAP1 DUP2 MSTORE PUSH1 0x20 ADD PUSH1 0x0 KECCAK256 SLOAD EQ PUSH2 0x2AD JUMPI PUSH1 0x40 MLOAD PUSH32 0x8C379A000000000000000000000000000000000000000000000000000000000 DUP2 MSTORE PUSH1 0x4 ADD PUSH2 0x2A4 SWAP1 PUSH2 0x1E60 JUMP JUMPDEST PUSH1 0x40 MLOAD DUP1 SWAP2 SUB SWAP1 REVERT JUMPDEST DUP5 DUP5 PUSH1 0x0 DUP1 DUP4 PUSH20 0xFFFFFFFFFFFFFFFFFFFFFFFFFFFFFFFFFFFFFFFF AND PUSH20 0xFFFFFFFFFFFFFFFFFFFFFFFFFFFFFFFFFFFFFFFF AND DUP2 MSTORE PUSH1 0x20 ADD SWAP1 DUP2 MSTORE PUSH1 0x20 ADD PUSH1 0x0 KECCAK256 PUSH1 0x0 DUP3 DUP2 MSTORE PUSH1 0x20 ADD SWAP1 DUP2 MSTORE PUSH1 0x20 ADD PUSH1 0x0 KECCAK256 PUSH1 0x0 ADD PUSH1 0x0 SWAP1 SLOAD SWAP1 PUSH2 0x100 EXP SWAP1 DIV PUSH20 0xFFFFFFFFFFFFFFFFFFFFFFFFFFFFFFFFFFFFFFFF AND PUSH20 0xFFFFFFFFFFFFFFFFFFFFFFFFFFFFFFFFFFFFFFFF AND CALLER PUSH20 0xFFFFFFFFFFFFFFFFFFFFFFFFFFFFFFFFFFFFFFFF AND EQ PUSH2 0x38F JUMPI PUSH1 0x40 MLOAD PUSH32 0x8C379A000000000000000000000000000000000000000000000000000000000 DUP2 MSTORE PUSH1 0x4 ADD PUSH2 0x386 SWAP1 PUSH2 0x1EC0 JUMP JUMPDEST PUSH1 0x40 MLOAD DUP1 SWAP2 SUB SWAP1 REVERT JUMPDEST DUP5 PUSH1 0x0 DUP2 GT PUSH2 0x3D3 JUMPI PUSH1 0x40 MLOAD PUSH32 0x8C379A000000000000000000000000000000000000000000000000000000000 DUP2 MSTORE PUSH1 0x4 ADD PUSH2 0x3CA SWAP1 PUSH2 0x1E40 JUMP JUMPDEST PUSH1 0x40 MLOAD DUP1 SWAP2 SUB SWAP1 REVERT JUMPDEST DUP6 PUSH1 0x0 DUP1 DUP11 PUSH20 0xFFFFFFFFFFFFFFFFFFFFFFFFFFFFFFFFFFFFFFFF AND PUSH20 0xFFFFFFFFFFFFFFFFFFFFFFFFFFFFFFFFFFFFFFFF AND DUP2 MSTORE PUSH1 0x20 ADD SWAP1 DUP2 MSTORE PUSH1 0x20 ADD PUSH1 0x0 KECCAK256 PUSH1 0x0 DUP10 DUP2 MSTORE PUSH1 0x20 ADD SWAP1 DUP2 MSTORE PUSH1 0x20 ADD PUSH1 0x0 KECCAK256 PUSH1 0x3 ADD DUP2 SWAP1 SSTORE POP PUSH32 0x575A0876095CCF47276A37DCE683308A625403D132D219F95205CE205B2E12BC DUP9 DUP9 DUP9 PUSH1 0x40 MLOAD PUSH2 0x45D SWAP4 SWAP3 SWAP2 SWAP1 PUSH2 0x1DAC JUMP JUMPDEST PUSH1 0x40 MLOAD DUP1 SWAP2 SUB SWAP1 LOG1 POP POP POP POP POP POP POP POP JUMP JUMPDEST PUSH1 0x1 PUSH1 0x20 MSTORE DUP2 PUSH1 0x0 MSTORE PUSH1 0x40 PUSH1 0x0 KECCAK256 PUSH1 0x20 MSTORE DUP1 PUSH1 0x0 MSTORE PUSH1 0x40 PUSH1 0x0 KECCAK256 PUSH1 0x0 SWAP2 POP SWAP2 POP POP SLOAD DUP2 JUMP JUMPDEST DUP4 DUP3 DUP2 PUSH20 0xFFFFFFFFFFFFFFFFFFFFFFFFFFFFFFFFFFFFFFFF AND PUSH4 0x6352211E DUP3 PUSH1 0x40 MLOAD DUP3 PUSH4 0xFFFFFFFF AND PUSH1 0xE0 SHL DUP2 MSTORE PUSH1 0x4 ADD PUSH2 0x4CF SWAP2 SWAP1 PUSH2 0x1F3B JUMP JUMPDEST PUSH1 0x20 PUSH1 0x40 MLOAD DUP1 DUP4 SUB DUP2 DUP7 DUP1 EXTCODESIZE ISZERO DUP1 ISZERO PUSH2 0x4E7 JUMPI PUSH1 0x0 DUP1 REVERT JUMPDEST POP GAS STATICCALL ISZERO DUP1 ISZERO PUSH2 0x4FB JUMPI RETURNDATASIZE PUSH1 0x0 DUP1 RETURNDATACOPY RETURNDATASIZE PUSH1 0x0 REVERT JUMPDEST POP POP POP POP PUSH1 0x40 MLOAD RETURNDATASIZE PUSH1 0x1F NOT PUSH1 0x1F DUP3 ADD AND DUP3 ADD DUP1 PUSH1 0x40 MSTORE POP DUP2 ADD SWAP1 PUSH2 0x51F SWAP2 SWAP1 PUSH2 0x1851 JUMP JUMPDEST PUSH20 0xFFFFFFFFFFFFFFFFFFFFFFFFFFFFFFFFFFFFFFFF AND CALLER PUSH20 0xFFFFFFFFFFFFFFFFFFFFFFFFFFFFFFFFFFFFFFFF AND EQ PUSH2 0x58C JUMPI PUSH1 0x40 MLOAD PUSH32 0x8C379A000000000000000000000000000000000000000000000000000000000 DUP2 MSTORE PUSH1 0x4 ADD PUSH2 0x583 SWAP1 PUSH2 0x1EC0 JUMP JUMPDEST PUSH1 0x40 MLOAD DUP1 SWAP2 SUB SWAP1 REVERT JUMPDEST DUP6 DUP5 PUSH1 0x0 PUSH1 0x1 PUSH1 0x0 DUP5 PUSH20 0xFFFFFFFFFFFFFFFFFFFFFFFFFFFFFFFFFFFFFFFF AND PUSH20 0xFFFFFFFFFFFFFFFFFFFFFFFFFFFFFFFFFFFFFFFF AND DUP2 MSTORE PUSH1 0x20 ADD SWAP1 DUP2 MSTORE PUSH1 0x20 ADD PUSH1 0x0 KECCAK256 PUSH1 0x0 DUP4 DUP2 MSTORE PUSH1 0x20 ADD SWAP1 DUP2 MSTORE PUSH1 0x20 ADD PUSH1 0x0 KECCAK256 SLOAD EQ PUSH2 0x621 JUMPI PUSH1 0x40 MLOAD PUSH32 0x8C379A000000000000000000000000000000000000000000000000000000000 DUP2 MSTORE PUSH1 0x4 ADD PUSH2 0x618 SWAP1 PUSH2 0x1E80 JUMP JUMPDEST PUSH1 0x40 MLOAD DUP1 SWAP2 SUB SWAP1 REVERT JUMPDEST DUP8 DUP7 DUP2 PUSH20 0xFFFFFFFFFFFFFFFFFFFFFFFFFFFFFFFFFFFFFFFF AND PUSH4 0xE985E9C5 CALLER ADDRESS PUSH1 0x40 MLOAD DUP4 PUSH4 0xFFFFFFFF AND PUSH1 0xE0 SHL DUP2 MSTORE PUSH1 0x4 ADD PUSH2 0x65E SWAP3 SWAP2 SWAP1 PUSH2 0x1CA6 JUMP JUMPDEST PUSH1 0x20 PUSH1 0x40 MLOAD DUP1 DUP4 SUB DUP2 DUP7 DUP1 EXTCODESIZE ISZERO DUP1 ISZERO PUSH2 0x676 JUMPI PUSH1 0x0 DUP1 REVERT JUMPDEST POP GAS STATICCALL ISZERO DUP1 ISZERO PUSH2 0x68A JUMPI RETURNDATASIZE PUSH1 0x0 DUP1 RETURNDATACOPY RETURNDATASIZE PUSH1 0x0 REVERT JUMPDEST POP POP POP POP PUSH1 0x40 MLOAD RETURNDATASIZE PUSH1 0x1F NOT PUSH1 0x1F DUP3 ADD AND DUP3 ADD DUP1 PUSH1 0x40 MSTORE POP DUP2 ADD SWAP1 PUSH2 0x6AE SWAP2 SWAP1 PUSH2 0x19E8 JUMP JUMPDEST PUSH2 0x6ED JUMPI PUSH1 0x40 MLOAD PUSH32 0x8C379A000000000000000000000000000000000000000000000000000000000 DUP2 MSTORE PUSH1 0x4 ADD PUSH2 0x6E4 SWAP1 PUSH2 0x1E20 JUMP JUMPDEST PUSH1 0x40 MLOAD DUP1 SWAP2 SUB SWAP1 REVERT JUMPDEST DUP7 PUSH1 0x0 DUP2 GT PUSH2 0x731 JUMPI PUSH1 0x40 MLOAD PUSH32 0x8C379A000000000000000000000000000000000000000000000000000000000 DUP2 MSTORE PUSH1 0x4 ADD PUSH2 0x728 SWAP1 PUSH2 0x1E40 JUMP JUMPDEST PUSH1 0x40 MLOAD DUP1 SWAP2 SUB SWAP1 REVERT JUMPDEST PUSH1 0x40 MLOAD DUP1 PUSH1 0x80 ADD PUSH1 0x40 MSTORE DUP1 CALLER PUSH20 0xFFFFFFFFFFFFFFFFFFFFFFFFFFFFFFFFFFFFFFFF AND DUP2 MSTORE PUSH1 0x20 ADD PUSH1 0x0 PUSH20 0xFFFFFFFFFFFFFFFFFFFFFFFFFFFFFFFFFFFFFFFF AND DUP2 MSTORE PUSH1 0x20 ADD DUP12 PUSH20 0xFFFFFFFFFFFFFFFFFFFFFFFFFFFFFFFFFFFFFFFF AND DUP2 MSTORE PUSH1 0x20 ADD DUP10 DUP2 MSTORE POP PUSH1 0x0 DUP1 DUP14 PUSH20 0xFFFFFFFFFFFFFFFFFFFFFFFFFFFFFFFFFFFFFFFF AND PUSH20 0xFFFFFFFFFFFFFFFFFFFFFFFFFFFFFFFFFFFFFFFF AND DUP2 MSTORE PUSH1 0x20 ADD SWAP1 DUP2 MSTORE PUSH1 0x20 ADD PUSH1 0x0 KECCAK256 PUSH1 0x0 DUP12 DUP2 MSTORE PUSH1 0x20 ADD SWAP1 DUP2 MSTORE PUSH1 0x20 ADD PUSH1 0x0 KECCAK256 PUSH1 0x0 DUP3 ADD MLOAD DUP2 PUSH1 0x0 ADD PUSH1 0x0 PUSH2 0x100 EXP DUP2 SLOAD DUP2 PUSH20 0xFFFFFFFFFFFFFFFFFFFFFFFFFFFFFFFFFFFFFFFF MUL NOT AND SWAP1 DUP4 PUSH20 0xFFFFFFFFFFFFFFFFFFFFFFFFFFFFFFFFFFFFFFFF AND MUL OR SWAP1 SSTORE POP PUSH1 0x20 DUP3 ADD MLOAD DUP2 PUSH1 0x1 ADD PUSH1 0x0 PUSH2 0x100 EXP DUP2 SLOAD DUP2 PUSH20 0xFFFFFFFFFFFFFFFFFFFFFFFFFFFFFFFFFFFFFFFF MUL NOT AND SWAP1 DUP4 PUSH20 0xFFFFFFFFFFFFFFFFFFFFFFFFFFFFFFFFFFFFFFFF AND MUL OR SWAP1 SSTORE POP PUSH1 0x40 DUP3 ADD MLOAD DUP2 PUSH1 0x2 ADD PUSH1 0x0 PUSH2 0x100 EXP DUP2 SLOAD DUP2 PUSH20 0xFFFFFFFFFFFFFFFFFFFFFFFFFFFFFFFFFFFFFFFF MUL NOT AND SWAP1 DUP4 PUSH20 0xFFFFFFFFFFFFFFFFFFFFFFFFFFFFFFFFFFFFFFFF AND MUL OR SWAP1 SSTORE POP PUSH1 0x60 DUP3 ADD MLOAD DUP2 PUSH1 0x3 ADD SSTORE SWAP1 POP POP PUSH1 0x1 DUP1 PUSH1 0x0 DUP14 PUSH20 0xFFFFFFFFFFFFFFFFFFFFFFFFFFFFFFFFFFFFFFFF AND PUSH20 0xFFFFFFFFFFFFFFFFFFFFFFFFFFFFFFFFFFFFFFFF AND DUP2 MSTORE PUSH1 0x20 ADD SWAP1 DUP2 MSTORE PUSH1 0x20 ADD PUSH1 0x0 KECCAK256 PUSH1 0x0 DUP12 DUP2 MSTORE PUSH1 0x20 ADD SWAP1 DUP2 MSTORE PUSH1 0x20 ADD PUSH1 0x0 KECCAK256 DUP2 SWAP1 SSTORE POP PUSH1 0x3 DUP1 SLOAD SWAP1 POP PUSH1 0x2 PUSH1 0x0 DUP14 PUSH20 0xFFFFFFFFFFFFFFFFFFFFFFFFFFFFFFFFFFFFFFFF AND PUSH20 0xFFFFFFFFFFFFFFFFFFFFFFFFFFFFFFFFFFFFFFFF AND DUP2 MSTORE PUSH1 0x20 ADD SWAP1 DUP2 MSTORE PUSH1 0x20 ADD PUSH1 0x0 KECCAK256 PUSH1 0x0 DUP12 DUP2 MSTORE PUSH1 0x20 ADD SWAP1 DUP2 MSTORE PUSH1 0x20 ADD PUSH1 0x0 KECCAK256 DUP2 SWAP1 SSTORE POP PUSH1 0x3 PUSH1 0x40 MLOAD DUP1 PUSH1 0x40 ADD PUSH1 0x40 MSTORE DUP1 DUP14 PUSH20 0xFFFFFFFFFFFFFFFFFFFFFFFFFFFFFFFFFFFFFFFF AND DUP2 MSTORE PUSH1 0x20 ADD DUP12 DUP2 MSTORE POP SWAP1 DUP1 PUSH1 0x1 DUP2 SLOAD ADD DUP1 DUP3 SSTORE DUP1 SWAP2 POP POP PUSH1 0x1 SWAP1 SUB SWAP1 PUSH1 0x0 MSTORE PUSH1 0x20 PUSH1 0x0 KECCAK256 SWAP1 PUSH1 0x2 MUL ADD PUSH1 0x0 SWAP1 SWAP2 SWAP1 SWAP2 SWAP1 SWAP2 POP PUSH1 0x0 DUP3 ADD MLOAD DUP2 PUSH1 0x0 ADD PUSH1 0x0 PUSH2 0x100 EXP DUP2 SLOAD DUP2 PUSH20 0xFFFFFFFFFFFFFFFFFFFFFFFFFFFFFFFFFFFFFFFF MUL NOT AND SWAP1 DUP4 PUSH20 0xFFFFFFFFFFFFFFFFFFFFFFFFFFFFFFFFFFFFFFFF AND MUL OR SWAP1 SSTORE POP PUSH1 0x20 DUP3 ADD MLOAD DUP2 PUSH1 0x1 ADD SSTORE POP POP DUP11 PUSH20 0xFFFFFFFFFFFFFFFFFFFFFFFFFFFFFFFFFFFFFFFF AND PUSH4 0x42842E0E CALLER ADDRESS DUP13 PUSH1 0x40 MLOAD DUP5 PUSH4 0xFFFFFFFF AND PUSH1 0xE0 SHL DUP2 MSTORE PUSH1 0x4 ADD PUSH2 0xA5B SWAP4 SWAP3 SWAP2 SWAP1 PUSH2 0x1D30 JUMP JUMPDEST PUSH1 0x0 PUSH1 0x40 MLOAD DUP1 DUP4 SUB DUP2 PUSH1 0x0 DUP8 DUP1 EXTCODESIZE ISZERO DUP1 ISZERO PUSH2 0xA75 JUMPI PUSH1 0x0 DUP1 REVERT JUMPDEST POP GAS CALL ISZERO DUP1 ISZERO PUSH2 0xA89 JUMPI RETURNDATASIZE PUSH1 0x0 DUP1 RETURNDATACOPY RETURNDATASIZE PUSH1 0x0 REVERT JUMPDEST POP POP POP POP PUSH32 0x78EEAD3CD01ED921C7653D000A6B73AEA643A7B9C066FB7D93EB2EAE8ACC2D9 DUP12 CALLER DUP13 DUP13 DUP13 TIMESTAMP PUSH1 0x40 MLOAD PUSH2 0xAC6 SWAP7 SWAP6 SWAP5 SWAP4 SWAP3 SWAP2 SWAP1 PUSH2 0x1CCF JUMP JUMPDEST PUSH1 0x40 MLOAD DUP1 SWAP2 SUB SWAP1 LOG1 POP POP POP POP POP POP POP POP POP POP POP JUMP JUMPDEST PUSH2 0xAE3 PUSH2 0x1749 JUMP JUMPDEST PUSH1 0x0 DUP1 DUP5 PUSH20 0xFFFFFFFFFFFFFFFFFFFFFFFFFFFFFFFFFFFFFFFF AND PUSH20 0xFFFFFFFFFFFFFFFFFFFFFFFFFFFFFFFFFFFFFFFF AND DUP2 MSTORE PUSH1 0x20 ADD SWAP1 DUP2 MSTORE PUSH1 0x20 ADD PUSH1 0x0 KECCAK256 PUSH1 0x0 DUP4 DUP2 MSTORE PUSH1 0x20 ADD SWAP1 DUP2 MSTORE PUSH1 0x20 ADD PUSH1 0x0 KECCAK256 PUSH1 0x40 MLOAD DUP1 PUSH1 0x80 ADD PUSH1 0x40 MSTORE SWAP1 DUP2 PUSH1 0x0 DUP3 ADD PUSH1 0x0 SWAP1 SLOAD SWAP1 PUSH2 0x100 EXP SWAP1 DIV PUSH20 0xFFFFFFFFFFFFFFFFFFFFFFFFFFFFFFFFFFFFFFFF AND PUSH20 0xFFFFFFFFFFFFFFFFFFFFFFFFFFFFFFFFFFFFFFFF AND PUSH20 0xFFFFFFFFFFFFFFFFFFFFFFFFFFFFFFFFFFFFFFFF AND DUP2 MSTORE PUSH1 0x20 ADD PUSH1 0x1 DUP3 ADD PUSH1 0x0 SWAP1 SLOAD SWAP1 PUSH2 0x100 EXP SWAP1 DIV PUSH20 0xFFFFFFFFFFFFFFFFFFFFFFFFFFFFFFFFFFFFFFFF AND PUSH20 0xFFFFFFFFFFFFFFFFFFFFFFFFFFFFFFFFFFFFFFFF AND PUSH20 0xFFFFFFFFFFFFFFFFFFFFFFFFFFFFFFFFFFFFFFFF AND DUP2 MSTORE PUSH1 0x20 ADD PUSH1 0x2 DUP3 ADD PUSH1 0x0 SWAP1 SLOAD SWAP1 PUSH2 0x100 EXP SWAP1 DIV PUSH20 0xFFFFFFFFFFFFFFFFFFFFFFFFFFFFFFFFFFFFFFFF AND PUSH20 0xFFFFFFFFFFFFFFFFFFFFFFFFFFFFFFFFFFFFFFFF AND PUSH20 0xFFFFFFFFFFFFFFFFFFFFFFFFFFFFFFFFFFFFFFFF AND DUP2 MSTORE PUSH1 0x20 ADD PUSH1 0x3 DUP3 ADD SLOAD DUP2 MSTORE POP POP SWAP1 POP SWAP3 SWAP2 POP POP JUMP JUMPDEST PUSH1 0x60 PUSH1 0x3 DUP1 SLOAD DUP1 PUSH1 0x20 MUL PUSH1 0x20 ADD PUSH1 0x40 MLOAD SWAP1 DUP2 ADD PUSH1 0x40 MSTORE DUP1 SWAP3 SWAP2 SWAP1 DUP2 DUP2 MSTORE PUSH1 0x20 ADD PUSH1 0x0 SWAP1 JUMPDEST DUP3 DUP3 LT ISZERO PUSH2 0xD07 JUMPI DUP4 DUP3 SWAP1 PUSH1 0x0 MSTORE PUSH1 0x20 PUSH1 0x0 KECCAK256 SWAP1 PUSH1 0x2 MUL ADD PUSH1 0x40 MLOAD DUP1 PUSH1 0x40 ADD PUSH1 0x40 MSTORE SWAP1 DUP2 PUSH1 0x0 DUP3 ADD PUSH1 0x0 SWAP1 SLOAD SWAP1 PUSH2 0x100 EXP SWAP1 DIV PUSH20 0xFFFFFFFFFFFFFFFFFFFFFFFFFFFFFFFFFFFFFFFF AND PUSH20 0xFFFFFFFFFFFFFFFFFFFFFFFFFFFFFFFFFFFFFFFF AND PUSH20 0xFFFFFFFFFFFFFFFFFFFFFFFFFFFFFFFFFFFFFFFF AND DUP2 MSTORE PUSH1 0x20 ADD PUSH1 0x1 DUP3 ADD SLOAD DUP2 MSTORE POP POP DUP2 MSTORE PUSH1 0x20 ADD SWAP1 PUSH1 0x1 ADD SWAP1 PUSH2 0xC75 JUMP JUMPDEST POP POP POP POP SWAP1 POP SWAP1 JUMP JUMPDEST DUP3 DUP3 PUSH1 0x1 DUP1 PUSH1 0x0 DUP5 PUSH20 0xFFFFFFFFFFFFFFFFFFFFFFFFFFFFFFFFFFFFFFFF AND PUSH20 0xFFFFFFFFFFFFFFFFFFFFFFFFFFFFFFFFFFFFFFFF AND DUP2 MSTORE PUSH1 0x20 ADD SWAP1 DUP2 MSTORE PUSH1 0x20 ADD PUSH1 0x0 KECCAK256 PUSH1 0x0 DUP4 DUP2 MSTORE PUSH1 0x20 ADD SWAP1 DUP2 MSTORE PUSH1 0x20 ADD PUSH1 0x0 KECCAK256 SLOAD EQ PUSH2 0xDA4 JUMPI PUSH1 0x40 MLOAD PUSH32 0x8C379A000000000000000000000000000000000000000000000000000000000 DUP2 MSTORE PUSH1 0x4 ADD PUSH2 0xD9B SWAP1 PUSH2 0x1E60 JUMP JUMPDEST PUSH1 0x40 MLOAD DUP1 SWAP2 SUB SWAP1 REVERT JUMPDEST DUP3 PUSH1 0x0 DUP2 GT PUSH2 0xDE8 JUMPI PUSH1 0x40 MLOAD PUSH32 0x8C379A000000000000000000000000000000000000000000000000000000000 DUP2 MSTORE PUSH1 0x4 ADD PUSH2 0xDDF SWAP1 PUSH2 0x1E40 JUMP JUMPDEST PUSH1 0x40 MLOAD DUP1 SWAP2 SUB SWAP1 REVERT JUMPDEST DUP6 DUP6 DUP6 PUSH1 0x0 DUP1 DUP5 PUSH20 0xFFFFFFFFFFFFFFFFFFFFFFFFFFFFFFFFFFFFFFFF AND PUSH20 0xFFFFFFFFFFFFFFFFFFFFFFFFFFFFFFFFFFFFFFFF AND DUP2 MSTORE PUSH1 0x20 ADD SWAP1 DUP2 MSTORE PUSH1 0x20 ADD PUSH1 0x0 KECCAK256 PUSH1 0x0 DUP4 DUP2 MSTORE PUSH1 0x20 ADD SWAP1 DUP2 MSTORE PUSH1 0x20 ADD PUSH1 0x0 KECCAK256 PUSH1 0x3 ADD SLOAD DUP2 LT ISZERO PUSH2 0xE80 JUMPI PUSH1 0x40 MLOAD PUSH32 0x8C379A000000000000000000000000000000000000000000000000000000000 DUP2 MSTORE PUSH1 0x4 ADD PUSH2 0xE77 SWAP1 PUSH2 0x1EE0 JUMP JUMPDEST PUSH1 0x40 MLOAD DUP1 SWAP2 SUB SWAP1 REVERT JUMPDEST DUP9 PUSH20 0xFFFFFFFFFFFFFFFFFFFFFFFFFFFFFFFFFFFFFFFF AND PUSH4 0x42842E0E ADDRESS CALLER DUP12 PUSH1 0x40 MLOAD DUP5 PUSH4 0xFFFFFFFF AND PUSH1 0xE0 SHL DUP2 MSTORE PUSH1 0x4 ADD PUSH2 0xEBD SWAP4 SWAP3 SWAP2 SWAP1 PUSH2 0x1D30 JUMP JUMPDEST PUSH1 0x0 PUSH1 0x40 MLOAD DUP1 DUP4 SUB DUP2 PUSH1 0x0 DUP8 DUP1 EXTCODESIZE ISZERO DUP1 ISZERO PUSH2 0xED7 JUMPI PUSH1 0x0 DUP1 REVERT JUMPDEST POP GAS CALL ISZERO DUP1 ISZERO PUSH2 0xEEB JUMPI RETURNDATASIZE PUSH1 0x0 DUP1 RETURNDATACOPY RETURNDATASIZE PUSH1 0x0 REVERT JUMPDEST POP POP POP POP PUSH1 0x0 PUSH1 0x1 PUSH1 0x0 DUP12 PUSH20 0xFFFFFFFFFFFFFFFFFFFFFFFFFFFFFFFFFFFFFFFF AND PUSH20 0xFFFFFFFFFFFFFFFFFFFFFFFFFFFFFFFFFFFFFFFF AND DUP2 MSTORE PUSH1 0x20 ADD SWAP1 DUP2 MSTORE PUSH1 0x20 ADD PUSH1 0x0 KECCAK256 PUSH1 0x0 DUP11 DUP2 MSTORE PUSH1 0x20 ADD SWAP1 DUP2 MSTORE PUSH1 0x20 ADD PUSH1 0x0 KECCAK256 DUP2 SWAP1 SSTORE POP PUSH1 0x3 PUSH1 0x2 PUSH1 0x0 DUP12 PUSH20 0xFFFFFFFFFFFFFFFFFFFFFFFFFFFFFFFFFFFFFFFF AND PUSH20 0xFFFFFFFFFFFFFFFFFFFFFFFFFFFFFFFFFFFFFFFF AND DUP2 MSTORE PUSH1 0x20 ADD SWAP1 DUP2 MSTORE PUSH1 0x20 ADD PUSH1 0x0 KECCAK256 PUSH1 0x0 DUP11 DUP2 MSTORE PUSH1 0x20 ADD SWAP1 DUP2 MSTORE PUSH1 0x20 ADD PUSH1 0x0 KECCAK256 SLOAD DUP2 SLOAD DUP2 LT PUSH2 0xFCF JUMPI PUSH32 0x4E487B7100000000000000000000000000000000000000000000000000000000 PUSH1 0x0 MSTORE PUSH1 0x32 PUSH1 0x4 MSTORE PUSH1 0x24 PUSH1 0x0 REVERT JUMPDEST SWAP1 PUSH1 0x0 MSTORE PUSH1 0x20 PUSH1 0x0 KECCAK256 SWAP1 PUSH1 0x2 MUL ADD PUSH1 0x0 DUP1 DUP3 ADD PUSH1 0x0 PUSH2 0x100 EXP DUP2 SLOAD SWAP1 PUSH20 0xFFFFFFFFFFFFFFFFFFFFFFFFFFFFFFFFFFFFFFFF MUL NOT AND SWAP1 SSTORE PUSH1 0x1 DUP3 ADD PUSH1 0x0 SWAP1 SSTORE POP POP CALLER PUSH1 0x0 DUP1 DUP12 PUSH20 0xFFFFFFFFFFFFFFFFFFFFFFFFFFFFFFFFFFFFFFFF AND PUSH20 0xFFFFFFFFFFFFFFFFFFFFFFFFFFFFFFFFFFFFFFFF AND DUP2 MSTORE PUSH1 0x20 ADD SWAP1 DUP2 MSTORE PUSH1 0x20 ADD PUSH1 0x0 KECCAK256 PUSH1 0x0 DUP11 DUP2 MSTORE PUSH1 0x20 ADD SWAP1 DUP2 MSTORE PUSH1 0x20 ADD PUSH1 0x0 KECCAK256 PUSH1 0x1 ADD PUSH1 0x0 PUSH2 0x100 EXP DUP2 SLOAD DUP2 PUSH20 0xFFFFFFFFFFFFFFFFFFFFFFFFFFFFFFFFFFFFFFFF MUL NOT AND SWAP1 DUP4 PUSH20 0xFFFFFFFFFFFFFFFFFFFFFFFFFFFFFFFFFFFFFFFF AND MUL OR SWAP1 SSTORE POP PUSH2 0x11E1 PUSH1 0x0 DUP1 DUP12 PUSH20 0xFFFFFFFFFFFFFFFFFFFFFFFFFFFFFFFFFFFFFFFF AND PUSH20 0xFFFFFFFFFFFFFFFFFFFFFFFFFFFFFFFFFFFFFFFF AND DUP2 MSTORE PUSH1 0x20 ADD SWAP1 DUP2 MSTORE PUSH1 0x20 ADD PUSH1 0x0 KECCAK256 PUSH1 0x0 DUP11 DUP2 MSTORE PUSH1 0x20 ADD SWAP1 DUP2 MSTORE PUSH1 0x20 ADD PUSH1 0x0 KECCAK256 PUSH1 0x0 ADD PUSH1 0x0 SWAP1 SLOAD SWAP1 PUSH2 0x100 EXP SWAP1 DIV PUSH20 0xFFFFFFFFFFFFFFFFFFFFFFFFFFFFFFFFFFFFFFFF AND PUSH1 0x0 DUP1 DUP13 PUSH20 0xFFFFFFFFFFFFFFFFFFFFFFFFFFFFFFFFFFFFFFFF AND PUSH20 0xFFFFFFFFFFFFFFFFFFFFFFFFFFFFFFFFFFFFFFFF AND DUP2 MSTORE PUSH1 0x20 ADD SWAP1 DUP2 MSTORE PUSH1 0x20 ADD PUSH1 0x0 KECCAK256 PUSH1 0x0 DUP12 DUP2 MSTORE PUSH1 0x20 ADD SWAP1 DUP2 MSTORE PUSH1 0x20 ADD PUSH1 0x0 KECCAK256 PUSH1 0x2 ADD PUSH1 0x0 SWAP1 SLOAD SWAP1 PUSH2 0x100 EXP SWAP1 DIV PUSH20 0xFFFFFFFFFFFFFFFFFFFFFFFFFFFFFFFFFFFFFFFF AND PUSH1 0x0 DUP1 DUP14 PUSH20 0xFFFFFFFFFFFFFFFFFFFFFFFFFFFFFFFFFFFFFFFF AND PUSH20 0xFFFFFFFFFFFFFFFFFFFFFFFFFFFFFFFFFFFFFFFF AND DUP2 MSTORE PUSH1 0x20 ADD SWAP1 DUP2 MSTORE PUSH1 0x20 ADD PUSH1 0x0 KECCAK256 PUSH1 0x0 DUP13 DUP2 MSTORE PUSH1 0x20 ADD SWAP1 DUP2 MSTORE PUSH1 0x20 ADD PUSH1 0x0 KECCAK256 PUSH1 0x3 ADD SLOAD PUSH2 0x1571 JUMP JUMPDEST PUSH32 0x9FA3B1BB9266E05722B54A7A564D02A274BC80D39F4AF21E6BE405480996CEBA DUP10 CALLER DUP11 DUP11 PUSH1 0x40 MLOAD PUSH2 0x1216 SWAP5 SWAP4 SWAP3 SWAP2 SWAP1 PUSH2 0x1D67 JUMP JUMPDEST PUSH1 0x40 MLOAD DUP1 SWAP2 SUB SWAP1 LOG1 POP POP POP POP POP POP POP POP POP JUMP JUMPDEST DUP2 DUP2 PUSH1 0x1 DUP1 PUSH1 0x0 DUP5 PUSH20 0xFFFFFFFFFFFFFFFFFFFFFFFFFFFFFFFFFFFFFFFF AND PUSH20 0xFFFFFFFFFFFFFFFFFFFFFFFFFFFFFFFFFFFFFFFF AND DUP2 MSTORE PUSH1 0x20 ADD SWAP1 DUP2 MSTORE PUSH1 0x20 ADD PUSH1 0x0 KECCAK256 PUSH1 0x0 DUP4 DUP2 MSTORE PUSH1 0x20 ADD SWAP1 DUP2 MSTORE PUSH1 0x20 ADD PUSH1 0x0 KECCAK256 SLOAD EQ PUSH2 0x12BD JUMPI PUSH1 0x40 MLOAD PUSH32 0x8C379A000000000000000000000000000000000000000000000000000000000 DUP2 MSTORE PUSH1 0x4 ADD PUSH2 0x12B4 SWAP1 PUSH2 0x1E60 JUMP JUMPDEST PUSH1 0x40 MLOAD DUP1 SWAP2 SUB SWAP1 REVERT JUMPDEST DUP4 DUP4 PUSH1 0x0 DUP1 DUP4 PUSH20 0xFFFFFFFFFFFFFFFFFFFFFFFFFFFFFFFFFFFFFFFF AND PUSH20 0xFFFFFFFFFFFFFFFFFFFFFFFFFFFFFFFFFFFFFFFF AND DUP2 MSTORE PUSH1 0x20 ADD SWAP1 DUP2 MSTORE PUSH1 0x20 ADD PUSH1 0x0 KECCAK256 PUSH1 0x0 DUP3 DUP2 MSTORE PUSH1 0x20 ADD SWAP1 DUP2 MSTORE PUSH1 0x20 ADD PUSH1 0x0 KECCAK256 PUSH1 0x0 ADD PUSH1 0x0 SWAP1 SLOAD SWAP1 PUSH2 0x100 EXP SWAP1 DIV PUSH20 0xFFFFFFFFFFFFFFFFFFFFFFFFFFFFFFFFFFFFFFFF AND PUSH20 0xFFFFFFFFFFFFFFFFFFFFFFFFFFFFFFFFFFFFFFFF AND CALLER PUSH20 0xFFFFFFFFFFFFFFFFFFFFFFFFFFFFFFFFFFFFFFFF AND EQ PUSH2 0x139F JUMPI PUSH1 0x40 MLOAD PUSH32 0x8C379A000000000000000000000000000000000000000000000000000000000 DUP2 MSTORE PUSH1 0x4 ADD PUSH2 0x1396 SWAP1 PUSH2 0x1EC0 JUMP JUMPDEST PUSH1 0x40 MLOAD DUP1 SWAP2 SUB SWAP1 REVERT JUMPDEST DUP6 PUSH20 0xFFFFFFFFFFFFFFFFFFFFFFFFFFFFFFFFFFFFFFFF AND PUSH4 0x42842E0E ADDRESS CALLER DUP9 PUSH1 0x40 MLOAD DUP5 PUSH4 0xFFFFFFFF AND PUSH1 0xE0 SHL DUP2 MSTORE PUSH1 0x4 ADD PUSH2 0x13DC SWAP4 SWAP3 SWAP2 SWAP1 PUSH2 0x1D30 JUMP JUMPDEST PUSH1 0x0 PUSH1 0x40 MLOAD DUP1 DUP4 SUB DUP2 PUSH1 0x0 DUP8 DUP1 EXTCODESIZE ISZERO DUP1 ISZERO PUSH2 0x13F6 JUMPI PUSH1 0x0 DUP1 REVERT JUMPDEST POP GAS CALL ISZERO DUP1 ISZERO PUSH2 0x140A JUMPI RETURNDATASIZE PUSH1 0x0 DUP1 RETURNDATACOPY RETURNDATASIZE PUSH1 0x0 REVERT JUMPDEST POP POP POP POP PUSH1 0x0 PUSH1 0x1 PUSH1 0x0 DUP9 PUSH20 0xFFFFFFFFFFFFFFFFFFFFFFFFFFFFFFFFFFFFFFFF AND PUSH20 0xFFFFFFFFFFFFFFFFFFFFFFFFFFFFFFFFFFFFFFFF AND DUP2 MSTORE PUSH1 0x20 ADD SWAP1 DUP2 MSTORE PUSH1 0x20 ADD PUSH1 0x0 KECCAK256 PUSH1 0x0 DUP8 DUP2 MSTORE PUSH1 0x20 ADD SWAP1 DUP2 MSTORE PUSH1 0x20 ADD PUSH1 0x0 KECCAK256 DUP2 SWAP1 SSTORE POP PUSH1 0x3 PUSH1 0x2 PUSH1 0x0 DUP9 PUSH20 0xFFFFFFFFFFFFFFFFFFFFFFFFFFFFFFFFFFFFFFFF AND PUSH20 0xFFFFFFFFFFFFFFFFFFFFFFFFFFFFFFFFFFFFFFFF AND DUP2 MSTORE PUSH1 0x20 ADD SWAP1 DUP2 MSTORE PUSH1 0x20 ADD PUSH1 0x0 KECCAK256 PUSH1 0x0 DUP8 DUP2 MSTORE PUSH1 0x20 ADD SWAP1 DUP2 MSTORE PUSH1 0x20 ADD PUSH1 0x0 KECCAK256 SLOAD DUP2 SLOAD DUP2 LT PUSH2 0x14EE JUMPI PUSH32 0x4E487B7100000000000000000000000000000000000000000000000000000000 PUSH1 0x0 MSTORE PUSH1 0x32 PUSH1 0x4 MSTORE PUSH1 0x24 PUSH1 0x0 REVERT JUMPDEST SWAP1 PUSH1 0x0 MSTORE PUSH1 0x20 PUSH1 0x0 KECCAK256 SWAP1 PUSH1 0x2 MUL ADD PUSH1 0x0 DUP1 DUP3 ADD PUSH1 0x0 PUSH2 0x100 EXP DUP2 SLOAD SWAP1 PUSH20 0xFFFFFFFFFFFFFFFFFFFFFFFFFFFFFFFFFFFFFFFF MUL NOT AND SWAP1 SSTORE PUSH1 0x1 DUP3 ADD PUSH1 0x0 SWAP1 SSTORE POP POP PUSH32 0xD7348FF00CF381A884144B50B3441398A48A7974EC349287DF80E18CEC9F5A31 DUP7 CALLER DUP8 PUSH1 0x40 MLOAD PUSH2 0x1561 SWAP4 SWAP3 SWAP2 SWAP1 PUSH2 0x1D30 JUMP JUMPDEST PUSH1 0x40 MLOAD DUP1 SWAP2 SUB SWAP1 LOG1 POP POP POP POP POP POP JUMP JUMPDEST PUSH1 0x0 PUSH20 0xFFFFFFFFFFFFFFFFFFFFFFFFFFFFFFFFFFFFFFFF AND DUP3 PUSH20 0xFFFFFFFFFFFFFFFFFFFFFFFFFFFFFFFFFFFFFFFF AND EQ PUSH2 0x15B5 JUMPI PUSH2 0x15B0 DUP4 DUP4 DUP4 PUSH2 0x15C5 JUMP JUMPDEST PUSH2 0x15C0 JUMP JUMPDEST PUSH2 0x15BF DUP4 DUP3 PUSH2 0x1698 JUMP JUMPDEST JUMPDEST POP POP POP JUMP JUMPDEST DUP2 PUSH20 0xFFFFFFFFFFFFFFFFFFFFFFFFFFFFFFFFFFFFFFFF AND PUSH4 0x23B872DD CALLER DUP6 DUP5 PUSH1 0x40 MLOAD DUP5 PUSH4 0xFFFFFFFF AND PUSH1 0xE0 SHL DUP2 MSTORE PUSH1 0x4 ADD PUSH2 0x1602 SWAP4 SWAP3 SWAP2 SWAP1 PUSH2 0x1D30 JUMP JUMPDEST PUSH1 0x20 PUSH1 0x40 MLOAD DUP1 DUP4 SUB DUP2 PUSH1 0x0 DUP8 DUP1 EXTCODESIZE ISZERO DUP1 ISZERO PUSH2 0x161C JUMPI PUSH1 0x0 DUP1 REVERT JUMPDEST POP GAS CALL ISZERO DUP1 ISZERO PUSH2 0x1630 JUMPI RETURNDATASIZE PUSH1 0x0 DUP1 RETURNDATACOPY RETURNDATASIZE PUSH1 0x0 REVERT JUMPDEST POP POP POP POP PUSH1 0x40 MLOAD RETURNDATASIZE PUSH1 0x1F NOT PUSH1 0x1F DUP3 ADD AND DUP3 ADD DUP1 PUSH1 0x40 MSTORE POP DUP2 ADD SWAP1 PUSH2 0x1654 SWAP2 SWAP1 PUSH2 0x19E8 JUMP JUMPDEST PUSH2 0x1693 JUMPI PUSH1 0x40 MLOAD PUSH32 0x8C379A000000000000000000000000000000000000000000000000000000000 DUP2 MSTORE PUSH1 0x4 ADD PUSH2 0x168A SWAP1 PUSH2 0x1EA0 JUMP JUMPDEST PUSH1 0x40 MLOAD DUP1 SWAP2 SUB SWAP1 REVERT JUMPDEST POP POP POP JUMP JUMPDEST PUSH1 0x0 DUP3 PUSH20 0xFFFFFFFFFFFFFFFFFFFFFFFFFFFFFFFFFFFFFFFF AND DUP3 PUSH1 0x40 MLOAD PUSH2 0x16BE SWAP1 PUSH2 0x1C91 JUMP JUMPDEST PUSH1 0x0 PUSH1 0x40 MLOAD DUP1 DUP4 SUB DUP2 DUP6 DUP8 GAS CALL SWAP3 POP POP POP RETURNDATASIZE DUP1 PUSH1 0x0 DUP2 EQ PUSH2 0x16FB JUMPI PUSH1 0x40 MLOAD SWAP2 POP PUSH1 0x1F NOT PUSH1 0x3F RETURNDATASIZE ADD AND DUP3 ADD PUSH1 0x40 MSTORE RETURNDATASIZE DUP3 MSTORE RETURNDATASIZE PUSH1 0x0 PUSH1 0x20 DUP5 ADD RETURNDATACOPY PUSH2 0x1700 JUMP JUMPDEST PUSH1 0x60 SWAP2 POP JUMPDEST POP POP SWAP1 POP DUP1 PUSH2 0x1744 JUMPI PUSH1 0x40 MLOAD PUSH32 0x8C379A000000000000000000000000000000000000000000000000000000000 DUP2 MSTORE PUSH1 0x4 ADD PUSH2 0x173B SWAP1 PUSH2 0x1F00 JUMP JUMPDEST PUSH1 0x40 MLOAD DUP1 SWAP2 SUB SWAP1 REVERT JUMPDEST POP POP POP JUMP JUMPDEST PUSH1 0x40 MLOAD DUP1 PUSH1 0x80 ADD PUSH1 0x40 MSTORE DUP1 PUSH1 0x0 PUSH20 0xFFFFFFFFFFFFFFFFFFFFFFFFFFFFFFFFFFFFFFFF AND DUP2 MSTORE PUSH1 0x20 ADD PUSH1 0x0 PUSH20 0xFFFFFFFFFFFFFFFFFFFFFFFFFFFFFFFFFFFFFFFF AND DUP2 MSTORE PUSH1 0x20 ADD PUSH1 0x0 PUSH20 0xFFFFFFFFFFFFFFFFFFFFFFFFFFFFFFFFFFFFFFFF AND DUP2 MSTORE PUSH1 0x20 ADD PUSH1 0x0 DUP2 MSTORE POP SWAP1 JUMP JUMPDEST PUSH1 0x0 DUP2 CALLDATALOAD SWAP1 POP PUSH2 0x17C2 DUP2 PUSH2 0x216A JUMP JUMPDEST SWAP3 SWAP2 POP POP JUMP JUMPDEST PUSH1 0x0 DUP2 MLOAD SWAP1 POP PUSH2 0x17D7 DUP2 PUSH2 0x216A JUMP JUMPDEST SWAP3 SWAP2 POP POP JUMP JUMPDEST PUSH1 0x0 DUP2 MLOAD SWAP1 POP PUSH2 0x17EC DUP2 PUSH2 0x2181 JUMP JUMPDEST SWAP3 SWAP2 POP POP JUMP JUMPDEST PUSH1 0x0 DUP1 DUP4 PUSH1 0x1F DUP5 ADD SLT PUSH2 0x1804 JUMPI PUSH1 0x0 DUP1 REVERT JUMPDEST DUP3 CALLDATALOAD SWAP1 POP PUSH8 0xFFFFFFFFFFFFFFFF DUP2 GT ISZERO PUSH2 0x181D JUMPI PUSH1 0x0 DUP1 REVERT JUMPDEST PUSH1 0x20 DUP4 ADD SWAP2 POP DUP4 PUSH1 0x1 DUP3 MUL DUP4 ADD GT ISZERO PUSH2 0x1835 JUMPI PUSH1 0x0 DUP1 REVERT JUMPDEST SWAP3 POP SWAP3 SWAP1 POP JUMP JUMPDEST PUSH1 0x0 DUP2 CALLDATALOAD SWAP1 POP PUSH2 0x184B DUP2 PUSH2 0x2198 JUMP JUMPDEST SWAP3 SWAP2 POP POP JUMP JUMPDEST PUSH1 0x0 PUSH1 0x20 DUP3 DUP5 SUB SLT ISZERO PUSH2 0x1863 JUMPI PUSH1 0x0 DUP1 REVERT JUMPDEST PUSH1 0x0 PUSH2 0x1871 DUP5 DUP3 DUP6 ADD PUSH2 0x17C8 JUMP JUMPDEST SWAP2 POP POP SWAP3 SWAP2 POP POP JUMP JUMPDEST PUSH1 0x0 DUP1 PUSH1 0x0 DUP1 PUSH1 0x0 PUSH1 0x80 DUP7 DUP9 SUB SLT ISZERO PUSH2 0x1892 JUMPI PUSH1 0x0 DUP1 REVERT JUMPDEST PUSH1 0x0 PUSH2 0x18A0 DUP9 DUP3 DUP10 ADD PUSH2 0x17B3 JUMP JUMPDEST SWAP6 POP POP PUSH1 0x20 PUSH2 0x18B1 DUP9 DUP3 DUP10 ADD PUSH2 0x17B3 JUMP JUMPDEST SWAP5 POP POP PUSH1 0x40 PUSH2 0x18C2 DUP9 DUP3 DUP10 ADD PUSH2 0x183C JUMP JUMPDEST SWAP4 POP POP PUSH1 0x60 DUP7 ADD CALLDATALOAD PUSH8 0xFFFFFFFFFFFFFFFF DUP2 GT ISZERO PUSH2 0x18DF JUMPI PUSH1 0x0 DUP1 REVERT JUMPDEST PUSH2 0x18EB DUP9 DUP3 DUP10 ADD PUSH2 0x17F2 JUMP JUMPDEST SWAP3 POP SWAP3 POP POP SWAP3 SWAP6 POP SWAP3 SWAP6 SWAP1 SWAP4 POP JUMP JUMPDEST PUSH1 0x0 DUP1 PUSH1 0x0 DUP1 PUSH1 0x80 DUP6 DUP8 SUB SLT ISZERO PUSH2 0x1910 JUMPI PUSH1 0x0 DUP1 REVERT JUMPDEST PUSH1 0x0 PUSH2 0x191E DUP8 DUP3 DUP9 ADD PUSH2 0x17B3 JUMP JUMPDEST SWAP5 POP POP PUSH1 0x20 PUSH2 0x192F DUP8 DUP3 DUP9 ADD PUSH2 0x17B3 JUMP JUMPDEST SWAP4 POP POP PUSH1 0x40 PUSH2 0x1940 DUP8 DUP3 DUP9 ADD PUSH2 0x183C JUMP JUMPDEST SWAP3 POP POP PUSH1 0x60 PUSH2 0x1951 DUP8 DUP3 DUP9 ADD PUSH2 0x183C JUMP JUMPDEST SWAP2 POP POP SWAP3 SWAP6 SWAP2 SWAP5 POP SWAP3 POP JUMP JUMPDEST PUSH1 0x0 DUP1 PUSH1 0x40 DUP4 DUP6 SUB SLT ISZERO PUSH2 0x1970 JUMPI PUSH1 0x0 DUP1 REVERT JUMPDEST PUSH1 0x0 PUSH2 0x197E DUP6 DUP3 DUP7 ADD PUSH2 0x17B3 JUMP JUMPDEST SWAP3 POP POP PUSH1 0x20 PUSH2 0x198F DUP6 DUP3 DUP7 ADD PUSH2 0x183C JUMP JUMPDEST SWAP2 POP POP SWAP3 POP SWAP3 SWAP1 POP JUMP JUMPDEST PUSH1 0x0 DUP1 PUSH1 0x0 PUSH1 0x60 DUP5 DUP7 SUB SLT ISZERO PUSH2 0x19AE JUMPI PUSH1 0x0 DUP1 REVERT JUMPDEST PUSH1 0x0 PUSH2 0x19BC DUP7 DUP3 DUP8 ADD PUSH2 0x17B3 JUMP JUMPDEST SWAP4 POP POP PUSH1 0x20 PUSH2 0x19CD DUP7 DUP3 DUP8 ADD PUSH2 0x183C JUMP JUMPDEST SWAP3 POP POP PUSH1 0x40 PUSH2 0x19DE DUP7 DUP3 DUP8 ADD PUSH2 0x183C JUMP JUMPDEST SWAP2 POP POP SWAP3 POP SWAP3 POP SWAP3 JUMP JUMPDEST PUSH1 0x0 PUSH1 0x20 DUP3 DUP5 SUB SLT ISZERO PUSH2 0x19FA JUMPI PUSH1 0x0 DUP1 REVERT JUMPDEST PUSH1 0x0 PUSH2 0x1A08 DUP5 DUP3 DUP6 ADD PUSH2 0x17DD JUMP JUMPDEST SWAP2 POP POP SWAP3 SWAP2 POP POP JUMP JUMPDEST PUSH1 0x0 PUSH2 0x1A1D DUP4 DUP4 PUSH2 0x1C44 JUMP JUMPDEST PUSH1 0x40 DUP4 ADD SWAP1 POP SWAP3 SWAP2 POP POP JUMP JUMPDEST PUSH2 0x1A32 DUP2 PUSH2 0x1FAB JUMP JUMPDEST DUP3 MSTORE POP POP JUMP JUMPDEST PUSH2 0x1A41 DUP2 PUSH2 0x1FAB JUMP JUMPDEST DUP3 MSTORE POP POP JUMP JUMPDEST PUSH1 0x0 PUSH2 0x1A52 DUP3 PUSH2 0x1F66 JUMP JUMPDEST PUSH2 0x1A5C DUP2 DUP6 PUSH2 0x1F7E JUMP JUMPDEST SWAP4 POP PUSH2 0x1A67 DUP4 PUSH2 0x1F56 JUMP JUMPDEST DUP1 PUSH1 0x0 JUMPDEST DUP4 DUP2 LT ISZERO PUSH2 0x1A98 JUMPI DUP2 MLOAD PUSH2 0x1A7F DUP9 DUP3 PUSH2 0x1A11 JUMP JUMPDEST SWAP8 POP PUSH2 0x1A8A DUP4 PUSH2 0x1F71 JUMP JUMPDEST SWAP3 POP POP PUSH1 0x1 DUP2 ADD SWAP1 POP PUSH2 0x1A6B JUMP JUMPDEST POP DUP6 SWAP4 POP POP POP POP SWAP3 SWAP2 POP POP JUMP JUMPDEST PUSH2 0x1AAE DUP2 PUSH2 0x1FC9 JUMP JUMPDEST DUP3 MSTORE POP POP JUMP JUMPDEST PUSH1 0x0 PUSH2 0x1AC1 PUSH1 0x1C DUP4 PUSH2 0x1F9A JUMP JUMPDEST SWAP2 POP PUSH2 0x1ACC DUP3 PUSH2 0x201F JUMP JUMPDEST PUSH1 0x20 DUP3 ADD SWAP1 POP SWAP2 SWAP1 POP JUMP JUMPDEST PUSH1 0x0 PUSH2 0x1AE4 PUSH1 0x11 DUP4 PUSH2 0x1F9A JUMP JUMPDEST SWAP2 POP PUSH2 0x1AEF DUP3 PUSH2 0x2048 JUMP JUMPDEST PUSH1 0x20 DUP3 ADD SWAP1 POP SWAP2 SWAP1 POP JUMP JUMPDEST PUSH1 0x0 PUSH2 0x1B07 PUSH1 0x15 DUP4 PUSH2 0x1F9A JUMP JUMPDEST SWAP2 POP PUSH2 0x1B12 DUP3 PUSH2 0x2071 JUMP JUMPDEST PUSH1 0x20 DUP3 ADD SWAP1 POP SWAP2 SWAP1 POP JUMP JUMPDEST PUSH1 0x0 PUSH2 0x1B2A PUSH1 0x13 DUP4 PUSH2 0x1F9A JUMP JUMPDEST SWAP2 POP PUSH2 0x1B35 DUP3 PUSH2 0x209A JUMP JUMPDEST PUSH1 0x20 DUP3 ADD SWAP1 POP SWAP2 SWAP1 POP JUMP JUMPDEST PUSH1 0x0 PUSH2 0x1B4D PUSH1 0x14 DUP4 PUSH2 0x1F9A JUMP JUMPDEST SWAP2 POP PUSH2 0x1B58 DUP3 PUSH2 0x20C3 JUMP JUMPDEST PUSH1 0x20 DUP3 ADD SWAP1 POP SWAP2 SWAP1 POP JUMP JUMPDEST PUSH1 0x0 PUSH2 0x1B70 PUSH1 0x15 DUP4 PUSH2 0x1F9A JUMP JUMPDEST SWAP2 POP PUSH2 0x1B7B DUP3 PUSH2 0x20EC JUMP JUMPDEST PUSH1 0x20 DUP3 ADD SWAP1 POP SWAP2 SWAP1 POP JUMP JUMPDEST PUSH1 0x0 PUSH2 0x1B93 PUSH1 0x0 DUP4 PUSH2 0x1F8F JUMP JUMPDEST SWAP2 POP PUSH2 0x1B9E DUP3 PUSH2 0x2115 JUMP JUMPDEST PUSH1 0x0 DUP3 ADD SWAP1 POP SWAP2 SWAP1 POP JUMP JUMPDEST PUSH1 0x0 PUSH2 0x1BB6 PUSH1 0x14 DUP4 PUSH2 0x1F9A JUMP JUMPDEST SWAP2 POP PUSH2 0x1BC1 DUP3 PUSH2 0x2118 JUMP JUMPDEST PUSH1 0x20 DUP3 ADD SWAP1 POP SWAP2 SWAP1 POP JUMP JUMPDEST PUSH1 0x0 PUSH2 0x1BD9 PUSH1 0xD DUP4 PUSH2 0x1F9A JUMP JUMPDEST SWAP2 POP PUSH2 0x1BE4 DUP3 PUSH2 0x2141 JUMP JUMPDEST PUSH1 0x20 DUP3 ADD SWAP1 POP SWAP2 SWAP1 POP JUMP JUMPDEST PUSH1 0x80 DUP3 ADD PUSH1 0x0 DUP3 ADD MLOAD PUSH2 0x1C05 PUSH1 0x0 DUP6 ADD DUP3 PUSH2 0x1A29 JUMP JUMPDEST POP PUSH1 0x20 DUP3 ADD MLOAD PUSH2 0x1C18 PUSH1 0x20 DUP6 ADD DUP3 PUSH2 0x1A29 JUMP JUMPDEST POP PUSH1 0x40 DUP3 ADD MLOAD PUSH2 0x1C2B PUSH1 0x40 DUP6 ADD DUP3 PUSH2 0x1A29 JUMP JUMPDEST POP PUSH1 0x60 DUP3 ADD MLOAD PUSH2 0x1C3E PUSH1 0x60 DUP6 ADD DUP3 PUSH2 0x1C73 JUMP JUMPDEST POP POP POP POP JUMP JUMPDEST PUSH1 0x40 DUP3 ADD PUSH1 0x0 DUP3 ADD MLOAD PUSH2 0x1C5A PUSH1 0x0 DUP6 ADD DUP3 PUSH2 0x1A29 JUMP JUMPDEST POP PUSH1 0x20 DUP3 ADD MLOAD PUSH2 0x1C6D PUSH1 0x20 DUP6 ADD DUP3 PUSH2 0x1C73 JUMP JUMPDEST POP POP POP POP JUMP JUMPDEST PUSH2 0x1C7C DUP2 PUSH2 0x2015 JUMP JUMPDEST DUP3 MSTORE POP POP JUMP JUMPDEST PUSH2 0x1C8B DUP2 PUSH2 0x2015 JUMP JUMPDEST DUP3 MSTORE POP POP JUMP JUMPDEST PUSH1 0x0 PUSH2 0x1C9C DUP3 PUSH2 0x1B86 JUMP JUMPDEST SWAP2 POP DUP2 SWAP1 POP SWAP2 SWAP1 POP JUMP JUMPDEST PUSH1 0x0 PUSH1 0x40 DUP3 ADD SWAP1 POP PUSH2 0x1CBB PUSH1 0x0 DUP4 ADD DUP6 PUSH2 0x1A38 JUMP JUMPDEST PUSH2 0x1CC8 PUSH1 0x20 DUP4 ADD DUP5 PUSH2 0x1A38 JUMP JUMPDEST SWAP4 SWAP3 POP POP POP JUMP JUMPDEST PUSH1 0x0 PUSH1 0xC0 DUP3 ADD SWAP1 POP PUSH2 0x1CE4 PUSH1 0x0 DUP4 ADD DUP10 PUSH2 0x1A38 JUMP JUMPDEST PUSH2 0x1CF1 PUSH1 0x20 DUP4 ADD DUP9 PUSH2 0x1A38 JUMP JUMPDEST PUSH2 0x1CFE PUSH1 0x40 DUP4 ADD DUP8 PUSH2 0x1A38 JUMP JUMPDEST PUSH2 0x1D0B PUSH1 0x60 DUP4 ADD DUP7 PUSH2 0x1C82 JUMP JUMPDEST PUSH2 0x1D18 PUSH1 0x80 DUP4 ADD DUP6 PUSH2 0x1C82 JUMP JUMPDEST PUSH2 0x1D25 PUSH1 0xA0 DUP4 ADD DUP5 PUSH2 0x1C82 JUMP JUMPDEST SWAP8 SWAP7 POP POP POP POP POP POP POP JUMP JUMPDEST PUSH1 0x0 PUSH1 0x60 DUP3 ADD SWAP1 POP PUSH2 0x1D45 PUSH1 0x0 DUP4 ADD DUP7 PUSH2 0x1A38 JUMP JUMPDEST PUSH2 0x1D52 PUSH1 0x20 DUP4 ADD DUP6 PUSH2 0x1A38 JUMP JUMPDEST PUSH2 0x1D5F PUSH1 0x40 DUP4 ADD DUP5 PUSH2 0x1C82 JUMP JUMPDEST SWAP5 SWAP4 POP POP POP POP JUMP JUMPDEST PUSH1 0x0 PUSH1 0x80 DUP3 ADD SWAP1 POP PUSH2 0x1D7C PUSH1 0x0 DUP4 ADD DUP8 PUSH2 0x1A38 JUMP JUMPDEST PUSH2 0x1D89 PUSH1 0x20 DUP4 ADD DUP7 PUSH2 0x1A38 JUMP JUMPDEST PUSH2 0x1D96 PUSH1 0x40 DUP4 ADD DUP6 PUSH2 0x1C82 JUMP JUMPDEST PUSH2 0x1DA3 PUSH1 0x60 DUP4 ADD DUP5 PUSH2 0x1C82 JUMP JUMPDEST SWAP6 SWAP5 POP POP POP POP POP JUMP JUMPDEST PUSH1 0x0 PUSH1 0x60 DUP3 ADD SWAP1 POP PUSH2 0x1DC1 PUSH1 0x0 DUP4 ADD DUP7 PUSH2 0x1A38 JUMP JUMPDEST PUSH2 0x1DCE PUSH1 0x20 DUP4 ADD DUP6 PUSH2 0x1C82 JUMP JUMPDEST PUSH2 0x1DDB PUSH1 0x40 DUP4 ADD DUP5 PUSH2 0x1C82 JUMP JUMPDEST SWAP5 SWAP4 POP POP POP POP JUMP JUMPDEST PUSH1 0x0 PUSH1 0x20 DUP3 ADD SWAP1 POP DUP2 DUP2 SUB PUSH1 0x0 DUP4 ADD MSTORE PUSH2 0x1DFD DUP2 DUP5 PUSH2 0x1A47 JUMP JUMPDEST SWAP1 POP SWAP3 SWAP2 POP POP JUMP JUMPDEST PUSH1 0x0 PUSH1 0x20 DUP3 ADD SWAP1 POP PUSH2 0x1E1A PUSH1 0x0 DUP4 ADD DUP5 PUSH2 0x1AA5 JUMP JUMPDEST SWAP3 SWAP2 POP POP JUMP JUMPDEST PUSH1 0x0 PUSH1 0x20 DUP3 ADD SWAP1 POP DUP2 DUP2 SUB PUSH1 0x0 DUP4 ADD MSTORE PUSH2 0x1E39 DUP2 PUSH2 0x1AB4 JUMP JUMPDEST SWAP1 POP SWAP2 SWAP1 POP JUMP JUMPDEST PUSH1 0x0 PUSH1 0x20 DUP3 ADD SWAP1 POP DUP2 DUP2 SUB PUSH1 0x0 DUP4 ADD MSTORE PUSH2 0x1E59 DUP2 PUSH2 0x1AD7 JUMP JUMPDEST SWAP1 POP SWAP2 SWAP1 POP JUMP JUMPDEST PUSH1 0x0 PUSH1 0x20 DUP3 ADD SWAP1 POP DUP2 DUP2 SUB PUSH1 0x0 DUP4 ADD MSTORE PUSH2 0x1E79 DUP2 PUSH2 0x1AFA JUMP JUMPDEST SWAP1 POP SWAP2 SWAP1 POP JUMP JUMPDEST PUSH1 0x0 PUSH1 0x20 DUP3 ADD SWAP1 POP DUP2 DUP2 SUB PUSH1 0x0 DUP4 ADD MSTORE PUSH2 0x1E99 DUP2 PUSH2 0x1B1D JUMP JUMPDEST SWAP1 POP SWAP2 SWAP1 POP JUMP JUMPDEST PUSH1 0x0 PUSH1 0x20 DUP3 ADD SWAP1 POP DUP2 DUP2 SUB PUSH1 0x0 DUP4 ADD MSTORE PUSH2 0x1EB9 DUP2 PUSH2 0x1B40 JUMP JUMPDEST SWAP1 POP SWAP2 SWAP1 POP JUMP JUMPDEST PUSH1 0x0 PUSH1 0x20 DUP3 ADD SWAP1 POP DUP2 DUP2 SUB PUSH1 0x0 DUP4 ADD MSTORE PUSH2 0x1ED9 DUP2 PUSH2 0x1B63 JUMP JUMPDEST SWAP1 POP SWAP2 SWAP1 POP JUMP JUMPDEST PUSH1 0x0 PUSH1 0x20 DUP3 ADD SWAP1 POP DUP2 DUP2 SUB PUSH1 0x0 DUP4 ADD MSTORE PUSH2 0x1EF9 DUP2 PUSH2 0x1BA9 JUMP JUMPDEST SWAP1 POP SWAP2 SWAP1 POP JUMP JUMPDEST PUSH1 0x0 PUSH1 0x20 DUP3 ADD SWAP1 POP DUP2 DUP2 SUB PUSH1 0x0 DUP4 ADD MSTORE PUSH2 0x1F19 DUP2 PUSH2 0x1BCC JUMP JUMPDEST SWAP1 POP SWAP2 SWAP1 POP JUMP JUMPDEST PUSH1 0x0 PUSH1 0x80 DUP3 ADD SWAP1 POP PUSH2 0x1F35 PUSH1 0x0 DUP4 ADD DUP5 PUSH2 0x1BEF JUMP JUMPDEST SWAP3 SWAP2 POP POP JUMP JUMPDEST PUSH1 0x0 PUSH1 0x20 DUP3 ADD SWAP1 POP PUSH2 0x1F50 PUSH1 0x0 DUP4 ADD DUP5 PUSH2 0x1C82 JUMP JUMPDEST SWAP3 SWAP2 POP POP JUMP JUMPDEST PUSH1 0x0 DUP2 SWAP1 POP PUSH1 0x20 DUP3 ADD SWAP1 POP SWAP2 SWAP1 POP JUMP JUMPDEST PUSH1 0x0 DUP2 MLOAD SWAP1 POP SWAP2 SWAP1 POP JUMP JUMPDEST PUSH1 0x0 PUSH1 0x20 DUP3 ADD SWAP1 POP SWAP2 SWAP1 POP JUMP JUMPDEST PUSH1 0x0 DUP3 DUP3 MSTORE PUSH1 0x20 DUP3 ADD SWAP1 POP SWAP3 SWAP2 POP POP JUMP JUMPDEST PUSH1 0x0 DUP2 SWAP1 POP SWAP3 SWAP2 POP POP JUMP JUMPDEST PUSH1 0x0 DUP3 DUP3 MSTORE PUSH1 0x20 DUP3 ADD SWAP1 POP SWAP3 SWAP2 POP POP JUMP JUMPDEST PUSH1 0x0 PUSH2 0x1FB6 DUP3 PUSH2 0x1FF5 JUMP JUMPDEST SWAP1 POP SWAP2 SWAP1 POP JUMP JUMPDEST PUSH1 0x0 DUP2 ISZERO ISZERO SWAP1 POP SWAP2 SWAP1 POP JUMP JUMPDEST PUSH1 0x0 PUSH32 0xFFFFFFFF00000000000000000000000000000000000000000000000000000000 DUP3 AND SWAP1 POP SWAP2 SWAP1 POP JUMP JUMPDEST PUSH1 0x0 PUSH20 0xFFFFFFFFFFFFFFFFFFFFFFFFFFFFFFFFFFFFFFFF DUP3 AND SWAP1 POP SWAP2 SWAP1 POP JUMP JUMPDEST PUSH1 0x0 DUP2 SWAP1 POP SWAP2 SWAP1 POP JUMP JUMPDEST PUSH32 0x4E6674206E6F7420617070726F76656420746F20636F6E747261637400000000 PUSH1 0x0 DUP3 ADD MSTORE POP JUMP JUMPDEST PUSH32 0x50726963652063616E6E6F742062652030000000000000000000000000000000 PUSH1 0x0 DUP3 ADD MSTORE POP JUMP JUMPDEST PUSH32 0x4E6674206E6F7420696E2066697865642073616C650000000000000000000000 PUSH1 0x0 DUP3 ADD MSTORE POP JUMP JUMPDEST PUSH32 0x4E667420616C726561647920696E2073616C6500000000000000000000000000 PUSH1 0x0 DUP3 ADD MSTORE POP JUMP JUMPDEST PUSH32 0x616C6C6F77616E6365206E6F7420656E6F756768000000000000000000000000 PUSH1 0x0 DUP3 ADD MSTORE POP JUMP JUMPDEST PUSH32 0x596F7520617265206E6F74206E6674206F776E65720000000000000000000000 PUSH1 0x0 DUP3 ADD MSTORE POP JUMP JUMPDEST POP JUMP JUMPDEST PUSH32 0x627579205072696365206E6F7420656E6F756768000000000000000000000000 PUSH1 0x0 DUP3 ADD MSTORE POP JUMP JUMPDEST PUSH32 0x726566756E64206661696C656400000000000000000000000000000000000000 PUSH1 0x0 DUP3 ADD MSTORE POP JUMP JUMPDEST PUSH2 0x2173 DUP2 PUSH2 0x1FAB JUMP JUMPDEST DUP2 EQ PUSH2 0x217E JUMPI PUSH1 0x0 DUP1 REVERT JUMPDEST POP JUMP JUMPDEST PUSH2 0x218A DUP2 PUSH2 0x1FBD JUMP JUMPDEST DUP2 EQ PUSH2 0x2195 JUMPI PUSH1 0x0 DUP1 REVERT JUMPDEST POP JUMP JUMPDEST PUSH2 0x21A1 DUP2 PUSH2 0x2015 JUMP JUMPDEST DUP2 EQ PUSH2 0x21AC JUMPI PUSH1 0x0 DUP1 REVERT JUMPDEST POP JUMP INVALID LOG2 PUSH5 0x6970667358 0x22 SLT KECCAK256 PUSH29 0xD7FD5EAEB025DB02829475C86B62E2DC291984A2CA15FD11DC2031049E DUP10 CALLDATALOAD PUSH5 0x736F6C6343 STOP ADDMOD DIV STOP CALLER "
				},
				"gasEstimates": {
					"creation": {
						"codeDepositCost": "1735400",
						"executionCost": "1827",
						"totalCost": "1737227"
					},
					"external": {
						"buyFromFixedSale(address,uint256,uint256)": "infinite",
						"cancelFixedsale(address,uint256)": "infinite",
						"getFixedSale(address,uint256)": "infinite",
						"getFixedSaleNFT()": "infinite",
						"nftFixedSale(address,address,uint256,uint256)": "infinite",
						"nftSaleStatus(address,uint256)": "infinite",
						"onERC721Received(address,address,uint256,bytes)": "infinite",
						"updateFixedSalePrice(address,uint256,uint256)": "infinite"
					},
					"internal": {
						"_isTokenOrCoin(address,address,uint256)": "infinite",
						"_nativeAmountTransfer(address,uint256)": "infinite",
						"_tokenAmountTransfer(address,address,uint256)": "infinite"
					}
				},
				"methodIdentifiers": {
					"buyFromFixedSale(address,uint256,uint256)": "baf4371e",
					"cancelFixedsale(address,uint256)": "d3a6a6c9",
					"getFixedSale(address,uint256)": "8c3417da",
					"getFixedSaleNFT()": "9f085a00",
					"nftFixedSale(address,address,uint256,uint256)": "69a6d12e",
					"nftSaleStatus(address,uint256)": "6916462f",
					"onERC721Received(address,address,uint256,bytes)": "150b7a02",
					"updateFixedSalePrice(address,uint256,uint256)": "4676adca"
				}
			},
			"storageLayout": {
				"storage": [
					{
						"astId": 565,
						"contract": "NFT-Contracts/contracts/market_pri/nft_market.sol:NFTMarketplace",
						"label": "nftContractFixedSale",
						"offset": 0,
						"slot": "0",
						"type": "t_mapping(t_address,t_mapping(t_uint256,t_struct(FixedSale)553_storage))"
					},
					{
						"astId": 571,
						"contract": "NFT-Contracts/contracts/market_pri/nft_market.sol:NFTMarketplace",
						"label": "nftSaleStatus",
						"offset": 0,
						"slot": "1",
						"type": "t_mapping(t_address,t_mapping(t_uint256,t_uint256))"
					},
					{
						"astId": 577,
						"contract": "NFT-Contracts/contracts/market_pri/nft_market.sol:NFTMarketplace",
						"label": "indexFixedSaleNFT",
						"offset": 0,
						"slot": "2",
						"type": "t_mapping(t_address,t_mapping(t_uint256,t_uint256))"
					},
					{
						"astId": 581,
						"contract": "NFT-Contracts/contracts/market_pri/nft_market.sol:NFTMarketplace",
						"label": "fixedSaleNFT",
						"offset": 0,
						"slot": "3",
						"type": "t_array(t_struct(SaleInfo)558_storage)dyn_storage"
					}
				],
				"types": {
					"t_address": {
						"encoding": "inplace",
						"label": "address",
						"numberOfBytes": "20"
					},
					"t_array(t_struct(SaleInfo)558_storage)dyn_storage": {
						"base": "t_struct(SaleInfo)558_storage",
						"encoding": "dynamic_array",
						"label": "struct NFTMarketplace.SaleInfo[]",
						"numberOfBytes": "32"
					},
					"t_mapping(t_address,t_mapping(t_uint256,t_struct(FixedSale)553_storage))": {
						"encoding": "mapping",
						"key": "t_address",
						"label": "mapping(address => mapping(uint256 => struct NFTMarketplace.FixedSale))",
						"numberOfBytes": "32",
						"value": "t_mapping(t_uint256,t_struct(FixedSale)553_storage)"
					},
					"t_mapping(t_address,t_mapping(t_uint256,t_uint256))": {
						"encoding": "mapping",
						"key": "t_address",
						"label": "mapping(address => mapping(uint256 => uint256))",
						"numberOfBytes": "32",
						"value": "t_mapping(t_uint256,t_uint256)"
					},
					"t_mapping(t_uint256,t_struct(FixedSale)553_storage)": {
						"encoding": "mapping",
						"key": "t_uint256",
						"label": "mapping(uint256 => struct NFTMarketplace.FixedSale)",
						"numberOfBytes": "32",
						"value": "t_struct(FixedSale)553_storage"
					},
					"t_mapping(t_uint256,t_uint256)": {
						"encoding": "mapping",
						"key": "t_uint256",
						"label": "mapping(uint256 => uint256)",
						"numberOfBytes": "32",
						"value": "t_uint256"
					},
					"t_struct(FixedSale)553_storage": {
						"encoding": "inplace",
						"label": "struct NFTMarketplace.FixedSale",
						"members": [
							{
								"astId": 546,
								"contract": "NFT-Contracts/contracts/market_pri/nft_market.sol:NFTMarketplace",
								"label": "nftSeller",
								"offset": 0,
								"slot": "0",
								"type": "t_address"
							},
							{
								"astId": 548,
								"contract": "NFT-Contracts/contracts/market_pri/nft_market.sol:NFTMarketplace",
								"label": "nftBuyer",
								"offset": 0,
								"slot": "1",
								"type": "t_address"
							},
							{
								"astId": 550,
								"contract": "NFT-Contracts/contracts/market_pri/nft_market.sol:NFTMarketplace",
								"label": "erc20",
								"offset": 0,
								"slot": "2",
								"type": "t_address"
							},
							{
								"astId": 552,
								"contract": "NFT-Contracts/contracts/market_pri/nft_market.sol:NFTMarketplace",
								"label": "salePrice",
								"offset": 0,
								"slot": "3",
								"type": "t_uint256"
							}
						],
						"numberOfBytes": "128"
					},
					"t_struct(SaleInfo)558_storage": {
						"encoding": "inplace",
						"label": "struct NFTMarketplace.SaleInfo",
						"members": [
							{
								"astId": 555,
								"contract": "NFT-Contracts/contracts/market_pri/nft_market.sol:NFTMarketplace",
								"label": "_nftContractAddress",
								"offset": 0,
								"slot": "0",
								"type": "t_address"
							},
							{
								"astId": 557,
								"contract": "NFT-Contracts/contracts/market_pri/nft_market.sol:NFTMarketplace",
								"label": "_tokenID",
								"offset": 0,
								"slot": "1",
								"type": "t_uint256"
							}
						],
						"numberOfBytes": "64"
					},
					"t_uint256": {
						"encoding": "inplace",
						"label": "uint256",
						"numberOfBytes": "32"
					}
				}
			},
			"userdoc": {
				"kind": "user",
				"methods": {},
				"version": 1
			}
		}
	}
}