{
	"NFT-Contracts/contracts/market_pri/NewMarket.sol": {
		"NFTMarketplace": {
			"abi": [
				{
					"anonymous": false,
					"inputs": [
						{
							"indexed": false,
							"internalType": "address",
							"name": "nftContractAddress",
							"type": "address"
						},
						{
							"indexed": false,
							"internalType": "uint256",
							"name": "tokenId",
							"type": "uint256"
						},
						{
							"indexed": false,
							"internalType": "address",
							"name": "nftSeller",
							"type": "address"
						}
					],
					"name": "CancelNftAuctionSale",
					"type": "event"
				},
				{
					"anonymous": false,
					"inputs": [
						{
							"indexed": false,
							"internalType": "address",
							"name": "nftContractAddress",
							"type": "address"
						},
						{
							"indexed": false,
							"internalType": "address",
							"name": "nftSeller",
							"type": "address"
						},
						{
							"indexed": false,
							"internalType": "uint256",
							"name": "tokenId",
							"type": "uint256"
						}
					],
					"name": "CancelNftFixedSale",
					"type": "event"
				},
				{
					"anonymous": false,
					"inputs": [
						{
							"indexed": false,
							"internalType": "address",
							"name": "nftContractAddress",
							"type": "address"
						},
						{
							"indexed": false,
							"internalType": "uint256",
							"name": "tokenId",
							"type": "uint256"
						},
						{
							"indexed": false,
							"internalType": "uint256",
							"name": "finalBidPrice",
							"type": "uint256"
						},
						{
							"indexed": false,
							"internalType": "address",
							"name": "nftBidder",
							"type": "address"
						}
					],
					"name": "NftAuctionBidPriceUpdate",
					"type": "event"
				},
				{
					"anonymous": false,
					"inputs": [
						{
							"indexed": false,
							"internalType": "address",
							"name": "nftContractAddress",
							"type": "address"
						},
						{
							"indexed": false,
							"internalType": "address",
							"name": "nftSeller",
							"type": "address"
						},
						{
							"indexed": false,
							"internalType": "address",
							"name": "erc20",
							"type": "address"
						},
						{
							"indexed": false,
							"internalType": "uint256",
							"name": "tokenId",
							"type": "uint256"
						},
						{
							"indexed": false,
							"internalType": "uint256",
							"name": "auctionStart",
							"type": "uint256"
						},
						{
							"indexed": false,
							"internalType": "uint256",
							"name": "auctionEnd",
							"type": "uint256"
						},
						{
							"indexed": false,
							"internalType": "uint256",
							"name": "minPrice",
							"type": "uint256"
						}
					],
					"name": "NftAuctionSale",
					"type": "event"
				},
				{
					"anonymous": false,
					"inputs": [
						{
							"indexed": false,
							"internalType": "address",
							"name": "nftContractAddress",
							"type": "address"
						},
						{
							"indexed": false,
							"internalType": "uint256",
							"name": "tokenId",
							"type": "uint256"
						},
						{
							"indexed": false,
							"internalType": "address",
							"name": "nftHighestBidder",
							"type": "address"
						},
						{
							"indexed": false,
							"internalType": "uint256",
							"name": "nftHighestBid",
							"type": "uint256"
						},
						{
							"indexed": false,
							"internalType": "address",
							"name": "nftSeller",
							"type": "address"
						}
					],
					"name": "NftAuctionSettle",
					"type": "event"
				},
				{
					"anonymous": false,
					"inputs": [
						{
							"indexed": false,
							"internalType": "address",
							"name": "nftContractAddress",
							"type": "address"
						},
						{
							"indexed": false,
							"internalType": "uint256",
							"name": "tokenId",
							"type": "uint256"
						},
						{
							"indexed": false,
							"internalType": "uint256",
							"name": "bidPrice",
							"type": "uint256"
						},
						{
							"indexed": false,
							"internalType": "address",
							"name": "nftBidder",
							"type": "address"
						}
					],
					"name": "NftBidPrice",
					"type": "event"
				},
				{
					"anonymous": false,
					"inputs": [
						{
							"indexed": false,
							"internalType": "address",
							"name": "nftContractAddress",
							"type": "address"
						},
						{
							"indexed": false,
							"internalType": "address",
							"name": "nftBuyer",
							"type": "address"
						},
						{
							"indexed": false,
							"internalType": "uint256",
							"name": "tokenId",
							"type": "uint256"
						},
						{
							"indexed": false,
							"internalType": "uint256",
							"name": "nftBuyPrice",
							"type": "uint256"
						}
					],
					"name": "NftBuyFromFixedSale",
					"type": "event"
				},
				{
					"anonymous": false,
					"inputs": [
						{
							"indexed": false,
							"internalType": "address",
							"name": "nftContractAddress",
							"type": "address"
						},
						{
							"indexed": false,
							"internalType": "uint256",
							"name": "tokenId",
							"type": "uint256"
						},
						{
							"indexed": false,
							"internalType": "uint256",
							"name": "updateBuyNowPrice",
							"type": "uint256"
						},
						{
							"indexed": false,
							"internalType": "address",
							"name": "nftOwner",
							"type": "address"
						}
					],
					"name": "NftBuyNowPriceUpdate",
					"type": "event"
				},
				{
					"anonymous": false,
					"inputs": [
						{
							"indexed": false,
							"internalType": "address",
							"name": "nftContractAddress",
							"type": "address"
						},
						{
							"indexed": false,
							"internalType": "address",
							"name": "nftSeller",
							"type": "address"
						},
						{
							"indexed": false,
							"internalType": "address",
							"name": "erc20",
							"type": "address"
						},
						{
							"indexed": false,
							"internalType": "uint256",
							"name": "tokenId",
							"type": "uint256"
						},
						{
							"indexed": false,
							"internalType": "uint256",
							"name": "salePrice",
							"type": "uint256"
						},
						{
							"indexed": false,
							"internalType": "uint256",
							"name": "timeOfSale",
							"type": "uint256"
						}
					],
					"name": "NftFixedSale",
					"type": "event"
				},
				{
					"anonymous": false,
					"inputs": [
						{
							"indexed": false,
							"internalType": "address",
							"name": "nftContractAddress",
							"type": "address"
						},
						{
							"indexed": false,
							"internalType": "uint256",
							"name": "tokenId",
							"type": "uint256"
						},
						{
							"indexed": false,
							"internalType": "uint256",
							"name": "updateSalePrice",
							"type": "uint256"
						}
					],
					"name": "NftFixedSalePriceUpdated",
					"type": "event"
				},
				{
					"anonymous": false,
					"inputs": [
						{
							"indexed": false,
							"internalType": "address",
							"name": "nftContractAddress",
							"type": "address"
						},
						{
							"indexed": false,
							"internalType": "uint256",
							"name": "tokenId",
							"type": "uint256"
						},
						{
							"indexed": false,
							"internalType": "address",
							"name": "bidClaimer",
							"type": "address"
						}
					],
					"name": "withdrawNftBid",
					"type": "event"
				},
				{
					"inputs": [
						{
							"internalType": "address",
							"name": "_nftContractAddress",
							"type": "address"
						},
						{
							"internalType": "uint256",
							"name": "_tokenId",
							"type": "uint256"
						}
					],
					"name": "_cancelAuctionSale",
					"outputs": [],
					"stateMutability": "nonpayable",
					"type": "function"
				},
				{
					"inputs": [
						{
							"internalType": "address",
							"name": "_nftContractAddress",
							"type": "address"
						},
						{
							"internalType": "uint256",
							"name": "_tokenId",
							"type": "uint256"
						},
						{
							"internalType": "uint256",
							"name": "_amount",
							"type": "uint256"
						}
					],
					"name": "buyFromFixedSale",
					"outputs": [],
					"stateMutability": "payable",
					"type": "function"
				},
				{
					"inputs": [
						{
							"internalType": "address",
							"name": "_nftContractAddress",
							"type": "address"
						},
						{
							"internalType": "uint256",
							"name": "_tokenId",
							"type": "uint256"
						}
					],
					"name": "cancelFixedsale",
					"outputs": [],
					"stateMutability": "nonpayable",
					"type": "function"
				},
				{
					"inputs": [
						{
							"internalType": "address",
							"name": "_nftContractAddress",
							"type": "address"
						},
						{
							"internalType": "address",
							"name": "_erc20",
							"type": "address"
						},
						{
							"internalType": "uint256",
							"name": "_tokenId",
							"type": "uint256"
						},
						{
							"internalType": "uint256",
							"name": "_auctionStart",
							"type": "uint256"
						},
						{
							"internalType": "uint256",
							"name": "_auctionEnd",
							"type": "uint256"
						},
						{
							"internalType": "uint256",
							"name": "_minPrice",
							"type": "uint256"
						}
					],
					"name": "createNftAuctionSale",
					"outputs": [],
					"stateMutability": "nonpayable",
					"type": "function"
				},
				{
					"inputs": [
						{
							"internalType": "address",
							"name": "_nftContractAddress",
							"type": "address"
						},
						{
							"internalType": "uint256",
							"name": "_tokenId",
							"type": "uint256"
						}
					],
					"name": "getFixedSale",
					"outputs": [
						{
							"components": [
								{
									"internalType": "address",
									"name": "nftSeller",
									"type": "address"
								},
								{
									"internalType": "address",
									"name": "nftBuyer",
									"type": "address"
								},
								{
									"internalType": "address",
									"name": "erc20",
									"type": "address"
								},
								{
									"internalType": "uint256",
									"name": "salePrice",
									"type": "uint256"
								}
							],
							"internalType": "struct NFTMarketplace.FixedSale",
							"name": "",
							"type": "tuple"
						}
					],
					"stateMutability": "view",
					"type": "function"
				},
				{
					"inputs": [],
					"name": "getFixedSaleNFT",
					"outputs": [
						{
							"components": [
								{
									"internalType": "address",
									"name": "_nftContractAddress",
									"type": "address"
								},
								{
									"internalType": "uint256",
									"name": "_tokenID",
									"type": "uint256"
								}
							],
							"internalType": "struct NFTMarketplace.SaleInfo[]",
							"name": "",
							"type": "tuple[]"
						}
					],
					"stateMutability": "view",
					"type": "function"
				},
				{
					"inputs": [
						{
							"internalType": "address",
							"name": "_nftContractAddress",
							"type": "address"
						},
						{
							"internalType": "uint256",
							"name": "_tokenId",
							"type": "uint256"
						}
					],
					"name": "getNftAuctionSaleDetails",
					"outputs": [
						{
							"components": [
								{
									"internalType": "uint256",
									"name": "auctionStart",
									"type": "uint256"
								},
								{
									"internalType": "uint256",
									"name": "auctionEnd",
									"type": "uint256"
								},
								{
									"internalType": "uint256",
									"name": "minPrice",
									"type": "uint256"
								},
								{
									"internalType": "uint256",
									"name": "nftHighestBid",
									"type": "uint256"
								},
								{
									"internalType": "address",
									"name": "nftHighestBidder",
									"type": "address"
								},
								{
									"internalType": "address",
									"name": "nftSeller",
									"type": "address"
								},
								{
									"internalType": "address",
									"name": "erc20",
									"type": "address"
								}
							],
							"internalType": "struct NFTMarketplace.Auction",
							"name": "",
							"type": "tuple"
						}
					],
					"stateMutability": "view",
					"type": "function"
				},
				{
					"inputs": [
						{
							"internalType": "address",
							"name": "_nftContractAddress",
							"type": "address"
						},
						{
							"internalType": "uint256",
							"name": "_tokenId",
							"type": "uint256"
						},
						{
							"internalType": "uint256",
							"name": "_bidPrice",
							"type": "uint256"
						}
					],
					"name": "makeBid",
					"outputs": [],
					"stateMutability": "payable",
					"type": "function"
				},
				{
					"inputs": [
						{
							"internalType": "address",
							"name": "_nftContractAddress",
							"type": "address"
						},
						{
							"internalType": "address",
							"name": "_erc20",
							"type": "address"
						},
						{
							"internalType": "uint256",
							"name": "_tokenId",
							"type": "uint256"
						},
						{
							"internalType": "uint256",
							"name": "_salePrice",
							"type": "uint256"
						}
					],
					"name": "nftFixedSale",
					"outputs": [],
					"stateMutability": "nonpayable",
					"type": "function"
				},
				{
					"inputs": [
						{
							"internalType": "address",
							"name": "",
							"type": "address"
						},
						{
							"internalType": "uint256",
							"name": "",
							"type": "uint256"
						}
					],
					"name": "nftSaleStatus",
					"outputs": [
						{
							"internalType": "uint256",
							"name": "",
							"type": "uint256"
						}
					],
					"stateMutability": "view",
					"type": "function"
				},
				{
					"inputs": [
						{
							"internalType": "address",
							"name": "",
							"type": "address"
						},
						{
							"internalType": "address",
							"name": "from",
							"type": "address"
						},
						{
							"internalType": "uint256",
							"name": "",
							"type": "uint256"
						},
						{
							"internalType": "bytes",
							"name": "",
							"type": "bytes"
						}
					],
					"name": "onERC721Received",
					"outputs": [
						{
							"internalType": "bytes4",
							"name": "",
							"type": "bytes4"
						}
					],
					"stateMutability": "pure",
					"type": "function"
				},
				{
					"inputs": [
						{
							"internalType": "address",
							"name": "_nftContractAddress",
							"type": "address"
						},
						{
							"internalType": "uint256",
							"name": "_tokenId",
							"type": "uint256"
						}
					],
					"name": "settleAuction",
					"outputs": [],
					"stateMutability": "nonpayable",
					"type": "function"
				},
				{
					"inputs": [
						{
							"internalType": "address",
							"name": "_nftContractAddress",
							"type": "address"
						},
						{
							"internalType": "uint256",
							"name": "_tokenId",
							"type": "uint256"
						},
						{
							"internalType": "uint256",
							"name": "_updateSalePrice",
							"type": "uint256"
						}
					],
					"name": "updateFixedSalePrice",
					"outputs": [],
					"stateMutability": "nonpayable",
					"type": "function"
				},
				{
					"inputs": [
						{
							"internalType": "address",
							"name": "_nftContractAddress",
							"type": "address"
						},
						{
							"internalType": "uint256",
							"name": "_tokenId",
							"type": "uint256"
						},
						{
							"internalType": "uint256",
							"name": "_updateBidPrice",
							"type": "uint256"
						}
					],
					"name": "updateTheBidPrice",
					"outputs": [],
					"stateMutability": "payable",
					"type": "function"
				},
				{
					"inputs": [
						{
							"internalType": "address",
							"name": "",
							"type": "address"
						},
						{
							"internalType": "uint256",
							"name": "",
							"type": "uint256"
						},
						{
							"internalType": "address",
							"name": "",
							"type": "address"
						}
					],
					"name": "userBidPriceOnNFT",
					"outputs": [
						{
							"internalType": "uint256",
							"name": "",
							"type": "uint256"
						}
					],
					"stateMutability": "view",
					"type": "function"
				},
				{
					"inputs": [
						{
							"internalType": "address",
							"name": "_nftContractAddress",
							"type": "address"
						},
						{
							"internalType": "uint256",
							"name": "_tokenId",
							"type": "uint256"
						}
					],
					"name": "withdrawBid",
					"outputs": [],
					"stateMutability": "nonpayable",
					"type": "function"
				},
				{
					"stateMutability": "payable",
					"type": "receive"
				}
			],
			"devdoc": {
				"kind": "dev",
				"methods": {},
				"version": 1
			},
			"evm": {
				"assembly": "    /* \"NFT-Contracts/contracts/market_pri/NewMarket.sol\":365:20812  contract NFTMarketplace {\r... */\n  mstore(0x40, 0x80)\n  callvalue\n  dup1\n  iszero\n  tag_1\n  jumpi\n  0x00\n  dup1\n  revert\ntag_1:\n  pop\n  dataSize(sub_0)\n  dup1\n  dataOffset(sub_0)\n  0x00\n  codecopy\n  0x00\n  return\nstop\n\nsub_0: assembly {\n        /* \"NFT-Contracts/contracts/market_pri/NewMarket.sol\":365:20812  contract NFTMarketplace {\r... */\n      mstore(0x40, 0x80)\n      jumpi(tag_1, lt(calldatasize, 0x04))\n      shr(0xe0, calldataload(0x00))\n      dup1\n      0x6f8c9b1b\n      gt\n      tag_19\n      jumpi\n      dup1\n      0x9f085a00\n      gt\n      tag_20\n      jumpi\n      dup1\n      0x9f085a00\n      eq\n      tag_15\n      jumpi\n      dup1\n      0xbaf4371e\n      eq\n      tag_16\n      jumpi\n      dup1\n      0xcf42b7e6\n      eq\n      tag_17\n      jumpi\n      dup1\n      0xd3a6a6c9\n      eq\n      tag_18\n      jumpi\n      jump(tag_2)\n    tag_20:\n      dup1\n      0x6f8c9b1b\n      eq\n      tag_11\n      jumpi\n      dup1\n      0x6fe02f24\n      eq\n      tag_12\n      jumpi\n      dup1\n      0x842bc46a\n      eq\n      tag_13\n      jumpi\n      dup1\n      0x8c3417da\n      eq\n      tag_14\n      jumpi\n      jump(tag_2)\n    tag_19:\n      dup1\n      0x4cb8ef5b\n      gt\n      tag_21\n      jumpi\n      dup1\n      0x4cb8ef5b\n      eq\n      tag_7\n      jumpi\n      dup1\n      0x5138b08c\n      eq\n      tag_8\n      jumpi\n      dup1\n      0x6916462f\n      eq\n      tag_9\n      jumpi\n      dup1\n      0x69a6d12e\n      eq\n      tag_10\n      jumpi\n      jump(tag_2)\n    tag_21:\n      dup1\n      0x150b7a02\n      eq\n      tag_3\n      jumpi\n      dup1\n      0x1bdae6f1\n      eq\n      tag_4\n      jumpi\n      dup1\n      0x3a713db8\n      eq\n      tag_5\n      jumpi\n      dup1\n      0x4676adca\n      eq\n      tag_6\n      jumpi\n      jump(tag_2)\n    tag_1:\n      jumpi(tag_2, calldatasize)\n      stop\n    tag_2:\n      0x00\n      dup1\n      revert\n        /* \"NFT-Contracts/contracts/market_pri/NewMarket.sol\":18103:18318  function onERC721Received(\r... */\n    tag_3:\n      callvalue\n      dup1\n      iszero\n      tag_24\n      jumpi\n      0x00\n      dup1\n      revert\n    tag_24:\n      pop\n      tag_25\n      0x04\n      dup1\n      calldatasize\n      sub\n      dup2\n      add\n      swap1\n      tag_26\n      swap2\n      swap1\n      tag_27\n      jump\t// in\n    tag_26:\n      tag_28\n      jump\t// in\n    tag_25:\n      mload(0x40)\n      tag_29\n      swap2\n      swap1\n      tag_30\n      jump\t// in\n    tag_29:\n      mload(0x40)\n      dup1\n      swap2\n      sub\n      swap1\n      return\n        /* \"NFT-Contracts/contracts/market_pri/NewMarket.sol\":12513:13688  function makeBid(\r... */\n    tag_4:\n      tag_31\n      0x04\n      dup1\n      calldatasize\n      sub\n      dup2\n      add\n      swap1\n      tag_32\n      swap2\n      swap1\n      tag_33\n      jump\t// in\n    tag_32:\n      tag_34\n      jump\t// in\n    tag_31:\n      stop\n        /* \"NFT-Contracts/contracts/market_pri/NewMarket.sol\":13696:15212  function updateTheBidPrice(\r... */\n    tag_5:\n      tag_35\n      0x04\n      dup1\n      calldatasize\n      sub\n      dup2\n      add\n      swap1\n      tag_36\n      swap2\n      swap1\n      tag_33\n      jump\t// in\n    tag_36:\n      tag_37\n      jump\t// in\n    tag_35:\n      stop\n        /* \"NFT-Contracts/contracts/market_pri/NewMarket.sol\":9854:10432  function updateFixedSalePrice(\r... */\n    tag_6:\n      callvalue\n      dup1\n      iszero\n      tag_38\n      jumpi\n      0x00\n      dup1\n      revert\n    tag_38:\n      pop\n      tag_39\n      0x04\n      dup1\n      calldatasize\n      sub\n      dup2\n      add\n      swap1\n      tag_40\n      swap2\n      swap1\n      tag_33\n      jump\t// in\n    tag_40:\n      tag_41\n      jump\t// in\n    tag_39:\n      stop\n        /* \"NFT-Contracts/contracts/market_pri/NewMarket.sol\":16763:17521  function withdrawBid(address _nftContractAddress, uint256 _tokenId)\r... */\n    tag_7:\n      callvalue\n      dup1\n      iszero\n      tag_42\n      jumpi\n      0x00\n      dup1\n      revert\n    tag_42:\n      pop\n      tag_43\n      0x04\n      dup1\n      calldatasize\n      sub\n      dup2\n      add\n      swap1\n      tag_44\n      swap2\n      swap1\n      tag_45\n      jump\t// in\n    tag_44:\n      tag_46\n      jump\t// in\n    tag_43:\n      stop\n        /* \"NFT-Contracts/contracts/market_pri/NewMarket.sol\":15857:16755  function settleAuction(address _nftContractAddress, uint256 _tokenId)\r... */\n    tag_8:\n      callvalue\n      dup1\n      iszero\n      tag_47\n      jumpi\n      0x00\n      dup1\n      revert\n    tag_47:\n      pop\n      tag_48\n      0x04\n      dup1\n      calldatasize\n      sub\n      dup2\n      add\n      swap1\n      tag_49\n      swap2\n      swap1\n      tag_45\n      jump\t// in\n    tag_49:\n      tag_50\n      jump\t// in\n    tag_48:\n      stop\n        /* \"NFT-Contracts/contracts/market_pri/NewMarket.sol\":1059:1127  mapping(address => mapping(uint256 => uint256)) public nftSaleStatus */\n    tag_9:\n      callvalue\n      dup1\n      iszero\n      tag_51\n      jumpi\n      0x00\n      dup1\n      revert\n    tag_51:\n      pop\n      tag_52\n      0x04\n      dup1\n      calldatasize\n      sub\n      dup2\n      add\n      swap1\n      tag_53\n      swap2\n      swap1\n      tag_45\n      jump\t// in\n    tag_53:\n      tag_54\n      jump\t// in\n    tag_52:\n      mload(0x40)\n      tag_55\n      swap2\n      swap1\n      tag_56\n      jump\t// in\n    tag_55:\n      mload(0x40)\n      dup1\n      swap2\n      sub\n      swap1\n      return\n        /* \"NFT-Contracts/contracts/market_pri/NewMarket.sol\":8117:9252  function nftFixedSale(\r... */\n    tag_10:\n      callvalue\n      dup1\n      iszero\n      tag_57\n      jumpi\n      0x00\n      dup1\n      revert\n    tag_57:\n      pop\n      tag_58\n      0x04\n      dup1\n      calldatasize\n      sub\n      dup2\n      add\n      swap1\n      tag_59\n      swap2\n      swap1\n      tag_60\n      jump\t// in\n    tag_59:\n      tag_61\n      jump\t// in\n    tag_58:\n      stop\n        /* \"NFT-Contracts/contracts/market_pri/NewMarket.sol\":17529:17753  function getNftAuctionSaleDetails(\r... */\n    tag_11:\n      callvalue\n      dup1\n      iszero\n      tag_62\n      jumpi\n      0x00\n      dup1\n      revert\n    tag_62:\n      pop\n      tag_63\n      0x04\n      dup1\n      calldatasize\n      sub\n      dup2\n      add\n      swap1\n      tag_64\n      swap2\n      swap1\n      tag_45\n      jump\t// in\n    tag_64:\n      tag_65\n      jump\t// in\n    tag_63:\n      mload(0x40)\n      tag_66\n      swap2\n      swap1\n      tag_67\n      jump\t// in\n    tag_66:\n      mload(0x40)\n      dup1\n      swap2\n      sub\n      swap1\n      return\n        /* \"NFT-Contracts/contracts/market_pri/NewMarket.sol\":1134:1235  mapping(address => mapping(uint256 => mapping(address => uint256)))\r... */\n    tag_12:\n      callvalue\n      dup1\n      iszero\n      tag_68\n      jumpi\n      0x00\n      dup1\n      revert\n    tag_68:\n      pop\n      tag_69\n      0x04\n      dup1\n      calldatasize\n      sub\n      dup2\n      add\n      swap1\n      tag_70\n      swap2\n      swap1\n      tag_71\n      jump\t// in\n    tag_70:\n      tag_72\n      jump\t// in\n    tag_69:\n      mload(0x40)\n      tag_73\n      swap2\n      swap1\n      tag_56\n      jump\t// in\n    tag_73:\n      mload(0x40)\n      dup1\n      swap2\n      sub\n      swap1\n      return\n        /* \"NFT-Contracts/contracts/market_pri/NewMarket.sol\":15220:15849  function _cancelAuctionSale(address _nftContractAddress, uint256 _tokenId)\r... */\n    tag_13:\n      callvalue\n      dup1\n      iszero\n      tag_74\n      jumpi\n      0x00\n      dup1\n      revert\n    tag_74:\n      pop\n      tag_75\n      0x04\n      dup1\n      calldatasize\n      sub\n      dup2\n      add\n      swap1\n      tag_76\n      swap2\n      swap1\n      tag_45\n      jump\t// in\n    tag_76:\n      tag_77\n      jump\t// in\n    tag_75:\n      stop\n        /* \"NFT-Contracts/contracts/market_pri/NewMarket.sol\":17876:18095  function getFixedSale(address _nftContractAddress, uint256 _tokenId)\r... */\n    tag_14:\n      callvalue\n      dup1\n      iszero\n      tag_78\n      jumpi\n      0x00\n      dup1\n      revert\n    tag_78:\n      pop\n      tag_79\n      0x04\n      dup1\n      calldatasize\n      sub\n      dup2\n      add\n      swap1\n      tag_80\n      swap2\n      swap1\n      tag_45\n      jump\t// in\n    tag_80:\n      tag_81\n      jump\t// in\n    tag_79:\n      mload(0x40)\n      tag_82\n      swap2\n      swap1\n      tag_83\n      jump\t// in\n    tag_82:\n      mload(0x40)\n      dup1\n      swap2\n      sub\n      swap1\n      return\n        /* \"NFT-Contracts/contracts/market_pri/NewMarket.sol\":17761:17868  function getFixedSaleNFT() external view returns (SaleInfo[] memory) {\r... */\n    tag_15:\n      callvalue\n      dup1\n      iszero\n      tag_84\n      jumpi\n      0x00\n      dup1\n      revert\n    tag_84:\n      pop\n      tag_85\n      tag_86\n      jump\t// in\n    tag_85:\n      mload(0x40)\n      tag_87\n      swap2\n      swap1\n      tag_88\n      jump\t// in\n    tag_87:\n      mload(0x40)\n      dup1\n      swap2\n      sub\n      swap1\n      return\n        /* \"NFT-Contracts/contracts/market_pri/NewMarket.sol\":10440:11579  function buyFromFixedSale(\r... */\n    tag_16:\n      tag_89\n      0x04\n      dup1\n      calldatasize\n      sub\n      dup2\n      add\n      swap1\n      tag_90\n      swap2\n      swap1\n      tag_33\n      jump\t// in\n    tag_90:\n      tag_91\n      jump\t// in\n    tag_89:\n      stop\n        /* \"NFT-Contracts/contracts/market_pri/NewMarket.sol\":11614:12505  function createNftAuctionSale(\r... */\n    tag_17:\n      callvalue\n      dup1\n      iszero\n      tag_92\n      jumpi\n      0x00\n      dup1\n      revert\n    tag_92:\n      pop\n      tag_93\n      0x04\n      dup1\n      calldatasize\n      sub\n      dup2\n      add\n      swap1\n      tag_94\n      swap2\n      swap1\n      tag_95\n      jump\t// in\n    tag_94:\n      tag_96\n      jump\t// in\n    tag_93:\n      stop\n        /* \"NFT-Contracts/contracts/market_pri/NewMarket.sol\":9260:9846  function cancelFixedsale(address _nftContractAddress, uint256 _tokenId)\r... */\n    tag_18:\n      callvalue\n      dup1\n      iszero\n      tag_97\n      jumpi\n      0x00\n      dup1\n      revert\n    tag_97:\n      pop\n      tag_98\n      0x04\n      dup1\n      calldatasize\n      sub\n      dup2\n      add\n      swap1\n      tag_99\n      swap2\n      swap1\n      tag_45\n      jump\t// in\n    tag_99:\n      tag_100\n      jump\t// in\n    tag_98:\n      stop\n        /* \"NFT-Contracts/contracts/market_pri/NewMarket.sol\":18103:18318  function onERC721Received(\r... */\n    tag_28:\n        /* \"NFT-Contracts/contracts/market_pri/NewMarket.sol\":18243:18249  bytes4 */\n      0x00\n        /* \"NFT-Contracts/contracts/market_pri/NewMarket.sol\":18269:18310  IERC721Receiver.onERC721Received.selector */\n      shl(0xe0, 0x150b7a02)\n        /* \"NFT-Contracts/contracts/market_pri/NewMarket.sol\":18262:18310  return IERC721Receiver.onERC721Received.selector */\n      swap1\n      pop\n        /* \"NFT-Contracts/contracts/market_pri/NewMarket.sol\":18103:18318  function onERC721Received(\r... */\n      swap6\n      swap5\n      pop\n      pop\n      pop\n      pop\n      pop\n      jump\t// out\n        /* \"NFT-Contracts/contracts/market_pri/NewMarket.sol\":12513:13688  function makeBid(\r... */\n    tag_34:\n        /* \"NFT-Contracts/contracts/market_pri/NewMarket.sol\":12693:12712  _nftContractAddress */\n      dup3\n        /* \"NFT-Contracts/contracts/market_pri/NewMarket.sol\":12714:12722  _tokenId */\n      dup3\n        /* \"NFT-Contracts/contracts/market_pri/NewMarket.sol\":3792:3793  2 */\n      0x02\n        /* \"NFT-Contracts/contracts/market_pri/NewMarket.sol\":3744:3757  nftSaleStatus */\n      dup1\n        /* \"NFT-Contracts/contracts/market_pri/NewMarket.sol\":3744:3778  nftSaleStatus[_nftContractAddress] */\n      0x00\n        /* \"NFT-Contracts/contracts/market_pri/NewMarket.sol\":3758:3777  _nftContractAddress */\n      dup5\n        /* \"NFT-Contracts/contracts/market_pri/NewMarket.sol\":3744:3778  nftSaleStatus[_nftContractAddress] */\n      0xffffffffffffffffffffffffffffffffffffffff\n      and\n      0xffffffffffffffffffffffffffffffffffffffff\n      and\n      dup2\n      mstore\n      0x20\n      add\n      swap1\n      dup2\n      mstore\n      0x20\n      add\n      0x00\n      keccak256\n        /* \"NFT-Contracts/contracts/market_pri/NewMarket.sol\":3744:3788  nftSaleStatus[_nftContractAddress][_tokenId] */\n      0x00\n        /* \"NFT-Contracts/contracts/market_pri/NewMarket.sol\":3779:3787  _tokenId */\n      dup4\n        /* \"NFT-Contracts/contracts/market_pri/NewMarket.sol\":3744:3788  nftSaleStatus[_nftContractAddress][_tokenId] */\n      dup2\n      mstore\n      0x20\n      add\n      swap1\n      dup2\n      mstore\n      0x20\n      add\n      0x00\n      keccak256\n      sload\n        /* \"NFT-Contracts/contracts/market_pri/NewMarket.sol\":3744:3793  nftSaleStatus[_nftContractAddress][_tokenId] == 2 */\n      eq\n        /* \"NFT-Contracts/contracts/market_pri/NewMarket.sol\":3722:3844  require(\r... */\n      tag_103\n      jumpi\n      mload(0x40)\n      0x08c379a000000000000000000000000000000000000000000000000000000000\n      dup2\n      mstore\n      0x04\n      add\n      tag_104\n      swap1\n      tag_105\n      jump\t// in\n    tag_104:\n      mload(0x40)\n      dup1\n      swap2\n      sub\n      swap1\n      revert\n    tag_103:\n        /* \"NFT-Contracts/contracts/market_pri/NewMarket.sol\":12750:12769  _nftContractAddress */\n      dup5\n        /* \"NFT-Contracts/contracts/market_pri/NewMarket.sol\":12771:12779  _tokenId */\n      dup5\n        /* \"NFT-Contracts/contracts/market_pri/NewMarket.sol\":5961:5983  nftContractAuctionSale */\n      0x01\n        /* \"NFT-Contracts/contracts/market_pri/NewMarket.sol\":5961:6004  nftContractAuctionSale[_nftContractAddress] */\n      0x00\n        /* \"NFT-Contracts/contracts/market_pri/NewMarket.sol\":5984:6003  _nftContractAddress */\n      dup4\n        /* \"NFT-Contracts/contracts/market_pri/NewMarket.sol\":5961:6004  nftContractAuctionSale[_nftContractAddress] */\n      0xffffffffffffffffffffffffffffffffffffffff\n      and\n      0xffffffffffffffffffffffffffffffffffffffff\n      and\n      dup2\n      mstore\n      0x20\n      add\n      swap1\n      dup2\n      mstore\n      0x20\n      add\n      0x00\n      keccak256\n        /* \"NFT-Contracts/contracts/market_pri/NewMarket.sol\":5961:6014  nftContractAuctionSale[_nftContractAddress][_tokenId] */\n      0x00\n        /* \"NFT-Contracts/contracts/market_pri/NewMarket.sol\":6005:6013  _tokenId */\n      dup3\n        /* \"NFT-Contracts/contracts/market_pri/NewMarket.sol\":5961:6014  nftContractAuctionSale[_nftContractAddress][_tokenId] */\n      dup2\n      mstore\n      0x20\n      add\n      swap1\n      dup2\n      mstore\n      0x20\n      add\n      0x00\n      keccak256\n        /* \"NFT-Contracts/contracts/market_pri/NewMarket.sol\":5961:6047  nftContractAuctionSale[_nftContractAddress][_tokenId]\r... */\n      0x01\n      add\n      sload\n        /* \"NFT-Contracts/contracts/market_pri/NewMarket.sol\":5926:5941  block.timestamp */\n      timestamp\n        /* \"NFT-Contracts/contracts/market_pri/NewMarket.sol\":5926:6047  block.timestamp <\r... */\n      lt\n        /* \"NFT-Contracts/contracts/market_pri/NewMarket.sol\":5904:6086  require(\r... */\n      tag_107\n      jumpi\n      mload(0x40)\n      0x08c379a000000000000000000000000000000000000000000000000000000000\n      dup2\n      mstore\n      0x04\n      add\n      tag_108\n      swap1\n      tag_109\n      jump\t// in\n    tag_108:\n      mload(0x40)\n      dup1\n      swap2\n      sub\n      swap1\n      revert\n    tag_107:\n        /* \"NFT-Contracts/contracts/market_pri/NewMarket.sol\":12811:12820  _bidPrice */\n      dup5\n        /* \"NFT-Contracts/contracts/market_pri/NewMarket.sol\":8041:8042  0 */\n      0x00\n        /* \"NFT-Contracts/contracts/market_pri/NewMarket.sol\":8032:8038  _price */\n      dup2\n        /* \"NFT-Contracts/contracts/market_pri/NewMarket.sol\":8032:8042  _price > 0 */\n      gt\n        /* \"NFT-Contracts/contracts/market_pri/NewMarket.sol\":8024:8064  require(_price > 0, \"Price cannot be 0\") */\n      tag_111\n      jumpi\n      mload(0x40)\n      0x08c379a000000000000000000000000000000000000000000000000000000000\n      dup2\n      mstore\n      0x04\n      add\n      tag_112\n      swap1\n      tag_113\n      jump\t// in\n    tag_112:\n      mload(0x40)\n      dup1\n      swap2\n      sub\n      swap1\n      revert\n    tag_111:\n        /* \"NFT-Contracts/contracts/market_pri/NewMarket.sol\":12875:12894  _nftContractAddress */\n      dup8\n        /* \"NFT-Contracts/contracts/market_pri/NewMarket.sol\":12909:12917  _tokenId */\n      dup8\n        /* \"NFT-Contracts/contracts/market_pri/NewMarket.sol\":12932:12941  msg.value */\n      callvalue\n        /* \"NFT-Contracts/contracts/market_pri/NewMarket.sol\":12956:12965  _bidPrice */\n      dup9\n        /* \"NFT-Contracts/contracts/market_pri/NewMarket.sol\":5282:5283  0 */\n      0x00\n        /* \"NFT-Contracts/contracts/market_pri/NewMarket.sol\":5198:5284  nftContractAuctionSale[_nftContractAddress][_tokenId].erc20 ==\r... */\n      0xffffffffffffffffffffffffffffffffffffffff\n      and\n        /* \"NFT-Contracts/contracts/market_pri/NewMarket.sol\":5198:5220  nftContractAuctionSale */\n      0x01\n        /* \"NFT-Contracts/contracts/market_pri/NewMarket.sol\":5198:5241  nftContractAuctionSale[_nftContractAddress] */\n      0x00\n        /* \"NFT-Contracts/contracts/market_pri/NewMarket.sol\":5221:5240  _nftContractAddress */\n      dup7\n        /* \"NFT-Contracts/contracts/market_pri/NewMarket.sol\":5198:5241  nftContractAuctionSale[_nftContractAddress] */\n      0xffffffffffffffffffffffffffffffffffffffff\n      and\n      0xffffffffffffffffffffffffffffffffffffffff\n      and\n      dup2\n      mstore\n      0x20\n      add\n      swap1\n      dup2\n      mstore\n      0x20\n      add\n      0x00\n      keccak256\n        /* \"NFT-Contracts/contracts/market_pri/NewMarket.sol\":5198:5251  nftContractAuctionSale[_nftContractAddress][_tokenId] */\n      0x00\n        /* \"NFT-Contracts/contracts/market_pri/NewMarket.sol\":5242:5250  _tokenId */\n      dup6\n        /* \"NFT-Contracts/contracts/market_pri/NewMarket.sol\":5198:5251  nftContractAuctionSale[_nftContractAddress][_tokenId] */\n      dup2\n      mstore\n      0x20\n      add\n      swap1\n      dup2\n      mstore\n      0x20\n      add\n      0x00\n      keccak256\n        /* \"NFT-Contracts/contracts/market_pri/NewMarket.sol\":5198:5257  nftContractAuctionSale[_nftContractAddress][_tokenId].erc20 */\n      0x06\n      add\n      0x00\n      swap1\n      sload\n      swap1\n      0x0100\n      exp\n      swap1\n      div\n      0xffffffffffffffffffffffffffffffffffffffff\n      and\n        /* \"NFT-Contracts/contracts/market_pri/NewMarket.sol\":5198:5284  nftContractAuctionSale[_nftContractAddress][_tokenId].erc20 ==\r... */\n      0xffffffffffffffffffffffffffffffffffffffff\n      and\n      eq\n        /* \"NFT-Contracts/contracts/market_pri/NewMarket.sol\":5180:5791  if (\r... */\n      iszero\n      tag_115\n      jumpi\n        /* \"NFT-Contracts/contracts/market_pri/NewMarket.sol\":5370:5392  nftContractAuctionSale */\n      0x01\n        /* \"NFT-Contracts/contracts/market_pri/NewMarket.sol\":5370:5413  nftContractAuctionSale[_nftContractAddress] */\n      0x00\n        /* \"NFT-Contracts/contracts/market_pri/NewMarket.sol\":5393:5412  _nftContractAddress */\n      dup6\n        /* \"NFT-Contracts/contracts/market_pri/NewMarket.sol\":5370:5413  nftContractAuctionSale[_nftContractAddress] */\n      0xffffffffffffffffffffffffffffffffffffffff\n      and\n      0xffffffffffffffffffffffffffffffffffffffff\n      and\n      dup2\n      mstore\n      0x20\n      add\n      swap1\n      dup2\n      mstore\n      0x20\n      add\n      0x00\n      keccak256\n        /* \"NFT-Contracts/contracts/market_pri/NewMarket.sol\":5370:5423  nftContractAuctionSale[_nftContractAddress][_tokenId] */\n      0x00\n        /* \"NFT-Contracts/contracts/market_pri/NewMarket.sol\":5414:5422  _tokenId */\n      dup5\n        /* \"NFT-Contracts/contracts/market_pri/NewMarket.sol\":5370:5423  nftContractAuctionSale[_nftContractAddress][_tokenId] */\n      dup2\n      mstore\n      0x20\n      add\n      swap1\n      dup2\n      mstore\n      0x20\n      add\n      0x00\n      keccak256\n        /* \"NFT-Contracts/contracts/market_pri/NewMarket.sol\":5370:5463  nftContractAuctionSale[_nftContractAddress][_tokenId]\r... */\n      0x03\n      add\n      sload\n        /* \"NFT-Contracts/contracts/market_pri/NewMarket.sol\":5337:5346  _bidPrice */\n      dup3\n        /* \"NFT-Contracts/contracts/market_pri/NewMarket.sol\":5337:5463  _bidPrice >\r... */\n      gt\n        /* \"NFT-Contracts/contracts/market_pri/NewMarket.sol\":5311:5528  require(\r... */\n      tag_116\n      jumpi\n      mload(0x40)\n      0x08c379a000000000000000000000000000000000000000000000000000000000\n      dup2\n      mstore\n      0x04\n      add\n      tag_117\n      swap1\n      tag_118\n      jump\t// in\n    tag_117:\n      mload(0x40)\n      dup1\n      swap2\n      sub\n      swap1\n      revert\n    tag_116:\n        /* \"NFT-Contracts/contracts/market_pri/NewMarket.sol\":5180:5791  if (\r... */\n      jump(tag_119)\n    tag_115:\n        /* \"NFT-Contracts/contracts/market_pri/NewMarket.sol\":5621:5643  nftContractAuctionSale */\n      0x01\n        /* \"NFT-Contracts/contracts/market_pri/NewMarket.sol\":5621:5664  nftContractAuctionSale[_nftContractAddress] */\n      0x00\n        /* \"NFT-Contracts/contracts/market_pri/NewMarket.sol\":5644:5663  _nftContractAddress */\n      dup6\n        /* \"NFT-Contracts/contracts/market_pri/NewMarket.sol\":5621:5664  nftContractAuctionSale[_nftContractAddress] */\n      0xffffffffffffffffffffffffffffffffffffffff\n      and\n      0xffffffffffffffffffffffffffffffffffffffff\n      and\n      dup2\n      mstore\n      0x20\n      add\n      swap1\n      dup2\n      mstore\n      0x20\n      add\n      0x00\n      keccak256\n        /* \"NFT-Contracts/contracts/market_pri/NewMarket.sol\":5621:5674  nftContractAuctionSale[_nftContractAddress][_tokenId] */\n      0x00\n        /* \"NFT-Contracts/contracts/market_pri/NewMarket.sol\":5665:5673  _tokenId */\n      dup5\n        /* \"NFT-Contracts/contracts/market_pri/NewMarket.sol\":5621:5674  nftContractAuctionSale[_nftContractAddress][_tokenId] */\n      dup2\n      mstore\n      0x20\n      add\n      swap1\n      dup2\n      mstore\n      0x20\n      add\n      0x00\n      keccak256\n        /* \"NFT-Contracts/contracts/market_pri/NewMarket.sol\":5621:5714  nftContractAuctionSale[_nftContractAddress][_tokenId]\r... */\n      0x03\n      add\n      sload\n        /* \"NFT-Contracts/contracts/market_pri/NewMarket.sol\":5587:5597  _bidPrice1 */\n      dup2\n        /* \"NFT-Contracts/contracts/market_pri/NewMarket.sol\":5587:5714  _bidPrice1 >\r... */\n      gt\n        /* \"NFT-Contracts/contracts/market_pri/NewMarket.sol\":5561:5779  require(\r... */\n      tag_120\n      jumpi\n      mload(0x40)\n      0x08c379a000000000000000000000000000000000000000000000000000000000\n      dup2\n      mstore\n      0x04\n      add\n      tag_121\n      swap1\n      tag_118\n      jump\t// in\n    tag_121:\n      mload(0x40)\n      dup1\n      swap2\n      sub\n      swap1\n      revert\n    tag_120:\n        /* \"NFT-Contracts/contracts/market_pri/NewMarket.sol\":5180:5791  if (\r... */\n    tag_119:\n        /* \"NFT-Contracts/contracts/market_pri/NewMarket.sol\":13095:13096  0 */\n      0x00\n        /* \"NFT-Contracts/contracts/market_pri/NewMarket.sol\":13011:13097  nftContractAuctionSale[_nftContractAddress][_tokenId].erc20 !=\r... */\n      0xffffffffffffffffffffffffffffffffffffffff\n      and\n        /* \"NFT-Contracts/contracts/market_pri/NewMarket.sol\":13011:13033  nftContractAuctionSale */\n      0x01\n        /* \"NFT-Contracts/contracts/market_pri/NewMarket.sol\":13011:13054  nftContractAuctionSale[_nftContractAddress] */\n      0x00\n        /* \"NFT-Contracts/contracts/market_pri/NewMarket.sol\":13034:13053  _nftContractAddress */\n      dup15\n        /* \"NFT-Contracts/contracts/market_pri/NewMarket.sol\":13011:13054  nftContractAuctionSale[_nftContractAddress] */\n      0xffffffffffffffffffffffffffffffffffffffff\n      and\n      0xffffffffffffffffffffffffffffffffffffffff\n      and\n      dup2\n      mstore\n      0x20\n      add\n      swap1\n      dup2\n      mstore\n      0x20\n      add\n      0x00\n      keccak256\n        /* \"NFT-Contracts/contracts/market_pri/NewMarket.sol\":13011:13064  nftContractAuctionSale[_nftContractAddress][_tokenId] */\n      0x00\n        /* \"NFT-Contracts/contracts/market_pri/NewMarket.sol\":13055:13063  _tokenId */\n      dup14\n        /* \"NFT-Contracts/contracts/market_pri/NewMarket.sol\":13011:13064  nftContractAuctionSale[_nftContractAddress][_tokenId] */\n      dup2\n      mstore\n      0x20\n      add\n      swap1\n      dup2\n      mstore\n      0x20\n      add\n      0x00\n      keccak256\n        /* \"NFT-Contracts/contracts/market_pri/NewMarket.sol\":13011:13070  nftContractAuctionSale[_nftContractAddress][_tokenId].erc20 */\n      0x06\n      add\n      0x00\n      swap1\n      sload\n      swap1\n      0x0100\n      exp\n      swap1\n      div\n      0xffffffffffffffffffffffffffffffffffffffff\n      and\n        /* \"NFT-Contracts/contracts/market_pri/NewMarket.sol\":13011:13097  nftContractAuctionSale[_nftContractAddress][_tokenId].erc20 !=\r... */\n      0xffffffffffffffffffffffffffffffffffffffff\n      and\n      eq\n        /* \"NFT-Contracts/contracts/market_pri/NewMarket.sol\":12993:13275  if (\r... */\n      tag_123\n      jumpi\n        /* \"NFT-Contracts/contracts/market_pri/NewMarket.sol\":13124:13263  _bidAmountTransfer(\r... */\n      tag_124\n        /* \"NFT-Contracts/contracts/market_pri/NewMarket.sol\":13161:13170  _bidPrice */\n      dup11\n        /* \"NFT-Contracts/contracts/market_pri/NewMarket.sol\":13189:13211  nftContractAuctionSale */\n      0x01\n        /* \"NFT-Contracts/contracts/market_pri/NewMarket.sol\":13189:13232  nftContractAuctionSale[_nftContractAddress] */\n      0x00\n        /* \"NFT-Contracts/contracts/market_pri/NewMarket.sol\":13212:13231  _nftContractAddress */\n      dup16\n        /* \"NFT-Contracts/contracts/market_pri/NewMarket.sol\":13189:13232  nftContractAuctionSale[_nftContractAddress] */\n      0xffffffffffffffffffffffffffffffffffffffff\n      and\n      0xffffffffffffffffffffffffffffffffffffffff\n      and\n      dup2\n      mstore\n      0x20\n      add\n      swap1\n      dup2\n      mstore\n      0x20\n      add\n      0x00\n      keccak256\n        /* \"NFT-Contracts/contracts/market_pri/NewMarket.sol\":13189:13242  nftContractAuctionSale[_nftContractAddress][_tokenId] */\n      0x00\n        /* \"NFT-Contracts/contracts/market_pri/NewMarket.sol\":13233:13241  _tokenId */\n      dup15\n        /* \"NFT-Contracts/contracts/market_pri/NewMarket.sol\":13189:13242  nftContractAuctionSale[_nftContractAddress][_tokenId] */\n      dup2\n      mstore\n      0x20\n      add\n      swap1\n      dup2\n      mstore\n      0x20\n      add\n      0x00\n      keccak256\n        /* \"NFT-Contracts/contracts/market_pri/NewMarket.sol\":13189:13248  nftContractAuctionSale[_nftContractAddress][_tokenId].erc20 */\n      0x06\n      add\n      0x00\n      swap1\n      sload\n      swap1\n      0x0100\n      exp\n      swap1\n      div\n      0xffffffffffffffffffffffffffffffffffffffff\n      and\n        /* \"NFT-Contracts/contracts/market_pri/NewMarket.sol\":13124:13142  _bidAmountTransfer */\n      tag_125\n        /* \"NFT-Contracts/contracts/market_pri/NewMarket.sol\":13124:13263  _bidAmountTransfer(\r... */\n      jump\t// in\n    tag_124:\n        /* \"NFT-Contracts/contracts/market_pri/NewMarket.sol\":12993:13275  if (\r... */\n    tag_123:\n        /* \"NFT-Contracts/contracts/market_pri/NewMarket.sol\":13371:13380  _bidPrice */\n      dup10\n        /* \"NFT-Contracts/contracts/market_pri/NewMarket.sol\":13287:13309  nftContractAuctionSale */\n      0x01\n        /* \"NFT-Contracts/contracts/market_pri/NewMarket.sol\":13287:13330  nftContractAuctionSale[_nftContractAddress] */\n      0x00\n        /* \"NFT-Contracts/contracts/market_pri/NewMarket.sol\":13310:13329  _nftContractAddress */\n      dup15\n        /* \"NFT-Contracts/contracts/market_pri/NewMarket.sol\":13287:13330  nftContractAuctionSale[_nftContractAddress] */\n      0xffffffffffffffffffffffffffffffffffffffff\n      and\n      0xffffffffffffffffffffffffffffffffffffffff\n      and\n      dup2\n      mstore\n      0x20\n      add\n      swap1\n      dup2\n      mstore\n      0x20\n      add\n      0x00\n      keccak256\n        /* \"NFT-Contracts/contracts/market_pri/NewMarket.sol\":13287:13340  nftContractAuctionSale[_nftContractAddress][_tokenId] */\n      0x00\n        /* \"NFT-Contracts/contracts/market_pri/NewMarket.sol\":13331:13339  _tokenId */\n      dup14\n        /* \"NFT-Contracts/contracts/market_pri/NewMarket.sol\":13287:13340  nftContractAuctionSale[_nftContractAddress][_tokenId] */\n      dup2\n      mstore\n      0x20\n      add\n      swap1\n      dup2\n      mstore\n      0x20\n      add\n      0x00\n      keccak256\n        /* \"NFT-Contracts/contracts/market_pri/NewMarket.sol\":13287:13368  nftContractAuctionSale[_nftContractAddress][_tokenId]\r... */\n      0x03\n      add\n        /* \"NFT-Contracts/contracts/market_pri/NewMarket.sol\":13287:13380  nftContractAuctionSale[_nftContractAddress][_tokenId]\r... */\n      dup2\n      swap1\n      sstore\n      pop\n        /* \"NFT-Contracts/contracts/market_pri/NewMarket.sol\":13478:13488  msg.sender */\n      caller\n        /* \"NFT-Contracts/contracts/market_pri/NewMarket.sol\":13391:13413  nftContractAuctionSale */\n      0x01\n        /* \"NFT-Contracts/contracts/market_pri/NewMarket.sol\":13391:13434  nftContractAuctionSale[_nftContractAddress] */\n      0x00\n        /* \"NFT-Contracts/contracts/market_pri/NewMarket.sol\":13414:13433  _nftContractAddress */\n      dup15\n        /* \"NFT-Contracts/contracts/market_pri/NewMarket.sol\":13391:13434  nftContractAuctionSale[_nftContractAddress] */\n      0xffffffffffffffffffffffffffffffffffffffff\n      and\n      0xffffffffffffffffffffffffffffffffffffffff\n      and\n      dup2\n      mstore\n      0x20\n      add\n      swap1\n      dup2\n      mstore\n      0x20\n      add\n      0x00\n      keccak256\n        /* \"NFT-Contracts/contracts/market_pri/NewMarket.sol\":13391:13444  nftContractAuctionSale[_nftContractAddress][_tokenId] */\n      0x00\n        /* \"NFT-Contracts/contracts/market_pri/NewMarket.sol\":13435:13443  _tokenId */\n      dup14\n        /* \"NFT-Contracts/contracts/market_pri/NewMarket.sol\":13391:13444  nftContractAuctionSale[_nftContractAddress][_tokenId] */\n      dup2\n      mstore\n      0x20\n      add\n      swap1\n      dup2\n      mstore\n      0x20\n      add\n      0x00\n      keccak256\n        /* \"NFT-Contracts/contracts/market_pri/NewMarket.sol\":13391:13475  nftContractAuctionSale[_nftContractAddress][_tokenId]\r... */\n      0x04\n      add\n      0x00\n        /* \"NFT-Contracts/contracts/market_pri/NewMarket.sol\":13391:13488  nftContractAuctionSale[_nftContractAddress][_tokenId]\r... */\n      0x0100\n      exp\n      dup2\n      sload\n      dup2\n      0xffffffffffffffffffffffffffffffffffffffff\n      mul\n      not\n      and\n      swap1\n      dup4\n      0xffffffffffffffffffffffffffffffffffffffff\n      and\n      mul\n      or\n      swap1\n      sstore\n      pop\n        /* \"NFT-Contracts/contracts/market_pri/NewMarket.sol\":13588:13597  _bidPrice */\n      dup10\n        /* \"NFT-Contracts/contracts/market_pri/NewMarket.sol\":13501:13518  userBidPriceOnNFT */\n      0x03\n        /* \"NFT-Contracts/contracts/market_pri/NewMarket.sol\":13501:13539  userBidPriceOnNFT[_nftContractAddress] */\n      0x00\n        /* \"NFT-Contracts/contracts/market_pri/NewMarket.sol\":13519:13538  _nftContractAddress */\n      dup15\n        /* \"NFT-Contracts/contracts/market_pri/NewMarket.sol\":13501:13539  userBidPriceOnNFT[_nftContractAddress] */\n      0xffffffffffffffffffffffffffffffffffffffff\n      and\n      0xffffffffffffffffffffffffffffffffffffffff\n      and\n      dup2\n      mstore\n      0x20\n      add\n      swap1\n      dup2\n      mstore\n      0x20\n      add\n      0x00\n      keccak256\n        /* \"NFT-Contracts/contracts/market_pri/NewMarket.sol\":13501:13549  userBidPriceOnNFT[_nftContractAddress][_tokenId] */\n      0x00\n        /* \"NFT-Contracts/contracts/market_pri/NewMarket.sol\":13540:13548  _tokenId */\n      dup14\n        /* \"NFT-Contracts/contracts/market_pri/NewMarket.sol\":13501:13549  userBidPriceOnNFT[_nftContractAddress][_tokenId] */\n      dup2\n      mstore\n      0x20\n      add\n      swap1\n      dup2\n      mstore\n      0x20\n      add\n      0x00\n      keccak256\n        /* \"NFT-Contracts/contracts/market_pri/NewMarket.sol\":13501:13585  userBidPriceOnNFT[_nftContractAddress][_tokenId][\r... */\n      0x00\n        /* \"NFT-Contracts/contracts/market_pri/NewMarket.sol\":13564:13574  msg.sender */\n      caller\n        /* \"NFT-Contracts/contracts/market_pri/NewMarket.sol\":13501:13585  userBidPriceOnNFT[_nftContractAddress][_tokenId][\r... */\n      0xffffffffffffffffffffffffffffffffffffffff\n      and\n      0xffffffffffffffffffffffffffffffffffffffff\n      and\n      dup2\n      mstore\n      0x20\n      add\n      swap1\n      dup2\n      mstore\n      0x20\n      add\n      0x00\n      keccak256\n        /* \"NFT-Contracts/contracts/market_pri/NewMarket.sol\":13501:13597  userBidPriceOnNFT[_nftContractAddress][_tokenId][\r... */\n      dup2\n      swap1\n      sstore\n      pop\n        /* \"NFT-Contracts/contracts/market_pri/NewMarket.sol\":13615:13680  NftBidPrice(_nftContractAddress, _tokenId, _bidPrice, msg.sender) */\n      0xd56cb6210c78740462007b728932c802bc41b205ed5c8a98ab95421eaf054b22\n        /* \"NFT-Contracts/contracts/market_pri/NewMarket.sol\":13627:13646  _nftContractAddress */\n      dup13\n        /* \"NFT-Contracts/contracts/market_pri/NewMarket.sol\":13648:13656  _tokenId */\n      dup13\n        /* \"NFT-Contracts/contracts/market_pri/NewMarket.sol\":13658:13667  _bidPrice */\n      dup13\n        /* \"NFT-Contracts/contracts/market_pri/NewMarket.sol\":13669:13679  msg.sender */\n      caller\n        /* \"NFT-Contracts/contracts/market_pri/NewMarket.sol\":13615:13680  NftBidPrice(_nftContractAddress, _tokenId, _bidPrice, msg.sender) */\n      mload(0x40)\n      tag_126\n      swap5\n      swap4\n      swap3\n      swap2\n      swap1\n      tag_127\n      jump\t// in\n    tag_126:\n      mload(0x40)\n      dup1\n      swap2\n      sub\n      swap1\n      log1\n        /* \"NFT-Contracts/contracts/market_pri/NewMarket.sol\":8075:8076  _ */\n      pop\n      pop\n      pop\n      pop\n        /* \"NFT-Contracts/contracts/market_pri/NewMarket.sol\":6097:6098  _ */\n      pop\n        /* \"NFT-Contracts/contracts/market_pri/NewMarket.sol\":3855:3856  _ */\n      pop\n      pop\n        /* \"NFT-Contracts/contracts/market_pri/NewMarket.sol\":12513:13688  function makeBid(\r... */\n      pop\n      pop\n      pop\n      pop\n      pop\n      jump\t// out\n        /* \"NFT-Contracts/contracts/market_pri/NewMarket.sol\":13696:15212  function updateTheBidPrice(\r... */\n    tag_37:\n        /* \"NFT-Contracts/contracts/market_pri/NewMarket.sol\":13892:13911  _nftContractAddress */\n      dup3\n        /* \"NFT-Contracts/contracts/market_pri/NewMarket.sol\":13913:13921  _tokenId */\n      dup3\n        /* \"NFT-Contracts/contracts/market_pri/NewMarket.sol\":3792:3793  2 */\n      0x02\n        /* \"NFT-Contracts/contracts/market_pri/NewMarket.sol\":3744:3757  nftSaleStatus */\n      dup1\n        /* \"NFT-Contracts/contracts/market_pri/NewMarket.sol\":3744:3778  nftSaleStatus[_nftContractAddress] */\n      0x00\n        /* \"NFT-Contracts/contracts/market_pri/NewMarket.sol\":3758:3777  _nftContractAddress */\n      dup5\n        /* \"NFT-Contracts/contracts/market_pri/NewMarket.sol\":3744:3778  nftSaleStatus[_nftContractAddress] */\n      0xffffffffffffffffffffffffffffffffffffffff\n      and\n      0xffffffffffffffffffffffffffffffffffffffff\n      and\n      dup2\n      mstore\n      0x20\n      add\n      swap1\n      dup2\n      mstore\n      0x20\n      add\n      0x00\n      keccak256\n        /* \"NFT-Contracts/contracts/market_pri/NewMarket.sol\":3744:3788  nftSaleStatus[_nftContractAddress][_tokenId] */\n      0x00\n        /* \"NFT-Contracts/contracts/market_pri/NewMarket.sol\":3779:3787  _tokenId */\n      dup4\n        /* \"NFT-Contracts/contracts/market_pri/NewMarket.sol\":3744:3788  nftSaleStatus[_nftContractAddress][_tokenId] */\n      dup2\n      mstore\n      0x20\n      add\n      swap1\n      dup2\n      mstore\n      0x20\n      add\n      0x00\n      keccak256\n      sload\n        /* \"NFT-Contracts/contracts/market_pri/NewMarket.sol\":3744:3793  nftSaleStatus[_nftContractAddress][_tokenId] == 2 */\n      eq\n        /* \"NFT-Contracts/contracts/market_pri/NewMarket.sol\":3722:3844  require(\r... */\n      tag_129\n      jumpi\n      mload(0x40)\n      0x08c379a000000000000000000000000000000000000000000000000000000000\n      dup2\n      mstore\n      0x04\n      add\n      tag_130\n      swap1\n      tag_105\n      jump\t// in\n    tag_130:\n      mload(0x40)\n      dup1\n      swap2\n      sub\n      swap1\n      revert\n    tag_129:\n        /* \"NFT-Contracts/contracts/market_pri/NewMarket.sol\":13949:13968  _nftContractAddress */\n      dup5\n        /* \"NFT-Contracts/contracts/market_pri/NewMarket.sol\":13970:13978  _tokenId */\n      dup5\n        /* \"NFT-Contracts/contracts/market_pri/NewMarket.sol\":5961:5983  nftContractAuctionSale */\n      0x01\n        /* \"NFT-Contracts/contracts/market_pri/NewMarket.sol\":5961:6004  nftContractAuctionSale[_nftContractAddress] */\n      0x00\n        /* \"NFT-Contracts/contracts/market_pri/NewMarket.sol\":5984:6003  _nftContractAddress */\n      dup4\n        /* \"NFT-Contracts/contracts/market_pri/NewMarket.sol\":5961:6004  nftContractAuctionSale[_nftContractAddress] */\n      0xffffffffffffffffffffffffffffffffffffffff\n      and\n      0xffffffffffffffffffffffffffffffffffffffff\n      and\n      dup2\n      mstore\n      0x20\n      add\n      swap1\n      dup2\n      mstore\n      0x20\n      add\n      0x00\n      keccak256\n        /* \"NFT-Contracts/contracts/market_pri/NewMarket.sol\":5961:6014  nftContractAuctionSale[_nftContractAddress][_tokenId] */\n      0x00\n        /* \"NFT-Contracts/contracts/market_pri/NewMarket.sol\":6005:6013  _tokenId */\n      dup3\n        /* \"NFT-Contracts/contracts/market_pri/NewMarket.sol\":5961:6014  nftContractAuctionSale[_nftContractAddress][_tokenId] */\n      dup2\n      mstore\n      0x20\n      add\n      swap1\n      dup2\n      mstore\n      0x20\n      add\n      0x00\n      keccak256\n        /* \"NFT-Contracts/contracts/market_pri/NewMarket.sol\":5961:6047  nftContractAuctionSale[_nftContractAddress][_tokenId]\r... */\n      0x01\n      add\n      sload\n        /* \"NFT-Contracts/contracts/market_pri/NewMarket.sol\":5926:5941  block.timestamp */\n      timestamp\n        /* \"NFT-Contracts/contracts/market_pri/NewMarket.sol\":5926:6047  block.timestamp <\r... */\n      lt\n        /* \"NFT-Contracts/contracts/market_pri/NewMarket.sol\":5904:6086  require(\r... */\n      tag_132\n      jumpi\n      mload(0x40)\n      0x08c379a000000000000000000000000000000000000000000000000000000000\n      dup2\n      mstore\n      0x04\n      add\n      tag_133\n      swap1\n      tag_109\n      jump\t// in\n    tag_133:\n      mload(0x40)\n      dup1\n      swap2\n      sub\n      swap1\n      revert\n    tag_132:\n        /* \"NFT-Contracts/contracts/market_pri/NewMarket.sol\":14010:14019  msg.value */\n      callvalue\n        /* \"NFT-Contracts/contracts/market_pri/NewMarket.sol\":8041:8042  0 */\n      0x00\n        /* \"NFT-Contracts/contracts/market_pri/NewMarket.sol\":8032:8038  _price */\n      dup2\n        /* \"NFT-Contracts/contracts/market_pri/NewMarket.sol\":8032:8042  _price > 0 */\n      gt\n        /* \"NFT-Contracts/contracts/market_pri/NewMarket.sol\":8024:8064  require(_price > 0, \"Price cannot be 0\") */\n      tag_135\n      jumpi\n      mload(0x40)\n      0x08c379a000000000000000000000000000000000000000000000000000000000\n      dup2\n      mstore\n      0x04\n      add\n      tag_136\n      swap1\n      tag_113\n      jump\t// in\n    tag_136:\n      mload(0x40)\n      dup1\n      swap2\n      sub\n      swap1\n      revert\n    tag_135:\n        /* \"NFT-Contracts/contracts/market_pri/NewMarket.sol\":14075:14094  _nftContractAddress */\n      dup8\n        /* \"NFT-Contracts/contracts/market_pri/NewMarket.sol\":14109:14117  _tokenId */\n      dup8\n        /* \"NFT-Contracts/contracts/market_pri/NewMarket.sol\":14132:14141  msg.value */\n      callvalue\n        /* \"NFT-Contracts/contracts/market_pri/NewMarket.sol\":14156:14171  _updateBidPrice */\n      dup9\n        /* \"NFT-Contracts/contracts/market_pri/NewMarket.sol\":6605:6627  uint256 _finalBidPrice */\n      0x00\n        /* \"NFT-Contracts/contracts/market_pri/NewMarket.sol\":6740:6741  0 */\n      dup1\n        /* \"NFT-Contracts/contracts/market_pri/NewMarket.sol\":6656:6742  nftContractAuctionSale[_nftContractAddress][_tokenId].erc20 ==\r... */\n      0xffffffffffffffffffffffffffffffffffffffff\n      and\n        /* \"NFT-Contracts/contracts/market_pri/NewMarket.sol\":6656:6678  nftContractAuctionSale */\n      0x01\n        /* \"NFT-Contracts/contracts/market_pri/NewMarket.sol\":6656:6699  nftContractAuctionSale[_nftContractAddress] */\n      0x00\n        /* \"NFT-Contracts/contracts/market_pri/NewMarket.sol\":6679:6698  _nftContractAddress */\n      dup8\n        /* \"NFT-Contracts/contracts/market_pri/NewMarket.sol\":6656:6699  nftContractAuctionSale[_nftContractAddress] */\n      0xffffffffffffffffffffffffffffffffffffffff\n      and\n      0xffffffffffffffffffffffffffffffffffffffff\n      and\n      dup2\n      mstore\n      0x20\n      add\n      swap1\n      dup2\n      mstore\n      0x20\n      add\n      0x00\n      keccak256\n        /* \"NFT-Contracts/contracts/market_pri/NewMarket.sol\":6656:6709  nftContractAuctionSale[_nftContractAddress][_tokenId] */\n      0x00\n        /* \"NFT-Contracts/contracts/market_pri/NewMarket.sol\":6700:6708  _tokenId */\n      dup7\n        /* \"NFT-Contracts/contracts/market_pri/NewMarket.sol\":6656:6709  nftContractAuctionSale[_nftContractAddress][_tokenId] */\n      dup2\n      mstore\n      0x20\n      add\n      swap1\n      dup2\n      mstore\n      0x20\n      add\n      0x00\n      keccak256\n        /* \"NFT-Contracts/contracts/market_pri/NewMarket.sol\":6656:6715  nftContractAuctionSale[_nftContractAddress][_tokenId].erc20 */\n      0x06\n      add\n      0x00\n      swap1\n      sload\n      swap1\n      0x0100\n      exp\n      swap1\n      div\n      0xffffffffffffffffffffffffffffffffffffffff\n      and\n        /* \"NFT-Contracts/contracts/market_pri/NewMarket.sol\":6656:6742  nftContractAuctionSale[_nftContractAddress][_tokenId].erc20 ==\r... */\n      0xffffffffffffffffffffffffffffffffffffffff\n      and\n      eq\n        /* \"NFT-Contracts/contracts/market_pri/NewMarket.sol\":6638:7075  if (\r... */\n      iszero\n      tag_138\n      jumpi\n        /* \"NFT-Contracts/contracts/market_pri/NewMarket.sol\":6786:6899  userBidPriceOnNFT[_nftContractAddress][_tokenId][\r... */\n      tag_139\n        /* \"NFT-Contracts/contracts/market_pri/NewMarket.sol\":6883:6898  _updateBidPrice */\n      dup4\n        /* \"NFT-Contracts/contracts/market_pri/NewMarket.sol\":6786:6803  userBidPriceOnNFT */\n      0x03\n        /* \"NFT-Contracts/contracts/market_pri/NewMarket.sol\":6786:6824  userBidPriceOnNFT[_nftContractAddress] */\n      0x00\n        /* \"NFT-Contracts/contracts/market_pri/NewMarket.sol\":6804:6823  _nftContractAddress */\n      dup9\n        /* \"NFT-Contracts/contracts/market_pri/NewMarket.sol\":6786:6824  userBidPriceOnNFT[_nftContractAddress] */\n      0xffffffffffffffffffffffffffffffffffffffff\n      and\n      0xffffffffffffffffffffffffffffffffffffffff\n      and\n      dup2\n      mstore\n      0x20\n      add\n      swap1\n      dup2\n      mstore\n      0x20\n      add\n      0x00\n      keccak256\n        /* \"NFT-Contracts/contracts/market_pri/NewMarket.sol\":6786:6834  userBidPriceOnNFT[_nftContractAddress][_tokenId] */\n      0x00\n        /* \"NFT-Contracts/contracts/market_pri/NewMarket.sol\":6825:6833  _tokenId */\n      dup8\n        /* \"NFT-Contracts/contracts/market_pri/NewMarket.sol\":6786:6834  userBidPriceOnNFT[_nftContractAddress][_tokenId] */\n      dup2\n      mstore\n      0x20\n      add\n      swap1\n      dup2\n      mstore\n      0x20\n      add\n      0x00\n      keccak256\n        /* \"NFT-Contracts/contracts/market_pri/NewMarket.sol\":6786:6878  userBidPriceOnNFT[_nftContractAddress][_tokenId][\r... */\n      0x00\n        /* \"NFT-Contracts/contracts/market_pri/NewMarket.sol\":6853:6863  msg.sender */\n      caller\n        /* \"NFT-Contracts/contracts/market_pri/NewMarket.sol\":6786:6878  userBidPriceOnNFT[_nftContractAddress][_tokenId][\r... */\n      0xffffffffffffffffffffffffffffffffffffffff\n      and\n      0xffffffffffffffffffffffffffffffffffffffff\n      and\n      dup2\n      mstore\n      0x20\n      add\n      swap1\n      dup2\n      mstore\n      0x20\n      add\n      0x00\n      keccak256\n      sload\n        /* \"NFT-Contracts/contracts/market_pri/NewMarket.sol\":6786:6882  userBidPriceOnNFT[_nftContractAddress][_tokenId][\r... */\n      tag_140\n      swap1\n        /* \"NFT-Contracts/contracts/market_pri/NewMarket.sol\":6786:6899  userBidPriceOnNFT[_nftContractAddress][_tokenId][\r... */\n      swap2\n      swap1\n      0xffffffff\n      and\n      jump\t// in\n    tag_139:\n        /* \"NFT-Contracts/contracts/market_pri/NewMarket.sol\":6769:6899  _finalBidPrice = userBidPriceOnNFT[_nftContractAddress][_tokenId][\r... */\n      swap1\n      pop\n        /* \"NFT-Contracts/contracts/market_pri/NewMarket.sol\":6638:7075  if (\r... */\n      jump(tag_141)\n    tag_138:\n        /* \"NFT-Contracts/contracts/market_pri/NewMarket.sol\":6949:7063  userBidPriceOnNFT[_nftContractAddress][_tokenId][\r... */\n      tag_142\n        /* \"NFT-Contracts/contracts/market_pri/NewMarket.sol\":7046:7062  _updateBidPrice1 */\n      dup3\n        /* \"NFT-Contracts/contracts/market_pri/NewMarket.sol\":6949:6966  userBidPriceOnNFT */\n      0x03\n        /* \"NFT-Contracts/contracts/market_pri/NewMarket.sol\":6949:6987  userBidPriceOnNFT[_nftContractAddress] */\n      0x00\n        /* \"NFT-Contracts/contracts/market_pri/NewMarket.sol\":6967:6986  _nftContractAddress */\n      dup9\n        /* \"NFT-Contracts/contracts/market_pri/NewMarket.sol\":6949:6987  userBidPriceOnNFT[_nftContractAddress] */\n      0xffffffffffffffffffffffffffffffffffffffff\n      and\n      0xffffffffffffffffffffffffffffffffffffffff\n      and\n      dup2\n      mstore\n      0x20\n      add\n      swap1\n      dup2\n      mstore\n      0x20\n      add\n      0x00\n      keccak256\n        /* \"NFT-Contracts/contracts/market_pri/NewMarket.sol\":6949:6997  userBidPriceOnNFT[_nftContractAddress][_tokenId] */\n      0x00\n        /* \"NFT-Contracts/contracts/market_pri/NewMarket.sol\":6988:6996  _tokenId */\n      dup8\n        /* \"NFT-Contracts/contracts/market_pri/NewMarket.sol\":6949:6997  userBidPriceOnNFT[_nftContractAddress][_tokenId] */\n      dup2\n      mstore\n      0x20\n      add\n      swap1\n      dup2\n      mstore\n      0x20\n      add\n      0x00\n      keccak256\n        /* \"NFT-Contracts/contracts/market_pri/NewMarket.sol\":6949:7041  userBidPriceOnNFT[_nftContractAddress][_tokenId][\r... */\n      0x00\n        /* \"NFT-Contracts/contracts/market_pri/NewMarket.sol\":7016:7026  msg.sender */\n      caller\n        /* \"NFT-Contracts/contracts/market_pri/NewMarket.sol\":6949:7041  userBidPriceOnNFT[_nftContractAddress][_tokenId][\r... */\n      0xffffffffffffffffffffffffffffffffffffffff\n      and\n      0xffffffffffffffffffffffffffffffffffffffff\n      and\n      dup2\n      mstore\n      0x20\n      add\n      swap1\n      dup2\n      mstore\n      0x20\n      add\n      0x00\n      keccak256\n      sload\n        /* \"NFT-Contracts/contracts/market_pri/NewMarket.sol\":6949:7045  userBidPriceOnNFT[_nftContractAddress][_tokenId][\r... */\n      tag_140\n      swap1\n        /* \"NFT-Contracts/contracts/market_pri/NewMarket.sol\":6949:7063  userBidPriceOnNFT[_nftContractAddress][_tokenId][\r... */\n      swap2\n      swap1\n      0xffffffff\n      and\n      jump\t// in\n    tag_142:\n        /* \"NFT-Contracts/contracts/market_pri/NewMarket.sol\":6932:7063  _finalBidPrice = userBidPriceOnNFT[_nftContractAddress][_tokenId][\r... */\n      swap1\n      pop\n        /* \"NFT-Contracts/contracts/market_pri/NewMarket.sol\":6638:7075  if (\r... */\n    tag_141:\n        /* \"NFT-Contracts/contracts/market_pri/NewMarket.sol\":7141:7163  nftContractAuctionSale */\n      0x01\n        /* \"NFT-Contracts/contracts/market_pri/NewMarket.sol\":7141:7184  nftContractAuctionSale[_nftContractAddress] */\n      0x00\n        /* \"NFT-Contracts/contracts/market_pri/NewMarket.sol\":7164:7183  _nftContractAddress */\n      dup7\n        /* \"NFT-Contracts/contracts/market_pri/NewMarket.sol\":7141:7184  nftContractAuctionSale[_nftContractAddress] */\n      0xffffffffffffffffffffffffffffffffffffffff\n      and\n      0xffffffffffffffffffffffffffffffffffffffff\n      and\n      dup2\n      mstore\n      0x20\n      add\n      swap1\n      dup2\n      mstore\n      0x20\n      add\n      0x00\n      keccak256\n        /* \"NFT-Contracts/contracts/market_pri/NewMarket.sol\":7141:7194  nftContractAuctionSale[_nftContractAddress][_tokenId] */\n      0x00\n        /* \"NFT-Contracts/contracts/market_pri/NewMarket.sol\":7185:7193  _tokenId */\n      dup6\n        /* \"NFT-Contracts/contracts/market_pri/NewMarket.sol\":7141:7194  nftContractAuctionSale[_nftContractAddress][_tokenId] */\n      dup2\n      mstore\n      0x20\n      add\n      swap1\n      dup2\n      mstore\n      0x20\n      add\n      0x00\n      keccak256\n        /* \"NFT-Contracts/contracts/market_pri/NewMarket.sol\":7141:7230  nftContractAuctionSale[_nftContractAddress][_tokenId]\r... */\n      0x03\n      add\n      sload\n        /* \"NFT-Contracts/contracts/market_pri/NewMarket.sol\":7107:7121  _finalBidPrice */\n      dup2\n        /* \"NFT-Contracts/contracts/market_pri/NewMarket.sol\":7107:7230  _finalBidPrice >\r... */\n      gt\n        /* \"NFT-Contracts/contracts/market_pri/NewMarket.sol\":7085:7287  require(\r... */\n      tag_143\n      jumpi\n      mload(0x40)\n      0x08c379a000000000000000000000000000000000000000000000000000000000\n      dup2\n      mstore\n      0x04\n      add\n      tag_144\n      swap1\n      tag_118\n      jump\t// in\n    tag_144:\n      mload(0x40)\n      dup1\n      swap2\n      sub\n      swap1\n      revert\n    tag_143:\n        /* \"NFT-Contracts/contracts/market_pri/NewMarket.sol\":14199:14225  address nftContractAddress */\n      0x00\n        /* \"NFT-Contracts/contracts/market_pri/NewMarket.sol\":14228:14247  _nftContractAddress */\n      dup14\n        /* \"NFT-Contracts/contracts/market_pri/NewMarket.sol\":14199:14247  address nftContractAddress = _nftContractAddress */\n      swap1\n      pop\n        /* \"NFT-Contracts/contracts/market_pri/NewMarket.sol\":14258:14273  uint256 tokenId */\n      0x00\n        /* \"NFT-Contracts/contracts/market_pri/NewMarket.sol\":14276:14284  _tokenId */\n      dup14\n        /* \"NFT-Contracts/contracts/market_pri/NewMarket.sol\":14258:14284  uint256 tokenId = _tokenId */\n      swap1\n      pop\n        /* \"NFT-Contracts/contracts/market_pri/NewMarket.sol\":14295:14316  uint256 finalBidPrice */\n      0x00\n        /* \"NFT-Contracts/contracts/market_pri/NewMarket.sol\":14319:14422  userBidPriceOnNFT[nftContractAddress][tokenId][\r... */\n      tag_146\n        /* \"NFT-Contracts/contracts/market_pri/NewMarket.sol\":14406:14421  _updateBidPrice */\n      dup15\n        /* \"NFT-Contracts/contracts/market_pri/NewMarket.sol\":14319:14336  userBidPriceOnNFT */\n      0x03\n        /* \"NFT-Contracts/contracts/market_pri/NewMarket.sol\":14319:14356  userBidPriceOnNFT[nftContractAddress] */\n      0x00\n        /* \"NFT-Contracts/contracts/market_pri/NewMarket.sol\":14337:14355  nftContractAddress */\n      dup7\n        /* \"NFT-Contracts/contracts/market_pri/NewMarket.sol\":14319:14356  userBidPriceOnNFT[nftContractAddress] */\n      0xffffffffffffffffffffffffffffffffffffffff\n      and\n      0xffffffffffffffffffffffffffffffffffffffff\n      and\n      dup2\n      mstore\n      0x20\n      add\n      swap1\n      dup2\n      mstore\n      0x20\n      add\n      0x00\n      keccak256\n        /* \"NFT-Contracts/contracts/market_pri/NewMarket.sol\":14319:14365  userBidPriceOnNFT[nftContractAddress][tokenId] */\n      0x00\n        /* \"NFT-Contracts/contracts/market_pri/NewMarket.sol\":14357:14364  tokenId */\n      dup6\n        /* \"NFT-Contracts/contracts/market_pri/NewMarket.sol\":14319:14365  userBidPriceOnNFT[nftContractAddress][tokenId] */\n      dup2\n      mstore\n      0x20\n      add\n      swap1\n      dup2\n      mstore\n      0x20\n      add\n      0x00\n      keccak256\n        /* \"NFT-Contracts/contracts/market_pri/NewMarket.sol\":14319:14401  userBidPriceOnNFT[nftContractAddress][tokenId][\r... */\n      0x00\n        /* \"NFT-Contracts/contracts/market_pri/NewMarket.sol\":14380:14390  msg.sender */\n      caller\n        /* \"NFT-Contracts/contracts/market_pri/NewMarket.sol\":14319:14401  userBidPriceOnNFT[nftContractAddress][tokenId][\r... */\n      0xffffffffffffffffffffffffffffffffffffffff\n      and\n      0xffffffffffffffffffffffffffffffffffffffff\n      and\n      dup2\n      mstore\n      0x20\n      add\n      swap1\n      dup2\n      mstore\n      0x20\n      add\n      0x00\n      keccak256\n      sload\n        /* \"NFT-Contracts/contracts/market_pri/NewMarket.sol\":14319:14405  userBidPriceOnNFT[nftContractAddress][tokenId][\r... */\n      tag_140\n      swap1\n        /* \"NFT-Contracts/contracts/market_pri/NewMarket.sol\":14319:14422  userBidPriceOnNFT[nftContractAddress][tokenId][\r... */\n      swap2\n      swap1\n      0xffffffff\n      and\n      jump\t// in\n    tag_146:\n        /* \"NFT-Contracts/contracts/market_pri/NewMarket.sol\":14295:14422  uint256 finalBidPrice = userBidPriceOnNFT[nftContractAddress][tokenId][\r... */\n      swap1\n      pop\n        /* \"NFT-Contracts/contracts/market_pri/NewMarket.sol\":14535:14536  0 */\n      0x00\n        /* \"NFT-Contracts/contracts/market_pri/NewMarket.sol\":14453:14537  nftContractAuctionSale[nftContractAddress][tokenId].erc20 !=\r... */\n      0xffffffffffffffffffffffffffffffffffffffff\n      and\n        /* \"NFT-Contracts/contracts/market_pri/NewMarket.sol\":14453:14475  nftContractAuctionSale */\n      0x01\n        /* \"NFT-Contracts/contracts/market_pri/NewMarket.sol\":14453:14495  nftContractAuctionSale[nftContractAddress] */\n      0x00\n        /* \"NFT-Contracts/contracts/market_pri/NewMarket.sol\":14476:14494  nftContractAddress */\n      dup6\n        /* \"NFT-Contracts/contracts/market_pri/NewMarket.sol\":14453:14495  nftContractAuctionSale[nftContractAddress] */\n      0xffffffffffffffffffffffffffffffffffffffff\n      and\n      0xffffffffffffffffffffffffffffffffffffffff\n      and\n      dup2\n      mstore\n      0x20\n      add\n      swap1\n      dup2\n      mstore\n      0x20\n      add\n      0x00\n      keccak256\n        /* \"NFT-Contracts/contracts/market_pri/NewMarket.sol\":14453:14504  nftContractAuctionSale[nftContractAddress][tokenId] */\n      0x00\n        /* \"NFT-Contracts/contracts/market_pri/NewMarket.sol\":14496:14503  tokenId */\n      dup5\n        /* \"NFT-Contracts/contracts/market_pri/NewMarket.sol\":14453:14504  nftContractAuctionSale[nftContractAddress][tokenId] */\n      dup2\n      mstore\n      0x20\n      add\n      swap1\n      dup2\n      mstore\n      0x20\n      add\n      0x00\n      keccak256\n        /* \"NFT-Contracts/contracts/market_pri/NewMarket.sol\":14453:14510  nftContractAuctionSale[nftContractAddress][tokenId].erc20 */\n      0x06\n      add\n      0x00\n      swap1\n      sload\n      swap1\n      0x0100\n      exp\n      swap1\n      div\n      0xffffffffffffffffffffffffffffffffffffffff\n      and\n        /* \"NFT-Contracts/contracts/market_pri/NewMarket.sol\":14453:14537  nftContractAuctionSale[nftContractAddress][tokenId].erc20 !=\r... */\n      0xffffffffffffffffffffffffffffffffffffffff\n      and\n      eq\n        /* \"NFT-Contracts/contracts/market_pri/NewMarket.sol\":14435:14719  if (\r... */\n      tag_147\n      jumpi\n        /* \"NFT-Contracts/contracts/market_pri/NewMarket.sol\":14564:14707  _bidAmountTransfer(\r... */\n      tag_148\n        /* \"NFT-Contracts/contracts/market_pri/NewMarket.sol\":14601:14616  _updateBidPrice */\n      dup15\n        /* \"NFT-Contracts/contracts/market_pri/NewMarket.sol\":14635:14657  nftContractAuctionSale */\n      0x01\n        /* \"NFT-Contracts/contracts/market_pri/NewMarket.sol\":14635:14677  nftContractAuctionSale[nftContractAddress] */\n      0x00\n        /* \"NFT-Contracts/contracts/market_pri/NewMarket.sol\":14658:14676  nftContractAddress */\n      dup7\n        /* \"NFT-Contracts/contracts/market_pri/NewMarket.sol\":14635:14677  nftContractAuctionSale[nftContractAddress] */\n      0xffffffffffffffffffffffffffffffffffffffff\n      and\n      0xffffffffffffffffffffffffffffffffffffffff\n      and\n      dup2\n      mstore\n      0x20\n      add\n      swap1\n      dup2\n      mstore\n      0x20\n      add\n      0x00\n      keccak256\n        /* \"NFT-Contracts/contracts/market_pri/NewMarket.sol\":14635:14686  nftContractAuctionSale[nftContractAddress][tokenId] */\n      0x00\n        /* \"NFT-Contracts/contracts/market_pri/NewMarket.sol\":14678:14685  tokenId */\n      dup6\n        /* \"NFT-Contracts/contracts/market_pri/NewMarket.sol\":14635:14686  nftContractAuctionSale[nftContractAddress][tokenId] */\n      dup2\n      mstore\n      0x20\n      add\n      swap1\n      dup2\n      mstore\n      0x20\n      add\n      0x00\n      keccak256\n        /* \"NFT-Contracts/contracts/market_pri/NewMarket.sol\":14635:14692  nftContractAuctionSale[nftContractAddress][tokenId].erc20 */\n      0x06\n      add\n      0x00\n      swap1\n      sload\n      swap1\n      0x0100\n      exp\n      swap1\n      div\n      0xffffffffffffffffffffffffffffffffffffffff\n      and\n        /* \"NFT-Contracts/contracts/market_pri/NewMarket.sol\":14564:14582  _bidAmountTransfer */\n      tag_125\n        /* \"NFT-Contracts/contracts/market_pri/NewMarket.sol\":14564:14707  _bidAmountTransfer(\r... */\n      jump\t// in\n    tag_148:\n        /* \"NFT-Contracts/contracts/market_pri/NewMarket.sol\":14435:14719  if (\r... */\n    tag_147:\n        /* \"NFT-Contracts/contracts/market_pri/NewMarket.sol\":14813:14826  finalBidPrice */\n      dup1\n        /* \"NFT-Contracts/contracts/market_pri/NewMarket.sol\":14731:14753  nftContractAuctionSale */\n      0x01\n        /* \"NFT-Contracts/contracts/market_pri/NewMarket.sol\":14731:14773  nftContractAuctionSale[nftContractAddress] */\n      0x00\n        /* \"NFT-Contracts/contracts/market_pri/NewMarket.sol\":14754:14772  nftContractAddress */\n      dup6\n        /* \"NFT-Contracts/contracts/market_pri/NewMarket.sol\":14731:14773  nftContractAuctionSale[nftContractAddress] */\n      0xffffffffffffffffffffffffffffffffffffffff\n      and\n      0xffffffffffffffffffffffffffffffffffffffff\n      and\n      dup2\n      mstore\n      0x20\n      add\n      swap1\n      dup2\n      mstore\n      0x20\n      add\n      0x00\n      keccak256\n        /* \"NFT-Contracts/contracts/market_pri/NewMarket.sol\":14731:14782  nftContractAuctionSale[nftContractAddress][tokenId] */\n      0x00\n        /* \"NFT-Contracts/contracts/market_pri/NewMarket.sol\":14774:14781  tokenId */\n      dup5\n        /* \"NFT-Contracts/contracts/market_pri/NewMarket.sol\":14731:14782  nftContractAuctionSale[nftContractAddress][tokenId] */\n      dup2\n      mstore\n      0x20\n      add\n      swap1\n      dup2\n      mstore\n      0x20\n      add\n      0x00\n      keccak256\n        /* \"NFT-Contracts/contracts/market_pri/NewMarket.sol\":14731:14810  nftContractAuctionSale[nftContractAddress][tokenId]\r... */\n      0x03\n      add\n        /* \"NFT-Contracts/contracts/market_pri/NewMarket.sol\":14731:14826  nftContractAuctionSale[nftContractAddress][tokenId]\r... */\n      dup2\n      swap1\n      sstore\n      pop\n        /* \"NFT-Contracts/contracts/market_pri/NewMarket.sol\":14922:14932  msg.sender */\n      caller\n        /* \"NFT-Contracts/contracts/market_pri/NewMarket.sol\":14837:14859  nftContractAuctionSale */\n      0x01\n        /* \"NFT-Contracts/contracts/market_pri/NewMarket.sol\":14837:14879  nftContractAuctionSale[nftContractAddress] */\n      0x00\n        /* \"NFT-Contracts/contracts/market_pri/NewMarket.sol\":14860:14878  nftContractAddress */\n      dup6\n        /* \"NFT-Contracts/contracts/market_pri/NewMarket.sol\":14837:14879  nftContractAuctionSale[nftContractAddress] */\n      0xffffffffffffffffffffffffffffffffffffffff\n      and\n      0xffffffffffffffffffffffffffffffffffffffff\n      and\n      dup2\n      mstore\n      0x20\n      add\n      swap1\n      dup2\n      mstore\n      0x20\n      add\n      0x00\n      keccak256\n        /* \"NFT-Contracts/contracts/market_pri/NewMarket.sol\":14837:14888  nftContractAuctionSale[nftContractAddress][tokenId] */\n      0x00\n        /* \"NFT-Contracts/contracts/market_pri/NewMarket.sol\":14880:14887  tokenId */\n      dup5\n        /* \"NFT-Contracts/contracts/market_pri/NewMarket.sol\":14837:14888  nftContractAuctionSale[nftContractAddress][tokenId] */\n      dup2\n      mstore\n      0x20\n      add\n      swap1\n      dup2\n      mstore\n      0x20\n      add\n      0x00\n      keccak256\n        /* \"NFT-Contracts/contracts/market_pri/NewMarket.sol\":14837:14919  nftContractAuctionSale[nftContractAddress][tokenId]\r... */\n      0x04\n      add\n      0x00\n        /* \"NFT-Contracts/contracts/market_pri/NewMarket.sol\":14837:14932  nftContractAuctionSale[nftContractAddress][tokenId]\r... */\n      0x0100\n      exp\n      dup2\n      sload\n      dup2\n      0xffffffffffffffffffffffffffffffffffffffff\n      mul\n      not\n      and\n      swap1\n      dup4\n      0xffffffffffffffffffffffffffffffffffffffff\n      and\n      mul\n      or\n      swap1\n      sstore\n      pop\n        /* \"NFT-Contracts/contracts/market_pri/NewMarket.sol\":15030:15043  finalBidPrice */\n      dup1\n        /* \"NFT-Contracts/contracts/market_pri/NewMarket.sol\":14945:14962  userBidPriceOnNFT */\n      0x03\n        /* \"NFT-Contracts/contracts/market_pri/NewMarket.sol\":14945:14982  userBidPriceOnNFT[nftContractAddress] */\n      0x00\n        /* \"NFT-Contracts/contracts/market_pri/NewMarket.sol\":14963:14981  nftContractAddress */\n      dup6\n        /* \"NFT-Contracts/contracts/market_pri/NewMarket.sol\":14945:14982  userBidPriceOnNFT[nftContractAddress] */\n      0xffffffffffffffffffffffffffffffffffffffff\n      and\n      0xffffffffffffffffffffffffffffffffffffffff\n      and\n      dup2\n      mstore\n      0x20\n      add\n      swap1\n      dup2\n      mstore\n      0x20\n      add\n      0x00\n      keccak256\n        /* \"NFT-Contracts/contracts/market_pri/NewMarket.sol\":14945:14991  userBidPriceOnNFT[nftContractAddress][tokenId] */\n      0x00\n        /* \"NFT-Contracts/contracts/market_pri/NewMarket.sol\":14983:14990  tokenId */\n      dup5\n        /* \"NFT-Contracts/contracts/market_pri/NewMarket.sol\":14945:14991  userBidPriceOnNFT[nftContractAddress][tokenId] */\n      dup2\n      mstore\n      0x20\n      add\n      swap1\n      dup2\n      mstore\n      0x20\n      add\n      0x00\n      keccak256\n        /* \"NFT-Contracts/contracts/market_pri/NewMarket.sol\":14945:15027  userBidPriceOnNFT[nftContractAddress][tokenId][\r... */\n      0x00\n        /* \"NFT-Contracts/contracts/market_pri/NewMarket.sol\":15006:15016  msg.sender */\n      caller\n        /* \"NFT-Contracts/contracts/market_pri/NewMarket.sol\":14945:15027  userBidPriceOnNFT[nftContractAddress][tokenId][\r... */\n      0xffffffffffffffffffffffffffffffffffffffff\n      and\n      0xffffffffffffffffffffffffffffffffffffffff\n      and\n      dup2\n      mstore\n      0x20\n      add\n      swap1\n      dup2\n      mstore\n      0x20\n      add\n      0x00\n      keccak256\n        /* \"NFT-Contracts/contracts/market_pri/NewMarket.sol\":14945:15043  userBidPriceOnNFT[nftContractAddress][tokenId][\r... */\n      dup2\n      swap1\n      sstore\n      pop\n        /* \"NFT-Contracts/contracts/market_pri/NewMarket.sol\":15061:15204  NftAuctionBidPriceUpdate(\r... */\n      0x907cdadc7c1a8abcdd80cdd85eb18377631e4f413fb6397a8252ff7b358ac6cb\n        /* \"NFT-Contracts/contracts/market_pri/NewMarket.sol\":15100:15118  nftContractAddress */\n      dup4\n        /* \"NFT-Contracts/contracts/market_pri/NewMarket.sol\":15133:15140  tokenId */\n      dup4\n        /* \"NFT-Contracts/contracts/market_pri/NewMarket.sol\":15155:15168  finalBidPrice */\n      dup4\n        /* \"NFT-Contracts/contracts/market_pri/NewMarket.sol\":15183:15193  msg.sender */\n      caller\n        /* \"NFT-Contracts/contracts/market_pri/NewMarket.sol\":15061:15204  NftAuctionBidPriceUpdate(\r... */\n      mload(0x40)\n      tag_149\n      swap5\n      swap4\n      swap3\n      swap2\n      swap1\n      tag_127\n      jump\t// in\n    tag_149:\n      mload(0x40)\n      dup1\n      swap2\n      sub\n      swap1\n      log1\n        /* \"NFT-Contracts/contracts/market_pri/NewMarket.sol\":7298:7299  _ */\n      pop\n      pop\n      pop\n        /* \"NFT-Contracts/contracts/market_pri/NewMarket.sol\":8075:8076  _ */\n      pop\n      pop\n      pop\n      pop\n      pop\n        /* \"NFT-Contracts/contracts/market_pri/NewMarket.sol\":6097:6098  _ */\n      pop\n        /* \"NFT-Contracts/contracts/market_pri/NewMarket.sol\":3855:3856  _ */\n      pop\n      pop\n        /* \"NFT-Contracts/contracts/market_pri/NewMarket.sol\":13696:15212  function updateTheBidPrice(\r... */\n      pop\n      pop\n      pop\n      pop\n      pop\n      jump\t// out\n        /* \"NFT-Contracts/contracts/market_pri/NewMarket.sol\":9854:10432  function updateFixedSalePrice(\r... */\n    tag_41:\n        /* \"NFT-Contracts/contracts/market_pri/NewMarket.sol\":10035:10054  _nftContractAddress */\n      dup3\n        /* \"NFT-Contracts/contracts/market_pri/NewMarket.sol\":10056:10064  _tokenId */\n      dup3\n        /* \"NFT-Contracts/contracts/market_pri/NewMarket.sol\":3558:3559  1 */\n      0x01\n        /* \"NFT-Contracts/contracts/market_pri/NewMarket.sol\":3510:3523  nftSaleStatus */\n      0x02\n        /* \"NFT-Contracts/contracts/market_pri/NewMarket.sol\":3510:3544  nftSaleStatus[_nftContractAddress] */\n      0x00\n        /* \"NFT-Contracts/contracts/market_pri/NewMarket.sol\":3524:3543  _nftContractAddress */\n      dup5\n        /* \"NFT-Contracts/contracts/market_pri/NewMarket.sol\":3510:3544  nftSaleStatus[_nftContractAddress] */\n      0xffffffffffffffffffffffffffffffffffffffff\n      and\n      0xffffffffffffffffffffffffffffffffffffffff\n      and\n      dup2\n      mstore\n      0x20\n      add\n      swap1\n      dup2\n      mstore\n      0x20\n      add\n      0x00\n      keccak256\n        /* \"NFT-Contracts/contracts/market_pri/NewMarket.sol\":3510:3554  nftSaleStatus[_nftContractAddress][_tokenId] */\n      0x00\n        /* \"NFT-Contracts/contracts/market_pri/NewMarket.sol\":3545:3553  _tokenId */\n      dup4\n        /* \"NFT-Contracts/contracts/market_pri/NewMarket.sol\":3510:3554  nftSaleStatus[_nftContractAddress][_tokenId] */\n      dup2\n      mstore\n      0x20\n      add\n      swap1\n      dup2\n      mstore\n      0x20\n      add\n      0x00\n      keccak256\n      sload\n        /* \"NFT-Contracts/contracts/market_pri/NewMarket.sol\":3510:3559  nftSaleStatus[_nftContractAddress][_tokenId] == 1 */\n      eq\n        /* \"NFT-Contracts/contracts/market_pri/NewMarket.sol\":3488:3608  require(\r... */\n      tag_151\n      jumpi\n      mload(0x40)\n      0x08c379a000000000000000000000000000000000000000000000000000000000\n      dup2\n      mstore\n      0x04\n      add\n      tag_152\n      swap1\n      tag_153\n      jump\t// in\n    tag_152:\n      mload(0x40)\n      dup1\n      swap2\n      sub\n      swap1\n      revert\n    tag_151:\n        /* \"NFT-Contracts/contracts/market_pri/NewMarket.sol\":10094:10113  _nftContractAddress */\n      dup5\n        /* \"NFT-Contracts/contracts/market_pri/NewMarket.sol\":10115:10123  _tokenId */\n      dup5\n        /* \"NFT-Contracts/contracts/market_pri/NewMarket.sol\":4256:4276  nftContractFixedSale */\n      0x00\n        /* \"NFT-Contracts/contracts/market_pri/NewMarket.sol\":4256:4297  nftContractFixedSale[_nftContractAddress] */\n      dup1\n        /* \"NFT-Contracts/contracts/market_pri/NewMarket.sol\":4277:4296  _nftContractAddress */\n      dup4\n        /* \"NFT-Contracts/contracts/market_pri/NewMarket.sol\":4256:4297  nftContractFixedSale[_nftContractAddress] */\n      0xffffffffffffffffffffffffffffffffffffffff\n      and\n      0xffffffffffffffffffffffffffffffffffffffff\n      and\n      dup2\n      mstore\n      0x20\n      add\n      swap1\n      dup2\n      mstore\n      0x20\n      add\n      0x00\n      keccak256\n        /* \"NFT-Contracts/contracts/market_pri/NewMarket.sol\":4256:4307  nftContractFixedSale[_nftContractAddress][_tokenId] */\n      0x00\n        /* \"NFT-Contracts/contracts/market_pri/NewMarket.sol\":4298:4306  _tokenId */\n      dup3\n        /* \"NFT-Contracts/contracts/market_pri/NewMarket.sol\":4256:4307  nftContractFixedSale[_nftContractAddress][_tokenId] */\n      dup2\n      mstore\n      0x20\n      add\n      swap1\n      dup2\n      mstore\n      0x20\n      add\n      0x00\n      keccak256\n        /* \"NFT-Contracts/contracts/market_pri/NewMarket.sol\":4256:4317  nftContractFixedSale[_nftContractAddress][_tokenId].nftSeller */\n      0x00\n      add\n      0x00\n      swap1\n      sload\n      swap1\n      0x0100\n      exp\n      swap1\n      div\n      0xffffffffffffffffffffffffffffffffffffffff\n      and\n        /* \"NFT-Contracts/contracts/market_pri/NewMarket.sol\":4225:4317  msg.sender ==\r... */\n      0xffffffffffffffffffffffffffffffffffffffff\n      and\n        /* \"NFT-Contracts/contracts/market_pri/NewMarket.sol\":4225:4235  msg.sender */\n      caller\n        /* \"NFT-Contracts/contracts/market_pri/NewMarket.sol\":4225:4317  msg.sender ==\r... */\n      0xffffffffffffffffffffffffffffffffffffffff\n      and\n      eq\n        /* \"NFT-Contracts/contracts/market_pri/NewMarket.sol\":4203:4366  require(\r... */\n      tag_155\n      jumpi\n      mload(0x40)\n      0x08c379a000000000000000000000000000000000000000000000000000000000\n      dup2\n      mstore\n      0x04\n      add\n      tag_156\n      swap1\n      tag_157\n      jump\t// in\n    tag_156:\n      mload(0x40)\n      dup1\n      swap2\n      sub\n      swap1\n      revert\n    tag_155:\n        /* \"NFT-Contracts/contracts/market_pri/NewMarket.sol\":10155:10171  _updateSalePrice */\n      dup5\n        /* \"NFT-Contracts/contracts/market_pri/NewMarket.sol\":8041:8042  0 */\n      0x00\n        /* \"NFT-Contracts/contracts/market_pri/NewMarket.sol\":8032:8038  _price */\n      dup2\n        /* \"NFT-Contracts/contracts/market_pri/NewMarket.sol\":8032:8042  _price > 0 */\n      gt\n        /* \"NFT-Contracts/contracts/market_pri/NewMarket.sol\":8024:8064  require(_price > 0, \"Price cannot be 0\") */\n      tag_159\n      jumpi\n      mload(0x40)\n      0x08c379a000000000000000000000000000000000000000000000000000000000\n      dup2\n      mstore\n      0x04\n      add\n      tag_160\n      swap1\n      tag_113\n      jump\t// in\n    tag_160:\n      mload(0x40)\n      dup1\n      swap2\n      sub\n      swap1\n      revert\n    tag_159:\n        /* \"NFT-Contracts/contracts/market_pri/NewMarket.sol\":10267:10283  _updateSalePrice */\n      dup6\n        /* \"NFT-Contracts/contracts/market_pri/NewMarket.sol\":10189:10209  nftContractFixedSale */\n      0x00\n        /* \"NFT-Contracts/contracts/market_pri/NewMarket.sol\":10189:10230  nftContractFixedSale[_nftContractAddress] */\n      dup1\n        /* \"NFT-Contracts/contracts/market_pri/NewMarket.sol\":10210:10229  _nftContractAddress */\n      dup11\n        /* \"NFT-Contracts/contracts/market_pri/NewMarket.sol\":10189:10230  nftContractFixedSale[_nftContractAddress] */\n      0xffffffffffffffffffffffffffffffffffffffff\n      and\n      0xffffffffffffffffffffffffffffffffffffffff\n      and\n      dup2\n      mstore\n      0x20\n      add\n      swap1\n      dup2\n      mstore\n      0x20\n      add\n      0x00\n      keccak256\n        /* \"NFT-Contracts/contracts/market_pri/NewMarket.sol\":10189:10240  nftContractFixedSale[_nftContractAddress][_tokenId] */\n      0x00\n        /* \"NFT-Contracts/contracts/market_pri/NewMarket.sol\":10231:10239  _tokenId */\n      dup10\n        /* \"NFT-Contracts/contracts/market_pri/NewMarket.sol\":10189:10240  nftContractFixedSale[_nftContractAddress][_tokenId] */\n      dup2\n      mstore\n      0x20\n      add\n      swap1\n      dup2\n      mstore\n      0x20\n      add\n      0x00\n      keccak256\n        /* \"NFT-Contracts/contracts/market_pri/NewMarket.sol\":10189:10264  nftContractFixedSale[_nftContractAddress][_tokenId]\r... */\n      0x03\n      add\n        /* \"NFT-Contracts/contracts/market_pri/NewMarket.sol\":10189:10283  nftContractFixedSale[_nftContractAddress][_tokenId]\r... */\n      dup2\n      swap1\n      sstore\n      pop\n        /* \"NFT-Contracts/contracts/market_pri/NewMarket.sol\":10301:10424  NftFixedSalePriceUpdated(\r... */\n      0x575a0876095ccf47276a37dce683308a625403d132d219f95205ce205b2e12bc\n        /* \"NFT-Contracts/contracts/market_pri/NewMarket.sol\":10340:10359  _nftContractAddress */\n      dup9\n        /* \"NFT-Contracts/contracts/market_pri/NewMarket.sol\":10374:10382  _tokenId */\n      dup9\n        /* \"NFT-Contracts/contracts/market_pri/NewMarket.sol\":10397:10413  _updateSalePrice */\n      dup9\n        /* \"NFT-Contracts/contracts/market_pri/NewMarket.sol\":10301:10424  NftFixedSalePriceUpdated(\r... */\n      mload(0x40)\n      tag_162\n      swap4\n      swap3\n      swap2\n      swap1\n      tag_163\n      jump\t// in\n    tag_162:\n      mload(0x40)\n      dup1\n      swap2\n      sub\n      swap1\n      log1\n        /* \"NFT-Contracts/contracts/market_pri/NewMarket.sol\":4377:4378  _ */\n      pop\n        /* \"NFT-Contracts/contracts/market_pri/NewMarket.sol\":3619:3620  _ */\n      pop\n      pop\n        /* \"NFT-Contracts/contracts/market_pri/NewMarket.sol\":9854:10432  function updateFixedSalePrice(\r... */\n      pop\n      pop\n      pop\n      pop\n      pop\n      jump\t// out\n        /* \"NFT-Contracts/contracts/market_pri/NewMarket.sol\":16763:17521  function withdrawBid(address _nftContractAddress, uint256 _tokenId)\r... */\n    tag_46:\n        /* \"NFT-Contracts/contracts/market_pri/NewMarket.sol\":16872:16891  _nftContractAddress */\n      dup2\n        /* \"NFT-Contracts/contracts/market_pri/NewMarket.sol\":16893:16901  _tokenId */\n      dup2\n        /* \"NFT-Contracts/contracts/market_pri/NewMarket.sol\":4844:4866  nftContractAuctionSale */\n      0x01\n        /* \"NFT-Contracts/contracts/market_pri/NewMarket.sol\":4844:4887  nftContractAuctionSale[_nftContractAddress] */\n      0x00\n        /* \"NFT-Contracts/contracts/market_pri/NewMarket.sol\":4867:4886  _nftContractAddress */\n      dup4\n        /* \"NFT-Contracts/contracts/market_pri/NewMarket.sol\":4844:4887  nftContractAuctionSale[_nftContractAddress] */\n      0xffffffffffffffffffffffffffffffffffffffff\n      and\n      0xffffffffffffffffffffffffffffffffffffffff\n      and\n      dup2\n      mstore\n      0x20\n      add\n      swap1\n      dup2\n      mstore\n      0x20\n      add\n      0x00\n      keccak256\n        /* \"NFT-Contracts/contracts/market_pri/NewMarket.sol\":4844:4897  nftContractAuctionSale[_nftContractAddress][_tokenId] */\n      0x00\n        /* \"NFT-Contracts/contracts/market_pri/NewMarket.sol\":4888:4896  _tokenId */\n      dup3\n        /* \"NFT-Contracts/contracts/market_pri/NewMarket.sol\":4844:4897  nftContractAuctionSale[_nftContractAddress][_tokenId] */\n      dup2\n      mstore\n      0x20\n      add\n      swap1\n      dup2\n      mstore\n      0x20\n      add\n      0x00\n      keccak256\n        /* \"NFT-Contracts/contracts/market_pri/NewMarket.sol\":4844:4930  nftContractAuctionSale[_nftContractAddress][_tokenId]\r... */\n      0x01\n      add\n      sload\n        /* \"NFT-Contracts/contracts/market_pri/NewMarket.sol\":4809:4824  block.timestamp */\n      timestamp\n        /* \"NFT-Contracts/contracts/market_pri/NewMarket.sol\":4809:4930  block.timestamp >\r... */\n      gt\n        /* \"NFT-Contracts/contracts/market_pri/NewMarket.sol\":4787:4973  require(\r... */\n      tag_165\n      jumpi\n      mload(0x40)\n      0x08c379a000000000000000000000000000000000000000000000000000000000\n      dup2\n      mstore\n      0x04\n      add\n      tag_166\n      swap1\n      tag_167\n      jump\t// in\n    tag_166:\n      mload(0x40)\n      dup1\n      swap2\n      sub\n      swap1\n      revert\n    tag_165:\n        /* \"NFT-Contracts/contracts/market_pri/NewMarket.sol\":16972:16994  nftContractAuctionSale */\n      0x01\n        /* \"NFT-Contracts/contracts/market_pri/NewMarket.sol\":16972:17015  nftContractAuctionSale[_nftContractAddress] */\n      0x00\n        /* \"NFT-Contracts/contracts/market_pri/NewMarket.sol\":16995:17014  _nftContractAddress */\n      dup6\n        /* \"NFT-Contracts/contracts/market_pri/NewMarket.sol\":16972:17015  nftContractAuctionSale[_nftContractAddress] */\n      0xffffffffffffffffffffffffffffffffffffffff\n      and\n      0xffffffffffffffffffffffffffffffffffffffff\n      and\n      dup2\n      mstore\n      0x20\n      add\n      swap1\n      dup2\n      mstore\n      0x20\n      add\n      0x00\n      keccak256\n        /* \"NFT-Contracts/contracts/market_pri/NewMarket.sol\":16972:17025  nftContractAuctionSale[_nftContractAddress][_tokenId] */\n      0x00\n        /* \"NFT-Contracts/contracts/market_pri/NewMarket.sol\":17016:17024  _tokenId */\n      dup5\n        /* \"NFT-Contracts/contracts/market_pri/NewMarket.sol\":16972:17025  nftContractAuctionSale[_nftContractAddress][_tokenId] */\n      dup2\n      mstore\n      0x20\n      add\n      swap1\n      dup2\n      mstore\n      0x20\n      add\n      0x00\n      keccak256\n        /* \"NFT-Contracts/contracts/market_pri/NewMarket.sol\":16972:17064  nftContractAuctionSale[_nftContractAddress][_tokenId]\r... */\n      0x04\n      add\n      0x00\n      swap1\n      sload\n      swap1\n      0x0100\n      exp\n      swap1\n      div\n      0xffffffffffffffffffffffffffffffffffffffff\n      and\n        /* \"NFT-Contracts/contracts/market_pri/NewMarket.sol\":16941:17064  msg.sender !=\r... */\n      0xffffffffffffffffffffffffffffffffffffffff\n      and\n        /* \"NFT-Contracts/contracts/market_pri/NewMarket.sol\":16941:16951  msg.sender */\n      caller\n        /* \"NFT-Contracts/contracts/market_pri/NewMarket.sol\":16941:17064  msg.sender !=\r... */\n      0xffffffffffffffffffffffffffffffffffffffff\n      and\n      eq\n      iszero\n        /* \"NFT-Contracts/contracts/market_pri/NewMarket.sol\":16919:17114  require(\r... */\n      tag_169\n      jumpi\n      mload(0x40)\n      0x08c379a000000000000000000000000000000000000000000000000000000000\n      dup2\n      mstore\n      0x04\n      add\n      tag_170\n      swap1\n      tag_171\n      jump\t// in\n    tag_170:\n      mload(0x40)\n      dup1\n      swap2\n      sub\n      swap1\n      revert\n    tag_169:\n        /* \"NFT-Contracts/contracts/market_pri/NewMarket.sol\":17210:17211  0 */\n      0x00\n        /* \"NFT-Contracts/contracts/market_pri/NewMarket.sol\":17147:17164  userBidPriceOnNFT */\n      0x03\n        /* \"NFT-Contracts/contracts/market_pri/NewMarket.sol\":17147:17185  userBidPriceOnNFT[_nftContractAddress] */\n      0x00\n        /* \"NFT-Contracts/contracts/market_pri/NewMarket.sol\":17165:17184  _nftContractAddress */\n      dup7\n        /* \"NFT-Contracts/contracts/market_pri/NewMarket.sol\":17147:17185  userBidPriceOnNFT[_nftContractAddress] */\n      0xffffffffffffffffffffffffffffffffffffffff\n      and\n      0xffffffffffffffffffffffffffffffffffffffff\n      and\n      dup2\n      mstore\n      0x20\n      add\n      swap1\n      dup2\n      mstore\n      0x20\n      add\n      0x00\n      keccak256\n        /* \"NFT-Contracts/contracts/market_pri/NewMarket.sol\":17147:17195  userBidPriceOnNFT[_nftContractAddress][_tokenId] */\n      0x00\n        /* \"NFT-Contracts/contracts/market_pri/NewMarket.sol\":17186:17194  _tokenId */\n      dup6\n        /* \"NFT-Contracts/contracts/market_pri/NewMarket.sol\":17147:17195  userBidPriceOnNFT[_nftContractAddress][_tokenId] */\n      dup2\n      mstore\n      0x20\n      add\n      swap1\n      dup2\n      mstore\n      0x20\n      add\n      0x00\n      keccak256\n        /* \"NFT-Contracts/contracts/market_pri/NewMarket.sol\":17147:17207  userBidPriceOnNFT[_nftContractAddress][_tokenId][msg.sender] */\n      0x00\n        /* \"NFT-Contracts/contracts/market_pri/NewMarket.sol\":17196:17206  msg.sender */\n      caller\n        /* \"NFT-Contracts/contracts/market_pri/NewMarket.sol\":17147:17207  userBidPriceOnNFT[_nftContractAddress][_tokenId][msg.sender] */\n      0xffffffffffffffffffffffffffffffffffffffff\n      and\n      0xffffffffffffffffffffffffffffffffffffffff\n      and\n      dup2\n      mstore\n      0x20\n      add\n      swap1\n      dup2\n      mstore\n      0x20\n      add\n      0x00\n      keccak256\n      sload\n        /* \"NFT-Contracts/contracts/market_pri/NewMarket.sol\":17147:17211  userBidPriceOnNFT[_nftContractAddress][_tokenId][msg.sender] > 0 */\n      gt\n        /* \"NFT-Contracts/contracts/market_pri/NewMarket.sol\":17125:17258  require(\r... */\n      tag_172\n      jumpi\n      mload(0x40)\n      0x08c379a000000000000000000000000000000000000000000000000000000000\n      dup2\n      mstore\n      0x04\n      add\n      tag_173\n      swap1\n      tag_174\n      jump\t// in\n    tag_173:\n      mload(0x40)\n      dup1\n      swap2\n      sub\n      swap1\n      revert\n    tag_172:\n        /* \"NFT-Contracts/contracts/market_pri/NewMarket.sol\":17437:17438  0 */\n      0x00\n        /* \"NFT-Contracts/contracts/market_pri/NewMarket.sol\":17374:17391  userBidPriceOnNFT */\n      0x03\n        /* \"NFT-Contracts/contracts/market_pri/NewMarket.sol\":17374:17412  userBidPriceOnNFT[_nftContractAddress] */\n      0x00\n        /* \"NFT-Contracts/contracts/market_pri/NewMarket.sol\":17392:17411  _nftContractAddress */\n      dup7\n        /* \"NFT-Contracts/contracts/market_pri/NewMarket.sol\":17374:17412  userBidPriceOnNFT[_nftContractAddress] */\n      0xffffffffffffffffffffffffffffffffffffffff\n      and\n      0xffffffffffffffffffffffffffffffffffffffff\n      and\n      dup2\n      mstore\n      0x20\n      add\n      swap1\n      dup2\n      mstore\n      0x20\n      add\n      0x00\n      keccak256\n        /* \"NFT-Contracts/contracts/market_pri/NewMarket.sol\":17374:17422  userBidPriceOnNFT[_nftContractAddress][_tokenId] */\n      0x00\n        /* \"NFT-Contracts/contracts/market_pri/NewMarket.sol\":17413:17421  _tokenId */\n      dup6\n        /* \"NFT-Contracts/contracts/market_pri/NewMarket.sol\":17374:17422  userBidPriceOnNFT[_nftContractAddress][_tokenId] */\n      dup2\n      mstore\n      0x20\n      add\n      swap1\n      dup2\n      mstore\n      0x20\n      add\n      0x00\n      keccak256\n        /* \"NFT-Contracts/contracts/market_pri/NewMarket.sol\":17374:17434  userBidPriceOnNFT[_nftContractAddress][_tokenId][msg.sender] */\n      0x00\n        /* \"NFT-Contracts/contracts/market_pri/NewMarket.sol\":17423:17433  msg.sender */\n      caller\n        /* \"NFT-Contracts/contracts/market_pri/NewMarket.sol\":17374:17434  userBidPriceOnNFT[_nftContractAddress][_tokenId][msg.sender] */\n      0xffffffffffffffffffffffffffffffffffffffff\n      and\n      0xffffffffffffffffffffffffffffffffffffffff\n      and\n      dup2\n      mstore\n      0x20\n      add\n      swap1\n      dup2\n      mstore\n      0x20\n      add\n      0x00\n      keccak256\n        /* \"NFT-Contracts/contracts/market_pri/NewMarket.sol\":17374:17438  userBidPriceOnNFT[_nftContractAddress][_tokenId][msg.sender] = 0 */\n      dup2\n      swap1\n      sstore\n      pop\n        /* \"NFT-Contracts/contracts/market_pri/NewMarket.sol\":17456:17513  withdrawNftBid(_nftContractAddress, _tokenId, msg.sender) */\n      0xde8cb9aa2c755cf75d5fbc4fec824b10e311652306f1fca5c8e57a04758b0aa7\n        /* \"NFT-Contracts/contracts/market_pri/NewMarket.sol\":17471:17490  _nftContractAddress */\n      dup5\n        /* \"NFT-Contracts/contracts/market_pri/NewMarket.sol\":17492:17500  _tokenId */\n      dup5\n        /* \"NFT-Contracts/contracts/market_pri/NewMarket.sol\":17502:17512  msg.sender */\n      caller\n        /* \"NFT-Contracts/contracts/market_pri/NewMarket.sol\":17456:17513  withdrawNftBid(_nftContractAddress, _tokenId, msg.sender) */\n      mload(0x40)\n      tag_175\n      swap4\n      swap3\n      swap2\n      swap1\n      tag_176\n      jump\t// in\n    tag_175:\n      mload(0x40)\n      dup1\n      swap2\n      sub\n      swap1\n      log1\n        /* \"NFT-Contracts/contracts/market_pri/NewMarket.sol\":16763:17521  function withdrawBid(address _nftContractAddress, uint256 _tokenId)\r... */\n      pop\n      pop\n      pop\n      pop\n      jump\t// out\n        /* \"NFT-Contracts/contracts/market_pri/NewMarket.sol\":15857:16755  function settleAuction(address _nftContractAddress, uint256 _tokenId)\r... */\n    tag_50:\n        /* \"NFT-Contracts/contracts/market_pri/NewMarket.sol\":15973:15992  _nftContractAddress */\n      dup2\n        /* \"NFT-Contracts/contracts/market_pri/NewMarket.sol\":15994:16002  _tokenId */\n      dup2\n        /* \"NFT-Contracts/contracts/market_pri/NewMarket.sol\":3792:3793  2 */\n      0x02\n        /* \"NFT-Contracts/contracts/market_pri/NewMarket.sol\":3744:3757  nftSaleStatus */\n      dup1\n        /* \"NFT-Contracts/contracts/market_pri/NewMarket.sol\":3744:3778  nftSaleStatus[_nftContractAddress] */\n      0x00\n        /* \"NFT-Contracts/contracts/market_pri/NewMarket.sol\":3758:3777  _nftContractAddress */\n      dup5\n        /* \"NFT-Contracts/contracts/market_pri/NewMarket.sol\":3744:3778  nftSaleStatus[_nftContractAddress] */\n      0xffffffffffffffffffffffffffffffffffffffff\n      and\n      0xffffffffffffffffffffffffffffffffffffffff\n      and\n      dup2\n      mstore\n      0x20\n      add\n      swap1\n      dup2\n      mstore\n      0x20\n      add\n      0x00\n      keccak256\n        /* \"NFT-Contracts/contracts/market_pri/NewMarket.sol\":3744:3788  nftSaleStatus[_nftContractAddress][_tokenId] */\n      0x00\n        /* \"NFT-Contracts/contracts/market_pri/NewMarket.sol\":3779:3787  _tokenId */\n      dup4\n        /* \"NFT-Contracts/contracts/market_pri/NewMarket.sol\":3744:3788  nftSaleStatus[_nftContractAddress][_tokenId] */\n      dup2\n      mstore\n      0x20\n      add\n      swap1\n      dup2\n      mstore\n      0x20\n      add\n      0x00\n      keccak256\n      sload\n        /* \"NFT-Contracts/contracts/market_pri/NewMarket.sol\":3744:3793  nftSaleStatus[_nftContractAddress][_tokenId] == 2 */\n      eq\n        /* \"NFT-Contracts/contracts/market_pri/NewMarket.sol\":3722:3844  require(\r... */\n      tag_178\n      jumpi\n      mload(0x40)\n      0x08c379a000000000000000000000000000000000000000000000000000000000\n      dup2\n      mstore\n      0x04\n      add\n      tag_179\n      swap1\n      tag_105\n      jump\t// in\n    tag_179:\n      mload(0x40)\n      dup1\n      swap2\n      sub\n      swap1\n      revert\n    tag_178:\n        /* \"NFT-Contracts/contracts/market_pri/NewMarket.sol\":16027:16046  _nftContractAddress */\n      dup4\n        /* \"NFT-Contracts/contracts/market_pri/NewMarket.sol\":16048:16056  _tokenId */\n      dup4\n        /* \"NFT-Contracts/contracts/market_pri/NewMarket.sol\":4844:4866  nftContractAuctionSale */\n      0x01\n        /* \"NFT-Contracts/contracts/market_pri/NewMarket.sol\":4844:4887  nftContractAuctionSale[_nftContractAddress] */\n      0x00\n        /* \"NFT-Contracts/contracts/market_pri/NewMarket.sol\":4867:4886  _nftContractAddress */\n      dup4\n        /* \"NFT-Contracts/contracts/market_pri/NewMarket.sol\":4844:4887  nftContractAuctionSale[_nftContractAddress] */\n      0xffffffffffffffffffffffffffffffffffffffff\n      and\n      0xffffffffffffffffffffffffffffffffffffffff\n      and\n      dup2\n      mstore\n      0x20\n      add\n      swap1\n      dup2\n      mstore\n      0x20\n      add\n      0x00\n      keccak256\n        /* \"NFT-Contracts/contracts/market_pri/NewMarket.sol\":4844:4897  nftContractAuctionSale[_nftContractAddress][_tokenId] */\n      0x00\n        /* \"NFT-Contracts/contracts/market_pri/NewMarket.sol\":4888:4896  _tokenId */\n      dup3\n        /* \"NFT-Contracts/contracts/market_pri/NewMarket.sol\":4844:4897  nftContractAuctionSale[_nftContractAddress][_tokenId] */\n      dup2\n      mstore\n      0x20\n      add\n      swap1\n      dup2\n      mstore\n      0x20\n      add\n      0x00\n      keccak256\n        /* \"NFT-Contracts/contracts/market_pri/NewMarket.sol\":4844:4930  nftContractAuctionSale[_nftContractAddress][_tokenId]\r... */\n      0x01\n      add\n      sload\n        /* \"NFT-Contracts/contracts/market_pri/NewMarket.sol\":4809:4824  block.timestamp */\n      timestamp\n        /* \"NFT-Contracts/contracts/market_pri/NewMarket.sol\":4809:4930  block.timestamp >\r... */\n      gt\n        /* \"NFT-Contracts/contracts/market_pri/NewMarket.sol\":4787:4973  require(\r... */\n      tag_181\n      jumpi\n      mload(0x40)\n      0x08c379a000000000000000000000000000000000000000000000000000000000\n      dup2\n      mstore\n      0x04\n      add\n      tag_182\n      swap1\n      tag_167\n      jump\t// in\n    tag_182:\n      mload(0x40)\n      dup1\n      swap2\n      sub\n      swap1\n      revert\n    tag_181:\n        /* \"NFT-Contracts/contracts/market_pri/NewMarket.sol\":16074:16090  address nftBuyer */\n      0x00\n        /* \"NFT-Contracts/contracts/market_pri/NewMarket.sol\":16093:16115  nftContractAuctionSale */\n      0x01\n        /* \"NFT-Contracts/contracts/market_pri/NewMarket.sol\":16093:16136  nftContractAuctionSale[_nftContractAddress] */\n      0x00\n        /* \"NFT-Contracts/contracts/market_pri/NewMarket.sol\":16116:16135  _nftContractAddress */\n      dup9\n        /* \"NFT-Contracts/contracts/market_pri/NewMarket.sol\":16093:16136  nftContractAuctionSale[_nftContractAddress] */\n      0xffffffffffffffffffffffffffffffffffffffff\n      and\n      0xffffffffffffffffffffffffffffffffffffffff\n      and\n      dup2\n      mstore\n      0x20\n      add\n      swap1\n      dup2\n      mstore\n      0x20\n      add\n      0x00\n      keccak256\n        /* \"NFT-Contracts/contracts/market_pri/NewMarket.sol\":16093:16146  nftContractAuctionSale[_nftContractAddress][_tokenId] */\n      0x00\n        /* \"NFT-Contracts/contracts/market_pri/NewMarket.sol\":16137:16145  _tokenId */\n      dup8\n        /* \"NFT-Contracts/contracts/market_pri/NewMarket.sol\":16093:16146  nftContractAuctionSale[_nftContractAddress][_tokenId] */\n      dup2\n      mstore\n      0x20\n      add\n      swap1\n      dup2\n      mstore\n      0x20\n      add\n      0x00\n      keccak256\n        /* \"NFT-Contracts/contracts/market_pri/NewMarket.sol\":16093:16177  nftContractAuctionSale[_nftContractAddress][_tokenId]\r... */\n      0x04\n      add\n      0x00\n      swap1\n      sload\n      swap1\n      0x0100\n      exp\n      swap1\n      div\n      0xffffffffffffffffffffffffffffffffffffffff\n      and\n        /* \"NFT-Contracts/contracts/market_pri/NewMarket.sol\":16074:16177  address nftBuyer = nftContractAuctionSale[_nftContractAddress][_tokenId]\r... */\n      swap1\n      pop\n        /* \"NFT-Contracts/contracts/market_pri/NewMarket.sol\":16190:16387  _transferNftAndPaySeller(\r... */\n      tag_184\n        /* \"NFT-Contracts/contracts/market_pri/NewMarket.sol\":16229:16248  _nftContractAddress */\n      dup8\n        /* \"NFT-Contracts/contracts/market_pri/NewMarket.sol\":16263:16271  _tokenId */\n      dup8\n        /* \"NFT-Contracts/contracts/market_pri/NewMarket.sol\":16286:16308  nftContractAuctionSale */\n      0x01\n        /* \"NFT-Contracts/contracts/market_pri/NewMarket.sol\":16286:16329  nftContractAuctionSale[_nftContractAddress] */\n      0x00\n        /* \"NFT-Contracts/contracts/market_pri/NewMarket.sol\":16309:16328  _nftContractAddress */\n      dup12\n        /* \"NFT-Contracts/contracts/market_pri/NewMarket.sol\":16286:16329  nftContractAuctionSale[_nftContractAddress] */\n      0xffffffffffffffffffffffffffffffffffffffff\n      and\n      0xffffffffffffffffffffffffffffffffffffffff\n      and\n      dup2\n      mstore\n      0x20\n      add\n      swap1\n      dup2\n      mstore\n      0x20\n      add\n      0x00\n      keccak256\n        /* \"NFT-Contracts/contracts/market_pri/NewMarket.sol\":16286:16339  nftContractAuctionSale[_nftContractAddress][_tokenId] */\n      0x00\n        /* \"NFT-Contracts/contracts/market_pri/NewMarket.sol\":16330:16338  _tokenId */\n      dup11\n        /* \"NFT-Contracts/contracts/market_pri/NewMarket.sol\":16286:16339  nftContractAuctionSale[_nftContractAddress][_tokenId] */\n      dup2\n      mstore\n      0x20\n      add\n      swap1\n      dup2\n      mstore\n      0x20\n      add\n      0x00\n      keccak256\n        /* \"NFT-Contracts/contracts/market_pri/NewMarket.sol\":16286:16353  nftContractAuctionSale[_nftContractAddress][_tokenId].nftHighestBid */\n      0x03\n      add\n      sload\n        /* \"NFT-Contracts/contracts/market_pri/NewMarket.sol\":16368:16376  nftBuyer */\n      dup5\n        /* \"NFT-Contracts/contracts/market_pri/NewMarket.sol\":16190:16214  _transferNftAndPaySeller */\n      tag_185\n        /* \"NFT-Contracts/contracts/market_pri/NewMarket.sol\":16190:16387  _transferNftAndPaySeller(\r... */\n      jump\t// in\n    tag_184:\n        /* \"NFT-Contracts/contracts/market_pri/NewMarket.sol\":16461:16462  0 */\n      0x00\n        /* \"NFT-Contracts/contracts/market_pri/NewMarket.sol\":16400:16417  userBidPriceOnNFT */\n      0x03\n        /* \"NFT-Contracts/contracts/market_pri/NewMarket.sol\":16400:16438  userBidPriceOnNFT[_nftContractAddress] */\n      0x00\n        /* \"NFT-Contracts/contracts/market_pri/NewMarket.sol\":16418:16437  _nftContractAddress */\n      dup10\n        /* \"NFT-Contracts/contracts/market_pri/NewMarket.sol\":16400:16438  userBidPriceOnNFT[_nftContractAddress] */\n      0xffffffffffffffffffffffffffffffffffffffff\n      and\n      0xffffffffffffffffffffffffffffffffffffffff\n      and\n      dup2\n      mstore\n      0x20\n      add\n      swap1\n      dup2\n      mstore\n      0x20\n      add\n      0x00\n      keccak256\n        /* \"NFT-Contracts/contracts/market_pri/NewMarket.sol\":16400:16448  userBidPriceOnNFT[_nftContractAddress][_tokenId] */\n      0x00\n        /* \"NFT-Contracts/contracts/market_pri/NewMarket.sol\":16439:16447  _tokenId */\n      dup9\n        /* \"NFT-Contracts/contracts/market_pri/NewMarket.sol\":16400:16448  userBidPriceOnNFT[_nftContractAddress][_tokenId] */\n      dup2\n      mstore\n      0x20\n      add\n      swap1\n      dup2\n      mstore\n      0x20\n      add\n      0x00\n      keccak256\n        /* \"NFT-Contracts/contracts/market_pri/NewMarket.sol\":16400:16458  userBidPriceOnNFT[_nftContractAddress][_tokenId][nftBuyer] */\n      0x00\n        /* \"NFT-Contracts/contracts/market_pri/NewMarket.sol\":16449:16457  nftBuyer */\n      dup4\n        /* \"NFT-Contracts/contracts/market_pri/NewMarket.sol\":16400:16458  userBidPriceOnNFT[_nftContractAddress][_tokenId][nftBuyer] */\n      0xffffffffffffffffffffffffffffffffffffffff\n      and\n      0xffffffffffffffffffffffffffffffffffffffff\n      and\n      dup2\n      mstore\n      0x20\n      add\n      swap1\n      dup2\n      mstore\n      0x20\n      add\n      0x00\n      keccak256\n        /* \"NFT-Contracts/contracts/market_pri/NewMarket.sol\":16400:16462  userBidPriceOnNFT[_nftContractAddress][_tokenId][nftBuyer] = 0 */\n      dup2\n      swap1\n      sstore\n      pop\n        /* \"NFT-Contracts/contracts/market_pri/NewMarket.sol\":16480:16747  NftAuctionSettle(\r... */\n      0xb31cb4f6609b11a57d1b6b14cc3f81f4b3e609f709a5b1e46892a45f9cc29ed8\n        /* \"NFT-Contracts/contracts/market_pri/NewMarket.sol\":16511:16530  _nftContractAddress */\n      dup8\n        /* \"NFT-Contracts/contracts/market_pri/NewMarket.sol\":16545:16553  _tokenId */\n      dup8\n        /* \"NFT-Contracts/contracts/market_pri/NewMarket.sol\":16568:16576  nftBuyer */\n      dup4\n        /* \"NFT-Contracts/contracts/market_pri/NewMarket.sol\":16591:16613  nftContractAuctionSale */\n      0x01\n        /* \"NFT-Contracts/contracts/market_pri/NewMarket.sol\":16591:16634  nftContractAuctionSale[_nftContractAddress] */\n      0x00\n        /* \"NFT-Contracts/contracts/market_pri/NewMarket.sol\":16614:16633  _nftContractAddress */\n      dup13\n        /* \"NFT-Contracts/contracts/market_pri/NewMarket.sol\":16591:16634  nftContractAuctionSale[_nftContractAddress] */\n      0xffffffffffffffffffffffffffffffffffffffff\n      and\n      0xffffffffffffffffffffffffffffffffffffffff\n      and\n      dup2\n      mstore\n      0x20\n      add\n      swap1\n      dup2\n      mstore\n      0x20\n      add\n      0x00\n      keccak256\n        /* \"NFT-Contracts/contracts/market_pri/NewMarket.sol\":16591:16644  nftContractAuctionSale[_nftContractAddress][_tokenId] */\n      0x00\n        /* \"NFT-Contracts/contracts/market_pri/NewMarket.sol\":16635:16643  _tokenId */\n      dup12\n        /* \"NFT-Contracts/contracts/market_pri/NewMarket.sol\":16591:16644  nftContractAuctionSale[_nftContractAddress][_tokenId] */\n      dup2\n      mstore\n      0x20\n      add\n      swap1\n      dup2\n      mstore\n      0x20\n      add\n      0x00\n      keccak256\n        /* \"NFT-Contracts/contracts/market_pri/NewMarket.sol\":16591:16658  nftContractAuctionSale[_nftContractAddress][_tokenId].nftHighestBid */\n      0x03\n      add\n      sload\n        /* \"NFT-Contracts/contracts/market_pri/NewMarket.sol\":16673:16695  nftContractAuctionSale */\n      0x01\n        /* \"NFT-Contracts/contracts/market_pri/NewMarket.sol\":16673:16716  nftContractAuctionSale[_nftContractAddress] */\n      0x00\n        /* \"NFT-Contracts/contracts/market_pri/NewMarket.sol\":16696:16715  _nftContractAddress */\n      dup14\n        /* \"NFT-Contracts/contracts/market_pri/NewMarket.sol\":16673:16716  nftContractAuctionSale[_nftContractAddress] */\n      0xffffffffffffffffffffffffffffffffffffffff\n      and\n      0xffffffffffffffffffffffffffffffffffffffff\n      and\n      dup2\n      mstore\n      0x20\n      add\n      swap1\n      dup2\n      mstore\n      0x20\n      add\n      0x00\n      keccak256\n        /* \"NFT-Contracts/contracts/market_pri/NewMarket.sol\":16673:16726  nftContractAuctionSale[_nftContractAddress][_tokenId] */\n      0x00\n        /* \"NFT-Contracts/contracts/market_pri/NewMarket.sol\":16717:16725  _tokenId */\n      dup13\n        /* \"NFT-Contracts/contracts/market_pri/NewMarket.sol\":16673:16726  nftContractAuctionSale[_nftContractAddress][_tokenId] */\n      dup2\n      mstore\n      0x20\n      add\n      swap1\n      dup2\n      mstore\n      0x20\n      add\n      0x00\n      keccak256\n        /* \"NFT-Contracts/contracts/market_pri/NewMarket.sol\":16673:16736  nftContractAuctionSale[_nftContractAddress][_tokenId].nftSeller */\n      0x05\n      add\n      0x00\n      swap1\n      sload\n      swap1\n      0x0100\n      exp\n      swap1\n      div\n      0xffffffffffffffffffffffffffffffffffffffff\n      and\n        /* \"NFT-Contracts/contracts/market_pri/NewMarket.sol\":16480:16747  NftAuctionSettle(\r... */\n      mload(0x40)\n      tag_186\n      swap6\n      swap5\n      swap4\n      swap3\n      swap2\n      swap1\n      tag_187\n      jump\t// in\n    tag_186:\n      mload(0x40)\n      dup1\n      swap2\n      sub\n      swap1\n      log1\n        /* \"NFT-Contracts/contracts/market_pri/NewMarket.sol\":4984:4985  _ */\n      pop\n        /* \"NFT-Contracts/contracts/market_pri/NewMarket.sol\":3855:3856  _ */\n      pop\n      pop\n        /* \"NFT-Contracts/contracts/market_pri/NewMarket.sol\":15857:16755  function settleAuction(address _nftContractAddress, uint256 _tokenId)\r... */\n      pop\n      pop\n      pop\n      pop\n      jump\t// out\n        /* \"NFT-Contracts/contracts/market_pri/NewMarket.sol\":1059:1127  mapping(address => mapping(uint256 => uint256)) public nftSaleStatus */\n    tag_54:\n      mstore(0x20, 0x02)\n      dup2\n      0x00\n      mstore\n      mstore(0x20, keccak256(0x00, 0x40))\n      dup1\n      0x00\n      mstore\n      keccak256(0x00, 0x40)\n      0x00\n      swap2\n      pop\n      swap2\n      pop\n      pop\n      sload\n      dup2\n      jump\t// out\n        /* \"NFT-Contracts/contracts/market_pri/NewMarket.sol\":8117:9252  function nftFixedSale(\r... */\n    tag_61:\n        /* \"NFT-Contracts/contracts/market_pri/NewMarket.sol\":8311:8330  _nftContractAddress */\n      dup4\n        /* \"NFT-Contracts/contracts/market_pri/NewMarket.sol\":8332:8340  _tokenId */\n      dup3\n        /* \"NFT-Contracts/contracts/market_pri/NewMarket.sol\":4002:4021  _nftContractAddress */\n      dup2\n        /* \"NFT-Contracts/contracts/market_pri/NewMarket.sol\":3994:4030  IERC721(_nftContractAddress).ownerOf */\n      0xffffffffffffffffffffffffffffffffffffffff\n      and\n      0x6352211e\n        /* \"NFT-Contracts/contracts/market_pri/NewMarket.sol\":4031:4039  _tokenId */\n      dup3\n        /* \"NFT-Contracts/contracts/market_pri/NewMarket.sol\":3994:4040  IERC721(_nftContractAddress).ownerOf(_tokenId) */\n      mload(0x40)\n      dup3\n      0xffffffff\n      and\n      0xe0\n      shl\n      dup2\n      mstore\n      0x04\n      add\n      tag_189\n      swap2\n      swap1\n      tag_56\n      jump\t// in\n    tag_189:\n      0x20\n      mload(0x40)\n      dup1\n      dup4\n      sub\n      dup2\n      dup7\n      dup1\n      extcodesize\n      iszero\n      dup1\n      iszero\n      tag_190\n      jumpi\n      0x00\n      dup1\n      revert\n    tag_190:\n      pop\n      gas\n      staticcall\n      iszero\n      dup1\n      iszero\n      tag_192\n      jumpi\n      returndatasize\n      0x00\n      dup1\n      returndatacopy\n      revert(0x00, returndatasize)\n    tag_192:\n      pop\n      pop\n      pop\n      pop\n      mload(0x40)\n      returndatasize\n      not(0x1f)\n      0x1f\n      dup3\n      add\n      and\n      dup3\n      add\n      dup1\n      0x40\n      mstore\n      pop\n      dup2\n      add\n      swap1\n      tag_193\n      swap2\n      swap1\n      tag_194\n      jump\t// in\n    tag_193:\n        /* \"NFT-Contracts/contracts/market_pri/NewMarket.sol\":3980:4040  msg.sender == IERC721(_nftContractAddress).ownerOf(_tokenId) */\n      0xffffffffffffffffffffffffffffffffffffffff\n      and\n        /* \"NFT-Contracts/contracts/market_pri/NewMarket.sol\":3980:3990  msg.sender */\n      caller\n        /* \"NFT-Contracts/contracts/market_pri/NewMarket.sol\":3980:4040  msg.sender == IERC721(_nftContractAddress).ownerOf(_tokenId) */\n      0xffffffffffffffffffffffffffffffffffffffff\n      and\n      eq\n        /* \"NFT-Contracts/contracts/market_pri/NewMarket.sol\":3958:4089  require(\r... */\n      tag_195\n      jumpi\n      mload(0x40)\n      0x08c379a000000000000000000000000000000000000000000000000000000000\n      dup2\n      mstore\n      0x04\n      add\n      tag_196\n      swap1\n      tag_157\n      jump\t// in\n    tag_196:\n      mload(0x40)\n      dup1\n      swap2\n      sub\n      swap1\n      revert\n    tag_195:\n        /* \"NFT-Contracts/contracts/market_pri/NewMarket.sol\":8370:8389  _nftContractAddress */\n      dup6\n        /* \"NFT-Contracts/contracts/market_pri/NewMarket.sol\":8391:8399  _tokenId */\n      dup5\n        /* \"NFT-Contracts/contracts/market_pri/NewMarket.sol\":3328:3329  0 */\n      0x00\n        /* \"NFT-Contracts/contracts/market_pri/NewMarket.sol\":3280:3293  nftSaleStatus */\n      0x02\n        /* \"NFT-Contracts/contracts/market_pri/NewMarket.sol\":3280:3314  nftSaleStatus[_nftContractAddress] */\n      0x00\n        /* \"NFT-Contracts/contracts/market_pri/NewMarket.sol\":3294:3313  _nftContractAddress */\n      dup5\n        /* \"NFT-Contracts/contracts/market_pri/NewMarket.sol\":3280:3314  nftSaleStatus[_nftContractAddress] */\n      0xffffffffffffffffffffffffffffffffffffffff\n      and\n      0xffffffffffffffffffffffffffffffffffffffff\n      and\n      dup2\n      mstore\n      0x20\n      add\n      swap1\n      dup2\n      mstore\n      0x20\n      add\n      0x00\n      keccak256\n        /* \"NFT-Contracts/contracts/market_pri/NewMarket.sol\":3280:3324  nftSaleStatus[_nftContractAddress][_tokenId] */\n      0x00\n        /* \"NFT-Contracts/contracts/market_pri/NewMarket.sol\":3315:3323  _tokenId */\n      dup4\n        /* \"NFT-Contracts/contracts/market_pri/NewMarket.sol\":3280:3324  nftSaleStatus[_nftContractAddress][_tokenId] */\n      dup2\n      mstore\n      0x20\n      add\n      swap1\n      dup2\n      mstore\n      0x20\n      add\n      0x00\n      keccak256\n      sload\n        /* \"NFT-Contracts/contracts/market_pri/NewMarket.sol\":3280:3329  nftSaleStatus[_nftContractAddress][_tokenId] == 0 */\n      eq\n        /* \"NFT-Contracts/contracts/market_pri/NewMarket.sol\":3258:3376  require(\r... */\n      tag_198\n      jumpi\n      mload(0x40)\n      0x08c379a000000000000000000000000000000000000000000000000000000000\n      dup2\n      mstore\n      0x04\n      add\n      tag_199\n      swap1\n      tag_200\n      jump\t// in\n    tag_199:\n      mload(0x40)\n      dup1\n      swap2\n      sub\n      swap1\n      revert\n    tag_198:\n        /* \"NFT-Contracts/contracts/market_pri/NewMarket.sol\":8428:8447  _nftContractAddress */\n      dup8\n        /* \"NFT-Contracts/contracts/market_pri/NewMarket.sol\":8449:8457  _tokenId */\n      dup7\n        /* \"NFT-Contracts/contracts/market_pri/NewMarket.sol\":4509:4528  _nftContractAddress */\n      dup2\n        /* \"NFT-Contracts/contracts/market_pri/NewMarket.sol\":4501:4546  IERC721(_nftContractAddress).isApprovedForAll */\n      0xffffffffffffffffffffffffffffffffffffffff\n      and\n      0xe985e9c5\n        /* \"NFT-Contracts/contracts/market_pri/NewMarket.sol\":4565:4575  msg.sender */\n      caller\n        /* \"NFT-Contracts/contracts/market_pri/NewMarket.sol\":4602:4606  this */\n      address\n        /* \"NFT-Contracts/contracts/market_pri/NewMarket.sol\":4501:4622  IERC721(_nftContractAddress).isApprovedForAll(\r... */\n      mload(0x40)\n      dup4\n      0xffffffff\n      and\n      0xe0\n      shl\n      dup2\n      mstore\n      0x04\n      add\n      tag_202\n      swap3\n      swap2\n      swap1\n      tag_203\n      jump\t// in\n    tag_202:\n      0x20\n      mload(0x40)\n      dup1\n      dup4\n      sub\n      dup2\n      dup7\n      dup1\n      extcodesize\n      iszero\n      dup1\n      iszero\n      tag_204\n      jumpi\n      0x00\n      dup1\n      revert\n    tag_204:\n      pop\n      gas\n      staticcall\n      iszero\n      dup1\n      iszero\n      tag_206\n      jumpi\n      returndatasize\n      0x00\n      dup1\n      returndatacopy\n      revert(0x00, returndatasize)\n    tag_206:\n      pop\n      pop\n      pop\n      pop\n      mload(0x40)\n      returndatasize\n      not(0x1f)\n      0x1f\n      dup3\n      add\n      and\n      dup3\n      add\n      dup1\n      0x40\n      mstore\n      pop\n      dup2\n      add\n      swap1\n      tag_207\n      swap2\n      swap1\n      tag_208\n      jump\t// in\n    tag_207:\n        /* \"NFT-Contracts/contracts/market_pri/NewMarket.sol\":4479:4678  require(\r... */\n      tag_209\n      jumpi\n      mload(0x40)\n      0x08c379a000000000000000000000000000000000000000000000000000000000\n      dup2\n      mstore\n      0x04\n      add\n      tag_210\n      swap1\n      tag_211\n      jump\t// in\n    tag_210:\n      mload(0x40)\n      dup1\n      swap2\n      sub\n      swap1\n      revert\n    tag_209:\n        /* \"NFT-Contracts/contracts/market_pri/NewMarket.sol\":8489:8499  _salePrice */\n      dup7\n        /* \"NFT-Contracts/contracts/market_pri/NewMarket.sol\":8041:8042  0 */\n      0x00\n        /* \"NFT-Contracts/contracts/market_pri/NewMarket.sol\":8032:8038  _price */\n      dup2\n        /* \"NFT-Contracts/contracts/market_pri/NewMarket.sol\":8032:8042  _price > 0 */\n      gt\n        /* \"NFT-Contracts/contracts/market_pri/NewMarket.sol\":8024:8064  require(_price > 0, \"Price cannot be 0\") */\n      tag_213\n      jumpi\n      mload(0x40)\n      0x08c379a000000000000000000000000000000000000000000000000000000000\n      dup2\n      mstore\n      0x04\n      add\n      tag_214\n      swap1\n      tag_113\n      jump\t// in\n    tag_214:\n      mload(0x40)\n      dup1\n      swap2\n      sub\n      swap1\n      revert\n    tag_213:\n        /* \"NFT-Contracts/contracts/market_pri/NewMarket.sol\":8571:8687  FixedSale(\r... */\n      mload(0x40)\n      dup1\n      0x80\n      add\n      0x40\n      mstore\n      dup1\n        /* \"NFT-Contracts/contracts/market_pri/NewMarket.sol\":8595:8605  msg.sender */\n      caller\n        /* \"NFT-Contracts/contracts/market_pri/NewMarket.sol\":8571:8687  FixedSale(\r... */\n      0xffffffffffffffffffffffffffffffffffffffff\n      and\n      dup2\n      mstore\n      0x20\n      add\n        /* \"NFT-Contracts/contracts/market_pri/NewMarket.sol\":8628:8629  0 */\n      0x00\n        /* \"NFT-Contracts/contracts/market_pri/NewMarket.sol\":8571:8687  FixedSale(\r... */\n      0xffffffffffffffffffffffffffffffffffffffff\n      and\n      dup2\n      mstore\n      0x20\n      add\n        /* \"NFT-Contracts/contracts/market_pri/NewMarket.sol\":8645:8651  _erc20 */\n      dup12\n        /* \"NFT-Contracts/contracts/market_pri/NewMarket.sol\":8571:8687  FixedSale(\r... */\n      0xffffffffffffffffffffffffffffffffffffffff\n      and\n      dup2\n      mstore\n      0x20\n      add\n        /* \"NFT-Contracts/contracts/market_pri/NewMarket.sol\":8666:8676  _salePrice */\n      dup10\n        /* \"NFT-Contracts/contracts/market_pri/NewMarket.sol\":8571:8687  FixedSale(\r... */\n      dup2\n      mstore\n      pop\n        /* \"NFT-Contracts/contracts/market_pri/NewMarket.sol\":8517:8537  nftContractFixedSale */\n      0x00\n        /* \"NFT-Contracts/contracts/market_pri/NewMarket.sol\":8517:8558  nftContractFixedSale[_nftContractAddress] */\n      dup1\n        /* \"NFT-Contracts/contracts/market_pri/NewMarket.sol\":8538:8557  _nftContractAddress */\n      dup14\n        /* \"NFT-Contracts/contracts/market_pri/NewMarket.sol\":8517:8558  nftContractFixedSale[_nftContractAddress] */\n      0xffffffffffffffffffffffffffffffffffffffff\n      and\n      0xffffffffffffffffffffffffffffffffffffffff\n      and\n      dup2\n      mstore\n      0x20\n      add\n      swap1\n      dup2\n      mstore\n      0x20\n      add\n      0x00\n      keccak256\n        /* \"NFT-Contracts/contracts/market_pri/NewMarket.sol\":8517:8568  nftContractFixedSale[_nftContractAddress][_tokenId] */\n      0x00\n        /* \"NFT-Contracts/contracts/market_pri/NewMarket.sol\":8559:8567  _tokenId */\n      dup12\n        /* \"NFT-Contracts/contracts/market_pri/NewMarket.sol\":8517:8568  nftContractFixedSale[_nftContractAddress][_tokenId] */\n      dup2\n      mstore\n      0x20\n      add\n      swap1\n      dup2\n      mstore\n      0x20\n      add\n      0x00\n      keccak256\n        /* \"NFT-Contracts/contracts/market_pri/NewMarket.sol\":8517:8687  nftContractFixedSale[_nftContractAddress][_tokenId] = FixedSale(\r... */\n      0x00\n      dup3\n      add\n      mload\n      dup2\n      0x00\n      add\n      exp(0x0100, 0x00)\n      dup2\n      sload\n      dup2\n      0xffffffffffffffffffffffffffffffffffffffff\n      mul\n      not\n      and\n      swap1\n      dup4\n      0xffffffffffffffffffffffffffffffffffffffff\n      and\n      mul\n      or\n      swap1\n      sstore\n      pop\n      0x20\n      dup3\n      add\n      mload\n      dup2\n      0x01\n      add\n      exp(0x0100, 0x00)\n      dup2\n      sload\n      dup2\n      0xffffffffffffffffffffffffffffffffffffffff\n      mul\n      not\n      and\n      swap1\n      dup4\n      0xffffffffffffffffffffffffffffffffffffffff\n      and\n      mul\n      or\n      swap1\n      sstore\n      pop\n      0x40\n      dup3\n      add\n      mload\n      dup2\n      0x02\n      add\n      exp(0x0100, 0x00)\n      dup2\n      sload\n      dup2\n      0xffffffffffffffffffffffffffffffffffffffff\n      mul\n      not\n      and\n      swap1\n      dup4\n      0xffffffffffffffffffffffffffffffffffffffff\n      and\n      mul\n      or\n      swap1\n      sstore\n      pop\n      0x60\n      dup3\n      add\n      mload\n      dup2\n      0x03\n      add\n      sstore\n      swap1\n      pop\n      pop\n        /* \"NFT-Contracts/contracts/market_pri/NewMarket.sol\":8747:8748  1 */\n      0x01\n        /* \"NFT-Contracts/contracts/market_pri/NewMarket.sol\":8700:8713  nftSaleStatus */\n      0x02\n        /* \"NFT-Contracts/contracts/market_pri/NewMarket.sol\":8700:8734  nftSaleStatus[_nftContractAddress] */\n      0x00\n        /* \"NFT-Contracts/contracts/market_pri/NewMarket.sol\":8714:8733  _nftContractAddress */\n      dup14\n        /* \"NFT-Contracts/contracts/market_pri/NewMarket.sol\":8700:8734  nftSaleStatus[_nftContractAddress] */\n      0xffffffffffffffffffffffffffffffffffffffff\n      and\n      0xffffffffffffffffffffffffffffffffffffffff\n      and\n      dup2\n      mstore\n      0x20\n      add\n      swap1\n      dup2\n      mstore\n      0x20\n      add\n      0x00\n      keccak256\n        /* \"NFT-Contracts/contracts/market_pri/NewMarket.sol\":8700:8744  nftSaleStatus[_nftContractAddress][_tokenId] */\n      0x00\n        /* \"NFT-Contracts/contracts/market_pri/NewMarket.sol\":8735:8743  _tokenId */\n      dup12\n        /* \"NFT-Contracts/contracts/market_pri/NewMarket.sol\":8700:8744  nftSaleStatus[_nftContractAddress][_tokenId] */\n      dup2\n      mstore\n      0x20\n      add\n      swap1\n      dup2\n      mstore\n      0x20\n      add\n      0x00\n      keccak256\n        /* \"NFT-Contracts/contracts/market_pri/NewMarket.sol\":8700:8748  nftSaleStatus[_nftContractAddress][_tokenId] = 1 */\n      dup2\n      swap1\n      sstore\n      pop\n        /* \"NFT-Contracts/contracts/market_pri/NewMarket.sol\":8812:8824  fixedSaleNFT */\n      0x05\n        /* \"NFT-Contracts/contracts/market_pri/NewMarket.sol\":8812:8831  fixedSaleNFT.length */\n      dup1\n      sload\n      swap1\n      pop\n        /* \"NFT-Contracts/contracts/market_pri/NewMarket.sol\":8761:8778  indexFixedSaleNFT */\n      0x04\n        /* \"NFT-Contracts/contracts/market_pri/NewMarket.sol\":8761:8799  indexFixedSaleNFT[_nftContractAddress] */\n      0x00\n        /* \"NFT-Contracts/contracts/market_pri/NewMarket.sol\":8779:8798  _nftContractAddress */\n      dup14\n        /* \"NFT-Contracts/contracts/market_pri/NewMarket.sol\":8761:8799  indexFixedSaleNFT[_nftContractAddress] */\n      0xffffffffffffffffffffffffffffffffffffffff\n      and\n      0xffffffffffffffffffffffffffffffffffffffff\n      and\n      dup2\n      mstore\n      0x20\n      add\n      swap1\n      dup2\n      mstore\n      0x20\n      add\n      0x00\n      keccak256\n        /* \"NFT-Contracts/contracts/market_pri/NewMarket.sol\":8761:8809  indexFixedSaleNFT[_nftContractAddress][_tokenId] */\n      0x00\n        /* \"NFT-Contracts/contracts/market_pri/NewMarket.sol\":8800:8808  _tokenId */\n      dup12\n        /* \"NFT-Contracts/contracts/market_pri/NewMarket.sol\":8761:8809  indexFixedSaleNFT[_nftContractAddress][_tokenId] */\n      dup2\n      mstore\n      0x20\n      add\n      swap1\n      dup2\n      mstore\n      0x20\n      add\n      0x00\n      keccak256\n        /* \"NFT-Contracts/contracts/market_pri/NewMarket.sol\":8761:8831  indexFixedSaleNFT[_nftContractAddress][_tokenId] = fixedSaleNFT.length */\n      dup2\n      swap1\n      sstore\n      pop\n        /* \"NFT-Contracts/contracts/market_pri/NewMarket.sol\":8842:8854  fixedSaleNFT */\n      0x05\n        /* \"NFT-Contracts/contracts/market_pri/NewMarket.sol\":8860:8899  SaleInfo(_nftContractAddress, _tokenId) */\n      mload(0x40)\n      dup1\n      0x40\n      add\n      0x40\n      mstore\n      dup1\n        /* \"NFT-Contracts/contracts/market_pri/NewMarket.sol\":8869:8888  _nftContractAddress */\n      dup14\n        /* \"NFT-Contracts/contracts/market_pri/NewMarket.sol\":8860:8899  SaleInfo(_nftContractAddress, _tokenId) */\n      0xffffffffffffffffffffffffffffffffffffffff\n      and\n      dup2\n      mstore\n      0x20\n      add\n        /* \"NFT-Contracts/contracts/market_pri/NewMarket.sol\":8890:8898  _tokenId */\n      dup12\n        /* \"NFT-Contracts/contracts/market_pri/NewMarket.sol\":8860:8899  SaleInfo(_nftContractAddress, _tokenId) */\n      dup2\n      mstore\n      pop\n        /* \"NFT-Contracts/contracts/market_pri/NewMarket.sol\":8842:8900  fixedSaleNFT.push(SaleInfo(_nftContractAddress, _tokenId)) */\n      swap1\n      dup1\n      0x01\n      dup2\n      sload\n      add\n      dup1\n      dup3\n      sstore\n      dup1\n      swap2\n      pop\n      pop\n      0x01\n      swap1\n      sub\n      swap1\n      0x00\n      mstore\n      keccak256(0x00, 0x20)\n      swap1\n      0x02\n      mul\n      add\n      0x00\n      swap1\n      swap2\n      swap1\n      swap2\n      swap1\n      swap2\n      pop\n      0x00\n      dup3\n      add\n      mload\n      dup2\n      0x00\n      add\n      exp(0x0100, 0x00)\n      dup2\n      sload\n      dup2\n      0xffffffffffffffffffffffffffffffffffffffff\n      mul\n      not\n      and\n      swap1\n      dup4\n      0xffffffffffffffffffffffffffffffffffffffff\n      and\n      mul\n      or\n      swap1\n      sstore\n      pop\n      0x20\n      dup3\n      add\n      mload\n      dup2\n      0x01\n      add\n      sstore\n      pop\n      pop\n        /* \"NFT-Contracts/contracts/market_pri/NewMarket.sol\":8921:8940  _nftContractAddress */\n      dup11\n        /* \"NFT-Contracts/contracts/market_pri/NewMarket.sol\":8913:8958  IERC721(_nftContractAddress).safeTransferFrom */\n      0xffffffffffffffffffffffffffffffffffffffff\n      and\n      0x42842e0e\n        /* \"NFT-Contracts/contracts/market_pri/NewMarket.sol\":8973:8983  msg.sender */\n      caller\n        /* \"NFT-Contracts/contracts/market_pri/NewMarket.sol\":9006:9010  this */\n      address\n        /* \"NFT-Contracts/contracts/market_pri/NewMarket.sol\":9026:9034  _tokenId */\n      dup13\n        /* \"NFT-Contracts/contracts/market_pri/NewMarket.sol\":8913:9045  IERC721(_nftContractAddress).safeTransferFrom(\r... */\n      mload(0x40)\n      dup5\n      0xffffffff\n      and\n      0xe0\n      shl\n      dup2\n      mstore\n      0x04\n      add\n      tag_217\n      swap4\n      swap3\n      swap2\n      swap1\n      tag_218\n      jump\t// in\n    tag_217:\n      0x00\n      mload(0x40)\n      dup1\n      dup4\n      sub\n      dup2\n      0x00\n      dup8\n      dup1\n      extcodesize\n      iszero\n      dup1\n      iszero\n      tag_219\n      jumpi\n      0x00\n      dup1\n      revert\n    tag_219:\n      pop\n      gas\n      call\n      iszero\n      dup1\n      iszero\n      tag_221\n      jumpi\n      returndatasize\n      0x00\n      dup1\n      returndatacopy\n      revert(0x00, returndatasize)\n    tag_221:\n      pop\n      pop\n      pop\n      pop\n        /* \"NFT-Contracts/contracts/market_pri/NewMarket.sol\":9063:9244  NftFixedSale(\r... */\n      0x078eead3cd01ed921c7653d000a6b73aea643a7b9c066fb7d93eb2eae8acc2d9\n        /* \"NFT-Contracts/contracts/market_pri/NewMarket.sol\":9090:9109  _nftContractAddress */\n      dup12\n        /* \"NFT-Contracts/contracts/market_pri/NewMarket.sol\":9124:9134  msg.sender */\n      caller\n        /* \"NFT-Contracts/contracts/market_pri/NewMarket.sol\":9149:9155  _erc20 */\n      dup13\n        /* \"NFT-Contracts/contracts/market_pri/NewMarket.sol\":9170:9178  _tokenId */\n      dup13\n        /* \"NFT-Contracts/contracts/market_pri/NewMarket.sol\":9193:9203  _salePrice */\n      dup13\n        /* \"NFT-Contracts/contracts/market_pri/NewMarket.sol\":9218:9233  block.timestamp */\n      timestamp\n        /* \"NFT-Contracts/contracts/market_pri/NewMarket.sol\":9063:9244  NftFixedSale(\r... */\n      mload(0x40)\n      tag_222\n      swap7\n      swap6\n      swap5\n      swap4\n      swap3\n      swap2\n      swap1\n      tag_223\n      jump\t// in\n    tag_222:\n      mload(0x40)\n      dup1\n      swap2\n      sub\n      swap1\n      log1\n        /* \"NFT-Contracts/contracts/market_pri/NewMarket.sol\":4689:4690  _ */\n      pop\n        /* \"NFT-Contracts/contracts/market_pri/NewMarket.sol\":3387:3388  _ */\n      pop\n      pop\n        /* \"NFT-Contracts/contracts/market_pri/NewMarket.sol\":4100:4101  _ */\n      pop\n      pop\n        /* \"NFT-Contracts/contracts/market_pri/NewMarket.sol\":8117:9252  function nftFixedSale(\r... */\n      pop\n      pop\n      pop\n      pop\n      pop\n      pop\n      jump\t// out\n        /* \"NFT-Contracts/contracts/market_pri/NewMarket.sol\":17529:17753  function getNftAuctionSaleDetails(\r... */\n    tag_65:\n        /* \"NFT-Contracts/contracts/market_pri/NewMarket.sol\":17658:17672  Auction memory */\n      tag_224\n      tag_225\n      jump\t// in\n    tag_224:\n        /* \"NFT-Contracts/contracts/market_pri/NewMarket.sol\":17692:17714  nftContractAuctionSale */\n      0x01\n        /* \"NFT-Contracts/contracts/market_pri/NewMarket.sol\":17692:17735  nftContractAuctionSale[_nftContractAddress] */\n      0x00\n        /* \"NFT-Contracts/contracts/market_pri/NewMarket.sol\":17715:17734  _nftContractAddress */\n      dup5\n        /* \"NFT-Contracts/contracts/market_pri/NewMarket.sol\":17692:17735  nftContractAuctionSale[_nftContractAddress] */\n      0xffffffffffffffffffffffffffffffffffffffff\n      and\n      0xffffffffffffffffffffffffffffffffffffffff\n      and\n      dup2\n      mstore\n      0x20\n      add\n      swap1\n      dup2\n      mstore\n      0x20\n      add\n      0x00\n      keccak256\n        /* \"NFT-Contracts/contracts/market_pri/NewMarket.sol\":17692:17745  nftContractAuctionSale[_nftContractAddress][_tokenId] */\n      0x00\n        /* \"NFT-Contracts/contracts/market_pri/NewMarket.sol\":17736:17744  _tokenId */\n      dup4\n        /* \"NFT-Contracts/contracts/market_pri/NewMarket.sol\":17692:17745  nftContractAuctionSale[_nftContractAddress][_tokenId] */\n      dup2\n      mstore\n      0x20\n      add\n      swap1\n      dup2\n      mstore\n      0x20\n      add\n      0x00\n      keccak256\n        /* \"NFT-Contracts/contracts/market_pri/NewMarket.sol\":17685:17745  return nftContractAuctionSale[_nftContractAddress][_tokenId] */\n      mload(0x40)\n      dup1\n      0xe0\n      add\n      0x40\n      mstore\n      swap1\n      dup2\n      0x00\n      dup3\n      add\n      sload\n      dup2\n      mstore\n      0x20\n      add\n      0x01\n      dup3\n      add\n      sload\n      dup2\n      mstore\n      0x20\n      add\n      0x02\n      dup3\n      add\n      sload\n      dup2\n      mstore\n      0x20\n      add\n      0x03\n      dup3\n      add\n      sload\n      dup2\n      mstore\n      0x20\n      add\n      0x04\n      dup3\n      add\n      0x00\n      swap1\n      sload\n      swap1\n      0x0100\n      exp\n      swap1\n      div\n      0xffffffffffffffffffffffffffffffffffffffff\n      and\n      0xffffffffffffffffffffffffffffffffffffffff\n      and\n      0xffffffffffffffffffffffffffffffffffffffff\n      and\n      dup2\n      mstore\n      0x20\n      add\n      0x05\n      dup3\n      add\n      0x00\n      swap1\n      sload\n      swap1\n      0x0100\n      exp\n      swap1\n      div\n      0xffffffffffffffffffffffffffffffffffffffff\n      and\n      0xffffffffffffffffffffffffffffffffffffffff\n      and\n      0xffffffffffffffffffffffffffffffffffffffff\n      and\n      dup2\n      mstore\n      0x20\n      add\n      0x06\n      dup3\n      add\n      0x00\n      swap1\n      sload\n      swap1\n      0x0100\n      exp\n      swap1\n      div\n      0xffffffffffffffffffffffffffffffffffffffff\n      and\n      0xffffffffffffffffffffffffffffffffffffffff\n      and\n      0xffffffffffffffffffffffffffffffffffffffff\n      and\n      dup2\n      mstore\n      pop\n      pop\n      swap1\n      pop\n        /* \"NFT-Contracts/contracts/market_pri/NewMarket.sol\":17529:17753  function getNftAuctionSaleDetails(\r... */\n      swap3\n      swap2\n      pop\n      pop\n      jump\t// out\n        /* \"NFT-Contracts/contracts/market_pri/NewMarket.sol\":1134:1235  mapping(address => mapping(uint256 => mapping(address => uint256)))\r... */\n    tag_72:\n      mstore(0x20, 0x03)\n      dup3\n      0x00\n      mstore\n      mstore(0x20, keccak256(0x00, 0x40))\n      dup2\n      0x00\n      mstore\n      mstore(0x20, keccak256(0x00, 0x40))\n      dup1\n      0x00\n      mstore\n      keccak256(0x00, 0x40)\n      0x00\n      swap3\n      pop\n      swap3\n      pop\n      pop\n      pop\n      sload\n      dup2\n      jump\t// out\n        /* \"NFT-Contracts/contracts/market_pri/NewMarket.sol\":15220:15849  function _cancelAuctionSale(address _nftContractAddress, uint256 _tokenId)\r... */\n    tag_77:\n        /* \"NFT-Contracts/contracts/market_pri/NewMarket.sol\":15341:15360  _nftContractAddress */\n      dup2\n        /* \"NFT-Contracts/contracts/market_pri/NewMarket.sol\":15362:15370  _tokenId */\n      dup2\n        /* \"NFT-Contracts/contracts/market_pri/NewMarket.sol\":3792:3793  2 */\n      0x02\n        /* \"NFT-Contracts/contracts/market_pri/NewMarket.sol\":3744:3757  nftSaleStatus */\n      dup1\n        /* \"NFT-Contracts/contracts/market_pri/NewMarket.sol\":3744:3778  nftSaleStatus[_nftContractAddress] */\n      0x00\n        /* \"NFT-Contracts/contracts/market_pri/NewMarket.sol\":3758:3777  _nftContractAddress */\n      dup5\n        /* \"NFT-Contracts/contracts/market_pri/NewMarket.sol\":3744:3778  nftSaleStatus[_nftContractAddress] */\n      0xffffffffffffffffffffffffffffffffffffffff\n      and\n      0xffffffffffffffffffffffffffffffffffffffff\n      and\n      dup2\n      mstore\n      0x20\n      add\n      swap1\n      dup2\n      mstore\n      0x20\n      add\n      0x00\n      keccak256\n        /* \"NFT-Contracts/contracts/market_pri/NewMarket.sol\":3744:3788  nftSaleStatus[_nftContractAddress][_tokenId] */\n      0x00\n        /* \"NFT-Contracts/contracts/market_pri/NewMarket.sol\":3779:3787  _tokenId */\n      dup4\n        /* \"NFT-Contracts/contracts/market_pri/NewMarket.sol\":3744:3788  nftSaleStatus[_nftContractAddress][_tokenId] */\n      dup2\n      mstore\n      0x20\n      add\n      swap1\n      dup2\n      mstore\n      0x20\n      add\n      0x00\n      keccak256\n      sload\n        /* \"NFT-Contracts/contracts/market_pri/NewMarket.sol\":3744:3793  nftSaleStatus[_nftContractAddress][_tokenId] == 2 */\n      eq\n        /* \"NFT-Contracts/contracts/market_pri/NewMarket.sol\":3722:3844  require(\r... */\n      tag_228\n      jumpi\n      mload(0x40)\n      0x08c379a000000000000000000000000000000000000000000000000000000000\n      dup2\n      mstore\n      0x04\n      add\n      tag_229\n      swap1\n      tag_105\n      jump\t// in\n    tag_229:\n      mload(0x40)\n      dup1\n      swap2\n      sub\n      swap1\n      revert\n    tag_228:\n        /* \"NFT-Contracts/contracts/market_pri/NewMarket.sol\":15403:15422  _nftContractAddress */\n      dup4\n        /* \"NFT-Contracts/contracts/market_pri/NewMarket.sol\":15424:15432  _tokenId */\n      dup4\n        /* \"NFT-Contracts/contracts/market_pri/NewMarket.sol\":6281:6303  nftContractAuctionSale */\n      0x01\n        /* \"NFT-Contracts/contracts/market_pri/NewMarket.sol\":6281:6324  nftContractAuctionSale[_nftContractAddress] */\n      0x00\n        /* \"NFT-Contracts/contracts/market_pri/NewMarket.sol\":6304:6323  _nftContractAddress */\n      dup4\n        /* \"NFT-Contracts/contracts/market_pri/NewMarket.sol\":6281:6324  nftContractAuctionSale[_nftContractAddress] */\n      0xffffffffffffffffffffffffffffffffffffffff\n      and\n      0xffffffffffffffffffffffffffffffffffffffff\n      and\n      dup2\n      mstore\n      0x20\n      add\n      swap1\n      dup2\n      mstore\n      0x20\n      add\n      0x00\n      keccak256\n        /* \"NFT-Contracts/contracts/market_pri/NewMarket.sol\":6281:6334  nftContractAuctionSale[_nftContractAddress][_tokenId] */\n      0x00\n        /* \"NFT-Contracts/contracts/market_pri/NewMarket.sol\":6325:6333  _tokenId */\n      dup3\n        /* \"NFT-Contracts/contracts/market_pri/NewMarket.sol\":6281:6334  nftContractAuctionSale[_nftContractAddress][_tokenId] */\n      dup2\n      mstore\n      0x20\n      add\n      swap1\n      dup2\n      mstore\n      0x20\n      add\n      0x00\n      keccak256\n        /* \"NFT-Contracts/contracts/market_pri/NewMarket.sol\":6281:6344  nftContractAuctionSale[_nftContractAddress][_tokenId].nftSeller */\n      0x05\n      add\n      0x00\n      swap1\n      sload\n      swap1\n      0x0100\n      exp\n      swap1\n      div\n      0xffffffffffffffffffffffffffffffffffffffff\n      and\n        /* \"NFT-Contracts/contracts/market_pri/NewMarket.sol\":6250:6344  msg.sender ==\r... */\n      0xffffffffffffffffffffffffffffffffffffffff\n      and\n        /* \"NFT-Contracts/contracts/market_pri/NewMarket.sol\":6250:6260  msg.sender */\n      caller\n        /* \"NFT-Contracts/contracts/market_pri/NewMarket.sol\":6250:6344  msg.sender ==\r... */\n      0xffffffffffffffffffffffffffffffffffffffff\n      and\n      eq\n        /* \"NFT-Contracts/contracts/market_pri/NewMarket.sol\":6228:6385  require(\r... */\n      tag_231\n      jumpi\n      mload(0x40)\n      0x08c379a000000000000000000000000000000000000000000000000000000000\n      dup2\n      mstore\n      0x04\n      add\n      tag_232\n      swap1\n      tag_233\n      jump\t// in\n    tag_232:\n      mload(0x40)\n      dup1\n      swap2\n      sub\n      swap1\n      revert\n    tag_231:\n        /* \"NFT-Contracts/contracts/market_pri/NewMarket.sol\":15460:15479  _nftContractAddress */\n      dup6\n        /* \"NFT-Contracts/contracts/market_pri/NewMarket.sol\":15481:15489  _tokenId */\n      dup6\n        /* \"NFT-Contracts/contracts/market_pri/NewMarket.sol\":5961:5983  nftContractAuctionSale */\n      0x01\n        /* \"NFT-Contracts/contracts/market_pri/NewMarket.sol\":5961:6004  nftContractAuctionSale[_nftContractAddress] */\n      0x00\n        /* \"NFT-Contracts/contracts/market_pri/NewMarket.sol\":5984:6003  _nftContractAddress */\n      dup4\n        /* \"NFT-Contracts/contracts/market_pri/NewMarket.sol\":5961:6004  nftContractAuctionSale[_nftContractAddress] */\n      0xffffffffffffffffffffffffffffffffffffffff\n      and\n      0xffffffffffffffffffffffffffffffffffffffff\n      and\n      dup2\n      mstore\n      0x20\n      add\n      swap1\n      dup2\n      mstore\n      0x20\n      add\n      0x00\n      keccak256\n        /* \"NFT-Contracts/contracts/market_pri/NewMarket.sol\":5961:6014  nftContractAuctionSale[_nftContractAddress][_tokenId] */\n      0x00\n        /* \"NFT-Contracts/contracts/market_pri/NewMarket.sol\":6005:6013  _tokenId */\n      dup3\n        /* \"NFT-Contracts/contracts/market_pri/NewMarket.sol\":5961:6014  nftContractAuctionSale[_nftContractAddress][_tokenId] */\n      dup2\n      mstore\n      0x20\n      add\n      swap1\n      dup2\n      mstore\n      0x20\n      add\n      0x00\n      keccak256\n        /* \"NFT-Contracts/contracts/market_pri/NewMarket.sol\":5961:6047  nftContractAuctionSale[_nftContractAddress][_tokenId]\r... */\n      0x01\n      add\n      sload\n        /* \"NFT-Contracts/contracts/market_pri/NewMarket.sol\":5926:5941  block.timestamp */\n      timestamp\n        /* \"NFT-Contracts/contracts/market_pri/NewMarket.sol\":5926:6047  block.timestamp <\r... */\n      lt\n        /* \"NFT-Contracts/contracts/market_pri/NewMarket.sol\":5904:6086  require(\r... */\n      tag_235\n      jumpi\n      mload(0x40)\n      0x08c379a000000000000000000000000000000000000000000000000000000000\n      dup2\n      mstore\n      0x04\n      add\n      tag_236\n      swap1\n      tag_109\n      jump\t// in\n    tag_236:\n      mload(0x40)\n      dup1\n      swap2\n      sub\n      swap1\n      revert\n    tag_235:\n        /* \"NFT-Contracts/contracts/market_pri/NewMarket.sol\":15520:15539  _nftContractAddress */\n      dup8\n        /* \"NFT-Contracts/contracts/market_pri/NewMarket.sol\":15541:15549  _tokenId */\n      dup8\n        /* \"NFT-Contracts/contracts/market_pri/NewMarket.sol\":7480:7502  nftContractAuctionSale */\n      0x01\n        /* \"NFT-Contracts/contracts/market_pri/NewMarket.sol\":7480:7523  nftContractAuctionSale[_nftContractAddress] */\n      0x00\n        /* \"NFT-Contracts/contracts/market_pri/NewMarket.sol\":7503:7522  _nftContractAddress */\n      dup4\n        /* \"NFT-Contracts/contracts/market_pri/NewMarket.sol\":7480:7523  nftContractAuctionSale[_nftContractAddress] */\n      0xffffffffffffffffffffffffffffffffffffffff\n      and\n      0xffffffffffffffffffffffffffffffffffffffff\n      and\n      dup2\n      mstore\n      0x20\n      add\n      swap1\n      dup2\n      mstore\n      0x20\n      add\n      0x00\n      keccak256\n        /* \"NFT-Contracts/contracts/market_pri/NewMarket.sol\":7480:7533  nftContractAuctionSale[_nftContractAddress][_tokenId] */\n      0x00\n        /* \"NFT-Contracts/contracts/market_pri/NewMarket.sol\":7524:7532  _tokenId */\n      dup3\n        /* \"NFT-Contracts/contracts/market_pri/NewMarket.sol\":7480:7533  nftContractAuctionSale[_nftContractAddress][_tokenId] */\n      dup2\n      mstore\n      0x20\n      add\n      swap1\n      dup2\n      mstore\n      0x20\n      add\n      0x00\n      keccak256\n        /* \"NFT-Contracts/contracts/market_pri/NewMarket.sol\":7480:7572  nftContractAuctionSale[_nftContractAddress][_tokenId]\r... */\n      0x04\n      add\n      0x00\n      swap1\n      sload\n      swap1\n      0x0100\n      exp\n      swap1\n      div\n      0xffffffffffffffffffffffffffffffffffffffff\n      and\n        /* \"NFT-Contracts/contracts/market_pri/NewMarket.sol\":7449:7572  address(0) ==\r... */\n      0xffffffffffffffffffffffffffffffffffffffff\n      and\n        /* \"NFT-Contracts/contracts/market_pri/NewMarket.sol\":7457:7458  0 */\n      0x00\n        /* \"NFT-Contracts/contracts/market_pri/NewMarket.sol\":7449:7572  address(0) ==\r... */\n      0xffffffffffffffffffffffffffffffffffffffff\n      and\n      eq\n        /* \"NFT-Contracts/contracts/market_pri/NewMarket.sol\":7427:7608  require(\r... */\n      tag_238\n      jumpi\n      mload(0x40)\n      0x08c379a000000000000000000000000000000000000000000000000000000000\n      dup2\n      mstore\n      0x04\n      add\n      tag_239\n      swap1\n      tag_240\n      jump\t// in\n    tag_239:\n      mload(0x40)\n      dup1\n      swap2\n      sub\n      swap1\n      revert\n    tag_238:\n        /* \"NFT-Contracts/contracts/market_pri/NewMarket.sol\":15614:15615  0 */\n      0x00\n        /* \"NFT-Contracts/contracts/market_pri/NewMarket.sol\":15567:15580  nftSaleStatus */\n      0x02\n        /* \"NFT-Contracts/contracts/market_pri/NewMarket.sol\":15567:15601  nftSaleStatus[_nftContractAddress] */\n      0x00\n        /* \"NFT-Contracts/contracts/market_pri/NewMarket.sol\":15581:15600  _nftContractAddress */\n      dup13\n        /* \"NFT-Contracts/contracts/market_pri/NewMarket.sol\":15567:15601  nftSaleStatus[_nftContractAddress] */\n      0xffffffffffffffffffffffffffffffffffffffff\n      and\n      0xffffffffffffffffffffffffffffffffffffffff\n      and\n      dup2\n      mstore\n      0x20\n      add\n      swap1\n      dup2\n      mstore\n      0x20\n      add\n      0x00\n      keccak256\n        /* \"NFT-Contracts/contracts/market_pri/NewMarket.sol\":15567:15611  nftSaleStatus[_nftContractAddress][_tokenId] */\n      0x00\n        /* \"NFT-Contracts/contracts/market_pri/NewMarket.sol\":15602:15610  _tokenId */\n      dup12\n        /* \"NFT-Contracts/contracts/market_pri/NewMarket.sol\":15567:15611  nftSaleStatus[_nftContractAddress][_tokenId] */\n      dup2\n      mstore\n      0x20\n      add\n      swap1\n      dup2\n      mstore\n      0x20\n      add\n      0x00\n      keccak256\n        /* \"NFT-Contracts/contracts/market_pri/NewMarket.sol\":15567:15615  nftSaleStatus[_nftContractAddress][_tokenId] = 0 */\n      dup2\n      swap1\n      sstore\n      pop\n        /* \"NFT-Contracts/contracts/market_pri/NewMarket.sol\":15636:15655  _nftContractAddress */\n      dup10\n        /* \"NFT-Contracts/contracts/market_pri/NewMarket.sol\":15628:15673  IERC721(_nftContractAddress).safeTransferFrom */\n      0xffffffffffffffffffffffffffffffffffffffff\n      and\n      0x42842e0e\n        /* \"NFT-Contracts/contracts/market_pri/NewMarket.sol\":15696:15700  this */\n      address\n        /* \"NFT-Contracts/contracts/market_pri/NewMarket.sol\":15716:15726  msg.sender */\n      caller\n        /* \"NFT-Contracts/contracts/market_pri/NewMarket.sol\":15741:15749  _tokenId */\n      dup13\n        /* \"NFT-Contracts/contracts/market_pri/NewMarket.sol\":15628:15760  IERC721(_nftContractAddress).safeTransferFrom(\r... */\n      mload(0x40)\n      dup5\n      0xffffffff\n      and\n      0xe0\n      shl\n      dup2\n      mstore\n      0x04\n      add\n      tag_242\n      swap4\n      swap3\n      swap2\n      swap1\n      tag_218\n      jump\t// in\n    tag_242:\n      0x00\n      mload(0x40)\n      dup1\n      dup4\n      sub\n      dup2\n      0x00\n      dup8\n      dup1\n      extcodesize\n      iszero\n      dup1\n      iszero\n      tag_243\n      jumpi\n      0x00\n      dup1\n      revert\n    tag_243:\n      pop\n      gas\n      call\n      iszero\n      dup1\n      iszero\n      tag_245\n      jumpi\n      returndatasize\n      0x00\n      dup1\n      returndatacopy\n      revert(0x00, returndatasize)\n    tag_245:\n      pop\n      pop\n      pop\n      pop\n        /* \"NFT-Contracts/contracts/market_pri/NewMarket.sol\":15778:15841  CancelNftAuctionSale(_nftContractAddress, _tokenId, msg.sender) */\n      0xb9d411977d4ee731f87bb8f16eb6f8c1fb579cff684642052bf6084e6e33238d\n        /* \"NFT-Contracts/contracts/market_pri/NewMarket.sol\":15799:15818  _nftContractAddress */\n      dup11\n        /* \"NFT-Contracts/contracts/market_pri/NewMarket.sol\":15820:15828  _tokenId */\n      dup11\n        /* \"NFT-Contracts/contracts/market_pri/NewMarket.sol\":15830:15840  msg.sender */\n      caller\n        /* \"NFT-Contracts/contracts/market_pri/NewMarket.sol\":15778:15841  CancelNftAuctionSale(_nftContractAddress, _tokenId, msg.sender) */\n      mload(0x40)\n      tag_246\n      swap4\n      swap3\n      swap2\n      swap1\n      tag_176\n      jump\t// in\n    tag_246:\n      mload(0x40)\n      dup1\n      swap2\n      sub\n      swap1\n      log1\n        /* \"NFT-Contracts/contracts/market_pri/NewMarket.sol\":6097:6098  _ */\n      pop\n      pop\n        /* \"NFT-Contracts/contracts/market_pri/NewMarket.sol\":6396:6397  _ */\n      pop\n      pop\n        /* \"NFT-Contracts/contracts/market_pri/NewMarket.sol\":3855:3856  _ */\n      pop\n      pop\n        /* \"NFT-Contracts/contracts/market_pri/NewMarket.sol\":15220:15849  function _cancelAuctionSale(address _nftContractAddress, uint256 _tokenId)\r... */\n      pop\n      pop\n      pop\n      pop\n      jump\t// out\n        /* \"NFT-Contracts/contracts/market_pri/NewMarket.sol\":17876:18095  function getFixedSale(address _nftContractAddress, uint256 _tokenId)\r... */\n    tag_81:\n        /* \"NFT-Contracts/contracts/market_pri/NewMarket.sol\":17995:18011  FixedSale memory */\n      tag_247\n      tag_248\n      jump\t// in\n    tag_247:\n        /* \"NFT-Contracts/contracts/market_pri/NewMarket.sol\":18036:18056  nftContractFixedSale */\n      0x00\n        /* \"NFT-Contracts/contracts/market_pri/NewMarket.sol\":18036:18077  nftContractFixedSale[_nftContractAddress] */\n      dup1\n        /* \"NFT-Contracts/contracts/market_pri/NewMarket.sol\":18057:18076  _nftContractAddress */\n      dup5\n        /* \"NFT-Contracts/contracts/market_pri/NewMarket.sol\":18036:18077  nftContractFixedSale[_nftContractAddress] */\n      0xffffffffffffffffffffffffffffffffffffffff\n      and\n      0xffffffffffffffffffffffffffffffffffffffff\n      and\n      dup2\n      mstore\n      0x20\n      add\n      swap1\n      dup2\n      mstore\n      0x20\n      add\n      0x00\n      keccak256\n        /* \"NFT-Contracts/contracts/market_pri/NewMarket.sol\":18036:18087  nftContractFixedSale[_nftContractAddress][_tokenId] */\n      0x00\n        /* \"NFT-Contracts/contracts/market_pri/NewMarket.sol\":18078:18086  _tokenId */\n      dup4\n        /* \"NFT-Contracts/contracts/market_pri/NewMarket.sol\":18036:18087  nftContractFixedSale[_nftContractAddress][_tokenId] */\n      dup2\n      mstore\n      0x20\n      add\n      swap1\n      dup2\n      mstore\n      0x20\n      add\n      0x00\n      keccak256\n        /* \"NFT-Contracts/contracts/market_pri/NewMarket.sol\":18029:18087  return nftContractFixedSale[_nftContractAddress][_tokenId] */\n      mload(0x40)\n      dup1\n      0x80\n      add\n      0x40\n      mstore\n      swap1\n      dup2\n      0x00\n      dup3\n      add\n      0x00\n      swap1\n      sload\n      swap1\n      0x0100\n      exp\n      swap1\n      div\n      0xffffffffffffffffffffffffffffffffffffffff\n      and\n      0xffffffffffffffffffffffffffffffffffffffff\n      and\n      0xffffffffffffffffffffffffffffffffffffffff\n      and\n      dup2\n      mstore\n      0x20\n      add\n      0x01\n      dup3\n      add\n      0x00\n      swap1\n      sload\n      swap1\n      0x0100\n      exp\n      swap1\n      div\n      0xffffffffffffffffffffffffffffffffffffffff\n      and\n      0xffffffffffffffffffffffffffffffffffffffff\n      and\n      0xffffffffffffffffffffffffffffffffffffffff\n      and\n      dup2\n      mstore\n      0x20\n      add\n      0x02\n      dup3\n      add\n      0x00\n      swap1\n      sload\n      swap1\n      0x0100\n      exp\n      swap1\n      div\n      0xffffffffffffffffffffffffffffffffffffffff\n      and\n      0xffffffffffffffffffffffffffffffffffffffff\n      and\n      0xffffffffffffffffffffffffffffffffffffffff\n      and\n      dup2\n      mstore\n      0x20\n      add\n      0x03\n      dup3\n      add\n      sload\n      dup2\n      mstore\n      pop\n      pop\n      swap1\n      pop\n        /* \"NFT-Contracts/contracts/market_pri/NewMarket.sol\":17876:18095  function getFixedSale(address _nftContractAddress, uint256 _tokenId)\r... */\n      swap3\n      swap2\n      pop\n      pop\n      jump\t// out\n        /* \"NFT-Contracts/contracts/market_pri/NewMarket.sol\":17761:17868  function getFixedSaleNFT() external view returns (SaleInfo[] memory) {\r... */\n    tag_86:\n        /* \"NFT-Contracts/contracts/market_pri/NewMarket.sol\":17811:17828  SaleInfo[] memory */\n      0x60\n        /* \"NFT-Contracts/contracts/market_pri/NewMarket.sol\":17848:17860  fixedSaleNFT */\n      0x05\n        /* \"NFT-Contracts/contracts/market_pri/NewMarket.sol\":17841:17860  return fixedSaleNFT */\n      dup1\n      sload\n      dup1\n      0x20\n      mul\n      0x20\n      add\n      mload(0x40)\n      swap1\n      dup2\n      add\n      0x40\n      mstore\n      dup1\n      swap3\n      swap2\n      swap1\n      dup2\n      dup2\n      mstore\n      0x20\n      add\n      0x00\n      swap1\n    tag_251:\n      dup3\n      dup3\n      lt\n      iszero\n      tag_252\n      jumpi\n      dup4\n      dup3\n      swap1\n      0x00\n      mstore\n      keccak256(0x00, 0x20)\n      swap1\n      0x02\n      mul\n      add\n      mload(0x40)\n      dup1\n      0x40\n      add\n      0x40\n      mstore\n      swap1\n      dup2\n      0x00\n      dup3\n      add\n      0x00\n      swap1\n      sload\n      swap1\n      0x0100\n      exp\n      swap1\n      div\n      0xffffffffffffffffffffffffffffffffffffffff\n      and\n      0xffffffffffffffffffffffffffffffffffffffff\n      and\n      0xffffffffffffffffffffffffffffffffffffffff\n      and\n      dup2\n      mstore\n      0x20\n      add\n      0x01\n      dup3\n      add\n      sload\n      dup2\n      mstore\n      pop\n      pop\n      dup2\n      mstore\n      0x20\n      add\n      swap1\n      0x01\n      add\n      swap1\n      jump(tag_251)\n    tag_252:\n      pop\n      pop\n      pop\n      pop\n      swap1\n      pop\n        /* \"NFT-Contracts/contracts/market_pri/NewMarket.sol\":17761:17868  function getFixedSaleNFT() external view returns (SaleInfo[] memory) {\r... */\n      swap1\n      jump\t// out\n        /* \"NFT-Contracts/contracts/market_pri/NewMarket.sol\":10440:11579  function buyFromFixedSale(\r... */\n    tag_91:\n        /* \"NFT-Contracts/contracts/market_pri/NewMarket.sol\":10625:10644  _nftContractAddress */\n      dup3\n        /* \"NFT-Contracts/contracts/market_pri/NewMarket.sol\":10646:10654  _tokenId */\n      dup3\n        /* \"NFT-Contracts/contracts/market_pri/NewMarket.sol\":3558:3559  1 */\n      0x01\n        /* \"NFT-Contracts/contracts/market_pri/NewMarket.sol\":3510:3523  nftSaleStatus */\n      0x02\n        /* \"NFT-Contracts/contracts/market_pri/NewMarket.sol\":3510:3544  nftSaleStatus[_nftContractAddress] */\n      0x00\n        /* \"NFT-Contracts/contracts/market_pri/NewMarket.sol\":3524:3543  _nftContractAddress */\n      dup5\n        /* \"NFT-Contracts/contracts/market_pri/NewMarket.sol\":3510:3544  nftSaleStatus[_nftContractAddress] */\n      0xffffffffffffffffffffffffffffffffffffffff\n      and\n      0xffffffffffffffffffffffffffffffffffffffff\n      and\n      dup2\n      mstore\n      0x20\n      add\n      swap1\n      dup2\n      mstore\n      0x20\n      add\n      0x00\n      keccak256\n        /* \"NFT-Contracts/contracts/market_pri/NewMarket.sol\":3510:3554  nftSaleStatus[_nftContractAddress][_tokenId] */\n      0x00\n        /* \"NFT-Contracts/contracts/market_pri/NewMarket.sol\":3545:3553  _tokenId */\n      dup4\n        /* \"NFT-Contracts/contracts/market_pri/NewMarket.sol\":3510:3554  nftSaleStatus[_nftContractAddress][_tokenId] */\n      dup2\n      mstore\n      0x20\n      add\n      swap1\n      dup2\n      mstore\n      0x20\n      add\n      0x00\n      keccak256\n      sload\n        /* \"NFT-Contracts/contracts/market_pri/NewMarket.sol\":3510:3559  nftSaleStatus[_nftContractAddress][_tokenId] == 1 */\n      eq\n        /* \"NFT-Contracts/contracts/market_pri/NewMarket.sol\":3488:3608  require(\r... */\n      tag_255\n      jumpi\n      mload(0x40)\n      0x08c379a000000000000000000000000000000000000000000000000000000000\n      dup2\n      mstore\n      0x04\n      add\n      tag_256\n      swap1\n      tag_153\n      jump\t// in\n    tag_256:\n      mload(0x40)\n      dup1\n      swap2\n      sub\n      swap1\n      revert\n    tag_255:\n        /* \"NFT-Contracts/contracts/market_pri/NewMarket.sol\":10686:10693  _amount */\n      dup3\n        /* \"NFT-Contracts/contracts/market_pri/NewMarket.sol\":8041:8042  0 */\n      0x00\n        /* \"NFT-Contracts/contracts/market_pri/NewMarket.sol\":8032:8038  _price */\n      dup2\n        /* \"NFT-Contracts/contracts/market_pri/NewMarket.sol\":8032:8042  _price > 0 */\n      gt\n        /* \"NFT-Contracts/contracts/market_pri/NewMarket.sol\":8024:8064  require(_price > 0, \"Price cannot be 0\") */\n      tag_258\n      jumpi\n      mload(0x40)\n      0x08c379a000000000000000000000000000000000000000000000000000000000\n      dup2\n      mstore\n      0x04\n      add\n      tag_259\n      swap1\n      tag_113\n      jump\t// in\n    tag_259:\n      mload(0x40)\n      dup1\n      swap2\n      sub\n      swap1\n      revert\n    tag_258:\n        /* \"NFT-Contracts/contracts/market_pri/NewMarket.sol\":10726:10745  _nftContractAddress */\n      dup6\n        /* \"NFT-Contracts/contracts/market_pri/NewMarket.sol\":10747:10755  _tokenId */\n      dup6\n        /* \"NFT-Contracts/contracts/market_pri/NewMarket.sol\":10757:10764  _amount */\n      dup6\n        /* \"NFT-Contracts/contracts/market_pri/NewMarket.sol\":7830:7850  nftContractFixedSale */\n      0x00\n        /* \"NFT-Contracts/contracts/market_pri/NewMarket.sol\":7830:7871  nftContractFixedSale[_nftContractAddress] */\n      dup1\n        /* \"NFT-Contracts/contracts/market_pri/NewMarket.sol\":7851:7870  _nftContractAddress */\n      dup5\n        /* \"NFT-Contracts/contracts/market_pri/NewMarket.sol\":7830:7871  nftContractFixedSale[_nftContractAddress] */\n      0xffffffffffffffffffffffffffffffffffffffff\n      and\n      0xffffffffffffffffffffffffffffffffffffffff\n      and\n      dup2\n      mstore\n      0x20\n      add\n      swap1\n      dup2\n      mstore\n      0x20\n      add\n      0x00\n      keccak256\n        /* \"NFT-Contracts/contracts/market_pri/NewMarket.sol\":7830:7881  nftContractFixedSale[_nftContractAddress][_tokenId] */\n      0x00\n        /* \"NFT-Contracts/contracts/market_pri/NewMarket.sol\":7872:7880  _tokenId */\n      dup4\n        /* \"NFT-Contracts/contracts/market_pri/NewMarket.sol\":7830:7881  nftContractFixedSale[_nftContractAddress][_tokenId] */\n      dup2\n      mstore\n      0x20\n      add\n      swap1\n      dup2\n      mstore\n      0x20\n      add\n      0x00\n      keccak256\n        /* \"NFT-Contracts/contracts/market_pri/NewMarket.sol\":7830:7891  nftContractFixedSale[_nftContractAddress][_tokenId].salePrice */\n      0x03\n      add\n      sload\n        /* \"NFT-Contracts/contracts/market_pri/NewMarket.sol\":7800:7809  _buyPrice */\n      dup2\n        /* \"NFT-Contracts/contracts/market_pri/NewMarket.sol\":7800:7891  _buyPrice >=\r... */\n      lt\n      iszero\n        /* \"NFT-Contracts/contracts/market_pri/NewMarket.sol\":7778:7939  require(\r... */\n      tag_261\n      jumpi\n      mload(0x40)\n      0x08c379a000000000000000000000000000000000000000000000000000000000\n      dup2\n      mstore\n      0x04\n      add\n      tag_262\n      swap1\n      tag_263\n      jump\t// in\n    tag_262:\n      mload(0x40)\n      dup1\n      swap2\n      sub\n      swap1\n      revert\n    tag_261:\n        /* \"NFT-Contracts/contracts/market_pri/NewMarket.sol\":10790:10809  _nftContractAddress */\n      dup9\n        /* \"NFT-Contracts/contracts/market_pri/NewMarket.sol\":10782:10827  IERC721(_nftContractAddress).safeTransferFrom */\n      0xffffffffffffffffffffffffffffffffffffffff\n      and\n      0x42842e0e\n        /* \"NFT-Contracts/contracts/market_pri/NewMarket.sol\":10850:10854  this */\n      address\n        /* \"NFT-Contracts/contracts/market_pri/NewMarket.sol\":10870:10880  msg.sender */\n      caller\n        /* \"NFT-Contracts/contracts/market_pri/NewMarket.sol\":10895:10903  _tokenId */\n      dup12\n        /* \"NFT-Contracts/contracts/market_pri/NewMarket.sol\":10782:10914  IERC721(_nftContractAddress).safeTransferFrom(\r... */\n      mload(0x40)\n      dup5\n      0xffffffff\n      and\n      0xe0\n      shl\n      dup2\n      mstore\n      0x04\n      add\n      tag_265\n      swap4\n      swap3\n      swap2\n      swap1\n      tag_218\n      jump\t// in\n    tag_265:\n      0x00\n      mload(0x40)\n      dup1\n      dup4\n      sub\n      dup2\n      0x00\n      dup8\n      dup1\n      extcodesize\n      iszero\n      dup1\n      iszero\n      tag_266\n      jumpi\n      0x00\n      dup1\n      revert\n    tag_266:\n      pop\n      gas\n      call\n      iszero\n      dup1\n      iszero\n      tag_268\n      jumpi\n      returndatasize\n      0x00\n      dup1\n      returndatacopy\n      revert(0x00, returndatasize)\n    tag_268:\n      pop\n      pop\n      pop\n      pop\n        /* \"NFT-Contracts/contracts/market_pri/NewMarket.sol\":10974:10975  0 */\n      0x00\n        /* \"NFT-Contracts/contracts/market_pri/NewMarket.sol\":10927:10940  nftSaleStatus */\n      0x02\n        /* \"NFT-Contracts/contracts/market_pri/NewMarket.sol\":10927:10961  nftSaleStatus[_nftContractAddress] */\n      0x00\n        /* \"NFT-Contracts/contracts/market_pri/NewMarket.sol\":10941:10960  _nftContractAddress */\n      dup12\n        /* \"NFT-Contracts/contracts/market_pri/NewMarket.sol\":10927:10961  nftSaleStatus[_nftContractAddress] */\n      0xffffffffffffffffffffffffffffffffffffffff\n      and\n      0xffffffffffffffffffffffffffffffffffffffff\n      and\n      dup2\n      mstore\n      0x20\n      add\n      swap1\n      dup2\n      mstore\n      0x20\n      add\n      0x00\n      keccak256\n        /* \"NFT-Contracts/contracts/market_pri/NewMarket.sol\":10927:10971  nftSaleStatus[_nftContractAddress][_tokenId] */\n      0x00\n        /* \"NFT-Contracts/contracts/market_pri/NewMarket.sol\":10962:10970  _tokenId */\n      dup11\n        /* \"NFT-Contracts/contracts/market_pri/NewMarket.sol\":10927:10971  nftSaleStatus[_nftContractAddress][_tokenId] */\n      dup2\n      mstore\n      0x20\n      add\n      swap1\n      dup2\n      mstore\n      0x20\n      add\n      0x00\n      keccak256\n        /* \"NFT-Contracts/contracts/market_pri/NewMarket.sol\":10927:10975  nftSaleStatus[_nftContractAddress][_tokenId] = 0 */\n      dup2\n      swap1\n      sstore\n      pop\n        /* \"NFT-Contracts/contracts/market_pri/NewMarket.sol\":10993:11005  fixedSaleNFT */\n      0x05\n        /* \"NFT-Contracts/contracts/market_pri/NewMarket.sol\":11007:11024  indexFixedSaleNFT */\n      0x04\n        /* \"NFT-Contracts/contracts/market_pri/NewMarket.sol\":11007:11045  indexFixedSaleNFT[_nftContractAddress] */\n      0x00\n        /* \"NFT-Contracts/contracts/market_pri/NewMarket.sol\":11025:11044  _nftContractAddress */\n      dup12\n        /* \"NFT-Contracts/contracts/market_pri/NewMarket.sol\":11007:11045  indexFixedSaleNFT[_nftContractAddress] */\n      0xffffffffffffffffffffffffffffffffffffffff\n      and\n      0xffffffffffffffffffffffffffffffffffffffff\n      and\n      dup2\n      mstore\n      0x20\n      add\n      swap1\n      dup2\n      mstore\n      0x20\n      add\n      0x00\n      keccak256\n        /* \"NFT-Contracts/contracts/market_pri/NewMarket.sol\":11007:11055  indexFixedSaleNFT[_nftContractAddress][_tokenId] */\n      0x00\n        /* \"NFT-Contracts/contracts/market_pri/NewMarket.sol\":11046:11054  _tokenId */\n      dup11\n        /* \"NFT-Contracts/contracts/market_pri/NewMarket.sol\":11007:11055  indexFixedSaleNFT[_nftContractAddress][_tokenId] */\n      dup2\n      mstore\n      0x20\n      add\n      swap1\n      dup2\n      mstore\n      0x20\n      add\n      0x00\n      keccak256\n      sload\n        /* \"NFT-Contracts/contracts/market_pri/NewMarket.sol\":10993:11057  fixedSaleNFT[(indexFixedSaleNFT[_nftContractAddress][_tokenId])] */\n      dup2\n      sload\n      dup2\n      lt\n      tag_269\n      jumpi\n      mstore(0x00, 0x4e487b7100000000000000000000000000000000000000000000000000000000)\n      mstore(0x04, 0x32)\n      revert(0x00, 0x24)\n    tag_269:\n      swap1\n      0x00\n      mstore\n      keccak256(0x00, 0x20)\n      swap1\n      0x02\n      mul\n      add\n      0x00\n        /* \"NFT-Contracts/contracts/market_pri/NewMarket.sol\":10986:11057  delete fixedSaleNFT[(indexFixedSaleNFT[_nftContractAddress][_tokenId])] */\n      dup1\n      dup3\n      add\n      exp(0x0100, 0x00)\n      dup2\n      sload\n      swap1\n      0xffffffffffffffffffffffffffffffffffffffff\n      mul\n      not\n      and\n      swap1\n      sstore\n      0x01\n      dup3\n      add\n      0x00\n      swap1\n      sstore\n      pop\n      pop\n        /* \"NFT-Contracts/contracts/market_pri/NewMarket.sol\":11133:11157  msg\r... */\n      caller\n        /* \"NFT-Contracts/contracts/market_pri/NewMarket.sol\":11070:11090  nftContractFixedSale */\n      0x00\n        /* \"NFT-Contracts/contracts/market_pri/NewMarket.sol\":11070:11111  nftContractFixedSale[_nftContractAddress] */\n      dup1\n        /* \"NFT-Contracts/contracts/market_pri/NewMarket.sol\":11091:11110  _nftContractAddress */\n      dup12\n        /* \"NFT-Contracts/contracts/market_pri/NewMarket.sol\":11070:11111  nftContractFixedSale[_nftContractAddress] */\n      0xffffffffffffffffffffffffffffffffffffffff\n      and\n      0xffffffffffffffffffffffffffffffffffffffff\n      and\n      dup2\n      mstore\n      0x20\n      add\n      swap1\n      dup2\n      mstore\n      0x20\n      add\n      0x00\n      keccak256\n        /* \"NFT-Contracts/contracts/market_pri/NewMarket.sol\":11070:11121  nftContractFixedSale[_nftContractAddress][_tokenId] */\n      0x00\n        /* \"NFT-Contracts/contracts/market_pri/NewMarket.sol\":11112:11120  _tokenId */\n      dup11\n        /* \"NFT-Contracts/contracts/market_pri/NewMarket.sol\":11070:11121  nftContractFixedSale[_nftContractAddress][_tokenId] */\n      dup2\n      mstore\n      0x20\n      add\n      swap1\n      dup2\n      mstore\n      0x20\n      add\n      0x00\n      keccak256\n        /* \"NFT-Contracts/contracts/market_pri/NewMarket.sol\":11070:11130  nftContractFixedSale[_nftContractAddress][_tokenId].nftBuyer */\n      0x01\n      add\n      0x00\n        /* \"NFT-Contracts/contracts/market_pri/NewMarket.sol\":11070:11157  nftContractFixedSale[_nftContractAddress][_tokenId].nftBuyer = msg\r... */\n      0x0100\n      exp\n      dup2\n      sload\n      dup2\n      0xffffffffffffffffffffffffffffffffffffffff\n      mul\n      not\n      and\n      swap1\n      dup4\n      0xffffffffffffffffffffffffffffffffffffffff\n      and\n      mul\n      or\n      swap1\n      sstore\n      pop\n        /* \"NFT-Contracts/contracts/market_pri/NewMarket.sol\":11170:11419  _isTokenOrCoin(\r... */\n      tag_271\n        /* \"NFT-Contracts/contracts/market_pri/NewMarket.sol\":11199:11219  nftContractFixedSale */\n      0x00\n        /* \"NFT-Contracts/contracts/market_pri/NewMarket.sol\":11199:11240  nftContractFixedSale[_nftContractAddress] */\n      dup1\n        /* \"NFT-Contracts/contracts/market_pri/NewMarket.sol\":11220:11239  _nftContractAddress */\n      dup12\n        /* \"NFT-Contracts/contracts/market_pri/NewMarket.sol\":11199:11240  nftContractFixedSale[_nftContractAddress] */\n      0xffffffffffffffffffffffffffffffffffffffff\n      and\n      0xffffffffffffffffffffffffffffffffffffffff\n      and\n      dup2\n      mstore\n      0x20\n      add\n      swap1\n      dup2\n      mstore\n      0x20\n      add\n      0x00\n      keccak256\n        /* \"NFT-Contracts/contracts/market_pri/NewMarket.sol\":11199:11250  nftContractFixedSale[_nftContractAddress][_tokenId] */\n      0x00\n        /* \"NFT-Contracts/contracts/market_pri/NewMarket.sol\":11241:11249  _tokenId */\n      dup11\n        /* \"NFT-Contracts/contracts/market_pri/NewMarket.sol\":11199:11250  nftContractFixedSale[_nftContractAddress][_tokenId] */\n      dup2\n      mstore\n      0x20\n      add\n      swap1\n      dup2\n      mstore\n      0x20\n      add\n      0x00\n      keccak256\n        /* \"NFT-Contracts/contracts/market_pri/NewMarket.sol\":11199:11260  nftContractFixedSale[_nftContractAddress][_tokenId].nftSeller */\n      0x00\n      add\n      0x00\n      swap1\n      sload\n      swap1\n      0x0100\n      exp\n      swap1\n      div\n      0xffffffffffffffffffffffffffffffffffffffff\n      and\n        /* \"NFT-Contracts/contracts/market_pri/NewMarket.sol\":11275:11295  nftContractFixedSale */\n      0x00\n        /* \"NFT-Contracts/contracts/market_pri/NewMarket.sol\":11275:11316  nftContractFixedSale[_nftContractAddress] */\n      dup1\n        /* \"NFT-Contracts/contracts/market_pri/NewMarket.sol\":11296:11315  _nftContractAddress */\n      dup13\n        /* \"NFT-Contracts/contracts/market_pri/NewMarket.sol\":11275:11316  nftContractFixedSale[_nftContractAddress] */\n      0xffffffffffffffffffffffffffffffffffffffff\n      and\n      0xffffffffffffffffffffffffffffffffffffffff\n      and\n      dup2\n      mstore\n      0x20\n      add\n      swap1\n      dup2\n      mstore\n      0x20\n      add\n      0x00\n      keccak256\n        /* \"NFT-Contracts/contracts/market_pri/NewMarket.sol\":11275:11326  nftContractFixedSale[_nftContractAddress][_tokenId] */\n      0x00\n        /* \"NFT-Contracts/contracts/market_pri/NewMarket.sol\":11317:11325  _tokenId */\n      dup12\n        /* \"NFT-Contracts/contracts/market_pri/NewMarket.sol\":11275:11326  nftContractFixedSale[_nftContractAddress][_tokenId] */\n      dup2\n      mstore\n      0x20\n      add\n      swap1\n      dup2\n      mstore\n      0x20\n      add\n      0x00\n      keccak256\n        /* \"NFT-Contracts/contracts/market_pri/NewMarket.sol\":11275:11332  nftContractFixedSale[_nftContractAddress][_tokenId].erc20 */\n      0x02\n      add\n      0x00\n      swap1\n      sload\n      swap1\n      0x0100\n      exp\n      swap1\n      div\n      0xffffffffffffffffffffffffffffffffffffffff\n      and\n        /* \"NFT-Contracts/contracts/market_pri/NewMarket.sol\":11347:11367  nftContractFixedSale */\n      0x00\n        /* \"NFT-Contracts/contracts/market_pri/NewMarket.sol\":11347:11388  nftContractFixedSale[_nftContractAddress] */\n      dup1\n        /* \"NFT-Contracts/contracts/market_pri/NewMarket.sol\":11368:11387  _nftContractAddress */\n      dup14\n        /* \"NFT-Contracts/contracts/market_pri/NewMarket.sol\":11347:11388  nftContractFixedSale[_nftContractAddress] */\n      0xffffffffffffffffffffffffffffffffffffffff\n      and\n      0xffffffffffffffffffffffffffffffffffffffff\n      and\n      dup2\n      mstore\n      0x20\n      add\n      swap1\n      dup2\n      mstore\n      0x20\n      add\n      0x00\n      keccak256\n        /* \"NFT-Contracts/contracts/market_pri/NewMarket.sol\":11347:11398  nftContractFixedSale[_nftContractAddress][_tokenId] */\n      0x00\n        /* \"NFT-Contracts/contracts/market_pri/NewMarket.sol\":11389:11397  _tokenId */\n      dup13\n        /* \"NFT-Contracts/contracts/market_pri/NewMarket.sol\":11347:11398  nftContractFixedSale[_nftContractAddress][_tokenId] */\n      dup2\n      mstore\n      0x20\n      add\n      swap1\n      dup2\n      mstore\n      0x20\n      add\n      0x00\n      keccak256\n        /* \"NFT-Contracts/contracts/market_pri/NewMarket.sol\":11347:11408  nftContractFixedSale[_nftContractAddress][_tokenId].salePrice */\n      0x03\n      add\n      sload\n        /* \"NFT-Contracts/contracts/market_pri/NewMarket.sol\":11170:11184  _isTokenOrCoin */\n      tag_272\n        /* \"NFT-Contracts/contracts/market_pri/NewMarket.sol\":11170:11419  _isTokenOrCoin(\r... */\n      jump\t// in\n    tag_271:\n        /* \"NFT-Contracts/contracts/market_pri/NewMarket.sol\":11437:11571  NftBuyFromFixedSale(\r... */\n      0x9fa3b1bb9266e05722b54a7a564d02a274bc80d39f4af21e6be405480996ceba\n        /* \"NFT-Contracts/contracts/market_pri/NewMarket.sol\":11471:11490  _nftContractAddress */\n      dup10\n        /* \"NFT-Contracts/contracts/market_pri/NewMarket.sol\":11505:11515  msg.sender */\n      caller\n        /* \"NFT-Contracts/contracts/market_pri/NewMarket.sol\":11530:11538  _tokenId */\n      dup11\n        /* \"NFT-Contracts/contracts/market_pri/NewMarket.sol\":11553:11560  _amount */\n      dup11\n        /* \"NFT-Contracts/contracts/market_pri/NewMarket.sol\":11437:11571  NftBuyFromFixedSale(\r... */\n      mload(0x40)\n      tag_273\n      swap5\n      swap4\n      swap3\n      swap2\n      swap1\n      tag_274\n      jump\t// in\n    tag_273:\n      mload(0x40)\n      dup1\n      swap2\n      sub\n      swap1\n      log1\n        /* \"NFT-Contracts/contracts/market_pri/NewMarket.sol\":8075:8076  _ */\n      pop\n      pop\n      pop\n        /* \"NFT-Contracts/contracts/market_pri/NewMarket.sol\":3619:3620  _ */\n      pop\n        /* \"NFT-Contracts/contracts/market_pri/NewMarket.sol\":10440:11579  function buyFromFixedSale(\r... */\n      pop\n      pop\n      pop\n      pop\n      pop\n      jump\t// out\n        /* \"NFT-Contracts/contracts/market_pri/NewMarket.sol\":11614:12505  function createNftAuctionSale(\r... */\n    tag_96:\n        /* \"NFT-Contracts/contracts/market_pri/NewMarket.sol\":11877:11896  _nftContractAddress */\n      dup6\n        /* \"NFT-Contracts/contracts/market_pri/NewMarket.sol\":11898:11906  _tokenId */\n      dup5\n        /* \"NFT-Contracts/contracts/market_pri/NewMarket.sol\":4002:4021  _nftContractAddress */\n      dup2\n        /* \"NFT-Contracts/contracts/market_pri/NewMarket.sol\":3994:4030  IERC721(_nftContractAddress).ownerOf */\n      0xffffffffffffffffffffffffffffffffffffffff\n      and\n      0x6352211e\n        /* \"NFT-Contracts/contracts/market_pri/NewMarket.sol\":4031:4039  _tokenId */\n      dup3\n        /* \"NFT-Contracts/contracts/market_pri/NewMarket.sol\":3994:4040  IERC721(_nftContractAddress).ownerOf(_tokenId) */\n      mload(0x40)\n      dup3\n      0xffffffff\n      and\n      0xe0\n      shl\n      dup2\n      mstore\n      0x04\n      add\n      tag_276\n      swap2\n      swap1\n      tag_56\n      jump\t// in\n    tag_276:\n      0x20\n      mload(0x40)\n      dup1\n      dup4\n      sub\n      dup2\n      dup7\n      dup1\n      extcodesize\n      iszero\n      dup1\n      iszero\n      tag_277\n      jumpi\n      0x00\n      dup1\n      revert\n    tag_277:\n      pop\n      gas\n      staticcall\n      iszero\n      dup1\n      iszero\n      tag_279\n      jumpi\n      returndatasize\n      0x00\n      dup1\n      returndatacopy\n      revert(0x00, returndatasize)\n    tag_279:\n      pop\n      pop\n      pop\n      pop\n      mload(0x40)\n      returndatasize\n      not(0x1f)\n      0x1f\n      dup3\n      add\n      and\n      dup3\n      add\n      dup1\n      0x40\n      mstore\n      pop\n      dup2\n      add\n      swap1\n      tag_280\n      swap2\n      swap1\n      tag_194\n      jump\t// in\n    tag_280:\n        /* \"NFT-Contracts/contracts/market_pri/NewMarket.sol\":3980:4040  msg.sender == IERC721(_nftContractAddress).ownerOf(_tokenId) */\n      0xffffffffffffffffffffffffffffffffffffffff\n      and\n        /* \"NFT-Contracts/contracts/market_pri/NewMarket.sol\":3980:3990  msg.sender */\n      caller\n        /* \"NFT-Contracts/contracts/market_pri/NewMarket.sol\":3980:4040  msg.sender == IERC721(_nftContractAddress).ownerOf(_tokenId) */\n      0xffffffffffffffffffffffffffffffffffffffff\n      and\n      eq\n        /* \"NFT-Contracts/contracts/market_pri/NewMarket.sol\":3958:4089  require(\r... */\n      tag_281\n      jumpi\n      mload(0x40)\n      0x08c379a000000000000000000000000000000000000000000000000000000000\n      dup2\n      mstore\n      0x04\n      add\n      tag_282\n      swap1\n      tag_157\n      jump\t// in\n    tag_282:\n      mload(0x40)\n      dup1\n      swap2\n      sub\n      swap1\n      revert\n    tag_281:\n        /* \"NFT-Contracts/contracts/market_pri/NewMarket.sol\":11936:11955  _nftContractAddress */\n      dup8\n        /* \"NFT-Contracts/contracts/market_pri/NewMarket.sol\":11957:11965  _tokenId */\n      dup7\n        /* \"NFT-Contracts/contracts/market_pri/NewMarket.sol\":3328:3329  0 */\n      0x00\n        /* \"NFT-Contracts/contracts/market_pri/NewMarket.sol\":3280:3293  nftSaleStatus */\n      0x02\n        /* \"NFT-Contracts/contracts/market_pri/NewMarket.sol\":3280:3314  nftSaleStatus[_nftContractAddress] */\n      0x00\n        /* \"NFT-Contracts/contracts/market_pri/NewMarket.sol\":3294:3313  _nftContractAddress */\n      dup5\n        /* \"NFT-Contracts/contracts/market_pri/NewMarket.sol\":3280:3314  nftSaleStatus[_nftContractAddress] */\n      0xffffffffffffffffffffffffffffffffffffffff\n      and\n      0xffffffffffffffffffffffffffffffffffffffff\n      and\n      dup2\n      mstore\n      0x20\n      add\n      swap1\n      dup2\n      mstore\n      0x20\n      add\n      0x00\n      keccak256\n        /* \"NFT-Contracts/contracts/market_pri/NewMarket.sol\":3280:3324  nftSaleStatus[_nftContractAddress][_tokenId] */\n      0x00\n        /* \"NFT-Contracts/contracts/market_pri/NewMarket.sol\":3315:3323  _tokenId */\n      dup4\n        /* \"NFT-Contracts/contracts/market_pri/NewMarket.sol\":3280:3324  nftSaleStatus[_nftContractAddress][_tokenId] */\n      dup2\n      mstore\n      0x20\n      add\n      swap1\n      dup2\n      mstore\n      0x20\n      add\n      0x00\n      keccak256\n      sload\n        /* \"NFT-Contracts/contracts/market_pri/NewMarket.sol\":3280:3329  nftSaleStatus[_nftContractAddress][_tokenId] == 0 */\n      eq\n        /* \"NFT-Contracts/contracts/market_pri/NewMarket.sol\":3258:3376  require(\r... */\n      tag_284\n      jumpi\n      mload(0x40)\n      0x08c379a000000000000000000000000000000000000000000000000000000000\n      dup2\n      mstore\n      0x04\n      add\n      tag_285\n      swap1\n      tag_200\n      jump\t// in\n    tag_285:\n      mload(0x40)\n      dup1\n      swap2\n      sub\n      swap1\n      revert\n    tag_284:\n        /* \"NFT-Contracts/contracts/market_pri/NewMarket.sol\":11994:12013  _nftContractAddress */\n      dup10\n        /* \"NFT-Contracts/contracts/market_pri/NewMarket.sol\":12015:12023  _tokenId */\n      dup9\n        /* \"NFT-Contracts/contracts/market_pri/NewMarket.sol\":4509:4528  _nftContractAddress */\n      dup2\n        /* \"NFT-Contracts/contracts/market_pri/NewMarket.sol\":4501:4546  IERC721(_nftContractAddress).isApprovedForAll */\n      0xffffffffffffffffffffffffffffffffffffffff\n      and\n      0xe985e9c5\n        /* \"NFT-Contracts/contracts/market_pri/NewMarket.sol\":4565:4575  msg.sender */\n      caller\n        /* \"NFT-Contracts/contracts/market_pri/NewMarket.sol\":4602:4606  this */\n      address\n        /* \"NFT-Contracts/contracts/market_pri/NewMarket.sol\":4501:4622  IERC721(_nftContractAddress).isApprovedForAll(\r... */\n      mload(0x40)\n      dup4\n      0xffffffff\n      and\n      0xe0\n      shl\n      dup2\n      mstore\n      0x04\n      add\n      tag_287\n      swap3\n      swap2\n      swap1\n      tag_203\n      jump\t// in\n    tag_287:\n      0x20\n      mload(0x40)\n      dup1\n      dup4\n      sub\n      dup2\n      dup7\n      dup1\n      extcodesize\n      iszero\n      dup1\n      iszero\n      tag_288\n      jumpi\n      0x00\n      dup1\n      revert\n    tag_288:\n      pop\n      gas\n      staticcall\n      iszero\n      dup1\n      iszero\n      tag_290\n      jumpi\n      returndatasize\n      0x00\n      dup1\n      returndatacopy\n      revert(0x00, returndatasize)\n    tag_290:\n      pop\n      pop\n      pop\n      pop\n      mload(0x40)\n      returndatasize\n      not(0x1f)\n      0x1f\n      dup3\n      add\n      and\n      dup3\n      add\n      dup1\n      0x40\n      mstore\n      pop\n      dup2\n      add\n      swap1\n      tag_291\n      swap2\n      swap1\n      tag_208\n      jump\t// in\n    tag_291:\n        /* \"NFT-Contracts/contracts/market_pri/NewMarket.sol\":4479:4678  require(\r... */\n      tag_292\n      jumpi\n      mload(0x40)\n      0x08c379a000000000000000000000000000000000000000000000000000000000\n      dup2\n      mstore\n      0x04\n      add\n      tag_293\n      swap1\n      tag_211\n      jump\t// in\n    tag_293:\n      mload(0x40)\n      dup1\n      swap2\n      sub\n      swap1\n      revert\n    tag_292:\n        /* \"NFT-Contracts/contracts/market_pri/NewMarket.sol\":12055:12064  _minPrice */\n      dup7\n        /* \"NFT-Contracts/contracts/market_pri/NewMarket.sol\":8041:8042  0 */\n      0x00\n        /* \"NFT-Contracts/contracts/market_pri/NewMarket.sol\":8032:8038  _price */\n      dup2\n        /* \"NFT-Contracts/contracts/market_pri/NewMarket.sol\":8032:8042  _price > 0 */\n      gt\n        /* \"NFT-Contracts/contracts/market_pri/NewMarket.sol\":8024:8064  require(_price > 0, \"Price cannot be 0\") */\n      tag_295\n      jumpi\n      mload(0x40)\n      0x08c379a000000000000000000000000000000000000000000000000000000000\n      dup2\n      mstore\n      0x04\n      add\n      tag_296\n      swap1\n      tag_113\n      jump\t// in\n    tag_296:\n      mload(0x40)\n      dup1\n      swap2\n      sub\n      swap1\n      revert\n    tag_295:\n        /* \"NFT-Contracts/contracts/market_pri/NewMarket.sol\":12082:12273  _storedNftAuctionDetails(\r... */\n      tag_298\n        /* \"NFT-Contracts/contracts/market_pri/NewMarket.sol\":12121:12140  _nftContractAddress */\n      dup14\n        /* \"NFT-Contracts/contracts/market_pri/NewMarket.sol\":12155:12161  _erc20 */\n      dup14\n        /* \"NFT-Contracts/contracts/market_pri/NewMarket.sol\":12176:12184  _tokenId */\n      dup14\n        /* \"NFT-Contracts/contracts/market_pri/NewMarket.sol\":12199:12212  _auctionStart */\n      dup14\n        /* \"NFT-Contracts/contracts/market_pri/NewMarket.sol\":12227:12238  _auctionEnd */\n      dup14\n        /* \"NFT-Contracts/contracts/market_pri/NewMarket.sol\":12253:12262  _minPrice */\n      dup14\n        /* \"NFT-Contracts/contracts/market_pri/NewMarket.sol\":12082:12106  _storedNftAuctionDetails */\n      tag_299\n        /* \"NFT-Contracts/contracts/market_pri/NewMarket.sol\":12082:12273  _storedNftAuctionDetails(\r... */\n      jump\t// in\n    tag_298:\n        /* \"NFT-Contracts/contracts/market_pri/NewMarket.sol\":12291:12497  NftAuctionSale(\r... */\n      0xecbc6a097da08dbf6f781ce204aad454ce3dc8f112c51c7a56f1671de89cee8c\n        /* \"NFT-Contracts/contracts/market_pri/NewMarket.sol\":12320:12339  _nftContractAddress */\n      dup14\n        /* \"NFT-Contracts/contracts/market_pri/NewMarket.sol\":12354:12364  msg.sender */\n      caller\n        /* \"NFT-Contracts/contracts/market_pri/NewMarket.sol\":12379:12385  _erc20 */\n      dup15\n        /* \"NFT-Contracts/contracts/market_pri/NewMarket.sol\":12400:12408  _tokenId */\n      dup15\n        /* \"NFT-Contracts/contracts/market_pri/NewMarket.sol\":12423:12436  _auctionStart */\n      dup15\n        /* \"NFT-Contracts/contracts/market_pri/NewMarket.sol\":12451:12462  _auctionEnd */\n      dup15\n        /* \"NFT-Contracts/contracts/market_pri/NewMarket.sol\":12477:12486  _minPrice */\n      dup15\n        /* \"NFT-Contracts/contracts/market_pri/NewMarket.sol\":12291:12497  NftAuctionSale(\r... */\n      mload(0x40)\n      tag_300\n      swap8\n      swap7\n      swap6\n      swap5\n      swap4\n      swap3\n      swap2\n      swap1\n      tag_301\n      jump\t// in\n    tag_300:\n      mload(0x40)\n      dup1\n      swap2\n      sub\n      swap1\n      log1\n        /* \"NFT-Contracts/contracts/market_pri/NewMarket.sol\":4689:4690  _ */\n      pop\n        /* \"NFT-Contracts/contracts/market_pri/NewMarket.sol\":3387:3388  _ */\n      pop\n      pop\n        /* \"NFT-Contracts/contracts/market_pri/NewMarket.sol\":4100:4101  _ */\n      pop\n      pop\n        /* \"NFT-Contracts/contracts/market_pri/NewMarket.sol\":11614:12505  function createNftAuctionSale(\r... */\n      pop\n      pop\n      pop\n      pop\n      pop\n      pop\n      pop\n      pop\n      jump\t// out\n        /* \"NFT-Contracts/contracts/market_pri/NewMarket.sol\":9260:9846  function cancelFixedsale(address _nftContractAddress, uint256 _tokenId)\r... */\n    tag_100:\n        /* \"NFT-Contracts/contracts/market_pri/NewMarket.sol\":9376:9395  _nftContractAddress */\n      dup2\n        /* \"NFT-Contracts/contracts/market_pri/NewMarket.sol\":9397:9405  _tokenId */\n      dup2\n        /* \"NFT-Contracts/contracts/market_pri/NewMarket.sol\":3558:3559  1 */\n      0x01\n        /* \"NFT-Contracts/contracts/market_pri/NewMarket.sol\":3510:3523  nftSaleStatus */\n      0x02\n        /* \"NFT-Contracts/contracts/market_pri/NewMarket.sol\":3510:3544  nftSaleStatus[_nftContractAddress] */\n      0x00\n        /* \"NFT-Contracts/contracts/market_pri/NewMarket.sol\":3524:3543  _nftContractAddress */\n      dup5\n        /* \"NFT-Contracts/contracts/market_pri/NewMarket.sol\":3510:3544  nftSaleStatus[_nftContractAddress] */\n      0xffffffffffffffffffffffffffffffffffffffff\n      and\n      0xffffffffffffffffffffffffffffffffffffffff\n      and\n      dup2\n      mstore\n      0x20\n      add\n      swap1\n      dup2\n      mstore\n      0x20\n      add\n      0x00\n      keccak256\n        /* \"NFT-Contracts/contracts/market_pri/NewMarket.sol\":3510:3554  nftSaleStatus[_nftContractAddress][_tokenId] */\n      0x00\n        /* \"NFT-Contracts/contracts/market_pri/NewMarket.sol\":3545:3553  _tokenId */\n      dup4\n        /* \"NFT-Contracts/contracts/market_pri/NewMarket.sol\":3510:3554  nftSaleStatus[_nftContractAddress][_tokenId] */\n      dup2\n      mstore\n      0x20\n      add\n      swap1\n      dup2\n      mstore\n      0x20\n      add\n      0x00\n      keccak256\n      sload\n        /* \"NFT-Contracts/contracts/market_pri/NewMarket.sol\":3510:3559  nftSaleStatus[_nftContractAddress][_tokenId] == 1 */\n      eq\n        /* \"NFT-Contracts/contracts/market_pri/NewMarket.sol\":3488:3608  require(\r... */\n      tag_303\n      jumpi\n      mload(0x40)\n      0x08c379a000000000000000000000000000000000000000000000000000000000\n      dup2\n      mstore\n      0x04\n      add\n      tag_304\n      swap1\n      tag_153\n      jump\t// in\n    tag_304:\n      mload(0x40)\n      dup1\n      swap2\n      sub\n      swap1\n      revert\n    tag_303:\n        /* \"NFT-Contracts/contracts/market_pri/NewMarket.sol\":9435:9454  _nftContractAddress */\n      dup4\n        /* \"NFT-Contracts/contracts/market_pri/NewMarket.sol\":9456:9464  _tokenId */\n      dup4\n        /* \"NFT-Contracts/contracts/market_pri/NewMarket.sol\":4256:4276  nftContractFixedSale */\n      0x00\n        /* \"NFT-Contracts/contracts/market_pri/NewMarket.sol\":4256:4297  nftContractFixedSale[_nftContractAddress] */\n      dup1\n        /* \"NFT-Contracts/contracts/market_pri/NewMarket.sol\":4277:4296  _nftContractAddress */\n      dup4\n        /* \"NFT-Contracts/contracts/market_pri/NewMarket.sol\":4256:4297  nftContractFixedSale[_nftContractAddress] */\n      0xffffffffffffffffffffffffffffffffffffffff\n      and\n      0xffffffffffffffffffffffffffffffffffffffff\n      and\n      dup2\n      mstore\n      0x20\n      add\n      swap1\n      dup2\n      mstore\n      0x20\n      add\n      0x00\n      keccak256\n        /* \"NFT-Contracts/contracts/market_pri/NewMarket.sol\":4256:4307  nftContractFixedSale[_nftContractAddress][_tokenId] */\n      0x00\n        /* \"NFT-Contracts/contracts/market_pri/NewMarket.sol\":4298:4306  _tokenId */\n      dup3\n        /* \"NFT-Contracts/contracts/market_pri/NewMarket.sol\":4256:4307  nftContractFixedSale[_nftContractAddress][_tokenId] */\n      dup2\n      mstore\n      0x20\n      add\n      swap1\n      dup2\n      mstore\n      0x20\n      add\n      0x00\n      keccak256\n        /* \"NFT-Contracts/contracts/market_pri/NewMarket.sol\":4256:4317  nftContractFixedSale[_nftContractAddress][_tokenId].nftSeller */\n      0x00\n      add\n      0x00\n      swap1\n      sload\n      swap1\n      0x0100\n      exp\n      swap1\n      div\n      0xffffffffffffffffffffffffffffffffffffffff\n      and\n        /* \"NFT-Contracts/contracts/market_pri/NewMarket.sol\":4225:4317  msg.sender ==\r... */\n      0xffffffffffffffffffffffffffffffffffffffff\n      and\n        /* \"NFT-Contracts/contracts/market_pri/NewMarket.sol\":4225:4235  msg.sender */\n      caller\n        /* \"NFT-Contracts/contracts/market_pri/NewMarket.sol\":4225:4317  msg.sender ==\r... */\n      0xffffffffffffffffffffffffffffffffffffffff\n      and\n      eq\n        /* \"NFT-Contracts/contracts/market_pri/NewMarket.sol\":4203:4366  require(\r... */\n      tag_306\n      jumpi\n      mload(0x40)\n      0x08c379a000000000000000000000000000000000000000000000000000000000\n      dup2\n      mstore\n      0x04\n      add\n      tag_307\n      swap1\n      tag_157\n      jump\t// in\n    tag_307:\n      mload(0x40)\n      dup1\n      swap2\n      sub\n      swap1\n      revert\n    tag_306:\n        /* \"NFT-Contracts/contracts/market_pri/NewMarket.sol\":9490:9509  _nftContractAddress */\n      dup6\n        /* \"NFT-Contracts/contracts/market_pri/NewMarket.sol\":9482:9527  IERC721(_nftContractAddress).safeTransferFrom */\n      0xffffffffffffffffffffffffffffffffffffffff\n      and\n      0x42842e0e\n        /* \"NFT-Contracts/contracts/market_pri/NewMarket.sol\":9550:9554  this */\n      address\n        /* \"NFT-Contracts/contracts/market_pri/NewMarket.sol\":9570:9580  msg.sender */\n      caller\n        /* \"NFT-Contracts/contracts/market_pri/NewMarket.sol\":9595:9603  _tokenId */\n      dup9\n        /* \"NFT-Contracts/contracts/market_pri/NewMarket.sol\":9482:9614  IERC721(_nftContractAddress).safeTransferFrom(\r... */\n      mload(0x40)\n      dup5\n      0xffffffff\n      and\n      0xe0\n      shl\n      dup2\n      mstore\n      0x04\n      add\n      tag_309\n      swap4\n      swap3\n      swap2\n      swap1\n      tag_218\n      jump\t// in\n    tag_309:\n      0x00\n      mload(0x40)\n      dup1\n      dup4\n      sub\n      dup2\n      0x00\n      dup8\n      dup1\n      extcodesize\n      iszero\n      dup1\n      iszero\n      tag_310\n      jumpi\n      0x00\n      dup1\n      revert\n    tag_310:\n      pop\n      gas\n      call\n      iszero\n      dup1\n      iszero\n      tag_312\n      jumpi\n      returndatasize\n      0x00\n      dup1\n      returndatacopy\n      revert(0x00, returndatasize)\n    tag_312:\n      pop\n      pop\n      pop\n      pop\n        /* \"NFT-Contracts/contracts/market_pri/NewMarket.sol\":9674:9675  0 */\n      0x00\n        /* \"NFT-Contracts/contracts/market_pri/NewMarket.sol\":9627:9640  nftSaleStatus */\n      0x02\n        /* \"NFT-Contracts/contracts/market_pri/NewMarket.sol\":9627:9661  nftSaleStatus[_nftContractAddress] */\n      0x00\n        /* \"NFT-Contracts/contracts/market_pri/NewMarket.sol\":9641:9660  _nftContractAddress */\n      dup9\n        /* \"NFT-Contracts/contracts/market_pri/NewMarket.sol\":9627:9661  nftSaleStatus[_nftContractAddress] */\n      0xffffffffffffffffffffffffffffffffffffffff\n      and\n      0xffffffffffffffffffffffffffffffffffffffff\n      and\n      dup2\n      mstore\n      0x20\n      add\n      swap1\n      dup2\n      mstore\n      0x20\n      add\n      0x00\n      keccak256\n        /* \"NFT-Contracts/contracts/market_pri/NewMarket.sol\":9627:9671  nftSaleStatus[_nftContractAddress][_tokenId] */\n      0x00\n        /* \"NFT-Contracts/contracts/market_pri/NewMarket.sol\":9662:9670  _tokenId */\n      dup8\n        /* \"NFT-Contracts/contracts/market_pri/NewMarket.sol\":9627:9671  nftSaleStatus[_nftContractAddress][_tokenId] */\n      dup2\n      mstore\n      0x20\n      add\n      swap1\n      dup2\n      mstore\n      0x20\n      add\n      0x00\n      keccak256\n        /* \"NFT-Contracts/contracts/market_pri/NewMarket.sol\":9627:9675  nftSaleStatus[_nftContractAddress][_tokenId] = 0 */\n      dup2\n      swap1\n      sstore\n      pop\n        /* \"NFT-Contracts/contracts/market_pri/NewMarket.sol\":9695:9707  fixedSaleNFT */\n      0x05\n        /* \"NFT-Contracts/contracts/market_pri/NewMarket.sol\":9709:9726  indexFixedSaleNFT */\n      0x04\n        /* \"NFT-Contracts/contracts/market_pri/NewMarket.sol\":9709:9747  indexFixedSaleNFT[_nftContractAddress] */\n      0x00\n        /* \"NFT-Contracts/contracts/market_pri/NewMarket.sol\":9727:9746  _nftContractAddress */\n      dup9\n        /* \"NFT-Contracts/contracts/market_pri/NewMarket.sol\":9709:9747  indexFixedSaleNFT[_nftContractAddress] */\n      0xffffffffffffffffffffffffffffffffffffffff\n      and\n      0xffffffffffffffffffffffffffffffffffffffff\n      and\n      dup2\n      mstore\n      0x20\n      add\n      swap1\n      dup2\n      mstore\n      0x20\n      add\n      0x00\n      keccak256\n        /* \"NFT-Contracts/contracts/market_pri/NewMarket.sol\":9709:9757  indexFixedSaleNFT[_nftContractAddress][_tokenId] */\n      0x00\n        /* \"NFT-Contracts/contracts/market_pri/NewMarket.sol\":9748:9756  _tokenId */\n      dup8\n        /* \"NFT-Contracts/contracts/market_pri/NewMarket.sol\":9709:9757  indexFixedSaleNFT[_nftContractAddress][_tokenId] */\n      dup2\n      mstore\n      0x20\n      add\n      swap1\n      dup2\n      mstore\n      0x20\n      add\n      0x00\n      keccak256\n      sload\n        /* \"NFT-Contracts/contracts/market_pri/NewMarket.sol\":9695:9759  fixedSaleNFT[(indexFixedSaleNFT[_nftContractAddress][_tokenId])] */\n      dup2\n      sload\n      dup2\n      lt\n      tag_313\n      jumpi\n      mstore(0x00, 0x4e487b7100000000000000000000000000000000000000000000000000000000)\n      mstore(0x04, 0x32)\n      revert(0x00, 0x24)\n    tag_313:\n      swap1\n      0x00\n      mstore\n      keccak256(0x00, 0x20)\n      swap1\n      0x02\n      mul\n      add\n      0x00\n        /* \"NFT-Contracts/contracts/market_pri/NewMarket.sol\":9688:9759  delete fixedSaleNFT[(indexFixedSaleNFT[_nftContractAddress][_tokenId])] */\n      dup1\n      dup3\n      add\n      exp(0x0100, 0x00)\n      dup2\n      sload\n      swap1\n      0xffffffffffffffffffffffffffffffffffffffff\n      mul\n      not\n      and\n      swap1\n      sstore\n      0x01\n      dup3\n      add\n      0x00\n      swap1\n      sstore\n      pop\n      pop\n        /* \"NFT-Contracts/contracts/market_pri/NewMarket.sol\":9777:9838  CancelNftFixedSale(_nftContractAddress, msg.sender, _tokenId) */\n      0xd7348ff00cf381a884144b50b3441398a48a7974ec349287df80e18cec9f5a31\n        /* \"NFT-Contracts/contracts/market_pri/NewMarket.sol\":9796:9815  _nftContractAddress */\n      dup7\n        /* \"NFT-Contracts/contracts/market_pri/NewMarket.sol\":9817:9827  msg.sender */\n      caller\n        /* \"NFT-Contracts/contracts/market_pri/NewMarket.sol\":9829:9837  _tokenId */\n      dup8\n        /* \"NFT-Contracts/contracts/market_pri/NewMarket.sol\":9777:9838  CancelNftFixedSale(_nftContractAddress, msg.sender, _tokenId) */\n      mload(0x40)\n      tag_315\n      swap4\n      swap3\n      swap2\n      swap1\n      tag_218\n      jump\t// in\n    tag_315:\n      mload(0x40)\n      dup1\n      swap2\n      sub\n      swap1\n      log1\n        /* \"NFT-Contracts/contracts/market_pri/NewMarket.sol\":3619:3620  _ */\n      pop\n      pop\n        /* \"NFT-Contracts/contracts/market_pri/NewMarket.sol\":9260:9846  function cancelFixedsale(address _nftContractAddress, uint256 _tokenId)\r... */\n      pop\n      pop\n      pop\n      pop\n      jump\t// out\n        /* \"NFT-Contracts/contracts/market_pri/NewMarket.sol\":20544:20772  function _bidAmountTransfer(uint256 _buyAmount, address _erc20) internal {\r... */\n    tag_125:\n        /* \"NFT-Contracts/contracts/market_pri/NewMarket.sol\":20657:20663  _erc20 */\n      dup1\n        /* \"NFT-Contracts/contracts/market_pri/NewMarket.sol\":20650:20677  IERC20(_erc20).transferFrom */\n      0xffffffffffffffffffffffffffffffffffffffff\n      and\n      0x23b872dd\n        /* \"NFT-Contracts/contracts/market_pri/NewMarket.sol\":20678:20688  msg.sender */\n      caller\n        /* \"NFT-Contracts/contracts/market_pri/NewMarket.sol\":20698:20702  this */\n      address\n        /* \"NFT-Contracts/contracts/market_pri/NewMarket.sol\":20705:20715  _buyAmount */\n      dup6\n        /* \"NFT-Contracts/contracts/market_pri/NewMarket.sol\":20650:20716  IERC20(_erc20).transferFrom(msg.sender, address(this), _buyAmount) */\n      mload(0x40)\n      dup5\n      0xffffffff\n      and\n      0xe0\n      shl\n      dup2\n      mstore\n      0x04\n      add\n      tag_317\n      swap4\n      swap3\n      swap2\n      swap1\n      tag_218\n      jump\t// in\n    tag_317:\n      0x20\n      mload(0x40)\n      dup1\n      dup4\n      sub\n      dup2\n      0x00\n      dup8\n      dup1\n      extcodesize\n      iszero\n      dup1\n      iszero\n      tag_318\n      jumpi\n      0x00\n      dup1\n      revert\n    tag_318:\n      pop\n      gas\n      call\n      iszero\n      dup1\n      iszero\n      tag_320\n      jumpi\n      returndatasize\n      0x00\n      dup1\n      returndatacopy\n      revert(0x00, returndatasize)\n    tag_320:\n      pop\n      pop\n      pop\n      pop\n      mload(0x40)\n      returndatasize\n      not(0x1f)\n      0x1f\n      dup3\n      add\n      and\n      dup3\n      add\n      dup1\n      0x40\n      mstore\n      pop\n      dup2\n      add\n      swap1\n      tag_321\n      swap2\n      swap1\n      tag_208\n      jump\t// in\n    tag_321:\n        /* \"NFT-Contracts/contracts/market_pri/NewMarket.sol\":20628:20764  require(\r... */\n      tag_322\n      jumpi\n      mload(0x40)\n      0x08c379a000000000000000000000000000000000000000000000000000000000\n      dup2\n      mstore\n      0x04\n      add\n      tag_323\n      swap1\n      tag_324\n      jump\t// in\n    tag_323:\n      mload(0x40)\n      dup1\n      swap2\n      sub\n      swap1\n      revert\n    tag_322:\n        /* \"NFT-Contracts/contracts/market_pri/NewMarket.sol\":20544:20772  function _bidAmountTransfer(uint256 _buyAmount, address _erc20) internal {\r... */\n      pop\n      pop\n      jump\t// out\n        /* \"@openzeppelin/contracts/utils/math/SafeMath.sol\":2755:2851  function add(uint256 a, uint256 b) internal pure returns (uint256) {... */\n    tag_140:\n        /* \"@openzeppelin/contracts/utils/math/SafeMath.sol\":2813:2820  uint256 */\n      0x00\n        /* \"@openzeppelin/contracts/utils/math/SafeMath.sol\":2843:2844  b */\n      dup2\n        /* \"@openzeppelin/contracts/utils/math/SafeMath.sol\":2839:2840  a */\n      dup4\n        /* \"@openzeppelin/contracts/utils/math/SafeMath.sol\":2839:2844  a + b */\n      tag_326\n      swap2\n      swap1\n      tag_327\n      jump\t// in\n    tag_326:\n        /* \"@openzeppelin/contracts/utils/math/SafeMath.sol\":2832:2844  return a + b */\n      swap1\n      pop\n        /* \"@openzeppelin/contracts/utils/math/SafeMath.sol\":2755:2851  function add(uint256 a, uint256 b) internal pure returns (uint256) {... */\n      swap3\n      swap2\n      pop\n      pop\n      jump\t// out\n        /* \"NFT-Contracts/contracts/market_pri/NewMarket.sol\":18326:18922  function _transferNftAndPaySeller(\r... */\n    tag_185:\n        /* \"NFT-Contracts/contracts/market_pri/NewMarket.sol\":18516:18535  _nftContractAddress */\n      dup4\n        /* \"NFT-Contracts/contracts/market_pri/NewMarket.sol\":18508:18553  IERC721(_nftContractAddress).safeTransferFrom */\n      0xffffffffffffffffffffffffffffffffffffffff\n      and\n      0x42842e0e\n        /* \"NFT-Contracts/contracts/market_pri/NewMarket.sol\":18576:18580  this */\n      address\n        /* \"NFT-Contracts/contracts/market_pri/NewMarket.sol\":18596:18605  _nftBuyer */\n      dup4\n        /* \"NFT-Contracts/contracts/market_pri/NewMarket.sol\":18620:18628  _tokenId */\n      dup7\n        /* \"NFT-Contracts/contracts/market_pri/NewMarket.sol\":18508:18639  IERC721(_nftContractAddress).safeTransferFrom(\r... */\n      mload(0x40)\n      dup5\n      0xffffffff\n      and\n      0xe0\n      shl\n      dup2\n      mstore\n      0x04\n      add\n      tag_329\n      swap4\n      swap3\n      swap2\n      swap1\n      tag_218\n      jump\t// in\n    tag_329:\n      0x00\n      mload(0x40)\n      dup1\n      dup4\n      sub\n      dup2\n      0x00\n      dup8\n      dup1\n      extcodesize\n      iszero\n      dup1\n      iszero\n      tag_330\n      jumpi\n      0x00\n      dup1\n      revert\n    tag_330:\n      pop\n      gas\n      call\n      iszero\n      dup1\n      iszero\n      tag_332\n      jumpi\n      returndatasize\n      0x00\n      dup1\n      returndatacopy\n      revert(0x00, returndatasize)\n    tag_332:\n      pop\n      pop\n      pop\n      pop\n        /* \"NFT-Contracts/contracts/market_pri/NewMarket.sol\":18699:18700  0 */\n      0x00\n        /* \"NFT-Contracts/contracts/market_pri/NewMarket.sol\":18652:18665  nftSaleStatus */\n      0x02\n        /* \"NFT-Contracts/contracts/market_pri/NewMarket.sol\":18652:18686  nftSaleStatus[_nftContractAddress] */\n      0x00\n        /* \"NFT-Contracts/contracts/market_pri/NewMarket.sol\":18666:18685  _nftContractAddress */\n      dup7\n        /* \"NFT-Contracts/contracts/market_pri/NewMarket.sol\":18652:18686  nftSaleStatus[_nftContractAddress] */\n      0xffffffffffffffffffffffffffffffffffffffff\n      and\n      0xffffffffffffffffffffffffffffffffffffffff\n      and\n      dup2\n      mstore\n      0x20\n      add\n      swap1\n      dup2\n      mstore\n      0x20\n      add\n      0x00\n      keccak256\n        /* \"NFT-Contracts/contracts/market_pri/NewMarket.sol\":18652:18696  nftSaleStatus[_nftContractAddress][_tokenId] */\n      0x00\n        /* \"NFT-Contracts/contracts/market_pri/NewMarket.sol\":18687:18695  _tokenId */\n      dup6\n        /* \"NFT-Contracts/contracts/market_pri/NewMarket.sol\":18652:18696  nftSaleStatus[_nftContractAddress][_tokenId] */\n      dup2\n      mstore\n      0x20\n      add\n      swap1\n      dup2\n      mstore\n      0x20\n      add\n      0x00\n      keccak256\n        /* \"NFT-Contracts/contracts/market_pri/NewMarket.sol\":18652:18700  nftSaleStatus[_nftContractAddress][_tokenId] = 0 */\n      dup2\n      swap1\n      sstore\n      pop\n        /* \"NFT-Contracts/contracts/market_pri/NewMarket.sol\":18713:18914  _isTokenOrCoin(\r... */\n      tag_333\n        /* \"NFT-Contracts/contracts/market_pri/NewMarket.sol\":18742:18764  nftContractAuctionSale */\n      0x01\n        /* \"NFT-Contracts/contracts/market_pri/NewMarket.sol\":18742:18785  nftContractAuctionSale[_nftContractAddress] */\n      0x00\n        /* \"NFT-Contracts/contracts/market_pri/NewMarket.sol\":18765:18784  _nftContractAddress */\n      dup7\n        /* \"NFT-Contracts/contracts/market_pri/NewMarket.sol\":18742:18785  nftContractAuctionSale[_nftContractAddress] */\n      0xffffffffffffffffffffffffffffffffffffffff\n      and\n      0xffffffffffffffffffffffffffffffffffffffff\n      and\n      dup2\n      mstore\n      0x20\n      add\n      swap1\n      dup2\n      mstore\n      0x20\n      add\n      0x00\n      keccak256\n        /* \"NFT-Contracts/contracts/market_pri/NewMarket.sol\":18742:18795  nftContractAuctionSale[_nftContractAddress][_tokenId] */\n      0x00\n        /* \"NFT-Contracts/contracts/market_pri/NewMarket.sol\":18786:18794  _tokenId */\n      dup6\n        /* \"NFT-Contracts/contracts/market_pri/NewMarket.sol\":18742:18795  nftContractAuctionSale[_nftContractAddress][_tokenId] */\n      dup2\n      mstore\n      0x20\n      add\n      swap1\n      dup2\n      mstore\n      0x20\n      add\n      0x00\n      keccak256\n        /* \"NFT-Contracts/contracts/market_pri/NewMarket.sol\":18742:18805  nftContractAuctionSale[_nftContractAddress][_tokenId].nftSeller */\n      0x05\n      add\n      0x00\n      swap1\n      sload\n      swap1\n      0x0100\n      exp\n      swap1\n      div\n      0xffffffffffffffffffffffffffffffffffffffff\n      and\n        /* \"NFT-Contracts/contracts/market_pri/NewMarket.sol\":18820:18842  nftContractAuctionSale */\n      0x01\n        /* \"NFT-Contracts/contracts/market_pri/NewMarket.sol\":18820:18863  nftContractAuctionSale[_nftContractAddress] */\n      0x00\n        /* \"NFT-Contracts/contracts/market_pri/NewMarket.sol\":18843:18862  _nftContractAddress */\n      dup8\n        /* \"NFT-Contracts/contracts/market_pri/NewMarket.sol\":18820:18863  nftContractAuctionSale[_nftContractAddress] */\n      0xffffffffffffffffffffffffffffffffffffffff\n      and\n      0xffffffffffffffffffffffffffffffffffffffff\n      and\n      dup2\n      mstore\n      0x20\n      add\n      swap1\n      dup2\n      mstore\n      0x20\n      add\n      0x00\n      keccak256\n        /* \"NFT-Contracts/contracts/market_pri/NewMarket.sol\":18820:18873  nftContractAuctionSale[_nftContractAddress][_tokenId] */\n      0x00\n        /* \"NFT-Contracts/contracts/market_pri/NewMarket.sol\":18864:18872  _tokenId */\n      dup7\n        /* \"NFT-Contracts/contracts/market_pri/NewMarket.sol\":18820:18873  nftContractAuctionSale[_nftContractAddress][_tokenId] */\n      dup2\n      mstore\n      0x20\n      add\n      swap1\n      dup2\n      mstore\n      0x20\n      add\n      0x00\n      keccak256\n        /* \"NFT-Contracts/contracts/market_pri/NewMarket.sol\":18820:18879  nftContractAuctionSale[_nftContractAddress][_tokenId].erc20 */\n      0x06\n      add\n      0x00\n      swap1\n      sload\n      swap1\n      0x0100\n      exp\n      swap1\n      div\n      0xffffffffffffffffffffffffffffffffffffffff\n      and\n        /* \"NFT-Contracts/contracts/market_pri/NewMarket.sol\":18894:18903  _bidPrice */\n      dup5\n        /* \"NFT-Contracts/contracts/market_pri/NewMarket.sol\":18713:18727  _isTokenOrCoin */\n      tag_272\n        /* \"NFT-Contracts/contracts/market_pri/NewMarket.sol\":18713:18914  _isTokenOrCoin(\r... */\n      jump\t// in\n    tag_333:\n        /* \"NFT-Contracts/contracts/market_pri/NewMarket.sol\":18326:18922  function _transferNftAndPaySeller(\r... */\n      pop\n      pop\n      pop\n      pop\n      jump\t// out\n        /* \"NFT-Contracts/contracts/market_pri/NewMarket.sol\":20212:20536  function _isTokenOrCoin(\r... */\n    tag_272:\n        /* \"NFT-Contracts/contracts/market_pri/NewMarket.sol\":20368:20369  0 */\n      0x00\n        /* \"NFT-Contracts/contracts/market_pri/NewMarket.sol\":20350:20370  _erc20 != address(0) */\n      0xffffffffffffffffffffffffffffffffffffffff\n      and\n        /* \"NFT-Contracts/contracts/market_pri/NewMarket.sol\":20350:20356  _erc20 */\n      dup3\n        /* \"NFT-Contracts/contracts/market_pri/NewMarket.sol\":20350:20370  _erc20 != address(0) */\n      0xffffffffffffffffffffffffffffffffffffffff\n      and\n      eq\n        /* \"NFT-Contracts/contracts/market_pri/NewMarket.sol\":20346:20529  if (_erc20 != address(0)) {\r... */\n      tag_335\n      jumpi\n        /* \"NFT-Contracts/contracts/market_pri/NewMarket.sol\":20387:20439  _tokenAmountTransfer(_nftSeller, _erc20, _buyAmount) */\n      tag_336\n        /* \"NFT-Contracts/contracts/market_pri/NewMarket.sol\":20408:20418  _nftSeller */\n      dup4\n        /* \"NFT-Contracts/contracts/market_pri/NewMarket.sol\":20420:20426  _erc20 */\n      dup4\n        /* \"NFT-Contracts/contracts/market_pri/NewMarket.sol\":20428:20438  _buyAmount */\n      dup4\n        /* \"NFT-Contracts/contracts/market_pri/NewMarket.sol\":20387:20407  _tokenAmountTransfer */\n      tag_337\n        /* \"NFT-Contracts/contracts/market_pri/NewMarket.sol\":20387:20439  _tokenAmountTransfer(_nftSeller, _erc20, _buyAmount) */\n      jump\t// in\n    tag_336:\n        /* \"NFT-Contracts/contracts/market_pri/NewMarket.sol\":20346:20529  if (_erc20 != address(0)) {\r... */\n      jump(tag_338)\n    tag_335:\n        /* \"NFT-Contracts/contracts/market_pri/NewMarket.sol\":20472:20517  _nativeAmountTransfer(_nftSeller, _buyAmount) */\n      tag_339\n        /* \"NFT-Contracts/contracts/market_pri/NewMarket.sol\":20494:20504  _nftSeller */\n      dup4\n        /* \"NFT-Contracts/contracts/market_pri/NewMarket.sol\":20506:20516  _buyAmount */\n      dup3\n        /* \"NFT-Contracts/contracts/market_pri/NewMarket.sol\":20472:20493  _nativeAmountTransfer */\n      tag_340\n        /* \"NFT-Contracts/contracts/market_pri/NewMarket.sol\":20472:20517  _nativeAmountTransfer(_nftSeller, _buyAmount) */\n      jump\t// in\n    tag_339:\n        /* \"NFT-Contracts/contracts/market_pri/NewMarket.sol\":20346:20529  if (_erc20 != address(0)) {\r... */\n    tag_338:\n        /* \"NFT-Contracts/contracts/market_pri/NewMarket.sol\":20212:20536  function _isTokenOrCoin(\r... */\n      pop\n      pop\n      pop\n      jump\t// out\n        /* \"NFT-Contracts/contracts/market_pri/NewMarket.sol\":19502:20204  function _storedNftAuctionDetails(\r... */\n    tag_299:\n        /* \"NFT-Contracts/contracts/market_pri/NewMarket.sol\":19799:19990  Auction(\r... */\n      mload(0x40)\n      dup1\n      0xe0\n      add\n      0x40\n      mstore\n      dup1\n        /* \"NFT-Contracts/contracts/market_pri/NewMarket.sol\":19821:19834  _auctionStart */\n      dup5\n        /* \"NFT-Contracts/contracts/market_pri/NewMarket.sol\":19799:19990  Auction(\r... */\n      dup2\n      mstore\n      0x20\n      add\n        /* \"NFT-Contracts/contracts/market_pri/NewMarket.sol\":19849:19860  _auctionEnd */\n      dup4\n        /* \"NFT-Contracts/contracts/market_pri/NewMarket.sol\":19799:19990  Auction(\r... */\n      dup2\n      mstore\n      0x20\n      add\n        /* \"NFT-Contracts/contracts/market_pri/NewMarket.sol\":19875:19884  _minPrice */\n      dup3\n        /* \"NFT-Contracts/contracts/market_pri/NewMarket.sol\":19799:19990  Auction(\r... */\n      dup2\n      mstore\n      0x20\n      add\n        /* \"NFT-Contracts/contracts/market_pri/NewMarket.sol\":19899:19908  _minPrice */\n      dup3\n        /* \"NFT-Contracts/contracts/market_pri/NewMarket.sol\":19799:19990  Auction(\r... */\n      dup2\n      mstore\n      0x20\n      add\n        /* \"NFT-Contracts/contracts/market_pri/NewMarket.sol\":19931:19932  0 */\n      0x00\n        /* \"NFT-Contracts/contracts/market_pri/NewMarket.sol\":19799:19990  Auction(\r... */\n      0xffffffffffffffffffffffffffffffffffffffff\n      and\n      dup2\n      mstore\n      0x20\n      add\n        /* \"NFT-Contracts/contracts/market_pri/NewMarket.sol\":19948:19958  msg.sender */\n      caller\n        /* \"NFT-Contracts/contracts/market_pri/NewMarket.sol\":19799:19990  Auction(\r... */\n      0xffffffffffffffffffffffffffffffffffffffff\n      and\n      dup2\n      mstore\n      0x20\n      add\n        /* \"NFT-Contracts/contracts/market_pri/NewMarket.sol\":19973:19979  _erc20 */\n      dup7\n        /* \"NFT-Contracts/contracts/market_pri/NewMarket.sol\":19799:19990  Auction(\r... */\n      0xffffffffffffffffffffffffffffffffffffffff\n      and\n      dup2\n      mstore\n      pop\n        /* \"NFT-Contracts/contracts/market_pri/NewMarket.sol\":19743:19765  nftContractAuctionSale */\n      0x01\n        /* \"NFT-Contracts/contracts/market_pri/NewMarket.sol\":19743:19786  nftContractAuctionSale[_nftContractAddress] */\n      0x00\n        /* \"NFT-Contracts/contracts/market_pri/NewMarket.sol\":19766:19785  _nftContractAddress */\n      dup9\n        /* \"NFT-Contracts/contracts/market_pri/NewMarket.sol\":19743:19786  nftContractAuctionSale[_nftContractAddress] */\n      0xffffffffffffffffffffffffffffffffffffffff\n      and\n      0xffffffffffffffffffffffffffffffffffffffff\n      and\n      dup2\n      mstore\n      0x20\n      add\n      swap1\n      dup2\n      mstore\n      0x20\n      add\n      0x00\n      keccak256\n        /* \"NFT-Contracts/contracts/market_pri/NewMarket.sol\":19743:19796  nftContractAuctionSale[_nftContractAddress][_tokenId] */\n      0x00\n        /* \"NFT-Contracts/contracts/market_pri/NewMarket.sol\":19787:19795  _tokenId */\n      dup7\n        /* \"NFT-Contracts/contracts/market_pri/NewMarket.sol\":19743:19796  nftContractAuctionSale[_nftContractAddress][_tokenId] */\n      dup2\n      mstore\n      0x20\n      add\n      swap1\n      dup2\n      mstore\n      0x20\n      add\n      0x00\n      keccak256\n        /* \"NFT-Contracts/contracts/market_pri/NewMarket.sol\":19743:19990  nftContractAuctionSale[_nftContractAddress][_tokenId] = Auction(\r... */\n      0x00\n      dup3\n      add\n      mload\n      dup2\n      0x00\n      add\n      sstore\n      0x20\n      dup3\n      add\n      mload\n      dup2\n      0x01\n      add\n      sstore\n      0x40\n      dup3\n      add\n      mload\n      dup2\n      0x02\n      add\n      sstore\n      0x60\n      dup3\n      add\n      mload\n      dup2\n      0x03\n      add\n      sstore\n      0x80\n      dup3\n      add\n      mload\n      dup2\n      0x04\n      add\n      exp(0x0100, 0x00)\n      dup2\n      sload\n      dup2\n      0xffffffffffffffffffffffffffffffffffffffff\n      mul\n      not\n      and\n      swap1\n      dup4\n      0xffffffffffffffffffffffffffffffffffffffff\n      and\n      mul\n      or\n      swap1\n      sstore\n      pop\n      0xa0\n      dup3\n      add\n      mload\n      dup2\n      0x05\n      add\n      exp(0x0100, 0x00)\n      dup2\n      sload\n      dup2\n      0xffffffffffffffffffffffffffffffffffffffff\n      mul\n      not\n      and\n      swap1\n      dup4\n      0xffffffffffffffffffffffffffffffffffffffff\n      and\n      mul\n      or\n      swap1\n      sstore\n      pop\n      0xc0\n      dup3\n      add\n      mload\n      dup2\n      0x06\n      add\n      exp(0x0100, 0x00)\n      dup2\n      sload\n      dup2\n      0xffffffffffffffffffffffffffffffffffffffff\n      mul\n      not\n      and\n      swap1\n      dup4\n      0xffffffffffffffffffffffffffffffffffffffff\n      and\n      mul\n      or\n      swap1\n      sstore\n      pop\n      swap1\n      pop\n      pop\n        /* \"NFT-Contracts/contracts/market_pri/NewMarket.sol\":20050:20051  2 */\n      0x02\n        /* \"NFT-Contracts/contracts/market_pri/NewMarket.sol\":20003:20016  nftSaleStatus */\n      dup1\n        /* \"NFT-Contracts/contracts/market_pri/NewMarket.sol\":20003:20037  nftSaleStatus[_nftContractAddress] */\n      0x00\n        /* \"NFT-Contracts/contracts/market_pri/NewMarket.sol\":20017:20036  _nftContractAddress */\n      dup9\n        /* \"NFT-Contracts/contracts/market_pri/NewMarket.sol\":20003:20037  nftSaleStatus[_nftContractAddress] */\n      0xffffffffffffffffffffffffffffffffffffffff\n      and\n      0xffffffffffffffffffffffffffffffffffffffff\n      and\n      dup2\n      mstore\n      0x20\n      add\n      swap1\n      dup2\n      mstore\n      0x20\n      add\n      0x00\n      keccak256\n        /* \"NFT-Contracts/contracts/market_pri/NewMarket.sol\":20003:20047  nftSaleStatus[_nftContractAddress][_tokenId] */\n      0x00\n        /* \"NFT-Contracts/contracts/market_pri/NewMarket.sol\":20038:20046  _tokenId */\n      dup7\n        /* \"NFT-Contracts/contracts/market_pri/NewMarket.sol\":20003:20047  nftSaleStatus[_nftContractAddress][_tokenId] */\n      dup2\n      mstore\n      0x20\n      add\n      swap1\n      dup2\n      mstore\n      0x20\n      add\n      0x00\n      keccak256\n        /* \"NFT-Contracts/contracts/market_pri/NewMarket.sol\":20003:20051  nftSaleStatus[_nftContractAddress][_tokenId] = 2 */\n      dup2\n      swap1\n      sstore\n      pop\n        /* \"NFT-Contracts/contracts/market_pri/NewMarket.sol\":20072:20091  _nftContractAddress */\n      dup6\n        /* \"NFT-Contracts/contracts/market_pri/NewMarket.sol\":20064:20109  IERC721(_nftContractAddress).safeTransferFrom */\n      0xffffffffffffffffffffffffffffffffffffffff\n      and\n      0x42842e0e\n        /* \"NFT-Contracts/contracts/market_pri/NewMarket.sol\":20124:20134  msg.sender */\n      caller\n        /* \"NFT-Contracts/contracts/market_pri/NewMarket.sol\":20157:20161  this */\n      address\n        /* \"NFT-Contracts/contracts/market_pri/NewMarket.sol\":20177:20185  _tokenId */\n      dup8\n        /* \"NFT-Contracts/contracts/market_pri/NewMarket.sol\":20064:20196  IERC721(_nftContractAddress).safeTransferFrom(\r... */\n      mload(0x40)\n      dup5\n      0xffffffff\n      and\n      0xe0\n      shl\n      dup2\n      mstore\n      0x04\n      add\n      tag_342\n      swap4\n      swap3\n      swap2\n      swap1\n      tag_218\n      jump\t// in\n    tag_342:\n      0x00\n      mload(0x40)\n      dup1\n      dup4\n      sub\n      dup2\n      0x00\n      dup8\n      dup1\n      extcodesize\n      iszero\n      dup1\n      iszero\n      tag_343\n      jumpi\n      0x00\n      dup1\n      revert\n    tag_343:\n      pop\n      gas\n      call\n      iszero\n      dup1\n      iszero\n      tag_345\n      jumpi\n      returndatasize\n      0x00\n      dup1\n      returndatacopy\n      revert(0x00, returndatasize)\n    tag_345:\n      pop\n      pop\n      pop\n      pop\n        /* \"NFT-Contracts/contracts/market_pri/NewMarket.sol\":19502:20204  function _storedNftAuctionDetails(\r... */\n      pop\n      pop\n      pop\n      pop\n      pop\n      pop\n      jump\t// out\n        /* \"NFT-Contracts/contracts/market_pri/NewMarket.sol\":18930:19272  function _tokenAmountTransfer(\r... */\n    tag_337:\n        /* \"NFT-Contracts/contracts/market_pri/NewMarket.sol\":19099:19105  _erc20 */\n      dup2\n        /* \"NFT-Contracts/contracts/market_pri/NewMarket.sol\":19092:19119  IERC20(_erc20).transferFrom */\n      0xffffffffffffffffffffffffffffffffffffffff\n      and\n      0x23b872dd\n        /* \"NFT-Contracts/contracts/market_pri/NewMarket.sol\":19120:19130  msg.sender */\n      caller\n        /* \"NFT-Contracts/contracts/market_pri/NewMarket.sol\":19140:19144  this */\n      address\n        /* \"NFT-Contracts/contracts/market_pri/NewMarket.sol\":19147:19157  _buyAmount */\n      dup5\n        /* \"NFT-Contracts/contracts/market_pri/NewMarket.sol\":19092:19158  IERC20(_erc20).transferFrom(msg.sender, address(this), _buyAmount) */\n      mload(0x40)\n      dup5\n      0xffffffff\n      and\n      0xe0\n      shl\n      dup2\n      mstore\n      0x04\n      add\n      tag_347\n      swap4\n      swap3\n      swap2\n      swap1\n      tag_218\n      jump\t// in\n    tag_347:\n      0x20\n      mload(0x40)\n      dup1\n      dup4\n      sub\n      dup2\n      0x00\n      dup8\n      dup1\n      extcodesize\n      iszero\n      dup1\n      iszero\n      tag_348\n      jumpi\n      0x00\n      dup1\n      revert\n    tag_348:\n      pop\n      gas\n      call\n      iszero\n      dup1\n      iszero\n      tag_350\n      jumpi\n      returndatasize\n      0x00\n      dup1\n      returndatacopy\n      revert(0x00, returndatasize)\n    tag_350:\n      pop\n      pop\n      pop\n      pop\n      mload(0x40)\n      returndatasize\n      not(0x1f)\n      0x1f\n      dup3\n      add\n      and\n      dup3\n      add\n      dup1\n      0x40\n      mstore\n      pop\n      dup2\n      add\n      swap1\n      tag_351\n      swap2\n      swap1\n      tag_208\n      jump\t// in\n    tag_351:\n        /* \"NFT-Contracts/contracts/market_pri/NewMarket.sol\":19070:19206  require(\r... */\n      tag_352\n      jumpi\n      mload(0x40)\n      0x08c379a000000000000000000000000000000000000000000000000000000000\n      dup2\n      mstore\n      0x04\n      add\n      tag_353\n      swap1\n      tag_324\n      jump\t// in\n    tag_353:\n      mload(0x40)\n      dup1\n      swap2\n      sub\n      swap1\n      revert\n    tag_352:\n        /* \"NFT-Contracts/contracts/market_pri/NewMarket.sol\":19224:19230  _erc20 */\n      dup2\n        /* \"NFT-Contracts/contracts/market_pri/NewMarket.sol\":19217:19240  IERC20(_erc20).transfer */\n      0xffffffffffffffffffffffffffffffffffffffff\n      and\n      0xa9059cbb\n        /* \"NFT-Contracts/contracts/market_pri/NewMarket.sol\":19241:19251  _nftSeller */\n      dup5\n        /* \"NFT-Contracts/contracts/market_pri/NewMarket.sol\":19253:19263  _buyAmount */\n      dup4\n        /* \"NFT-Contracts/contracts/market_pri/NewMarket.sol\":19217:19264  IERC20(_erc20).transfer(_nftSeller, _buyAmount) */\n      mload(0x40)\n      dup4\n      0xffffffff\n      and\n      0xe0\n      shl\n      dup2\n      mstore\n      0x04\n      add\n      tag_354\n      swap3\n      swap2\n      swap1\n      tag_355\n      jump\t// in\n    tag_354:\n      0x20\n      mload(0x40)\n      dup1\n      dup4\n      sub\n      dup2\n      0x00\n      dup8\n      dup1\n      extcodesize\n      iszero\n      dup1\n      iszero\n      tag_356\n      jumpi\n      0x00\n      dup1\n      revert\n    tag_356:\n      pop\n      gas\n      call\n      iszero\n      dup1\n      iszero\n      tag_358\n      jumpi\n      returndatasize\n      0x00\n      dup1\n      returndatacopy\n      revert(0x00, returndatasize)\n    tag_358:\n      pop\n      pop\n      pop\n      pop\n      mload(0x40)\n      returndatasize\n      not(0x1f)\n      0x1f\n      dup3\n      add\n      and\n      dup3\n      add\n      dup1\n      0x40\n      mstore\n      pop\n      dup2\n      add\n      swap1\n      tag_359\n      swap2\n      swap1\n      tag_208\n      jump\t// in\n    tag_359:\n      pop\n        /* \"NFT-Contracts/contracts/market_pri/NewMarket.sol\":18930:19272  function _tokenAmountTransfer(\r... */\n      pop\n      pop\n      pop\n      jump\t// out\n        /* \"NFT-Contracts/contracts/market_pri/NewMarket.sol\":19280:19494  function _nativeAmountTransfer(address _nftSeller, uint256 _buyAmount)\r... */\n    tag_340:\n        /* \"NFT-Contracts/contracts/market_pri/NewMarket.sol\":19386:19398  bool success */\n      0x00\n        /* \"NFT-Contracts/contracts/market_pri/NewMarket.sol\":19404:19414  _nftSeller */\n      dup3\n        /* \"NFT-Contracts/contracts/market_pri/NewMarket.sol\":19404:19419  _nftSeller.call */\n      0xffffffffffffffffffffffffffffffffffffffff\n      and\n        /* \"NFT-Contracts/contracts/market_pri/NewMarket.sol\":19427:19437  _buyAmount */\n      dup3\n        /* \"NFT-Contracts/contracts/market_pri/NewMarket.sol\":19404:19442  _nftSeller.call{value: _buyAmount}(\"\") */\n      mload(0x40)\n      tag_361\n      swap1\n      tag_362\n      jump\t// in\n    tag_361:\n      0x00\n      mload(0x40)\n      dup1\n      dup4\n      sub\n      dup2\n      dup6\n      dup8\n      gas\n      call\n      swap3\n      pop\n      pop\n      pop\n      returndatasize\n      dup1\n      0x00\n      dup2\n      eq\n      tag_365\n      jumpi\n      mload(0x40)\n      swap2\n      pop\n      and(add(returndatasize, 0x3f), not(0x1f))\n      dup3\n      add\n      0x40\n      mstore\n      returndatasize\n      dup3\n      mstore\n      returndatasize\n      0x00\n      0x20\n      dup5\n      add\n      returndatacopy\n      jump(tag_364)\n    tag_365:\n      0x60\n      swap2\n      pop\n    tag_364:\n      pop\n        /* \"NFT-Contracts/contracts/market_pri/NewMarket.sol\":19385:19442  (bool success, ) = _nftSeller.call{value: _buyAmount}(\"\") */\n      pop\n      swap1\n      pop\n        /* \"NFT-Contracts/contracts/market_pri/NewMarket.sol\":19461:19468  success */\n      dup1\n        /* \"NFT-Contracts/contracts/market_pri/NewMarket.sol\":19453:19486  require(success, \"refund failed\") */\n      tag_366\n      jumpi\n      mload(0x40)\n      0x08c379a000000000000000000000000000000000000000000000000000000000\n      dup2\n      mstore\n      0x04\n      add\n      tag_367\n      swap1\n      tag_368\n      jump\t// in\n    tag_367:\n      mload(0x40)\n      dup1\n      swap2\n      sub\n      swap1\n      revert\n    tag_366:\n        /* \"NFT-Contracts/contracts/market_pri/NewMarket.sol\":19280:19494  function _nativeAmountTransfer(address _nftSeller, uint256 _buyAmount)\r... */\n      pop\n      pop\n      pop\n      jump\t// out\n    tag_225:\n      mload(0x40)\n      dup1\n      0xe0\n      add\n      0x40\n      mstore\n      dup1\n      0x00\n      dup2\n      mstore\n      0x20\n      add\n      0x00\n      dup2\n      mstore\n      0x20\n      add\n      0x00\n      dup2\n      mstore\n      0x20\n      add\n      0x00\n      dup2\n      mstore\n      0x20\n      add\n      and(0xffffffffffffffffffffffffffffffffffffffff, 0x00)\n      dup2\n      mstore\n      0x20\n      add\n      and(0xffffffffffffffffffffffffffffffffffffffff, 0x00)\n      dup2\n      mstore\n      0x20\n      add\n      and(0xffffffffffffffffffffffffffffffffffffffff, 0x00)\n      dup2\n      mstore\n      pop\n      swap1\n      jump\t// out\n    tag_248:\n      mload(0x40)\n      dup1\n      0x80\n      add\n      0x40\n      mstore\n      dup1\n      and(0xffffffffffffffffffffffffffffffffffffffff, 0x00)\n      dup2\n      mstore\n      0x20\n      add\n      and(0xffffffffffffffffffffffffffffffffffffffff, 0x00)\n      dup2\n      mstore\n      0x20\n      add\n      and(0xffffffffffffffffffffffffffffffffffffffff, 0x00)\n      dup2\n      mstore\n      0x20\n      add\n      0x00\n      dup2\n      mstore\n      pop\n      swap1\n      jump\t// out\n        /* \"#utility.yul\":7:146   */\n    tag_370:\n        /* \"#utility.yul\":53:58   */\n      0x00\n        /* \"#utility.yul\":91:97   */\n      dup2\n        /* \"#utility.yul\":78:98   */\n      calldataload\n        /* \"#utility.yul\":69:98   */\n      swap1\n      pop\n        /* \"#utility.yul\":107:140   */\n      tag_372\n        /* \"#utility.yul\":134:139   */\n      dup2\n        /* \"#utility.yul\":107:140   */\n      tag_373\n      jump\t// in\n    tag_372:\n        /* \"#utility.yul\":59:146   */\n      swap3\n      swap2\n      pop\n      pop\n      jump\t// out\n        /* \"#utility.yul\":152:295   */\n    tag_374:\n        /* \"#utility.yul\":209:214   */\n      0x00\n        /* \"#utility.yul\":240:246   */\n      dup2\n        /* \"#utility.yul\":234:247   */\n      mload\n        /* \"#utility.yul\":225:247   */\n      swap1\n      pop\n        /* \"#utility.yul\":256:289   */\n      tag_376\n        /* \"#utility.yul\":283:288   */\n      dup2\n        /* \"#utility.yul\":256:289   */\n      tag_373\n      jump\t// in\n    tag_376:\n        /* \"#utility.yul\":215:295   */\n      swap3\n      swap2\n      pop\n      pop\n      jump\t// out\n        /* \"#utility.yul\":301:438   */\n    tag_377:\n        /* \"#utility.yul\":355:360   */\n      0x00\n        /* \"#utility.yul\":386:392   */\n      dup2\n        /* \"#utility.yul\":380:393   */\n      mload\n        /* \"#utility.yul\":371:393   */\n      swap1\n      pop\n        /* \"#utility.yul\":402:432   */\n      tag_379\n        /* \"#utility.yul\":426:431   */\n      dup2\n        /* \"#utility.yul\":402:432   */\n      tag_380\n      jump\t// in\n    tag_379:\n        /* \"#utility.yul\":361:438   */\n      swap3\n      swap2\n      pop\n      pop\n      jump\t// out\n        /* \"#utility.yul\":457:808   */\n    tag_381:\n        /* \"#utility.yul\":514:522   */\n      0x00\n        /* \"#utility.yul\":524:530   */\n      dup1\n        /* \"#utility.yul\":574:577   */\n      dup4\n        /* \"#utility.yul\":567:571   */\n      0x1f\n        /* \"#utility.yul\":559:565   */\n      dup5\n        /* \"#utility.yul\":555:572   */\n      add\n        /* \"#utility.yul\":551:578   */\n      slt\n        /* \"#utility.yul\":541:543   */\n      tag_383\n      jumpi\n        /* \"#utility.yul\":592:593   */\n      0x00\n        /* \"#utility.yul\":589:590   */\n      dup1\n        /* \"#utility.yul\":582:594   */\n      revert\n        /* \"#utility.yul\":541:543   */\n    tag_383:\n        /* \"#utility.yul\":628:634   */\n      dup3\n        /* \"#utility.yul\":615:635   */\n      calldataload\n        /* \"#utility.yul\":605:635   */\n      swap1\n      pop\n        /* \"#utility.yul\":658:676   */\n      0xffffffffffffffff\n        /* \"#utility.yul\":650:656   */\n      dup2\n        /* \"#utility.yul\":647:677   */\n      gt\n        /* \"#utility.yul\":644:646   */\n      iszero\n      tag_384\n      jumpi\n        /* \"#utility.yul\":690:691   */\n      0x00\n        /* \"#utility.yul\":687:688   */\n      dup1\n        /* \"#utility.yul\":680:692   */\n      revert\n        /* \"#utility.yul\":644:646   */\n    tag_384:\n        /* \"#utility.yul\":727:731   */\n      0x20\n        /* \"#utility.yul\":719:725   */\n      dup4\n        /* \"#utility.yul\":715:732   */\n      add\n        /* \"#utility.yul\":703:732   */\n      swap2\n      pop\n        /* \"#utility.yul\":781:784   */\n      dup4\n        /* \"#utility.yul\":773:777   */\n      0x01\n        /* \"#utility.yul\":765:771   */\n      dup3\n        /* \"#utility.yul\":761:778   */\n      mul\n        /* \"#utility.yul\":751:759   */\n      dup4\n        /* \"#utility.yul\":747:779   */\n      add\n        /* \"#utility.yul\":744:785   */\n      gt\n        /* \"#utility.yul\":741:743   */\n      iszero\n      tag_385\n      jumpi\n        /* \"#utility.yul\":798:799   */\n      0x00\n        /* \"#utility.yul\":795:796   */\n      dup1\n        /* \"#utility.yul\":788:800   */\n      revert\n        /* \"#utility.yul\":741:743   */\n    tag_385:\n        /* \"#utility.yul\":531:808   */\n      swap3\n      pop\n      swap3\n      swap1\n      pop\n      jump\t// out\n        /* \"#utility.yul\":814:953   */\n    tag_386:\n        /* \"#utility.yul\":860:865   */\n      0x00\n        /* \"#utility.yul\":898:904   */\n      dup2\n        /* \"#utility.yul\":885:905   */\n      calldataload\n        /* \"#utility.yul\":876:905   */\n      swap1\n      pop\n        /* \"#utility.yul\":914:947   */\n      tag_388\n        /* \"#utility.yul\":941:946   */\n      dup2\n        /* \"#utility.yul\":914:947   */\n      tag_389\n      jump\t// in\n    tag_388:\n        /* \"#utility.yul\":866:953   */\n      swap3\n      swap2\n      pop\n      pop\n      jump\t// out\n        /* \"#utility.yul\":959:1243   */\n    tag_194:\n        /* \"#utility.yul\":1029:1035   */\n      0x00\n        /* \"#utility.yul\":1078:1080   */\n      0x20\n        /* \"#utility.yul\":1066:1075   */\n      dup3\n        /* \"#utility.yul\":1057:1064   */\n      dup5\n        /* \"#utility.yul\":1053:1076   */\n      sub\n        /* \"#utility.yul\":1049:1081   */\n      slt\n        /* \"#utility.yul\":1046:1048   */\n      iszero\n      tag_391\n      jumpi\n        /* \"#utility.yul\":1094:1095   */\n      0x00\n        /* \"#utility.yul\":1091:1092   */\n      dup1\n        /* \"#utility.yul\":1084:1096   */\n      revert\n        /* \"#utility.yul\":1046:1048   */\n    tag_391:\n        /* \"#utility.yul\":1137:1138   */\n      0x00\n        /* \"#utility.yul\":1162:1226   */\n      tag_392\n        /* \"#utility.yul\":1218:1225   */\n      dup5\n        /* \"#utility.yul\":1209:1215   */\n      dup3\n        /* \"#utility.yul\":1198:1207   */\n      dup6\n        /* \"#utility.yul\":1194:1216   */\n      add\n        /* \"#utility.yul\":1162:1226   */\n      tag_374\n      jump\t// in\n    tag_392:\n        /* \"#utility.yul\":1152:1226   */\n      swap2\n      pop\n        /* \"#utility.yul\":1108:1236   */\n      pop\n        /* \"#utility.yul\":1036:1243   */\n      swap3\n      swap2\n      pop\n      pop\n      jump\t// out\n        /* \"#utility.yul\":1249:2078   */\n    tag_27:\n        /* \"#utility.yul\":1346:1352   */\n      0x00\n        /* \"#utility.yul\":1354:1360   */\n      dup1\n        /* \"#utility.yul\":1362:1368   */\n      0x00\n        /* \"#utility.yul\":1370:1376   */\n      dup1\n        /* \"#utility.yul\":1378:1384   */\n      0x00\n        /* \"#utility.yul\":1427:1430   */\n      0x80\n        /* \"#utility.yul\":1415:1424   */\n      dup7\n        /* \"#utility.yul\":1406:1413   */\n      dup9\n        /* \"#utility.yul\":1402:1425   */\n      sub\n        /* \"#utility.yul\":1398:1431   */\n      slt\n        /* \"#utility.yul\":1395:1397   */\n      iszero\n      tag_394\n      jumpi\n        /* \"#utility.yul\":1444:1445   */\n      0x00\n        /* \"#utility.yul\":1441:1442   */\n      dup1\n        /* \"#utility.yul\":1434:1446   */\n      revert\n        /* \"#utility.yul\":1395:1397   */\n    tag_394:\n        /* \"#utility.yul\":1487:1488   */\n      0x00\n        /* \"#utility.yul\":1512:1565   */\n      tag_395\n        /* \"#utility.yul\":1557:1564   */\n      dup9\n        /* \"#utility.yul\":1548:1554   */\n      dup3\n        /* \"#utility.yul\":1537:1546   */\n      dup10\n        /* \"#utility.yul\":1533:1555   */\n      add\n        /* \"#utility.yul\":1512:1565   */\n      tag_370\n      jump\t// in\n    tag_395:\n        /* \"#utility.yul\":1502:1565   */\n      swap6\n      pop\n        /* \"#utility.yul\":1458:1575   */\n      pop\n        /* \"#utility.yul\":1614:1616   */\n      0x20\n        /* \"#utility.yul\":1640:1693   */\n      tag_396\n        /* \"#utility.yul\":1685:1692   */\n      dup9\n        /* \"#utility.yul\":1676:1682   */\n      dup3\n        /* \"#utility.yul\":1665:1674   */\n      dup10\n        /* \"#utility.yul\":1661:1683   */\n      add\n        /* \"#utility.yul\":1640:1693   */\n      tag_370\n      jump\t// in\n    tag_396:\n        /* \"#utility.yul\":1630:1693   */\n      swap5\n      pop\n        /* \"#utility.yul\":1585:1703   */\n      pop\n        /* \"#utility.yul\":1742:1744   */\n      0x40\n        /* \"#utility.yul\":1768:1821   */\n      tag_397\n        /* \"#utility.yul\":1813:1820   */\n      dup9\n        /* \"#utility.yul\":1804:1810   */\n      dup3\n        /* \"#utility.yul\":1793:1802   */\n      dup10\n        /* \"#utility.yul\":1789:1811   */\n      add\n        /* \"#utility.yul\":1768:1821   */\n      tag_386\n      jump\t// in\n    tag_397:\n        /* \"#utility.yul\":1758:1821   */\n      swap4\n      pop\n        /* \"#utility.yul\":1713:1831   */\n      pop\n        /* \"#utility.yul\":1898:1900   */\n      0x60\n        /* \"#utility.yul\":1887:1896   */\n      dup7\n        /* \"#utility.yul\":1883:1901   */\n      add\n        /* \"#utility.yul\":1870:1902   */\n      calldataload\n        /* \"#utility.yul\":1929:1947   */\n      0xffffffffffffffff\n        /* \"#utility.yul\":1921:1927   */\n      dup2\n        /* \"#utility.yul\":1918:1948   */\n      gt\n        /* \"#utility.yul\":1915:1917   */\n      iszero\n      tag_398\n      jumpi\n        /* \"#utility.yul\":1961:1962   */\n      0x00\n        /* \"#utility.yul\":1958:1959   */\n      dup1\n        /* \"#utility.yul\":1951:1963   */\n      revert\n        /* \"#utility.yul\":1915:1917   */\n    tag_398:\n        /* \"#utility.yul\":1997:2061   */\n      tag_399\n        /* \"#utility.yul\":2053:2060   */\n      dup9\n        /* \"#utility.yul\":2044:2050   */\n      dup3\n        /* \"#utility.yul\":2033:2042   */\n      dup10\n        /* \"#utility.yul\":2029:2051   */\n      add\n        /* \"#utility.yul\":1997:2061   */\n      tag_381\n      jump\t// in\n    tag_399:\n        /* \"#utility.yul\":1979:2061   */\n      swap3\n      pop\n      swap3\n      pop\n        /* \"#utility.yul\":1841:2071   */\n      pop\n        /* \"#utility.yul\":1385:2078   */\n      swap3\n      swap6\n      pop\n      swap3\n      swap6\n      swap1\n      swap4\n      pop\n      jump\t// out\n        /* \"#utility.yul\":2084:2782   */\n    tag_60:\n        /* \"#utility.yul\":2170:2176   */\n      0x00\n        /* \"#utility.yul\":2178:2184   */\n      dup1\n        /* \"#utility.yul\":2186:2192   */\n      0x00\n        /* \"#utility.yul\":2194:2200   */\n      dup1\n        /* \"#utility.yul\":2243:2246   */\n      0x80\n        /* \"#utility.yul\":2231:2240   */\n      dup6\n        /* \"#utility.yul\":2222:2229   */\n      dup8\n        /* \"#utility.yul\":2218:2241   */\n      sub\n        /* \"#utility.yul\":2214:2247   */\n      slt\n        /* \"#utility.yul\":2211:2213   */\n      iszero\n      tag_401\n      jumpi\n        /* \"#utility.yul\":2260:2261   */\n      0x00\n        /* \"#utility.yul\":2257:2258   */\n      dup1\n        /* \"#utility.yul\":2250:2262   */\n      revert\n        /* \"#utility.yul\":2211:2213   */\n    tag_401:\n        /* \"#utility.yul\":2303:2304   */\n      0x00\n        /* \"#utility.yul\":2328:2381   */\n      tag_402\n        /* \"#utility.yul\":2373:2380   */\n      dup8\n        /* \"#utility.yul\":2364:2370   */\n      dup3\n        /* \"#utility.yul\":2353:2362   */\n      dup9\n        /* \"#utility.yul\":2349:2371   */\n      add\n        /* \"#utility.yul\":2328:2381   */\n      tag_370\n      jump\t// in\n    tag_402:\n        /* \"#utility.yul\":2318:2381   */\n      swap5\n      pop\n        /* \"#utility.yul\":2274:2391   */\n      pop\n        /* \"#utility.yul\":2430:2432   */\n      0x20\n        /* \"#utility.yul\":2456:2509   */\n      tag_403\n        /* \"#utility.yul\":2501:2508   */\n      dup8\n        /* \"#utility.yul\":2492:2498   */\n      dup3\n        /* \"#utility.yul\":2481:2490   */\n      dup9\n        /* \"#utility.yul\":2477:2499   */\n      add\n        /* \"#utility.yul\":2456:2509   */\n      tag_370\n      jump\t// in\n    tag_403:\n        /* \"#utility.yul\":2446:2509   */\n      swap4\n      pop\n        /* \"#utility.yul\":2401:2519   */\n      pop\n        /* \"#utility.yul\":2558:2560   */\n      0x40\n        /* \"#utility.yul\":2584:2637   */\n      tag_404\n        /* \"#utility.yul\":2629:2636   */\n      dup8\n        /* \"#utility.yul\":2620:2626   */\n      dup3\n        /* \"#utility.yul\":2609:2618   */\n      dup9\n        /* \"#utility.yul\":2605:2627   */\n      add\n        /* \"#utility.yul\":2584:2637   */\n      tag_386\n      jump\t// in\n    tag_404:\n        /* \"#utility.yul\":2574:2637   */\n      swap3\n      pop\n        /* \"#utility.yul\":2529:2647   */\n      pop\n        /* \"#utility.yul\":2686:2688   */\n      0x60\n        /* \"#utility.yul\":2712:2765   */\n      tag_405\n        /* \"#utility.yul\":2757:2764   */\n      dup8\n        /* \"#utility.yul\":2748:2754   */\n      dup3\n        /* \"#utility.yul\":2737:2746   */\n      dup9\n        /* \"#utility.yul\":2733:2755   */\n      add\n        /* \"#utility.yul\":2712:2765   */\n      tag_386\n      jump\t// in\n    tag_405:\n        /* \"#utility.yul\":2702:2765   */\n      swap2\n      pop\n        /* \"#utility.yul\":2657:2775   */\n      pop\n        /* \"#utility.yul\":2201:2782   */\n      swap3\n      swap6\n      swap2\n      swap5\n      pop\n      swap3\n      pop\n      jump\t// out\n        /* \"#utility.yul\":2788:3778   */\n    tag_95:\n        /* \"#utility.yul\":2892:2898   */\n      0x00\n        /* \"#utility.yul\":2900:2906   */\n      dup1\n        /* \"#utility.yul\":2908:2914   */\n      0x00\n        /* \"#utility.yul\":2916:2922   */\n      dup1\n        /* \"#utility.yul\":2924:2930   */\n      0x00\n        /* \"#utility.yul\":2932:2938   */\n      dup1\n        /* \"#utility.yul\":2981:2984   */\n      0xc0\n        /* \"#utility.yul\":2969:2978   */\n      dup8\n        /* \"#utility.yul\":2960:2967   */\n      dup10\n        /* \"#utility.yul\":2956:2979   */\n      sub\n        /* \"#utility.yul\":2952:2985   */\n      slt\n        /* \"#utility.yul\":2949:2951   */\n      iszero\n      tag_407\n      jumpi\n        /* \"#utility.yul\":2998:2999   */\n      0x00\n        /* \"#utility.yul\":2995:2996   */\n      dup1\n        /* \"#utility.yul\":2988:3000   */\n      revert\n        /* \"#utility.yul\":2949:2951   */\n    tag_407:\n        /* \"#utility.yul\":3041:3042   */\n      0x00\n        /* \"#utility.yul\":3066:3119   */\n      tag_408\n        /* \"#utility.yul\":3111:3118   */\n      dup10\n        /* \"#utility.yul\":3102:3108   */\n      dup3\n        /* \"#utility.yul\":3091:3100   */\n      dup11\n        /* \"#utility.yul\":3087:3109   */\n      add\n        /* \"#utility.yul\":3066:3119   */\n      tag_370\n      jump\t// in\n    tag_408:\n        /* \"#utility.yul\":3056:3119   */\n      swap7\n      pop\n        /* \"#utility.yul\":3012:3129   */\n      pop\n        /* \"#utility.yul\":3168:3170   */\n      0x20\n        /* \"#utility.yul\":3194:3247   */\n      tag_409\n        /* \"#utility.yul\":3239:3246   */\n      dup10\n        /* \"#utility.yul\":3230:3236   */\n      dup3\n        /* \"#utility.yul\":3219:3228   */\n      dup11\n        /* \"#utility.yul\":3215:3237   */\n      add\n        /* \"#utility.yul\":3194:3247   */\n      tag_370\n      jump\t// in\n    tag_409:\n        /* \"#utility.yul\":3184:3247   */\n      swap6\n      pop\n        /* \"#utility.yul\":3139:3257   */\n      pop\n        /* \"#utility.yul\":3296:3298   */\n      0x40\n        /* \"#utility.yul\":3322:3375   */\n      tag_410\n        /* \"#utility.yul\":3367:3374   */\n      dup10\n        /* \"#utility.yul\":3358:3364   */\n      dup3\n        /* \"#utility.yul\":3347:3356   */\n      dup11\n        /* \"#utility.yul\":3343:3365   */\n      add\n        /* \"#utility.yul\":3322:3375   */\n      tag_386\n      jump\t// in\n    tag_410:\n        /* \"#utility.yul\":3312:3375   */\n      swap5\n      pop\n        /* \"#utility.yul\":3267:3385   */\n      pop\n        /* \"#utility.yul\":3424:3426   */\n      0x60\n        /* \"#utility.yul\":3450:3503   */\n      tag_411\n        /* \"#utility.yul\":3495:3502   */\n      dup10\n        /* \"#utility.yul\":3486:3492   */\n      dup3\n        /* \"#utility.yul\":3475:3484   */\n      dup11\n        /* \"#utility.yul\":3471:3493   */\n      add\n        /* \"#utility.yul\":3450:3503   */\n      tag_386\n      jump\t// in\n    tag_411:\n        /* \"#utility.yul\":3440:3503   */\n      swap4\n      pop\n        /* \"#utility.yul\":3395:3513   */\n      pop\n        /* \"#utility.yul\":3552:3555   */\n      0x80\n        /* \"#utility.yul\":3579:3632   */\n      tag_412\n        /* \"#utility.yul\":3624:3631   */\n      dup10\n        /* \"#utility.yul\":3615:3621   */\n      dup3\n        /* \"#utility.yul\":3604:3613   */\n      dup11\n        /* \"#utility.yul\":3600:3622   */\n      add\n        /* \"#utility.yul\":3579:3632   */\n      tag_386\n      jump\t// in\n    tag_412:\n        /* \"#utility.yul\":3569:3632   */\n      swap3\n      pop\n        /* \"#utility.yul\":3523:3642   */\n      pop\n        /* \"#utility.yul\":3681:3684   */\n      0xa0\n        /* \"#utility.yul\":3708:3761   */\n      tag_413\n        /* \"#utility.yul\":3753:3760   */\n      dup10\n        /* \"#utility.yul\":3744:3750   */\n      dup3\n        /* \"#utility.yul\":3733:3742   */\n      dup11\n        /* \"#utility.yul\":3729:3751   */\n      add\n        /* \"#utility.yul\":3708:3761   */\n      tag_386\n      jump\t// in\n    tag_413:\n        /* \"#utility.yul\":3698:3761   */\n      swap2\n      pop\n        /* \"#utility.yul\":3652:3771   */\n      pop\n        /* \"#utility.yul\":2939:3778   */\n      swap3\n      swap6\n      pop\n      swap3\n      swap6\n      pop\n      swap3\n      swap6\n      jump\t// out\n        /* \"#utility.yul\":3784:4191   */\n    tag_45:\n        /* \"#utility.yul\":3852:3858   */\n      0x00\n        /* \"#utility.yul\":3860:3866   */\n      dup1\n        /* \"#utility.yul\":3909:3911   */\n      0x40\n        /* \"#utility.yul\":3897:3906   */\n      dup4\n        /* \"#utility.yul\":3888:3895   */\n      dup6\n        /* \"#utility.yul\":3884:3907   */\n      sub\n        /* \"#utility.yul\":3880:3912   */\n      slt\n        /* \"#utility.yul\":3877:3879   */\n      iszero\n      tag_415\n      jumpi\n        /* \"#utility.yul\":3925:3926   */\n      0x00\n        /* \"#utility.yul\":3922:3923   */\n      dup1\n        /* \"#utility.yul\":3915:3927   */\n      revert\n        /* \"#utility.yul\":3877:3879   */\n    tag_415:\n        /* \"#utility.yul\":3968:3969   */\n      0x00\n        /* \"#utility.yul\":3993:4046   */\n      tag_416\n        /* \"#utility.yul\":4038:4045   */\n      dup6\n        /* \"#utility.yul\":4029:4035   */\n      dup3\n        /* \"#utility.yul\":4018:4027   */\n      dup7\n        /* \"#utility.yul\":4014:4036   */\n      add\n        /* \"#utility.yul\":3993:4046   */\n      tag_370\n      jump\t// in\n    tag_416:\n        /* \"#utility.yul\":3983:4046   */\n      swap3\n      pop\n        /* \"#utility.yul\":3939:4056   */\n      pop\n        /* \"#utility.yul\":4095:4097   */\n      0x20\n        /* \"#utility.yul\":4121:4174   */\n      tag_417\n        /* \"#utility.yul\":4166:4173   */\n      dup6\n        /* \"#utility.yul\":4157:4163   */\n      dup3\n        /* \"#utility.yul\":4146:4155   */\n      dup7\n        /* \"#utility.yul\":4142:4164   */\n      add\n        /* \"#utility.yul\":4121:4174   */\n      tag_386\n      jump\t// in\n    tag_417:\n        /* \"#utility.yul\":4111:4174   */\n      swap2\n      pop\n        /* \"#utility.yul\":4066:4184   */\n      pop\n        /* \"#utility.yul\":3867:4191   */\n      swap3\n      pop\n      swap3\n      swap1\n      pop\n      jump\t// out\n        /* \"#utility.yul\":4197:4749   */\n    tag_71:\n        /* \"#utility.yul\":4274:4280   */\n      0x00\n        /* \"#utility.yul\":4282:4288   */\n      dup1\n        /* \"#utility.yul\":4290:4296   */\n      0x00\n        /* \"#utility.yul\":4339:4341   */\n      0x60\n        /* \"#utility.yul\":4327:4336   */\n      dup5\n        /* \"#utility.yul\":4318:4325   */\n      dup7\n        /* \"#utility.yul\":4314:4337   */\n      sub\n        /* \"#utility.yul\":4310:4342   */\n      slt\n        /* \"#utility.yul\":4307:4309   */\n      iszero\n      tag_419\n      jumpi\n        /* \"#utility.yul\":4355:4356   */\n      0x00\n        /* \"#utility.yul\":4352:4353   */\n      dup1\n        /* \"#utility.yul\":4345:4357   */\n      revert\n        /* \"#utility.yul\":4307:4309   */\n    tag_419:\n        /* \"#utility.yul\":4398:4399   */\n      0x00\n        /* \"#utility.yul\":4423:4476   */\n      tag_420\n        /* \"#utility.yul\":4468:4475   */\n      dup7\n        /* \"#utility.yul\":4459:4465   */\n      dup3\n        /* \"#utility.yul\":4448:4457   */\n      dup8\n        /* \"#utility.yul\":4444:4466   */\n      add\n        /* \"#utility.yul\":4423:4476   */\n      tag_370\n      jump\t// in\n    tag_420:\n        /* \"#utility.yul\":4413:4476   */\n      swap4\n      pop\n        /* \"#utility.yul\":4369:4486   */\n      pop\n        /* \"#utility.yul\":4525:4527   */\n      0x20\n        /* \"#utility.yul\":4551:4604   */\n      tag_421\n        /* \"#utility.yul\":4596:4603   */\n      dup7\n        /* \"#utility.yul\":4587:4593   */\n      dup3\n        /* \"#utility.yul\":4576:4585   */\n      dup8\n        /* \"#utility.yul\":4572:4594   */\n      add\n        /* \"#utility.yul\":4551:4604   */\n      tag_386\n      jump\t// in\n    tag_421:\n        /* \"#utility.yul\":4541:4604   */\n      swap3\n      pop\n        /* \"#utility.yul\":4496:4614   */\n      pop\n        /* \"#utility.yul\":4653:4655   */\n      0x40\n        /* \"#utility.yul\":4679:4732   */\n      tag_422\n        /* \"#utility.yul\":4724:4731   */\n      dup7\n        /* \"#utility.yul\":4715:4721   */\n      dup3\n        /* \"#utility.yul\":4704:4713   */\n      dup8\n        /* \"#utility.yul\":4700:4722   */\n      add\n        /* \"#utility.yul\":4679:4732   */\n      tag_370\n      jump\t// in\n    tag_422:\n        /* \"#utility.yul\":4669:4732   */\n      swap2\n      pop\n        /* \"#utility.yul\":4624:4742   */\n      pop\n        /* \"#utility.yul\":4297:4749   */\n      swap3\n      pop\n      swap3\n      pop\n      swap3\n      jump\t// out\n        /* \"#utility.yul\":4755:5307   */\n    tag_33:\n        /* \"#utility.yul\":4832:4838   */\n      0x00\n        /* \"#utility.yul\":4840:4846   */\n      dup1\n        /* \"#utility.yul\":4848:4854   */\n      0x00\n        /* \"#utility.yul\":4897:4899   */\n      0x60\n        /* \"#utility.yul\":4885:4894   */\n      dup5\n        /* \"#utility.yul\":4876:4883   */\n      dup7\n        /* \"#utility.yul\":4872:4895   */\n      sub\n        /* \"#utility.yul\":4868:4900   */\n      slt\n        /* \"#utility.yul\":4865:4867   */\n      iszero\n      tag_424\n      jumpi\n        /* \"#utility.yul\":4913:4914   */\n      0x00\n        /* \"#utility.yul\":4910:4911   */\n      dup1\n        /* \"#utility.yul\":4903:4915   */\n      revert\n        /* \"#utility.yul\":4865:4867   */\n    tag_424:\n        /* \"#utility.yul\":4956:4957   */\n      0x00\n        /* \"#utility.yul\":4981:5034   */\n      tag_425\n        /* \"#utility.yul\":5026:5033   */\n      dup7\n        /* \"#utility.yul\":5017:5023   */\n      dup3\n        /* \"#utility.yul\":5006:5015   */\n      dup8\n        /* \"#utility.yul\":5002:5024   */\n      add\n        /* \"#utility.yul\":4981:5034   */\n      tag_370\n      jump\t// in\n    tag_425:\n        /* \"#utility.yul\":4971:5034   */\n      swap4\n      pop\n        /* \"#utility.yul\":4927:5044   */\n      pop\n        /* \"#utility.yul\":5083:5085   */\n      0x20\n        /* \"#utility.yul\":5109:5162   */\n      tag_426\n        /* \"#utility.yul\":5154:5161   */\n      dup7\n        /* \"#utility.yul\":5145:5151   */\n      dup3\n        /* \"#utility.yul\":5134:5143   */\n      dup8\n        /* \"#utility.yul\":5130:5152   */\n      add\n        /* \"#utility.yul\":5109:5162   */\n      tag_386\n      jump\t// in\n    tag_426:\n        /* \"#utility.yul\":5099:5162   */\n      swap3\n      pop\n        /* \"#utility.yul\":5054:5172   */\n      pop\n        /* \"#utility.yul\":5211:5213   */\n      0x40\n        /* \"#utility.yul\":5237:5290   */\n      tag_427\n        /* \"#utility.yul\":5282:5289   */\n      dup7\n        /* \"#utility.yul\":5273:5279   */\n      dup3\n        /* \"#utility.yul\":5262:5271   */\n      dup8\n        /* \"#utility.yul\":5258:5280   */\n      add\n        /* \"#utility.yul\":5237:5290   */\n      tag_386\n      jump\t// in\n    tag_427:\n        /* \"#utility.yul\":5227:5290   */\n      swap2\n      pop\n        /* \"#utility.yul\":5182:5300   */\n      pop\n        /* \"#utility.yul\":4855:5307   */\n      swap3\n      pop\n      swap3\n      pop\n      swap3\n      jump\t// out\n        /* \"#utility.yul\":5313:5591   */\n    tag_208:\n        /* \"#utility.yul\":5380:5386   */\n      0x00\n        /* \"#utility.yul\":5429:5431   */\n      0x20\n        /* \"#utility.yul\":5417:5426   */\n      dup3\n        /* \"#utility.yul\":5408:5415   */\n      dup5\n        /* \"#utility.yul\":5404:5427   */\n      sub\n        /* \"#utility.yul\":5400:5432   */\n      slt\n        /* \"#utility.yul\":5397:5399   */\n      iszero\n      tag_429\n      jumpi\n        /* \"#utility.yul\":5445:5446   */\n      0x00\n        /* \"#utility.yul\":5442:5443   */\n      dup1\n        /* \"#utility.yul\":5435:5447   */\n      revert\n        /* \"#utility.yul\":5397:5399   */\n    tag_429:\n        /* \"#utility.yul\":5488:5489   */\n      0x00\n        /* \"#utility.yul\":5513:5574   */\n      tag_430\n        /* \"#utility.yul\":5566:5573   */\n      dup5\n        /* \"#utility.yul\":5557:5563   */\n      dup3\n        /* \"#utility.yul\":5546:5555   */\n      dup6\n        /* \"#utility.yul\":5542:5564   */\n      add\n        /* \"#utility.yul\":5513:5574   */\n      tag_377\n      jump\t// in\n    tag_430:\n        /* \"#utility.yul\":5503:5574   */\n      swap2\n      pop\n        /* \"#utility.yul\":5459:5584   */\n      pop\n        /* \"#utility.yul\":5387:5591   */\n      swap3\n      swap2\n      pop\n      pop\n      jump\t// out\n        /* \"#utility.yul\":5597:5876   */\n    tag_431:\n        /* \"#utility.yul\":5716:5726   */\n      0x00\n        /* \"#utility.yul\":5737:5833   */\n      tag_433\n        /* \"#utility.yul\":5829:5832   */\n      dup4\n        /* \"#utility.yul\":5821:5827   */\n      dup4\n        /* \"#utility.yul\":5737:5833   */\n      tag_434\n      jump\t// in\n    tag_433:\n        /* \"#utility.yul\":5865:5869   */\n      0x40\n        /* \"#utility.yul\":5860:5863   */\n      dup4\n        /* \"#utility.yul\":5856:5870   */\n      add\n        /* \"#utility.yul\":5842:5870   */\n      swap1\n      pop\n        /* \"#utility.yul\":5727:5876   */\n      swap3\n      swap2\n      pop\n      pop\n      jump\t// out\n        /* \"#utility.yul\":5882:5990   */\n    tag_435:\n        /* \"#utility.yul\":5959:5983   */\n      tag_437\n        /* \"#utility.yul\":5977:5982   */\n      dup2\n        /* \"#utility.yul\":5959:5983   */\n      tag_438\n      jump\t// in\n    tag_437:\n        /* \"#utility.yul\":5954:5957   */\n      dup3\n        /* \"#utility.yul\":5947:5984   */\n      mstore\n        /* \"#utility.yul\":5937:5990   */\n      pop\n      pop\n      jump\t// out\n        /* \"#utility.yul\":5996:6114   */\n    tag_439:\n        /* \"#utility.yul\":6083:6107   */\n      tag_441\n        /* \"#utility.yul\":6101:6106   */\n      dup2\n        /* \"#utility.yul\":6083:6107   */\n      tag_438\n      jump\t// in\n    tag_441:\n        /* \"#utility.yul\":6078:6081   */\n      dup3\n        /* \"#utility.yul\":6071:6108   */\n      mstore\n        /* \"#utility.yul\":6061:6114   */\n      pop\n      pop\n      jump\t// out\n        /* \"#utility.yul\":6196:7128   */\n    tag_442:\n        /* \"#utility.yul\":6365:6368   */\n      0x00\n        /* \"#utility.yul\":6394:6473   */\n      tag_444\n        /* \"#utility.yul\":6467:6472   */\n      dup3\n        /* \"#utility.yul\":6394:6473   */\n      tag_445\n      jump\t// in\n    tag_444:\n        /* \"#utility.yul\":6489:6600   */\n      tag_446\n        /* \"#utility.yul\":6593:6599   */\n      dup2\n        /* \"#utility.yul\":6588:6591   */\n      dup6\n        /* \"#utility.yul\":6489:6600   */\n      tag_447\n      jump\t// in\n    tag_446:\n        /* \"#utility.yul\":6482:6600   */\n      swap4\n      pop\n        /* \"#utility.yul\":6624:6705   */\n      tag_448\n        /* \"#utility.yul\":6699:6704   */\n      dup4\n        /* \"#utility.yul\":6624:6705   */\n      tag_449\n      jump\t// in\n    tag_448:\n        /* \"#utility.yul\":6728:6735   */\n      dup1\n        /* \"#utility.yul\":6759:6760   */\n      0x00\n        /* \"#utility.yul\":6744:7103   */\n    tag_450:\n        /* \"#utility.yul\":6769:6775   */\n      dup4\n        /* \"#utility.yul\":6766:6767   */\n      dup2\n        /* \"#utility.yul\":6763:6776   */\n      lt\n        /* \"#utility.yul\":6744:7103   */\n      iszero\n      tag_452\n      jumpi\n        /* \"#utility.yul\":6845:6851   */\n      dup2\n        /* \"#utility.yul\":6839:6852   */\n      mload\n        /* \"#utility.yul\":6872:6985   */\n      tag_453\n        /* \"#utility.yul\":6981:6984   */\n      dup9\n        /* \"#utility.yul\":6966:6979   */\n      dup3\n        /* \"#utility.yul\":6872:6985   */\n      tag_431\n      jump\t// in\n    tag_453:\n        /* \"#utility.yul\":6865:6985   */\n      swap8\n      pop\n        /* \"#utility.yul\":7008:7093   */\n      tag_454\n        /* \"#utility.yul\":7086:7092   */\n      dup4\n        /* \"#utility.yul\":7008:7093   */\n      tag_455\n      jump\t// in\n    tag_454:\n        /* \"#utility.yul\":6998:7093   */\n      swap3\n      pop\n        /* \"#utility.yul\":6804:7103   */\n      pop\n        /* \"#utility.yul\":6791:6792   */\n      0x01\n        /* \"#utility.yul\":6788:6789   */\n      dup2\n        /* \"#utility.yul\":6784:6793   */\n      add\n        /* \"#utility.yul\":6779:6793   */\n      swap1\n      pop\n        /* \"#utility.yul\":6744:7103   */\n      jump(tag_450)\n    tag_452:\n        /* \"#utility.yul\":6748:6762   */\n      pop\n        /* \"#utility.yul\":7119:7122   */\n      dup6\n        /* \"#utility.yul\":7112:7122   */\n      swap4\n      pop\n        /* \"#utility.yul\":6370:7128   */\n      pop\n      pop\n      pop\n      swap3\n      swap2\n      pop\n      pop\n      jump\t// out\n        /* \"#utility.yul\":7134:7249   */\n    tag_456:\n        /* \"#utility.yul\":7219:7242   */\n      tag_458\n        /* \"#utility.yul\":7236:7241   */\n      dup2\n        /* \"#utility.yul\":7219:7242   */\n      tag_459\n      jump\t// in\n    tag_458:\n        /* \"#utility.yul\":7214:7217   */\n      dup3\n        /* \"#utility.yul\":7207:7243   */\n      mstore\n        /* \"#utility.yul\":7197:7249   */\n      pop\n      pop\n      jump\t// out\n        /* \"#utility.yul\":7255:7621   */\n    tag_460:\n        /* \"#utility.yul\":7397:7400   */\n      0x00\n        /* \"#utility.yul\":7418:7485   */\n      tag_462\n        /* \"#utility.yul\":7482:7484   */\n      0x16\n        /* \"#utility.yul\":7477:7480   */\n      dup4\n        /* \"#utility.yul\":7418:7485   */\n      tag_463\n      jump\t// in\n    tag_462:\n        /* \"#utility.yul\":7411:7485   */\n      swap2\n      pop\n        /* \"#utility.yul\":7494:7587   */\n      tag_464\n        /* \"#utility.yul\":7583:7586   */\n      dup3\n        /* \"#utility.yul\":7494:7587   */\n      tag_465\n      jump\t// in\n    tag_464:\n        /* \"#utility.yul\":7612:7614   */\n      0x20\n        /* \"#utility.yul\":7607:7610   */\n      dup3\n        /* \"#utility.yul\":7603:7615   */\n      add\n        /* \"#utility.yul\":7596:7615   */\n      swap1\n      pop\n        /* \"#utility.yul\":7401:7621   */\n      swap2\n      swap1\n      pop\n      jump\t// out\n        /* \"#utility.yul\":7627:7993   */\n    tag_466:\n        /* \"#utility.yul\":7769:7772   */\n      0x00\n        /* \"#utility.yul\":7790:7857   */\n      tag_468\n        /* \"#utility.yul\":7854:7856   */\n      0x1c\n        /* \"#utility.yul\":7849:7852   */\n      dup4\n        /* \"#utility.yul\":7790:7857   */\n      tag_463\n      jump\t// in\n    tag_468:\n        /* \"#utility.yul\":7783:7857   */\n      swap2\n      pop\n        /* \"#utility.yul\":7866:7959   */\n      tag_469\n        /* \"#utility.yul\":7955:7958   */\n      dup3\n        /* \"#utility.yul\":7866:7959   */\n      tag_470\n      jump\t// in\n    tag_469:\n        /* \"#utility.yul\":7984:7986   */\n      0x20\n        /* \"#utility.yul\":7979:7982   */\n      dup3\n        /* \"#utility.yul\":7975:7987   */\n      add\n        /* \"#utility.yul\":7968:7987   */\n      swap1\n      pop\n        /* \"#utility.yul\":7773:7993   */\n      swap2\n      swap1\n      pop\n      jump\t// out\n        /* \"#utility.yul\":7999:8365   */\n    tag_471:\n        /* \"#utility.yul\":8141:8144   */\n      0x00\n        /* \"#utility.yul\":8162:8229   */\n      tag_473\n        /* \"#utility.yul\":8226:8228   */\n      0x11\n        /* \"#utility.yul\":8221:8224   */\n      dup4\n        /* \"#utility.yul\":8162:8229   */\n      tag_463\n      jump\t// in\n    tag_473:\n        /* \"#utility.yul\":8155:8229   */\n      swap2\n      pop\n        /* \"#utility.yul\":8238:8331   */\n      tag_474\n        /* \"#utility.yul\":8327:8330   */\n      dup3\n        /* \"#utility.yul\":8238:8331   */\n      tag_475\n      jump\t// in\n    tag_474:\n        /* \"#utility.yul\":8356:8358   */\n      0x20\n        /* \"#utility.yul\":8351:8354   */\n      dup3\n        /* \"#utility.yul\":8347:8359   */\n      add\n        /* \"#utility.yul\":8340:8359   */\n      swap1\n      pop\n        /* \"#utility.yul\":8145:8365   */\n      swap2\n      swap1\n      pop\n      jump\t// out\n        /* \"#utility.yul\":8371:8737   */\n    tag_476:\n        /* \"#utility.yul\":8513:8516   */\n      0x00\n        /* \"#utility.yul\":8534:8601   */\n      tag_478\n        /* \"#utility.yul\":8598:8600   */\n      0x0d\n        /* \"#utility.yul\":8593:8596   */\n      dup4\n        /* \"#utility.yul\":8534:8601   */\n      tag_463\n      jump\t// in\n    tag_478:\n        /* \"#utility.yul\":8527:8601   */\n      swap2\n      pop\n        /* \"#utility.yul\":8610:8703   */\n      tag_479\n        /* \"#utility.yul\":8699:8702   */\n      dup3\n        /* \"#utility.yul\":8610:8703   */\n      tag_480\n      jump\t// in\n    tag_479:\n        /* \"#utility.yul\":8728:8730   */\n      0x20\n        /* \"#utility.yul\":8723:8726   */\n      dup3\n        /* \"#utility.yul\":8719:8731   */\n      add\n        /* \"#utility.yul\":8712:8731   */\n      swap1\n      pop\n        /* \"#utility.yul\":8517:8737   */\n      swap2\n      swap1\n      pop\n      jump\t// out\n        /* \"#utility.yul\":8743:9109   */\n    tag_481:\n        /* \"#utility.yul\":8885:8888   */\n      0x00\n        /* \"#utility.yul\":8906:8973   */\n      tag_483\n        /* \"#utility.yul\":8970:8972   */\n      0x15\n        /* \"#utility.yul\":8965:8968   */\n      dup4\n        /* \"#utility.yul\":8906:8973   */\n      tag_463\n      jump\t// in\n    tag_483:\n        /* \"#utility.yul\":8899:8973   */\n      swap2\n      pop\n        /* \"#utility.yul\":8982:9075   */\n      tag_484\n        /* \"#utility.yul\":9071:9074   */\n      dup3\n        /* \"#utility.yul\":8982:9075   */\n      tag_485\n      jump\t// in\n    tag_484:\n        /* \"#utility.yul\":9100:9102   */\n      0x20\n        /* \"#utility.yul\":9095:9098   */\n      dup3\n        /* \"#utility.yul\":9091:9103   */\n      add\n        /* \"#utility.yul\":9084:9103   */\n      swap1\n      pop\n        /* \"#utility.yul\":8889:9109   */\n      swap2\n      swap1\n      pop\n      jump\t// out\n        /* \"#utility.yul\":9115:9481   */\n    tag_486:\n        /* \"#utility.yul\":9257:9260   */\n      0x00\n        /* \"#utility.yul\":9278:9345   */\n      tag_488\n        /* \"#utility.yul\":9342:9344   */\n      0x17\n        /* \"#utility.yul\":9337:9340   */\n      dup4\n        /* \"#utility.yul\":9278:9345   */\n      tag_463\n      jump\t// in\n    tag_488:\n        /* \"#utility.yul\":9271:9345   */\n      swap2\n      pop\n        /* \"#utility.yul\":9354:9447   */\n      tag_489\n        /* \"#utility.yul\":9443:9446   */\n      dup3\n        /* \"#utility.yul\":9354:9447   */\n      tag_490\n      jump\t// in\n    tag_489:\n        /* \"#utility.yul\":9472:9474   */\n      0x20\n        /* \"#utility.yul\":9467:9470   */\n      dup3\n        /* \"#utility.yul\":9463:9475   */\n      add\n        /* \"#utility.yul\":9456:9475   */\n      swap1\n      pop\n        /* \"#utility.yul\":9261:9481   */\n      swap2\n      swap1\n      pop\n      jump\t// out\n        /* \"#utility.yul\":9487:9853   */\n    tag_491:\n        /* \"#utility.yul\":9629:9632   */\n      0x00\n        /* \"#utility.yul\":9650:9717   */\n      tag_493\n        /* \"#utility.yul\":9714:9716   */\n      0x1d\n        /* \"#utility.yul\":9709:9712   */\n      dup4\n        /* \"#utility.yul\":9650:9717   */\n      tag_463\n      jump\t// in\n    tag_493:\n        /* \"#utility.yul\":9643:9717   */\n      swap2\n      pop\n        /* \"#utility.yul\":9726:9819   */\n      tag_494\n        /* \"#utility.yul\":9815:9818   */\n      dup3\n        /* \"#utility.yul\":9726:9819   */\n      tag_495\n      jump\t// in\n    tag_494:\n        /* \"#utility.yul\":9844:9846   */\n      0x20\n        /* \"#utility.yul\":9839:9842   */\n      dup3\n        /* \"#utility.yul\":9835:9847   */\n      add\n        /* \"#utility.yul\":9828:9847   */\n      swap1\n      pop\n        /* \"#utility.yul\":9633:9853   */\n      swap2\n      swap1\n      pop\n      jump\t// out\n        /* \"#utility.yul\":9859:10225   */\n    tag_496:\n        /* \"#utility.yul\":10001:10004   */\n      0x00\n        /* \"#utility.yul\":10022:10089   */\n      tag_498\n        /* \"#utility.yul\":10086:10088   */\n      0x0b\n        /* \"#utility.yul\":10081:10084   */\n      dup4\n        /* \"#utility.yul\":10022:10089   */\n      tag_463\n      jump\t// in\n    tag_498:\n        /* \"#utility.yul\":10015:10089   */\n      swap2\n      pop\n        /* \"#utility.yul\":10098:10191   */\n      tag_499\n        /* \"#utility.yul\":10187:10190   */\n      dup3\n        /* \"#utility.yul\":10098:10191   */\n      tag_500\n      jump\t// in\n    tag_499:\n        /* \"#utility.yul\":10216:10218   */\n      0x20\n        /* \"#utility.yul\":10211:10214   */\n      dup3\n        /* \"#utility.yul\":10207:10219   */\n      add\n        /* \"#utility.yul\":10200:10219   */\n      swap1\n      pop\n        /* \"#utility.yul\":10005:10225   */\n      swap2\n      swap1\n      pop\n      jump\t// out\n        /* \"#utility.yul\":10231:10597   */\n    tag_501:\n        /* \"#utility.yul\":10373:10376   */\n      0x00\n        /* \"#utility.yul\":10394:10461   */\n      tag_503\n        /* \"#utility.yul\":10458:10460   */\n      0x13\n        /* \"#utility.yul\":10453:10456   */\n      dup4\n        /* \"#utility.yul\":10394:10461   */\n      tag_463\n      jump\t// in\n    tag_503:\n        /* \"#utility.yul\":10387:10461   */\n      swap2\n      pop\n        /* \"#utility.yul\":10470:10563   */\n      tag_504\n        /* \"#utility.yul\":10559:10562   */\n      dup3\n        /* \"#utility.yul\":10470:10563   */\n      tag_505\n      jump\t// in\n    tag_504:\n        /* \"#utility.yul\":10588:10590   */\n      0x20\n        /* \"#utility.yul\":10583:10586   */\n      dup3\n        /* \"#utility.yul\":10579:10591   */\n      add\n        /* \"#utility.yul\":10572:10591   */\n      swap1\n      pop\n        /* \"#utility.yul\":10377:10597   */\n      swap2\n      swap1\n      pop\n      jump\t// out\n        /* \"#utility.yul\":10603:10968   */\n    tag_506:\n        /* \"#utility.yul\":10745:10748   */\n      0x00\n        /* \"#utility.yul\":10766:10832   */\n      tag_508\n        /* \"#utility.yul\":10830:10831   */\n      0x08\n        /* \"#utility.yul\":10825:10828   */\n      dup4\n        /* \"#utility.yul\":10766:10832   */\n      tag_463\n      jump\t// in\n    tag_508:\n        /* \"#utility.yul\":10759:10832   */\n      swap2\n      pop\n        /* \"#utility.yul\":10841:10934   */\n      tag_509\n        /* \"#utility.yul\":10930:10933   */\n      dup3\n        /* \"#utility.yul\":10841:10934   */\n      tag_510\n      jump\t// in\n    tag_509:\n        /* \"#utility.yul\":10959:10961   */\n      0x20\n        /* \"#utility.yul\":10954:10957   */\n      dup3\n        /* \"#utility.yul\":10950:10962   */\n      add\n        /* \"#utility.yul\":10943:10962   */\n      swap1\n      pop\n        /* \"#utility.yul\":10749:10968   */\n      swap2\n      swap1\n      pop\n      jump\t// out\n        /* \"#utility.yul\":10974:11340   */\n    tag_511:\n        /* \"#utility.yul\":11116:11119   */\n      0x00\n        /* \"#utility.yul\":11137:11204   */\n      tag_513\n        /* \"#utility.yul\":11201:11203   */\n      0x14\n        /* \"#utility.yul\":11196:11199   */\n      dup4\n        /* \"#utility.yul\":11137:11204   */\n      tag_463\n      jump\t// in\n    tag_513:\n        /* \"#utility.yul\":11130:11204   */\n      swap2\n      pop\n        /* \"#utility.yul\":11213:11306   */\n      tag_514\n        /* \"#utility.yul\":11302:11305   */\n      dup3\n        /* \"#utility.yul\":11213:11306   */\n      tag_515\n      jump\t// in\n    tag_514:\n        /* \"#utility.yul\":11331:11333   */\n      0x20\n        /* \"#utility.yul\":11326:11329   */\n      dup3\n        /* \"#utility.yul\":11322:11334   */\n      add\n        /* \"#utility.yul\":11315:11334   */\n      swap1\n      pop\n        /* \"#utility.yul\":11120:11340   */\n      swap2\n      swap1\n      pop\n      jump\t// out\n        /* \"#utility.yul\":11346:11712   */\n    tag_516:\n        /* \"#utility.yul\":11488:11491   */\n      0x00\n        /* \"#utility.yul\":11509:11576   */\n      tag_518\n        /* \"#utility.yul\":11573:11575   */\n      0x0f\n        /* \"#utility.yul\":11568:11571   */\n      dup4\n        /* \"#utility.yul\":11509:11576   */\n      tag_463\n      jump\t// in\n    tag_518:\n        /* \"#utility.yul\":11502:11576   */\n      swap2\n      pop\n        /* \"#utility.yul\":11585:11678   */\n      tag_519\n        /* \"#utility.yul\":11674:11677   */\n      dup3\n        /* \"#utility.yul\":11585:11678   */\n      tag_520\n      jump\t// in\n    tag_519:\n        /* \"#utility.yul\":11703:11705   */\n      0x20\n        /* \"#utility.yul\":11698:11701   */\n      dup3\n        /* \"#utility.yul\":11694:11706   */\n      add\n        /* \"#utility.yul\":11687:11706   */\n      swap1\n      pop\n        /* \"#utility.yul\":11492:11712   */\n      swap2\n      swap1\n      pop\n      jump\t// out\n        /* \"#utility.yul\":11718:12084   */\n    tag_521:\n        /* \"#utility.yul\":11860:11863   */\n      0x00\n        /* \"#utility.yul\":11881:11948   */\n      tag_523\n        /* \"#utility.yul\":11945:11947   */\n      0x15\n        /* \"#utility.yul\":11940:11943   */\n      dup4\n        /* \"#utility.yul\":11881:11948   */\n      tag_463\n      jump\t// in\n    tag_523:\n        /* \"#utility.yul\":11874:11948   */\n      swap2\n      pop\n        /* \"#utility.yul\":11957:12050   */\n      tag_524\n        /* \"#utility.yul\":12046:12049   */\n      dup3\n        /* \"#utility.yul\":11957:12050   */\n      tag_525\n      jump\t// in\n    tag_524:\n        /* \"#utility.yul\":12075:12077   */\n      0x20\n        /* \"#utility.yul\":12070:12073   */\n      dup3\n        /* \"#utility.yul\":12066:12078   */\n      add\n        /* \"#utility.yul\":12059:12078   */\n      swap1\n      pop\n        /* \"#utility.yul\":11864:12084   */\n      swap2\n      swap1\n      pop\n      jump\t// out\n        /* \"#utility.yul\":12090:12488   */\n    tag_526:\n        /* \"#utility.yul\":12249:12252   */\n      0x00\n        /* \"#utility.yul\":12270:12353   */\n      tag_528\n        /* \"#utility.yul\":12351:12352   */\n      0x00\n        /* \"#utility.yul\":12346:12349   */\n      dup4\n        /* \"#utility.yul\":12270:12353   */\n      tag_529\n      jump\t// in\n    tag_528:\n        /* \"#utility.yul\":12263:12353   */\n      swap2\n      pop\n        /* \"#utility.yul\":12362:12455   */\n      tag_530\n        /* \"#utility.yul\":12451:12454   */\n      dup3\n        /* \"#utility.yul\":12362:12455   */\n      tag_531\n      jump\t// in\n    tag_530:\n        /* \"#utility.yul\":12480:12481   */\n      0x00\n        /* \"#utility.yul\":12475:12478   */\n      dup3\n        /* \"#utility.yul\":12471:12482   */\n      add\n        /* \"#utility.yul\":12464:12482   */\n      swap1\n      pop\n        /* \"#utility.yul\":12253:12488   */\n      swap2\n      swap1\n      pop\n      jump\t// out\n        /* \"#utility.yul\":12494:12860   */\n    tag_532:\n        /* \"#utility.yul\":12636:12639   */\n      0x00\n        /* \"#utility.yul\":12657:12724   */\n      tag_534\n        /* \"#utility.yul\":12721:12723   */\n      0x13\n        /* \"#utility.yul\":12716:12719   */\n      dup4\n        /* \"#utility.yul\":12657:12724   */\n      tag_463\n      jump\t// in\n    tag_534:\n        /* \"#utility.yul\":12650:12724   */\n      swap2\n      pop\n        /* \"#utility.yul\":12733:12826   */\n      tag_535\n        /* \"#utility.yul\":12822:12825   */\n      dup3\n        /* \"#utility.yul\":12733:12826   */\n      tag_536\n      jump\t// in\n    tag_535:\n        /* \"#utility.yul\":12851:12853   */\n      0x20\n        /* \"#utility.yul\":12846:12849   */\n      dup3\n        /* \"#utility.yul\":12842:12854   */\n      add\n        /* \"#utility.yul\":12835:12854   */\n      swap1\n      pop\n        /* \"#utility.yul\":12640:12860   */\n      swap2\n      swap1\n      pop\n      jump\t// out\n        /* \"#utility.yul\":12866:13232   */\n    tag_537:\n        /* \"#utility.yul\":13008:13011   */\n      0x00\n        /* \"#utility.yul\":13029:13096   */\n      tag_539\n        /* \"#utility.yul\":13093:13095   */\n      0x14\n        /* \"#utility.yul\":13088:13091   */\n      dup4\n        /* \"#utility.yul\":13029:13096   */\n      tag_463\n      jump\t// in\n    tag_539:\n        /* \"#utility.yul\":13022:13096   */\n      swap2\n      pop\n        /* \"#utility.yul\":13105:13198   */\n      tag_540\n        /* \"#utility.yul\":13194:13197   */\n      dup3\n        /* \"#utility.yul\":13105:13198   */\n      tag_541\n      jump\t// in\n    tag_540:\n        /* \"#utility.yul\":13223:13225   */\n      0x20\n        /* \"#utility.yul\":13218:13221   */\n      dup3\n        /* \"#utility.yul\":13214:13226   */\n      add\n        /* \"#utility.yul\":13207:13226   */\n      swap1\n      pop\n        /* \"#utility.yul\":13012:13232   */\n      swap2\n      swap1\n      pop\n      jump\t// out\n        /* \"#utility.yul\":13238:13604   */\n    tag_542:\n        /* \"#utility.yul\":13380:13383   */\n      0x00\n        /* \"#utility.yul\":13401:13468   */\n      tag_544\n        /* \"#utility.yul\":13465:13467   */\n      0x0d\n        /* \"#utility.yul\":13460:13463   */\n      dup4\n        /* \"#utility.yul\":13401:13468   */\n      tag_463\n      jump\t// in\n    tag_544:\n        /* \"#utility.yul\":13394:13468   */\n      swap2\n      pop\n        /* \"#utility.yul\":13477:13570   */\n      tag_545\n        /* \"#utility.yul\":13566:13569   */\n      dup3\n        /* \"#utility.yul\":13477:13570   */\n      tag_546\n      jump\t// in\n    tag_545:\n        /* \"#utility.yul\":13595:13597   */\n      0x20\n        /* \"#utility.yul\":13590:13593   */\n      dup3\n        /* \"#utility.yul\":13586:13598   */\n      add\n        /* \"#utility.yul\":13579:13598   */\n      swap1\n      pop\n        /* \"#utility.yul\":13384:13604   */\n      swap2\n      swap1\n      pop\n      jump\t// out\n        /* \"#utility.yul\":13680:15100   */\n    tag_547:\n        /* \"#utility.yul\":13825:13829   */\n      0xe0\n        /* \"#utility.yul\":13820:13823   */\n      dup3\n        /* \"#utility.yul\":13816:13830   */\n      add\n        /* \"#utility.yul\":13920:13924   */\n      0x00\n        /* \"#utility.yul\":13913:13918   */\n      dup3\n        /* \"#utility.yul\":13909:13925   */\n      add\n        /* \"#utility.yul\":13903:13926   */\n      mload\n        /* \"#utility.yul\":13939:14002   */\n      tag_549\n        /* \"#utility.yul\":13996:14000   */\n      0x00\n        /* \"#utility.yul\":13991:13994   */\n      dup6\n        /* \"#utility.yul\":13987:14001   */\n      add\n        /* \"#utility.yul\":13973:13985   */\n      dup3\n        /* \"#utility.yul\":13939:14002   */\n      tag_550\n      jump\t// in\n    tag_549:\n        /* \"#utility.yul\":13840:14012   */\n      pop\n        /* \"#utility.yul\":14100:14104   */\n      0x20\n        /* \"#utility.yul\":14093:14098   */\n      dup3\n        /* \"#utility.yul\":14089:14105   */\n      add\n        /* \"#utility.yul\":14083:14106   */\n      mload\n        /* \"#utility.yul\":14119:14182   */\n      tag_551\n        /* \"#utility.yul\":14176:14180   */\n      0x20\n        /* \"#utility.yul\":14171:14174   */\n      dup6\n        /* \"#utility.yul\":14167:14181   */\n      add\n        /* \"#utility.yul\":14153:14165   */\n      dup3\n        /* \"#utility.yul\":14119:14182   */\n      tag_550\n      jump\t// in\n    tag_551:\n        /* \"#utility.yul\":14022:14192   */\n      pop\n        /* \"#utility.yul\":14278:14282   */\n      0x40\n        /* \"#utility.yul\":14271:14276   */\n      dup3\n        /* \"#utility.yul\":14267:14283   */\n      add\n        /* \"#utility.yul\":14261:14284   */\n      mload\n        /* \"#utility.yul\":14297:14360   */\n      tag_552\n        /* \"#utility.yul\":14354:14358   */\n      0x40\n        /* \"#utility.yul\":14349:14352   */\n      dup6\n        /* \"#utility.yul\":14345:14359   */\n      add\n        /* \"#utility.yul\":14331:14343   */\n      dup3\n        /* \"#utility.yul\":14297:14360   */\n      tag_550\n      jump\t// in\n    tag_552:\n        /* \"#utility.yul\":14202:14370   */\n      pop\n        /* \"#utility.yul\":14461:14465   */\n      0x60\n        /* \"#utility.yul\":14454:14459   */\n      dup3\n        /* \"#utility.yul\":14450:14466   */\n      add\n        /* \"#utility.yul\":14444:14467   */\n      mload\n        /* \"#utility.yul\":14480:14543   */\n      tag_553\n        /* \"#utility.yul\":14537:14541   */\n      0x60\n        /* \"#utility.yul\":14532:14535   */\n      dup6\n        /* \"#utility.yul\":14528:14542   */\n      add\n        /* \"#utility.yul\":14514:14526   */\n      dup3\n        /* \"#utility.yul\":14480:14543   */\n      tag_550\n      jump\t// in\n    tag_553:\n        /* \"#utility.yul\":14380:14553   */\n      pop\n        /* \"#utility.yul\":14647:14651   */\n      0x80\n        /* \"#utility.yul\":14640:14645   */\n      dup3\n        /* \"#utility.yul\":14636:14652   */\n      add\n        /* \"#utility.yul\":14630:14653   */\n      mload\n        /* \"#utility.yul\":14666:14729   */\n      tag_554\n        /* \"#utility.yul\":14723:14727   */\n      0x80\n        /* \"#utility.yul\":14718:14721   */\n      dup6\n        /* \"#utility.yul\":14714:14728   */\n      add\n        /* \"#utility.yul\":14700:14712   */\n      dup3\n        /* \"#utility.yul\":14666:14729   */\n      tag_435\n      jump\t// in\n    tag_554:\n        /* \"#utility.yul\":14563:14739   */\n      pop\n        /* \"#utility.yul\":14826:14830   */\n      0xa0\n        /* \"#utility.yul\":14819:14824   */\n      dup3\n        /* \"#utility.yul\":14815:14831   */\n      add\n        /* \"#utility.yul\":14809:14832   */\n      mload\n        /* \"#utility.yul\":14845:14908   */\n      tag_555\n        /* \"#utility.yul\":14902:14906   */\n      0xa0\n        /* \"#utility.yul\":14897:14900   */\n      dup6\n        /* \"#utility.yul\":14893:14907   */\n      add\n        /* \"#utility.yul\":14879:14891   */\n      dup3\n        /* \"#utility.yul\":14845:14908   */\n      tag_435\n      jump\t// in\n    tag_555:\n        /* \"#utility.yul\":14749:14918   */\n      pop\n        /* \"#utility.yul\":15001:15005   */\n      0xc0\n        /* \"#utility.yul\":14994:14999   */\n      dup3\n        /* \"#utility.yul\":14990:15006   */\n      add\n        /* \"#utility.yul\":14984:15007   */\n      mload\n        /* \"#utility.yul\":15020:15083   */\n      tag_556\n        /* \"#utility.yul\":15077:15081   */\n      0xc0\n        /* \"#utility.yul\":15072:15075   */\n      dup6\n        /* \"#utility.yul\":15068:15082   */\n      add\n        /* \"#utility.yul\":15054:15066   */\n      dup3\n        /* \"#utility.yul\":15020:15083   */\n      tag_435\n      jump\t// in\n    tag_556:\n        /* \"#utility.yul\":14928:15093   */\n      pop\n        /* \"#utility.yul\":13794:15100   */\n      pop\n      pop\n      pop\n      jump\t// out\n        /* \"#utility.yul\":15180:16052   */\n    tag_557:\n        /* \"#utility.yul\":15329:15333   */\n      0x80\n        /* \"#utility.yul\":15324:15327   */\n      dup3\n        /* \"#utility.yul\":15320:15334   */\n      add\n        /* \"#utility.yul\":15421:15425   */\n      0x00\n        /* \"#utility.yul\":15414:15419   */\n      dup3\n        /* \"#utility.yul\":15410:15426   */\n      add\n        /* \"#utility.yul\":15404:15427   */\n      mload\n        /* \"#utility.yul\":15440:15503   */\n      tag_559\n        /* \"#utility.yul\":15497:15501   */\n      0x00\n        /* \"#utility.yul\":15492:15495   */\n      dup6\n        /* \"#utility.yul\":15488:15502   */\n      add\n        /* \"#utility.yul\":15474:15486   */\n      dup3\n        /* \"#utility.yul\":15440:15503   */\n      tag_435\n      jump\t// in\n    tag_559:\n        /* \"#utility.yul\":15344:15513   */\n      pop\n        /* \"#utility.yul\":15599:15603   */\n      0x20\n        /* \"#utility.yul\":15592:15597   */\n      dup3\n        /* \"#utility.yul\":15588:15604   */\n      add\n        /* \"#utility.yul\":15582:15605   */\n      mload\n        /* \"#utility.yul\":15618:15681   */\n      tag_560\n        /* \"#utility.yul\":15675:15679   */\n      0x20\n        /* \"#utility.yul\":15670:15673   */\n      dup6\n        /* \"#utility.yul\":15666:15680   */\n      add\n        /* \"#utility.yul\":15652:15664   */\n      dup3\n        /* \"#utility.yul\":15618:15681   */\n      tag_435\n      jump\t// in\n    tag_560:\n        /* \"#utility.yul\":15523:15691   */\n      pop\n        /* \"#utility.yul\":15774:15778   */\n      0x40\n        /* \"#utility.yul\":15767:15772   */\n      dup3\n        /* \"#utility.yul\":15763:15779   */\n      add\n        /* \"#utility.yul\":15757:15780   */\n      mload\n        /* \"#utility.yul\":15793:15856   */\n      tag_561\n        /* \"#utility.yul\":15850:15854   */\n      0x40\n        /* \"#utility.yul\":15845:15848   */\n      dup6\n        /* \"#utility.yul\":15841:15855   */\n      add\n        /* \"#utility.yul\":15827:15839   */\n      dup3\n        /* \"#utility.yul\":15793:15856   */\n      tag_435\n      jump\t// in\n    tag_561:\n        /* \"#utility.yul\":15701:15866   */\n      pop\n        /* \"#utility.yul\":15953:15957   */\n      0x60\n        /* \"#utility.yul\":15946:15951   */\n      dup3\n        /* \"#utility.yul\":15942:15958   */\n      add\n        /* \"#utility.yul\":15936:15959   */\n      mload\n        /* \"#utility.yul\":15972:16035   */\n      tag_562\n        /* \"#utility.yul\":16029:16033   */\n      0x60\n        /* \"#utility.yul\":16024:16027   */\n      dup6\n        /* \"#utility.yul\":16020:16034   */\n      add\n        /* \"#utility.yul\":16006:16018   */\n      dup3\n        /* \"#utility.yul\":15972:16035   */\n      tag_550\n      jump\t// in\n    tag_562:\n        /* \"#utility.yul\":15876:16045   */\n      pop\n        /* \"#utility.yul\":15298:16052   */\n      pop\n      pop\n      pop\n      jump\t// out\n        /* \"#utility.yul\":16130:16646   */\n    tag_434:\n        /* \"#utility.yul\":16267:16271   */\n      0x40\n        /* \"#utility.yul\":16262:16265   */\n      dup3\n        /* \"#utility.yul\":16258:16272   */\n      add\n        /* \"#utility.yul\":16369:16373   */\n      0x00\n        /* \"#utility.yul\":16362:16367   */\n      dup3\n        /* \"#utility.yul\":16358:16374   */\n      add\n        /* \"#utility.yul\":16352:16375   */\n      mload\n        /* \"#utility.yul\":16388:16451   */\n      tag_564\n        /* \"#utility.yul\":16445:16449   */\n      0x00\n        /* \"#utility.yul\":16440:16443   */\n      dup6\n        /* \"#utility.yul\":16436:16450   */\n      add\n        /* \"#utility.yul\":16422:16434   */\n      dup3\n        /* \"#utility.yul\":16388:16451   */\n      tag_435\n      jump\t// in\n    tag_564:\n        /* \"#utility.yul\":16282:16461   */\n      pop\n        /* \"#utility.yul\":16547:16551   */\n      0x20\n        /* \"#utility.yul\":16540:16545   */\n      dup3\n        /* \"#utility.yul\":16536:16552   */\n      add\n        /* \"#utility.yul\":16530:16553   */\n      mload\n        /* \"#utility.yul\":16566:16629   */\n      tag_565\n        /* \"#utility.yul\":16623:16627   */\n      0x20\n        /* \"#utility.yul\":16618:16621   */\n      dup6\n        /* \"#utility.yul\":16614:16628   */\n      add\n        /* \"#utility.yul\":16600:16612   */\n      dup3\n        /* \"#utility.yul\":16566:16629   */\n      tag_550\n      jump\t// in\n    tag_565:\n        /* \"#utility.yul\":16471:16639   */\n      pop\n        /* \"#utility.yul\":16236:16646   */\n      pop\n      pop\n      pop\n      jump\t// out\n        /* \"#utility.yul\":16652:16760   */\n    tag_550:\n        /* \"#utility.yul\":16729:16753   */\n      tag_567\n        /* \"#utility.yul\":16747:16752   */\n      dup2\n        /* \"#utility.yul\":16729:16753   */\n      tag_568\n      jump\t// in\n    tag_567:\n        /* \"#utility.yul\":16724:16727   */\n      dup3\n        /* \"#utility.yul\":16717:16754   */\n      mstore\n        /* \"#utility.yul\":16707:16760   */\n      pop\n      pop\n      jump\t// out\n        /* \"#utility.yul\":16766:16884   */\n    tag_569:\n        /* \"#utility.yul\":16853:16877   */\n      tag_571\n        /* \"#utility.yul\":16871:16876   */\n      dup2\n        /* \"#utility.yul\":16853:16877   */\n      tag_568\n      jump\t// in\n    tag_571:\n        /* \"#utility.yul\":16848:16851   */\n      dup3\n        /* \"#utility.yul\":16841:16878   */\n      mstore\n        /* \"#utility.yul\":16831:16884   */\n      pop\n      pop\n      jump\t// out\n        /* \"#utility.yul\":16890:17269   */\n    tag_362:\n        /* \"#utility.yul\":17074:17077   */\n      0x00\n        /* \"#utility.yul\":17096:17243   */\n      tag_573\n        /* \"#utility.yul\":17239:17242   */\n      dup3\n        /* \"#utility.yul\":17096:17243   */\n      tag_526\n      jump\t// in\n    tag_573:\n        /* \"#utility.yul\":17089:17243   */\n      swap2\n      pop\n        /* \"#utility.yul\":17260:17263   */\n      dup2\n        /* \"#utility.yul\":17253:17263   */\n      swap1\n      pop\n        /* \"#utility.yul\":17078:17269   */\n      swap2\n      swap1\n      pop\n      jump\t// out\n        /* \"#utility.yul\":17275:17607   */\n    tag_203:\n        /* \"#utility.yul\":17396:17400   */\n      0x00\n        /* \"#utility.yul\":17434:17436   */\n      0x40\n        /* \"#utility.yul\":17423:17432   */\n      dup3\n        /* \"#utility.yul\":17419:17437   */\n      add\n        /* \"#utility.yul\":17411:17437   */\n      swap1\n      pop\n        /* \"#utility.yul\":17447:17518   */\n      tag_575\n        /* \"#utility.yul\":17515:17516   */\n      0x00\n        /* \"#utility.yul\":17504:17513   */\n      dup4\n        /* \"#utility.yul\":17500:17517   */\n      add\n        /* \"#utility.yul\":17491:17497   */\n      dup6\n        /* \"#utility.yul\":17447:17518   */\n      tag_439\n      jump\t// in\n    tag_575:\n        /* \"#utility.yul\":17528:17600   */\n      tag_576\n        /* \"#utility.yul\":17596:17598   */\n      0x20\n        /* \"#utility.yul\":17585:17594   */\n      dup4\n        /* \"#utility.yul\":17581:17599   */\n      add\n        /* \"#utility.yul\":17572:17578   */\n      dup5\n        /* \"#utility.yul\":17528:17600   */\n      tag_439\n      jump\t// in\n    tag_576:\n        /* \"#utility.yul\":17401:17607   */\n      swap4\n      swap3\n      pop\n      pop\n      pop\n      jump\t// out\n        /* \"#utility.yul\":17613:18388   */\n    tag_223:\n        /* \"#utility.yul\":17846:17850   */\n      0x00\n        /* \"#utility.yul\":17884:17887   */\n      0xc0\n        /* \"#utility.yul\":17873:17882   */\n      dup3\n        /* \"#utility.yul\":17869:17888   */\n      add\n        /* \"#utility.yul\":17861:17888   */\n      swap1\n      pop\n        /* \"#utility.yul\":17898:17969   */\n      tag_578\n        /* \"#utility.yul\":17966:17967   */\n      0x00\n        /* \"#utility.yul\":17955:17964   */\n      dup4\n        /* \"#utility.yul\":17951:17968   */\n      add\n        /* \"#utility.yul\":17942:17948   */\n      dup10\n        /* \"#utility.yul\":17898:17969   */\n      tag_439\n      jump\t// in\n    tag_578:\n        /* \"#utility.yul\":17979:18051   */\n      tag_579\n        /* \"#utility.yul\":18047:18049   */\n      0x20\n        /* \"#utility.yul\":18036:18045   */\n      dup4\n        /* \"#utility.yul\":18032:18050   */\n      add\n        /* \"#utility.yul\":18023:18029   */\n      dup9\n        /* \"#utility.yul\":17979:18051   */\n      tag_439\n      jump\t// in\n    tag_579:\n        /* \"#utility.yul\":18061:18133   */\n      tag_580\n        /* \"#utility.yul\":18129:18131   */\n      0x40\n        /* \"#utility.yul\":18118:18127   */\n      dup4\n        /* \"#utility.yul\":18114:18132   */\n      add\n        /* \"#utility.yul\":18105:18111   */\n      dup8\n        /* \"#utility.yul\":18061:18133   */\n      tag_439\n      jump\t// in\n    tag_580:\n        /* \"#utility.yul\":18143:18215   */\n      tag_581\n        /* \"#utility.yul\":18211:18213   */\n      0x60\n        /* \"#utility.yul\":18200:18209   */\n      dup4\n        /* \"#utility.yul\":18196:18214   */\n      add\n        /* \"#utility.yul\":18187:18193   */\n      dup7\n        /* \"#utility.yul\":18143:18215   */\n      tag_569\n      jump\t// in\n    tag_581:\n        /* \"#utility.yul\":18225:18298   */\n      tag_582\n        /* \"#utility.yul\":18293:18296   */\n      0x80\n        /* \"#utility.yul\":18282:18291   */\n      dup4\n        /* \"#utility.yul\":18278:18297   */\n      add\n        /* \"#utility.yul\":18269:18275   */\n      dup6\n        /* \"#utility.yul\":18225:18298   */\n      tag_569\n      jump\t// in\n    tag_582:\n        /* \"#utility.yul\":18308:18381   */\n      tag_583\n        /* \"#utility.yul\":18376:18379   */\n      0xa0\n        /* \"#utility.yul\":18365:18374   */\n      dup4\n        /* \"#utility.yul\":18361:18380   */\n      add\n        /* \"#utility.yul\":18352:18358   */\n      dup5\n        /* \"#utility.yul\":18308:18381   */\n      tag_569\n      jump\t// in\n    tag_583:\n        /* \"#utility.yul\":17851:18388   */\n      swap8\n      swap7\n      pop\n      pop\n      pop\n      pop\n      pop\n      pop\n      pop\n      jump\t// out\n        /* \"#utility.yul\":18394:19280   */\n    tag_301:\n        /* \"#utility.yul\":18655:18659   */\n      0x00\n        /* \"#utility.yul\":18693:18696   */\n      0xe0\n        /* \"#utility.yul\":18682:18691   */\n      dup3\n        /* \"#utility.yul\":18678:18697   */\n      add\n        /* \"#utility.yul\":18670:18697   */\n      swap1\n      pop\n        /* \"#utility.yul\":18707:18778   */\n      tag_585\n        /* \"#utility.yul\":18775:18776   */\n      0x00\n        /* \"#utility.yul\":18764:18773   */\n      dup4\n        /* \"#utility.yul\":18760:18777   */\n      add\n        /* \"#utility.yul\":18751:18757   */\n      dup11\n        /* \"#utility.yul\":18707:18778   */\n      tag_439\n      jump\t// in\n    tag_585:\n        /* \"#utility.yul\":18788:18860   */\n      tag_586\n        /* \"#utility.yul\":18856:18858   */\n      0x20\n        /* \"#utility.yul\":18845:18854   */\n      dup4\n        /* \"#utility.yul\":18841:18859   */\n      add\n        /* \"#utility.yul\":18832:18838   */\n      dup10\n        /* \"#utility.yul\":18788:18860   */\n      tag_439\n      jump\t// in\n    tag_586:\n        /* \"#utility.yul\":18870:18942   */\n      tag_587\n        /* \"#utility.yul\":18938:18940   */\n      0x40\n        /* \"#utility.yul\":18927:18936   */\n      dup4\n        /* \"#utility.yul\":18923:18941   */\n      add\n        /* \"#utility.yul\":18914:18920   */\n      dup9\n        /* \"#utility.yul\":18870:18942   */\n      tag_439\n      jump\t// in\n    tag_587:\n        /* \"#utility.yul\":18952:19024   */\n      tag_588\n        /* \"#utility.yul\":19020:19022   */\n      0x60\n        /* \"#utility.yul\":19009:19018   */\n      dup4\n        /* \"#utility.yul\":19005:19023   */\n      add\n        /* \"#utility.yul\":18996:19002   */\n      dup8\n        /* \"#utility.yul\":18952:19024   */\n      tag_569\n      jump\t// in\n    tag_588:\n        /* \"#utility.yul\":19034:19107   */\n      tag_589\n        /* \"#utility.yul\":19102:19105   */\n      0x80\n        /* \"#utility.yul\":19091:19100   */\n      dup4\n        /* \"#utility.yul\":19087:19106   */\n      add\n        /* \"#utility.yul\":19078:19084   */\n      dup7\n        /* \"#utility.yul\":19034:19107   */\n      tag_569\n      jump\t// in\n    tag_589:\n        /* \"#utility.yul\":19117:19190   */\n      tag_590\n        /* \"#utility.yul\":19185:19188   */\n      0xa0\n        /* \"#utility.yul\":19174:19183   */\n      dup4\n        /* \"#utility.yul\":19170:19189   */\n      add\n        /* \"#utility.yul\":19161:19167   */\n      dup6\n        /* \"#utility.yul\":19117:19190   */\n      tag_569\n      jump\t// in\n    tag_590:\n        /* \"#utility.yul\":19200:19273   */\n      tag_591\n        /* \"#utility.yul\":19268:19271   */\n      0xc0\n        /* \"#utility.yul\":19257:19266   */\n      dup4\n        /* \"#utility.yul\":19253:19272   */\n      add\n        /* \"#utility.yul\":19244:19250   */\n      dup5\n        /* \"#utility.yul\":19200:19273   */\n      tag_569\n      jump\t// in\n    tag_591:\n        /* \"#utility.yul\":18660:19280   */\n      swap9\n      swap8\n      pop\n      pop\n      pop\n      pop\n      pop\n      pop\n      pop\n      pop\n      jump\t// out\n        /* \"#utility.yul\":19286:19728   */\n    tag_218:\n        /* \"#utility.yul\":19435:19439   */\n      0x00\n        /* \"#utility.yul\":19473:19475   */\n      0x60\n        /* \"#utility.yul\":19462:19471   */\n      dup3\n        /* \"#utility.yul\":19458:19476   */\n      add\n        /* \"#utility.yul\":19450:19476   */\n      swap1\n      pop\n        /* \"#utility.yul\":19486:19557   */\n      tag_593\n        /* \"#utility.yul\":19554:19555   */\n      0x00\n        /* \"#utility.yul\":19543:19552   */\n      dup4\n        /* \"#utility.yul\":19539:19556   */\n      add\n        /* \"#utility.yul\":19530:19536   */\n      dup7\n        /* \"#utility.yul\":19486:19557   */\n      tag_439\n      jump\t// in\n    tag_593:\n        /* \"#utility.yul\":19567:19639   */\n      tag_594\n        /* \"#utility.yul\":19635:19637   */\n      0x20\n        /* \"#utility.yul\":19624:19633   */\n      dup4\n        /* \"#utility.yul\":19620:19638   */\n      add\n        /* \"#utility.yul\":19611:19617   */\n      dup6\n        /* \"#utility.yul\":19567:19639   */\n      tag_439\n      jump\t// in\n    tag_594:\n        /* \"#utility.yul\":19649:19721   */\n      tag_595\n        /* \"#utility.yul\":19717:19719   */\n      0x40\n        /* \"#utility.yul\":19706:19715   */\n      dup4\n        /* \"#utility.yul\":19702:19720   */\n      add\n        /* \"#utility.yul\":19693:19699   */\n      dup5\n        /* \"#utility.yul\":19649:19721   */\n      tag_569\n      jump\t// in\n    tag_595:\n        /* \"#utility.yul\":19440:19728   */\n      swap5\n      swap4\n      pop\n      pop\n      pop\n      pop\n      jump\t// out\n        /* \"#utility.yul\":19734:20287   */\n    tag_274:\n        /* \"#utility.yul\":19911:19915   */\n      0x00\n        /* \"#utility.yul\":19949:19952   */\n      0x80\n        /* \"#utility.yul\":19938:19947   */\n      dup3\n        /* \"#utility.yul\":19934:19953   */\n      add\n        /* \"#utility.yul\":19926:19953   */\n      swap1\n      pop\n        /* \"#utility.yul\":19963:20034   */\n      tag_597\n        /* \"#utility.yul\":20031:20032   */\n      0x00\n        /* \"#utility.yul\":20020:20029   */\n      dup4\n        /* \"#utility.yul\":20016:20033   */\n      add\n        /* \"#utility.yul\":20007:20013   */\n      dup8\n        /* \"#utility.yul\":19963:20034   */\n      tag_439\n      jump\t// in\n    tag_597:\n        /* \"#utility.yul\":20044:20116   */\n      tag_598\n        /* \"#utility.yul\":20112:20114   */\n      0x20\n        /* \"#utility.yul\":20101:20110   */\n      dup4\n        /* \"#utility.yul\":20097:20115   */\n      add\n        /* \"#utility.yul\":20088:20094   */\n      dup7\n        /* \"#utility.yul\":20044:20116   */\n      tag_439\n      jump\t// in\n    tag_598:\n        /* \"#utility.yul\":20126:20198   */\n      tag_599\n        /* \"#utility.yul\":20194:20196   */\n      0x40\n        /* \"#utility.yul\":20183:20192   */\n      dup4\n        /* \"#utility.yul\":20179:20197   */\n      add\n        /* \"#utility.yul\":20170:20176   */\n      dup6\n        /* \"#utility.yul\":20126:20198   */\n      tag_569\n      jump\t// in\n    tag_599:\n        /* \"#utility.yul\":20208:20280   */\n      tag_600\n        /* \"#utility.yul\":20276:20278   */\n      0x60\n        /* \"#utility.yul\":20265:20274   */\n      dup4\n        /* \"#utility.yul\":20261:20279   */\n      add\n        /* \"#utility.yul\":20252:20258   */\n      dup5\n        /* \"#utility.yul\":20208:20280   */\n      tag_569\n      jump\t// in\n    tag_600:\n        /* \"#utility.yul\":19916:20287   */\n      swap6\n      swap5\n      pop\n      pop\n      pop\n      pop\n      pop\n      jump\t// out\n        /* \"#utility.yul\":20293:20625   */\n    tag_355:\n        /* \"#utility.yul\":20414:20418   */\n      0x00\n        /* \"#utility.yul\":20452:20454   */\n      0x40\n        /* \"#utility.yul\":20441:20450   */\n      dup3\n        /* \"#utility.yul\":20437:20455   */\n      add\n        /* \"#utility.yul\":20429:20455   */\n      swap1\n      pop\n        /* \"#utility.yul\":20465:20536   */\n      tag_602\n        /* \"#utility.yul\":20533:20534   */\n      0x00\n        /* \"#utility.yul\":20522:20531   */\n      dup4\n        /* \"#utility.yul\":20518:20535   */\n      add\n        /* \"#utility.yul\":20509:20515   */\n      dup6\n        /* \"#utility.yul\":20465:20536   */\n      tag_439\n      jump\t// in\n    tag_602:\n        /* \"#utility.yul\":20546:20618   */\n      tag_603\n        /* \"#utility.yul\":20614:20616   */\n      0x20\n        /* \"#utility.yul\":20603:20612   */\n      dup4\n        /* \"#utility.yul\":20599:20617   */\n      add\n        /* \"#utility.yul\":20590:20596   */\n      dup5\n        /* \"#utility.yul\":20546:20618   */\n      tag_569\n      jump\t// in\n    tag_603:\n        /* \"#utility.yul\":20419:20625   */\n      swap4\n      swap3\n      pop\n      pop\n      pop\n      jump\t// out\n        /* \"#utility.yul\":20631:21073   */\n    tag_176:\n        /* \"#utility.yul\":20780:20784   */\n      0x00\n        /* \"#utility.yul\":20818:20820   */\n      0x60\n        /* \"#utility.yul\":20807:20816   */\n      dup3\n        /* \"#utility.yul\":20803:20821   */\n      add\n        /* \"#utility.yul\":20795:20821   */\n      swap1\n      pop\n        /* \"#utility.yul\":20831:20902   */\n      tag_605\n        /* \"#utility.yul\":20899:20900   */\n      0x00\n        /* \"#utility.yul\":20888:20897   */\n      dup4\n        /* \"#utility.yul\":20884:20901   */\n      add\n        /* \"#utility.yul\":20875:20881   */\n      dup7\n        /* \"#utility.yul\":20831:20902   */\n      tag_439\n      jump\t// in\n    tag_605:\n        /* \"#utility.yul\":20912:20984   */\n      tag_606\n        /* \"#utility.yul\":20980:20982   */\n      0x20\n        /* \"#utility.yul\":20969:20978   */\n      dup4\n        /* \"#utility.yul\":20965:20983   */\n      add\n        /* \"#utility.yul\":20956:20962   */\n      dup6\n        /* \"#utility.yul\":20912:20984   */\n      tag_569\n      jump\t// in\n    tag_606:\n        /* \"#utility.yul\":20994:21066   */\n      tag_607\n        /* \"#utility.yul\":21062:21064   */\n      0x40\n        /* \"#utility.yul\":21051:21060   */\n      dup4\n        /* \"#utility.yul\":21047:21065   */\n      add\n        /* \"#utility.yul\":21038:21044   */\n      dup5\n        /* \"#utility.yul\":20994:21066   */\n      tag_439\n      jump\t// in\n    tag_607:\n        /* \"#utility.yul\":20785:21073   */\n      swap5\n      swap4\n      pop\n      pop\n      pop\n      pop\n      jump\t// out\n        /* \"#utility.yul\":21079:21743   */\n    tag_187:\n        /* \"#utility.yul\":21284:21288   */\n      0x00\n        /* \"#utility.yul\":21322:21325   */\n      0xa0\n        /* \"#utility.yul\":21311:21320   */\n      dup3\n        /* \"#utility.yul\":21307:21326   */\n      add\n        /* \"#utility.yul\":21299:21326   */\n      swap1\n      pop\n        /* \"#utility.yul\":21336:21407   */\n      tag_609\n        /* \"#utility.yul\":21404:21405   */\n      0x00\n        /* \"#utility.yul\":21393:21402   */\n      dup4\n        /* \"#utility.yul\":21389:21406   */\n      add\n        /* \"#utility.yul\":21380:21386   */\n      dup9\n        /* \"#utility.yul\":21336:21407   */\n      tag_439\n      jump\t// in\n    tag_609:\n        /* \"#utility.yul\":21417:21489   */\n      tag_610\n        /* \"#utility.yul\":21485:21487   */\n      0x20\n        /* \"#utility.yul\":21474:21483   */\n      dup4\n        /* \"#utility.yul\":21470:21488   */\n      add\n        /* \"#utility.yul\":21461:21467   */\n      dup8\n        /* \"#utility.yul\":21417:21489   */\n      tag_569\n      jump\t// in\n    tag_610:\n        /* \"#utility.yul\":21499:21571   */\n      tag_611\n        /* \"#utility.yul\":21567:21569   */\n      0x40\n        /* \"#utility.yul\":21556:21565   */\n      dup4\n        /* \"#utility.yul\":21552:21570   */\n      add\n        /* \"#utility.yul\":21543:21549   */\n      dup7\n        /* \"#utility.yul\":21499:21571   */\n      tag_439\n      jump\t// in\n    tag_611:\n        /* \"#utility.yul\":21581:21653   */\n      tag_612\n        /* \"#utility.yul\":21649:21651   */\n      0x60\n        /* \"#utility.yul\":21638:21647   */\n      dup4\n        /* \"#utility.yul\":21634:21652   */\n      add\n        /* \"#utility.yul\":21625:21631   */\n      dup6\n        /* \"#utility.yul\":21581:21653   */\n      tag_569\n      jump\t// in\n    tag_612:\n        /* \"#utility.yul\":21663:21736   */\n      tag_613\n        /* \"#utility.yul\":21731:21734   */\n      0x80\n        /* \"#utility.yul\":21720:21729   */\n      dup4\n        /* \"#utility.yul\":21716:21735   */\n      add\n        /* \"#utility.yul\":21707:21713   */\n      dup5\n        /* \"#utility.yul\":21663:21736   */\n      tag_439\n      jump\t// in\n    tag_613:\n        /* \"#utility.yul\":21289:21743   */\n      swap7\n      swap6\n      pop\n      pop\n      pop\n      pop\n      pop\n      pop\n      jump\t// out\n        /* \"#utility.yul\":21749:22191   */\n    tag_163:\n        /* \"#utility.yul\":21898:21902   */\n      0x00\n        /* \"#utility.yul\":21936:21938   */\n      0x60\n        /* \"#utility.yul\":21925:21934   */\n      dup3\n        /* \"#utility.yul\":21921:21939   */\n      add\n        /* \"#utility.yul\":21913:21939   */\n      swap1\n      pop\n        /* \"#utility.yul\":21949:22020   */\n      tag_615\n        /* \"#utility.yul\":22017:22018   */\n      0x00\n        /* \"#utility.yul\":22006:22015   */\n      dup4\n        /* \"#utility.yul\":22002:22019   */\n      add\n        /* \"#utility.yul\":21993:21999   */\n      dup7\n        /* \"#utility.yul\":21949:22020   */\n      tag_439\n      jump\t// in\n    tag_615:\n        /* \"#utility.yul\":22030:22102   */\n      tag_616\n        /* \"#utility.yul\":22098:22100   */\n      0x20\n        /* \"#utility.yul\":22087:22096   */\n      dup4\n        /* \"#utility.yul\":22083:22101   */\n      add\n        /* \"#utility.yul\":22074:22080   */\n      dup6\n        /* \"#utility.yul\":22030:22102   */\n      tag_569\n      jump\t// in\n    tag_616:\n        /* \"#utility.yul\":22112:22184   */\n      tag_617\n        /* \"#utility.yul\":22180:22182   */\n      0x40\n        /* \"#utility.yul\":22169:22178   */\n      dup4\n        /* \"#utility.yul\":22165:22183   */\n      add\n        /* \"#utility.yul\":22156:22162   */\n      dup5\n        /* \"#utility.yul\":22112:22184   */\n      tag_569\n      jump\t// in\n    tag_617:\n        /* \"#utility.yul\":21903:22191   */\n      swap5\n      swap4\n      pop\n      pop\n      pop\n      pop\n      jump\t// out\n        /* \"#utility.yul\":22197:22750   */\n    tag_127:\n        /* \"#utility.yul\":22374:22378   */\n      0x00\n        /* \"#utility.yul\":22412:22415   */\n      0x80\n        /* \"#utility.yul\":22401:22410   */\n      dup3\n        /* \"#utility.yul\":22397:22416   */\n      add\n        /* \"#utility.yul\":22389:22416   */\n      swap1\n      pop\n        /* \"#utility.yul\":22426:22497   */\n      tag_619\n        /* \"#utility.yul\":22494:22495   */\n      0x00\n        /* \"#utility.yul\":22483:22492   */\n      dup4\n        /* \"#utility.yul\":22479:22496   */\n      add\n        /* \"#utility.yul\":22470:22476   */\n      dup8\n        /* \"#utility.yul\":22426:22497   */\n      tag_439\n      jump\t// in\n    tag_619:\n        /* \"#utility.yul\":22507:22579   */\n      tag_620\n        /* \"#utility.yul\":22575:22577   */\n      0x20\n        /* \"#utility.yul\":22564:22573   */\n      dup4\n        /* \"#utility.yul\":22560:22578   */\n      add\n        /* \"#utility.yul\":22551:22557   */\n      dup7\n        /* \"#utility.yul\":22507:22579   */\n      tag_569\n      jump\t// in\n    tag_620:\n        /* \"#utility.yul\":22589:22661   */\n      tag_621\n        /* \"#utility.yul\":22657:22659   */\n      0x40\n        /* \"#utility.yul\":22646:22655   */\n      dup4\n        /* \"#utility.yul\":22642:22660   */\n      add\n        /* \"#utility.yul\":22633:22639   */\n      dup6\n        /* \"#utility.yul\":22589:22661   */\n      tag_569\n      jump\t// in\n    tag_621:\n        /* \"#utility.yul\":22671:22743   */\n      tag_622\n        /* \"#utility.yul\":22739:22741   */\n      0x60\n        /* \"#utility.yul\":22728:22737   */\n      dup4\n        /* \"#utility.yul\":22724:22742   */\n      add\n        /* \"#utility.yul\":22715:22721   */\n      dup5\n        /* \"#utility.yul\":22671:22743   */\n      tag_439\n      jump\t// in\n    tag_622:\n        /* \"#utility.yul\":22379:22750   */\n      swap6\n      swap5\n      pop\n      pop\n      pop\n      pop\n      pop\n      jump\t// out\n        /* \"#utility.yul\":22756:23229   */\n    tag_88:\n        /* \"#utility.yul\":22949:22953   */\n      0x00\n        /* \"#utility.yul\":22987:22989   */\n      0x20\n        /* \"#utility.yul\":22976:22985   */\n      dup3\n        /* \"#utility.yul\":22972:22990   */\n      add\n        /* \"#utility.yul\":22964:22990   */\n      swap1\n      pop\n        /* \"#utility.yul\":23036:23045   */\n      dup2\n        /* \"#utility.yul\":23030:23034   */\n      dup2\n        /* \"#utility.yul\":23026:23046   */\n      sub\n        /* \"#utility.yul\":23022:23023   */\n      0x00\n        /* \"#utility.yul\":23011:23020   */\n      dup4\n        /* \"#utility.yul\":23007:23024   */\n      add\n        /* \"#utility.yul\":23000:23047   */\n      mstore\n        /* \"#utility.yul\":23064:23222   */\n      tag_624\n        /* \"#utility.yul\":23217:23221   */\n      dup2\n        /* \"#utility.yul\":23208:23214   */\n      dup5\n        /* \"#utility.yul\":23064:23222   */\n      tag_442\n      jump\t// in\n    tag_624:\n        /* \"#utility.yul\":23056:23222   */\n      swap1\n      pop\n        /* \"#utility.yul\":22954:23229   */\n      swap3\n      swap2\n      pop\n      pop\n      jump\t// out\n        /* \"#utility.yul\":23235:23453   */\n    tag_30:\n        /* \"#utility.yul\":23326:23330   */\n      0x00\n        /* \"#utility.yul\":23364:23366   */\n      0x20\n        /* \"#utility.yul\":23353:23362   */\n      dup3\n        /* \"#utility.yul\":23349:23367   */\n      add\n        /* \"#utility.yul\":23341:23367   */\n      swap1\n      pop\n        /* \"#utility.yul\":23377:23446   */\n      tag_626\n        /* \"#utility.yul\":23443:23444   */\n      0x00\n        /* \"#utility.yul\":23432:23441   */\n      dup4\n        /* \"#utility.yul\":23428:23445   */\n      add\n        /* \"#utility.yul\":23419:23425   */\n      dup5\n        /* \"#utility.yul\":23377:23446   */\n      tag_456\n      jump\t// in\n    tag_626:\n        /* \"#utility.yul\":23331:23453   */\n      swap3\n      swap2\n      pop\n      pop\n      jump\t// out\n        /* \"#utility.yul\":23459:23878   */\n    tag_171:\n        /* \"#utility.yul\":23625:23629   */\n      0x00\n        /* \"#utility.yul\":23663:23665   */\n      0x20\n        /* \"#utility.yul\":23652:23661   */\n      dup3\n        /* \"#utility.yul\":23648:23666   */\n      add\n        /* \"#utility.yul\":23640:23666   */\n      swap1\n      pop\n        /* \"#utility.yul\":23712:23721   */\n      dup2\n        /* \"#utility.yul\":23706:23710   */\n      dup2\n        /* \"#utility.yul\":23702:23722   */\n      sub\n        /* \"#utility.yul\":23698:23699   */\n      0x00\n        /* \"#utility.yul\":23687:23696   */\n      dup4\n        /* \"#utility.yul\":23683:23700   */\n      add\n        /* \"#utility.yul\":23676:23723   */\n      mstore\n        /* \"#utility.yul\":23740:23871   */\n      tag_628\n        /* \"#utility.yul\":23866:23870   */\n      dup2\n        /* \"#utility.yul\":23740:23871   */\n      tag_460\n      jump\t// in\n    tag_628:\n        /* \"#utility.yul\":23732:23871   */\n      swap1\n      pop\n        /* \"#utility.yul\":23630:23878   */\n      swap2\n      swap1\n      pop\n      jump\t// out\n        /* \"#utility.yul\":23884:24303   */\n    tag_211:\n        /* \"#utility.yul\":24050:24054   */\n      0x00\n        /* \"#utility.yul\":24088:24090   */\n      0x20\n        /* \"#utility.yul\":24077:24086   */\n      dup3\n        /* \"#utility.yul\":24073:24091   */\n      add\n        /* \"#utility.yul\":24065:24091   */\n      swap1\n      pop\n        /* \"#utility.yul\":24137:24146   */\n      dup2\n        /* \"#utility.yul\":24131:24135   */\n      dup2\n        /* \"#utility.yul\":24127:24147   */\n      sub\n        /* \"#utility.yul\":24123:24124   */\n      0x00\n        /* \"#utility.yul\":24112:24121   */\n      dup4\n        /* \"#utility.yul\":24108:24125   */\n      add\n        /* \"#utility.yul\":24101:24148   */\n      mstore\n        /* \"#utility.yul\":24165:24296   */\n      tag_630\n        /* \"#utility.yul\":24291:24295   */\n      dup2\n        /* \"#utility.yul\":24165:24296   */\n      tag_466\n      jump\t// in\n    tag_630:\n        /* \"#utility.yul\":24157:24296   */\n      swap1\n      pop\n        /* \"#utility.yul\":24055:24303   */\n      swap2\n      swap1\n      pop\n      jump\t// out\n        /* \"#utility.yul\":24309:24728   */\n    tag_113:\n        /* \"#utility.yul\":24475:24479   */\n      0x00\n        /* \"#utility.yul\":24513:24515   */\n      0x20\n        /* \"#utility.yul\":24502:24511   */\n      dup3\n        /* \"#utility.yul\":24498:24516   */\n      add\n        /* \"#utility.yul\":24490:24516   */\n      swap1\n      pop\n        /* \"#utility.yul\":24562:24571   */\n      dup2\n        /* \"#utility.yul\":24556:24560   */\n      dup2\n        /* \"#utility.yul\":24552:24572   */\n      sub\n        /* \"#utility.yul\":24548:24549   */\n      0x00\n        /* \"#utility.yul\":24537:24546   */\n      dup4\n        /* \"#utility.yul\":24533:24550   */\n      add\n        /* \"#utility.yul\":24526:24573   */\n      mstore\n        /* \"#utility.yul\":24590:24721   */\n      tag_632\n        /* \"#utility.yul\":24716:24720   */\n      dup2\n        /* \"#utility.yul\":24590:24721   */\n      tag_471\n      jump\t// in\n    tag_632:\n        /* \"#utility.yul\":24582:24721   */\n      swap1\n      pop\n        /* \"#utility.yul\":24480:24728   */\n      swap2\n      swap1\n      pop\n      jump\t// out\n        /* \"#utility.yul\":24734:25153   */\n    tag_233:\n        /* \"#utility.yul\":24900:24904   */\n      0x00\n        /* \"#utility.yul\":24938:24940   */\n      0x20\n        /* \"#utility.yul\":24927:24936   */\n      dup3\n        /* \"#utility.yul\":24923:24941   */\n      add\n        /* \"#utility.yul\":24915:24941   */\n      swap1\n      pop\n        /* \"#utility.yul\":24987:24996   */\n      dup2\n        /* \"#utility.yul\":24981:24985   */\n      dup2\n        /* \"#utility.yul\":24977:24997   */\n      sub\n        /* \"#utility.yul\":24973:24974   */\n      0x00\n        /* \"#utility.yul\":24962:24971   */\n      dup4\n        /* \"#utility.yul\":24958:24975   */\n      add\n        /* \"#utility.yul\":24951:24998   */\n      mstore\n        /* \"#utility.yul\":25015:25146   */\n      tag_634\n        /* \"#utility.yul\":25141:25145   */\n      dup2\n        /* \"#utility.yul\":25015:25146   */\n      tag_476\n      jump\t// in\n    tag_634:\n        /* \"#utility.yul\":25007:25146   */\n      swap1\n      pop\n        /* \"#utility.yul\":24905:25153   */\n      swap2\n      swap1\n      pop\n      jump\t// out\n        /* \"#utility.yul\":25159:25578   */\n    tag_153:\n        /* \"#utility.yul\":25325:25329   */\n      0x00\n        /* \"#utility.yul\":25363:25365   */\n      0x20\n        /* \"#utility.yul\":25352:25361   */\n      dup3\n        /* \"#utility.yul\":25348:25366   */\n      add\n        /* \"#utility.yul\":25340:25366   */\n      swap1\n      pop\n        /* \"#utility.yul\":25412:25421   */\n      dup2\n        /* \"#utility.yul\":25406:25410   */\n      dup2\n        /* \"#utility.yul\":25402:25422   */\n      sub\n        /* \"#utility.yul\":25398:25399   */\n      0x00\n        /* \"#utility.yul\":25387:25396   */\n      dup4\n        /* \"#utility.yul\":25383:25400   */\n      add\n        /* \"#utility.yul\":25376:25423   */\n      mstore\n        /* \"#utility.yul\":25440:25571   */\n      tag_636\n        /* \"#utility.yul\":25566:25570   */\n      dup2\n        /* \"#utility.yul\":25440:25571   */\n      tag_481\n      jump\t// in\n    tag_636:\n        /* \"#utility.yul\":25432:25571   */\n      swap1\n      pop\n        /* \"#utility.yul\":25330:25578   */\n      swap2\n      swap1\n      pop\n      jump\t// out\n        /* \"#utility.yul\":25584:26003   */\n    tag_105:\n        /* \"#utility.yul\":25750:25754   */\n      0x00\n        /* \"#utility.yul\":25788:25790   */\n      0x20\n        /* \"#utility.yul\":25777:25786   */\n      dup3\n        /* \"#utility.yul\":25773:25791   */\n      add\n        /* \"#utility.yul\":25765:25791   */\n      swap1\n      pop\n        /* \"#utility.yul\":25837:25846   */\n      dup2\n        /* \"#utility.yul\":25831:25835   */\n      dup2\n        /* \"#utility.yul\":25827:25847   */\n      sub\n        /* \"#utility.yul\":25823:25824   */\n      0x00\n        /* \"#utility.yul\":25812:25821   */\n      dup4\n        /* \"#utility.yul\":25808:25825   */\n      add\n        /* \"#utility.yul\":25801:25848   */\n      mstore\n        /* \"#utility.yul\":25865:25996   */\n      tag_638\n        /* \"#utility.yul\":25991:25995   */\n      dup2\n        /* \"#utility.yul\":25865:25996   */\n      tag_486\n      jump\t// in\n    tag_638:\n        /* \"#utility.yul\":25857:25996   */\n      swap1\n      pop\n        /* \"#utility.yul\":25755:26003   */\n      swap2\n      swap1\n      pop\n      jump\t// out\n        /* \"#utility.yul\":26009:26428   */\n    tag_118:\n        /* \"#utility.yul\":26175:26179   */\n      0x00\n        /* \"#utility.yul\":26213:26215   */\n      0x20\n        /* \"#utility.yul\":26202:26211   */\n      dup3\n        /* \"#utility.yul\":26198:26216   */\n      add\n        /* \"#utility.yul\":26190:26216   */\n      swap1\n      pop\n        /* \"#utility.yul\":26262:26271   */\n      dup2\n        /* \"#utility.yul\":26256:26260   */\n      dup2\n        /* \"#utility.yul\":26252:26272   */\n      sub\n        /* \"#utility.yul\":26248:26249   */\n      0x00\n        /* \"#utility.yul\":26237:26246   */\n      dup4\n        /* \"#utility.yul\":26233:26250   */\n      add\n        /* \"#utility.yul\":26226:26273   */\n      mstore\n        /* \"#utility.yul\":26290:26421   */\n      tag_640\n        /* \"#utility.yul\":26416:26420   */\n      dup2\n        /* \"#utility.yul\":26290:26421   */\n      tag_491\n      jump\t// in\n    tag_640:\n        /* \"#utility.yul\":26282:26421   */\n      swap1\n      pop\n        /* \"#utility.yul\":26180:26428   */\n      swap2\n      swap1\n      pop\n      jump\t// out\n        /* \"#utility.yul\":26434:26853   */\n    tag_109:\n        /* \"#utility.yul\":26600:26604   */\n      0x00\n        /* \"#utility.yul\":26638:26640   */\n      0x20\n        /* \"#utility.yul\":26627:26636   */\n      dup3\n        /* \"#utility.yul\":26623:26641   */\n      add\n        /* \"#utility.yul\":26615:26641   */\n      swap1\n      pop\n        /* \"#utility.yul\":26687:26696   */\n      dup2\n        /* \"#utility.yul\":26681:26685   */\n      dup2\n        /* \"#utility.yul\":26677:26697   */\n      sub\n        /* \"#utility.yul\":26673:26674   */\n      0x00\n        /* \"#utility.yul\":26662:26671   */\n      dup4\n        /* \"#utility.yul\":26658:26675   */\n      add\n        /* \"#utility.yul\":26651:26698   */\n      mstore\n        /* \"#utility.yul\":26715:26846   */\n      tag_642\n        /* \"#utility.yul\":26841:26845   */\n      dup2\n        /* \"#utility.yul\":26715:26846   */\n      tag_496\n      jump\t// in\n    tag_642:\n        /* \"#utility.yul\":26707:26846   */\n      swap1\n      pop\n        /* \"#utility.yul\":26605:26853   */\n      swap2\n      swap1\n      pop\n      jump\t// out\n        /* \"#utility.yul\":26859:27278   */\n    tag_200:\n        /* \"#utility.yul\":27025:27029   */\n      0x00\n        /* \"#utility.yul\":27063:27065   */\n      0x20\n        /* \"#utility.yul\":27052:27061   */\n      dup3\n        /* \"#utility.yul\":27048:27066   */\n      add\n        /* \"#utility.yul\":27040:27066   */\n      swap1\n      pop\n        /* \"#utility.yul\":27112:27121   */\n      dup2\n        /* \"#utility.yul\":27106:27110   */\n      dup2\n        /* \"#utility.yul\":27102:27122   */\n      sub\n        /* \"#utility.yul\":27098:27099   */\n      0x00\n        /* \"#utility.yul\":27087:27096   */\n      dup4\n        /* \"#utility.yul\":27083:27100   */\n      add\n        /* \"#utility.yul\":27076:27123   */\n      mstore\n        /* \"#utility.yul\":27140:27271   */\n      tag_644\n        /* \"#utility.yul\":27266:27270   */\n      dup2\n        /* \"#utility.yul\":27140:27271   */\n      tag_501\n      jump\t// in\n    tag_644:\n        /* \"#utility.yul\":27132:27271   */\n      swap1\n      pop\n        /* \"#utility.yul\":27030:27278   */\n      swap2\n      swap1\n      pop\n      jump\t// out\n        /* \"#utility.yul\":27284:27703   */\n    tag_240:\n        /* \"#utility.yul\":27450:27454   */\n      0x00\n        /* \"#utility.yul\":27488:27490   */\n      0x20\n        /* \"#utility.yul\":27477:27486   */\n      dup3\n        /* \"#utility.yul\":27473:27491   */\n      add\n        /* \"#utility.yul\":27465:27491   */\n      swap1\n      pop\n        /* \"#utility.yul\":27537:27546   */\n      dup2\n        /* \"#utility.yul\":27531:27535   */\n      dup2\n        /* \"#utility.yul\":27527:27547   */\n      sub\n        /* \"#utility.yul\":27523:27524   */\n      0x00\n        /* \"#utility.yul\":27512:27521   */\n      dup4\n        /* \"#utility.yul\":27508:27525   */\n      add\n        /* \"#utility.yul\":27501:27548   */\n      mstore\n        /* \"#utility.yul\":27565:27696   */\n      tag_646\n        /* \"#utility.yul\":27691:27695   */\n      dup2\n        /* \"#utility.yul\":27565:27696   */\n      tag_506\n      jump\t// in\n    tag_646:\n        /* \"#utility.yul\":27557:27696   */\n      swap1\n      pop\n        /* \"#utility.yul\":27455:27703   */\n      swap2\n      swap1\n      pop\n      jump\t// out\n        /* \"#utility.yul\":27709:28128   */\n    tag_324:\n        /* \"#utility.yul\":27875:27879   */\n      0x00\n        /* \"#utility.yul\":27913:27915   */\n      0x20\n        /* \"#utility.yul\":27902:27911   */\n      dup3\n        /* \"#utility.yul\":27898:27916   */\n      add\n        /* \"#utility.yul\":27890:27916   */\n      swap1\n      pop\n        /* \"#utility.yul\":27962:27971   */\n      dup2\n        /* \"#utility.yul\":27956:27960   */\n      dup2\n        /* \"#utility.yul\":27952:27972   */\n      sub\n        /* \"#utility.yul\":27948:27949   */\n      0x00\n        /* \"#utility.yul\":27937:27946   */\n      dup4\n        /* \"#utility.yul\":27933:27950   */\n      add\n        /* \"#utility.yul\":27926:27973   */\n      mstore\n        /* \"#utility.yul\":27990:28121   */\n      tag_648\n        /* \"#utility.yul\":28116:28120   */\n      dup2\n        /* \"#utility.yul\":27990:28121   */\n      tag_511\n      jump\t// in\n    tag_648:\n        /* \"#utility.yul\":27982:28121   */\n      swap1\n      pop\n        /* \"#utility.yul\":27880:28128   */\n      swap2\n      swap1\n      pop\n      jump\t// out\n        /* \"#utility.yul\":28134:28553   */\n    tag_167:\n        /* \"#utility.yul\":28300:28304   */\n      0x00\n        /* \"#utility.yul\":28338:28340   */\n      0x20\n        /* \"#utility.yul\":28327:28336   */\n      dup3\n        /* \"#utility.yul\":28323:28341   */\n      add\n        /* \"#utility.yul\":28315:28341   */\n      swap1\n      pop\n        /* \"#utility.yul\":28387:28396   */\n      dup2\n        /* \"#utility.yul\":28381:28385   */\n      dup2\n        /* \"#utility.yul\":28377:28397   */\n      sub\n        /* \"#utility.yul\":28373:28374   */\n      0x00\n        /* \"#utility.yul\":28362:28371   */\n      dup4\n        /* \"#utility.yul\":28358:28375   */\n      add\n        /* \"#utility.yul\":28351:28398   */\n      mstore\n        /* \"#utility.yul\":28415:28546   */\n      tag_650\n        /* \"#utility.yul\":28541:28545   */\n      dup2\n        /* \"#utility.yul\":28415:28546   */\n      tag_516\n      jump\t// in\n    tag_650:\n        /* \"#utility.yul\":28407:28546   */\n      swap1\n      pop\n        /* \"#utility.yul\":28305:28553   */\n      swap2\n      swap1\n      pop\n      jump\t// out\n        /* \"#utility.yul\":28559:28978   */\n    tag_157:\n        /* \"#utility.yul\":28725:28729   */\n      0x00\n        /* \"#utility.yul\":28763:28765   */\n      0x20\n        /* \"#utility.yul\":28752:28761   */\n      dup3\n        /* \"#utility.yul\":28748:28766   */\n      add\n        /* \"#utility.yul\":28740:28766   */\n      swap1\n      pop\n        /* \"#utility.yul\":28812:28821   */\n      dup2\n        /* \"#utility.yul\":28806:28810   */\n      dup2\n        /* \"#utility.yul\":28802:28822   */\n      sub\n        /* \"#utility.yul\":28798:28799   */\n      0x00\n        /* \"#utility.yul\":28787:28796   */\n      dup4\n        /* \"#utility.yul\":28783:28800   */\n      add\n        /* \"#utility.yul\":28776:28823   */\n      mstore\n        /* \"#utility.yul\":28840:28971   */\n      tag_652\n        /* \"#utility.yul\":28966:28970   */\n      dup2\n        /* \"#utility.yul\":28840:28971   */\n      tag_521\n      jump\t// in\n    tag_652:\n        /* \"#utility.yul\":28832:28971   */\n      swap1\n      pop\n        /* \"#utility.yul\":28730:28978   */\n      swap2\n      swap1\n      pop\n      jump\t// out\n        /* \"#utility.yul\":28984:29403   */\n    tag_174:\n        /* \"#utility.yul\":29150:29154   */\n      0x00\n        /* \"#utility.yul\":29188:29190   */\n      0x20\n        /* \"#utility.yul\":29177:29186   */\n      dup3\n        /* \"#utility.yul\":29173:29191   */\n      add\n        /* \"#utility.yul\":29165:29191   */\n      swap1\n      pop\n        /* \"#utility.yul\":29237:29246   */\n      dup2\n        /* \"#utility.yul\":29231:29235   */\n      dup2\n        /* \"#utility.yul\":29227:29247   */\n      sub\n        /* \"#utility.yul\":29223:29224   */\n      0x00\n        /* \"#utility.yul\":29212:29221   */\n      dup4\n        /* \"#utility.yul\":29208:29225   */\n      add\n        /* \"#utility.yul\":29201:29248   */\n      mstore\n        /* \"#utility.yul\":29265:29396   */\n      tag_654\n        /* \"#utility.yul\":29391:29395   */\n      dup2\n        /* \"#utility.yul\":29265:29396   */\n      tag_532\n      jump\t// in\n    tag_654:\n        /* \"#utility.yul\":29257:29396   */\n      swap1\n      pop\n        /* \"#utility.yul\":29155:29403   */\n      swap2\n      swap1\n      pop\n      jump\t// out\n        /* \"#utility.yul\":29409:29828   */\n    tag_263:\n        /* \"#utility.yul\":29575:29579   */\n      0x00\n        /* \"#utility.yul\":29613:29615   */\n      0x20\n        /* \"#utility.yul\":29602:29611   */\n      dup3\n        /* \"#utility.yul\":29598:29616   */\n      add\n        /* \"#utility.yul\":29590:29616   */\n      swap1\n      pop\n        /* \"#utility.yul\":29662:29671   */\n      dup2\n        /* \"#utility.yul\":29656:29660   */\n      dup2\n        /* \"#utility.yul\":29652:29672   */\n      sub\n        /* \"#utility.yul\":29648:29649   */\n      0x00\n        /* \"#utility.yul\":29637:29646   */\n      dup4\n        /* \"#utility.yul\":29633:29650   */\n      add\n        /* \"#utility.yul\":29626:29673   */\n      mstore\n        /* \"#utility.yul\":29690:29821   */\n      tag_656\n        /* \"#utility.yul\":29816:29820   */\n      dup2\n        /* \"#utility.yul\":29690:29821   */\n      tag_537\n      jump\t// in\n    tag_656:\n        /* \"#utility.yul\":29682:29821   */\n      swap1\n      pop\n        /* \"#utility.yul\":29580:29828   */\n      swap2\n      swap1\n      pop\n      jump\t// out\n        /* \"#utility.yul\":29834:30253   */\n    tag_368:\n        /* \"#utility.yul\":30000:30004   */\n      0x00\n        /* \"#utility.yul\":30038:30040   */\n      0x20\n        /* \"#utility.yul\":30027:30036   */\n      dup3\n        /* \"#utility.yul\":30023:30041   */\n      add\n        /* \"#utility.yul\":30015:30041   */\n      swap1\n      pop\n        /* \"#utility.yul\":30087:30096   */\n      dup2\n        /* \"#utility.yul\":30081:30085   */\n      dup2\n        /* \"#utility.yul\":30077:30097   */\n      sub\n        /* \"#utility.yul\":30073:30074   */\n      0x00\n        /* \"#utility.yul\":30062:30071   */\n      dup4\n        /* \"#utility.yul\":30058:30075   */\n      add\n        /* \"#utility.yul\":30051:30098   */\n      mstore\n        /* \"#utility.yul\":30115:30246   */\n      tag_658\n        /* \"#utility.yul\":30241:30245   */\n      dup2\n        /* \"#utility.yul\":30115:30246   */\n      tag_542\n      jump\t// in\n    tag_658:\n        /* \"#utility.yul\":30107:30246   */\n      swap1\n      pop\n        /* \"#utility.yul\":30005:30253   */\n      swap2\n      swap1\n      pop\n      jump\t// out\n        /* \"#utility.yul\":30259:30578   */\n    tag_67:\n        /* \"#utility.yul\":30400:30404   */\n      0x00\n        /* \"#utility.yul\":30438:30441   */\n      0xe0\n        /* \"#utility.yul\":30427:30436   */\n      dup3\n        /* \"#utility.yul\":30423:30442   */\n      add\n        /* \"#utility.yul\":30415:30442   */\n      swap1\n      pop\n        /* \"#utility.yul\":30452:30571   */\n      tag_660\n        /* \"#utility.yul\":30568:30569   */\n      0x00\n        /* \"#utility.yul\":30557:30566   */\n      dup4\n        /* \"#utility.yul\":30553:30570   */\n      add\n        /* \"#utility.yul\":30544:30550   */\n      dup5\n        /* \"#utility.yul\":30452:30571   */\n      tag_547\n      jump\t// in\n    tag_660:\n        /* \"#utility.yul\":30405:30578   */\n      swap3\n      swap2\n      pop\n      pop\n      jump\t// out\n        /* \"#utility.yul\":30584:30911   */\n    tag_83:\n        /* \"#utility.yul\":30729:30733   */\n      0x00\n        /* \"#utility.yul\":30767:30770   */\n      0x80\n        /* \"#utility.yul\":30756:30765   */\n      dup3\n        /* \"#utility.yul\":30752:30771   */\n      add\n        /* \"#utility.yul\":30744:30771   */\n      swap1\n      pop\n        /* \"#utility.yul\":30781:30904   */\n      tag_662\n        /* \"#utility.yul\":30901:30902   */\n      0x00\n        /* \"#utility.yul\":30890:30899   */\n      dup4\n        /* \"#utility.yul\":30886:30903   */\n      add\n        /* \"#utility.yul\":30877:30883   */\n      dup5\n        /* \"#utility.yul\":30781:30904   */\n      tag_557\n      jump\t// in\n    tag_662:\n        /* \"#utility.yul\":30734:30911   */\n      swap3\n      swap2\n      pop\n      pop\n      jump\t// out\n        /* \"#utility.yul\":30917:31139   */\n    tag_56:\n        /* \"#utility.yul\":31010:31014   */\n      0x00\n        /* \"#utility.yul\":31048:31050   */\n      0x20\n        /* \"#utility.yul\":31037:31046   */\n      dup3\n        /* \"#utility.yul\":31033:31051   */\n      add\n        /* \"#utility.yul\":31025:31051   */\n      swap1\n      pop\n        /* \"#utility.yul\":31061:31132   */\n      tag_664\n        /* \"#utility.yul\":31129:31130   */\n      0x00\n        /* \"#utility.yul\":31118:31127   */\n      dup4\n        /* \"#utility.yul\":31114:31131   */\n      add\n        /* \"#utility.yul\":31105:31111   */\n      dup5\n        /* \"#utility.yul\":31061:31132   */\n      tag_569\n      jump\t// in\n    tag_664:\n        /* \"#utility.yul\":31015:31139   */\n      swap3\n      swap2\n      pop\n      pop\n      jump\t// out\n        /* \"#utility.yul\":31145:31302   */\n    tag_449:\n        /* \"#utility.yul\":31237:31241   */\n      0x00\n        /* \"#utility.yul\":31260:31263   */\n      dup2\n        /* \"#utility.yul\":31252:31263   */\n      swap1\n      pop\n        /* \"#utility.yul\":31290:31294   */\n      0x20\n        /* \"#utility.yul\":31285:31288   */\n      dup3\n        /* \"#utility.yul\":31281:31295   */\n      add\n        /* \"#utility.yul\":31273:31295   */\n      swap1\n      pop\n        /* \"#utility.yul\":31242:31302   */\n      swap2\n      swap1\n      pop\n      jump\t// out\n        /* \"#utility.yul\":31308:31447   */\n    tag_445:\n        /* \"#utility.yul\":31400:31406   */\n      0x00\n        /* \"#utility.yul\":31434:31439   */\n      dup2\n        /* \"#utility.yul\":31428:31440   */\n      mload\n        /* \"#utility.yul\":31418:31440   */\n      swap1\n      pop\n        /* \"#utility.yul\":31407:31447   */\n      swap2\n      swap1\n      pop\n      jump\t// out\n        /* \"#utility.yul\":31453:31591   */\n    tag_455:\n        /* \"#utility.yul\":31548:31552   */\n      0x00\n        /* \"#utility.yul\":31580:31584   */\n      0x20\n        /* \"#utility.yul\":31575:31578   */\n      dup3\n        /* \"#utility.yul\":31571:31585   */\n      add\n        /* \"#utility.yul\":31563:31585   */\n      swap1\n      pop\n        /* \"#utility.yul\":31553:31591   */\n      swap2\n      swap1\n      pop\n      jump\t// out\n        /* \"#utility.yul\":31597:31806   */\n    tag_447:\n        /* \"#utility.yul\":31721:31732   */\n      0x00\n        /* \"#utility.yul\":31755:31761   */\n      dup3\n        /* \"#utility.yul\":31750:31753   */\n      dup3\n        /* \"#utility.yul\":31743:31762   */\n      mstore\n        /* \"#utility.yul\":31795:31799   */\n      0x20\n        /* \"#utility.yul\":31790:31793   */\n      dup3\n        /* \"#utility.yul\":31786:31800   */\n      add\n        /* \"#utility.yul\":31771:31800   */\n      swap1\n      pop\n        /* \"#utility.yul\":31733:31806   */\n      swap3\n      swap2\n      pop\n      pop\n      jump\t// out\n        /* \"#utility.yul\":31812:31959   */\n    tag_529:\n        /* \"#utility.yul\":31913:31924   */\n      0x00\n        /* \"#utility.yul\":31950:31953   */\n      dup2\n        /* \"#utility.yul\":31935:31953   */\n      swap1\n      pop\n        /* \"#utility.yul\":31925:31959   */\n      swap3\n      swap2\n      pop\n      pop\n      jump\t// out\n        /* \"#utility.yul\":31965:32134   */\n    tag_463:\n        /* \"#utility.yul\":32049:32060   */\n      0x00\n        /* \"#utility.yul\":32083:32089   */\n      dup3\n        /* \"#utility.yul\":32078:32081   */\n      dup3\n        /* \"#utility.yul\":32071:32090   */\n      mstore\n        /* \"#utility.yul\":32123:32127   */\n      0x20\n        /* \"#utility.yul\":32118:32121   */\n      dup3\n        /* \"#utility.yul\":32114:32128   */\n      add\n        /* \"#utility.yul\":32099:32128   */\n      swap1\n      pop\n        /* \"#utility.yul\":32061:32134   */\n      swap3\n      swap2\n      pop\n      pop\n      jump\t// out\n        /* \"#utility.yul\":32140:32445   */\n    tag_327:\n        /* \"#utility.yul\":32180:32183   */\n      0x00\n        /* \"#utility.yul\":32199:32219   */\n      tag_672\n        /* \"#utility.yul\":32217:32218   */\n      dup3\n        /* \"#utility.yul\":32199:32219   */\n      tag_568\n      jump\t// in\n    tag_672:\n        /* \"#utility.yul\":32194:32219   */\n      swap2\n      pop\n        /* \"#utility.yul\":32233:32253   */\n      tag_673\n        /* \"#utility.yul\":32251:32252   */\n      dup4\n        /* \"#utility.yul\":32233:32253   */\n      tag_568\n      jump\t// in\n    tag_673:\n        /* \"#utility.yul\":32228:32253   */\n      swap3\n      pop\n        /* \"#utility.yul\":32387:32388   */\n      dup3\n        /* \"#utility.yul\":32319:32385   */\n      0xffffffffffffffffffffffffffffffffffffffffffffffffffffffffffffffff\n        /* \"#utility.yul\":32315:32389   */\n      sub\n        /* \"#utility.yul\":32312:32313   */\n      dup3\n        /* \"#utility.yul\":32309:32390   */\n      gt\n        /* \"#utility.yul\":32306:32308   */\n      iszero\n      tag_674\n      jumpi\n        /* \"#utility.yul\":32393:32411   */\n      tag_675\n      tag_676\n      jump\t// in\n    tag_675:\n        /* \"#utility.yul\":32306:32308   */\n    tag_674:\n        /* \"#utility.yul\":32437:32438   */\n      dup3\n        /* \"#utility.yul\":32434:32435   */\n      dup3\n        /* \"#utility.yul\":32430:32439   */\n      add\n        /* \"#utility.yul\":32423:32439   */\n      swap1\n      pop\n        /* \"#utility.yul\":32184:32445   */\n      swap3\n      swap2\n      pop\n      pop\n      jump\t// out\n        /* \"#utility.yul\":32451:32547   */\n    tag_438:\n        /* \"#utility.yul\":32488:32495   */\n      0x00\n        /* \"#utility.yul\":32517:32541   */\n      tag_678\n        /* \"#utility.yul\":32535:32540   */\n      dup3\n        /* \"#utility.yul\":32517:32541   */\n      tag_679\n      jump\t// in\n    tag_678:\n        /* \"#utility.yul\":32506:32541   */\n      swap1\n      pop\n        /* \"#utility.yul\":32496:32547   */\n      swap2\n      swap1\n      pop\n      jump\t// out\n        /* \"#utility.yul\":32553:32643   */\n    tag_680:\n        /* \"#utility.yul\":32587:32594   */\n      0x00\n        /* \"#utility.yul\":32630:32635   */\n      dup2\n        /* \"#utility.yul\":32623:32636   */\n      iszero\n        /* \"#utility.yul\":32616:32637   */\n      iszero\n        /* \"#utility.yul\":32605:32637   */\n      swap1\n      pop\n        /* \"#utility.yul\":32595:32643   */\n      swap2\n      swap1\n      pop\n      jump\t// out\n        /* \"#utility.yul\":32649:32798   */\n    tag_459:\n        /* \"#utility.yul\":32685:32692   */\n      0x00\n        /* \"#utility.yul\":32725:32791   */\n      0xffffffff00000000000000000000000000000000000000000000000000000000\n        /* \"#utility.yul\":32718:32723   */\n      dup3\n        /* \"#utility.yul\":32714:32792   */\n      and\n        /* \"#utility.yul\":32703:32792   */\n      swap1\n      pop\n        /* \"#utility.yul\":32693:32798   */\n      swap2\n      swap1\n      pop\n      jump\t// out\n        /* \"#utility.yul\":32804:32930   */\n    tag_679:\n        /* \"#utility.yul\":32841:32848   */\n      0x00\n        /* \"#utility.yul\":32881:32923   */\n      0xffffffffffffffffffffffffffffffffffffffff\n        /* \"#utility.yul\":32874:32879   */\n      dup3\n        /* \"#utility.yul\":32870:32924   */\n      and\n        /* \"#utility.yul\":32859:32924   */\n      swap1\n      pop\n        /* \"#utility.yul\":32849:32930   */\n      swap2\n      swap1\n      pop\n      jump\t// out\n        /* \"#utility.yul\":32936:33013   */\n    tag_568:\n        /* \"#utility.yul\":32973:32980   */\n      0x00\n        /* \"#utility.yul\":33002:33007   */\n      dup2\n        /* \"#utility.yul\":32991:33007   */\n      swap1\n      pop\n        /* \"#utility.yul\":32981:33013   */\n      swap2\n      swap1\n      pop\n      jump\t// out\n        /* \"#utility.yul\":33019:33199   */\n    tag_676:\n        /* \"#utility.yul\":33067:33144   */\n      0x4e487b7100000000000000000000000000000000000000000000000000000000\n        /* \"#utility.yul\":33064:33065   */\n      0x00\n        /* \"#utility.yul\":33057:33145   */\n      mstore\n        /* \"#utility.yul\":33164:33168   */\n      0x11\n        /* \"#utility.yul\":33161:33162   */\n      0x04\n        /* \"#utility.yul\":33154:33169   */\n      mstore\n        /* \"#utility.yul\":33188:33192   */\n      0x24\n        /* \"#utility.yul\":33185:33186   */\n      0x00\n        /* \"#utility.yul\":33178:33193   */\n      revert\n        /* \"#utility.yul\":33205:33377   */\n    tag_465:\n        /* \"#utility.yul\":33345:33369   */\n      0x596f752061726520686967686573742062696464657200000000000000000000\n        /* \"#utility.yul\":33341:33342   */\n      0x00\n        /* \"#utility.yul\":33333:33339   */\n      dup3\n        /* \"#utility.yul\":33329:33343   */\n      add\n        /* \"#utility.yul\":33322:33370   */\n      mstore\n        /* \"#utility.yul\":33311:33377   */\n      pop\n      jump\t// out\n        /* \"#utility.yul\":33383:33561   */\n    tag_470:\n        /* \"#utility.yul\":33523:33553   */\n      0x4e6674206e6f7420617070726f76656420746f20636f6e747261637400000000\n        /* \"#utility.yul\":33519:33520   */\n      0x00\n        /* \"#utility.yul\":33511:33517   */\n      dup3\n        /* \"#utility.yul\":33507:33521   */\n      add\n        /* \"#utility.yul\":33500:33554   */\n      mstore\n        /* \"#utility.yul\":33489:33561   */\n      pop\n      jump\t// out\n        /* \"#utility.yul\":33567:33734   */\n    tag_475:\n        /* \"#utility.yul\":33707:33726   */\n      0x50726963652063616e6e6f742062652030000000000000000000000000000000\n        /* \"#utility.yul\":33703:33704   */\n      0x00\n        /* \"#utility.yul\":33695:33701   */\n      dup3\n        /* \"#utility.yul\":33691:33705   */\n      add\n        /* \"#utility.yul\":33684:33727   */\n      mstore\n        /* \"#utility.yul\":33673:33734   */\n      pop\n      jump\t// out\n        /* \"#utility.yul\":33740:33903   */\n    tag_480:\n        /* \"#utility.yul\":33880:33895   */\n      0x6e6f74206e6674206f776e657200000000000000000000000000000000000000\n        /* \"#utility.yul\":33876:33877   */\n      0x00\n        /* \"#utility.yul\":33868:33874   */\n      dup3\n        /* \"#utility.yul\":33864:33878   */\n      add\n        /* \"#utility.yul\":33857:33896   */\n      mstore\n        /* \"#utility.yul\":33846:33903   */\n      pop\n      jump\t// out\n        /* \"#utility.yul\":33909:34080   */\n    tag_485:\n        /* \"#utility.yul\":34049:34072   */\n      0x4e6674206e6f7420696e2066697865642073616c650000000000000000000000\n        /* \"#utility.yul\":34045:34046   */\n      0x00\n        /* \"#utility.yul\":34037:34043   */\n      dup3\n        /* \"#utility.yul\":34033:34047   */\n      add\n        /* \"#utility.yul\":34026:34073   */\n      mstore\n        /* \"#utility.yul\":34015:34080   */\n      pop\n      jump\t// out\n        /* \"#utility.yul\":34086:34259   */\n    tag_490:\n        /* \"#utility.yul\":34226:34251   */\n      0x4e6674206e6f7420696e2061756374696f6e2073616c65000000000000000000\n        /* \"#utility.yul\":34222:34223   */\n      0x00\n        /* \"#utility.yul\":34214:34220   */\n      dup3\n        /* \"#utility.yul\":34210:34224   */\n      add\n        /* \"#utility.yul\":34203:34252   */\n      mstore\n        /* \"#utility.yul\":34192:34259   */\n      pop\n      jump\t// out\n        /* \"#utility.yul\":34265:34444   */\n    tag_495:\n        /* \"#utility.yul\":34405:34436   */\n      0x4269642047726561746572207468616e2050726576696f757320426964000000\n        /* \"#utility.yul\":34401:34402   */\n      0x00\n        /* \"#utility.yul\":34393:34399   */\n      dup3\n        /* \"#utility.yul\":34389:34403   */\n      add\n        /* \"#utility.yul\":34382:34437   */\n      mstore\n        /* \"#utility.yul\":34371:34444   */\n      pop\n      jump\t// out\n        /* \"#utility.yul\":34450:34611   */\n    tag_500:\n        /* \"#utility.yul\":34590:34603   */\n      0x41756374696f6e20656e64000000000000000000000000000000000000000000\n        /* \"#utility.yul\":34586:34587   */\n      0x00\n        /* \"#utility.yul\":34578:34584   */\n      dup3\n        /* \"#utility.yul\":34574:34588   */\n      add\n        /* \"#utility.yul\":34567:34604   */\n      mstore\n        /* \"#utility.yul\":34556:34611   */\n      pop\n      jump\t// out\n        /* \"#utility.yul\":34617:34786   */\n    tag_505:\n        /* \"#utility.yul\":34757:34778   */\n      0x4e667420616c726561647920696e2073616c6500000000000000000000000000\n        /* \"#utility.yul\":34753:34754   */\n      0x00\n        /* \"#utility.yul\":34745:34751   */\n      dup3\n        /* \"#utility.yul\":34741:34755   */\n      add\n        /* \"#utility.yul\":34734:34779   */\n      mstore\n        /* \"#utility.yul\":34723:34786   */\n      pop\n      jump\t// out\n        /* \"#utility.yul\":34792:34950   */\n    tag_510:\n        /* \"#utility.yul\":34932:34942   */\n      0x626964206d616b65000000000000000000000000000000000000000000000000\n        /* \"#utility.yul\":34928:34929   */\n      0x00\n        /* \"#utility.yul\":34920:34926   */\n      dup3\n        /* \"#utility.yul\":34916:34930   */\n      add\n        /* \"#utility.yul\":34909:34943   */\n      mstore\n        /* \"#utility.yul\":34898:34950   */\n      pop\n      jump\t// out\n        /* \"#utility.yul\":34956:35126   */\n    tag_515:\n        /* \"#utility.yul\":35096:35118   */\n      0x616c6c6f77616e6365206e6f7420656e6f756768000000000000000000000000\n        /* \"#utility.yul\":35092:35093   */\n      0x00\n        /* \"#utility.yul\":35084:35090   */\n      dup3\n        /* \"#utility.yul\":35080:35094   */\n      add\n        /* \"#utility.yul\":35073:35119   */\n      mstore\n        /* \"#utility.yul\":35062:35126   */\n      pop\n      jump\t// out\n        /* \"#utility.yul\":35132:35297   */\n    tag_520:\n        /* \"#utility.yul\":35272:35289   */\n      0x41756374696f6e206e6f7420656e640000000000000000000000000000000000\n        /* \"#utility.yul\":35268:35269   */\n      0x00\n        /* \"#utility.yul\":35260:35266   */\n      dup3\n        /* \"#utility.yul\":35256:35270   */\n      add\n        /* \"#utility.yul\":35249:35290   */\n      mstore\n        /* \"#utility.yul\":35238:35297   */\n      pop\n      jump\t// out\n        /* \"#utility.yul\":35303:35474   */\n    tag_525:\n        /* \"#utility.yul\":35443:35466   */\n      0x596f7520617265206e6f74206e6674206f776e65720000000000000000000000\n        /* \"#utility.yul\":35439:35440   */\n      0x00\n        /* \"#utility.yul\":35431:35437   */\n      dup3\n        /* \"#utility.yul\":35427:35441   */\n      add\n        /* \"#utility.yul\":35420:35467   */\n      mstore\n        /* \"#utility.yul\":35409:35474   */\n      pop\n      jump\t// out\n        /* \"#utility.yul\":35480:35594   */\n    tag_531:\n        /* \"#utility.yul\":35586:35594   */\n      pop\n      jump\t// out\n        /* \"#utility.yul\":35600:35769   */\n    tag_536:\n        /* \"#utility.yul\":35740:35761   */\n      0x6e6f7468696e6720746f20776974686472617700000000000000000000000000\n        /* \"#utility.yul\":35736:35737   */\n      0x00\n        /* \"#utility.yul\":35728:35734   */\n      dup3\n        /* \"#utility.yul\":35724:35738   */\n      add\n        /* \"#utility.yul\":35717:35762   */\n      mstore\n        /* \"#utility.yul\":35706:35769   */\n      pop\n      jump\t// out\n        /* \"#utility.yul\":35775:35945   */\n    tag_541:\n        /* \"#utility.yul\":35915:35937   */\n      0x627579205072696365206e6f7420656e6f756768000000000000000000000000\n        /* \"#utility.yul\":35911:35912   */\n      0x00\n        /* \"#utility.yul\":35903:35909   */\n      dup3\n        /* \"#utility.yul\":35899:35913   */\n      add\n        /* \"#utility.yul\":35892:35938   */\n      mstore\n        /* \"#utility.yul\":35881:35945   */\n      pop\n      jump\t// out\n        /* \"#utility.yul\":35951:36114   */\n    tag_546:\n        /* \"#utility.yul\":36091:36106   */\n      0x726566756e64206661696c656400000000000000000000000000000000000000\n        /* \"#utility.yul\":36087:36088   */\n      0x00\n        /* \"#utility.yul\":36079:36085   */\n      dup3\n        /* \"#utility.yul\":36075:36089   */\n      add\n        /* \"#utility.yul\":36068:36107   */\n      mstore\n        /* \"#utility.yul\":36057:36114   */\n      pop\n      jump\t// out\n        /* \"#utility.yul\":36120:36242   */\n    tag_373:\n        /* \"#utility.yul\":36193:36217   */\n      tag_704\n        /* \"#utility.yul\":36211:36216   */\n      dup2\n        /* \"#utility.yul\":36193:36217   */\n      tag_438\n      jump\t// in\n    tag_704:\n        /* \"#utility.yul\":36186:36191   */\n      dup2\n        /* \"#utility.yul\":36183:36218   */\n      eq\n        /* \"#utility.yul\":36173:36175   */\n      tag_705\n      jumpi\n        /* \"#utility.yul\":36232:36233   */\n      0x00\n        /* \"#utility.yul\":36229:36230   */\n      dup1\n        /* \"#utility.yul\":36222:36234   */\n      revert\n        /* \"#utility.yul\":36173:36175   */\n    tag_705:\n        /* \"#utility.yul\":36163:36242   */\n      pop\n      jump\t// out\n        /* \"#utility.yul\":36248:36364   */\n    tag_380:\n        /* \"#utility.yul\":36318:36339   */\n      tag_707\n        /* \"#utility.yul\":36333:36338   */\n      dup2\n        /* \"#utility.yul\":36318:36339   */\n      tag_680\n      jump\t// in\n    tag_707:\n        /* \"#utility.yul\":36311:36316   */\n      dup2\n        /* \"#utility.yul\":36308:36340   */\n      eq\n        /* \"#utility.yul\":36298:36300   */\n      tag_708\n      jumpi\n        /* \"#utility.yul\":36354:36355   */\n      0x00\n        /* \"#utility.yul\":36351:36352   */\n      dup1\n        /* \"#utility.yul\":36344:36356   */\n      revert\n        /* \"#utility.yul\":36298:36300   */\n    tag_708:\n        /* \"#utility.yul\":36288:36364   */\n      pop\n      jump\t// out\n        /* \"#utility.yul\":36370:36492   */\n    tag_389:\n        /* \"#utility.yul\":36443:36467   */\n      tag_710\n        /* \"#utility.yul\":36461:36466   */\n      dup2\n        /* \"#utility.yul\":36443:36467   */\n      tag_568\n      jump\t// in\n    tag_710:\n        /* \"#utility.yul\":36436:36441   */\n      dup2\n        /* \"#utility.yul\":36433:36468   */\n      eq\n        /* \"#utility.yul\":36423:36425   */\n      tag_711\n      jumpi\n        /* \"#utility.yul\":36482:36483   */\n      0x00\n        /* \"#utility.yul\":36479:36480   */\n      dup1\n        /* \"#utility.yul\":36472:36484   */\n      revert\n        /* \"#utility.yul\":36423:36425   */\n    tag_711:\n        /* \"#utility.yul\":36413:36492   */\n      pop\n      jump\t// out\n\n    auxdata: 0xa26469706673582212203f95cce164e191963c287cf4c87a53b2044d0cd8389ce9acd4bb3f2dbee47c4364736f6c63430008040033\n}\n",
				"bytecode": {
					"linkReferences": {},
					"object": "608060405234801561001057600080fd5b50614e19806100206000396000f3fe6080604052600436106100f75760003560e01c80636f8c9b1b1161008a5780639f085a00116100595780639f085a0014610339578063baf4371e14610364578063cf42b7e614610380578063d3a6a6c9146103a9576100fe565b80636f8c9b1b146102595780636fe02f2414610296578063842bc46a146102d35780638c3417da146102fc576100fe565b80634cb8ef5b116100c65780634cb8ef5b146101a15780635138b08c146101ca5780636916462f146101f357806369a6d12e14610230576100fe565b8063150b7a02146101035780631bdae6f1146101405780633a713db81461015c5780634676adca14610178576100fe565b366100fe57005b600080fd5b34801561010f57600080fd5b5061012a60048036038101906101259190613de1565b6103d2565b6040516101379190614751565b60405180910390f35b61015a60048036038101906101559190613fd8565b6103e7565b005b61017660048036038101906101719190613fd8565b610a1e565b005b34801561018457600080fd5b5061019f600480360381019061019a9190613fd8565b6111b7565b005b3480156101ad57600080fd5b506101c860048036038101906101c39190613f4d565b61140e565b005b3480156101d657600080fd5b506101f160048036038101906101ec9190613f4d565b61172b565b005b3480156101ff57600080fd5b5061021a60048036038101906102159190613f4d565b611ace565b60405161022791906149a2565b60405180910390f35b34801561023c57600080fd5b5061025760048036038101906102529190613e61565b611af3565b005b34801561026557600080fd5b50610280600480360381019061027b9190613f4d565b61213b565b60405161028d919061496c565b60405180910390f35b3480156102a257600080fd5b506102bd60048036038101906102b89190613f89565b6122d0565b6040516102ca91906149a2565b60405180910390f35b3480156102df57600080fd5b506102fa60048036038101906102f59190613f4d565b612302565b005b34801561030857600080fd5b50610323600480360381019061031e9190613f4d565b612700565b6040516103309190614987565b60405180910390f35b34801561034557600080fd5b5061034e612876565b60405161035b919061472f565b60405180910390f35b61037e60048036038101906103799190613fd8565b612935565b005b34801561038c57600080fd5b506103a760048036038101906103a29190613ec4565b612e4f565b005b3480156103b557600080fd5b506103d060048036038101906103cb9190613f4d565b61314c565b005b600063150b7a0260e01b905095945050505050565b828260028060008473ffffffffffffffffffffffffffffffffffffffff1673ffffffffffffffffffffffffffffffffffffffff1681526020019081526020016000206000838152602001908152602001600020541461047b576040517f08c379a00000000000000000000000000000000000000000000000000000000081526004016104729061480c565b60405180910390fd5b8484600160008373ffffffffffffffffffffffffffffffffffffffff1673ffffffffffffffffffffffffffffffffffffffff1681526020019081526020016000206000828152602001908152602001600020600101544210610512576040517f08c379a00000000000000000000000000000000000000000000000000000000081526004016105099061484c565b60405180910390fd5b8460008111610556576040517f08c379a000000000000000000000000000000000000000000000000000000000815260040161054d906147ac565b60405180910390fd5b87873488600073ffffffffffffffffffffffffffffffffffffffff16600160008673ffffffffffffffffffffffffffffffffffffffff1673ffffffffffffffffffffffffffffffffffffffff168152602001908152602001600020600085815260200190815260200160002060060160009054906101000a900473ffffffffffffffffffffffffffffffffffffffff1673ffffffffffffffffffffffffffffffffffffffff16141561069c57600160008573ffffffffffffffffffffffffffffffffffffffff1673ffffffffffffffffffffffffffffffffffffffff1681526020019081526020016000206000848152602001908152602001600020600301548211610697576040517f08c379a000000000000000000000000000000000000000000000000000000000815260040161068e9061482c565b60405180910390fd5b610732565b600160008573ffffffffffffffffffffffffffffffffffffffff1673ffffffffffffffffffffffffffffffffffffffff1681526020019081526020016000206000848152602001908152602001600020600301548111610731576040517f08c379a00000000000000000000000000000000000000000000000000000000081526004016107289061482c565b60405180910390fd5b5b600073ffffffffffffffffffffffffffffffffffffffff16600160008e73ffffffffffffffffffffffffffffffffffffffff1673ffffffffffffffffffffffffffffffffffffffff16815260200190815260200160002060008d815260200190815260200160002060060160009054906101000a900473ffffffffffffffffffffffffffffffffffffffff1673ffffffffffffffffffffffffffffffffffffffff1614610857576108568a600160008f73ffffffffffffffffffffffffffffffffffffffff1673ffffffffffffffffffffffffffffffffffffffff16815260200190815260200160002060008e815260200190815260200160002060060160009054906101000a900473ffffffffffffffffffffffffffffffffffffffff16613495565b5b89600160008e73ffffffffffffffffffffffffffffffffffffffff1673ffffffffffffffffffffffffffffffffffffffff16815260200190815260200160002060008d81526020019081526020016000206003018190555033600160008e73ffffffffffffffffffffffffffffffffffffffff1673ffffffffffffffffffffffffffffffffffffffff16815260200190815260200160002060008d815260200190815260200160002060040160006101000a81548173ffffffffffffffffffffffffffffffffffffffff021916908373ffffffffffffffffffffffffffffffffffffffff16021790555089600360008e73ffffffffffffffffffffffffffffffffffffffff1673ffffffffffffffffffffffffffffffffffffffff16815260200190815260200160002060008d815260200190815260200160002060003373ffffffffffffffffffffffffffffffffffffffff1673ffffffffffffffffffffffffffffffffffffffff168152602001908152602001600020819055507fd56cb6210c78740462007b728932c802bc41b205ed5c8a98ab95421eaf054b228c8c8c33604051610a0894939291906146ea565b60405180910390a1505050505050505050505050565b828260028060008473ffffffffffffffffffffffffffffffffffffffff1673ffffffffffffffffffffffffffffffffffffffff16815260200190815260200160002060008381526020019081526020016000205414610ab2576040517f08c379a0000000000000000000000000000000000000000000000000000000008152600401610aa99061480c565b60405180910390fd5b8484600160008373ffffffffffffffffffffffffffffffffffffffff1673ffffffffffffffffffffffffffffffffffffffff1681526020019081526020016000206000828152602001908152602001600020600101544210610b49576040517f08c379a0000000000000000000000000000000000000000000000000000000008152600401610b409061484c565b60405180910390fd5b3460008111610b8d576040517f08c379a0000000000000000000000000000000000000000000000000000000008152600401610b84906147ac565b60405180910390fd5b8787348860008073ffffffffffffffffffffffffffffffffffffffff16600160008773ffffffffffffffffffffffffffffffffffffffff1673ffffffffffffffffffffffffffffffffffffffff168152602001908152602001600020600086815260200190815260200160002060060160009054906101000a900473ffffffffffffffffffffffffffffffffffffffff1673ffffffffffffffffffffffffffffffffffffffff161415610ce157610cda83600360008873ffffffffffffffffffffffffffffffffffffffff1673ffffffffffffffffffffffffffffffffffffffff168152602001908152602001600020600087815260200190815260200160002060003373ffffffffffffffffffffffffffffffffffffffff1673ffffffffffffffffffffffffffffffffffffffff1681526020019081526020016000205461356790919063ffffffff16565b9050610d84565b610d8182600360008873ffffffffffffffffffffffffffffffffffffffff1673ffffffffffffffffffffffffffffffffffffffff168152602001908152602001600020600087815260200190815260200160002060003373ffffffffffffffffffffffffffffffffffffffff1673ffffffffffffffffffffffffffffffffffffffff1681526020019081526020016000205461356790919063ffffffff16565b90505b600160008673ffffffffffffffffffffffffffffffffffffffff1673ffffffffffffffffffffffffffffffffffffffff1681526020019081526020016000206000858152602001908152602001600020600301548111610e19576040517f08c379a0000000000000000000000000000000000000000000000000000000008152600401610e109061482c565b60405180910390fd5b60008d905060008d90506000610ec58e600360008673ffffffffffffffffffffffffffffffffffffffff1673ffffffffffffffffffffffffffffffffffffffff168152602001908152602001600020600085815260200190815260200160002060003373ffffffffffffffffffffffffffffffffffffffff1673ffffffffffffffffffffffffffffffffffffffff1681526020019081526020016000205461356790919063ffffffff16565b9050600073ffffffffffffffffffffffffffffffffffffffff16600160008573ffffffffffffffffffffffffffffffffffffffff1673ffffffffffffffffffffffffffffffffffffffff168152602001908152602001600020600084815260200190815260200160002060060160009054906101000a900473ffffffffffffffffffffffffffffffffffffffff1673ffffffffffffffffffffffffffffffffffffffff1614610fec57610feb8e600160008673ffffffffffffffffffffffffffffffffffffffff1673ffffffffffffffffffffffffffffffffffffffff168152602001908152602001600020600085815260200190815260200160002060060160009054906101000a900473ffffffffffffffffffffffffffffffffffffffff16613495565b5b80600160008573ffffffffffffffffffffffffffffffffffffffff1673ffffffffffffffffffffffffffffffffffffffff16815260200190815260200160002060008481526020019081526020016000206003018190555033600160008573ffffffffffffffffffffffffffffffffffffffff1673ffffffffffffffffffffffffffffffffffffffff168152602001908152602001600020600084815260200190815260200160002060040160006101000a81548173ffffffffffffffffffffffffffffffffffffffff021916908373ffffffffffffffffffffffffffffffffffffffff16021790555080600360008573ffffffffffffffffffffffffffffffffffffffff1673ffffffffffffffffffffffffffffffffffffffff168152602001908152602001600020600084815260200190815260200160002060003373ffffffffffffffffffffffffffffffffffffffff1673ffffffffffffffffffffffffffffffffffffffff168152602001908152602001600020819055507f907cdadc7c1a8abcdd80cdd85eb18377631e4f413fb6397a8252ff7b358ac6cb8383833360405161119d94939291906146ea565b60405180910390a150505050505050505050505050505050565b82826001600260008473ffffffffffffffffffffffffffffffffffffffff1673ffffffffffffffffffffffffffffffffffffffff1681526020019081526020016000206000838152602001908152602001600020541461124c576040517f08c379a0000000000000000000000000000000000000000000000000000000008152600401611243906147ec565b60405180910390fd5b84846000808373ffffffffffffffffffffffffffffffffffffffff1673ffffffffffffffffffffffffffffffffffffffff168152602001908152602001600020600082815260200190815260200160002060000160009054906101000a900473ffffffffffffffffffffffffffffffffffffffff1673ffffffffffffffffffffffffffffffffffffffff163373ffffffffffffffffffffffffffffffffffffffff161461132e576040517f08c379a0000000000000000000000000000000000000000000000000000000008152600401611325906148ec565b60405180910390fd5b8460008111611372576040517f08c379a0000000000000000000000000000000000000000000000000000000008152600401611369906147ac565b60405180910390fd5b856000808a73ffffffffffffffffffffffffffffffffffffffff1673ffffffffffffffffffffffffffffffffffffffff1681526020019081526020016000206000898152602001908152602001600020600301819055507f575a0876095ccf47276a37dce683308a625403d132d219f95205ce205b2e12bc8888886040516113fc939291906146b3565b60405180910390a15050505050505050565b8181600160008373ffffffffffffffffffffffffffffffffffffffff1673ffffffffffffffffffffffffffffffffffffffff16815260200190815260200160002060008281526020019081526020016000206001015442116114a5576040517f08c379a000000000000000000000000000000000000000000000000000000000815260040161149c906148cc565b60405180910390fd5b600160008573ffffffffffffffffffffffffffffffffffffffff1673ffffffffffffffffffffffffffffffffffffffff168152602001908152602001600020600084815260200190815260200160002060040160009054906101000a900473ffffffffffffffffffffffffffffffffffffffff1673ffffffffffffffffffffffffffffffffffffffff163373ffffffffffffffffffffffffffffffffffffffff161415611587576040517f08c379a000000000000000000000000000000000000000000000000000000000815260040161157e9061476c565b60405180910390fd5b6000600360008673ffffffffffffffffffffffffffffffffffffffff1673ffffffffffffffffffffffffffffffffffffffff168152602001908152602001600020600085815260200190815260200160002060003373ffffffffffffffffffffffffffffffffffffffff1673ffffffffffffffffffffffffffffffffffffffff1681526020019081526020016000205411611657576040517f08c379a000000000000000000000000000000000000000000000000000000000815260040161164e9061490c565b60405180910390fd5b6000600360008673ffffffffffffffffffffffffffffffffffffffff1673ffffffffffffffffffffffffffffffffffffffff168152602001908152602001600020600085815260200190815260200160002060003373ffffffffffffffffffffffffffffffffffffffff1673ffffffffffffffffffffffffffffffffffffffff168152602001908152602001600020819055507fde8cb9aa2c755cf75d5fbc4fec824b10e311652306f1fca5c8e57a04758b0aa784843360405161171d93929190614629565b60405180910390a150505050565b818160028060008473ffffffffffffffffffffffffffffffffffffffff1673ffffffffffffffffffffffffffffffffffffffff168152602001908152602001600020600083815260200190815260200160002054146117bf576040517f08c379a00000000000000000000000000000000000000000000000000000000081526004016117b69061480c565b60405180910390fd5b8383600160008373ffffffffffffffffffffffffffffffffffffffff1673ffffffffffffffffffffffffffffffffffffffff1681526020019081526020016000206000828152602001908152602001600020600101544211611856576040517f08c379a000000000000000000000000000000000000000000000000000000000815260040161184d906148cc565b60405180910390fd5b6000600160008873ffffffffffffffffffffffffffffffffffffffff1673ffffffffffffffffffffffffffffffffffffffff168152602001908152602001600020600087815260200190815260200160002060040160009054906101000a900473ffffffffffffffffffffffffffffffffffffffff16905061192d8787600160008b73ffffffffffffffffffffffffffffffffffffffff1673ffffffffffffffffffffffffffffffffffffffff16815260200190815260200160002060008a8152602001908152602001600020600301548461357d565b6000600360008973ffffffffffffffffffffffffffffffffffffffff1673ffffffffffffffffffffffffffffffffffffffff168152602001908152602001600020600088815260200190815260200160002060008373ffffffffffffffffffffffffffffffffffffffff1673ffffffffffffffffffffffffffffffffffffffff168152602001908152602001600020819055507fb31cb4f6609b11a57d1b6b14cc3f81f4b3e609f709a5b1e46892a45f9cc29ed8878783600160008c73ffffffffffffffffffffffffffffffffffffffff1673ffffffffffffffffffffffffffffffffffffffff16815260200190815260200160002060008b815260200190815260200160002060030154600160008d73ffffffffffffffffffffffffffffffffffffffff1673ffffffffffffffffffffffffffffffffffffffff16815260200190815260200160002060008c815260200190815260200160002060050160009054906101000a900473ffffffffffffffffffffffffffffffffffffffff16604051611abd959493929190614660565b60405180910390a150505050505050565b6002602052816000526040600020602052806000526040600020600091509150505481565b83828173ffffffffffffffffffffffffffffffffffffffff16636352211e826040518263ffffffff1660e01b8152600401611b2e91906149a2565b60206040518083038186803b158015611b4657600080fd5b505afa158015611b5a573d6000803e3d6000fd5b505050506040513d601f19601f82011682018060405250810190611b7e9190613db8565b73ffffffffffffffffffffffffffffffffffffffff163373ffffffffffffffffffffffffffffffffffffffff1614611beb576040517f08c379a0000000000000000000000000000000000000000000000000000000008152600401611be2906148ec565b60405180910390fd5b85846000600260008473ffffffffffffffffffffffffffffffffffffffff1673ffffffffffffffffffffffffffffffffffffffff16815260200190815260200160002060008381526020019081526020016000205414611c80576040517f08c379a0000000000000000000000000000000000000000000000000000000008152600401611c779061486c565b60405180910390fd5b87868173ffffffffffffffffffffffffffffffffffffffff1663e985e9c533306040518363ffffffff1660e01b8152600401611cbd92919061448b565b60206040518083038186803b158015611cd557600080fd5b505afa158015611ce9573d6000803e3d6000fd5b505050506040513d601f19601f82011682018060405250810190611d0d9190614027565b611d4c576040517f08c379a0000000000000000000000000000000000000000000000000000000008152600401611d439061478c565b60405180910390fd5b8660008111611d90576040517f08c379a0000000000000000000000000000000000000000000000000000000008152600401611d87906147ac565b60405180910390fd5b60405180608001604052803373ffffffffffffffffffffffffffffffffffffffff168152602001600073ffffffffffffffffffffffffffffffffffffffff1681526020018b73ffffffffffffffffffffffffffffffffffffffff168152602001898152506000808d73ffffffffffffffffffffffffffffffffffffffff1673ffffffffffffffffffffffffffffffffffffffff16815260200190815260200160002060008b815260200190815260200160002060008201518160000160006101000a81548173ffffffffffffffffffffffffffffffffffffffff021916908373ffffffffffffffffffffffffffffffffffffffff16021790555060208201518160010160006101000a81548173ffffffffffffffffffffffffffffffffffffffff021916908373ffffffffffffffffffffffffffffffffffffffff16021790555060408201518160020160006101000a81548173ffffffffffffffffffffffffffffffffffffffff021916908373ffffffffffffffffffffffffffffffffffffffff160217905550606082015181600301559050506001600260008d73ffffffffffffffffffffffffffffffffffffffff1673ffffffffffffffffffffffffffffffffffffffff16815260200190815260200160002060008b815260200190815260200160002081905550600580549050600460008d73ffffffffffffffffffffffffffffffffffffffff1673ffffffffffffffffffffffffffffffffffffffff16815260200190815260200160002060008b815260200190815260200160002081905550600560405180604001604052808d73ffffffffffffffffffffffffffffffffffffffff1681526020018b815250908060018154018082558091505060019003906000526020600020906002020160009091909190915060008201518160000160006101000a81548173ffffffffffffffffffffffffffffffffffffffff021916908373ffffffffffffffffffffffffffffffffffffffff1602179055506020820151816001015550508a73ffffffffffffffffffffffffffffffffffffffff166342842e0e33308c6040518463ffffffff1660e01b81526004016120bb93929190614584565b600060405180830381600087803b1580156120d557600080fd5b505af11580156120e9573d6000803e3d6000fd5b505050507f078eead3cd01ed921c7653d000a6b73aea643a7b9c066fb7d93eb2eae8acc2d98b338c8c8c42604051612126969594939291906144b4565b60405180910390a15050505050505050505050565b612143613c31565b600160008473ffffffffffffffffffffffffffffffffffffffff1673ffffffffffffffffffffffffffffffffffffffff16815260200190815260200160002060008381526020019081526020016000206040518060e0016040529081600082015481526020016001820154815260200160028201548152602001600382015481526020016004820160009054906101000a900473ffffffffffffffffffffffffffffffffffffffff1673ffffffffffffffffffffffffffffffffffffffff1673ffffffffffffffffffffffffffffffffffffffff1681526020016005820160009054906101000a900473ffffffffffffffffffffffffffffffffffffffff1673ffffffffffffffffffffffffffffffffffffffff1673ffffffffffffffffffffffffffffffffffffffff1681526020016006820160009054906101000a900473ffffffffffffffffffffffffffffffffffffffff1673ffffffffffffffffffffffffffffffffffffffff1673ffffffffffffffffffffffffffffffffffffffff1681525050905092915050565b600360205282600052604060002060205281600052604060002060205280600052604060002060009250925050505481565b818160028060008473ffffffffffffffffffffffffffffffffffffffff1673ffffffffffffffffffffffffffffffffffffffff16815260200190815260200160002060008381526020019081526020016000205414612396576040517f08c379a000000000000000000000000000000000000000000000000000000000815260040161238d9061480c565b60405180910390fd5b8383600160008373ffffffffffffffffffffffffffffffffffffffff1673ffffffffffffffffffffffffffffffffffffffff168152602001908152602001600020600082815260200190815260200160002060050160009054906101000a900473ffffffffffffffffffffffffffffffffffffffff1673ffffffffffffffffffffffffffffffffffffffff163373ffffffffffffffffffffffffffffffffffffffff1614612479576040517f08c379a0000000000000000000000000000000000000000000000000000000008152600401612470906147cc565b60405180910390fd5b8585600160008373ffffffffffffffffffffffffffffffffffffffff1673ffffffffffffffffffffffffffffffffffffffff1681526020019081526020016000206000828152602001908152602001600020600101544210612510576040517f08c379a00000000000000000000000000000000000000000000000000000000081526004016125079061484c565b60405180910390fd5b8787600160008373ffffffffffffffffffffffffffffffffffffffff1673ffffffffffffffffffffffffffffffffffffffff168152602001908152602001600020600082815260200190815260200160002060040160009054906101000a900473ffffffffffffffffffffffffffffffffffffffff1673ffffffffffffffffffffffffffffffffffffffff16600073ffffffffffffffffffffffffffffffffffffffff16146125f4576040517f08c379a00000000000000000000000000000000000000000000000000000000081526004016125eb9061488c565b60405180910390fd5b6000600260008c73ffffffffffffffffffffffffffffffffffffffff1673ffffffffffffffffffffffffffffffffffffffff16815260200190815260200160002060008b8152602001908152602001600020819055508973ffffffffffffffffffffffffffffffffffffffff166342842e0e30338c6040518463ffffffff1660e01b815260040161268793929190614584565b600060405180830381600087803b1580156126a157600080fd5b505af11580156126b5573d6000803e3d6000fd5b505050507fb9d411977d4ee731f87bb8f16eb6f8c1fb579cff684642052bf6084e6e33238d8a8a336040516126ec93929190614629565b60405180910390a150505050505050505050565b612708613cb0565b6000808473ffffffffffffffffffffffffffffffffffffffff1673ffffffffffffffffffffffffffffffffffffffff16815260200190815260200160002060008381526020019081526020016000206040518060800160405290816000820160009054906101000a900473ffffffffffffffffffffffffffffffffffffffff1673ffffffffffffffffffffffffffffffffffffffff1673ffffffffffffffffffffffffffffffffffffffff1681526020016001820160009054906101000a900473ffffffffffffffffffffffffffffffffffffffff1673ffffffffffffffffffffffffffffffffffffffff1673ffffffffffffffffffffffffffffffffffffffff1681526020016002820160009054906101000a900473ffffffffffffffffffffffffffffffffffffffff1673ffffffffffffffffffffffffffffffffffffffff1673ffffffffffffffffffffffffffffffffffffffff168152602001600382015481525050905092915050565b60606005805480602002602001604051908101604052809291908181526020016000905b8282101561292c57838290600052602060002090600202016040518060400160405290816000820160009054906101000a900473ffffffffffffffffffffffffffffffffffffffff1673ffffffffffffffffffffffffffffffffffffffff1673ffffffffffffffffffffffffffffffffffffffff1681526020016001820154815250508152602001906001019061289a565b50505050905090565b82826001600260008473ffffffffffffffffffffffffffffffffffffffff1673ffffffffffffffffffffffffffffffffffffffff168152602001908152602001600020600083815260200190815260200160002054146129ca576040517f08c379a00000000000000000000000000000000000000000000000000000000081526004016129c1906147ec565b60405180910390fd5b8260008111612a0e576040517f08c379a0000000000000000000000000000000000000000000000000000000008152600401612a05906147ac565b60405180910390fd5b8585856000808473ffffffffffffffffffffffffffffffffffffffff1673ffffffffffffffffffffffffffffffffffffffff168152602001908152602001600020600083815260200190815260200160002060030154811015612aa6576040517f08c379a0000000000000000000000000000000000000000000000000000000008152600401612a9d9061492c565b60405180910390fd5b8873ffffffffffffffffffffffffffffffffffffffff166342842e0e30338b6040518463ffffffff1660e01b8152600401612ae393929190614584565b600060405180830381600087803b158015612afd57600080fd5b505af1158015612b11573d6000803e3d6000fd5b505050506000600260008b73ffffffffffffffffffffffffffffffffffffffff1673ffffffffffffffffffffffffffffffffffffffff16815260200190815260200160002060008a8152602001908152602001600020819055506005600460008b73ffffffffffffffffffffffffffffffffffffffff1673ffffffffffffffffffffffffffffffffffffffff16815260200190815260200160002060008a81526020019081526020016000205481548110612bf5577f4e487b7100000000000000000000000000000000000000000000000000000000600052603260045260246000fd5b9060005260206000209060020201600080820160006101000a81549073ffffffffffffffffffffffffffffffffffffffff021916905560018201600090555050336000808b73ffffffffffffffffffffffffffffffffffffffff1673ffffffffffffffffffffffffffffffffffffffff16815260200190815260200160002060008a815260200190815260200160002060010160006101000a81548173ffffffffffffffffffffffffffffffffffffffff021916908373ffffffffffffffffffffffffffffffffffffffff160217905550612e076000808b73ffffffffffffffffffffffffffffffffffffffff1673ffffffffffffffffffffffffffffffffffffffff16815260200190815260200160002060008a815260200190815260200160002060000160009054906101000a900473ffffffffffffffffffffffffffffffffffffffff166000808c73ffffffffffffffffffffffffffffffffffffffff1673ffffffffffffffffffffffffffffffffffffffff16815260200190815260200160002060008b815260200190815260200160002060020160009054906101000a900473ffffffffffffffffffffffffffffffffffffffff166000808d73ffffffffffffffffffffffffffffffffffffffff1673ffffffffffffffffffffffffffffffffffffffff16815260200190815260200160002060008c815260200190815260200160002060030154613739565b7f9fa3b1bb9266e05722b54a7a564d02a274bc80d39f4af21e6be405480996ceba89338a8a604051612e3c94939291906145bb565b60405180910390a1505050505050505050565b85848173ffffffffffffffffffffffffffffffffffffffff16636352211e826040518263ffffffff1660e01b8152600401612e8a91906149a2565b60206040518083038186803b158015612ea257600080fd5b505afa158015612eb6573d6000803e3d6000fd5b505050506040513d601f19601f82011682018060405250810190612eda9190613db8565b73ffffffffffffffffffffffffffffffffffffffff163373ffffffffffffffffffffffffffffffffffffffff1614612f47576040517f08c379a0000000000000000000000000000000000000000000000000000000008152600401612f3e906148ec565b60405180910390fd5b87866000600260008473ffffffffffffffffffffffffffffffffffffffff1673ffffffffffffffffffffffffffffffffffffffff16815260200190815260200160002060008381526020019081526020016000205414612fdc576040517f08c379a0000000000000000000000000000000000000000000000000000000008152600401612fd39061486c565b60405180910390fd5b89888173ffffffffffffffffffffffffffffffffffffffff1663e985e9c533306040518363ffffffff1660e01b815260040161301992919061448b565b60206040518083038186803b15801561303157600080fd5b505afa158015613045573d6000803e3d6000fd5b505050506040513d601f19601f820116820180604052508101906130699190614027565b6130a8576040517f08c379a000000000000000000000000000000000000000000000000000000000815260040161309f9061478c565b60405180910390fd5b86600081116130ec576040517f08c379a00000000000000000000000000000000000000000000000000000000081526004016130e3906147ac565b60405180910390fd5b6130fa8d8d8d8d8d8d61378d565b7fecbc6a097da08dbf6f781ce204aad454ce3dc8f112c51c7a56f1671de89cee8c8d338e8e8e8e8e6040516131359796959493929190614515565b60405180910390a150505050505050505050505050565b81816001600260008473ffffffffffffffffffffffffffffffffffffffff1673ffffffffffffffffffffffffffffffffffffffff168152602001908152602001600020600083815260200190815260200160002054146131e1576040517f08c379a00000000000000000000000000000000000000000000000000000000081526004016131d8906147ec565b60405180910390fd5b83836000808373ffffffffffffffffffffffffffffffffffffffff1673ffffffffffffffffffffffffffffffffffffffff168152602001908152602001600020600082815260200190815260200160002060000160009054906101000a900473ffffffffffffffffffffffffffffffffffffffff1673ffffffffffffffffffffffffffffffffffffffff163373ffffffffffffffffffffffffffffffffffffffff16146132c3576040517f08c379a00000000000000000000000000000000000000000000000000000000081526004016132ba906148ec565b60405180910390fd5b8573ffffffffffffffffffffffffffffffffffffffff166342842e0e3033886040518463ffffffff1660e01b815260040161330093929190614584565b600060405180830381600087803b15801561331a57600080fd5b505af115801561332e573d6000803e3d6000fd5b505050506000600260008873ffffffffffffffffffffffffffffffffffffffff1673ffffffffffffffffffffffffffffffffffffffff1681526020019081526020016000206000878152602001908152602001600020819055506005600460008873ffffffffffffffffffffffffffffffffffffffff1673ffffffffffffffffffffffffffffffffffffffff16815260200190815260200160002060008781526020019081526020016000205481548110613412577f4e487b7100000000000000000000000000000000000000000000000000000000600052603260045260246000fd5b9060005260206000209060020201600080820160006101000a81549073ffffffffffffffffffffffffffffffffffffffff0219169055600182016000905550507fd7348ff00cf381a884144b50b3441398a48a7974ec349287df80e18cec9f5a3186338760405161348593929190614584565b60405180910390a1505050505050565b8073ffffffffffffffffffffffffffffffffffffffff166323b872dd3330856040518463ffffffff1660e01b81526004016134d293929190614584565b602060405180830381600087803b1580156134ec57600080fd5b505af1158015613500573d6000803e3d6000fd5b505050506040513d601f19601f820116820180604052508101906135249190614027565b613563576040517f08c379a000000000000000000000000000000000000000000000000000000000815260040161355a906148ac565b60405180910390fd5b5050565b600081836135759190614a12565b905092915050565b8373ffffffffffffffffffffffffffffffffffffffff166342842e0e3083866040518463ffffffff1660e01b81526004016135ba93929190614584565b600060405180830381600087803b1580156135d457600080fd5b505af11580156135e8573d6000803e3d6000fd5b505050506000600260008673ffffffffffffffffffffffffffffffffffffffff1673ffffffffffffffffffffffffffffffffffffffff168152602001908152602001600020600085815260200190815260200160002081905550613733600160008673ffffffffffffffffffffffffffffffffffffffff1673ffffffffffffffffffffffffffffffffffffffff168152602001908152602001600020600085815260200190815260200160002060050160009054906101000a900473ffffffffffffffffffffffffffffffffffffffff16600160008773ffffffffffffffffffffffffffffffffffffffff1673ffffffffffffffffffffffffffffffffffffffff168152602001908152602001600020600086815260200190815260200160002060060160009054906101000a900473ffffffffffffffffffffffffffffffffffffffff1684613739565b50505050565b600073ffffffffffffffffffffffffffffffffffffffff168273ffffffffffffffffffffffffffffffffffffffff161461377d57613778838383613a1f565b613788565b6137878382613b80565b5b505050565b6040518060e00160405280848152602001838152602001828152602001828152602001600073ffffffffffffffffffffffffffffffffffffffff1681526020013373ffffffffffffffffffffffffffffffffffffffff1681526020018673ffffffffffffffffffffffffffffffffffffffff16815250600160008873ffffffffffffffffffffffffffffffffffffffff1673ffffffffffffffffffffffffffffffffffffffff16815260200190815260200160002060008681526020019081526020016000206000820151816000015560208201518160010155604082015181600201556060820151816003015560808201518160040160006101000a81548173ffffffffffffffffffffffffffffffffffffffff021916908373ffffffffffffffffffffffffffffffffffffffff16021790555060a08201518160050160006101000a81548173ffffffffffffffffffffffffffffffffffffffff021916908373ffffffffffffffffffffffffffffffffffffffff16021790555060c08201518160060160006101000a81548173ffffffffffffffffffffffffffffffffffffffff021916908373ffffffffffffffffffffffffffffffffffffffff16021790555090505060028060008873ffffffffffffffffffffffffffffffffffffffff1673ffffffffffffffffffffffffffffffffffffffff1681526020019081526020016000206000868152602001908152602001600020819055508573ffffffffffffffffffffffffffffffffffffffff166342842e0e3330876040518463ffffffff1660e01b81526004016139e593929190614584565b600060405180830381600087803b1580156139ff57600080fd5b505af1158015613a13573d6000803e3d6000fd5b50505050505050505050565b8173ffffffffffffffffffffffffffffffffffffffff166323b872dd3330846040518463ffffffff1660e01b8152600401613a5c93929190614584565b602060405180830381600087803b158015613a7657600080fd5b505af1158015613a8a573d6000803e3d6000fd5b505050506040513d601f19601f82011682018060405250810190613aae9190614027565b613aed576040517f08c379a0000000000000000000000000000000000000000000000000000000008152600401613ae4906148ac565b60405180910390fd5b8173ffffffffffffffffffffffffffffffffffffffff1663a9059cbb84836040518363ffffffff1660e01b8152600401613b28929190614600565b602060405180830381600087803b158015613b4257600080fd5b505af1158015613b56573d6000803e3d6000fd5b505050506040513d601f19601f82011682018060405250810190613b7a9190614027565b50505050565b60008273ffffffffffffffffffffffffffffffffffffffff1682604051613ba690614476565b60006040518083038185875af1925050503d8060008114613be3576040519150601f19603f3d011682016040523d82523d6000602084013e613be8565b606091505b5050905080613c2c576040517f08c379a0000000000000000000000000000000000000000000000000000000008152600401613c239061494c565b60405180910390fd5b505050565b6040518060e0016040528060008152602001600081526020016000815260200160008152602001600073ffffffffffffffffffffffffffffffffffffffff168152602001600073ffffffffffffffffffffffffffffffffffffffff168152602001600073ffffffffffffffffffffffffffffffffffffffff1681525090565b6040518060800160405280600073ffffffffffffffffffffffffffffffffffffffff168152602001600073ffffffffffffffffffffffffffffffffffffffff168152602001600073ffffffffffffffffffffffffffffffffffffffff168152602001600081525090565b600081359050613d2981614d9e565b92915050565b600081519050613d3e81614d9e565b92915050565b600081519050613d5381614db5565b92915050565b60008083601f840112613d6b57600080fd5b8235905067ffffffffffffffff811115613d8457600080fd5b602083019150836001820283011115613d9c57600080fd5b9250929050565b600081359050613db281614dcc565b92915050565b600060208284031215613dca57600080fd5b6000613dd884828501613d2f565b91505092915050565b600080600080600060808688031215613df957600080fd5b6000613e0788828901613d1a565b9550506020613e1888828901613d1a565b9450506040613e2988828901613da3565b935050606086013567ffffffffffffffff811115613e4657600080fd5b613e5288828901613d59565b92509250509295509295909350565b60008060008060808587031215613e7757600080fd5b6000613e8587828801613d1a565b9450506020613e9687828801613d1a565b9350506040613ea787828801613da3565b9250506060613eb887828801613da3565b91505092959194509250565b60008060008060008060c08789031215613edd57600080fd5b6000613eeb89828a01613d1a565b9650506020613efc89828a01613d1a565b9550506040613f0d89828a01613da3565b9450506060613f1e89828a01613da3565b9350506080613f2f89828a01613da3565b92505060a0613f4089828a01613da3565b9150509295509295509295565b60008060408385031215613f6057600080fd5b6000613f6e85828601613d1a565b9250506020613f7f85828601613da3565b9150509250929050565b600080600060608486031215613f9e57600080fd5b6000613fac86828701613d1a565b9350506020613fbd86828701613da3565b9250506040613fce86828701613d1a565b9150509250925092565b600080600060608486031215613fed57600080fd5b6000613ffb86828701613d1a565b935050602061400c86828701613da3565b925050604061401d86828701613da3565b9150509250925092565b60006020828403121561403957600080fd5b600061404784828501613d44565b91505092915050565b600061405c8383614429565b60408301905092915050565b61407181614a68565b82525050565b61408081614a68565b82525050565b6000614091826149cd565b61409b81856149e5565b93506140a6836149bd565b8060005b838110156140d75781516140be8882614050565b97506140c9836149d8565b9250506001810190506140aa565b5085935050505092915050565b6140ed81614a86565b82525050565b6000614100601683614a01565b915061410b82614b0b565b602082019050919050565b6000614123601c83614a01565b915061412e82614b34565b602082019050919050565b6000614146601183614a01565b915061415182614b5d565b602082019050919050565b6000614169600d83614a01565b915061417482614b86565b602082019050919050565b600061418c601583614a01565b915061419782614baf565b602082019050919050565b60006141af601783614a01565b91506141ba82614bd8565b602082019050919050565b60006141d2601d83614a01565b91506141dd82614c01565b602082019050919050565b60006141f5600b83614a01565b915061420082614c2a565b602082019050919050565b6000614218601383614a01565b915061422382614c53565b602082019050919050565b600061423b600883614a01565b915061424682614c7c565b602082019050919050565b600061425e601483614a01565b915061426982614ca5565b602082019050919050565b6000614281600f83614a01565b915061428c82614cce565b602082019050919050565b60006142a4601583614a01565b91506142af82614cf7565b602082019050919050565b60006142c76000836149f6565b91506142d282614d20565b600082019050919050565b60006142ea601383614a01565b91506142f582614d23565b602082019050919050565b600061430d601483614a01565b915061431882614d4c565b602082019050919050565b6000614330600d83614a01565b915061433b82614d75565b602082019050919050565b60e08201600082015161435c6000850182614458565b50602082015161436f6020850182614458565b5060408201516143826040850182614458565b5060608201516143956060850182614458565b5060808201516143a86080850182614068565b5060a08201516143bb60a0850182614068565b5060c08201516143ce60c0850182614068565b50505050565b6080820160008201516143ea6000850182614068565b5060208201516143fd6020850182614068565b5060408201516144106040850182614068565b5060608201516144236060850182614458565b50505050565b60408201600082015161443f6000850182614068565b5060208201516144526020850182614458565b50505050565b61446181614ad2565b82525050565b61447081614ad2565b82525050565b6000614481826142ba565b9150819050919050565b60006040820190506144a06000830185614077565b6144ad6020830184614077565b9392505050565b600060c0820190506144c96000830189614077565b6144d66020830188614077565b6144e36040830187614077565b6144f06060830186614467565b6144fd6080830185614467565b61450a60a0830184614467565b979650505050505050565b600060e08201905061452a600083018a614077565b6145376020830189614077565b6145446040830188614077565b6145516060830187614467565b61455e6080830186614467565b61456b60a0830185614467565b61457860c0830184614467565b98975050505050505050565b60006060820190506145996000830186614077565b6145a66020830185614077565b6145b36040830184614467565b949350505050565b60006080820190506145d06000830187614077565b6145dd6020830186614077565b6145ea6040830185614467565b6145f76060830184614467565b95945050505050565b60006040820190506146156000830185614077565b6146226020830184614467565b9392505050565b600060608201905061463e6000830186614077565b61464b6020830185614467565b6146586040830184614077565b949350505050565b600060a0820190506146756000830188614077565b6146826020830187614467565b61468f6040830186614077565b61469c6060830185614467565b6146a96080830184614077565b9695505050505050565b60006060820190506146c86000830186614077565b6146d56020830185614467565b6146e26040830184614467565b949350505050565b60006080820190506146ff6000830187614077565b61470c6020830186614467565b6147196040830185614467565b6147266060830184614077565b95945050505050565b600060208201905081810360008301526147498184614086565b905092915050565b600060208201905061476660008301846140e4565b92915050565b60006020820190508181036000830152614785816140f3565b9050919050565b600060208201905081810360008301526147a581614116565b9050919050565b600060208201905081810360008301526147c581614139565b9050919050565b600060208201905081810360008301526147e58161415c565b9050919050565b600060208201905081810360008301526148058161417f565b9050919050565b60006020820190508181036000830152614825816141a2565b9050919050565b60006020820190508181036000830152614845816141c5565b9050919050565b60006020820190508181036000830152614865816141e8565b9050919050565b600060208201905081810360008301526148858161420b565b9050919050565b600060208201905081810360008301526148a58161422e565b9050919050565b600060208201905081810360008301526148c581614251565b9050919050565b600060208201905081810360008301526148e581614274565b9050919050565b6000602082019050818103600083015261490581614297565b9050919050565b60006020820190508181036000830152614925816142dd565b9050919050565b6000602082019050818103600083015261494581614300565b9050919050565b6000602082019050818103600083015261496581614323565b9050919050565b600060e0820190506149816000830184614346565b92915050565b600060808201905061499c60008301846143d4565b92915050565b60006020820190506149b76000830184614467565b92915050565b6000819050602082019050919050565b600081519050919050565b6000602082019050919050565b600082825260208201905092915050565b600081905092915050565b600082825260208201905092915050565b6000614a1d82614ad2565b9150614a2883614ad2565b9250827fffffffffffffffffffffffffffffffffffffffffffffffffffffffffffffffff03821115614a5d57614a5c614adc565b5b828201905092915050565b6000614a7382614ab2565b9050919050565b60008115159050919050565b60007fffffffff0000000000000000000000000000000000000000000000000000000082169050919050565b600073ffffffffffffffffffffffffffffffffffffffff82169050919050565b6000819050919050565b7f4e487b7100000000000000000000000000000000000000000000000000000000600052601160045260246000fd5b7f596f752061726520686967686573742062696464657200000000000000000000600082015250565b7f4e6674206e6f7420617070726f76656420746f20636f6e747261637400000000600082015250565b7f50726963652063616e6e6f742062652030000000000000000000000000000000600082015250565b7f6e6f74206e6674206f776e657200000000000000000000000000000000000000600082015250565b7f4e6674206e6f7420696e2066697865642073616c650000000000000000000000600082015250565b7f4e6674206e6f7420696e2061756374696f6e2073616c65000000000000000000600082015250565b7f4269642047726561746572207468616e2050726576696f757320426964000000600082015250565b7f41756374696f6e20656e64000000000000000000000000000000000000000000600082015250565b7f4e667420616c726561647920696e2073616c6500000000000000000000000000600082015250565b7f626964206d616b65000000000000000000000000000000000000000000000000600082015250565b7f616c6c6f77616e6365206e6f7420656e6f756768000000000000000000000000600082015250565b7f41756374696f6e206e6f7420656e640000000000000000000000000000000000600082015250565b7f596f7520617265206e6f74206e6674206f776e65720000000000000000000000600082015250565b50565b7f6e6f7468696e6720746f20776974686472617700000000000000000000000000600082015250565b7f627579205072696365206e6f7420656e6f756768000000000000000000000000600082015250565b7f726566756e64206661696c656400000000000000000000000000000000000000600082015250565b614da781614a68565b8114614db257600080fd5b50565b614dbe81614a7a565b8114614dc957600080fd5b50565b614dd581614ad2565b8114614de057600080fd5b5056fea26469706673582212203f95cce164e191963c287cf4c87a53b2044d0cd8389ce9acd4bb3f2dbee47c4364736f6c63430008040033",
					"opcodes": "PUSH1 0x80 PUSH1 0x40 MSTORE CALLVALUE DUP1 ISZERO PUSH2 0x10 JUMPI PUSH1 0x0 DUP1 REVERT JUMPDEST POP PUSH2 0x4E19 DUP1 PUSH2 0x20 PUSH1 0x0 CODECOPY PUSH1 0x0 RETURN INVALID PUSH1 0x80 PUSH1 0x40 MSTORE PUSH1 0x4 CALLDATASIZE LT PUSH2 0xF7 JUMPI PUSH1 0x0 CALLDATALOAD PUSH1 0xE0 SHR DUP1 PUSH4 0x6F8C9B1B GT PUSH2 0x8A JUMPI DUP1 PUSH4 0x9F085A00 GT PUSH2 0x59 JUMPI DUP1 PUSH4 0x9F085A00 EQ PUSH2 0x339 JUMPI DUP1 PUSH4 0xBAF4371E EQ PUSH2 0x364 JUMPI DUP1 PUSH4 0xCF42B7E6 EQ PUSH2 0x380 JUMPI DUP1 PUSH4 0xD3A6A6C9 EQ PUSH2 0x3A9 JUMPI PUSH2 0xFE JUMP JUMPDEST DUP1 PUSH4 0x6F8C9B1B EQ PUSH2 0x259 JUMPI DUP1 PUSH4 0x6FE02F24 EQ PUSH2 0x296 JUMPI DUP1 PUSH4 0x842BC46A EQ PUSH2 0x2D3 JUMPI DUP1 PUSH4 0x8C3417DA EQ PUSH2 0x2FC JUMPI PUSH2 0xFE JUMP JUMPDEST DUP1 PUSH4 0x4CB8EF5B GT PUSH2 0xC6 JUMPI DUP1 PUSH4 0x4CB8EF5B EQ PUSH2 0x1A1 JUMPI DUP1 PUSH4 0x5138B08C EQ PUSH2 0x1CA JUMPI DUP1 PUSH4 0x6916462F EQ PUSH2 0x1F3 JUMPI DUP1 PUSH4 0x69A6D12E EQ PUSH2 0x230 JUMPI PUSH2 0xFE JUMP JUMPDEST DUP1 PUSH4 0x150B7A02 EQ PUSH2 0x103 JUMPI DUP1 PUSH4 0x1BDAE6F1 EQ PUSH2 0x140 JUMPI DUP1 PUSH4 0x3A713DB8 EQ PUSH2 0x15C JUMPI DUP1 PUSH4 0x4676ADCA EQ PUSH2 0x178 JUMPI PUSH2 0xFE JUMP JUMPDEST CALLDATASIZE PUSH2 0xFE JUMPI STOP JUMPDEST PUSH1 0x0 DUP1 REVERT JUMPDEST CALLVALUE DUP1 ISZERO PUSH2 0x10F JUMPI PUSH1 0x0 DUP1 REVERT JUMPDEST POP PUSH2 0x12A PUSH1 0x4 DUP1 CALLDATASIZE SUB DUP2 ADD SWAP1 PUSH2 0x125 SWAP2 SWAP1 PUSH2 0x3DE1 JUMP JUMPDEST PUSH2 0x3D2 JUMP JUMPDEST PUSH1 0x40 MLOAD PUSH2 0x137 SWAP2 SWAP1 PUSH2 0x4751 JUMP JUMPDEST PUSH1 0x40 MLOAD DUP1 SWAP2 SUB SWAP1 RETURN JUMPDEST PUSH2 0x15A PUSH1 0x4 DUP1 CALLDATASIZE SUB DUP2 ADD SWAP1 PUSH2 0x155 SWAP2 SWAP1 PUSH2 0x3FD8 JUMP JUMPDEST PUSH2 0x3E7 JUMP JUMPDEST STOP JUMPDEST PUSH2 0x176 PUSH1 0x4 DUP1 CALLDATASIZE SUB DUP2 ADD SWAP1 PUSH2 0x171 SWAP2 SWAP1 PUSH2 0x3FD8 JUMP JUMPDEST PUSH2 0xA1E JUMP JUMPDEST STOP JUMPDEST CALLVALUE DUP1 ISZERO PUSH2 0x184 JUMPI PUSH1 0x0 DUP1 REVERT JUMPDEST POP PUSH2 0x19F PUSH1 0x4 DUP1 CALLDATASIZE SUB DUP2 ADD SWAP1 PUSH2 0x19A SWAP2 SWAP1 PUSH2 0x3FD8 JUMP JUMPDEST PUSH2 0x11B7 JUMP JUMPDEST STOP JUMPDEST CALLVALUE DUP1 ISZERO PUSH2 0x1AD JUMPI PUSH1 0x0 DUP1 REVERT JUMPDEST POP PUSH2 0x1C8 PUSH1 0x4 DUP1 CALLDATASIZE SUB DUP2 ADD SWAP1 PUSH2 0x1C3 SWAP2 SWAP1 PUSH2 0x3F4D JUMP JUMPDEST PUSH2 0x140E JUMP JUMPDEST STOP JUMPDEST CALLVALUE DUP1 ISZERO PUSH2 0x1D6 JUMPI PUSH1 0x0 DUP1 REVERT JUMPDEST POP PUSH2 0x1F1 PUSH1 0x4 DUP1 CALLDATASIZE SUB DUP2 ADD SWAP1 PUSH2 0x1EC SWAP2 SWAP1 PUSH2 0x3F4D JUMP JUMPDEST PUSH2 0x172B JUMP JUMPDEST STOP JUMPDEST CALLVALUE DUP1 ISZERO PUSH2 0x1FF JUMPI PUSH1 0x0 DUP1 REVERT JUMPDEST POP PUSH2 0x21A PUSH1 0x4 DUP1 CALLDATASIZE SUB DUP2 ADD SWAP1 PUSH2 0x215 SWAP2 SWAP1 PUSH2 0x3F4D JUMP JUMPDEST PUSH2 0x1ACE JUMP JUMPDEST PUSH1 0x40 MLOAD PUSH2 0x227 SWAP2 SWAP1 PUSH2 0x49A2 JUMP JUMPDEST PUSH1 0x40 MLOAD DUP1 SWAP2 SUB SWAP1 RETURN JUMPDEST CALLVALUE DUP1 ISZERO PUSH2 0x23C JUMPI PUSH1 0x0 DUP1 REVERT JUMPDEST POP PUSH2 0x257 PUSH1 0x4 DUP1 CALLDATASIZE SUB DUP2 ADD SWAP1 PUSH2 0x252 SWAP2 SWAP1 PUSH2 0x3E61 JUMP JUMPDEST PUSH2 0x1AF3 JUMP JUMPDEST STOP JUMPDEST CALLVALUE DUP1 ISZERO PUSH2 0x265 JUMPI PUSH1 0x0 DUP1 REVERT JUMPDEST POP PUSH2 0x280 PUSH1 0x4 DUP1 CALLDATASIZE SUB DUP2 ADD SWAP1 PUSH2 0x27B SWAP2 SWAP1 PUSH2 0x3F4D JUMP JUMPDEST PUSH2 0x213B JUMP JUMPDEST PUSH1 0x40 MLOAD PUSH2 0x28D SWAP2 SWAP1 PUSH2 0x496C JUMP JUMPDEST PUSH1 0x40 MLOAD DUP1 SWAP2 SUB SWAP1 RETURN JUMPDEST CALLVALUE DUP1 ISZERO PUSH2 0x2A2 JUMPI PUSH1 0x0 DUP1 REVERT JUMPDEST POP PUSH2 0x2BD PUSH1 0x4 DUP1 CALLDATASIZE SUB DUP2 ADD SWAP1 PUSH2 0x2B8 SWAP2 SWAP1 PUSH2 0x3F89 JUMP JUMPDEST PUSH2 0x22D0 JUMP JUMPDEST PUSH1 0x40 MLOAD PUSH2 0x2CA SWAP2 SWAP1 PUSH2 0x49A2 JUMP JUMPDEST PUSH1 0x40 MLOAD DUP1 SWAP2 SUB SWAP1 RETURN JUMPDEST CALLVALUE DUP1 ISZERO PUSH2 0x2DF JUMPI PUSH1 0x0 DUP1 REVERT JUMPDEST POP PUSH2 0x2FA PUSH1 0x4 DUP1 CALLDATASIZE SUB DUP2 ADD SWAP1 PUSH2 0x2F5 SWAP2 SWAP1 PUSH2 0x3F4D JUMP JUMPDEST PUSH2 0x2302 JUMP JUMPDEST STOP JUMPDEST CALLVALUE DUP1 ISZERO PUSH2 0x308 JUMPI PUSH1 0x0 DUP1 REVERT JUMPDEST POP PUSH2 0x323 PUSH1 0x4 DUP1 CALLDATASIZE SUB DUP2 ADD SWAP1 PUSH2 0x31E SWAP2 SWAP1 PUSH2 0x3F4D JUMP JUMPDEST PUSH2 0x2700 JUMP JUMPDEST PUSH1 0x40 MLOAD PUSH2 0x330 SWAP2 SWAP1 PUSH2 0x4987 JUMP JUMPDEST PUSH1 0x40 MLOAD DUP1 SWAP2 SUB SWAP1 RETURN JUMPDEST CALLVALUE DUP1 ISZERO PUSH2 0x345 JUMPI PUSH1 0x0 DUP1 REVERT JUMPDEST POP PUSH2 0x34E PUSH2 0x2876 JUMP JUMPDEST PUSH1 0x40 MLOAD PUSH2 0x35B SWAP2 SWAP1 PUSH2 0x472F JUMP JUMPDEST PUSH1 0x40 MLOAD DUP1 SWAP2 SUB SWAP1 RETURN JUMPDEST PUSH2 0x37E PUSH1 0x4 DUP1 CALLDATASIZE SUB DUP2 ADD SWAP1 PUSH2 0x379 SWAP2 SWAP1 PUSH2 0x3FD8 JUMP JUMPDEST PUSH2 0x2935 JUMP JUMPDEST STOP JUMPDEST CALLVALUE DUP1 ISZERO PUSH2 0x38C JUMPI PUSH1 0x0 DUP1 REVERT JUMPDEST POP PUSH2 0x3A7 PUSH1 0x4 DUP1 CALLDATASIZE SUB DUP2 ADD SWAP1 PUSH2 0x3A2 SWAP2 SWAP1 PUSH2 0x3EC4 JUMP JUMPDEST PUSH2 0x2E4F JUMP JUMPDEST STOP JUMPDEST CALLVALUE DUP1 ISZERO PUSH2 0x3B5 JUMPI PUSH1 0x0 DUP1 REVERT JUMPDEST POP PUSH2 0x3D0 PUSH1 0x4 DUP1 CALLDATASIZE SUB DUP2 ADD SWAP1 PUSH2 0x3CB SWAP2 SWAP1 PUSH2 0x3F4D JUMP JUMPDEST PUSH2 0x314C JUMP JUMPDEST STOP JUMPDEST PUSH1 0x0 PUSH4 0x150B7A02 PUSH1 0xE0 SHL SWAP1 POP SWAP6 SWAP5 POP POP POP POP POP JUMP JUMPDEST DUP3 DUP3 PUSH1 0x2 DUP1 PUSH1 0x0 DUP5 PUSH20 0xFFFFFFFFFFFFFFFFFFFFFFFFFFFFFFFFFFFFFFFF AND PUSH20 0xFFFFFFFFFFFFFFFFFFFFFFFFFFFFFFFFFFFFFFFF AND DUP2 MSTORE PUSH1 0x20 ADD SWAP1 DUP2 MSTORE PUSH1 0x20 ADD PUSH1 0x0 KECCAK256 PUSH1 0x0 DUP4 DUP2 MSTORE PUSH1 0x20 ADD SWAP1 DUP2 MSTORE PUSH1 0x20 ADD PUSH1 0x0 KECCAK256 SLOAD EQ PUSH2 0x47B JUMPI PUSH1 0x40 MLOAD PUSH32 0x8C379A000000000000000000000000000000000000000000000000000000000 DUP2 MSTORE PUSH1 0x4 ADD PUSH2 0x472 SWAP1 PUSH2 0x480C JUMP JUMPDEST PUSH1 0x40 MLOAD DUP1 SWAP2 SUB SWAP1 REVERT JUMPDEST DUP5 DUP5 PUSH1 0x1 PUSH1 0x0 DUP4 PUSH20 0xFFFFFFFFFFFFFFFFFFFFFFFFFFFFFFFFFFFFFFFF AND PUSH20 0xFFFFFFFFFFFFFFFFFFFFFFFFFFFFFFFFFFFFFFFF AND DUP2 MSTORE PUSH1 0x20 ADD SWAP1 DUP2 MSTORE PUSH1 0x20 ADD PUSH1 0x0 KECCAK256 PUSH1 0x0 DUP3 DUP2 MSTORE PUSH1 0x20 ADD SWAP1 DUP2 MSTORE PUSH1 0x20 ADD PUSH1 0x0 KECCAK256 PUSH1 0x1 ADD SLOAD TIMESTAMP LT PUSH2 0x512 JUMPI PUSH1 0x40 MLOAD PUSH32 0x8C379A000000000000000000000000000000000000000000000000000000000 DUP2 MSTORE PUSH1 0x4 ADD PUSH2 0x509 SWAP1 PUSH2 0x484C JUMP JUMPDEST PUSH1 0x40 MLOAD DUP1 SWAP2 SUB SWAP1 REVERT JUMPDEST DUP5 PUSH1 0x0 DUP2 GT PUSH2 0x556 JUMPI PUSH1 0x40 MLOAD PUSH32 0x8C379A000000000000000000000000000000000000000000000000000000000 DUP2 MSTORE PUSH1 0x4 ADD PUSH2 0x54D SWAP1 PUSH2 0x47AC JUMP JUMPDEST PUSH1 0x40 MLOAD DUP1 SWAP2 SUB SWAP1 REVERT JUMPDEST DUP8 DUP8 CALLVALUE DUP9 PUSH1 0x0 PUSH20 0xFFFFFFFFFFFFFFFFFFFFFFFFFFFFFFFFFFFFFFFF AND PUSH1 0x1 PUSH1 0x0 DUP7 PUSH20 0xFFFFFFFFFFFFFFFFFFFFFFFFFFFFFFFFFFFFFFFF AND PUSH20 0xFFFFFFFFFFFFFFFFFFFFFFFFFFFFFFFFFFFFFFFF AND DUP2 MSTORE PUSH1 0x20 ADD SWAP1 DUP2 MSTORE PUSH1 0x20 ADD PUSH1 0x0 KECCAK256 PUSH1 0x0 DUP6 DUP2 MSTORE PUSH1 0x20 ADD SWAP1 DUP2 MSTORE PUSH1 0x20 ADD PUSH1 0x0 KECCAK256 PUSH1 0x6 ADD PUSH1 0x0 SWAP1 SLOAD SWAP1 PUSH2 0x100 EXP SWAP1 DIV PUSH20 0xFFFFFFFFFFFFFFFFFFFFFFFFFFFFFFFFFFFFFFFF AND PUSH20 0xFFFFFFFFFFFFFFFFFFFFFFFFFFFFFFFFFFFFFFFF AND EQ ISZERO PUSH2 0x69C JUMPI PUSH1 0x1 PUSH1 0x0 DUP6 PUSH20 0xFFFFFFFFFFFFFFFFFFFFFFFFFFFFFFFFFFFFFFFF AND PUSH20 0xFFFFFFFFFFFFFFFFFFFFFFFFFFFFFFFFFFFFFFFF AND DUP2 MSTORE PUSH1 0x20 ADD SWAP1 DUP2 MSTORE PUSH1 0x20 ADD PUSH1 0x0 KECCAK256 PUSH1 0x0 DUP5 DUP2 MSTORE PUSH1 0x20 ADD SWAP1 DUP2 MSTORE PUSH1 0x20 ADD PUSH1 0x0 KECCAK256 PUSH1 0x3 ADD SLOAD DUP3 GT PUSH2 0x697 JUMPI PUSH1 0x40 MLOAD PUSH32 0x8C379A000000000000000000000000000000000000000000000000000000000 DUP2 MSTORE PUSH1 0x4 ADD PUSH2 0x68E SWAP1 PUSH2 0x482C JUMP JUMPDEST PUSH1 0x40 MLOAD DUP1 SWAP2 SUB SWAP1 REVERT JUMPDEST PUSH2 0x732 JUMP JUMPDEST PUSH1 0x1 PUSH1 0x0 DUP6 PUSH20 0xFFFFFFFFFFFFFFFFFFFFFFFFFFFFFFFFFFFFFFFF AND PUSH20 0xFFFFFFFFFFFFFFFFFFFFFFFFFFFFFFFFFFFFFFFF AND DUP2 MSTORE PUSH1 0x20 ADD SWAP1 DUP2 MSTORE PUSH1 0x20 ADD PUSH1 0x0 KECCAK256 PUSH1 0x0 DUP5 DUP2 MSTORE PUSH1 0x20 ADD SWAP1 DUP2 MSTORE PUSH1 0x20 ADD PUSH1 0x0 KECCAK256 PUSH1 0x3 ADD SLOAD DUP2 GT PUSH2 0x731 JUMPI PUSH1 0x40 MLOAD PUSH32 0x8C379A000000000000000000000000000000000000000000000000000000000 DUP2 MSTORE PUSH1 0x4 ADD PUSH2 0x728 SWAP1 PUSH2 0x482C JUMP JUMPDEST PUSH1 0x40 MLOAD DUP1 SWAP2 SUB SWAP1 REVERT JUMPDEST JUMPDEST PUSH1 0x0 PUSH20 0xFFFFFFFFFFFFFFFFFFFFFFFFFFFFFFFFFFFFFFFF AND PUSH1 0x1 PUSH1 0x0 DUP15 PUSH20 0xFFFFFFFFFFFFFFFFFFFFFFFFFFFFFFFFFFFFFFFF AND PUSH20 0xFFFFFFFFFFFFFFFFFFFFFFFFFFFFFFFFFFFFFFFF AND DUP2 MSTORE PUSH1 0x20 ADD SWAP1 DUP2 MSTORE PUSH1 0x20 ADD PUSH1 0x0 KECCAK256 PUSH1 0x0 DUP14 DUP2 MSTORE PUSH1 0x20 ADD SWAP1 DUP2 MSTORE PUSH1 0x20 ADD PUSH1 0x0 KECCAK256 PUSH1 0x6 ADD PUSH1 0x0 SWAP1 SLOAD SWAP1 PUSH2 0x100 EXP SWAP1 DIV PUSH20 0xFFFFFFFFFFFFFFFFFFFFFFFFFFFFFFFFFFFFFFFF AND PUSH20 0xFFFFFFFFFFFFFFFFFFFFFFFFFFFFFFFFFFFFFFFF AND EQ PUSH2 0x857 JUMPI PUSH2 0x856 DUP11 PUSH1 0x1 PUSH1 0x0 DUP16 PUSH20 0xFFFFFFFFFFFFFFFFFFFFFFFFFFFFFFFFFFFFFFFF AND PUSH20 0xFFFFFFFFFFFFFFFFFFFFFFFFFFFFFFFFFFFFFFFF AND DUP2 MSTORE PUSH1 0x20 ADD SWAP1 DUP2 MSTORE PUSH1 0x20 ADD PUSH1 0x0 KECCAK256 PUSH1 0x0 DUP15 DUP2 MSTORE PUSH1 0x20 ADD SWAP1 DUP2 MSTORE PUSH1 0x20 ADD PUSH1 0x0 KECCAK256 PUSH1 0x6 ADD PUSH1 0x0 SWAP1 SLOAD SWAP1 PUSH2 0x100 EXP SWAP1 DIV PUSH20 0xFFFFFFFFFFFFFFFFFFFFFFFFFFFFFFFFFFFFFFFF AND PUSH2 0x3495 JUMP JUMPDEST JUMPDEST DUP10 PUSH1 0x1 PUSH1 0x0 DUP15 PUSH20 0xFFFFFFFFFFFFFFFFFFFFFFFFFFFFFFFFFFFFFFFF AND PUSH20 0xFFFFFFFFFFFFFFFFFFFFFFFFFFFFFFFFFFFFFFFF AND DUP2 MSTORE PUSH1 0x20 ADD SWAP1 DUP2 MSTORE PUSH1 0x20 ADD PUSH1 0x0 KECCAK256 PUSH1 0x0 DUP14 DUP2 MSTORE PUSH1 0x20 ADD SWAP1 DUP2 MSTORE PUSH1 0x20 ADD PUSH1 0x0 KECCAK256 PUSH1 0x3 ADD DUP2 SWAP1 SSTORE POP CALLER PUSH1 0x1 PUSH1 0x0 DUP15 PUSH20 0xFFFFFFFFFFFFFFFFFFFFFFFFFFFFFFFFFFFFFFFF AND PUSH20 0xFFFFFFFFFFFFFFFFFFFFFFFFFFFFFFFFFFFFFFFF AND DUP2 MSTORE PUSH1 0x20 ADD SWAP1 DUP2 MSTORE PUSH1 0x20 ADD PUSH1 0x0 KECCAK256 PUSH1 0x0 DUP14 DUP2 MSTORE PUSH1 0x20 ADD SWAP1 DUP2 MSTORE PUSH1 0x20 ADD PUSH1 0x0 KECCAK256 PUSH1 0x4 ADD PUSH1 0x0 PUSH2 0x100 EXP DUP2 SLOAD DUP2 PUSH20 0xFFFFFFFFFFFFFFFFFFFFFFFFFFFFFFFFFFFFFFFF MUL NOT AND SWAP1 DUP4 PUSH20 0xFFFFFFFFFFFFFFFFFFFFFFFFFFFFFFFFFFFFFFFF AND MUL OR SWAP1 SSTORE POP DUP10 PUSH1 0x3 PUSH1 0x0 DUP15 PUSH20 0xFFFFFFFFFFFFFFFFFFFFFFFFFFFFFFFFFFFFFFFF AND PUSH20 0xFFFFFFFFFFFFFFFFFFFFFFFFFFFFFFFFFFFFFFFF AND DUP2 MSTORE PUSH1 0x20 ADD SWAP1 DUP2 MSTORE PUSH1 0x20 ADD PUSH1 0x0 KECCAK256 PUSH1 0x0 DUP14 DUP2 MSTORE PUSH1 0x20 ADD SWAP1 DUP2 MSTORE PUSH1 0x20 ADD PUSH1 0x0 KECCAK256 PUSH1 0x0 CALLER PUSH20 0xFFFFFFFFFFFFFFFFFFFFFFFFFFFFFFFFFFFFFFFF AND PUSH20 0xFFFFFFFFFFFFFFFFFFFFFFFFFFFFFFFFFFFFFFFF AND DUP2 MSTORE PUSH1 0x20 ADD SWAP1 DUP2 MSTORE PUSH1 0x20 ADD PUSH1 0x0 KECCAK256 DUP2 SWAP1 SSTORE POP PUSH32 0xD56CB6210C78740462007B728932C802BC41B205ED5C8A98AB95421EAF054B22 DUP13 DUP13 DUP13 CALLER PUSH1 0x40 MLOAD PUSH2 0xA08 SWAP5 SWAP4 SWAP3 SWAP2 SWAP1 PUSH2 0x46EA JUMP JUMPDEST PUSH1 0x40 MLOAD DUP1 SWAP2 SUB SWAP1 LOG1 POP POP POP POP POP POP POP POP POP POP POP POP JUMP JUMPDEST DUP3 DUP3 PUSH1 0x2 DUP1 PUSH1 0x0 DUP5 PUSH20 0xFFFFFFFFFFFFFFFFFFFFFFFFFFFFFFFFFFFFFFFF AND PUSH20 0xFFFFFFFFFFFFFFFFFFFFFFFFFFFFFFFFFFFFFFFF AND DUP2 MSTORE PUSH1 0x20 ADD SWAP1 DUP2 MSTORE PUSH1 0x20 ADD PUSH1 0x0 KECCAK256 PUSH1 0x0 DUP4 DUP2 MSTORE PUSH1 0x20 ADD SWAP1 DUP2 MSTORE PUSH1 0x20 ADD PUSH1 0x0 KECCAK256 SLOAD EQ PUSH2 0xAB2 JUMPI PUSH1 0x40 MLOAD PUSH32 0x8C379A000000000000000000000000000000000000000000000000000000000 DUP2 MSTORE PUSH1 0x4 ADD PUSH2 0xAA9 SWAP1 PUSH2 0x480C JUMP JUMPDEST PUSH1 0x40 MLOAD DUP1 SWAP2 SUB SWAP1 REVERT JUMPDEST DUP5 DUP5 PUSH1 0x1 PUSH1 0x0 DUP4 PUSH20 0xFFFFFFFFFFFFFFFFFFFFFFFFFFFFFFFFFFFFFFFF AND PUSH20 0xFFFFFFFFFFFFFFFFFFFFFFFFFFFFFFFFFFFFFFFF AND DUP2 MSTORE PUSH1 0x20 ADD SWAP1 DUP2 MSTORE PUSH1 0x20 ADD PUSH1 0x0 KECCAK256 PUSH1 0x0 DUP3 DUP2 MSTORE PUSH1 0x20 ADD SWAP1 DUP2 MSTORE PUSH1 0x20 ADD PUSH1 0x0 KECCAK256 PUSH1 0x1 ADD SLOAD TIMESTAMP LT PUSH2 0xB49 JUMPI PUSH1 0x40 MLOAD PUSH32 0x8C379A000000000000000000000000000000000000000000000000000000000 DUP2 MSTORE PUSH1 0x4 ADD PUSH2 0xB40 SWAP1 PUSH2 0x484C JUMP JUMPDEST PUSH1 0x40 MLOAD DUP1 SWAP2 SUB SWAP1 REVERT JUMPDEST CALLVALUE PUSH1 0x0 DUP2 GT PUSH2 0xB8D JUMPI PUSH1 0x40 MLOAD PUSH32 0x8C379A000000000000000000000000000000000000000000000000000000000 DUP2 MSTORE PUSH1 0x4 ADD PUSH2 0xB84 SWAP1 PUSH2 0x47AC JUMP JUMPDEST PUSH1 0x40 MLOAD DUP1 SWAP2 SUB SWAP1 REVERT JUMPDEST DUP8 DUP8 CALLVALUE DUP9 PUSH1 0x0 DUP1 PUSH20 0xFFFFFFFFFFFFFFFFFFFFFFFFFFFFFFFFFFFFFFFF AND PUSH1 0x1 PUSH1 0x0 DUP8 PUSH20 0xFFFFFFFFFFFFFFFFFFFFFFFFFFFFFFFFFFFFFFFF AND PUSH20 0xFFFFFFFFFFFFFFFFFFFFFFFFFFFFFFFFFFFFFFFF AND DUP2 MSTORE PUSH1 0x20 ADD SWAP1 DUP2 MSTORE PUSH1 0x20 ADD PUSH1 0x0 KECCAK256 PUSH1 0x0 DUP7 DUP2 MSTORE PUSH1 0x20 ADD SWAP1 DUP2 MSTORE PUSH1 0x20 ADD PUSH1 0x0 KECCAK256 PUSH1 0x6 ADD PUSH1 0x0 SWAP1 SLOAD SWAP1 PUSH2 0x100 EXP SWAP1 DIV PUSH20 0xFFFFFFFFFFFFFFFFFFFFFFFFFFFFFFFFFFFFFFFF AND PUSH20 0xFFFFFFFFFFFFFFFFFFFFFFFFFFFFFFFFFFFFFFFF AND EQ ISZERO PUSH2 0xCE1 JUMPI PUSH2 0xCDA DUP4 PUSH1 0x3 PUSH1 0x0 DUP9 PUSH20 0xFFFFFFFFFFFFFFFFFFFFFFFFFFFFFFFFFFFFFFFF AND PUSH20 0xFFFFFFFFFFFFFFFFFFFFFFFFFFFFFFFFFFFFFFFF AND DUP2 MSTORE PUSH1 0x20 ADD SWAP1 DUP2 MSTORE PUSH1 0x20 ADD PUSH1 0x0 KECCAK256 PUSH1 0x0 DUP8 DUP2 MSTORE PUSH1 0x20 ADD SWAP1 DUP2 MSTORE PUSH1 0x20 ADD PUSH1 0x0 KECCAK256 PUSH1 0x0 CALLER PUSH20 0xFFFFFFFFFFFFFFFFFFFFFFFFFFFFFFFFFFFFFFFF AND PUSH20 0xFFFFFFFFFFFFFFFFFFFFFFFFFFFFFFFFFFFFFFFF AND DUP2 MSTORE PUSH1 0x20 ADD SWAP1 DUP2 MSTORE PUSH1 0x20 ADD PUSH1 0x0 KECCAK256 SLOAD PUSH2 0x3567 SWAP1 SWAP2 SWAP1 PUSH4 0xFFFFFFFF AND JUMP JUMPDEST SWAP1 POP PUSH2 0xD84 JUMP JUMPDEST PUSH2 0xD81 DUP3 PUSH1 0x3 PUSH1 0x0 DUP9 PUSH20 0xFFFFFFFFFFFFFFFFFFFFFFFFFFFFFFFFFFFFFFFF AND PUSH20 0xFFFFFFFFFFFFFFFFFFFFFFFFFFFFFFFFFFFFFFFF AND DUP2 MSTORE PUSH1 0x20 ADD SWAP1 DUP2 MSTORE PUSH1 0x20 ADD PUSH1 0x0 KECCAK256 PUSH1 0x0 DUP8 DUP2 MSTORE PUSH1 0x20 ADD SWAP1 DUP2 MSTORE PUSH1 0x20 ADD PUSH1 0x0 KECCAK256 PUSH1 0x0 CALLER PUSH20 0xFFFFFFFFFFFFFFFFFFFFFFFFFFFFFFFFFFFFFFFF AND PUSH20 0xFFFFFFFFFFFFFFFFFFFFFFFFFFFFFFFFFFFFFFFF AND DUP2 MSTORE PUSH1 0x20 ADD SWAP1 DUP2 MSTORE PUSH1 0x20 ADD PUSH1 0x0 KECCAK256 SLOAD PUSH2 0x3567 SWAP1 SWAP2 SWAP1 PUSH4 0xFFFFFFFF AND JUMP JUMPDEST SWAP1 POP JUMPDEST PUSH1 0x1 PUSH1 0x0 DUP7 PUSH20 0xFFFFFFFFFFFFFFFFFFFFFFFFFFFFFFFFFFFFFFFF AND PUSH20 0xFFFFFFFFFFFFFFFFFFFFFFFFFFFFFFFFFFFFFFFF AND DUP2 MSTORE PUSH1 0x20 ADD SWAP1 DUP2 MSTORE PUSH1 0x20 ADD PUSH1 0x0 KECCAK256 PUSH1 0x0 DUP6 DUP2 MSTORE PUSH1 0x20 ADD SWAP1 DUP2 MSTORE PUSH1 0x20 ADD PUSH1 0x0 KECCAK256 PUSH1 0x3 ADD SLOAD DUP2 GT PUSH2 0xE19 JUMPI PUSH1 0x40 MLOAD PUSH32 0x8C379A000000000000000000000000000000000000000000000000000000000 DUP2 MSTORE PUSH1 0x4 ADD PUSH2 0xE10 SWAP1 PUSH2 0x482C JUMP JUMPDEST PUSH1 0x40 MLOAD DUP1 SWAP2 SUB SWAP1 REVERT JUMPDEST PUSH1 0x0 DUP14 SWAP1 POP PUSH1 0x0 DUP14 SWAP1 POP PUSH1 0x0 PUSH2 0xEC5 DUP15 PUSH1 0x3 PUSH1 0x0 DUP7 PUSH20 0xFFFFFFFFFFFFFFFFFFFFFFFFFFFFFFFFFFFFFFFF AND PUSH20 0xFFFFFFFFFFFFFFFFFFFFFFFFFFFFFFFFFFFFFFFF AND DUP2 MSTORE PUSH1 0x20 ADD SWAP1 DUP2 MSTORE PUSH1 0x20 ADD PUSH1 0x0 KECCAK256 PUSH1 0x0 DUP6 DUP2 MSTORE PUSH1 0x20 ADD SWAP1 DUP2 MSTORE PUSH1 0x20 ADD PUSH1 0x0 KECCAK256 PUSH1 0x0 CALLER PUSH20 0xFFFFFFFFFFFFFFFFFFFFFFFFFFFFFFFFFFFFFFFF AND PUSH20 0xFFFFFFFFFFFFFFFFFFFFFFFFFFFFFFFFFFFFFFFF AND DUP2 MSTORE PUSH1 0x20 ADD SWAP1 DUP2 MSTORE PUSH1 0x20 ADD PUSH1 0x0 KECCAK256 SLOAD PUSH2 0x3567 SWAP1 SWAP2 SWAP1 PUSH4 0xFFFFFFFF AND JUMP JUMPDEST SWAP1 POP PUSH1 0x0 PUSH20 0xFFFFFFFFFFFFFFFFFFFFFFFFFFFFFFFFFFFFFFFF AND PUSH1 0x1 PUSH1 0x0 DUP6 PUSH20 0xFFFFFFFFFFFFFFFFFFFFFFFFFFFFFFFFFFFFFFFF AND PUSH20 0xFFFFFFFFFFFFFFFFFFFFFFFFFFFFFFFFFFFFFFFF AND DUP2 MSTORE PUSH1 0x20 ADD SWAP1 DUP2 MSTORE PUSH1 0x20 ADD PUSH1 0x0 KECCAK256 PUSH1 0x0 DUP5 DUP2 MSTORE PUSH1 0x20 ADD SWAP1 DUP2 MSTORE PUSH1 0x20 ADD PUSH1 0x0 KECCAK256 PUSH1 0x6 ADD PUSH1 0x0 SWAP1 SLOAD SWAP1 PUSH2 0x100 EXP SWAP1 DIV PUSH20 0xFFFFFFFFFFFFFFFFFFFFFFFFFFFFFFFFFFFFFFFF AND PUSH20 0xFFFFFFFFFFFFFFFFFFFFFFFFFFFFFFFFFFFFFFFF AND EQ PUSH2 0xFEC JUMPI PUSH2 0xFEB DUP15 PUSH1 0x1 PUSH1 0x0 DUP7 PUSH20 0xFFFFFFFFFFFFFFFFFFFFFFFFFFFFFFFFFFFFFFFF AND PUSH20 0xFFFFFFFFFFFFFFFFFFFFFFFFFFFFFFFFFFFFFFFF AND DUP2 MSTORE PUSH1 0x20 ADD SWAP1 DUP2 MSTORE PUSH1 0x20 ADD PUSH1 0x0 KECCAK256 PUSH1 0x0 DUP6 DUP2 MSTORE PUSH1 0x20 ADD SWAP1 DUP2 MSTORE PUSH1 0x20 ADD PUSH1 0x0 KECCAK256 PUSH1 0x6 ADD PUSH1 0x0 SWAP1 SLOAD SWAP1 PUSH2 0x100 EXP SWAP1 DIV PUSH20 0xFFFFFFFFFFFFFFFFFFFFFFFFFFFFFFFFFFFFFFFF AND PUSH2 0x3495 JUMP JUMPDEST JUMPDEST DUP1 PUSH1 0x1 PUSH1 0x0 DUP6 PUSH20 0xFFFFFFFFFFFFFFFFFFFFFFFFFFFFFFFFFFFFFFFF AND PUSH20 0xFFFFFFFFFFFFFFFFFFFFFFFFFFFFFFFFFFFFFFFF AND DUP2 MSTORE PUSH1 0x20 ADD SWAP1 DUP2 MSTORE PUSH1 0x20 ADD PUSH1 0x0 KECCAK256 PUSH1 0x0 DUP5 DUP2 MSTORE PUSH1 0x20 ADD SWAP1 DUP2 MSTORE PUSH1 0x20 ADD PUSH1 0x0 KECCAK256 PUSH1 0x3 ADD DUP2 SWAP1 SSTORE POP CALLER PUSH1 0x1 PUSH1 0x0 DUP6 PUSH20 0xFFFFFFFFFFFFFFFFFFFFFFFFFFFFFFFFFFFFFFFF AND PUSH20 0xFFFFFFFFFFFFFFFFFFFFFFFFFFFFFFFFFFFFFFFF AND DUP2 MSTORE PUSH1 0x20 ADD SWAP1 DUP2 MSTORE PUSH1 0x20 ADD PUSH1 0x0 KECCAK256 PUSH1 0x0 DUP5 DUP2 MSTORE PUSH1 0x20 ADD SWAP1 DUP2 MSTORE PUSH1 0x20 ADD PUSH1 0x0 KECCAK256 PUSH1 0x4 ADD PUSH1 0x0 PUSH2 0x100 EXP DUP2 SLOAD DUP2 PUSH20 0xFFFFFFFFFFFFFFFFFFFFFFFFFFFFFFFFFFFFFFFF MUL NOT AND SWAP1 DUP4 PUSH20 0xFFFFFFFFFFFFFFFFFFFFFFFFFFFFFFFFFFFFFFFF AND MUL OR SWAP1 SSTORE POP DUP1 PUSH1 0x3 PUSH1 0x0 DUP6 PUSH20 0xFFFFFFFFFFFFFFFFFFFFFFFFFFFFFFFFFFFFFFFF AND PUSH20 0xFFFFFFFFFFFFFFFFFFFFFFFFFFFFFFFFFFFFFFFF AND DUP2 MSTORE PUSH1 0x20 ADD SWAP1 DUP2 MSTORE PUSH1 0x20 ADD PUSH1 0x0 KECCAK256 PUSH1 0x0 DUP5 DUP2 MSTORE PUSH1 0x20 ADD SWAP1 DUP2 MSTORE PUSH1 0x20 ADD PUSH1 0x0 KECCAK256 PUSH1 0x0 CALLER PUSH20 0xFFFFFFFFFFFFFFFFFFFFFFFFFFFFFFFFFFFFFFFF AND PUSH20 0xFFFFFFFFFFFFFFFFFFFFFFFFFFFFFFFFFFFFFFFF AND DUP2 MSTORE PUSH1 0x20 ADD SWAP1 DUP2 MSTORE PUSH1 0x20 ADD PUSH1 0x0 KECCAK256 DUP2 SWAP1 SSTORE POP PUSH32 0x907CDADC7C1A8ABCDD80CDD85EB18377631E4F413FB6397A8252FF7B358AC6CB DUP4 DUP4 DUP4 CALLER PUSH1 0x40 MLOAD PUSH2 0x119D SWAP5 SWAP4 SWAP3 SWAP2 SWAP1 PUSH2 0x46EA JUMP JUMPDEST PUSH1 0x40 MLOAD DUP1 SWAP2 SUB SWAP1 LOG1 POP POP POP POP POP POP POP POP POP POP POP POP POP POP POP POP JUMP JUMPDEST DUP3 DUP3 PUSH1 0x1 PUSH1 0x2 PUSH1 0x0 DUP5 PUSH20 0xFFFFFFFFFFFFFFFFFFFFFFFFFFFFFFFFFFFFFFFF AND PUSH20 0xFFFFFFFFFFFFFFFFFFFFFFFFFFFFFFFFFFFFFFFF AND DUP2 MSTORE PUSH1 0x20 ADD SWAP1 DUP2 MSTORE PUSH1 0x20 ADD PUSH1 0x0 KECCAK256 PUSH1 0x0 DUP4 DUP2 MSTORE PUSH1 0x20 ADD SWAP1 DUP2 MSTORE PUSH1 0x20 ADD PUSH1 0x0 KECCAK256 SLOAD EQ PUSH2 0x124C JUMPI PUSH1 0x40 MLOAD PUSH32 0x8C379A000000000000000000000000000000000000000000000000000000000 DUP2 MSTORE PUSH1 0x4 ADD PUSH2 0x1243 SWAP1 PUSH2 0x47EC JUMP JUMPDEST PUSH1 0x40 MLOAD DUP1 SWAP2 SUB SWAP1 REVERT JUMPDEST DUP5 DUP5 PUSH1 0x0 DUP1 DUP4 PUSH20 0xFFFFFFFFFFFFFFFFFFFFFFFFFFFFFFFFFFFFFFFF AND PUSH20 0xFFFFFFFFFFFFFFFFFFFFFFFFFFFFFFFFFFFFFFFF AND DUP2 MSTORE PUSH1 0x20 ADD SWAP1 DUP2 MSTORE PUSH1 0x20 ADD PUSH1 0x0 KECCAK256 PUSH1 0x0 DUP3 DUP2 MSTORE PUSH1 0x20 ADD SWAP1 DUP2 MSTORE PUSH1 0x20 ADD PUSH1 0x0 KECCAK256 PUSH1 0x0 ADD PUSH1 0x0 SWAP1 SLOAD SWAP1 PUSH2 0x100 EXP SWAP1 DIV PUSH20 0xFFFFFFFFFFFFFFFFFFFFFFFFFFFFFFFFFFFFFFFF AND PUSH20 0xFFFFFFFFFFFFFFFFFFFFFFFFFFFFFFFFFFFFFFFF AND CALLER PUSH20 0xFFFFFFFFFFFFFFFFFFFFFFFFFFFFFFFFFFFFFFFF AND EQ PUSH2 0x132E JUMPI PUSH1 0x40 MLOAD PUSH32 0x8C379A000000000000000000000000000000000000000000000000000000000 DUP2 MSTORE PUSH1 0x4 ADD PUSH2 0x1325 SWAP1 PUSH2 0x48EC JUMP JUMPDEST PUSH1 0x40 MLOAD DUP1 SWAP2 SUB SWAP1 REVERT JUMPDEST DUP5 PUSH1 0x0 DUP2 GT PUSH2 0x1372 JUMPI PUSH1 0x40 MLOAD PUSH32 0x8C379A000000000000000000000000000000000000000000000000000000000 DUP2 MSTORE PUSH1 0x4 ADD PUSH2 0x1369 SWAP1 PUSH2 0x47AC JUMP JUMPDEST PUSH1 0x40 MLOAD DUP1 SWAP2 SUB SWAP1 REVERT JUMPDEST DUP6 PUSH1 0x0 DUP1 DUP11 PUSH20 0xFFFFFFFFFFFFFFFFFFFFFFFFFFFFFFFFFFFFFFFF AND PUSH20 0xFFFFFFFFFFFFFFFFFFFFFFFFFFFFFFFFFFFFFFFF AND DUP2 MSTORE PUSH1 0x20 ADD SWAP1 DUP2 MSTORE PUSH1 0x20 ADD PUSH1 0x0 KECCAK256 PUSH1 0x0 DUP10 DUP2 MSTORE PUSH1 0x20 ADD SWAP1 DUP2 MSTORE PUSH1 0x20 ADD PUSH1 0x0 KECCAK256 PUSH1 0x3 ADD DUP2 SWAP1 SSTORE POP PUSH32 0x575A0876095CCF47276A37DCE683308A625403D132D219F95205CE205B2E12BC DUP9 DUP9 DUP9 PUSH1 0x40 MLOAD PUSH2 0x13FC SWAP4 SWAP3 SWAP2 SWAP1 PUSH2 0x46B3 JUMP JUMPDEST PUSH1 0x40 MLOAD DUP1 SWAP2 SUB SWAP1 LOG1 POP POP POP POP POP POP POP POP JUMP JUMPDEST DUP2 DUP2 PUSH1 0x1 PUSH1 0x0 DUP4 PUSH20 0xFFFFFFFFFFFFFFFFFFFFFFFFFFFFFFFFFFFFFFFF AND PUSH20 0xFFFFFFFFFFFFFFFFFFFFFFFFFFFFFFFFFFFFFFFF AND DUP2 MSTORE PUSH1 0x20 ADD SWAP1 DUP2 MSTORE PUSH1 0x20 ADD PUSH1 0x0 KECCAK256 PUSH1 0x0 DUP3 DUP2 MSTORE PUSH1 0x20 ADD SWAP1 DUP2 MSTORE PUSH1 0x20 ADD PUSH1 0x0 KECCAK256 PUSH1 0x1 ADD SLOAD TIMESTAMP GT PUSH2 0x14A5 JUMPI PUSH1 0x40 MLOAD PUSH32 0x8C379A000000000000000000000000000000000000000000000000000000000 DUP2 MSTORE PUSH1 0x4 ADD PUSH2 0x149C SWAP1 PUSH2 0x48CC JUMP JUMPDEST PUSH1 0x40 MLOAD DUP1 SWAP2 SUB SWAP1 REVERT JUMPDEST PUSH1 0x1 PUSH1 0x0 DUP6 PUSH20 0xFFFFFFFFFFFFFFFFFFFFFFFFFFFFFFFFFFFFFFFF AND PUSH20 0xFFFFFFFFFFFFFFFFFFFFFFFFFFFFFFFFFFFFFFFF AND DUP2 MSTORE PUSH1 0x20 ADD SWAP1 DUP2 MSTORE PUSH1 0x20 ADD PUSH1 0x0 KECCAK256 PUSH1 0x0 DUP5 DUP2 MSTORE PUSH1 0x20 ADD SWAP1 DUP2 MSTORE PUSH1 0x20 ADD PUSH1 0x0 KECCAK256 PUSH1 0x4 ADD PUSH1 0x0 SWAP1 SLOAD SWAP1 PUSH2 0x100 EXP SWAP1 DIV PUSH20 0xFFFFFFFFFFFFFFFFFFFFFFFFFFFFFFFFFFFFFFFF AND PUSH20 0xFFFFFFFFFFFFFFFFFFFFFFFFFFFFFFFFFFFFFFFF AND CALLER PUSH20 0xFFFFFFFFFFFFFFFFFFFFFFFFFFFFFFFFFFFFFFFF AND EQ ISZERO PUSH2 0x1587 JUMPI PUSH1 0x40 MLOAD PUSH32 0x8C379A000000000000000000000000000000000000000000000000000000000 DUP2 MSTORE PUSH1 0x4 ADD PUSH2 0x157E SWAP1 PUSH2 0x476C JUMP JUMPDEST PUSH1 0x40 MLOAD DUP1 SWAP2 SUB SWAP1 REVERT JUMPDEST PUSH1 0x0 PUSH1 0x3 PUSH1 0x0 DUP7 PUSH20 0xFFFFFFFFFFFFFFFFFFFFFFFFFFFFFFFFFFFFFFFF AND PUSH20 0xFFFFFFFFFFFFFFFFFFFFFFFFFFFFFFFFFFFFFFFF AND DUP2 MSTORE PUSH1 0x20 ADD SWAP1 DUP2 MSTORE PUSH1 0x20 ADD PUSH1 0x0 KECCAK256 PUSH1 0x0 DUP6 DUP2 MSTORE PUSH1 0x20 ADD SWAP1 DUP2 MSTORE PUSH1 0x20 ADD PUSH1 0x0 KECCAK256 PUSH1 0x0 CALLER PUSH20 0xFFFFFFFFFFFFFFFFFFFFFFFFFFFFFFFFFFFFFFFF AND PUSH20 0xFFFFFFFFFFFFFFFFFFFFFFFFFFFFFFFFFFFFFFFF AND DUP2 MSTORE PUSH1 0x20 ADD SWAP1 DUP2 MSTORE PUSH1 0x20 ADD PUSH1 0x0 KECCAK256 SLOAD GT PUSH2 0x1657 JUMPI PUSH1 0x40 MLOAD PUSH32 0x8C379A000000000000000000000000000000000000000000000000000000000 DUP2 MSTORE PUSH1 0x4 ADD PUSH2 0x164E SWAP1 PUSH2 0x490C JUMP JUMPDEST PUSH1 0x40 MLOAD DUP1 SWAP2 SUB SWAP1 REVERT JUMPDEST PUSH1 0x0 PUSH1 0x3 PUSH1 0x0 DUP7 PUSH20 0xFFFFFFFFFFFFFFFFFFFFFFFFFFFFFFFFFFFFFFFF AND PUSH20 0xFFFFFFFFFFFFFFFFFFFFFFFFFFFFFFFFFFFFFFFF AND DUP2 MSTORE PUSH1 0x20 ADD SWAP1 DUP2 MSTORE PUSH1 0x20 ADD PUSH1 0x0 KECCAK256 PUSH1 0x0 DUP6 DUP2 MSTORE PUSH1 0x20 ADD SWAP1 DUP2 MSTORE PUSH1 0x20 ADD PUSH1 0x0 KECCAK256 PUSH1 0x0 CALLER PUSH20 0xFFFFFFFFFFFFFFFFFFFFFFFFFFFFFFFFFFFFFFFF AND PUSH20 0xFFFFFFFFFFFFFFFFFFFFFFFFFFFFFFFFFFFFFFFF AND DUP2 MSTORE PUSH1 0x20 ADD SWAP1 DUP2 MSTORE PUSH1 0x20 ADD PUSH1 0x0 KECCAK256 DUP2 SWAP1 SSTORE POP PUSH32 0xDE8CB9AA2C755CF75D5FBC4FEC824B10E311652306F1FCA5C8E57A04758B0AA7 DUP5 DUP5 CALLER PUSH1 0x40 MLOAD PUSH2 0x171D SWAP4 SWAP3 SWAP2 SWAP1 PUSH2 0x4629 JUMP JUMPDEST PUSH1 0x40 MLOAD DUP1 SWAP2 SUB SWAP1 LOG1 POP POP POP POP JUMP JUMPDEST DUP2 DUP2 PUSH1 0x2 DUP1 PUSH1 0x0 DUP5 PUSH20 0xFFFFFFFFFFFFFFFFFFFFFFFFFFFFFFFFFFFFFFFF AND PUSH20 0xFFFFFFFFFFFFFFFFFFFFFFFFFFFFFFFFFFFFFFFF AND DUP2 MSTORE PUSH1 0x20 ADD SWAP1 DUP2 MSTORE PUSH1 0x20 ADD PUSH1 0x0 KECCAK256 PUSH1 0x0 DUP4 DUP2 MSTORE PUSH1 0x20 ADD SWAP1 DUP2 MSTORE PUSH1 0x20 ADD PUSH1 0x0 KECCAK256 SLOAD EQ PUSH2 0x17BF JUMPI PUSH1 0x40 MLOAD PUSH32 0x8C379A000000000000000000000000000000000000000000000000000000000 DUP2 MSTORE PUSH1 0x4 ADD PUSH2 0x17B6 SWAP1 PUSH2 0x480C JUMP JUMPDEST PUSH1 0x40 MLOAD DUP1 SWAP2 SUB SWAP1 REVERT JUMPDEST DUP4 DUP4 PUSH1 0x1 PUSH1 0x0 DUP4 PUSH20 0xFFFFFFFFFFFFFFFFFFFFFFFFFFFFFFFFFFFFFFFF AND PUSH20 0xFFFFFFFFFFFFFFFFFFFFFFFFFFFFFFFFFFFFFFFF AND DUP2 MSTORE PUSH1 0x20 ADD SWAP1 DUP2 MSTORE PUSH1 0x20 ADD PUSH1 0x0 KECCAK256 PUSH1 0x0 DUP3 DUP2 MSTORE PUSH1 0x20 ADD SWAP1 DUP2 MSTORE PUSH1 0x20 ADD PUSH1 0x0 KECCAK256 PUSH1 0x1 ADD SLOAD TIMESTAMP GT PUSH2 0x1856 JUMPI PUSH1 0x40 MLOAD PUSH32 0x8C379A000000000000000000000000000000000000000000000000000000000 DUP2 MSTORE PUSH1 0x4 ADD PUSH2 0x184D SWAP1 PUSH2 0x48CC JUMP JUMPDEST PUSH1 0x40 MLOAD DUP1 SWAP2 SUB SWAP1 REVERT JUMPDEST PUSH1 0x0 PUSH1 0x1 PUSH1 0x0 DUP9 PUSH20 0xFFFFFFFFFFFFFFFFFFFFFFFFFFFFFFFFFFFFFFFF AND PUSH20 0xFFFFFFFFFFFFFFFFFFFFFFFFFFFFFFFFFFFFFFFF AND DUP2 MSTORE PUSH1 0x20 ADD SWAP1 DUP2 MSTORE PUSH1 0x20 ADD PUSH1 0x0 KECCAK256 PUSH1 0x0 DUP8 DUP2 MSTORE PUSH1 0x20 ADD SWAP1 DUP2 MSTORE PUSH1 0x20 ADD PUSH1 0x0 KECCAK256 PUSH1 0x4 ADD PUSH1 0x0 SWAP1 SLOAD SWAP1 PUSH2 0x100 EXP SWAP1 DIV PUSH20 0xFFFFFFFFFFFFFFFFFFFFFFFFFFFFFFFFFFFFFFFF AND SWAP1 POP PUSH2 0x192D DUP8 DUP8 PUSH1 0x1 PUSH1 0x0 DUP12 PUSH20 0xFFFFFFFFFFFFFFFFFFFFFFFFFFFFFFFFFFFFFFFF AND PUSH20 0xFFFFFFFFFFFFFFFFFFFFFFFFFFFFFFFFFFFFFFFF AND DUP2 MSTORE PUSH1 0x20 ADD SWAP1 DUP2 MSTORE PUSH1 0x20 ADD PUSH1 0x0 KECCAK256 PUSH1 0x0 DUP11 DUP2 MSTORE PUSH1 0x20 ADD SWAP1 DUP2 MSTORE PUSH1 0x20 ADD PUSH1 0x0 KECCAK256 PUSH1 0x3 ADD SLOAD DUP5 PUSH2 0x357D JUMP JUMPDEST PUSH1 0x0 PUSH1 0x3 PUSH1 0x0 DUP10 PUSH20 0xFFFFFFFFFFFFFFFFFFFFFFFFFFFFFFFFFFFFFFFF AND PUSH20 0xFFFFFFFFFFFFFFFFFFFFFFFFFFFFFFFFFFFFFFFF AND DUP2 MSTORE PUSH1 0x20 ADD SWAP1 DUP2 MSTORE PUSH1 0x20 ADD PUSH1 0x0 KECCAK256 PUSH1 0x0 DUP9 DUP2 MSTORE PUSH1 0x20 ADD SWAP1 DUP2 MSTORE PUSH1 0x20 ADD PUSH1 0x0 KECCAK256 PUSH1 0x0 DUP4 PUSH20 0xFFFFFFFFFFFFFFFFFFFFFFFFFFFFFFFFFFFFFFFF AND PUSH20 0xFFFFFFFFFFFFFFFFFFFFFFFFFFFFFFFFFFFFFFFF AND DUP2 MSTORE PUSH1 0x20 ADD SWAP1 DUP2 MSTORE PUSH1 0x20 ADD PUSH1 0x0 KECCAK256 DUP2 SWAP1 SSTORE POP PUSH32 0xB31CB4F6609B11A57D1B6B14CC3F81F4B3E609F709A5B1E46892A45F9CC29ED8 DUP8 DUP8 DUP4 PUSH1 0x1 PUSH1 0x0 DUP13 PUSH20 0xFFFFFFFFFFFFFFFFFFFFFFFFFFFFFFFFFFFFFFFF AND PUSH20 0xFFFFFFFFFFFFFFFFFFFFFFFFFFFFFFFFFFFFFFFF AND DUP2 MSTORE PUSH1 0x20 ADD SWAP1 DUP2 MSTORE PUSH1 0x20 ADD PUSH1 0x0 KECCAK256 PUSH1 0x0 DUP12 DUP2 MSTORE PUSH1 0x20 ADD SWAP1 DUP2 MSTORE PUSH1 0x20 ADD PUSH1 0x0 KECCAK256 PUSH1 0x3 ADD SLOAD PUSH1 0x1 PUSH1 0x0 DUP14 PUSH20 0xFFFFFFFFFFFFFFFFFFFFFFFFFFFFFFFFFFFFFFFF AND PUSH20 0xFFFFFFFFFFFFFFFFFFFFFFFFFFFFFFFFFFFFFFFF AND DUP2 MSTORE PUSH1 0x20 ADD SWAP1 DUP2 MSTORE PUSH1 0x20 ADD PUSH1 0x0 KECCAK256 PUSH1 0x0 DUP13 DUP2 MSTORE PUSH1 0x20 ADD SWAP1 DUP2 MSTORE PUSH1 0x20 ADD PUSH1 0x0 KECCAK256 PUSH1 0x5 ADD PUSH1 0x0 SWAP1 SLOAD SWAP1 PUSH2 0x100 EXP SWAP1 DIV PUSH20 0xFFFFFFFFFFFFFFFFFFFFFFFFFFFFFFFFFFFFFFFF AND PUSH1 0x40 MLOAD PUSH2 0x1ABD SWAP6 SWAP5 SWAP4 SWAP3 SWAP2 SWAP1 PUSH2 0x4660 JUMP JUMPDEST PUSH1 0x40 MLOAD DUP1 SWAP2 SUB SWAP1 LOG1 POP POP POP POP POP POP POP JUMP JUMPDEST PUSH1 0x2 PUSH1 0x20 MSTORE DUP2 PUSH1 0x0 MSTORE PUSH1 0x40 PUSH1 0x0 KECCAK256 PUSH1 0x20 MSTORE DUP1 PUSH1 0x0 MSTORE PUSH1 0x40 PUSH1 0x0 KECCAK256 PUSH1 0x0 SWAP2 POP SWAP2 POP POP SLOAD DUP2 JUMP JUMPDEST DUP4 DUP3 DUP2 PUSH20 0xFFFFFFFFFFFFFFFFFFFFFFFFFFFFFFFFFFFFFFFF AND PUSH4 0x6352211E DUP3 PUSH1 0x40 MLOAD DUP3 PUSH4 0xFFFFFFFF AND PUSH1 0xE0 SHL DUP2 MSTORE PUSH1 0x4 ADD PUSH2 0x1B2E SWAP2 SWAP1 PUSH2 0x49A2 JUMP JUMPDEST PUSH1 0x20 PUSH1 0x40 MLOAD DUP1 DUP4 SUB DUP2 DUP7 DUP1 EXTCODESIZE ISZERO DUP1 ISZERO PUSH2 0x1B46 JUMPI PUSH1 0x0 DUP1 REVERT JUMPDEST POP GAS STATICCALL ISZERO DUP1 ISZERO PUSH2 0x1B5A JUMPI RETURNDATASIZE PUSH1 0x0 DUP1 RETURNDATACOPY RETURNDATASIZE PUSH1 0x0 REVERT JUMPDEST POP POP POP POP PUSH1 0x40 MLOAD RETURNDATASIZE PUSH1 0x1F NOT PUSH1 0x1F DUP3 ADD AND DUP3 ADD DUP1 PUSH1 0x40 MSTORE POP DUP2 ADD SWAP1 PUSH2 0x1B7E SWAP2 SWAP1 PUSH2 0x3DB8 JUMP JUMPDEST PUSH20 0xFFFFFFFFFFFFFFFFFFFFFFFFFFFFFFFFFFFFFFFF AND CALLER PUSH20 0xFFFFFFFFFFFFFFFFFFFFFFFFFFFFFFFFFFFFFFFF AND EQ PUSH2 0x1BEB JUMPI PUSH1 0x40 MLOAD PUSH32 0x8C379A000000000000000000000000000000000000000000000000000000000 DUP2 MSTORE PUSH1 0x4 ADD PUSH2 0x1BE2 SWAP1 PUSH2 0x48EC JUMP JUMPDEST PUSH1 0x40 MLOAD DUP1 SWAP2 SUB SWAP1 REVERT JUMPDEST DUP6 DUP5 PUSH1 0x0 PUSH1 0x2 PUSH1 0x0 DUP5 PUSH20 0xFFFFFFFFFFFFFFFFFFFFFFFFFFFFFFFFFFFFFFFF AND PUSH20 0xFFFFFFFFFFFFFFFFFFFFFFFFFFFFFFFFFFFFFFFF AND DUP2 MSTORE PUSH1 0x20 ADD SWAP1 DUP2 MSTORE PUSH1 0x20 ADD PUSH1 0x0 KECCAK256 PUSH1 0x0 DUP4 DUP2 MSTORE PUSH1 0x20 ADD SWAP1 DUP2 MSTORE PUSH1 0x20 ADD PUSH1 0x0 KECCAK256 SLOAD EQ PUSH2 0x1C80 JUMPI PUSH1 0x40 MLOAD PUSH32 0x8C379A000000000000000000000000000000000000000000000000000000000 DUP2 MSTORE PUSH1 0x4 ADD PUSH2 0x1C77 SWAP1 PUSH2 0x486C JUMP JUMPDEST PUSH1 0x40 MLOAD DUP1 SWAP2 SUB SWAP1 REVERT JUMPDEST DUP8 DUP7 DUP2 PUSH20 0xFFFFFFFFFFFFFFFFFFFFFFFFFFFFFFFFFFFFFFFF AND PUSH4 0xE985E9C5 CALLER ADDRESS PUSH1 0x40 MLOAD DUP4 PUSH4 0xFFFFFFFF AND PUSH1 0xE0 SHL DUP2 MSTORE PUSH1 0x4 ADD PUSH2 0x1CBD SWAP3 SWAP2 SWAP1 PUSH2 0x448B JUMP JUMPDEST PUSH1 0x20 PUSH1 0x40 MLOAD DUP1 DUP4 SUB DUP2 DUP7 DUP1 EXTCODESIZE ISZERO DUP1 ISZERO PUSH2 0x1CD5 JUMPI PUSH1 0x0 DUP1 REVERT JUMPDEST POP GAS STATICCALL ISZERO DUP1 ISZERO PUSH2 0x1CE9 JUMPI RETURNDATASIZE PUSH1 0x0 DUP1 RETURNDATACOPY RETURNDATASIZE PUSH1 0x0 REVERT JUMPDEST POP POP POP POP PUSH1 0x40 MLOAD RETURNDATASIZE PUSH1 0x1F NOT PUSH1 0x1F DUP3 ADD AND DUP3 ADD DUP1 PUSH1 0x40 MSTORE POP DUP2 ADD SWAP1 PUSH2 0x1D0D SWAP2 SWAP1 PUSH2 0x4027 JUMP JUMPDEST PUSH2 0x1D4C JUMPI PUSH1 0x40 MLOAD PUSH32 0x8C379A000000000000000000000000000000000000000000000000000000000 DUP2 MSTORE PUSH1 0x4 ADD PUSH2 0x1D43 SWAP1 PUSH2 0x478C JUMP JUMPDEST PUSH1 0x40 MLOAD DUP1 SWAP2 SUB SWAP1 REVERT JUMPDEST DUP7 PUSH1 0x0 DUP2 GT PUSH2 0x1D90 JUMPI PUSH1 0x40 MLOAD PUSH32 0x8C379A000000000000000000000000000000000000000000000000000000000 DUP2 MSTORE PUSH1 0x4 ADD PUSH2 0x1D87 SWAP1 PUSH2 0x47AC JUMP JUMPDEST PUSH1 0x40 MLOAD DUP1 SWAP2 SUB SWAP1 REVERT JUMPDEST PUSH1 0x40 MLOAD DUP1 PUSH1 0x80 ADD PUSH1 0x40 MSTORE DUP1 CALLER PUSH20 0xFFFFFFFFFFFFFFFFFFFFFFFFFFFFFFFFFFFFFFFF AND DUP2 MSTORE PUSH1 0x20 ADD PUSH1 0x0 PUSH20 0xFFFFFFFFFFFFFFFFFFFFFFFFFFFFFFFFFFFFFFFF AND DUP2 MSTORE PUSH1 0x20 ADD DUP12 PUSH20 0xFFFFFFFFFFFFFFFFFFFFFFFFFFFFFFFFFFFFFFFF AND DUP2 MSTORE PUSH1 0x20 ADD DUP10 DUP2 MSTORE POP PUSH1 0x0 DUP1 DUP14 PUSH20 0xFFFFFFFFFFFFFFFFFFFFFFFFFFFFFFFFFFFFFFFF AND PUSH20 0xFFFFFFFFFFFFFFFFFFFFFFFFFFFFFFFFFFFFFFFF AND DUP2 MSTORE PUSH1 0x20 ADD SWAP1 DUP2 MSTORE PUSH1 0x20 ADD PUSH1 0x0 KECCAK256 PUSH1 0x0 DUP12 DUP2 MSTORE PUSH1 0x20 ADD SWAP1 DUP2 MSTORE PUSH1 0x20 ADD PUSH1 0x0 KECCAK256 PUSH1 0x0 DUP3 ADD MLOAD DUP2 PUSH1 0x0 ADD PUSH1 0x0 PUSH2 0x100 EXP DUP2 SLOAD DUP2 PUSH20 0xFFFFFFFFFFFFFFFFFFFFFFFFFFFFFFFFFFFFFFFF MUL NOT AND SWAP1 DUP4 PUSH20 0xFFFFFFFFFFFFFFFFFFFFFFFFFFFFFFFFFFFFFFFF AND MUL OR SWAP1 SSTORE POP PUSH1 0x20 DUP3 ADD MLOAD DUP2 PUSH1 0x1 ADD PUSH1 0x0 PUSH2 0x100 EXP DUP2 SLOAD DUP2 PUSH20 0xFFFFFFFFFFFFFFFFFFFFFFFFFFFFFFFFFFFFFFFF MUL NOT AND SWAP1 DUP4 PUSH20 0xFFFFFFFFFFFFFFFFFFFFFFFFFFFFFFFFFFFFFFFF AND MUL OR SWAP1 SSTORE POP PUSH1 0x40 DUP3 ADD MLOAD DUP2 PUSH1 0x2 ADD PUSH1 0x0 PUSH2 0x100 EXP DUP2 SLOAD DUP2 PUSH20 0xFFFFFFFFFFFFFFFFFFFFFFFFFFFFFFFFFFFFFFFF MUL NOT AND SWAP1 DUP4 PUSH20 0xFFFFFFFFFFFFFFFFFFFFFFFFFFFFFFFFFFFFFFFF AND MUL OR SWAP1 SSTORE POP PUSH1 0x60 DUP3 ADD MLOAD DUP2 PUSH1 0x3 ADD SSTORE SWAP1 POP POP PUSH1 0x1 PUSH1 0x2 PUSH1 0x0 DUP14 PUSH20 0xFFFFFFFFFFFFFFFFFFFFFFFFFFFFFFFFFFFFFFFF AND PUSH20 0xFFFFFFFFFFFFFFFFFFFFFFFFFFFFFFFFFFFFFFFF AND DUP2 MSTORE PUSH1 0x20 ADD SWAP1 DUP2 MSTORE PUSH1 0x20 ADD PUSH1 0x0 KECCAK256 PUSH1 0x0 DUP12 DUP2 MSTORE PUSH1 0x20 ADD SWAP1 DUP2 MSTORE PUSH1 0x20 ADD PUSH1 0x0 KECCAK256 DUP2 SWAP1 SSTORE POP PUSH1 0x5 DUP1 SLOAD SWAP1 POP PUSH1 0x4 PUSH1 0x0 DUP14 PUSH20 0xFFFFFFFFFFFFFFFFFFFFFFFFFFFFFFFFFFFFFFFF AND PUSH20 0xFFFFFFFFFFFFFFFFFFFFFFFFFFFFFFFFFFFFFFFF AND DUP2 MSTORE PUSH1 0x20 ADD SWAP1 DUP2 MSTORE PUSH1 0x20 ADD PUSH1 0x0 KECCAK256 PUSH1 0x0 DUP12 DUP2 MSTORE PUSH1 0x20 ADD SWAP1 DUP2 MSTORE PUSH1 0x20 ADD PUSH1 0x0 KECCAK256 DUP2 SWAP1 SSTORE POP PUSH1 0x5 PUSH1 0x40 MLOAD DUP1 PUSH1 0x40 ADD PUSH1 0x40 MSTORE DUP1 DUP14 PUSH20 0xFFFFFFFFFFFFFFFFFFFFFFFFFFFFFFFFFFFFFFFF AND DUP2 MSTORE PUSH1 0x20 ADD DUP12 DUP2 MSTORE POP SWAP1 DUP1 PUSH1 0x1 DUP2 SLOAD ADD DUP1 DUP3 SSTORE DUP1 SWAP2 POP POP PUSH1 0x1 SWAP1 SUB SWAP1 PUSH1 0x0 MSTORE PUSH1 0x20 PUSH1 0x0 KECCAK256 SWAP1 PUSH1 0x2 MUL ADD PUSH1 0x0 SWAP1 SWAP2 SWAP1 SWAP2 SWAP1 SWAP2 POP PUSH1 0x0 DUP3 ADD MLOAD DUP2 PUSH1 0x0 ADD PUSH1 0x0 PUSH2 0x100 EXP DUP2 SLOAD DUP2 PUSH20 0xFFFFFFFFFFFFFFFFFFFFFFFFFFFFFFFFFFFFFFFF MUL NOT AND SWAP1 DUP4 PUSH20 0xFFFFFFFFFFFFFFFFFFFFFFFFFFFFFFFFFFFFFFFF AND MUL OR SWAP1 SSTORE POP PUSH1 0x20 DUP3 ADD MLOAD DUP2 PUSH1 0x1 ADD SSTORE POP POP DUP11 PUSH20 0xFFFFFFFFFFFFFFFFFFFFFFFFFFFFFFFFFFFFFFFF AND PUSH4 0x42842E0E CALLER ADDRESS DUP13 PUSH1 0x40 MLOAD DUP5 PUSH4 0xFFFFFFFF AND PUSH1 0xE0 SHL DUP2 MSTORE PUSH1 0x4 ADD PUSH2 0x20BB SWAP4 SWAP3 SWAP2 SWAP1 PUSH2 0x4584 JUMP JUMPDEST PUSH1 0x0 PUSH1 0x40 MLOAD DUP1 DUP4 SUB DUP2 PUSH1 0x0 DUP8 DUP1 EXTCODESIZE ISZERO DUP1 ISZERO PUSH2 0x20D5 JUMPI PUSH1 0x0 DUP1 REVERT JUMPDEST POP GAS CALL ISZERO DUP1 ISZERO PUSH2 0x20E9 JUMPI RETURNDATASIZE PUSH1 0x0 DUP1 RETURNDATACOPY RETURNDATASIZE PUSH1 0x0 REVERT JUMPDEST POP POP POP POP PUSH32 0x78EEAD3CD01ED921C7653D000A6B73AEA643A7B9C066FB7D93EB2EAE8ACC2D9 DUP12 CALLER DUP13 DUP13 DUP13 TIMESTAMP PUSH1 0x40 MLOAD PUSH2 0x2126 SWAP7 SWAP6 SWAP5 SWAP4 SWAP3 SWAP2 SWAP1 PUSH2 0x44B4 JUMP JUMPDEST PUSH1 0x40 MLOAD DUP1 SWAP2 SUB SWAP1 LOG1 POP POP POP POP POP POP POP POP POP POP POP JUMP JUMPDEST PUSH2 0x2143 PUSH2 0x3C31 JUMP JUMPDEST PUSH1 0x1 PUSH1 0x0 DUP5 PUSH20 0xFFFFFFFFFFFFFFFFFFFFFFFFFFFFFFFFFFFFFFFF AND PUSH20 0xFFFFFFFFFFFFFFFFFFFFFFFFFFFFFFFFFFFFFFFF AND DUP2 MSTORE PUSH1 0x20 ADD SWAP1 DUP2 MSTORE PUSH1 0x20 ADD PUSH1 0x0 KECCAK256 PUSH1 0x0 DUP4 DUP2 MSTORE PUSH1 0x20 ADD SWAP1 DUP2 MSTORE PUSH1 0x20 ADD PUSH1 0x0 KECCAK256 PUSH1 0x40 MLOAD DUP1 PUSH1 0xE0 ADD PUSH1 0x40 MSTORE SWAP1 DUP2 PUSH1 0x0 DUP3 ADD SLOAD DUP2 MSTORE PUSH1 0x20 ADD PUSH1 0x1 DUP3 ADD SLOAD DUP2 MSTORE PUSH1 0x20 ADD PUSH1 0x2 DUP3 ADD SLOAD DUP2 MSTORE PUSH1 0x20 ADD PUSH1 0x3 DUP3 ADD SLOAD DUP2 MSTORE PUSH1 0x20 ADD PUSH1 0x4 DUP3 ADD PUSH1 0x0 SWAP1 SLOAD SWAP1 PUSH2 0x100 EXP SWAP1 DIV PUSH20 0xFFFFFFFFFFFFFFFFFFFFFFFFFFFFFFFFFFFFFFFF AND PUSH20 0xFFFFFFFFFFFFFFFFFFFFFFFFFFFFFFFFFFFFFFFF AND PUSH20 0xFFFFFFFFFFFFFFFFFFFFFFFFFFFFFFFFFFFFFFFF AND DUP2 MSTORE PUSH1 0x20 ADD PUSH1 0x5 DUP3 ADD PUSH1 0x0 SWAP1 SLOAD SWAP1 PUSH2 0x100 EXP SWAP1 DIV PUSH20 0xFFFFFFFFFFFFFFFFFFFFFFFFFFFFFFFFFFFFFFFF AND PUSH20 0xFFFFFFFFFFFFFFFFFFFFFFFFFFFFFFFFFFFFFFFF AND PUSH20 0xFFFFFFFFFFFFFFFFFFFFFFFFFFFFFFFFFFFFFFFF AND DUP2 MSTORE PUSH1 0x20 ADD PUSH1 0x6 DUP3 ADD PUSH1 0x0 SWAP1 SLOAD SWAP1 PUSH2 0x100 EXP SWAP1 DIV PUSH20 0xFFFFFFFFFFFFFFFFFFFFFFFFFFFFFFFFFFFFFFFF AND PUSH20 0xFFFFFFFFFFFFFFFFFFFFFFFFFFFFFFFFFFFFFFFF AND PUSH20 0xFFFFFFFFFFFFFFFFFFFFFFFFFFFFFFFFFFFFFFFF AND DUP2 MSTORE POP POP SWAP1 POP SWAP3 SWAP2 POP POP JUMP JUMPDEST PUSH1 0x3 PUSH1 0x20 MSTORE DUP3 PUSH1 0x0 MSTORE PUSH1 0x40 PUSH1 0x0 KECCAK256 PUSH1 0x20 MSTORE DUP2 PUSH1 0x0 MSTORE PUSH1 0x40 PUSH1 0x0 KECCAK256 PUSH1 0x20 MSTORE DUP1 PUSH1 0x0 MSTORE PUSH1 0x40 PUSH1 0x0 KECCAK256 PUSH1 0x0 SWAP3 POP SWAP3 POP POP POP SLOAD DUP2 JUMP JUMPDEST DUP2 DUP2 PUSH1 0x2 DUP1 PUSH1 0x0 DUP5 PUSH20 0xFFFFFFFFFFFFFFFFFFFFFFFFFFFFFFFFFFFFFFFF AND PUSH20 0xFFFFFFFFFFFFFFFFFFFFFFFFFFFFFFFFFFFFFFFF AND DUP2 MSTORE PUSH1 0x20 ADD SWAP1 DUP2 MSTORE PUSH1 0x20 ADD PUSH1 0x0 KECCAK256 PUSH1 0x0 DUP4 DUP2 MSTORE PUSH1 0x20 ADD SWAP1 DUP2 MSTORE PUSH1 0x20 ADD PUSH1 0x0 KECCAK256 SLOAD EQ PUSH2 0x2396 JUMPI PUSH1 0x40 MLOAD PUSH32 0x8C379A000000000000000000000000000000000000000000000000000000000 DUP2 MSTORE PUSH1 0x4 ADD PUSH2 0x238D SWAP1 PUSH2 0x480C JUMP JUMPDEST PUSH1 0x40 MLOAD DUP1 SWAP2 SUB SWAP1 REVERT JUMPDEST DUP4 DUP4 PUSH1 0x1 PUSH1 0x0 DUP4 PUSH20 0xFFFFFFFFFFFFFFFFFFFFFFFFFFFFFFFFFFFFFFFF AND PUSH20 0xFFFFFFFFFFFFFFFFFFFFFFFFFFFFFFFFFFFFFFFF AND DUP2 MSTORE PUSH1 0x20 ADD SWAP1 DUP2 MSTORE PUSH1 0x20 ADD PUSH1 0x0 KECCAK256 PUSH1 0x0 DUP3 DUP2 MSTORE PUSH1 0x20 ADD SWAP1 DUP2 MSTORE PUSH1 0x20 ADD PUSH1 0x0 KECCAK256 PUSH1 0x5 ADD PUSH1 0x0 SWAP1 SLOAD SWAP1 PUSH2 0x100 EXP SWAP1 DIV PUSH20 0xFFFFFFFFFFFFFFFFFFFFFFFFFFFFFFFFFFFFFFFF AND PUSH20 0xFFFFFFFFFFFFFFFFFFFFFFFFFFFFFFFFFFFFFFFF AND CALLER PUSH20 0xFFFFFFFFFFFFFFFFFFFFFFFFFFFFFFFFFFFFFFFF AND EQ PUSH2 0x2479 JUMPI PUSH1 0x40 MLOAD PUSH32 0x8C379A000000000000000000000000000000000000000000000000000000000 DUP2 MSTORE PUSH1 0x4 ADD PUSH2 0x2470 SWAP1 PUSH2 0x47CC JUMP JUMPDEST PUSH1 0x40 MLOAD DUP1 SWAP2 SUB SWAP1 REVERT JUMPDEST DUP6 DUP6 PUSH1 0x1 PUSH1 0x0 DUP4 PUSH20 0xFFFFFFFFFFFFFFFFFFFFFFFFFFFFFFFFFFFFFFFF AND PUSH20 0xFFFFFFFFFFFFFFFFFFFFFFFFFFFFFFFFFFFFFFFF AND DUP2 MSTORE PUSH1 0x20 ADD SWAP1 DUP2 MSTORE PUSH1 0x20 ADD PUSH1 0x0 KECCAK256 PUSH1 0x0 DUP3 DUP2 MSTORE PUSH1 0x20 ADD SWAP1 DUP2 MSTORE PUSH1 0x20 ADD PUSH1 0x0 KECCAK256 PUSH1 0x1 ADD SLOAD TIMESTAMP LT PUSH2 0x2510 JUMPI PUSH1 0x40 MLOAD PUSH32 0x8C379A000000000000000000000000000000000000000000000000000000000 DUP2 MSTORE PUSH1 0x4 ADD PUSH2 0x2507 SWAP1 PUSH2 0x484C JUMP JUMPDEST PUSH1 0x40 MLOAD DUP1 SWAP2 SUB SWAP1 REVERT JUMPDEST DUP8 DUP8 PUSH1 0x1 PUSH1 0x0 DUP4 PUSH20 0xFFFFFFFFFFFFFFFFFFFFFFFFFFFFFFFFFFFFFFFF AND PUSH20 0xFFFFFFFFFFFFFFFFFFFFFFFFFFFFFFFFFFFFFFFF AND DUP2 MSTORE PUSH1 0x20 ADD SWAP1 DUP2 MSTORE PUSH1 0x20 ADD PUSH1 0x0 KECCAK256 PUSH1 0x0 DUP3 DUP2 MSTORE PUSH1 0x20 ADD SWAP1 DUP2 MSTORE PUSH1 0x20 ADD PUSH1 0x0 KECCAK256 PUSH1 0x4 ADD PUSH1 0x0 SWAP1 SLOAD SWAP1 PUSH2 0x100 EXP SWAP1 DIV PUSH20 0xFFFFFFFFFFFFFFFFFFFFFFFFFFFFFFFFFFFFFFFF AND PUSH20 0xFFFFFFFFFFFFFFFFFFFFFFFFFFFFFFFFFFFFFFFF AND PUSH1 0x0 PUSH20 0xFFFFFFFFFFFFFFFFFFFFFFFFFFFFFFFFFFFFFFFF AND EQ PUSH2 0x25F4 JUMPI PUSH1 0x40 MLOAD PUSH32 0x8C379A000000000000000000000000000000000000000000000000000000000 DUP2 MSTORE PUSH1 0x4 ADD PUSH2 0x25EB SWAP1 PUSH2 0x488C JUMP JUMPDEST PUSH1 0x40 MLOAD DUP1 SWAP2 SUB SWAP1 REVERT JUMPDEST PUSH1 0x0 PUSH1 0x2 PUSH1 0x0 DUP13 PUSH20 0xFFFFFFFFFFFFFFFFFFFFFFFFFFFFFFFFFFFFFFFF AND PUSH20 0xFFFFFFFFFFFFFFFFFFFFFFFFFFFFFFFFFFFFFFFF AND DUP2 MSTORE PUSH1 0x20 ADD SWAP1 DUP2 MSTORE PUSH1 0x20 ADD PUSH1 0x0 KECCAK256 PUSH1 0x0 DUP12 DUP2 MSTORE PUSH1 0x20 ADD SWAP1 DUP2 MSTORE PUSH1 0x20 ADD PUSH1 0x0 KECCAK256 DUP2 SWAP1 SSTORE POP DUP10 PUSH20 0xFFFFFFFFFFFFFFFFFFFFFFFFFFFFFFFFFFFFFFFF AND PUSH4 0x42842E0E ADDRESS CALLER DUP13 PUSH1 0x40 MLOAD DUP5 PUSH4 0xFFFFFFFF AND PUSH1 0xE0 SHL DUP2 MSTORE PUSH1 0x4 ADD PUSH2 0x2687 SWAP4 SWAP3 SWAP2 SWAP1 PUSH2 0x4584 JUMP JUMPDEST PUSH1 0x0 PUSH1 0x40 MLOAD DUP1 DUP4 SUB DUP2 PUSH1 0x0 DUP8 DUP1 EXTCODESIZE ISZERO DUP1 ISZERO PUSH2 0x26A1 JUMPI PUSH1 0x0 DUP1 REVERT JUMPDEST POP GAS CALL ISZERO DUP1 ISZERO PUSH2 0x26B5 JUMPI RETURNDATASIZE PUSH1 0x0 DUP1 RETURNDATACOPY RETURNDATASIZE PUSH1 0x0 REVERT JUMPDEST POP POP POP POP PUSH32 0xB9D411977D4EE731F87BB8F16EB6F8C1FB579CFF684642052BF6084E6E33238D DUP11 DUP11 CALLER PUSH1 0x40 MLOAD PUSH2 0x26EC SWAP4 SWAP3 SWAP2 SWAP1 PUSH2 0x4629 JUMP JUMPDEST PUSH1 0x40 MLOAD DUP1 SWAP2 SUB SWAP1 LOG1 POP POP POP POP POP POP POP POP POP POP JUMP JUMPDEST PUSH2 0x2708 PUSH2 0x3CB0 JUMP JUMPDEST PUSH1 0x0 DUP1 DUP5 PUSH20 0xFFFFFFFFFFFFFFFFFFFFFFFFFFFFFFFFFFFFFFFF AND PUSH20 0xFFFFFFFFFFFFFFFFFFFFFFFFFFFFFFFFFFFFFFFF AND DUP2 MSTORE PUSH1 0x20 ADD SWAP1 DUP2 MSTORE PUSH1 0x20 ADD PUSH1 0x0 KECCAK256 PUSH1 0x0 DUP4 DUP2 MSTORE PUSH1 0x20 ADD SWAP1 DUP2 MSTORE PUSH1 0x20 ADD PUSH1 0x0 KECCAK256 PUSH1 0x40 MLOAD DUP1 PUSH1 0x80 ADD PUSH1 0x40 MSTORE SWAP1 DUP2 PUSH1 0x0 DUP3 ADD PUSH1 0x0 SWAP1 SLOAD SWAP1 PUSH2 0x100 EXP SWAP1 DIV PUSH20 0xFFFFFFFFFFFFFFFFFFFFFFFFFFFFFFFFFFFFFFFF AND PUSH20 0xFFFFFFFFFFFFFFFFFFFFFFFFFFFFFFFFFFFFFFFF AND PUSH20 0xFFFFFFFFFFFFFFFFFFFFFFFFFFFFFFFFFFFFFFFF AND DUP2 MSTORE PUSH1 0x20 ADD PUSH1 0x1 DUP3 ADD PUSH1 0x0 SWAP1 SLOAD SWAP1 PUSH2 0x100 EXP SWAP1 DIV PUSH20 0xFFFFFFFFFFFFFFFFFFFFFFFFFFFFFFFFFFFFFFFF AND PUSH20 0xFFFFFFFFFFFFFFFFFFFFFFFFFFFFFFFFFFFFFFFF AND PUSH20 0xFFFFFFFFFFFFFFFFFFFFFFFFFFFFFFFFFFFFFFFF AND DUP2 MSTORE PUSH1 0x20 ADD PUSH1 0x2 DUP3 ADD PUSH1 0x0 SWAP1 SLOAD SWAP1 PUSH2 0x100 EXP SWAP1 DIV PUSH20 0xFFFFFFFFFFFFFFFFFFFFFFFFFFFFFFFFFFFFFFFF AND PUSH20 0xFFFFFFFFFFFFFFFFFFFFFFFFFFFFFFFFFFFFFFFF AND PUSH20 0xFFFFFFFFFFFFFFFFFFFFFFFFFFFFFFFFFFFFFFFF AND DUP2 MSTORE PUSH1 0x20 ADD PUSH1 0x3 DUP3 ADD SLOAD DUP2 MSTORE POP POP SWAP1 POP SWAP3 SWAP2 POP POP JUMP JUMPDEST PUSH1 0x60 PUSH1 0x5 DUP1 SLOAD DUP1 PUSH1 0x20 MUL PUSH1 0x20 ADD PUSH1 0x40 MLOAD SWAP1 DUP2 ADD PUSH1 0x40 MSTORE DUP1 SWAP3 SWAP2 SWAP1 DUP2 DUP2 MSTORE PUSH1 0x20 ADD PUSH1 0x0 SWAP1 JUMPDEST DUP3 DUP3 LT ISZERO PUSH2 0x292C JUMPI DUP4 DUP3 SWAP1 PUSH1 0x0 MSTORE PUSH1 0x20 PUSH1 0x0 KECCAK256 SWAP1 PUSH1 0x2 MUL ADD PUSH1 0x40 MLOAD DUP1 PUSH1 0x40 ADD PUSH1 0x40 MSTORE SWAP1 DUP2 PUSH1 0x0 DUP3 ADD PUSH1 0x0 SWAP1 SLOAD SWAP1 PUSH2 0x100 EXP SWAP1 DIV PUSH20 0xFFFFFFFFFFFFFFFFFFFFFFFFFFFFFFFFFFFFFFFF AND PUSH20 0xFFFFFFFFFFFFFFFFFFFFFFFFFFFFFFFFFFFFFFFF AND PUSH20 0xFFFFFFFFFFFFFFFFFFFFFFFFFFFFFFFFFFFFFFFF AND DUP2 MSTORE PUSH1 0x20 ADD PUSH1 0x1 DUP3 ADD SLOAD DUP2 MSTORE POP POP DUP2 MSTORE PUSH1 0x20 ADD SWAP1 PUSH1 0x1 ADD SWAP1 PUSH2 0x289A JUMP JUMPDEST POP POP POP POP SWAP1 POP SWAP1 JUMP JUMPDEST DUP3 DUP3 PUSH1 0x1 PUSH1 0x2 PUSH1 0x0 DUP5 PUSH20 0xFFFFFFFFFFFFFFFFFFFFFFFFFFFFFFFFFFFFFFFF AND PUSH20 0xFFFFFFFFFFFFFFFFFFFFFFFFFFFFFFFFFFFFFFFF AND DUP2 MSTORE PUSH1 0x20 ADD SWAP1 DUP2 MSTORE PUSH1 0x20 ADD PUSH1 0x0 KECCAK256 PUSH1 0x0 DUP4 DUP2 MSTORE PUSH1 0x20 ADD SWAP1 DUP2 MSTORE PUSH1 0x20 ADD PUSH1 0x0 KECCAK256 SLOAD EQ PUSH2 0x29CA JUMPI PUSH1 0x40 MLOAD PUSH32 0x8C379A000000000000000000000000000000000000000000000000000000000 DUP2 MSTORE PUSH1 0x4 ADD PUSH2 0x29C1 SWAP1 PUSH2 0x47EC JUMP JUMPDEST PUSH1 0x40 MLOAD DUP1 SWAP2 SUB SWAP1 REVERT JUMPDEST DUP3 PUSH1 0x0 DUP2 GT PUSH2 0x2A0E JUMPI PUSH1 0x40 MLOAD PUSH32 0x8C379A000000000000000000000000000000000000000000000000000000000 DUP2 MSTORE PUSH1 0x4 ADD PUSH2 0x2A05 SWAP1 PUSH2 0x47AC JUMP JUMPDEST PUSH1 0x40 MLOAD DUP1 SWAP2 SUB SWAP1 REVERT JUMPDEST DUP6 DUP6 DUP6 PUSH1 0x0 DUP1 DUP5 PUSH20 0xFFFFFFFFFFFFFFFFFFFFFFFFFFFFFFFFFFFFFFFF AND PUSH20 0xFFFFFFFFFFFFFFFFFFFFFFFFFFFFFFFFFFFFFFFF AND DUP2 MSTORE PUSH1 0x20 ADD SWAP1 DUP2 MSTORE PUSH1 0x20 ADD PUSH1 0x0 KECCAK256 PUSH1 0x0 DUP4 DUP2 MSTORE PUSH1 0x20 ADD SWAP1 DUP2 MSTORE PUSH1 0x20 ADD PUSH1 0x0 KECCAK256 PUSH1 0x3 ADD SLOAD DUP2 LT ISZERO PUSH2 0x2AA6 JUMPI PUSH1 0x40 MLOAD PUSH32 0x8C379A000000000000000000000000000000000000000000000000000000000 DUP2 MSTORE PUSH1 0x4 ADD PUSH2 0x2A9D SWAP1 PUSH2 0x492C JUMP JUMPDEST PUSH1 0x40 MLOAD DUP1 SWAP2 SUB SWAP1 REVERT JUMPDEST DUP9 PUSH20 0xFFFFFFFFFFFFFFFFFFFFFFFFFFFFFFFFFFFFFFFF AND PUSH4 0x42842E0E ADDRESS CALLER DUP12 PUSH1 0x40 MLOAD DUP5 PUSH4 0xFFFFFFFF AND PUSH1 0xE0 SHL DUP2 MSTORE PUSH1 0x4 ADD PUSH2 0x2AE3 SWAP4 SWAP3 SWAP2 SWAP1 PUSH2 0x4584 JUMP JUMPDEST PUSH1 0x0 PUSH1 0x40 MLOAD DUP1 DUP4 SUB DUP2 PUSH1 0x0 DUP8 DUP1 EXTCODESIZE ISZERO DUP1 ISZERO PUSH2 0x2AFD JUMPI PUSH1 0x0 DUP1 REVERT JUMPDEST POP GAS CALL ISZERO DUP1 ISZERO PUSH2 0x2B11 JUMPI RETURNDATASIZE PUSH1 0x0 DUP1 RETURNDATACOPY RETURNDATASIZE PUSH1 0x0 REVERT JUMPDEST POP POP POP POP PUSH1 0x0 PUSH1 0x2 PUSH1 0x0 DUP12 PUSH20 0xFFFFFFFFFFFFFFFFFFFFFFFFFFFFFFFFFFFFFFFF AND PUSH20 0xFFFFFFFFFFFFFFFFFFFFFFFFFFFFFFFFFFFFFFFF AND DUP2 MSTORE PUSH1 0x20 ADD SWAP1 DUP2 MSTORE PUSH1 0x20 ADD PUSH1 0x0 KECCAK256 PUSH1 0x0 DUP11 DUP2 MSTORE PUSH1 0x20 ADD SWAP1 DUP2 MSTORE PUSH1 0x20 ADD PUSH1 0x0 KECCAK256 DUP2 SWAP1 SSTORE POP PUSH1 0x5 PUSH1 0x4 PUSH1 0x0 DUP12 PUSH20 0xFFFFFFFFFFFFFFFFFFFFFFFFFFFFFFFFFFFFFFFF AND PUSH20 0xFFFFFFFFFFFFFFFFFFFFFFFFFFFFFFFFFFFFFFFF AND DUP2 MSTORE PUSH1 0x20 ADD SWAP1 DUP2 MSTORE PUSH1 0x20 ADD PUSH1 0x0 KECCAK256 PUSH1 0x0 DUP11 DUP2 MSTORE PUSH1 0x20 ADD SWAP1 DUP2 MSTORE PUSH1 0x20 ADD PUSH1 0x0 KECCAK256 SLOAD DUP2 SLOAD DUP2 LT PUSH2 0x2BF5 JUMPI PUSH32 0x4E487B7100000000000000000000000000000000000000000000000000000000 PUSH1 0x0 MSTORE PUSH1 0x32 PUSH1 0x4 MSTORE PUSH1 0x24 PUSH1 0x0 REVERT JUMPDEST SWAP1 PUSH1 0x0 MSTORE PUSH1 0x20 PUSH1 0x0 KECCAK256 SWAP1 PUSH1 0x2 MUL ADD PUSH1 0x0 DUP1 DUP3 ADD PUSH1 0x0 PUSH2 0x100 EXP DUP2 SLOAD SWAP1 PUSH20 0xFFFFFFFFFFFFFFFFFFFFFFFFFFFFFFFFFFFFFFFF MUL NOT AND SWAP1 SSTORE PUSH1 0x1 DUP3 ADD PUSH1 0x0 SWAP1 SSTORE POP POP CALLER PUSH1 0x0 DUP1 DUP12 PUSH20 0xFFFFFFFFFFFFFFFFFFFFFFFFFFFFFFFFFFFFFFFF AND PUSH20 0xFFFFFFFFFFFFFFFFFFFFFFFFFFFFFFFFFFFFFFFF AND DUP2 MSTORE PUSH1 0x20 ADD SWAP1 DUP2 MSTORE PUSH1 0x20 ADD PUSH1 0x0 KECCAK256 PUSH1 0x0 DUP11 DUP2 MSTORE PUSH1 0x20 ADD SWAP1 DUP2 MSTORE PUSH1 0x20 ADD PUSH1 0x0 KECCAK256 PUSH1 0x1 ADD PUSH1 0x0 PUSH2 0x100 EXP DUP2 SLOAD DUP2 PUSH20 0xFFFFFFFFFFFFFFFFFFFFFFFFFFFFFFFFFFFFFFFF MUL NOT AND SWAP1 DUP4 PUSH20 0xFFFFFFFFFFFFFFFFFFFFFFFFFFFFFFFFFFFFFFFF AND MUL OR SWAP1 SSTORE POP PUSH2 0x2E07 PUSH1 0x0 DUP1 DUP12 PUSH20 0xFFFFFFFFFFFFFFFFFFFFFFFFFFFFFFFFFFFFFFFF AND PUSH20 0xFFFFFFFFFFFFFFFFFFFFFFFFFFFFFFFFFFFFFFFF AND DUP2 MSTORE PUSH1 0x20 ADD SWAP1 DUP2 MSTORE PUSH1 0x20 ADD PUSH1 0x0 KECCAK256 PUSH1 0x0 DUP11 DUP2 MSTORE PUSH1 0x20 ADD SWAP1 DUP2 MSTORE PUSH1 0x20 ADD PUSH1 0x0 KECCAK256 PUSH1 0x0 ADD PUSH1 0x0 SWAP1 SLOAD SWAP1 PUSH2 0x100 EXP SWAP1 DIV PUSH20 0xFFFFFFFFFFFFFFFFFFFFFFFFFFFFFFFFFFFFFFFF AND PUSH1 0x0 DUP1 DUP13 PUSH20 0xFFFFFFFFFFFFFFFFFFFFFFFFFFFFFFFFFFFFFFFF AND PUSH20 0xFFFFFFFFFFFFFFFFFFFFFFFFFFFFFFFFFFFFFFFF AND DUP2 MSTORE PUSH1 0x20 ADD SWAP1 DUP2 MSTORE PUSH1 0x20 ADD PUSH1 0x0 KECCAK256 PUSH1 0x0 DUP12 DUP2 MSTORE PUSH1 0x20 ADD SWAP1 DUP2 MSTORE PUSH1 0x20 ADD PUSH1 0x0 KECCAK256 PUSH1 0x2 ADD PUSH1 0x0 SWAP1 SLOAD SWAP1 PUSH2 0x100 EXP SWAP1 DIV PUSH20 0xFFFFFFFFFFFFFFFFFFFFFFFFFFFFFFFFFFFFFFFF AND PUSH1 0x0 DUP1 DUP14 PUSH20 0xFFFFFFFFFFFFFFFFFFFFFFFFFFFFFFFFFFFFFFFF AND PUSH20 0xFFFFFFFFFFFFFFFFFFFFFFFFFFFFFFFFFFFFFFFF AND DUP2 MSTORE PUSH1 0x20 ADD SWAP1 DUP2 MSTORE PUSH1 0x20 ADD PUSH1 0x0 KECCAK256 PUSH1 0x0 DUP13 DUP2 MSTORE PUSH1 0x20 ADD SWAP1 DUP2 MSTORE PUSH1 0x20 ADD PUSH1 0x0 KECCAK256 PUSH1 0x3 ADD SLOAD PUSH2 0x3739 JUMP JUMPDEST PUSH32 0x9FA3B1BB9266E05722B54A7A564D02A274BC80D39F4AF21E6BE405480996CEBA DUP10 CALLER DUP11 DUP11 PUSH1 0x40 MLOAD PUSH2 0x2E3C SWAP5 SWAP4 SWAP3 SWAP2 SWAP1 PUSH2 0x45BB JUMP JUMPDEST PUSH1 0x40 MLOAD DUP1 SWAP2 SUB SWAP1 LOG1 POP POP POP POP POP POP POP POP POP JUMP JUMPDEST DUP6 DUP5 DUP2 PUSH20 0xFFFFFFFFFFFFFFFFFFFFFFFFFFFFFFFFFFFFFFFF AND PUSH4 0x6352211E DUP3 PUSH1 0x40 MLOAD DUP3 PUSH4 0xFFFFFFFF AND PUSH1 0xE0 SHL DUP2 MSTORE PUSH1 0x4 ADD PUSH2 0x2E8A SWAP2 SWAP1 PUSH2 0x49A2 JUMP JUMPDEST PUSH1 0x20 PUSH1 0x40 MLOAD DUP1 DUP4 SUB DUP2 DUP7 DUP1 EXTCODESIZE ISZERO DUP1 ISZERO PUSH2 0x2EA2 JUMPI PUSH1 0x0 DUP1 REVERT JUMPDEST POP GAS STATICCALL ISZERO DUP1 ISZERO PUSH2 0x2EB6 JUMPI RETURNDATASIZE PUSH1 0x0 DUP1 RETURNDATACOPY RETURNDATASIZE PUSH1 0x0 REVERT JUMPDEST POP POP POP POP PUSH1 0x40 MLOAD RETURNDATASIZE PUSH1 0x1F NOT PUSH1 0x1F DUP3 ADD AND DUP3 ADD DUP1 PUSH1 0x40 MSTORE POP DUP2 ADD SWAP1 PUSH2 0x2EDA SWAP2 SWAP1 PUSH2 0x3DB8 JUMP JUMPDEST PUSH20 0xFFFFFFFFFFFFFFFFFFFFFFFFFFFFFFFFFFFFFFFF AND CALLER PUSH20 0xFFFFFFFFFFFFFFFFFFFFFFFFFFFFFFFFFFFFFFFF AND EQ PUSH2 0x2F47 JUMPI PUSH1 0x40 MLOAD PUSH32 0x8C379A000000000000000000000000000000000000000000000000000000000 DUP2 MSTORE PUSH1 0x4 ADD PUSH2 0x2F3E SWAP1 PUSH2 0x48EC JUMP JUMPDEST PUSH1 0x40 MLOAD DUP1 SWAP2 SUB SWAP1 REVERT JUMPDEST DUP8 DUP7 PUSH1 0x0 PUSH1 0x2 PUSH1 0x0 DUP5 PUSH20 0xFFFFFFFFFFFFFFFFFFFFFFFFFFFFFFFFFFFFFFFF AND PUSH20 0xFFFFFFFFFFFFFFFFFFFFFFFFFFFFFFFFFFFFFFFF AND DUP2 MSTORE PUSH1 0x20 ADD SWAP1 DUP2 MSTORE PUSH1 0x20 ADD PUSH1 0x0 KECCAK256 PUSH1 0x0 DUP4 DUP2 MSTORE PUSH1 0x20 ADD SWAP1 DUP2 MSTORE PUSH1 0x20 ADD PUSH1 0x0 KECCAK256 SLOAD EQ PUSH2 0x2FDC JUMPI PUSH1 0x40 MLOAD PUSH32 0x8C379A000000000000000000000000000000000000000000000000000000000 DUP2 MSTORE PUSH1 0x4 ADD PUSH2 0x2FD3 SWAP1 PUSH2 0x486C JUMP JUMPDEST PUSH1 0x40 MLOAD DUP1 SWAP2 SUB SWAP1 REVERT JUMPDEST DUP10 DUP9 DUP2 PUSH20 0xFFFFFFFFFFFFFFFFFFFFFFFFFFFFFFFFFFFFFFFF AND PUSH4 0xE985E9C5 CALLER ADDRESS PUSH1 0x40 MLOAD DUP4 PUSH4 0xFFFFFFFF AND PUSH1 0xE0 SHL DUP2 MSTORE PUSH1 0x4 ADD PUSH2 0x3019 SWAP3 SWAP2 SWAP1 PUSH2 0x448B JUMP JUMPDEST PUSH1 0x20 PUSH1 0x40 MLOAD DUP1 DUP4 SUB DUP2 DUP7 DUP1 EXTCODESIZE ISZERO DUP1 ISZERO PUSH2 0x3031 JUMPI PUSH1 0x0 DUP1 REVERT JUMPDEST POP GAS STATICCALL ISZERO DUP1 ISZERO PUSH2 0x3045 JUMPI RETURNDATASIZE PUSH1 0x0 DUP1 RETURNDATACOPY RETURNDATASIZE PUSH1 0x0 REVERT JUMPDEST POP POP POP POP PUSH1 0x40 MLOAD RETURNDATASIZE PUSH1 0x1F NOT PUSH1 0x1F DUP3 ADD AND DUP3 ADD DUP1 PUSH1 0x40 MSTORE POP DUP2 ADD SWAP1 PUSH2 0x3069 SWAP2 SWAP1 PUSH2 0x4027 JUMP JUMPDEST PUSH2 0x30A8 JUMPI PUSH1 0x40 MLOAD PUSH32 0x8C379A000000000000000000000000000000000000000000000000000000000 DUP2 MSTORE PUSH1 0x4 ADD PUSH2 0x309F SWAP1 PUSH2 0x478C JUMP JUMPDEST PUSH1 0x40 MLOAD DUP1 SWAP2 SUB SWAP1 REVERT JUMPDEST DUP7 PUSH1 0x0 DUP2 GT PUSH2 0x30EC JUMPI PUSH1 0x40 MLOAD PUSH32 0x8C379A000000000000000000000000000000000000000000000000000000000 DUP2 MSTORE PUSH1 0x4 ADD PUSH2 0x30E3 SWAP1 PUSH2 0x47AC JUMP JUMPDEST PUSH1 0x40 MLOAD DUP1 SWAP2 SUB SWAP1 REVERT JUMPDEST PUSH2 0x30FA DUP14 DUP14 DUP14 DUP14 DUP14 DUP14 PUSH2 0x378D JUMP JUMPDEST PUSH32 0xECBC6A097DA08DBF6F781CE204AAD454CE3DC8F112C51C7A56F1671DE89CEE8C DUP14 CALLER DUP15 DUP15 DUP15 DUP15 DUP15 PUSH1 0x40 MLOAD PUSH2 0x3135 SWAP8 SWAP7 SWAP6 SWAP5 SWAP4 SWAP3 SWAP2 SWAP1 PUSH2 0x4515 JUMP JUMPDEST PUSH1 0x40 MLOAD DUP1 SWAP2 SUB SWAP1 LOG1 POP POP POP POP POP POP POP POP POP POP POP POP POP JUMP JUMPDEST DUP2 DUP2 PUSH1 0x1 PUSH1 0x2 PUSH1 0x0 DUP5 PUSH20 0xFFFFFFFFFFFFFFFFFFFFFFFFFFFFFFFFFFFFFFFF AND PUSH20 0xFFFFFFFFFFFFFFFFFFFFFFFFFFFFFFFFFFFFFFFF AND DUP2 MSTORE PUSH1 0x20 ADD SWAP1 DUP2 MSTORE PUSH1 0x20 ADD PUSH1 0x0 KECCAK256 PUSH1 0x0 DUP4 DUP2 MSTORE PUSH1 0x20 ADD SWAP1 DUP2 MSTORE PUSH1 0x20 ADD PUSH1 0x0 KECCAK256 SLOAD EQ PUSH2 0x31E1 JUMPI PUSH1 0x40 MLOAD PUSH32 0x8C379A000000000000000000000000000000000000000000000000000000000 DUP2 MSTORE PUSH1 0x4 ADD PUSH2 0x31D8 SWAP1 PUSH2 0x47EC JUMP JUMPDEST PUSH1 0x40 MLOAD DUP1 SWAP2 SUB SWAP1 REVERT JUMPDEST DUP4 DUP4 PUSH1 0x0 DUP1 DUP4 PUSH20 0xFFFFFFFFFFFFFFFFFFFFFFFFFFFFFFFFFFFFFFFF AND PUSH20 0xFFFFFFFFFFFFFFFFFFFFFFFFFFFFFFFFFFFFFFFF AND DUP2 MSTORE PUSH1 0x20 ADD SWAP1 DUP2 MSTORE PUSH1 0x20 ADD PUSH1 0x0 KECCAK256 PUSH1 0x0 DUP3 DUP2 MSTORE PUSH1 0x20 ADD SWAP1 DUP2 MSTORE PUSH1 0x20 ADD PUSH1 0x0 KECCAK256 PUSH1 0x0 ADD PUSH1 0x0 SWAP1 SLOAD SWAP1 PUSH2 0x100 EXP SWAP1 DIV PUSH20 0xFFFFFFFFFFFFFFFFFFFFFFFFFFFFFFFFFFFFFFFF AND PUSH20 0xFFFFFFFFFFFFFFFFFFFFFFFFFFFFFFFFFFFFFFFF AND CALLER PUSH20 0xFFFFFFFFFFFFFFFFFFFFFFFFFFFFFFFFFFFFFFFF AND EQ PUSH2 0x32C3 JUMPI PUSH1 0x40 MLOAD PUSH32 0x8C379A000000000000000000000000000000000000000000000000000000000 DUP2 MSTORE PUSH1 0x4 ADD PUSH2 0x32BA SWAP1 PUSH2 0x48EC JUMP JUMPDEST PUSH1 0x40 MLOAD DUP1 SWAP2 SUB SWAP1 REVERT JUMPDEST DUP6 PUSH20 0xFFFFFFFFFFFFFFFFFFFFFFFFFFFFFFFFFFFFFFFF AND PUSH4 0x42842E0E ADDRESS CALLER DUP9 PUSH1 0x40 MLOAD DUP5 PUSH4 0xFFFFFFFF AND PUSH1 0xE0 SHL DUP2 MSTORE PUSH1 0x4 ADD PUSH2 0x3300 SWAP4 SWAP3 SWAP2 SWAP1 PUSH2 0x4584 JUMP JUMPDEST PUSH1 0x0 PUSH1 0x40 MLOAD DUP1 DUP4 SUB DUP2 PUSH1 0x0 DUP8 DUP1 EXTCODESIZE ISZERO DUP1 ISZERO PUSH2 0x331A JUMPI PUSH1 0x0 DUP1 REVERT JUMPDEST POP GAS CALL ISZERO DUP1 ISZERO PUSH2 0x332E JUMPI RETURNDATASIZE PUSH1 0x0 DUP1 RETURNDATACOPY RETURNDATASIZE PUSH1 0x0 REVERT JUMPDEST POP POP POP POP PUSH1 0x0 PUSH1 0x2 PUSH1 0x0 DUP9 PUSH20 0xFFFFFFFFFFFFFFFFFFFFFFFFFFFFFFFFFFFFFFFF AND PUSH20 0xFFFFFFFFFFFFFFFFFFFFFFFFFFFFFFFFFFFFFFFF AND DUP2 MSTORE PUSH1 0x20 ADD SWAP1 DUP2 MSTORE PUSH1 0x20 ADD PUSH1 0x0 KECCAK256 PUSH1 0x0 DUP8 DUP2 MSTORE PUSH1 0x20 ADD SWAP1 DUP2 MSTORE PUSH1 0x20 ADD PUSH1 0x0 KECCAK256 DUP2 SWAP1 SSTORE POP PUSH1 0x5 PUSH1 0x4 PUSH1 0x0 DUP9 PUSH20 0xFFFFFFFFFFFFFFFFFFFFFFFFFFFFFFFFFFFFFFFF AND PUSH20 0xFFFFFFFFFFFFFFFFFFFFFFFFFFFFFFFFFFFFFFFF AND DUP2 MSTORE PUSH1 0x20 ADD SWAP1 DUP2 MSTORE PUSH1 0x20 ADD PUSH1 0x0 KECCAK256 PUSH1 0x0 DUP8 DUP2 MSTORE PUSH1 0x20 ADD SWAP1 DUP2 MSTORE PUSH1 0x20 ADD PUSH1 0x0 KECCAK256 SLOAD DUP2 SLOAD DUP2 LT PUSH2 0x3412 JUMPI PUSH32 0x4E487B7100000000000000000000000000000000000000000000000000000000 PUSH1 0x0 MSTORE PUSH1 0x32 PUSH1 0x4 MSTORE PUSH1 0x24 PUSH1 0x0 REVERT JUMPDEST SWAP1 PUSH1 0x0 MSTORE PUSH1 0x20 PUSH1 0x0 KECCAK256 SWAP1 PUSH1 0x2 MUL ADD PUSH1 0x0 DUP1 DUP3 ADD PUSH1 0x0 PUSH2 0x100 EXP DUP2 SLOAD SWAP1 PUSH20 0xFFFFFFFFFFFFFFFFFFFFFFFFFFFFFFFFFFFFFFFF MUL NOT AND SWAP1 SSTORE PUSH1 0x1 DUP3 ADD PUSH1 0x0 SWAP1 SSTORE POP POP PUSH32 0xD7348FF00CF381A884144B50B3441398A48A7974EC349287DF80E18CEC9F5A31 DUP7 CALLER DUP8 PUSH1 0x40 MLOAD PUSH2 0x3485 SWAP4 SWAP3 SWAP2 SWAP1 PUSH2 0x4584 JUMP JUMPDEST PUSH1 0x40 MLOAD DUP1 SWAP2 SUB SWAP1 LOG1 POP POP POP POP POP POP JUMP JUMPDEST DUP1 PUSH20 0xFFFFFFFFFFFFFFFFFFFFFFFFFFFFFFFFFFFFFFFF AND PUSH4 0x23B872DD CALLER ADDRESS DUP6 PUSH1 0x40 MLOAD DUP5 PUSH4 0xFFFFFFFF AND PUSH1 0xE0 SHL DUP2 MSTORE PUSH1 0x4 ADD PUSH2 0x34D2 SWAP4 SWAP3 SWAP2 SWAP1 PUSH2 0x4584 JUMP JUMPDEST PUSH1 0x20 PUSH1 0x40 MLOAD DUP1 DUP4 SUB DUP2 PUSH1 0x0 DUP8 DUP1 EXTCODESIZE ISZERO DUP1 ISZERO PUSH2 0x34EC JUMPI PUSH1 0x0 DUP1 REVERT JUMPDEST POP GAS CALL ISZERO DUP1 ISZERO PUSH2 0x3500 JUMPI RETURNDATASIZE PUSH1 0x0 DUP1 RETURNDATACOPY RETURNDATASIZE PUSH1 0x0 REVERT JUMPDEST POP POP POP POP PUSH1 0x40 MLOAD RETURNDATASIZE PUSH1 0x1F NOT PUSH1 0x1F DUP3 ADD AND DUP3 ADD DUP1 PUSH1 0x40 MSTORE POP DUP2 ADD SWAP1 PUSH2 0x3524 SWAP2 SWAP1 PUSH2 0x4027 JUMP JUMPDEST PUSH2 0x3563 JUMPI PUSH1 0x40 MLOAD PUSH32 0x8C379A000000000000000000000000000000000000000000000000000000000 DUP2 MSTORE PUSH1 0x4 ADD PUSH2 0x355A SWAP1 PUSH2 0x48AC JUMP JUMPDEST PUSH1 0x40 MLOAD DUP1 SWAP2 SUB SWAP1 REVERT JUMPDEST POP POP JUMP JUMPDEST PUSH1 0x0 DUP2 DUP4 PUSH2 0x3575 SWAP2 SWAP1 PUSH2 0x4A12 JUMP JUMPDEST SWAP1 POP SWAP3 SWAP2 POP POP JUMP JUMPDEST DUP4 PUSH20 0xFFFFFFFFFFFFFFFFFFFFFFFFFFFFFFFFFFFFFFFF AND PUSH4 0x42842E0E ADDRESS DUP4 DUP7 PUSH1 0x40 MLOAD DUP5 PUSH4 0xFFFFFFFF AND PUSH1 0xE0 SHL DUP2 MSTORE PUSH1 0x4 ADD PUSH2 0x35BA SWAP4 SWAP3 SWAP2 SWAP1 PUSH2 0x4584 JUMP JUMPDEST PUSH1 0x0 PUSH1 0x40 MLOAD DUP1 DUP4 SUB DUP2 PUSH1 0x0 DUP8 DUP1 EXTCODESIZE ISZERO DUP1 ISZERO PUSH2 0x35D4 JUMPI PUSH1 0x0 DUP1 REVERT JUMPDEST POP GAS CALL ISZERO DUP1 ISZERO PUSH2 0x35E8 JUMPI RETURNDATASIZE PUSH1 0x0 DUP1 RETURNDATACOPY RETURNDATASIZE PUSH1 0x0 REVERT JUMPDEST POP POP POP POP PUSH1 0x0 PUSH1 0x2 PUSH1 0x0 DUP7 PUSH20 0xFFFFFFFFFFFFFFFFFFFFFFFFFFFFFFFFFFFFFFFF AND PUSH20 0xFFFFFFFFFFFFFFFFFFFFFFFFFFFFFFFFFFFFFFFF AND DUP2 MSTORE PUSH1 0x20 ADD SWAP1 DUP2 MSTORE PUSH1 0x20 ADD PUSH1 0x0 KECCAK256 PUSH1 0x0 DUP6 DUP2 MSTORE PUSH1 0x20 ADD SWAP1 DUP2 MSTORE PUSH1 0x20 ADD PUSH1 0x0 KECCAK256 DUP2 SWAP1 SSTORE POP PUSH2 0x3733 PUSH1 0x1 PUSH1 0x0 DUP7 PUSH20 0xFFFFFFFFFFFFFFFFFFFFFFFFFFFFFFFFFFFFFFFF AND PUSH20 0xFFFFFFFFFFFFFFFFFFFFFFFFFFFFFFFFFFFFFFFF AND DUP2 MSTORE PUSH1 0x20 ADD SWAP1 DUP2 MSTORE PUSH1 0x20 ADD PUSH1 0x0 KECCAK256 PUSH1 0x0 DUP6 DUP2 MSTORE PUSH1 0x20 ADD SWAP1 DUP2 MSTORE PUSH1 0x20 ADD PUSH1 0x0 KECCAK256 PUSH1 0x5 ADD PUSH1 0x0 SWAP1 SLOAD SWAP1 PUSH2 0x100 EXP SWAP1 DIV PUSH20 0xFFFFFFFFFFFFFFFFFFFFFFFFFFFFFFFFFFFFFFFF AND PUSH1 0x1 PUSH1 0x0 DUP8 PUSH20 0xFFFFFFFFFFFFFFFFFFFFFFFFFFFFFFFFFFFFFFFF AND PUSH20 0xFFFFFFFFFFFFFFFFFFFFFFFFFFFFFFFFFFFFFFFF AND DUP2 MSTORE PUSH1 0x20 ADD SWAP1 DUP2 MSTORE PUSH1 0x20 ADD PUSH1 0x0 KECCAK256 PUSH1 0x0 DUP7 DUP2 MSTORE PUSH1 0x20 ADD SWAP1 DUP2 MSTORE PUSH1 0x20 ADD PUSH1 0x0 KECCAK256 PUSH1 0x6 ADD PUSH1 0x0 SWAP1 SLOAD SWAP1 PUSH2 0x100 EXP SWAP1 DIV PUSH20 0xFFFFFFFFFFFFFFFFFFFFFFFFFFFFFFFFFFFFFFFF AND DUP5 PUSH2 0x3739 JUMP JUMPDEST POP POP POP POP JUMP JUMPDEST PUSH1 0x0 PUSH20 0xFFFFFFFFFFFFFFFFFFFFFFFFFFFFFFFFFFFFFFFF AND DUP3 PUSH20 0xFFFFFFFFFFFFFFFFFFFFFFFFFFFFFFFFFFFFFFFF AND EQ PUSH2 0x377D JUMPI PUSH2 0x3778 DUP4 DUP4 DUP4 PUSH2 0x3A1F JUMP JUMPDEST PUSH2 0x3788 JUMP JUMPDEST PUSH2 0x3787 DUP4 DUP3 PUSH2 0x3B80 JUMP JUMPDEST JUMPDEST POP POP POP JUMP JUMPDEST PUSH1 0x40 MLOAD DUP1 PUSH1 0xE0 ADD PUSH1 0x40 MSTORE DUP1 DUP5 DUP2 MSTORE PUSH1 0x20 ADD DUP4 DUP2 MSTORE PUSH1 0x20 ADD DUP3 DUP2 MSTORE PUSH1 0x20 ADD DUP3 DUP2 MSTORE PUSH1 0x20 ADD PUSH1 0x0 PUSH20 0xFFFFFFFFFFFFFFFFFFFFFFFFFFFFFFFFFFFFFFFF AND DUP2 MSTORE PUSH1 0x20 ADD CALLER PUSH20 0xFFFFFFFFFFFFFFFFFFFFFFFFFFFFFFFFFFFFFFFF AND DUP2 MSTORE PUSH1 0x20 ADD DUP7 PUSH20 0xFFFFFFFFFFFFFFFFFFFFFFFFFFFFFFFFFFFFFFFF AND DUP2 MSTORE POP PUSH1 0x1 PUSH1 0x0 DUP9 PUSH20 0xFFFFFFFFFFFFFFFFFFFFFFFFFFFFFFFFFFFFFFFF AND PUSH20 0xFFFFFFFFFFFFFFFFFFFFFFFFFFFFFFFFFFFFFFFF AND DUP2 MSTORE PUSH1 0x20 ADD SWAP1 DUP2 MSTORE PUSH1 0x20 ADD PUSH1 0x0 KECCAK256 PUSH1 0x0 DUP7 DUP2 MSTORE PUSH1 0x20 ADD SWAP1 DUP2 MSTORE PUSH1 0x20 ADD PUSH1 0x0 KECCAK256 PUSH1 0x0 DUP3 ADD MLOAD DUP2 PUSH1 0x0 ADD SSTORE PUSH1 0x20 DUP3 ADD MLOAD DUP2 PUSH1 0x1 ADD SSTORE PUSH1 0x40 DUP3 ADD MLOAD DUP2 PUSH1 0x2 ADD SSTORE PUSH1 0x60 DUP3 ADD MLOAD DUP2 PUSH1 0x3 ADD SSTORE PUSH1 0x80 DUP3 ADD MLOAD DUP2 PUSH1 0x4 ADD PUSH1 0x0 PUSH2 0x100 EXP DUP2 SLOAD DUP2 PUSH20 0xFFFFFFFFFFFFFFFFFFFFFFFFFFFFFFFFFFFFFFFF MUL NOT AND SWAP1 DUP4 PUSH20 0xFFFFFFFFFFFFFFFFFFFFFFFFFFFFFFFFFFFFFFFF AND MUL OR SWAP1 SSTORE POP PUSH1 0xA0 DUP3 ADD MLOAD DUP2 PUSH1 0x5 ADD PUSH1 0x0 PUSH2 0x100 EXP DUP2 SLOAD DUP2 PUSH20 0xFFFFFFFFFFFFFFFFFFFFFFFFFFFFFFFFFFFFFFFF MUL NOT AND SWAP1 DUP4 PUSH20 0xFFFFFFFFFFFFFFFFFFFFFFFFFFFFFFFFFFFFFFFF AND MUL OR SWAP1 SSTORE POP PUSH1 0xC0 DUP3 ADD MLOAD DUP2 PUSH1 0x6 ADD PUSH1 0x0 PUSH2 0x100 EXP DUP2 SLOAD DUP2 PUSH20 0xFFFFFFFFFFFFFFFFFFFFFFFFFFFFFFFFFFFFFFFF MUL NOT AND SWAP1 DUP4 PUSH20 0xFFFFFFFFFFFFFFFFFFFFFFFFFFFFFFFFFFFFFFFF AND MUL OR SWAP1 SSTORE POP SWAP1 POP POP PUSH1 0x2 DUP1 PUSH1 0x0 DUP9 PUSH20 0xFFFFFFFFFFFFFFFFFFFFFFFFFFFFFFFFFFFFFFFF AND PUSH20 0xFFFFFFFFFFFFFFFFFFFFFFFFFFFFFFFFFFFFFFFF AND DUP2 MSTORE PUSH1 0x20 ADD SWAP1 DUP2 MSTORE PUSH1 0x20 ADD PUSH1 0x0 KECCAK256 PUSH1 0x0 DUP7 DUP2 MSTORE PUSH1 0x20 ADD SWAP1 DUP2 MSTORE PUSH1 0x20 ADD PUSH1 0x0 KECCAK256 DUP2 SWAP1 SSTORE POP DUP6 PUSH20 0xFFFFFFFFFFFFFFFFFFFFFFFFFFFFFFFFFFFFFFFF AND PUSH4 0x42842E0E CALLER ADDRESS DUP8 PUSH1 0x40 MLOAD DUP5 PUSH4 0xFFFFFFFF AND PUSH1 0xE0 SHL DUP2 MSTORE PUSH1 0x4 ADD PUSH2 0x39E5 SWAP4 SWAP3 SWAP2 SWAP1 PUSH2 0x4584 JUMP JUMPDEST PUSH1 0x0 PUSH1 0x40 MLOAD DUP1 DUP4 SUB DUP2 PUSH1 0x0 DUP8 DUP1 EXTCODESIZE ISZERO DUP1 ISZERO PUSH2 0x39FF JUMPI PUSH1 0x0 DUP1 REVERT JUMPDEST POP GAS CALL ISZERO DUP1 ISZERO PUSH2 0x3A13 JUMPI RETURNDATASIZE PUSH1 0x0 DUP1 RETURNDATACOPY RETURNDATASIZE PUSH1 0x0 REVERT JUMPDEST POP POP POP POP POP POP POP POP POP POP JUMP JUMPDEST DUP2 PUSH20 0xFFFFFFFFFFFFFFFFFFFFFFFFFFFFFFFFFFFFFFFF AND PUSH4 0x23B872DD CALLER ADDRESS DUP5 PUSH1 0x40 MLOAD DUP5 PUSH4 0xFFFFFFFF AND PUSH1 0xE0 SHL DUP2 MSTORE PUSH1 0x4 ADD PUSH2 0x3A5C SWAP4 SWAP3 SWAP2 SWAP1 PUSH2 0x4584 JUMP JUMPDEST PUSH1 0x20 PUSH1 0x40 MLOAD DUP1 DUP4 SUB DUP2 PUSH1 0x0 DUP8 DUP1 EXTCODESIZE ISZERO DUP1 ISZERO PUSH2 0x3A76 JUMPI PUSH1 0x0 DUP1 REVERT JUMPDEST POP GAS CALL ISZERO DUP1 ISZERO PUSH2 0x3A8A JUMPI RETURNDATASIZE PUSH1 0x0 DUP1 RETURNDATACOPY RETURNDATASIZE PUSH1 0x0 REVERT JUMPDEST POP POP POP POP PUSH1 0x40 MLOAD RETURNDATASIZE PUSH1 0x1F NOT PUSH1 0x1F DUP3 ADD AND DUP3 ADD DUP1 PUSH1 0x40 MSTORE POP DUP2 ADD SWAP1 PUSH2 0x3AAE SWAP2 SWAP1 PUSH2 0x4027 JUMP JUMPDEST PUSH2 0x3AED JUMPI PUSH1 0x40 MLOAD PUSH32 0x8C379A000000000000000000000000000000000000000000000000000000000 DUP2 MSTORE PUSH1 0x4 ADD PUSH2 0x3AE4 SWAP1 PUSH2 0x48AC JUMP JUMPDEST PUSH1 0x40 MLOAD DUP1 SWAP2 SUB SWAP1 REVERT JUMPDEST DUP2 PUSH20 0xFFFFFFFFFFFFFFFFFFFFFFFFFFFFFFFFFFFFFFFF AND PUSH4 0xA9059CBB DUP5 DUP4 PUSH1 0x40 MLOAD DUP4 PUSH4 0xFFFFFFFF AND PUSH1 0xE0 SHL DUP2 MSTORE PUSH1 0x4 ADD PUSH2 0x3B28 SWAP3 SWAP2 SWAP1 PUSH2 0x4600 JUMP JUMPDEST PUSH1 0x20 PUSH1 0x40 MLOAD DUP1 DUP4 SUB DUP2 PUSH1 0x0 DUP8 DUP1 EXTCODESIZE ISZERO DUP1 ISZERO PUSH2 0x3B42 JUMPI PUSH1 0x0 DUP1 REVERT JUMPDEST POP GAS CALL ISZERO DUP1 ISZERO PUSH2 0x3B56 JUMPI RETURNDATASIZE PUSH1 0x0 DUP1 RETURNDATACOPY RETURNDATASIZE PUSH1 0x0 REVERT JUMPDEST POP POP POP POP PUSH1 0x40 MLOAD RETURNDATASIZE PUSH1 0x1F NOT PUSH1 0x1F DUP3 ADD AND DUP3 ADD DUP1 PUSH1 0x40 MSTORE POP DUP2 ADD SWAP1 PUSH2 0x3B7A SWAP2 SWAP1 PUSH2 0x4027 JUMP JUMPDEST POP POP POP POP JUMP JUMPDEST PUSH1 0x0 DUP3 PUSH20 0xFFFFFFFFFFFFFFFFFFFFFFFFFFFFFFFFFFFFFFFF AND DUP3 PUSH1 0x40 MLOAD PUSH2 0x3BA6 SWAP1 PUSH2 0x4476 JUMP JUMPDEST PUSH1 0x0 PUSH1 0x40 MLOAD DUP1 DUP4 SUB DUP2 DUP6 DUP8 GAS CALL SWAP3 POP POP POP RETURNDATASIZE DUP1 PUSH1 0x0 DUP2 EQ PUSH2 0x3BE3 JUMPI PUSH1 0x40 MLOAD SWAP2 POP PUSH1 0x1F NOT PUSH1 0x3F RETURNDATASIZE ADD AND DUP3 ADD PUSH1 0x40 MSTORE RETURNDATASIZE DUP3 MSTORE RETURNDATASIZE PUSH1 0x0 PUSH1 0x20 DUP5 ADD RETURNDATACOPY PUSH2 0x3BE8 JUMP JUMPDEST PUSH1 0x60 SWAP2 POP JUMPDEST POP POP SWAP1 POP DUP1 PUSH2 0x3C2C JUMPI PUSH1 0x40 MLOAD PUSH32 0x8C379A000000000000000000000000000000000000000000000000000000000 DUP2 MSTORE PUSH1 0x4 ADD PUSH2 0x3C23 SWAP1 PUSH2 0x494C JUMP JUMPDEST PUSH1 0x40 MLOAD DUP1 SWAP2 SUB SWAP1 REVERT JUMPDEST POP POP POP JUMP JUMPDEST PUSH1 0x40 MLOAD DUP1 PUSH1 0xE0 ADD PUSH1 0x40 MSTORE DUP1 PUSH1 0x0 DUP2 MSTORE PUSH1 0x20 ADD PUSH1 0x0 DUP2 MSTORE PUSH1 0x20 ADD PUSH1 0x0 DUP2 MSTORE PUSH1 0x20 ADD PUSH1 0x0 DUP2 MSTORE PUSH1 0x20 ADD PUSH1 0x0 PUSH20 0xFFFFFFFFFFFFFFFFFFFFFFFFFFFFFFFFFFFFFFFF AND DUP2 MSTORE PUSH1 0x20 ADD PUSH1 0x0 PUSH20 0xFFFFFFFFFFFFFFFFFFFFFFFFFFFFFFFFFFFFFFFF AND DUP2 MSTORE PUSH1 0x20 ADD PUSH1 0x0 PUSH20 0xFFFFFFFFFFFFFFFFFFFFFFFFFFFFFFFFFFFFFFFF AND DUP2 MSTORE POP SWAP1 JUMP JUMPDEST PUSH1 0x40 MLOAD DUP1 PUSH1 0x80 ADD PUSH1 0x40 MSTORE DUP1 PUSH1 0x0 PUSH20 0xFFFFFFFFFFFFFFFFFFFFFFFFFFFFFFFFFFFFFFFF AND DUP2 MSTORE PUSH1 0x20 ADD PUSH1 0x0 PUSH20 0xFFFFFFFFFFFFFFFFFFFFFFFFFFFFFFFFFFFFFFFF AND DUP2 MSTORE PUSH1 0x20 ADD PUSH1 0x0 PUSH20 0xFFFFFFFFFFFFFFFFFFFFFFFFFFFFFFFFFFFFFFFF AND DUP2 MSTORE PUSH1 0x20 ADD PUSH1 0x0 DUP2 MSTORE POP SWAP1 JUMP JUMPDEST PUSH1 0x0 DUP2 CALLDATALOAD SWAP1 POP PUSH2 0x3D29 DUP2 PUSH2 0x4D9E JUMP JUMPDEST SWAP3 SWAP2 POP POP JUMP JUMPDEST PUSH1 0x0 DUP2 MLOAD SWAP1 POP PUSH2 0x3D3E DUP2 PUSH2 0x4D9E JUMP JUMPDEST SWAP3 SWAP2 POP POP JUMP JUMPDEST PUSH1 0x0 DUP2 MLOAD SWAP1 POP PUSH2 0x3D53 DUP2 PUSH2 0x4DB5 JUMP JUMPDEST SWAP3 SWAP2 POP POP JUMP JUMPDEST PUSH1 0x0 DUP1 DUP4 PUSH1 0x1F DUP5 ADD SLT PUSH2 0x3D6B JUMPI PUSH1 0x0 DUP1 REVERT JUMPDEST DUP3 CALLDATALOAD SWAP1 POP PUSH8 0xFFFFFFFFFFFFFFFF DUP2 GT ISZERO PUSH2 0x3D84 JUMPI PUSH1 0x0 DUP1 REVERT JUMPDEST PUSH1 0x20 DUP4 ADD SWAP2 POP DUP4 PUSH1 0x1 DUP3 MUL DUP4 ADD GT ISZERO PUSH2 0x3D9C JUMPI PUSH1 0x0 DUP1 REVERT JUMPDEST SWAP3 POP SWAP3 SWAP1 POP JUMP JUMPDEST PUSH1 0x0 DUP2 CALLDATALOAD SWAP1 POP PUSH2 0x3DB2 DUP2 PUSH2 0x4DCC JUMP JUMPDEST SWAP3 SWAP2 POP POP JUMP JUMPDEST PUSH1 0x0 PUSH1 0x20 DUP3 DUP5 SUB SLT ISZERO PUSH2 0x3DCA JUMPI PUSH1 0x0 DUP1 REVERT JUMPDEST PUSH1 0x0 PUSH2 0x3DD8 DUP5 DUP3 DUP6 ADD PUSH2 0x3D2F JUMP JUMPDEST SWAP2 POP POP SWAP3 SWAP2 POP POP JUMP JUMPDEST PUSH1 0x0 DUP1 PUSH1 0x0 DUP1 PUSH1 0x0 PUSH1 0x80 DUP7 DUP9 SUB SLT ISZERO PUSH2 0x3DF9 JUMPI PUSH1 0x0 DUP1 REVERT JUMPDEST PUSH1 0x0 PUSH2 0x3E07 DUP9 DUP3 DUP10 ADD PUSH2 0x3D1A JUMP JUMPDEST SWAP6 POP POP PUSH1 0x20 PUSH2 0x3E18 DUP9 DUP3 DUP10 ADD PUSH2 0x3D1A JUMP JUMPDEST SWAP5 POP POP PUSH1 0x40 PUSH2 0x3E29 DUP9 DUP3 DUP10 ADD PUSH2 0x3DA3 JUMP JUMPDEST SWAP4 POP POP PUSH1 0x60 DUP7 ADD CALLDATALOAD PUSH8 0xFFFFFFFFFFFFFFFF DUP2 GT ISZERO PUSH2 0x3E46 JUMPI PUSH1 0x0 DUP1 REVERT JUMPDEST PUSH2 0x3E52 DUP9 DUP3 DUP10 ADD PUSH2 0x3D59 JUMP JUMPDEST SWAP3 POP SWAP3 POP POP SWAP3 SWAP6 POP SWAP3 SWAP6 SWAP1 SWAP4 POP JUMP JUMPDEST PUSH1 0x0 DUP1 PUSH1 0x0 DUP1 PUSH1 0x80 DUP6 DUP8 SUB SLT ISZERO PUSH2 0x3E77 JUMPI PUSH1 0x0 DUP1 REVERT JUMPDEST PUSH1 0x0 PUSH2 0x3E85 DUP8 DUP3 DUP9 ADD PUSH2 0x3D1A JUMP JUMPDEST SWAP5 POP POP PUSH1 0x20 PUSH2 0x3E96 DUP8 DUP3 DUP9 ADD PUSH2 0x3D1A JUMP JUMPDEST SWAP4 POP POP PUSH1 0x40 PUSH2 0x3EA7 DUP8 DUP3 DUP9 ADD PUSH2 0x3DA3 JUMP JUMPDEST SWAP3 POP POP PUSH1 0x60 PUSH2 0x3EB8 DUP8 DUP3 DUP9 ADD PUSH2 0x3DA3 JUMP JUMPDEST SWAP2 POP POP SWAP3 SWAP6 SWAP2 SWAP5 POP SWAP3 POP JUMP JUMPDEST PUSH1 0x0 DUP1 PUSH1 0x0 DUP1 PUSH1 0x0 DUP1 PUSH1 0xC0 DUP8 DUP10 SUB SLT ISZERO PUSH2 0x3EDD JUMPI PUSH1 0x0 DUP1 REVERT JUMPDEST PUSH1 0x0 PUSH2 0x3EEB DUP10 DUP3 DUP11 ADD PUSH2 0x3D1A JUMP JUMPDEST SWAP7 POP POP PUSH1 0x20 PUSH2 0x3EFC DUP10 DUP3 DUP11 ADD PUSH2 0x3D1A JUMP JUMPDEST SWAP6 POP POP PUSH1 0x40 PUSH2 0x3F0D DUP10 DUP3 DUP11 ADD PUSH2 0x3DA3 JUMP JUMPDEST SWAP5 POP POP PUSH1 0x60 PUSH2 0x3F1E DUP10 DUP3 DUP11 ADD PUSH2 0x3DA3 JUMP JUMPDEST SWAP4 POP POP PUSH1 0x80 PUSH2 0x3F2F DUP10 DUP3 DUP11 ADD PUSH2 0x3DA3 JUMP JUMPDEST SWAP3 POP POP PUSH1 0xA0 PUSH2 0x3F40 DUP10 DUP3 DUP11 ADD PUSH2 0x3DA3 JUMP JUMPDEST SWAP2 POP POP SWAP3 SWAP6 POP SWAP3 SWAP6 POP SWAP3 SWAP6 JUMP JUMPDEST PUSH1 0x0 DUP1 PUSH1 0x40 DUP4 DUP6 SUB SLT ISZERO PUSH2 0x3F60 JUMPI PUSH1 0x0 DUP1 REVERT JUMPDEST PUSH1 0x0 PUSH2 0x3F6E DUP6 DUP3 DUP7 ADD PUSH2 0x3D1A JUMP JUMPDEST SWAP3 POP POP PUSH1 0x20 PUSH2 0x3F7F DUP6 DUP3 DUP7 ADD PUSH2 0x3DA3 JUMP JUMPDEST SWAP2 POP POP SWAP3 POP SWAP3 SWAP1 POP JUMP JUMPDEST PUSH1 0x0 DUP1 PUSH1 0x0 PUSH1 0x60 DUP5 DUP7 SUB SLT ISZERO PUSH2 0x3F9E JUMPI PUSH1 0x0 DUP1 REVERT JUMPDEST PUSH1 0x0 PUSH2 0x3FAC DUP7 DUP3 DUP8 ADD PUSH2 0x3D1A JUMP JUMPDEST SWAP4 POP POP PUSH1 0x20 PUSH2 0x3FBD DUP7 DUP3 DUP8 ADD PUSH2 0x3DA3 JUMP JUMPDEST SWAP3 POP POP PUSH1 0x40 PUSH2 0x3FCE DUP7 DUP3 DUP8 ADD PUSH2 0x3D1A JUMP JUMPDEST SWAP2 POP POP SWAP3 POP SWAP3 POP SWAP3 JUMP JUMPDEST PUSH1 0x0 DUP1 PUSH1 0x0 PUSH1 0x60 DUP5 DUP7 SUB SLT ISZERO PUSH2 0x3FED JUMPI PUSH1 0x0 DUP1 REVERT JUMPDEST PUSH1 0x0 PUSH2 0x3FFB DUP7 DUP3 DUP8 ADD PUSH2 0x3D1A JUMP JUMPDEST SWAP4 POP POP PUSH1 0x20 PUSH2 0x400C DUP7 DUP3 DUP8 ADD PUSH2 0x3DA3 JUMP JUMPDEST SWAP3 POP POP PUSH1 0x40 PUSH2 0x401D DUP7 DUP3 DUP8 ADD PUSH2 0x3DA3 JUMP JUMPDEST SWAP2 POP POP SWAP3 POP SWAP3 POP SWAP3 JUMP JUMPDEST PUSH1 0x0 PUSH1 0x20 DUP3 DUP5 SUB SLT ISZERO PUSH2 0x4039 JUMPI PUSH1 0x0 DUP1 REVERT JUMPDEST PUSH1 0x0 PUSH2 0x4047 DUP5 DUP3 DUP6 ADD PUSH2 0x3D44 JUMP JUMPDEST SWAP2 POP POP SWAP3 SWAP2 POP POP JUMP JUMPDEST PUSH1 0x0 PUSH2 0x405C DUP4 DUP4 PUSH2 0x4429 JUMP JUMPDEST PUSH1 0x40 DUP4 ADD SWAP1 POP SWAP3 SWAP2 POP POP JUMP JUMPDEST PUSH2 0x4071 DUP2 PUSH2 0x4A68 JUMP JUMPDEST DUP3 MSTORE POP POP JUMP JUMPDEST PUSH2 0x4080 DUP2 PUSH2 0x4A68 JUMP JUMPDEST DUP3 MSTORE POP POP JUMP JUMPDEST PUSH1 0x0 PUSH2 0x4091 DUP3 PUSH2 0x49CD JUMP JUMPDEST PUSH2 0x409B DUP2 DUP6 PUSH2 0x49E5 JUMP JUMPDEST SWAP4 POP PUSH2 0x40A6 DUP4 PUSH2 0x49BD JUMP JUMPDEST DUP1 PUSH1 0x0 JUMPDEST DUP4 DUP2 LT ISZERO PUSH2 0x40D7 JUMPI DUP2 MLOAD PUSH2 0x40BE DUP9 DUP3 PUSH2 0x4050 JUMP JUMPDEST SWAP8 POP PUSH2 0x40C9 DUP4 PUSH2 0x49D8 JUMP JUMPDEST SWAP3 POP POP PUSH1 0x1 DUP2 ADD SWAP1 POP PUSH2 0x40AA JUMP JUMPDEST POP DUP6 SWAP4 POP POP POP POP SWAP3 SWAP2 POP POP JUMP JUMPDEST PUSH2 0x40ED DUP2 PUSH2 0x4A86 JUMP JUMPDEST DUP3 MSTORE POP POP JUMP JUMPDEST PUSH1 0x0 PUSH2 0x4100 PUSH1 0x16 DUP4 PUSH2 0x4A01 JUMP JUMPDEST SWAP2 POP PUSH2 0x410B DUP3 PUSH2 0x4B0B JUMP JUMPDEST PUSH1 0x20 DUP3 ADD SWAP1 POP SWAP2 SWAP1 POP JUMP JUMPDEST PUSH1 0x0 PUSH2 0x4123 PUSH1 0x1C DUP4 PUSH2 0x4A01 JUMP JUMPDEST SWAP2 POP PUSH2 0x412E DUP3 PUSH2 0x4B34 JUMP JUMPDEST PUSH1 0x20 DUP3 ADD SWAP1 POP SWAP2 SWAP1 POP JUMP JUMPDEST PUSH1 0x0 PUSH2 0x4146 PUSH1 0x11 DUP4 PUSH2 0x4A01 JUMP JUMPDEST SWAP2 POP PUSH2 0x4151 DUP3 PUSH2 0x4B5D JUMP JUMPDEST PUSH1 0x20 DUP3 ADD SWAP1 POP SWAP2 SWAP1 POP JUMP JUMPDEST PUSH1 0x0 PUSH2 0x4169 PUSH1 0xD DUP4 PUSH2 0x4A01 JUMP JUMPDEST SWAP2 POP PUSH2 0x4174 DUP3 PUSH2 0x4B86 JUMP JUMPDEST PUSH1 0x20 DUP3 ADD SWAP1 POP SWAP2 SWAP1 POP JUMP JUMPDEST PUSH1 0x0 PUSH2 0x418C PUSH1 0x15 DUP4 PUSH2 0x4A01 JUMP JUMPDEST SWAP2 POP PUSH2 0x4197 DUP3 PUSH2 0x4BAF JUMP JUMPDEST PUSH1 0x20 DUP3 ADD SWAP1 POP SWAP2 SWAP1 POP JUMP JUMPDEST PUSH1 0x0 PUSH2 0x41AF PUSH1 0x17 DUP4 PUSH2 0x4A01 JUMP JUMPDEST SWAP2 POP PUSH2 0x41BA DUP3 PUSH2 0x4BD8 JUMP JUMPDEST PUSH1 0x20 DUP3 ADD SWAP1 POP SWAP2 SWAP1 POP JUMP JUMPDEST PUSH1 0x0 PUSH2 0x41D2 PUSH1 0x1D DUP4 PUSH2 0x4A01 JUMP JUMPDEST SWAP2 POP PUSH2 0x41DD DUP3 PUSH2 0x4C01 JUMP JUMPDEST PUSH1 0x20 DUP3 ADD SWAP1 POP SWAP2 SWAP1 POP JUMP JUMPDEST PUSH1 0x0 PUSH2 0x41F5 PUSH1 0xB DUP4 PUSH2 0x4A01 JUMP JUMPDEST SWAP2 POP PUSH2 0x4200 DUP3 PUSH2 0x4C2A JUMP JUMPDEST PUSH1 0x20 DUP3 ADD SWAP1 POP SWAP2 SWAP1 POP JUMP JUMPDEST PUSH1 0x0 PUSH2 0x4218 PUSH1 0x13 DUP4 PUSH2 0x4A01 JUMP JUMPDEST SWAP2 POP PUSH2 0x4223 DUP3 PUSH2 0x4C53 JUMP JUMPDEST PUSH1 0x20 DUP3 ADD SWAP1 POP SWAP2 SWAP1 POP JUMP JUMPDEST PUSH1 0x0 PUSH2 0x423B PUSH1 0x8 DUP4 PUSH2 0x4A01 JUMP JUMPDEST SWAP2 POP PUSH2 0x4246 DUP3 PUSH2 0x4C7C JUMP JUMPDEST PUSH1 0x20 DUP3 ADD SWAP1 POP SWAP2 SWAP1 POP JUMP JUMPDEST PUSH1 0x0 PUSH2 0x425E PUSH1 0x14 DUP4 PUSH2 0x4A01 JUMP JUMPDEST SWAP2 POP PUSH2 0x4269 DUP3 PUSH2 0x4CA5 JUMP JUMPDEST PUSH1 0x20 DUP3 ADD SWAP1 POP SWAP2 SWAP1 POP JUMP JUMPDEST PUSH1 0x0 PUSH2 0x4281 PUSH1 0xF DUP4 PUSH2 0x4A01 JUMP JUMPDEST SWAP2 POP PUSH2 0x428C DUP3 PUSH2 0x4CCE JUMP JUMPDEST PUSH1 0x20 DUP3 ADD SWAP1 POP SWAP2 SWAP1 POP JUMP JUMPDEST PUSH1 0x0 PUSH2 0x42A4 PUSH1 0x15 DUP4 PUSH2 0x4A01 JUMP JUMPDEST SWAP2 POP PUSH2 0x42AF DUP3 PUSH2 0x4CF7 JUMP JUMPDEST PUSH1 0x20 DUP3 ADD SWAP1 POP SWAP2 SWAP1 POP JUMP JUMPDEST PUSH1 0x0 PUSH2 0x42C7 PUSH1 0x0 DUP4 PUSH2 0x49F6 JUMP JUMPDEST SWAP2 POP PUSH2 0x42D2 DUP3 PUSH2 0x4D20 JUMP JUMPDEST PUSH1 0x0 DUP3 ADD SWAP1 POP SWAP2 SWAP1 POP JUMP JUMPDEST PUSH1 0x0 PUSH2 0x42EA PUSH1 0x13 DUP4 PUSH2 0x4A01 JUMP JUMPDEST SWAP2 POP PUSH2 0x42F5 DUP3 PUSH2 0x4D23 JUMP JUMPDEST PUSH1 0x20 DUP3 ADD SWAP1 POP SWAP2 SWAP1 POP JUMP JUMPDEST PUSH1 0x0 PUSH2 0x430D PUSH1 0x14 DUP4 PUSH2 0x4A01 JUMP JUMPDEST SWAP2 POP PUSH2 0x4318 DUP3 PUSH2 0x4D4C JUMP JUMPDEST PUSH1 0x20 DUP3 ADD SWAP1 POP SWAP2 SWAP1 POP JUMP JUMPDEST PUSH1 0x0 PUSH2 0x4330 PUSH1 0xD DUP4 PUSH2 0x4A01 JUMP JUMPDEST SWAP2 POP PUSH2 0x433B DUP3 PUSH2 0x4D75 JUMP JUMPDEST PUSH1 0x20 DUP3 ADD SWAP1 POP SWAP2 SWAP1 POP JUMP JUMPDEST PUSH1 0xE0 DUP3 ADD PUSH1 0x0 DUP3 ADD MLOAD PUSH2 0x435C PUSH1 0x0 DUP6 ADD DUP3 PUSH2 0x4458 JUMP JUMPDEST POP PUSH1 0x20 DUP3 ADD MLOAD PUSH2 0x436F PUSH1 0x20 DUP6 ADD DUP3 PUSH2 0x4458 JUMP JUMPDEST POP PUSH1 0x40 DUP3 ADD MLOAD PUSH2 0x4382 PUSH1 0x40 DUP6 ADD DUP3 PUSH2 0x4458 JUMP JUMPDEST POP PUSH1 0x60 DUP3 ADD MLOAD PUSH2 0x4395 PUSH1 0x60 DUP6 ADD DUP3 PUSH2 0x4458 JUMP JUMPDEST POP PUSH1 0x80 DUP3 ADD MLOAD PUSH2 0x43A8 PUSH1 0x80 DUP6 ADD DUP3 PUSH2 0x4068 JUMP JUMPDEST POP PUSH1 0xA0 DUP3 ADD MLOAD PUSH2 0x43BB PUSH1 0xA0 DUP6 ADD DUP3 PUSH2 0x4068 JUMP JUMPDEST POP PUSH1 0xC0 DUP3 ADD MLOAD PUSH2 0x43CE PUSH1 0xC0 DUP6 ADD DUP3 PUSH2 0x4068 JUMP JUMPDEST POP POP POP POP JUMP JUMPDEST PUSH1 0x80 DUP3 ADD PUSH1 0x0 DUP3 ADD MLOAD PUSH2 0x43EA PUSH1 0x0 DUP6 ADD DUP3 PUSH2 0x4068 JUMP JUMPDEST POP PUSH1 0x20 DUP3 ADD MLOAD PUSH2 0x43FD PUSH1 0x20 DUP6 ADD DUP3 PUSH2 0x4068 JUMP JUMPDEST POP PUSH1 0x40 DUP3 ADD MLOAD PUSH2 0x4410 PUSH1 0x40 DUP6 ADD DUP3 PUSH2 0x4068 JUMP JUMPDEST POP PUSH1 0x60 DUP3 ADD MLOAD PUSH2 0x4423 PUSH1 0x60 DUP6 ADD DUP3 PUSH2 0x4458 JUMP JUMPDEST POP POP POP POP JUMP JUMPDEST PUSH1 0x40 DUP3 ADD PUSH1 0x0 DUP3 ADD MLOAD PUSH2 0x443F PUSH1 0x0 DUP6 ADD DUP3 PUSH2 0x4068 JUMP JUMPDEST POP PUSH1 0x20 DUP3 ADD MLOAD PUSH2 0x4452 PUSH1 0x20 DUP6 ADD DUP3 PUSH2 0x4458 JUMP JUMPDEST POP POP POP POP JUMP JUMPDEST PUSH2 0x4461 DUP2 PUSH2 0x4AD2 JUMP JUMPDEST DUP3 MSTORE POP POP JUMP JUMPDEST PUSH2 0x4470 DUP2 PUSH2 0x4AD2 JUMP JUMPDEST DUP3 MSTORE POP POP JUMP JUMPDEST PUSH1 0x0 PUSH2 0x4481 DUP3 PUSH2 0x42BA JUMP JUMPDEST SWAP2 POP DUP2 SWAP1 POP SWAP2 SWAP1 POP JUMP JUMPDEST PUSH1 0x0 PUSH1 0x40 DUP3 ADD SWAP1 POP PUSH2 0x44A0 PUSH1 0x0 DUP4 ADD DUP6 PUSH2 0x4077 JUMP JUMPDEST PUSH2 0x44AD PUSH1 0x20 DUP4 ADD DUP5 PUSH2 0x4077 JUMP JUMPDEST SWAP4 SWAP3 POP POP POP JUMP JUMPDEST PUSH1 0x0 PUSH1 0xC0 DUP3 ADD SWAP1 POP PUSH2 0x44C9 PUSH1 0x0 DUP4 ADD DUP10 PUSH2 0x4077 JUMP JUMPDEST PUSH2 0x44D6 PUSH1 0x20 DUP4 ADD DUP9 PUSH2 0x4077 JUMP JUMPDEST PUSH2 0x44E3 PUSH1 0x40 DUP4 ADD DUP8 PUSH2 0x4077 JUMP JUMPDEST PUSH2 0x44F0 PUSH1 0x60 DUP4 ADD DUP7 PUSH2 0x4467 JUMP JUMPDEST PUSH2 0x44FD PUSH1 0x80 DUP4 ADD DUP6 PUSH2 0x4467 JUMP JUMPDEST PUSH2 0x450A PUSH1 0xA0 DUP4 ADD DUP5 PUSH2 0x4467 JUMP JUMPDEST SWAP8 SWAP7 POP POP POP POP POP POP POP JUMP JUMPDEST PUSH1 0x0 PUSH1 0xE0 DUP3 ADD SWAP1 POP PUSH2 0x452A PUSH1 0x0 DUP4 ADD DUP11 PUSH2 0x4077 JUMP JUMPDEST PUSH2 0x4537 PUSH1 0x20 DUP4 ADD DUP10 PUSH2 0x4077 JUMP JUMPDEST PUSH2 0x4544 PUSH1 0x40 DUP4 ADD DUP9 PUSH2 0x4077 JUMP JUMPDEST PUSH2 0x4551 PUSH1 0x60 DUP4 ADD DUP8 PUSH2 0x4467 JUMP JUMPDEST PUSH2 0x455E PUSH1 0x80 DUP4 ADD DUP7 PUSH2 0x4467 JUMP JUMPDEST PUSH2 0x456B PUSH1 0xA0 DUP4 ADD DUP6 PUSH2 0x4467 JUMP JUMPDEST PUSH2 0x4578 PUSH1 0xC0 DUP4 ADD DUP5 PUSH2 0x4467 JUMP JUMPDEST SWAP9 SWAP8 POP POP POP POP POP POP POP POP JUMP JUMPDEST PUSH1 0x0 PUSH1 0x60 DUP3 ADD SWAP1 POP PUSH2 0x4599 PUSH1 0x0 DUP4 ADD DUP7 PUSH2 0x4077 JUMP JUMPDEST PUSH2 0x45A6 PUSH1 0x20 DUP4 ADD DUP6 PUSH2 0x4077 JUMP JUMPDEST PUSH2 0x45B3 PUSH1 0x40 DUP4 ADD DUP5 PUSH2 0x4467 JUMP JUMPDEST SWAP5 SWAP4 POP POP POP POP JUMP JUMPDEST PUSH1 0x0 PUSH1 0x80 DUP3 ADD SWAP1 POP PUSH2 0x45D0 PUSH1 0x0 DUP4 ADD DUP8 PUSH2 0x4077 JUMP JUMPDEST PUSH2 0x45DD PUSH1 0x20 DUP4 ADD DUP7 PUSH2 0x4077 JUMP JUMPDEST PUSH2 0x45EA PUSH1 0x40 DUP4 ADD DUP6 PUSH2 0x4467 JUMP JUMPDEST PUSH2 0x45F7 PUSH1 0x60 DUP4 ADD DUP5 PUSH2 0x4467 JUMP JUMPDEST SWAP6 SWAP5 POP POP POP POP POP JUMP JUMPDEST PUSH1 0x0 PUSH1 0x40 DUP3 ADD SWAP1 POP PUSH2 0x4615 PUSH1 0x0 DUP4 ADD DUP6 PUSH2 0x4077 JUMP JUMPDEST PUSH2 0x4622 PUSH1 0x20 DUP4 ADD DUP5 PUSH2 0x4467 JUMP JUMPDEST SWAP4 SWAP3 POP POP POP JUMP JUMPDEST PUSH1 0x0 PUSH1 0x60 DUP3 ADD SWAP1 POP PUSH2 0x463E PUSH1 0x0 DUP4 ADD DUP7 PUSH2 0x4077 JUMP JUMPDEST PUSH2 0x464B PUSH1 0x20 DUP4 ADD DUP6 PUSH2 0x4467 JUMP JUMPDEST PUSH2 0x4658 PUSH1 0x40 DUP4 ADD DUP5 PUSH2 0x4077 JUMP JUMPDEST SWAP5 SWAP4 POP POP POP POP JUMP JUMPDEST PUSH1 0x0 PUSH1 0xA0 DUP3 ADD SWAP1 POP PUSH2 0x4675 PUSH1 0x0 DUP4 ADD DUP9 PUSH2 0x4077 JUMP JUMPDEST PUSH2 0x4682 PUSH1 0x20 DUP4 ADD DUP8 PUSH2 0x4467 JUMP JUMPDEST PUSH2 0x468F PUSH1 0x40 DUP4 ADD DUP7 PUSH2 0x4077 JUMP JUMPDEST PUSH2 0x469C PUSH1 0x60 DUP4 ADD DUP6 PUSH2 0x4467 JUMP JUMPDEST PUSH2 0x46A9 PUSH1 0x80 DUP4 ADD DUP5 PUSH2 0x4077 JUMP JUMPDEST SWAP7 SWAP6 POP POP POP POP POP POP JUMP JUMPDEST PUSH1 0x0 PUSH1 0x60 DUP3 ADD SWAP1 POP PUSH2 0x46C8 PUSH1 0x0 DUP4 ADD DUP7 PUSH2 0x4077 JUMP JUMPDEST PUSH2 0x46D5 PUSH1 0x20 DUP4 ADD DUP6 PUSH2 0x4467 JUMP JUMPDEST PUSH2 0x46E2 PUSH1 0x40 DUP4 ADD DUP5 PUSH2 0x4467 JUMP JUMPDEST SWAP5 SWAP4 POP POP POP POP JUMP JUMPDEST PUSH1 0x0 PUSH1 0x80 DUP3 ADD SWAP1 POP PUSH2 0x46FF PUSH1 0x0 DUP4 ADD DUP8 PUSH2 0x4077 JUMP JUMPDEST PUSH2 0x470C PUSH1 0x20 DUP4 ADD DUP7 PUSH2 0x4467 JUMP JUMPDEST PUSH2 0x4719 PUSH1 0x40 DUP4 ADD DUP6 PUSH2 0x4467 JUMP JUMPDEST PUSH2 0x4726 PUSH1 0x60 DUP4 ADD DUP5 PUSH2 0x4077 JUMP JUMPDEST SWAP6 SWAP5 POP POP POP POP POP JUMP JUMPDEST PUSH1 0x0 PUSH1 0x20 DUP3 ADD SWAP1 POP DUP2 DUP2 SUB PUSH1 0x0 DUP4 ADD MSTORE PUSH2 0x4749 DUP2 DUP5 PUSH2 0x4086 JUMP JUMPDEST SWAP1 POP SWAP3 SWAP2 POP POP JUMP JUMPDEST PUSH1 0x0 PUSH1 0x20 DUP3 ADD SWAP1 POP PUSH2 0x4766 PUSH1 0x0 DUP4 ADD DUP5 PUSH2 0x40E4 JUMP JUMPDEST SWAP3 SWAP2 POP POP JUMP JUMPDEST PUSH1 0x0 PUSH1 0x20 DUP3 ADD SWAP1 POP DUP2 DUP2 SUB PUSH1 0x0 DUP4 ADD MSTORE PUSH2 0x4785 DUP2 PUSH2 0x40F3 JUMP JUMPDEST SWAP1 POP SWAP2 SWAP1 POP JUMP JUMPDEST PUSH1 0x0 PUSH1 0x20 DUP3 ADD SWAP1 POP DUP2 DUP2 SUB PUSH1 0x0 DUP4 ADD MSTORE PUSH2 0x47A5 DUP2 PUSH2 0x4116 JUMP JUMPDEST SWAP1 POP SWAP2 SWAP1 POP JUMP JUMPDEST PUSH1 0x0 PUSH1 0x20 DUP3 ADD SWAP1 POP DUP2 DUP2 SUB PUSH1 0x0 DUP4 ADD MSTORE PUSH2 0x47C5 DUP2 PUSH2 0x4139 JUMP JUMPDEST SWAP1 POP SWAP2 SWAP1 POP JUMP JUMPDEST PUSH1 0x0 PUSH1 0x20 DUP3 ADD SWAP1 POP DUP2 DUP2 SUB PUSH1 0x0 DUP4 ADD MSTORE PUSH2 0x47E5 DUP2 PUSH2 0x415C JUMP JUMPDEST SWAP1 POP SWAP2 SWAP1 POP JUMP JUMPDEST PUSH1 0x0 PUSH1 0x20 DUP3 ADD SWAP1 POP DUP2 DUP2 SUB PUSH1 0x0 DUP4 ADD MSTORE PUSH2 0x4805 DUP2 PUSH2 0x417F JUMP JUMPDEST SWAP1 POP SWAP2 SWAP1 POP JUMP JUMPDEST PUSH1 0x0 PUSH1 0x20 DUP3 ADD SWAP1 POP DUP2 DUP2 SUB PUSH1 0x0 DUP4 ADD MSTORE PUSH2 0x4825 DUP2 PUSH2 0x41A2 JUMP JUMPDEST SWAP1 POP SWAP2 SWAP1 POP JUMP JUMPDEST PUSH1 0x0 PUSH1 0x20 DUP3 ADD SWAP1 POP DUP2 DUP2 SUB PUSH1 0x0 DUP4 ADD MSTORE PUSH2 0x4845 DUP2 PUSH2 0x41C5 JUMP JUMPDEST SWAP1 POP SWAP2 SWAP1 POP JUMP JUMPDEST PUSH1 0x0 PUSH1 0x20 DUP3 ADD SWAP1 POP DUP2 DUP2 SUB PUSH1 0x0 DUP4 ADD MSTORE PUSH2 0x4865 DUP2 PUSH2 0x41E8 JUMP JUMPDEST SWAP1 POP SWAP2 SWAP1 POP JUMP JUMPDEST PUSH1 0x0 PUSH1 0x20 DUP3 ADD SWAP1 POP DUP2 DUP2 SUB PUSH1 0x0 DUP4 ADD MSTORE PUSH2 0x4885 DUP2 PUSH2 0x420B JUMP JUMPDEST SWAP1 POP SWAP2 SWAP1 POP JUMP JUMPDEST PUSH1 0x0 PUSH1 0x20 DUP3 ADD SWAP1 POP DUP2 DUP2 SUB PUSH1 0x0 DUP4 ADD MSTORE PUSH2 0x48A5 DUP2 PUSH2 0x422E JUMP JUMPDEST SWAP1 POP SWAP2 SWAP1 POP JUMP JUMPDEST PUSH1 0x0 PUSH1 0x20 DUP3 ADD SWAP1 POP DUP2 DUP2 SUB PUSH1 0x0 DUP4 ADD MSTORE PUSH2 0x48C5 DUP2 PUSH2 0x4251 JUMP JUMPDEST SWAP1 POP SWAP2 SWAP1 POP JUMP JUMPDEST PUSH1 0x0 PUSH1 0x20 DUP3 ADD SWAP1 POP DUP2 DUP2 SUB PUSH1 0x0 DUP4 ADD MSTORE PUSH2 0x48E5 DUP2 PUSH2 0x4274 JUMP JUMPDEST SWAP1 POP SWAP2 SWAP1 POP JUMP JUMPDEST PUSH1 0x0 PUSH1 0x20 DUP3 ADD SWAP1 POP DUP2 DUP2 SUB PUSH1 0x0 DUP4 ADD MSTORE PUSH2 0x4905 DUP2 PUSH2 0x4297 JUMP JUMPDEST SWAP1 POP SWAP2 SWAP1 POP JUMP JUMPDEST PUSH1 0x0 PUSH1 0x20 DUP3 ADD SWAP1 POP DUP2 DUP2 SUB PUSH1 0x0 DUP4 ADD MSTORE PUSH2 0x4925 DUP2 PUSH2 0x42DD JUMP JUMPDEST SWAP1 POP SWAP2 SWAP1 POP JUMP JUMPDEST PUSH1 0x0 PUSH1 0x20 DUP3 ADD SWAP1 POP DUP2 DUP2 SUB PUSH1 0x0 DUP4 ADD MSTORE PUSH2 0x4945 DUP2 PUSH2 0x4300 JUMP JUMPDEST SWAP1 POP SWAP2 SWAP1 POP JUMP JUMPDEST PUSH1 0x0 PUSH1 0x20 DUP3 ADD SWAP1 POP DUP2 DUP2 SUB PUSH1 0x0 DUP4 ADD MSTORE PUSH2 0x4965 DUP2 PUSH2 0x4323 JUMP JUMPDEST SWAP1 POP SWAP2 SWAP1 POP JUMP JUMPDEST PUSH1 0x0 PUSH1 0xE0 DUP3 ADD SWAP1 POP PUSH2 0x4981 PUSH1 0x0 DUP4 ADD DUP5 PUSH2 0x4346 JUMP JUMPDEST SWAP3 SWAP2 POP POP JUMP JUMPDEST PUSH1 0x0 PUSH1 0x80 DUP3 ADD SWAP1 POP PUSH2 0x499C PUSH1 0x0 DUP4 ADD DUP5 PUSH2 0x43D4 JUMP JUMPDEST SWAP3 SWAP2 POP POP JUMP JUMPDEST PUSH1 0x0 PUSH1 0x20 DUP3 ADD SWAP1 POP PUSH2 0x49B7 PUSH1 0x0 DUP4 ADD DUP5 PUSH2 0x4467 JUMP JUMPDEST SWAP3 SWAP2 POP POP JUMP JUMPDEST PUSH1 0x0 DUP2 SWAP1 POP PUSH1 0x20 DUP3 ADD SWAP1 POP SWAP2 SWAP1 POP JUMP JUMPDEST PUSH1 0x0 DUP2 MLOAD SWAP1 POP SWAP2 SWAP1 POP JUMP JUMPDEST PUSH1 0x0 PUSH1 0x20 DUP3 ADD SWAP1 POP SWAP2 SWAP1 POP JUMP JUMPDEST PUSH1 0x0 DUP3 DUP3 MSTORE PUSH1 0x20 DUP3 ADD SWAP1 POP SWAP3 SWAP2 POP POP JUMP JUMPDEST PUSH1 0x0 DUP2 SWAP1 POP SWAP3 SWAP2 POP POP JUMP JUMPDEST PUSH1 0x0 DUP3 DUP3 MSTORE PUSH1 0x20 DUP3 ADD SWAP1 POP SWAP3 SWAP2 POP POP JUMP JUMPDEST PUSH1 0x0 PUSH2 0x4A1D DUP3 PUSH2 0x4AD2 JUMP JUMPDEST SWAP2 POP PUSH2 0x4A28 DUP4 PUSH2 0x4AD2 JUMP JUMPDEST SWAP3 POP DUP3 PUSH32 0xFFFFFFFFFFFFFFFFFFFFFFFFFFFFFFFFFFFFFFFFFFFFFFFFFFFFFFFFFFFFFFFF SUB DUP3 GT ISZERO PUSH2 0x4A5D JUMPI PUSH2 0x4A5C PUSH2 0x4ADC JUMP JUMPDEST JUMPDEST DUP3 DUP3 ADD SWAP1 POP SWAP3 SWAP2 POP POP JUMP JUMPDEST PUSH1 0x0 PUSH2 0x4A73 DUP3 PUSH2 0x4AB2 JUMP JUMPDEST SWAP1 POP SWAP2 SWAP1 POP JUMP JUMPDEST PUSH1 0x0 DUP2 ISZERO ISZERO SWAP1 POP SWAP2 SWAP1 POP JUMP JUMPDEST PUSH1 0x0 PUSH32 0xFFFFFFFF00000000000000000000000000000000000000000000000000000000 DUP3 AND SWAP1 POP SWAP2 SWAP1 POP JUMP JUMPDEST PUSH1 0x0 PUSH20 0xFFFFFFFFFFFFFFFFFFFFFFFFFFFFFFFFFFFFFFFF DUP3 AND SWAP1 POP SWAP2 SWAP1 POP JUMP JUMPDEST PUSH1 0x0 DUP2 SWAP1 POP SWAP2 SWAP1 POP JUMP JUMPDEST PUSH32 0x4E487B7100000000000000000000000000000000000000000000000000000000 PUSH1 0x0 MSTORE PUSH1 0x11 PUSH1 0x4 MSTORE PUSH1 0x24 PUSH1 0x0 REVERT JUMPDEST PUSH32 0x596F752061726520686967686573742062696464657200000000000000000000 PUSH1 0x0 DUP3 ADD MSTORE POP JUMP JUMPDEST PUSH32 0x4E6674206E6F7420617070726F76656420746F20636F6E747261637400000000 PUSH1 0x0 DUP3 ADD MSTORE POP JUMP JUMPDEST PUSH32 0x50726963652063616E6E6F742062652030000000000000000000000000000000 PUSH1 0x0 DUP3 ADD MSTORE POP JUMP JUMPDEST PUSH32 0x6E6F74206E6674206F776E657200000000000000000000000000000000000000 PUSH1 0x0 DUP3 ADD MSTORE POP JUMP JUMPDEST PUSH32 0x4E6674206E6F7420696E2066697865642073616C650000000000000000000000 PUSH1 0x0 DUP3 ADD MSTORE POP JUMP JUMPDEST PUSH32 0x4E6674206E6F7420696E2061756374696F6E2073616C65000000000000000000 PUSH1 0x0 DUP3 ADD MSTORE POP JUMP JUMPDEST PUSH32 0x4269642047726561746572207468616E2050726576696F757320426964000000 PUSH1 0x0 DUP3 ADD MSTORE POP JUMP JUMPDEST PUSH32 0x41756374696F6E20656E64000000000000000000000000000000000000000000 PUSH1 0x0 DUP3 ADD MSTORE POP JUMP JUMPDEST PUSH32 0x4E667420616C726561647920696E2073616C6500000000000000000000000000 PUSH1 0x0 DUP3 ADD MSTORE POP JUMP JUMPDEST PUSH32 0x626964206D616B65000000000000000000000000000000000000000000000000 PUSH1 0x0 DUP3 ADD MSTORE POP JUMP JUMPDEST PUSH32 0x616C6C6F77616E6365206E6F7420656E6F756768000000000000000000000000 PUSH1 0x0 DUP3 ADD MSTORE POP JUMP JUMPDEST PUSH32 0x41756374696F6E206E6F7420656E640000000000000000000000000000000000 PUSH1 0x0 DUP3 ADD MSTORE POP JUMP JUMPDEST PUSH32 0x596F7520617265206E6F74206E6674206F776E65720000000000000000000000 PUSH1 0x0 DUP3 ADD MSTORE POP JUMP JUMPDEST POP JUMP JUMPDEST PUSH32 0x6E6F7468696E6720746F20776974686472617700000000000000000000000000 PUSH1 0x0 DUP3 ADD MSTORE POP JUMP JUMPDEST PUSH32 0x627579205072696365206E6F7420656E6F756768000000000000000000000000 PUSH1 0x0 DUP3 ADD MSTORE POP JUMP JUMPDEST PUSH32 0x726566756E64206661696C656400000000000000000000000000000000000000 PUSH1 0x0 DUP3 ADD MSTORE POP JUMP JUMPDEST PUSH2 0x4DA7 DUP2 PUSH2 0x4A68 JUMP JUMPDEST DUP2 EQ PUSH2 0x4DB2 JUMPI PUSH1 0x0 DUP1 REVERT JUMPDEST POP JUMP JUMPDEST PUSH2 0x4DBE DUP2 PUSH2 0x4A7A JUMP JUMPDEST DUP2 EQ PUSH2 0x4DC9 JUMPI PUSH1 0x0 DUP1 REVERT JUMPDEST POP JUMP JUMPDEST PUSH2 0x4DD5 DUP2 PUSH2 0x4AD2 JUMP JUMPDEST DUP2 EQ PUSH2 0x4DE0 JUMPI PUSH1 0x0 DUP1 REVERT JUMPDEST POP JUMP INVALID LOG2 PUSH5 0x6970667358 0x22 SLT KECCAK256 EXTCODEHASH SWAP6 0xCC 0xE1 PUSH5 0xE191963C28 PUSH29 0xF4C87A53B2044D0CD8389CE9ACD4BB3F2DBEE47C4364736F6C63430008 DIV STOP CALLER "
				},
				"gasEstimates": {
					"creation": {
						"codeDepositCost": "3998600",
						"executionCost": "4563",
						"totalCost": "4003163"
					},
					"external": {
						"_cancelAuctionSale(address,uint256)": "infinite",
						"buyFromFixedSale(address,uint256,uint256)": "infinite",
						"cancelFixedsale(address,uint256)": "infinite",
						"createNftAuctionSale(address,address,uint256,uint256,uint256,uint256)": "infinite",
						"getFixedSale(address,uint256)": "infinite",
						"getFixedSaleNFT()": "infinite",
						"getNftAuctionSaleDetails(address,uint256)": "infinite",
						"makeBid(address,uint256,uint256)": "infinite",
						"nftFixedSale(address,address,uint256,uint256)": "infinite",
						"nftSaleStatus(address,uint256)": "infinite",
						"onERC721Received(address,address,uint256,bytes)": "infinite",
						"settleAuction(address,uint256)": "infinite",
						"updateFixedSalePrice(address,uint256,uint256)": "infinite",
						"updateTheBidPrice(address,uint256,uint256)": "infinite",
						"userBidPriceOnNFT(address,uint256,address)": "infinite",
						"withdrawBid(address,uint256)": "infinite"
					},
					"internal": {
						"_bidAmountTransfer(uint256,address)": "infinite",
						"_isTokenOrCoin(address,address,uint256)": "infinite",
						"_nativeAmountTransfer(address,uint256)": "infinite",
						"_storedNftAuctionDetails(address,address,uint256,uint256,uint256,uint256)": "infinite",
						"_tokenAmountTransfer(address,address,uint256)": "infinite",
						"_transferNftAndPaySeller(address,uint256,uint256,address)": "infinite"
					}
				},
				"methodIdentifiers": {
					"_cancelAuctionSale(address,uint256)": "842bc46a",
					"buyFromFixedSale(address,uint256,uint256)": "baf4371e",
					"cancelFixedsale(address,uint256)": "d3a6a6c9",
					"createNftAuctionSale(address,address,uint256,uint256,uint256,uint256)": "cf42b7e6",
					"getFixedSale(address,uint256)": "8c3417da",
					"getFixedSaleNFT()": "9f085a00",
					"getNftAuctionSaleDetails(address,uint256)": "6f8c9b1b",
					"makeBid(address,uint256,uint256)": "1bdae6f1",
					"nftFixedSale(address,address,uint256,uint256)": "69a6d12e",
					"nftSaleStatus(address,uint256)": "6916462f",
					"onERC721Received(address,address,uint256,bytes)": "150b7a02",
					"settleAuction(address,uint256)": "5138b08c",
					"updateFixedSalePrice(address,uint256,uint256)": "4676adca",
					"updateTheBidPrice(address,uint256,uint256)": "3a713db8",
					"userBidPriceOnNFT(address,uint256,address)": "6fe02f24",
					"withdrawBid(address,uint256)": "4cb8ef5b"
				}
			},
			"storageLayout": {
				"storage": [
					{
						"astId": 581,
						"contract": "NFT-Contracts/contracts/market_pri/NewMarket.sol:NFTMarketplace",
						"label": "nftContractFixedSale",
						"offset": 0,
						"slot": "0",
						"type": "t_mapping(t_address,t_mapping(t_uint256,t_struct(FixedSale)569_storage))"
					},
					{
						"astId": 588,
						"contract": "NFT-Contracts/contracts/market_pri/NewMarket.sol:NFTMarketplace",
						"label": "nftContractAuctionSale",
						"offset": 0,
						"slot": "1",
						"type": "t_mapping(t_address,t_mapping(t_uint256,t_struct(Auction)560_storage))"
					},
					{
						"astId": 594,
						"contract": "NFT-Contracts/contracts/market_pri/NewMarket.sol:NFTMarketplace",
						"label": "nftSaleStatus",
						"offset": 0,
						"slot": "2",
						"type": "t_mapping(t_address,t_mapping(t_uint256,t_uint256))"
					},
					{
						"astId": 602,
						"contract": "NFT-Contracts/contracts/market_pri/NewMarket.sol:NFTMarketplace",
						"label": "userBidPriceOnNFT",
						"offset": 0,
						"slot": "3",
						"type": "t_mapping(t_address,t_mapping(t_uint256,t_mapping(t_address,t_uint256)))"
					},
					{
						"astId": 608,
						"contract": "NFT-Contracts/contracts/market_pri/NewMarket.sol:NFTMarketplace",
						"label": "indexFixedSaleNFT",
						"offset": 0,
						"slot": "4",
						"type": "t_mapping(t_address,t_mapping(t_uint256,t_uint256))"
					},
					{
						"astId": 612,
						"contract": "NFT-Contracts/contracts/market_pri/NewMarket.sol:NFTMarketplace",
						"label": "fixedSaleNFT",
						"offset": 0,
						"slot": "5",
						"type": "t_array(t_struct(SaleInfo)574_storage)dyn_storage"
					}
				],
				"types": {
					"t_address": {
						"encoding": "inplace",
						"label": "address",
						"numberOfBytes": "20"
					},
					"t_array(t_struct(SaleInfo)574_storage)dyn_storage": {
						"base": "t_struct(SaleInfo)574_storage",
						"encoding": "dynamic_array",
						"label": "struct NFTMarketplace.SaleInfo[]",
						"numberOfBytes": "32"
					},
					"t_mapping(t_address,t_mapping(t_uint256,t_mapping(t_address,t_uint256)))": {
						"encoding": "mapping",
						"key": "t_address",
						"label": "mapping(address => mapping(uint256 => mapping(address => uint256)))",
						"numberOfBytes": "32",
						"value": "t_mapping(t_uint256,t_mapping(t_address,t_uint256))"
					},
					"t_mapping(t_address,t_mapping(t_uint256,t_struct(Auction)560_storage))": {
						"encoding": "mapping",
						"key": "t_address",
						"label": "mapping(address => mapping(uint256 => struct NFTMarketplace.Auction))",
						"numberOfBytes": "32",
						"value": "t_mapping(t_uint256,t_struct(Auction)560_storage)"
					},
					"t_mapping(t_address,t_mapping(t_uint256,t_struct(FixedSale)569_storage))": {
						"encoding": "mapping",
						"key": "t_address",
						"label": "mapping(address => mapping(uint256 => struct NFTMarketplace.FixedSale))",
						"numberOfBytes": "32",
						"value": "t_mapping(t_uint256,t_struct(FixedSale)569_storage)"
					},
					"t_mapping(t_address,t_mapping(t_uint256,t_uint256))": {
						"encoding": "mapping",
						"key": "t_address",
						"label": "mapping(address => mapping(uint256 => uint256))",
						"numberOfBytes": "32",
						"value": "t_mapping(t_uint256,t_uint256)"
					},
					"t_mapping(t_address,t_uint256)": {
						"encoding": "mapping",
						"key": "t_address",
						"label": "mapping(address => uint256)",
						"numberOfBytes": "32",
						"value": "t_uint256"
					},
					"t_mapping(t_uint256,t_mapping(t_address,t_uint256))": {
						"encoding": "mapping",
						"key": "t_uint256",
						"label": "mapping(uint256 => mapping(address => uint256))",
						"numberOfBytes": "32",
						"value": "t_mapping(t_address,t_uint256)"
					},
					"t_mapping(t_uint256,t_struct(Auction)560_storage)": {
						"encoding": "mapping",
						"key": "t_uint256",
						"label": "mapping(uint256 => struct NFTMarketplace.Auction)",
						"numberOfBytes": "32",
						"value": "t_struct(Auction)560_storage"
					},
					"t_mapping(t_uint256,t_struct(FixedSale)569_storage)": {
						"encoding": "mapping",
						"key": "t_uint256",
						"label": "mapping(uint256 => struct NFTMarketplace.FixedSale)",
						"numberOfBytes": "32",
						"value": "t_struct(FixedSale)569_storage"
					},
					"t_mapping(t_uint256,t_uint256)": {
						"encoding": "mapping",
						"key": "t_uint256",
						"label": "mapping(uint256 => uint256)",
						"numberOfBytes": "32",
						"value": "t_uint256"
					},
					"t_struct(Auction)560_storage": {
						"encoding": "inplace",
						"label": "struct NFTMarketplace.Auction",
						"members": [
							{
								"astId": 547,
								"contract": "NFT-Contracts/contracts/market_pri/NewMarket.sol:NFTMarketplace",
								"label": "auctionStart",
								"offset": 0,
								"slot": "0",
								"type": "t_uint256"
							},
							{
								"astId": 549,
								"contract": "NFT-Contracts/contracts/market_pri/NewMarket.sol:NFTMarketplace",
								"label": "auctionEnd",
								"offset": 0,
								"slot": "1",
								"type": "t_uint256"
							},
							{
								"astId": 551,
								"contract": "NFT-Contracts/contracts/market_pri/NewMarket.sol:NFTMarketplace",
								"label": "minPrice",
								"offset": 0,
								"slot": "2",
								"type": "t_uint256"
							},
							{
								"astId": 553,
								"contract": "NFT-Contracts/contracts/market_pri/NewMarket.sol:NFTMarketplace",
								"label": "nftHighestBid",
								"offset": 0,
								"slot": "3",
								"type": "t_uint256"
							},
							{
								"astId": 555,
								"contract": "NFT-Contracts/contracts/market_pri/NewMarket.sol:NFTMarketplace",
								"label": "nftHighestBidder",
								"offset": 0,
								"slot": "4",
								"type": "t_address"
							},
							{
								"astId": 557,
								"contract": "NFT-Contracts/contracts/market_pri/NewMarket.sol:NFTMarketplace",
								"label": "nftSeller",
								"offset": 0,
								"slot": "5",
								"type": "t_address"
							},
							{
								"astId": 559,
								"contract": "NFT-Contracts/contracts/market_pri/NewMarket.sol:NFTMarketplace",
								"label": "erc20",
								"offset": 0,
								"slot": "6",
								"type": "t_address"
							}
						],
						"numberOfBytes": "224"
					},
					"t_struct(FixedSale)569_storage": {
						"encoding": "inplace",
						"label": "struct NFTMarketplace.FixedSale",
						"members": [
							{
								"astId": 562,
								"contract": "NFT-Contracts/contracts/market_pri/NewMarket.sol:NFTMarketplace",
								"label": "nftSeller",
								"offset": 0,
								"slot": "0",
								"type": "t_address"
							},
							{
								"astId": 564,
								"contract": "NFT-Contracts/contracts/market_pri/NewMarket.sol:NFTMarketplace",
								"label": "nftBuyer",
								"offset": 0,
								"slot": "1",
								"type": "t_address"
							},
							{
								"astId": 566,
								"contract": "NFT-Contracts/contracts/market_pri/NewMarket.sol:NFTMarketplace",
								"label": "erc20",
								"offset": 0,
								"slot": "2",
								"type": "t_address"
							},
							{
								"astId": 568,
								"contract": "NFT-Contracts/contracts/market_pri/NewMarket.sol:NFTMarketplace",
								"label": "salePrice",
								"offset": 0,
								"slot": "3",
								"type": "t_uint256"
							}
						],
						"numberOfBytes": "128"
					},
					"t_struct(SaleInfo)574_storage": {
						"encoding": "inplace",
						"label": "struct NFTMarketplace.SaleInfo",
						"members": [
							{
								"astId": 571,
								"contract": "NFT-Contracts/contracts/market_pri/NewMarket.sol:NFTMarketplace",
								"label": "_nftContractAddress",
								"offset": 0,
								"slot": "0",
								"type": "t_address"
							},
							{
								"astId": 573,
								"contract": "NFT-Contracts/contracts/market_pri/NewMarket.sol:NFTMarketplace",
								"label": "_tokenID",
								"offset": 0,
								"slot": "1",
								"type": "t_uint256"
							}
						],
						"numberOfBytes": "64"
					},
					"t_uint256": {
						"encoding": "inplace",
						"label": "uint256",
						"numberOfBytes": "32"
					}
				}
			},
			"userdoc": {
				"kind": "user",
				"methods": {},
				"version": 1
			}
		}
	}
}