{
	"Arevea-NFT-Market/NFT-Contracts/newmultinft/ERC1155.sol": {
		"ERC1155": {
			"abi": [
				{
					"inputs": [
						{
							"internalType": "string",
							"name": "uri_",
							"type": "string"
						}
					],
					"stateMutability": "nonpayable",
					"type": "constructor"
				},
				{
					"anonymous": false,
					"inputs": [
						{
							"indexed": true,
							"internalType": "address",
							"name": "account",
							"type": "address"
						},
						{
							"indexed": true,
							"internalType": "address",
							"name": "operator",
							"type": "address"
						},
						{
							"indexed": false,
							"internalType": "bool",
							"name": "approved",
							"type": "bool"
						}
					],
					"name": "ApprovalForAll",
					"type": "event"
				},
				{
					"anonymous": false,
					"inputs": [
						{
							"indexed": true,
							"internalType": "address",
							"name": "operator",
							"type": "address"
						},
						{
							"indexed": true,
							"internalType": "address",
							"name": "from",
							"type": "address"
						},
						{
							"indexed": true,
							"internalType": "address",
							"name": "to",
							"type": "address"
						},
						{
							"indexed": false,
							"internalType": "uint256[]",
							"name": "ids",
							"type": "uint256[]"
						},
						{
							"indexed": false,
							"internalType": "uint256[]",
							"name": "values",
							"type": "uint256[]"
						}
					],
					"name": "TransferBatch",
					"type": "event"
				},
				{
					"anonymous": false,
					"inputs": [
						{
							"indexed": true,
							"internalType": "address",
							"name": "operator",
							"type": "address"
						},
						{
							"indexed": true,
							"internalType": "address",
							"name": "from",
							"type": "address"
						},
						{
							"indexed": true,
							"internalType": "address",
							"name": "to",
							"type": "address"
						},
						{
							"indexed": false,
							"internalType": "uint256",
							"name": "id",
							"type": "uint256"
						},
						{
							"indexed": false,
							"internalType": "uint256",
							"name": "value",
							"type": "uint256"
						}
					],
					"name": "TransferSingle",
					"type": "event"
				},
				{
					"anonymous": false,
					"inputs": [
						{
							"indexed": false,
							"internalType": "string",
							"name": "value",
							"type": "string"
						},
						{
							"indexed": true,
							"internalType": "uint256",
							"name": "id",
							"type": "uint256"
						}
					],
					"name": "URI",
					"type": "event"
				},
				{
					"inputs": [
						{
							"internalType": "address",
							"name": "account",
							"type": "address"
						},
						{
							"internalType": "uint256",
							"name": "id",
							"type": "uint256"
						}
					],
					"name": "balanceOf",
					"outputs": [
						{
							"internalType": "uint256",
							"name": "",
							"type": "uint256"
						}
					],
					"stateMutability": "view",
					"type": "function"
				},
				{
					"inputs": [
						{
							"internalType": "address[]",
							"name": "accounts",
							"type": "address[]"
						},
						{
							"internalType": "uint256[]",
							"name": "ids",
							"type": "uint256[]"
						}
					],
					"name": "balanceOfBatch",
					"outputs": [
						{
							"internalType": "uint256[]",
							"name": "",
							"type": "uint256[]"
						}
					],
					"stateMutability": "view",
					"type": "function"
				},
				{
					"inputs": [
						{
							"internalType": "address",
							"name": "account",
							"type": "address"
						},
						{
							"internalType": "address",
							"name": "operator",
							"type": "address"
						}
					],
					"name": "isApprovedForAll",
					"outputs": [
						{
							"internalType": "bool",
							"name": "",
							"type": "bool"
						}
					],
					"stateMutability": "view",
					"type": "function"
				},
				{
					"inputs": [
						{
							"internalType": "address",
							"name": "from",
							"type": "address"
						},
						{
							"internalType": "address",
							"name": "to",
							"type": "address"
						},
						{
							"internalType": "uint256[]",
							"name": "ids",
							"type": "uint256[]"
						},
						{
							"internalType": "uint256[]",
							"name": "amounts",
							"type": "uint256[]"
						},
						{
							"internalType": "bytes",
							"name": "data",
							"type": "bytes"
						}
					],
					"name": "safeBatchTransferFrom",
					"outputs": [],
					"stateMutability": "nonpayable",
					"type": "function"
				},
				{
					"inputs": [
						{
							"internalType": "address",
							"name": "from",
							"type": "address"
						},
						{
							"internalType": "address",
							"name": "to",
							"type": "address"
						},
						{
							"internalType": "uint256",
							"name": "id",
							"type": "uint256"
						},
						{
							"internalType": "uint256",
							"name": "amount",
							"type": "uint256"
						},
						{
							"internalType": "bytes",
							"name": "data",
							"type": "bytes"
						}
					],
					"name": "safeTransferFrom",
					"outputs": [],
					"stateMutability": "nonpayable",
					"type": "function"
				},
				{
					"inputs": [
						{
							"internalType": "address",
							"name": "operator",
							"type": "address"
						},
						{
							"internalType": "bool",
							"name": "approved",
							"type": "bool"
						}
					],
					"name": "setApprovalForAll",
					"outputs": [],
					"stateMutability": "nonpayable",
					"type": "function"
				},
				{
					"inputs": [
						{
							"internalType": "bytes4",
							"name": "interfaceId",
							"type": "bytes4"
						}
					],
					"name": "supportsInterface",
					"outputs": [
						{
							"internalType": "bool",
							"name": "",
							"type": "bool"
						}
					],
					"stateMutability": "view",
					"type": "function"
				},
				{
					"inputs": [
						{
							"internalType": "uint256",
							"name": "id",
							"type": "uint256"
						}
					],
					"name": "totalSupply",
					"outputs": [
						{
							"internalType": "uint256",
							"name": "",
							"type": "uint256"
						}
					],
					"stateMutability": "view",
					"type": "function"
				},
				{
					"inputs": [
						{
							"internalType": "uint256",
							"name": "",
							"type": "uint256"
						}
					],
					"name": "uri",
					"outputs": [
						{
							"internalType": "string",
							"name": "",
							"type": "string"
						}
					],
					"stateMutability": "view",
					"type": "function"
				}
			],
			"devdoc": {
				"details": "Implementation of the basic standard multi-token. See https://eips.ethereum.org/EIPS/eip-1155 Originally based on code by Enjin: https://github.com/enjin/erc-1155 _Available since v3.1._",
				"kind": "dev",
				"methods": {
					"balanceOf(address,uint256)": {
						"details": "See {IERC1155-balanceOf}. Requirements: - `account` cannot be the zero address."
					},
					"balanceOfBatch(address[],uint256[])": {
						"details": "See {IERC1155-balanceOfBatch}. Requirements: - `accounts` and `ids` must have the same length."
					},
					"constructor": {
						"details": "See {_setURI}."
					},
					"isApprovedForAll(address,address)": {
						"details": "See {IERC1155-isApprovedForAll}."
					},
					"safeBatchTransferFrom(address,address,uint256[],uint256[],bytes)": {
						"details": "See {IERC1155-safeBatchTransferFrom}."
					},
					"safeTransferFrom(address,address,uint256,uint256,bytes)": {
						"details": "See {IERC1155-safeTransferFrom}."
					},
					"setApprovalForAll(address,bool)": {
						"details": "See {IERC1155-setApprovalForAll}."
					},
					"supportsInterface(bytes4)": {
						"details": "See {IERC165-supportsInterface}."
					},
					"uri(uint256)": {
						"details": "See {IERC1155MetadataURI-uri}. This implementation returns the same URI for *all* token types. It relies on the token type ID substitution mechanism https://eips.ethereum.org/EIPS/eip-1155#metadata[defined in the EIP]. Clients calling this function must replace the `\\{id\\}` substring with the actual token type ID."
					}
				},
				"stateVariables": {
					"creators": {
						"details": "Creates `amount` tokens of token type `id`, and assigns them to `to`. Emits a {TransferSingle} event. Requirements: - `to` cannot be the zero address. - If `to` refers to a smart contract, it must implement {IERC1155Receiver-onERC1155Received} and return the acceptance magic value."
					}
				},
				"version": 1
			},
			"evm": {
				"assembly": "    /* \"Arevea-NFT-Market/NFT-Contracts/newmultinft/ERC1155.sol\":565:18301  contract ERC1155 is Context, ERC165, IERC1155, IERC1155MetadataURI {... */\n  mstore(0x40, 0x80)\n    /* \"Arevea-NFT-Market/NFT-Contracts/newmultinft/ERC1155.sol\":1117:1181  constructor(string memory uri_) {... */\n  callvalue\n  dup1\n  iszero\n  tag_1\n  jumpi\n  0x00\n  dup1\n  revert\ntag_1:\n  pop\n  mload(0x40)\n  sub(codesize, bytecodeSize)\n  dup1\n  bytecodeSize\n  dup4\n  codecopy\n  dup2\n  dup2\n  add\n  0x40\n  mstore\n  dup2\n  add\n  swap1\n  tag_2\n  swap2\n  swap1\n  tag_3\n  jump\t// in\ntag_2:\n    /* \"Arevea-NFT-Market/NFT-Contracts/newmultinft/ERC1155.sol\":1160:1173  _setURI(uri_) */\n  tag_6\n    /* \"Arevea-NFT-Market/NFT-Contracts/newmultinft/ERC1155.sol\":1168:1172  uri_ */\n  dup2\n    /* \"Arevea-NFT-Market/NFT-Contracts/newmultinft/ERC1155.sol\":1160:1167  _setURI */\n  shl(0x20, tag_7)\n    /* \"Arevea-NFT-Market/NFT-Contracts/newmultinft/ERC1155.sol\":1160:1173  _setURI(uri_) */\n  0x20\n  shr\n  jump\t// in\ntag_6:\n    /* \"Arevea-NFT-Market/NFT-Contracts/newmultinft/ERC1155.sol\":1117:1181  constructor(string memory uri_) {... */\n  pop\n    /* \"Arevea-NFT-Market/NFT-Contracts/newmultinft/ERC1155.sol\":565:18301  contract ERC1155 is Context, ERC165, IERC1155, IERC1155MetadataURI {... */\n  jump(tag_8)\n    /* \"Arevea-NFT-Market/NFT-Contracts/newmultinft/ERC1155.sol\":8403:8491  function _setURI(string memory newuri) internal virtual {... */\ntag_7:\n    /* \"Arevea-NFT-Market/NFT-Contracts/newmultinft/ERC1155.sol\":8477:8483  newuri */\n  dup1\n    /* \"Arevea-NFT-Market/NFT-Contracts/newmultinft/ERC1155.sol\":8470:8474  _uri */\n  0x02\n    /* \"Arevea-NFT-Market/NFT-Contracts/newmultinft/ERC1155.sol\":8470:8483  _uri = newuri */\n  swap1\n  dup2\n  tag_10\n  swap2\n  swap1\n  tag_11\n  jump\t// in\ntag_10:\n  pop\n    /* \"Arevea-NFT-Market/NFT-Contracts/newmultinft/ERC1155.sol\":8403:8491  function _setURI(string memory newuri) internal virtual {... */\n  pop\n  jump\t// out\n    /* \"#utility.yul\":7:82   */\ntag_12:\n    /* \"#utility.yul\":40:46   */\n  0x00\n    /* \"#utility.yul\":73:75   */\n  0x40\n    /* \"#utility.yul\":67:76   */\n  mload\n    /* \"#utility.yul\":57:76   */\n  swap1\n  pop\n    /* \"#utility.yul\":7:82   */\n  swap1\n  jump\t// out\n    /* \"#utility.yul\":88:205   */\ntag_13:\n    /* \"#utility.yul\":197:198   */\n  0x00\n    /* \"#utility.yul\":194:195   */\n  dup1\n    /* \"#utility.yul\":187:199   */\n  revert\n    /* \"#utility.yul\":211:328   */\ntag_14:\n    /* \"#utility.yul\":320:321   */\n  0x00\n    /* \"#utility.yul\":317:318   */\n  dup1\n    /* \"#utility.yul\":310:322   */\n  revert\n    /* \"#utility.yul\":334:451   */\ntag_15:\n    /* \"#utility.yul\":443:444   */\n  0x00\n    /* \"#utility.yul\":440:441   */\n  dup1\n    /* \"#utility.yul\":433:445   */\n  revert\n    /* \"#utility.yul\":457:574   */\ntag_16:\n    /* \"#utility.yul\":566:567   */\n  0x00\n    /* \"#utility.yul\":563:564   */\n  dup1\n    /* \"#utility.yul\":556:568   */\n  revert\n    /* \"#utility.yul\":580:682   */\ntag_17:\n    /* \"#utility.yul\":621:627   */\n  0x00\n    /* \"#utility.yul\":672:674   */\n  0x1f\n    /* \"#utility.yul\":668:675   */\n  not\n    /* \"#utility.yul\":663:665   */\n  0x1f\n    /* \"#utility.yul\":656:661   */\n  dup4\n    /* \"#utility.yul\":652:666   */\n  add\n    /* \"#utility.yul\":648:676   */\n  and\n    /* \"#utility.yul\":638:676   */\n  swap1\n  pop\n    /* \"#utility.yul\":580:682   */\n  swap2\n  swap1\n  pop\n  jump\t// out\n    /* \"#utility.yul\":688:868   */\ntag_18:\n    /* \"#utility.yul\":736:813   */\n  0x4e487b7100000000000000000000000000000000000000000000000000000000\n    /* \"#utility.yul\":733:734   */\n  0x00\n    /* \"#utility.yul\":726:814   */\n  mstore\n    /* \"#utility.yul\":833:837   */\n  0x41\n    /* \"#utility.yul\":830:831   */\n  0x04\n    /* \"#utility.yul\":823:838   */\n  mstore\n    /* \"#utility.yul\":857:861   */\n  0x24\n    /* \"#utility.yul\":854:855   */\n  0x00\n    /* \"#utility.yul\":847:862   */\n  revert\n    /* \"#utility.yul\":874:1155   */\ntag_19:\n    /* \"#utility.yul\":957:984   */\n  tag_53\n    /* \"#utility.yul\":979:983   */\n  dup3\n    /* \"#utility.yul\":957:984   */\n  tag_17\n  jump\t// in\ntag_53:\n    /* \"#utility.yul\":949:955   */\n  dup2\n    /* \"#utility.yul\":945:985   */\n  add\n    /* \"#utility.yul\":1087:1093   */\n  dup2\n    /* \"#utility.yul\":1075:1085   */\n  dup2\n    /* \"#utility.yul\":1072:1094   */\n  lt\n    /* \"#utility.yul\":1051:1069   */\n  0xffffffffffffffff\n    /* \"#utility.yul\":1039:1049   */\n  dup3\n    /* \"#utility.yul\":1036:1070   */\n  gt\n    /* \"#utility.yul\":1033:1095   */\n  or\n    /* \"#utility.yul\":1030:1118   */\n  iszero\n  tag_54\n  jumpi\n    /* \"#utility.yul\":1098:1116   */\n  tag_55\n  tag_18\n  jump\t// in\ntag_55:\n    /* \"#utility.yul\":1030:1118   */\ntag_54:\n    /* \"#utility.yul\":1138:1148   */\n  dup1\n    /* \"#utility.yul\":1134:1136   */\n  0x40\n    /* \"#utility.yul\":1127:1149   */\n  mstore\n    /* \"#utility.yul\":917:1155   */\n  pop\n    /* \"#utility.yul\":874:1155   */\n  pop\n  pop\n  jump\t// out\n    /* \"#utility.yul\":1161:1290   */\ntag_20:\n    /* \"#utility.yul\":1195:1201   */\n  0x00\n    /* \"#utility.yul\":1222:1242   */\n  tag_57\n  tag_12\n  jump\t// in\ntag_57:\n    /* \"#utility.yul\":1212:1242   */\n  swap1\n  pop\n    /* \"#utility.yul\":1251:1284   */\n  tag_58\n    /* \"#utility.yul\":1279:1283   */\n  dup3\n    /* \"#utility.yul\":1271:1277   */\n  dup3\n    /* \"#utility.yul\":1251:1284   */\n  tag_19\n  jump\t// in\ntag_58:\n    /* \"#utility.yul\":1161:1290   */\n  swap2\n  swap1\n  pop\n  jump\t// out\n    /* \"#utility.yul\":1296:1604   */\ntag_21:\n    /* \"#utility.yul\":1358:1362   */\n  0x00\n    /* \"#utility.yul\":1448:1466   */\n  0xffffffffffffffff\n    /* \"#utility.yul\":1440:1446   */\n  dup3\n    /* \"#utility.yul\":1437:1467   */\n  gt\n    /* \"#utility.yul\":1434:1490   */\n  iszero\n  tag_60\n  jumpi\n    /* \"#utility.yul\":1470:1488   */\n  tag_61\n  tag_18\n  jump\t// in\ntag_61:\n    /* \"#utility.yul\":1434:1490   */\ntag_60:\n    /* \"#utility.yul\":1508:1537   */\n  tag_62\n    /* \"#utility.yul\":1530:1536   */\n  dup3\n    /* \"#utility.yul\":1508:1537   */\n  tag_17\n  jump\t// in\ntag_62:\n    /* \"#utility.yul\":1500:1537   */\n  swap1\n  pop\n    /* \"#utility.yul\":1592:1596   */\n  0x20\n    /* \"#utility.yul\":1586:1590   */\n  dup2\n    /* \"#utility.yul\":1582:1597   */\n  add\n    /* \"#utility.yul\":1574:1597   */\n  swap1\n  pop\n    /* \"#utility.yul\":1296:1604   */\n  swap2\n  swap1\n  pop\n  jump\t// out\n    /* \"#utility.yul\":1610:1856   */\ntag_22:\n    /* \"#utility.yul\":1691:1692   */\n  0x00\n    /* \"#utility.yul\":1701:1814   */\ntag_64:\n    /* \"#utility.yul\":1715:1721   */\n  dup4\n    /* \"#utility.yul\":1712:1713   */\n  dup2\n    /* \"#utility.yul\":1709:1722   */\n  lt\n    /* \"#utility.yul\":1701:1814   */\n  iszero\n  tag_66\n  jumpi\n    /* \"#utility.yul\":1800:1801   */\n  dup1\n    /* \"#utility.yul\":1795:1798   */\n  dup3\n    /* \"#utility.yul\":1791:1802   */\n  add\n    /* \"#utility.yul\":1785:1803   */\n  mload\n    /* \"#utility.yul\":1781:1782   */\n  dup2\n    /* \"#utility.yul\":1776:1779   */\n  dup5\n    /* \"#utility.yul\":1772:1783   */\n  add\n    /* \"#utility.yul\":1765:1804   */\n  mstore\n    /* \"#utility.yul\":1737:1739   */\n  0x20\n    /* \"#utility.yul\":1734:1735   */\n  dup2\n    /* \"#utility.yul\":1730:1740   */\n  add\n    /* \"#utility.yul\":1725:1740   */\n  swap1\n  pop\n    /* \"#utility.yul\":1701:1814   */\n  jump(tag_64)\ntag_66:\n    /* \"#utility.yul\":1848:1849   */\n  0x00\n    /* \"#utility.yul\":1839:1845   */\n  dup5\n    /* \"#utility.yul\":1834:1837   */\n  dup5\n    /* \"#utility.yul\":1830:1846   */\n  add\n    /* \"#utility.yul\":1823:1850   */\n  mstore\n    /* \"#utility.yul\":1672:1856   */\n  pop\n    /* \"#utility.yul\":1610:1856   */\n  pop\n  pop\n  pop\n  jump\t// out\n    /* \"#utility.yul\":1862:2296   */\ntag_23:\n    /* \"#utility.yul\":1951:1956   */\n  0x00\n    /* \"#utility.yul\":1976:2042   */\n  tag_68\n    /* \"#utility.yul\":1992:2041   */\n  tag_69\n    /* \"#utility.yul\":2034:2040   */\n  dup5\n    /* \"#utility.yul\":1992:2041   */\n  tag_21\n  jump\t// in\ntag_69:\n    /* \"#utility.yul\":1976:2042   */\n  tag_20\n  jump\t// in\ntag_68:\n    /* \"#utility.yul\":1967:2042   */\n  swap1\n  pop\n    /* \"#utility.yul\":2065:2071   */\n  dup3\n    /* \"#utility.yul\":2058:2063   */\n  dup2\n    /* \"#utility.yul\":2051:2072   */\n  mstore\n    /* \"#utility.yul\":2103:2107   */\n  0x20\n    /* \"#utility.yul\":2096:2101   */\n  dup2\n    /* \"#utility.yul\":2092:2108   */\n  add\n    /* \"#utility.yul\":2141:2144   */\n  dup5\n    /* \"#utility.yul\":2132:2138   */\n  dup5\n    /* \"#utility.yul\":2127:2130   */\n  dup5\n    /* \"#utility.yul\":2123:2139   */\n  add\n    /* \"#utility.yul\":2120:2145   */\n  gt\n    /* \"#utility.yul\":2117:2229   */\n  iszero\n  tag_70\n  jumpi\n    /* \"#utility.yul\":2148:2227   */\n  tag_71\n  tag_16\n  jump\t// in\ntag_71:\n    /* \"#utility.yul\":2117:2229   */\ntag_70:\n    /* \"#utility.yul\":2238:2290   */\n  tag_72\n    /* \"#utility.yul\":2283:2289   */\n  dup5\n    /* \"#utility.yul\":2278:2281   */\n  dup3\n    /* \"#utility.yul\":2273:2276   */\n  dup6\n    /* \"#utility.yul\":2238:2290   */\n  tag_22\n  jump\t// in\ntag_72:\n    /* \"#utility.yul\":1957:2296   */\n  pop\n    /* \"#utility.yul\":1862:2296   */\n  swap4\n  swap3\n  pop\n  pop\n  pop\n  jump\t// out\n    /* \"#utility.yul\":2316:2671   */\ntag_24:\n    /* \"#utility.yul\":2383:2388   */\n  0x00\n    /* \"#utility.yul\":2432:2435   */\n  dup3\n    /* \"#utility.yul\":2425:2429   */\n  0x1f\n    /* \"#utility.yul\":2417:2423   */\n  dup4\n    /* \"#utility.yul\":2413:2430   */\n  add\n    /* \"#utility.yul\":2409:2436   */\n  slt\n    /* \"#utility.yul\":2399:2521   */\n  tag_74\n  jumpi\n    /* \"#utility.yul\":2440:2519   */\n  tag_75\n  tag_15\n  jump\t// in\ntag_75:\n    /* \"#utility.yul\":2399:2521   */\ntag_74:\n    /* \"#utility.yul\":2550:2556   */\n  dup2\n    /* \"#utility.yul\":2544:2557   */\n  mload\n    /* \"#utility.yul\":2575:2665   */\n  tag_76\n    /* \"#utility.yul\":2661:2664   */\n  dup5\n    /* \"#utility.yul\":2653:2659   */\n  dup3\n    /* \"#utility.yul\":2646:2650   */\n  0x20\n    /* \"#utility.yul\":2638:2644   */\n  dup7\n    /* \"#utility.yul\":2634:2651   */\n  add\n    /* \"#utility.yul\":2575:2665   */\n  tag_23\n  jump\t// in\ntag_76:\n    /* \"#utility.yul\":2566:2665   */\n  swap2\n  pop\n    /* \"#utility.yul\":2389:2671   */\n  pop\n    /* \"#utility.yul\":2316:2671   */\n  swap3\n  swap2\n  pop\n  pop\n  jump\t// out\n    /* \"#utility.yul\":2677:3201   */\ntag_3:\n    /* \"#utility.yul\":2757:2763   */\n  0x00\n    /* \"#utility.yul\":2806:2808   */\n  0x20\n    /* \"#utility.yul\":2794:2803   */\n  dup3\n    /* \"#utility.yul\":2785:2792   */\n  dup5\n    /* \"#utility.yul\":2781:2804   */\n  sub\n    /* \"#utility.yul\":2777:2809   */\n  slt\n    /* \"#utility.yul\":2774:2893   */\n  iszero\n  tag_78\n  jumpi\n    /* \"#utility.yul\":2812:2891   */\n  tag_79\n  tag_13\n  jump\t// in\ntag_79:\n    /* \"#utility.yul\":2774:2893   */\ntag_78:\n    /* \"#utility.yul\":2953:2954   */\n  0x00\n    /* \"#utility.yul\":2942:2951   */\n  dup3\n    /* \"#utility.yul\":2938:2955   */\n  add\n    /* \"#utility.yul\":2932:2956   */\n  mload\n    /* \"#utility.yul\":2983:3001   */\n  0xffffffffffffffff\n    /* \"#utility.yul\":2975:2981   */\n  dup2\n    /* \"#utility.yul\":2972:3002   */\n  gt\n    /* \"#utility.yul\":2969:3086   */\n  iszero\n  tag_80\n  jumpi\n    /* \"#utility.yul\":3005:3084   */\n  tag_81\n  tag_14\n  jump\t// in\ntag_81:\n    /* \"#utility.yul\":2969:3086   */\ntag_80:\n    /* \"#utility.yul\":3110:3184   */\n  tag_82\n    /* \"#utility.yul\":3176:3183   */\n  dup5\n    /* \"#utility.yul\":3167:3173   */\n  dup3\n    /* \"#utility.yul\":3156:3165   */\n  dup6\n    /* \"#utility.yul\":3152:3174   */\n  add\n    /* \"#utility.yul\":3110:3184   */\n  tag_24\n  jump\t// in\ntag_82:\n    /* \"#utility.yul\":3100:3184   */\n  swap2\n  pop\n    /* \"#utility.yul\":2903:3194   */\n  pop\n    /* \"#utility.yul\":2677:3201   */\n  swap3\n  swap2\n  pop\n  pop\n  jump\t// out\n    /* \"#utility.yul\":3207:3306   */\ntag_25:\n    /* \"#utility.yul\":3259:3265   */\n  0x00\n    /* \"#utility.yul\":3293:3298   */\n  dup2\n    /* \"#utility.yul\":3287:3299   */\n  mload\n    /* \"#utility.yul\":3277:3299   */\n  swap1\n  pop\n    /* \"#utility.yul\":3207:3306   */\n  swap2\n  swap1\n  pop\n  jump\t// out\n    /* \"#utility.yul\":3312:3492   */\ntag_26:\n    /* \"#utility.yul\":3360:3437   */\n  0x4e487b7100000000000000000000000000000000000000000000000000000000\n    /* \"#utility.yul\":3357:3358   */\n  0x00\n    /* \"#utility.yul\":3350:3438   */\n  mstore\n    /* \"#utility.yul\":3457:3461   */\n  0x22\n    /* \"#utility.yul\":3454:3455   */\n  0x04\n    /* \"#utility.yul\":3447:3462   */\n  mstore\n    /* \"#utility.yul\":3481:3485   */\n  0x24\n    /* \"#utility.yul\":3478:3479   */\n  0x00\n    /* \"#utility.yul\":3471:3486   */\n  revert\n    /* \"#utility.yul\":3498:3818   */\ntag_27:\n    /* \"#utility.yul\":3542:3548   */\n  0x00\n    /* \"#utility.yul\":3579:3580   */\n  0x02\n    /* \"#utility.yul\":3573:3577   */\n  dup3\n    /* \"#utility.yul\":3569:3581   */\n  div\n    /* \"#utility.yul\":3559:3581   */\n  swap1\n  pop\n    /* \"#utility.yul\":3626:3627   */\n  0x01\n    /* \"#utility.yul\":3620:3624   */\n  dup3\n    /* \"#utility.yul\":3616:3628   */\n  and\n    /* \"#utility.yul\":3647:3665   */\n  dup1\n    /* \"#utility.yul\":3637:3718   */\n  tag_86\n  jumpi\n    /* \"#utility.yul\":3703:3707   */\n  0x7f\n    /* \"#utility.yul\":3695:3701   */\n  dup3\n    /* \"#utility.yul\":3691:3708   */\n  and\n    /* \"#utility.yul\":3681:3708   */\n  swap2\n  pop\n    /* \"#utility.yul\":3637:3718   */\ntag_86:\n    /* \"#utility.yul\":3765:3767   */\n  0x20\n    /* \"#utility.yul\":3757:3763   */\n  dup3\n    /* \"#utility.yul\":3754:3768   */\n  lt\n    /* \"#utility.yul\":3734:3752   */\n  dup2\n    /* \"#utility.yul\":3731:3769   */\n  sub\n    /* \"#utility.yul\":3728:3812   */\n  tag_87\n  jumpi\n    /* \"#utility.yul\":3784:3802   */\n  tag_88\n  tag_26\n  jump\t// in\ntag_88:\n    /* \"#utility.yul\":3728:3812   */\ntag_87:\n    /* \"#utility.yul\":3549:3818   */\n  pop\n    /* \"#utility.yul\":3498:3818   */\n  swap2\n  swap1\n  pop\n  jump\t// out\n    /* \"#utility.yul\":3824:3965   */\ntag_28:\n    /* \"#utility.yul\":3873:3877   */\n  0x00\n    /* \"#utility.yul\":3896:3899   */\n  dup2\n    /* \"#utility.yul\":3888:3899   */\n  swap1\n  pop\n    /* \"#utility.yul\":3919:3922   */\n  dup2\n    /* \"#utility.yul\":3916:3917   */\n  0x00\n    /* \"#utility.yul\":3909:3923   */\n  mstore\n    /* \"#utility.yul\":3953:3957   */\n  0x20\n    /* \"#utility.yul\":3950:3951   */\n  0x00\n    /* \"#utility.yul\":3940:3958   */\n  keccak256\n    /* \"#utility.yul\":3932:3958   */\n  swap1\n  pop\n    /* \"#utility.yul\":3824:3965   */\n  swap2\n  swap1\n  pop\n  jump\t// out\n    /* \"#utility.yul\":3971:4064   */\ntag_29:\n    /* \"#utility.yul\":4008:4014   */\n  0x00\n    /* \"#utility.yul\":4055:4057   */\n  0x20\n    /* \"#utility.yul\":4050:4052   */\n  0x1f\n    /* \"#utility.yul\":4043:4048   */\n  dup4\n    /* \"#utility.yul\":4039:4053   */\n  add\n    /* \"#utility.yul\":4035:4058   */\n  div\n    /* \"#utility.yul\":4025:4058   */\n  swap1\n  pop\n    /* \"#utility.yul\":3971:4064   */\n  swap2\n  swap1\n  pop\n  jump\t// out\n    /* \"#utility.yul\":4070:4177   */\ntag_30:\n    /* \"#utility.yul\":4114:4122   */\n  0x00\n    /* \"#utility.yul\":4164:4169   */\n  dup3\n    /* \"#utility.yul\":4158:4162   */\n  dup3\n    /* \"#utility.yul\":4154:4170   */\n  shl\n    /* \"#utility.yul\":4133:4170   */\n  swap1\n  pop\n    /* \"#utility.yul\":4070:4177   */\n  swap3\n  swap2\n  pop\n  pop\n  jump\t// out\n    /* \"#utility.yul\":4183:4576   */\ntag_31:\n    /* \"#utility.yul\":4252:4258   */\n  0x00\n    /* \"#utility.yul\":4302:4303   */\n  0x08\n    /* \"#utility.yul\":4290:4300   */\n  dup4\n    /* \"#utility.yul\":4286:4304   */\n  mul\n    /* \"#utility.yul\":4325:4422   */\n  tag_93\n    /* \"#utility.yul\":4355:4421   */\n  0xffffffffffffffffffffffffffffffffffffffffffffffffffffffffffffffff\n    /* \"#utility.yul\":4344:4353   */\n  dup3\n    /* \"#utility.yul\":4325:4422   */\n  tag_30\n  jump\t// in\ntag_93:\n    /* \"#utility.yul\":4443:4482   */\n  tag_94\n    /* \"#utility.yul\":4473:4481   */\n  dup7\n    /* \"#utility.yul\":4462:4471   */\n  dup4\n    /* \"#utility.yul\":4443:4482   */\n  tag_30\n  jump\t// in\ntag_94:\n    /* \"#utility.yul\":4431:4482   */\n  swap6\n  pop\n    /* \"#utility.yul\":4515:4519   */\n  dup1\n    /* \"#utility.yul\":4511:4520   */\n  not\n    /* \"#utility.yul\":4504:4509   */\n  dup5\n    /* \"#utility.yul\":4500:4521   */\n  and\n    /* \"#utility.yul\":4491:4521   */\n  swap4\n  pop\n    /* \"#utility.yul\":4564:4568   */\n  dup1\n    /* \"#utility.yul\":4554:4562   */\n  dup7\n    /* \"#utility.yul\":4550:4569   */\n  and\n    /* \"#utility.yul\":4543:4548   */\n  dup5\n    /* \"#utility.yul\":4540:4570   */\n  or\n    /* \"#utility.yul\":4530:4570   */\n  swap3\n  pop\n    /* \"#utility.yul\":4259:4576   */\n  pop\n  pop\n    /* \"#utility.yul\":4183:4576   */\n  swap4\n  swap3\n  pop\n  pop\n  pop\n  jump\t// out\n    /* \"#utility.yul\":4582:4659   */\ntag_32:\n    /* \"#utility.yul\":4619:4626   */\n  0x00\n    /* \"#utility.yul\":4648:4653   */\n  dup2\n    /* \"#utility.yul\":4637:4653   */\n  swap1\n  pop\n    /* \"#utility.yul\":4582:4659   */\n  swap2\n  swap1\n  pop\n  jump\t// out\n    /* \"#utility.yul\":4665:4725   */\ntag_33:\n    /* \"#utility.yul\":4693:4696   */\n  0x00\n    /* \"#utility.yul\":4714:4719   */\n  dup2\n    /* \"#utility.yul\":4707:4719   */\n  swap1\n  pop\n    /* \"#utility.yul\":4665:4725   */\n  swap2\n  swap1\n  pop\n  jump\t// out\n    /* \"#utility.yul\":4731:4873   */\ntag_34:\n    /* \"#utility.yul\":4781:4790   */\n  0x00\n    /* \"#utility.yul\":4814:4867   */\n  tag_98\n    /* \"#utility.yul\":4832:4866   */\n  tag_99\n    /* \"#utility.yul\":4841:4865   */\n  tag_100\n    /* \"#utility.yul\":4859:4864   */\n  dup5\n    /* \"#utility.yul\":4841:4865   */\n  tag_32\n  jump\t// in\ntag_100:\n    /* \"#utility.yul\":4832:4866   */\n  tag_33\n  jump\t// in\ntag_99:\n    /* \"#utility.yul\":4814:4867   */\n  tag_32\n  jump\t// in\ntag_98:\n    /* \"#utility.yul\":4801:4867   */\n  swap1\n  pop\n    /* \"#utility.yul\":4731:4873   */\n  swap2\n  swap1\n  pop\n  jump\t// out\n    /* \"#utility.yul\":4879:4954   */\ntag_35:\n    /* \"#utility.yul\":4922:4925   */\n  0x00\n    /* \"#utility.yul\":4943:4948   */\n  dup2\n    /* \"#utility.yul\":4936:4948   */\n  swap1\n  pop\n    /* \"#utility.yul\":4879:4954   */\n  swap2\n  swap1\n  pop\n  jump\t// out\n    /* \"#utility.yul\":4960:5229   */\ntag_36:\n    /* \"#utility.yul\":5070:5109   */\n  tag_103\n    /* \"#utility.yul\":5101:5108   */\n  dup4\n    /* \"#utility.yul\":5070:5109   */\n  tag_34\n  jump\t// in\ntag_103:\n    /* \"#utility.yul\":5131:5222   */\n  tag_104\n    /* \"#utility.yul\":5180:5221   */\n  tag_105\n    /* \"#utility.yul\":5204:5220   */\n  dup3\n    /* \"#utility.yul\":5180:5221   */\n  tag_35\n  jump\t// in\ntag_105:\n    /* \"#utility.yul\":5172:5178   */\n  dup5\n    /* \"#utility.yul\":5165:5169   */\n  dup5\n    /* \"#utility.yul\":5159:5170   */\n  sload\n    /* \"#utility.yul\":5131:5222   */\n  tag_31\n  jump\t// in\ntag_104:\n    /* \"#utility.yul\":5125:5129   */\n  dup3\n    /* \"#utility.yul\":5118:5223   */\n  sstore\n    /* \"#utility.yul\":5036:5229   */\n  pop\n    /* \"#utility.yul\":4960:5229   */\n  pop\n  pop\n  pop\n  jump\t// out\n    /* \"#utility.yul\":5235:5308   */\ntag_37:\n    /* \"#utility.yul\":5280:5283   */\n  0x00\n    /* \"#utility.yul\":5235:5308   */\n  swap1\n  jump\t// out\n    /* \"#utility.yul\":5314:5503   */\ntag_38:\n    /* \"#utility.yul\":5391:5423   */\n  tag_108\n  tag_37\n  jump\t// in\ntag_108:\n    /* \"#utility.yul\":5432:5497   */\n  tag_109\n    /* \"#utility.yul\":5490:5496   */\n  dup2\n    /* \"#utility.yul\":5482:5488   */\n  dup5\n    /* \"#utility.yul\":5476:5480   */\n  dup5\n    /* \"#utility.yul\":5432:5497   */\n  tag_36\n  jump\t// in\ntag_109:\n    /* \"#utility.yul\":5367:5503   */\n  pop\n    /* \"#utility.yul\":5314:5503   */\n  pop\n  pop\n  jump\t// out\n    /* \"#utility.yul\":5509:5695   */\ntag_39:\n    /* \"#utility.yul\":5569:5689   */\ntag_111:\n    /* \"#utility.yul\":5586:5589   */\n  dup2\n    /* \"#utility.yul\":5579:5584   */\n  dup2\n    /* \"#utility.yul\":5576:5590   */\n  lt\n    /* \"#utility.yul\":5569:5689   */\n  iszero\n  tag_113\n  jumpi\n    /* \"#utility.yul\":5640:5679   */\n  tag_114\n    /* \"#utility.yul\":5677:5678   */\n  0x00\n    /* \"#utility.yul\":5670:5675   */\n  dup3\n    /* \"#utility.yul\":5640:5679   */\n  tag_38\n  jump\t// in\ntag_114:\n    /* \"#utility.yul\":5613:5614   */\n  0x01\n    /* \"#utility.yul\":5606:5611   */\n  dup2\n    /* \"#utility.yul\":5602:5615   */\n  add\n    /* \"#utility.yul\":5593:5615   */\n  swap1\n  pop\n    /* \"#utility.yul\":5569:5689   */\n  jump(tag_111)\ntag_113:\n    /* \"#utility.yul\":5509:5695   */\n  pop\n  pop\n  jump\t// out\n    /* \"#utility.yul\":5701:6244   */\ntag_40:\n    /* \"#utility.yul\":5802:5804   */\n  0x1f\n    /* \"#utility.yul\":5797:5800   */\n  dup3\n    /* \"#utility.yul\":5794:5805   */\n  gt\n    /* \"#utility.yul\":5791:6237   */\n  iszero\n  tag_116\n  jumpi\n    /* \"#utility.yul\":5836:5874   */\n  tag_117\n    /* \"#utility.yul\":5868:5873   */\n  dup2\n    /* \"#utility.yul\":5836:5874   */\n  tag_28\n  jump\t// in\ntag_117:\n    /* \"#utility.yul\":5920:5949   */\n  tag_118\n    /* \"#utility.yul\":5938:5948   */\n  dup5\n    /* \"#utility.yul\":5920:5949   */\n  tag_29\n  jump\t// in\ntag_118:\n    /* \"#utility.yul\":5910:5918   */\n  dup2\n    /* \"#utility.yul\":5906:5950   */\n  add\n    /* \"#utility.yul\":6103:6105   */\n  0x20\n    /* \"#utility.yul\":6091:6101   */\n  dup6\n    /* \"#utility.yul\":6088:6106   */\n  lt\n    /* \"#utility.yul\":6085:6134   */\n  iszero\n  tag_119\n  jumpi\n    /* \"#utility.yul\":6124:6132   */\n  dup2\n    /* \"#utility.yul\":6109:6132   */\n  swap1\n  pop\n    /* \"#utility.yul\":6085:6134   */\ntag_119:\n    /* \"#utility.yul\":6147:6227   */\n  tag_120\n    /* \"#utility.yul\":6203:6225   */\n  tag_121\n    /* \"#utility.yul\":6221:6224   */\n  dup6\n    /* \"#utility.yul\":6203:6225   */\n  tag_29\n  jump\t// in\ntag_121:\n    /* \"#utility.yul\":6193:6201   */\n  dup4\n    /* \"#utility.yul\":6189:6226   */\n  add\n    /* \"#utility.yul\":6176:6187   */\n  dup3\n    /* \"#utility.yul\":6147:6227   */\n  tag_39\n  jump\t// in\ntag_120:\n    /* \"#utility.yul\":5806:6237   */\n  pop\n  pop\n    /* \"#utility.yul\":5791:6237   */\ntag_116:\n    /* \"#utility.yul\":5701:6244   */\n  pop\n  pop\n  pop\n  jump\t// out\n    /* \"#utility.yul\":6250:6367   */\ntag_41:\n    /* \"#utility.yul\":6304:6312   */\n  0x00\n    /* \"#utility.yul\":6354:6359   */\n  dup3\n    /* \"#utility.yul\":6348:6352   */\n  dup3\n    /* \"#utility.yul\":6344:6360   */\n  shr\n    /* \"#utility.yul\":6323:6360   */\n  swap1\n  pop\n    /* \"#utility.yul\":6250:6367   */\n  swap3\n  swap2\n  pop\n  pop\n  jump\t// out\n    /* \"#utility.yul\":6373:6542   */\ntag_42:\n    /* \"#utility.yul\":6417:6423   */\n  0x00\n    /* \"#utility.yul\":6450:6501   */\n  tag_124\n    /* \"#utility.yul\":6498:6499   */\n  0x00\n    /* \"#utility.yul\":6494:6500   */\n  not\n    /* \"#utility.yul\":6486:6491   */\n  dup5\n    /* \"#utility.yul\":6483:6484   */\n  0x08\n    /* \"#utility.yul\":6479:6492   */\n  mul\n    /* \"#utility.yul\":6450:6501   */\n  tag_41\n  jump\t// in\ntag_124:\n    /* \"#utility.yul\":6446:6502   */\n  not\n    /* \"#utility.yul\":6531:6535   */\n  dup1\n    /* \"#utility.yul\":6525:6529   */\n  dup4\n    /* \"#utility.yul\":6521:6536   */\n  and\n    /* \"#utility.yul\":6511:6536   */\n  swap2\n  pop\n    /* \"#utility.yul\":6424:6542   */\n  pop\n    /* \"#utility.yul\":6373:6542   */\n  swap3\n  swap2\n  pop\n  pop\n  jump\t// out\n    /* \"#utility.yul\":6547:6842   */\ntag_43:\n    /* \"#utility.yul\":6623:6627   */\n  0x00\n    /* \"#utility.yul\":6769:6798   */\n  tag_126\n    /* \"#utility.yul\":6794:6797   */\n  dup4\n    /* \"#utility.yul\":6788:6792   */\n  dup4\n    /* \"#utility.yul\":6769:6798   */\n  tag_42\n  jump\t// in\ntag_126:\n    /* \"#utility.yul\":6761:6798   */\n  swap2\n  pop\n    /* \"#utility.yul\":6831:6834   */\n  dup3\n    /* \"#utility.yul\":6828:6829   */\n  0x02\n    /* \"#utility.yul\":6824:6835   */\n  mul\n    /* \"#utility.yul\":6818:6822   */\n  dup3\n    /* \"#utility.yul\":6815:6836   */\n  or\n    /* \"#utility.yul\":6807:6836   */\n  swap1\n  pop\n    /* \"#utility.yul\":6547:6842   */\n  swap3\n  swap2\n  pop\n  pop\n  jump\t// out\n    /* \"#utility.yul\":6847:8242   */\ntag_11:\n    /* \"#utility.yul\":6964:7001   */\n  tag_128\n    /* \"#utility.yul\":6997:7000   */\n  dup3\n    /* \"#utility.yul\":6964:7001   */\n  tag_25\n  jump\t// in\ntag_128:\n    /* \"#utility.yul\":7066:7084   */\n  0xffffffffffffffff\n    /* \"#utility.yul\":7058:7064   */\n  dup2\n    /* \"#utility.yul\":7055:7085   */\n  gt\n    /* \"#utility.yul\":7052:7108   */\n  iszero\n  tag_129\n  jumpi\n    /* \"#utility.yul\":7088:7106   */\n  tag_130\n  tag_18\n  jump\t// in\ntag_130:\n    /* \"#utility.yul\":7052:7108   */\ntag_129:\n    /* \"#utility.yul\":7132:7170   */\n  tag_131\n    /* \"#utility.yul\":7164:7168   */\n  dup3\n    /* \"#utility.yul\":7158:7169   */\n  sload\n    /* \"#utility.yul\":7132:7170   */\n  tag_27\n  jump\t// in\ntag_131:\n    /* \"#utility.yul\":7217:7284   */\n  tag_132\n    /* \"#utility.yul\":7277:7283   */\n  dup3\n    /* \"#utility.yul\":7269:7275   */\n  dup3\n    /* \"#utility.yul\":7263:7267   */\n  dup6\n    /* \"#utility.yul\":7217:7284   */\n  tag_40\n  jump\t// in\ntag_132:\n    /* \"#utility.yul\":7311:7312   */\n  0x00\n    /* \"#utility.yul\":7335:7339   */\n  0x20\n    /* \"#utility.yul\":7322:7339   */\n  swap1\n  pop\n    /* \"#utility.yul\":7367:7369   */\n  0x1f\n    /* \"#utility.yul\":7359:7365   */\n  dup4\n    /* \"#utility.yul\":7356:7370   */\n  gt\n    /* \"#utility.yul\":7384:7385   */\n  0x01\n    /* \"#utility.yul\":7379:7997   */\n  dup2\n  eq\n  tag_134\n  jumpi\n    /* \"#utility.yul\":8041:8042   */\n  0x00\n    /* \"#utility.yul\":8058:8064   */\n  dup5\n    /* \"#utility.yul\":8055:8132   */\n  iszero\n  tag_135\n  jumpi\n    /* \"#utility.yul\":8107:8116   */\n  dup3\n    /* \"#utility.yul\":8102:8105   */\n  dup8\n    /* \"#utility.yul\":8098:8117   */\n  add\n    /* \"#utility.yul\":8092:8118   */\n  mload\n    /* \"#utility.yul\":8083:8118   */\n  swap1\n  pop\n    /* \"#utility.yul\":8055:8132   */\ntag_135:\n    /* \"#utility.yul\":8158:8225   */\n  tag_136\n    /* \"#utility.yul\":8218:8224   */\n  dup6\n    /* \"#utility.yul\":8211:8216   */\n  dup3\n    /* \"#utility.yul\":8158:8225   */\n  tag_43\n  jump\t// in\ntag_136:\n    /* \"#utility.yul\":8152:8156   */\n  dup7\n    /* \"#utility.yul\":8145:8226   */\n  sstore\n    /* \"#utility.yul\":8014:8236   */\n  pop\n    /* \"#utility.yul\":7349:8236   */\n  jump(tag_133)\n    /* \"#utility.yul\":7379:7997   */\ntag_134:\n    /* \"#utility.yul\":7431:7435   */\n  0x1f\n    /* \"#utility.yul\":7427:7436   */\n  not\n    /* \"#utility.yul\":7419:7425   */\n  dup5\n    /* \"#utility.yul\":7415:7437   */\n  and\n    /* \"#utility.yul\":7465:7502   */\n  tag_137\n    /* \"#utility.yul\":7497:7501   */\n  dup7\n    /* \"#utility.yul\":7465:7502   */\n  tag_28\n  jump\t// in\ntag_137:\n    /* \"#utility.yul\":7524:7525   */\n  0x00\n    /* \"#utility.yul\":7538:7746   */\ntag_138:\n    /* \"#utility.yul\":7552:7559   */\n  dup3\n    /* \"#utility.yul\":7549:7550   */\n  dup2\n    /* \"#utility.yul\":7546:7560   */\n  lt\n    /* \"#utility.yul\":7538:7746   */\n  iszero\n  tag_140\n  jumpi\n    /* \"#utility.yul\":7631:7640   */\n  dup5\n    /* \"#utility.yul\":7626:7629   */\n  dup10\n    /* \"#utility.yul\":7622:7641   */\n  add\n    /* \"#utility.yul\":7616:7642   */\n  mload\n    /* \"#utility.yul\":7608:7614   */\n  dup3\n    /* \"#utility.yul\":7601:7643   */\n  sstore\n    /* \"#utility.yul\":7682:7683   */\n  0x01\n    /* \"#utility.yul\":7674:7680   */\n  dup3\n    /* \"#utility.yul\":7670:7684   */\n  add\n    /* \"#utility.yul\":7660:7684   */\n  swap2\n  pop\n    /* \"#utility.yul\":7729:7731   */\n  0x20\n    /* \"#utility.yul\":7718:7727   */\n  dup6\n    /* \"#utility.yul\":7714:7732   */\n  add\n    /* \"#utility.yul\":7701:7732   */\n  swap5\n  pop\n    /* \"#utility.yul\":7575:7579   */\n  0x20\n    /* \"#utility.yul\":7572:7573   */\n  dup2\n    /* \"#utility.yul\":7568:7580   */\n  add\n    /* \"#utility.yul\":7563:7580   */\n  swap1\n  pop\n    /* \"#utility.yul\":7538:7746   */\n  jump(tag_138)\ntag_140:\n    /* \"#utility.yul\":7774:7780   */\n  dup7\n    /* \"#utility.yul\":7765:7772   */\n  dup4\n    /* \"#utility.yul\":7762:7781   */\n  lt\n    /* \"#utility.yul\":7759:7938   */\n  iszero\n  tag_141\n  jumpi\n    /* \"#utility.yul\":7832:7841   */\n  dup5\n    /* \"#utility.yul\":7827:7830   */\n  dup10\n    /* \"#utility.yul\":7823:7842   */\n  add\n    /* \"#utility.yul\":7817:7843   */\n  mload\n    /* \"#utility.yul\":7875:7923   */\n  tag_142\n    /* \"#utility.yul\":7917:7921   */\n  0x1f\n    /* \"#utility.yul\":7909:7915   */\n  dup10\n    /* \"#utility.yul\":7905:7922   */\n  and\n    /* \"#utility.yul\":7894:7903   */\n  dup3\n    /* \"#utility.yul\":7875:7923   */\n  tag_42\n  jump\t// in\ntag_142:\n    /* \"#utility.yul\":7867:7873   */\n  dup4\n    /* \"#utility.yul\":7860:7924   */\n  sstore\n    /* \"#utility.yul\":7782:7938   */\n  pop\n    /* \"#utility.yul\":7759:7938   */\ntag_141:\n    /* \"#utility.yul\":7984:7985   */\n  0x01\n    /* \"#utility.yul\":7980:7981   */\n  0x02\n    /* \"#utility.yul\":7972:7978   */\n  dup9\n    /* \"#utility.yul\":7968:7982   */\n  mul\n    /* \"#utility.yul\":7964:7986   */\n  add\n    /* \"#utility.yul\":7958:7962   */\n  dup9\n    /* \"#utility.yul\":7951:7987   */\n  sstore\n    /* \"#utility.yul\":7386:7997   */\n  pop\n  pop\n  pop\n    /* \"#utility.yul\":7349:8236   */\ntag_133:\n  pop\n    /* \"#utility.yul\":6939:8242   */\n  pop\n  pop\n  pop\n    /* \"#utility.yul\":6847:8242   */\n  pop\n  pop\n  jump\t// out\n    /* \"Arevea-NFT-Market/NFT-Contracts/newmultinft/ERC1155.sol\":565:18301  contract ERC1155 is Context, ERC165, IERC1155, IERC1155MetadataURI {... */\ntag_8:\n  dataSize(sub_0)\n  dup1\n  dataOffset(sub_0)\n  0x00\n  codecopy\n  0x00\n  return\nstop\n\nsub_0: assembly {\n        /* \"Arevea-NFT-Market/NFT-Contracts/newmultinft/ERC1155.sol\":565:18301  contract ERC1155 is Context, ERC165, IERC1155, IERC1155MetadataURI {... */\n      mstore(0x40, 0x80)\n      callvalue\n      dup1\n      iszero\n      tag_1\n      jumpi\n      0x00\n      dup1\n      revert\n    tag_1:\n      pop\n      jumpi(tag_2, lt(calldatasize, 0x04))\n      shr(0xe0, calldataload(0x00))\n      dup1\n      0x4e1273f4\n      gt\n      tag_12\n      jumpi\n      dup1\n      0x4e1273f4\n      eq\n      tag_7\n      jumpi\n      dup1\n      0xa22cb465\n      eq\n      tag_8\n      jumpi\n      dup1\n      0xbd85b039\n      eq\n      tag_9\n      jumpi\n      dup1\n      0xe985e9c5\n      eq\n      tag_10\n      jumpi\n      dup1\n      0xf242432a\n      eq\n      tag_11\n      jumpi\n      jump(tag_2)\n    tag_12:\n      dup1\n      0xfdd58e\n      eq\n      tag_3\n      jumpi\n      dup1\n      0x01ffc9a7\n      eq\n      tag_4\n      jumpi\n      dup1\n      0x0e89341c\n      eq\n      tag_5\n      jumpi\n      dup1\n      0x2eb2c2d6\n      eq\n      tag_6\n      jumpi\n    tag_2:\n      0x00\n      dup1\n      revert\n        /* \"Arevea-NFT-Market/NFT-Contracts/newmultinft/ERC1155.sol\":2230:2460  function balanceOf(address account, uint256 id) public view virtual override returns (uint256) {... */\n    tag_3:\n      tag_13\n      0x04\n      dup1\n      calldatasize\n      sub\n      dup2\n      add\n      swap1\n      tag_14\n      swap2\n      swap1\n      tag_15\n      jump\t// in\n    tag_14:\n      tag_16\n      jump\t// in\n    tag_13:\n      mload(0x40)\n      tag_17\n      swap2\n      swap1\n      tag_18\n      jump\t// in\n    tag_17:\n      mload(0x40)\n      dup1\n      swap2\n      sub\n      swap1\n      return\n        /* \"Arevea-NFT-Market/NFT-Contracts/newmultinft/ERC1155.sol\":1253:1563  function supportsInterface(bytes4 interfaceId) public view virtual override(ERC165, IERC165) returns (bool) {... */\n    tag_4:\n      tag_19\n      0x04\n      dup1\n      calldatasize\n      sub\n      dup2\n      add\n      swap1\n      tag_20\n      swap2\n      swap1\n      tag_21\n      jump\t// in\n    tag_20:\n      tag_22\n      jump\t// in\n    tag_19:\n      mload(0x40)\n      tag_23\n      swap2\n      swap1\n      tag_24\n      jump\t// in\n    tag_23:\n      mload(0x40)\n      dup1\n      swap2\n      sub\n      swap1\n      return\n        /* \"Arevea-NFT-Market/NFT-Contracts/newmultinft/ERC1155.sol\":1974:2079  function uri(uint256) public view virtual override returns (string memory) {... */\n    tag_5:\n      tag_25\n      0x04\n      dup1\n      calldatasize\n      sub\n      dup2\n      add\n      swap1\n      tag_26\n      swap2\n      swap1\n      tag_27\n      jump\t// in\n    tag_26:\n      tag_28\n      jump\t// in\n    tag_25:\n      mload(0x40)\n      tag_29\n      swap2\n      swap1\n      tag_30\n      jump\t// in\n    tag_29:\n      mload(0x40)\n      dup1\n      swap2\n      sub\n      swap1\n      return\n        /* \"Arevea-NFT-Market/NFT-Contracts/newmultinft/ERC1155.sol\":4179:4617  function safeBatchTransferFrom(... */\n    tag_6:\n      tag_31\n      0x04\n      dup1\n      calldatasize\n      sub\n      dup2\n      add\n      swap1\n      tag_32\n      swap2\n      swap1\n      tag_33\n      jump\t// in\n    tag_32:\n      tag_34\n      jump\t// in\n    tag_31:\n      stop\n        /* \"Arevea-NFT-Market/NFT-Contracts/newmultinft/ERC1155.sol\":2626:3150  function balanceOfBatch(address[] memory accounts, uint256[] memory ids)... */\n    tag_7:\n      tag_35\n      0x04\n      dup1\n      calldatasize\n      sub\n      dup2\n      add\n      swap1\n      tag_36\n      swap2\n      swap1\n      tag_37\n      jump\t// in\n    tag_36:\n      tag_38\n      jump\t// in\n    tag_35:\n      mload(0x40)\n      tag_39\n      swap2\n      swap1\n      tag_40\n      jump\t// in\n    tag_39:\n      mload(0x40)\n      dup1\n      swap2\n      sub\n      swap1\n      return\n        /* \"Arevea-NFT-Market/NFT-Contracts/newmultinft/ERC1155.sol\":3223:3378  function setApprovalForAll(address operator, bool approved) public virtual override {... */\n    tag_8:\n      tag_41\n      0x04\n      dup1\n      calldatasize\n      sub\n      dup2\n      add\n      swap1\n      tag_42\n      swap2\n      swap1\n      tag_43\n      jump\t// in\n    tag_42:\n      tag_44\n      jump\t// in\n    tag_41:\n      stop\n        /* \"Arevea-NFT-Market/NFT-Contracts/newmultinft/ERC1155.sol\":10049:10150  function totalSupply(uint id) external view virtual returns (uint256) {... */\n    tag_9:\n      tag_45\n      0x04\n      dup1\n      calldatasize\n      sub\n      dup2\n      add\n      swap1\n      tag_46\n      swap2\n      swap1\n      tag_27\n      jump\t// in\n    tag_46:\n      tag_47\n      jump\t// in\n    tag_45:\n      mload(0x40)\n      tag_48\n      swap2\n      swap1\n      tag_18\n      jump\t// in\n    tag_48:\n      mload(0x40)\n      dup1\n      swap2\n      sub\n      swap1\n      return\n        /* \"Arevea-NFT-Market/NFT-Contracts/newmultinft/ERC1155.sol\":3456:3624  function isApprovedForAll(address account, address operator) public view virtual override returns (bool) {... */\n    tag_10:\n      tag_49\n      0x04\n      dup1\n      calldatasize\n      sub\n      dup2\n      add\n      swap1\n      tag_50\n      swap2\n      swap1\n      tag_51\n      jump\t// in\n    tag_50:\n      tag_52\n      jump\t// in\n    tag_49:\n      mload(0x40)\n      tag_53\n      swap2\n      swap1\n      tag_24\n      jump\t// in\n    tag_53:\n      mload(0x40)\n      dup1\n      swap2\n      sub\n      swap1\n      return\n        /* \"Arevea-NFT-Market/NFT-Contracts/newmultinft/ERC1155.sol\":3696:4102  function safeTransferFrom(... */\n    tag_11:\n      tag_54\n      0x04\n      dup1\n      calldatasize\n      sub\n      dup2\n      add\n      swap1\n      tag_55\n      swap2\n      swap1\n      tag_56\n      jump\t// in\n    tag_55:\n      tag_57\n      jump\t// in\n    tag_54:\n      stop\n        /* \"Arevea-NFT-Market/NFT-Contracts/newmultinft/ERC1155.sol\":2230:2460  function balanceOf(address account, uint256 id) public view virtual override returns (uint256) {... */\n    tag_16:\n        /* \"Arevea-NFT-Market/NFT-Contracts/newmultinft/ERC1155.sol\":2316:2323  uint256 */\n      0x00\n        /* \"Arevea-NFT-Market/NFT-Contracts/newmultinft/ERC1155.sol\":2363:2364  0 */\n      dup1\n        /* \"Arevea-NFT-Market/NFT-Contracts/newmultinft/ERC1155.sol\":2344:2365  account != address(0) */\n      0xffffffffffffffffffffffffffffffffffffffff\n      and\n        /* \"Arevea-NFT-Market/NFT-Contracts/newmultinft/ERC1155.sol\":2344:2351  account */\n      dup4\n        /* \"Arevea-NFT-Market/NFT-Contracts/newmultinft/ERC1155.sol\":2344:2365  account != address(0) */\n      0xffffffffffffffffffffffffffffffffffffffff\n      and\n      sub\n        /* \"Arevea-NFT-Market/NFT-Contracts/newmultinft/ERC1155.sol\":2336:2412  require(account != address(0), \"ERC1155: address zero is not a valid owner\") */\n      tag_59\n      jumpi\n      mload(0x40)\n      0x08c379a000000000000000000000000000000000000000000000000000000000\n      dup2\n      mstore\n      0x04\n      add\n      tag_60\n      swap1\n      tag_61\n      jump\t// in\n    tag_60:\n      mload(0x40)\n      dup1\n      swap2\n      sub\n      swap1\n      revert\n    tag_59:\n        /* \"Arevea-NFT-Market/NFT-Contracts/newmultinft/ERC1155.sol\":2430:2439  _balances */\n      0x00\n        /* \"Arevea-NFT-Market/NFT-Contracts/newmultinft/ERC1155.sol\":2430:2443  _balances[id] */\n      dup1\n        /* \"Arevea-NFT-Market/NFT-Contracts/newmultinft/ERC1155.sol\":2440:2442  id */\n      dup4\n        /* \"Arevea-NFT-Market/NFT-Contracts/newmultinft/ERC1155.sol\":2430:2443  _balances[id] */\n      dup2\n      mstore\n      0x20\n      add\n      swap1\n      dup2\n      mstore\n      0x20\n      add\n      0x00\n      keccak256\n        /* \"Arevea-NFT-Market/NFT-Contracts/newmultinft/ERC1155.sol\":2430:2452  _balances[id][account] */\n      0x00\n        /* \"Arevea-NFT-Market/NFT-Contracts/newmultinft/ERC1155.sol\":2444:2451  account */\n      dup5\n        /* \"Arevea-NFT-Market/NFT-Contracts/newmultinft/ERC1155.sol\":2430:2452  _balances[id][account] */\n      0xffffffffffffffffffffffffffffffffffffffff\n      and\n      0xffffffffffffffffffffffffffffffffffffffff\n      and\n      dup2\n      mstore\n      0x20\n      add\n      swap1\n      dup2\n      mstore\n      0x20\n      add\n      0x00\n      keccak256\n      sload\n        /* \"Arevea-NFT-Market/NFT-Contracts/newmultinft/ERC1155.sol\":2423:2452  return _balances[id][account] */\n      swap1\n      pop\n        /* \"Arevea-NFT-Market/NFT-Contracts/newmultinft/ERC1155.sol\":2230:2460  function balanceOf(address account, uint256 id) public view virtual override returns (uint256) {... */\n      swap3\n      swap2\n      pop\n      pop\n      jump\t// out\n        /* \"Arevea-NFT-Market/NFT-Contracts/newmultinft/ERC1155.sol\":1253:1563  function supportsInterface(bytes4 interfaceId) public view virtual override(ERC165, IERC165) returns (bool) {... */\n    tag_22:\n        /* \"Arevea-NFT-Market/NFT-Contracts/newmultinft/ERC1155.sol\":1355:1359  bool */\n      0x00\n        /* \"Arevea-NFT-Market/NFT-Contracts/newmultinft/ERC1155.sol\":1407:1433  type(IERC1155).interfaceId */\n      0xd9b67a2600000000000000000000000000000000000000000000000000000000\n        /* \"Arevea-NFT-Market/NFT-Contracts/newmultinft/ERC1155.sol\":1392:1433  interfaceId == type(IERC1155).interfaceId */\n      not(0xffffffffffffffffffffffffffffffffffffffffffffffffffffffff)\n      and\n        /* \"Arevea-NFT-Market/NFT-Contracts/newmultinft/ERC1155.sol\":1392:1403  interfaceId */\n      dup3\n        /* \"Arevea-NFT-Market/NFT-Contracts/newmultinft/ERC1155.sol\":1392:1433  interfaceId == type(IERC1155).interfaceId */\n      not(0xffffffffffffffffffffffffffffffffffffffffffffffffffffffff)\n      and\n      eq\n        /* \"Arevea-NFT-Market/NFT-Contracts/newmultinft/ERC1155.sol\":1392:1502  interfaceId == type(IERC1155).interfaceId ||... */\n      dup1\n      tag_63\n      jumpi\n      pop\n        /* \"Arevea-NFT-Market/NFT-Contracts/newmultinft/ERC1155.sol\":1465:1502  type(IERC1155MetadataURI).interfaceId */\n      0x0e89341c00000000000000000000000000000000000000000000000000000000\n        /* \"Arevea-NFT-Market/NFT-Contracts/newmultinft/ERC1155.sol\":1450:1502  interfaceId == type(IERC1155MetadataURI).interfaceId */\n      not(0xffffffffffffffffffffffffffffffffffffffffffffffffffffffff)\n      and\n        /* \"Arevea-NFT-Market/NFT-Contracts/newmultinft/ERC1155.sol\":1450:1461  interfaceId */\n      dup3\n        /* \"Arevea-NFT-Market/NFT-Contracts/newmultinft/ERC1155.sol\":1450:1502  interfaceId == type(IERC1155MetadataURI).interfaceId */\n      not(0xffffffffffffffffffffffffffffffffffffffffffffffffffffffff)\n      and\n      eq\n        /* \"Arevea-NFT-Market/NFT-Contracts/newmultinft/ERC1155.sol\":1392:1502  interfaceId == type(IERC1155).interfaceId ||... */\n    tag_63:\n        /* \"Arevea-NFT-Market/NFT-Contracts/newmultinft/ERC1155.sol\":1392:1555  interfaceId == type(IERC1155).interfaceId ||... */\n      dup1\n      tag_64\n      jumpi\n      pop\n        /* \"Arevea-NFT-Market/NFT-Contracts/newmultinft/ERC1155.sol\":1519:1555  super.supportsInterface(interfaceId) */\n      tag_65\n        /* \"Arevea-NFT-Market/NFT-Contracts/newmultinft/ERC1155.sol\":1543:1554  interfaceId */\n      dup3\n        /* \"Arevea-NFT-Market/NFT-Contracts/newmultinft/ERC1155.sol\":1519:1542  super.supportsInterface */\n      tag_66\n        /* \"Arevea-NFT-Market/NFT-Contracts/newmultinft/ERC1155.sol\":1519:1555  super.supportsInterface(interfaceId) */\n      jump\t// in\n    tag_65:\n        /* \"Arevea-NFT-Market/NFT-Contracts/newmultinft/ERC1155.sol\":1392:1555  interfaceId == type(IERC1155).interfaceId ||... */\n    tag_64:\n        /* \"Arevea-NFT-Market/NFT-Contracts/newmultinft/ERC1155.sol\":1372:1555  return... */\n      swap1\n      pop\n        /* \"Arevea-NFT-Market/NFT-Contracts/newmultinft/ERC1155.sol\":1253:1563  function supportsInterface(bytes4 interfaceId) public view virtual override(ERC165, IERC165) returns (bool) {... */\n      swap2\n      swap1\n      pop\n      jump\t// out\n        /* \"Arevea-NFT-Market/NFT-Contracts/newmultinft/ERC1155.sol\":1974:2079  function uri(uint256) public view virtual override returns (string memory) {... */\n    tag_28:\n        /* \"Arevea-NFT-Market/NFT-Contracts/newmultinft/ERC1155.sol\":2034:2047  string memory */\n      0x60\n        /* \"Arevea-NFT-Market/NFT-Contracts/newmultinft/ERC1155.sol\":2067:2071  _uri */\n      0x02\n        /* \"Arevea-NFT-Market/NFT-Contracts/newmultinft/ERC1155.sol\":2060:2071  return _uri */\n      dup1\n      sload\n      tag_68\n      swap1\n      tag_69\n      jump\t// in\n    tag_68:\n      dup1\n      0x1f\n      add\n      0x20\n      dup1\n      swap2\n      div\n      mul\n      0x20\n      add\n      mload(0x40)\n      swap1\n      dup2\n      add\n      0x40\n      mstore\n      dup1\n      swap3\n      swap2\n      swap1\n      dup2\n      dup2\n      mstore\n      0x20\n      add\n      dup3\n      dup1\n      sload\n      tag_70\n      swap1\n      tag_69\n      jump\t// in\n    tag_70:\n      dup1\n      iszero\n      tag_71\n      jumpi\n      dup1\n      0x1f\n      lt\n      tag_72\n      jumpi\n      0x0100\n      dup1\n      dup4\n      sload\n      div\n      mul\n      dup4\n      mstore\n      swap2\n      0x20\n      add\n      swap2\n      jump(tag_71)\n    tag_72:\n      dup3\n      add\n      swap2\n      swap1\n      0x00\n      mstore\n      keccak256(0x00, 0x20)\n      swap1\n    tag_73:\n      dup2\n      sload\n      dup2\n      mstore\n      swap1\n      0x01\n      add\n      swap1\n      0x20\n      add\n      dup1\n      dup4\n      gt\n      tag_73\n      jumpi\n      dup3\n      swap1\n      sub\n      0x1f\n      and\n      dup3\n      add\n      swap2\n    tag_71:\n      pop\n      pop\n      pop\n      pop\n      pop\n      swap1\n      pop\n        /* \"Arevea-NFT-Market/NFT-Contracts/newmultinft/ERC1155.sol\":1974:2079  function uri(uint256) public view virtual override returns (string memory) {... */\n      swap2\n      swap1\n      pop\n      jump\t// out\n        /* \"Arevea-NFT-Market/NFT-Contracts/newmultinft/ERC1155.sol\":4179:4617  function safeBatchTransferFrom(... */\n    tag_34:\n        /* \"Arevea-NFT-Market/NFT-Contracts/newmultinft/ERC1155.sol\":4420:4432  _msgSender() */\n      tag_75\n        /* \"Arevea-NFT-Market/NFT-Contracts/newmultinft/ERC1155.sol\":4420:4430  _msgSender */\n      tag_76\n        /* \"Arevea-NFT-Market/NFT-Contracts/newmultinft/ERC1155.sol\":4420:4432  _msgSender() */\n      jump\t// in\n    tag_75:\n        /* \"Arevea-NFT-Market/NFT-Contracts/newmultinft/ERC1155.sol\":4412:4432  from == _msgSender() */\n      0xffffffffffffffffffffffffffffffffffffffff\n      and\n        /* \"Arevea-NFT-Market/NFT-Contracts/newmultinft/ERC1155.sol\":4412:4416  from */\n      dup6\n        /* \"Arevea-NFT-Market/NFT-Contracts/newmultinft/ERC1155.sol\":4412:4432  from == _msgSender() */\n      0xffffffffffffffffffffffffffffffffffffffff\n      and\n      eq\n        /* \"Arevea-NFT-Market/NFT-Contracts/newmultinft/ERC1155.sol\":4412:4472  from == _msgSender() || isApprovedForAll(from, _msgSender()) */\n      dup1\n      tag_77\n      jumpi\n      pop\n        /* \"Arevea-NFT-Market/NFT-Contracts/newmultinft/ERC1155.sol\":4436:4472  isApprovedForAll(from, _msgSender()) */\n      tag_78\n        /* \"Arevea-NFT-Market/NFT-Contracts/newmultinft/ERC1155.sol\":4453:4457  from */\n      dup6\n        /* \"Arevea-NFT-Market/NFT-Contracts/newmultinft/ERC1155.sol\":4459:4471  _msgSender() */\n      tag_79\n        /* \"Arevea-NFT-Market/NFT-Contracts/newmultinft/ERC1155.sol\":4459:4469  _msgSender */\n      tag_76\n        /* \"Arevea-NFT-Market/NFT-Contracts/newmultinft/ERC1155.sol\":4459:4471  _msgSender() */\n      jump\t// in\n    tag_79:\n        /* \"Arevea-NFT-Market/NFT-Contracts/newmultinft/ERC1155.sol\":4436:4452  isApprovedForAll */\n      tag_52\n        /* \"Arevea-NFT-Market/NFT-Contracts/newmultinft/ERC1155.sol\":4436:4472  isApprovedForAll(from, _msgSender()) */\n      jump\t// in\n    tag_78:\n        /* \"Arevea-NFT-Market/NFT-Contracts/newmultinft/ERC1155.sol\":4412:4472  from == _msgSender() || isApprovedForAll(from, _msgSender()) */\n    tag_77:\n        /* \"Arevea-NFT-Market/NFT-Contracts/newmultinft/ERC1155.sol\":4390:4546  require(... */\n      tag_80\n      jumpi\n      mload(0x40)\n      0x08c379a000000000000000000000000000000000000000000000000000000000\n      dup2\n      mstore\n      0x04\n      add\n      tag_81\n      swap1\n      tag_82\n      jump\t// in\n    tag_81:\n      mload(0x40)\n      dup1\n      swap2\n      sub\n      swap1\n      revert\n    tag_80:\n        /* \"Arevea-NFT-Market/NFT-Contracts/newmultinft/ERC1155.sol\":4557:4609  _safeBatchTransferFrom(from, to, ids, amounts, data) */\n      tag_83\n        /* \"Arevea-NFT-Market/NFT-Contracts/newmultinft/ERC1155.sol\":4580:4584  from */\n      dup6\n        /* \"Arevea-NFT-Market/NFT-Contracts/newmultinft/ERC1155.sol\":4586:4588  to */\n      dup6\n        /* \"Arevea-NFT-Market/NFT-Contracts/newmultinft/ERC1155.sol\":4590:4593  ids */\n      dup6\n        /* \"Arevea-NFT-Market/NFT-Contracts/newmultinft/ERC1155.sol\":4595:4602  amounts */\n      dup6\n        /* \"Arevea-NFT-Market/NFT-Contracts/newmultinft/ERC1155.sol\":4604:4608  data */\n      dup6\n        /* \"Arevea-NFT-Market/NFT-Contracts/newmultinft/ERC1155.sol\":4557:4579  _safeBatchTransferFrom */\n      tag_84\n        /* \"Arevea-NFT-Market/NFT-Contracts/newmultinft/ERC1155.sol\":4557:4609  _safeBatchTransferFrom(from, to, ids, amounts, data) */\n      jump\t// in\n    tag_83:\n        /* \"Arevea-NFT-Market/NFT-Contracts/newmultinft/ERC1155.sol\":4179:4617  function safeBatchTransferFrom(... */\n      pop\n      pop\n      pop\n      pop\n      pop\n      jump\t// out\n        /* \"Arevea-NFT-Market/NFT-Contracts/newmultinft/ERC1155.sol\":2626:3150  function balanceOfBatch(address[] memory accounts, uint256[] memory ids)... */\n    tag_38:\n        /* \"Arevea-NFT-Market/NFT-Contracts/newmultinft/ERC1155.sol\":2782:2798  uint256[] memory */\n      0x60\n        /* \"Arevea-NFT-Market/NFT-Contracts/newmultinft/ERC1155.sol\":2843:2846  ids */\n      dup2\n        /* \"Arevea-NFT-Market/NFT-Contracts/newmultinft/ERC1155.sol\":2843:2853  ids.length */\n      mload\n        /* \"Arevea-NFT-Market/NFT-Contracts/newmultinft/ERC1155.sol\":2824:2832  accounts */\n      dup4\n        /* \"Arevea-NFT-Market/NFT-Contracts/newmultinft/ERC1155.sol\":2824:2839  accounts.length */\n      mload\n        /* \"Arevea-NFT-Market/NFT-Contracts/newmultinft/ERC1155.sol\":2824:2853  accounts.length == ids.length */\n      eq\n        /* \"Arevea-NFT-Market/NFT-Contracts/newmultinft/ERC1155.sol\":2816:2899  require(accounts.length == ids.length, \"ERC1155: accounts and ids length mismatch\") */\n      tag_86\n      jumpi\n      mload(0x40)\n      0x08c379a000000000000000000000000000000000000000000000000000000000\n      dup2\n      mstore\n      0x04\n      add\n      tag_87\n      swap1\n      tag_88\n      jump\t// in\n    tag_87:\n      mload(0x40)\n      dup1\n      swap2\n      sub\n      swap1\n      revert\n    tag_86:\n        /* \"Arevea-NFT-Market/NFT-Contracts/newmultinft/ERC1155.sol\":2912:2942  uint256[] memory batchBalances */\n      0x00\n        /* \"Arevea-NFT-Market/NFT-Contracts/newmultinft/ERC1155.sol\":2959:2967  accounts */\n      dup4\n        /* \"Arevea-NFT-Market/NFT-Contracts/newmultinft/ERC1155.sol\":2959:2974  accounts.length */\n      mload\n        /* \"Arevea-NFT-Market/NFT-Contracts/newmultinft/ERC1155.sol\":2945:2975  new uint256[](accounts.length) */\n      0xffffffffffffffff\n      dup2\n      gt\n      iszero\n      tag_89\n      jumpi\n      tag_90\n      tag_91\n      jump\t// in\n    tag_90:\n    tag_89:\n      mload(0x40)\n      swap1\n      dup1\n      dup3\n      mstore\n      dup1\n      0x20\n      mul\n      0x20\n      add\n      dup3\n      add\n      0x40\n      mstore\n      dup1\n      iszero\n      tag_92\n      jumpi\n      dup2\n      0x20\n      add\n      0x20\n      dup3\n      mul\n      dup1\n      calldatasize\n      dup4\n      calldatacopy\n      dup1\n      dup3\n      add\n      swap2\n      pop\n      pop\n      swap1\n      pop\n    tag_92:\n      pop\n        /* \"Arevea-NFT-Market/NFT-Contracts/newmultinft/ERC1155.sol\":2912:2975  uint256[] memory batchBalances = new uint256[](accounts.length) */\n      swap1\n      pop\n        /* \"Arevea-NFT-Market/NFT-Contracts/newmultinft/ERC1155.sol\":2993:3002  uint256 i */\n      0x00\n        /* \"Arevea-NFT-Market/NFT-Contracts/newmultinft/ERC1155.sol\":2988:3110  for (uint256 i = 0; i < accounts.length; ++i) {... */\n    tag_93:\n        /* \"Arevea-NFT-Market/NFT-Contracts/newmultinft/ERC1155.sol\":3012:3020  accounts */\n      dup5\n        /* \"Arevea-NFT-Market/NFT-Contracts/newmultinft/ERC1155.sol\":3012:3027  accounts.length */\n      mload\n        /* \"Arevea-NFT-Market/NFT-Contracts/newmultinft/ERC1155.sol\":3008:3009  i */\n      dup2\n        /* \"Arevea-NFT-Market/NFT-Contracts/newmultinft/ERC1155.sol\":3008:3027  i < accounts.length */\n      lt\n        /* \"Arevea-NFT-Market/NFT-Contracts/newmultinft/ERC1155.sol\":2988:3110  for (uint256 i = 0; i < accounts.length; ++i) {... */\n      iszero\n      tag_94\n      jumpi\n        /* \"Arevea-NFT-Market/NFT-Contracts/newmultinft/ERC1155.sol\":3068:3098  balanceOf(accounts[i], ids[i]) */\n      tag_96\n        /* \"Arevea-NFT-Market/NFT-Contracts/newmultinft/ERC1155.sol\":3078:3086  accounts */\n      dup6\n        /* \"Arevea-NFT-Market/NFT-Contracts/newmultinft/ERC1155.sol\":3087:3088  i */\n      dup3\n        /* \"Arevea-NFT-Market/NFT-Contracts/newmultinft/ERC1155.sol\":3078:3089  accounts[i] */\n      dup2\n      mload\n      dup2\n      lt\n      tag_97\n      jumpi\n      tag_98\n      tag_99\n      jump\t// in\n    tag_98:\n    tag_97:\n      0x20\n      mul\n      0x20\n      add\n      add\n      mload\n        /* \"Arevea-NFT-Market/NFT-Contracts/newmultinft/ERC1155.sol\":3091:3094  ids */\n      dup6\n        /* \"Arevea-NFT-Market/NFT-Contracts/newmultinft/ERC1155.sol\":3095:3096  i */\n      dup4\n        /* \"Arevea-NFT-Market/NFT-Contracts/newmultinft/ERC1155.sol\":3091:3097  ids[i] */\n      dup2\n      mload\n      dup2\n      lt\n      tag_100\n      jumpi\n      tag_101\n      tag_99\n      jump\t// in\n    tag_101:\n    tag_100:\n      0x20\n      mul\n      0x20\n      add\n      add\n      mload\n        /* \"Arevea-NFT-Market/NFT-Contracts/newmultinft/ERC1155.sol\":3068:3077  balanceOf */\n      tag_16\n        /* \"Arevea-NFT-Market/NFT-Contracts/newmultinft/ERC1155.sol\":3068:3098  balanceOf(accounts[i], ids[i]) */\n      jump\t// in\n    tag_96:\n        /* \"Arevea-NFT-Market/NFT-Contracts/newmultinft/ERC1155.sol\":3049:3062  batchBalances */\n      dup3\n        /* \"Arevea-NFT-Market/NFT-Contracts/newmultinft/ERC1155.sol\":3063:3064  i */\n      dup3\n        /* \"Arevea-NFT-Market/NFT-Contracts/newmultinft/ERC1155.sol\":3049:3065  batchBalances[i] */\n      dup2\n      mload\n      dup2\n      lt\n      tag_102\n      jumpi\n      tag_103\n      tag_99\n      jump\t// in\n    tag_103:\n    tag_102:\n      0x20\n      mul\n      0x20\n      add\n      add\n        /* \"Arevea-NFT-Market/NFT-Contracts/newmultinft/ERC1155.sol\":3049:3098  batchBalances[i] = balanceOf(accounts[i], ids[i]) */\n      dup2\n      dup2\n      mstore\n      pop\n      pop\n        /* \"Arevea-NFT-Market/NFT-Contracts/newmultinft/ERC1155.sol\":3029:3032  ++i */\n      dup1\n      tag_104\n      swap1\n      tag_105\n      jump\t// in\n    tag_104:\n      swap1\n      pop\n        /* \"Arevea-NFT-Market/NFT-Contracts/newmultinft/ERC1155.sol\":2988:3110  for (uint256 i = 0; i < accounts.length; ++i) {... */\n      jump(tag_93)\n    tag_94:\n      pop\n        /* \"Arevea-NFT-Market/NFT-Contracts/newmultinft/ERC1155.sol\":3129:3142  batchBalances */\n      dup1\n        /* \"Arevea-NFT-Market/NFT-Contracts/newmultinft/ERC1155.sol\":3122:3142  return batchBalances */\n      swap2\n      pop\n      pop\n        /* \"Arevea-NFT-Market/NFT-Contracts/newmultinft/ERC1155.sol\":2626:3150  function balanceOfBatch(address[] memory accounts, uint256[] memory ids)... */\n      swap3\n      swap2\n      pop\n      pop\n      jump\t// out\n        /* \"Arevea-NFT-Market/NFT-Contracts/newmultinft/ERC1155.sol\":3223:3378  function setApprovalForAll(address operator, bool approved) public virtual override {... */\n    tag_44:\n        /* \"Arevea-NFT-Market/NFT-Contracts/newmultinft/ERC1155.sol\":3318:3370  _setApprovalForAll(_msgSender(), operator, approved) */\n      tag_107\n        /* \"Arevea-NFT-Market/NFT-Contracts/newmultinft/ERC1155.sol\":3337:3349  _msgSender() */\n      tag_108\n        /* \"Arevea-NFT-Market/NFT-Contracts/newmultinft/ERC1155.sol\":3337:3347  _msgSender */\n      tag_76\n        /* \"Arevea-NFT-Market/NFT-Contracts/newmultinft/ERC1155.sol\":3337:3349  _msgSender() */\n      jump\t// in\n    tag_108:\n        /* \"Arevea-NFT-Market/NFT-Contracts/newmultinft/ERC1155.sol\":3351:3359  operator */\n      dup4\n        /* \"Arevea-NFT-Market/NFT-Contracts/newmultinft/ERC1155.sol\":3361:3369  approved */\n      dup4\n        /* \"Arevea-NFT-Market/NFT-Contracts/newmultinft/ERC1155.sol\":3318:3336  _setApprovalForAll */\n      tag_109\n        /* \"Arevea-NFT-Market/NFT-Contracts/newmultinft/ERC1155.sol\":3318:3370  _setApprovalForAll(_msgSender(), operator, approved) */\n      jump\t// in\n    tag_107:\n        /* \"Arevea-NFT-Market/NFT-Contracts/newmultinft/ERC1155.sol\":3223:3378  function setApprovalForAll(address operator, bool approved) public virtual override {... */\n      pop\n      pop\n      jump\t// out\n        /* \"Arevea-NFT-Market/NFT-Contracts/newmultinft/ERC1155.sol\":10049:10150  function totalSupply(uint id) external view virtual returns (uint256) {... */\n    tag_47:\n        /* \"Arevea-NFT-Market/NFT-Contracts/newmultinft/ERC1155.sol\":10110:10117  uint256 */\n      0x00\n        /* \"Arevea-NFT-Market/NFT-Contracts/newmultinft/ERC1155.sol\":10137:10139  id */\n      dup2\n        /* \"Arevea-NFT-Market/NFT-Contracts/newmultinft/ERC1155.sol\":10130:10139  return id */\n      swap1\n      pop\n        /* \"Arevea-NFT-Market/NFT-Contracts/newmultinft/ERC1155.sol\":10049:10150  function totalSupply(uint id) external view virtual returns (uint256) {... */\n      swap2\n      swap1\n      pop\n      jump\t// out\n        /* \"Arevea-NFT-Market/NFT-Contracts/newmultinft/ERC1155.sol\":3456:3624  function isApprovedForAll(address account, address operator) public view virtual override returns (bool) {... */\n    tag_52:\n        /* \"Arevea-NFT-Market/NFT-Contracts/newmultinft/ERC1155.sol\":3555:3559  bool */\n      0x00\n        /* \"Arevea-NFT-Market/NFT-Contracts/newmultinft/ERC1155.sol\":3579:3597  _operatorApprovals */\n      0x01\n        /* \"Arevea-NFT-Market/NFT-Contracts/newmultinft/ERC1155.sol\":3579:3606  _operatorApprovals[account] */\n      0x00\n        /* \"Arevea-NFT-Market/NFT-Contracts/newmultinft/ERC1155.sol\":3598:3605  account */\n      dup5\n        /* \"Arevea-NFT-Market/NFT-Contracts/newmultinft/ERC1155.sol\":3579:3606  _operatorApprovals[account] */\n      0xffffffffffffffffffffffffffffffffffffffff\n      and\n      0xffffffffffffffffffffffffffffffffffffffff\n      and\n      dup2\n      mstore\n      0x20\n      add\n      swap1\n      dup2\n      mstore\n      0x20\n      add\n      0x00\n      keccak256\n        /* \"Arevea-NFT-Market/NFT-Contracts/newmultinft/ERC1155.sol\":3579:3616  _operatorApprovals[account][operator] */\n      0x00\n        /* \"Arevea-NFT-Market/NFT-Contracts/newmultinft/ERC1155.sol\":3607:3615  operator */\n      dup4\n        /* \"Arevea-NFT-Market/NFT-Contracts/newmultinft/ERC1155.sol\":3579:3616  _operatorApprovals[account][operator] */\n      0xffffffffffffffffffffffffffffffffffffffff\n      and\n      0xffffffffffffffffffffffffffffffffffffffff\n      and\n      dup2\n      mstore\n      0x20\n      add\n      swap1\n      dup2\n      mstore\n      0x20\n      add\n      0x00\n      keccak256\n      0x00\n      swap1\n      sload\n      swap1\n      0x0100\n      exp\n      swap1\n      div\n      0xff\n      and\n        /* \"Arevea-NFT-Market/NFT-Contracts/newmultinft/ERC1155.sol\":3572:3616  return _operatorApprovals[account][operator] */\n      swap1\n      pop\n        /* \"Arevea-NFT-Market/NFT-Contracts/newmultinft/ERC1155.sol\":3456:3624  function isApprovedForAll(address account, address operator) public view virtual override returns (bool) {... */\n      swap3\n      swap2\n      pop\n      pop\n      jump\t// out\n        /* \"Arevea-NFT-Market/NFT-Contracts/newmultinft/ERC1155.sol\":3696:4102  function safeTransferFrom(... */\n    tag_57:\n        /* \"Arevea-NFT-Market/NFT-Contracts/newmultinft/ERC1155.sol\":3912:3924  _msgSender() */\n      tag_113\n        /* \"Arevea-NFT-Market/NFT-Contracts/newmultinft/ERC1155.sol\":3912:3922  _msgSender */\n      tag_76\n        /* \"Arevea-NFT-Market/NFT-Contracts/newmultinft/ERC1155.sol\":3912:3924  _msgSender() */\n      jump\t// in\n    tag_113:\n        /* \"Arevea-NFT-Market/NFT-Contracts/newmultinft/ERC1155.sol\":3904:3924  from == _msgSender() */\n      0xffffffffffffffffffffffffffffffffffffffff\n      and\n        /* \"Arevea-NFT-Market/NFT-Contracts/newmultinft/ERC1155.sol\":3904:3908  from */\n      dup6\n        /* \"Arevea-NFT-Market/NFT-Contracts/newmultinft/ERC1155.sol\":3904:3924  from == _msgSender() */\n      0xffffffffffffffffffffffffffffffffffffffff\n      and\n      eq\n        /* \"Arevea-NFT-Market/NFT-Contracts/newmultinft/ERC1155.sol\":3904:3964  from == _msgSender() || isApprovedForAll(from, _msgSender()) */\n      dup1\n      tag_114\n      jumpi\n      pop\n        /* \"Arevea-NFT-Market/NFT-Contracts/newmultinft/ERC1155.sol\":3928:3964  isApprovedForAll(from, _msgSender()) */\n      tag_115\n        /* \"Arevea-NFT-Market/NFT-Contracts/newmultinft/ERC1155.sol\":3945:3949  from */\n      dup6\n        /* \"Arevea-NFT-Market/NFT-Contracts/newmultinft/ERC1155.sol\":3951:3963  _msgSender() */\n      tag_116\n        /* \"Arevea-NFT-Market/NFT-Contracts/newmultinft/ERC1155.sol\":3951:3961  _msgSender */\n      tag_76\n        /* \"Arevea-NFT-Market/NFT-Contracts/newmultinft/ERC1155.sol\":3951:3963  _msgSender() */\n      jump\t// in\n    tag_116:\n        /* \"Arevea-NFT-Market/NFT-Contracts/newmultinft/ERC1155.sol\":3928:3944  isApprovedForAll */\n      tag_52\n        /* \"Arevea-NFT-Market/NFT-Contracts/newmultinft/ERC1155.sol\":3928:3964  isApprovedForAll(from, _msgSender()) */\n      jump\t// in\n    tag_115:\n        /* \"Arevea-NFT-Market/NFT-Contracts/newmultinft/ERC1155.sol\":3904:3964  from == _msgSender() || isApprovedForAll(from, _msgSender()) */\n    tag_114:\n        /* \"Arevea-NFT-Market/NFT-Contracts/newmultinft/ERC1155.sol\":3882:4038  require(... */\n      tag_117\n      jumpi\n      mload(0x40)\n      0x08c379a000000000000000000000000000000000000000000000000000000000\n      dup2\n      mstore\n      0x04\n      add\n      tag_118\n      swap1\n      tag_82\n      jump\t// in\n    tag_118:\n      mload(0x40)\n      dup1\n      swap2\n      sub\n      swap1\n      revert\n    tag_117:\n        /* \"Arevea-NFT-Market/NFT-Contracts/newmultinft/ERC1155.sol\":4049:4094  _safeTransferFrom(from, to, id, amount, data) */\n      tag_119\n        /* \"Arevea-NFT-Market/NFT-Contracts/newmultinft/ERC1155.sol\":4067:4071  from */\n      dup6\n        /* \"Arevea-NFT-Market/NFT-Contracts/newmultinft/ERC1155.sol\":4073:4075  to */\n      dup6\n        /* \"Arevea-NFT-Market/NFT-Contracts/newmultinft/ERC1155.sol\":4077:4079  id */\n      dup6\n        /* \"Arevea-NFT-Market/NFT-Contracts/newmultinft/ERC1155.sol\":4081:4087  amount */\n      dup6\n        /* \"Arevea-NFT-Market/NFT-Contracts/newmultinft/ERC1155.sol\":4089:4093  data */\n      dup6\n        /* \"Arevea-NFT-Market/NFT-Contracts/newmultinft/ERC1155.sol\":4049:4066  _safeTransferFrom */\n      tag_120\n        /* \"Arevea-NFT-Market/NFT-Contracts/newmultinft/ERC1155.sol\":4049:4094  _safeTransferFrom(from, to, id, amount, data) */\n      jump\t// in\n    tag_119:\n        /* \"Arevea-NFT-Market/NFT-Contracts/newmultinft/ERC1155.sol\":3696:4102  function safeTransferFrom(... */\n      pop\n      pop\n      pop\n      pop\n      pop\n      jump\t// out\n        /* \"Arevea-NFT-Market/NFT-Contracts/newmultinft/ERC165.sol\":854:1011  function supportsInterface(bytes4 interfaceId) public view virtual override returns (bool) {... */\n    tag_66:\n        /* \"Arevea-NFT-Market/NFT-Contracts/newmultinft/ERC165.sol\":939:943  bool */\n      0x00\n        /* \"Arevea-NFT-Market/NFT-Contracts/newmultinft/ERC165.sol\":978:1003  type(IERC165).interfaceId */\n      0x01ffc9a700000000000000000000000000000000000000000000000000000000\n        /* \"Arevea-NFT-Market/NFT-Contracts/newmultinft/ERC165.sol\":963:1003  interfaceId == type(IERC165).interfaceId */\n      not(0xffffffffffffffffffffffffffffffffffffffffffffffffffffffff)\n      and\n        /* \"Arevea-NFT-Market/NFT-Contracts/newmultinft/ERC165.sol\":963:974  interfaceId */\n      dup3\n        /* \"Arevea-NFT-Market/NFT-Contracts/newmultinft/ERC165.sol\":963:1003  interfaceId == type(IERC165).interfaceId */\n      not(0xffffffffffffffffffffffffffffffffffffffffffffffffffffffff)\n      and\n      eq\n        /* \"Arevea-NFT-Market/NFT-Contracts/newmultinft/ERC165.sol\":956:1003  return interfaceId == type(IERC165).interfaceId */\n      swap1\n      pop\n        /* \"Arevea-NFT-Market/NFT-Contracts/newmultinft/ERC165.sol\":854:1011  function supportsInterface(bytes4 interfaceId) public view virtual override returns (bool) {... */\n      swap2\n      swap1\n      pop\n      jump\t// out\n        /* \"Arevea-NFT-Market/NFT-Contracts/newmultinft/Context.sol\":656:754  function _msgSender() internal view virtual returns (address) {... */\n    tag_76:\n        /* \"Arevea-NFT-Market/NFT-Contracts/newmultinft/Context.sol\":709:716  address */\n      0x00\n        /* \"Arevea-NFT-Market/NFT-Contracts/newmultinft/Context.sol\":736:746  msg.sender */\n      caller\n        /* \"Arevea-NFT-Market/NFT-Contracts/newmultinft/Context.sol\":729:746  return msg.sender */\n      swap1\n      pop\n        /* \"Arevea-NFT-Market/NFT-Contracts/newmultinft/Context.sol\":656:754  function _msgSender() internal view virtual returns (address) {... */\n      swap1\n      jump\t// out\n        /* \"Arevea-NFT-Market/NFT-Contracts/newmultinft/ERC1155.sol\":6413:7559  function _safeBatchTransferFrom(... */\n    tag_84:\n        /* \"Arevea-NFT-Market/NFT-Contracts/newmultinft/ERC1155.sol\":6640:6647  amounts */\n      dup2\n        /* \"Arevea-NFT-Market/NFT-Contracts/newmultinft/ERC1155.sol\":6640:6654  amounts.length */\n      mload\n        /* \"Arevea-NFT-Market/NFT-Contracts/newmultinft/ERC1155.sol\":6626:6629  ids */\n      dup4\n        /* \"Arevea-NFT-Market/NFT-Contracts/newmultinft/ERC1155.sol\":6626:6636  ids.length */\n      mload\n        /* \"Arevea-NFT-Market/NFT-Contracts/newmultinft/ERC1155.sol\":6626:6654  ids.length == amounts.length */\n      eq\n        /* \"Arevea-NFT-Market/NFT-Contracts/newmultinft/ERC1155.sol\":6618:6699  require(ids.length == amounts.length, \"ERC1155: ids and amounts length mismatch\") */\n      tag_124\n      jumpi\n      mload(0x40)\n      0x08c379a000000000000000000000000000000000000000000000000000000000\n      dup2\n      mstore\n      0x04\n      add\n      tag_125\n      swap1\n      tag_126\n      jump\t// in\n    tag_125:\n      mload(0x40)\n      dup1\n      swap2\n      sub\n      swap1\n      revert\n    tag_124:\n        /* \"Arevea-NFT-Market/NFT-Contracts/newmultinft/ERC1155.sol\":6732:6733  0 */\n      0x00\n        /* \"Arevea-NFT-Market/NFT-Contracts/newmultinft/ERC1155.sol\":6718:6734  to != address(0) */\n      0xffffffffffffffffffffffffffffffffffffffff\n      and\n        /* \"Arevea-NFT-Market/NFT-Contracts/newmultinft/ERC1155.sol\":6718:6720  to */\n      dup5\n        /* \"Arevea-NFT-Market/NFT-Contracts/newmultinft/ERC1155.sol\":6718:6734  to != address(0) */\n      0xffffffffffffffffffffffffffffffffffffffff\n      and\n      sub\n        /* \"Arevea-NFT-Market/NFT-Contracts/newmultinft/ERC1155.sol\":6710:6776  require(to != address(0), \"ERC1155: transfer to the zero address\") */\n      tag_127\n      jumpi\n      mload(0x40)\n      0x08c379a000000000000000000000000000000000000000000000000000000000\n      dup2\n      mstore\n      0x04\n      add\n      tag_128\n      swap1\n      tag_129\n      jump\t// in\n    tag_128:\n      mload(0x40)\n      dup1\n      swap2\n      sub\n      swap1\n      revert\n    tag_127:\n        /* \"Arevea-NFT-Market/NFT-Contracts/newmultinft/ERC1155.sol\":6789:6805  address operator */\n      0x00\n        /* \"Arevea-NFT-Market/NFT-Contracts/newmultinft/ERC1155.sol\":6808:6820  _msgSender() */\n      tag_130\n        /* \"Arevea-NFT-Market/NFT-Contracts/newmultinft/ERC1155.sol\":6808:6818  _msgSender */\n      tag_76\n        /* \"Arevea-NFT-Market/NFT-Contracts/newmultinft/ERC1155.sol\":6808:6820  _msgSender() */\n      jump\t// in\n    tag_130:\n        /* \"Arevea-NFT-Market/NFT-Contracts/newmultinft/ERC1155.sol\":6789:6820  address operator = _msgSender() */\n      swap1\n      pop\n        /* \"Arevea-NFT-Market/NFT-Contracts/newmultinft/ERC1155.sol\":6833:6893  _beforeTokenTransfer(operator, from, to, ids, amounts, data) */\n      tag_131\n        /* \"Arevea-NFT-Market/NFT-Contracts/newmultinft/ERC1155.sol\":6854:6862  operator */\n      dup2\n        /* \"Arevea-NFT-Market/NFT-Contracts/newmultinft/ERC1155.sol\":6864:6868  from */\n      dup8\n        /* \"Arevea-NFT-Market/NFT-Contracts/newmultinft/ERC1155.sol\":6870:6872  to */\n      dup8\n        /* \"Arevea-NFT-Market/NFT-Contracts/newmultinft/ERC1155.sol\":6874:6877  ids */\n      dup8\n        /* \"Arevea-NFT-Market/NFT-Contracts/newmultinft/ERC1155.sol\":6879:6886  amounts */\n      dup8\n        /* \"Arevea-NFT-Market/NFT-Contracts/newmultinft/ERC1155.sol\":6888:6892  data */\n      dup8\n        /* \"Arevea-NFT-Market/NFT-Contracts/newmultinft/ERC1155.sol\":6833:6853  _beforeTokenTransfer */\n      tag_132\n        /* \"Arevea-NFT-Market/NFT-Contracts/newmultinft/ERC1155.sol\":6833:6893  _beforeTokenTransfer(operator, from, to, ids, amounts, data) */\n      jump\t// in\n    tag_131:\n        /* \"Arevea-NFT-Market/NFT-Contracts/newmultinft/ERC1155.sol\":6911:6920  uint256 i */\n      0x00\n        /* \"Arevea-NFT-Market/NFT-Contracts/newmultinft/ERC1155.sol\":6906:7327  for (uint256 i = 0; i < ids.length; ++i) {... */\n    tag_133:\n        /* \"Arevea-NFT-Market/NFT-Contracts/newmultinft/ERC1155.sol\":6930:6933  ids */\n      dup5\n        /* \"Arevea-NFT-Market/NFT-Contracts/newmultinft/ERC1155.sol\":6930:6940  ids.length */\n      mload\n        /* \"Arevea-NFT-Market/NFT-Contracts/newmultinft/ERC1155.sol\":6926:6927  i */\n      dup2\n        /* \"Arevea-NFT-Market/NFT-Contracts/newmultinft/ERC1155.sol\":6926:6940  i < ids.length */\n      lt\n        /* \"Arevea-NFT-Market/NFT-Contracts/newmultinft/ERC1155.sol\":6906:7327  for (uint256 i = 0; i < ids.length; ++i) {... */\n      iszero\n      tag_134\n      jumpi\n        /* \"Arevea-NFT-Market/NFT-Contracts/newmultinft/ERC1155.sol\":6962:6972  uint256 id */\n      0x00\n        /* \"Arevea-NFT-Market/NFT-Contracts/newmultinft/ERC1155.sol\":6975:6978  ids */\n      dup6\n        /* \"Arevea-NFT-Market/NFT-Contracts/newmultinft/ERC1155.sol\":6979:6980  i */\n      dup3\n        /* \"Arevea-NFT-Market/NFT-Contracts/newmultinft/ERC1155.sol\":6975:6981  ids[i] */\n      dup2\n      mload\n      dup2\n      lt\n      tag_136\n      jumpi\n      tag_137\n      tag_99\n      jump\t// in\n    tag_137:\n    tag_136:\n      0x20\n      mul\n      0x20\n      add\n      add\n      mload\n        /* \"Arevea-NFT-Market/NFT-Contracts/newmultinft/ERC1155.sol\":6962:6981  uint256 id = ids[i] */\n      swap1\n      pop\n        /* \"Arevea-NFT-Market/NFT-Contracts/newmultinft/ERC1155.sol\":6996:7010  uint256 amount */\n      0x00\n        /* \"Arevea-NFT-Market/NFT-Contracts/newmultinft/ERC1155.sol\":7013:7020  amounts */\n      dup6\n        /* \"Arevea-NFT-Market/NFT-Contracts/newmultinft/ERC1155.sol\":7021:7022  i */\n      dup4\n        /* \"Arevea-NFT-Market/NFT-Contracts/newmultinft/ERC1155.sol\":7013:7023  amounts[i] */\n      dup2\n      mload\n      dup2\n      lt\n      tag_138\n      jumpi\n      tag_139\n      tag_99\n      jump\t// in\n    tag_139:\n    tag_138:\n      0x20\n      mul\n      0x20\n      add\n      add\n      mload\n        /* \"Arevea-NFT-Market/NFT-Contracts/newmultinft/ERC1155.sol\":6996:7023  uint256 amount = amounts[i] */\n      swap1\n      pop\n        /* \"Arevea-NFT-Market/NFT-Contracts/newmultinft/ERC1155.sol\":7040:7059  uint256 fromBalance */\n      0x00\n        /* \"Arevea-NFT-Market/NFT-Contracts/newmultinft/ERC1155.sol\":7062:7071  _balances */\n      dup1\n        /* \"Arevea-NFT-Market/NFT-Contracts/newmultinft/ERC1155.sol\":7062:7075  _balances[id] */\n      0x00\n        /* \"Arevea-NFT-Market/NFT-Contracts/newmultinft/ERC1155.sol\":7072:7074  id */\n      dup5\n        /* \"Arevea-NFT-Market/NFT-Contracts/newmultinft/ERC1155.sol\":7062:7075  _balances[id] */\n      dup2\n      mstore\n      0x20\n      add\n      swap1\n      dup2\n      mstore\n      0x20\n      add\n      0x00\n      keccak256\n        /* \"Arevea-NFT-Market/NFT-Contracts/newmultinft/ERC1155.sol\":7062:7081  _balances[id][from] */\n      0x00\n        /* \"Arevea-NFT-Market/NFT-Contracts/newmultinft/ERC1155.sol\":7076:7080  from */\n      dup12\n        /* \"Arevea-NFT-Market/NFT-Contracts/newmultinft/ERC1155.sol\":7062:7081  _balances[id][from] */\n      0xffffffffffffffffffffffffffffffffffffffff\n      and\n      0xffffffffffffffffffffffffffffffffffffffff\n      and\n      dup2\n      mstore\n      0x20\n      add\n      swap1\n      dup2\n      mstore\n      0x20\n      add\n      0x00\n      keccak256\n      sload\n        /* \"Arevea-NFT-Market/NFT-Contracts/newmultinft/ERC1155.sol\":7040:7081  uint256 fromBalance = _balances[id][from] */\n      swap1\n      pop\n        /* \"Arevea-NFT-Market/NFT-Contracts/newmultinft/ERC1155.sol\":7119:7125  amount */\n      dup2\n        /* \"Arevea-NFT-Market/NFT-Contracts/newmultinft/ERC1155.sol\":7104:7115  fromBalance */\n      dup2\n        /* \"Arevea-NFT-Market/NFT-Contracts/newmultinft/ERC1155.sol\":7104:7125  fromBalance >= amount */\n      lt\n      iszero\n        /* \"Arevea-NFT-Market/NFT-Contracts/newmultinft/ERC1155.sol\":7096:7172  require(fromBalance >= amount, \"ERC1155: insufficient balance for transfer\") */\n      tag_140\n      jumpi\n      mload(0x40)\n      0x08c379a000000000000000000000000000000000000000000000000000000000\n      dup2\n      mstore\n      0x04\n      add\n      tag_141\n      swap1\n      tag_142\n      jump\t// in\n    tag_141:\n      mload(0x40)\n      dup1\n      swap2\n      sub\n      swap1\n      revert\n    tag_140:\n        /* \"Arevea-NFT-Market/NFT-Contracts/newmultinft/ERC1155.sol\":7252:7258  amount */\n      dup2\n        /* \"Arevea-NFT-Market/NFT-Contracts/newmultinft/ERC1155.sol\":7238:7249  fromBalance */\n      dup2\n        /* \"Arevea-NFT-Market/NFT-Contracts/newmultinft/ERC1155.sol\":7238:7258  fromBalance - amount */\n      sub\n        /* \"Arevea-NFT-Market/NFT-Contracts/newmultinft/ERC1155.sol\":7216:7225  _balances */\n      0x00\n        /* \"Arevea-NFT-Market/NFT-Contracts/newmultinft/ERC1155.sol\":7216:7229  _balances[id] */\n      dup1\n        /* \"Arevea-NFT-Market/NFT-Contracts/newmultinft/ERC1155.sol\":7226:7228  id */\n      dup6\n        /* \"Arevea-NFT-Market/NFT-Contracts/newmultinft/ERC1155.sol\":7216:7229  _balances[id] */\n      dup2\n      mstore\n      0x20\n      add\n      swap1\n      dup2\n      mstore\n      0x20\n      add\n      0x00\n      keccak256\n        /* \"Arevea-NFT-Market/NFT-Contracts/newmultinft/ERC1155.sol\":7216:7235  _balances[id][from] */\n      0x00\n        /* \"Arevea-NFT-Market/NFT-Contracts/newmultinft/ERC1155.sol\":7230:7234  from */\n      dup13\n        /* \"Arevea-NFT-Market/NFT-Contracts/newmultinft/ERC1155.sol\":7216:7235  _balances[id][from] */\n      0xffffffffffffffffffffffffffffffffffffffff\n      and\n      0xffffffffffffffffffffffffffffffffffffffff\n      and\n      dup2\n      mstore\n      0x20\n      add\n      swap1\n      dup2\n      mstore\n      0x20\n      add\n      0x00\n      keccak256\n        /* \"Arevea-NFT-Market/NFT-Contracts/newmultinft/ERC1155.sol\":7216:7258  _balances[id][from] = fromBalance - amount */\n      dup2\n      swap1\n      sstore\n      pop\n        /* \"Arevea-NFT-Market/NFT-Contracts/newmultinft/ERC1155.sol\":7309:7315  amount */\n      dup2\n        /* \"Arevea-NFT-Market/NFT-Contracts/newmultinft/ERC1155.sol\":7288:7297  _balances */\n      0x00\n        /* \"Arevea-NFT-Market/NFT-Contracts/newmultinft/ERC1155.sol\":7288:7301  _balances[id] */\n      dup1\n        /* \"Arevea-NFT-Market/NFT-Contracts/newmultinft/ERC1155.sol\":7298:7300  id */\n      dup6\n        /* \"Arevea-NFT-Market/NFT-Contracts/newmultinft/ERC1155.sol\":7288:7301  _balances[id] */\n      dup2\n      mstore\n      0x20\n      add\n      swap1\n      dup2\n      mstore\n      0x20\n      add\n      0x00\n      keccak256\n        /* \"Arevea-NFT-Market/NFT-Contracts/newmultinft/ERC1155.sol\":7288:7305  _balances[id][to] */\n      0x00\n        /* \"Arevea-NFT-Market/NFT-Contracts/newmultinft/ERC1155.sol\":7302:7304  to */\n      dup12\n        /* \"Arevea-NFT-Market/NFT-Contracts/newmultinft/ERC1155.sol\":7288:7305  _balances[id][to] */\n      0xffffffffffffffffffffffffffffffffffffffff\n      and\n      0xffffffffffffffffffffffffffffffffffffffff\n      and\n      dup2\n      mstore\n      0x20\n      add\n      swap1\n      dup2\n      mstore\n      0x20\n      add\n      0x00\n      keccak256\n      0x00\n        /* \"Arevea-NFT-Market/NFT-Contracts/newmultinft/ERC1155.sol\":7288:7315  _balances[id][to] += amount */\n      dup3\n      dup3\n      sload\n      tag_143\n      swap2\n      swap1\n      tag_144\n      jump\t// in\n    tag_143:\n      swap3\n      pop\n      pop\n      dup2\n      swap1\n      sstore\n      pop\n        /* \"Arevea-NFT-Market/NFT-Contracts/newmultinft/ERC1155.sol\":6947:7327  {... */\n      pop\n      pop\n      pop\n        /* \"Arevea-NFT-Market/NFT-Contracts/newmultinft/ERC1155.sol\":6942:6945  ++i */\n      dup1\n      tag_145\n      swap1\n      tag_105\n      jump\t// in\n    tag_145:\n      swap1\n      pop\n        /* \"Arevea-NFT-Market/NFT-Contracts/newmultinft/ERC1155.sol\":6906:7327  for (uint256 i = 0; i < ids.length; ++i) {... */\n      jump(tag_133)\n    tag_134:\n      pop\n        /* \"Arevea-NFT-Market/NFT-Contracts/newmultinft/ERC1155.sol\":7374:7376  to */\n      dup5\n        /* \"Arevea-NFT-Market/NFT-Contracts/newmultinft/ERC1155.sol\":7344:7391  TransferBatch(operator, from, to, ids, amounts) */\n      0xffffffffffffffffffffffffffffffffffffffff\n      and\n        /* \"Arevea-NFT-Market/NFT-Contracts/newmultinft/ERC1155.sol\":7368:7372  from */\n      dup7\n        /* \"Arevea-NFT-Market/NFT-Contracts/newmultinft/ERC1155.sol\":7344:7391  TransferBatch(operator, from, to, ids, amounts) */\n      0xffffffffffffffffffffffffffffffffffffffff\n      and\n        /* \"Arevea-NFT-Market/NFT-Contracts/newmultinft/ERC1155.sol\":7358:7366  operator */\n      dup3\n        /* \"Arevea-NFT-Market/NFT-Contracts/newmultinft/ERC1155.sol\":7344:7391  TransferBatch(operator, from, to, ids, amounts) */\n      0xffffffffffffffffffffffffffffffffffffffff\n      and\n      0x4a39dc06d4c0dbc64b70af90fd698a233a518aa5d07e595d983b8c0526c8f7fb\n        /* \"Arevea-NFT-Market/NFT-Contracts/newmultinft/ERC1155.sol\":7378:7381  ids */\n      dup8\n        /* \"Arevea-NFT-Market/NFT-Contracts/newmultinft/ERC1155.sol\":7383:7390  amounts */\n      dup8\n        /* \"Arevea-NFT-Market/NFT-Contracts/newmultinft/ERC1155.sol\":7344:7391  TransferBatch(operator, from, to, ids, amounts) */\n      mload(0x40)\n      tag_146\n      swap3\n      swap2\n      swap1\n      tag_147\n      jump\t// in\n    tag_146:\n      mload(0x40)\n      dup1\n      swap2\n      sub\n      swap1\n      log4\n        /* \"Arevea-NFT-Market/NFT-Contracts/newmultinft/ERC1155.sol\":7404:7463  _afterTokenTransfer(operator, from, to, ids, amounts, data) */\n      tag_148\n        /* \"Arevea-NFT-Market/NFT-Contracts/newmultinft/ERC1155.sol\":7424:7432  operator */\n      dup2\n        /* \"Arevea-NFT-Market/NFT-Contracts/newmultinft/ERC1155.sol\":7434:7438  from */\n      dup8\n        /* \"Arevea-NFT-Market/NFT-Contracts/newmultinft/ERC1155.sol\":7440:7442  to */\n      dup8\n        /* \"Arevea-NFT-Market/NFT-Contracts/newmultinft/ERC1155.sol\":7444:7447  ids */\n      dup8\n        /* \"Arevea-NFT-Market/NFT-Contracts/newmultinft/ERC1155.sol\":7449:7456  amounts */\n      dup8\n        /* \"Arevea-NFT-Market/NFT-Contracts/newmultinft/ERC1155.sol\":7458:7462  data */\n      dup8\n        /* \"Arevea-NFT-Market/NFT-Contracts/newmultinft/ERC1155.sol\":7404:7423  _afterTokenTransfer */\n      tag_149\n        /* \"Arevea-NFT-Market/NFT-Contracts/newmultinft/ERC1155.sol\":7404:7463  _afterTokenTransfer(operator, from, to, ids, amounts, data) */\n      jump\t// in\n    tag_148:\n        /* \"Arevea-NFT-Market/NFT-Contracts/newmultinft/ERC1155.sol\":7476:7551  _doSafeBatchTransferAcceptanceCheck(operator, from, to, ids, amounts, data) */\n      tag_150\n        /* \"Arevea-NFT-Market/NFT-Contracts/newmultinft/ERC1155.sol\":7512:7520  operator */\n      dup2\n        /* \"Arevea-NFT-Market/NFT-Contracts/newmultinft/ERC1155.sol\":7522:7526  from */\n      dup8\n        /* \"Arevea-NFT-Market/NFT-Contracts/newmultinft/ERC1155.sol\":7528:7530  to */\n      dup8\n        /* \"Arevea-NFT-Market/NFT-Contracts/newmultinft/ERC1155.sol\":7532:7535  ids */\n      dup8\n        /* \"Arevea-NFT-Market/NFT-Contracts/newmultinft/ERC1155.sol\":7537:7544  amounts */\n      dup8\n        /* \"Arevea-NFT-Market/NFT-Contracts/newmultinft/ERC1155.sol\":7546:7550  data */\n      dup8\n        /* \"Arevea-NFT-Market/NFT-Contracts/newmultinft/ERC1155.sol\":7476:7511  _doSafeBatchTransferAcceptanceCheck */\n      tag_151\n        /* \"Arevea-NFT-Market/NFT-Contracts/newmultinft/ERC1155.sol\":7476:7551  _doSafeBatchTransferAcceptanceCheck(operator, from, to, ids, amounts, data) */\n      jump\t// in\n    tag_150:\n        /* \"Arevea-NFT-Market/NFT-Contracts/newmultinft/ERC1155.sol\":6607:7559  {... */\n      pop\n        /* \"Arevea-NFT-Market/NFT-Contracts/newmultinft/ERC1155.sol\":6413:7559  function _safeBatchTransferFrom(... */\n      pop\n      pop\n      pop\n      pop\n      pop\n      jump\t// out\n        /* \"Arevea-NFT-Market/NFT-Contracts/newmultinft/ERC1155.sol\":13834:14165  function _setApprovalForAll(... */\n    tag_109:\n        /* \"Arevea-NFT-Market/NFT-Contracts/newmultinft/ERC1155.sol\":13989:13997  operator */\n      dup2\n        /* \"Arevea-NFT-Market/NFT-Contracts/newmultinft/ERC1155.sol\":13980:13997  owner != operator */\n      0xffffffffffffffffffffffffffffffffffffffff\n      and\n        /* \"Arevea-NFT-Market/NFT-Contracts/newmultinft/ERC1155.sol\":13980:13985  owner */\n      dup4\n        /* \"Arevea-NFT-Market/NFT-Contracts/newmultinft/ERC1155.sol\":13980:13997  owner != operator */\n      0xffffffffffffffffffffffffffffffffffffffff\n      and\n      sub\n        /* \"Arevea-NFT-Market/NFT-Contracts/newmultinft/ERC1155.sol\":13972:14043  require(owner != operator, \"ERC1155: setting approval status for self\") */\n      tag_153\n      jumpi\n      mload(0x40)\n      0x08c379a000000000000000000000000000000000000000000000000000000000\n      dup2\n      mstore\n      0x04\n      add\n      tag_154\n      swap1\n      tag_155\n      jump\t// in\n    tag_154:\n      mload(0x40)\n      dup1\n      swap2\n      sub\n      swap1\n      revert\n    tag_153:\n        /* \"Arevea-NFT-Market/NFT-Contracts/newmultinft/ERC1155.sol\":14092:14100  approved */\n      dup1\n        /* \"Arevea-NFT-Market/NFT-Contracts/newmultinft/ERC1155.sol\":14054:14072  _operatorApprovals */\n      0x01\n        /* \"Arevea-NFT-Market/NFT-Contracts/newmultinft/ERC1155.sol\":14054:14079  _operatorApprovals[owner] */\n      0x00\n        /* \"Arevea-NFT-Market/NFT-Contracts/newmultinft/ERC1155.sol\":14073:14078  owner */\n      dup6\n        /* \"Arevea-NFT-Market/NFT-Contracts/newmultinft/ERC1155.sol\":14054:14079  _operatorApprovals[owner] */\n      0xffffffffffffffffffffffffffffffffffffffff\n      and\n      0xffffffffffffffffffffffffffffffffffffffff\n      and\n      dup2\n      mstore\n      0x20\n      add\n      swap1\n      dup2\n      mstore\n      0x20\n      add\n      0x00\n      keccak256\n        /* \"Arevea-NFT-Market/NFT-Contracts/newmultinft/ERC1155.sol\":14054:14089  _operatorApprovals[owner][operator] */\n      0x00\n        /* \"Arevea-NFT-Market/NFT-Contracts/newmultinft/ERC1155.sol\":14080:14088  operator */\n      dup5\n        /* \"Arevea-NFT-Market/NFT-Contracts/newmultinft/ERC1155.sol\":14054:14089  _operatorApprovals[owner][operator] */\n      0xffffffffffffffffffffffffffffffffffffffff\n      and\n      0xffffffffffffffffffffffffffffffffffffffff\n      and\n      dup2\n      mstore\n      0x20\n      add\n      swap1\n      dup2\n      mstore\n      0x20\n      add\n      0x00\n      keccak256\n      0x00\n        /* \"Arevea-NFT-Market/NFT-Contracts/newmultinft/ERC1155.sol\":14054:14100  _operatorApprovals[owner][operator] = approved */\n      0x0100\n      exp\n      dup2\n      sload\n      dup2\n      0xff\n      mul\n      not\n      and\n      swap1\n      dup4\n      iszero\n      iszero\n      mul\n      or\n      swap1\n      sstore\n      pop\n        /* \"Arevea-NFT-Market/NFT-Contracts/newmultinft/ERC1155.sol\":14138:14146  operator */\n      dup2\n        /* \"Arevea-NFT-Market/NFT-Contracts/newmultinft/ERC1155.sol\":14116:14157  ApprovalForAll(owner, operator, approved) */\n      0xffffffffffffffffffffffffffffffffffffffff\n      and\n        /* \"Arevea-NFT-Market/NFT-Contracts/newmultinft/ERC1155.sol\":14131:14136  owner */\n      dup4\n        /* \"Arevea-NFT-Market/NFT-Contracts/newmultinft/ERC1155.sol\":14116:14157  ApprovalForAll(owner, operator, approved) */\n      0xffffffffffffffffffffffffffffffffffffffff\n      and\n      0x17307eab39ab6107e8899845ad3d59bd9653f200f220920489ca2b5937696c31\n        /* \"Arevea-NFT-Market/NFT-Contracts/newmultinft/ERC1155.sol\":14148:14156  approved */\n      dup4\n        /* \"Arevea-NFT-Market/NFT-Contracts/newmultinft/ERC1155.sol\":14116:14157  ApprovalForAll(owner, operator, approved) */\n      mload(0x40)\n      tag_156\n      swap2\n      swap1\n      tag_24\n      jump\t// in\n    tag_156:\n      mload(0x40)\n      dup1\n      swap2\n      sub\n      swap1\n      log3\n        /* \"Arevea-NFT-Market/NFT-Contracts/newmultinft/ERC1155.sol\":13834:14165  function _setApprovalForAll(... */\n      pop\n      pop\n      pop\n      jump\t// out\n        /* \"Arevea-NFT-Market/NFT-Contracts/newmultinft/ERC1155.sol\":5081:6055  function _safeTransferFrom(... */\n    tag_120:\n        /* \"Arevea-NFT-Market/NFT-Contracts/newmultinft/ERC1155.sol\":5283:5284  0 */\n      0x00\n        /* \"Arevea-NFT-Market/NFT-Contracts/newmultinft/ERC1155.sol\":5269:5285  to != address(0) */\n      0xffffffffffffffffffffffffffffffffffffffff\n      and\n        /* \"Arevea-NFT-Market/NFT-Contracts/newmultinft/ERC1155.sol\":5269:5271  to */\n      dup5\n        /* \"Arevea-NFT-Market/NFT-Contracts/newmultinft/ERC1155.sol\":5269:5285  to != address(0) */\n      0xffffffffffffffffffffffffffffffffffffffff\n      and\n      sub\n        /* \"Arevea-NFT-Market/NFT-Contracts/newmultinft/ERC1155.sol\":5261:5327  require(to != address(0), \"ERC1155: transfer to the zero address\") */\n      tag_158\n      jumpi\n      mload(0x40)\n      0x08c379a000000000000000000000000000000000000000000000000000000000\n      dup2\n      mstore\n      0x04\n      add\n      tag_159\n      swap1\n      tag_129\n      jump\t// in\n    tag_159:\n      mload(0x40)\n      dup1\n      swap2\n      sub\n      swap1\n      revert\n    tag_158:\n        /* \"Arevea-NFT-Market/NFT-Contracts/newmultinft/ERC1155.sol\":5340:5356  address operator */\n      0x00\n        /* \"Arevea-NFT-Market/NFT-Contracts/newmultinft/ERC1155.sol\":5359:5371  _msgSender() */\n      tag_160\n        /* \"Arevea-NFT-Market/NFT-Contracts/newmultinft/ERC1155.sol\":5359:5369  _msgSender */\n      tag_76\n        /* \"Arevea-NFT-Market/NFT-Contracts/newmultinft/ERC1155.sol\":5359:5371  _msgSender() */\n      jump\t// in\n    tag_160:\n        /* \"Arevea-NFT-Market/NFT-Contracts/newmultinft/ERC1155.sol\":5340:5371  address operator = _msgSender() */\n      swap1\n      pop\n        /* \"Arevea-NFT-Market/NFT-Contracts/newmultinft/ERC1155.sol\":5382:5402  uint256[] memory ids */\n      0x00\n        /* \"Arevea-NFT-Market/NFT-Contracts/newmultinft/ERC1155.sol\":5405:5426  _asSingletonArray(id) */\n      tag_161\n        /* \"Arevea-NFT-Market/NFT-Contracts/newmultinft/ERC1155.sol\":5423:5425  id */\n      dup6\n        /* \"Arevea-NFT-Market/NFT-Contracts/newmultinft/ERC1155.sol\":5405:5422  _asSingletonArray */\n      tag_162\n        /* \"Arevea-NFT-Market/NFT-Contracts/newmultinft/ERC1155.sol\":5405:5426  _asSingletonArray(id) */\n      jump\t// in\n    tag_161:\n        /* \"Arevea-NFT-Market/NFT-Contracts/newmultinft/ERC1155.sol\":5382:5426  uint256[] memory ids = _asSingletonArray(id) */\n      swap1\n      pop\n        /* \"Arevea-NFT-Market/NFT-Contracts/newmultinft/ERC1155.sol\":5437:5461  uint256[] memory amounts */\n      0x00\n        /* \"Arevea-NFT-Market/NFT-Contracts/newmultinft/ERC1155.sol\":5464:5489  _asSingletonArray(amount) */\n      tag_163\n        /* \"Arevea-NFT-Market/NFT-Contracts/newmultinft/ERC1155.sol\":5482:5488  amount */\n      dup6\n        /* \"Arevea-NFT-Market/NFT-Contracts/newmultinft/ERC1155.sol\":5464:5481  _asSingletonArray */\n      tag_162\n        /* \"Arevea-NFT-Market/NFT-Contracts/newmultinft/ERC1155.sol\":5464:5489  _asSingletonArray(amount) */\n      jump\t// in\n    tag_163:\n        /* \"Arevea-NFT-Market/NFT-Contracts/newmultinft/ERC1155.sol\":5437:5489  uint256[] memory amounts = _asSingletonArray(amount) */\n      swap1\n      pop\n        /* \"Arevea-NFT-Market/NFT-Contracts/newmultinft/ERC1155.sol\":5502:5562  _beforeTokenTransfer(operator, from, to, ids, amounts, data) */\n      tag_164\n        /* \"Arevea-NFT-Market/NFT-Contracts/newmultinft/ERC1155.sol\":5523:5531  operator */\n      dup4\n        /* \"Arevea-NFT-Market/NFT-Contracts/newmultinft/ERC1155.sol\":5533:5537  from */\n      dup10\n        /* \"Arevea-NFT-Market/NFT-Contracts/newmultinft/ERC1155.sol\":5539:5541  to */\n      dup10\n        /* \"Arevea-NFT-Market/NFT-Contracts/newmultinft/ERC1155.sol\":5543:5546  ids */\n      dup6\n        /* \"Arevea-NFT-Market/NFT-Contracts/newmultinft/ERC1155.sol\":5548:5555  amounts */\n      dup6\n        /* \"Arevea-NFT-Market/NFT-Contracts/newmultinft/ERC1155.sol\":5557:5561  data */\n      dup10\n        /* \"Arevea-NFT-Market/NFT-Contracts/newmultinft/ERC1155.sol\":5502:5522  _beforeTokenTransfer */\n      tag_132\n        /* \"Arevea-NFT-Market/NFT-Contracts/newmultinft/ERC1155.sol\":5502:5562  _beforeTokenTransfer(operator, from, to, ids, amounts, data) */\n      jump\t// in\n    tag_164:\n        /* \"Arevea-NFT-Market/NFT-Contracts/newmultinft/ERC1155.sol\":5575:5594  uint256 fromBalance */\n      0x00\n        /* \"Arevea-NFT-Market/NFT-Contracts/newmultinft/ERC1155.sol\":5597:5606  _balances */\n      dup1\n        /* \"Arevea-NFT-Market/NFT-Contracts/newmultinft/ERC1155.sol\":5597:5610  _balances[id] */\n      0x00\n        /* \"Arevea-NFT-Market/NFT-Contracts/newmultinft/ERC1155.sol\":5607:5609  id */\n      dup9\n        /* \"Arevea-NFT-Market/NFT-Contracts/newmultinft/ERC1155.sol\":5597:5610  _balances[id] */\n      dup2\n      mstore\n      0x20\n      add\n      swap1\n      dup2\n      mstore\n      0x20\n      add\n      0x00\n      keccak256\n        /* \"Arevea-NFT-Market/NFT-Contracts/newmultinft/ERC1155.sol\":5597:5616  _balances[id][from] */\n      0x00\n        /* \"Arevea-NFT-Market/NFT-Contracts/newmultinft/ERC1155.sol\":5611:5615  from */\n      dup11\n        /* \"Arevea-NFT-Market/NFT-Contracts/newmultinft/ERC1155.sol\":5597:5616  _balances[id][from] */\n      0xffffffffffffffffffffffffffffffffffffffff\n      and\n      0xffffffffffffffffffffffffffffffffffffffff\n      and\n      dup2\n      mstore\n      0x20\n      add\n      swap1\n      dup2\n      mstore\n      0x20\n      add\n      0x00\n      keccak256\n      sload\n        /* \"Arevea-NFT-Market/NFT-Contracts/newmultinft/ERC1155.sol\":5575:5616  uint256 fromBalance = _balances[id][from] */\n      swap1\n      pop\n        /* \"Arevea-NFT-Market/NFT-Contracts/newmultinft/ERC1155.sol\":5650:5656  amount */\n      dup6\n        /* \"Arevea-NFT-Market/NFT-Contracts/newmultinft/ERC1155.sol\":5635:5646  fromBalance */\n      dup2\n        /* \"Arevea-NFT-Market/NFT-Contracts/newmultinft/ERC1155.sol\":5635:5656  fromBalance >= amount */\n      lt\n      iszero\n        /* \"Arevea-NFT-Market/NFT-Contracts/newmultinft/ERC1155.sol\":5627:5703  require(fromBalance >= amount, \"ERC1155: insufficient balance for transfer\") */\n      tag_165\n      jumpi\n      mload(0x40)\n      0x08c379a000000000000000000000000000000000000000000000000000000000\n      dup2\n      mstore\n      0x04\n      add\n      tag_166\n      swap1\n      tag_142\n      jump\t// in\n    tag_166:\n      mload(0x40)\n      dup1\n      swap2\n      sub\n      swap1\n      revert\n    tag_165:\n        /* \"Arevea-NFT-Market/NFT-Contracts/newmultinft/ERC1155.sol\":5775:5781  amount */\n      dup6\n        /* \"Arevea-NFT-Market/NFT-Contracts/newmultinft/ERC1155.sol\":5761:5772  fromBalance */\n      dup2\n        /* \"Arevea-NFT-Market/NFT-Contracts/newmultinft/ERC1155.sol\":5761:5781  fromBalance - amount */\n      sub\n        /* \"Arevea-NFT-Market/NFT-Contracts/newmultinft/ERC1155.sol\":5739:5748  _balances */\n      0x00\n        /* \"Arevea-NFT-Market/NFT-Contracts/newmultinft/ERC1155.sol\":5739:5752  _balances[id] */\n      dup1\n        /* \"Arevea-NFT-Market/NFT-Contracts/newmultinft/ERC1155.sol\":5749:5751  id */\n      dup10\n        /* \"Arevea-NFT-Market/NFT-Contracts/newmultinft/ERC1155.sol\":5739:5752  _balances[id] */\n      dup2\n      mstore\n      0x20\n      add\n      swap1\n      dup2\n      mstore\n      0x20\n      add\n      0x00\n      keccak256\n        /* \"Arevea-NFT-Market/NFT-Contracts/newmultinft/ERC1155.sol\":5739:5758  _balances[id][from] */\n      0x00\n        /* \"Arevea-NFT-Market/NFT-Contracts/newmultinft/ERC1155.sol\":5753:5757  from */\n      dup12\n        /* \"Arevea-NFT-Market/NFT-Contracts/newmultinft/ERC1155.sol\":5739:5758  _balances[id][from] */\n      0xffffffffffffffffffffffffffffffffffffffff\n      and\n      0xffffffffffffffffffffffffffffffffffffffff\n      and\n      dup2\n      mstore\n      0x20\n      add\n      swap1\n      dup2\n      mstore\n      0x20\n      add\n      0x00\n      keccak256\n        /* \"Arevea-NFT-Market/NFT-Contracts/newmultinft/ERC1155.sol\":5739:5781  _balances[id][from] = fromBalance - amount */\n      dup2\n      swap1\n      sstore\n      pop\n        /* \"Arevea-NFT-Market/NFT-Contracts/newmultinft/ERC1155.sol\":5824:5830  amount */\n      dup6\n        /* \"Arevea-NFT-Market/NFT-Contracts/newmultinft/ERC1155.sol\":5803:5812  _balances */\n      0x00\n        /* \"Arevea-NFT-Market/NFT-Contracts/newmultinft/ERC1155.sol\":5803:5816  _balances[id] */\n      dup1\n        /* \"Arevea-NFT-Market/NFT-Contracts/newmultinft/ERC1155.sol\":5813:5815  id */\n      dup10\n        /* \"Arevea-NFT-Market/NFT-Contracts/newmultinft/ERC1155.sol\":5803:5816  _balances[id] */\n      dup2\n      mstore\n      0x20\n      add\n      swap1\n      dup2\n      mstore\n      0x20\n      add\n      0x00\n      keccak256\n        /* \"Arevea-NFT-Market/NFT-Contracts/newmultinft/ERC1155.sol\":5803:5820  _balances[id][to] */\n      0x00\n        /* \"Arevea-NFT-Market/NFT-Contracts/newmultinft/ERC1155.sol\":5817:5819  to */\n      dup11\n        /* \"Arevea-NFT-Market/NFT-Contracts/newmultinft/ERC1155.sol\":5803:5820  _balances[id][to] */\n      0xffffffffffffffffffffffffffffffffffffffff\n      and\n      0xffffffffffffffffffffffffffffffffffffffff\n      and\n      dup2\n      mstore\n      0x20\n      add\n      swap1\n      dup2\n      mstore\n      0x20\n      add\n      0x00\n      keccak256\n      0x00\n        /* \"Arevea-NFT-Market/NFT-Contracts/newmultinft/ERC1155.sol\":5803:5830  _balances[id][to] += amount */\n      dup3\n      dup3\n      sload\n      tag_167\n      swap2\n      swap1\n      tag_144\n      jump\t// in\n    tag_167:\n      swap3\n      pop\n      pop\n      dup2\n      swap1\n      sstore\n      pop\n        /* \"Arevea-NFT-Market/NFT-Contracts/newmultinft/ERC1155.sol\":5879:5881  to */\n      dup8\n        /* \"Arevea-NFT-Market/NFT-Contracts/newmultinft/ERC1155.sol\":5848:5894  TransferSingle(operator, from, to, id, amount) */\n      0xffffffffffffffffffffffffffffffffffffffff\n      and\n        /* \"Arevea-NFT-Market/NFT-Contracts/newmultinft/ERC1155.sol\":5873:5877  from */\n      dup10\n        /* \"Arevea-NFT-Market/NFT-Contracts/newmultinft/ERC1155.sol\":5848:5894  TransferSingle(operator, from, to, id, amount) */\n      0xffffffffffffffffffffffffffffffffffffffff\n      and\n        /* \"Arevea-NFT-Market/NFT-Contracts/newmultinft/ERC1155.sol\":5863:5871  operator */\n      dup6\n        /* \"Arevea-NFT-Market/NFT-Contracts/newmultinft/ERC1155.sol\":5848:5894  TransferSingle(operator, from, to, id, amount) */\n      0xffffffffffffffffffffffffffffffffffffffff\n      and\n      0xc3d58168c5ae7397731d063d5bbf3d657854427343f4c083240f7aacaa2d0f62\n        /* \"Arevea-NFT-Market/NFT-Contracts/newmultinft/ERC1155.sol\":5883:5885  id */\n      dup11\n        /* \"Arevea-NFT-Market/NFT-Contracts/newmultinft/ERC1155.sol\":5887:5893  amount */\n      dup11\n        /* \"Arevea-NFT-Market/NFT-Contracts/newmultinft/ERC1155.sol\":5848:5894  TransferSingle(operator, from, to, id, amount) */\n      mload(0x40)\n      tag_168\n      swap3\n      swap2\n      swap1\n      tag_169\n      jump\t// in\n    tag_168:\n      mload(0x40)\n      dup1\n      swap2\n      sub\n      swap1\n      log4\n        /* \"Arevea-NFT-Market/NFT-Contracts/newmultinft/ERC1155.sol\":5907:5966  _afterTokenTransfer(operator, from, to, ids, amounts, data) */\n      tag_170\n        /* \"Arevea-NFT-Market/NFT-Contracts/newmultinft/ERC1155.sol\":5927:5935  operator */\n      dup5\n        /* \"Arevea-NFT-Market/NFT-Contracts/newmultinft/ERC1155.sol\":5937:5941  from */\n      dup11\n        /* \"Arevea-NFT-Market/NFT-Contracts/newmultinft/ERC1155.sol\":5943:5945  to */\n      dup11\n        /* \"Arevea-NFT-Market/NFT-Contracts/newmultinft/ERC1155.sol\":5947:5950  ids */\n      dup7\n        /* \"Arevea-NFT-Market/NFT-Contracts/newmultinft/ERC1155.sol\":5952:5959  amounts */\n      dup7\n        /* \"Arevea-NFT-Market/NFT-Contracts/newmultinft/ERC1155.sol\":5961:5965  data */\n      dup11\n        /* \"Arevea-NFT-Market/NFT-Contracts/newmultinft/ERC1155.sol\":5907:5926  _afterTokenTransfer */\n      tag_149\n        /* \"Arevea-NFT-Market/NFT-Contracts/newmultinft/ERC1155.sol\":5907:5966  _afterTokenTransfer(operator, from, to, ids, amounts, data) */\n      jump\t// in\n    tag_170:\n        /* \"Arevea-NFT-Market/NFT-Contracts/newmultinft/ERC1155.sol\":5979:6047  _doSafeTransferAcceptanceCheck(operator, from, to, id, amount, data) */\n      tag_171\n        /* \"Arevea-NFT-Market/NFT-Contracts/newmultinft/ERC1155.sol\":6010:6018  operator */\n      dup5\n        /* \"Arevea-NFT-Market/NFT-Contracts/newmultinft/ERC1155.sol\":6020:6024  from */\n      dup11\n        /* \"Arevea-NFT-Market/NFT-Contracts/newmultinft/ERC1155.sol\":6026:6028  to */\n      dup11\n        /* \"Arevea-NFT-Market/NFT-Contracts/newmultinft/ERC1155.sol\":6030:6032  id */\n      dup11\n        /* \"Arevea-NFT-Market/NFT-Contracts/newmultinft/ERC1155.sol\":6034:6040  amount */\n      dup11\n        /* \"Arevea-NFT-Market/NFT-Contracts/newmultinft/ERC1155.sol\":6042:6046  data */\n      dup11\n        /* \"Arevea-NFT-Market/NFT-Contracts/newmultinft/ERC1155.sol\":5979:6009  _doSafeTransferAcceptanceCheck */\n      tag_172\n        /* \"Arevea-NFT-Market/NFT-Contracts/newmultinft/ERC1155.sol\":5979:6047  _doSafeTransferAcceptanceCheck(operator, from, to, id, amount, data) */\n      jump\t// in\n    tag_171:\n        /* \"Arevea-NFT-Market/NFT-Contracts/newmultinft/ERC1155.sol\":5250:6055  {... */\n      pop\n      pop\n      pop\n      pop\n        /* \"Arevea-NFT-Market/NFT-Contracts/newmultinft/ERC1155.sol\":5081:6055  function _safeTransferFrom(... */\n      pop\n      pop\n      pop\n      pop\n      pop\n      jump\t// out\n        /* \"Arevea-NFT-Market/NFT-Contracts/newmultinft/ERC1155.sol\":15123:15344  function _beforeTokenTransfer(... */\n    tag_132:\n      pop\n      pop\n      pop\n      pop\n      pop\n      pop\n      jump\t// out\n        /* \"Arevea-NFT-Market/NFT-Contracts/newmultinft/ERC1155.sol\":16299:16519  function _afterTokenTransfer(... */\n    tag_149:\n      pop\n      pop\n      pop\n      pop\n      pop\n      pop\n      jump\t// out\n        /* \"Arevea-NFT-Market/NFT-Contracts/newmultinft/ERC1155.sol\":17279:18092  function _doSafeBatchTransferAcceptanceCheck(... */\n    tag_151:\n        /* \"Arevea-NFT-Market/NFT-Contracts/newmultinft/ERC1155.sol\":17519:17534  to.isContract() */\n      tag_176\n        /* \"Arevea-NFT-Market/NFT-Contracts/newmultinft/ERC1155.sol\":17519:17521  to */\n      dup5\n        /* \"Arevea-NFT-Market/NFT-Contracts/newmultinft/ERC1155.sol\":17519:17532  to.isContract */\n      0xffffffffffffffffffffffffffffffffffffffff\n      and\n      tag_177\n        /* \"Arevea-NFT-Market/NFT-Contracts/newmultinft/ERC1155.sol\":17519:17534  to.isContract() */\n      jump\t// in\n    tag_176:\n        /* \"Arevea-NFT-Market/NFT-Contracts/newmultinft/ERC1155.sol\":17515:18085  if (to.isContract()) {... */\n      iszero\n      tag_178\n      jumpi\n        /* \"Arevea-NFT-Market/NFT-Contracts/newmultinft/ERC1155.sol\":17572:17574  to */\n      dup4\n        /* \"Arevea-NFT-Market/NFT-Contracts/newmultinft/ERC1155.sol\":17555:17598  IERC1155Receiver(to).onERC1155BatchReceived */\n      0xffffffffffffffffffffffffffffffffffffffff\n      and\n      0xbc197c81\n        /* \"Arevea-NFT-Market/NFT-Contracts/newmultinft/ERC1155.sol\":17599:17607  operator */\n      dup8\n        /* \"Arevea-NFT-Market/NFT-Contracts/newmultinft/ERC1155.sol\":17609:17613  from */\n      dup8\n        /* \"Arevea-NFT-Market/NFT-Contracts/newmultinft/ERC1155.sol\":17615:17618  ids */\n      dup7\n        /* \"Arevea-NFT-Market/NFT-Contracts/newmultinft/ERC1155.sol\":17620:17627  amounts */\n      dup7\n        /* \"Arevea-NFT-Market/NFT-Contracts/newmultinft/ERC1155.sol\":17629:17633  data */\n      dup7\n        /* \"Arevea-NFT-Market/NFT-Contracts/newmultinft/ERC1155.sol\":17555:17634  IERC1155Receiver(to).onERC1155BatchReceived(operator, from, ids, amounts, data) */\n      mload(0x40)\n      dup7\n      0xffffffff\n      and\n      0xe0\n      shl\n      dup2\n      mstore\n      0x04\n      add\n      tag_179\n      swap6\n      swap5\n      swap4\n      swap3\n      swap2\n      swap1\n      tag_180\n      jump\t// in\n    tag_179:\n      0x20\n      mload(0x40)\n      dup1\n      dup4\n      sub\n      dup2\n      0x00\n      dup8\n      gas\n      call\n      swap3\n      pop\n      pop\n      pop\n      dup1\n      iszero\n      tag_181\n      jumpi\n      pop\n      mload(0x40)\n      returndatasize\n      not(0x1f)\n      0x1f\n      dup3\n      add\n      and\n      dup3\n      add\n      dup1\n      0x40\n      mstore\n      pop\n      dup2\n      add\n      swap1\n      tag_182\n      swap2\n      swap1\n      tag_183\n      jump\t// in\n    tag_182:\n      0x01\n    tag_181:\n        /* \"Arevea-NFT-Market/NFT-Contracts/newmultinft/ERC1155.sol\":17551:18074  try IERC1155Receiver(to).onERC1155BatchReceived(operator, from, ids, amounts, data) returns (... */\n      tag_184\n      jumpi\n      tag_188\n      tag_189\n      jump\t// in\n    tag_188:\n      dup1\n      0x08c379a0\n      sub\n      tag_187\n      jumpi\n      pop\n      tag_190\n      tag_191\n      jump\t// in\n    tag_190:\n      dup1\n      tag_192\n      jumpi\n      pop\n      jump(tag_186)\n    tag_192:\n        /* \"Arevea-NFT-Market/NFT-Contracts/newmultinft/ERC1155.sol\":17947:17953  reason */\n      dup1\n        /* \"Arevea-NFT-Market/NFT-Contracts/newmultinft/ERC1155.sol\":17940:17954  revert(reason) */\n      mload(0x40)\n      0x08c379a000000000000000000000000000000000000000000000000000000000\n      dup2\n      mstore\n      0x04\n      add\n      tag_193\n      swap2\n      swap1\n      tag_30\n      jump\t// in\n    tag_193:\n      mload(0x40)\n      dup1\n      swap2\n      sub\n      swap1\n      revert\n        /* \"Arevea-NFT-Market/NFT-Contracts/newmultinft/ERC1155.sol\":17551:18074  try IERC1155Receiver(to).onERC1155BatchReceived(operator, from, ids, amounts, data) returns (... */\n    tag_187:\n      pop\n    tag_186:\n        /* \"Arevea-NFT-Market/NFT-Contracts/newmultinft/ERC1155.sol\":17996:18058  revert(\"ERC1155: transfer to non-ERC1155Receiver implementer\") */\n      mload(0x40)\n      0x08c379a000000000000000000000000000000000000000000000000000000000\n      dup2\n      mstore\n      0x04\n      add\n      tag_194\n      swap1\n      tag_195\n      jump\t// in\n    tag_194:\n      mload(0x40)\n      dup1\n      swap2\n      sub\n      swap1\n      revert\n        /* \"Arevea-NFT-Market/NFT-Contracts/newmultinft/ERC1155.sol\":17551:18074  try IERC1155Receiver(to).onERC1155BatchReceived(operator, from, ids, amounts, data) returns (... */\n    tag_184:\n        /* \"Arevea-NFT-Market/NFT-Contracts/newmultinft/ERC1155.sol\":17728:17776  IERC1155Receiver.onERC1155BatchReceived.selector */\n      shl(0xe0, 0xbc197c81)\n        /* \"Arevea-NFT-Market/NFT-Contracts/newmultinft/ERC1155.sol\":17716:17776  response != IERC1155Receiver.onERC1155BatchReceived.selector */\n      not(0xffffffffffffffffffffffffffffffffffffffffffffffffffffffff)\n      and\n        /* \"Arevea-NFT-Market/NFT-Contracts/newmultinft/ERC1155.sol\":17716:17724  response */\n      dup2\n        /* \"Arevea-NFT-Market/NFT-Contracts/newmultinft/ERC1155.sol\":17716:17776  response != IERC1155Receiver.onERC1155BatchReceived.selector */\n      not(0xffffffffffffffffffffffffffffffffffffffffffffffffffffffff)\n      and\n      eq\n        /* \"Arevea-NFT-Market/NFT-Contracts/newmultinft/ERC1155.sol\":17712:17871  if (response != IERC1155Receiver.onERC1155BatchReceived.selector) {... */\n      tag_197\n      jumpi\n        /* \"Arevea-NFT-Market/NFT-Contracts/newmultinft/ERC1155.sol\":17801:17851  revert(\"ERC1155: ERC1155Receiver rejected tokens\") */\n      mload(0x40)\n      0x08c379a000000000000000000000000000000000000000000000000000000000\n      dup2\n      mstore\n      0x04\n      add\n      tag_198\n      swap1\n      tag_199\n      jump\t// in\n    tag_198:\n      mload(0x40)\n      dup1\n      swap2\n      sub\n      swap1\n      revert\n        /* \"Arevea-NFT-Market/NFT-Contracts/newmultinft/ERC1155.sol\":17712:17871  if (response != IERC1155Receiver.onERC1155BatchReceived.selector) {... */\n    tag_197:\n        /* \"Arevea-NFT-Market/NFT-Contracts/newmultinft/ERC1155.sol\":17635:17886  returns (... */\n      pop\n        /* \"Arevea-NFT-Market/NFT-Contracts/newmultinft/ERC1155.sol\":17515:18085  if (to.isContract()) {... */\n    tag_178:\n        /* \"Arevea-NFT-Market/NFT-Contracts/newmultinft/ERC1155.sol\":17279:18092  function _doSafeBatchTransferAcceptanceCheck(... */\n      pop\n      pop\n      pop\n      pop\n      pop\n      pop\n      jump\t// out\n        /* \"Arevea-NFT-Market/NFT-Contracts/newmultinft/ERC1155.sol\":18100:18298  function _asSingletonArray(uint256 element) private pure returns (uint256[] memory) {... */\n    tag_162:\n        /* \"Arevea-NFT-Market/NFT-Contracts/newmultinft/ERC1155.sol\":18166:18182  uint256[] memory */\n      0x60\n        /* \"Arevea-NFT-Market/NFT-Contracts/newmultinft/ERC1155.sol\":18195:18217  uint256[] memory array */\n      0x00\n        /* \"Arevea-NFT-Market/NFT-Contracts/newmultinft/ERC1155.sol\":18234:18235  1 */\n      0x01\n        /* \"Arevea-NFT-Market/NFT-Contracts/newmultinft/ERC1155.sol\":18220:18236  new uint256[](1) */\n      0xffffffffffffffff\n      dup2\n      gt\n      iszero\n      tag_201\n      jumpi\n      tag_202\n      tag_91\n      jump\t// in\n    tag_202:\n    tag_201:\n      mload(0x40)\n      swap1\n      dup1\n      dup3\n      mstore\n      dup1\n      0x20\n      mul\n      0x20\n      add\n      dup3\n      add\n      0x40\n      mstore\n      dup1\n      iszero\n      tag_203\n      jumpi\n      dup2\n      0x20\n      add\n      0x20\n      dup3\n      mul\n      dup1\n      calldatasize\n      dup4\n      calldatacopy\n      dup1\n      dup3\n      add\n      swap2\n      pop\n      pop\n      swap1\n      pop\n    tag_203:\n      pop\n        /* \"Arevea-NFT-Market/NFT-Contracts/newmultinft/ERC1155.sol\":18195:18236  uint256[] memory array = new uint256[](1) */\n      swap1\n      pop\n        /* \"Arevea-NFT-Market/NFT-Contracts/newmultinft/ERC1155.sol\":18258:18265  element */\n      dup3\n        /* \"Arevea-NFT-Market/NFT-Contracts/newmultinft/ERC1155.sol\":18247:18252  array */\n      dup2\n        /* \"Arevea-NFT-Market/NFT-Contracts/newmultinft/ERC1155.sol\":18253:18254  0 */\n      0x00\n        /* \"Arevea-NFT-Market/NFT-Contracts/newmultinft/ERC1155.sol\":18247:18255  array[0] */\n      dup2\n      mload\n      dup2\n      lt\n      tag_204\n      jumpi\n      tag_205\n      tag_99\n      jump\t// in\n    tag_205:\n    tag_204:\n      0x20\n      mul\n      0x20\n      add\n      add\n        /* \"Arevea-NFT-Market/NFT-Contracts/newmultinft/ERC1155.sol\":18247:18265  array[0] = element */\n      dup2\n      dup2\n      mstore\n      pop\n      pop\n        /* \"Arevea-NFT-Market/NFT-Contracts/newmultinft/ERC1155.sol\":18285:18290  array */\n      dup1\n        /* \"Arevea-NFT-Market/NFT-Contracts/newmultinft/ERC1155.sol\":18278:18290  return array */\n      swap2\n      pop\n      pop\n        /* \"Arevea-NFT-Market/NFT-Contracts/newmultinft/ERC1155.sol\":18100:18298  function _asSingletonArray(uint256 element) private pure returns (uint256[] memory) {... */\n      swap2\n      swap1\n      pop\n      jump\t// out\n        /* \"Arevea-NFT-Market/NFT-Contracts/newmultinft/ERC1155.sol\":16527:17271  function _doSafeTransferAcceptanceCheck(... */\n    tag_172:\n        /* \"Arevea-NFT-Market/NFT-Contracts/newmultinft/ERC1155.sol\":16742:16757  to.isContract() */\n      tag_207\n        /* \"Arevea-NFT-Market/NFT-Contracts/newmultinft/ERC1155.sol\":16742:16744  to */\n      dup5\n        /* \"Arevea-NFT-Market/NFT-Contracts/newmultinft/ERC1155.sol\":16742:16755  to.isContract */\n      0xffffffffffffffffffffffffffffffffffffffff\n      and\n      tag_177\n        /* \"Arevea-NFT-Market/NFT-Contracts/newmultinft/ERC1155.sol\":16742:16757  to.isContract() */\n      jump\t// in\n    tag_207:\n        /* \"Arevea-NFT-Market/NFT-Contracts/newmultinft/ERC1155.sol\":16738:17264  if (to.isContract()) {... */\n      iszero\n      tag_208\n      jumpi\n        /* \"Arevea-NFT-Market/NFT-Contracts/newmultinft/ERC1155.sol\":16795:16797  to */\n      dup4\n        /* \"Arevea-NFT-Market/NFT-Contracts/newmultinft/ERC1155.sol\":16778:16816  IERC1155Receiver(to).onERC1155Received */\n      0xffffffffffffffffffffffffffffffffffffffff\n      and\n      0xf23a6e61\n        /* \"Arevea-NFT-Market/NFT-Contracts/newmultinft/ERC1155.sol\":16817:16825  operator */\n      dup8\n        /* \"Arevea-NFT-Market/NFT-Contracts/newmultinft/ERC1155.sol\":16827:16831  from */\n      dup8\n        /* \"Arevea-NFT-Market/NFT-Contracts/newmultinft/ERC1155.sol\":16833:16835  id */\n      dup7\n        /* \"Arevea-NFT-Market/NFT-Contracts/newmultinft/ERC1155.sol\":16837:16843  amount */\n      dup7\n        /* \"Arevea-NFT-Market/NFT-Contracts/newmultinft/ERC1155.sol\":16845:16849  data */\n      dup7\n        /* \"Arevea-NFT-Market/NFT-Contracts/newmultinft/ERC1155.sol\":16778:16850  IERC1155Receiver(to).onERC1155Received(operator, from, id, amount, data) */\n      mload(0x40)\n      dup7\n      0xffffffff\n      and\n      0xe0\n      shl\n      dup2\n      mstore\n      0x04\n      add\n      tag_209\n      swap6\n      swap5\n      swap4\n      swap3\n      swap2\n      swap1\n      tag_210\n      jump\t// in\n    tag_209:\n      0x20\n      mload(0x40)\n      dup1\n      dup4\n      sub\n      dup2\n      0x00\n      dup8\n      gas\n      call\n      swap3\n      pop\n      pop\n      pop\n      dup1\n      iszero\n      tag_211\n      jumpi\n      pop\n      mload(0x40)\n      returndatasize\n      not(0x1f)\n      0x1f\n      dup3\n      add\n      and\n      dup3\n      add\n      dup1\n      0x40\n      mstore\n      pop\n      dup2\n      add\n      swap1\n      tag_212\n      swap2\n      swap1\n      tag_183\n      jump\t// in\n    tag_212:\n      0x01\n    tag_211:\n        /* \"Arevea-NFT-Market/NFT-Contracts/newmultinft/ERC1155.sol\":16774:17253  try IERC1155Receiver(to).onERC1155Received(operator, from, id, amount, data) returns (bytes4 response) {... */\n      tag_213\n      jumpi\n      tag_217\n      tag_189\n      jump\t// in\n    tag_217:\n      dup1\n      0x08c379a0\n      sub\n      tag_216\n      jumpi\n      pop\n      tag_218\n      tag_191\n      jump\t// in\n    tag_218:\n      dup1\n      tag_219\n      jumpi\n      pop\n      jump(tag_215)\n    tag_219:\n        /* \"Arevea-NFT-Market/NFT-Contracts/newmultinft/ERC1155.sol\":17126:17132  reason */\n      dup1\n        /* \"Arevea-NFT-Market/NFT-Contracts/newmultinft/ERC1155.sol\":17119:17133  revert(reason) */\n      mload(0x40)\n      0x08c379a000000000000000000000000000000000000000000000000000000000\n      dup2\n      mstore\n      0x04\n      add\n      tag_220\n      swap2\n      swap1\n      tag_30\n      jump\t// in\n    tag_220:\n      mload(0x40)\n      dup1\n      swap2\n      sub\n      swap1\n      revert\n        /* \"Arevea-NFT-Market/NFT-Contracts/newmultinft/ERC1155.sol\":16774:17253  try IERC1155Receiver(to).onERC1155Received(operator, from, id, amount, data) returns (bytes4 response) {... */\n    tag_216:\n      pop\n    tag_215:\n        /* \"Arevea-NFT-Market/NFT-Contracts/newmultinft/ERC1155.sol\":17175:17237  revert(\"ERC1155: transfer to non-ERC1155Receiver implementer\") */\n      mload(0x40)\n      0x08c379a000000000000000000000000000000000000000000000000000000000\n      dup2\n      mstore\n      0x04\n      add\n      tag_221\n      swap1\n      tag_195\n      jump\t// in\n    tag_221:\n      mload(0x40)\n      dup1\n      swap2\n      sub\n      swap1\n      revert\n        /* \"Arevea-NFT-Market/NFT-Contracts/newmultinft/ERC1155.sol\":16774:17253  try IERC1155Receiver(to).onERC1155Received(operator, from, id, amount, data) returns (bytes4 response) {... */\n    tag_213:\n        /* \"Arevea-NFT-Market/NFT-Contracts/newmultinft/ERC1155.sol\":16912:16955  IERC1155Receiver.onERC1155Received.selector */\n      shl(0xe0, 0xf23a6e61)\n        /* \"Arevea-NFT-Market/NFT-Contracts/newmultinft/ERC1155.sol\":16900:16955  response != IERC1155Receiver.onERC1155Received.selector */\n      not(0xffffffffffffffffffffffffffffffffffffffffffffffffffffffff)\n      and\n        /* \"Arevea-NFT-Market/NFT-Contracts/newmultinft/ERC1155.sol\":16900:16908  response */\n      dup2\n        /* \"Arevea-NFT-Market/NFT-Contracts/newmultinft/ERC1155.sol\":16900:16955  response != IERC1155Receiver.onERC1155Received.selector */\n      not(0xffffffffffffffffffffffffffffffffffffffffffffffffffffffff)\n      and\n      eq\n        /* \"Arevea-NFT-Market/NFT-Contracts/newmultinft/ERC1155.sol\":16896:17050  if (response != IERC1155Receiver.onERC1155Received.selector) {... */\n      tag_223\n      jumpi\n        /* \"Arevea-NFT-Market/NFT-Contracts/newmultinft/ERC1155.sol\":16980:17030  revert(\"ERC1155: ERC1155Receiver rejected tokens\") */\n      mload(0x40)\n      0x08c379a000000000000000000000000000000000000000000000000000000000\n      dup2\n      mstore\n      0x04\n      add\n      tag_224\n      swap1\n      tag_199\n      jump\t// in\n    tag_224:\n      mload(0x40)\n      dup1\n      swap2\n      sub\n      swap1\n      revert\n        /* \"Arevea-NFT-Market/NFT-Contracts/newmultinft/ERC1155.sol\":16896:17050  if (response != IERC1155Receiver.onERC1155Received.selector) {... */\n    tag_223:\n        /* \"Arevea-NFT-Market/NFT-Contracts/newmultinft/ERC1155.sol\":16851:17065  returns (bytes4 response) {... */\n      pop\n        /* \"Arevea-NFT-Market/NFT-Contracts/newmultinft/ERC1155.sol\":16738:17264  if (to.isContract()) {... */\n    tag_208:\n        /* \"Arevea-NFT-Market/NFT-Contracts/newmultinft/ERC1155.sol\":16527:17271  function _doSafeTransferAcceptanceCheck(... */\n      pop\n      pop\n      pop\n      pop\n      pop\n      pop\n      jump\t// out\n        /* \"Arevea-NFT-Market/NFT-Contracts/newmultinft/Address.sol\":1210:1536  function isContract(address account) internal view returns (bool) {... */\n    tag_177:\n        /* \"Arevea-NFT-Market/NFT-Contracts/newmultinft/Address.sol\":1270:1274  bool */\n      0x00\n        /* \"Arevea-NFT-Market/NFT-Contracts/newmultinft/Address.sol\":1527:1528  0 */\n      dup1\n        /* \"Arevea-NFT-Market/NFT-Contracts/newmultinft/Address.sol\":1505:1512  account */\n      dup3\n        /* \"Arevea-NFT-Market/NFT-Contracts/newmultinft/Address.sol\":1505:1524  account.code.length */\n      0xffffffffffffffffffffffffffffffffffffffff\n      and\n      extcodesize\n        /* \"Arevea-NFT-Market/NFT-Contracts/newmultinft/Address.sol\":1505:1528  account.code.length > 0 */\n      gt\n        /* \"Arevea-NFT-Market/NFT-Contracts/newmultinft/Address.sol\":1498:1528  return account.code.length > 0 */\n      swap1\n      pop\n        /* \"Arevea-NFT-Market/NFT-Contracts/newmultinft/Address.sol\":1210:1536  function isContract(address account) internal view returns (bool) {... */\n      swap2\n      swap1\n      pop\n      jump\t// out\n        /* \"#utility.yul\":7:82   */\n    tag_226:\n        /* \"#utility.yul\":40:46   */\n      0x00\n        /* \"#utility.yul\":73:75   */\n      0x40\n        /* \"#utility.yul\":67:76   */\n      mload\n        /* \"#utility.yul\":57:76   */\n      swap1\n      pop\n        /* \"#utility.yul\":7:82   */\n      swap1\n      jump\t// out\n        /* \"#utility.yul\":88:205   */\n    tag_227:\n        /* \"#utility.yul\":197:198   */\n      0x00\n        /* \"#utility.yul\":194:195   */\n      dup1\n        /* \"#utility.yul\":187:199   */\n      revert\n        /* \"#utility.yul\":211:328   */\n    tag_228:\n        /* \"#utility.yul\":320:321   */\n      0x00\n        /* \"#utility.yul\":317:318   */\n      dup1\n        /* \"#utility.yul\":310:322   */\n      revert\n        /* \"#utility.yul\":334:460   */\n    tag_229:\n        /* \"#utility.yul\":371:378   */\n      0x00\n        /* \"#utility.yul\":411:453   */\n      0xffffffffffffffffffffffffffffffffffffffff\n        /* \"#utility.yul\":404:409   */\n      dup3\n        /* \"#utility.yul\":400:454   */\n      and\n        /* \"#utility.yul\":389:454   */\n      swap1\n      pop\n        /* \"#utility.yul\":334:460   */\n      swap2\n      swap1\n      pop\n      jump\t// out\n        /* \"#utility.yul\":466:562   */\n    tag_230:\n        /* \"#utility.yul\":503:510   */\n      0x00\n        /* \"#utility.yul\":532:556   */\n      tag_303\n        /* \"#utility.yul\":550:555   */\n      dup3\n        /* \"#utility.yul\":532:556   */\n      tag_229\n      jump\t// in\n    tag_303:\n        /* \"#utility.yul\":521:556   */\n      swap1\n      pop\n        /* \"#utility.yul\":466:562   */\n      swap2\n      swap1\n      pop\n      jump\t// out\n        /* \"#utility.yul\":568:690   */\n    tag_231:\n        /* \"#utility.yul\":641:665   */\n      tag_305\n        /* \"#utility.yul\":659:664   */\n      dup2\n        /* \"#utility.yul\":641:665   */\n      tag_230\n      jump\t// in\n    tag_305:\n        /* \"#utility.yul\":634:639   */\n      dup2\n        /* \"#utility.yul\":631:666   */\n      eq\n        /* \"#utility.yul\":621:684   */\n      tag_306\n      jumpi\n        /* \"#utility.yul\":680:681   */\n      0x00\n        /* \"#utility.yul\":677:678   */\n      dup1\n        /* \"#utility.yul\":670:682   */\n      revert\n        /* \"#utility.yul\":621:684   */\n    tag_306:\n        /* \"#utility.yul\":568:690   */\n      pop\n      jump\t// out\n        /* \"#utility.yul\":696:835   */\n    tag_232:\n        /* \"#utility.yul\":742:747   */\n      0x00\n        /* \"#utility.yul\":780:786   */\n      dup2\n        /* \"#utility.yul\":767:787   */\n      calldataload\n        /* \"#utility.yul\":758:787   */\n      swap1\n      pop\n        /* \"#utility.yul\":796:829   */\n      tag_308\n        /* \"#utility.yul\":823:828   */\n      dup2\n        /* \"#utility.yul\":796:829   */\n      tag_231\n      jump\t// in\n    tag_308:\n        /* \"#utility.yul\":696:835   */\n      swap3\n      swap2\n      pop\n      pop\n      jump\t// out\n        /* \"#utility.yul\":841:918   */\n    tag_233:\n        /* \"#utility.yul\":878:885   */\n      0x00\n        /* \"#utility.yul\":907:912   */\n      dup2\n        /* \"#utility.yul\":896:912   */\n      swap1\n      pop\n        /* \"#utility.yul\":841:918   */\n      swap2\n      swap1\n      pop\n      jump\t// out\n        /* \"#utility.yul\":924:1046   */\n    tag_234:\n        /* \"#utility.yul\":997:1021   */\n      tag_311\n        /* \"#utility.yul\":1015:1020   */\n      dup2\n        /* \"#utility.yul\":997:1021   */\n      tag_233\n      jump\t// in\n    tag_311:\n        /* \"#utility.yul\":990:995   */\n      dup2\n        /* \"#utility.yul\":987:1022   */\n      eq\n        /* \"#utility.yul\":977:1040   */\n      tag_312\n      jumpi\n        /* \"#utility.yul\":1036:1037   */\n      0x00\n        /* \"#utility.yul\":1033:1034   */\n      dup1\n        /* \"#utility.yul\":1026:1038   */\n      revert\n        /* \"#utility.yul\":977:1040   */\n    tag_312:\n        /* \"#utility.yul\":924:1046   */\n      pop\n      jump\t// out\n        /* \"#utility.yul\":1052:1191   */\n    tag_235:\n        /* \"#utility.yul\":1098:1103   */\n      0x00\n        /* \"#utility.yul\":1136:1142   */\n      dup2\n        /* \"#utility.yul\":1123:1143   */\n      calldataload\n        /* \"#utility.yul\":1114:1143   */\n      swap1\n      pop\n        /* \"#utility.yul\":1152:1185   */\n      tag_314\n        /* \"#utility.yul\":1179:1184   */\n      dup2\n        /* \"#utility.yul\":1152:1185   */\n      tag_234\n      jump\t// in\n    tag_314:\n        /* \"#utility.yul\":1052:1191   */\n      swap3\n      swap2\n      pop\n      pop\n      jump\t// out\n        /* \"#utility.yul\":1197:1671   */\n    tag_15:\n        /* \"#utility.yul\":1265:1271   */\n      0x00\n        /* \"#utility.yul\":1273:1279   */\n      dup1\n        /* \"#utility.yul\":1322:1324   */\n      0x40\n        /* \"#utility.yul\":1310:1319   */\n      dup4\n        /* \"#utility.yul\":1301:1308   */\n      dup6\n        /* \"#utility.yul\":1297:1320   */\n      sub\n        /* \"#utility.yul\":1293:1325   */\n      slt\n        /* \"#utility.yul\":1290:1409   */\n      iszero\n      tag_316\n      jumpi\n        /* \"#utility.yul\":1328:1407   */\n      tag_317\n      tag_227\n      jump\t// in\n    tag_317:\n        /* \"#utility.yul\":1290:1409   */\n    tag_316:\n        /* \"#utility.yul\":1448:1449   */\n      0x00\n        /* \"#utility.yul\":1473:1526   */\n      tag_318\n        /* \"#utility.yul\":1518:1525   */\n      dup6\n        /* \"#utility.yul\":1509:1515   */\n      dup3\n        /* \"#utility.yul\":1498:1507   */\n      dup7\n        /* \"#utility.yul\":1494:1516   */\n      add\n        /* \"#utility.yul\":1473:1526   */\n      tag_232\n      jump\t// in\n    tag_318:\n        /* \"#utility.yul\":1463:1526   */\n      swap3\n      pop\n        /* \"#utility.yul\":1419:1536   */\n      pop\n        /* \"#utility.yul\":1575:1577   */\n      0x20\n        /* \"#utility.yul\":1601:1654   */\n      tag_319\n        /* \"#utility.yul\":1646:1653   */\n      dup6\n        /* \"#utility.yul\":1637:1643   */\n      dup3\n        /* \"#utility.yul\":1626:1635   */\n      dup7\n        /* \"#utility.yul\":1622:1644   */\n      add\n        /* \"#utility.yul\":1601:1654   */\n      tag_235\n      jump\t// in\n    tag_319:\n        /* \"#utility.yul\":1591:1654   */\n      swap2\n      pop\n        /* \"#utility.yul\":1546:1664   */\n      pop\n        /* \"#utility.yul\":1197:1671   */\n      swap3\n      pop\n      swap3\n      swap1\n      pop\n      jump\t// out\n        /* \"#utility.yul\":1677:1795   */\n    tag_236:\n        /* \"#utility.yul\":1764:1788   */\n      tag_321\n        /* \"#utility.yul\":1782:1787   */\n      dup2\n        /* \"#utility.yul\":1764:1788   */\n      tag_233\n      jump\t// in\n    tag_321:\n        /* \"#utility.yul\":1759:1762   */\n      dup3\n        /* \"#utility.yul\":1752:1789   */\n      mstore\n        /* \"#utility.yul\":1677:1795   */\n      pop\n      pop\n      jump\t// out\n        /* \"#utility.yul\":1801:2023   */\n    tag_18:\n        /* \"#utility.yul\":1894:1898   */\n      0x00\n        /* \"#utility.yul\":1932:1934   */\n      0x20\n        /* \"#utility.yul\":1921:1930   */\n      dup3\n        /* \"#utility.yul\":1917:1935   */\n      add\n        /* \"#utility.yul\":1909:1935   */\n      swap1\n      pop\n        /* \"#utility.yul\":1945:2016   */\n      tag_323\n        /* \"#utility.yul\":2013:2014   */\n      0x00\n        /* \"#utility.yul\":2002:2011   */\n      dup4\n        /* \"#utility.yul\":1998:2015   */\n      add\n        /* \"#utility.yul\":1989:1995   */\n      dup5\n        /* \"#utility.yul\":1945:2016   */\n      tag_236\n      jump\t// in\n    tag_323:\n        /* \"#utility.yul\":1801:2023   */\n      swap3\n      swap2\n      pop\n      pop\n      jump\t// out\n        /* \"#utility.yul\":2029:2178   */\n    tag_237:\n        /* \"#utility.yul\":2065:2072   */\n      0x00\n        /* \"#utility.yul\":2105:2171   */\n      0xffffffff00000000000000000000000000000000000000000000000000000000\n        /* \"#utility.yul\":2098:2103   */\n      dup3\n        /* \"#utility.yul\":2094:2172   */\n      and\n        /* \"#utility.yul\":2083:2172   */\n      swap1\n      pop\n        /* \"#utility.yul\":2029:2178   */\n      swap2\n      swap1\n      pop\n      jump\t// out\n        /* \"#utility.yul\":2184:2304   */\n    tag_238:\n        /* \"#utility.yul\":2256:2279   */\n      tag_326\n        /* \"#utility.yul\":2273:2278   */\n      dup2\n        /* \"#utility.yul\":2256:2279   */\n      tag_237\n      jump\t// in\n    tag_326:\n        /* \"#utility.yul\":2249:2254   */\n      dup2\n        /* \"#utility.yul\":2246:2280   */\n      eq\n        /* \"#utility.yul\":2236:2298   */\n      tag_327\n      jumpi\n        /* \"#utility.yul\":2294:2295   */\n      0x00\n        /* \"#utility.yul\":2291:2292   */\n      dup1\n        /* \"#utility.yul\":2284:2296   */\n      revert\n        /* \"#utility.yul\":2236:2298   */\n    tag_327:\n        /* \"#utility.yul\":2184:2304   */\n      pop\n      jump\t// out\n        /* \"#utility.yul\":2310:2447   */\n    tag_239:\n        /* \"#utility.yul\":2355:2360   */\n      0x00\n        /* \"#utility.yul\":2393:2399   */\n      dup2\n        /* \"#utility.yul\":2380:2400   */\n      calldataload\n        /* \"#utility.yul\":2371:2400   */\n      swap1\n      pop\n        /* \"#utility.yul\":2409:2441   */\n      tag_329\n        /* \"#utility.yul\":2435:2440   */\n      dup2\n        /* \"#utility.yul\":2409:2441   */\n      tag_238\n      jump\t// in\n    tag_329:\n        /* \"#utility.yul\":2310:2447   */\n      swap3\n      swap2\n      pop\n      pop\n      jump\t// out\n        /* \"#utility.yul\":2453:2780   */\n    tag_21:\n        /* \"#utility.yul\":2511:2517   */\n      0x00\n        /* \"#utility.yul\":2560:2562   */\n      0x20\n        /* \"#utility.yul\":2548:2557   */\n      dup3\n        /* \"#utility.yul\":2539:2546   */\n      dup5\n        /* \"#utility.yul\":2535:2558   */\n      sub\n        /* \"#utility.yul\":2531:2563   */\n      slt\n        /* \"#utility.yul\":2528:2647   */\n      iszero\n      tag_331\n      jumpi\n        /* \"#utility.yul\":2566:2645   */\n      tag_332\n      tag_227\n      jump\t// in\n    tag_332:\n        /* \"#utility.yul\":2528:2647   */\n    tag_331:\n        /* \"#utility.yul\":2686:2687   */\n      0x00\n        /* \"#utility.yul\":2711:2763   */\n      tag_333\n        /* \"#utility.yul\":2755:2762   */\n      dup5\n        /* \"#utility.yul\":2746:2752   */\n      dup3\n        /* \"#utility.yul\":2735:2744   */\n      dup6\n        /* \"#utility.yul\":2731:2753   */\n      add\n        /* \"#utility.yul\":2711:2763   */\n      tag_239\n      jump\t// in\n    tag_333:\n        /* \"#utility.yul\":2701:2763   */\n      swap2\n      pop\n        /* \"#utility.yul\":2657:2773   */\n      pop\n        /* \"#utility.yul\":2453:2780   */\n      swap3\n      swap2\n      pop\n      pop\n      jump\t// out\n        /* \"#utility.yul\":2786:2876   */\n    tag_240:\n        /* \"#utility.yul\":2820:2827   */\n      0x00\n        /* \"#utility.yul\":2863:2868   */\n      dup2\n        /* \"#utility.yul\":2856:2869   */\n      iszero\n        /* \"#utility.yul\":2849:2870   */\n      iszero\n        /* \"#utility.yul\":2838:2870   */\n      swap1\n      pop\n        /* \"#utility.yul\":2786:2876   */\n      swap2\n      swap1\n      pop\n      jump\t// out\n        /* \"#utility.yul\":2882:2991   */\n    tag_241:\n        /* \"#utility.yul\":2963:2984   */\n      tag_336\n        /* \"#utility.yul\":2978:2983   */\n      dup2\n        /* \"#utility.yul\":2963:2984   */\n      tag_240\n      jump\t// in\n    tag_336:\n        /* \"#utility.yul\":2958:2961   */\n      dup3\n        /* \"#utility.yul\":2951:2985   */\n      mstore\n        /* \"#utility.yul\":2882:2991   */\n      pop\n      pop\n      jump\t// out\n        /* \"#utility.yul\":2997:3207   */\n    tag_24:\n        /* \"#utility.yul\":3084:3088   */\n      0x00\n        /* \"#utility.yul\":3122:3124   */\n      0x20\n        /* \"#utility.yul\":3111:3120   */\n      dup3\n        /* \"#utility.yul\":3107:3125   */\n      add\n        /* \"#utility.yul\":3099:3125   */\n      swap1\n      pop\n        /* \"#utility.yul\":3135:3200   */\n      tag_338\n        /* \"#utility.yul\":3197:3198   */\n      0x00\n        /* \"#utility.yul\":3186:3195   */\n      dup4\n        /* \"#utility.yul\":3182:3199   */\n      add\n        /* \"#utility.yul\":3173:3179   */\n      dup5\n        /* \"#utility.yul\":3135:3200   */\n      tag_241\n      jump\t// in\n    tag_338:\n        /* \"#utility.yul\":2997:3207   */\n      swap3\n      swap2\n      pop\n      pop\n      jump\t// out\n        /* \"#utility.yul\":3213:3542   */\n    tag_27:\n        /* \"#utility.yul\":3272:3278   */\n      0x00\n        /* \"#utility.yul\":3321:3323   */\n      0x20\n        /* \"#utility.yul\":3309:3318   */\n      dup3\n        /* \"#utility.yul\":3300:3307   */\n      dup5\n        /* \"#utility.yul\":3296:3319   */\n      sub\n        /* \"#utility.yul\":3292:3324   */\n      slt\n        /* \"#utility.yul\":3289:3408   */\n      iszero\n      tag_340\n      jumpi\n        /* \"#utility.yul\":3327:3406   */\n      tag_341\n      tag_227\n      jump\t// in\n    tag_341:\n        /* \"#utility.yul\":3289:3408   */\n    tag_340:\n        /* \"#utility.yul\":3447:3448   */\n      0x00\n        /* \"#utility.yul\":3472:3525   */\n      tag_342\n        /* \"#utility.yul\":3517:3524   */\n      dup5\n        /* \"#utility.yul\":3508:3514   */\n      dup3\n        /* \"#utility.yul\":3497:3506   */\n      dup6\n        /* \"#utility.yul\":3493:3515   */\n      add\n        /* \"#utility.yul\":3472:3525   */\n      tag_235\n      jump\t// in\n    tag_342:\n        /* \"#utility.yul\":3462:3525   */\n      swap2\n      pop\n        /* \"#utility.yul\":3418:3535   */\n      pop\n        /* \"#utility.yul\":3213:3542   */\n      swap3\n      swap2\n      pop\n      pop\n      jump\t// out\n        /* \"#utility.yul\":3548:3647   */\n    tag_242:\n        /* \"#utility.yul\":3600:3606   */\n      0x00\n        /* \"#utility.yul\":3634:3639   */\n      dup2\n        /* \"#utility.yul\":3628:3640   */\n      mload\n        /* \"#utility.yul\":3618:3640   */\n      swap1\n      pop\n        /* \"#utility.yul\":3548:3647   */\n      swap2\n      swap1\n      pop\n      jump\t// out\n        /* \"#utility.yul\":3653:3822   */\n    tag_243:\n        /* \"#utility.yul\":3737:3748   */\n      0x00\n        /* \"#utility.yul\":3771:3777   */\n      dup3\n        /* \"#utility.yul\":3766:3769   */\n      dup3\n        /* \"#utility.yul\":3759:3778   */\n      mstore\n        /* \"#utility.yul\":3811:3815   */\n      0x20\n        /* \"#utility.yul\":3806:3809   */\n      dup3\n        /* \"#utility.yul\":3802:3816   */\n      add\n        /* \"#utility.yul\":3787:3816   */\n      swap1\n      pop\n        /* \"#utility.yul\":3653:3822   */\n      swap3\n      swap2\n      pop\n      pop\n      jump\t// out\n        /* \"#utility.yul\":3828:4074   */\n    tag_244:\n        /* \"#utility.yul\":3909:3910   */\n      0x00\n        /* \"#utility.yul\":3919:4032   */\n    tag_346:\n        /* \"#utility.yul\":3933:3939   */\n      dup4\n        /* \"#utility.yul\":3930:3931   */\n      dup2\n        /* \"#utility.yul\":3927:3940   */\n      lt\n        /* \"#utility.yul\":3919:4032   */\n      iszero\n      tag_348\n      jumpi\n        /* \"#utility.yul\":4018:4019   */\n      dup1\n        /* \"#utility.yul\":4013:4016   */\n      dup3\n        /* \"#utility.yul\":4009:4020   */\n      add\n        /* \"#utility.yul\":4003:4021   */\n      mload\n        /* \"#utility.yul\":3999:4000   */\n      dup2\n        /* \"#utility.yul\":3994:3997   */\n      dup5\n        /* \"#utility.yul\":3990:4001   */\n      add\n        /* \"#utility.yul\":3983:4022   */\n      mstore\n        /* \"#utility.yul\":3955:3957   */\n      0x20\n        /* \"#utility.yul\":3952:3953   */\n      dup2\n        /* \"#utility.yul\":3948:3958   */\n      add\n        /* \"#utility.yul\":3943:3958   */\n      swap1\n      pop\n        /* \"#utility.yul\":3919:4032   */\n      jump(tag_346)\n    tag_348:\n        /* \"#utility.yul\":4066:4067   */\n      0x00\n        /* \"#utility.yul\":4057:4063   */\n      dup5\n        /* \"#utility.yul\":4052:4055   */\n      dup5\n        /* \"#utility.yul\":4048:4064   */\n      add\n        /* \"#utility.yul\":4041:4068   */\n      mstore\n        /* \"#utility.yul\":3890:4074   */\n      pop\n        /* \"#utility.yul\":3828:4074   */\n      pop\n      pop\n      pop\n      jump\t// out\n        /* \"#utility.yul\":4080:4182   */\n    tag_245:\n        /* \"#utility.yul\":4121:4127   */\n      0x00\n        /* \"#utility.yul\":4172:4174   */\n      0x1f\n        /* \"#utility.yul\":4168:4175   */\n      not\n        /* \"#utility.yul\":4163:4165   */\n      0x1f\n        /* \"#utility.yul\":4156:4161   */\n      dup4\n        /* \"#utility.yul\":4152:4166   */\n      add\n        /* \"#utility.yul\":4148:4176   */\n      and\n        /* \"#utility.yul\":4138:4176   */\n      swap1\n      pop\n        /* \"#utility.yul\":4080:4182   */\n      swap2\n      swap1\n      pop\n      jump\t// out\n        /* \"#utility.yul\":4188:4565   */\n    tag_246:\n        /* \"#utility.yul\":4276:4279   */\n      0x00\n        /* \"#utility.yul\":4304:4343   */\n      tag_351\n        /* \"#utility.yul\":4337:4342   */\n      dup3\n        /* \"#utility.yul\":4304:4343   */\n      tag_242\n      jump\t// in\n    tag_351:\n        /* \"#utility.yul\":4359:4430   */\n      tag_352\n        /* \"#utility.yul\":4423:4429   */\n      dup2\n        /* \"#utility.yul\":4418:4421   */\n      dup6\n        /* \"#utility.yul\":4359:4430   */\n      tag_243\n      jump\t// in\n    tag_352:\n        /* \"#utility.yul\":4352:4430   */\n      swap4\n      pop\n        /* \"#utility.yul\":4439:4504   */\n      tag_353\n        /* \"#utility.yul\":4497:4503   */\n      dup2\n        /* \"#utility.yul\":4492:4495   */\n      dup6\n        /* \"#utility.yul\":4485:4489   */\n      0x20\n        /* \"#utility.yul\":4478:4483   */\n      dup7\n        /* \"#utility.yul\":4474:4490   */\n      add\n        /* \"#utility.yul\":4439:4504   */\n      tag_244\n      jump\t// in\n    tag_353:\n        /* \"#utility.yul\":4529:4558   */\n      tag_354\n        /* \"#utility.yul\":4551:4557   */\n      dup2\n        /* \"#utility.yul\":4529:4558   */\n      tag_245\n      jump\t// in\n    tag_354:\n        /* \"#utility.yul\":4524:4527   */\n      dup5\n        /* \"#utility.yul\":4520:4559   */\n      add\n        /* \"#utility.yul\":4513:4559   */\n      swap2\n      pop\n        /* \"#utility.yul\":4280:4565   */\n      pop\n        /* \"#utility.yul\":4188:4565   */\n      swap3\n      swap2\n      pop\n      pop\n      jump\t// out\n        /* \"#utility.yul\":4571:4884   */\n    tag_30:\n        /* \"#utility.yul\":4684:4688   */\n      0x00\n        /* \"#utility.yul\":4722:4724   */\n      0x20\n        /* \"#utility.yul\":4711:4720   */\n      dup3\n        /* \"#utility.yul\":4707:4725   */\n      add\n        /* \"#utility.yul\":4699:4725   */\n      swap1\n      pop\n        /* \"#utility.yul\":4771:4780   */\n      dup2\n        /* \"#utility.yul\":4765:4769   */\n      dup2\n        /* \"#utility.yul\":4761:4781   */\n      sub\n        /* \"#utility.yul\":4757:4758   */\n      0x00\n        /* \"#utility.yul\":4746:4755   */\n      dup4\n        /* \"#utility.yul\":4742:4759   */\n      add\n        /* \"#utility.yul\":4735:4782   */\n      mstore\n        /* \"#utility.yul\":4799:4877   */\n      tag_356\n        /* \"#utility.yul\":4872:4876   */\n      dup2\n        /* \"#utility.yul\":4863:4869   */\n      dup5\n        /* \"#utility.yul\":4799:4877   */\n      tag_246\n      jump\t// in\n    tag_356:\n        /* \"#utility.yul\":4791:4877   */\n      swap1\n      pop\n        /* \"#utility.yul\":4571:4884   */\n      swap3\n      swap2\n      pop\n      pop\n      jump\t// out\n        /* \"#utility.yul\":4890:5007   */\n    tag_247:\n        /* \"#utility.yul\":4999:5000   */\n      0x00\n        /* \"#utility.yul\":4996:4997   */\n      dup1\n        /* \"#utility.yul\":4989:5001   */\n      revert\n        /* \"#utility.yul\":5013:5193   */\n    tag_91:\n        /* \"#utility.yul\":5061:5138   */\n      0x4e487b7100000000000000000000000000000000000000000000000000000000\n        /* \"#utility.yul\":5058:5059   */\n      0x00\n        /* \"#utility.yul\":5051:5139   */\n      mstore\n        /* \"#utility.yul\":5158:5162   */\n      0x41\n        /* \"#utility.yul\":5155:5156   */\n      0x04\n        /* \"#utility.yul\":5148:5163   */\n      mstore\n        /* \"#utility.yul\":5182:5186   */\n      0x24\n        /* \"#utility.yul\":5179:5180   */\n      0x00\n        /* \"#utility.yul\":5172:5187   */\n      revert\n        /* \"#utility.yul\":5199:5480   */\n    tag_248:\n        /* \"#utility.yul\":5282:5309   */\n      tag_360\n        /* \"#utility.yul\":5304:5308   */\n      dup3\n        /* \"#utility.yul\":5282:5309   */\n      tag_245\n      jump\t// in\n    tag_360:\n        /* \"#utility.yul\":5274:5280   */\n      dup2\n        /* \"#utility.yul\":5270:5310   */\n      add\n        /* \"#utility.yul\":5412:5418   */\n      dup2\n        /* \"#utility.yul\":5400:5410   */\n      dup2\n        /* \"#utility.yul\":5397:5419   */\n      lt\n        /* \"#utility.yul\":5376:5394   */\n      0xffffffffffffffff\n        /* \"#utility.yul\":5364:5374   */\n      dup3\n        /* \"#utility.yul\":5361:5395   */\n      gt\n        /* \"#utility.yul\":5358:5420   */\n      or\n        /* \"#utility.yul\":5355:5443   */\n      iszero\n      tag_361\n      jumpi\n        /* \"#utility.yul\":5423:5441   */\n      tag_362\n      tag_91\n      jump\t// in\n    tag_362:\n        /* \"#utility.yul\":5355:5443   */\n    tag_361:\n        /* \"#utility.yul\":5463:5473   */\n      dup1\n        /* \"#utility.yul\":5459:5461   */\n      0x40\n        /* \"#utility.yul\":5452:5474   */\n      mstore\n        /* \"#utility.yul\":5242:5480   */\n      pop\n        /* \"#utility.yul\":5199:5480   */\n      pop\n      pop\n      jump\t// out\n        /* \"#utility.yul\":5486:5615   */\n    tag_249:\n        /* \"#utility.yul\":5520:5526   */\n      0x00\n        /* \"#utility.yul\":5547:5567   */\n      tag_364\n      tag_226\n      jump\t// in\n    tag_364:\n        /* \"#utility.yul\":5537:5567   */\n      swap1\n      pop\n        /* \"#utility.yul\":5576:5609   */\n      tag_365\n        /* \"#utility.yul\":5604:5608   */\n      dup3\n        /* \"#utility.yul\":5596:5602   */\n      dup3\n        /* \"#utility.yul\":5576:5609   */\n      tag_248\n      jump\t// in\n    tag_365:\n        /* \"#utility.yul\":5486:5615   */\n      swap2\n      swap1\n      pop\n      jump\t// out\n        /* \"#utility.yul\":5621:5932   */\n    tag_250:\n        /* \"#utility.yul\":5698:5702   */\n      0x00\n        /* \"#utility.yul\":5788:5806   */\n      0xffffffffffffffff\n        /* \"#utility.yul\":5780:5786   */\n      dup3\n        /* \"#utility.yul\":5777:5807   */\n      gt\n        /* \"#utility.yul\":5774:5830   */\n      iszero\n      tag_367\n      jumpi\n        /* \"#utility.yul\":5810:5828   */\n      tag_368\n      tag_91\n      jump\t// in\n    tag_368:\n        /* \"#utility.yul\":5774:5830   */\n    tag_367:\n        /* \"#utility.yul\":5860:5864   */\n      0x20\n        /* \"#utility.yul\":5852:5858   */\n      dup3\n        /* \"#utility.yul\":5848:5865   */\n      mul\n        /* \"#utility.yul\":5840:5865   */\n      swap1\n      pop\n        /* \"#utility.yul\":5920:5924   */\n      0x20\n        /* \"#utility.yul\":5914:5918   */\n      dup2\n        /* \"#utility.yul\":5910:5925   */\n      add\n        /* \"#utility.yul\":5902:5925   */\n      swap1\n      pop\n        /* \"#utility.yul\":5621:5932   */\n      swap2\n      swap1\n      pop\n      jump\t// out\n        /* \"#utility.yul\":5938:6055   */\n    tag_251:\n        /* \"#utility.yul\":6047:6048   */\n      0x00\n        /* \"#utility.yul\":6044:6045   */\n      dup1\n        /* \"#utility.yul\":6037:6049   */\n      revert\n        /* \"#utility.yul\":6078:6788   */\n    tag_252:\n        /* \"#utility.yul\":6174:6179   */\n      0x00\n        /* \"#utility.yul\":6199:6280   */\n      tag_371\n        /* \"#utility.yul\":6215:6279   */\n      tag_372\n        /* \"#utility.yul\":6272:6278   */\n      dup5\n        /* \"#utility.yul\":6215:6279   */\n      tag_250\n      jump\t// in\n    tag_372:\n        /* \"#utility.yul\":6199:6280   */\n      tag_249\n      jump\t// in\n    tag_371:\n        /* \"#utility.yul\":6190:6280   */\n      swap1\n      pop\n        /* \"#utility.yul\":6300:6305   */\n      dup1\n        /* \"#utility.yul\":6329:6335   */\n      dup4\n        /* \"#utility.yul\":6322:6327   */\n      dup3\n        /* \"#utility.yul\":6315:6336   */\n      mstore\n        /* \"#utility.yul\":6363:6367   */\n      0x20\n        /* \"#utility.yul\":6356:6361   */\n      dup3\n        /* \"#utility.yul\":6352:6368   */\n      add\n        /* \"#utility.yul\":6345:6368   */\n      swap1\n      pop\n        /* \"#utility.yul\":6416:6420   */\n      0x20\n        /* \"#utility.yul\":6408:6414   */\n      dup5\n        /* \"#utility.yul\":6404:6421   */\n      mul\n        /* \"#utility.yul\":6396:6402   */\n      dup4\n        /* \"#utility.yul\":6392:6422   */\n      add\n        /* \"#utility.yul\":6445:6448   */\n      dup6\n        /* \"#utility.yul\":6437:6443   */\n      dup2\n        /* \"#utility.yul\":6434:6449   */\n      gt\n        /* \"#utility.yul\":6431:6553   */\n      iszero\n      tag_373\n      jumpi\n        /* \"#utility.yul\":6464:6543   */\n      tag_374\n      tag_251\n      jump\t// in\n    tag_374:\n        /* \"#utility.yul\":6431:6553   */\n    tag_373:\n        /* \"#utility.yul\":6579:6585   */\n      dup4\n        /* \"#utility.yul\":6562:6782   */\n    tag_375:\n        /* \"#utility.yul\":6596:6602   */\n      dup2\n        /* \"#utility.yul\":6591:6594   */\n      dup2\n        /* \"#utility.yul\":6588:6603   */\n      lt\n        /* \"#utility.yul\":6562:6782   */\n      iszero\n      tag_377\n      jumpi\n        /* \"#utility.yul\":6671:6674   */\n      dup1\n        /* \"#utility.yul\":6700:6737   */\n      tag_378\n        /* \"#utility.yul\":6733:6736   */\n      dup9\n        /* \"#utility.yul\":6721:6731   */\n      dup3\n        /* \"#utility.yul\":6700:6737   */\n      tag_235\n      jump\t// in\n    tag_378:\n        /* \"#utility.yul\":6695:6698   */\n      dup5\n        /* \"#utility.yul\":6688:6738   */\n      mstore\n        /* \"#utility.yul\":6767:6771   */\n      0x20\n        /* \"#utility.yul\":6762:6765   */\n      dup5\n        /* \"#utility.yul\":6758:6772   */\n      add\n        /* \"#utility.yul\":6751:6772   */\n      swap4\n      pop\n        /* \"#utility.yul\":6638:6782   */\n      pop\n        /* \"#utility.yul\":6622:6626   */\n      0x20\n        /* \"#utility.yul\":6617:6620   */\n      dup2\n        /* \"#utility.yul\":6613:6627   */\n      add\n        /* \"#utility.yul\":6606:6627   */\n      swap1\n      pop\n        /* \"#utility.yul\":6562:6782   */\n      jump(tag_375)\n    tag_377:\n        /* \"#utility.yul\":6566:6587   */\n      pop\n        /* \"#utility.yul\":6180:6788   */\n      pop\n      pop\n        /* \"#utility.yul\":6078:6788   */\n      swap4\n      swap3\n      pop\n      pop\n      pop\n      jump\t// out\n        /* \"#utility.yul\":6811:7181   */\n    tag_253:\n        /* \"#utility.yul\":6882:6887   */\n      0x00\n        /* \"#utility.yul\":6931:6934   */\n      dup3\n        /* \"#utility.yul\":6924:6928   */\n      0x1f\n        /* \"#utility.yul\":6916:6922   */\n      dup4\n        /* \"#utility.yul\":6912:6929   */\n      add\n        /* \"#utility.yul\":6908:6935   */\n      slt\n        /* \"#utility.yul\":6898:7020   */\n      tag_380\n      jumpi\n        /* \"#utility.yul\":6939:7018   */\n      tag_381\n      tag_247\n      jump\t// in\n    tag_381:\n        /* \"#utility.yul\":6898:7020   */\n    tag_380:\n        /* \"#utility.yul\":7056:7062   */\n      dup2\n        /* \"#utility.yul\":7043:7063   */\n      calldataload\n        /* \"#utility.yul\":7081:7175   */\n      tag_382\n        /* \"#utility.yul\":7171:7174   */\n      dup5\n        /* \"#utility.yul\":7163:7169   */\n      dup3\n        /* \"#utility.yul\":7156:7160   */\n      0x20\n        /* \"#utility.yul\":7148:7154   */\n      dup7\n        /* \"#utility.yul\":7144:7161   */\n      add\n        /* \"#utility.yul\":7081:7175   */\n      tag_252\n      jump\t// in\n    tag_382:\n        /* \"#utility.yul\":7072:7175   */\n      swap2\n      pop\n        /* \"#utility.yul\":6888:7181   */\n      pop\n        /* \"#utility.yul\":6811:7181   */\n      swap3\n      swap2\n      pop\n      pop\n      jump\t// out\n        /* \"#utility.yul\":7187:7304   */\n    tag_254:\n        /* \"#utility.yul\":7296:7297   */\n      0x00\n        /* \"#utility.yul\":7293:7294   */\n      dup1\n        /* \"#utility.yul\":7286:7298   */\n      revert\n        /* \"#utility.yul\":7310:7617   */\n    tag_255:\n        /* \"#utility.yul\":7371:7375   */\n      0x00\n        /* \"#utility.yul\":7461:7479   */\n      0xffffffffffffffff\n        /* \"#utility.yul\":7453:7459   */\n      dup3\n        /* \"#utility.yul\":7450:7480   */\n      gt\n        /* \"#utility.yul\":7447:7503   */\n      iszero\n      tag_385\n      jumpi\n        /* \"#utility.yul\":7483:7501   */\n      tag_386\n      tag_91\n      jump\t// in\n    tag_386:\n        /* \"#utility.yul\":7447:7503   */\n    tag_385:\n        /* \"#utility.yul\":7521:7550   */\n      tag_387\n        /* \"#utility.yul\":7543:7549   */\n      dup3\n        /* \"#utility.yul\":7521:7550   */\n      tag_245\n      jump\t// in\n    tag_387:\n        /* \"#utility.yul\":7513:7550   */\n      swap1\n      pop\n        /* \"#utility.yul\":7605:7609   */\n      0x20\n        /* \"#utility.yul\":7599:7603   */\n      dup2\n        /* \"#utility.yul\":7595:7610   */\n      add\n        /* \"#utility.yul\":7587:7610   */\n      swap1\n      pop\n        /* \"#utility.yul\":7310:7617   */\n      swap2\n      swap1\n      pop\n      jump\t// out\n        /* \"#utility.yul\":7623:7769   */\n    tag_256:\n        /* \"#utility.yul\":7720:7726   */\n      dup3\n        /* \"#utility.yul\":7715:7718   */\n      dup2\n        /* \"#utility.yul\":7710:7713   */\n      dup4\n        /* \"#utility.yul\":7697:7727   */\n      calldatacopy\n        /* \"#utility.yul\":7761:7762   */\n      0x00\n        /* \"#utility.yul\":7752:7758   */\n      dup4\n        /* \"#utility.yul\":7747:7750   */\n      dup4\n        /* \"#utility.yul\":7743:7759   */\n      add\n        /* \"#utility.yul\":7736:7763   */\n      mstore\n        /* \"#utility.yul\":7623:7769   */\n      pop\n      pop\n      pop\n      jump\t// out\n        /* \"#utility.yul\":7775:8198   */\n    tag_257:\n        /* \"#utility.yul\":7852:7857   */\n      0x00\n        /* \"#utility.yul\":7877:7942   */\n      tag_390\n        /* \"#utility.yul\":7893:7941   */\n      tag_391\n        /* \"#utility.yul\":7934:7940   */\n      dup5\n        /* \"#utility.yul\":7893:7941   */\n      tag_255\n      jump\t// in\n    tag_391:\n        /* \"#utility.yul\":7877:7942   */\n      tag_249\n      jump\t// in\n    tag_390:\n        /* \"#utility.yul\":7868:7942   */\n      swap1\n      pop\n        /* \"#utility.yul\":7965:7971   */\n      dup3\n        /* \"#utility.yul\":7958:7963   */\n      dup2\n        /* \"#utility.yul\":7951:7972   */\n      mstore\n        /* \"#utility.yul\":8003:8007   */\n      0x20\n        /* \"#utility.yul\":7996:8001   */\n      dup2\n        /* \"#utility.yul\":7992:8008   */\n      add\n        /* \"#utility.yul\":8041:8044   */\n      dup5\n        /* \"#utility.yul\":8032:8038   */\n      dup5\n        /* \"#utility.yul\":8027:8030   */\n      dup5\n        /* \"#utility.yul\":8023:8039   */\n      add\n        /* \"#utility.yul\":8020:8045   */\n      gt\n        /* \"#utility.yul\":8017:8129   */\n      iszero\n      tag_392\n      jumpi\n        /* \"#utility.yul\":8048:8127   */\n      tag_393\n      tag_254\n      jump\t// in\n    tag_393:\n        /* \"#utility.yul\":8017:8129   */\n    tag_392:\n        /* \"#utility.yul\":8138:8192   */\n      tag_394\n        /* \"#utility.yul\":8185:8191   */\n      dup5\n        /* \"#utility.yul\":8180:8183   */\n      dup3\n        /* \"#utility.yul\":8175:8178   */\n      dup6\n        /* \"#utility.yul\":8138:8192   */\n      tag_256\n      jump\t// in\n    tag_394:\n        /* \"#utility.yul\":7858:8198   */\n      pop\n        /* \"#utility.yul\":7775:8198   */\n      swap4\n      swap3\n      pop\n      pop\n      pop\n      jump\t// out\n        /* \"#utility.yul\":8217:8555   */\n    tag_258:\n        /* \"#utility.yul\":8272:8277   */\n      0x00\n        /* \"#utility.yul\":8321:8324   */\n      dup3\n        /* \"#utility.yul\":8314:8318   */\n      0x1f\n        /* \"#utility.yul\":8306:8312   */\n      dup4\n        /* \"#utility.yul\":8302:8319   */\n      add\n        /* \"#utility.yul\":8298:8325   */\n      slt\n        /* \"#utility.yul\":8288:8410   */\n      tag_396\n      jumpi\n        /* \"#utility.yul\":8329:8408   */\n      tag_397\n      tag_247\n      jump\t// in\n    tag_397:\n        /* \"#utility.yul\":8288:8410   */\n    tag_396:\n        /* \"#utility.yul\":8446:8452   */\n      dup2\n        /* \"#utility.yul\":8433:8453   */\n      calldataload\n        /* \"#utility.yul\":8471:8549   */\n      tag_398\n        /* \"#utility.yul\":8545:8548   */\n      dup5\n        /* \"#utility.yul\":8537:8543   */\n      dup3\n        /* \"#utility.yul\":8530:8534   */\n      0x20\n        /* \"#utility.yul\":8522:8528   */\n      dup7\n        /* \"#utility.yul\":8518:8535   */\n      add\n        /* \"#utility.yul\":8471:8549   */\n      tag_257\n      jump\t// in\n    tag_398:\n        /* \"#utility.yul\":8462:8549   */\n      swap2\n      pop\n        /* \"#utility.yul\":8278:8555   */\n      pop\n        /* \"#utility.yul\":8217:8555   */\n      swap3\n      swap2\n      pop\n      pop\n      jump\t// out\n        /* \"#utility.yul\":8561:10070   */\n    tag_33:\n        /* \"#utility.yul\":8715:8721   */\n      0x00\n        /* \"#utility.yul\":8723:8729   */\n      dup1\n        /* \"#utility.yul\":8731:8737   */\n      0x00\n        /* \"#utility.yul\":8739:8745   */\n      dup1\n        /* \"#utility.yul\":8747:8753   */\n      0x00\n        /* \"#utility.yul\":8796:8799   */\n      0xa0\n        /* \"#utility.yul\":8784:8793   */\n      dup7\n        /* \"#utility.yul\":8775:8782   */\n      dup9\n        /* \"#utility.yul\":8771:8794   */\n      sub\n        /* \"#utility.yul\":8767:8800   */\n      slt\n        /* \"#utility.yul\":8764:8884   */\n      iszero\n      tag_400\n      jumpi\n        /* \"#utility.yul\":8803:8882   */\n      tag_401\n      tag_227\n      jump\t// in\n    tag_401:\n        /* \"#utility.yul\":8764:8884   */\n    tag_400:\n        /* \"#utility.yul\":8923:8924   */\n      0x00\n        /* \"#utility.yul\":8948:9001   */\n      tag_402\n        /* \"#utility.yul\":8993:9000   */\n      dup9\n        /* \"#utility.yul\":8984:8990   */\n      dup3\n        /* \"#utility.yul\":8973:8982   */\n      dup10\n        /* \"#utility.yul\":8969:8991   */\n      add\n        /* \"#utility.yul\":8948:9001   */\n      tag_232\n      jump\t// in\n    tag_402:\n        /* \"#utility.yul\":8938:9001   */\n      swap6\n      pop\n        /* \"#utility.yul\":8894:9011   */\n      pop\n        /* \"#utility.yul\":9050:9052   */\n      0x20\n        /* \"#utility.yul\":9076:9129   */\n      tag_403\n        /* \"#utility.yul\":9121:9128   */\n      dup9\n        /* \"#utility.yul\":9112:9118   */\n      dup3\n        /* \"#utility.yul\":9101:9110   */\n      dup10\n        /* \"#utility.yul\":9097:9119   */\n      add\n        /* \"#utility.yul\":9076:9129   */\n      tag_232\n      jump\t// in\n    tag_403:\n        /* \"#utility.yul\":9066:9129   */\n      swap5\n      pop\n        /* \"#utility.yul\":9021:9139   */\n      pop\n        /* \"#utility.yul\":9206:9208   */\n      0x40\n        /* \"#utility.yul\":9195:9204   */\n      dup7\n        /* \"#utility.yul\":9191:9209   */\n      add\n        /* \"#utility.yul\":9178:9210   */\n      calldataload\n        /* \"#utility.yul\":9237:9255   */\n      0xffffffffffffffff\n        /* \"#utility.yul\":9229:9235   */\n      dup2\n        /* \"#utility.yul\":9226:9256   */\n      gt\n        /* \"#utility.yul\":9223:9340   */\n      iszero\n      tag_404\n      jumpi\n        /* \"#utility.yul\":9259:9338   */\n      tag_405\n      tag_228\n      jump\t// in\n    tag_405:\n        /* \"#utility.yul\":9223:9340   */\n    tag_404:\n        /* \"#utility.yul\":9364:9442   */\n      tag_406\n        /* \"#utility.yul\":9434:9441   */\n      dup9\n        /* \"#utility.yul\":9425:9431   */\n      dup3\n        /* \"#utility.yul\":9414:9423   */\n      dup10\n        /* \"#utility.yul\":9410:9432   */\n      add\n        /* \"#utility.yul\":9364:9442   */\n      tag_253\n      jump\t// in\n    tag_406:\n        /* \"#utility.yul\":9354:9442   */\n      swap4\n      pop\n        /* \"#utility.yul\":9149:9452   */\n      pop\n        /* \"#utility.yul\":9519:9521   */\n      0x60\n        /* \"#utility.yul\":9508:9517   */\n      dup7\n        /* \"#utility.yul\":9504:9522   */\n      add\n        /* \"#utility.yul\":9491:9523   */\n      calldataload\n        /* \"#utility.yul\":9550:9568   */\n      0xffffffffffffffff\n        /* \"#utility.yul\":9542:9548   */\n      dup2\n        /* \"#utility.yul\":9539:9569   */\n      gt\n        /* \"#utility.yul\":9536:9653   */\n      iszero\n      tag_407\n      jumpi\n        /* \"#utility.yul\":9572:9651   */\n      tag_408\n      tag_228\n      jump\t// in\n    tag_408:\n        /* \"#utility.yul\":9536:9653   */\n    tag_407:\n        /* \"#utility.yul\":9677:9755   */\n      tag_409\n        /* \"#utility.yul\":9747:9754   */\n      dup9\n        /* \"#utility.yul\":9738:9744   */\n      dup3\n        /* \"#utility.yul\":9727:9736   */\n      dup10\n        /* \"#utility.yul\":9723:9745   */\n      add\n        /* \"#utility.yul\":9677:9755   */\n      tag_253\n      jump\t// in\n    tag_409:\n        /* \"#utility.yul\":9667:9755   */\n      swap3\n      pop\n        /* \"#utility.yul\":9462:9765   */\n      pop\n        /* \"#utility.yul\":9832:9835   */\n      0x80\n        /* \"#utility.yul\":9821:9830   */\n      dup7\n        /* \"#utility.yul\":9817:9836   */\n      add\n        /* \"#utility.yul\":9804:9837   */\n      calldataload\n        /* \"#utility.yul\":9864:9882   */\n      0xffffffffffffffff\n        /* \"#utility.yul\":9856:9862   */\n      dup2\n        /* \"#utility.yul\":9853:9883   */\n      gt\n        /* \"#utility.yul\":9850:9967   */\n      iszero\n      tag_410\n      jumpi\n        /* \"#utility.yul\":9886:9965   */\n      tag_411\n      tag_228\n      jump\t// in\n    tag_411:\n        /* \"#utility.yul\":9850:9967   */\n    tag_410:\n        /* \"#utility.yul\":9991:10053   */\n      tag_412\n        /* \"#utility.yul\":10045:10052   */\n      dup9\n        /* \"#utility.yul\":10036:10042   */\n      dup3\n        /* \"#utility.yul\":10025:10034   */\n      dup10\n        /* \"#utility.yul\":10021:10043   */\n      add\n        /* \"#utility.yul\":9991:10053   */\n      tag_258\n      jump\t// in\n    tag_412:\n        /* \"#utility.yul\":9981:10053   */\n      swap2\n      pop\n        /* \"#utility.yul\":9775:10063   */\n      pop\n        /* \"#utility.yul\":8561:10070   */\n      swap3\n      swap6\n      pop\n      swap3\n      swap6\n      swap1\n      swap4\n      pop\n      jump\t// out\n        /* \"#utility.yul\":10076:10387   */\n    tag_259:\n        /* \"#utility.yul\":10153:10157   */\n      0x00\n        /* \"#utility.yul\":10243:10261   */\n      0xffffffffffffffff\n        /* \"#utility.yul\":10235:10241   */\n      dup3\n        /* \"#utility.yul\":10232:10262   */\n      gt\n        /* \"#utility.yul\":10229:10285   */\n      iszero\n      tag_414\n      jumpi\n        /* \"#utility.yul\":10265:10283   */\n      tag_415\n      tag_91\n      jump\t// in\n    tag_415:\n        /* \"#utility.yul\":10229:10285   */\n    tag_414:\n        /* \"#utility.yul\":10315:10319   */\n      0x20\n        /* \"#utility.yul\":10307:10313   */\n      dup3\n        /* \"#utility.yul\":10303:10320   */\n      mul\n        /* \"#utility.yul\":10295:10320   */\n      swap1\n      pop\n        /* \"#utility.yul\":10375:10379   */\n      0x20\n        /* \"#utility.yul\":10369:10373   */\n      dup2\n        /* \"#utility.yul\":10365:10380   */\n      add\n        /* \"#utility.yul\":10357:10380   */\n      swap1\n      pop\n        /* \"#utility.yul\":10076:10387   */\n      swap2\n      swap1\n      pop\n      jump\t// out\n        /* \"#utility.yul\":10410:11120   */\n    tag_260:\n        /* \"#utility.yul\":10506:10511   */\n      0x00\n        /* \"#utility.yul\":10531:10612   */\n      tag_417\n        /* \"#utility.yul\":10547:10611   */\n      tag_418\n        /* \"#utility.yul\":10604:10610   */\n      dup5\n        /* \"#utility.yul\":10547:10611   */\n      tag_259\n      jump\t// in\n    tag_418:\n        /* \"#utility.yul\":10531:10612   */\n      tag_249\n      jump\t// in\n    tag_417:\n        /* \"#utility.yul\":10522:10612   */\n      swap1\n      pop\n        /* \"#utility.yul\":10632:10637   */\n      dup1\n        /* \"#utility.yul\":10661:10667   */\n      dup4\n        /* \"#utility.yul\":10654:10659   */\n      dup3\n        /* \"#utility.yul\":10647:10668   */\n      mstore\n        /* \"#utility.yul\":10695:10699   */\n      0x20\n        /* \"#utility.yul\":10688:10693   */\n      dup3\n        /* \"#utility.yul\":10684:10700   */\n      add\n        /* \"#utility.yul\":10677:10700   */\n      swap1\n      pop\n        /* \"#utility.yul\":10748:10752   */\n      0x20\n        /* \"#utility.yul\":10740:10746   */\n      dup5\n        /* \"#utility.yul\":10736:10753   */\n      mul\n        /* \"#utility.yul\":10728:10734   */\n      dup4\n        /* \"#utility.yul\":10724:10754   */\n      add\n        /* \"#utility.yul\":10777:10780   */\n      dup6\n        /* \"#utility.yul\":10769:10775   */\n      dup2\n        /* \"#utility.yul\":10766:10781   */\n      gt\n        /* \"#utility.yul\":10763:10885   */\n      iszero\n      tag_419\n      jumpi\n        /* \"#utility.yul\":10796:10875   */\n      tag_420\n      tag_251\n      jump\t// in\n    tag_420:\n        /* \"#utility.yul\":10763:10885   */\n    tag_419:\n        /* \"#utility.yul\":10911:10917   */\n      dup4\n        /* \"#utility.yul\":10894:11114   */\n    tag_421:\n        /* \"#utility.yul\":10928:10934   */\n      dup2\n        /* \"#utility.yul\":10923:10926   */\n      dup2\n        /* \"#utility.yul\":10920:10935   */\n      lt\n        /* \"#utility.yul\":10894:11114   */\n      iszero\n      tag_423\n      jumpi\n        /* \"#utility.yul\":11003:11006   */\n      dup1\n        /* \"#utility.yul\":11032:11069   */\n      tag_424\n        /* \"#utility.yul\":11065:11068   */\n      dup9\n        /* \"#utility.yul\":11053:11063   */\n      dup3\n        /* \"#utility.yul\":11032:11069   */\n      tag_232\n      jump\t// in\n    tag_424:\n        /* \"#utility.yul\":11027:11030   */\n      dup5\n        /* \"#utility.yul\":11020:11070   */\n      mstore\n        /* \"#utility.yul\":11099:11103   */\n      0x20\n        /* \"#utility.yul\":11094:11097   */\n      dup5\n        /* \"#utility.yul\":11090:11104   */\n      add\n        /* \"#utility.yul\":11083:11104   */\n      swap4\n      pop\n        /* \"#utility.yul\":10970:11114   */\n      pop\n        /* \"#utility.yul\":10954:10958   */\n      0x20\n        /* \"#utility.yul\":10949:10952   */\n      dup2\n        /* \"#utility.yul\":10945:10959   */\n      add\n        /* \"#utility.yul\":10938:10959   */\n      swap1\n      pop\n        /* \"#utility.yul\":10894:11114   */\n      jump(tag_421)\n    tag_423:\n        /* \"#utility.yul\":10898:10919   */\n      pop\n        /* \"#utility.yul\":10512:11120   */\n      pop\n      pop\n        /* \"#utility.yul\":10410:11120   */\n      swap4\n      swap3\n      pop\n      pop\n      pop\n      jump\t// out\n        /* \"#utility.yul\":11143:11513   */\n    tag_261:\n        /* \"#utility.yul\":11214:11219   */\n      0x00\n        /* \"#utility.yul\":11263:11266   */\n      dup3\n        /* \"#utility.yul\":11256:11260   */\n      0x1f\n        /* \"#utility.yul\":11248:11254   */\n      dup4\n        /* \"#utility.yul\":11244:11261   */\n      add\n        /* \"#utility.yul\":11240:11267   */\n      slt\n        /* \"#utility.yul\":11230:11352   */\n      tag_426\n      jumpi\n        /* \"#utility.yul\":11271:11350   */\n      tag_427\n      tag_247\n      jump\t// in\n    tag_427:\n        /* \"#utility.yul\":11230:11352   */\n    tag_426:\n        /* \"#utility.yul\":11388:11394   */\n      dup2\n        /* \"#utility.yul\":11375:11395   */\n      calldataload\n        /* \"#utility.yul\":11413:11507   */\n      tag_428\n        /* \"#utility.yul\":11503:11506   */\n      dup5\n        /* \"#utility.yul\":11495:11501   */\n      dup3\n        /* \"#utility.yul\":11488:11492   */\n      0x20\n        /* \"#utility.yul\":11480:11486   */\n      dup7\n        /* \"#utility.yul\":11476:11493   */\n      add\n        /* \"#utility.yul\":11413:11507   */\n      tag_260\n      jump\t// in\n    tag_428:\n        /* \"#utility.yul\":11404:11507   */\n      swap2\n      pop\n        /* \"#utility.yul\":11220:11513   */\n      pop\n        /* \"#utility.yul\":11143:11513   */\n      swap3\n      swap2\n      pop\n      pop\n      jump\t// out\n        /* \"#utility.yul\":11519:12413   */\n    tag_37:\n        /* \"#utility.yul\":11637:11643   */\n      0x00\n        /* \"#utility.yul\":11645:11651   */\n      dup1\n        /* \"#utility.yul\":11694:11696   */\n      0x40\n        /* \"#utility.yul\":11682:11691   */\n      dup4\n        /* \"#utility.yul\":11673:11680   */\n      dup6\n        /* \"#utility.yul\":11669:11692   */\n      sub\n        /* \"#utility.yul\":11665:11697   */\n      slt\n        /* \"#utility.yul\":11662:11781   */\n      iszero\n      tag_430\n      jumpi\n        /* \"#utility.yul\":11700:11779   */\n      tag_431\n      tag_227\n      jump\t// in\n    tag_431:\n        /* \"#utility.yul\":11662:11781   */\n    tag_430:\n        /* \"#utility.yul\":11848:11849   */\n      0x00\n        /* \"#utility.yul\":11837:11846   */\n      dup4\n        /* \"#utility.yul\":11833:11850   */\n      add\n        /* \"#utility.yul\":11820:11851   */\n      calldataload\n        /* \"#utility.yul\":11878:11896   */\n      0xffffffffffffffff\n        /* \"#utility.yul\":11870:11876   */\n      dup2\n        /* \"#utility.yul\":11867:11897   */\n      gt\n        /* \"#utility.yul\":11864:11981   */\n      iszero\n      tag_432\n      jumpi\n        /* \"#utility.yul\":11900:11979   */\n      tag_433\n      tag_228\n      jump\t// in\n    tag_433:\n        /* \"#utility.yul\":11864:11981   */\n    tag_432:\n        /* \"#utility.yul\":12005:12083   */\n      tag_434\n        /* \"#utility.yul\":12075:12082   */\n      dup6\n        /* \"#utility.yul\":12066:12072   */\n      dup3\n        /* \"#utility.yul\":12055:12064   */\n      dup7\n        /* \"#utility.yul\":12051:12073   */\n      add\n        /* \"#utility.yul\":12005:12083   */\n      tag_261\n      jump\t// in\n    tag_434:\n        /* \"#utility.yul\":11995:12083   */\n      swap3\n      pop\n        /* \"#utility.yul\":11791:12093   */\n      pop\n        /* \"#utility.yul\":12160:12162   */\n      0x20\n        /* \"#utility.yul\":12149:12158   */\n      dup4\n        /* \"#utility.yul\":12145:12163   */\n      add\n        /* \"#utility.yul\":12132:12164   */\n      calldataload\n        /* \"#utility.yul\":12191:12209   */\n      0xffffffffffffffff\n        /* \"#utility.yul\":12183:12189   */\n      dup2\n        /* \"#utility.yul\":12180:12210   */\n      gt\n        /* \"#utility.yul\":12177:12294   */\n      iszero\n      tag_435\n      jumpi\n        /* \"#utility.yul\":12213:12292   */\n      tag_436\n      tag_228\n      jump\t// in\n    tag_436:\n        /* \"#utility.yul\":12177:12294   */\n    tag_435:\n        /* \"#utility.yul\":12318:12396   */\n      tag_437\n        /* \"#utility.yul\":12388:12395   */\n      dup6\n        /* \"#utility.yul\":12379:12385   */\n      dup3\n        /* \"#utility.yul\":12368:12377   */\n      dup7\n        /* \"#utility.yul\":12364:12386   */\n      add\n        /* \"#utility.yul\":12318:12396   */\n      tag_253\n      jump\t// in\n    tag_437:\n        /* \"#utility.yul\":12308:12396   */\n      swap2\n      pop\n        /* \"#utility.yul\":12103:12406   */\n      pop\n        /* \"#utility.yul\":11519:12413   */\n      swap3\n      pop\n      swap3\n      swap1\n      pop\n      jump\t// out\n        /* \"#utility.yul\":12419:12533   */\n    tag_262:\n        /* \"#utility.yul\":12486:12492   */\n      0x00\n        /* \"#utility.yul\":12520:12525   */\n      dup2\n        /* \"#utility.yul\":12514:12526   */\n      mload\n        /* \"#utility.yul\":12504:12526   */\n      swap1\n      pop\n        /* \"#utility.yul\":12419:12533   */\n      swap2\n      swap1\n      pop\n      jump\t// out\n        /* \"#utility.yul\":12539:12723   */\n    tag_263:\n        /* \"#utility.yul\":12638:12649   */\n      0x00\n        /* \"#utility.yul\":12672:12678   */\n      dup3\n        /* \"#utility.yul\":12667:12670   */\n      dup3\n        /* \"#utility.yul\":12660:12679   */\n      mstore\n        /* \"#utility.yul\":12712:12716   */\n      0x20\n        /* \"#utility.yul\":12707:12710   */\n      dup3\n        /* \"#utility.yul\":12703:12717   */\n      add\n        /* \"#utility.yul\":12688:12717   */\n      swap1\n      pop\n        /* \"#utility.yul\":12539:12723   */\n      swap3\n      swap2\n      pop\n      pop\n      jump\t// out\n        /* \"#utility.yul\":12729:12861   */\n    tag_264:\n        /* \"#utility.yul\":12796:12800   */\n      0x00\n        /* \"#utility.yul\":12819:12822   */\n      dup2\n        /* \"#utility.yul\":12811:12822   */\n      swap1\n      pop\n        /* \"#utility.yul\":12849:12853   */\n      0x20\n        /* \"#utility.yul\":12844:12847   */\n      dup3\n        /* \"#utility.yul\":12840:12854   */\n      add\n        /* \"#utility.yul\":12832:12854   */\n      swap1\n      pop\n        /* \"#utility.yul\":12729:12861   */\n      swap2\n      swap1\n      pop\n      jump\t// out\n        /* \"#utility.yul\":12867:12975   */\n    tag_265:\n        /* \"#utility.yul\":12944:12968   */\n      tag_442\n        /* \"#utility.yul\":12962:12967   */\n      dup2\n        /* \"#utility.yul\":12944:12968   */\n      tag_233\n      jump\t// in\n    tag_442:\n        /* \"#utility.yul\":12939:12942   */\n      dup3\n        /* \"#utility.yul\":12932:12969   */\n      mstore\n        /* \"#utility.yul\":12867:12975   */\n      pop\n      pop\n      jump\t// out\n        /* \"#utility.yul\":12981:13160   */\n    tag_266:\n        /* \"#utility.yul\":13050:13060   */\n      0x00\n        /* \"#utility.yul\":13071:13117   */\n      tag_444\n        /* \"#utility.yul\":13113:13116   */\n      dup4\n        /* \"#utility.yul\":13105:13111   */\n      dup4\n        /* \"#utility.yul\":13071:13117   */\n      tag_265\n      jump\t// in\n    tag_444:\n        /* \"#utility.yul\":13149:13153   */\n      0x20\n        /* \"#utility.yul\":13144:13147   */\n      dup4\n        /* \"#utility.yul\":13140:13154   */\n      add\n        /* \"#utility.yul\":13126:13154   */\n      swap1\n      pop\n        /* \"#utility.yul\":12981:13160   */\n      swap3\n      swap2\n      pop\n      pop\n      jump\t// out\n        /* \"#utility.yul\":13166:13279   */\n    tag_267:\n        /* \"#utility.yul\":13236:13240   */\n      0x00\n        /* \"#utility.yul\":13268:13272   */\n      0x20\n        /* \"#utility.yul\":13263:13266   */\n      dup3\n        /* \"#utility.yul\":13259:13273   */\n      add\n        /* \"#utility.yul\":13251:13273   */\n      swap1\n      pop\n        /* \"#utility.yul\":13166:13279   */\n      swap2\n      swap1\n      pop\n      jump\t// out\n        /* \"#utility.yul\":13315:14047   */\n    tag_268:\n        /* \"#utility.yul\":13434:13437   */\n      0x00\n        /* \"#utility.yul\":13463:13517   */\n      tag_447\n        /* \"#utility.yul\":13511:13516   */\n      dup3\n        /* \"#utility.yul\":13463:13517   */\n      tag_262\n      jump\t// in\n    tag_447:\n        /* \"#utility.yul\":13533:13619   */\n      tag_448\n        /* \"#utility.yul\":13612:13618   */\n      dup2\n        /* \"#utility.yul\":13607:13610   */\n      dup6\n        /* \"#utility.yul\":13533:13619   */\n      tag_263\n      jump\t// in\n    tag_448:\n        /* \"#utility.yul\":13526:13619   */\n      swap4\n      pop\n        /* \"#utility.yul\":13643:13699   */\n      tag_449\n        /* \"#utility.yul\":13693:13698   */\n      dup4\n        /* \"#utility.yul\":13643:13699   */\n      tag_264\n      jump\t// in\n    tag_449:\n        /* \"#utility.yul\":13722:13729   */\n      dup1\n        /* \"#utility.yul\":13753:13754   */\n      0x00\n        /* \"#utility.yul\":13738:14022   */\n    tag_450:\n        /* \"#utility.yul\":13763:13769   */\n      dup4\n        /* \"#utility.yul\":13760:13761   */\n      dup2\n        /* \"#utility.yul\":13757:13770   */\n      lt\n        /* \"#utility.yul\":13738:14022   */\n      iszero\n      tag_452\n      jumpi\n        /* \"#utility.yul\":13839:13845   */\n      dup2\n        /* \"#utility.yul\":13833:13846   */\n      mload\n        /* \"#utility.yul\":13866:13929   */\n      tag_453\n        /* \"#utility.yul\":13925:13928   */\n      dup9\n        /* \"#utility.yul\":13910:13923   */\n      dup3\n        /* \"#utility.yul\":13866:13929   */\n      tag_266\n      jump\t// in\n    tag_453:\n        /* \"#utility.yul\":13859:13929   */\n      swap8\n      pop\n        /* \"#utility.yul\":13952:14012   */\n      tag_454\n        /* \"#utility.yul\":14005:14011   */\n      dup4\n        /* \"#utility.yul\":13952:14012   */\n      tag_267\n      jump\t// in\n    tag_454:\n        /* \"#utility.yul\":13942:14012   */\n      swap3\n      pop\n        /* \"#utility.yul\":13798:14022   */\n      pop\n        /* \"#utility.yul\":13785:13786   */\n      0x01\n        /* \"#utility.yul\":13782:13783   */\n      dup2\n        /* \"#utility.yul\":13778:13787   */\n      add\n        /* \"#utility.yul\":13773:13787   */\n      swap1\n      pop\n        /* \"#utility.yul\":13738:14022   */\n      jump(tag_450)\n    tag_452:\n        /* \"#utility.yul\":13742:13756   */\n      pop\n        /* \"#utility.yul\":14038:14041   */\n      dup6\n        /* \"#utility.yul\":14031:14041   */\n      swap4\n      pop\n        /* \"#utility.yul\":13439:14047   */\n      pop\n      pop\n      pop\n        /* \"#utility.yul\":13315:14047   */\n      swap3\n      swap2\n      pop\n      pop\n      jump\t// out\n        /* \"#utility.yul\":14053:14426   */\n    tag_40:\n        /* \"#utility.yul\":14196:14200   */\n      0x00\n        /* \"#utility.yul\":14234:14236   */\n      0x20\n        /* \"#utility.yul\":14223:14232   */\n      dup3\n        /* \"#utility.yul\":14219:14237   */\n      add\n        /* \"#utility.yul\":14211:14237   */\n      swap1\n      pop\n        /* \"#utility.yul\":14283:14292   */\n      dup2\n        /* \"#utility.yul\":14277:14281   */\n      dup2\n        /* \"#utility.yul\":14273:14293   */\n      sub\n        /* \"#utility.yul\":14269:14270   */\n      0x00\n        /* \"#utility.yul\":14258:14267   */\n      dup4\n        /* \"#utility.yul\":14254:14271   */\n      add\n        /* \"#utility.yul\":14247:14294   */\n      mstore\n        /* \"#utility.yul\":14311:14419   */\n      tag_456\n        /* \"#utility.yul\":14414:14418   */\n      dup2\n        /* \"#utility.yul\":14405:14411   */\n      dup5\n        /* \"#utility.yul\":14311:14419   */\n      tag_268\n      jump\t// in\n    tag_456:\n        /* \"#utility.yul\":14303:14419   */\n      swap1\n      pop\n        /* \"#utility.yul\":14053:14426   */\n      swap3\n      swap2\n      pop\n      pop\n      jump\t// out\n        /* \"#utility.yul\":14432:14548   */\n    tag_269:\n        /* \"#utility.yul\":14502:14523   */\n      tag_458\n        /* \"#utility.yul\":14517:14522   */\n      dup2\n        /* \"#utility.yul\":14502:14523   */\n      tag_240\n      jump\t// in\n    tag_458:\n        /* \"#utility.yul\":14495:14500   */\n      dup2\n        /* \"#utility.yul\":14492:14524   */\n      eq\n        /* \"#utility.yul\":14482:14542   */\n      tag_459\n      jumpi\n        /* \"#utility.yul\":14538:14539   */\n      0x00\n        /* \"#utility.yul\":14535:14536   */\n      dup1\n        /* \"#utility.yul\":14528:14540   */\n      revert\n        /* \"#utility.yul\":14482:14542   */\n    tag_459:\n        /* \"#utility.yul\":14432:14548   */\n      pop\n      jump\t// out\n        /* \"#utility.yul\":14554:14687   */\n    tag_270:\n        /* \"#utility.yul\":14597:14602   */\n      0x00\n        /* \"#utility.yul\":14635:14641   */\n      dup2\n        /* \"#utility.yul\":14622:14642   */\n      calldataload\n        /* \"#utility.yul\":14613:14642   */\n      swap1\n      pop\n        /* \"#utility.yul\":14651:14681   */\n      tag_461\n        /* \"#utility.yul\":14675:14680   */\n      dup2\n        /* \"#utility.yul\":14651:14681   */\n      tag_269\n      jump\t// in\n    tag_461:\n        /* \"#utility.yul\":14554:14687   */\n      swap3\n      swap2\n      pop\n      pop\n      jump\t// out\n        /* \"#utility.yul\":14693:15161   */\n    tag_43:\n        /* \"#utility.yul\":14758:14764   */\n      0x00\n        /* \"#utility.yul\":14766:14772   */\n      dup1\n        /* \"#utility.yul\":14815:14817   */\n      0x40\n        /* \"#utility.yul\":14803:14812   */\n      dup4\n        /* \"#utility.yul\":14794:14801   */\n      dup6\n        /* \"#utility.yul\":14790:14813   */\n      sub\n        /* \"#utility.yul\":14786:14818   */\n      slt\n        /* \"#utility.yul\":14783:14902   */\n      iszero\n      tag_463\n      jumpi\n        /* \"#utility.yul\":14821:14900   */\n      tag_464\n      tag_227\n      jump\t// in\n    tag_464:\n        /* \"#utility.yul\":14783:14902   */\n    tag_463:\n        /* \"#utility.yul\":14941:14942   */\n      0x00\n        /* \"#utility.yul\":14966:15019   */\n      tag_465\n        /* \"#utility.yul\":15011:15018   */\n      dup6\n        /* \"#utility.yul\":15002:15008   */\n      dup3\n        /* \"#utility.yul\":14991:15000   */\n      dup7\n        /* \"#utility.yul\":14987:15009   */\n      add\n        /* \"#utility.yul\":14966:15019   */\n      tag_232\n      jump\t// in\n    tag_465:\n        /* \"#utility.yul\":14956:15019   */\n      swap3\n      pop\n        /* \"#utility.yul\":14912:15029   */\n      pop\n        /* \"#utility.yul\":15068:15070   */\n      0x20\n        /* \"#utility.yul\":15094:15144   */\n      tag_466\n        /* \"#utility.yul\":15136:15143   */\n      dup6\n        /* \"#utility.yul\":15127:15133   */\n      dup3\n        /* \"#utility.yul\":15116:15125   */\n      dup7\n        /* \"#utility.yul\":15112:15134   */\n      add\n        /* \"#utility.yul\":15094:15144   */\n      tag_270\n      jump\t// in\n    tag_466:\n        /* \"#utility.yul\":15084:15144   */\n      swap2\n      pop\n        /* \"#utility.yul\":15039:15154   */\n      pop\n        /* \"#utility.yul\":14693:15161   */\n      swap3\n      pop\n      swap3\n      swap1\n      pop\n      jump\t// out\n        /* \"#utility.yul\":15167:15641   */\n    tag_51:\n        /* \"#utility.yul\":15235:15241   */\n      0x00\n        /* \"#utility.yul\":15243:15249   */\n      dup1\n        /* \"#utility.yul\":15292:15294   */\n      0x40\n        /* \"#utility.yul\":15280:15289   */\n      dup4\n        /* \"#utility.yul\":15271:15278   */\n      dup6\n        /* \"#utility.yul\":15267:15290   */\n      sub\n        /* \"#utility.yul\":15263:15295   */\n      slt\n        /* \"#utility.yul\":15260:15379   */\n      iszero\n      tag_468\n      jumpi\n        /* \"#utility.yul\":15298:15377   */\n      tag_469\n      tag_227\n      jump\t// in\n    tag_469:\n        /* \"#utility.yul\":15260:15379   */\n    tag_468:\n        /* \"#utility.yul\":15418:15419   */\n      0x00\n        /* \"#utility.yul\":15443:15496   */\n      tag_470\n        /* \"#utility.yul\":15488:15495   */\n      dup6\n        /* \"#utility.yul\":15479:15485   */\n      dup3\n        /* \"#utility.yul\":15468:15477   */\n      dup7\n        /* \"#utility.yul\":15464:15486   */\n      add\n        /* \"#utility.yul\":15443:15496   */\n      tag_232\n      jump\t// in\n    tag_470:\n        /* \"#utility.yul\":15433:15496   */\n      swap3\n      pop\n        /* \"#utility.yul\":15389:15506   */\n      pop\n        /* \"#utility.yul\":15545:15547   */\n      0x20\n        /* \"#utility.yul\":15571:15624   */\n      tag_471\n        /* \"#utility.yul\":15616:15623   */\n      dup6\n        /* \"#utility.yul\":15607:15613   */\n      dup3\n        /* \"#utility.yul\":15596:15605   */\n      dup7\n        /* \"#utility.yul\":15592:15614   */\n      add\n        /* \"#utility.yul\":15571:15624   */\n      tag_232\n      jump\t// in\n    tag_471:\n        /* \"#utility.yul\":15561:15624   */\n      swap2\n      pop\n        /* \"#utility.yul\":15516:15634   */\n      pop\n        /* \"#utility.yul\":15167:15641   */\n      swap3\n      pop\n      swap3\n      swap1\n      pop\n      jump\t// out\n        /* \"#utility.yul\":15647:16736   */\n    tag_56:\n        /* \"#utility.yul\":15751:15757   */\n      0x00\n        /* \"#utility.yul\":15759:15765   */\n      dup1\n        /* \"#utility.yul\":15767:15773   */\n      0x00\n        /* \"#utility.yul\":15775:15781   */\n      dup1\n        /* \"#utility.yul\":15783:15789   */\n      0x00\n        /* \"#utility.yul\":15832:15835   */\n      0xa0\n        /* \"#utility.yul\":15820:15829   */\n      dup7\n        /* \"#utility.yul\":15811:15818   */\n      dup9\n        /* \"#utility.yul\":15807:15830   */\n      sub\n        /* \"#utility.yul\":15803:15836   */\n      slt\n        /* \"#utility.yul\":15800:15920   */\n      iszero\n      tag_473\n      jumpi\n        /* \"#utility.yul\":15839:15918   */\n      tag_474\n      tag_227\n      jump\t// in\n    tag_474:\n        /* \"#utility.yul\":15800:15920   */\n    tag_473:\n        /* \"#utility.yul\":15959:15960   */\n      0x00\n        /* \"#utility.yul\":15984:16037   */\n      tag_475\n        /* \"#utility.yul\":16029:16036   */\n      dup9\n        /* \"#utility.yul\":16020:16026   */\n      dup3\n        /* \"#utility.yul\":16009:16018   */\n      dup10\n        /* \"#utility.yul\":16005:16027   */\n      add\n        /* \"#utility.yul\":15984:16037   */\n      tag_232\n      jump\t// in\n    tag_475:\n        /* \"#utility.yul\":15974:16037   */\n      swap6\n      pop\n        /* \"#utility.yul\":15930:16047   */\n      pop\n        /* \"#utility.yul\":16086:16088   */\n      0x20\n        /* \"#utility.yul\":16112:16165   */\n      tag_476\n        /* \"#utility.yul\":16157:16164   */\n      dup9\n        /* \"#utility.yul\":16148:16154   */\n      dup3\n        /* \"#utility.yul\":16137:16146   */\n      dup10\n        /* \"#utility.yul\":16133:16155   */\n      add\n        /* \"#utility.yul\":16112:16165   */\n      tag_232\n      jump\t// in\n    tag_476:\n        /* \"#utility.yul\":16102:16165   */\n      swap5\n      pop\n        /* \"#utility.yul\":16057:16175   */\n      pop\n        /* \"#utility.yul\":16214:16216   */\n      0x40\n        /* \"#utility.yul\":16240:16293   */\n      tag_477\n        /* \"#utility.yul\":16285:16292   */\n      dup9\n        /* \"#utility.yul\":16276:16282   */\n      dup3\n        /* \"#utility.yul\":16265:16274   */\n      dup10\n        /* \"#utility.yul\":16261:16283   */\n      add\n        /* \"#utility.yul\":16240:16293   */\n      tag_235\n      jump\t// in\n    tag_477:\n        /* \"#utility.yul\":16230:16293   */\n      swap4\n      pop\n        /* \"#utility.yul\":16185:16303   */\n      pop\n        /* \"#utility.yul\":16342:16344   */\n      0x60\n        /* \"#utility.yul\":16368:16421   */\n      tag_478\n        /* \"#utility.yul\":16413:16420   */\n      dup9\n        /* \"#utility.yul\":16404:16410   */\n      dup3\n        /* \"#utility.yul\":16393:16402   */\n      dup10\n        /* \"#utility.yul\":16389:16411   */\n      add\n        /* \"#utility.yul\":16368:16421   */\n      tag_235\n      jump\t// in\n    tag_478:\n        /* \"#utility.yul\":16358:16421   */\n      swap3\n      pop\n        /* \"#utility.yul\":16313:16431   */\n      pop\n        /* \"#utility.yul\":16498:16501   */\n      0x80\n        /* \"#utility.yul\":16487:16496   */\n      dup7\n        /* \"#utility.yul\":16483:16502   */\n      add\n        /* \"#utility.yul\":16470:16503   */\n      calldataload\n        /* \"#utility.yul\":16530:16548   */\n      0xffffffffffffffff\n        /* \"#utility.yul\":16522:16528   */\n      dup2\n        /* \"#utility.yul\":16519:16549   */\n      gt\n        /* \"#utility.yul\":16516:16633   */\n      iszero\n      tag_479\n      jumpi\n        /* \"#utility.yul\":16552:16631   */\n      tag_480\n      tag_228\n      jump\t// in\n    tag_480:\n        /* \"#utility.yul\":16516:16633   */\n    tag_479:\n        /* \"#utility.yul\":16657:16719   */\n      tag_481\n        /* \"#utility.yul\":16711:16718   */\n      dup9\n        /* \"#utility.yul\":16702:16708   */\n      dup3\n        /* \"#utility.yul\":16691:16700   */\n      dup10\n        /* \"#utility.yul\":16687:16709   */\n      add\n        /* \"#utility.yul\":16657:16719   */\n      tag_258\n      jump\t// in\n    tag_481:\n        /* \"#utility.yul\":16647:16719   */\n      swap2\n      pop\n        /* \"#utility.yul\":16441:16729   */\n      pop\n        /* \"#utility.yul\":15647:16736   */\n      swap3\n      swap6\n      pop\n      swap3\n      swap6\n      swap1\n      swap4\n      pop\n      jump\t// out\n        /* \"#utility.yul\":16742:16971   */\n    tag_271:\n        /* \"#utility.yul\":16882:16916   */\n      0x455243313135353a2061646472657373207a65726f206973206e6f7420612076\n        /* \"#utility.yul\":16878:16879   */\n      0x00\n        /* \"#utility.yul\":16870:16876   */\n      dup3\n        /* \"#utility.yul\":16866:16880   */\n      add\n        /* \"#utility.yul\":16859:16917   */\n      mstore\n        /* \"#utility.yul\":16951:16963   */\n      0x616c6964206f776e657200000000000000000000000000000000000000000000\n        /* \"#utility.yul\":16946:16948   */\n      0x20\n        /* \"#utility.yul\":16938:16944   */\n      dup3\n        /* \"#utility.yul\":16934:16949   */\n      add\n        /* \"#utility.yul\":16927:16964   */\n      mstore\n        /* \"#utility.yul\":16742:16971   */\n      pop\n      jump\t// out\n        /* \"#utility.yul\":16977:17343   */\n    tag_272:\n        /* \"#utility.yul\":17119:17122   */\n      0x00\n        /* \"#utility.yul\":17140:17207   */\n      tag_484\n        /* \"#utility.yul\":17204:17206   */\n      0x2a\n        /* \"#utility.yul\":17199:17202   */\n      dup4\n        /* \"#utility.yul\":17140:17207   */\n      tag_243\n      jump\t// in\n    tag_484:\n        /* \"#utility.yul\":17133:17207   */\n      swap2\n      pop\n        /* \"#utility.yul\":17216:17309   */\n      tag_485\n        /* \"#utility.yul\":17305:17308   */\n      dup3\n        /* \"#utility.yul\":17216:17309   */\n      tag_271\n      jump\t// in\n    tag_485:\n        /* \"#utility.yul\":17334:17336   */\n      0x40\n        /* \"#utility.yul\":17329:17332   */\n      dup3\n        /* \"#utility.yul\":17325:17337   */\n      add\n        /* \"#utility.yul\":17318:17337   */\n      swap1\n      pop\n        /* \"#utility.yul\":16977:17343   */\n      swap2\n      swap1\n      pop\n      jump\t// out\n        /* \"#utility.yul\":17349:17768   */\n    tag_61:\n        /* \"#utility.yul\":17515:17519   */\n      0x00\n        /* \"#utility.yul\":17553:17555   */\n      0x20\n        /* \"#utility.yul\":17542:17551   */\n      dup3\n        /* \"#utility.yul\":17538:17556   */\n      add\n        /* \"#utility.yul\":17530:17556   */\n      swap1\n      pop\n        /* \"#utility.yul\":17602:17611   */\n      dup2\n        /* \"#utility.yul\":17596:17600   */\n      dup2\n        /* \"#utility.yul\":17592:17612   */\n      sub\n        /* \"#utility.yul\":17588:17589   */\n      0x00\n        /* \"#utility.yul\":17577:17586   */\n      dup4\n        /* \"#utility.yul\":17573:17590   */\n      add\n        /* \"#utility.yul\":17566:17613   */\n      mstore\n        /* \"#utility.yul\":17630:17761   */\n      tag_487\n        /* \"#utility.yul\":17756:17760   */\n      dup2\n        /* \"#utility.yul\":17630:17761   */\n      tag_272\n      jump\t// in\n    tag_487:\n        /* \"#utility.yul\":17622:17761   */\n      swap1\n      pop\n        /* \"#utility.yul\":17349:17768   */\n      swap2\n      swap1\n      pop\n      jump\t// out\n        /* \"#utility.yul\":17774:17954   */\n    tag_273:\n        /* \"#utility.yul\":17822:17899   */\n      0x4e487b7100000000000000000000000000000000000000000000000000000000\n        /* \"#utility.yul\":17819:17820   */\n      0x00\n        /* \"#utility.yul\":17812:17900   */\n      mstore\n        /* \"#utility.yul\":17919:17923   */\n      0x22\n        /* \"#utility.yul\":17916:17917   */\n      0x04\n        /* \"#utility.yul\":17909:17924   */\n      mstore\n        /* \"#utility.yul\":17943:17947   */\n      0x24\n        /* \"#utility.yul\":17940:17941   */\n      0x00\n        /* \"#utility.yul\":17933:17948   */\n      revert\n        /* \"#utility.yul\":17960:18280   */\n    tag_69:\n        /* \"#utility.yul\":18004:18010   */\n      0x00\n        /* \"#utility.yul\":18041:18042   */\n      0x02\n        /* \"#utility.yul\":18035:18039   */\n      dup3\n        /* \"#utility.yul\":18031:18043   */\n      div\n        /* \"#utility.yul\":18021:18043   */\n      swap1\n      pop\n        /* \"#utility.yul\":18088:18089   */\n      0x01\n        /* \"#utility.yul\":18082:18086   */\n      dup3\n        /* \"#utility.yul\":18078:18090   */\n      and\n        /* \"#utility.yul\":18109:18127   */\n      dup1\n        /* \"#utility.yul\":18099:18180   */\n      tag_490\n      jumpi\n        /* \"#utility.yul\":18165:18169   */\n      0x7f\n        /* \"#utility.yul\":18157:18163   */\n      dup3\n        /* \"#utility.yul\":18153:18170   */\n      and\n        /* \"#utility.yul\":18143:18170   */\n      swap2\n      pop\n        /* \"#utility.yul\":18099:18180   */\n    tag_490:\n        /* \"#utility.yul\":18227:18229   */\n      0x20\n        /* \"#utility.yul\":18219:18225   */\n      dup3\n        /* \"#utility.yul\":18216:18230   */\n      lt\n        /* \"#utility.yul\":18196:18214   */\n      dup2\n        /* \"#utility.yul\":18193:18231   */\n      sub\n        /* \"#utility.yul\":18190:18274   */\n      tag_491\n      jumpi\n        /* \"#utility.yul\":18246:18264   */\n      tag_492\n      tag_273\n      jump\t// in\n    tag_492:\n        /* \"#utility.yul\":18190:18274   */\n    tag_491:\n        /* \"#utility.yul\":18011:18280   */\n      pop\n        /* \"#utility.yul\":17960:18280   */\n      swap2\n      swap1\n      pop\n      jump\t// out\n        /* \"#utility.yul\":18286:18519   */\n    tag_274:\n        /* \"#utility.yul\":18426:18460   */\n      0x455243313135353a2063616c6c6572206973206e6f7420746f6b656e206f776e\n        /* \"#utility.yul\":18422:18423   */\n      0x00\n        /* \"#utility.yul\":18414:18420   */\n      dup3\n        /* \"#utility.yul\":18410:18424   */\n      add\n        /* \"#utility.yul\":18403:18461   */\n      mstore\n        /* \"#utility.yul\":18495:18511   */\n      0x6572206f7220617070726f766564000000000000000000000000000000000000\n        /* \"#utility.yul\":18490:18492   */\n      0x20\n        /* \"#utility.yul\":18482:18488   */\n      dup3\n        /* \"#utility.yul\":18478:18493   */\n      add\n        /* \"#utility.yul\":18471:18512   */\n      mstore\n        /* \"#utility.yul\":18286:18519   */\n      pop\n      jump\t// out\n        /* \"#utility.yul\":18525:18891   */\n    tag_275:\n        /* \"#utility.yul\":18667:18670   */\n      0x00\n        /* \"#utility.yul\":18688:18755   */\n      tag_495\n        /* \"#utility.yul\":18752:18754   */\n      0x2e\n        /* \"#utility.yul\":18747:18750   */\n      dup4\n        /* \"#utility.yul\":18688:18755   */\n      tag_243\n      jump\t// in\n    tag_495:\n        /* \"#utility.yul\":18681:18755   */\n      swap2\n      pop\n        /* \"#utility.yul\":18764:18857   */\n      tag_496\n        /* \"#utility.yul\":18853:18856   */\n      dup3\n        /* \"#utility.yul\":18764:18857   */\n      tag_274\n      jump\t// in\n    tag_496:\n        /* \"#utility.yul\":18882:18884   */\n      0x40\n        /* \"#utility.yul\":18877:18880   */\n      dup3\n        /* \"#utility.yul\":18873:18885   */\n      add\n        /* \"#utility.yul\":18866:18885   */\n      swap1\n      pop\n        /* \"#utility.yul\":18525:18891   */\n      swap2\n      swap1\n      pop\n      jump\t// out\n        /* \"#utility.yul\":18897:19316   */\n    tag_82:\n        /* \"#utility.yul\":19063:19067   */\n      0x00\n        /* \"#utility.yul\":19101:19103   */\n      0x20\n        /* \"#utility.yul\":19090:19099   */\n      dup3\n        /* \"#utility.yul\":19086:19104   */\n      add\n        /* \"#utility.yul\":19078:19104   */\n      swap1\n      pop\n        /* \"#utility.yul\":19150:19159   */\n      dup2\n        /* \"#utility.yul\":19144:19148   */\n      dup2\n        /* \"#utility.yul\":19140:19160   */\n      sub\n        /* \"#utility.yul\":19136:19137   */\n      0x00\n        /* \"#utility.yul\":19125:19134   */\n      dup4\n        /* \"#utility.yul\":19121:19138   */\n      add\n        /* \"#utility.yul\":19114:19161   */\n      mstore\n        /* \"#utility.yul\":19178:19309   */\n      tag_498\n        /* \"#utility.yul\":19304:19308   */\n      dup2\n        /* \"#utility.yul\":19178:19309   */\n      tag_275\n      jump\t// in\n    tag_498:\n        /* \"#utility.yul\":19170:19309   */\n      swap1\n      pop\n        /* \"#utility.yul\":18897:19316   */\n      swap2\n      swap1\n      pop\n      jump\t// out\n        /* \"#utility.yul\":19322:19550   */\n    tag_276:\n        /* \"#utility.yul\":19462:19496   */\n      0x455243313135353a206163636f756e747320616e6420696473206c656e677468\n        /* \"#utility.yul\":19458:19459   */\n      0x00\n        /* \"#utility.yul\":19450:19456   */\n      dup3\n        /* \"#utility.yul\":19446:19460   */\n      add\n        /* \"#utility.yul\":19439:19497   */\n      mstore\n        /* \"#utility.yul\":19531:19542   */\n      0x206d69736d617463680000000000000000000000000000000000000000000000\n        /* \"#utility.yul\":19526:19528   */\n      0x20\n        /* \"#utility.yul\":19518:19524   */\n      dup3\n        /* \"#utility.yul\":19514:19529   */\n      add\n        /* \"#utility.yul\":19507:19543   */\n      mstore\n        /* \"#utility.yul\":19322:19550   */\n      pop\n      jump\t// out\n        /* \"#utility.yul\":19556:19922   */\n    tag_277:\n        /* \"#utility.yul\":19698:19701   */\n      0x00\n        /* \"#utility.yul\":19719:19786   */\n      tag_501\n        /* \"#utility.yul\":19783:19785   */\n      0x29\n        /* \"#utility.yul\":19778:19781   */\n      dup4\n        /* \"#utility.yul\":19719:19786   */\n      tag_243\n      jump\t// in\n    tag_501:\n        /* \"#utility.yul\":19712:19786   */\n      swap2\n      pop\n        /* \"#utility.yul\":19795:19888   */\n      tag_502\n        /* \"#utility.yul\":19884:19887   */\n      dup3\n        /* \"#utility.yul\":19795:19888   */\n      tag_276\n      jump\t// in\n    tag_502:\n        /* \"#utility.yul\":19913:19915   */\n      0x40\n        /* \"#utility.yul\":19908:19911   */\n      dup3\n        /* \"#utility.yul\":19904:19916   */\n      add\n        /* \"#utility.yul\":19897:19916   */\n      swap1\n      pop\n        /* \"#utility.yul\":19556:19922   */\n      swap2\n      swap1\n      pop\n      jump\t// out\n        /* \"#utility.yul\":19928:20347   */\n    tag_88:\n        /* \"#utility.yul\":20094:20098   */\n      0x00\n        /* \"#utility.yul\":20132:20134   */\n      0x20\n        /* \"#utility.yul\":20121:20130   */\n      dup3\n        /* \"#utility.yul\":20117:20135   */\n      add\n        /* \"#utility.yul\":20109:20135   */\n      swap1\n      pop\n        /* \"#utility.yul\":20181:20190   */\n      dup2\n        /* \"#utility.yul\":20175:20179   */\n      dup2\n        /* \"#utility.yul\":20171:20191   */\n      sub\n        /* \"#utility.yul\":20167:20168   */\n      0x00\n        /* \"#utility.yul\":20156:20165   */\n      dup4\n        /* \"#utility.yul\":20152:20169   */\n      add\n        /* \"#utility.yul\":20145:20192   */\n      mstore\n        /* \"#utility.yul\":20209:20340   */\n      tag_504\n        /* \"#utility.yul\":20335:20339   */\n      dup2\n        /* \"#utility.yul\":20209:20340   */\n      tag_277\n      jump\t// in\n    tag_504:\n        /* \"#utility.yul\":20201:20340   */\n      swap1\n      pop\n        /* \"#utility.yul\":19928:20347   */\n      swap2\n      swap1\n      pop\n      jump\t// out\n        /* \"#utility.yul\":20353:20533   */\n    tag_99:\n        /* \"#utility.yul\":20401:20478   */\n      0x4e487b7100000000000000000000000000000000000000000000000000000000\n        /* \"#utility.yul\":20398:20399   */\n      0x00\n        /* \"#utility.yul\":20391:20479   */\n      mstore\n        /* \"#utility.yul\":20498:20502   */\n      0x32\n        /* \"#utility.yul\":20495:20496   */\n      0x04\n        /* \"#utility.yul\":20488:20503   */\n      mstore\n        /* \"#utility.yul\":20522:20526   */\n      0x24\n        /* \"#utility.yul\":20519:20520   */\n      0x00\n        /* \"#utility.yul\":20512:20527   */\n      revert\n        /* \"#utility.yul\":20539:20719   */\n    tag_278:\n        /* \"#utility.yul\":20587:20664   */\n      0x4e487b7100000000000000000000000000000000000000000000000000000000\n        /* \"#utility.yul\":20584:20585   */\n      0x00\n        /* \"#utility.yul\":20577:20665   */\n      mstore\n        /* \"#utility.yul\":20684:20688   */\n      0x11\n        /* \"#utility.yul\":20681:20682   */\n      0x04\n        /* \"#utility.yul\":20674:20689   */\n      mstore\n        /* \"#utility.yul\":20708:20712   */\n      0x24\n        /* \"#utility.yul\":20705:20706   */\n      0x00\n        /* \"#utility.yul\":20698:20713   */\n      revert\n        /* \"#utility.yul\":20725:20958   */\n    tag_105:\n        /* \"#utility.yul\":20764:20767   */\n      0x00\n        /* \"#utility.yul\":20787:20811   */\n      tag_508\n        /* \"#utility.yul\":20805:20810   */\n      dup3\n        /* \"#utility.yul\":20787:20811   */\n      tag_233\n      jump\t// in\n    tag_508:\n        /* \"#utility.yul\":20778:20811   */\n      swap2\n      pop\n        /* \"#utility.yul\":20833:20899   */\n      0xffffffffffffffffffffffffffffffffffffffffffffffffffffffffffffffff\n        /* \"#utility.yul\":20826:20831   */\n      dup3\n        /* \"#utility.yul\":20823:20900   */\n      sub\n        /* \"#utility.yul\":20820:20923   */\n      tag_509\n      jumpi\n        /* \"#utility.yul\":20903:20921   */\n      tag_510\n      tag_278\n      jump\t// in\n    tag_510:\n        /* \"#utility.yul\":20820:20923   */\n    tag_509:\n        /* \"#utility.yul\":20950:20951   */\n      0x01\n        /* \"#utility.yul\":20943:20948   */\n      dup3\n        /* \"#utility.yul\":20939:20952   */\n      add\n        /* \"#utility.yul\":20932:20952   */\n      swap1\n      pop\n        /* \"#utility.yul\":20725:20958   */\n      swap2\n      swap1\n      pop\n      jump\t// out\n        /* \"#utility.yul\":20964:21191   */\n    tag_279:\n        /* \"#utility.yul\":21104:21138   */\n      0x455243313135353a2069647320616e6420616d6f756e7473206c656e67746820\n        /* \"#utility.yul\":21100:21101   */\n      0x00\n        /* \"#utility.yul\":21092:21098   */\n      dup3\n        /* \"#utility.yul\":21088:21102   */\n      add\n        /* \"#utility.yul\":21081:21139   */\n      mstore\n        /* \"#utility.yul\":21173:21183   */\n      0x6d69736d61746368000000000000000000000000000000000000000000000000\n        /* \"#utility.yul\":21168:21170   */\n      0x20\n        /* \"#utility.yul\":21160:21166   */\n      dup3\n        /* \"#utility.yul\":21156:21171   */\n      add\n        /* \"#utility.yul\":21149:21184   */\n      mstore\n        /* \"#utility.yul\":20964:21191   */\n      pop\n      jump\t// out\n        /* \"#utility.yul\":21197:21563   */\n    tag_280:\n        /* \"#utility.yul\":21339:21342   */\n      0x00\n        /* \"#utility.yul\":21360:21427   */\n      tag_513\n        /* \"#utility.yul\":21424:21426   */\n      0x28\n        /* \"#utility.yul\":21419:21422   */\n      dup4\n        /* \"#utility.yul\":21360:21427   */\n      tag_243\n      jump\t// in\n    tag_513:\n        /* \"#utility.yul\":21353:21427   */\n      swap2\n      pop\n        /* \"#utility.yul\":21436:21529   */\n      tag_514\n        /* \"#utility.yul\":21525:21528   */\n      dup3\n        /* \"#utility.yul\":21436:21529   */\n      tag_279\n      jump\t// in\n    tag_514:\n        /* \"#utility.yul\":21554:21556   */\n      0x40\n        /* \"#utility.yul\":21549:21552   */\n      dup3\n        /* \"#utility.yul\":21545:21557   */\n      add\n        /* \"#utility.yul\":21538:21557   */\n      swap1\n      pop\n        /* \"#utility.yul\":21197:21563   */\n      swap2\n      swap1\n      pop\n      jump\t// out\n        /* \"#utility.yul\":21569:21988   */\n    tag_126:\n        /* \"#utility.yul\":21735:21739   */\n      0x00\n        /* \"#utility.yul\":21773:21775   */\n      0x20\n        /* \"#utility.yul\":21762:21771   */\n      dup3\n        /* \"#utility.yul\":21758:21776   */\n      add\n        /* \"#utility.yul\":21750:21776   */\n      swap1\n      pop\n        /* \"#utility.yul\":21822:21831   */\n      dup2\n        /* \"#utility.yul\":21816:21820   */\n      dup2\n        /* \"#utility.yul\":21812:21832   */\n      sub\n        /* \"#utility.yul\":21808:21809   */\n      0x00\n        /* \"#utility.yul\":21797:21806   */\n      dup4\n        /* \"#utility.yul\":21793:21810   */\n      add\n        /* \"#utility.yul\":21786:21833   */\n      mstore\n        /* \"#utility.yul\":21850:21981   */\n      tag_516\n        /* \"#utility.yul\":21976:21980   */\n      dup2\n        /* \"#utility.yul\":21850:21981   */\n      tag_280\n      jump\t// in\n    tag_516:\n        /* \"#utility.yul\":21842:21981   */\n      swap1\n      pop\n        /* \"#utility.yul\":21569:21988   */\n      swap2\n      swap1\n      pop\n      jump\t// out\n        /* \"#utility.yul\":21994:22218   */\n    tag_281:\n        /* \"#utility.yul\":22134:22168   */\n      0x455243313135353a207472616e7366657220746f20746865207a65726f206164\n        /* \"#utility.yul\":22130:22131   */\n      0x00\n        /* \"#utility.yul\":22122:22128   */\n      dup3\n        /* \"#utility.yul\":22118:22132   */\n      add\n        /* \"#utility.yul\":22111:22169   */\n      mstore\n        /* \"#utility.yul\":22203:22210   */\n      0x6472657373000000000000000000000000000000000000000000000000000000\n        /* \"#utility.yul\":22198:22200   */\n      0x20\n        /* \"#utility.yul\":22190:22196   */\n      dup3\n        /* \"#utility.yul\":22186:22201   */\n      add\n        /* \"#utility.yul\":22179:22211   */\n      mstore\n        /* \"#utility.yul\":21994:22218   */\n      pop\n      jump\t// out\n        /* \"#utility.yul\":22224:22590   */\n    tag_282:\n        /* \"#utility.yul\":22366:22369   */\n      0x00\n        /* \"#utility.yul\":22387:22454   */\n      tag_519\n        /* \"#utility.yul\":22451:22453   */\n      0x25\n        /* \"#utility.yul\":22446:22449   */\n      dup4\n        /* \"#utility.yul\":22387:22454   */\n      tag_243\n      jump\t// in\n    tag_519:\n        /* \"#utility.yul\":22380:22454   */\n      swap2\n      pop\n        /* \"#utility.yul\":22463:22556   */\n      tag_520\n        /* \"#utility.yul\":22552:22555   */\n      dup3\n        /* \"#utility.yul\":22463:22556   */\n      tag_281\n      jump\t// in\n    tag_520:\n        /* \"#utility.yul\":22581:22583   */\n      0x40\n        /* \"#utility.yul\":22576:22579   */\n      dup3\n        /* \"#utility.yul\":22572:22584   */\n      add\n        /* \"#utility.yul\":22565:22584   */\n      swap1\n      pop\n        /* \"#utility.yul\":22224:22590   */\n      swap2\n      swap1\n      pop\n      jump\t// out\n        /* \"#utility.yul\":22596:23015   */\n    tag_129:\n        /* \"#utility.yul\":22762:22766   */\n      0x00\n        /* \"#utility.yul\":22800:22802   */\n      0x20\n        /* \"#utility.yul\":22789:22798   */\n      dup3\n        /* \"#utility.yul\":22785:22803   */\n      add\n        /* \"#utility.yul\":22777:22803   */\n      swap1\n      pop\n        /* \"#utility.yul\":22849:22858   */\n      dup2\n        /* \"#utility.yul\":22843:22847   */\n      dup2\n        /* \"#utility.yul\":22839:22859   */\n      sub\n        /* \"#utility.yul\":22835:22836   */\n      0x00\n        /* \"#utility.yul\":22824:22833   */\n      dup4\n        /* \"#utility.yul\":22820:22837   */\n      add\n        /* \"#utility.yul\":22813:22860   */\n      mstore\n        /* \"#utility.yul\":22877:23008   */\n      tag_522\n        /* \"#utility.yul\":23003:23007   */\n      dup2\n        /* \"#utility.yul\":22877:23008   */\n      tag_282\n      jump\t// in\n    tag_522:\n        /* \"#utility.yul\":22869:23008   */\n      swap1\n      pop\n        /* \"#utility.yul\":22596:23015   */\n      swap2\n      swap1\n      pop\n      jump\t// out\n        /* \"#utility.yul\":23021:23250   */\n    tag_283:\n        /* \"#utility.yul\":23161:23195   */\n      0x455243313135353a20696e73756666696369656e742062616c616e636520666f\n        /* \"#utility.yul\":23157:23158   */\n      0x00\n        /* \"#utility.yul\":23149:23155   */\n      dup3\n        /* \"#utility.yul\":23145:23159   */\n      add\n        /* \"#utility.yul\":23138:23196   */\n      mstore\n        /* \"#utility.yul\":23230:23242   */\n      0x72207472616e7366657200000000000000000000000000000000000000000000\n        /* \"#utility.yul\":23225:23227   */\n      0x20\n        /* \"#utility.yul\":23217:23223   */\n      dup3\n        /* \"#utility.yul\":23213:23228   */\n      add\n        /* \"#utility.yul\":23206:23243   */\n      mstore\n        /* \"#utility.yul\":23021:23250   */\n      pop\n      jump\t// out\n        /* \"#utility.yul\":23256:23622   */\n    tag_284:\n        /* \"#utility.yul\":23398:23401   */\n      0x00\n        /* \"#utility.yul\":23419:23486   */\n      tag_525\n        /* \"#utility.yul\":23483:23485   */\n      0x2a\n        /* \"#utility.yul\":23478:23481   */\n      dup4\n        /* \"#utility.yul\":23419:23486   */\n      tag_243\n      jump\t// in\n    tag_525:\n        /* \"#utility.yul\":23412:23486   */\n      swap2\n      pop\n        /* \"#utility.yul\":23495:23588   */\n      tag_526\n        /* \"#utility.yul\":23584:23587   */\n      dup3\n        /* \"#utility.yul\":23495:23588   */\n      tag_283\n      jump\t// in\n    tag_526:\n        /* \"#utility.yul\":23613:23615   */\n      0x40\n        /* \"#utility.yul\":23608:23611   */\n      dup3\n        /* \"#utility.yul\":23604:23616   */\n      add\n        /* \"#utility.yul\":23597:23616   */\n      swap1\n      pop\n        /* \"#utility.yul\":23256:23622   */\n      swap2\n      swap1\n      pop\n      jump\t// out\n        /* \"#utility.yul\":23628:24047   */\n    tag_142:\n        /* \"#utility.yul\":23794:23798   */\n      0x00\n        /* \"#utility.yul\":23832:23834   */\n      0x20\n        /* \"#utility.yul\":23821:23830   */\n      dup3\n        /* \"#utility.yul\":23817:23835   */\n      add\n        /* \"#utility.yul\":23809:23835   */\n      swap1\n      pop\n        /* \"#utility.yul\":23881:23890   */\n      dup2\n        /* \"#utility.yul\":23875:23879   */\n      dup2\n        /* \"#utility.yul\":23871:23891   */\n      sub\n        /* \"#utility.yul\":23867:23868   */\n      0x00\n        /* \"#utility.yul\":23856:23865   */\n      dup4\n        /* \"#utility.yul\":23852:23869   */\n      add\n        /* \"#utility.yul\":23845:23892   */\n      mstore\n        /* \"#utility.yul\":23909:24040   */\n      tag_528\n        /* \"#utility.yul\":24035:24039   */\n      dup2\n        /* \"#utility.yul\":23909:24040   */\n      tag_284\n      jump\t// in\n    tag_528:\n        /* \"#utility.yul\":23901:24040   */\n      swap1\n      pop\n        /* \"#utility.yul\":23628:24047   */\n      swap2\n      swap1\n      pop\n      jump\t// out\n        /* \"#utility.yul\":24053:24244   */\n    tag_144:\n        /* \"#utility.yul\":24093:24096   */\n      0x00\n        /* \"#utility.yul\":24112:24132   */\n      tag_530\n        /* \"#utility.yul\":24130:24131   */\n      dup3\n        /* \"#utility.yul\":24112:24132   */\n      tag_233\n      jump\t// in\n    tag_530:\n        /* \"#utility.yul\":24107:24132   */\n      swap2\n      pop\n        /* \"#utility.yul\":24146:24166   */\n      tag_531\n        /* \"#utility.yul\":24164:24165   */\n      dup4\n        /* \"#utility.yul\":24146:24166   */\n      tag_233\n      jump\t// in\n    tag_531:\n        /* \"#utility.yul\":24141:24166   */\n      swap3\n      pop\n        /* \"#utility.yul\":24189:24190   */\n      dup3\n        /* \"#utility.yul\":24186:24187   */\n      dup3\n        /* \"#utility.yul\":24182:24191   */\n      add\n        /* \"#utility.yul\":24175:24191   */\n      swap1\n      pop\n        /* \"#utility.yul\":24210:24213   */\n      dup1\n        /* \"#utility.yul\":24207:24208   */\n      dup3\n        /* \"#utility.yul\":24204:24214   */\n      gt\n        /* \"#utility.yul\":24201:24237   */\n      iszero\n      tag_532\n      jumpi\n        /* \"#utility.yul\":24217:24235   */\n      tag_533\n      tag_278\n      jump\t// in\n    tag_533:\n        /* \"#utility.yul\":24201:24237   */\n    tag_532:\n        /* \"#utility.yul\":24053:24244   */\n      swap3\n      swap2\n      pop\n      pop\n      jump\t// out\n        /* \"#utility.yul\":24250:24884   */\n    tag_147:\n        /* \"#utility.yul\":24471:24475   */\n      0x00\n        /* \"#utility.yul\":24509:24511   */\n      0x40\n        /* \"#utility.yul\":24498:24507   */\n      dup3\n        /* \"#utility.yul\":24494:24512   */\n      add\n        /* \"#utility.yul\":24486:24512   */\n      swap1\n      pop\n        /* \"#utility.yul\":24558:24567   */\n      dup2\n        /* \"#utility.yul\":24552:24556   */\n      dup2\n        /* \"#utility.yul\":24548:24568   */\n      sub\n        /* \"#utility.yul\":24544:24545   */\n      0x00\n        /* \"#utility.yul\":24533:24542   */\n      dup4\n        /* \"#utility.yul\":24529:24546   */\n      add\n        /* \"#utility.yul\":24522:24569   */\n      mstore\n        /* \"#utility.yul\":24586:24694   */\n      tag_535\n        /* \"#utility.yul\":24689:24693   */\n      dup2\n        /* \"#utility.yul\":24680:24686   */\n      dup6\n        /* \"#utility.yul\":24586:24694   */\n      tag_268\n      jump\t// in\n    tag_535:\n        /* \"#utility.yul\":24578:24694   */\n      swap1\n      pop\n        /* \"#utility.yul\":24741:24750   */\n      dup2\n        /* \"#utility.yul\":24735:24739   */\n      dup2\n        /* \"#utility.yul\":24731:24751   */\n      sub\n        /* \"#utility.yul\":24726:24728   */\n      0x20\n        /* \"#utility.yul\":24715:24724   */\n      dup4\n        /* \"#utility.yul\":24711:24729   */\n      add\n        /* \"#utility.yul\":24704:24752   */\n      mstore\n        /* \"#utility.yul\":24769:24877   */\n      tag_536\n        /* \"#utility.yul\":24872:24876   */\n      dup2\n        /* \"#utility.yul\":24863:24869   */\n      dup5\n        /* \"#utility.yul\":24769:24877   */\n      tag_268\n      jump\t// in\n    tag_536:\n        /* \"#utility.yul\":24761:24877   */\n      swap1\n      pop\n        /* \"#utility.yul\":24250:24884   */\n      swap4\n      swap3\n      pop\n      pop\n      pop\n      jump\t// out\n        /* \"#utility.yul\":24890:25118   */\n    tag_285:\n        /* \"#utility.yul\":25030:25064   */\n      0x455243313135353a2073657474696e6720617070726f76616c20737461747573\n        /* \"#utility.yul\":25026:25027   */\n      0x00\n        /* \"#utility.yul\":25018:25024   */\n      dup3\n        /* \"#utility.yul\":25014:25028   */\n      add\n        /* \"#utility.yul\":25007:25065   */\n      mstore\n        /* \"#utility.yul\":25099:25110   */\n      0x20666f722073656c660000000000000000000000000000000000000000000000\n        /* \"#utility.yul\":25094:25096   */\n      0x20\n        /* \"#utility.yul\":25086:25092   */\n      dup3\n        /* \"#utility.yul\":25082:25097   */\n      add\n        /* \"#utility.yul\":25075:25111   */\n      mstore\n        /* \"#utility.yul\":24890:25118   */\n      pop\n      jump\t// out\n        /* \"#utility.yul\":25124:25490   */\n    tag_286:\n        /* \"#utility.yul\":25266:25269   */\n      0x00\n        /* \"#utility.yul\":25287:25354   */\n      tag_539\n        /* \"#utility.yul\":25351:25353   */\n      0x29\n        /* \"#utility.yul\":25346:25349   */\n      dup4\n        /* \"#utility.yul\":25287:25354   */\n      tag_243\n      jump\t// in\n    tag_539:\n        /* \"#utility.yul\":25280:25354   */\n      swap2\n      pop\n        /* \"#utility.yul\":25363:25456   */\n      tag_540\n        /* \"#utility.yul\":25452:25455   */\n      dup3\n        /* \"#utility.yul\":25363:25456   */\n      tag_285\n      jump\t// in\n    tag_540:\n        /* \"#utility.yul\":25481:25483   */\n      0x40\n        /* \"#utility.yul\":25476:25479   */\n      dup3\n        /* \"#utility.yul\":25472:25484   */\n      add\n        /* \"#utility.yul\":25465:25484   */\n      swap1\n      pop\n        /* \"#utility.yul\":25124:25490   */\n      swap2\n      swap1\n      pop\n      jump\t// out\n        /* \"#utility.yul\":25496:25915   */\n    tag_155:\n        /* \"#utility.yul\":25662:25666   */\n      0x00\n        /* \"#utility.yul\":25700:25702   */\n      0x20\n        /* \"#utility.yul\":25689:25698   */\n      dup3\n        /* \"#utility.yul\":25685:25703   */\n      add\n        /* \"#utility.yul\":25677:25703   */\n      swap1\n      pop\n        /* \"#utility.yul\":25749:25758   */\n      dup2\n        /* \"#utility.yul\":25743:25747   */\n      dup2\n        /* \"#utility.yul\":25739:25759   */\n      sub\n        /* \"#utility.yul\":25735:25736   */\n      0x00\n        /* \"#utility.yul\":25724:25733   */\n      dup4\n        /* \"#utility.yul\":25720:25737   */\n      add\n        /* \"#utility.yul\":25713:25760   */\n      mstore\n        /* \"#utility.yul\":25777:25908   */\n      tag_542\n        /* \"#utility.yul\":25903:25907   */\n      dup2\n        /* \"#utility.yul\":25777:25908   */\n      tag_286\n      jump\t// in\n    tag_542:\n        /* \"#utility.yul\":25769:25908   */\n      swap1\n      pop\n        /* \"#utility.yul\":25496:25915   */\n      swap2\n      swap1\n      pop\n      jump\t// out\n        /* \"#utility.yul\":25921:26253   */\n    tag_169:\n        /* \"#utility.yul\":26042:26046   */\n      0x00\n        /* \"#utility.yul\":26080:26082   */\n      0x40\n        /* \"#utility.yul\":26069:26078   */\n      dup3\n        /* \"#utility.yul\":26065:26083   */\n      add\n        /* \"#utility.yul\":26057:26083   */\n      swap1\n      pop\n        /* \"#utility.yul\":26093:26164   */\n      tag_544\n        /* \"#utility.yul\":26161:26162   */\n      0x00\n        /* \"#utility.yul\":26150:26159   */\n      dup4\n        /* \"#utility.yul\":26146:26163   */\n      add\n        /* \"#utility.yul\":26137:26143   */\n      dup6\n        /* \"#utility.yul\":26093:26164   */\n      tag_236\n      jump\t// in\n    tag_544:\n        /* \"#utility.yul\":26174:26246   */\n      tag_545\n        /* \"#utility.yul\":26242:26244   */\n      0x20\n        /* \"#utility.yul\":26231:26240   */\n      dup4\n        /* \"#utility.yul\":26227:26245   */\n      add\n        /* \"#utility.yul\":26218:26224   */\n      dup5\n        /* \"#utility.yul\":26174:26246   */\n      tag_236\n      jump\t// in\n    tag_545:\n        /* \"#utility.yul\":25921:26253   */\n      swap4\n      swap3\n      pop\n      pop\n      pop\n      jump\t// out\n        /* \"#utility.yul\":26259:26377   */\n    tag_287:\n        /* \"#utility.yul\":26346:26370   */\n      tag_547\n        /* \"#utility.yul\":26364:26369   */\n      dup2\n        /* \"#utility.yul\":26346:26370   */\n      tag_230\n      jump\t// in\n    tag_547:\n        /* \"#utility.yul\":26341:26344   */\n      dup3\n        /* \"#utility.yul\":26334:26371   */\n      mstore\n        /* \"#utility.yul\":26259:26377   */\n      pop\n      pop\n      jump\t// out\n        /* \"#utility.yul\":26383:26481   */\n    tag_288:\n        /* \"#utility.yul\":26434:26440   */\n      0x00\n        /* \"#utility.yul\":26468:26473   */\n      dup2\n        /* \"#utility.yul\":26462:26474   */\n      mload\n        /* \"#utility.yul\":26452:26474   */\n      swap1\n      pop\n        /* \"#utility.yul\":26383:26481   */\n      swap2\n      swap1\n      pop\n      jump\t// out\n        /* \"#utility.yul\":26487:26655   */\n    tag_289:\n        /* \"#utility.yul\":26570:26581   */\n      0x00\n        /* \"#utility.yul\":26604:26610   */\n      dup3\n        /* \"#utility.yul\":26599:26602   */\n      dup3\n        /* \"#utility.yul\":26592:26611   */\n      mstore\n        /* \"#utility.yul\":26644:26648   */\n      0x20\n        /* \"#utility.yul\":26639:26642   */\n      dup3\n        /* \"#utility.yul\":26635:26649   */\n      add\n        /* \"#utility.yul\":26620:26649   */\n      swap1\n      pop\n        /* \"#utility.yul\":26487:26655   */\n      swap3\n      swap2\n      pop\n      pop\n      jump\t// out\n        /* \"#utility.yul\":26661:27034   */\n    tag_290:\n        /* \"#utility.yul\":26747:26750   */\n      0x00\n        /* \"#utility.yul\":26775:26813   */\n      tag_551\n        /* \"#utility.yul\":26807:26812   */\n      dup3\n        /* \"#utility.yul\":26775:26813   */\n      tag_288\n      jump\t// in\n    tag_551:\n        /* \"#utility.yul\":26829:26899   */\n      tag_552\n        /* \"#utility.yul\":26892:26898   */\n      dup2\n        /* \"#utility.yul\":26887:26890   */\n      dup6\n        /* \"#utility.yul\":26829:26899   */\n      tag_289\n      jump\t// in\n    tag_552:\n        /* \"#utility.yul\":26822:26899   */\n      swap4\n      pop\n        /* \"#utility.yul\":26908:26973   */\n      tag_553\n        /* \"#utility.yul\":26966:26972   */\n      dup2\n        /* \"#utility.yul\":26961:26964   */\n      dup6\n        /* \"#utility.yul\":26954:26958   */\n      0x20\n        /* \"#utility.yul\":26947:26952   */\n      dup7\n        /* \"#utility.yul\":26943:26959   */\n      add\n        /* \"#utility.yul\":26908:26973   */\n      tag_244\n      jump\t// in\n    tag_553:\n        /* \"#utility.yul\":26998:27027   */\n      tag_554\n        /* \"#utility.yul\":27020:27026   */\n      dup2\n        /* \"#utility.yul\":26998:27027   */\n      tag_245\n      jump\t// in\n    tag_554:\n        /* \"#utility.yul\":26993:26996   */\n      dup5\n        /* \"#utility.yul\":26989:27028   */\n      add\n        /* \"#utility.yul\":26982:27028   */\n      swap2\n      pop\n        /* \"#utility.yul\":26751:27034   */\n      pop\n        /* \"#utility.yul\":26661:27034   */\n      swap3\n      swap2\n      pop\n      pop\n      jump\t// out\n        /* \"#utility.yul\":27040:28093   */\n    tag_180:\n        /* \"#utility.yul\":27363:27367   */\n      0x00\n        /* \"#utility.yul\":27401:27404   */\n      0xa0\n        /* \"#utility.yul\":27390:27399   */\n      dup3\n        /* \"#utility.yul\":27386:27405   */\n      add\n        /* \"#utility.yul\":27378:27405   */\n      swap1\n      pop\n        /* \"#utility.yul\":27415:27486   */\n      tag_556\n        /* \"#utility.yul\":27483:27484   */\n      0x00\n        /* \"#utility.yul\":27472:27481   */\n      dup4\n        /* \"#utility.yul\":27468:27485   */\n      add\n        /* \"#utility.yul\":27459:27465   */\n      dup9\n        /* \"#utility.yul\":27415:27486   */\n      tag_287\n      jump\t// in\n    tag_556:\n        /* \"#utility.yul\":27496:27568   */\n      tag_557\n        /* \"#utility.yul\":27564:27566   */\n      0x20\n        /* \"#utility.yul\":27553:27562   */\n      dup4\n        /* \"#utility.yul\":27549:27567   */\n      add\n        /* \"#utility.yul\":27540:27546   */\n      dup8\n        /* \"#utility.yul\":27496:27568   */\n      tag_287\n      jump\t// in\n    tag_557:\n        /* \"#utility.yul\":27615:27624   */\n      dup2\n        /* \"#utility.yul\":27609:27613   */\n      dup2\n        /* \"#utility.yul\":27605:27625   */\n      sub\n        /* \"#utility.yul\":27600:27602   */\n      0x40\n        /* \"#utility.yul\":27589:27598   */\n      dup4\n        /* \"#utility.yul\":27585:27603   */\n      add\n        /* \"#utility.yul\":27578:27626   */\n      mstore\n        /* \"#utility.yul\":27643:27751   */\n      tag_558\n        /* \"#utility.yul\":27746:27750   */\n      dup2\n        /* \"#utility.yul\":27737:27743   */\n      dup7\n        /* \"#utility.yul\":27643:27751   */\n      tag_268\n      jump\t// in\n    tag_558:\n        /* \"#utility.yul\":27635:27751   */\n      swap1\n      pop\n        /* \"#utility.yul\":27798:27807   */\n      dup2\n        /* \"#utility.yul\":27792:27796   */\n      dup2\n        /* \"#utility.yul\":27788:27808   */\n      sub\n        /* \"#utility.yul\":27783:27785   */\n      0x60\n        /* \"#utility.yul\":27772:27781   */\n      dup4\n        /* \"#utility.yul\":27768:27786   */\n      add\n        /* \"#utility.yul\":27761:27809   */\n      mstore\n        /* \"#utility.yul\":27826:27934   */\n      tag_559\n        /* \"#utility.yul\":27929:27933   */\n      dup2\n        /* \"#utility.yul\":27920:27926   */\n      dup6\n        /* \"#utility.yul\":27826:27934   */\n      tag_268\n      jump\t// in\n    tag_559:\n        /* \"#utility.yul\":27818:27934   */\n      swap1\n      pop\n        /* \"#utility.yul\":27982:27991   */\n      dup2\n        /* \"#utility.yul\":27976:27980   */\n      dup2\n        /* \"#utility.yul\":27972:27992   */\n      sub\n        /* \"#utility.yul\":27966:27969   */\n      0x80\n        /* \"#utility.yul\":27955:27964   */\n      dup4\n        /* \"#utility.yul\":27951:27970   */\n      add\n        /* \"#utility.yul\":27944:27993   */\n      mstore\n        /* \"#utility.yul\":28010:28086   */\n      tag_560\n        /* \"#utility.yul\":28081:28085   */\n      dup2\n        /* \"#utility.yul\":28072:28078   */\n      dup5\n        /* \"#utility.yul\":28010:28086   */\n      tag_290\n      jump\t// in\n    tag_560:\n        /* \"#utility.yul\":28002:28086   */\n      swap1\n      pop\n        /* \"#utility.yul\":27040:28093   */\n      swap7\n      swap6\n      pop\n      pop\n      pop\n      pop\n      pop\n      pop\n      jump\t// out\n        /* \"#utility.yul\":28099:28240   */\n    tag_291:\n        /* \"#utility.yul\":28155:28160   */\n      0x00\n        /* \"#utility.yul\":28186:28192   */\n      dup2\n        /* \"#utility.yul\":28180:28193   */\n      mload\n        /* \"#utility.yul\":28171:28193   */\n      swap1\n      pop\n        /* \"#utility.yul\":28202:28234   */\n      tag_562\n        /* \"#utility.yul\":28228:28233   */\n      dup2\n        /* \"#utility.yul\":28202:28234   */\n      tag_238\n      jump\t// in\n    tag_562:\n        /* \"#utility.yul\":28099:28240   */\n      swap3\n      swap2\n      pop\n      pop\n      jump\t// out\n        /* \"#utility.yul\":28246:28595   */\n    tag_183:\n        /* \"#utility.yul\":28315:28321   */\n      0x00\n        /* \"#utility.yul\":28364:28366   */\n      0x20\n        /* \"#utility.yul\":28352:28361   */\n      dup3\n        /* \"#utility.yul\":28343:28350   */\n      dup5\n        /* \"#utility.yul\":28339:28362   */\n      sub\n        /* \"#utility.yul\":28335:28367   */\n      slt\n        /* \"#utility.yul\":28332:28451   */\n      iszero\n      tag_564\n      jumpi\n        /* \"#utility.yul\":28370:28449   */\n      tag_565\n      tag_227\n      jump\t// in\n    tag_565:\n        /* \"#utility.yul\":28332:28451   */\n    tag_564:\n        /* \"#utility.yul\":28490:28491   */\n      0x00\n        /* \"#utility.yul\":28515:28578   */\n      tag_566\n        /* \"#utility.yul\":28570:28577   */\n      dup5\n        /* \"#utility.yul\":28561:28567   */\n      dup3\n        /* \"#utility.yul\":28550:28559   */\n      dup6\n        /* \"#utility.yul\":28546:28568   */\n      add\n        /* \"#utility.yul\":28515:28578   */\n      tag_291\n      jump\t// in\n    tag_566:\n        /* \"#utility.yul\":28505:28578   */\n      swap2\n      pop\n        /* \"#utility.yul\":28461:28588   */\n      pop\n        /* \"#utility.yul\":28246:28595   */\n      swap3\n      swap2\n      pop\n      pop\n      jump\t// out\n        /* \"#utility.yul\":28601:28707   */\n    tag_292:\n        /* \"#utility.yul\":28645:28653   */\n      0x00\n        /* \"#utility.yul\":28694:28699   */\n      dup2\n        /* \"#utility.yul\":28689:28692   */\n      0xe0\n        /* \"#utility.yul\":28685:28700   */\n      shr\n        /* \"#utility.yul\":28664:28700   */\n      swap1\n      pop\n        /* \"#utility.yul\":28601:28707   */\n      swap2\n      swap1\n      pop\n      jump\t// out\n        /* \"#utility.yul\":28713:28896   */\n    tag_189:\n        /* \"#utility.yul\":28748:28751   */\n      0x00\n        /* \"#utility.yul\":28786:28787   */\n      0x03\n        /* \"#utility.yul\":28768:28784   */\n      returndatasize\n        /* \"#utility.yul\":28765:28788   */\n      gt\n        /* \"#utility.yul\":28762:28890   */\n      iszero\n      tag_569\n      jumpi\n        /* \"#utility.yul\":28824:28825   */\n      0x04\n        /* \"#utility.yul\":28821:28822   */\n      0x00\n        /* \"#utility.yul\":28818:28819   */\n      dup1\n        /* \"#utility.yul\":28803:28826   */\n      returndatacopy\n        /* \"#utility.yul\":28846:28880   */\n      tag_570\n        /* \"#utility.yul\":28877:28878   */\n      0x00\n        /* \"#utility.yul\":28871:28879   */\n      mload\n        /* \"#utility.yul\":28846:28880   */\n      tag_292\n      jump\t// in\n    tag_570:\n        /* \"#utility.yul\":28839:28880   */\n      swap1\n      pop\n        /* \"#utility.yul\":28762:28890   */\n    tag_569:\n        /* \"#utility.yul\":28713:28896   */\n      swap1\n      jump\t// out\n        /* \"#utility.yul\":28902:29613   */\n    tag_191:\n        /* \"#utility.yul\":28941:28944   */\n      0x00\n        /* \"#utility.yul\":28979:28983   */\n      0x44\n        /* \"#utility.yul\":28961:28977   */\n      returndatasize\n        /* \"#utility.yul\":28958:28984   */\n      lt\n        /* \"#utility.yul\":28987:28992   */\n      tag_571\n        /* \"#utility.yul\":28955:28994   */\n      jumpi\n        /* \"#utility.yul\":29016:29036   */\n      tag_573\n      tag_226\n      jump\t// in\n    tag_573:\n        /* \"#utility.yul\":29091:29092   */\n      0x04\n        /* \"#utility.yul\":29073:29089   */\n      returndatasize\n        /* \"#utility.yul\":29069:29093   */\n      sub\n        /* \"#utility.yul\":29066:29067   */\n      0x04\n        /* \"#utility.yul\":29060:29064   */\n      dup3\n        /* \"#utility.yul\":29045:29094   */\n      returndatacopy\n        /* \"#utility.yul\":29124:29128   */\n      dup1\n        /* \"#utility.yul\":29118:29129   */\n      mload\n        /* \"#utility.yul\":29223:29239   */\n      returndatasize\n        /* \"#utility.yul\":29216:29220   */\n      0x24\n        /* \"#utility.yul\":29208:29214   */\n      dup3\n        /* \"#utility.yul\":29204:29221   */\n      add\n        /* \"#utility.yul\":29201:29240   */\n      gt\n        /* \"#utility.yul\":29168:29186   */\n      0xffffffffffffffff\n        /* \"#utility.yul\":29160:29166   */\n      dup3\n        /* \"#utility.yul\":29157:29187   */\n      gt\n        /* \"#utility.yul\":29141:29254   */\n      or\n        /* \"#utility.yul\":29138:29284   */\n      iszero\n      tag_574\n      jumpi\n        /* \"#utility.yul\":29269:29274   */\n      pop\n      pop\n      jump(tag_571)\n        /* \"#utility.yul\":29138:29284   */\n    tag_574:\n        /* \"#utility.yul\":29315:29321   */\n      dup1\n        /* \"#utility.yul\":29309:29313   */\n      dup3\n        /* \"#utility.yul\":29305:29322   */\n      add\n        /* \"#utility.yul\":29351:29354   */\n      dup1\n        /* \"#utility.yul\":29345:29355   */\n      mload\n        /* \"#utility.yul\":29378:29396   */\n      0xffffffffffffffff\n        /* \"#utility.yul\":29370:29376   */\n      dup2\n        /* \"#utility.yul\":29367:29397   */\n      gt\n        /* \"#utility.yul\":29364:29407   */\n      iszero\n      tag_575\n      jumpi\n        /* \"#utility.yul\":29400:29405   */\n      pop\n      pop\n      pop\n      pop\n      jump(tag_571)\n        /* \"#utility.yul\":29364:29407   */\n    tag_575:\n        /* \"#utility.yul\":29448:29454   */\n      dup1\n        /* \"#utility.yul\":29441:29445   */\n      0x20\n        /* \"#utility.yul\":29436:29439   */\n      dup4\n        /* \"#utility.yul\":29432:29446   */\n      add\n        /* \"#utility.yul\":29428:29455   */\n      add\n        /* \"#utility.yul\":29507:29508   */\n      0x04\n        /* \"#utility.yul\":29489:29505   */\n      returndatasize\n        /* \"#utility.yul\":29485:29509   */\n      sub\n        /* \"#utility.yul\":29479:29483   */\n      dup6\n        /* \"#utility.yul\":29475:29510   */\n      add\n        /* \"#utility.yul\":29470:29473   */\n      dup2\n        /* \"#utility.yul\":29467:29511   */\n      gt\n        /* \"#utility.yul\":29464:29521   */\n      iszero\n      tag_576\n      jumpi\n        /* \"#utility.yul\":29514:29519   */\n      pop\n      pop\n      pop\n      pop\n      pop\n      jump(tag_571)\n        /* \"#utility.yul\":29464:29521   */\n    tag_576:\n        /* \"#utility.yul\":29531:29588   */\n      tag_577\n        /* \"#utility.yul\":29579:29585   */\n      dup3\n        /* \"#utility.yul\":29573:29577   */\n      0x20\n        /* \"#utility.yul\":29569:29586   */\n      add\n        /* \"#utility.yul\":29561:29567   */\n      dup6\n        /* \"#utility.yul\":29557:29587   */\n      add\n        /* \"#utility.yul\":29551:29555   */\n      dup7\n        /* \"#utility.yul\":29531:29588   */\n      tag_248\n      jump\t// in\n    tag_577:\n        /* \"#utility.yul\":29604:29607   */\n      dup3\n        /* \"#utility.yul\":29597:29607   */\n      swap6\n      pop\n        /* \"#utility.yul\":28945:29613   */\n      pop\n      pop\n      pop\n      pop\n      pop\n        /* \"#utility.yul\":28902:29613   */\n    tag_571:\n      swap1\n      jump\t// out\n        /* \"#utility.yul\":29619:29858   */\n    tag_293:\n        /* \"#utility.yul\":29759:29793   */\n      0x455243313135353a207472616e7366657220746f206e6f6e2d45524331313535\n        /* \"#utility.yul\":29755:29756   */\n      0x00\n        /* \"#utility.yul\":29747:29753   */\n      dup3\n        /* \"#utility.yul\":29743:29757   */\n      add\n        /* \"#utility.yul\":29736:29794   */\n      mstore\n        /* \"#utility.yul\":29828:29850   */\n      0x526563656976657220696d706c656d656e746572000000000000000000000000\n        /* \"#utility.yul\":29823:29825   */\n      0x20\n        /* \"#utility.yul\":29815:29821   */\n      dup3\n        /* \"#utility.yul\":29811:29826   */\n      add\n        /* \"#utility.yul\":29804:29851   */\n      mstore\n        /* \"#utility.yul\":29619:29858   */\n      pop\n      jump\t// out\n        /* \"#utility.yul\":29864:30230   */\n    tag_294:\n        /* \"#utility.yul\":30006:30009   */\n      0x00\n        /* \"#utility.yul\":30027:30094   */\n      tag_580\n        /* \"#utility.yul\":30091:30093   */\n      0x34\n        /* \"#utility.yul\":30086:30089   */\n      dup4\n        /* \"#utility.yul\":30027:30094   */\n      tag_243\n      jump\t// in\n    tag_580:\n        /* \"#utility.yul\":30020:30094   */\n      swap2\n      pop\n        /* \"#utility.yul\":30103:30196   */\n      tag_581\n        /* \"#utility.yul\":30192:30195   */\n      dup3\n        /* \"#utility.yul\":30103:30196   */\n      tag_293\n      jump\t// in\n    tag_581:\n        /* \"#utility.yul\":30221:30223   */\n      0x40\n        /* \"#utility.yul\":30216:30219   */\n      dup3\n        /* \"#utility.yul\":30212:30224   */\n      add\n        /* \"#utility.yul\":30205:30224   */\n      swap1\n      pop\n        /* \"#utility.yul\":29864:30230   */\n      swap2\n      swap1\n      pop\n      jump\t// out\n        /* \"#utility.yul\":30236:30655   */\n    tag_195:\n        /* \"#utility.yul\":30402:30406   */\n      0x00\n        /* \"#utility.yul\":30440:30442   */\n      0x20\n        /* \"#utility.yul\":30429:30438   */\n      dup3\n        /* \"#utility.yul\":30425:30443   */\n      add\n        /* \"#utility.yul\":30417:30443   */\n      swap1\n      pop\n        /* \"#utility.yul\":30489:30498   */\n      dup2\n        /* \"#utility.yul\":30483:30487   */\n      dup2\n        /* \"#utility.yul\":30479:30499   */\n      sub\n        /* \"#utility.yul\":30475:30476   */\n      0x00\n        /* \"#utility.yul\":30464:30473   */\n      dup4\n        /* \"#utility.yul\":30460:30477   */\n      add\n        /* \"#utility.yul\":30453:30500   */\n      mstore\n        /* \"#utility.yul\":30517:30648   */\n      tag_583\n        /* \"#utility.yul\":30643:30647   */\n      dup2\n        /* \"#utility.yul\":30517:30648   */\n      tag_294\n      jump\t// in\n    tag_583:\n        /* \"#utility.yul\":30509:30648   */\n      swap1\n      pop\n        /* \"#utility.yul\":30236:30655   */\n      swap2\n      swap1\n      pop\n      jump\t// out\n        /* \"#utility.yul\":30661:30888   */\n    tag_295:\n        /* \"#utility.yul\":30801:30835   */\n      0x455243313135353a204552433131353552656365697665722072656a65637465\n        /* \"#utility.yul\":30797:30798   */\n      0x00\n        /* \"#utility.yul\":30789:30795   */\n      dup3\n        /* \"#utility.yul\":30785:30799   */\n      add\n        /* \"#utility.yul\":30778:30836   */\n      mstore\n        /* \"#utility.yul\":30870:30880   */\n      0x6420746f6b656e73000000000000000000000000000000000000000000000000\n        /* \"#utility.yul\":30865:30867   */\n      0x20\n        /* \"#utility.yul\":30857:30863   */\n      dup3\n        /* \"#utility.yul\":30853:30868   */\n      add\n        /* \"#utility.yul\":30846:30881   */\n      mstore\n        /* \"#utility.yul\":30661:30888   */\n      pop\n      jump\t// out\n        /* \"#utility.yul\":30894:31260   */\n    tag_296:\n        /* \"#utility.yul\":31036:31039   */\n      0x00\n        /* \"#utility.yul\":31057:31124   */\n      tag_586\n        /* \"#utility.yul\":31121:31123   */\n      0x28\n        /* \"#utility.yul\":31116:31119   */\n      dup4\n        /* \"#utility.yul\":31057:31124   */\n      tag_243\n      jump\t// in\n    tag_586:\n        /* \"#utility.yul\":31050:31124   */\n      swap2\n      pop\n        /* \"#utility.yul\":31133:31226   */\n      tag_587\n        /* \"#utility.yul\":31222:31225   */\n      dup3\n        /* \"#utility.yul\":31133:31226   */\n      tag_295\n      jump\t// in\n    tag_587:\n        /* \"#utility.yul\":31251:31253   */\n      0x40\n        /* \"#utility.yul\":31246:31249   */\n      dup3\n        /* \"#utility.yul\":31242:31254   */\n      add\n        /* \"#utility.yul\":31235:31254   */\n      swap1\n      pop\n        /* \"#utility.yul\":30894:31260   */\n      swap2\n      swap1\n      pop\n      jump\t// out\n        /* \"#utility.yul\":31266:31685   */\n    tag_199:\n        /* \"#utility.yul\":31432:31436   */\n      0x00\n        /* \"#utility.yul\":31470:31472   */\n      0x20\n        /* \"#utility.yul\":31459:31468   */\n      dup3\n        /* \"#utility.yul\":31455:31473   */\n      add\n        /* \"#utility.yul\":31447:31473   */\n      swap1\n      pop\n        /* \"#utility.yul\":31519:31528   */\n      dup2\n        /* \"#utility.yul\":31513:31517   */\n      dup2\n        /* \"#utility.yul\":31509:31529   */\n      sub\n        /* \"#utility.yul\":31505:31506   */\n      0x00\n        /* \"#utility.yul\":31494:31503   */\n      dup4\n        /* \"#utility.yul\":31490:31507   */\n      add\n        /* \"#utility.yul\":31483:31530   */\n      mstore\n        /* \"#utility.yul\":31547:31678   */\n      tag_589\n        /* \"#utility.yul\":31673:31677   */\n      dup2\n        /* \"#utility.yul\":31547:31678   */\n      tag_296\n      jump\t// in\n    tag_589:\n        /* \"#utility.yul\":31539:31678   */\n      swap1\n      pop\n        /* \"#utility.yul\":31266:31685   */\n      swap2\n      swap1\n      pop\n      jump\t// out\n        /* \"#utility.yul\":31691:32442   */\n    tag_210:\n        /* \"#utility.yul\":31914:31918   */\n      0x00\n        /* \"#utility.yul\":31952:31955   */\n      0xa0\n        /* \"#utility.yul\":31941:31950   */\n      dup3\n        /* \"#utility.yul\":31937:31956   */\n      add\n        /* \"#utility.yul\":31929:31956   */\n      swap1\n      pop\n        /* \"#utility.yul\":31966:32037   */\n      tag_591\n        /* \"#utility.yul\":32034:32035   */\n      0x00\n        /* \"#utility.yul\":32023:32032   */\n      dup4\n        /* \"#utility.yul\":32019:32036   */\n      add\n        /* \"#utility.yul\":32010:32016   */\n      dup9\n        /* \"#utility.yul\":31966:32037   */\n      tag_287\n      jump\t// in\n    tag_591:\n        /* \"#utility.yul\":32047:32119   */\n      tag_592\n        /* \"#utility.yul\":32115:32117   */\n      0x20\n        /* \"#utility.yul\":32104:32113   */\n      dup4\n        /* \"#utility.yul\":32100:32118   */\n      add\n        /* \"#utility.yul\":32091:32097   */\n      dup8\n        /* \"#utility.yul\":32047:32119   */\n      tag_287\n      jump\t// in\n    tag_592:\n        /* \"#utility.yul\":32129:32201   */\n      tag_593\n        /* \"#utility.yul\":32197:32199   */\n      0x40\n        /* \"#utility.yul\":32186:32195   */\n      dup4\n        /* \"#utility.yul\":32182:32200   */\n      add\n        /* \"#utility.yul\":32173:32179   */\n      dup7\n        /* \"#utility.yul\":32129:32201   */\n      tag_236\n      jump\t// in\n    tag_593:\n        /* \"#utility.yul\":32211:32283   */\n      tag_594\n        /* \"#utility.yul\":32279:32281   */\n      0x60\n        /* \"#utility.yul\":32268:32277   */\n      dup4\n        /* \"#utility.yul\":32264:32282   */\n      add\n        /* \"#utility.yul\":32255:32261   */\n      dup6\n        /* \"#utility.yul\":32211:32283   */\n      tag_236\n      jump\t// in\n    tag_594:\n        /* \"#utility.yul\":32331:32340   */\n      dup2\n        /* \"#utility.yul\":32325:32329   */\n      dup2\n        /* \"#utility.yul\":32321:32341   */\n      sub\n        /* \"#utility.yul\":32315:32318   */\n      0x80\n        /* \"#utility.yul\":32304:32313   */\n      dup4\n        /* \"#utility.yul\":32300:32319   */\n      add\n        /* \"#utility.yul\":32293:32342   */\n      mstore\n        /* \"#utility.yul\":32359:32435   */\n      tag_595\n        /* \"#utility.yul\":32430:32434   */\n      dup2\n        /* \"#utility.yul\":32421:32427   */\n      dup5\n        /* \"#utility.yul\":32359:32435   */\n      tag_290\n      jump\t// in\n    tag_595:\n        /* \"#utility.yul\":32351:32435   */\n      swap1\n      pop\n        /* \"#utility.yul\":31691:32442   */\n      swap7\n      swap6\n      pop\n      pop\n      pop\n      pop\n      pop\n      pop\n      jump\t// out\n\n    auxdata: 0xa26469706673582212204252aed44bb6b3bd6d2eb5715b1a4fdd139aafbc74f82e1209555c2a68474b8564736f6c63430008110033\n}\n",
				"bytecode": {
					"linkReferences": {},
					"object": "60806040523480156200001157600080fd5b5060405162002ac638038062002ac68339818101604052810190620000379190620001f7565b62000048816200004f60201b60201c565b506200057a565b806002908162000060919062000493565b5050565b6000604051905090565b600080fd5b600080fd5b600080fd5b600080fd5b6000601f19601f8301169050919050565b7f4e487b7100000000000000000000000000000000000000000000000000000000600052604160045260246000fd5b620000cd8262000082565b810181811067ffffffffffffffff82111715620000ef57620000ee62000093565b5b80604052505050565b60006200010462000064565b9050620001128282620000c2565b919050565b600067ffffffffffffffff82111562000135576200013462000093565b5b620001408262000082565b9050602081019050919050565b60005b838110156200016d57808201518184015260208101905062000150565b60008484015250505050565b6000620001906200018a8462000117565b620000f8565b905082815260208101848484011115620001af57620001ae6200007d565b5b620001bc8482856200014d565b509392505050565b600082601f830112620001dc57620001db62000078565b5b8151620001ee84826020860162000179565b91505092915050565b60006020828403121562000210576200020f6200006e565b5b600082015167ffffffffffffffff81111562000231576200023062000073565b5b6200023f84828501620001c4565b91505092915050565b600081519050919050565b7f4e487b7100000000000000000000000000000000000000000000000000000000600052602260045260246000fd5b600060028204905060018216806200029b57607f821691505b602082108103620002b157620002b062000253565b5b50919050565b60008190508160005260206000209050919050565b60006020601f8301049050919050565b600082821b905092915050565b6000600883026200031b7fffffffffffffffffffffffffffffffffffffffffffffffffffffffffffffffff82620002dc565b620003278683620002dc565b95508019841693508086168417925050509392505050565b6000819050919050565b6000819050919050565b6000620003746200036e62000368846200033f565b62000349565b6200033f565b9050919050565b6000819050919050565b620003908362000353565b620003a86200039f826200037b565b848454620002e9565b825550505050565b600090565b620003bf620003b0565b620003cc81848462000385565b505050565b5b81811015620003f457620003e8600082620003b5565b600181019050620003d2565b5050565b601f82111562000443576200040d81620002b7565b6200041884620002cc565b8101602085101562000428578190505b620004406200043785620002cc565b830182620003d1565b50505b505050565b600082821c905092915050565b6000620004686000198460080262000448565b1980831691505092915050565b600062000483838362000455565b9150826002028217905092915050565b6200049e8262000248565b67ffffffffffffffff811115620004ba57620004b962000093565b5b620004c6825462000282565b620004d3828285620003f8565b600060209050601f8311600181146200050b5760008415620004f6578287015190505b62000502858262000475565b86555062000572565b601f1984166200051b86620002b7565b60005b8281101562000545578489015182556001820191506020850194506020810190506200051e565b8683101562000565578489015162000561601f89168262000455565b8355505b6001600288020188555050505b505050505050565b61253c806200058a6000396000f3fe608060405234801561001057600080fd5b50600436106100925760003560e01c80634e1273f4116100665780634e1273f414610143578063a22cb46514610173578063bd85b0391461018f578063e985e9c5146101bf578063f242432a146101ef57610092565b8062fdd58e1461009757806301ffc9a7146100c75780630e89341c146100f75780632eb2c2d614610127575b600080fd5b6100b160048036038101906100ac91906113f5565b61020b565b6040516100be9190611444565b60405180910390f35b6100e160048036038101906100dc91906114b7565b6102d3565b6040516100ee91906114ff565b60405180910390f35b610111600480360381019061010c919061151a565b6103b5565b60405161011e91906115d7565b60405180910390f35b610141600480360381019061013c91906117f6565b610449565b005b61015d60048036038101906101589190611988565b6104ea565b60405161016a9190611abe565b60405180910390f35b61018d60048036038101906101889190611b0c565b610603565b005b6101a960048036038101906101a4919061151a565b610619565b6040516101b69190611444565b60405180910390f35b6101d960048036038101906101d49190611b4c565b610623565b6040516101e691906114ff565b60405180910390f35b61020960048036038101906102049190611b8c565b6106b7565b005b60008073ffffffffffffffffffffffffffffffffffffffff168373ffffffffffffffffffffffffffffffffffffffff160361027b576040517f08c379a000000000000000000000000000000000000000000000000000000000815260040161027290611c95565b60405180910390fd5b60008083815260200190815260200160002060008473ffffffffffffffffffffffffffffffffffffffff1673ffffffffffffffffffffffffffffffffffffffff16815260200190815260200160002054905092915050565b60007fd9b67a26000000000000000000000000000000000000000000000000000000007bffffffffffffffffffffffffffffffffffffffffffffffffffffffff1916827bffffffffffffffffffffffffffffffffffffffffffffffffffffffff1916148061039e57507f0e89341c000000000000000000000000000000000000000000000000000000007bffffffffffffffffffffffffffffffffffffffffffffffffffffffff1916827bffffffffffffffffffffffffffffffffffffffffffffffffffffffff1916145b806103ae57506103ad82610758565b5b9050919050565b6060600280546103c490611ce4565b80601f01602080910402602001604051908101604052809291908181526020018280546103f090611ce4565b801561043d5780601f106104125761010080835404028352916020019161043d565b820191906000526020600020905b81548152906001019060200180831161042057829003601f168201915b50505050509050919050565b6104516107c2565b73ffffffffffffffffffffffffffffffffffffffff168573ffffffffffffffffffffffffffffffffffffffff1614806104975750610496856104916107c2565b610623565b5b6104d6576040517f08c379a00000000000000000000000000000000000000000000000000000000081526004016104cd90611d87565b60405180910390fd5b6104e385858585856107ca565b5050505050565b60608151835114610530576040517f08c379a000000000000000000000000000000000000000000000000000000000815260040161052790611e19565b60405180910390fd5b6000835167ffffffffffffffff81111561054d5761054c6115fe565b5b60405190808252806020026020018201604052801561057b5781602001602082028036833780820191505090505b50905060005b84518110156105f8576105c88582815181106105a05761059f611e39565b5b60200260200101518583815181106105bb576105ba611e39565b5b602002602001015161020b565b8282815181106105db576105da611e39565b5b602002602001018181525050806105f190611e97565b9050610581565b508091505092915050565b61061561060e6107c2565b8383610aeb565b5050565b6000819050919050565b6000600160008473ffffffffffffffffffffffffffffffffffffffff1673ffffffffffffffffffffffffffffffffffffffff16815260200190815260200160002060008373ffffffffffffffffffffffffffffffffffffffff1673ffffffffffffffffffffffffffffffffffffffff16815260200190815260200160002060009054906101000a900460ff16905092915050565b6106bf6107c2565b73ffffffffffffffffffffffffffffffffffffffff168573ffffffffffffffffffffffffffffffffffffffff1614806107055750610704856106ff6107c2565b610623565b5b610744576040517f08c379a000000000000000000000000000000000000000000000000000000000815260040161073b90611d87565b60405180910390fd5b6107518585858585610c57565b5050505050565b60007f01ffc9a7000000000000000000000000000000000000000000000000000000007bffffffffffffffffffffffffffffffffffffffffffffffffffffffff1916827bffffffffffffffffffffffffffffffffffffffffffffffffffffffff1916149050919050565b600033905090565b815183511461080e576040517f08c379a000000000000000000000000000000000000000000000000000000000815260040161080590611f51565b60405180910390fd5b600073ffffffffffffffffffffffffffffffffffffffff168473ffffffffffffffffffffffffffffffffffffffff160361087d576040517f08c379a000000000000000000000000000000000000000000000000000000000815260040161087490611fe3565b60405180910390fd5b60006108876107c2565b9050610897818787878787610ef2565b60005b8451811015610a485760008582815181106108b8576108b7611e39565b5b6020026020010151905060008583815181106108d7576108d6611e39565b5b60200260200101519050600080600084815260200190815260200160002060008b73ffffffffffffffffffffffffffffffffffffffff1673ffffffffffffffffffffffffffffffffffffffff16815260200190815260200160002054905081811015610978576040517f08c379a000000000000000000000000000000000000000000000000000000000815260040161096f90612075565b60405180910390fd5b81810360008085815260200190815260200160002060008c73ffffffffffffffffffffffffffffffffffffffff1673ffffffffffffffffffffffffffffffffffffffff168152602001908152602001600020819055508160008085815260200190815260200160002060008b73ffffffffffffffffffffffffffffffffffffffff1673ffffffffffffffffffffffffffffffffffffffff1681526020019081526020016000206000828254610a2d9190612095565b9250508190555050505080610a4190611e97565b905061089a565b508473ffffffffffffffffffffffffffffffffffffffff168673ffffffffffffffffffffffffffffffffffffffff168273ffffffffffffffffffffffffffffffffffffffff167f4a39dc06d4c0dbc64b70af90fd698a233a518aa5d07e595d983b8c0526c8f7fb8787604051610abf9291906120c9565b60405180910390a4610ad5818787878787610efa565b610ae3818787878787610f02565b505050505050565b8173ffffffffffffffffffffffffffffffffffffffff168373ffffffffffffffffffffffffffffffffffffffff1603610b59576040517f08c379a0000000000000000000000000000000000000000000000000000000008152600401610b5090612172565b60405180910390fd5b80600160008573ffffffffffffffffffffffffffffffffffffffff1673ffffffffffffffffffffffffffffffffffffffff16815260200190815260200160002060008473ffffffffffffffffffffffffffffffffffffffff1673ffffffffffffffffffffffffffffffffffffffff16815260200190815260200160002060006101000a81548160ff0219169083151502179055508173ffffffffffffffffffffffffffffffffffffffff168373ffffffffffffffffffffffffffffffffffffffff167f17307eab39ab6107e8899845ad3d59bd9653f200f220920489ca2b5937696c3183604051610c4a91906114ff565b60405180910390a3505050565b600073ffffffffffffffffffffffffffffffffffffffff168473ffffffffffffffffffffffffffffffffffffffff1603610cc6576040517f08c379a0000000000000000000000000000000000000000000000000000000008152600401610cbd90611fe3565b60405180910390fd5b6000610cd06107c2565b90506000610cdd856110d9565b90506000610cea856110d9565b9050610cfa838989858589610ef2565b600080600088815260200190815260200160002060008a73ffffffffffffffffffffffffffffffffffffffff1673ffffffffffffffffffffffffffffffffffffffff16815260200190815260200160002054905085811015610d91576040517f08c379a0000000000000000000000000000000000000000000000000000000008152600401610d8890612075565b60405180910390fd5b85810360008089815260200190815260200160002060008b73ffffffffffffffffffffffffffffffffffffffff1673ffffffffffffffffffffffffffffffffffffffff168152602001908152602001600020819055508560008089815260200190815260200160002060008a73ffffffffffffffffffffffffffffffffffffffff1673ffffffffffffffffffffffffffffffffffffffff1681526020019081526020016000206000828254610e469190612095565b925050819055508773ffffffffffffffffffffffffffffffffffffffff168973ffffffffffffffffffffffffffffffffffffffff168573ffffffffffffffffffffffffffffffffffffffff167fc3d58168c5ae7397731d063d5bbf3d657854427343f4c083240f7aacaa2d0f628a8a604051610ec3929190612192565b60405180910390a4610ed9848a8a86868a610efa565b610ee7848a8a8a8a8a611153565b505050505050505050565b505050505050565b505050505050565b610f218473ffffffffffffffffffffffffffffffffffffffff1661132a565b156110d1578373ffffffffffffffffffffffffffffffffffffffff1663bc197c8187878686866040518663ffffffff1660e01b8152600401610f6795949392919061221f565b6020604051808303816000875af1925050508015610fa357506040513d601f19601f82011682018060405250810190610fa0919061229c565b60015b61104857610faf6122d6565b806308c379a00361100b5750610fc36122f8565b80610fce575061100d565b806040517f08c379a000000000000000000000000000000000000000000000000000000000815260040161100291906115d7565b60405180910390fd5b505b6040517f08c379a000000000000000000000000000000000000000000000000000000000815260040161103f906123fa565b60405180910390fd5b63bc197c8160e01b7bffffffffffffffffffffffffffffffffffffffffffffffffffffffff1916817bffffffffffffffffffffffffffffffffffffffffffffffffffffffff1916146110cf576040517f08c379a00000000000000000000000000000000000000000000000000000000081526004016110c69061248c565b60405180910390fd5b505b505050505050565b60606000600167ffffffffffffffff8111156110f8576110f76115fe565b5b6040519080825280602002602001820160405280156111265781602001602082028036833780820191505090505b509050828160008151811061113e5761113d611e39565b5b60200260200101818152505080915050919050565b6111728473ffffffffffffffffffffffffffffffffffffffff1661132a565b15611322578373ffffffffffffffffffffffffffffffffffffffff1663f23a6e6187878686866040518663ffffffff1660e01b81526004016111b89594939291906124ac565b6020604051808303816000875af19250505080156111f457506040513d601f19601f820116820180604052508101906111f1919061229c565b60015b611299576112006122d6565b806308c379a00361125c57506112146122f8565b8061121f575061125e565b806040517f08c379a000000000000000000000000000000000000000000000000000000000815260040161125391906115d7565b60405180910390fd5b505b6040517f08c379a0000000000000000000000000000000000000000000000000000000008152600401611290906123fa565b60405180910390fd5b63f23a6e6160e01b7bffffffffffffffffffffffffffffffffffffffffffffffffffffffff1916817bffffffffffffffffffffffffffffffffffffffffffffffffffffffff191614611320576040517f08c379a00000000000000000000000000000000000000000000000000000000081526004016113179061248c565b60405180910390fd5b505b505050505050565b6000808273ffffffffffffffffffffffffffffffffffffffff163b119050919050565b6000604051905090565b600080fd5b600080fd5b600073ffffffffffffffffffffffffffffffffffffffff82169050919050565b600061138c82611361565b9050919050565b61139c81611381565b81146113a757600080fd5b50565b6000813590506113b981611393565b92915050565b6000819050919050565b6113d2816113bf565b81146113dd57600080fd5b50565b6000813590506113ef816113c9565b92915050565b6000806040838503121561140c5761140b611357565b5b600061141a858286016113aa565b925050602061142b858286016113e0565b9150509250929050565b61143e816113bf565b82525050565b60006020820190506114596000830184611435565b92915050565b60007fffffffff0000000000000000000000000000000000000000000000000000000082169050919050565b6114948161145f565b811461149f57600080fd5b50565b6000813590506114b18161148b565b92915050565b6000602082840312156114cd576114cc611357565b5b60006114db848285016114a2565b91505092915050565b60008115159050919050565b6114f9816114e4565b82525050565b600060208201905061151460008301846114f0565b92915050565b6000602082840312156115305761152f611357565b5b600061153e848285016113e0565b91505092915050565b600081519050919050565b600082825260208201905092915050565b60005b83811015611581578082015181840152602081019050611566565b60008484015250505050565b6000601f19601f8301169050919050565b60006115a982611547565b6115b38185611552565b93506115c3818560208601611563565b6115cc8161158d565b840191505092915050565b600060208201905081810360008301526115f1818461159e565b905092915050565b600080fd5b7f4e487b7100000000000000000000000000000000000000000000000000000000600052604160045260246000fd5b6116368261158d565b810181811067ffffffffffffffff82111715611655576116546115fe565b5b80604052505050565b600061166861134d565b9050611674828261162d565b919050565b600067ffffffffffffffff821115611694576116936115fe565b5b602082029050602081019050919050565b600080fd5b60006116bd6116b884611679565b61165e565b905080838252602082019050602084028301858111156116e0576116df6116a5565b5b835b8181101561170957806116f588826113e0565b8452602084019350506020810190506116e2565b5050509392505050565b600082601f830112611728576117276115f9565b5b81356117388482602086016116aa565b91505092915050565b600080fd5b600067ffffffffffffffff821115611761576117606115fe565b5b61176a8261158d565b9050602081019050919050565b82818337600083830152505050565b600061179961179484611746565b61165e565b9050828152602081018484840111156117b5576117b4611741565b5b6117c0848285611777565b509392505050565b600082601f8301126117dd576117dc6115f9565b5b81356117ed848260208601611786565b91505092915050565b600080600080600060a0868803121561181257611811611357565b5b6000611820888289016113aa565b9550506020611831888289016113aa565b945050604086013567ffffffffffffffff8111156118525761185161135c565b5b61185e88828901611713565b935050606086013567ffffffffffffffff81111561187f5761187e61135c565b5b61188b88828901611713565b925050608086013567ffffffffffffffff8111156118ac576118ab61135c565b5b6118b8888289016117c8565b9150509295509295909350565b600067ffffffffffffffff8211156118e0576118df6115fe565b5b602082029050602081019050919050565b60006119046118ff846118c5565b61165e565b90508083825260208201905060208402830185811115611927576119266116a5565b5b835b81811015611950578061193c88826113aa565b845260208401935050602081019050611929565b5050509392505050565b600082601f83011261196f5761196e6115f9565b5b813561197f8482602086016118f1565b91505092915050565b6000806040838503121561199f5761199e611357565b5b600083013567ffffffffffffffff8111156119bd576119bc61135c565b5b6119c98582860161195a565b925050602083013567ffffffffffffffff8111156119ea576119e961135c565b5b6119f685828601611713565b9150509250929050565b600081519050919050565b600082825260208201905092915050565b6000819050602082019050919050565b611a35816113bf565b82525050565b6000611a478383611a2c565b60208301905092915050565b6000602082019050919050565b6000611a6b82611a00565b611a758185611a0b565b9350611a8083611a1c565b8060005b83811015611ab1578151611a988882611a3b565b9750611aa383611a53565b925050600181019050611a84565b5085935050505092915050565b60006020820190508181036000830152611ad88184611a60565b905092915050565b611ae9816114e4565b8114611af457600080fd5b50565b600081359050611b0681611ae0565b92915050565b60008060408385031215611b2357611b22611357565b5b6000611b31858286016113aa565b9250506020611b4285828601611af7565b9150509250929050565b60008060408385031215611b6357611b62611357565b5b6000611b71858286016113aa565b9250506020611b82858286016113aa565b9150509250929050565b600080600080600060a08688031215611ba857611ba7611357565b5b6000611bb6888289016113aa565b9550506020611bc7888289016113aa565b9450506040611bd8888289016113e0565b9350506060611be9888289016113e0565b925050608086013567ffffffffffffffff811115611c0a57611c0961135c565b5b611c16888289016117c8565b9150509295509295909350565b7f455243313135353a2061646472657373207a65726f206973206e6f742061207660008201527f616c6964206f776e657200000000000000000000000000000000000000000000602082015250565b6000611c7f602a83611552565b9150611c8a82611c23565b604082019050919050565b60006020820190508181036000830152611cae81611c72565b9050919050565b7f4e487b7100000000000000000000000000000000000000000000000000000000600052602260045260246000fd5b60006002820490506001821680611cfc57607f821691505b602082108103611d0f57611d0e611cb5565b5b50919050565b7f455243313135353a2063616c6c6572206973206e6f7420746f6b656e206f776e60008201527f6572206f7220617070726f766564000000000000000000000000000000000000602082015250565b6000611d71602e83611552565b9150611d7c82611d15565b604082019050919050565b60006020820190508181036000830152611da081611d64565b9050919050565b7f455243313135353a206163636f756e747320616e6420696473206c656e67746860008201527f206d69736d617463680000000000000000000000000000000000000000000000602082015250565b6000611e03602983611552565b9150611e0e82611da7565b604082019050919050565b60006020820190508181036000830152611e3281611df6565b9050919050565b7f4e487b7100000000000000000000000000000000000000000000000000000000600052603260045260246000fd5b7f4e487b7100000000000000000000000000000000000000000000000000000000600052601160045260246000fd5b6000611ea2826113bf565b91507fffffffffffffffffffffffffffffffffffffffffffffffffffffffffffffffff8203611ed457611ed3611e68565b5b600182019050919050565b7f455243313135353a2069647320616e6420616d6f756e7473206c656e6774682060008201527f6d69736d61746368000000000000000000000000000000000000000000000000602082015250565b6000611f3b602883611552565b9150611f4682611edf565b604082019050919050565b60006020820190508181036000830152611f6a81611f2e565b9050919050565b7f455243313135353a207472616e7366657220746f20746865207a65726f20616460008201527f6472657373000000000000000000000000000000000000000000000000000000602082015250565b6000611fcd602583611552565b9150611fd882611f71565b604082019050919050565b60006020820190508181036000830152611ffc81611fc0565b9050919050565b7f455243313135353a20696e73756666696369656e742062616c616e636520666f60008201527f72207472616e7366657200000000000000000000000000000000000000000000602082015250565b600061205f602a83611552565b915061206a82612003565b604082019050919050565b6000602082019050818103600083015261208e81612052565b9050919050565b60006120a0826113bf565b91506120ab836113bf565b92508282019050808211156120c3576120c2611e68565b5b92915050565b600060408201905081810360008301526120e38185611a60565b905081810360208301526120f78184611a60565b90509392505050565b7f455243313135353a2073657474696e6720617070726f76616c2073746174757360008201527f20666f722073656c660000000000000000000000000000000000000000000000602082015250565b600061215c602983611552565b915061216782612100565b604082019050919050565b6000602082019050818103600083015261218b8161214f565b9050919050565b60006040820190506121a76000830185611435565b6121b46020830184611435565b9392505050565b6121c481611381565b82525050565b600081519050919050565b600082825260208201905092915050565b60006121f1826121ca565b6121fb81856121d5565b935061220b818560208601611563565b6122148161158d565b840191505092915050565b600060a08201905061223460008301886121bb565b61224160208301876121bb565b81810360408301526122538186611a60565b905081810360608301526122678185611a60565b9050818103608083015261227b81846121e6565b90509695505050505050565b6000815190506122968161148b565b92915050565b6000602082840312156122b2576122b1611357565b5b60006122c084828501612287565b91505092915050565b60008160e01c9050919050565b600060033d11156122f55760046000803e6122f26000516122c9565b90505b90565b600060443d106123855761230a61134d565b60043d036004823e80513d602482011167ffffffffffffffff82111715612332575050612385565b808201805167ffffffffffffffff8111156123505750505050612385565b80602083010160043d03850181111561236d575050505050612385565b61237c8260200185018661162d565b82955050505050505b90565b7f455243313135353a207472616e7366657220746f206e6f6e2d4552433131353560008201527f526563656976657220696d706c656d656e746572000000000000000000000000602082015250565b60006123e4603483611552565b91506123ef82612388565b604082019050919050565b60006020820190508181036000830152612413816123d7565b9050919050565b7f455243313135353a204552433131353552656365697665722072656a6563746560008201527f6420746f6b656e73000000000000000000000000000000000000000000000000602082015250565b6000612476602883611552565b91506124818261241a565b604082019050919050565b600060208201905081810360008301526124a581612469565b9050919050565b600060a0820190506124c160008301886121bb565b6124ce60208301876121bb565b6124db6040830186611435565b6124e86060830185611435565b81810360808301526124fa81846121e6565b9050969550505050505056fea26469706673582212204252aed44bb6b3bd6d2eb5715b1a4fdd139aafbc74f82e1209555c2a68474b8564736f6c63430008110033",
					"opcodes": "PUSH1 0x80 PUSH1 0x40 MSTORE CALLVALUE DUP1 ISZERO PUSH3 0x11 JUMPI PUSH1 0x0 DUP1 REVERT JUMPDEST POP PUSH1 0x40 MLOAD PUSH3 0x2AC6 CODESIZE SUB DUP1 PUSH3 0x2AC6 DUP4 CODECOPY DUP2 DUP2 ADD PUSH1 0x40 MSTORE DUP2 ADD SWAP1 PUSH3 0x37 SWAP2 SWAP1 PUSH3 0x1F7 JUMP JUMPDEST PUSH3 0x48 DUP2 PUSH3 0x4F PUSH1 0x20 SHL PUSH1 0x20 SHR JUMP JUMPDEST POP PUSH3 0x57A JUMP JUMPDEST DUP1 PUSH1 0x2 SWAP1 DUP2 PUSH3 0x60 SWAP2 SWAP1 PUSH3 0x493 JUMP JUMPDEST POP POP JUMP JUMPDEST PUSH1 0x0 PUSH1 0x40 MLOAD SWAP1 POP SWAP1 JUMP JUMPDEST PUSH1 0x0 DUP1 REVERT JUMPDEST PUSH1 0x0 DUP1 REVERT JUMPDEST PUSH1 0x0 DUP1 REVERT JUMPDEST PUSH1 0x0 DUP1 REVERT JUMPDEST PUSH1 0x0 PUSH1 0x1F NOT PUSH1 0x1F DUP4 ADD AND SWAP1 POP SWAP2 SWAP1 POP JUMP JUMPDEST PUSH32 0x4E487B7100000000000000000000000000000000000000000000000000000000 PUSH1 0x0 MSTORE PUSH1 0x41 PUSH1 0x4 MSTORE PUSH1 0x24 PUSH1 0x0 REVERT JUMPDEST PUSH3 0xCD DUP3 PUSH3 0x82 JUMP JUMPDEST DUP2 ADD DUP2 DUP2 LT PUSH8 0xFFFFFFFFFFFFFFFF DUP3 GT OR ISZERO PUSH3 0xEF JUMPI PUSH3 0xEE PUSH3 0x93 JUMP JUMPDEST JUMPDEST DUP1 PUSH1 0x40 MSTORE POP POP POP JUMP JUMPDEST PUSH1 0x0 PUSH3 0x104 PUSH3 0x64 JUMP JUMPDEST SWAP1 POP PUSH3 0x112 DUP3 DUP3 PUSH3 0xC2 JUMP JUMPDEST SWAP2 SWAP1 POP JUMP JUMPDEST PUSH1 0x0 PUSH8 0xFFFFFFFFFFFFFFFF DUP3 GT ISZERO PUSH3 0x135 JUMPI PUSH3 0x134 PUSH3 0x93 JUMP JUMPDEST JUMPDEST PUSH3 0x140 DUP3 PUSH3 0x82 JUMP JUMPDEST SWAP1 POP PUSH1 0x20 DUP2 ADD SWAP1 POP SWAP2 SWAP1 POP JUMP JUMPDEST PUSH1 0x0 JUMPDEST DUP4 DUP2 LT ISZERO PUSH3 0x16D JUMPI DUP1 DUP3 ADD MLOAD DUP2 DUP5 ADD MSTORE PUSH1 0x20 DUP2 ADD SWAP1 POP PUSH3 0x150 JUMP JUMPDEST PUSH1 0x0 DUP5 DUP5 ADD MSTORE POP POP POP POP JUMP JUMPDEST PUSH1 0x0 PUSH3 0x190 PUSH3 0x18A DUP5 PUSH3 0x117 JUMP JUMPDEST PUSH3 0xF8 JUMP JUMPDEST SWAP1 POP DUP3 DUP2 MSTORE PUSH1 0x20 DUP2 ADD DUP5 DUP5 DUP5 ADD GT ISZERO PUSH3 0x1AF JUMPI PUSH3 0x1AE PUSH3 0x7D JUMP JUMPDEST JUMPDEST PUSH3 0x1BC DUP5 DUP3 DUP6 PUSH3 0x14D JUMP JUMPDEST POP SWAP4 SWAP3 POP POP POP JUMP JUMPDEST PUSH1 0x0 DUP3 PUSH1 0x1F DUP4 ADD SLT PUSH3 0x1DC JUMPI PUSH3 0x1DB PUSH3 0x78 JUMP JUMPDEST JUMPDEST DUP2 MLOAD PUSH3 0x1EE DUP5 DUP3 PUSH1 0x20 DUP7 ADD PUSH3 0x179 JUMP JUMPDEST SWAP2 POP POP SWAP3 SWAP2 POP POP JUMP JUMPDEST PUSH1 0x0 PUSH1 0x20 DUP3 DUP5 SUB SLT ISZERO PUSH3 0x210 JUMPI PUSH3 0x20F PUSH3 0x6E JUMP JUMPDEST JUMPDEST PUSH1 0x0 DUP3 ADD MLOAD PUSH8 0xFFFFFFFFFFFFFFFF DUP2 GT ISZERO PUSH3 0x231 JUMPI PUSH3 0x230 PUSH3 0x73 JUMP JUMPDEST JUMPDEST PUSH3 0x23F DUP5 DUP3 DUP6 ADD PUSH3 0x1C4 JUMP JUMPDEST SWAP2 POP POP SWAP3 SWAP2 POP POP JUMP JUMPDEST PUSH1 0x0 DUP2 MLOAD SWAP1 POP SWAP2 SWAP1 POP JUMP JUMPDEST PUSH32 0x4E487B7100000000000000000000000000000000000000000000000000000000 PUSH1 0x0 MSTORE PUSH1 0x22 PUSH1 0x4 MSTORE PUSH1 0x24 PUSH1 0x0 REVERT JUMPDEST PUSH1 0x0 PUSH1 0x2 DUP3 DIV SWAP1 POP PUSH1 0x1 DUP3 AND DUP1 PUSH3 0x29B JUMPI PUSH1 0x7F DUP3 AND SWAP2 POP JUMPDEST PUSH1 0x20 DUP3 LT DUP2 SUB PUSH3 0x2B1 JUMPI PUSH3 0x2B0 PUSH3 0x253 JUMP JUMPDEST JUMPDEST POP SWAP2 SWAP1 POP JUMP JUMPDEST PUSH1 0x0 DUP2 SWAP1 POP DUP2 PUSH1 0x0 MSTORE PUSH1 0x20 PUSH1 0x0 KECCAK256 SWAP1 POP SWAP2 SWAP1 POP JUMP JUMPDEST PUSH1 0x0 PUSH1 0x20 PUSH1 0x1F DUP4 ADD DIV SWAP1 POP SWAP2 SWAP1 POP JUMP JUMPDEST PUSH1 0x0 DUP3 DUP3 SHL SWAP1 POP SWAP3 SWAP2 POP POP JUMP JUMPDEST PUSH1 0x0 PUSH1 0x8 DUP4 MUL PUSH3 0x31B PUSH32 0xFFFFFFFFFFFFFFFFFFFFFFFFFFFFFFFFFFFFFFFFFFFFFFFFFFFFFFFFFFFFFFFF DUP3 PUSH3 0x2DC JUMP JUMPDEST PUSH3 0x327 DUP7 DUP4 PUSH3 0x2DC JUMP JUMPDEST SWAP6 POP DUP1 NOT DUP5 AND SWAP4 POP DUP1 DUP7 AND DUP5 OR SWAP3 POP POP POP SWAP4 SWAP3 POP POP POP JUMP JUMPDEST PUSH1 0x0 DUP2 SWAP1 POP SWAP2 SWAP1 POP JUMP JUMPDEST PUSH1 0x0 DUP2 SWAP1 POP SWAP2 SWAP1 POP JUMP JUMPDEST PUSH1 0x0 PUSH3 0x374 PUSH3 0x36E PUSH3 0x368 DUP5 PUSH3 0x33F JUMP JUMPDEST PUSH3 0x349 JUMP JUMPDEST PUSH3 0x33F JUMP JUMPDEST SWAP1 POP SWAP2 SWAP1 POP JUMP JUMPDEST PUSH1 0x0 DUP2 SWAP1 POP SWAP2 SWAP1 POP JUMP JUMPDEST PUSH3 0x390 DUP4 PUSH3 0x353 JUMP JUMPDEST PUSH3 0x3A8 PUSH3 0x39F DUP3 PUSH3 0x37B JUMP JUMPDEST DUP5 DUP5 SLOAD PUSH3 0x2E9 JUMP JUMPDEST DUP3 SSTORE POP POP POP POP JUMP JUMPDEST PUSH1 0x0 SWAP1 JUMP JUMPDEST PUSH3 0x3BF PUSH3 0x3B0 JUMP JUMPDEST PUSH3 0x3CC DUP2 DUP5 DUP5 PUSH3 0x385 JUMP JUMPDEST POP POP POP JUMP JUMPDEST JUMPDEST DUP2 DUP2 LT ISZERO PUSH3 0x3F4 JUMPI PUSH3 0x3E8 PUSH1 0x0 DUP3 PUSH3 0x3B5 JUMP JUMPDEST PUSH1 0x1 DUP2 ADD SWAP1 POP PUSH3 0x3D2 JUMP JUMPDEST POP POP JUMP JUMPDEST PUSH1 0x1F DUP3 GT ISZERO PUSH3 0x443 JUMPI PUSH3 0x40D DUP2 PUSH3 0x2B7 JUMP JUMPDEST PUSH3 0x418 DUP5 PUSH3 0x2CC JUMP JUMPDEST DUP2 ADD PUSH1 0x20 DUP6 LT ISZERO PUSH3 0x428 JUMPI DUP2 SWAP1 POP JUMPDEST PUSH3 0x440 PUSH3 0x437 DUP6 PUSH3 0x2CC JUMP JUMPDEST DUP4 ADD DUP3 PUSH3 0x3D1 JUMP JUMPDEST POP POP JUMPDEST POP POP POP JUMP JUMPDEST PUSH1 0x0 DUP3 DUP3 SHR SWAP1 POP SWAP3 SWAP2 POP POP JUMP JUMPDEST PUSH1 0x0 PUSH3 0x468 PUSH1 0x0 NOT DUP5 PUSH1 0x8 MUL PUSH3 0x448 JUMP JUMPDEST NOT DUP1 DUP4 AND SWAP2 POP POP SWAP3 SWAP2 POP POP JUMP JUMPDEST PUSH1 0x0 PUSH3 0x483 DUP4 DUP4 PUSH3 0x455 JUMP JUMPDEST SWAP2 POP DUP3 PUSH1 0x2 MUL DUP3 OR SWAP1 POP SWAP3 SWAP2 POP POP JUMP JUMPDEST PUSH3 0x49E DUP3 PUSH3 0x248 JUMP JUMPDEST PUSH8 0xFFFFFFFFFFFFFFFF DUP2 GT ISZERO PUSH3 0x4BA JUMPI PUSH3 0x4B9 PUSH3 0x93 JUMP JUMPDEST JUMPDEST PUSH3 0x4C6 DUP3 SLOAD PUSH3 0x282 JUMP JUMPDEST PUSH3 0x4D3 DUP3 DUP3 DUP6 PUSH3 0x3F8 JUMP JUMPDEST PUSH1 0x0 PUSH1 0x20 SWAP1 POP PUSH1 0x1F DUP4 GT PUSH1 0x1 DUP2 EQ PUSH3 0x50B JUMPI PUSH1 0x0 DUP5 ISZERO PUSH3 0x4F6 JUMPI DUP3 DUP8 ADD MLOAD SWAP1 POP JUMPDEST PUSH3 0x502 DUP6 DUP3 PUSH3 0x475 JUMP JUMPDEST DUP7 SSTORE POP PUSH3 0x572 JUMP JUMPDEST PUSH1 0x1F NOT DUP5 AND PUSH3 0x51B DUP7 PUSH3 0x2B7 JUMP JUMPDEST PUSH1 0x0 JUMPDEST DUP3 DUP2 LT ISZERO PUSH3 0x545 JUMPI DUP5 DUP10 ADD MLOAD DUP3 SSTORE PUSH1 0x1 DUP3 ADD SWAP2 POP PUSH1 0x20 DUP6 ADD SWAP5 POP PUSH1 0x20 DUP2 ADD SWAP1 POP PUSH3 0x51E JUMP JUMPDEST DUP7 DUP4 LT ISZERO PUSH3 0x565 JUMPI DUP5 DUP10 ADD MLOAD PUSH3 0x561 PUSH1 0x1F DUP10 AND DUP3 PUSH3 0x455 JUMP JUMPDEST DUP4 SSTORE POP JUMPDEST PUSH1 0x1 PUSH1 0x2 DUP9 MUL ADD DUP9 SSTORE POP POP POP JUMPDEST POP POP POP POP POP POP JUMP JUMPDEST PUSH2 0x253C DUP1 PUSH3 0x58A PUSH1 0x0 CODECOPY PUSH1 0x0 RETURN INVALID PUSH1 0x80 PUSH1 0x40 MSTORE CALLVALUE DUP1 ISZERO PUSH2 0x10 JUMPI PUSH1 0x0 DUP1 REVERT JUMPDEST POP PUSH1 0x4 CALLDATASIZE LT PUSH2 0x92 JUMPI PUSH1 0x0 CALLDATALOAD PUSH1 0xE0 SHR DUP1 PUSH4 0x4E1273F4 GT PUSH2 0x66 JUMPI DUP1 PUSH4 0x4E1273F4 EQ PUSH2 0x143 JUMPI DUP1 PUSH4 0xA22CB465 EQ PUSH2 0x173 JUMPI DUP1 PUSH4 0xBD85B039 EQ PUSH2 0x18F JUMPI DUP1 PUSH4 0xE985E9C5 EQ PUSH2 0x1BF JUMPI DUP1 PUSH4 0xF242432A EQ PUSH2 0x1EF JUMPI PUSH2 0x92 JUMP JUMPDEST DUP1 PUSH3 0xFDD58E EQ PUSH2 0x97 JUMPI DUP1 PUSH4 0x1FFC9A7 EQ PUSH2 0xC7 JUMPI DUP1 PUSH4 0xE89341C EQ PUSH2 0xF7 JUMPI DUP1 PUSH4 0x2EB2C2D6 EQ PUSH2 0x127 JUMPI JUMPDEST PUSH1 0x0 DUP1 REVERT JUMPDEST PUSH2 0xB1 PUSH1 0x4 DUP1 CALLDATASIZE SUB DUP2 ADD SWAP1 PUSH2 0xAC SWAP2 SWAP1 PUSH2 0x13F5 JUMP JUMPDEST PUSH2 0x20B JUMP JUMPDEST PUSH1 0x40 MLOAD PUSH2 0xBE SWAP2 SWAP1 PUSH2 0x1444 JUMP JUMPDEST PUSH1 0x40 MLOAD DUP1 SWAP2 SUB SWAP1 RETURN JUMPDEST PUSH2 0xE1 PUSH1 0x4 DUP1 CALLDATASIZE SUB DUP2 ADD SWAP1 PUSH2 0xDC SWAP2 SWAP1 PUSH2 0x14B7 JUMP JUMPDEST PUSH2 0x2D3 JUMP JUMPDEST PUSH1 0x40 MLOAD PUSH2 0xEE SWAP2 SWAP1 PUSH2 0x14FF JUMP JUMPDEST PUSH1 0x40 MLOAD DUP1 SWAP2 SUB SWAP1 RETURN JUMPDEST PUSH2 0x111 PUSH1 0x4 DUP1 CALLDATASIZE SUB DUP2 ADD SWAP1 PUSH2 0x10C SWAP2 SWAP1 PUSH2 0x151A JUMP JUMPDEST PUSH2 0x3B5 JUMP JUMPDEST PUSH1 0x40 MLOAD PUSH2 0x11E SWAP2 SWAP1 PUSH2 0x15D7 JUMP JUMPDEST PUSH1 0x40 MLOAD DUP1 SWAP2 SUB SWAP1 RETURN JUMPDEST PUSH2 0x141 PUSH1 0x4 DUP1 CALLDATASIZE SUB DUP2 ADD SWAP1 PUSH2 0x13C SWAP2 SWAP1 PUSH2 0x17F6 JUMP JUMPDEST PUSH2 0x449 JUMP JUMPDEST STOP JUMPDEST PUSH2 0x15D PUSH1 0x4 DUP1 CALLDATASIZE SUB DUP2 ADD SWAP1 PUSH2 0x158 SWAP2 SWAP1 PUSH2 0x1988 JUMP JUMPDEST PUSH2 0x4EA JUMP JUMPDEST PUSH1 0x40 MLOAD PUSH2 0x16A SWAP2 SWAP1 PUSH2 0x1ABE JUMP JUMPDEST PUSH1 0x40 MLOAD DUP1 SWAP2 SUB SWAP1 RETURN JUMPDEST PUSH2 0x18D PUSH1 0x4 DUP1 CALLDATASIZE SUB DUP2 ADD SWAP1 PUSH2 0x188 SWAP2 SWAP1 PUSH2 0x1B0C JUMP JUMPDEST PUSH2 0x603 JUMP JUMPDEST STOP JUMPDEST PUSH2 0x1A9 PUSH1 0x4 DUP1 CALLDATASIZE SUB DUP2 ADD SWAP1 PUSH2 0x1A4 SWAP2 SWAP1 PUSH2 0x151A JUMP JUMPDEST PUSH2 0x619 JUMP JUMPDEST PUSH1 0x40 MLOAD PUSH2 0x1B6 SWAP2 SWAP1 PUSH2 0x1444 JUMP JUMPDEST PUSH1 0x40 MLOAD DUP1 SWAP2 SUB SWAP1 RETURN JUMPDEST PUSH2 0x1D9 PUSH1 0x4 DUP1 CALLDATASIZE SUB DUP2 ADD SWAP1 PUSH2 0x1D4 SWAP2 SWAP1 PUSH2 0x1B4C JUMP JUMPDEST PUSH2 0x623 JUMP JUMPDEST PUSH1 0x40 MLOAD PUSH2 0x1E6 SWAP2 SWAP1 PUSH2 0x14FF JUMP JUMPDEST PUSH1 0x40 MLOAD DUP1 SWAP2 SUB SWAP1 RETURN JUMPDEST PUSH2 0x209 PUSH1 0x4 DUP1 CALLDATASIZE SUB DUP2 ADD SWAP1 PUSH2 0x204 SWAP2 SWAP1 PUSH2 0x1B8C JUMP JUMPDEST PUSH2 0x6B7 JUMP JUMPDEST STOP JUMPDEST PUSH1 0x0 DUP1 PUSH20 0xFFFFFFFFFFFFFFFFFFFFFFFFFFFFFFFFFFFFFFFF AND DUP4 PUSH20 0xFFFFFFFFFFFFFFFFFFFFFFFFFFFFFFFFFFFFFFFF AND SUB PUSH2 0x27B JUMPI PUSH1 0x40 MLOAD PUSH32 0x8C379A000000000000000000000000000000000000000000000000000000000 DUP2 MSTORE PUSH1 0x4 ADD PUSH2 0x272 SWAP1 PUSH2 0x1C95 JUMP JUMPDEST PUSH1 0x40 MLOAD DUP1 SWAP2 SUB SWAP1 REVERT JUMPDEST PUSH1 0x0 DUP1 DUP4 DUP2 MSTORE PUSH1 0x20 ADD SWAP1 DUP2 MSTORE PUSH1 0x20 ADD PUSH1 0x0 KECCAK256 PUSH1 0x0 DUP5 PUSH20 0xFFFFFFFFFFFFFFFFFFFFFFFFFFFFFFFFFFFFFFFF AND PUSH20 0xFFFFFFFFFFFFFFFFFFFFFFFFFFFFFFFFFFFFFFFF AND DUP2 MSTORE PUSH1 0x20 ADD SWAP1 DUP2 MSTORE PUSH1 0x20 ADD PUSH1 0x0 KECCAK256 SLOAD SWAP1 POP SWAP3 SWAP2 POP POP JUMP JUMPDEST PUSH1 0x0 PUSH32 0xD9B67A2600000000000000000000000000000000000000000000000000000000 PUSH28 0xFFFFFFFFFFFFFFFFFFFFFFFFFFFFFFFFFFFFFFFFFFFFFFFFFFFFFFFF NOT AND DUP3 PUSH28 0xFFFFFFFFFFFFFFFFFFFFFFFFFFFFFFFFFFFFFFFFFFFFFFFFFFFFFFFF NOT AND EQ DUP1 PUSH2 0x39E JUMPI POP PUSH32 0xE89341C00000000000000000000000000000000000000000000000000000000 PUSH28 0xFFFFFFFFFFFFFFFFFFFFFFFFFFFFFFFFFFFFFFFFFFFFFFFFFFFFFFFF NOT AND DUP3 PUSH28 0xFFFFFFFFFFFFFFFFFFFFFFFFFFFFFFFFFFFFFFFFFFFFFFFFFFFFFFFF NOT AND EQ JUMPDEST DUP1 PUSH2 0x3AE JUMPI POP PUSH2 0x3AD DUP3 PUSH2 0x758 JUMP JUMPDEST JUMPDEST SWAP1 POP SWAP2 SWAP1 POP JUMP JUMPDEST PUSH1 0x60 PUSH1 0x2 DUP1 SLOAD PUSH2 0x3C4 SWAP1 PUSH2 0x1CE4 JUMP JUMPDEST DUP1 PUSH1 0x1F ADD PUSH1 0x20 DUP1 SWAP2 DIV MUL PUSH1 0x20 ADD PUSH1 0x40 MLOAD SWAP1 DUP2 ADD PUSH1 0x40 MSTORE DUP1 SWAP3 SWAP2 SWAP1 DUP2 DUP2 MSTORE PUSH1 0x20 ADD DUP3 DUP1 SLOAD PUSH2 0x3F0 SWAP1 PUSH2 0x1CE4 JUMP JUMPDEST DUP1 ISZERO PUSH2 0x43D JUMPI DUP1 PUSH1 0x1F LT PUSH2 0x412 JUMPI PUSH2 0x100 DUP1 DUP4 SLOAD DIV MUL DUP4 MSTORE SWAP2 PUSH1 0x20 ADD SWAP2 PUSH2 0x43D JUMP JUMPDEST DUP3 ADD SWAP2 SWAP1 PUSH1 0x0 MSTORE PUSH1 0x20 PUSH1 0x0 KECCAK256 SWAP1 JUMPDEST DUP2 SLOAD DUP2 MSTORE SWAP1 PUSH1 0x1 ADD SWAP1 PUSH1 0x20 ADD DUP1 DUP4 GT PUSH2 0x420 JUMPI DUP3 SWAP1 SUB PUSH1 0x1F AND DUP3 ADD SWAP2 JUMPDEST POP POP POP POP POP SWAP1 POP SWAP2 SWAP1 POP JUMP JUMPDEST PUSH2 0x451 PUSH2 0x7C2 JUMP JUMPDEST PUSH20 0xFFFFFFFFFFFFFFFFFFFFFFFFFFFFFFFFFFFFFFFF AND DUP6 PUSH20 0xFFFFFFFFFFFFFFFFFFFFFFFFFFFFFFFFFFFFFFFF AND EQ DUP1 PUSH2 0x497 JUMPI POP PUSH2 0x496 DUP6 PUSH2 0x491 PUSH2 0x7C2 JUMP JUMPDEST PUSH2 0x623 JUMP JUMPDEST JUMPDEST PUSH2 0x4D6 JUMPI PUSH1 0x40 MLOAD PUSH32 0x8C379A000000000000000000000000000000000000000000000000000000000 DUP2 MSTORE PUSH1 0x4 ADD PUSH2 0x4CD SWAP1 PUSH2 0x1D87 JUMP JUMPDEST PUSH1 0x40 MLOAD DUP1 SWAP2 SUB SWAP1 REVERT JUMPDEST PUSH2 0x4E3 DUP6 DUP6 DUP6 DUP6 DUP6 PUSH2 0x7CA JUMP JUMPDEST POP POP POP POP POP JUMP JUMPDEST PUSH1 0x60 DUP2 MLOAD DUP4 MLOAD EQ PUSH2 0x530 JUMPI PUSH1 0x40 MLOAD PUSH32 0x8C379A000000000000000000000000000000000000000000000000000000000 DUP2 MSTORE PUSH1 0x4 ADD PUSH2 0x527 SWAP1 PUSH2 0x1E19 JUMP JUMPDEST PUSH1 0x40 MLOAD DUP1 SWAP2 SUB SWAP1 REVERT JUMPDEST PUSH1 0x0 DUP4 MLOAD PUSH8 0xFFFFFFFFFFFFFFFF DUP2 GT ISZERO PUSH2 0x54D JUMPI PUSH2 0x54C PUSH2 0x15FE JUMP JUMPDEST JUMPDEST PUSH1 0x40 MLOAD SWAP1 DUP1 DUP3 MSTORE DUP1 PUSH1 0x20 MUL PUSH1 0x20 ADD DUP3 ADD PUSH1 0x40 MSTORE DUP1 ISZERO PUSH2 0x57B JUMPI DUP2 PUSH1 0x20 ADD PUSH1 0x20 DUP3 MUL DUP1 CALLDATASIZE DUP4 CALLDATACOPY DUP1 DUP3 ADD SWAP2 POP POP SWAP1 POP JUMPDEST POP SWAP1 POP PUSH1 0x0 JUMPDEST DUP5 MLOAD DUP2 LT ISZERO PUSH2 0x5F8 JUMPI PUSH2 0x5C8 DUP6 DUP3 DUP2 MLOAD DUP2 LT PUSH2 0x5A0 JUMPI PUSH2 0x59F PUSH2 0x1E39 JUMP JUMPDEST JUMPDEST PUSH1 0x20 MUL PUSH1 0x20 ADD ADD MLOAD DUP6 DUP4 DUP2 MLOAD DUP2 LT PUSH2 0x5BB JUMPI PUSH2 0x5BA PUSH2 0x1E39 JUMP JUMPDEST JUMPDEST PUSH1 0x20 MUL PUSH1 0x20 ADD ADD MLOAD PUSH2 0x20B JUMP JUMPDEST DUP3 DUP3 DUP2 MLOAD DUP2 LT PUSH2 0x5DB JUMPI PUSH2 0x5DA PUSH2 0x1E39 JUMP JUMPDEST JUMPDEST PUSH1 0x20 MUL PUSH1 0x20 ADD ADD DUP2 DUP2 MSTORE POP POP DUP1 PUSH2 0x5F1 SWAP1 PUSH2 0x1E97 JUMP JUMPDEST SWAP1 POP PUSH2 0x581 JUMP JUMPDEST POP DUP1 SWAP2 POP POP SWAP3 SWAP2 POP POP JUMP JUMPDEST PUSH2 0x615 PUSH2 0x60E PUSH2 0x7C2 JUMP JUMPDEST DUP4 DUP4 PUSH2 0xAEB JUMP JUMPDEST POP POP JUMP JUMPDEST PUSH1 0x0 DUP2 SWAP1 POP SWAP2 SWAP1 POP JUMP JUMPDEST PUSH1 0x0 PUSH1 0x1 PUSH1 0x0 DUP5 PUSH20 0xFFFFFFFFFFFFFFFFFFFFFFFFFFFFFFFFFFFFFFFF AND PUSH20 0xFFFFFFFFFFFFFFFFFFFFFFFFFFFFFFFFFFFFFFFF AND DUP2 MSTORE PUSH1 0x20 ADD SWAP1 DUP2 MSTORE PUSH1 0x20 ADD PUSH1 0x0 KECCAK256 PUSH1 0x0 DUP4 PUSH20 0xFFFFFFFFFFFFFFFFFFFFFFFFFFFFFFFFFFFFFFFF AND PUSH20 0xFFFFFFFFFFFFFFFFFFFFFFFFFFFFFFFFFFFFFFFF AND DUP2 MSTORE PUSH1 0x20 ADD SWAP1 DUP2 MSTORE PUSH1 0x20 ADD PUSH1 0x0 KECCAK256 PUSH1 0x0 SWAP1 SLOAD SWAP1 PUSH2 0x100 EXP SWAP1 DIV PUSH1 0xFF AND SWAP1 POP SWAP3 SWAP2 POP POP JUMP JUMPDEST PUSH2 0x6BF PUSH2 0x7C2 JUMP JUMPDEST PUSH20 0xFFFFFFFFFFFFFFFFFFFFFFFFFFFFFFFFFFFFFFFF AND DUP6 PUSH20 0xFFFFFFFFFFFFFFFFFFFFFFFFFFFFFFFFFFFFFFFF AND EQ DUP1 PUSH2 0x705 JUMPI POP PUSH2 0x704 DUP6 PUSH2 0x6FF PUSH2 0x7C2 JUMP JUMPDEST PUSH2 0x623 JUMP JUMPDEST JUMPDEST PUSH2 0x744 JUMPI PUSH1 0x40 MLOAD PUSH32 0x8C379A000000000000000000000000000000000000000000000000000000000 DUP2 MSTORE PUSH1 0x4 ADD PUSH2 0x73B SWAP1 PUSH2 0x1D87 JUMP JUMPDEST PUSH1 0x40 MLOAD DUP1 SWAP2 SUB SWAP1 REVERT JUMPDEST PUSH2 0x751 DUP6 DUP6 DUP6 DUP6 DUP6 PUSH2 0xC57 JUMP JUMPDEST POP POP POP POP POP JUMP JUMPDEST PUSH1 0x0 PUSH32 0x1FFC9A700000000000000000000000000000000000000000000000000000000 PUSH28 0xFFFFFFFFFFFFFFFFFFFFFFFFFFFFFFFFFFFFFFFFFFFFFFFFFFFFFFFF NOT AND DUP3 PUSH28 0xFFFFFFFFFFFFFFFFFFFFFFFFFFFFFFFFFFFFFFFFFFFFFFFFFFFFFFFF NOT AND EQ SWAP1 POP SWAP2 SWAP1 POP JUMP JUMPDEST PUSH1 0x0 CALLER SWAP1 POP SWAP1 JUMP JUMPDEST DUP2 MLOAD DUP4 MLOAD EQ PUSH2 0x80E JUMPI PUSH1 0x40 MLOAD PUSH32 0x8C379A000000000000000000000000000000000000000000000000000000000 DUP2 MSTORE PUSH1 0x4 ADD PUSH2 0x805 SWAP1 PUSH2 0x1F51 JUMP JUMPDEST PUSH1 0x40 MLOAD DUP1 SWAP2 SUB SWAP1 REVERT JUMPDEST PUSH1 0x0 PUSH20 0xFFFFFFFFFFFFFFFFFFFFFFFFFFFFFFFFFFFFFFFF AND DUP5 PUSH20 0xFFFFFFFFFFFFFFFFFFFFFFFFFFFFFFFFFFFFFFFF AND SUB PUSH2 0x87D JUMPI PUSH1 0x40 MLOAD PUSH32 0x8C379A000000000000000000000000000000000000000000000000000000000 DUP2 MSTORE PUSH1 0x4 ADD PUSH2 0x874 SWAP1 PUSH2 0x1FE3 JUMP JUMPDEST PUSH1 0x40 MLOAD DUP1 SWAP2 SUB SWAP1 REVERT JUMPDEST PUSH1 0x0 PUSH2 0x887 PUSH2 0x7C2 JUMP JUMPDEST SWAP1 POP PUSH2 0x897 DUP2 DUP8 DUP8 DUP8 DUP8 DUP8 PUSH2 0xEF2 JUMP JUMPDEST PUSH1 0x0 JUMPDEST DUP5 MLOAD DUP2 LT ISZERO PUSH2 0xA48 JUMPI PUSH1 0x0 DUP6 DUP3 DUP2 MLOAD DUP2 LT PUSH2 0x8B8 JUMPI PUSH2 0x8B7 PUSH2 0x1E39 JUMP JUMPDEST JUMPDEST PUSH1 0x20 MUL PUSH1 0x20 ADD ADD MLOAD SWAP1 POP PUSH1 0x0 DUP6 DUP4 DUP2 MLOAD DUP2 LT PUSH2 0x8D7 JUMPI PUSH2 0x8D6 PUSH2 0x1E39 JUMP JUMPDEST JUMPDEST PUSH1 0x20 MUL PUSH1 0x20 ADD ADD MLOAD SWAP1 POP PUSH1 0x0 DUP1 PUSH1 0x0 DUP5 DUP2 MSTORE PUSH1 0x20 ADD SWAP1 DUP2 MSTORE PUSH1 0x20 ADD PUSH1 0x0 KECCAK256 PUSH1 0x0 DUP12 PUSH20 0xFFFFFFFFFFFFFFFFFFFFFFFFFFFFFFFFFFFFFFFF AND PUSH20 0xFFFFFFFFFFFFFFFFFFFFFFFFFFFFFFFFFFFFFFFF AND DUP2 MSTORE PUSH1 0x20 ADD SWAP1 DUP2 MSTORE PUSH1 0x20 ADD PUSH1 0x0 KECCAK256 SLOAD SWAP1 POP DUP2 DUP2 LT ISZERO PUSH2 0x978 JUMPI PUSH1 0x40 MLOAD PUSH32 0x8C379A000000000000000000000000000000000000000000000000000000000 DUP2 MSTORE PUSH1 0x4 ADD PUSH2 0x96F SWAP1 PUSH2 0x2075 JUMP JUMPDEST PUSH1 0x40 MLOAD DUP1 SWAP2 SUB SWAP1 REVERT JUMPDEST DUP2 DUP2 SUB PUSH1 0x0 DUP1 DUP6 DUP2 MSTORE PUSH1 0x20 ADD SWAP1 DUP2 MSTORE PUSH1 0x20 ADD PUSH1 0x0 KECCAK256 PUSH1 0x0 DUP13 PUSH20 0xFFFFFFFFFFFFFFFFFFFFFFFFFFFFFFFFFFFFFFFF AND PUSH20 0xFFFFFFFFFFFFFFFFFFFFFFFFFFFFFFFFFFFFFFFF AND DUP2 MSTORE PUSH1 0x20 ADD SWAP1 DUP2 MSTORE PUSH1 0x20 ADD PUSH1 0x0 KECCAK256 DUP2 SWAP1 SSTORE POP DUP2 PUSH1 0x0 DUP1 DUP6 DUP2 MSTORE PUSH1 0x20 ADD SWAP1 DUP2 MSTORE PUSH1 0x20 ADD PUSH1 0x0 KECCAK256 PUSH1 0x0 DUP12 PUSH20 0xFFFFFFFFFFFFFFFFFFFFFFFFFFFFFFFFFFFFFFFF AND PUSH20 0xFFFFFFFFFFFFFFFFFFFFFFFFFFFFFFFFFFFFFFFF AND DUP2 MSTORE PUSH1 0x20 ADD SWAP1 DUP2 MSTORE PUSH1 0x20 ADD PUSH1 0x0 KECCAK256 PUSH1 0x0 DUP3 DUP3 SLOAD PUSH2 0xA2D SWAP2 SWAP1 PUSH2 0x2095 JUMP JUMPDEST SWAP3 POP POP DUP2 SWAP1 SSTORE POP POP POP POP DUP1 PUSH2 0xA41 SWAP1 PUSH2 0x1E97 JUMP JUMPDEST SWAP1 POP PUSH2 0x89A JUMP JUMPDEST POP DUP5 PUSH20 0xFFFFFFFFFFFFFFFFFFFFFFFFFFFFFFFFFFFFFFFF AND DUP7 PUSH20 0xFFFFFFFFFFFFFFFFFFFFFFFFFFFFFFFFFFFFFFFF AND DUP3 PUSH20 0xFFFFFFFFFFFFFFFFFFFFFFFFFFFFFFFFFFFFFFFF AND PUSH32 0x4A39DC06D4C0DBC64B70AF90FD698A233A518AA5D07E595D983B8C0526C8F7FB DUP8 DUP8 PUSH1 0x40 MLOAD PUSH2 0xABF SWAP3 SWAP2 SWAP1 PUSH2 0x20C9 JUMP JUMPDEST PUSH1 0x40 MLOAD DUP1 SWAP2 SUB SWAP1 LOG4 PUSH2 0xAD5 DUP2 DUP8 DUP8 DUP8 DUP8 DUP8 PUSH2 0xEFA JUMP JUMPDEST PUSH2 0xAE3 DUP2 DUP8 DUP8 DUP8 DUP8 DUP8 PUSH2 0xF02 JUMP JUMPDEST POP POP POP POP POP POP JUMP JUMPDEST DUP2 PUSH20 0xFFFFFFFFFFFFFFFFFFFFFFFFFFFFFFFFFFFFFFFF AND DUP4 PUSH20 0xFFFFFFFFFFFFFFFFFFFFFFFFFFFFFFFFFFFFFFFF AND SUB PUSH2 0xB59 JUMPI PUSH1 0x40 MLOAD PUSH32 0x8C379A000000000000000000000000000000000000000000000000000000000 DUP2 MSTORE PUSH1 0x4 ADD PUSH2 0xB50 SWAP1 PUSH2 0x2172 JUMP JUMPDEST PUSH1 0x40 MLOAD DUP1 SWAP2 SUB SWAP1 REVERT JUMPDEST DUP1 PUSH1 0x1 PUSH1 0x0 DUP6 PUSH20 0xFFFFFFFFFFFFFFFFFFFFFFFFFFFFFFFFFFFFFFFF AND PUSH20 0xFFFFFFFFFFFFFFFFFFFFFFFFFFFFFFFFFFFFFFFF AND DUP2 MSTORE PUSH1 0x20 ADD SWAP1 DUP2 MSTORE PUSH1 0x20 ADD PUSH1 0x0 KECCAK256 PUSH1 0x0 DUP5 PUSH20 0xFFFFFFFFFFFFFFFFFFFFFFFFFFFFFFFFFFFFFFFF AND PUSH20 0xFFFFFFFFFFFFFFFFFFFFFFFFFFFFFFFFFFFFFFFF AND DUP2 MSTORE PUSH1 0x20 ADD SWAP1 DUP2 MSTORE PUSH1 0x20 ADD PUSH1 0x0 KECCAK256 PUSH1 0x0 PUSH2 0x100 EXP DUP2 SLOAD DUP2 PUSH1 0xFF MUL NOT AND SWAP1 DUP4 ISZERO ISZERO MUL OR SWAP1 SSTORE POP DUP2 PUSH20 0xFFFFFFFFFFFFFFFFFFFFFFFFFFFFFFFFFFFFFFFF AND DUP4 PUSH20 0xFFFFFFFFFFFFFFFFFFFFFFFFFFFFFFFFFFFFFFFF AND PUSH32 0x17307EAB39AB6107E8899845AD3D59BD9653F200F220920489CA2B5937696C31 DUP4 PUSH1 0x40 MLOAD PUSH2 0xC4A SWAP2 SWAP1 PUSH2 0x14FF JUMP JUMPDEST PUSH1 0x40 MLOAD DUP1 SWAP2 SUB SWAP1 LOG3 POP POP POP JUMP JUMPDEST PUSH1 0x0 PUSH20 0xFFFFFFFFFFFFFFFFFFFFFFFFFFFFFFFFFFFFFFFF AND DUP5 PUSH20 0xFFFFFFFFFFFFFFFFFFFFFFFFFFFFFFFFFFFFFFFF AND SUB PUSH2 0xCC6 JUMPI PUSH1 0x40 MLOAD PUSH32 0x8C379A000000000000000000000000000000000000000000000000000000000 DUP2 MSTORE PUSH1 0x4 ADD PUSH2 0xCBD SWAP1 PUSH2 0x1FE3 JUMP JUMPDEST PUSH1 0x40 MLOAD DUP1 SWAP2 SUB SWAP1 REVERT JUMPDEST PUSH1 0x0 PUSH2 0xCD0 PUSH2 0x7C2 JUMP JUMPDEST SWAP1 POP PUSH1 0x0 PUSH2 0xCDD DUP6 PUSH2 0x10D9 JUMP JUMPDEST SWAP1 POP PUSH1 0x0 PUSH2 0xCEA DUP6 PUSH2 0x10D9 JUMP JUMPDEST SWAP1 POP PUSH2 0xCFA DUP4 DUP10 DUP10 DUP6 DUP6 DUP10 PUSH2 0xEF2 JUMP JUMPDEST PUSH1 0x0 DUP1 PUSH1 0x0 DUP9 DUP2 MSTORE PUSH1 0x20 ADD SWAP1 DUP2 MSTORE PUSH1 0x20 ADD PUSH1 0x0 KECCAK256 PUSH1 0x0 DUP11 PUSH20 0xFFFFFFFFFFFFFFFFFFFFFFFFFFFFFFFFFFFFFFFF AND PUSH20 0xFFFFFFFFFFFFFFFFFFFFFFFFFFFFFFFFFFFFFFFF AND DUP2 MSTORE PUSH1 0x20 ADD SWAP1 DUP2 MSTORE PUSH1 0x20 ADD PUSH1 0x0 KECCAK256 SLOAD SWAP1 POP DUP6 DUP2 LT ISZERO PUSH2 0xD91 JUMPI PUSH1 0x40 MLOAD PUSH32 0x8C379A000000000000000000000000000000000000000000000000000000000 DUP2 MSTORE PUSH1 0x4 ADD PUSH2 0xD88 SWAP1 PUSH2 0x2075 JUMP JUMPDEST PUSH1 0x40 MLOAD DUP1 SWAP2 SUB SWAP1 REVERT JUMPDEST DUP6 DUP2 SUB PUSH1 0x0 DUP1 DUP10 DUP2 MSTORE PUSH1 0x20 ADD SWAP1 DUP2 MSTORE PUSH1 0x20 ADD PUSH1 0x0 KECCAK256 PUSH1 0x0 DUP12 PUSH20 0xFFFFFFFFFFFFFFFFFFFFFFFFFFFFFFFFFFFFFFFF AND PUSH20 0xFFFFFFFFFFFFFFFFFFFFFFFFFFFFFFFFFFFFFFFF AND DUP2 MSTORE PUSH1 0x20 ADD SWAP1 DUP2 MSTORE PUSH1 0x20 ADD PUSH1 0x0 KECCAK256 DUP2 SWAP1 SSTORE POP DUP6 PUSH1 0x0 DUP1 DUP10 DUP2 MSTORE PUSH1 0x20 ADD SWAP1 DUP2 MSTORE PUSH1 0x20 ADD PUSH1 0x0 KECCAK256 PUSH1 0x0 DUP11 PUSH20 0xFFFFFFFFFFFFFFFFFFFFFFFFFFFFFFFFFFFFFFFF AND PUSH20 0xFFFFFFFFFFFFFFFFFFFFFFFFFFFFFFFFFFFFFFFF AND DUP2 MSTORE PUSH1 0x20 ADD SWAP1 DUP2 MSTORE PUSH1 0x20 ADD PUSH1 0x0 KECCAK256 PUSH1 0x0 DUP3 DUP3 SLOAD PUSH2 0xE46 SWAP2 SWAP1 PUSH2 0x2095 JUMP JUMPDEST SWAP3 POP POP DUP2 SWAP1 SSTORE POP DUP8 PUSH20 0xFFFFFFFFFFFFFFFFFFFFFFFFFFFFFFFFFFFFFFFF AND DUP10 PUSH20 0xFFFFFFFFFFFFFFFFFFFFFFFFFFFFFFFFFFFFFFFF AND DUP6 PUSH20 0xFFFFFFFFFFFFFFFFFFFFFFFFFFFFFFFFFFFFFFFF AND PUSH32 0xC3D58168C5AE7397731D063D5BBF3D657854427343F4C083240F7AACAA2D0F62 DUP11 DUP11 PUSH1 0x40 MLOAD PUSH2 0xEC3 SWAP3 SWAP2 SWAP1 PUSH2 0x2192 JUMP JUMPDEST PUSH1 0x40 MLOAD DUP1 SWAP2 SUB SWAP1 LOG4 PUSH2 0xED9 DUP5 DUP11 DUP11 DUP7 DUP7 DUP11 PUSH2 0xEFA JUMP JUMPDEST PUSH2 0xEE7 DUP5 DUP11 DUP11 DUP11 DUP11 DUP11 PUSH2 0x1153 JUMP JUMPDEST POP POP POP POP POP POP POP POP POP JUMP JUMPDEST POP POP POP POP POP POP JUMP JUMPDEST POP POP POP POP POP POP JUMP JUMPDEST PUSH2 0xF21 DUP5 PUSH20 0xFFFFFFFFFFFFFFFFFFFFFFFFFFFFFFFFFFFFFFFF AND PUSH2 0x132A JUMP JUMPDEST ISZERO PUSH2 0x10D1 JUMPI DUP4 PUSH20 0xFFFFFFFFFFFFFFFFFFFFFFFFFFFFFFFFFFFFFFFF AND PUSH4 0xBC197C81 DUP8 DUP8 DUP7 DUP7 DUP7 PUSH1 0x40 MLOAD DUP7 PUSH4 0xFFFFFFFF AND PUSH1 0xE0 SHL DUP2 MSTORE PUSH1 0x4 ADD PUSH2 0xF67 SWAP6 SWAP5 SWAP4 SWAP3 SWAP2 SWAP1 PUSH2 0x221F JUMP JUMPDEST PUSH1 0x20 PUSH1 0x40 MLOAD DUP1 DUP4 SUB DUP2 PUSH1 0x0 DUP8 GAS CALL SWAP3 POP POP POP DUP1 ISZERO PUSH2 0xFA3 JUMPI POP PUSH1 0x40 MLOAD RETURNDATASIZE PUSH1 0x1F NOT PUSH1 0x1F DUP3 ADD AND DUP3 ADD DUP1 PUSH1 0x40 MSTORE POP DUP2 ADD SWAP1 PUSH2 0xFA0 SWAP2 SWAP1 PUSH2 0x229C JUMP JUMPDEST PUSH1 0x1 JUMPDEST PUSH2 0x1048 JUMPI PUSH2 0xFAF PUSH2 0x22D6 JUMP JUMPDEST DUP1 PUSH4 0x8C379A0 SUB PUSH2 0x100B JUMPI POP PUSH2 0xFC3 PUSH2 0x22F8 JUMP JUMPDEST DUP1 PUSH2 0xFCE JUMPI POP PUSH2 0x100D JUMP JUMPDEST DUP1 PUSH1 0x40 MLOAD PUSH32 0x8C379A000000000000000000000000000000000000000000000000000000000 DUP2 MSTORE PUSH1 0x4 ADD PUSH2 0x1002 SWAP2 SWAP1 PUSH2 0x15D7 JUMP JUMPDEST PUSH1 0x40 MLOAD DUP1 SWAP2 SUB SWAP1 REVERT JUMPDEST POP JUMPDEST PUSH1 0x40 MLOAD PUSH32 0x8C379A000000000000000000000000000000000000000000000000000000000 DUP2 MSTORE PUSH1 0x4 ADD PUSH2 0x103F SWAP1 PUSH2 0x23FA JUMP JUMPDEST PUSH1 0x40 MLOAD DUP1 SWAP2 SUB SWAP1 REVERT JUMPDEST PUSH4 0xBC197C81 PUSH1 0xE0 SHL PUSH28 0xFFFFFFFFFFFFFFFFFFFFFFFFFFFFFFFFFFFFFFFFFFFFFFFFFFFFFFFF NOT AND DUP2 PUSH28 0xFFFFFFFFFFFFFFFFFFFFFFFFFFFFFFFFFFFFFFFFFFFFFFFFFFFFFFFF NOT AND EQ PUSH2 0x10CF JUMPI PUSH1 0x40 MLOAD PUSH32 0x8C379A000000000000000000000000000000000000000000000000000000000 DUP2 MSTORE PUSH1 0x4 ADD PUSH2 0x10C6 SWAP1 PUSH2 0x248C JUMP JUMPDEST PUSH1 0x40 MLOAD DUP1 SWAP2 SUB SWAP1 REVERT JUMPDEST POP JUMPDEST POP POP POP POP POP POP JUMP JUMPDEST PUSH1 0x60 PUSH1 0x0 PUSH1 0x1 PUSH8 0xFFFFFFFFFFFFFFFF DUP2 GT ISZERO PUSH2 0x10F8 JUMPI PUSH2 0x10F7 PUSH2 0x15FE JUMP JUMPDEST JUMPDEST PUSH1 0x40 MLOAD SWAP1 DUP1 DUP3 MSTORE DUP1 PUSH1 0x20 MUL PUSH1 0x20 ADD DUP3 ADD PUSH1 0x40 MSTORE DUP1 ISZERO PUSH2 0x1126 JUMPI DUP2 PUSH1 0x20 ADD PUSH1 0x20 DUP3 MUL DUP1 CALLDATASIZE DUP4 CALLDATACOPY DUP1 DUP3 ADD SWAP2 POP POP SWAP1 POP JUMPDEST POP SWAP1 POP DUP3 DUP2 PUSH1 0x0 DUP2 MLOAD DUP2 LT PUSH2 0x113E JUMPI PUSH2 0x113D PUSH2 0x1E39 JUMP JUMPDEST JUMPDEST PUSH1 0x20 MUL PUSH1 0x20 ADD ADD DUP2 DUP2 MSTORE POP POP DUP1 SWAP2 POP POP SWAP2 SWAP1 POP JUMP JUMPDEST PUSH2 0x1172 DUP5 PUSH20 0xFFFFFFFFFFFFFFFFFFFFFFFFFFFFFFFFFFFFFFFF AND PUSH2 0x132A JUMP JUMPDEST ISZERO PUSH2 0x1322 JUMPI DUP4 PUSH20 0xFFFFFFFFFFFFFFFFFFFFFFFFFFFFFFFFFFFFFFFF AND PUSH4 0xF23A6E61 DUP8 DUP8 DUP7 DUP7 DUP7 PUSH1 0x40 MLOAD DUP7 PUSH4 0xFFFFFFFF AND PUSH1 0xE0 SHL DUP2 MSTORE PUSH1 0x4 ADD PUSH2 0x11B8 SWAP6 SWAP5 SWAP4 SWAP3 SWAP2 SWAP1 PUSH2 0x24AC JUMP JUMPDEST PUSH1 0x20 PUSH1 0x40 MLOAD DUP1 DUP4 SUB DUP2 PUSH1 0x0 DUP8 GAS CALL SWAP3 POP POP POP DUP1 ISZERO PUSH2 0x11F4 JUMPI POP PUSH1 0x40 MLOAD RETURNDATASIZE PUSH1 0x1F NOT PUSH1 0x1F DUP3 ADD AND DUP3 ADD DUP1 PUSH1 0x40 MSTORE POP DUP2 ADD SWAP1 PUSH2 0x11F1 SWAP2 SWAP1 PUSH2 0x229C JUMP JUMPDEST PUSH1 0x1 JUMPDEST PUSH2 0x1299 JUMPI PUSH2 0x1200 PUSH2 0x22D6 JUMP JUMPDEST DUP1 PUSH4 0x8C379A0 SUB PUSH2 0x125C JUMPI POP PUSH2 0x1214 PUSH2 0x22F8 JUMP JUMPDEST DUP1 PUSH2 0x121F JUMPI POP PUSH2 0x125E JUMP JUMPDEST DUP1 PUSH1 0x40 MLOAD PUSH32 0x8C379A000000000000000000000000000000000000000000000000000000000 DUP2 MSTORE PUSH1 0x4 ADD PUSH2 0x1253 SWAP2 SWAP1 PUSH2 0x15D7 JUMP JUMPDEST PUSH1 0x40 MLOAD DUP1 SWAP2 SUB SWAP1 REVERT JUMPDEST POP JUMPDEST PUSH1 0x40 MLOAD PUSH32 0x8C379A000000000000000000000000000000000000000000000000000000000 DUP2 MSTORE PUSH1 0x4 ADD PUSH2 0x1290 SWAP1 PUSH2 0x23FA JUMP JUMPDEST PUSH1 0x40 MLOAD DUP1 SWAP2 SUB SWAP1 REVERT JUMPDEST PUSH4 0xF23A6E61 PUSH1 0xE0 SHL PUSH28 0xFFFFFFFFFFFFFFFFFFFFFFFFFFFFFFFFFFFFFFFFFFFFFFFFFFFFFFFF NOT AND DUP2 PUSH28 0xFFFFFFFFFFFFFFFFFFFFFFFFFFFFFFFFFFFFFFFFFFFFFFFFFFFFFFFF NOT AND EQ PUSH2 0x1320 JUMPI PUSH1 0x40 MLOAD PUSH32 0x8C379A000000000000000000000000000000000000000000000000000000000 DUP2 MSTORE PUSH1 0x4 ADD PUSH2 0x1317 SWAP1 PUSH2 0x248C JUMP JUMPDEST PUSH1 0x40 MLOAD DUP1 SWAP2 SUB SWAP1 REVERT JUMPDEST POP JUMPDEST POP POP POP POP POP POP JUMP JUMPDEST PUSH1 0x0 DUP1 DUP3 PUSH20 0xFFFFFFFFFFFFFFFFFFFFFFFFFFFFFFFFFFFFFFFF AND EXTCODESIZE GT SWAP1 POP SWAP2 SWAP1 POP JUMP JUMPDEST PUSH1 0x0 PUSH1 0x40 MLOAD SWAP1 POP SWAP1 JUMP JUMPDEST PUSH1 0x0 DUP1 REVERT JUMPDEST PUSH1 0x0 DUP1 REVERT JUMPDEST PUSH1 0x0 PUSH20 0xFFFFFFFFFFFFFFFFFFFFFFFFFFFFFFFFFFFFFFFF DUP3 AND SWAP1 POP SWAP2 SWAP1 POP JUMP JUMPDEST PUSH1 0x0 PUSH2 0x138C DUP3 PUSH2 0x1361 JUMP JUMPDEST SWAP1 POP SWAP2 SWAP1 POP JUMP JUMPDEST PUSH2 0x139C DUP2 PUSH2 0x1381 JUMP JUMPDEST DUP2 EQ PUSH2 0x13A7 JUMPI PUSH1 0x0 DUP1 REVERT JUMPDEST POP JUMP JUMPDEST PUSH1 0x0 DUP2 CALLDATALOAD SWAP1 POP PUSH2 0x13B9 DUP2 PUSH2 0x1393 JUMP JUMPDEST SWAP3 SWAP2 POP POP JUMP JUMPDEST PUSH1 0x0 DUP2 SWAP1 POP SWAP2 SWAP1 POP JUMP JUMPDEST PUSH2 0x13D2 DUP2 PUSH2 0x13BF JUMP JUMPDEST DUP2 EQ PUSH2 0x13DD JUMPI PUSH1 0x0 DUP1 REVERT JUMPDEST POP JUMP JUMPDEST PUSH1 0x0 DUP2 CALLDATALOAD SWAP1 POP PUSH2 0x13EF DUP2 PUSH2 0x13C9 JUMP JUMPDEST SWAP3 SWAP2 POP POP JUMP JUMPDEST PUSH1 0x0 DUP1 PUSH1 0x40 DUP4 DUP6 SUB SLT ISZERO PUSH2 0x140C JUMPI PUSH2 0x140B PUSH2 0x1357 JUMP JUMPDEST JUMPDEST PUSH1 0x0 PUSH2 0x141A DUP6 DUP3 DUP7 ADD PUSH2 0x13AA JUMP JUMPDEST SWAP3 POP POP PUSH1 0x20 PUSH2 0x142B DUP6 DUP3 DUP7 ADD PUSH2 0x13E0 JUMP JUMPDEST SWAP2 POP POP SWAP3 POP SWAP3 SWAP1 POP JUMP JUMPDEST PUSH2 0x143E DUP2 PUSH2 0x13BF JUMP JUMPDEST DUP3 MSTORE POP POP JUMP JUMPDEST PUSH1 0x0 PUSH1 0x20 DUP3 ADD SWAP1 POP PUSH2 0x1459 PUSH1 0x0 DUP4 ADD DUP5 PUSH2 0x1435 JUMP JUMPDEST SWAP3 SWAP2 POP POP JUMP JUMPDEST PUSH1 0x0 PUSH32 0xFFFFFFFF00000000000000000000000000000000000000000000000000000000 DUP3 AND SWAP1 POP SWAP2 SWAP1 POP JUMP JUMPDEST PUSH2 0x1494 DUP2 PUSH2 0x145F JUMP JUMPDEST DUP2 EQ PUSH2 0x149F JUMPI PUSH1 0x0 DUP1 REVERT JUMPDEST POP JUMP JUMPDEST PUSH1 0x0 DUP2 CALLDATALOAD SWAP1 POP PUSH2 0x14B1 DUP2 PUSH2 0x148B JUMP JUMPDEST SWAP3 SWAP2 POP POP JUMP JUMPDEST PUSH1 0x0 PUSH1 0x20 DUP3 DUP5 SUB SLT ISZERO PUSH2 0x14CD JUMPI PUSH2 0x14CC PUSH2 0x1357 JUMP JUMPDEST JUMPDEST PUSH1 0x0 PUSH2 0x14DB DUP5 DUP3 DUP6 ADD PUSH2 0x14A2 JUMP JUMPDEST SWAP2 POP POP SWAP3 SWAP2 POP POP JUMP JUMPDEST PUSH1 0x0 DUP2 ISZERO ISZERO SWAP1 POP SWAP2 SWAP1 POP JUMP JUMPDEST PUSH2 0x14F9 DUP2 PUSH2 0x14E4 JUMP JUMPDEST DUP3 MSTORE POP POP JUMP JUMPDEST PUSH1 0x0 PUSH1 0x20 DUP3 ADD SWAP1 POP PUSH2 0x1514 PUSH1 0x0 DUP4 ADD DUP5 PUSH2 0x14F0 JUMP JUMPDEST SWAP3 SWAP2 POP POP JUMP JUMPDEST PUSH1 0x0 PUSH1 0x20 DUP3 DUP5 SUB SLT ISZERO PUSH2 0x1530 JUMPI PUSH2 0x152F PUSH2 0x1357 JUMP JUMPDEST JUMPDEST PUSH1 0x0 PUSH2 0x153E DUP5 DUP3 DUP6 ADD PUSH2 0x13E0 JUMP JUMPDEST SWAP2 POP POP SWAP3 SWAP2 POP POP JUMP JUMPDEST PUSH1 0x0 DUP2 MLOAD SWAP1 POP SWAP2 SWAP1 POP JUMP JUMPDEST PUSH1 0x0 DUP3 DUP3 MSTORE PUSH1 0x20 DUP3 ADD SWAP1 POP SWAP3 SWAP2 POP POP JUMP JUMPDEST PUSH1 0x0 JUMPDEST DUP4 DUP2 LT ISZERO PUSH2 0x1581 JUMPI DUP1 DUP3 ADD MLOAD DUP2 DUP5 ADD MSTORE PUSH1 0x20 DUP2 ADD SWAP1 POP PUSH2 0x1566 JUMP JUMPDEST PUSH1 0x0 DUP5 DUP5 ADD MSTORE POP POP POP POP JUMP JUMPDEST PUSH1 0x0 PUSH1 0x1F NOT PUSH1 0x1F DUP4 ADD AND SWAP1 POP SWAP2 SWAP1 POP JUMP JUMPDEST PUSH1 0x0 PUSH2 0x15A9 DUP3 PUSH2 0x1547 JUMP JUMPDEST PUSH2 0x15B3 DUP2 DUP6 PUSH2 0x1552 JUMP JUMPDEST SWAP4 POP PUSH2 0x15C3 DUP2 DUP6 PUSH1 0x20 DUP7 ADD PUSH2 0x1563 JUMP JUMPDEST PUSH2 0x15CC DUP2 PUSH2 0x158D JUMP JUMPDEST DUP5 ADD SWAP2 POP POP SWAP3 SWAP2 POP POP JUMP JUMPDEST PUSH1 0x0 PUSH1 0x20 DUP3 ADD SWAP1 POP DUP2 DUP2 SUB PUSH1 0x0 DUP4 ADD MSTORE PUSH2 0x15F1 DUP2 DUP5 PUSH2 0x159E JUMP JUMPDEST SWAP1 POP SWAP3 SWAP2 POP POP JUMP JUMPDEST PUSH1 0x0 DUP1 REVERT JUMPDEST PUSH32 0x4E487B7100000000000000000000000000000000000000000000000000000000 PUSH1 0x0 MSTORE PUSH1 0x41 PUSH1 0x4 MSTORE PUSH1 0x24 PUSH1 0x0 REVERT JUMPDEST PUSH2 0x1636 DUP3 PUSH2 0x158D JUMP JUMPDEST DUP2 ADD DUP2 DUP2 LT PUSH8 0xFFFFFFFFFFFFFFFF DUP3 GT OR ISZERO PUSH2 0x1655 JUMPI PUSH2 0x1654 PUSH2 0x15FE JUMP JUMPDEST JUMPDEST DUP1 PUSH1 0x40 MSTORE POP POP POP JUMP JUMPDEST PUSH1 0x0 PUSH2 0x1668 PUSH2 0x134D JUMP JUMPDEST SWAP1 POP PUSH2 0x1674 DUP3 DUP3 PUSH2 0x162D JUMP JUMPDEST SWAP2 SWAP1 POP JUMP JUMPDEST PUSH1 0x0 PUSH8 0xFFFFFFFFFFFFFFFF DUP3 GT ISZERO PUSH2 0x1694 JUMPI PUSH2 0x1693 PUSH2 0x15FE JUMP JUMPDEST JUMPDEST PUSH1 0x20 DUP3 MUL SWAP1 POP PUSH1 0x20 DUP2 ADD SWAP1 POP SWAP2 SWAP1 POP JUMP JUMPDEST PUSH1 0x0 DUP1 REVERT JUMPDEST PUSH1 0x0 PUSH2 0x16BD PUSH2 0x16B8 DUP5 PUSH2 0x1679 JUMP JUMPDEST PUSH2 0x165E JUMP JUMPDEST SWAP1 POP DUP1 DUP4 DUP3 MSTORE PUSH1 0x20 DUP3 ADD SWAP1 POP PUSH1 0x20 DUP5 MUL DUP4 ADD DUP6 DUP2 GT ISZERO PUSH2 0x16E0 JUMPI PUSH2 0x16DF PUSH2 0x16A5 JUMP JUMPDEST JUMPDEST DUP4 JUMPDEST DUP2 DUP2 LT ISZERO PUSH2 0x1709 JUMPI DUP1 PUSH2 0x16F5 DUP9 DUP3 PUSH2 0x13E0 JUMP JUMPDEST DUP5 MSTORE PUSH1 0x20 DUP5 ADD SWAP4 POP POP PUSH1 0x20 DUP2 ADD SWAP1 POP PUSH2 0x16E2 JUMP JUMPDEST POP POP POP SWAP4 SWAP3 POP POP POP JUMP JUMPDEST PUSH1 0x0 DUP3 PUSH1 0x1F DUP4 ADD SLT PUSH2 0x1728 JUMPI PUSH2 0x1727 PUSH2 0x15F9 JUMP JUMPDEST JUMPDEST DUP2 CALLDATALOAD PUSH2 0x1738 DUP5 DUP3 PUSH1 0x20 DUP7 ADD PUSH2 0x16AA JUMP JUMPDEST SWAP2 POP POP SWAP3 SWAP2 POP POP JUMP JUMPDEST PUSH1 0x0 DUP1 REVERT JUMPDEST PUSH1 0x0 PUSH8 0xFFFFFFFFFFFFFFFF DUP3 GT ISZERO PUSH2 0x1761 JUMPI PUSH2 0x1760 PUSH2 0x15FE JUMP JUMPDEST JUMPDEST PUSH2 0x176A DUP3 PUSH2 0x158D JUMP JUMPDEST SWAP1 POP PUSH1 0x20 DUP2 ADD SWAP1 POP SWAP2 SWAP1 POP JUMP JUMPDEST DUP3 DUP2 DUP4 CALLDATACOPY PUSH1 0x0 DUP4 DUP4 ADD MSTORE POP POP POP JUMP JUMPDEST PUSH1 0x0 PUSH2 0x1799 PUSH2 0x1794 DUP5 PUSH2 0x1746 JUMP JUMPDEST PUSH2 0x165E JUMP JUMPDEST SWAP1 POP DUP3 DUP2 MSTORE PUSH1 0x20 DUP2 ADD DUP5 DUP5 DUP5 ADD GT ISZERO PUSH2 0x17B5 JUMPI PUSH2 0x17B4 PUSH2 0x1741 JUMP JUMPDEST JUMPDEST PUSH2 0x17C0 DUP5 DUP3 DUP6 PUSH2 0x1777 JUMP JUMPDEST POP SWAP4 SWAP3 POP POP POP JUMP JUMPDEST PUSH1 0x0 DUP3 PUSH1 0x1F DUP4 ADD SLT PUSH2 0x17DD JUMPI PUSH2 0x17DC PUSH2 0x15F9 JUMP JUMPDEST JUMPDEST DUP2 CALLDATALOAD PUSH2 0x17ED DUP5 DUP3 PUSH1 0x20 DUP7 ADD PUSH2 0x1786 JUMP JUMPDEST SWAP2 POP POP SWAP3 SWAP2 POP POP JUMP JUMPDEST PUSH1 0x0 DUP1 PUSH1 0x0 DUP1 PUSH1 0x0 PUSH1 0xA0 DUP7 DUP9 SUB SLT ISZERO PUSH2 0x1812 JUMPI PUSH2 0x1811 PUSH2 0x1357 JUMP JUMPDEST JUMPDEST PUSH1 0x0 PUSH2 0x1820 DUP9 DUP3 DUP10 ADD PUSH2 0x13AA JUMP JUMPDEST SWAP6 POP POP PUSH1 0x20 PUSH2 0x1831 DUP9 DUP3 DUP10 ADD PUSH2 0x13AA JUMP JUMPDEST SWAP5 POP POP PUSH1 0x40 DUP7 ADD CALLDATALOAD PUSH8 0xFFFFFFFFFFFFFFFF DUP2 GT ISZERO PUSH2 0x1852 JUMPI PUSH2 0x1851 PUSH2 0x135C JUMP JUMPDEST JUMPDEST PUSH2 0x185E DUP9 DUP3 DUP10 ADD PUSH2 0x1713 JUMP JUMPDEST SWAP4 POP POP PUSH1 0x60 DUP7 ADD CALLDATALOAD PUSH8 0xFFFFFFFFFFFFFFFF DUP2 GT ISZERO PUSH2 0x187F JUMPI PUSH2 0x187E PUSH2 0x135C JUMP JUMPDEST JUMPDEST PUSH2 0x188B DUP9 DUP3 DUP10 ADD PUSH2 0x1713 JUMP JUMPDEST SWAP3 POP POP PUSH1 0x80 DUP7 ADD CALLDATALOAD PUSH8 0xFFFFFFFFFFFFFFFF DUP2 GT ISZERO PUSH2 0x18AC JUMPI PUSH2 0x18AB PUSH2 0x135C JUMP JUMPDEST JUMPDEST PUSH2 0x18B8 DUP9 DUP3 DUP10 ADD PUSH2 0x17C8 JUMP JUMPDEST SWAP2 POP POP SWAP3 SWAP6 POP SWAP3 SWAP6 SWAP1 SWAP4 POP JUMP JUMPDEST PUSH1 0x0 PUSH8 0xFFFFFFFFFFFFFFFF DUP3 GT ISZERO PUSH2 0x18E0 JUMPI PUSH2 0x18DF PUSH2 0x15FE JUMP JUMPDEST JUMPDEST PUSH1 0x20 DUP3 MUL SWAP1 POP PUSH1 0x20 DUP2 ADD SWAP1 POP SWAP2 SWAP1 POP JUMP JUMPDEST PUSH1 0x0 PUSH2 0x1904 PUSH2 0x18FF DUP5 PUSH2 0x18C5 JUMP JUMPDEST PUSH2 0x165E JUMP JUMPDEST SWAP1 POP DUP1 DUP4 DUP3 MSTORE PUSH1 0x20 DUP3 ADD SWAP1 POP PUSH1 0x20 DUP5 MUL DUP4 ADD DUP6 DUP2 GT ISZERO PUSH2 0x1927 JUMPI PUSH2 0x1926 PUSH2 0x16A5 JUMP JUMPDEST JUMPDEST DUP4 JUMPDEST DUP2 DUP2 LT ISZERO PUSH2 0x1950 JUMPI DUP1 PUSH2 0x193C DUP9 DUP3 PUSH2 0x13AA JUMP JUMPDEST DUP5 MSTORE PUSH1 0x20 DUP5 ADD SWAP4 POP POP PUSH1 0x20 DUP2 ADD SWAP1 POP PUSH2 0x1929 JUMP JUMPDEST POP POP POP SWAP4 SWAP3 POP POP POP JUMP JUMPDEST PUSH1 0x0 DUP3 PUSH1 0x1F DUP4 ADD SLT PUSH2 0x196F JUMPI PUSH2 0x196E PUSH2 0x15F9 JUMP JUMPDEST JUMPDEST DUP2 CALLDATALOAD PUSH2 0x197F DUP5 DUP3 PUSH1 0x20 DUP7 ADD PUSH2 0x18F1 JUMP JUMPDEST SWAP2 POP POP SWAP3 SWAP2 POP POP JUMP JUMPDEST PUSH1 0x0 DUP1 PUSH1 0x40 DUP4 DUP6 SUB SLT ISZERO PUSH2 0x199F JUMPI PUSH2 0x199E PUSH2 0x1357 JUMP JUMPDEST JUMPDEST PUSH1 0x0 DUP4 ADD CALLDATALOAD PUSH8 0xFFFFFFFFFFFFFFFF DUP2 GT ISZERO PUSH2 0x19BD JUMPI PUSH2 0x19BC PUSH2 0x135C JUMP JUMPDEST JUMPDEST PUSH2 0x19C9 DUP6 DUP3 DUP7 ADD PUSH2 0x195A JUMP JUMPDEST SWAP3 POP POP PUSH1 0x20 DUP4 ADD CALLDATALOAD PUSH8 0xFFFFFFFFFFFFFFFF DUP2 GT ISZERO PUSH2 0x19EA JUMPI PUSH2 0x19E9 PUSH2 0x135C JUMP JUMPDEST JUMPDEST PUSH2 0x19F6 DUP6 DUP3 DUP7 ADD PUSH2 0x1713 JUMP JUMPDEST SWAP2 POP POP SWAP3 POP SWAP3 SWAP1 POP JUMP JUMPDEST PUSH1 0x0 DUP2 MLOAD SWAP1 POP SWAP2 SWAP1 POP JUMP JUMPDEST PUSH1 0x0 DUP3 DUP3 MSTORE PUSH1 0x20 DUP3 ADD SWAP1 POP SWAP3 SWAP2 POP POP JUMP JUMPDEST PUSH1 0x0 DUP2 SWAP1 POP PUSH1 0x20 DUP3 ADD SWAP1 POP SWAP2 SWAP1 POP JUMP JUMPDEST PUSH2 0x1A35 DUP2 PUSH2 0x13BF JUMP JUMPDEST DUP3 MSTORE POP POP JUMP JUMPDEST PUSH1 0x0 PUSH2 0x1A47 DUP4 DUP4 PUSH2 0x1A2C JUMP JUMPDEST PUSH1 0x20 DUP4 ADD SWAP1 POP SWAP3 SWAP2 POP POP JUMP JUMPDEST PUSH1 0x0 PUSH1 0x20 DUP3 ADD SWAP1 POP SWAP2 SWAP1 POP JUMP JUMPDEST PUSH1 0x0 PUSH2 0x1A6B DUP3 PUSH2 0x1A00 JUMP JUMPDEST PUSH2 0x1A75 DUP2 DUP6 PUSH2 0x1A0B JUMP JUMPDEST SWAP4 POP PUSH2 0x1A80 DUP4 PUSH2 0x1A1C JUMP JUMPDEST DUP1 PUSH1 0x0 JUMPDEST DUP4 DUP2 LT ISZERO PUSH2 0x1AB1 JUMPI DUP2 MLOAD PUSH2 0x1A98 DUP9 DUP3 PUSH2 0x1A3B JUMP JUMPDEST SWAP8 POP PUSH2 0x1AA3 DUP4 PUSH2 0x1A53 JUMP JUMPDEST SWAP3 POP POP PUSH1 0x1 DUP2 ADD SWAP1 POP PUSH2 0x1A84 JUMP JUMPDEST POP DUP6 SWAP4 POP POP POP POP SWAP3 SWAP2 POP POP JUMP JUMPDEST PUSH1 0x0 PUSH1 0x20 DUP3 ADD SWAP1 POP DUP2 DUP2 SUB PUSH1 0x0 DUP4 ADD MSTORE PUSH2 0x1AD8 DUP2 DUP5 PUSH2 0x1A60 JUMP JUMPDEST SWAP1 POP SWAP3 SWAP2 POP POP JUMP JUMPDEST PUSH2 0x1AE9 DUP2 PUSH2 0x14E4 JUMP JUMPDEST DUP2 EQ PUSH2 0x1AF4 JUMPI PUSH1 0x0 DUP1 REVERT JUMPDEST POP JUMP JUMPDEST PUSH1 0x0 DUP2 CALLDATALOAD SWAP1 POP PUSH2 0x1B06 DUP2 PUSH2 0x1AE0 JUMP JUMPDEST SWAP3 SWAP2 POP POP JUMP JUMPDEST PUSH1 0x0 DUP1 PUSH1 0x40 DUP4 DUP6 SUB SLT ISZERO PUSH2 0x1B23 JUMPI PUSH2 0x1B22 PUSH2 0x1357 JUMP JUMPDEST JUMPDEST PUSH1 0x0 PUSH2 0x1B31 DUP6 DUP3 DUP7 ADD PUSH2 0x13AA JUMP JUMPDEST SWAP3 POP POP PUSH1 0x20 PUSH2 0x1B42 DUP6 DUP3 DUP7 ADD PUSH2 0x1AF7 JUMP JUMPDEST SWAP2 POP POP SWAP3 POP SWAP3 SWAP1 POP JUMP JUMPDEST PUSH1 0x0 DUP1 PUSH1 0x40 DUP4 DUP6 SUB SLT ISZERO PUSH2 0x1B63 JUMPI PUSH2 0x1B62 PUSH2 0x1357 JUMP JUMPDEST JUMPDEST PUSH1 0x0 PUSH2 0x1B71 DUP6 DUP3 DUP7 ADD PUSH2 0x13AA JUMP JUMPDEST SWAP3 POP POP PUSH1 0x20 PUSH2 0x1B82 DUP6 DUP3 DUP7 ADD PUSH2 0x13AA JUMP JUMPDEST SWAP2 POP POP SWAP3 POP SWAP3 SWAP1 POP JUMP JUMPDEST PUSH1 0x0 DUP1 PUSH1 0x0 DUP1 PUSH1 0x0 PUSH1 0xA0 DUP7 DUP9 SUB SLT ISZERO PUSH2 0x1BA8 JUMPI PUSH2 0x1BA7 PUSH2 0x1357 JUMP JUMPDEST JUMPDEST PUSH1 0x0 PUSH2 0x1BB6 DUP9 DUP3 DUP10 ADD PUSH2 0x13AA JUMP JUMPDEST SWAP6 POP POP PUSH1 0x20 PUSH2 0x1BC7 DUP9 DUP3 DUP10 ADD PUSH2 0x13AA JUMP JUMPDEST SWAP5 POP POP PUSH1 0x40 PUSH2 0x1BD8 DUP9 DUP3 DUP10 ADD PUSH2 0x13E0 JUMP JUMPDEST SWAP4 POP POP PUSH1 0x60 PUSH2 0x1BE9 DUP9 DUP3 DUP10 ADD PUSH2 0x13E0 JUMP JUMPDEST SWAP3 POP POP PUSH1 0x80 DUP7 ADD CALLDATALOAD PUSH8 0xFFFFFFFFFFFFFFFF DUP2 GT ISZERO PUSH2 0x1C0A JUMPI PUSH2 0x1C09 PUSH2 0x135C JUMP JUMPDEST JUMPDEST PUSH2 0x1C16 DUP9 DUP3 DUP10 ADD PUSH2 0x17C8 JUMP JUMPDEST SWAP2 POP POP SWAP3 SWAP6 POP SWAP3 SWAP6 SWAP1 SWAP4 POP JUMP JUMPDEST PUSH32 0x455243313135353A2061646472657373207A65726F206973206E6F7420612076 PUSH1 0x0 DUP3 ADD MSTORE PUSH32 0x616C6964206F776E657200000000000000000000000000000000000000000000 PUSH1 0x20 DUP3 ADD MSTORE POP JUMP JUMPDEST PUSH1 0x0 PUSH2 0x1C7F PUSH1 0x2A DUP4 PUSH2 0x1552 JUMP JUMPDEST SWAP2 POP PUSH2 0x1C8A DUP3 PUSH2 0x1C23 JUMP JUMPDEST PUSH1 0x40 DUP3 ADD SWAP1 POP SWAP2 SWAP1 POP JUMP JUMPDEST PUSH1 0x0 PUSH1 0x20 DUP3 ADD SWAP1 POP DUP2 DUP2 SUB PUSH1 0x0 DUP4 ADD MSTORE PUSH2 0x1CAE DUP2 PUSH2 0x1C72 JUMP JUMPDEST SWAP1 POP SWAP2 SWAP1 POP JUMP JUMPDEST PUSH32 0x4E487B7100000000000000000000000000000000000000000000000000000000 PUSH1 0x0 MSTORE PUSH1 0x22 PUSH1 0x4 MSTORE PUSH1 0x24 PUSH1 0x0 REVERT JUMPDEST PUSH1 0x0 PUSH1 0x2 DUP3 DIV SWAP1 POP PUSH1 0x1 DUP3 AND DUP1 PUSH2 0x1CFC JUMPI PUSH1 0x7F DUP3 AND SWAP2 POP JUMPDEST PUSH1 0x20 DUP3 LT DUP2 SUB PUSH2 0x1D0F JUMPI PUSH2 0x1D0E PUSH2 0x1CB5 JUMP JUMPDEST JUMPDEST POP SWAP2 SWAP1 POP JUMP JUMPDEST PUSH32 0x455243313135353A2063616C6C6572206973206E6F7420746F6B656E206F776E PUSH1 0x0 DUP3 ADD MSTORE PUSH32 0x6572206F7220617070726F766564000000000000000000000000000000000000 PUSH1 0x20 DUP3 ADD MSTORE POP JUMP JUMPDEST PUSH1 0x0 PUSH2 0x1D71 PUSH1 0x2E DUP4 PUSH2 0x1552 JUMP JUMPDEST SWAP2 POP PUSH2 0x1D7C DUP3 PUSH2 0x1D15 JUMP JUMPDEST PUSH1 0x40 DUP3 ADD SWAP1 POP SWAP2 SWAP1 POP JUMP JUMPDEST PUSH1 0x0 PUSH1 0x20 DUP3 ADD SWAP1 POP DUP2 DUP2 SUB PUSH1 0x0 DUP4 ADD MSTORE PUSH2 0x1DA0 DUP2 PUSH2 0x1D64 JUMP JUMPDEST SWAP1 POP SWAP2 SWAP1 POP JUMP JUMPDEST PUSH32 0x455243313135353A206163636F756E747320616E6420696473206C656E677468 PUSH1 0x0 DUP3 ADD MSTORE PUSH32 0x206D69736D617463680000000000000000000000000000000000000000000000 PUSH1 0x20 DUP3 ADD MSTORE POP JUMP JUMPDEST PUSH1 0x0 PUSH2 0x1E03 PUSH1 0x29 DUP4 PUSH2 0x1552 JUMP JUMPDEST SWAP2 POP PUSH2 0x1E0E DUP3 PUSH2 0x1DA7 JUMP JUMPDEST PUSH1 0x40 DUP3 ADD SWAP1 POP SWAP2 SWAP1 POP JUMP JUMPDEST PUSH1 0x0 PUSH1 0x20 DUP3 ADD SWAP1 POP DUP2 DUP2 SUB PUSH1 0x0 DUP4 ADD MSTORE PUSH2 0x1E32 DUP2 PUSH2 0x1DF6 JUMP JUMPDEST SWAP1 POP SWAP2 SWAP1 POP JUMP JUMPDEST PUSH32 0x4E487B7100000000000000000000000000000000000000000000000000000000 PUSH1 0x0 MSTORE PUSH1 0x32 PUSH1 0x4 MSTORE PUSH1 0x24 PUSH1 0x0 REVERT JUMPDEST PUSH32 0x4E487B7100000000000000000000000000000000000000000000000000000000 PUSH1 0x0 MSTORE PUSH1 0x11 PUSH1 0x4 MSTORE PUSH1 0x24 PUSH1 0x0 REVERT JUMPDEST PUSH1 0x0 PUSH2 0x1EA2 DUP3 PUSH2 0x13BF JUMP JUMPDEST SWAP2 POP PUSH32 0xFFFFFFFFFFFFFFFFFFFFFFFFFFFFFFFFFFFFFFFFFFFFFFFFFFFFFFFFFFFFFFFF DUP3 SUB PUSH2 0x1ED4 JUMPI PUSH2 0x1ED3 PUSH2 0x1E68 JUMP JUMPDEST JUMPDEST PUSH1 0x1 DUP3 ADD SWAP1 POP SWAP2 SWAP1 POP JUMP JUMPDEST PUSH32 0x455243313135353A2069647320616E6420616D6F756E7473206C656E67746820 PUSH1 0x0 DUP3 ADD MSTORE PUSH32 0x6D69736D61746368000000000000000000000000000000000000000000000000 PUSH1 0x20 DUP3 ADD MSTORE POP JUMP JUMPDEST PUSH1 0x0 PUSH2 0x1F3B PUSH1 0x28 DUP4 PUSH2 0x1552 JUMP JUMPDEST SWAP2 POP PUSH2 0x1F46 DUP3 PUSH2 0x1EDF JUMP JUMPDEST PUSH1 0x40 DUP3 ADD SWAP1 POP SWAP2 SWAP1 POP JUMP JUMPDEST PUSH1 0x0 PUSH1 0x20 DUP3 ADD SWAP1 POP DUP2 DUP2 SUB PUSH1 0x0 DUP4 ADD MSTORE PUSH2 0x1F6A DUP2 PUSH2 0x1F2E JUMP JUMPDEST SWAP1 POP SWAP2 SWAP1 POP JUMP JUMPDEST PUSH32 0x455243313135353A207472616E7366657220746F20746865207A65726F206164 PUSH1 0x0 DUP3 ADD MSTORE PUSH32 0x6472657373000000000000000000000000000000000000000000000000000000 PUSH1 0x20 DUP3 ADD MSTORE POP JUMP JUMPDEST PUSH1 0x0 PUSH2 0x1FCD PUSH1 0x25 DUP4 PUSH2 0x1552 JUMP JUMPDEST SWAP2 POP PUSH2 0x1FD8 DUP3 PUSH2 0x1F71 JUMP JUMPDEST PUSH1 0x40 DUP3 ADD SWAP1 POP SWAP2 SWAP1 POP JUMP JUMPDEST PUSH1 0x0 PUSH1 0x20 DUP3 ADD SWAP1 POP DUP2 DUP2 SUB PUSH1 0x0 DUP4 ADD MSTORE PUSH2 0x1FFC DUP2 PUSH2 0x1FC0 JUMP JUMPDEST SWAP1 POP SWAP2 SWAP1 POP JUMP JUMPDEST PUSH32 0x455243313135353A20696E73756666696369656E742062616C616E636520666F PUSH1 0x0 DUP3 ADD MSTORE PUSH32 0x72207472616E7366657200000000000000000000000000000000000000000000 PUSH1 0x20 DUP3 ADD MSTORE POP JUMP JUMPDEST PUSH1 0x0 PUSH2 0x205F PUSH1 0x2A DUP4 PUSH2 0x1552 JUMP JUMPDEST SWAP2 POP PUSH2 0x206A DUP3 PUSH2 0x2003 JUMP JUMPDEST PUSH1 0x40 DUP3 ADD SWAP1 POP SWAP2 SWAP1 POP JUMP JUMPDEST PUSH1 0x0 PUSH1 0x20 DUP3 ADD SWAP1 POP DUP2 DUP2 SUB PUSH1 0x0 DUP4 ADD MSTORE PUSH2 0x208E DUP2 PUSH2 0x2052 JUMP JUMPDEST SWAP1 POP SWAP2 SWAP1 POP JUMP JUMPDEST PUSH1 0x0 PUSH2 0x20A0 DUP3 PUSH2 0x13BF JUMP JUMPDEST SWAP2 POP PUSH2 0x20AB DUP4 PUSH2 0x13BF JUMP JUMPDEST SWAP3 POP DUP3 DUP3 ADD SWAP1 POP DUP1 DUP3 GT ISZERO PUSH2 0x20C3 JUMPI PUSH2 0x20C2 PUSH2 0x1E68 JUMP JUMPDEST JUMPDEST SWAP3 SWAP2 POP POP JUMP JUMPDEST PUSH1 0x0 PUSH1 0x40 DUP3 ADD SWAP1 POP DUP2 DUP2 SUB PUSH1 0x0 DUP4 ADD MSTORE PUSH2 0x20E3 DUP2 DUP6 PUSH2 0x1A60 JUMP JUMPDEST SWAP1 POP DUP2 DUP2 SUB PUSH1 0x20 DUP4 ADD MSTORE PUSH2 0x20F7 DUP2 DUP5 PUSH2 0x1A60 JUMP JUMPDEST SWAP1 POP SWAP4 SWAP3 POP POP POP JUMP JUMPDEST PUSH32 0x455243313135353A2073657474696E6720617070726F76616C20737461747573 PUSH1 0x0 DUP3 ADD MSTORE PUSH32 0x20666F722073656C660000000000000000000000000000000000000000000000 PUSH1 0x20 DUP3 ADD MSTORE POP JUMP JUMPDEST PUSH1 0x0 PUSH2 0x215C PUSH1 0x29 DUP4 PUSH2 0x1552 JUMP JUMPDEST SWAP2 POP PUSH2 0x2167 DUP3 PUSH2 0x2100 JUMP JUMPDEST PUSH1 0x40 DUP3 ADD SWAP1 POP SWAP2 SWAP1 POP JUMP JUMPDEST PUSH1 0x0 PUSH1 0x20 DUP3 ADD SWAP1 POP DUP2 DUP2 SUB PUSH1 0x0 DUP4 ADD MSTORE PUSH2 0x218B DUP2 PUSH2 0x214F JUMP JUMPDEST SWAP1 POP SWAP2 SWAP1 POP JUMP JUMPDEST PUSH1 0x0 PUSH1 0x40 DUP3 ADD SWAP1 POP PUSH2 0x21A7 PUSH1 0x0 DUP4 ADD DUP6 PUSH2 0x1435 JUMP JUMPDEST PUSH2 0x21B4 PUSH1 0x20 DUP4 ADD DUP5 PUSH2 0x1435 JUMP JUMPDEST SWAP4 SWAP3 POP POP POP JUMP JUMPDEST PUSH2 0x21C4 DUP2 PUSH2 0x1381 JUMP JUMPDEST DUP3 MSTORE POP POP JUMP JUMPDEST PUSH1 0x0 DUP2 MLOAD SWAP1 POP SWAP2 SWAP1 POP JUMP JUMPDEST PUSH1 0x0 DUP3 DUP3 MSTORE PUSH1 0x20 DUP3 ADD SWAP1 POP SWAP3 SWAP2 POP POP JUMP JUMPDEST PUSH1 0x0 PUSH2 0x21F1 DUP3 PUSH2 0x21CA JUMP JUMPDEST PUSH2 0x21FB DUP2 DUP6 PUSH2 0x21D5 JUMP JUMPDEST SWAP4 POP PUSH2 0x220B DUP2 DUP6 PUSH1 0x20 DUP7 ADD PUSH2 0x1563 JUMP JUMPDEST PUSH2 0x2214 DUP2 PUSH2 0x158D JUMP JUMPDEST DUP5 ADD SWAP2 POP POP SWAP3 SWAP2 POP POP JUMP JUMPDEST PUSH1 0x0 PUSH1 0xA0 DUP3 ADD SWAP1 POP PUSH2 0x2234 PUSH1 0x0 DUP4 ADD DUP9 PUSH2 0x21BB JUMP JUMPDEST PUSH2 0x2241 PUSH1 0x20 DUP4 ADD DUP8 PUSH2 0x21BB JUMP JUMPDEST DUP2 DUP2 SUB PUSH1 0x40 DUP4 ADD MSTORE PUSH2 0x2253 DUP2 DUP7 PUSH2 0x1A60 JUMP JUMPDEST SWAP1 POP DUP2 DUP2 SUB PUSH1 0x60 DUP4 ADD MSTORE PUSH2 0x2267 DUP2 DUP6 PUSH2 0x1A60 JUMP JUMPDEST SWAP1 POP DUP2 DUP2 SUB PUSH1 0x80 DUP4 ADD MSTORE PUSH2 0x227B DUP2 DUP5 PUSH2 0x21E6 JUMP JUMPDEST SWAP1 POP SWAP7 SWAP6 POP POP POP POP POP POP JUMP JUMPDEST PUSH1 0x0 DUP2 MLOAD SWAP1 POP PUSH2 0x2296 DUP2 PUSH2 0x148B JUMP JUMPDEST SWAP3 SWAP2 POP POP JUMP JUMPDEST PUSH1 0x0 PUSH1 0x20 DUP3 DUP5 SUB SLT ISZERO PUSH2 0x22B2 JUMPI PUSH2 0x22B1 PUSH2 0x1357 JUMP JUMPDEST JUMPDEST PUSH1 0x0 PUSH2 0x22C0 DUP5 DUP3 DUP6 ADD PUSH2 0x2287 JUMP JUMPDEST SWAP2 POP POP SWAP3 SWAP2 POP POP JUMP JUMPDEST PUSH1 0x0 DUP2 PUSH1 0xE0 SHR SWAP1 POP SWAP2 SWAP1 POP JUMP JUMPDEST PUSH1 0x0 PUSH1 0x3 RETURNDATASIZE GT ISZERO PUSH2 0x22F5 JUMPI PUSH1 0x4 PUSH1 0x0 DUP1 RETURNDATACOPY PUSH2 0x22F2 PUSH1 0x0 MLOAD PUSH2 0x22C9 JUMP JUMPDEST SWAP1 POP JUMPDEST SWAP1 JUMP JUMPDEST PUSH1 0x0 PUSH1 0x44 RETURNDATASIZE LT PUSH2 0x2385 JUMPI PUSH2 0x230A PUSH2 0x134D JUMP JUMPDEST PUSH1 0x4 RETURNDATASIZE SUB PUSH1 0x4 DUP3 RETURNDATACOPY DUP1 MLOAD RETURNDATASIZE PUSH1 0x24 DUP3 ADD GT PUSH8 0xFFFFFFFFFFFFFFFF DUP3 GT OR ISZERO PUSH2 0x2332 JUMPI POP POP PUSH2 0x2385 JUMP JUMPDEST DUP1 DUP3 ADD DUP1 MLOAD PUSH8 0xFFFFFFFFFFFFFFFF DUP2 GT ISZERO PUSH2 0x2350 JUMPI POP POP POP POP PUSH2 0x2385 JUMP JUMPDEST DUP1 PUSH1 0x20 DUP4 ADD ADD PUSH1 0x4 RETURNDATASIZE SUB DUP6 ADD DUP2 GT ISZERO PUSH2 0x236D JUMPI POP POP POP POP POP PUSH2 0x2385 JUMP JUMPDEST PUSH2 0x237C DUP3 PUSH1 0x20 ADD DUP6 ADD DUP7 PUSH2 0x162D JUMP JUMPDEST DUP3 SWAP6 POP POP POP POP POP POP JUMPDEST SWAP1 JUMP JUMPDEST PUSH32 0x455243313135353A207472616E7366657220746F206E6F6E2D45524331313535 PUSH1 0x0 DUP3 ADD MSTORE PUSH32 0x526563656976657220696D706C656D656E746572000000000000000000000000 PUSH1 0x20 DUP3 ADD MSTORE POP JUMP JUMPDEST PUSH1 0x0 PUSH2 0x23E4 PUSH1 0x34 DUP4 PUSH2 0x1552 JUMP JUMPDEST SWAP2 POP PUSH2 0x23EF DUP3 PUSH2 0x2388 JUMP JUMPDEST PUSH1 0x40 DUP3 ADD SWAP1 POP SWAP2 SWAP1 POP JUMP JUMPDEST PUSH1 0x0 PUSH1 0x20 DUP3 ADD SWAP1 POP DUP2 DUP2 SUB PUSH1 0x0 DUP4 ADD MSTORE PUSH2 0x2413 DUP2 PUSH2 0x23D7 JUMP JUMPDEST SWAP1 POP SWAP2 SWAP1 POP JUMP JUMPDEST PUSH32 0x455243313135353A204552433131353552656365697665722072656A65637465 PUSH1 0x0 DUP3 ADD MSTORE PUSH32 0x6420746F6B656E73000000000000000000000000000000000000000000000000 PUSH1 0x20 DUP3 ADD MSTORE POP JUMP JUMPDEST PUSH1 0x0 PUSH2 0x2476 PUSH1 0x28 DUP4 PUSH2 0x1552 JUMP JUMPDEST SWAP2 POP PUSH2 0x2481 DUP3 PUSH2 0x241A JUMP JUMPDEST PUSH1 0x40 DUP3 ADD SWAP1 POP SWAP2 SWAP1 POP JUMP JUMPDEST PUSH1 0x0 PUSH1 0x20 DUP3 ADD SWAP1 POP DUP2 DUP2 SUB PUSH1 0x0 DUP4 ADD MSTORE PUSH2 0x24A5 DUP2 PUSH2 0x2469 JUMP JUMPDEST SWAP1 POP SWAP2 SWAP1 POP JUMP JUMPDEST PUSH1 0x0 PUSH1 0xA0 DUP3 ADD SWAP1 POP PUSH2 0x24C1 PUSH1 0x0 DUP4 ADD DUP9 PUSH2 0x21BB JUMP JUMPDEST PUSH2 0x24CE PUSH1 0x20 DUP4 ADD DUP8 PUSH2 0x21BB JUMP JUMPDEST PUSH2 0x24DB PUSH1 0x40 DUP4 ADD DUP7 PUSH2 0x1435 JUMP JUMPDEST PUSH2 0x24E8 PUSH1 0x60 DUP4 ADD DUP6 PUSH2 0x1435 JUMP JUMPDEST DUP2 DUP2 SUB PUSH1 0x80 DUP4 ADD MSTORE PUSH2 0x24FA DUP2 DUP5 PUSH2 0x21E6 JUMP JUMPDEST SWAP1 POP SWAP7 SWAP6 POP POP POP POP POP POP JUMP INVALID LOG2 PUSH5 0x6970667358 0x22 SLT KECCAK256 TIMESTAMP MSTORE 0xAE 0xD4 0x4B 0xB6 0xB3 0xBD PUSH14 0x2EB5715B1A4FDD139AAFBC74F82E SLT MULMOD SSTORE 0x5C 0x2A PUSH9 0x474B8564736F6C6343 STOP ADDMOD GT STOP CALLER "
				},
				"gasEstimates": {
					"creation": {
						"codeDepositCost": "1906400",
						"executionCost": "infinite",
						"totalCost": "infinite"
					},
					"external": {
						"balanceOf(address,uint256)": "infinite",
						"balanceOfBatch(address[],uint256[])": "infinite",
						"isApprovedForAll(address,address)": "infinite",
						"safeBatchTransferFrom(address,address,uint256[],uint256[],bytes)": "infinite",
						"safeTransferFrom(address,address,uint256,uint256,bytes)": "infinite",
						"setApprovalForAll(address,bool)": "infinite",
						"supportsInterface(bytes4)": "796",
						"totalSupply(uint256)": "infinite",
						"uri(uint256)": "infinite"
					},
					"internal": {
						"_afterTokenTransfer(address,address,address,uint256[] memory,uint256[] memory,bytes memory)": "21",
						"_asSingletonArray(uint256)": "infinite",
						"_beforeTokenTransfer(address,address,address,uint256[] memory,uint256[] memory,bytes memory)": "21",
						"_burn(address,uint256,uint256)": "infinite",
						"_burnBatch(address,uint256[] memory,uint256[] memory)": "infinite",
						"_doSafeBatchTransferAcceptanceCheck(address,address,address,uint256[] memory,uint256[] memory,bytes memory)": "infinite",
						"_doSafeTransferAcceptanceCheck(address,address,address,uint256,uint256,bytes memory)": "infinite",
						"_mint(address,uint256,uint256,bytes memory)": "infinite",
						"_mintBatch(address,uint256[] memory,uint256[] memory,bytes memory)": "infinite",
						"_safeBatchTransferFrom(address,address,uint256[] memory,uint256[] memory,bytes memory)": "infinite",
						"_safeTransferFrom(address,address,uint256,uint256,bytes memory)": "infinite",
						"_setApprovalForAll(address,address,bool)": "infinite",
						"_setURI(string memory)": "infinite"
					}
				},
				"methodIdentifiers": {
					"balanceOf(address,uint256)": "00fdd58e",
					"balanceOfBatch(address[],uint256[])": "4e1273f4",
					"isApprovedForAll(address,address)": "e985e9c5",
					"safeBatchTransferFrom(address,address,uint256[],uint256[],bytes)": "2eb2c2d6",
					"safeTransferFrom(address,address,uint256,uint256,bytes)": "f242432a",
					"setApprovalForAll(address,bool)": "a22cb465",
					"supportsInterface(bytes4)": "01ffc9a7",
					"totalSupply(uint256)": "bd85b039",
					"uri(uint256)": "0e89341c"
				}
			},
			"storageLayout": {
				"storage": [
					{
						"astId": 378,
						"contract": "Arevea-NFT-Market/NFT-Contracts/newmultinft/ERC1155.sol:ERC1155",
						"label": "_balances",
						"offset": 0,
						"slot": "0",
						"type": "t_mapping(t_uint256,t_mapping(t_address,t_uint256))"
					},
					{
						"astId": 384,
						"contract": "Arevea-NFT-Market/NFT-Contracts/newmultinft/ERC1155.sol:ERC1155",
						"label": "_operatorApprovals",
						"offset": 0,
						"slot": "1",
						"type": "t_mapping(t_address,t_mapping(t_address,t_bool))"
					},
					{
						"astId": 386,
						"contract": "Arevea-NFT-Market/NFT-Contracts/newmultinft/ERC1155.sol:ERC1155",
						"label": "_uri",
						"offset": 0,
						"slot": "2",
						"type": "t_string_storage"
					},
					{
						"astId": 913,
						"contract": "Arevea-NFT-Market/NFT-Contracts/newmultinft/ERC1155.sol:ERC1155",
						"label": "creators",
						"offset": 0,
						"slot": "3",
						"type": "t_mapping(t_uint256,t_address)"
					},
					{
						"astId": 916,
						"contract": "Arevea-NFT-Market/NFT-Contracts/newmultinft/ERC1155.sol:ERC1155",
						"label": "_tokenOwners",
						"offset": 0,
						"slot": "4",
						"type": "t_struct(UintToAddressMap)2076_storage"
					}
				],
				"types": {
					"t_address": {
						"encoding": "inplace",
						"label": "address",
						"numberOfBytes": "20"
					},
					"t_array(t_bytes32)dyn_storage": {
						"base": "t_bytes32",
						"encoding": "dynamic_array",
						"label": "bytes32[]",
						"numberOfBytes": "32"
					},
					"t_bool": {
						"encoding": "inplace",
						"label": "bool",
						"numberOfBytes": "1"
					},
					"t_bytes32": {
						"encoding": "inplace",
						"label": "bytes32",
						"numberOfBytes": "32"
					},
					"t_mapping(t_address,t_bool)": {
						"encoding": "mapping",
						"key": "t_address",
						"label": "mapping(address => bool)",
						"numberOfBytes": "32",
						"value": "t_bool"
					},
					"t_mapping(t_address,t_mapping(t_address,t_bool))": {
						"encoding": "mapping",
						"key": "t_address",
						"label": "mapping(address => mapping(address => bool))",
						"numberOfBytes": "32",
						"value": "t_mapping(t_address,t_bool)"
					},
					"t_mapping(t_address,t_uint256)": {
						"encoding": "mapping",
						"key": "t_address",
						"label": "mapping(address => uint256)",
						"numberOfBytes": "32",
						"value": "t_uint256"
					},
					"t_mapping(t_bytes32,t_bytes32)": {
						"encoding": "mapping",
						"key": "t_bytes32",
						"label": "mapping(bytes32 => bytes32)",
						"numberOfBytes": "32",
						"value": "t_bytes32"
					},
					"t_mapping(t_bytes32,t_uint256)": {
						"encoding": "mapping",
						"key": "t_bytes32",
						"label": "mapping(bytes32 => uint256)",
						"numberOfBytes": "32",
						"value": "t_uint256"
					},
					"t_mapping(t_uint256,t_address)": {
						"encoding": "mapping",
						"key": "t_uint256",
						"label": "mapping(uint256 => address)",
						"numberOfBytes": "32",
						"value": "t_address"
					},
					"t_mapping(t_uint256,t_mapping(t_address,t_uint256))": {
						"encoding": "mapping",
						"key": "t_uint256",
						"label": "mapping(uint256 => mapping(address => uint256))",
						"numberOfBytes": "32",
						"value": "t_mapping(t_address,t_uint256)"
					},
					"t_string_storage": {
						"encoding": "bytes",
						"label": "string",
						"numberOfBytes": "32"
					},
					"t_struct(Bytes32Set)2950_storage": {
						"encoding": "inplace",
						"label": "struct EnumerableSet.Bytes32Set",
						"members": [
							{
								"astId": 2949,
								"contract": "Arevea-NFT-Market/NFT-Contracts/newmultinft/ERC1155.sol:ERC1155",
								"label": "_inner",
								"offset": 0,
								"slot": "0",
								"type": "t_struct(Set)2756_storage"
							}
						],
						"numberOfBytes": "64"
					},
					"t_struct(Bytes32ToBytes32Map)1639_storage": {
						"encoding": "inplace",
						"label": "struct EnumerableMap.Bytes32ToBytes32Map",
						"members": [
							{
								"astId": 1634,
								"contract": "Arevea-NFT-Market/NFT-Contracts/newmultinft/ERC1155.sol:ERC1155",
								"label": "_keys",
								"offset": 0,
								"slot": "0",
								"type": "t_struct(Bytes32Set)2950_storage"
							},
							{
								"astId": 1638,
								"contract": "Arevea-NFT-Market/NFT-Contracts/newmultinft/ERC1155.sol:ERC1155",
								"label": "_values",
								"offset": 0,
								"slot": "2",
								"type": "t_mapping(t_bytes32,t_bytes32)"
							}
						],
						"numberOfBytes": "96"
					},
					"t_struct(Set)2756_storage": {
						"encoding": "inplace",
						"label": "struct EnumerableSet.Set",
						"members": [
							{
								"astId": 2751,
								"contract": "Arevea-NFT-Market/NFT-Contracts/newmultinft/ERC1155.sol:ERC1155",
								"label": "_values",
								"offset": 0,
								"slot": "0",
								"type": "t_array(t_bytes32)dyn_storage"
							},
							{
								"astId": 2755,
								"contract": "Arevea-NFT-Market/NFT-Contracts/newmultinft/ERC1155.sol:ERC1155",
								"label": "_indexes",
								"offset": 0,
								"slot": "1",
								"type": "t_mapping(t_bytes32,t_uint256)"
							}
						],
						"numberOfBytes": "64"
					},
					"t_struct(UintToAddressMap)2076_storage": {
						"encoding": "inplace",
						"label": "struct EnumerableMap.UintToAddressMap",
						"members": [
							{
								"astId": 2075,
								"contract": "Arevea-NFT-Market/NFT-Contracts/newmultinft/ERC1155.sol:ERC1155",
								"label": "_inner",
								"offset": 0,
								"slot": "0",
								"type": "t_struct(Bytes32ToBytes32Map)1639_storage"
							}
						],
						"numberOfBytes": "96"
					},
					"t_uint256": {
						"encoding": "inplace",
						"label": "uint256",
						"numberOfBytes": "32"
					}
				}
			},
			"userdoc": {
				"kind": "user",
				"methods": {},
				"version": 1
			}
		}
	}
}