{
	"Arevea-NFT-Market/NFT-Contracts/contracts/ERC1155.sol": {
		"ERC1155": {
			"abi": [
				{
					"inputs": [
						{
							"internalType": "string",
							"name": "name_",
							"type": "string"
						},
						{
							"internalType": "string",
							"name": "symbol_",
							"type": "string"
						}
					],
					"stateMutability": "nonpayable",
					"type": "constructor"
				},
				{
					"anonymous": false,
					"inputs": [
						{
							"indexed": true,
							"internalType": "address",
							"name": "account",
							"type": "address"
						},
						{
							"indexed": true,
							"internalType": "address",
							"name": "operator",
							"type": "address"
						},
						{
							"indexed": false,
							"internalType": "bool",
							"name": "approved",
							"type": "bool"
						}
					],
					"name": "ApprovalForAll",
					"type": "event"
				},
				{
					"anonymous": false,
					"inputs": [
						{
							"indexed": true,
							"internalType": "address",
							"name": "operator",
							"type": "address"
						},
						{
							"indexed": true,
							"internalType": "address",
							"name": "from",
							"type": "address"
						},
						{
							"indexed": true,
							"internalType": "address",
							"name": "to",
							"type": "address"
						},
						{
							"indexed": false,
							"internalType": "uint256[]",
							"name": "ids",
							"type": "uint256[]"
						},
						{
							"indexed": false,
							"internalType": "uint256[]",
							"name": "values",
							"type": "uint256[]"
						}
					],
					"name": "TransferBatch",
					"type": "event"
				},
				{
					"anonymous": false,
					"inputs": [
						{
							"indexed": true,
							"internalType": "address",
							"name": "operator",
							"type": "address"
						},
						{
							"indexed": true,
							"internalType": "address",
							"name": "from",
							"type": "address"
						},
						{
							"indexed": true,
							"internalType": "address",
							"name": "to",
							"type": "address"
						},
						{
							"indexed": false,
							"internalType": "uint256",
							"name": "id",
							"type": "uint256"
						},
						{
							"indexed": false,
							"internalType": "uint256",
							"name": "value",
							"type": "uint256"
						}
					],
					"name": "TransferSingle",
					"type": "event"
				},
				{
					"anonymous": false,
					"inputs": [
						{
							"indexed": false,
							"internalType": "string",
							"name": "value",
							"type": "string"
						},
						{
							"indexed": true,
							"internalType": "uint256",
							"name": "id",
							"type": "uint256"
						}
					],
					"name": "URI",
					"type": "event"
				},
				{
					"anonymous": false,
					"inputs": [
						{
							"indexed": false,
							"internalType": "string",
							"name": "value",
							"type": "string"
						}
					],
					"name": "tokenBaseURI",
					"type": "event"
				},
				{
					"inputs": [
						{
							"internalType": "address",
							"name": "account",
							"type": "address"
						},
						{
							"internalType": "uint256",
							"name": "tokenId",
							"type": "uint256"
						}
					],
					"name": "balanceOf",
					"outputs": [
						{
							"internalType": "uint256",
							"name": "",
							"type": "uint256"
						}
					],
					"stateMutability": "view",
					"type": "function"
				},
				{
					"inputs": [
						{
							"internalType": "address[]",
							"name": "accounts",
							"type": "address[]"
						},
						{
							"internalType": "uint256[]",
							"name": "ids",
							"type": "uint256[]"
						}
					],
					"name": "balanceOfBatch",
					"outputs": [
						{
							"internalType": "uint256[]",
							"name": "",
							"type": "uint256[]"
						}
					],
					"stateMutability": "view",
					"type": "function"
				},
				{
					"inputs": [
						{
							"internalType": "uint256",
							"name": "tokenId",
							"type": "uint256"
						}
					],
					"name": "getCreator",
					"outputs": [
						{
							"internalType": "address",
							"name": "",
							"type": "address"
						}
					],
					"stateMutability": "view",
					"type": "function"
				},
				{
					"inputs": [
						{
							"internalType": "address",
							"name": "account",
							"type": "address"
						},
						{
							"internalType": "address",
							"name": "operator",
							"type": "address"
						}
					],
					"name": "isApprovedForAll",
					"outputs": [
						{
							"internalType": "bool",
							"name": "",
							"type": "bool"
						}
					],
					"stateMutability": "view",
					"type": "function"
				},
				{
					"inputs": [],
					"name": "name",
					"outputs": [
						{
							"internalType": "string",
							"name": "",
							"type": "string"
						}
					],
					"stateMutability": "view",
					"type": "function"
				},
				{
					"inputs": [
						{
							"internalType": "uint256",
							"name": "tokenId",
							"type": "uint256"
						}
					],
					"name": "ownerOf",
					"outputs": [
						{
							"internalType": "address",
							"name": "",
							"type": "address"
						}
					],
					"stateMutability": "view",
					"type": "function"
				},
				{
					"inputs": [
						{
							"internalType": "uint256",
							"name": "tokenId",
							"type": "uint256"
						}
					],
					"name": "royaltyFee",
					"outputs": [
						{
							"internalType": "uint256",
							"name": "",
							"type": "uint256"
						}
					],
					"stateMutability": "view",
					"type": "function"
				},
				{
					"inputs": [
						{
							"internalType": "address",
							"name": "from",
							"type": "address"
						},
						{
							"internalType": "address",
							"name": "to",
							"type": "address"
						},
						{
							"internalType": "uint256[]",
							"name": "tokenIds",
							"type": "uint256[]"
						},
						{
							"internalType": "uint256[]",
							"name": "amounts",
							"type": "uint256[]"
						},
						{
							"internalType": "bytes",
							"name": "data",
							"type": "bytes"
						}
					],
					"name": "safeBatchTransferFrom",
					"outputs": [],
					"stateMutability": "nonpayable",
					"type": "function"
				},
				{
					"inputs": [
						{
							"internalType": "address",
							"name": "from",
							"type": "address"
						},
						{
							"internalType": "address",
							"name": "to",
							"type": "address"
						},
						{
							"internalType": "uint256",
							"name": "tokenId",
							"type": "uint256"
						},
						{
							"internalType": "uint256",
							"name": "amount",
							"type": "uint256"
						},
						{
							"internalType": "bytes",
							"name": "data",
							"type": "bytes"
						}
					],
					"name": "safeTransferFrom",
					"outputs": [],
					"stateMutability": "nonpayable",
					"type": "function"
				},
				{
					"inputs": [
						{
							"internalType": "address",
							"name": "operator",
							"type": "address"
						},
						{
							"internalType": "bool",
							"name": "approved",
							"type": "bool"
						}
					],
					"name": "setApprovalForAll",
					"outputs": [],
					"stateMutability": "nonpayable",
					"type": "function"
				},
				{
					"inputs": [
						{
							"internalType": "bytes4",
							"name": "interfaceId",
							"type": "bytes4"
						}
					],
					"name": "supportsInterface",
					"outputs": [
						{
							"internalType": "bool",
							"name": "",
							"type": "bool"
						}
					],
					"stateMutability": "view",
					"type": "function"
				},
				{
					"inputs": [],
					"name": "symbol",
					"outputs": [
						{
							"internalType": "string",
							"name": "",
							"type": "string"
						}
					],
					"stateMutability": "view",
					"type": "function"
				},
				{
					"inputs": [
						{
							"internalType": "uint256",
							"name": "tokenId",
							"type": "uint256"
						}
					],
					"name": "tokenURI",
					"outputs": [
						{
							"internalType": "string",
							"name": "",
							"type": "string"
						}
					],
					"stateMutability": "view",
					"type": "function"
				},
				{
					"inputs": [],
					"name": "tokenURIPrefix",
					"outputs": [
						{
							"internalType": "string",
							"name": "",
							"type": "string"
						}
					],
					"stateMutability": "view",
					"type": "function"
				},
				{
					"inputs": [],
					"name": "totalSupply",
					"outputs": [
						{
							"internalType": "uint256",
							"name": "",
							"type": "uint256"
						}
					],
					"stateMutability": "view",
					"type": "function"
				}
			],
			"devdoc": {
				"kind": "dev",
				"methods": {
					"balanceOf(address,uint256)": {
						"params": {
							"account": "The address of the token holder",
							"tokenId": "ID of the Token"
						},
						"returns": {
							"_0": "The owner's balance of the Token type requested"
						}
					},
					"balanceOfBatch(address[],uint256[])": {
						"params": {
							"accounts": "The addresses of the token holders",
							"ids": "ID of the Tokens"
						},
						"returns": {
							"_0": "The _owner's balance of the Token types requested (i.e. balance for each (owner, id) pair)"
						}
					},
					"getCreator(uint256)": {
						"params": {
							"tokenId": "ID of the Token."
						},
						"returns": {
							"_0": "creator of given ID."
						}
					},
					"isApprovedForAll(address,address)": {
						"params": {
							"account": "The owner of the Tokens",
							"operator": "Address of authorized operator"
						},
						"returns": {
							"_0": "True if the operator is approved, false if not"
						}
					},
					"royaltyFee(uint256)": {
						"params": {
							"tokenId": "ID of the Token."
						},
						"returns": {
							"_0": "royaltyFee of given ID."
						}
					},
					"safeBatchTransferFrom(address,address,uint256[],uint256[],bytes)": {
						"details": "Caller must be approved to manage the tokens being transferred out of the `_from` account (see \"Approval\" section of the standard). MUST revert if `_to` is the zero address. MUST revert if length of `_ids` is not the same as length of `_values`. MUST revert if any of the balance(s) of the holder(s) for token(s) in `_ids` is lower than the respective amount(s) in `_values` sent to the recipient. MUST revert on any other error. MUST emit `TransferSingle` or `TransferBatch` event(s) such that all the balance changes are reflected (see \"Safe Transfer Rules\" section of the standard). Balance changes and events MUST follow the ordering of the arrays (_ids[0]/_values[0] before _ids[1]/_values[1], etc). After the above conditions for the transfer(s) in the batch are met, this function MUST check if `_to` is a smart contract (e.g. code size > 0). If so, it MUST call the relevant `ERC1155TokenReceiver` hook(s) on `_to` and act appropriately (see \"Safe Transfer Rules\" section of the standard).",
						"params": {
							"amounts": "Transfer amounts per token type (order and length must match _ids array)",
							"data": "Additional data with no specified format, MUST be sent unaltered in call to the `ERC1155TokenReceiver` hook(s) on `_to`",
							"from": "Source address",
							"to": "Target address",
							"tokenIds": "IDs of each token type (order and length must match _values array)"
						}
					},
					"safeTransferFrom(address,address,uint256,uint256,bytes)": {
						"details": "Caller must be approved to manage the tokens being transferred out of the `_from` account (see \"Approval\" section of the standard). MUST revert if `_to` is the zero address. MUST revert if balance of holder for token `_id` is lower than the `_value` sent. MUST revert on any other error. MUST emit the `TransferSingle` event to reflect the balance change (see \"Safe Transfer Rules\" section of the standard). After the above conditions are met, this function MUST check if `_to` is a smart contract (e.g. code size > 0). If so, it MUST call `onERC1155Received` on `_to` and act appropriately (see \"Safe Transfer Rules\" section of the standard).",
						"params": {
							"amount": "Transfer amount",
							"data": "Additional data with no specified format, MUST be sent unaltered in call to `onERC1155Received` on `_to`",
							"from": "Source address",
							"to": "Target address",
							"tokenId": "ID of the token type"
						}
					},
					"setApprovalForAll(address,bool)": {
						"details": "MUST emit the ApprovalForAll event on success.",
						"params": {
							"approved": "True if the operator is approved, false to revoke approval",
							"operator": "Address to add to the set of authorized operators"
						}
					},
					"supportsInterface(bytes4)": {
						"details": "Returns true if this contract implements the interface defined by `interfaceId`. See the corresponding https://eips.ethereum.org/EIPS/eip-165#how-interfaces-are-identified[EIP section] to learn more about how these ids are created. This function call must use less than 30 000 gas."
					},
					"tokenURI(uint256)": {
						"details": "Returns an URI for a given token ID. Throws if the token ID does not exist. May return an empty string.",
						"params": {
							"tokenId": "uint256 ID of the token to query"
						}
					}
				},
				"version": 1
			},
			"evm": {
				"assembly": "    /* \"Arevea-NFT-Market/NFT-Contracts/contracts/ERC1155.sol\":448:18248  contract ERC1155 is Context, ERC165,IERC1155{\r... */\n  mstore(0x40, 0x80)\n    /* \"Arevea-NFT-Market/NFT-Contracts/contracts/ERC1155.sol\":1023:1056  string public tokenURIPrefix = \"\" */\n  mload(0x40)\n  dup1\n  0x20\n  add\n  0x40\n  mstore\n  dup1\n  0x00\n  dup2\n  mstore\n  pop\n  0x05\n  swap1\n  dup1\n  mload\n  swap1\n  0x20\n  add\n  swap1\n  tag_1\n  swap3\n  swap2\n  swap1\n  tag_2\n  jump\t// in\ntag_1:\n  pop\n    /* \"Arevea-NFT-Market/NFT-Contracts/contracts/ERC1155.sol\":1426:1662  constructor (string memory name_, string memory symbol_) {\r... */\n  callvalue\n  dup1\n  iszero\n  tag_3\n  jumpi\n  0x00\n  dup1\n  revert\ntag_3:\n  pop\n  mload(0x40)\n  sub(codesize, bytecodeSize)\n  dup1\n  bytecodeSize\n  dup4\n  codecopy\n  dup2\n  dup2\n  add\n  0x40\n  mstore\n  dup2\n  add\n  swap1\n  tag_4\n  swap2\n  swap1\n  tag_5\n  jump\t// in\ntag_4:\n    /* \"Arevea-NFT-Market/NFT-Contracts/contracts/External/ERC165.sol\":337:377  _registerInterface(_INTERFACE_ID_ERC165) */\n  tag_9\n    /* \"Arevea-NFT-Market/NFT-Contracts/contracts/External/ERC165.sol\":231:241  0x01ffc9a7 */\n  0x01ffc9a7\n    /* \"Arevea-NFT-Market/NFT-Contracts/contracts/External/ERC165.sol\":356:376  _INTERFACE_ID_ERC165 */\n  0xe0\n  shl\n    /* \"Arevea-NFT-Market/NFT-Contracts/contracts/External/ERC165.sol\":337:355  _registerInterface */\n  shl(0x20, tag_10)\n    /* \"Arevea-NFT-Market/NFT-Contracts/contracts/External/ERC165.sol\":337:377  _registerInterface(_INTERFACE_ID_ERC165) */\n  0x20\n  shr\n  jump\t// in\ntag_9:\n    /* \"Arevea-NFT-Market/NFT-Contracts/contracts/ERC1155.sol\":1502:1507  name_ */\n  dup2\n    /* \"Arevea-NFT-Market/NFT-Contracts/contracts/ERC1155.sol\":1494:1499  _name */\n  0x09\n    /* \"Arevea-NFT-Market/NFT-Contracts/contracts/ERC1155.sol\":1494:1507  _name = name_ */\n  swap1\n  dup1\n  mload\n  swap1\n  0x20\n  add\n  swap1\n  tag_12\n  swap3\n  swap2\n  swap1\n  tag_2\n  jump\t// in\ntag_12:\n  pop\n    /* \"Arevea-NFT-Market/NFT-Contracts/contracts/ERC1155.sol\":1528:1535  symbol_ */\n  dup1\n    /* \"Arevea-NFT-Market/NFT-Contracts/contracts/ERC1155.sol\":1518:1525  _symbol */\n  0x0a\n    /* \"Arevea-NFT-Market/NFT-Contracts/contracts/ERC1155.sol\":1518:1535  _symbol = symbol_ */\n  swap1\n  dup1\n  mload\n  swap1\n  0x20\n  add\n  swap1\n  tag_13\n  swap3\n  swap2\n  swap1\n  tag_2\n  jump\t// in\ntag_13:\n  pop\n    /* \"Arevea-NFT-Market/NFT-Contracts/contracts/ERC1155.sol\":1548:1589  _registerInterface(_INTERFACE_ID_ERC1155) */\n  tag_14\n    /* \"Arevea-NFT-Market/NFT-Contracts/contracts/ERC1155.sol\":1327:1337  0xd9b67a26 */\n  0xd9b67a26\n    /* \"Arevea-NFT-Market/NFT-Contracts/contracts/ERC1155.sol\":1567:1588  _INTERFACE_ID_ERC1155 */\n  0xe0\n  shl\n    /* \"Arevea-NFT-Market/NFT-Contracts/contracts/ERC1155.sol\":1548:1566  _registerInterface */\n  shl(0x20, tag_10)\n    /* \"Arevea-NFT-Market/NFT-Contracts/contracts/ERC1155.sol\":1548:1589  _registerInterface(_INTERFACE_ID_ERC1155) */\n  0x20\n  shr\n  jump\t// in\ntag_14:\n    /* \"Arevea-NFT-Market/NFT-Contracts/contracts/ERC1155.sol\":1600:1654  _registerInterface(_INTERFACE_ID_ERC1155_METADATA_URI) */\n  tag_15\n    /* \"Arevea-NFT-Market/NFT-Contracts/contracts/ERC1155.sol\":1407:1417  0x0e89341c */\n  0x0e89341c\n    /* \"Arevea-NFT-Market/NFT-Contracts/contracts/ERC1155.sol\":1619:1653  _INTERFACE_ID_ERC1155_METADATA_URI */\n  0xe0\n  shl\n    /* \"Arevea-NFT-Market/NFT-Contracts/contracts/ERC1155.sol\":1600:1618  _registerInterface */\n  shl(0x20, tag_10)\n    /* \"Arevea-NFT-Market/NFT-Contracts/contracts/ERC1155.sol\":1600:1654  _registerInterface(_INTERFACE_ID_ERC1155_METADATA_URI) */\n  0x20\n  shr\n  jump\t// in\ntag_15:\n    /* \"Arevea-NFT-Market/NFT-Contracts/contracts/ERC1155.sol\":1426:1662  constructor (string memory name_, string memory symbol_) {\r... */\n  pop\n  pop\n    /* \"Arevea-NFT-Market/NFT-Contracts/contracts/ERC1155.sol\":448:18248  contract ERC1155 is Context, ERC165,IERC1155{\r... */\n  jump(tag_16)\n    /* \"Arevea-NFT-Market/NFT-Contracts/contracts/External/ERC165.sol\":553:754  function _registerInterface(bytes4 interfaceId) internal virtual {\r... */\ntag_10:\n    /* \"Arevea-NFT-Market/NFT-Contracts/contracts/External/ERC165.sol\":652:662  0xffffffff */\n  0xffffffff\n    /* \"Arevea-NFT-Market/NFT-Contracts/contracts/External/ERC165.sol\":637:662  interfaceId != 0xffffffff */\n  0xe0\n  shl\n    /* \"Arevea-NFT-Market/NFT-Contracts/contracts/External/ERC165.sol\":637:648  interfaceId */\n  dup2\n    /* \"Arevea-NFT-Market/NFT-Contracts/contracts/External/ERC165.sol\":637:662  interfaceId != 0xffffffff */\n  not(0xffffffffffffffffffffffffffffffffffffffffffffffffffffffff)\n  and\n  eq\n  iszero\n    /* \"Arevea-NFT-Market/NFT-Contracts/contracts/External/ERC165.sol\":629:695  require(interfaceId != 0xffffffff, \"ERC165: invalid interface id\") */\n  tag_18\n  jumpi\n  mload(0x40)\n  0x08c379a000000000000000000000000000000000000000000000000000000000\n  dup2\n  mstore\n  0x04\n  add\n  tag_19\n  swap1\n  tag_20\n  jump\t// in\ntag_19:\n  mload(0x40)\n  dup1\n  swap2\n  sub\n  swap1\n  revert\ntag_18:\n    /* \"Arevea-NFT-Market/NFT-Contracts/contracts/External/ERC165.sol\":742:746  true */\n  0x01\n    /* \"Arevea-NFT-Market/NFT-Contracts/contracts/External/ERC165.sol\":706:726  _supportedInterfaces */\n  0x00\n    /* \"Arevea-NFT-Market/NFT-Contracts/contracts/External/ERC165.sol\":706:739  _supportedInterfaces[interfaceId] */\n  dup1\n    /* \"Arevea-NFT-Market/NFT-Contracts/contracts/External/ERC165.sol\":727:738  interfaceId */\n  dup4\n    /* \"Arevea-NFT-Market/NFT-Contracts/contracts/External/ERC165.sol\":706:739  _supportedInterfaces[interfaceId] */\n  not(0xffffffffffffffffffffffffffffffffffffffffffffffffffffffff)\n  and\n  not(0xffffffffffffffffffffffffffffffffffffffffffffffffffffffff)\n  and\n  dup2\n  mstore\n  0x20\n  add\n  swap1\n  dup2\n  mstore\n  0x20\n  add\n  0x00\n  keccak256\n  0x00\n    /* \"Arevea-NFT-Market/NFT-Contracts/contracts/External/ERC165.sol\":706:746  _supportedInterfaces[interfaceId] = true */\n  0x0100\n  exp\n  dup2\n  sload\n  dup2\n  0xff\n  mul\n  not\n  and\n  swap1\n  dup4\n  iszero\n  iszero\n  mul\n  or\n  swap1\n  sstore\n  pop\n    /* \"Arevea-NFT-Market/NFT-Contracts/contracts/External/ERC165.sol\":553:754  function _registerInterface(bytes4 interfaceId) internal virtual {\r... */\n  pop\n  jump\t// out\n    /* \"Arevea-NFT-Market/NFT-Contracts/contracts/ERC1155.sol\":448:18248  contract ERC1155 is Context, ERC165,IERC1155{\r... */\ntag_2:\n  dup3\n  dup1\n  sload\n  tag_21\n  swap1\n  tag_22\n  jump\t// in\ntag_21:\n  swap1\n  0x00\n  mstore\n  keccak256(0x00, 0x20)\n  swap1\n  0x1f\n  add\n  0x20\n  swap1\n  div\n  dup2\n  add\n  swap3\n  dup3\n  tag_24\n  jumpi\n  0x00\n  dup6\n  sstore\n  jump(tag_23)\ntag_24:\n  dup3\n  0x1f\n  lt\n  tag_25\n  jumpi\n  dup1\n  mload\n  not(0xff)\n  and\n  dup4\n  dup1\n  add\n  or\n  dup6\n  sstore\n  jump(tag_23)\ntag_25:\n  dup3\n  dup1\n  add\n  0x01\n  add\n  dup6\n  sstore\n  dup3\n  iszero\n  tag_23\n  jumpi\n  swap2\n  dup3\n  add\ntag_26:\n  dup3\n  dup2\n  gt\n  iszero\n  tag_27\n  jumpi\n  dup3\n  mload\n  dup3\n  sstore\n  swap2\n  0x20\n  add\n  swap2\n  swap1\n  0x01\n  add\n  swap1\n  jump(tag_26)\ntag_27:\ntag_23:\n  pop\n  swap1\n  pop\n  tag_28\n  swap2\n  swap1\n  tag_29\n  jump\t// in\ntag_28:\n  pop\n  swap1\n  jump\t// out\ntag_29:\ntag_30:\n  dup1\n  dup3\n  gt\n  iszero\n  tag_31\n  jumpi\n  0x00\n  dup2\n  0x00\n  swap1\n  sstore\n  pop\n  0x01\n  add\n  jump(tag_30)\ntag_31:\n  pop\n  swap1\n  jump\t// out\n    /* \"#utility.yul\":7:428   */\ntag_33:\n    /* \"#utility.yul\":96:101   */\n  0x00\n    /* \"#utility.yul\":121:187   */\n  tag_35\n    /* \"#utility.yul\":137:186   */\n  tag_36\n    /* \"#utility.yul\":179:185   */\n  dup5\n    /* \"#utility.yul\":137:186   */\n  tag_37\n  jump\t// in\ntag_36:\n    /* \"#utility.yul\":121:187   */\n  tag_38\n  jump\t// in\ntag_35:\n    /* \"#utility.yul\":112:187   */\n  swap1\n  pop\n    /* \"#utility.yul\":210:216   */\n  dup3\n    /* \"#utility.yul\":203:208   */\n  dup2\n    /* \"#utility.yul\":196:217   */\n  mstore\n    /* \"#utility.yul\":248:252   */\n  0x20\n    /* \"#utility.yul\":241:246   */\n  dup2\n    /* \"#utility.yul\":237:253   */\n  add\n    /* \"#utility.yul\":286:289   */\n  dup5\n    /* \"#utility.yul\":277:283   */\n  dup5\n    /* \"#utility.yul\":272:275   */\n  dup5\n    /* \"#utility.yul\":268:284   */\n  add\n    /* \"#utility.yul\":265:290   */\n  gt\n    /* \"#utility.yul\":262:374   */\n  iszero\n  tag_39\n  jumpi\n    /* \"#utility.yul\":293:372   */\n  tag_40\n  tag_41\n  jump\t// in\ntag_40:\n    /* \"#utility.yul\":262:374   */\ntag_39:\n    /* \"#utility.yul\":383:422   */\n  tag_42\n    /* \"#utility.yul\":415:421   */\n  dup5\n    /* \"#utility.yul\":410:413   */\n  dup3\n    /* \"#utility.yul\":405:408   */\n  dup6\n    /* \"#utility.yul\":383:422   */\n  tag_43\n  jump\t// in\ntag_42:\n    /* \"#utility.yul\":102:428   */\n  pop\n    /* \"#utility.yul\":7:428   */\n  swap4\n  swap3\n  pop\n  pop\n  pop\n  jump\t// out\n    /* \"#utility.yul\":448:803   */\ntag_44:\n    /* \"#utility.yul\":515:520   */\n  0x00\n    /* \"#utility.yul\":564:567   */\n  dup3\n    /* \"#utility.yul\":557:561   */\n  0x1f\n    /* \"#utility.yul\":549:555   */\n  dup4\n    /* \"#utility.yul\":545:562   */\n  add\n    /* \"#utility.yul\":541:568   */\n  slt\n    /* \"#utility.yul\":531:653   */\n  tag_46\n  jumpi\n    /* \"#utility.yul\":572:651   */\n  tag_47\n  tag_48\n  jump\t// in\ntag_47:\n    /* \"#utility.yul\":531:653   */\ntag_46:\n    /* \"#utility.yul\":682:688   */\n  dup2\n    /* \"#utility.yul\":676:689   */\n  mload\n    /* \"#utility.yul\":707:797   */\n  tag_49\n    /* \"#utility.yul\":793:796   */\n  dup5\n    /* \"#utility.yul\":785:791   */\n  dup3\n    /* \"#utility.yul\":778:782   */\n  0x20\n    /* \"#utility.yul\":770:776   */\n  dup7\n    /* \"#utility.yul\":766:783   */\n  add\n    /* \"#utility.yul\":707:797   */\n  tag_33\n  jump\t// in\ntag_49:\n    /* \"#utility.yul\":698:797   */\n  swap2\n  pop\n    /* \"#utility.yul\":521:803   */\n  pop\n    /* \"#utility.yul\":448:803   */\n  swap3\n  swap2\n  pop\n  pop\n  jump\t// out\n    /* \"#utility.yul\":809:1662   */\ntag_5:\n    /* \"#utility.yul\":908:914   */\n  0x00\n    /* \"#utility.yul\":916:922   */\n  dup1\n    /* \"#utility.yul\":965:967   */\n  0x40\n    /* \"#utility.yul\":953:962   */\n  dup4\n    /* \"#utility.yul\":944:951   */\n  dup6\n    /* \"#utility.yul\":940:963   */\n  sub\n    /* \"#utility.yul\":936:968   */\n  slt\n    /* \"#utility.yul\":933:1052   */\n  iszero\n  tag_51\n  jumpi\n    /* \"#utility.yul\":971:1050   */\n  tag_52\n  tag_53\n  jump\t// in\ntag_52:\n    /* \"#utility.yul\":933:1052   */\ntag_51:\n    /* \"#utility.yul\":1112:1113   */\n  0x00\n    /* \"#utility.yul\":1101:1110   */\n  dup4\n    /* \"#utility.yul\":1097:1114   */\n  add\n    /* \"#utility.yul\":1091:1115   */\n  mload\n    /* \"#utility.yul\":1142:1160   */\n  0xffffffffffffffff\n    /* \"#utility.yul\":1134:1140   */\n  dup2\n    /* \"#utility.yul\":1131:1161   */\n  gt\n    /* \"#utility.yul\":1128:1245   */\n  iszero\n  tag_54\n  jumpi\n    /* \"#utility.yul\":1164:1243   */\n  tag_55\n  tag_56\n  jump\t// in\ntag_55:\n    /* \"#utility.yul\":1128:1245   */\ntag_54:\n    /* \"#utility.yul\":1269:1343   */\n  tag_57\n    /* \"#utility.yul\":1335:1342   */\n  dup6\n    /* \"#utility.yul\":1326:1332   */\n  dup3\n    /* \"#utility.yul\":1315:1324   */\n  dup7\n    /* \"#utility.yul\":1311:1333   */\n  add\n    /* \"#utility.yul\":1269:1343   */\n  tag_44\n  jump\t// in\ntag_57:\n    /* \"#utility.yul\":1259:1343   */\n  swap3\n  pop\n    /* \"#utility.yul\":1062:1353   */\n  pop\n    /* \"#utility.yul\":1413:1415   */\n  0x20\n    /* \"#utility.yul\":1402:1411   */\n  dup4\n    /* \"#utility.yul\":1398:1416   */\n  add\n    /* \"#utility.yul\":1392:1417   */\n  mload\n    /* \"#utility.yul\":1444:1462   */\n  0xffffffffffffffff\n    /* \"#utility.yul\":1436:1442   */\n  dup2\n    /* \"#utility.yul\":1433:1463   */\n  gt\n    /* \"#utility.yul\":1430:1547   */\n  iszero\n  tag_58\n  jumpi\n    /* \"#utility.yul\":1466:1545   */\n  tag_59\n  tag_56\n  jump\t// in\ntag_59:\n    /* \"#utility.yul\":1430:1547   */\ntag_58:\n    /* \"#utility.yul\":1571:1645   */\n  tag_60\n    /* \"#utility.yul\":1637:1644   */\n  dup6\n    /* \"#utility.yul\":1628:1634   */\n  dup3\n    /* \"#utility.yul\":1617:1626   */\n  dup7\n    /* \"#utility.yul\":1613:1635   */\n  add\n    /* \"#utility.yul\":1571:1645   */\n  tag_44\n  jump\t// in\ntag_60:\n    /* \"#utility.yul\":1561:1645   */\n  swap2\n  pop\n    /* \"#utility.yul\":1363:1655   */\n  pop\n    /* \"#utility.yul\":809:1662   */\n  swap3\n  pop\n  swap3\n  swap1\n  pop\n  jump\t// out\n    /* \"#utility.yul\":1668:2034   */\ntag_61:\n    /* \"#utility.yul\":1810:1813   */\n  0x00\n    /* \"#utility.yul\":1831:1898   */\n  tag_63\n    /* \"#utility.yul\":1895:1897   */\n  0x1c\n    /* \"#utility.yul\":1890:1893   */\n  dup4\n    /* \"#utility.yul\":1831:1898   */\n  tag_64\n  jump\t// in\ntag_63:\n    /* \"#utility.yul\":1824:1898   */\n  swap2\n  pop\n    /* \"#utility.yul\":1907:2000   */\n  tag_65\n    /* \"#utility.yul\":1996:1999   */\n  dup3\n    /* \"#utility.yul\":1907:2000   */\n  tag_66\n  jump\t// in\ntag_65:\n    /* \"#utility.yul\":2025:2027   */\n  0x20\n    /* \"#utility.yul\":2020:2023   */\n  dup3\n    /* \"#utility.yul\":2016:2028   */\n  add\n    /* \"#utility.yul\":2009:2028   */\n  swap1\n  pop\n    /* \"#utility.yul\":1668:2034   */\n  swap2\n  swap1\n  pop\n  jump\t// out\n    /* \"#utility.yul\":2040:2459   */\ntag_20:\n    /* \"#utility.yul\":2206:2210   */\n  0x00\n    /* \"#utility.yul\":2244:2246   */\n  0x20\n    /* \"#utility.yul\":2233:2242   */\n  dup3\n    /* \"#utility.yul\":2229:2247   */\n  add\n    /* \"#utility.yul\":2221:2247   */\n  swap1\n  pop\n    /* \"#utility.yul\":2293:2302   */\n  dup2\n    /* \"#utility.yul\":2287:2291   */\n  dup2\n    /* \"#utility.yul\":2283:2303   */\n  sub\n    /* \"#utility.yul\":2279:2280   */\n  0x00\n    /* \"#utility.yul\":2268:2277   */\n  dup4\n    /* \"#utility.yul\":2264:2281   */\n  add\n    /* \"#utility.yul\":2257:2304   */\n  mstore\n    /* \"#utility.yul\":2321:2452   */\n  tag_68\n    /* \"#utility.yul\":2447:2451   */\n  dup2\n    /* \"#utility.yul\":2321:2452   */\n  tag_61\n  jump\t// in\ntag_68:\n    /* \"#utility.yul\":2313:2452   */\n  swap1\n  pop\n    /* \"#utility.yul\":2040:2459   */\n  swap2\n  swap1\n  pop\n  jump\t// out\n    /* \"#utility.yul\":2465:2594   */\ntag_38:\n    /* \"#utility.yul\":2499:2505   */\n  0x00\n    /* \"#utility.yul\":2526:2546   */\n  tag_70\n  tag_71\n  jump\t// in\ntag_70:\n    /* \"#utility.yul\":2516:2546   */\n  swap1\n  pop\n    /* \"#utility.yul\":2555:2588   */\n  tag_72\n    /* \"#utility.yul\":2583:2587   */\n  dup3\n    /* \"#utility.yul\":2575:2581   */\n  dup3\n    /* \"#utility.yul\":2555:2588   */\n  tag_73\n  jump\t// in\ntag_72:\n    /* \"#utility.yul\":2465:2594   */\n  swap2\n  swap1\n  pop\n  jump\t// out\n    /* \"#utility.yul\":2600:2675   */\ntag_71:\n    /* \"#utility.yul\":2633:2639   */\n  0x00\n    /* \"#utility.yul\":2666:2668   */\n  0x40\n    /* \"#utility.yul\":2660:2669   */\n  mload\n    /* \"#utility.yul\":2650:2669   */\n  swap1\n  pop\n    /* \"#utility.yul\":2600:2675   */\n  swap1\n  jump\t// out\n    /* \"#utility.yul\":2681:2989   */\ntag_37:\n    /* \"#utility.yul\":2743:2747   */\n  0x00\n    /* \"#utility.yul\":2833:2851   */\n  0xffffffffffffffff\n    /* \"#utility.yul\":2825:2831   */\n  dup3\n    /* \"#utility.yul\":2822:2852   */\n  gt\n    /* \"#utility.yul\":2819:2875   */\n  iszero\n  tag_76\n  jumpi\n    /* \"#utility.yul\":2855:2873   */\n  tag_77\n  tag_78\n  jump\t// in\ntag_77:\n    /* \"#utility.yul\":2819:2875   */\ntag_76:\n    /* \"#utility.yul\":2893:2922   */\n  tag_79\n    /* \"#utility.yul\":2915:2921   */\n  dup3\n    /* \"#utility.yul\":2893:2922   */\n  tag_80\n  jump\t// in\ntag_79:\n    /* \"#utility.yul\":2885:2922   */\n  swap1\n  pop\n    /* \"#utility.yul\":2977:2981   */\n  0x20\n    /* \"#utility.yul\":2971:2975   */\n  dup2\n    /* \"#utility.yul\":2967:2982   */\n  add\n    /* \"#utility.yul\":2959:2982   */\n  swap1\n  pop\n    /* \"#utility.yul\":2681:2989   */\n  swap2\n  swap1\n  pop\n  jump\t// out\n    /* \"#utility.yul\":2995:3164   */\ntag_64:\n    /* \"#utility.yul\":3079:3090   */\n  0x00\n    /* \"#utility.yul\":3113:3119   */\n  dup3\n    /* \"#utility.yul\":3108:3111   */\n  dup3\n    /* \"#utility.yul\":3101:3120   */\n  mstore\n    /* \"#utility.yul\":3153:3157   */\n  0x20\n    /* \"#utility.yul\":3148:3151   */\n  dup3\n    /* \"#utility.yul\":3144:3158   */\n  add\n    /* \"#utility.yul\":3129:3158   */\n  swap1\n  pop\n    /* \"#utility.yul\":2995:3164   */\n  swap3\n  swap2\n  pop\n  pop\n  jump\t// out\n    /* \"#utility.yul\":3170:3477   */\ntag_43:\n    /* \"#utility.yul\":3238:3239   */\n  0x00\n    /* \"#utility.yul\":3248:3361   */\ntag_83:\n    /* \"#utility.yul\":3262:3268   */\n  dup4\n    /* \"#utility.yul\":3259:3260   */\n  dup2\n    /* \"#utility.yul\":3256:3269   */\n  lt\n    /* \"#utility.yul\":3248:3361   */\n  iszero\n  tag_85\n  jumpi\n    /* \"#utility.yul\":3347:3348   */\n  dup1\n    /* \"#utility.yul\":3342:3345   */\n  dup3\n    /* \"#utility.yul\":3338:3349   */\n  add\n    /* \"#utility.yul\":3332:3350   */\n  mload\n    /* \"#utility.yul\":3328:3329   */\n  dup2\n    /* \"#utility.yul\":3323:3326   */\n  dup5\n    /* \"#utility.yul\":3319:3330   */\n  add\n    /* \"#utility.yul\":3312:3351   */\n  mstore\n    /* \"#utility.yul\":3284:3286   */\n  0x20\n    /* \"#utility.yul\":3281:3282   */\n  dup2\n    /* \"#utility.yul\":3277:3287   */\n  add\n    /* \"#utility.yul\":3272:3287   */\n  swap1\n  pop\n    /* \"#utility.yul\":3248:3361   */\n  jump(tag_83)\ntag_85:\n    /* \"#utility.yul\":3379:3385   */\n  dup4\n    /* \"#utility.yul\":3376:3377   */\n  dup2\n    /* \"#utility.yul\":3373:3386   */\n  gt\n    /* \"#utility.yul\":3370:3471   */\n  iszero\n  tag_86\n  jumpi\n    /* \"#utility.yul\":3459:3460   */\n  0x00\n    /* \"#utility.yul\":3450:3456   */\n  dup5\n    /* \"#utility.yul\":3445:3448   */\n  dup5\n    /* \"#utility.yul\":3441:3457   */\n  add\n    /* \"#utility.yul\":3434:3461   */\n  mstore\n    /* \"#utility.yul\":3370:3471   */\ntag_86:\n    /* \"#utility.yul\":3219:3477   */\n  pop\n    /* \"#utility.yul\":3170:3477   */\n  pop\n  pop\n  pop\n  jump\t// out\n    /* \"#utility.yul\":3483:3803   */\ntag_22:\n    /* \"#utility.yul\":3527:3533   */\n  0x00\n    /* \"#utility.yul\":3564:3565   */\n  0x02\n    /* \"#utility.yul\":3558:3562   */\n  dup3\n    /* \"#utility.yul\":3554:3566   */\n  div\n    /* \"#utility.yul\":3544:3566   */\n  swap1\n  pop\n    /* \"#utility.yul\":3611:3612   */\n  0x01\n    /* \"#utility.yul\":3605:3609   */\n  dup3\n    /* \"#utility.yul\":3601:3613   */\n  and\n    /* \"#utility.yul\":3632:3650   */\n  dup1\n    /* \"#utility.yul\":3622:3703   */\n  tag_88\n  jumpi\n    /* \"#utility.yul\":3688:3692   */\n  0x7f\n    /* \"#utility.yul\":3680:3686   */\n  dup3\n    /* \"#utility.yul\":3676:3693   */\n  and\n    /* \"#utility.yul\":3666:3693   */\n  swap2\n  pop\n    /* \"#utility.yul\":3622:3703   */\ntag_88:\n    /* \"#utility.yul\":3750:3752   */\n  0x20\n    /* \"#utility.yul\":3742:3748   */\n  dup3\n    /* \"#utility.yul\":3739:3753   */\n  lt\n    /* \"#utility.yul\":3719:3737   */\n  dup2\n    /* \"#utility.yul\":3716:3754   */\n  eq\n    /* \"#utility.yul\":3713:3797   */\n  iszero\n  tag_89\n  jumpi\n    /* \"#utility.yul\":3769:3787   */\n  tag_90\n  tag_91\n  jump\t// in\ntag_90:\n    /* \"#utility.yul\":3713:3797   */\ntag_89:\n    /* \"#utility.yul\":3534:3803   */\n  pop\n    /* \"#utility.yul\":3483:3803   */\n  swap2\n  swap1\n  pop\n  jump\t// out\n    /* \"#utility.yul\":3809:4090   */\ntag_73:\n    /* \"#utility.yul\":3892:3919   */\n  tag_93\n    /* \"#utility.yul\":3914:3918   */\n  dup3\n    /* \"#utility.yul\":3892:3919   */\n  tag_80\n  jump\t// in\ntag_93:\n    /* \"#utility.yul\":3884:3890   */\n  dup2\n    /* \"#utility.yul\":3880:3920   */\n  add\n    /* \"#utility.yul\":4022:4028   */\n  dup2\n    /* \"#utility.yul\":4010:4020   */\n  dup2\n    /* \"#utility.yul\":4007:4029   */\n  lt\n    /* \"#utility.yul\":3986:4004   */\n  0xffffffffffffffff\n    /* \"#utility.yul\":3974:3984   */\n  dup3\n    /* \"#utility.yul\":3971:4005   */\n  gt\n    /* \"#utility.yul\":3968:4030   */\n  or\n    /* \"#utility.yul\":3965:4053   */\n  iszero\n  tag_94\n  jumpi\n    /* \"#utility.yul\":4033:4051   */\n  tag_95\n  tag_78\n  jump\t// in\ntag_95:\n    /* \"#utility.yul\":3965:4053   */\ntag_94:\n    /* \"#utility.yul\":4073:4083   */\n  dup1\n    /* \"#utility.yul\":4069:4071   */\n  0x40\n    /* \"#utility.yul\":4062:4084   */\n  mstore\n    /* \"#utility.yul\":3852:4090   */\n  pop\n    /* \"#utility.yul\":3809:4090   */\n  pop\n  pop\n  jump\t// out\n    /* \"#utility.yul\":4096:4276   */\ntag_91:\n    /* \"#utility.yul\":4144:4221   */\n  0x4e487b7100000000000000000000000000000000000000000000000000000000\n    /* \"#utility.yul\":4141:4142   */\n  0x00\n    /* \"#utility.yul\":4134:4222   */\n  mstore\n    /* \"#utility.yul\":4241:4245   */\n  0x22\n    /* \"#utility.yul\":4238:4239   */\n  0x04\n    /* \"#utility.yul\":4231:4246   */\n  mstore\n    /* \"#utility.yul\":4265:4269   */\n  0x24\n    /* \"#utility.yul\":4262:4263   */\n  0x00\n    /* \"#utility.yul\":4255:4270   */\n  revert\n    /* \"#utility.yul\":4282:4462   */\ntag_78:\n    /* \"#utility.yul\":4330:4407   */\n  0x4e487b7100000000000000000000000000000000000000000000000000000000\n    /* \"#utility.yul\":4327:4328   */\n  0x00\n    /* \"#utility.yul\":4320:4408   */\n  mstore\n    /* \"#utility.yul\":4427:4431   */\n  0x41\n    /* \"#utility.yul\":4424:4425   */\n  0x04\n    /* \"#utility.yul\":4417:4432   */\n  mstore\n    /* \"#utility.yul\":4451:4455   */\n  0x24\n    /* \"#utility.yul\":4448:4449   */\n  0x00\n    /* \"#utility.yul\":4441:4456   */\n  revert\n    /* \"#utility.yul\":4468:4585   */\ntag_48:\n    /* \"#utility.yul\":4577:4578   */\n  0x00\n    /* \"#utility.yul\":4574:4575   */\n  dup1\n    /* \"#utility.yul\":4567:4579   */\n  revert\n    /* \"#utility.yul\":4591:4708   */\ntag_41:\n    /* \"#utility.yul\":4700:4701   */\n  0x00\n    /* \"#utility.yul\":4697:4698   */\n  dup1\n    /* \"#utility.yul\":4690:4702   */\n  revert\n    /* \"#utility.yul\":4714:4831   */\ntag_56:\n    /* \"#utility.yul\":4823:4824   */\n  0x00\n    /* \"#utility.yul\":4820:4821   */\n  dup1\n    /* \"#utility.yul\":4813:4825   */\n  revert\n    /* \"#utility.yul\":4837:4954   */\ntag_53:\n    /* \"#utility.yul\":4946:4947   */\n  0x00\n    /* \"#utility.yul\":4943:4944   */\n  dup1\n    /* \"#utility.yul\":4936:4948   */\n  revert\n    /* \"#utility.yul\":4960:5062   */\ntag_80:\n    /* \"#utility.yul\":5001:5007   */\n  0x00\n    /* \"#utility.yul\":5052:5054   */\n  0x1f\n    /* \"#utility.yul\":5048:5055   */\n  not\n    /* \"#utility.yul\":5043:5045   */\n  0x1f\n    /* \"#utility.yul\":5036:5041   */\n  dup4\n    /* \"#utility.yul\":5032:5046   */\n  add\n    /* \"#utility.yul\":5028:5056   */\n  and\n    /* \"#utility.yul\":5018:5056   */\n  swap1\n  pop\n    /* \"#utility.yul\":4960:5062   */\n  swap2\n  swap1\n  pop\n  jump\t// out\n    /* \"#utility.yul\":5068:5246   */\ntag_66:\n    /* \"#utility.yul\":5208:5238   */\n  0x4552433136353a20696e76616c696420696e7465726661636520696400000000\n    /* \"#utility.yul\":5204:5205   */\n  0x00\n    /* \"#utility.yul\":5196:5202   */\n  dup3\n    /* \"#utility.yul\":5192:5206   */\n  add\n    /* \"#utility.yul\":5185:5239   */\n  mstore\n    /* \"#utility.yul\":5068:5246   */\n  pop\n  jump\t// out\n    /* \"Arevea-NFT-Market/NFT-Contracts/contracts/ERC1155.sol\":448:18248  contract ERC1155 is Context, ERC165,IERC1155{\r... */\ntag_16:\n  dataSize(sub_0)\n  dup1\n  dataOffset(sub_0)\n  0x00\n  codecopy\n  0x00\n  return\nstop\n\nsub_0: assembly {\n        /* \"Arevea-NFT-Market/NFT-Contracts/contracts/ERC1155.sol\":448:18248  contract ERC1155 is Context, ERC165,IERC1155{\r... */\n      mstore(0x40, 0x80)\n      callvalue\n      dup1\n      iszero\n      tag_1\n      jumpi\n      0x00\n      dup1\n      revert\n    tag_1:\n      pop\n      jumpi(tag_2, lt(calldatasize, 0x04))\n      shr(0xe0, calldataload(0x00))\n      dup1\n      0x95d89b41\n      gt\n      tag_18\n      jumpi\n      dup1\n      0xc87b56dd\n      gt\n      tag_19\n      jumpi\n      dup1\n      0xc87b56dd\n      eq\n      tag_14\n      jumpi\n      dup1\n      0xd48e638a\n      eq\n      tag_15\n      jumpi\n      dup1\n      0xe985e9c5\n      eq\n      tag_16\n      jumpi\n      dup1\n      0xf242432a\n      eq\n      tag_17\n      jumpi\n      jump(tag_2)\n    tag_19:\n      dup1\n      0x95d89b41\n      eq\n      tag_10\n      jumpi\n      dup1\n      0xa22cb465\n      eq\n      tag_11\n      jumpi\n      dup1\n      0xc0ac9983\n      eq\n      tag_12\n      jumpi\n      dup1\n      0xc57dc235\n      eq\n      tag_13\n      jumpi\n      jump(tag_2)\n    tag_18:\n      dup1\n      0x18160ddd\n      gt\n      tag_20\n      jumpi\n      dup1\n      0x18160ddd\n      eq\n      tag_6\n      jumpi\n      dup1\n      0x2eb2c2d6\n      eq\n      tag_7\n      jumpi\n      dup1\n      0x4e1273f4\n      eq\n      tag_8\n      jumpi\n      dup1\n      0x6352211e\n      eq\n      tag_9\n      jumpi\n      jump(tag_2)\n    tag_20:\n      dup1\n      0xfdd58e\n      eq\n      tag_3\n      jumpi\n      dup1\n      0x01ffc9a7\n      eq\n      tag_4\n      jumpi\n      dup1\n      0x06fdde03\n      eq\n      tag_5\n      jumpi\n    tag_2:\n      0x00\n      dup1\n      revert\n        /* \"Arevea-NFT-Market/NFT-Contracts/contracts/ERC1155.sol\":4641:4966  function balanceOf(address account, uint256 tokenId) public view override returns (uint256) {\r... */\n    tag_3:\n      tag_21\n      0x04\n      dup1\n      calldatasize\n      sub\n      dup2\n      add\n      swap1\n      tag_22\n      swap2\n      swap1\n      tag_23\n      jump\t// in\n    tag_22:\n      tag_24\n      jump\t// in\n    tag_21:\n      mload(0x40)\n      tag_25\n      swap2\n      swap1\n      tag_26\n      jump\t// in\n    tag_25:\n      mload(0x40)\n      dup1\n      swap2\n      sub\n      swap1\n      return\n        /* \"Arevea-NFT-Market/NFT-Contracts/contracts/External/ERC165.sol\":393:545  function supportsInterface(bytes4 interfaceId) external view virtual override returns (bool) {\r... */\n    tag_4:\n      tag_27\n      0x04\n      dup1\n      calldatasize\n      sub\n      dup2\n      add\n      swap1\n      tag_28\n      swap2\n      swap1\n      tag_29\n      jump\t// in\n    tag_28:\n      tag_30\n      jump\t// in\n    tag_27:\n      mload(0x40)\n      tag_31\n      swap2\n      swap1\n      tag_32\n      jump\t// in\n    tag_31:\n      mload(0x40)\n      dup1\n      swap2\n      sub\n      swap1\n      return\n        /* \"Arevea-NFT-Market/NFT-Contracts/contracts/ERC1155.sol\":1670:1770  function name() public view virtual override returns (string memory) {\r... */\n    tag_5:\n      tag_33\n      tag_34\n      jump\t// in\n    tag_33:\n      mload(0x40)\n      tag_35\n      swap2\n      swap1\n      tag_36\n      jump\t// in\n    tag_35:\n      mload(0x40)\n      dup1\n      swap2\n      sub\n      swap1\n      return\n        /* \"Arevea-NFT-Market/NFT-Contracts/contracts/ERC1155.sol\":4122:4235  function totalSupply() external view virtual returns (uint256) {\r... */\n    tag_6:\n      tag_37\n      tag_38\n      jump\t// in\n    tag_37:\n      mload(0x40)\n      tag_39\n      swap2\n      swap1\n      tag_26\n      jump\t// in\n    tag_39:\n      mload(0x40)\n      dup1\n      swap2\n      sub\n      swap1\n      return\n        /* \"Arevea-NFT-Market/NFT-Contracts/contracts/ERC1155.sol\":10810:12090  function safeBatchTransferFrom(\r... */\n    tag_7:\n      tag_40\n      0x04\n      dup1\n      calldatasize\n      sub\n      dup2\n      add\n      swap1\n      tag_41\n      swap2\n      swap1\n      tag_42\n      jump\t// in\n    tag_41:\n      tag_43\n      jump\t// in\n    tag_40:\n      stop\n        /* \"Arevea-NFT-Market/NFT-Contracts/contracts/ERC1155.sol\":5276:5910  function balanceOfBatch(\r... */\n    tag_8:\n      tag_44\n      0x04\n      dup1\n      calldatasize\n      sub\n      dup2\n      add\n      swap1\n      tag_45\n      swap2\n      swap1\n      tag_46\n      jump\t// in\n    tag_45:\n      tag_47\n      jump\t// in\n    tag_44:\n      mload(0x40)\n      tag_48\n      swap2\n      swap1\n      tag_49\n      jump\t// in\n    tag_48:\n      mload(0x40)\n      dup1\n      swap2\n      sub\n      swap1\n      return\n        /* \"Arevea-NFT-Market/NFT-Contracts/contracts/ERC1155.sol\":13137:13306  function ownerOf(uint256 tokenId) public view virtual  returns (address) {\r... */\n    tag_9:\n      tag_50\n      0x04\n      dup1\n      calldatasize\n      sub\n      dup2\n      add\n      swap1\n      tag_51\n      swap2\n      swap1\n      tag_52\n      jump\t// in\n    tag_51:\n      tag_53\n      jump\t// in\n    tag_50:\n      mload(0x40)\n      tag_54\n      swap2\n      swap1\n      tag_55\n      jump\t// in\n    tag_54:\n      mload(0x40)\n      dup1\n      swap2\n      sub\n      swap1\n      return\n        /* \"Arevea-NFT-Market/NFT-Contracts/contracts/ERC1155.sol\":1778:1882  function symbol() public view virtual override returns (string memory) {\r... */\n    tag_10:\n      tag_56\n      tag_57\n      jump\t// in\n    tag_56:\n      mload(0x40)\n      tag_58\n      swap2\n      swap1\n      tag_36\n      jump\t// in\n    tag_58:\n      mload(0x40)\n      dup1\n      swap2\n      sub\n      swap1\n      return\n        /* \"Arevea-NFT-Market/NFT-Contracts/contracts/ERC1155.sol\":6272:6583  function setApprovalForAll(address operator, bool approved) public virtual override {\r... */\n    tag_11:\n      tag_59\n      0x04\n      dup1\n      calldatasize\n      sub\n      dup2\n      add\n      swap1\n      tag_60\n      swap2\n      swap1\n      tag_61\n      jump\t// in\n    tag_60:\n      tag_62\n      jump\t// in\n    tag_59:\n      stop\n        /* \"Arevea-NFT-Market/NFT-Contracts/contracts/ERC1155.sol\":1023:1056  string public tokenURIPrefix = \"\" */\n    tag_12:\n      tag_63\n      tag_64\n      jump\t// in\n    tag_63:\n      mload(0x40)\n      tag_65\n      swap2\n      swap1\n      tag_36\n      jump\t// in\n    tag_65:\n      mload(0x40)\n      dup1\n      swap2\n      sub\n      swap1\n      return\n        /* \"Arevea-NFT-Market/NFT-Contracts/contracts/ERC1155.sol\":2436:2557  function royaltyFee(uint256 tokenId) public view override returns(uint256) {\r... */\n    tag_13:\n      tag_66\n      0x04\n      dup1\n      calldatasize\n      sub\n      dup2\n      add\n      swap1\n      tag_67\n      swap2\n      swap1\n      tag_52\n      jump\t// in\n    tag_67:\n      tag_68\n      jump\t// in\n    tag_66:\n      mload(0x40)\n      tag_69\n      swap2\n      swap1\n      tag_26\n      jump\t// in\n    tag_69:\n      mload(0x40)\n      dup1\n      swap2\n      sub\n      swap1\n      return\n        /* \"Arevea-NFT-Market/NFT-Contracts/contracts/ERC1155.sol\":3425:3981  function tokenURI(uint256 tokenId) public view virtual override returns (string memory) {\r... */\n    tag_14:\n      tag_70\n      0x04\n      dup1\n      calldatasize\n      sub\n      dup2\n      add\n      swap1\n      tag_71\n      swap2\n      swap1\n      tag_52\n      jump\t// in\n    tag_71:\n      tag_72\n      jump\t// in\n    tag_70:\n      mload(0x40)\n      tag_73\n      swap2\n      swap1\n      tag_36\n      jump\t// in\n    tag_73:\n      mload(0x40)\n      dup1\n      swap2\n      sub\n      swap1\n      return\n        /* \"Arevea-NFT-Market/NFT-Contracts/contracts/ERC1155.sol\":2730:2856  function getCreator(uint256 tokenId) public view virtual override returns(address) {\r... */\n    tag_15:\n      tag_74\n      0x04\n      dup1\n      calldatasize\n      sub\n      dup2\n      add\n      swap1\n      tag_75\n      swap2\n      swap1\n      tag_52\n      jump\t// in\n    tag_75:\n      tag_76\n      jump\t// in\n    tag_74:\n      mload(0x40)\n      tag_77\n      swap2\n      swap1\n      tag_55\n      jump\t// in\n    tag_77:\n      mload(0x40)\n      dup1\n      swap2\n      sub\n      swap1\n      return\n        /* \"Arevea-NFT-Market/NFT-Contracts/contracts/ERC1155.sol\":6872:7032  function isApprovedForAll(address account, address operator) public view override returns (bool) {\r... */\n    tag_16:\n      tag_78\n      0x04\n      dup1\n      calldatasize\n      sub\n      dup2\n      add\n      swap1\n      tag_79\n      swap2\n      swap1\n      tag_80\n      jump\t// in\n    tag_79:\n      tag_81\n      jump\t// in\n    tag_78:\n      mload(0x40)\n      tag_82\n      swap2\n      swap1\n      tag_32\n      jump\t// in\n    tag_82:\n      mload(0x40)\n      dup1\n      swap2\n      sub\n      swap1\n      return\n        /* \"Arevea-NFT-Market/NFT-Contracts/contracts/ERC1155.sol\":8195:9159  function safeTransferFrom(\r... */\n    tag_17:\n      tag_83\n      0x04\n      dup1\n      calldatasize\n      sub\n      dup2\n      add\n      swap1\n      tag_84\n      swap2\n      swap1\n      tag_85\n      jump\t// in\n    tag_84:\n      tag_86\n      jump\t// in\n    tag_83:\n      stop\n        /* \"Arevea-NFT-Market/NFT-Contracts/contracts/ERC1155.sol\":4641:4966  function balanceOf(address account, uint256 tokenId) public view override returns (uint256) {\r... */\n    tag_24:\n        /* \"Arevea-NFT-Market/NFT-Contracts/contracts/ERC1155.sol\":4724:4731  uint256 */\n      0x00\n        /* \"Arevea-NFT-Market/NFT-Contracts/contracts/ERC1155.sol\":4752:4768  _exists(tokenId) */\n      tag_88\n        /* \"Arevea-NFT-Market/NFT-Contracts/contracts/ERC1155.sol\":4760:4767  tokenId */\n      dup3\n        /* \"Arevea-NFT-Market/NFT-Contracts/contracts/ERC1155.sol\":4752:4759  _exists */\n      tag_89\n        /* \"Arevea-NFT-Market/NFT-Contracts/contracts/ERC1155.sol\":4752:4768  _exists(tokenId) */\n      jump\t// in\n    tag_88:\n        /* \"Arevea-NFT-Market/NFT-Contracts/contracts/ERC1155.sol\":4744:4825  require(_exists(tokenId), \"ERC1155Metadata: balance query for nonexistent token\") */\n      tag_90\n      jumpi\n      mload(0x40)\n      0x08c379a000000000000000000000000000000000000000000000000000000000\n      dup2\n      mstore\n      0x04\n      add\n      tag_91\n      swap1\n      tag_92\n      jump\t// in\n    tag_91:\n      mload(0x40)\n      dup1\n      swap2\n      sub\n      swap1\n      revert\n    tag_90:\n        /* \"Arevea-NFT-Market/NFT-Contracts/contracts/ERC1155.sol\":4863:4864  0 */\n      0x00\n        /* \"Arevea-NFT-Market/NFT-Contracts/contracts/ERC1155.sol\":4844:4865  account != address(0) */\n      0xffffffffffffffffffffffffffffffffffffffff\n      and\n        /* \"Arevea-NFT-Market/NFT-Contracts/contracts/ERC1155.sol\":4844:4851  account */\n      dup4\n        /* \"Arevea-NFT-Market/NFT-Contracts/contracts/ERC1155.sol\":4844:4865  account != address(0) */\n      0xffffffffffffffffffffffffffffffffffffffff\n      and\n      eq\n      iszero\n        /* \"Arevea-NFT-Market/NFT-Contracts/contracts/ERC1155.sol\":4836:4913  require(account != address(0), \"ERC1155: balance query for the zero address\") */\n      tag_93\n      jumpi\n      mload(0x40)\n      0x08c379a000000000000000000000000000000000000000000000000000000000\n      dup2\n      mstore\n      0x04\n      add\n      tag_94\n      swap1\n      tag_95\n      jump\t// in\n    tag_94:\n      mload(0x40)\n      dup1\n      swap2\n      sub\n      swap1\n      revert\n    tag_93:\n        /* \"Arevea-NFT-Market/NFT-Contracts/contracts/ERC1155.sol\":4931:4940  _balances */\n      0x03\n        /* \"Arevea-NFT-Market/NFT-Contracts/contracts/ERC1155.sol\":4931:4949  _balances[tokenId] */\n      0x00\n        /* \"Arevea-NFT-Market/NFT-Contracts/contracts/ERC1155.sol\":4941:4948  tokenId */\n      dup4\n        /* \"Arevea-NFT-Market/NFT-Contracts/contracts/ERC1155.sol\":4931:4949  _balances[tokenId] */\n      dup2\n      mstore\n      0x20\n      add\n      swap1\n      dup2\n      mstore\n      0x20\n      add\n      0x00\n      keccak256\n        /* \"Arevea-NFT-Market/NFT-Contracts/contracts/ERC1155.sol\":4931:4958  _balances[tokenId][account] */\n      0x00\n        /* \"Arevea-NFT-Market/NFT-Contracts/contracts/ERC1155.sol\":4950:4957  account */\n      dup5\n        /* \"Arevea-NFT-Market/NFT-Contracts/contracts/ERC1155.sol\":4931:4958  _balances[tokenId][account] */\n      0xffffffffffffffffffffffffffffffffffffffff\n      and\n      0xffffffffffffffffffffffffffffffffffffffff\n      and\n      dup2\n      mstore\n      0x20\n      add\n      swap1\n      dup2\n      mstore\n      0x20\n      add\n      0x00\n      keccak256\n      sload\n        /* \"Arevea-NFT-Market/NFT-Contracts/contracts/ERC1155.sol\":4924:4958  return _balances[tokenId][account] */\n      swap1\n      pop\n        /* \"Arevea-NFT-Market/NFT-Contracts/contracts/ERC1155.sol\":4641:4966  function balanceOf(address account, uint256 tokenId) public view override returns (uint256) {\r... */\n      swap3\n      swap2\n      pop\n      pop\n      jump\t// out\n        /* \"Arevea-NFT-Market/NFT-Contracts/contracts/External/ERC165.sol\":393:545  function supportsInterface(bytes4 interfaceId) external view virtual override returns (bool) {\r... */\n    tag_30:\n        /* \"Arevea-NFT-Market/NFT-Contracts/contracts/External/ERC165.sol\":480:484  bool */\n      0x00\n        /* \"Arevea-NFT-Market/NFT-Contracts/contracts/External/ERC165.sol\":504:524  _supportedInterfaces */\n      dup1\n        /* \"Arevea-NFT-Market/NFT-Contracts/contracts/External/ERC165.sol\":504:537  _supportedInterfaces[interfaceId] */\n      0x00\n        /* \"Arevea-NFT-Market/NFT-Contracts/contracts/External/ERC165.sol\":525:536  interfaceId */\n      dup4\n        /* \"Arevea-NFT-Market/NFT-Contracts/contracts/External/ERC165.sol\":504:537  _supportedInterfaces[interfaceId] */\n      not(0xffffffffffffffffffffffffffffffffffffffffffffffffffffffff)\n      and\n      not(0xffffffffffffffffffffffffffffffffffffffffffffffffffffffff)\n      and\n      dup2\n      mstore\n      0x20\n      add\n      swap1\n      dup2\n      mstore\n      0x20\n      add\n      0x00\n      keccak256\n      0x00\n      swap1\n      sload\n      swap1\n      0x0100\n      exp\n      swap1\n      div\n      0xff\n      and\n        /* \"Arevea-NFT-Market/NFT-Contracts/contracts/External/ERC165.sol\":497:537  return _supportedInterfaces[interfaceId] */\n      swap1\n      pop\n        /* \"Arevea-NFT-Market/NFT-Contracts/contracts/External/ERC165.sol\":393:545  function supportsInterface(bytes4 interfaceId) external view virtual override returns (bool) {\r... */\n      swap2\n      swap1\n      pop\n      jump\t// out\n        /* \"Arevea-NFT-Market/NFT-Contracts/contracts/ERC1155.sol\":1670:1770  function name() public view virtual override returns (string memory) {\r... */\n    tag_34:\n        /* \"Arevea-NFT-Market/NFT-Contracts/contracts/ERC1155.sol\":1724:1737  string memory */\n      0x60\n        /* \"Arevea-NFT-Market/NFT-Contracts/contracts/ERC1155.sol\":1757:1762  _name */\n      0x09\n        /* \"Arevea-NFT-Market/NFT-Contracts/contracts/ERC1155.sol\":1750:1762  return _name */\n      dup1\n      sload\n      tag_98\n      swap1\n      tag_99\n      jump\t// in\n    tag_98:\n      dup1\n      0x1f\n      add\n      0x20\n      dup1\n      swap2\n      div\n      mul\n      0x20\n      add\n      mload(0x40)\n      swap1\n      dup2\n      add\n      0x40\n      mstore\n      dup1\n      swap3\n      swap2\n      swap1\n      dup2\n      dup2\n      mstore\n      0x20\n      add\n      dup3\n      dup1\n      sload\n      tag_100\n      swap1\n      tag_99\n      jump\t// in\n    tag_100:\n      dup1\n      iszero\n      tag_101\n      jumpi\n      dup1\n      0x1f\n      lt\n      tag_102\n      jumpi\n      0x0100\n      dup1\n      dup4\n      sload\n      div\n      mul\n      dup4\n      mstore\n      swap2\n      0x20\n      add\n      swap2\n      jump(tag_101)\n    tag_102:\n      dup3\n      add\n      swap2\n      swap1\n      0x00\n      mstore\n      keccak256(0x00, 0x20)\n      swap1\n    tag_103:\n      dup2\n      sload\n      dup2\n      mstore\n      swap1\n      0x01\n      add\n      swap1\n      0x20\n      add\n      dup1\n      dup4\n      gt\n      tag_103\n      jumpi\n      dup3\n      swap1\n      sub\n      0x1f\n      and\n      dup3\n      add\n      swap2\n    tag_101:\n      pop\n      pop\n      pop\n      pop\n      pop\n      swap1\n      pop\n        /* \"Arevea-NFT-Market/NFT-Contracts/contracts/ERC1155.sol\":1670:1770  function name() public view virtual override returns (string memory) {\r... */\n      swap1\n      jump\t// out\n        /* \"Arevea-NFT-Market/NFT-Contracts/contracts/ERC1155.sol\":4122:4235  function totalSupply() external view virtual returns (uint256) {\r... */\n    tag_38:\n        /* \"Arevea-NFT-Market/NFT-Contracts/contracts/ERC1155.sol\":4176:4183  uint256 */\n      0x00\n        /* \"Arevea-NFT-Market/NFT-Contracts/contracts/ERC1155.sol\":4203:4224  _tokenOwners.length() */\n      tag_105\n        /* \"Arevea-NFT-Market/NFT-Contracts/contracts/ERC1155.sol\":4203:4215  _tokenOwners */\n      0x07\n        /* \"Arevea-NFT-Market/NFT-Contracts/contracts/ERC1155.sol\":4203:4222  _tokenOwners.length */\n      tag_106\n        /* \"Arevea-NFT-Market/NFT-Contracts/contracts/ERC1155.sol\":4203:4224  _tokenOwners.length() */\n      jump\t// in\n    tag_105:\n        /* \"Arevea-NFT-Market/NFT-Contracts/contracts/ERC1155.sol\":4196:4224  return _tokenOwners.length() */\n      swap1\n      pop\n        /* \"Arevea-NFT-Market/NFT-Contracts/contracts/ERC1155.sol\":4122:4235  function totalSupply() external view virtual returns (uint256) {\r... */\n      swap1\n      jump\t// out\n        /* \"Arevea-NFT-Market/NFT-Contracts/contracts/ERC1155.sol\":10810:12090  function safeBatchTransferFrom(\r... */\n    tag_43:\n        /* \"Arevea-NFT-Market/NFT-Contracts/contracts/ERC1155.sol\":11085:11092  amounts */\n      dup2\n        /* \"Arevea-NFT-Market/NFT-Contracts/contracts/ERC1155.sol\":11085:11099  amounts.length */\n      mload\n        /* \"Arevea-NFT-Market/NFT-Contracts/contracts/ERC1155.sol\":11066:11074  tokenIds */\n      dup4\n        /* \"Arevea-NFT-Market/NFT-Contracts/contracts/ERC1155.sol\":11066:11081  tokenIds.length */\n      mload\n        /* \"Arevea-NFT-Market/NFT-Contracts/contracts/ERC1155.sol\":11066:11099  tokenIds.length == amounts.length */\n      eq\n        /* \"Arevea-NFT-Market/NFT-Contracts/contracts/ERC1155.sol\":11058:11144  require(tokenIds.length == amounts.length, \"ERC1155: ids and amounts length mismatch\") */\n      tag_108\n      jumpi\n      mload(0x40)\n      0x08c379a000000000000000000000000000000000000000000000000000000000\n      dup2\n      mstore\n      0x04\n      add\n      tag_109\n      swap1\n      tag_110\n      jump\t// in\n    tag_109:\n      mload(0x40)\n      dup1\n      swap2\n      sub\n      swap1\n      revert\n    tag_108:\n        /* \"Arevea-NFT-Market/NFT-Contracts/contracts/ERC1155.sol\":11177:11178  0 */\n      0x00\n        /* \"Arevea-NFT-Market/NFT-Contracts/contracts/ERC1155.sol\":11163:11179  to != address(0) */\n      0xffffffffffffffffffffffffffffffffffffffff\n      and\n        /* \"Arevea-NFT-Market/NFT-Contracts/contracts/ERC1155.sol\":11163:11165  to */\n      dup5\n        /* \"Arevea-NFT-Market/NFT-Contracts/contracts/ERC1155.sol\":11163:11179  to != address(0) */\n      0xffffffffffffffffffffffffffffffffffffffff\n      and\n      eq\n      iszero\n        /* \"Arevea-NFT-Market/NFT-Contracts/contracts/ERC1155.sol\":11155:11221  require(to != address(0), \"ERC1155: transfer to the zero address\") */\n      tag_111\n      jumpi\n      mload(0x40)\n      0x08c379a000000000000000000000000000000000000000000000000000000000\n      dup2\n      mstore\n      0x04\n      add\n      tag_112\n      swap1\n      tag_113\n      jump\t// in\n    tag_112:\n      mload(0x40)\n      dup1\n      swap2\n      sub\n      swap1\n      revert\n    tag_111:\n        /* \"Arevea-NFT-Market/NFT-Contracts/contracts/ERC1155.sol\":11262:11274  _msgSender() */\n      tag_114\n        /* \"Arevea-NFT-Market/NFT-Contracts/contracts/ERC1155.sol\":11262:11272  _msgSender */\n      tag_115\n        /* \"Arevea-NFT-Market/NFT-Contracts/contracts/ERC1155.sol\":11262:11274  _msgSender() */\n      jump\t// in\n    tag_114:\n        /* \"Arevea-NFT-Market/NFT-Contracts/contracts/ERC1155.sol\":11254:11274  from == _msgSender() */\n      0xffffffffffffffffffffffffffffffffffffffff\n      and\n        /* \"Arevea-NFT-Market/NFT-Contracts/contracts/ERC1155.sol\":11254:11258  from */\n      dup6\n        /* \"Arevea-NFT-Market/NFT-Contracts/contracts/ERC1155.sol\":11254:11274  from == _msgSender() */\n      0xffffffffffffffffffffffffffffffffffffffff\n      and\n      eq\n        /* \"Arevea-NFT-Market/NFT-Contracts/contracts/ERC1155.sol\":11254:11314  from == _msgSender() || isApprovedForAll(from, _msgSender()) */\n      dup1\n      tag_116\n      jumpi\n      pop\n        /* \"Arevea-NFT-Market/NFT-Contracts/contracts/ERC1155.sol\":11278:11314  isApprovedForAll(from, _msgSender()) */\n      tag_117\n        /* \"Arevea-NFT-Market/NFT-Contracts/contracts/ERC1155.sol\":11295:11299  from */\n      dup6\n        /* \"Arevea-NFT-Market/NFT-Contracts/contracts/ERC1155.sol\":11301:11313  _msgSender() */\n      tag_118\n        /* \"Arevea-NFT-Market/NFT-Contracts/contracts/ERC1155.sol\":11301:11311  _msgSender */\n      tag_115\n        /* \"Arevea-NFT-Market/NFT-Contracts/contracts/ERC1155.sol\":11301:11313  _msgSender() */\n      jump\t// in\n    tag_118:\n        /* \"Arevea-NFT-Market/NFT-Contracts/contracts/ERC1155.sol\":11278:11294  isApprovedForAll */\n      tag_81\n        /* \"Arevea-NFT-Market/NFT-Contracts/contracts/ERC1155.sol\":11278:11314  isApprovedForAll(from, _msgSender()) */\n      jump\t// in\n    tag_117:\n        /* \"Arevea-NFT-Market/NFT-Contracts/contracts/ERC1155.sol\":11254:11314  from == _msgSender() || isApprovedForAll(from, _msgSender()) */\n    tag_116:\n        /* \"Arevea-NFT-Market/NFT-Contracts/contracts/ERC1155.sol\":11232:11392  require(\r... */\n      tag_119\n      jumpi\n      mload(0x40)\n      0x08c379a000000000000000000000000000000000000000000000000000000000\n      dup2\n      mstore\n      0x04\n      add\n      tag_120\n      swap1\n      tag_121\n      jump\t// in\n    tag_120:\n      mload(0x40)\n      dup1\n      swap2\n      sub\n      swap1\n      revert\n    tag_119:\n        /* \"Arevea-NFT-Market/NFT-Contracts/contracts/ERC1155.sol\":11405:11421  address operator */\n      0x00\n        /* \"Arevea-NFT-Market/NFT-Contracts/contracts/ERC1155.sol\":11424:11436  _msgSender() */\n      tag_122\n        /* \"Arevea-NFT-Market/NFT-Contracts/contracts/ERC1155.sol\":11424:11434  _msgSender */\n      tag_115\n        /* \"Arevea-NFT-Market/NFT-Contracts/contracts/ERC1155.sol\":11424:11436  _msgSender() */\n      jump\t// in\n    tag_122:\n        /* \"Arevea-NFT-Market/NFT-Contracts/contracts/ERC1155.sol\":11405:11436  address operator = _msgSender() */\n      swap1\n      pop\n        /* \"Arevea-NFT-Market/NFT-Contracts/contracts/ERC1155.sol\":11449:11514  _beforeTokenTransfer(operator, from, to, tokenIds, amounts, data) */\n      tag_123\n        /* \"Arevea-NFT-Market/NFT-Contracts/contracts/ERC1155.sol\":11470:11478  operator */\n      dup2\n        /* \"Arevea-NFT-Market/NFT-Contracts/contracts/ERC1155.sol\":11480:11484  from */\n      dup8\n        /* \"Arevea-NFT-Market/NFT-Contracts/contracts/ERC1155.sol\":11486:11488  to */\n      dup8\n        /* \"Arevea-NFT-Market/NFT-Contracts/contracts/ERC1155.sol\":11490:11498  tokenIds */\n      dup8\n        /* \"Arevea-NFT-Market/NFT-Contracts/contracts/ERC1155.sol\":11500:11507  amounts */\n      dup8\n        /* \"Arevea-NFT-Market/NFT-Contracts/contracts/ERC1155.sol\":11509:11513  data */\n      dup8\n        /* \"Arevea-NFT-Market/NFT-Contracts/contracts/ERC1155.sol\":11449:11469  _beforeTokenTransfer */\n      tag_124\n        /* \"Arevea-NFT-Market/NFT-Contracts/contracts/ERC1155.sol\":11449:11514  _beforeTokenTransfer(operator, from, to, tokenIds, amounts, data) */\n      jump\t// in\n    tag_123:\n        /* \"Arevea-NFT-Market/NFT-Contracts/contracts/ERC1155.sol\":11532:11541  uint256 i */\n      0x00\n        /* \"Arevea-NFT-Market/NFT-Contracts/contracts/ERC1155.sol\":11527:11920  for (uint256 i = 0; i < tokenIds.length; ++i) {\r... */\n    tag_125:\n        /* \"Arevea-NFT-Market/NFT-Contracts/contracts/ERC1155.sol\":11551:11559  tokenIds */\n      dup5\n        /* \"Arevea-NFT-Market/NFT-Contracts/contracts/ERC1155.sol\":11551:11566  tokenIds.length */\n      mload\n        /* \"Arevea-NFT-Market/NFT-Contracts/contracts/ERC1155.sol\":11547:11548  i */\n      dup2\n        /* \"Arevea-NFT-Market/NFT-Contracts/contracts/ERC1155.sol\":11547:11566  i < tokenIds.length */\n      lt\n        /* \"Arevea-NFT-Market/NFT-Contracts/contracts/ERC1155.sol\":11527:11920  for (uint256 i = 0; i < tokenIds.length; ++i) {\r... */\n      iszero\n      tag_126\n      jumpi\n        /* \"Arevea-NFT-Market/NFT-Contracts/contracts/ERC1155.sol\":11588:11603  uint256 tokenId */\n      0x00\n        /* \"Arevea-NFT-Market/NFT-Contracts/contracts/ERC1155.sol\":11606:11614  tokenIds */\n      dup6\n        /* \"Arevea-NFT-Market/NFT-Contracts/contracts/ERC1155.sol\":11615:11616  i */\n      dup3\n        /* \"Arevea-NFT-Market/NFT-Contracts/contracts/ERC1155.sol\":11606:11617  tokenIds[i] */\n      dup2\n      mload\n      dup2\n      lt\n      tag_128\n      jumpi\n      tag_129\n      tag_130\n      jump\t// in\n    tag_129:\n    tag_128:\n      0x20\n      mul\n      0x20\n      add\n      add\n      mload\n        /* \"Arevea-NFT-Market/NFT-Contracts/contracts/ERC1155.sol\":11588:11617  uint256 tokenId = tokenIds[i] */\n      swap1\n      pop\n        /* \"Arevea-NFT-Market/NFT-Contracts/contracts/ERC1155.sol\":11632:11646  uint256 amount */\n      0x00\n        /* \"Arevea-NFT-Market/NFT-Contracts/contracts/ERC1155.sol\":11649:11656  amounts */\n      dup6\n        /* \"Arevea-NFT-Market/NFT-Contracts/contracts/ERC1155.sol\":11657:11658  i */\n      dup4\n        /* \"Arevea-NFT-Market/NFT-Contracts/contracts/ERC1155.sol\":11649:11659  amounts[i] */\n      dup2\n      mload\n      dup2\n      lt\n      tag_131\n      jumpi\n      tag_132\n      tag_130\n      jump\t// in\n    tag_132:\n    tag_131:\n      0x20\n      mul\n      0x20\n      add\n      add\n      mload\n        /* \"Arevea-NFT-Market/NFT-Contracts/contracts/ERC1155.sol\":11632:11659  uint256 amount = amounts[i] */\n      swap1\n      pop\n        /* \"Arevea-NFT-Market/NFT-Contracts/contracts/ERC1155.sol\":11703:11834  _balances[tokenId][from].sub(\r... */\n      tag_133\n        /* \"Arevea-NFT-Market/NFT-Contracts/contracts/ERC1155.sol\":11750:11756  amount */\n      dup2\n        /* \"Arevea-NFT-Market/NFT-Contracts/contracts/ERC1155.sol\":11703:11834  _balances[tokenId][from].sub(\r... */\n      mload(0x40)\n      dup1\n      0x60\n      add\n      0x40\n      mstore\n      dup1\n      0x2a\n      dup2\n      mstore\n      0x20\n      add\n      data_8ac7e9556b567c1c94bb4daaa3c3a65be5ac686579615210cb910fb8cb8d65bf\n      0x2a\n      swap2\n      codecopy\n        /* \"Arevea-NFT-Market/NFT-Contracts/contracts/ERC1155.sol\":11703:11712  _balances */\n      0x03\n        /* \"Arevea-NFT-Market/NFT-Contracts/contracts/ERC1155.sol\":11703:11721  _balances[tokenId] */\n      0x00\n        /* \"Arevea-NFT-Market/NFT-Contracts/contracts/ERC1155.sol\":11713:11720  tokenId */\n      dup7\n        /* \"Arevea-NFT-Market/NFT-Contracts/contracts/ERC1155.sol\":11703:11721  _balances[tokenId] */\n      dup2\n      mstore\n      0x20\n      add\n      swap1\n      dup2\n      mstore\n      0x20\n      add\n      0x00\n      keccak256\n        /* \"Arevea-NFT-Market/NFT-Contracts/contracts/ERC1155.sol\":11703:11727  _balances[tokenId][from] */\n      0x00\n        /* \"Arevea-NFT-Market/NFT-Contracts/contracts/ERC1155.sol\":11722:11726  from */\n      dup14\n        /* \"Arevea-NFT-Market/NFT-Contracts/contracts/ERC1155.sol\":11703:11727  _balances[tokenId][from] */\n      0xffffffffffffffffffffffffffffffffffffffff\n      and\n      0xffffffffffffffffffffffffffffffffffffffff\n      and\n      dup2\n      mstore\n      0x20\n      add\n      swap1\n      dup2\n      mstore\n      0x20\n      add\n      0x00\n      keccak256\n      sload\n        /* \"Arevea-NFT-Market/NFT-Contracts/contracts/ERC1155.sol\":11703:11731  _balances[tokenId][from].sub */\n      tag_134\n      swap1\n        /* \"Arevea-NFT-Market/NFT-Contracts/contracts/ERC1155.sol\":11703:11834  _balances[tokenId][from].sub(\r... */\n      swap3\n      swap2\n      swap1\n      0xffffffff\n      and\n      jump\t// in\n    tag_133:\n        /* \"Arevea-NFT-Market/NFT-Contracts/contracts/ERC1155.sol\":11676:11685  _balances */\n      0x03\n        /* \"Arevea-NFT-Market/NFT-Contracts/contracts/ERC1155.sol\":11676:11694  _balances[tokenId] */\n      0x00\n        /* \"Arevea-NFT-Market/NFT-Contracts/contracts/ERC1155.sol\":11686:11693  tokenId */\n      dup5\n        /* \"Arevea-NFT-Market/NFT-Contracts/contracts/ERC1155.sol\":11676:11694  _balances[tokenId] */\n      dup2\n      mstore\n      0x20\n      add\n      swap1\n      dup2\n      mstore\n      0x20\n      add\n      0x00\n      keccak256\n        /* \"Arevea-NFT-Market/NFT-Contracts/contracts/ERC1155.sol\":11676:11700  _balances[tokenId][from] */\n      0x00\n        /* \"Arevea-NFT-Market/NFT-Contracts/contracts/ERC1155.sol\":11695:11699  from */\n      dup12\n        /* \"Arevea-NFT-Market/NFT-Contracts/contracts/ERC1155.sol\":11676:11700  _balances[tokenId][from] */\n      0xffffffffffffffffffffffffffffffffffffffff\n      and\n      0xffffffffffffffffffffffffffffffffffffffff\n      and\n      dup2\n      mstore\n      0x20\n      add\n      swap1\n      dup2\n      mstore\n      0x20\n      add\n      0x00\n      keccak256\n        /* \"Arevea-NFT-Market/NFT-Contracts/contracts/ERC1155.sol\":11676:11834  _balances[tokenId][from] = _balances[tokenId][from].sub(\r... */\n      dup2\n      swap1\n      sstore\n      pop\n        /* \"Arevea-NFT-Market/NFT-Contracts/contracts/ERC1155.sol\":11874:11908  _balances[tokenId][to].add(amount) */\n      tag_135\n        /* \"Arevea-NFT-Market/NFT-Contracts/contracts/ERC1155.sol\":11901:11907  amount */\n      dup2\n        /* \"Arevea-NFT-Market/NFT-Contracts/contracts/ERC1155.sol\":11874:11883  _balances */\n      0x03\n        /* \"Arevea-NFT-Market/NFT-Contracts/contracts/ERC1155.sol\":11874:11892  _balances[tokenId] */\n      0x00\n        /* \"Arevea-NFT-Market/NFT-Contracts/contracts/ERC1155.sol\":11884:11891  tokenId */\n      dup6\n        /* \"Arevea-NFT-Market/NFT-Contracts/contracts/ERC1155.sol\":11874:11892  _balances[tokenId] */\n      dup2\n      mstore\n      0x20\n      add\n      swap1\n      dup2\n      mstore\n      0x20\n      add\n      0x00\n      keccak256\n        /* \"Arevea-NFT-Market/NFT-Contracts/contracts/ERC1155.sol\":11874:11896  _balances[tokenId][to] */\n      0x00\n        /* \"Arevea-NFT-Market/NFT-Contracts/contracts/ERC1155.sol\":11893:11895  to */\n      dup12\n        /* \"Arevea-NFT-Market/NFT-Contracts/contracts/ERC1155.sol\":11874:11896  _balances[tokenId][to] */\n      0xffffffffffffffffffffffffffffffffffffffff\n      and\n      0xffffffffffffffffffffffffffffffffffffffff\n      and\n      dup2\n      mstore\n      0x20\n      add\n      swap1\n      dup2\n      mstore\n      0x20\n      add\n      0x00\n      keccak256\n      sload\n        /* \"Arevea-NFT-Market/NFT-Contracts/contracts/ERC1155.sol\":11874:11900  _balances[tokenId][to].add */\n      tag_136\n      swap1\n        /* \"Arevea-NFT-Market/NFT-Contracts/contracts/ERC1155.sol\":11874:11908  _balances[tokenId][to].add(amount) */\n      swap2\n      swap1\n      0xffffffff\n      and\n      jump\t// in\n    tag_135:\n        /* \"Arevea-NFT-Market/NFT-Contracts/contracts/ERC1155.sol\":11849:11858  _balances */\n      0x03\n        /* \"Arevea-NFT-Market/NFT-Contracts/contracts/ERC1155.sol\":11849:11867  _balances[tokenId] */\n      0x00\n        /* \"Arevea-NFT-Market/NFT-Contracts/contracts/ERC1155.sol\":11859:11866  tokenId */\n      dup5\n        /* \"Arevea-NFT-Market/NFT-Contracts/contracts/ERC1155.sol\":11849:11867  _balances[tokenId] */\n      dup2\n      mstore\n      0x20\n      add\n      swap1\n      dup2\n      mstore\n      0x20\n      add\n      0x00\n      keccak256\n        /* \"Arevea-NFT-Market/NFT-Contracts/contracts/ERC1155.sol\":11849:11871  _balances[tokenId][to] */\n      0x00\n        /* \"Arevea-NFT-Market/NFT-Contracts/contracts/ERC1155.sol\":11868:11870  to */\n      dup11\n        /* \"Arevea-NFT-Market/NFT-Contracts/contracts/ERC1155.sol\":11849:11871  _balances[tokenId][to] */\n      0xffffffffffffffffffffffffffffffffffffffff\n      and\n      0xffffffffffffffffffffffffffffffffffffffff\n      and\n      dup2\n      mstore\n      0x20\n      add\n      swap1\n      dup2\n      mstore\n      0x20\n      add\n      0x00\n      keccak256\n        /* \"Arevea-NFT-Market/NFT-Contracts/contracts/ERC1155.sol\":11849:11908  _balances[tokenId][to] = _balances[tokenId][to].add(amount) */\n      dup2\n      swap1\n      sstore\n      pop\n        /* \"Arevea-NFT-Market/NFT-Contracts/contracts/ERC1155.sol\":11573:11920  {\r... */\n      pop\n      pop\n        /* \"Arevea-NFT-Market/NFT-Contracts/contracts/ERC1155.sol\":11568:11571  ++i */\n      dup1\n      tag_137\n      swap1\n      tag_138\n      jump\t// in\n    tag_137:\n      swap1\n      pop\n        /* \"Arevea-NFT-Market/NFT-Contracts/contracts/ERC1155.sol\":11527:11920  for (uint256 i = 0; i < tokenIds.length; ++i) {\r... */\n      jump(tag_125)\n    tag_126:\n      pop\n        /* \"Arevea-NFT-Market/NFT-Contracts/contracts/ERC1155.sol\":11967:11969  to */\n      dup5\n        /* \"Arevea-NFT-Market/NFT-Contracts/contracts/ERC1155.sol\":11937:11989  TransferBatch(operator, from, to, tokenIds, amounts) */\n      0xffffffffffffffffffffffffffffffffffffffff\n      and\n        /* \"Arevea-NFT-Market/NFT-Contracts/contracts/ERC1155.sol\":11961:11965  from */\n      dup7\n        /* \"Arevea-NFT-Market/NFT-Contracts/contracts/ERC1155.sol\":11937:11989  TransferBatch(operator, from, to, tokenIds, amounts) */\n      0xffffffffffffffffffffffffffffffffffffffff\n      and\n        /* \"Arevea-NFT-Market/NFT-Contracts/contracts/ERC1155.sol\":11951:11959  operator */\n      dup3\n        /* \"Arevea-NFT-Market/NFT-Contracts/contracts/ERC1155.sol\":11937:11989  TransferBatch(operator, from, to, tokenIds, amounts) */\n      0xffffffffffffffffffffffffffffffffffffffff\n      and\n      0x4a39dc06d4c0dbc64b70af90fd698a233a518aa5d07e595d983b8c0526c8f7fb\n        /* \"Arevea-NFT-Market/NFT-Contracts/contracts/ERC1155.sol\":11971:11979  tokenIds */\n      dup8\n        /* \"Arevea-NFT-Market/NFT-Contracts/contracts/ERC1155.sol\":11981:11988  amounts */\n      dup8\n        /* \"Arevea-NFT-Market/NFT-Contracts/contracts/ERC1155.sol\":11937:11989  TransferBatch(operator, from, to, tokenIds, amounts) */\n      mload(0x40)\n      tag_139\n      swap3\n      swap2\n      swap1\n      tag_140\n      jump\t// in\n    tag_139:\n      mload(0x40)\n      dup1\n      swap2\n      sub\n      swap1\n      log4\n        /* \"Arevea-NFT-Market/NFT-Contracts/contracts/ERC1155.sol\":12002:12082  _doSafeBatchTransferAcceptanceCheck(operator, from, to, tokenIds, amounts, data) */\n      tag_141\n        /* \"Arevea-NFT-Market/NFT-Contracts/contracts/ERC1155.sol\":12038:12046  operator */\n      dup2\n        /* \"Arevea-NFT-Market/NFT-Contracts/contracts/ERC1155.sol\":12048:12052  from */\n      dup8\n        /* \"Arevea-NFT-Market/NFT-Contracts/contracts/ERC1155.sol\":12054:12056  to */\n      dup8\n        /* \"Arevea-NFT-Market/NFT-Contracts/contracts/ERC1155.sol\":12058:12066  tokenIds */\n      dup8\n        /* \"Arevea-NFT-Market/NFT-Contracts/contracts/ERC1155.sol\":12068:12075  amounts */\n      dup8\n        /* \"Arevea-NFT-Market/NFT-Contracts/contracts/ERC1155.sol\":12077:12081  data */\n      dup8\n        /* \"Arevea-NFT-Market/NFT-Contracts/contracts/ERC1155.sol\":12002:12037  _doSafeBatchTransferAcceptanceCheck */\n      tag_142\n        /* \"Arevea-NFT-Market/NFT-Contracts/contracts/ERC1155.sol\":12002:12082  _doSafeBatchTransferAcceptanceCheck(operator, from, to, tokenIds, amounts, data) */\n      jump\t// in\n    tag_141:\n        /* \"Arevea-NFT-Market/NFT-Contracts/contracts/ERC1155.sol\":11047:12090  {\r... */\n      pop\n        /* \"Arevea-NFT-Market/NFT-Contracts/contracts/ERC1155.sol\":10810:12090  function safeBatchTransferFrom(\r... */\n      pop\n      pop\n      pop\n      pop\n      pop\n      jump\t// out\n        /* \"Arevea-NFT-Market/NFT-Contracts/contracts/ERC1155.sol\":5276:5910  function balanceOfBatch(\r... */\n    tag_47:\n        /* \"Arevea-NFT-Market/NFT-Contracts/contracts/ERC1155.sol\":5440:5456  uint256[] memory */\n      0x60\n        /* \"Arevea-NFT-Market/NFT-Contracts/contracts/ERC1155.sol\":5501:5504  ids */\n      dup2\n        /* \"Arevea-NFT-Market/NFT-Contracts/contracts/ERC1155.sol\":5501:5511  ids.length */\n      mload\n        /* \"Arevea-NFT-Market/NFT-Contracts/contracts/ERC1155.sol\":5482:5490  accounts */\n      dup4\n        /* \"Arevea-NFT-Market/NFT-Contracts/contracts/ERC1155.sol\":5482:5497  accounts.length */\n      mload\n        /* \"Arevea-NFT-Market/NFT-Contracts/contracts/ERC1155.sol\":5482:5511  accounts.length == ids.length */\n      eq\n        /* \"Arevea-NFT-Market/NFT-Contracts/contracts/ERC1155.sol\":5474:5557  require(accounts.length == ids.length, \"ERC1155: accounts and ids length mismatch\") */\n      tag_144\n      jumpi\n      mload(0x40)\n      0x08c379a000000000000000000000000000000000000000000000000000000000\n      dup2\n      mstore\n      0x04\n      add\n      tag_145\n      swap1\n      tag_146\n      jump\t// in\n    tag_145:\n      mload(0x40)\n      dup1\n      swap2\n      sub\n      swap1\n      revert\n    tag_144:\n        /* \"Arevea-NFT-Market/NFT-Contracts/contracts/ERC1155.sol\":5570:5600  uint256[] memory batchBalances */\n      0x00\n        /* \"Arevea-NFT-Market/NFT-Contracts/contracts/ERC1155.sol\":5617:5625  accounts */\n      dup4\n        /* \"Arevea-NFT-Market/NFT-Contracts/contracts/ERC1155.sol\":5617:5632  accounts.length */\n      mload\n        /* \"Arevea-NFT-Market/NFT-Contracts/contracts/ERC1155.sol\":5603:5633  new uint256[](accounts.length) */\n      0xffffffffffffffff\n      dup2\n      gt\n      iszero\n      tag_147\n      jumpi\n      tag_148\n      tag_149\n      jump\t// in\n    tag_148:\n    tag_147:\n      mload(0x40)\n      swap1\n      dup1\n      dup3\n      mstore\n      dup1\n      0x20\n      mul\n      0x20\n      add\n      dup3\n      add\n      0x40\n      mstore\n      dup1\n      iszero\n      tag_150\n      jumpi\n      dup2\n      0x20\n      add\n      0x20\n      dup3\n      mul\n      dup1\n      calldatasize\n      dup4\n      calldatacopy\n      dup1\n      dup3\n      add\n      swap2\n      pop\n      pop\n      swap1\n      pop\n    tag_150:\n      pop\n        /* \"Arevea-NFT-Market/NFT-Contracts/contracts/ERC1155.sol\":5570:5633  uint256[] memory batchBalances = new uint256[](accounts.length) */\n      swap1\n      pop\n        /* \"Arevea-NFT-Market/NFT-Contracts/contracts/ERC1155.sol\":5651:5660  uint256 i */\n      0x00\n        /* \"Arevea-NFT-Market/NFT-Contracts/contracts/ERC1155.sol\":5646:5870  for (uint256 i = 0; i < accounts.length; ++i) {\r... */\n    tag_151:\n        /* \"Arevea-NFT-Market/NFT-Contracts/contracts/ERC1155.sol\":5670:5678  accounts */\n      dup5\n        /* \"Arevea-NFT-Market/NFT-Contracts/contracts/ERC1155.sol\":5670:5685  accounts.length */\n      mload\n        /* \"Arevea-NFT-Market/NFT-Contracts/contracts/ERC1155.sol\":5666:5667  i */\n      dup2\n        /* \"Arevea-NFT-Market/NFT-Contracts/contracts/ERC1155.sol\":5666:5685  i < accounts.length */\n      lt\n        /* \"Arevea-NFT-Market/NFT-Contracts/contracts/ERC1155.sol\":5646:5870  for (uint256 i = 0; i < accounts.length; ++i) {\r... */\n      iszero\n      tag_152\n      jumpi\n        /* \"Arevea-NFT-Market/NFT-Contracts/contracts/ERC1155.sol\":5738:5739  0 */\n      0x00\n        /* \"Arevea-NFT-Market/NFT-Contracts/contracts/ERC1155.sol\":5715:5740  accounts[i] != address(0) */\n      0xffffffffffffffffffffffffffffffffffffffff\n      and\n        /* \"Arevea-NFT-Market/NFT-Contracts/contracts/ERC1155.sol\":5715:5723  accounts */\n      dup6\n        /* \"Arevea-NFT-Market/NFT-Contracts/contracts/ERC1155.sol\":5724:5725  i */\n      dup3\n        /* \"Arevea-NFT-Market/NFT-Contracts/contracts/ERC1155.sol\":5715:5726  accounts[i] */\n      dup2\n      mload\n      dup2\n      lt\n      tag_154\n      jumpi\n      tag_155\n      tag_130\n      jump\t// in\n    tag_155:\n    tag_154:\n      0x20\n      mul\n      0x20\n      add\n      add\n      mload\n        /* \"Arevea-NFT-Market/NFT-Contracts/contracts/ERC1155.sol\":5715:5740  accounts[i] != address(0) */\n      0xffffffffffffffffffffffffffffffffffffffff\n      and\n      eq\n      iszero\n        /* \"Arevea-NFT-Market/NFT-Contracts/contracts/ERC1155.sol\":5707:5794  require(accounts[i] != address(0), \"ERC1155: batch balance query for the zero address\") */\n      tag_156\n      jumpi\n      mload(0x40)\n      0x08c379a000000000000000000000000000000000000000000000000000000000\n      dup2\n      mstore\n      0x04\n      add\n      tag_157\n      swap1\n      tag_158\n      jump\t// in\n    tag_157:\n      mload(0x40)\n      dup1\n      swap2\n      sub\n      swap1\n      revert\n    tag_156:\n        /* \"Arevea-NFT-Market/NFT-Contracts/contracts/ERC1155.sol\":5828:5837  _balances */\n      0x03\n        /* \"Arevea-NFT-Market/NFT-Contracts/contracts/ERC1155.sol\":5828:5845  _balances[ids[i]] */\n      0x00\n        /* \"Arevea-NFT-Market/NFT-Contracts/contracts/ERC1155.sol\":5838:5841  ids */\n      dup6\n        /* \"Arevea-NFT-Market/NFT-Contracts/contracts/ERC1155.sol\":5842:5843  i */\n      dup4\n        /* \"Arevea-NFT-Market/NFT-Contracts/contracts/ERC1155.sol\":5838:5844  ids[i] */\n      dup2\n      mload\n      dup2\n      lt\n      tag_159\n      jumpi\n      tag_160\n      tag_130\n      jump\t// in\n    tag_160:\n    tag_159:\n      0x20\n      mul\n      0x20\n      add\n      add\n      mload\n        /* \"Arevea-NFT-Market/NFT-Contracts/contracts/ERC1155.sol\":5828:5845  _balances[ids[i]] */\n      dup2\n      mstore\n      0x20\n      add\n      swap1\n      dup2\n      mstore\n      0x20\n      add\n      0x00\n      keccak256\n        /* \"Arevea-NFT-Market/NFT-Contracts/contracts/ERC1155.sol\":5828:5858  _balances[ids[i]][accounts[i]] */\n      0x00\n        /* \"Arevea-NFT-Market/NFT-Contracts/contracts/ERC1155.sol\":5846:5854  accounts */\n      dup7\n        /* \"Arevea-NFT-Market/NFT-Contracts/contracts/ERC1155.sol\":5855:5856  i */\n      dup4\n        /* \"Arevea-NFT-Market/NFT-Contracts/contracts/ERC1155.sol\":5846:5857  accounts[i] */\n      dup2\n      mload\n      dup2\n      lt\n      tag_161\n      jumpi\n      tag_162\n      tag_130\n      jump\t// in\n    tag_162:\n    tag_161:\n      0x20\n      mul\n      0x20\n      add\n      add\n      mload\n        /* \"Arevea-NFT-Market/NFT-Contracts/contracts/ERC1155.sol\":5828:5858  _balances[ids[i]][accounts[i]] */\n      0xffffffffffffffffffffffffffffffffffffffff\n      and\n      0xffffffffffffffffffffffffffffffffffffffff\n      and\n      dup2\n      mstore\n      0x20\n      add\n      swap1\n      dup2\n      mstore\n      0x20\n      add\n      0x00\n      keccak256\n      sload\n        /* \"Arevea-NFT-Market/NFT-Contracts/contracts/ERC1155.sol\":5809:5822  batchBalances */\n      dup3\n        /* \"Arevea-NFT-Market/NFT-Contracts/contracts/ERC1155.sol\":5823:5824  i */\n      dup3\n        /* \"Arevea-NFT-Market/NFT-Contracts/contracts/ERC1155.sol\":5809:5825  batchBalances[i] */\n      dup2\n      mload\n      dup2\n      lt\n      tag_163\n      jumpi\n      tag_164\n      tag_130\n      jump\t// in\n    tag_164:\n    tag_163:\n      0x20\n      mul\n      0x20\n      add\n      add\n        /* \"Arevea-NFT-Market/NFT-Contracts/contracts/ERC1155.sol\":5809:5858  batchBalances[i] = _balances[ids[i]][accounts[i]] */\n      dup2\n      dup2\n      mstore\n      pop\n      pop\n        /* \"Arevea-NFT-Market/NFT-Contracts/contracts/ERC1155.sol\":5687:5690  ++i */\n      dup1\n      tag_165\n      swap1\n      tag_138\n      jump\t// in\n    tag_165:\n      swap1\n      pop\n        /* \"Arevea-NFT-Market/NFT-Contracts/contracts/ERC1155.sol\":5646:5870  for (uint256 i = 0; i < accounts.length; ++i) {\r... */\n      jump(tag_151)\n    tag_152:\n      pop\n        /* \"Arevea-NFT-Market/NFT-Contracts/contracts/ERC1155.sol\":5889:5902  batchBalances */\n      dup1\n        /* \"Arevea-NFT-Market/NFT-Contracts/contracts/ERC1155.sol\":5882:5902  return batchBalances */\n      swap2\n      pop\n      pop\n        /* \"Arevea-NFT-Market/NFT-Contracts/contracts/ERC1155.sol\":5276:5910  function balanceOfBatch(\r... */\n      swap3\n      swap2\n      pop\n      pop\n      jump\t// out\n        /* \"Arevea-NFT-Market/NFT-Contracts/contracts/ERC1155.sol\":13137:13306  function ownerOf(uint256 tokenId) public view virtual  returns (address) {\r... */\n    tag_53:\n        /* \"Arevea-NFT-Market/NFT-Contracts/contracts/ERC1155.sol\":13201:13208  address */\n      0x00\n        /* \"Arevea-NFT-Market/NFT-Contracts/contracts/ERC1155.sol\":13228:13298  _tokenOwners.get(tokenId, \"ERC721: owner query for nonexistent token\") */\n      tag_167\n        /* \"Arevea-NFT-Market/NFT-Contracts/contracts/ERC1155.sol\":13245:13252  tokenId */\n      dup3\n        /* \"Arevea-NFT-Market/NFT-Contracts/contracts/ERC1155.sol\":13228:13298  _tokenOwners.get(tokenId, \"ERC721: owner query for nonexistent token\") */\n      mload(0x40)\n      dup1\n      0x60\n      add\n      0x40\n      mstore\n      dup1\n      0x29\n      dup2\n      mstore\n      0x20\n      add\n      data_7481f3df2a424c0755a1ad2356614e9a5a358d461ea2eae1f89cb21cbad00397\n      0x29\n      swap2\n      codecopy\n        /* \"Arevea-NFT-Market/NFT-Contracts/contracts/ERC1155.sol\":13228:13240  _tokenOwners */\n      0x07\n        /* \"Arevea-NFT-Market/NFT-Contracts/contracts/ERC1155.sol\":13228:13244  _tokenOwners.get */\n      tag_168\n      swap1\n        /* \"Arevea-NFT-Market/NFT-Contracts/contracts/ERC1155.sol\":13228:13298  _tokenOwners.get(tokenId, \"ERC721: owner query for nonexistent token\") */\n      swap3\n      swap2\n      swap1\n      0xffffffff\n      and\n      jump\t// in\n    tag_167:\n        /* \"Arevea-NFT-Market/NFT-Contracts/contracts/ERC1155.sol\":13221:13298  return _tokenOwners.get(tokenId, \"ERC721: owner query for nonexistent token\") */\n      swap1\n      pop\n        /* \"Arevea-NFT-Market/NFT-Contracts/contracts/ERC1155.sol\":13137:13306  function ownerOf(uint256 tokenId) public view virtual  returns (address) {\r... */\n      swap2\n      swap1\n      pop\n      jump\t// out\n        /* \"Arevea-NFT-Market/NFT-Contracts/contracts/ERC1155.sol\":1778:1882  function symbol() public view virtual override returns (string memory) {\r... */\n    tag_57:\n        /* \"Arevea-NFT-Market/NFT-Contracts/contracts/ERC1155.sol\":1834:1847  string memory */\n      0x60\n        /* \"Arevea-NFT-Market/NFT-Contracts/contracts/ERC1155.sol\":1867:1874  _symbol */\n      0x0a\n        /* \"Arevea-NFT-Market/NFT-Contracts/contracts/ERC1155.sol\":1860:1874  return _symbol */\n      dup1\n      sload\n      tag_170\n      swap1\n      tag_99\n      jump\t// in\n    tag_170:\n      dup1\n      0x1f\n      add\n      0x20\n      dup1\n      swap2\n      div\n      mul\n      0x20\n      add\n      mload(0x40)\n      swap1\n      dup2\n      add\n      0x40\n      mstore\n      dup1\n      swap3\n      swap2\n      swap1\n      dup2\n      dup2\n      mstore\n      0x20\n      add\n      dup3\n      dup1\n      sload\n      tag_171\n      swap1\n      tag_99\n      jump\t// in\n    tag_171:\n      dup1\n      iszero\n      tag_172\n      jumpi\n      dup1\n      0x1f\n      lt\n      tag_173\n      jumpi\n      0x0100\n      dup1\n      dup4\n      sload\n      div\n      mul\n      dup4\n      mstore\n      swap2\n      0x20\n      add\n      swap2\n      jump(tag_172)\n    tag_173:\n      dup3\n      add\n      swap2\n      swap1\n      0x00\n      mstore\n      keccak256(0x00, 0x20)\n      swap1\n    tag_174:\n      dup2\n      sload\n      dup2\n      mstore\n      swap1\n      0x01\n      add\n      swap1\n      0x20\n      add\n      dup1\n      dup4\n      gt\n      tag_174\n      jumpi\n      dup3\n      swap1\n      sub\n      0x1f\n      and\n      dup3\n      add\n      swap2\n    tag_172:\n      pop\n      pop\n      pop\n      pop\n      pop\n      swap1\n      pop\n        /* \"Arevea-NFT-Market/NFT-Contracts/contracts/ERC1155.sol\":1778:1882  function symbol() public view virtual override returns (string memory) {\r... */\n      swap1\n      jump\t// out\n        /* \"Arevea-NFT-Market/NFT-Contracts/contracts/ERC1155.sol\":6272:6583  function setApprovalForAll(address operator, bool approved) public virtual override {\r... */\n    tag_62:\n        /* \"Arevea-NFT-Market/NFT-Contracts/contracts/ERC1155.sol\":6391:6399  operator */\n      dup2\n        /* \"Arevea-NFT-Market/NFT-Contracts/contracts/ERC1155.sol\":6375:6399  _msgSender() != operator */\n      0xffffffffffffffffffffffffffffffffffffffff\n      and\n        /* \"Arevea-NFT-Market/NFT-Contracts/contracts/ERC1155.sol\":6375:6387  _msgSender() */\n      tag_176\n        /* \"Arevea-NFT-Market/NFT-Contracts/contracts/ERC1155.sol\":6375:6385  _msgSender */\n      tag_115\n        /* \"Arevea-NFT-Market/NFT-Contracts/contracts/ERC1155.sol\":6375:6387  _msgSender() */\n      jump\t// in\n    tag_176:\n        /* \"Arevea-NFT-Market/NFT-Contracts/contracts/ERC1155.sol\":6375:6399  _msgSender() != operator */\n      0xffffffffffffffffffffffffffffffffffffffff\n      and\n      eq\n      iszero\n        /* \"Arevea-NFT-Market/NFT-Contracts/contracts/ERC1155.sol\":6367:6445  require(_msgSender() != operator, \"ERC1155: setting approval status for self\") */\n      tag_177\n      jumpi\n      mload(0x40)\n      0x08c379a000000000000000000000000000000000000000000000000000000000\n      dup2\n      mstore\n      0x04\n      add\n      tag_178\n      swap1\n      tag_179\n      jump\t// in\n    tag_178:\n      mload(0x40)\n      dup1\n      swap2\n      sub\n      swap1\n      revert\n    tag_177:\n        /* \"Arevea-NFT-Market/NFT-Contracts/contracts/ERC1155.sol\":6503:6511  approved */\n      dup1\n        /* \"Arevea-NFT-Market/NFT-Contracts/contracts/ERC1155.sol\":6458:6476  _operatorApprovals */\n      0x04\n        /* \"Arevea-NFT-Market/NFT-Contracts/contracts/ERC1155.sol\":6458:6490  _operatorApprovals[_msgSender()] */\n      0x00\n        /* \"Arevea-NFT-Market/NFT-Contracts/contracts/ERC1155.sol\":6477:6489  _msgSender() */\n      tag_180\n        /* \"Arevea-NFT-Market/NFT-Contracts/contracts/ERC1155.sol\":6477:6487  _msgSender */\n      tag_115\n        /* \"Arevea-NFT-Market/NFT-Contracts/contracts/ERC1155.sol\":6477:6489  _msgSender() */\n      jump\t// in\n    tag_180:\n        /* \"Arevea-NFT-Market/NFT-Contracts/contracts/ERC1155.sol\":6458:6490  _operatorApprovals[_msgSender()] */\n      0xffffffffffffffffffffffffffffffffffffffff\n      and\n      0xffffffffffffffffffffffffffffffffffffffff\n      and\n      dup2\n      mstore\n      0x20\n      add\n      swap1\n      dup2\n      mstore\n      0x20\n      add\n      0x00\n      keccak256\n        /* \"Arevea-NFT-Market/NFT-Contracts/contracts/ERC1155.sol\":6458:6500  _operatorApprovals[_msgSender()][operator] */\n      0x00\n        /* \"Arevea-NFT-Market/NFT-Contracts/contracts/ERC1155.sol\":6491:6499  operator */\n      dup5\n        /* \"Arevea-NFT-Market/NFT-Contracts/contracts/ERC1155.sol\":6458:6500  _operatorApprovals[_msgSender()][operator] */\n      0xffffffffffffffffffffffffffffffffffffffff\n      and\n      0xffffffffffffffffffffffffffffffffffffffff\n      and\n      dup2\n      mstore\n      0x20\n      add\n      swap1\n      dup2\n      mstore\n      0x20\n      add\n      0x00\n      keccak256\n      0x00\n        /* \"Arevea-NFT-Market/NFT-Contracts/contracts/ERC1155.sol\":6458:6511  _operatorApprovals[_msgSender()][operator] = approved */\n      0x0100\n      exp\n      dup2\n      sload\n      dup2\n      0xff\n      mul\n      not\n      and\n      swap1\n      dup4\n      iszero\n      iszero\n      mul\n      or\n      swap1\n      sstore\n      pop\n        /* \"Arevea-NFT-Market/NFT-Contracts/contracts/ERC1155.sol\":6556:6564  operator */\n      dup2\n        /* \"Arevea-NFT-Market/NFT-Contracts/contracts/ERC1155.sol\":6527:6575  ApprovalForAll(_msgSender(), operator, approved) */\n      0xffffffffffffffffffffffffffffffffffffffff\n      and\n        /* \"Arevea-NFT-Market/NFT-Contracts/contracts/ERC1155.sol\":6542:6554  _msgSender() */\n      tag_181\n        /* \"Arevea-NFT-Market/NFT-Contracts/contracts/ERC1155.sol\":6542:6552  _msgSender */\n      tag_115\n        /* \"Arevea-NFT-Market/NFT-Contracts/contracts/ERC1155.sol\":6542:6554  _msgSender() */\n      jump\t// in\n    tag_181:\n        /* \"Arevea-NFT-Market/NFT-Contracts/contracts/ERC1155.sol\":6527:6575  ApprovalForAll(_msgSender(), operator, approved) */\n      0xffffffffffffffffffffffffffffffffffffffff\n      and\n      0x17307eab39ab6107e8899845ad3d59bd9653f200f220920489ca2b5937696c31\n        /* \"Arevea-NFT-Market/NFT-Contracts/contracts/ERC1155.sol\":6566:6574  approved */\n      dup4\n        /* \"Arevea-NFT-Market/NFT-Contracts/contracts/ERC1155.sol\":6527:6575  ApprovalForAll(_msgSender(), operator, approved) */\n      mload(0x40)\n      tag_182\n      swap2\n      swap1\n      tag_32\n      jump\t// in\n    tag_182:\n      mload(0x40)\n      dup1\n      swap2\n      sub\n      swap1\n      log3\n        /* \"Arevea-NFT-Market/NFT-Contracts/contracts/ERC1155.sol\":6272:6583  function setApprovalForAll(address operator, bool approved) public virtual override {\r... */\n      pop\n      pop\n      jump\t// out\n        /* \"Arevea-NFT-Market/NFT-Contracts/contracts/ERC1155.sol\":1023:1056  string public tokenURIPrefix = \"\" */\n    tag_64:\n      0x05\n      dup1\n      sload\n      tag_183\n      swap1\n      tag_99\n      jump\t// in\n    tag_183:\n      dup1\n      0x1f\n      add\n      0x20\n      dup1\n      swap2\n      div\n      mul\n      0x20\n      add\n      mload(0x40)\n      swap1\n      dup2\n      add\n      0x40\n      mstore\n      dup1\n      swap3\n      swap2\n      swap1\n      dup2\n      dup2\n      mstore\n      0x20\n      add\n      dup3\n      dup1\n      sload\n      tag_184\n      swap1\n      tag_99\n      jump\t// in\n    tag_184:\n      dup1\n      iszero\n      tag_185\n      jumpi\n      dup1\n      0x1f\n      lt\n      tag_186\n      jumpi\n      0x0100\n      dup1\n      dup4\n      sload\n      div\n      mul\n      dup4\n      mstore\n      swap2\n      0x20\n      add\n      swap2\n      jump(tag_185)\n    tag_186:\n      dup3\n      add\n      swap2\n      swap1\n      0x00\n      mstore\n      keccak256(0x00, 0x20)\n      swap1\n    tag_187:\n      dup2\n      sload\n      dup2\n      mstore\n      swap1\n      0x01\n      add\n      swap1\n      0x20\n      add\n      dup1\n      dup4\n      gt\n      tag_187\n      jumpi\n      dup3\n      swap1\n      sub\n      0x1f\n      and\n      dup3\n      add\n      swap2\n    tag_185:\n      pop\n      pop\n      pop\n      pop\n      pop\n      dup2\n      jump\t// out\n        /* \"Arevea-NFT-Market/NFT-Contracts/contracts/ERC1155.sol\":2436:2557  function royaltyFee(uint256 tokenId) public view override returns(uint256) {\r... */\n    tag_68:\n        /* \"Arevea-NFT-Market/NFT-Contracts/contracts/ERC1155.sol\":2502:2509  uint256 */\n      0x00\n        /* \"Arevea-NFT-Market/NFT-Contracts/contracts/ERC1155.sol\":2529:2540  _royaltyFee */\n      0x02\n        /* \"Arevea-NFT-Market/NFT-Contracts/contracts/ERC1155.sol\":2529:2549  _royaltyFee[tokenId] */\n      0x00\n        /* \"Arevea-NFT-Market/NFT-Contracts/contracts/ERC1155.sol\":2541:2548  tokenId */\n      dup4\n        /* \"Arevea-NFT-Market/NFT-Contracts/contracts/ERC1155.sol\":2529:2549  _royaltyFee[tokenId] */\n      dup2\n      mstore\n      0x20\n      add\n      swap1\n      dup2\n      mstore\n      0x20\n      add\n      0x00\n      keccak256\n      sload\n        /* \"Arevea-NFT-Market/NFT-Contracts/contracts/ERC1155.sol\":2522:2549  return _royaltyFee[tokenId] */\n      swap1\n      pop\n        /* \"Arevea-NFT-Market/NFT-Contracts/contracts/ERC1155.sol\":2436:2557  function royaltyFee(uint256 tokenId) public view override returns(uint256) {\r... */\n      swap2\n      swap1\n      pop\n      jump\t// out\n        /* \"Arevea-NFT-Market/NFT-Contracts/contracts/ERC1155.sol\":3425:3981  function tokenURI(uint256 tokenId) public view virtual override returns (string memory) {\r... */\n    tag_72:\n        /* \"Arevea-NFT-Market/NFT-Contracts/contracts/ERC1155.sol\":3498:3511  string memory */\n      0x60\n        /* \"Arevea-NFT-Market/NFT-Contracts/contracts/ERC1155.sol\":3532:3548  _exists(tokenId) */\n      tag_190\n        /* \"Arevea-NFT-Market/NFT-Contracts/contracts/ERC1155.sol\":3540:3547  tokenId */\n      dup3\n        /* \"Arevea-NFT-Market/NFT-Contracts/contracts/ERC1155.sol\":3532:3539  _exists */\n      tag_89\n        /* \"Arevea-NFT-Market/NFT-Contracts/contracts/ERC1155.sol\":3532:3548  _exists(tokenId) */\n      jump\t// in\n    tag_190:\n        /* \"Arevea-NFT-Market/NFT-Contracts/contracts/ERC1155.sol\":3524:3601  require(_exists(tokenId), \"ERC1155Metadata: URI query for nonexistent token\") */\n      tag_191\n      jumpi\n      mload(0x40)\n      0x08c379a000000000000000000000000000000000000000000000000000000000\n      dup2\n      mstore\n      0x04\n      add\n      tag_192\n      swap1\n      tag_193\n      jump\t// in\n    tag_192:\n      mload(0x40)\n      dup1\n      swap2\n      sub\n      swap1\n      revert\n    tag_191:\n        /* \"Arevea-NFT-Market/NFT-Contracts/contracts/ERC1155.sol\":3612:3635  string memory _tokenURI */\n      0x00\n        /* \"Arevea-NFT-Market/NFT-Contracts/contracts/ERC1155.sol\":3638:3648  _tokenURIs */\n      0x06\n        /* \"Arevea-NFT-Market/NFT-Contracts/contracts/ERC1155.sol\":3638:3657  _tokenURIs[tokenId] */\n      0x00\n        /* \"Arevea-NFT-Market/NFT-Contracts/contracts/ERC1155.sol\":3649:3656  tokenId */\n      dup5\n        /* \"Arevea-NFT-Market/NFT-Contracts/contracts/ERC1155.sol\":3638:3657  _tokenURIs[tokenId] */\n      dup2\n      mstore\n      0x20\n      add\n      swap1\n      dup2\n      mstore\n      0x20\n      add\n      0x00\n      keccak256\n        /* \"Arevea-NFT-Market/NFT-Contracts/contracts/ERC1155.sol\":3612:3657  string memory _tokenURI = _tokenURIs[tokenId] */\n      dup1\n      sload\n      tag_194\n      swap1\n      tag_99\n      jump\t// in\n    tag_194:\n      dup1\n      0x1f\n      add\n      0x20\n      dup1\n      swap2\n      div\n      mul\n      0x20\n      add\n      mload(0x40)\n      swap1\n      dup2\n      add\n      0x40\n      mstore\n      dup1\n      swap3\n      swap2\n      swap1\n      dup2\n      dup2\n      mstore\n      0x20\n      add\n      dup3\n      dup1\n      sload\n      tag_195\n      swap1\n      tag_99\n      jump\t// in\n    tag_195:\n      dup1\n      iszero\n      tag_196\n      jumpi\n      dup1\n      0x1f\n      lt\n      tag_197\n      jumpi\n      0x0100\n      dup1\n      dup4\n      sload\n      div\n      mul\n      dup4\n      mstore\n      swap2\n      0x20\n      add\n      swap2\n      jump(tag_196)\n    tag_197:\n      dup3\n      add\n      swap2\n      swap1\n      0x00\n      mstore\n      keccak256(0x00, 0x20)\n      swap1\n    tag_198:\n      dup2\n      sload\n      dup2\n      mstore\n      swap1\n      0x01\n      add\n      swap1\n      0x20\n      add\n      dup1\n      dup4\n      gt\n      tag_198\n      jumpi\n      dup3\n      swap1\n      sub\n      0x1f\n      and\n      dup3\n      add\n      swap2\n    tag_196:\n      pop\n      pop\n      pop\n      pop\n      pop\n      swap1\n      pop\n        /* \"Arevea-NFT-Market/NFT-Contracts/contracts/ERC1155.sol\":3668:3686  string memory base */\n      0x00\n        /* \"Arevea-NFT-Market/NFT-Contracts/contracts/ERC1155.sol\":3689:3703  tokenURIPrefix */\n      0x05\n        /* \"Arevea-NFT-Market/NFT-Contracts/contracts/ERC1155.sol\":3668:3703  string memory base = tokenURIPrefix */\n      dup1\n      sload\n      tag_199\n      swap1\n      tag_99\n      jump\t// in\n    tag_199:\n      dup1\n      0x1f\n      add\n      0x20\n      dup1\n      swap2\n      div\n      mul\n      0x20\n      add\n      mload(0x40)\n      swap1\n      dup2\n      add\n      0x40\n      mstore\n      dup1\n      swap3\n      swap2\n      swap1\n      dup2\n      dup2\n      mstore\n      0x20\n      add\n      dup3\n      dup1\n      sload\n      tag_200\n      swap1\n      tag_99\n      jump\t// in\n    tag_200:\n      dup1\n      iszero\n      tag_201\n      jumpi\n      dup1\n      0x1f\n      lt\n      tag_202\n      jumpi\n      0x0100\n      dup1\n      dup4\n      sload\n      div\n      mul\n      dup4\n      mstore\n      swap2\n      0x20\n      add\n      swap2\n      jump(tag_201)\n    tag_202:\n      dup3\n      add\n      swap2\n      swap1\n      0x00\n      mstore\n      keccak256(0x00, 0x20)\n      swap1\n    tag_203:\n      dup2\n      sload\n      dup2\n      mstore\n      swap1\n      0x01\n      add\n      swap1\n      0x20\n      add\n      dup1\n      dup4\n      gt\n      tag_203\n      jumpi\n      dup3\n      swap1\n      sub\n      0x1f\n      and\n      dup3\n      add\n      swap2\n    tag_201:\n      pop\n      pop\n      pop\n      pop\n      pop\n      swap1\n      pop\n        /* \"Arevea-NFT-Market/NFT-Contracts/contracts/ERC1155.sol\":3742:3743  0 */\n      0x00\n        /* \"Arevea-NFT-Market/NFT-Contracts/contracts/ERC1155.sol\":3726:3730  base */\n      dup2\n        /* \"Arevea-NFT-Market/NFT-Contracts/contracts/ERC1155.sol\":3720:3738  bytes(base).length */\n      mload\n        /* \"Arevea-NFT-Market/NFT-Contracts/contracts/ERC1155.sol\":3720:3743  bytes(base).length == 0 */\n      eq\n        /* \"Arevea-NFT-Market/NFT-Contracts/contracts/ERC1155.sol\":3716:3788  if (bytes(base).length == 0) {\r... */\n      iszero\n      tag_204\n      jumpi\n        /* \"Arevea-NFT-Market/NFT-Contracts/contracts/ERC1155.sol\":3767:3776  _tokenURI */\n      dup2\n        /* \"Arevea-NFT-Market/NFT-Contracts/contracts/ERC1155.sol\":3760:3776  return _tokenURI */\n      swap3\n      pop\n      pop\n      pop\n      jump(tag_189)\n        /* \"Arevea-NFT-Market/NFT-Contracts/contracts/ERC1155.sol\":3716:3788  if (bytes(base).length == 0) {\r... */\n    tag_204:\n        /* \"Arevea-NFT-Market/NFT-Contracts/contracts/ERC1155.sol\":3828:3829  0 */\n      0x00\n        /* \"Arevea-NFT-Market/NFT-Contracts/contracts/ERC1155.sol\":3808:3817  _tokenURI */\n      dup3\n        /* \"Arevea-NFT-Market/NFT-Contracts/contracts/ERC1155.sol\":3802:3825  bytes(_tokenURI).length */\n      mload\n        /* \"Arevea-NFT-Market/NFT-Contracts/contracts/ERC1155.sol\":3802:3829  bytes(_tokenURI).length > 0 */\n      gt\n        /* \"Arevea-NFT-Market/NFT-Contracts/contracts/ERC1155.sol\":3798:3906  if (bytes(_tokenURI).length > 0) {\r... */\n      iszero\n      tag_205\n      jumpi\n        /* \"Arevea-NFT-Market/NFT-Contracts/contracts/ERC1155.sol\":3877:3881  base */\n      dup1\n        /* \"Arevea-NFT-Market/NFT-Contracts/contracts/ERC1155.sol\":3883:3892  _tokenURI */\n      dup3\n        /* \"Arevea-NFT-Market/NFT-Contracts/contracts/ERC1155.sol\":3860:3893  abi.encodePacked(base, _tokenURI) */\n      add(0x20, mload(0x40))\n      tag_206\n      swap3\n      swap2\n      swap1\n      tag_207\n      jump\t// in\n    tag_206:\n      mload(0x40)\n      0x20\n      dup2\n      dup4\n      sub\n      sub\n      dup2\n      mstore\n      swap1\n      0x40\n      mstore\n        /* \"Arevea-NFT-Market/NFT-Contracts/contracts/ERC1155.sol\":3846:3894  return string(abi.encodePacked(base, _tokenURI)) */\n      swap3\n      pop\n      pop\n      pop\n      jump(tag_189)\n        /* \"Arevea-NFT-Market/NFT-Contracts/contracts/ERC1155.sol\":3798:3906  if (bytes(_tokenURI).length > 0) {\r... */\n    tag_205:\n        /* \"Arevea-NFT-Market/NFT-Contracts/contracts/ERC1155.sol\":3947:3951  base */\n      dup1\n        /* \"Arevea-NFT-Market/NFT-Contracts/contracts/ERC1155.sol\":3953:3971  tokenId.toString() */\n      tag_208\n        /* \"Arevea-NFT-Market/NFT-Contracts/contracts/ERC1155.sol\":3953:3960  tokenId */\n      dup6\n        /* \"Arevea-NFT-Market/NFT-Contracts/contracts/ERC1155.sol\":3953:3969  tokenId.toString */\n      tag_209\n        /* \"Arevea-NFT-Market/NFT-Contracts/contracts/ERC1155.sol\":3953:3971  tokenId.toString() */\n      jump\t// in\n    tag_208:\n        /* \"Arevea-NFT-Market/NFT-Contracts/contracts/ERC1155.sol\":3930:3972  abi.encodePacked(base, tokenId.toString()) */\n      add(0x20, mload(0x40))\n      tag_210\n      swap3\n      swap2\n      swap1\n      tag_207\n      jump\t// in\n    tag_210:\n      mload(0x40)\n      0x20\n      dup2\n      dup4\n      sub\n      sub\n      dup2\n      mstore\n      swap1\n      0x40\n      mstore\n        /* \"Arevea-NFT-Market/NFT-Contracts/contracts/ERC1155.sol\":3916:3973  return string(abi.encodePacked(base, tokenId.toString())) */\n      swap3\n      pop\n      pop\n      pop\n        /* \"Arevea-NFT-Market/NFT-Contracts/contracts/ERC1155.sol\":3425:3981  function tokenURI(uint256 tokenId) public view virtual override returns (string memory) {\r... */\n    tag_189:\n      swap2\n      swap1\n      pop\n      jump\t// out\n        /* \"Arevea-NFT-Market/NFT-Contracts/contracts/ERC1155.sol\":2730:2856  function getCreator(uint256 tokenId) public view virtual override returns(address) {\r... */\n    tag_76:\n        /* \"Arevea-NFT-Market/NFT-Contracts/contracts/ERC1155.sol\":2804:2811  address */\n      0x00\n        /* \"Arevea-NFT-Market/NFT-Contracts/contracts/ERC1155.sol\":2831:2839  creators */\n      0x01\n        /* \"Arevea-NFT-Market/NFT-Contracts/contracts/ERC1155.sol\":2831:2848  creators[tokenId] */\n      0x00\n        /* \"Arevea-NFT-Market/NFT-Contracts/contracts/ERC1155.sol\":2840:2847  tokenId */\n      dup4\n        /* \"Arevea-NFT-Market/NFT-Contracts/contracts/ERC1155.sol\":2831:2848  creators[tokenId] */\n      dup2\n      mstore\n      0x20\n      add\n      swap1\n      dup2\n      mstore\n      0x20\n      add\n      0x00\n      keccak256\n      0x00\n      swap1\n      sload\n      swap1\n      0x0100\n      exp\n      swap1\n      div\n      0xffffffffffffffffffffffffffffffffffffffff\n      and\n        /* \"Arevea-NFT-Market/NFT-Contracts/contracts/ERC1155.sol\":2824:2848  return creators[tokenId] */\n      swap1\n      pop\n        /* \"Arevea-NFT-Market/NFT-Contracts/contracts/ERC1155.sol\":2730:2856  function getCreator(uint256 tokenId) public view virtual override returns(address) {\r... */\n      swap2\n      swap1\n      pop\n      jump\t// out\n        /* \"Arevea-NFT-Market/NFT-Contracts/contracts/ERC1155.sol\":6872:7032  function isApprovedForAll(address account, address operator) public view override returns (bool) {\r... */\n    tag_81:\n        /* \"Arevea-NFT-Market/NFT-Contracts/contracts/ERC1155.sol\":6963:6967  bool */\n      0x00\n        /* \"Arevea-NFT-Market/NFT-Contracts/contracts/ERC1155.sol\":6987:7005  _operatorApprovals */\n      0x04\n        /* \"Arevea-NFT-Market/NFT-Contracts/contracts/ERC1155.sol\":6987:7014  _operatorApprovals[account] */\n      0x00\n        /* \"Arevea-NFT-Market/NFT-Contracts/contracts/ERC1155.sol\":7006:7013  account */\n      dup5\n        /* \"Arevea-NFT-Market/NFT-Contracts/contracts/ERC1155.sol\":6987:7014  _operatorApprovals[account] */\n      0xffffffffffffffffffffffffffffffffffffffff\n      and\n      0xffffffffffffffffffffffffffffffffffffffff\n      and\n      dup2\n      mstore\n      0x20\n      add\n      swap1\n      dup2\n      mstore\n      0x20\n      add\n      0x00\n      keccak256\n        /* \"Arevea-NFT-Market/NFT-Contracts/contracts/ERC1155.sol\":6987:7024  _operatorApprovals[account][operator] */\n      0x00\n        /* \"Arevea-NFT-Market/NFT-Contracts/contracts/ERC1155.sol\":7015:7023  operator */\n      dup4\n        /* \"Arevea-NFT-Market/NFT-Contracts/contracts/ERC1155.sol\":6987:7024  _operatorApprovals[account][operator] */\n      0xffffffffffffffffffffffffffffffffffffffff\n      and\n      0xffffffffffffffffffffffffffffffffffffffff\n      and\n      dup2\n      mstore\n      0x20\n      add\n      swap1\n      dup2\n      mstore\n      0x20\n      add\n      0x00\n      keccak256\n      0x00\n      swap1\n      sload\n      swap1\n      0x0100\n      exp\n      swap1\n      div\n      0xff\n      and\n        /* \"Arevea-NFT-Market/NFT-Contracts/contracts/ERC1155.sol\":6980:7024  return _operatorApprovals[account][operator] */\n      swap1\n      pop\n        /* \"Arevea-NFT-Market/NFT-Contracts/contracts/ERC1155.sol\":6872:7032  function isApprovedForAll(address account, address operator) public view override returns (bool) {\r... */\n      swap3\n      swap2\n      pop\n      pop\n      jump\t// out\n        /* \"Arevea-NFT-Market/NFT-Contracts/contracts/ERC1155.sol\":8195:9159  function safeTransferFrom(\r... */\n    tag_86:\n        /* \"Arevea-NFT-Market/NFT-Contracts/contracts/ERC1155.sol\":8440:8441  0 */\n      0x00\n        /* \"Arevea-NFT-Market/NFT-Contracts/contracts/ERC1155.sol\":8426:8442  to != address(0) */\n      0xffffffffffffffffffffffffffffffffffffffff\n      and\n        /* \"Arevea-NFT-Market/NFT-Contracts/contracts/ERC1155.sol\":8426:8428  to */\n      dup5\n        /* \"Arevea-NFT-Market/NFT-Contracts/contracts/ERC1155.sol\":8426:8442  to != address(0) */\n      0xffffffffffffffffffffffffffffffffffffffff\n      and\n      eq\n      iszero\n        /* \"Arevea-NFT-Market/NFT-Contracts/contracts/ERC1155.sol\":8418:8484  require(to != address(0), \"ERC1155: transfer to the zero address\") */\n      tag_214\n      jumpi\n      mload(0x40)\n      0x08c379a000000000000000000000000000000000000000000000000000000000\n      dup2\n      mstore\n      0x04\n      add\n      tag_215\n      swap1\n      tag_113\n      jump\t// in\n    tag_215:\n      mload(0x40)\n      dup1\n      swap2\n      sub\n      swap1\n      revert\n    tag_214:\n        /* \"Arevea-NFT-Market/NFT-Contracts/contracts/ERC1155.sol\":8525:8537  _msgSender() */\n      tag_216\n        /* \"Arevea-NFT-Market/NFT-Contracts/contracts/ERC1155.sol\":8525:8535  _msgSender */\n      tag_115\n        /* \"Arevea-NFT-Market/NFT-Contracts/contracts/ERC1155.sol\":8525:8537  _msgSender() */\n      jump\t// in\n    tag_216:\n        /* \"Arevea-NFT-Market/NFT-Contracts/contracts/ERC1155.sol\":8517:8537  from == _msgSender() */\n      0xffffffffffffffffffffffffffffffffffffffff\n      and\n        /* \"Arevea-NFT-Market/NFT-Contracts/contracts/ERC1155.sol\":8517:8521  from */\n      dup6\n        /* \"Arevea-NFT-Market/NFT-Contracts/contracts/ERC1155.sol\":8517:8537  from == _msgSender() */\n      0xffffffffffffffffffffffffffffffffffffffff\n      and\n      eq\n        /* \"Arevea-NFT-Market/NFT-Contracts/contracts/ERC1155.sol\":8517:8577  from == _msgSender() || isApprovedForAll(from, _msgSender()) */\n      dup1\n      tag_217\n      jumpi\n      pop\n        /* \"Arevea-NFT-Market/NFT-Contracts/contracts/ERC1155.sol\":8541:8577  isApprovedForAll(from, _msgSender()) */\n      tag_218\n        /* \"Arevea-NFT-Market/NFT-Contracts/contracts/ERC1155.sol\":8558:8562  from */\n      dup6\n        /* \"Arevea-NFT-Market/NFT-Contracts/contracts/ERC1155.sol\":8564:8576  _msgSender() */\n      tag_219\n        /* \"Arevea-NFT-Market/NFT-Contracts/contracts/ERC1155.sol\":8564:8574  _msgSender */\n      tag_115\n        /* \"Arevea-NFT-Market/NFT-Contracts/contracts/ERC1155.sol\":8564:8576  _msgSender() */\n      jump\t// in\n    tag_219:\n        /* \"Arevea-NFT-Market/NFT-Contracts/contracts/ERC1155.sol\":8541:8557  isApprovedForAll */\n      tag_81\n        /* \"Arevea-NFT-Market/NFT-Contracts/contracts/ERC1155.sol\":8541:8577  isApprovedForAll(from, _msgSender()) */\n      jump\t// in\n    tag_218:\n        /* \"Arevea-NFT-Market/NFT-Contracts/contracts/ERC1155.sol\":8517:8577  from == _msgSender() || isApprovedForAll(from, _msgSender()) */\n    tag_217:\n        /* \"Arevea-NFT-Market/NFT-Contracts/contracts/ERC1155.sol\":8495:8646  require(\r... */\n      tag_220\n      jumpi\n      mload(0x40)\n      0x08c379a000000000000000000000000000000000000000000000000000000000\n      dup2\n      mstore\n      0x04\n      add\n      tag_221\n      swap1\n      tag_222\n      jump\t// in\n    tag_221:\n      mload(0x40)\n      dup1\n      swap2\n      sub\n      swap1\n      revert\n    tag_220:\n        /* \"Arevea-NFT-Market/NFT-Contracts/contracts/ERC1155.sol\":8659:8675  address operator */\n      0x00\n        /* \"Arevea-NFT-Market/NFT-Contracts/contracts/ERC1155.sol\":8678:8690  _msgSender() */\n      tag_223\n        /* \"Arevea-NFT-Market/NFT-Contracts/contracts/ERC1155.sol\":8678:8688  _msgSender */\n      tag_115\n        /* \"Arevea-NFT-Market/NFT-Contracts/contracts/ERC1155.sol\":8678:8690  _msgSender() */\n      jump\t// in\n    tag_223:\n        /* \"Arevea-NFT-Market/NFT-Contracts/contracts/ERC1155.sol\":8659:8690  address operator = _msgSender() */\n      swap1\n      pop\n        /* \"Arevea-NFT-Market/NFT-Contracts/contracts/ERC1155.sol\":8703:8804  _beforeTokenTransfer(operator, from, to, _asSingletonArray(tokenId), _asSingletonArray(amount), data) */\n      tag_224\n        /* \"Arevea-NFT-Market/NFT-Contracts/contracts/ERC1155.sol\":8724:8732  operator */\n      dup2\n        /* \"Arevea-NFT-Market/NFT-Contracts/contracts/ERC1155.sol\":8734:8738  from */\n      dup8\n        /* \"Arevea-NFT-Market/NFT-Contracts/contracts/ERC1155.sol\":8740:8742  to */\n      dup8\n        /* \"Arevea-NFT-Market/NFT-Contracts/contracts/ERC1155.sol\":8744:8770  _asSingletonArray(tokenId) */\n      tag_225\n        /* \"Arevea-NFT-Market/NFT-Contracts/contracts/ERC1155.sol\":8762:8769  tokenId */\n      dup9\n        /* \"Arevea-NFT-Market/NFT-Contracts/contracts/ERC1155.sol\":8744:8761  _asSingletonArray */\n      tag_226\n        /* \"Arevea-NFT-Market/NFT-Contracts/contracts/ERC1155.sol\":8744:8770  _asSingletonArray(tokenId) */\n      jump\t// in\n    tag_225:\n        /* \"Arevea-NFT-Market/NFT-Contracts/contracts/ERC1155.sol\":8772:8797  _asSingletonArray(amount) */\n      tag_227\n        /* \"Arevea-NFT-Market/NFT-Contracts/contracts/ERC1155.sol\":8790:8796  amount */\n      dup9\n        /* \"Arevea-NFT-Market/NFT-Contracts/contracts/ERC1155.sol\":8772:8789  _asSingletonArray */\n      tag_226\n        /* \"Arevea-NFT-Market/NFT-Contracts/contracts/ERC1155.sol\":8772:8797  _asSingletonArray(amount) */\n      jump\t// in\n    tag_227:\n        /* \"Arevea-NFT-Market/NFT-Contracts/contracts/ERC1155.sol\":8799:8803  data */\n      dup8\n        /* \"Arevea-NFT-Market/NFT-Contracts/contracts/ERC1155.sol\":8703:8723  _beforeTokenTransfer */\n      tag_124\n        /* \"Arevea-NFT-Market/NFT-Contracts/contracts/ERC1155.sol\":8703:8804  _beforeTokenTransfer(operator, from, to, _asSingletonArray(tokenId), _asSingletonArray(amount), data) */\n      jump\t// in\n    tag_224:\n        /* \"Arevea-NFT-Market/NFT-Contracts/contracts/ERC1155.sol\":8844:8926  _balances[tokenId][from].sub(amount, \"ERC1155: insufficient balance for transfer\") */\n      tag_228\n        /* \"Arevea-NFT-Market/NFT-Contracts/contracts/ERC1155.sol\":8873:8879  amount */\n      dup4\n        /* \"Arevea-NFT-Market/NFT-Contracts/contracts/ERC1155.sol\":8844:8926  _balances[tokenId][from].sub(amount, \"ERC1155: insufficient balance for transfer\") */\n      mload(0x40)\n      dup1\n      0x60\n      add\n      0x40\n      mstore\n      dup1\n      0x2a\n      dup2\n      mstore\n      0x20\n      add\n      data_8ac7e9556b567c1c94bb4daaa3c3a65be5ac686579615210cb910fb8cb8d65bf\n      0x2a\n      swap2\n      codecopy\n        /* \"Arevea-NFT-Market/NFT-Contracts/contracts/ERC1155.sol\":8844:8853  _balances */\n      0x03\n        /* \"Arevea-NFT-Market/NFT-Contracts/contracts/ERC1155.sol\":8844:8862  _balances[tokenId] */\n      0x00\n        /* \"Arevea-NFT-Market/NFT-Contracts/contracts/ERC1155.sol\":8854:8861  tokenId */\n      dup9\n        /* \"Arevea-NFT-Market/NFT-Contracts/contracts/ERC1155.sol\":8844:8862  _balances[tokenId] */\n      dup2\n      mstore\n      0x20\n      add\n      swap1\n      dup2\n      mstore\n      0x20\n      add\n      0x00\n      keccak256\n        /* \"Arevea-NFT-Market/NFT-Contracts/contracts/ERC1155.sol\":8844:8868  _balances[tokenId][from] */\n      0x00\n        /* \"Arevea-NFT-Market/NFT-Contracts/contracts/ERC1155.sol\":8863:8867  from */\n      dup11\n        /* \"Arevea-NFT-Market/NFT-Contracts/contracts/ERC1155.sol\":8844:8868  _balances[tokenId][from] */\n      0xffffffffffffffffffffffffffffffffffffffff\n      and\n      0xffffffffffffffffffffffffffffffffffffffff\n      and\n      dup2\n      mstore\n      0x20\n      add\n      swap1\n      dup2\n      mstore\n      0x20\n      add\n      0x00\n      keccak256\n      sload\n        /* \"Arevea-NFT-Market/NFT-Contracts/contracts/ERC1155.sol\":8844:8872  _balances[tokenId][from].sub */\n      tag_134\n      swap1\n        /* \"Arevea-NFT-Market/NFT-Contracts/contracts/ERC1155.sol\":8844:8926  _balances[tokenId][from].sub(amount, \"ERC1155: insufficient balance for transfer\") */\n      swap3\n      swap2\n      swap1\n      0xffffffff\n      and\n      jump\t// in\n    tag_228:\n        /* \"Arevea-NFT-Market/NFT-Contracts/contracts/ERC1155.sol\":8817:8826  _balances */\n      0x03\n        /* \"Arevea-NFT-Market/NFT-Contracts/contracts/ERC1155.sol\":8817:8835  _balances[tokenId] */\n      0x00\n        /* \"Arevea-NFT-Market/NFT-Contracts/contracts/ERC1155.sol\":8827:8834  tokenId */\n      dup7\n        /* \"Arevea-NFT-Market/NFT-Contracts/contracts/ERC1155.sol\":8817:8835  _balances[tokenId] */\n      dup2\n      mstore\n      0x20\n      add\n      swap1\n      dup2\n      mstore\n      0x20\n      add\n      0x00\n      keccak256\n        /* \"Arevea-NFT-Market/NFT-Contracts/contracts/ERC1155.sol\":8817:8841  _balances[tokenId][from] */\n      0x00\n        /* \"Arevea-NFT-Market/NFT-Contracts/contracts/ERC1155.sol\":8836:8840  from */\n      dup9\n        /* \"Arevea-NFT-Market/NFT-Contracts/contracts/ERC1155.sol\":8817:8841  _balances[tokenId][from] */\n      0xffffffffffffffffffffffffffffffffffffffff\n      and\n      0xffffffffffffffffffffffffffffffffffffffff\n      and\n      dup2\n      mstore\n      0x20\n      add\n      swap1\n      dup2\n      mstore\n      0x20\n      add\n      0x00\n      keccak256\n        /* \"Arevea-NFT-Market/NFT-Contracts/contracts/ERC1155.sol\":8817:8926  _balances[tokenId][from] = _balances[tokenId][from].sub(amount, \"ERC1155: insufficient balance for transfer\") */\n      dup2\n      swap1\n      sstore\n      pop\n        /* \"Arevea-NFT-Market/NFT-Contracts/contracts/ERC1155.sol\":8962:8996  _balances[tokenId][to].add(amount) */\n      tag_229\n        /* \"Arevea-NFT-Market/NFT-Contracts/contracts/ERC1155.sol\":8989:8995  amount */\n      dup4\n        /* \"Arevea-NFT-Market/NFT-Contracts/contracts/ERC1155.sol\":8962:8971  _balances */\n      0x03\n        /* \"Arevea-NFT-Market/NFT-Contracts/contracts/ERC1155.sol\":8962:8980  _balances[tokenId] */\n      0x00\n        /* \"Arevea-NFT-Market/NFT-Contracts/contracts/ERC1155.sol\":8972:8979  tokenId */\n      dup8\n        /* \"Arevea-NFT-Market/NFT-Contracts/contracts/ERC1155.sol\":8962:8980  _balances[tokenId] */\n      dup2\n      mstore\n      0x20\n      add\n      swap1\n      dup2\n      mstore\n      0x20\n      add\n      0x00\n      keccak256\n        /* \"Arevea-NFT-Market/NFT-Contracts/contracts/ERC1155.sol\":8962:8984  _balances[tokenId][to] */\n      0x00\n        /* \"Arevea-NFT-Market/NFT-Contracts/contracts/ERC1155.sol\":8981:8983  to */\n      dup9\n        /* \"Arevea-NFT-Market/NFT-Contracts/contracts/ERC1155.sol\":8962:8984  _balances[tokenId][to] */\n      0xffffffffffffffffffffffffffffffffffffffff\n      and\n      0xffffffffffffffffffffffffffffffffffffffff\n      and\n      dup2\n      mstore\n      0x20\n      add\n      swap1\n      dup2\n      mstore\n      0x20\n      add\n      0x00\n      keccak256\n      sload\n        /* \"Arevea-NFT-Market/NFT-Contracts/contracts/ERC1155.sol\":8962:8988  _balances[tokenId][to].add */\n      tag_136\n      swap1\n        /* \"Arevea-NFT-Market/NFT-Contracts/contracts/ERC1155.sol\":8962:8996  _balances[tokenId][to].add(amount) */\n      swap2\n      swap1\n      0xffffffff\n      and\n      jump\t// in\n    tag_229:\n        /* \"Arevea-NFT-Market/NFT-Contracts/contracts/ERC1155.sol\":8937:8946  _balances */\n      0x03\n        /* \"Arevea-NFT-Market/NFT-Contracts/contracts/ERC1155.sol\":8937:8955  _balances[tokenId] */\n      0x00\n        /* \"Arevea-NFT-Market/NFT-Contracts/contracts/ERC1155.sol\":8947:8954  tokenId */\n      dup7\n        /* \"Arevea-NFT-Market/NFT-Contracts/contracts/ERC1155.sol\":8937:8955  _balances[tokenId] */\n      dup2\n      mstore\n      0x20\n      add\n      swap1\n      dup2\n      mstore\n      0x20\n      add\n      0x00\n      keccak256\n        /* \"Arevea-NFT-Market/NFT-Contracts/contracts/ERC1155.sol\":8937:8959  _balances[tokenId][to] */\n      0x00\n        /* \"Arevea-NFT-Market/NFT-Contracts/contracts/ERC1155.sol\":8956:8958  to */\n      dup8\n        /* \"Arevea-NFT-Market/NFT-Contracts/contracts/ERC1155.sol\":8937:8959  _balances[tokenId][to] */\n      0xffffffffffffffffffffffffffffffffffffffff\n      and\n      0xffffffffffffffffffffffffffffffffffffffff\n      and\n      dup2\n      mstore\n      0x20\n      add\n      swap1\n      dup2\n      mstore\n      0x20\n      add\n      0x00\n      keccak256\n        /* \"Arevea-NFT-Market/NFT-Contracts/contracts/ERC1155.sol\":8937:8996  _balances[tokenId][to] = _balances[tokenId][to].add(amount) */\n      dup2\n      swap1\n      sstore\n      pop\n        /* \"Arevea-NFT-Market/NFT-Contracts/contracts/ERC1155.sol\":9045:9047  to */\n      dup5\n        /* \"Arevea-NFT-Market/NFT-Contracts/contracts/ERC1155.sol\":9014:9065  TransferSingle(operator, from, to, tokenId, amount) */\n      0xffffffffffffffffffffffffffffffffffffffff\n      and\n        /* \"Arevea-NFT-Market/NFT-Contracts/contracts/ERC1155.sol\":9039:9043  from */\n      dup7\n        /* \"Arevea-NFT-Market/NFT-Contracts/contracts/ERC1155.sol\":9014:9065  TransferSingle(operator, from, to, tokenId, amount) */\n      0xffffffffffffffffffffffffffffffffffffffff\n      and\n        /* \"Arevea-NFT-Market/NFT-Contracts/contracts/ERC1155.sol\":9029:9037  operator */\n      dup3\n        /* \"Arevea-NFT-Market/NFT-Contracts/contracts/ERC1155.sol\":9014:9065  TransferSingle(operator, from, to, tokenId, amount) */\n      0xffffffffffffffffffffffffffffffffffffffff\n      and\n      0xc3d58168c5ae7397731d063d5bbf3d657854427343f4c083240f7aacaa2d0f62\n        /* \"Arevea-NFT-Market/NFT-Contracts/contracts/ERC1155.sol\":9049:9056  tokenId */\n      dup8\n        /* \"Arevea-NFT-Market/NFT-Contracts/contracts/ERC1155.sol\":9058:9064  amount */\n      dup8\n        /* \"Arevea-NFT-Market/NFT-Contracts/contracts/ERC1155.sol\":9014:9065  TransferSingle(operator, from, to, tokenId, amount) */\n      mload(0x40)\n      tag_230\n      swap3\n      swap2\n      swap1\n      tag_231\n      jump\t// in\n    tag_230:\n      mload(0x40)\n      dup1\n      swap2\n      sub\n      swap1\n      log4\n        /* \"Arevea-NFT-Market/NFT-Contracts/contracts/ERC1155.sol\":9078:9151  _doSafeTransferAcceptanceCheck(operator, from, to, tokenId, amount, data) */\n      tag_232\n        /* \"Arevea-NFT-Market/NFT-Contracts/contracts/ERC1155.sol\":9109:9117  operator */\n      dup2\n        /* \"Arevea-NFT-Market/NFT-Contracts/contracts/ERC1155.sol\":9119:9123  from */\n      dup8\n        /* \"Arevea-NFT-Market/NFT-Contracts/contracts/ERC1155.sol\":9125:9127  to */\n      dup8\n        /* \"Arevea-NFT-Market/NFT-Contracts/contracts/ERC1155.sol\":9129:9136  tokenId */\n      dup8\n        /* \"Arevea-NFT-Market/NFT-Contracts/contracts/ERC1155.sol\":9138:9144  amount */\n      dup8\n        /* \"Arevea-NFT-Market/NFT-Contracts/contracts/ERC1155.sol\":9146:9150  data */\n      dup8\n        /* \"Arevea-NFT-Market/NFT-Contracts/contracts/ERC1155.sol\":9078:9108  _doSafeTransferAcceptanceCheck */\n      tag_233\n        /* \"Arevea-NFT-Market/NFT-Contracts/contracts/ERC1155.sol\":9078:9151  _doSafeTransferAcceptanceCheck(operator, from, to, tokenId, amount, data) */\n      jump\t// in\n    tag_232:\n        /* \"Arevea-NFT-Market/NFT-Contracts/contracts/ERC1155.sol\":8407:9159  {\r... */\n      pop\n        /* \"Arevea-NFT-Market/NFT-Contracts/contracts/ERC1155.sol\":8195:9159  function safeTransferFrom(\r... */\n      pop\n      pop\n      pop\n      pop\n      pop\n      jump\t// out\n        /* \"Arevea-NFT-Market/NFT-Contracts/contracts/ERC1155.sol\":3989:4116  function _exists(uint256 tokenId) internal view virtual returns (bool) {\r... */\n    tag_89:\n        /* \"Arevea-NFT-Market/NFT-Contracts/contracts/ERC1155.sol\":4054:4058  bool */\n      0x00\n        /* \"Arevea-NFT-Market/NFT-Contracts/contracts/ERC1155.sol\":4078:4108  _tokenOwners.contains(tokenId) */\n      tag_235\n        /* \"Arevea-NFT-Market/NFT-Contracts/contracts/ERC1155.sol\":4100:4107  tokenId */\n      dup3\n        /* \"Arevea-NFT-Market/NFT-Contracts/contracts/ERC1155.sol\":4078:4090  _tokenOwners */\n      0x07\n        /* \"Arevea-NFT-Market/NFT-Contracts/contracts/ERC1155.sol\":4078:4099  _tokenOwners.contains */\n      tag_236\n      swap1\n        /* \"Arevea-NFT-Market/NFT-Contracts/contracts/ERC1155.sol\":4078:4108  _tokenOwners.contains(tokenId) */\n      swap2\n      swap1\n      0xffffffff\n      and\n      jump\t// in\n    tag_235:\n        /* \"Arevea-NFT-Market/NFT-Contracts/contracts/ERC1155.sol\":4071:4108  return _tokenOwners.contains(tokenId) */\n      swap1\n      pop\n        /* \"Arevea-NFT-Market/NFT-Contracts/contracts/ERC1155.sol\":3989:4116  function _exists(uint256 tokenId) internal view virtual returns (bool) {\r... */\n      swap2\n      swap1\n      pop\n      jump\t// out\n        /* \"Arevea-NFT-Market/NFT-Contracts/contracts/External/EnumerableMap.sol\":2919:3042  function length(UintToAddressMap storage map) internal view returns (uint256) {\r... */\n    tag_106:\n        /* \"Arevea-NFT-Market/NFT-Contracts/contracts/External/EnumerableMap.sol\":2988:2995  uint256 */\n      0x00\n        /* \"Arevea-NFT-Market/NFT-Contracts/contracts/External/EnumerableMap.sol\":3015:3034  _length(map._inner) */\n      tag_238\n        /* \"Arevea-NFT-Market/NFT-Contracts/contracts/External/EnumerableMap.sol\":3023:3026  map */\n      dup3\n        /* \"Arevea-NFT-Market/NFT-Contracts/contracts/External/EnumerableMap.sol\":3023:3033  map._inner */\n      0x00\n      add\n        /* \"Arevea-NFT-Market/NFT-Contracts/contracts/External/EnumerableMap.sol\":3015:3022  _length */\n      tag_239\n        /* \"Arevea-NFT-Market/NFT-Contracts/contracts/External/EnumerableMap.sol\":3015:3034  _length(map._inner) */\n      jump\t// in\n    tag_238:\n        /* \"Arevea-NFT-Market/NFT-Contracts/contracts/External/EnumerableMap.sol\":3008:3034  return _length(map._inner) */\n      swap1\n      pop\n        /* \"Arevea-NFT-Market/NFT-Contracts/contracts/External/EnumerableMap.sol\":2919:3042  function length(UintToAddressMap storage map) internal view returns (uint256) {\r... */\n      swap2\n      swap1\n      pop\n      jump\t// out\n        /* \"Arevea-NFT-Market/NFT-Contracts/contracts/External/Context.sol\":145:260  function _msgSender() internal view virtual returns (address payable) {\r... */\n    tag_115:\n        /* \"Arevea-NFT-Market/NFT-Contracts/contracts/External/Context.sol\":198:213  address payable */\n      0x00\n        /* \"Arevea-NFT-Market/NFT-Contracts/contracts/External/Context.sol\":241:251  msg.sender */\n      caller\n        /* \"Arevea-NFT-Market/NFT-Contracts/contracts/External/Context.sol\":226:252  return payable(msg.sender) */\n      swap1\n      pop\n        /* \"Arevea-NFT-Market/NFT-Contracts/contracts/External/Context.sol\":145:260  function _msgSender() internal view virtual returns (address payable) {\r... */\n      swap1\n      jump\t// out\n        /* \"Arevea-NFT-Market/NFT-Contracts/contracts/ERC1155.sol\":16201:16442  function _beforeTokenTransfer(\r... */\n    tag_124:\n      pop\n      pop\n      pop\n      pop\n      pop\n      pop\n      jump\t// out\n        /* \"Arevea-NFT-Market/NFT-Contracts/contracts/External/SafeMath.sol\":754:946  function sub(uint256 a, uint256 b, string memory errorMessage) internal pure returns (uint256) {\r... */\n    tag_134:\n        /* \"Arevea-NFT-Market/NFT-Contracts/contracts/External/SafeMath.sol\":840:847  uint256 */\n      0x00\n        /* \"Arevea-NFT-Market/NFT-Contracts/contracts/External/SafeMath.sol\":873:874  a */\n      dup4\n        /* \"Arevea-NFT-Market/NFT-Contracts/contracts/External/SafeMath.sol\":868:869  b */\n      dup4\n        /* \"Arevea-NFT-Market/NFT-Contracts/contracts/External/SafeMath.sol\":868:874  b <= a */\n      gt\n      iszero\n        /* \"Arevea-NFT-Market/NFT-Contracts/contracts/External/SafeMath.sol\":876:888  errorMessage */\n      dup3\n        /* \"Arevea-NFT-Market/NFT-Contracts/contracts/External/SafeMath.sol\":860:889  require(b <= a, errorMessage) */\n      swap1\n      tag_243\n      jumpi\n      mload(0x40)\n      0x08c379a000000000000000000000000000000000000000000000000000000000\n      dup2\n      mstore\n      0x04\n      add\n      tag_244\n      swap2\n      swap1\n      tag_36\n      jump\t// in\n    tag_244:\n      mload(0x40)\n      dup1\n      swap2\n      sub\n      swap1\n      revert\n    tag_243:\n      pop\n        /* \"Arevea-NFT-Market/NFT-Contracts/contracts/External/SafeMath.sol\":900:909  uint256 c */\n      0x00\n        /* \"Arevea-NFT-Market/NFT-Contracts/contracts/External/SafeMath.sol\":916:917  b */\n      dup4\n        /* \"Arevea-NFT-Market/NFT-Contracts/contracts/External/SafeMath.sol\":912:913  a */\n      dup6\n        /* \"Arevea-NFT-Market/NFT-Contracts/contracts/External/SafeMath.sol\":912:917  a - b */\n      tag_245\n      swap2\n      swap1\n      tag_246\n      jump\t// in\n    tag_245:\n        /* \"Arevea-NFT-Market/NFT-Contracts/contracts/External/SafeMath.sol\":900:917  uint256 c = a - b */\n      swap1\n      pop\n        /* \"Arevea-NFT-Market/NFT-Contracts/contracts/External/SafeMath.sol\":937:938  c */\n      dup1\n        /* \"Arevea-NFT-Market/NFT-Contracts/contracts/External/SafeMath.sol\":930:938  return c */\n      swap2\n      pop\n      pop\n        /* \"Arevea-NFT-Market/NFT-Contracts/contracts/External/SafeMath.sol\":754:946  function sub(uint256 a, uint256 b, string memory errorMessage) internal pure returns (uint256) {\r... */\n      swap4\n      swap3\n      pop\n      pop\n      pop\n      jump\t// out\n        /* \"Arevea-NFT-Market/NFT-Contracts/contracts/External/SafeMath.sol\":302:483  function add(uint256 a, uint256 b) internal pure returns (uint256) {\r... */\n    tag_136:\n        /* \"Arevea-NFT-Market/NFT-Contracts/contracts/External/SafeMath.sol\":360:367  uint256 */\n      0x00\n        /* \"Arevea-NFT-Market/NFT-Contracts/contracts/External/SafeMath.sol\":380:389  uint256 c */\n      dup1\n        /* \"Arevea-NFT-Market/NFT-Contracts/contracts/External/SafeMath.sol\":396:397  b */\n      dup3\n        /* \"Arevea-NFT-Market/NFT-Contracts/contracts/External/SafeMath.sol\":392:393  a */\n      dup5\n        /* \"Arevea-NFT-Market/NFT-Contracts/contracts/External/SafeMath.sol\":392:397  a + b */\n      tag_248\n      swap2\n      swap1\n      tag_249\n      jump\t// in\n    tag_248:\n        /* \"Arevea-NFT-Market/NFT-Contracts/contracts/External/SafeMath.sol\":380:397  uint256 c = a + b */\n      swap1\n      pop\n        /* \"Arevea-NFT-Market/NFT-Contracts/contracts/External/SafeMath.sol\":421:422  a */\n      dup4\n        /* \"Arevea-NFT-Market/NFT-Contracts/contracts/External/SafeMath.sol\":416:417  c */\n      dup2\n        /* \"Arevea-NFT-Market/NFT-Contracts/contracts/External/SafeMath.sol\":416:422  c >= a */\n      lt\n      iszero\n        /* \"Arevea-NFT-Market/NFT-Contracts/contracts/External/SafeMath.sol\":408:454  require(c >= a, \"SafeMath: addition overflow\") */\n      tag_250\n      jumpi\n      mload(0x40)\n      0x08c379a000000000000000000000000000000000000000000000000000000000\n      dup2\n      mstore\n      0x04\n      add\n      tag_251\n      swap1\n      tag_252\n      jump\t// in\n    tag_251:\n      mload(0x40)\n      dup1\n      swap2\n      sub\n      swap1\n      revert\n    tag_250:\n        /* \"Arevea-NFT-Market/NFT-Contracts/contracts/External/SafeMath.sol\":474:475  c */\n      dup1\n        /* \"Arevea-NFT-Market/NFT-Contracts/contracts/External/SafeMath.sol\":467:475  return c */\n      swap2\n      pop\n      pop\n        /* \"Arevea-NFT-Market/NFT-Contracts/contracts/External/SafeMath.sol\":302:483  function add(uint256 a, uint256 b) internal pure returns (uint256) {\r... */\n      swap3\n      swap2\n      pop\n      pop\n      jump\t// out\n        /* \"Arevea-NFT-Market/NFT-Contracts/contracts/ERC1155.sol\":17230:18039  function _doSafeBatchTransferAcceptanceCheck(\r... */\n    tag_142:\n        /* \"Arevea-NFT-Market/NFT-Contracts/contracts/ERC1155.sol\":17489:17504  to.isContract() */\n      tag_254\n        /* \"Arevea-NFT-Market/NFT-Contracts/contracts/ERC1155.sol\":17489:17491  to */\n      dup5\n        /* \"Arevea-NFT-Market/NFT-Contracts/contracts/ERC1155.sol\":17489:17502  to.isContract */\n      0xffffffffffffffffffffffffffffffffffffffff\n      and\n      tag_255\n        /* \"Arevea-NFT-Market/NFT-Contracts/contracts/ERC1155.sol\":17489:17504  to.isContract() */\n      jump\t// in\n    tag_254:\n        /* \"Arevea-NFT-Market/NFT-Contracts/contracts/ERC1155.sol\":17485:18032  if (to.isContract()) {\r... */\n      iszero\n      tag_256\n      jumpi\n        /* \"Arevea-NFT-Market/NFT-Contracts/contracts/ERC1155.sol\":17542:17544  to */\n      dup4\n        /* \"Arevea-NFT-Market/NFT-Contracts/contracts/ERC1155.sol\":17525:17568  IERC1155Receiver(to).onERC1155BatchReceived */\n      0xffffffffffffffffffffffffffffffffffffffff\n      and\n      0xbc197c81\n        /* \"Arevea-NFT-Market/NFT-Contracts/contracts/ERC1155.sol\":17569:17577  operator */\n      dup8\n        /* \"Arevea-NFT-Market/NFT-Contracts/contracts/ERC1155.sol\":17579:17583  from */\n      dup8\n        /* \"Arevea-NFT-Market/NFT-Contracts/contracts/ERC1155.sol\":17585:17593  tokenIds */\n      dup7\n        /* \"Arevea-NFT-Market/NFT-Contracts/contracts/ERC1155.sol\":17595:17602  amounts */\n      dup7\n        /* \"Arevea-NFT-Market/NFT-Contracts/contracts/ERC1155.sol\":17604:17608  data */\n      dup7\n        /* \"Arevea-NFT-Market/NFT-Contracts/contracts/ERC1155.sol\":17525:17609  IERC1155Receiver(to).onERC1155BatchReceived(operator, from, tokenIds, amounts, data) */\n      mload(0x40)\n      dup7\n      0xffffffff\n      and\n      0xe0\n      shl\n      dup2\n      mstore\n      0x04\n      add\n      tag_257\n      swap6\n      swap5\n      swap4\n      swap3\n      swap2\n      swap1\n      tag_258\n      jump\t// in\n    tag_257:\n      0x20\n      mload(0x40)\n      dup1\n      dup4\n      sub\n      dup2\n      0x00\n      dup8\n      dup1\n      extcodesize\n      iszero\n      dup1\n      iszero\n      tag_259\n      jumpi\n      0x00\n      dup1\n      revert\n    tag_259:\n      pop\n      gas\n      call\n      swap3\n      pop\n      pop\n      pop\n      dup1\n      iszero\n      tag_260\n      jumpi\n      pop\n      mload(0x40)\n      returndatasize\n      not(0x1f)\n      0x1f\n      dup3\n      add\n      and\n      dup3\n      add\n      dup1\n      0x40\n      mstore\n      pop\n      dup2\n      add\n      swap1\n      tag_261\n      swap2\n      swap1\n      tag_262\n      jump\t// in\n    tag_261:\n      0x01\n    tag_260:\n        /* \"Arevea-NFT-Market/NFT-Contracts/contracts/ERC1155.sol\":17521:18021  try IERC1155Receiver(to).onERC1155BatchReceived(operator, from, tokenIds, amounts, data) returns (bytes4 response) {\r... */\n      tag_263\n      jumpi\n      tag_267\n      tag_268\n      jump\t// in\n    tag_267:\n      dup1\n      0x08c379a0\n      eq\n      iszero\n      tag_266\n      jumpi\n      pop\n      tag_269\n      tag_270\n      jump\t// in\n    tag_269:\n      dup1\n      tag_271\n      jumpi\n      pop\n      jump(tag_265)\n    tag_271:\n        /* \"Arevea-NFT-Market/NFT-Contracts/contracts/ERC1155.sol\":17894:17900  reason */\n      dup1\n        /* \"Arevea-NFT-Market/NFT-Contracts/contracts/ERC1155.sol\":17887:17901  revert(reason) */\n      mload(0x40)\n      0x08c379a000000000000000000000000000000000000000000000000000000000\n      dup2\n      mstore\n      0x04\n      add\n      tag_272\n      swap2\n      swap1\n      tag_36\n      jump\t// in\n    tag_272:\n      mload(0x40)\n      dup1\n      swap2\n      sub\n      swap1\n      revert\n        /* \"Arevea-NFT-Market/NFT-Contracts/contracts/ERC1155.sol\":17521:18021  try IERC1155Receiver(to).onERC1155BatchReceived(operator, from, tokenIds, amounts, data) returns (bytes4 response) {\r... */\n    tag_266:\n      pop\n    tag_265:\n        /* \"Arevea-NFT-Market/NFT-Contracts/contracts/ERC1155.sol\":17943:18005  revert(\"ERC1155: transfer to non ERC1155Receiver implementer\") */\n      mload(0x40)\n      0x08c379a000000000000000000000000000000000000000000000000000000000\n      dup2\n      mstore\n      0x04\n      add\n      tag_273\n      swap1\n      tag_274\n      jump\t// in\n    tag_273:\n      mload(0x40)\n      dup1\n      swap2\n      sub\n      swap1\n      revert\n        /* \"Arevea-NFT-Market/NFT-Contracts/contracts/ERC1155.sol\":17521:18021  try IERC1155Receiver(to).onERC1155BatchReceived(operator, from, tokenIds, amounts, data) returns (bytes4 response) {\r... */\n    tag_263:\n        /* \"Arevea-NFT-Market/NFT-Contracts/contracts/ERC1155.sol\":17671:17723  IERC1155Receiver(to).onERC1155BatchReceived.selector */\n      shl(0xe0, 0xbc197c81)\n        /* \"Arevea-NFT-Market/NFT-Contracts/contracts/ERC1155.sol\":17659:17723  response != IERC1155Receiver(to).onERC1155BatchReceived.selector */\n      not(0xffffffffffffffffffffffffffffffffffffffffffffffffffffffff)\n      and\n        /* \"Arevea-NFT-Market/NFT-Contracts/contracts/ERC1155.sol\":17659:17667  response */\n      dup2\n        /* \"Arevea-NFT-Market/NFT-Contracts/contracts/ERC1155.sol\":17659:17723  response != IERC1155Receiver(to).onERC1155BatchReceived.selector */\n      not(0xffffffffffffffffffffffffffffffffffffffffffffffffffffffff)\n      and\n      eq\n        /* \"Arevea-NFT-Market/NFT-Contracts/contracts/ERC1155.sol\":17655:17818  if (response != IERC1155Receiver(to).onERC1155BatchReceived.selector) {\r... */\n      tag_276\n      jumpi\n        /* \"Arevea-NFT-Market/NFT-Contracts/contracts/ERC1155.sol\":17748:17798  revert(\"ERC1155: ERC1155Receiver rejected tokens\") */\n      mload(0x40)\n      0x08c379a000000000000000000000000000000000000000000000000000000000\n      dup2\n      mstore\n      0x04\n      add\n      tag_277\n      swap1\n      tag_278\n      jump\t// in\n    tag_277:\n      mload(0x40)\n      dup1\n      swap2\n      sub\n      swap1\n      revert\n        /* \"Arevea-NFT-Market/NFT-Contracts/contracts/ERC1155.sol\":17655:17818  if (response != IERC1155Receiver(to).onERC1155BatchReceived.selector) {\r... */\n    tag_276:\n        /* \"Arevea-NFT-Market/NFT-Contracts/contracts/ERC1155.sol\":17610:17833  returns (bytes4 response) {\r... */\n      pop\n        /* \"Arevea-NFT-Market/NFT-Contracts/contracts/ERC1155.sol\":17485:18032  if (to.isContract()) {\r... */\n    tag_256:\n        /* \"Arevea-NFT-Market/NFT-Contracts/contracts/ERC1155.sol\":17230:18039  function _doSafeBatchTransferAcceptanceCheck(\r... */\n      pop\n      pop\n      pop\n      pop\n      pop\n      pop\n      jump\t// out\n        /* \"Arevea-NFT-Market/NFT-Contracts/contracts/External/EnumerableMap.sol\":3294:3507  function get(UintToAddressMap storage map, uint256 key, string memory errorMessage) internal view returns (address) {\r... */\n    tag_168:\n        /* \"Arevea-NFT-Market/NFT-Contracts/contracts/External/EnumerableMap.sol\":3401:3408  address */\n      0x00\n        /* \"Arevea-NFT-Market/NFT-Contracts/contracts/External/EnumerableMap.sol\":3452:3496  _get(map._inner, bytes32(key), errorMessage) */\n      tag_280\n        /* \"Arevea-NFT-Market/NFT-Contracts/contracts/External/EnumerableMap.sol\":3457:3460  map */\n      dup5\n        /* \"Arevea-NFT-Market/NFT-Contracts/contracts/External/EnumerableMap.sol\":3457:3467  map._inner */\n      0x00\n      add\n        /* \"Arevea-NFT-Market/NFT-Contracts/contracts/External/EnumerableMap.sol\":3477:3480  key */\n      dup5\n        /* \"Arevea-NFT-Market/NFT-Contracts/contracts/External/EnumerableMap.sol\":3469:3481  bytes32(key) */\n      0x00\n      shl\n        /* \"Arevea-NFT-Market/NFT-Contracts/contracts/External/EnumerableMap.sol\":3483:3495  errorMessage */\n      dup5\n        /* \"Arevea-NFT-Market/NFT-Contracts/contracts/External/EnumerableMap.sol\":3452:3456  _get */\n      tag_281\n        /* \"Arevea-NFT-Market/NFT-Contracts/contracts/External/EnumerableMap.sol\":3452:3496  _get(map._inner, bytes32(key), errorMessage) */\n      jump\t// in\n    tag_280:\n        /* \"Arevea-NFT-Market/NFT-Contracts/contracts/External/EnumerableMap.sol\":3444:3497  uint256(_get(map._inner, bytes32(key), errorMessage)) */\n      0x00\n      shr\n        /* \"Arevea-NFT-Market/NFT-Contracts/contracts/External/EnumerableMap.sol\":3421:3499  return address(uint160(uint256(_get(map._inner, bytes32(key), errorMessage)))) */\n      swap1\n      pop\n        /* \"Arevea-NFT-Market/NFT-Contracts/contracts/External/EnumerableMap.sol\":3294:3507  function get(UintToAddressMap storage map, uint256 key, string memory errorMessage) internal view returns (address) {\r... */\n      swap4\n      swap3\n      pop\n      pop\n      pop\n      jump\t// out\n        /* \"Arevea-NFT-Market/NFT-Contracts/contracts/External/Strings.sol\":388:1111  function toString(uint256 value) internal pure returns (string memory) {\r... */\n    tag_209:\n        /* \"Arevea-NFT-Market/NFT-Contracts/contracts/External/Strings.sol\":444:457  string memory */\n      0x60\n        /* \"Arevea-NFT-Market/NFT-Contracts/contracts/External/Strings.sol\":674:675  0 */\n      0x00\n        /* \"Arevea-NFT-Market/NFT-Contracts/contracts/External/Strings.sol\":665:670  value */\n      dup3\n        /* \"Arevea-NFT-Market/NFT-Contracts/contracts/External/Strings.sol\":665:675  value == 0 */\n      eq\n        /* \"Arevea-NFT-Market/NFT-Contracts/contracts/External/Strings.sol\":661:714  if (value == 0) {\r... */\n      iszero\n      tag_283\n      jumpi\n        /* \"Arevea-NFT-Market/NFT-Contracts/contracts/External/Strings.sol\":692:702  return \"0\" */\n      mload(0x40)\n      dup1\n      0x40\n      add\n      0x40\n      mstore\n      dup1\n      0x01\n      dup2\n      mstore\n      0x20\n      add\n      0x3000000000000000000000000000000000000000000000000000000000000000\n      dup2\n      mstore\n      pop\n      swap1\n      pop\n      jump(tag_282)\n        /* \"Arevea-NFT-Market/NFT-Contracts/contracts/External/Strings.sol\":661:714  if (value == 0) {\r... */\n    tag_283:\n        /* \"Arevea-NFT-Market/NFT-Contracts/contracts/External/Strings.sol\":724:736  uint256 temp */\n      0x00\n        /* \"Arevea-NFT-Market/NFT-Contracts/contracts/External/Strings.sol\":739:744  value */\n      dup3\n        /* \"Arevea-NFT-Market/NFT-Contracts/contracts/External/Strings.sol\":724:744  uint256 temp = value */\n      swap1\n      pop\n        /* \"Arevea-NFT-Market/NFT-Contracts/contracts/External/Strings.sol\":755:769  uint256 digits */\n      0x00\n        /* \"Arevea-NFT-Market/NFT-Contracts/contracts/External/Strings.sol\":780:858  while (temp != 0) {\r... */\n    tag_284:\n        /* \"Arevea-NFT-Market/NFT-Contracts/contracts/External/Strings.sol\":795:796  0 */\n      0x00\n        /* \"Arevea-NFT-Market/NFT-Contracts/contracts/External/Strings.sol\":787:791  temp */\n      dup3\n        /* \"Arevea-NFT-Market/NFT-Contracts/contracts/External/Strings.sol\":787:796  temp != 0 */\n      eq\n        /* \"Arevea-NFT-Market/NFT-Contracts/contracts/External/Strings.sol\":780:858  while (temp != 0) {\r... */\n      tag_285\n      jumpi\n        /* \"Arevea-NFT-Market/NFT-Contracts/contracts/External/Strings.sol\":813:821  digits++ */\n      dup1\n      dup1\n      tag_286\n      swap1\n      tag_138\n      jump\t// in\n    tag_286:\n      swap2\n      pop\n      pop\n        /* \"Arevea-NFT-Market/NFT-Contracts/contracts/External/Strings.sol\":844:846  10 */\n      0x0a\n        /* \"Arevea-NFT-Market/NFT-Contracts/contracts/External/Strings.sol\":836:846  temp /= 10 */\n      dup3\n      tag_287\n      swap2\n      swap1\n      tag_288\n      jump\t// in\n    tag_287:\n      swap2\n      pop\n        /* \"Arevea-NFT-Market/NFT-Contracts/contracts/External/Strings.sol\":780:858  while (temp != 0) {\r... */\n      jump(tag_284)\n    tag_285:\n        /* \"Arevea-NFT-Market/NFT-Contracts/contracts/External/Strings.sol\":868:887  bytes memory buffer */\n      0x00\n        /* \"Arevea-NFT-Market/NFT-Contracts/contracts/External/Strings.sol\":900:906  digits */\n      dup2\n        /* \"Arevea-NFT-Market/NFT-Contracts/contracts/External/Strings.sol\":890:907  new bytes(digits) */\n      0xffffffffffffffff\n      dup2\n      gt\n      iszero\n      tag_289\n      jumpi\n      tag_290\n      tag_149\n      jump\t// in\n    tag_290:\n    tag_289:\n      mload(0x40)\n      swap1\n      dup1\n      dup3\n      mstore\n      dup1\n      0x1f\n      add\n      not(0x1f)\n      and\n      0x20\n      add\n      dup3\n      add\n      0x40\n      mstore\n      dup1\n      iszero\n      tag_291\n      jumpi\n      dup2\n      0x20\n      add\n      0x01\n      dup3\n      mul\n      dup1\n      calldatasize\n      dup4\n      calldatacopy\n      dup1\n      dup3\n      add\n      swap2\n      pop\n      pop\n      swap1\n      pop\n    tag_291:\n      pop\n        /* \"Arevea-NFT-Market/NFT-Contracts/contracts/External/Strings.sol\":868:907  bytes memory buffer = new bytes(digits) */\n      swap1\n      pop\n        /* \"Arevea-NFT-Market/NFT-Contracts/contracts/External/Strings.sol\":918:1072  while (value != 0) {\r... */\n    tag_292:\n        /* \"Arevea-NFT-Market/NFT-Contracts/contracts/External/Strings.sol\":934:935  0 */\n      0x00\n        /* \"Arevea-NFT-Market/NFT-Contracts/contracts/External/Strings.sol\":925:930  value */\n      dup6\n        /* \"Arevea-NFT-Market/NFT-Contracts/contracts/External/Strings.sol\":925:935  value != 0 */\n      eq\n        /* \"Arevea-NFT-Market/NFT-Contracts/contracts/External/Strings.sol\":918:1072  while (value != 0) {\r... */\n      tag_293\n      jumpi\n        /* \"Arevea-NFT-Market/NFT-Contracts/contracts/External/Strings.sol\":962:963  1 */\n      0x01\n        /* \"Arevea-NFT-Market/NFT-Contracts/contracts/External/Strings.sol\":952:963  digits -= 1 */\n      dup3\n      tag_294\n      swap2\n      swap1\n      tag_246\n      jump\t// in\n    tag_294:\n      swap2\n      pop\n        /* \"Arevea-NFT-Market/NFT-Contracts/contracts/External/Strings.sol\":1029:1031  10 */\n      0x0a\n        /* \"Arevea-NFT-Market/NFT-Contracts/contracts/External/Strings.sol\":1021:1026  value */\n      dup6\n        /* \"Arevea-NFT-Market/NFT-Contracts/contracts/External/Strings.sol\":1021:1031  value % 10 */\n      tag_295\n      swap2\n      swap1\n      tag_296\n      jump\t// in\n    tag_295:\n        /* \"Arevea-NFT-Market/NFT-Contracts/contracts/External/Strings.sol\":1008:1010  48 */\n      0x30\n        /* \"Arevea-NFT-Market/NFT-Contracts/contracts/External/Strings.sol\":1008:1032  48 + uint256(value % 10) */\n      tag_297\n      swap2\n      swap1\n      tag_249\n      jump\t// in\n    tag_297:\n        /* \"Arevea-NFT-Market/NFT-Contracts/contracts/External/Strings.sol\":995:1034  bytes1(uint8(48 + uint256(value % 10))) */\n      0xf8\n      shl\n        /* \"Arevea-NFT-Market/NFT-Contracts/contracts/External/Strings.sol\":978:984  buffer */\n      dup2\n        /* \"Arevea-NFT-Market/NFT-Contracts/contracts/External/Strings.sol\":985:991  digits */\n      dup4\n        /* \"Arevea-NFT-Market/NFT-Contracts/contracts/External/Strings.sol\":978:992  buffer[digits] */\n      dup2\n      mload\n      dup2\n      lt\n      tag_298\n      jumpi\n      tag_299\n      tag_130\n      jump\t// in\n    tag_299:\n    tag_298:\n      0x20\n      add\n      add\n        /* \"Arevea-NFT-Market/NFT-Contracts/contracts/External/Strings.sol\":978:1034  buffer[digits] = bytes1(uint8(48 + uint256(value % 10))) */\n      swap1\n      not(0xffffffffffffffffffffffffffffffffffffffffffffffffffffffffffffff)\n      and\n      swap1\n      dup2\n      0x00\n      byte\n      swap1\n      mstore8\n      pop\n        /* \"Arevea-NFT-Market/NFT-Contracts/contracts/External/Strings.sol\":1058:1060  10 */\n      0x0a\n        /* \"Arevea-NFT-Market/NFT-Contracts/contracts/External/Strings.sol\":1049:1060  value /= 10 */\n      dup6\n      tag_300\n      swap2\n      swap1\n      tag_288\n      jump\t// in\n    tag_300:\n      swap5\n      pop\n        /* \"Arevea-NFT-Market/NFT-Contracts/contracts/External/Strings.sol\":918:1072  while (value != 0) {\r... */\n      jump(tag_292)\n    tag_293:\n        /* \"Arevea-NFT-Market/NFT-Contracts/contracts/External/Strings.sol\":1096:1102  buffer */\n      dup1\n        /* \"Arevea-NFT-Market/NFT-Contracts/contracts/External/Strings.sol\":1082:1103  return string(buffer) */\n      swap4\n      pop\n      pop\n      pop\n      pop\n        /* \"Arevea-NFT-Market/NFT-Contracts/contracts/External/Strings.sol\":388:1111  function toString(uint256 value) internal pure returns (string memory) {\r... */\n    tag_282:\n      swap2\n      swap1\n      pop\n      jump\t// out\n        /* \"Arevea-NFT-Market/NFT-Contracts/contracts/ERC1155.sol\":18047:18245  function _asSingletonArray(uint256 element) private pure returns (uint256[] memory) {\r... */\n    tag_226:\n        /* \"Arevea-NFT-Market/NFT-Contracts/contracts/ERC1155.sol\":18113:18129  uint256[] memory */\n      0x60\n        /* \"Arevea-NFT-Market/NFT-Contracts/contracts/ERC1155.sol\":18142:18164  uint256[] memory array */\n      0x00\n        /* \"Arevea-NFT-Market/NFT-Contracts/contracts/ERC1155.sol\":18181:18182  1 */\n      0x01\n        /* \"Arevea-NFT-Market/NFT-Contracts/contracts/ERC1155.sol\":18167:18183  new uint256[](1) */\n      0xffffffffffffffff\n      dup2\n      gt\n      iszero\n      tag_302\n      jumpi\n      tag_303\n      tag_149\n      jump\t// in\n    tag_303:\n    tag_302:\n      mload(0x40)\n      swap1\n      dup1\n      dup3\n      mstore\n      dup1\n      0x20\n      mul\n      0x20\n      add\n      dup3\n      add\n      0x40\n      mstore\n      dup1\n      iszero\n      tag_304\n      jumpi\n      dup2\n      0x20\n      add\n      0x20\n      dup3\n      mul\n      dup1\n      calldatasize\n      dup4\n      calldatacopy\n      dup1\n      dup3\n      add\n      swap2\n      pop\n      pop\n      swap1\n      pop\n    tag_304:\n      pop\n        /* \"Arevea-NFT-Market/NFT-Contracts/contracts/ERC1155.sol\":18142:18183  uint256[] memory array = new uint256[](1) */\n      swap1\n      pop\n        /* \"Arevea-NFT-Market/NFT-Contracts/contracts/ERC1155.sol\":18205:18212  element */\n      dup3\n        /* \"Arevea-NFT-Market/NFT-Contracts/contracts/ERC1155.sol\":18194:18199  array */\n      dup2\n        /* \"Arevea-NFT-Market/NFT-Contracts/contracts/ERC1155.sol\":18200:18201  0 */\n      0x00\n        /* \"Arevea-NFT-Market/NFT-Contracts/contracts/ERC1155.sol\":18194:18202  array[0] */\n      dup2\n      mload\n      dup2\n      lt\n      tag_305\n      jumpi\n      tag_306\n      tag_130\n      jump\t// in\n    tag_306:\n    tag_305:\n      0x20\n      mul\n      0x20\n      add\n      add\n        /* \"Arevea-NFT-Market/NFT-Contracts/contracts/ERC1155.sol\":18194:18212  array[0] = element */\n      dup2\n      dup2\n      mstore\n      pop\n      pop\n        /* \"Arevea-NFT-Market/NFT-Contracts/contracts/ERC1155.sol\":18232:18237  array */\n      dup1\n        /* \"Arevea-NFT-Market/NFT-Contracts/contracts/ERC1155.sol\":18225:18237  return array */\n      swap2\n      pop\n      pop\n        /* \"Arevea-NFT-Market/NFT-Contracts/contracts/ERC1155.sol\":18047:18245  function _asSingletonArray(uint256 element) private pure returns (uint256[] memory) {\r... */\n      swap2\n      swap1\n      pop\n      jump\t// out\n        /* \"Arevea-NFT-Market/NFT-Contracts/contracts/ERC1155.sol\":16450:17222  function _doSafeTransferAcceptanceCheck(\r... */\n    tag_233:\n        /* \"Arevea-NFT-Market/NFT-Contracts/contracts/ERC1155.sol\":16684:16699  to.isContract() */\n      tag_308\n        /* \"Arevea-NFT-Market/NFT-Contracts/contracts/ERC1155.sol\":16684:16686  to */\n      dup5\n        /* \"Arevea-NFT-Market/NFT-Contracts/contracts/ERC1155.sol\":16684:16697  to.isContract */\n      0xffffffffffffffffffffffffffffffffffffffff\n      and\n      tag_255\n        /* \"Arevea-NFT-Market/NFT-Contracts/contracts/ERC1155.sol\":16684:16699  to.isContract() */\n      jump\t// in\n    tag_308:\n        /* \"Arevea-NFT-Market/NFT-Contracts/contracts/ERC1155.sol\":16680:17215  if (to.isContract()) {\r... */\n      iszero\n      tag_309\n      jumpi\n        /* \"Arevea-NFT-Market/NFT-Contracts/contracts/ERC1155.sol\":16737:16739  to */\n      dup4\n        /* \"Arevea-NFT-Market/NFT-Contracts/contracts/ERC1155.sol\":16720:16758  IERC1155Receiver(to).onERC1155Received */\n      0xffffffffffffffffffffffffffffffffffffffff\n      and\n      0xf23a6e61\n        /* \"Arevea-NFT-Market/NFT-Contracts/contracts/ERC1155.sol\":16759:16767  operator */\n      dup8\n        /* \"Arevea-NFT-Market/NFT-Contracts/contracts/ERC1155.sol\":16769:16773  from */\n      dup8\n        /* \"Arevea-NFT-Market/NFT-Contracts/contracts/ERC1155.sol\":16775:16782  tokenId */\n      dup7\n        /* \"Arevea-NFT-Market/NFT-Contracts/contracts/ERC1155.sol\":16784:16790  amount */\n      dup7\n        /* \"Arevea-NFT-Market/NFT-Contracts/contracts/ERC1155.sol\":16792:16796  data */\n      dup7\n        /* \"Arevea-NFT-Market/NFT-Contracts/contracts/ERC1155.sol\":16720:16797  IERC1155Receiver(to).onERC1155Received(operator, from, tokenId, amount, data) */\n      mload(0x40)\n      dup7\n      0xffffffff\n      and\n      0xe0\n      shl\n      dup2\n      mstore\n      0x04\n      add\n      tag_310\n      swap6\n      swap5\n      swap4\n      swap3\n      swap2\n      swap1\n      tag_311\n      jump\t// in\n    tag_310:\n      0x20\n      mload(0x40)\n      dup1\n      dup4\n      sub\n      dup2\n      0x00\n      dup8\n      dup1\n      extcodesize\n      iszero\n      dup1\n      iszero\n      tag_312\n      jumpi\n      0x00\n      dup1\n      revert\n    tag_312:\n      pop\n      gas\n      call\n      swap3\n      pop\n      pop\n      pop\n      dup1\n      iszero\n      tag_313\n      jumpi\n      pop\n      mload(0x40)\n      returndatasize\n      not(0x1f)\n      0x1f\n      dup3\n      add\n      and\n      dup3\n      add\n      dup1\n      0x40\n      mstore\n      pop\n      dup2\n      add\n      swap1\n      tag_314\n      swap2\n      swap1\n      tag_262\n      jump\t// in\n    tag_314:\n      0x01\n    tag_313:\n        /* \"Arevea-NFT-Market/NFT-Contracts/contracts/ERC1155.sol\":16716:17204  try IERC1155Receiver(to).onERC1155Received(operator, from, tokenId, amount, data) returns (bytes4 response) {\r... */\n      tag_315\n      jumpi\n      tag_319\n      tag_268\n      jump\t// in\n    tag_319:\n      dup1\n      0x08c379a0\n      eq\n      iszero\n      tag_318\n      jumpi\n      pop\n      tag_320\n      tag_270\n      jump\t// in\n    tag_320:\n      dup1\n      tag_321\n      jumpi\n      pop\n      jump(tag_317)\n    tag_321:\n        /* \"Arevea-NFT-Market/NFT-Contracts/contracts/ERC1155.sol\":17077:17083  reason */\n      dup1\n        /* \"Arevea-NFT-Market/NFT-Contracts/contracts/ERC1155.sol\":17070:17084  revert(reason) */\n      mload(0x40)\n      0x08c379a000000000000000000000000000000000000000000000000000000000\n      dup2\n      mstore\n      0x04\n      add\n      tag_322\n      swap2\n      swap1\n      tag_36\n      jump\t// in\n    tag_322:\n      mload(0x40)\n      dup1\n      swap2\n      sub\n      swap1\n      revert\n        /* \"Arevea-NFT-Market/NFT-Contracts/contracts/ERC1155.sol\":16716:17204  try IERC1155Receiver(to).onERC1155Received(operator, from, tokenId, amount, data) returns (bytes4 response) {\r... */\n    tag_318:\n      pop\n    tag_317:\n        /* \"Arevea-NFT-Market/NFT-Contracts/contracts/ERC1155.sol\":17126:17188  revert(\"ERC1155: transfer to non ERC1155Receiver implementer\") */\n      mload(0x40)\n      0x08c379a000000000000000000000000000000000000000000000000000000000\n      dup2\n      mstore\n      0x04\n      add\n      tag_323\n      swap1\n      tag_274\n      jump\t// in\n    tag_323:\n      mload(0x40)\n      dup1\n      swap2\n      sub\n      swap1\n      revert\n        /* \"Arevea-NFT-Market/NFT-Contracts/contracts/ERC1155.sol\":16716:17204  try IERC1155Receiver(to).onERC1155Received(operator, from, tokenId, amount, data) returns (bytes4 response) {\r... */\n    tag_315:\n        /* \"Arevea-NFT-Market/NFT-Contracts/contracts/ERC1155.sol\":16859:16906  IERC1155Receiver(to).onERC1155Received.selector */\n      shl(0xe0, 0xf23a6e61)\n        /* \"Arevea-NFT-Market/NFT-Contracts/contracts/ERC1155.sol\":16847:16906  response != IERC1155Receiver(to).onERC1155Received.selector */\n      not(0xffffffffffffffffffffffffffffffffffffffffffffffffffffffff)\n      and\n        /* \"Arevea-NFT-Market/NFT-Contracts/contracts/ERC1155.sol\":16847:16855  response */\n      dup2\n        /* \"Arevea-NFT-Market/NFT-Contracts/contracts/ERC1155.sol\":16847:16906  response != IERC1155Receiver(to).onERC1155Received.selector */\n      not(0xffffffffffffffffffffffffffffffffffffffffffffffffffffffff)\n      and\n      eq\n        /* \"Arevea-NFT-Market/NFT-Contracts/contracts/ERC1155.sol\":16843:17001  if (response != IERC1155Receiver(to).onERC1155Received.selector) {\r... */\n      tag_325\n      jumpi\n        /* \"Arevea-NFT-Market/NFT-Contracts/contracts/ERC1155.sol\":16931:16981  revert(\"ERC1155: ERC1155Receiver rejected tokens\") */\n      mload(0x40)\n      0x08c379a000000000000000000000000000000000000000000000000000000000\n      dup2\n      mstore\n      0x04\n      add\n      tag_326\n      swap1\n      tag_278\n      jump\t// in\n    tag_326:\n      mload(0x40)\n      dup1\n      swap2\n      sub\n      swap1\n      revert\n        /* \"Arevea-NFT-Market/NFT-Contracts/contracts/ERC1155.sol\":16843:17001  if (response != IERC1155Receiver(to).onERC1155Received.selector) {\r... */\n    tag_325:\n        /* \"Arevea-NFT-Market/NFT-Contracts/contracts/ERC1155.sol\":16798:17016  returns (bytes4 response) {\r... */\n      pop\n        /* \"Arevea-NFT-Market/NFT-Contracts/contracts/ERC1155.sol\":16680:17215  if (to.isContract()) {\r... */\n    tag_309:\n        /* \"Arevea-NFT-Market/NFT-Contracts/contracts/ERC1155.sol\":16450:17222  function _doSafeTransferAcceptanceCheck(\r... */\n      pop\n      pop\n      pop\n      pop\n      pop\n      pop\n      jump\t// out\n        /* \"Arevea-NFT-Market/NFT-Contracts/contracts/External/EnumerableMap.sol\":2760:2911  function contains(UintToAddressMap storage map, uint256 key) internal view returns (bool) {\r... */\n    tag_236:\n        /* \"Arevea-NFT-Market/NFT-Contracts/contracts/External/EnumerableMap.sol\":2844:2848  bool */\n      0x00\n        /* \"Arevea-NFT-Market/NFT-Contracts/contracts/External/EnumerableMap.sol\":2868:2903  _contains(map._inner, bytes32(key)) */\n      tag_328\n        /* \"Arevea-NFT-Market/NFT-Contracts/contracts/External/EnumerableMap.sol\":2878:2881  map */\n      dup4\n        /* \"Arevea-NFT-Market/NFT-Contracts/contracts/External/EnumerableMap.sol\":2878:2888  map._inner */\n      0x00\n      add\n        /* \"Arevea-NFT-Market/NFT-Contracts/contracts/External/EnumerableMap.sol\":2898:2901  key */\n      dup4\n        /* \"Arevea-NFT-Market/NFT-Contracts/contracts/External/EnumerableMap.sol\":2890:2902  bytes32(key) */\n      0x00\n      shl\n        /* \"Arevea-NFT-Market/NFT-Contracts/contracts/External/EnumerableMap.sol\":2868:2877  _contains */\n      tag_329\n        /* \"Arevea-NFT-Market/NFT-Contracts/contracts/External/EnumerableMap.sol\":2868:2903  _contains(map._inner, bytes32(key)) */\n      jump\t// in\n    tag_328:\n        /* \"Arevea-NFT-Market/NFT-Contracts/contracts/External/EnumerableMap.sol\":2861:2903  return _contains(map._inner, bytes32(key)) */\n      swap1\n      pop\n        /* \"Arevea-NFT-Market/NFT-Contracts/contracts/External/EnumerableMap.sol\":2760:2911  function contains(UintToAddressMap storage map, uint256 key) internal view returns (bool) {\r... */\n      swap3\n      swap2\n      pop\n      pop\n      jump\t// out\n        /* \"Arevea-NFT-Market/NFT-Contracts/contracts/External/EnumerableMap.sol\":1624:1734  function _length(Map storage map) private view returns (uint256) {\r... */\n    tag_239:\n        /* \"Arevea-NFT-Market/NFT-Contracts/contracts/External/EnumerableMap.sol\":1680:1687  uint256 */\n      0x00\n        /* \"Arevea-NFT-Market/NFT-Contracts/contracts/External/EnumerableMap.sol\":1707:1710  map */\n      dup2\n        /* \"Arevea-NFT-Market/NFT-Contracts/contracts/External/EnumerableMap.sol\":1707:1719  map._entries */\n      0x00\n      add\n        /* \"Arevea-NFT-Market/NFT-Contracts/contracts/External/EnumerableMap.sol\":1707:1726  map._entries.length */\n      dup1\n      sload\n      swap1\n      pop\n        /* \"Arevea-NFT-Market/NFT-Contracts/contracts/External/EnumerableMap.sol\":1700:1726  return map._entries.length */\n      swap1\n      pop\n        /* \"Arevea-NFT-Market/NFT-Contracts/contracts/External/EnumerableMap.sol\":1624:1734  function _length(Map storage map) private view returns (uint256) {\r... */\n      swap2\n      swap1\n      pop\n      jump\t// out\n        /* \"Arevea-NFT-Market/NFT-Contracts/contracts/External/Address.sol\":1191:1517  function isContract(address account) internal view returns (bool) {\r... */\n    tag_255:\n        /* \"Arevea-NFT-Market/NFT-Contracts/contracts/External/Address.sol\":1251:1255  bool */\n      0x00\n        /* \"Arevea-NFT-Market/NFT-Contracts/contracts/External/Address.sol\":1508:1509  0 */\n      dup1\n        /* \"Arevea-NFT-Market/NFT-Contracts/contracts/External/Address.sol\":1486:1493  account */\n      dup3\n        /* \"Arevea-NFT-Market/NFT-Contracts/contracts/External/Address.sol\":1486:1505  account.code.length */\n      0xffffffffffffffffffffffffffffffffffffffff\n      and\n      extcodesize\n        /* \"Arevea-NFT-Market/NFT-Contracts/contracts/External/Address.sol\":1486:1509  account.code.length > 0 */\n      gt\n        /* \"Arevea-NFT-Market/NFT-Contracts/contracts/External/Address.sol\":1479:1509  return account.code.length > 0 */\n      swap1\n      pop\n        /* \"Arevea-NFT-Market/NFT-Contracts/contracts/External/Address.sol\":1191:1517  function isContract(address account) internal view returns (bool) {\r... */\n      swap2\n      swap1\n      pop\n      jump\t// out\n        /* \"Arevea-NFT-Market/NFT-Contracts/contracts/External/EnumerableMap.sol\":2029:2348  function _get(Map storage map, bytes32 key, string memory errorMessage) private view returns (bytes32) {\r... */\n    tag_281:\n        /* \"Arevea-NFT-Market/NFT-Contracts/contracts/External/EnumerableMap.sol\":2123:2130  bytes32 */\n      0x00\n        /* \"Arevea-NFT-Market/NFT-Contracts/contracts/External/EnumerableMap.sol\":2143:2159  uint256 keyIndex */\n      dup1\n        /* \"Arevea-NFT-Market/NFT-Contracts/contracts/External/EnumerableMap.sol\":2162:2165  map */\n      dup5\n        /* \"Arevea-NFT-Market/NFT-Contracts/contracts/External/EnumerableMap.sol\":2162:2174  map._indexes */\n      0x01\n      add\n        /* \"Arevea-NFT-Market/NFT-Contracts/contracts/External/EnumerableMap.sol\":2162:2179  map._indexes[key] */\n      0x00\n        /* \"Arevea-NFT-Market/NFT-Contracts/contracts/External/EnumerableMap.sol\":2175:2178  key */\n      dup6\n        /* \"Arevea-NFT-Market/NFT-Contracts/contracts/External/EnumerableMap.sol\":2162:2179  map._indexes[key] */\n      dup2\n      mstore\n      0x20\n      add\n      swap1\n      dup2\n      mstore\n      0x20\n      add\n      0x00\n      keccak256\n      sload\n        /* \"Arevea-NFT-Market/NFT-Contracts/contracts/External/EnumerableMap.sol\":2143:2179  uint256 keyIndex = map._indexes[key] */\n      swap1\n      pop\n        /* \"Arevea-NFT-Market/NFT-Contracts/contracts/External/EnumerableMap.sol\":2210:2211  0 */\n      0x00\n        /* \"Arevea-NFT-Market/NFT-Contracts/contracts/External/EnumerableMap.sol\":2198:2206  keyIndex */\n      dup2\n        /* \"Arevea-NFT-Market/NFT-Contracts/contracts/External/EnumerableMap.sol\":2198:2211  keyIndex != 0 */\n      eq\n      iszero\n        /* \"Arevea-NFT-Market/NFT-Contracts/contracts/External/EnumerableMap.sol\":2213:2225  errorMessage */\n      dup4\n        /* \"Arevea-NFT-Market/NFT-Contracts/contracts/External/EnumerableMap.sol\":2190:2226  require(keyIndex != 0, errorMessage) */\n      swap1\n      tag_333\n      jumpi\n      mload(0x40)\n      0x08c379a000000000000000000000000000000000000000000000000000000000\n      dup2\n      mstore\n      0x04\n      add\n      tag_334\n      swap2\n      swap1\n      tag_36\n      jump\t// in\n    tag_334:\n      mload(0x40)\n      dup1\n      swap2\n      sub\n      swap1\n      revert\n    tag_333:\n      pop\n        /* \"Arevea-NFT-Market/NFT-Contracts/contracts/External/EnumerableMap.sol\":2280:2283  map */\n      dup5\n        /* \"Arevea-NFT-Market/NFT-Contracts/contracts/External/EnumerableMap.sol\":2280:2292  map._entries */\n      0x00\n      add\n        /* \"Arevea-NFT-Market/NFT-Contracts/contracts/External/EnumerableMap.sol\":2304:2305  1 */\n      0x01\n        /* \"Arevea-NFT-Market/NFT-Contracts/contracts/External/EnumerableMap.sol\":2293:2301  keyIndex */\n      dup3\n        /* \"Arevea-NFT-Market/NFT-Contracts/contracts/External/EnumerableMap.sol\":2293:2305  keyIndex - 1 */\n      tag_335\n      swap2\n      swap1\n      tag_246\n      jump\t// in\n    tag_335:\n        /* \"Arevea-NFT-Market/NFT-Contracts/contracts/External/EnumerableMap.sol\":2280:2306  map._entries[keyIndex - 1] */\n      dup2\n      sload\n      dup2\n      lt\n      tag_336\n      jumpi\n      tag_337\n      tag_130\n      jump\t// in\n    tag_337:\n    tag_336:\n      swap1\n      0x00\n      mstore\n      keccak256(0x00, 0x20)\n      swap1\n      0x02\n      mul\n      add\n        /* \"Arevea-NFT-Market/NFT-Contracts/contracts/External/EnumerableMap.sol\":2280:2313  map._entries[keyIndex - 1]._value */\n      0x01\n      add\n      sload\n        /* \"Arevea-NFT-Market/NFT-Contracts/contracts/External/EnumerableMap.sol\":2273:2313  return map._entries[keyIndex - 1]._value */\n      swap2\n      pop\n      pop\n        /* \"Arevea-NFT-Market/NFT-Contracts/contracts/External/EnumerableMap.sol\":2029:2348  function _get(Map storage map, bytes32 key, string memory errorMessage) private view returns (bytes32) {\r... */\n      swap4\n      swap3\n      pop\n      pop\n      pop\n      jump\t// out\n        /* \"Arevea-NFT-Market/NFT-Contracts/contracts/External/EnumerableMap.sol\":1491:1616  function _contains(Map storage map, bytes32 key) private view returns (bool) {\r... */\n    tag_329:\n        /* \"Arevea-NFT-Market/NFT-Contracts/contracts/External/EnumerableMap.sol\":1562:1566  bool */\n      0x00\n        /* \"Arevea-NFT-Market/NFT-Contracts/contracts/External/EnumerableMap.sol\":1607:1608  0 */\n      dup1\n        /* \"Arevea-NFT-Market/NFT-Contracts/contracts/External/EnumerableMap.sol\":1586:1589  map */\n      dup4\n        /* \"Arevea-NFT-Market/NFT-Contracts/contracts/External/EnumerableMap.sol\":1586:1598  map._indexes */\n      0x01\n      add\n        /* \"Arevea-NFT-Market/NFT-Contracts/contracts/External/EnumerableMap.sol\":1586:1603  map._indexes[key] */\n      0x00\n        /* \"Arevea-NFT-Market/NFT-Contracts/contracts/External/EnumerableMap.sol\":1599:1602  key */\n      dup5\n        /* \"Arevea-NFT-Market/NFT-Contracts/contracts/External/EnumerableMap.sol\":1586:1603  map._indexes[key] */\n      dup2\n      mstore\n      0x20\n      add\n      swap1\n      dup2\n      mstore\n      0x20\n      add\n      0x00\n      keccak256\n      sload\n        /* \"Arevea-NFT-Market/NFT-Contracts/contracts/External/EnumerableMap.sol\":1586:1608  map._indexes[key] != 0 */\n      eq\n      iszero\n        /* \"Arevea-NFT-Market/NFT-Contracts/contracts/External/EnumerableMap.sol\":1579:1608  return map._indexes[key] != 0 */\n      swap1\n      pop\n        /* \"Arevea-NFT-Market/NFT-Contracts/contracts/External/EnumerableMap.sol\":1491:1616  function _contains(Map storage map, bytes32 key) private view returns (bool) {\r... */\n      swap3\n      swap2\n      pop\n      pop\n      jump\t// out\n        /* \"#utility.yul\":24:746   */\n    tag_341:\n        /* \"#utility.yul\":120:125   */\n      0x00\n        /* \"#utility.yul\":145:226   */\n      tag_343\n        /* \"#utility.yul\":161:225   */\n      tag_344\n        /* \"#utility.yul\":218:224   */\n      dup5\n        /* \"#utility.yul\":161:225   */\n      tag_345\n      jump\t// in\n    tag_344:\n        /* \"#utility.yul\":145:226   */\n      tag_346\n      jump\t// in\n    tag_343:\n        /* \"#utility.yul\":136:226   */\n      swap1\n      pop\n        /* \"#utility.yul\":246:251   */\n      dup1\n        /* \"#utility.yul\":275:281   */\n      dup4\n        /* \"#utility.yul\":268:273   */\n      dup3\n        /* \"#utility.yul\":261:282   */\n      mstore\n        /* \"#utility.yul\":309:313   */\n      0x20\n        /* \"#utility.yul\":302:307   */\n      dup3\n        /* \"#utility.yul\":298:314   */\n      add\n        /* \"#utility.yul\":291:314   */\n      swap1\n      pop\n        /* \"#utility.yul\":335:341   */\n      dup3\n        /* \"#utility.yul\":385:388   */\n      dup6\n        /* \"#utility.yul\":377:381   */\n      0x20\n        /* \"#utility.yul\":369:375   */\n      dup7\n        /* \"#utility.yul\":365:382   */\n      mul\n        /* \"#utility.yul\":360:363   */\n      dup3\n        /* \"#utility.yul\":356:383   */\n      add\n        /* \"#utility.yul\":353:389   */\n      gt\n        /* \"#utility.yul\":350:493   */\n      iszero\n      tag_347\n      jumpi\n        /* \"#utility.yul\":404:483   */\n      tag_348\n      tag_349\n      jump\t// in\n    tag_348:\n        /* \"#utility.yul\":350:493   */\n    tag_347:\n        /* \"#utility.yul\":517:518   */\n      0x00\n        /* \"#utility.yul\":502:740   */\n    tag_350:\n        /* \"#utility.yul\":527:533   */\n      dup6\n        /* \"#utility.yul\":524:525   */\n      dup2\n        /* \"#utility.yul\":521:534   */\n      lt\n        /* \"#utility.yul\":502:740   */\n      iszero\n      tag_352\n      jumpi\n        /* \"#utility.yul\":595:598   */\n      dup2\n        /* \"#utility.yul\":624:661   */\n      tag_353\n        /* \"#utility.yul\":657:660   */\n      dup9\n        /* \"#utility.yul\":645:655   */\n      dup3\n        /* \"#utility.yul\":624:661   */\n      tag_354\n      jump\t// in\n    tag_353:\n        /* \"#utility.yul\":619:622   */\n      dup5\n        /* \"#utility.yul\":612:662   */\n      mstore\n        /* \"#utility.yul\":691:695   */\n      0x20\n        /* \"#utility.yul\":686:689   */\n      dup5\n        /* \"#utility.yul\":682:696   */\n      add\n        /* \"#utility.yul\":675:696   */\n      swap4\n      pop\n        /* \"#utility.yul\":725:729   */\n      0x20\n        /* \"#utility.yul\":720:723   */\n      dup4\n        /* \"#utility.yul\":716:730   */\n      add\n        /* \"#utility.yul\":709:730   */\n      swap3\n      pop\n        /* \"#utility.yul\":562:740   */\n      pop\n        /* \"#utility.yul\":549:550   */\n      0x01\n        /* \"#utility.yul\":546:547   */\n      dup2\n        /* \"#utility.yul\":542:551   */\n      add\n        /* \"#utility.yul\":537:551   */\n      swap1\n      pop\n        /* \"#utility.yul\":502:740   */\n      jump(tag_350)\n    tag_352:\n        /* \"#utility.yul\":506:520   */\n      pop\n        /* \"#utility.yul\":126:746   */\n      pop\n      pop\n        /* \"#utility.yul\":24:746   */\n      swap4\n      swap3\n      pop\n      pop\n      pop\n      jump\t// out\n        /* \"#utility.yul\":769:1491   */\n    tag_355:\n        /* \"#utility.yul\":865:870   */\n      0x00\n        /* \"#utility.yul\":890:971   */\n      tag_357\n        /* \"#utility.yul\":906:970   */\n      tag_358\n        /* \"#utility.yul\":963:969   */\n      dup5\n        /* \"#utility.yul\":906:970   */\n      tag_359\n      jump\t// in\n    tag_358:\n        /* \"#utility.yul\":890:971   */\n      tag_346\n      jump\t// in\n    tag_357:\n        /* \"#utility.yul\":881:971   */\n      swap1\n      pop\n        /* \"#utility.yul\":991:996   */\n      dup1\n        /* \"#utility.yul\":1020:1026   */\n      dup4\n        /* \"#utility.yul\":1013:1018   */\n      dup3\n        /* \"#utility.yul\":1006:1027   */\n      mstore\n        /* \"#utility.yul\":1054:1058   */\n      0x20\n        /* \"#utility.yul\":1047:1052   */\n      dup3\n        /* \"#utility.yul\":1043:1059   */\n      add\n        /* \"#utility.yul\":1036:1059   */\n      swap1\n      pop\n        /* \"#utility.yul\":1080:1086   */\n      dup3\n        /* \"#utility.yul\":1130:1133   */\n      dup6\n        /* \"#utility.yul\":1122:1126   */\n      0x20\n        /* \"#utility.yul\":1114:1120   */\n      dup7\n        /* \"#utility.yul\":1110:1127   */\n      mul\n        /* \"#utility.yul\":1105:1108   */\n      dup3\n        /* \"#utility.yul\":1101:1128   */\n      add\n        /* \"#utility.yul\":1098:1134   */\n      gt\n        /* \"#utility.yul\":1095:1238   */\n      iszero\n      tag_360\n      jumpi\n        /* \"#utility.yul\":1149:1228   */\n      tag_361\n      tag_349\n      jump\t// in\n    tag_361:\n        /* \"#utility.yul\":1095:1238   */\n    tag_360:\n        /* \"#utility.yul\":1262:1263   */\n      0x00\n        /* \"#utility.yul\":1247:1485   */\n    tag_362:\n        /* \"#utility.yul\":1272:1278   */\n      dup6\n        /* \"#utility.yul\":1269:1270   */\n      dup2\n        /* \"#utility.yul\":1266:1279   */\n      lt\n        /* \"#utility.yul\":1247:1485   */\n      iszero\n      tag_364\n      jumpi\n        /* \"#utility.yul\":1340:1343   */\n      dup2\n        /* \"#utility.yul\":1369:1406   */\n      tag_365\n        /* \"#utility.yul\":1402:1405   */\n      dup9\n        /* \"#utility.yul\":1390:1400   */\n      dup3\n        /* \"#utility.yul\":1369:1406   */\n      tag_366\n      jump\t// in\n    tag_365:\n        /* \"#utility.yul\":1364:1367   */\n      dup5\n        /* \"#utility.yul\":1357:1407   */\n      mstore\n        /* \"#utility.yul\":1436:1440   */\n      0x20\n        /* \"#utility.yul\":1431:1434   */\n      dup5\n        /* \"#utility.yul\":1427:1441   */\n      add\n        /* \"#utility.yul\":1420:1441   */\n      swap4\n      pop\n        /* \"#utility.yul\":1470:1474   */\n      0x20\n        /* \"#utility.yul\":1465:1468   */\n      dup4\n        /* \"#utility.yul\":1461:1475   */\n      add\n        /* \"#utility.yul\":1454:1475   */\n      swap3\n      pop\n        /* \"#utility.yul\":1307:1485   */\n      pop\n        /* \"#utility.yul\":1294:1295   */\n      0x01\n        /* \"#utility.yul\":1291:1292   */\n      dup2\n        /* \"#utility.yul\":1287:1296   */\n      add\n        /* \"#utility.yul\":1282:1296   */\n      swap1\n      pop\n        /* \"#utility.yul\":1247:1485   */\n      jump(tag_362)\n    tag_364:\n        /* \"#utility.yul\":1251:1265   */\n      pop\n        /* \"#utility.yul\":871:1491   */\n      pop\n      pop\n        /* \"#utility.yul\":769:1491   */\n      swap4\n      swap3\n      pop\n      pop\n      pop\n      jump\t// out\n        /* \"#utility.yul\":1497:1907   */\n    tag_367:\n        /* \"#utility.yul\":1574:1579   */\n      0x00\n        /* \"#utility.yul\":1599:1664   */\n      tag_369\n        /* \"#utility.yul\":1615:1663   */\n      tag_370\n        /* \"#utility.yul\":1656:1662   */\n      dup5\n        /* \"#utility.yul\":1615:1663   */\n      tag_371\n      jump\t// in\n    tag_370:\n        /* \"#utility.yul\":1599:1664   */\n      tag_346\n      jump\t// in\n    tag_369:\n        /* \"#utility.yul\":1590:1664   */\n      swap1\n      pop\n        /* \"#utility.yul\":1687:1693   */\n      dup3\n        /* \"#utility.yul\":1680:1685   */\n      dup2\n        /* \"#utility.yul\":1673:1694   */\n      mstore\n        /* \"#utility.yul\":1725:1729   */\n      0x20\n        /* \"#utility.yul\":1718:1723   */\n      dup2\n        /* \"#utility.yul\":1714:1730   */\n      add\n        /* \"#utility.yul\":1763:1766   */\n      dup5\n        /* \"#utility.yul\":1754:1760   */\n      dup5\n        /* \"#utility.yul\":1749:1752   */\n      dup5\n        /* \"#utility.yul\":1745:1761   */\n      add\n        /* \"#utility.yul\":1742:1767   */\n      gt\n        /* \"#utility.yul\":1739:1851   */\n      iszero\n      tag_372\n      jumpi\n        /* \"#utility.yul\":1770:1849   */\n      tag_373\n      tag_374\n      jump\t// in\n    tag_373:\n        /* \"#utility.yul\":1739:1851   */\n    tag_372:\n        /* \"#utility.yul\":1860:1901   */\n      tag_375\n        /* \"#utility.yul\":1894:1900   */\n      dup5\n        /* \"#utility.yul\":1889:1892   */\n      dup3\n        /* \"#utility.yul\":1884:1887   */\n      dup6\n        /* \"#utility.yul\":1860:1901   */\n      tag_376\n      jump\t// in\n    tag_375:\n        /* \"#utility.yul\":1580:1907   */\n      pop\n        /* \"#utility.yul\":1497:1907   */\n      swap4\n      swap3\n      pop\n      pop\n      pop\n      jump\t// out\n        /* \"#utility.yul\":1913:2052   */\n    tag_354:\n        /* \"#utility.yul\":1959:1964   */\n      0x00\n        /* \"#utility.yul\":1997:2003   */\n      dup2\n        /* \"#utility.yul\":1984:2004   */\n      calldataload\n        /* \"#utility.yul\":1975:2004   */\n      swap1\n      pop\n        /* \"#utility.yul\":2013:2046   */\n      tag_378\n        /* \"#utility.yul\":2040:2045   */\n      dup2\n        /* \"#utility.yul\":2013:2046   */\n      tag_379\n      jump\t// in\n    tag_378:\n        /* \"#utility.yul\":1913:2052   */\n      swap3\n      swap2\n      pop\n      pop\n      jump\t// out\n        /* \"#utility.yul\":2075:2445   */\n    tag_380:\n        /* \"#utility.yul\":2146:2151   */\n      0x00\n        /* \"#utility.yul\":2195:2198   */\n      dup3\n        /* \"#utility.yul\":2188:2192   */\n      0x1f\n        /* \"#utility.yul\":2180:2186   */\n      dup4\n        /* \"#utility.yul\":2176:2193   */\n      add\n        /* \"#utility.yul\":2172:2199   */\n      slt\n        /* \"#utility.yul\":2162:2284   */\n      tag_382\n      jumpi\n        /* \"#utility.yul\":2203:2282   */\n      tag_383\n      tag_384\n      jump\t// in\n    tag_383:\n        /* \"#utility.yul\":2162:2284   */\n    tag_382:\n        /* \"#utility.yul\":2320:2326   */\n      dup2\n        /* \"#utility.yul\":2307:2327   */\n      calldataload\n        /* \"#utility.yul\":2345:2439   */\n      tag_385\n        /* \"#utility.yul\":2435:2438   */\n      dup5\n        /* \"#utility.yul\":2427:2433   */\n      dup3\n        /* \"#utility.yul\":2420:2424   */\n      0x20\n        /* \"#utility.yul\":2412:2418   */\n      dup7\n        /* \"#utility.yul\":2408:2425   */\n      add\n        /* \"#utility.yul\":2345:2439   */\n      tag_341\n      jump\t// in\n    tag_385:\n        /* \"#utility.yul\":2336:2439   */\n      swap2\n      pop\n        /* \"#utility.yul\":2152:2445   */\n      pop\n        /* \"#utility.yul\":2075:2445   */\n      swap3\n      swap2\n      pop\n      pop\n      jump\t// out\n        /* \"#utility.yul\":2468:2838   */\n    tag_386:\n        /* \"#utility.yul\":2539:2544   */\n      0x00\n        /* \"#utility.yul\":2588:2591   */\n      dup3\n        /* \"#utility.yul\":2581:2585   */\n      0x1f\n        /* \"#utility.yul\":2573:2579   */\n      dup4\n        /* \"#utility.yul\":2569:2586   */\n      add\n        /* \"#utility.yul\":2565:2592   */\n      slt\n        /* \"#utility.yul\":2555:2677   */\n      tag_388\n      jumpi\n        /* \"#utility.yul\":2596:2675   */\n      tag_389\n      tag_384\n      jump\t// in\n    tag_389:\n        /* \"#utility.yul\":2555:2677   */\n    tag_388:\n        /* \"#utility.yul\":2713:2719   */\n      dup2\n        /* \"#utility.yul\":2700:2720   */\n      calldataload\n        /* \"#utility.yul\":2738:2832   */\n      tag_390\n        /* \"#utility.yul\":2828:2831   */\n      dup5\n        /* \"#utility.yul\":2820:2826   */\n      dup3\n        /* \"#utility.yul\":2813:2817   */\n      0x20\n        /* \"#utility.yul\":2805:2811   */\n      dup7\n        /* \"#utility.yul\":2801:2818   */\n      add\n        /* \"#utility.yul\":2738:2832   */\n      tag_355\n      jump\t// in\n    tag_390:\n        /* \"#utility.yul\":2729:2832   */\n      swap2\n      pop\n        /* \"#utility.yul\":2545:2838   */\n      pop\n        /* \"#utility.yul\":2468:2838   */\n      swap3\n      swap2\n      pop\n      pop\n      jump\t// out\n        /* \"#utility.yul\":2844:2977   */\n    tag_391:\n        /* \"#utility.yul\":2887:2892   */\n      0x00\n        /* \"#utility.yul\":2925:2931   */\n      dup2\n        /* \"#utility.yul\":2912:2932   */\n      calldataload\n        /* \"#utility.yul\":2903:2932   */\n      swap1\n      pop\n        /* \"#utility.yul\":2941:2971   */\n      tag_393\n        /* \"#utility.yul\":2965:2970   */\n      dup2\n        /* \"#utility.yul\":2941:2971   */\n      tag_394\n      jump\t// in\n    tag_393:\n        /* \"#utility.yul\":2844:2977   */\n      swap3\n      swap2\n      pop\n      pop\n      jump\t// out\n        /* \"#utility.yul\":2983:3120   */\n    tag_395:\n        /* \"#utility.yul\":3028:3033   */\n      0x00\n        /* \"#utility.yul\":3066:3072   */\n      dup2\n        /* \"#utility.yul\":3053:3073   */\n      calldataload\n        /* \"#utility.yul\":3044:3073   */\n      swap1\n      pop\n        /* \"#utility.yul\":3082:3114   */\n      tag_397\n        /* \"#utility.yul\":3108:3113   */\n      dup2\n        /* \"#utility.yul\":3082:3114   */\n      tag_398\n      jump\t// in\n    tag_397:\n        /* \"#utility.yul\":2983:3120   */\n      swap3\n      swap2\n      pop\n      pop\n      jump\t// out\n        /* \"#utility.yul\":3126:3267   */\n    tag_399:\n        /* \"#utility.yul\":3182:3187   */\n      0x00\n        /* \"#utility.yul\":3213:3219   */\n      dup2\n        /* \"#utility.yul\":3207:3220   */\n      mload\n        /* \"#utility.yul\":3198:3220   */\n      swap1\n      pop\n        /* \"#utility.yul\":3229:3261   */\n      tag_401\n        /* \"#utility.yul\":3255:3260   */\n      dup2\n        /* \"#utility.yul\":3229:3261   */\n      tag_398\n      jump\t// in\n    tag_401:\n        /* \"#utility.yul\":3126:3267   */\n      swap3\n      swap2\n      pop\n      pop\n      jump\t// out\n        /* \"#utility.yul\":3286:3624   */\n    tag_402:\n        /* \"#utility.yul\":3341:3346   */\n      0x00\n        /* \"#utility.yul\":3390:3393   */\n      dup3\n        /* \"#utility.yul\":3383:3387   */\n      0x1f\n        /* \"#utility.yul\":3375:3381   */\n      dup4\n        /* \"#utility.yul\":3371:3388   */\n      add\n        /* \"#utility.yul\":3367:3394   */\n      slt\n        /* \"#utility.yul\":3357:3479   */\n      tag_404\n      jumpi\n        /* \"#utility.yul\":3398:3477   */\n      tag_405\n      tag_384\n      jump\t// in\n    tag_405:\n        /* \"#utility.yul\":3357:3479   */\n    tag_404:\n        /* \"#utility.yul\":3515:3521   */\n      dup2\n        /* \"#utility.yul\":3502:3522   */\n      calldataload\n        /* \"#utility.yul\":3540:3618   */\n      tag_406\n        /* \"#utility.yul\":3614:3617   */\n      dup5\n        /* \"#utility.yul\":3606:3612   */\n      dup3\n        /* \"#utility.yul\":3599:3603   */\n      0x20\n        /* \"#utility.yul\":3591:3597   */\n      dup7\n        /* \"#utility.yul\":3587:3604   */\n      add\n        /* \"#utility.yul\":3540:3618   */\n      tag_367\n      jump\t// in\n    tag_406:\n        /* \"#utility.yul\":3531:3618   */\n      swap2\n      pop\n        /* \"#utility.yul\":3347:3624   */\n      pop\n        /* \"#utility.yul\":3286:3624   */\n      swap3\n      swap2\n      pop\n      pop\n      jump\t// out\n        /* \"#utility.yul\":3630:3769   */\n    tag_366:\n        /* \"#utility.yul\":3676:3681   */\n      0x00\n        /* \"#utility.yul\":3714:3720   */\n      dup2\n        /* \"#utility.yul\":3701:3721   */\n      calldataload\n        /* \"#utility.yul\":3692:3721   */\n      swap1\n      pop\n        /* \"#utility.yul\":3730:3763   */\n      tag_408\n        /* \"#utility.yul\":3757:3762   */\n      dup2\n        /* \"#utility.yul\":3730:3763   */\n      tag_409\n      jump\t// in\n    tag_408:\n        /* \"#utility.yul\":3630:3769   */\n      swap3\n      swap2\n      pop\n      pop\n      jump\t// out\n        /* \"#utility.yul\":3775:4249   */\n    tag_80:\n        /* \"#utility.yul\":3843:3849   */\n      0x00\n        /* \"#utility.yul\":3851:3857   */\n      dup1\n        /* \"#utility.yul\":3900:3902   */\n      0x40\n        /* \"#utility.yul\":3888:3897   */\n      dup4\n        /* \"#utility.yul\":3879:3886   */\n      dup6\n        /* \"#utility.yul\":3875:3898   */\n      sub\n        /* \"#utility.yul\":3871:3903   */\n      slt\n        /* \"#utility.yul\":3868:3987   */\n      iszero\n      tag_411\n      jumpi\n        /* \"#utility.yul\":3906:3985   */\n      tag_412\n      tag_413\n      jump\t// in\n    tag_412:\n        /* \"#utility.yul\":3868:3987   */\n    tag_411:\n        /* \"#utility.yul\":4026:4027   */\n      0x00\n        /* \"#utility.yul\":4051:4104   */\n      tag_414\n        /* \"#utility.yul\":4096:4103   */\n      dup6\n        /* \"#utility.yul\":4087:4093   */\n      dup3\n        /* \"#utility.yul\":4076:4085   */\n      dup7\n        /* \"#utility.yul\":4072:4094   */\n      add\n        /* \"#utility.yul\":4051:4104   */\n      tag_354\n      jump\t// in\n    tag_414:\n        /* \"#utility.yul\":4041:4104   */\n      swap3\n      pop\n        /* \"#utility.yul\":3997:4114   */\n      pop\n        /* \"#utility.yul\":4153:4155   */\n      0x20\n        /* \"#utility.yul\":4179:4232   */\n      tag_415\n        /* \"#utility.yul\":4224:4231   */\n      dup6\n        /* \"#utility.yul\":4215:4221   */\n      dup3\n        /* \"#utility.yul\":4204:4213   */\n      dup7\n        /* \"#utility.yul\":4200:4222   */\n      add\n        /* \"#utility.yul\":4179:4232   */\n      tag_354\n      jump\t// in\n    tag_415:\n        /* \"#utility.yul\":4169:4232   */\n      swap2\n      pop\n        /* \"#utility.yul\":4124:4242   */\n      pop\n        /* \"#utility.yul\":3775:4249   */\n      swap3\n      pop\n      swap3\n      swap1\n      pop\n      jump\t// out\n        /* \"#utility.yul\":4255:5764   */\n    tag_42:\n        /* \"#utility.yul\":4409:4415   */\n      0x00\n        /* \"#utility.yul\":4417:4423   */\n      dup1\n        /* \"#utility.yul\":4425:4431   */\n      0x00\n        /* \"#utility.yul\":4433:4439   */\n      dup1\n        /* \"#utility.yul\":4441:4447   */\n      0x00\n        /* \"#utility.yul\":4490:4493   */\n      0xa0\n        /* \"#utility.yul\":4478:4487   */\n      dup7\n        /* \"#utility.yul\":4469:4476   */\n      dup9\n        /* \"#utility.yul\":4465:4488   */\n      sub\n        /* \"#utility.yul\":4461:4494   */\n      slt\n        /* \"#utility.yul\":4458:4578   */\n      iszero\n      tag_417\n      jumpi\n        /* \"#utility.yul\":4497:4576   */\n      tag_418\n      tag_413\n      jump\t// in\n    tag_418:\n        /* \"#utility.yul\":4458:4578   */\n    tag_417:\n        /* \"#utility.yul\":4617:4618   */\n      0x00\n        /* \"#utility.yul\":4642:4695   */\n      tag_419\n        /* \"#utility.yul\":4687:4694   */\n      dup9\n        /* \"#utility.yul\":4678:4684   */\n      dup3\n        /* \"#utility.yul\":4667:4676   */\n      dup10\n        /* \"#utility.yul\":4663:4685   */\n      add\n        /* \"#utility.yul\":4642:4695   */\n      tag_354\n      jump\t// in\n    tag_419:\n        /* \"#utility.yul\":4632:4695   */\n      swap6\n      pop\n        /* \"#utility.yul\":4588:4705   */\n      pop\n        /* \"#utility.yul\":4744:4746   */\n      0x20\n        /* \"#utility.yul\":4770:4823   */\n      tag_420\n        /* \"#utility.yul\":4815:4822   */\n      dup9\n        /* \"#utility.yul\":4806:4812   */\n      dup3\n        /* \"#utility.yul\":4795:4804   */\n      dup10\n        /* \"#utility.yul\":4791:4813   */\n      add\n        /* \"#utility.yul\":4770:4823   */\n      tag_354\n      jump\t// in\n    tag_420:\n        /* \"#utility.yul\":4760:4823   */\n      swap5\n      pop\n        /* \"#utility.yul\":4715:4833   */\n      pop\n        /* \"#utility.yul\":4900:4902   */\n      0x40\n        /* \"#utility.yul\":4889:4898   */\n      dup7\n        /* \"#utility.yul\":4885:4903   */\n      add\n        /* \"#utility.yul\":4872:4904   */\n      calldataload\n        /* \"#utility.yul\":4931:4949   */\n      0xffffffffffffffff\n        /* \"#utility.yul\":4923:4929   */\n      dup2\n        /* \"#utility.yul\":4920:4950   */\n      gt\n        /* \"#utility.yul\":4917:5034   */\n      iszero\n      tag_421\n      jumpi\n        /* \"#utility.yul\":4953:5032   */\n      tag_422\n      tag_423\n      jump\t// in\n    tag_422:\n        /* \"#utility.yul\":4917:5034   */\n    tag_421:\n        /* \"#utility.yul\":5058:5136   */\n      tag_424\n        /* \"#utility.yul\":5128:5135   */\n      dup9\n        /* \"#utility.yul\":5119:5125   */\n      dup3\n        /* \"#utility.yul\":5108:5117   */\n      dup10\n        /* \"#utility.yul\":5104:5126   */\n      add\n        /* \"#utility.yul\":5058:5136   */\n      tag_386\n      jump\t// in\n    tag_424:\n        /* \"#utility.yul\":5048:5136   */\n      swap4\n      pop\n        /* \"#utility.yul\":4843:5146   */\n      pop\n        /* \"#utility.yul\":5213:5215   */\n      0x60\n        /* \"#utility.yul\":5202:5211   */\n      dup7\n        /* \"#utility.yul\":5198:5216   */\n      add\n        /* \"#utility.yul\":5185:5217   */\n      calldataload\n        /* \"#utility.yul\":5244:5262   */\n      0xffffffffffffffff\n        /* \"#utility.yul\":5236:5242   */\n      dup2\n        /* \"#utility.yul\":5233:5263   */\n      gt\n        /* \"#utility.yul\":5230:5347   */\n      iszero\n      tag_425\n      jumpi\n        /* \"#utility.yul\":5266:5345   */\n      tag_426\n      tag_423\n      jump\t// in\n    tag_426:\n        /* \"#utility.yul\":5230:5347   */\n    tag_425:\n        /* \"#utility.yul\":5371:5449   */\n      tag_427\n        /* \"#utility.yul\":5441:5448   */\n      dup9\n        /* \"#utility.yul\":5432:5438   */\n      dup3\n        /* \"#utility.yul\":5421:5430   */\n      dup10\n        /* \"#utility.yul\":5417:5439   */\n      add\n        /* \"#utility.yul\":5371:5449   */\n      tag_386\n      jump\t// in\n    tag_427:\n        /* \"#utility.yul\":5361:5449   */\n      swap3\n      pop\n        /* \"#utility.yul\":5156:5459   */\n      pop\n        /* \"#utility.yul\":5526:5529   */\n      0x80\n        /* \"#utility.yul\":5515:5524   */\n      dup7\n        /* \"#utility.yul\":5511:5530   */\n      add\n        /* \"#utility.yul\":5498:5531   */\n      calldataload\n        /* \"#utility.yul\":5558:5576   */\n      0xffffffffffffffff\n        /* \"#utility.yul\":5550:5556   */\n      dup2\n        /* \"#utility.yul\":5547:5577   */\n      gt\n        /* \"#utility.yul\":5544:5661   */\n      iszero\n      tag_428\n      jumpi\n        /* \"#utility.yul\":5580:5659   */\n      tag_429\n      tag_423\n      jump\t// in\n    tag_429:\n        /* \"#utility.yul\":5544:5661   */\n    tag_428:\n        /* \"#utility.yul\":5685:5747   */\n      tag_430\n        /* \"#utility.yul\":5739:5746   */\n      dup9\n        /* \"#utility.yul\":5730:5736   */\n      dup3\n        /* \"#utility.yul\":5719:5728   */\n      dup10\n        /* \"#utility.yul\":5715:5737   */\n      add\n        /* \"#utility.yul\":5685:5747   */\n      tag_402\n      jump\t// in\n    tag_430:\n        /* \"#utility.yul\":5675:5747   */\n      swap2\n      pop\n        /* \"#utility.yul\":5469:5757   */\n      pop\n        /* \"#utility.yul\":4255:5764   */\n      swap3\n      swap6\n      pop\n      swap3\n      swap6\n      swap1\n      swap4\n      pop\n      jump\t// out\n        /* \"#utility.yul\":5770:6859   */\n    tag_85:\n        /* \"#utility.yul\":5874:5880   */\n      0x00\n        /* \"#utility.yul\":5882:5888   */\n      dup1\n        /* \"#utility.yul\":5890:5896   */\n      0x00\n        /* \"#utility.yul\":5898:5904   */\n      dup1\n        /* \"#utility.yul\":5906:5912   */\n      0x00\n        /* \"#utility.yul\":5955:5958   */\n      0xa0\n        /* \"#utility.yul\":5943:5952   */\n      dup7\n        /* \"#utility.yul\":5934:5941   */\n      dup9\n        /* \"#utility.yul\":5930:5953   */\n      sub\n        /* \"#utility.yul\":5926:5959   */\n      slt\n        /* \"#utility.yul\":5923:6043   */\n      iszero\n      tag_432\n      jumpi\n        /* \"#utility.yul\":5962:6041   */\n      tag_433\n      tag_413\n      jump\t// in\n    tag_433:\n        /* \"#utility.yul\":5923:6043   */\n    tag_432:\n        /* \"#utility.yul\":6082:6083   */\n      0x00\n        /* \"#utility.yul\":6107:6160   */\n      tag_434\n        /* \"#utility.yul\":6152:6159   */\n      dup9\n        /* \"#utility.yul\":6143:6149   */\n      dup3\n        /* \"#utility.yul\":6132:6141   */\n      dup10\n        /* \"#utility.yul\":6128:6150   */\n      add\n        /* \"#utility.yul\":6107:6160   */\n      tag_354\n      jump\t// in\n    tag_434:\n        /* \"#utility.yul\":6097:6160   */\n      swap6\n      pop\n        /* \"#utility.yul\":6053:6170   */\n      pop\n        /* \"#utility.yul\":6209:6211   */\n      0x20\n        /* \"#utility.yul\":6235:6288   */\n      tag_435\n        /* \"#utility.yul\":6280:6287   */\n      dup9\n        /* \"#utility.yul\":6271:6277   */\n      dup3\n        /* \"#utility.yul\":6260:6269   */\n      dup10\n        /* \"#utility.yul\":6256:6278   */\n      add\n        /* \"#utility.yul\":6235:6288   */\n      tag_354\n      jump\t// in\n    tag_435:\n        /* \"#utility.yul\":6225:6288   */\n      swap5\n      pop\n        /* \"#utility.yul\":6180:6298   */\n      pop\n        /* \"#utility.yul\":6337:6339   */\n      0x40\n        /* \"#utility.yul\":6363:6416   */\n      tag_436\n        /* \"#utility.yul\":6408:6415   */\n      dup9\n        /* \"#utility.yul\":6399:6405   */\n      dup3\n        /* \"#utility.yul\":6388:6397   */\n      dup10\n        /* \"#utility.yul\":6384:6406   */\n      add\n        /* \"#utility.yul\":6363:6416   */\n      tag_366\n      jump\t// in\n    tag_436:\n        /* \"#utility.yul\":6353:6416   */\n      swap4\n      pop\n        /* \"#utility.yul\":6308:6426   */\n      pop\n        /* \"#utility.yul\":6465:6467   */\n      0x60\n        /* \"#utility.yul\":6491:6544   */\n      tag_437\n        /* \"#utility.yul\":6536:6543   */\n      dup9\n        /* \"#utility.yul\":6527:6533   */\n      dup3\n        /* \"#utility.yul\":6516:6525   */\n      dup10\n        /* \"#utility.yul\":6512:6534   */\n      add\n        /* \"#utility.yul\":6491:6544   */\n      tag_366\n      jump\t// in\n    tag_437:\n        /* \"#utility.yul\":6481:6544   */\n      swap3\n      pop\n        /* \"#utility.yul\":6436:6554   */\n      pop\n        /* \"#utility.yul\":6621:6624   */\n      0x80\n        /* \"#utility.yul\":6610:6619   */\n      dup7\n        /* \"#utility.yul\":6606:6625   */\n      add\n        /* \"#utility.yul\":6593:6626   */\n      calldataload\n        /* \"#utility.yul\":6653:6671   */\n      0xffffffffffffffff\n        /* \"#utility.yul\":6645:6651   */\n      dup2\n        /* \"#utility.yul\":6642:6672   */\n      gt\n        /* \"#utility.yul\":6639:6756   */\n      iszero\n      tag_438\n      jumpi\n        /* \"#utility.yul\":6675:6754   */\n      tag_439\n      tag_423\n      jump\t// in\n    tag_439:\n        /* \"#utility.yul\":6639:6756   */\n    tag_438:\n        /* \"#utility.yul\":6780:6842   */\n      tag_440\n        /* \"#utility.yul\":6834:6841   */\n      dup9\n        /* \"#utility.yul\":6825:6831   */\n      dup3\n        /* \"#utility.yul\":6814:6823   */\n      dup10\n        /* \"#utility.yul\":6810:6832   */\n      add\n        /* \"#utility.yul\":6780:6842   */\n      tag_402\n      jump\t// in\n    tag_440:\n        /* \"#utility.yul\":6770:6842   */\n      swap2\n      pop\n        /* \"#utility.yul\":6564:6852   */\n      pop\n        /* \"#utility.yul\":5770:6859   */\n      swap3\n      swap6\n      pop\n      swap3\n      swap6\n      swap1\n      swap4\n      pop\n      jump\t// out\n        /* \"#utility.yul\":6865:7333   */\n    tag_61:\n        /* \"#utility.yul\":6930:6936   */\n      0x00\n        /* \"#utility.yul\":6938:6944   */\n      dup1\n        /* \"#utility.yul\":6987:6989   */\n      0x40\n        /* \"#utility.yul\":6975:6984   */\n      dup4\n        /* \"#utility.yul\":6966:6973   */\n      dup6\n        /* \"#utility.yul\":6962:6985   */\n      sub\n        /* \"#utility.yul\":6958:6990   */\n      slt\n        /* \"#utility.yul\":6955:7074   */\n      iszero\n      tag_442\n      jumpi\n        /* \"#utility.yul\":6993:7072   */\n      tag_443\n      tag_413\n      jump\t// in\n    tag_443:\n        /* \"#utility.yul\":6955:7074   */\n    tag_442:\n        /* \"#utility.yul\":7113:7114   */\n      0x00\n        /* \"#utility.yul\":7138:7191   */\n      tag_444\n        /* \"#utility.yul\":7183:7190   */\n      dup6\n        /* \"#utility.yul\":7174:7180   */\n      dup3\n        /* \"#utility.yul\":7163:7172   */\n      dup7\n        /* \"#utility.yul\":7159:7181   */\n      add\n        /* \"#utility.yul\":7138:7191   */\n      tag_354\n      jump\t// in\n    tag_444:\n        /* \"#utility.yul\":7128:7191   */\n      swap3\n      pop\n        /* \"#utility.yul\":7084:7201   */\n      pop\n        /* \"#utility.yul\":7240:7242   */\n      0x20\n        /* \"#utility.yul\":7266:7316   */\n      tag_445\n        /* \"#utility.yul\":7308:7315   */\n      dup6\n        /* \"#utility.yul\":7299:7305   */\n      dup3\n        /* \"#utility.yul\":7288:7297   */\n      dup7\n        /* \"#utility.yul\":7284:7306   */\n      add\n        /* \"#utility.yul\":7266:7316   */\n      tag_391\n      jump\t// in\n    tag_445:\n        /* \"#utility.yul\":7256:7316   */\n      swap2\n      pop\n        /* \"#utility.yul\":7211:7326   */\n      pop\n        /* \"#utility.yul\":6865:7333   */\n      swap3\n      pop\n      swap3\n      swap1\n      pop\n      jump\t// out\n        /* \"#utility.yul\":7339:7813   */\n    tag_23:\n        /* \"#utility.yul\":7407:7413   */\n      0x00\n        /* \"#utility.yul\":7415:7421   */\n      dup1\n        /* \"#utility.yul\":7464:7466   */\n      0x40\n        /* \"#utility.yul\":7452:7461   */\n      dup4\n        /* \"#utility.yul\":7443:7450   */\n      dup6\n        /* \"#utility.yul\":7439:7462   */\n      sub\n        /* \"#utility.yul\":7435:7467   */\n      slt\n        /* \"#utility.yul\":7432:7551   */\n      iszero\n      tag_447\n      jumpi\n        /* \"#utility.yul\":7470:7549   */\n      tag_448\n      tag_413\n      jump\t// in\n    tag_448:\n        /* \"#utility.yul\":7432:7551   */\n    tag_447:\n        /* \"#utility.yul\":7590:7591   */\n      0x00\n        /* \"#utility.yul\":7615:7668   */\n      tag_449\n        /* \"#utility.yul\":7660:7667   */\n      dup6\n        /* \"#utility.yul\":7651:7657   */\n      dup3\n        /* \"#utility.yul\":7640:7649   */\n      dup7\n        /* \"#utility.yul\":7636:7658   */\n      add\n        /* \"#utility.yul\":7615:7668   */\n      tag_354\n      jump\t// in\n    tag_449:\n        /* \"#utility.yul\":7605:7668   */\n      swap3\n      pop\n        /* \"#utility.yul\":7561:7678   */\n      pop\n        /* \"#utility.yul\":7717:7719   */\n      0x20\n        /* \"#utility.yul\":7743:7796   */\n      tag_450\n        /* \"#utility.yul\":7788:7795   */\n      dup6\n        /* \"#utility.yul\":7779:7785   */\n      dup3\n        /* \"#utility.yul\":7768:7777   */\n      dup7\n        /* \"#utility.yul\":7764:7786   */\n      add\n        /* \"#utility.yul\":7743:7796   */\n      tag_366\n      jump\t// in\n    tag_450:\n        /* \"#utility.yul\":7733:7796   */\n      swap2\n      pop\n        /* \"#utility.yul\":7688:7806   */\n      pop\n        /* \"#utility.yul\":7339:7813   */\n      swap3\n      pop\n      swap3\n      swap1\n      pop\n      jump\t// out\n        /* \"#utility.yul\":7819:8713   */\n    tag_46:\n        /* \"#utility.yul\":7937:7943   */\n      0x00\n        /* \"#utility.yul\":7945:7951   */\n      dup1\n        /* \"#utility.yul\":7994:7996   */\n      0x40\n        /* \"#utility.yul\":7982:7991   */\n      dup4\n        /* \"#utility.yul\":7973:7980   */\n      dup6\n        /* \"#utility.yul\":7969:7992   */\n      sub\n        /* \"#utility.yul\":7965:7997   */\n      slt\n        /* \"#utility.yul\":7962:8081   */\n      iszero\n      tag_452\n      jumpi\n        /* \"#utility.yul\":8000:8079   */\n      tag_453\n      tag_413\n      jump\t// in\n    tag_453:\n        /* \"#utility.yul\":7962:8081   */\n    tag_452:\n        /* \"#utility.yul\":8148:8149   */\n      0x00\n        /* \"#utility.yul\":8137:8146   */\n      dup4\n        /* \"#utility.yul\":8133:8150   */\n      add\n        /* \"#utility.yul\":8120:8151   */\n      calldataload\n        /* \"#utility.yul\":8178:8196   */\n      0xffffffffffffffff\n        /* \"#utility.yul\":8170:8176   */\n      dup2\n        /* \"#utility.yul\":8167:8197   */\n      gt\n        /* \"#utility.yul\":8164:8281   */\n      iszero\n      tag_454\n      jumpi\n        /* \"#utility.yul\":8200:8279   */\n      tag_455\n      tag_423\n      jump\t// in\n    tag_455:\n        /* \"#utility.yul\":8164:8281   */\n    tag_454:\n        /* \"#utility.yul\":8305:8383   */\n      tag_456\n        /* \"#utility.yul\":8375:8382   */\n      dup6\n        /* \"#utility.yul\":8366:8372   */\n      dup3\n        /* \"#utility.yul\":8355:8364   */\n      dup7\n        /* \"#utility.yul\":8351:8373   */\n      add\n        /* \"#utility.yul\":8305:8383   */\n      tag_380\n      jump\t// in\n    tag_456:\n        /* \"#utility.yul\":8295:8383   */\n      swap3\n      pop\n        /* \"#utility.yul\":8091:8393   */\n      pop\n        /* \"#utility.yul\":8460:8462   */\n      0x20\n        /* \"#utility.yul\":8449:8458   */\n      dup4\n        /* \"#utility.yul\":8445:8463   */\n      add\n        /* \"#utility.yul\":8432:8464   */\n      calldataload\n        /* \"#utility.yul\":8491:8509   */\n      0xffffffffffffffff\n        /* \"#utility.yul\":8483:8489   */\n      dup2\n        /* \"#utility.yul\":8480:8510   */\n      gt\n        /* \"#utility.yul\":8477:8594   */\n      iszero\n      tag_457\n      jumpi\n        /* \"#utility.yul\":8513:8592   */\n      tag_458\n      tag_423\n      jump\t// in\n    tag_458:\n        /* \"#utility.yul\":8477:8594   */\n    tag_457:\n        /* \"#utility.yul\":8618:8696   */\n      tag_459\n        /* \"#utility.yul\":8688:8695   */\n      dup6\n        /* \"#utility.yul\":8679:8685   */\n      dup3\n        /* \"#utility.yul\":8668:8677   */\n      dup7\n        /* \"#utility.yul\":8664:8686   */\n      add\n        /* \"#utility.yul\":8618:8696   */\n      tag_386\n      jump\t// in\n    tag_459:\n        /* \"#utility.yul\":8608:8696   */\n      swap2\n      pop\n        /* \"#utility.yul\":8403:8706   */\n      pop\n        /* \"#utility.yul\":7819:8713   */\n      swap3\n      pop\n      swap3\n      swap1\n      pop\n      jump\t// out\n        /* \"#utility.yul\":8719:9046   */\n    tag_29:\n        /* \"#utility.yul\":8777:8783   */\n      0x00\n        /* \"#utility.yul\":8826:8828   */\n      0x20\n        /* \"#utility.yul\":8814:8823   */\n      dup3\n        /* \"#utility.yul\":8805:8812   */\n      dup5\n        /* \"#utility.yul\":8801:8824   */\n      sub\n        /* \"#utility.yul\":8797:8829   */\n      slt\n        /* \"#utility.yul\":8794:8913   */\n      iszero\n      tag_461\n      jumpi\n        /* \"#utility.yul\":8832:8911   */\n      tag_462\n      tag_413\n      jump\t// in\n    tag_462:\n        /* \"#utility.yul\":8794:8913   */\n    tag_461:\n        /* \"#utility.yul\":8952:8953   */\n      0x00\n        /* \"#utility.yul\":8977:9029   */\n      tag_463\n        /* \"#utility.yul\":9021:9028   */\n      dup5\n        /* \"#utility.yul\":9012:9018   */\n      dup3\n        /* \"#utility.yul\":9001:9010   */\n      dup6\n        /* \"#utility.yul\":8997:9019   */\n      add\n        /* \"#utility.yul\":8977:9029   */\n      tag_395\n      jump\t// in\n    tag_463:\n        /* \"#utility.yul\":8967:9029   */\n      swap2\n      pop\n        /* \"#utility.yul\":8923:9039   */\n      pop\n        /* \"#utility.yul\":8719:9046   */\n      swap3\n      swap2\n      pop\n      pop\n      jump\t// out\n        /* \"#utility.yul\":9052:9401   */\n    tag_262:\n        /* \"#utility.yul\":9121:9127   */\n      0x00\n        /* \"#utility.yul\":9170:9172   */\n      0x20\n        /* \"#utility.yul\":9158:9167   */\n      dup3\n        /* \"#utility.yul\":9149:9156   */\n      dup5\n        /* \"#utility.yul\":9145:9168   */\n      sub\n        /* \"#utility.yul\":9141:9173   */\n      slt\n        /* \"#utility.yul\":9138:9257   */\n      iszero\n      tag_465\n      jumpi\n        /* \"#utility.yul\":9176:9255   */\n      tag_466\n      tag_413\n      jump\t// in\n    tag_466:\n        /* \"#utility.yul\":9138:9257   */\n    tag_465:\n        /* \"#utility.yul\":9296:9297   */\n      0x00\n        /* \"#utility.yul\":9321:9384   */\n      tag_467\n        /* \"#utility.yul\":9376:9383   */\n      dup5\n        /* \"#utility.yul\":9367:9373   */\n      dup3\n        /* \"#utility.yul\":9356:9365   */\n      dup6\n        /* \"#utility.yul\":9352:9374   */\n      add\n        /* \"#utility.yul\":9321:9384   */\n      tag_399\n      jump\t// in\n    tag_467:\n        /* \"#utility.yul\":9311:9384   */\n      swap2\n      pop\n        /* \"#utility.yul\":9267:9394   */\n      pop\n        /* \"#utility.yul\":9052:9401   */\n      swap3\n      swap2\n      pop\n      pop\n      jump\t// out\n        /* \"#utility.yul\":9407:9736   */\n    tag_52:\n        /* \"#utility.yul\":9466:9472   */\n      0x00\n        /* \"#utility.yul\":9515:9517   */\n      0x20\n        /* \"#utility.yul\":9503:9512   */\n      dup3\n        /* \"#utility.yul\":9494:9501   */\n      dup5\n        /* \"#utility.yul\":9490:9513   */\n      sub\n        /* \"#utility.yul\":9486:9518   */\n      slt\n        /* \"#utility.yul\":9483:9602   */\n      iszero\n      tag_469\n      jumpi\n        /* \"#utility.yul\":9521:9600   */\n      tag_470\n      tag_413\n      jump\t// in\n    tag_470:\n        /* \"#utility.yul\":9483:9602   */\n    tag_469:\n        /* \"#utility.yul\":9641:9642   */\n      0x00\n        /* \"#utility.yul\":9666:9719   */\n      tag_471\n        /* \"#utility.yul\":9711:9718   */\n      dup5\n        /* \"#utility.yul\":9702:9708   */\n      dup3\n        /* \"#utility.yul\":9691:9700   */\n      dup6\n        /* \"#utility.yul\":9687:9709   */\n      add\n        /* \"#utility.yul\":9666:9719   */\n      tag_366\n      jump\t// in\n    tag_471:\n        /* \"#utility.yul\":9656:9719   */\n      swap2\n      pop\n        /* \"#utility.yul\":9612:9729   */\n      pop\n        /* \"#utility.yul\":9407:9736   */\n      swap3\n      swap2\n      pop\n      pop\n      jump\t// out\n        /* \"#utility.yul\":9742:9921   */\n    tag_472:\n        /* \"#utility.yul\":9811:9821   */\n      0x00\n        /* \"#utility.yul\":9832:9878   */\n      tag_474\n        /* \"#utility.yul\":9874:9877   */\n      dup4\n        /* \"#utility.yul\":9866:9872   */\n      dup4\n        /* \"#utility.yul\":9832:9878   */\n      tag_475\n      jump\t// in\n    tag_474:\n        /* \"#utility.yul\":9910:9914   */\n      0x20\n        /* \"#utility.yul\":9905:9908   */\n      dup4\n        /* \"#utility.yul\":9901:9915   */\n      add\n        /* \"#utility.yul\":9887:9915   */\n      swap1\n      pop\n        /* \"#utility.yul\":9742:9921   */\n      swap3\n      swap2\n      pop\n      pop\n      jump\t// out\n        /* \"#utility.yul\":9927:10045   */\n    tag_476:\n        /* \"#utility.yul\":10014:10038   */\n      tag_478\n        /* \"#utility.yul\":10032:10037   */\n      dup2\n        /* \"#utility.yul\":10014:10038   */\n      tag_479\n      jump\t// in\n    tag_478:\n        /* \"#utility.yul\":10009:10012   */\n      dup3\n        /* \"#utility.yul\":10002:10039   */\n      mstore\n        /* \"#utility.yul\":9927:10045   */\n      pop\n      pop\n      jump\t// out\n        /* \"#utility.yul\":10081:10813   */\n    tag_480:\n        /* \"#utility.yul\":10200:10203   */\n      0x00\n        /* \"#utility.yul\":10229:10283   */\n      tag_482\n        /* \"#utility.yul\":10277:10282   */\n      dup3\n        /* \"#utility.yul\":10229:10283   */\n      tag_483\n      jump\t// in\n    tag_482:\n        /* \"#utility.yul\":10299:10385   */\n      tag_484\n        /* \"#utility.yul\":10378:10384   */\n      dup2\n        /* \"#utility.yul\":10373:10376   */\n      dup6\n        /* \"#utility.yul\":10299:10385   */\n      tag_485\n      jump\t// in\n    tag_484:\n        /* \"#utility.yul\":10292:10385   */\n      swap4\n      pop\n        /* \"#utility.yul\":10409:10465   */\n      tag_486\n        /* \"#utility.yul\":10459:10464   */\n      dup4\n        /* \"#utility.yul\":10409:10465   */\n      tag_487\n      jump\t// in\n    tag_486:\n        /* \"#utility.yul\":10488:10495   */\n      dup1\n        /* \"#utility.yul\":10519:10520   */\n      0x00\n        /* \"#utility.yul\":10504:10788   */\n    tag_488:\n        /* \"#utility.yul\":10529:10535   */\n      dup4\n        /* \"#utility.yul\":10526:10527   */\n      dup2\n        /* \"#utility.yul\":10523:10536   */\n      lt\n        /* \"#utility.yul\":10504:10788   */\n      iszero\n      tag_490\n      jumpi\n        /* \"#utility.yul\":10605:10611   */\n      dup2\n        /* \"#utility.yul\":10599:10612   */\n      mload\n        /* \"#utility.yul\":10632:10695   */\n      tag_491\n        /* \"#utility.yul\":10691:10694   */\n      dup9\n        /* \"#utility.yul\":10676:10689   */\n      dup3\n        /* \"#utility.yul\":10632:10695   */\n      tag_472\n      jump\t// in\n    tag_491:\n        /* \"#utility.yul\":10625:10695   */\n      swap8\n      pop\n        /* \"#utility.yul\":10718:10778   */\n      tag_492\n        /* \"#utility.yul\":10771:10777   */\n      dup4\n        /* \"#utility.yul\":10718:10778   */\n      tag_493\n      jump\t// in\n    tag_492:\n        /* \"#utility.yul\":10708:10778   */\n      swap3\n      pop\n        /* \"#utility.yul\":10564:10788   */\n      pop\n        /* \"#utility.yul\":10551:10552   */\n      0x01\n        /* \"#utility.yul\":10548:10549   */\n      dup2\n        /* \"#utility.yul\":10544:10553   */\n      add\n        /* \"#utility.yul\":10539:10553   */\n      swap1\n      pop\n        /* \"#utility.yul\":10504:10788   */\n      jump(tag_488)\n    tag_490:\n        /* \"#utility.yul\":10508:10522   */\n      pop\n        /* \"#utility.yul\":10804:10807   */\n      dup6\n        /* \"#utility.yul\":10797:10807   */\n      swap4\n      pop\n        /* \"#utility.yul\":10205:10813   */\n      pop\n      pop\n      pop\n        /* \"#utility.yul\":10081:10813   */\n      swap3\n      swap2\n      pop\n      pop\n      jump\t// out\n        /* \"#utility.yul\":10819:10928   */\n    tag_494:\n        /* \"#utility.yul\":10900:10921   */\n      tag_496\n        /* \"#utility.yul\":10915:10920   */\n      dup2\n        /* \"#utility.yul\":10900:10921   */\n      tag_497\n      jump\t// in\n    tag_496:\n        /* \"#utility.yul\":10895:10898   */\n      dup3\n        /* \"#utility.yul\":10888:10922   */\n      mstore\n        /* \"#utility.yul\":10819:10928   */\n      pop\n      pop\n      jump\t// out\n        /* \"#utility.yul\":10934:11294   */\n    tag_498:\n        /* \"#utility.yul\":11020:11023   */\n      0x00\n        /* \"#utility.yul\":11048:11086   */\n      tag_500\n        /* \"#utility.yul\":11080:11085   */\n      dup3\n        /* \"#utility.yul\":11048:11086   */\n      tag_501\n      jump\t// in\n    tag_500:\n        /* \"#utility.yul\":11102:11172   */\n      tag_502\n        /* \"#utility.yul\":11165:11171   */\n      dup2\n        /* \"#utility.yul\":11160:11163   */\n      dup6\n        /* \"#utility.yul\":11102:11172   */\n      tag_503\n      jump\t// in\n    tag_502:\n        /* \"#utility.yul\":11095:11172   */\n      swap4\n      pop\n        /* \"#utility.yul\":11181:11233   */\n      tag_504\n        /* \"#utility.yul\":11226:11232   */\n      dup2\n        /* \"#utility.yul\":11221:11224   */\n      dup6\n        /* \"#utility.yul\":11214:11218   */\n      0x20\n        /* \"#utility.yul\":11207:11212   */\n      dup7\n        /* \"#utility.yul\":11203:11219   */\n      add\n        /* \"#utility.yul\":11181:11233   */\n      tag_505\n      jump\t// in\n    tag_504:\n        /* \"#utility.yul\":11258:11287   */\n      tag_506\n        /* \"#utility.yul\":11280:11286   */\n      dup2\n        /* \"#utility.yul\":11258:11287   */\n      tag_507\n      jump\t// in\n    tag_506:\n        /* \"#utility.yul\":11253:11256   */\n      dup5\n        /* \"#utility.yul\":11249:11288   */\n      add\n        /* \"#utility.yul\":11242:11288   */\n      swap2\n      pop\n        /* \"#utility.yul\":11024:11294   */\n      pop\n        /* \"#utility.yul\":10934:11294   */\n      swap3\n      swap2\n      pop\n      pop\n      jump\t// out\n        /* \"#utility.yul\":11300:11664   */\n    tag_508:\n        /* \"#utility.yul\":11388:11391   */\n      0x00\n        /* \"#utility.yul\":11416:11455   */\n      tag_510\n        /* \"#utility.yul\":11449:11454   */\n      dup3\n        /* \"#utility.yul\":11416:11455   */\n      tag_511\n      jump\t// in\n    tag_510:\n        /* \"#utility.yul\":11471:11542   */\n      tag_512\n        /* \"#utility.yul\":11535:11541   */\n      dup2\n        /* \"#utility.yul\":11530:11533   */\n      dup6\n        /* \"#utility.yul\":11471:11542   */\n      tag_513\n      jump\t// in\n    tag_512:\n        /* \"#utility.yul\":11464:11542   */\n      swap4\n      pop\n        /* \"#utility.yul\":11551:11603   */\n      tag_514\n        /* \"#utility.yul\":11596:11602   */\n      dup2\n        /* \"#utility.yul\":11591:11594   */\n      dup6\n        /* \"#utility.yul\":11584:11588   */\n      0x20\n        /* \"#utility.yul\":11577:11582   */\n      dup7\n        /* \"#utility.yul\":11573:11589   */\n      add\n        /* \"#utility.yul\":11551:11603   */\n      tag_505\n      jump\t// in\n    tag_514:\n        /* \"#utility.yul\":11628:11657   */\n      tag_515\n        /* \"#utility.yul\":11650:11656   */\n      dup2\n        /* \"#utility.yul\":11628:11657   */\n      tag_507\n      jump\t// in\n    tag_515:\n        /* \"#utility.yul\":11623:11626   */\n      dup5\n        /* \"#utility.yul\":11619:11658   */\n      add\n        /* \"#utility.yul\":11612:11658   */\n      swap2\n      pop\n        /* \"#utility.yul\":11392:11664   */\n      pop\n        /* \"#utility.yul\":11300:11664   */\n      swap3\n      swap2\n      pop\n      pop\n      jump\t// out\n        /* \"#utility.yul\":11670:12047   */\n    tag_516:\n        /* \"#utility.yul\":11776:11779   */\n      0x00\n        /* \"#utility.yul\":11804:11843   */\n      tag_518\n        /* \"#utility.yul\":11837:11842   */\n      dup3\n        /* \"#utility.yul\":11804:11843   */\n      tag_511\n      jump\t// in\n    tag_518:\n        /* \"#utility.yul\":11859:11948   */\n      tag_519\n        /* \"#utility.yul\":11941:11947   */\n      dup2\n        /* \"#utility.yul\":11936:11939   */\n      dup6\n        /* \"#utility.yul\":11859:11948   */\n      tag_520\n      jump\t// in\n    tag_519:\n        /* \"#utility.yul\":11852:11948   */\n      swap4\n      pop\n        /* \"#utility.yul\":11957:12009   */\n      tag_521\n        /* \"#utility.yul\":12002:12008   */\n      dup2\n        /* \"#utility.yul\":11997:12000   */\n      dup6\n        /* \"#utility.yul\":11990:11994   */\n      0x20\n        /* \"#utility.yul\":11983:11988   */\n      dup7\n        /* \"#utility.yul\":11979:11995   */\n      add\n        /* \"#utility.yul\":11957:12009   */\n      tag_505\n      jump\t// in\n    tag_521:\n        /* \"#utility.yul\":12034:12040   */\n      dup1\n        /* \"#utility.yul\":12029:12032   */\n      dup5\n        /* \"#utility.yul\":12025:12041   */\n      add\n        /* \"#utility.yul\":12018:12041   */\n      swap2\n      pop\n        /* \"#utility.yul\":11780:12047   */\n      pop\n        /* \"#utility.yul\":11670:12047   */\n      swap3\n      swap2\n      pop\n      pop\n      jump\t// out\n        /* \"#utility.yul\":12053:12419   */\n    tag_522:\n        /* \"#utility.yul\":12195:12198   */\n      0x00\n        /* \"#utility.yul\":12216:12283   */\n      tag_524\n        /* \"#utility.yul\":12280:12282   */\n      0x34\n        /* \"#utility.yul\":12275:12278   */\n      dup4\n        /* \"#utility.yul\":12216:12283   */\n      tag_513\n      jump\t// in\n    tag_524:\n        /* \"#utility.yul\":12209:12283   */\n      swap2\n      pop\n        /* \"#utility.yul\":12292:12385   */\n      tag_525\n        /* \"#utility.yul\":12381:12384   */\n      dup3\n        /* \"#utility.yul\":12292:12385   */\n      tag_526\n      jump\t// in\n    tag_525:\n        /* \"#utility.yul\":12410:12412   */\n      0x40\n        /* \"#utility.yul\":12405:12408   */\n      dup3\n        /* \"#utility.yul\":12401:12413   */\n      add\n        /* \"#utility.yul\":12394:12413   */\n      swap1\n      pop\n        /* \"#utility.yul\":12053:12419   */\n      swap2\n      swap1\n      pop\n      jump\t// out\n        /* \"#utility.yul\":12425:12791   */\n    tag_527:\n        /* \"#utility.yul\":12567:12570   */\n      0x00\n        /* \"#utility.yul\":12588:12655   */\n      tag_529\n        /* \"#utility.yul\":12652:12654   */\n      0x28\n        /* \"#utility.yul\":12647:12650   */\n      dup4\n        /* \"#utility.yul\":12588:12655   */\n      tag_513\n      jump\t// in\n    tag_529:\n        /* \"#utility.yul\":12581:12655   */\n      swap2\n      pop\n        /* \"#utility.yul\":12664:12757   */\n      tag_530\n        /* \"#utility.yul\":12753:12756   */\n      dup3\n        /* \"#utility.yul\":12664:12757   */\n      tag_531\n      jump\t// in\n    tag_530:\n        /* \"#utility.yul\":12782:12784   */\n      0x40\n        /* \"#utility.yul\":12777:12780   */\n      dup3\n        /* \"#utility.yul\":12773:12785   */\n      add\n        /* \"#utility.yul\":12766:12785   */\n      swap1\n      pop\n        /* \"#utility.yul\":12425:12791   */\n      swap2\n      swap1\n      pop\n      jump\t// out\n        /* \"#utility.yul\":12797:13163   */\n    tag_532:\n        /* \"#utility.yul\":12939:12942   */\n      0x00\n        /* \"#utility.yul\":12960:13027   */\n      tag_534\n        /* \"#utility.yul\":13024:13026   */\n      0x2b\n        /* \"#utility.yul\":13019:13022   */\n      dup4\n        /* \"#utility.yul\":12960:13027   */\n      tag_513\n      jump\t// in\n    tag_534:\n        /* \"#utility.yul\":12953:13027   */\n      swap2\n      pop\n        /* \"#utility.yul\":13036:13129   */\n      tag_535\n        /* \"#utility.yul\":13125:13128   */\n      dup3\n        /* \"#utility.yul\":13036:13129   */\n      tag_536\n      jump\t// in\n    tag_535:\n        /* \"#utility.yul\":13154:13156   */\n      0x40\n        /* \"#utility.yul\":13149:13152   */\n      dup3\n        /* \"#utility.yul\":13145:13157   */\n      add\n        /* \"#utility.yul\":13138:13157   */\n      swap1\n      pop\n        /* \"#utility.yul\":12797:13163   */\n      swap2\n      swap1\n      pop\n      jump\t// out\n        /* \"#utility.yul\":13169:13535   */\n    tag_537:\n        /* \"#utility.yul\":13311:13314   */\n      0x00\n        /* \"#utility.yul\":13332:13399   */\n      tag_539\n        /* \"#utility.yul\":13396:13398   */\n      0x31\n        /* \"#utility.yul\":13391:13394   */\n      dup4\n        /* \"#utility.yul\":13332:13399   */\n      tag_513\n      jump\t// in\n    tag_539:\n        /* \"#utility.yul\":13325:13399   */\n      swap2\n      pop\n        /* \"#utility.yul\":13408:13501   */\n      tag_540\n        /* \"#utility.yul\":13497:13500   */\n      dup3\n        /* \"#utility.yul\":13408:13501   */\n      tag_541\n      jump\t// in\n    tag_540:\n        /* \"#utility.yul\":13526:13528   */\n      0x40\n        /* \"#utility.yul\":13521:13524   */\n      dup3\n        /* \"#utility.yul\":13517:13529   */\n      add\n        /* \"#utility.yul\":13510:13529   */\n      swap1\n      pop\n        /* \"#utility.yul\":13169:13535   */\n      swap2\n      swap1\n      pop\n      jump\t// out\n        /* \"#utility.yul\":13541:13907   */\n    tag_542:\n        /* \"#utility.yul\":13683:13686   */\n      0x00\n        /* \"#utility.yul\":13704:13771   */\n      tag_544\n        /* \"#utility.yul\":13768:13770   */\n      0x1b\n        /* \"#utility.yul\":13763:13766   */\n      dup4\n        /* \"#utility.yul\":13704:13771   */\n      tag_513\n      jump\t// in\n    tag_544:\n        /* \"#utility.yul\":13697:13771   */\n      swap2\n      pop\n        /* \"#utility.yul\":13780:13873   */\n      tag_545\n        /* \"#utility.yul\":13869:13872   */\n      dup3\n        /* \"#utility.yul\":13780:13873   */\n      tag_546\n      jump\t// in\n    tag_545:\n        /* \"#utility.yul\":13898:13900   */\n      0x20\n        /* \"#utility.yul\":13893:13896   */\n      dup3\n        /* \"#utility.yul\":13889:13901   */\n      add\n        /* \"#utility.yul\":13882:13901   */\n      swap1\n      pop\n        /* \"#utility.yul\":13541:13907   */\n      swap2\n      swap1\n      pop\n      jump\t// out\n        /* \"#utility.yul\":13913:14279   */\n    tag_547:\n        /* \"#utility.yul\":14055:14058   */\n      0x00\n        /* \"#utility.yul\":14076:14143   */\n      tag_549\n        /* \"#utility.yul\":14140:14142   */\n      0x29\n        /* \"#utility.yul\":14135:14138   */\n      dup4\n        /* \"#utility.yul\":14076:14143   */\n      tag_513\n      jump\t// in\n    tag_549:\n        /* \"#utility.yul\":14069:14143   */\n      swap2\n      pop\n        /* \"#utility.yul\":14152:14245   */\n      tag_550\n        /* \"#utility.yul\":14241:14244   */\n      dup3\n        /* \"#utility.yul\":14152:14245   */\n      tag_551\n      jump\t// in\n    tag_550:\n        /* \"#utility.yul\":14270:14272   */\n      0x40\n        /* \"#utility.yul\":14265:14268   */\n      dup3\n        /* \"#utility.yul\":14261:14273   */\n      add\n        /* \"#utility.yul\":14254:14273   */\n      swap1\n      pop\n        /* \"#utility.yul\":13913:14279   */\n      swap2\n      swap1\n      pop\n      jump\t// out\n        /* \"#utility.yul\":14285:14651   */\n    tag_552:\n        /* \"#utility.yul\":14427:14430   */\n      0x00\n        /* \"#utility.yul\":14448:14515   */\n      tag_554\n        /* \"#utility.yul\":14512:14514   */\n      0x25\n        /* \"#utility.yul\":14507:14510   */\n      dup4\n        /* \"#utility.yul\":14448:14515   */\n      tag_513\n      jump\t// in\n    tag_554:\n        /* \"#utility.yul\":14441:14515   */\n      swap2\n      pop\n        /* \"#utility.yul\":14524:14617   */\n      tag_555\n        /* \"#utility.yul\":14613:14616   */\n      dup3\n        /* \"#utility.yul\":14524:14617   */\n      tag_556\n      jump\t// in\n    tag_555:\n        /* \"#utility.yul\":14642:14644   */\n      0x40\n        /* \"#utility.yul\":14637:14640   */\n      dup3\n        /* \"#utility.yul\":14633:14645   */\n      add\n        /* \"#utility.yul\":14626:14645   */\n      swap1\n      pop\n        /* \"#utility.yul\":14285:14651   */\n      swap2\n      swap1\n      pop\n      jump\t// out\n        /* \"#utility.yul\":14657:15023   */\n    tag_557:\n        /* \"#utility.yul\":14799:14802   */\n      0x00\n        /* \"#utility.yul\":14820:14887   */\n      tag_559\n        /* \"#utility.yul\":14884:14886   */\n      0x32\n        /* \"#utility.yul\":14879:14882   */\n      dup4\n        /* \"#utility.yul\":14820:14887   */\n      tag_513\n      jump\t// in\n    tag_559:\n        /* \"#utility.yul\":14813:14887   */\n      swap2\n      pop\n        /* \"#utility.yul\":14896:14989   */\n      tag_560\n        /* \"#utility.yul\":14985:14988   */\n      dup3\n        /* \"#utility.yul\":14896:14989   */\n      tag_561\n      jump\t// in\n    tag_560:\n        /* \"#utility.yul\":15014:15016   */\n      0x40\n        /* \"#utility.yul\":15009:15012   */\n      dup3\n        /* \"#utility.yul\":15005:15017   */\n      add\n        /* \"#utility.yul\":14998:15017   */\n      swap1\n      pop\n        /* \"#utility.yul\":14657:15023   */\n      swap2\n      swap1\n      pop\n      jump\t// out\n        /* \"#utility.yul\":15029:15395   */\n    tag_562:\n        /* \"#utility.yul\":15171:15174   */\n      0x00\n        /* \"#utility.yul\":15192:15259   */\n      tag_564\n        /* \"#utility.yul\":15256:15258   */\n      0x34\n        /* \"#utility.yul\":15251:15254   */\n      dup4\n        /* \"#utility.yul\":15192:15259   */\n      tag_513\n      jump\t// in\n    tag_564:\n        /* \"#utility.yul\":15185:15259   */\n      swap2\n      pop\n        /* \"#utility.yul\":15268:15361   */\n      tag_565\n        /* \"#utility.yul\":15357:15360   */\n      dup3\n        /* \"#utility.yul\":15268:15361   */\n      tag_566\n      jump\t// in\n    tag_565:\n        /* \"#utility.yul\":15386:15388   */\n      0x40\n        /* \"#utility.yul\":15381:15384   */\n      dup3\n        /* \"#utility.yul\":15377:15389   */\n      add\n        /* \"#utility.yul\":15370:15389   */\n      swap1\n      pop\n        /* \"#utility.yul\":15029:15395   */\n      swap2\n      swap1\n      pop\n      jump\t// out\n        /* \"#utility.yul\":15401:15767   */\n    tag_567:\n        /* \"#utility.yul\":15543:15546   */\n      0x00\n        /* \"#utility.yul\":15564:15631   */\n      tag_569\n        /* \"#utility.yul\":15628:15630   */\n      0x30\n        /* \"#utility.yul\":15623:15626   */\n      dup4\n        /* \"#utility.yul\":15564:15631   */\n      tag_513\n      jump\t// in\n    tag_569:\n        /* \"#utility.yul\":15557:15631   */\n      swap2\n      pop\n        /* \"#utility.yul\":15640:15733   */\n      tag_570\n        /* \"#utility.yul\":15729:15732   */\n      dup3\n        /* \"#utility.yul\":15640:15733   */\n      tag_571\n      jump\t// in\n    tag_570:\n        /* \"#utility.yul\":15758:15760   */\n      0x40\n        /* \"#utility.yul\":15753:15756   */\n      dup3\n        /* \"#utility.yul\":15749:15761   */\n      add\n        /* \"#utility.yul\":15742:15761   */\n      swap1\n      pop\n        /* \"#utility.yul\":15401:15767   */\n      swap2\n      swap1\n      pop\n      jump\t// out\n        /* \"#utility.yul\":15773:16139   */\n    tag_572:\n        /* \"#utility.yul\":15915:15918   */\n      0x00\n        /* \"#utility.yul\":15936:16003   */\n      tag_574\n        /* \"#utility.yul\":16000:16002   */\n      0x29\n        /* \"#utility.yul\":15995:15998   */\n      dup4\n        /* \"#utility.yul\":15936:16003   */\n      tag_513\n      jump\t// in\n    tag_574:\n        /* \"#utility.yul\":15929:16003   */\n      swap2\n      pop\n        /* \"#utility.yul\":16012:16105   */\n      tag_575\n        /* \"#utility.yul\":16101:16104   */\n      dup3\n        /* \"#utility.yul\":16012:16105   */\n      tag_576\n      jump\t// in\n    tag_575:\n        /* \"#utility.yul\":16130:16132   */\n      0x40\n        /* \"#utility.yul\":16125:16128   */\n      dup3\n        /* \"#utility.yul\":16121:16133   */\n      add\n        /* \"#utility.yul\":16114:16133   */\n      swap1\n      pop\n        /* \"#utility.yul\":15773:16139   */\n      swap2\n      swap1\n      pop\n      jump\t// out\n        /* \"#utility.yul\":16145:16511   */\n    tag_577:\n        /* \"#utility.yul\":16287:16290   */\n      0x00\n        /* \"#utility.yul\":16308:16375   */\n      tag_579\n        /* \"#utility.yul\":16372:16374   */\n      0x29\n        /* \"#utility.yul\":16367:16370   */\n      dup4\n        /* \"#utility.yul\":16308:16375   */\n      tag_513\n      jump\t// in\n    tag_579:\n        /* \"#utility.yul\":16301:16375   */\n      swap2\n      pop\n        /* \"#utility.yul\":16384:16477   */\n      tag_580\n        /* \"#utility.yul\":16473:16476   */\n      dup3\n        /* \"#utility.yul\":16384:16477   */\n      tag_581\n      jump\t// in\n    tag_580:\n        /* \"#utility.yul\":16502:16504   */\n      0x40\n        /* \"#utility.yul\":16497:16500   */\n      dup3\n        /* \"#utility.yul\":16493:16505   */\n      add\n        /* \"#utility.yul\":16486:16505   */\n      swap1\n      pop\n        /* \"#utility.yul\":16145:16511   */\n      swap2\n      swap1\n      pop\n      jump\t// out\n        /* \"#utility.yul\":16517:16883   */\n    tag_582:\n        /* \"#utility.yul\":16659:16662   */\n      0x00\n        /* \"#utility.yul\":16680:16747   */\n      tag_584\n        /* \"#utility.yul\":16744:16746   */\n      0x28\n        /* \"#utility.yul\":16739:16742   */\n      dup4\n        /* \"#utility.yul\":16680:16747   */\n      tag_513\n      jump\t// in\n    tag_584:\n        /* \"#utility.yul\":16673:16747   */\n      swap2\n      pop\n        /* \"#utility.yul\":16756:16849   */\n      tag_585\n        /* \"#utility.yul\":16845:16848   */\n      dup3\n        /* \"#utility.yul\":16756:16849   */\n      tag_586\n      jump\t// in\n    tag_585:\n        /* \"#utility.yul\":16874:16876   */\n      0x40\n        /* \"#utility.yul\":16869:16872   */\n      dup3\n        /* \"#utility.yul\":16865:16877   */\n      add\n        /* \"#utility.yul\":16858:16877   */\n      swap1\n      pop\n        /* \"#utility.yul\":16517:16883   */\n      swap2\n      swap1\n      pop\n      jump\t// out\n        /* \"#utility.yul\":16889:16997   */\n    tag_475:\n        /* \"#utility.yul\":16966:16990   */\n      tag_588\n        /* \"#utility.yul\":16984:16989   */\n      dup2\n        /* \"#utility.yul\":16966:16990   */\n      tag_589\n      jump\t// in\n    tag_588:\n        /* \"#utility.yul\":16961:16964   */\n      dup3\n        /* \"#utility.yul\":16954:16991   */\n      mstore\n        /* \"#utility.yul\":16889:16997   */\n      pop\n      pop\n      jump\t// out\n        /* \"#utility.yul\":17003:17121   */\n    tag_590:\n        /* \"#utility.yul\":17090:17114   */\n      tag_592\n        /* \"#utility.yul\":17108:17113   */\n      dup2\n        /* \"#utility.yul\":17090:17114   */\n      tag_589\n      jump\t// in\n    tag_592:\n        /* \"#utility.yul\":17085:17088   */\n      dup3\n        /* \"#utility.yul\":17078:17115   */\n      mstore\n        /* \"#utility.yul\":17003:17121   */\n      pop\n      pop\n      jump\t// out\n        /* \"#utility.yul\":17127:17562   */\n    tag_207:\n        /* \"#utility.yul\":17307:17310   */\n      0x00\n        /* \"#utility.yul\":17329:17424   */\n      tag_594\n        /* \"#utility.yul\":17420:17423   */\n      dup3\n        /* \"#utility.yul\":17411:17417   */\n      dup6\n        /* \"#utility.yul\":17329:17424   */\n      tag_516\n      jump\t// in\n    tag_594:\n        /* \"#utility.yul\":17322:17424   */\n      swap2\n      pop\n        /* \"#utility.yul\":17441:17536   */\n      tag_595\n        /* \"#utility.yul\":17532:17535   */\n      dup3\n        /* \"#utility.yul\":17523:17529   */\n      dup5\n        /* \"#utility.yul\":17441:17536   */\n      tag_516\n      jump\t// in\n    tag_595:\n        /* \"#utility.yul\":17434:17536   */\n      swap2\n      pop\n        /* \"#utility.yul\":17553:17556   */\n      dup2\n        /* \"#utility.yul\":17546:17556   */\n      swap1\n      pop\n        /* \"#utility.yul\":17127:17562   */\n      swap4\n      swap3\n      pop\n      pop\n      pop\n      jump\t// out\n        /* \"#utility.yul\":17568:17790   */\n    tag_55:\n        /* \"#utility.yul\":17661:17665   */\n      0x00\n        /* \"#utility.yul\":17699:17701   */\n      0x20\n        /* \"#utility.yul\":17688:17697   */\n      dup3\n        /* \"#utility.yul\":17684:17702   */\n      add\n        /* \"#utility.yul\":17676:17702   */\n      swap1\n      pop\n        /* \"#utility.yul\":17712:17783   */\n      tag_597\n        /* \"#utility.yul\":17780:17781   */\n      0x00\n        /* \"#utility.yul\":17769:17778   */\n      dup4\n        /* \"#utility.yul\":17765:17782   */\n      add\n        /* \"#utility.yul\":17756:17762   */\n      dup5\n        /* \"#utility.yul\":17712:17783   */\n      tag_476\n      jump\t// in\n    tag_597:\n        /* \"#utility.yul\":17568:17790   */\n      swap3\n      swap2\n      pop\n      pop\n      jump\t// out\n        /* \"#utility.yul\":17796:18849   */\n    tag_258:\n        /* \"#utility.yul\":18119:18123   */\n      0x00\n        /* \"#utility.yul\":18157:18160   */\n      0xa0\n        /* \"#utility.yul\":18146:18155   */\n      dup3\n        /* \"#utility.yul\":18142:18161   */\n      add\n        /* \"#utility.yul\":18134:18161   */\n      swap1\n      pop\n        /* \"#utility.yul\":18171:18242   */\n      tag_599\n        /* \"#utility.yul\":18239:18240   */\n      0x00\n        /* \"#utility.yul\":18228:18237   */\n      dup4\n        /* \"#utility.yul\":18224:18241   */\n      add\n        /* \"#utility.yul\":18215:18221   */\n      dup9\n        /* \"#utility.yul\":18171:18242   */\n      tag_476\n      jump\t// in\n    tag_599:\n        /* \"#utility.yul\":18252:18324   */\n      tag_600\n        /* \"#utility.yul\":18320:18322   */\n      0x20\n        /* \"#utility.yul\":18309:18318   */\n      dup4\n        /* \"#utility.yul\":18305:18323   */\n      add\n        /* \"#utility.yul\":18296:18302   */\n      dup8\n        /* \"#utility.yul\":18252:18324   */\n      tag_476\n      jump\t// in\n    tag_600:\n        /* \"#utility.yul\":18371:18380   */\n      dup2\n        /* \"#utility.yul\":18365:18369   */\n      dup2\n        /* \"#utility.yul\":18361:18381   */\n      sub\n        /* \"#utility.yul\":18356:18358   */\n      0x40\n        /* \"#utility.yul\":18345:18354   */\n      dup4\n        /* \"#utility.yul\":18341:18359   */\n      add\n        /* \"#utility.yul\":18334:18382   */\n      mstore\n        /* \"#utility.yul\":18399:18507   */\n      tag_601\n        /* \"#utility.yul\":18502:18506   */\n      dup2\n        /* \"#utility.yul\":18493:18499   */\n      dup7\n        /* \"#utility.yul\":18399:18507   */\n      tag_480\n      jump\t// in\n    tag_601:\n        /* \"#utility.yul\":18391:18507   */\n      swap1\n      pop\n        /* \"#utility.yul\":18554:18563   */\n      dup2\n        /* \"#utility.yul\":18548:18552   */\n      dup2\n        /* \"#utility.yul\":18544:18564   */\n      sub\n        /* \"#utility.yul\":18539:18541   */\n      0x60\n        /* \"#utility.yul\":18528:18537   */\n      dup4\n        /* \"#utility.yul\":18524:18542   */\n      add\n        /* \"#utility.yul\":18517:18565   */\n      mstore\n        /* \"#utility.yul\":18582:18690   */\n      tag_602\n        /* \"#utility.yul\":18685:18689   */\n      dup2\n        /* \"#utility.yul\":18676:18682   */\n      dup6\n        /* \"#utility.yul\":18582:18690   */\n      tag_480\n      jump\t// in\n    tag_602:\n        /* \"#utility.yul\":18574:18690   */\n      swap1\n      pop\n        /* \"#utility.yul\":18738:18747   */\n      dup2\n        /* \"#utility.yul\":18732:18736   */\n      dup2\n        /* \"#utility.yul\":18728:18748   */\n      sub\n        /* \"#utility.yul\":18722:18725   */\n      0x80\n        /* \"#utility.yul\":18711:18720   */\n      dup4\n        /* \"#utility.yul\":18707:18726   */\n      add\n        /* \"#utility.yul\":18700:18749   */\n      mstore\n        /* \"#utility.yul\":18766:18842   */\n      tag_603\n        /* \"#utility.yul\":18837:18841   */\n      dup2\n        /* \"#utility.yul\":18828:18834   */\n      dup5\n        /* \"#utility.yul\":18766:18842   */\n      tag_498\n      jump\t// in\n    tag_603:\n        /* \"#utility.yul\":18758:18842   */\n      swap1\n      pop\n        /* \"#utility.yul\":17796:18849   */\n      swap7\n      swap6\n      pop\n      pop\n      pop\n      pop\n      pop\n      pop\n      jump\t// out\n        /* \"#utility.yul\":18855:19606   */\n    tag_311:\n        /* \"#utility.yul\":19078:19082   */\n      0x00\n        /* \"#utility.yul\":19116:19119   */\n      0xa0\n        /* \"#utility.yul\":19105:19114   */\n      dup3\n        /* \"#utility.yul\":19101:19120   */\n      add\n        /* \"#utility.yul\":19093:19120   */\n      swap1\n      pop\n        /* \"#utility.yul\":19130:19201   */\n      tag_605\n        /* \"#utility.yul\":19198:19199   */\n      0x00\n        /* \"#utility.yul\":19187:19196   */\n      dup4\n        /* \"#utility.yul\":19183:19200   */\n      add\n        /* \"#utility.yul\":19174:19180   */\n      dup9\n        /* \"#utility.yul\":19130:19201   */\n      tag_476\n      jump\t// in\n    tag_605:\n        /* \"#utility.yul\":19211:19283   */\n      tag_606\n        /* \"#utility.yul\":19279:19281   */\n      0x20\n        /* \"#utility.yul\":19268:19277   */\n      dup4\n        /* \"#utility.yul\":19264:19282   */\n      add\n        /* \"#utility.yul\":19255:19261   */\n      dup8\n        /* \"#utility.yul\":19211:19283   */\n      tag_476\n      jump\t// in\n    tag_606:\n        /* \"#utility.yul\":19293:19365   */\n      tag_607\n        /* \"#utility.yul\":19361:19363   */\n      0x40\n        /* \"#utility.yul\":19350:19359   */\n      dup4\n        /* \"#utility.yul\":19346:19364   */\n      add\n        /* \"#utility.yul\":19337:19343   */\n      dup7\n        /* \"#utility.yul\":19293:19365   */\n      tag_590\n      jump\t// in\n    tag_607:\n        /* \"#utility.yul\":19375:19447   */\n      tag_608\n        /* \"#utility.yul\":19443:19445   */\n      0x60\n        /* \"#utility.yul\":19432:19441   */\n      dup4\n        /* \"#utility.yul\":19428:19446   */\n      add\n        /* \"#utility.yul\":19419:19425   */\n      dup6\n        /* \"#utility.yul\":19375:19447   */\n      tag_590\n      jump\t// in\n    tag_608:\n        /* \"#utility.yul\":19495:19504   */\n      dup2\n        /* \"#utility.yul\":19489:19493   */\n      dup2\n        /* \"#utility.yul\":19485:19505   */\n      sub\n        /* \"#utility.yul\":19479:19482   */\n      0x80\n        /* \"#utility.yul\":19468:19477   */\n      dup4\n        /* \"#utility.yul\":19464:19483   */\n      add\n        /* \"#utility.yul\":19457:19506   */\n      mstore\n        /* \"#utility.yul\":19523:19599   */\n      tag_609\n        /* \"#utility.yul\":19594:19598   */\n      dup2\n        /* \"#utility.yul\":19585:19591   */\n      dup5\n        /* \"#utility.yul\":19523:19599   */\n      tag_498\n      jump\t// in\n    tag_609:\n        /* \"#utility.yul\":19515:19599   */\n      swap1\n      pop\n        /* \"#utility.yul\":18855:19606   */\n      swap7\n      swap6\n      pop\n      pop\n      pop\n      pop\n      pop\n      pop\n      jump\t// out\n        /* \"#utility.yul\":19612:19985   */\n    tag_49:\n        /* \"#utility.yul\":19755:19759   */\n      0x00\n        /* \"#utility.yul\":19793:19795   */\n      0x20\n        /* \"#utility.yul\":19782:19791   */\n      dup3\n        /* \"#utility.yul\":19778:19796   */\n      add\n        /* \"#utility.yul\":19770:19796   */\n      swap1\n      pop\n        /* \"#utility.yul\":19842:19851   */\n      dup2\n        /* \"#utility.yul\":19836:19840   */\n      dup2\n        /* \"#utility.yul\":19832:19852   */\n      sub\n        /* \"#utility.yul\":19828:19829   */\n      0x00\n        /* \"#utility.yul\":19817:19826   */\n      dup4\n        /* \"#utility.yul\":19813:19830   */\n      add\n        /* \"#utility.yul\":19806:19853   */\n      mstore\n        /* \"#utility.yul\":19870:19978   */\n      tag_611\n        /* \"#utility.yul\":19973:19977   */\n      dup2\n        /* \"#utility.yul\":19964:19970   */\n      dup5\n        /* \"#utility.yul\":19870:19978   */\n      tag_480\n      jump\t// in\n    tag_611:\n        /* \"#utility.yul\":19862:19978   */\n      swap1\n      pop\n        /* \"#utility.yul\":19612:19985   */\n      swap3\n      swap2\n      pop\n      pop\n      jump\t// out\n        /* \"#utility.yul\":19991:20625   */\n    tag_140:\n        /* \"#utility.yul\":20212:20216   */\n      0x00\n        /* \"#utility.yul\":20250:20252   */\n      0x40\n        /* \"#utility.yul\":20239:20248   */\n      dup3\n        /* \"#utility.yul\":20235:20253   */\n      add\n        /* \"#utility.yul\":20227:20253   */\n      swap1\n      pop\n        /* \"#utility.yul\":20299:20308   */\n      dup2\n        /* \"#utility.yul\":20293:20297   */\n      dup2\n        /* \"#utility.yul\":20289:20309   */\n      sub\n        /* \"#utility.yul\":20285:20286   */\n      0x00\n        /* \"#utility.yul\":20274:20283   */\n      dup4\n        /* \"#utility.yul\":20270:20287   */\n      add\n        /* \"#utility.yul\":20263:20310   */\n      mstore\n        /* \"#utility.yul\":20327:20435   */\n      tag_613\n        /* \"#utility.yul\":20430:20434   */\n      dup2\n        /* \"#utility.yul\":20421:20427   */\n      dup6\n        /* \"#utility.yul\":20327:20435   */\n      tag_480\n      jump\t// in\n    tag_613:\n        /* \"#utility.yul\":20319:20435   */\n      swap1\n      pop\n        /* \"#utility.yul\":20482:20491   */\n      dup2\n        /* \"#utility.yul\":20476:20480   */\n      dup2\n        /* \"#utility.yul\":20472:20492   */\n      sub\n        /* \"#utility.yul\":20467:20469   */\n      0x20\n        /* \"#utility.yul\":20456:20465   */\n      dup4\n        /* \"#utility.yul\":20452:20470   */\n      add\n        /* \"#utility.yul\":20445:20493   */\n      mstore\n        /* \"#utility.yul\":20510:20618   */\n      tag_614\n        /* \"#utility.yul\":20613:20617   */\n      dup2\n        /* \"#utility.yul\":20604:20610   */\n      dup5\n        /* \"#utility.yul\":20510:20618   */\n      tag_480\n      jump\t// in\n    tag_614:\n        /* \"#utility.yul\":20502:20618   */\n      swap1\n      pop\n        /* \"#utility.yul\":19991:20625   */\n      swap4\n      swap3\n      pop\n      pop\n      pop\n      jump\t// out\n        /* \"#utility.yul\":20631:20841   */\n    tag_32:\n        /* \"#utility.yul\":20718:20722   */\n      0x00\n        /* \"#utility.yul\":20756:20758   */\n      0x20\n        /* \"#utility.yul\":20745:20754   */\n      dup3\n        /* \"#utility.yul\":20741:20759   */\n      add\n        /* \"#utility.yul\":20733:20759   */\n      swap1\n      pop\n        /* \"#utility.yul\":20769:20834   */\n      tag_616\n        /* \"#utility.yul\":20831:20832   */\n      0x00\n        /* \"#utility.yul\":20820:20829   */\n      dup4\n        /* \"#utility.yul\":20816:20833   */\n      add\n        /* \"#utility.yul\":20807:20813   */\n      dup5\n        /* \"#utility.yul\":20769:20834   */\n      tag_494\n      jump\t// in\n    tag_616:\n        /* \"#utility.yul\":20631:20841   */\n      swap3\n      swap2\n      pop\n      pop\n      jump\t// out\n        /* \"#utility.yul\":20847:21160   */\n    tag_36:\n        /* \"#utility.yul\":20960:20964   */\n      0x00\n        /* \"#utility.yul\":20998:21000   */\n      0x20\n        /* \"#utility.yul\":20987:20996   */\n      dup3\n        /* \"#utility.yul\":20983:21001   */\n      add\n        /* \"#utility.yul\":20975:21001   */\n      swap1\n      pop\n        /* \"#utility.yul\":21047:21056   */\n      dup2\n        /* \"#utility.yul\":21041:21045   */\n      dup2\n        /* \"#utility.yul\":21037:21057   */\n      sub\n        /* \"#utility.yul\":21033:21034   */\n      0x00\n        /* \"#utility.yul\":21022:21031   */\n      dup4\n        /* \"#utility.yul\":21018:21035   */\n      add\n        /* \"#utility.yul\":21011:21058   */\n      mstore\n        /* \"#utility.yul\":21075:21153   */\n      tag_618\n        /* \"#utility.yul\":21148:21152   */\n      dup2\n        /* \"#utility.yul\":21139:21145   */\n      dup5\n        /* \"#utility.yul\":21075:21153   */\n      tag_508\n      jump\t// in\n    tag_618:\n        /* \"#utility.yul\":21067:21153   */\n      swap1\n      pop\n        /* \"#utility.yul\":20847:21160   */\n      swap3\n      swap2\n      pop\n      pop\n      jump\t// out\n        /* \"#utility.yul\":21166:21585   */\n    tag_274:\n        /* \"#utility.yul\":21332:21336   */\n      0x00\n        /* \"#utility.yul\":21370:21372   */\n      0x20\n        /* \"#utility.yul\":21359:21368   */\n      dup3\n        /* \"#utility.yul\":21355:21373   */\n      add\n        /* \"#utility.yul\":21347:21373   */\n      swap1\n      pop\n        /* \"#utility.yul\":21419:21428   */\n      dup2\n        /* \"#utility.yul\":21413:21417   */\n      dup2\n        /* \"#utility.yul\":21409:21429   */\n      sub\n        /* \"#utility.yul\":21405:21406   */\n      0x00\n        /* \"#utility.yul\":21394:21403   */\n      dup4\n        /* \"#utility.yul\":21390:21407   */\n      add\n        /* \"#utility.yul\":21383:21430   */\n      mstore\n        /* \"#utility.yul\":21447:21578   */\n      tag_620\n        /* \"#utility.yul\":21573:21577   */\n      dup2\n        /* \"#utility.yul\":21447:21578   */\n      tag_522\n      jump\t// in\n    tag_620:\n        /* \"#utility.yul\":21439:21578   */\n      swap1\n      pop\n        /* \"#utility.yul\":21166:21585   */\n      swap2\n      swap1\n      pop\n      jump\t// out\n        /* \"#utility.yul\":21591:22010   */\n    tag_278:\n        /* \"#utility.yul\":21757:21761   */\n      0x00\n        /* \"#utility.yul\":21795:21797   */\n      0x20\n        /* \"#utility.yul\":21784:21793   */\n      dup3\n        /* \"#utility.yul\":21780:21798   */\n      add\n        /* \"#utility.yul\":21772:21798   */\n      swap1\n      pop\n        /* \"#utility.yul\":21844:21853   */\n      dup2\n        /* \"#utility.yul\":21838:21842   */\n      dup2\n        /* \"#utility.yul\":21834:21854   */\n      sub\n        /* \"#utility.yul\":21830:21831   */\n      0x00\n        /* \"#utility.yul\":21819:21828   */\n      dup4\n        /* \"#utility.yul\":21815:21832   */\n      add\n        /* \"#utility.yul\":21808:21855   */\n      mstore\n        /* \"#utility.yul\":21872:22003   */\n      tag_622\n        /* \"#utility.yul\":21998:22002   */\n      dup2\n        /* \"#utility.yul\":21872:22003   */\n      tag_527\n      jump\t// in\n    tag_622:\n        /* \"#utility.yul\":21864:22003   */\n      swap1\n      pop\n        /* \"#utility.yul\":21591:22010   */\n      swap2\n      swap1\n      pop\n      jump\t// out\n        /* \"#utility.yul\":22016:22435   */\n    tag_95:\n        /* \"#utility.yul\":22182:22186   */\n      0x00\n        /* \"#utility.yul\":22220:22222   */\n      0x20\n        /* \"#utility.yul\":22209:22218   */\n      dup3\n        /* \"#utility.yul\":22205:22223   */\n      add\n        /* \"#utility.yul\":22197:22223   */\n      swap1\n      pop\n        /* \"#utility.yul\":22269:22278   */\n      dup2\n        /* \"#utility.yul\":22263:22267   */\n      dup2\n        /* \"#utility.yul\":22259:22279   */\n      sub\n        /* \"#utility.yul\":22255:22256   */\n      0x00\n        /* \"#utility.yul\":22244:22253   */\n      dup4\n        /* \"#utility.yul\":22240:22257   */\n      add\n        /* \"#utility.yul\":22233:22280   */\n      mstore\n        /* \"#utility.yul\":22297:22428   */\n      tag_624\n        /* \"#utility.yul\":22423:22427   */\n      dup2\n        /* \"#utility.yul\":22297:22428   */\n      tag_532\n      jump\t// in\n    tag_624:\n        /* \"#utility.yul\":22289:22428   */\n      swap1\n      pop\n        /* \"#utility.yul\":22016:22435   */\n      swap2\n      swap1\n      pop\n      jump\t// out\n        /* \"#utility.yul\":22441:22860   */\n    tag_158:\n        /* \"#utility.yul\":22607:22611   */\n      0x00\n        /* \"#utility.yul\":22645:22647   */\n      0x20\n        /* \"#utility.yul\":22634:22643   */\n      dup3\n        /* \"#utility.yul\":22630:22648   */\n      add\n        /* \"#utility.yul\":22622:22648   */\n      swap1\n      pop\n        /* \"#utility.yul\":22694:22703   */\n      dup2\n        /* \"#utility.yul\":22688:22692   */\n      dup2\n        /* \"#utility.yul\":22684:22704   */\n      sub\n        /* \"#utility.yul\":22680:22681   */\n      0x00\n        /* \"#utility.yul\":22669:22678   */\n      dup4\n        /* \"#utility.yul\":22665:22682   */\n      add\n        /* \"#utility.yul\":22658:22705   */\n      mstore\n        /* \"#utility.yul\":22722:22853   */\n      tag_626\n        /* \"#utility.yul\":22848:22852   */\n      dup2\n        /* \"#utility.yul\":22722:22853   */\n      tag_537\n      jump\t// in\n    tag_626:\n        /* \"#utility.yul\":22714:22853   */\n      swap1\n      pop\n        /* \"#utility.yul\":22441:22860   */\n      swap2\n      swap1\n      pop\n      jump\t// out\n        /* \"#utility.yul\":22866:23285   */\n    tag_252:\n        /* \"#utility.yul\":23032:23036   */\n      0x00\n        /* \"#utility.yul\":23070:23072   */\n      0x20\n        /* \"#utility.yul\":23059:23068   */\n      dup3\n        /* \"#utility.yul\":23055:23073   */\n      add\n        /* \"#utility.yul\":23047:23073   */\n      swap1\n      pop\n        /* \"#utility.yul\":23119:23128   */\n      dup2\n        /* \"#utility.yul\":23113:23117   */\n      dup2\n        /* \"#utility.yul\":23109:23129   */\n      sub\n        /* \"#utility.yul\":23105:23106   */\n      0x00\n        /* \"#utility.yul\":23094:23103   */\n      dup4\n        /* \"#utility.yul\":23090:23107   */\n      add\n        /* \"#utility.yul\":23083:23130   */\n      mstore\n        /* \"#utility.yul\":23147:23278   */\n      tag_628\n        /* \"#utility.yul\":23273:23277   */\n      dup2\n        /* \"#utility.yul\":23147:23278   */\n      tag_542\n      jump\t// in\n    tag_628:\n        /* \"#utility.yul\":23139:23278   */\n      swap1\n      pop\n        /* \"#utility.yul\":22866:23285   */\n      swap2\n      swap1\n      pop\n      jump\t// out\n        /* \"#utility.yul\":23291:23710   */\n    tag_222:\n        /* \"#utility.yul\":23457:23461   */\n      0x00\n        /* \"#utility.yul\":23495:23497   */\n      0x20\n        /* \"#utility.yul\":23484:23493   */\n      dup3\n        /* \"#utility.yul\":23480:23498   */\n      add\n        /* \"#utility.yul\":23472:23498   */\n      swap1\n      pop\n        /* \"#utility.yul\":23544:23553   */\n      dup2\n        /* \"#utility.yul\":23538:23542   */\n      dup2\n        /* \"#utility.yul\":23534:23554   */\n      sub\n        /* \"#utility.yul\":23530:23531   */\n      0x00\n        /* \"#utility.yul\":23519:23528   */\n      dup4\n        /* \"#utility.yul\":23515:23532   */\n      add\n        /* \"#utility.yul\":23508:23555   */\n      mstore\n        /* \"#utility.yul\":23572:23703   */\n      tag_630\n        /* \"#utility.yul\":23698:23702   */\n      dup2\n        /* \"#utility.yul\":23572:23703   */\n      tag_547\n      jump\t// in\n    tag_630:\n        /* \"#utility.yul\":23564:23703   */\n      swap1\n      pop\n        /* \"#utility.yul\":23291:23710   */\n      swap2\n      swap1\n      pop\n      jump\t// out\n        /* \"#utility.yul\":23716:24135   */\n    tag_113:\n        /* \"#utility.yul\":23882:23886   */\n      0x00\n        /* \"#utility.yul\":23920:23922   */\n      0x20\n        /* \"#utility.yul\":23909:23918   */\n      dup3\n        /* \"#utility.yul\":23905:23923   */\n      add\n        /* \"#utility.yul\":23897:23923   */\n      swap1\n      pop\n        /* \"#utility.yul\":23969:23978   */\n      dup2\n        /* \"#utility.yul\":23963:23967   */\n      dup2\n        /* \"#utility.yul\":23959:23979   */\n      sub\n        /* \"#utility.yul\":23955:23956   */\n      0x00\n        /* \"#utility.yul\":23944:23953   */\n      dup4\n        /* \"#utility.yul\":23940:23957   */\n      add\n        /* \"#utility.yul\":23933:23980   */\n      mstore\n        /* \"#utility.yul\":23997:24128   */\n      tag_632\n        /* \"#utility.yul\":24123:24127   */\n      dup2\n        /* \"#utility.yul\":23997:24128   */\n      tag_552\n      jump\t// in\n    tag_632:\n        /* \"#utility.yul\":23989:24128   */\n      swap1\n      pop\n        /* \"#utility.yul\":23716:24135   */\n      swap2\n      swap1\n      pop\n      jump\t// out\n        /* \"#utility.yul\":24141:24560   */\n    tag_121:\n        /* \"#utility.yul\":24307:24311   */\n      0x00\n        /* \"#utility.yul\":24345:24347   */\n      0x20\n        /* \"#utility.yul\":24334:24343   */\n      dup3\n        /* \"#utility.yul\":24330:24348   */\n      add\n        /* \"#utility.yul\":24322:24348   */\n      swap1\n      pop\n        /* \"#utility.yul\":24394:24403   */\n      dup2\n        /* \"#utility.yul\":24388:24392   */\n      dup2\n        /* \"#utility.yul\":24384:24404   */\n      sub\n        /* \"#utility.yul\":24380:24381   */\n      0x00\n        /* \"#utility.yul\":24369:24378   */\n      dup4\n        /* \"#utility.yul\":24365:24382   */\n      add\n        /* \"#utility.yul\":24358:24405   */\n      mstore\n        /* \"#utility.yul\":24422:24553   */\n      tag_634\n        /* \"#utility.yul\":24548:24552   */\n      dup2\n        /* \"#utility.yul\":24422:24553   */\n      tag_557\n      jump\t// in\n    tag_634:\n        /* \"#utility.yul\":24414:24553   */\n      swap1\n      pop\n        /* \"#utility.yul\":24141:24560   */\n      swap2\n      swap1\n      pop\n      jump\t// out\n        /* \"#utility.yul\":24566:24985   */\n    tag_92:\n        /* \"#utility.yul\":24732:24736   */\n      0x00\n        /* \"#utility.yul\":24770:24772   */\n      0x20\n        /* \"#utility.yul\":24759:24768   */\n      dup3\n        /* \"#utility.yul\":24755:24773   */\n      add\n        /* \"#utility.yul\":24747:24773   */\n      swap1\n      pop\n        /* \"#utility.yul\":24819:24828   */\n      dup2\n        /* \"#utility.yul\":24813:24817   */\n      dup2\n        /* \"#utility.yul\":24809:24829   */\n      sub\n        /* \"#utility.yul\":24805:24806   */\n      0x00\n        /* \"#utility.yul\":24794:24803   */\n      dup4\n        /* \"#utility.yul\":24790:24807   */\n      add\n        /* \"#utility.yul\":24783:24830   */\n      mstore\n        /* \"#utility.yul\":24847:24978   */\n      tag_636\n        /* \"#utility.yul\":24973:24977   */\n      dup2\n        /* \"#utility.yul\":24847:24978   */\n      tag_562\n      jump\t// in\n    tag_636:\n        /* \"#utility.yul\":24839:24978   */\n      swap1\n      pop\n        /* \"#utility.yul\":24566:24985   */\n      swap2\n      swap1\n      pop\n      jump\t// out\n        /* \"#utility.yul\":24991:25410   */\n    tag_193:\n        /* \"#utility.yul\":25157:25161   */\n      0x00\n        /* \"#utility.yul\":25195:25197   */\n      0x20\n        /* \"#utility.yul\":25184:25193   */\n      dup3\n        /* \"#utility.yul\":25180:25198   */\n      add\n        /* \"#utility.yul\":25172:25198   */\n      swap1\n      pop\n        /* \"#utility.yul\":25244:25253   */\n      dup2\n        /* \"#utility.yul\":25238:25242   */\n      dup2\n        /* \"#utility.yul\":25234:25254   */\n      sub\n        /* \"#utility.yul\":25230:25231   */\n      0x00\n        /* \"#utility.yul\":25219:25228   */\n      dup4\n        /* \"#utility.yul\":25215:25232   */\n      add\n        /* \"#utility.yul\":25208:25255   */\n      mstore\n        /* \"#utility.yul\":25272:25403   */\n      tag_638\n        /* \"#utility.yul\":25398:25402   */\n      dup2\n        /* \"#utility.yul\":25272:25403   */\n      tag_567\n      jump\t// in\n    tag_638:\n        /* \"#utility.yul\":25264:25403   */\n      swap1\n      pop\n        /* \"#utility.yul\":24991:25410   */\n      swap2\n      swap1\n      pop\n      jump\t// out\n        /* \"#utility.yul\":25416:25835   */\n    tag_179:\n        /* \"#utility.yul\":25582:25586   */\n      0x00\n        /* \"#utility.yul\":25620:25622   */\n      0x20\n        /* \"#utility.yul\":25609:25618   */\n      dup3\n        /* \"#utility.yul\":25605:25623   */\n      add\n        /* \"#utility.yul\":25597:25623   */\n      swap1\n      pop\n        /* \"#utility.yul\":25669:25678   */\n      dup2\n        /* \"#utility.yul\":25663:25667   */\n      dup2\n        /* \"#utility.yul\":25659:25679   */\n      sub\n        /* \"#utility.yul\":25655:25656   */\n      0x00\n        /* \"#utility.yul\":25644:25653   */\n      dup4\n        /* \"#utility.yul\":25640:25657   */\n      add\n        /* \"#utility.yul\":25633:25680   */\n      mstore\n        /* \"#utility.yul\":25697:25828   */\n      tag_640\n        /* \"#utility.yul\":25823:25827   */\n      dup2\n        /* \"#utility.yul\":25697:25828   */\n      tag_572\n      jump\t// in\n    tag_640:\n        /* \"#utility.yul\":25689:25828   */\n      swap1\n      pop\n        /* \"#utility.yul\":25416:25835   */\n      swap2\n      swap1\n      pop\n      jump\t// out\n        /* \"#utility.yul\":25841:26260   */\n    tag_146:\n        /* \"#utility.yul\":26007:26011   */\n      0x00\n        /* \"#utility.yul\":26045:26047   */\n      0x20\n        /* \"#utility.yul\":26034:26043   */\n      dup3\n        /* \"#utility.yul\":26030:26048   */\n      add\n        /* \"#utility.yul\":26022:26048   */\n      swap1\n      pop\n        /* \"#utility.yul\":26094:26103   */\n      dup2\n        /* \"#utility.yul\":26088:26092   */\n      dup2\n        /* \"#utility.yul\":26084:26104   */\n      sub\n        /* \"#utility.yul\":26080:26081   */\n      0x00\n        /* \"#utility.yul\":26069:26078   */\n      dup4\n        /* \"#utility.yul\":26065:26082   */\n      add\n        /* \"#utility.yul\":26058:26105   */\n      mstore\n        /* \"#utility.yul\":26122:26253   */\n      tag_642\n        /* \"#utility.yul\":26248:26252   */\n      dup2\n        /* \"#utility.yul\":26122:26253   */\n      tag_577\n      jump\t// in\n    tag_642:\n        /* \"#utility.yul\":26114:26253   */\n      swap1\n      pop\n        /* \"#utility.yul\":25841:26260   */\n      swap2\n      swap1\n      pop\n      jump\t// out\n        /* \"#utility.yul\":26266:26685   */\n    tag_110:\n        /* \"#utility.yul\":26432:26436   */\n      0x00\n        /* \"#utility.yul\":26470:26472   */\n      0x20\n        /* \"#utility.yul\":26459:26468   */\n      dup3\n        /* \"#utility.yul\":26455:26473   */\n      add\n        /* \"#utility.yul\":26447:26473   */\n      swap1\n      pop\n        /* \"#utility.yul\":26519:26528   */\n      dup2\n        /* \"#utility.yul\":26513:26517   */\n      dup2\n        /* \"#utility.yul\":26509:26529   */\n      sub\n        /* \"#utility.yul\":26505:26506   */\n      0x00\n        /* \"#utility.yul\":26494:26503   */\n      dup4\n        /* \"#utility.yul\":26490:26507   */\n      add\n        /* \"#utility.yul\":26483:26530   */\n      mstore\n        /* \"#utility.yul\":26547:26678   */\n      tag_644\n        /* \"#utility.yul\":26673:26677   */\n      dup2\n        /* \"#utility.yul\":26547:26678   */\n      tag_582\n      jump\t// in\n    tag_644:\n        /* \"#utility.yul\":26539:26678   */\n      swap1\n      pop\n        /* \"#utility.yul\":26266:26685   */\n      swap2\n      swap1\n      pop\n      jump\t// out\n        /* \"#utility.yul\":26691:26913   */\n    tag_26:\n        /* \"#utility.yul\":26784:26788   */\n      0x00\n        /* \"#utility.yul\":26822:26824   */\n      0x20\n        /* \"#utility.yul\":26811:26820   */\n      dup3\n        /* \"#utility.yul\":26807:26825   */\n      add\n        /* \"#utility.yul\":26799:26825   */\n      swap1\n      pop\n        /* \"#utility.yul\":26835:26906   */\n      tag_646\n        /* \"#utility.yul\":26903:26904   */\n      0x00\n        /* \"#utility.yul\":26892:26901   */\n      dup4\n        /* \"#utility.yul\":26888:26905   */\n      add\n        /* \"#utility.yul\":26879:26885   */\n      dup5\n        /* \"#utility.yul\":26835:26906   */\n      tag_590\n      jump\t// in\n    tag_646:\n        /* \"#utility.yul\":26691:26913   */\n      swap3\n      swap2\n      pop\n      pop\n      jump\t// out\n        /* \"#utility.yul\":26919:27251   */\n    tag_231:\n        /* \"#utility.yul\":27040:27044   */\n      0x00\n        /* \"#utility.yul\":27078:27080   */\n      0x40\n        /* \"#utility.yul\":27067:27076   */\n      dup3\n        /* \"#utility.yul\":27063:27081   */\n      add\n        /* \"#utility.yul\":27055:27081   */\n      swap1\n      pop\n        /* \"#utility.yul\":27091:27162   */\n      tag_648\n        /* \"#utility.yul\":27159:27160   */\n      0x00\n        /* \"#utility.yul\":27148:27157   */\n      dup4\n        /* \"#utility.yul\":27144:27161   */\n      add\n        /* \"#utility.yul\":27135:27141   */\n      dup6\n        /* \"#utility.yul\":27091:27162   */\n      tag_590\n      jump\t// in\n    tag_648:\n        /* \"#utility.yul\":27172:27244   */\n      tag_649\n        /* \"#utility.yul\":27240:27242   */\n      0x20\n        /* \"#utility.yul\":27229:27238   */\n      dup4\n        /* \"#utility.yul\":27225:27243   */\n      add\n        /* \"#utility.yul\":27216:27222   */\n      dup5\n        /* \"#utility.yul\":27172:27244   */\n      tag_590\n      jump\t// in\n    tag_649:\n        /* \"#utility.yul\":26919:27251   */\n      swap4\n      swap3\n      pop\n      pop\n      pop\n      jump\t// out\n        /* \"#utility.yul\":27257:27386   */\n    tag_346:\n        /* \"#utility.yul\":27291:27297   */\n      0x00\n        /* \"#utility.yul\":27318:27338   */\n      tag_651\n      tag_652\n      jump\t// in\n    tag_651:\n        /* \"#utility.yul\":27308:27338   */\n      swap1\n      pop\n        /* \"#utility.yul\":27347:27380   */\n      tag_653\n        /* \"#utility.yul\":27375:27379   */\n      dup3\n        /* \"#utility.yul\":27367:27373   */\n      dup3\n        /* \"#utility.yul\":27347:27380   */\n      tag_654\n      jump\t// in\n    tag_653:\n        /* \"#utility.yul\":27257:27386   */\n      swap2\n      swap1\n      pop\n      jump\t// out\n        /* \"#utility.yul\":27392:27467   */\n    tag_652:\n        /* \"#utility.yul\":27425:27431   */\n      0x00\n        /* \"#utility.yul\":27458:27460   */\n      0x40\n        /* \"#utility.yul\":27452:27461   */\n      mload\n        /* \"#utility.yul\":27442:27461   */\n      swap1\n      pop\n        /* \"#utility.yul\":27392:27467   */\n      swap1\n      jump\t// out\n        /* \"#utility.yul\":27473:27784   */\n    tag_345:\n        /* \"#utility.yul\":27550:27554   */\n      0x00\n        /* \"#utility.yul\":27640:27658   */\n      0xffffffffffffffff\n        /* \"#utility.yul\":27632:27638   */\n      dup3\n        /* \"#utility.yul\":27629:27659   */\n      gt\n        /* \"#utility.yul\":27626:27682   */\n      iszero\n      tag_657\n      jumpi\n        /* \"#utility.yul\":27662:27680   */\n      tag_658\n      tag_149\n      jump\t// in\n    tag_658:\n        /* \"#utility.yul\":27626:27682   */\n    tag_657:\n        /* \"#utility.yul\":27712:27716   */\n      0x20\n        /* \"#utility.yul\":27704:27710   */\n      dup3\n        /* \"#utility.yul\":27700:27717   */\n      mul\n        /* \"#utility.yul\":27692:27717   */\n      swap1\n      pop\n        /* \"#utility.yul\":27772:27776   */\n      0x20\n        /* \"#utility.yul\":27766:27770   */\n      dup2\n        /* \"#utility.yul\":27762:27777   */\n      add\n        /* \"#utility.yul\":27754:27777   */\n      swap1\n      pop\n        /* \"#utility.yul\":27473:27784   */\n      swap2\n      swap1\n      pop\n      jump\t// out\n        /* \"#utility.yul\":27790:28101   */\n    tag_359:\n        /* \"#utility.yul\":27867:27871   */\n      0x00\n        /* \"#utility.yul\":27957:27975   */\n      0xffffffffffffffff\n        /* \"#utility.yul\":27949:27955   */\n      dup3\n        /* \"#utility.yul\":27946:27976   */\n      gt\n        /* \"#utility.yul\":27943:27999   */\n      iszero\n      tag_660\n      jumpi\n        /* \"#utility.yul\":27979:27997   */\n      tag_661\n      tag_149\n      jump\t// in\n    tag_661:\n        /* \"#utility.yul\":27943:27999   */\n    tag_660:\n        /* \"#utility.yul\":28029:28033   */\n      0x20\n        /* \"#utility.yul\":28021:28027   */\n      dup3\n        /* \"#utility.yul\":28017:28034   */\n      mul\n        /* \"#utility.yul\":28009:28034   */\n      swap1\n      pop\n        /* \"#utility.yul\":28089:28093   */\n      0x20\n        /* \"#utility.yul\":28083:28087   */\n      dup2\n        /* \"#utility.yul\":28079:28094   */\n      add\n        /* \"#utility.yul\":28071:28094   */\n      swap1\n      pop\n        /* \"#utility.yul\":27790:28101   */\n      swap2\n      swap1\n      pop\n      jump\t// out\n        /* \"#utility.yul\":28107:28414   */\n    tag_371:\n        /* \"#utility.yul\":28168:28172   */\n      0x00\n        /* \"#utility.yul\":28258:28276   */\n      0xffffffffffffffff\n        /* \"#utility.yul\":28250:28256   */\n      dup3\n        /* \"#utility.yul\":28247:28277   */\n      gt\n        /* \"#utility.yul\":28244:28300   */\n      iszero\n      tag_663\n      jumpi\n        /* \"#utility.yul\":28280:28298   */\n      tag_664\n      tag_149\n      jump\t// in\n    tag_664:\n        /* \"#utility.yul\":28244:28300   */\n    tag_663:\n        /* \"#utility.yul\":28318:28347   */\n      tag_665\n        /* \"#utility.yul\":28340:28346   */\n      dup3\n        /* \"#utility.yul\":28318:28347   */\n      tag_507\n      jump\t// in\n    tag_665:\n        /* \"#utility.yul\":28310:28347   */\n      swap1\n      pop\n        /* \"#utility.yul\":28402:28406   */\n      0x20\n        /* \"#utility.yul\":28396:28400   */\n      dup2\n        /* \"#utility.yul\":28392:28407   */\n      add\n        /* \"#utility.yul\":28384:28407   */\n      swap1\n      pop\n        /* \"#utility.yul\":28107:28414   */\n      swap2\n      swap1\n      pop\n      jump\t// out\n        /* \"#utility.yul\":28420:28552   */\n    tag_487:\n        /* \"#utility.yul\":28487:28491   */\n      0x00\n        /* \"#utility.yul\":28510:28513   */\n      dup2\n        /* \"#utility.yul\":28502:28513   */\n      swap1\n      pop\n        /* \"#utility.yul\":28540:28544   */\n      0x20\n        /* \"#utility.yul\":28535:28538   */\n      dup3\n        /* \"#utility.yul\":28531:28545   */\n      add\n        /* \"#utility.yul\":28523:28545   */\n      swap1\n      pop\n        /* \"#utility.yul\":28420:28552   */\n      swap2\n      swap1\n      pop\n      jump\t// out\n        /* \"#utility.yul\":28558:28672   */\n    tag_483:\n        /* \"#utility.yul\":28625:28631   */\n      0x00\n        /* \"#utility.yul\":28659:28664   */\n      dup2\n        /* \"#utility.yul\":28653:28665   */\n      mload\n        /* \"#utility.yul\":28643:28665   */\n      swap1\n      pop\n        /* \"#utility.yul\":28558:28672   */\n      swap2\n      swap1\n      pop\n      jump\t// out\n        /* \"#utility.yul\":28678:28776   */\n    tag_501:\n        /* \"#utility.yul\":28729:28735   */\n      0x00\n        /* \"#utility.yul\":28763:28768   */\n      dup2\n        /* \"#utility.yul\":28757:28769   */\n      mload\n        /* \"#utility.yul\":28747:28769   */\n      swap1\n      pop\n        /* \"#utility.yul\":28678:28776   */\n      swap2\n      swap1\n      pop\n      jump\t// out\n        /* \"#utility.yul\":28782:28881   */\n    tag_511:\n        /* \"#utility.yul\":28834:28840   */\n      0x00\n        /* \"#utility.yul\":28868:28873   */\n      dup2\n        /* \"#utility.yul\":28862:28874   */\n      mload\n        /* \"#utility.yul\":28852:28874   */\n      swap1\n      pop\n        /* \"#utility.yul\":28782:28881   */\n      swap2\n      swap1\n      pop\n      jump\t// out\n        /* \"#utility.yul\":28887:29000   */\n    tag_493:\n        /* \"#utility.yul\":28957:28961   */\n      0x00\n        /* \"#utility.yul\":28989:28993   */\n      0x20\n        /* \"#utility.yul\":28984:28987   */\n      dup3\n        /* \"#utility.yul\":28980:28994   */\n      add\n        /* \"#utility.yul\":28972:28994   */\n      swap1\n      pop\n        /* \"#utility.yul\":28887:29000   */\n      swap2\n      swap1\n      pop\n      jump\t// out\n        /* \"#utility.yul\":29006:29190   */\n    tag_485:\n        /* \"#utility.yul\":29105:29116   */\n      0x00\n        /* \"#utility.yul\":29139:29145   */\n      dup3\n        /* \"#utility.yul\":29134:29137   */\n      dup3\n        /* \"#utility.yul\":29127:29146   */\n      mstore\n        /* \"#utility.yul\":29179:29183   */\n      0x20\n        /* \"#utility.yul\":29174:29177   */\n      dup3\n        /* \"#utility.yul\":29170:29184   */\n      add\n        /* \"#utility.yul\":29155:29184   */\n      swap1\n      pop\n        /* \"#utility.yul\":29006:29190   */\n      swap3\n      swap2\n      pop\n      pop\n      jump\t// out\n        /* \"#utility.yul\":29196:29364   */\n    tag_503:\n        /* \"#utility.yul\":29279:29290   */\n      0x00\n        /* \"#utility.yul\":29313:29319   */\n      dup3\n        /* \"#utility.yul\":29308:29311   */\n      dup3\n        /* \"#utility.yul\":29301:29320   */\n      mstore\n        /* \"#utility.yul\":29353:29357   */\n      0x20\n        /* \"#utility.yul\":29348:29351   */\n      dup3\n        /* \"#utility.yul\":29344:29358   */\n      add\n        /* \"#utility.yul\":29329:29358   */\n      swap1\n      pop\n        /* \"#utility.yul\":29196:29364   */\n      swap3\n      swap2\n      pop\n      pop\n      jump\t// out\n        /* \"#utility.yul\":29370:29539   */\n    tag_513:\n        /* \"#utility.yul\":29454:29465   */\n      0x00\n        /* \"#utility.yul\":29488:29494   */\n      dup3\n        /* \"#utility.yul\":29483:29486   */\n      dup3\n        /* \"#utility.yul\":29476:29495   */\n      mstore\n        /* \"#utility.yul\":29528:29532   */\n      0x20\n        /* \"#utility.yul\":29523:29526   */\n      dup3\n        /* \"#utility.yul\":29519:29533   */\n      add\n        /* \"#utility.yul\":29504:29533   */\n      swap1\n      pop\n        /* \"#utility.yul\":29370:29539   */\n      swap3\n      swap2\n      pop\n      pop\n      jump\t// out\n        /* \"#utility.yul\":29545:29693   */\n    tag_520:\n        /* \"#utility.yul\":29647:29658   */\n      0x00\n        /* \"#utility.yul\":29684:29687   */\n      dup2\n        /* \"#utility.yul\":29669:29687   */\n      swap1\n      pop\n        /* \"#utility.yul\":29545:29693   */\n      swap3\n      swap2\n      pop\n      pop\n      jump\t// out\n        /* \"#utility.yul\":29699:30004   */\n    tag_249:\n        /* \"#utility.yul\":29739:29742   */\n      0x00\n        /* \"#utility.yul\":29758:29778   */\n      tag_676\n        /* \"#utility.yul\":29776:29777   */\n      dup3\n        /* \"#utility.yul\":29758:29778   */\n      tag_589\n      jump\t// in\n    tag_676:\n        /* \"#utility.yul\":29753:29778   */\n      swap2\n      pop\n        /* \"#utility.yul\":29792:29812   */\n      tag_677\n        /* \"#utility.yul\":29810:29811   */\n      dup4\n        /* \"#utility.yul\":29792:29812   */\n      tag_589\n      jump\t// in\n    tag_677:\n        /* \"#utility.yul\":29787:29812   */\n      swap3\n      pop\n        /* \"#utility.yul\":29946:29947   */\n      dup3\n        /* \"#utility.yul\":29878:29944   */\n      0xffffffffffffffffffffffffffffffffffffffffffffffffffffffffffffffff\n        /* \"#utility.yul\":29874:29948   */\n      sub\n        /* \"#utility.yul\":29871:29872   */\n      dup3\n        /* \"#utility.yul\":29868:29949   */\n      gt\n        /* \"#utility.yul\":29865:29972   */\n      iszero\n      tag_678\n      jumpi\n        /* \"#utility.yul\":29952:29970   */\n      tag_679\n      tag_680\n      jump\t// in\n    tag_679:\n        /* \"#utility.yul\":29865:29972   */\n    tag_678:\n        /* \"#utility.yul\":29996:29997   */\n      dup3\n        /* \"#utility.yul\":29993:29994   */\n      dup3\n        /* \"#utility.yul\":29989:29998   */\n      add\n        /* \"#utility.yul\":29982:29998   */\n      swap1\n      pop\n        /* \"#utility.yul\":29699:30004   */\n      swap3\n      swap2\n      pop\n      pop\n      jump\t// out\n        /* \"#utility.yul\":30010:30195   */\n    tag_288:\n        /* \"#utility.yul\":30050:30051   */\n      0x00\n        /* \"#utility.yul\":30067:30087   */\n      tag_682\n        /* \"#utility.yul\":30085:30086   */\n      dup3\n        /* \"#utility.yul\":30067:30087   */\n      tag_589\n      jump\t// in\n    tag_682:\n        /* \"#utility.yul\":30062:30087   */\n      swap2\n      pop\n        /* \"#utility.yul\":30101:30121   */\n      tag_683\n        /* \"#utility.yul\":30119:30120   */\n      dup4\n        /* \"#utility.yul\":30101:30121   */\n      tag_589\n      jump\t// in\n    tag_683:\n        /* \"#utility.yul\":30096:30121   */\n      swap3\n      pop\n        /* \"#utility.yul\":30140:30141   */\n      dup3\n        /* \"#utility.yul\":30130:30165   */\n      tag_684\n      jumpi\n        /* \"#utility.yul\":30145:30163   */\n      tag_685\n      tag_686\n      jump\t// in\n    tag_685:\n        /* \"#utility.yul\":30130:30165   */\n    tag_684:\n        /* \"#utility.yul\":30187:30188   */\n      dup3\n        /* \"#utility.yul\":30184:30185   */\n      dup3\n        /* \"#utility.yul\":30180:30189   */\n      div\n        /* \"#utility.yul\":30175:30189   */\n      swap1\n      pop\n        /* \"#utility.yul\":30010:30195   */\n      swap3\n      swap2\n      pop\n      pop\n      jump\t// out\n        /* \"#utility.yul\":30201:30392   */\n    tag_246:\n        /* \"#utility.yul\":30241:30245   */\n      0x00\n        /* \"#utility.yul\":30261:30281   */\n      tag_688\n        /* \"#utility.yul\":30279:30280   */\n      dup3\n        /* \"#utility.yul\":30261:30281   */\n      tag_589\n      jump\t// in\n    tag_688:\n        /* \"#utility.yul\":30256:30281   */\n      swap2\n      pop\n        /* \"#utility.yul\":30295:30315   */\n      tag_689\n        /* \"#utility.yul\":30313:30314   */\n      dup4\n        /* \"#utility.yul\":30295:30315   */\n      tag_589\n      jump\t// in\n    tag_689:\n        /* \"#utility.yul\":30290:30315   */\n      swap3\n      pop\n        /* \"#utility.yul\":30334:30335   */\n      dup3\n        /* \"#utility.yul\":30331:30332   */\n      dup3\n        /* \"#utility.yul\":30328:30336   */\n      lt\n        /* \"#utility.yul\":30325:30359   */\n      iszero\n      tag_690\n      jumpi\n        /* \"#utility.yul\":30339:30357   */\n      tag_691\n      tag_680\n      jump\t// in\n    tag_691:\n        /* \"#utility.yul\":30325:30359   */\n    tag_690:\n        /* \"#utility.yul\":30384:30385   */\n      dup3\n        /* \"#utility.yul\":30381:30382   */\n      dup3\n        /* \"#utility.yul\":30377:30386   */\n      sub\n        /* \"#utility.yul\":30369:30386   */\n      swap1\n      pop\n        /* \"#utility.yul\":30201:30392   */\n      swap3\n      swap2\n      pop\n      pop\n      jump\t// out\n        /* \"#utility.yul\":30398:30494   */\n    tag_479:\n        /* \"#utility.yul\":30435:30442   */\n      0x00\n        /* \"#utility.yul\":30464:30488   */\n      tag_693\n        /* \"#utility.yul\":30482:30487   */\n      dup3\n        /* \"#utility.yul\":30464:30488   */\n      tag_694\n      jump\t// in\n    tag_693:\n        /* \"#utility.yul\":30453:30488   */\n      swap1\n      pop\n        /* \"#utility.yul\":30398:30494   */\n      swap2\n      swap1\n      pop\n      jump\t// out\n        /* \"#utility.yul\":30500:30590   */\n    tag_497:\n        /* \"#utility.yul\":30534:30541   */\n      0x00\n        /* \"#utility.yul\":30577:30582   */\n      dup2\n        /* \"#utility.yul\":30570:30583   */\n      iszero\n        /* \"#utility.yul\":30563:30584   */\n      iszero\n        /* \"#utility.yul\":30552:30584   */\n      swap1\n      pop\n        /* \"#utility.yul\":30500:30590   */\n      swap2\n      swap1\n      pop\n      jump\t// out\n        /* \"#utility.yul\":30596:30745   */\n    tag_696:\n        /* \"#utility.yul\":30632:30639   */\n      0x00\n        /* \"#utility.yul\":30672:30738   */\n      0xffffffff00000000000000000000000000000000000000000000000000000000\n        /* \"#utility.yul\":30665:30670   */\n      dup3\n        /* \"#utility.yul\":30661:30739   */\n      and\n        /* \"#utility.yul\":30650:30739   */\n      swap1\n      pop\n        /* \"#utility.yul\":30596:30745   */\n      swap2\n      swap1\n      pop\n      jump\t// out\n        /* \"#utility.yul\":30751:30877   */\n    tag_694:\n        /* \"#utility.yul\":30788:30795   */\n      0x00\n        /* \"#utility.yul\":30828:30870   */\n      0xffffffffffffffffffffffffffffffffffffffff\n        /* \"#utility.yul\":30821:30826   */\n      dup3\n        /* \"#utility.yul\":30817:30871   */\n      and\n        /* \"#utility.yul\":30806:30871   */\n      swap1\n      pop\n        /* \"#utility.yul\":30751:30877   */\n      swap2\n      swap1\n      pop\n      jump\t// out\n        /* \"#utility.yul\":30883:30960   */\n    tag_589:\n        /* \"#utility.yul\":30920:30927   */\n      0x00\n        /* \"#utility.yul\":30949:30954   */\n      dup2\n        /* \"#utility.yul\":30938:30954   */\n      swap1\n      pop\n        /* \"#utility.yul\":30883:30960   */\n      swap2\n      swap1\n      pop\n      jump\t// out\n        /* \"#utility.yul\":30966:31120   */\n    tag_376:\n        /* \"#utility.yul\":31050:31056   */\n      dup3\n        /* \"#utility.yul\":31045:31048   */\n      dup2\n        /* \"#utility.yul\":31040:31043   */\n      dup4\n        /* \"#utility.yul\":31027:31057   */\n      calldatacopy\n        /* \"#utility.yul\":31112:31113   */\n      0x00\n        /* \"#utility.yul\":31103:31109   */\n      dup4\n        /* \"#utility.yul\":31098:31101   */\n      dup4\n        /* \"#utility.yul\":31094:31110   */\n      add\n        /* \"#utility.yul\":31087:31114   */\n      mstore\n        /* \"#utility.yul\":30966:31120   */\n      pop\n      pop\n      pop\n      jump\t// out\n        /* \"#utility.yul\":31126:31433   */\n    tag_505:\n        /* \"#utility.yul\":31194:31195   */\n      0x00\n        /* \"#utility.yul\":31204:31317   */\n    tag_702:\n        /* \"#utility.yul\":31218:31224   */\n      dup4\n        /* \"#utility.yul\":31215:31216   */\n      dup2\n        /* \"#utility.yul\":31212:31225   */\n      lt\n        /* \"#utility.yul\":31204:31317   */\n      iszero\n      tag_704\n      jumpi\n        /* \"#utility.yul\":31303:31304   */\n      dup1\n        /* \"#utility.yul\":31298:31301   */\n      dup3\n        /* \"#utility.yul\":31294:31305   */\n      add\n        /* \"#utility.yul\":31288:31306   */\n      mload\n        /* \"#utility.yul\":31284:31285   */\n      dup2\n        /* \"#utility.yul\":31279:31282   */\n      dup5\n        /* \"#utility.yul\":31275:31286   */\n      add\n        /* \"#utility.yul\":31268:31307   */\n      mstore\n        /* \"#utility.yul\":31240:31242   */\n      0x20\n        /* \"#utility.yul\":31237:31238   */\n      dup2\n        /* \"#utility.yul\":31233:31243   */\n      add\n        /* \"#utility.yul\":31228:31243   */\n      swap1\n      pop\n        /* \"#utility.yul\":31204:31317   */\n      jump(tag_702)\n    tag_704:\n        /* \"#utility.yul\":31335:31341   */\n      dup4\n        /* \"#utility.yul\":31332:31333   */\n      dup2\n        /* \"#utility.yul\":31329:31342   */\n      gt\n        /* \"#utility.yul\":31326:31427   */\n      iszero\n      tag_705\n      jumpi\n        /* \"#utility.yul\":31415:31416   */\n      0x00\n        /* \"#utility.yul\":31406:31412   */\n      dup5\n        /* \"#utility.yul\":31401:31404   */\n      dup5\n        /* \"#utility.yul\":31397:31413   */\n      add\n        /* \"#utility.yul\":31390:31417   */\n      mstore\n        /* \"#utility.yul\":31326:31427   */\n    tag_705:\n        /* \"#utility.yul\":31175:31433   */\n      pop\n        /* \"#utility.yul\":31126:31433   */\n      pop\n      pop\n      pop\n      jump\t// out\n        /* \"#utility.yul\":31439:31759   */\n    tag_99:\n        /* \"#utility.yul\":31483:31489   */\n      0x00\n        /* \"#utility.yul\":31520:31521   */\n      0x02\n        /* \"#utility.yul\":31514:31518   */\n      dup3\n        /* \"#utility.yul\":31510:31522   */\n      div\n        /* \"#utility.yul\":31500:31522   */\n      swap1\n      pop\n        /* \"#utility.yul\":31567:31568   */\n      0x01\n        /* \"#utility.yul\":31561:31565   */\n      dup3\n        /* \"#utility.yul\":31557:31569   */\n      and\n        /* \"#utility.yul\":31588:31606   */\n      dup1\n        /* \"#utility.yul\":31578:31659   */\n      tag_707\n      jumpi\n        /* \"#utility.yul\":31644:31648   */\n      0x7f\n        /* \"#utility.yul\":31636:31642   */\n      dup3\n        /* \"#utility.yul\":31632:31649   */\n      and\n        /* \"#utility.yul\":31622:31649   */\n      swap2\n      pop\n        /* \"#utility.yul\":31578:31659   */\n    tag_707:\n        /* \"#utility.yul\":31706:31708   */\n      0x20\n        /* \"#utility.yul\":31698:31704   */\n      dup3\n        /* \"#utility.yul\":31695:31709   */\n      lt\n        /* \"#utility.yul\":31675:31693   */\n      dup2\n        /* \"#utility.yul\":31672:31710   */\n      eq\n        /* \"#utility.yul\":31669:31753   */\n      iszero\n      tag_708\n      jumpi\n        /* \"#utility.yul\":31725:31743   */\n      tag_709\n      tag_710\n      jump\t// in\n    tag_709:\n        /* \"#utility.yul\":31669:31753   */\n    tag_708:\n        /* \"#utility.yul\":31490:31759   */\n      pop\n        /* \"#utility.yul\":31439:31759   */\n      swap2\n      swap1\n      pop\n      jump\t// out\n        /* \"#utility.yul\":31765:32046   */\n    tag_654:\n        /* \"#utility.yul\":31848:31875   */\n      tag_712\n        /* \"#utility.yul\":31870:31874   */\n      dup3\n        /* \"#utility.yul\":31848:31875   */\n      tag_507\n      jump\t// in\n    tag_712:\n        /* \"#utility.yul\":31840:31846   */\n      dup2\n        /* \"#utility.yul\":31836:31876   */\n      add\n        /* \"#utility.yul\":31978:31984   */\n      dup2\n        /* \"#utility.yul\":31966:31976   */\n      dup2\n        /* \"#utility.yul\":31963:31985   */\n      lt\n        /* \"#utility.yul\":31942:31960   */\n      0xffffffffffffffff\n        /* \"#utility.yul\":31930:31940   */\n      dup3\n        /* \"#utility.yul\":31927:31961   */\n      gt\n        /* \"#utility.yul\":31924:31986   */\n      or\n        /* \"#utility.yul\":31921:32009   */\n      iszero\n      tag_713\n      jumpi\n        /* \"#utility.yul\":31989:32007   */\n      tag_714\n      tag_149\n      jump\t// in\n    tag_714:\n        /* \"#utility.yul\":31921:32009   */\n    tag_713:\n        /* \"#utility.yul\":32029:32039   */\n      dup1\n        /* \"#utility.yul\":32025:32027   */\n      0x40\n        /* \"#utility.yul\":32018:32040   */\n      mstore\n        /* \"#utility.yul\":31808:32046   */\n      pop\n        /* \"#utility.yul\":31765:32046   */\n      pop\n      pop\n      jump\t// out\n        /* \"#utility.yul\":32052:32285   */\n    tag_138:\n        /* \"#utility.yul\":32091:32094   */\n      0x00\n        /* \"#utility.yul\":32114:32138   */\n      tag_716\n        /* \"#utility.yul\":32132:32137   */\n      dup3\n        /* \"#utility.yul\":32114:32138   */\n      tag_589\n      jump\t// in\n    tag_716:\n        /* \"#utility.yul\":32105:32138   */\n      swap2\n      pop\n        /* \"#utility.yul\":32160:32226   */\n      0xffffffffffffffffffffffffffffffffffffffffffffffffffffffffffffffff\n        /* \"#utility.yul\":32153:32158   */\n      dup3\n        /* \"#utility.yul\":32150:32227   */\n      eq\n        /* \"#utility.yul\":32147:32250   */\n      iszero\n      tag_717\n      jumpi\n        /* \"#utility.yul\":32230:32248   */\n      tag_718\n      tag_680\n      jump\t// in\n    tag_718:\n        /* \"#utility.yul\":32147:32250   */\n    tag_717:\n        /* \"#utility.yul\":32277:32278   */\n      0x01\n        /* \"#utility.yul\":32270:32275   */\n      dup3\n        /* \"#utility.yul\":32266:32279   */\n      add\n        /* \"#utility.yul\":32259:32279   */\n      swap1\n      pop\n        /* \"#utility.yul\":32052:32285   */\n      swap2\n      swap1\n      pop\n      jump\t// out\n        /* \"#utility.yul\":32291:32467   */\n    tag_296:\n        /* \"#utility.yul\":32323:32324   */\n      0x00\n        /* \"#utility.yul\":32340:32360   */\n      tag_720\n        /* \"#utility.yul\":32358:32359   */\n      dup3\n        /* \"#utility.yul\":32340:32360   */\n      tag_589\n      jump\t// in\n    tag_720:\n        /* \"#utility.yul\":32335:32360   */\n      swap2\n      pop\n        /* \"#utility.yul\":32374:32394   */\n      tag_721\n        /* \"#utility.yul\":32392:32393   */\n      dup4\n        /* \"#utility.yul\":32374:32394   */\n      tag_589\n      jump\t// in\n    tag_721:\n        /* \"#utility.yul\":32369:32394   */\n      swap3\n      pop\n        /* \"#utility.yul\":32413:32414   */\n      dup3\n        /* \"#utility.yul\":32403:32438   */\n      tag_722\n      jumpi\n        /* \"#utility.yul\":32418:32436   */\n      tag_723\n      tag_686\n      jump\t// in\n    tag_723:\n        /* \"#utility.yul\":32403:32438   */\n    tag_722:\n        /* \"#utility.yul\":32459:32460   */\n      dup3\n        /* \"#utility.yul\":32456:32457   */\n      dup3\n        /* \"#utility.yul\":32452:32461   */\n      mod\n        /* \"#utility.yul\":32447:32461   */\n      swap1\n      pop\n        /* \"#utility.yul\":32291:32467   */\n      swap3\n      swap2\n      pop\n      pop\n      jump\t// out\n        /* \"#utility.yul\":32473:32653   */\n    tag_680:\n        /* \"#utility.yul\":32521:32598   */\n      0x4e487b7100000000000000000000000000000000000000000000000000000000\n        /* \"#utility.yul\":32518:32519   */\n      0x00\n        /* \"#utility.yul\":32511:32599   */\n      mstore\n        /* \"#utility.yul\":32618:32622   */\n      0x11\n        /* \"#utility.yul\":32615:32616   */\n      0x04\n        /* \"#utility.yul\":32608:32623   */\n      mstore\n        /* \"#utility.yul\":32642:32646   */\n      0x24\n        /* \"#utility.yul\":32639:32640   */\n      0x00\n        /* \"#utility.yul\":32632:32647   */\n      revert\n        /* \"#utility.yul\":32659:32839   */\n    tag_686:\n        /* \"#utility.yul\":32707:32784   */\n      0x4e487b7100000000000000000000000000000000000000000000000000000000\n        /* \"#utility.yul\":32704:32705   */\n      0x00\n        /* \"#utility.yul\":32697:32785   */\n      mstore\n        /* \"#utility.yul\":32804:32808   */\n      0x12\n        /* \"#utility.yul\":32801:32802   */\n      0x04\n        /* \"#utility.yul\":32794:32809   */\n      mstore\n        /* \"#utility.yul\":32828:32832   */\n      0x24\n        /* \"#utility.yul\":32825:32826   */\n      0x00\n        /* \"#utility.yul\":32818:32833   */\n      revert\n        /* \"#utility.yul\":32845:33025   */\n    tag_710:\n        /* \"#utility.yul\":32893:32970   */\n      0x4e487b7100000000000000000000000000000000000000000000000000000000\n        /* \"#utility.yul\":32890:32891   */\n      0x00\n        /* \"#utility.yul\":32883:32971   */\n      mstore\n        /* \"#utility.yul\":32990:32994   */\n      0x22\n        /* \"#utility.yul\":32987:32988   */\n      0x04\n        /* \"#utility.yul\":32980:32995   */\n      mstore\n        /* \"#utility.yul\":33014:33018   */\n      0x24\n        /* \"#utility.yul\":33011:33012   */\n      0x00\n        /* \"#utility.yul\":33004:33019   */\n      revert\n        /* \"#utility.yul\":33031:33211   */\n    tag_130:\n        /* \"#utility.yul\":33079:33156   */\n      0x4e487b7100000000000000000000000000000000000000000000000000000000\n        /* \"#utility.yul\":33076:33077   */\n      0x00\n        /* \"#utility.yul\":33069:33157   */\n      mstore\n        /* \"#utility.yul\":33176:33180   */\n      0x32\n        /* \"#utility.yul\":33173:33174   */\n      0x04\n        /* \"#utility.yul\":33166:33181   */\n      mstore\n        /* \"#utility.yul\":33200:33204   */\n      0x24\n        /* \"#utility.yul\":33197:33198   */\n      0x00\n        /* \"#utility.yul\":33190:33205   */\n      revert\n        /* \"#utility.yul\":33217:33397   */\n    tag_149:\n        /* \"#utility.yul\":33265:33342   */\n      0x4e487b7100000000000000000000000000000000000000000000000000000000\n        /* \"#utility.yul\":33262:33263   */\n      0x00\n        /* \"#utility.yul\":33255:33343   */\n      mstore\n        /* \"#utility.yul\":33362:33366   */\n      0x41\n        /* \"#utility.yul\":33359:33360   */\n      0x04\n        /* \"#utility.yul\":33352:33367   */\n      mstore\n        /* \"#utility.yul\":33386:33390   */\n      0x24\n        /* \"#utility.yul\":33383:33384   */\n      0x00\n        /* \"#utility.yul\":33376:33391   */\n      revert\n        /* \"#utility.yul\":33403:33586   */\n    tag_268:\n        /* \"#utility.yul\":33438:33441   */\n      0x00\n        /* \"#utility.yul\":33476:33477   */\n      0x03\n        /* \"#utility.yul\":33458:33474   */\n      returndatasize\n        /* \"#utility.yul\":33455:33478   */\n      gt\n        /* \"#utility.yul\":33452:33580   */\n      iszero\n      tag_730\n      jumpi\n        /* \"#utility.yul\":33514:33515   */\n      0x04\n        /* \"#utility.yul\":33511:33512   */\n      0x00\n        /* \"#utility.yul\":33508:33509   */\n      dup1\n        /* \"#utility.yul\":33493:33516   */\n      returndatacopy\n        /* \"#utility.yul\":33536:33570   */\n      tag_731\n        /* \"#utility.yul\":33567:33568   */\n      0x00\n        /* \"#utility.yul\":33561:33569   */\n      mload\n        /* \"#utility.yul\":33536:33570   */\n      tag_732\n      jump\t// in\n    tag_731:\n        /* \"#utility.yul\":33529:33570   */\n      swap1\n      pop\n        /* \"#utility.yul\":33452:33580   */\n    tag_730:\n        /* \"#utility.yul\":33403:33586   */\n      swap1\n      jump\t// out\n        /* \"#utility.yul\":33592:33709   */\n    tag_384:\n        /* \"#utility.yul\":33701:33702   */\n      0x00\n        /* \"#utility.yul\":33698:33699   */\n      dup1\n        /* \"#utility.yul\":33691:33703   */\n      revert\n        /* \"#utility.yul\":33715:33832   */\n    tag_349:\n        /* \"#utility.yul\":33824:33825   */\n      0x00\n        /* \"#utility.yul\":33821:33822   */\n      dup1\n        /* \"#utility.yul\":33814:33826   */\n      revert\n        /* \"#utility.yul\":33838:33955   */\n    tag_374:\n        /* \"#utility.yul\":33947:33948   */\n      0x00\n        /* \"#utility.yul\":33944:33945   */\n      dup1\n        /* \"#utility.yul\":33937:33949   */\n      revert\n        /* \"#utility.yul\":33961:34078   */\n    tag_423:\n        /* \"#utility.yul\":34070:34071   */\n      0x00\n        /* \"#utility.yul\":34067:34068   */\n      dup1\n        /* \"#utility.yul\":34060:34072   */\n      revert\n        /* \"#utility.yul\":34084:34201   */\n    tag_413:\n        /* \"#utility.yul\":34193:34194   */\n      0x00\n        /* \"#utility.yul\":34190:34191   */\n      dup1\n        /* \"#utility.yul\":34183:34195   */\n      revert\n        /* \"#utility.yul\":34207:34309   */\n    tag_507:\n        /* \"#utility.yul\":34248:34254   */\n      0x00\n        /* \"#utility.yul\":34299:34301   */\n      0x1f\n        /* \"#utility.yul\":34295:34302   */\n      not\n        /* \"#utility.yul\":34290:34292   */\n      0x1f\n        /* \"#utility.yul\":34283:34288   */\n      dup4\n        /* \"#utility.yul\":34279:34293   */\n      add\n        /* \"#utility.yul\":34275:34303   */\n      and\n        /* \"#utility.yul\":34265:34303   */\n      swap1\n      pop\n        /* \"#utility.yul\":34207:34309   */\n      swap2\n      swap1\n      pop\n      jump\t// out\n        /* \"#utility.yul\":34315:34421   */\n    tag_732:\n        /* \"#utility.yul\":34359:34367   */\n      0x00\n        /* \"#utility.yul\":34408:34413   */\n      dup2\n        /* \"#utility.yul\":34403:34406   */\n      0xe0\n        /* \"#utility.yul\":34399:34414   */\n      shr\n        /* \"#utility.yul\":34378:34414   */\n      swap1\n      pop\n        /* \"#utility.yul\":34315:34421   */\n      swap2\n      swap1\n      pop\n      jump\t// out\n        /* \"#utility.yul\":34427:34666   */\n    tag_526:\n        /* \"#utility.yul\":34567:34601   */\n      0x455243313135353a207472616e7366657220746f206e6f6e2045524331313535\n        /* \"#utility.yul\":34563:34564   */\n      0x00\n        /* \"#utility.yul\":34555:34561   */\n      dup3\n        /* \"#utility.yul\":34551:34565   */\n      add\n        /* \"#utility.yul\":34544:34602   */\n      mstore\n        /* \"#utility.yul\":34636:34658   */\n      0x526563656976657220696d706c656d656e746572000000000000000000000000\n        /* \"#utility.yul\":34631:34633   */\n      0x20\n        /* \"#utility.yul\":34623:34629   */\n      dup3\n        /* \"#utility.yul\":34619:34634   */\n      add\n        /* \"#utility.yul\":34612:34659   */\n      mstore\n        /* \"#utility.yul\":34427:34666   */\n      pop\n      jump\t// out\n        /* \"#utility.yul\":34672:34899   */\n    tag_531:\n        /* \"#utility.yul\":34812:34846   */\n      0x455243313135353a204552433131353552656365697665722072656a65637465\n        /* \"#utility.yul\":34808:34809   */\n      0x00\n        /* \"#utility.yul\":34800:34806   */\n      dup3\n        /* \"#utility.yul\":34796:34810   */\n      add\n        /* \"#utility.yul\":34789:34847   */\n      mstore\n        /* \"#utility.yul\":34881:34891   */\n      0x6420746f6b656e73000000000000000000000000000000000000000000000000\n        /* \"#utility.yul\":34876:34878   */\n      0x20\n        /* \"#utility.yul\":34868:34874   */\n      dup3\n        /* \"#utility.yul\":34864:34879   */\n      add\n        /* \"#utility.yul\":34857:34892   */\n      mstore\n        /* \"#utility.yul\":34672:34899   */\n      pop\n      jump\t// out\n        /* \"#utility.yul\":34905:35135   */\n    tag_536:\n        /* \"#utility.yul\":35045:35079   */\n      0x455243313135353a2062616c616e636520717565727920666f7220746865207a\n        /* \"#utility.yul\":35041:35042   */\n      0x00\n        /* \"#utility.yul\":35033:35039   */\n      dup3\n        /* \"#utility.yul\":35029:35043   */\n      add\n        /* \"#utility.yul\":35022:35080   */\n      mstore\n        /* \"#utility.yul\":35114:35127   */\n      0x65726f2061646472657373000000000000000000000000000000000000000000\n        /* \"#utility.yul\":35109:35111   */\n      0x20\n        /* \"#utility.yul\":35101:35107   */\n      dup3\n        /* \"#utility.yul\":35097:35112   */\n      add\n        /* \"#utility.yul\":35090:35128   */\n      mstore\n        /* \"#utility.yul\":34905:35135   */\n      pop\n      jump\t// out\n        /* \"#utility.yul\":35141:35377   */\n    tag_541:\n        /* \"#utility.yul\":35281:35315   */\n      0x455243313135353a2062617463682062616c616e636520717565727920666f72\n        /* \"#utility.yul\":35277:35278   */\n      0x00\n        /* \"#utility.yul\":35269:35275   */\n      dup3\n        /* \"#utility.yul\":35265:35279   */\n      add\n        /* \"#utility.yul\":35258:35316   */\n      mstore\n        /* \"#utility.yul\":35350:35369   */\n      0x20746865207a65726f2061646472657373000000000000000000000000000000\n        /* \"#utility.yul\":35345:35347   */\n      0x20\n        /* \"#utility.yul\":35337:35343   */\n      dup3\n        /* \"#utility.yul\":35333:35348   */\n      add\n        /* \"#utility.yul\":35326:35370   */\n      mstore\n        /* \"#utility.yul\":35141:35377   */\n      pop\n      jump\t// out\n        /* \"#utility.yul\":35383:35560   */\n    tag_546:\n        /* \"#utility.yul\":35523:35552   */\n      0x536166654d6174683a206164646974696f6e206f766572666c6f770000000000\n        /* \"#utility.yul\":35519:35520   */\n      0x00\n        /* \"#utility.yul\":35511:35517   */\n      dup3\n        /* \"#utility.yul\":35507:35521   */\n      add\n        /* \"#utility.yul\":35500:35553   */\n      mstore\n        /* \"#utility.yul\":35383:35560   */\n      pop\n      jump\t// out\n        /* \"#utility.yul\":35566:35794   */\n    tag_551:\n        /* \"#utility.yul\":35706:35740   */\n      0x455243313135353a2063616c6c6572206973206e6f74206f776e6572206e6f72\n        /* \"#utility.yul\":35702:35703   */\n      0x00\n        /* \"#utility.yul\":35694:35700   */\n      dup3\n        /* \"#utility.yul\":35690:35704   */\n      add\n        /* \"#utility.yul\":35683:35741   */\n      mstore\n        /* \"#utility.yul\":35775:35786   */\n      0x20617070726f7665640000000000000000000000000000000000000000000000\n        /* \"#utility.yul\":35770:35772   */\n      0x20\n        /* \"#utility.yul\":35762:35768   */\n      dup3\n        /* \"#utility.yul\":35758:35773   */\n      add\n        /* \"#utility.yul\":35751:35787   */\n      mstore\n        /* \"#utility.yul\":35566:35794   */\n      pop\n      jump\t// out\n        /* \"#utility.yul\":35800:36024   */\n    tag_556:\n        /* \"#utility.yul\":35940:35974   */\n      0x455243313135353a207472616e7366657220746f20746865207a65726f206164\n        /* \"#utility.yul\":35936:35937   */\n      0x00\n        /* \"#utility.yul\":35928:35934   */\n      dup3\n        /* \"#utility.yul\":35924:35938   */\n      add\n        /* \"#utility.yul\":35917:35975   */\n      mstore\n        /* \"#utility.yul\":36009:36016   */\n      0x6472657373000000000000000000000000000000000000000000000000000000\n        /* \"#utility.yul\":36004:36006   */\n      0x20\n        /* \"#utility.yul\":35996:36002   */\n      dup3\n        /* \"#utility.yul\":35992:36007   */\n      add\n        /* \"#utility.yul\":35985:36017   */\n      mstore\n        /* \"#utility.yul\":35800:36024   */\n      pop\n      jump\t// out\n        /* \"#utility.yul\":36030:36267   */\n    tag_561:\n        /* \"#utility.yul\":36170:36204   */\n      0x455243313135353a207472616e736665722063616c6c6572206973206e6f7420\n        /* \"#utility.yul\":36166:36167   */\n      0x00\n        /* \"#utility.yul\":36158:36164   */\n      dup3\n        /* \"#utility.yul\":36154:36168   */\n      add\n        /* \"#utility.yul\":36147:36205   */\n      mstore\n        /* \"#utility.yul\":36239:36259   */\n      0x6f776e6572206e6f7220617070726f7665640000000000000000000000000000\n        /* \"#utility.yul\":36234:36236   */\n      0x20\n        /* \"#utility.yul\":36226:36232   */\n      dup3\n        /* \"#utility.yul\":36222:36237   */\n      add\n        /* \"#utility.yul\":36215:36260   */\n      mstore\n        /* \"#utility.yul\":36030:36267   */\n      pop\n      jump\t// out\n        /* \"#utility.yul\":36273:36512   */\n    tag_566:\n        /* \"#utility.yul\":36413:36447   */\n      0x455243313135354d657461646174613a2062616c616e63652071756572792066\n        /* \"#utility.yul\":36409:36410   */\n      0x00\n        /* \"#utility.yul\":36401:36407   */\n      dup3\n        /* \"#utility.yul\":36397:36411   */\n      add\n        /* \"#utility.yul\":36390:36448   */\n      mstore\n        /* \"#utility.yul\":36482:36504   */\n      0x6f72206e6f6e6578697374656e7420746f6b656e000000000000000000000000\n        /* \"#utility.yul\":36477:36479   */\n      0x20\n        /* \"#utility.yul\":36469:36475   */\n      dup3\n        /* \"#utility.yul\":36465:36480   */\n      add\n        /* \"#utility.yul\":36458:36505   */\n      mstore\n        /* \"#utility.yul\":36273:36512   */\n      pop\n      jump\t// out\n        /* \"#utility.yul\":36518:36753   */\n    tag_571:\n        /* \"#utility.yul\":36658:36692   */\n      0x455243313135354d657461646174613a2055524920717565727920666f72206e\n        /* \"#utility.yul\":36654:36655   */\n      0x00\n        /* \"#utility.yul\":36646:36652   */\n      dup3\n        /* \"#utility.yul\":36642:36656   */\n      add\n        /* \"#utility.yul\":36635:36693   */\n      mstore\n        /* \"#utility.yul\":36727:36745   */\n      0x6f6e6578697374656e7420746f6b656e00000000000000000000000000000000\n        /* \"#utility.yul\":36722:36724   */\n      0x20\n        /* \"#utility.yul\":36714:36720   */\n      dup3\n        /* \"#utility.yul\":36710:36725   */\n      add\n        /* \"#utility.yul\":36703:36746   */\n      mstore\n        /* \"#utility.yul\":36518:36753   */\n      pop\n      jump\t// out\n        /* \"#utility.yul\":36759:36987   */\n    tag_576:\n        /* \"#utility.yul\":36899:36933   */\n      0x455243313135353a2073657474696e6720617070726f76616c20737461747573\n        /* \"#utility.yul\":36895:36896   */\n      0x00\n        /* \"#utility.yul\":36887:36893   */\n      dup3\n        /* \"#utility.yul\":36883:36897   */\n      add\n        /* \"#utility.yul\":36876:36934   */\n      mstore\n        /* \"#utility.yul\":36968:36979   */\n      0x20666f722073656c660000000000000000000000000000000000000000000000\n        /* \"#utility.yul\":36963:36965   */\n      0x20\n        /* \"#utility.yul\":36955:36961   */\n      dup3\n        /* \"#utility.yul\":36951:36966   */\n      add\n        /* \"#utility.yul\":36944:36980   */\n      mstore\n        /* \"#utility.yul\":36759:36987   */\n      pop\n      jump\t// out\n        /* \"#utility.yul\":36993:37221   */\n    tag_581:\n        /* \"#utility.yul\":37133:37167   */\n      0x455243313135353a206163636f756e747320616e6420696473206c656e677468\n        /* \"#utility.yul\":37129:37130   */\n      0x00\n        /* \"#utility.yul\":37121:37127   */\n      dup3\n        /* \"#utility.yul\":37117:37131   */\n      add\n        /* \"#utility.yul\":37110:37168   */\n      mstore\n        /* \"#utility.yul\":37202:37213   */\n      0x206d69736d617463680000000000000000000000000000000000000000000000\n        /* \"#utility.yul\":37197:37199   */\n      0x20\n        /* \"#utility.yul\":37189:37195   */\n      dup3\n        /* \"#utility.yul\":37185:37200   */\n      add\n        /* \"#utility.yul\":37178:37214   */\n      mstore\n        /* \"#utility.yul\":36993:37221   */\n      pop\n      jump\t// out\n        /* \"#utility.yul\":37227:37454   */\n    tag_586:\n        /* \"#utility.yul\":37367:37401   */\n      0x455243313135353a2069647320616e6420616d6f756e7473206c656e67746820\n        /* \"#utility.yul\":37363:37364   */\n      0x00\n        /* \"#utility.yul\":37355:37361   */\n      dup3\n        /* \"#utility.yul\":37351:37365   */\n      add\n        /* \"#utility.yul\":37344:37402   */\n      mstore\n        /* \"#utility.yul\":37436:37446   */\n      0x6d69736d61746368000000000000000000000000000000000000000000000000\n        /* \"#utility.yul\":37431:37433   */\n      0x20\n        /* \"#utility.yul\":37423:37429   */\n      dup3\n        /* \"#utility.yul\":37419:37434   */\n      add\n        /* \"#utility.yul\":37412:37447   */\n      mstore\n        /* \"#utility.yul\":37227:37454   */\n      pop\n      jump\t// out\n        /* \"#utility.yul\":37460:38171   */\n    tag_270:\n        /* \"#utility.yul\":37499:37502   */\n      0x00\n        /* \"#utility.yul\":37537:37541   */\n      0x44\n        /* \"#utility.yul\":37519:37535   */\n      returndatasize\n        /* \"#utility.yul\":37516:37542   */\n      lt\n        /* \"#utility.yul\":37513:37552   */\n      iszero\n      tag_754\n      jumpi\n        /* \"#utility.yul\":37545:37550   */\n      jump(tag_753)\n        /* \"#utility.yul\":37513:37552   */\n    tag_754:\n        /* \"#utility.yul\":37574:37594   */\n      tag_755\n      tag_652\n      jump\t// in\n    tag_755:\n        /* \"#utility.yul\":37649:37650   */\n      0x04\n        /* \"#utility.yul\":37631:37647   */\n      returndatasize\n        /* \"#utility.yul\":37627:37651   */\n      sub\n        /* \"#utility.yul\":37624:37625   */\n      0x04\n        /* \"#utility.yul\":37618:37622   */\n      dup3\n        /* \"#utility.yul\":37603:37652   */\n      returndatacopy\n        /* \"#utility.yul\":37682:37686   */\n      dup1\n        /* \"#utility.yul\":37676:37687   */\n      mload\n        /* \"#utility.yul\":37781:37797   */\n      returndatasize\n        /* \"#utility.yul\":37774:37778   */\n      0x24\n        /* \"#utility.yul\":37766:37772   */\n      dup3\n        /* \"#utility.yul\":37762:37779   */\n      add\n        /* \"#utility.yul\":37759:37798   */\n      gt\n        /* \"#utility.yul\":37726:37744   */\n      0xffffffffffffffff\n        /* \"#utility.yul\":37718:37724   */\n      dup3\n        /* \"#utility.yul\":37715:37745   */\n      gt\n        /* \"#utility.yul\":37699:37812   */\n      or\n        /* \"#utility.yul\":37696:37842   */\n      iszero\n      tag_756\n      jumpi\n        /* \"#utility.yul\":37827:37832   */\n      pop\n      pop\n      jump(tag_753)\n        /* \"#utility.yul\":37696:37842   */\n    tag_756:\n        /* \"#utility.yul\":37873:37879   */\n      dup1\n        /* \"#utility.yul\":37867:37871   */\n      dup3\n        /* \"#utility.yul\":37863:37880   */\n      add\n        /* \"#utility.yul\":37909:37912   */\n      dup1\n        /* \"#utility.yul\":37903:37913   */\n      mload\n        /* \"#utility.yul\":37936:37954   */\n      0xffffffffffffffff\n        /* \"#utility.yul\":37928:37934   */\n      dup2\n        /* \"#utility.yul\":37925:37955   */\n      gt\n        /* \"#utility.yul\":37922:37965   */\n      iszero\n      tag_757\n      jumpi\n        /* \"#utility.yul\":37958:37963   */\n      pop\n      pop\n      pop\n      pop\n      jump(tag_753)\n        /* \"#utility.yul\":37922:37965   */\n    tag_757:\n        /* \"#utility.yul\":38006:38012   */\n      dup1\n        /* \"#utility.yul\":37999:38003   */\n      0x20\n        /* \"#utility.yul\":37994:37997   */\n      dup4\n        /* \"#utility.yul\":37990:38004   */\n      add\n        /* \"#utility.yul\":37986:38013   */\n      add\n        /* \"#utility.yul\":38065:38066   */\n      0x04\n        /* \"#utility.yul\":38047:38063   */\n      returndatasize\n        /* \"#utility.yul\":38043:38067   */\n      sub\n        /* \"#utility.yul\":38037:38041   */\n      dup6\n        /* \"#utility.yul\":38033:38068   */\n      add\n        /* \"#utility.yul\":38028:38031   */\n      dup2\n        /* \"#utility.yul\":38025:38069   */\n      gt\n        /* \"#utility.yul\":38022:38079   */\n      iszero\n      tag_758\n      jumpi\n        /* \"#utility.yul\":38072:38077   */\n      pop\n      pop\n      pop\n      pop\n      pop\n      jump(tag_753)\n        /* \"#utility.yul\":38022:38079   */\n    tag_758:\n        /* \"#utility.yul\":38089:38146   */\n      tag_759\n        /* \"#utility.yul\":38137:38143   */\n      dup3\n        /* \"#utility.yul\":38131:38135   */\n      0x20\n        /* \"#utility.yul\":38127:38144   */\n      add\n        /* \"#utility.yul\":38119:38125   */\n      dup6\n        /* \"#utility.yul\":38115:38145   */\n      add\n        /* \"#utility.yul\":38109:38113   */\n      dup7\n        /* \"#utility.yul\":38089:38146   */\n      tag_654\n      jump\t// in\n    tag_759:\n        /* \"#utility.yul\":38162:38165   */\n      dup3\n        /* \"#utility.yul\":38155:38165   */\n      swap6\n      pop\n        /* \"#utility.yul\":37503:38171   */\n      pop\n      pop\n      pop\n      pop\n      pop\n        /* \"#utility.yul\":37460:38171   */\n    tag_753:\n      swap1\n      jump\t// out\n        /* \"#utility.yul\":38177:38299   */\n    tag_379:\n        /* \"#utility.yul\":38250:38274   */\n      tag_761\n        /* \"#utility.yul\":38268:38273   */\n      dup2\n        /* \"#utility.yul\":38250:38274   */\n      tag_479\n      jump\t// in\n    tag_761:\n        /* \"#utility.yul\":38243:38248   */\n      dup2\n        /* \"#utility.yul\":38240:38275   */\n      eq\n        /* \"#utility.yul\":38230:38293   */\n      tag_762\n      jumpi\n        /* \"#utility.yul\":38289:38290   */\n      0x00\n        /* \"#utility.yul\":38286:38287   */\n      dup1\n        /* \"#utility.yul\":38279:38291   */\n      revert\n        /* \"#utility.yul\":38230:38293   */\n    tag_762:\n        /* \"#utility.yul\":38177:38299   */\n      pop\n      jump\t// out\n        /* \"#utility.yul\":38305:38421   */\n    tag_394:\n        /* \"#utility.yul\":38375:38396   */\n      tag_764\n        /* \"#utility.yul\":38390:38395   */\n      dup2\n        /* \"#utility.yul\":38375:38396   */\n      tag_497\n      jump\t// in\n    tag_764:\n        /* \"#utility.yul\":38368:38373   */\n      dup2\n        /* \"#utility.yul\":38365:38397   */\n      eq\n        /* \"#utility.yul\":38355:38415   */\n      tag_765\n      jumpi\n        /* \"#utility.yul\":38411:38412   */\n      0x00\n        /* \"#utility.yul\":38408:38409   */\n      dup1\n        /* \"#utility.yul\":38401:38413   */\n      revert\n        /* \"#utility.yul\":38355:38415   */\n    tag_765:\n        /* \"#utility.yul\":38305:38421   */\n      pop\n      jump\t// out\n        /* \"#utility.yul\":38427:38547   */\n    tag_398:\n        /* \"#utility.yul\":38499:38522   */\n      tag_767\n        /* \"#utility.yul\":38516:38521   */\n      dup2\n        /* \"#utility.yul\":38499:38522   */\n      tag_696\n      jump\t// in\n    tag_767:\n        /* \"#utility.yul\":38492:38497   */\n      dup2\n        /* \"#utility.yul\":38489:38523   */\n      eq\n        /* \"#utility.yul\":38479:38541   */\n      tag_768\n      jumpi\n        /* \"#utility.yul\":38537:38538   */\n      0x00\n        /* \"#utility.yul\":38534:38535   */\n      dup1\n        /* \"#utility.yul\":38527:38539   */\n      revert\n        /* \"#utility.yul\":38479:38541   */\n    tag_768:\n        /* \"#utility.yul\":38427:38547   */\n      pop\n      jump\t// out\n        /* \"#utility.yul\":38553:38675   */\n    tag_409:\n        /* \"#utility.yul\":38626:38650   */\n      tag_770\n        /* \"#utility.yul\":38644:38649   */\n      dup2\n        /* \"#utility.yul\":38626:38650   */\n      tag_589\n      jump\t// in\n    tag_770:\n        /* \"#utility.yul\":38619:38624   */\n      dup2\n        /* \"#utility.yul\":38616:38651   */\n      eq\n        /* \"#utility.yul\":38606:38669   */\n      tag_771\n      jumpi\n        /* \"#utility.yul\":38665:38666   */\n      0x00\n        /* \"#utility.yul\":38662:38663   */\n      dup1\n        /* \"#utility.yul\":38655:38667   */\n      revert\n        /* \"#utility.yul\":38606:38669   */\n    tag_771:\n        /* \"#utility.yul\":38553:38675   */\n      pop\n      jump\t// out\n    stop\n    data_7481f3df2a424c0755a1ad2356614e9a5a358d461ea2eae1f89cb21cbad00397 4552433732313a206f776e657220717565727920666f72206e6f6e6578697374656e7420746f6b656e\n    data_8ac7e9556b567c1c94bb4daaa3c3a65be5ac686579615210cb910fb8cb8d65bf 455243313135353a20696e73756666696369656e742062616c616e636520666f72207472616e73666572\n\n    auxdata: 0xa2646970667358221220a31e203f47a834aaab802e60883e9d5e87305986648408696d6bf7dd7cca04a964736f6c63430008070033\n}\n",
				"bytecode": {
					"linkReferences": {},
					"object": "608060405260405180602001604052806000815250600590805190602001906200002b929190620001b9565b503480156200003957600080fd5b50604051620037663803806200376683398181016040528101906200005f9190620002e7565b620000776301ffc9a760e01b620000e160201b60201c565b81600990805190602001906200008f929190620001b9565b5080600a9080519060200190620000a8929190620001b9565b50620000c163d9b67a2660e01b620000e160201b60201c565b620000d9630e89341c60e01b620000e160201b60201c565b505062000573565b63ffffffff60e01b817bffffffffffffffffffffffffffffffffffffffffffffffffffffffff191614156200014d576040517f08c379a0000000000000000000000000000000000000000000000000000000008152600401620001449062000393565b60405180910390fd5b6001600080837bffffffffffffffffffffffffffffffffffffffffffffffffffffffff19167bffffffffffffffffffffffffffffffffffffffffffffffffffffffff1916815260200190815260200160002060006101000a81548160ff02191690831515021790555050565b828054620001c7906200045b565b90600052602060002090601f016020900481019282620001eb576000855562000237565b82601f106200020657805160ff191683800117855562000237565b8280016001018555821562000237579182015b828111156200023657825182559160200191906001019062000219565b5b5090506200024691906200024a565b5090565b5b80821115620002655760008160009055506001016200024b565b5090565b6000620002806200027a84620003de565b620003b5565b9050828152602081018484840111156200029f576200029e6200052a565b5b620002ac84828562000425565b509392505050565b600082601f830112620002cc57620002cb62000525565b5b8151620002de84826020860162000269565b91505092915050565b6000806040838503121562000301576200030062000534565b5b600083015167ffffffffffffffff8111156200032257620003216200052f565b5b6200033085828601620002b4565b925050602083015167ffffffffffffffff8111156200035457620003536200052f565b5b6200036285828601620002b4565b9150509250929050565b60006200037b601c8362000414565b915062000388826200054a565b602082019050919050565b60006020820190508181036000830152620003ae816200036c565b9050919050565b6000620003c1620003d4565b9050620003cf828262000491565b919050565b6000604051905090565b600067ffffffffffffffff821115620003fc57620003fb620004f6565b5b620004078262000539565b9050602081019050919050565b600082825260208201905092915050565b60005b838110156200044557808201518184015260208101905062000428565b8381111562000455576000848401525b50505050565b600060028204905060018216806200047457607f821691505b602082108114156200048b576200048a620004c7565b5b50919050565b6200049c8262000539565b810181811067ffffffffffffffff82111715620004be57620004bd620004f6565b5b80604052505050565b7f4e487b7100000000000000000000000000000000000000000000000000000000600052602260045260246000fd5b7f4e487b7100000000000000000000000000000000000000000000000000000000600052604160045260246000fd5b600080fd5b600080fd5b600080fd5b600080fd5b6000601f19601f8301169050919050565b7f4552433136353a20696e76616c696420696e7465726661636520696400000000600082015250565b6131e380620005836000396000f3fe608060405234801561001057600080fd5b50600436106100f45760003560e01c806395d89b4111610097578063c87b56dd11610066578063c87b56dd14610299578063d48e638a146102c9578063e985e9c5146102f9578063f242432a14610329576100f4565b806395d89b4114610211578063a22cb4651461022f578063c0ac99831461024b578063c57dc23514610269576100f4565b806318160ddd116100d357806318160ddd146101775780632eb2c2d6146101955780634e1273f4146101b15780636352211e146101e1576100f4565b8062fdd58e146100f957806301ffc9a71461012957806306fdde0314610159575b600080fd5b610113600480360381019061010e9190611ff9565b610345565b604051610120919061278b565b60405180910390f35b610143600480360381019061013e91906120b1565b610458565b60405161015091906125ae565b60405180910390f35b6101616104bf565b60405161016e91906125c9565b60405180910390f35b61017f610551565b60405161018c919061278b565b60405180910390f35b6101af60048036038101906101aa9190611e53565b610562565b005b6101cb60048036038101906101c69190612039565b610937565b6040516101d89190612555565b60405180910390f35b6101fb60048036038101906101f6919061210b565b610b21565b6040516102089190612478565b60405180910390f35b610219610b58565b60405161022691906125c9565b60405180910390f35b61024960048036038101906102449190611fb9565b610bea565b005b610253610d6b565b60405161026091906125c9565b60405180910390f35b610283600480360381019061027e919061210b565b610df9565b604051610290919061278b565b60405180910390f35b6102b360048036038101906102ae919061210b565b610e16565b6040516102c091906125c9565b60405180910390f35b6102e360048036038101906102de919061210b565b61100c565b6040516102f09190612478565b60405180910390f35b610313600480360381019061030e9190611e13565b611049565b60405161032091906125ae565b60405180910390f35b610343600480360381019061033e9190611f22565b6110dd565b005b600061035082611420565b61038f576040517f08c379a0000000000000000000000000000000000000000000000000000000008152600401610386906126eb565b60405180910390fd5b600073ffffffffffffffffffffffffffffffffffffffff168373ffffffffffffffffffffffffffffffffffffffff1614156103ff576040517f08c379a00000000000000000000000000000000000000000000000000000000081526004016103f69061262b565b60405180910390fd5b6003600083815260200190815260200160002060008473ffffffffffffffffffffffffffffffffffffffff1673ffffffffffffffffffffffffffffffffffffffff16815260200190815260200160002054905092915050565b6000806000837bffffffffffffffffffffffffffffffffffffffffffffffffffffffff19167bffffffffffffffffffffffffffffffffffffffffffffffffffffffff1916815260200190815260200160002060009054906101000a900460ff169050919050565b6060600980546104ce90612a6a565b80601f01602080910402602001604051908101604052809291908181526020018280546104fa90612a6a565b80156105475780601f1061051c57610100808354040283529160200191610547565b820191906000526020600020905b81548152906001019060200180831161052a57829003601f168201915b5050505050905090565b600061055d600761143d565b905090565b81518351146105a6576040517f08c379a000000000000000000000000000000000000000000000000000000000815260040161059d9061276b565b60405180910390fd5b600073ffffffffffffffffffffffffffffffffffffffff168473ffffffffffffffffffffffffffffffffffffffff161415610616576040517f08c379a000000000000000000000000000000000000000000000000000000000815260040161060d906126ab565b60405180910390fd5b61061e611452565b73ffffffffffffffffffffffffffffffffffffffff168573ffffffffffffffffffffffffffffffffffffffff16148061066457506106638561065e611452565b611049565b5b6106a3576040517f08c379a000000000000000000000000000000000000000000000000000000000815260040161069a906126cb565b60405180910390fd5b60006106ad611452565b90506106bd81878787878761145a565b60005b84518110156108a25760008582815181106106de576106dd612bd4565b5b6020026020010151905060008583815181106106fd576106fc612bd4565b5b60200260200101519050610784816040518060600160405280602a8152602001613184602a91396003600086815260200190815260200160002060008d73ffffffffffffffffffffffffffffffffffffffff1673ffffffffffffffffffffffffffffffffffffffff168152602001908152602001600020546114629092919063ffffffff16565b6003600084815260200190815260200160002060008b73ffffffffffffffffffffffffffffffffffffffff1673ffffffffffffffffffffffffffffffffffffffff1681526020019081526020016000208190555061083b816003600085815260200190815260200160002060008b73ffffffffffffffffffffffffffffffffffffffff1673ffffffffffffffffffffffffffffffffffffffff168152602001908152602001600020546114c690919063ffffffff16565b6003600084815260200190815260200160002060008a73ffffffffffffffffffffffffffffffffffffffff1673ffffffffffffffffffffffffffffffffffffffff1681526020019081526020016000208190555050508061089b90612acd565b90506106c0565b508473ffffffffffffffffffffffffffffffffffffffff168673ffffffffffffffffffffffffffffffffffffffff168273ffffffffffffffffffffffffffffffffffffffff167f4a39dc06d4c0dbc64b70af90fd698a233a518aa5d07e595d983b8c0526c8f7fb8787604051610919929190612577565b60405180910390a461092f818787878787611524565b505050505050565b6060815183511461097d576040517f08c379a00000000000000000000000000000000000000000000000000000000081526004016109749061274b565b60405180910390fd5b6000835167ffffffffffffffff81111561099a57610999612c03565b5b6040519080825280602002602001820160405280156109c85781602001602082028036833780820191505090505b50905060005b8451811015610b1657600073ffffffffffffffffffffffffffffffffffffffff16858281518110610a0257610a01612bd4565b5b602002602001015173ffffffffffffffffffffffffffffffffffffffff161415610a61576040517f08c379a0000000000000000000000000000000000000000000000000000000008152600401610a589061264b565b60405180910390fd5b60036000858381518110610a7857610a77612bd4565b5b602002602001015181526020019081526020016000206000868381518110610aa357610aa2612bd4565b5b602002602001015173ffffffffffffffffffffffffffffffffffffffff1673ffffffffffffffffffffffffffffffffffffffff16815260200190815260200160002054828281518110610af957610af8612bd4565b5b60200260200101818152505080610b0f90612acd565b90506109ce565b508091505092915050565b6000610b518260405180606001604052806029815260200161315b60299139600761170b9092919063ffffffff16565b9050919050565b6060600a8054610b6790612a6a565b80601f0160208091040260200160405190810160405280929190818152602001828054610b9390612a6a565b8015610be05780601f10610bb557610100808354040283529160200191610be0565b820191906000526020600020905b815481529060010190602001808311610bc357829003601f168201915b5050505050905090565b8173ffffffffffffffffffffffffffffffffffffffff16610c09611452565b73ffffffffffffffffffffffffffffffffffffffff161415610c60576040517f08c379a0000000000000000000000000000000000000000000000000000000008152600401610c579061272b565b60405180910390fd5b8060046000610c6d611452565b73ffffffffffffffffffffffffffffffffffffffff1673ffffffffffffffffffffffffffffffffffffffff16815260200190815260200160002060008473ffffffffffffffffffffffffffffffffffffffff1673ffffffffffffffffffffffffffffffffffffffff16815260200190815260200160002060006101000a81548160ff0219169083151502179055508173ffffffffffffffffffffffffffffffffffffffff16610d1a611452565b73ffffffffffffffffffffffffffffffffffffffff167f17307eab39ab6107e8899845ad3d59bd9653f200f220920489ca2b5937696c3183604051610d5f91906125ae565b60405180910390a35050565b60058054610d7890612a6a565b80601f0160208091040260200160405190810160405280929190818152602001828054610da490612a6a565b8015610df15780601f10610dc657610100808354040283529160200191610df1565b820191906000526020600020905b815481529060010190602001808311610dd457829003601f168201915b505050505081565b600060026000838152602001908152602001600020549050919050565b6060610e2182611420565b610e60576040517f08c379a0000000000000000000000000000000000000000000000000000000008152600401610e579061270b565b60405180910390fd5b6000600660008481526020019081526020016000208054610e8090612a6a565b80601f0160208091040260200160405190810160405280929190818152602001828054610eac90612a6a565b8015610ef95780601f10610ece57610100808354040283529160200191610ef9565b820191906000526020600020905b815481529060010190602001808311610edc57829003601f168201915b50505050509050600060058054610f0f90612a6a565b80601f0160208091040260200160405190810160405280929190818152602001828054610f3b90612a6a565b8015610f885780601f10610f5d57610100808354040283529160200191610f88565b820191906000526020600020905b815481529060010190602001808311610f6b57829003601f168201915b50505050509050600081511415610fa3578192505050611007565b600082511115610fd8578082604051602001610fc0929190612454565b60405160208183030381529060405292505050611007565b80610fe28561172a565b604051602001610ff3929190612454565b604051602081830303815290604052925050505b919050565b60006001600083815260200190815260200160002060009054906101000a900473ffffffffffffffffffffffffffffffffffffffff169050919050565b6000600460008473ffffffffffffffffffffffffffffffffffffffff1673ffffffffffffffffffffffffffffffffffffffff16815260200190815260200160002060008373ffffffffffffffffffffffffffffffffffffffff1673ffffffffffffffffffffffffffffffffffffffff16815260200190815260200160002060009054906101000a900460ff16905092915050565b600073ffffffffffffffffffffffffffffffffffffffff168473ffffffffffffffffffffffffffffffffffffffff16141561114d576040517f08c379a0000000000000000000000000000000000000000000000000000000008152600401611144906126ab565b60405180910390fd5b611155611452565b73ffffffffffffffffffffffffffffffffffffffff168573ffffffffffffffffffffffffffffffffffffffff16148061119b575061119a85611195611452565b611049565b5b6111da576040517f08c379a00000000000000000000000000000000000000000000000000000000081526004016111d19061268b565b60405180910390fd5b60006111e4611452565b90506112048187876111f58861188b565b6111fe8861188b565b8761145a565b611281836040518060600160405280602a8152602001613184602a91396003600088815260200190815260200160002060008a73ffffffffffffffffffffffffffffffffffffffff1673ffffffffffffffffffffffffffffffffffffffff168152602001908152602001600020546114629092919063ffffffff16565b6003600086815260200190815260200160002060008873ffffffffffffffffffffffffffffffffffffffff1673ffffffffffffffffffffffffffffffffffffffff16815260200190815260200160002081905550611338836003600087815260200190815260200160002060008873ffffffffffffffffffffffffffffffffffffffff1673ffffffffffffffffffffffffffffffffffffffff168152602001908152602001600020546114c690919063ffffffff16565b6003600086815260200190815260200160002060008773ffffffffffffffffffffffffffffffffffffffff1673ffffffffffffffffffffffffffffffffffffffff168152602001908152602001600020819055508473ffffffffffffffffffffffffffffffffffffffff168673ffffffffffffffffffffffffffffffffffffffff168273ffffffffffffffffffffffffffffffffffffffff167fc3d58168c5ae7397731d063d5bbf3d657854427343f4c083240f7aacaa2d0f6287876040516114029291906127a6565b60405180910390a4611418818787878787611905565b505050505050565b6000611436826007611aec90919063ffffffff16565b9050919050565b600061144b82600001611b06565b9050919050565b600033905090565b505050505050565b60008383111582906114aa576040517f08c379a00000000000000000000000000000000000000000000000000000000081526004016114a191906125c9565b60405180910390fd5b50600083856114b99190612980565b9050809150509392505050565b60008082846114d591906128f9565b90508381101561151a576040517f08c379a00000000000000000000000000000000000000000000000000000000081526004016115119061266b565b60405180910390fd5b8091505092915050565b6115438473ffffffffffffffffffffffffffffffffffffffff16611b17565b15611703578373ffffffffffffffffffffffffffffffffffffffff1663bc197c8187878686866040518663ffffffff1660e01b8152600401611589959493929190612493565b602060405180830381600087803b1580156115a357600080fd5b505af19250505080156115d457506040513d601f19601f820116820180604052508101906115d191906120de565b60015b61167a576115e0612c32565b806308c379a0141561163d57506115f5613068565b80611600575061163f565b806040517f08c379a000000000000000000000000000000000000000000000000000000000815260040161163491906125c9565b60405180910390fd5b505b6040517f08c379a0000000000000000000000000000000000000000000000000000000008152600401611671906125eb565b60405180910390fd5b63bc197c8160e01b7bffffffffffffffffffffffffffffffffffffffffffffffffffffffff1916817bffffffffffffffffffffffffffffffffffffffffffffffffffffffff191614611701576040517f08c379a00000000000000000000000000000000000000000000000000000000081526004016116f89061260b565b60405180910390fd5b505b505050505050565b600061171e846000018460001b84611b3a565b60001c90509392505050565b60606000821415611772576040518060400160405280600181526020017f30000000000000000000000000000000000000000000000000000000000000008152509050611886565b600082905060005b600082146117a457808061178d90612acd565b915050600a8261179d919061294f565b915061177a565b60008167ffffffffffffffff8111156117c0576117bf612c03565b5b6040519080825280601f01601f1916602001820160405280156117f25781602001600182028036833780820191505090505b5090505b6000851461187f5760018261180b9190612980565b9150600a8561181a9190612b16565b603061182691906128f9565b60f81b81838151811061183c5761183b612bd4565b5b60200101907effffffffffffffffffffffffffffffffffffffffffffffffffffffffffffff1916908160001a905350600a85611878919061294f565b94506117f6565b8093505050505b919050565b60606000600167ffffffffffffffff8111156118aa576118a9612c03565b5b6040519080825280602002602001820160405280156118d85781602001602082028036833780820191505090505b50905082816000815181106118f0576118ef612bd4565b5b60200260200101818152505080915050919050565b6119248473ffffffffffffffffffffffffffffffffffffffff16611b17565b15611ae4578373ffffffffffffffffffffffffffffffffffffffff1663f23a6e6187878686866040518663ffffffff1660e01b815260040161196a9594939291906124fb565b602060405180830381600087803b15801561198457600080fd5b505af19250505080156119b557506040513d601f19601f820116820180604052508101906119b291906120de565b60015b611a5b576119c1612c32565b806308c379a01415611a1e57506119d6613068565b806119e15750611a20565b806040517f08c379a0000000000000000000000000000000000000000000000000000000008152600401611a1591906125c9565b60405180910390fd5b505b6040517f08c379a0000000000000000000000000000000000000000000000000000000008152600401611a52906125eb565b60405180910390fd5b63f23a6e6160e01b7bffffffffffffffffffffffffffffffffffffffffffffffffffffffff1916817bffffffffffffffffffffffffffffffffffffffffffffffffffffffff191614611ae2576040517f08c379a0000000000000000000000000000000000000000000000000000000008152600401611ad99061260b565b60405180910390fd5b505b505050505050565b6000611afe836000018360001b611bdb565b905092915050565b600081600001805490509050919050565b6000808273ffffffffffffffffffffffffffffffffffffffff163b119050919050565b60008084600101600085815260200190815260200160002054905060008114158390611b9c576040517f08c379a0000000000000000000000000000000000000000000000000000000008152600401611b9391906125c9565b60405180910390fd5b5084600001600182611bae9190612980565b81548110611bbf57611bbe612bd4565b5b9060005260206000209060020201600101549150509392505050565b600080836001016000848152602001908152602001600020541415905092915050565b6000611c11611c0c846127f4565b6127cf565b90508083825260208201905082856020860282011115611c3457611c33612c59565b5b60005b85811015611c645781611c4a8882611d20565b845260208401935060208301925050600181019050611c37565b5050509392505050565b6000611c81611c7c84612820565b6127cf565b90508083825260208201905082856020860282011115611ca457611ca3612c59565b5b60005b85811015611cd45781611cba8882611dfe565b845260208401935060208301925050600181019050611ca7565b5050509392505050565b6000611cf1611cec8461284c565b6127cf565b905082815260208101848484011115611d0d57611d0c612c5e565b5b611d18848285612a28565b509392505050565b600081359050611d2f816130fe565b92915050565b600082601f830112611d4a57611d49612c54565b5b8135611d5a848260208601611bfe565b91505092915050565b600082601f830112611d7857611d77612c54565b5b8135611d88848260208601611c6e565b91505092915050565b600081359050611da081613115565b92915050565b600081359050611db58161312c565b92915050565b600081519050611dca8161312c565b92915050565b600082601f830112611de557611de4612c54565b5b8135611df5848260208601611cde565b91505092915050565b600081359050611e0d81613143565b92915050565b60008060408385031215611e2a57611e29612c68565b5b6000611e3885828601611d20565b9250506020611e4985828601611d20565b9150509250929050565b600080600080600060a08688031215611e6f57611e6e612c68565b5b6000611e7d88828901611d20565b9550506020611e8e88828901611d20565b945050604086013567ffffffffffffffff811115611eaf57611eae612c63565b5b611ebb88828901611d63565b935050606086013567ffffffffffffffff811115611edc57611edb612c63565b5b611ee888828901611d63565b925050608086013567ffffffffffffffff811115611f0957611f08612c63565b5b611f1588828901611dd0565b9150509295509295909350565b600080600080600060a08688031215611f3e57611f3d612c68565b5b6000611f4c88828901611d20565b9550506020611f5d88828901611d20565b9450506040611f6e88828901611dfe565b9350506060611f7f88828901611dfe565b925050608086013567ffffffffffffffff811115611fa057611f9f612c63565b5b611fac88828901611dd0565b9150509295509295909350565b60008060408385031215611fd057611fcf612c68565b5b6000611fde85828601611d20565b9250506020611fef85828601611d91565b9150509250929050565b600080604083850312156120105761200f612c68565b5b600061201e85828601611d20565b925050602061202f85828601611dfe565b9150509250929050565b600080604083850312156120505761204f612c68565b5b600083013567ffffffffffffffff81111561206e5761206d612c63565b5b61207a85828601611d35565b925050602083013567ffffffffffffffff81111561209b5761209a612c63565b5b6120a785828601611d63565b9150509250929050565b6000602082840312156120c7576120c6612c68565b5b60006120d584828501611da6565b91505092915050565b6000602082840312156120f4576120f3612c68565b5b600061210284828501611dbb565b91505092915050565b60006020828403121561212157612120612c68565b5b600061212f84828501611dfe565b91505092915050565b60006121448383612436565b60208301905092915050565b612159816129b4565b82525050565b600061216a8261288d565b61217481856128bb565b935061217f8361287d565b8060005b838110156121b05781516121978882612138565b97506121a2836128ae565b925050600181019050612183565b5085935050505092915050565b6121c6816129c6565b82525050565b60006121d782612898565b6121e181856128cc565b93506121f1818560208601612a37565b6121fa81612c6d565b840191505092915050565b6000612210826128a3565b61221a81856128dd565b935061222a818560208601612a37565b61223381612c6d565b840191505092915050565b6000612249826128a3565b61225381856128ee565b9350612263818560208601612a37565b80840191505092915050565b600061227c6034836128dd565b915061228782612c8b565b604082019050919050565b600061229f6028836128dd565b91506122aa82612cda565b604082019050919050565b60006122c2602b836128dd565b91506122cd82612d29565b604082019050919050565b60006122e56031836128dd565b91506122f082612d78565b604082019050919050565b6000612308601b836128dd565b915061231382612dc7565b602082019050919050565b600061232b6029836128dd565b915061233682612df0565b604082019050919050565b600061234e6025836128dd565b915061235982612e3f565b604082019050919050565b60006123716032836128dd565b915061237c82612e8e565b604082019050919050565b60006123946034836128dd565b915061239f82612edd565b604082019050919050565b60006123b76030836128dd565b91506123c282612f2c565b604082019050919050565b60006123da6029836128dd565b91506123e582612f7b565b604082019050919050565b60006123fd6029836128dd565b915061240882612fca565b604082019050919050565b60006124206028836128dd565b915061242b82613019565b604082019050919050565b61243f81612a1e565b82525050565b61244e81612a1e565b82525050565b6000612460828561223e565b915061246c828461223e565b91508190509392505050565b600060208201905061248d6000830184612150565b92915050565b600060a0820190506124a86000830188612150565b6124b56020830187612150565b81810360408301526124c7818661215f565b905081810360608301526124db818561215f565b905081810360808301526124ef81846121cc565b90509695505050505050565b600060a0820190506125106000830188612150565b61251d6020830187612150565b61252a6040830186612445565b6125376060830185612445565b818103608083015261254981846121cc565b90509695505050505050565b6000602082019050818103600083015261256f818461215f565b905092915050565b60006040820190508181036000830152612591818561215f565b905081810360208301526125a5818461215f565b90509392505050565b60006020820190506125c360008301846121bd565b92915050565b600060208201905081810360008301526125e38184612205565b905092915050565b600060208201905081810360008301526126048161226f565b9050919050565b6000602082019050818103600083015261262481612292565b9050919050565b60006020820190508181036000830152612644816122b5565b9050919050565b60006020820190508181036000830152612664816122d8565b9050919050565b60006020820190508181036000830152612684816122fb565b9050919050565b600060208201905081810360008301526126a48161231e565b9050919050565b600060208201905081810360008301526126c481612341565b9050919050565b600060208201905081810360008301526126e481612364565b9050919050565b6000602082019050818103600083015261270481612387565b9050919050565b60006020820190508181036000830152612724816123aa565b9050919050565b60006020820190508181036000830152612744816123cd565b9050919050565b60006020820190508181036000830152612764816123f0565b9050919050565b6000602082019050818103600083015261278481612413565b9050919050565b60006020820190506127a06000830184612445565b92915050565b60006040820190506127bb6000830185612445565b6127c86020830184612445565b9392505050565b60006127d96127ea565b90506127e58282612a9c565b919050565b6000604051905090565b600067ffffffffffffffff82111561280f5761280e612c03565b5b602082029050602081019050919050565b600067ffffffffffffffff82111561283b5761283a612c03565b5b602082029050602081019050919050565b600067ffffffffffffffff82111561286757612866612c03565b5b61287082612c6d565b9050602081019050919050565b6000819050602082019050919050565b600081519050919050565b600081519050919050565b600081519050919050565b6000602082019050919050565b600082825260208201905092915050565b600082825260208201905092915050565b600082825260208201905092915050565b600081905092915050565b600061290482612a1e565b915061290f83612a1e565b9250827fffffffffffffffffffffffffffffffffffffffffffffffffffffffffffffffff0382111561294457612943612b47565b5b828201905092915050565b600061295a82612a1e565b915061296583612a1e565b92508261297557612974612b76565b5b828204905092915050565b600061298b82612a1e565b915061299683612a1e565b9250828210156129a9576129a8612b47565b5b828203905092915050565b60006129bf826129fe565b9050919050565b60008115159050919050565b60007fffffffff0000000000000000000000000000000000000000000000000000000082169050919050565b600073ffffffffffffffffffffffffffffffffffffffff82169050919050565b6000819050919050565b82818337600083830152505050565b60005b83811015612a55578082015181840152602081019050612a3a565b83811115612a64576000848401525b50505050565b60006002820490506001821680612a8257607f821691505b60208210811415612a9657612a95612ba5565b5b50919050565b612aa582612c6d565b810181811067ffffffffffffffff82111715612ac457612ac3612c03565b5b80604052505050565b6000612ad882612a1e565b91507fffffffffffffffffffffffffffffffffffffffffffffffffffffffffffffffff821415612b0b57612b0a612b47565b5b600182019050919050565b6000612b2182612a1e565b9150612b2c83612a1e565b925082612b3c57612b3b612b76565b5b828206905092915050565b7f4e487b7100000000000000000000000000000000000000000000000000000000600052601160045260246000fd5b7f4e487b7100000000000000000000000000000000000000000000000000000000600052601260045260246000fd5b7f4e487b7100000000000000000000000000000000000000000000000000000000600052602260045260246000fd5b7f4e487b7100000000000000000000000000000000000000000000000000000000600052603260045260246000fd5b7f4e487b7100000000000000000000000000000000000000000000000000000000600052604160045260246000fd5b600060033d1115612c515760046000803e612c4e600051612c7e565b90505b90565b600080fd5b600080fd5b600080fd5b600080fd5b600080fd5b6000601f19601f8301169050919050565b60008160e01c9050919050565b7f455243313135353a207472616e7366657220746f206e6f6e204552433131353560008201527f526563656976657220696d706c656d656e746572000000000000000000000000602082015250565b7f455243313135353a204552433131353552656365697665722072656a6563746560008201527f6420746f6b656e73000000000000000000000000000000000000000000000000602082015250565b7f455243313135353a2062616c616e636520717565727920666f7220746865207a60008201527f65726f2061646472657373000000000000000000000000000000000000000000602082015250565b7f455243313135353a2062617463682062616c616e636520717565727920666f7260008201527f20746865207a65726f2061646472657373000000000000000000000000000000602082015250565b7f536166654d6174683a206164646974696f6e206f766572666c6f770000000000600082015250565b7f455243313135353a2063616c6c6572206973206e6f74206f776e6572206e6f7260008201527f20617070726f7665640000000000000000000000000000000000000000000000602082015250565b7f455243313135353a207472616e7366657220746f20746865207a65726f20616460008201527f6472657373000000000000000000000000000000000000000000000000000000602082015250565b7f455243313135353a207472616e736665722063616c6c6572206973206e6f742060008201527f6f776e6572206e6f7220617070726f7665640000000000000000000000000000602082015250565b7f455243313135354d657461646174613a2062616c616e6365207175657279206660008201527f6f72206e6f6e6578697374656e7420746f6b656e000000000000000000000000602082015250565b7f455243313135354d657461646174613a2055524920717565727920666f72206e60008201527f6f6e6578697374656e7420746f6b656e00000000000000000000000000000000602082015250565b7f455243313135353a2073657474696e6720617070726f76616c2073746174757360008201527f20666f722073656c660000000000000000000000000000000000000000000000602082015250565b7f455243313135353a206163636f756e747320616e6420696473206c656e67746860008201527f206d69736d617463680000000000000000000000000000000000000000000000602082015250565b7f455243313135353a2069647320616e6420616d6f756e7473206c656e6774682060008201527f6d69736d61746368000000000000000000000000000000000000000000000000602082015250565b600060443d1015613078576130fb565b6130806127ea565b60043d036004823e80513d602482011167ffffffffffffffff821117156130a85750506130fb565b808201805167ffffffffffffffff8111156130c657505050506130fb565b80602083010160043d0385018111156130e35750505050506130fb565b6130f282602001850186612a9c565b82955050505050505b90565b613107816129b4565b811461311257600080fd5b50565b61311e816129c6565b811461312957600080fd5b50565b613135816129d2565b811461314057600080fd5b50565b61314c81612a1e565b811461315757600080fd5b5056fe4552433732313a206f776e657220717565727920666f72206e6f6e6578697374656e7420746f6b656e455243313135353a20696e73756666696369656e742062616c616e636520666f72207472616e73666572a2646970667358221220a31e203f47a834aaab802e60883e9d5e87305986648408696d6bf7dd7cca04a964736f6c63430008070033",
					"opcodes": "PUSH1 0x80 PUSH1 0x40 MSTORE PUSH1 0x40 MLOAD DUP1 PUSH1 0x20 ADD PUSH1 0x40 MSTORE DUP1 PUSH1 0x0 DUP2 MSTORE POP PUSH1 0x5 SWAP1 DUP1 MLOAD SWAP1 PUSH1 0x20 ADD SWAP1 PUSH3 0x2B SWAP3 SWAP2 SWAP1 PUSH3 0x1B9 JUMP JUMPDEST POP CALLVALUE DUP1 ISZERO PUSH3 0x39 JUMPI PUSH1 0x0 DUP1 REVERT JUMPDEST POP PUSH1 0x40 MLOAD PUSH3 0x3766 CODESIZE SUB DUP1 PUSH3 0x3766 DUP4 CODECOPY DUP2 DUP2 ADD PUSH1 0x40 MSTORE DUP2 ADD SWAP1 PUSH3 0x5F SWAP2 SWAP1 PUSH3 0x2E7 JUMP JUMPDEST PUSH3 0x77 PUSH4 0x1FFC9A7 PUSH1 0xE0 SHL PUSH3 0xE1 PUSH1 0x20 SHL PUSH1 0x20 SHR JUMP JUMPDEST DUP2 PUSH1 0x9 SWAP1 DUP1 MLOAD SWAP1 PUSH1 0x20 ADD SWAP1 PUSH3 0x8F SWAP3 SWAP2 SWAP1 PUSH3 0x1B9 JUMP JUMPDEST POP DUP1 PUSH1 0xA SWAP1 DUP1 MLOAD SWAP1 PUSH1 0x20 ADD SWAP1 PUSH3 0xA8 SWAP3 SWAP2 SWAP1 PUSH3 0x1B9 JUMP JUMPDEST POP PUSH3 0xC1 PUSH4 0xD9B67A26 PUSH1 0xE0 SHL PUSH3 0xE1 PUSH1 0x20 SHL PUSH1 0x20 SHR JUMP JUMPDEST PUSH3 0xD9 PUSH4 0xE89341C PUSH1 0xE0 SHL PUSH3 0xE1 PUSH1 0x20 SHL PUSH1 0x20 SHR JUMP JUMPDEST POP POP PUSH3 0x573 JUMP JUMPDEST PUSH4 0xFFFFFFFF PUSH1 0xE0 SHL DUP2 PUSH28 0xFFFFFFFFFFFFFFFFFFFFFFFFFFFFFFFFFFFFFFFFFFFFFFFFFFFFFFFF NOT AND EQ ISZERO PUSH3 0x14D JUMPI PUSH1 0x40 MLOAD PUSH32 0x8C379A000000000000000000000000000000000000000000000000000000000 DUP2 MSTORE PUSH1 0x4 ADD PUSH3 0x144 SWAP1 PUSH3 0x393 JUMP JUMPDEST PUSH1 0x40 MLOAD DUP1 SWAP2 SUB SWAP1 REVERT JUMPDEST PUSH1 0x1 PUSH1 0x0 DUP1 DUP4 PUSH28 0xFFFFFFFFFFFFFFFFFFFFFFFFFFFFFFFFFFFFFFFFFFFFFFFFFFFFFFFF NOT AND PUSH28 0xFFFFFFFFFFFFFFFFFFFFFFFFFFFFFFFFFFFFFFFFFFFFFFFFFFFFFFFF NOT AND DUP2 MSTORE PUSH1 0x20 ADD SWAP1 DUP2 MSTORE PUSH1 0x20 ADD PUSH1 0x0 KECCAK256 PUSH1 0x0 PUSH2 0x100 EXP DUP2 SLOAD DUP2 PUSH1 0xFF MUL NOT AND SWAP1 DUP4 ISZERO ISZERO MUL OR SWAP1 SSTORE POP POP JUMP JUMPDEST DUP3 DUP1 SLOAD PUSH3 0x1C7 SWAP1 PUSH3 0x45B JUMP JUMPDEST SWAP1 PUSH1 0x0 MSTORE PUSH1 0x20 PUSH1 0x0 KECCAK256 SWAP1 PUSH1 0x1F ADD PUSH1 0x20 SWAP1 DIV DUP2 ADD SWAP3 DUP3 PUSH3 0x1EB JUMPI PUSH1 0x0 DUP6 SSTORE PUSH3 0x237 JUMP JUMPDEST DUP3 PUSH1 0x1F LT PUSH3 0x206 JUMPI DUP1 MLOAD PUSH1 0xFF NOT AND DUP4 DUP1 ADD OR DUP6 SSTORE PUSH3 0x237 JUMP JUMPDEST DUP3 DUP1 ADD PUSH1 0x1 ADD DUP6 SSTORE DUP3 ISZERO PUSH3 0x237 JUMPI SWAP2 DUP3 ADD JUMPDEST DUP3 DUP2 GT ISZERO PUSH3 0x236 JUMPI DUP3 MLOAD DUP3 SSTORE SWAP2 PUSH1 0x20 ADD SWAP2 SWAP1 PUSH1 0x1 ADD SWAP1 PUSH3 0x219 JUMP JUMPDEST JUMPDEST POP SWAP1 POP PUSH3 0x246 SWAP2 SWAP1 PUSH3 0x24A JUMP JUMPDEST POP SWAP1 JUMP JUMPDEST JUMPDEST DUP1 DUP3 GT ISZERO PUSH3 0x265 JUMPI PUSH1 0x0 DUP2 PUSH1 0x0 SWAP1 SSTORE POP PUSH1 0x1 ADD PUSH3 0x24B JUMP JUMPDEST POP SWAP1 JUMP JUMPDEST PUSH1 0x0 PUSH3 0x280 PUSH3 0x27A DUP5 PUSH3 0x3DE JUMP JUMPDEST PUSH3 0x3B5 JUMP JUMPDEST SWAP1 POP DUP3 DUP2 MSTORE PUSH1 0x20 DUP2 ADD DUP5 DUP5 DUP5 ADD GT ISZERO PUSH3 0x29F JUMPI PUSH3 0x29E PUSH3 0x52A JUMP JUMPDEST JUMPDEST PUSH3 0x2AC DUP5 DUP3 DUP6 PUSH3 0x425 JUMP JUMPDEST POP SWAP4 SWAP3 POP POP POP JUMP JUMPDEST PUSH1 0x0 DUP3 PUSH1 0x1F DUP4 ADD SLT PUSH3 0x2CC JUMPI PUSH3 0x2CB PUSH3 0x525 JUMP JUMPDEST JUMPDEST DUP2 MLOAD PUSH3 0x2DE DUP5 DUP3 PUSH1 0x20 DUP7 ADD PUSH3 0x269 JUMP JUMPDEST SWAP2 POP POP SWAP3 SWAP2 POP POP JUMP JUMPDEST PUSH1 0x0 DUP1 PUSH1 0x40 DUP4 DUP6 SUB SLT ISZERO PUSH3 0x301 JUMPI PUSH3 0x300 PUSH3 0x534 JUMP JUMPDEST JUMPDEST PUSH1 0x0 DUP4 ADD MLOAD PUSH8 0xFFFFFFFFFFFFFFFF DUP2 GT ISZERO PUSH3 0x322 JUMPI PUSH3 0x321 PUSH3 0x52F JUMP JUMPDEST JUMPDEST PUSH3 0x330 DUP6 DUP3 DUP7 ADD PUSH3 0x2B4 JUMP JUMPDEST SWAP3 POP POP PUSH1 0x20 DUP4 ADD MLOAD PUSH8 0xFFFFFFFFFFFFFFFF DUP2 GT ISZERO PUSH3 0x354 JUMPI PUSH3 0x353 PUSH3 0x52F JUMP JUMPDEST JUMPDEST PUSH3 0x362 DUP6 DUP3 DUP7 ADD PUSH3 0x2B4 JUMP JUMPDEST SWAP2 POP POP SWAP3 POP SWAP3 SWAP1 POP JUMP JUMPDEST PUSH1 0x0 PUSH3 0x37B PUSH1 0x1C DUP4 PUSH3 0x414 JUMP JUMPDEST SWAP2 POP PUSH3 0x388 DUP3 PUSH3 0x54A JUMP JUMPDEST PUSH1 0x20 DUP3 ADD SWAP1 POP SWAP2 SWAP1 POP JUMP JUMPDEST PUSH1 0x0 PUSH1 0x20 DUP3 ADD SWAP1 POP DUP2 DUP2 SUB PUSH1 0x0 DUP4 ADD MSTORE PUSH3 0x3AE DUP2 PUSH3 0x36C JUMP JUMPDEST SWAP1 POP SWAP2 SWAP1 POP JUMP JUMPDEST PUSH1 0x0 PUSH3 0x3C1 PUSH3 0x3D4 JUMP JUMPDEST SWAP1 POP PUSH3 0x3CF DUP3 DUP3 PUSH3 0x491 JUMP JUMPDEST SWAP2 SWAP1 POP JUMP JUMPDEST PUSH1 0x0 PUSH1 0x40 MLOAD SWAP1 POP SWAP1 JUMP JUMPDEST PUSH1 0x0 PUSH8 0xFFFFFFFFFFFFFFFF DUP3 GT ISZERO PUSH3 0x3FC JUMPI PUSH3 0x3FB PUSH3 0x4F6 JUMP JUMPDEST JUMPDEST PUSH3 0x407 DUP3 PUSH3 0x539 JUMP JUMPDEST SWAP1 POP PUSH1 0x20 DUP2 ADD SWAP1 POP SWAP2 SWAP1 POP JUMP JUMPDEST PUSH1 0x0 DUP3 DUP3 MSTORE PUSH1 0x20 DUP3 ADD SWAP1 POP SWAP3 SWAP2 POP POP JUMP JUMPDEST PUSH1 0x0 JUMPDEST DUP4 DUP2 LT ISZERO PUSH3 0x445 JUMPI DUP1 DUP3 ADD MLOAD DUP2 DUP5 ADD MSTORE PUSH1 0x20 DUP2 ADD SWAP1 POP PUSH3 0x428 JUMP JUMPDEST DUP4 DUP2 GT ISZERO PUSH3 0x455 JUMPI PUSH1 0x0 DUP5 DUP5 ADD MSTORE JUMPDEST POP POP POP POP JUMP JUMPDEST PUSH1 0x0 PUSH1 0x2 DUP3 DIV SWAP1 POP PUSH1 0x1 DUP3 AND DUP1 PUSH3 0x474 JUMPI PUSH1 0x7F DUP3 AND SWAP2 POP JUMPDEST PUSH1 0x20 DUP3 LT DUP2 EQ ISZERO PUSH3 0x48B JUMPI PUSH3 0x48A PUSH3 0x4C7 JUMP JUMPDEST JUMPDEST POP SWAP2 SWAP1 POP JUMP JUMPDEST PUSH3 0x49C DUP3 PUSH3 0x539 JUMP JUMPDEST DUP2 ADD DUP2 DUP2 LT PUSH8 0xFFFFFFFFFFFFFFFF DUP3 GT OR ISZERO PUSH3 0x4BE JUMPI PUSH3 0x4BD PUSH3 0x4F6 JUMP JUMPDEST JUMPDEST DUP1 PUSH1 0x40 MSTORE POP POP POP JUMP JUMPDEST PUSH32 0x4E487B7100000000000000000000000000000000000000000000000000000000 PUSH1 0x0 MSTORE PUSH1 0x22 PUSH1 0x4 MSTORE PUSH1 0x24 PUSH1 0x0 REVERT JUMPDEST PUSH32 0x4E487B7100000000000000000000000000000000000000000000000000000000 PUSH1 0x0 MSTORE PUSH1 0x41 PUSH1 0x4 MSTORE PUSH1 0x24 PUSH1 0x0 REVERT JUMPDEST PUSH1 0x0 DUP1 REVERT JUMPDEST PUSH1 0x0 DUP1 REVERT JUMPDEST PUSH1 0x0 DUP1 REVERT JUMPDEST PUSH1 0x0 DUP1 REVERT JUMPDEST PUSH1 0x0 PUSH1 0x1F NOT PUSH1 0x1F DUP4 ADD AND SWAP1 POP SWAP2 SWAP1 POP JUMP JUMPDEST PUSH32 0x4552433136353A20696E76616C696420696E7465726661636520696400000000 PUSH1 0x0 DUP3 ADD MSTORE POP JUMP JUMPDEST PUSH2 0x31E3 DUP1 PUSH3 0x583 PUSH1 0x0 CODECOPY PUSH1 0x0 RETURN INVALID PUSH1 0x80 PUSH1 0x40 MSTORE CALLVALUE DUP1 ISZERO PUSH2 0x10 JUMPI PUSH1 0x0 DUP1 REVERT JUMPDEST POP PUSH1 0x4 CALLDATASIZE LT PUSH2 0xF4 JUMPI PUSH1 0x0 CALLDATALOAD PUSH1 0xE0 SHR DUP1 PUSH4 0x95D89B41 GT PUSH2 0x97 JUMPI DUP1 PUSH4 0xC87B56DD GT PUSH2 0x66 JUMPI DUP1 PUSH4 0xC87B56DD EQ PUSH2 0x299 JUMPI DUP1 PUSH4 0xD48E638A EQ PUSH2 0x2C9 JUMPI DUP1 PUSH4 0xE985E9C5 EQ PUSH2 0x2F9 JUMPI DUP1 PUSH4 0xF242432A EQ PUSH2 0x329 JUMPI PUSH2 0xF4 JUMP JUMPDEST DUP1 PUSH4 0x95D89B41 EQ PUSH2 0x211 JUMPI DUP1 PUSH4 0xA22CB465 EQ PUSH2 0x22F JUMPI DUP1 PUSH4 0xC0AC9983 EQ PUSH2 0x24B JUMPI DUP1 PUSH4 0xC57DC235 EQ PUSH2 0x269 JUMPI PUSH2 0xF4 JUMP JUMPDEST DUP1 PUSH4 0x18160DDD GT PUSH2 0xD3 JUMPI DUP1 PUSH4 0x18160DDD EQ PUSH2 0x177 JUMPI DUP1 PUSH4 0x2EB2C2D6 EQ PUSH2 0x195 JUMPI DUP1 PUSH4 0x4E1273F4 EQ PUSH2 0x1B1 JUMPI DUP1 PUSH4 0x6352211E EQ PUSH2 0x1E1 JUMPI PUSH2 0xF4 JUMP JUMPDEST DUP1 PUSH3 0xFDD58E EQ PUSH2 0xF9 JUMPI DUP1 PUSH4 0x1FFC9A7 EQ PUSH2 0x129 JUMPI DUP1 PUSH4 0x6FDDE03 EQ PUSH2 0x159 JUMPI JUMPDEST PUSH1 0x0 DUP1 REVERT JUMPDEST PUSH2 0x113 PUSH1 0x4 DUP1 CALLDATASIZE SUB DUP2 ADD SWAP1 PUSH2 0x10E SWAP2 SWAP1 PUSH2 0x1FF9 JUMP JUMPDEST PUSH2 0x345 JUMP JUMPDEST PUSH1 0x40 MLOAD PUSH2 0x120 SWAP2 SWAP1 PUSH2 0x278B JUMP JUMPDEST PUSH1 0x40 MLOAD DUP1 SWAP2 SUB SWAP1 RETURN JUMPDEST PUSH2 0x143 PUSH1 0x4 DUP1 CALLDATASIZE SUB DUP2 ADD SWAP1 PUSH2 0x13E SWAP2 SWAP1 PUSH2 0x20B1 JUMP JUMPDEST PUSH2 0x458 JUMP JUMPDEST PUSH1 0x40 MLOAD PUSH2 0x150 SWAP2 SWAP1 PUSH2 0x25AE JUMP JUMPDEST PUSH1 0x40 MLOAD DUP1 SWAP2 SUB SWAP1 RETURN JUMPDEST PUSH2 0x161 PUSH2 0x4BF JUMP JUMPDEST PUSH1 0x40 MLOAD PUSH2 0x16E SWAP2 SWAP1 PUSH2 0x25C9 JUMP JUMPDEST PUSH1 0x40 MLOAD DUP1 SWAP2 SUB SWAP1 RETURN JUMPDEST PUSH2 0x17F PUSH2 0x551 JUMP JUMPDEST PUSH1 0x40 MLOAD PUSH2 0x18C SWAP2 SWAP1 PUSH2 0x278B JUMP JUMPDEST PUSH1 0x40 MLOAD DUP1 SWAP2 SUB SWAP1 RETURN JUMPDEST PUSH2 0x1AF PUSH1 0x4 DUP1 CALLDATASIZE SUB DUP2 ADD SWAP1 PUSH2 0x1AA SWAP2 SWAP1 PUSH2 0x1E53 JUMP JUMPDEST PUSH2 0x562 JUMP JUMPDEST STOP JUMPDEST PUSH2 0x1CB PUSH1 0x4 DUP1 CALLDATASIZE SUB DUP2 ADD SWAP1 PUSH2 0x1C6 SWAP2 SWAP1 PUSH2 0x2039 JUMP JUMPDEST PUSH2 0x937 JUMP JUMPDEST PUSH1 0x40 MLOAD PUSH2 0x1D8 SWAP2 SWAP1 PUSH2 0x2555 JUMP JUMPDEST PUSH1 0x40 MLOAD DUP1 SWAP2 SUB SWAP1 RETURN JUMPDEST PUSH2 0x1FB PUSH1 0x4 DUP1 CALLDATASIZE SUB DUP2 ADD SWAP1 PUSH2 0x1F6 SWAP2 SWAP1 PUSH2 0x210B JUMP JUMPDEST PUSH2 0xB21 JUMP JUMPDEST PUSH1 0x40 MLOAD PUSH2 0x208 SWAP2 SWAP1 PUSH2 0x2478 JUMP JUMPDEST PUSH1 0x40 MLOAD DUP1 SWAP2 SUB SWAP1 RETURN JUMPDEST PUSH2 0x219 PUSH2 0xB58 JUMP JUMPDEST PUSH1 0x40 MLOAD PUSH2 0x226 SWAP2 SWAP1 PUSH2 0x25C9 JUMP JUMPDEST PUSH1 0x40 MLOAD DUP1 SWAP2 SUB SWAP1 RETURN JUMPDEST PUSH2 0x249 PUSH1 0x4 DUP1 CALLDATASIZE SUB DUP2 ADD SWAP1 PUSH2 0x244 SWAP2 SWAP1 PUSH2 0x1FB9 JUMP JUMPDEST PUSH2 0xBEA JUMP JUMPDEST STOP JUMPDEST PUSH2 0x253 PUSH2 0xD6B JUMP JUMPDEST PUSH1 0x40 MLOAD PUSH2 0x260 SWAP2 SWAP1 PUSH2 0x25C9 JUMP JUMPDEST PUSH1 0x40 MLOAD DUP1 SWAP2 SUB SWAP1 RETURN JUMPDEST PUSH2 0x283 PUSH1 0x4 DUP1 CALLDATASIZE SUB DUP2 ADD SWAP1 PUSH2 0x27E SWAP2 SWAP1 PUSH2 0x210B JUMP JUMPDEST PUSH2 0xDF9 JUMP JUMPDEST PUSH1 0x40 MLOAD PUSH2 0x290 SWAP2 SWAP1 PUSH2 0x278B JUMP JUMPDEST PUSH1 0x40 MLOAD DUP1 SWAP2 SUB SWAP1 RETURN JUMPDEST PUSH2 0x2B3 PUSH1 0x4 DUP1 CALLDATASIZE SUB DUP2 ADD SWAP1 PUSH2 0x2AE SWAP2 SWAP1 PUSH2 0x210B JUMP JUMPDEST PUSH2 0xE16 JUMP JUMPDEST PUSH1 0x40 MLOAD PUSH2 0x2C0 SWAP2 SWAP1 PUSH2 0x25C9 JUMP JUMPDEST PUSH1 0x40 MLOAD DUP1 SWAP2 SUB SWAP1 RETURN JUMPDEST PUSH2 0x2E3 PUSH1 0x4 DUP1 CALLDATASIZE SUB DUP2 ADD SWAP1 PUSH2 0x2DE SWAP2 SWAP1 PUSH2 0x210B JUMP JUMPDEST PUSH2 0x100C JUMP JUMPDEST PUSH1 0x40 MLOAD PUSH2 0x2F0 SWAP2 SWAP1 PUSH2 0x2478 JUMP JUMPDEST PUSH1 0x40 MLOAD DUP1 SWAP2 SUB SWAP1 RETURN JUMPDEST PUSH2 0x313 PUSH1 0x4 DUP1 CALLDATASIZE SUB DUP2 ADD SWAP1 PUSH2 0x30E SWAP2 SWAP1 PUSH2 0x1E13 JUMP JUMPDEST PUSH2 0x1049 JUMP JUMPDEST PUSH1 0x40 MLOAD PUSH2 0x320 SWAP2 SWAP1 PUSH2 0x25AE JUMP JUMPDEST PUSH1 0x40 MLOAD DUP1 SWAP2 SUB SWAP1 RETURN JUMPDEST PUSH2 0x343 PUSH1 0x4 DUP1 CALLDATASIZE SUB DUP2 ADD SWAP1 PUSH2 0x33E SWAP2 SWAP1 PUSH2 0x1F22 JUMP JUMPDEST PUSH2 0x10DD JUMP JUMPDEST STOP JUMPDEST PUSH1 0x0 PUSH2 0x350 DUP3 PUSH2 0x1420 JUMP JUMPDEST PUSH2 0x38F JUMPI PUSH1 0x40 MLOAD PUSH32 0x8C379A000000000000000000000000000000000000000000000000000000000 DUP2 MSTORE PUSH1 0x4 ADD PUSH2 0x386 SWAP1 PUSH2 0x26EB JUMP JUMPDEST PUSH1 0x40 MLOAD DUP1 SWAP2 SUB SWAP1 REVERT JUMPDEST PUSH1 0x0 PUSH20 0xFFFFFFFFFFFFFFFFFFFFFFFFFFFFFFFFFFFFFFFF AND DUP4 PUSH20 0xFFFFFFFFFFFFFFFFFFFFFFFFFFFFFFFFFFFFFFFF AND EQ ISZERO PUSH2 0x3FF JUMPI PUSH1 0x40 MLOAD PUSH32 0x8C379A000000000000000000000000000000000000000000000000000000000 DUP2 MSTORE PUSH1 0x4 ADD PUSH2 0x3F6 SWAP1 PUSH2 0x262B JUMP JUMPDEST PUSH1 0x40 MLOAD DUP1 SWAP2 SUB SWAP1 REVERT JUMPDEST PUSH1 0x3 PUSH1 0x0 DUP4 DUP2 MSTORE PUSH1 0x20 ADD SWAP1 DUP2 MSTORE PUSH1 0x20 ADD PUSH1 0x0 KECCAK256 PUSH1 0x0 DUP5 PUSH20 0xFFFFFFFFFFFFFFFFFFFFFFFFFFFFFFFFFFFFFFFF AND PUSH20 0xFFFFFFFFFFFFFFFFFFFFFFFFFFFFFFFFFFFFFFFF AND DUP2 MSTORE PUSH1 0x20 ADD SWAP1 DUP2 MSTORE PUSH1 0x20 ADD PUSH1 0x0 KECCAK256 SLOAD SWAP1 POP SWAP3 SWAP2 POP POP JUMP JUMPDEST PUSH1 0x0 DUP1 PUSH1 0x0 DUP4 PUSH28 0xFFFFFFFFFFFFFFFFFFFFFFFFFFFFFFFFFFFFFFFFFFFFFFFFFFFFFFFF NOT AND PUSH28 0xFFFFFFFFFFFFFFFFFFFFFFFFFFFFFFFFFFFFFFFFFFFFFFFFFFFFFFFF NOT AND DUP2 MSTORE PUSH1 0x20 ADD SWAP1 DUP2 MSTORE PUSH1 0x20 ADD PUSH1 0x0 KECCAK256 PUSH1 0x0 SWAP1 SLOAD SWAP1 PUSH2 0x100 EXP SWAP1 DIV PUSH1 0xFF AND SWAP1 POP SWAP2 SWAP1 POP JUMP JUMPDEST PUSH1 0x60 PUSH1 0x9 DUP1 SLOAD PUSH2 0x4CE SWAP1 PUSH2 0x2A6A JUMP JUMPDEST DUP1 PUSH1 0x1F ADD PUSH1 0x20 DUP1 SWAP2 DIV MUL PUSH1 0x20 ADD PUSH1 0x40 MLOAD SWAP1 DUP2 ADD PUSH1 0x40 MSTORE DUP1 SWAP3 SWAP2 SWAP1 DUP2 DUP2 MSTORE PUSH1 0x20 ADD DUP3 DUP1 SLOAD PUSH2 0x4FA SWAP1 PUSH2 0x2A6A JUMP JUMPDEST DUP1 ISZERO PUSH2 0x547 JUMPI DUP1 PUSH1 0x1F LT PUSH2 0x51C JUMPI PUSH2 0x100 DUP1 DUP4 SLOAD DIV MUL DUP4 MSTORE SWAP2 PUSH1 0x20 ADD SWAP2 PUSH2 0x547 JUMP JUMPDEST DUP3 ADD SWAP2 SWAP1 PUSH1 0x0 MSTORE PUSH1 0x20 PUSH1 0x0 KECCAK256 SWAP1 JUMPDEST DUP2 SLOAD DUP2 MSTORE SWAP1 PUSH1 0x1 ADD SWAP1 PUSH1 0x20 ADD DUP1 DUP4 GT PUSH2 0x52A JUMPI DUP3 SWAP1 SUB PUSH1 0x1F AND DUP3 ADD SWAP2 JUMPDEST POP POP POP POP POP SWAP1 POP SWAP1 JUMP JUMPDEST PUSH1 0x0 PUSH2 0x55D PUSH1 0x7 PUSH2 0x143D JUMP JUMPDEST SWAP1 POP SWAP1 JUMP JUMPDEST DUP2 MLOAD DUP4 MLOAD EQ PUSH2 0x5A6 JUMPI PUSH1 0x40 MLOAD PUSH32 0x8C379A000000000000000000000000000000000000000000000000000000000 DUP2 MSTORE PUSH1 0x4 ADD PUSH2 0x59D SWAP1 PUSH2 0x276B JUMP JUMPDEST PUSH1 0x40 MLOAD DUP1 SWAP2 SUB SWAP1 REVERT JUMPDEST PUSH1 0x0 PUSH20 0xFFFFFFFFFFFFFFFFFFFFFFFFFFFFFFFFFFFFFFFF AND DUP5 PUSH20 0xFFFFFFFFFFFFFFFFFFFFFFFFFFFFFFFFFFFFFFFF AND EQ ISZERO PUSH2 0x616 JUMPI PUSH1 0x40 MLOAD PUSH32 0x8C379A000000000000000000000000000000000000000000000000000000000 DUP2 MSTORE PUSH1 0x4 ADD PUSH2 0x60D SWAP1 PUSH2 0x26AB JUMP JUMPDEST PUSH1 0x40 MLOAD DUP1 SWAP2 SUB SWAP1 REVERT JUMPDEST PUSH2 0x61E PUSH2 0x1452 JUMP JUMPDEST PUSH20 0xFFFFFFFFFFFFFFFFFFFFFFFFFFFFFFFFFFFFFFFF AND DUP6 PUSH20 0xFFFFFFFFFFFFFFFFFFFFFFFFFFFFFFFFFFFFFFFF AND EQ DUP1 PUSH2 0x664 JUMPI POP PUSH2 0x663 DUP6 PUSH2 0x65E PUSH2 0x1452 JUMP JUMPDEST PUSH2 0x1049 JUMP JUMPDEST JUMPDEST PUSH2 0x6A3 JUMPI PUSH1 0x40 MLOAD PUSH32 0x8C379A000000000000000000000000000000000000000000000000000000000 DUP2 MSTORE PUSH1 0x4 ADD PUSH2 0x69A SWAP1 PUSH2 0x26CB JUMP JUMPDEST PUSH1 0x40 MLOAD DUP1 SWAP2 SUB SWAP1 REVERT JUMPDEST PUSH1 0x0 PUSH2 0x6AD PUSH2 0x1452 JUMP JUMPDEST SWAP1 POP PUSH2 0x6BD DUP2 DUP8 DUP8 DUP8 DUP8 DUP8 PUSH2 0x145A JUMP JUMPDEST PUSH1 0x0 JUMPDEST DUP5 MLOAD DUP2 LT ISZERO PUSH2 0x8A2 JUMPI PUSH1 0x0 DUP6 DUP3 DUP2 MLOAD DUP2 LT PUSH2 0x6DE JUMPI PUSH2 0x6DD PUSH2 0x2BD4 JUMP JUMPDEST JUMPDEST PUSH1 0x20 MUL PUSH1 0x20 ADD ADD MLOAD SWAP1 POP PUSH1 0x0 DUP6 DUP4 DUP2 MLOAD DUP2 LT PUSH2 0x6FD JUMPI PUSH2 0x6FC PUSH2 0x2BD4 JUMP JUMPDEST JUMPDEST PUSH1 0x20 MUL PUSH1 0x20 ADD ADD MLOAD SWAP1 POP PUSH2 0x784 DUP2 PUSH1 0x40 MLOAD DUP1 PUSH1 0x60 ADD PUSH1 0x40 MSTORE DUP1 PUSH1 0x2A DUP2 MSTORE PUSH1 0x20 ADD PUSH2 0x3184 PUSH1 0x2A SWAP2 CODECOPY PUSH1 0x3 PUSH1 0x0 DUP7 DUP2 MSTORE PUSH1 0x20 ADD SWAP1 DUP2 MSTORE PUSH1 0x20 ADD PUSH1 0x0 KECCAK256 PUSH1 0x0 DUP14 PUSH20 0xFFFFFFFFFFFFFFFFFFFFFFFFFFFFFFFFFFFFFFFF AND PUSH20 0xFFFFFFFFFFFFFFFFFFFFFFFFFFFFFFFFFFFFFFFF AND DUP2 MSTORE PUSH1 0x20 ADD SWAP1 DUP2 MSTORE PUSH1 0x20 ADD PUSH1 0x0 KECCAK256 SLOAD PUSH2 0x1462 SWAP1 SWAP3 SWAP2 SWAP1 PUSH4 0xFFFFFFFF AND JUMP JUMPDEST PUSH1 0x3 PUSH1 0x0 DUP5 DUP2 MSTORE PUSH1 0x20 ADD SWAP1 DUP2 MSTORE PUSH1 0x20 ADD PUSH1 0x0 KECCAK256 PUSH1 0x0 DUP12 PUSH20 0xFFFFFFFFFFFFFFFFFFFFFFFFFFFFFFFFFFFFFFFF AND PUSH20 0xFFFFFFFFFFFFFFFFFFFFFFFFFFFFFFFFFFFFFFFF AND DUP2 MSTORE PUSH1 0x20 ADD SWAP1 DUP2 MSTORE PUSH1 0x20 ADD PUSH1 0x0 KECCAK256 DUP2 SWAP1 SSTORE POP PUSH2 0x83B DUP2 PUSH1 0x3 PUSH1 0x0 DUP6 DUP2 MSTORE PUSH1 0x20 ADD SWAP1 DUP2 MSTORE PUSH1 0x20 ADD PUSH1 0x0 KECCAK256 PUSH1 0x0 DUP12 PUSH20 0xFFFFFFFFFFFFFFFFFFFFFFFFFFFFFFFFFFFFFFFF AND PUSH20 0xFFFFFFFFFFFFFFFFFFFFFFFFFFFFFFFFFFFFFFFF AND DUP2 MSTORE PUSH1 0x20 ADD SWAP1 DUP2 MSTORE PUSH1 0x20 ADD PUSH1 0x0 KECCAK256 SLOAD PUSH2 0x14C6 SWAP1 SWAP2 SWAP1 PUSH4 0xFFFFFFFF AND JUMP JUMPDEST PUSH1 0x3 PUSH1 0x0 DUP5 DUP2 MSTORE PUSH1 0x20 ADD SWAP1 DUP2 MSTORE PUSH1 0x20 ADD PUSH1 0x0 KECCAK256 PUSH1 0x0 DUP11 PUSH20 0xFFFFFFFFFFFFFFFFFFFFFFFFFFFFFFFFFFFFFFFF AND PUSH20 0xFFFFFFFFFFFFFFFFFFFFFFFFFFFFFFFFFFFFFFFF AND DUP2 MSTORE PUSH1 0x20 ADD SWAP1 DUP2 MSTORE PUSH1 0x20 ADD PUSH1 0x0 KECCAK256 DUP2 SWAP1 SSTORE POP POP POP DUP1 PUSH2 0x89B SWAP1 PUSH2 0x2ACD JUMP JUMPDEST SWAP1 POP PUSH2 0x6C0 JUMP JUMPDEST POP DUP5 PUSH20 0xFFFFFFFFFFFFFFFFFFFFFFFFFFFFFFFFFFFFFFFF AND DUP7 PUSH20 0xFFFFFFFFFFFFFFFFFFFFFFFFFFFFFFFFFFFFFFFF AND DUP3 PUSH20 0xFFFFFFFFFFFFFFFFFFFFFFFFFFFFFFFFFFFFFFFF AND PUSH32 0x4A39DC06D4C0DBC64B70AF90FD698A233A518AA5D07E595D983B8C0526C8F7FB DUP8 DUP8 PUSH1 0x40 MLOAD PUSH2 0x919 SWAP3 SWAP2 SWAP1 PUSH2 0x2577 JUMP JUMPDEST PUSH1 0x40 MLOAD DUP1 SWAP2 SUB SWAP1 LOG4 PUSH2 0x92F DUP2 DUP8 DUP8 DUP8 DUP8 DUP8 PUSH2 0x1524 JUMP JUMPDEST POP POP POP POP POP POP JUMP JUMPDEST PUSH1 0x60 DUP2 MLOAD DUP4 MLOAD EQ PUSH2 0x97D JUMPI PUSH1 0x40 MLOAD PUSH32 0x8C379A000000000000000000000000000000000000000000000000000000000 DUP2 MSTORE PUSH1 0x4 ADD PUSH2 0x974 SWAP1 PUSH2 0x274B JUMP JUMPDEST PUSH1 0x40 MLOAD DUP1 SWAP2 SUB SWAP1 REVERT JUMPDEST PUSH1 0x0 DUP4 MLOAD PUSH8 0xFFFFFFFFFFFFFFFF DUP2 GT ISZERO PUSH2 0x99A JUMPI PUSH2 0x999 PUSH2 0x2C03 JUMP JUMPDEST JUMPDEST PUSH1 0x40 MLOAD SWAP1 DUP1 DUP3 MSTORE DUP1 PUSH1 0x20 MUL PUSH1 0x20 ADD DUP3 ADD PUSH1 0x40 MSTORE DUP1 ISZERO PUSH2 0x9C8 JUMPI DUP2 PUSH1 0x20 ADD PUSH1 0x20 DUP3 MUL DUP1 CALLDATASIZE DUP4 CALLDATACOPY DUP1 DUP3 ADD SWAP2 POP POP SWAP1 POP JUMPDEST POP SWAP1 POP PUSH1 0x0 JUMPDEST DUP5 MLOAD DUP2 LT ISZERO PUSH2 0xB16 JUMPI PUSH1 0x0 PUSH20 0xFFFFFFFFFFFFFFFFFFFFFFFFFFFFFFFFFFFFFFFF AND DUP6 DUP3 DUP2 MLOAD DUP2 LT PUSH2 0xA02 JUMPI PUSH2 0xA01 PUSH2 0x2BD4 JUMP JUMPDEST JUMPDEST PUSH1 0x20 MUL PUSH1 0x20 ADD ADD MLOAD PUSH20 0xFFFFFFFFFFFFFFFFFFFFFFFFFFFFFFFFFFFFFFFF AND EQ ISZERO PUSH2 0xA61 JUMPI PUSH1 0x40 MLOAD PUSH32 0x8C379A000000000000000000000000000000000000000000000000000000000 DUP2 MSTORE PUSH1 0x4 ADD PUSH2 0xA58 SWAP1 PUSH2 0x264B JUMP JUMPDEST PUSH1 0x40 MLOAD DUP1 SWAP2 SUB SWAP1 REVERT JUMPDEST PUSH1 0x3 PUSH1 0x0 DUP6 DUP4 DUP2 MLOAD DUP2 LT PUSH2 0xA78 JUMPI PUSH2 0xA77 PUSH2 0x2BD4 JUMP JUMPDEST JUMPDEST PUSH1 0x20 MUL PUSH1 0x20 ADD ADD MLOAD DUP2 MSTORE PUSH1 0x20 ADD SWAP1 DUP2 MSTORE PUSH1 0x20 ADD PUSH1 0x0 KECCAK256 PUSH1 0x0 DUP7 DUP4 DUP2 MLOAD DUP2 LT PUSH2 0xAA3 JUMPI PUSH2 0xAA2 PUSH2 0x2BD4 JUMP JUMPDEST JUMPDEST PUSH1 0x20 MUL PUSH1 0x20 ADD ADD MLOAD PUSH20 0xFFFFFFFFFFFFFFFFFFFFFFFFFFFFFFFFFFFFFFFF AND PUSH20 0xFFFFFFFFFFFFFFFFFFFFFFFFFFFFFFFFFFFFFFFF AND DUP2 MSTORE PUSH1 0x20 ADD SWAP1 DUP2 MSTORE PUSH1 0x20 ADD PUSH1 0x0 KECCAK256 SLOAD DUP3 DUP3 DUP2 MLOAD DUP2 LT PUSH2 0xAF9 JUMPI PUSH2 0xAF8 PUSH2 0x2BD4 JUMP JUMPDEST JUMPDEST PUSH1 0x20 MUL PUSH1 0x20 ADD ADD DUP2 DUP2 MSTORE POP POP DUP1 PUSH2 0xB0F SWAP1 PUSH2 0x2ACD JUMP JUMPDEST SWAP1 POP PUSH2 0x9CE JUMP JUMPDEST POP DUP1 SWAP2 POP POP SWAP3 SWAP2 POP POP JUMP JUMPDEST PUSH1 0x0 PUSH2 0xB51 DUP3 PUSH1 0x40 MLOAD DUP1 PUSH1 0x60 ADD PUSH1 0x40 MSTORE DUP1 PUSH1 0x29 DUP2 MSTORE PUSH1 0x20 ADD PUSH2 0x315B PUSH1 0x29 SWAP2 CODECOPY PUSH1 0x7 PUSH2 0x170B SWAP1 SWAP3 SWAP2 SWAP1 PUSH4 0xFFFFFFFF AND JUMP JUMPDEST SWAP1 POP SWAP2 SWAP1 POP JUMP JUMPDEST PUSH1 0x60 PUSH1 0xA DUP1 SLOAD PUSH2 0xB67 SWAP1 PUSH2 0x2A6A JUMP JUMPDEST DUP1 PUSH1 0x1F ADD PUSH1 0x20 DUP1 SWAP2 DIV MUL PUSH1 0x20 ADD PUSH1 0x40 MLOAD SWAP1 DUP2 ADD PUSH1 0x40 MSTORE DUP1 SWAP3 SWAP2 SWAP1 DUP2 DUP2 MSTORE PUSH1 0x20 ADD DUP3 DUP1 SLOAD PUSH2 0xB93 SWAP1 PUSH2 0x2A6A JUMP JUMPDEST DUP1 ISZERO PUSH2 0xBE0 JUMPI DUP1 PUSH1 0x1F LT PUSH2 0xBB5 JUMPI PUSH2 0x100 DUP1 DUP4 SLOAD DIV MUL DUP4 MSTORE SWAP2 PUSH1 0x20 ADD SWAP2 PUSH2 0xBE0 JUMP JUMPDEST DUP3 ADD SWAP2 SWAP1 PUSH1 0x0 MSTORE PUSH1 0x20 PUSH1 0x0 KECCAK256 SWAP1 JUMPDEST DUP2 SLOAD DUP2 MSTORE SWAP1 PUSH1 0x1 ADD SWAP1 PUSH1 0x20 ADD DUP1 DUP4 GT PUSH2 0xBC3 JUMPI DUP3 SWAP1 SUB PUSH1 0x1F AND DUP3 ADD SWAP2 JUMPDEST POP POP POP POP POP SWAP1 POP SWAP1 JUMP JUMPDEST DUP2 PUSH20 0xFFFFFFFFFFFFFFFFFFFFFFFFFFFFFFFFFFFFFFFF AND PUSH2 0xC09 PUSH2 0x1452 JUMP JUMPDEST PUSH20 0xFFFFFFFFFFFFFFFFFFFFFFFFFFFFFFFFFFFFFFFF AND EQ ISZERO PUSH2 0xC60 JUMPI PUSH1 0x40 MLOAD PUSH32 0x8C379A000000000000000000000000000000000000000000000000000000000 DUP2 MSTORE PUSH1 0x4 ADD PUSH2 0xC57 SWAP1 PUSH2 0x272B JUMP JUMPDEST PUSH1 0x40 MLOAD DUP1 SWAP2 SUB SWAP1 REVERT JUMPDEST DUP1 PUSH1 0x4 PUSH1 0x0 PUSH2 0xC6D PUSH2 0x1452 JUMP JUMPDEST PUSH20 0xFFFFFFFFFFFFFFFFFFFFFFFFFFFFFFFFFFFFFFFF AND PUSH20 0xFFFFFFFFFFFFFFFFFFFFFFFFFFFFFFFFFFFFFFFF AND DUP2 MSTORE PUSH1 0x20 ADD SWAP1 DUP2 MSTORE PUSH1 0x20 ADD PUSH1 0x0 KECCAK256 PUSH1 0x0 DUP5 PUSH20 0xFFFFFFFFFFFFFFFFFFFFFFFFFFFFFFFFFFFFFFFF AND PUSH20 0xFFFFFFFFFFFFFFFFFFFFFFFFFFFFFFFFFFFFFFFF AND DUP2 MSTORE PUSH1 0x20 ADD SWAP1 DUP2 MSTORE PUSH1 0x20 ADD PUSH1 0x0 KECCAK256 PUSH1 0x0 PUSH2 0x100 EXP DUP2 SLOAD DUP2 PUSH1 0xFF MUL NOT AND SWAP1 DUP4 ISZERO ISZERO MUL OR SWAP1 SSTORE POP DUP2 PUSH20 0xFFFFFFFFFFFFFFFFFFFFFFFFFFFFFFFFFFFFFFFF AND PUSH2 0xD1A PUSH2 0x1452 JUMP JUMPDEST PUSH20 0xFFFFFFFFFFFFFFFFFFFFFFFFFFFFFFFFFFFFFFFF AND PUSH32 0x17307EAB39AB6107E8899845AD3D59BD9653F200F220920489CA2B5937696C31 DUP4 PUSH1 0x40 MLOAD PUSH2 0xD5F SWAP2 SWAP1 PUSH2 0x25AE JUMP JUMPDEST PUSH1 0x40 MLOAD DUP1 SWAP2 SUB SWAP1 LOG3 POP POP JUMP JUMPDEST PUSH1 0x5 DUP1 SLOAD PUSH2 0xD78 SWAP1 PUSH2 0x2A6A JUMP JUMPDEST DUP1 PUSH1 0x1F ADD PUSH1 0x20 DUP1 SWAP2 DIV MUL PUSH1 0x20 ADD PUSH1 0x40 MLOAD SWAP1 DUP2 ADD PUSH1 0x40 MSTORE DUP1 SWAP3 SWAP2 SWAP1 DUP2 DUP2 MSTORE PUSH1 0x20 ADD DUP3 DUP1 SLOAD PUSH2 0xDA4 SWAP1 PUSH2 0x2A6A JUMP JUMPDEST DUP1 ISZERO PUSH2 0xDF1 JUMPI DUP1 PUSH1 0x1F LT PUSH2 0xDC6 JUMPI PUSH2 0x100 DUP1 DUP4 SLOAD DIV MUL DUP4 MSTORE SWAP2 PUSH1 0x20 ADD SWAP2 PUSH2 0xDF1 JUMP JUMPDEST DUP3 ADD SWAP2 SWAP1 PUSH1 0x0 MSTORE PUSH1 0x20 PUSH1 0x0 KECCAK256 SWAP1 JUMPDEST DUP2 SLOAD DUP2 MSTORE SWAP1 PUSH1 0x1 ADD SWAP1 PUSH1 0x20 ADD DUP1 DUP4 GT PUSH2 0xDD4 JUMPI DUP3 SWAP1 SUB PUSH1 0x1F AND DUP3 ADD SWAP2 JUMPDEST POP POP POP POP POP DUP2 JUMP JUMPDEST PUSH1 0x0 PUSH1 0x2 PUSH1 0x0 DUP4 DUP2 MSTORE PUSH1 0x20 ADD SWAP1 DUP2 MSTORE PUSH1 0x20 ADD PUSH1 0x0 KECCAK256 SLOAD SWAP1 POP SWAP2 SWAP1 POP JUMP JUMPDEST PUSH1 0x60 PUSH2 0xE21 DUP3 PUSH2 0x1420 JUMP JUMPDEST PUSH2 0xE60 JUMPI PUSH1 0x40 MLOAD PUSH32 0x8C379A000000000000000000000000000000000000000000000000000000000 DUP2 MSTORE PUSH1 0x4 ADD PUSH2 0xE57 SWAP1 PUSH2 0x270B JUMP JUMPDEST PUSH1 0x40 MLOAD DUP1 SWAP2 SUB SWAP1 REVERT JUMPDEST PUSH1 0x0 PUSH1 0x6 PUSH1 0x0 DUP5 DUP2 MSTORE PUSH1 0x20 ADD SWAP1 DUP2 MSTORE PUSH1 0x20 ADD PUSH1 0x0 KECCAK256 DUP1 SLOAD PUSH2 0xE80 SWAP1 PUSH2 0x2A6A JUMP JUMPDEST DUP1 PUSH1 0x1F ADD PUSH1 0x20 DUP1 SWAP2 DIV MUL PUSH1 0x20 ADD PUSH1 0x40 MLOAD SWAP1 DUP2 ADD PUSH1 0x40 MSTORE DUP1 SWAP3 SWAP2 SWAP1 DUP2 DUP2 MSTORE PUSH1 0x20 ADD DUP3 DUP1 SLOAD PUSH2 0xEAC SWAP1 PUSH2 0x2A6A JUMP JUMPDEST DUP1 ISZERO PUSH2 0xEF9 JUMPI DUP1 PUSH1 0x1F LT PUSH2 0xECE JUMPI PUSH2 0x100 DUP1 DUP4 SLOAD DIV MUL DUP4 MSTORE SWAP2 PUSH1 0x20 ADD SWAP2 PUSH2 0xEF9 JUMP JUMPDEST DUP3 ADD SWAP2 SWAP1 PUSH1 0x0 MSTORE PUSH1 0x20 PUSH1 0x0 KECCAK256 SWAP1 JUMPDEST DUP2 SLOAD DUP2 MSTORE SWAP1 PUSH1 0x1 ADD SWAP1 PUSH1 0x20 ADD DUP1 DUP4 GT PUSH2 0xEDC JUMPI DUP3 SWAP1 SUB PUSH1 0x1F AND DUP3 ADD SWAP2 JUMPDEST POP POP POP POP POP SWAP1 POP PUSH1 0x0 PUSH1 0x5 DUP1 SLOAD PUSH2 0xF0F SWAP1 PUSH2 0x2A6A JUMP JUMPDEST DUP1 PUSH1 0x1F ADD PUSH1 0x20 DUP1 SWAP2 DIV MUL PUSH1 0x20 ADD PUSH1 0x40 MLOAD SWAP1 DUP2 ADD PUSH1 0x40 MSTORE DUP1 SWAP3 SWAP2 SWAP1 DUP2 DUP2 MSTORE PUSH1 0x20 ADD DUP3 DUP1 SLOAD PUSH2 0xF3B SWAP1 PUSH2 0x2A6A JUMP JUMPDEST DUP1 ISZERO PUSH2 0xF88 JUMPI DUP1 PUSH1 0x1F LT PUSH2 0xF5D JUMPI PUSH2 0x100 DUP1 DUP4 SLOAD DIV MUL DUP4 MSTORE SWAP2 PUSH1 0x20 ADD SWAP2 PUSH2 0xF88 JUMP JUMPDEST DUP3 ADD SWAP2 SWAP1 PUSH1 0x0 MSTORE PUSH1 0x20 PUSH1 0x0 KECCAK256 SWAP1 JUMPDEST DUP2 SLOAD DUP2 MSTORE SWAP1 PUSH1 0x1 ADD SWAP1 PUSH1 0x20 ADD DUP1 DUP4 GT PUSH2 0xF6B JUMPI DUP3 SWAP1 SUB PUSH1 0x1F AND DUP3 ADD SWAP2 JUMPDEST POP POP POP POP POP SWAP1 POP PUSH1 0x0 DUP2 MLOAD EQ ISZERO PUSH2 0xFA3 JUMPI DUP2 SWAP3 POP POP POP PUSH2 0x1007 JUMP JUMPDEST PUSH1 0x0 DUP3 MLOAD GT ISZERO PUSH2 0xFD8 JUMPI DUP1 DUP3 PUSH1 0x40 MLOAD PUSH1 0x20 ADD PUSH2 0xFC0 SWAP3 SWAP2 SWAP1 PUSH2 0x2454 JUMP JUMPDEST PUSH1 0x40 MLOAD PUSH1 0x20 DUP2 DUP4 SUB SUB DUP2 MSTORE SWAP1 PUSH1 0x40 MSTORE SWAP3 POP POP POP PUSH2 0x1007 JUMP JUMPDEST DUP1 PUSH2 0xFE2 DUP6 PUSH2 0x172A JUMP JUMPDEST PUSH1 0x40 MLOAD PUSH1 0x20 ADD PUSH2 0xFF3 SWAP3 SWAP2 SWAP1 PUSH2 0x2454 JUMP JUMPDEST PUSH1 0x40 MLOAD PUSH1 0x20 DUP2 DUP4 SUB SUB DUP2 MSTORE SWAP1 PUSH1 0x40 MSTORE SWAP3 POP POP POP JUMPDEST SWAP2 SWAP1 POP JUMP JUMPDEST PUSH1 0x0 PUSH1 0x1 PUSH1 0x0 DUP4 DUP2 MSTORE PUSH1 0x20 ADD SWAP1 DUP2 MSTORE PUSH1 0x20 ADD PUSH1 0x0 KECCAK256 PUSH1 0x0 SWAP1 SLOAD SWAP1 PUSH2 0x100 EXP SWAP1 DIV PUSH20 0xFFFFFFFFFFFFFFFFFFFFFFFFFFFFFFFFFFFFFFFF AND SWAP1 POP SWAP2 SWAP1 POP JUMP JUMPDEST PUSH1 0x0 PUSH1 0x4 PUSH1 0x0 DUP5 PUSH20 0xFFFFFFFFFFFFFFFFFFFFFFFFFFFFFFFFFFFFFFFF AND PUSH20 0xFFFFFFFFFFFFFFFFFFFFFFFFFFFFFFFFFFFFFFFF AND DUP2 MSTORE PUSH1 0x20 ADD SWAP1 DUP2 MSTORE PUSH1 0x20 ADD PUSH1 0x0 KECCAK256 PUSH1 0x0 DUP4 PUSH20 0xFFFFFFFFFFFFFFFFFFFFFFFFFFFFFFFFFFFFFFFF AND PUSH20 0xFFFFFFFFFFFFFFFFFFFFFFFFFFFFFFFFFFFFFFFF AND DUP2 MSTORE PUSH1 0x20 ADD SWAP1 DUP2 MSTORE PUSH1 0x20 ADD PUSH1 0x0 KECCAK256 PUSH1 0x0 SWAP1 SLOAD SWAP1 PUSH2 0x100 EXP SWAP1 DIV PUSH1 0xFF AND SWAP1 POP SWAP3 SWAP2 POP POP JUMP JUMPDEST PUSH1 0x0 PUSH20 0xFFFFFFFFFFFFFFFFFFFFFFFFFFFFFFFFFFFFFFFF AND DUP5 PUSH20 0xFFFFFFFFFFFFFFFFFFFFFFFFFFFFFFFFFFFFFFFF AND EQ ISZERO PUSH2 0x114D JUMPI PUSH1 0x40 MLOAD PUSH32 0x8C379A000000000000000000000000000000000000000000000000000000000 DUP2 MSTORE PUSH1 0x4 ADD PUSH2 0x1144 SWAP1 PUSH2 0x26AB JUMP JUMPDEST PUSH1 0x40 MLOAD DUP1 SWAP2 SUB SWAP1 REVERT JUMPDEST PUSH2 0x1155 PUSH2 0x1452 JUMP JUMPDEST PUSH20 0xFFFFFFFFFFFFFFFFFFFFFFFFFFFFFFFFFFFFFFFF AND DUP6 PUSH20 0xFFFFFFFFFFFFFFFFFFFFFFFFFFFFFFFFFFFFFFFF AND EQ DUP1 PUSH2 0x119B JUMPI POP PUSH2 0x119A DUP6 PUSH2 0x1195 PUSH2 0x1452 JUMP JUMPDEST PUSH2 0x1049 JUMP JUMPDEST JUMPDEST PUSH2 0x11DA JUMPI PUSH1 0x40 MLOAD PUSH32 0x8C379A000000000000000000000000000000000000000000000000000000000 DUP2 MSTORE PUSH1 0x4 ADD PUSH2 0x11D1 SWAP1 PUSH2 0x268B JUMP JUMPDEST PUSH1 0x40 MLOAD DUP1 SWAP2 SUB SWAP1 REVERT JUMPDEST PUSH1 0x0 PUSH2 0x11E4 PUSH2 0x1452 JUMP JUMPDEST SWAP1 POP PUSH2 0x1204 DUP2 DUP8 DUP8 PUSH2 0x11F5 DUP9 PUSH2 0x188B JUMP JUMPDEST PUSH2 0x11FE DUP9 PUSH2 0x188B JUMP JUMPDEST DUP8 PUSH2 0x145A JUMP JUMPDEST PUSH2 0x1281 DUP4 PUSH1 0x40 MLOAD DUP1 PUSH1 0x60 ADD PUSH1 0x40 MSTORE DUP1 PUSH1 0x2A DUP2 MSTORE PUSH1 0x20 ADD PUSH2 0x3184 PUSH1 0x2A SWAP2 CODECOPY PUSH1 0x3 PUSH1 0x0 DUP9 DUP2 MSTORE PUSH1 0x20 ADD SWAP1 DUP2 MSTORE PUSH1 0x20 ADD PUSH1 0x0 KECCAK256 PUSH1 0x0 DUP11 PUSH20 0xFFFFFFFFFFFFFFFFFFFFFFFFFFFFFFFFFFFFFFFF AND PUSH20 0xFFFFFFFFFFFFFFFFFFFFFFFFFFFFFFFFFFFFFFFF AND DUP2 MSTORE PUSH1 0x20 ADD SWAP1 DUP2 MSTORE PUSH1 0x20 ADD PUSH1 0x0 KECCAK256 SLOAD PUSH2 0x1462 SWAP1 SWAP3 SWAP2 SWAP1 PUSH4 0xFFFFFFFF AND JUMP JUMPDEST PUSH1 0x3 PUSH1 0x0 DUP7 DUP2 MSTORE PUSH1 0x20 ADD SWAP1 DUP2 MSTORE PUSH1 0x20 ADD PUSH1 0x0 KECCAK256 PUSH1 0x0 DUP9 PUSH20 0xFFFFFFFFFFFFFFFFFFFFFFFFFFFFFFFFFFFFFFFF AND PUSH20 0xFFFFFFFFFFFFFFFFFFFFFFFFFFFFFFFFFFFFFFFF AND DUP2 MSTORE PUSH1 0x20 ADD SWAP1 DUP2 MSTORE PUSH1 0x20 ADD PUSH1 0x0 KECCAK256 DUP2 SWAP1 SSTORE POP PUSH2 0x1338 DUP4 PUSH1 0x3 PUSH1 0x0 DUP8 DUP2 MSTORE PUSH1 0x20 ADD SWAP1 DUP2 MSTORE PUSH1 0x20 ADD PUSH1 0x0 KECCAK256 PUSH1 0x0 DUP9 PUSH20 0xFFFFFFFFFFFFFFFFFFFFFFFFFFFFFFFFFFFFFFFF AND PUSH20 0xFFFFFFFFFFFFFFFFFFFFFFFFFFFFFFFFFFFFFFFF AND DUP2 MSTORE PUSH1 0x20 ADD SWAP1 DUP2 MSTORE PUSH1 0x20 ADD PUSH1 0x0 KECCAK256 SLOAD PUSH2 0x14C6 SWAP1 SWAP2 SWAP1 PUSH4 0xFFFFFFFF AND JUMP JUMPDEST PUSH1 0x3 PUSH1 0x0 DUP7 DUP2 MSTORE PUSH1 0x20 ADD SWAP1 DUP2 MSTORE PUSH1 0x20 ADD PUSH1 0x0 KECCAK256 PUSH1 0x0 DUP8 PUSH20 0xFFFFFFFFFFFFFFFFFFFFFFFFFFFFFFFFFFFFFFFF AND PUSH20 0xFFFFFFFFFFFFFFFFFFFFFFFFFFFFFFFFFFFFFFFF AND DUP2 MSTORE PUSH1 0x20 ADD SWAP1 DUP2 MSTORE PUSH1 0x20 ADD PUSH1 0x0 KECCAK256 DUP2 SWAP1 SSTORE POP DUP5 PUSH20 0xFFFFFFFFFFFFFFFFFFFFFFFFFFFFFFFFFFFFFFFF AND DUP7 PUSH20 0xFFFFFFFFFFFFFFFFFFFFFFFFFFFFFFFFFFFFFFFF AND DUP3 PUSH20 0xFFFFFFFFFFFFFFFFFFFFFFFFFFFFFFFFFFFFFFFF AND PUSH32 0xC3D58168C5AE7397731D063D5BBF3D657854427343F4C083240F7AACAA2D0F62 DUP8 DUP8 PUSH1 0x40 MLOAD PUSH2 0x1402 SWAP3 SWAP2 SWAP1 PUSH2 0x27A6 JUMP JUMPDEST PUSH1 0x40 MLOAD DUP1 SWAP2 SUB SWAP1 LOG4 PUSH2 0x1418 DUP2 DUP8 DUP8 DUP8 DUP8 DUP8 PUSH2 0x1905 JUMP JUMPDEST POP POP POP POP POP POP JUMP JUMPDEST PUSH1 0x0 PUSH2 0x1436 DUP3 PUSH1 0x7 PUSH2 0x1AEC SWAP1 SWAP2 SWAP1 PUSH4 0xFFFFFFFF AND JUMP JUMPDEST SWAP1 POP SWAP2 SWAP1 POP JUMP JUMPDEST PUSH1 0x0 PUSH2 0x144B DUP3 PUSH1 0x0 ADD PUSH2 0x1B06 JUMP JUMPDEST SWAP1 POP SWAP2 SWAP1 POP JUMP JUMPDEST PUSH1 0x0 CALLER SWAP1 POP SWAP1 JUMP JUMPDEST POP POP POP POP POP POP JUMP JUMPDEST PUSH1 0x0 DUP4 DUP4 GT ISZERO DUP3 SWAP1 PUSH2 0x14AA JUMPI PUSH1 0x40 MLOAD PUSH32 0x8C379A000000000000000000000000000000000000000000000000000000000 DUP2 MSTORE PUSH1 0x4 ADD PUSH2 0x14A1 SWAP2 SWAP1 PUSH2 0x25C9 JUMP JUMPDEST PUSH1 0x40 MLOAD DUP1 SWAP2 SUB SWAP1 REVERT JUMPDEST POP PUSH1 0x0 DUP4 DUP6 PUSH2 0x14B9 SWAP2 SWAP1 PUSH2 0x2980 JUMP JUMPDEST SWAP1 POP DUP1 SWAP2 POP POP SWAP4 SWAP3 POP POP POP JUMP JUMPDEST PUSH1 0x0 DUP1 DUP3 DUP5 PUSH2 0x14D5 SWAP2 SWAP1 PUSH2 0x28F9 JUMP JUMPDEST SWAP1 POP DUP4 DUP2 LT ISZERO PUSH2 0x151A JUMPI PUSH1 0x40 MLOAD PUSH32 0x8C379A000000000000000000000000000000000000000000000000000000000 DUP2 MSTORE PUSH1 0x4 ADD PUSH2 0x1511 SWAP1 PUSH2 0x266B JUMP JUMPDEST PUSH1 0x40 MLOAD DUP1 SWAP2 SUB SWAP1 REVERT JUMPDEST DUP1 SWAP2 POP POP SWAP3 SWAP2 POP POP JUMP JUMPDEST PUSH2 0x1543 DUP5 PUSH20 0xFFFFFFFFFFFFFFFFFFFFFFFFFFFFFFFFFFFFFFFF AND PUSH2 0x1B17 JUMP JUMPDEST ISZERO PUSH2 0x1703 JUMPI DUP4 PUSH20 0xFFFFFFFFFFFFFFFFFFFFFFFFFFFFFFFFFFFFFFFF AND PUSH4 0xBC197C81 DUP8 DUP8 DUP7 DUP7 DUP7 PUSH1 0x40 MLOAD DUP7 PUSH4 0xFFFFFFFF AND PUSH1 0xE0 SHL DUP2 MSTORE PUSH1 0x4 ADD PUSH2 0x1589 SWAP6 SWAP5 SWAP4 SWAP3 SWAP2 SWAP1 PUSH2 0x2493 JUMP JUMPDEST PUSH1 0x20 PUSH1 0x40 MLOAD DUP1 DUP4 SUB DUP2 PUSH1 0x0 DUP8 DUP1 EXTCODESIZE ISZERO DUP1 ISZERO PUSH2 0x15A3 JUMPI PUSH1 0x0 DUP1 REVERT JUMPDEST POP GAS CALL SWAP3 POP POP POP DUP1 ISZERO PUSH2 0x15D4 JUMPI POP PUSH1 0x40 MLOAD RETURNDATASIZE PUSH1 0x1F NOT PUSH1 0x1F DUP3 ADD AND DUP3 ADD DUP1 PUSH1 0x40 MSTORE POP DUP2 ADD SWAP1 PUSH2 0x15D1 SWAP2 SWAP1 PUSH2 0x20DE JUMP JUMPDEST PUSH1 0x1 JUMPDEST PUSH2 0x167A JUMPI PUSH2 0x15E0 PUSH2 0x2C32 JUMP JUMPDEST DUP1 PUSH4 0x8C379A0 EQ ISZERO PUSH2 0x163D JUMPI POP PUSH2 0x15F5 PUSH2 0x3068 JUMP JUMPDEST DUP1 PUSH2 0x1600 JUMPI POP PUSH2 0x163F JUMP JUMPDEST DUP1 PUSH1 0x40 MLOAD PUSH32 0x8C379A000000000000000000000000000000000000000000000000000000000 DUP2 MSTORE PUSH1 0x4 ADD PUSH2 0x1634 SWAP2 SWAP1 PUSH2 0x25C9 JUMP JUMPDEST PUSH1 0x40 MLOAD DUP1 SWAP2 SUB SWAP1 REVERT JUMPDEST POP JUMPDEST PUSH1 0x40 MLOAD PUSH32 0x8C379A000000000000000000000000000000000000000000000000000000000 DUP2 MSTORE PUSH1 0x4 ADD PUSH2 0x1671 SWAP1 PUSH2 0x25EB JUMP JUMPDEST PUSH1 0x40 MLOAD DUP1 SWAP2 SUB SWAP1 REVERT JUMPDEST PUSH4 0xBC197C81 PUSH1 0xE0 SHL PUSH28 0xFFFFFFFFFFFFFFFFFFFFFFFFFFFFFFFFFFFFFFFFFFFFFFFFFFFFFFFF NOT AND DUP2 PUSH28 0xFFFFFFFFFFFFFFFFFFFFFFFFFFFFFFFFFFFFFFFFFFFFFFFFFFFFFFFF NOT AND EQ PUSH2 0x1701 JUMPI PUSH1 0x40 MLOAD PUSH32 0x8C379A000000000000000000000000000000000000000000000000000000000 DUP2 MSTORE PUSH1 0x4 ADD PUSH2 0x16F8 SWAP1 PUSH2 0x260B JUMP JUMPDEST PUSH1 0x40 MLOAD DUP1 SWAP2 SUB SWAP1 REVERT JUMPDEST POP JUMPDEST POP POP POP POP POP POP JUMP JUMPDEST PUSH1 0x0 PUSH2 0x171E DUP5 PUSH1 0x0 ADD DUP5 PUSH1 0x0 SHL DUP5 PUSH2 0x1B3A JUMP JUMPDEST PUSH1 0x0 SHR SWAP1 POP SWAP4 SWAP3 POP POP POP JUMP JUMPDEST PUSH1 0x60 PUSH1 0x0 DUP3 EQ ISZERO PUSH2 0x1772 JUMPI PUSH1 0x40 MLOAD DUP1 PUSH1 0x40 ADD PUSH1 0x40 MSTORE DUP1 PUSH1 0x1 DUP2 MSTORE PUSH1 0x20 ADD PUSH32 0x3000000000000000000000000000000000000000000000000000000000000000 DUP2 MSTORE POP SWAP1 POP PUSH2 0x1886 JUMP JUMPDEST PUSH1 0x0 DUP3 SWAP1 POP PUSH1 0x0 JUMPDEST PUSH1 0x0 DUP3 EQ PUSH2 0x17A4 JUMPI DUP1 DUP1 PUSH2 0x178D SWAP1 PUSH2 0x2ACD JUMP JUMPDEST SWAP2 POP POP PUSH1 0xA DUP3 PUSH2 0x179D SWAP2 SWAP1 PUSH2 0x294F JUMP JUMPDEST SWAP2 POP PUSH2 0x177A JUMP JUMPDEST PUSH1 0x0 DUP2 PUSH8 0xFFFFFFFFFFFFFFFF DUP2 GT ISZERO PUSH2 0x17C0 JUMPI PUSH2 0x17BF PUSH2 0x2C03 JUMP JUMPDEST JUMPDEST PUSH1 0x40 MLOAD SWAP1 DUP1 DUP3 MSTORE DUP1 PUSH1 0x1F ADD PUSH1 0x1F NOT AND PUSH1 0x20 ADD DUP3 ADD PUSH1 0x40 MSTORE DUP1 ISZERO PUSH2 0x17F2 JUMPI DUP2 PUSH1 0x20 ADD PUSH1 0x1 DUP3 MUL DUP1 CALLDATASIZE DUP4 CALLDATACOPY DUP1 DUP3 ADD SWAP2 POP POP SWAP1 POP JUMPDEST POP SWAP1 POP JUMPDEST PUSH1 0x0 DUP6 EQ PUSH2 0x187F JUMPI PUSH1 0x1 DUP3 PUSH2 0x180B SWAP2 SWAP1 PUSH2 0x2980 JUMP JUMPDEST SWAP2 POP PUSH1 0xA DUP6 PUSH2 0x181A SWAP2 SWAP1 PUSH2 0x2B16 JUMP JUMPDEST PUSH1 0x30 PUSH2 0x1826 SWAP2 SWAP1 PUSH2 0x28F9 JUMP JUMPDEST PUSH1 0xF8 SHL DUP2 DUP4 DUP2 MLOAD DUP2 LT PUSH2 0x183C JUMPI PUSH2 0x183B PUSH2 0x2BD4 JUMP JUMPDEST JUMPDEST PUSH1 0x20 ADD ADD SWAP1 PUSH31 0xFFFFFFFFFFFFFFFFFFFFFFFFFFFFFFFFFFFFFFFFFFFFFFFFFFFFFFFFFFFFFF NOT AND SWAP1 DUP2 PUSH1 0x0 BYTE SWAP1 MSTORE8 POP PUSH1 0xA DUP6 PUSH2 0x1878 SWAP2 SWAP1 PUSH2 0x294F JUMP JUMPDEST SWAP5 POP PUSH2 0x17F6 JUMP JUMPDEST DUP1 SWAP4 POP POP POP POP JUMPDEST SWAP2 SWAP1 POP JUMP JUMPDEST PUSH1 0x60 PUSH1 0x0 PUSH1 0x1 PUSH8 0xFFFFFFFFFFFFFFFF DUP2 GT ISZERO PUSH2 0x18AA JUMPI PUSH2 0x18A9 PUSH2 0x2C03 JUMP JUMPDEST JUMPDEST PUSH1 0x40 MLOAD SWAP1 DUP1 DUP3 MSTORE DUP1 PUSH1 0x20 MUL PUSH1 0x20 ADD DUP3 ADD PUSH1 0x40 MSTORE DUP1 ISZERO PUSH2 0x18D8 JUMPI DUP2 PUSH1 0x20 ADD PUSH1 0x20 DUP3 MUL DUP1 CALLDATASIZE DUP4 CALLDATACOPY DUP1 DUP3 ADD SWAP2 POP POP SWAP1 POP JUMPDEST POP SWAP1 POP DUP3 DUP2 PUSH1 0x0 DUP2 MLOAD DUP2 LT PUSH2 0x18F0 JUMPI PUSH2 0x18EF PUSH2 0x2BD4 JUMP JUMPDEST JUMPDEST PUSH1 0x20 MUL PUSH1 0x20 ADD ADD DUP2 DUP2 MSTORE POP POP DUP1 SWAP2 POP POP SWAP2 SWAP1 POP JUMP JUMPDEST PUSH2 0x1924 DUP5 PUSH20 0xFFFFFFFFFFFFFFFFFFFFFFFFFFFFFFFFFFFFFFFF AND PUSH2 0x1B17 JUMP JUMPDEST ISZERO PUSH2 0x1AE4 JUMPI DUP4 PUSH20 0xFFFFFFFFFFFFFFFFFFFFFFFFFFFFFFFFFFFFFFFF AND PUSH4 0xF23A6E61 DUP8 DUP8 DUP7 DUP7 DUP7 PUSH1 0x40 MLOAD DUP7 PUSH4 0xFFFFFFFF AND PUSH1 0xE0 SHL DUP2 MSTORE PUSH1 0x4 ADD PUSH2 0x196A SWAP6 SWAP5 SWAP4 SWAP3 SWAP2 SWAP1 PUSH2 0x24FB JUMP JUMPDEST PUSH1 0x20 PUSH1 0x40 MLOAD DUP1 DUP4 SUB DUP2 PUSH1 0x0 DUP8 DUP1 EXTCODESIZE ISZERO DUP1 ISZERO PUSH2 0x1984 JUMPI PUSH1 0x0 DUP1 REVERT JUMPDEST POP GAS CALL SWAP3 POP POP POP DUP1 ISZERO PUSH2 0x19B5 JUMPI POP PUSH1 0x40 MLOAD RETURNDATASIZE PUSH1 0x1F NOT PUSH1 0x1F DUP3 ADD AND DUP3 ADD DUP1 PUSH1 0x40 MSTORE POP DUP2 ADD SWAP1 PUSH2 0x19B2 SWAP2 SWAP1 PUSH2 0x20DE JUMP JUMPDEST PUSH1 0x1 JUMPDEST PUSH2 0x1A5B JUMPI PUSH2 0x19C1 PUSH2 0x2C32 JUMP JUMPDEST DUP1 PUSH4 0x8C379A0 EQ ISZERO PUSH2 0x1A1E JUMPI POP PUSH2 0x19D6 PUSH2 0x3068 JUMP JUMPDEST DUP1 PUSH2 0x19E1 JUMPI POP PUSH2 0x1A20 JUMP JUMPDEST DUP1 PUSH1 0x40 MLOAD PUSH32 0x8C379A000000000000000000000000000000000000000000000000000000000 DUP2 MSTORE PUSH1 0x4 ADD PUSH2 0x1A15 SWAP2 SWAP1 PUSH2 0x25C9 JUMP JUMPDEST PUSH1 0x40 MLOAD DUP1 SWAP2 SUB SWAP1 REVERT JUMPDEST POP JUMPDEST PUSH1 0x40 MLOAD PUSH32 0x8C379A000000000000000000000000000000000000000000000000000000000 DUP2 MSTORE PUSH1 0x4 ADD PUSH2 0x1A52 SWAP1 PUSH2 0x25EB JUMP JUMPDEST PUSH1 0x40 MLOAD DUP1 SWAP2 SUB SWAP1 REVERT JUMPDEST PUSH4 0xF23A6E61 PUSH1 0xE0 SHL PUSH28 0xFFFFFFFFFFFFFFFFFFFFFFFFFFFFFFFFFFFFFFFFFFFFFFFFFFFFFFFF NOT AND DUP2 PUSH28 0xFFFFFFFFFFFFFFFFFFFFFFFFFFFFFFFFFFFFFFFFFFFFFFFFFFFFFFFF NOT AND EQ PUSH2 0x1AE2 JUMPI PUSH1 0x40 MLOAD PUSH32 0x8C379A000000000000000000000000000000000000000000000000000000000 DUP2 MSTORE PUSH1 0x4 ADD PUSH2 0x1AD9 SWAP1 PUSH2 0x260B JUMP JUMPDEST PUSH1 0x40 MLOAD DUP1 SWAP2 SUB SWAP1 REVERT JUMPDEST POP JUMPDEST POP POP POP POP POP POP JUMP JUMPDEST PUSH1 0x0 PUSH2 0x1AFE DUP4 PUSH1 0x0 ADD DUP4 PUSH1 0x0 SHL PUSH2 0x1BDB JUMP JUMPDEST SWAP1 POP SWAP3 SWAP2 POP POP JUMP JUMPDEST PUSH1 0x0 DUP2 PUSH1 0x0 ADD DUP1 SLOAD SWAP1 POP SWAP1 POP SWAP2 SWAP1 POP JUMP JUMPDEST PUSH1 0x0 DUP1 DUP3 PUSH20 0xFFFFFFFFFFFFFFFFFFFFFFFFFFFFFFFFFFFFFFFF AND EXTCODESIZE GT SWAP1 POP SWAP2 SWAP1 POP JUMP JUMPDEST PUSH1 0x0 DUP1 DUP5 PUSH1 0x1 ADD PUSH1 0x0 DUP6 DUP2 MSTORE PUSH1 0x20 ADD SWAP1 DUP2 MSTORE PUSH1 0x20 ADD PUSH1 0x0 KECCAK256 SLOAD SWAP1 POP PUSH1 0x0 DUP2 EQ ISZERO DUP4 SWAP1 PUSH2 0x1B9C JUMPI PUSH1 0x40 MLOAD PUSH32 0x8C379A000000000000000000000000000000000000000000000000000000000 DUP2 MSTORE PUSH1 0x4 ADD PUSH2 0x1B93 SWAP2 SWAP1 PUSH2 0x25C9 JUMP JUMPDEST PUSH1 0x40 MLOAD DUP1 SWAP2 SUB SWAP1 REVERT JUMPDEST POP DUP5 PUSH1 0x0 ADD PUSH1 0x1 DUP3 PUSH2 0x1BAE SWAP2 SWAP1 PUSH2 0x2980 JUMP JUMPDEST DUP2 SLOAD DUP2 LT PUSH2 0x1BBF JUMPI PUSH2 0x1BBE PUSH2 0x2BD4 JUMP JUMPDEST JUMPDEST SWAP1 PUSH1 0x0 MSTORE PUSH1 0x20 PUSH1 0x0 KECCAK256 SWAP1 PUSH1 0x2 MUL ADD PUSH1 0x1 ADD SLOAD SWAP2 POP POP SWAP4 SWAP3 POP POP POP JUMP JUMPDEST PUSH1 0x0 DUP1 DUP4 PUSH1 0x1 ADD PUSH1 0x0 DUP5 DUP2 MSTORE PUSH1 0x20 ADD SWAP1 DUP2 MSTORE PUSH1 0x20 ADD PUSH1 0x0 KECCAK256 SLOAD EQ ISZERO SWAP1 POP SWAP3 SWAP2 POP POP JUMP JUMPDEST PUSH1 0x0 PUSH2 0x1C11 PUSH2 0x1C0C DUP5 PUSH2 0x27F4 JUMP JUMPDEST PUSH2 0x27CF JUMP JUMPDEST SWAP1 POP DUP1 DUP4 DUP3 MSTORE PUSH1 0x20 DUP3 ADD SWAP1 POP DUP3 DUP6 PUSH1 0x20 DUP7 MUL DUP3 ADD GT ISZERO PUSH2 0x1C34 JUMPI PUSH2 0x1C33 PUSH2 0x2C59 JUMP JUMPDEST JUMPDEST PUSH1 0x0 JUMPDEST DUP6 DUP2 LT ISZERO PUSH2 0x1C64 JUMPI DUP2 PUSH2 0x1C4A DUP9 DUP3 PUSH2 0x1D20 JUMP JUMPDEST DUP5 MSTORE PUSH1 0x20 DUP5 ADD SWAP4 POP PUSH1 0x20 DUP4 ADD SWAP3 POP POP PUSH1 0x1 DUP2 ADD SWAP1 POP PUSH2 0x1C37 JUMP JUMPDEST POP POP POP SWAP4 SWAP3 POP POP POP JUMP JUMPDEST PUSH1 0x0 PUSH2 0x1C81 PUSH2 0x1C7C DUP5 PUSH2 0x2820 JUMP JUMPDEST PUSH2 0x27CF JUMP JUMPDEST SWAP1 POP DUP1 DUP4 DUP3 MSTORE PUSH1 0x20 DUP3 ADD SWAP1 POP DUP3 DUP6 PUSH1 0x20 DUP7 MUL DUP3 ADD GT ISZERO PUSH2 0x1CA4 JUMPI PUSH2 0x1CA3 PUSH2 0x2C59 JUMP JUMPDEST JUMPDEST PUSH1 0x0 JUMPDEST DUP6 DUP2 LT ISZERO PUSH2 0x1CD4 JUMPI DUP2 PUSH2 0x1CBA DUP9 DUP3 PUSH2 0x1DFE JUMP JUMPDEST DUP5 MSTORE PUSH1 0x20 DUP5 ADD SWAP4 POP PUSH1 0x20 DUP4 ADD SWAP3 POP POP PUSH1 0x1 DUP2 ADD SWAP1 POP PUSH2 0x1CA7 JUMP JUMPDEST POP POP POP SWAP4 SWAP3 POP POP POP JUMP JUMPDEST PUSH1 0x0 PUSH2 0x1CF1 PUSH2 0x1CEC DUP5 PUSH2 0x284C JUMP JUMPDEST PUSH2 0x27CF JUMP JUMPDEST SWAP1 POP DUP3 DUP2 MSTORE PUSH1 0x20 DUP2 ADD DUP5 DUP5 DUP5 ADD GT ISZERO PUSH2 0x1D0D JUMPI PUSH2 0x1D0C PUSH2 0x2C5E JUMP JUMPDEST JUMPDEST PUSH2 0x1D18 DUP5 DUP3 DUP6 PUSH2 0x2A28 JUMP JUMPDEST POP SWAP4 SWAP3 POP POP POP JUMP JUMPDEST PUSH1 0x0 DUP2 CALLDATALOAD SWAP1 POP PUSH2 0x1D2F DUP2 PUSH2 0x30FE JUMP JUMPDEST SWAP3 SWAP2 POP POP JUMP JUMPDEST PUSH1 0x0 DUP3 PUSH1 0x1F DUP4 ADD SLT PUSH2 0x1D4A JUMPI PUSH2 0x1D49 PUSH2 0x2C54 JUMP JUMPDEST JUMPDEST DUP2 CALLDATALOAD PUSH2 0x1D5A DUP5 DUP3 PUSH1 0x20 DUP7 ADD PUSH2 0x1BFE JUMP JUMPDEST SWAP2 POP POP SWAP3 SWAP2 POP POP JUMP JUMPDEST PUSH1 0x0 DUP3 PUSH1 0x1F DUP4 ADD SLT PUSH2 0x1D78 JUMPI PUSH2 0x1D77 PUSH2 0x2C54 JUMP JUMPDEST JUMPDEST DUP2 CALLDATALOAD PUSH2 0x1D88 DUP5 DUP3 PUSH1 0x20 DUP7 ADD PUSH2 0x1C6E JUMP JUMPDEST SWAP2 POP POP SWAP3 SWAP2 POP POP JUMP JUMPDEST PUSH1 0x0 DUP2 CALLDATALOAD SWAP1 POP PUSH2 0x1DA0 DUP2 PUSH2 0x3115 JUMP JUMPDEST SWAP3 SWAP2 POP POP JUMP JUMPDEST PUSH1 0x0 DUP2 CALLDATALOAD SWAP1 POP PUSH2 0x1DB5 DUP2 PUSH2 0x312C JUMP JUMPDEST SWAP3 SWAP2 POP POP JUMP JUMPDEST PUSH1 0x0 DUP2 MLOAD SWAP1 POP PUSH2 0x1DCA DUP2 PUSH2 0x312C JUMP JUMPDEST SWAP3 SWAP2 POP POP JUMP JUMPDEST PUSH1 0x0 DUP3 PUSH1 0x1F DUP4 ADD SLT PUSH2 0x1DE5 JUMPI PUSH2 0x1DE4 PUSH2 0x2C54 JUMP JUMPDEST JUMPDEST DUP2 CALLDATALOAD PUSH2 0x1DF5 DUP5 DUP3 PUSH1 0x20 DUP7 ADD PUSH2 0x1CDE JUMP JUMPDEST SWAP2 POP POP SWAP3 SWAP2 POP POP JUMP JUMPDEST PUSH1 0x0 DUP2 CALLDATALOAD SWAP1 POP PUSH2 0x1E0D DUP2 PUSH2 0x3143 JUMP JUMPDEST SWAP3 SWAP2 POP POP JUMP JUMPDEST PUSH1 0x0 DUP1 PUSH1 0x40 DUP4 DUP6 SUB SLT ISZERO PUSH2 0x1E2A JUMPI PUSH2 0x1E29 PUSH2 0x2C68 JUMP JUMPDEST JUMPDEST PUSH1 0x0 PUSH2 0x1E38 DUP6 DUP3 DUP7 ADD PUSH2 0x1D20 JUMP JUMPDEST SWAP3 POP POP PUSH1 0x20 PUSH2 0x1E49 DUP6 DUP3 DUP7 ADD PUSH2 0x1D20 JUMP JUMPDEST SWAP2 POP POP SWAP3 POP SWAP3 SWAP1 POP JUMP JUMPDEST PUSH1 0x0 DUP1 PUSH1 0x0 DUP1 PUSH1 0x0 PUSH1 0xA0 DUP7 DUP9 SUB SLT ISZERO PUSH2 0x1E6F JUMPI PUSH2 0x1E6E PUSH2 0x2C68 JUMP JUMPDEST JUMPDEST PUSH1 0x0 PUSH2 0x1E7D DUP9 DUP3 DUP10 ADD PUSH2 0x1D20 JUMP JUMPDEST SWAP6 POP POP PUSH1 0x20 PUSH2 0x1E8E DUP9 DUP3 DUP10 ADD PUSH2 0x1D20 JUMP JUMPDEST SWAP5 POP POP PUSH1 0x40 DUP7 ADD CALLDATALOAD PUSH8 0xFFFFFFFFFFFFFFFF DUP2 GT ISZERO PUSH2 0x1EAF JUMPI PUSH2 0x1EAE PUSH2 0x2C63 JUMP JUMPDEST JUMPDEST PUSH2 0x1EBB DUP9 DUP3 DUP10 ADD PUSH2 0x1D63 JUMP JUMPDEST SWAP4 POP POP PUSH1 0x60 DUP7 ADD CALLDATALOAD PUSH8 0xFFFFFFFFFFFFFFFF DUP2 GT ISZERO PUSH2 0x1EDC JUMPI PUSH2 0x1EDB PUSH2 0x2C63 JUMP JUMPDEST JUMPDEST PUSH2 0x1EE8 DUP9 DUP3 DUP10 ADD PUSH2 0x1D63 JUMP JUMPDEST SWAP3 POP POP PUSH1 0x80 DUP7 ADD CALLDATALOAD PUSH8 0xFFFFFFFFFFFFFFFF DUP2 GT ISZERO PUSH2 0x1F09 JUMPI PUSH2 0x1F08 PUSH2 0x2C63 JUMP JUMPDEST JUMPDEST PUSH2 0x1F15 DUP9 DUP3 DUP10 ADD PUSH2 0x1DD0 JUMP JUMPDEST SWAP2 POP POP SWAP3 SWAP6 POP SWAP3 SWAP6 SWAP1 SWAP4 POP JUMP JUMPDEST PUSH1 0x0 DUP1 PUSH1 0x0 DUP1 PUSH1 0x0 PUSH1 0xA0 DUP7 DUP9 SUB SLT ISZERO PUSH2 0x1F3E JUMPI PUSH2 0x1F3D PUSH2 0x2C68 JUMP JUMPDEST JUMPDEST PUSH1 0x0 PUSH2 0x1F4C DUP9 DUP3 DUP10 ADD PUSH2 0x1D20 JUMP JUMPDEST SWAP6 POP POP PUSH1 0x20 PUSH2 0x1F5D DUP9 DUP3 DUP10 ADD PUSH2 0x1D20 JUMP JUMPDEST SWAP5 POP POP PUSH1 0x40 PUSH2 0x1F6E DUP9 DUP3 DUP10 ADD PUSH2 0x1DFE JUMP JUMPDEST SWAP4 POP POP PUSH1 0x60 PUSH2 0x1F7F DUP9 DUP3 DUP10 ADD PUSH2 0x1DFE JUMP JUMPDEST SWAP3 POP POP PUSH1 0x80 DUP7 ADD CALLDATALOAD PUSH8 0xFFFFFFFFFFFFFFFF DUP2 GT ISZERO PUSH2 0x1FA0 JUMPI PUSH2 0x1F9F PUSH2 0x2C63 JUMP JUMPDEST JUMPDEST PUSH2 0x1FAC DUP9 DUP3 DUP10 ADD PUSH2 0x1DD0 JUMP JUMPDEST SWAP2 POP POP SWAP3 SWAP6 POP SWAP3 SWAP6 SWAP1 SWAP4 POP JUMP JUMPDEST PUSH1 0x0 DUP1 PUSH1 0x40 DUP4 DUP6 SUB SLT ISZERO PUSH2 0x1FD0 JUMPI PUSH2 0x1FCF PUSH2 0x2C68 JUMP JUMPDEST JUMPDEST PUSH1 0x0 PUSH2 0x1FDE DUP6 DUP3 DUP7 ADD PUSH2 0x1D20 JUMP JUMPDEST SWAP3 POP POP PUSH1 0x20 PUSH2 0x1FEF DUP6 DUP3 DUP7 ADD PUSH2 0x1D91 JUMP JUMPDEST SWAP2 POP POP SWAP3 POP SWAP3 SWAP1 POP JUMP JUMPDEST PUSH1 0x0 DUP1 PUSH1 0x40 DUP4 DUP6 SUB SLT ISZERO PUSH2 0x2010 JUMPI PUSH2 0x200F PUSH2 0x2C68 JUMP JUMPDEST JUMPDEST PUSH1 0x0 PUSH2 0x201E DUP6 DUP3 DUP7 ADD PUSH2 0x1D20 JUMP JUMPDEST SWAP3 POP POP PUSH1 0x20 PUSH2 0x202F DUP6 DUP3 DUP7 ADD PUSH2 0x1DFE JUMP JUMPDEST SWAP2 POP POP SWAP3 POP SWAP3 SWAP1 POP JUMP JUMPDEST PUSH1 0x0 DUP1 PUSH1 0x40 DUP4 DUP6 SUB SLT ISZERO PUSH2 0x2050 JUMPI PUSH2 0x204F PUSH2 0x2C68 JUMP JUMPDEST JUMPDEST PUSH1 0x0 DUP4 ADD CALLDATALOAD PUSH8 0xFFFFFFFFFFFFFFFF DUP2 GT ISZERO PUSH2 0x206E JUMPI PUSH2 0x206D PUSH2 0x2C63 JUMP JUMPDEST JUMPDEST PUSH2 0x207A DUP6 DUP3 DUP7 ADD PUSH2 0x1D35 JUMP JUMPDEST SWAP3 POP POP PUSH1 0x20 DUP4 ADD CALLDATALOAD PUSH8 0xFFFFFFFFFFFFFFFF DUP2 GT ISZERO PUSH2 0x209B JUMPI PUSH2 0x209A PUSH2 0x2C63 JUMP JUMPDEST JUMPDEST PUSH2 0x20A7 DUP6 DUP3 DUP7 ADD PUSH2 0x1D63 JUMP JUMPDEST SWAP2 POP POP SWAP3 POP SWAP3 SWAP1 POP JUMP JUMPDEST PUSH1 0x0 PUSH1 0x20 DUP3 DUP5 SUB SLT ISZERO PUSH2 0x20C7 JUMPI PUSH2 0x20C6 PUSH2 0x2C68 JUMP JUMPDEST JUMPDEST PUSH1 0x0 PUSH2 0x20D5 DUP5 DUP3 DUP6 ADD PUSH2 0x1DA6 JUMP JUMPDEST SWAP2 POP POP SWAP3 SWAP2 POP POP JUMP JUMPDEST PUSH1 0x0 PUSH1 0x20 DUP3 DUP5 SUB SLT ISZERO PUSH2 0x20F4 JUMPI PUSH2 0x20F3 PUSH2 0x2C68 JUMP JUMPDEST JUMPDEST PUSH1 0x0 PUSH2 0x2102 DUP5 DUP3 DUP6 ADD PUSH2 0x1DBB JUMP JUMPDEST SWAP2 POP POP SWAP3 SWAP2 POP POP JUMP JUMPDEST PUSH1 0x0 PUSH1 0x20 DUP3 DUP5 SUB SLT ISZERO PUSH2 0x2121 JUMPI PUSH2 0x2120 PUSH2 0x2C68 JUMP JUMPDEST JUMPDEST PUSH1 0x0 PUSH2 0x212F DUP5 DUP3 DUP6 ADD PUSH2 0x1DFE JUMP JUMPDEST SWAP2 POP POP SWAP3 SWAP2 POP POP JUMP JUMPDEST PUSH1 0x0 PUSH2 0x2144 DUP4 DUP4 PUSH2 0x2436 JUMP JUMPDEST PUSH1 0x20 DUP4 ADD SWAP1 POP SWAP3 SWAP2 POP POP JUMP JUMPDEST PUSH2 0x2159 DUP2 PUSH2 0x29B4 JUMP JUMPDEST DUP3 MSTORE POP POP JUMP JUMPDEST PUSH1 0x0 PUSH2 0x216A DUP3 PUSH2 0x288D JUMP JUMPDEST PUSH2 0x2174 DUP2 DUP6 PUSH2 0x28BB JUMP JUMPDEST SWAP4 POP PUSH2 0x217F DUP4 PUSH2 0x287D JUMP JUMPDEST DUP1 PUSH1 0x0 JUMPDEST DUP4 DUP2 LT ISZERO PUSH2 0x21B0 JUMPI DUP2 MLOAD PUSH2 0x2197 DUP9 DUP3 PUSH2 0x2138 JUMP JUMPDEST SWAP8 POP PUSH2 0x21A2 DUP4 PUSH2 0x28AE JUMP JUMPDEST SWAP3 POP POP PUSH1 0x1 DUP2 ADD SWAP1 POP PUSH2 0x2183 JUMP JUMPDEST POP DUP6 SWAP4 POP POP POP POP SWAP3 SWAP2 POP POP JUMP JUMPDEST PUSH2 0x21C6 DUP2 PUSH2 0x29C6 JUMP JUMPDEST DUP3 MSTORE POP POP JUMP JUMPDEST PUSH1 0x0 PUSH2 0x21D7 DUP3 PUSH2 0x2898 JUMP JUMPDEST PUSH2 0x21E1 DUP2 DUP6 PUSH2 0x28CC JUMP JUMPDEST SWAP4 POP PUSH2 0x21F1 DUP2 DUP6 PUSH1 0x20 DUP7 ADD PUSH2 0x2A37 JUMP JUMPDEST PUSH2 0x21FA DUP2 PUSH2 0x2C6D JUMP JUMPDEST DUP5 ADD SWAP2 POP POP SWAP3 SWAP2 POP POP JUMP JUMPDEST PUSH1 0x0 PUSH2 0x2210 DUP3 PUSH2 0x28A3 JUMP JUMPDEST PUSH2 0x221A DUP2 DUP6 PUSH2 0x28DD JUMP JUMPDEST SWAP4 POP PUSH2 0x222A DUP2 DUP6 PUSH1 0x20 DUP7 ADD PUSH2 0x2A37 JUMP JUMPDEST PUSH2 0x2233 DUP2 PUSH2 0x2C6D JUMP JUMPDEST DUP5 ADD SWAP2 POP POP SWAP3 SWAP2 POP POP JUMP JUMPDEST PUSH1 0x0 PUSH2 0x2249 DUP3 PUSH2 0x28A3 JUMP JUMPDEST PUSH2 0x2253 DUP2 DUP6 PUSH2 0x28EE JUMP JUMPDEST SWAP4 POP PUSH2 0x2263 DUP2 DUP6 PUSH1 0x20 DUP7 ADD PUSH2 0x2A37 JUMP JUMPDEST DUP1 DUP5 ADD SWAP2 POP POP SWAP3 SWAP2 POP POP JUMP JUMPDEST PUSH1 0x0 PUSH2 0x227C PUSH1 0x34 DUP4 PUSH2 0x28DD JUMP JUMPDEST SWAP2 POP PUSH2 0x2287 DUP3 PUSH2 0x2C8B JUMP JUMPDEST PUSH1 0x40 DUP3 ADD SWAP1 POP SWAP2 SWAP1 POP JUMP JUMPDEST PUSH1 0x0 PUSH2 0x229F PUSH1 0x28 DUP4 PUSH2 0x28DD JUMP JUMPDEST SWAP2 POP PUSH2 0x22AA DUP3 PUSH2 0x2CDA JUMP JUMPDEST PUSH1 0x40 DUP3 ADD SWAP1 POP SWAP2 SWAP1 POP JUMP JUMPDEST PUSH1 0x0 PUSH2 0x22C2 PUSH1 0x2B DUP4 PUSH2 0x28DD JUMP JUMPDEST SWAP2 POP PUSH2 0x22CD DUP3 PUSH2 0x2D29 JUMP JUMPDEST PUSH1 0x40 DUP3 ADD SWAP1 POP SWAP2 SWAP1 POP JUMP JUMPDEST PUSH1 0x0 PUSH2 0x22E5 PUSH1 0x31 DUP4 PUSH2 0x28DD JUMP JUMPDEST SWAP2 POP PUSH2 0x22F0 DUP3 PUSH2 0x2D78 JUMP JUMPDEST PUSH1 0x40 DUP3 ADD SWAP1 POP SWAP2 SWAP1 POP JUMP JUMPDEST PUSH1 0x0 PUSH2 0x2308 PUSH1 0x1B DUP4 PUSH2 0x28DD JUMP JUMPDEST SWAP2 POP PUSH2 0x2313 DUP3 PUSH2 0x2DC7 JUMP JUMPDEST PUSH1 0x20 DUP3 ADD SWAP1 POP SWAP2 SWAP1 POP JUMP JUMPDEST PUSH1 0x0 PUSH2 0x232B PUSH1 0x29 DUP4 PUSH2 0x28DD JUMP JUMPDEST SWAP2 POP PUSH2 0x2336 DUP3 PUSH2 0x2DF0 JUMP JUMPDEST PUSH1 0x40 DUP3 ADD SWAP1 POP SWAP2 SWAP1 POP JUMP JUMPDEST PUSH1 0x0 PUSH2 0x234E PUSH1 0x25 DUP4 PUSH2 0x28DD JUMP JUMPDEST SWAP2 POP PUSH2 0x2359 DUP3 PUSH2 0x2E3F JUMP JUMPDEST PUSH1 0x40 DUP3 ADD SWAP1 POP SWAP2 SWAP1 POP JUMP JUMPDEST PUSH1 0x0 PUSH2 0x2371 PUSH1 0x32 DUP4 PUSH2 0x28DD JUMP JUMPDEST SWAP2 POP PUSH2 0x237C DUP3 PUSH2 0x2E8E JUMP JUMPDEST PUSH1 0x40 DUP3 ADD SWAP1 POP SWAP2 SWAP1 POP JUMP JUMPDEST PUSH1 0x0 PUSH2 0x2394 PUSH1 0x34 DUP4 PUSH2 0x28DD JUMP JUMPDEST SWAP2 POP PUSH2 0x239F DUP3 PUSH2 0x2EDD JUMP JUMPDEST PUSH1 0x40 DUP3 ADD SWAP1 POP SWAP2 SWAP1 POP JUMP JUMPDEST PUSH1 0x0 PUSH2 0x23B7 PUSH1 0x30 DUP4 PUSH2 0x28DD JUMP JUMPDEST SWAP2 POP PUSH2 0x23C2 DUP3 PUSH2 0x2F2C JUMP JUMPDEST PUSH1 0x40 DUP3 ADD SWAP1 POP SWAP2 SWAP1 POP JUMP JUMPDEST PUSH1 0x0 PUSH2 0x23DA PUSH1 0x29 DUP4 PUSH2 0x28DD JUMP JUMPDEST SWAP2 POP PUSH2 0x23E5 DUP3 PUSH2 0x2F7B JUMP JUMPDEST PUSH1 0x40 DUP3 ADD SWAP1 POP SWAP2 SWAP1 POP JUMP JUMPDEST PUSH1 0x0 PUSH2 0x23FD PUSH1 0x29 DUP4 PUSH2 0x28DD JUMP JUMPDEST SWAP2 POP PUSH2 0x2408 DUP3 PUSH2 0x2FCA JUMP JUMPDEST PUSH1 0x40 DUP3 ADD SWAP1 POP SWAP2 SWAP1 POP JUMP JUMPDEST PUSH1 0x0 PUSH2 0x2420 PUSH1 0x28 DUP4 PUSH2 0x28DD JUMP JUMPDEST SWAP2 POP PUSH2 0x242B DUP3 PUSH2 0x3019 JUMP JUMPDEST PUSH1 0x40 DUP3 ADD SWAP1 POP SWAP2 SWAP1 POP JUMP JUMPDEST PUSH2 0x243F DUP2 PUSH2 0x2A1E JUMP JUMPDEST DUP3 MSTORE POP POP JUMP JUMPDEST PUSH2 0x244E DUP2 PUSH2 0x2A1E JUMP JUMPDEST DUP3 MSTORE POP POP JUMP JUMPDEST PUSH1 0x0 PUSH2 0x2460 DUP3 DUP6 PUSH2 0x223E JUMP JUMPDEST SWAP2 POP PUSH2 0x246C DUP3 DUP5 PUSH2 0x223E JUMP JUMPDEST SWAP2 POP DUP2 SWAP1 POP SWAP4 SWAP3 POP POP POP JUMP JUMPDEST PUSH1 0x0 PUSH1 0x20 DUP3 ADD SWAP1 POP PUSH2 0x248D PUSH1 0x0 DUP4 ADD DUP5 PUSH2 0x2150 JUMP JUMPDEST SWAP3 SWAP2 POP POP JUMP JUMPDEST PUSH1 0x0 PUSH1 0xA0 DUP3 ADD SWAP1 POP PUSH2 0x24A8 PUSH1 0x0 DUP4 ADD DUP9 PUSH2 0x2150 JUMP JUMPDEST PUSH2 0x24B5 PUSH1 0x20 DUP4 ADD DUP8 PUSH2 0x2150 JUMP JUMPDEST DUP2 DUP2 SUB PUSH1 0x40 DUP4 ADD MSTORE PUSH2 0x24C7 DUP2 DUP7 PUSH2 0x215F JUMP JUMPDEST SWAP1 POP DUP2 DUP2 SUB PUSH1 0x60 DUP4 ADD MSTORE PUSH2 0x24DB DUP2 DUP6 PUSH2 0x215F JUMP JUMPDEST SWAP1 POP DUP2 DUP2 SUB PUSH1 0x80 DUP4 ADD MSTORE PUSH2 0x24EF DUP2 DUP5 PUSH2 0x21CC JUMP JUMPDEST SWAP1 POP SWAP7 SWAP6 POP POP POP POP POP POP JUMP JUMPDEST PUSH1 0x0 PUSH1 0xA0 DUP3 ADD SWAP1 POP PUSH2 0x2510 PUSH1 0x0 DUP4 ADD DUP9 PUSH2 0x2150 JUMP JUMPDEST PUSH2 0x251D PUSH1 0x20 DUP4 ADD DUP8 PUSH2 0x2150 JUMP JUMPDEST PUSH2 0x252A PUSH1 0x40 DUP4 ADD DUP7 PUSH2 0x2445 JUMP JUMPDEST PUSH2 0x2537 PUSH1 0x60 DUP4 ADD DUP6 PUSH2 0x2445 JUMP JUMPDEST DUP2 DUP2 SUB PUSH1 0x80 DUP4 ADD MSTORE PUSH2 0x2549 DUP2 DUP5 PUSH2 0x21CC JUMP JUMPDEST SWAP1 POP SWAP7 SWAP6 POP POP POP POP POP POP JUMP JUMPDEST PUSH1 0x0 PUSH1 0x20 DUP3 ADD SWAP1 POP DUP2 DUP2 SUB PUSH1 0x0 DUP4 ADD MSTORE PUSH2 0x256F DUP2 DUP5 PUSH2 0x215F JUMP JUMPDEST SWAP1 POP SWAP3 SWAP2 POP POP JUMP JUMPDEST PUSH1 0x0 PUSH1 0x40 DUP3 ADD SWAP1 POP DUP2 DUP2 SUB PUSH1 0x0 DUP4 ADD MSTORE PUSH2 0x2591 DUP2 DUP6 PUSH2 0x215F JUMP JUMPDEST SWAP1 POP DUP2 DUP2 SUB PUSH1 0x20 DUP4 ADD MSTORE PUSH2 0x25A5 DUP2 DUP5 PUSH2 0x215F JUMP JUMPDEST SWAP1 POP SWAP4 SWAP3 POP POP POP JUMP JUMPDEST PUSH1 0x0 PUSH1 0x20 DUP3 ADD SWAP1 POP PUSH2 0x25C3 PUSH1 0x0 DUP4 ADD DUP5 PUSH2 0x21BD JUMP JUMPDEST SWAP3 SWAP2 POP POP JUMP JUMPDEST PUSH1 0x0 PUSH1 0x20 DUP3 ADD SWAP1 POP DUP2 DUP2 SUB PUSH1 0x0 DUP4 ADD MSTORE PUSH2 0x25E3 DUP2 DUP5 PUSH2 0x2205 JUMP JUMPDEST SWAP1 POP SWAP3 SWAP2 POP POP JUMP JUMPDEST PUSH1 0x0 PUSH1 0x20 DUP3 ADD SWAP1 POP DUP2 DUP2 SUB PUSH1 0x0 DUP4 ADD MSTORE PUSH2 0x2604 DUP2 PUSH2 0x226F JUMP JUMPDEST SWAP1 POP SWAP2 SWAP1 POP JUMP JUMPDEST PUSH1 0x0 PUSH1 0x20 DUP3 ADD SWAP1 POP DUP2 DUP2 SUB PUSH1 0x0 DUP4 ADD MSTORE PUSH2 0x2624 DUP2 PUSH2 0x2292 JUMP JUMPDEST SWAP1 POP SWAP2 SWAP1 POP JUMP JUMPDEST PUSH1 0x0 PUSH1 0x20 DUP3 ADD SWAP1 POP DUP2 DUP2 SUB PUSH1 0x0 DUP4 ADD MSTORE PUSH2 0x2644 DUP2 PUSH2 0x22B5 JUMP JUMPDEST SWAP1 POP SWAP2 SWAP1 POP JUMP JUMPDEST PUSH1 0x0 PUSH1 0x20 DUP3 ADD SWAP1 POP DUP2 DUP2 SUB PUSH1 0x0 DUP4 ADD MSTORE PUSH2 0x2664 DUP2 PUSH2 0x22D8 JUMP JUMPDEST SWAP1 POP SWAP2 SWAP1 POP JUMP JUMPDEST PUSH1 0x0 PUSH1 0x20 DUP3 ADD SWAP1 POP DUP2 DUP2 SUB PUSH1 0x0 DUP4 ADD MSTORE PUSH2 0x2684 DUP2 PUSH2 0x22FB JUMP JUMPDEST SWAP1 POP SWAP2 SWAP1 POP JUMP JUMPDEST PUSH1 0x0 PUSH1 0x20 DUP3 ADD SWAP1 POP DUP2 DUP2 SUB PUSH1 0x0 DUP4 ADD MSTORE PUSH2 0x26A4 DUP2 PUSH2 0x231E JUMP JUMPDEST SWAP1 POP SWAP2 SWAP1 POP JUMP JUMPDEST PUSH1 0x0 PUSH1 0x20 DUP3 ADD SWAP1 POP DUP2 DUP2 SUB PUSH1 0x0 DUP4 ADD MSTORE PUSH2 0x26C4 DUP2 PUSH2 0x2341 JUMP JUMPDEST SWAP1 POP SWAP2 SWAP1 POP JUMP JUMPDEST PUSH1 0x0 PUSH1 0x20 DUP3 ADD SWAP1 POP DUP2 DUP2 SUB PUSH1 0x0 DUP4 ADD MSTORE PUSH2 0x26E4 DUP2 PUSH2 0x2364 JUMP JUMPDEST SWAP1 POP SWAP2 SWAP1 POP JUMP JUMPDEST PUSH1 0x0 PUSH1 0x20 DUP3 ADD SWAP1 POP DUP2 DUP2 SUB PUSH1 0x0 DUP4 ADD MSTORE PUSH2 0x2704 DUP2 PUSH2 0x2387 JUMP JUMPDEST SWAP1 POP SWAP2 SWAP1 POP JUMP JUMPDEST PUSH1 0x0 PUSH1 0x20 DUP3 ADD SWAP1 POP DUP2 DUP2 SUB PUSH1 0x0 DUP4 ADD MSTORE PUSH2 0x2724 DUP2 PUSH2 0x23AA JUMP JUMPDEST SWAP1 POP SWAP2 SWAP1 POP JUMP JUMPDEST PUSH1 0x0 PUSH1 0x20 DUP3 ADD SWAP1 POP DUP2 DUP2 SUB PUSH1 0x0 DUP4 ADD MSTORE PUSH2 0x2744 DUP2 PUSH2 0x23CD JUMP JUMPDEST SWAP1 POP SWAP2 SWAP1 POP JUMP JUMPDEST PUSH1 0x0 PUSH1 0x20 DUP3 ADD SWAP1 POP DUP2 DUP2 SUB PUSH1 0x0 DUP4 ADD MSTORE PUSH2 0x2764 DUP2 PUSH2 0x23F0 JUMP JUMPDEST SWAP1 POP SWAP2 SWAP1 POP JUMP JUMPDEST PUSH1 0x0 PUSH1 0x20 DUP3 ADD SWAP1 POP DUP2 DUP2 SUB PUSH1 0x0 DUP4 ADD MSTORE PUSH2 0x2784 DUP2 PUSH2 0x2413 JUMP JUMPDEST SWAP1 POP SWAP2 SWAP1 POP JUMP JUMPDEST PUSH1 0x0 PUSH1 0x20 DUP3 ADD SWAP1 POP PUSH2 0x27A0 PUSH1 0x0 DUP4 ADD DUP5 PUSH2 0x2445 JUMP JUMPDEST SWAP3 SWAP2 POP POP JUMP JUMPDEST PUSH1 0x0 PUSH1 0x40 DUP3 ADD SWAP1 POP PUSH2 0x27BB PUSH1 0x0 DUP4 ADD DUP6 PUSH2 0x2445 JUMP JUMPDEST PUSH2 0x27C8 PUSH1 0x20 DUP4 ADD DUP5 PUSH2 0x2445 JUMP JUMPDEST SWAP4 SWAP3 POP POP POP JUMP JUMPDEST PUSH1 0x0 PUSH2 0x27D9 PUSH2 0x27EA JUMP JUMPDEST SWAP1 POP PUSH2 0x27E5 DUP3 DUP3 PUSH2 0x2A9C JUMP JUMPDEST SWAP2 SWAP1 POP JUMP JUMPDEST PUSH1 0x0 PUSH1 0x40 MLOAD SWAP1 POP SWAP1 JUMP JUMPDEST PUSH1 0x0 PUSH8 0xFFFFFFFFFFFFFFFF DUP3 GT ISZERO PUSH2 0x280F JUMPI PUSH2 0x280E PUSH2 0x2C03 JUMP JUMPDEST JUMPDEST PUSH1 0x20 DUP3 MUL SWAP1 POP PUSH1 0x20 DUP2 ADD SWAP1 POP SWAP2 SWAP1 POP JUMP JUMPDEST PUSH1 0x0 PUSH8 0xFFFFFFFFFFFFFFFF DUP3 GT ISZERO PUSH2 0x283B JUMPI PUSH2 0x283A PUSH2 0x2C03 JUMP JUMPDEST JUMPDEST PUSH1 0x20 DUP3 MUL SWAP1 POP PUSH1 0x20 DUP2 ADD SWAP1 POP SWAP2 SWAP1 POP JUMP JUMPDEST PUSH1 0x0 PUSH8 0xFFFFFFFFFFFFFFFF DUP3 GT ISZERO PUSH2 0x2867 JUMPI PUSH2 0x2866 PUSH2 0x2C03 JUMP JUMPDEST JUMPDEST PUSH2 0x2870 DUP3 PUSH2 0x2C6D JUMP JUMPDEST SWAP1 POP PUSH1 0x20 DUP2 ADD SWAP1 POP SWAP2 SWAP1 POP JUMP JUMPDEST PUSH1 0x0 DUP2 SWAP1 POP PUSH1 0x20 DUP3 ADD SWAP1 POP SWAP2 SWAP1 POP JUMP JUMPDEST PUSH1 0x0 DUP2 MLOAD SWAP1 POP SWAP2 SWAP1 POP JUMP JUMPDEST PUSH1 0x0 DUP2 MLOAD SWAP1 POP SWAP2 SWAP1 POP JUMP JUMPDEST PUSH1 0x0 DUP2 MLOAD SWAP1 POP SWAP2 SWAP1 POP JUMP JUMPDEST PUSH1 0x0 PUSH1 0x20 DUP3 ADD SWAP1 POP SWAP2 SWAP1 POP JUMP JUMPDEST PUSH1 0x0 DUP3 DUP3 MSTORE PUSH1 0x20 DUP3 ADD SWAP1 POP SWAP3 SWAP2 POP POP JUMP JUMPDEST PUSH1 0x0 DUP3 DUP3 MSTORE PUSH1 0x20 DUP3 ADD SWAP1 POP SWAP3 SWAP2 POP POP JUMP JUMPDEST PUSH1 0x0 DUP3 DUP3 MSTORE PUSH1 0x20 DUP3 ADD SWAP1 POP SWAP3 SWAP2 POP POP JUMP JUMPDEST PUSH1 0x0 DUP2 SWAP1 POP SWAP3 SWAP2 POP POP JUMP JUMPDEST PUSH1 0x0 PUSH2 0x2904 DUP3 PUSH2 0x2A1E JUMP JUMPDEST SWAP2 POP PUSH2 0x290F DUP4 PUSH2 0x2A1E JUMP JUMPDEST SWAP3 POP DUP3 PUSH32 0xFFFFFFFFFFFFFFFFFFFFFFFFFFFFFFFFFFFFFFFFFFFFFFFFFFFFFFFFFFFFFFFF SUB DUP3 GT ISZERO PUSH2 0x2944 JUMPI PUSH2 0x2943 PUSH2 0x2B47 JUMP JUMPDEST JUMPDEST DUP3 DUP3 ADD SWAP1 POP SWAP3 SWAP2 POP POP JUMP JUMPDEST PUSH1 0x0 PUSH2 0x295A DUP3 PUSH2 0x2A1E JUMP JUMPDEST SWAP2 POP PUSH2 0x2965 DUP4 PUSH2 0x2A1E JUMP JUMPDEST SWAP3 POP DUP3 PUSH2 0x2975 JUMPI PUSH2 0x2974 PUSH2 0x2B76 JUMP JUMPDEST JUMPDEST DUP3 DUP3 DIV SWAP1 POP SWAP3 SWAP2 POP POP JUMP JUMPDEST PUSH1 0x0 PUSH2 0x298B DUP3 PUSH2 0x2A1E JUMP JUMPDEST SWAP2 POP PUSH2 0x2996 DUP4 PUSH2 0x2A1E JUMP JUMPDEST SWAP3 POP DUP3 DUP3 LT ISZERO PUSH2 0x29A9 JUMPI PUSH2 0x29A8 PUSH2 0x2B47 JUMP JUMPDEST JUMPDEST DUP3 DUP3 SUB SWAP1 POP SWAP3 SWAP2 POP POP JUMP JUMPDEST PUSH1 0x0 PUSH2 0x29BF DUP3 PUSH2 0x29FE JUMP JUMPDEST SWAP1 POP SWAP2 SWAP1 POP JUMP JUMPDEST PUSH1 0x0 DUP2 ISZERO ISZERO SWAP1 POP SWAP2 SWAP1 POP JUMP JUMPDEST PUSH1 0x0 PUSH32 0xFFFFFFFF00000000000000000000000000000000000000000000000000000000 DUP3 AND SWAP1 POP SWAP2 SWAP1 POP JUMP JUMPDEST PUSH1 0x0 PUSH20 0xFFFFFFFFFFFFFFFFFFFFFFFFFFFFFFFFFFFFFFFF DUP3 AND SWAP1 POP SWAP2 SWAP1 POP JUMP JUMPDEST PUSH1 0x0 DUP2 SWAP1 POP SWAP2 SWAP1 POP JUMP JUMPDEST DUP3 DUP2 DUP4 CALLDATACOPY PUSH1 0x0 DUP4 DUP4 ADD MSTORE POP POP POP JUMP JUMPDEST PUSH1 0x0 JUMPDEST DUP4 DUP2 LT ISZERO PUSH2 0x2A55 JUMPI DUP1 DUP3 ADD MLOAD DUP2 DUP5 ADD MSTORE PUSH1 0x20 DUP2 ADD SWAP1 POP PUSH2 0x2A3A JUMP JUMPDEST DUP4 DUP2 GT ISZERO PUSH2 0x2A64 JUMPI PUSH1 0x0 DUP5 DUP5 ADD MSTORE JUMPDEST POP POP POP POP JUMP JUMPDEST PUSH1 0x0 PUSH1 0x2 DUP3 DIV SWAP1 POP PUSH1 0x1 DUP3 AND DUP1 PUSH2 0x2A82 JUMPI PUSH1 0x7F DUP3 AND SWAP2 POP JUMPDEST PUSH1 0x20 DUP3 LT DUP2 EQ ISZERO PUSH2 0x2A96 JUMPI PUSH2 0x2A95 PUSH2 0x2BA5 JUMP JUMPDEST JUMPDEST POP SWAP2 SWAP1 POP JUMP JUMPDEST PUSH2 0x2AA5 DUP3 PUSH2 0x2C6D JUMP JUMPDEST DUP2 ADD DUP2 DUP2 LT PUSH8 0xFFFFFFFFFFFFFFFF DUP3 GT OR ISZERO PUSH2 0x2AC4 JUMPI PUSH2 0x2AC3 PUSH2 0x2C03 JUMP JUMPDEST JUMPDEST DUP1 PUSH1 0x40 MSTORE POP POP POP JUMP JUMPDEST PUSH1 0x0 PUSH2 0x2AD8 DUP3 PUSH2 0x2A1E JUMP JUMPDEST SWAP2 POP PUSH32 0xFFFFFFFFFFFFFFFFFFFFFFFFFFFFFFFFFFFFFFFFFFFFFFFFFFFFFFFFFFFFFFFF DUP3 EQ ISZERO PUSH2 0x2B0B JUMPI PUSH2 0x2B0A PUSH2 0x2B47 JUMP JUMPDEST JUMPDEST PUSH1 0x1 DUP3 ADD SWAP1 POP SWAP2 SWAP1 POP JUMP JUMPDEST PUSH1 0x0 PUSH2 0x2B21 DUP3 PUSH2 0x2A1E JUMP JUMPDEST SWAP2 POP PUSH2 0x2B2C DUP4 PUSH2 0x2A1E JUMP JUMPDEST SWAP3 POP DUP3 PUSH2 0x2B3C JUMPI PUSH2 0x2B3B PUSH2 0x2B76 JUMP JUMPDEST JUMPDEST DUP3 DUP3 MOD SWAP1 POP SWAP3 SWAP2 POP POP JUMP JUMPDEST PUSH32 0x4E487B7100000000000000000000000000000000000000000000000000000000 PUSH1 0x0 MSTORE PUSH1 0x11 PUSH1 0x4 MSTORE PUSH1 0x24 PUSH1 0x0 REVERT JUMPDEST PUSH32 0x4E487B7100000000000000000000000000000000000000000000000000000000 PUSH1 0x0 MSTORE PUSH1 0x12 PUSH1 0x4 MSTORE PUSH1 0x24 PUSH1 0x0 REVERT JUMPDEST PUSH32 0x4E487B7100000000000000000000000000000000000000000000000000000000 PUSH1 0x0 MSTORE PUSH1 0x22 PUSH1 0x4 MSTORE PUSH1 0x24 PUSH1 0x0 REVERT JUMPDEST PUSH32 0x4E487B7100000000000000000000000000000000000000000000000000000000 PUSH1 0x0 MSTORE PUSH1 0x32 PUSH1 0x4 MSTORE PUSH1 0x24 PUSH1 0x0 REVERT JUMPDEST PUSH32 0x4E487B7100000000000000000000000000000000000000000000000000000000 PUSH1 0x0 MSTORE PUSH1 0x41 PUSH1 0x4 MSTORE PUSH1 0x24 PUSH1 0x0 REVERT JUMPDEST PUSH1 0x0 PUSH1 0x3 RETURNDATASIZE GT ISZERO PUSH2 0x2C51 JUMPI PUSH1 0x4 PUSH1 0x0 DUP1 RETURNDATACOPY PUSH2 0x2C4E PUSH1 0x0 MLOAD PUSH2 0x2C7E JUMP JUMPDEST SWAP1 POP JUMPDEST SWAP1 JUMP JUMPDEST PUSH1 0x0 DUP1 REVERT JUMPDEST PUSH1 0x0 DUP1 REVERT JUMPDEST PUSH1 0x0 DUP1 REVERT JUMPDEST PUSH1 0x0 DUP1 REVERT JUMPDEST PUSH1 0x0 DUP1 REVERT JUMPDEST PUSH1 0x0 PUSH1 0x1F NOT PUSH1 0x1F DUP4 ADD AND SWAP1 POP SWAP2 SWAP1 POP JUMP JUMPDEST PUSH1 0x0 DUP2 PUSH1 0xE0 SHR SWAP1 POP SWAP2 SWAP1 POP JUMP JUMPDEST PUSH32 0x455243313135353A207472616E7366657220746F206E6F6E2045524331313535 PUSH1 0x0 DUP3 ADD MSTORE PUSH32 0x526563656976657220696D706C656D656E746572000000000000000000000000 PUSH1 0x20 DUP3 ADD MSTORE POP JUMP JUMPDEST PUSH32 0x455243313135353A204552433131353552656365697665722072656A65637465 PUSH1 0x0 DUP3 ADD MSTORE PUSH32 0x6420746F6B656E73000000000000000000000000000000000000000000000000 PUSH1 0x20 DUP3 ADD MSTORE POP JUMP JUMPDEST PUSH32 0x455243313135353A2062616C616E636520717565727920666F7220746865207A PUSH1 0x0 DUP3 ADD MSTORE PUSH32 0x65726F2061646472657373000000000000000000000000000000000000000000 PUSH1 0x20 DUP3 ADD MSTORE POP JUMP JUMPDEST PUSH32 0x455243313135353A2062617463682062616C616E636520717565727920666F72 PUSH1 0x0 DUP3 ADD MSTORE PUSH32 0x20746865207A65726F2061646472657373000000000000000000000000000000 PUSH1 0x20 DUP3 ADD MSTORE POP JUMP JUMPDEST PUSH32 0x536166654D6174683A206164646974696F6E206F766572666C6F770000000000 PUSH1 0x0 DUP3 ADD MSTORE POP JUMP JUMPDEST PUSH32 0x455243313135353A2063616C6C6572206973206E6F74206F776E6572206E6F72 PUSH1 0x0 DUP3 ADD MSTORE PUSH32 0x20617070726F7665640000000000000000000000000000000000000000000000 PUSH1 0x20 DUP3 ADD MSTORE POP JUMP JUMPDEST PUSH32 0x455243313135353A207472616E7366657220746F20746865207A65726F206164 PUSH1 0x0 DUP3 ADD MSTORE PUSH32 0x6472657373000000000000000000000000000000000000000000000000000000 PUSH1 0x20 DUP3 ADD MSTORE POP JUMP JUMPDEST PUSH32 0x455243313135353A207472616E736665722063616C6C6572206973206E6F7420 PUSH1 0x0 DUP3 ADD MSTORE PUSH32 0x6F776E6572206E6F7220617070726F7665640000000000000000000000000000 PUSH1 0x20 DUP3 ADD MSTORE POP JUMP JUMPDEST PUSH32 0x455243313135354D657461646174613A2062616C616E63652071756572792066 PUSH1 0x0 DUP3 ADD MSTORE PUSH32 0x6F72206E6F6E6578697374656E7420746F6B656E000000000000000000000000 PUSH1 0x20 DUP3 ADD MSTORE POP JUMP JUMPDEST PUSH32 0x455243313135354D657461646174613A2055524920717565727920666F72206E PUSH1 0x0 DUP3 ADD MSTORE PUSH32 0x6F6E6578697374656E7420746F6B656E00000000000000000000000000000000 PUSH1 0x20 DUP3 ADD MSTORE POP JUMP JUMPDEST PUSH32 0x455243313135353A2073657474696E6720617070726F76616C20737461747573 PUSH1 0x0 DUP3 ADD MSTORE PUSH32 0x20666F722073656C660000000000000000000000000000000000000000000000 PUSH1 0x20 DUP3 ADD MSTORE POP JUMP JUMPDEST PUSH32 0x455243313135353A206163636F756E747320616E6420696473206C656E677468 PUSH1 0x0 DUP3 ADD MSTORE PUSH32 0x206D69736D617463680000000000000000000000000000000000000000000000 PUSH1 0x20 DUP3 ADD MSTORE POP JUMP JUMPDEST PUSH32 0x455243313135353A2069647320616E6420616D6F756E7473206C656E67746820 PUSH1 0x0 DUP3 ADD MSTORE PUSH32 0x6D69736D61746368000000000000000000000000000000000000000000000000 PUSH1 0x20 DUP3 ADD MSTORE POP JUMP JUMPDEST PUSH1 0x0 PUSH1 0x44 RETURNDATASIZE LT ISZERO PUSH2 0x3078 JUMPI PUSH2 0x30FB JUMP JUMPDEST PUSH2 0x3080 PUSH2 0x27EA JUMP JUMPDEST PUSH1 0x4 RETURNDATASIZE SUB PUSH1 0x4 DUP3 RETURNDATACOPY DUP1 MLOAD RETURNDATASIZE PUSH1 0x24 DUP3 ADD GT PUSH8 0xFFFFFFFFFFFFFFFF DUP3 GT OR ISZERO PUSH2 0x30A8 JUMPI POP POP PUSH2 0x30FB JUMP JUMPDEST DUP1 DUP3 ADD DUP1 MLOAD PUSH8 0xFFFFFFFFFFFFFFFF DUP2 GT ISZERO PUSH2 0x30C6 JUMPI POP POP POP POP PUSH2 0x30FB JUMP JUMPDEST DUP1 PUSH1 0x20 DUP4 ADD ADD PUSH1 0x4 RETURNDATASIZE SUB DUP6 ADD DUP2 GT ISZERO PUSH2 0x30E3 JUMPI POP POP POP POP POP PUSH2 0x30FB JUMP JUMPDEST PUSH2 0x30F2 DUP3 PUSH1 0x20 ADD DUP6 ADD DUP7 PUSH2 0x2A9C JUMP JUMPDEST DUP3 SWAP6 POP POP POP POP POP POP JUMPDEST SWAP1 JUMP JUMPDEST PUSH2 0x3107 DUP2 PUSH2 0x29B4 JUMP JUMPDEST DUP2 EQ PUSH2 0x3112 JUMPI PUSH1 0x0 DUP1 REVERT JUMPDEST POP JUMP JUMPDEST PUSH2 0x311E DUP2 PUSH2 0x29C6 JUMP JUMPDEST DUP2 EQ PUSH2 0x3129 JUMPI PUSH1 0x0 DUP1 REVERT JUMPDEST POP JUMP JUMPDEST PUSH2 0x3135 DUP2 PUSH2 0x29D2 JUMP JUMPDEST DUP2 EQ PUSH2 0x3140 JUMPI PUSH1 0x0 DUP1 REVERT JUMPDEST POP JUMP JUMPDEST PUSH2 0x314C DUP2 PUSH2 0x2A1E JUMP JUMPDEST DUP2 EQ PUSH2 0x3157 JUMPI PUSH1 0x0 DUP1 REVERT JUMPDEST POP JUMP INVALID GASLIMIT MSTORE NUMBER CALLDATACOPY ORIGIN BALANCE GASPRICE KECCAK256 PUSH16 0x776E657220717565727920666F72206E PUSH16 0x6E6578697374656E7420746F6B656E45 MSTORE NUMBER BALANCE BALANCE CALLDATALOAD CALLDATALOAD GASPRICE KECCAK256 PUSH10 0x6E73756666696369656E PUSH21 0x2062616C616E636520666F72207472616E73666572 LOG2 PUSH5 0x6970667358 0x22 SLT KECCAK256 LOG3 0x1E KECCAK256 EXTCODEHASH SELFBALANCE 0xA8 CALLVALUE 0xAA 0xAB DUP1 0x2E PUSH1 0x88 RETURNDATACOPY SWAP14 0x5E DUP8 ADDRESS MSIZE DUP7 PUSH5 0x8408696D6B 0xF7 0xDD PUSH29 0xCA04A964736F6C63430008070033000000000000000000000000000000 "
				},
				"gasEstimates": {
					"creation": {
						"codeDepositCost": "2554200",
						"executionCost": "infinite",
						"totalCost": "infinite"
					},
					"external": {
						"balanceOf(address,uint256)": "infinite",
						"balanceOfBatch(address[],uint256[])": "infinite",
						"getCreator(uint256)": "2909",
						"isApprovedForAll(address,address)": "infinite",
						"name()": "infinite",
						"ownerOf(uint256)": "infinite",
						"royaltyFee(uint256)": "infinite",
						"safeBatchTransferFrom(address,address,uint256[],uint256[],bytes)": "infinite",
						"safeTransferFrom(address,address,uint256,uint256,bytes)": "infinite",
						"setApprovalForAll(address,bool)": "infinite",
						"supportsInterface(bytes4)": "2892",
						"symbol()": "infinite",
						"tokenURI(uint256)": "infinite",
						"tokenURIPrefix()": "infinite",
						"totalSupply()": "2566"
					},
					"internal": {
						"_asSingletonArray(uint256)": "infinite",
						"_beforeTokenTransfer(address,address,address,uint256[] memory,uint256[] memory,bytes memory)": "21",
						"_burn(address,uint256,uint256)": "infinite",
						"_burnBatch(address,uint256[] memory,uint256[] memory)": "infinite",
						"_doSafeBatchTransferAcceptanceCheck(address,address,address,uint256[] memory,uint256[] memory,bytes memory)": "infinite",
						"_doSafeTransferAcceptanceCheck(address,address,address,uint256,uint256,bytes memory)": "infinite",
						"_exists(uint256)": "infinite",
						"_mint(uint256,uint256,string memory,uint256)": "infinite",
						"_mintBatch(address,uint256[] memory,uint256[] memory,bytes memory)": "infinite",
						"_setTokenURI(uint256,string memory)": "infinite",
						"_setTokenURIPrefix(string memory)": "infinite"
					}
				},
				"methodIdentifiers": {
					"balanceOf(address,uint256)": "00fdd58e",
					"balanceOfBatch(address[],uint256[])": "4e1273f4",
					"getCreator(uint256)": "d48e638a",
					"isApprovedForAll(address,address)": "e985e9c5",
					"name()": "06fdde03",
					"ownerOf(uint256)": "6352211e",
					"royaltyFee(uint256)": "c57dc235",
					"safeBatchTransferFrom(address,address,uint256[],uint256[],bytes)": "2eb2c2d6",
					"safeTransferFrom(address,address,uint256,uint256,bytes)": "f242432a",
					"setApprovalForAll(address,bool)": "a22cb465",
					"supportsInterface(bytes4)": "01ffc9a7",
					"symbol()": "95d89b41",
					"tokenURI(uint256)": "c87b56dd",
					"tokenURIPrefix()": "c0ac9983",
					"totalSupply()": "18160ddd"
				}
			},
			"storageLayout": {
				"storage": [
					{
						"astId": 1588,
						"contract": "Arevea-NFT-Market/NFT-Contracts/contracts/ERC1155.sol:ERC1155",
						"label": "_supportedInterfaces",
						"offset": 0,
						"slot": "0",
						"type": "t_mapping(t_bytes4,t_bool)"
					},
					{
						"astId": 33,
						"contract": "Arevea-NFT-Market/NFT-Contracts/contracts/ERC1155.sol:ERC1155",
						"label": "creators",
						"offset": 0,
						"slot": "1",
						"type": "t_mapping(t_uint256,t_address)"
					},
					{
						"astId": 37,
						"contract": "Arevea-NFT-Market/NFT-Contracts/contracts/ERC1155.sol:ERC1155",
						"label": "_royaltyFee",
						"offset": 0,
						"slot": "2",
						"type": "t_mapping(t_uint256,t_uint256)"
					},
					{
						"astId": 43,
						"contract": "Arevea-NFT-Market/NFT-Contracts/contracts/ERC1155.sol:ERC1155",
						"label": "_balances",
						"offset": 0,
						"slot": "3",
						"type": "t_mapping(t_uint256,t_mapping(t_address,t_uint256))"
					},
					{
						"astId": 49,
						"contract": "Arevea-NFT-Market/NFT-Contracts/contracts/ERC1155.sol:ERC1155",
						"label": "_operatorApprovals",
						"offset": 0,
						"slot": "4",
						"type": "t_mapping(t_address,t_mapping(t_address,t_bool))"
					},
					{
						"astId": 52,
						"contract": "Arevea-NFT-Market/NFT-Contracts/contracts/ERC1155.sol:ERC1155",
						"label": "tokenURIPrefix",
						"offset": 0,
						"slot": "5",
						"type": "t_string_storage"
					},
					{
						"astId": 56,
						"contract": "Arevea-NFT-Market/NFT-Contracts/contracts/ERC1155.sol:ERC1155",
						"label": "_tokenURIs",
						"offset": 0,
						"slot": "6",
						"type": "t_mapping(t_uint256,t_string_storage)"
					},
					{
						"astId": 59,
						"contract": "Arevea-NFT-Market/NFT-Contracts/contracts/ERC1155.sol:ERC1155",
						"label": "_tokenOwners",
						"offset": 0,
						"slot": "7",
						"type": "t_struct(UintToAddressMap)1895_storage"
					},
					{
						"astId": 61,
						"contract": "Arevea-NFT-Market/NFT-Contracts/contracts/ERC1155.sol:ERC1155",
						"label": "_name",
						"offset": 0,
						"slot": "9",
						"type": "t_string_storage"
					},
					{
						"astId": 63,
						"contract": "Arevea-NFT-Market/NFT-Contracts/contracts/ERC1155.sol:ERC1155",
						"label": "_symbol",
						"offset": 0,
						"slot": "10",
						"type": "t_string_storage"
					}
				],
				"types": {
					"t_address": {
						"encoding": "inplace",
						"label": "address",
						"numberOfBytes": "20"
					},
					"t_array(t_struct(MapEntry)1636_storage)dyn_storage": {
						"base": "t_struct(MapEntry)1636_storage",
						"encoding": "dynamic_array",
						"label": "struct EnumerableMap.MapEntry[]",
						"numberOfBytes": "32"
					},
					"t_bool": {
						"encoding": "inplace",
						"label": "bool",
						"numberOfBytes": "1"
					},
					"t_bytes32": {
						"encoding": "inplace",
						"label": "bytes32",
						"numberOfBytes": "32"
					},
					"t_bytes4": {
						"encoding": "inplace",
						"label": "bytes4",
						"numberOfBytes": "4"
					},
					"t_mapping(t_address,t_bool)": {
						"encoding": "mapping",
						"key": "t_address",
						"label": "mapping(address => bool)",
						"numberOfBytes": "32",
						"value": "t_bool"
					},
					"t_mapping(t_address,t_mapping(t_address,t_bool))": {
						"encoding": "mapping",
						"key": "t_address",
						"label": "mapping(address => mapping(address => bool))",
						"numberOfBytes": "32",
						"value": "t_mapping(t_address,t_bool)"
					},
					"t_mapping(t_address,t_uint256)": {
						"encoding": "mapping",
						"key": "t_address",
						"label": "mapping(address => uint256)",
						"numberOfBytes": "32",
						"value": "t_uint256"
					},
					"t_mapping(t_bytes32,t_uint256)": {
						"encoding": "mapping",
						"key": "t_bytes32",
						"label": "mapping(bytes32 => uint256)",
						"numberOfBytes": "32",
						"value": "t_uint256"
					},
					"t_mapping(t_bytes4,t_bool)": {
						"encoding": "mapping",
						"key": "t_bytes4",
						"label": "mapping(bytes4 => bool)",
						"numberOfBytes": "32",
						"value": "t_bool"
					},
					"t_mapping(t_uint256,t_address)": {
						"encoding": "mapping",
						"key": "t_uint256",
						"label": "mapping(uint256 => address)",
						"numberOfBytes": "32",
						"value": "t_address"
					},
					"t_mapping(t_uint256,t_mapping(t_address,t_uint256))": {
						"encoding": "mapping",
						"key": "t_uint256",
						"label": "mapping(uint256 => mapping(address => uint256))",
						"numberOfBytes": "32",
						"value": "t_mapping(t_address,t_uint256)"
					},
					"t_mapping(t_uint256,t_string_storage)": {
						"encoding": "mapping",
						"key": "t_uint256",
						"label": "mapping(uint256 => string)",
						"numberOfBytes": "32",
						"value": "t_string_storage"
					},
					"t_mapping(t_uint256,t_uint256)": {
						"encoding": "mapping",
						"key": "t_uint256",
						"label": "mapping(uint256 => uint256)",
						"numberOfBytes": "32",
						"value": "t_uint256"
					},
					"t_string_storage": {
						"encoding": "bytes",
						"label": "string",
						"numberOfBytes": "32"
					},
					"t_struct(Map)1645_storage": {
						"encoding": "inplace",
						"label": "struct EnumerableMap.Map",
						"members": [
							{
								"astId": 1640,
								"contract": "Arevea-NFT-Market/NFT-Contracts/contracts/ERC1155.sol:ERC1155",
								"label": "_entries",
								"offset": 0,
								"slot": "0",
								"type": "t_array(t_struct(MapEntry)1636_storage)dyn_storage"
							},
							{
								"astId": 1644,
								"contract": "Arevea-NFT-Market/NFT-Contracts/contracts/ERC1155.sol:ERC1155",
								"label": "_indexes",
								"offset": 0,
								"slot": "1",
								"type": "t_mapping(t_bytes32,t_uint256)"
							}
						],
						"numberOfBytes": "64"
					},
					"t_struct(MapEntry)1636_storage": {
						"encoding": "inplace",
						"label": "struct EnumerableMap.MapEntry",
						"members": [
							{
								"astId": 1633,
								"contract": "Arevea-NFT-Market/NFT-Contracts/contracts/ERC1155.sol:ERC1155",
								"label": "_key",
								"offset": 0,
								"slot": "0",
								"type": "t_bytes32"
							},
							{
								"astId": 1635,
								"contract": "Arevea-NFT-Market/NFT-Contracts/contracts/ERC1155.sol:ERC1155",
								"label": "_value",
								"offset": 0,
								"slot": "1",
								"type": "t_bytes32"
							}
						],
						"numberOfBytes": "64"
					},
					"t_struct(UintToAddressMap)1895_storage": {
						"encoding": "inplace",
						"label": "struct EnumerableMap.UintToAddressMap",
						"members": [
							{
								"astId": 1894,
								"contract": "Arevea-NFT-Market/NFT-Contracts/contracts/ERC1155.sol:ERC1155",
								"label": "_inner",
								"offset": 0,
								"slot": "0",
								"type": "t_struct(Map)1645_storage"
							}
						],
						"numberOfBytes": "64"
					},
					"t_uint256": {
						"encoding": "inplace",
						"label": "uint256",
						"numberOfBytes": "32"
					}
				}
			},
			"userdoc": {
				"kind": "user",
				"methods": {
					"balanceOf(address,uint256)": {
						"notice": "Get the balance of an account's Tokens."
					},
					"balanceOfBatch(address[],uint256[])": {
						"notice": "Get the balance of multiple account/token pairs"
					},
					"getCreator(uint256)": {
						"notice": "Get the creator of given tokenID."
					},
					"isApprovedForAll(address,address)": {
						"notice": "Queries the approval status of an operator for a given owner."
					},
					"royaltyFee(uint256)": {
						"notice": "Get the royalty associated with tokenID."
					},
					"safeBatchTransferFrom(address,address,uint256[],uint256[],bytes)": {
						"notice": "Transfers `_values` amount(s) of `_ids` from the `_from` address to the `_to` address specified (with safety call)."
					},
					"safeTransferFrom(address,address,uint256,uint256,bytes)": {
						"notice": "Transfers `_value` amount of an `_id` from the `_from` address to the `_to` address specified (with safety call)."
					},
					"setApprovalForAll(address,bool)": {
						"notice": "Enable or disable approval for a third party (\"operator\") to manage all of the caller's tokens."
					}
				},
				"version": 1
			}
		}
	}
}