{
	"Arevea-NFT-Market/NFT-Contracts/newmultinft/ERC1155.sol": {
		"ERC1155": {
			"abi": [
				{
					"inputs": [
						{
							"internalType": "string",
							"name": "uri_",
							"type": "string"
						}
					],
					"stateMutability": "nonpayable",
					"type": "constructor"
				},
				{
					"anonymous": false,
					"inputs": [
						{
							"indexed": true,
							"internalType": "address",
							"name": "account",
							"type": "address"
						},
						{
							"indexed": true,
							"internalType": "address",
							"name": "operator",
							"type": "address"
						},
						{
							"indexed": false,
							"internalType": "bool",
							"name": "approved",
							"type": "bool"
						}
					],
					"name": "ApprovalForAll",
					"type": "event"
				},
				{
					"anonymous": false,
					"inputs": [
						{
							"indexed": true,
							"internalType": "address",
							"name": "operator",
							"type": "address"
						},
						{
							"indexed": true,
							"internalType": "address",
							"name": "from",
							"type": "address"
						},
						{
							"indexed": true,
							"internalType": "address",
							"name": "to",
							"type": "address"
						},
						{
							"indexed": false,
							"internalType": "uint256[]",
							"name": "ids",
							"type": "uint256[]"
						},
						{
							"indexed": false,
							"internalType": "uint256[]",
							"name": "values",
							"type": "uint256[]"
						}
					],
					"name": "TransferBatch",
					"type": "event"
				},
				{
					"anonymous": false,
					"inputs": [
						{
							"indexed": true,
							"internalType": "address",
							"name": "operator",
							"type": "address"
						},
						{
							"indexed": true,
							"internalType": "address",
							"name": "from",
							"type": "address"
						},
						{
							"indexed": true,
							"internalType": "address",
							"name": "to",
							"type": "address"
						},
						{
							"indexed": false,
							"internalType": "uint256",
							"name": "id",
							"type": "uint256"
						},
						{
							"indexed": false,
							"internalType": "uint256",
							"name": "value",
							"type": "uint256"
						}
					],
					"name": "TransferSingle",
					"type": "event"
				},
				{
					"anonymous": false,
					"inputs": [
						{
							"indexed": false,
							"internalType": "string",
							"name": "value",
							"type": "string"
						},
						{
							"indexed": true,
							"internalType": "uint256",
							"name": "id",
							"type": "uint256"
						}
					],
					"name": "URI",
					"type": "event"
				},
				{
					"inputs": [
						{
							"internalType": "address",
							"name": "account",
							"type": "address"
						},
						{
							"internalType": "uint256",
							"name": "id",
							"type": "uint256"
						}
					],
					"name": "balanceOf",
					"outputs": [
						{
							"internalType": "uint256",
							"name": "",
							"type": "uint256"
						}
					],
					"stateMutability": "view",
					"type": "function"
				},
				{
					"inputs": [
						{
							"internalType": "address[]",
							"name": "accounts",
							"type": "address[]"
						},
						{
							"internalType": "uint256[]",
							"name": "ids",
							"type": "uint256[]"
						}
					],
					"name": "balanceOfBatch",
					"outputs": [
						{
							"internalType": "uint256[]",
							"name": "",
							"type": "uint256[]"
						}
					],
					"stateMutability": "view",
					"type": "function"
				},
				{
					"inputs": [
						{
							"internalType": "address",
							"name": "account",
							"type": "address"
						},
						{
							"internalType": "address",
							"name": "operator",
							"type": "address"
						}
					],
					"name": "isApprovedForAll",
					"outputs": [
						{
							"internalType": "bool",
							"name": "",
							"type": "bool"
						}
					],
					"stateMutability": "view",
					"type": "function"
				},
				{
					"inputs": [
						{
							"internalType": "address",
							"name": "from",
							"type": "address"
						},
						{
							"internalType": "address",
							"name": "to",
							"type": "address"
						},
						{
							"internalType": "uint256[]",
							"name": "ids",
							"type": "uint256[]"
						},
						{
							"internalType": "uint256[]",
							"name": "amounts",
							"type": "uint256[]"
						},
						{
							"internalType": "bytes",
							"name": "data",
							"type": "bytes"
						}
					],
					"name": "safeBatchTransferFrom",
					"outputs": [],
					"stateMutability": "nonpayable",
					"type": "function"
				},
				{
					"inputs": [
						{
							"internalType": "address",
							"name": "from",
							"type": "address"
						},
						{
							"internalType": "address",
							"name": "to",
							"type": "address"
						},
						{
							"internalType": "uint256",
							"name": "id",
							"type": "uint256"
						},
						{
							"internalType": "uint256",
							"name": "amount",
							"type": "uint256"
						},
						{
							"internalType": "bytes",
							"name": "data",
							"type": "bytes"
						}
					],
					"name": "safeTransferFrom",
					"outputs": [],
					"stateMutability": "nonpayable",
					"type": "function"
				},
				{
					"inputs": [
						{
							"internalType": "address",
							"name": "operator",
							"type": "address"
						},
						{
							"internalType": "bool",
							"name": "approved",
							"type": "bool"
						}
					],
					"name": "setApprovalForAll",
					"outputs": [],
					"stateMutability": "nonpayable",
					"type": "function"
				},
				{
					"inputs": [
						{
							"internalType": "bytes4",
							"name": "interfaceId",
							"type": "bytes4"
						}
					],
					"name": "supportsInterface",
					"outputs": [
						{
							"internalType": "bool",
							"name": "",
							"type": "bool"
						}
					],
					"stateMutability": "view",
					"type": "function"
				},
				{
					"inputs": [
						{
							"internalType": "uint256",
							"name": "",
							"type": "uint256"
						}
					],
					"name": "uri",
					"outputs": [
						{
							"internalType": "string",
							"name": "",
							"type": "string"
						}
					],
					"stateMutability": "view",
					"type": "function"
				}
			],
			"devdoc": {
				"details": "Implementation of the basic standard multi-token. See https://eips.ethereum.org/EIPS/eip-1155 Originally based on code by Enjin: https://github.com/enjin/erc-1155 _Available since v3.1._",
				"kind": "dev",
				"methods": {
					"balanceOf(address,uint256)": {
						"details": "See {IERC1155-balanceOf}. Requirements: - `account` cannot be the zero address."
					},
					"balanceOfBatch(address[],uint256[])": {
						"details": "See {IERC1155-balanceOfBatch}. Requirements: - `accounts` and `ids` must have the same length."
					},
					"constructor": {
						"details": "See {_setURI}."
					},
					"isApprovedForAll(address,address)": {
						"details": "See {IERC1155-isApprovedForAll}."
					},
					"safeBatchTransferFrom(address,address,uint256[],uint256[],bytes)": {
						"details": "See {IERC1155-safeBatchTransferFrom}."
					},
					"safeTransferFrom(address,address,uint256,uint256,bytes)": {
						"details": "See {IERC1155-safeTransferFrom}."
					},
					"setApprovalForAll(address,bool)": {
						"details": "See {IERC1155-setApprovalForAll}."
					},
					"supportsInterface(bytes4)": {
						"details": "See {IERC165-supportsInterface}."
					},
					"uri(uint256)": {
						"details": "See {IERC1155MetadataURI-uri}. This implementation returns the same URI for *all* token types. It relies on the token type ID substitution mechanism https://eips.ethereum.org/EIPS/eip-1155#metadata[defined in the EIP]. Clients calling this function must replace the `\\{id\\}` substring with the actual token type ID."
					}
				},
				"version": 1
			},
			"evm": {
				"assembly": "    /* \"Arevea-NFT-Market/NFT-Contracts/newmultinft/ERC1155.sol\":534:17720  contract ERC1155 is Context, ERC165, IERC1155, IERC1155MetadataURI {\r... */\n  mstore(0x40, 0x80)\n    /* \"Arevea-NFT-Market/NFT-Contracts/newmultinft/ERC1155.sol\":1086:1150  constructor(string memory uri_) {\r... */\n  callvalue\n  dup1\n  iszero\n  tag_1\n  jumpi\n  0x00\n  dup1\n  revert\ntag_1:\n  pop\n  mload(0x40)\n  sub(codesize, bytecodeSize)\n  dup1\n  bytecodeSize\n  dup4\n  codecopy\n  dup2\n  dup2\n  add\n  0x40\n  mstore\n  dup2\n  add\n  swap1\n  tag_2\n  swap2\n  swap1\n  tag_3\n  jump\t// in\ntag_2:\n    /* \"Arevea-NFT-Market/NFT-Contracts/newmultinft/ERC1155.sol\":1129:1142  _setURI(uri_) */\n  tag_6\n    /* \"Arevea-NFT-Market/NFT-Contracts/newmultinft/ERC1155.sol\":1137:1141  uri_ */\n  dup2\n    /* \"Arevea-NFT-Market/NFT-Contracts/newmultinft/ERC1155.sol\":1129:1136  _setURI */\n  shl(0x20, tag_7)\n    /* \"Arevea-NFT-Market/NFT-Contracts/newmultinft/ERC1155.sol\":1129:1142  _setURI(uri_) */\n  0x20\n  shr\n  jump\t// in\ntag_6:\n    /* \"Arevea-NFT-Market/NFT-Contracts/newmultinft/ERC1155.sol\":1086:1150  constructor(string memory uri_) {\r... */\n  pop\n    /* \"Arevea-NFT-Market/NFT-Contracts/newmultinft/ERC1155.sol\":534:17720  contract ERC1155 is Context, ERC165, IERC1155, IERC1155MetadataURI {\r... */\n  jump(tag_8)\n    /* \"Arevea-NFT-Market/NFT-Contracts/newmultinft/ERC1155.sol\":8366:8454  function _setURI(string memory newuri) internal virtual {\r... */\ntag_7:\n    /* \"Arevea-NFT-Market/NFT-Contracts/newmultinft/ERC1155.sol\":8440:8446  newuri */\n  dup1\n    /* \"Arevea-NFT-Market/NFT-Contracts/newmultinft/ERC1155.sol\":8433:8437  _uri */\n  0x02\n    /* \"Arevea-NFT-Market/NFT-Contracts/newmultinft/ERC1155.sol\":8433:8446  _uri = newuri */\n  swap1\n  dup1\n  mload\n  swap1\n  0x20\n  add\n  swap1\n  tag_10\n  swap3\n  swap2\n  swap1\n  tag_11\n  jump\t// in\ntag_10:\n  pop\n    /* \"Arevea-NFT-Market/NFT-Contracts/newmultinft/ERC1155.sol\":8366:8454  function _setURI(string memory newuri) internal virtual {\r... */\n  pop\n  jump\t// out\n    /* \"Arevea-NFT-Market/NFT-Contracts/newmultinft/ERC1155.sol\":534:17720  contract ERC1155 is Context, ERC165, IERC1155, IERC1155MetadataURI {\r... */\ntag_11:\n  dup3\n  dup1\n  sload\n  tag_12\n  swap1\n  tag_13\n  jump\t// in\ntag_12:\n  swap1\n  0x00\n  mstore\n  keccak256(0x00, 0x20)\n  swap1\n  0x1f\n  add\n  0x20\n  swap1\n  div\n  dup2\n  add\n  swap3\n  dup3\n  tag_15\n  jumpi\n  0x00\n  dup6\n  sstore\n  jump(tag_14)\ntag_15:\n  dup3\n  0x1f\n  lt\n  tag_16\n  jumpi\n  dup1\n  mload\n  not(0xff)\n  and\n  dup4\n  dup1\n  add\n  or\n  dup6\n  sstore\n  jump(tag_14)\ntag_16:\n  dup3\n  dup1\n  add\n  0x01\n  add\n  dup6\n  sstore\n  dup3\n  iszero\n  tag_14\n  jumpi\n  swap2\n  dup3\n  add\ntag_17:\n  dup3\n  dup2\n  gt\n  iszero\n  tag_18\n  jumpi\n  dup3\n  mload\n  dup3\n  sstore\n  swap2\n  0x20\n  add\n  swap2\n  swap1\n  0x01\n  add\n  swap1\n  jump(tag_17)\ntag_18:\ntag_14:\n  pop\n  swap1\n  pop\n  tag_19\n  swap2\n  swap1\n  tag_20\n  jump\t// in\ntag_19:\n  pop\n  swap1\n  jump\t// out\ntag_20:\ntag_21:\n  dup1\n  dup3\n  gt\n  iszero\n  tag_22\n  jumpi\n  0x00\n  dup2\n  0x00\n  swap1\n  sstore\n  pop\n  0x01\n  add\n  jump(tag_21)\ntag_22:\n  pop\n  swap1\n  jump\t// out\n    /* \"#utility.yul\":7:428   */\ntag_24:\n    /* \"#utility.yul\":96:101   */\n  0x00\n    /* \"#utility.yul\":121:187   */\n  tag_26\n    /* \"#utility.yul\":137:186   */\n  tag_27\n    /* \"#utility.yul\":179:185   */\n  dup5\n    /* \"#utility.yul\":137:186   */\n  tag_28\n  jump\t// in\ntag_27:\n    /* \"#utility.yul\":121:187   */\n  tag_29\n  jump\t// in\ntag_26:\n    /* \"#utility.yul\":112:187   */\n  swap1\n  pop\n    /* \"#utility.yul\":210:216   */\n  dup3\n    /* \"#utility.yul\":203:208   */\n  dup2\n    /* \"#utility.yul\":196:217   */\n  mstore\n    /* \"#utility.yul\":248:252   */\n  0x20\n    /* \"#utility.yul\":241:246   */\n  dup2\n    /* \"#utility.yul\":237:253   */\n  add\n    /* \"#utility.yul\":286:289   */\n  dup5\n    /* \"#utility.yul\":277:283   */\n  dup5\n    /* \"#utility.yul\":272:275   */\n  dup5\n    /* \"#utility.yul\":268:284   */\n  add\n    /* \"#utility.yul\":265:290   */\n  gt\n    /* \"#utility.yul\":262:374   */\n  iszero\n  tag_30\n  jumpi\n    /* \"#utility.yul\":293:372   */\n  tag_31\n  tag_32\n  jump\t// in\ntag_31:\n    /* \"#utility.yul\":262:374   */\ntag_30:\n    /* \"#utility.yul\":383:422   */\n  tag_33\n    /* \"#utility.yul\":415:421   */\n  dup5\n    /* \"#utility.yul\":410:413   */\n  dup3\n    /* \"#utility.yul\":405:408   */\n  dup6\n    /* \"#utility.yul\":383:422   */\n  tag_34\n  jump\t// in\ntag_33:\n    /* \"#utility.yul\":102:428   */\n  pop\n    /* \"#utility.yul\":7:428   */\n  swap4\n  swap3\n  pop\n  pop\n  pop\n  jump\t// out\n    /* \"#utility.yul\":448:803   */\ntag_35:\n    /* \"#utility.yul\":515:520   */\n  0x00\n    /* \"#utility.yul\":564:567   */\n  dup3\n    /* \"#utility.yul\":557:561   */\n  0x1f\n    /* \"#utility.yul\":549:555   */\n  dup4\n    /* \"#utility.yul\":545:562   */\n  add\n    /* \"#utility.yul\":541:568   */\n  slt\n    /* \"#utility.yul\":531:653   */\n  tag_37\n  jumpi\n    /* \"#utility.yul\":572:651   */\n  tag_38\n  tag_39\n  jump\t// in\ntag_38:\n    /* \"#utility.yul\":531:653   */\ntag_37:\n    /* \"#utility.yul\":682:688   */\n  dup2\n    /* \"#utility.yul\":676:689   */\n  mload\n    /* \"#utility.yul\":707:797   */\n  tag_40\n    /* \"#utility.yul\":793:796   */\n  dup5\n    /* \"#utility.yul\":785:791   */\n  dup3\n    /* \"#utility.yul\":778:782   */\n  0x20\n    /* \"#utility.yul\":770:776   */\n  dup7\n    /* \"#utility.yul\":766:783   */\n  add\n    /* \"#utility.yul\":707:797   */\n  tag_24\n  jump\t// in\ntag_40:\n    /* \"#utility.yul\":698:797   */\n  swap2\n  pop\n    /* \"#utility.yul\":521:803   */\n  pop\n    /* \"#utility.yul\":448:803   */\n  swap3\n  swap2\n  pop\n  pop\n  jump\t// out\n    /* \"#utility.yul\":809:1333   */\ntag_3:\n    /* \"#utility.yul\":889:895   */\n  0x00\n    /* \"#utility.yul\":938:940   */\n  0x20\n    /* \"#utility.yul\":926:935   */\n  dup3\n    /* \"#utility.yul\":917:924   */\n  dup5\n    /* \"#utility.yul\":913:936   */\n  sub\n    /* \"#utility.yul\":909:941   */\n  slt\n    /* \"#utility.yul\":906:1025   */\n  iszero\n  tag_42\n  jumpi\n    /* \"#utility.yul\":944:1023   */\n  tag_43\n  tag_44\n  jump\t// in\ntag_43:\n    /* \"#utility.yul\":906:1025   */\ntag_42:\n    /* \"#utility.yul\":1085:1086   */\n  0x00\n    /* \"#utility.yul\":1074:1083   */\n  dup3\n    /* \"#utility.yul\":1070:1087   */\n  add\n    /* \"#utility.yul\":1064:1088   */\n  mload\n    /* \"#utility.yul\":1115:1133   */\n  0xffffffffffffffff\n    /* \"#utility.yul\":1107:1113   */\n  dup2\n    /* \"#utility.yul\":1104:1134   */\n  gt\n    /* \"#utility.yul\":1101:1218   */\n  iszero\n  tag_45\n  jumpi\n    /* \"#utility.yul\":1137:1216   */\n  tag_46\n  tag_47\n  jump\t// in\ntag_46:\n    /* \"#utility.yul\":1101:1218   */\ntag_45:\n    /* \"#utility.yul\":1242:1316   */\n  tag_48\n    /* \"#utility.yul\":1308:1315   */\n  dup5\n    /* \"#utility.yul\":1299:1305   */\n  dup3\n    /* \"#utility.yul\":1288:1297   */\n  dup6\n    /* \"#utility.yul\":1284:1306   */\n  add\n    /* \"#utility.yul\":1242:1316   */\n  tag_35\n  jump\t// in\ntag_48:\n    /* \"#utility.yul\":1232:1316   */\n  swap2\n  pop\n    /* \"#utility.yul\":1035:1326   */\n  pop\n    /* \"#utility.yul\":809:1333   */\n  swap3\n  swap2\n  pop\n  pop\n  jump\t// out\n    /* \"#utility.yul\":1339:1468   */\ntag_29:\n    /* \"#utility.yul\":1373:1379   */\n  0x00\n    /* \"#utility.yul\":1400:1420   */\n  tag_50\n  tag_51\n  jump\t// in\ntag_50:\n    /* \"#utility.yul\":1390:1420   */\n  swap1\n  pop\n    /* \"#utility.yul\":1429:1462   */\n  tag_52\n    /* \"#utility.yul\":1457:1461   */\n  dup3\n    /* \"#utility.yul\":1449:1455   */\n  dup3\n    /* \"#utility.yul\":1429:1462   */\n  tag_53\n  jump\t// in\ntag_52:\n    /* \"#utility.yul\":1339:1468   */\n  swap2\n  swap1\n  pop\n  jump\t// out\n    /* \"#utility.yul\":1474:1549   */\ntag_51:\n    /* \"#utility.yul\":1507:1513   */\n  0x00\n    /* \"#utility.yul\":1540:1542   */\n  0x40\n    /* \"#utility.yul\":1534:1543   */\n  mload\n    /* \"#utility.yul\":1524:1543   */\n  swap1\n  pop\n    /* \"#utility.yul\":1474:1549   */\n  swap1\n  jump\t// out\n    /* \"#utility.yul\":1555:1863   */\ntag_28:\n    /* \"#utility.yul\":1617:1621   */\n  0x00\n    /* \"#utility.yul\":1707:1725   */\n  0xffffffffffffffff\n    /* \"#utility.yul\":1699:1705   */\n  dup3\n    /* \"#utility.yul\":1696:1726   */\n  gt\n    /* \"#utility.yul\":1693:1749   */\n  iszero\n  tag_56\n  jumpi\n    /* \"#utility.yul\":1729:1747   */\n  tag_57\n  tag_58\n  jump\t// in\ntag_57:\n    /* \"#utility.yul\":1693:1749   */\ntag_56:\n    /* \"#utility.yul\":1767:1796   */\n  tag_59\n    /* \"#utility.yul\":1789:1795   */\n  dup3\n    /* \"#utility.yul\":1767:1796   */\n  tag_60\n  jump\t// in\ntag_59:\n    /* \"#utility.yul\":1759:1796   */\n  swap1\n  pop\n    /* \"#utility.yul\":1851:1855   */\n  0x20\n    /* \"#utility.yul\":1845:1849   */\n  dup2\n    /* \"#utility.yul\":1841:1856   */\n  add\n    /* \"#utility.yul\":1833:1856   */\n  swap1\n  pop\n    /* \"#utility.yul\":1555:1863   */\n  swap2\n  swap1\n  pop\n  jump\t// out\n    /* \"#utility.yul\":1869:2176   */\ntag_34:\n    /* \"#utility.yul\":1937:1938   */\n  0x00\n    /* \"#utility.yul\":1947:2060   */\ntag_62:\n    /* \"#utility.yul\":1961:1967   */\n  dup4\n    /* \"#utility.yul\":1958:1959   */\n  dup2\n    /* \"#utility.yul\":1955:1968   */\n  lt\n    /* \"#utility.yul\":1947:2060   */\n  iszero\n  tag_64\n  jumpi\n    /* \"#utility.yul\":2046:2047   */\n  dup1\n    /* \"#utility.yul\":2041:2044   */\n  dup3\n    /* \"#utility.yul\":2037:2048   */\n  add\n    /* \"#utility.yul\":2031:2049   */\n  mload\n    /* \"#utility.yul\":2027:2028   */\n  dup2\n    /* \"#utility.yul\":2022:2025   */\n  dup5\n    /* \"#utility.yul\":2018:2029   */\n  add\n    /* \"#utility.yul\":2011:2050   */\n  mstore\n    /* \"#utility.yul\":1983:1985   */\n  0x20\n    /* \"#utility.yul\":1980:1981   */\n  dup2\n    /* \"#utility.yul\":1976:1986   */\n  add\n    /* \"#utility.yul\":1971:1986   */\n  swap1\n  pop\n    /* \"#utility.yul\":1947:2060   */\n  jump(tag_62)\ntag_64:\n    /* \"#utility.yul\":2078:2084   */\n  dup4\n    /* \"#utility.yul\":2075:2076   */\n  dup2\n    /* \"#utility.yul\":2072:2085   */\n  gt\n    /* \"#utility.yul\":2069:2170   */\n  iszero\n  tag_65\n  jumpi\n    /* \"#utility.yul\":2158:2159   */\n  0x00\n    /* \"#utility.yul\":2149:2155   */\n  dup5\n    /* \"#utility.yul\":2144:2147   */\n  dup5\n    /* \"#utility.yul\":2140:2156   */\n  add\n    /* \"#utility.yul\":2133:2160   */\n  mstore\n    /* \"#utility.yul\":2069:2170   */\ntag_65:\n    /* \"#utility.yul\":1918:2176   */\n  pop\n    /* \"#utility.yul\":1869:2176   */\n  pop\n  pop\n  pop\n  jump\t// out\n    /* \"#utility.yul\":2182:2502   */\ntag_13:\n    /* \"#utility.yul\":2226:2232   */\n  0x00\n    /* \"#utility.yul\":2263:2264   */\n  0x02\n    /* \"#utility.yul\":2257:2261   */\n  dup3\n    /* \"#utility.yul\":2253:2265   */\n  div\n    /* \"#utility.yul\":2243:2265   */\n  swap1\n  pop\n    /* \"#utility.yul\":2310:2311   */\n  0x01\n    /* \"#utility.yul\":2304:2308   */\n  dup3\n    /* \"#utility.yul\":2300:2312   */\n  and\n    /* \"#utility.yul\":2331:2349   */\n  dup1\n    /* \"#utility.yul\":2321:2402   */\n  tag_67\n  jumpi\n    /* \"#utility.yul\":2387:2391   */\n  0x7f\n    /* \"#utility.yul\":2379:2385   */\n  dup3\n    /* \"#utility.yul\":2375:2392   */\n  and\n    /* \"#utility.yul\":2365:2392   */\n  swap2\n  pop\n    /* \"#utility.yul\":2321:2402   */\ntag_67:\n    /* \"#utility.yul\":2449:2451   */\n  0x20\n    /* \"#utility.yul\":2441:2447   */\n  dup3\n    /* \"#utility.yul\":2438:2452   */\n  lt\n    /* \"#utility.yul\":2418:2436   */\n  dup2\n    /* \"#utility.yul\":2415:2453   */\n  eq\n    /* \"#utility.yul\":2412:2496   */\n  iszero\n  tag_68\n  jumpi\n    /* \"#utility.yul\":2468:2486   */\n  tag_69\n  tag_70\n  jump\t// in\ntag_69:\n    /* \"#utility.yul\":2412:2496   */\ntag_68:\n    /* \"#utility.yul\":2233:2502   */\n  pop\n    /* \"#utility.yul\":2182:2502   */\n  swap2\n  swap1\n  pop\n  jump\t// out\n    /* \"#utility.yul\":2508:2789   */\ntag_53:\n    /* \"#utility.yul\":2591:2618   */\n  tag_72\n    /* \"#utility.yul\":2613:2617   */\n  dup3\n    /* \"#utility.yul\":2591:2618   */\n  tag_60\n  jump\t// in\ntag_72:\n    /* \"#utility.yul\":2583:2589   */\n  dup2\n    /* \"#utility.yul\":2579:2619   */\n  add\n    /* \"#utility.yul\":2721:2727   */\n  dup2\n    /* \"#utility.yul\":2709:2719   */\n  dup2\n    /* \"#utility.yul\":2706:2728   */\n  lt\n    /* \"#utility.yul\":2685:2703   */\n  0xffffffffffffffff\n    /* \"#utility.yul\":2673:2683   */\n  dup3\n    /* \"#utility.yul\":2670:2704   */\n  gt\n    /* \"#utility.yul\":2667:2729   */\n  or\n    /* \"#utility.yul\":2664:2752   */\n  iszero\n  tag_73\n  jumpi\n    /* \"#utility.yul\":2732:2750   */\n  tag_74\n  tag_58\n  jump\t// in\ntag_74:\n    /* \"#utility.yul\":2664:2752   */\ntag_73:\n    /* \"#utility.yul\":2772:2782   */\n  dup1\n    /* \"#utility.yul\":2768:2770   */\n  0x40\n    /* \"#utility.yul\":2761:2783   */\n  mstore\n    /* \"#utility.yul\":2551:2789   */\n  pop\n    /* \"#utility.yul\":2508:2789   */\n  pop\n  pop\n  jump\t// out\n    /* \"#utility.yul\":2795:2975   */\ntag_70:\n    /* \"#utility.yul\":2843:2920   */\n  0x4e487b7100000000000000000000000000000000000000000000000000000000\n    /* \"#utility.yul\":2840:2841   */\n  0x00\n    /* \"#utility.yul\":2833:2921   */\n  mstore\n    /* \"#utility.yul\":2940:2944   */\n  0x22\n    /* \"#utility.yul\":2937:2938   */\n  0x04\n    /* \"#utility.yul\":2930:2945   */\n  mstore\n    /* \"#utility.yul\":2964:2968   */\n  0x24\n    /* \"#utility.yul\":2961:2962   */\n  0x00\n    /* \"#utility.yul\":2954:2969   */\n  revert\n    /* \"#utility.yul\":2981:3161   */\ntag_58:\n    /* \"#utility.yul\":3029:3106   */\n  0x4e487b7100000000000000000000000000000000000000000000000000000000\n    /* \"#utility.yul\":3026:3027   */\n  0x00\n    /* \"#utility.yul\":3019:3107   */\n  mstore\n    /* \"#utility.yul\":3126:3130   */\n  0x41\n    /* \"#utility.yul\":3123:3124   */\n  0x04\n    /* \"#utility.yul\":3116:3131   */\n  mstore\n    /* \"#utility.yul\":3150:3154   */\n  0x24\n    /* \"#utility.yul\":3147:3148   */\n  0x00\n    /* \"#utility.yul\":3140:3155   */\n  revert\n    /* \"#utility.yul\":3167:3284   */\ntag_39:\n    /* \"#utility.yul\":3276:3277   */\n  0x00\n    /* \"#utility.yul\":3273:3274   */\n  dup1\n    /* \"#utility.yul\":3266:3278   */\n  revert\n    /* \"#utility.yul\":3290:3407   */\ntag_32:\n    /* \"#utility.yul\":3399:3400   */\n  0x00\n    /* \"#utility.yul\":3396:3397   */\n  dup1\n    /* \"#utility.yul\":3389:3401   */\n  revert\n    /* \"#utility.yul\":3413:3530   */\ntag_47:\n    /* \"#utility.yul\":3522:3523   */\n  0x00\n    /* \"#utility.yul\":3519:3520   */\n  dup1\n    /* \"#utility.yul\":3512:3524   */\n  revert\n    /* \"#utility.yul\":3536:3653   */\ntag_44:\n    /* \"#utility.yul\":3645:3646   */\n  0x00\n    /* \"#utility.yul\":3642:3643   */\n  dup1\n    /* \"#utility.yul\":3635:3647   */\n  revert\n    /* \"#utility.yul\":3659:3761   */\ntag_60:\n    /* \"#utility.yul\":3700:3706   */\n  0x00\n    /* \"#utility.yul\":3751:3753   */\n  0x1f\n    /* \"#utility.yul\":3747:3754   */\n  not\n    /* \"#utility.yul\":3742:3744   */\n  0x1f\n    /* \"#utility.yul\":3735:3740   */\n  dup4\n    /* \"#utility.yul\":3731:3745   */\n  add\n    /* \"#utility.yul\":3727:3755   */\n  and\n    /* \"#utility.yul\":3717:3755   */\n  swap1\n  pop\n    /* \"#utility.yul\":3659:3761   */\n  swap2\n  swap1\n  pop\n  jump\t// out\n    /* \"Arevea-NFT-Market/NFT-Contracts/newmultinft/ERC1155.sol\":534:17720  contract ERC1155 is Context, ERC165, IERC1155, IERC1155MetadataURI {\r... */\ntag_8:\n  dataSize(sub_0)\n  dup1\n  dataOffset(sub_0)\n  0x00\n  codecopy\n  0x00\n  return\nstop\n\nsub_0: assembly {\n        /* \"Arevea-NFT-Market/NFT-Contracts/newmultinft/ERC1155.sol\":534:17720  contract ERC1155 is Context, ERC165, IERC1155, IERC1155MetadataURI {\r... */\n      mstore(0x40, 0x80)\n      callvalue\n      dup1\n      iszero\n      tag_1\n      jumpi\n      0x00\n      dup1\n      revert\n    tag_1:\n      pop\n      jumpi(tag_2, lt(calldatasize, 0x04))\n      shr(0xe0, calldataload(0x00))\n      dup1\n      0x4e1273f4\n      gt\n      tag_11\n      jumpi\n      dup1\n      0x4e1273f4\n      eq\n      tag_7\n      jumpi\n      dup1\n      0xa22cb465\n      eq\n      tag_8\n      jumpi\n      dup1\n      0xe985e9c5\n      eq\n      tag_9\n      jumpi\n      dup1\n      0xf242432a\n      eq\n      tag_10\n      jumpi\n      jump(tag_2)\n    tag_11:\n      dup1\n      0xfdd58e\n      eq\n      tag_3\n      jumpi\n      dup1\n      0x01ffc9a7\n      eq\n      tag_4\n      jumpi\n      dup1\n      0x0e89341c\n      eq\n      tag_5\n      jumpi\n      dup1\n      0x2eb2c2d6\n      eq\n      tag_6\n      jumpi\n    tag_2:\n      0x00\n      dup1\n      revert\n        /* \"Arevea-NFT-Market/NFT-Contracts/newmultinft/ERC1155.sol\":2199:2429  function balanceOf(address account, uint256 id) public view virtual override returns (uint256) {\r... */\n    tag_3:\n      tag_12\n      0x04\n      dup1\n      calldatasize\n      sub\n      dup2\n      add\n      swap1\n      tag_13\n      swap2\n      swap1\n      tag_14\n      jump\t// in\n    tag_13:\n      tag_15\n      jump\t// in\n    tag_12:\n      mload(0x40)\n      tag_16\n      swap2\n      swap1\n      tag_17\n      jump\t// in\n    tag_16:\n      mload(0x40)\n      dup1\n      swap2\n      sub\n      swap1\n      return\n        /* \"Arevea-NFT-Market/NFT-Contracts/newmultinft/ERC1155.sol\":1222:1532  function supportsInterface(bytes4 interfaceId) public view virtual override(ERC165, IERC165) returns (bool) {\r... */\n    tag_4:\n      tag_18\n      0x04\n      dup1\n      calldatasize\n      sub\n      dup2\n      add\n      swap1\n      tag_19\n      swap2\n      swap1\n      tag_20\n      jump\t// in\n    tag_19:\n      tag_21\n      jump\t// in\n    tag_18:\n      mload(0x40)\n      tag_22\n      swap2\n      swap1\n      tag_23\n      jump\t// in\n    tag_22:\n      mload(0x40)\n      dup1\n      swap2\n      sub\n      swap1\n      return\n        /* \"Arevea-NFT-Market/NFT-Contracts/newmultinft/ERC1155.sol\":1943:2048  function uri(uint256) public view virtual override returns (string memory) {\r... */\n    tag_5:\n      tag_24\n      0x04\n      dup1\n      calldatasize\n      sub\n      dup2\n      add\n      swap1\n      tag_25\n      swap2\n      swap1\n      tag_26\n      jump\t// in\n    tag_25:\n      tag_27\n      jump\t// in\n    tag_24:\n      mload(0x40)\n      tag_28\n      swap2\n      swap1\n      tag_29\n      jump\t// in\n    tag_28:\n      mload(0x40)\n      dup1\n      swap2\n      sub\n      swap1\n      return\n        /* \"Arevea-NFT-Market/NFT-Contracts/newmultinft/ERC1155.sol\":4142:4580  function safeBatchTransferFrom(\r... */\n    tag_6:\n      tag_30\n      0x04\n      dup1\n      calldatasize\n      sub\n      dup2\n      add\n      swap1\n      tag_31\n      swap2\n      swap1\n      tag_32\n      jump\t// in\n    tag_31:\n      tag_33\n      jump\t// in\n    tag_30:\n      stop\n        /* \"Arevea-NFT-Market/NFT-Contracts/newmultinft/ERC1155.sol\":2595:3119  function balanceOfBatch(address[] memory accounts, uint256[] memory ids)\r... */\n    tag_7:\n      tag_34\n      0x04\n      dup1\n      calldatasize\n      sub\n      dup2\n      add\n      swap1\n      tag_35\n      swap2\n      swap1\n      tag_36\n      jump\t// in\n    tag_35:\n      tag_37\n      jump\t// in\n    tag_34:\n      mload(0x40)\n      tag_38\n      swap2\n      swap1\n      tag_39\n      jump\t// in\n    tag_38:\n      mload(0x40)\n      dup1\n      swap2\n      sub\n      swap1\n      return\n        /* \"Arevea-NFT-Market/NFT-Contracts/newmultinft/ERC1155.sol\":3192:3347  function setApprovalForAll(address operator, bool approved) public virtual override {\r... */\n    tag_8:\n      tag_40\n      0x04\n      dup1\n      calldatasize\n      sub\n      dup2\n      add\n      swap1\n      tag_41\n      swap2\n      swap1\n      tag_42\n      jump\t// in\n    tag_41:\n      tag_43\n      jump\t// in\n    tag_40:\n      stop\n        /* \"Arevea-NFT-Market/NFT-Contracts/newmultinft/ERC1155.sol\":3419:3587  function isApprovedForAll(address account, address operator) public view virtual override returns (bool) {\r... */\n    tag_9:\n      tag_44\n      0x04\n      dup1\n      calldatasize\n      sub\n      dup2\n      add\n      swap1\n      tag_45\n      swap2\n      swap1\n      tag_46\n      jump\t// in\n    tag_45:\n      tag_47\n      jump\t// in\n    tag_44:\n      mload(0x40)\n      tag_48\n      swap2\n      swap1\n      tag_23\n      jump\t// in\n    tag_48:\n      mload(0x40)\n      dup1\n      swap2\n      sub\n      swap1\n      return\n        /* \"Arevea-NFT-Market/NFT-Contracts/newmultinft/ERC1155.sol\":3659:4065  function safeTransferFrom(\r... */\n    tag_10:\n      tag_49\n      0x04\n      dup1\n      calldatasize\n      sub\n      dup2\n      add\n      swap1\n      tag_50\n      swap2\n      swap1\n      tag_51\n      jump\t// in\n    tag_50:\n      tag_52\n      jump\t// in\n    tag_49:\n      stop\n        /* \"Arevea-NFT-Market/NFT-Contracts/newmultinft/ERC1155.sol\":2199:2429  function balanceOf(address account, uint256 id) public view virtual override returns (uint256) {\r... */\n    tag_15:\n        /* \"Arevea-NFT-Market/NFT-Contracts/newmultinft/ERC1155.sol\":2285:2292  uint256 */\n      0x00\n        /* \"Arevea-NFT-Market/NFT-Contracts/newmultinft/ERC1155.sol\":2332:2333  0 */\n      dup1\n        /* \"Arevea-NFT-Market/NFT-Contracts/newmultinft/ERC1155.sol\":2313:2334  account != address(0) */\n      0xffffffffffffffffffffffffffffffffffffffff\n      and\n        /* \"Arevea-NFT-Market/NFT-Contracts/newmultinft/ERC1155.sol\":2313:2320  account */\n      dup4\n        /* \"Arevea-NFT-Market/NFT-Contracts/newmultinft/ERC1155.sol\":2313:2334  account != address(0) */\n      0xffffffffffffffffffffffffffffffffffffffff\n      and\n      eq\n      iszero\n        /* \"Arevea-NFT-Market/NFT-Contracts/newmultinft/ERC1155.sol\":2305:2381  require(account != address(0), \"ERC1155: address zero is not a valid owner\") */\n      tag_54\n      jumpi\n      mload(0x40)\n      0x08c379a000000000000000000000000000000000000000000000000000000000\n      dup2\n      mstore\n      0x04\n      add\n      tag_55\n      swap1\n      tag_56\n      jump\t// in\n    tag_55:\n      mload(0x40)\n      dup1\n      swap2\n      sub\n      swap1\n      revert\n    tag_54:\n        /* \"Arevea-NFT-Market/NFT-Contracts/newmultinft/ERC1155.sol\":2399:2408  _balances */\n      0x00\n        /* \"Arevea-NFT-Market/NFT-Contracts/newmultinft/ERC1155.sol\":2399:2412  _balances[id] */\n      dup1\n        /* \"Arevea-NFT-Market/NFT-Contracts/newmultinft/ERC1155.sol\":2409:2411  id */\n      dup4\n        /* \"Arevea-NFT-Market/NFT-Contracts/newmultinft/ERC1155.sol\":2399:2412  _balances[id] */\n      dup2\n      mstore\n      0x20\n      add\n      swap1\n      dup2\n      mstore\n      0x20\n      add\n      0x00\n      keccak256\n        /* \"Arevea-NFT-Market/NFT-Contracts/newmultinft/ERC1155.sol\":2399:2421  _balances[id][account] */\n      0x00\n        /* \"Arevea-NFT-Market/NFT-Contracts/newmultinft/ERC1155.sol\":2413:2420  account */\n      dup5\n        /* \"Arevea-NFT-Market/NFT-Contracts/newmultinft/ERC1155.sol\":2399:2421  _balances[id][account] */\n      0xffffffffffffffffffffffffffffffffffffffff\n      and\n      0xffffffffffffffffffffffffffffffffffffffff\n      and\n      dup2\n      mstore\n      0x20\n      add\n      swap1\n      dup2\n      mstore\n      0x20\n      add\n      0x00\n      keccak256\n      sload\n        /* \"Arevea-NFT-Market/NFT-Contracts/newmultinft/ERC1155.sol\":2392:2421  return _balances[id][account] */\n      swap1\n      pop\n        /* \"Arevea-NFT-Market/NFT-Contracts/newmultinft/ERC1155.sol\":2199:2429  function balanceOf(address account, uint256 id) public view virtual override returns (uint256) {\r... */\n      swap3\n      swap2\n      pop\n      pop\n      jump\t// out\n        /* \"Arevea-NFT-Market/NFT-Contracts/newmultinft/ERC1155.sol\":1222:1532  function supportsInterface(bytes4 interfaceId) public view virtual override(ERC165, IERC165) returns (bool) {\r... */\n    tag_21:\n        /* \"Arevea-NFT-Market/NFT-Contracts/newmultinft/ERC1155.sol\":1324:1328  bool */\n      0x00\n        /* \"Arevea-NFT-Market/NFT-Contracts/newmultinft/ERC1155.sol\":1376:1402  type(IERC1155).interfaceId */\n      0xd9b67a2600000000000000000000000000000000000000000000000000000000\n        /* \"Arevea-NFT-Market/NFT-Contracts/newmultinft/ERC1155.sol\":1361:1402  interfaceId == type(IERC1155).interfaceId */\n      not(0xffffffffffffffffffffffffffffffffffffffffffffffffffffffff)\n      and\n        /* \"Arevea-NFT-Market/NFT-Contracts/newmultinft/ERC1155.sol\":1361:1372  interfaceId */\n      dup3\n        /* \"Arevea-NFT-Market/NFT-Contracts/newmultinft/ERC1155.sol\":1361:1402  interfaceId == type(IERC1155).interfaceId */\n      not(0xffffffffffffffffffffffffffffffffffffffffffffffffffffffff)\n      and\n      eq\n        /* \"Arevea-NFT-Market/NFT-Contracts/newmultinft/ERC1155.sol\":1361:1471  interfaceId == type(IERC1155).interfaceId ||\r... */\n      dup1\n      tag_58\n      jumpi\n      pop\n        /* \"Arevea-NFT-Market/NFT-Contracts/newmultinft/ERC1155.sol\":1434:1471  type(IERC1155MetadataURI).interfaceId */\n      0x0e89341c00000000000000000000000000000000000000000000000000000000\n        /* \"Arevea-NFT-Market/NFT-Contracts/newmultinft/ERC1155.sol\":1419:1471  interfaceId == type(IERC1155MetadataURI).interfaceId */\n      not(0xffffffffffffffffffffffffffffffffffffffffffffffffffffffff)\n      and\n        /* \"Arevea-NFT-Market/NFT-Contracts/newmultinft/ERC1155.sol\":1419:1430  interfaceId */\n      dup3\n        /* \"Arevea-NFT-Market/NFT-Contracts/newmultinft/ERC1155.sol\":1419:1471  interfaceId == type(IERC1155MetadataURI).interfaceId */\n      not(0xffffffffffffffffffffffffffffffffffffffffffffffffffffffff)\n      and\n      eq\n        /* \"Arevea-NFT-Market/NFT-Contracts/newmultinft/ERC1155.sol\":1361:1471  interfaceId == type(IERC1155).interfaceId ||\r... */\n    tag_58:\n        /* \"Arevea-NFT-Market/NFT-Contracts/newmultinft/ERC1155.sol\":1361:1524  interfaceId == type(IERC1155).interfaceId ||\r... */\n      dup1\n      tag_59\n      jumpi\n      pop\n        /* \"Arevea-NFT-Market/NFT-Contracts/newmultinft/ERC1155.sol\":1488:1524  super.supportsInterface(interfaceId) */\n      tag_60\n        /* \"Arevea-NFT-Market/NFT-Contracts/newmultinft/ERC1155.sol\":1512:1523  interfaceId */\n      dup3\n        /* \"Arevea-NFT-Market/NFT-Contracts/newmultinft/ERC1155.sol\":1488:1511  super.supportsInterface */\n      tag_61\n        /* \"Arevea-NFT-Market/NFT-Contracts/newmultinft/ERC1155.sol\":1488:1524  super.supportsInterface(interfaceId) */\n      jump\t// in\n    tag_60:\n        /* \"Arevea-NFT-Market/NFT-Contracts/newmultinft/ERC1155.sol\":1361:1524  interfaceId == type(IERC1155).interfaceId ||\r... */\n    tag_59:\n        /* \"Arevea-NFT-Market/NFT-Contracts/newmultinft/ERC1155.sol\":1341:1524  return\r... */\n      swap1\n      pop\n        /* \"Arevea-NFT-Market/NFT-Contracts/newmultinft/ERC1155.sol\":1222:1532  function supportsInterface(bytes4 interfaceId) public view virtual override(ERC165, IERC165) returns (bool) {\r... */\n      swap2\n      swap1\n      pop\n      jump\t// out\n        /* \"Arevea-NFT-Market/NFT-Contracts/newmultinft/ERC1155.sol\":1943:2048  function uri(uint256) public view virtual override returns (string memory) {\r... */\n    tag_27:\n        /* \"Arevea-NFT-Market/NFT-Contracts/newmultinft/ERC1155.sol\":2003:2016  string memory */\n      0x60\n        /* \"Arevea-NFT-Market/NFT-Contracts/newmultinft/ERC1155.sol\":2036:2040  _uri */\n      0x02\n        /* \"Arevea-NFT-Market/NFT-Contracts/newmultinft/ERC1155.sol\":2029:2040  return _uri */\n      dup1\n      sload\n      tag_63\n      swap1\n      tag_64\n      jump\t// in\n    tag_63:\n      dup1\n      0x1f\n      add\n      0x20\n      dup1\n      swap2\n      div\n      mul\n      0x20\n      add\n      mload(0x40)\n      swap1\n      dup2\n      add\n      0x40\n      mstore\n      dup1\n      swap3\n      swap2\n      swap1\n      dup2\n      dup2\n      mstore\n      0x20\n      add\n      dup3\n      dup1\n      sload\n      tag_65\n      swap1\n      tag_64\n      jump\t// in\n    tag_65:\n      dup1\n      iszero\n      tag_66\n      jumpi\n      dup1\n      0x1f\n      lt\n      tag_67\n      jumpi\n      0x0100\n      dup1\n      dup4\n      sload\n      div\n      mul\n      dup4\n      mstore\n      swap2\n      0x20\n      add\n      swap2\n      jump(tag_66)\n    tag_67:\n      dup3\n      add\n      swap2\n      swap1\n      0x00\n      mstore\n      keccak256(0x00, 0x20)\n      swap1\n    tag_68:\n      dup2\n      sload\n      dup2\n      mstore\n      swap1\n      0x01\n      add\n      swap1\n      0x20\n      add\n      dup1\n      dup4\n      gt\n      tag_68\n      jumpi\n      dup3\n      swap1\n      sub\n      0x1f\n      and\n      dup3\n      add\n      swap2\n    tag_66:\n      pop\n      pop\n      pop\n      pop\n      pop\n      swap1\n      pop\n        /* \"Arevea-NFT-Market/NFT-Contracts/newmultinft/ERC1155.sol\":1943:2048  function uri(uint256) public view virtual override returns (string memory) {\r... */\n      swap2\n      swap1\n      pop\n      jump\t// out\n        /* \"Arevea-NFT-Market/NFT-Contracts/newmultinft/ERC1155.sol\":4142:4580  function safeBatchTransferFrom(\r... */\n    tag_33:\n        /* \"Arevea-NFT-Market/NFT-Contracts/newmultinft/ERC1155.sol\":4383:4395  _msgSender() */\n      tag_70\n        /* \"Arevea-NFT-Market/NFT-Contracts/newmultinft/ERC1155.sol\":4383:4393  _msgSender */\n      tag_71\n        /* \"Arevea-NFT-Market/NFT-Contracts/newmultinft/ERC1155.sol\":4383:4395  _msgSender() */\n      jump\t// in\n    tag_70:\n        /* \"Arevea-NFT-Market/NFT-Contracts/newmultinft/ERC1155.sol\":4375:4395  from == _msgSender() */\n      0xffffffffffffffffffffffffffffffffffffffff\n      and\n        /* \"Arevea-NFT-Market/NFT-Contracts/newmultinft/ERC1155.sol\":4375:4379  from */\n      dup6\n        /* \"Arevea-NFT-Market/NFT-Contracts/newmultinft/ERC1155.sol\":4375:4395  from == _msgSender() */\n      0xffffffffffffffffffffffffffffffffffffffff\n      and\n      eq\n        /* \"Arevea-NFT-Market/NFT-Contracts/newmultinft/ERC1155.sol\":4375:4435  from == _msgSender() || isApprovedForAll(from, _msgSender()) */\n      dup1\n      tag_72\n      jumpi\n      pop\n        /* \"Arevea-NFT-Market/NFT-Contracts/newmultinft/ERC1155.sol\":4399:4435  isApprovedForAll(from, _msgSender()) */\n      tag_73\n        /* \"Arevea-NFT-Market/NFT-Contracts/newmultinft/ERC1155.sol\":4416:4420  from */\n      dup6\n        /* \"Arevea-NFT-Market/NFT-Contracts/newmultinft/ERC1155.sol\":4422:4434  _msgSender() */\n      tag_74\n        /* \"Arevea-NFT-Market/NFT-Contracts/newmultinft/ERC1155.sol\":4422:4432  _msgSender */\n      tag_71\n        /* \"Arevea-NFT-Market/NFT-Contracts/newmultinft/ERC1155.sol\":4422:4434  _msgSender() */\n      jump\t// in\n    tag_74:\n        /* \"Arevea-NFT-Market/NFT-Contracts/newmultinft/ERC1155.sol\":4399:4415  isApprovedForAll */\n      tag_47\n        /* \"Arevea-NFT-Market/NFT-Contracts/newmultinft/ERC1155.sol\":4399:4435  isApprovedForAll(from, _msgSender()) */\n      jump\t// in\n    tag_73:\n        /* \"Arevea-NFT-Market/NFT-Contracts/newmultinft/ERC1155.sol\":4375:4435  from == _msgSender() || isApprovedForAll(from, _msgSender()) */\n    tag_72:\n        /* \"Arevea-NFT-Market/NFT-Contracts/newmultinft/ERC1155.sol\":4353:4509  require(\r... */\n      tag_75\n      jumpi\n      mload(0x40)\n      0x08c379a000000000000000000000000000000000000000000000000000000000\n      dup2\n      mstore\n      0x04\n      add\n      tag_76\n      swap1\n      tag_77\n      jump\t// in\n    tag_76:\n      mload(0x40)\n      dup1\n      swap2\n      sub\n      swap1\n      revert\n    tag_75:\n        /* \"Arevea-NFT-Market/NFT-Contracts/newmultinft/ERC1155.sol\":4520:4572  _safeBatchTransferFrom(from, to, ids, amounts, data) */\n      tag_78\n        /* \"Arevea-NFT-Market/NFT-Contracts/newmultinft/ERC1155.sol\":4543:4547  from */\n      dup6\n        /* \"Arevea-NFT-Market/NFT-Contracts/newmultinft/ERC1155.sol\":4549:4551  to */\n      dup6\n        /* \"Arevea-NFT-Market/NFT-Contracts/newmultinft/ERC1155.sol\":4553:4556  ids */\n      dup6\n        /* \"Arevea-NFT-Market/NFT-Contracts/newmultinft/ERC1155.sol\":4558:4565  amounts */\n      dup6\n        /* \"Arevea-NFT-Market/NFT-Contracts/newmultinft/ERC1155.sol\":4567:4571  data */\n      dup6\n        /* \"Arevea-NFT-Market/NFT-Contracts/newmultinft/ERC1155.sol\":4520:4542  _safeBatchTransferFrom */\n      tag_79\n        /* \"Arevea-NFT-Market/NFT-Contracts/newmultinft/ERC1155.sol\":4520:4572  _safeBatchTransferFrom(from, to, ids, amounts, data) */\n      jump\t// in\n    tag_78:\n        /* \"Arevea-NFT-Market/NFT-Contracts/newmultinft/ERC1155.sol\":4142:4580  function safeBatchTransferFrom(\r... */\n      pop\n      pop\n      pop\n      pop\n      pop\n      jump\t// out\n        /* \"Arevea-NFT-Market/NFT-Contracts/newmultinft/ERC1155.sol\":2595:3119  function balanceOfBatch(address[] memory accounts, uint256[] memory ids)\r... */\n    tag_37:\n        /* \"Arevea-NFT-Market/NFT-Contracts/newmultinft/ERC1155.sol\":2751:2767  uint256[] memory */\n      0x60\n        /* \"Arevea-NFT-Market/NFT-Contracts/newmultinft/ERC1155.sol\":2812:2815  ids */\n      dup2\n        /* \"Arevea-NFT-Market/NFT-Contracts/newmultinft/ERC1155.sol\":2812:2822  ids.length */\n      mload\n        /* \"Arevea-NFT-Market/NFT-Contracts/newmultinft/ERC1155.sol\":2793:2801  accounts */\n      dup4\n        /* \"Arevea-NFT-Market/NFT-Contracts/newmultinft/ERC1155.sol\":2793:2808  accounts.length */\n      mload\n        /* \"Arevea-NFT-Market/NFT-Contracts/newmultinft/ERC1155.sol\":2793:2822  accounts.length == ids.length */\n      eq\n        /* \"Arevea-NFT-Market/NFT-Contracts/newmultinft/ERC1155.sol\":2785:2868  require(accounts.length == ids.length, \"ERC1155: accounts and ids length mismatch\") */\n      tag_81\n      jumpi\n      mload(0x40)\n      0x08c379a000000000000000000000000000000000000000000000000000000000\n      dup2\n      mstore\n      0x04\n      add\n      tag_82\n      swap1\n      tag_83\n      jump\t// in\n    tag_82:\n      mload(0x40)\n      dup1\n      swap2\n      sub\n      swap1\n      revert\n    tag_81:\n        /* \"Arevea-NFT-Market/NFT-Contracts/newmultinft/ERC1155.sol\":2881:2911  uint256[] memory batchBalances */\n      0x00\n        /* \"Arevea-NFT-Market/NFT-Contracts/newmultinft/ERC1155.sol\":2928:2936  accounts */\n      dup4\n        /* \"Arevea-NFT-Market/NFT-Contracts/newmultinft/ERC1155.sol\":2928:2943  accounts.length */\n      mload\n        /* \"Arevea-NFT-Market/NFT-Contracts/newmultinft/ERC1155.sol\":2914:2944  new uint256[](accounts.length) */\n      0xffffffffffffffff\n      dup2\n      gt\n      iszero\n      tag_84\n      jumpi\n      tag_85\n      tag_86\n      jump\t// in\n    tag_85:\n    tag_84:\n      mload(0x40)\n      swap1\n      dup1\n      dup3\n      mstore\n      dup1\n      0x20\n      mul\n      0x20\n      add\n      dup3\n      add\n      0x40\n      mstore\n      dup1\n      iszero\n      tag_87\n      jumpi\n      dup2\n      0x20\n      add\n      0x20\n      dup3\n      mul\n      dup1\n      calldatasize\n      dup4\n      calldatacopy\n      dup1\n      dup3\n      add\n      swap2\n      pop\n      pop\n      swap1\n      pop\n    tag_87:\n      pop\n        /* \"Arevea-NFT-Market/NFT-Contracts/newmultinft/ERC1155.sol\":2881:2944  uint256[] memory batchBalances = new uint256[](accounts.length) */\n      swap1\n      pop\n        /* \"Arevea-NFT-Market/NFT-Contracts/newmultinft/ERC1155.sol\":2962:2971  uint256 i */\n      0x00\n        /* \"Arevea-NFT-Market/NFT-Contracts/newmultinft/ERC1155.sol\":2957:3079  for (uint256 i = 0; i < accounts.length; ++i) {\r... */\n    tag_88:\n        /* \"Arevea-NFT-Market/NFT-Contracts/newmultinft/ERC1155.sol\":2981:2989  accounts */\n      dup5\n        /* \"Arevea-NFT-Market/NFT-Contracts/newmultinft/ERC1155.sol\":2981:2996  accounts.length */\n      mload\n        /* \"Arevea-NFT-Market/NFT-Contracts/newmultinft/ERC1155.sol\":2977:2978  i */\n      dup2\n        /* \"Arevea-NFT-Market/NFT-Contracts/newmultinft/ERC1155.sol\":2977:2996  i < accounts.length */\n      lt\n        /* \"Arevea-NFT-Market/NFT-Contracts/newmultinft/ERC1155.sol\":2957:3079  for (uint256 i = 0; i < accounts.length; ++i) {\r... */\n      iszero\n      tag_89\n      jumpi\n        /* \"Arevea-NFT-Market/NFT-Contracts/newmultinft/ERC1155.sol\":3037:3067  balanceOf(accounts[i], ids[i]) */\n      tag_91\n        /* \"Arevea-NFT-Market/NFT-Contracts/newmultinft/ERC1155.sol\":3047:3055  accounts */\n      dup6\n        /* \"Arevea-NFT-Market/NFT-Contracts/newmultinft/ERC1155.sol\":3056:3057  i */\n      dup3\n        /* \"Arevea-NFT-Market/NFT-Contracts/newmultinft/ERC1155.sol\":3047:3058  accounts[i] */\n      dup2\n      mload\n      dup2\n      lt\n      tag_92\n      jumpi\n      tag_93\n      tag_94\n      jump\t// in\n    tag_93:\n    tag_92:\n      0x20\n      mul\n      0x20\n      add\n      add\n      mload\n        /* \"Arevea-NFT-Market/NFT-Contracts/newmultinft/ERC1155.sol\":3060:3063  ids */\n      dup6\n        /* \"Arevea-NFT-Market/NFT-Contracts/newmultinft/ERC1155.sol\":3064:3065  i */\n      dup4\n        /* \"Arevea-NFT-Market/NFT-Contracts/newmultinft/ERC1155.sol\":3060:3066  ids[i] */\n      dup2\n      mload\n      dup2\n      lt\n      tag_95\n      jumpi\n      tag_96\n      tag_94\n      jump\t// in\n    tag_96:\n    tag_95:\n      0x20\n      mul\n      0x20\n      add\n      add\n      mload\n        /* \"Arevea-NFT-Market/NFT-Contracts/newmultinft/ERC1155.sol\":3037:3046  balanceOf */\n      tag_15\n        /* \"Arevea-NFT-Market/NFT-Contracts/newmultinft/ERC1155.sol\":3037:3067  balanceOf(accounts[i], ids[i]) */\n      jump\t// in\n    tag_91:\n        /* \"Arevea-NFT-Market/NFT-Contracts/newmultinft/ERC1155.sol\":3018:3031  batchBalances */\n      dup3\n        /* \"Arevea-NFT-Market/NFT-Contracts/newmultinft/ERC1155.sol\":3032:3033  i */\n      dup3\n        /* \"Arevea-NFT-Market/NFT-Contracts/newmultinft/ERC1155.sol\":3018:3034  batchBalances[i] */\n      dup2\n      mload\n      dup2\n      lt\n      tag_97\n      jumpi\n      tag_98\n      tag_94\n      jump\t// in\n    tag_98:\n    tag_97:\n      0x20\n      mul\n      0x20\n      add\n      add\n        /* \"Arevea-NFT-Market/NFT-Contracts/newmultinft/ERC1155.sol\":3018:3067  batchBalances[i] = balanceOf(accounts[i], ids[i]) */\n      dup2\n      dup2\n      mstore\n      pop\n      pop\n        /* \"Arevea-NFT-Market/NFT-Contracts/newmultinft/ERC1155.sol\":2998:3001  ++i */\n      dup1\n      tag_99\n      swap1\n      tag_100\n      jump\t// in\n    tag_99:\n      swap1\n      pop\n        /* \"Arevea-NFT-Market/NFT-Contracts/newmultinft/ERC1155.sol\":2957:3079  for (uint256 i = 0; i < accounts.length; ++i) {\r... */\n      jump(tag_88)\n    tag_89:\n      pop\n        /* \"Arevea-NFT-Market/NFT-Contracts/newmultinft/ERC1155.sol\":3098:3111  batchBalances */\n      dup1\n        /* \"Arevea-NFT-Market/NFT-Contracts/newmultinft/ERC1155.sol\":3091:3111  return batchBalances */\n      swap2\n      pop\n      pop\n        /* \"Arevea-NFT-Market/NFT-Contracts/newmultinft/ERC1155.sol\":2595:3119  function balanceOfBatch(address[] memory accounts, uint256[] memory ids)\r... */\n      swap3\n      swap2\n      pop\n      pop\n      jump\t// out\n        /* \"Arevea-NFT-Market/NFT-Contracts/newmultinft/ERC1155.sol\":3192:3347  function setApprovalForAll(address operator, bool approved) public virtual override {\r... */\n    tag_43:\n        /* \"Arevea-NFT-Market/NFT-Contracts/newmultinft/ERC1155.sol\":3287:3339  _setApprovalForAll(_msgSender(), operator, approved) */\n      tag_102\n        /* \"Arevea-NFT-Market/NFT-Contracts/newmultinft/ERC1155.sol\":3306:3318  _msgSender() */\n      tag_103\n        /* \"Arevea-NFT-Market/NFT-Contracts/newmultinft/ERC1155.sol\":3306:3316  _msgSender */\n      tag_71\n        /* \"Arevea-NFT-Market/NFT-Contracts/newmultinft/ERC1155.sol\":3306:3318  _msgSender() */\n      jump\t// in\n    tag_103:\n        /* \"Arevea-NFT-Market/NFT-Contracts/newmultinft/ERC1155.sol\":3320:3328  operator */\n      dup4\n        /* \"Arevea-NFT-Market/NFT-Contracts/newmultinft/ERC1155.sol\":3330:3338  approved */\n      dup4\n        /* \"Arevea-NFT-Market/NFT-Contracts/newmultinft/ERC1155.sol\":3287:3305  _setApprovalForAll */\n      tag_104\n        /* \"Arevea-NFT-Market/NFT-Contracts/newmultinft/ERC1155.sol\":3287:3339  _setApprovalForAll(_msgSender(), operator, approved) */\n      jump\t// in\n    tag_102:\n        /* \"Arevea-NFT-Market/NFT-Contracts/newmultinft/ERC1155.sol\":3192:3347  function setApprovalForAll(address operator, bool approved) public virtual override {\r... */\n      pop\n      pop\n      jump\t// out\n        /* \"Arevea-NFT-Market/NFT-Contracts/newmultinft/ERC1155.sol\":3419:3587  function isApprovedForAll(address account, address operator) public view virtual override returns (bool) {\r... */\n    tag_47:\n        /* \"Arevea-NFT-Market/NFT-Contracts/newmultinft/ERC1155.sol\":3518:3522  bool */\n      0x00\n        /* \"Arevea-NFT-Market/NFT-Contracts/newmultinft/ERC1155.sol\":3542:3560  _operatorApprovals */\n      0x01\n        /* \"Arevea-NFT-Market/NFT-Contracts/newmultinft/ERC1155.sol\":3542:3569  _operatorApprovals[account] */\n      0x00\n        /* \"Arevea-NFT-Market/NFT-Contracts/newmultinft/ERC1155.sol\":3561:3568  account */\n      dup5\n        /* \"Arevea-NFT-Market/NFT-Contracts/newmultinft/ERC1155.sol\":3542:3569  _operatorApprovals[account] */\n      0xffffffffffffffffffffffffffffffffffffffff\n      and\n      0xffffffffffffffffffffffffffffffffffffffff\n      and\n      dup2\n      mstore\n      0x20\n      add\n      swap1\n      dup2\n      mstore\n      0x20\n      add\n      0x00\n      keccak256\n        /* \"Arevea-NFT-Market/NFT-Contracts/newmultinft/ERC1155.sol\":3542:3579  _operatorApprovals[account][operator] */\n      0x00\n        /* \"Arevea-NFT-Market/NFT-Contracts/newmultinft/ERC1155.sol\":3570:3578  operator */\n      dup4\n        /* \"Arevea-NFT-Market/NFT-Contracts/newmultinft/ERC1155.sol\":3542:3579  _operatorApprovals[account][operator] */\n      0xffffffffffffffffffffffffffffffffffffffff\n      and\n      0xffffffffffffffffffffffffffffffffffffffff\n      and\n      dup2\n      mstore\n      0x20\n      add\n      swap1\n      dup2\n      mstore\n      0x20\n      add\n      0x00\n      keccak256\n      0x00\n      swap1\n      sload\n      swap1\n      0x0100\n      exp\n      swap1\n      div\n      0xff\n      and\n        /* \"Arevea-NFT-Market/NFT-Contracts/newmultinft/ERC1155.sol\":3535:3579  return _operatorApprovals[account][operator] */\n      swap1\n      pop\n        /* \"Arevea-NFT-Market/NFT-Contracts/newmultinft/ERC1155.sol\":3419:3587  function isApprovedForAll(address account, address operator) public view virtual override returns (bool) {\r... */\n      swap3\n      swap2\n      pop\n      pop\n      jump\t// out\n        /* \"Arevea-NFT-Market/NFT-Contracts/newmultinft/ERC1155.sol\":3659:4065  function safeTransferFrom(\r... */\n    tag_52:\n        /* \"Arevea-NFT-Market/NFT-Contracts/newmultinft/ERC1155.sol\":3875:3887  _msgSender() */\n      tag_107\n        /* \"Arevea-NFT-Market/NFT-Contracts/newmultinft/ERC1155.sol\":3875:3885  _msgSender */\n      tag_71\n        /* \"Arevea-NFT-Market/NFT-Contracts/newmultinft/ERC1155.sol\":3875:3887  _msgSender() */\n      jump\t// in\n    tag_107:\n        /* \"Arevea-NFT-Market/NFT-Contracts/newmultinft/ERC1155.sol\":3867:3887  from == _msgSender() */\n      0xffffffffffffffffffffffffffffffffffffffff\n      and\n        /* \"Arevea-NFT-Market/NFT-Contracts/newmultinft/ERC1155.sol\":3867:3871  from */\n      dup6\n        /* \"Arevea-NFT-Market/NFT-Contracts/newmultinft/ERC1155.sol\":3867:3887  from == _msgSender() */\n      0xffffffffffffffffffffffffffffffffffffffff\n      and\n      eq\n        /* \"Arevea-NFT-Market/NFT-Contracts/newmultinft/ERC1155.sol\":3867:3927  from == _msgSender() || isApprovedForAll(from, _msgSender()) */\n      dup1\n      tag_108\n      jumpi\n      pop\n        /* \"Arevea-NFT-Market/NFT-Contracts/newmultinft/ERC1155.sol\":3891:3927  isApprovedForAll(from, _msgSender()) */\n      tag_109\n        /* \"Arevea-NFT-Market/NFT-Contracts/newmultinft/ERC1155.sol\":3908:3912  from */\n      dup6\n        /* \"Arevea-NFT-Market/NFT-Contracts/newmultinft/ERC1155.sol\":3914:3926  _msgSender() */\n      tag_110\n        /* \"Arevea-NFT-Market/NFT-Contracts/newmultinft/ERC1155.sol\":3914:3924  _msgSender */\n      tag_71\n        /* \"Arevea-NFT-Market/NFT-Contracts/newmultinft/ERC1155.sol\":3914:3926  _msgSender() */\n      jump\t// in\n    tag_110:\n        /* \"Arevea-NFT-Market/NFT-Contracts/newmultinft/ERC1155.sol\":3891:3907  isApprovedForAll */\n      tag_47\n        /* \"Arevea-NFT-Market/NFT-Contracts/newmultinft/ERC1155.sol\":3891:3927  isApprovedForAll(from, _msgSender()) */\n      jump\t// in\n    tag_109:\n        /* \"Arevea-NFT-Market/NFT-Contracts/newmultinft/ERC1155.sol\":3867:3927  from == _msgSender() || isApprovedForAll(from, _msgSender()) */\n    tag_108:\n        /* \"Arevea-NFT-Market/NFT-Contracts/newmultinft/ERC1155.sol\":3845:4001  require(\r... */\n      tag_111\n      jumpi\n      mload(0x40)\n      0x08c379a000000000000000000000000000000000000000000000000000000000\n      dup2\n      mstore\n      0x04\n      add\n      tag_112\n      swap1\n      tag_77\n      jump\t// in\n    tag_112:\n      mload(0x40)\n      dup1\n      swap2\n      sub\n      swap1\n      revert\n    tag_111:\n        /* \"Arevea-NFT-Market/NFT-Contracts/newmultinft/ERC1155.sol\":4012:4057  _safeTransferFrom(from, to, id, amount, data) */\n      tag_113\n        /* \"Arevea-NFT-Market/NFT-Contracts/newmultinft/ERC1155.sol\":4030:4034  from */\n      dup6\n        /* \"Arevea-NFT-Market/NFT-Contracts/newmultinft/ERC1155.sol\":4036:4038  to */\n      dup6\n        /* \"Arevea-NFT-Market/NFT-Contracts/newmultinft/ERC1155.sol\":4040:4042  id */\n      dup6\n        /* \"Arevea-NFT-Market/NFT-Contracts/newmultinft/ERC1155.sol\":4044:4050  amount */\n      dup6\n        /* \"Arevea-NFT-Market/NFT-Contracts/newmultinft/ERC1155.sol\":4052:4056  data */\n      dup6\n        /* \"Arevea-NFT-Market/NFT-Contracts/newmultinft/ERC1155.sol\":4012:4029  _safeTransferFrom */\n      tag_114\n        /* \"Arevea-NFT-Market/NFT-Contracts/newmultinft/ERC1155.sol\":4012:4057  _safeTransferFrom(from, to, id, amount, data) */\n      jump\t// in\n    tag_113:\n        /* \"Arevea-NFT-Market/NFT-Contracts/newmultinft/ERC1155.sol\":3659:4065  function safeTransferFrom(\r... */\n      pop\n      pop\n      pop\n      pop\n      pop\n      jump\t// out\n        /* \"Arevea-NFT-Market/NFT-Contracts/newmultinft/ERC165.sol\":854:1011  function supportsInterface(bytes4 interfaceId) public view virtual override returns (bool) {\r... */\n    tag_61:\n        /* \"Arevea-NFT-Market/NFT-Contracts/newmultinft/ERC165.sol\":939:943  bool */\n      0x00\n        /* \"Arevea-NFT-Market/NFT-Contracts/newmultinft/ERC165.sol\":978:1003  type(IERC165).interfaceId */\n      0x01ffc9a700000000000000000000000000000000000000000000000000000000\n        /* \"Arevea-NFT-Market/NFT-Contracts/newmultinft/ERC165.sol\":963:1003  interfaceId == type(IERC165).interfaceId */\n      not(0xffffffffffffffffffffffffffffffffffffffffffffffffffffffff)\n      and\n        /* \"Arevea-NFT-Market/NFT-Contracts/newmultinft/ERC165.sol\":963:974  interfaceId */\n      dup3\n        /* \"Arevea-NFT-Market/NFT-Contracts/newmultinft/ERC165.sol\":963:1003  interfaceId == type(IERC165).interfaceId */\n      not(0xffffffffffffffffffffffffffffffffffffffffffffffffffffffff)\n      and\n      eq\n        /* \"Arevea-NFT-Market/NFT-Contracts/newmultinft/ERC165.sol\":956:1003  return interfaceId == type(IERC165).interfaceId */\n      swap1\n      pop\n        /* \"Arevea-NFT-Market/NFT-Contracts/newmultinft/ERC165.sol\":854:1011  function supportsInterface(bytes4 interfaceId) public view virtual override returns (bool) {\r... */\n      swap2\n      swap1\n      pop\n      jump\t// out\n        /* \"Arevea-NFT-Market/NFT-Contracts/newmultinft/Context.sol\":656:754  function _msgSender() internal view virtual returns (address) {\r... */\n    tag_71:\n        /* \"Arevea-NFT-Market/NFT-Contracts/newmultinft/Context.sol\":709:716  address */\n      0x00\n        /* \"Arevea-NFT-Market/NFT-Contracts/newmultinft/Context.sol\":736:746  msg.sender */\n      caller\n        /* \"Arevea-NFT-Market/NFT-Contracts/newmultinft/Context.sol\":729:746  return msg.sender */\n      swap1\n      pop\n        /* \"Arevea-NFT-Market/NFT-Contracts/newmultinft/Context.sol\":656:754  function _msgSender() internal view virtual returns (address) {\r... */\n      swap1\n      jump\t// out\n        /* \"Arevea-NFT-Market/NFT-Contracts/newmultinft/ERC1155.sol\":6376:7522  function _safeBatchTransferFrom(\r... */\n    tag_79:\n        /* \"Arevea-NFT-Market/NFT-Contracts/newmultinft/ERC1155.sol\":6603:6610  amounts */\n      dup2\n        /* \"Arevea-NFT-Market/NFT-Contracts/newmultinft/ERC1155.sol\":6603:6617  amounts.length */\n      mload\n        /* \"Arevea-NFT-Market/NFT-Contracts/newmultinft/ERC1155.sol\":6589:6592  ids */\n      dup4\n        /* \"Arevea-NFT-Market/NFT-Contracts/newmultinft/ERC1155.sol\":6589:6599  ids.length */\n      mload\n        /* \"Arevea-NFT-Market/NFT-Contracts/newmultinft/ERC1155.sol\":6589:6617  ids.length == amounts.length */\n      eq\n        /* \"Arevea-NFT-Market/NFT-Contracts/newmultinft/ERC1155.sol\":6581:6662  require(ids.length == amounts.length, \"ERC1155: ids and amounts length mismatch\") */\n      tag_118\n      jumpi\n      mload(0x40)\n      0x08c379a000000000000000000000000000000000000000000000000000000000\n      dup2\n      mstore\n      0x04\n      add\n      tag_119\n      swap1\n      tag_120\n      jump\t// in\n    tag_119:\n      mload(0x40)\n      dup1\n      swap2\n      sub\n      swap1\n      revert\n    tag_118:\n        /* \"Arevea-NFT-Market/NFT-Contracts/newmultinft/ERC1155.sol\":6695:6696  0 */\n      0x00\n        /* \"Arevea-NFT-Market/NFT-Contracts/newmultinft/ERC1155.sol\":6681:6697  to != address(0) */\n      0xffffffffffffffffffffffffffffffffffffffff\n      and\n        /* \"Arevea-NFT-Market/NFT-Contracts/newmultinft/ERC1155.sol\":6681:6683  to */\n      dup5\n        /* \"Arevea-NFT-Market/NFT-Contracts/newmultinft/ERC1155.sol\":6681:6697  to != address(0) */\n      0xffffffffffffffffffffffffffffffffffffffff\n      and\n      eq\n      iszero\n        /* \"Arevea-NFT-Market/NFT-Contracts/newmultinft/ERC1155.sol\":6673:6739  require(to != address(0), \"ERC1155: transfer to the zero address\") */\n      tag_121\n      jumpi\n      mload(0x40)\n      0x08c379a000000000000000000000000000000000000000000000000000000000\n      dup2\n      mstore\n      0x04\n      add\n      tag_122\n      swap1\n      tag_123\n      jump\t// in\n    tag_122:\n      mload(0x40)\n      dup1\n      swap2\n      sub\n      swap1\n      revert\n    tag_121:\n        /* \"Arevea-NFT-Market/NFT-Contracts/newmultinft/ERC1155.sol\":6752:6768  address operator */\n      0x00\n        /* \"Arevea-NFT-Market/NFT-Contracts/newmultinft/ERC1155.sol\":6771:6783  _msgSender() */\n      tag_124\n        /* \"Arevea-NFT-Market/NFT-Contracts/newmultinft/ERC1155.sol\":6771:6781  _msgSender */\n      tag_71\n        /* \"Arevea-NFT-Market/NFT-Contracts/newmultinft/ERC1155.sol\":6771:6783  _msgSender() */\n      jump\t// in\n    tag_124:\n        /* \"Arevea-NFT-Market/NFT-Contracts/newmultinft/ERC1155.sol\":6752:6783  address operator = _msgSender() */\n      swap1\n      pop\n        /* \"Arevea-NFT-Market/NFT-Contracts/newmultinft/ERC1155.sol\":6796:6856  _beforeTokenTransfer(operator, from, to, ids, amounts, data) */\n      tag_125\n        /* \"Arevea-NFT-Market/NFT-Contracts/newmultinft/ERC1155.sol\":6817:6825  operator */\n      dup2\n        /* \"Arevea-NFT-Market/NFT-Contracts/newmultinft/ERC1155.sol\":6827:6831  from */\n      dup8\n        /* \"Arevea-NFT-Market/NFT-Contracts/newmultinft/ERC1155.sol\":6833:6835  to */\n      dup8\n        /* \"Arevea-NFT-Market/NFT-Contracts/newmultinft/ERC1155.sol\":6837:6840  ids */\n      dup8\n        /* \"Arevea-NFT-Market/NFT-Contracts/newmultinft/ERC1155.sol\":6842:6849  amounts */\n      dup8\n        /* \"Arevea-NFT-Market/NFT-Contracts/newmultinft/ERC1155.sol\":6851:6855  data */\n      dup8\n        /* \"Arevea-NFT-Market/NFT-Contracts/newmultinft/ERC1155.sol\":6796:6816  _beforeTokenTransfer */\n      tag_126\n        /* \"Arevea-NFT-Market/NFT-Contracts/newmultinft/ERC1155.sol\":6796:6856  _beforeTokenTransfer(operator, from, to, ids, amounts, data) */\n      jump\t// in\n    tag_125:\n        /* \"Arevea-NFT-Market/NFT-Contracts/newmultinft/ERC1155.sol\":6874:6883  uint256 i */\n      0x00\n        /* \"Arevea-NFT-Market/NFT-Contracts/newmultinft/ERC1155.sol\":6869:7290  for (uint256 i = 0; i < ids.length; ++i) {\r... */\n    tag_127:\n        /* \"Arevea-NFT-Market/NFT-Contracts/newmultinft/ERC1155.sol\":6893:6896  ids */\n      dup5\n        /* \"Arevea-NFT-Market/NFT-Contracts/newmultinft/ERC1155.sol\":6893:6903  ids.length */\n      mload\n        /* \"Arevea-NFT-Market/NFT-Contracts/newmultinft/ERC1155.sol\":6889:6890  i */\n      dup2\n        /* \"Arevea-NFT-Market/NFT-Contracts/newmultinft/ERC1155.sol\":6889:6903  i < ids.length */\n      lt\n        /* \"Arevea-NFT-Market/NFT-Contracts/newmultinft/ERC1155.sol\":6869:7290  for (uint256 i = 0; i < ids.length; ++i) {\r... */\n      iszero\n      tag_128\n      jumpi\n        /* \"Arevea-NFT-Market/NFT-Contracts/newmultinft/ERC1155.sol\":6925:6935  uint256 id */\n      0x00\n        /* \"Arevea-NFT-Market/NFT-Contracts/newmultinft/ERC1155.sol\":6938:6941  ids */\n      dup6\n        /* \"Arevea-NFT-Market/NFT-Contracts/newmultinft/ERC1155.sol\":6942:6943  i */\n      dup3\n        /* \"Arevea-NFT-Market/NFT-Contracts/newmultinft/ERC1155.sol\":6938:6944  ids[i] */\n      dup2\n      mload\n      dup2\n      lt\n      tag_130\n      jumpi\n      tag_131\n      tag_94\n      jump\t// in\n    tag_131:\n    tag_130:\n      0x20\n      mul\n      0x20\n      add\n      add\n      mload\n        /* \"Arevea-NFT-Market/NFT-Contracts/newmultinft/ERC1155.sol\":6925:6944  uint256 id = ids[i] */\n      swap1\n      pop\n        /* \"Arevea-NFT-Market/NFT-Contracts/newmultinft/ERC1155.sol\":6959:6973  uint256 amount */\n      0x00\n        /* \"Arevea-NFT-Market/NFT-Contracts/newmultinft/ERC1155.sol\":6976:6983  amounts */\n      dup6\n        /* \"Arevea-NFT-Market/NFT-Contracts/newmultinft/ERC1155.sol\":6984:6985  i */\n      dup4\n        /* \"Arevea-NFT-Market/NFT-Contracts/newmultinft/ERC1155.sol\":6976:6986  amounts[i] */\n      dup2\n      mload\n      dup2\n      lt\n      tag_132\n      jumpi\n      tag_133\n      tag_94\n      jump\t// in\n    tag_133:\n    tag_132:\n      0x20\n      mul\n      0x20\n      add\n      add\n      mload\n        /* \"Arevea-NFT-Market/NFT-Contracts/newmultinft/ERC1155.sol\":6959:6986  uint256 amount = amounts[i] */\n      swap1\n      pop\n        /* \"Arevea-NFT-Market/NFT-Contracts/newmultinft/ERC1155.sol\":7003:7022  uint256 fromBalance */\n      0x00\n        /* \"Arevea-NFT-Market/NFT-Contracts/newmultinft/ERC1155.sol\":7025:7034  _balances */\n      dup1\n        /* \"Arevea-NFT-Market/NFT-Contracts/newmultinft/ERC1155.sol\":7025:7038  _balances[id] */\n      0x00\n        /* \"Arevea-NFT-Market/NFT-Contracts/newmultinft/ERC1155.sol\":7035:7037  id */\n      dup5\n        /* \"Arevea-NFT-Market/NFT-Contracts/newmultinft/ERC1155.sol\":7025:7038  _balances[id] */\n      dup2\n      mstore\n      0x20\n      add\n      swap1\n      dup2\n      mstore\n      0x20\n      add\n      0x00\n      keccak256\n        /* \"Arevea-NFT-Market/NFT-Contracts/newmultinft/ERC1155.sol\":7025:7044  _balances[id][from] */\n      0x00\n        /* \"Arevea-NFT-Market/NFT-Contracts/newmultinft/ERC1155.sol\":7039:7043  from */\n      dup12\n        /* \"Arevea-NFT-Market/NFT-Contracts/newmultinft/ERC1155.sol\":7025:7044  _balances[id][from] */\n      0xffffffffffffffffffffffffffffffffffffffff\n      and\n      0xffffffffffffffffffffffffffffffffffffffff\n      and\n      dup2\n      mstore\n      0x20\n      add\n      swap1\n      dup2\n      mstore\n      0x20\n      add\n      0x00\n      keccak256\n      sload\n        /* \"Arevea-NFT-Market/NFT-Contracts/newmultinft/ERC1155.sol\":7003:7044  uint256 fromBalance = _balances[id][from] */\n      swap1\n      pop\n        /* \"Arevea-NFT-Market/NFT-Contracts/newmultinft/ERC1155.sol\":7082:7088  amount */\n      dup2\n        /* \"Arevea-NFT-Market/NFT-Contracts/newmultinft/ERC1155.sol\":7067:7078  fromBalance */\n      dup2\n        /* \"Arevea-NFT-Market/NFT-Contracts/newmultinft/ERC1155.sol\":7067:7088  fromBalance >= amount */\n      lt\n      iszero\n        /* \"Arevea-NFT-Market/NFT-Contracts/newmultinft/ERC1155.sol\":7059:7135  require(fromBalance >= amount, \"ERC1155: insufficient balance for transfer\") */\n      tag_134\n      jumpi\n      mload(0x40)\n      0x08c379a000000000000000000000000000000000000000000000000000000000\n      dup2\n      mstore\n      0x04\n      add\n      tag_135\n      swap1\n      tag_136\n      jump\t// in\n    tag_135:\n      mload(0x40)\n      dup1\n      swap2\n      sub\n      swap1\n      revert\n    tag_134:\n        /* \"Arevea-NFT-Market/NFT-Contracts/newmultinft/ERC1155.sol\":7215:7221  amount */\n      dup2\n        /* \"Arevea-NFT-Market/NFT-Contracts/newmultinft/ERC1155.sol\":7201:7212  fromBalance */\n      dup2\n        /* \"Arevea-NFT-Market/NFT-Contracts/newmultinft/ERC1155.sol\":7201:7221  fromBalance - amount */\n      sub\n        /* \"Arevea-NFT-Market/NFT-Contracts/newmultinft/ERC1155.sol\":7179:7188  _balances */\n      0x00\n        /* \"Arevea-NFT-Market/NFT-Contracts/newmultinft/ERC1155.sol\":7179:7192  _balances[id] */\n      dup1\n        /* \"Arevea-NFT-Market/NFT-Contracts/newmultinft/ERC1155.sol\":7189:7191  id */\n      dup6\n        /* \"Arevea-NFT-Market/NFT-Contracts/newmultinft/ERC1155.sol\":7179:7192  _balances[id] */\n      dup2\n      mstore\n      0x20\n      add\n      swap1\n      dup2\n      mstore\n      0x20\n      add\n      0x00\n      keccak256\n        /* \"Arevea-NFT-Market/NFT-Contracts/newmultinft/ERC1155.sol\":7179:7198  _balances[id][from] */\n      0x00\n        /* \"Arevea-NFT-Market/NFT-Contracts/newmultinft/ERC1155.sol\":7193:7197  from */\n      dup13\n        /* \"Arevea-NFT-Market/NFT-Contracts/newmultinft/ERC1155.sol\":7179:7198  _balances[id][from] */\n      0xffffffffffffffffffffffffffffffffffffffff\n      and\n      0xffffffffffffffffffffffffffffffffffffffff\n      and\n      dup2\n      mstore\n      0x20\n      add\n      swap1\n      dup2\n      mstore\n      0x20\n      add\n      0x00\n      keccak256\n        /* \"Arevea-NFT-Market/NFT-Contracts/newmultinft/ERC1155.sol\":7179:7221  _balances[id][from] = fromBalance - amount */\n      dup2\n      swap1\n      sstore\n      pop\n        /* \"Arevea-NFT-Market/NFT-Contracts/newmultinft/ERC1155.sol\":7272:7278  amount */\n      dup2\n        /* \"Arevea-NFT-Market/NFT-Contracts/newmultinft/ERC1155.sol\":7251:7260  _balances */\n      0x00\n        /* \"Arevea-NFT-Market/NFT-Contracts/newmultinft/ERC1155.sol\":7251:7264  _balances[id] */\n      dup1\n        /* \"Arevea-NFT-Market/NFT-Contracts/newmultinft/ERC1155.sol\":7261:7263  id */\n      dup6\n        /* \"Arevea-NFT-Market/NFT-Contracts/newmultinft/ERC1155.sol\":7251:7264  _balances[id] */\n      dup2\n      mstore\n      0x20\n      add\n      swap1\n      dup2\n      mstore\n      0x20\n      add\n      0x00\n      keccak256\n        /* \"Arevea-NFT-Market/NFT-Contracts/newmultinft/ERC1155.sol\":7251:7268  _balances[id][to] */\n      0x00\n        /* \"Arevea-NFT-Market/NFT-Contracts/newmultinft/ERC1155.sol\":7265:7267  to */\n      dup12\n        /* \"Arevea-NFT-Market/NFT-Contracts/newmultinft/ERC1155.sol\":7251:7268  _balances[id][to] */\n      0xffffffffffffffffffffffffffffffffffffffff\n      and\n      0xffffffffffffffffffffffffffffffffffffffff\n      and\n      dup2\n      mstore\n      0x20\n      add\n      swap1\n      dup2\n      mstore\n      0x20\n      add\n      0x00\n      keccak256\n      0x00\n        /* \"Arevea-NFT-Market/NFT-Contracts/newmultinft/ERC1155.sol\":7251:7278  _balances[id][to] += amount */\n      dup3\n      dup3\n      sload\n      tag_137\n      swap2\n      swap1\n      tag_138\n      jump\t// in\n    tag_137:\n      swap3\n      pop\n      pop\n      dup2\n      swap1\n      sstore\n      pop\n        /* \"Arevea-NFT-Market/NFT-Contracts/newmultinft/ERC1155.sol\":6910:7290  {\r... */\n      pop\n      pop\n      pop\n        /* \"Arevea-NFT-Market/NFT-Contracts/newmultinft/ERC1155.sol\":6905:6908  ++i */\n      dup1\n      tag_139\n      swap1\n      tag_100\n      jump\t// in\n    tag_139:\n      swap1\n      pop\n        /* \"Arevea-NFT-Market/NFT-Contracts/newmultinft/ERC1155.sol\":6869:7290  for (uint256 i = 0; i < ids.length; ++i) {\r... */\n      jump(tag_127)\n    tag_128:\n      pop\n        /* \"Arevea-NFT-Market/NFT-Contracts/newmultinft/ERC1155.sol\":7337:7339  to */\n      dup5\n        /* \"Arevea-NFT-Market/NFT-Contracts/newmultinft/ERC1155.sol\":7307:7354  TransferBatch(operator, from, to, ids, amounts) */\n      0xffffffffffffffffffffffffffffffffffffffff\n      and\n        /* \"Arevea-NFT-Market/NFT-Contracts/newmultinft/ERC1155.sol\":7331:7335  from */\n      dup7\n        /* \"Arevea-NFT-Market/NFT-Contracts/newmultinft/ERC1155.sol\":7307:7354  TransferBatch(operator, from, to, ids, amounts) */\n      0xffffffffffffffffffffffffffffffffffffffff\n      and\n        /* \"Arevea-NFT-Market/NFT-Contracts/newmultinft/ERC1155.sol\":7321:7329  operator */\n      dup3\n        /* \"Arevea-NFT-Market/NFT-Contracts/newmultinft/ERC1155.sol\":7307:7354  TransferBatch(operator, from, to, ids, amounts) */\n      0xffffffffffffffffffffffffffffffffffffffff\n      and\n      0x4a39dc06d4c0dbc64b70af90fd698a233a518aa5d07e595d983b8c0526c8f7fb\n        /* \"Arevea-NFT-Market/NFT-Contracts/newmultinft/ERC1155.sol\":7341:7344  ids */\n      dup8\n        /* \"Arevea-NFT-Market/NFT-Contracts/newmultinft/ERC1155.sol\":7346:7353  amounts */\n      dup8\n        /* \"Arevea-NFT-Market/NFT-Contracts/newmultinft/ERC1155.sol\":7307:7354  TransferBatch(operator, from, to, ids, amounts) */\n      mload(0x40)\n      tag_140\n      swap3\n      swap2\n      swap1\n      tag_141\n      jump\t// in\n    tag_140:\n      mload(0x40)\n      dup1\n      swap2\n      sub\n      swap1\n      log4\n        /* \"Arevea-NFT-Market/NFT-Contracts/newmultinft/ERC1155.sol\":7367:7426  _afterTokenTransfer(operator, from, to, ids, amounts, data) */\n      tag_142\n        /* \"Arevea-NFT-Market/NFT-Contracts/newmultinft/ERC1155.sol\":7387:7395  operator */\n      dup2\n        /* \"Arevea-NFT-Market/NFT-Contracts/newmultinft/ERC1155.sol\":7397:7401  from */\n      dup8\n        /* \"Arevea-NFT-Market/NFT-Contracts/newmultinft/ERC1155.sol\":7403:7405  to */\n      dup8\n        /* \"Arevea-NFT-Market/NFT-Contracts/newmultinft/ERC1155.sol\":7407:7410  ids */\n      dup8\n        /* \"Arevea-NFT-Market/NFT-Contracts/newmultinft/ERC1155.sol\":7412:7419  amounts */\n      dup8\n        /* \"Arevea-NFT-Market/NFT-Contracts/newmultinft/ERC1155.sol\":7421:7425  data */\n      dup8\n        /* \"Arevea-NFT-Market/NFT-Contracts/newmultinft/ERC1155.sol\":7367:7386  _afterTokenTransfer */\n      tag_143\n        /* \"Arevea-NFT-Market/NFT-Contracts/newmultinft/ERC1155.sol\":7367:7426  _afterTokenTransfer(operator, from, to, ids, amounts, data) */\n      jump\t// in\n    tag_142:\n        /* \"Arevea-NFT-Market/NFT-Contracts/newmultinft/ERC1155.sol\":7439:7514  _doSafeBatchTransferAcceptanceCheck(operator, from, to, ids, amounts, data) */\n      tag_144\n        /* \"Arevea-NFT-Market/NFT-Contracts/newmultinft/ERC1155.sol\":7475:7483  operator */\n      dup2\n        /* \"Arevea-NFT-Market/NFT-Contracts/newmultinft/ERC1155.sol\":7485:7489  from */\n      dup8\n        /* \"Arevea-NFT-Market/NFT-Contracts/newmultinft/ERC1155.sol\":7491:7493  to */\n      dup8\n        /* \"Arevea-NFT-Market/NFT-Contracts/newmultinft/ERC1155.sol\":7495:7498  ids */\n      dup8\n        /* \"Arevea-NFT-Market/NFT-Contracts/newmultinft/ERC1155.sol\":7500:7507  amounts */\n      dup8\n        /* \"Arevea-NFT-Market/NFT-Contracts/newmultinft/ERC1155.sol\":7509:7513  data */\n      dup8\n        /* \"Arevea-NFT-Market/NFT-Contracts/newmultinft/ERC1155.sol\":7439:7474  _doSafeBatchTransferAcceptanceCheck */\n      tag_145\n        /* \"Arevea-NFT-Market/NFT-Contracts/newmultinft/ERC1155.sol\":7439:7514  _doSafeBatchTransferAcceptanceCheck(operator, from, to, ids, amounts, data) */\n      jump\t// in\n    tag_144:\n        /* \"Arevea-NFT-Market/NFT-Contracts/newmultinft/ERC1155.sol\":6570:7522  {\r... */\n      pop\n        /* \"Arevea-NFT-Market/NFT-Contracts/newmultinft/ERC1155.sol\":6376:7522  function _safeBatchTransferFrom(\r... */\n      pop\n      pop\n      pop\n      pop\n      pop\n      jump\t// out\n        /* \"Arevea-NFT-Market/NFT-Contracts/newmultinft/ERC1155.sol\":13253:13584  function _setApprovalForAll(\r... */\n    tag_104:\n        /* \"Arevea-NFT-Market/NFT-Contracts/newmultinft/ERC1155.sol\":13408:13416  operator */\n      dup2\n        /* \"Arevea-NFT-Market/NFT-Contracts/newmultinft/ERC1155.sol\":13399:13416  owner != operator */\n      0xffffffffffffffffffffffffffffffffffffffff\n      and\n        /* \"Arevea-NFT-Market/NFT-Contracts/newmultinft/ERC1155.sol\":13399:13404  owner */\n      dup4\n        /* \"Arevea-NFT-Market/NFT-Contracts/newmultinft/ERC1155.sol\":13399:13416  owner != operator */\n      0xffffffffffffffffffffffffffffffffffffffff\n      and\n      eq\n      iszero\n        /* \"Arevea-NFT-Market/NFT-Contracts/newmultinft/ERC1155.sol\":13391:13462  require(owner != operator, \"ERC1155: setting approval status for self\") */\n      tag_147\n      jumpi\n      mload(0x40)\n      0x08c379a000000000000000000000000000000000000000000000000000000000\n      dup2\n      mstore\n      0x04\n      add\n      tag_148\n      swap1\n      tag_149\n      jump\t// in\n    tag_148:\n      mload(0x40)\n      dup1\n      swap2\n      sub\n      swap1\n      revert\n    tag_147:\n        /* \"Arevea-NFT-Market/NFT-Contracts/newmultinft/ERC1155.sol\":13511:13519  approved */\n      dup1\n        /* \"Arevea-NFT-Market/NFT-Contracts/newmultinft/ERC1155.sol\":13473:13491  _operatorApprovals */\n      0x01\n        /* \"Arevea-NFT-Market/NFT-Contracts/newmultinft/ERC1155.sol\":13473:13498  _operatorApprovals[owner] */\n      0x00\n        /* \"Arevea-NFT-Market/NFT-Contracts/newmultinft/ERC1155.sol\":13492:13497  owner */\n      dup6\n        /* \"Arevea-NFT-Market/NFT-Contracts/newmultinft/ERC1155.sol\":13473:13498  _operatorApprovals[owner] */\n      0xffffffffffffffffffffffffffffffffffffffff\n      and\n      0xffffffffffffffffffffffffffffffffffffffff\n      and\n      dup2\n      mstore\n      0x20\n      add\n      swap1\n      dup2\n      mstore\n      0x20\n      add\n      0x00\n      keccak256\n        /* \"Arevea-NFT-Market/NFT-Contracts/newmultinft/ERC1155.sol\":13473:13508  _operatorApprovals[owner][operator] */\n      0x00\n        /* \"Arevea-NFT-Market/NFT-Contracts/newmultinft/ERC1155.sol\":13499:13507  operator */\n      dup5\n        /* \"Arevea-NFT-Market/NFT-Contracts/newmultinft/ERC1155.sol\":13473:13508  _operatorApprovals[owner][operator] */\n      0xffffffffffffffffffffffffffffffffffffffff\n      and\n      0xffffffffffffffffffffffffffffffffffffffff\n      and\n      dup2\n      mstore\n      0x20\n      add\n      swap1\n      dup2\n      mstore\n      0x20\n      add\n      0x00\n      keccak256\n      0x00\n        /* \"Arevea-NFT-Market/NFT-Contracts/newmultinft/ERC1155.sol\":13473:13519  _operatorApprovals[owner][operator] = approved */\n      0x0100\n      exp\n      dup2\n      sload\n      dup2\n      0xff\n      mul\n      not\n      and\n      swap1\n      dup4\n      iszero\n      iszero\n      mul\n      or\n      swap1\n      sstore\n      pop\n        /* \"Arevea-NFT-Market/NFT-Contracts/newmultinft/ERC1155.sol\":13557:13565  operator */\n      dup2\n        /* \"Arevea-NFT-Market/NFT-Contracts/newmultinft/ERC1155.sol\":13535:13576  ApprovalForAll(owner, operator, approved) */\n      0xffffffffffffffffffffffffffffffffffffffff\n      and\n        /* \"Arevea-NFT-Market/NFT-Contracts/newmultinft/ERC1155.sol\":13550:13555  owner */\n      dup4\n        /* \"Arevea-NFT-Market/NFT-Contracts/newmultinft/ERC1155.sol\":13535:13576  ApprovalForAll(owner, operator, approved) */\n      0xffffffffffffffffffffffffffffffffffffffff\n      and\n      0x17307eab39ab6107e8899845ad3d59bd9653f200f220920489ca2b5937696c31\n        /* \"Arevea-NFT-Market/NFT-Contracts/newmultinft/ERC1155.sol\":13567:13575  approved */\n      dup4\n        /* \"Arevea-NFT-Market/NFT-Contracts/newmultinft/ERC1155.sol\":13535:13576  ApprovalForAll(owner, operator, approved) */\n      mload(0x40)\n      tag_150\n      swap2\n      swap1\n      tag_23\n      jump\t// in\n    tag_150:\n      mload(0x40)\n      dup1\n      swap2\n      sub\n      swap1\n      log3\n        /* \"Arevea-NFT-Market/NFT-Contracts/newmultinft/ERC1155.sol\":13253:13584  function _setApprovalForAll(\r... */\n      pop\n      pop\n      pop\n      jump\t// out\n        /* \"Arevea-NFT-Market/NFT-Contracts/newmultinft/ERC1155.sol\":5044:6018  function _safeTransferFrom(\r... */\n    tag_114:\n        /* \"Arevea-NFT-Market/NFT-Contracts/newmultinft/ERC1155.sol\":5246:5247  0 */\n      0x00\n        /* \"Arevea-NFT-Market/NFT-Contracts/newmultinft/ERC1155.sol\":5232:5248  to != address(0) */\n      0xffffffffffffffffffffffffffffffffffffffff\n      and\n        /* \"Arevea-NFT-Market/NFT-Contracts/newmultinft/ERC1155.sol\":5232:5234  to */\n      dup5\n        /* \"Arevea-NFT-Market/NFT-Contracts/newmultinft/ERC1155.sol\":5232:5248  to != address(0) */\n      0xffffffffffffffffffffffffffffffffffffffff\n      and\n      eq\n      iszero\n        /* \"Arevea-NFT-Market/NFT-Contracts/newmultinft/ERC1155.sol\":5224:5290  require(to != address(0), \"ERC1155: transfer to the zero address\") */\n      tag_152\n      jumpi\n      mload(0x40)\n      0x08c379a000000000000000000000000000000000000000000000000000000000\n      dup2\n      mstore\n      0x04\n      add\n      tag_153\n      swap1\n      tag_123\n      jump\t// in\n    tag_153:\n      mload(0x40)\n      dup1\n      swap2\n      sub\n      swap1\n      revert\n    tag_152:\n        /* \"Arevea-NFT-Market/NFT-Contracts/newmultinft/ERC1155.sol\":5303:5319  address operator */\n      0x00\n        /* \"Arevea-NFT-Market/NFT-Contracts/newmultinft/ERC1155.sol\":5322:5334  _msgSender() */\n      tag_154\n        /* \"Arevea-NFT-Market/NFT-Contracts/newmultinft/ERC1155.sol\":5322:5332  _msgSender */\n      tag_71\n        /* \"Arevea-NFT-Market/NFT-Contracts/newmultinft/ERC1155.sol\":5322:5334  _msgSender() */\n      jump\t// in\n    tag_154:\n        /* \"Arevea-NFT-Market/NFT-Contracts/newmultinft/ERC1155.sol\":5303:5334  address operator = _msgSender() */\n      swap1\n      pop\n        /* \"Arevea-NFT-Market/NFT-Contracts/newmultinft/ERC1155.sol\":5345:5365  uint256[] memory ids */\n      0x00\n        /* \"Arevea-NFT-Market/NFT-Contracts/newmultinft/ERC1155.sol\":5368:5389  _asSingletonArray(id) */\n      tag_155\n        /* \"Arevea-NFT-Market/NFT-Contracts/newmultinft/ERC1155.sol\":5386:5388  id */\n      dup6\n        /* \"Arevea-NFT-Market/NFT-Contracts/newmultinft/ERC1155.sol\":5368:5385  _asSingletonArray */\n      tag_156\n        /* \"Arevea-NFT-Market/NFT-Contracts/newmultinft/ERC1155.sol\":5368:5389  _asSingletonArray(id) */\n      jump\t// in\n    tag_155:\n        /* \"Arevea-NFT-Market/NFT-Contracts/newmultinft/ERC1155.sol\":5345:5389  uint256[] memory ids = _asSingletonArray(id) */\n      swap1\n      pop\n        /* \"Arevea-NFT-Market/NFT-Contracts/newmultinft/ERC1155.sol\":5400:5424  uint256[] memory amounts */\n      0x00\n        /* \"Arevea-NFT-Market/NFT-Contracts/newmultinft/ERC1155.sol\":5427:5452  _asSingletonArray(amount) */\n      tag_157\n        /* \"Arevea-NFT-Market/NFT-Contracts/newmultinft/ERC1155.sol\":5445:5451  amount */\n      dup6\n        /* \"Arevea-NFT-Market/NFT-Contracts/newmultinft/ERC1155.sol\":5427:5444  _asSingletonArray */\n      tag_156\n        /* \"Arevea-NFT-Market/NFT-Contracts/newmultinft/ERC1155.sol\":5427:5452  _asSingletonArray(amount) */\n      jump\t// in\n    tag_157:\n        /* \"Arevea-NFT-Market/NFT-Contracts/newmultinft/ERC1155.sol\":5400:5452  uint256[] memory amounts = _asSingletonArray(amount) */\n      swap1\n      pop\n        /* \"Arevea-NFT-Market/NFT-Contracts/newmultinft/ERC1155.sol\":5465:5525  _beforeTokenTransfer(operator, from, to, ids, amounts, data) */\n      tag_158\n        /* \"Arevea-NFT-Market/NFT-Contracts/newmultinft/ERC1155.sol\":5486:5494  operator */\n      dup4\n        /* \"Arevea-NFT-Market/NFT-Contracts/newmultinft/ERC1155.sol\":5496:5500  from */\n      dup10\n        /* \"Arevea-NFT-Market/NFT-Contracts/newmultinft/ERC1155.sol\":5502:5504  to */\n      dup10\n        /* \"Arevea-NFT-Market/NFT-Contracts/newmultinft/ERC1155.sol\":5506:5509  ids */\n      dup6\n        /* \"Arevea-NFT-Market/NFT-Contracts/newmultinft/ERC1155.sol\":5511:5518  amounts */\n      dup6\n        /* \"Arevea-NFT-Market/NFT-Contracts/newmultinft/ERC1155.sol\":5520:5524  data */\n      dup10\n        /* \"Arevea-NFT-Market/NFT-Contracts/newmultinft/ERC1155.sol\":5465:5485  _beforeTokenTransfer */\n      tag_126\n        /* \"Arevea-NFT-Market/NFT-Contracts/newmultinft/ERC1155.sol\":5465:5525  _beforeTokenTransfer(operator, from, to, ids, amounts, data) */\n      jump\t// in\n    tag_158:\n        /* \"Arevea-NFT-Market/NFT-Contracts/newmultinft/ERC1155.sol\":5538:5557  uint256 fromBalance */\n      0x00\n        /* \"Arevea-NFT-Market/NFT-Contracts/newmultinft/ERC1155.sol\":5560:5569  _balances */\n      dup1\n        /* \"Arevea-NFT-Market/NFT-Contracts/newmultinft/ERC1155.sol\":5560:5573  _balances[id] */\n      0x00\n        /* \"Arevea-NFT-Market/NFT-Contracts/newmultinft/ERC1155.sol\":5570:5572  id */\n      dup9\n        /* \"Arevea-NFT-Market/NFT-Contracts/newmultinft/ERC1155.sol\":5560:5573  _balances[id] */\n      dup2\n      mstore\n      0x20\n      add\n      swap1\n      dup2\n      mstore\n      0x20\n      add\n      0x00\n      keccak256\n        /* \"Arevea-NFT-Market/NFT-Contracts/newmultinft/ERC1155.sol\":5560:5579  _balances[id][from] */\n      0x00\n        /* \"Arevea-NFT-Market/NFT-Contracts/newmultinft/ERC1155.sol\":5574:5578  from */\n      dup11\n        /* \"Arevea-NFT-Market/NFT-Contracts/newmultinft/ERC1155.sol\":5560:5579  _balances[id][from] */\n      0xffffffffffffffffffffffffffffffffffffffff\n      and\n      0xffffffffffffffffffffffffffffffffffffffff\n      and\n      dup2\n      mstore\n      0x20\n      add\n      swap1\n      dup2\n      mstore\n      0x20\n      add\n      0x00\n      keccak256\n      sload\n        /* \"Arevea-NFT-Market/NFT-Contracts/newmultinft/ERC1155.sol\":5538:5579  uint256 fromBalance = _balances[id][from] */\n      swap1\n      pop\n        /* \"Arevea-NFT-Market/NFT-Contracts/newmultinft/ERC1155.sol\":5613:5619  amount */\n      dup6\n        /* \"Arevea-NFT-Market/NFT-Contracts/newmultinft/ERC1155.sol\":5598:5609  fromBalance */\n      dup2\n        /* \"Arevea-NFT-Market/NFT-Contracts/newmultinft/ERC1155.sol\":5598:5619  fromBalance >= amount */\n      lt\n      iszero\n        /* \"Arevea-NFT-Market/NFT-Contracts/newmultinft/ERC1155.sol\":5590:5666  require(fromBalance >= amount, \"ERC1155: insufficient balance for transfer\") */\n      tag_159\n      jumpi\n      mload(0x40)\n      0x08c379a000000000000000000000000000000000000000000000000000000000\n      dup2\n      mstore\n      0x04\n      add\n      tag_160\n      swap1\n      tag_136\n      jump\t// in\n    tag_160:\n      mload(0x40)\n      dup1\n      swap2\n      sub\n      swap1\n      revert\n    tag_159:\n        /* \"Arevea-NFT-Market/NFT-Contracts/newmultinft/ERC1155.sol\":5738:5744  amount */\n      dup6\n        /* \"Arevea-NFT-Market/NFT-Contracts/newmultinft/ERC1155.sol\":5724:5735  fromBalance */\n      dup2\n        /* \"Arevea-NFT-Market/NFT-Contracts/newmultinft/ERC1155.sol\":5724:5744  fromBalance - amount */\n      sub\n        /* \"Arevea-NFT-Market/NFT-Contracts/newmultinft/ERC1155.sol\":5702:5711  _balances */\n      0x00\n        /* \"Arevea-NFT-Market/NFT-Contracts/newmultinft/ERC1155.sol\":5702:5715  _balances[id] */\n      dup1\n        /* \"Arevea-NFT-Market/NFT-Contracts/newmultinft/ERC1155.sol\":5712:5714  id */\n      dup10\n        /* \"Arevea-NFT-Market/NFT-Contracts/newmultinft/ERC1155.sol\":5702:5715  _balances[id] */\n      dup2\n      mstore\n      0x20\n      add\n      swap1\n      dup2\n      mstore\n      0x20\n      add\n      0x00\n      keccak256\n        /* \"Arevea-NFT-Market/NFT-Contracts/newmultinft/ERC1155.sol\":5702:5721  _balances[id][from] */\n      0x00\n        /* \"Arevea-NFT-Market/NFT-Contracts/newmultinft/ERC1155.sol\":5716:5720  from */\n      dup12\n        /* \"Arevea-NFT-Market/NFT-Contracts/newmultinft/ERC1155.sol\":5702:5721  _balances[id][from] */\n      0xffffffffffffffffffffffffffffffffffffffff\n      and\n      0xffffffffffffffffffffffffffffffffffffffff\n      and\n      dup2\n      mstore\n      0x20\n      add\n      swap1\n      dup2\n      mstore\n      0x20\n      add\n      0x00\n      keccak256\n        /* \"Arevea-NFT-Market/NFT-Contracts/newmultinft/ERC1155.sol\":5702:5744  _balances[id][from] = fromBalance - amount */\n      dup2\n      swap1\n      sstore\n      pop\n        /* \"Arevea-NFT-Market/NFT-Contracts/newmultinft/ERC1155.sol\":5787:5793  amount */\n      dup6\n        /* \"Arevea-NFT-Market/NFT-Contracts/newmultinft/ERC1155.sol\":5766:5775  _balances */\n      0x00\n        /* \"Arevea-NFT-Market/NFT-Contracts/newmultinft/ERC1155.sol\":5766:5779  _balances[id] */\n      dup1\n        /* \"Arevea-NFT-Market/NFT-Contracts/newmultinft/ERC1155.sol\":5776:5778  id */\n      dup10\n        /* \"Arevea-NFT-Market/NFT-Contracts/newmultinft/ERC1155.sol\":5766:5779  _balances[id] */\n      dup2\n      mstore\n      0x20\n      add\n      swap1\n      dup2\n      mstore\n      0x20\n      add\n      0x00\n      keccak256\n        /* \"Arevea-NFT-Market/NFT-Contracts/newmultinft/ERC1155.sol\":5766:5783  _balances[id][to] */\n      0x00\n        /* \"Arevea-NFT-Market/NFT-Contracts/newmultinft/ERC1155.sol\":5780:5782  to */\n      dup11\n        /* \"Arevea-NFT-Market/NFT-Contracts/newmultinft/ERC1155.sol\":5766:5783  _balances[id][to] */\n      0xffffffffffffffffffffffffffffffffffffffff\n      and\n      0xffffffffffffffffffffffffffffffffffffffff\n      and\n      dup2\n      mstore\n      0x20\n      add\n      swap1\n      dup2\n      mstore\n      0x20\n      add\n      0x00\n      keccak256\n      0x00\n        /* \"Arevea-NFT-Market/NFT-Contracts/newmultinft/ERC1155.sol\":5766:5793  _balances[id][to] += amount */\n      dup3\n      dup3\n      sload\n      tag_161\n      swap2\n      swap1\n      tag_138\n      jump\t// in\n    tag_161:\n      swap3\n      pop\n      pop\n      dup2\n      swap1\n      sstore\n      pop\n        /* \"Arevea-NFT-Market/NFT-Contracts/newmultinft/ERC1155.sol\":5842:5844  to */\n      dup8\n        /* \"Arevea-NFT-Market/NFT-Contracts/newmultinft/ERC1155.sol\":5811:5857  TransferSingle(operator, from, to, id, amount) */\n      0xffffffffffffffffffffffffffffffffffffffff\n      and\n        /* \"Arevea-NFT-Market/NFT-Contracts/newmultinft/ERC1155.sol\":5836:5840  from */\n      dup10\n        /* \"Arevea-NFT-Market/NFT-Contracts/newmultinft/ERC1155.sol\":5811:5857  TransferSingle(operator, from, to, id, amount) */\n      0xffffffffffffffffffffffffffffffffffffffff\n      and\n        /* \"Arevea-NFT-Market/NFT-Contracts/newmultinft/ERC1155.sol\":5826:5834  operator */\n      dup6\n        /* \"Arevea-NFT-Market/NFT-Contracts/newmultinft/ERC1155.sol\":5811:5857  TransferSingle(operator, from, to, id, amount) */\n      0xffffffffffffffffffffffffffffffffffffffff\n      and\n      0xc3d58168c5ae7397731d063d5bbf3d657854427343f4c083240f7aacaa2d0f62\n        /* \"Arevea-NFT-Market/NFT-Contracts/newmultinft/ERC1155.sol\":5846:5848  id */\n      dup11\n        /* \"Arevea-NFT-Market/NFT-Contracts/newmultinft/ERC1155.sol\":5850:5856  amount */\n      dup11\n        /* \"Arevea-NFT-Market/NFT-Contracts/newmultinft/ERC1155.sol\":5811:5857  TransferSingle(operator, from, to, id, amount) */\n      mload(0x40)\n      tag_162\n      swap3\n      swap2\n      swap1\n      tag_163\n      jump\t// in\n    tag_162:\n      mload(0x40)\n      dup1\n      swap2\n      sub\n      swap1\n      log4\n        /* \"Arevea-NFT-Market/NFT-Contracts/newmultinft/ERC1155.sol\":5870:5929  _afterTokenTransfer(operator, from, to, ids, amounts, data) */\n      tag_164\n        /* \"Arevea-NFT-Market/NFT-Contracts/newmultinft/ERC1155.sol\":5890:5898  operator */\n      dup5\n        /* \"Arevea-NFT-Market/NFT-Contracts/newmultinft/ERC1155.sol\":5900:5904  from */\n      dup11\n        /* \"Arevea-NFT-Market/NFT-Contracts/newmultinft/ERC1155.sol\":5906:5908  to */\n      dup11\n        /* \"Arevea-NFT-Market/NFT-Contracts/newmultinft/ERC1155.sol\":5910:5913  ids */\n      dup7\n        /* \"Arevea-NFT-Market/NFT-Contracts/newmultinft/ERC1155.sol\":5915:5922  amounts */\n      dup7\n        /* \"Arevea-NFT-Market/NFT-Contracts/newmultinft/ERC1155.sol\":5924:5928  data */\n      dup11\n        /* \"Arevea-NFT-Market/NFT-Contracts/newmultinft/ERC1155.sol\":5870:5889  _afterTokenTransfer */\n      tag_143\n        /* \"Arevea-NFT-Market/NFT-Contracts/newmultinft/ERC1155.sol\":5870:5929  _afterTokenTransfer(operator, from, to, ids, amounts, data) */\n      jump\t// in\n    tag_164:\n        /* \"Arevea-NFT-Market/NFT-Contracts/newmultinft/ERC1155.sol\":5942:6010  _doSafeTransferAcceptanceCheck(operator, from, to, id, amount, data) */\n      tag_165\n        /* \"Arevea-NFT-Market/NFT-Contracts/newmultinft/ERC1155.sol\":5973:5981  operator */\n      dup5\n        /* \"Arevea-NFT-Market/NFT-Contracts/newmultinft/ERC1155.sol\":5983:5987  from */\n      dup11\n        /* \"Arevea-NFT-Market/NFT-Contracts/newmultinft/ERC1155.sol\":5989:5991  to */\n      dup11\n        /* \"Arevea-NFT-Market/NFT-Contracts/newmultinft/ERC1155.sol\":5993:5995  id */\n      dup11\n        /* \"Arevea-NFT-Market/NFT-Contracts/newmultinft/ERC1155.sol\":5997:6003  amount */\n      dup11\n        /* \"Arevea-NFT-Market/NFT-Contracts/newmultinft/ERC1155.sol\":6005:6009  data */\n      dup11\n        /* \"Arevea-NFT-Market/NFT-Contracts/newmultinft/ERC1155.sol\":5942:5972  _doSafeTransferAcceptanceCheck */\n      tag_166\n        /* \"Arevea-NFT-Market/NFT-Contracts/newmultinft/ERC1155.sol\":5942:6010  _doSafeTransferAcceptanceCheck(operator, from, to, id, amount, data) */\n      jump\t// in\n    tag_165:\n        /* \"Arevea-NFT-Market/NFT-Contracts/newmultinft/ERC1155.sol\":5213:6018  {\r... */\n      pop\n      pop\n      pop\n      pop\n        /* \"Arevea-NFT-Market/NFT-Contracts/newmultinft/ERC1155.sol\":5044:6018  function _safeTransferFrom(\r... */\n      pop\n      pop\n      pop\n      pop\n      pop\n      jump\t// out\n        /* \"Arevea-NFT-Market/NFT-Contracts/newmultinft/ERC1155.sol\":14542:14763  function _beforeTokenTransfer(\r... */\n    tag_126:\n      pop\n      pop\n      pop\n      pop\n      pop\n      pop\n      jump\t// out\n        /* \"Arevea-NFT-Market/NFT-Contracts/newmultinft/ERC1155.sol\":15718:15938  function _afterTokenTransfer(\r... */\n    tag_143:\n      pop\n      pop\n      pop\n      pop\n      pop\n      pop\n      jump\t// out\n        /* \"Arevea-NFT-Market/NFT-Contracts/newmultinft/ERC1155.sol\":16698:17511  function _doSafeBatchTransferAcceptanceCheck(\r... */\n    tag_145:\n        /* \"Arevea-NFT-Market/NFT-Contracts/newmultinft/ERC1155.sol\":16938:16953  to.isContract() */\n      tag_170\n        /* \"Arevea-NFT-Market/NFT-Contracts/newmultinft/ERC1155.sol\":16938:16940  to */\n      dup5\n        /* \"Arevea-NFT-Market/NFT-Contracts/newmultinft/ERC1155.sol\":16938:16951  to.isContract */\n      0xffffffffffffffffffffffffffffffffffffffff\n      and\n      tag_171\n        /* \"Arevea-NFT-Market/NFT-Contracts/newmultinft/ERC1155.sol\":16938:16953  to.isContract() */\n      jump\t// in\n    tag_170:\n        /* \"Arevea-NFT-Market/NFT-Contracts/newmultinft/ERC1155.sol\":16934:17504  if (to.isContract()) {\r... */\n      iszero\n      tag_172\n      jumpi\n        /* \"Arevea-NFT-Market/NFT-Contracts/newmultinft/ERC1155.sol\":16991:16993  to */\n      dup4\n        /* \"Arevea-NFT-Market/NFT-Contracts/newmultinft/ERC1155.sol\":16974:17017  IERC1155Receiver(to).onERC1155BatchReceived */\n      0xffffffffffffffffffffffffffffffffffffffff\n      and\n      0xbc197c81\n        /* \"Arevea-NFT-Market/NFT-Contracts/newmultinft/ERC1155.sol\":17018:17026  operator */\n      dup8\n        /* \"Arevea-NFT-Market/NFT-Contracts/newmultinft/ERC1155.sol\":17028:17032  from */\n      dup8\n        /* \"Arevea-NFT-Market/NFT-Contracts/newmultinft/ERC1155.sol\":17034:17037  ids */\n      dup7\n        /* \"Arevea-NFT-Market/NFT-Contracts/newmultinft/ERC1155.sol\":17039:17046  amounts */\n      dup7\n        /* \"Arevea-NFT-Market/NFT-Contracts/newmultinft/ERC1155.sol\":17048:17052  data */\n      dup7\n        /* \"Arevea-NFT-Market/NFT-Contracts/newmultinft/ERC1155.sol\":16974:17053  IERC1155Receiver(to).onERC1155BatchReceived(operator, from, ids, amounts, data) */\n      mload(0x40)\n      dup7\n      0xffffffff\n      and\n      0xe0\n      shl\n      dup2\n      mstore\n      0x04\n      add\n      tag_173\n      swap6\n      swap5\n      swap4\n      swap3\n      swap2\n      swap1\n      tag_174\n      jump\t// in\n    tag_173:\n      0x20\n      mload(0x40)\n      dup1\n      dup4\n      sub\n      dup2\n      0x00\n      dup8\n      dup1\n      extcodesize\n      iszero\n      dup1\n      iszero\n      tag_175\n      jumpi\n      0x00\n      dup1\n      revert\n    tag_175:\n      pop\n      gas\n      call\n      swap3\n      pop\n      pop\n      pop\n      dup1\n      iszero\n      tag_176\n      jumpi\n      pop\n      mload(0x40)\n      returndatasize\n      not(0x1f)\n      0x1f\n      dup3\n      add\n      and\n      dup3\n      add\n      dup1\n      0x40\n      mstore\n      pop\n      dup2\n      add\n      swap1\n      tag_177\n      swap2\n      swap1\n      tag_178\n      jump\t// in\n    tag_177:\n      0x01\n    tag_176:\n        /* \"Arevea-NFT-Market/NFT-Contracts/newmultinft/ERC1155.sol\":16970:17493  try IERC1155Receiver(to).onERC1155BatchReceived(operator, from, ids, amounts, data) returns (\r... */\n      tag_179\n      jumpi\n      tag_183\n      tag_184\n      jump\t// in\n    tag_183:\n      dup1\n      0x08c379a0\n      eq\n      iszero\n      tag_182\n      jumpi\n      pop\n      tag_185\n      tag_186\n      jump\t// in\n    tag_185:\n      dup1\n      tag_187\n      jumpi\n      pop\n      jump(tag_181)\n    tag_187:\n        /* \"Arevea-NFT-Market/NFT-Contracts/newmultinft/ERC1155.sol\":17366:17372  reason */\n      dup1\n        /* \"Arevea-NFT-Market/NFT-Contracts/newmultinft/ERC1155.sol\":17359:17373  revert(reason) */\n      mload(0x40)\n      0x08c379a000000000000000000000000000000000000000000000000000000000\n      dup2\n      mstore\n      0x04\n      add\n      tag_188\n      swap2\n      swap1\n      tag_29\n      jump\t// in\n    tag_188:\n      mload(0x40)\n      dup1\n      swap2\n      sub\n      swap1\n      revert\n        /* \"Arevea-NFT-Market/NFT-Contracts/newmultinft/ERC1155.sol\":16970:17493  try IERC1155Receiver(to).onERC1155BatchReceived(operator, from, ids, amounts, data) returns (\r... */\n    tag_182:\n      pop\n    tag_181:\n        /* \"Arevea-NFT-Market/NFT-Contracts/newmultinft/ERC1155.sol\":17415:17477  revert(\"ERC1155: transfer to non-ERC1155Receiver implementer\") */\n      mload(0x40)\n      0x08c379a000000000000000000000000000000000000000000000000000000000\n      dup2\n      mstore\n      0x04\n      add\n      tag_189\n      swap1\n      tag_190\n      jump\t// in\n    tag_189:\n      mload(0x40)\n      dup1\n      swap2\n      sub\n      swap1\n      revert\n        /* \"Arevea-NFT-Market/NFT-Contracts/newmultinft/ERC1155.sol\":16970:17493  try IERC1155Receiver(to).onERC1155BatchReceived(operator, from, ids, amounts, data) returns (\r... */\n    tag_179:\n        /* \"Arevea-NFT-Market/NFT-Contracts/newmultinft/ERC1155.sol\":17147:17195  IERC1155Receiver.onERC1155BatchReceived.selector */\n      shl(0xe0, 0xbc197c81)\n        /* \"Arevea-NFT-Market/NFT-Contracts/newmultinft/ERC1155.sol\":17135:17195  response != IERC1155Receiver.onERC1155BatchReceived.selector */\n      not(0xffffffffffffffffffffffffffffffffffffffffffffffffffffffff)\n      and\n        /* \"Arevea-NFT-Market/NFT-Contracts/newmultinft/ERC1155.sol\":17135:17143  response */\n      dup2\n        /* \"Arevea-NFT-Market/NFT-Contracts/newmultinft/ERC1155.sol\":17135:17195  response != IERC1155Receiver.onERC1155BatchReceived.selector */\n      not(0xffffffffffffffffffffffffffffffffffffffffffffffffffffffff)\n      and\n      eq\n        /* \"Arevea-NFT-Market/NFT-Contracts/newmultinft/ERC1155.sol\":17131:17290  if (response != IERC1155Receiver.onERC1155BatchReceived.selector) {\r... */\n      tag_192\n      jumpi\n        /* \"Arevea-NFT-Market/NFT-Contracts/newmultinft/ERC1155.sol\":17220:17270  revert(\"ERC1155: ERC1155Receiver rejected tokens\") */\n      mload(0x40)\n      0x08c379a000000000000000000000000000000000000000000000000000000000\n      dup2\n      mstore\n      0x04\n      add\n      tag_193\n      swap1\n      tag_194\n      jump\t// in\n    tag_193:\n      mload(0x40)\n      dup1\n      swap2\n      sub\n      swap1\n      revert\n        /* \"Arevea-NFT-Market/NFT-Contracts/newmultinft/ERC1155.sol\":17131:17290  if (response != IERC1155Receiver.onERC1155BatchReceived.selector) {\r... */\n    tag_192:\n        /* \"Arevea-NFT-Market/NFT-Contracts/newmultinft/ERC1155.sol\":17054:17305  returns (\r... */\n      pop\n        /* \"Arevea-NFT-Market/NFT-Contracts/newmultinft/ERC1155.sol\":16934:17504  if (to.isContract()) {\r... */\n    tag_172:\n        /* \"Arevea-NFT-Market/NFT-Contracts/newmultinft/ERC1155.sol\":16698:17511  function _doSafeBatchTransferAcceptanceCheck(\r... */\n      pop\n      pop\n      pop\n      pop\n      pop\n      pop\n      jump\t// out\n        /* \"Arevea-NFT-Market/NFT-Contracts/newmultinft/ERC1155.sol\":17519:17717  function _asSingletonArray(uint256 element) private pure returns (uint256[] memory) {\r... */\n    tag_156:\n        /* \"Arevea-NFT-Market/NFT-Contracts/newmultinft/ERC1155.sol\":17585:17601  uint256[] memory */\n      0x60\n        /* \"Arevea-NFT-Market/NFT-Contracts/newmultinft/ERC1155.sol\":17614:17636  uint256[] memory array */\n      0x00\n        /* \"Arevea-NFT-Market/NFT-Contracts/newmultinft/ERC1155.sol\":17653:17654  1 */\n      0x01\n        /* \"Arevea-NFT-Market/NFT-Contracts/newmultinft/ERC1155.sol\":17639:17655  new uint256[](1) */\n      0xffffffffffffffff\n      dup2\n      gt\n      iszero\n      tag_196\n      jumpi\n      tag_197\n      tag_86\n      jump\t// in\n    tag_197:\n    tag_196:\n      mload(0x40)\n      swap1\n      dup1\n      dup3\n      mstore\n      dup1\n      0x20\n      mul\n      0x20\n      add\n      dup3\n      add\n      0x40\n      mstore\n      dup1\n      iszero\n      tag_198\n      jumpi\n      dup2\n      0x20\n      add\n      0x20\n      dup3\n      mul\n      dup1\n      calldatasize\n      dup4\n      calldatacopy\n      dup1\n      dup3\n      add\n      swap2\n      pop\n      pop\n      swap1\n      pop\n    tag_198:\n      pop\n        /* \"Arevea-NFT-Market/NFT-Contracts/newmultinft/ERC1155.sol\":17614:17655  uint256[] memory array = new uint256[](1) */\n      swap1\n      pop\n        /* \"Arevea-NFT-Market/NFT-Contracts/newmultinft/ERC1155.sol\":17677:17684  element */\n      dup3\n        /* \"Arevea-NFT-Market/NFT-Contracts/newmultinft/ERC1155.sol\":17666:17671  array */\n      dup2\n        /* \"Arevea-NFT-Market/NFT-Contracts/newmultinft/ERC1155.sol\":17672:17673  0 */\n      0x00\n        /* \"Arevea-NFT-Market/NFT-Contracts/newmultinft/ERC1155.sol\":17666:17674  array[0] */\n      dup2\n      mload\n      dup2\n      lt\n      tag_199\n      jumpi\n      tag_200\n      tag_94\n      jump\t// in\n    tag_200:\n    tag_199:\n      0x20\n      mul\n      0x20\n      add\n      add\n        /* \"Arevea-NFT-Market/NFT-Contracts/newmultinft/ERC1155.sol\":17666:17684  array[0] = element */\n      dup2\n      dup2\n      mstore\n      pop\n      pop\n        /* \"Arevea-NFT-Market/NFT-Contracts/newmultinft/ERC1155.sol\":17704:17709  array */\n      dup1\n        /* \"Arevea-NFT-Market/NFT-Contracts/newmultinft/ERC1155.sol\":17697:17709  return array */\n      swap2\n      pop\n      pop\n        /* \"Arevea-NFT-Market/NFT-Contracts/newmultinft/ERC1155.sol\":17519:17717  function _asSingletonArray(uint256 element) private pure returns (uint256[] memory) {\r... */\n      swap2\n      swap1\n      pop\n      jump\t// out\n        /* \"Arevea-NFT-Market/NFT-Contracts/newmultinft/ERC1155.sol\":15946:16690  function _doSafeTransferAcceptanceCheck(\r... */\n    tag_166:\n        /* \"Arevea-NFT-Market/NFT-Contracts/newmultinft/ERC1155.sol\":16161:16176  to.isContract() */\n      tag_202\n        /* \"Arevea-NFT-Market/NFT-Contracts/newmultinft/ERC1155.sol\":16161:16163  to */\n      dup5\n        /* \"Arevea-NFT-Market/NFT-Contracts/newmultinft/ERC1155.sol\":16161:16174  to.isContract */\n      0xffffffffffffffffffffffffffffffffffffffff\n      and\n      tag_171\n        /* \"Arevea-NFT-Market/NFT-Contracts/newmultinft/ERC1155.sol\":16161:16176  to.isContract() */\n      jump\t// in\n    tag_202:\n        /* \"Arevea-NFT-Market/NFT-Contracts/newmultinft/ERC1155.sol\":16157:16683  if (to.isContract()) {\r... */\n      iszero\n      tag_203\n      jumpi\n        /* \"Arevea-NFT-Market/NFT-Contracts/newmultinft/ERC1155.sol\":16214:16216  to */\n      dup4\n        /* \"Arevea-NFT-Market/NFT-Contracts/newmultinft/ERC1155.sol\":16197:16235  IERC1155Receiver(to).onERC1155Received */\n      0xffffffffffffffffffffffffffffffffffffffff\n      and\n      0xf23a6e61\n        /* \"Arevea-NFT-Market/NFT-Contracts/newmultinft/ERC1155.sol\":16236:16244  operator */\n      dup8\n        /* \"Arevea-NFT-Market/NFT-Contracts/newmultinft/ERC1155.sol\":16246:16250  from */\n      dup8\n        /* \"Arevea-NFT-Market/NFT-Contracts/newmultinft/ERC1155.sol\":16252:16254  id */\n      dup7\n        /* \"Arevea-NFT-Market/NFT-Contracts/newmultinft/ERC1155.sol\":16256:16262  amount */\n      dup7\n        /* \"Arevea-NFT-Market/NFT-Contracts/newmultinft/ERC1155.sol\":16264:16268  data */\n      dup7\n        /* \"Arevea-NFT-Market/NFT-Contracts/newmultinft/ERC1155.sol\":16197:16269  IERC1155Receiver(to).onERC1155Received(operator, from, id, amount, data) */\n      mload(0x40)\n      dup7\n      0xffffffff\n      and\n      0xe0\n      shl\n      dup2\n      mstore\n      0x04\n      add\n      tag_204\n      swap6\n      swap5\n      swap4\n      swap3\n      swap2\n      swap1\n      tag_205\n      jump\t// in\n    tag_204:\n      0x20\n      mload(0x40)\n      dup1\n      dup4\n      sub\n      dup2\n      0x00\n      dup8\n      dup1\n      extcodesize\n      iszero\n      dup1\n      iszero\n      tag_206\n      jumpi\n      0x00\n      dup1\n      revert\n    tag_206:\n      pop\n      gas\n      call\n      swap3\n      pop\n      pop\n      pop\n      dup1\n      iszero\n      tag_207\n      jumpi\n      pop\n      mload(0x40)\n      returndatasize\n      not(0x1f)\n      0x1f\n      dup3\n      add\n      and\n      dup3\n      add\n      dup1\n      0x40\n      mstore\n      pop\n      dup2\n      add\n      swap1\n      tag_208\n      swap2\n      swap1\n      tag_178\n      jump\t// in\n    tag_208:\n      0x01\n    tag_207:\n        /* \"Arevea-NFT-Market/NFT-Contracts/newmultinft/ERC1155.sol\":16193:16672  try IERC1155Receiver(to).onERC1155Received(operator, from, id, amount, data) returns (bytes4 response) {\r... */\n      tag_209\n      jumpi\n      tag_213\n      tag_184\n      jump\t// in\n    tag_213:\n      dup1\n      0x08c379a0\n      eq\n      iszero\n      tag_212\n      jumpi\n      pop\n      tag_214\n      tag_186\n      jump\t// in\n    tag_214:\n      dup1\n      tag_215\n      jumpi\n      pop\n      jump(tag_211)\n    tag_215:\n        /* \"Arevea-NFT-Market/NFT-Contracts/newmultinft/ERC1155.sol\":16545:16551  reason */\n      dup1\n        /* \"Arevea-NFT-Market/NFT-Contracts/newmultinft/ERC1155.sol\":16538:16552  revert(reason) */\n      mload(0x40)\n      0x08c379a000000000000000000000000000000000000000000000000000000000\n      dup2\n      mstore\n      0x04\n      add\n      tag_216\n      swap2\n      swap1\n      tag_29\n      jump\t// in\n    tag_216:\n      mload(0x40)\n      dup1\n      swap2\n      sub\n      swap1\n      revert\n        /* \"Arevea-NFT-Market/NFT-Contracts/newmultinft/ERC1155.sol\":16193:16672  try IERC1155Receiver(to).onERC1155Received(operator, from, id, amount, data) returns (bytes4 response) {\r... */\n    tag_212:\n      pop\n    tag_211:\n        /* \"Arevea-NFT-Market/NFT-Contracts/newmultinft/ERC1155.sol\":16594:16656  revert(\"ERC1155: transfer to non-ERC1155Receiver implementer\") */\n      mload(0x40)\n      0x08c379a000000000000000000000000000000000000000000000000000000000\n      dup2\n      mstore\n      0x04\n      add\n      tag_217\n      swap1\n      tag_190\n      jump\t// in\n    tag_217:\n      mload(0x40)\n      dup1\n      swap2\n      sub\n      swap1\n      revert\n        /* \"Arevea-NFT-Market/NFT-Contracts/newmultinft/ERC1155.sol\":16193:16672  try IERC1155Receiver(to).onERC1155Received(operator, from, id, amount, data) returns (bytes4 response) {\r... */\n    tag_209:\n        /* \"Arevea-NFT-Market/NFT-Contracts/newmultinft/ERC1155.sol\":16331:16374  IERC1155Receiver.onERC1155Received.selector */\n      shl(0xe0, 0xf23a6e61)\n        /* \"Arevea-NFT-Market/NFT-Contracts/newmultinft/ERC1155.sol\":16319:16374  response != IERC1155Receiver.onERC1155Received.selector */\n      not(0xffffffffffffffffffffffffffffffffffffffffffffffffffffffff)\n      and\n        /* \"Arevea-NFT-Market/NFT-Contracts/newmultinft/ERC1155.sol\":16319:16327  response */\n      dup2\n        /* \"Arevea-NFT-Market/NFT-Contracts/newmultinft/ERC1155.sol\":16319:16374  response != IERC1155Receiver.onERC1155Received.selector */\n      not(0xffffffffffffffffffffffffffffffffffffffffffffffffffffffff)\n      and\n      eq\n        /* \"Arevea-NFT-Market/NFT-Contracts/newmultinft/ERC1155.sol\":16315:16469  if (response != IERC1155Receiver.onERC1155Received.selector) {\r... */\n      tag_219\n      jumpi\n        /* \"Arevea-NFT-Market/NFT-Contracts/newmultinft/ERC1155.sol\":16399:16449  revert(\"ERC1155: ERC1155Receiver rejected tokens\") */\n      mload(0x40)\n      0x08c379a000000000000000000000000000000000000000000000000000000000\n      dup2\n      mstore\n      0x04\n      add\n      tag_220\n      swap1\n      tag_194\n      jump\t// in\n    tag_220:\n      mload(0x40)\n      dup1\n      swap2\n      sub\n      swap1\n      revert\n        /* \"Arevea-NFT-Market/NFT-Contracts/newmultinft/ERC1155.sol\":16315:16469  if (response != IERC1155Receiver.onERC1155Received.selector) {\r... */\n    tag_219:\n        /* \"Arevea-NFT-Market/NFT-Contracts/newmultinft/ERC1155.sol\":16270:16484  returns (bytes4 response) {\r... */\n      pop\n        /* \"Arevea-NFT-Market/NFT-Contracts/newmultinft/ERC1155.sol\":16157:16683  if (to.isContract()) {\r... */\n    tag_203:\n        /* \"Arevea-NFT-Market/NFT-Contracts/newmultinft/ERC1155.sol\":15946:16690  function _doSafeTransferAcceptanceCheck(\r... */\n      pop\n      pop\n      pop\n      pop\n      pop\n      pop\n      jump\t// out\n        /* \"Arevea-NFT-Market/NFT-Contracts/newmultinft/Address.sol\":1210:1536  function isContract(address account) internal view returns (bool) {\r... */\n    tag_171:\n        /* \"Arevea-NFT-Market/NFT-Contracts/newmultinft/Address.sol\":1270:1274  bool */\n      0x00\n        /* \"Arevea-NFT-Market/NFT-Contracts/newmultinft/Address.sol\":1527:1528  0 */\n      dup1\n        /* \"Arevea-NFT-Market/NFT-Contracts/newmultinft/Address.sol\":1505:1512  account */\n      dup3\n        /* \"Arevea-NFT-Market/NFT-Contracts/newmultinft/Address.sol\":1505:1524  account.code.length */\n      0xffffffffffffffffffffffffffffffffffffffff\n      and\n      extcodesize\n        /* \"Arevea-NFT-Market/NFT-Contracts/newmultinft/Address.sol\":1505:1528  account.code.length > 0 */\n      gt\n        /* \"Arevea-NFT-Market/NFT-Contracts/newmultinft/Address.sol\":1498:1528  return account.code.length > 0 */\n      swap1\n      pop\n        /* \"Arevea-NFT-Market/NFT-Contracts/newmultinft/Address.sol\":1210:1536  function isContract(address account) internal view returns (bool) {\r... */\n      swap2\n      swap1\n      pop\n      jump\t// out\n        /* \"#utility.yul\":24:746   */\n    tag_223:\n        /* \"#utility.yul\":120:125   */\n      0x00\n        /* \"#utility.yul\":145:226   */\n      tag_225\n        /* \"#utility.yul\":161:225   */\n      tag_226\n        /* \"#utility.yul\":218:224   */\n      dup5\n        /* \"#utility.yul\":161:225   */\n      tag_227\n      jump\t// in\n    tag_226:\n        /* \"#utility.yul\":145:226   */\n      tag_228\n      jump\t// in\n    tag_225:\n        /* \"#utility.yul\":136:226   */\n      swap1\n      pop\n        /* \"#utility.yul\":246:251   */\n      dup1\n        /* \"#utility.yul\":275:281   */\n      dup4\n        /* \"#utility.yul\":268:273   */\n      dup3\n        /* \"#utility.yul\":261:282   */\n      mstore\n        /* \"#utility.yul\":309:313   */\n      0x20\n        /* \"#utility.yul\":302:307   */\n      dup3\n        /* \"#utility.yul\":298:314   */\n      add\n        /* \"#utility.yul\":291:314   */\n      swap1\n      pop\n        /* \"#utility.yul\":335:341   */\n      dup3\n        /* \"#utility.yul\":385:388   */\n      dup6\n        /* \"#utility.yul\":377:381   */\n      0x20\n        /* \"#utility.yul\":369:375   */\n      dup7\n        /* \"#utility.yul\":365:382   */\n      mul\n        /* \"#utility.yul\":360:363   */\n      dup3\n        /* \"#utility.yul\":356:383   */\n      add\n        /* \"#utility.yul\":353:389   */\n      gt\n        /* \"#utility.yul\":350:493   */\n      iszero\n      tag_229\n      jumpi\n        /* \"#utility.yul\":404:483   */\n      tag_230\n      tag_231\n      jump\t// in\n    tag_230:\n        /* \"#utility.yul\":350:493   */\n    tag_229:\n        /* \"#utility.yul\":517:518   */\n      0x00\n        /* \"#utility.yul\":502:740   */\n    tag_232:\n        /* \"#utility.yul\":527:533   */\n      dup6\n        /* \"#utility.yul\":524:525   */\n      dup2\n        /* \"#utility.yul\":521:534   */\n      lt\n        /* \"#utility.yul\":502:740   */\n      iszero\n      tag_234\n      jumpi\n        /* \"#utility.yul\":595:598   */\n      dup2\n        /* \"#utility.yul\":624:661   */\n      tag_235\n        /* \"#utility.yul\":657:660   */\n      dup9\n        /* \"#utility.yul\":645:655   */\n      dup3\n        /* \"#utility.yul\":624:661   */\n      tag_236\n      jump\t// in\n    tag_235:\n        /* \"#utility.yul\":619:622   */\n      dup5\n        /* \"#utility.yul\":612:662   */\n      mstore\n        /* \"#utility.yul\":691:695   */\n      0x20\n        /* \"#utility.yul\":686:689   */\n      dup5\n        /* \"#utility.yul\":682:696   */\n      add\n        /* \"#utility.yul\":675:696   */\n      swap4\n      pop\n        /* \"#utility.yul\":725:729   */\n      0x20\n        /* \"#utility.yul\":720:723   */\n      dup4\n        /* \"#utility.yul\":716:730   */\n      add\n        /* \"#utility.yul\":709:730   */\n      swap3\n      pop\n        /* \"#utility.yul\":562:740   */\n      pop\n        /* \"#utility.yul\":549:550   */\n      0x01\n        /* \"#utility.yul\":546:547   */\n      dup2\n        /* \"#utility.yul\":542:551   */\n      add\n        /* \"#utility.yul\":537:551   */\n      swap1\n      pop\n        /* \"#utility.yul\":502:740   */\n      jump(tag_232)\n    tag_234:\n        /* \"#utility.yul\":506:520   */\n      pop\n        /* \"#utility.yul\":126:746   */\n      pop\n      pop\n        /* \"#utility.yul\":24:746   */\n      swap4\n      swap3\n      pop\n      pop\n      pop\n      jump\t// out\n        /* \"#utility.yul\":769:1491   */\n    tag_237:\n        /* \"#utility.yul\":865:870   */\n      0x00\n        /* \"#utility.yul\":890:971   */\n      tag_239\n        /* \"#utility.yul\":906:970   */\n      tag_240\n        /* \"#utility.yul\":963:969   */\n      dup5\n        /* \"#utility.yul\":906:970   */\n      tag_241\n      jump\t// in\n    tag_240:\n        /* \"#utility.yul\":890:971   */\n      tag_228\n      jump\t// in\n    tag_239:\n        /* \"#utility.yul\":881:971   */\n      swap1\n      pop\n        /* \"#utility.yul\":991:996   */\n      dup1\n        /* \"#utility.yul\":1020:1026   */\n      dup4\n        /* \"#utility.yul\":1013:1018   */\n      dup3\n        /* \"#utility.yul\":1006:1027   */\n      mstore\n        /* \"#utility.yul\":1054:1058   */\n      0x20\n        /* \"#utility.yul\":1047:1052   */\n      dup3\n        /* \"#utility.yul\":1043:1059   */\n      add\n        /* \"#utility.yul\":1036:1059   */\n      swap1\n      pop\n        /* \"#utility.yul\":1080:1086   */\n      dup3\n        /* \"#utility.yul\":1130:1133   */\n      dup6\n        /* \"#utility.yul\":1122:1126   */\n      0x20\n        /* \"#utility.yul\":1114:1120   */\n      dup7\n        /* \"#utility.yul\":1110:1127   */\n      mul\n        /* \"#utility.yul\":1105:1108   */\n      dup3\n        /* \"#utility.yul\":1101:1128   */\n      add\n        /* \"#utility.yul\":1098:1134   */\n      gt\n        /* \"#utility.yul\":1095:1238   */\n      iszero\n      tag_242\n      jumpi\n        /* \"#utility.yul\":1149:1228   */\n      tag_243\n      tag_231\n      jump\t// in\n    tag_243:\n        /* \"#utility.yul\":1095:1238   */\n    tag_242:\n        /* \"#utility.yul\":1262:1263   */\n      0x00\n        /* \"#utility.yul\":1247:1485   */\n    tag_244:\n        /* \"#utility.yul\":1272:1278   */\n      dup6\n        /* \"#utility.yul\":1269:1270   */\n      dup2\n        /* \"#utility.yul\":1266:1279   */\n      lt\n        /* \"#utility.yul\":1247:1485   */\n      iszero\n      tag_246\n      jumpi\n        /* \"#utility.yul\":1340:1343   */\n      dup2\n        /* \"#utility.yul\":1369:1406   */\n      tag_247\n        /* \"#utility.yul\":1402:1405   */\n      dup9\n        /* \"#utility.yul\":1390:1400   */\n      dup3\n        /* \"#utility.yul\":1369:1406   */\n      tag_248\n      jump\t// in\n    tag_247:\n        /* \"#utility.yul\":1364:1367   */\n      dup5\n        /* \"#utility.yul\":1357:1407   */\n      mstore\n        /* \"#utility.yul\":1436:1440   */\n      0x20\n        /* \"#utility.yul\":1431:1434   */\n      dup5\n        /* \"#utility.yul\":1427:1441   */\n      add\n        /* \"#utility.yul\":1420:1441   */\n      swap4\n      pop\n        /* \"#utility.yul\":1470:1474   */\n      0x20\n        /* \"#utility.yul\":1465:1468   */\n      dup4\n        /* \"#utility.yul\":1461:1475   */\n      add\n        /* \"#utility.yul\":1454:1475   */\n      swap3\n      pop\n        /* \"#utility.yul\":1307:1485   */\n      pop\n        /* \"#utility.yul\":1294:1295   */\n      0x01\n        /* \"#utility.yul\":1291:1292   */\n      dup2\n        /* \"#utility.yul\":1287:1296   */\n      add\n        /* \"#utility.yul\":1282:1296   */\n      swap1\n      pop\n        /* \"#utility.yul\":1247:1485   */\n      jump(tag_244)\n    tag_246:\n        /* \"#utility.yul\":1251:1265   */\n      pop\n        /* \"#utility.yul\":871:1491   */\n      pop\n      pop\n        /* \"#utility.yul\":769:1491   */\n      swap4\n      swap3\n      pop\n      pop\n      pop\n      jump\t// out\n        /* \"#utility.yul\":1497:1907   */\n    tag_249:\n        /* \"#utility.yul\":1574:1579   */\n      0x00\n        /* \"#utility.yul\":1599:1664   */\n      tag_251\n        /* \"#utility.yul\":1615:1663   */\n      tag_252\n        /* \"#utility.yul\":1656:1662   */\n      dup5\n        /* \"#utility.yul\":1615:1663   */\n      tag_253\n      jump\t// in\n    tag_252:\n        /* \"#utility.yul\":1599:1664   */\n      tag_228\n      jump\t// in\n    tag_251:\n        /* \"#utility.yul\":1590:1664   */\n      swap1\n      pop\n        /* \"#utility.yul\":1687:1693   */\n      dup3\n        /* \"#utility.yul\":1680:1685   */\n      dup2\n        /* \"#utility.yul\":1673:1694   */\n      mstore\n        /* \"#utility.yul\":1725:1729   */\n      0x20\n        /* \"#utility.yul\":1718:1723   */\n      dup2\n        /* \"#utility.yul\":1714:1730   */\n      add\n        /* \"#utility.yul\":1763:1766   */\n      dup5\n        /* \"#utility.yul\":1754:1760   */\n      dup5\n        /* \"#utility.yul\":1749:1752   */\n      dup5\n        /* \"#utility.yul\":1745:1761   */\n      add\n        /* \"#utility.yul\":1742:1767   */\n      gt\n        /* \"#utility.yul\":1739:1851   */\n      iszero\n      tag_254\n      jumpi\n        /* \"#utility.yul\":1770:1849   */\n      tag_255\n      tag_256\n      jump\t// in\n    tag_255:\n        /* \"#utility.yul\":1739:1851   */\n    tag_254:\n        /* \"#utility.yul\":1860:1901   */\n      tag_257\n        /* \"#utility.yul\":1894:1900   */\n      dup5\n        /* \"#utility.yul\":1889:1892   */\n      dup3\n        /* \"#utility.yul\":1884:1887   */\n      dup6\n        /* \"#utility.yul\":1860:1901   */\n      tag_258\n      jump\t// in\n    tag_257:\n        /* \"#utility.yul\":1580:1907   */\n      pop\n        /* \"#utility.yul\":1497:1907   */\n      swap4\n      swap3\n      pop\n      pop\n      pop\n      jump\t// out\n        /* \"#utility.yul\":1913:2052   */\n    tag_236:\n        /* \"#utility.yul\":1959:1964   */\n      0x00\n        /* \"#utility.yul\":1997:2003   */\n      dup2\n        /* \"#utility.yul\":1984:2004   */\n      calldataload\n        /* \"#utility.yul\":1975:2004   */\n      swap1\n      pop\n        /* \"#utility.yul\":2013:2046   */\n      tag_260\n        /* \"#utility.yul\":2040:2045   */\n      dup2\n        /* \"#utility.yul\":2013:2046   */\n      tag_261\n      jump\t// in\n    tag_260:\n        /* \"#utility.yul\":1913:2052   */\n      swap3\n      swap2\n      pop\n      pop\n      jump\t// out\n        /* \"#utility.yul\":2075:2445   */\n    tag_262:\n        /* \"#utility.yul\":2146:2151   */\n      0x00\n        /* \"#utility.yul\":2195:2198   */\n      dup3\n        /* \"#utility.yul\":2188:2192   */\n      0x1f\n        /* \"#utility.yul\":2180:2186   */\n      dup4\n        /* \"#utility.yul\":2176:2193   */\n      add\n        /* \"#utility.yul\":2172:2199   */\n      slt\n        /* \"#utility.yul\":2162:2284   */\n      tag_264\n      jumpi\n        /* \"#utility.yul\":2203:2282   */\n      tag_265\n      tag_266\n      jump\t// in\n    tag_265:\n        /* \"#utility.yul\":2162:2284   */\n    tag_264:\n        /* \"#utility.yul\":2320:2326   */\n      dup2\n        /* \"#utility.yul\":2307:2327   */\n      calldataload\n        /* \"#utility.yul\":2345:2439   */\n      tag_267\n        /* \"#utility.yul\":2435:2438   */\n      dup5\n        /* \"#utility.yul\":2427:2433   */\n      dup3\n        /* \"#utility.yul\":2420:2424   */\n      0x20\n        /* \"#utility.yul\":2412:2418   */\n      dup7\n        /* \"#utility.yul\":2408:2425   */\n      add\n        /* \"#utility.yul\":2345:2439   */\n      tag_223\n      jump\t// in\n    tag_267:\n        /* \"#utility.yul\":2336:2439   */\n      swap2\n      pop\n        /* \"#utility.yul\":2152:2445   */\n      pop\n        /* \"#utility.yul\":2075:2445   */\n      swap3\n      swap2\n      pop\n      pop\n      jump\t// out\n        /* \"#utility.yul\":2468:2838   */\n    tag_268:\n        /* \"#utility.yul\":2539:2544   */\n      0x00\n        /* \"#utility.yul\":2588:2591   */\n      dup3\n        /* \"#utility.yul\":2581:2585   */\n      0x1f\n        /* \"#utility.yul\":2573:2579   */\n      dup4\n        /* \"#utility.yul\":2569:2586   */\n      add\n        /* \"#utility.yul\":2565:2592   */\n      slt\n        /* \"#utility.yul\":2555:2677   */\n      tag_270\n      jumpi\n        /* \"#utility.yul\":2596:2675   */\n      tag_271\n      tag_266\n      jump\t// in\n    tag_271:\n        /* \"#utility.yul\":2555:2677   */\n    tag_270:\n        /* \"#utility.yul\":2713:2719   */\n      dup2\n        /* \"#utility.yul\":2700:2720   */\n      calldataload\n        /* \"#utility.yul\":2738:2832   */\n      tag_272\n        /* \"#utility.yul\":2828:2831   */\n      dup5\n        /* \"#utility.yul\":2820:2826   */\n      dup3\n        /* \"#utility.yul\":2813:2817   */\n      0x20\n        /* \"#utility.yul\":2805:2811   */\n      dup7\n        /* \"#utility.yul\":2801:2818   */\n      add\n        /* \"#utility.yul\":2738:2832   */\n      tag_237\n      jump\t// in\n    tag_272:\n        /* \"#utility.yul\":2729:2832   */\n      swap2\n      pop\n        /* \"#utility.yul\":2545:2838   */\n      pop\n        /* \"#utility.yul\":2468:2838   */\n      swap3\n      swap2\n      pop\n      pop\n      jump\t// out\n        /* \"#utility.yul\":2844:2977   */\n    tag_273:\n        /* \"#utility.yul\":2887:2892   */\n      0x00\n        /* \"#utility.yul\":2925:2931   */\n      dup2\n        /* \"#utility.yul\":2912:2932   */\n      calldataload\n        /* \"#utility.yul\":2903:2932   */\n      swap1\n      pop\n        /* \"#utility.yul\":2941:2971   */\n      tag_275\n        /* \"#utility.yul\":2965:2970   */\n      dup2\n        /* \"#utility.yul\":2941:2971   */\n      tag_276\n      jump\t// in\n    tag_275:\n        /* \"#utility.yul\":2844:2977   */\n      swap3\n      swap2\n      pop\n      pop\n      jump\t// out\n        /* \"#utility.yul\":2983:3120   */\n    tag_277:\n        /* \"#utility.yul\":3028:3033   */\n      0x00\n        /* \"#utility.yul\":3066:3072   */\n      dup2\n        /* \"#utility.yul\":3053:3073   */\n      calldataload\n        /* \"#utility.yul\":3044:3073   */\n      swap1\n      pop\n        /* \"#utility.yul\":3082:3114   */\n      tag_279\n        /* \"#utility.yul\":3108:3113   */\n      dup2\n        /* \"#utility.yul\":3082:3114   */\n      tag_280\n      jump\t// in\n    tag_279:\n        /* \"#utility.yul\":2983:3120   */\n      swap3\n      swap2\n      pop\n      pop\n      jump\t// out\n        /* \"#utility.yul\":3126:3267   */\n    tag_281:\n        /* \"#utility.yul\":3182:3187   */\n      0x00\n        /* \"#utility.yul\":3213:3219   */\n      dup2\n        /* \"#utility.yul\":3207:3220   */\n      mload\n        /* \"#utility.yul\":3198:3220   */\n      swap1\n      pop\n        /* \"#utility.yul\":3229:3261   */\n      tag_283\n        /* \"#utility.yul\":3255:3260   */\n      dup2\n        /* \"#utility.yul\":3229:3261   */\n      tag_280\n      jump\t// in\n    tag_283:\n        /* \"#utility.yul\":3126:3267   */\n      swap3\n      swap2\n      pop\n      pop\n      jump\t// out\n        /* \"#utility.yul\":3286:3624   */\n    tag_284:\n        /* \"#utility.yul\":3341:3346   */\n      0x00\n        /* \"#utility.yul\":3390:3393   */\n      dup3\n        /* \"#utility.yul\":3383:3387   */\n      0x1f\n        /* \"#utility.yul\":3375:3381   */\n      dup4\n        /* \"#utility.yul\":3371:3388   */\n      add\n        /* \"#utility.yul\":3367:3394   */\n      slt\n        /* \"#utility.yul\":3357:3479   */\n      tag_286\n      jumpi\n        /* \"#utility.yul\":3398:3477   */\n      tag_287\n      tag_266\n      jump\t// in\n    tag_287:\n        /* \"#utility.yul\":3357:3479   */\n    tag_286:\n        /* \"#utility.yul\":3515:3521   */\n      dup2\n        /* \"#utility.yul\":3502:3522   */\n      calldataload\n        /* \"#utility.yul\":3540:3618   */\n      tag_288\n        /* \"#utility.yul\":3614:3617   */\n      dup5\n        /* \"#utility.yul\":3606:3612   */\n      dup3\n        /* \"#utility.yul\":3599:3603   */\n      0x20\n        /* \"#utility.yul\":3591:3597   */\n      dup7\n        /* \"#utility.yul\":3587:3604   */\n      add\n        /* \"#utility.yul\":3540:3618   */\n      tag_249\n      jump\t// in\n    tag_288:\n        /* \"#utility.yul\":3531:3618   */\n      swap2\n      pop\n        /* \"#utility.yul\":3347:3624   */\n      pop\n        /* \"#utility.yul\":3286:3624   */\n      swap3\n      swap2\n      pop\n      pop\n      jump\t// out\n        /* \"#utility.yul\":3630:3769   */\n    tag_248:\n        /* \"#utility.yul\":3676:3681   */\n      0x00\n        /* \"#utility.yul\":3714:3720   */\n      dup2\n        /* \"#utility.yul\":3701:3721   */\n      calldataload\n        /* \"#utility.yul\":3692:3721   */\n      swap1\n      pop\n        /* \"#utility.yul\":3730:3763   */\n      tag_290\n        /* \"#utility.yul\":3757:3762   */\n      dup2\n        /* \"#utility.yul\":3730:3763   */\n      tag_291\n      jump\t// in\n    tag_290:\n        /* \"#utility.yul\":3630:3769   */\n      swap3\n      swap2\n      pop\n      pop\n      jump\t// out\n        /* \"#utility.yul\":3775:4249   */\n    tag_46:\n        /* \"#utility.yul\":3843:3849   */\n      0x00\n        /* \"#utility.yul\":3851:3857   */\n      dup1\n        /* \"#utility.yul\":3900:3902   */\n      0x40\n        /* \"#utility.yul\":3888:3897   */\n      dup4\n        /* \"#utility.yul\":3879:3886   */\n      dup6\n        /* \"#utility.yul\":3875:3898   */\n      sub\n        /* \"#utility.yul\":3871:3903   */\n      slt\n        /* \"#utility.yul\":3868:3987   */\n      iszero\n      tag_293\n      jumpi\n        /* \"#utility.yul\":3906:3985   */\n      tag_294\n      tag_295\n      jump\t// in\n    tag_294:\n        /* \"#utility.yul\":3868:3987   */\n    tag_293:\n        /* \"#utility.yul\":4026:4027   */\n      0x00\n        /* \"#utility.yul\":4051:4104   */\n      tag_296\n        /* \"#utility.yul\":4096:4103   */\n      dup6\n        /* \"#utility.yul\":4087:4093   */\n      dup3\n        /* \"#utility.yul\":4076:4085   */\n      dup7\n        /* \"#utility.yul\":4072:4094   */\n      add\n        /* \"#utility.yul\":4051:4104   */\n      tag_236\n      jump\t// in\n    tag_296:\n        /* \"#utility.yul\":4041:4104   */\n      swap3\n      pop\n        /* \"#utility.yul\":3997:4114   */\n      pop\n        /* \"#utility.yul\":4153:4155   */\n      0x20\n        /* \"#utility.yul\":4179:4232   */\n      tag_297\n        /* \"#utility.yul\":4224:4231   */\n      dup6\n        /* \"#utility.yul\":4215:4221   */\n      dup3\n        /* \"#utility.yul\":4204:4213   */\n      dup7\n        /* \"#utility.yul\":4200:4222   */\n      add\n        /* \"#utility.yul\":4179:4232   */\n      tag_236\n      jump\t// in\n    tag_297:\n        /* \"#utility.yul\":4169:4232   */\n      swap2\n      pop\n        /* \"#utility.yul\":4124:4242   */\n      pop\n        /* \"#utility.yul\":3775:4249   */\n      swap3\n      pop\n      swap3\n      swap1\n      pop\n      jump\t// out\n        /* \"#utility.yul\":4255:5764   */\n    tag_32:\n        /* \"#utility.yul\":4409:4415   */\n      0x00\n        /* \"#utility.yul\":4417:4423   */\n      dup1\n        /* \"#utility.yul\":4425:4431   */\n      0x00\n        /* \"#utility.yul\":4433:4439   */\n      dup1\n        /* \"#utility.yul\":4441:4447   */\n      0x00\n        /* \"#utility.yul\":4490:4493   */\n      0xa0\n        /* \"#utility.yul\":4478:4487   */\n      dup7\n        /* \"#utility.yul\":4469:4476   */\n      dup9\n        /* \"#utility.yul\":4465:4488   */\n      sub\n        /* \"#utility.yul\":4461:4494   */\n      slt\n        /* \"#utility.yul\":4458:4578   */\n      iszero\n      tag_299\n      jumpi\n        /* \"#utility.yul\":4497:4576   */\n      tag_300\n      tag_295\n      jump\t// in\n    tag_300:\n        /* \"#utility.yul\":4458:4578   */\n    tag_299:\n        /* \"#utility.yul\":4617:4618   */\n      0x00\n        /* \"#utility.yul\":4642:4695   */\n      tag_301\n        /* \"#utility.yul\":4687:4694   */\n      dup9\n        /* \"#utility.yul\":4678:4684   */\n      dup3\n        /* \"#utility.yul\":4667:4676   */\n      dup10\n        /* \"#utility.yul\":4663:4685   */\n      add\n        /* \"#utility.yul\":4642:4695   */\n      tag_236\n      jump\t// in\n    tag_301:\n        /* \"#utility.yul\":4632:4695   */\n      swap6\n      pop\n        /* \"#utility.yul\":4588:4705   */\n      pop\n        /* \"#utility.yul\":4744:4746   */\n      0x20\n        /* \"#utility.yul\":4770:4823   */\n      tag_302\n        /* \"#utility.yul\":4815:4822   */\n      dup9\n        /* \"#utility.yul\":4806:4812   */\n      dup3\n        /* \"#utility.yul\":4795:4804   */\n      dup10\n        /* \"#utility.yul\":4791:4813   */\n      add\n        /* \"#utility.yul\":4770:4823   */\n      tag_236\n      jump\t// in\n    tag_302:\n        /* \"#utility.yul\":4760:4823   */\n      swap5\n      pop\n        /* \"#utility.yul\":4715:4833   */\n      pop\n        /* \"#utility.yul\":4900:4902   */\n      0x40\n        /* \"#utility.yul\":4889:4898   */\n      dup7\n        /* \"#utility.yul\":4885:4903   */\n      add\n        /* \"#utility.yul\":4872:4904   */\n      calldataload\n        /* \"#utility.yul\":4931:4949   */\n      0xffffffffffffffff\n        /* \"#utility.yul\":4923:4929   */\n      dup2\n        /* \"#utility.yul\":4920:4950   */\n      gt\n        /* \"#utility.yul\":4917:5034   */\n      iszero\n      tag_303\n      jumpi\n        /* \"#utility.yul\":4953:5032   */\n      tag_304\n      tag_305\n      jump\t// in\n    tag_304:\n        /* \"#utility.yul\":4917:5034   */\n    tag_303:\n        /* \"#utility.yul\":5058:5136   */\n      tag_306\n        /* \"#utility.yul\":5128:5135   */\n      dup9\n        /* \"#utility.yul\":5119:5125   */\n      dup3\n        /* \"#utility.yul\":5108:5117   */\n      dup10\n        /* \"#utility.yul\":5104:5126   */\n      add\n        /* \"#utility.yul\":5058:5136   */\n      tag_268\n      jump\t// in\n    tag_306:\n        /* \"#utility.yul\":5048:5136   */\n      swap4\n      pop\n        /* \"#utility.yul\":4843:5146   */\n      pop\n        /* \"#utility.yul\":5213:5215   */\n      0x60\n        /* \"#utility.yul\":5202:5211   */\n      dup7\n        /* \"#utility.yul\":5198:5216   */\n      add\n        /* \"#utility.yul\":5185:5217   */\n      calldataload\n        /* \"#utility.yul\":5244:5262   */\n      0xffffffffffffffff\n        /* \"#utility.yul\":5236:5242   */\n      dup2\n        /* \"#utility.yul\":5233:5263   */\n      gt\n        /* \"#utility.yul\":5230:5347   */\n      iszero\n      tag_307\n      jumpi\n        /* \"#utility.yul\":5266:5345   */\n      tag_308\n      tag_305\n      jump\t// in\n    tag_308:\n        /* \"#utility.yul\":5230:5347   */\n    tag_307:\n        /* \"#utility.yul\":5371:5449   */\n      tag_309\n        /* \"#utility.yul\":5441:5448   */\n      dup9\n        /* \"#utility.yul\":5432:5438   */\n      dup3\n        /* \"#utility.yul\":5421:5430   */\n      dup10\n        /* \"#utility.yul\":5417:5439   */\n      add\n        /* \"#utility.yul\":5371:5449   */\n      tag_268\n      jump\t// in\n    tag_309:\n        /* \"#utility.yul\":5361:5449   */\n      swap3\n      pop\n        /* \"#utility.yul\":5156:5459   */\n      pop\n        /* \"#utility.yul\":5526:5529   */\n      0x80\n        /* \"#utility.yul\":5515:5524   */\n      dup7\n        /* \"#utility.yul\":5511:5530   */\n      add\n        /* \"#utility.yul\":5498:5531   */\n      calldataload\n        /* \"#utility.yul\":5558:5576   */\n      0xffffffffffffffff\n        /* \"#utility.yul\":5550:5556   */\n      dup2\n        /* \"#utility.yul\":5547:5577   */\n      gt\n        /* \"#utility.yul\":5544:5661   */\n      iszero\n      tag_310\n      jumpi\n        /* \"#utility.yul\":5580:5659   */\n      tag_311\n      tag_305\n      jump\t// in\n    tag_311:\n        /* \"#utility.yul\":5544:5661   */\n    tag_310:\n        /* \"#utility.yul\":5685:5747   */\n      tag_312\n        /* \"#utility.yul\":5739:5746   */\n      dup9\n        /* \"#utility.yul\":5730:5736   */\n      dup3\n        /* \"#utility.yul\":5719:5728   */\n      dup10\n        /* \"#utility.yul\":5715:5737   */\n      add\n        /* \"#utility.yul\":5685:5747   */\n      tag_284\n      jump\t// in\n    tag_312:\n        /* \"#utility.yul\":5675:5747   */\n      swap2\n      pop\n        /* \"#utility.yul\":5469:5757   */\n      pop\n        /* \"#utility.yul\":4255:5764   */\n      swap3\n      swap6\n      pop\n      swap3\n      swap6\n      swap1\n      swap4\n      pop\n      jump\t// out\n        /* \"#utility.yul\":5770:6859   */\n    tag_51:\n        /* \"#utility.yul\":5874:5880   */\n      0x00\n        /* \"#utility.yul\":5882:5888   */\n      dup1\n        /* \"#utility.yul\":5890:5896   */\n      0x00\n        /* \"#utility.yul\":5898:5904   */\n      dup1\n        /* \"#utility.yul\":5906:5912   */\n      0x00\n        /* \"#utility.yul\":5955:5958   */\n      0xa0\n        /* \"#utility.yul\":5943:5952   */\n      dup7\n        /* \"#utility.yul\":5934:5941   */\n      dup9\n        /* \"#utility.yul\":5930:5953   */\n      sub\n        /* \"#utility.yul\":5926:5959   */\n      slt\n        /* \"#utility.yul\":5923:6043   */\n      iszero\n      tag_314\n      jumpi\n        /* \"#utility.yul\":5962:6041   */\n      tag_315\n      tag_295\n      jump\t// in\n    tag_315:\n        /* \"#utility.yul\":5923:6043   */\n    tag_314:\n        /* \"#utility.yul\":6082:6083   */\n      0x00\n        /* \"#utility.yul\":6107:6160   */\n      tag_316\n        /* \"#utility.yul\":6152:6159   */\n      dup9\n        /* \"#utility.yul\":6143:6149   */\n      dup3\n        /* \"#utility.yul\":6132:6141   */\n      dup10\n        /* \"#utility.yul\":6128:6150   */\n      add\n        /* \"#utility.yul\":6107:6160   */\n      tag_236\n      jump\t// in\n    tag_316:\n        /* \"#utility.yul\":6097:6160   */\n      swap6\n      pop\n        /* \"#utility.yul\":6053:6170   */\n      pop\n        /* \"#utility.yul\":6209:6211   */\n      0x20\n        /* \"#utility.yul\":6235:6288   */\n      tag_317\n        /* \"#utility.yul\":6280:6287   */\n      dup9\n        /* \"#utility.yul\":6271:6277   */\n      dup3\n        /* \"#utility.yul\":6260:6269   */\n      dup10\n        /* \"#utility.yul\":6256:6278   */\n      add\n        /* \"#utility.yul\":6235:6288   */\n      tag_236\n      jump\t// in\n    tag_317:\n        /* \"#utility.yul\":6225:6288   */\n      swap5\n      pop\n        /* \"#utility.yul\":6180:6298   */\n      pop\n        /* \"#utility.yul\":6337:6339   */\n      0x40\n        /* \"#utility.yul\":6363:6416   */\n      tag_318\n        /* \"#utility.yul\":6408:6415   */\n      dup9\n        /* \"#utility.yul\":6399:6405   */\n      dup3\n        /* \"#utility.yul\":6388:6397   */\n      dup10\n        /* \"#utility.yul\":6384:6406   */\n      add\n        /* \"#utility.yul\":6363:6416   */\n      tag_248\n      jump\t// in\n    tag_318:\n        /* \"#utility.yul\":6353:6416   */\n      swap4\n      pop\n        /* \"#utility.yul\":6308:6426   */\n      pop\n        /* \"#utility.yul\":6465:6467   */\n      0x60\n        /* \"#utility.yul\":6491:6544   */\n      tag_319\n        /* \"#utility.yul\":6536:6543   */\n      dup9\n        /* \"#utility.yul\":6527:6533   */\n      dup3\n        /* \"#utility.yul\":6516:6525   */\n      dup10\n        /* \"#utility.yul\":6512:6534   */\n      add\n        /* \"#utility.yul\":6491:6544   */\n      tag_248\n      jump\t// in\n    tag_319:\n        /* \"#utility.yul\":6481:6544   */\n      swap3\n      pop\n        /* \"#utility.yul\":6436:6554   */\n      pop\n        /* \"#utility.yul\":6621:6624   */\n      0x80\n        /* \"#utility.yul\":6610:6619   */\n      dup7\n        /* \"#utility.yul\":6606:6625   */\n      add\n        /* \"#utility.yul\":6593:6626   */\n      calldataload\n        /* \"#utility.yul\":6653:6671   */\n      0xffffffffffffffff\n        /* \"#utility.yul\":6645:6651   */\n      dup2\n        /* \"#utility.yul\":6642:6672   */\n      gt\n        /* \"#utility.yul\":6639:6756   */\n      iszero\n      tag_320\n      jumpi\n        /* \"#utility.yul\":6675:6754   */\n      tag_321\n      tag_305\n      jump\t// in\n    tag_321:\n        /* \"#utility.yul\":6639:6756   */\n    tag_320:\n        /* \"#utility.yul\":6780:6842   */\n      tag_322\n        /* \"#utility.yul\":6834:6841   */\n      dup9\n        /* \"#utility.yul\":6825:6831   */\n      dup3\n        /* \"#utility.yul\":6814:6823   */\n      dup10\n        /* \"#utility.yul\":6810:6832   */\n      add\n        /* \"#utility.yul\":6780:6842   */\n      tag_284\n      jump\t// in\n    tag_322:\n        /* \"#utility.yul\":6770:6842   */\n      swap2\n      pop\n        /* \"#utility.yul\":6564:6852   */\n      pop\n        /* \"#utility.yul\":5770:6859   */\n      swap3\n      swap6\n      pop\n      swap3\n      swap6\n      swap1\n      swap4\n      pop\n      jump\t// out\n        /* \"#utility.yul\":6865:7333   */\n    tag_42:\n        /* \"#utility.yul\":6930:6936   */\n      0x00\n        /* \"#utility.yul\":6938:6944   */\n      dup1\n        /* \"#utility.yul\":6987:6989   */\n      0x40\n        /* \"#utility.yul\":6975:6984   */\n      dup4\n        /* \"#utility.yul\":6966:6973   */\n      dup6\n        /* \"#utility.yul\":6962:6985   */\n      sub\n        /* \"#utility.yul\":6958:6990   */\n      slt\n        /* \"#utility.yul\":6955:7074   */\n      iszero\n      tag_324\n      jumpi\n        /* \"#utility.yul\":6993:7072   */\n      tag_325\n      tag_295\n      jump\t// in\n    tag_325:\n        /* \"#utility.yul\":6955:7074   */\n    tag_324:\n        /* \"#utility.yul\":7113:7114   */\n      0x00\n        /* \"#utility.yul\":7138:7191   */\n      tag_326\n        /* \"#utility.yul\":7183:7190   */\n      dup6\n        /* \"#utility.yul\":7174:7180   */\n      dup3\n        /* \"#utility.yul\":7163:7172   */\n      dup7\n        /* \"#utility.yul\":7159:7181   */\n      add\n        /* \"#utility.yul\":7138:7191   */\n      tag_236\n      jump\t// in\n    tag_326:\n        /* \"#utility.yul\":7128:7191   */\n      swap3\n      pop\n        /* \"#utility.yul\":7084:7201   */\n      pop\n        /* \"#utility.yul\":7240:7242   */\n      0x20\n        /* \"#utility.yul\":7266:7316   */\n      tag_327\n        /* \"#utility.yul\":7308:7315   */\n      dup6\n        /* \"#utility.yul\":7299:7305   */\n      dup3\n        /* \"#utility.yul\":7288:7297   */\n      dup7\n        /* \"#utility.yul\":7284:7306   */\n      add\n        /* \"#utility.yul\":7266:7316   */\n      tag_273\n      jump\t// in\n    tag_327:\n        /* \"#utility.yul\":7256:7316   */\n      swap2\n      pop\n        /* \"#utility.yul\":7211:7326   */\n      pop\n        /* \"#utility.yul\":6865:7333   */\n      swap3\n      pop\n      swap3\n      swap1\n      pop\n      jump\t// out\n        /* \"#utility.yul\":7339:7813   */\n    tag_14:\n        /* \"#utility.yul\":7407:7413   */\n      0x00\n        /* \"#utility.yul\":7415:7421   */\n      dup1\n        /* \"#utility.yul\":7464:7466   */\n      0x40\n        /* \"#utility.yul\":7452:7461   */\n      dup4\n        /* \"#utility.yul\":7443:7450   */\n      dup6\n        /* \"#utility.yul\":7439:7462   */\n      sub\n        /* \"#utility.yul\":7435:7467   */\n      slt\n        /* \"#utility.yul\":7432:7551   */\n      iszero\n      tag_329\n      jumpi\n        /* \"#utility.yul\":7470:7549   */\n      tag_330\n      tag_295\n      jump\t// in\n    tag_330:\n        /* \"#utility.yul\":7432:7551   */\n    tag_329:\n        /* \"#utility.yul\":7590:7591   */\n      0x00\n        /* \"#utility.yul\":7615:7668   */\n      tag_331\n        /* \"#utility.yul\":7660:7667   */\n      dup6\n        /* \"#utility.yul\":7651:7657   */\n      dup3\n        /* \"#utility.yul\":7640:7649   */\n      dup7\n        /* \"#utility.yul\":7636:7658   */\n      add\n        /* \"#utility.yul\":7615:7668   */\n      tag_236\n      jump\t// in\n    tag_331:\n        /* \"#utility.yul\":7605:7668   */\n      swap3\n      pop\n        /* \"#utility.yul\":7561:7678   */\n      pop\n        /* \"#utility.yul\":7717:7719   */\n      0x20\n        /* \"#utility.yul\":7743:7796   */\n      tag_332\n        /* \"#utility.yul\":7788:7795   */\n      dup6\n        /* \"#utility.yul\":7779:7785   */\n      dup3\n        /* \"#utility.yul\":7768:7777   */\n      dup7\n        /* \"#utility.yul\":7764:7786   */\n      add\n        /* \"#utility.yul\":7743:7796   */\n      tag_248\n      jump\t// in\n    tag_332:\n        /* \"#utility.yul\":7733:7796   */\n      swap2\n      pop\n        /* \"#utility.yul\":7688:7806   */\n      pop\n        /* \"#utility.yul\":7339:7813   */\n      swap3\n      pop\n      swap3\n      swap1\n      pop\n      jump\t// out\n        /* \"#utility.yul\":7819:8713   */\n    tag_36:\n        /* \"#utility.yul\":7937:7943   */\n      0x00\n        /* \"#utility.yul\":7945:7951   */\n      dup1\n        /* \"#utility.yul\":7994:7996   */\n      0x40\n        /* \"#utility.yul\":7982:7991   */\n      dup4\n        /* \"#utility.yul\":7973:7980   */\n      dup6\n        /* \"#utility.yul\":7969:7992   */\n      sub\n        /* \"#utility.yul\":7965:7997   */\n      slt\n        /* \"#utility.yul\":7962:8081   */\n      iszero\n      tag_334\n      jumpi\n        /* \"#utility.yul\":8000:8079   */\n      tag_335\n      tag_295\n      jump\t// in\n    tag_335:\n        /* \"#utility.yul\":7962:8081   */\n    tag_334:\n        /* \"#utility.yul\":8148:8149   */\n      0x00\n        /* \"#utility.yul\":8137:8146   */\n      dup4\n        /* \"#utility.yul\":8133:8150   */\n      add\n        /* \"#utility.yul\":8120:8151   */\n      calldataload\n        /* \"#utility.yul\":8178:8196   */\n      0xffffffffffffffff\n        /* \"#utility.yul\":8170:8176   */\n      dup2\n        /* \"#utility.yul\":8167:8197   */\n      gt\n        /* \"#utility.yul\":8164:8281   */\n      iszero\n      tag_336\n      jumpi\n        /* \"#utility.yul\":8200:8279   */\n      tag_337\n      tag_305\n      jump\t// in\n    tag_337:\n        /* \"#utility.yul\":8164:8281   */\n    tag_336:\n        /* \"#utility.yul\":8305:8383   */\n      tag_338\n        /* \"#utility.yul\":8375:8382   */\n      dup6\n        /* \"#utility.yul\":8366:8372   */\n      dup3\n        /* \"#utility.yul\":8355:8364   */\n      dup7\n        /* \"#utility.yul\":8351:8373   */\n      add\n        /* \"#utility.yul\":8305:8383   */\n      tag_262\n      jump\t// in\n    tag_338:\n        /* \"#utility.yul\":8295:8383   */\n      swap3\n      pop\n        /* \"#utility.yul\":8091:8393   */\n      pop\n        /* \"#utility.yul\":8460:8462   */\n      0x20\n        /* \"#utility.yul\":8449:8458   */\n      dup4\n        /* \"#utility.yul\":8445:8463   */\n      add\n        /* \"#utility.yul\":8432:8464   */\n      calldataload\n        /* \"#utility.yul\":8491:8509   */\n      0xffffffffffffffff\n        /* \"#utility.yul\":8483:8489   */\n      dup2\n        /* \"#utility.yul\":8480:8510   */\n      gt\n        /* \"#utility.yul\":8477:8594   */\n      iszero\n      tag_339\n      jumpi\n        /* \"#utility.yul\":8513:8592   */\n      tag_340\n      tag_305\n      jump\t// in\n    tag_340:\n        /* \"#utility.yul\":8477:8594   */\n    tag_339:\n        /* \"#utility.yul\":8618:8696   */\n      tag_341\n        /* \"#utility.yul\":8688:8695   */\n      dup6\n        /* \"#utility.yul\":8679:8685   */\n      dup3\n        /* \"#utility.yul\":8668:8677   */\n      dup7\n        /* \"#utility.yul\":8664:8686   */\n      add\n        /* \"#utility.yul\":8618:8696   */\n      tag_268\n      jump\t// in\n    tag_341:\n        /* \"#utility.yul\":8608:8696   */\n      swap2\n      pop\n        /* \"#utility.yul\":8403:8706   */\n      pop\n        /* \"#utility.yul\":7819:8713   */\n      swap3\n      pop\n      swap3\n      swap1\n      pop\n      jump\t// out\n        /* \"#utility.yul\":8719:9046   */\n    tag_20:\n        /* \"#utility.yul\":8777:8783   */\n      0x00\n        /* \"#utility.yul\":8826:8828   */\n      0x20\n        /* \"#utility.yul\":8814:8823   */\n      dup3\n        /* \"#utility.yul\":8805:8812   */\n      dup5\n        /* \"#utility.yul\":8801:8824   */\n      sub\n        /* \"#utility.yul\":8797:8829   */\n      slt\n        /* \"#utility.yul\":8794:8913   */\n      iszero\n      tag_343\n      jumpi\n        /* \"#utility.yul\":8832:8911   */\n      tag_344\n      tag_295\n      jump\t// in\n    tag_344:\n        /* \"#utility.yul\":8794:8913   */\n    tag_343:\n        /* \"#utility.yul\":8952:8953   */\n      0x00\n        /* \"#utility.yul\":8977:9029   */\n      tag_345\n        /* \"#utility.yul\":9021:9028   */\n      dup5\n        /* \"#utility.yul\":9012:9018   */\n      dup3\n        /* \"#utility.yul\":9001:9010   */\n      dup6\n        /* \"#utility.yul\":8997:9019   */\n      add\n        /* \"#utility.yul\":8977:9029   */\n      tag_277\n      jump\t// in\n    tag_345:\n        /* \"#utility.yul\":8967:9029   */\n      swap2\n      pop\n        /* \"#utility.yul\":8923:9039   */\n      pop\n        /* \"#utility.yul\":8719:9046   */\n      swap3\n      swap2\n      pop\n      pop\n      jump\t// out\n        /* \"#utility.yul\":9052:9401   */\n    tag_178:\n        /* \"#utility.yul\":9121:9127   */\n      0x00\n        /* \"#utility.yul\":9170:9172   */\n      0x20\n        /* \"#utility.yul\":9158:9167   */\n      dup3\n        /* \"#utility.yul\":9149:9156   */\n      dup5\n        /* \"#utility.yul\":9145:9168   */\n      sub\n        /* \"#utility.yul\":9141:9173   */\n      slt\n        /* \"#utility.yul\":9138:9257   */\n      iszero\n      tag_347\n      jumpi\n        /* \"#utility.yul\":9176:9255   */\n      tag_348\n      tag_295\n      jump\t// in\n    tag_348:\n        /* \"#utility.yul\":9138:9257   */\n    tag_347:\n        /* \"#utility.yul\":9296:9297   */\n      0x00\n        /* \"#utility.yul\":9321:9384   */\n      tag_349\n        /* \"#utility.yul\":9376:9383   */\n      dup5\n        /* \"#utility.yul\":9367:9373   */\n      dup3\n        /* \"#utility.yul\":9356:9365   */\n      dup6\n        /* \"#utility.yul\":9352:9374   */\n      add\n        /* \"#utility.yul\":9321:9384   */\n      tag_281\n      jump\t// in\n    tag_349:\n        /* \"#utility.yul\":9311:9384   */\n      swap2\n      pop\n        /* \"#utility.yul\":9267:9394   */\n      pop\n        /* \"#utility.yul\":9052:9401   */\n      swap3\n      swap2\n      pop\n      pop\n      jump\t// out\n        /* \"#utility.yul\":9407:9736   */\n    tag_26:\n        /* \"#utility.yul\":9466:9472   */\n      0x00\n        /* \"#utility.yul\":9515:9517   */\n      0x20\n        /* \"#utility.yul\":9503:9512   */\n      dup3\n        /* \"#utility.yul\":9494:9501   */\n      dup5\n        /* \"#utility.yul\":9490:9513   */\n      sub\n        /* \"#utility.yul\":9486:9518   */\n      slt\n        /* \"#utility.yul\":9483:9602   */\n      iszero\n      tag_351\n      jumpi\n        /* \"#utility.yul\":9521:9600   */\n      tag_352\n      tag_295\n      jump\t// in\n    tag_352:\n        /* \"#utility.yul\":9483:9602   */\n    tag_351:\n        /* \"#utility.yul\":9641:9642   */\n      0x00\n        /* \"#utility.yul\":9666:9719   */\n      tag_353\n        /* \"#utility.yul\":9711:9718   */\n      dup5\n        /* \"#utility.yul\":9702:9708   */\n      dup3\n        /* \"#utility.yul\":9691:9700   */\n      dup6\n        /* \"#utility.yul\":9687:9709   */\n      add\n        /* \"#utility.yul\":9666:9719   */\n      tag_248\n      jump\t// in\n    tag_353:\n        /* \"#utility.yul\":9656:9719   */\n      swap2\n      pop\n        /* \"#utility.yul\":9612:9729   */\n      pop\n        /* \"#utility.yul\":9407:9736   */\n      swap3\n      swap2\n      pop\n      pop\n      jump\t// out\n        /* \"#utility.yul\":9742:9921   */\n    tag_354:\n        /* \"#utility.yul\":9811:9821   */\n      0x00\n        /* \"#utility.yul\":9832:9878   */\n      tag_356\n        /* \"#utility.yul\":9874:9877   */\n      dup4\n        /* \"#utility.yul\":9866:9872   */\n      dup4\n        /* \"#utility.yul\":9832:9878   */\n      tag_357\n      jump\t// in\n    tag_356:\n        /* \"#utility.yul\":9910:9914   */\n      0x20\n        /* \"#utility.yul\":9905:9908   */\n      dup4\n        /* \"#utility.yul\":9901:9915   */\n      add\n        /* \"#utility.yul\":9887:9915   */\n      swap1\n      pop\n        /* \"#utility.yul\":9742:9921   */\n      swap3\n      swap2\n      pop\n      pop\n      jump\t// out\n        /* \"#utility.yul\":9927:10045   */\n    tag_358:\n        /* \"#utility.yul\":10014:10038   */\n      tag_360\n        /* \"#utility.yul\":10032:10037   */\n      dup2\n        /* \"#utility.yul\":10014:10038   */\n      tag_361\n      jump\t// in\n    tag_360:\n        /* \"#utility.yul\":10009:10012   */\n      dup3\n        /* \"#utility.yul\":10002:10039   */\n      mstore\n        /* \"#utility.yul\":9927:10045   */\n      pop\n      pop\n      jump\t// out\n        /* \"#utility.yul\":10081:10813   */\n    tag_362:\n        /* \"#utility.yul\":10200:10203   */\n      0x00\n        /* \"#utility.yul\":10229:10283   */\n      tag_364\n        /* \"#utility.yul\":10277:10282   */\n      dup3\n        /* \"#utility.yul\":10229:10283   */\n      tag_365\n      jump\t// in\n    tag_364:\n        /* \"#utility.yul\":10299:10385   */\n      tag_366\n        /* \"#utility.yul\":10378:10384   */\n      dup2\n        /* \"#utility.yul\":10373:10376   */\n      dup6\n        /* \"#utility.yul\":10299:10385   */\n      tag_367\n      jump\t// in\n    tag_366:\n        /* \"#utility.yul\":10292:10385   */\n      swap4\n      pop\n        /* \"#utility.yul\":10409:10465   */\n      tag_368\n        /* \"#utility.yul\":10459:10464   */\n      dup4\n        /* \"#utility.yul\":10409:10465   */\n      tag_369\n      jump\t// in\n    tag_368:\n        /* \"#utility.yul\":10488:10495   */\n      dup1\n        /* \"#utility.yul\":10519:10520   */\n      0x00\n        /* \"#utility.yul\":10504:10788   */\n    tag_370:\n        /* \"#utility.yul\":10529:10535   */\n      dup4\n        /* \"#utility.yul\":10526:10527   */\n      dup2\n        /* \"#utility.yul\":10523:10536   */\n      lt\n        /* \"#utility.yul\":10504:10788   */\n      iszero\n      tag_372\n      jumpi\n        /* \"#utility.yul\":10605:10611   */\n      dup2\n        /* \"#utility.yul\":10599:10612   */\n      mload\n        /* \"#utility.yul\":10632:10695   */\n      tag_373\n        /* \"#utility.yul\":10691:10694   */\n      dup9\n        /* \"#utility.yul\":10676:10689   */\n      dup3\n        /* \"#utility.yul\":10632:10695   */\n      tag_354\n      jump\t// in\n    tag_373:\n        /* \"#utility.yul\":10625:10695   */\n      swap8\n      pop\n        /* \"#utility.yul\":10718:10778   */\n      tag_374\n        /* \"#utility.yul\":10771:10777   */\n      dup4\n        /* \"#utility.yul\":10718:10778   */\n      tag_375\n      jump\t// in\n    tag_374:\n        /* \"#utility.yul\":10708:10778   */\n      swap3\n      pop\n        /* \"#utility.yul\":10564:10788   */\n      pop\n        /* \"#utility.yul\":10551:10552   */\n      0x01\n        /* \"#utility.yul\":10548:10549   */\n      dup2\n        /* \"#utility.yul\":10544:10553   */\n      add\n        /* \"#utility.yul\":10539:10553   */\n      swap1\n      pop\n        /* \"#utility.yul\":10504:10788   */\n      jump(tag_370)\n    tag_372:\n        /* \"#utility.yul\":10508:10522   */\n      pop\n        /* \"#utility.yul\":10804:10807   */\n      dup6\n        /* \"#utility.yul\":10797:10807   */\n      swap4\n      pop\n        /* \"#utility.yul\":10205:10813   */\n      pop\n      pop\n      pop\n        /* \"#utility.yul\":10081:10813   */\n      swap3\n      swap2\n      pop\n      pop\n      jump\t// out\n        /* \"#utility.yul\":10819:10928   */\n    tag_376:\n        /* \"#utility.yul\":10900:10921   */\n      tag_378\n        /* \"#utility.yul\":10915:10920   */\n      dup2\n        /* \"#utility.yul\":10900:10921   */\n      tag_379\n      jump\t// in\n    tag_378:\n        /* \"#utility.yul\":10895:10898   */\n      dup3\n        /* \"#utility.yul\":10888:10922   */\n      mstore\n        /* \"#utility.yul\":10819:10928   */\n      pop\n      pop\n      jump\t// out\n        /* \"#utility.yul\":10934:11294   */\n    tag_380:\n        /* \"#utility.yul\":11020:11023   */\n      0x00\n        /* \"#utility.yul\":11048:11086   */\n      tag_382\n        /* \"#utility.yul\":11080:11085   */\n      dup3\n        /* \"#utility.yul\":11048:11086   */\n      tag_383\n      jump\t// in\n    tag_382:\n        /* \"#utility.yul\":11102:11172   */\n      tag_384\n        /* \"#utility.yul\":11165:11171   */\n      dup2\n        /* \"#utility.yul\":11160:11163   */\n      dup6\n        /* \"#utility.yul\":11102:11172   */\n      tag_385\n      jump\t// in\n    tag_384:\n        /* \"#utility.yul\":11095:11172   */\n      swap4\n      pop\n        /* \"#utility.yul\":11181:11233   */\n      tag_386\n        /* \"#utility.yul\":11226:11232   */\n      dup2\n        /* \"#utility.yul\":11221:11224   */\n      dup6\n        /* \"#utility.yul\":11214:11218   */\n      0x20\n        /* \"#utility.yul\":11207:11212   */\n      dup7\n        /* \"#utility.yul\":11203:11219   */\n      add\n        /* \"#utility.yul\":11181:11233   */\n      tag_387\n      jump\t// in\n    tag_386:\n        /* \"#utility.yul\":11258:11287   */\n      tag_388\n        /* \"#utility.yul\":11280:11286   */\n      dup2\n        /* \"#utility.yul\":11258:11287   */\n      tag_389\n      jump\t// in\n    tag_388:\n        /* \"#utility.yul\":11253:11256   */\n      dup5\n        /* \"#utility.yul\":11249:11288   */\n      add\n        /* \"#utility.yul\":11242:11288   */\n      swap2\n      pop\n        /* \"#utility.yul\":11024:11294   */\n      pop\n        /* \"#utility.yul\":10934:11294   */\n      swap3\n      swap2\n      pop\n      pop\n      jump\t// out\n        /* \"#utility.yul\":11300:11664   */\n    tag_390:\n        /* \"#utility.yul\":11388:11391   */\n      0x00\n        /* \"#utility.yul\":11416:11455   */\n      tag_392\n        /* \"#utility.yul\":11449:11454   */\n      dup3\n        /* \"#utility.yul\":11416:11455   */\n      tag_393\n      jump\t// in\n    tag_392:\n        /* \"#utility.yul\":11471:11542   */\n      tag_394\n        /* \"#utility.yul\":11535:11541   */\n      dup2\n        /* \"#utility.yul\":11530:11533   */\n      dup6\n        /* \"#utility.yul\":11471:11542   */\n      tag_395\n      jump\t// in\n    tag_394:\n        /* \"#utility.yul\":11464:11542   */\n      swap4\n      pop\n        /* \"#utility.yul\":11551:11603   */\n      tag_396\n        /* \"#utility.yul\":11596:11602   */\n      dup2\n        /* \"#utility.yul\":11591:11594   */\n      dup6\n        /* \"#utility.yul\":11584:11588   */\n      0x20\n        /* \"#utility.yul\":11577:11582   */\n      dup7\n        /* \"#utility.yul\":11573:11589   */\n      add\n        /* \"#utility.yul\":11551:11603   */\n      tag_387\n      jump\t// in\n    tag_396:\n        /* \"#utility.yul\":11628:11657   */\n      tag_397\n        /* \"#utility.yul\":11650:11656   */\n      dup2\n        /* \"#utility.yul\":11628:11657   */\n      tag_389\n      jump\t// in\n    tag_397:\n        /* \"#utility.yul\":11623:11626   */\n      dup5\n        /* \"#utility.yul\":11619:11658   */\n      add\n        /* \"#utility.yul\":11612:11658   */\n      swap2\n      pop\n        /* \"#utility.yul\":11392:11664   */\n      pop\n        /* \"#utility.yul\":11300:11664   */\n      swap3\n      swap2\n      pop\n      pop\n      jump\t// out\n        /* \"#utility.yul\":11670:12036   */\n    tag_398:\n        /* \"#utility.yul\":11812:11815   */\n      0x00\n        /* \"#utility.yul\":11833:11900   */\n      tag_400\n        /* \"#utility.yul\":11897:11899   */\n      0x28\n        /* \"#utility.yul\":11892:11895   */\n      dup4\n        /* \"#utility.yul\":11833:11900   */\n      tag_395\n      jump\t// in\n    tag_400:\n        /* \"#utility.yul\":11826:11900   */\n      swap2\n      pop\n        /* \"#utility.yul\":11909:12002   */\n      tag_401\n        /* \"#utility.yul\":11998:12001   */\n      dup3\n        /* \"#utility.yul\":11909:12002   */\n      tag_402\n      jump\t// in\n    tag_401:\n        /* \"#utility.yul\":12027:12029   */\n      0x40\n        /* \"#utility.yul\":12022:12025   */\n      dup3\n        /* \"#utility.yul\":12018:12030   */\n      add\n        /* \"#utility.yul\":12011:12030   */\n      swap1\n      pop\n        /* \"#utility.yul\":11670:12036   */\n      swap2\n      swap1\n      pop\n      jump\t// out\n        /* \"#utility.yul\":12042:12408   */\n    tag_403:\n        /* \"#utility.yul\":12184:12187   */\n      0x00\n        /* \"#utility.yul\":12205:12272   */\n      tag_405\n        /* \"#utility.yul\":12269:12271   */\n      0x2a\n        /* \"#utility.yul\":12264:12267   */\n      dup4\n        /* \"#utility.yul\":12205:12272   */\n      tag_395\n      jump\t// in\n    tag_405:\n        /* \"#utility.yul\":12198:12272   */\n      swap2\n      pop\n        /* \"#utility.yul\":12281:12374   */\n      tag_406\n        /* \"#utility.yul\":12370:12373   */\n      dup3\n        /* \"#utility.yul\":12281:12374   */\n      tag_407\n      jump\t// in\n    tag_406:\n        /* \"#utility.yul\":12399:12401   */\n      0x40\n        /* \"#utility.yul\":12394:12397   */\n      dup3\n        /* \"#utility.yul\":12390:12402   */\n      add\n        /* \"#utility.yul\":12383:12402   */\n      swap1\n      pop\n        /* \"#utility.yul\":12042:12408   */\n      swap2\n      swap1\n      pop\n      jump\t// out\n        /* \"#utility.yul\":12414:12780   */\n    tag_408:\n        /* \"#utility.yul\":12556:12559   */\n      0x00\n        /* \"#utility.yul\":12577:12644   */\n      tag_410\n        /* \"#utility.yul\":12641:12643   */\n      0x2e\n        /* \"#utility.yul\":12636:12639   */\n      dup4\n        /* \"#utility.yul\":12577:12644   */\n      tag_395\n      jump\t// in\n    tag_410:\n        /* \"#utility.yul\":12570:12644   */\n      swap2\n      pop\n        /* \"#utility.yul\":12653:12746   */\n      tag_411\n        /* \"#utility.yul\":12742:12745   */\n      dup3\n        /* \"#utility.yul\":12653:12746   */\n      tag_412\n      jump\t// in\n    tag_411:\n        /* \"#utility.yul\":12771:12773   */\n      0x40\n        /* \"#utility.yul\":12766:12769   */\n      dup3\n        /* \"#utility.yul\":12762:12774   */\n      add\n        /* \"#utility.yul\":12755:12774   */\n      swap1\n      pop\n        /* \"#utility.yul\":12414:12780   */\n      swap2\n      swap1\n      pop\n      jump\t// out\n        /* \"#utility.yul\":12786:13152   */\n    tag_413:\n        /* \"#utility.yul\":12928:12931   */\n      0x00\n        /* \"#utility.yul\":12949:13016   */\n      tag_415\n        /* \"#utility.yul\":13013:13015   */\n      0x25\n        /* \"#utility.yul\":13008:13011   */\n      dup4\n        /* \"#utility.yul\":12949:13016   */\n      tag_395\n      jump\t// in\n    tag_415:\n        /* \"#utility.yul\":12942:13016   */\n      swap2\n      pop\n        /* \"#utility.yul\":13025:13118   */\n      tag_416\n        /* \"#utility.yul\":13114:13117   */\n      dup3\n        /* \"#utility.yul\":13025:13118   */\n      tag_417\n      jump\t// in\n    tag_416:\n        /* \"#utility.yul\":13143:13145   */\n      0x40\n        /* \"#utility.yul\":13138:13141   */\n      dup3\n        /* \"#utility.yul\":13134:13146   */\n      add\n        /* \"#utility.yul\":13127:13146   */\n      swap1\n      pop\n        /* \"#utility.yul\":12786:13152   */\n      swap2\n      swap1\n      pop\n      jump\t// out\n        /* \"#utility.yul\":13158:13524   */\n    tag_418:\n        /* \"#utility.yul\":13300:13303   */\n      0x00\n        /* \"#utility.yul\":13321:13388   */\n      tag_420\n        /* \"#utility.yul\":13385:13387   */\n      0x2a\n        /* \"#utility.yul\":13380:13383   */\n      dup4\n        /* \"#utility.yul\":13321:13388   */\n      tag_395\n      jump\t// in\n    tag_420:\n        /* \"#utility.yul\":13314:13388   */\n      swap2\n      pop\n        /* \"#utility.yul\":13397:13490   */\n      tag_421\n        /* \"#utility.yul\":13486:13489   */\n      dup3\n        /* \"#utility.yul\":13397:13490   */\n      tag_422\n      jump\t// in\n    tag_421:\n        /* \"#utility.yul\":13515:13517   */\n      0x40\n        /* \"#utility.yul\":13510:13513   */\n      dup3\n        /* \"#utility.yul\":13506:13518   */\n      add\n        /* \"#utility.yul\":13499:13518   */\n      swap1\n      pop\n        /* \"#utility.yul\":13158:13524   */\n      swap2\n      swap1\n      pop\n      jump\t// out\n        /* \"#utility.yul\":13530:13896   */\n    tag_423:\n        /* \"#utility.yul\":13672:13675   */\n      0x00\n        /* \"#utility.yul\":13693:13760   */\n      tag_425\n        /* \"#utility.yul\":13757:13759   */\n      0x29\n        /* \"#utility.yul\":13752:13755   */\n      dup4\n        /* \"#utility.yul\":13693:13760   */\n      tag_395\n      jump\t// in\n    tag_425:\n        /* \"#utility.yul\":13686:13760   */\n      swap2\n      pop\n        /* \"#utility.yul\":13769:13862   */\n      tag_426\n        /* \"#utility.yul\":13858:13861   */\n      dup3\n        /* \"#utility.yul\":13769:13862   */\n      tag_427\n      jump\t// in\n    tag_426:\n        /* \"#utility.yul\":13887:13889   */\n      0x40\n        /* \"#utility.yul\":13882:13885   */\n      dup3\n        /* \"#utility.yul\":13878:13890   */\n      add\n        /* \"#utility.yul\":13871:13890   */\n      swap1\n      pop\n        /* \"#utility.yul\":13530:13896   */\n      swap2\n      swap1\n      pop\n      jump\t// out\n        /* \"#utility.yul\":13902:14268   */\n    tag_428:\n        /* \"#utility.yul\":14044:14047   */\n      0x00\n        /* \"#utility.yul\":14065:14132   */\n      tag_430\n        /* \"#utility.yul\":14129:14131   */\n      0x29\n        /* \"#utility.yul\":14124:14127   */\n      dup4\n        /* \"#utility.yul\":14065:14132   */\n      tag_395\n      jump\t// in\n    tag_430:\n        /* \"#utility.yul\":14058:14132   */\n      swap2\n      pop\n        /* \"#utility.yul\":14141:14234   */\n      tag_431\n        /* \"#utility.yul\":14230:14233   */\n      dup3\n        /* \"#utility.yul\":14141:14234   */\n      tag_432\n      jump\t// in\n    tag_431:\n        /* \"#utility.yul\":14259:14261   */\n      0x40\n        /* \"#utility.yul\":14254:14257   */\n      dup3\n        /* \"#utility.yul\":14250:14262   */\n      add\n        /* \"#utility.yul\":14243:14262   */\n      swap1\n      pop\n        /* \"#utility.yul\":13902:14268   */\n      swap2\n      swap1\n      pop\n      jump\t// out\n        /* \"#utility.yul\":14274:14640   */\n    tag_433:\n        /* \"#utility.yul\":14416:14419   */\n      0x00\n        /* \"#utility.yul\":14437:14504   */\n      tag_435\n        /* \"#utility.yul\":14501:14503   */\n      0x28\n        /* \"#utility.yul\":14496:14499   */\n      dup4\n        /* \"#utility.yul\":14437:14504   */\n      tag_395\n      jump\t// in\n    tag_435:\n        /* \"#utility.yul\":14430:14504   */\n      swap2\n      pop\n        /* \"#utility.yul\":14513:14606   */\n      tag_436\n        /* \"#utility.yul\":14602:14605   */\n      dup3\n        /* \"#utility.yul\":14513:14606   */\n      tag_437\n      jump\t// in\n    tag_436:\n        /* \"#utility.yul\":14631:14633   */\n      0x40\n        /* \"#utility.yul\":14626:14629   */\n      dup3\n        /* \"#utility.yul\":14622:14634   */\n      add\n        /* \"#utility.yul\":14615:14634   */\n      swap1\n      pop\n        /* \"#utility.yul\":14274:14640   */\n      swap2\n      swap1\n      pop\n      jump\t// out\n        /* \"#utility.yul\":14646:15012   */\n    tag_438:\n        /* \"#utility.yul\":14788:14791   */\n      0x00\n        /* \"#utility.yul\":14809:14876   */\n      tag_440\n        /* \"#utility.yul\":14873:14875   */\n      0x34\n        /* \"#utility.yul\":14868:14871   */\n      dup4\n        /* \"#utility.yul\":14809:14876   */\n      tag_395\n      jump\t// in\n    tag_440:\n        /* \"#utility.yul\":14802:14876   */\n      swap2\n      pop\n        /* \"#utility.yul\":14885:14978   */\n      tag_441\n        /* \"#utility.yul\":14974:14977   */\n      dup3\n        /* \"#utility.yul\":14885:14978   */\n      tag_442\n      jump\t// in\n    tag_441:\n        /* \"#utility.yul\":15003:15005   */\n      0x40\n        /* \"#utility.yul\":14998:15001   */\n      dup3\n        /* \"#utility.yul\":14994:15006   */\n      add\n        /* \"#utility.yul\":14987:15006   */\n      swap1\n      pop\n        /* \"#utility.yul\":14646:15012   */\n      swap2\n      swap1\n      pop\n      jump\t// out\n        /* \"#utility.yul\":15018:15126   */\n    tag_357:\n        /* \"#utility.yul\":15095:15119   */\n      tag_444\n        /* \"#utility.yul\":15113:15118   */\n      dup2\n        /* \"#utility.yul\":15095:15119   */\n      tag_445\n      jump\t// in\n    tag_444:\n        /* \"#utility.yul\":15090:15093   */\n      dup3\n        /* \"#utility.yul\":15083:15120   */\n      mstore\n        /* \"#utility.yul\":15018:15126   */\n      pop\n      pop\n      jump\t// out\n        /* \"#utility.yul\":15132:15250   */\n    tag_446:\n        /* \"#utility.yul\":15219:15243   */\n      tag_448\n        /* \"#utility.yul\":15237:15242   */\n      dup2\n        /* \"#utility.yul\":15219:15243   */\n      tag_445\n      jump\t// in\n    tag_448:\n        /* \"#utility.yul\":15214:15217   */\n      dup3\n        /* \"#utility.yul\":15207:15244   */\n      mstore\n        /* \"#utility.yul\":15132:15250   */\n      pop\n      pop\n      jump\t// out\n        /* \"#utility.yul\":15256:16309   */\n    tag_174:\n        /* \"#utility.yul\":15579:15583   */\n      0x00\n        /* \"#utility.yul\":15617:15620   */\n      0xa0\n        /* \"#utility.yul\":15606:15615   */\n      dup3\n        /* \"#utility.yul\":15602:15621   */\n      add\n        /* \"#utility.yul\":15594:15621   */\n      swap1\n      pop\n        /* \"#utility.yul\":15631:15702   */\n      tag_450\n        /* \"#utility.yul\":15699:15700   */\n      0x00\n        /* \"#utility.yul\":15688:15697   */\n      dup4\n        /* \"#utility.yul\":15684:15701   */\n      add\n        /* \"#utility.yul\":15675:15681   */\n      dup9\n        /* \"#utility.yul\":15631:15702   */\n      tag_358\n      jump\t// in\n    tag_450:\n        /* \"#utility.yul\":15712:15784   */\n      tag_451\n        /* \"#utility.yul\":15780:15782   */\n      0x20\n        /* \"#utility.yul\":15769:15778   */\n      dup4\n        /* \"#utility.yul\":15765:15783   */\n      add\n        /* \"#utility.yul\":15756:15762   */\n      dup8\n        /* \"#utility.yul\":15712:15784   */\n      tag_358\n      jump\t// in\n    tag_451:\n        /* \"#utility.yul\":15831:15840   */\n      dup2\n        /* \"#utility.yul\":15825:15829   */\n      dup2\n        /* \"#utility.yul\":15821:15841   */\n      sub\n        /* \"#utility.yul\":15816:15818   */\n      0x40\n        /* \"#utility.yul\":15805:15814   */\n      dup4\n        /* \"#utility.yul\":15801:15819   */\n      add\n        /* \"#utility.yul\":15794:15842   */\n      mstore\n        /* \"#utility.yul\":15859:15967   */\n      tag_452\n        /* \"#utility.yul\":15962:15966   */\n      dup2\n        /* \"#utility.yul\":15953:15959   */\n      dup7\n        /* \"#utility.yul\":15859:15967   */\n      tag_362\n      jump\t// in\n    tag_452:\n        /* \"#utility.yul\":15851:15967   */\n      swap1\n      pop\n        /* \"#utility.yul\":16014:16023   */\n      dup2\n        /* \"#utility.yul\":16008:16012   */\n      dup2\n        /* \"#utility.yul\":16004:16024   */\n      sub\n        /* \"#utility.yul\":15999:16001   */\n      0x60\n        /* \"#utility.yul\":15988:15997   */\n      dup4\n        /* \"#utility.yul\":15984:16002   */\n      add\n        /* \"#utility.yul\":15977:16025   */\n      mstore\n        /* \"#utility.yul\":16042:16150   */\n      tag_453\n        /* \"#utility.yul\":16145:16149   */\n      dup2\n        /* \"#utility.yul\":16136:16142   */\n      dup6\n        /* \"#utility.yul\":16042:16150   */\n      tag_362\n      jump\t// in\n    tag_453:\n        /* \"#utility.yul\":16034:16150   */\n      swap1\n      pop\n        /* \"#utility.yul\":16198:16207   */\n      dup2\n        /* \"#utility.yul\":16192:16196   */\n      dup2\n        /* \"#utility.yul\":16188:16208   */\n      sub\n        /* \"#utility.yul\":16182:16185   */\n      0x80\n        /* \"#utility.yul\":16171:16180   */\n      dup4\n        /* \"#utility.yul\":16167:16186   */\n      add\n        /* \"#utility.yul\":16160:16209   */\n      mstore\n        /* \"#utility.yul\":16226:16302   */\n      tag_454\n        /* \"#utility.yul\":16297:16301   */\n      dup2\n        /* \"#utility.yul\":16288:16294   */\n      dup5\n        /* \"#utility.yul\":16226:16302   */\n      tag_380\n      jump\t// in\n    tag_454:\n        /* \"#utility.yul\":16218:16302   */\n      swap1\n      pop\n        /* \"#utility.yul\":15256:16309   */\n      swap7\n      swap6\n      pop\n      pop\n      pop\n      pop\n      pop\n      pop\n      jump\t// out\n        /* \"#utility.yul\":16315:17066   */\n    tag_205:\n        /* \"#utility.yul\":16538:16542   */\n      0x00\n        /* \"#utility.yul\":16576:16579   */\n      0xa0\n        /* \"#utility.yul\":16565:16574   */\n      dup3\n        /* \"#utility.yul\":16561:16580   */\n      add\n        /* \"#utility.yul\":16553:16580   */\n      swap1\n      pop\n        /* \"#utility.yul\":16590:16661   */\n      tag_456\n        /* \"#utility.yul\":16658:16659   */\n      0x00\n        /* \"#utility.yul\":16647:16656   */\n      dup4\n        /* \"#utility.yul\":16643:16660   */\n      add\n        /* \"#utility.yul\":16634:16640   */\n      dup9\n        /* \"#utility.yul\":16590:16661   */\n      tag_358\n      jump\t// in\n    tag_456:\n        /* \"#utility.yul\":16671:16743   */\n      tag_457\n        /* \"#utility.yul\":16739:16741   */\n      0x20\n        /* \"#utility.yul\":16728:16737   */\n      dup4\n        /* \"#utility.yul\":16724:16742   */\n      add\n        /* \"#utility.yul\":16715:16721   */\n      dup8\n        /* \"#utility.yul\":16671:16743   */\n      tag_358\n      jump\t// in\n    tag_457:\n        /* \"#utility.yul\":16753:16825   */\n      tag_458\n        /* \"#utility.yul\":16821:16823   */\n      0x40\n        /* \"#utility.yul\":16810:16819   */\n      dup4\n        /* \"#utility.yul\":16806:16824   */\n      add\n        /* \"#utility.yul\":16797:16803   */\n      dup7\n        /* \"#utility.yul\":16753:16825   */\n      tag_446\n      jump\t// in\n    tag_458:\n        /* \"#utility.yul\":16835:16907   */\n      tag_459\n        /* \"#utility.yul\":16903:16905   */\n      0x60\n        /* \"#utility.yul\":16892:16901   */\n      dup4\n        /* \"#utility.yul\":16888:16906   */\n      add\n        /* \"#utility.yul\":16879:16885   */\n      dup6\n        /* \"#utility.yul\":16835:16907   */\n      tag_446\n      jump\t// in\n    tag_459:\n        /* \"#utility.yul\":16955:16964   */\n      dup2\n        /* \"#utility.yul\":16949:16953   */\n      dup2\n        /* \"#utility.yul\":16945:16965   */\n      sub\n        /* \"#utility.yul\":16939:16942   */\n      0x80\n        /* \"#utility.yul\":16928:16937   */\n      dup4\n        /* \"#utility.yul\":16924:16943   */\n      add\n        /* \"#utility.yul\":16917:16966   */\n      mstore\n        /* \"#utility.yul\":16983:17059   */\n      tag_460\n        /* \"#utility.yul\":17054:17058   */\n      dup2\n        /* \"#utility.yul\":17045:17051   */\n      dup5\n        /* \"#utility.yul\":16983:17059   */\n      tag_380\n      jump\t// in\n    tag_460:\n        /* \"#utility.yul\":16975:17059   */\n      swap1\n      pop\n        /* \"#utility.yul\":16315:17066   */\n      swap7\n      swap6\n      pop\n      pop\n      pop\n      pop\n      pop\n      pop\n      jump\t// out\n        /* \"#utility.yul\":17072:17445   */\n    tag_39:\n        /* \"#utility.yul\":17215:17219   */\n      0x00\n        /* \"#utility.yul\":17253:17255   */\n      0x20\n        /* \"#utility.yul\":17242:17251   */\n      dup3\n        /* \"#utility.yul\":17238:17256   */\n      add\n        /* \"#utility.yul\":17230:17256   */\n      swap1\n      pop\n        /* \"#utility.yul\":17302:17311   */\n      dup2\n        /* \"#utility.yul\":17296:17300   */\n      dup2\n        /* \"#utility.yul\":17292:17312   */\n      sub\n        /* \"#utility.yul\":17288:17289   */\n      0x00\n        /* \"#utility.yul\":17277:17286   */\n      dup4\n        /* \"#utility.yul\":17273:17290   */\n      add\n        /* \"#utility.yul\":17266:17313   */\n      mstore\n        /* \"#utility.yul\":17330:17438   */\n      tag_462\n        /* \"#utility.yul\":17433:17437   */\n      dup2\n        /* \"#utility.yul\":17424:17430   */\n      dup5\n        /* \"#utility.yul\":17330:17438   */\n      tag_362\n      jump\t// in\n    tag_462:\n        /* \"#utility.yul\":17322:17438   */\n      swap1\n      pop\n        /* \"#utility.yul\":17072:17445   */\n      swap3\n      swap2\n      pop\n      pop\n      jump\t// out\n        /* \"#utility.yul\":17451:18085   */\n    tag_141:\n        /* \"#utility.yul\":17672:17676   */\n      0x00\n        /* \"#utility.yul\":17710:17712   */\n      0x40\n        /* \"#utility.yul\":17699:17708   */\n      dup3\n        /* \"#utility.yul\":17695:17713   */\n      add\n        /* \"#utility.yul\":17687:17713   */\n      swap1\n      pop\n        /* \"#utility.yul\":17759:17768   */\n      dup2\n        /* \"#utility.yul\":17753:17757   */\n      dup2\n        /* \"#utility.yul\":17749:17769   */\n      sub\n        /* \"#utility.yul\":17745:17746   */\n      0x00\n        /* \"#utility.yul\":17734:17743   */\n      dup4\n        /* \"#utility.yul\":17730:17747   */\n      add\n        /* \"#utility.yul\":17723:17770   */\n      mstore\n        /* \"#utility.yul\":17787:17895   */\n      tag_464\n        /* \"#utility.yul\":17890:17894   */\n      dup2\n        /* \"#utility.yul\":17881:17887   */\n      dup6\n        /* \"#utility.yul\":17787:17895   */\n      tag_362\n      jump\t// in\n    tag_464:\n        /* \"#utility.yul\":17779:17895   */\n      swap1\n      pop\n        /* \"#utility.yul\":17942:17951   */\n      dup2\n        /* \"#utility.yul\":17936:17940   */\n      dup2\n        /* \"#utility.yul\":17932:17952   */\n      sub\n        /* \"#utility.yul\":17927:17929   */\n      0x20\n        /* \"#utility.yul\":17916:17925   */\n      dup4\n        /* \"#utility.yul\":17912:17930   */\n      add\n        /* \"#utility.yul\":17905:17953   */\n      mstore\n        /* \"#utility.yul\":17970:18078   */\n      tag_465\n        /* \"#utility.yul\":18073:18077   */\n      dup2\n        /* \"#utility.yul\":18064:18070   */\n      dup5\n        /* \"#utility.yul\":17970:18078   */\n      tag_362\n      jump\t// in\n    tag_465:\n        /* \"#utility.yul\":17962:18078   */\n      swap1\n      pop\n        /* \"#utility.yul\":17451:18085   */\n      swap4\n      swap3\n      pop\n      pop\n      pop\n      jump\t// out\n        /* \"#utility.yul\":18091:18301   */\n    tag_23:\n        /* \"#utility.yul\":18178:18182   */\n      0x00\n        /* \"#utility.yul\":18216:18218   */\n      0x20\n        /* \"#utility.yul\":18205:18214   */\n      dup3\n        /* \"#utility.yul\":18201:18219   */\n      add\n        /* \"#utility.yul\":18193:18219   */\n      swap1\n      pop\n        /* \"#utility.yul\":18229:18294   */\n      tag_467\n        /* \"#utility.yul\":18291:18292   */\n      0x00\n        /* \"#utility.yul\":18280:18289   */\n      dup4\n        /* \"#utility.yul\":18276:18293   */\n      add\n        /* \"#utility.yul\":18267:18273   */\n      dup5\n        /* \"#utility.yul\":18229:18294   */\n      tag_376\n      jump\t// in\n    tag_467:\n        /* \"#utility.yul\":18091:18301   */\n      swap3\n      swap2\n      pop\n      pop\n      jump\t// out\n        /* \"#utility.yul\":18307:18620   */\n    tag_29:\n        /* \"#utility.yul\":18420:18424   */\n      0x00\n        /* \"#utility.yul\":18458:18460   */\n      0x20\n        /* \"#utility.yul\":18447:18456   */\n      dup3\n        /* \"#utility.yul\":18443:18461   */\n      add\n        /* \"#utility.yul\":18435:18461   */\n      swap1\n      pop\n        /* \"#utility.yul\":18507:18516   */\n      dup2\n        /* \"#utility.yul\":18501:18505   */\n      dup2\n        /* \"#utility.yul\":18497:18517   */\n      sub\n        /* \"#utility.yul\":18493:18494   */\n      0x00\n        /* \"#utility.yul\":18482:18491   */\n      dup4\n        /* \"#utility.yul\":18478:18495   */\n      add\n        /* \"#utility.yul\":18471:18518   */\n      mstore\n        /* \"#utility.yul\":18535:18613   */\n      tag_469\n        /* \"#utility.yul\":18608:18612   */\n      dup2\n        /* \"#utility.yul\":18599:18605   */\n      dup5\n        /* \"#utility.yul\":18535:18613   */\n      tag_390\n      jump\t// in\n    tag_469:\n        /* \"#utility.yul\":18527:18613   */\n      swap1\n      pop\n        /* \"#utility.yul\":18307:18620   */\n      swap3\n      swap2\n      pop\n      pop\n      jump\t// out\n        /* \"#utility.yul\":18626:19045   */\n    tag_194:\n        /* \"#utility.yul\":18792:18796   */\n      0x00\n        /* \"#utility.yul\":18830:18832   */\n      0x20\n        /* \"#utility.yul\":18819:18828   */\n      dup3\n        /* \"#utility.yul\":18815:18833   */\n      add\n        /* \"#utility.yul\":18807:18833   */\n      swap1\n      pop\n        /* \"#utility.yul\":18879:18888   */\n      dup2\n        /* \"#utility.yul\":18873:18877   */\n      dup2\n        /* \"#utility.yul\":18869:18889   */\n      sub\n        /* \"#utility.yul\":18865:18866   */\n      0x00\n        /* \"#utility.yul\":18854:18863   */\n      dup4\n        /* \"#utility.yul\":18850:18867   */\n      add\n        /* \"#utility.yul\":18843:18890   */\n      mstore\n        /* \"#utility.yul\":18907:19038   */\n      tag_471\n        /* \"#utility.yul\":19033:19037   */\n      dup2\n        /* \"#utility.yul\":18907:19038   */\n      tag_398\n      jump\t// in\n    tag_471:\n        /* \"#utility.yul\":18899:19038   */\n      swap1\n      pop\n        /* \"#utility.yul\":18626:19045   */\n      swap2\n      swap1\n      pop\n      jump\t// out\n        /* \"#utility.yul\":19051:19470   */\n    tag_56:\n        /* \"#utility.yul\":19217:19221   */\n      0x00\n        /* \"#utility.yul\":19255:19257   */\n      0x20\n        /* \"#utility.yul\":19244:19253   */\n      dup3\n        /* \"#utility.yul\":19240:19258   */\n      add\n        /* \"#utility.yul\":19232:19258   */\n      swap1\n      pop\n        /* \"#utility.yul\":19304:19313   */\n      dup2\n        /* \"#utility.yul\":19298:19302   */\n      dup2\n        /* \"#utility.yul\":19294:19314   */\n      sub\n        /* \"#utility.yul\":19290:19291   */\n      0x00\n        /* \"#utility.yul\":19279:19288   */\n      dup4\n        /* \"#utility.yul\":19275:19292   */\n      add\n        /* \"#utility.yul\":19268:19315   */\n      mstore\n        /* \"#utility.yul\":19332:19463   */\n      tag_473\n        /* \"#utility.yul\":19458:19462   */\n      dup2\n        /* \"#utility.yul\":19332:19463   */\n      tag_403\n      jump\t// in\n    tag_473:\n        /* \"#utility.yul\":19324:19463   */\n      swap1\n      pop\n        /* \"#utility.yul\":19051:19470   */\n      swap2\n      swap1\n      pop\n      jump\t// out\n        /* \"#utility.yul\":19476:19895   */\n    tag_77:\n        /* \"#utility.yul\":19642:19646   */\n      0x00\n        /* \"#utility.yul\":19680:19682   */\n      0x20\n        /* \"#utility.yul\":19669:19678   */\n      dup3\n        /* \"#utility.yul\":19665:19683   */\n      add\n        /* \"#utility.yul\":19657:19683   */\n      swap1\n      pop\n        /* \"#utility.yul\":19729:19738   */\n      dup2\n        /* \"#utility.yul\":19723:19727   */\n      dup2\n        /* \"#utility.yul\":19719:19739   */\n      sub\n        /* \"#utility.yul\":19715:19716   */\n      0x00\n        /* \"#utility.yul\":19704:19713   */\n      dup4\n        /* \"#utility.yul\":19700:19717   */\n      add\n        /* \"#utility.yul\":19693:19740   */\n      mstore\n        /* \"#utility.yul\":19757:19888   */\n      tag_475\n        /* \"#utility.yul\":19883:19887   */\n      dup2\n        /* \"#utility.yul\":19757:19888   */\n      tag_408\n      jump\t// in\n    tag_475:\n        /* \"#utility.yul\":19749:19888   */\n      swap1\n      pop\n        /* \"#utility.yul\":19476:19895   */\n      swap2\n      swap1\n      pop\n      jump\t// out\n        /* \"#utility.yul\":19901:20320   */\n    tag_123:\n        /* \"#utility.yul\":20067:20071   */\n      0x00\n        /* \"#utility.yul\":20105:20107   */\n      0x20\n        /* \"#utility.yul\":20094:20103   */\n      dup3\n        /* \"#utility.yul\":20090:20108   */\n      add\n        /* \"#utility.yul\":20082:20108   */\n      swap1\n      pop\n        /* \"#utility.yul\":20154:20163   */\n      dup2\n        /* \"#utility.yul\":20148:20152   */\n      dup2\n        /* \"#utility.yul\":20144:20164   */\n      sub\n        /* \"#utility.yul\":20140:20141   */\n      0x00\n        /* \"#utility.yul\":20129:20138   */\n      dup4\n        /* \"#utility.yul\":20125:20142   */\n      add\n        /* \"#utility.yul\":20118:20165   */\n      mstore\n        /* \"#utility.yul\":20182:20313   */\n      tag_477\n        /* \"#utility.yul\":20308:20312   */\n      dup2\n        /* \"#utility.yul\":20182:20313   */\n      tag_413\n      jump\t// in\n    tag_477:\n        /* \"#utility.yul\":20174:20313   */\n      swap1\n      pop\n        /* \"#utility.yul\":19901:20320   */\n      swap2\n      swap1\n      pop\n      jump\t// out\n        /* \"#utility.yul\":20326:20745   */\n    tag_136:\n        /* \"#utility.yul\":20492:20496   */\n      0x00\n        /* \"#utility.yul\":20530:20532   */\n      0x20\n        /* \"#utility.yul\":20519:20528   */\n      dup3\n        /* \"#utility.yul\":20515:20533   */\n      add\n        /* \"#utility.yul\":20507:20533   */\n      swap1\n      pop\n        /* \"#utility.yul\":20579:20588   */\n      dup2\n        /* \"#utility.yul\":20573:20577   */\n      dup2\n        /* \"#utility.yul\":20569:20589   */\n      sub\n        /* \"#utility.yul\":20565:20566   */\n      0x00\n        /* \"#utility.yul\":20554:20563   */\n      dup4\n        /* \"#utility.yul\":20550:20567   */\n      add\n        /* \"#utility.yul\":20543:20590   */\n      mstore\n        /* \"#utility.yul\":20607:20738   */\n      tag_479\n        /* \"#utility.yul\":20733:20737   */\n      dup2\n        /* \"#utility.yul\":20607:20738   */\n      tag_418\n      jump\t// in\n    tag_479:\n        /* \"#utility.yul\":20599:20738   */\n      swap1\n      pop\n        /* \"#utility.yul\":20326:20745   */\n      swap2\n      swap1\n      pop\n      jump\t// out\n        /* \"#utility.yul\":20751:21170   */\n    tag_149:\n        /* \"#utility.yul\":20917:20921   */\n      0x00\n        /* \"#utility.yul\":20955:20957   */\n      0x20\n        /* \"#utility.yul\":20944:20953   */\n      dup3\n        /* \"#utility.yul\":20940:20958   */\n      add\n        /* \"#utility.yul\":20932:20958   */\n      swap1\n      pop\n        /* \"#utility.yul\":21004:21013   */\n      dup2\n        /* \"#utility.yul\":20998:21002   */\n      dup2\n        /* \"#utility.yul\":20994:21014   */\n      sub\n        /* \"#utility.yul\":20990:20991   */\n      0x00\n        /* \"#utility.yul\":20979:20988   */\n      dup4\n        /* \"#utility.yul\":20975:20992   */\n      add\n        /* \"#utility.yul\":20968:21015   */\n      mstore\n        /* \"#utility.yul\":21032:21163   */\n      tag_481\n        /* \"#utility.yul\":21158:21162   */\n      dup2\n        /* \"#utility.yul\":21032:21163   */\n      tag_423\n      jump\t// in\n    tag_481:\n        /* \"#utility.yul\":21024:21163   */\n      swap1\n      pop\n        /* \"#utility.yul\":20751:21170   */\n      swap2\n      swap1\n      pop\n      jump\t// out\n        /* \"#utility.yul\":21176:21595   */\n    tag_83:\n        /* \"#utility.yul\":21342:21346   */\n      0x00\n        /* \"#utility.yul\":21380:21382   */\n      0x20\n        /* \"#utility.yul\":21369:21378   */\n      dup3\n        /* \"#utility.yul\":21365:21383   */\n      add\n        /* \"#utility.yul\":21357:21383   */\n      swap1\n      pop\n        /* \"#utility.yul\":21429:21438   */\n      dup2\n        /* \"#utility.yul\":21423:21427   */\n      dup2\n        /* \"#utility.yul\":21419:21439   */\n      sub\n        /* \"#utility.yul\":21415:21416   */\n      0x00\n        /* \"#utility.yul\":21404:21413   */\n      dup4\n        /* \"#utility.yul\":21400:21417   */\n      add\n        /* \"#utility.yul\":21393:21440   */\n      mstore\n        /* \"#utility.yul\":21457:21588   */\n      tag_483\n        /* \"#utility.yul\":21583:21587   */\n      dup2\n        /* \"#utility.yul\":21457:21588   */\n      tag_428\n      jump\t// in\n    tag_483:\n        /* \"#utility.yul\":21449:21588   */\n      swap1\n      pop\n        /* \"#utility.yul\":21176:21595   */\n      swap2\n      swap1\n      pop\n      jump\t// out\n        /* \"#utility.yul\":21601:22020   */\n    tag_120:\n        /* \"#utility.yul\":21767:21771   */\n      0x00\n        /* \"#utility.yul\":21805:21807   */\n      0x20\n        /* \"#utility.yul\":21794:21803   */\n      dup3\n        /* \"#utility.yul\":21790:21808   */\n      add\n        /* \"#utility.yul\":21782:21808   */\n      swap1\n      pop\n        /* \"#utility.yul\":21854:21863   */\n      dup2\n        /* \"#utility.yul\":21848:21852   */\n      dup2\n        /* \"#utility.yul\":21844:21864   */\n      sub\n        /* \"#utility.yul\":21840:21841   */\n      0x00\n        /* \"#utility.yul\":21829:21838   */\n      dup4\n        /* \"#utility.yul\":21825:21842   */\n      add\n        /* \"#utility.yul\":21818:21865   */\n      mstore\n        /* \"#utility.yul\":21882:22013   */\n      tag_485\n        /* \"#utility.yul\":22008:22012   */\n      dup2\n        /* \"#utility.yul\":21882:22013   */\n      tag_433\n      jump\t// in\n    tag_485:\n        /* \"#utility.yul\":21874:22013   */\n      swap1\n      pop\n        /* \"#utility.yul\":21601:22020   */\n      swap2\n      swap1\n      pop\n      jump\t// out\n        /* \"#utility.yul\":22026:22445   */\n    tag_190:\n        /* \"#utility.yul\":22192:22196   */\n      0x00\n        /* \"#utility.yul\":22230:22232   */\n      0x20\n        /* \"#utility.yul\":22219:22228   */\n      dup3\n        /* \"#utility.yul\":22215:22233   */\n      add\n        /* \"#utility.yul\":22207:22233   */\n      swap1\n      pop\n        /* \"#utility.yul\":22279:22288   */\n      dup2\n        /* \"#utility.yul\":22273:22277   */\n      dup2\n        /* \"#utility.yul\":22269:22289   */\n      sub\n        /* \"#utility.yul\":22265:22266   */\n      0x00\n        /* \"#utility.yul\":22254:22263   */\n      dup4\n        /* \"#utility.yul\":22250:22267   */\n      add\n        /* \"#utility.yul\":22243:22290   */\n      mstore\n        /* \"#utility.yul\":22307:22438   */\n      tag_487\n        /* \"#utility.yul\":22433:22437   */\n      dup2\n        /* \"#utility.yul\":22307:22438   */\n      tag_438\n      jump\t// in\n    tag_487:\n        /* \"#utility.yul\":22299:22438   */\n      swap1\n      pop\n        /* \"#utility.yul\":22026:22445   */\n      swap2\n      swap1\n      pop\n      jump\t// out\n        /* \"#utility.yul\":22451:22673   */\n    tag_17:\n        /* \"#utility.yul\":22544:22548   */\n      0x00\n        /* \"#utility.yul\":22582:22584   */\n      0x20\n        /* \"#utility.yul\":22571:22580   */\n      dup3\n        /* \"#utility.yul\":22567:22585   */\n      add\n        /* \"#utility.yul\":22559:22585   */\n      swap1\n      pop\n        /* \"#utility.yul\":22595:22666   */\n      tag_489\n        /* \"#utility.yul\":22663:22664   */\n      0x00\n        /* \"#utility.yul\":22652:22661   */\n      dup4\n        /* \"#utility.yul\":22648:22665   */\n      add\n        /* \"#utility.yul\":22639:22645   */\n      dup5\n        /* \"#utility.yul\":22595:22666   */\n      tag_446\n      jump\t// in\n    tag_489:\n        /* \"#utility.yul\":22451:22673   */\n      swap3\n      swap2\n      pop\n      pop\n      jump\t// out\n        /* \"#utility.yul\":22679:23011   */\n    tag_163:\n        /* \"#utility.yul\":22800:22804   */\n      0x00\n        /* \"#utility.yul\":22838:22840   */\n      0x40\n        /* \"#utility.yul\":22827:22836   */\n      dup3\n        /* \"#utility.yul\":22823:22841   */\n      add\n        /* \"#utility.yul\":22815:22841   */\n      swap1\n      pop\n        /* \"#utility.yul\":22851:22922   */\n      tag_491\n        /* \"#utility.yul\":22919:22920   */\n      0x00\n        /* \"#utility.yul\":22908:22917   */\n      dup4\n        /* \"#utility.yul\":22904:22921   */\n      add\n        /* \"#utility.yul\":22895:22901   */\n      dup6\n        /* \"#utility.yul\":22851:22922   */\n      tag_446\n      jump\t// in\n    tag_491:\n        /* \"#utility.yul\":22932:23004   */\n      tag_492\n        /* \"#utility.yul\":23000:23002   */\n      0x20\n        /* \"#utility.yul\":22989:22998   */\n      dup4\n        /* \"#utility.yul\":22985:23003   */\n      add\n        /* \"#utility.yul\":22976:22982   */\n      dup5\n        /* \"#utility.yul\":22932:23004   */\n      tag_446\n      jump\t// in\n    tag_492:\n        /* \"#utility.yul\":22679:23011   */\n      swap4\n      swap3\n      pop\n      pop\n      pop\n      jump\t// out\n        /* \"#utility.yul\":23017:23146   */\n    tag_228:\n        /* \"#utility.yul\":23051:23057   */\n      0x00\n        /* \"#utility.yul\":23078:23098   */\n      tag_494\n      tag_495\n      jump\t// in\n    tag_494:\n        /* \"#utility.yul\":23068:23098   */\n      swap1\n      pop\n        /* \"#utility.yul\":23107:23140   */\n      tag_496\n        /* \"#utility.yul\":23135:23139   */\n      dup3\n        /* \"#utility.yul\":23127:23133   */\n      dup3\n        /* \"#utility.yul\":23107:23140   */\n      tag_497\n      jump\t// in\n    tag_496:\n        /* \"#utility.yul\":23017:23146   */\n      swap2\n      swap1\n      pop\n      jump\t// out\n        /* \"#utility.yul\":23152:23227   */\n    tag_495:\n        /* \"#utility.yul\":23185:23191   */\n      0x00\n        /* \"#utility.yul\":23218:23220   */\n      0x40\n        /* \"#utility.yul\":23212:23221   */\n      mload\n        /* \"#utility.yul\":23202:23221   */\n      swap1\n      pop\n        /* \"#utility.yul\":23152:23227   */\n      swap1\n      jump\t// out\n        /* \"#utility.yul\":23233:23544   */\n    tag_227:\n        /* \"#utility.yul\":23310:23314   */\n      0x00\n        /* \"#utility.yul\":23400:23418   */\n      0xffffffffffffffff\n        /* \"#utility.yul\":23392:23398   */\n      dup3\n        /* \"#utility.yul\":23389:23419   */\n      gt\n        /* \"#utility.yul\":23386:23442   */\n      iszero\n      tag_500\n      jumpi\n        /* \"#utility.yul\":23422:23440   */\n      tag_501\n      tag_86\n      jump\t// in\n    tag_501:\n        /* \"#utility.yul\":23386:23442   */\n    tag_500:\n        /* \"#utility.yul\":23472:23476   */\n      0x20\n        /* \"#utility.yul\":23464:23470   */\n      dup3\n        /* \"#utility.yul\":23460:23477   */\n      mul\n        /* \"#utility.yul\":23452:23477   */\n      swap1\n      pop\n        /* \"#utility.yul\":23532:23536   */\n      0x20\n        /* \"#utility.yul\":23526:23530   */\n      dup2\n        /* \"#utility.yul\":23522:23537   */\n      add\n        /* \"#utility.yul\":23514:23537   */\n      swap1\n      pop\n        /* \"#utility.yul\":23233:23544   */\n      swap2\n      swap1\n      pop\n      jump\t// out\n        /* \"#utility.yul\":23550:23861   */\n    tag_241:\n        /* \"#utility.yul\":23627:23631   */\n      0x00\n        /* \"#utility.yul\":23717:23735   */\n      0xffffffffffffffff\n        /* \"#utility.yul\":23709:23715   */\n      dup3\n        /* \"#utility.yul\":23706:23736   */\n      gt\n        /* \"#utility.yul\":23703:23759   */\n      iszero\n      tag_503\n      jumpi\n        /* \"#utility.yul\":23739:23757   */\n      tag_504\n      tag_86\n      jump\t// in\n    tag_504:\n        /* \"#utility.yul\":23703:23759   */\n    tag_503:\n        /* \"#utility.yul\":23789:23793   */\n      0x20\n        /* \"#utility.yul\":23781:23787   */\n      dup3\n        /* \"#utility.yul\":23777:23794   */\n      mul\n        /* \"#utility.yul\":23769:23794   */\n      swap1\n      pop\n        /* \"#utility.yul\":23849:23853   */\n      0x20\n        /* \"#utility.yul\":23843:23847   */\n      dup2\n        /* \"#utility.yul\":23839:23854   */\n      add\n        /* \"#utility.yul\":23831:23854   */\n      swap1\n      pop\n        /* \"#utility.yul\":23550:23861   */\n      swap2\n      swap1\n      pop\n      jump\t// out\n        /* \"#utility.yul\":23867:24174   */\n    tag_253:\n        /* \"#utility.yul\":23928:23932   */\n      0x00\n        /* \"#utility.yul\":24018:24036   */\n      0xffffffffffffffff\n        /* \"#utility.yul\":24010:24016   */\n      dup3\n        /* \"#utility.yul\":24007:24037   */\n      gt\n        /* \"#utility.yul\":24004:24060   */\n      iszero\n      tag_506\n      jumpi\n        /* \"#utility.yul\":24040:24058   */\n      tag_507\n      tag_86\n      jump\t// in\n    tag_507:\n        /* \"#utility.yul\":24004:24060   */\n    tag_506:\n        /* \"#utility.yul\":24078:24107   */\n      tag_508\n        /* \"#utility.yul\":24100:24106   */\n      dup3\n        /* \"#utility.yul\":24078:24107   */\n      tag_389\n      jump\t// in\n    tag_508:\n        /* \"#utility.yul\":24070:24107   */\n      swap1\n      pop\n        /* \"#utility.yul\":24162:24166   */\n      0x20\n        /* \"#utility.yul\":24156:24160   */\n      dup2\n        /* \"#utility.yul\":24152:24167   */\n      add\n        /* \"#utility.yul\":24144:24167   */\n      swap1\n      pop\n        /* \"#utility.yul\":23867:24174   */\n      swap2\n      swap1\n      pop\n      jump\t// out\n        /* \"#utility.yul\":24180:24312   */\n    tag_369:\n        /* \"#utility.yul\":24247:24251   */\n      0x00\n        /* \"#utility.yul\":24270:24273   */\n      dup2\n        /* \"#utility.yul\":24262:24273   */\n      swap1\n      pop\n        /* \"#utility.yul\":24300:24304   */\n      0x20\n        /* \"#utility.yul\":24295:24298   */\n      dup3\n        /* \"#utility.yul\":24291:24305   */\n      add\n        /* \"#utility.yul\":24283:24305   */\n      swap1\n      pop\n        /* \"#utility.yul\":24180:24312   */\n      swap2\n      swap1\n      pop\n      jump\t// out\n        /* \"#utility.yul\":24318:24432   */\n    tag_365:\n        /* \"#utility.yul\":24385:24391   */\n      0x00\n        /* \"#utility.yul\":24419:24424   */\n      dup2\n        /* \"#utility.yul\":24413:24425   */\n      mload\n        /* \"#utility.yul\":24403:24425   */\n      swap1\n      pop\n        /* \"#utility.yul\":24318:24432   */\n      swap2\n      swap1\n      pop\n      jump\t// out\n        /* \"#utility.yul\":24438:24536   */\n    tag_383:\n        /* \"#utility.yul\":24489:24495   */\n      0x00\n        /* \"#utility.yul\":24523:24528   */\n      dup2\n        /* \"#utility.yul\":24517:24529   */\n      mload\n        /* \"#utility.yul\":24507:24529   */\n      swap1\n      pop\n        /* \"#utility.yul\":24438:24536   */\n      swap2\n      swap1\n      pop\n      jump\t// out\n        /* \"#utility.yul\":24542:24641   */\n    tag_393:\n        /* \"#utility.yul\":24594:24600   */\n      0x00\n        /* \"#utility.yul\":24628:24633   */\n      dup2\n        /* \"#utility.yul\":24622:24634   */\n      mload\n        /* \"#utility.yul\":24612:24634   */\n      swap1\n      pop\n        /* \"#utility.yul\":24542:24641   */\n      swap2\n      swap1\n      pop\n      jump\t// out\n        /* \"#utility.yul\":24647:24760   */\n    tag_375:\n        /* \"#utility.yul\":24717:24721   */\n      0x00\n        /* \"#utility.yul\":24749:24753   */\n      0x20\n        /* \"#utility.yul\":24744:24747   */\n      dup3\n        /* \"#utility.yul\":24740:24754   */\n      add\n        /* \"#utility.yul\":24732:24754   */\n      swap1\n      pop\n        /* \"#utility.yul\":24647:24760   */\n      swap2\n      swap1\n      pop\n      jump\t// out\n        /* \"#utility.yul\":24766:24950   */\n    tag_367:\n        /* \"#utility.yul\":24865:24876   */\n      0x00\n        /* \"#utility.yul\":24899:24905   */\n      dup3\n        /* \"#utility.yul\":24894:24897   */\n      dup3\n        /* \"#utility.yul\":24887:24906   */\n      mstore\n        /* \"#utility.yul\":24939:24943   */\n      0x20\n        /* \"#utility.yul\":24934:24937   */\n      dup3\n        /* \"#utility.yul\":24930:24944   */\n      add\n        /* \"#utility.yul\":24915:24944   */\n      swap1\n      pop\n        /* \"#utility.yul\":24766:24950   */\n      swap3\n      swap2\n      pop\n      pop\n      jump\t// out\n        /* \"#utility.yul\":24956:25124   */\n    tag_385:\n        /* \"#utility.yul\":25039:25050   */\n      0x00\n        /* \"#utility.yul\":25073:25079   */\n      dup3\n        /* \"#utility.yul\":25068:25071   */\n      dup3\n        /* \"#utility.yul\":25061:25080   */\n      mstore\n        /* \"#utility.yul\":25113:25117   */\n      0x20\n        /* \"#utility.yul\":25108:25111   */\n      dup3\n        /* \"#utility.yul\":25104:25118   */\n      add\n        /* \"#utility.yul\":25089:25118   */\n      swap1\n      pop\n        /* \"#utility.yul\":24956:25124   */\n      swap3\n      swap2\n      pop\n      pop\n      jump\t// out\n        /* \"#utility.yul\":25130:25299   */\n    tag_395:\n        /* \"#utility.yul\":25214:25225   */\n      0x00\n        /* \"#utility.yul\":25248:25254   */\n      dup3\n        /* \"#utility.yul\":25243:25246   */\n      dup3\n        /* \"#utility.yul\":25236:25255   */\n      mstore\n        /* \"#utility.yul\":25288:25292   */\n      0x20\n        /* \"#utility.yul\":25283:25286   */\n      dup3\n        /* \"#utility.yul\":25279:25293   */\n      add\n        /* \"#utility.yul\":25264:25293   */\n      swap1\n      pop\n        /* \"#utility.yul\":25130:25299   */\n      swap3\n      swap2\n      pop\n      pop\n      jump\t// out\n        /* \"#utility.yul\":25305:25610   */\n    tag_138:\n        /* \"#utility.yul\":25345:25348   */\n      0x00\n        /* \"#utility.yul\":25364:25384   */\n      tag_518\n        /* \"#utility.yul\":25382:25383   */\n      dup3\n        /* \"#utility.yul\":25364:25384   */\n      tag_445\n      jump\t// in\n    tag_518:\n        /* \"#utility.yul\":25359:25384   */\n      swap2\n      pop\n        /* \"#utility.yul\":25398:25418   */\n      tag_519\n        /* \"#utility.yul\":25416:25417   */\n      dup4\n        /* \"#utility.yul\":25398:25418   */\n      tag_445\n      jump\t// in\n    tag_519:\n        /* \"#utility.yul\":25393:25418   */\n      swap3\n      pop\n        /* \"#utility.yul\":25552:25553   */\n      dup3\n        /* \"#utility.yul\":25484:25550   */\n      0xffffffffffffffffffffffffffffffffffffffffffffffffffffffffffffffff\n        /* \"#utility.yul\":25480:25554   */\n      sub\n        /* \"#utility.yul\":25477:25478   */\n      dup3\n        /* \"#utility.yul\":25474:25555   */\n      gt\n        /* \"#utility.yul\":25471:25578   */\n      iszero\n      tag_520\n      jumpi\n        /* \"#utility.yul\":25558:25576   */\n      tag_521\n      tag_522\n      jump\t// in\n    tag_521:\n        /* \"#utility.yul\":25471:25578   */\n    tag_520:\n        /* \"#utility.yul\":25602:25603   */\n      dup3\n        /* \"#utility.yul\":25599:25600   */\n      dup3\n        /* \"#utility.yul\":25595:25604   */\n      add\n        /* \"#utility.yul\":25588:25604   */\n      swap1\n      pop\n        /* \"#utility.yul\":25305:25610   */\n      swap3\n      swap2\n      pop\n      pop\n      jump\t// out\n        /* \"#utility.yul\":25616:25712   */\n    tag_361:\n        /* \"#utility.yul\":25653:25660   */\n      0x00\n        /* \"#utility.yul\":25682:25706   */\n      tag_524\n        /* \"#utility.yul\":25700:25705   */\n      dup3\n        /* \"#utility.yul\":25682:25706   */\n      tag_525\n      jump\t// in\n    tag_524:\n        /* \"#utility.yul\":25671:25706   */\n      swap1\n      pop\n        /* \"#utility.yul\":25616:25712   */\n      swap2\n      swap1\n      pop\n      jump\t// out\n        /* \"#utility.yul\":25718:25808   */\n    tag_379:\n        /* \"#utility.yul\":25752:25759   */\n      0x00\n        /* \"#utility.yul\":25795:25800   */\n      dup2\n        /* \"#utility.yul\":25788:25801   */\n      iszero\n        /* \"#utility.yul\":25781:25802   */\n      iszero\n        /* \"#utility.yul\":25770:25802   */\n      swap1\n      pop\n        /* \"#utility.yul\":25718:25808   */\n      swap2\n      swap1\n      pop\n      jump\t// out\n        /* \"#utility.yul\":25814:25963   */\n    tag_527:\n        /* \"#utility.yul\":25850:25857   */\n      0x00\n        /* \"#utility.yul\":25890:25956   */\n      0xffffffff00000000000000000000000000000000000000000000000000000000\n        /* \"#utility.yul\":25883:25888   */\n      dup3\n        /* \"#utility.yul\":25879:25957   */\n      and\n        /* \"#utility.yul\":25868:25957   */\n      swap1\n      pop\n        /* \"#utility.yul\":25814:25963   */\n      swap2\n      swap1\n      pop\n      jump\t// out\n        /* \"#utility.yul\":25969:26095   */\n    tag_525:\n        /* \"#utility.yul\":26006:26013   */\n      0x00\n        /* \"#utility.yul\":26046:26088   */\n      0xffffffffffffffffffffffffffffffffffffffff\n        /* \"#utility.yul\":26039:26044   */\n      dup3\n        /* \"#utility.yul\":26035:26089   */\n      and\n        /* \"#utility.yul\":26024:26089   */\n      swap1\n      pop\n        /* \"#utility.yul\":25969:26095   */\n      swap2\n      swap1\n      pop\n      jump\t// out\n        /* \"#utility.yul\":26101:26178   */\n    tag_445:\n        /* \"#utility.yul\":26138:26145   */\n      0x00\n        /* \"#utility.yul\":26167:26172   */\n      dup2\n        /* \"#utility.yul\":26156:26172   */\n      swap1\n      pop\n        /* \"#utility.yul\":26101:26178   */\n      swap2\n      swap1\n      pop\n      jump\t// out\n        /* \"#utility.yul\":26184:26338   */\n    tag_258:\n        /* \"#utility.yul\":26268:26274   */\n      dup3\n        /* \"#utility.yul\":26263:26266   */\n      dup2\n        /* \"#utility.yul\":26258:26261   */\n      dup4\n        /* \"#utility.yul\":26245:26275   */\n      calldatacopy\n        /* \"#utility.yul\":26330:26331   */\n      0x00\n        /* \"#utility.yul\":26321:26327   */\n      dup4\n        /* \"#utility.yul\":26316:26319   */\n      dup4\n        /* \"#utility.yul\":26312:26328   */\n      add\n        /* \"#utility.yul\":26305:26332   */\n      mstore\n        /* \"#utility.yul\":26184:26338   */\n      pop\n      pop\n      pop\n      jump\t// out\n        /* \"#utility.yul\":26344:26651   */\n    tag_387:\n        /* \"#utility.yul\":26412:26413   */\n      0x00\n        /* \"#utility.yul\":26422:26535   */\n    tag_533:\n        /* \"#utility.yul\":26436:26442   */\n      dup4\n        /* \"#utility.yul\":26433:26434   */\n      dup2\n        /* \"#utility.yul\":26430:26443   */\n      lt\n        /* \"#utility.yul\":26422:26535   */\n      iszero\n      tag_535\n      jumpi\n        /* \"#utility.yul\":26521:26522   */\n      dup1\n        /* \"#utility.yul\":26516:26519   */\n      dup3\n        /* \"#utility.yul\":26512:26523   */\n      add\n        /* \"#utility.yul\":26506:26524   */\n      mload\n        /* \"#utility.yul\":26502:26503   */\n      dup2\n        /* \"#utility.yul\":26497:26500   */\n      dup5\n        /* \"#utility.yul\":26493:26504   */\n      add\n        /* \"#utility.yul\":26486:26525   */\n      mstore\n        /* \"#utility.yul\":26458:26460   */\n      0x20\n        /* \"#utility.yul\":26455:26456   */\n      dup2\n        /* \"#utility.yul\":26451:26461   */\n      add\n        /* \"#utility.yul\":26446:26461   */\n      swap1\n      pop\n        /* \"#utility.yul\":26422:26535   */\n      jump(tag_533)\n    tag_535:\n        /* \"#utility.yul\":26553:26559   */\n      dup4\n        /* \"#utility.yul\":26550:26551   */\n      dup2\n        /* \"#utility.yul\":26547:26560   */\n      gt\n        /* \"#utility.yul\":26544:26645   */\n      iszero\n      tag_536\n      jumpi\n        /* \"#utility.yul\":26633:26634   */\n      0x00\n        /* \"#utility.yul\":26624:26630   */\n      dup5\n        /* \"#utility.yul\":26619:26622   */\n      dup5\n        /* \"#utility.yul\":26615:26631   */\n      add\n        /* \"#utility.yul\":26608:26635   */\n      mstore\n        /* \"#utility.yul\":26544:26645   */\n    tag_536:\n        /* \"#utility.yul\":26393:26651   */\n      pop\n        /* \"#utility.yul\":26344:26651   */\n      pop\n      pop\n      pop\n      jump\t// out\n        /* \"#utility.yul\":26657:26977   */\n    tag_64:\n        /* \"#utility.yul\":26701:26707   */\n      0x00\n        /* \"#utility.yul\":26738:26739   */\n      0x02\n        /* \"#utility.yul\":26732:26736   */\n      dup3\n        /* \"#utility.yul\":26728:26740   */\n      div\n        /* \"#utility.yul\":26718:26740   */\n      swap1\n      pop\n        /* \"#utility.yul\":26785:26786   */\n      0x01\n        /* \"#utility.yul\":26779:26783   */\n      dup3\n        /* \"#utility.yul\":26775:26787   */\n      and\n        /* \"#utility.yul\":26806:26824   */\n      dup1\n        /* \"#utility.yul\":26796:26877   */\n      tag_538\n      jumpi\n        /* \"#utility.yul\":26862:26866   */\n      0x7f\n        /* \"#utility.yul\":26854:26860   */\n      dup3\n        /* \"#utility.yul\":26850:26867   */\n      and\n        /* \"#utility.yul\":26840:26867   */\n      swap2\n      pop\n        /* \"#utility.yul\":26796:26877   */\n    tag_538:\n        /* \"#utility.yul\":26924:26926   */\n      0x20\n        /* \"#utility.yul\":26916:26922   */\n      dup3\n        /* \"#utility.yul\":26913:26927   */\n      lt\n        /* \"#utility.yul\":26893:26911   */\n      dup2\n        /* \"#utility.yul\":26890:26928   */\n      eq\n        /* \"#utility.yul\":26887:26971   */\n      iszero\n      tag_539\n      jumpi\n        /* \"#utility.yul\":26943:26961   */\n      tag_540\n      tag_541\n      jump\t// in\n    tag_540:\n        /* \"#utility.yul\":26887:26971   */\n    tag_539:\n        /* \"#utility.yul\":26708:26977   */\n      pop\n        /* \"#utility.yul\":26657:26977   */\n      swap2\n      swap1\n      pop\n      jump\t// out\n        /* \"#utility.yul\":26983:27264   */\n    tag_497:\n        /* \"#utility.yul\":27066:27093   */\n      tag_543\n        /* \"#utility.yul\":27088:27092   */\n      dup3\n        /* \"#utility.yul\":27066:27093   */\n      tag_389\n      jump\t// in\n    tag_543:\n        /* \"#utility.yul\":27058:27064   */\n      dup2\n        /* \"#utility.yul\":27054:27094   */\n      add\n        /* \"#utility.yul\":27196:27202   */\n      dup2\n        /* \"#utility.yul\":27184:27194   */\n      dup2\n        /* \"#utility.yul\":27181:27203   */\n      lt\n        /* \"#utility.yul\":27160:27178   */\n      0xffffffffffffffff\n        /* \"#utility.yul\":27148:27158   */\n      dup3\n        /* \"#utility.yul\":27145:27179   */\n      gt\n        /* \"#utility.yul\":27142:27204   */\n      or\n        /* \"#utility.yul\":27139:27227   */\n      iszero\n      tag_544\n      jumpi\n        /* \"#utility.yul\":27207:27225   */\n      tag_545\n      tag_86\n      jump\t// in\n    tag_545:\n        /* \"#utility.yul\":27139:27227   */\n    tag_544:\n        /* \"#utility.yul\":27247:27257   */\n      dup1\n        /* \"#utility.yul\":27243:27245   */\n      0x40\n        /* \"#utility.yul\":27236:27258   */\n      mstore\n        /* \"#utility.yul\":27026:27264   */\n      pop\n        /* \"#utility.yul\":26983:27264   */\n      pop\n      pop\n      jump\t// out\n        /* \"#utility.yul\":27270:27503   */\n    tag_100:\n        /* \"#utility.yul\":27309:27312   */\n      0x00\n        /* \"#utility.yul\":27332:27356   */\n      tag_547\n        /* \"#utility.yul\":27350:27355   */\n      dup3\n        /* \"#utility.yul\":27332:27356   */\n      tag_445\n      jump\t// in\n    tag_547:\n        /* \"#utility.yul\":27323:27356   */\n      swap2\n      pop\n        /* \"#utility.yul\":27378:27444   */\n      0xffffffffffffffffffffffffffffffffffffffffffffffffffffffffffffffff\n        /* \"#utility.yul\":27371:27376   */\n      dup3\n        /* \"#utility.yul\":27368:27445   */\n      eq\n        /* \"#utility.yul\":27365:27468   */\n      iszero\n      tag_548\n      jumpi\n        /* \"#utility.yul\":27448:27466   */\n      tag_549\n      tag_522\n      jump\t// in\n    tag_549:\n        /* \"#utility.yul\":27365:27468   */\n    tag_548:\n        /* \"#utility.yul\":27495:27496   */\n      0x01\n        /* \"#utility.yul\":27488:27493   */\n      dup3\n        /* \"#utility.yul\":27484:27497   */\n      add\n        /* \"#utility.yul\":27477:27497   */\n      swap1\n      pop\n        /* \"#utility.yul\":27270:27503   */\n      swap2\n      swap1\n      pop\n      jump\t// out\n        /* \"#utility.yul\":27509:27689   */\n    tag_522:\n        /* \"#utility.yul\":27557:27634   */\n      0x4e487b7100000000000000000000000000000000000000000000000000000000\n        /* \"#utility.yul\":27554:27555   */\n      0x00\n        /* \"#utility.yul\":27547:27635   */\n      mstore\n        /* \"#utility.yul\":27654:27658   */\n      0x11\n        /* \"#utility.yul\":27651:27652   */\n      0x04\n        /* \"#utility.yul\":27644:27659   */\n      mstore\n        /* \"#utility.yul\":27678:27682   */\n      0x24\n        /* \"#utility.yul\":27675:27676   */\n      0x00\n        /* \"#utility.yul\":27668:27683   */\n      revert\n        /* \"#utility.yul\":27695:27875   */\n    tag_541:\n        /* \"#utility.yul\":27743:27820   */\n      0x4e487b7100000000000000000000000000000000000000000000000000000000\n        /* \"#utility.yul\":27740:27741   */\n      0x00\n        /* \"#utility.yul\":27733:27821   */\n      mstore\n        /* \"#utility.yul\":27840:27844   */\n      0x22\n        /* \"#utility.yul\":27837:27838   */\n      0x04\n        /* \"#utility.yul\":27830:27845   */\n      mstore\n        /* \"#utility.yul\":27864:27868   */\n      0x24\n        /* \"#utility.yul\":27861:27862   */\n      0x00\n        /* \"#utility.yul\":27854:27869   */\n      revert\n        /* \"#utility.yul\":27881:28061   */\n    tag_94:\n        /* \"#utility.yul\":27929:28006   */\n      0x4e487b7100000000000000000000000000000000000000000000000000000000\n        /* \"#utility.yul\":27926:27927   */\n      0x00\n        /* \"#utility.yul\":27919:28007   */\n      mstore\n        /* \"#utility.yul\":28026:28030   */\n      0x32\n        /* \"#utility.yul\":28023:28024   */\n      0x04\n        /* \"#utility.yul\":28016:28031   */\n      mstore\n        /* \"#utility.yul\":28050:28054   */\n      0x24\n        /* \"#utility.yul\":28047:28048   */\n      0x00\n        /* \"#utility.yul\":28040:28055   */\n      revert\n        /* \"#utility.yul\":28067:28247   */\n    tag_86:\n        /* \"#utility.yul\":28115:28192   */\n      0x4e487b7100000000000000000000000000000000000000000000000000000000\n        /* \"#utility.yul\":28112:28113   */\n      0x00\n        /* \"#utility.yul\":28105:28193   */\n      mstore\n        /* \"#utility.yul\":28212:28216   */\n      0x41\n        /* \"#utility.yul\":28209:28210   */\n      0x04\n        /* \"#utility.yul\":28202:28217   */\n      mstore\n        /* \"#utility.yul\":28236:28240   */\n      0x24\n        /* \"#utility.yul\":28233:28234   */\n      0x00\n        /* \"#utility.yul\":28226:28241   */\n      revert\n        /* \"#utility.yul\":28253:28436   */\n    tag_184:\n        /* \"#utility.yul\":28288:28291   */\n      0x00\n        /* \"#utility.yul\":28326:28327   */\n      0x03\n        /* \"#utility.yul\":28308:28324   */\n      returndatasize\n        /* \"#utility.yul\":28305:28328   */\n      gt\n        /* \"#utility.yul\":28302:28430   */\n      iszero\n      tag_555\n      jumpi\n        /* \"#utility.yul\":28364:28365   */\n      0x04\n        /* \"#utility.yul\":28361:28362   */\n      0x00\n        /* \"#utility.yul\":28358:28359   */\n      dup1\n        /* \"#utility.yul\":28343:28366   */\n      returndatacopy\n        /* \"#utility.yul\":28386:28420   */\n      tag_556\n        /* \"#utility.yul\":28417:28418   */\n      0x00\n        /* \"#utility.yul\":28411:28419   */\n      mload\n        /* \"#utility.yul\":28386:28420   */\n      tag_557\n      jump\t// in\n    tag_556:\n        /* \"#utility.yul\":28379:28420   */\n      swap1\n      pop\n        /* \"#utility.yul\":28302:28430   */\n    tag_555:\n        /* \"#utility.yul\":28253:28436   */\n      swap1\n      jump\t// out\n        /* \"#utility.yul\":28442:28559   */\n    tag_266:\n        /* \"#utility.yul\":28551:28552   */\n      0x00\n        /* \"#utility.yul\":28548:28549   */\n      dup1\n        /* \"#utility.yul\":28541:28553   */\n      revert\n        /* \"#utility.yul\":28565:28682   */\n    tag_231:\n        /* \"#utility.yul\":28674:28675   */\n      0x00\n        /* \"#utility.yul\":28671:28672   */\n      dup1\n        /* \"#utility.yul\":28664:28676   */\n      revert\n        /* \"#utility.yul\":28688:28805   */\n    tag_256:\n        /* \"#utility.yul\":28797:28798   */\n      0x00\n        /* \"#utility.yul\":28794:28795   */\n      dup1\n        /* \"#utility.yul\":28787:28799   */\n      revert\n        /* \"#utility.yul\":28811:28928   */\n    tag_305:\n        /* \"#utility.yul\":28920:28921   */\n      0x00\n        /* \"#utility.yul\":28917:28918   */\n      dup1\n        /* \"#utility.yul\":28910:28922   */\n      revert\n        /* \"#utility.yul\":28934:29051   */\n    tag_295:\n        /* \"#utility.yul\":29043:29044   */\n      0x00\n        /* \"#utility.yul\":29040:29041   */\n      dup1\n        /* \"#utility.yul\":29033:29045   */\n      revert\n        /* \"#utility.yul\":29057:29159   */\n    tag_389:\n        /* \"#utility.yul\":29098:29104   */\n      0x00\n        /* \"#utility.yul\":29149:29151   */\n      0x1f\n        /* \"#utility.yul\":29145:29152   */\n      not\n        /* \"#utility.yul\":29140:29142   */\n      0x1f\n        /* \"#utility.yul\":29133:29138   */\n      dup4\n        /* \"#utility.yul\":29129:29143   */\n      add\n        /* \"#utility.yul\":29125:29153   */\n      and\n        /* \"#utility.yul\":29115:29153   */\n      swap1\n      pop\n        /* \"#utility.yul\":29057:29159   */\n      swap2\n      swap1\n      pop\n      jump\t// out\n        /* \"#utility.yul\":29165:29271   */\n    tag_557:\n        /* \"#utility.yul\":29209:29217   */\n      0x00\n        /* \"#utility.yul\":29258:29263   */\n      dup2\n        /* \"#utility.yul\":29253:29256   */\n      0xe0\n        /* \"#utility.yul\":29249:29264   */\n      shr\n        /* \"#utility.yul\":29228:29264   */\n      swap1\n      pop\n        /* \"#utility.yul\":29165:29271   */\n      swap2\n      swap1\n      pop\n      jump\t// out\n        /* \"#utility.yul\":29277:29504   */\n    tag_402:\n        /* \"#utility.yul\":29417:29451   */\n      0x455243313135353a204552433131353552656365697665722072656a65637465\n        /* \"#utility.yul\":29413:29414   */\n      0x00\n        /* \"#utility.yul\":29405:29411   */\n      dup3\n        /* \"#utility.yul\":29401:29415   */\n      add\n        /* \"#utility.yul\":29394:29452   */\n      mstore\n        /* \"#utility.yul\":29486:29496   */\n      0x6420746f6b656e73000000000000000000000000000000000000000000000000\n        /* \"#utility.yul\":29481:29483   */\n      0x20\n        /* \"#utility.yul\":29473:29479   */\n      dup3\n        /* \"#utility.yul\":29469:29484   */\n      add\n        /* \"#utility.yul\":29462:29497   */\n      mstore\n        /* \"#utility.yul\":29277:29504   */\n      pop\n      jump\t// out\n        /* \"#utility.yul\":29510:29739   */\n    tag_407:\n        /* \"#utility.yul\":29650:29684   */\n      0x455243313135353a2061646472657373207a65726f206973206e6f7420612076\n        /* \"#utility.yul\":29646:29647   */\n      0x00\n        /* \"#utility.yul\":29638:29644   */\n      dup3\n        /* \"#utility.yul\":29634:29648   */\n      add\n        /* \"#utility.yul\":29627:29685   */\n      mstore\n        /* \"#utility.yul\":29719:29731   */\n      0x616c6964206f776e657200000000000000000000000000000000000000000000\n        /* \"#utility.yul\":29714:29716   */\n      0x20\n        /* \"#utility.yul\":29706:29712   */\n      dup3\n        /* \"#utility.yul\":29702:29717   */\n      add\n        /* \"#utility.yul\":29695:29732   */\n      mstore\n        /* \"#utility.yul\":29510:29739   */\n      pop\n      jump\t// out\n        /* \"#utility.yul\":29745:29978   */\n    tag_412:\n        /* \"#utility.yul\":29885:29919   */\n      0x455243313135353a2063616c6c6572206973206e6f7420746f6b656e206f776e\n        /* \"#utility.yul\":29881:29882   */\n      0x00\n        /* \"#utility.yul\":29873:29879   */\n      dup3\n        /* \"#utility.yul\":29869:29883   */\n      add\n        /* \"#utility.yul\":29862:29920   */\n      mstore\n        /* \"#utility.yul\":29954:29970   */\n      0x6572206f7220617070726f766564000000000000000000000000000000000000\n        /* \"#utility.yul\":29949:29951   */\n      0x20\n        /* \"#utility.yul\":29941:29947   */\n      dup3\n        /* \"#utility.yul\":29937:29952   */\n      add\n        /* \"#utility.yul\":29930:29971   */\n      mstore\n        /* \"#utility.yul\":29745:29978   */\n      pop\n      jump\t// out\n        /* \"#utility.yul\":29984:30208   */\n    tag_417:\n        /* \"#utility.yul\":30124:30158   */\n      0x455243313135353a207472616e7366657220746f20746865207a65726f206164\n        /* \"#utility.yul\":30120:30121   */\n      0x00\n        /* \"#utility.yul\":30112:30118   */\n      dup3\n        /* \"#utility.yul\":30108:30122   */\n      add\n        /* \"#utility.yul\":30101:30159   */\n      mstore\n        /* \"#utility.yul\":30193:30200   */\n      0x6472657373000000000000000000000000000000000000000000000000000000\n        /* \"#utility.yul\":30188:30190   */\n      0x20\n        /* \"#utility.yul\":30180:30186   */\n      dup3\n        /* \"#utility.yul\":30176:30191   */\n      add\n        /* \"#utility.yul\":30169:30201   */\n      mstore\n        /* \"#utility.yul\":29984:30208   */\n      pop\n      jump\t// out\n        /* \"#utility.yul\":30214:30443   */\n    tag_422:\n        /* \"#utility.yul\":30354:30388   */\n      0x455243313135353a20696e73756666696369656e742062616c616e636520666f\n        /* \"#utility.yul\":30350:30351   */\n      0x00\n        /* \"#utility.yul\":30342:30348   */\n      dup3\n        /* \"#utility.yul\":30338:30352   */\n      add\n        /* \"#utility.yul\":30331:30389   */\n      mstore\n        /* \"#utility.yul\":30423:30435   */\n      0x72207472616e7366657200000000000000000000000000000000000000000000\n        /* \"#utility.yul\":30418:30420   */\n      0x20\n        /* \"#utility.yul\":30410:30416   */\n      dup3\n        /* \"#utility.yul\":30406:30421   */\n      add\n        /* \"#utility.yul\":30399:30436   */\n      mstore\n        /* \"#utility.yul\":30214:30443   */\n      pop\n      jump\t// out\n        /* \"#utility.yul\":30449:30677   */\n    tag_427:\n        /* \"#utility.yul\":30589:30623   */\n      0x455243313135353a2073657474696e6720617070726f76616c20737461747573\n        /* \"#utility.yul\":30585:30586   */\n      0x00\n        /* \"#utility.yul\":30577:30583   */\n      dup3\n        /* \"#utility.yul\":30573:30587   */\n      add\n        /* \"#utility.yul\":30566:30624   */\n      mstore\n        /* \"#utility.yul\":30658:30669   */\n      0x20666f722073656c660000000000000000000000000000000000000000000000\n        /* \"#utility.yul\":30653:30655   */\n      0x20\n        /* \"#utility.yul\":30645:30651   */\n      dup3\n        /* \"#utility.yul\":30641:30656   */\n      add\n        /* \"#utility.yul\":30634:30670   */\n      mstore\n        /* \"#utility.yul\":30449:30677   */\n      pop\n      jump\t// out\n        /* \"#utility.yul\":30683:30911   */\n    tag_432:\n        /* \"#utility.yul\":30823:30857   */\n      0x455243313135353a206163636f756e747320616e6420696473206c656e677468\n        /* \"#utility.yul\":30819:30820   */\n      0x00\n        /* \"#utility.yul\":30811:30817   */\n      dup3\n        /* \"#utility.yul\":30807:30821   */\n      add\n        /* \"#utility.yul\":30800:30858   */\n      mstore\n        /* \"#utility.yul\":30892:30903   */\n      0x206d69736d617463680000000000000000000000000000000000000000000000\n        /* \"#utility.yul\":30887:30889   */\n      0x20\n        /* \"#utility.yul\":30879:30885   */\n      dup3\n        /* \"#utility.yul\":30875:30890   */\n      add\n        /* \"#utility.yul\":30868:30904   */\n      mstore\n        /* \"#utility.yul\":30683:30911   */\n      pop\n      jump\t// out\n        /* \"#utility.yul\":30917:31144   */\n    tag_437:\n        /* \"#utility.yul\":31057:31091   */\n      0x455243313135353a2069647320616e6420616d6f756e7473206c656e67746820\n        /* \"#utility.yul\":31053:31054   */\n      0x00\n        /* \"#utility.yul\":31045:31051   */\n      dup3\n        /* \"#utility.yul\":31041:31055   */\n      add\n        /* \"#utility.yul\":31034:31092   */\n      mstore\n        /* \"#utility.yul\":31126:31136   */\n      0x6d69736d61746368000000000000000000000000000000000000000000000000\n        /* \"#utility.yul\":31121:31123   */\n      0x20\n        /* \"#utility.yul\":31113:31119   */\n      dup3\n        /* \"#utility.yul\":31109:31124   */\n      add\n        /* \"#utility.yul\":31102:31137   */\n      mstore\n        /* \"#utility.yul\":30917:31144   */\n      pop\n      jump\t// out\n        /* \"#utility.yul\":31150:31389   */\n    tag_442:\n        /* \"#utility.yul\":31290:31324   */\n      0x455243313135353a207472616e7366657220746f206e6f6e2d45524331313535\n        /* \"#utility.yul\":31286:31287   */\n      0x00\n        /* \"#utility.yul\":31278:31284   */\n      dup3\n        /* \"#utility.yul\":31274:31288   */\n      add\n        /* \"#utility.yul\":31267:31325   */\n      mstore\n        /* \"#utility.yul\":31359:31381   */\n      0x526563656976657220696d706c656d656e746572000000000000000000000000\n        /* \"#utility.yul\":31354:31356   */\n      0x20\n        /* \"#utility.yul\":31346:31352   */\n      dup3\n        /* \"#utility.yul\":31342:31357   */\n      add\n        /* \"#utility.yul\":31335:31382   */\n      mstore\n        /* \"#utility.yul\":31150:31389   */\n      pop\n      jump\t// out\n        /* \"#utility.yul\":31395:32106   */\n    tag_186:\n        /* \"#utility.yul\":31434:31437   */\n      0x00\n        /* \"#utility.yul\":31472:31476   */\n      0x44\n        /* \"#utility.yul\":31454:31470   */\n      returndatasize\n        /* \"#utility.yul\":31451:31477   */\n      lt\n        /* \"#utility.yul\":31448:31487   */\n      iszero\n      tag_575\n      jumpi\n        /* \"#utility.yul\":31480:31485   */\n      jump(tag_574)\n        /* \"#utility.yul\":31448:31487   */\n    tag_575:\n        /* \"#utility.yul\":31509:31529   */\n      tag_576\n      tag_495\n      jump\t// in\n    tag_576:\n        /* \"#utility.yul\":31584:31585   */\n      0x04\n        /* \"#utility.yul\":31566:31582   */\n      returndatasize\n        /* \"#utility.yul\":31562:31586   */\n      sub\n        /* \"#utility.yul\":31559:31560   */\n      0x04\n        /* \"#utility.yul\":31553:31557   */\n      dup3\n        /* \"#utility.yul\":31538:31587   */\n      returndatacopy\n        /* \"#utility.yul\":31617:31621   */\n      dup1\n        /* \"#utility.yul\":31611:31622   */\n      mload\n        /* \"#utility.yul\":31716:31732   */\n      returndatasize\n        /* \"#utility.yul\":31709:31713   */\n      0x24\n        /* \"#utility.yul\":31701:31707   */\n      dup3\n        /* \"#utility.yul\":31697:31714   */\n      add\n        /* \"#utility.yul\":31694:31733   */\n      gt\n        /* \"#utility.yul\":31661:31679   */\n      0xffffffffffffffff\n        /* \"#utility.yul\":31653:31659   */\n      dup3\n        /* \"#utility.yul\":31650:31680   */\n      gt\n        /* \"#utility.yul\":31634:31747   */\n      or\n        /* \"#utility.yul\":31631:31777   */\n      iszero\n      tag_577\n      jumpi\n        /* \"#utility.yul\":31762:31767   */\n      pop\n      pop\n      jump(tag_574)\n        /* \"#utility.yul\":31631:31777   */\n    tag_577:\n        /* \"#utility.yul\":31808:31814   */\n      dup1\n        /* \"#utility.yul\":31802:31806   */\n      dup3\n        /* \"#utility.yul\":31798:31815   */\n      add\n        /* \"#utility.yul\":31844:31847   */\n      dup1\n        /* \"#utility.yul\":31838:31848   */\n      mload\n        /* \"#utility.yul\":31871:31889   */\n      0xffffffffffffffff\n        /* \"#utility.yul\":31863:31869   */\n      dup2\n        /* \"#utility.yul\":31860:31890   */\n      gt\n        /* \"#utility.yul\":31857:31900   */\n      iszero\n      tag_578\n      jumpi\n        /* \"#utility.yul\":31893:31898   */\n      pop\n      pop\n      pop\n      pop\n      jump(tag_574)\n        /* \"#utility.yul\":31857:31900   */\n    tag_578:\n        /* \"#utility.yul\":31941:31947   */\n      dup1\n        /* \"#utility.yul\":31934:31938   */\n      0x20\n        /* \"#utility.yul\":31929:31932   */\n      dup4\n        /* \"#utility.yul\":31925:31939   */\n      add\n        /* \"#utility.yul\":31921:31948   */\n      add\n        /* \"#utility.yul\":32000:32001   */\n      0x04\n        /* \"#utility.yul\":31982:31998   */\n      returndatasize\n        /* \"#utility.yul\":31978:32002   */\n      sub\n        /* \"#utility.yul\":31972:31976   */\n      dup6\n        /* \"#utility.yul\":31968:32003   */\n      add\n        /* \"#utility.yul\":31963:31966   */\n      dup2\n        /* \"#utility.yul\":31960:32004   */\n      gt\n        /* \"#utility.yul\":31957:32014   */\n      iszero\n      tag_579\n      jumpi\n        /* \"#utility.yul\":32007:32012   */\n      pop\n      pop\n      pop\n      pop\n      pop\n      jump(tag_574)\n        /* \"#utility.yul\":31957:32014   */\n    tag_579:\n        /* \"#utility.yul\":32024:32081   */\n      tag_580\n        /* \"#utility.yul\":32072:32078   */\n      dup3\n        /* \"#utility.yul\":32066:32070   */\n      0x20\n        /* \"#utility.yul\":32062:32079   */\n      add\n        /* \"#utility.yul\":32054:32060   */\n      dup6\n        /* \"#utility.yul\":32050:32080   */\n      add\n        /* \"#utility.yul\":32044:32048   */\n      dup7\n        /* \"#utility.yul\":32024:32081   */\n      tag_497\n      jump\t// in\n    tag_580:\n        /* \"#utility.yul\":32097:32100   */\n      dup3\n        /* \"#utility.yul\":32090:32100   */\n      swap6\n      pop\n        /* \"#utility.yul\":31438:32106   */\n      pop\n      pop\n      pop\n      pop\n      pop\n        /* \"#utility.yul\":31395:32106   */\n    tag_574:\n      swap1\n      jump\t// out\n        /* \"#utility.yul\":32112:32234   */\n    tag_261:\n        /* \"#utility.yul\":32185:32209   */\n      tag_582\n        /* \"#utility.yul\":32203:32208   */\n      dup2\n        /* \"#utility.yul\":32185:32209   */\n      tag_361\n      jump\t// in\n    tag_582:\n        /* \"#utility.yul\":32178:32183   */\n      dup2\n        /* \"#utility.yul\":32175:32210   */\n      eq\n        /* \"#utility.yul\":32165:32228   */\n      tag_583\n      jumpi\n        /* \"#utility.yul\":32224:32225   */\n      0x00\n        /* \"#utility.yul\":32221:32222   */\n      dup1\n        /* \"#utility.yul\":32214:32226   */\n      revert\n        /* \"#utility.yul\":32165:32228   */\n    tag_583:\n        /* \"#utility.yul\":32112:32234   */\n      pop\n      jump\t// out\n        /* \"#utility.yul\":32240:32356   */\n    tag_276:\n        /* \"#utility.yul\":32310:32331   */\n      tag_585\n        /* \"#utility.yul\":32325:32330   */\n      dup2\n        /* \"#utility.yul\":32310:32331   */\n      tag_379\n      jump\t// in\n    tag_585:\n        /* \"#utility.yul\":32303:32308   */\n      dup2\n        /* \"#utility.yul\":32300:32332   */\n      eq\n        /* \"#utility.yul\":32290:32350   */\n      tag_586\n      jumpi\n        /* \"#utility.yul\":32346:32347   */\n      0x00\n        /* \"#utility.yul\":32343:32344   */\n      dup1\n        /* \"#utility.yul\":32336:32348   */\n      revert\n        /* \"#utility.yul\":32290:32350   */\n    tag_586:\n        /* \"#utility.yul\":32240:32356   */\n      pop\n      jump\t// out\n        /* \"#utility.yul\":32362:32482   */\n    tag_280:\n        /* \"#utility.yul\":32434:32457   */\n      tag_588\n        /* \"#utility.yul\":32451:32456   */\n      dup2\n        /* \"#utility.yul\":32434:32457   */\n      tag_527\n      jump\t// in\n    tag_588:\n        /* \"#utility.yul\":32427:32432   */\n      dup2\n        /* \"#utility.yul\":32424:32458   */\n      eq\n        /* \"#utility.yul\":32414:32476   */\n      tag_589\n      jumpi\n        /* \"#utility.yul\":32472:32473   */\n      0x00\n        /* \"#utility.yul\":32469:32470   */\n      dup1\n        /* \"#utility.yul\":32462:32474   */\n      revert\n        /* \"#utility.yul\":32414:32476   */\n    tag_589:\n        /* \"#utility.yul\":32362:32482   */\n      pop\n      jump\t// out\n        /* \"#utility.yul\":32488:32610   */\n    tag_291:\n        /* \"#utility.yul\":32561:32585   */\n      tag_591\n        /* \"#utility.yul\":32579:32584   */\n      dup2\n        /* \"#utility.yul\":32561:32585   */\n      tag_445\n      jump\t// in\n    tag_591:\n        /* \"#utility.yul\":32554:32559   */\n      dup2\n        /* \"#utility.yul\":32551:32586   */\n      eq\n        /* \"#utility.yul\":32541:32604   */\n      tag_592\n      jumpi\n        /* \"#utility.yul\":32600:32601   */\n      0x00\n        /* \"#utility.yul\":32597:32598   */\n      dup1\n        /* \"#utility.yul\":32590:32602   */\n      revert\n        /* \"#utility.yul\":32541:32604   */\n    tag_592:\n        /* \"#utility.yul\":32488:32610   */\n      pop\n      jump\t// out\n\n    auxdata: 0xa26469706673582212209288e06c2286ef02a540680cb59411b2c4994921b961042334306f157680fa5d64736f6c63430008070033\n}\n",
				"bytecode": {
					"linkReferences": {},
					"object": "60806040523480156200001157600080fd5b50604051620028da380380620028da833981810160405281019062000037919062000199565b62000048816200004f60201b60201c565b506200036e565b8060029080519060200190620000679291906200006b565b5050565b82805462000079906200027f565b90600052602060002090601f0160209004810192826200009d5760008555620000e9565b82601f10620000b857805160ff1916838001178555620000e9565b82800160010185558215620000e9579182015b82811115620000e8578251825591602001919060010190620000cb565b5b509050620000f89190620000fc565b5090565b5b8082111562000117576000816000905550600101620000fd565b5090565b6000620001326200012c8462000213565b620001ea565b9050828152602081018484840111156200015157620001506200034e565b5b6200015e84828562000249565b509392505050565b600082601f8301126200017e576200017d62000349565b5b8151620001908482602086016200011b565b91505092915050565b600060208284031215620001b257620001b162000358565b5b600082015167ffffffffffffffff811115620001d357620001d262000353565b5b620001e18482850162000166565b91505092915050565b6000620001f662000209565b9050620002048282620002b5565b919050565b6000604051905090565b600067ffffffffffffffff8211156200023157620002306200031a565b5b6200023c826200035d565b9050602081019050919050565b60005b83811015620002695780820151818401526020810190506200024c565b8381111562000279576000848401525b50505050565b600060028204905060018216806200029857607f821691505b60208210811415620002af57620002ae620002eb565b5b50919050565b620002c0826200035d565b810181811067ffffffffffffffff82111715620002e257620002e16200031a565b5b80604052505050565b7f4e487b7100000000000000000000000000000000000000000000000000000000600052602260045260246000fd5b7f4e487b7100000000000000000000000000000000000000000000000000000000600052604160045260246000fd5b600080fd5b600080fd5b600080fd5b600080fd5b6000601f19601f8301169050919050565b61255c806200037e6000396000f3fe608060405234801561001057600080fd5b50600436106100875760003560e01c80634e1273f41161005b5780634e1273f414610138578063a22cb46514610168578063e985e9c514610184578063f242432a146101b457610087565b8062fdd58e1461008c57806301ffc9a7146100bc5780630e89341c146100ec5780632eb2c2d61461011c575b600080fd5b6100a660048036038101906100a19190611727565b6101d0565b6040516100b39190611d3d565b60405180910390f35b6100d660048036038101906100d191906117df565b610299565b6040516100e39190611be0565b60405180910390f35b61010660048036038101906101019190611839565b61037b565b6040516101139190611bfb565b60405180910390f35b61013660048036038101906101319190611581565b61040f565b005b610152600480360381019061014d9190611767565b6104b0565b60405161015f9190611b87565b60405180910390f35b610182600480360381019061017d91906116e7565b6105c9565b005b61019e60048036038101906101999190611541565b6105df565b6040516101ab9190611be0565b60405180910390f35b6101ce60048036038101906101c99190611650565b610673565b005b60008073ffffffffffffffffffffffffffffffffffffffff168373ffffffffffffffffffffffffffffffffffffffff161415610241576040517f08c379a000000000000000000000000000000000000000000000000000000000815260040161023890611c3d565b60405180910390fd5b60008083815260200190815260200160002060008473ffffffffffffffffffffffffffffffffffffffff1673ffffffffffffffffffffffffffffffffffffffff16815260200190815260200160002054905092915050565b60007fd9b67a26000000000000000000000000000000000000000000000000000000007bffffffffffffffffffffffffffffffffffffffffffffffffffffffff1916827bffffffffffffffffffffffffffffffffffffffffffffffffffffffff1916148061036457507f0e89341c000000000000000000000000000000000000000000000000000000007bffffffffffffffffffffffffffffffffffffffffffffffffffffffff1916827bffffffffffffffffffffffffffffffffffffffffffffffffffffffff1916145b80610374575061037382610714565b5b9050919050565b60606002805461038a90611fac565b80601f01602080910402602001604051908101604052809291908181526020018280546103b690611fac565b80156104035780601f106103d857610100808354040283529160200191610403565b820191906000526020600020905b8154815290600101906020018083116103e657829003601f168201915b50505050509050919050565b61041761077e565b73ffffffffffffffffffffffffffffffffffffffff168573ffffffffffffffffffffffffffffffffffffffff16148061045d575061045c8561045761077e565b6105df565b5b61049c576040517f08c379a000000000000000000000000000000000000000000000000000000000815260040161049390611c5d565b60405180910390fd5b6104a98585858585610786565b5050505050565b606081518351146104f6576040517f08c379a00000000000000000000000000000000000000000000000000000000081526004016104ed90611cdd565b60405180910390fd5b6000835167ffffffffffffffff811115610513576105126120e5565b5b6040519080825280602002602001820160405280156105415781602001602082028036833780820191505090505b50905060005b84518110156105be5761058e858281518110610566576105656120b6565b5b6020026020010151858381518110610581576105806120b6565b5b60200260200101516101d0565b8282815181106105a1576105a06120b6565b5b602002602001018181525050806105b79061200f565b9050610547565b508091505092915050565b6105db6105d461077e565b8383610aa8565b5050565b6000600160008473ffffffffffffffffffffffffffffffffffffffff1673ffffffffffffffffffffffffffffffffffffffff16815260200190815260200160002060008373ffffffffffffffffffffffffffffffffffffffff1673ffffffffffffffffffffffffffffffffffffffff16815260200190815260200160002060009054906101000a900460ff16905092915050565b61067b61077e565b73ffffffffffffffffffffffffffffffffffffffff168573ffffffffffffffffffffffffffffffffffffffff1614806106c157506106c0856106bb61077e565b6105df565b5b610700576040517f08c379a00000000000000000000000000000000000000000000000000000000081526004016106f790611c5d565b60405180910390fd5b61070d8585858585610c15565b5050505050565b60007f01ffc9a7000000000000000000000000000000000000000000000000000000007bffffffffffffffffffffffffffffffffffffffffffffffffffffffff1916827bffffffffffffffffffffffffffffffffffffffffffffffffffffffff1916149050919050565b600033905090565b81518351146107ca576040517f08c379a00000000000000000000000000000000000000000000000000000000081526004016107c190611cfd565b60405180910390fd5b600073ffffffffffffffffffffffffffffffffffffffff168473ffffffffffffffffffffffffffffffffffffffff16141561083a576040517f08c379a000000000000000000000000000000000000000000000000000000000815260040161083190611c7d565b60405180910390fd5b600061084461077e565b9050610854818787878787610eb1565b60005b8451811015610a05576000858281518110610875576108746120b6565b5b602002602001015190506000858381518110610894576108936120b6565b5b60200260200101519050600080600084815260200190815260200160002060008b73ffffffffffffffffffffffffffffffffffffffff1673ffffffffffffffffffffffffffffffffffffffff16815260200190815260200160002054905081811015610935576040517f08c379a000000000000000000000000000000000000000000000000000000000815260040161092c90611c9d565b60405180910390fd5b81810360008085815260200190815260200160002060008c73ffffffffffffffffffffffffffffffffffffffff1673ffffffffffffffffffffffffffffffffffffffff168152602001908152602001600020819055508160008085815260200190815260200160002060008b73ffffffffffffffffffffffffffffffffffffffff1673ffffffffffffffffffffffffffffffffffffffff16815260200190815260200160002060008282546109ea9190611ea0565b92505081905550505050806109fe9061200f565b9050610857565b508473ffffffffffffffffffffffffffffffffffffffff168673ffffffffffffffffffffffffffffffffffffffff168273ffffffffffffffffffffffffffffffffffffffff167f4a39dc06d4c0dbc64b70af90fd698a233a518aa5d07e595d983b8c0526c8f7fb8787604051610a7c929190611ba9565b60405180910390a4610a92818787878787610eb9565b610aa0818787878787610ec1565b505050505050565b8173ffffffffffffffffffffffffffffffffffffffff168373ffffffffffffffffffffffffffffffffffffffff161415610b17576040517f08c379a0000000000000000000000000000000000000000000000000000000008152600401610b0e90611cbd565b60405180910390fd5b80600160008573ffffffffffffffffffffffffffffffffffffffff1673ffffffffffffffffffffffffffffffffffffffff16815260200190815260200160002060008473ffffffffffffffffffffffffffffffffffffffff1673ffffffffffffffffffffffffffffffffffffffff16815260200190815260200160002060006101000a81548160ff0219169083151502179055508173ffffffffffffffffffffffffffffffffffffffff168373ffffffffffffffffffffffffffffffffffffffff167f17307eab39ab6107e8899845ad3d59bd9653f200f220920489ca2b5937696c3183604051610c089190611be0565b60405180910390a3505050565b600073ffffffffffffffffffffffffffffffffffffffff168473ffffffffffffffffffffffffffffffffffffffff161415610c85576040517f08c379a0000000000000000000000000000000000000000000000000000000008152600401610c7c90611c7d565b60405180910390fd5b6000610c8f61077e565b90506000610c9c856110a8565b90506000610ca9856110a8565b9050610cb9838989858589610eb1565b600080600088815260200190815260200160002060008a73ffffffffffffffffffffffffffffffffffffffff1673ffffffffffffffffffffffffffffffffffffffff16815260200190815260200160002054905085811015610d50576040517f08c379a0000000000000000000000000000000000000000000000000000000008152600401610d4790611c9d565b60405180910390fd5b85810360008089815260200190815260200160002060008b73ffffffffffffffffffffffffffffffffffffffff1673ffffffffffffffffffffffffffffffffffffffff168152602001908152602001600020819055508560008089815260200190815260200160002060008a73ffffffffffffffffffffffffffffffffffffffff1673ffffffffffffffffffffffffffffffffffffffff1681526020019081526020016000206000828254610e059190611ea0565b925050819055508773ffffffffffffffffffffffffffffffffffffffff168973ffffffffffffffffffffffffffffffffffffffff168573ffffffffffffffffffffffffffffffffffffffff167fc3d58168c5ae7397731d063d5bbf3d657854427343f4c083240f7aacaa2d0f628a8a604051610e82929190611d58565b60405180910390a4610e98848a8a86868a610eb9565b610ea6848a8a8a8a8a611122565b505050505050505050565b505050505050565b505050505050565b610ee08473ffffffffffffffffffffffffffffffffffffffff16611309565b156110a0578373ffffffffffffffffffffffffffffffffffffffff1663bc197c8187878686866040518663ffffffff1660e01b8152600401610f26959493929190611ac5565b602060405180830381600087803b158015610f4057600080fd5b505af1925050508015610f7157506040513d601f19601f82011682018060405250810190610f6e919061180c565b60015b61101757610f7d612114565b806308c379a01415610fda5750610f92612434565b80610f9d5750610fdc565b806040517f08c379a0000000000000000000000000000000000000000000000000000000008152600401610fd19190611bfb565b60405180910390fd5b505b6040517f08c379a000000000000000000000000000000000000000000000000000000000815260040161100e90611d1d565b60405180910390fd5b63bc197c8160e01b7bffffffffffffffffffffffffffffffffffffffffffffffffffffffff1916817bffffffffffffffffffffffffffffffffffffffffffffffffffffffff19161461109e576040517f08c379a000000000000000000000000000000000000000000000000000000000815260040161109590611c1d565b60405180910390fd5b505b505050505050565b60606000600167ffffffffffffffff8111156110c7576110c66120e5565b5b6040519080825280602002602001820160405280156110f55781602001602082028036833780820191505090505b509050828160008151811061110d5761110c6120b6565b5b60200260200101818152505080915050919050565b6111418473ffffffffffffffffffffffffffffffffffffffff16611309565b15611301578373ffffffffffffffffffffffffffffffffffffffff1663f23a6e6187878686866040518663ffffffff1660e01b8152600401611187959493929190611b2d565b602060405180830381600087803b1580156111a157600080fd5b505af19250505080156111d257506040513d601f19601f820116820180604052508101906111cf919061180c565b60015b611278576111de612114565b806308c379a0141561123b57506111f3612434565b806111fe575061123d565b806040517f08c379a00000000000000000000000000000000000000000000000000000000081526004016112329190611bfb565b60405180910390fd5b505b6040517f08c379a000000000000000000000000000000000000000000000000000000000815260040161126f90611d1d565b60405180910390fd5b63f23a6e6160e01b7bffffffffffffffffffffffffffffffffffffffffffffffffffffffff1916817bffffffffffffffffffffffffffffffffffffffffffffffffffffffff1916146112ff576040517f08c379a00000000000000000000000000000000000000000000000000000000081526004016112f690611c1d565b60405180910390fd5b505b505050505050565b6000808273ffffffffffffffffffffffffffffffffffffffff163b119050919050565b600061133f61133a84611da6565b611d81565b905080838252602082019050828560208602820111156113625761136161213b565b5b60005b858110156113925781611378888261144e565b845260208401935060208301925050600181019050611365565b5050509392505050565b60006113af6113aa84611dd2565b611d81565b905080838252602082019050828560208602820111156113d2576113d161213b565b5b60005b8581101561140257816113e8888261152c565b8452602084019350602083019250506001810190506113d5565b5050509392505050565b600061141f61141a84611dfe565b611d81565b90508281526020810184848401111561143b5761143a612140565b5b611446848285611f6a565b509392505050565b60008135905061145d816124ca565b92915050565b600082601f83011261147857611477612136565b5b813561148884826020860161132c565b91505092915050565b600082601f8301126114a6576114a5612136565b5b81356114b684826020860161139c565b91505092915050565b6000813590506114ce816124e1565b92915050565b6000813590506114e3816124f8565b92915050565b6000815190506114f8816124f8565b92915050565b600082601f83011261151357611512612136565b5b813561152384826020860161140c565b91505092915050565b60008135905061153b8161250f565b92915050565b600080604083850312156115585761155761214a565b5b60006115668582860161144e565b92505060206115778582860161144e565b9150509250929050565b600080600080600060a0868803121561159d5761159c61214a565b5b60006115ab8882890161144e565b95505060206115bc8882890161144e565b945050604086013567ffffffffffffffff8111156115dd576115dc612145565b5b6115e988828901611491565b935050606086013567ffffffffffffffff81111561160a57611609612145565b5b61161688828901611491565b925050608086013567ffffffffffffffff81111561163757611636612145565b5b611643888289016114fe565b9150509295509295909350565b600080600080600060a0868803121561166c5761166b61214a565b5b600061167a8882890161144e565b955050602061168b8882890161144e565b945050604061169c8882890161152c565b93505060606116ad8882890161152c565b925050608086013567ffffffffffffffff8111156116ce576116cd612145565b5b6116da888289016114fe565b9150509295509295909350565b600080604083850312156116fe576116fd61214a565b5b600061170c8582860161144e565b925050602061171d858286016114bf565b9150509250929050565b6000806040838503121561173e5761173d61214a565b5b600061174c8582860161144e565b925050602061175d8582860161152c565b9150509250929050565b6000806040838503121561177e5761177d61214a565b5b600083013567ffffffffffffffff81111561179c5761179b612145565b5b6117a885828601611463565b925050602083013567ffffffffffffffff8111156117c9576117c8612145565b5b6117d585828601611491565b9150509250929050565b6000602082840312156117f5576117f461214a565b5b6000611803848285016114d4565b91505092915050565b6000602082840312156118225761182161214a565b5b6000611830848285016114e9565b91505092915050565b60006020828403121561184f5761184e61214a565b5b600061185d8482850161152c565b91505092915050565b60006118728383611aa7565b60208301905092915050565b61188781611ef6565b82525050565b600061189882611e3f565b6118a28185611e6d565b93506118ad83611e2f565b8060005b838110156118de5781516118c58882611866565b97506118d083611e60565b9250506001810190506118b1565b5085935050505092915050565b6118f481611f08565b82525050565b600061190582611e4a565b61190f8185611e7e565b935061191f818560208601611f79565b6119288161214f565b840191505092915050565b600061193e82611e55565b6119488185611e8f565b9350611958818560208601611f79565b6119618161214f565b840191505092915050565b6000611979602883611e8f565b91506119848261216d565b604082019050919050565b600061199c602a83611e8f565b91506119a7826121bc565b604082019050919050565b60006119bf602e83611e8f565b91506119ca8261220b565b604082019050919050565b60006119e2602583611e8f565b91506119ed8261225a565b604082019050919050565b6000611a05602a83611e8f565b9150611a10826122a9565b604082019050919050565b6000611a28602983611e8f565b9150611a33826122f8565b604082019050919050565b6000611a4b602983611e8f565b9150611a5682612347565b604082019050919050565b6000611a6e602883611e8f565b9150611a7982612396565b604082019050919050565b6000611a91603483611e8f565b9150611a9c826123e5565b604082019050919050565b611ab081611f60565b82525050565b611abf81611f60565b82525050565b600060a082019050611ada600083018861187e565b611ae7602083018761187e565b8181036040830152611af9818661188d565b90508181036060830152611b0d818561188d565b90508181036080830152611b2181846118fa565b90509695505050505050565b600060a082019050611b42600083018861187e565b611b4f602083018761187e565b611b5c6040830186611ab6565b611b696060830185611ab6565b8181036080830152611b7b81846118fa565b90509695505050505050565b60006020820190508181036000830152611ba1818461188d565b905092915050565b60006040820190508181036000830152611bc3818561188d565b90508181036020830152611bd7818461188d565b90509392505050565b6000602082019050611bf560008301846118eb565b92915050565b60006020820190508181036000830152611c158184611933565b905092915050565b60006020820190508181036000830152611c368161196c565b9050919050565b60006020820190508181036000830152611c568161198f565b9050919050565b60006020820190508181036000830152611c76816119b2565b9050919050565b60006020820190508181036000830152611c96816119d5565b9050919050565b60006020820190508181036000830152611cb6816119f8565b9050919050565b60006020820190508181036000830152611cd681611a1b565b9050919050565b60006020820190508181036000830152611cf681611a3e565b9050919050565b60006020820190508181036000830152611d1681611a61565b9050919050565b60006020820190508181036000830152611d3681611a84565b9050919050565b6000602082019050611d526000830184611ab6565b92915050565b6000604082019050611d6d6000830185611ab6565b611d7a6020830184611ab6565b9392505050565b6000611d8b611d9c565b9050611d978282611fde565b919050565b6000604051905090565b600067ffffffffffffffff821115611dc157611dc06120e5565b5b602082029050602081019050919050565b600067ffffffffffffffff821115611ded57611dec6120e5565b5b602082029050602081019050919050565b600067ffffffffffffffff821115611e1957611e186120e5565b5b611e228261214f565b9050602081019050919050565b6000819050602082019050919050565b600081519050919050565b600081519050919050565b600081519050919050565b6000602082019050919050565b600082825260208201905092915050565b600082825260208201905092915050565b600082825260208201905092915050565b6000611eab82611f60565b9150611eb683611f60565b9250827fffffffffffffffffffffffffffffffffffffffffffffffffffffffffffffffff03821115611eeb57611eea612058565b5b828201905092915050565b6000611f0182611f40565b9050919050565b60008115159050919050565b60007fffffffff0000000000000000000000000000000000000000000000000000000082169050919050565b600073ffffffffffffffffffffffffffffffffffffffff82169050919050565b6000819050919050565b82818337600083830152505050565b60005b83811015611f97578082015181840152602081019050611f7c565b83811115611fa6576000848401525b50505050565b60006002820490506001821680611fc457607f821691505b60208210811415611fd857611fd7612087565b5b50919050565b611fe78261214f565b810181811067ffffffffffffffff82111715612006576120056120e5565b5b80604052505050565b600061201a82611f60565b91507fffffffffffffffffffffffffffffffffffffffffffffffffffffffffffffffff82141561204d5761204c612058565b5b600182019050919050565b7f4e487b7100000000000000000000000000000000000000000000000000000000600052601160045260246000fd5b7f4e487b7100000000000000000000000000000000000000000000000000000000600052602260045260246000fd5b7f4e487b7100000000000000000000000000000000000000000000000000000000600052603260045260246000fd5b7f4e487b7100000000000000000000000000000000000000000000000000000000600052604160045260246000fd5b600060033d11156121335760046000803e612130600051612160565b90505b90565b600080fd5b600080fd5b600080fd5b600080fd5b600080fd5b6000601f19601f8301169050919050565b60008160e01c9050919050565b7f455243313135353a204552433131353552656365697665722072656a6563746560008201527f6420746f6b656e73000000000000000000000000000000000000000000000000602082015250565b7f455243313135353a2061646472657373207a65726f206973206e6f742061207660008201527f616c6964206f776e657200000000000000000000000000000000000000000000602082015250565b7f455243313135353a2063616c6c6572206973206e6f7420746f6b656e206f776e60008201527f6572206f7220617070726f766564000000000000000000000000000000000000602082015250565b7f455243313135353a207472616e7366657220746f20746865207a65726f20616460008201527f6472657373000000000000000000000000000000000000000000000000000000602082015250565b7f455243313135353a20696e73756666696369656e742062616c616e636520666f60008201527f72207472616e7366657200000000000000000000000000000000000000000000602082015250565b7f455243313135353a2073657474696e6720617070726f76616c2073746174757360008201527f20666f722073656c660000000000000000000000000000000000000000000000602082015250565b7f455243313135353a206163636f756e747320616e6420696473206c656e67746860008201527f206d69736d617463680000000000000000000000000000000000000000000000602082015250565b7f455243313135353a2069647320616e6420616d6f756e7473206c656e6774682060008201527f6d69736d61746368000000000000000000000000000000000000000000000000602082015250565b7f455243313135353a207472616e7366657220746f206e6f6e2d4552433131353560008201527f526563656976657220696d706c656d656e746572000000000000000000000000602082015250565b600060443d1015612444576124c7565b61244c611d9c565b60043d036004823e80513d602482011167ffffffffffffffff821117156124745750506124c7565b808201805167ffffffffffffffff81111561249257505050506124c7565b80602083010160043d0385018111156124af5750505050506124c7565b6124be82602001850186611fde565b82955050505050505b90565b6124d381611ef6565b81146124de57600080fd5b50565b6124ea81611f08565b81146124f557600080fd5b50565b61250181611f14565b811461250c57600080fd5b50565b61251881611f60565b811461252357600080fd5b5056fea26469706673582212209288e06c2286ef02a540680cb59411b2c4994921b961042334306f157680fa5d64736f6c63430008070033",
					"opcodes": "PUSH1 0x80 PUSH1 0x40 MSTORE CALLVALUE DUP1 ISZERO PUSH3 0x11 JUMPI PUSH1 0x0 DUP1 REVERT JUMPDEST POP PUSH1 0x40 MLOAD PUSH3 0x28DA CODESIZE SUB DUP1 PUSH3 0x28DA DUP4 CODECOPY DUP2 DUP2 ADD PUSH1 0x40 MSTORE DUP2 ADD SWAP1 PUSH3 0x37 SWAP2 SWAP1 PUSH3 0x199 JUMP JUMPDEST PUSH3 0x48 DUP2 PUSH3 0x4F PUSH1 0x20 SHL PUSH1 0x20 SHR JUMP JUMPDEST POP PUSH3 0x36E JUMP JUMPDEST DUP1 PUSH1 0x2 SWAP1 DUP1 MLOAD SWAP1 PUSH1 0x20 ADD SWAP1 PUSH3 0x67 SWAP3 SWAP2 SWAP1 PUSH3 0x6B JUMP JUMPDEST POP POP JUMP JUMPDEST DUP3 DUP1 SLOAD PUSH3 0x79 SWAP1 PUSH3 0x27F JUMP JUMPDEST SWAP1 PUSH1 0x0 MSTORE PUSH1 0x20 PUSH1 0x0 KECCAK256 SWAP1 PUSH1 0x1F ADD PUSH1 0x20 SWAP1 DIV DUP2 ADD SWAP3 DUP3 PUSH3 0x9D JUMPI PUSH1 0x0 DUP6 SSTORE PUSH3 0xE9 JUMP JUMPDEST DUP3 PUSH1 0x1F LT PUSH3 0xB8 JUMPI DUP1 MLOAD PUSH1 0xFF NOT AND DUP4 DUP1 ADD OR DUP6 SSTORE PUSH3 0xE9 JUMP JUMPDEST DUP3 DUP1 ADD PUSH1 0x1 ADD DUP6 SSTORE DUP3 ISZERO PUSH3 0xE9 JUMPI SWAP2 DUP3 ADD JUMPDEST DUP3 DUP2 GT ISZERO PUSH3 0xE8 JUMPI DUP3 MLOAD DUP3 SSTORE SWAP2 PUSH1 0x20 ADD SWAP2 SWAP1 PUSH1 0x1 ADD SWAP1 PUSH3 0xCB JUMP JUMPDEST JUMPDEST POP SWAP1 POP PUSH3 0xF8 SWAP2 SWAP1 PUSH3 0xFC JUMP JUMPDEST POP SWAP1 JUMP JUMPDEST JUMPDEST DUP1 DUP3 GT ISZERO PUSH3 0x117 JUMPI PUSH1 0x0 DUP2 PUSH1 0x0 SWAP1 SSTORE POP PUSH1 0x1 ADD PUSH3 0xFD JUMP JUMPDEST POP SWAP1 JUMP JUMPDEST PUSH1 0x0 PUSH3 0x132 PUSH3 0x12C DUP5 PUSH3 0x213 JUMP JUMPDEST PUSH3 0x1EA JUMP JUMPDEST SWAP1 POP DUP3 DUP2 MSTORE PUSH1 0x20 DUP2 ADD DUP5 DUP5 DUP5 ADD GT ISZERO PUSH3 0x151 JUMPI PUSH3 0x150 PUSH3 0x34E JUMP JUMPDEST JUMPDEST PUSH3 0x15E DUP5 DUP3 DUP6 PUSH3 0x249 JUMP JUMPDEST POP SWAP4 SWAP3 POP POP POP JUMP JUMPDEST PUSH1 0x0 DUP3 PUSH1 0x1F DUP4 ADD SLT PUSH3 0x17E JUMPI PUSH3 0x17D PUSH3 0x349 JUMP JUMPDEST JUMPDEST DUP2 MLOAD PUSH3 0x190 DUP5 DUP3 PUSH1 0x20 DUP7 ADD PUSH3 0x11B JUMP JUMPDEST SWAP2 POP POP SWAP3 SWAP2 POP POP JUMP JUMPDEST PUSH1 0x0 PUSH1 0x20 DUP3 DUP5 SUB SLT ISZERO PUSH3 0x1B2 JUMPI PUSH3 0x1B1 PUSH3 0x358 JUMP JUMPDEST JUMPDEST PUSH1 0x0 DUP3 ADD MLOAD PUSH8 0xFFFFFFFFFFFFFFFF DUP2 GT ISZERO PUSH3 0x1D3 JUMPI PUSH3 0x1D2 PUSH3 0x353 JUMP JUMPDEST JUMPDEST PUSH3 0x1E1 DUP5 DUP3 DUP6 ADD PUSH3 0x166 JUMP JUMPDEST SWAP2 POP POP SWAP3 SWAP2 POP POP JUMP JUMPDEST PUSH1 0x0 PUSH3 0x1F6 PUSH3 0x209 JUMP JUMPDEST SWAP1 POP PUSH3 0x204 DUP3 DUP3 PUSH3 0x2B5 JUMP JUMPDEST SWAP2 SWAP1 POP JUMP JUMPDEST PUSH1 0x0 PUSH1 0x40 MLOAD SWAP1 POP SWAP1 JUMP JUMPDEST PUSH1 0x0 PUSH8 0xFFFFFFFFFFFFFFFF DUP3 GT ISZERO PUSH3 0x231 JUMPI PUSH3 0x230 PUSH3 0x31A JUMP JUMPDEST JUMPDEST PUSH3 0x23C DUP3 PUSH3 0x35D JUMP JUMPDEST SWAP1 POP PUSH1 0x20 DUP2 ADD SWAP1 POP SWAP2 SWAP1 POP JUMP JUMPDEST PUSH1 0x0 JUMPDEST DUP4 DUP2 LT ISZERO PUSH3 0x269 JUMPI DUP1 DUP3 ADD MLOAD DUP2 DUP5 ADD MSTORE PUSH1 0x20 DUP2 ADD SWAP1 POP PUSH3 0x24C JUMP JUMPDEST DUP4 DUP2 GT ISZERO PUSH3 0x279 JUMPI PUSH1 0x0 DUP5 DUP5 ADD MSTORE JUMPDEST POP POP POP POP JUMP JUMPDEST PUSH1 0x0 PUSH1 0x2 DUP3 DIV SWAP1 POP PUSH1 0x1 DUP3 AND DUP1 PUSH3 0x298 JUMPI PUSH1 0x7F DUP3 AND SWAP2 POP JUMPDEST PUSH1 0x20 DUP3 LT DUP2 EQ ISZERO PUSH3 0x2AF JUMPI PUSH3 0x2AE PUSH3 0x2EB JUMP JUMPDEST JUMPDEST POP SWAP2 SWAP1 POP JUMP JUMPDEST PUSH3 0x2C0 DUP3 PUSH3 0x35D JUMP JUMPDEST DUP2 ADD DUP2 DUP2 LT PUSH8 0xFFFFFFFFFFFFFFFF DUP3 GT OR ISZERO PUSH3 0x2E2 JUMPI PUSH3 0x2E1 PUSH3 0x31A JUMP JUMPDEST JUMPDEST DUP1 PUSH1 0x40 MSTORE POP POP POP JUMP JUMPDEST PUSH32 0x4E487B7100000000000000000000000000000000000000000000000000000000 PUSH1 0x0 MSTORE PUSH1 0x22 PUSH1 0x4 MSTORE PUSH1 0x24 PUSH1 0x0 REVERT JUMPDEST PUSH32 0x4E487B7100000000000000000000000000000000000000000000000000000000 PUSH1 0x0 MSTORE PUSH1 0x41 PUSH1 0x4 MSTORE PUSH1 0x24 PUSH1 0x0 REVERT JUMPDEST PUSH1 0x0 DUP1 REVERT JUMPDEST PUSH1 0x0 DUP1 REVERT JUMPDEST PUSH1 0x0 DUP1 REVERT JUMPDEST PUSH1 0x0 DUP1 REVERT JUMPDEST PUSH1 0x0 PUSH1 0x1F NOT PUSH1 0x1F DUP4 ADD AND SWAP1 POP SWAP2 SWAP1 POP JUMP JUMPDEST PUSH2 0x255C DUP1 PUSH3 0x37E PUSH1 0x0 CODECOPY PUSH1 0x0 RETURN INVALID PUSH1 0x80 PUSH1 0x40 MSTORE CALLVALUE DUP1 ISZERO PUSH2 0x10 JUMPI PUSH1 0x0 DUP1 REVERT JUMPDEST POP PUSH1 0x4 CALLDATASIZE LT PUSH2 0x87 JUMPI PUSH1 0x0 CALLDATALOAD PUSH1 0xE0 SHR DUP1 PUSH4 0x4E1273F4 GT PUSH2 0x5B JUMPI DUP1 PUSH4 0x4E1273F4 EQ PUSH2 0x138 JUMPI DUP1 PUSH4 0xA22CB465 EQ PUSH2 0x168 JUMPI DUP1 PUSH4 0xE985E9C5 EQ PUSH2 0x184 JUMPI DUP1 PUSH4 0xF242432A EQ PUSH2 0x1B4 JUMPI PUSH2 0x87 JUMP JUMPDEST DUP1 PUSH3 0xFDD58E EQ PUSH2 0x8C JUMPI DUP1 PUSH4 0x1FFC9A7 EQ PUSH2 0xBC JUMPI DUP1 PUSH4 0xE89341C EQ PUSH2 0xEC JUMPI DUP1 PUSH4 0x2EB2C2D6 EQ PUSH2 0x11C JUMPI JUMPDEST PUSH1 0x0 DUP1 REVERT JUMPDEST PUSH2 0xA6 PUSH1 0x4 DUP1 CALLDATASIZE SUB DUP2 ADD SWAP1 PUSH2 0xA1 SWAP2 SWAP1 PUSH2 0x1727 JUMP JUMPDEST PUSH2 0x1D0 JUMP JUMPDEST PUSH1 0x40 MLOAD PUSH2 0xB3 SWAP2 SWAP1 PUSH2 0x1D3D JUMP JUMPDEST PUSH1 0x40 MLOAD DUP1 SWAP2 SUB SWAP1 RETURN JUMPDEST PUSH2 0xD6 PUSH1 0x4 DUP1 CALLDATASIZE SUB DUP2 ADD SWAP1 PUSH2 0xD1 SWAP2 SWAP1 PUSH2 0x17DF JUMP JUMPDEST PUSH2 0x299 JUMP JUMPDEST PUSH1 0x40 MLOAD PUSH2 0xE3 SWAP2 SWAP1 PUSH2 0x1BE0 JUMP JUMPDEST PUSH1 0x40 MLOAD DUP1 SWAP2 SUB SWAP1 RETURN JUMPDEST PUSH2 0x106 PUSH1 0x4 DUP1 CALLDATASIZE SUB DUP2 ADD SWAP1 PUSH2 0x101 SWAP2 SWAP1 PUSH2 0x1839 JUMP JUMPDEST PUSH2 0x37B JUMP JUMPDEST PUSH1 0x40 MLOAD PUSH2 0x113 SWAP2 SWAP1 PUSH2 0x1BFB JUMP JUMPDEST PUSH1 0x40 MLOAD DUP1 SWAP2 SUB SWAP1 RETURN JUMPDEST PUSH2 0x136 PUSH1 0x4 DUP1 CALLDATASIZE SUB DUP2 ADD SWAP1 PUSH2 0x131 SWAP2 SWAP1 PUSH2 0x1581 JUMP JUMPDEST PUSH2 0x40F JUMP JUMPDEST STOP JUMPDEST PUSH2 0x152 PUSH1 0x4 DUP1 CALLDATASIZE SUB DUP2 ADD SWAP1 PUSH2 0x14D SWAP2 SWAP1 PUSH2 0x1767 JUMP JUMPDEST PUSH2 0x4B0 JUMP JUMPDEST PUSH1 0x40 MLOAD PUSH2 0x15F SWAP2 SWAP1 PUSH2 0x1B87 JUMP JUMPDEST PUSH1 0x40 MLOAD DUP1 SWAP2 SUB SWAP1 RETURN JUMPDEST PUSH2 0x182 PUSH1 0x4 DUP1 CALLDATASIZE SUB DUP2 ADD SWAP1 PUSH2 0x17D SWAP2 SWAP1 PUSH2 0x16E7 JUMP JUMPDEST PUSH2 0x5C9 JUMP JUMPDEST STOP JUMPDEST PUSH2 0x19E PUSH1 0x4 DUP1 CALLDATASIZE SUB DUP2 ADD SWAP1 PUSH2 0x199 SWAP2 SWAP1 PUSH2 0x1541 JUMP JUMPDEST PUSH2 0x5DF JUMP JUMPDEST PUSH1 0x40 MLOAD PUSH2 0x1AB SWAP2 SWAP1 PUSH2 0x1BE0 JUMP JUMPDEST PUSH1 0x40 MLOAD DUP1 SWAP2 SUB SWAP1 RETURN JUMPDEST PUSH2 0x1CE PUSH1 0x4 DUP1 CALLDATASIZE SUB DUP2 ADD SWAP1 PUSH2 0x1C9 SWAP2 SWAP1 PUSH2 0x1650 JUMP JUMPDEST PUSH2 0x673 JUMP JUMPDEST STOP JUMPDEST PUSH1 0x0 DUP1 PUSH20 0xFFFFFFFFFFFFFFFFFFFFFFFFFFFFFFFFFFFFFFFF AND DUP4 PUSH20 0xFFFFFFFFFFFFFFFFFFFFFFFFFFFFFFFFFFFFFFFF AND EQ ISZERO PUSH2 0x241 JUMPI PUSH1 0x40 MLOAD PUSH32 0x8C379A000000000000000000000000000000000000000000000000000000000 DUP2 MSTORE PUSH1 0x4 ADD PUSH2 0x238 SWAP1 PUSH2 0x1C3D JUMP JUMPDEST PUSH1 0x40 MLOAD DUP1 SWAP2 SUB SWAP1 REVERT JUMPDEST PUSH1 0x0 DUP1 DUP4 DUP2 MSTORE PUSH1 0x20 ADD SWAP1 DUP2 MSTORE PUSH1 0x20 ADD PUSH1 0x0 KECCAK256 PUSH1 0x0 DUP5 PUSH20 0xFFFFFFFFFFFFFFFFFFFFFFFFFFFFFFFFFFFFFFFF AND PUSH20 0xFFFFFFFFFFFFFFFFFFFFFFFFFFFFFFFFFFFFFFFF AND DUP2 MSTORE PUSH1 0x20 ADD SWAP1 DUP2 MSTORE PUSH1 0x20 ADD PUSH1 0x0 KECCAK256 SLOAD SWAP1 POP SWAP3 SWAP2 POP POP JUMP JUMPDEST PUSH1 0x0 PUSH32 0xD9B67A2600000000000000000000000000000000000000000000000000000000 PUSH28 0xFFFFFFFFFFFFFFFFFFFFFFFFFFFFFFFFFFFFFFFFFFFFFFFFFFFFFFFF NOT AND DUP3 PUSH28 0xFFFFFFFFFFFFFFFFFFFFFFFFFFFFFFFFFFFFFFFFFFFFFFFFFFFFFFFF NOT AND EQ DUP1 PUSH2 0x364 JUMPI POP PUSH32 0xE89341C00000000000000000000000000000000000000000000000000000000 PUSH28 0xFFFFFFFFFFFFFFFFFFFFFFFFFFFFFFFFFFFFFFFFFFFFFFFFFFFFFFFF NOT AND DUP3 PUSH28 0xFFFFFFFFFFFFFFFFFFFFFFFFFFFFFFFFFFFFFFFFFFFFFFFFFFFFFFFF NOT AND EQ JUMPDEST DUP1 PUSH2 0x374 JUMPI POP PUSH2 0x373 DUP3 PUSH2 0x714 JUMP JUMPDEST JUMPDEST SWAP1 POP SWAP2 SWAP1 POP JUMP JUMPDEST PUSH1 0x60 PUSH1 0x2 DUP1 SLOAD PUSH2 0x38A SWAP1 PUSH2 0x1FAC JUMP JUMPDEST DUP1 PUSH1 0x1F ADD PUSH1 0x20 DUP1 SWAP2 DIV MUL PUSH1 0x20 ADD PUSH1 0x40 MLOAD SWAP1 DUP2 ADD PUSH1 0x40 MSTORE DUP1 SWAP3 SWAP2 SWAP1 DUP2 DUP2 MSTORE PUSH1 0x20 ADD DUP3 DUP1 SLOAD PUSH2 0x3B6 SWAP1 PUSH2 0x1FAC JUMP JUMPDEST DUP1 ISZERO PUSH2 0x403 JUMPI DUP1 PUSH1 0x1F LT PUSH2 0x3D8 JUMPI PUSH2 0x100 DUP1 DUP4 SLOAD DIV MUL DUP4 MSTORE SWAP2 PUSH1 0x20 ADD SWAP2 PUSH2 0x403 JUMP JUMPDEST DUP3 ADD SWAP2 SWAP1 PUSH1 0x0 MSTORE PUSH1 0x20 PUSH1 0x0 KECCAK256 SWAP1 JUMPDEST DUP2 SLOAD DUP2 MSTORE SWAP1 PUSH1 0x1 ADD SWAP1 PUSH1 0x20 ADD DUP1 DUP4 GT PUSH2 0x3E6 JUMPI DUP3 SWAP1 SUB PUSH1 0x1F AND DUP3 ADD SWAP2 JUMPDEST POP POP POP POP POP SWAP1 POP SWAP2 SWAP1 POP JUMP JUMPDEST PUSH2 0x417 PUSH2 0x77E JUMP JUMPDEST PUSH20 0xFFFFFFFFFFFFFFFFFFFFFFFFFFFFFFFFFFFFFFFF AND DUP6 PUSH20 0xFFFFFFFFFFFFFFFFFFFFFFFFFFFFFFFFFFFFFFFF AND EQ DUP1 PUSH2 0x45D JUMPI POP PUSH2 0x45C DUP6 PUSH2 0x457 PUSH2 0x77E JUMP JUMPDEST PUSH2 0x5DF JUMP JUMPDEST JUMPDEST PUSH2 0x49C JUMPI PUSH1 0x40 MLOAD PUSH32 0x8C379A000000000000000000000000000000000000000000000000000000000 DUP2 MSTORE PUSH1 0x4 ADD PUSH2 0x493 SWAP1 PUSH2 0x1C5D JUMP JUMPDEST PUSH1 0x40 MLOAD DUP1 SWAP2 SUB SWAP1 REVERT JUMPDEST PUSH2 0x4A9 DUP6 DUP6 DUP6 DUP6 DUP6 PUSH2 0x786 JUMP JUMPDEST POP POP POP POP POP JUMP JUMPDEST PUSH1 0x60 DUP2 MLOAD DUP4 MLOAD EQ PUSH2 0x4F6 JUMPI PUSH1 0x40 MLOAD PUSH32 0x8C379A000000000000000000000000000000000000000000000000000000000 DUP2 MSTORE PUSH1 0x4 ADD PUSH2 0x4ED SWAP1 PUSH2 0x1CDD JUMP JUMPDEST PUSH1 0x40 MLOAD DUP1 SWAP2 SUB SWAP1 REVERT JUMPDEST PUSH1 0x0 DUP4 MLOAD PUSH8 0xFFFFFFFFFFFFFFFF DUP2 GT ISZERO PUSH2 0x513 JUMPI PUSH2 0x512 PUSH2 0x20E5 JUMP JUMPDEST JUMPDEST PUSH1 0x40 MLOAD SWAP1 DUP1 DUP3 MSTORE DUP1 PUSH1 0x20 MUL PUSH1 0x20 ADD DUP3 ADD PUSH1 0x40 MSTORE DUP1 ISZERO PUSH2 0x541 JUMPI DUP2 PUSH1 0x20 ADD PUSH1 0x20 DUP3 MUL DUP1 CALLDATASIZE DUP4 CALLDATACOPY DUP1 DUP3 ADD SWAP2 POP POP SWAP1 POP JUMPDEST POP SWAP1 POP PUSH1 0x0 JUMPDEST DUP5 MLOAD DUP2 LT ISZERO PUSH2 0x5BE JUMPI PUSH2 0x58E DUP6 DUP3 DUP2 MLOAD DUP2 LT PUSH2 0x566 JUMPI PUSH2 0x565 PUSH2 0x20B6 JUMP JUMPDEST JUMPDEST PUSH1 0x20 MUL PUSH1 0x20 ADD ADD MLOAD DUP6 DUP4 DUP2 MLOAD DUP2 LT PUSH2 0x581 JUMPI PUSH2 0x580 PUSH2 0x20B6 JUMP JUMPDEST JUMPDEST PUSH1 0x20 MUL PUSH1 0x20 ADD ADD MLOAD PUSH2 0x1D0 JUMP JUMPDEST DUP3 DUP3 DUP2 MLOAD DUP2 LT PUSH2 0x5A1 JUMPI PUSH2 0x5A0 PUSH2 0x20B6 JUMP JUMPDEST JUMPDEST PUSH1 0x20 MUL PUSH1 0x20 ADD ADD DUP2 DUP2 MSTORE POP POP DUP1 PUSH2 0x5B7 SWAP1 PUSH2 0x200F JUMP JUMPDEST SWAP1 POP PUSH2 0x547 JUMP JUMPDEST POP DUP1 SWAP2 POP POP SWAP3 SWAP2 POP POP JUMP JUMPDEST PUSH2 0x5DB PUSH2 0x5D4 PUSH2 0x77E JUMP JUMPDEST DUP4 DUP4 PUSH2 0xAA8 JUMP JUMPDEST POP POP JUMP JUMPDEST PUSH1 0x0 PUSH1 0x1 PUSH1 0x0 DUP5 PUSH20 0xFFFFFFFFFFFFFFFFFFFFFFFFFFFFFFFFFFFFFFFF AND PUSH20 0xFFFFFFFFFFFFFFFFFFFFFFFFFFFFFFFFFFFFFFFF AND DUP2 MSTORE PUSH1 0x20 ADD SWAP1 DUP2 MSTORE PUSH1 0x20 ADD PUSH1 0x0 KECCAK256 PUSH1 0x0 DUP4 PUSH20 0xFFFFFFFFFFFFFFFFFFFFFFFFFFFFFFFFFFFFFFFF AND PUSH20 0xFFFFFFFFFFFFFFFFFFFFFFFFFFFFFFFFFFFFFFFF AND DUP2 MSTORE PUSH1 0x20 ADD SWAP1 DUP2 MSTORE PUSH1 0x20 ADD PUSH1 0x0 KECCAK256 PUSH1 0x0 SWAP1 SLOAD SWAP1 PUSH2 0x100 EXP SWAP1 DIV PUSH1 0xFF AND SWAP1 POP SWAP3 SWAP2 POP POP JUMP JUMPDEST PUSH2 0x67B PUSH2 0x77E JUMP JUMPDEST PUSH20 0xFFFFFFFFFFFFFFFFFFFFFFFFFFFFFFFFFFFFFFFF AND DUP6 PUSH20 0xFFFFFFFFFFFFFFFFFFFFFFFFFFFFFFFFFFFFFFFF AND EQ DUP1 PUSH2 0x6C1 JUMPI POP PUSH2 0x6C0 DUP6 PUSH2 0x6BB PUSH2 0x77E JUMP JUMPDEST PUSH2 0x5DF JUMP JUMPDEST JUMPDEST PUSH2 0x700 JUMPI PUSH1 0x40 MLOAD PUSH32 0x8C379A000000000000000000000000000000000000000000000000000000000 DUP2 MSTORE PUSH1 0x4 ADD PUSH2 0x6F7 SWAP1 PUSH2 0x1C5D JUMP JUMPDEST PUSH1 0x40 MLOAD DUP1 SWAP2 SUB SWAP1 REVERT JUMPDEST PUSH2 0x70D DUP6 DUP6 DUP6 DUP6 DUP6 PUSH2 0xC15 JUMP JUMPDEST POP POP POP POP POP JUMP JUMPDEST PUSH1 0x0 PUSH32 0x1FFC9A700000000000000000000000000000000000000000000000000000000 PUSH28 0xFFFFFFFFFFFFFFFFFFFFFFFFFFFFFFFFFFFFFFFFFFFFFFFFFFFFFFFF NOT AND DUP3 PUSH28 0xFFFFFFFFFFFFFFFFFFFFFFFFFFFFFFFFFFFFFFFFFFFFFFFFFFFFFFFF NOT AND EQ SWAP1 POP SWAP2 SWAP1 POP JUMP JUMPDEST PUSH1 0x0 CALLER SWAP1 POP SWAP1 JUMP JUMPDEST DUP2 MLOAD DUP4 MLOAD EQ PUSH2 0x7CA JUMPI PUSH1 0x40 MLOAD PUSH32 0x8C379A000000000000000000000000000000000000000000000000000000000 DUP2 MSTORE PUSH1 0x4 ADD PUSH2 0x7C1 SWAP1 PUSH2 0x1CFD JUMP JUMPDEST PUSH1 0x40 MLOAD DUP1 SWAP2 SUB SWAP1 REVERT JUMPDEST PUSH1 0x0 PUSH20 0xFFFFFFFFFFFFFFFFFFFFFFFFFFFFFFFFFFFFFFFF AND DUP5 PUSH20 0xFFFFFFFFFFFFFFFFFFFFFFFFFFFFFFFFFFFFFFFF AND EQ ISZERO PUSH2 0x83A JUMPI PUSH1 0x40 MLOAD PUSH32 0x8C379A000000000000000000000000000000000000000000000000000000000 DUP2 MSTORE PUSH1 0x4 ADD PUSH2 0x831 SWAP1 PUSH2 0x1C7D JUMP JUMPDEST PUSH1 0x40 MLOAD DUP1 SWAP2 SUB SWAP1 REVERT JUMPDEST PUSH1 0x0 PUSH2 0x844 PUSH2 0x77E JUMP JUMPDEST SWAP1 POP PUSH2 0x854 DUP2 DUP8 DUP8 DUP8 DUP8 DUP8 PUSH2 0xEB1 JUMP JUMPDEST PUSH1 0x0 JUMPDEST DUP5 MLOAD DUP2 LT ISZERO PUSH2 0xA05 JUMPI PUSH1 0x0 DUP6 DUP3 DUP2 MLOAD DUP2 LT PUSH2 0x875 JUMPI PUSH2 0x874 PUSH2 0x20B6 JUMP JUMPDEST JUMPDEST PUSH1 0x20 MUL PUSH1 0x20 ADD ADD MLOAD SWAP1 POP PUSH1 0x0 DUP6 DUP4 DUP2 MLOAD DUP2 LT PUSH2 0x894 JUMPI PUSH2 0x893 PUSH2 0x20B6 JUMP JUMPDEST JUMPDEST PUSH1 0x20 MUL PUSH1 0x20 ADD ADD MLOAD SWAP1 POP PUSH1 0x0 DUP1 PUSH1 0x0 DUP5 DUP2 MSTORE PUSH1 0x20 ADD SWAP1 DUP2 MSTORE PUSH1 0x20 ADD PUSH1 0x0 KECCAK256 PUSH1 0x0 DUP12 PUSH20 0xFFFFFFFFFFFFFFFFFFFFFFFFFFFFFFFFFFFFFFFF AND PUSH20 0xFFFFFFFFFFFFFFFFFFFFFFFFFFFFFFFFFFFFFFFF AND DUP2 MSTORE PUSH1 0x20 ADD SWAP1 DUP2 MSTORE PUSH1 0x20 ADD PUSH1 0x0 KECCAK256 SLOAD SWAP1 POP DUP2 DUP2 LT ISZERO PUSH2 0x935 JUMPI PUSH1 0x40 MLOAD PUSH32 0x8C379A000000000000000000000000000000000000000000000000000000000 DUP2 MSTORE PUSH1 0x4 ADD PUSH2 0x92C SWAP1 PUSH2 0x1C9D JUMP JUMPDEST PUSH1 0x40 MLOAD DUP1 SWAP2 SUB SWAP1 REVERT JUMPDEST DUP2 DUP2 SUB PUSH1 0x0 DUP1 DUP6 DUP2 MSTORE PUSH1 0x20 ADD SWAP1 DUP2 MSTORE PUSH1 0x20 ADD PUSH1 0x0 KECCAK256 PUSH1 0x0 DUP13 PUSH20 0xFFFFFFFFFFFFFFFFFFFFFFFFFFFFFFFFFFFFFFFF AND PUSH20 0xFFFFFFFFFFFFFFFFFFFFFFFFFFFFFFFFFFFFFFFF AND DUP2 MSTORE PUSH1 0x20 ADD SWAP1 DUP2 MSTORE PUSH1 0x20 ADD PUSH1 0x0 KECCAK256 DUP2 SWAP1 SSTORE POP DUP2 PUSH1 0x0 DUP1 DUP6 DUP2 MSTORE PUSH1 0x20 ADD SWAP1 DUP2 MSTORE PUSH1 0x20 ADD PUSH1 0x0 KECCAK256 PUSH1 0x0 DUP12 PUSH20 0xFFFFFFFFFFFFFFFFFFFFFFFFFFFFFFFFFFFFFFFF AND PUSH20 0xFFFFFFFFFFFFFFFFFFFFFFFFFFFFFFFFFFFFFFFF AND DUP2 MSTORE PUSH1 0x20 ADD SWAP1 DUP2 MSTORE PUSH1 0x20 ADD PUSH1 0x0 KECCAK256 PUSH1 0x0 DUP3 DUP3 SLOAD PUSH2 0x9EA SWAP2 SWAP1 PUSH2 0x1EA0 JUMP JUMPDEST SWAP3 POP POP DUP2 SWAP1 SSTORE POP POP POP POP DUP1 PUSH2 0x9FE SWAP1 PUSH2 0x200F JUMP JUMPDEST SWAP1 POP PUSH2 0x857 JUMP JUMPDEST POP DUP5 PUSH20 0xFFFFFFFFFFFFFFFFFFFFFFFFFFFFFFFFFFFFFFFF AND DUP7 PUSH20 0xFFFFFFFFFFFFFFFFFFFFFFFFFFFFFFFFFFFFFFFF AND DUP3 PUSH20 0xFFFFFFFFFFFFFFFFFFFFFFFFFFFFFFFFFFFFFFFF AND PUSH32 0x4A39DC06D4C0DBC64B70AF90FD698A233A518AA5D07E595D983B8C0526C8F7FB DUP8 DUP8 PUSH1 0x40 MLOAD PUSH2 0xA7C SWAP3 SWAP2 SWAP1 PUSH2 0x1BA9 JUMP JUMPDEST PUSH1 0x40 MLOAD DUP1 SWAP2 SUB SWAP1 LOG4 PUSH2 0xA92 DUP2 DUP8 DUP8 DUP8 DUP8 DUP8 PUSH2 0xEB9 JUMP JUMPDEST PUSH2 0xAA0 DUP2 DUP8 DUP8 DUP8 DUP8 DUP8 PUSH2 0xEC1 JUMP JUMPDEST POP POP POP POP POP POP JUMP JUMPDEST DUP2 PUSH20 0xFFFFFFFFFFFFFFFFFFFFFFFFFFFFFFFFFFFFFFFF AND DUP4 PUSH20 0xFFFFFFFFFFFFFFFFFFFFFFFFFFFFFFFFFFFFFFFF AND EQ ISZERO PUSH2 0xB17 JUMPI PUSH1 0x40 MLOAD PUSH32 0x8C379A000000000000000000000000000000000000000000000000000000000 DUP2 MSTORE PUSH1 0x4 ADD PUSH2 0xB0E SWAP1 PUSH2 0x1CBD JUMP JUMPDEST PUSH1 0x40 MLOAD DUP1 SWAP2 SUB SWAP1 REVERT JUMPDEST DUP1 PUSH1 0x1 PUSH1 0x0 DUP6 PUSH20 0xFFFFFFFFFFFFFFFFFFFFFFFFFFFFFFFFFFFFFFFF AND PUSH20 0xFFFFFFFFFFFFFFFFFFFFFFFFFFFFFFFFFFFFFFFF AND DUP2 MSTORE PUSH1 0x20 ADD SWAP1 DUP2 MSTORE PUSH1 0x20 ADD PUSH1 0x0 KECCAK256 PUSH1 0x0 DUP5 PUSH20 0xFFFFFFFFFFFFFFFFFFFFFFFFFFFFFFFFFFFFFFFF AND PUSH20 0xFFFFFFFFFFFFFFFFFFFFFFFFFFFFFFFFFFFFFFFF AND DUP2 MSTORE PUSH1 0x20 ADD SWAP1 DUP2 MSTORE PUSH1 0x20 ADD PUSH1 0x0 KECCAK256 PUSH1 0x0 PUSH2 0x100 EXP DUP2 SLOAD DUP2 PUSH1 0xFF MUL NOT AND SWAP1 DUP4 ISZERO ISZERO MUL OR SWAP1 SSTORE POP DUP2 PUSH20 0xFFFFFFFFFFFFFFFFFFFFFFFFFFFFFFFFFFFFFFFF AND DUP4 PUSH20 0xFFFFFFFFFFFFFFFFFFFFFFFFFFFFFFFFFFFFFFFF AND PUSH32 0x17307EAB39AB6107E8899845AD3D59BD9653F200F220920489CA2B5937696C31 DUP4 PUSH1 0x40 MLOAD PUSH2 0xC08 SWAP2 SWAP1 PUSH2 0x1BE0 JUMP JUMPDEST PUSH1 0x40 MLOAD DUP1 SWAP2 SUB SWAP1 LOG3 POP POP POP JUMP JUMPDEST PUSH1 0x0 PUSH20 0xFFFFFFFFFFFFFFFFFFFFFFFFFFFFFFFFFFFFFFFF AND DUP5 PUSH20 0xFFFFFFFFFFFFFFFFFFFFFFFFFFFFFFFFFFFFFFFF AND EQ ISZERO PUSH2 0xC85 JUMPI PUSH1 0x40 MLOAD PUSH32 0x8C379A000000000000000000000000000000000000000000000000000000000 DUP2 MSTORE PUSH1 0x4 ADD PUSH2 0xC7C SWAP1 PUSH2 0x1C7D JUMP JUMPDEST PUSH1 0x40 MLOAD DUP1 SWAP2 SUB SWAP1 REVERT JUMPDEST PUSH1 0x0 PUSH2 0xC8F PUSH2 0x77E JUMP JUMPDEST SWAP1 POP PUSH1 0x0 PUSH2 0xC9C DUP6 PUSH2 0x10A8 JUMP JUMPDEST SWAP1 POP PUSH1 0x0 PUSH2 0xCA9 DUP6 PUSH2 0x10A8 JUMP JUMPDEST SWAP1 POP PUSH2 0xCB9 DUP4 DUP10 DUP10 DUP6 DUP6 DUP10 PUSH2 0xEB1 JUMP JUMPDEST PUSH1 0x0 DUP1 PUSH1 0x0 DUP9 DUP2 MSTORE PUSH1 0x20 ADD SWAP1 DUP2 MSTORE PUSH1 0x20 ADD PUSH1 0x0 KECCAK256 PUSH1 0x0 DUP11 PUSH20 0xFFFFFFFFFFFFFFFFFFFFFFFFFFFFFFFFFFFFFFFF AND PUSH20 0xFFFFFFFFFFFFFFFFFFFFFFFFFFFFFFFFFFFFFFFF AND DUP2 MSTORE PUSH1 0x20 ADD SWAP1 DUP2 MSTORE PUSH1 0x20 ADD PUSH1 0x0 KECCAK256 SLOAD SWAP1 POP DUP6 DUP2 LT ISZERO PUSH2 0xD50 JUMPI PUSH1 0x40 MLOAD PUSH32 0x8C379A000000000000000000000000000000000000000000000000000000000 DUP2 MSTORE PUSH1 0x4 ADD PUSH2 0xD47 SWAP1 PUSH2 0x1C9D JUMP JUMPDEST PUSH1 0x40 MLOAD DUP1 SWAP2 SUB SWAP1 REVERT JUMPDEST DUP6 DUP2 SUB PUSH1 0x0 DUP1 DUP10 DUP2 MSTORE PUSH1 0x20 ADD SWAP1 DUP2 MSTORE PUSH1 0x20 ADD PUSH1 0x0 KECCAK256 PUSH1 0x0 DUP12 PUSH20 0xFFFFFFFFFFFFFFFFFFFFFFFFFFFFFFFFFFFFFFFF AND PUSH20 0xFFFFFFFFFFFFFFFFFFFFFFFFFFFFFFFFFFFFFFFF AND DUP2 MSTORE PUSH1 0x20 ADD SWAP1 DUP2 MSTORE PUSH1 0x20 ADD PUSH1 0x0 KECCAK256 DUP2 SWAP1 SSTORE POP DUP6 PUSH1 0x0 DUP1 DUP10 DUP2 MSTORE PUSH1 0x20 ADD SWAP1 DUP2 MSTORE PUSH1 0x20 ADD PUSH1 0x0 KECCAK256 PUSH1 0x0 DUP11 PUSH20 0xFFFFFFFFFFFFFFFFFFFFFFFFFFFFFFFFFFFFFFFF AND PUSH20 0xFFFFFFFFFFFFFFFFFFFFFFFFFFFFFFFFFFFFFFFF AND DUP2 MSTORE PUSH1 0x20 ADD SWAP1 DUP2 MSTORE PUSH1 0x20 ADD PUSH1 0x0 KECCAK256 PUSH1 0x0 DUP3 DUP3 SLOAD PUSH2 0xE05 SWAP2 SWAP1 PUSH2 0x1EA0 JUMP JUMPDEST SWAP3 POP POP DUP2 SWAP1 SSTORE POP DUP8 PUSH20 0xFFFFFFFFFFFFFFFFFFFFFFFFFFFFFFFFFFFFFFFF AND DUP10 PUSH20 0xFFFFFFFFFFFFFFFFFFFFFFFFFFFFFFFFFFFFFFFF AND DUP6 PUSH20 0xFFFFFFFFFFFFFFFFFFFFFFFFFFFFFFFFFFFFFFFF AND PUSH32 0xC3D58168C5AE7397731D063D5BBF3D657854427343F4C083240F7AACAA2D0F62 DUP11 DUP11 PUSH1 0x40 MLOAD PUSH2 0xE82 SWAP3 SWAP2 SWAP1 PUSH2 0x1D58 JUMP JUMPDEST PUSH1 0x40 MLOAD DUP1 SWAP2 SUB SWAP1 LOG4 PUSH2 0xE98 DUP5 DUP11 DUP11 DUP7 DUP7 DUP11 PUSH2 0xEB9 JUMP JUMPDEST PUSH2 0xEA6 DUP5 DUP11 DUP11 DUP11 DUP11 DUP11 PUSH2 0x1122 JUMP JUMPDEST POP POP POP POP POP POP POP POP POP JUMP JUMPDEST POP POP POP POP POP POP JUMP JUMPDEST POP POP POP POP POP POP JUMP JUMPDEST PUSH2 0xEE0 DUP5 PUSH20 0xFFFFFFFFFFFFFFFFFFFFFFFFFFFFFFFFFFFFFFFF AND PUSH2 0x1309 JUMP JUMPDEST ISZERO PUSH2 0x10A0 JUMPI DUP4 PUSH20 0xFFFFFFFFFFFFFFFFFFFFFFFFFFFFFFFFFFFFFFFF AND PUSH4 0xBC197C81 DUP8 DUP8 DUP7 DUP7 DUP7 PUSH1 0x40 MLOAD DUP7 PUSH4 0xFFFFFFFF AND PUSH1 0xE0 SHL DUP2 MSTORE PUSH1 0x4 ADD PUSH2 0xF26 SWAP6 SWAP5 SWAP4 SWAP3 SWAP2 SWAP1 PUSH2 0x1AC5 JUMP JUMPDEST PUSH1 0x20 PUSH1 0x40 MLOAD DUP1 DUP4 SUB DUP2 PUSH1 0x0 DUP8 DUP1 EXTCODESIZE ISZERO DUP1 ISZERO PUSH2 0xF40 JUMPI PUSH1 0x0 DUP1 REVERT JUMPDEST POP GAS CALL SWAP3 POP POP POP DUP1 ISZERO PUSH2 0xF71 JUMPI POP PUSH1 0x40 MLOAD RETURNDATASIZE PUSH1 0x1F NOT PUSH1 0x1F DUP3 ADD AND DUP3 ADD DUP1 PUSH1 0x40 MSTORE POP DUP2 ADD SWAP1 PUSH2 0xF6E SWAP2 SWAP1 PUSH2 0x180C JUMP JUMPDEST PUSH1 0x1 JUMPDEST PUSH2 0x1017 JUMPI PUSH2 0xF7D PUSH2 0x2114 JUMP JUMPDEST DUP1 PUSH4 0x8C379A0 EQ ISZERO PUSH2 0xFDA JUMPI POP PUSH2 0xF92 PUSH2 0x2434 JUMP JUMPDEST DUP1 PUSH2 0xF9D JUMPI POP PUSH2 0xFDC JUMP JUMPDEST DUP1 PUSH1 0x40 MLOAD PUSH32 0x8C379A000000000000000000000000000000000000000000000000000000000 DUP2 MSTORE PUSH1 0x4 ADD PUSH2 0xFD1 SWAP2 SWAP1 PUSH2 0x1BFB JUMP JUMPDEST PUSH1 0x40 MLOAD DUP1 SWAP2 SUB SWAP1 REVERT JUMPDEST POP JUMPDEST PUSH1 0x40 MLOAD PUSH32 0x8C379A000000000000000000000000000000000000000000000000000000000 DUP2 MSTORE PUSH1 0x4 ADD PUSH2 0x100E SWAP1 PUSH2 0x1D1D JUMP JUMPDEST PUSH1 0x40 MLOAD DUP1 SWAP2 SUB SWAP1 REVERT JUMPDEST PUSH4 0xBC197C81 PUSH1 0xE0 SHL PUSH28 0xFFFFFFFFFFFFFFFFFFFFFFFFFFFFFFFFFFFFFFFFFFFFFFFFFFFFFFFF NOT AND DUP2 PUSH28 0xFFFFFFFFFFFFFFFFFFFFFFFFFFFFFFFFFFFFFFFFFFFFFFFFFFFFFFFF NOT AND EQ PUSH2 0x109E JUMPI PUSH1 0x40 MLOAD PUSH32 0x8C379A000000000000000000000000000000000000000000000000000000000 DUP2 MSTORE PUSH1 0x4 ADD PUSH2 0x1095 SWAP1 PUSH2 0x1C1D JUMP JUMPDEST PUSH1 0x40 MLOAD DUP1 SWAP2 SUB SWAP1 REVERT JUMPDEST POP JUMPDEST POP POP POP POP POP POP JUMP JUMPDEST PUSH1 0x60 PUSH1 0x0 PUSH1 0x1 PUSH8 0xFFFFFFFFFFFFFFFF DUP2 GT ISZERO PUSH2 0x10C7 JUMPI PUSH2 0x10C6 PUSH2 0x20E5 JUMP JUMPDEST JUMPDEST PUSH1 0x40 MLOAD SWAP1 DUP1 DUP3 MSTORE DUP1 PUSH1 0x20 MUL PUSH1 0x20 ADD DUP3 ADD PUSH1 0x40 MSTORE DUP1 ISZERO PUSH2 0x10F5 JUMPI DUP2 PUSH1 0x20 ADD PUSH1 0x20 DUP3 MUL DUP1 CALLDATASIZE DUP4 CALLDATACOPY DUP1 DUP3 ADD SWAP2 POP POP SWAP1 POP JUMPDEST POP SWAP1 POP DUP3 DUP2 PUSH1 0x0 DUP2 MLOAD DUP2 LT PUSH2 0x110D JUMPI PUSH2 0x110C PUSH2 0x20B6 JUMP JUMPDEST JUMPDEST PUSH1 0x20 MUL PUSH1 0x20 ADD ADD DUP2 DUP2 MSTORE POP POP DUP1 SWAP2 POP POP SWAP2 SWAP1 POP JUMP JUMPDEST PUSH2 0x1141 DUP5 PUSH20 0xFFFFFFFFFFFFFFFFFFFFFFFFFFFFFFFFFFFFFFFF AND PUSH2 0x1309 JUMP JUMPDEST ISZERO PUSH2 0x1301 JUMPI DUP4 PUSH20 0xFFFFFFFFFFFFFFFFFFFFFFFFFFFFFFFFFFFFFFFF AND PUSH4 0xF23A6E61 DUP8 DUP8 DUP7 DUP7 DUP7 PUSH1 0x40 MLOAD DUP7 PUSH4 0xFFFFFFFF AND PUSH1 0xE0 SHL DUP2 MSTORE PUSH1 0x4 ADD PUSH2 0x1187 SWAP6 SWAP5 SWAP4 SWAP3 SWAP2 SWAP1 PUSH2 0x1B2D JUMP JUMPDEST PUSH1 0x20 PUSH1 0x40 MLOAD DUP1 DUP4 SUB DUP2 PUSH1 0x0 DUP8 DUP1 EXTCODESIZE ISZERO DUP1 ISZERO PUSH2 0x11A1 JUMPI PUSH1 0x0 DUP1 REVERT JUMPDEST POP GAS CALL SWAP3 POP POP POP DUP1 ISZERO PUSH2 0x11D2 JUMPI POP PUSH1 0x40 MLOAD RETURNDATASIZE PUSH1 0x1F NOT PUSH1 0x1F DUP3 ADD AND DUP3 ADD DUP1 PUSH1 0x40 MSTORE POP DUP2 ADD SWAP1 PUSH2 0x11CF SWAP2 SWAP1 PUSH2 0x180C JUMP JUMPDEST PUSH1 0x1 JUMPDEST PUSH2 0x1278 JUMPI PUSH2 0x11DE PUSH2 0x2114 JUMP JUMPDEST DUP1 PUSH4 0x8C379A0 EQ ISZERO PUSH2 0x123B JUMPI POP PUSH2 0x11F3 PUSH2 0x2434 JUMP JUMPDEST DUP1 PUSH2 0x11FE JUMPI POP PUSH2 0x123D JUMP JUMPDEST DUP1 PUSH1 0x40 MLOAD PUSH32 0x8C379A000000000000000000000000000000000000000000000000000000000 DUP2 MSTORE PUSH1 0x4 ADD PUSH2 0x1232 SWAP2 SWAP1 PUSH2 0x1BFB JUMP JUMPDEST PUSH1 0x40 MLOAD DUP1 SWAP2 SUB SWAP1 REVERT JUMPDEST POP JUMPDEST PUSH1 0x40 MLOAD PUSH32 0x8C379A000000000000000000000000000000000000000000000000000000000 DUP2 MSTORE PUSH1 0x4 ADD PUSH2 0x126F SWAP1 PUSH2 0x1D1D JUMP JUMPDEST PUSH1 0x40 MLOAD DUP1 SWAP2 SUB SWAP1 REVERT JUMPDEST PUSH4 0xF23A6E61 PUSH1 0xE0 SHL PUSH28 0xFFFFFFFFFFFFFFFFFFFFFFFFFFFFFFFFFFFFFFFFFFFFFFFFFFFFFFFF NOT AND DUP2 PUSH28 0xFFFFFFFFFFFFFFFFFFFFFFFFFFFFFFFFFFFFFFFFFFFFFFFFFFFFFFFF NOT AND EQ PUSH2 0x12FF JUMPI PUSH1 0x40 MLOAD PUSH32 0x8C379A000000000000000000000000000000000000000000000000000000000 DUP2 MSTORE PUSH1 0x4 ADD PUSH2 0x12F6 SWAP1 PUSH2 0x1C1D JUMP JUMPDEST PUSH1 0x40 MLOAD DUP1 SWAP2 SUB SWAP1 REVERT JUMPDEST POP JUMPDEST POP POP POP POP POP POP JUMP JUMPDEST PUSH1 0x0 DUP1 DUP3 PUSH20 0xFFFFFFFFFFFFFFFFFFFFFFFFFFFFFFFFFFFFFFFF AND EXTCODESIZE GT SWAP1 POP SWAP2 SWAP1 POP JUMP JUMPDEST PUSH1 0x0 PUSH2 0x133F PUSH2 0x133A DUP5 PUSH2 0x1DA6 JUMP JUMPDEST PUSH2 0x1D81 JUMP JUMPDEST SWAP1 POP DUP1 DUP4 DUP3 MSTORE PUSH1 0x20 DUP3 ADD SWAP1 POP DUP3 DUP6 PUSH1 0x20 DUP7 MUL DUP3 ADD GT ISZERO PUSH2 0x1362 JUMPI PUSH2 0x1361 PUSH2 0x213B JUMP JUMPDEST JUMPDEST PUSH1 0x0 JUMPDEST DUP6 DUP2 LT ISZERO PUSH2 0x1392 JUMPI DUP2 PUSH2 0x1378 DUP9 DUP3 PUSH2 0x144E JUMP JUMPDEST DUP5 MSTORE PUSH1 0x20 DUP5 ADD SWAP4 POP PUSH1 0x20 DUP4 ADD SWAP3 POP POP PUSH1 0x1 DUP2 ADD SWAP1 POP PUSH2 0x1365 JUMP JUMPDEST POP POP POP SWAP4 SWAP3 POP POP POP JUMP JUMPDEST PUSH1 0x0 PUSH2 0x13AF PUSH2 0x13AA DUP5 PUSH2 0x1DD2 JUMP JUMPDEST PUSH2 0x1D81 JUMP JUMPDEST SWAP1 POP DUP1 DUP4 DUP3 MSTORE PUSH1 0x20 DUP3 ADD SWAP1 POP DUP3 DUP6 PUSH1 0x20 DUP7 MUL DUP3 ADD GT ISZERO PUSH2 0x13D2 JUMPI PUSH2 0x13D1 PUSH2 0x213B JUMP JUMPDEST JUMPDEST PUSH1 0x0 JUMPDEST DUP6 DUP2 LT ISZERO PUSH2 0x1402 JUMPI DUP2 PUSH2 0x13E8 DUP9 DUP3 PUSH2 0x152C JUMP JUMPDEST DUP5 MSTORE PUSH1 0x20 DUP5 ADD SWAP4 POP PUSH1 0x20 DUP4 ADD SWAP3 POP POP PUSH1 0x1 DUP2 ADD SWAP1 POP PUSH2 0x13D5 JUMP JUMPDEST POP POP POP SWAP4 SWAP3 POP POP POP JUMP JUMPDEST PUSH1 0x0 PUSH2 0x141F PUSH2 0x141A DUP5 PUSH2 0x1DFE JUMP JUMPDEST PUSH2 0x1D81 JUMP JUMPDEST SWAP1 POP DUP3 DUP2 MSTORE PUSH1 0x20 DUP2 ADD DUP5 DUP5 DUP5 ADD GT ISZERO PUSH2 0x143B JUMPI PUSH2 0x143A PUSH2 0x2140 JUMP JUMPDEST JUMPDEST PUSH2 0x1446 DUP5 DUP3 DUP6 PUSH2 0x1F6A JUMP JUMPDEST POP SWAP4 SWAP3 POP POP POP JUMP JUMPDEST PUSH1 0x0 DUP2 CALLDATALOAD SWAP1 POP PUSH2 0x145D DUP2 PUSH2 0x24CA JUMP JUMPDEST SWAP3 SWAP2 POP POP JUMP JUMPDEST PUSH1 0x0 DUP3 PUSH1 0x1F DUP4 ADD SLT PUSH2 0x1478 JUMPI PUSH2 0x1477 PUSH2 0x2136 JUMP JUMPDEST JUMPDEST DUP2 CALLDATALOAD PUSH2 0x1488 DUP5 DUP3 PUSH1 0x20 DUP7 ADD PUSH2 0x132C JUMP JUMPDEST SWAP2 POP POP SWAP3 SWAP2 POP POP JUMP JUMPDEST PUSH1 0x0 DUP3 PUSH1 0x1F DUP4 ADD SLT PUSH2 0x14A6 JUMPI PUSH2 0x14A5 PUSH2 0x2136 JUMP JUMPDEST JUMPDEST DUP2 CALLDATALOAD PUSH2 0x14B6 DUP5 DUP3 PUSH1 0x20 DUP7 ADD PUSH2 0x139C JUMP JUMPDEST SWAP2 POP POP SWAP3 SWAP2 POP POP JUMP JUMPDEST PUSH1 0x0 DUP2 CALLDATALOAD SWAP1 POP PUSH2 0x14CE DUP2 PUSH2 0x24E1 JUMP JUMPDEST SWAP3 SWAP2 POP POP JUMP JUMPDEST PUSH1 0x0 DUP2 CALLDATALOAD SWAP1 POP PUSH2 0x14E3 DUP2 PUSH2 0x24F8 JUMP JUMPDEST SWAP3 SWAP2 POP POP JUMP JUMPDEST PUSH1 0x0 DUP2 MLOAD SWAP1 POP PUSH2 0x14F8 DUP2 PUSH2 0x24F8 JUMP JUMPDEST SWAP3 SWAP2 POP POP JUMP JUMPDEST PUSH1 0x0 DUP3 PUSH1 0x1F DUP4 ADD SLT PUSH2 0x1513 JUMPI PUSH2 0x1512 PUSH2 0x2136 JUMP JUMPDEST JUMPDEST DUP2 CALLDATALOAD PUSH2 0x1523 DUP5 DUP3 PUSH1 0x20 DUP7 ADD PUSH2 0x140C JUMP JUMPDEST SWAP2 POP POP SWAP3 SWAP2 POP POP JUMP JUMPDEST PUSH1 0x0 DUP2 CALLDATALOAD SWAP1 POP PUSH2 0x153B DUP2 PUSH2 0x250F JUMP JUMPDEST SWAP3 SWAP2 POP POP JUMP JUMPDEST PUSH1 0x0 DUP1 PUSH1 0x40 DUP4 DUP6 SUB SLT ISZERO PUSH2 0x1558 JUMPI PUSH2 0x1557 PUSH2 0x214A JUMP JUMPDEST JUMPDEST PUSH1 0x0 PUSH2 0x1566 DUP6 DUP3 DUP7 ADD PUSH2 0x144E JUMP JUMPDEST SWAP3 POP POP PUSH1 0x20 PUSH2 0x1577 DUP6 DUP3 DUP7 ADD PUSH2 0x144E JUMP JUMPDEST SWAP2 POP POP SWAP3 POP SWAP3 SWAP1 POP JUMP JUMPDEST PUSH1 0x0 DUP1 PUSH1 0x0 DUP1 PUSH1 0x0 PUSH1 0xA0 DUP7 DUP9 SUB SLT ISZERO PUSH2 0x159D JUMPI PUSH2 0x159C PUSH2 0x214A JUMP JUMPDEST JUMPDEST PUSH1 0x0 PUSH2 0x15AB DUP9 DUP3 DUP10 ADD PUSH2 0x144E JUMP JUMPDEST SWAP6 POP POP PUSH1 0x20 PUSH2 0x15BC DUP9 DUP3 DUP10 ADD PUSH2 0x144E JUMP JUMPDEST SWAP5 POP POP PUSH1 0x40 DUP7 ADD CALLDATALOAD PUSH8 0xFFFFFFFFFFFFFFFF DUP2 GT ISZERO PUSH2 0x15DD JUMPI PUSH2 0x15DC PUSH2 0x2145 JUMP JUMPDEST JUMPDEST PUSH2 0x15E9 DUP9 DUP3 DUP10 ADD PUSH2 0x1491 JUMP JUMPDEST SWAP4 POP POP PUSH1 0x60 DUP7 ADD CALLDATALOAD PUSH8 0xFFFFFFFFFFFFFFFF DUP2 GT ISZERO PUSH2 0x160A JUMPI PUSH2 0x1609 PUSH2 0x2145 JUMP JUMPDEST JUMPDEST PUSH2 0x1616 DUP9 DUP3 DUP10 ADD PUSH2 0x1491 JUMP JUMPDEST SWAP3 POP POP PUSH1 0x80 DUP7 ADD CALLDATALOAD PUSH8 0xFFFFFFFFFFFFFFFF DUP2 GT ISZERO PUSH2 0x1637 JUMPI PUSH2 0x1636 PUSH2 0x2145 JUMP JUMPDEST JUMPDEST PUSH2 0x1643 DUP9 DUP3 DUP10 ADD PUSH2 0x14FE JUMP JUMPDEST SWAP2 POP POP SWAP3 SWAP6 POP SWAP3 SWAP6 SWAP1 SWAP4 POP JUMP JUMPDEST PUSH1 0x0 DUP1 PUSH1 0x0 DUP1 PUSH1 0x0 PUSH1 0xA0 DUP7 DUP9 SUB SLT ISZERO PUSH2 0x166C JUMPI PUSH2 0x166B PUSH2 0x214A JUMP JUMPDEST JUMPDEST PUSH1 0x0 PUSH2 0x167A DUP9 DUP3 DUP10 ADD PUSH2 0x144E JUMP JUMPDEST SWAP6 POP POP PUSH1 0x20 PUSH2 0x168B DUP9 DUP3 DUP10 ADD PUSH2 0x144E JUMP JUMPDEST SWAP5 POP POP PUSH1 0x40 PUSH2 0x169C DUP9 DUP3 DUP10 ADD PUSH2 0x152C JUMP JUMPDEST SWAP4 POP POP PUSH1 0x60 PUSH2 0x16AD DUP9 DUP3 DUP10 ADD PUSH2 0x152C JUMP JUMPDEST SWAP3 POP POP PUSH1 0x80 DUP7 ADD CALLDATALOAD PUSH8 0xFFFFFFFFFFFFFFFF DUP2 GT ISZERO PUSH2 0x16CE JUMPI PUSH2 0x16CD PUSH2 0x2145 JUMP JUMPDEST JUMPDEST PUSH2 0x16DA DUP9 DUP3 DUP10 ADD PUSH2 0x14FE JUMP JUMPDEST SWAP2 POP POP SWAP3 SWAP6 POP SWAP3 SWAP6 SWAP1 SWAP4 POP JUMP JUMPDEST PUSH1 0x0 DUP1 PUSH1 0x40 DUP4 DUP6 SUB SLT ISZERO PUSH2 0x16FE JUMPI PUSH2 0x16FD PUSH2 0x214A JUMP JUMPDEST JUMPDEST PUSH1 0x0 PUSH2 0x170C DUP6 DUP3 DUP7 ADD PUSH2 0x144E JUMP JUMPDEST SWAP3 POP POP PUSH1 0x20 PUSH2 0x171D DUP6 DUP3 DUP7 ADD PUSH2 0x14BF JUMP JUMPDEST SWAP2 POP POP SWAP3 POP SWAP3 SWAP1 POP JUMP JUMPDEST PUSH1 0x0 DUP1 PUSH1 0x40 DUP4 DUP6 SUB SLT ISZERO PUSH2 0x173E JUMPI PUSH2 0x173D PUSH2 0x214A JUMP JUMPDEST JUMPDEST PUSH1 0x0 PUSH2 0x174C DUP6 DUP3 DUP7 ADD PUSH2 0x144E JUMP JUMPDEST SWAP3 POP POP PUSH1 0x20 PUSH2 0x175D DUP6 DUP3 DUP7 ADD PUSH2 0x152C JUMP JUMPDEST SWAP2 POP POP SWAP3 POP SWAP3 SWAP1 POP JUMP JUMPDEST PUSH1 0x0 DUP1 PUSH1 0x40 DUP4 DUP6 SUB SLT ISZERO PUSH2 0x177E JUMPI PUSH2 0x177D PUSH2 0x214A JUMP JUMPDEST JUMPDEST PUSH1 0x0 DUP4 ADD CALLDATALOAD PUSH8 0xFFFFFFFFFFFFFFFF DUP2 GT ISZERO PUSH2 0x179C JUMPI PUSH2 0x179B PUSH2 0x2145 JUMP JUMPDEST JUMPDEST PUSH2 0x17A8 DUP6 DUP3 DUP7 ADD PUSH2 0x1463 JUMP JUMPDEST SWAP3 POP POP PUSH1 0x20 DUP4 ADD CALLDATALOAD PUSH8 0xFFFFFFFFFFFFFFFF DUP2 GT ISZERO PUSH2 0x17C9 JUMPI PUSH2 0x17C8 PUSH2 0x2145 JUMP JUMPDEST JUMPDEST PUSH2 0x17D5 DUP6 DUP3 DUP7 ADD PUSH2 0x1491 JUMP JUMPDEST SWAP2 POP POP SWAP3 POP SWAP3 SWAP1 POP JUMP JUMPDEST PUSH1 0x0 PUSH1 0x20 DUP3 DUP5 SUB SLT ISZERO PUSH2 0x17F5 JUMPI PUSH2 0x17F4 PUSH2 0x214A JUMP JUMPDEST JUMPDEST PUSH1 0x0 PUSH2 0x1803 DUP5 DUP3 DUP6 ADD PUSH2 0x14D4 JUMP JUMPDEST SWAP2 POP POP SWAP3 SWAP2 POP POP JUMP JUMPDEST PUSH1 0x0 PUSH1 0x20 DUP3 DUP5 SUB SLT ISZERO PUSH2 0x1822 JUMPI PUSH2 0x1821 PUSH2 0x214A JUMP JUMPDEST JUMPDEST PUSH1 0x0 PUSH2 0x1830 DUP5 DUP3 DUP6 ADD PUSH2 0x14E9 JUMP JUMPDEST SWAP2 POP POP SWAP3 SWAP2 POP POP JUMP JUMPDEST PUSH1 0x0 PUSH1 0x20 DUP3 DUP5 SUB SLT ISZERO PUSH2 0x184F JUMPI PUSH2 0x184E PUSH2 0x214A JUMP JUMPDEST JUMPDEST PUSH1 0x0 PUSH2 0x185D DUP5 DUP3 DUP6 ADD PUSH2 0x152C JUMP JUMPDEST SWAP2 POP POP SWAP3 SWAP2 POP POP JUMP JUMPDEST PUSH1 0x0 PUSH2 0x1872 DUP4 DUP4 PUSH2 0x1AA7 JUMP JUMPDEST PUSH1 0x20 DUP4 ADD SWAP1 POP SWAP3 SWAP2 POP POP JUMP JUMPDEST PUSH2 0x1887 DUP2 PUSH2 0x1EF6 JUMP JUMPDEST DUP3 MSTORE POP POP JUMP JUMPDEST PUSH1 0x0 PUSH2 0x1898 DUP3 PUSH2 0x1E3F JUMP JUMPDEST PUSH2 0x18A2 DUP2 DUP6 PUSH2 0x1E6D JUMP JUMPDEST SWAP4 POP PUSH2 0x18AD DUP4 PUSH2 0x1E2F JUMP JUMPDEST DUP1 PUSH1 0x0 JUMPDEST DUP4 DUP2 LT ISZERO PUSH2 0x18DE JUMPI DUP2 MLOAD PUSH2 0x18C5 DUP9 DUP3 PUSH2 0x1866 JUMP JUMPDEST SWAP8 POP PUSH2 0x18D0 DUP4 PUSH2 0x1E60 JUMP JUMPDEST SWAP3 POP POP PUSH1 0x1 DUP2 ADD SWAP1 POP PUSH2 0x18B1 JUMP JUMPDEST POP DUP6 SWAP4 POP POP POP POP SWAP3 SWAP2 POP POP JUMP JUMPDEST PUSH2 0x18F4 DUP2 PUSH2 0x1F08 JUMP JUMPDEST DUP3 MSTORE POP POP JUMP JUMPDEST PUSH1 0x0 PUSH2 0x1905 DUP3 PUSH2 0x1E4A JUMP JUMPDEST PUSH2 0x190F DUP2 DUP6 PUSH2 0x1E7E JUMP JUMPDEST SWAP4 POP PUSH2 0x191F DUP2 DUP6 PUSH1 0x20 DUP7 ADD PUSH2 0x1F79 JUMP JUMPDEST PUSH2 0x1928 DUP2 PUSH2 0x214F JUMP JUMPDEST DUP5 ADD SWAP2 POP POP SWAP3 SWAP2 POP POP JUMP JUMPDEST PUSH1 0x0 PUSH2 0x193E DUP3 PUSH2 0x1E55 JUMP JUMPDEST PUSH2 0x1948 DUP2 DUP6 PUSH2 0x1E8F JUMP JUMPDEST SWAP4 POP PUSH2 0x1958 DUP2 DUP6 PUSH1 0x20 DUP7 ADD PUSH2 0x1F79 JUMP JUMPDEST PUSH2 0x1961 DUP2 PUSH2 0x214F JUMP JUMPDEST DUP5 ADD SWAP2 POP POP SWAP3 SWAP2 POP POP JUMP JUMPDEST PUSH1 0x0 PUSH2 0x1979 PUSH1 0x28 DUP4 PUSH2 0x1E8F JUMP JUMPDEST SWAP2 POP PUSH2 0x1984 DUP3 PUSH2 0x216D JUMP JUMPDEST PUSH1 0x40 DUP3 ADD SWAP1 POP SWAP2 SWAP1 POP JUMP JUMPDEST PUSH1 0x0 PUSH2 0x199C PUSH1 0x2A DUP4 PUSH2 0x1E8F JUMP JUMPDEST SWAP2 POP PUSH2 0x19A7 DUP3 PUSH2 0x21BC JUMP JUMPDEST PUSH1 0x40 DUP3 ADD SWAP1 POP SWAP2 SWAP1 POP JUMP JUMPDEST PUSH1 0x0 PUSH2 0x19BF PUSH1 0x2E DUP4 PUSH2 0x1E8F JUMP JUMPDEST SWAP2 POP PUSH2 0x19CA DUP3 PUSH2 0x220B JUMP JUMPDEST PUSH1 0x40 DUP3 ADD SWAP1 POP SWAP2 SWAP1 POP JUMP JUMPDEST PUSH1 0x0 PUSH2 0x19E2 PUSH1 0x25 DUP4 PUSH2 0x1E8F JUMP JUMPDEST SWAP2 POP PUSH2 0x19ED DUP3 PUSH2 0x225A JUMP JUMPDEST PUSH1 0x40 DUP3 ADD SWAP1 POP SWAP2 SWAP1 POP JUMP JUMPDEST PUSH1 0x0 PUSH2 0x1A05 PUSH1 0x2A DUP4 PUSH2 0x1E8F JUMP JUMPDEST SWAP2 POP PUSH2 0x1A10 DUP3 PUSH2 0x22A9 JUMP JUMPDEST PUSH1 0x40 DUP3 ADD SWAP1 POP SWAP2 SWAP1 POP JUMP JUMPDEST PUSH1 0x0 PUSH2 0x1A28 PUSH1 0x29 DUP4 PUSH2 0x1E8F JUMP JUMPDEST SWAP2 POP PUSH2 0x1A33 DUP3 PUSH2 0x22F8 JUMP JUMPDEST PUSH1 0x40 DUP3 ADD SWAP1 POP SWAP2 SWAP1 POP JUMP JUMPDEST PUSH1 0x0 PUSH2 0x1A4B PUSH1 0x29 DUP4 PUSH2 0x1E8F JUMP JUMPDEST SWAP2 POP PUSH2 0x1A56 DUP3 PUSH2 0x2347 JUMP JUMPDEST PUSH1 0x40 DUP3 ADD SWAP1 POP SWAP2 SWAP1 POP JUMP JUMPDEST PUSH1 0x0 PUSH2 0x1A6E PUSH1 0x28 DUP4 PUSH2 0x1E8F JUMP JUMPDEST SWAP2 POP PUSH2 0x1A79 DUP3 PUSH2 0x2396 JUMP JUMPDEST PUSH1 0x40 DUP3 ADD SWAP1 POP SWAP2 SWAP1 POP JUMP JUMPDEST PUSH1 0x0 PUSH2 0x1A91 PUSH1 0x34 DUP4 PUSH2 0x1E8F JUMP JUMPDEST SWAP2 POP PUSH2 0x1A9C DUP3 PUSH2 0x23E5 JUMP JUMPDEST PUSH1 0x40 DUP3 ADD SWAP1 POP SWAP2 SWAP1 POP JUMP JUMPDEST PUSH2 0x1AB0 DUP2 PUSH2 0x1F60 JUMP JUMPDEST DUP3 MSTORE POP POP JUMP JUMPDEST PUSH2 0x1ABF DUP2 PUSH2 0x1F60 JUMP JUMPDEST DUP3 MSTORE POP POP JUMP JUMPDEST PUSH1 0x0 PUSH1 0xA0 DUP3 ADD SWAP1 POP PUSH2 0x1ADA PUSH1 0x0 DUP4 ADD DUP9 PUSH2 0x187E JUMP JUMPDEST PUSH2 0x1AE7 PUSH1 0x20 DUP4 ADD DUP8 PUSH2 0x187E JUMP JUMPDEST DUP2 DUP2 SUB PUSH1 0x40 DUP4 ADD MSTORE PUSH2 0x1AF9 DUP2 DUP7 PUSH2 0x188D JUMP JUMPDEST SWAP1 POP DUP2 DUP2 SUB PUSH1 0x60 DUP4 ADD MSTORE PUSH2 0x1B0D DUP2 DUP6 PUSH2 0x188D JUMP JUMPDEST SWAP1 POP DUP2 DUP2 SUB PUSH1 0x80 DUP4 ADD MSTORE PUSH2 0x1B21 DUP2 DUP5 PUSH2 0x18FA JUMP JUMPDEST SWAP1 POP SWAP7 SWAP6 POP POP POP POP POP POP JUMP JUMPDEST PUSH1 0x0 PUSH1 0xA0 DUP3 ADD SWAP1 POP PUSH2 0x1B42 PUSH1 0x0 DUP4 ADD DUP9 PUSH2 0x187E JUMP JUMPDEST PUSH2 0x1B4F PUSH1 0x20 DUP4 ADD DUP8 PUSH2 0x187E JUMP JUMPDEST PUSH2 0x1B5C PUSH1 0x40 DUP4 ADD DUP7 PUSH2 0x1AB6 JUMP JUMPDEST PUSH2 0x1B69 PUSH1 0x60 DUP4 ADD DUP6 PUSH2 0x1AB6 JUMP JUMPDEST DUP2 DUP2 SUB PUSH1 0x80 DUP4 ADD MSTORE PUSH2 0x1B7B DUP2 DUP5 PUSH2 0x18FA JUMP JUMPDEST SWAP1 POP SWAP7 SWAP6 POP POP POP POP POP POP JUMP JUMPDEST PUSH1 0x0 PUSH1 0x20 DUP3 ADD SWAP1 POP DUP2 DUP2 SUB PUSH1 0x0 DUP4 ADD MSTORE PUSH2 0x1BA1 DUP2 DUP5 PUSH2 0x188D JUMP JUMPDEST SWAP1 POP SWAP3 SWAP2 POP POP JUMP JUMPDEST PUSH1 0x0 PUSH1 0x40 DUP3 ADD SWAP1 POP DUP2 DUP2 SUB PUSH1 0x0 DUP4 ADD MSTORE PUSH2 0x1BC3 DUP2 DUP6 PUSH2 0x188D JUMP JUMPDEST SWAP1 POP DUP2 DUP2 SUB PUSH1 0x20 DUP4 ADD MSTORE PUSH2 0x1BD7 DUP2 DUP5 PUSH2 0x188D JUMP JUMPDEST SWAP1 POP SWAP4 SWAP3 POP POP POP JUMP JUMPDEST PUSH1 0x0 PUSH1 0x20 DUP3 ADD SWAP1 POP PUSH2 0x1BF5 PUSH1 0x0 DUP4 ADD DUP5 PUSH2 0x18EB JUMP JUMPDEST SWAP3 SWAP2 POP POP JUMP JUMPDEST PUSH1 0x0 PUSH1 0x20 DUP3 ADD SWAP1 POP DUP2 DUP2 SUB PUSH1 0x0 DUP4 ADD MSTORE PUSH2 0x1C15 DUP2 DUP5 PUSH2 0x1933 JUMP JUMPDEST SWAP1 POP SWAP3 SWAP2 POP POP JUMP JUMPDEST PUSH1 0x0 PUSH1 0x20 DUP3 ADD SWAP1 POP DUP2 DUP2 SUB PUSH1 0x0 DUP4 ADD MSTORE PUSH2 0x1C36 DUP2 PUSH2 0x196C JUMP JUMPDEST SWAP1 POP SWAP2 SWAP1 POP JUMP JUMPDEST PUSH1 0x0 PUSH1 0x20 DUP3 ADD SWAP1 POP DUP2 DUP2 SUB PUSH1 0x0 DUP4 ADD MSTORE PUSH2 0x1C56 DUP2 PUSH2 0x198F JUMP JUMPDEST SWAP1 POP SWAP2 SWAP1 POP JUMP JUMPDEST PUSH1 0x0 PUSH1 0x20 DUP3 ADD SWAP1 POP DUP2 DUP2 SUB PUSH1 0x0 DUP4 ADD MSTORE PUSH2 0x1C76 DUP2 PUSH2 0x19B2 JUMP JUMPDEST SWAP1 POP SWAP2 SWAP1 POP JUMP JUMPDEST PUSH1 0x0 PUSH1 0x20 DUP3 ADD SWAP1 POP DUP2 DUP2 SUB PUSH1 0x0 DUP4 ADD MSTORE PUSH2 0x1C96 DUP2 PUSH2 0x19D5 JUMP JUMPDEST SWAP1 POP SWAP2 SWAP1 POP JUMP JUMPDEST PUSH1 0x0 PUSH1 0x20 DUP3 ADD SWAP1 POP DUP2 DUP2 SUB PUSH1 0x0 DUP4 ADD MSTORE PUSH2 0x1CB6 DUP2 PUSH2 0x19F8 JUMP JUMPDEST SWAP1 POP SWAP2 SWAP1 POP JUMP JUMPDEST PUSH1 0x0 PUSH1 0x20 DUP3 ADD SWAP1 POP DUP2 DUP2 SUB PUSH1 0x0 DUP4 ADD MSTORE PUSH2 0x1CD6 DUP2 PUSH2 0x1A1B JUMP JUMPDEST SWAP1 POP SWAP2 SWAP1 POP JUMP JUMPDEST PUSH1 0x0 PUSH1 0x20 DUP3 ADD SWAP1 POP DUP2 DUP2 SUB PUSH1 0x0 DUP4 ADD MSTORE PUSH2 0x1CF6 DUP2 PUSH2 0x1A3E JUMP JUMPDEST SWAP1 POP SWAP2 SWAP1 POP JUMP JUMPDEST PUSH1 0x0 PUSH1 0x20 DUP3 ADD SWAP1 POP DUP2 DUP2 SUB PUSH1 0x0 DUP4 ADD MSTORE PUSH2 0x1D16 DUP2 PUSH2 0x1A61 JUMP JUMPDEST SWAP1 POP SWAP2 SWAP1 POP JUMP JUMPDEST PUSH1 0x0 PUSH1 0x20 DUP3 ADD SWAP1 POP DUP2 DUP2 SUB PUSH1 0x0 DUP4 ADD MSTORE PUSH2 0x1D36 DUP2 PUSH2 0x1A84 JUMP JUMPDEST SWAP1 POP SWAP2 SWAP1 POP JUMP JUMPDEST PUSH1 0x0 PUSH1 0x20 DUP3 ADD SWAP1 POP PUSH2 0x1D52 PUSH1 0x0 DUP4 ADD DUP5 PUSH2 0x1AB6 JUMP JUMPDEST SWAP3 SWAP2 POP POP JUMP JUMPDEST PUSH1 0x0 PUSH1 0x40 DUP3 ADD SWAP1 POP PUSH2 0x1D6D PUSH1 0x0 DUP4 ADD DUP6 PUSH2 0x1AB6 JUMP JUMPDEST PUSH2 0x1D7A PUSH1 0x20 DUP4 ADD DUP5 PUSH2 0x1AB6 JUMP JUMPDEST SWAP4 SWAP3 POP POP POP JUMP JUMPDEST PUSH1 0x0 PUSH2 0x1D8B PUSH2 0x1D9C JUMP JUMPDEST SWAP1 POP PUSH2 0x1D97 DUP3 DUP3 PUSH2 0x1FDE JUMP JUMPDEST SWAP2 SWAP1 POP JUMP JUMPDEST PUSH1 0x0 PUSH1 0x40 MLOAD SWAP1 POP SWAP1 JUMP JUMPDEST PUSH1 0x0 PUSH8 0xFFFFFFFFFFFFFFFF DUP3 GT ISZERO PUSH2 0x1DC1 JUMPI PUSH2 0x1DC0 PUSH2 0x20E5 JUMP JUMPDEST JUMPDEST PUSH1 0x20 DUP3 MUL SWAP1 POP PUSH1 0x20 DUP2 ADD SWAP1 POP SWAP2 SWAP1 POP JUMP JUMPDEST PUSH1 0x0 PUSH8 0xFFFFFFFFFFFFFFFF DUP3 GT ISZERO PUSH2 0x1DED JUMPI PUSH2 0x1DEC PUSH2 0x20E5 JUMP JUMPDEST JUMPDEST PUSH1 0x20 DUP3 MUL SWAP1 POP PUSH1 0x20 DUP2 ADD SWAP1 POP SWAP2 SWAP1 POP JUMP JUMPDEST PUSH1 0x0 PUSH8 0xFFFFFFFFFFFFFFFF DUP3 GT ISZERO PUSH2 0x1E19 JUMPI PUSH2 0x1E18 PUSH2 0x20E5 JUMP JUMPDEST JUMPDEST PUSH2 0x1E22 DUP3 PUSH2 0x214F JUMP JUMPDEST SWAP1 POP PUSH1 0x20 DUP2 ADD SWAP1 POP SWAP2 SWAP1 POP JUMP JUMPDEST PUSH1 0x0 DUP2 SWAP1 POP PUSH1 0x20 DUP3 ADD SWAP1 POP SWAP2 SWAP1 POP JUMP JUMPDEST PUSH1 0x0 DUP2 MLOAD SWAP1 POP SWAP2 SWAP1 POP JUMP JUMPDEST PUSH1 0x0 DUP2 MLOAD SWAP1 POP SWAP2 SWAP1 POP JUMP JUMPDEST PUSH1 0x0 DUP2 MLOAD SWAP1 POP SWAP2 SWAP1 POP JUMP JUMPDEST PUSH1 0x0 PUSH1 0x20 DUP3 ADD SWAP1 POP SWAP2 SWAP1 POP JUMP JUMPDEST PUSH1 0x0 DUP3 DUP3 MSTORE PUSH1 0x20 DUP3 ADD SWAP1 POP SWAP3 SWAP2 POP POP JUMP JUMPDEST PUSH1 0x0 DUP3 DUP3 MSTORE PUSH1 0x20 DUP3 ADD SWAP1 POP SWAP3 SWAP2 POP POP JUMP JUMPDEST PUSH1 0x0 DUP3 DUP3 MSTORE PUSH1 0x20 DUP3 ADD SWAP1 POP SWAP3 SWAP2 POP POP JUMP JUMPDEST PUSH1 0x0 PUSH2 0x1EAB DUP3 PUSH2 0x1F60 JUMP JUMPDEST SWAP2 POP PUSH2 0x1EB6 DUP4 PUSH2 0x1F60 JUMP JUMPDEST SWAP3 POP DUP3 PUSH32 0xFFFFFFFFFFFFFFFFFFFFFFFFFFFFFFFFFFFFFFFFFFFFFFFFFFFFFFFFFFFFFFFF SUB DUP3 GT ISZERO PUSH2 0x1EEB JUMPI PUSH2 0x1EEA PUSH2 0x2058 JUMP JUMPDEST JUMPDEST DUP3 DUP3 ADD SWAP1 POP SWAP3 SWAP2 POP POP JUMP JUMPDEST PUSH1 0x0 PUSH2 0x1F01 DUP3 PUSH2 0x1F40 JUMP JUMPDEST SWAP1 POP SWAP2 SWAP1 POP JUMP JUMPDEST PUSH1 0x0 DUP2 ISZERO ISZERO SWAP1 POP SWAP2 SWAP1 POP JUMP JUMPDEST PUSH1 0x0 PUSH32 0xFFFFFFFF00000000000000000000000000000000000000000000000000000000 DUP3 AND SWAP1 POP SWAP2 SWAP1 POP JUMP JUMPDEST PUSH1 0x0 PUSH20 0xFFFFFFFFFFFFFFFFFFFFFFFFFFFFFFFFFFFFFFFF DUP3 AND SWAP1 POP SWAP2 SWAP1 POP JUMP JUMPDEST PUSH1 0x0 DUP2 SWAP1 POP SWAP2 SWAP1 POP JUMP JUMPDEST DUP3 DUP2 DUP4 CALLDATACOPY PUSH1 0x0 DUP4 DUP4 ADD MSTORE POP POP POP JUMP JUMPDEST PUSH1 0x0 JUMPDEST DUP4 DUP2 LT ISZERO PUSH2 0x1F97 JUMPI DUP1 DUP3 ADD MLOAD DUP2 DUP5 ADD MSTORE PUSH1 0x20 DUP2 ADD SWAP1 POP PUSH2 0x1F7C JUMP JUMPDEST DUP4 DUP2 GT ISZERO PUSH2 0x1FA6 JUMPI PUSH1 0x0 DUP5 DUP5 ADD MSTORE JUMPDEST POP POP POP POP JUMP JUMPDEST PUSH1 0x0 PUSH1 0x2 DUP3 DIV SWAP1 POP PUSH1 0x1 DUP3 AND DUP1 PUSH2 0x1FC4 JUMPI PUSH1 0x7F DUP3 AND SWAP2 POP JUMPDEST PUSH1 0x20 DUP3 LT DUP2 EQ ISZERO PUSH2 0x1FD8 JUMPI PUSH2 0x1FD7 PUSH2 0x2087 JUMP JUMPDEST JUMPDEST POP SWAP2 SWAP1 POP JUMP JUMPDEST PUSH2 0x1FE7 DUP3 PUSH2 0x214F JUMP JUMPDEST DUP2 ADD DUP2 DUP2 LT PUSH8 0xFFFFFFFFFFFFFFFF DUP3 GT OR ISZERO PUSH2 0x2006 JUMPI PUSH2 0x2005 PUSH2 0x20E5 JUMP JUMPDEST JUMPDEST DUP1 PUSH1 0x40 MSTORE POP POP POP JUMP JUMPDEST PUSH1 0x0 PUSH2 0x201A DUP3 PUSH2 0x1F60 JUMP JUMPDEST SWAP2 POP PUSH32 0xFFFFFFFFFFFFFFFFFFFFFFFFFFFFFFFFFFFFFFFFFFFFFFFFFFFFFFFFFFFFFFFF DUP3 EQ ISZERO PUSH2 0x204D JUMPI PUSH2 0x204C PUSH2 0x2058 JUMP JUMPDEST JUMPDEST PUSH1 0x1 DUP3 ADD SWAP1 POP SWAP2 SWAP1 POP JUMP JUMPDEST PUSH32 0x4E487B7100000000000000000000000000000000000000000000000000000000 PUSH1 0x0 MSTORE PUSH1 0x11 PUSH1 0x4 MSTORE PUSH1 0x24 PUSH1 0x0 REVERT JUMPDEST PUSH32 0x4E487B7100000000000000000000000000000000000000000000000000000000 PUSH1 0x0 MSTORE PUSH1 0x22 PUSH1 0x4 MSTORE PUSH1 0x24 PUSH1 0x0 REVERT JUMPDEST PUSH32 0x4E487B7100000000000000000000000000000000000000000000000000000000 PUSH1 0x0 MSTORE PUSH1 0x32 PUSH1 0x4 MSTORE PUSH1 0x24 PUSH1 0x0 REVERT JUMPDEST PUSH32 0x4E487B7100000000000000000000000000000000000000000000000000000000 PUSH1 0x0 MSTORE PUSH1 0x41 PUSH1 0x4 MSTORE PUSH1 0x24 PUSH1 0x0 REVERT JUMPDEST PUSH1 0x0 PUSH1 0x3 RETURNDATASIZE GT ISZERO PUSH2 0x2133 JUMPI PUSH1 0x4 PUSH1 0x0 DUP1 RETURNDATACOPY PUSH2 0x2130 PUSH1 0x0 MLOAD PUSH2 0x2160 JUMP JUMPDEST SWAP1 POP JUMPDEST SWAP1 JUMP JUMPDEST PUSH1 0x0 DUP1 REVERT JUMPDEST PUSH1 0x0 DUP1 REVERT JUMPDEST PUSH1 0x0 DUP1 REVERT JUMPDEST PUSH1 0x0 DUP1 REVERT JUMPDEST PUSH1 0x0 DUP1 REVERT JUMPDEST PUSH1 0x0 PUSH1 0x1F NOT PUSH1 0x1F DUP4 ADD AND SWAP1 POP SWAP2 SWAP1 POP JUMP JUMPDEST PUSH1 0x0 DUP2 PUSH1 0xE0 SHR SWAP1 POP SWAP2 SWAP1 POP JUMP JUMPDEST PUSH32 0x455243313135353A204552433131353552656365697665722072656A65637465 PUSH1 0x0 DUP3 ADD MSTORE PUSH32 0x6420746F6B656E73000000000000000000000000000000000000000000000000 PUSH1 0x20 DUP3 ADD MSTORE POP JUMP JUMPDEST PUSH32 0x455243313135353A2061646472657373207A65726F206973206E6F7420612076 PUSH1 0x0 DUP3 ADD MSTORE PUSH32 0x616C6964206F776E657200000000000000000000000000000000000000000000 PUSH1 0x20 DUP3 ADD MSTORE POP JUMP JUMPDEST PUSH32 0x455243313135353A2063616C6C6572206973206E6F7420746F6B656E206F776E PUSH1 0x0 DUP3 ADD MSTORE PUSH32 0x6572206F7220617070726F766564000000000000000000000000000000000000 PUSH1 0x20 DUP3 ADD MSTORE POP JUMP JUMPDEST PUSH32 0x455243313135353A207472616E7366657220746F20746865207A65726F206164 PUSH1 0x0 DUP3 ADD MSTORE PUSH32 0x6472657373000000000000000000000000000000000000000000000000000000 PUSH1 0x20 DUP3 ADD MSTORE POP JUMP JUMPDEST PUSH32 0x455243313135353A20696E73756666696369656E742062616C616E636520666F PUSH1 0x0 DUP3 ADD MSTORE PUSH32 0x72207472616E7366657200000000000000000000000000000000000000000000 PUSH1 0x20 DUP3 ADD MSTORE POP JUMP JUMPDEST PUSH32 0x455243313135353A2073657474696E6720617070726F76616C20737461747573 PUSH1 0x0 DUP3 ADD MSTORE PUSH32 0x20666F722073656C660000000000000000000000000000000000000000000000 PUSH1 0x20 DUP3 ADD MSTORE POP JUMP JUMPDEST PUSH32 0x455243313135353A206163636F756E747320616E6420696473206C656E677468 PUSH1 0x0 DUP3 ADD MSTORE PUSH32 0x206D69736D617463680000000000000000000000000000000000000000000000 PUSH1 0x20 DUP3 ADD MSTORE POP JUMP JUMPDEST PUSH32 0x455243313135353A2069647320616E6420616D6F756E7473206C656E67746820 PUSH1 0x0 DUP3 ADD MSTORE PUSH32 0x6D69736D61746368000000000000000000000000000000000000000000000000 PUSH1 0x20 DUP3 ADD MSTORE POP JUMP JUMPDEST PUSH32 0x455243313135353A207472616E7366657220746F206E6F6E2D45524331313535 PUSH1 0x0 DUP3 ADD MSTORE PUSH32 0x526563656976657220696D706C656D656E746572000000000000000000000000 PUSH1 0x20 DUP3 ADD MSTORE POP JUMP JUMPDEST PUSH1 0x0 PUSH1 0x44 RETURNDATASIZE LT ISZERO PUSH2 0x2444 JUMPI PUSH2 0x24C7 JUMP JUMPDEST PUSH2 0x244C PUSH2 0x1D9C JUMP JUMPDEST PUSH1 0x4 RETURNDATASIZE SUB PUSH1 0x4 DUP3 RETURNDATACOPY DUP1 MLOAD RETURNDATASIZE PUSH1 0x24 DUP3 ADD GT PUSH8 0xFFFFFFFFFFFFFFFF DUP3 GT OR ISZERO PUSH2 0x2474 JUMPI POP POP PUSH2 0x24C7 JUMP JUMPDEST DUP1 DUP3 ADD DUP1 MLOAD PUSH8 0xFFFFFFFFFFFFFFFF DUP2 GT ISZERO PUSH2 0x2492 JUMPI POP POP POP POP PUSH2 0x24C7 JUMP JUMPDEST DUP1 PUSH1 0x20 DUP4 ADD ADD PUSH1 0x4 RETURNDATASIZE SUB DUP6 ADD DUP2 GT ISZERO PUSH2 0x24AF JUMPI POP POP POP POP POP PUSH2 0x24C7 JUMP JUMPDEST PUSH2 0x24BE DUP3 PUSH1 0x20 ADD DUP6 ADD DUP7 PUSH2 0x1FDE JUMP JUMPDEST DUP3 SWAP6 POP POP POP POP POP POP JUMPDEST SWAP1 JUMP JUMPDEST PUSH2 0x24D3 DUP2 PUSH2 0x1EF6 JUMP JUMPDEST DUP2 EQ PUSH2 0x24DE JUMPI PUSH1 0x0 DUP1 REVERT JUMPDEST POP JUMP JUMPDEST PUSH2 0x24EA DUP2 PUSH2 0x1F08 JUMP JUMPDEST DUP2 EQ PUSH2 0x24F5 JUMPI PUSH1 0x0 DUP1 REVERT JUMPDEST POP JUMP JUMPDEST PUSH2 0x2501 DUP2 PUSH2 0x1F14 JUMP JUMPDEST DUP2 EQ PUSH2 0x250C JUMPI PUSH1 0x0 DUP1 REVERT JUMPDEST POP JUMP JUMPDEST PUSH2 0x2518 DUP2 PUSH2 0x1F60 JUMP JUMPDEST DUP2 EQ PUSH2 0x2523 JUMPI PUSH1 0x0 DUP1 REVERT JUMPDEST POP JUMP INVALID LOG2 PUSH5 0x6970667358 0x22 SLT KECCAK256 SWAP3 DUP9 0xE0 PUSH13 0x2286EF02A540680CB59411B2C4 SWAP10 0x49 0x21 0xB9 PUSH2 0x423 CALLVALUE ADDRESS PUSH16 0x157680FA5D64736F6C63430008070033 "
				},
				"gasEstimates": {
					"creation": {
						"codeDepositCost": "1912800",
						"executionCost": "infinite",
						"totalCost": "infinite"
					},
					"external": {
						"balanceOf(address,uint256)": "infinite",
						"balanceOfBatch(address[],uint256[])": "infinite",
						"isApprovedForAll(address,address)": "infinite",
						"safeBatchTransferFrom(address,address,uint256[],uint256[],bytes)": "infinite",
						"safeTransferFrom(address,address,uint256,uint256,bytes)": "infinite",
						"setApprovalForAll(address,bool)": "infinite",
						"supportsInterface(bytes4)": "796",
						"uri(uint256)": "infinite"
					},
					"internal": {
						"_afterTokenTransfer(address,address,address,uint256[] memory,uint256[] memory,bytes memory)": "21",
						"_asSingletonArray(uint256)": "infinite",
						"_beforeTokenTransfer(address,address,address,uint256[] memory,uint256[] memory,bytes memory)": "21",
						"_burn(address,uint256,uint256)": "infinite",
						"_burnBatch(address,uint256[] memory,uint256[] memory)": "infinite",
						"_doSafeBatchTransferAcceptanceCheck(address,address,address,uint256[] memory,uint256[] memory,bytes memory)": "infinite",
						"_doSafeTransferAcceptanceCheck(address,address,address,uint256,uint256,bytes memory)": "infinite",
						"_mint(address,uint256,uint256,bytes memory)": "infinite",
						"_mintBatch(address,uint256[] memory,uint256[] memory,bytes memory)": "infinite",
						"_safeBatchTransferFrom(address,address,uint256[] memory,uint256[] memory,bytes memory)": "infinite",
						"_safeTransferFrom(address,address,uint256,uint256,bytes memory)": "infinite",
						"_setApprovalForAll(address,address,bool)": "infinite",
						"_setURI(string memory)": "infinite"
					}
				},
				"methodIdentifiers": {
					"balanceOf(address,uint256)": "00fdd58e",
					"balanceOfBatch(address[],uint256[])": "4e1273f4",
					"isApprovedForAll(address,address)": "e985e9c5",
					"safeBatchTransferFrom(address,address,uint256[],uint256[],bytes)": "2eb2c2d6",
					"safeTransferFrom(address,address,uint256,uint256,bytes)": "f242432a",
					"setApprovalForAll(address,bool)": "a22cb465",
					"supportsInterface(bytes4)": "01ffc9a7",
					"uri(uint256)": "0e89341c"
				}
			},
			"storageLayout": {
				"storage": [
					{
						"astId": 377,
						"contract": "Arevea-NFT-Market/NFT-Contracts/newmultinft/ERC1155.sol:ERC1155",
						"label": "_balances",
						"offset": 0,
						"slot": "0",
						"type": "t_mapping(t_uint256,t_mapping(t_address,t_uint256))"
					},
					{
						"astId": 383,
						"contract": "Arevea-NFT-Market/NFT-Contracts/newmultinft/ERC1155.sol:ERC1155",
						"label": "_operatorApprovals",
						"offset": 0,
						"slot": "1",
						"type": "t_mapping(t_address,t_mapping(t_address,t_bool))"
					},
					{
						"astId": 385,
						"contract": "Arevea-NFT-Market/NFT-Contracts/newmultinft/ERC1155.sol:ERC1155",
						"label": "_uri",
						"offset": 0,
						"slot": "2",
						"type": "t_string_storage"
					}
				],
				"types": {
					"t_address": {
						"encoding": "inplace",
						"label": "address",
						"numberOfBytes": "20"
					},
					"t_bool": {
						"encoding": "inplace",
						"label": "bool",
						"numberOfBytes": "1"
					},
					"t_mapping(t_address,t_bool)": {
						"encoding": "mapping",
						"key": "t_address",
						"label": "mapping(address => bool)",
						"numberOfBytes": "32",
						"value": "t_bool"
					},
					"t_mapping(t_address,t_mapping(t_address,t_bool))": {
						"encoding": "mapping",
						"key": "t_address",
						"label": "mapping(address => mapping(address => bool))",
						"numberOfBytes": "32",
						"value": "t_mapping(t_address,t_bool)"
					},
					"t_mapping(t_address,t_uint256)": {
						"encoding": "mapping",
						"key": "t_address",
						"label": "mapping(address => uint256)",
						"numberOfBytes": "32",
						"value": "t_uint256"
					},
					"t_mapping(t_uint256,t_mapping(t_address,t_uint256))": {
						"encoding": "mapping",
						"key": "t_uint256",
						"label": "mapping(uint256 => mapping(address => uint256))",
						"numberOfBytes": "32",
						"value": "t_mapping(t_address,t_uint256)"
					},
					"t_string_storage": {
						"encoding": "bytes",
						"label": "string",
						"numberOfBytes": "32"
					},
					"t_uint256": {
						"encoding": "inplace",
						"label": "uint256",
						"numberOfBytes": "32"
					}
				}
			},
			"userdoc": {
				"kind": "user",
				"methods": {},
				"version": 1
			}
		}
	}
}