{
	"NFT-Contracts/contracts/market_deploy/AREVEAToken.sol": {
		"AREVEAToken": {
			"abi": [
				{
					"inputs": [],
					"stateMutability": "nonpayable",
					"type": "constructor"
				},
				{
					"anonymous": false,
					"inputs": [
						{
							"indexed": true,
							"internalType": "address",
							"name": "owner",
							"type": "address"
						},
						{
							"indexed": true,
							"internalType": "address",
							"name": "spender",
							"type": "address"
						},
						{
							"indexed": false,
							"internalType": "uint256",
							"name": "value",
							"type": "uint256"
						}
					],
					"name": "Approval",
					"type": "event"
				},
				{
					"anonymous": false,
					"inputs": [
						{
							"indexed": true,
							"internalType": "address",
							"name": "previousOwner",
							"type": "address"
						},
						{
							"indexed": true,
							"internalType": "address",
							"name": "newOwner",
							"type": "address"
						}
					],
					"name": "OwnershipTransferred",
					"type": "event"
				},
				{
					"anonymous": false,
					"inputs": [
						{
							"indexed": true,
							"internalType": "address",
							"name": "from",
							"type": "address"
						},
						{
							"indexed": true,
							"internalType": "address",
							"name": "to",
							"type": "address"
						},
						{
							"indexed": false,
							"internalType": "uint256",
							"name": "value",
							"type": "uint256"
						}
					],
					"name": "Transfer",
					"type": "event"
				},
				{
					"inputs": [],
					"name": "DECIMALS",
					"outputs": [
						{
							"internalType": "uint8",
							"name": "",
							"type": "uint8"
						}
					],
					"stateMutability": "view",
					"type": "function"
				},
				{
					"inputs": [],
					"name": "INITIAL_SUPPLY",
					"outputs": [
						{
							"internalType": "uint256",
							"name": "",
							"type": "uint256"
						}
					],
					"stateMutability": "view",
					"type": "function"
				},
				{
					"inputs": [],
					"name": "Maximum_SUPPLY",
					"outputs": [
						{
							"internalType": "uint256",
							"name": "",
							"type": "uint256"
						}
					],
					"stateMutability": "view",
					"type": "function"
				},
				{
					"inputs": [
						{
							"internalType": "address",
							"name": "owner",
							"type": "address"
						},
						{
							"internalType": "address",
							"name": "spender",
							"type": "address"
						}
					],
					"name": "allowance",
					"outputs": [
						{
							"internalType": "uint256",
							"name": "",
							"type": "uint256"
						}
					],
					"stateMutability": "view",
					"type": "function"
				},
				{
					"inputs": [
						{
							"internalType": "address",
							"name": "spender",
							"type": "address"
						},
						{
							"internalType": "uint256",
							"name": "amount",
							"type": "uint256"
						}
					],
					"name": "approve",
					"outputs": [
						{
							"internalType": "bool",
							"name": "",
							"type": "bool"
						}
					],
					"stateMutability": "nonpayable",
					"type": "function"
				},
				{
					"inputs": [
						{
							"internalType": "address",
							"name": "account",
							"type": "address"
						}
					],
					"name": "balanceOf",
					"outputs": [
						{
							"internalType": "uint256",
							"name": "",
							"type": "uint256"
						}
					],
					"stateMutability": "view",
					"type": "function"
				},
				{
					"inputs": [
						{
							"internalType": "uint256",
							"name": "amount",
							"type": "uint256"
						}
					],
					"name": "burn",
					"outputs": [],
					"stateMutability": "nonpayable",
					"type": "function"
				},
				{
					"inputs": [
						{
							"internalType": "address",
							"name": "account",
							"type": "address"
						},
						{
							"internalType": "uint256",
							"name": "amount",
							"type": "uint256"
						}
					],
					"name": "burnFrom",
					"outputs": [],
					"stateMutability": "nonpayable",
					"type": "function"
				},
				{
					"inputs": [],
					"name": "decimals",
					"outputs": [
						{
							"internalType": "uint8",
							"name": "",
							"type": "uint8"
						}
					],
					"stateMutability": "view",
					"type": "function"
				},
				{
					"inputs": [
						{
							"internalType": "address",
							"name": "spender",
							"type": "address"
						},
						{
							"internalType": "uint256",
							"name": "subtractedValue",
							"type": "uint256"
						}
					],
					"name": "decreaseAllowance",
					"outputs": [
						{
							"internalType": "bool",
							"name": "",
							"type": "bool"
						}
					],
					"stateMutability": "nonpayable",
					"type": "function"
				},
				{
					"inputs": [
						{
							"internalType": "address",
							"name": "spender",
							"type": "address"
						},
						{
							"internalType": "uint256",
							"name": "addedValue",
							"type": "uint256"
						}
					],
					"name": "increaseAllowance",
					"outputs": [
						{
							"internalType": "bool",
							"name": "",
							"type": "bool"
						}
					],
					"stateMutability": "nonpayable",
					"type": "function"
				},
				{
					"inputs": [
						{
							"internalType": "address",
							"name": "account",
							"type": "address"
						},
						{
							"internalType": "uint256",
							"name": "amount",
							"type": "uint256"
						}
					],
					"name": "mint",
					"outputs": [],
					"stateMutability": "nonpayable",
					"type": "function"
				},
				{
					"inputs": [],
					"name": "name",
					"outputs": [
						{
							"internalType": "string",
							"name": "",
							"type": "string"
						}
					],
					"stateMutability": "view",
					"type": "function"
				},
				{
					"inputs": [],
					"name": "owner",
					"outputs": [
						{
							"internalType": "address",
							"name": "",
							"type": "address"
						}
					],
					"stateMutability": "view",
					"type": "function"
				},
				{
					"inputs": [],
					"name": "renounceOwnership",
					"outputs": [],
					"stateMutability": "nonpayable",
					"type": "function"
				},
				{
					"inputs": [],
					"name": "symbol",
					"outputs": [
						{
							"internalType": "string",
							"name": "",
							"type": "string"
						}
					],
					"stateMutability": "view",
					"type": "function"
				},
				{
					"inputs": [],
					"name": "totalSupply",
					"outputs": [
						{
							"internalType": "uint256",
							"name": "",
							"type": "uint256"
						}
					],
					"stateMutability": "view",
					"type": "function"
				},
				{
					"inputs": [
						{
							"internalType": "address",
							"name": "to",
							"type": "address"
						},
						{
							"internalType": "uint256",
							"name": "amount",
							"type": "uint256"
						}
					],
					"name": "transfer",
					"outputs": [
						{
							"internalType": "bool",
							"name": "",
							"type": "bool"
						}
					],
					"stateMutability": "nonpayable",
					"type": "function"
				},
				{
					"inputs": [
						{
							"internalType": "address",
							"name": "from",
							"type": "address"
						},
						{
							"internalType": "address",
							"name": "to",
							"type": "address"
						},
						{
							"internalType": "uint256",
							"name": "amount",
							"type": "uint256"
						}
					],
					"name": "transferFrom",
					"outputs": [
						{
							"internalType": "bool",
							"name": "",
							"type": "bool"
						}
					],
					"stateMutability": "nonpayable",
					"type": "function"
				},
				{
					"inputs": [
						{
							"internalType": "address",
							"name": "newOwner",
							"type": "address"
						}
					],
					"name": "transferOwnership",
					"outputs": [],
					"stateMutability": "nonpayable",
					"type": "function"
				}
			],
			"devdoc": {
				"details": "Very simple ERC20 Token example, where all tokens are pre-assigned to the creator. Note they can later distribute these tokens as they wish using `transfer` and other `ERC20` functions.",
				"kind": "dev",
				"methods": {
					"allowance(address,address)": {
						"details": "See {IERC20-allowance}."
					},
					"approve(address,uint256)": {
						"details": "See {IERC20-approve}. NOTE: If `amount` is the maximum `uint256`, the allowance is not updated on `transferFrom`. This is semantically equivalent to an infinite approval. Requirements: - `spender` cannot be the zero address."
					},
					"balanceOf(address)": {
						"details": "See {IERC20-balanceOf}."
					},
					"burn(uint256)": {
						"details": "Destroys `amount` tokens from the caller. See {ERC20-_burn}."
					},
					"burnFrom(address,uint256)": {
						"details": "Destroys `amount` tokens from `account`, deducting from the caller's allowance. See {ERC20-_burn} and {ERC20-allowance}. Requirements: - the caller must have allowance for ``accounts``'s tokens of at least `amount`."
					},
					"constructor": {
						"details": "Constructor that gives msg.sender all of existing tokens."
					},
					"decimals()": {
						"details": "Returns the number of decimals used to get its user representation. For example, if `decimals` equals `2`, a balance of `505` tokens should be displayed to a user as `5.05` (`505 / 10 ** 2`). Tokens usually opt for a value of 18, imitating the relationship between Ether and Wei. This is the value {ERC20} uses, unless this function is overridden; NOTE: This information is only used for _display_ purposes: it in no way affects any of the arithmetic of the contract, including {IERC20-balanceOf} and {IERC20-transfer}."
					},
					"decreaseAllowance(address,uint256)": {
						"details": "Atomically decreases the allowance granted to `spender` by the caller. This is an alternative to {approve} that can be used as a mitigation for problems described in {IERC20-approve}. Emits an {Approval} event indicating the updated allowance. Requirements: - `spender` cannot be the zero address. - `spender` must have allowance for the caller of at least `subtractedValue`."
					},
					"increaseAllowance(address,uint256)": {
						"details": "Atomically increases the allowance granted to `spender` by the caller. This is an alternative to {approve} that can be used as a mitigation for problems described in {IERC20-approve}. Emits an {Approval} event indicating the updated allowance. Requirements: - `spender` cannot be the zero address."
					},
					"mint(address,uint256)": {
						"details": "Creates `amount` tokens and assigns them to `account`, increasing the total supply. Emits a {Transfer} event with `from` set to the zero address. Requirements: - `account` cannot be the zero address."
					},
					"name()": {
						"details": "Returns the name of the token."
					},
					"owner()": {
						"details": "Returns the address of the current owner."
					},
					"renounceOwnership()": {
						"details": "Leaves the contract without owner. It will not be possible to call `onlyOwner` functions anymore. Can only be called by the current owner. NOTE: Renouncing ownership will leave the contract without an owner, thereby removing any functionality that is only available to the owner."
					},
					"symbol()": {
						"details": "Returns the symbol of the token, usually a shorter version of the name."
					},
					"totalSupply()": {
						"details": "See {IERC20-totalSupply}."
					},
					"transfer(address,uint256)": {
						"details": "See {IERC20-transfer}. Requirements: - `to` cannot be the zero address. - the caller must have a balance of at least `amount`."
					},
					"transferFrom(address,address,uint256)": {
						"details": "See {IERC20-transferFrom}. Emits an {Approval} event indicating the updated allowance. This is not required by the EIP. See the note at the beginning of {ERC20}. NOTE: Does not update the allowance if the current allowance is the maximum `uint256`. Requirements: - `from` and `to` cannot be the zero address. - `from` must have a balance of at least `amount`. - the caller must have allowance for ``from``'s tokens of at least `amount`."
					},
					"transferOwnership(address)": {
						"details": "Transfers ownership of the contract to a new account (`newOwner`). Can only be called by the current owner."
					}
				},
				"title": "AREVEA-Token",
				"version": 1
			},
			"evm": {
				"assembly": "    /* \"NFT-Contracts/contracts/market_deploy/AREVEAToken.sol\":381:1995  contract AREVEAToken is ERC20,Ownable {\r... */\n  mstore(0x40, 0x80)\n    /* \"NFT-Contracts/contracts/market_deploy/AREVEAToken.sol\":778:872  constructor () ERC20 (\"AREVEA\", \"AVA\") {\r... */\n  callvalue\n  dup1\n  iszero\n  tag_1\n  jumpi\n  0x00\n  dup1\n  revert\ntag_1:\n  pop\n    /* \"NFT-Contracts/contracts/market_deploy/ERC20.sol\":2012:2128  constructor(string memory name_, string memory symbol_) {\r... */\n  mload(0x40)\n  dup1\n  0x40\n  add\n  0x40\n  mstore\n  dup1\n  0x06\n  dup2\n  mstore\n  0x20\n  add\n  0x4152455645410000000000000000000000000000000000000000000000000000\n  dup2\n  mstore\n  pop\n  mload(0x40)\n  dup1\n  0x40\n  add\n  0x40\n  mstore\n  dup1\n  0x03\n  dup2\n  mstore\n  0x20\n  add\n  0x4156410000000000000000000000000000000000000000000000000000000000\n  dup2\n  mstore\n  pop\n    /* \"NFT-Contracts/contracts/market_deploy/ERC20.sol\":2087:2092  name_ */\n  dup2\n    /* \"NFT-Contracts/contracts/market_deploy/ERC20.sol\":2079:2084  _name */\n  0x03\n    /* \"NFT-Contracts/contracts/market_deploy/ERC20.sol\":2079:2092  _name = name_ */\n  swap1\n  dup1\n  mload\n  swap1\n  0x20\n  add\n  swap1\n  tag_6\n  swap3\n  swap2\n  swap1\n  tag_7\n  jump\t// in\ntag_6:\n  pop\n    /* \"NFT-Contracts/contracts/market_deploy/ERC20.sol\":2113:2120  symbol_ */\n  dup1\n    /* \"NFT-Contracts/contracts/market_deploy/ERC20.sol\":2103:2110  _symbol */\n  0x04\n    /* \"NFT-Contracts/contracts/market_deploy/ERC20.sol\":2103:2120  _symbol = symbol_ */\n  swap1\n  dup1\n  mload\n  swap1\n  0x20\n  add\n  swap1\n  tag_8\n  swap3\n  swap2\n  swap1\n  tag_7\n  jump\t// in\ntag_8:\n  pop\n    /* \"NFT-Contracts/contracts/market_deploy/ERC20.sol\":2012:2128  constructor(string memory name_, string memory symbol_) {\r... */\n  pop\n  pop\n    /* \"NFT-Contracts/contracts/market_deploy/Ownable.sol\":957:989  _transferOwnership(_msgSender()) */\n  tag_10\n    /* \"NFT-Contracts/contracts/market_deploy/Ownable.sol\":976:988  _msgSender() */\n  tag_11\n    /* \"NFT-Contracts/contracts/market_deploy/Ownable.sol\":976:986  _msgSender */\n  shl(0x20, tag_12)\n    /* \"NFT-Contracts/contracts/market_deploy/Ownable.sol\":976:988  _msgSender() */\n  0x20\n  shr\n  jump\t// in\ntag_11:\n    /* \"NFT-Contracts/contracts/market_deploy/Ownable.sol\":957:975  _transferOwnership */\n  shl(0x20, tag_13)\n    /* \"NFT-Contracts/contracts/market_deploy/Ownable.sol\":957:989  _transferOwnership(_msgSender()) */\n  0x20\n  shr\n  jump\t// in\ntag_10:\n    /* \"NFT-Contracts/contracts/market_deploy/AREVEAToken.sol\":830:862  mint(msg.sender, INITIAL_SUPPLY) */\n  tag_15\n    /* \"NFT-Contracts/contracts/market_deploy/AREVEAToken.sol\":835:845  msg.sender */\n  caller\n    /* \"NFT-Contracts/contracts/market_deploy/AREVEAToken.sol\":496:498  18 */\n  0x12\n    /* \"NFT-Contracts/contracts/market_deploy/AREVEAToken.sol\":565:582  uint256(DECIMALS) */\n  0xff\n  and\n    /* \"NFT-Contracts/contracts/market_deploy/AREVEAToken.sol\":559:561  10 */\n  0x0a\n    /* \"NFT-Contracts/contracts/market_deploy/AREVEAToken.sol\":559:582  10 ** uint256(DECIMALS) */\n  tag_16\n  swap2\n  swap1\n  tag_17\n  jump\t// in\ntag_16:\n    /* \"NFT-Contracts/contracts/market_deploy/AREVEAToken.sol\":548:555  1000000 */\n  0x0f4240\n    /* \"NFT-Contracts/contracts/market_deploy/AREVEAToken.sol\":548:583  1000000 * (10 ** uint256(DECIMALS)) */\n  tag_18\n  swap2\n  swap1\n  tag_19\n  jump\t// in\ntag_18:\n    /* \"NFT-Contracts/contracts/market_deploy/AREVEAToken.sol\":830:834  mint */\n  shl(0x20, tag_20)\n    /* \"NFT-Contracts/contracts/market_deploy/AREVEAToken.sol\":830:862  mint(msg.sender, INITIAL_SUPPLY) */\n  0x20\n  shr\n  jump\t// in\ntag_15:\n    /* \"NFT-Contracts/contracts/market_deploy/AREVEAToken.sol\":381:1995  contract AREVEAToken is ERC20,Ownable {\r... */\n  jump(tag_21)\n    /* \"NFT-Contracts/contracts/market_deploy/Context.sol\":145:260  function _msgSender() internal view virtual returns (address payable) {\r... */\ntag_12:\n    /* \"NFT-Contracts/contracts/market_deploy/Context.sol\":198:213  address payable */\n  0x00\n    /* \"NFT-Contracts/contracts/market_deploy/Context.sol\":241:251  msg.sender */\n  caller\n    /* \"NFT-Contracts/contracts/market_deploy/Context.sol\":226:252  return payable(msg.sender) */\n  swap1\n  pop\n    /* \"NFT-Contracts/contracts/market_deploy/Context.sol\":145:260  function _msgSender() internal view virtual returns (address payable) {\r... */\n  swap1\n  jump\t// out\n    /* \"NFT-Contracts/contracts/market_deploy/Ownable.sol\":2503:2694  function _transferOwnership(address newOwner) internal virtual {\r... */\ntag_13:\n    /* \"NFT-Contracts/contracts/market_deploy/Ownable.sol\":2577:2593  address oldOwner */\n  0x00\n    /* \"NFT-Contracts/contracts/market_deploy/Ownable.sol\":2596:2602  _owner */\n  0x05\n  0x00\n  swap1\n  sload\n  swap1\n  0x0100\n  exp\n  swap1\n  div\n  0xffffffffffffffffffffffffffffffffffffffff\n  and\n    /* \"NFT-Contracts/contracts/market_deploy/Ownable.sol\":2577:2602  address oldOwner = _owner */\n  swap1\n  pop\n    /* \"NFT-Contracts/contracts/market_deploy/Ownable.sol\":2622:2630  newOwner */\n  dup2\n    /* \"NFT-Contracts/contracts/market_deploy/Ownable.sol\":2613:2619  _owner */\n  0x05\n  0x00\n    /* \"NFT-Contracts/contracts/market_deploy/Ownable.sol\":2613:2630  _owner = newOwner */\n  0x0100\n  exp\n  dup2\n  sload\n  dup2\n  0xffffffffffffffffffffffffffffffffffffffff\n  mul\n  not\n  and\n  swap1\n  dup4\n  0xffffffffffffffffffffffffffffffffffffffff\n  and\n  mul\n  or\n  swap1\n  sstore\n  pop\n    /* \"NFT-Contracts/contracts/market_deploy/Ownable.sol\":2677:2685  newOwner */\n  dup2\n    /* \"NFT-Contracts/contracts/market_deploy/Ownable.sol\":2646:2686  OwnershipTransferred(oldOwner, newOwner) */\n  0xffffffffffffffffffffffffffffffffffffffff\n  and\n    /* \"NFT-Contracts/contracts/market_deploy/Ownable.sol\":2667:2675  oldOwner */\n  dup2\n    /* \"NFT-Contracts/contracts/market_deploy/Ownable.sol\":2646:2686  OwnershipTransferred(oldOwner, newOwner) */\n  0xffffffffffffffffffffffffffffffffffffffff\n  and\n  0x8be0079c531659141344cd1fd0a4f28419497f9722a3daafe3b4186f6b6457e0\n  mload(0x40)\n  mload(0x40)\n  dup1\n  swap2\n  sub\n  swap1\n  log3\n    /* \"NFT-Contracts/contracts/market_deploy/Ownable.sol\":2566:2694  {\r... */\n  pop\n    /* \"NFT-Contracts/contracts/market_deploy/Ownable.sol\":2503:2694  function _transferOwnership(address newOwner) internal virtual {\r... */\n  pop\n  jump\t// out\n    /* \"NFT-Contracts/contracts/market_deploy/AREVEAToken.sol\":1137:1335  function mint(address account, uint256 amount) public  onlyOwner  {\r... */\ntag_20:\n    /* \"NFT-Contracts/contracts/market_deploy/Ownable.sol\":1122:1135  _checkOwner() */\n  tag_25\n    /* \"NFT-Contracts/contracts/market_deploy/Ownable.sol\":1122:1133  _checkOwner */\n  shl(0x20, tag_26)\n    /* \"NFT-Contracts/contracts/market_deploy/Ownable.sol\":1122:1135  _checkOwner() */\n  0x20\n  shr\n  jump\t// in\ntag_25:\n    /* \"NFT-Contracts/contracts/market_deploy/AREVEAToken.sol\":496:498  18 */\n  0x12\n    /* \"NFT-Contracts/contracts/market_deploy/AREVEAToken.sol\":656:673  uint256(DECIMALS) */\n  0xff\n  and\n    /* \"NFT-Contracts/contracts/market_deploy/AREVEAToken.sol\":650:652  10 */\n  0x0a\n    /* \"NFT-Contracts/contracts/market_deploy/AREVEAToken.sol\":650:673  10 ** uint256(DECIMALS) */\n  tag_28\n  swap2\n  swap1\n  tag_17\n  jump\t// in\ntag_28:\n    /* \"NFT-Contracts/contracts/market_deploy/AREVEAToken.sol\":633:646  1000000000000 */\n  0xe8d4a51000\n    /* \"NFT-Contracts/contracts/market_deploy/AREVEAToken.sol\":633:674  1000000000000 * (10 ** uint256(DECIMALS)) */\n  tag_29\n  swap2\n  swap1\n  tag_19\n  jump\t// in\ntag_29:\n    /* \"NFT-Contracts/contracts/market_deploy/AREVEAToken.sol\":1223:1248  totalSupply().add(amount) */\n  tag_30\n    /* \"NFT-Contracts/contracts/market_deploy/AREVEAToken.sol\":1241:1247  amount */\n  dup3\n    /* \"NFT-Contracts/contracts/market_deploy/AREVEAToken.sol\":1223:1236  totalSupply() */\n  tag_31\n    /* \"NFT-Contracts/contracts/market_deploy/AREVEAToken.sol\":1223:1234  totalSupply */\n  shl(0x20, tag_32)\n    /* \"NFT-Contracts/contracts/market_deploy/AREVEAToken.sol\":1223:1236  totalSupply() */\n  0x20\n  shr\n  jump\t// in\ntag_31:\n    /* \"NFT-Contracts/contracts/market_deploy/AREVEAToken.sol\":1223:1240  totalSupply().add */\n  or(tag_0_102, shl(0x20, tag_33))\n  swap1\n    /* \"NFT-Contracts/contracts/market_deploy/AREVEAToken.sol\":1223:1248  totalSupply().add(amount) */\n  swap2\n  swap1\n  0x20\n  shr\n  jump\t// in\ntag_30:\n    /* \"NFT-Contracts/contracts/market_deploy/AREVEAToken.sol\":1223:1266  totalSupply().add(amount) <= Maximum_SUPPLY */\n  gt\n  iszero\n    /* \"NFT-Contracts/contracts/market_deploy/AREVEAToken.sol\":1215:1292  require(totalSupply().add(amount) <= Maximum_SUPPLY,\"Maximum supply reached\") */\n  tag_34\n  jumpi\n  mload(0x40)\n  0x08c379a000000000000000000000000000000000000000000000000000000000\n  dup2\n  mstore\n  0x04\n  add\n  tag_35\n  swap1\n  tag_36\n  jump\t// in\ntag_35:\n  mload(0x40)\n  dup1\n  swap2\n  sub\n  swap1\n  revert\ntag_34:\n    /* \"NFT-Contracts/contracts/market_deploy/AREVEAToken.sol\":1304:1325  _mint(account,amount) */\n  tag_37\n    /* \"NFT-Contracts/contracts/market_deploy/AREVEAToken.sol\":1310:1317  account */\n  dup3\n    /* \"NFT-Contracts/contracts/market_deploy/AREVEAToken.sol\":1318:1324  amount */\n  dup3\n    /* \"NFT-Contracts/contracts/market_deploy/AREVEAToken.sol\":1304:1309  _mint */\n  shl(0x20, tag_38)\n    /* \"NFT-Contracts/contracts/market_deploy/AREVEAToken.sol\":1304:1325  _mint(account,amount) */\n  0x20\n  shr\n  jump\t// in\ntag_37:\n    /* \"NFT-Contracts/contracts/market_deploy/AREVEAToken.sol\":1137:1335  function mint(address account, uint256 amount) public  onlyOwner  {\r... */\n  pop\n  pop\n  jump\t// out\n    /* \"NFT-Contracts/contracts/market_deploy/Ownable.sol\":1401:1533  function _checkOwner() internal view virtual {\r... */\ntag_26:\n    /* \"NFT-Contracts/contracts/market_deploy/Ownable.sol\":1476:1488  _msgSender() */\n  tag_40\n    /* \"NFT-Contracts/contracts/market_deploy/Ownable.sol\":1476:1486  _msgSender */\n  shl(0x20, tag_12)\n    /* \"NFT-Contracts/contracts/market_deploy/Ownable.sol\":1476:1488  _msgSender() */\n  0x20\n  shr\n  jump\t// in\ntag_40:\n    /* \"NFT-Contracts/contracts/market_deploy/Ownable.sol\":1465:1488  owner() == _msgSender() */\n  0xffffffffffffffffffffffffffffffffffffffff\n  and\n    /* \"NFT-Contracts/contracts/market_deploy/Ownable.sol\":1465:1472  owner() */\n  tag_41\n    /* \"NFT-Contracts/contracts/market_deploy/Ownable.sol\":1465:1470  owner */\n  shl(0x20, tag_42)\n    /* \"NFT-Contracts/contracts/market_deploy/Ownable.sol\":1465:1472  owner() */\n  0x20\n  shr\n  jump\t// in\ntag_41:\n    /* \"NFT-Contracts/contracts/market_deploy/Ownable.sol\":1465:1488  owner() == _msgSender() */\n  0xffffffffffffffffffffffffffffffffffffffff\n  and\n  eq\n    /* \"NFT-Contracts/contracts/market_deploy/Ownable.sol\":1457:1525  require(owner() == _msgSender(), \"Ownable: caller is not the owner\") */\n  tag_43\n  jumpi\n  mload(0x40)\n  0x08c379a000000000000000000000000000000000000000000000000000000000\n  dup2\n  mstore\n  0x04\n  add\n  tag_44\n  swap1\n  tag_45\n  jump\t// in\ntag_44:\n  mload(0x40)\n  dup1\n  swap2\n  sub\n  swap1\n  revert\ntag_43:\n    /* \"NFT-Contracts/contracts/market_deploy/Ownable.sol\":1401:1533  function _checkOwner() internal view virtual {\r... */\n  jump\t// out\n    /* \"NFT-Contracts/contracts/market_deploy/ERC20.sol\":3318:3426  function totalSupply() public view virtual override returns (uint256) {\r... */\ntag_32:\n    /* \"NFT-Contracts/contracts/market_deploy/ERC20.sol\":3379:3386  uint256 */\n  0x00\n    /* \"NFT-Contracts/contracts/market_deploy/ERC20.sol\":3406:3418  _totalSupply */\n  sload(0x02)\n    /* \"NFT-Contracts/contracts/market_deploy/ERC20.sol\":3399:3418  return _totalSupply */\n  swap1\n  pop\n    /* \"NFT-Contracts/contracts/market_deploy/ERC20.sol\":3318:3426  function totalSupply() public view virtual override returns (uint256) {\r... */\n  swap1\n  jump\t// out\n    /* \"NFT-Contracts/contracts/market_deploy/SafeMath.sol\":302:483  function add(uint256 a, uint256 b) internal pure returns (uint256) {\r... */\ntag_33:\n    /* \"NFT-Contracts/contracts/market_deploy/SafeMath.sol\":360:367  uint256 */\n  0x00\n    /* \"NFT-Contracts/contracts/market_deploy/SafeMath.sol\":380:389  uint256 c */\n  dup1\n    /* \"NFT-Contracts/contracts/market_deploy/SafeMath.sol\":396:397  b */\n  dup3\n    /* \"NFT-Contracts/contracts/market_deploy/SafeMath.sol\":392:393  a */\n  dup5\n    /* \"NFT-Contracts/contracts/market_deploy/SafeMath.sol\":392:397  a + b */\n  tag_48\n  swap2\n  swap1\n  tag_49\n  jump\t// in\ntag_48:\n    /* \"NFT-Contracts/contracts/market_deploy/SafeMath.sol\":380:397  uint256 c = a + b */\n  swap1\n  pop\n    /* \"NFT-Contracts/contracts/market_deploy/SafeMath.sol\":421:422  a */\n  dup4\n    /* \"NFT-Contracts/contracts/market_deploy/SafeMath.sol\":416:417  c */\n  dup2\n    /* \"NFT-Contracts/contracts/market_deploy/SafeMath.sol\":416:422  c >= a */\n  lt\n  iszero\n    /* \"NFT-Contracts/contracts/market_deploy/SafeMath.sol\":408:454  require(c >= a, \"SafeMath: addition overflow\") */\n  tag_50\n  jumpi\n  mload(0x40)\n  0x08c379a000000000000000000000000000000000000000000000000000000000\n  dup2\n  mstore\n  0x04\n  add\n  tag_51\n  swap1\n  tag_52\n  jump\t// in\ntag_51:\n  mload(0x40)\n  dup1\n  swap2\n  sub\n  swap1\n  revert\ntag_50:\n    /* \"NFT-Contracts/contracts/market_deploy/SafeMath.sol\":474:475  c */\n  dup1\n    /* \"NFT-Contracts/contracts/market_deploy/SafeMath.sol\":467:475  return c */\n  swap2\n  pop\n  pop\n    /* \"NFT-Contracts/contracts/market_deploy/SafeMath.sol\":302:483  function add(uint256 a, uint256 b) internal pure returns (uint256) {\r... */\n  swap3\n  swap2\n  pop\n  pop\n  jump\t// out\n    /* \"NFT-Contracts/contracts/market_deploy/ERC20.sol\":8639:9038  function _mint(address account, uint256 amount) internal virtual {\r... */\ntag_38:\n    /* \"NFT-Contracts/contracts/market_deploy/ERC20.sol\":8742:8743  0 */\n  0x00\n    /* \"NFT-Contracts/contracts/market_deploy/ERC20.sol\":8723:8744  account != address(0) */\n  0xffffffffffffffffffffffffffffffffffffffff\n  and\n    /* \"NFT-Contracts/contracts/market_deploy/ERC20.sol\":8723:8730  account */\n  dup3\n    /* \"NFT-Contracts/contracts/market_deploy/ERC20.sol\":8723:8744  account != address(0) */\n  0xffffffffffffffffffffffffffffffffffffffff\n  and\n  eq\n  iszero\n    /* \"NFT-Contracts/contracts/market_deploy/ERC20.sol\":8715:8780  require(account != address(0), \"ERC20: mint to the zero address\") */\n  tag_54\n  jumpi\n  mload(0x40)\n  0x08c379a000000000000000000000000000000000000000000000000000000000\n  dup2\n  mstore\n  0x04\n  add\n  tag_55\n  swap1\n  tag_56\n  jump\t// in\ntag_55:\n  mload(0x40)\n  dup1\n  swap2\n  sub\n  swap1\n  revert\ntag_54:\n    /* \"NFT-Contracts/contracts/market_deploy/ERC20.sol\":8793:8842  _beforeTokenTransfer(address(0), account, amount) */\n  tag_57\n    /* \"NFT-Contracts/contracts/market_deploy/ERC20.sol\":8822:8823  0 */\n  0x00\n    /* \"NFT-Contracts/contracts/market_deploy/ERC20.sol\":8826:8833  account */\n  dup4\n    /* \"NFT-Contracts/contracts/market_deploy/ERC20.sol\":8835:8841  amount */\n  dup4\n    /* \"NFT-Contracts/contracts/market_deploy/ERC20.sol\":8793:8813  _beforeTokenTransfer */\n  shl(0x20, tag_58)\n    /* \"NFT-Contracts/contracts/market_deploy/ERC20.sol\":8793:8842  _beforeTokenTransfer(address(0), account, amount) */\n  0x20\n  shr\n  jump\t// in\ntag_57:\n    /* \"NFT-Contracts/contracts/market_deploy/ERC20.sol\":8871:8877  amount */\n  dup1\n    /* \"NFT-Contracts/contracts/market_deploy/ERC20.sol\":8855:8867  _totalSupply */\n  0x02\n  0x00\n    /* \"NFT-Contracts/contracts/market_deploy/ERC20.sol\":8855:8877  _totalSupply += amount */\n  dup3\n  dup3\n  sload\n  tag_59\n  swap2\n  swap1\n  tag_49\n  jump\t// in\ntag_59:\n  swap3\n  pop\n  pop\n  dup2\n  swap1\n  sstore\n  pop\n    /* \"NFT-Contracts/contracts/market_deploy/ERC20.sol\":8910:8916  amount */\n  dup1\n    /* \"NFT-Contracts/contracts/market_deploy/ERC20.sol\":8888:8897  _balances */\n  0x00\n    /* \"NFT-Contracts/contracts/market_deploy/ERC20.sol\":8888:8906  _balances[account] */\n  dup1\n    /* \"NFT-Contracts/contracts/market_deploy/ERC20.sol\":8898:8905  account */\n  dup5\n    /* \"NFT-Contracts/contracts/market_deploy/ERC20.sol\":8888:8906  _balances[account] */\n  0xffffffffffffffffffffffffffffffffffffffff\n  and\n  0xffffffffffffffffffffffffffffffffffffffff\n  and\n  dup2\n  mstore\n  0x20\n  add\n  swap1\n  dup2\n  mstore\n  0x20\n  add\n  0x00\n  keccak256\n  0x00\n    /* \"NFT-Contracts/contracts/market_deploy/ERC20.sol\":8888:8916  _balances[account] += amount */\n  dup3\n  dup3\n  sload\n  tag_60\n  swap2\n  swap1\n  tag_49\n  jump\t// in\ntag_60:\n  swap3\n  pop\n  pop\n  dup2\n  swap1\n  sstore\n  pop\n    /* \"NFT-Contracts/contracts/market_deploy/ERC20.sol\":8953:8960  account */\n  dup2\n    /* \"NFT-Contracts/contracts/market_deploy/ERC20.sol\":8932:8969  Transfer(address(0), account, amount) */\n  0xffffffffffffffffffffffffffffffffffffffff\n  and\n    /* \"NFT-Contracts/contracts/market_deploy/ERC20.sol\":8949:8950  0 */\n  0x00\n    /* \"NFT-Contracts/contracts/market_deploy/ERC20.sol\":8932:8969  Transfer(address(0), account, amount) */\n  0xffffffffffffffffffffffffffffffffffffffff\n  and\n  0xddf252ad1be2c89b69c2b068fc378daa952ba7f163c4a11628f55a4df523b3ef\n    /* \"NFT-Contracts/contracts/market_deploy/ERC20.sol\":8962:8968  amount */\n  dup4\n    /* \"NFT-Contracts/contracts/market_deploy/ERC20.sol\":8932:8969  Transfer(address(0), account, amount) */\n  mload(0x40)\n  tag_61\n  swap2\n  swap1\n  tag_62\n  jump\t// in\ntag_61:\n  mload(0x40)\n  dup1\n  swap2\n  sub\n  swap1\n  log3\n    /* \"NFT-Contracts/contracts/market_deploy/ERC20.sol\":8982:9030  _afterTokenTransfer(address(0), account, amount) */\n  tag_63\n    /* \"NFT-Contracts/contracts/market_deploy/ERC20.sol\":9010:9011  0 */\n  0x00\n    /* \"NFT-Contracts/contracts/market_deploy/ERC20.sol\":9014:9021  account */\n  dup4\n    /* \"NFT-Contracts/contracts/market_deploy/ERC20.sol\":9023:9029  amount */\n  dup4\n    /* \"NFT-Contracts/contracts/market_deploy/ERC20.sol\":8982:9001  _afterTokenTransfer */\n  shl(0x20, tag_64)\n    /* \"NFT-Contracts/contracts/market_deploy/ERC20.sol\":8982:9030  _afterTokenTransfer(address(0), account, amount) */\n  0x20\n  shr\n  jump\t// in\ntag_63:\n    /* \"NFT-Contracts/contracts/market_deploy/ERC20.sol\":8639:9038  function _mint(address account, uint256 amount) internal virtual {\r... */\n  pop\n  pop\n  jump\t// out\n    /* \"NFT-Contracts/contracts/market_deploy/Ownable.sol\":1236:1323  function owner() public view virtual returns (address) {\r... */\ntag_42:\n    /* \"NFT-Contracts/contracts/market_deploy/Ownable.sol\":1282:1289  address */\n  0x00\n    /* \"NFT-Contracts/contracts/market_deploy/Ownable.sol\":1309:1315  _owner */\n  0x05\n  0x00\n  swap1\n  sload\n  swap1\n  0x0100\n  exp\n  swap1\n  div\n  0xffffffffffffffffffffffffffffffffffffffff\n  and\n    /* \"NFT-Contracts/contracts/market_deploy/Ownable.sol\":1302:1315  return _owner */\n  swap1\n  pop\n    /* \"NFT-Contracts/contracts/market_deploy/Ownable.sol\":1236:1323  function owner() public view virtual returns (address) {\r... */\n  swap1\n  jump\t// out\n    /* \"NFT-Contracts/contracts/market_deploy/ERC20.sol\":12124:12249  function _beforeTokenTransfer(\r... */\ntag_58:\n  pop\n  pop\n  pop\n  jump\t// out\n    /* \"NFT-Contracts/contracts/market_deploy/ERC20.sol\":12853:12977  function _afterTokenTransfer(\r... */\ntag_64:\n  pop\n  pop\n  pop\n  jump\t// out\n    /* \"NFT-Contracts/contracts/market_deploy/AREVEAToken.sol\":381:1995  contract AREVEAToken is ERC20,Ownable {\r... */\ntag_7:\n  dup3\n  dup1\n  sload\n  tag_68\n  swap1\n  tag_69\n  jump\t// in\ntag_68:\n  swap1\n  0x00\n  mstore\n  keccak256(0x00, 0x20)\n  swap1\n  0x1f\n  add\n  0x20\n  swap1\n  div\n  dup2\n  add\n  swap3\n  dup3\n  tag_71\n  jumpi\n  0x00\n  dup6\n  sstore\n  jump(tag_70)\ntag_71:\n  dup3\n  0x1f\n  lt\n  tag_72\n  jumpi\n  dup1\n  mload\n  not(0xff)\n  and\n  dup4\n  dup1\n  add\n  or\n  dup6\n  sstore\n  jump(tag_70)\ntag_72:\n  dup3\n  dup1\n  add\n  0x01\n  add\n  dup6\n  sstore\n  dup3\n  iszero\n  tag_70\n  jumpi\n  swap2\n  dup3\n  add\ntag_73:\n  dup3\n  dup2\n  gt\n  iszero\n  tag_74\n  jumpi\n  dup3\n  mload\n  dup3\n  sstore\n  swap2\n  0x20\n  add\n  swap2\n  swap1\n  0x01\n  add\n  swap1\n  jump(tag_73)\ntag_74:\ntag_70:\n  pop\n  swap1\n  pop\n  tag_75\n  swap2\n  swap1\n  tag_76\n  jump\t// in\ntag_75:\n  pop\n  swap1\n  jump\t// out\ntag_76:\ntag_77:\n  dup1\n  dup3\n  gt\n  iszero\n  tag_78\n  jumpi\n  0x00\n  dup2\n  0x00\n  swap1\n  sstore\n  pop\n  0x01\n  add\n  jump(tag_77)\ntag_78:\n  pop\n  swap1\n  jump\t// out\n    /* \"#utility.yul\":7:373   */\ntag_80:\n    /* \"#utility.yul\":149:152   */\n  0x00\n    /* \"#utility.yul\":170:237   */\n  tag_82\n    /* \"#utility.yul\":234:236   */\n  0x1b\n    /* \"#utility.yul\":229:232   */\n  dup4\n    /* \"#utility.yul\":170:237   */\n  tag_83\n  jump\t// in\ntag_82:\n    /* \"#utility.yul\":163:237   */\n  swap2\n  pop\n    /* \"#utility.yul\":246:339   */\n  tag_84\n    /* \"#utility.yul\":335:338   */\n  dup3\n    /* \"#utility.yul\":246:339   */\n  tag_85\n  jump\t// in\ntag_84:\n    /* \"#utility.yul\":364:366   */\n  0x20\n    /* \"#utility.yul\":359:362   */\n  dup3\n    /* \"#utility.yul\":355:367   */\n  add\n    /* \"#utility.yul\":348:367   */\n  swap1\n  pop\n    /* \"#utility.yul\":7:373   */\n  swap2\n  swap1\n  pop\n  jump\t// out\n    /* \"#utility.yul\":379:745   */\ntag_86:\n    /* \"#utility.yul\":521:524   */\n  0x00\n    /* \"#utility.yul\":542:609   */\n  tag_88\n    /* \"#utility.yul\":606:608   */\n  0x16\n    /* \"#utility.yul\":601:604   */\n  dup4\n    /* \"#utility.yul\":542:609   */\n  tag_83\n  jump\t// in\ntag_88:\n    /* \"#utility.yul\":535:609   */\n  swap2\n  pop\n    /* \"#utility.yul\":618:711   */\n  tag_89\n    /* \"#utility.yul\":707:710   */\n  dup3\n    /* \"#utility.yul\":618:711   */\n  tag_90\n  jump\t// in\ntag_89:\n    /* \"#utility.yul\":736:738   */\n  0x20\n    /* \"#utility.yul\":731:734   */\n  dup3\n    /* \"#utility.yul\":727:739   */\n  add\n    /* \"#utility.yul\":720:739   */\n  swap1\n  pop\n    /* \"#utility.yul\":379:745   */\n  swap2\n  swap1\n  pop\n  jump\t// out\n    /* \"#utility.yul\":751:1117   */\ntag_91:\n    /* \"#utility.yul\":893:896   */\n  0x00\n    /* \"#utility.yul\":914:981   */\n  tag_93\n    /* \"#utility.yul\":978:980   */\n  0x20\n    /* \"#utility.yul\":973:976   */\n  dup4\n    /* \"#utility.yul\":914:981   */\n  tag_83\n  jump\t// in\ntag_93:\n    /* \"#utility.yul\":907:981   */\n  swap2\n  pop\n    /* \"#utility.yul\":990:1083   */\n  tag_94\n    /* \"#utility.yul\":1079:1082   */\n  dup3\n    /* \"#utility.yul\":990:1083   */\n  tag_95\n  jump\t// in\ntag_94:\n    /* \"#utility.yul\":1108:1110   */\n  0x20\n    /* \"#utility.yul\":1103:1106   */\n  dup3\n    /* \"#utility.yul\":1099:1111   */\n  add\n    /* \"#utility.yul\":1092:1111   */\n  swap1\n  pop\n    /* \"#utility.yul\":751:1117   */\n  swap2\n  swap1\n  pop\n  jump\t// out\n    /* \"#utility.yul\":1123:1489   */\ntag_96:\n    /* \"#utility.yul\":1265:1268   */\n  0x00\n    /* \"#utility.yul\":1286:1353   */\n  tag_98\n    /* \"#utility.yul\":1350:1352   */\n  0x1f\n    /* \"#utility.yul\":1345:1348   */\n  dup4\n    /* \"#utility.yul\":1286:1353   */\n  tag_83\n  jump\t// in\ntag_98:\n    /* \"#utility.yul\":1279:1353   */\n  swap2\n  pop\n    /* \"#utility.yul\":1362:1455   */\n  tag_99\n    /* \"#utility.yul\":1451:1454   */\n  dup3\n    /* \"#utility.yul\":1362:1455   */\n  tag_100\n  jump\t// in\ntag_99:\n    /* \"#utility.yul\":1480:1482   */\n  0x20\n    /* \"#utility.yul\":1475:1478   */\n  dup3\n    /* \"#utility.yul\":1471:1483   */\n  add\n    /* \"#utility.yul\":1464:1483   */\n  swap1\n  pop\n    /* \"#utility.yul\":1123:1489   */\n  swap2\n  swap1\n  pop\n  jump\t// out\n    /* \"#utility.yul\":1495:1613   */\ntag_101:\n    /* \"#utility.yul\":1582:1606   */\n  tag_103\n    /* \"#utility.yul\":1600:1605   */\n  dup2\n    /* \"#utility.yul\":1582:1606   */\n  tag_104\n  jump\t// in\ntag_103:\n    /* \"#utility.yul\":1577:1580   */\n  dup3\n    /* \"#utility.yul\":1570:1607   */\n  mstore\n    /* \"#utility.yul\":1495:1613   */\n  pop\n  pop\n  jump\t// out\n    /* \"#utility.yul\":1619:2038   */\ntag_52:\n    /* \"#utility.yul\":1785:1789   */\n  0x00\n    /* \"#utility.yul\":1823:1825   */\n  0x20\n    /* \"#utility.yul\":1812:1821   */\n  dup3\n    /* \"#utility.yul\":1808:1826   */\n  add\n    /* \"#utility.yul\":1800:1826   */\n  swap1\n  pop\n    /* \"#utility.yul\":1872:1881   */\n  dup2\n    /* \"#utility.yul\":1866:1870   */\n  dup2\n    /* \"#utility.yul\":1862:1882   */\n  sub\n    /* \"#utility.yul\":1858:1859   */\n  0x00\n    /* \"#utility.yul\":1847:1856   */\n  dup4\n    /* \"#utility.yul\":1843:1860   */\n  add\n    /* \"#utility.yul\":1836:1883   */\n  mstore\n    /* \"#utility.yul\":1900:2031   */\n  tag_106\n    /* \"#utility.yul\":2026:2030   */\n  dup2\n    /* \"#utility.yul\":1900:2031   */\n  tag_80\n  jump\t// in\ntag_106:\n    /* \"#utility.yul\":1892:2031   */\n  swap1\n  pop\n    /* \"#utility.yul\":1619:2038   */\n  swap2\n  swap1\n  pop\n  jump\t// out\n    /* \"#utility.yul\":2044:2463   */\ntag_36:\n    /* \"#utility.yul\":2210:2214   */\n  0x00\n    /* \"#utility.yul\":2248:2250   */\n  0x20\n    /* \"#utility.yul\":2237:2246   */\n  dup3\n    /* \"#utility.yul\":2233:2251   */\n  add\n    /* \"#utility.yul\":2225:2251   */\n  swap1\n  pop\n    /* \"#utility.yul\":2297:2306   */\n  dup2\n    /* \"#utility.yul\":2291:2295   */\n  dup2\n    /* \"#utility.yul\":2287:2307   */\n  sub\n    /* \"#utility.yul\":2283:2284   */\n  0x00\n    /* \"#utility.yul\":2272:2281   */\n  dup4\n    /* \"#utility.yul\":2268:2285   */\n  add\n    /* \"#utility.yul\":2261:2308   */\n  mstore\n    /* \"#utility.yul\":2325:2456   */\n  tag_108\n    /* \"#utility.yul\":2451:2455   */\n  dup2\n    /* \"#utility.yul\":2325:2456   */\n  tag_86\n  jump\t// in\ntag_108:\n    /* \"#utility.yul\":2317:2456   */\n  swap1\n  pop\n    /* \"#utility.yul\":2044:2463   */\n  swap2\n  swap1\n  pop\n  jump\t// out\n    /* \"#utility.yul\":2469:2888   */\ntag_45:\n    /* \"#utility.yul\":2635:2639   */\n  0x00\n    /* \"#utility.yul\":2673:2675   */\n  0x20\n    /* \"#utility.yul\":2662:2671   */\n  dup3\n    /* \"#utility.yul\":2658:2676   */\n  add\n    /* \"#utility.yul\":2650:2676   */\n  swap1\n  pop\n    /* \"#utility.yul\":2722:2731   */\n  dup2\n    /* \"#utility.yul\":2716:2720   */\n  dup2\n    /* \"#utility.yul\":2712:2732   */\n  sub\n    /* \"#utility.yul\":2708:2709   */\n  0x00\n    /* \"#utility.yul\":2697:2706   */\n  dup4\n    /* \"#utility.yul\":2693:2710   */\n  add\n    /* \"#utility.yul\":2686:2733   */\n  mstore\n    /* \"#utility.yul\":2750:2881   */\n  tag_110\n    /* \"#utility.yul\":2876:2880   */\n  dup2\n    /* \"#utility.yul\":2750:2881   */\n  tag_91\n  jump\t// in\ntag_110:\n    /* \"#utility.yul\":2742:2881   */\n  swap1\n  pop\n    /* \"#utility.yul\":2469:2888   */\n  swap2\n  swap1\n  pop\n  jump\t// out\n    /* \"#utility.yul\":2894:3313   */\ntag_56:\n    /* \"#utility.yul\":3060:3064   */\n  0x00\n    /* \"#utility.yul\":3098:3100   */\n  0x20\n    /* \"#utility.yul\":3087:3096   */\n  dup3\n    /* \"#utility.yul\":3083:3101   */\n  add\n    /* \"#utility.yul\":3075:3101   */\n  swap1\n  pop\n    /* \"#utility.yul\":3147:3156   */\n  dup2\n    /* \"#utility.yul\":3141:3145   */\n  dup2\n    /* \"#utility.yul\":3137:3157   */\n  sub\n    /* \"#utility.yul\":3133:3134   */\n  0x00\n    /* \"#utility.yul\":3122:3131   */\n  dup4\n    /* \"#utility.yul\":3118:3135   */\n  add\n    /* \"#utility.yul\":3111:3158   */\n  mstore\n    /* \"#utility.yul\":3175:3306   */\n  tag_112\n    /* \"#utility.yul\":3301:3305   */\n  dup2\n    /* \"#utility.yul\":3175:3306   */\n  tag_96\n  jump\t// in\ntag_112:\n    /* \"#utility.yul\":3167:3306   */\n  swap1\n  pop\n    /* \"#utility.yul\":2894:3313   */\n  swap2\n  swap1\n  pop\n  jump\t// out\n    /* \"#utility.yul\":3319:3541   */\ntag_62:\n    /* \"#utility.yul\":3412:3416   */\n  0x00\n    /* \"#utility.yul\":3450:3452   */\n  0x20\n    /* \"#utility.yul\":3439:3448   */\n  dup3\n    /* \"#utility.yul\":3435:3453   */\n  add\n    /* \"#utility.yul\":3427:3453   */\n  swap1\n  pop\n    /* \"#utility.yul\":3463:3534   */\n  tag_114\n    /* \"#utility.yul\":3531:3532   */\n  0x00\n    /* \"#utility.yul\":3520:3529   */\n  dup4\n    /* \"#utility.yul\":3516:3533   */\n  add\n    /* \"#utility.yul\":3507:3513   */\n  dup5\n    /* \"#utility.yul\":3463:3534   */\n  tag_101\n  jump\t// in\ntag_114:\n    /* \"#utility.yul\":3319:3541   */\n  swap3\n  swap2\n  pop\n  pop\n  jump\t// out\n    /* \"#utility.yul\":3547:3716   */\ntag_83:\n    /* \"#utility.yul\":3631:3642   */\n  0x00\n    /* \"#utility.yul\":3665:3671   */\n  dup3\n    /* \"#utility.yul\":3660:3663   */\n  dup3\n    /* \"#utility.yul\":3653:3672   */\n  mstore\n    /* \"#utility.yul\":3705:3709   */\n  0x20\n    /* \"#utility.yul\":3700:3703   */\n  dup3\n    /* \"#utility.yul\":3696:3710   */\n  add\n    /* \"#utility.yul\":3681:3710   */\n  swap1\n  pop\n    /* \"#utility.yul\":3547:3716   */\n  swap3\n  swap2\n  pop\n  pop\n  jump\t// out\n    /* \"#utility.yul\":3722:4027   */\ntag_49:\n    /* \"#utility.yul\":3762:3765   */\n  0x00\n    /* \"#utility.yul\":3781:3801   */\n  tag_117\n    /* \"#utility.yul\":3799:3800   */\n  dup3\n    /* \"#utility.yul\":3781:3801   */\n  tag_104\n  jump\t// in\ntag_117:\n    /* \"#utility.yul\":3776:3801   */\n  swap2\n  pop\n    /* \"#utility.yul\":3815:3835   */\n  tag_118\n    /* \"#utility.yul\":3833:3834   */\n  dup4\n    /* \"#utility.yul\":3815:3835   */\n  tag_104\n  jump\t// in\ntag_118:\n    /* \"#utility.yul\":3810:3835   */\n  swap3\n  pop\n    /* \"#utility.yul\":3969:3970   */\n  dup3\n    /* \"#utility.yul\":3901:3967   */\n  0xffffffffffffffffffffffffffffffffffffffffffffffffffffffffffffffff\n    /* \"#utility.yul\":3897:3971   */\n  sub\n    /* \"#utility.yul\":3894:3895   */\n  dup3\n    /* \"#utility.yul\":3891:3972   */\n  gt\n    /* \"#utility.yul\":3888:3995   */\n  iszero\n  tag_119\n  jumpi\n    /* \"#utility.yul\":3975:3993   */\n  tag_120\n  tag_121\n  jump\t// in\ntag_120:\n    /* \"#utility.yul\":3888:3995   */\ntag_119:\n    /* \"#utility.yul\":4019:4020   */\n  dup3\n    /* \"#utility.yul\":4016:4017   */\n  dup3\n    /* \"#utility.yul\":4012:4021   */\n  add\n    /* \"#utility.yul\":4005:4021   */\n  swap1\n  pop\n    /* \"#utility.yul\":3722:4027   */\n  swap3\n  swap2\n  pop\n  pop\n  jump\t// out\n    /* \"#utility.yul\":4033:4881   */\ntag_122:\n    /* \"#utility.yul\":4094:4099   */\n  0x00\n    /* \"#utility.yul\":4101:4105   */\n  dup1\n    /* \"#utility.yul\":4125:4131   */\n  dup3\n    /* \"#utility.yul\":4116:4131   */\n  swap2\n  pop\n    /* \"#utility.yul\":4149:4154   */\n  dup4\n    /* \"#utility.yul\":4140:4154   */\n  swap1\n  pop\n    /* \"#utility.yul\":4163:4875   */\ntag_124:\n    /* \"#utility.yul\":4184:4185   */\n  0x01\n    /* \"#utility.yul\":4174:4182   */\n  dup6\n    /* \"#utility.yul\":4171:4186   */\n  gt\n    /* \"#utility.yul\":4163:4875   */\n  iszero\n  tag_126\n  jumpi\n    /* \"#utility.yul\":4279:4283   */\n  dup1\n    /* \"#utility.yul\":4274:4277   */\n  dup7\n    /* \"#utility.yul\":4270:4284   */\n  div\n    /* \"#utility.yul\":4264:4268   */\n  dup2\n    /* \"#utility.yul\":4261:4285   */\n  gt\n    /* \"#utility.yul\":4258:4308   */\n  iszero\n  tag_127\n  jumpi\n    /* \"#utility.yul\":4288:4306   */\n  tag_128\n  tag_121\n  jump\t// in\ntag_128:\n    /* \"#utility.yul\":4258:4308   */\ntag_127:\n    /* \"#utility.yul\":4338:4339   */\n  0x01\n    /* \"#utility.yul\":4328:4336   */\n  dup6\n    /* \"#utility.yul\":4324:4340   */\n  and\n    /* \"#utility.yul\":4321:4772   */\n  iszero\n  tag_129\n  jumpi\n    /* \"#utility.yul\":4753:4757   */\n  dup1\n    /* \"#utility.yul\":4746:4751   */\n  dup3\n    /* \"#utility.yul\":4742:4758   */\n  mul\n    /* \"#utility.yul\":4733:4758   */\n  swap2\n  pop\n    /* \"#utility.yul\":4321:4772   */\ntag_129:\n    /* \"#utility.yul\":4803:4807   */\n  dup1\n    /* \"#utility.yul\":4797:4801   */\n  dup2\n    /* \"#utility.yul\":4793:4808   */\n  mul\n    /* \"#utility.yul\":4785:4808   */\n  swap1\n  pop\n    /* \"#utility.yul\":4833:4865   */\n  tag_130\n    /* \"#utility.yul\":4856:4864   */\n  dup6\n    /* \"#utility.yul\":4833:4865   */\n  tag_131\n  jump\t// in\ntag_130:\n    /* \"#utility.yul\":4821:4865   */\n  swap5\n  pop\n    /* \"#utility.yul\":4163:4875   */\n  jump(tag_124)\ntag_126:\n    /* \"#utility.yul\":4033:4881   */\n  swap5\n  pop\n  swap5\n  swap3\n  pop\n  pop\n  pop\n  jump\t// out\n    /* \"#utility.yul\":4887:5172   */\ntag_17:\n    /* \"#utility.yul\":4947:4952   */\n  0x00\n    /* \"#utility.yul\":4971:4994   */\n  tag_133\n    /* \"#utility.yul\":4989:4993   */\n  dup3\n    /* \"#utility.yul\":4971:4994   */\n  tag_104\n  jump\t// in\ntag_133:\n    /* \"#utility.yul\":4963:4994   */\n  swap2\n  pop\n    /* \"#utility.yul\":5015:5042   */\n  tag_134\n    /* \"#utility.yul\":5033:5041   */\n  dup4\n    /* \"#utility.yul\":5015:5042   */\n  tag_104\n  jump\t// in\ntag_134:\n    /* \"#utility.yul\":5003:5042   */\n  swap3\n  pop\n    /* \"#utility.yul\":5061:5165   */\n  tag_135\n    /* \"#utility.yul\":5098:5164   */\n  0xffffffffffffffffffffffffffffffffffffffffffffffffffffffffffffffff\n    /* \"#utility.yul\":5088:5096   */\n  dup5\n    /* \"#utility.yul\":5082:5086   */\n  dup5\n    /* \"#utility.yul\":5061:5165   */\n  tag_136\n  jump\t// in\ntag_135:\n    /* \"#utility.yul\":5052:5165   */\n  swap1\n  pop\n    /* \"#utility.yul\":4887:5172   */\n  swap3\n  swap2\n  pop\n  pop\n  jump\t// out\n    /* \"#utility.yul\":5178:6251   */\ntag_136:\n    /* \"#utility.yul\":5232:5237   */\n  0x00\n    /* \"#utility.yul\":5423:5431   */\n  dup3\n    /* \"#utility.yul\":5413:5453   */\n  tag_138\n  jumpi\n    /* \"#utility.yul\":5444:5445   */\n  0x01\n    /* \"#utility.yul\":5435:5445   */\n  swap1\n  pop\n    /* \"#utility.yul\":5446:5451   */\n  jump(tag_137)\n    /* \"#utility.yul\":5413:5453   */\ntag_138:\n    /* \"#utility.yul\":5472:5476   */\n  dup2\n    /* \"#utility.yul\":5462:5498   */\n  tag_139\n  jumpi\n    /* \"#utility.yul\":5489:5490   */\n  0x00\n    /* \"#utility.yul\":5480:5490   */\n  swap1\n  pop\n    /* \"#utility.yul\":5491:5496   */\n  jump(tag_137)\n    /* \"#utility.yul\":5462:5498   */\ntag_139:\n    /* \"#utility.yul\":5558:5562   */\n  dup2\n    /* \"#utility.yul\":5606:5607   */\n  0x01\n    /* \"#utility.yul\":5601:5628   */\n  dup2\n  eq\n  tag_141\n  jumpi\n    /* \"#utility.yul\":5642:5643   */\n  0x02\n    /* \"#utility.yul\":5637:5828   */\n  dup2\n  eq\n  tag_142\n  jumpi\n    /* \"#utility.yul\":5551:5828   */\n  jump(tag_140)\n    /* \"#utility.yul\":5601:5628   */\ntag_141:\n    /* \"#utility.yul\":5619:5620   */\n  0x01\n    /* \"#utility.yul\":5610:5620   */\n  swap2\n  pop\n    /* \"#utility.yul\":5621:5626   */\n  pop\n  jump(tag_137)\n    /* \"#utility.yul\":5637:5828   */\ntag_142:\n    /* \"#utility.yul\":5682:5685   */\n  0xff\n    /* \"#utility.yul\":5672:5680   */\n  dup5\n    /* \"#utility.yul\":5669:5686   */\n  gt\n    /* \"#utility.yul\":5666:5709   */\n  iszero\n  tag_143\n  jumpi\n    /* \"#utility.yul\":5689:5707   */\n  tag_144\n  tag_121\n  jump\t// in\ntag_144:\n    /* \"#utility.yul\":5666:5709   */\ntag_143:\n    /* \"#utility.yul\":5738:5746   */\n  dup4\n    /* \"#utility.yul\":5735:5736   */\n  0x02\n    /* \"#utility.yul\":5731:5747   */\n  exp\n    /* \"#utility.yul\":5722:5747   */\n  swap2\n  pop\n    /* \"#utility.yul\":5773:5776   */\n  dup5\n    /* \"#utility.yul\":5766:5771   */\n  dup3\n    /* \"#utility.yul\":5763:5777   */\n  gt\n    /* \"#utility.yul\":5760:5800   */\n  iszero\n  tag_145\n  jumpi\n    /* \"#utility.yul\":5780:5798   */\n  tag_146\n  tag_121\n  jump\t// in\ntag_146:\n    /* \"#utility.yul\":5760:5800   */\ntag_145:\n    /* \"#utility.yul\":5813:5818   */\n  pop\n  jump(tag_137)\n    /* \"#utility.yul\":5551:5828   */\ntag_140:\n  pop\n    /* \"#utility.yul\":5937:5939   */\n  0x20\n    /* \"#utility.yul\":5927:5935   */\n  dup4\n    /* \"#utility.yul\":5924:5940   */\n  lt\n    /* \"#utility.yul\":5918:5921   */\n  0x0133\n    /* \"#utility.yul\":5912:5916   */\n  dup4\n    /* \"#utility.yul\":5909:5922   */\n  lt\n    /* \"#utility.yul\":5905:5941   */\n  and\n    /* \"#utility.yul\":5887:5889   */\n  0x4e\n    /* \"#utility.yul\":5877:5885   */\n  dup5\n    /* \"#utility.yul\":5874:5890   */\n  lt\n    /* \"#utility.yul\":5869:5871   */\n  0x0b\n    /* \"#utility.yul\":5863:5867   */\n  dup5\n    /* \"#utility.yul\":5860:5872   */\n  lt\n    /* \"#utility.yul\":5856:5891   */\n  and\n    /* \"#utility.yul\":5840:5951   */\n  or\n    /* \"#utility.yul\":5837:6083   */\n  iszero\n  tag_147\n  jumpi\n    /* \"#utility.yul\":5993:6001   */\n  dup3\n    /* \"#utility.yul\":5987:5991   */\n  dup3\n    /* \"#utility.yul\":5983:6002   */\n  exp\n    /* \"#utility.yul\":5974:6002   */\n  swap1\n  pop\n    /* \"#utility.yul\":6028:6031   */\n  dup4\n    /* \"#utility.yul\":6021:6026   */\n  dup2\n    /* \"#utility.yul\":6018:6032   */\n  gt\n    /* \"#utility.yul\":6015:6055   */\n  iszero\n  tag_148\n  jumpi\n    /* \"#utility.yul\":6035:6053   */\n  tag_149\n  tag_121\n  jump\t// in\ntag_149:\n    /* \"#utility.yul\":6015:6055   */\ntag_148:\n    /* \"#utility.yul\":6068:6073   */\n  jump(tag_137)\n    /* \"#utility.yul\":5837:6083   */\ntag_147:\n    /* \"#utility.yul\":6108:6150   */\n  tag_150\n    /* \"#utility.yul\":6146:6149   */\n  dup5\n    /* \"#utility.yul\":6136:6144   */\n  dup5\n    /* \"#utility.yul\":6130:6134   */\n  dup5\n    /* \"#utility.yul\":6127:6128   */\n  0x01\n    /* \"#utility.yul\":6108:6150   */\n  tag_122\n  jump\t// in\ntag_150:\n    /* \"#utility.yul\":6093:6150   */\n  swap3\n  pop\n  swap1\n  pop\n    /* \"#utility.yul\":6182:6186   */\n  dup2\n    /* \"#utility.yul\":6177:6180   */\n  dup5\n    /* \"#utility.yul\":6173:6187   */\n  div\n    /* \"#utility.yul\":6166:6171   */\n  dup2\n    /* \"#utility.yul\":6163:6188   */\n  gt\n    /* \"#utility.yul\":6160:6211   */\n  iszero\n  tag_151\n  jumpi\n    /* \"#utility.yul\":6191:6209   */\n  tag_152\n  tag_121\n  jump\t// in\ntag_152:\n    /* \"#utility.yul\":6160:6211   */\ntag_151:\n    /* \"#utility.yul\":6240:6244   */\n  dup2\n    /* \"#utility.yul\":6233:6238   */\n  dup2\n    /* \"#utility.yul\":6229:6245   */\n  mul\n    /* \"#utility.yul\":6220:6245   */\n  swap1\n  pop\n    /* \"#utility.yul\":5178:6251   */\ntag_137:\n  swap4\n  swap3\n  pop\n  pop\n  pop\n  jump\t// out\n    /* \"#utility.yul\":6257:6605   */\ntag_19:\n    /* \"#utility.yul\":6297:6304   */\n  0x00\n    /* \"#utility.yul\":6320:6340   */\n  tag_154\n    /* \"#utility.yul\":6338:6339   */\n  dup3\n    /* \"#utility.yul\":6320:6340   */\n  tag_104\n  jump\t// in\ntag_154:\n    /* \"#utility.yul\":6315:6340   */\n  swap2\n  pop\n    /* \"#utility.yul\":6354:6374   */\n  tag_155\n    /* \"#utility.yul\":6372:6373   */\n  dup4\n    /* \"#utility.yul\":6354:6374   */\n  tag_104\n  jump\t// in\ntag_155:\n    /* \"#utility.yul\":6349:6374   */\n  swap3\n  pop\n    /* \"#utility.yul\":6542:6543   */\n  dup2\n    /* \"#utility.yul\":6474:6540   */\n  0xffffffffffffffffffffffffffffffffffffffffffffffffffffffffffffffff\n    /* \"#utility.yul\":6470:6544   */\n  div\n    /* \"#utility.yul\":6467:6468   */\n  dup4\n    /* \"#utility.yul\":6464:6545   */\n  gt\n    /* \"#utility.yul\":6459:6460   */\n  dup3\n    /* \"#utility.yul\":6452:6461   */\n  iszero\n    /* \"#utility.yul\":6445:6462   */\n  iszero\n    /* \"#utility.yul\":6441:6546   */\n  and\n    /* \"#utility.yul\":6438:6569   */\n  iszero\n  tag_156\n  jumpi\n    /* \"#utility.yul\":6549:6567   */\n  tag_157\n  tag_121\n  jump\t// in\ntag_157:\n    /* \"#utility.yul\":6438:6569   */\ntag_156:\n    /* \"#utility.yul\":6597:6598   */\n  dup3\n    /* \"#utility.yul\":6594:6595   */\n  dup3\n    /* \"#utility.yul\":6590:6599   */\n  mul\n    /* \"#utility.yul\":6579:6599   */\n  swap1\n  pop\n    /* \"#utility.yul\":6257:6605   */\n  swap3\n  swap2\n  pop\n  pop\n  jump\t// out\n    /* \"#utility.yul\":6611:6688   */\ntag_104:\n    /* \"#utility.yul\":6648:6655   */\n  0x00\n    /* \"#utility.yul\":6677:6682   */\n  dup2\n    /* \"#utility.yul\":6666:6682   */\n  swap1\n  pop\n    /* \"#utility.yul\":6611:6688   */\n  swap2\n  swap1\n  pop\n  jump\t// out\n    /* \"#utility.yul\":6694:7014   */\ntag_69:\n    /* \"#utility.yul\":6738:6744   */\n  0x00\n    /* \"#utility.yul\":6775:6776   */\n  0x02\n    /* \"#utility.yul\":6769:6773   */\n  dup3\n    /* \"#utility.yul\":6765:6777   */\n  div\n    /* \"#utility.yul\":6755:6777   */\n  swap1\n  pop\n    /* \"#utility.yul\":6822:6823   */\n  0x01\n    /* \"#utility.yul\":6816:6820   */\n  dup3\n    /* \"#utility.yul\":6812:6824   */\n  and\n    /* \"#utility.yul\":6843:6861   */\n  dup1\n    /* \"#utility.yul\":6833:6914   */\n  tag_160\n  jumpi\n    /* \"#utility.yul\":6899:6903   */\n  0x7f\n    /* \"#utility.yul\":6891:6897   */\n  dup3\n    /* \"#utility.yul\":6887:6904   */\n  and\n    /* \"#utility.yul\":6877:6904   */\n  swap2\n  pop\n    /* \"#utility.yul\":6833:6914   */\ntag_160:\n    /* \"#utility.yul\":6961:6963   */\n  0x20\n    /* \"#utility.yul\":6953:6959   */\n  dup3\n    /* \"#utility.yul\":6950:6964   */\n  lt\n    /* \"#utility.yul\":6930:6948   */\n  dup2\n    /* \"#utility.yul\":6927:6965   */\n  eq\n    /* \"#utility.yul\":6924:7008   */\n  iszero\n  tag_161\n  jumpi\n    /* \"#utility.yul\":6980:6998   */\n  tag_162\n  tag_163\n  jump\t// in\ntag_162:\n    /* \"#utility.yul\":6924:7008   */\ntag_161:\n    /* \"#utility.yul\":6745:7014   */\n  pop\n    /* \"#utility.yul\":6694:7014   */\n  swap2\n  swap1\n  pop\n  jump\t// out\n    /* \"#utility.yul\":7020:7200   */\ntag_121:\n    /* \"#utility.yul\":7068:7145   */\n  0x4e487b7100000000000000000000000000000000000000000000000000000000\n    /* \"#utility.yul\":7065:7066   */\n  0x00\n    /* \"#utility.yul\":7058:7146   */\n  mstore\n    /* \"#utility.yul\":7165:7169   */\n  0x11\n    /* \"#utility.yul\":7162:7163   */\n  0x04\n    /* \"#utility.yul\":7155:7170   */\n  mstore\n    /* \"#utility.yul\":7189:7193   */\n  0x24\n    /* \"#utility.yul\":7186:7187   */\n  0x00\n    /* \"#utility.yul\":7179:7194   */\n  revert\n    /* \"#utility.yul\":7206:7386   */\ntag_163:\n    /* \"#utility.yul\":7254:7331   */\n  0x4e487b7100000000000000000000000000000000000000000000000000000000\n    /* \"#utility.yul\":7251:7252   */\n  0x00\n    /* \"#utility.yul\":7244:7332   */\n  mstore\n    /* \"#utility.yul\":7351:7355   */\n  0x22\n    /* \"#utility.yul\":7348:7349   */\n  0x04\n    /* \"#utility.yul\":7341:7356   */\n  mstore\n    /* \"#utility.yul\":7375:7379   */\n  0x24\n    /* \"#utility.yul\":7372:7373   */\n  0x00\n    /* \"#utility.yul\":7365:7380   */\n  revert\n    /* \"#utility.yul\":7392:7494   */\ntag_131:\n    /* \"#utility.yul\":7434:7442   */\n  0x00\n    /* \"#utility.yul\":7481:7486   */\n  dup2\n    /* \"#utility.yul\":7478:7479   */\n  0x01\n    /* \"#utility.yul\":7474:7487   */\n  shr\n    /* \"#utility.yul\":7453:7487   */\n  swap1\n  pop\n    /* \"#utility.yul\":7392:7494   */\n  swap2\n  swap1\n  pop\n  jump\t// out\n    /* \"#utility.yul\":7500:7677   */\ntag_85:\n    /* \"#utility.yul\":7640:7669   */\n  0x536166654d6174683a206164646974696f6e206f766572666c6f770000000000\n    /* \"#utility.yul\":7636:7637   */\n  0x00\n    /* \"#utility.yul\":7628:7634   */\n  dup3\n    /* \"#utility.yul\":7624:7638   */\n  add\n    /* \"#utility.yul\":7617:7670   */\n  mstore\n    /* \"#utility.yul\":7500:7677   */\n  pop\n  jump\t// out\n    /* \"#utility.yul\":7683:7855   */\ntag_90:\n    /* \"#utility.yul\":7823:7847   */\n  0x4d6178696d756d20737570706c79207265616368656400000000000000000000\n    /* \"#utility.yul\":7819:7820   */\n  0x00\n    /* \"#utility.yul\":7811:7817   */\n  dup3\n    /* \"#utility.yul\":7807:7821   */\n  add\n    /* \"#utility.yul\":7800:7848   */\n  mstore\n    /* \"#utility.yul\":7683:7855   */\n  pop\n  jump\t// out\n    /* \"#utility.yul\":7861:8043   */\ntag_95:\n    /* \"#utility.yul\":8001:8035   */\n  0x4f776e61626c653a2063616c6c6572206973206e6f7420746865206f776e6572\n    /* \"#utility.yul\":7997:7998   */\n  0x00\n    /* \"#utility.yul\":7989:7995   */\n  dup3\n    /* \"#utility.yul\":7985:7999   */\n  add\n    /* \"#utility.yul\":7978:8036   */\n  mstore\n    /* \"#utility.yul\":7861:8043   */\n  pop\n  jump\t// out\n    /* \"#utility.yul\":8049:8230   */\ntag_100:\n    /* \"#utility.yul\":8189:8222   */\n  0x45524332303a206d696e7420746f20746865207a65726f206164647265737300\n    /* \"#utility.yul\":8185:8186   */\n  0x00\n    /* \"#utility.yul\":8177:8183   */\n  dup3\n    /* \"#utility.yul\":8173:8187   */\n  add\n    /* \"#utility.yul\":8166:8223   */\n  mstore\n    /* \"#utility.yul\":8049:8230   */\n  pop\n  jump\t// out\n    /* \"NFT-Contracts/contracts/market_deploy/AREVEAToken.sol\":381:1995  contract AREVEAToken is ERC20,Ownable {\r... */\ntag_21:\n  dataSize(sub_0)\n  dup1\n  dataOffset(sub_0)\n  0x00\n  codecopy\n  0x00\n  return\nstop\n\nsub_0: assembly {\n        /* \"NFT-Contracts/contracts/market_deploy/AREVEAToken.sol\":381:1995  contract AREVEAToken is ERC20,Ownable {\r... */\n      mstore(0x40, 0x80)\n      callvalue\n      dup1\n      iszero\n      tag_1\n      jumpi\n      0x00\n      dup1\n      revert\n    tag_1:\n      pop\n      jumpi(tag_2, lt(calldatasize, 0x04))\n      shr(0xe0, calldataload(0x00))\n      dup1\n      0x42966c68\n      gt\n      tag_23\n      jumpi\n      dup1\n      0x95d89b41\n      gt\n      tag_24\n      jumpi\n      dup1\n      0x95d89b41\n      eq\n      tag_18\n      jumpi\n      dup1\n      0xa457c2d7\n      eq\n      tag_19\n      jumpi\n      dup1\n      0xa9059cbb\n      eq\n      tag_20\n      jumpi\n      dup1\n      0xdd62ed3e\n      eq\n      tag_21\n      jumpi\n      dup1\n      0xf2fde38b\n      eq\n      tag_22\n      jumpi\n      jump(tag_2)\n    tag_24:\n      dup1\n      0x42966c68\n      eq\n      tag_13\n      jumpi\n      dup1\n      0x70a08231\n      eq\n      tag_14\n      jumpi\n      dup1\n      0x715018a6\n      eq\n      tag_15\n      jumpi\n      dup1\n      0x79cc6790\n      eq\n      tag_16\n      jumpi\n      dup1\n      0x8da5cb5b\n      eq\n      tag_17\n      jumpi\n      jump(tag_2)\n    tag_23:\n      dup1\n      0x2e0f2625\n      gt\n      tag_25\n      jumpi\n      dup1\n      0x2e0f2625\n      eq\n      tag_8\n      jumpi\n      dup1\n      0x2ff2e9dc\n      eq\n      tag_9\n      jumpi\n      dup1\n      0x313ce567\n      eq\n      tag_10\n      jumpi\n      dup1\n      0x39509351\n      eq\n      tag_11\n      jumpi\n      dup1\n      0x40c10f19\n      eq\n      tag_12\n      jumpi\n      jump(tag_2)\n    tag_25:\n      dup1\n      0x06fdde03\n      eq\n      tag_3\n      jumpi\n      dup1\n      0x095ea7b3\n      eq\n      tag_4\n      jumpi\n      dup1\n      0x18160ddd\n      eq\n      tag_5\n      jumpi\n      dup1\n      0x1b62d7af\n      eq\n      tag_6\n      jumpi\n      dup1\n      0x23b872dd\n      eq\n      tag_7\n      jumpi\n    tag_2:\n      0x00\n      dup1\n      revert\n        /* \"NFT-Contracts/contracts/market_deploy/ERC20.sol\":2198:2298  function name() public view virtual override returns (string memory) {\r... */\n    tag_3:\n      tag_26\n      tag_27\n      jump\t// in\n    tag_26:\n      mload(0x40)\n      tag_28\n      swap2\n      swap1\n      tag_29\n      jump\t// in\n    tag_28:\n      mload(0x40)\n      dup1\n      swap2\n      sub\n      swap1\n      return\n        /* \"NFT-Contracts/contracts/market_deploy/ERC20.sol\":4549:4750  function approve(address spender, uint256 amount) public virtual override returns (bool) {\r... */\n    tag_4:\n      tag_30\n      0x04\n      dup1\n      calldatasize\n      sub\n      dup2\n      add\n      swap1\n      tag_31\n      swap2\n      swap1\n      tag_32\n      jump\t// in\n    tag_31:\n      tag_33\n      jump\t// in\n    tag_30:\n      mload(0x40)\n      tag_34\n      swap2\n      swap1\n      tag_35\n      jump\t// in\n    tag_34:\n      mload(0x40)\n      dup1\n      swap2\n      sub\n      swap1\n      return\n        /* \"NFT-Contracts/contracts/market_deploy/ERC20.sol\":3318:3426  function totalSupply() public view virtual override returns (uint256) {\r... */\n    tag_5:\n      tag_36\n      tag_37\n      jump\t// in\n    tag_36:\n      mload(0x40)\n      tag_38\n      swap2\n      swap1\n      tag_39\n      jump\t// in\n    tag_38:\n      mload(0x40)\n      dup1\n      swap2\n      sub\n      swap1\n      return\n        /* \"NFT-Contracts/contracts/market_deploy/AREVEAToken.sol\":592:674  uint256 public constant Maximum_SUPPLY = 1000000000000 * (10 ** uint256(DECIMALS)) */\n    tag_6:\n      tag_40\n      tag_41\n      jump\t// in\n    tag_40:\n      mload(0x40)\n      tag_42\n      swap2\n      swap1\n      tag_39\n      jump\t// in\n    tag_42:\n      mload(0x40)\n      dup1\n      swap2\n      sub\n      swap1\n      return\n        /* \"NFT-Contracts/contracts/market_deploy/ERC20.sol\":5330:5625  function transferFrom(\r... */\n    tag_7:\n      tag_43\n      0x04\n      dup1\n      calldatasize\n      sub\n      dup2\n      add\n      swap1\n      tag_44\n      swap2\n      swap1\n      tag_45\n      jump\t// in\n    tag_44:\n      tag_46\n      jump\t// in\n    tag_43:\n      mload(0x40)\n      tag_47\n      swap2\n      swap1\n      tag_35\n      jump\t// in\n    tag_47:\n      mload(0x40)\n      dup1\n      swap2\n      sub\n      swap1\n      return\n        /* \"NFT-Contracts/contracts/market_deploy/AREVEAToken.sol\":463:498  uint8 public constant DECIMALS = 18 */\n    tag_8:\n      tag_48\n      tag_49\n      jump\t// in\n    tag_48:\n      mload(0x40)\n      tag_50\n      swap2\n      swap1\n      tag_51\n      jump\t// in\n    tag_50:\n      mload(0x40)\n      dup1\n      swap2\n      sub\n      swap1\n      return\n        /* \"NFT-Contracts/contracts/market_deploy/AREVEAToken.sol\":507:583  uint256 public constant INITIAL_SUPPLY = 1000000 * (10 ** uint256(DECIMALS)) */\n    tag_9:\n      tag_52\n      tag_53\n      jump\t// in\n    tag_52:\n      mload(0x40)\n      tag_54\n      swap2\n      swap1\n      tag_39\n      jump\t// in\n    tag_54:\n      mload(0x40)\n      dup1\n      swap2\n      sub\n      swap1\n      return\n        /* \"NFT-Contracts/contracts/market_deploy/ERC20.sol\":3160:3253  function decimals() public view virtual override returns (uint8) {\r... */\n    tag_10:\n      tag_55\n      tag_56\n      jump\t// in\n    tag_55:\n      mload(0x40)\n      tag_57\n      swap2\n      swap1\n      tag_51\n      jump\t// in\n    tag_57:\n      mload(0x40)\n      dup1\n      swap2\n      sub\n      swap1\n      return\n        /* \"NFT-Contracts/contracts/market_deploy/ERC20.sol\":6034:6272  function increaseAllowance(address spender, uint256 addedValue) public virtual returns (bool) {\r... */\n    tag_11:\n      tag_58\n      0x04\n      dup1\n      calldatasize\n      sub\n      dup2\n      add\n      swap1\n      tag_59\n      swap2\n      swap1\n      tag_32\n      jump\t// in\n    tag_59:\n      tag_60\n      jump\t// in\n    tag_58:\n      mload(0x40)\n      tag_61\n      swap2\n      swap1\n      tag_35\n      jump\t// in\n    tag_61:\n      mload(0x40)\n      dup1\n      swap2\n      sub\n      swap1\n      return\n        /* \"NFT-Contracts/contracts/market_deploy/AREVEAToken.sol\":1137:1335  function mint(address account, uint256 amount) public  onlyOwner  {\r... */\n    tag_12:\n      tag_62\n      0x04\n      dup1\n      calldatasize\n      sub\n      dup2\n      add\n      swap1\n      tag_63\n      swap2\n      swap1\n      tag_32\n      jump\t// in\n    tag_63:\n      tag_64\n      jump\t// in\n    tag_62:\n      stop\n        /* \"NFT-Contracts/contracts/market_deploy/AREVEAToken.sol\":1443:1526  function burn(uint256 amount) public {\r... */\n    tag_13:\n      tag_65\n      0x04\n      dup1\n      calldatasize\n      sub\n      dup2\n      add\n      swap1\n      tag_66\n      swap2\n      swap1\n      tag_67\n      jump\t// in\n    tag_66:\n      tag_68\n      jump\t// in\n    tag_65:\n      stop\n        /* \"NFT-Contracts/contracts/market_deploy/ERC20.sol\":3489:3616  function balanceOf(address account) public view virtual override returns (uint256) {\r... */\n    tag_14:\n      tag_69\n      0x04\n      dup1\n      calldatasize\n      sub\n      dup2\n      add\n      swap1\n      tag_70\n      swap2\n      swap1\n      tag_71\n      jump\t// in\n    tag_70:\n      tag_72\n      jump\t// in\n    tag_69:\n      mload(0x40)\n      tag_73\n      swap2\n      swap1\n      tag_39\n      jump\t// in\n    tag_73:\n      mload(0x40)\n      dup1\n      swap2\n      sub\n      swap1\n      return\n        /* \"NFT-Contracts/contracts/market_deploy/Ownable.sol\":1884:1987  function renounceOwnership() public virtual onlyOwner {\r... */\n    tag_15:\n      tag_74\n      tag_75\n      jump\t// in\n    tag_74:\n      stop\n        /* \"NFT-Contracts/contracts/market_deploy/AREVEAToken.sol\":1813:1983  function burnFrom(address account, uint256 amount) public virtual {\r... */\n    tag_16:\n      tag_76\n      0x04\n      dup1\n      calldatasize\n      sub\n      dup2\n      add\n      swap1\n      tag_77\n      swap2\n      swap1\n      tag_32\n      jump\t// in\n    tag_77:\n      tag_78\n      jump\t// in\n    tag_76:\n      stop\n        /* \"NFT-Contracts/contracts/market_deploy/Ownable.sol\":1236:1323  function owner() public view virtual returns (address) {\r... */\n    tag_17:\n      tag_79\n      tag_80\n      jump\t// in\n    tag_79:\n      mload(0x40)\n      tag_81\n      swap2\n      swap1\n      tag_82\n      jump\t// in\n    tag_81:\n      mload(0x40)\n      dup1\n      swap2\n      sub\n      swap1\n      return\n        /* \"NFT-Contracts/contracts/market_deploy/ERC20.sol\":2417:2521  function symbol() public view virtual override returns (string memory) {\r... */\n    tag_18:\n      tag_83\n      tag_84\n      jump\t// in\n    tag_83:\n      mload(0x40)\n      tag_85\n      swap2\n      swap1\n      tag_29\n      jump\t// in\n    tag_85:\n      mload(0x40)\n      dup1\n      swap2\n      sub\n      swap1\n      return\n        /* \"NFT-Contracts/contracts/market_deploy/ERC20.sol\":6775:7211  function decreaseAllowance(address spender, uint256 subtractedValue) public virtual returns (bool) {\r... */\n    tag_19:\n      tag_86\n      0x04\n      dup1\n      calldatasize\n      sub\n      dup2\n      add\n      swap1\n      tag_87\n      swap2\n      swap1\n      tag_32\n      jump\t// in\n    tag_87:\n      tag_88\n      jump\t// in\n    tag_86:\n      mload(0x40)\n      tag_89\n      swap2\n      swap1\n      tag_35\n      jump\t// in\n    tag_89:\n      mload(0x40)\n      dup1\n      swap2\n      sub\n      swap1\n      return\n        /* \"NFT-Contracts/contracts/market_deploy/ERC20.sol\":3822:4015  function transfer(address to, uint256 amount) public virtual override returns (bool) {\r... */\n    tag_20:\n      tag_90\n      0x04\n      dup1\n      calldatasize\n      sub\n      dup2\n      add\n      swap1\n      tag_91\n      swap2\n      swap1\n      tag_32\n      jump\t// in\n    tag_91:\n      tag_92\n      jump\t// in\n    tag_90:\n      mload(0x40)\n      tag_93\n      swap2\n      swap1\n      tag_35\n      jump\t// in\n    tag_93:\n      mload(0x40)\n      dup1\n      swap2\n      sub\n      swap1\n      return\n        /* \"NFT-Contracts/contracts/market_deploy/ERC20.sol\":4078:4229  function allowance(address owner, address spender) public view virtual override returns (uint256) {\r... */\n    tag_21:\n      tag_94\n      0x04\n      dup1\n      calldatasize\n      sub\n      dup2\n      add\n      swap1\n      tag_95\n      swap2\n      swap1\n      tag_96\n      jump\t// in\n    tag_95:\n      tag_97\n      jump\t// in\n    tag_94:\n      mload(0x40)\n      tag_98\n      swap2\n      swap1\n      tag_39\n      jump\t// in\n    tag_98:\n      mload(0x40)\n      dup1\n      swap2\n      sub\n      swap1\n      return\n        /* \"NFT-Contracts/contracts/market_deploy/Ownable.sol\":2142:2343  function transferOwnership(address newOwner) public virtual onlyOwner {\r... */\n    tag_22:\n      tag_99\n      0x04\n      dup1\n      calldatasize\n      sub\n      dup2\n      add\n      swap1\n      tag_100\n      swap2\n      swap1\n      tag_71\n      jump\t// in\n    tag_100:\n      tag_101\n      jump\t// in\n    tag_99:\n      stop\n        /* \"NFT-Contracts/contracts/market_deploy/ERC20.sol\":2198:2298  function name() public view virtual override returns (string memory) {\r... */\n    tag_27:\n        /* \"NFT-Contracts/contracts/market_deploy/ERC20.sol\":2252:2265  string memory */\n      0x60\n        /* \"NFT-Contracts/contracts/market_deploy/ERC20.sol\":2285:2290  _name */\n      0x03\n        /* \"NFT-Contracts/contracts/market_deploy/ERC20.sol\":2278:2290  return _name */\n      dup1\n      sload\n      tag_104\n      swap1\n      tag_105\n      jump\t// in\n    tag_104:\n      dup1\n      0x1f\n      add\n      0x20\n      dup1\n      swap2\n      div\n      mul\n      0x20\n      add\n      mload(0x40)\n      swap1\n      dup2\n      add\n      0x40\n      mstore\n      dup1\n      swap3\n      swap2\n      swap1\n      dup2\n      dup2\n      mstore\n      0x20\n      add\n      dup3\n      dup1\n      sload\n      tag_106\n      swap1\n      tag_105\n      jump\t// in\n    tag_106:\n      dup1\n      iszero\n      tag_107\n      jumpi\n      dup1\n      0x1f\n      lt\n      tag_108\n      jumpi\n      0x0100\n      dup1\n      dup4\n      sload\n      div\n      mul\n      dup4\n      mstore\n      swap2\n      0x20\n      add\n      swap2\n      jump(tag_107)\n    tag_108:\n      dup3\n      add\n      swap2\n      swap1\n      0x00\n      mstore\n      keccak256(0x00, 0x20)\n      swap1\n    tag_109:\n      dup2\n      sload\n      dup2\n      mstore\n      swap1\n      0x01\n      add\n      swap1\n      0x20\n      add\n      dup1\n      dup4\n      gt\n      tag_109\n      jumpi\n      dup3\n      swap1\n      sub\n      0x1f\n      and\n      dup3\n      add\n      swap2\n    tag_107:\n      pop\n      pop\n      pop\n      pop\n      pop\n      swap1\n      pop\n        /* \"NFT-Contracts/contracts/market_deploy/ERC20.sol\":2198:2298  function name() public view virtual override returns (string memory) {\r... */\n      swap1\n      jump\t// out\n        /* \"NFT-Contracts/contracts/market_deploy/ERC20.sol\":4549:4750  function approve(address spender, uint256 amount) public virtual override returns (bool) {\r... */\n    tag_33:\n        /* \"NFT-Contracts/contracts/market_deploy/ERC20.sol\":4632:4636  bool */\n      0x00\n        /* \"NFT-Contracts/contracts/market_deploy/ERC20.sol\":4649:4662  address owner */\n      dup1\n        /* \"NFT-Contracts/contracts/market_deploy/ERC20.sol\":4665:4677  _msgSender() */\n      tag_111\n        /* \"NFT-Contracts/contracts/market_deploy/ERC20.sol\":4665:4675  _msgSender */\n      tag_112\n        /* \"NFT-Contracts/contracts/market_deploy/ERC20.sol\":4665:4677  _msgSender() */\n      jump\t// in\n    tag_111:\n        /* \"NFT-Contracts/contracts/market_deploy/ERC20.sol\":4649:4677  address owner = _msgSender() */\n      swap1\n      pop\n        /* \"NFT-Contracts/contracts/market_deploy/ERC20.sol\":4688:4720  _approve(owner, spender, amount) */\n      tag_113\n        /* \"NFT-Contracts/contracts/market_deploy/ERC20.sol\":4697:4702  owner */\n      dup2\n        /* \"NFT-Contracts/contracts/market_deploy/ERC20.sol\":4704:4711  spender */\n      dup6\n        /* \"NFT-Contracts/contracts/market_deploy/ERC20.sol\":4713:4719  amount */\n      dup6\n        /* \"NFT-Contracts/contracts/market_deploy/ERC20.sol\":4688:4696  _approve */\n      tag_114\n        /* \"NFT-Contracts/contracts/market_deploy/ERC20.sol\":4688:4720  _approve(owner, spender, amount) */\n      jump\t// in\n    tag_113:\n        /* \"NFT-Contracts/contracts/market_deploy/ERC20.sol\":4738:4742  true */\n      0x01\n        /* \"NFT-Contracts/contracts/market_deploy/ERC20.sol\":4731:4742  return true */\n      swap2\n      pop\n      pop\n        /* \"NFT-Contracts/contracts/market_deploy/ERC20.sol\":4549:4750  function approve(address spender, uint256 amount) public virtual override returns (bool) {\r... */\n      swap3\n      swap2\n      pop\n      pop\n      jump\t// out\n        /* \"NFT-Contracts/contracts/market_deploy/ERC20.sol\":3318:3426  function totalSupply() public view virtual override returns (uint256) {\r... */\n    tag_37:\n        /* \"NFT-Contracts/contracts/market_deploy/ERC20.sol\":3379:3386  uint256 */\n      0x00\n        /* \"NFT-Contracts/contracts/market_deploy/ERC20.sol\":3406:3418  _totalSupply */\n      sload(0x02)\n        /* \"NFT-Contracts/contracts/market_deploy/ERC20.sol\":3399:3418  return _totalSupply */\n      swap1\n      pop\n        /* \"NFT-Contracts/contracts/market_deploy/ERC20.sol\":3318:3426  function totalSupply() public view virtual override returns (uint256) {\r... */\n      swap1\n      jump\t// out\n        /* \"NFT-Contracts/contracts/market_deploy/AREVEAToken.sol\":592:674  uint256 public constant Maximum_SUPPLY = 1000000000000 * (10 ** uint256(DECIMALS)) */\n    tag_41:\n        /* \"NFT-Contracts/contracts/market_deploy/AREVEAToken.sol\":496:498  18 */\n      0x12\n        /* \"NFT-Contracts/contracts/market_deploy/AREVEAToken.sol\":656:673  uint256(DECIMALS) */\n      0xff\n      and\n        /* \"NFT-Contracts/contracts/market_deploy/AREVEAToken.sol\":650:652  10 */\n      0x0a\n        /* \"NFT-Contracts/contracts/market_deploy/AREVEAToken.sol\":650:673  10 ** uint256(DECIMALS) */\n      tag_116\n      swap2\n      swap1\n      tag_117\n      jump\t// in\n    tag_116:\n        /* \"NFT-Contracts/contracts/market_deploy/AREVEAToken.sol\":633:646  1000000000000 */\n      0xe8d4a51000\n        /* \"NFT-Contracts/contracts/market_deploy/AREVEAToken.sol\":633:674  1000000000000 * (10 ** uint256(DECIMALS)) */\n      tag_118\n      swap2\n      swap1\n      tag_119\n      jump\t// in\n    tag_118:\n        /* \"NFT-Contracts/contracts/market_deploy/AREVEAToken.sol\":592:674  uint256 public constant Maximum_SUPPLY = 1000000000000 * (10 ** uint256(DECIMALS)) */\n      dup2\n      jump\t// out\n        /* \"NFT-Contracts/contracts/market_deploy/ERC20.sol\":5330:5625  function transferFrom(\r... */\n    tag_46:\n        /* \"NFT-Contracts/contracts/market_deploy/ERC20.sol\":5461:5465  bool */\n      0x00\n        /* \"NFT-Contracts/contracts/market_deploy/ERC20.sol\":5478:5493  address spender */\n      dup1\n        /* \"NFT-Contracts/contracts/market_deploy/ERC20.sol\":5496:5508  _msgSender() */\n      tag_121\n        /* \"NFT-Contracts/contracts/market_deploy/ERC20.sol\":5496:5506  _msgSender */\n      tag_112\n        /* \"NFT-Contracts/contracts/market_deploy/ERC20.sol\":5496:5508  _msgSender() */\n      jump\t// in\n    tag_121:\n        /* \"NFT-Contracts/contracts/market_deploy/ERC20.sol\":5478:5508  address spender = _msgSender() */\n      swap1\n      pop\n        /* \"NFT-Contracts/contracts/market_deploy/ERC20.sol\":5519:5557  _spendAllowance(from, spender, amount) */\n      tag_122\n        /* \"NFT-Contracts/contracts/market_deploy/ERC20.sol\":5535:5539  from */\n      dup6\n        /* \"NFT-Contracts/contracts/market_deploy/ERC20.sol\":5541:5548  spender */\n      dup3\n        /* \"NFT-Contracts/contracts/market_deploy/ERC20.sol\":5550:5556  amount */\n      dup6\n        /* \"NFT-Contracts/contracts/market_deploy/ERC20.sol\":5519:5534  _spendAllowance */\n      tag_123\n        /* \"NFT-Contracts/contracts/market_deploy/ERC20.sol\":5519:5557  _spendAllowance(from, spender, amount) */\n      jump\t// in\n    tag_122:\n        /* \"NFT-Contracts/contracts/market_deploy/ERC20.sol\":5568:5595  _transfer(from, to, amount) */\n      tag_124\n        /* \"NFT-Contracts/contracts/market_deploy/ERC20.sol\":5578:5582  from */\n      dup6\n        /* \"NFT-Contracts/contracts/market_deploy/ERC20.sol\":5584:5586  to */\n      dup6\n        /* \"NFT-Contracts/contracts/market_deploy/ERC20.sol\":5588:5594  amount */\n      dup6\n        /* \"NFT-Contracts/contracts/market_deploy/ERC20.sol\":5568:5577  _transfer */\n      tag_125\n        /* \"NFT-Contracts/contracts/market_deploy/ERC20.sol\":5568:5595  _transfer(from, to, amount) */\n      jump\t// in\n    tag_124:\n        /* \"NFT-Contracts/contracts/market_deploy/ERC20.sol\":5613:5617  true */\n      0x01\n        /* \"NFT-Contracts/contracts/market_deploy/ERC20.sol\":5606:5617  return true */\n      swap2\n      pop\n      pop\n        /* \"NFT-Contracts/contracts/market_deploy/ERC20.sol\":5330:5625  function transferFrom(\r... */\n      swap4\n      swap3\n      pop\n      pop\n      pop\n      jump\t// out\n        /* \"NFT-Contracts/contracts/market_deploy/AREVEAToken.sol\":463:498  uint8 public constant DECIMALS = 18 */\n    tag_49:\n        /* \"NFT-Contracts/contracts/market_deploy/AREVEAToken.sol\":496:498  18 */\n      0x12\n        /* \"NFT-Contracts/contracts/market_deploy/AREVEAToken.sol\":463:498  uint8 public constant DECIMALS = 18 */\n      dup2\n      jump\t// out\n        /* \"NFT-Contracts/contracts/market_deploy/AREVEAToken.sol\":507:583  uint256 public constant INITIAL_SUPPLY = 1000000 * (10 ** uint256(DECIMALS)) */\n    tag_53:\n        /* \"NFT-Contracts/contracts/market_deploy/AREVEAToken.sol\":496:498  18 */\n      0x12\n        /* \"NFT-Contracts/contracts/market_deploy/AREVEAToken.sol\":565:582  uint256(DECIMALS) */\n      0xff\n      and\n        /* \"NFT-Contracts/contracts/market_deploy/AREVEAToken.sol\":559:561  10 */\n      0x0a\n        /* \"NFT-Contracts/contracts/market_deploy/AREVEAToken.sol\":559:582  10 ** uint256(DECIMALS) */\n      tag_126\n      swap2\n      swap1\n      tag_117\n      jump\t// in\n    tag_126:\n        /* \"NFT-Contracts/contracts/market_deploy/AREVEAToken.sol\":548:555  1000000 */\n      0x0f4240\n        /* \"NFT-Contracts/contracts/market_deploy/AREVEAToken.sol\":548:583  1000000 * (10 ** uint256(DECIMALS)) */\n      tag_127\n      swap2\n      swap1\n      tag_119\n      jump\t// in\n    tag_127:\n        /* \"NFT-Contracts/contracts/market_deploy/AREVEAToken.sol\":507:583  uint256 public constant INITIAL_SUPPLY = 1000000 * (10 ** uint256(DECIMALS)) */\n      dup2\n      jump\t// out\n        /* \"NFT-Contracts/contracts/market_deploy/ERC20.sol\":3160:3253  function decimals() public view virtual override returns (uint8) {\r... */\n    tag_56:\n        /* \"NFT-Contracts/contracts/market_deploy/ERC20.sol\":3218:3223  uint8 */\n      0x00\n        /* \"NFT-Contracts/contracts/market_deploy/ERC20.sol\":3243:3245  18 */\n      0x12\n        /* \"NFT-Contracts/contracts/market_deploy/ERC20.sol\":3236:3245  return 18 */\n      swap1\n      pop\n        /* \"NFT-Contracts/contracts/market_deploy/ERC20.sol\":3160:3253  function decimals() public view virtual override returns (uint8) {\r... */\n      swap1\n      jump\t// out\n        /* \"NFT-Contracts/contracts/market_deploy/ERC20.sol\":6034:6272  function increaseAllowance(address spender, uint256 addedValue) public virtual returns (bool) {\r... */\n    tag_60:\n        /* \"NFT-Contracts/contracts/market_deploy/ERC20.sol\":6122:6126  bool */\n      0x00\n        /* \"NFT-Contracts/contracts/market_deploy/ERC20.sol\":6139:6152  address owner */\n      dup1\n        /* \"NFT-Contracts/contracts/market_deploy/ERC20.sol\":6155:6167  _msgSender() */\n      tag_130\n        /* \"NFT-Contracts/contracts/market_deploy/ERC20.sol\":6155:6165  _msgSender */\n      tag_112\n        /* \"NFT-Contracts/contracts/market_deploy/ERC20.sol\":6155:6167  _msgSender() */\n      jump\t// in\n    tag_130:\n        /* \"NFT-Contracts/contracts/market_deploy/ERC20.sol\":6139:6167  address owner = _msgSender() */\n      swap1\n      pop\n        /* \"NFT-Contracts/contracts/market_deploy/ERC20.sol\":6178:6242  _approve(owner, spender, allowance(owner, spender) + addedValue) */\n      tag_131\n        /* \"NFT-Contracts/contracts/market_deploy/ERC20.sol\":6187:6192  owner */\n      dup2\n        /* \"NFT-Contracts/contracts/market_deploy/ERC20.sol\":6194:6201  spender */\n      dup6\n        /* \"NFT-Contracts/contracts/market_deploy/ERC20.sol\":6231:6241  addedValue */\n      dup6\n        /* \"NFT-Contracts/contracts/market_deploy/ERC20.sol\":6203:6228  allowance(owner, spender) */\n      tag_132\n        /* \"NFT-Contracts/contracts/market_deploy/ERC20.sol\":6213:6218  owner */\n      dup6\n        /* \"NFT-Contracts/contracts/market_deploy/ERC20.sol\":6220:6227  spender */\n      dup10\n        /* \"NFT-Contracts/contracts/market_deploy/ERC20.sol\":6203:6212  allowance */\n      tag_97\n        /* \"NFT-Contracts/contracts/market_deploy/ERC20.sol\":6203:6228  allowance(owner, spender) */\n      jump\t// in\n    tag_132:\n        /* \"NFT-Contracts/contracts/market_deploy/ERC20.sol\":6203:6241  allowance(owner, spender) + addedValue */\n      tag_133\n      swap2\n      swap1\n      tag_134\n      jump\t// in\n    tag_133:\n        /* \"NFT-Contracts/contracts/market_deploy/ERC20.sol\":6178:6186  _approve */\n      tag_114\n        /* \"NFT-Contracts/contracts/market_deploy/ERC20.sol\":6178:6242  _approve(owner, spender, allowance(owner, spender) + addedValue) */\n      jump\t// in\n    tag_131:\n        /* \"NFT-Contracts/contracts/market_deploy/ERC20.sol\":6260:6264  true */\n      0x01\n        /* \"NFT-Contracts/contracts/market_deploy/ERC20.sol\":6253:6264  return true */\n      swap2\n      pop\n      pop\n        /* \"NFT-Contracts/contracts/market_deploy/ERC20.sol\":6034:6272  function increaseAllowance(address spender, uint256 addedValue) public virtual returns (bool) {\r... */\n      swap3\n      swap2\n      pop\n      pop\n      jump\t// out\n        /* \"NFT-Contracts/contracts/market_deploy/AREVEAToken.sol\":1137:1335  function mint(address account, uint256 amount) public  onlyOwner  {\r... */\n    tag_64:\n        /* \"NFT-Contracts/contracts/market_deploy/Ownable.sol\":1122:1135  _checkOwner() */\n      tag_136\n        /* \"NFT-Contracts/contracts/market_deploy/Ownable.sol\":1122:1133  _checkOwner */\n      tag_137\n        /* \"NFT-Contracts/contracts/market_deploy/Ownable.sol\":1122:1135  _checkOwner() */\n      jump\t// in\n    tag_136:\n        /* \"NFT-Contracts/contracts/market_deploy/AREVEAToken.sol\":496:498  18 */\n      0x12\n        /* \"NFT-Contracts/contracts/market_deploy/AREVEAToken.sol\":656:673  uint256(DECIMALS) */\n      0xff\n      and\n        /* \"NFT-Contracts/contracts/market_deploy/AREVEAToken.sol\":650:652  10 */\n      0x0a\n        /* \"NFT-Contracts/contracts/market_deploy/AREVEAToken.sol\":650:673  10 ** uint256(DECIMALS) */\n      tag_139\n      swap2\n      swap1\n      tag_117\n      jump\t// in\n    tag_139:\n        /* \"NFT-Contracts/contracts/market_deploy/AREVEAToken.sol\":633:646  1000000000000 */\n      0xe8d4a51000\n        /* \"NFT-Contracts/contracts/market_deploy/AREVEAToken.sol\":633:674  1000000000000 * (10 ** uint256(DECIMALS)) */\n      tag_140\n      swap2\n      swap1\n      tag_119\n      jump\t// in\n    tag_140:\n        /* \"NFT-Contracts/contracts/market_deploy/AREVEAToken.sol\":1223:1248  totalSupply().add(amount) */\n      tag_141\n        /* \"NFT-Contracts/contracts/market_deploy/AREVEAToken.sol\":1241:1247  amount */\n      dup3\n        /* \"NFT-Contracts/contracts/market_deploy/AREVEAToken.sol\":1223:1236  totalSupply() */\n      tag_142\n        /* \"NFT-Contracts/contracts/market_deploy/AREVEAToken.sol\":1223:1234  totalSupply */\n      tag_37\n        /* \"NFT-Contracts/contracts/market_deploy/AREVEAToken.sol\":1223:1236  totalSupply() */\n      jump\t// in\n    tag_142:\n        /* \"NFT-Contracts/contracts/market_deploy/AREVEAToken.sol\":1223:1240  totalSupply().add */\n      tag_102\n      swap1\n        /* \"NFT-Contracts/contracts/market_deploy/AREVEAToken.sol\":1223:1248  totalSupply().add(amount) */\n      swap2\n      swap1\n      0xffffffff\n      and\n      jump\t// in\n    tag_141:\n        /* \"NFT-Contracts/contracts/market_deploy/AREVEAToken.sol\":1223:1266  totalSupply().add(amount) <= Maximum_SUPPLY */\n      gt\n      iszero\n        /* \"NFT-Contracts/contracts/market_deploy/AREVEAToken.sol\":1215:1292  require(totalSupply().add(amount) <= Maximum_SUPPLY,\"Maximum supply reached\") */\n      tag_143\n      jumpi\n      mload(0x40)\n      0x08c379a000000000000000000000000000000000000000000000000000000000\n      dup2\n      mstore\n      0x04\n      add\n      tag_144\n      swap1\n      tag_145\n      jump\t// in\n    tag_144:\n      mload(0x40)\n      dup1\n      swap2\n      sub\n      swap1\n      revert\n    tag_143:\n        /* \"NFT-Contracts/contracts/market_deploy/AREVEAToken.sol\":1304:1325  _mint(account,amount) */\n      tag_146\n        /* \"NFT-Contracts/contracts/market_deploy/AREVEAToken.sol\":1310:1317  account */\n      dup3\n        /* \"NFT-Contracts/contracts/market_deploy/AREVEAToken.sol\":1318:1324  amount */\n      dup3\n        /* \"NFT-Contracts/contracts/market_deploy/AREVEAToken.sol\":1304:1309  _mint */\n      tag_147\n        /* \"NFT-Contracts/contracts/market_deploy/AREVEAToken.sol\":1304:1325  _mint(account,amount) */\n      jump\t// in\n    tag_146:\n        /* \"NFT-Contracts/contracts/market_deploy/AREVEAToken.sol\":1137:1335  function mint(address account, uint256 amount) public  onlyOwner  {\r... */\n      pop\n      pop\n      jump\t// out\n        /* \"NFT-Contracts/contracts/market_deploy/AREVEAToken.sol\":1443:1526  function burn(uint256 amount) public {\r... */\n    tag_68:\n        /* \"NFT-Contracts/contracts/market_deploy/AREVEAToken.sol\":1491:1516  _burn(msg.sender, amount) */\n      tag_149\n        /* \"NFT-Contracts/contracts/market_deploy/AREVEAToken.sol\":1497:1507  msg.sender */\n      caller\n        /* \"NFT-Contracts/contracts/market_deploy/AREVEAToken.sol\":1509:1515  amount */\n      dup3\n        /* \"NFT-Contracts/contracts/market_deploy/AREVEAToken.sol\":1491:1496  _burn */\n      tag_150\n        /* \"NFT-Contracts/contracts/market_deploy/AREVEAToken.sol\":1491:1516  _burn(msg.sender, amount) */\n      jump\t// in\n    tag_149:\n        /* \"NFT-Contracts/contracts/market_deploy/AREVEAToken.sol\":1443:1526  function burn(uint256 amount) public {\r... */\n      pop\n      jump\t// out\n        /* \"NFT-Contracts/contracts/market_deploy/ERC20.sol\":3489:3616  function balanceOf(address account) public view virtual override returns (uint256) {\r... */\n    tag_72:\n        /* \"NFT-Contracts/contracts/market_deploy/ERC20.sol\":3563:3570  uint256 */\n      0x00\n        /* \"NFT-Contracts/contracts/market_deploy/ERC20.sol\":3590:3599  _balances */\n      dup1\n        /* \"NFT-Contracts/contracts/market_deploy/ERC20.sol\":3590:3608  _balances[account] */\n      0x00\n        /* \"NFT-Contracts/contracts/market_deploy/ERC20.sol\":3600:3607  account */\n      dup4\n        /* \"NFT-Contracts/contracts/market_deploy/ERC20.sol\":3590:3608  _balances[account] */\n      0xffffffffffffffffffffffffffffffffffffffff\n      and\n      0xffffffffffffffffffffffffffffffffffffffff\n      and\n      dup2\n      mstore\n      0x20\n      add\n      swap1\n      dup2\n      mstore\n      0x20\n      add\n      0x00\n      keccak256\n      sload\n        /* \"NFT-Contracts/contracts/market_deploy/ERC20.sol\":3583:3608  return _balances[account] */\n      swap1\n      pop\n        /* \"NFT-Contracts/contracts/market_deploy/ERC20.sol\":3489:3616  function balanceOf(address account) public view virtual override returns (uint256) {\r... */\n      swap2\n      swap1\n      pop\n      jump\t// out\n        /* \"NFT-Contracts/contracts/market_deploy/Ownable.sol\":1884:1987  function renounceOwnership() public virtual onlyOwner {\r... */\n    tag_75:\n        /* \"NFT-Contracts/contracts/market_deploy/Ownable.sol\":1122:1135  _checkOwner() */\n      tag_153\n        /* \"NFT-Contracts/contracts/market_deploy/Ownable.sol\":1122:1133  _checkOwner */\n      tag_137\n        /* \"NFT-Contracts/contracts/market_deploy/Ownable.sol\":1122:1135  _checkOwner() */\n      jump\t// in\n    tag_153:\n        /* \"NFT-Contracts/contracts/market_deploy/Ownable.sol\":1949:1979  _transferOwnership(address(0)) */\n      tag_155\n        /* \"NFT-Contracts/contracts/market_deploy/Ownable.sol\":1976:1977  0 */\n      0x00\n        /* \"NFT-Contracts/contracts/market_deploy/Ownable.sol\":1949:1967  _transferOwnership */\n      tag_156\n        /* \"NFT-Contracts/contracts/market_deploy/Ownable.sol\":1949:1979  _transferOwnership(address(0)) */\n      jump\t// in\n    tag_155:\n        /* \"NFT-Contracts/contracts/market_deploy/Ownable.sol\":1884:1987  function renounceOwnership() public virtual onlyOwner {\r... */\n      jump\t// out\n        /* \"NFT-Contracts/contracts/market_deploy/AREVEAToken.sol\":1813:1983  function burnFrom(address account, uint256 amount) public virtual {\r... */\n    tag_78:\n        /* \"NFT-Contracts/contracts/market_deploy/AREVEAToken.sol\":1892:1938  _spendAllowance(account, _msgSender(), amount) */\n      tag_158\n        /* \"NFT-Contracts/contracts/market_deploy/AREVEAToken.sol\":1908:1915  account */\n      dup3\n        /* \"NFT-Contracts/contracts/market_deploy/AREVEAToken.sol\":1917:1929  _msgSender() */\n      tag_159\n        /* \"NFT-Contracts/contracts/market_deploy/AREVEAToken.sol\":1917:1927  _msgSender */\n      tag_112\n        /* \"NFT-Contracts/contracts/market_deploy/AREVEAToken.sol\":1917:1929  _msgSender() */\n      jump\t// in\n    tag_159:\n        /* \"NFT-Contracts/contracts/market_deploy/AREVEAToken.sol\":1931:1937  amount */\n      dup4\n        /* \"NFT-Contracts/contracts/market_deploy/AREVEAToken.sol\":1892:1907  _spendAllowance */\n      tag_123\n        /* \"NFT-Contracts/contracts/market_deploy/AREVEAToken.sol\":1892:1938  _spendAllowance(account, _msgSender(), amount) */\n      jump\t// in\n    tag_158:\n        /* \"NFT-Contracts/contracts/market_deploy/AREVEAToken.sol\":1951:1973  _burn(account, amount) */\n      tag_160\n        /* \"NFT-Contracts/contracts/market_deploy/AREVEAToken.sol\":1957:1964  account */\n      dup3\n        /* \"NFT-Contracts/contracts/market_deploy/AREVEAToken.sol\":1966:1972  amount */\n      dup3\n        /* \"NFT-Contracts/contracts/market_deploy/AREVEAToken.sol\":1951:1956  _burn */\n      tag_150\n        /* \"NFT-Contracts/contracts/market_deploy/AREVEAToken.sol\":1951:1973  _burn(account, amount) */\n      jump\t// in\n    tag_160:\n        /* \"NFT-Contracts/contracts/market_deploy/AREVEAToken.sol\":1813:1983  function burnFrom(address account, uint256 amount) public virtual {\r... */\n      pop\n      pop\n      jump\t// out\n        /* \"NFT-Contracts/contracts/market_deploy/Ownable.sol\":1236:1323  function owner() public view virtual returns (address) {\r... */\n    tag_80:\n        /* \"NFT-Contracts/contracts/market_deploy/Ownable.sol\":1282:1289  address */\n      0x00\n        /* \"NFT-Contracts/contracts/market_deploy/Ownable.sol\":1309:1315  _owner */\n      0x05\n      0x00\n      swap1\n      sload\n      swap1\n      0x0100\n      exp\n      swap1\n      div\n      0xffffffffffffffffffffffffffffffffffffffff\n      and\n        /* \"NFT-Contracts/contracts/market_deploy/Ownable.sol\":1302:1315  return _owner */\n      swap1\n      pop\n        /* \"NFT-Contracts/contracts/market_deploy/Ownable.sol\":1236:1323  function owner() public view virtual returns (address) {\r... */\n      swap1\n      jump\t// out\n        /* \"NFT-Contracts/contracts/market_deploy/ERC20.sol\":2417:2521  function symbol() public view virtual override returns (string memory) {\r... */\n    tag_84:\n        /* \"NFT-Contracts/contracts/market_deploy/ERC20.sol\":2473:2486  string memory */\n      0x60\n        /* \"NFT-Contracts/contracts/market_deploy/ERC20.sol\":2506:2513  _symbol */\n      0x04\n        /* \"NFT-Contracts/contracts/market_deploy/ERC20.sol\":2499:2513  return _symbol */\n      dup1\n      sload\n      tag_163\n      swap1\n      tag_105\n      jump\t// in\n    tag_163:\n      dup1\n      0x1f\n      add\n      0x20\n      dup1\n      swap2\n      div\n      mul\n      0x20\n      add\n      mload(0x40)\n      swap1\n      dup2\n      add\n      0x40\n      mstore\n      dup1\n      swap3\n      swap2\n      swap1\n      dup2\n      dup2\n      mstore\n      0x20\n      add\n      dup3\n      dup1\n      sload\n      tag_164\n      swap1\n      tag_105\n      jump\t// in\n    tag_164:\n      dup1\n      iszero\n      tag_165\n      jumpi\n      dup1\n      0x1f\n      lt\n      tag_166\n      jumpi\n      0x0100\n      dup1\n      dup4\n      sload\n      div\n      mul\n      dup4\n      mstore\n      swap2\n      0x20\n      add\n      swap2\n      jump(tag_165)\n    tag_166:\n      dup3\n      add\n      swap2\n      swap1\n      0x00\n      mstore\n      keccak256(0x00, 0x20)\n      swap1\n    tag_167:\n      dup2\n      sload\n      dup2\n      mstore\n      swap1\n      0x01\n      add\n      swap1\n      0x20\n      add\n      dup1\n      dup4\n      gt\n      tag_167\n      jumpi\n      dup3\n      swap1\n      sub\n      0x1f\n      and\n      dup3\n      add\n      swap2\n    tag_165:\n      pop\n      pop\n      pop\n      pop\n      pop\n      swap1\n      pop\n        /* \"NFT-Contracts/contracts/market_deploy/ERC20.sol\":2417:2521  function symbol() public view virtual override returns (string memory) {\r... */\n      swap1\n      jump\t// out\n        /* \"NFT-Contracts/contracts/market_deploy/ERC20.sol\":6775:7211  function decreaseAllowance(address spender, uint256 subtractedValue) public virtual returns (bool) {\r... */\n    tag_88:\n        /* \"NFT-Contracts/contracts/market_deploy/ERC20.sol\":6868:6872  bool */\n      0x00\n        /* \"NFT-Contracts/contracts/market_deploy/ERC20.sol\":6885:6898  address owner */\n      dup1\n        /* \"NFT-Contracts/contracts/market_deploy/ERC20.sol\":6901:6913  _msgSender() */\n      tag_169\n        /* \"NFT-Contracts/contracts/market_deploy/ERC20.sol\":6901:6911  _msgSender */\n      tag_112\n        /* \"NFT-Contracts/contracts/market_deploy/ERC20.sol\":6901:6913  _msgSender() */\n      jump\t// in\n    tag_169:\n        /* \"NFT-Contracts/contracts/market_deploy/ERC20.sol\":6885:6913  address owner = _msgSender() */\n      swap1\n      pop\n        /* \"NFT-Contracts/contracts/market_deploy/ERC20.sol\":6924:6948  uint256 currentAllowance */\n      0x00\n        /* \"NFT-Contracts/contracts/market_deploy/ERC20.sol\":6951:6976  allowance(owner, spender) */\n      tag_170\n        /* \"NFT-Contracts/contracts/market_deploy/ERC20.sol\":6961:6966  owner */\n      dup3\n        /* \"NFT-Contracts/contracts/market_deploy/ERC20.sol\":6968:6975  spender */\n      dup7\n        /* \"NFT-Contracts/contracts/market_deploy/ERC20.sol\":6951:6960  allowance */\n      tag_97\n        /* \"NFT-Contracts/contracts/market_deploy/ERC20.sol\":6951:6976  allowance(owner, spender) */\n      jump\t// in\n    tag_170:\n        /* \"NFT-Contracts/contracts/market_deploy/ERC20.sol\":6924:6976  uint256 currentAllowance = allowance(owner, spender) */\n      swap1\n      pop\n        /* \"NFT-Contracts/contracts/market_deploy/ERC20.sol\":7015:7030  subtractedValue */\n      dup4\n        /* \"NFT-Contracts/contracts/market_deploy/ERC20.sol\":6995:7011  currentAllowance */\n      dup2\n        /* \"NFT-Contracts/contracts/market_deploy/ERC20.sol\":6995:7030  currentAllowance >= subtractedValue */\n      lt\n      iszero\n        /* \"NFT-Contracts/contracts/market_deploy/ERC20.sol\":6987:7072  require(currentAllowance >= subtractedValue, \"ERC20: decreased allowance below zero\") */\n      tag_171\n      jumpi\n      mload(0x40)\n      0x08c379a000000000000000000000000000000000000000000000000000000000\n      dup2\n      mstore\n      0x04\n      add\n      tag_172\n      swap1\n      tag_173\n      jump\t// in\n    tag_172:\n      mload(0x40)\n      dup1\n      swap2\n      sub\n      swap1\n      revert\n    tag_171:\n        /* \"NFT-Contracts/contracts/market_deploy/ERC20.sol\":7108:7168  _approve(owner, spender, currentAllowance - subtractedValue) */\n      tag_174\n        /* \"NFT-Contracts/contracts/market_deploy/ERC20.sol\":7117:7122  owner */\n      dup3\n        /* \"NFT-Contracts/contracts/market_deploy/ERC20.sol\":7124:7131  spender */\n      dup7\n        /* \"NFT-Contracts/contracts/market_deploy/ERC20.sol\":7152:7167  subtractedValue */\n      dup7\n        /* \"NFT-Contracts/contracts/market_deploy/ERC20.sol\":7133:7149  currentAllowance */\n      dup5\n        /* \"NFT-Contracts/contracts/market_deploy/ERC20.sol\":7133:7167  currentAllowance - subtractedValue */\n      sub\n        /* \"NFT-Contracts/contracts/market_deploy/ERC20.sol\":7108:7116  _approve */\n      tag_114\n        /* \"NFT-Contracts/contracts/market_deploy/ERC20.sol\":7108:7168  _approve(owner, spender, currentAllowance - subtractedValue) */\n      jump\t// in\n    tag_174:\n        /* \"NFT-Contracts/contracts/market_deploy/ERC20.sol\":7199:7203  true */\n      0x01\n        /* \"NFT-Contracts/contracts/market_deploy/ERC20.sol\":7192:7203  return true */\n      swap3\n      pop\n      pop\n      pop\n        /* \"NFT-Contracts/contracts/market_deploy/ERC20.sol\":6775:7211  function decreaseAllowance(address spender, uint256 subtractedValue) public virtual returns (bool) {\r... */\n      swap3\n      swap2\n      pop\n      pop\n      jump\t// out\n        /* \"NFT-Contracts/contracts/market_deploy/ERC20.sol\":3822:4015  function transfer(address to, uint256 amount) public virtual override returns (bool) {\r... */\n    tag_92:\n        /* \"NFT-Contracts/contracts/market_deploy/ERC20.sol\":3901:3905  bool */\n      0x00\n        /* \"NFT-Contracts/contracts/market_deploy/ERC20.sol\":3918:3931  address owner */\n      dup1\n        /* \"NFT-Contracts/contracts/market_deploy/ERC20.sol\":3934:3946  _msgSender() */\n      tag_176\n        /* \"NFT-Contracts/contracts/market_deploy/ERC20.sol\":3934:3944  _msgSender */\n      tag_112\n        /* \"NFT-Contracts/contracts/market_deploy/ERC20.sol\":3934:3946  _msgSender() */\n      jump\t// in\n    tag_176:\n        /* \"NFT-Contracts/contracts/market_deploy/ERC20.sol\":3918:3946  address owner = _msgSender() */\n      swap1\n      pop\n        /* \"NFT-Contracts/contracts/market_deploy/ERC20.sol\":3957:3985  _transfer(owner, to, amount) */\n      tag_177\n        /* \"NFT-Contracts/contracts/market_deploy/ERC20.sol\":3967:3972  owner */\n      dup2\n        /* \"NFT-Contracts/contracts/market_deploy/ERC20.sol\":3974:3976  to */\n      dup6\n        /* \"NFT-Contracts/contracts/market_deploy/ERC20.sol\":3978:3984  amount */\n      dup6\n        /* \"NFT-Contracts/contracts/market_deploy/ERC20.sol\":3957:3966  _transfer */\n      tag_125\n        /* \"NFT-Contracts/contracts/market_deploy/ERC20.sol\":3957:3985  _transfer(owner, to, amount) */\n      jump\t// in\n    tag_177:\n        /* \"NFT-Contracts/contracts/market_deploy/ERC20.sol\":4003:4007  true */\n      0x01\n        /* \"NFT-Contracts/contracts/market_deploy/ERC20.sol\":3996:4007  return true */\n      swap2\n      pop\n      pop\n        /* \"NFT-Contracts/contracts/market_deploy/ERC20.sol\":3822:4015  function transfer(address to, uint256 amount) public virtual override returns (bool) {\r... */\n      swap3\n      swap2\n      pop\n      pop\n      jump\t// out\n        /* \"NFT-Contracts/contracts/market_deploy/ERC20.sol\":4078:4229  function allowance(address owner, address spender) public view virtual override returns (uint256) {\r... */\n    tag_97:\n        /* \"NFT-Contracts/contracts/market_deploy/ERC20.sol\":4167:4174  uint256 */\n      0x00\n        /* \"NFT-Contracts/contracts/market_deploy/ERC20.sol\":4194:4205  _allowances */\n      0x01\n        /* \"NFT-Contracts/contracts/market_deploy/ERC20.sol\":4194:4212  _allowances[owner] */\n      0x00\n        /* \"NFT-Contracts/contracts/market_deploy/ERC20.sol\":4206:4211  owner */\n      dup5\n        /* \"NFT-Contracts/contracts/market_deploy/ERC20.sol\":4194:4212  _allowances[owner] */\n      0xffffffffffffffffffffffffffffffffffffffff\n      and\n      0xffffffffffffffffffffffffffffffffffffffff\n      and\n      dup2\n      mstore\n      0x20\n      add\n      swap1\n      dup2\n      mstore\n      0x20\n      add\n      0x00\n      keccak256\n        /* \"NFT-Contracts/contracts/market_deploy/ERC20.sol\":4194:4221  _allowances[owner][spender] */\n      0x00\n        /* \"NFT-Contracts/contracts/market_deploy/ERC20.sol\":4213:4220  spender */\n      dup4\n        /* \"NFT-Contracts/contracts/market_deploy/ERC20.sol\":4194:4221  _allowances[owner][spender] */\n      0xffffffffffffffffffffffffffffffffffffffff\n      and\n      0xffffffffffffffffffffffffffffffffffffffff\n      and\n      dup2\n      mstore\n      0x20\n      add\n      swap1\n      dup2\n      mstore\n      0x20\n      add\n      0x00\n      keccak256\n      sload\n        /* \"NFT-Contracts/contracts/market_deploy/ERC20.sol\":4187:4221  return _allowances[owner][spender] */\n      swap1\n      pop\n        /* \"NFT-Contracts/contracts/market_deploy/ERC20.sol\":4078:4229  function allowance(address owner, address spender) public view virtual override returns (uint256) {\r... */\n      swap3\n      swap2\n      pop\n      pop\n      jump\t// out\n        /* \"NFT-Contracts/contracts/market_deploy/Ownable.sol\":2142:2343  function transferOwnership(address newOwner) public virtual onlyOwner {\r... */\n    tag_101:\n        /* \"NFT-Contracts/contracts/market_deploy/Ownable.sol\":1122:1135  _checkOwner() */\n      tag_180\n        /* \"NFT-Contracts/contracts/market_deploy/Ownable.sol\":1122:1133  _checkOwner */\n      tag_137\n        /* \"NFT-Contracts/contracts/market_deploy/Ownable.sol\":1122:1135  _checkOwner() */\n      jump\t// in\n    tag_180:\n        /* \"NFT-Contracts/contracts/market_deploy/Ownable.sol\":2251:2252  0 */\n      0x00\n        /* \"NFT-Contracts/contracts/market_deploy/Ownable.sol\":2231:2253  newOwner != address(0) */\n      0xffffffffffffffffffffffffffffffffffffffff\n      and\n        /* \"NFT-Contracts/contracts/market_deploy/Ownable.sol\":2231:2239  newOwner */\n      dup2\n        /* \"NFT-Contracts/contracts/market_deploy/Ownable.sol\":2231:2253  newOwner != address(0) */\n      0xffffffffffffffffffffffffffffffffffffffff\n      and\n      eq\n      iszero\n        /* \"NFT-Contracts/contracts/market_deploy/Ownable.sol\":2223:2296  require(newOwner != address(0), \"Ownable: new owner is the zero address\") */\n      tag_182\n      jumpi\n      mload(0x40)\n      0x08c379a000000000000000000000000000000000000000000000000000000000\n      dup2\n      mstore\n      0x04\n      add\n      tag_183\n      swap1\n      tag_184\n      jump\t// in\n    tag_183:\n      mload(0x40)\n      dup1\n      swap2\n      sub\n      swap1\n      revert\n    tag_182:\n        /* \"NFT-Contracts/contracts/market_deploy/Ownable.sol\":2307:2335  _transferOwnership(newOwner) */\n      tag_185\n        /* \"NFT-Contracts/contracts/market_deploy/Ownable.sol\":2326:2334  newOwner */\n      dup2\n        /* \"NFT-Contracts/contracts/market_deploy/Ownable.sol\":2307:2325  _transferOwnership */\n      tag_156\n        /* \"NFT-Contracts/contracts/market_deploy/Ownable.sol\":2307:2335  _transferOwnership(newOwner) */\n      jump\t// in\n    tag_185:\n        /* \"NFT-Contracts/contracts/market_deploy/Ownable.sol\":2142:2343  function transferOwnership(address newOwner) public virtual onlyOwner {\r... */\n      pop\n      jump\t// out\n        /* \"NFT-Contracts/contracts/market_deploy/SafeMath.sol\":302:483  function add(uint256 a, uint256 b) internal pure returns (uint256) {\r... */\n    tag_102:\n        /* \"NFT-Contracts/contracts/market_deploy/SafeMath.sol\":360:367  uint256 */\n      0x00\n        /* \"NFT-Contracts/contracts/market_deploy/SafeMath.sol\":380:389  uint256 c */\n      dup1\n        /* \"NFT-Contracts/contracts/market_deploy/SafeMath.sol\":396:397  b */\n      dup3\n        /* \"NFT-Contracts/contracts/market_deploy/SafeMath.sol\":392:393  a */\n      dup5\n        /* \"NFT-Contracts/contracts/market_deploy/SafeMath.sol\":392:397  a + b */\n      tag_187\n      swap2\n      swap1\n      tag_134\n      jump\t// in\n    tag_187:\n        /* \"NFT-Contracts/contracts/market_deploy/SafeMath.sol\":380:397  uint256 c = a + b */\n      swap1\n      pop\n        /* \"NFT-Contracts/contracts/market_deploy/SafeMath.sol\":421:422  a */\n      dup4\n        /* \"NFT-Contracts/contracts/market_deploy/SafeMath.sol\":416:417  c */\n      dup2\n        /* \"NFT-Contracts/contracts/market_deploy/SafeMath.sol\":416:422  c >= a */\n      lt\n      iszero\n        /* \"NFT-Contracts/contracts/market_deploy/SafeMath.sol\":408:454  require(c >= a, \"SafeMath: addition overflow\") */\n      tag_188\n      jumpi\n      mload(0x40)\n      0x08c379a000000000000000000000000000000000000000000000000000000000\n      dup2\n      mstore\n      0x04\n      add\n      tag_189\n      swap1\n      tag_190\n      jump\t// in\n    tag_189:\n      mload(0x40)\n      dup1\n      swap2\n      sub\n      swap1\n      revert\n    tag_188:\n        /* \"NFT-Contracts/contracts/market_deploy/SafeMath.sol\":474:475  c */\n      dup1\n        /* \"NFT-Contracts/contracts/market_deploy/SafeMath.sol\":467:475  return c */\n      swap2\n      pop\n      pop\n        /* \"NFT-Contracts/contracts/market_deploy/SafeMath.sol\":302:483  function add(uint256 a, uint256 b) internal pure returns (uint256) {\r... */\n      swap3\n      swap2\n      pop\n      pop\n      jump\t// out\n        /* \"NFT-Contracts/contracts/market_deploy/Context.sol\":145:260  function _msgSender() internal view virtual returns (address payable) {\r... */\n    tag_112:\n        /* \"NFT-Contracts/contracts/market_deploy/Context.sol\":198:213  address payable */\n      0x00\n        /* \"NFT-Contracts/contracts/market_deploy/Context.sol\":241:251  msg.sender */\n      caller\n        /* \"NFT-Contracts/contracts/market_deploy/Context.sol\":226:252  return payable(msg.sender) */\n      swap1\n      pop\n        /* \"NFT-Contracts/contracts/market_deploy/Context.sol\":145:260  function _msgSender() internal view virtual returns (address payable) {\r... */\n      swap1\n      jump\t// out\n        /* \"NFT-Contracts/contracts/market_deploy/ERC20.sol\":10400:10780  function _approve(\r... */\n    tag_114:\n        /* \"NFT-Contracts/contracts/market_deploy/ERC20.sol\":10553:10554  0 */\n      0x00\n        /* \"NFT-Contracts/contracts/market_deploy/ERC20.sol\":10536:10555  owner != address(0) */\n      0xffffffffffffffffffffffffffffffffffffffff\n      and\n        /* \"NFT-Contracts/contracts/market_deploy/ERC20.sol\":10536:10541  owner */\n      dup4\n        /* \"NFT-Contracts/contracts/market_deploy/ERC20.sol\":10536:10555  owner != address(0) */\n      0xffffffffffffffffffffffffffffffffffffffff\n      and\n      eq\n      iszero\n        /* \"NFT-Contracts/contracts/market_deploy/ERC20.sol\":10528:10596  require(owner != address(0), \"ERC20: approve from the zero address\") */\n      tag_193\n      jumpi\n      mload(0x40)\n      0x08c379a000000000000000000000000000000000000000000000000000000000\n      dup2\n      mstore\n      0x04\n      add\n      tag_194\n      swap1\n      tag_195\n      jump\t// in\n    tag_194:\n      mload(0x40)\n      dup1\n      swap2\n      sub\n      swap1\n      revert\n    tag_193:\n        /* \"NFT-Contracts/contracts/market_deploy/ERC20.sol\":10634:10635  0 */\n      0x00\n        /* \"NFT-Contracts/contracts/market_deploy/ERC20.sol\":10615:10636  spender != address(0) */\n      0xffffffffffffffffffffffffffffffffffffffff\n      and\n        /* \"NFT-Contracts/contracts/market_deploy/ERC20.sol\":10615:10622  spender */\n      dup3\n        /* \"NFT-Contracts/contracts/market_deploy/ERC20.sol\":10615:10636  spender != address(0) */\n      0xffffffffffffffffffffffffffffffffffffffff\n      and\n      eq\n      iszero\n        /* \"NFT-Contracts/contracts/market_deploy/ERC20.sol\":10607:10675  require(spender != address(0), \"ERC20: approve to the zero address\") */\n      tag_196\n      jumpi\n      mload(0x40)\n      0x08c379a000000000000000000000000000000000000000000000000000000000\n      dup2\n      mstore\n      0x04\n      add\n      tag_197\n      swap1\n      tag_198\n      jump\t// in\n    tag_197:\n      mload(0x40)\n      dup1\n      swap2\n      sub\n      swap1\n      revert\n    tag_196:\n        /* \"NFT-Contracts/contracts/market_deploy/ERC20.sol\":10718:10724  amount */\n      dup1\n        /* \"NFT-Contracts/contracts/market_deploy/ERC20.sol\":10688:10699  _allowances */\n      0x01\n        /* \"NFT-Contracts/contracts/market_deploy/ERC20.sol\":10688:10706  _allowances[owner] */\n      0x00\n        /* \"NFT-Contracts/contracts/market_deploy/ERC20.sol\":10700:10705  owner */\n      dup6\n        /* \"NFT-Contracts/contracts/market_deploy/ERC20.sol\":10688:10706  _allowances[owner] */\n      0xffffffffffffffffffffffffffffffffffffffff\n      and\n      0xffffffffffffffffffffffffffffffffffffffff\n      and\n      dup2\n      mstore\n      0x20\n      add\n      swap1\n      dup2\n      mstore\n      0x20\n      add\n      0x00\n      keccak256\n        /* \"NFT-Contracts/contracts/market_deploy/ERC20.sol\":10688:10715  _allowances[owner][spender] */\n      0x00\n        /* \"NFT-Contracts/contracts/market_deploy/ERC20.sol\":10707:10714  spender */\n      dup5\n        /* \"NFT-Contracts/contracts/market_deploy/ERC20.sol\":10688:10715  _allowances[owner][spender] */\n      0xffffffffffffffffffffffffffffffffffffffff\n      and\n      0xffffffffffffffffffffffffffffffffffffffff\n      and\n      dup2\n      mstore\n      0x20\n      add\n      swap1\n      dup2\n      mstore\n      0x20\n      add\n      0x00\n      keccak256\n        /* \"NFT-Contracts/contracts/market_deploy/ERC20.sol\":10688:10724  _allowances[owner][spender] = amount */\n      dup2\n      swap1\n      sstore\n      pop\n        /* \"NFT-Contracts/contracts/market_deploy/ERC20.sol\":10756:10763  spender */\n      dup2\n        /* \"NFT-Contracts/contracts/market_deploy/ERC20.sol\":10740:10772  Approval(owner, spender, amount) */\n      0xffffffffffffffffffffffffffffffffffffffff\n      and\n        /* \"NFT-Contracts/contracts/market_deploy/ERC20.sol\":10749:10754  owner */\n      dup4\n        /* \"NFT-Contracts/contracts/market_deploy/ERC20.sol\":10740:10772  Approval(owner, spender, amount) */\n      0xffffffffffffffffffffffffffffffffffffffff\n      and\n      0x8c5be1e5ebec7d5bd14f71427d1e84f3dd0314c0f7b2291e5b200ac8c7c3b925\n        /* \"NFT-Contracts/contracts/market_deploy/ERC20.sol\":10765:10771  amount */\n      dup4\n        /* \"NFT-Contracts/contracts/market_deploy/ERC20.sol\":10740:10772  Approval(owner, spender, amount) */\n      mload(0x40)\n      tag_199\n      swap2\n      swap1\n      tag_39\n      jump\t// in\n    tag_199:\n      mload(0x40)\n      dup1\n      swap2\n      sub\n      swap1\n      log3\n        /* \"NFT-Contracts/contracts/market_deploy/ERC20.sol\":10400:10780  function _approve(\r... */\n      pop\n      pop\n      pop\n      jump\t// out\n        /* \"NFT-Contracts/contracts/market_deploy/ERC20.sol\":11071:11524  function _spendAllowance(\r... */\n    tag_123:\n        /* \"NFT-Contracts/contracts/market_deploy/ERC20.sol\":11206:11230  uint256 currentAllowance */\n      0x00\n        /* \"NFT-Contracts/contracts/market_deploy/ERC20.sol\":11233:11258  allowance(owner, spender) */\n      tag_201\n        /* \"NFT-Contracts/contracts/market_deploy/ERC20.sol\":11243:11248  owner */\n      dup5\n        /* \"NFT-Contracts/contracts/market_deploy/ERC20.sol\":11250:11257  spender */\n      dup5\n        /* \"NFT-Contracts/contracts/market_deploy/ERC20.sol\":11233:11242  allowance */\n      tag_97\n        /* \"NFT-Contracts/contracts/market_deploy/ERC20.sol\":11233:11258  allowance(owner, spender) */\n      jump\t// in\n    tag_201:\n        /* \"NFT-Contracts/contracts/market_deploy/ERC20.sol\":11206:11258  uint256 currentAllowance = allowance(owner, spender) */\n      swap1\n      pop\n        /* \"NFT-Contracts/contracts/market_deploy/ERC20.sol\":11293:11310  type(uint256).max */\n      0xffffffffffffffffffffffffffffffffffffffffffffffffffffffffffffffff\n        /* \"NFT-Contracts/contracts/market_deploy/ERC20.sol\":11273:11289  currentAllowance */\n      dup2\n        /* \"NFT-Contracts/contracts/market_deploy/ERC20.sol\":11273:11310  currentAllowance != type(uint256).max */\n      eq\n        /* \"NFT-Contracts/contracts/market_deploy/ERC20.sol\":11269:11517  if (currentAllowance != type(uint256).max) {\r... */\n      tag_202\n      jumpi\n        /* \"NFT-Contracts/contracts/market_deploy/ERC20.sol\":11355:11361  amount */\n      dup2\n        /* \"NFT-Contracts/contracts/market_deploy/ERC20.sol\":11335:11351  currentAllowance */\n      dup2\n        /* \"NFT-Contracts/contracts/market_deploy/ERC20.sol\":11335:11361  currentAllowance >= amount */\n      lt\n      iszero\n        /* \"NFT-Contracts/contracts/market_deploy/ERC20.sol\":11327:11395  require(currentAllowance >= amount, \"ERC20: insufficient allowance\") */\n      tag_203\n      jumpi\n      mload(0x40)\n      0x08c379a000000000000000000000000000000000000000000000000000000000\n      dup2\n      mstore\n      0x04\n      add\n      tag_204\n      swap1\n      tag_205\n      jump\t// in\n    tag_204:\n      mload(0x40)\n      dup1\n      swap2\n      sub\n      swap1\n      revert\n    tag_203:\n        /* \"NFT-Contracts/contracts/market_deploy/ERC20.sol\":11439:11490  _approve(owner, spender, currentAllowance - amount) */\n      tag_206\n        /* \"NFT-Contracts/contracts/market_deploy/ERC20.sol\":11448:11453  owner */\n      dup5\n        /* \"NFT-Contracts/contracts/market_deploy/ERC20.sol\":11455:11462  spender */\n      dup5\n        /* \"NFT-Contracts/contracts/market_deploy/ERC20.sol\":11483:11489  amount */\n      dup5\n        /* \"NFT-Contracts/contracts/market_deploy/ERC20.sol\":11464:11480  currentAllowance */\n      dup5\n        /* \"NFT-Contracts/contracts/market_deploy/ERC20.sol\":11464:11489  currentAllowance - amount */\n      sub\n        /* \"NFT-Contracts/contracts/market_deploy/ERC20.sol\":11439:11447  _approve */\n      tag_114\n        /* \"NFT-Contracts/contracts/market_deploy/ERC20.sol\":11439:11490  _approve(owner, spender, currentAllowance - amount) */\n      jump\t// in\n    tag_206:\n        /* \"NFT-Contracts/contracts/market_deploy/ERC20.sol\":11269:11517  if (currentAllowance != type(uint256).max) {\r... */\n    tag_202:\n        /* \"NFT-Contracts/contracts/market_deploy/ERC20.sol\":11195:11524  {\r... */\n      pop\n        /* \"NFT-Contracts/contracts/market_deploy/ERC20.sol\":11071:11524  function _spendAllowance(\r... */\n      pop\n      pop\n      pop\n      jump\t// out\n        /* \"NFT-Contracts/contracts/market_deploy/ERC20.sol\":7681:8352  function _transfer(\r... */\n    tag_125:\n        /* \"NFT-Contracts/contracts/market_deploy/ERC20.sol\":7828:7829  0 */\n      0x00\n        /* \"NFT-Contracts/contracts/market_deploy/ERC20.sol\":7812:7830  from != address(0) */\n      0xffffffffffffffffffffffffffffffffffffffff\n      and\n        /* \"NFT-Contracts/contracts/market_deploy/ERC20.sol\":7812:7816  from */\n      dup4\n        /* \"NFT-Contracts/contracts/market_deploy/ERC20.sol\":7812:7830  from != address(0) */\n      0xffffffffffffffffffffffffffffffffffffffff\n      and\n      eq\n      iszero\n        /* \"NFT-Contracts/contracts/market_deploy/ERC20.sol\":7804:7872  require(from != address(0), \"ERC20: transfer from the zero address\") */\n      tag_208\n      jumpi\n      mload(0x40)\n      0x08c379a000000000000000000000000000000000000000000000000000000000\n      dup2\n      mstore\n      0x04\n      add\n      tag_209\n      swap1\n      tag_210\n      jump\t// in\n    tag_209:\n      mload(0x40)\n      dup1\n      swap2\n      sub\n      swap1\n      revert\n    tag_208:\n        /* \"NFT-Contracts/contracts/market_deploy/ERC20.sol\":7905:7906  0 */\n      0x00\n        /* \"NFT-Contracts/contracts/market_deploy/ERC20.sol\":7891:7907  to != address(0) */\n      0xffffffffffffffffffffffffffffffffffffffff\n      and\n        /* \"NFT-Contracts/contracts/market_deploy/ERC20.sol\":7891:7893  to */\n      dup3\n        /* \"NFT-Contracts/contracts/market_deploy/ERC20.sol\":7891:7907  to != address(0) */\n      0xffffffffffffffffffffffffffffffffffffffff\n      and\n      eq\n      iszero\n        /* \"NFT-Contracts/contracts/market_deploy/ERC20.sol\":7883:7947  require(to != address(0), \"ERC20: transfer to the zero address\") */\n      tag_211\n      jumpi\n      mload(0x40)\n      0x08c379a000000000000000000000000000000000000000000000000000000000\n      dup2\n      mstore\n      0x04\n      add\n      tag_212\n      swap1\n      tag_213\n      jump\t// in\n    tag_212:\n      mload(0x40)\n      dup1\n      swap2\n      sub\n      swap1\n      revert\n    tag_211:\n        /* \"NFT-Contracts/contracts/market_deploy/ERC20.sol\":7960:7998  _beforeTokenTransfer(from, to, amount) */\n      tag_214\n        /* \"NFT-Contracts/contracts/market_deploy/ERC20.sol\":7981:7985  from */\n      dup4\n        /* \"NFT-Contracts/contracts/market_deploy/ERC20.sol\":7987:7989  to */\n      dup4\n        /* \"NFT-Contracts/contracts/market_deploy/ERC20.sol\":7991:7997  amount */\n      dup4\n        /* \"NFT-Contracts/contracts/market_deploy/ERC20.sol\":7960:7980  _beforeTokenTransfer */\n      tag_215\n        /* \"NFT-Contracts/contracts/market_deploy/ERC20.sol\":7960:7998  _beforeTokenTransfer(from, to, amount) */\n      jump\t// in\n    tag_214:\n        /* \"NFT-Contracts/contracts/market_deploy/ERC20.sol\":8011:8030  uint256 fromBalance */\n      0x00\n        /* \"NFT-Contracts/contracts/market_deploy/ERC20.sol\":8033:8042  _balances */\n      dup1\n        /* \"NFT-Contracts/contracts/market_deploy/ERC20.sol\":8033:8048  _balances[from] */\n      0x00\n        /* \"NFT-Contracts/contracts/market_deploy/ERC20.sol\":8043:8047  from */\n      dup6\n        /* \"NFT-Contracts/contracts/market_deploy/ERC20.sol\":8033:8048  _balances[from] */\n      0xffffffffffffffffffffffffffffffffffffffff\n      and\n      0xffffffffffffffffffffffffffffffffffffffff\n      and\n      dup2\n      mstore\n      0x20\n      add\n      swap1\n      dup2\n      mstore\n      0x20\n      add\n      0x00\n      keccak256\n      sload\n        /* \"NFT-Contracts/contracts/market_deploy/ERC20.sol\":8011:8048  uint256 fromBalance = _balances[from] */\n      swap1\n      pop\n        /* \"NFT-Contracts/contracts/market_deploy/ERC20.sol\":8082:8088  amount */\n      dup2\n        /* \"NFT-Contracts/contracts/market_deploy/ERC20.sol\":8067:8078  fromBalance */\n      dup2\n        /* \"NFT-Contracts/contracts/market_deploy/ERC20.sol\":8067:8088  fromBalance >= amount */\n      lt\n      iszero\n        /* \"NFT-Contracts/contracts/market_deploy/ERC20.sol\":8059:8131  require(fromBalance >= amount, \"ERC20: transfer amount exceeds balance\") */\n      tag_216\n      jumpi\n      mload(0x40)\n      0x08c379a000000000000000000000000000000000000000000000000000000000\n      dup2\n      mstore\n      0x04\n      add\n      tag_217\n      swap1\n      tag_218\n      jump\t// in\n    tag_217:\n      mload(0x40)\n      dup1\n      swap2\n      sub\n      swap1\n      revert\n    tag_216:\n        /* \"NFT-Contracts/contracts/market_deploy/ERC20.sol\":8199:8205  amount */\n      dup2\n        /* \"NFT-Contracts/contracts/market_deploy/ERC20.sol\":8185:8196  fromBalance */\n      dup2\n        /* \"NFT-Contracts/contracts/market_deploy/ERC20.sol\":8185:8205  fromBalance - amount */\n      sub\n        /* \"NFT-Contracts/contracts/market_deploy/ERC20.sol\":8167:8176  _balances */\n      0x00\n        /* \"NFT-Contracts/contracts/market_deploy/ERC20.sol\":8167:8182  _balances[from] */\n      dup1\n        /* \"NFT-Contracts/contracts/market_deploy/ERC20.sol\":8177:8181  from */\n      dup7\n        /* \"NFT-Contracts/contracts/market_deploy/ERC20.sol\":8167:8182  _balances[from] */\n      0xffffffffffffffffffffffffffffffffffffffff\n      and\n      0xffffffffffffffffffffffffffffffffffffffff\n      and\n      dup2\n      mstore\n      0x20\n      add\n      swap1\n      dup2\n      mstore\n      0x20\n      add\n      0x00\n      keccak256\n        /* \"NFT-Contracts/contracts/market_deploy/ERC20.sol\":8167:8205  _balances[from] = fromBalance - amount */\n      dup2\n      swap1\n      sstore\n      pop\n        /* \"NFT-Contracts/contracts/market_deploy/ERC20.sol\":8244:8250  amount */\n      dup2\n        /* \"NFT-Contracts/contracts/market_deploy/ERC20.sol\":8227:8236  _balances */\n      0x00\n        /* \"NFT-Contracts/contracts/market_deploy/ERC20.sol\":8227:8240  _balances[to] */\n      dup1\n        /* \"NFT-Contracts/contracts/market_deploy/ERC20.sol\":8237:8239  to */\n      dup6\n        /* \"NFT-Contracts/contracts/market_deploy/ERC20.sol\":8227:8240  _balances[to] */\n      0xffffffffffffffffffffffffffffffffffffffff\n      and\n      0xffffffffffffffffffffffffffffffffffffffff\n      and\n      dup2\n      mstore\n      0x20\n      add\n      swap1\n      dup2\n      mstore\n      0x20\n      add\n      0x00\n      keccak256\n      0x00\n        /* \"NFT-Contracts/contracts/market_deploy/ERC20.sol\":8227:8250  _balances[to] += amount */\n      dup3\n      dup3\n      sload\n      tag_219\n      swap2\n      swap1\n      tag_134\n      jump\t// in\n    tag_219:\n      swap3\n      pop\n      pop\n      dup2\n      swap1\n      sstore\n      pop\n        /* \"NFT-Contracts/contracts/market_deploy/ERC20.sol\":8283:8285  to */\n      dup3\n        /* \"NFT-Contracts/contracts/market_deploy/ERC20.sol\":8268:8294  Transfer(from, to, amount) */\n      0xffffffffffffffffffffffffffffffffffffffff\n      and\n        /* \"NFT-Contracts/contracts/market_deploy/ERC20.sol\":8277:8281  from */\n      dup5\n        /* \"NFT-Contracts/contracts/market_deploy/ERC20.sol\":8268:8294  Transfer(from, to, amount) */\n      0xffffffffffffffffffffffffffffffffffffffff\n      and\n      0xddf252ad1be2c89b69c2b068fc378daa952ba7f163c4a11628f55a4df523b3ef\n        /* \"NFT-Contracts/contracts/market_deploy/ERC20.sol\":8287:8293  amount */\n      dup5\n        /* \"NFT-Contracts/contracts/market_deploy/ERC20.sol\":8268:8294  Transfer(from, to, amount) */\n      mload(0x40)\n      tag_220\n      swap2\n      swap1\n      tag_39\n      jump\t// in\n    tag_220:\n      mload(0x40)\n      dup1\n      swap2\n      sub\n      swap1\n      log3\n        /* \"NFT-Contracts/contracts/market_deploy/ERC20.sol\":8307:8344  _afterTokenTransfer(from, to, amount) */\n      tag_221\n        /* \"NFT-Contracts/contracts/market_deploy/ERC20.sol\":8327:8331  from */\n      dup5\n        /* \"NFT-Contracts/contracts/market_deploy/ERC20.sol\":8333:8335  to */\n      dup5\n        /* \"NFT-Contracts/contracts/market_deploy/ERC20.sol\":8337:8343  amount */\n      dup5\n        /* \"NFT-Contracts/contracts/market_deploy/ERC20.sol\":8307:8326  _afterTokenTransfer */\n      tag_222\n        /* \"NFT-Contracts/contracts/market_deploy/ERC20.sol\":8307:8344  _afterTokenTransfer(from, to, amount) */\n      jump\t// in\n    tag_221:\n        /* \"NFT-Contracts/contracts/market_deploy/ERC20.sol\":7793:8352  {\r... */\n      pop\n        /* \"NFT-Contracts/contracts/market_deploy/ERC20.sol\":7681:8352  function _transfer(\r... */\n      pop\n      pop\n      pop\n      jump\t// out\n        /* \"NFT-Contracts/contracts/market_deploy/Ownable.sol\":1401:1533  function _checkOwner() internal view virtual {\r... */\n    tag_137:\n        /* \"NFT-Contracts/contracts/market_deploy/Ownable.sol\":1476:1488  _msgSender() */\n      tag_224\n        /* \"NFT-Contracts/contracts/market_deploy/Ownable.sol\":1476:1486  _msgSender */\n      tag_112\n        /* \"NFT-Contracts/contracts/market_deploy/Ownable.sol\":1476:1488  _msgSender() */\n      jump\t// in\n    tag_224:\n        /* \"NFT-Contracts/contracts/market_deploy/Ownable.sol\":1465:1488  owner() == _msgSender() */\n      0xffffffffffffffffffffffffffffffffffffffff\n      and\n        /* \"NFT-Contracts/contracts/market_deploy/Ownable.sol\":1465:1472  owner() */\n      tag_225\n        /* \"NFT-Contracts/contracts/market_deploy/Ownable.sol\":1465:1470  owner */\n      tag_80\n        /* \"NFT-Contracts/contracts/market_deploy/Ownable.sol\":1465:1472  owner() */\n      jump\t// in\n    tag_225:\n        /* \"NFT-Contracts/contracts/market_deploy/Ownable.sol\":1465:1488  owner() == _msgSender() */\n      0xffffffffffffffffffffffffffffffffffffffff\n      and\n      eq\n        /* \"NFT-Contracts/contracts/market_deploy/Ownable.sol\":1457:1525  require(owner() == _msgSender(), \"Ownable: caller is not the owner\") */\n      tag_226\n      jumpi\n      mload(0x40)\n      0x08c379a000000000000000000000000000000000000000000000000000000000\n      dup2\n      mstore\n      0x04\n      add\n      tag_227\n      swap1\n      tag_228\n      jump\t// in\n    tag_227:\n      mload(0x40)\n      dup1\n      swap2\n      sub\n      swap1\n      revert\n    tag_226:\n        /* \"NFT-Contracts/contracts/market_deploy/Ownable.sol\":1401:1533  function _checkOwner() internal view virtual {\r... */\n      jump\t// out\n        /* \"NFT-Contracts/contracts/market_deploy/ERC20.sol\":8639:9038  function _mint(address account, uint256 amount) internal virtual {\r... */\n    tag_147:\n        /* \"NFT-Contracts/contracts/market_deploy/ERC20.sol\":8742:8743  0 */\n      0x00\n        /* \"NFT-Contracts/contracts/market_deploy/ERC20.sol\":8723:8744  account != address(0) */\n      0xffffffffffffffffffffffffffffffffffffffff\n      and\n        /* \"NFT-Contracts/contracts/market_deploy/ERC20.sol\":8723:8730  account */\n      dup3\n        /* \"NFT-Contracts/contracts/market_deploy/ERC20.sol\":8723:8744  account != address(0) */\n      0xffffffffffffffffffffffffffffffffffffffff\n      and\n      eq\n      iszero\n        /* \"NFT-Contracts/contracts/market_deploy/ERC20.sol\":8715:8780  require(account != address(0), \"ERC20: mint to the zero address\") */\n      tag_230\n      jumpi\n      mload(0x40)\n      0x08c379a000000000000000000000000000000000000000000000000000000000\n      dup2\n      mstore\n      0x04\n      add\n      tag_231\n      swap1\n      tag_232\n      jump\t// in\n    tag_231:\n      mload(0x40)\n      dup1\n      swap2\n      sub\n      swap1\n      revert\n    tag_230:\n        /* \"NFT-Contracts/contracts/market_deploy/ERC20.sol\":8793:8842  _beforeTokenTransfer(address(0), account, amount) */\n      tag_233\n        /* \"NFT-Contracts/contracts/market_deploy/ERC20.sol\":8822:8823  0 */\n      0x00\n        /* \"NFT-Contracts/contracts/market_deploy/ERC20.sol\":8826:8833  account */\n      dup4\n        /* \"NFT-Contracts/contracts/market_deploy/ERC20.sol\":8835:8841  amount */\n      dup4\n        /* \"NFT-Contracts/contracts/market_deploy/ERC20.sol\":8793:8813  _beforeTokenTransfer */\n      tag_215\n        /* \"NFT-Contracts/contracts/market_deploy/ERC20.sol\":8793:8842  _beforeTokenTransfer(address(0), account, amount) */\n      jump\t// in\n    tag_233:\n        /* \"NFT-Contracts/contracts/market_deploy/ERC20.sol\":8871:8877  amount */\n      dup1\n        /* \"NFT-Contracts/contracts/market_deploy/ERC20.sol\":8855:8867  _totalSupply */\n      0x02\n      0x00\n        /* \"NFT-Contracts/contracts/market_deploy/ERC20.sol\":8855:8877  _totalSupply += amount */\n      dup3\n      dup3\n      sload\n      tag_234\n      swap2\n      swap1\n      tag_134\n      jump\t// in\n    tag_234:\n      swap3\n      pop\n      pop\n      dup2\n      swap1\n      sstore\n      pop\n        /* \"NFT-Contracts/contracts/market_deploy/ERC20.sol\":8910:8916  amount */\n      dup1\n        /* \"NFT-Contracts/contracts/market_deploy/ERC20.sol\":8888:8897  _balances */\n      0x00\n        /* \"NFT-Contracts/contracts/market_deploy/ERC20.sol\":8888:8906  _balances[account] */\n      dup1\n        /* \"NFT-Contracts/contracts/market_deploy/ERC20.sol\":8898:8905  account */\n      dup5\n        /* \"NFT-Contracts/contracts/market_deploy/ERC20.sol\":8888:8906  _balances[account] */\n      0xffffffffffffffffffffffffffffffffffffffff\n      and\n      0xffffffffffffffffffffffffffffffffffffffff\n      and\n      dup2\n      mstore\n      0x20\n      add\n      swap1\n      dup2\n      mstore\n      0x20\n      add\n      0x00\n      keccak256\n      0x00\n        /* \"NFT-Contracts/contracts/market_deploy/ERC20.sol\":8888:8916  _balances[account] += amount */\n      dup3\n      dup3\n      sload\n      tag_235\n      swap2\n      swap1\n      tag_134\n      jump\t// in\n    tag_235:\n      swap3\n      pop\n      pop\n      dup2\n      swap1\n      sstore\n      pop\n        /* \"NFT-Contracts/contracts/market_deploy/ERC20.sol\":8953:8960  account */\n      dup2\n        /* \"NFT-Contracts/contracts/market_deploy/ERC20.sol\":8932:8969  Transfer(address(0), account, amount) */\n      0xffffffffffffffffffffffffffffffffffffffff\n      and\n        /* \"NFT-Contracts/contracts/market_deploy/ERC20.sol\":8949:8950  0 */\n      0x00\n        /* \"NFT-Contracts/contracts/market_deploy/ERC20.sol\":8932:8969  Transfer(address(0), account, amount) */\n      0xffffffffffffffffffffffffffffffffffffffff\n      and\n      0xddf252ad1be2c89b69c2b068fc378daa952ba7f163c4a11628f55a4df523b3ef\n        /* \"NFT-Contracts/contracts/market_deploy/ERC20.sol\":8962:8968  amount */\n      dup4\n        /* \"NFT-Contracts/contracts/market_deploy/ERC20.sol\":8932:8969  Transfer(address(0), account, amount) */\n      mload(0x40)\n      tag_236\n      swap2\n      swap1\n      tag_39\n      jump\t// in\n    tag_236:\n      mload(0x40)\n      dup1\n      swap2\n      sub\n      swap1\n      log3\n        /* \"NFT-Contracts/contracts/market_deploy/ERC20.sol\":8982:9030  _afterTokenTransfer(address(0), account, amount) */\n      tag_237\n        /* \"NFT-Contracts/contracts/market_deploy/ERC20.sol\":9010:9011  0 */\n      0x00\n        /* \"NFT-Contracts/contracts/market_deploy/ERC20.sol\":9014:9021  account */\n      dup4\n        /* \"NFT-Contracts/contracts/market_deploy/ERC20.sol\":9023:9029  amount */\n      dup4\n        /* \"NFT-Contracts/contracts/market_deploy/ERC20.sol\":8982:9001  _afterTokenTransfer */\n      tag_222\n        /* \"NFT-Contracts/contracts/market_deploy/ERC20.sol\":8982:9030  _afterTokenTransfer(address(0), account, amount) */\n      jump\t// in\n    tag_237:\n        /* \"NFT-Contracts/contracts/market_deploy/ERC20.sol\":8639:9038  function _mint(address account, uint256 amount) internal virtual {\r... */\n      pop\n      pop\n      jump\t// out\n        /* \"NFT-Contracts/contracts/market_deploy/ERC20.sol\":9371:9962  function _burn(address account, uint256 amount) internal virtual {\r... */\n    tag_150:\n        /* \"NFT-Contracts/contracts/market_deploy/ERC20.sol\":9474:9475  0 */\n      0x00\n        /* \"NFT-Contracts/contracts/market_deploy/ERC20.sol\":9455:9476  account != address(0) */\n      0xffffffffffffffffffffffffffffffffffffffff\n      and\n        /* \"NFT-Contracts/contracts/market_deploy/ERC20.sol\":9455:9462  account */\n      dup3\n        /* \"NFT-Contracts/contracts/market_deploy/ERC20.sol\":9455:9476  account != address(0) */\n      0xffffffffffffffffffffffffffffffffffffffff\n      and\n      eq\n      iszero\n        /* \"NFT-Contracts/contracts/market_deploy/ERC20.sol\":9447:9514  require(account != address(0), \"ERC20: burn from the zero address\") */\n      tag_239\n      jumpi\n      mload(0x40)\n      0x08c379a000000000000000000000000000000000000000000000000000000000\n      dup2\n      mstore\n      0x04\n      add\n      tag_240\n      swap1\n      tag_241\n      jump\t// in\n    tag_240:\n      mload(0x40)\n      dup1\n      swap2\n      sub\n      swap1\n      revert\n    tag_239:\n        /* \"NFT-Contracts/contracts/market_deploy/ERC20.sol\":9527:9576  _beforeTokenTransfer(account, address(0), amount) */\n      tag_242\n        /* \"NFT-Contracts/contracts/market_deploy/ERC20.sol\":9548:9555  account */\n      dup3\n        /* \"NFT-Contracts/contracts/market_deploy/ERC20.sol\":9565:9566  0 */\n      0x00\n        /* \"NFT-Contracts/contracts/market_deploy/ERC20.sol\":9569:9575  amount */\n      dup4\n        /* \"NFT-Contracts/contracts/market_deploy/ERC20.sol\":9527:9547  _beforeTokenTransfer */\n      tag_215\n        /* \"NFT-Contracts/contracts/market_deploy/ERC20.sol\":9527:9576  _beforeTokenTransfer(account, address(0), amount) */\n      jump\t// in\n    tag_242:\n        /* \"NFT-Contracts/contracts/market_deploy/ERC20.sol\":9589:9611  uint256 accountBalance */\n      0x00\n        /* \"NFT-Contracts/contracts/market_deploy/ERC20.sol\":9614:9623  _balances */\n      dup1\n        /* \"NFT-Contracts/contracts/market_deploy/ERC20.sol\":9614:9632  _balances[account] */\n      0x00\n        /* \"NFT-Contracts/contracts/market_deploy/ERC20.sol\":9624:9631  account */\n      dup5\n        /* \"NFT-Contracts/contracts/market_deploy/ERC20.sol\":9614:9632  _balances[account] */\n      0xffffffffffffffffffffffffffffffffffffffff\n      and\n      0xffffffffffffffffffffffffffffffffffffffff\n      and\n      dup2\n      mstore\n      0x20\n      add\n      swap1\n      dup2\n      mstore\n      0x20\n      add\n      0x00\n      keccak256\n      sload\n        /* \"NFT-Contracts/contracts/market_deploy/ERC20.sol\":9589:9632  uint256 accountBalance = _balances[account] */\n      swap1\n      pop\n        /* \"NFT-Contracts/contracts/market_deploy/ERC20.sol\":9669:9675  amount */\n      dup2\n        /* \"NFT-Contracts/contracts/market_deploy/ERC20.sol\":9651:9665  accountBalance */\n      dup2\n        /* \"NFT-Contracts/contracts/market_deploy/ERC20.sol\":9651:9675  accountBalance >= amount */\n      lt\n      iszero\n        /* \"NFT-Contracts/contracts/market_deploy/ERC20.sol\":9643:9714  require(accountBalance >= amount, \"ERC20: burn amount exceeds balance\") */\n      tag_243\n      jumpi\n      mload(0x40)\n      0x08c379a000000000000000000000000000000000000000000000000000000000\n      dup2\n      mstore\n      0x04\n      add\n      tag_244\n      swap1\n      tag_245\n      jump\t// in\n    tag_244:\n      mload(0x40)\n      dup1\n      swap2\n      sub\n      swap1\n      revert\n    tag_243:\n        /* \"NFT-Contracts/contracts/market_deploy/ERC20.sol\":9788:9794  amount */\n      dup2\n        /* \"NFT-Contracts/contracts/market_deploy/ERC20.sol\":9771:9785  accountBalance */\n      dup2\n        /* \"NFT-Contracts/contracts/market_deploy/ERC20.sol\":9771:9794  accountBalance - amount */\n      sub\n        /* \"NFT-Contracts/contracts/market_deploy/ERC20.sol\":9750:9759  _balances */\n      0x00\n        /* \"NFT-Contracts/contracts/market_deploy/ERC20.sol\":9750:9768  _balances[account] */\n      dup1\n        /* \"NFT-Contracts/contracts/market_deploy/ERC20.sol\":9760:9767  account */\n      dup6\n        /* \"NFT-Contracts/contracts/market_deploy/ERC20.sol\":9750:9768  _balances[account] */\n      0xffffffffffffffffffffffffffffffffffffffff\n      and\n      0xffffffffffffffffffffffffffffffffffffffff\n      and\n      dup2\n      mstore\n      0x20\n      add\n      swap1\n      dup2\n      mstore\n      0x20\n      add\n      0x00\n      keccak256\n        /* \"NFT-Contracts/contracts/market_deploy/ERC20.sol\":9750:9794  _balances[account] = accountBalance - amount */\n      dup2\n      swap1\n      sstore\n      pop\n        /* \"NFT-Contracts/contracts/market_deploy/ERC20.sol\":9832:9838  amount */\n      dup2\n        /* \"NFT-Contracts/contracts/market_deploy/ERC20.sol\":9816:9828  _totalSupply */\n      0x02\n      0x00\n        /* \"NFT-Contracts/contracts/market_deploy/ERC20.sol\":9816:9838  _totalSupply -= amount */\n      dup3\n      dup3\n      sload\n      tag_246\n      swap2\n      swap1\n      tag_247\n      jump\t// in\n    tag_246:\n      swap3\n      pop\n      pop\n      dup2\n      swap1\n      sstore\n      pop\n        /* \"NFT-Contracts/contracts/market_deploy/ERC20.sol\":9882:9883  0 */\n      0x00\n        /* \"NFT-Contracts/contracts/market_deploy/ERC20.sol\":9856:9893  Transfer(account, address(0), amount) */\n      0xffffffffffffffffffffffffffffffffffffffff\n      and\n        /* \"NFT-Contracts/contracts/market_deploy/ERC20.sol\":9865:9872  account */\n      dup4\n        /* \"NFT-Contracts/contracts/market_deploy/ERC20.sol\":9856:9893  Transfer(account, address(0), amount) */\n      0xffffffffffffffffffffffffffffffffffffffff\n      and\n      0xddf252ad1be2c89b69c2b068fc378daa952ba7f163c4a11628f55a4df523b3ef\n        /* \"NFT-Contracts/contracts/market_deploy/ERC20.sol\":9886:9892  amount */\n      dup5\n        /* \"NFT-Contracts/contracts/market_deploy/ERC20.sol\":9856:9893  Transfer(account, address(0), amount) */\n      mload(0x40)\n      tag_248\n      swap2\n      swap1\n      tag_39\n      jump\t// in\n    tag_248:\n      mload(0x40)\n      dup1\n      swap2\n      sub\n      swap1\n      log3\n        /* \"NFT-Contracts/contracts/market_deploy/ERC20.sol\":9906:9954  _afterTokenTransfer(account, address(0), amount) */\n      tag_249\n        /* \"NFT-Contracts/contracts/market_deploy/ERC20.sol\":9926:9933  account */\n      dup4\n        /* \"NFT-Contracts/contracts/market_deploy/ERC20.sol\":9943:9944  0 */\n      0x00\n        /* \"NFT-Contracts/contracts/market_deploy/ERC20.sol\":9947:9953  amount */\n      dup5\n        /* \"NFT-Contracts/contracts/market_deploy/ERC20.sol\":9906:9925  _afterTokenTransfer */\n      tag_222\n        /* \"NFT-Contracts/contracts/market_deploy/ERC20.sol\":9906:9954  _afterTokenTransfer(account, address(0), amount) */\n      jump\t// in\n    tag_249:\n        /* \"NFT-Contracts/contracts/market_deploy/ERC20.sol\":9436:9962  {\r... */\n      pop\n        /* \"NFT-Contracts/contracts/market_deploy/ERC20.sol\":9371:9962  function _burn(address account, uint256 amount) internal virtual {\r... */\n      pop\n      pop\n      jump\t// out\n        /* \"NFT-Contracts/contracts/market_deploy/Ownable.sol\":2503:2694  function _transferOwnership(address newOwner) internal virtual {\r... */\n    tag_156:\n        /* \"NFT-Contracts/contracts/market_deploy/Ownable.sol\":2577:2593  address oldOwner */\n      0x00\n        /* \"NFT-Contracts/contracts/market_deploy/Ownable.sol\":2596:2602  _owner */\n      0x05\n      0x00\n      swap1\n      sload\n      swap1\n      0x0100\n      exp\n      swap1\n      div\n      0xffffffffffffffffffffffffffffffffffffffff\n      and\n        /* \"NFT-Contracts/contracts/market_deploy/Ownable.sol\":2577:2602  address oldOwner = _owner */\n      swap1\n      pop\n        /* \"NFT-Contracts/contracts/market_deploy/Ownable.sol\":2622:2630  newOwner */\n      dup2\n        /* \"NFT-Contracts/contracts/market_deploy/Ownable.sol\":2613:2619  _owner */\n      0x05\n      0x00\n        /* \"NFT-Contracts/contracts/market_deploy/Ownable.sol\":2613:2630  _owner = newOwner */\n      0x0100\n      exp\n      dup2\n      sload\n      dup2\n      0xffffffffffffffffffffffffffffffffffffffff\n      mul\n      not\n      and\n      swap1\n      dup4\n      0xffffffffffffffffffffffffffffffffffffffff\n      and\n      mul\n      or\n      swap1\n      sstore\n      pop\n        /* \"NFT-Contracts/contracts/market_deploy/Ownable.sol\":2677:2685  newOwner */\n      dup2\n        /* \"NFT-Contracts/contracts/market_deploy/Ownable.sol\":2646:2686  OwnershipTransferred(oldOwner, newOwner) */\n      0xffffffffffffffffffffffffffffffffffffffff\n      and\n        /* \"NFT-Contracts/contracts/market_deploy/Ownable.sol\":2667:2675  oldOwner */\n      dup2\n        /* \"NFT-Contracts/contracts/market_deploy/Ownable.sol\":2646:2686  OwnershipTransferred(oldOwner, newOwner) */\n      0xffffffffffffffffffffffffffffffffffffffff\n      and\n      0x8be0079c531659141344cd1fd0a4f28419497f9722a3daafe3b4186f6b6457e0\n      mload(0x40)\n      mload(0x40)\n      dup1\n      swap2\n      sub\n      swap1\n      log3\n        /* \"NFT-Contracts/contracts/market_deploy/Ownable.sol\":2566:2694  {\r... */\n      pop\n        /* \"NFT-Contracts/contracts/market_deploy/Ownable.sol\":2503:2694  function _transferOwnership(address newOwner) internal virtual {\r... */\n      pop\n      jump\t// out\n        /* \"NFT-Contracts/contracts/market_deploy/ERC20.sol\":12124:12249  function _beforeTokenTransfer(\r... */\n    tag_215:\n      pop\n      pop\n      pop\n      jump\t// out\n        /* \"NFT-Contracts/contracts/market_deploy/ERC20.sol\":12853:12977  function _afterTokenTransfer(\r... */\n    tag_222:\n      pop\n      pop\n      pop\n      jump\t// out\n        /* \"#utility.yul\":7:146   */\n    tag_254:\n        /* \"#utility.yul\":53:58   */\n      0x00\n        /* \"#utility.yul\":91:97   */\n      dup2\n        /* \"#utility.yul\":78:98   */\n      calldataload\n        /* \"#utility.yul\":69:98   */\n      swap1\n      pop\n        /* \"#utility.yul\":107:140   */\n      tag_256\n        /* \"#utility.yul\":134:139   */\n      dup2\n        /* \"#utility.yul\":107:140   */\n      tag_257\n      jump\t// in\n    tag_256:\n        /* \"#utility.yul\":7:146   */\n      swap3\n      swap2\n      pop\n      pop\n      jump\t// out\n        /* \"#utility.yul\":152:291   */\n    tag_258:\n        /* \"#utility.yul\":198:203   */\n      0x00\n        /* \"#utility.yul\":236:242   */\n      dup2\n        /* \"#utility.yul\":223:243   */\n      calldataload\n        /* \"#utility.yul\":214:243   */\n      swap1\n      pop\n        /* \"#utility.yul\":252:285   */\n      tag_260\n        /* \"#utility.yul\":279:284   */\n      dup2\n        /* \"#utility.yul\":252:285   */\n      tag_261\n      jump\t// in\n    tag_260:\n        /* \"#utility.yul\":152:291   */\n      swap3\n      swap2\n      pop\n      pop\n      jump\t// out\n        /* \"#utility.yul\":297:626   */\n    tag_71:\n        /* \"#utility.yul\":356:362   */\n      0x00\n        /* \"#utility.yul\":405:407   */\n      0x20\n        /* \"#utility.yul\":393:402   */\n      dup3\n        /* \"#utility.yul\":384:391   */\n      dup5\n        /* \"#utility.yul\":380:403   */\n      sub\n        /* \"#utility.yul\":376:408   */\n      slt\n        /* \"#utility.yul\":373:492   */\n      iszero\n      tag_263\n      jumpi\n        /* \"#utility.yul\":411:490   */\n      tag_264\n      tag_265\n      jump\t// in\n    tag_264:\n        /* \"#utility.yul\":373:492   */\n    tag_263:\n        /* \"#utility.yul\":531:532   */\n      0x00\n        /* \"#utility.yul\":556:609   */\n      tag_266\n        /* \"#utility.yul\":601:608   */\n      dup5\n        /* \"#utility.yul\":592:598   */\n      dup3\n        /* \"#utility.yul\":581:590   */\n      dup6\n        /* \"#utility.yul\":577:599   */\n      add\n        /* \"#utility.yul\":556:609   */\n      tag_254\n      jump\t// in\n    tag_266:\n        /* \"#utility.yul\":546:609   */\n      swap2\n      pop\n        /* \"#utility.yul\":502:619   */\n      pop\n        /* \"#utility.yul\":297:626   */\n      swap3\n      swap2\n      pop\n      pop\n      jump\t// out\n        /* \"#utility.yul\":632:1106   */\n    tag_96:\n        /* \"#utility.yul\":700:706   */\n      0x00\n        /* \"#utility.yul\":708:714   */\n      dup1\n        /* \"#utility.yul\":757:759   */\n      0x40\n        /* \"#utility.yul\":745:754   */\n      dup4\n        /* \"#utility.yul\":736:743   */\n      dup6\n        /* \"#utility.yul\":732:755   */\n      sub\n        /* \"#utility.yul\":728:760   */\n      slt\n        /* \"#utility.yul\":725:844   */\n      iszero\n      tag_268\n      jumpi\n        /* \"#utility.yul\":763:842   */\n      tag_269\n      tag_265\n      jump\t// in\n    tag_269:\n        /* \"#utility.yul\":725:844   */\n    tag_268:\n        /* \"#utility.yul\":883:884   */\n      0x00\n        /* \"#utility.yul\":908:961   */\n      tag_270\n        /* \"#utility.yul\":953:960   */\n      dup6\n        /* \"#utility.yul\":944:950   */\n      dup3\n        /* \"#utility.yul\":933:942   */\n      dup7\n        /* \"#utility.yul\":929:951   */\n      add\n        /* \"#utility.yul\":908:961   */\n      tag_254\n      jump\t// in\n    tag_270:\n        /* \"#utility.yul\":898:961   */\n      swap3\n      pop\n        /* \"#utility.yul\":854:971   */\n      pop\n        /* \"#utility.yul\":1010:1012   */\n      0x20\n        /* \"#utility.yul\":1036:1089   */\n      tag_271\n        /* \"#utility.yul\":1081:1088   */\n      dup6\n        /* \"#utility.yul\":1072:1078   */\n      dup3\n        /* \"#utility.yul\":1061:1070   */\n      dup7\n        /* \"#utility.yul\":1057:1079   */\n      add\n        /* \"#utility.yul\":1036:1089   */\n      tag_254\n      jump\t// in\n    tag_271:\n        /* \"#utility.yul\":1026:1089   */\n      swap2\n      pop\n        /* \"#utility.yul\":981:1099   */\n      pop\n        /* \"#utility.yul\":632:1106   */\n      swap3\n      pop\n      swap3\n      swap1\n      pop\n      jump\t// out\n        /* \"#utility.yul\":1112:1731   */\n    tag_45:\n        /* \"#utility.yul\":1189:1195   */\n      0x00\n        /* \"#utility.yul\":1197:1203   */\n      dup1\n        /* \"#utility.yul\":1205:1211   */\n      0x00\n        /* \"#utility.yul\":1254:1256   */\n      0x60\n        /* \"#utility.yul\":1242:1251   */\n      dup5\n        /* \"#utility.yul\":1233:1240   */\n      dup7\n        /* \"#utility.yul\":1229:1252   */\n      sub\n        /* \"#utility.yul\":1225:1257   */\n      slt\n        /* \"#utility.yul\":1222:1341   */\n      iszero\n      tag_273\n      jumpi\n        /* \"#utility.yul\":1260:1339   */\n      tag_274\n      tag_265\n      jump\t// in\n    tag_274:\n        /* \"#utility.yul\":1222:1341   */\n    tag_273:\n        /* \"#utility.yul\":1380:1381   */\n      0x00\n        /* \"#utility.yul\":1405:1458   */\n      tag_275\n        /* \"#utility.yul\":1450:1457   */\n      dup7\n        /* \"#utility.yul\":1441:1447   */\n      dup3\n        /* \"#utility.yul\":1430:1439   */\n      dup8\n        /* \"#utility.yul\":1426:1448   */\n      add\n        /* \"#utility.yul\":1405:1458   */\n      tag_254\n      jump\t// in\n    tag_275:\n        /* \"#utility.yul\":1395:1458   */\n      swap4\n      pop\n        /* \"#utility.yul\":1351:1468   */\n      pop\n        /* \"#utility.yul\":1507:1509   */\n      0x20\n        /* \"#utility.yul\":1533:1586   */\n      tag_276\n        /* \"#utility.yul\":1578:1585   */\n      dup7\n        /* \"#utility.yul\":1569:1575   */\n      dup3\n        /* \"#utility.yul\":1558:1567   */\n      dup8\n        /* \"#utility.yul\":1554:1576   */\n      add\n        /* \"#utility.yul\":1533:1586   */\n      tag_254\n      jump\t// in\n    tag_276:\n        /* \"#utility.yul\":1523:1586   */\n      swap3\n      pop\n        /* \"#utility.yul\":1478:1596   */\n      pop\n        /* \"#utility.yul\":1635:1637   */\n      0x40\n        /* \"#utility.yul\":1661:1714   */\n      tag_277\n        /* \"#utility.yul\":1706:1713   */\n      dup7\n        /* \"#utility.yul\":1697:1703   */\n      dup3\n        /* \"#utility.yul\":1686:1695   */\n      dup8\n        /* \"#utility.yul\":1682:1704   */\n      add\n        /* \"#utility.yul\":1661:1714   */\n      tag_258\n      jump\t// in\n    tag_277:\n        /* \"#utility.yul\":1651:1714   */\n      swap2\n      pop\n        /* \"#utility.yul\":1606:1724   */\n      pop\n        /* \"#utility.yul\":1112:1731   */\n      swap3\n      pop\n      swap3\n      pop\n      swap3\n      jump\t// out\n        /* \"#utility.yul\":1737:2211   */\n    tag_32:\n        /* \"#utility.yul\":1805:1811   */\n      0x00\n        /* \"#utility.yul\":1813:1819   */\n      dup1\n        /* \"#utility.yul\":1862:1864   */\n      0x40\n        /* \"#utility.yul\":1850:1859   */\n      dup4\n        /* \"#utility.yul\":1841:1848   */\n      dup6\n        /* \"#utility.yul\":1837:1860   */\n      sub\n        /* \"#utility.yul\":1833:1865   */\n      slt\n        /* \"#utility.yul\":1830:1949   */\n      iszero\n      tag_279\n      jumpi\n        /* \"#utility.yul\":1868:1947   */\n      tag_280\n      tag_265\n      jump\t// in\n    tag_280:\n        /* \"#utility.yul\":1830:1949   */\n    tag_279:\n        /* \"#utility.yul\":1988:1989   */\n      0x00\n        /* \"#utility.yul\":2013:2066   */\n      tag_281\n        /* \"#utility.yul\":2058:2065   */\n      dup6\n        /* \"#utility.yul\":2049:2055   */\n      dup3\n        /* \"#utility.yul\":2038:2047   */\n      dup7\n        /* \"#utility.yul\":2034:2056   */\n      add\n        /* \"#utility.yul\":2013:2066   */\n      tag_254\n      jump\t// in\n    tag_281:\n        /* \"#utility.yul\":2003:2066   */\n      swap3\n      pop\n        /* \"#utility.yul\":1959:2076   */\n      pop\n        /* \"#utility.yul\":2115:2117   */\n      0x20\n        /* \"#utility.yul\":2141:2194   */\n      tag_282\n        /* \"#utility.yul\":2186:2193   */\n      dup6\n        /* \"#utility.yul\":2177:2183   */\n      dup3\n        /* \"#utility.yul\":2166:2175   */\n      dup7\n        /* \"#utility.yul\":2162:2184   */\n      add\n        /* \"#utility.yul\":2141:2194   */\n      tag_258\n      jump\t// in\n    tag_282:\n        /* \"#utility.yul\":2131:2194   */\n      swap2\n      pop\n        /* \"#utility.yul\":2086:2204   */\n      pop\n        /* \"#utility.yul\":1737:2211   */\n      swap3\n      pop\n      swap3\n      swap1\n      pop\n      jump\t// out\n        /* \"#utility.yul\":2217:2546   */\n    tag_67:\n        /* \"#utility.yul\":2276:2282   */\n      0x00\n        /* \"#utility.yul\":2325:2327   */\n      0x20\n        /* \"#utility.yul\":2313:2322   */\n      dup3\n        /* \"#utility.yul\":2304:2311   */\n      dup5\n        /* \"#utility.yul\":2300:2323   */\n      sub\n        /* \"#utility.yul\":2296:2328   */\n      slt\n        /* \"#utility.yul\":2293:2412   */\n      iszero\n      tag_284\n      jumpi\n        /* \"#utility.yul\":2331:2410   */\n      tag_285\n      tag_265\n      jump\t// in\n    tag_285:\n        /* \"#utility.yul\":2293:2412   */\n    tag_284:\n        /* \"#utility.yul\":2451:2452   */\n      0x00\n        /* \"#utility.yul\":2476:2529   */\n      tag_286\n        /* \"#utility.yul\":2521:2528   */\n      dup5\n        /* \"#utility.yul\":2512:2518   */\n      dup3\n        /* \"#utility.yul\":2501:2510   */\n      dup6\n        /* \"#utility.yul\":2497:2519   */\n      add\n        /* \"#utility.yul\":2476:2529   */\n      tag_258\n      jump\t// in\n    tag_286:\n        /* \"#utility.yul\":2466:2529   */\n      swap2\n      pop\n        /* \"#utility.yul\":2422:2539   */\n      pop\n        /* \"#utility.yul\":2217:2546   */\n      swap3\n      swap2\n      pop\n      pop\n      jump\t// out\n        /* \"#utility.yul\":2552:2670   */\n    tag_287:\n        /* \"#utility.yul\":2639:2663   */\n      tag_289\n        /* \"#utility.yul\":2657:2662   */\n      dup2\n        /* \"#utility.yul\":2639:2663   */\n      tag_290\n      jump\t// in\n    tag_289:\n        /* \"#utility.yul\":2634:2637   */\n      dup3\n        /* \"#utility.yul\":2627:2664   */\n      mstore\n        /* \"#utility.yul\":2552:2670   */\n      pop\n      pop\n      jump\t// out\n        /* \"#utility.yul\":2676:2785   */\n    tag_291:\n        /* \"#utility.yul\":2757:2778   */\n      tag_293\n        /* \"#utility.yul\":2772:2777   */\n      dup2\n        /* \"#utility.yul\":2757:2778   */\n      tag_294\n      jump\t// in\n    tag_293:\n        /* \"#utility.yul\":2752:2755   */\n      dup3\n        /* \"#utility.yul\":2745:2779   */\n      mstore\n        /* \"#utility.yul\":2676:2785   */\n      pop\n      pop\n      jump\t// out\n        /* \"#utility.yul\":2791:3155   */\n    tag_295:\n        /* \"#utility.yul\":2879:2882   */\n      0x00\n        /* \"#utility.yul\":2907:2946   */\n      tag_297\n        /* \"#utility.yul\":2940:2945   */\n      dup3\n        /* \"#utility.yul\":2907:2946   */\n      tag_298\n      jump\t// in\n    tag_297:\n        /* \"#utility.yul\":2962:3033   */\n      tag_299\n        /* \"#utility.yul\":3026:3032   */\n      dup2\n        /* \"#utility.yul\":3021:3024   */\n      dup6\n        /* \"#utility.yul\":2962:3033   */\n      tag_300\n      jump\t// in\n    tag_299:\n        /* \"#utility.yul\":2955:3033   */\n      swap4\n      pop\n        /* \"#utility.yul\":3042:3094   */\n      tag_301\n        /* \"#utility.yul\":3087:3093   */\n      dup2\n        /* \"#utility.yul\":3082:3085   */\n      dup6\n        /* \"#utility.yul\":3075:3079   */\n      0x20\n        /* \"#utility.yul\":3068:3073   */\n      dup7\n        /* \"#utility.yul\":3064:3080   */\n      add\n        /* \"#utility.yul\":3042:3094   */\n      tag_302\n      jump\t// in\n    tag_301:\n        /* \"#utility.yul\":3119:3148   */\n      tag_303\n        /* \"#utility.yul\":3141:3147   */\n      dup2\n        /* \"#utility.yul\":3119:3148   */\n      tag_304\n      jump\t// in\n    tag_303:\n        /* \"#utility.yul\":3114:3117   */\n      dup5\n        /* \"#utility.yul\":3110:3149   */\n      add\n        /* \"#utility.yul\":3103:3149   */\n      swap2\n      pop\n        /* \"#utility.yul\":2883:3155   */\n      pop\n        /* \"#utility.yul\":2791:3155   */\n      swap3\n      swap2\n      pop\n      pop\n      jump\t// out\n        /* \"#utility.yul\":3161:3527   */\n    tag_305:\n        /* \"#utility.yul\":3303:3306   */\n      0x00\n        /* \"#utility.yul\":3324:3391   */\n      tag_307\n        /* \"#utility.yul\":3388:3390   */\n      0x23\n        /* \"#utility.yul\":3383:3386   */\n      dup4\n        /* \"#utility.yul\":3324:3391   */\n      tag_300\n      jump\t// in\n    tag_307:\n        /* \"#utility.yul\":3317:3391   */\n      swap2\n      pop\n        /* \"#utility.yul\":3400:3493   */\n      tag_308\n        /* \"#utility.yul\":3489:3492   */\n      dup3\n        /* \"#utility.yul\":3400:3493   */\n      tag_309\n      jump\t// in\n    tag_308:\n        /* \"#utility.yul\":3518:3520   */\n      0x40\n        /* \"#utility.yul\":3513:3516   */\n      dup3\n        /* \"#utility.yul\":3509:3521   */\n      add\n        /* \"#utility.yul\":3502:3521   */\n      swap1\n      pop\n        /* \"#utility.yul\":3161:3527   */\n      swap2\n      swap1\n      pop\n      jump\t// out\n        /* \"#utility.yul\":3533:3899   */\n    tag_310:\n        /* \"#utility.yul\":3675:3678   */\n      0x00\n        /* \"#utility.yul\":3696:3763   */\n      tag_312\n        /* \"#utility.yul\":3760:3762   */\n      0x22\n        /* \"#utility.yul\":3755:3758   */\n      dup4\n        /* \"#utility.yul\":3696:3763   */\n      tag_300\n      jump\t// in\n    tag_312:\n        /* \"#utility.yul\":3689:3763   */\n      swap2\n      pop\n        /* \"#utility.yul\":3772:3865   */\n      tag_313\n        /* \"#utility.yul\":3861:3864   */\n      dup3\n        /* \"#utility.yul\":3772:3865   */\n      tag_314\n      jump\t// in\n    tag_313:\n        /* \"#utility.yul\":3890:3892   */\n      0x40\n        /* \"#utility.yul\":3885:3888   */\n      dup3\n        /* \"#utility.yul\":3881:3893   */\n      add\n        /* \"#utility.yul\":3874:3893   */\n      swap1\n      pop\n        /* \"#utility.yul\":3533:3899   */\n      swap2\n      swap1\n      pop\n      jump\t// out\n        /* \"#utility.yul\":3905:4271   */\n    tag_315:\n        /* \"#utility.yul\":4047:4050   */\n      0x00\n        /* \"#utility.yul\":4068:4135   */\n      tag_317\n        /* \"#utility.yul\":4132:4134   */\n      0x26\n        /* \"#utility.yul\":4127:4130   */\n      dup4\n        /* \"#utility.yul\":4068:4135   */\n      tag_300\n      jump\t// in\n    tag_317:\n        /* \"#utility.yul\":4061:4135   */\n      swap2\n      pop\n        /* \"#utility.yul\":4144:4237   */\n      tag_318\n        /* \"#utility.yul\":4233:4236   */\n      dup3\n        /* \"#utility.yul\":4144:4237   */\n      tag_319\n      jump\t// in\n    tag_318:\n        /* \"#utility.yul\":4262:4264   */\n      0x40\n        /* \"#utility.yul\":4257:4260   */\n      dup3\n        /* \"#utility.yul\":4253:4265   */\n      add\n        /* \"#utility.yul\":4246:4265   */\n      swap1\n      pop\n        /* \"#utility.yul\":3905:4271   */\n      swap2\n      swap1\n      pop\n      jump\t// out\n        /* \"#utility.yul\":4277:4643   */\n    tag_320:\n        /* \"#utility.yul\":4419:4422   */\n      0x00\n        /* \"#utility.yul\":4440:4507   */\n      tag_322\n        /* \"#utility.yul\":4504:4506   */\n      0x22\n        /* \"#utility.yul\":4499:4502   */\n      dup4\n        /* \"#utility.yul\":4440:4507   */\n      tag_300\n      jump\t// in\n    tag_322:\n        /* \"#utility.yul\":4433:4507   */\n      swap2\n      pop\n        /* \"#utility.yul\":4516:4609   */\n      tag_323\n        /* \"#utility.yul\":4605:4608   */\n      dup3\n        /* \"#utility.yul\":4516:4609   */\n      tag_324\n      jump\t// in\n    tag_323:\n        /* \"#utility.yul\":4634:4636   */\n      0x40\n        /* \"#utility.yul\":4629:4632   */\n      dup3\n        /* \"#utility.yul\":4625:4637   */\n      add\n        /* \"#utility.yul\":4618:4637   */\n      swap1\n      pop\n        /* \"#utility.yul\":4277:4643   */\n      swap2\n      swap1\n      pop\n      jump\t// out\n        /* \"#utility.yul\":4649:5015   */\n    tag_325:\n        /* \"#utility.yul\":4791:4794   */\n      0x00\n        /* \"#utility.yul\":4812:4879   */\n      tag_327\n        /* \"#utility.yul\":4876:4878   */\n      0x1b\n        /* \"#utility.yul\":4871:4874   */\n      dup4\n        /* \"#utility.yul\":4812:4879   */\n      tag_300\n      jump\t// in\n    tag_327:\n        /* \"#utility.yul\":4805:4879   */\n      swap2\n      pop\n        /* \"#utility.yul\":4888:4981   */\n      tag_328\n        /* \"#utility.yul\":4977:4980   */\n      dup3\n        /* \"#utility.yul\":4888:4981   */\n      tag_329\n      jump\t// in\n    tag_328:\n        /* \"#utility.yul\":5006:5008   */\n      0x20\n        /* \"#utility.yul\":5001:5004   */\n      dup3\n        /* \"#utility.yul\":4997:5009   */\n      add\n        /* \"#utility.yul\":4990:5009   */\n      swap1\n      pop\n        /* \"#utility.yul\":4649:5015   */\n      swap2\n      swap1\n      pop\n      jump\t// out\n        /* \"#utility.yul\":5021:5387   */\n    tag_330:\n        /* \"#utility.yul\":5163:5166   */\n      0x00\n        /* \"#utility.yul\":5184:5251   */\n      tag_332\n        /* \"#utility.yul\":5248:5250   */\n      0x1d\n        /* \"#utility.yul\":5243:5246   */\n      dup4\n        /* \"#utility.yul\":5184:5251   */\n      tag_300\n      jump\t// in\n    tag_332:\n        /* \"#utility.yul\":5177:5251   */\n      swap2\n      pop\n        /* \"#utility.yul\":5260:5353   */\n      tag_333\n        /* \"#utility.yul\":5349:5352   */\n      dup3\n        /* \"#utility.yul\":5260:5353   */\n      tag_334\n      jump\t// in\n    tag_333:\n        /* \"#utility.yul\":5378:5380   */\n      0x20\n        /* \"#utility.yul\":5373:5376   */\n      dup3\n        /* \"#utility.yul\":5369:5381   */\n      add\n        /* \"#utility.yul\":5362:5381   */\n      swap1\n      pop\n        /* \"#utility.yul\":5021:5387   */\n      swap2\n      swap1\n      pop\n      jump\t// out\n        /* \"#utility.yul\":5393:5759   */\n    tag_335:\n        /* \"#utility.yul\":5535:5538   */\n      0x00\n        /* \"#utility.yul\":5556:5623   */\n      tag_337\n        /* \"#utility.yul\":5620:5622   */\n      0x26\n        /* \"#utility.yul\":5615:5618   */\n      dup4\n        /* \"#utility.yul\":5556:5623   */\n      tag_300\n      jump\t// in\n    tag_337:\n        /* \"#utility.yul\":5549:5623   */\n      swap2\n      pop\n        /* \"#utility.yul\":5632:5725   */\n      tag_338\n        /* \"#utility.yul\":5721:5724   */\n      dup3\n        /* \"#utility.yul\":5632:5725   */\n      tag_339\n      jump\t// in\n    tag_338:\n        /* \"#utility.yul\":5750:5752   */\n      0x40\n        /* \"#utility.yul\":5745:5748   */\n      dup3\n        /* \"#utility.yul\":5741:5753   */\n      add\n        /* \"#utility.yul\":5734:5753   */\n      swap1\n      pop\n        /* \"#utility.yul\":5393:5759   */\n      swap2\n      swap1\n      pop\n      jump\t// out\n        /* \"#utility.yul\":5765:6131   */\n    tag_340:\n        /* \"#utility.yul\":5907:5910   */\n      0x00\n        /* \"#utility.yul\":5928:5995   */\n      tag_342\n        /* \"#utility.yul\":5992:5994   */\n      0x16\n        /* \"#utility.yul\":5987:5990   */\n      dup4\n        /* \"#utility.yul\":5928:5995   */\n      tag_300\n      jump\t// in\n    tag_342:\n        /* \"#utility.yul\":5921:5995   */\n      swap2\n      pop\n        /* \"#utility.yul\":6004:6097   */\n      tag_343\n        /* \"#utility.yul\":6093:6096   */\n      dup3\n        /* \"#utility.yul\":6004:6097   */\n      tag_344\n      jump\t// in\n    tag_343:\n        /* \"#utility.yul\":6122:6124   */\n      0x20\n        /* \"#utility.yul\":6117:6120   */\n      dup3\n        /* \"#utility.yul\":6113:6125   */\n      add\n        /* \"#utility.yul\":6106:6125   */\n      swap1\n      pop\n        /* \"#utility.yul\":5765:6131   */\n      swap2\n      swap1\n      pop\n      jump\t// out\n        /* \"#utility.yul\":6137:6503   */\n    tag_345:\n        /* \"#utility.yul\":6279:6282   */\n      0x00\n        /* \"#utility.yul\":6300:6367   */\n      tag_347\n        /* \"#utility.yul\":6364:6366   */\n      0x20\n        /* \"#utility.yul\":6359:6362   */\n      dup4\n        /* \"#utility.yul\":6300:6367   */\n      tag_300\n      jump\t// in\n    tag_347:\n        /* \"#utility.yul\":6293:6367   */\n      swap2\n      pop\n        /* \"#utility.yul\":6376:6469   */\n      tag_348\n        /* \"#utility.yul\":6465:6468   */\n      dup3\n        /* \"#utility.yul\":6376:6469   */\n      tag_349\n      jump\t// in\n    tag_348:\n        /* \"#utility.yul\":6494:6496   */\n      0x20\n        /* \"#utility.yul\":6489:6492   */\n      dup3\n        /* \"#utility.yul\":6485:6497   */\n      add\n        /* \"#utility.yul\":6478:6497   */\n      swap1\n      pop\n        /* \"#utility.yul\":6137:6503   */\n      swap2\n      swap1\n      pop\n      jump\t// out\n        /* \"#utility.yul\":6509:6875   */\n    tag_350:\n        /* \"#utility.yul\":6651:6654   */\n      0x00\n        /* \"#utility.yul\":6672:6739   */\n      tag_352\n        /* \"#utility.yul\":6736:6738   */\n      0x21\n        /* \"#utility.yul\":6731:6734   */\n      dup4\n        /* \"#utility.yul\":6672:6739   */\n      tag_300\n      jump\t// in\n    tag_352:\n        /* \"#utility.yul\":6665:6739   */\n      swap2\n      pop\n        /* \"#utility.yul\":6748:6841   */\n      tag_353\n        /* \"#utility.yul\":6837:6840   */\n      dup3\n        /* \"#utility.yul\":6748:6841   */\n      tag_354\n      jump\t// in\n    tag_353:\n        /* \"#utility.yul\":6866:6868   */\n      0x40\n        /* \"#utility.yul\":6861:6864   */\n      dup3\n        /* \"#utility.yul\":6857:6869   */\n      add\n        /* \"#utility.yul\":6850:6869   */\n      swap1\n      pop\n        /* \"#utility.yul\":6509:6875   */\n      swap2\n      swap1\n      pop\n      jump\t// out\n        /* \"#utility.yul\":6881:7247   */\n    tag_355:\n        /* \"#utility.yul\":7023:7026   */\n      0x00\n        /* \"#utility.yul\":7044:7111   */\n      tag_357\n        /* \"#utility.yul\":7108:7110   */\n      0x25\n        /* \"#utility.yul\":7103:7106   */\n      dup4\n        /* \"#utility.yul\":7044:7111   */\n      tag_300\n      jump\t// in\n    tag_357:\n        /* \"#utility.yul\":7037:7111   */\n      swap2\n      pop\n        /* \"#utility.yul\":7120:7213   */\n      tag_358\n        /* \"#utility.yul\":7209:7212   */\n      dup3\n        /* \"#utility.yul\":7120:7213   */\n      tag_359\n      jump\t// in\n    tag_358:\n        /* \"#utility.yul\":7238:7240   */\n      0x40\n        /* \"#utility.yul\":7233:7236   */\n      dup3\n        /* \"#utility.yul\":7229:7241   */\n      add\n        /* \"#utility.yul\":7222:7241   */\n      swap1\n      pop\n        /* \"#utility.yul\":6881:7247   */\n      swap2\n      swap1\n      pop\n      jump\t// out\n        /* \"#utility.yul\":7253:7619   */\n    tag_360:\n        /* \"#utility.yul\":7395:7398   */\n      0x00\n        /* \"#utility.yul\":7416:7483   */\n      tag_362\n        /* \"#utility.yul\":7480:7482   */\n      0x24\n        /* \"#utility.yul\":7475:7478   */\n      dup4\n        /* \"#utility.yul\":7416:7483   */\n      tag_300\n      jump\t// in\n    tag_362:\n        /* \"#utility.yul\":7409:7483   */\n      swap2\n      pop\n        /* \"#utility.yul\":7492:7585   */\n      tag_363\n        /* \"#utility.yul\":7581:7584   */\n      dup3\n        /* \"#utility.yul\":7492:7585   */\n      tag_364\n      jump\t// in\n    tag_363:\n        /* \"#utility.yul\":7610:7612   */\n      0x40\n        /* \"#utility.yul\":7605:7608   */\n      dup3\n        /* \"#utility.yul\":7601:7613   */\n      add\n        /* \"#utility.yul\":7594:7613   */\n      swap1\n      pop\n        /* \"#utility.yul\":7253:7619   */\n      swap2\n      swap1\n      pop\n      jump\t// out\n        /* \"#utility.yul\":7625:7991   */\n    tag_365:\n        /* \"#utility.yul\":7767:7770   */\n      0x00\n        /* \"#utility.yul\":7788:7855   */\n      tag_367\n        /* \"#utility.yul\":7852:7854   */\n      0x25\n        /* \"#utility.yul\":7847:7850   */\n      dup4\n        /* \"#utility.yul\":7788:7855   */\n      tag_300\n      jump\t// in\n    tag_367:\n        /* \"#utility.yul\":7781:7855   */\n      swap2\n      pop\n        /* \"#utility.yul\":7864:7957   */\n      tag_368\n        /* \"#utility.yul\":7953:7956   */\n      dup3\n        /* \"#utility.yul\":7864:7957   */\n      tag_369\n      jump\t// in\n    tag_368:\n        /* \"#utility.yul\":7982:7984   */\n      0x40\n        /* \"#utility.yul\":7977:7980   */\n      dup3\n        /* \"#utility.yul\":7973:7985   */\n      add\n        /* \"#utility.yul\":7966:7985   */\n      swap1\n      pop\n        /* \"#utility.yul\":7625:7991   */\n      swap2\n      swap1\n      pop\n      jump\t// out\n        /* \"#utility.yul\":7997:8363   */\n    tag_370:\n        /* \"#utility.yul\":8139:8142   */\n      0x00\n        /* \"#utility.yul\":8160:8227   */\n      tag_372\n        /* \"#utility.yul\":8224:8226   */\n      0x1f\n        /* \"#utility.yul\":8219:8222   */\n      dup4\n        /* \"#utility.yul\":8160:8227   */\n      tag_300\n      jump\t// in\n    tag_372:\n        /* \"#utility.yul\":8153:8227   */\n      swap2\n      pop\n        /* \"#utility.yul\":8236:8329   */\n      tag_373\n        /* \"#utility.yul\":8325:8328   */\n      dup3\n        /* \"#utility.yul\":8236:8329   */\n      tag_374\n      jump\t// in\n    tag_373:\n        /* \"#utility.yul\":8354:8356   */\n      0x20\n        /* \"#utility.yul\":8349:8352   */\n      dup3\n        /* \"#utility.yul\":8345:8357   */\n      add\n        /* \"#utility.yul\":8338:8357   */\n      swap1\n      pop\n        /* \"#utility.yul\":7997:8363   */\n      swap2\n      swap1\n      pop\n      jump\t// out\n        /* \"#utility.yul\":8369:8487   */\n    tag_375:\n        /* \"#utility.yul\":8456:8480   */\n      tag_377\n        /* \"#utility.yul\":8474:8479   */\n      dup2\n        /* \"#utility.yul\":8456:8480   */\n      tag_378\n      jump\t// in\n    tag_377:\n        /* \"#utility.yul\":8451:8454   */\n      dup3\n        /* \"#utility.yul\":8444:8481   */\n      mstore\n        /* \"#utility.yul\":8369:8487   */\n      pop\n      pop\n      jump\t// out\n        /* \"#utility.yul\":8493:8605   */\n    tag_379:\n        /* \"#utility.yul\":8576:8598   */\n      tag_381\n        /* \"#utility.yul\":8592:8597   */\n      dup2\n        /* \"#utility.yul\":8576:8598   */\n      tag_382\n      jump\t// in\n    tag_381:\n        /* \"#utility.yul\":8571:8574   */\n      dup3\n        /* \"#utility.yul\":8564:8599   */\n      mstore\n        /* \"#utility.yul\":8493:8605   */\n      pop\n      pop\n      jump\t// out\n        /* \"#utility.yul\":8611:8833   */\n    tag_82:\n        /* \"#utility.yul\":8704:8708   */\n      0x00\n        /* \"#utility.yul\":8742:8744   */\n      0x20\n        /* \"#utility.yul\":8731:8740   */\n      dup3\n        /* \"#utility.yul\":8727:8745   */\n      add\n        /* \"#utility.yul\":8719:8745   */\n      swap1\n      pop\n        /* \"#utility.yul\":8755:8826   */\n      tag_384\n        /* \"#utility.yul\":8823:8824   */\n      0x00\n        /* \"#utility.yul\":8812:8821   */\n      dup4\n        /* \"#utility.yul\":8808:8825   */\n      add\n        /* \"#utility.yul\":8799:8805   */\n      dup5\n        /* \"#utility.yul\":8755:8826   */\n      tag_287\n      jump\t// in\n    tag_384:\n        /* \"#utility.yul\":8611:8833   */\n      swap3\n      swap2\n      pop\n      pop\n      jump\t// out\n        /* \"#utility.yul\":8839:9049   */\n    tag_35:\n        /* \"#utility.yul\":8926:8930   */\n      0x00\n        /* \"#utility.yul\":8964:8966   */\n      0x20\n        /* \"#utility.yul\":8953:8962   */\n      dup3\n        /* \"#utility.yul\":8949:8967   */\n      add\n        /* \"#utility.yul\":8941:8967   */\n      swap1\n      pop\n        /* \"#utility.yul\":8977:9042   */\n      tag_386\n        /* \"#utility.yul\":9039:9040   */\n      0x00\n        /* \"#utility.yul\":9028:9037   */\n      dup4\n        /* \"#utility.yul\":9024:9041   */\n      add\n        /* \"#utility.yul\":9015:9021   */\n      dup5\n        /* \"#utility.yul\":8977:9042   */\n      tag_291\n      jump\t// in\n    tag_386:\n        /* \"#utility.yul\":8839:9049   */\n      swap3\n      swap2\n      pop\n      pop\n      jump\t// out\n        /* \"#utility.yul\":9055:9368   */\n    tag_29:\n        /* \"#utility.yul\":9168:9172   */\n      0x00\n        /* \"#utility.yul\":9206:9208   */\n      0x20\n        /* \"#utility.yul\":9195:9204   */\n      dup3\n        /* \"#utility.yul\":9191:9209   */\n      add\n        /* \"#utility.yul\":9183:9209   */\n      swap1\n      pop\n        /* \"#utility.yul\":9255:9264   */\n      dup2\n        /* \"#utility.yul\":9249:9253   */\n      dup2\n        /* \"#utility.yul\":9245:9265   */\n      sub\n        /* \"#utility.yul\":9241:9242   */\n      0x00\n        /* \"#utility.yul\":9230:9239   */\n      dup4\n        /* \"#utility.yul\":9226:9243   */\n      add\n        /* \"#utility.yul\":9219:9266   */\n      mstore\n        /* \"#utility.yul\":9283:9361   */\n      tag_388\n        /* \"#utility.yul\":9356:9360   */\n      dup2\n        /* \"#utility.yul\":9347:9353   */\n      dup5\n        /* \"#utility.yul\":9283:9361   */\n      tag_295\n      jump\t// in\n    tag_388:\n        /* \"#utility.yul\":9275:9361   */\n      swap1\n      pop\n        /* \"#utility.yul\":9055:9368   */\n      swap3\n      swap2\n      pop\n      pop\n      jump\t// out\n        /* \"#utility.yul\":9374:9793   */\n    tag_213:\n        /* \"#utility.yul\":9540:9544   */\n      0x00\n        /* \"#utility.yul\":9578:9580   */\n      0x20\n        /* \"#utility.yul\":9567:9576   */\n      dup3\n        /* \"#utility.yul\":9563:9581   */\n      add\n        /* \"#utility.yul\":9555:9581   */\n      swap1\n      pop\n        /* \"#utility.yul\":9627:9636   */\n      dup2\n        /* \"#utility.yul\":9621:9625   */\n      dup2\n        /* \"#utility.yul\":9617:9637   */\n      sub\n        /* \"#utility.yul\":9613:9614   */\n      0x00\n        /* \"#utility.yul\":9602:9611   */\n      dup4\n        /* \"#utility.yul\":9598:9615   */\n      add\n        /* \"#utility.yul\":9591:9638   */\n      mstore\n        /* \"#utility.yul\":9655:9786   */\n      tag_390\n        /* \"#utility.yul\":9781:9785   */\n      dup2\n        /* \"#utility.yul\":9655:9786   */\n      tag_305\n      jump\t// in\n    tag_390:\n        /* \"#utility.yul\":9647:9786   */\n      swap1\n      pop\n        /* \"#utility.yul\":9374:9793   */\n      swap2\n      swap1\n      pop\n      jump\t// out\n        /* \"#utility.yul\":9799:10218   */\n    tag_245:\n        /* \"#utility.yul\":9965:9969   */\n      0x00\n        /* \"#utility.yul\":10003:10005   */\n      0x20\n        /* \"#utility.yul\":9992:10001   */\n      dup3\n        /* \"#utility.yul\":9988:10006   */\n      add\n        /* \"#utility.yul\":9980:10006   */\n      swap1\n      pop\n        /* \"#utility.yul\":10052:10061   */\n      dup2\n        /* \"#utility.yul\":10046:10050   */\n      dup2\n        /* \"#utility.yul\":10042:10062   */\n      sub\n        /* \"#utility.yul\":10038:10039   */\n      0x00\n        /* \"#utility.yul\":10027:10036   */\n      dup4\n        /* \"#utility.yul\":10023:10040   */\n      add\n        /* \"#utility.yul\":10016:10063   */\n      mstore\n        /* \"#utility.yul\":10080:10211   */\n      tag_392\n        /* \"#utility.yul\":10206:10210   */\n      dup2\n        /* \"#utility.yul\":10080:10211   */\n      tag_310\n      jump\t// in\n    tag_392:\n        /* \"#utility.yul\":10072:10211   */\n      swap1\n      pop\n        /* \"#utility.yul\":9799:10218   */\n      swap2\n      swap1\n      pop\n      jump\t// out\n        /* \"#utility.yul\":10224:10643   */\n    tag_184:\n        /* \"#utility.yul\":10390:10394   */\n      0x00\n        /* \"#utility.yul\":10428:10430   */\n      0x20\n        /* \"#utility.yul\":10417:10426   */\n      dup3\n        /* \"#utility.yul\":10413:10431   */\n      add\n        /* \"#utility.yul\":10405:10431   */\n      swap1\n      pop\n        /* \"#utility.yul\":10477:10486   */\n      dup2\n        /* \"#utility.yul\":10471:10475   */\n      dup2\n        /* \"#utility.yul\":10467:10487   */\n      sub\n        /* \"#utility.yul\":10463:10464   */\n      0x00\n        /* \"#utility.yul\":10452:10461   */\n      dup4\n        /* \"#utility.yul\":10448:10465   */\n      add\n        /* \"#utility.yul\":10441:10488   */\n      mstore\n        /* \"#utility.yul\":10505:10636   */\n      tag_394\n        /* \"#utility.yul\":10631:10635   */\n      dup2\n        /* \"#utility.yul\":10505:10636   */\n      tag_315\n      jump\t// in\n    tag_394:\n        /* \"#utility.yul\":10497:10636   */\n      swap1\n      pop\n        /* \"#utility.yul\":10224:10643   */\n      swap2\n      swap1\n      pop\n      jump\t// out\n        /* \"#utility.yul\":10649:11068   */\n    tag_198:\n        /* \"#utility.yul\":10815:10819   */\n      0x00\n        /* \"#utility.yul\":10853:10855   */\n      0x20\n        /* \"#utility.yul\":10842:10851   */\n      dup3\n        /* \"#utility.yul\":10838:10856   */\n      add\n        /* \"#utility.yul\":10830:10856   */\n      swap1\n      pop\n        /* \"#utility.yul\":10902:10911   */\n      dup2\n        /* \"#utility.yul\":10896:10900   */\n      dup2\n        /* \"#utility.yul\":10892:10912   */\n      sub\n        /* \"#utility.yul\":10888:10889   */\n      0x00\n        /* \"#utility.yul\":10877:10886   */\n      dup4\n        /* \"#utility.yul\":10873:10890   */\n      add\n        /* \"#utility.yul\":10866:10913   */\n      mstore\n        /* \"#utility.yul\":10930:11061   */\n      tag_396\n        /* \"#utility.yul\":11056:11060   */\n      dup2\n        /* \"#utility.yul\":10930:11061   */\n      tag_320\n      jump\t// in\n    tag_396:\n        /* \"#utility.yul\":10922:11061   */\n      swap1\n      pop\n        /* \"#utility.yul\":10649:11068   */\n      swap2\n      swap1\n      pop\n      jump\t// out\n        /* \"#utility.yul\":11074:11493   */\n    tag_190:\n        /* \"#utility.yul\":11240:11244   */\n      0x00\n        /* \"#utility.yul\":11278:11280   */\n      0x20\n        /* \"#utility.yul\":11267:11276   */\n      dup3\n        /* \"#utility.yul\":11263:11281   */\n      add\n        /* \"#utility.yul\":11255:11281   */\n      swap1\n      pop\n        /* \"#utility.yul\":11327:11336   */\n      dup2\n        /* \"#utility.yul\":11321:11325   */\n      dup2\n        /* \"#utility.yul\":11317:11337   */\n      sub\n        /* \"#utility.yul\":11313:11314   */\n      0x00\n        /* \"#utility.yul\":11302:11311   */\n      dup4\n        /* \"#utility.yul\":11298:11315   */\n      add\n        /* \"#utility.yul\":11291:11338   */\n      mstore\n        /* \"#utility.yul\":11355:11486   */\n      tag_398\n        /* \"#utility.yul\":11481:11485   */\n      dup2\n        /* \"#utility.yul\":11355:11486   */\n      tag_325\n      jump\t// in\n    tag_398:\n        /* \"#utility.yul\":11347:11486   */\n      swap1\n      pop\n        /* \"#utility.yul\":11074:11493   */\n      swap2\n      swap1\n      pop\n      jump\t// out\n        /* \"#utility.yul\":11499:11918   */\n    tag_205:\n        /* \"#utility.yul\":11665:11669   */\n      0x00\n        /* \"#utility.yul\":11703:11705   */\n      0x20\n        /* \"#utility.yul\":11692:11701   */\n      dup3\n        /* \"#utility.yul\":11688:11706   */\n      add\n        /* \"#utility.yul\":11680:11706   */\n      swap1\n      pop\n        /* \"#utility.yul\":11752:11761   */\n      dup2\n        /* \"#utility.yul\":11746:11750   */\n      dup2\n        /* \"#utility.yul\":11742:11762   */\n      sub\n        /* \"#utility.yul\":11738:11739   */\n      0x00\n        /* \"#utility.yul\":11727:11736   */\n      dup4\n        /* \"#utility.yul\":11723:11740   */\n      add\n        /* \"#utility.yul\":11716:11763   */\n      mstore\n        /* \"#utility.yul\":11780:11911   */\n      tag_400\n        /* \"#utility.yul\":11906:11910   */\n      dup2\n        /* \"#utility.yul\":11780:11911   */\n      tag_330\n      jump\t// in\n    tag_400:\n        /* \"#utility.yul\":11772:11911   */\n      swap1\n      pop\n        /* \"#utility.yul\":11499:11918   */\n      swap2\n      swap1\n      pop\n      jump\t// out\n        /* \"#utility.yul\":11924:12343   */\n    tag_218:\n        /* \"#utility.yul\":12090:12094   */\n      0x00\n        /* \"#utility.yul\":12128:12130   */\n      0x20\n        /* \"#utility.yul\":12117:12126   */\n      dup3\n        /* \"#utility.yul\":12113:12131   */\n      add\n        /* \"#utility.yul\":12105:12131   */\n      swap1\n      pop\n        /* \"#utility.yul\":12177:12186   */\n      dup2\n        /* \"#utility.yul\":12171:12175   */\n      dup2\n        /* \"#utility.yul\":12167:12187   */\n      sub\n        /* \"#utility.yul\":12163:12164   */\n      0x00\n        /* \"#utility.yul\":12152:12161   */\n      dup4\n        /* \"#utility.yul\":12148:12165   */\n      add\n        /* \"#utility.yul\":12141:12188   */\n      mstore\n        /* \"#utility.yul\":12205:12336   */\n      tag_402\n        /* \"#utility.yul\":12331:12335   */\n      dup2\n        /* \"#utility.yul\":12205:12336   */\n      tag_335\n      jump\t// in\n    tag_402:\n        /* \"#utility.yul\":12197:12336   */\n      swap1\n      pop\n        /* \"#utility.yul\":11924:12343   */\n      swap2\n      swap1\n      pop\n      jump\t// out\n        /* \"#utility.yul\":12349:12768   */\n    tag_145:\n        /* \"#utility.yul\":12515:12519   */\n      0x00\n        /* \"#utility.yul\":12553:12555   */\n      0x20\n        /* \"#utility.yul\":12542:12551   */\n      dup3\n        /* \"#utility.yul\":12538:12556   */\n      add\n        /* \"#utility.yul\":12530:12556   */\n      swap1\n      pop\n        /* \"#utility.yul\":12602:12611   */\n      dup2\n        /* \"#utility.yul\":12596:12600   */\n      dup2\n        /* \"#utility.yul\":12592:12612   */\n      sub\n        /* \"#utility.yul\":12588:12589   */\n      0x00\n        /* \"#utility.yul\":12577:12586   */\n      dup4\n        /* \"#utility.yul\":12573:12590   */\n      add\n        /* \"#utility.yul\":12566:12613   */\n      mstore\n        /* \"#utility.yul\":12630:12761   */\n      tag_404\n        /* \"#utility.yul\":12756:12760   */\n      dup2\n        /* \"#utility.yul\":12630:12761   */\n      tag_340\n      jump\t// in\n    tag_404:\n        /* \"#utility.yul\":12622:12761   */\n      swap1\n      pop\n        /* \"#utility.yul\":12349:12768   */\n      swap2\n      swap1\n      pop\n      jump\t// out\n        /* \"#utility.yul\":12774:13193   */\n    tag_228:\n        /* \"#utility.yul\":12940:12944   */\n      0x00\n        /* \"#utility.yul\":12978:12980   */\n      0x20\n        /* \"#utility.yul\":12967:12976   */\n      dup3\n        /* \"#utility.yul\":12963:12981   */\n      add\n        /* \"#utility.yul\":12955:12981   */\n      swap1\n      pop\n        /* \"#utility.yul\":13027:13036   */\n      dup2\n        /* \"#utility.yul\":13021:13025   */\n      dup2\n        /* \"#utility.yul\":13017:13037   */\n      sub\n        /* \"#utility.yul\":13013:13014   */\n      0x00\n        /* \"#utility.yul\":13002:13011   */\n      dup4\n        /* \"#utility.yul\":12998:13015   */\n      add\n        /* \"#utility.yul\":12991:13038   */\n      mstore\n        /* \"#utility.yul\":13055:13186   */\n      tag_406\n        /* \"#utility.yul\":13181:13185   */\n      dup2\n        /* \"#utility.yul\":13055:13186   */\n      tag_345\n      jump\t// in\n    tag_406:\n        /* \"#utility.yul\":13047:13186   */\n      swap1\n      pop\n        /* \"#utility.yul\":12774:13193   */\n      swap2\n      swap1\n      pop\n      jump\t// out\n        /* \"#utility.yul\":13199:13618   */\n    tag_241:\n        /* \"#utility.yul\":13365:13369   */\n      0x00\n        /* \"#utility.yul\":13403:13405   */\n      0x20\n        /* \"#utility.yul\":13392:13401   */\n      dup3\n        /* \"#utility.yul\":13388:13406   */\n      add\n        /* \"#utility.yul\":13380:13406   */\n      swap1\n      pop\n        /* \"#utility.yul\":13452:13461   */\n      dup2\n        /* \"#utility.yul\":13446:13450   */\n      dup2\n        /* \"#utility.yul\":13442:13462   */\n      sub\n        /* \"#utility.yul\":13438:13439   */\n      0x00\n        /* \"#utility.yul\":13427:13436   */\n      dup4\n        /* \"#utility.yul\":13423:13440   */\n      add\n        /* \"#utility.yul\":13416:13463   */\n      mstore\n        /* \"#utility.yul\":13480:13611   */\n      tag_408\n        /* \"#utility.yul\":13606:13610   */\n      dup2\n        /* \"#utility.yul\":13480:13611   */\n      tag_350\n      jump\t// in\n    tag_408:\n        /* \"#utility.yul\":13472:13611   */\n      swap1\n      pop\n        /* \"#utility.yul\":13199:13618   */\n      swap2\n      swap1\n      pop\n      jump\t// out\n        /* \"#utility.yul\":13624:14043   */\n    tag_210:\n        /* \"#utility.yul\":13790:13794   */\n      0x00\n        /* \"#utility.yul\":13828:13830   */\n      0x20\n        /* \"#utility.yul\":13817:13826   */\n      dup3\n        /* \"#utility.yul\":13813:13831   */\n      add\n        /* \"#utility.yul\":13805:13831   */\n      swap1\n      pop\n        /* \"#utility.yul\":13877:13886   */\n      dup2\n        /* \"#utility.yul\":13871:13875   */\n      dup2\n        /* \"#utility.yul\":13867:13887   */\n      sub\n        /* \"#utility.yul\":13863:13864   */\n      0x00\n        /* \"#utility.yul\":13852:13861   */\n      dup4\n        /* \"#utility.yul\":13848:13865   */\n      add\n        /* \"#utility.yul\":13841:13888   */\n      mstore\n        /* \"#utility.yul\":13905:14036   */\n      tag_410\n        /* \"#utility.yul\":14031:14035   */\n      dup2\n        /* \"#utility.yul\":13905:14036   */\n      tag_355\n      jump\t// in\n    tag_410:\n        /* \"#utility.yul\":13897:14036   */\n      swap1\n      pop\n        /* \"#utility.yul\":13624:14043   */\n      swap2\n      swap1\n      pop\n      jump\t// out\n        /* \"#utility.yul\":14049:14468   */\n    tag_195:\n        /* \"#utility.yul\":14215:14219   */\n      0x00\n        /* \"#utility.yul\":14253:14255   */\n      0x20\n        /* \"#utility.yul\":14242:14251   */\n      dup3\n        /* \"#utility.yul\":14238:14256   */\n      add\n        /* \"#utility.yul\":14230:14256   */\n      swap1\n      pop\n        /* \"#utility.yul\":14302:14311   */\n      dup2\n        /* \"#utility.yul\":14296:14300   */\n      dup2\n        /* \"#utility.yul\":14292:14312   */\n      sub\n        /* \"#utility.yul\":14288:14289   */\n      0x00\n        /* \"#utility.yul\":14277:14286   */\n      dup4\n        /* \"#utility.yul\":14273:14290   */\n      add\n        /* \"#utility.yul\":14266:14313   */\n      mstore\n        /* \"#utility.yul\":14330:14461   */\n      tag_412\n        /* \"#utility.yul\":14456:14460   */\n      dup2\n        /* \"#utility.yul\":14330:14461   */\n      tag_360\n      jump\t// in\n    tag_412:\n        /* \"#utility.yul\":14322:14461   */\n      swap1\n      pop\n        /* \"#utility.yul\":14049:14468   */\n      swap2\n      swap1\n      pop\n      jump\t// out\n        /* \"#utility.yul\":14474:14893   */\n    tag_173:\n        /* \"#utility.yul\":14640:14644   */\n      0x00\n        /* \"#utility.yul\":14678:14680   */\n      0x20\n        /* \"#utility.yul\":14667:14676   */\n      dup3\n        /* \"#utility.yul\":14663:14681   */\n      add\n        /* \"#utility.yul\":14655:14681   */\n      swap1\n      pop\n        /* \"#utility.yul\":14727:14736   */\n      dup2\n        /* \"#utility.yul\":14721:14725   */\n      dup2\n        /* \"#utility.yul\":14717:14737   */\n      sub\n        /* \"#utility.yul\":14713:14714   */\n      0x00\n        /* \"#utility.yul\":14702:14711   */\n      dup4\n        /* \"#utility.yul\":14698:14715   */\n      add\n        /* \"#utility.yul\":14691:14738   */\n      mstore\n        /* \"#utility.yul\":14755:14886   */\n      tag_414\n        /* \"#utility.yul\":14881:14885   */\n      dup2\n        /* \"#utility.yul\":14755:14886   */\n      tag_365\n      jump\t// in\n    tag_414:\n        /* \"#utility.yul\":14747:14886   */\n      swap1\n      pop\n        /* \"#utility.yul\":14474:14893   */\n      swap2\n      swap1\n      pop\n      jump\t// out\n        /* \"#utility.yul\":14899:15318   */\n    tag_232:\n        /* \"#utility.yul\":15065:15069   */\n      0x00\n        /* \"#utility.yul\":15103:15105   */\n      0x20\n        /* \"#utility.yul\":15092:15101   */\n      dup3\n        /* \"#utility.yul\":15088:15106   */\n      add\n        /* \"#utility.yul\":15080:15106   */\n      swap1\n      pop\n        /* \"#utility.yul\":15152:15161   */\n      dup2\n        /* \"#utility.yul\":15146:15150   */\n      dup2\n        /* \"#utility.yul\":15142:15162   */\n      sub\n        /* \"#utility.yul\":15138:15139   */\n      0x00\n        /* \"#utility.yul\":15127:15136   */\n      dup4\n        /* \"#utility.yul\":15123:15140   */\n      add\n        /* \"#utility.yul\":15116:15163   */\n      mstore\n        /* \"#utility.yul\":15180:15311   */\n      tag_416\n        /* \"#utility.yul\":15306:15310   */\n      dup2\n        /* \"#utility.yul\":15180:15311   */\n      tag_370\n      jump\t// in\n    tag_416:\n        /* \"#utility.yul\":15172:15311   */\n      swap1\n      pop\n        /* \"#utility.yul\":14899:15318   */\n      swap2\n      swap1\n      pop\n      jump\t// out\n        /* \"#utility.yul\":15324:15546   */\n    tag_39:\n        /* \"#utility.yul\":15417:15421   */\n      0x00\n        /* \"#utility.yul\":15455:15457   */\n      0x20\n        /* \"#utility.yul\":15444:15453   */\n      dup3\n        /* \"#utility.yul\":15440:15458   */\n      add\n        /* \"#utility.yul\":15432:15458   */\n      swap1\n      pop\n        /* \"#utility.yul\":15468:15539   */\n      tag_418\n        /* \"#utility.yul\":15536:15537   */\n      0x00\n        /* \"#utility.yul\":15525:15534   */\n      dup4\n        /* \"#utility.yul\":15521:15538   */\n      add\n        /* \"#utility.yul\":15512:15518   */\n      dup5\n        /* \"#utility.yul\":15468:15539   */\n      tag_375\n      jump\t// in\n    tag_418:\n        /* \"#utility.yul\":15324:15546   */\n      swap3\n      swap2\n      pop\n      pop\n      jump\t// out\n        /* \"#utility.yul\":15552:15766   */\n    tag_51:\n        /* \"#utility.yul\":15641:15645   */\n      0x00\n        /* \"#utility.yul\":15679:15681   */\n      0x20\n        /* \"#utility.yul\":15668:15677   */\n      dup3\n        /* \"#utility.yul\":15664:15682   */\n      add\n        /* \"#utility.yul\":15656:15682   */\n      swap1\n      pop\n        /* \"#utility.yul\":15692:15759   */\n      tag_420\n        /* \"#utility.yul\":15756:15757   */\n      0x00\n        /* \"#utility.yul\":15745:15754   */\n      dup4\n        /* \"#utility.yul\":15741:15758   */\n      add\n        /* \"#utility.yul\":15732:15738   */\n      dup5\n        /* \"#utility.yul\":15692:15759   */\n      tag_379\n      jump\t// in\n    tag_420:\n        /* \"#utility.yul\":15552:15766   */\n      swap3\n      swap2\n      pop\n      pop\n      jump\t// out\n        /* \"#utility.yul\":15853:15952   */\n    tag_298:\n        /* \"#utility.yul\":15905:15911   */\n      0x00\n        /* \"#utility.yul\":15939:15944   */\n      dup2\n        /* \"#utility.yul\":15933:15945   */\n      mload\n        /* \"#utility.yul\":15923:15945   */\n      swap1\n      pop\n        /* \"#utility.yul\":15853:15952   */\n      swap2\n      swap1\n      pop\n      jump\t// out\n        /* \"#utility.yul\":15958:16127   */\n    tag_300:\n        /* \"#utility.yul\":16042:16053   */\n      0x00\n        /* \"#utility.yul\":16076:16082   */\n      dup3\n        /* \"#utility.yul\":16071:16074   */\n      dup3\n        /* \"#utility.yul\":16064:16083   */\n      mstore\n        /* \"#utility.yul\":16116:16120   */\n      0x20\n        /* \"#utility.yul\":16111:16114   */\n      dup3\n        /* \"#utility.yul\":16107:16121   */\n      add\n        /* \"#utility.yul\":16092:16121   */\n      swap1\n      pop\n        /* \"#utility.yul\":15958:16127   */\n      swap3\n      swap2\n      pop\n      pop\n      jump\t// out\n        /* \"#utility.yul\":16133:16438   */\n    tag_134:\n        /* \"#utility.yul\":16173:16176   */\n      0x00\n        /* \"#utility.yul\":16192:16212   */\n      tag_426\n        /* \"#utility.yul\":16210:16211   */\n      dup3\n        /* \"#utility.yul\":16192:16212   */\n      tag_378\n      jump\t// in\n    tag_426:\n        /* \"#utility.yul\":16187:16212   */\n      swap2\n      pop\n        /* \"#utility.yul\":16226:16246   */\n      tag_427\n        /* \"#utility.yul\":16244:16245   */\n      dup4\n        /* \"#utility.yul\":16226:16246   */\n      tag_378\n      jump\t// in\n    tag_427:\n        /* \"#utility.yul\":16221:16246   */\n      swap3\n      pop\n        /* \"#utility.yul\":16380:16381   */\n      dup3\n        /* \"#utility.yul\":16312:16378   */\n      0xffffffffffffffffffffffffffffffffffffffffffffffffffffffffffffffff\n        /* \"#utility.yul\":16308:16382   */\n      sub\n        /* \"#utility.yul\":16305:16306   */\n      dup3\n        /* \"#utility.yul\":16302:16383   */\n      gt\n        /* \"#utility.yul\":16299:16406   */\n      iszero\n      tag_428\n      jumpi\n        /* \"#utility.yul\":16386:16404   */\n      tag_429\n      tag_430\n      jump\t// in\n    tag_429:\n        /* \"#utility.yul\":16299:16406   */\n    tag_428:\n        /* \"#utility.yul\":16430:16431   */\n      dup3\n        /* \"#utility.yul\":16427:16428   */\n      dup3\n        /* \"#utility.yul\":16423:16432   */\n      add\n        /* \"#utility.yul\":16416:16432   */\n      swap1\n      pop\n        /* \"#utility.yul\":16133:16438   */\n      swap3\n      swap2\n      pop\n      pop\n      jump\t// out\n        /* \"#utility.yul\":16444:17292   */\n    tag_431:\n        /* \"#utility.yul\":16505:16510   */\n      0x00\n        /* \"#utility.yul\":16512:16516   */\n      dup1\n        /* \"#utility.yul\":16536:16542   */\n      dup3\n        /* \"#utility.yul\":16527:16542   */\n      swap2\n      pop\n        /* \"#utility.yul\":16560:16565   */\n      dup4\n        /* \"#utility.yul\":16551:16565   */\n      swap1\n      pop\n        /* \"#utility.yul\":16574:17286   */\n    tag_433:\n        /* \"#utility.yul\":16595:16596   */\n      0x01\n        /* \"#utility.yul\":16585:16593   */\n      dup6\n        /* \"#utility.yul\":16582:16597   */\n      gt\n        /* \"#utility.yul\":16574:17286   */\n      iszero\n      tag_435\n      jumpi\n        /* \"#utility.yul\":16690:16694   */\n      dup1\n        /* \"#utility.yul\":16685:16688   */\n      dup7\n        /* \"#utility.yul\":16681:16695   */\n      div\n        /* \"#utility.yul\":16675:16679   */\n      dup2\n        /* \"#utility.yul\":16672:16696   */\n      gt\n        /* \"#utility.yul\":16669:16719   */\n      iszero\n      tag_436\n      jumpi\n        /* \"#utility.yul\":16699:16717   */\n      tag_437\n      tag_430\n      jump\t// in\n    tag_437:\n        /* \"#utility.yul\":16669:16719   */\n    tag_436:\n        /* \"#utility.yul\":16749:16750   */\n      0x01\n        /* \"#utility.yul\":16739:16747   */\n      dup6\n        /* \"#utility.yul\":16735:16751   */\n      and\n        /* \"#utility.yul\":16732:17183   */\n      iszero\n      tag_438\n      jumpi\n        /* \"#utility.yul\":17164:17168   */\n      dup1\n        /* \"#utility.yul\":17157:17162   */\n      dup3\n        /* \"#utility.yul\":17153:17169   */\n      mul\n        /* \"#utility.yul\":17144:17169   */\n      swap2\n      pop\n        /* \"#utility.yul\":16732:17183   */\n    tag_438:\n        /* \"#utility.yul\":17214:17218   */\n      dup1\n        /* \"#utility.yul\":17208:17212   */\n      dup2\n        /* \"#utility.yul\":17204:17219   */\n      mul\n        /* \"#utility.yul\":17196:17219   */\n      swap1\n      pop\n        /* \"#utility.yul\":17244:17276   */\n      tag_439\n        /* \"#utility.yul\":17267:17275   */\n      dup6\n        /* \"#utility.yul\":17244:17276   */\n      tag_440\n      jump\t// in\n    tag_439:\n        /* \"#utility.yul\":17232:17276   */\n      swap5\n      pop\n        /* \"#utility.yul\":16574:17286   */\n      jump(tag_433)\n    tag_435:\n        /* \"#utility.yul\":16444:17292   */\n      swap5\n      pop\n      swap5\n      swap3\n      pop\n      pop\n      pop\n      jump\t// out\n        /* \"#utility.yul\":17298:17583   */\n    tag_117:\n        /* \"#utility.yul\":17358:17363   */\n      0x00\n        /* \"#utility.yul\":17382:17405   */\n      tag_442\n        /* \"#utility.yul\":17400:17404   */\n      dup3\n        /* \"#utility.yul\":17382:17405   */\n      tag_378\n      jump\t// in\n    tag_442:\n        /* \"#utility.yul\":17374:17405   */\n      swap2\n      pop\n        /* \"#utility.yul\":17426:17453   */\n      tag_443\n        /* \"#utility.yul\":17444:17452   */\n      dup4\n        /* \"#utility.yul\":17426:17453   */\n      tag_378\n      jump\t// in\n    tag_443:\n        /* \"#utility.yul\":17414:17453   */\n      swap3\n      pop\n        /* \"#utility.yul\":17472:17576   */\n      tag_444\n        /* \"#utility.yul\":17509:17575   */\n      0xffffffffffffffffffffffffffffffffffffffffffffffffffffffffffffffff\n        /* \"#utility.yul\":17499:17507   */\n      dup5\n        /* \"#utility.yul\":17493:17497   */\n      dup5\n        /* \"#utility.yul\":17472:17576   */\n      tag_445\n      jump\t// in\n    tag_444:\n        /* \"#utility.yul\":17463:17576   */\n      swap1\n      pop\n        /* \"#utility.yul\":17298:17583   */\n      swap3\n      swap2\n      pop\n      pop\n      jump\t// out\n        /* \"#utility.yul\":17589:18662   */\n    tag_445:\n        /* \"#utility.yul\":17643:17648   */\n      0x00\n        /* \"#utility.yul\":17834:17842   */\n      dup3\n        /* \"#utility.yul\":17824:17864   */\n      tag_447\n      jumpi\n        /* \"#utility.yul\":17855:17856   */\n      0x01\n        /* \"#utility.yul\":17846:17856   */\n      swap1\n      pop\n        /* \"#utility.yul\":17857:17862   */\n      jump(tag_446)\n        /* \"#utility.yul\":17824:17864   */\n    tag_447:\n        /* \"#utility.yul\":17883:17887   */\n      dup2\n        /* \"#utility.yul\":17873:17909   */\n      tag_448\n      jumpi\n        /* \"#utility.yul\":17900:17901   */\n      0x00\n        /* \"#utility.yul\":17891:17901   */\n      swap1\n      pop\n        /* \"#utility.yul\":17902:17907   */\n      jump(tag_446)\n        /* \"#utility.yul\":17873:17909   */\n    tag_448:\n        /* \"#utility.yul\":17969:17973   */\n      dup2\n        /* \"#utility.yul\":18017:18018   */\n      0x01\n        /* \"#utility.yul\":18012:18039   */\n      dup2\n      eq\n      tag_450\n      jumpi\n        /* \"#utility.yul\":18053:18054   */\n      0x02\n        /* \"#utility.yul\":18048:18239   */\n      dup2\n      eq\n      tag_451\n      jumpi\n        /* \"#utility.yul\":17962:18239   */\n      jump(tag_449)\n        /* \"#utility.yul\":18012:18039   */\n    tag_450:\n        /* \"#utility.yul\":18030:18031   */\n      0x01\n        /* \"#utility.yul\":18021:18031   */\n      swap2\n      pop\n        /* \"#utility.yul\":18032:18037   */\n      pop\n      jump(tag_446)\n        /* \"#utility.yul\":18048:18239   */\n    tag_451:\n        /* \"#utility.yul\":18093:18096   */\n      0xff\n        /* \"#utility.yul\":18083:18091   */\n      dup5\n        /* \"#utility.yul\":18080:18097   */\n      gt\n        /* \"#utility.yul\":18077:18120   */\n      iszero\n      tag_452\n      jumpi\n        /* \"#utility.yul\":18100:18118   */\n      tag_453\n      tag_430\n      jump\t// in\n    tag_453:\n        /* \"#utility.yul\":18077:18120   */\n    tag_452:\n        /* \"#utility.yul\":18149:18157   */\n      dup4\n        /* \"#utility.yul\":18146:18147   */\n      0x02\n        /* \"#utility.yul\":18142:18158   */\n      exp\n        /* \"#utility.yul\":18133:18158   */\n      swap2\n      pop\n        /* \"#utility.yul\":18184:18187   */\n      dup5\n        /* \"#utility.yul\":18177:18182   */\n      dup3\n        /* \"#utility.yul\":18174:18188   */\n      gt\n        /* \"#utility.yul\":18171:18211   */\n      iszero\n      tag_454\n      jumpi\n        /* \"#utility.yul\":18191:18209   */\n      tag_455\n      tag_430\n      jump\t// in\n    tag_455:\n        /* \"#utility.yul\":18171:18211   */\n    tag_454:\n        /* \"#utility.yul\":18224:18229   */\n      pop\n      jump(tag_446)\n        /* \"#utility.yul\":17962:18239   */\n    tag_449:\n      pop\n        /* \"#utility.yul\":18348:18350   */\n      0x20\n        /* \"#utility.yul\":18338:18346   */\n      dup4\n        /* \"#utility.yul\":18335:18351   */\n      lt\n        /* \"#utility.yul\":18329:18332   */\n      0x0133\n        /* \"#utility.yul\":18323:18327   */\n      dup4\n        /* \"#utility.yul\":18320:18333   */\n      lt\n        /* \"#utility.yul\":18316:18352   */\n      and\n        /* \"#utility.yul\":18298:18300   */\n      0x4e\n        /* \"#utility.yul\":18288:18296   */\n      dup5\n        /* \"#utility.yul\":18285:18301   */\n      lt\n        /* \"#utility.yul\":18280:18282   */\n      0x0b\n        /* \"#utility.yul\":18274:18278   */\n      dup5\n        /* \"#utility.yul\":18271:18283   */\n      lt\n        /* \"#utility.yul\":18267:18302   */\n      and\n        /* \"#utility.yul\":18251:18362   */\n      or\n        /* \"#utility.yul\":18248:18494   */\n      iszero\n      tag_456\n      jumpi\n        /* \"#utility.yul\":18404:18412   */\n      dup3\n        /* \"#utility.yul\":18398:18402   */\n      dup3\n        /* \"#utility.yul\":18394:18413   */\n      exp\n        /* \"#utility.yul\":18385:18413   */\n      swap1\n      pop\n        /* \"#utility.yul\":18439:18442   */\n      dup4\n        /* \"#utility.yul\":18432:18437   */\n      dup2\n        /* \"#utility.yul\":18429:18443   */\n      gt\n        /* \"#utility.yul\":18426:18466   */\n      iszero\n      tag_457\n      jumpi\n        /* \"#utility.yul\":18446:18464   */\n      tag_458\n      tag_430\n      jump\t// in\n    tag_458:\n        /* \"#utility.yul\":18426:18466   */\n    tag_457:\n        /* \"#utility.yul\":18479:18484   */\n      jump(tag_446)\n        /* \"#utility.yul\":18248:18494   */\n    tag_456:\n        /* \"#utility.yul\":18519:18561   */\n      tag_459\n        /* \"#utility.yul\":18557:18560   */\n      dup5\n        /* \"#utility.yul\":18547:18555   */\n      dup5\n        /* \"#utility.yul\":18541:18545   */\n      dup5\n        /* \"#utility.yul\":18538:18539   */\n      0x01\n        /* \"#utility.yul\":18519:18561   */\n      tag_431\n      jump\t// in\n    tag_459:\n        /* \"#utility.yul\":18504:18561   */\n      swap3\n      pop\n      swap1\n      pop\n        /* \"#utility.yul\":18593:18597   */\n      dup2\n        /* \"#utility.yul\":18588:18591   */\n      dup5\n        /* \"#utility.yul\":18584:18598   */\n      div\n        /* \"#utility.yul\":18577:18582   */\n      dup2\n        /* \"#utility.yul\":18574:18599   */\n      gt\n        /* \"#utility.yul\":18571:18622   */\n      iszero\n      tag_460\n      jumpi\n        /* \"#utility.yul\":18602:18620   */\n      tag_461\n      tag_430\n      jump\t// in\n    tag_461:\n        /* \"#utility.yul\":18571:18622   */\n    tag_460:\n        /* \"#utility.yul\":18651:18655   */\n      dup2\n        /* \"#utility.yul\":18644:18649   */\n      dup2\n        /* \"#utility.yul\":18640:18656   */\n      mul\n        /* \"#utility.yul\":18631:18656   */\n      swap1\n      pop\n        /* \"#utility.yul\":17589:18662   */\n    tag_446:\n      swap4\n      swap3\n      pop\n      pop\n      pop\n      jump\t// out\n        /* \"#utility.yul\":18668:19016   */\n    tag_119:\n        /* \"#utility.yul\":18708:18715   */\n      0x00\n        /* \"#utility.yul\":18731:18751   */\n      tag_463\n        /* \"#utility.yul\":18749:18750   */\n      dup3\n        /* \"#utility.yul\":18731:18751   */\n      tag_378\n      jump\t// in\n    tag_463:\n        /* \"#utility.yul\":18726:18751   */\n      swap2\n      pop\n        /* \"#utility.yul\":18765:18785   */\n      tag_464\n        /* \"#utility.yul\":18783:18784   */\n      dup4\n        /* \"#utility.yul\":18765:18785   */\n      tag_378\n      jump\t// in\n    tag_464:\n        /* \"#utility.yul\":18760:18785   */\n      swap3\n      pop\n        /* \"#utility.yul\":18953:18954   */\n      dup2\n        /* \"#utility.yul\":18885:18951   */\n      0xffffffffffffffffffffffffffffffffffffffffffffffffffffffffffffffff\n        /* \"#utility.yul\":18881:18955   */\n      div\n        /* \"#utility.yul\":18878:18879   */\n      dup4\n        /* \"#utility.yul\":18875:18956   */\n      gt\n        /* \"#utility.yul\":18870:18871   */\n      dup3\n        /* \"#utility.yul\":18863:18872   */\n      iszero\n        /* \"#utility.yul\":18856:18873   */\n      iszero\n        /* \"#utility.yul\":18852:18957   */\n      and\n        /* \"#utility.yul\":18849:18980   */\n      iszero\n      tag_465\n      jumpi\n        /* \"#utility.yul\":18960:18978   */\n      tag_466\n      tag_430\n      jump\t// in\n    tag_466:\n        /* \"#utility.yul\":18849:18980   */\n    tag_465:\n        /* \"#utility.yul\":19008:19009   */\n      dup3\n        /* \"#utility.yul\":19005:19006   */\n      dup3\n        /* \"#utility.yul\":19001:19010   */\n      mul\n        /* \"#utility.yul\":18990:19010   */\n      swap1\n      pop\n        /* \"#utility.yul\":18668:19016   */\n      swap3\n      swap2\n      pop\n      pop\n      jump\t// out\n        /* \"#utility.yul\":19022:19213   */\n    tag_247:\n        /* \"#utility.yul\":19062:19066   */\n      0x00\n        /* \"#utility.yul\":19082:19102   */\n      tag_468\n        /* \"#utility.yul\":19100:19101   */\n      dup3\n        /* \"#utility.yul\":19082:19102   */\n      tag_378\n      jump\t// in\n    tag_468:\n        /* \"#utility.yul\":19077:19102   */\n      swap2\n      pop\n        /* \"#utility.yul\":19116:19136   */\n      tag_469\n        /* \"#utility.yul\":19134:19135   */\n      dup4\n        /* \"#utility.yul\":19116:19136   */\n      tag_378\n      jump\t// in\n    tag_469:\n        /* \"#utility.yul\":19111:19136   */\n      swap3\n      pop\n        /* \"#utility.yul\":19155:19156   */\n      dup3\n        /* \"#utility.yul\":19152:19153   */\n      dup3\n        /* \"#utility.yul\":19149:19157   */\n      lt\n        /* \"#utility.yul\":19146:19180   */\n      iszero\n      tag_470\n      jumpi\n        /* \"#utility.yul\":19160:19178   */\n      tag_471\n      tag_430\n      jump\t// in\n    tag_471:\n        /* \"#utility.yul\":19146:19180   */\n    tag_470:\n        /* \"#utility.yul\":19205:19206   */\n      dup3\n        /* \"#utility.yul\":19202:19203   */\n      dup3\n        /* \"#utility.yul\":19198:19207   */\n      sub\n        /* \"#utility.yul\":19190:19207   */\n      swap1\n      pop\n        /* \"#utility.yul\":19022:19213   */\n      swap3\n      swap2\n      pop\n      pop\n      jump\t// out\n        /* \"#utility.yul\":19219:19315   */\n    tag_290:\n        /* \"#utility.yul\":19256:19263   */\n      0x00\n        /* \"#utility.yul\":19285:19309   */\n      tag_473\n        /* \"#utility.yul\":19303:19308   */\n      dup3\n        /* \"#utility.yul\":19285:19309   */\n      tag_474\n      jump\t// in\n    tag_473:\n        /* \"#utility.yul\":19274:19309   */\n      swap1\n      pop\n        /* \"#utility.yul\":19219:19315   */\n      swap2\n      swap1\n      pop\n      jump\t// out\n        /* \"#utility.yul\":19321:19411   */\n    tag_294:\n        /* \"#utility.yul\":19355:19362   */\n      0x00\n        /* \"#utility.yul\":19398:19403   */\n      dup2\n        /* \"#utility.yul\":19391:19404   */\n      iszero\n        /* \"#utility.yul\":19384:19405   */\n      iszero\n        /* \"#utility.yul\":19373:19405   */\n      swap1\n      pop\n        /* \"#utility.yul\":19321:19411   */\n      swap2\n      swap1\n      pop\n      jump\t// out\n        /* \"#utility.yul\":19417:19543   */\n    tag_474:\n        /* \"#utility.yul\":19454:19461   */\n      0x00\n        /* \"#utility.yul\":19494:19536   */\n      0xffffffffffffffffffffffffffffffffffffffff\n        /* \"#utility.yul\":19487:19492   */\n      dup3\n        /* \"#utility.yul\":19483:19537   */\n      and\n        /* \"#utility.yul\":19472:19537   */\n      swap1\n      pop\n        /* \"#utility.yul\":19417:19543   */\n      swap2\n      swap1\n      pop\n      jump\t// out\n        /* \"#utility.yul\":19549:19626   */\n    tag_378:\n        /* \"#utility.yul\":19586:19593   */\n      0x00\n        /* \"#utility.yul\":19615:19620   */\n      dup2\n        /* \"#utility.yul\":19604:19620   */\n      swap1\n      pop\n        /* \"#utility.yul\":19549:19626   */\n      swap2\n      swap1\n      pop\n      jump\t// out\n        /* \"#utility.yul\":19632:19718   */\n    tag_382:\n        /* \"#utility.yul\":19667:19674   */\n      0x00\n        /* \"#utility.yul\":19707:19711   */\n      0xff\n        /* \"#utility.yul\":19700:19705   */\n      dup3\n        /* \"#utility.yul\":19696:19712   */\n      and\n        /* \"#utility.yul\":19685:19712   */\n      swap1\n      pop\n        /* \"#utility.yul\":19632:19718   */\n      swap2\n      swap1\n      pop\n      jump\t// out\n        /* \"#utility.yul\":19724:20031   */\n    tag_302:\n        /* \"#utility.yul\":19792:19793   */\n      0x00\n        /* \"#utility.yul\":19802:19915   */\n    tag_480:\n        /* \"#utility.yul\":19816:19822   */\n      dup4\n        /* \"#utility.yul\":19813:19814   */\n      dup2\n        /* \"#utility.yul\":19810:19823   */\n      lt\n        /* \"#utility.yul\":19802:19915   */\n      iszero\n      tag_482\n      jumpi\n        /* \"#utility.yul\":19901:19902   */\n      dup1\n        /* \"#utility.yul\":19896:19899   */\n      dup3\n        /* \"#utility.yul\":19892:19903   */\n      add\n        /* \"#utility.yul\":19886:19904   */\n      mload\n        /* \"#utility.yul\":19882:19883   */\n      dup2\n        /* \"#utility.yul\":19877:19880   */\n      dup5\n        /* \"#utility.yul\":19873:19884   */\n      add\n        /* \"#utility.yul\":19866:19905   */\n      mstore\n        /* \"#utility.yul\":19838:19840   */\n      0x20\n        /* \"#utility.yul\":19835:19836   */\n      dup2\n        /* \"#utility.yul\":19831:19841   */\n      add\n        /* \"#utility.yul\":19826:19841   */\n      swap1\n      pop\n        /* \"#utility.yul\":19802:19915   */\n      jump(tag_480)\n    tag_482:\n        /* \"#utility.yul\":19933:19939   */\n      dup4\n        /* \"#utility.yul\":19930:19931   */\n      dup2\n        /* \"#utility.yul\":19927:19940   */\n      gt\n        /* \"#utility.yul\":19924:20025   */\n      iszero\n      tag_483\n      jumpi\n        /* \"#utility.yul\":20013:20014   */\n      0x00\n        /* \"#utility.yul\":20004:20010   */\n      dup5\n        /* \"#utility.yul\":19999:20002   */\n      dup5\n        /* \"#utility.yul\":19995:20011   */\n      add\n        /* \"#utility.yul\":19988:20015   */\n      mstore\n        /* \"#utility.yul\":19924:20025   */\n    tag_483:\n        /* \"#utility.yul\":19773:20031   */\n      pop\n        /* \"#utility.yul\":19724:20031   */\n      pop\n      pop\n      pop\n      jump\t// out\n        /* \"#utility.yul\":20037:20357   */\n    tag_105:\n        /* \"#utility.yul\":20081:20087   */\n      0x00\n        /* \"#utility.yul\":20118:20119   */\n      0x02\n        /* \"#utility.yul\":20112:20116   */\n      dup3\n        /* \"#utility.yul\":20108:20120   */\n      div\n        /* \"#utility.yul\":20098:20120   */\n      swap1\n      pop\n        /* \"#utility.yul\":20165:20166   */\n      0x01\n        /* \"#utility.yul\":20159:20163   */\n      dup3\n        /* \"#utility.yul\":20155:20167   */\n      and\n        /* \"#utility.yul\":20186:20204   */\n      dup1\n        /* \"#utility.yul\":20176:20257   */\n      tag_485\n      jumpi\n        /* \"#utility.yul\":20242:20246   */\n      0x7f\n        /* \"#utility.yul\":20234:20240   */\n      dup3\n        /* \"#utility.yul\":20230:20247   */\n      and\n        /* \"#utility.yul\":20220:20247   */\n      swap2\n      pop\n        /* \"#utility.yul\":20176:20257   */\n    tag_485:\n        /* \"#utility.yul\":20304:20306   */\n      0x20\n        /* \"#utility.yul\":20296:20302   */\n      dup3\n        /* \"#utility.yul\":20293:20307   */\n      lt\n        /* \"#utility.yul\":20273:20291   */\n      dup2\n        /* \"#utility.yul\":20270:20308   */\n      eq\n        /* \"#utility.yul\":20267:20351   */\n      iszero\n      tag_486\n      jumpi\n        /* \"#utility.yul\":20323:20341   */\n      tag_487\n      tag_488\n      jump\t// in\n    tag_487:\n        /* \"#utility.yul\":20267:20351   */\n    tag_486:\n        /* \"#utility.yul\":20088:20357   */\n      pop\n        /* \"#utility.yul\":20037:20357   */\n      swap2\n      swap1\n      pop\n      jump\t// out\n        /* \"#utility.yul\":20363:20543   */\n    tag_430:\n        /* \"#utility.yul\":20411:20488   */\n      0x4e487b7100000000000000000000000000000000000000000000000000000000\n        /* \"#utility.yul\":20408:20409   */\n      0x00\n        /* \"#utility.yul\":20401:20489   */\n      mstore\n        /* \"#utility.yul\":20508:20512   */\n      0x11\n        /* \"#utility.yul\":20505:20506   */\n      0x04\n        /* \"#utility.yul\":20498:20513   */\n      mstore\n        /* \"#utility.yul\":20532:20536   */\n      0x24\n        /* \"#utility.yul\":20529:20530   */\n      0x00\n        /* \"#utility.yul\":20522:20537   */\n      revert\n        /* \"#utility.yul\":20549:20729   */\n    tag_488:\n        /* \"#utility.yul\":20597:20674   */\n      0x4e487b7100000000000000000000000000000000000000000000000000000000\n        /* \"#utility.yul\":20594:20595   */\n      0x00\n        /* \"#utility.yul\":20587:20675   */\n      mstore\n        /* \"#utility.yul\":20694:20698   */\n      0x22\n        /* \"#utility.yul\":20691:20692   */\n      0x04\n        /* \"#utility.yul\":20684:20699   */\n      mstore\n        /* \"#utility.yul\":20718:20722   */\n      0x24\n        /* \"#utility.yul\":20715:20716   */\n      0x00\n        /* \"#utility.yul\":20708:20723   */\n      revert\n        /* \"#utility.yul\":20858:20975   */\n    tag_265:\n        /* \"#utility.yul\":20967:20968   */\n      0x00\n        /* \"#utility.yul\":20964:20965   */\n      dup1\n        /* \"#utility.yul\":20957:20969   */\n      revert\n        /* \"#utility.yul\":20981:21083   */\n    tag_304:\n        /* \"#utility.yul\":21022:21028   */\n      0x00\n        /* \"#utility.yul\":21073:21075   */\n      0x1f\n        /* \"#utility.yul\":21069:21076   */\n      not\n        /* \"#utility.yul\":21064:21066   */\n      0x1f\n        /* \"#utility.yul\":21057:21062   */\n      dup4\n        /* \"#utility.yul\":21053:21067   */\n      add\n        /* \"#utility.yul\":21049:21077   */\n      and\n        /* \"#utility.yul\":21039:21077   */\n      swap1\n      pop\n        /* \"#utility.yul\":20981:21083   */\n      swap2\n      swap1\n      pop\n      jump\t// out\n        /* \"#utility.yul\":21089:21191   */\n    tag_440:\n        /* \"#utility.yul\":21131:21139   */\n      0x00\n        /* \"#utility.yul\":21178:21183   */\n      dup2\n        /* \"#utility.yul\":21175:21176   */\n      0x01\n        /* \"#utility.yul\":21171:21184   */\n      shr\n        /* \"#utility.yul\":21150:21184   */\n      swap1\n      pop\n        /* \"#utility.yul\":21089:21191   */\n      swap2\n      swap1\n      pop\n      jump\t// out\n        /* \"#utility.yul\":21197:21419   */\n    tag_309:\n        /* \"#utility.yul\":21337:21371   */\n      0x45524332303a207472616e7366657220746f20746865207a65726f2061646472\n        /* \"#utility.yul\":21333:21334   */\n      0x00\n        /* \"#utility.yul\":21325:21331   */\n      dup3\n        /* \"#utility.yul\":21321:21335   */\n      add\n        /* \"#utility.yul\":21314:21372   */\n      mstore\n        /* \"#utility.yul\":21406:21411   */\n      0x6573730000000000000000000000000000000000000000000000000000000000\n        /* \"#utility.yul\":21401:21403   */\n      0x20\n        /* \"#utility.yul\":21393:21399   */\n      dup3\n        /* \"#utility.yul\":21389:21404   */\n      add\n        /* \"#utility.yul\":21382:21412   */\n      mstore\n        /* \"#utility.yul\":21197:21419   */\n      pop\n      jump\t// out\n        /* \"#utility.yul\":21425:21646   */\n    tag_314:\n        /* \"#utility.yul\":21565:21599   */\n      0x45524332303a206275726e20616d6f756e7420657863656564732062616c616e\n        /* \"#utility.yul\":21561:21562   */\n      0x00\n        /* \"#utility.yul\":21553:21559   */\n      dup3\n        /* \"#utility.yul\":21549:21563   */\n      add\n        /* \"#utility.yul\":21542:21600   */\n      mstore\n        /* \"#utility.yul\":21634:21638   */\n      0x6365000000000000000000000000000000000000000000000000000000000000\n        /* \"#utility.yul\":21629:21631   */\n      0x20\n        /* \"#utility.yul\":21621:21627   */\n      dup3\n        /* \"#utility.yul\":21617:21632   */\n      add\n        /* \"#utility.yul\":21610:21639   */\n      mstore\n        /* \"#utility.yul\":21425:21646   */\n      pop\n      jump\t// out\n        /* \"#utility.yul\":21652:21877   */\n    tag_319:\n        /* \"#utility.yul\":21792:21826   */\n      0x4f776e61626c653a206e6577206f776e657220697320746865207a65726f2061\n        /* \"#utility.yul\":21788:21789   */\n      0x00\n        /* \"#utility.yul\":21780:21786   */\n      dup3\n        /* \"#utility.yul\":21776:21790   */\n      add\n        /* \"#utility.yul\":21769:21827   */\n      mstore\n        /* \"#utility.yul\":21861:21869   */\n      0x6464726573730000000000000000000000000000000000000000000000000000\n        /* \"#utility.yul\":21856:21858   */\n      0x20\n        /* \"#utility.yul\":21848:21854   */\n      dup3\n        /* \"#utility.yul\":21844:21859   */\n      add\n        /* \"#utility.yul\":21837:21870   */\n      mstore\n        /* \"#utility.yul\":21652:21877   */\n      pop\n      jump\t// out\n        /* \"#utility.yul\":21883:22104   */\n    tag_324:\n        /* \"#utility.yul\":22023:22057   */\n      0x45524332303a20617070726f766520746f20746865207a65726f206164647265\n        /* \"#utility.yul\":22019:22020   */\n      0x00\n        /* \"#utility.yul\":22011:22017   */\n      dup3\n        /* \"#utility.yul\":22007:22021   */\n      add\n        /* \"#utility.yul\":22000:22058   */\n      mstore\n        /* \"#utility.yul\":22092:22096   */\n      0x7373000000000000000000000000000000000000000000000000000000000000\n        /* \"#utility.yul\":22087:22089   */\n      0x20\n        /* \"#utility.yul\":22079:22085   */\n      dup3\n        /* \"#utility.yul\":22075:22090   */\n      add\n        /* \"#utility.yul\":22068:22097   */\n      mstore\n        /* \"#utility.yul\":21883:22104   */\n      pop\n      jump\t// out\n        /* \"#utility.yul\":22110:22287   */\n    tag_329:\n        /* \"#utility.yul\":22250:22279   */\n      0x536166654d6174683a206164646974696f6e206f766572666c6f770000000000\n        /* \"#utility.yul\":22246:22247   */\n      0x00\n        /* \"#utility.yul\":22238:22244   */\n      dup3\n        /* \"#utility.yul\":22234:22248   */\n      add\n        /* \"#utility.yul\":22227:22280   */\n      mstore\n        /* \"#utility.yul\":22110:22287   */\n      pop\n      jump\t// out\n        /* \"#utility.yul\":22293:22472   */\n    tag_334:\n        /* \"#utility.yul\":22433:22464   */\n      0x45524332303a20696e73756666696369656e7420616c6c6f77616e6365000000\n        /* \"#utility.yul\":22429:22430   */\n      0x00\n        /* \"#utility.yul\":22421:22427   */\n      dup3\n        /* \"#utility.yul\":22417:22431   */\n      add\n        /* \"#utility.yul\":22410:22465   */\n      mstore\n        /* \"#utility.yul\":22293:22472   */\n      pop\n      jump\t// out\n        /* \"#utility.yul\":22478:22703   */\n    tag_339:\n        /* \"#utility.yul\":22618:22652   */\n      0x45524332303a207472616e7366657220616d6f756e7420657863656564732062\n        /* \"#utility.yul\":22614:22615   */\n      0x00\n        /* \"#utility.yul\":22606:22612   */\n      dup3\n        /* \"#utility.yul\":22602:22616   */\n      add\n        /* \"#utility.yul\":22595:22653   */\n      mstore\n        /* \"#utility.yul\":22687:22695   */\n      0x616c616e63650000000000000000000000000000000000000000000000000000\n        /* \"#utility.yul\":22682:22684   */\n      0x20\n        /* \"#utility.yul\":22674:22680   */\n      dup3\n        /* \"#utility.yul\":22670:22685   */\n      add\n        /* \"#utility.yul\":22663:22696   */\n      mstore\n        /* \"#utility.yul\":22478:22703   */\n      pop\n      jump\t// out\n        /* \"#utility.yul\":22709:22881   */\n    tag_344:\n        /* \"#utility.yul\":22849:22873   */\n      0x4d6178696d756d20737570706c79207265616368656400000000000000000000\n        /* \"#utility.yul\":22845:22846   */\n      0x00\n        /* \"#utility.yul\":22837:22843   */\n      dup3\n        /* \"#utility.yul\":22833:22847   */\n      add\n        /* \"#utility.yul\":22826:22874   */\n      mstore\n        /* \"#utility.yul\":22709:22881   */\n      pop\n      jump\t// out\n        /* \"#utility.yul\":22887:23069   */\n    tag_349:\n        /* \"#utility.yul\":23027:23061   */\n      0x4f776e61626c653a2063616c6c6572206973206e6f7420746865206f776e6572\n        /* \"#utility.yul\":23023:23024   */\n      0x00\n        /* \"#utility.yul\":23015:23021   */\n      dup3\n        /* \"#utility.yul\":23011:23025   */\n      add\n        /* \"#utility.yul\":23004:23062   */\n      mstore\n        /* \"#utility.yul\":22887:23069   */\n      pop\n      jump\t// out\n        /* \"#utility.yul\":23075:23295   */\n    tag_354:\n        /* \"#utility.yul\":23215:23249   */\n      0x45524332303a206275726e2066726f6d20746865207a65726f20616464726573\n        /* \"#utility.yul\":23211:23212   */\n      0x00\n        /* \"#utility.yul\":23203:23209   */\n      dup3\n        /* \"#utility.yul\":23199:23213   */\n      add\n        /* \"#utility.yul\":23192:23250   */\n      mstore\n        /* \"#utility.yul\":23284:23287   */\n      0x7300000000000000000000000000000000000000000000000000000000000000\n        /* \"#utility.yul\":23279:23281   */\n      0x20\n        /* \"#utility.yul\":23271:23277   */\n      dup3\n        /* \"#utility.yul\":23267:23282   */\n      add\n        /* \"#utility.yul\":23260:23288   */\n      mstore\n        /* \"#utility.yul\":23075:23295   */\n      pop\n      jump\t// out\n        /* \"#utility.yul\":23301:23525   */\n    tag_359:\n        /* \"#utility.yul\":23441:23475   */\n      0x45524332303a207472616e736665722066726f6d20746865207a65726f206164\n        /* \"#utility.yul\":23437:23438   */\n      0x00\n        /* \"#utility.yul\":23429:23435   */\n      dup3\n        /* \"#utility.yul\":23425:23439   */\n      add\n        /* \"#utility.yul\":23418:23476   */\n      mstore\n        /* \"#utility.yul\":23510:23517   */\n      0x6472657373000000000000000000000000000000000000000000000000000000\n        /* \"#utility.yul\":23505:23507   */\n      0x20\n        /* \"#utility.yul\":23497:23503   */\n      dup3\n        /* \"#utility.yul\":23493:23508   */\n      add\n        /* \"#utility.yul\":23486:23518   */\n      mstore\n        /* \"#utility.yul\":23301:23525   */\n      pop\n      jump\t// out\n        /* \"#utility.yul\":23531:23754   */\n    tag_364:\n        /* \"#utility.yul\":23671:23705   */\n      0x45524332303a20617070726f76652066726f6d20746865207a65726f20616464\n        /* \"#utility.yul\":23667:23668   */\n      0x00\n        /* \"#utility.yul\":23659:23665   */\n      dup3\n        /* \"#utility.yul\":23655:23669   */\n      add\n        /* \"#utility.yul\":23648:23706   */\n      mstore\n        /* \"#utility.yul\":23740:23746   */\n      0x7265737300000000000000000000000000000000000000000000000000000000\n        /* \"#utility.yul\":23735:23737   */\n      0x20\n        /* \"#utility.yul\":23727:23733   */\n      dup3\n        /* \"#utility.yul\":23723:23738   */\n      add\n        /* \"#utility.yul\":23716:23747   */\n      mstore\n        /* \"#utility.yul\":23531:23754   */\n      pop\n      jump\t// out\n        /* \"#utility.yul\":23760:23984   */\n    tag_369:\n        /* \"#utility.yul\":23900:23934   */\n      0x45524332303a2064656372656173656420616c6c6f77616e63652062656c6f77\n        /* \"#utility.yul\":23896:23897   */\n      0x00\n        /* \"#utility.yul\":23888:23894   */\n      dup3\n        /* \"#utility.yul\":23884:23898   */\n      add\n        /* \"#utility.yul\":23877:23935   */\n      mstore\n        /* \"#utility.yul\":23969:23976   */\n      0x207a65726f000000000000000000000000000000000000000000000000000000\n        /* \"#utility.yul\":23964:23966   */\n      0x20\n        /* \"#utility.yul\":23956:23962   */\n      dup3\n        /* \"#utility.yul\":23952:23967   */\n      add\n        /* \"#utility.yul\":23945:23977   */\n      mstore\n        /* \"#utility.yul\":23760:23984   */\n      pop\n      jump\t// out\n        /* \"#utility.yul\":23990:24171   */\n    tag_374:\n        /* \"#utility.yul\":24130:24163   */\n      0x45524332303a206d696e7420746f20746865207a65726f206164647265737300\n        /* \"#utility.yul\":24126:24127   */\n      0x00\n        /* \"#utility.yul\":24118:24124   */\n      dup3\n        /* \"#utility.yul\":24114:24128   */\n      add\n        /* \"#utility.yul\":24107:24164   */\n      mstore\n        /* \"#utility.yul\":23990:24171   */\n      pop\n      jump\t// out\n        /* \"#utility.yul\":24177:24299   */\n    tag_257:\n        /* \"#utility.yul\":24250:24274   */\n      tag_511\n        /* \"#utility.yul\":24268:24273   */\n      dup2\n        /* \"#utility.yul\":24250:24274   */\n      tag_290\n      jump\t// in\n    tag_511:\n        /* \"#utility.yul\":24243:24248   */\n      dup2\n        /* \"#utility.yul\":24240:24275   */\n      eq\n        /* \"#utility.yul\":24230:24293   */\n      tag_512\n      jumpi\n        /* \"#utility.yul\":24289:24290   */\n      0x00\n        /* \"#utility.yul\":24286:24287   */\n      dup1\n        /* \"#utility.yul\":24279:24291   */\n      revert\n        /* \"#utility.yul\":24230:24293   */\n    tag_512:\n        /* \"#utility.yul\":24177:24299   */\n      pop\n      jump\t// out\n        /* \"#utility.yul\":24305:24427   */\n    tag_261:\n        /* \"#utility.yul\":24378:24402   */\n      tag_514\n        /* \"#utility.yul\":24396:24401   */\n      dup2\n        /* \"#utility.yul\":24378:24402   */\n      tag_378\n      jump\t// in\n    tag_514:\n        /* \"#utility.yul\":24371:24376   */\n      dup2\n        /* \"#utility.yul\":24368:24403   */\n      eq\n        /* \"#utility.yul\":24358:24421   */\n      tag_515\n      jumpi\n        /* \"#utility.yul\":24417:24418   */\n      0x00\n        /* \"#utility.yul\":24414:24415   */\n      dup1\n        /* \"#utility.yul\":24407:24419   */\n      revert\n        /* \"#utility.yul\":24358:24421   */\n    tag_515:\n        /* \"#utility.yul\":24305:24427   */\n      pop\n      jump\t// out\n\n    auxdata: 0xa264697066735822122018dfbae7f7c65efdd7834e6f1d979de513d727360e49007d01f51cdecdcc6b8264736f6c63430008070033\n}\n",
				"bytecode": {
					"linkReferences": {},
					"object": "60806040523480156200001157600080fd5b506040518060400160405280600681526020017f41524556454100000000000000000000000000000000000000000000000000008152506040518060400160405280600381526020017f41564100000000000000000000000000000000000000000000000000000000008152508160039080519060200190620000969291906200053d565b508060049080519060200190620000af9291906200053d565b505050620000d2620000c66200010c60201b60201c565b6200011460201b60201c565b6200010633601260ff16600a620000ea919062000808565b620f4240620000fa919062000945565b620001da60201b60201c565b62000af5565b600033905090565b6000600560009054906101000a900473ffffffffffffffffffffffffffffffffffffffff16905081600560006101000a81548173ffffffffffffffffffffffffffffffffffffffff021916908373ffffffffffffffffffffffffffffffffffffffff1602179055508173ffffffffffffffffffffffffffffffffffffffff168173ffffffffffffffffffffffffffffffffffffffff167f8be0079c531659141344cd1fd0a4f28419497f9722a3daafe3b4186f6b6457e060405160405180910390a35050565b620001ea6200029260201b60201c565b601260ff16600a620001fd919062000808565b64e8d4a510006200020f919062000945565b6200023882620002246200032360201b60201c565b6200032d60201b620008e01790919060201c565b11156200027c576040517f08c379a00000000000000000000000000000000000000000000000000000000081526004016200027390620006bc565b60405180910390fd5b6200028e82826200039060201b60201c565b5050565b620002a26200010c60201b60201c565b73ffffffffffffffffffffffffffffffffffffffff16620002c86200050960201b60201c565b73ffffffffffffffffffffffffffffffffffffffff161462000321576040517f08c379a00000000000000000000000000000000000000000000000000000000081526004016200031890620006de565b60405180910390fd5b565b6000600254905090565b60008082846200033e919062000750565b90508381101562000386576040517f08c379a00000000000000000000000000000000000000000000000000000000081526004016200037d906200069a565b60405180910390fd5b8091505092915050565b600073ffffffffffffffffffffffffffffffffffffffff168273ffffffffffffffffffffffffffffffffffffffff16141562000403576040517f08c379a0000000000000000000000000000000000000000000000000000000008152600401620003fa9062000700565b60405180910390fd5b62000417600083836200053360201b60201c565b80600260008282546200042b919062000750565b92505081905550806000808473ffffffffffffffffffffffffffffffffffffffff1673ffffffffffffffffffffffffffffffffffffffff168152602001908152602001600020600082825462000482919062000750565b925050819055508173ffffffffffffffffffffffffffffffffffffffff16600073ffffffffffffffffffffffffffffffffffffffff167fddf252ad1be2c89b69c2b068fc378daa952ba7f163c4a11628f55a4df523b3ef83604051620004e9919062000722565b60405180910390a362000505600083836200053860201b60201c565b5050565b6000600560009054906101000a900473ffffffffffffffffffffffffffffffffffffffff16905090565b505050565b505050565b8280546200054b90620009b0565b90600052602060002090601f0160209004810192826200056f5760008555620005bb565b82601f106200058a57805160ff1916838001178555620005bb565b82800160010185558215620005bb579182015b82811115620005ba5782518255916020019190600101906200059d565b5b509050620005ca9190620005ce565b5090565b5b80821115620005e9576000816000905550600101620005cf565b5090565b6000620005fc601b836200073f565b9150620006098262000a51565b602082019050919050565b6000620006236016836200073f565b9150620006308262000a7a565b602082019050919050565b60006200064a6020836200073f565b9150620006578262000aa3565b602082019050919050565b600062000671601f836200073f565b91506200067e8262000acc565b602082019050919050565b6200069481620009a6565b82525050565b60006020820190508181036000830152620006b581620005ed565b9050919050565b60006020820190508181036000830152620006d78162000614565b9050919050565b60006020820190508181036000830152620006f9816200063b565b9050919050565b600060208201905081810360008301526200071b8162000662565b9050919050565b600060208201905062000739600083018462000689565b92915050565b600082825260208201905092915050565b60006200075d82620009a6565b91506200076a83620009a6565b9250827fffffffffffffffffffffffffffffffffffffffffffffffffffffffffffffffff03821115620007a257620007a1620009e6565b5b828201905092915050565b6000808291508390505b6001851115620007ff57808604811115620007d757620007d6620009e6565b5b6001851615620007e75780820291505b8081029050620007f78562000a44565b9450620007b7565b94509492505050565b60006200081582620009a6565b91506200082283620009a6565b9250620008517fffffffffffffffffffffffffffffffffffffffffffffffffffffffffffffffff848462000859565b905092915050565b6000826200086b57600190506200093e565b816200087b57600090506200093e565b81600181146200089457600281146200089f57620008d5565b60019150506200093e565b60ff841115620008b457620008b3620009e6565b5b8360020a915084821115620008ce57620008cd620009e6565b5b506200093e565b5060208310610133831016604e8410600b84101617156200090f5782820a905083811115620009095762000908620009e6565b5b6200093e565b6200091e8484846001620007ad565b92509050818404811115620009385762000937620009e6565b5b81810290505b9392505050565b60006200095282620009a6565b91506200095f83620009a6565b9250817fffffffffffffffffffffffffffffffffffffffffffffffffffffffffffffffff04831182151516156200099b576200099a620009e6565b5b828202905092915050565b6000819050919050565b60006002820490506001821680620009c957607f821691505b60208210811415620009e057620009df62000a15565b5b50919050565b7f4e487b7100000000000000000000000000000000000000000000000000000000600052601160045260246000fd5b7f4e487b7100000000000000000000000000000000000000000000000000000000600052602260045260246000fd5b60008160011c9050919050565b7f536166654d6174683a206164646974696f6e206f766572666c6f770000000000600082015250565b7f4d6178696d756d20737570706c79207265616368656400000000000000000000600082015250565b7f4f776e61626c653a2063616c6c6572206973206e6f7420746865206f776e6572600082015250565b7f45524332303a206d696e7420746f20746865207a65726f206164647265737300600082015250565b61204b8062000b056000396000f3fe608060405234801561001057600080fd5b506004361061012c5760003560e01c806342966c68116100ad57806395d89b411161007157806395d89b4114610321578063a457c2d71461033f578063a9059cbb1461036f578063dd62ed3e1461039f578063f2fde38b146103cf5761012c565b806342966c681461029157806370a08231146102ad578063715018a6146102dd57806379cc6790146102e75780638da5cb5b146103035761012c565b80632e0f2625116100f45780632e0f2625146101eb5780632ff2e9dc14610209578063313ce56714610227578063395093511461024557806340c10f19146102755761012c565b806306fdde0314610131578063095ea7b31461014f57806318160ddd1461017f5780631b62d7af1461019d57806323b872dd146101bb575b600080fd5b6101396103eb565b604051610146919061168f565b60405180910390f35b6101696004803603810190610164919061138d565b61047d565b6040516101769190611674565b60405180910390f35b6101876104a0565b6040516101949190611871565b60405180910390f35b6101a56104aa565b6040516101b29190611871565b60405180910390f35b6101d560048036038101906101d0919061133a565b6104ce565b6040516101e29190611674565b60405180910390f35b6101f36104fd565b604051610200919061188c565b60405180910390f35b610211610502565b60405161021e9190611871565b60405180910390f35b61022f610524565b60405161023c919061188c565b60405180910390f35b61025f600480360381019061025a919061138d565b61052d565b60405161026c9190611674565b60405180910390f35b61028f600480360381019061028a919061138d565b610564565b005b6102ab60048036038101906102a691906113cd565b6105f6565b005b6102c760048036038101906102c291906112cd565b610603565b6040516102d49190611871565b60405180910390f35b6102e561064b565b005b61030160048036038101906102fc919061138d565b61065f565b005b61030b61067f565b6040516103189190611659565b60405180910390f35b6103296106a9565b604051610336919061168f565b60405180910390f35b6103596004803603810190610354919061138d565b61073b565b6040516103669190611674565b60405180910390f35b6103896004803603810190610384919061138d565b6107b2565b6040516103969190611674565b60405180910390f35b6103b960048036038101906103b491906112fa565b6107d5565b6040516103c69190611871565b60405180910390f35b6103e960048036038101906103e491906112cd565b61085c565b005b6060600380546103fa90611ba0565b80601f016020809104026020016040519081016040528092919081815260200182805461042690611ba0565b80156104735780601f1061044857610100808354040283529160200191610473565b820191906000526020600020905b81548152906001019060200180831161045657829003601f168201915b5050505050905090565b60008061048861093e565b9050610495818585610946565b600191505092915050565b6000600254905090565b601260ff16600a6104bb919061196c565b64e8d4a510006104cb9190611a8a565b81565b6000806104d961093e565b90506104e6858285610b11565b6104f1858585610b9d565b60019150509392505050565b601281565b601260ff16600a610513919061196c565b620f42406105219190611a8a565b81565b60006012905090565b60008061053861093e565b905061055981858561054a85896107d5565b61055491906118c3565b610946565b600191505092915050565b61056c610e1e565b601260ff16600a61057d919061196c565b64e8d4a5100061058d9190611a8a565b6105a7826105996104a0565b6108e090919063ffffffff16565b11156105e8576040517f08c379a00000000000000000000000000000000000000000000000000000000081526004016105df90611791565b60405180910390fd5b6105f28282610e9c565b5050565b6106003382610ffc565b50565b60008060008373ffffffffffffffffffffffffffffffffffffffff1673ffffffffffffffffffffffffffffffffffffffff168152602001908152602001600020549050919050565b610653610e1e565b61065d60006111d3565b565b6106718261066b61093e565b83610b11565b61067b8282610ffc565b5050565b6000600560009054906101000a900473ffffffffffffffffffffffffffffffffffffffff16905090565b6060600480546106b890611ba0565b80601f01602080910402602001604051908101604052809291908181526020018280546106e490611ba0565b80156107315780601f1061070657610100808354040283529160200191610731565b820191906000526020600020905b81548152906001019060200180831161071457829003601f168201915b5050505050905090565b60008061074661093e565b9050600061075482866107d5565b905083811015610799576040517f08c379a000000000000000000000000000000000000000000000000000000000815260040161079090611831565b60405180910390fd5b6107a68286868403610946565b60019250505092915050565b6000806107bd61093e565b90506107ca818585610b9d565b600191505092915050565b6000600160008473ffffffffffffffffffffffffffffffffffffffff1673ffffffffffffffffffffffffffffffffffffffff16815260200190815260200160002060008373ffffffffffffffffffffffffffffffffffffffff1673ffffffffffffffffffffffffffffffffffffffff16815260200190815260200160002054905092915050565b610864610e1e565b600073ffffffffffffffffffffffffffffffffffffffff168173ffffffffffffffffffffffffffffffffffffffff1614156108d4576040517f08c379a00000000000000000000000000000000000000000000000000000000081526004016108cb906116f1565b60405180910390fd5b6108dd816111d3565b50565b60008082846108ef91906118c3565b905083811015610934576040517f08c379a000000000000000000000000000000000000000000000000000000000815260040161092b90611731565b60405180910390fd5b8091505092915050565b600033905090565b600073ffffffffffffffffffffffffffffffffffffffff168373ffffffffffffffffffffffffffffffffffffffff1614156109b6576040517f08c379a00000000000000000000000000000000000000000000000000000000081526004016109ad90611811565b60405180910390fd5b600073ffffffffffffffffffffffffffffffffffffffff168273ffffffffffffffffffffffffffffffffffffffff161415610a26576040517f08c379a0000000000000000000000000000000000000000000000000000000008152600401610a1d90611711565b60405180910390fd5b80600160008573ffffffffffffffffffffffffffffffffffffffff1673ffffffffffffffffffffffffffffffffffffffff16815260200190815260200160002060008473ffffffffffffffffffffffffffffffffffffffff1673ffffffffffffffffffffffffffffffffffffffff168152602001908152602001600020819055508173ffffffffffffffffffffffffffffffffffffffff168373ffffffffffffffffffffffffffffffffffffffff167f8c5be1e5ebec7d5bd14f71427d1e84f3dd0314c0f7b2291e5b200ac8c7c3b92583604051610b049190611871565b60405180910390a3505050565b6000610b1d84846107d5565b90507fffffffffffffffffffffffffffffffffffffffffffffffffffffffffffffffff8114610b975781811015610b89576040517f08c379a0000000000000000000000000000000000000000000000000000000008152600401610b8090611751565b60405180910390fd5b610b968484848403610946565b5b50505050565b600073ffffffffffffffffffffffffffffffffffffffff168373ffffffffffffffffffffffffffffffffffffffff161415610c0d576040517f08c379a0000000000000000000000000000000000000000000000000000000008152600401610c04906117f1565b60405180910390fd5b600073ffffffffffffffffffffffffffffffffffffffff168273ffffffffffffffffffffffffffffffffffffffff161415610c7d576040517f08c379a0000000000000000000000000000000000000000000000000000000008152600401610c74906116b1565b60405180910390fd5b610c88838383611299565b60008060008573ffffffffffffffffffffffffffffffffffffffff1673ffffffffffffffffffffffffffffffffffffffff16815260200190815260200160002054905081811015610d0e576040517f08c379a0000000000000000000000000000000000000000000000000000000008152600401610d0590611771565b60405180910390fd5b8181036000808673ffffffffffffffffffffffffffffffffffffffff1673ffffffffffffffffffffffffffffffffffffffff16815260200190815260200160002081905550816000808573ffffffffffffffffffffffffffffffffffffffff1673ffffffffffffffffffffffffffffffffffffffff1681526020019081526020016000206000828254610da191906118c3565b925050819055508273ffffffffffffffffffffffffffffffffffffffff168473ffffffffffffffffffffffffffffffffffffffff167fddf252ad1be2c89b69c2b068fc378daa952ba7f163c4a11628f55a4df523b3ef84604051610e059190611871565b60405180910390a3610e1884848461129e565b50505050565b610e2661093e565b73ffffffffffffffffffffffffffffffffffffffff16610e4461067f565b73ffffffffffffffffffffffffffffffffffffffff1614610e9a576040517f08c379a0000000000000000000000000000000000000000000000000000000008152600401610e91906117b1565b60405180910390fd5b565b600073ffffffffffffffffffffffffffffffffffffffff168273ffffffffffffffffffffffffffffffffffffffff161415610f0c576040517f08c379a0000000000000000000000000000000000000000000000000000000008152600401610f0390611851565b60405180910390fd5b610f1860008383611299565b8060026000828254610f2a91906118c3565b92505081905550806000808473ffffffffffffffffffffffffffffffffffffffff1673ffffffffffffffffffffffffffffffffffffffff1681526020019081526020016000206000828254610f7f91906118c3565b925050819055508173ffffffffffffffffffffffffffffffffffffffff16600073ffffffffffffffffffffffffffffffffffffffff167fddf252ad1be2c89b69c2b068fc378daa952ba7f163c4a11628f55a4df523b3ef83604051610fe49190611871565b60405180910390a3610ff86000838361129e565b5050565b600073ffffffffffffffffffffffffffffffffffffffff168273ffffffffffffffffffffffffffffffffffffffff16141561106c576040517f08c379a0000000000000000000000000000000000000000000000000000000008152600401611063906117d1565b60405180910390fd5b61107882600083611299565b60008060008473ffffffffffffffffffffffffffffffffffffffff1673ffffffffffffffffffffffffffffffffffffffff168152602001908152602001600020549050818110156110fe576040517f08c379a00000000000000000000000000000000000000000000000000000000081526004016110f5906116d1565b60405180910390fd5b8181036000808573ffffffffffffffffffffffffffffffffffffffff1673ffffffffffffffffffffffffffffffffffffffff1681526020019081526020016000208190555081600260008282546111559190611ae4565b92505081905550600073ffffffffffffffffffffffffffffffffffffffff168373ffffffffffffffffffffffffffffffffffffffff167fddf252ad1be2c89b69c2b068fc378daa952ba7f163c4a11628f55a4df523b3ef846040516111ba9190611871565b60405180910390a36111ce8360008461129e565b505050565b6000600560009054906101000a900473ffffffffffffffffffffffffffffffffffffffff16905081600560006101000a81548173ffffffffffffffffffffffffffffffffffffffff021916908373ffffffffffffffffffffffffffffffffffffffff1602179055508173ffffffffffffffffffffffffffffffffffffffff168173ffffffffffffffffffffffffffffffffffffffff167f8be0079c531659141344cd1fd0a4f28419497f9722a3daafe3b4186f6b6457e060405160405180910390a35050565b505050565b505050565b6000813590506112b281611fe7565b92915050565b6000813590506112c781611ffe565b92915050565b6000602082840312156112e3576112e2611c30565b5b60006112f1848285016112a3565b91505092915050565b6000806040838503121561131157611310611c30565b5b600061131f858286016112a3565b9250506020611330858286016112a3565b9150509250929050565b60008060006060848603121561135357611352611c30565b5b6000611361868287016112a3565b9350506020611372868287016112a3565b9250506040611383868287016112b8565b9150509250925092565b600080604083850312156113a4576113a3611c30565b5b60006113b2858286016112a3565b92505060206113c3858286016112b8565b9150509250929050565b6000602082840312156113e3576113e2611c30565b5b60006113f1848285016112b8565b91505092915050565b61140381611b18565b82525050565b61141281611b2a565b82525050565b6000611423826118a7565b61142d81856118b2565b935061143d818560208601611b6d565b61144681611c35565b840191505092915050565b600061145e6023836118b2565b915061146982611c53565b604082019050919050565b60006114816022836118b2565b915061148c82611ca2565b604082019050919050565b60006114a46026836118b2565b91506114af82611cf1565b604082019050919050565b60006114c76022836118b2565b91506114d282611d40565b604082019050919050565b60006114ea601b836118b2565b91506114f582611d8f565b602082019050919050565b600061150d601d836118b2565b915061151882611db8565b602082019050919050565b60006115306026836118b2565b915061153b82611de1565b604082019050919050565b60006115536016836118b2565b915061155e82611e30565b602082019050919050565b60006115766020836118b2565b915061158182611e59565b602082019050919050565b60006115996021836118b2565b91506115a482611e82565b604082019050919050565b60006115bc6025836118b2565b91506115c782611ed1565b604082019050919050565b60006115df6024836118b2565b91506115ea82611f20565b604082019050919050565b60006116026025836118b2565b915061160d82611f6f565b604082019050919050565b6000611625601f836118b2565b915061163082611fbe565b602082019050919050565b61164481611b56565b82525050565b61165381611b60565b82525050565b600060208201905061166e60008301846113fa565b92915050565b60006020820190506116896000830184611409565b92915050565b600060208201905081810360008301526116a98184611418565b905092915050565b600060208201905081810360008301526116ca81611451565b9050919050565b600060208201905081810360008301526116ea81611474565b9050919050565b6000602082019050818103600083015261170a81611497565b9050919050565b6000602082019050818103600083015261172a816114ba565b9050919050565b6000602082019050818103600083015261174a816114dd565b9050919050565b6000602082019050818103600083015261176a81611500565b9050919050565b6000602082019050818103600083015261178a81611523565b9050919050565b600060208201905081810360008301526117aa81611546565b9050919050565b600060208201905081810360008301526117ca81611569565b9050919050565b600060208201905081810360008301526117ea8161158c565b9050919050565b6000602082019050818103600083015261180a816115af565b9050919050565b6000602082019050818103600083015261182a816115d2565b9050919050565b6000602082019050818103600083015261184a816115f5565b9050919050565b6000602082019050818103600083015261186a81611618565b9050919050565b6000602082019050611886600083018461163b565b92915050565b60006020820190506118a1600083018461164a565b92915050565b600081519050919050565b600082825260208201905092915050565b60006118ce82611b56565b91506118d983611b56565b9250827fffffffffffffffffffffffffffffffffffffffffffffffffffffffffffffffff0382111561190e5761190d611bd2565b5b828201905092915050565b6000808291508390505b60018511156119635780860481111561193f5761193e611bd2565b5b600185161561194e5780820291505b808102905061195c85611c46565b9450611923565b94509492505050565b600061197782611b56565b915061198283611b56565b92506119af7fffffffffffffffffffffffffffffffffffffffffffffffffffffffffffffffff84846119b7565b905092915050565b6000826119c75760019050611a83565b816119d55760009050611a83565b81600181146119eb57600281146119f557611a24565b6001915050611a83565b60ff841115611a0757611a06611bd2565b5b8360020a915084821115611a1e57611a1d611bd2565b5b50611a83565b5060208310610133831016604e8410600b8410161715611a595782820a905083811115611a5457611a53611bd2565b5b611a83565b611a668484846001611919565b92509050818404811115611a7d57611a7c611bd2565b5b81810290505b9392505050565b6000611a9582611b56565b9150611aa083611b56565b9250817fffffffffffffffffffffffffffffffffffffffffffffffffffffffffffffffff0483118215151615611ad957611ad8611bd2565b5b828202905092915050565b6000611aef82611b56565b9150611afa83611b56565b925082821015611b0d57611b0c611bd2565b5b828203905092915050565b6000611b2382611b36565b9050919050565b60008115159050919050565b600073ffffffffffffffffffffffffffffffffffffffff82169050919050565b6000819050919050565b600060ff82169050919050565b60005b83811015611b8b578082015181840152602081019050611b70565b83811115611b9a576000848401525b50505050565b60006002820490506001821680611bb857607f821691505b60208210811415611bcc57611bcb611c01565b5b50919050565b7f4e487b7100000000000000000000000000000000000000000000000000000000600052601160045260246000fd5b7f4e487b7100000000000000000000000000000000000000000000000000000000600052602260045260246000fd5b600080fd5b6000601f19601f8301169050919050565b60008160011c9050919050565b7f45524332303a207472616e7366657220746f20746865207a65726f206164647260008201527f6573730000000000000000000000000000000000000000000000000000000000602082015250565b7f45524332303a206275726e20616d6f756e7420657863656564732062616c616e60008201527f6365000000000000000000000000000000000000000000000000000000000000602082015250565b7f4f776e61626c653a206e6577206f776e657220697320746865207a65726f206160008201527f6464726573730000000000000000000000000000000000000000000000000000602082015250565b7f45524332303a20617070726f766520746f20746865207a65726f20616464726560008201527f7373000000000000000000000000000000000000000000000000000000000000602082015250565b7f536166654d6174683a206164646974696f6e206f766572666c6f770000000000600082015250565b7f45524332303a20696e73756666696369656e7420616c6c6f77616e6365000000600082015250565b7f45524332303a207472616e7366657220616d6f756e742065786365656473206260008201527f616c616e63650000000000000000000000000000000000000000000000000000602082015250565b7f4d6178696d756d20737570706c79207265616368656400000000000000000000600082015250565b7f4f776e61626c653a2063616c6c6572206973206e6f7420746865206f776e6572600082015250565b7f45524332303a206275726e2066726f6d20746865207a65726f2061646472657360008201527f7300000000000000000000000000000000000000000000000000000000000000602082015250565b7f45524332303a207472616e736665722066726f6d20746865207a65726f20616460008201527f6472657373000000000000000000000000000000000000000000000000000000602082015250565b7f45524332303a20617070726f76652066726f6d20746865207a65726f2061646460008201527f7265737300000000000000000000000000000000000000000000000000000000602082015250565b7f45524332303a2064656372656173656420616c6c6f77616e63652062656c6f7760008201527f207a65726f000000000000000000000000000000000000000000000000000000602082015250565b7f45524332303a206d696e7420746f20746865207a65726f206164647265737300600082015250565b611ff081611b18565b8114611ffb57600080fd5b50565b61200781611b56565b811461201257600080fd5b5056fea264697066735822122018dfbae7f7c65efdd7834e6f1d979de513d727360e49007d01f51cdecdcc6b8264736f6c63430008070033",
					"opcodes": "PUSH1 0x80 PUSH1 0x40 MSTORE CALLVALUE DUP1 ISZERO PUSH3 0x11 JUMPI PUSH1 0x0 DUP1 REVERT JUMPDEST POP PUSH1 0x40 MLOAD DUP1 PUSH1 0x40 ADD PUSH1 0x40 MSTORE DUP1 PUSH1 0x6 DUP2 MSTORE PUSH1 0x20 ADD PUSH32 0x4152455645410000000000000000000000000000000000000000000000000000 DUP2 MSTORE POP PUSH1 0x40 MLOAD DUP1 PUSH1 0x40 ADD PUSH1 0x40 MSTORE DUP1 PUSH1 0x3 DUP2 MSTORE PUSH1 0x20 ADD PUSH32 0x4156410000000000000000000000000000000000000000000000000000000000 DUP2 MSTORE POP DUP2 PUSH1 0x3 SWAP1 DUP1 MLOAD SWAP1 PUSH1 0x20 ADD SWAP1 PUSH3 0x96 SWAP3 SWAP2 SWAP1 PUSH3 0x53D JUMP JUMPDEST POP DUP1 PUSH1 0x4 SWAP1 DUP1 MLOAD SWAP1 PUSH1 0x20 ADD SWAP1 PUSH3 0xAF SWAP3 SWAP2 SWAP1 PUSH3 0x53D JUMP JUMPDEST POP POP POP PUSH3 0xD2 PUSH3 0xC6 PUSH3 0x10C PUSH1 0x20 SHL PUSH1 0x20 SHR JUMP JUMPDEST PUSH3 0x114 PUSH1 0x20 SHL PUSH1 0x20 SHR JUMP JUMPDEST PUSH3 0x106 CALLER PUSH1 0x12 PUSH1 0xFF AND PUSH1 0xA PUSH3 0xEA SWAP2 SWAP1 PUSH3 0x808 JUMP JUMPDEST PUSH3 0xF4240 PUSH3 0xFA SWAP2 SWAP1 PUSH3 0x945 JUMP JUMPDEST PUSH3 0x1DA PUSH1 0x20 SHL PUSH1 0x20 SHR JUMP JUMPDEST PUSH3 0xAF5 JUMP JUMPDEST PUSH1 0x0 CALLER SWAP1 POP SWAP1 JUMP JUMPDEST PUSH1 0x0 PUSH1 0x5 PUSH1 0x0 SWAP1 SLOAD SWAP1 PUSH2 0x100 EXP SWAP1 DIV PUSH20 0xFFFFFFFFFFFFFFFFFFFFFFFFFFFFFFFFFFFFFFFF AND SWAP1 POP DUP2 PUSH1 0x5 PUSH1 0x0 PUSH2 0x100 EXP DUP2 SLOAD DUP2 PUSH20 0xFFFFFFFFFFFFFFFFFFFFFFFFFFFFFFFFFFFFFFFF MUL NOT AND SWAP1 DUP4 PUSH20 0xFFFFFFFFFFFFFFFFFFFFFFFFFFFFFFFFFFFFFFFF AND MUL OR SWAP1 SSTORE POP DUP2 PUSH20 0xFFFFFFFFFFFFFFFFFFFFFFFFFFFFFFFFFFFFFFFF AND DUP2 PUSH20 0xFFFFFFFFFFFFFFFFFFFFFFFFFFFFFFFFFFFFFFFF AND PUSH32 0x8BE0079C531659141344CD1FD0A4F28419497F9722A3DAAFE3B4186F6B6457E0 PUSH1 0x40 MLOAD PUSH1 0x40 MLOAD DUP1 SWAP2 SUB SWAP1 LOG3 POP POP JUMP JUMPDEST PUSH3 0x1EA PUSH3 0x292 PUSH1 0x20 SHL PUSH1 0x20 SHR JUMP JUMPDEST PUSH1 0x12 PUSH1 0xFF AND PUSH1 0xA PUSH3 0x1FD SWAP2 SWAP1 PUSH3 0x808 JUMP JUMPDEST PUSH5 0xE8D4A51000 PUSH3 0x20F SWAP2 SWAP1 PUSH3 0x945 JUMP JUMPDEST PUSH3 0x238 DUP3 PUSH3 0x224 PUSH3 0x323 PUSH1 0x20 SHL PUSH1 0x20 SHR JUMP JUMPDEST PUSH3 0x32D PUSH1 0x20 SHL PUSH3 0x8E0 OR SWAP1 SWAP2 SWAP1 PUSH1 0x20 SHR JUMP JUMPDEST GT ISZERO PUSH3 0x27C JUMPI PUSH1 0x40 MLOAD PUSH32 0x8C379A000000000000000000000000000000000000000000000000000000000 DUP2 MSTORE PUSH1 0x4 ADD PUSH3 0x273 SWAP1 PUSH3 0x6BC JUMP JUMPDEST PUSH1 0x40 MLOAD DUP1 SWAP2 SUB SWAP1 REVERT JUMPDEST PUSH3 0x28E DUP3 DUP3 PUSH3 0x390 PUSH1 0x20 SHL PUSH1 0x20 SHR JUMP JUMPDEST POP POP JUMP JUMPDEST PUSH3 0x2A2 PUSH3 0x10C PUSH1 0x20 SHL PUSH1 0x20 SHR JUMP JUMPDEST PUSH20 0xFFFFFFFFFFFFFFFFFFFFFFFFFFFFFFFFFFFFFFFF AND PUSH3 0x2C8 PUSH3 0x509 PUSH1 0x20 SHL PUSH1 0x20 SHR JUMP JUMPDEST PUSH20 0xFFFFFFFFFFFFFFFFFFFFFFFFFFFFFFFFFFFFFFFF AND EQ PUSH3 0x321 JUMPI PUSH1 0x40 MLOAD PUSH32 0x8C379A000000000000000000000000000000000000000000000000000000000 DUP2 MSTORE PUSH1 0x4 ADD PUSH3 0x318 SWAP1 PUSH3 0x6DE JUMP JUMPDEST PUSH1 0x40 MLOAD DUP1 SWAP2 SUB SWAP1 REVERT JUMPDEST JUMP JUMPDEST PUSH1 0x0 PUSH1 0x2 SLOAD SWAP1 POP SWAP1 JUMP JUMPDEST PUSH1 0x0 DUP1 DUP3 DUP5 PUSH3 0x33E SWAP2 SWAP1 PUSH3 0x750 JUMP JUMPDEST SWAP1 POP DUP4 DUP2 LT ISZERO PUSH3 0x386 JUMPI PUSH1 0x40 MLOAD PUSH32 0x8C379A000000000000000000000000000000000000000000000000000000000 DUP2 MSTORE PUSH1 0x4 ADD PUSH3 0x37D SWAP1 PUSH3 0x69A JUMP JUMPDEST PUSH1 0x40 MLOAD DUP1 SWAP2 SUB SWAP1 REVERT JUMPDEST DUP1 SWAP2 POP POP SWAP3 SWAP2 POP POP JUMP JUMPDEST PUSH1 0x0 PUSH20 0xFFFFFFFFFFFFFFFFFFFFFFFFFFFFFFFFFFFFFFFF AND DUP3 PUSH20 0xFFFFFFFFFFFFFFFFFFFFFFFFFFFFFFFFFFFFFFFF AND EQ ISZERO PUSH3 0x403 JUMPI PUSH1 0x40 MLOAD PUSH32 0x8C379A000000000000000000000000000000000000000000000000000000000 DUP2 MSTORE PUSH1 0x4 ADD PUSH3 0x3FA SWAP1 PUSH3 0x700 JUMP JUMPDEST PUSH1 0x40 MLOAD DUP1 SWAP2 SUB SWAP1 REVERT JUMPDEST PUSH3 0x417 PUSH1 0x0 DUP4 DUP4 PUSH3 0x533 PUSH1 0x20 SHL PUSH1 0x20 SHR JUMP JUMPDEST DUP1 PUSH1 0x2 PUSH1 0x0 DUP3 DUP3 SLOAD PUSH3 0x42B SWAP2 SWAP1 PUSH3 0x750 JUMP JUMPDEST SWAP3 POP POP DUP2 SWAP1 SSTORE POP DUP1 PUSH1 0x0 DUP1 DUP5 PUSH20 0xFFFFFFFFFFFFFFFFFFFFFFFFFFFFFFFFFFFFFFFF AND PUSH20 0xFFFFFFFFFFFFFFFFFFFFFFFFFFFFFFFFFFFFFFFF AND DUP2 MSTORE PUSH1 0x20 ADD SWAP1 DUP2 MSTORE PUSH1 0x20 ADD PUSH1 0x0 KECCAK256 PUSH1 0x0 DUP3 DUP3 SLOAD PUSH3 0x482 SWAP2 SWAP1 PUSH3 0x750 JUMP JUMPDEST SWAP3 POP POP DUP2 SWAP1 SSTORE POP DUP2 PUSH20 0xFFFFFFFFFFFFFFFFFFFFFFFFFFFFFFFFFFFFFFFF AND PUSH1 0x0 PUSH20 0xFFFFFFFFFFFFFFFFFFFFFFFFFFFFFFFFFFFFFFFF AND PUSH32 0xDDF252AD1BE2C89B69C2B068FC378DAA952BA7F163C4A11628F55A4DF523B3EF DUP4 PUSH1 0x40 MLOAD PUSH3 0x4E9 SWAP2 SWAP1 PUSH3 0x722 JUMP JUMPDEST PUSH1 0x40 MLOAD DUP1 SWAP2 SUB SWAP1 LOG3 PUSH3 0x505 PUSH1 0x0 DUP4 DUP4 PUSH3 0x538 PUSH1 0x20 SHL PUSH1 0x20 SHR JUMP JUMPDEST POP POP JUMP JUMPDEST PUSH1 0x0 PUSH1 0x5 PUSH1 0x0 SWAP1 SLOAD SWAP1 PUSH2 0x100 EXP SWAP1 DIV PUSH20 0xFFFFFFFFFFFFFFFFFFFFFFFFFFFFFFFFFFFFFFFF AND SWAP1 POP SWAP1 JUMP JUMPDEST POP POP POP JUMP JUMPDEST POP POP POP JUMP JUMPDEST DUP3 DUP1 SLOAD PUSH3 0x54B SWAP1 PUSH3 0x9B0 JUMP JUMPDEST SWAP1 PUSH1 0x0 MSTORE PUSH1 0x20 PUSH1 0x0 KECCAK256 SWAP1 PUSH1 0x1F ADD PUSH1 0x20 SWAP1 DIV DUP2 ADD SWAP3 DUP3 PUSH3 0x56F JUMPI PUSH1 0x0 DUP6 SSTORE PUSH3 0x5BB JUMP JUMPDEST DUP3 PUSH1 0x1F LT PUSH3 0x58A JUMPI DUP1 MLOAD PUSH1 0xFF NOT AND DUP4 DUP1 ADD OR DUP6 SSTORE PUSH3 0x5BB JUMP JUMPDEST DUP3 DUP1 ADD PUSH1 0x1 ADD DUP6 SSTORE DUP3 ISZERO PUSH3 0x5BB JUMPI SWAP2 DUP3 ADD JUMPDEST DUP3 DUP2 GT ISZERO PUSH3 0x5BA JUMPI DUP3 MLOAD DUP3 SSTORE SWAP2 PUSH1 0x20 ADD SWAP2 SWAP1 PUSH1 0x1 ADD SWAP1 PUSH3 0x59D JUMP JUMPDEST JUMPDEST POP SWAP1 POP PUSH3 0x5CA SWAP2 SWAP1 PUSH3 0x5CE JUMP JUMPDEST POP SWAP1 JUMP JUMPDEST JUMPDEST DUP1 DUP3 GT ISZERO PUSH3 0x5E9 JUMPI PUSH1 0x0 DUP2 PUSH1 0x0 SWAP1 SSTORE POP PUSH1 0x1 ADD PUSH3 0x5CF JUMP JUMPDEST POP SWAP1 JUMP JUMPDEST PUSH1 0x0 PUSH3 0x5FC PUSH1 0x1B DUP4 PUSH3 0x73F JUMP JUMPDEST SWAP2 POP PUSH3 0x609 DUP3 PUSH3 0xA51 JUMP JUMPDEST PUSH1 0x20 DUP3 ADD SWAP1 POP SWAP2 SWAP1 POP JUMP JUMPDEST PUSH1 0x0 PUSH3 0x623 PUSH1 0x16 DUP4 PUSH3 0x73F JUMP JUMPDEST SWAP2 POP PUSH3 0x630 DUP3 PUSH3 0xA7A JUMP JUMPDEST PUSH1 0x20 DUP3 ADD SWAP1 POP SWAP2 SWAP1 POP JUMP JUMPDEST PUSH1 0x0 PUSH3 0x64A PUSH1 0x20 DUP4 PUSH3 0x73F JUMP JUMPDEST SWAP2 POP PUSH3 0x657 DUP3 PUSH3 0xAA3 JUMP JUMPDEST PUSH1 0x20 DUP3 ADD SWAP1 POP SWAP2 SWAP1 POP JUMP JUMPDEST PUSH1 0x0 PUSH3 0x671 PUSH1 0x1F DUP4 PUSH3 0x73F JUMP JUMPDEST SWAP2 POP PUSH3 0x67E DUP3 PUSH3 0xACC JUMP JUMPDEST PUSH1 0x20 DUP3 ADD SWAP1 POP SWAP2 SWAP1 POP JUMP JUMPDEST PUSH3 0x694 DUP2 PUSH3 0x9A6 JUMP JUMPDEST DUP3 MSTORE POP POP JUMP JUMPDEST PUSH1 0x0 PUSH1 0x20 DUP3 ADD SWAP1 POP DUP2 DUP2 SUB PUSH1 0x0 DUP4 ADD MSTORE PUSH3 0x6B5 DUP2 PUSH3 0x5ED JUMP JUMPDEST SWAP1 POP SWAP2 SWAP1 POP JUMP JUMPDEST PUSH1 0x0 PUSH1 0x20 DUP3 ADD SWAP1 POP DUP2 DUP2 SUB PUSH1 0x0 DUP4 ADD MSTORE PUSH3 0x6D7 DUP2 PUSH3 0x614 JUMP JUMPDEST SWAP1 POP SWAP2 SWAP1 POP JUMP JUMPDEST PUSH1 0x0 PUSH1 0x20 DUP3 ADD SWAP1 POP DUP2 DUP2 SUB PUSH1 0x0 DUP4 ADD MSTORE PUSH3 0x6F9 DUP2 PUSH3 0x63B JUMP JUMPDEST SWAP1 POP SWAP2 SWAP1 POP JUMP JUMPDEST PUSH1 0x0 PUSH1 0x20 DUP3 ADD SWAP1 POP DUP2 DUP2 SUB PUSH1 0x0 DUP4 ADD MSTORE PUSH3 0x71B DUP2 PUSH3 0x662 JUMP JUMPDEST SWAP1 POP SWAP2 SWAP1 POP JUMP JUMPDEST PUSH1 0x0 PUSH1 0x20 DUP3 ADD SWAP1 POP PUSH3 0x739 PUSH1 0x0 DUP4 ADD DUP5 PUSH3 0x689 JUMP JUMPDEST SWAP3 SWAP2 POP POP JUMP JUMPDEST PUSH1 0x0 DUP3 DUP3 MSTORE PUSH1 0x20 DUP3 ADD SWAP1 POP SWAP3 SWAP2 POP POP JUMP JUMPDEST PUSH1 0x0 PUSH3 0x75D DUP3 PUSH3 0x9A6 JUMP JUMPDEST SWAP2 POP PUSH3 0x76A DUP4 PUSH3 0x9A6 JUMP JUMPDEST SWAP3 POP DUP3 PUSH32 0xFFFFFFFFFFFFFFFFFFFFFFFFFFFFFFFFFFFFFFFFFFFFFFFFFFFFFFFFFFFFFFFF SUB DUP3 GT ISZERO PUSH3 0x7A2 JUMPI PUSH3 0x7A1 PUSH3 0x9E6 JUMP JUMPDEST JUMPDEST DUP3 DUP3 ADD SWAP1 POP SWAP3 SWAP2 POP POP JUMP JUMPDEST PUSH1 0x0 DUP1 DUP3 SWAP2 POP DUP4 SWAP1 POP JUMPDEST PUSH1 0x1 DUP6 GT ISZERO PUSH3 0x7FF JUMPI DUP1 DUP7 DIV DUP2 GT ISZERO PUSH3 0x7D7 JUMPI PUSH3 0x7D6 PUSH3 0x9E6 JUMP JUMPDEST JUMPDEST PUSH1 0x1 DUP6 AND ISZERO PUSH3 0x7E7 JUMPI DUP1 DUP3 MUL SWAP2 POP JUMPDEST DUP1 DUP2 MUL SWAP1 POP PUSH3 0x7F7 DUP6 PUSH3 0xA44 JUMP JUMPDEST SWAP5 POP PUSH3 0x7B7 JUMP JUMPDEST SWAP5 POP SWAP5 SWAP3 POP POP POP JUMP JUMPDEST PUSH1 0x0 PUSH3 0x815 DUP3 PUSH3 0x9A6 JUMP JUMPDEST SWAP2 POP PUSH3 0x822 DUP4 PUSH3 0x9A6 JUMP JUMPDEST SWAP3 POP PUSH3 0x851 PUSH32 0xFFFFFFFFFFFFFFFFFFFFFFFFFFFFFFFFFFFFFFFFFFFFFFFFFFFFFFFFFFFFFFFF DUP5 DUP5 PUSH3 0x859 JUMP JUMPDEST SWAP1 POP SWAP3 SWAP2 POP POP JUMP JUMPDEST PUSH1 0x0 DUP3 PUSH3 0x86B JUMPI PUSH1 0x1 SWAP1 POP PUSH3 0x93E JUMP JUMPDEST DUP2 PUSH3 0x87B JUMPI PUSH1 0x0 SWAP1 POP PUSH3 0x93E JUMP JUMPDEST DUP2 PUSH1 0x1 DUP2 EQ PUSH3 0x894 JUMPI PUSH1 0x2 DUP2 EQ PUSH3 0x89F JUMPI PUSH3 0x8D5 JUMP JUMPDEST PUSH1 0x1 SWAP2 POP POP PUSH3 0x93E JUMP JUMPDEST PUSH1 0xFF DUP5 GT ISZERO PUSH3 0x8B4 JUMPI PUSH3 0x8B3 PUSH3 0x9E6 JUMP JUMPDEST JUMPDEST DUP4 PUSH1 0x2 EXP SWAP2 POP DUP5 DUP3 GT ISZERO PUSH3 0x8CE JUMPI PUSH3 0x8CD PUSH3 0x9E6 JUMP JUMPDEST JUMPDEST POP PUSH3 0x93E JUMP JUMPDEST POP PUSH1 0x20 DUP4 LT PUSH2 0x133 DUP4 LT AND PUSH1 0x4E DUP5 LT PUSH1 0xB DUP5 LT AND OR ISZERO PUSH3 0x90F JUMPI DUP3 DUP3 EXP SWAP1 POP DUP4 DUP2 GT ISZERO PUSH3 0x909 JUMPI PUSH3 0x908 PUSH3 0x9E6 JUMP JUMPDEST JUMPDEST PUSH3 0x93E JUMP JUMPDEST PUSH3 0x91E DUP5 DUP5 DUP5 PUSH1 0x1 PUSH3 0x7AD JUMP JUMPDEST SWAP3 POP SWAP1 POP DUP2 DUP5 DIV DUP2 GT ISZERO PUSH3 0x938 JUMPI PUSH3 0x937 PUSH3 0x9E6 JUMP JUMPDEST JUMPDEST DUP2 DUP2 MUL SWAP1 POP JUMPDEST SWAP4 SWAP3 POP POP POP JUMP JUMPDEST PUSH1 0x0 PUSH3 0x952 DUP3 PUSH3 0x9A6 JUMP JUMPDEST SWAP2 POP PUSH3 0x95F DUP4 PUSH3 0x9A6 JUMP JUMPDEST SWAP3 POP DUP2 PUSH32 0xFFFFFFFFFFFFFFFFFFFFFFFFFFFFFFFFFFFFFFFFFFFFFFFFFFFFFFFFFFFFFFFF DIV DUP4 GT DUP3 ISZERO ISZERO AND ISZERO PUSH3 0x99B JUMPI PUSH3 0x99A PUSH3 0x9E6 JUMP JUMPDEST JUMPDEST DUP3 DUP3 MUL SWAP1 POP SWAP3 SWAP2 POP POP JUMP JUMPDEST PUSH1 0x0 DUP2 SWAP1 POP SWAP2 SWAP1 POP JUMP JUMPDEST PUSH1 0x0 PUSH1 0x2 DUP3 DIV SWAP1 POP PUSH1 0x1 DUP3 AND DUP1 PUSH3 0x9C9 JUMPI PUSH1 0x7F DUP3 AND SWAP2 POP JUMPDEST PUSH1 0x20 DUP3 LT DUP2 EQ ISZERO PUSH3 0x9E0 JUMPI PUSH3 0x9DF PUSH3 0xA15 JUMP JUMPDEST JUMPDEST POP SWAP2 SWAP1 POP JUMP JUMPDEST PUSH32 0x4E487B7100000000000000000000000000000000000000000000000000000000 PUSH1 0x0 MSTORE PUSH1 0x11 PUSH1 0x4 MSTORE PUSH1 0x24 PUSH1 0x0 REVERT JUMPDEST PUSH32 0x4E487B7100000000000000000000000000000000000000000000000000000000 PUSH1 0x0 MSTORE PUSH1 0x22 PUSH1 0x4 MSTORE PUSH1 0x24 PUSH1 0x0 REVERT JUMPDEST PUSH1 0x0 DUP2 PUSH1 0x1 SHR SWAP1 POP SWAP2 SWAP1 POP JUMP JUMPDEST PUSH32 0x536166654D6174683A206164646974696F6E206F766572666C6F770000000000 PUSH1 0x0 DUP3 ADD MSTORE POP JUMP JUMPDEST PUSH32 0x4D6178696D756D20737570706C79207265616368656400000000000000000000 PUSH1 0x0 DUP3 ADD MSTORE POP JUMP JUMPDEST PUSH32 0x4F776E61626C653A2063616C6C6572206973206E6F7420746865206F776E6572 PUSH1 0x0 DUP3 ADD MSTORE POP JUMP JUMPDEST PUSH32 0x45524332303A206D696E7420746F20746865207A65726F206164647265737300 PUSH1 0x0 DUP3 ADD MSTORE POP JUMP JUMPDEST PUSH2 0x204B DUP1 PUSH3 0xB05 PUSH1 0x0 CODECOPY PUSH1 0x0 RETURN INVALID PUSH1 0x80 PUSH1 0x40 MSTORE CALLVALUE DUP1 ISZERO PUSH2 0x10 JUMPI PUSH1 0x0 DUP1 REVERT JUMPDEST POP PUSH1 0x4 CALLDATASIZE LT PUSH2 0x12C JUMPI PUSH1 0x0 CALLDATALOAD PUSH1 0xE0 SHR DUP1 PUSH4 0x42966C68 GT PUSH2 0xAD JUMPI DUP1 PUSH4 0x95D89B41 GT PUSH2 0x71 JUMPI DUP1 PUSH4 0x95D89B41 EQ PUSH2 0x321 JUMPI DUP1 PUSH4 0xA457C2D7 EQ PUSH2 0x33F JUMPI DUP1 PUSH4 0xA9059CBB EQ PUSH2 0x36F JUMPI DUP1 PUSH4 0xDD62ED3E EQ PUSH2 0x39F JUMPI DUP1 PUSH4 0xF2FDE38B EQ PUSH2 0x3CF JUMPI PUSH2 0x12C JUMP JUMPDEST DUP1 PUSH4 0x42966C68 EQ PUSH2 0x291 JUMPI DUP1 PUSH4 0x70A08231 EQ PUSH2 0x2AD JUMPI DUP1 PUSH4 0x715018A6 EQ PUSH2 0x2DD JUMPI DUP1 PUSH4 0x79CC6790 EQ PUSH2 0x2E7 JUMPI DUP1 PUSH4 0x8DA5CB5B EQ PUSH2 0x303 JUMPI PUSH2 0x12C JUMP JUMPDEST DUP1 PUSH4 0x2E0F2625 GT PUSH2 0xF4 JUMPI DUP1 PUSH4 0x2E0F2625 EQ PUSH2 0x1EB JUMPI DUP1 PUSH4 0x2FF2E9DC EQ PUSH2 0x209 JUMPI DUP1 PUSH4 0x313CE567 EQ PUSH2 0x227 JUMPI DUP1 PUSH4 0x39509351 EQ PUSH2 0x245 JUMPI DUP1 PUSH4 0x40C10F19 EQ PUSH2 0x275 JUMPI PUSH2 0x12C JUMP JUMPDEST DUP1 PUSH4 0x6FDDE03 EQ PUSH2 0x131 JUMPI DUP1 PUSH4 0x95EA7B3 EQ PUSH2 0x14F JUMPI DUP1 PUSH4 0x18160DDD EQ PUSH2 0x17F JUMPI DUP1 PUSH4 0x1B62D7AF EQ PUSH2 0x19D JUMPI DUP1 PUSH4 0x23B872DD EQ PUSH2 0x1BB JUMPI JUMPDEST PUSH1 0x0 DUP1 REVERT JUMPDEST PUSH2 0x139 PUSH2 0x3EB JUMP JUMPDEST PUSH1 0x40 MLOAD PUSH2 0x146 SWAP2 SWAP1 PUSH2 0x168F JUMP JUMPDEST PUSH1 0x40 MLOAD DUP1 SWAP2 SUB SWAP1 RETURN JUMPDEST PUSH2 0x169 PUSH1 0x4 DUP1 CALLDATASIZE SUB DUP2 ADD SWAP1 PUSH2 0x164 SWAP2 SWAP1 PUSH2 0x138D JUMP JUMPDEST PUSH2 0x47D JUMP JUMPDEST PUSH1 0x40 MLOAD PUSH2 0x176 SWAP2 SWAP1 PUSH2 0x1674 JUMP JUMPDEST PUSH1 0x40 MLOAD DUP1 SWAP2 SUB SWAP1 RETURN JUMPDEST PUSH2 0x187 PUSH2 0x4A0 JUMP JUMPDEST PUSH1 0x40 MLOAD PUSH2 0x194 SWAP2 SWAP1 PUSH2 0x1871 JUMP JUMPDEST PUSH1 0x40 MLOAD DUP1 SWAP2 SUB SWAP1 RETURN JUMPDEST PUSH2 0x1A5 PUSH2 0x4AA JUMP JUMPDEST PUSH1 0x40 MLOAD PUSH2 0x1B2 SWAP2 SWAP1 PUSH2 0x1871 JUMP JUMPDEST PUSH1 0x40 MLOAD DUP1 SWAP2 SUB SWAP1 RETURN JUMPDEST PUSH2 0x1D5 PUSH1 0x4 DUP1 CALLDATASIZE SUB DUP2 ADD SWAP1 PUSH2 0x1D0 SWAP2 SWAP1 PUSH2 0x133A JUMP JUMPDEST PUSH2 0x4CE JUMP JUMPDEST PUSH1 0x40 MLOAD PUSH2 0x1E2 SWAP2 SWAP1 PUSH2 0x1674 JUMP JUMPDEST PUSH1 0x40 MLOAD DUP1 SWAP2 SUB SWAP1 RETURN JUMPDEST PUSH2 0x1F3 PUSH2 0x4FD JUMP JUMPDEST PUSH1 0x40 MLOAD PUSH2 0x200 SWAP2 SWAP1 PUSH2 0x188C JUMP JUMPDEST PUSH1 0x40 MLOAD DUP1 SWAP2 SUB SWAP1 RETURN JUMPDEST PUSH2 0x211 PUSH2 0x502 JUMP JUMPDEST PUSH1 0x40 MLOAD PUSH2 0x21E SWAP2 SWAP1 PUSH2 0x1871 JUMP JUMPDEST PUSH1 0x40 MLOAD DUP1 SWAP2 SUB SWAP1 RETURN JUMPDEST PUSH2 0x22F PUSH2 0x524 JUMP JUMPDEST PUSH1 0x40 MLOAD PUSH2 0x23C SWAP2 SWAP1 PUSH2 0x188C JUMP JUMPDEST PUSH1 0x40 MLOAD DUP1 SWAP2 SUB SWAP1 RETURN JUMPDEST PUSH2 0x25F PUSH1 0x4 DUP1 CALLDATASIZE SUB DUP2 ADD SWAP1 PUSH2 0x25A SWAP2 SWAP1 PUSH2 0x138D JUMP JUMPDEST PUSH2 0x52D JUMP JUMPDEST PUSH1 0x40 MLOAD PUSH2 0x26C SWAP2 SWAP1 PUSH2 0x1674 JUMP JUMPDEST PUSH1 0x40 MLOAD DUP1 SWAP2 SUB SWAP1 RETURN JUMPDEST PUSH2 0x28F PUSH1 0x4 DUP1 CALLDATASIZE SUB DUP2 ADD SWAP1 PUSH2 0x28A SWAP2 SWAP1 PUSH2 0x138D JUMP JUMPDEST PUSH2 0x564 JUMP JUMPDEST STOP JUMPDEST PUSH2 0x2AB PUSH1 0x4 DUP1 CALLDATASIZE SUB DUP2 ADD SWAP1 PUSH2 0x2A6 SWAP2 SWAP1 PUSH2 0x13CD JUMP JUMPDEST PUSH2 0x5F6 JUMP JUMPDEST STOP JUMPDEST PUSH2 0x2C7 PUSH1 0x4 DUP1 CALLDATASIZE SUB DUP2 ADD SWAP1 PUSH2 0x2C2 SWAP2 SWAP1 PUSH2 0x12CD JUMP JUMPDEST PUSH2 0x603 JUMP JUMPDEST PUSH1 0x40 MLOAD PUSH2 0x2D4 SWAP2 SWAP1 PUSH2 0x1871 JUMP JUMPDEST PUSH1 0x40 MLOAD DUP1 SWAP2 SUB SWAP1 RETURN JUMPDEST PUSH2 0x2E5 PUSH2 0x64B JUMP JUMPDEST STOP JUMPDEST PUSH2 0x301 PUSH1 0x4 DUP1 CALLDATASIZE SUB DUP2 ADD SWAP1 PUSH2 0x2FC SWAP2 SWAP1 PUSH2 0x138D JUMP JUMPDEST PUSH2 0x65F JUMP JUMPDEST STOP JUMPDEST PUSH2 0x30B PUSH2 0x67F JUMP JUMPDEST PUSH1 0x40 MLOAD PUSH2 0x318 SWAP2 SWAP1 PUSH2 0x1659 JUMP JUMPDEST PUSH1 0x40 MLOAD DUP1 SWAP2 SUB SWAP1 RETURN JUMPDEST PUSH2 0x329 PUSH2 0x6A9 JUMP JUMPDEST PUSH1 0x40 MLOAD PUSH2 0x336 SWAP2 SWAP1 PUSH2 0x168F JUMP JUMPDEST PUSH1 0x40 MLOAD DUP1 SWAP2 SUB SWAP1 RETURN JUMPDEST PUSH2 0x359 PUSH1 0x4 DUP1 CALLDATASIZE SUB DUP2 ADD SWAP1 PUSH2 0x354 SWAP2 SWAP1 PUSH2 0x138D JUMP JUMPDEST PUSH2 0x73B JUMP JUMPDEST PUSH1 0x40 MLOAD PUSH2 0x366 SWAP2 SWAP1 PUSH2 0x1674 JUMP JUMPDEST PUSH1 0x40 MLOAD DUP1 SWAP2 SUB SWAP1 RETURN JUMPDEST PUSH2 0x389 PUSH1 0x4 DUP1 CALLDATASIZE SUB DUP2 ADD SWAP1 PUSH2 0x384 SWAP2 SWAP1 PUSH2 0x138D JUMP JUMPDEST PUSH2 0x7B2 JUMP JUMPDEST PUSH1 0x40 MLOAD PUSH2 0x396 SWAP2 SWAP1 PUSH2 0x1674 JUMP JUMPDEST PUSH1 0x40 MLOAD DUP1 SWAP2 SUB SWAP1 RETURN JUMPDEST PUSH2 0x3B9 PUSH1 0x4 DUP1 CALLDATASIZE SUB DUP2 ADD SWAP1 PUSH2 0x3B4 SWAP2 SWAP1 PUSH2 0x12FA JUMP JUMPDEST PUSH2 0x7D5 JUMP JUMPDEST PUSH1 0x40 MLOAD PUSH2 0x3C6 SWAP2 SWAP1 PUSH2 0x1871 JUMP JUMPDEST PUSH1 0x40 MLOAD DUP1 SWAP2 SUB SWAP1 RETURN JUMPDEST PUSH2 0x3E9 PUSH1 0x4 DUP1 CALLDATASIZE SUB DUP2 ADD SWAP1 PUSH2 0x3E4 SWAP2 SWAP1 PUSH2 0x12CD JUMP JUMPDEST PUSH2 0x85C JUMP JUMPDEST STOP JUMPDEST PUSH1 0x60 PUSH1 0x3 DUP1 SLOAD PUSH2 0x3FA SWAP1 PUSH2 0x1BA0 JUMP JUMPDEST DUP1 PUSH1 0x1F ADD PUSH1 0x20 DUP1 SWAP2 DIV MUL PUSH1 0x20 ADD PUSH1 0x40 MLOAD SWAP1 DUP2 ADD PUSH1 0x40 MSTORE DUP1 SWAP3 SWAP2 SWAP1 DUP2 DUP2 MSTORE PUSH1 0x20 ADD DUP3 DUP1 SLOAD PUSH2 0x426 SWAP1 PUSH2 0x1BA0 JUMP JUMPDEST DUP1 ISZERO PUSH2 0x473 JUMPI DUP1 PUSH1 0x1F LT PUSH2 0x448 JUMPI PUSH2 0x100 DUP1 DUP4 SLOAD DIV MUL DUP4 MSTORE SWAP2 PUSH1 0x20 ADD SWAP2 PUSH2 0x473 JUMP JUMPDEST DUP3 ADD SWAP2 SWAP1 PUSH1 0x0 MSTORE PUSH1 0x20 PUSH1 0x0 KECCAK256 SWAP1 JUMPDEST DUP2 SLOAD DUP2 MSTORE SWAP1 PUSH1 0x1 ADD SWAP1 PUSH1 0x20 ADD DUP1 DUP4 GT PUSH2 0x456 JUMPI DUP3 SWAP1 SUB PUSH1 0x1F AND DUP3 ADD SWAP2 JUMPDEST POP POP POP POP POP SWAP1 POP SWAP1 JUMP JUMPDEST PUSH1 0x0 DUP1 PUSH2 0x488 PUSH2 0x93E JUMP JUMPDEST SWAP1 POP PUSH2 0x495 DUP2 DUP6 DUP6 PUSH2 0x946 JUMP JUMPDEST PUSH1 0x1 SWAP2 POP POP SWAP3 SWAP2 POP POP JUMP JUMPDEST PUSH1 0x0 PUSH1 0x2 SLOAD SWAP1 POP SWAP1 JUMP JUMPDEST PUSH1 0x12 PUSH1 0xFF AND PUSH1 0xA PUSH2 0x4BB SWAP2 SWAP1 PUSH2 0x196C JUMP JUMPDEST PUSH5 0xE8D4A51000 PUSH2 0x4CB SWAP2 SWAP1 PUSH2 0x1A8A JUMP JUMPDEST DUP2 JUMP JUMPDEST PUSH1 0x0 DUP1 PUSH2 0x4D9 PUSH2 0x93E JUMP JUMPDEST SWAP1 POP PUSH2 0x4E6 DUP6 DUP3 DUP6 PUSH2 0xB11 JUMP JUMPDEST PUSH2 0x4F1 DUP6 DUP6 DUP6 PUSH2 0xB9D JUMP JUMPDEST PUSH1 0x1 SWAP2 POP POP SWAP4 SWAP3 POP POP POP JUMP JUMPDEST PUSH1 0x12 DUP2 JUMP JUMPDEST PUSH1 0x12 PUSH1 0xFF AND PUSH1 0xA PUSH2 0x513 SWAP2 SWAP1 PUSH2 0x196C JUMP JUMPDEST PUSH3 0xF4240 PUSH2 0x521 SWAP2 SWAP1 PUSH2 0x1A8A JUMP JUMPDEST DUP2 JUMP JUMPDEST PUSH1 0x0 PUSH1 0x12 SWAP1 POP SWAP1 JUMP JUMPDEST PUSH1 0x0 DUP1 PUSH2 0x538 PUSH2 0x93E JUMP JUMPDEST SWAP1 POP PUSH2 0x559 DUP2 DUP6 DUP6 PUSH2 0x54A DUP6 DUP10 PUSH2 0x7D5 JUMP JUMPDEST PUSH2 0x554 SWAP2 SWAP1 PUSH2 0x18C3 JUMP JUMPDEST PUSH2 0x946 JUMP JUMPDEST PUSH1 0x1 SWAP2 POP POP SWAP3 SWAP2 POP POP JUMP JUMPDEST PUSH2 0x56C PUSH2 0xE1E JUMP JUMPDEST PUSH1 0x12 PUSH1 0xFF AND PUSH1 0xA PUSH2 0x57D SWAP2 SWAP1 PUSH2 0x196C JUMP JUMPDEST PUSH5 0xE8D4A51000 PUSH2 0x58D SWAP2 SWAP1 PUSH2 0x1A8A JUMP JUMPDEST PUSH2 0x5A7 DUP3 PUSH2 0x599 PUSH2 0x4A0 JUMP JUMPDEST PUSH2 0x8E0 SWAP1 SWAP2 SWAP1 PUSH4 0xFFFFFFFF AND JUMP JUMPDEST GT ISZERO PUSH2 0x5E8 JUMPI PUSH1 0x40 MLOAD PUSH32 0x8C379A000000000000000000000000000000000000000000000000000000000 DUP2 MSTORE PUSH1 0x4 ADD PUSH2 0x5DF SWAP1 PUSH2 0x1791 JUMP JUMPDEST PUSH1 0x40 MLOAD DUP1 SWAP2 SUB SWAP1 REVERT JUMPDEST PUSH2 0x5F2 DUP3 DUP3 PUSH2 0xE9C JUMP JUMPDEST POP POP JUMP JUMPDEST PUSH2 0x600 CALLER DUP3 PUSH2 0xFFC JUMP JUMPDEST POP JUMP JUMPDEST PUSH1 0x0 DUP1 PUSH1 0x0 DUP4 PUSH20 0xFFFFFFFFFFFFFFFFFFFFFFFFFFFFFFFFFFFFFFFF AND PUSH20 0xFFFFFFFFFFFFFFFFFFFFFFFFFFFFFFFFFFFFFFFF AND DUP2 MSTORE PUSH1 0x20 ADD SWAP1 DUP2 MSTORE PUSH1 0x20 ADD PUSH1 0x0 KECCAK256 SLOAD SWAP1 POP SWAP2 SWAP1 POP JUMP JUMPDEST PUSH2 0x653 PUSH2 0xE1E JUMP JUMPDEST PUSH2 0x65D PUSH1 0x0 PUSH2 0x11D3 JUMP JUMPDEST JUMP JUMPDEST PUSH2 0x671 DUP3 PUSH2 0x66B PUSH2 0x93E JUMP JUMPDEST DUP4 PUSH2 0xB11 JUMP JUMPDEST PUSH2 0x67B DUP3 DUP3 PUSH2 0xFFC JUMP JUMPDEST POP POP JUMP JUMPDEST PUSH1 0x0 PUSH1 0x5 PUSH1 0x0 SWAP1 SLOAD SWAP1 PUSH2 0x100 EXP SWAP1 DIV PUSH20 0xFFFFFFFFFFFFFFFFFFFFFFFFFFFFFFFFFFFFFFFF AND SWAP1 POP SWAP1 JUMP JUMPDEST PUSH1 0x60 PUSH1 0x4 DUP1 SLOAD PUSH2 0x6B8 SWAP1 PUSH2 0x1BA0 JUMP JUMPDEST DUP1 PUSH1 0x1F ADD PUSH1 0x20 DUP1 SWAP2 DIV MUL PUSH1 0x20 ADD PUSH1 0x40 MLOAD SWAP1 DUP2 ADD PUSH1 0x40 MSTORE DUP1 SWAP3 SWAP2 SWAP1 DUP2 DUP2 MSTORE PUSH1 0x20 ADD DUP3 DUP1 SLOAD PUSH2 0x6E4 SWAP1 PUSH2 0x1BA0 JUMP JUMPDEST DUP1 ISZERO PUSH2 0x731 JUMPI DUP1 PUSH1 0x1F LT PUSH2 0x706 JUMPI PUSH2 0x100 DUP1 DUP4 SLOAD DIV MUL DUP4 MSTORE SWAP2 PUSH1 0x20 ADD SWAP2 PUSH2 0x731 JUMP JUMPDEST DUP3 ADD SWAP2 SWAP1 PUSH1 0x0 MSTORE PUSH1 0x20 PUSH1 0x0 KECCAK256 SWAP1 JUMPDEST DUP2 SLOAD DUP2 MSTORE SWAP1 PUSH1 0x1 ADD SWAP1 PUSH1 0x20 ADD DUP1 DUP4 GT PUSH2 0x714 JUMPI DUP3 SWAP1 SUB PUSH1 0x1F AND DUP3 ADD SWAP2 JUMPDEST POP POP POP POP POP SWAP1 POP SWAP1 JUMP JUMPDEST PUSH1 0x0 DUP1 PUSH2 0x746 PUSH2 0x93E JUMP JUMPDEST SWAP1 POP PUSH1 0x0 PUSH2 0x754 DUP3 DUP7 PUSH2 0x7D5 JUMP JUMPDEST SWAP1 POP DUP4 DUP2 LT ISZERO PUSH2 0x799 JUMPI PUSH1 0x40 MLOAD PUSH32 0x8C379A000000000000000000000000000000000000000000000000000000000 DUP2 MSTORE PUSH1 0x4 ADD PUSH2 0x790 SWAP1 PUSH2 0x1831 JUMP JUMPDEST PUSH1 0x40 MLOAD DUP1 SWAP2 SUB SWAP1 REVERT JUMPDEST PUSH2 0x7A6 DUP3 DUP7 DUP7 DUP5 SUB PUSH2 0x946 JUMP JUMPDEST PUSH1 0x1 SWAP3 POP POP POP SWAP3 SWAP2 POP POP JUMP JUMPDEST PUSH1 0x0 DUP1 PUSH2 0x7BD PUSH2 0x93E JUMP JUMPDEST SWAP1 POP PUSH2 0x7CA DUP2 DUP6 DUP6 PUSH2 0xB9D JUMP JUMPDEST PUSH1 0x1 SWAP2 POP POP SWAP3 SWAP2 POP POP JUMP JUMPDEST PUSH1 0x0 PUSH1 0x1 PUSH1 0x0 DUP5 PUSH20 0xFFFFFFFFFFFFFFFFFFFFFFFFFFFFFFFFFFFFFFFF AND PUSH20 0xFFFFFFFFFFFFFFFFFFFFFFFFFFFFFFFFFFFFFFFF AND DUP2 MSTORE PUSH1 0x20 ADD SWAP1 DUP2 MSTORE PUSH1 0x20 ADD PUSH1 0x0 KECCAK256 PUSH1 0x0 DUP4 PUSH20 0xFFFFFFFFFFFFFFFFFFFFFFFFFFFFFFFFFFFFFFFF AND PUSH20 0xFFFFFFFFFFFFFFFFFFFFFFFFFFFFFFFFFFFFFFFF AND DUP2 MSTORE PUSH1 0x20 ADD SWAP1 DUP2 MSTORE PUSH1 0x20 ADD PUSH1 0x0 KECCAK256 SLOAD SWAP1 POP SWAP3 SWAP2 POP POP JUMP JUMPDEST PUSH2 0x864 PUSH2 0xE1E JUMP JUMPDEST PUSH1 0x0 PUSH20 0xFFFFFFFFFFFFFFFFFFFFFFFFFFFFFFFFFFFFFFFF AND DUP2 PUSH20 0xFFFFFFFFFFFFFFFFFFFFFFFFFFFFFFFFFFFFFFFF AND EQ ISZERO PUSH2 0x8D4 JUMPI PUSH1 0x40 MLOAD PUSH32 0x8C379A000000000000000000000000000000000000000000000000000000000 DUP2 MSTORE PUSH1 0x4 ADD PUSH2 0x8CB SWAP1 PUSH2 0x16F1 JUMP JUMPDEST PUSH1 0x40 MLOAD DUP1 SWAP2 SUB SWAP1 REVERT JUMPDEST PUSH2 0x8DD DUP2 PUSH2 0x11D3 JUMP JUMPDEST POP JUMP JUMPDEST PUSH1 0x0 DUP1 DUP3 DUP5 PUSH2 0x8EF SWAP2 SWAP1 PUSH2 0x18C3 JUMP JUMPDEST SWAP1 POP DUP4 DUP2 LT ISZERO PUSH2 0x934 JUMPI PUSH1 0x40 MLOAD PUSH32 0x8C379A000000000000000000000000000000000000000000000000000000000 DUP2 MSTORE PUSH1 0x4 ADD PUSH2 0x92B SWAP1 PUSH2 0x1731 JUMP JUMPDEST PUSH1 0x40 MLOAD DUP1 SWAP2 SUB SWAP1 REVERT JUMPDEST DUP1 SWAP2 POP POP SWAP3 SWAP2 POP POP JUMP JUMPDEST PUSH1 0x0 CALLER SWAP1 POP SWAP1 JUMP JUMPDEST PUSH1 0x0 PUSH20 0xFFFFFFFFFFFFFFFFFFFFFFFFFFFFFFFFFFFFFFFF AND DUP4 PUSH20 0xFFFFFFFFFFFFFFFFFFFFFFFFFFFFFFFFFFFFFFFF AND EQ ISZERO PUSH2 0x9B6 JUMPI PUSH1 0x40 MLOAD PUSH32 0x8C379A000000000000000000000000000000000000000000000000000000000 DUP2 MSTORE PUSH1 0x4 ADD PUSH2 0x9AD SWAP1 PUSH2 0x1811 JUMP JUMPDEST PUSH1 0x40 MLOAD DUP1 SWAP2 SUB SWAP1 REVERT JUMPDEST PUSH1 0x0 PUSH20 0xFFFFFFFFFFFFFFFFFFFFFFFFFFFFFFFFFFFFFFFF AND DUP3 PUSH20 0xFFFFFFFFFFFFFFFFFFFFFFFFFFFFFFFFFFFFFFFF AND EQ ISZERO PUSH2 0xA26 JUMPI PUSH1 0x40 MLOAD PUSH32 0x8C379A000000000000000000000000000000000000000000000000000000000 DUP2 MSTORE PUSH1 0x4 ADD PUSH2 0xA1D SWAP1 PUSH2 0x1711 JUMP JUMPDEST PUSH1 0x40 MLOAD DUP1 SWAP2 SUB SWAP1 REVERT JUMPDEST DUP1 PUSH1 0x1 PUSH1 0x0 DUP6 PUSH20 0xFFFFFFFFFFFFFFFFFFFFFFFFFFFFFFFFFFFFFFFF AND PUSH20 0xFFFFFFFFFFFFFFFFFFFFFFFFFFFFFFFFFFFFFFFF AND DUP2 MSTORE PUSH1 0x20 ADD SWAP1 DUP2 MSTORE PUSH1 0x20 ADD PUSH1 0x0 KECCAK256 PUSH1 0x0 DUP5 PUSH20 0xFFFFFFFFFFFFFFFFFFFFFFFFFFFFFFFFFFFFFFFF AND PUSH20 0xFFFFFFFFFFFFFFFFFFFFFFFFFFFFFFFFFFFFFFFF AND DUP2 MSTORE PUSH1 0x20 ADD SWAP1 DUP2 MSTORE PUSH1 0x20 ADD PUSH1 0x0 KECCAK256 DUP2 SWAP1 SSTORE POP DUP2 PUSH20 0xFFFFFFFFFFFFFFFFFFFFFFFFFFFFFFFFFFFFFFFF AND DUP4 PUSH20 0xFFFFFFFFFFFFFFFFFFFFFFFFFFFFFFFFFFFFFFFF AND PUSH32 0x8C5BE1E5EBEC7D5BD14F71427D1E84F3DD0314C0F7B2291E5B200AC8C7C3B925 DUP4 PUSH1 0x40 MLOAD PUSH2 0xB04 SWAP2 SWAP1 PUSH2 0x1871 JUMP JUMPDEST PUSH1 0x40 MLOAD DUP1 SWAP2 SUB SWAP1 LOG3 POP POP POP JUMP JUMPDEST PUSH1 0x0 PUSH2 0xB1D DUP5 DUP5 PUSH2 0x7D5 JUMP JUMPDEST SWAP1 POP PUSH32 0xFFFFFFFFFFFFFFFFFFFFFFFFFFFFFFFFFFFFFFFFFFFFFFFFFFFFFFFFFFFFFFFF DUP2 EQ PUSH2 0xB97 JUMPI DUP2 DUP2 LT ISZERO PUSH2 0xB89 JUMPI PUSH1 0x40 MLOAD PUSH32 0x8C379A000000000000000000000000000000000000000000000000000000000 DUP2 MSTORE PUSH1 0x4 ADD PUSH2 0xB80 SWAP1 PUSH2 0x1751 JUMP JUMPDEST PUSH1 0x40 MLOAD DUP1 SWAP2 SUB SWAP1 REVERT JUMPDEST PUSH2 0xB96 DUP5 DUP5 DUP5 DUP5 SUB PUSH2 0x946 JUMP JUMPDEST JUMPDEST POP POP POP POP JUMP JUMPDEST PUSH1 0x0 PUSH20 0xFFFFFFFFFFFFFFFFFFFFFFFFFFFFFFFFFFFFFFFF AND DUP4 PUSH20 0xFFFFFFFFFFFFFFFFFFFFFFFFFFFFFFFFFFFFFFFF AND EQ ISZERO PUSH2 0xC0D JUMPI PUSH1 0x40 MLOAD PUSH32 0x8C379A000000000000000000000000000000000000000000000000000000000 DUP2 MSTORE PUSH1 0x4 ADD PUSH2 0xC04 SWAP1 PUSH2 0x17F1 JUMP JUMPDEST PUSH1 0x40 MLOAD DUP1 SWAP2 SUB SWAP1 REVERT JUMPDEST PUSH1 0x0 PUSH20 0xFFFFFFFFFFFFFFFFFFFFFFFFFFFFFFFFFFFFFFFF AND DUP3 PUSH20 0xFFFFFFFFFFFFFFFFFFFFFFFFFFFFFFFFFFFFFFFF AND EQ ISZERO PUSH2 0xC7D JUMPI PUSH1 0x40 MLOAD PUSH32 0x8C379A000000000000000000000000000000000000000000000000000000000 DUP2 MSTORE PUSH1 0x4 ADD PUSH2 0xC74 SWAP1 PUSH2 0x16B1 JUMP JUMPDEST PUSH1 0x40 MLOAD DUP1 SWAP2 SUB SWAP1 REVERT JUMPDEST PUSH2 0xC88 DUP4 DUP4 DUP4 PUSH2 0x1299 JUMP JUMPDEST PUSH1 0x0 DUP1 PUSH1 0x0 DUP6 PUSH20 0xFFFFFFFFFFFFFFFFFFFFFFFFFFFFFFFFFFFFFFFF AND PUSH20 0xFFFFFFFFFFFFFFFFFFFFFFFFFFFFFFFFFFFFFFFF AND DUP2 MSTORE PUSH1 0x20 ADD SWAP1 DUP2 MSTORE PUSH1 0x20 ADD PUSH1 0x0 KECCAK256 SLOAD SWAP1 POP DUP2 DUP2 LT ISZERO PUSH2 0xD0E JUMPI PUSH1 0x40 MLOAD PUSH32 0x8C379A000000000000000000000000000000000000000000000000000000000 DUP2 MSTORE PUSH1 0x4 ADD PUSH2 0xD05 SWAP1 PUSH2 0x1771 JUMP JUMPDEST PUSH1 0x40 MLOAD DUP1 SWAP2 SUB SWAP1 REVERT JUMPDEST DUP2 DUP2 SUB PUSH1 0x0 DUP1 DUP7 PUSH20 0xFFFFFFFFFFFFFFFFFFFFFFFFFFFFFFFFFFFFFFFF AND PUSH20 0xFFFFFFFFFFFFFFFFFFFFFFFFFFFFFFFFFFFFFFFF AND DUP2 MSTORE PUSH1 0x20 ADD SWAP1 DUP2 MSTORE PUSH1 0x20 ADD PUSH1 0x0 KECCAK256 DUP2 SWAP1 SSTORE POP DUP2 PUSH1 0x0 DUP1 DUP6 PUSH20 0xFFFFFFFFFFFFFFFFFFFFFFFFFFFFFFFFFFFFFFFF AND PUSH20 0xFFFFFFFFFFFFFFFFFFFFFFFFFFFFFFFFFFFFFFFF AND DUP2 MSTORE PUSH1 0x20 ADD SWAP1 DUP2 MSTORE PUSH1 0x20 ADD PUSH1 0x0 KECCAK256 PUSH1 0x0 DUP3 DUP3 SLOAD PUSH2 0xDA1 SWAP2 SWAP1 PUSH2 0x18C3 JUMP JUMPDEST SWAP3 POP POP DUP2 SWAP1 SSTORE POP DUP3 PUSH20 0xFFFFFFFFFFFFFFFFFFFFFFFFFFFFFFFFFFFFFFFF AND DUP5 PUSH20 0xFFFFFFFFFFFFFFFFFFFFFFFFFFFFFFFFFFFFFFFF AND PUSH32 0xDDF252AD1BE2C89B69C2B068FC378DAA952BA7F163C4A11628F55A4DF523B3EF DUP5 PUSH1 0x40 MLOAD PUSH2 0xE05 SWAP2 SWAP1 PUSH2 0x1871 JUMP JUMPDEST PUSH1 0x40 MLOAD DUP1 SWAP2 SUB SWAP1 LOG3 PUSH2 0xE18 DUP5 DUP5 DUP5 PUSH2 0x129E JUMP JUMPDEST POP POP POP POP JUMP JUMPDEST PUSH2 0xE26 PUSH2 0x93E JUMP JUMPDEST PUSH20 0xFFFFFFFFFFFFFFFFFFFFFFFFFFFFFFFFFFFFFFFF AND PUSH2 0xE44 PUSH2 0x67F JUMP JUMPDEST PUSH20 0xFFFFFFFFFFFFFFFFFFFFFFFFFFFFFFFFFFFFFFFF AND EQ PUSH2 0xE9A JUMPI PUSH1 0x40 MLOAD PUSH32 0x8C379A000000000000000000000000000000000000000000000000000000000 DUP2 MSTORE PUSH1 0x4 ADD PUSH2 0xE91 SWAP1 PUSH2 0x17B1 JUMP JUMPDEST PUSH1 0x40 MLOAD DUP1 SWAP2 SUB SWAP1 REVERT JUMPDEST JUMP JUMPDEST PUSH1 0x0 PUSH20 0xFFFFFFFFFFFFFFFFFFFFFFFFFFFFFFFFFFFFFFFF AND DUP3 PUSH20 0xFFFFFFFFFFFFFFFFFFFFFFFFFFFFFFFFFFFFFFFF AND EQ ISZERO PUSH2 0xF0C JUMPI PUSH1 0x40 MLOAD PUSH32 0x8C379A000000000000000000000000000000000000000000000000000000000 DUP2 MSTORE PUSH1 0x4 ADD PUSH2 0xF03 SWAP1 PUSH2 0x1851 JUMP JUMPDEST PUSH1 0x40 MLOAD DUP1 SWAP2 SUB SWAP1 REVERT JUMPDEST PUSH2 0xF18 PUSH1 0x0 DUP4 DUP4 PUSH2 0x1299 JUMP JUMPDEST DUP1 PUSH1 0x2 PUSH1 0x0 DUP3 DUP3 SLOAD PUSH2 0xF2A SWAP2 SWAP1 PUSH2 0x18C3 JUMP JUMPDEST SWAP3 POP POP DUP2 SWAP1 SSTORE POP DUP1 PUSH1 0x0 DUP1 DUP5 PUSH20 0xFFFFFFFFFFFFFFFFFFFFFFFFFFFFFFFFFFFFFFFF AND PUSH20 0xFFFFFFFFFFFFFFFFFFFFFFFFFFFFFFFFFFFFFFFF AND DUP2 MSTORE PUSH1 0x20 ADD SWAP1 DUP2 MSTORE PUSH1 0x20 ADD PUSH1 0x0 KECCAK256 PUSH1 0x0 DUP3 DUP3 SLOAD PUSH2 0xF7F SWAP2 SWAP1 PUSH2 0x18C3 JUMP JUMPDEST SWAP3 POP POP DUP2 SWAP1 SSTORE POP DUP2 PUSH20 0xFFFFFFFFFFFFFFFFFFFFFFFFFFFFFFFFFFFFFFFF AND PUSH1 0x0 PUSH20 0xFFFFFFFFFFFFFFFFFFFFFFFFFFFFFFFFFFFFFFFF AND PUSH32 0xDDF252AD1BE2C89B69C2B068FC378DAA952BA7F163C4A11628F55A4DF523B3EF DUP4 PUSH1 0x40 MLOAD PUSH2 0xFE4 SWAP2 SWAP1 PUSH2 0x1871 JUMP JUMPDEST PUSH1 0x40 MLOAD DUP1 SWAP2 SUB SWAP1 LOG3 PUSH2 0xFF8 PUSH1 0x0 DUP4 DUP4 PUSH2 0x129E JUMP JUMPDEST POP POP JUMP JUMPDEST PUSH1 0x0 PUSH20 0xFFFFFFFFFFFFFFFFFFFFFFFFFFFFFFFFFFFFFFFF AND DUP3 PUSH20 0xFFFFFFFFFFFFFFFFFFFFFFFFFFFFFFFFFFFFFFFF AND EQ ISZERO PUSH2 0x106C JUMPI PUSH1 0x40 MLOAD PUSH32 0x8C379A000000000000000000000000000000000000000000000000000000000 DUP2 MSTORE PUSH1 0x4 ADD PUSH2 0x1063 SWAP1 PUSH2 0x17D1 JUMP JUMPDEST PUSH1 0x40 MLOAD DUP1 SWAP2 SUB SWAP1 REVERT JUMPDEST PUSH2 0x1078 DUP3 PUSH1 0x0 DUP4 PUSH2 0x1299 JUMP JUMPDEST PUSH1 0x0 DUP1 PUSH1 0x0 DUP5 PUSH20 0xFFFFFFFFFFFFFFFFFFFFFFFFFFFFFFFFFFFFFFFF AND PUSH20 0xFFFFFFFFFFFFFFFFFFFFFFFFFFFFFFFFFFFFFFFF AND DUP2 MSTORE PUSH1 0x20 ADD SWAP1 DUP2 MSTORE PUSH1 0x20 ADD PUSH1 0x0 KECCAK256 SLOAD SWAP1 POP DUP2 DUP2 LT ISZERO PUSH2 0x10FE JUMPI PUSH1 0x40 MLOAD PUSH32 0x8C379A000000000000000000000000000000000000000000000000000000000 DUP2 MSTORE PUSH1 0x4 ADD PUSH2 0x10F5 SWAP1 PUSH2 0x16D1 JUMP JUMPDEST PUSH1 0x40 MLOAD DUP1 SWAP2 SUB SWAP1 REVERT JUMPDEST DUP2 DUP2 SUB PUSH1 0x0 DUP1 DUP6 PUSH20 0xFFFFFFFFFFFFFFFFFFFFFFFFFFFFFFFFFFFFFFFF AND PUSH20 0xFFFFFFFFFFFFFFFFFFFFFFFFFFFFFFFFFFFFFFFF AND DUP2 MSTORE PUSH1 0x20 ADD SWAP1 DUP2 MSTORE PUSH1 0x20 ADD PUSH1 0x0 KECCAK256 DUP2 SWAP1 SSTORE POP DUP2 PUSH1 0x2 PUSH1 0x0 DUP3 DUP3 SLOAD PUSH2 0x1155 SWAP2 SWAP1 PUSH2 0x1AE4 JUMP JUMPDEST SWAP3 POP POP DUP2 SWAP1 SSTORE POP PUSH1 0x0 PUSH20 0xFFFFFFFFFFFFFFFFFFFFFFFFFFFFFFFFFFFFFFFF AND DUP4 PUSH20 0xFFFFFFFFFFFFFFFFFFFFFFFFFFFFFFFFFFFFFFFF AND PUSH32 0xDDF252AD1BE2C89B69C2B068FC378DAA952BA7F163C4A11628F55A4DF523B3EF DUP5 PUSH1 0x40 MLOAD PUSH2 0x11BA SWAP2 SWAP1 PUSH2 0x1871 JUMP JUMPDEST PUSH1 0x40 MLOAD DUP1 SWAP2 SUB SWAP1 LOG3 PUSH2 0x11CE DUP4 PUSH1 0x0 DUP5 PUSH2 0x129E JUMP JUMPDEST POP POP POP JUMP JUMPDEST PUSH1 0x0 PUSH1 0x5 PUSH1 0x0 SWAP1 SLOAD SWAP1 PUSH2 0x100 EXP SWAP1 DIV PUSH20 0xFFFFFFFFFFFFFFFFFFFFFFFFFFFFFFFFFFFFFFFF AND SWAP1 POP DUP2 PUSH1 0x5 PUSH1 0x0 PUSH2 0x100 EXP DUP2 SLOAD DUP2 PUSH20 0xFFFFFFFFFFFFFFFFFFFFFFFFFFFFFFFFFFFFFFFF MUL NOT AND SWAP1 DUP4 PUSH20 0xFFFFFFFFFFFFFFFFFFFFFFFFFFFFFFFFFFFFFFFF AND MUL OR SWAP1 SSTORE POP DUP2 PUSH20 0xFFFFFFFFFFFFFFFFFFFFFFFFFFFFFFFFFFFFFFFF AND DUP2 PUSH20 0xFFFFFFFFFFFFFFFFFFFFFFFFFFFFFFFFFFFFFFFF AND PUSH32 0x8BE0079C531659141344CD1FD0A4F28419497F9722A3DAAFE3B4186F6B6457E0 PUSH1 0x40 MLOAD PUSH1 0x40 MLOAD DUP1 SWAP2 SUB SWAP1 LOG3 POP POP JUMP JUMPDEST POP POP POP JUMP JUMPDEST POP POP POP JUMP JUMPDEST PUSH1 0x0 DUP2 CALLDATALOAD SWAP1 POP PUSH2 0x12B2 DUP2 PUSH2 0x1FE7 JUMP JUMPDEST SWAP3 SWAP2 POP POP JUMP JUMPDEST PUSH1 0x0 DUP2 CALLDATALOAD SWAP1 POP PUSH2 0x12C7 DUP2 PUSH2 0x1FFE JUMP JUMPDEST SWAP3 SWAP2 POP POP JUMP JUMPDEST PUSH1 0x0 PUSH1 0x20 DUP3 DUP5 SUB SLT ISZERO PUSH2 0x12E3 JUMPI PUSH2 0x12E2 PUSH2 0x1C30 JUMP JUMPDEST JUMPDEST PUSH1 0x0 PUSH2 0x12F1 DUP5 DUP3 DUP6 ADD PUSH2 0x12A3 JUMP JUMPDEST SWAP2 POP POP SWAP3 SWAP2 POP POP JUMP JUMPDEST PUSH1 0x0 DUP1 PUSH1 0x40 DUP4 DUP6 SUB SLT ISZERO PUSH2 0x1311 JUMPI PUSH2 0x1310 PUSH2 0x1C30 JUMP JUMPDEST JUMPDEST PUSH1 0x0 PUSH2 0x131F DUP6 DUP3 DUP7 ADD PUSH2 0x12A3 JUMP JUMPDEST SWAP3 POP POP PUSH1 0x20 PUSH2 0x1330 DUP6 DUP3 DUP7 ADD PUSH2 0x12A3 JUMP JUMPDEST SWAP2 POP POP SWAP3 POP SWAP3 SWAP1 POP JUMP JUMPDEST PUSH1 0x0 DUP1 PUSH1 0x0 PUSH1 0x60 DUP5 DUP7 SUB SLT ISZERO PUSH2 0x1353 JUMPI PUSH2 0x1352 PUSH2 0x1C30 JUMP JUMPDEST JUMPDEST PUSH1 0x0 PUSH2 0x1361 DUP7 DUP3 DUP8 ADD PUSH2 0x12A3 JUMP JUMPDEST SWAP4 POP POP PUSH1 0x20 PUSH2 0x1372 DUP7 DUP3 DUP8 ADD PUSH2 0x12A3 JUMP JUMPDEST SWAP3 POP POP PUSH1 0x40 PUSH2 0x1383 DUP7 DUP3 DUP8 ADD PUSH2 0x12B8 JUMP JUMPDEST SWAP2 POP POP SWAP3 POP SWAP3 POP SWAP3 JUMP JUMPDEST PUSH1 0x0 DUP1 PUSH1 0x40 DUP4 DUP6 SUB SLT ISZERO PUSH2 0x13A4 JUMPI PUSH2 0x13A3 PUSH2 0x1C30 JUMP JUMPDEST JUMPDEST PUSH1 0x0 PUSH2 0x13B2 DUP6 DUP3 DUP7 ADD PUSH2 0x12A3 JUMP JUMPDEST SWAP3 POP POP PUSH1 0x20 PUSH2 0x13C3 DUP6 DUP3 DUP7 ADD PUSH2 0x12B8 JUMP JUMPDEST SWAP2 POP POP SWAP3 POP SWAP3 SWAP1 POP JUMP JUMPDEST PUSH1 0x0 PUSH1 0x20 DUP3 DUP5 SUB SLT ISZERO PUSH2 0x13E3 JUMPI PUSH2 0x13E2 PUSH2 0x1C30 JUMP JUMPDEST JUMPDEST PUSH1 0x0 PUSH2 0x13F1 DUP5 DUP3 DUP6 ADD PUSH2 0x12B8 JUMP JUMPDEST SWAP2 POP POP SWAP3 SWAP2 POP POP JUMP JUMPDEST PUSH2 0x1403 DUP2 PUSH2 0x1B18 JUMP JUMPDEST DUP3 MSTORE POP POP JUMP JUMPDEST PUSH2 0x1412 DUP2 PUSH2 0x1B2A JUMP JUMPDEST DUP3 MSTORE POP POP JUMP JUMPDEST PUSH1 0x0 PUSH2 0x1423 DUP3 PUSH2 0x18A7 JUMP JUMPDEST PUSH2 0x142D DUP2 DUP6 PUSH2 0x18B2 JUMP JUMPDEST SWAP4 POP PUSH2 0x143D DUP2 DUP6 PUSH1 0x20 DUP7 ADD PUSH2 0x1B6D JUMP JUMPDEST PUSH2 0x1446 DUP2 PUSH2 0x1C35 JUMP JUMPDEST DUP5 ADD SWAP2 POP POP SWAP3 SWAP2 POP POP JUMP JUMPDEST PUSH1 0x0 PUSH2 0x145E PUSH1 0x23 DUP4 PUSH2 0x18B2 JUMP JUMPDEST SWAP2 POP PUSH2 0x1469 DUP3 PUSH2 0x1C53 JUMP JUMPDEST PUSH1 0x40 DUP3 ADD SWAP1 POP SWAP2 SWAP1 POP JUMP JUMPDEST PUSH1 0x0 PUSH2 0x1481 PUSH1 0x22 DUP4 PUSH2 0x18B2 JUMP JUMPDEST SWAP2 POP PUSH2 0x148C DUP3 PUSH2 0x1CA2 JUMP JUMPDEST PUSH1 0x40 DUP3 ADD SWAP1 POP SWAP2 SWAP1 POP JUMP JUMPDEST PUSH1 0x0 PUSH2 0x14A4 PUSH1 0x26 DUP4 PUSH2 0x18B2 JUMP JUMPDEST SWAP2 POP PUSH2 0x14AF DUP3 PUSH2 0x1CF1 JUMP JUMPDEST PUSH1 0x40 DUP3 ADD SWAP1 POP SWAP2 SWAP1 POP JUMP JUMPDEST PUSH1 0x0 PUSH2 0x14C7 PUSH1 0x22 DUP4 PUSH2 0x18B2 JUMP JUMPDEST SWAP2 POP PUSH2 0x14D2 DUP3 PUSH2 0x1D40 JUMP JUMPDEST PUSH1 0x40 DUP3 ADD SWAP1 POP SWAP2 SWAP1 POP JUMP JUMPDEST PUSH1 0x0 PUSH2 0x14EA PUSH1 0x1B DUP4 PUSH2 0x18B2 JUMP JUMPDEST SWAP2 POP PUSH2 0x14F5 DUP3 PUSH2 0x1D8F JUMP JUMPDEST PUSH1 0x20 DUP3 ADD SWAP1 POP SWAP2 SWAP1 POP JUMP JUMPDEST PUSH1 0x0 PUSH2 0x150D PUSH1 0x1D DUP4 PUSH2 0x18B2 JUMP JUMPDEST SWAP2 POP PUSH2 0x1518 DUP3 PUSH2 0x1DB8 JUMP JUMPDEST PUSH1 0x20 DUP3 ADD SWAP1 POP SWAP2 SWAP1 POP JUMP JUMPDEST PUSH1 0x0 PUSH2 0x1530 PUSH1 0x26 DUP4 PUSH2 0x18B2 JUMP JUMPDEST SWAP2 POP PUSH2 0x153B DUP3 PUSH2 0x1DE1 JUMP JUMPDEST PUSH1 0x40 DUP3 ADD SWAP1 POP SWAP2 SWAP1 POP JUMP JUMPDEST PUSH1 0x0 PUSH2 0x1553 PUSH1 0x16 DUP4 PUSH2 0x18B2 JUMP JUMPDEST SWAP2 POP PUSH2 0x155E DUP3 PUSH2 0x1E30 JUMP JUMPDEST PUSH1 0x20 DUP3 ADD SWAP1 POP SWAP2 SWAP1 POP JUMP JUMPDEST PUSH1 0x0 PUSH2 0x1576 PUSH1 0x20 DUP4 PUSH2 0x18B2 JUMP JUMPDEST SWAP2 POP PUSH2 0x1581 DUP3 PUSH2 0x1E59 JUMP JUMPDEST PUSH1 0x20 DUP3 ADD SWAP1 POP SWAP2 SWAP1 POP JUMP JUMPDEST PUSH1 0x0 PUSH2 0x1599 PUSH1 0x21 DUP4 PUSH2 0x18B2 JUMP JUMPDEST SWAP2 POP PUSH2 0x15A4 DUP3 PUSH2 0x1E82 JUMP JUMPDEST PUSH1 0x40 DUP3 ADD SWAP1 POP SWAP2 SWAP1 POP JUMP JUMPDEST PUSH1 0x0 PUSH2 0x15BC PUSH1 0x25 DUP4 PUSH2 0x18B2 JUMP JUMPDEST SWAP2 POP PUSH2 0x15C7 DUP3 PUSH2 0x1ED1 JUMP JUMPDEST PUSH1 0x40 DUP3 ADD SWAP1 POP SWAP2 SWAP1 POP JUMP JUMPDEST PUSH1 0x0 PUSH2 0x15DF PUSH1 0x24 DUP4 PUSH2 0x18B2 JUMP JUMPDEST SWAP2 POP PUSH2 0x15EA DUP3 PUSH2 0x1F20 JUMP JUMPDEST PUSH1 0x40 DUP3 ADD SWAP1 POP SWAP2 SWAP1 POP JUMP JUMPDEST PUSH1 0x0 PUSH2 0x1602 PUSH1 0x25 DUP4 PUSH2 0x18B2 JUMP JUMPDEST SWAP2 POP PUSH2 0x160D DUP3 PUSH2 0x1F6F JUMP JUMPDEST PUSH1 0x40 DUP3 ADD SWAP1 POP SWAP2 SWAP1 POP JUMP JUMPDEST PUSH1 0x0 PUSH2 0x1625 PUSH1 0x1F DUP4 PUSH2 0x18B2 JUMP JUMPDEST SWAP2 POP PUSH2 0x1630 DUP3 PUSH2 0x1FBE JUMP JUMPDEST PUSH1 0x20 DUP3 ADD SWAP1 POP SWAP2 SWAP1 POP JUMP JUMPDEST PUSH2 0x1644 DUP2 PUSH2 0x1B56 JUMP JUMPDEST DUP3 MSTORE POP POP JUMP JUMPDEST PUSH2 0x1653 DUP2 PUSH2 0x1B60 JUMP JUMPDEST DUP3 MSTORE POP POP JUMP JUMPDEST PUSH1 0x0 PUSH1 0x20 DUP3 ADD SWAP1 POP PUSH2 0x166E PUSH1 0x0 DUP4 ADD DUP5 PUSH2 0x13FA JUMP JUMPDEST SWAP3 SWAP2 POP POP JUMP JUMPDEST PUSH1 0x0 PUSH1 0x20 DUP3 ADD SWAP1 POP PUSH2 0x1689 PUSH1 0x0 DUP4 ADD DUP5 PUSH2 0x1409 JUMP JUMPDEST SWAP3 SWAP2 POP POP JUMP JUMPDEST PUSH1 0x0 PUSH1 0x20 DUP3 ADD SWAP1 POP DUP2 DUP2 SUB PUSH1 0x0 DUP4 ADD MSTORE PUSH2 0x16A9 DUP2 DUP5 PUSH2 0x1418 JUMP JUMPDEST SWAP1 POP SWAP3 SWAP2 POP POP JUMP JUMPDEST PUSH1 0x0 PUSH1 0x20 DUP3 ADD SWAP1 POP DUP2 DUP2 SUB PUSH1 0x0 DUP4 ADD MSTORE PUSH2 0x16CA DUP2 PUSH2 0x1451 JUMP JUMPDEST SWAP1 POP SWAP2 SWAP1 POP JUMP JUMPDEST PUSH1 0x0 PUSH1 0x20 DUP3 ADD SWAP1 POP DUP2 DUP2 SUB PUSH1 0x0 DUP4 ADD MSTORE PUSH2 0x16EA DUP2 PUSH2 0x1474 JUMP JUMPDEST SWAP1 POP SWAP2 SWAP1 POP JUMP JUMPDEST PUSH1 0x0 PUSH1 0x20 DUP3 ADD SWAP1 POP DUP2 DUP2 SUB PUSH1 0x0 DUP4 ADD MSTORE PUSH2 0x170A DUP2 PUSH2 0x1497 JUMP JUMPDEST SWAP1 POP SWAP2 SWAP1 POP JUMP JUMPDEST PUSH1 0x0 PUSH1 0x20 DUP3 ADD SWAP1 POP DUP2 DUP2 SUB PUSH1 0x0 DUP4 ADD MSTORE PUSH2 0x172A DUP2 PUSH2 0x14BA JUMP JUMPDEST SWAP1 POP SWAP2 SWAP1 POP JUMP JUMPDEST PUSH1 0x0 PUSH1 0x20 DUP3 ADD SWAP1 POP DUP2 DUP2 SUB PUSH1 0x0 DUP4 ADD MSTORE PUSH2 0x174A DUP2 PUSH2 0x14DD JUMP JUMPDEST SWAP1 POP SWAP2 SWAP1 POP JUMP JUMPDEST PUSH1 0x0 PUSH1 0x20 DUP3 ADD SWAP1 POP DUP2 DUP2 SUB PUSH1 0x0 DUP4 ADD MSTORE PUSH2 0x176A DUP2 PUSH2 0x1500 JUMP JUMPDEST SWAP1 POP SWAP2 SWAP1 POP JUMP JUMPDEST PUSH1 0x0 PUSH1 0x20 DUP3 ADD SWAP1 POP DUP2 DUP2 SUB PUSH1 0x0 DUP4 ADD MSTORE PUSH2 0x178A DUP2 PUSH2 0x1523 JUMP JUMPDEST SWAP1 POP SWAP2 SWAP1 POP JUMP JUMPDEST PUSH1 0x0 PUSH1 0x20 DUP3 ADD SWAP1 POP DUP2 DUP2 SUB PUSH1 0x0 DUP4 ADD MSTORE PUSH2 0x17AA DUP2 PUSH2 0x1546 JUMP JUMPDEST SWAP1 POP SWAP2 SWAP1 POP JUMP JUMPDEST PUSH1 0x0 PUSH1 0x20 DUP3 ADD SWAP1 POP DUP2 DUP2 SUB PUSH1 0x0 DUP4 ADD MSTORE PUSH2 0x17CA DUP2 PUSH2 0x1569 JUMP JUMPDEST SWAP1 POP SWAP2 SWAP1 POP JUMP JUMPDEST PUSH1 0x0 PUSH1 0x20 DUP3 ADD SWAP1 POP DUP2 DUP2 SUB PUSH1 0x0 DUP4 ADD MSTORE PUSH2 0x17EA DUP2 PUSH2 0x158C JUMP JUMPDEST SWAP1 POP SWAP2 SWAP1 POP JUMP JUMPDEST PUSH1 0x0 PUSH1 0x20 DUP3 ADD SWAP1 POP DUP2 DUP2 SUB PUSH1 0x0 DUP4 ADD MSTORE PUSH2 0x180A DUP2 PUSH2 0x15AF JUMP JUMPDEST SWAP1 POP SWAP2 SWAP1 POP JUMP JUMPDEST PUSH1 0x0 PUSH1 0x20 DUP3 ADD SWAP1 POP DUP2 DUP2 SUB PUSH1 0x0 DUP4 ADD MSTORE PUSH2 0x182A DUP2 PUSH2 0x15D2 JUMP JUMPDEST SWAP1 POP SWAP2 SWAP1 POP JUMP JUMPDEST PUSH1 0x0 PUSH1 0x20 DUP3 ADD SWAP1 POP DUP2 DUP2 SUB PUSH1 0x0 DUP4 ADD MSTORE PUSH2 0x184A DUP2 PUSH2 0x15F5 JUMP JUMPDEST SWAP1 POP SWAP2 SWAP1 POP JUMP JUMPDEST PUSH1 0x0 PUSH1 0x20 DUP3 ADD SWAP1 POP DUP2 DUP2 SUB PUSH1 0x0 DUP4 ADD MSTORE PUSH2 0x186A DUP2 PUSH2 0x1618 JUMP JUMPDEST SWAP1 POP SWAP2 SWAP1 POP JUMP JUMPDEST PUSH1 0x0 PUSH1 0x20 DUP3 ADD SWAP1 POP PUSH2 0x1886 PUSH1 0x0 DUP4 ADD DUP5 PUSH2 0x163B JUMP JUMPDEST SWAP3 SWAP2 POP POP JUMP JUMPDEST PUSH1 0x0 PUSH1 0x20 DUP3 ADD SWAP1 POP PUSH2 0x18A1 PUSH1 0x0 DUP4 ADD DUP5 PUSH2 0x164A JUMP JUMPDEST SWAP3 SWAP2 POP POP JUMP JUMPDEST PUSH1 0x0 DUP2 MLOAD SWAP1 POP SWAP2 SWAP1 POP JUMP JUMPDEST PUSH1 0x0 DUP3 DUP3 MSTORE PUSH1 0x20 DUP3 ADD SWAP1 POP SWAP3 SWAP2 POP POP JUMP JUMPDEST PUSH1 0x0 PUSH2 0x18CE DUP3 PUSH2 0x1B56 JUMP JUMPDEST SWAP2 POP PUSH2 0x18D9 DUP4 PUSH2 0x1B56 JUMP JUMPDEST SWAP3 POP DUP3 PUSH32 0xFFFFFFFFFFFFFFFFFFFFFFFFFFFFFFFFFFFFFFFFFFFFFFFFFFFFFFFFFFFFFFFF SUB DUP3 GT ISZERO PUSH2 0x190E JUMPI PUSH2 0x190D PUSH2 0x1BD2 JUMP JUMPDEST JUMPDEST DUP3 DUP3 ADD SWAP1 POP SWAP3 SWAP2 POP POP JUMP JUMPDEST PUSH1 0x0 DUP1 DUP3 SWAP2 POP DUP4 SWAP1 POP JUMPDEST PUSH1 0x1 DUP6 GT ISZERO PUSH2 0x1963 JUMPI DUP1 DUP7 DIV DUP2 GT ISZERO PUSH2 0x193F JUMPI PUSH2 0x193E PUSH2 0x1BD2 JUMP JUMPDEST JUMPDEST PUSH1 0x1 DUP6 AND ISZERO PUSH2 0x194E JUMPI DUP1 DUP3 MUL SWAP2 POP JUMPDEST DUP1 DUP2 MUL SWAP1 POP PUSH2 0x195C DUP6 PUSH2 0x1C46 JUMP JUMPDEST SWAP5 POP PUSH2 0x1923 JUMP JUMPDEST SWAP5 POP SWAP5 SWAP3 POP POP POP JUMP JUMPDEST PUSH1 0x0 PUSH2 0x1977 DUP3 PUSH2 0x1B56 JUMP JUMPDEST SWAP2 POP PUSH2 0x1982 DUP4 PUSH2 0x1B56 JUMP JUMPDEST SWAP3 POP PUSH2 0x19AF PUSH32 0xFFFFFFFFFFFFFFFFFFFFFFFFFFFFFFFFFFFFFFFFFFFFFFFFFFFFFFFFFFFFFFFF DUP5 DUP5 PUSH2 0x19B7 JUMP JUMPDEST SWAP1 POP SWAP3 SWAP2 POP POP JUMP JUMPDEST PUSH1 0x0 DUP3 PUSH2 0x19C7 JUMPI PUSH1 0x1 SWAP1 POP PUSH2 0x1A83 JUMP JUMPDEST DUP2 PUSH2 0x19D5 JUMPI PUSH1 0x0 SWAP1 POP PUSH2 0x1A83 JUMP JUMPDEST DUP2 PUSH1 0x1 DUP2 EQ PUSH2 0x19EB JUMPI PUSH1 0x2 DUP2 EQ PUSH2 0x19F5 JUMPI PUSH2 0x1A24 JUMP JUMPDEST PUSH1 0x1 SWAP2 POP POP PUSH2 0x1A83 JUMP JUMPDEST PUSH1 0xFF DUP5 GT ISZERO PUSH2 0x1A07 JUMPI PUSH2 0x1A06 PUSH2 0x1BD2 JUMP JUMPDEST JUMPDEST DUP4 PUSH1 0x2 EXP SWAP2 POP DUP5 DUP3 GT ISZERO PUSH2 0x1A1E JUMPI PUSH2 0x1A1D PUSH2 0x1BD2 JUMP JUMPDEST JUMPDEST POP PUSH2 0x1A83 JUMP JUMPDEST POP PUSH1 0x20 DUP4 LT PUSH2 0x133 DUP4 LT AND PUSH1 0x4E DUP5 LT PUSH1 0xB DUP5 LT AND OR ISZERO PUSH2 0x1A59 JUMPI DUP3 DUP3 EXP SWAP1 POP DUP4 DUP2 GT ISZERO PUSH2 0x1A54 JUMPI PUSH2 0x1A53 PUSH2 0x1BD2 JUMP JUMPDEST JUMPDEST PUSH2 0x1A83 JUMP JUMPDEST PUSH2 0x1A66 DUP5 DUP5 DUP5 PUSH1 0x1 PUSH2 0x1919 JUMP JUMPDEST SWAP3 POP SWAP1 POP DUP2 DUP5 DIV DUP2 GT ISZERO PUSH2 0x1A7D JUMPI PUSH2 0x1A7C PUSH2 0x1BD2 JUMP JUMPDEST JUMPDEST DUP2 DUP2 MUL SWAP1 POP JUMPDEST SWAP4 SWAP3 POP POP POP JUMP JUMPDEST PUSH1 0x0 PUSH2 0x1A95 DUP3 PUSH2 0x1B56 JUMP JUMPDEST SWAP2 POP PUSH2 0x1AA0 DUP4 PUSH2 0x1B56 JUMP JUMPDEST SWAP3 POP DUP2 PUSH32 0xFFFFFFFFFFFFFFFFFFFFFFFFFFFFFFFFFFFFFFFFFFFFFFFFFFFFFFFFFFFFFFFF DIV DUP4 GT DUP3 ISZERO ISZERO AND ISZERO PUSH2 0x1AD9 JUMPI PUSH2 0x1AD8 PUSH2 0x1BD2 JUMP JUMPDEST JUMPDEST DUP3 DUP3 MUL SWAP1 POP SWAP3 SWAP2 POP POP JUMP JUMPDEST PUSH1 0x0 PUSH2 0x1AEF DUP3 PUSH2 0x1B56 JUMP JUMPDEST SWAP2 POP PUSH2 0x1AFA DUP4 PUSH2 0x1B56 JUMP JUMPDEST SWAP3 POP DUP3 DUP3 LT ISZERO PUSH2 0x1B0D JUMPI PUSH2 0x1B0C PUSH2 0x1BD2 JUMP JUMPDEST JUMPDEST DUP3 DUP3 SUB SWAP1 POP SWAP3 SWAP2 POP POP JUMP JUMPDEST PUSH1 0x0 PUSH2 0x1B23 DUP3 PUSH2 0x1B36 JUMP JUMPDEST SWAP1 POP SWAP2 SWAP1 POP JUMP JUMPDEST PUSH1 0x0 DUP2 ISZERO ISZERO SWAP1 POP SWAP2 SWAP1 POP JUMP JUMPDEST PUSH1 0x0 PUSH20 0xFFFFFFFFFFFFFFFFFFFFFFFFFFFFFFFFFFFFFFFF DUP3 AND SWAP1 POP SWAP2 SWAP1 POP JUMP JUMPDEST PUSH1 0x0 DUP2 SWAP1 POP SWAP2 SWAP1 POP JUMP JUMPDEST PUSH1 0x0 PUSH1 0xFF DUP3 AND SWAP1 POP SWAP2 SWAP1 POP JUMP JUMPDEST PUSH1 0x0 JUMPDEST DUP4 DUP2 LT ISZERO PUSH2 0x1B8B JUMPI DUP1 DUP3 ADD MLOAD DUP2 DUP5 ADD MSTORE PUSH1 0x20 DUP2 ADD SWAP1 POP PUSH2 0x1B70 JUMP JUMPDEST DUP4 DUP2 GT ISZERO PUSH2 0x1B9A JUMPI PUSH1 0x0 DUP5 DUP5 ADD MSTORE JUMPDEST POP POP POP POP JUMP JUMPDEST PUSH1 0x0 PUSH1 0x2 DUP3 DIV SWAP1 POP PUSH1 0x1 DUP3 AND DUP1 PUSH2 0x1BB8 JUMPI PUSH1 0x7F DUP3 AND SWAP2 POP JUMPDEST PUSH1 0x20 DUP3 LT DUP2 EQ ISZERO PUSH2 0x1BCC JUMPI PUSH2 0x1BCB PUSH2 0x1C01 JUMP JUMPDEST JUMPDEST POP SWAP2 SWAP1 POP JUMP JUMPDEST PUSH32 0x4E487B7100000000000000000000000000000000000000000000000000000000 PUSH1 0x0 MSTORE PUSH1 0x11 PUSH1 0x4 MSTORE PUSH1 0x24 PUSH1 0x0 REVERT JUMPDEST PUSH32 0x4E487B7100000000000000000000000000000000000000000000000000000000 PUSH1 0x0 MSTORE PUSH1 0x22 PUSH1 0x4 MSTORE PUSH1 0x24 PUSH1 0x0 REVERT JUMPDEST PUSH1 0x0 DUP1 REVERT JUMPDEST PUSH1 0x0 PUSH1 0x1F NOT PUSH1 0x1F DUP4 ADD AND SWAP1 POP SWAP2 SWAP1 POP JUMP JUMPDEST PUSH1 0x0 DUP2 PUSH1 0x1 SHR SWAP1 POP SWAP2 SWAP1 POP JUMP JUMPDEST PUSH32 0x45524332303A207472616E7366657220746F20746865207A65726F2061646472 PUSH1 0x0 DUP3 ADD MSTORE PUSH32 0x6573730000000000000000000000000000000000000000000000000000000000 PUSH1 0x20 DUP3 ADD MSTORE POP JUMP JUMPDEST PUSH32 0x45524332303A206275726E20616D6F756E7420657863656564732062616C616E PUSH1 0x0 DUP3 ADD MSTORE PUSH32 0x6365000000000000000000000000000000000000000000000000000000000000 PUSH1 0x20 DUP3 ADD MSTORE POP JUMP JUMPDEST PUSH32 0x4F776E61626C653A206E6577206F776E657220697320746865207A65726F2061 PUSH1 0x0 DUP3 ADD MSTORE PUSH32 0x6464726573730000000000000000000000000000000000000000000000000000 PUSH1 0x20 DUP3 ADD MSTORE POP JUMP JUMPDEST PUSH32 0x45524332303A20617070726F766520746F20746865207A65726F206164647265 PUSH1 0x0 DUP3 ADD MSTORE PUSH32 0x7373000000000000000000000000000000000000000000000000000000000000 PUSH1 0x20 DUP3 ADD MSTORE POP JUMP JUMPDEST PUSH32 0x536166654D6174683A206164646974696F6E206F766572666C6F770000000000 PUSH1 0x0 DUP3 ADD MSTORE POP JUMP JUMPDEST PUSH32 0x45524332303A20696E73756666696369656E7420616C6C6F77616E6365000000 PUSH1 0x0 DUP3 ADD MSTORE POP JUMP JUMPDEST PUSH32 0x45524332303A207472616E7366657220616D6F756E7420657863656564732062 PUSH1 0x0 DUP3 ADD MSTORE PUSH32 0x616C616E63650000000000000000000000000000000000000000000000000000 PUSH1 0x20 DUP3 ADD MSTORE POP JUMP JUMPDEST PUSH32 0x4D6178696D756D20737570706C79207265616368656400000000000000000000 PUSH1 0x0 DUP3 ADD MSTORE POP JUMP JUMPDEST PUSH32 0x4F776E61626C653A2063616C6C6572206973206E6F7420746865206F776E6572 PUSH1 0x0 DUP3 ADD MSTORE POP JUMP JUMPDEST PUSH32 0x45524332303A206275726E2066726F6D20746865207A65726F20616464726573 PUSH1 0x0 DUP3 ADD MSTORE PUSH32 0x7300000000000000000000000000000000000000000000000000000000000000 PUSH1 0x20 DUP3 ADD MSTORE POP JUMP JUMPDEST PUSH32 0x45524332303A207472616E736665722066726F6D20746865207A65726F206164 PUSH1 0x0 DUP3 ADD MSTORE PUSH32 0x6472657373000000000000000000000000000000000000000000000000000000 PUSH1 0x20 DUP3 ADD MSTORE POP JUMP JUMPDEST PUSH32 0x45524332303A20617070726F76652066726F6D20746865207A65726F20616464 PUSH1 0x0 DUP3 ADD MSTORE PUSH32 0x7265737300000000000000000000000000000000000000000000000000000000 PUSH1 0x20 DUP3 ADD MSTORE POP JUMP JUMPDEST PUSH32 0x45524332303A2064656372656173656420616C6C6F77616E63652062656C6F77 PUSH1 0x0 DUP3 ADD MSTORE PUSH32 0x207A65726F000000000000000000000000000000000000000000000000000000 PUSH1 0x20 DUP3 ADD MSTORE POP JUMP JUMPDEST PUSH32 0x45524332303A206D696E7420746F20746865207A65726F206164647265737300 PUSH1 0x0 DUP3 ADD MSTORE POP JUMP JUMPDEST PUSH2 0x1FF0 DUP2 PUSH2 0x1B18 JUMP JUMPDEST DUP2 EQ PUSH2 0x1FFB JUMPI PUSH1 0x0 DUP1 REVERT JUMPDEST POP JUMP JUMPDEST PUSH2 0x2007 DUP2 PUSH2 0x1B56 JUMP JUMPDEST DUP2 EQ PUSH2 0x2012 JUMPI PUSH1 0x0 DUP1 REVERT JUMPDEST POP JUMP INVALID LOG2 PUSH5 0x6970667358 0x22 SLT KECCAK256 XOR 0xDF 0xBA 0xE7 0xF7 0xC6 0x5E REVERT 0xD7 DUP4 0x4E PUSH16 0x1D979DE513D727360E49007D01F51CDE 0xCD 0xCC PUSH12 0x8264736F6C63430008070033 "
				},
				"gasEstimates": {
					"creation": {
						"codeDepositCost": "1653400",
						"executionCost": "infinite",
						"totalCost": "infinite"
					},
					"external": {
						"DECIMALS()": "358",
						"INITIAL_SUPPLY()": "infinite",
						"Maximum_SUPPLY()": "infinite",
						"allowance(address,address)": "infinite",
						"approve(address,uint256)": "infinite",
						"balanceOf(address)": "2886",
						"burn(uint256)": "infinite",
						"burnFrom(address,uint256)": "infinite",
						"decimals()": "410",
						"decreaseAllowance(address,uint256)": "infinite",
						"increaseAllowance(address,uint256)": "infinite",
						"mint(address,uint256)": "infinite",
						"name()": "infinite",
						"owner()": "2633",
						"renounceOwnership()": "30465",
						"symbol()": "infinite",
						"totalSupply()": "2505",
						"transfer(address,uint256)": "infinite",
						"transferFrom(address,address,uint256)": "infinite",
						"transferOwnership(address)": "30857"
					}
				},
				"methodIdentifiers": {
					"DECIMALS()": "2e0f2625",
					"INITIAL_SUPPLY()": "2ff2e9dc",
					"Maximum_SUPPLY()": "1b62d7af",
					"allowance(address,address)": "dd62ed3e",
					"approve(address,uint256)": "095ea7b3",
					"balanceOf(address)": "70a08231",
					"burn(uint256)": "42966c68",
					"burnFrom(address,uint256)": "79cc6790",
					"decimals()": "313ce567",
					"decreaseAllowance(address,uint256)": "a457c2d7",
					"increaseAllowance(address,uint256)": "39509351",
					"mint(address,uint256)": "40c10f19",
					"name()": "06fdde03",
					"owner()": "8da5cb5b",
					"renounceOwnership()": "715018a6",
					"symbol()": "95d89b41",
					"totalSupply()": "18160ddd",
					"transfer(address,uint256)": "a9059cbb",
					"transferFrom(address,address,uint256)": "23b872dd",
					"transferOwnership(address)": "f2fde38b"
				}
			},
			"storageLayout": {
				"storage": [
					{
						"astId": 145,
						"contract": "NFT-Contracts/contracts/market_deploy/AREVEAToken.sol:AREVEAToken",
						"label": "_balances",
						"offset": 0,
						"slot": "0",
						"type": "t_mapping(t_address,t_uint256)"
					},
					{
						"astId": 151,
						"contract": "NFT-Contracts/contracts/market_deploy/AREVEAToken.sol:AREVEAToken",
						"label": "_allowances",
						"offset": 0,
						"slot": "1",
						"type": "t_mapping(t_address,t_mapping(t_address,t_uint256))"
					},
					{
						"astId": 153,
						"contract": "NFT-Contracts/contracts/market_deploy/AREVEAToken.sol:AREVEAToken",
						"label": "_totalSupply",
						"offset": 0,
						"slot": "2",
						"type": "t_uint256"
					},
					{
						"astId": 155,
						"contract": "NFT-Contracts/contracts/market_deploy/AREVEAToken.sol:AREVEAToken",
						"label": "_name",
						"offset": 0,
						"slot": "3",
						"type": "t_string_storage"
					},
					{
						"astId": 157,
						"contract": "NFT-Contracts/contracts/market_deploy/AREVEAToken.sol:AREVEAToken",
						"label": "_symbol",
						"offset": 0,
						"slot": "4",
						"type": "t_string_storage"
					},
					{
						"astId": 826,
						"contract": "NFT-Contracts/contracts/market_deploy/AREVEAToken.sol:AREVEAToken",
						"label": "_owner",
						"offset": 0,
						"slot": "5",
						"type": "t_address"
					}
				],
				"types": {
					"t_address": {
						"encoding": "inplace",
						"label": "address",
						"numberOfBytes": "20"
					},
					"t_mapping(t_address,t_mapping(t_address,t_uint256))": {
						"encoding": "mapping",
						"key": "t_address",
						"label": "mapping(address => mapping(address => uint256))",
						"numberOfBytes": "32",
						"value": "t_mapping(t_address,t_uint256)"
					},
					"t_mapping(t_address,t_uint256)": {
						"encoding": "mapping",
						"key": "t_address",
						"label": "mapping(address => uint256)",
						"numberOfBytes": "32",
						"value": "t_uint256"
					},
					"t_string_storage": {
						"encoding": "bytes",
						"label": "string",
						"numberOfBytes": "32"
					},
					"t_uint256": {
						"encoding": "inplace",
						"label": "uint256",
						"numberOfBytes": "32"
					}
				}
			},
			"userdoc": {
				"kind": "user",
				"methods": {},
				"version": 1
			}
		}
	}
}