{
	"NFT-Contracts/contracts/market_deploy/ERC721.sol": {
		"ERC721": {
			"abi": [
				{
					"inputs": [
						{
							"internalType": "string",
							"name": "name_",
							"type": "string"
						},
						{
							"internalType": "string",
							"name": "symbol_",
							"type": "string"
						}
					],
					"stateMutability": "nonpayable",
					"type": "constructor"
				},
				{
					"anonymous": false,
					"inputs": [
						{
							"indexed": true,
							"internalType": "address",
							"name": "owner",
							"type": "address"
						},
						{
							"indexed": true,
							"internalType": "address",
							"name": "approved",
							"type": "address"
						},
						{
							"indexed": true,
							"internalType": "uint256",
							"name": "tokenId",
							"type": "uint256"
						}
					],
					"name": "Approval",
					"type": "event"
				},
				{
					"anonymous": false,
					"inputs": [
						{
							"indexed": true,
							"internalType": "address",
							"name": "owner",
							"type": "address"
						},
						{
							"indexed": true,
							"internalType": "address",
							"name": "operator",
							"type": "address"
						},
						{
							"indexed": false,
							"internalType": "bool",
							"name": "approved",
							"type": "bool"
						}
					],
					"name": "ApprovalForAll",
					"type": "event"
				},
				{
					"anonymous": false,
					"inputs": [
						{
							"indexed": true,
							"internalType": "address",
							"name": "from",
							"type": "address"
						},
						{
							"indexed": true,
							"internalType": "address",
							"name": "to",
							"type": "address"
						},
						{
							"indexed": true,
							"internalType": "uint256",
							"name": "tokenId",
							"type": "uint256"
						}
					],
					"name": "Transfer",
					"type": "event"
				},
				{
					"anonymous": false,
					"inputs": [
						{
							"indexed": false,
							"internalType": "string",
							"name": "value",
							"type": "string"
						},
						{
							"indexed": true,
							"internalType": "uint256",
							"name": "id",
							"type": "uint256"
						}
					],
					"name": "URI",
					"type": "event"
				},
				{
					"anonymous": false,
					"inputs": [
						{
							"indexed": false,
							"internalType": "string",
							"name": "value",
							"type": "string"
						}
					],
					"name": "tokenBaseURI",
					"type": "event"
				},
				{
					"inputs": [
						{
							"internalType": "address",
							"name": "to",
							"type": "address"
						},
						{
							"internalType": "uint256",
							"name": "tokenId",
							"type": "uint256"
						}
					],
					"name": "approve",
					"outputs": [],
					"stateMutability": "nonpayable",
					"type": "function"
				},
				{
					"inputs": [
						{
							"internalType": "address",
							"name": "owner",
							"type": "address"
						}
					],
					"name": "balanceOf",
					"outputs": [
						{
							"internalType": "uint256",
							"name": "",
							"type": "uint256"
						}
					],
					"stateMutability": "view",
					"type": "function"
				},
				{
					"inputs": [],
					"name": "baseURI",
					"outputs": [
						{
							"internalType": "string",
							"name": "",
							"type": "string"
						}
					],
					"stateMutability": "view",
					"type": "function"
				},
				{
					"inputs": [
						{
							"internalType": "uint256",
							"name": "tokenId",
							"type": "uint256"
						}
					],
					"name": "getApproved",
					"outputs": [
						{
							"internalType": "address",
							"name": "",
							"type": "address"
						}
					],
					"stateMutability": "view",
					"type": "function"
				},
				{
					"inputs": [
						{
							"internalType": "uint256",
							"name": "tokenId",
							"type": "uint256"
						}
					],
					"name": "getCreator",
					"outputs": [
						{
							"internalType": "address",
							"name": "",
							"type": "address"
						}
					],
					"stateMutability": "view",
					"type": "function"
				},
				{
					"inputs": [
						{
							"internalType": "address",
							"name": "owner",
							"type": "address"
						},
						{
							"internalType": "address",
							"name": "operator",
							"type": "address"
						}
					],
					"name": "isApprovedForAll",
					"outputs": [
						{
							"internalType": "bool",
							"name": "",
							"type": "bool"
						}
					],
					"stateMutability": "view",
					"type": "function"
				},
				{
					"inputs": [],
					"name": "name",
					"outputs": [
						{
							"internalType": "string",
							"name": "",
							"type": "string"
						}
					],
					"stateMutability": "view",
					"type": "function"
				},
				{
					"inputs": [
						{
							"internalType": "uint256",
							"name": "tokenId",
							"type": "uint256"
						}
					],
					"name": "ownerOf",
					"outputs": [
						{
							"internalType": "address",
							"name": "",
							"type": "address"
						}
					],
					"stateMutability": "view",
					"type": "function"
				},
				{
					"inputs": [
						{
							"internalType": "uint256",
							"name": "tokenId",
							"type": "uint256"
						}
					],
					"name": "royaltyFee",
					"outputs": [
						{
							"internalType": "uint256",
							"name": "",
							"type": "uint256"
						}
					],
					"stateMutability": "view",
					"type": "function"
				},
				{
					"inputs": [
						{
							"internalType": "address",
							"name": "from",
							"type": "address"
						},
						{
							"internalType": "address",
							"name": "to",
							"type": "address"
						},
						{
							"internalType": "uint256",
							"name": "tokenId",
							"type": "uint256"
						}
					],
					"name": "safeTransferFrom",
					"outputs": [],
					"stateMutability": "nonpayable",
					"type": "function"
				},
				{
					"inputs": [
						{
							"internalType": "address",
							"name": "from",
							"type": "address"
						},
						{
							"internalType": "address",
							"name": "to",
							"type": "address"
						},
						{
							"internalType": "uint256",
							"name": "tokenId",
							"type": "uint256"
						},
						{
							"internalType": "bytes",
							"name": "_data",
							"type": "bytes"
						}
					],
					"name": "safeTransferFrom",
					"outputs": [],
					"stateMutability": "nonpayable",
					"type": "function"
				},
				{
					"inputs": [
						{
							"internalType": "address",
							"name": "operator",
							"type": "address"
						},
						{
							"internalType": "bool",
							"name": "approved",
							"type": "bool"
						}
					],
					"name": "setApprovalForAll",
					"outputs": [],
					"stateMutability": "nonpayable",
					"type": "function"
				},
				{
					"inputs": [
						{
							"internalType": "bytes4",
							"name": "interfaceId",
							"type": "bytes4"
						}
					],
					"name": "supportsInterface",
					"outputs": [
						{
							"internalType": "bool",
							"name": "",
							"type": "bool"
						}
					],
					"stateMutability": "view",
					"type": "function"
				},
				{
					"inputs": [],
					"name": "symbol",
					"outputs": [
						{
							"internalType": "string",
							"name": "",
							"type": "string"
						}
					],
					"stateMutability": "view",
					"type": "function"
				},
				{
					"inputs": [
						{
							"internalType": "uint256",
							"name": "index",
							"type": "uint256"
						}
					],
					"name": "tokenByIndex",
					"outputs": [
						{
							"internalType": "uint256",
							"name": "",
							"type": "uint256"
						}
					],
					"stateMutability": "view",
					"type": "function"
				},
				{
					"inputs": [
						{
							"internalType": "address",
							"name": "owner",
							"type": "address"
						},
						{
							"internalType": "uint256",
							"name": "index",
							"type": "uint256"
						}
					],
					"name": "tokenOfOwnerByIndex",
					"outputs": [
						{
							"internalType": "uint256",
							"name": "",
							"type": "uint256"
						}
					],
					"stateMutability": "view",
					"type": "function"
				},
				{
					"inputs": [
						{
							"internalType": "uint256",
							"name": "tokenId",
							"type": "uint256"
						}
					],
					"name": "tokenURI",
					"outputs": [
						{
							"internalType": "string",
							"name": "",
							"type": "string"
						}
					],
					"stateMutability": "view",
					"type": "function"
				},
				{
					"inputs": [],
					"name": "totalSupply",
					"outputs": [
						{
							"internalType": "uint256",
							"name": "",
							"type": "uint256"
						}
					],
					"stateMutability": "view",
					"type": "function"
				},
				{
					"inputs": [
						{
							"internalType": "address",
							"name": "from",
							"type": "address"
						},
						{
							"internalType": "address",
							"name": "to",
							"type": "address"
						},
						{
							"internalType": "uint256",
							"name": "tokenId",
							"type": "uint256"
						}
					],
					"name": "transferFrom",
					"outputs": [],
					"stateMutability": "nonpayable",
					"type": "function"
				}
			],
			"devdoc": {
				"kind": "dev",
				"methods": {
					"balanceOf(address)": {
						"params": {
							"owner": "The address of the token holder"
						},
						"returns": {
							"_0": "The account's balance of the Token type requested"
						}
					},
					"isApprovedForAll(address,address)": {
						"params": {
							"operator": "Address of authorized operator",
							"owner": "The owner of the Tokens"
						},
						"returns": {
							"_0": "True if the operator is approved, false if not"
						}
					},
					"name()": {
						"details": "Returns the token collection name."
					},
					"ownerOf(uint256)": {
						"params": {
							"tokenId": "The tokenId of the token holder"
						},
						"returns": {
							"_0": "The current owner of the requested tokenId"
						}
					},
					"safeTransferFrom(address,address,uint256,bytes)": {
						"details": "Caller must be approved to manage the tokens being transferred out of the `_from` account (see \"Approval\" section of the standard). MUST revert if `_to` is the zero address. MUST revert if balance of holder for token `_id` is lower than the `_value` sent. MUST revert on any other error. MUST emit the `TransferSingle` event to reflect the balance change (see \"Safe Transfer Rules\" section of the standard). After the above conditions are met, this function MUST check if `_to` is a smart contract (e.g. code size > 0). If so, it MUST call `onERC721Received` on `_to` and act appropriately (see \"Safe Transfer Rules\" section of the standard).",
						"params": {
							"_data": "Additional data with no specified format, MUST be sent unaltered in call to `onERC721Received` on `_to`",
							"from": "Source address",
							"to": "Target address",
							"tokenId": "ID of the token type."
						}
					},
					"setApprovalForAll(address,bool)": {
						"details": "MUST emit the ApprovalForAll event on success.",
						"params": {
							"approved": "True if the operator is approved, false to revoke approval",
							"operator": "Address to add to the set of authorized operators"
						}
					},
					"supportsInterface(bytes4)": {
						"details": "Returns true if this contract implements the interface defined by `interfaceId`. See the corresponding https://eips.ethereum.org/EIPS/eip-165#how-interfaces-are-identified[EIP section] to learn more about how these ids are created. This function call must use less than 30 000 gas."
					},
					"symbol()": {
						"details": "Returns the token collection symbol."
					},
					"tokenByIndex(uint256)": {
						"details": "Returns a token ID at a given `index` of all the tokens stored by the contract. Use along with {totalSupply} to enumerate all tokens."
					},
					"tokenOfOwnerByIndex(address,uint256)": {
						"details": "Returns a token ID owned by `owner` at a given `index` of its token list. Use along with {balanceOf} to enumerate all of ``owner``'s tokens."
					},
					"tokenURI(uint256)": {
						"details": "Returns the Uniform Resource Identifier (URI) for `tokenId` token."
					},
					"totalSupply()": {
						"details": "Returns the total amount of tokens stored by the contract."
					}
				},
				"version": 1
			},
			"evm": {
				"assembly": "    /* \"NFT-Contracts/contracts/market_deploy/ERC721.sol\":403:12774  contract ERC721 is Context, ERC165, IERC721, IERC721Metadata, IERC721Enumerable {\r... */\n  mstore(0x40, 0x80)\n    /* \"NFT-Contracts/contracts/market_deploy/ERC721.sol\":1506:1568  string private _baseURI = \"https://gateway.pinata.cloud/ipfs/\" */\n  mload(0x40)\n  dup1\n  0x60\n  add\n  0x40\n  mstore\n  dup1\n  0x22\n  dup2\n  mstore\n  0x20\n  add\n  data_9962ece65b578af633a4cd71e7e539261ebe22823aa4ca702ec34245d8300d7d\n  0x22\n  swap2\n  codecopy\n  0x0b\n  swap1\n  dup1\n  mload\n  swap1\n  0x20\n  add\n  swap1\n  tag_1\n  swap3\n  swap2\n  swap1\n  tag_2\n  jump\t// in\ntag_1:\n  pop\n    /* \"NFT-Contracts/contracts/market_deploy/ERC721.sol\":1795:2087  constructor (string memory name_, string memory symbol_) {\r... */\n  callvalue\n  dup1\n  iszero\n  tag_3\n  jumpi\n  0x00\n  dup1\n  revert\ntag_3:\n  pop\n  mload(0x40)\n  sub(codesize, bytecodeSize)\n  dup1\n  bytecodeSize\n  dup4\n  codecopy\n  dup2\n  dup2\n  add\n  0x40\n  mstore\n  dup2\n  add\n  swap1\n  tag_4\n  swap2\n  swap1\n  tag_5\n  jump\t// in\ntag_4:\n    /* \"NFT-Contracts/contracts/market_deploy/ERC165.sol\":337:377  _registerInterface(_INTERFACE_ID_ERC165) */\n  tag_9\n    /* \"NFT-Contracts/contracts/market_deploy/ERC165.sol\":231:241  0x01ffc9a7 */\n  0x01ffc9a7\n    /* \"NFT-Contracts/contracts/market_deploy/ERC165.sol\":356:376  _INTERFACE_ID_ERC165 */\n  0xe0\n  shl\n    /* \"NFT-Contracts/contracts/market_deploy/ERC165.sol\":337:355  _registerInterface */\n  shl(0x20, tag_10)\n    /* \"NFT-Contracts/contracts/market_deploy/ERC165.sol\":337:377  _registerInterface(_INTERFACE_ID_ERC165) */\n  0x20\n  shr\n  jump\t// in\ntag_9:\n    /* \"NFT-Contracts/contracts/market_deploy/ERC721.sol\":1871:1876  name_ */\n  dup2\n    /* \"NFT-Contracts/contracts/market_deploy/ERC721.sol\":1863:1868  _name */\n  0x06\n    /* \"NFT-Contracts/contracts/market_deploy/ERC721.sol\":1863:1876  _name = name_ */\n  swap1\n  dup1\n  mload\n  swap1\n  0x20\n  add\n  swap1\n  tag_12\n  swap3\n  swap2\n  swap1\n  tag_2\n  jump\t// in\ntag_12:\n  pop\n    /* \"NFT-Contracts/contracts/market_deploy/ERC721.sol\":1897:1904  symbol_ */\n  dup1\n    /* \"NFT-Contracts/contracts/market_deploy/ERC721.sol\":1887:1894  _symbol */\n  0x07\n    /* \"NFT-Contracts/contracts/market_deploy/ERC721.sol\":1887:1904  _symbol = symbol_ */\n  swap1\n  dup1\n  mload\n  swap1\n  0x20\n  add\n  swap1\n  tag_13\n  swap3\n  swap2\n  swap1\n  tag_2\n  jump\t// in\ntag_13:\n  pop\n    /* \"NFT-Contracts/contracts/market_deploy/ERC721.sol\":1917:1957  _registerInterface(_INTERFACE_ID_ERC721) */\n  tag_14\n    /* \"NFT-Contracts/contracts/market_deploy/ERC721.sol\":1624:1634  0x80ac58cd */\n  0x80ac58cd\n    /* \"NFT-Contracts/contracts/market_deploy/ERC721.sol\":1936:1956  _INTERFACE_ID_ERC721 */\n  0xe0\n  shl\n    /* \"NFT-Contracts/contracts/market_deploy/ERC721.sol\":1917:1935  _registerInterface */\n  shl(0x20, tag_10)\n    /* \"NFT-Contracts/contracts/market_deploy/ERC721.sol\":1917:1957  _registerInterface(_INTERFACE_ID_ERC721) */\n  0x20\n  shr\n  jump\t// in\ntag_14:\n    /* \"NFT-Contracts/contracts/market_deploy/ERC721.sol\":1968:2017  _registerInterface(_INTERFACE_ID_ERC721_METADATA) */\n  tag_15\n    /* \"NFT-Contracts/contracts/market_deploy/ERC721.sol\":1699:1709  0x5b5e139f */\n  0x5b5e139f\n    /* \"NFT-Contracts/contracts/market_deploy/ERC721.sol\":1987:2016  _INTERFACE_ID_ERC721_METADATA */\n  0xe0\n  shl\n    /* \"NFT-Contracts/contracts/market_deploy/ERC721.sol\":1968:1986  _registerInterface */\n  shl(0x20, tag_10)\n    /* \"NFT-Contracts/contracts/market_deploy/ERC721.sol\":1968:2017  _registerInterface(_INTERFACE_ID_ERC721_METADATA) */\n  0x20\n  shr\n  jump\t// in\ntag_15:\n    /* \"NFT-Contracts/contracts/market_deploy/ERC721.sol\":2028:2079  _registerInterface(_INTERFACE_ID_ERC721_ENUMERABLE) */\n  tag_16\n    /* \"NFT-Contracts/contracts/market_deploy/ERC721.sol\":1776:1786  0x780e9d63 */\n  0x780e9d63\n    /* \"NFT-Contracts/contracts/market_deploy/ERC721.sol\":2047:2078  _INTERFACE_ID_ERC721_ENUMERABLE */\n  0xe0\n  shl\n    /* \"NFT-Contracts/contracts/market_deploy/ERC721.sol\":2028:2046  _registerInterface */\n  shl(0x20, tag_10)\n    /* \"NFT-Contracts/contracts/market_deploy/ERC721.sol\":2028:2079  _registerInterface(_INTERFACE_ID_ERC721_ENUMERABLE) */\n  0x20\n  shr\n  jump\t// in\ntag_16:\n    /* \"NFT-Contracts/contracts/market_deploy/ERC721.sol\":1795:2087  constructor (string memory name_, string memory symbol_) {\r... */\n  pop\n  pop\n    /* \"NFT-Contracts/contracts/market_deploy/ERC721.sol\":403:12774  contract ERC721 is Context, ERC165, IERC721, IERC721Metadata, IERC721Enumerable {\r... */\n  jump(tag_17)\n    /* \"NFT-Contracts/contracts/market_deploy/ERC165.sol\":553:754  function _registerInterface(bytes4 interfaceId) internal virtual {\r... */\ntag_10:\n    /* \"NFT-Contracts/contracts/market_deploy/ERC165.sol\":652:662  0xffffffff */\n  0xffffffff\n    /* \"NFT-Contracts/contracts/market_deploy/ERC165.sol\":637:662  interfaceId != 0xffffffff */\n  0xe0\n  shl\n    /* \"NFT-Contracts/contracts/market_deploy/ERC165.sol\":637:648  interfaceId */\n  dup2\n    /* \"NFT-Contracts/contracts/market_deploy/ERC165.sol\":637:662  interfaceId != 0xffffffff */\n  not(0xffffffffffffffffffffffffffffffffffffffffffffffffffffffff)\n  and\n  eq\n  iszero\n    /* \"NFT-Contracts/contracts/market_deploy/ERC165.sol\":629:695  require(interfaceId != 0xffffffff, \"ERC165: invalid interface id\") */\n  tag_19\n  jumpi\n  mload(0x40)\n  0x08c379a000000000000000000000000000000000000000000000000000000000\n  dup2\n  mstore\n  0x04\n  add\n  tag_20\n  swap1\n  tag_21\n  jump\t// in\ntag_20:\n  mload(0x40)\n  dup1\n  swap2\n  sub\n  swap1\n  revert\ntag_19:\n    /* \"NFT-Contracts/contracts/market_deploy/ERC165.sol\":742:746  true */\n  0x01\n    /* \"NFT-Contracts/contracts/market_deploy/ERC165.sol\":706:726  _supportedInterfaces */\n  0x00\n    /* \"NFT-Contracts/contracts/market_deploy/ERC165.sol\":706:739  _supportedInterfaces[interfaceId] */\n  dup1\n    /* \"NFT-Contracts/contracts/market_deploy/ERC165.sol\":727:738  interfaceId */\n  dup4\n    /* \"NFT-Contracts/contracts/market_deploy/ERC165.sol\":706:739  _supportedInterfaces[interfaceId] */\n  not(0xffffffffffffffffffffffffffffffffffffffffffffffffffffffff)\n  and\n  not(0xffffffffffffffffffffffffffffffffffffffffffffffffffffffff)\n  and\n  dup2\n  mstore\n  0x20\n  add\n  swap1\n  dup2\n  mstore\n  0x20\n  add\n  0x00\n  keccak256\n  0x00\n    /* \"NFT-Contracts/contracts/market_deploy/ERC165.sol\":706:746  _supportedInterfaces[interfaceId] = true */\n  0x0100\n  exp\n  dup2\n  sload\n  dup2\n  0xff\n  mul\n  not\n  and\n  swap1\n  dup4\n  iszero\n  iszero\n  mul\n  or\n  swap1\n  sstore\n  pop\n    /* \"NFT-Contracts/contracts/market_deploy/ERC165.sol\":553:754  function _registerInterface(bytes4 interfaceId) internal virtual {\r... */\n  pop\n  jump\t// out\n    /* \"NFT-Contracts/contracts/market_deploy/ERC721.sol\":403:12774  contract ERC721 is Context, ERC165, IERC721, IERC721Metadata, IERC721Enumerable {\r... */\ntag_2:\n  dup3\n  dup1\n  sload\n  tag_22\n  swap1\n  tag_23\n  jump\t// in\ntag_22:\n  swap1\n  0x00\n  mstore\n  keccak256(0x00, 0x20)\n  swap1\n  0x1f\n  add\n  0x20\n  swap1\n  div\n  dup2\n  add\n  swap3\n  dup3\n  tag_25\n  jumpi\n  0x00\n  dup6\n  sstore\n  jump(tag_24)\ntag_25:\n  dup3\n  0x1f\n  lt\n  tag_26\n  jumpi\n  dup1\n  mload\n  not(0xff)\n  and\n  dup4\n  dup1\n  add\n  or\n  dup6\n  sstore\n  jump(tag_24)\ntag_26:\n  dup3\n  dup1\n  add\n  0x01\n  add\n  dup6\n  sstore\n  dup3\n  iszero\n  tag_24\n  jumpi\n  swap2\n  dup3\n  add\ntag_27:\n  dup3\n  dup2\n  gt\n  iszero\n  tag_28\n  jumpi\n  dup3\n  mload\n  dup3\n  sstore\n  swap2\n  0x20\n  add\n  swap2\n  swap1\n  0x01\n  add\n  swap1\n  jump(tag_27)\ntag_28:\ntag_24:\n  pop\n  swap1\n  pop\n  tag_29\n  swap2\n  swap1\n  tag_30\n  jump\t// in\ntag_29:\n  pop\n  swap1\n  jump\t// out\ntag_30:\ntag_31:\n  dup1\n  dup3\n  gt\n  iszero\n  tag_32\n  jumpi\n  0x00\n  dup2\n  0x00\n  swap1\n  sstore\n  pop\n  0x01\n  add\n  jump(tag_31)\ntag_32:\n  pop\n  swap1\n  jump\t// out\n    /* \"#utility.yul\":7:428   */\ntag_34:\n    /* \"#utility.yul\":96:101   */\n  0x00\n    /* \"#utility.yul\":121:187   */\n  tag_36\n    /* \"#utility.yul\":137:186   */\n  tag_37\n    /* \"#utility.yul\":179:185   */\n  dup5\n    /* \"#utility.yul\":137:186   */\n  tag_38\n  jump\t// in\ntag_37:\n    /* \"#utility.yul\":121:187   */\n  tag_39\n  jump\t// in\ntag_36:\n    /* \"#utility.yul\":112:187   */\n  swap1\n  pop\n    /* \"#utility.yul\":210:216   */\n  dup3\n    /* \"#utility.yul\":203:208   */\n  dup2\n    /* \"#utility.yul\":196:217   */\n  mstore\n    /* \"#utility.yul\":248:252   */\n  0x20\n    /* \"#utility.yul\":241:246   */\n  dup2\n    /* \"#utility.yul\":237:253   */\n  add\n    /* \"#utility.yul\":286:289   */\n  dup5\n    /* \"#utility.yul\":277:283   */\n  dup5\n    /* \"#utility.yul\":272:275   */\n  dup5\n    /* \"#utility.yul\":268:284   */\n  add\n    /* \"#utility.yul\":265:290   */\n  gt\n    /* \"#utility.yul\":262:374   */\n  iszero\n  tag_40\n  jumpi\n    /* \"#utility.yul\":293:372   */\n  tag_41\n  tag_42\n  jump\t// in\ntag_41:\n    /* \"#utility.yul\":262:374   */\ntag_40:\n    /* \"#utility.yul\":383:422   */\n  tag_43\n    /* \"#utility.yul\":415:421   */\n  dup5\n    /* \"#utility.yul\":410:413   */\n  dup3\n    /* \"#utility.yul\":405:408   */\n  dup6\n    /* \"#utility.yul\":383:422   */\n  tag_44\n  jump\t// in\ntag_43:\n    /* \"#utility.yul\":102:428   */\n  pop\n    /* \"#utility.yul\":7:428   */\n  swap4\n  swap3\n  pop\n  pop\n  pop\n  jump\t// out\n    /* \"#utility.yul\":448:803   */\ntag_45:\n    /* \"#utility.yul\":515:520   */\n  0x00\n    /* \"#utility.yul\":564:567   */\n  dup3\n    /* \"#utility.yul\":557:561   */\n  0x1f\n    /* \"#utility.yul\":549:555   */\n  dup4\n    /* \"#utility.yul\":545:562   */\n  add\n    /* \"#utility.yul\":541:568   */\n  slt\n    /* \"#utility.yul\":531:653   */\n  tag_47\n  jumpi\n    /* \"#utility.yul\":572:651   */\n  tag_48\n  tag_49\n  jump\t// in\ntag_48:\n    /* \"#utility.yul\":531:653   */\ntag_47:\n    /* \"#utility.yul\":682:688   */\n  dup2\n    /* \"#utility.yul\":676:689   */\n  mload\n    /* \"#utility.yul\":707:797   */\n  tag_50\n    /* \"#utility.yul\":793:796   */\n  dup5\n    /* \"#utility.yul\":785:791   */\n  dup3\n    /* \"#utility.yul\":778:782   */\n  0x20\n    /* \"#utility.yul\":770:776   */\n  dup7\n    /* \"#utility.yul\":766:783   */\n  add\n    /* \"#utility.yul\":707:797   */\n  tag_34\n  jump\t// in\ntag_50:\n    /* \"#utility.yul\":698:797   */\n  swap2\n  pop\n    /* \"#utility.yul\":521:803   */\n  pop\n    /* \"#utility.yul\":448:803   */\n  swap3\n  swap2\n  pop\n  pop\n  jump\t// out\n    /* \"#utility.yul\":809:1662   */\ntag_5:\n    /* \"#utility.yul\":908:914   */\n  0x00\n    /* \"#utility.yul\":916:922   */\n  dup1\n    /* \"#utility.yul\":965:967   */\n  0x40\n    /* \"#utility.yul\":953:962   */\n  dup4\n    /* \"#utility.yul\":944:951   */\n  dup6\n    /* \"#utility.yul\":940:963   */\n  sub\n    /* \"#utility.yul\":936:968   */\n  slt\n    /* \"#utility.yul\":933:1052   */\n  iszero\n  tag_52\n  jumpi\n    /* \"#utility.yul\":971:1050   */\n  tag_53\n  tag_54\n  jump\t// in\ntag_53:\n    /* \"#utility.yul\":933:1052   */\ntag_52:\n    /* \"#utility.yul\":1112:1113   */\n  0x00\n    /* \"#utility.yul\":1101:1110   */\n  dup4\n    /* \"#utility.yul\":1097:1114   */\n  add\n    /* \"#utility.yul\":1091:1115   */\n  mload\n    /* \"#utility.yul\":1142:1160   */\n  0xffffffffffffffff\n    /* \"#utility.yul\":1134:1140   */\n  dup2\n    /* \"#utility.yul\":1131:1161   */\n  gt\n    /* \"#utility.yul\":1128:1245   */\n  iszero\n  tag_55\n  jumpi\n    /* \"#utility.yul\":1164:1243   */\n  tag_56\n  tag_57\n  jump\t// in\ntag_56:\n    /* \"#utility.yul\":1128:1245   */\ntag_55:\n    /* \"#utility.yul\":1269:1343   */\n  tag_58\n    /* \"#utility.yul\":1335:1342   */\n  dup6\n    /* \"#utility.yul\":1326:1332   */\n  dup3\n    /* \"#utility.yul\":1315:1324   */\n  dup7\n    /* \"#utility.yul\":1311:1333   */\n  add\n    /* \"#utility.yul\":1269:1343   */\n  tag_45\n  jump\t// in\ntag_58:\n    /* \"#utility.yul\":1259:1343   */\n  swap3\n  pop\n    /* \"#utility.yul\":1062:1353   */\n  pop\n    /* \"#utility.yul\":1413:1415   */\n  0x20\n    /* \"#utility.yul\":1402:1411   */\n  dup4\n    /* \"#utility.yul\":1398:1416   */\n  add\n    /* \"#utility.yul\":1392:1417   */\n  mload\n    /* \"#utility.yul\":1444:1462   */\n  0xffffffffffffffff\n    /* \"#utility.yul\":1436:1442   */\n  dup2\n    /* \"#utility.yul\":1433:1463   */\n  gt\n    /* \"#utility.yul\":1430:1547   */\n  iszero\n  tag_59\n  jumpi\n    /* \"#utility.yul\":1466:1545   */\n  tag_60\n  tag_57\n  jump\t// in\ntag_60:\n    /* \"#utility.yul\":1430:1547   */\ntag_59:\n    /* \"#utility.yul\":1571:1645   */\n  tag_61\n    /* \"#utility.yul\":1637:1644   */\n  dup6\n    /* \"#utility.yul\":1628:1634   */\n  dup3\n    /* \"#utility.yul\":1617:1626   */\n  dup7\n    /* \"#utility.yul\":1613:1635   */\n  add\n    /* \"#utility.yul\":1571:1645   */\n  tag_45\n  jump\t// in\ntag_61:\n    /* \"#utility.yul\":1561:1645   */\n  swap2\n  pop\n    /* \"#utility.yul\":1363:1655   */\n  pop\n    /* \"#utility.yul\":809:1662   */\n  swap3\n  pop\n  swap3\n  swap1\n  pop\n  jump\t// out\n    /* \"#utility.yul\":1668:2034   */\ntag_62:\n    /* \"#utility.yul\":1810:1813   */\n  0x00\n    /* \"#utility.yul\":1831:1898   */\n  tag_64\n    /* \"#utility.yul\":1895:1897   */\n  0x1c\n    /* \"#utility.yul\":1890:1893   */\n  dup4\n    /* \"#utility.yul\":1831:1898   */\n  tag_65\n  jump\t// in\ntag_64:\n    /* \"#utility.yul\":1824:1898   */\n  swap2\n  pop\n    /* \"#utility.yul\":1907:2000   */\n  tag_66\n    /* \"#utility.yul\":1996:1999   */\n  dup3\n    /* \"#utility.yul\":1907:2000   */\n  tag_67\n  jump\t// in\ntag_66:\n    /* \"#utility.yul\":2025:2027   */\n  0x20\n    /* \"#utility.yul\":2020:2023   */\n  dup3\n    /* \"#utility.yul\":2016:2028   */\n  add\n    /* \"#utility.yul\":2009:2028   */\n  swap1\n  pop\n    /* \"#utility.yul\":1668:2034   */\n  swap2\n  swap1\n  pop\n  jump\t// out\n    /* \"#utility.yul\":2040:2459   */\ntag_21:\n    /* \"#utility.yul\":2206:2210   */\n  0x00\n    /* \"#utility.yul\":2244:2246   */\n  0x20\n    /* \"#utility.yul\":2233:2242   */\n  dup3\n    /* \"#utility.yul\":2229:2247   */\n  add\n    /* \"#utility.yul\":2221:2247   */\n  swap1\n  pop\n    /* \"#utility.yul\":2293:2302   */\n  dup2\n    /* \"#utility.yul\":2287:2291   */\n  dup2\n    /* \"#utility.yul\":2283:2303   */\n  sub\n    /* \"#utility.yul\":2279:2280   */\n  0x00\n    /* \"#utility.yul\":2268:2277   */\n  dup4\n    /* \"#utility.yul\":2264:2281   */\n  add\n    /* \"#utility.yul\":2257:2304   */\n  mstore\n    /* \"#utility.yul\":2321:2452   */\n  tag_69\n    /* \"#utility.yul\":2447:2451   */\n  dup2\n    /* \"#utility.yul\":2321:2452   */\n  tag_62\n  jump\t// in\ntag_69:\n    /* \"#utility.yul\":2313:2452   */\n  swap1\n  pop\n    /* \"#utility.yul\":2040:2459   */\n  swap2\n  swap1\n  pop\n  jump\t// out\n    /* \"#utility.yul\":2465:2594   */\ntag_39:\n    /* \"#utility.yul\":2499:2505   */\n  0x00\n    /* \"#utility.yul\":2526:2546   */\n  tag_71\n  tag_72\n  jump\t// in\ntag_71:\n    /* \"#utility.yul\":2516:2546   */\n  swap1\n  pop\n    /* \"#utility.yul\":2555:2588   */\n  tag_73\n    /* \"#utility.yul\":2583:2587   */\n  dup3\n    /* \"#utility.yul\":2575:2581   */\n  dup3\n    /* \"#utility.yul\":2555:2588   */\n  tag_74\n  jump\t// in\ntag_73:\n    /* \"#utility.yul\":2465:2594   */\n  swap2\n  swap1\n  pop\n  jump\t// out\n    /* \"#utility.yul\":2600:2675   */\ntag_72:\n    /* \"#utility.yul\":2633:2639   */\n  0x00\n    /* \"#utility.yul\":2666:2668   */\n  0x40\n    /* \"#utility.yul\":2660:2669   */\n  mload\n    /* \"#utility.yul\":2650:2669   */\n  swap1\n  pop\n    /* \"#utility.yul\":2600:2675   */\n  swap1\n  jump\t// out\n    /* \"#utility.yul\":2681:2989   */\ntag_38:\n    /* \"#utility.yul\":2743:2747   */\n  0x00\n    /* \"#utility.yul\":2833:2851   */\n  0xffffffffffffffff\n    /* \"#utility.yul\":2825:2831   */\n  dup3\n    /* \"#utility.yul\":2822:2852   */\n  gt\n    /* \"#utility.yul\":2819:2875   */\n  iszero\n  tag_77\n  jumpi\n    /* \"#utility.yul\":2855:2873   */\n  tag_78\n  tag_79\n  jump\t// in\ntag_78:\n    /* \"#utility.yul\":2819:2875   */\ntag_77:\n    /* \"#utility.yul\":2893:2922   */\n  tag_80\n    /* \"#utility.yul\":2915:2921   */\n  dup3\n    /* \"#utility.yul\":2893:2922   */\n  tag_81\n  jump\t// in\ntag_80:\n    /* \"#utility.yul\":2885:2922   */\n  swap1\n  pop\n    /* \"#utility.yul\":2977:2981   */\n  0x20\n    /* \"#utility.yul\":2971:2975   */\n  dup2\n    /* \"#utility.yul\":2967:2982   */\n  add\n    /* \"#utility.yul\":2959:2982   */\n  swap1\n  pop\n    /* \"#utility.yul\":2681:2989   */\n  swap2\n  swap1\n  pop\n  jump\t// out\n    /* \"#utility.yul\":2995:3164   */\ntag_65:\n    /* \"#utility.yul\":3079:3090   */\n  0x00\n    /* \"#utility.yul\":3113:3119   */\n  dup3\n    /* \"#utility.yul\":3108:3111   */\n  dup3\n    /* \"#utility.yul\":3101:3120   */\n  mstore\n    /* \"#utility.yul\":3153:3157   */\n  0x20\n    /* \"#utility.yul\":3148:3151   */\n  dup3\n    /* \"#utility.yul\":3144:3158   */\n  add\n    /* \"#utility.yul\":3129:3158   */\n  swap1\n  pop\n    /* \"#utility.yul\":2995:3164   */\n  swap3\n  swap2\n  pop\n  pop\n  jump\t// out\n    /* \"#utility.yul\":3170:3477   */\ntag_44:\n    /* \"#utility.yul\":3238:3239   */\n  0x00\n    /* \"#utility.yul\":3248:3361   */\ntag_84:\n    /* \"#utility.yul\":3262:3268   */\n  dup4\n    /* \"#utility.yul\":3259:3260   */\n  dup2\n    /* \"#utility.yul\":3256:3269   */\n  lt\n    /* \"#utility.yul\":3248:3361   */\n  iszero\n  tag_86\n  jumpi\n    /* \"#utility.yul\":3347:3348   */\n  dup1\n    /* \"#utility.yul\":3342:3345   */\n  dup3\n    /* \"#utility.yul\":3338:3349   */\n  add\n    /* \"#utility.yul\":3332:3350   */\n  mload\n    /* \"#utility.yul\":3328:3329   */\n  dup2\n    /* \"#utility.yul\":3323:3326   */\n  dup5\n    /* \"#utility.yul\":3319:3330   */\n  add\n    /* \"#utility.yul\":3312:3351   */\n  mstore\n    /* \"#utility.yul\":3284:3286   */\n  0x20\n    /* \"#utility.yul\":3281:3282   */\n  dup2\n    /* \"#utility.yul\":3277:3287   */\n  add\n    /* \"#utility.yul\":3272:3287   */\n  swap1\n  pop\n    /* \"#utility.yul\":3248:3361   */\n  jump(tag_84)\ntag_86:\n    /* \"#utility.yul\":3379:3385   */\n  dup4\n    /* \"#utility.yul\":3376:3377   */\n  dup2\n    /* \"#utility.yul\":3373:3386   */\n  gt\n    /* \"#utility.yul\":3370:3471   */\n  iszero\n  tag_87\n  jumpi\n    /* \"#utility.yul\":3459:3460   */\n  0x00\n    /* \"#utility.yul\":3450:3456   */\n  dup5\n    /* \"#utility.yul\":3445:3448   */\n  dup5\n    /* \"#utility.yul\":3441:3457   */\n  add\n    /* \"#utility.yul\":3434:3461   */\n  mstore\n    /* \"#utility.yul\":3370:3471   */\ntag_87:\n    /* \"#utility.yul\":3219:3477   */\n  pop\n    /* \"#utility.yul\":3170:3477   */\n  pop\n  pop\n  pop\n  jump\t// out\n    /* \"#utility.yul\":3483:3803   */\ntag_23:\n    /* \"#utility.yul\":3527:3533   */\n  0x00\n    /* \"#utility.yul\":3564:3565   */\n  0x02\n    /* \"#utility.yul\":3558:3562   */\n  dup3\n    /* \"#utility.yul\":3554:3566   */\n  div\n    /* \"#utility.yul\":3544:3566   */\n  swap1\n  pop\n    /* \"#utility.yul\":3611:3612   */\n  0x01\n    /* \"#utility.yul\":3605:3609   */\n  dup3\n    /* \"#utility.yul\":3601:3613   */\n  and\n    /* \"#utility.yul\":3632:3650   */\n  dup1\n    /* \"#utility.yul\":3622:3703   */\n  tag_89\n  jumpi\n    /* \"#utility.yul\":3688:3692   */\n  0x7f\n    /* \"#utility.yul\":3680:3686   */\n  dup3\n    /* \"#utility.yul\":3676:3693   */\n  and\n    /* \"#utility.yul\":3666:3693   */\n  swap2\n  pop\n    /* \"#utility.yul\":3622:3703   */\ntag_89:\n    /* \"#utility.yul\":3750:3752   */\n  0x20\n    /* \"#utility.yul\":3742:3748   */\n  dup3\n    /* \"#utility.yul\":3739:3753   */\n  lt\n    /* \"#utility.yul\":3719:3737   */\n  dup2\n    /* \"#utility.yul\":3716:3754   */\n  eq\n    /* \"#utility.yul\":3713:3797   */\n  iszero\n  tag_90\n  jumpi\n    /* \"#utility.yul\":3769:3787   */\n  tag_91\n  tag_92\n  jump\t// in\ntag_91:\n    /* \"#utility.yul\":3713:3797   */\ntag_90:\n    /* \"#utility.yul\":3534:3803   */\n  pop\n    /* \"#utility.yul\":3483:3803   */\n  swap2\n  swap1\n  pop\n  jump\t// out\n    /* \"#utility.yul\":3809:4090   */\ntag_74:\n    /* \"#utility.yul\":3892:3919   */\n  tag_94\n    /* \"#utility.yul\":3914:3918   */\n  dup3\n    /* \"#utility.yul\":3892:3919   */\n  tag_81\n  jump\t// in\ntag_94:\n    /* \"#utility.yul\":3884:3890   */\n  dup2\n    /* \"#utility.yul\":3880:3920   */\n  add\n    /* \"#utility.yul\":4022:4028   */\n  dup2\n    /* \"#utility.yul\":4010:4020   */\n  dup2\n    /* \"#utility.yul\":4007:4029   */\n  lt\n    /* \"#utility.yul\":3986:4004   */\n  0xffffffffffffffff\n    /* \"#utility.yul\":3974:3984   */\n  dup3\n    /* \"#utility.yul\":3971:4005   */\n  gt\n    /* \"#utility.yul\":3968:4030   */\n  or\n    /* \"#utility.yul\":3965:4053   */\n  iszero\n  tag_95\n  jumpi\n    /* \"#utility.yul\":4033:4051   */\n  tag_96\n  tag_79\n  jump\t// in\ntag_96:\n    /* \"#utility.yul\":3965:4053   */\ntag_95:\n    /* \"#utility.yul\":4073:4083   */\n  dup1\n    /* \"#utility.yul\":4069:4071   */\n  0x40\n    /* \"#utility.yul\":4062:4084   */\n  mstore\n    /* \"#utility.yul\":3852:4090   */\n  pop\n    /* \"#utility.yul\":3809:4090   */\n  pop\n  pop\n  jump\t// out\n    /* \"#utility.yul\":4096:4276   */\ntag_92:\n    /* \"#utility.yul\":4144:4221   */\n  0x4e487b7100000000000000000000000000000000000000000000000000000000\n    /* \"#utility.yul\":4141:4142   */\n  0x00\n    /* \"#utility.yul\":4134:4222   */\n  mstore\n    /* \"#utility.yul\":4241:4245   */\n  0x22\n    /* \"#utility.yul\":4238:4239   */\n  0x04\n    /* \"#utility.yul\":4231:4246   */\n  mstore\n    /* \"#utility.yul\":4265:4269   */\n  0x24\n    /* \"#utility.yul\":4262:4263   */\n  0x00\n    /* \"#utility.yul\":4255:4270   */\n  revert\n    /* \"#utility.yul\":4282:4462   */\ntag_79:\n    /* \"#utility.yul\":4330:4407   */\n  0x4e487b7100000000000000000000000000000000000000000000000000000000\n    /* \"#utility.yul\":4327:4328   */\n  0x00\n    /* \"#utility.yul\":4320:4408   */\n  mstore\n    /* \"#utility.yul\":4427:4431   */\n  0x41\n    /* \"#utility.yul\":4424:4425   */\n  0x04\n    /* \"#utility.yul\":4417:4432   */\n  mstore\n    /* \"#utility.yul\":4451:4455   */\n  0x24\n    /* \"#utility.yul\":4448:4449   */\n  0x00\n    /* \"#utility.yul\":4441:4456   */\n  revert\n    /* \"#utility.yul\":4468:4585   */\ntag_49:\n    /* \"#utility.yul\":4577:4578   */\n  0x00\n    /* \"#utility.yul\":4574:4575   */\n  dup1\n    /* \"#utility.yul\":4567:4579   */\n  revert\n    /* \"#utility.yul\":4591:4708   */\ntag_42:\n    /* \"#utility.yul\":4700:4701   */\n  0x00\n    /* \"#utility.yul\":4697:4698   */\n  dup1\n    /* \"#utility.yul\":4690:4702   */\n  revert\n    /* \"#utility.yul\":4714:4831   */\ntag_57:\n    /* \"#utility.yul\":4823:4824   */\n  0x00\n    /* \"#utility.yul\":4820:4821   */\n  dup1\n    /* \"#utility.yul\":4813:4825   */\n  revert\n    /* \"#utility.yul\":4837:4954   */\ntag_54:\n    /* \"#utility.yul\":4946:4947   */\n  0x00\n    /* \"#utility.yul\":4943:4944   */\n  dup1\n    /* \"#utility.yul\":4936:4948   */\n  revert\n    /* \"#utility.yul\":4960:5062   */\ntag_81:\n    /* \"#utility.yul\":5001:5007   */\n  0x00\n    /* \"#utility.yul\":5052:5054   */\n  0x1f\n    /* \"#utility.yul\":5048:5055   */\n  not\n    /* \"#utility.yul\":5043:5045   */\n  0x1f\n    /* \"#utility.yul\":5036:5041   */\n  dup4\n    /* \"#utility.yul\":5032:5046   */\n  add\n    /* \"#utility.yul\":5028:5056   */\n  and\n    /* \"#utility.yul\":5018:5056   */\n  swap1\n  pop\n    /* \"#utility.yul\":4960:5062   */\n  swap2\n  swap1\n  pop\n  jump\t// out\n    /* \"#utility.yul\":5068:5246   */\ntag_67:\n    /* \"#utility.yul\":5208:5238   */\n  0x4552433136353a20696e76616c696420696e7465726661636520696400000000\n    /* \"#utility.yul\":5204:5205   */\n  0x00\n    /* \"#utility.yul\":5196:5202   */\n  dup3\n    /* \"#utility.yul\":5192:5206   */\n  add\n    /* \"#utility.yul\":5185:5239   */\n  mstore\n    /* \"#utility.yul\":5068:5246   */\n  pop\n  jump\t// out\n    /* \"NFT-Contracts/contracts/market_deploy/ERC721.sol\":403:12774  contract ERC721 is Context, ERC165, IERC721, IERC721Metadata, IERC721Enumerable {\r... */\ntag_17:\n  dataSize(sub_0)\n  dup1\n  dataOffset(sub_0)\n  0x00\n  codecopy\n  0x00\n  return\nstop\ndata_9962ece65b578af633a4cd71e7e539261ebe22823aa4ca702ec34245d8300d7d 68747470733a2f2f676174657761792e70696e6174612e636c6f75642f697066732f\n\nsub_0: assembly {\n        /* \"NFT-Contracts/contracts/market_deploy/ERC721.sol\":403:12774  contract ERC721 is Context, ERC165, IERC721, IERC721Metadata, IERC721Enumerable {\r... */\n      mstore(0x40, 0x80)\n      callvalue\n      dup1\n      iszero\n      tag_1\n      jumpi\n      0x00\n      dup1\n      revert\n    tag_1:\n      pop\n      jumpi(tag_2, lt(calldatasize, 0x04))\n      shr(0xe0, calldataload(0x00))\n      dup1\n      0x6352211e\n      gt\n      tag_22\n      jumpi\n      dup1\n      0xb88d4fde\n      gt\n      tag_23\n      jumpi\n      dup1\n      0xb88d4fde\n      eq\n      tag_17\n      jumpi\n      dup1\n      0xc57dc235\n      eq\n      tag_18\n      jumpi\n      dup1\n      0xc87b56dd\n      eq\n      tag_19\n      jumpi\n      dup1\n      0xd48e638a\n      eq\n      tag_20\n      jumpi\n      dup1\n      0xe985e9c5\n      eq\n      tag_21\n      jumpi\n      jump(tag_2)\n    tag_23:\n      dup1\n      0x6352211e\n      eq\n      tag_12\n      jumpi\n      dup1\n      0x6c0360eb\n      eq\n      tag_13\n      jumpi\n      dup1\n      0x70a08231\n      eq\n      tag_14\n      jumpi\n      dup1\n      0x95d89b41\n      eq\n      tag_15\n      jumpi\n      dup1\n      0xa22cb465\n      eq\n      tag_16\n      jumpi\n      jump(tag_2)\n    tag_22:\n      dup1\n      0x18160ddd\n      gt\n      tag_24\n      jumpi\n      dup1\n      0x18160ddd\n      eq\n      tag_7\n      jumpi\n      dup1\n      0x23b872dd\n      eq\n      tag_8\n      jumpi\n      dup1\n      0x2f745c59\n      eq\n      tag_9\n      jumpi\n      dup1\n      0x42842e0e\n      eq\n      tag_10\n      jumpi\n      dup1\n      0x4f6ccce7\n      eq\n      tag_11\n      jumpi\n      jump(tag_2)\n    tag_24:\n      dup1\n      0x01ffc9a7\n      eq\n      tag_3\n      jumpi\n      dup1\n      0x06fdde03\n      eq\n      tag_4\n      jumpi\n      dup1\n      0x081812fc\n      eq\n      tag_5\n      jumpi\n      dup1\n      0x095ea7b3\n      eq\n      tag_6\n      jumpi\n    tag_2:\n      0x00\n      dup1\n      revert\n        /* \"NFT-Contracts/contracts/market_deploy/ERC165.sol\":393:545  function supportsInterface(bytes4 interfaceId) external view virtual override returns (bool) {\r... */\n    tag_3:\n      tag_25\n      0x04\n      dup1\n      calldatasize\n      sub\n      dup2\n      add\n      swap1\n      tag_26\n      swap2\n      swap1\n      tag_27\n      jump\t// in\n    tag_26:\n      tag_28\n      jump\t// in\n    tag_25:\n      mload(0x40)\n      tag_29\n      swap2\n      swap1\n      tag_30\n      jump\t// in\n    tag_29:\n      mload(0x40)\n      dup1\n      swap2\n      sub\n      swap1\n      return\n        /* \"NFT-Contracts/contracts/market_deploy/ERC721.sol\":2903:3005  function name() external view virtual override returns (string memory) {\r... */\n    tag_4:\n      tag_31\n      tag_32\n      jump\t// in\n    tag_31:\n      mload(0x40)\n      tag_33\n      swap2\n      swap1\n      tag_34\n      jump\t// in\n    tag_33:\n      mload(0x40)\n      dup1\n      swap2\n      sub\n      swap1\n      return\n        /* \"NFT-Contracts/contracts/market_deploy/ERC721.sol\":4948:5169  function getApproved(uint256 tokenId) public view virtual override returns (address) {\r... */\n    tag_5:\n      tag_35\n      0x04\n      dup1\n      calldatasize\n      sub\n      dup2\n      add\n      swap1\n      tag_36\n      swap2\n      swap1\n      tag_37\n      jump\t// in\n    tag_36:\n      tag_38\n      jump\t// in\n    tag_35:\n      mload(0x40)\n      tag_39\n      swap2\n      swap1\n      tag_40\n      jump\t// in\n    tag_39:\n      mload(0x40)\n      dup1\n      swap2\n      sub\n      swap1\n      return\n        /* \"NFT-Contracts/contracts/market_deploy/ERC721.sol\":4534:4940  function approve(address to, uint256 tokenId) external virtual override {\r... */\n    tag_6:\n      tag_41\n      0x04\n      dup1\n      calldatasize\n      sub\n      dup2\n      add\n      swap1\n      tag_42\n      swap2\n      swap1\n      tag_43\n      jump\t// in\n    tag_42:\n      tag_44\n      jump\t// in\n    tag_41:\n      stop\n        /* \"NFT-Contracts/contracts/market_deploy/ERC721.sol\":4225:4344  function totalSupply() external view virtual override returns (uint256) {\r... */\n    tag_7:\n      tag_45\n      tag_46\n      jump\t// in\n    tag_45:\n      mload(0x40)\n      tag_47\n      swap2\n      swap1\n      tag_48\n      jump\t// in\n    tag_47:\n      mload(0x40)\n      dup1\n      swap2\n      sub\n      swap1\n      return\n        /* \"NFT-Contracts/contracts/market_deploy/ERC721.sol\":6287:6541  function transferFrom(address from, address to, uint256 tokenId) external virtual override {\r... */\n    tag_8:\n      tag_49\n      0x04\n      dup1\n      calldatasize\n      sub\n      dup2\n      add\n      swap1\n      tag_50\n      swap2\n      swap1\n      tag_51\n      jump\t// in\n    tag_50:\n      tag_52\n      jump\t// in\n    tag_49:\n      stop\n        /* \"NFT-Contracts/contracts/market_deploy/ERC721.sol\":4053:4217  function tokenOfOwnerByIndex(address owner, uint256 index) external view virtual override returns (uint256) {\r... */\n    tag_9:\n      tag_53\n      0x04\n      dup1\n      calldatasize\n      sub\n      dup2\n      add\n      swap1\n      tag_54\n      swap2\n      swap1\n      tag_43\n      jump\t// in\n    tag_54:\n      tag_55\n      jump\t// in\n    tag_53:\n      mload(0x40)\n      tag_56\n      swap2\n      swap1\n      tag_48\n      jump\t// in\n    tag_56:\n      mload(0x40)\n      dup1\n      swap2\n      sub\n      swap1\n      return\n        /* \"NFT-Contracts/contracts/market_deploy/ERC721.sol\":6549:6702  function safeTransferFrom(address from, address to, uint256 tokenId) external virtual override {\r... */\n    tag_10:\n      tag_57\n      0x04\n      dup1\n      calldatasize\n      sub\n      dup2\n      add\n      swap1\n      tag_58\n      swap2\n      swap1\n      tag_51\n      jump\t// in\n    tag_58:\n      tag_59\n      jump\t// in\n    tag_57:\n      stop\n        /* \"NFT-Contracts/contracts/market_deploy/ERC721.sol\":4352:4526  function tokenByIndex(uint256 index) external view virtual override returns (uint256) {\r... */\n    tag_11:\n      tag_60\n      0x04\n      dup1\n      calldatasize\n      sub\n      dup2\n      add\n      swap1\n      tag_61\n      swap2\n      swap1\n      tag_37\n      jump\t// in\n    tag_61:\n      tag_62\n      jump\t// in\n    tag_60:\n      mload(0x40)\n      tag_63\n      swap2\n      swap1\n      tag_48\n      jump\t// in\n    tag_63:\n      mload(0x40)\n      dup1\n      swap2\n      sub\n      swap1\n      return\n        /* \"NFT-Contracts/contracts/market_deploy/ERC721.sol\":2718:2895  function ownerOf(uint256 tokenId) public view virtual override returns (address) {\r... */\n    tag_12:\n      tag_64\n      0x04\n      dup1\n      calldatasize\n      sub\n      dup2\n      add\n      swap1\n      tag_65\n      swap2\n      swap1\n      tag_37\n      jump\t// in\n    tag_65:\n      tag_66\n      jump\t// in\n    tag_64:\n      mload(0x40)\n      tag_67\n      swap2\n      swap1\n      tag_40\n      jump\t// in\n    tag_67:\n      mload(0x40)\n      dup1\n      swap2\n      sub\n      swap1\n      return\n        /* \"NFT-Contracts/contracts/market_deploy/ERC721.sol\":3689:3786  function baseURI() public view virtual returns (string memory) {\r... */\n    tag_13:\n      tag_68\n      tag_69\n      jump\t// in\n    tag_68:\n      mload(0x40)\n      tag_70\n      swap2\n      swap1\n      tag_34\n      jump\t// in\n    tag_70:\n      mload(0x40)\n      dup1\n      swap2\n      sub\n      swap1\n      return\n        /* \"NFT-Contracts/contracts/market_deploy/ERC721.sol\":2300:2523  function balanceOf(address owner) external view virtual override returns (uint256) {\r... */\n    tag_14:\n      tag_71\n      0x04\n      dup1\n      calldatasize\n      sub\n      dup2\n      add\n      swap1\n      tag_72\n      swap2\n      swap1\n      tag_73\n      jump\t// in\n    tag_72:\n      tag_74\n      jump\t// in\n    tag_71:\n      mload(0x40)\n      tag_75\n      swap2\n      swap1\n      tag_48\n      jump\t// in\n    tag_75:\n      mload(0x40)\n      dup1\n      swap2\n      sub\n      swap1\n      return\n        /* \"NFT-Contracts/contracts/market_deploy/ERC721.sol\":3013:3119  function symbol() external view virtual override returns (string memory) {\r... */\n    tag_15:\n      tag_76\n      tag_77\n      jump\t// in\n    tag_76:\n      mload(0x40)\n      tag_78\n      swap2\n      swap1\n      tag_34\n      jump\t// in\n    tag_78:\n      mload(0x40)\n      dup1\n      swap2\n      sub\n      swap1\n      return\n        /* \"NFT-Contracts/contracts/market_deploy/ERC721.sol\":5531:5828  function setApprovalForAll(address operator, bool approved) external virtual override {\r... */\n    tag_16:\n      tag_79\n      0x04\n      dup1\n      calldatasize\n      sub\n      dup2\n      add\n      swap1\n      tag_80\n      swap2\n      swap1\n      tag_81\n      jump\t// in\n    tag_80:\n      tag_82\n      jump\t// in\n    tag_79:\n      stop\n        /* \"NFT-Contracts/contracts/market_deploy/ERC721.sol\":7822:8109  function safeTransferFrom(address from, address to, uint256 tokenId, bytes memory _data) public virtual override {\r... */\n    tag_17:\n      tag_83\n      0x04\n      dup1\n      calldatasize\n      sub\n      dup2\n      add\n      swap1\n      tag_84\n      swap2\n      swap1\n      tag_85\n      jump\t// in\n    tag_84:\n      tag_86\n      jump\t// in\n    tag_83:\n      stop\n        /* \"NFT-Contracts/contracts/market_deploy/ERC721.sol\":3794:3917  function royaltyFee(uint256 tokenId) external view override returns(uint256) {\r... */\n    tag_18:\n      tag_87\n      0x04\n      dup1\n      calldatasize\n      sub\n      dup2\n      add\n      swap1\n      tag_88\n      swap2\n      swap1\n      tag_37\n      jump\t// in\n    tag_88:\n      tag_89\n      jump\t// in\n    tag_87:\n      mload(0x40)\n      tag_90\n      swap2\n      swap1\n      tag_48\n      jump\t// in\n    tag_90:\n      mload(0x40)\n      dup1\n      swap2\n      sub\n      swap1\n      return\n        /* \"NFT-Contracts/contracts/market_deploy/ERC721.sol\":3127:3681  function tokenURI(uint256 tokenId) external view virtual override returns (string memory) {\r... */\n    tag_19:\n      tag_91\n      0x04\n      dup1\n      calldatasize\n      sub\n      dup2\n      add\n      swap1\n      tag_92\n      swap2\n      swap1\n      tag_37\n      jump\t// in\n    tag_92:\n      tag_93\n      jump\t// in\n    tag_91:\n      mload(0x40)\n      tag_94\n      swap2\n      swap1\n      tag_34\n      jump\t// in\n    tag_94:\n      mload(0x40)\n      dup1\n      swap2\n      sub\n      swap1\n      return\n        /* \"NFT-Contracts/contracts/market_deploy/ERC721.sol\":3925:4045  function getCreator(uint256 tokenId) external view override returns(address) {\r... */\n    tag_20:\n      tag_95\n      0x04\n      dup1\n      calldatasize\n      sub\n      dup2\n      add\n      swap1\n      tag_96\n      swap2\n      swap1\n      tag_37\n      jump\t// in\n    tag_96:\n      tag_97\n      jump\t// in\n    tag_95:\n      mload(0x40)\n      tag_98\n      swap2\n      swap1\n      tag_40\n      jump\t// in\n    tag_98:\n      mload(0x40)\n      dup1\n      swap2\n      sub\n      swap1\n      return\n        /* \"NFT-Contracts/contracts/market_deploy/ERC721.sol\":6115:6279  function isApprovedForAll(address owner, address operator) public view virtual override returns (bool) {\r... */\n    tag_21:\n      tag_99\n      0x04\n      dup1\n      calldatasize\n      sub\n      dup2\n      add\n      swap1\n      tag_100\n      swap2\n      swap1\n      tag_101\n      jump\t// in\n    tag_100:\n      tag_102\n      jump\t// in\n    tag_99:\n      mload(0x40)\n      tag_103\n      swap2\n      swap1\n      tag_30\n      jump\t// in\n    tag_103:\n      mload(0x40)\n      dup1\n      swap2\n      sub\n      swap1\n      return\n        /* \"NFT-Contracts/contracts/market_deploy/ERC165.sol\":393:545  function supportsInterface(bytes4 interfaceId) external view virtual override returns (bool) {\r... */\n    tag_28:\n        /* \"NFT-Contracts/contracts/market_deploy/ERC165.sol\":480:484  bool */\n      0x00\n        /* \"NFT-Contracts/contracts/market_deploy/ERC165.sol\":504:524  _supportedInterfaces */\n      dup1\n        /* \"NFT-Contracts/contracts/market_deploy/ERC165.sol\":504:537  _supportedInterfaces[interfaceId] */\n      0x00\n        /* \"NFT-Contracts/contracts/market_deploy/ERC165.sol\":525:536  interfaceId */\n      dup4\n        /* \"NFT-Contracts/contracts/market_deploy/ERC165.sol\":504:537  _supportedInterfaces[interfaceId] */\n      not(0xffffffffffffffffffffffffffffffffffffffffffffffffffffffff)\n      and\n      not(0xffffffffffffffffffffffffffffffffffffffffffffffffffffffff)\n      and\n      dup2\n      mstore\n      0x20\n      add\n      swap1\n      dup2\n      mstore\n      0x20\n      add\n      0x00\n      keccak256\n      0x00\n      swap1\n      sload\n      swap1\n      0x0100\n      exp\n      swap1\n      div\n      0xff\n      and\n        /* \"NFT-Contracts/contracts/market_deploy/ERC165.sol\":497:537  return _supportedInterfaces[interfaceId] */\n      swap1\n      pop\n        /* \"NFT-Contracts/contracts/market_deploy/ERC165.sol\":393:545  function supportsInterface(bytes4 interfaceId) external view virtual override returns (bool) {\r... */\n      swap2\n      swap1\n      pop\n      jump\t// out\n        /* \"NFT-Contracts/contracts/market_deploy/ERC721.sol\":2903:3005  function name() external view virtual override returns (string memory) {\r... */\n    tag_32:\n        /* \"NFT-Contracts/contracts/market_deploy/ERC721.sol\":2959:2972  string memory */\n      0x60\n        /* \"NFT-Contracts/contracts/market_deploy/ERC721.sol\":2992:2997  _name */\n      0x06\n        /* \"NFT-Contracts/contracts/market_deploy/ERC721.sol\":2985:2997  return _name */\n      dup1\n      sload\n      tag_106\n      swap1\n      tag_107\n      jump\t// in\n    tag_106:\n      dup1\n      0x1f\n      add\n      0x20\n      dup1\n      swap2\n      div\n      mul\n      0x20\n      add\n      mload(0x40)\n      swap1\n      dup2\n      add\n      0x40\n      mstore\n      dup1\n      swap3\n      swap2\n      swap1\n      dup2\n      dup2\n      mstore\n      0x20\n      add\n      dup3\n      dup1\n      sload\n      tag_108\n      swap1\n      tag_107\n      jump\t// in\n    tag_108:\n      dup1\n      iszero\n      tag_109\n      jumpi\n      dup1\n      0x1f\n      lt\n      tag_110\n      jumpi\n      0x0100\n      dup1\n      dup4\n      sload\n      div\n      mul\n      dup4\n      mstore\n      swap2\n      0x20\n      add\n      swap2\n      jump(tag_109)\n    tag_110:\n      dup3\n      add\n      swap2\n      swap1\n      0x00\n      mstore\n      keccak256(0x00, 0x20)\n      swap1\n    tag_111:\n      dup2\n      sload\n      dup2\n      mstore\n      swap1\n      0x01\n      add\n      swap1\n      0x20\n      add\n      dup1\n      dup4\n      gt\n      tag_111\n      jumpi\n      dup3\n      swap1\n      sub\n      0x1f\n      and\n      dup3\n      add\n      swap2\n    tag_109:\n      pop\n      pop\n      pop\n      pop\n      pop\n      swap1\n      pop\n        /* \"NFT-Contracts/contracts/market_deploy/ERC721.sol\":2903:3005  function name() external view virtual override returns (string memory) {\r... */\n      swap1\n      jump\t// out\n        /* \"NFT-Contracts/contracts/market_deploy/ERC721.sol\":4948:5169  function getApproved(uint256 tokenId) public view virtual override returns (address) {\r... */\n    tag_38:\n        /* \"NFT-Contracts/contracts/market_deploy/ERC721.sol\":5024:5031  address */\n      0x00\n        /* \"NFT-Contracts/contracts/market_deploy/ERC721.sol\":5052:5068  _exists(tokenId) */\n      tag_113\n        /* \"NFT-Contracts/contracts/market_deploy/ERC721.sol\":5060:5067  tokenId */\n      dup3\n        /* \"NFT-Contracts/contracts/market_deploy/ERC721.sol\":5052:5059  _exists */\n      tag_114\n        /* \"NFT-Contracts/contracts/market_deploy/ERC721.sol\":5052:5068  _exists(tokenId) */\n      jump\t// in\n    tag_113:\n        /* \"NFT-Contracts/contracts/market_deploy/ERC721.sol\":5044:5117  require(_exists(tokenId), \"ERC721: approved query for nonexistent token\") */\n      tag_115\n      jumpi\n      mload(0x40)\n      0x08c379a000000000000000000000000000000000000000000000000000000000\n      dup2\n      mstore\n      0x04\n      add\n      tag_116\n      swap1\n      tag_117\n      jump\t// in\n    tag_116:\n      mload(0x40)\n      dup1\n      swap2\n      sub\n      swap1\n      revert\n    tag_115:\n        /* \"NFT-Contracts/contracts/market_deploy/ERC721.sol\":5137:5152  _tokenApprovals */\n      0x04\n        /* \"NFT-Contracts/contracts/market_deploy/ERC721.sol\":5137:5161  _tokenApprovals[tokenId] */\n      0x00\n        /* \"NFT-Contracts/contracts/market_deploy/ERC721.sol\":5153:5160  tokenId */\n      dup4\n        /* \"NFT-Contracts/contracts/market_deploy/ERC721.sol\":5137:5161  _tokenApprovals[tokenId] */\n      dup2\n      mstore\n      0x20\n      add\n      swap1\n      dup2\n      mstore\n      0x20\n      add\n      0x00\n      keccak256\n      0x00\n      swap1\n      sload\n      swap1\n      0x0100\n      exp\n      swap1\n      div\n      0xffffffffffffffffffffffffffffffffffffffff\n      and\n        /* \"NFT-Contracts/contracts/market_deploy/ERC721.sol\":5130:5161  return _tokenApprovals[tokenId] */\n      swap1\n      pop\n        /* \"NFT-Contracts/contracts/market_deploy/ERC721.sol\":4948:5169  function getApproved(uint256 tokenId) public view virtual override returns (address) {\r... */\n      swap2\n      swap1\n      pop\n      jump\t// out\n        /* \"NFT-Contracts/contracts/market_deploy/ERC721.sol\":4534:4940  function approve(address to, uint256 tokenId) external virtual override {\r... */\n    tag_44:\n        /* \"NFT-Contracts/contracts/market_deploy/ERC721.sol\":4617:4630  address owner */\n      0x00\n        /* \"NFT-Contracts/contracts/market_deploy/ERC721.sol\":4633:4656  ERC721.ownerOf(tokenId) */\n      tag_119\n        /* \"NFT-Contracts/contracts/market_deploy/ERC721.sol\":4648:4655  tokenId */\n      dup3\n        /* \"NFT-Contracts/contracts/market_deploy/ERC721.sol\":4633:4647  ERC721.ownerOf */\n      tag_66\n        /* \"NFT-Contracts/contracts/market_deploy/ERC721.sol\":4633:4656  ERC721.ownerOf(tokenId) */\n      jump\t// in\n    tag_119:\n        /* \"NFT-Contracts/contracts/market_deploy/ERC721.sol\":4617:4656  address owner = ERC721.ownerOf(tokenId) */\n      swap1\n      pop\n        /* \"NFT-Contracts/contracts/market_deploy/ERC721.sol\":4681:4686  owner */\n      dup1\n        /* \"NFT-Contracts/contracts/market_deploy/ERC721.sol\":4675:4686  to != owner */\n      0xffffffffffffffffffffffffffffffffffffffff\n      and\n        /* \"NFT-Contracts/contracts/market_deploy/ERC721.sol\":4675:4677  to */\n      dup4\n        /* \"NFT-Contracts/contracts/market_deploy/ERC721.sol\":4675:4686  to != owner */\n      0xffffffffffffffffffffffffffffffffffffffff\n      and\n      eq\n      iszero\n        /* \"NFT-Contracts/contracts/market_deploy/ERC721.sol\":4667:4724  require(to != owner, \"ERC721: approval to current owner\") */\n      tag_120\n      jumpi\n      mload(0x40)\n      0x08c379a000000000000000000000000000000000000000000000000000000000\n      dup2\n      mstore\n      0x04\n      add\n      tag_121\n      swap1\n      tag_122\n      jump\t// in\n    tag_121:\n      mload(0x40)\n      dup1\n      swap2\n      sub\n      swap1\n      revert\n    tag_120:\n        /* \"NFT-Contracts/contracts/market_deploy/ERC721.sol\":4761:4766  owner */\n      dup1\n        /* \"NFT-Contracts/contracts/market_deploy/ERC721.sol\":4745:4766  _msgSender() == owner */\n      0xffffffffffffffffffffffffffffffffffffffff\n      and\n        /* \"NFT-Contracts/contracts/market_deploy/ERC721.sol\":4745:4757  _msgSender() */\n      tag_123\n        /* \"NFT-Contracts/contracts/market_deploy/ERC721.sol\":4745:4755  _msgSender */\n      tag_124\n        /* \"NFT-Contracts/contracts/market_deploy/ERC721.sol\":4745:4757  _msgSender() */\n      jump\t// in\n    tag_123:\n        /* \"NFT-Contracts/contracts/market_deploy/ERC721.sol\":4745:4766  _msgSender() == owner */\n      0xffffffffffffffffffffffffffffffffffffffff\n      and\n      eq\n        /* \"NFT-Contracts/contracts/market_deploy/ERC721.sol\":4745:4814  _msgSender() == owner || ERC721.isApprovedForAll(owner, _msgSender()) */\n      dup1\n      tag_125\n      jumpi\n      pop\n        /* \"NFT-Contracts/contracts/market_deploy/ERC721.sol\":4770:4814  ERC721.isApprovedForAll(owner, _msgSender()) */\n      tag_126\n        /* \"NFT-Contracts/contracts/market_deploy/ERC721.sol\":4794:4799  owner */\n      dup2\n        /* \"NFT-Contracts/contracts/market_deploy/ERC721.sol\":4801:4813  _msgSender() */\n      tag_127\n        /* \"NFT-Contracts/contracts/market_deploy/ERC721.sol\":4801:4811  _msgSender */\n      tag_124\n        /* \"NFT-Contracts/contracts/market_deploy/ERC721.sol\":4801:4813  _msgSender() */\n      jump\t// in\n    tag_127:\n        /* \"NFT-Contracts/contracts/market_deploy/ERC721.sol\":4770:4793  ERC721.isApprovedForAll */\n      tag_102\n        /* \"NFT-Contracts/contracts/market_deploy/ERC721.sol\":4770:4814  ERC721.isApprovedForAll(owner, _msgSender()) */\n      jump\t// in\n    tag_126:\n        /* \"NFT-Contracts/contracts/market_deploy/ERC721.sol\":4745:4814  _msgSender() == owner || ERC721.isApprovedForAll(owner, _msgSender()) */\n    tag_125:\n        /* \"NFT-Contracts/contracts/market_deploy/ERC721.sol\":4737:4898  require(_msgSender() == owner || ERC721.isApprovedForAll(owner, _msgSender()),\r... */\n      tag_128\n      jumpi\n      mload(0x40)\n      0x08c379a000000000000000000000000000000000000000000000000000000000\n      dup2\n      mstore\n      0x04\n      add\n      tag_129\n      swap1\n      tag_130\n      jump\t// in\n    tag_129:\n      mload(0x40)\n      dup1\n      swap2\n      sub\n      swap1\n      revert\n    tag_128:\n        /* \"NFT-Contracts/contracts/market_deploy/ERC721.sol\":4911:4932  _approve(to, tokenId) */\n      tag_131\n        /* \"NFT-Contracts/contracts/market_deploy/ERC721.sol\":4920:4922  to */\n      dup4\n        /* \"NFT-Contracts/contracts/market_deploy/ERC721.sol\":4924:4931  tokenId */\n      dup4\n        /* \"NFT-Contracts/contracts/market_deploy/ERC721.sol\":4911:4919  _approve */\n      tag_132\n        /* \"NFT-Contracts/contracts/market_deploy/ERC721.sol\":4911:4932  _approve(to, tokenId) */\n      jump\t// in\n    tag_131:\n        /* \"NFT-Contracts/contracts/market_deploy/ERC721.sol\":4606:4940  {\r... */\n      pop\n        /* \"NFT-Contracts/contracts/market_deploy/ERC721.sol\":4534:4940  function approve(address to, uint256 tokenId) external virtual override {\r... */\n      pop\n      pop\n      jump\t// out\n        /* \"NFT-Contracts/contracts/market_deploy/ERC721.sol\":4225:4344  function totalSupply() external view virtual override returns (uint256) {\r... */\n    tag_46:\n        /* \"NFT-Contracts/contracts/market_deploy/ERC721.sol\":4288:4295  uint256 */\n      0x00\n        /* \"NFT-Contracts/contracts/market_deploy/ERC721.sol\":4315:4336  _tokenOwners.length() */\n      tag_134\n        /* \"NFT-Contracts/contracts/market_deploy/ERC721.sol\":4315:4327  _tokenOwners */\n      0x02\n        /* \"NFT-Contracts/contracts/market_deploy/ERC721.sol\":4315:4334  _tokenOwners.length */\n      tag_135\n        /* \"NFT-Contracts/contracts/market_deploy/ERC721.sol\":4315:4336  _tokenOwners.length() */\n      jump\t// in\n    tag_134:\n        /* \"NFT-Contracts/contracts/market_deploy/ERC721.sol\":4308:4336  return _tokenOwners.length() */\n      swap1\n      pop\n        /* \"NFT-Contracts/contracts/market_deploy/ERC721.sol\":4225:4344  function totalSupply() external view virtual override returns (uint256) {\r... */\n      swap1\n      jump\t// out\n        /* \"NFT-Contracts/contracts/market_deploy/ERC721.sol\":6287:6541  function transferFrom(address from, address to, uint256 tokenId) external virtual override {\r... */\n    tag_52:\n        /* \"NFT-Contracts/contracts/market_deploy/ERC721.sol\":6397:6438  _isApprovedOrOwner(_msgSender(), tokenId) */\n      tag_137\n        /* \"NFT-Contracts/contracts/market_deploy/ERC721.sol\":6416:6428  _msgSender() */\n      tag_138\n        /* \"NFT-Contracts/contracts/market_deploy/ERC721.sol\":6416:6426  _msgSender */\n      tag_124\n        /* \"NFT-Contracts/contracts/market_deploy/ERC721.sol\":6416:6428  _msgSender() */\n      jump\t// in\n    tag_138:\n        /* \"NFT-Contracts/contracts/market_deploy/ERC721.sol\":6430:6437  tokenId */\n      dup3\n        /* \"NFT-Contracts/contracts/market_deploy/ERC721.sol\":6397:6415  _isApprovedOrOwner */\n      tag_139\n        /* \"NFT-Contracts/contracts/market_deploy/ERC721.sol\":6397:6438  _isApprovedOrOwner(_msgSender(), tokenId) */\n      jump\t// in\n    tag_137:\n        /* \"NFT-Contracts/contracts/market_deploy/ERC721.sol\":6389:6492  require(_isApprovedOrOwner(_msgSender(), tokenId), \"ERC721: transfer caller is not owner nor approved\") */\n      tag_140\n      jumpi\n      mload(0x40)\n      0x08c379a000000000000000000000000000000000000000000000000000000000\n      dup2\n      mstore\n      0x04\n      add\n      tag_141\n      swap1\n      tag_142\n      jump\t// in\n    tag_141:\n      mload(0x40)\n      dup1\n      swap2\n      sub\n      swap1\n      revert\n    tag_140:\n        /* \"NFT-Contracts/contracts/market_deploy/ERC721.sol\":6505:6533  _transfer(from, to, tokenId) */\n      tag_143\n        /* \"NFT-Contracts/contracts/market_deploy/ERC721.sol\":6515:6519  from */\n      dup4\n        /* \"NFT-Contracts/contracts/market_deploy/ERC721.sol\":6521:6523  to */\n      dup4\n        /* \"NFT-Contracts/contracts/market_deploy/ERC721.sol\":6525:6532  tokenId */\n      dup4\n        /* \"NFT-Contracts/contracts/market_deploy/ERC721.sol\":6505:6514  _transfer */\n      tag_144\n        /* \"NFT-Contracts/contracts/market_deploy/ERC721.sol\":6505:6533  _transfer(from, to, tokenId) */\n      jump\t// in\n    tag_143:\n        /* \"NFT-Contracts/contracts/market_deploy/ERC721.sol\":6287:6541  function transferFrom(address from, address to, uint256 tokenId) external virtual override {\r... */\n      pop\n      pop\n      pop\n      jump\t// out\n        /* \"NFT-Contracts/contracts/market_deploy/ERC721.sol\":4053:4217  function tokenOfOwnerByIndex(address owner, uint256 index) external view virtual override returns (uint256) {\r... */\n    tag_55:\n        /* \"NFT-Contracts/contracts/market_deploy/ERC721.sol\":4152:4159  uint256 */\n      0x00\n        /* \"NFT-Contracts/contracts/market_deploy/ERC721.sol\":4179:4209  _holderTokens[owner].at(index) */\n      tag_146\n        /* \"NFT-Contracts/contracts/market_deploy/ERC721.sol\":4203:4208  index */\n      dup3\n        /* \"NFT-Contracts/contracts/market_deploy/ERC721.sol\":4179:4192  _holderTokens */\n      0x01\n        /* \"NFT-Contracts/contracts/market_deploy/ERC721.sol\":4179:4199  _holderTokens[owner] */\n      0x00\n        /* \"NFT-Contracts/contracts/market_deploy/ERC721.sol\":4193:4198  owner */\n      dup7\n        /* \"NFT-Contracts/contracts/market_deploy/ERC721.sol\":4179:4199  _holderTokens[owner] */\n      0xffffffffffffffffffffffffffffffffffffffff\n      and\n      0xffffffffffffffffffffffffffffffffffffffff\n      and\n      dup2\n      mstore\n      0x20\n      add\n      swap1\n      dup2\n      mstore\n      0x20\n      add\n      0x00\n      keccak256\n        /* \"NFT-Contracts/contracts/market_deploy/ERC721.sol\":4179:4202  _holderTokens[owner].at */\n      tag_147\n      swap1\n        /* \"NFT-Contracts/contracts/market_deploy/ERC721.sol\":4179:4209  _holderTokens[owner].at(index) */\n      swap2\n      swap1\n      0xffffffff\n      and\n      jump\t// in\n    tag_146:\n        /* \"NFT-Contracts/contracts/market_deploy/ERC721.sol\":4172:4209  return _holderTokens[owner].at(index) */\n      swap1\n      pop\n        /* \"NFT-Contracts/contracts/market_deploy/ERC721.sol\":4053:4217  function tokenOfOwnerByIndex(address owner, uint256 index) external view virtual override returns (uint256) {\r... */\n      swap3\n      swap2\n      pop\n      pop\n      jump\t// out\n        /* \"NFT-Contracts/contracts/market_deploy/ERC721.sol\":6549:6702  function safeTransferFrom(address from, address to, uint256 tokenId) external virtual override {\r... */\n    tag_59:\n        /* \"NFT-Contracts/contracts/market_deploy/ERC721.sol\":6655:6694  safeTransferFrom(from, to, tokenId, \"\") */\n      tag_149\n        /* \"NFT-Contracts/contracts/market_deploy/ERC721.sol\":6672:6676  from */\n      dup4\n        /* \"NFT-Contracts/contracts/market_deploy/ERC721.sol\":6678:6680  to */\n      dup4\n        /* \"NFT-Contracts/contracts/market_deploy/ERC721.sol\":6682:6689  tokenId */\n      dup4\n        /* \"NFT-Contracts/contracts/market_deploy/ERC721.sol\":6655:6694  safeTransferFrom(from, to, tokenId, \"\") */\n      mload(0x40)\n      dup1\n      0x20\n      add\n      0x40\n      mstore\n      dup1\n      0x00\n      dup2\n      mstore\n      pop\n        /* \"NFT-Contracts/contracts/market_deploy/ERC721.sol\":6655:6671  safeTransferFrom */\n      tag_86\n        /* \"NFT-Contracts/contracts/market_deploy/ERC721.sol\":6655:6694  safeTransferFrom(from, to, tokenId, \"\") */\n      jump\t// in\n    tag_149:\n        /* \"NFT-Contracts/contracts/market_deploy/ERC721.sol\":6549:6702  function safeTransferFrom(address from, address to, uint256 tokenId) external virtual override {\r... */\n      pop\n      pop\n      pop\n      jump\t// out\n        /* \"NFT-Contracts/contracts/market_deploy/ERC721.sol\":4352:4526  function tokenByIndex(uint256 index) external view virtual override returns (uint256) {\r... */\n    tag_62:\n        /* \"NFT-Contracts/contracts/market_deploy/ERC721.sol\":4429:4436  uint256 */\n      0x00\n        /* \"NFT-Contracts/contracts/market_deploy/ERC721.sol\":4450:4465  uint256 tokenId */\n      dup1\n        /* \"NFT-Contracts/contracts/market_deploy/ERC721.sol\":4471:4493  _tokenOwners.at(index) */\n      tag_151\n        /* \"NFT-Contracts/contracts/market_deploy/ERC721.sol\":4487:4492  index */\n      dup4\n        /* \"NFT-Contracts/contracts/market_deploy/ERC721.sol\":4471:4483  _tokenOwners */\n      0x02\n        /* \"NFT-Contracts/contracts/market_deploy/ERC721.sol\":4471:4486  _tokenOwners.at */\n      tag_152\n      swap1\n        /* \"NFT-Contracts/contracts/market_deploy/ERC721.sol\":4471:4493  _tokenOwners.at(index) */\n      swap2\n      swap1\n      0xffffffff\n      and\n      jump\t// in\n    tag_151:\n        /* \"NFT-Contracts/contracts/market_deploy/ERC721.sol\":4449:4493  (uint256 tokenId, ) = _tokenOwners.at(index) */\n      pop\n      swap1\n      pop\n        /* \"NFT-Contracts/contracts/market_deploy/ERC721.sol\":4511:4518  tokenId */\n      dup1\n        /* \"NFT-Contracts/contracts/market_deploy/ERC721.sol\":4504:4518  return tokenId */\n      swap2\n      pop\n      pop\n        /* \"NFT-Contracts/contracts/market_deploy/ERC721.sol\":4352:4526  function tokenByIndex(uint256 index) external view virtual override returns (uint256) {\r... */\n      swap2\n      swap1\n      pop\n      jump\t// out\n        /* \"NFT-Contracts/contracts/market_deploy/ERC721.sol\":2718:2895  function ownerOf(uint256 tokenId) public view virtual override returns (address) {\r... */\n    tag_66:\n        /* \"NFT-Contracts/contracts/market_deploy/ERC721.sol\":2790:2797  address */\n      0x00\n        /* \"NFT-Contracts/contracts/market_deploy/ERC721.sol\":2817:2887  _tokenOwners.get(tokenId, \"ERC721: owner query for nonexistent token\") */\n      tag_154\n        /* \"NFT-Contracts/contracts/market_deploy/ERC721.sol\":2834:2841  tokenId */\n      dup3\n        /* \"NFT-Contracts/contracts/market_deploy/ERC721.sol\":2817:2887  _tokenOwners.get(tokenId, \"ERC721: owner query for nonexistent token\") */\n      mload(0x40)\n      dup1\n      0x60\n      add\n      0x40\n      mstore\n      dup1\n      0x29\n      dup2\n      mstore\n      0x20\n      add\n      data_7481f3df2a424c0755a1ad2356614e9a5a358d461ea2eae1f89cb21cbad00397\n      0x29\n      swap2\n      codecopy\n        /* \"NFT-Contracts/contracts/market_deploy/ERC721.sol\":2817:2829  _tokenOwners */\n      0x02\n        /* \"NFT-Contracts/contracts/market_deploy/ERC721.sol\":2817:2833  _tokenOwners.get */\n      tag_155\n      swap1\n        /* \"NFT-Contracts/contracts/market_deploy/ERC721.sol\":2817:2887  _tokenOwners.get(tokenId, \"ERC721: owner query for nonexistent token\") */\n      swap3\n      swap2\n      swap1\n      0xffffffff\n      and\n      jump\t// in\n    tag_154:\n        /* \"NFT-Contracts/contracts/market_deploy/ERC721.sol\":2810:2887  return _tokenOwners.get(tokenId, \"ERC721: owner query for nonexistent token\") */\n      swap1\n      pop\n        /* \"NFT-Contracts/contracts/market_deploy/ERC721.sol\":2718:2895  function ownerOf(uint256 tokenId) public view virtual override returns (address) {\r... */\n      swap2\n      swap1\n      pop\n      jump\t// out\n        /* \"NFT-Contracts/contracts/market_deploy/ERC721.sol\":3689:3786  function baseURI() public view virtual returns (string memory) {\r... */\n    tag_69:\n        /* \"NFT-Contracts/contracts/market_deploy/ERC721.sol\":3737:3750  string memory */\n      0x60\n        /* \"NFT-Contracts/contracts/market_deploy/ERC721.sol\":3770:3778  _baseURI */\n      0x0b\n        /* \"NFT-Contracts/contracts/market_deploy/ERC721.sol\":3763:3778  return _baseURI */\n      dup1\n      sload\n      tag_157\n      swap1\n      tag_107\n      jump\t// in\n    tag_157:\n      dup1\n      0x1f\n      add\n      0x20\n      dup1\n      swap2\n      div\n      mul\n      0x20\n      add\n      mload(0x40)\n      swap1\n      dup2\n      add\n      0x40\n      mstore\n      dup1\n      swap3\n      swap2\n      swap1\n      dup2\n      dup2\n      mstore\n      0x20\n      add\n      dup3\n      dup1\n      sload\n      tag_158\n      swap1\n      tag_107\n      jump\t// in\n    tag_158:\n      dup1\n      iszero\n      tag_159\n      jumpi\n      dup1\n      0x1f\n      lt\n      tag_160\n      jumpi\n      0x0100\n      dup1\n      dup4\n      sload\n      div\n      mul\n      dup4\n      mstore\n      swap2\n      0x20\n      add\n      swap2\n      jump(tag_159)\n    tag_160:\n      dup3\n      add\n      swap2\n      swap1\n      0x00\n      mstore\n      keccak256(0x00, 0x20)\n      swap1\n    tag_161:\n      dup2\n      sload\n      dup2\n      mstore\n      swap1\n      0x01\n      add\n      swap1\n      0x20\n      add\n      dup1\n      dup4\n      gt\n      tag_161\n      jumpi\n      dup3\n      swap1\n      sub\n      0x1f\n      and\n      dup3\n      add\n      swap2\n    tag_159:\n      pop\n      pop\n      pop\n      pop\n      pop\n      swap1\n      pop\n        /* \"NFT-Contracts/contracts/market_deploy/ERC721.sol\":3689:3786  function baseURI() public view virtual returns (string memory) {\r... */\n      swap1\n      jump\t// out\n        /* \"NFT-Contracts/contracts/market_deploy/ERC721.sol\":2300:2523  function balanceOf(address owner) external view virtual override returns (uint256) {\r... */\n    tag_74:\n        /* \"NFT-Contracts/contracts/market_deploy/ERC721.sol\":2374:2381  uint256 */\n      0x00\n        /* \"NFT-Contracts/contracts/market_deploy/ERC721.sol\":2419:2420  0 */\n      dup1\n        /* \"NFT-Contracts/contracts/market_deploy/ERC721.sol\":2402:2421  owner != address(0) */\n      0xffffffffffffffffffffffffffffffffffffffff\n      and\n        /* \"NFT-Contracts/contracts/market_deploy/ERC721.sol\":2402:2407  owner */\n      dup3\n        /* \"NFT-Contracts/contracts/market_deploy/ERC721.sol\":2402:2421  owner != address(0) */\n      0xffffffffffffffffffffffffffffffffffffffff\n      and\n      eq\n      iszero\n        /* \"NFT-Contracts/contracts/market_deploy/ERC721.sol\":2394:2468  require(owner != address(0), \"ERC721: balance query for the zero address\") */\n      tag_163\n      jumpi\n      mload(0x40)\n      0x08c379a000000000000000000000000000000000000000000000000000000000\n      dup2\n      mstore\n      0x04\n      add\n      tag_164\n      swap1\n      tag_165\n      jump\t// in\n    tag_164:\n      mload(0x40)\n      dup1\n      swap2\n      sub\n      swap1\n      revert\n    tag_163:\n        /* \"NFT-Contracts/contracts/market_deploy/ERC721.sol\":2486:2515  _holderTokens[owner].length() */\n      tag_166\n        /* \"NFT-Contracts/contracts/market_deploy/ERC721.sol\":2486:2499  _holderTokens */\n      0x01\n        /* \"NFT-Contracts/contracts/market_deploy/ERC721.sol\":2486:2506  _holderTokens[owner] */\n      0x00\n        /* \"NFT-Contracts/contracts/market_deploy/ERC721.sol\":2500:2505  owner */\n      dup5\n        /* \"NFT-Contracts/contracts/market_deploy/ERC721.sol\":2486:2506  _holderTokens[owner] */\n      0xffffffffffffffffffffffffffffffffffffffff\n      and\n      0xffffffffffffffffffffffffffffffffffffffff\n      and\n      dup2\n      mstore\n      0x20\n      add\n      swap1\n      dup2\n      mstore\n      0x20\n      add\n      0x00\n      keccak256\n        /* \"NFT-Contracts/contracts/market_deploy/ERC721.sol\":2486:2513  _holderTokens[owner].length */\n      tag_167\n        /* \"NFT-Contracts/contracts/market_deploy/ERC721.sol\":2486:2515  _holderTokens[owner].length() */\n      jump\t// in\n    tag_166:\n        /* \"NFT-Contracts/contracts/market_deploy/ERC721.sol\":2479:2515  return _holderTokens[owner].length() */\n      swap1\n      pop\n        /* \"NFT-Contracts/contracts/market_deploy/ERC721.sol\":2300:2523  function balanceOf(address owner) external view virtual override returns (uint256) {\r... */\n      swap2\n      swap1\n      pop\n      jump\t// out\n        /* \"NFT-Contracts/contracts/market_deploy/ERC721.sol\":3013:3119  function symbol() external view virtual override returns (string memory) {\r... */\n    tag_77:\n        /* \"NFT-Contracts/contracts/market_deploy/ERC721.sol\":3071:3084  string memory */\n      0x60\n        /* \"NFT-Contracts/contracts/market_deploy/ERC721.sol\":3104:3111  _symbol */\n      0x07\n        /* \"NFT-Contracts/contracts/market_deploy/ERC721.sol\":3097:3111  return _symbol */\n      dup1\n      sload\n      tag_169\n      swap1\n      tag_107\n      jump\t// in\n    tag_169:\n      dup1\n      0x1f\n      add\n      0x20\n      dup1\n      swap2\n      div\n      mul\n      0x20\n      add\n      mload(0x40)\n      swap1\n      dup2\n      add\n      0x40\n      mstore\n      dup1\n      swap3\n      swap2\n      swap1\n      dup2\n      dup2\n      mstore\n      0x20\n      add\n      dup3\n      dup1\n      sload\n      tag_170\n      swap1\n      tag_107\n      jump\t// in\n    tag_170:\n      dup1\n      iszero\n      tag_171\n      jumpi\n      dup1\n      0x1f\n      lt\n      tag_172\n      jumpi\n      0x0100\n      dup1\n      dup4\n      sload\n      div\n      mul\n      dup4\n      mstore\n      swap2\n      0x20\n      add\n      swap2\n      jump(tag_171)\n    tag_172:\n      dup3\n      add\n      swap2\n      swap1\n      0x00\n      mstore\n      keccak256(0x00, 0x20)\n      swap1\n    tag_173:\n      dup2\n      sload\n      dup2\n      mstore\n      swap1\n      0x01\n      add\n      swap1\n      0x20\n      add\n      dup1\n      dup4\n      gt\n      tag_173\n      jumpi\n      dup3\n      swap1\n      sub\n      0x1f\n      and\n      dup3\n      add\n      swap2\n    tag_171:\n      pop\n      pop\n      pop\n      pop\n      pop\n      swap1\n      pop\n        /* \"NFT-Contracts/contracts/market_deploy/ERC721.sol\":3013:3119  function symbol() external view virtual override returns (string memory) {\r... */\n      swap1\n      jump\t// out\n        /* \"NFT-Contracts/contracts/market_deploy/ERC721.sol\":5531:5828  function setApprovalForAll(address operator, bool approved) external virtual override {\r... */\n    tag_82:\n        /* \"NFT-Contracts/contracts/market_deploy/ERC721.sol\":5648:5660  _msgSender() */\n      tag_175\n        /* \"NFT-Contracts/contracts/market_deploy/ERC721.sol\":5648:5658  _msgSender */\n      tag_124\n        /* \"NFT-Contracts/contracts/market_deploy/ERC721.sol\":5648:5660  _msgSender() */\n      jump\t// in\n    tag_175:\n        /* \"NFT-Contracts/contracts/market_deploy/ERC721.sol\":5636:5660  operator != _msgSender() */\n      0xffffffffffffffffffffffffffffffffffffffff\n      and\n        /* \"NFT-Contracts/contracts/market_deploy/ERC721.sol\":5636:5644  operator */\n      dup3\n        /* \"NFT-Contracts/contracts/market_deploy/ERC721.sol\":5636:5660  operator != _msgSender() */\n      0xffffffffffffffffffffffffffffffffffffffff\n      and\n      eq\n      iszero\n        /* \"NFT-Contracts/contracts/market_deploy/ERC721.sol\":5628:5690  require(operator != _msgSender(), \"ERC721: approve to caller\") */\n      tag_176\n      jumpi\n      mload(0x40)\n      0x08c379a000000000000000000000000000000000000000000000000000000000\n      dup2\n      mstore\n      0x04\n      add\n      tag_177\n      swap1\n      tag_178\n      jump\t// in\n    tag_177:\n      mload(0x40)\n      dup1\n      swap2\n      sub\n      swap1\n      revert\n    tag_176:\n        /* \"NFT-Contracts/contracts/market_deploy/ERC721.sol\":5748:5756  approved */\n      dup1\n        /* \"NFT-Contracts/contracts/market_deploy/ERC721.sol\":5703:5721  _operatorApprovals */\n      0x05\n        /* \"NFT-Contracts/contracts/market_deploy/ERC721.sol\":5703:5735  _operatorApprovals[_msgSender()] */\n      0x00\n        /* \"NFT-Contracts/contracts/market_deploy/ERC721.sol\":5722:5734  _msgSender() */\n      tag_179\n        /* \"NFT-Contracts/contracts/market_deploy/ERC721.sol\":5722:5732  _msgSender */\n      tag_124\n        /* \"NFT-Contracts/contracts/market_deploy/ERC721.sol\":5722:5734  _msgSender() */\n      jump\t// in\n    tag_179:\n        /* \"NFT-Contracts/contracts/market_deploy/ERC721.sol\":5703:5735  _operatorApprovals[_msgSender()] */\n      0xffffffffffffffffffffffffffffffffffffffff\n      and\n      0xffffffffffffffffffffffffffffffffffffffff\n      and\n      dup2\n      mstore\n      0x20\n      add\n      swap1\n      dup2\n      mstore\n      0x20\n      add\n      0x00\n      keccak256\n        /* \"NFT-Contracts/contracts/market_deploy/ERC721.sol\":5703:5745  _operatorApprovals[_msgSender()][operator] */\n      0x00\n        /* \"NFT-Contracts/contracts/market_deploy/ERC721.sol\":5736:5744  operator */\n      dup5\n        /* \"NFT-Contracts/contracts/market_deploy/ERC721.sol\":5703:5745  _operatorApprovals[_msgSender()][operator] */\n      0xffffffffffffffffffffffffffffffffffffffff\n      and\n      0xffffffffffffffffffffffffffffffffffffffff\n      and\n      dup2\n      mstore\n      0x20\n      add\n      swap1\n      dup2\n      mstore\n      0x20\n      add\n      0x00\n      keccak256\n      0x00\n        /* \"NFT-Contracts/contracts/market_deploy/ERC721.sol\":5703:5756  _operatorApprovals[_msgSender()][operator] = approved */\n      0x0100\n      exp\n      dup2\n      sload\n      dup2\n      0xff\n      mul\n      not\n      and\n      swap1\n      dup4\n      iszero\n      iszero\n      mul\n      or\n      swap1\n      sstore\n      pop\n        /* \"NFT-Contracts/contracts/market_deploy/ERC721.sol\":5801:5809  operator */\n      dup2\n        /* \"NFT-Contracts/contracts/market_deploy/ERC721.sol\":5772:5820  ApprovalForAll(_msgSender(), operator, approved) */\n      0xffffffffffffffffffffffffffffffffffffffff\n      and\n        /* \"NFT-Contracts/contracts/market_deploy/ERC721.sol\":5787:5799  _msgSender() */\n      tag_180\n        /* \"NFT-Contracts/contracts/market_deploy/ERC721.sol\":5787:5797  _msgSender */\n      tag_124\n        /* \"NFT-Contracts/contracts/market_deploy/ERC721.sol\":5787:5799  _msgSender() */\n      jump\t// in\n    tag_180:\n        /* \"NFT-Contracts/contracts/market_deploy/ERC721.sol\":5772:5820  ApprovalForAll(_msgSender(), operator, approved) */\n      0xffffffffffffffffffffffffffffffffffffffff\n      and\n      0x17307eab39ab6107e8899845ad3d59bd9653f200f220920489ca2b5937696c31\n        /* \"NFT-Contracts/contracts/market_deploy/ERC721.sol\":5811:5819  approved */\n      dup4\n        /* \"NFT-Contracts/contracts/market_deploy/ERC721.sol\":5772:5820  ApprovalForAll(_msgSender(), operator, approved) */\n      mload(0x40)\n      tag_181\n      swap2\n      swap1\n      tag_30\n      jump\t// in\n    tag_181:\n      mload(0x40)\n      dup1\n      swap2\n      sub\n      swap1\n      log3\n        /* \"NFT-Contracts/contracts/market_deploy/ERC721.sol\":5531:5828  function setApprovalForAll(address operator, bool approved) external virtual override {\r... */\n      pop\n      pop\n      jump\t// out\n        /* \"NFT-Contracts/contracts/market_deploy/ERC721.sol\":7822:8109  function safeTransferFrom(address from, address to, uint256 tokenId, bytes memory _data) public virtual override {\r... */\n    tag_86:\n        /* \"NFT-Contracts/contracts/market_deploy/ERC721.sol\":7954:7995  _isApprovedOrOwner(_msgSender(), tokenId) */\n      tag_183\n        /* \"NFT-Contracts/contracts/market_deploy/ERC721.sol\":7973:7985  _msgSender() */\n      tag_184\n        /* \"NFT-Contracts/contracts/market_deploy/ERC721.sol\":7973:7983  _msgSender */\n      tag_124\n        /* \"NFT-Contracts/contracts/market_deploy/ERC721.sol\":7973:7985  _msgSender() */\n      jump\t// in\n    tag_184:\n        /* \"NFT-Contracts/contracts/market_deploy/ERC721.sol\":7987:7994  tokenId */\n      dup4\n        /* \"NFT-Contracts/contracts/market_deploy/ERC721.sol\":7954:7972  _isApprovedOrOwner */\n      tag_139\n        /* \"NFT-Contracts/contracts/market_deploy/ERC721.sol\":7954:7995  _isApprovedOrOwner(_msgSender(), tokenId) */\n      jump\t// in\n    tag_183:\n        /* \"NFT-Contracts/contracts/market_deploy/ERC721.sol\":7946:8049  require(_isApprovedOrOwner(_msgSender(), tokenId), \"ERC721: transfer caller is not owner nor approved\") */\n      tag_185\n      jumpi\n      mload(0x40)\n      0x08c379a000000000000000000000000000000000000000000000000000000000\n      dup2\n      mstore\n      0x04\n      add\n      tag_186\n      swap1\n      tag_142\n      jump\t// in\n    tag_186:\n      mload(0x40)\n      dup1\n      swap2\n      sub\n      swap1\n      revert\n    tag_185:\n        /* \"NFT-Contracts/contracts/market_deploy/ERC721.sol\":8060:8099  _safeTransfer(from, to, tokenId, _data) */\n      tag_187\n        /* \"NFT-Contracts/contracts/market_deploy/ERC721.sol\":8074:8078  from */\n      dup5\n        /* \"NFT-Contracts/contracts/market_deploy/ERC721.sol\":8080:8082  to */\n      dup5\n        /* \"NFT-Contracts/contracts/market_deploy/ERC721.sol\":8084:8091  tokenId */\n      dup5\n        /* \"NFT-Contracts/contracts/market_deploy/ERC721.sol\":8093:8098  _data */\n      dup5\n        /* \"NFT-Contracts/contracts/market_deploy/ERC721.sol\":8060:8073  _safeTransfer */\n      tag_188\n        /* \"NFT-Contracts/contracts/market_deploy/ERC721.sol\":8060:8099  _safeTransfer(from, to, tokenId, _data) */\n      jump\t// in\n    tag_187:\n        /* \"NFT-Contracts/contracts/market_deploy/ERC721.sol\":7822:8109  function safeTransferFrom(address from, address to, uint256 tokenId, bytes memory _data) public virtual override {\r... */\n      pop\n      pop\n      pop\n      pop\n      jump\t// out\n        /* \"NFT-Contracts/contracts/market_deploy/ERC721.sol\":3794:3917  function royaltyFee(uint256 tokenId) external view override returns(uint256) {\r... */\n    tag_89:\n        /* \"NFT-Contracts/contracts/market_deploy/ERC721.sol\":3862:3869  uint256 */\n      0x00\n        /* \"NFT-Contracts/contracts/market_deploy/ERC721.sol\":3889:3900  _royaltyFee */\n      0x09\n        /* \"NFT-Contracts/contracts/market_deploy/ERC721.sol\":3889:3909  _royaltyFee[tokenId] */\n      0x00\n        /* \"NFT-Contracts/contracts/market_deploy/ERC721.sol\":3901:3908  tokenId */\n      dup4\n        /* \"NFT-Contracts/contracts/market_deploy/ERC721.sol\":3889:3909  _royaltyFee[tokenId] */\n      dup2\n      mstore\n      0x20\n      add\n      swap1\n      dup2\n      mstore\n      0x20\n      add\n      0x00\n      keccak256\n      sload\n        /* \"NFT-Contracts/contracts/market_deploy/ERC721.sol\":3882:3909  return _royaltyFee[tokenId] */\n      swap1\n      pop\n        /* \"NFT-Contracts/contracts/market_deploy/ERC721.sol\":3794:3917  function royaltyFee(uint256 tokenId) external view override returns(uint256) {\r... */\n      swap2\n      swap1\n      pop\n      jump\t// out\n        /* \"NFT-Contracts/contracts/market_deploy/ERC721.sol\":3127:3681  function tokenURI(uint256 tokenId) external view virtual override returns (string memory) {\r... */\n    tag_93:\n        /* \"NFT-Contracts/contracts/market_deploy/ERC721.sol\":3202:3215  string memory */\n      0x60\n        /* \"NFT-Contracts/contracts/market_deploy/ERC721.sol\":3236:3252  _exists(tokenId) */\n      tag_191\n        /* \"NFT-Contracts/contracts/market_deploy/ERC721.sol\":3244:3251  tokenId */\n      dup3\n        /* \"NFT-Contracts/contracts/market_deploy/ERC721.sol\":3236:3243  _exists */\n      tag_114\n        /* \"NFT-Contracts/contracts/market_deploy/ERC721.sol\":3236:3252  _exists(tokenId) */\n      jump\t// in\n    tag_191:\n        /* \"NFT-Contracts/contracts/market_deploy/ERC721.sol\":3228:3304  require(_exists(tokenId), \"ERC721Metadata: URI query for nonexistent token\") */\n      tag_192\n      jumpi\n      mload(0x40)\n      0x08c379a000000000000000000000000000000000000000000000000000000000\n      dup2\n      mstore\n      0x04\n      add\n      tag_193\n      swap1\n      tag_194\n      jump\t// in\n    tag_193:\n      mload(0x40)\n      dup1\n      swap2\n      sub\n      swap1\n      revert\n    tag_192:\n        /* \"NFT-Contracts/contracts/market_deploy/ERC721.sol\":3317:3340  string memory _tokenURI */\n      0x00\n        /* \"NFT-Contracts/contracts/market_deploy/ERC721.sol\":3343:3353  _tokenURIs */\n      0x08\n        /* \"NFT-Contracts/contracts/market_deploy/ERC721.sol\":3343:3362  _tokenURIs[tokenId] */\n      0x00\n        /* \"NFT-Contracts/contracts/market_deploy/ERC721.sol\":3354:3361  tokenId */\n      dup5\n        /* \"NFT-Contracts/contracts/market_deploy/ERC721.sol\":3343:3362  _tokenURIs[tokenId] */\n      dup2\n      mstore\n      0x20\n      add\n      swap1\n      dup2\n      mstore\n      0x20\n      add\n      0x00\n      keccak256\n        /* \"NFT-Contracts/contracts/market_deploy/ERC721.sol\":3317:3362  string memory _tokenURI = _tokenURIs[tokenId] */\n      dup1\n      sload\n      tag_195\n      swap1\n      tag_107\n      jump\t// in\n    tag_195:\n      dup1\n      0x1f\n      add\n      0x20\n      dup1\n      swap2\n      div\n      mul\n      0x20\n      add\n      mload(0x40)\n      swap1\n      dup2\n      add\n      0x40\n      mstore\n      dup1\n      swap3\n      swap2\n      swap1\n      dup2\n      dup2\n      mstore\n      0x20\n      add\n      dup3\n      dup1\n      sload\n      tag_196\n      swap1\n      tag_107\n      jump\t// in\n    tag_196:\n      dup1\n      iszero\n      tag_197\n      jumpi\n      dup1\n      0x1f\n      lt\n      tag_198\n      jumpi\n      0x0100\n      dup1\n      dup4\n      sload\n      div\n      mul\n      dup4\n      mstore\n      swap2\n      0x20\n      add\n      swap2\n      jump(tag_197)\n    tag_198:\n      dup3\n      add\n      swap2\n      swap1\n      0x00\n      mstore\n      keccak256(0x00, 0x20)\n      swap1\n    tag_199:\n      dup2\n      sload\n      dup2\n      mstore\n      swap1\n      0x01\n      add\n      swap1\n      0x20\n      add\n      dup1\n      dup4\n      gt\n      tag_199\n      jumpi\n      dup3\n      swap1\n      sub\n      0x1f\n      and\n      dup3\n      add\n      swap2\n    tag_197:\n      pop\n      pop\n      pop\n      pop\n      pop\n      swap1\n      pop\n        /* \"NFT-Contracts/contracts/market_deploy/ERC721.sol\":3373:3391  string memory base */\n      0x00\n        /* \"NFT-Contracts/contracts/market_deploy/ERC721.sol\":3394:3403  baseURI() */\n      tag_200\n        /* \"NFT-Contracts/contracts/market_deploy/ERC721.sol\":3394:3401  baseURI */\n      tag_69\n        /* \"NFT-Contracts/contracts/market_deploy/ERC721.sol\":3394:3403  baseURI() */\n      jump\t// in\n    tag_200:\n        /* \"NFT-Contracts/contracts/market_deploy/ERC721.sol\":3373:3403  string memory base = baseURI() */\n      swap1\n      pop\n        /* \"NFT-Contracts/contracts/market_deploy/ERC721.sol\":3442:3443  0 */\n      0x00\n        /* \"NFT-Contracts/contracts/market_deploy/ERC721.sol\":3426:3430  base */\n      dup2\n        /* \"NFT-Contracts/contracts/market_deploy/ERC721.sol\":3420:3438  bytes(base).length */\n      mload\n        /* \"NFT-Contracts/contracts/market_deploy/ERC721.sol\":3420:3443  bytes(base).length == 0 */\n      eq\n        /* \"NFT-Contracts/contracts/market_deploy/ERC721.sol\":3416:3488  if (bytes(base).length == 0) {\r... */\n      iszero\n      tag_201\n      jumpi\n        /* \"NFT-Contracts/contracts/market_deploy/ERC721.sol\":3467:3476  _tokenURI */\n      dup2\n        /* \"NFT-Contracts/contracts/market_deploy/ERC721.sol\":3460:3476  return _tokenURI */\n      swap3\n      pop\n      pop\n      pop\n      jump(tag_190)\n        /* \"NFT-Contracts/contracts/market_deploy/ERC721.sol\":3416:3488  if (bytes(base).length == 0) {\r... */\n    tag_201:\n        /* \"NFT-Contracts/contracts/market_deploy/ERC721.sol\":3528:3529  0 */\n      0x00\n        /* \"NFT-Contracts/contracts/market_deploy/ERC721.sol\":3508:3517  _tokenURI */\n      dup3\n        /* \"NFT-Contracts/contracts/market_deploy/ERC721.sol\":3502:3525  bytes(_tokenURI).length */\n      mload\n        /* \"NFT-Contracts/contracts/market_deploy/ERC721.sol\":3502:3529  bytes(_tokenURI).length > 0 */\n      gt\n        /* \"NFT-Contracts/contracts/market_deploy/ERC721.sol\":3498:3606  if (bytes(_tokenURI).length > 0) {\r... */\n      iszero\n      tag_202\n      jumpi\n        /* \"NFT-Contracts/contracts/market_deploy/ERC721.sol\":3577:3581  base */\n      dup1\n        /* \"NFT-Contracts/contracts/market_deploy/ERC721.sol\":3583:3592  _tokenURI */\n      dup3\n        /* \"NFT-Contracts/contracts/market_deploy/ERC721.sol\":3560:3593  abi.encodePacked(base, _tokenURI) */\n      add(0x20, mload(0x40))\n      tag_203\n      swap3\n      swap2\n      swap1\n      tag_204\n      jump\t// in\n    tag_203:\n      mload(0x40)\n      0x20\n      dup2\n      dup4\n      sub\n      sub\n      dup2\n      mstore\n      swap1\n      0x40\n      mstore\n        /* \"NFT-Contracts/contracts/market_deploy/ERC721.sol\":3546:3594  return string(abi.encodePacked(base, _tokenURI)) */\n      swap3\n      pop\n      pop\n      pop\n      jump(tag_190)\n        /* \"NFT-Contracts/contracts/market_deploy/ERC721.sol\":3498:3606  if (bytes(_tokenURI).length > 0) {\r... */\n    tag_202:\n        /* \"NFT-Contracts/contracts/market_deploy/ERC721.sol\":3647:3651  base */\n      dup1\n        /* \"NFT-Contracts/contracts/market_deploy/ERC721.sol\":3653:3671  tokenId.toString() */\n      tag_205\n        /* \"NFT-Contracts/contracts/market_deploy/ERC721.sol\":3653:3660  tokenId */\n      dup6\n        /* \"NFT-Contracts/contracts/market_deploy/ERC721.sol\":3653:3669  tokenId.toString */\n      tag_206\n        /* \"NFT-Contracts/contracts/market_deploy/ERC721.sol\":3653:3671  tokenId.toString() */\n      jump\t// in\n    tag_205:\n        /* \"NFT-Contracts/contracts/market_deploy/ERC721.sol\":3630:3672  abi.encodePacked(base, tokenId.toString()) */\n      add(0x20, mload(0x40))\n      tag_207\n      swap3\n      swap2\n      swap1\n      tag_204\n      jump\t// in\n    tag_207:\n      mload(0x40)\n      0x20\n      dup2\n      dup4\n      sub\n      sub\n      dup2\n      mstore\n      swap1\n      0x40\n      mstore\n        /* \"NFT-Contracts/contracts/market_deploy/ERC721.sol\":3616:3673  return string(abi.encodePacked(base, tokenId.toString())) */\n      swap3\n      pop\n      pop\n      pop\n        /* \"NFT-Contracts/contracts/market_deploy/ERC721.sol\":3127:3681  function tokenURI(uint256 tokenId) external view virtual override returns (string memory) {\r... */\n    tag_190:\n      swap2\n      swap1\n      pop\n      jump\t// out\n        /* \"NFT-Contracts/contracts/market_deploy/ERC721.sol\":3925:4045  function getCreator(uint256 tokenId) external view override returns(address) {\r... */\n    tag_97:\n        /* \"NFT-Contracts/contracts/market_deploy/ERC721.sol\":3993:4000  address */\n      0x00\n        /* \"NFT-Contracts/contracts/market_deploy/ERC721.sol\":4020:4028  _creator */\n      0x0a\n        /* \"NFT-Contracts/contracts/market_deploy/ERC721.sol\":4020:4037  _creator[tokenId] */\n      0x00\n        /* \"NFT-Contracts/contracts/market_deploy/ERC721.sol\":4029:4036  tokenId */\n      dup4\n        /* \"NFT-Contracts/contracts/market_deploy/ERC721.sol\":4020:4037  _creator[tokenId] */\n      dup2\n      mstore\n      0x20\n      add\n      swap1\n      dup2\n      mstore\n      0x20\n      add\n      0x00\n      keccak256\n      0x00\n      swap1\n      sload\n      swap1\n      0x0100\n      exp\n      swap1\n      div\n      0xffffffffffffffffffffffffffffffffffffffff\n      and\n        /* \"NFT-Contracts/contracts/market_deploy/ERC721.sol\":4013:4037  return _creator[tokenId] */\n      swap1\n      pop\n        /* \"NFT-Contracts/contracts/market_deploy/ERC721.sol\":3925:4045  function getCreator(uint256 tokenId) external view override returns(address) {\r... */\n      swap2\n      swap1\n      pop\n      jump\t// out\n        /* \"NFT-Contracts/contracts/market_deploy/ERC721.sol\":6115:6279  function isApprovedForAll(address owner, address operator) public view virtual override returns (bool) {\r... */\n    tag_102:\n        /* \"NFT-Contracts/contracts/market_deploy/ERC721.sol\":6212:6216  bool */\n      0x00\n        /* \"NFT-Contracts/contracts/market_deploy/ERC721.sol\":6236:6254  _operatorApprovals */\n      0x05\n        /* \"NFT-Contracts/contracts/market_deploy/ERC721.sol\":6236:6261  _operatorApprovals[owner] */\n      0x00\n        /* \"NFT-Contracts/contracts/market_deploy/ERC721.sol\":6255:6260  owner */\n      dup5\n        /* \"NFT-Contracts/contracts/market_deploy/ERC721.sol\":6236:6261  _operatorApprovals[owner] */\n      0xffffffffffffffffffffffffffffffffffffffff\n      and\n      0xffffffffffffffffffffffffffffffffffffffff\n      and\n      dup2\n      mstore\n      0x20\n      add\n      swap1\n      dup2\n      mstore\n      0x20\n      add\n      0x00\n      keccak256\n        /* \"NFT-Contracts/contracts/market_deploy/ERC721.sol\":6236:6271  _operatorApprovals[owner][operator] */\n      0x00\n        /* \"NFT-Contracts/contracts/market_deploy/ERC721.sol\":6262:6270  operator */\n      dup4\n        /* \"NFT-Contracts/contracts/market_deploy/ERC721.sol\":6236:6271  _operatorApprovals[owner][operator] */\n      0xffffffffffffffffffffffffffffffffffffffff\n      and\n      0xffffffffffffffffffffffffffffffffffffffff\n      and\n      dup2\n      mstore\n      0x20\n      add\n      swap1\n      dup2\n      mstore\n      0x20\n      add\n      0x00\n      keccak256\n      0x00\n      swap1\n      sload\n      swap1\n      0x0100\n      exp\n      swap1\n      div\n      0xff\n      and\n        /* \"NFT-Contracts/contracts/market_deploy/ERC721.sol\":6229:6271  return _operatorApprovals[owner][operator] */\n      swap1\n      pop\n        /* \"NFT-Contracts/contracts/market_deploy/ERC721.sol\":6115:6279  function isApprovedForAll(address owner, address operator) public view virtual override returns (bool) {\r... */\n      swap3\n      swap2\n      pop\n      pop\n      jump\t// out\n        /* \"NFT-Contracts/contracts/market_deploy/ERC721.sol\":8397:8524  function _exists(uint256 tokenId) internal view virtual returns (bool) {\r... */\n    tag_114:\n        /* \"NFT-Contracts/contracts/market_deploy/ERC721.sol\":8462:8466  bool */\n      0x00\n        /* \"NFT-Contracts/contracts/market_deploy/ERC721.sol\":8486:8516  _tokenOwners.contains(tokenId) */\n      tag_211\n        /* \"NFT-Contracts/contracts/market_deploy/ERC721.sol\":8508:8515  tokenId */\n      dup3\n        /* \"NFT-Contracts/contracts/market_deploy/ERC721.sol\":8486:8498  _tokenOwners */\n      0x02\n        /* \"NFT-Contracts/contracts/market_deploy/ERC721.sol\":8486:8507  _tokenOwners.contains */\n      tag_212\n      swap1\n        /* \"NFT-Contracts/contracts/market_deploy/ERC721.sol\":8486:8516  _tokenOwners.contains(tokenId) */\n      swap2\n      swap1\n      0xffffffff\n      and\n      jump\t// in\n    tag_211:\n        /* \"NFT-Contracts/contracts/market_deploy/ERC721.sol\":8479:8516  return _tokenOwners.contains(tokenId) */\n      swap1\n      pop\n        /* \"NFT-Contracts/contracts/market_deploy/ERC721.sol\":8397:8524  function _exists(uint256 tokenId) internal view virtual returns (bool) {\r... */\n      swap2\n      swap1\n      pop\n      jump\t// out\n        /* \"NFT-Contracts/contracts/market_deploy/Context.sol\":145:260  function _msgSender() internal view virtual returns (address payable) {\r... */\n    tag_124:\n        /* \"NFT-Contracts/contracts/market_deploy/Context.sol\":198:213  address payable */\n      0x00\n        /* \"NFT-Contracts/contracts/market_deploy/Context.sol\":241:251  msg.sender */\n      caller\n        /* \"NFT-Contracts/contracts/market_deploy/Context.sol\":226:252  return payable(msg.sender) */\n      swap1\n      pop\n        /* \"NFT-Contracts/contracts/market_deploy/Context.sol\":145:260  function _msgSender() internal view virtual returns (address payable) {\r... */\n      swap1\n      jump\t// out\n        /* \"NFT-Contracts/contracts/market_deploy/ERC721.sol\":12478:12670  function _approve(address to, uint256 tokenId) internal virtual {\r... */\n    tag_132:\n        /* \"NFT-Contracts/contracts/market_deploy/ERC721.sol\":12580:12582  to */\n      dup2\n        /* \"NFT-Contracts/contracts/market_deploy/ERC721.sol\":12553:12568  _tokenApprovals */\n      0x04\n        /* \"NFT-Contracts/contracts/market_deploy/ERC721.sol\":12553:12577  _tokenApprovals[tokenId] */\n      0x00\n        /* \"NFT-Contracts/contracts/market_deploy/ERC721.sol\":12569:12576  tokenId */\n      dup4\n        /* \"NFT-Contracts/contracts/market_deploy/ERC721.sol\":12553:12577  _tokenApprovals[tokenId] */\n      dup2\n      mstore\n      0x20\n      add\n      swap1\n      dup2\n      mstore\n      0x20\n      add\n      0x00\n      keccak256\n      0x00\n        /* \"NFT-Contracts/contracts/market_deploy/ERC721.sol\":12553:12582  _tokenApprovals[tokenId] = to */\n      0x0100\n      exp\n      dup2\n      sload\n      dup2\n      0xffffffffffffffffffffffffffffffffffffffff\n      mul\n      not\n      and\n      swap1\n      dup4\n      0xffffffffffffffffffffffffffffffffffffffff\n      and\n      mul\n      or\n      swap1\n      sstore\n      pop\n        /* \"NFT-Contracts/contracts/market_deploy/ERC721.sol\":12636:12643  tokenId */\n      dup1\n        /* \"NFT-Contracts/contracts/market_deploy/ERC721.sol\":12632:12634  to */\n      dup3\n        /* \"NFT-Contracts/contracts/market_deploy/ERC721.sol\":12598:12644  Approval(ERC721.ownerOf(tokenId), to, tokenId) */\n      0xffffffffffffffffffffffffffffffffffffffff\n      and\n        /* \"NFT-Contracts/contracts/market_deploy/ERC721.sol\":12607:12630  ERC721.ownerOf(tokenId) */\n      tag_215\n        /* \"NFT-Contracts/contracts/market_deploy/ERC721.sol\":12622:12629  tokenId */\n      dup4\n        /* \"NFT-Contracts/contracts/market_deploy/ERC721.sol\":12607:12621  ERC721.ownerOf */\n      tag_66\n        /* \"NFT-Contracts/contracts/market_deploy/ERC721.sol\":12607:12630  ERC721.ownerOf(tokenId) */\n      jump\t// in\n    tag_215:\n        /* \"NFT-Contracts/contracts/market_deploy/ERC721.sol\":12598:12644  Approval(ERC721.ownerOf(tokenId), to, tokenId) */\n      0xffffffffffffffffffffffffffffffffffffffff\n      and\n      0x8c5be1e5ebec7d5bd14f71427d1e84f3dd0314c0f7b2291e5b200ac8c7c3b925\n      mload(0x40)\n      mload(0x40)\n      dup1\n      swap2\n      sub\n      swap1\n      log4\n        /* \"NFT-Contracts/contracts/market_deploy/ERC721.sol\":12478:12670  function _approve(address to, uint256 tokenId) internal virtual {\r... */\n      pop\n      pop\n      jump\t// out\n        /* \"NFT-Contracts/contracts/market_deploy/EnumerableMap.sol\":2919:3042  function length(UintToAddressMap storage map) internal view returns (uint256) {\r... */\n    tag_135:\n        /* \"NFT-Contracts/contracts/market_deploy/EnumerableMap.sol\":2988:2995  uint256 */\n      0x00\n        /* \"NFT-Contracts/contracts/market_deploy/EnumerableMap.sol\":3015:3034  _length(map._inner) */\n      tag_217\n        /* \"NFT-Contracts/contracts/market_deploy/EnumerableMap.sol\":3023:3026  map */\n      dup3\n        /* \"NFT-Contracts/contracts/market_deploy/EnumerableMap.sol\":3023:3033  map._inner */\n      0x00\n      add\n        /* \"NFT-Contracts/contracts/market_deploy/EnumerableMap.sol\":3015:3022  _length */\n      tag_218\n        /* \"NFT-Contracts/contracts/market_deploy/EnumerableMap.sol\":3015:3034  _length(map._inner) */\n      jump\t// in\n    tag_217:\n        /* \"NFT-Contracts/contracts/market_deploy/EnumerableMap.sol\":3008:3034  return _length(map._inner) */\n      swap1\n      pop\n        /* \"NFT-Contracts/contracts/market_deploy/EnumerableMap.sol\":2919:3042  function length(UintToAddressMap storage map) internal view returns (uint256) {\r... */\n      swap2\n      swap1\n      pop\n      jump\t// out\n        /* \"NFT-Contracts/contracts/market_deploy/ERC721.sol\":8532:8887  function _isApprovedOrOwner(address spender, uint256 tokenId) internal view virtual returns (bool) {\r... */\n    tag_139:\n        /* \"NFT-Contracts/contracts/market_deploy/ERC721.sol\":8625:8629  bool */\n      0x00\n        /* \"NFT-Contracts/contracts/market_deploy/ERC721.sol\":8650:8666  _exists(tokenId) */\n      tag_220\n        /* \"NFT-Contracts/contracts/market_deploy/ERC721.sol\":8658:8665  tokenId */\n      dup3\n        /* \"NFT-Contracts/contracts/market_deploy/ERC721.sol\":8650:8657  _exists */\n      tag_114\n        /* \"NFT-Contracts/contracts/market_deploy/ERC721.sol\":8650:8666  _exists(tokenId) */\n      jump\t// in\n    tag_220:\n        /* \"NFT-Contracts/contracts/market_deploy/ERC721.sol\":8642:8715  require(_exists(tokenId), \"ERC721: operator query for nonexistent token\") */\n      tag_221\n      jumpi\n      mload(0x40)\n      0x08c379a000000000000000000000000000000000000000000000000000000000\n      dup2\n      mstore\n      0x04\n      add\n      tag_222\n      swap1\n      tag_223\n      jump\t// in\n    tag_222:\n      mload(0x40)\n      dup1\n      swap2\n      sub\n      swap1\n      revert\n    tag_221:\n        /* \"NFT-Contracts/contracts/market_deploy/ERC721.sol\":8726:8739  address owner */\n      0x00\n        /* \"NFT-Contracts/contracts/market_deploy/ERC721.sol\":8742:8765  ERC721.ownerOf(tokenId) */\n      tag_224\n        /* \"NFT-Contracts/contracts/market_deploy/ERC721.sol\":8757:8764  tokenId */\n      dup4\n        /* \"NFT-Contracts/contracts/market_deploy/ERC721.sol\":8742:8756  ERC721.ownerOf */\n      tag_66\n        /* \"NFT-Contracts/contracts/market_deploy/ERC721.sol\":8742:8765  ERC721.ownerOf(tokenId) */\n      jump\t// in\n    tag_224:\n        /* \"NFT-Contracts/contracts/market_deploy/ERC721.sol\":8726:8765  address owner = ERC721.ownerOf(tokenId) */\n      swap1\n      pop\n        /* \"NFT-Contracts/contracts/market_deploy/ERC721.sol\":8795:8800  owner */\n      dup1\n        /* \"NFT-Contracts/contracts/market_deploy/ERC721.sol\":8784:8800  spender == owner */\n      0xffffffffffffffffffffffffffffffffffffffff\n      and\n        /* \"NFT-Contracts/contracts/market_deploy/ERC721.sol\":8784:8791  spender */\n      dup5\n        /* \"NFT-Contracts/contracts/market_deploy/ERC721.sol\":8784:8800  spender == owner */\n      0xffffffffffffffffffffffffffffffffffffffff\n      and\n      eq\n        /* \"NFT-Contracts/contracts/market_deploy/ERC721.sol\":8784:8835  spender == owner || getApproved(tokenId) == spender */\n      dup1\n      tag_225\n      jumpi\n      pop\n        /* \"NFT-Contracts/contracts/market_deploy/ERC721.sol\":8828:8835  spender */\n      dup4\n        /* \"NFT-Contracts/contracts/market_deploy/ERC721.sol\":8804:8835  getApproved(tokenId) == spender */\n      0xffffffffffffffffffffffffffffffffffffffff\n      and\n        /* \"NFT-Contracts/contracts/market_deploy/ERC721.sol\":8804:8824  getApproved(tokenId) */\n      tag_226\n        /* \"NFT-Contracts/contracts/market_deploy/ERC721.sol\":8816:8823  tokenId */\n      dup5\n        /* \"NFT-Contracts/contracts/market_deploy/ERC721.sol\":8804:8815  getApproved */\n      tag_38\n        /* \"NFT-Contracts/contracts/market_deploy/ERC721.sol\":8804:8824  getApproved(tokenId) */\n      jump\t// in\n    tag_226:\n        /* \"NFT-Contracts/contracts/market_deploy/ERC721.sol\":8804:8835  getApproved(tokenId) == spender */\n      0xffffffffffffffffffffffffffffffffffffffff\n      and\n      eq\n        /* \"NFT-Contracts/contracts/market_deploy/ERC721.sol\":8784:8835  spender == owner || getApproved(tokenId) == spender */\n    tag_225:\n        /* \"NFT-Contracts/contracts/market_deploy/ERC721.sol\":8784:8878  spender == owner || getApproved(tokenId) == spender || ERC721.isApprovedForAll(owner, spender) */\n      dup1\n      tag_227\n      jumpi\n      pop\n        /* \"NFT-Contracts/contracts/market_deploy/ERC721.sol\":8839:8878  ERC721.isApprovedForAll(owner, spender) */\n      tag_228\n        /* \"NFT-Contracts/contracts/market_deploy/ERC721.sol\":8863:8868  owner */\n      dup2\n        /* \"NFT-Contracts/contracts/market_deploy/ERC721.sol\":8870:8877  spender */\n      dup6\n        /* \"NFT-Contracts/contracts/market_deploy/ERC721.sol\":8839:8862  ERC721.isApprovedForAll */\n      tag_102\n        /* \"NFT-Contracts/contracts/market_deploy/ERC721.sol\":8839:8878  ERC721.isApprovedForAll(owner, spender) */\n      jump\t// in\n    tag_228:\n        /* \"NFT-Contracts/contracts/market_deploy/ERC721.sol\":8784:8878  spender == owner || getApproved(tokenId) == spender || ERC721.isApprovedForAll(owner, spender) */\n    tag_227:\n        /* \"NFT-Contracts/contracts/market_deploy/ERC721.sol\":8776:8879  return (spender == owner || getApproved(tokenId) == spender || ERC721.isApprovedForAll(owner, spender)) */\n      swap2\n      pop\n      pop\n        /* \"NFT-Contracts/contracts/market_deploy/ERC721.sol\":8532:8887  function _isApprovedOrOwner(address spender, uint256 tokenId) internal view virtual returns (bool) {\r... */\n      swap3\n      swap2\n      pop\n      pop\n      jump\t// out\n        /* \"NFT-Contracts/contracts/market_deploy/ERC721.sol\":10654:11201  function _transfer(address from, address to, uint256 tokenId) internal virtual {\r... */\n    tag_144:\n        /* \"NFT-Contracts/contracts/market_deploy/ERC721.sol\":10779:10783  from */\n      dup3\n        /* \"NFT-Contracts/contracts/market_deploy/ERC721.sol\":10752:10783  ERC721.ownerOf(tokenId) == from */\n      0xffffffffffffffffffffffffffffffffffffffff\n      and\n        /* \"NFT-Contracts/contracts/market_deploy/ERC721.sol\":10752:10775  ERC721.ownerOf(tokenId) */\n      tag_230\n        /* \"NFT-Contracts/contracts/market_deploy/ERC721.sol\":10767:10774  tokenId */\n      dup3\n        /* \"NFT-Contracts/contracts/market_deploy/ERC721.sol\":10752:10766  ERC721.ownerOf */\n      tag_66\n        /* \"NFT-Contracts/contracts/market_deploy/ERC721.sol\":10752:10775  ERC721.ownerOf(tokenId) */\n      jump\t// in\n    tag_230:\n        /* \"NFT-Contracts/contracts/market_deploy/ERC721.sol\":10752:10783  ERC721.ownerOf(tokenId) == from */\n      0xffffffffffffffffffffffffffffffffffffffff\n      and\n      eq\n        /* \"NFT-Contracts/contracts/market_deploy/ERC721.sol\":10744:10829  require(ERC721.ownerOf(tokenId) == from, \"ERC721: transfer of token that is not own\") */\n      tag_231\n      jumpi\n      mload(0x40)\n      0x08c379a000000000000000000000000000000000000000000000000000000000\n      dup2\n      mstore\n      0x04\n      add\n      tag_232\n      swap1\n      tag_233\n      jump\t// in\n    tag_232:\n      mload(0x40)\n      dup1\n      swap2\n      sub\n      swap1\n      revert\n    tag_231:\n        /* \"NFT-Contracts/contracts/market_deploy/ERC721.sol\":10880:10881  0 */\n      0x00\n        /* \"NFT-Contracts/contracts/market_deploy/ERC721.sol\":10866:10882  to != address(0) */\n      0xffffffffffffffffffffffffffffffffffffffff\n      and\n        /* \"NFT-Contracts/contracts/market_deploy/ERC721.sol\":10866:10868  to */\n      dup3\n        /* \"NFT-Contracts/contracts/market_deploy/ERC721.sol\":10866:10882  to != address(0) */\n      0xffffffffffffffffffffffffffffffffffffffff\n      and\n      eq\n      iszero\n        /* \"NFT-Contracts/contracts/market_deploy/ERC721.sol\":10858:10923  require(to != address(0), \"ERC721: transfer to the zero address\") */\n      tag_234\n      jumpi\n      mload(0x40)\n      0x08c379a000000000000000000000000000000000000000000000000000000000\n      dup2\n      mstore\n      0x04\n      add\n      tag_235\n      swap1\n      tag_236\n      jump\t// in\n    tag_235:\n      mload(0x40)\n      dup1\n      swap2\n      sub\n      swap1\n      revert\n    tag_234:\n        /* \"NFT-Contracts/contracts/market_deploy/ERC721.sol\":10936:10975  _beforeTokenTransfer(from, to, tokenId) */\n      tag_237\n        /* \"NFT-Contracts/contracts/market_deploy/ERC721.sol\":10957:10961  from */\n      dup4\n        /* \"NFT-Contracts/contracts/market_deploy/ERC721.sol\":10963:10965  to */\n      dup4\n        /* \"NFT-Contracts/contracts/market_deploy/ERC721.sol\":10967:10974  tokenId */\n      dup4\n        /* \"NFT-Contracts/contracts/market_deploy/ERC721.sol\":10936:10956  _beforeTokenTransfer */\n      tag_238\n        /* \"NFT-Contracts/contracts/market_deploy/ERC721.sol\":10936:10975  _beforeTokenTransfer(from, to, tokenId) */\n      jump\t// in\n    tag_237:\n        /* \"NFT-Contracts/contracts/market_deploy/ERC721.sol\":10988:11017  _approve(address(0), tokenId) */\n      tag_239\n        /* \"NFT-Contracts/contracts/market_deploy/ERC721.sol\":11005:11006  0 */\n      0x00\n        /* \"NFT-Contracts/contracts/market_deploy/ERC721.sol\":11009:11016  tokenId */\n      dup3\n        /* \"NFT-Contracts/contracts/market_deploy/ERC721.sol\":10988:10996  _approve */\n      tag_132\n        /* \"NFT-Contracts/contracts/market_deploy/ERC721.sol\":10988:11017  _approve(address(0), tokenId) */\n      jump\t// in\n    tag_239:\n        /* \"NFT-Contracts/contracts/market_deploy/ERC721.sol\":11030:11065  _holderTokens[from].remove(tokenId) */\n      tag_240\n        /* \"NFT-Contracts/contracts/market_deploy/ERC721.sol\":11057:11064  tokenId */\n      dup2\n        /* \"NFT-Contracts/contracts/market_deploy/ERC721.sol\":11030:11043  _holderTokens */\n      0x01\n        /* \"NFT-Contracts/contracts/market_deploy/ERC721.sol\":11030:11049  _holderTokens[from] */\n      0x00\n        /* \"NFT-Contracts/contracts/market_deploy/ERC721.sol\":11044:11048  from */\n      dup7\n        /* \"NFT-Contracts/contracts/market_deploy/ERC721.sol\":11030:11049  _holderTokens[from] */\n      0xffffffffffffffffffffffffffffffffffffffff\n      and\n      0xffffffffffffffffffffffffffffffffffffffff\n      and\n      dup2\n      mstore\n      0x20\n      add\n      swap1\n      dup2\n      mstore\n      0x20\n      add\n      0x00\n      keccak256\n        /* \"NFT-Contracts/contracts/market_deploy/ERC721.sol\":11030:11056  _holderTokens[from].remove */\n      tag_241\n      swap1\n        /* \"NFT-Contracts/contracts/market_deploy/ERC721.sol\":11030:11065  _holderTokens[from].remove(tokenId) */\n      swap2\n      swap1\n      0xffffffff\n      and\n      jump\t// in\n    tag_240:\n        /* \"NFT-Contracts/contracts/market_deploy/ERC721.sol\":11076:11106  _holderTokens[to].add(tokenId) */\n      tag_242\n        /* \"NFT-Contracts/contracts/market_deploy/ERC721.sol\":11098:11105  tokenId */\n      dup2\n        /* \"NFT-Contracts/contracts/market_deploy/ERC721.sol\":11076:11089  _holderTokens */\n      0x01\n        /* \"NFT-Contracts/contracts/market_deploy/ERC721.sol\":11076:11093  _holderTokens[to] */\n      0x00\n        /* \"NFT-Contracts/contracts/market_deploy/ERC721.sol\":11090:11092  to */\n      dup6\n        /* \"NFT-Contracts/contracts/market_deploy/ERC721.sol\":11076:11093  _holderTokens[to] */\n      0xffffffffffffffffffffffffffffffffffffffff\n      and\n      0xffffffffffffffffffffffffffffffffffffffff\n      and\n      dup2\n      mstore\n      0x20\n      add\n      swap1\n      dup2\n      mstore\n      0x20\n      add\n      0x00\n      keccak256\n        /* \"NFT-Contracts/contracts/market_deploy/ERC721.sol\":11076:11097  _holderTokens[to].add */\n      tag_243\n      swap1\n        /* \"NFT-Contracts/contracts/market_deploy/ERC721.sol\":11076:11106  _holderTokens[to].add(tokenId) */\n      swap2\n      swap1\n      0xffffffff\n      and\n      jump\t// in\n    tag_242:\n        /* \"NFT-Contracts/contracts/market_deploy/ERC721.sol\":11119:11148  _tokenOwners.set(tokenId, to) */\n      tag_244\n        /* \"NFT-Contracts/contracts/market_deploy/ERC721.sol\":11136:11143  tokenId */\n      dup2\n        /* \"NFT-Contracts/contracts/market_deploy/ERC721.sol\":11145:11147  to */\n      dup4\n        /* \"NFT-Contracts/contracts/market_deploy/ERC721.sol\":11119:11131  _tokenOwners */\n      0x02\n        /* \"NFT-Contracts/contracts/market_deploy/ERC721.sol\":11119:11135  _tokenOwners.set */\n      tag_245\n      swap1\n        /* \"NFT-Contracts/contracts/market_deploy/ERC721.sol\":11119:11148  _tokenOwners.set(tokenId, to) */\n      swap3\n      swap2\n      swap1\n      0xffffffff\n      and\n      jump\t// in\n    tag_244:\n      pop\n        /* \"NFT-Contracts/contracts/market_deploy/ERC721.sol\":11185:11192  tokenId */\n      dup1\n        /* \"NFT-Contracts/contracts/market_deploy/ERC721.sol\":11181:11183  to */\n      dup3\n        /* \"NFT-Contracts/contracts/market_deploy/ERC721.sol\":11166:11193  Transfer(from, to, tokenId) */\n      0xffffffffffffffffffffffffffffffffffffffff\n      and\n        /* \"NFT-Contracts/contracts/market_deploy/ERC721.sol\":11175:11179  from */\n      dup5\n        /* \"NFT-Contracts/contracts/market_deploy/ERC721.sol\":11166:11193  Transfer(from, to, tokenId) */\n      0xffffffffffffffffffffffffffffffffffffffff\n      and\n      0xddf252ad1be2c89b69c2b068fc378daa952ba7f163c4a11628f55a4df523b3ef\n      mload(0x40)\n      mload(0x40)\n      dup1\n      swap2\n      sub\n      swap1\n      log4\n        /* \"NFT-Contracts/contracts/market_deploy/ERC721.sol\":10654:11201  function _transfer(address from, address to, uint256 tokenId) internal virtual {\r... */\n      pop\n      pop\n      pop\n      jump\t// out\n        /* \"NFT-Contracts/contracts/market_deploy/EnumerableSet.sol\":2856:2993  function at(UintSet storage set, uint256 index) internal view returns (uint256) {\r... */\n    tag_147:\n        /* \"NFT-Contracts/contracts/market_deploy/EnumerableSet.sol\":2927:2934  uint256 */\n      0x00\n        /* \"NFT-Contracts/contracts/market_deploy/EnumerableSet.sol\":2962:2984  _at(set._inner, index) */\n      tag_247\n        /* \"NFT-Contracts/contracts/market_deploy/EnumerableSet.sol\":2966:2969  set */\n      dup4\n        /* \"NFT-Contracts/contracts/market_deploy/EnumerableSet.sol\":2966:2976  set._inner */\n      0x00\n      add\n        /* \"NFT-Contracts/contracts/market_deploy/EnumerableSet.sol\":2978:2983  index */\n      dup4\n        /* \"NFT-Contracts/contracts/market_deploy/EnumerableSet.sol\":2962:2965  _at */\n      tag_248\n        /* \"NFT-Contracts/contracts/market_deploy/EnumerableSet.sol\":2962:2984  _at(set._inner, index) */\n      jump\t// in\n    tag_247:\n        /* \"NFT-Contracts/contracts/market_deploy/EnumerableSet.sol\":2954:2985  uint256(_at(set._inner, index)) */\n      0x00\n      shr\n        /* \"NFT-Contracts/contracts/market_deploy/EnumerableSet.sol\":2947:2985  return uint256(_at(set._inner, index)) */\n      swap1\n      pop\n        /* \"NFT-Contracts/contracts/market_deploy/EnumerableSet.sol\":2856:2993  function at(UintSet storage set, uint256 index) internal view returns (uint256) {\r... */\n      swap3\n      swap2\n      pop\n      pop\n      jump\t// out\n        /* \"NFT-Contracts/contracts/market_deploy/EnumerableMap.sol\":3050:3286  function at(UintToAddressMap storage map, uint256 index) internal view returns (uint256, address) {\r... */\n    tag_152:\n        /* \"NFT-Contracts/contracts/market_deploy/EnumerableMap.sol\":3130:3137  uint256 */\n      0x00\n        /* \"NFT-Contracts/contracts/market_deploy/EnumerableMap.sol\":3139:3146  address */\n      dup1\n        /* \"NFT-Contracts/contracts/market_deploy/EnumerableMap.sol\":3160:3171  bytes32 key */\n      0x00\n        /* \"NFT-Contracts/contracts/market_deploy/EnumerableMap.sol\":3173:3186  bytes32 value */\n      dup1\n        /* \"NFT-Contracts/contracts/market_deploy/EnumerableMap.sol\":3190:3212  _at(map._inner, index) */\n      tag_250\n        /* \"NFT-Contracts/contracts/market_deploy/EnumerableMap.sol\":3194:3197  map */\n      dup7\n        /* \"NFT-Contracts/contracts/market_deploy/EnumerableMap.sol\":3194:3204  map._inner */\n      0x00\n      add\n        /* \"NFT-Contracts/contracts/market_deploy/EnumerableMap.sol\":3206:3211  index */\n      dup7\n        /* \"NFT-Contracts/contracts/market_deploy/EnumerableMap.sol\":3190:3193  _at */\n      tag_251\n        /* \"NFT-Contracts/contracts/market_deploy/EnumerableMap.sol\":3190:3212  _at(map._inner, index) */\n      jump\t// in\n    tag_250:\n        /* \"NFT-Contracts/contracts/market_deploy/EnumerableMap.sol\":3159:3212  (bytes32 key, bytes32 value) = _at(map._inner, index) */\n      swap2\n      pop\n      swap2\n      pop\n        /* \"NFT-Contracts/contracts/market_deploy/EnumerableMap.sol\":3239:3242  key */\n      dup2\n        /* \"NFT-Contracts/contracts/market_deploy/EnumerableMap.sol\":3231:3243  uint256(key) */\n      0x00\n      shr\n        /* \"NFT-Contracts/contracts/market_deploy/EnumerableMap.sol\":3269:3274  value */\n      dup2\n        /* \"NFT-Contracts/contracts/market_deploy/EnumerableMap.sol\":3261:3275  uint256(value) */\n      0x00\n      shr\n        /* \"NFT-Contracts/contracts/market_deploy/EnumerableMap.sol\":3223:3278  return (uint256(key), address(uint160(uint256(value)))) */\n      swap4\n      pop\n      swap4\n      pop\n      pop\n      pop\n        /* \"NFT-Contracts/contracts/market_deploy/EnumerableMap.sol\":3050:3286  function at(UintToAddressMap storage map, uint256 index) internal view returns (uint256, address) {\r... */\n      swap3\n      pop\n      swap3\n      swap1\n      pop\n      jump\t// out\n        /* \"NFT-Contracts/contracts/market_deploy/EnumerableMap.sol\":3294:3507  function get(UintToAddressMap storage map, uint256 key, string memory errorMessage) internal view returns (address) {\r... */\n    tag_155:\n        /* \"NFT-Contracts/contracts/market_deploy/EnumerableMap.sol\":3401:3408  address */\n      0x00\n        /* \"NFT-Contracts/contracts/market_deploy/EnumerableMap.sol\":3452:3496  _get(map._inner, bytes32(key), errorMessage) */\n      tag_253\n        /* \"NFT-Contracts/contracts/market_deploy/EnumerableMap.sol\":3457:3460  map */\n      dup5\n        /* \"NFT-Contracts/contracts/market_deploy/EnumerableMap.sol\":3457:3467  map._inner */\n      0x00\n      add\n        /* \"NFT-Contracts/contracts/market_deploy/EnumerableMap.sol\":3477:3480  key */\n      dup5\n        /* \"NFT-Contracts/contracts/market_deploy/EnumerableMap.sol\":3469:3481  bytes32(key) */\n      0x00\n      shl\n        /* \"NFT-Contracts/contracts/market_deploy/EnumerableMap.sol\":3483:3495  errorMessage */\n      dup5\n        /* \"NFT-Contracts/contracts/market_deploy/EnumerableMap.sol\":3452:3456  _get */\n      tag_254\n        /* \"NFT-Contracts/contracts/market_deploy/EnumerableMap.sol\":3452:3496  _get(map._inner, bytes32(key), errorMessage) */\n      jump\t// in\n    tag_253:\n        /* \"NFT-Contracts/contracts/market_deploy/EnumerableMap.sol\":3444:3497  uint256(_get(map._inner, bytes32(key), errorMessage)) */\n      0x00\n      shr\n        /* \"NFT-Contracts/contracts/market_deploy/EnumerableMap.sol\":3421:3499  return address(uint160(uint256(_get(map._inner, bytes32(key), errorMessage)))) */\n      swap1\n      pop\n        /* \"NFT-Contracts/contracts/market_deploy/EnumerableMap.sol\":3294:3507  function get(UintToAddressMap storage map, uint256 key, string memory errorMessage) internal view returns (address) {\r... */\n      swap4\n      swap3\n      pop\n      pop\n      pop\n      jump\t// out\n        /* \"NFT-Contracts/contracts/market_deploy/EnumerableSet.sol\":2734:2848  function length(UintSet storage set) internal view returns (uint256) {\r... */\n    tag_167:\n        /* \"NFT-Contracts/contracts/market_deploy/EnumerableSet.sol\":2794:2801  uint256 */\n      0x00\n        /* \"NFT-Contracts/contracts/market_deploy/EnumerableSet.sol\":2821:2840  _length(set._inner) */\n      tag_256\n        /* \"NFT-Contracts/contracts/market_deploy/EnumerableSet.sol\":2829:2832  set */\n      dup3\n        /* \"NFT-Contracts/contracts/market_deploy/EnumerableSet.sol\":2829:2839  set._inner */\n      0x00\n      add\n        /* \"NFT-Contracts/contracts/market_deploy/EnumerableSet.sol\":2821:2828  _length */\n      tag_257\n        /* \"NFT-Contracts/contracts/market_deploy/EnumerableSet.sol\":2821:2840  _length(set._inner) */\n      jump\t// in\n    tag_256:\n        /* \"NFT-Contracts/contracts/market_deploy/EnumerableSet.sol\":2814:2840  return _length(set._inner) */\n      swap1\n      pop\n        /* \"NFT-Contracts/contracts/market_deploy/EnumerableSet.sol\":2734:2848  function length(UintSet storage set) internal view returns (uint256) {\r... */\n      swap2\n      swap1\n      pop\n      jump\t// out\n        /* \"NFT-Contracts/contracts/market_deploy/ERC721.sol\":8117:8389  function _safeTransfer(address from, address to, uint256 tokenId, bytes memory _data) internal virtual {\r... */\n    tag_188:\n        /* \"NFT-Contracts/contracts/market_deploy/ERC721.sol\":8231:8259  _transfer(from, to, tokenId) */\n      tag_259\n        /* \"NFT-Contracts/contracts/market_deploy/ERC721.sol\":8241:8245  from */\n      dup5\n        /* \"NFT-Contracts/contracts/market_deploy/ERC721.sol\":8247:8249  to */\n      dup5\n        /* \"NFT-Contracts/contracts/market_deploy/ERC721.sol\":8251:8258  tokenId */\n      dup5\n        /* \"NFT-Contracts/contracts/market_deploy/ERC721.sol\":8231:8240  _transfer */\n      tag_144\n        /* \"NFT-Contracts/contracts/market_deploy/ERC721.sol\":8231:8259  _transfer(from, to, tokenId) */\n      jump\t// in\n    tag_259:\n        /* \"NFT-Contracts/contracts/market_deploy/ERC721.sol\":8278:8326  _checkOnERC721Received(from, to, tokenId, _data) */\n      tag_260\n        /* \"NFT-Contracts/contracts/market_deploy/ERC721.sol\":8301:8305  from */\n      dup5\n        /* \"NFT-Contracts/contracts/market_deploy/ERC721.sol\":8307:8309  to */\n      dup5\n        /* \"NFT-Contracts/contracts/market_deploy/ERC721.sol\":8311:8318  tokenId */\n      dup5\n        /* \"NFT-Contracts/contracts/market_deploy/ERC721.sol\":8320:8325  _data */\n      dup5\n        /* \"NFT-Contracts/contracts/market_deploy/ERC721.sol\":8278:8300  _checkOnERC721Received */\n      tag_261\n        /* \"NFT-Contracts/contracts/market_deploy/ERC721.sol\":8278:8326  _checkOnERC721Received(from, to, tokenId, _data) */\n      jump\t// in\n    tag_260:\n        /* \"NFT-Contracts/contracts/market_deploy/ERC721.sol\":8270:8381  require(_checkOnERC721Received(from, to, tokenId, _data), \"ERC721: transfer to non ERC721Receiver implementer\") */\n      tag_262\n      jumpi\n      mload(0x40)\n      0x08c379a000000000000000000000000000000000000000000000000000000000\n      dup2\n      mstore\n      0x04\n      add\n      tag_263\n      swap1\n      tag_264\n      jump\t// in\n    tag_263:\n      mload(0x40)\n      dup1\n      swap2\n      sub\n      swap1\n      revert\n    tag_262:\n        /* \"NFT-Contracts/contracts/market_deploy/ERC721.sol\":8117:8389  function _safeTransfer(address from, address to, uint256 tokenId, bytes memory _data) internal virtual {\r... */\n      pop\n      pop\n      pop\n      pop\n      jump\t// out\n        /* \"NFT-Contracts/contracts/market_deploy/Strings.sol\":388:1111  function toString(uint256 value) internal pure returns (string memory) {\r... */\n    tag_206:\n        /* \"NFT-Contracts/contracts/market_deploy/Strings.sol\":444:457  string memory */\n      0x60\n        /* \"NFT-Contracts/contracts/market_deploy/Strings.sol\":674:675  0 */\n      0x00\n        /* \"NFT-Contracts/contracts/market_deploy/Strings.sol\":665:670  value */\n      dup3\n        /* \"NFT-Contracts/contracts/market_deploy/Strings.sol\":665:675  value == 0 */\n      eq\n        /* \"NFT-Contracts/contracts/market_deploy/Strings.sol\":661:714  if (value == 0) {\r... */\n      iszero\n      tag_266\n      jumpi\n        /* \"NFT-Contracts/contracts/market_deploy/Strings.sol\":692:702  return \"0\" */\n      mload(0x40)\n      dup1\n      0x40\n      add\n      0x40\n      mstore\n      dup1\n      0x01\n      dup2\n      mstore\n      0x20\n      add\n      0x3000000000000000000000000000000000000000000000000000000000000000\n      dup2\n      mstore\n      pop\n      swap1\n      pop\n      jump(tag_265)\n        /* \"NFT-Contracts/contracts/market_deploy/Strings.sol\":661:714  if (value == 0) {\r... */\n    tag_266:\n        /* \"NFT-Contracts/contracts/market_deploy/Strings.sol\":724:736  uint256 temp */\n      0x00\n        /* \"NFT-Contracts/contracts/market_deploy/Strings.sol\":739:744  value */\n      dup3\n        /* \"NFT-Contracts/contracts/market_deploy/Strings.sol\":724:744  uint256 temp = value */\n      swap1\n      pop\n        /* \"NFT-Contracts/contracts/market_deploy/Strings.sol\":755:769  uint256 digits */\n      0x00\n        /* \"NFT-Contracts/contracts/market_deploy/Strings.sol\":780:858  while (temp != 0) {\r... */\n    tag_267:\n        /* \"NFT-Contracts/contracts/market_deploy/Strings.sol\":795:796  0 */\n      0x00\n        /* \"NFT-Contracts/contracts/market_deploy/Strings.sol\":787:791  temp */\n      dup3\n        /* \"NFT-Contracts/contracts/market_deploy/Strings.sol\":787:796  temp != 0 */\n      eq\n        /* \"NFT-Contracts/contracts/market_deploy/Strings.sol\":780:858  while (temp != 0) {\r... */\n      tag_268\n      jumpi\n        /* \"NFT-Contracts/contracts/market_deploy/Strings.sol\":813:821  digits++ */\n      dup1\n      dup1\n      tag_269\n      swap1\n      tag_270\n      jump\t// in\n    tag_269:\n      swap2\n      pop\n      pop\n        /* \"NFT-Contracts/contracts/market_deploy/Strings.sol\":844:846  10 */\n      0x0a\n        /* \"NFT-Contracts/contracts/market_deploy/Strings.sol\":836:846  temp /= 10 */\n      dup3\n      tag_271\n      swap2\n      swap1\n      tag_272\n      jump\t// in\n    tag_271:\n      swap2\n      pop\n        /* \"NFT-Contracts/contracts/market_deploy/Strings.sol\":780:858  while (temp != 0) {\r... */\n      jump(tag_267)\n    tag_268:\n        /* \"NFT-Contracts/contracts/market_deploy/Strings.sol\":868:887  bytes memory buffer */\n      0x00\n        /* \"NFT-Contracts/contracts/market_deploy/Strings.sol\":900:906  digits */\n      dup2\n        /* \"NFT-Contracts/contracts/market_deploy/Strings.sol\":890:907  new bytes(digits) */\n      0xffffffffffffffff\n      dup2\n      gt\n      iszero\n      tag_273\n      jumpi\n      tag_274\n      tag_275\n      jump\t// in\n    tag_274:\n    tag_273:\n      mload(0x40)\n      swap1\n      dup1\n      dup3\n      mstore\n      dup1\n      0x1f\n      add\n      not(0x1f)\n      and\n      0x20\n      add\n      dup3\n      add\n      0x40\n      mstore\n      dup1\n      iszero\n      tag_276\n      jumpi\n      dup2\n      0x20\n      add\n      0x01\n      dup3\n      mul\n      dup1\n      calldatasize\n      dup4\n      calldatacopy\n      dup1\n      dup3\n      add\n      swap2\n      pop\n      pop\n      swap1\n      pop\n    tag_276:\n      pop\n        /* \"NFT-Contracts/contracts/market_deploy/Strings.sol\":868:907  bytes memory buffer = new bytes(digits) */\n      swap1\n      pop\n        /* \"NFT-Contracts/contracts/market_deploy/Strings.sol\":918:1072  while (value != 0) {\r... */\n    tag_277:\n        /* \"NFT-Contracts/contracts/market_deploy/Strings.sol\":934:935  0 */\n      0x00\n        /* \"NFT-Contracts/contracts/market_deploy/Strings.sol\":925:930  value */\n      dup6\n        /* \"NFT-Contracts/contracts/market_deploy/Strings.sol\":925:935  value != 0 */\n      eq\n        /* \"NFT-Contracts/contracts/market_deploy/Strings.sol\":918:1072  while (value != 0) {\r... */\n      tag_278\n      jumpi\n        /* \"NFT-Contracts/contracts/market_deploy/Strings.sol\":962:963  1 */\n      0x01\n        /* \"NFT-Contracts/contracts/market_deploy/Strings.sol\":952:963  digits -= 1 */\n      dup3\n      tag_279\n      swap2\n      swap1\n      tag_280\n      jump\t// in\n    tag_279:\n      swap2\n      pop\n        /* \"NFT-Contracts/contracts/market_deploy/Strings.sol\":1029:1031  10 */\n      0x0a\n        /* \"NFT-Contracts/contracts/market_deploy/Strings.sol\":1021:1026  value */\n      dup6\n        /* \"NFT-Contracts/contracts/market_deploy/Strings.sol\":1021:1031  value % 10 */\n      tag_281\n      swap2\n      swap1\n      tag_282\n      jump\t// in\n    tag_281:\n        /* \"NFT-Contracts/contracts/market_deploy/Strings.sol\":1008:1010  48 */\n      0x30\n        /* \"NFT-Contracts/contracts/market_deploy/Strings.sol\":1008:1032  48 + uint256(value % 10) */\n      tag_283\n      swap2\n      swap1\n      tag_284\n      jump\t// in\n    tag_283:\n        /* \"NFT-Contracts/contracts/market_deploy/Strings.sol\":995:1034  bytes1(uint8(48 + uint256(value % 10))) */\n      0xf8\n      shl\n        /* \"NFT-Contracts/contracts/market_deploy/Strings.sol\":978:984  buffer */\n      dup2\n        /* \"NFT-Contracts/contracts/market_deploy/Strings.sol\":985:991  digits */\n      dup4\n        /* \"NFT-Contracts/contracts/market_deploy/Strings.sol\":978:992  buffer[digits] */\n      dup2\n      mload\n      dup2\n      lt\n      tag_285\n      jumpi\n      tag_286\n      tag_287\n      jump\t// in\n    tag_286:\n    tag_285:\n      0x20\n      add\n      add\n        /* \"NFT-Contracts/contracts/market_deploy/Strings.sol\":978:1034  buffer[digits] = bytes1(uint8(48 + uint256(value % 10))) */\n      swap1\n      not(0xffffffffffffffffffffffffffffffffffffffffffffffffffffffffffffff)\n      and\n      swap1\n      dup2\n      0x00\n      byte\n      swap1\n      mstore8\n      pop\n        /* \"NFT-Contracts/contracts/market_deploy/Strings.sol\":1058:1060  10 */\n      0x0a\n        /* \"NFT-Contracts/contracts/market_deploy/Strings.sol\":1049:1060  value /= 10 */\n      dup6\n      tag_288\n      swap2\n      swap1\n      tag_272\n      jump\t// in\n    tag_288:\n      swap5\n      pop\n        /* \"NFT-Contracts/contracts/market_deploy/Strings.sol\":918:1072  while (value != 0) {\r... */\n      jump(tag_277)\n    tag_278:\n        /* \"NFT-Contracts/contracts/market_deploy/Strings.sol\":1096:1102  buffer */\n      dup1\n        /* \"NFT-Contracts/contracts/market_deploy/Strings.sol\":1082:1103  return string(buffer) */\n      swap4\n      pop\n      pop\n      pop\n      pop\n        /* \"NFT-Contracts/contracts/market_deploy/Strings.sol\":388:1111  function toString(uint256 value) internal pure returns (string memory) {\r... */\n    tag_265:\n      swap2\n      swap1\n      pop\n      jump\t// out\n        /* \"NFT-Contracts/contracts/market_deploy/EnumerableMap.sol\":2760:2911  function contains(UintToAddressMap storage map, uint256 key) internal view returns (bool) {\r... */\n    tag_212:\n        /* \"NFT-Contracts/contracts/market_deploy/EnumerableMap.sol\":2844:2848  bool */\n      0x00\n        /* \"NFT-Contracts/contracts/market_deploy/EnumerableMap.sol\":2868:2903  _contains(map._inner, bytes32(key)) */\n      tag_290\n        /* \"NFT-Contracts/contracts/market_deploy/EnumerableMap.sol\":2878:2881  map */\n      dup4\n        /* \"NFT-Contracts/contracts/market_deploy/EnumerableMap.sol\":2878:2888  map._inner */\n      0x00\n      add\n        /* \"NFT-Contracts/contracts/market_deploy/EnumerableMap.sol\":2898:2901  key */\n      dup4\n        /* \"NFT-Contracts/contracts/market_deploy/EnumerableMap.sol\":2890:2902  bytes32(key) */\n      0x00\n      shl\n        /* \"NFT-Contracts/contracts/market_deploy/EnumerableMap.sol\":2868:2877  _contains */\n      tag_291\n        /* \"NFT-Contracts/contracts/market_deploy/EnumerableMap.sol\":2868:2903  _contains(map._inner, bytes32(key)) */\n      jump\t// in\n    tag_290:\n        /* \"NFT-Contracts/contracts/market_deploy/EnumerableMap.sol\":2861:2903  return _contains(map._inner, bytes32(key)) */\n      swap1\n      pop\n        /* \"NFT-Contracts/contracts/market_deploy/EnumerableMap.sol\":2760:2911  function contains(UintToAddressMap storage map, uint256 key) internal view returns (bool) {\r... */\n      swap3\n      swap2\n      pop\n      pop\n      jump\t// out\n        /* \"NFT-Contracts/contracts/market_deploy/EnumerableMap.sol\":1624:1734  function _length(Map storage map) private view returns (uint256) {\r... */\n    tag_218:\n        /* \"NFT-Contracts/contracts/market_deploy/EnumerableMap.sol\":1680:1687  uint256 */\n      0x00\n        /* \"NFT-Contracts/contracts/market_deploy/EnumerableMap.sol\":1707:1710  map */\n      dup2\n        /* \"NFT-Contracts/contracts/market_deploy/EnumerableMap.sol\":1707:1719  map._entries */\n      0x00\n      add\n        /* \"NFT-Contracts/contracts/market_deploy/EnumerableMap.sol\":1707:1726  map._entries.length */\n      dup1\n      sload\n      swap1\n      pop\n        /* \"NFT-Contracts/contracts/market_deploy/EnumerableMap.sol\":1700:1726  return map._entries.length */\n      swap1\n      pop\n        /* \"NFT-Contracts/contracts/market_deploy/EnumerableMap.sol\":1624:1734  function _length(Map storage map) private view returns (uint256) {\r... */\n      swap2\n      swap1\n      pop\n      jump\t// out\n        /* \"NFT-Contracts/contracts/market_deploy/ERC721.sol\":12678:12771  function _beforeTokenTransfer(address from, address to, uint256 tokenId) internal virtual { } */\n    tag_238:\n      pop\n      pop\n      pop\n      jump\t// out\n        /* \"NFT-Contracts/contracts/market_deploy/EnumerableSet.sol\":2479:2594  function remove(UintSet storage set, uint256 value) internal {\r... */\n    tag_241:\n        /* \"NFT-Contracts/contracts/market_deploy/EnumerableSet.sol\":2551:2586  _remove(set._inner, bytes32(value)) */\n      tag_295\n        /* \"NFT-Contracts/contracts/market_deploy/EnumerableSet.sol\":2559:2562  set */\n      dup3\n        /* \"NFT-Contracts/contracts/market_deploy/EnumerableSet.sol\":2559:2569  set._inner */\n      0x00\n      add\n        /* \"NFT-Contracts/contracts/market_deploy/EnumerableSet.sol\":2579:2584  value */\n      dup3\n        /* \"NFT-Contracts/contracts/market_deploy/EnumerableSet.sol\":2571:2585  bytes32(value) */\n      0x00\n      shl\n        /* \"NFT-Contracts/contracts/market_deploy/EnumerableSet.sol\":2551:2558  _remove */\n      tag_296\n        /* \"NFT-Contracts/contracts/market_deploy/EnumerableSet.sol\":2551:2586  _remove(set._inner, bytes32(value)) */\n      jump\t// in\n    tag_295:\n      pop\n        /* \"NFT-Contracts/contracts/market_deploy/EnumerableSet.sol\":2479:2594  function remove(UintSet storage set, uint256 value) internal {\r... */\n      pop\n      pop\n      jump\t// out\n        /* \"NFT-Contracts/contracts/market_deploy/EnumerableSet.sol\":2362:2471  function add(UintSet storage set, uint256 value) internal {\r... */\n    tag_243:\n        /* \"NFT-Contracts/contracts/market_deploy/EnumerableSet.sol\":2431:2463  _add(set._inner, bytes32(value)) */\n      tag_298\n        /* \"NFT-Contracts/contracts/market_deploy/EnumerableSet.sol\":2436:2439  set */\n      dup3\n        /* \"NFT-Contracts/contracts/market_deploy/EnumerableSet.sol\":2436:2446  set._inner */\n      0x00\n      add\n        /* \"NFT-Contracts/contracts/market_deploy/EnumerableSet.sol\":2456:2461  value */\n      dup3\n        /* \"NFT-Contracts/contracts/market_deploy/EnumerableSet.sol\":2448:2462  bytes32(value) */\n      0x00\n      shl\n        /* \"NFT-Contracts/contracts/market_deploy/EnumerableSet.sol\":2431:2435  _add */\n      tag_299\n        /* \"NFT-Contracts/contracts/market_deploy/EnumerableSet.sol\":2431:2463  _add(set._inner, bytes32(value)) */\n      jump\t// in\n    tag_298:\n      pop\n        /* \"NFT-Contracts/contracts/market_deploy/EnumerableSet.sol\":2362:2471  function add(UintSet storage set, uint256 value) internal {\r... */\n      pop\n      pop\n      jump\t// out\n        /* \"NFT-Contracts/contracts/market_deploy/EnumerableMap.sol\":2417:2602  function set(UintToAddressMap storage map, uint256 key, address value) internal returns (bool) {\r... */\n    tag_245:\n        /* \"NFT-Contracts/contracts/market_deploy/EnumerableMap.sol\":2506:2510  bool */\n      0x00\n        /* \"NFT-Contracts/contracts/market_deploy/EnumerableMap.sol\":2530:2594  _set(map._inner, bytes32(key), bytes32(uint256(uint160(value)))) */\n      tag_301\n        /* \"NFT-Contracts/contracts/market_deploy/EnumerableMap.sol\":2535:2538  map */\n      dup5\n        /* \"NFT-Contracts/contracts/market_deploy/EnumerableMap.sol\":2535:2545  map._inner */\n      0x00\n      add\n        /* \"NFT-Contracts/contracts/market_deploy/EnumerableMap.sol\":2555:2558  key */\n      dup5\n        /* \"NFT-Contracts/contracts/market_deploy/EnumerableMap.sol\":2547:2559  bytes32(key) */\n      0x00\n      shl\n        /* \"NFT-Contracts/contracts/market_deploy/EnumerableMap.sol\":2585:2590  value */\n      dup5\n        /* \"NFT-Contracts/contracts/market_deploy/EnumerableMap.sol\":2569:2592  uint256(uint160(value)) */\n      0xffffffffffffffffffffffffffffffffffffffff\n      and\n        /* \"NFT-Contracts/contracts/market_deploy/EnumerableMap.sol\":2561:2593  bytes32(uint256(uint160(value))) */\n      0x00\n      shl\n        /* \"NFT-Contracts/contracts/market_deploy/EnumerableMap.sol\":2530:2534  _set */\n      tag_302\n        /* \"NFT-Contracts/contracts/market_deploy/EnumerableMap.sol\":2530:2594  _set(map._inner, bytes32(key), bytes32(uint256(uint160(value)))) */\n      jump\t// in\n    tag_301:\n        /* \"NFT-Contracts/contracts/market_deploy/EnumerableMap.sol\":2523:2594  return _set(map._inner, bytes32(key), bytes32(uint256(uint160(value)))) */\n      swap1\n      pop\n        /* \"NFT-Contracts/contracts/market_deploy/EnumerableMap.sol\":2417:2602  function set(UintToAddressMap storage map, uint256 key, address value) internal returns (bool) {\r... */\n      swap4\n      swap3\n      pop\n      pop\n      pop\n      jump\t// out\n        /* \"NFT-Contracts/contracts/market_deploy/EnumerableSet.sol\":1476:1680  function _at(Set storage set, uint256 index) private view returns (bytes32) {\r... */\n    tag_248:\n        /* \"NFT-Contracts/contracts/market_deploy/EnumerableSet.sol\":1543:1550  bytes32 */\n      0x00\n        /* \"NFT-Contracts/contracts/market_deploy/EnumerableSet.sol\":1592:1597  index */\n      dup2\n        /* \"NFT-Contracts/contracts/market_deploy/EnumerableSet.sol\":1571:1574  set */\n      dup4\n        /* \"NFT-Contracts/contracts/market_deploy/EnumerableSet.sol\":1571:1582  set._values */\n      0x00\n      add\n        /* \"NFT-Contracts/contracts/market_deploy/EnumerableSet.sol\":1571:1589  set._values.length */\n      dup1\n      sload\n      swap1\n      pop\n        /* \"NFT-Contracts/contracts/market_deploy/EnumerableSet.sol\":1571:1597  set._values.length > index */\n      gt\n        /* \"NFT-Contracts/contracts/market_deploy/EnumerableSet.sol\":1563:1636  require(set._values.length > index, \"EnumerableSet: index out of bounds\") */\n      tag_304\n      jumpi\n      mload(0x40)\n      0x08c379a000000000000000000000000000000000000000000000000000000000\n      dup2\n      mstore\n      0x04\n      add\n      tag_305\n      swap1\n      tag_306\n      jump\t// in\n    tag_305:\n      mload(0x40)\n      dup1\n      swap2\n      sub\n      swap1\n      revert\n    tag_304:\n        /* \"NFT-Contracts/contracts/market_deploy/EnumerableSet.sol\":1654:1657  set */\n      dup3\n        /* \"NFT-Contracts/contracts/market_deploy/EnumerableSet.sol\":1654:1665  set._values */\n      0x00\n      add\n        /* \"NFT-Contracts/contracts/market_deploy/EnumerableSet.sol\":1666:1671  index */\n      dup3\n        /* \"NFT-Contracts/contracts/market_deploy/EnumerableSet.sol\":1654:1672  set._values[index] */\n      dup2\n      sload\n      dup2\n      lt\n      tag_307\n      jumpi\n      tag_308\n      tag_287\n      jump\t// in\n    tag_308:\n    tag_307:\n      swap1\n      0x00\n      mstore\n      keccak256(0x00, 0x20)\n      add\n      sload\n        /* \"NFT-Contracts/contracts/market_deploy/EnumerableSet.sol\":1647:1672  return set._values[index] */\n      swap1\n      pop\n        /* \"NFT-Contracts/contracts/market_deploy/EnumerableSet.sol\":1476:1680  function _at(Set storage set, uint256 index) private view returns (bytes32) {\r... */\n      swap3\n      swap2\n      pop\n      pop\n      jump\t// out\n        /* \"NFT-Contracts/contracts/market_deploy/EnumerableMap.sol\":1742:2021  function _at(Map storage map, uint256 index) private view returns (bytes32, bytes32) {\r... */\n    tag_251:\n        /* \"NFT-Contracts/contracts/market_deploy/EnumerableMap.sol\":1809:1816  bytes32 */\n      0x00\n        /* \"NFT-Contracts/contracts/market_deploy/EnumerableMap.sol\":1818:1825  bytes32 */\n      dup1\n        /* \"NFT-Contracts/contracts/market_deploy/EnumerableMap.sol\":1868:1873  index */\n      dup3\n        /* \"NFT-Contracts/contracts/market_deploy/EnumerableMap.sol\":1846:1849  map */\n      dup5\n        /* \"NFT-Contracts/contracts/market_deploy/EnumerableMap.sol\":1846:1858  map._entries */\n      0x00\n      add\n        /* \"NFT-Contracts/contracts/market_deploy/EnumerableMap.sol\":1846:1865  map._entries.length */\n      dup1\n      sload\n      swap1\n      pop\n        /* \"NFT-Contracts/contracts/market_deploy/EnumerableMap.sol\":1846:1873  map._entries.length > index */\n      gt\n        /* \"NFT-Contracts/contracts/market_deploy/EnumerableMap.sol\":1838:1912  require(map._entries.length > index, \"EnumerableMap: index out of bounds\") */\n      tag_311\n      jumpi\n      mload(0x40)\n      0x08c379a000000000000000000000000000000000000000000000000000000000\n      dup2\n      mstore\n      0x04\n      add\n      tag_312\n      swap1\n      tag_313\n      jump\t// in\n    tag_312:\n      mload(0x40)\n      dup1\n      swap2\n      sub\n      swap1\n      revert\n    tag_311:\n        /* \"NFT-Contracts/contracts/market_deploy/EnumerableMap.sol\":1925:1947  MapEntry storage entry */\n      0x00\n        /* \"NFT-Contracts/contracts/market_deploy/EnumerableMap.sol\":1950:1953  map */\n      dup5\n        /* \"NFT-Contracts/contracts/market_deploy/EnumerableMap.sol\":1950:1962  map._entries */\n      0x00\n      add\n        /* \"NFT-Contracts/contracts/market_deploy/EnumerableMap.sol\":1963:1968  index */\n      dup5\n        /* \"NFT-Contracts/contracts/market_deploy/EnumerableMap.sol\":1950:1969  map._entries[index] */\n      dup2\n      sload\n      dup2\n      lt\n      tag_314\n      jumpi\n      tag_315\n      tag_287\n      jump\t// in\n    tag_315:\n    tag_314:\n      swap1\n      0x00\n      mstore\n      keccak256(0x00, 0x20)\n      swap1\n      0x02\n      mul\n      add\n        /* \"NFT-Contracts/contracts/market_deploy/EnumerableMap.sol\":1925:1969  MapEntry storage entry = map._entries[index] */\n      swap1\n      pop\n        /* \"NFT-Contracts/contracts/market_deploy/EnumerableMap.sol\":1988:1993  entry */\n      dup1\n        /* \"NFT-Contracts/contracts/market_deploy/EnumerableMap.sol\":1988:1998  entry._key */\n      0x00\n      add\n      sload\n        /* \"NFT-Contracts/contracts/market_deploy/EnumerableMap.sol\":2000:2005  entry */\n      dup2\n        /* \"NFT-Contracts/contracts/market_deploy/EnumerableMap.sol\":2000:2012  entry._value */\n      0x01\n      add\n      sload\n        /* \"NFT-Contracts/contracts/market_deploy/EnumerableMap.sol\":1980:2013  return (entry._key, entry._value) */\n      swap3\n      pop\n      swap3\n      pop\n      pop\n        /* \"NFT-Contracts/contracts/market_deploy/EnumerableMap.sol\":1742:2021  function _at(Map storage map, uint256 index) private view returns (bytes32, bytes32) {\r... */\n      swap3\n      pop\n      swap3\n      swap1\n      pop\n      jump\t// out\n        /* \"NFT-Contracts/contracts/market_deploy/EnumerableMap.sol\":2029:2348  function _get(Map storage map, bytes32 key, string memory errorMessage) private view returns (bytes32) {\r... */\n    tag_254:\n        /* \"NFT-Contracts/contracts/market_deploy/EnumerableMap.sol\":2123:2130  bytes32 */\n      0x00\n        /* \"NFT-Contracts/contracts/market_deploy/EnumerableMap.sol\":2143:2159  uint256 keyIndex */\n      dup1\n        /* \"NFT-Contracts/contracts/market_deploy/EnumerableMap.sol\":2162:2165  map */\n      dup5\n        /* \"NFT-Contracts/contracts/market_deploy/EnumerableMap.sol\":2162:2174  map._indexes */\n      0x01\n      add\n        /* \"NFT-Contracts/contracts/market_deploy/EnumerableMap.sol\":2162:2179  map._indexes[key] */\n      0x00\n        /* \"NFT-Contracts/contracts/market_deploy/EnumerableMap.sol\":2175:2178  key */\n      dup6\n        /* \"NFT-Contracts/contracts/market_deploy/EnumerableMap.sol\":2162:2179  map._indexes[key] */\n      dup2\n      mstore\n      0x20\n      add\n      swap1\n      dup2\n      mstore\n      0x20\n      add\n      0x00\n      keccak256\n      sload\n        /* \"NFT-Contracts/contracts/market_deploy/EnumerableMap.sol\":2143:2179  uint256 keyIndex = map._indexes[key] */\n      swap1\n      pop\n        /* \"NFT-Contracts/contracts/market_deploy/EnumerableMap.sol\":2210:2211  0 */\n      0x00\n        /* \"NFT-Contracts/contracts/market_deploy/EnumerableMap.sol\":2198:2206  keyIndex */\n      dup2\n        /* \"NFT-Contracts/contracts/market_deploy/EnumerableMap.sol\":2198:2211  keyIndex != 0 */\n      eq\n      iszero\n        /* \"NFT-Contracts/contracts/market_deploy/EnumerableMap.sol\":2213:2225  errorMessage */\n      dup4\n        /* \"NFT-Contracts/contracts/market_deploy/EnumerableMap.sol\":2190:2226  require(keyIndex != 0, errorMessage) */\n      swap1\n      tag_318\n      jumpi\n      mload(0x40)\n      0x08c379a000000000000000000000000000000000000000000000000000000000\n      dup2\n      mstore\n      0x04\n      add\n      tag_319\n      swap2\n      swap1\n      tag_34\n      jump\t// in\n    tag_319:\n      mload(0x40)\n      dup1\n      swap2\n      sub\n      swap1\n      revert\n    tag_318:\n      pop\n        /* \"NFT-Contracts/contracts/market_deploy/EnumerableMap.sol\":2280:2283  map */\n      dup5\n        /* \"NFT-Contracts/contracts/market_deploy/EnumerableMap.sol\":2280:2292  map._entries */\n      0x00\n      add\n        /* \"NFT-Contracts/contracts/market_deploy/EnumerableMap.sol\":2304:2305  1 */\n      0x01\n        /* \"NFT-Contracts/contracts/market_deploy/EnumerableMap.sol\":2293:2301  keyIndex */\n      dup3\n        /* \"NFT-Contracts/contracts/market_deploy/EnumerableMap.sol\":2293:2305  keyIndex - 1 */\n      tag_320\n      swap2\n      swap1\n      tag_280\n      jump\t// in\n    tag_320:\n        /* \"NFT-Contracts/contracts/market_deploy/EnumerableMap.sol\":2280:2306  map._entries[keyIndex - 1] */\n      dup2\n      sload\n      dup2\n      lt\n      tag_321\n      jumpi\n      tag_322\n      tag_287\n      jump\t// in\n    tag_322:\n    tag_321:\n      swap1\n      0x00\n      mstore\n      keccak256(0x00, 0x20)\n      swap1\n      0x02\n      mul\n      add\n        /* \"NFT-Contracts/contracts/market_deploy/EnumerableMap.sol\":2280:2313  map._entries[keyIndex - 1]._value */\n      0x01\n      add\n      sload\n        /* \"NFT-Contracts/contracts/market_deploy/EnumerableMap.sol\":2273:2313  return map._entries[keyIndex - 1]._value */\n      swap2\n      pop\n      pop\n        /* \"NFT-Contracts/contracts/market_deploy/EnumerableMap.sol\":2029:2348  function _get(Map storage map, bytes32 key, string memory errorMessage) private view returns (bytes32) {\r... */\n      swap4\n      swap3\n      pop\n      pop\n      pop\n      jump\t// out\n        /* \"NFT-Contracts/contracts/market_deploy/EnumerableSet.sol\":1359:1468  function _length(Set storage set) private view returns (uint256) {\r... */\n    tag_257:\n        /* \"NFT-Contracts/contracts/market_deploy/EnumerableSet.sol\":1415:1422  uint256 */\n      0x00\n        /* \"NFT-Contracts/contracts/market_deploy/EnumerableSet.sol\":1442:1445  set */\n      dup2\n        /* \"NFT-Contracts/contracts/market_deploy/EnumerableSet.sol\":1442:1453  set._values */\n      0x00\n      add\n        /* \"NFT-Contracts/contracts/market_deploy/EnumerableSet.sol\":1442:1460  set._values.length */\n      dup1\n      sload\n      swap1\n      pop\n        /* \"NFT-Contracts/contracts/market_deploy/EnumerableSet.sol\":1435:1460  return set._values.length */\n      swap1\n      pop\n        /* \"NFT-Contracts/contracts/market_deploy/EnumerableSet.sol\":1359:1468  function _length(Set storage set) private view returns (uint256) {\r... */\n      swap2\n      swap1\n      pop\n      jump\t// out\n        /* \"NFT-Contracts/contracts/market_deploy/ERC721.sol\":11866:12470  function _checkOnERC721Received(address from, address to, uint256 tokenId, bytes memory _data)\r... */\n    tag_261:\n        /* \"NFT-Contracts/contracts/market_deploy/ERC721.sol\":11987:11991  bool */\n      0x00\n        /* \"NFT-Contracts/contracts/market_deploy/ERC721.sol\":12014:12029  to.isContract() */\n      tag_326\n        /* \"NFT-Contracts/contracts/market_deploy/ERC721.sol\":12014:12016  to */\n      dup5\n        /* \"NFT-Contracts/contracts/market_deploy/ERC721.sol\":12014:12027  to.isContract */\n      0xffffffffffffffffffffffffffffffffffffffff\n      and\n      tag_327\n        /* \"NFT-Contracts/contracts/market_deploy/ERC721.sol\":12014:12029  to.isContract() */\n      jump\t// in\n    tag_326:\n        /* \"NFT-Contracts/contracts/market_deploy/ERC721.sol\":12009:12069  if (!to.isContract()) {\r... */\n      tag_328\n      jumpi\n        /* \"NFT-Contracts/contracts/market_deploy/ERC721.sol\":12053:12057  true */\n      0x01\n        /* \"NFT-Contracts/contracts/market_deploy/ERC721.sol\":12046:12057  return true */\n      swap1\n      pop\n      jump(tag_325)\n        /* \"NFT-Contracts/contracts/market_deploy/ERC721.sol\":12009:12069  if (!to.isContract()) {\r... */\n    tag_328:\n        /* \"NFT-Contracts/contracts/market_deploy/ERC721.sol\":12079:12102  bytes memory returndata */\n      0x00\n        /* \"NFT-Contracts/contracts/market_deploy/ERC721.sol\":12105:12357  to.functionCall(abi.encodeWithSelector(\r... */\n      tag_329\n        /* \"NFT-Contracts/contracts/market_deploy/ERC721.sol\":12158:12203  IERC721Receiver(to).onERC721Received.selector */\n      shl(0xe0, 0x150b7a02)\n        /* \"NFT-Contracts/contracts/market_deploy/ERC721.sol\":12218:12230  _msgSender() */\n      tag_330\n        /* \"NFT-Contracts/contracts/market_deploy/ERC721.sol\":12218:12228  _msgSender */\n      tag_124\n        /* \"NFT-Contracts/contracts/market_deploy/ERC721.sol\":12218:12230  _msgSender() */\n      jump\t// in\n    tag_330:\n        /* \"NFT-Contracts/contracts/market_deploy/ERC721.sol\":12245:12249  from */\n      dup9\n        /* \"NFT-Contracts/contracts/market_deploy/ERC721.sol\":12264:12271  tokenId */\n      dup8\n        /* \"NFT-Contracts/contracts/market_deploy/ERC721.sol\":12286:12291  _data */\n      dup8\n        /* \"NFT-Contracts/contracts/market_deploy/ERC721.sol\":12121:12302  abi.encodeWithSelector(\r... */\n      add(0x24, mload(0x40))\n      tag_331\n      swap5\n      swap4\n      swap3\n      swap2\n      swap1\n      tag_332\n      jump\t// in\n    tag_331:\n      mload(0x40)\n      0x20\n      dup2\n      dup4\n      sub\n      sub\n      dup2\n      mstore\n      swap1\n      0x40\n      mstore\n      swap1\n      not(0xffffffffffffffffffffffffffffffffffffffffffffffffffffffff)\n      and\n      0x20\n      dup3\n      add\n      dup1\n      mload\n      0xffffffffffffffffffffffffffffffffffffffffffffffffffffffff\n      dup4\n      dup2\n      dup4\n      and\n      or\n      dup4\n      mstore\n      pop\n      pop\n      pop\n      pop\n        /* \"NFT-Contracts/contracts/market_deploy/ERC721.sol\":12105:12357  to.functionCall(abi.encodeWithSelector(\r... */\n      mload(0x40)\n      dup1\n      0x60\n      add\n      0x40\n      mstore\n      dup1\n      0x32\n      dup2\n      mstore\n      0x20\n      add\n      data_1e766a06da43a53d0f4c380e06e5a342e14d5af1bf8501996c844905530ca84e\n      0x32\n      swap2\n      codecopy\n        /* \"NFT-Contracts/contracts/market_deploy/ERC721.sol\":12105:12107  to */\n      dup8\n        /* \"NFT-Contracts/contracts/market_deploy/ERC721.sol\":12105:12120  to.functionCall */\n      0xffffffffffffffffffffffffffffffffffffffff\n      and\n      tag_333\n      swap1\n        /* \"NFT-Contracts/contracts/market_deploy/ERC721.sol\":12105:12357  to.functionCall(abi.encodeWithSelector(\r... */\n      swap3\n      swap2\n      swap1\n      0xffffffff\n      and\n      jump\t// in\n    tag_329:\n        /* \"NFT-Contracts/contracts/market_deploy/ERC721.sol\":12079:12357  bytes memory returndata = to.functionCall(abi.encodeWithSelector(\r... */\n      swap1\n      pop\n        /* \"NFT-Contracts/contracts/market_deploy/ERC721.sol\":12368:12381  bytes4 retval */\n      0x00\n        /* \"NFT-Contracts/contracts/market_deploy/ERC721.sol\":12395:12405  returndata */\n      dup2\n        /* \"NFT-Contracts/contracts/market_deploy/ERC721.sol\":12384:12416  abi.decode(returndata, (bytes4)) */\n      dup1\n      0x20\n      add\n      swap1\n      mload\n      dup2\n      add\n      swap1\n      tag_334\n      swap2\n      swap1\n      tag_335\n      jump\t// in\n    tag_334:\n        /* \"NFT-Contracts/contracts/market_deploy/ERC721.sol\":12368:12416  bytes4 retval = abi.decode(returndata, (bytes4)) */\n      swap1\n      pop\n        /* \"NFT-Contracts/contracts/market_deploy/ERC721.sol\":718:728  0x150b7a02 */\n      0x150b7a02\n        /* \"NFT-Contracts/contracts/market_deploy/ERC721.sol\":12445:12461  _ERC721_RECEIVED */\n      0xe0\n      shl\n        /* \"NFT-Contracts/contracts/market_deploy/ERC721.sol\":12435:12461  retval == _ERC721_RECEIVED */\n      not(0xffffffffffffffffffffffffffffffffffffffffffffffffffffffff)\n      and\n        /* \"NFT-Contracts/contracts/market_deploy/ERC721.sol\":12435:12441  retval */\n      dup2\n        /* \"NFT-Contracts/contracts/market_deploy/ERC721.sol\":12435:12461  retval == _ERC721_RECEIVED */\n      not(0xffffffffffffffffffffffffffffffffffffffffffffffffffffffff)\n      and\n      eq\n        /* \"NFT-Contracts/contracts/market_deploy/ERC721.sol\":12427:12462  return (retval == _ERC721_RECEIVED) */\n      swap3\n      pop\n      pop\n      pop\n        /* \"NFT-Contracts/contracts/market_deploy/ERC721.sol\":11866:12470  function _checkOnERC721Received(address from, address to, uint256 tokenId, bytes memory _data)\r... */\n    tag_325:\n      swap5\n      swap4\n      pop\n      pop\n      pop\n      pop\n      jump\t// out\n        /* \"NFT-Contracts/contracts/market_deploy/EnumerableMap.sol\":1491:1616  function _contains(Map storage map, bytes32 key) private view returns (bool) {\r... */\n    tag_291:\n        /* \"NFT-Contracts/contracts/market_deploy/EnumerableMap.sol\":1562:1566  bool */\n      0x00\n        /* \"NFT-Contracts/contracts/market_deploy/EnumerableMap.sol\":1607:1608  0 */\n      dup1\n        /* \"NFT-Contracts/contracts/market_deploy/EnumerableMap.sol\":1586:1589  map */\n      dup4\n        /* \"NFT-Contracts/contracts/market_deploy/EnumerableMap.sol\":1586:1598  map._indexes */\n      0x01\n      add\n        /* \"NFT-Contracts/contracts/market_deploy/EnumerableMap.sol\":1586:1603  map._indexes[key] */\n      0x00\n        /* \"NFT-Contracts/contracts/market_deploy/EnumerableMap.sol\":1599:1602  key */\n      dup5\n        /* \"NFT-Contracts/contracts/market_deploy/EnumerableMap.sol\":1586:1603  map._indexes[key] */\n      dup2\n      mstore\n      0x20\n      add\n      swap1\n      dup2\n      mstore\n      0x20\n      add\n      0x00\n      keccak256\n      sload\n        /* \"NFT-Contracts/contracts/market_deploy/EnumerableMap.sol\":1586:1608  map._indexes[key] != 0 */\n      eq\n      iszero\n        /* \"NFT-Contracts/contracts/market_deploy/EnumerableMap.sol\":1579:1608  return map._indexes[key] != 0 */\n      swap1\n      pop\n        /* \"NFT-Contracts/contracts/market_deploy/EnumerableMap.sol\":1491:1616  function _contains(Map storage map, bytes32 key) private view returns (bool) {\r... */\n      swap3\n      swap2\n      pop\n      pop\n      jump\t// out\n        /* \"NFT-Contracts/contracts/market_deploy/EnumerableSet.sol\":543:1214  function _remove(Set storage set, bytes32 value) private returns (bool) {\r... */\n    tag_296:\n        /* \"NFT-Contracts/contracts/market_deploy/EnumerableSet.sol\":609:613  bool */\n      0x00\n        /* \"NFT-Contracts/contracts/market_deploy/EnumerableSet.sol\":626:644  uint256 valueIndex */\n      dup1\n        /* \"NFT-Contracts/contracts/market_deploy/EnumerableSet.sol\":647:650  set */\n      dup4\n        /* \"NFT-Contracts/contracts/market_deploy/EnumerableSet.sol\":647:659  set._indexes */\n      0x01\n      add\n        /* \"NFT-Contracts/contracts/market_deploy/EnumerableSet.sol\":647:666  set._indexes[value] */\n      0x00\n        /* \"NFT-Contracts/contracts/market_deploy/EnumerableSet.sol\":660:665  value */\n      dup5\n        /* \"NFT-Contracts/contracts/market_deploy/EnumerableSet.sol\":647:666  set._indexes[value] */\n      dup2\n      mstore\n      0x20\n      add\n      swap1\n      dup2\n      mstore\n      0x20\n      add\n      0x00\n      keccak256\n      sload\n        /* \"NFT-Contracts/contracts/market_deploy/EnumerableSet.sol\":626:666  uint256 valueIndex = set._indexes[value] */\n      swap1\n      pop\n        /* \"NFT-Contracts/contracts/market_deploy/EnumerableSet.sol\":697:698  0 */\n      0x00\n        /* \"NFT-Contracts/contracts/market_deploy/EnumerableSet.sol\":683:693  valueIndex */\n      dup2\n        /* \"NFT-Contracts/contracts/market_deploy/EnumerableSet.sol\":683:698  valueIndex != 0 */\n      eq\n        /* \"NFT-Contracts/contracts/market_deploy/EnumerableSet.sol\":679:1207  if (valueIndex != 0) { // Equivalent to contains(set, value)\r... */\n      tag_338\n      jumpi\n        /* \"NFT-Contracts/contracts/market_deploy/EnumerableSet.sol\":753:774  uint256 toDeleteIndex */\n      0x00\n        /* \"NFT-Contracts/contracts/market_deploy/EnumerableSet.sol\":790:791  1 */\n      0x01\n        /* \"NFT-Contracts/contracts/market_deploy/EnumerableSet.sol\":777:787  valueIndex */\n      dup3\n        /* \"NFT-Contracts/contracts/market_deploy/EnumerableSet.sol\":777:791  valueIndex - 1 */\n      tag_339\n      swap2\n      swap1\n      tag_280\n      jump\t// in\n    tag_339:\n        /* \"NFT-Contracts/contracts/market_deploy/EnumerableSet.sol\":753:791  uint256 toDeleteIndex = valueIndex - 1 */\n      swap1\n      pop\n        /* \"NFT-Contracts/contracts/market_deploy/EnumerableSet.sol\":806:823  uint256 lastIndex */\n      0x00\n        /* \"NFT-Contracts/contracts/market_deploy/EnumerableSet.sol\":847:848  1 */\n      0x01\n        /* \"NFT-Contracts/contracts/market_deploy/EnumerableSet.sol\":826:829  set */\n      dup7\n        /* \"NFT-Contracts/contracts/market_deploy/EnumerableSet.sol\":826:837  set._values */\n      0x00\n      add\n        /* \"NFT-Contracts/contracts/market_deploy/EnumerableSet.sol\":826:844  set._values.length */\n      dup1\n      sload\n      swap1\n      pop\n        /* \"NFT-Contracts/contracts/market_deploy/EnumerableSet.sol\":826:848  set._values.length - 1 */\n      tag_340\n      swap2\n      swap1\n      tag_280\n      jump\t// in\n    tag_340:\n        /* \"NFT-Contracts/contracts/market_deploy/EnumerableSet.sol\":806:848  uint256 lastIndex = set._values.length - 1 */\n      swap1\n      pop\n        /* \"NFT-Contracts/contracts/market_deploy/EnumerableSet.sol\":863:880  bytes32 lastvalue */\n      0x00\n        /* \"NFT-Contracts/contracts/market_deploy/EnumerableSet.sol\":883:886  set */\n      dup7\n        /* \"NFT-Contracts/contracts/market_deploy/EnumerableSet.sol\":883:894  set._values */\n      0x00\n      add\n        /* \"NFT-Contracts/contracts/market_deploy/EnumerableSet.sol\":895:904  lastIndex */\n      dup3\n        /* \"NFT-Contracts/contracts/market_deploy/EnumerableSet.sol\":883:905  set._values[lastIndex] */\n      dup2\n      sload\n      dup2\n      lt\n      tag_341\n      jumpi\n      tag_342\n      tag_287\n      jump\t// in\n    tag_342:\n    tag_341:\n      swap1\n      0x00\n      mstore\n      keccak256(0x00, 0x20)\n      add\n      sload\n        /* \"NFT-Contracts/contracts/market_deploy/EnumerableSet.sol\":863:905  bytes32 lastvalue = set._values[lastIndex] */\n      swap1\n      pop\n        /* \"NFT-Contracts/contracts/market_deploy/EnumerableSet.sol\":951:960  lastvalue */\n      dup1\n        /* \"NFT-Contracts/contracts/market_deploy/EnumerableSet.sol\":922:925  set */\n      dup8\n        /* \"NFT-Contracts/contracts/market_deploy/EnumerableSet.sol\":922:933  set._values */\n      0x00\n      add\n        /* \"NFT-Contracts/contracts/market_deploy/EnumerableSet.sol\":934:947  toDeleteIndex */\n      dup5\n        /* \"NFT-Contracts/contracts/market_deploy/EnumerableSet.sol\":922:948  set._values[toDeleteIndex] */\n      dup2\n      sload\n      dup2\n      lt\n      tag_344\n      jumpi\n      tag_345\n      tag_287\n      jump\t// in\n    tag_345:\n    tag_344:\n      swap1\n      0x00\n      mstore\n      keccak256(0x00, 0x20)\n      add\n        /* \"NFT-Contracts/contracts/market_deploy/EnumerableSet.sol\":922:960  set._values[toDeleteIndex] = lastvalue */\n      dup2\n      swap1\n      sstore\n      pop\n        /* \"NFT-Contracts/contracts/market_deploy/EnumerableSet.sol\":1017:1018  1 */\n      0x01\n        /* \"NFT-Contracts/contracts/market_deploy/EnumerableSet.sol\":1001:1014  toDeleteIndex */\n      dup4\n        /* \"NFT-Contracts/contracts/market_deploy/EnumerableSet.sol\":1001:1018  toDeleteIndex + 1 */\n      tag_347\n      swap2\n      swap1\n      tag_284\n      jump\t// in\n    tag_347:\n        /* \"NFT-Contracts/contracts/market_deploy/EnumerableSet.sol\":975:978  set */\n      dup8\n        /* \"NFT-Contracts/contracts/market_deploy/EnumerableSet.sol\":975:987  set._indexes */\n      0x01\n      add\n        /* \"NFT-Contracts/contracts/market_deploy/EnumerableSet.sol\":975:998  set._indexes[lastvalue] */\n      0x00\n        /* \"NFT-Contracts/contracts/market_deploy/EnumerableSet.sol\":988:997  lastvalue */\n      dup4\n        /* \"NFT-Contracts/contracts/market_deploy/EnumerableSet.sol\":975:998  set._indexes[lastvalue] */\n      dup2\n      mstore\n      0x20\n      add\n      swap1\n      dup2\n      mstore\n      0x20\n      add\n      0x00\n      keccak256\n        /* \"NFT-Contracts/contracts/market_deploy/EnumerableSet.sol\":975:1018  set._indexes[lastvalue] = toDeleteIndex + 1 */\n      dup2\n      swap1\n      sstore\n      pop\n        /* \"NFT-Contracts/contracts/market_deploy/EnumerableSet.sol\":1062:1065  set */\n      dup7\n        /* \"NFT-Contracts/contracts/market_deploy/EnumerableSet.sol\":1062:1073  set._values */\n      0x00\n      add\n        /* \"NFT-Contracts/contracts/market_deploy/EnumerableSet.sol\":1062:1079  set._values.pop() */\n      dup1\n      sload\n      dup1\n      tag_348\n      jumpi\n      tag_349\n      tag_350\n      jump\t// in\n    tag_349:\n    tag_348:\n      0x01\n      swap1\n      sub\n      dup2\n      dup2\n      swap1\n      0x00\n      mstore\n      keccak256(0x00, 0x20)\n      add\n      0x00\n      swap1\n      sstore\n      swap1\n      sstore\n        /* \"NFT-Contracts/contracts/market_deploy/EnumerableSet.sol\":1103:1106  set */\n      dup7\n        /* \"NFT-Contracts/contracts/market_deploy/EnumerableSet.sol\":1103:1115  set._indexes */\n      0x01\n      add\n        /* \"NFT-Contracts/contracts/market_deploy/EnumerableSet.sol\":1103:1122  set._indexes[value] */\n      0x00\n        /* \"NFT-Contracts/contracts/market_deploy/EnumerableSet.sol\":1116:1121  value */\n      dup8\n        /* \"NFT-Contracts/contracts/market_deploy/EnumerableSet.sol\":1103:1122  set._indexes[value] */\n      dup2\n      mstore\n      0x20\n      add\n      swap1\n      dup2\n      mstore\n      0x20\n      add\n      0x00\n      keccak256\n        /* \"NFT-Contracts/contracts/market_deploy/EnumerableSet.sol\":1096:1122  delete set._indexes[value] */\n      0x00\n      swap1\n      sstore\n        /* \"NFT-Contracts/contracts/market_deploy/EnumerableSet.sol\":1146:1150  true */\n      0x01\n        /* \"NFT-Contracts/contracts/market_deploy/EnumerableSet.sol\":1139:1150  return true */\n      swap5\n      pop\n      pop\n      pop\n      pop\n      pop\n      jump(tag_337)\n        /* \"NFT-Contracts/contracts/market_deploy/EnumerableSet.sol\":679:1207  if (valueIndex != 0) { // Equivalent to contains(set, value)\r... */\n    tag_338:\n        /* \"NFT-Contracts/contracts/market_deploy/EnumerableSet.sol\":1190:1195  false */\n      0x00\n        /* \"NFT-Contracts/contracts/market_deploy/EnumerableSet.sol\":1183:1195  return false */\n      swap2\n      pop\n      pop\n        /* \"NFT-Contracts/contracts/market_deploy/EnumerableSet.sol\":543:1214  function _remove(Set storage set, bytes32 value) private returns (bool) {\r... */\n    tag_337:\n      swap3\n      swap2\n      pop\n      pop\n      jump\t// out\n        /* \"NFT-Contracts/contracts/market_deploy/EnumerableSet.sol\":244:535  function _add(Set storage set, bytes32 value) private returns (bool) {\r... */\n    tag_299:\n        /* \"NFT-Contracts/contracts/market_deploy/EnumerableSet.sol\":307:311  bool */\n      0x00\n        /* \"NFT-Contracts/contracts/market_deploy/EnumerableSet.sol\":329:350  _contains(set, value) */\n      tag_354\n        /* \"NFT-Contracts/contracts/market_deploy/EnumerableSet.sol\":339:342  set */\n      dup4\n        /* \"NFT-Contracts/contracts/market_deploy/EnumerableSet.sol\":344:349  value */\n      dup4\n        /* \"NFT-Contracts/contracts/market_deploy/EnumerableSet.sol\":329:338  _contains */\n      tag_355\n        /* \"NFT-Contracts/contracts/market_deploy/EnumerableSet.sol\":329:350  _contains(set, value) */\n      jump\t// in\n    tag_354:\n        /* \"NFT-Contracts/contracts/market_deploy/EnumerableSet.sol\":324:528  if (!_contains(set, value)) {\r... */\n      tag_356\n      jumpi\n        /* \"NFT-Contracts/contracts/market_deploy/EnumerableSet.sol\":367:370  set */\n      dup3\n        /* \"NFT-Contracts/contracts/market_deploy/EnumerableSet.sol\":367:378  set._values */\n      0x00\n      add\n        /* \"NFT-Contracts/contracts/market_deploy/EnumerableSet.sol\":384:389  value */\n      dup3\n        /* \"NFT-Contracts/contracts/market_deploy/EnumerableSet.sol\":367:390  set._values.push(value) */\n      swap1\n      dup1\n      0x01\n      dup2\n      sload\n      add\n      dup1\n      dup3\n      sstore\n      dup1\n      swap2\n      pop\n      pop\n      0x01\n      swap1\n      sub\n      swap1\n      0x00\n      mstore\n      keccak256(0x00, 0x20)\n      add\n      0x00\n      swap1\n      swap2\n      swap1\n      swap2\n      swap1\n      swap2\n      pop\n      sstore\n        /* \"NFT-Contracts/contracts/market_deploy/EnumerableSet.sol\":427:430  set */\n      dup3\n        /* \"NFT-Contracts/contracts/market_deploy/EnumerableSet.sol\":427:438  set._values */\n      0x00\n      add\n        /* \"NFT-Contracts/contracts/market_deploy/EnumerableSet.sol\":427:445  set._values.length */\n      dup1\n      sload\n      swap1\n      pop\n        /* \"NFT-Contracts/contracts/market_deploy/EnumerableSet.sol\":405:408  set */\n      dup4\n        /* \"NFT-Contracts/contracts/market_deploy/EnumerableSet.sol\":405:417  set._indexes */\n      0x01\n      add\n        /* \"NFT-Contracts/contracts/market_deploy/EnumerableSet.sol\":405:424  set._indexes[value] */\n      0x00\n        /* \"NFT-Contracts/contracts/market_deploy/EnumerableSet.sol\":418:423  value */\n      dup5\n        /* \"NFT-Contracts/contracts/market_deploy/EnumerableSet.sol\":405:424  set._indexes[value] */\n      dup2\n      mstore\n      0x20\n      add\n      swap1\n      dup2\n      mstore\n      0x20\n      add\n      0x00\n      keccak256\n        /* \"NFT-Contracts/contracts/market_deploy/EnumerableSet.sol\":405:445  set._indexes[value] = set._values.length */\n      dup2\n      swap1\n      sstore\n      pop\n        /* \"NFT-Contracts/contracts/market_deploy/EnumerableSet.sol\":467:471  true */\n      0x01\n        /* \"NFT-Contracts/contracts/market_deploy/EnumerableSet.sol\":460:471  return true */\n      swap1\n      pop\n      jump(tag_353)\n        /* \"NFT-Contracts/contracts/market_deploy/EnumerableSet.sol\":324:528  if (!_contains(set, value)) {\r... */\n    tag_356:\n        /* \"NFT-Contracts/contracts/market_deploy/EnumerableSet.sol\":511:516  false */\n      0x00\n        /* \"NFT-Contracts/contracts/market_deploy/EnumerableSet.sol\":504:516  return false */\n      swap1\n      pop\n        /* \"NFT-Contracts/contracts/market_deploy/EnumerableSet.sol\":244:535  function _add(Set storage set, bytes32 value) private returns (bool) {\r... */\n    tag_353:\n      swap3\n      swap2\n      pop\n      pop\n      jump\t// out\n        /* \"NFT-Contracts/contracts/market_deploy/EnumerableMap.sol\":330:800  function _set(Map storage map, bytes32 key, bytes32 value) private returns (bool) {\r... */\n    tag_302:\n        /* \"NFT-Contracts/contracts/market_deploy/EnumerableMap.sol\":406:410  bool */\n      0x00\n        /* \"NFT-Contracts/contracts/market_deploy/EnumerableMap.sol\":423:439  uint256 keyIndex */\n      dup1\n        /* \"NFT-Contracts/contracts/market_deploy/EnumerableMap.sol\":442:445  map */\n      dup5\n        /* \"NFT-Contracts/contracts/market_deploy/EnumerableMap.sol\":442:454  map._indexes */\n      0x01\n      add\n        /* \"NFT-Contracts/contracts/market_deploy/EnumerableMap.sol\":442:459  map._indexes[key] */\n      0x00\n        /* \"NFT-Contracts/contracts/market_deploy/EnumerableMap.sol\":455:458  key */\n      dup6\n        /* \"NFT-Contracts/contracts/market_deploy/EnumerableMap.sol\":442:459  map._indexes[key] */\n      dup2\n      mstore\n      0x20\n      add\n      swap1\n      dup2\n      mstore\n      0x20\n      add\n      0x00\n      keccak256\n      sload\n        /* \"NFT-Contracts/contracts/market_deploy/EnumerableMap.sol\":423:459  uint256 keyIndex = map._indexes[key] */\n      swap1\n      pop\n        /* \"NFT-Contracts/contracts/market_deploy/EnumerableMap.sol\":488:489  0 */\n      0x00\n        /* \"NFT-Contracts/contracts/market_deploy/EnumerableMap.sol\":476:484  keyIndex */\n      dup2\n        /* \"NFT-Contracts/contracts/market_deploy/EnumerableMap.sol\":476:489  keyIndex == 0 */\n      eq\n        /* \"NFT-Contracts/contracts/market_deploy/EnumerableMap.sol\":472:793  if (keyIndex == 0) { // Equivalent to !contains(map, key)\r... */\n      iszero\n      tag_360\n      jumpi\n        /* \"NFT-Contracts/contracts/market_deploy/EnumerableMap.sol\":543:546  map */\n      dup5\n        /* \"NFT-Contracts/contracts/market_deploy/EnumerableMap.sol\":543:555  map._entries */\n      0x00\n      add\n        /* \"NFT-Contracts/contracts/market_deploy/EnumerableMap.sol\":561:599  MapEntry({ _key: key, _value: value }) */\n      mload(0x40)\n      dup1\n      0x40\n      add\n      0x40\n      mstore\n      dup1\n        /* \"NFT-Contracts/contracts/market_deploy/EnumerableMap.sol\":578:581  key */\n      dup7\n        /* \"NFT-Contracts/contracts/market_deploy/EnumerableMap.sol\":561:599  MapEntry({ _key: key, _value: value }) */\n      dup2\n      mstore\n      0x20\n      add\n        /* \"NFT-Contracts/contracts/market_deploy/EnumerableMap.sol\":591:596  value */\n      dup6\n        /* \"NFT-Contracts/contracts/market_deploy/EnumerableMap.sol\":561:599  MapEntry({ _key: key, _value: value }) */\n      dup2\n      mstore\n      pop\n        /* \"NFT-Contracts/contracts/market_deploy/EnumerableMap.sol\":543:600  map._entries.push(MapEntry({ _key: key, _value: value })) */\n      swap1\n      dup1\n      0x01\n      dup2\n      sload\n      add\n      dup1\n      dup3\n      sstore\n      dup1\n      swap2\n      pop\n      pop\n      0x01\n      swap1\n      sub\n      swap1\n      0x00\n      mstore\n      keccak256(0x00, 0x20)\n      swap1\n      0x02\n      mul\n      add\n      0x00\n      swap1\n      swap2\n      swap1\n      swap2\n      swap1\n      swap2\n      pop\n      0x00\n      dup3\n      add\n      mload\n      dup2\n      0x00\n      add\n      sstore\n      0x20\n      dup3\n      add\n      mload\n      dup2\n      0x01\n      add\n      sstore\n      pop\n      pop\n        /* \"NFT-Contracts/contracts/market_deploy/EnumerableMap.sol\":635:638  map */\n      dup5\n        /* \"NFT-Contracts/contracts/market_deploy/EnumerableMap.sol\":635:647  map._entries */\n      0x00\n      add\n        /* \"NFT-Contracts/contracts/market_deploy/EnumerableMap.sol\":635:654  map._entries.length */\n      dup1\n      sload\n      swap1\n      pop\n        /* \"NFT-Contracts/contracts/market_deploy/EnumerableMap.sol\":615:618  map */\n      dup6\n        /* \"NFT-Contracts/contracts/market_deploy/EnumerableMap.sol\":615:627  map._indexes */\n      0x01\n      add\n        /* \"NFT-Contracts/contracts/market_deploy/EnumerableMap.sol\":615:632  map._indexes[key] */\n      0x00\n        /* \"NFT-Contracts/contracts/market_deploy/EnumerableMap.sol\":628:631  key */\n      dup7\n        /* \"NFT-Contracts/contracts/market_deploy/EnumerableMap.sol\":615:632  map._indexes[key] */\n      dup2\n      mstore\n      0x20\n      add\n      swap1\n      dup2\n      mstore\n      0x20\n      add\n      0x00\n      keccak256\n        /* \"NFT-Contracts/contracts/market_deploy/EnumerableMap.sol\":615:654  map._indexes[key] = map._entries.length */\n      dup2\n      swap1\n      sstore\n      pop\n        /* \"NFT-Contracts/contracts/market_deploy/EnumerableMap.sol\":676:680  true */\n      0x01\n        /* \"NFT-Contracts/contracts/market_deploy/EnumerableMap.sol\":669:680  return true */\n      swap2\n      pop\n      pop\n      jump(tag_359)\n        /* \"NFT-Contracts/contracts/market_deploy/EnumerableMap.sol\":472:793  if (keyIndex == 0) { // Equivalent to !contains(map, key)\r... */\n    tag_360:\n        /* \"NFT-Contracts/contracts/market_deploy/EnumerableMap.sol\":749:754  value */\n      dup3\n        /* \"NFT-Contracts/contracts/market_deploy/EnumerableMap.sol\":713:716  map */\n      dup6\n        /* \"NFT-Contracts/contracts/market_deploy/EnumerableMap.sol\":713:725  map._entries */\n      0x00\n      add\n        /* \"NFT-Contracts/contracts/market_deploy/EnumerableMap.sol\":737:738  1 */\n      0x01\n        /* \"NFT-Contracts/contracts/market_deploy/EnumerableMap.sol\":726:734  keyIndex */\n      dup4\n        /* \"NFT-Contracts/contracts/market_deploy/EnumerableMap.sol\":726:738  keyIndex - 1 */\n      tag_363\n      swap2\n      swap1\n      tag_280\n      jump\t// in\n    tag_363:\n        /* \"NFT-Contracts/contracts/market_deploy/EnumerableMap.sol\":713:739  map._entries[keyIndex - 1] */\n      dup2\n      sload\n      dup2\n      lt\n      tag_364\n      jumpi\n      tag_365\n      tag_287\n      jump\t// in\n    tag_365:\n    tag_364:\n      swap1\n      0x00\n      mstore\n      keccak256(0x00, 0x20)\n      swap1\n      0x02\n      mul\n      add\n        /* \"NFT-Contracts/contracts/market_deploy/EnumerableMap.sol\":713:746  map._entries[keyIndex - 1]._value */\n      0x01\n      add\n        /* \"NFT-Contracts/contracts/market_deploy/EnumerableMap.sol\":713:754  map._entries[keyIndex - 1]._value = value */\n      dup2\n      swap1\n      sstore\n      pop\n        /* \"NFT-Contracts/contracts/market_deploy/EnumerableMap.sol\":776:781  false */\n      0x00\n        /* \"NFT-Contracts/contracts/market_deploy/EnumerableMap.sol\":769:781  return false */\n      swap2\n      pop\n      pop\n        /* \"NFT-Contracts/contracts/market_deploy/EnumerableMap.sol\":330:800  function _set(Map storage map, bytes32 key, bytes32 value) private returns (bool) {\r... */\n    tag_359:\n      swap4\n      swap3\n      pop\n      pop\n      pop\n      jump\t// out\n        /* \"NFT-Contracts/contracts/market_deploy/Address.sol\":1191:1517  function isContract(address account) internal view returns (bool) {\r... */\n    tag_327:\n        /* \"NFT-Contracts/contracts/market_deploy/Address.sol\":1251:1255  bool */\n      0x00\n        /* \"NFT-Contracts/contracts/market_deploy/Address.sol\":1508:1509  0 */\n      dup1\n        /* \"NFT-Contracts/contracts/market_deploy/Address.sol\":1486:1493  account */\n      dup3\n        /* \"NFT-Contracts/contracts/market_deploy/Address.sol\":1486:1505  account.code.length */\n      0xffffffffffffffffffffffffffffffffffffffff\n      and\n      extcodesize\n        /* \"NFT-Contracts/contracts/market_deploy/Address.sol\":1486:1509  account.code.length > 0 */\n      gt\n        /* \"NFT-Contracts/contracts/market_deploy/Address.sol\":1479:1509  return account.code.length > 0 */\n      swap1\n      pop\n        /* \"NFT-Contracts/contracts/market_deploy/Address.sol\":1191:1517  function isContract(address account) internal view returns (bool) {\r... */\n      swap2\n      swap1\n      pop\n      jump\t// out\n        /* \"NFT-Contracts/contracts/market_deploy/Address.sol\":3948:4177  function functionCall(\r... */\n    tag_333:\n        /* \"NFT-Contracts/contracts/market_deploy/Address.sol\":4085:4097  bytes memory */\n      0x60\n        /* \"NFT-Contracts/contracts/market_deploy/Address.sol\":4117:4169  functionCallWithValue(target, data, 0, errorMessage) */\n      tag_369\n        /* \"NFT-Contracts/contracts/market_deploy/Address.sol\":4139:4145  target */\n      dup5\n        /* \"NFT-Contracts/contracts/market_deploy/Address.sol\":4147:4151  data */\n      dup5\n        /* \"NFT-Contracts/contracts/market_deploy/Address.sol\":4153:4154  0 */\n      0x00\n        /* \"NFT-Contracts/contracts/market_deploy/Address.sol\":4156:4168  errorMessage */\n      dup6\n        /* \"NFT-Contracts/contracts/market_deploy/Address.sol\":4117:4138  functionCallWithValue */\n      tag_370\n        /* \"NFT-Contracts/contracts/market_deploy/Address.sol\":4117:4169  functionCallWithValue(target, data, 0, errorMessage) */\n      jump\t// in\n    tag_369:\n        /* \"NFT-Contracts/contracts/market_deploy/Address.sol\":4110:4169  return functionCallWithValue(target, data, 0, errorMessage) */\n      swap1\n      pop\n        /* \"NFT-Contracts/contracts/market_deploy/Address.sol\":3948:4177  function functionCall(\r... */\n      swap4\n      swap3\n      pop\n      pop\n      pop\n      jump\t// out\n        /* \"NFT-Contracts/contracts/market_deploy/EnumerableSet.sol\":1222:1351  function _contains(Set storage set, bytes32 value) private view returns (bool) {\r... */\n    tag_355:\n        /* \"NFT-Contracts/contracts/market_deploy/EnumerableSet.sol\":1295:1299  bool */\n      0x00\n        /* \"NFT-Contracts/contracts/market_deploy/EnumerableSet.sol\":1342:1343  0 */\n      dup1\n        /* \"NFT-Contracts/contracts/market_deploy/EnumerableSet.sol\":1319:1322  set */\n      dup4\n        /* \"NFT-Contracts/contracts/market_deploy/EnumerableSet.sol\":1319:1331  set._indexes */\n      0x01\n      add\n        /* \"NFT-Contracts/contracts/market_deploy/EnumerableSet.sol\":1319:1338  set._indexes[value] */\n      0x00\n        /* \"NFT-Contracts/contracts/market_deploy/EnumerableSet.sol\":1332:1337  value */\n      dup5\n        /* \"NFT-Contracts/contracts/market_deploy/EnumerableSet.sol\":1319:1338  set._indexes[value] */\n      dup2\n      mstore\n      0x20\n      add\n      swap1\n      dup2\n      mstore\n      0x20\n      add\n      0x00\n      keccak256\n      sload\n        /* \"NFT-Contracts/contracts/market_deploy/EnumerableSet.sol\":1319:1343  set._indexes[value] != 0 */\n      eq\n      iszero\n        /* \"NFT-Contracts/contracts/market_deploy/EnumerableSet.sol\":1312:1343  return set._indexes[value] != 0 */\n      swap1\n      pop\n        /* \"NFT-Contracts/contracts/market_deploy/EnumerableSet.sol\":1222:1351  function _contains(Set storage set, bytes32 value) private view returns (bool) {\r... */\n      swap3\n      swap2\n      pop\n      pop\n      jump\t// out\n        /* \"NFT-Contracts/contracts/market_deploy/Address.sol\":5068:5523  function functionCallWithValue(\r... */\n    tag_370:\n        /* \"NFT-Contracts/contracts/market_deploy/Address.sol\":5238:5250  bytes memory */\n      0x60\n        /* \"NFT-Contracts/contracts/market_deploy/Address.sol\":5296:5301  value */\n      dup3\n        /* \"NFT-Contracts/contracts/market_deploy/Address.sol\":5271:5292  address(this).balance */\n      selfbalance\n        /* \"NFT-Contracts/contracts/market_deploy/Address.sol\":5271:5301  address(this).balance >= value */\n      lt\n      iszero\n        /* \"NFT-Contracts/contracts/market_deploy/Address.sol\":5263:5344  require(address(this).balance >= value, \"Address: insufficient balance for call\") */\n      tag_373\n      jumpi\n      mload(0x40)\n      0x08c379a000000000000000000000000000000000000000000000000000000000\n      dup2\n      mstore\n      0x04\n      add\n      tag_374\n      swap1\n      tag_375\n      jump\t// in\n    tag_374:\n      mload(0x40)\n      dup1\n      swap2\n      sub\n      swap1\n      revert\n    tag_373:\n        /* \"NFT-Contracts/contracts/market_deploy/Address.sol\":5356:5368  bool success */\n      0x00\n        /* \"NFT-Contracts/contracts/market_deploy/Address.sol\":5370:5393  bytes memory returndata */\n      dup1\n        /* \"NFT-Contracts/contracts/market_deploy/Address.sol\":5397:5403  target */\n      dup7\n        /* \"NFT-Contracts/contracts/market_deploy/Address.sol\":5397:5408  target.call */\n      0xffffffffffffffffffffffffffffffffffffffff\n      and\n        /* \"NFT-Contracts/contracts/market_deploy/Address.sol\":5416:5421  value */\n      dup6\n        /* \"NFT-Contracts/contracts/market_deploy/Address.sol\":5423:5427  data */\n      dup8\n        /* \"NFT-Contracts/contracts/market_deploy/Address.sol\":5397:5428  target.call{value: value}(data) */\n      mload(0x40)\n      tag_376\n      swap2\n      swap1\n      tag_377\n      jump\t// in\n    tag_376:\n      0x00\n      mload(0x40)\n      dup1\n      dup4\n      sub\n      dup2\n      dup6\n      dup8\n      gas\n      call\n      swap3\n      pop\n      pop\n      pop\n      returndatasize\n      dup1\n      0x00\n      dup2\n      eq\n      tag_380\n      jumpi\n      mload(0x40)\n      swap2\n      pop\n      and(add(returndatasize, 0x3f), not(0x1f))\n      dup3\n      add\n      0x40\n      mstore\n      returndatasize\n      dup3\n      mstore\n      returndatasize\n      0x00\n      0x20\n      dup5\n      add\n      returndatacopy\n      jump(tag_379)\n    tag_380:\n      0x60\n      swap2\n      pop\n    tag_379:\n      pop\n        /* \"NFT-Contracts/contracts/market_deploy/Address.sol\":5355:5428  (bool success, bytes memory returndata) = target.call{value: value}(data) */\n      swap2\n      pop\n      swap2\n      pop\n        /* \"NFT-Contracts/contracts/market_deploy/Address.sol\":5446:5515  verifyCallResultFromTarget(target, success, returndata, errorMessage) */\n      tag_381\n        /* \"NFT-Contracts/contracts/market_deploy/Address.sol\":5473:5479  target */\n      dup8\n        /* \"NFT-Contracts/contracts/market_deploy/Address.sol\":5481:5488  success */\n      dup4\n        /* \"NFT-Contracts/contracts/market_deploy/Address.sol\":5490:5500  returndata */\n      dup4\n        /* \"NFT-Contracts/contracts/market_deploy/Address.sol\":5502:5514  errorMessage */\n      dup8\n        /* \"NFT-Contracts/contracts/market_deploy/Address.sol\":5446:5472  verifyCallResultFromTarget */\n      tag_382\n        /* \"NFT-Contracts/contracts/market_deploy/Address.sol\":5446:5515  verifyCallResultFromTarget(target, success, returndata, errorMessage) */\n      jump\t// in\n    tag_381:\n        /* \"NFT-Contracts/contracts/market_deploy/Address.sol\":5439:5515  return verifyCallResultFromTarget(target, success, returndata, errorMessage) */\n      swap3\n      pop\n      pop\n      pop\n        /* \"NFT-Contracts/contracts/market_deploy/Address.sol\":5068:5523  function functionCallWithValue(\r... */\n      swap5\n      swap4\n      pop\n      pop\n      pop\n      pop\n      jump\t// out\n        /* \"NFT-Contracts/contracts/market_deploy/Address.sol\":7641:8285  function verifyCallResultFromTarget(\r... */\n    tag_382:\n        /* \"NFT-Contracts/contracts/market_deploy/Address.sol\":7826:7838  bytes memory */\n      0x60\n        /* \"NFT-Contracts/contracts/market_deploy/Address.sol\":7855:7862  success */\n      dup4\n        /* \"NFT-Contracts/contracts/market_deploy/Address.sol\":7851:8278  if (success) {\r... */\n      iszero\n      tag_384\n      jumpi\n        /* \"NFT-Contracts/contracts/market_deploy/Address.sol\":7904:7905  0 */\n      0x00\n        /* \"NFT-Contracts/contracts/market_deploy/Address.sol\":7883:7893  returndata */\n      dup4\n        /* \"NFT-Contracts/contracts/market_deploy/Address.sol\":7883:7900  returndata.length */\n      mload\n        /* \"NFT-Contracts/contracts/market_deploy/Address.sol\":7883:7905  returndata.length == 0 */\n      eq\n        /* \"NFT-Contracts/contracts/market_deploy/Address.sol\":7879:8169  if (returndata.length == 0) {\r... */\n      iszero\n      tag_385\n      jumpi\n        /* \"NFT-Contracts/contracts/market_deploy/Address.sol\":8101:8119  isContract(target) */\n      tag_386\n        /* \"NFT-Contracts/contracts/market_deploy/Address.sol\":8112:8118  target */\n      dup6\n        /* \"NFT-Contracts/contracts/market_deploy/Address.sol\":8101:8111  isContract */\n      tag_327\n        /* \"NFT-Contracts/contracts/market_deploy/Address.sol\":8101:8119  isContract(target) */\n      jump\t// in\n    tag_386:\n        /* \"NFT-Contracts/contracts/market_deploy/Address.sol\":8093:8153  require(isContract(target), \"Address: call to non-contract\") */\n      tag_387\n      jumpi\n      mload(0x40)\n      0x08c379a000000000000000000000000000000000000000000000000000000000\n      dup2\n      mstore\n      0x04\n      add\n      tag_388\n      swap1\n      tag_389\n      jump\t// in\n    tag_388:\n      mload(0x40)\n      dup1\n      swap2\n      sub\n      swap1\n      revert\n    tag_387:\n        /* \"NFT-Contracts/contracts/market_deploy/Address.sol\":7879:8169  if (returndata.length == 0) {\r... */\n    tag_385:\n        /* \"NFT-Contracts/contracts/market_deploy/Address.sol\":8190:8200  returndata */\n      dup3\n        /* \"NFT-Contracts/contracts/market_deploy/Address.sol\":8183:8200  return returndata */\n      swap1\n      pop\n      jump(tag_383)\n        /* \"NFT-Contracts/contracts/market_deploy/Address.sol\":7851:8278  if (success) {\r... */\n    tag_384:\n        /* \"NFT-Contracts/contracts/market_deploy/Address.sol\":8233:8266  _revert(returndata, errorMessage) */\n      tag_391\n        /* \"NFT-Contracts/contracts/market_deploy/Address.sol\":8241:8251  returndata */\n      dup4\n        /* \"NFT-Contracts/contracts/market_deploy/Address.sol\":8253:8265  errorMessage */\n      dup4\n        /* \"NFT-Contracts/contracts/market_deploy/Address.sol\":8233:8240  _revert */\n      tag_392\n        /* \"NFT-Contracts/contracts/market_deploy/Address.sol\":8233:8266  _revert(returndata, errorMessage) */\n      jump\t// in\n    tag_391:\n        /* \"NFT-Contracts/contracts/market_deploy/Address.sol\":7641:8285  function verifyCallResultFromTarget(\r... */\n    tag_383:\n      swap5\n      swap4\n      pop\n      pop\n      pop\n      pop\n      jump\t// out\n        /* \"NFT-Contracts/contracts/market_deploy/Address.sol\":8827:9379  function _revert(bytes memory returndata, string memory errorMessage) private pure {\r... */\n    tag_392:\n        /* \"NFT-Contracts/contracts/market_deploy/Address.sol\":9008:9009  0 */\n      0x00\n        /* \"NFT-Contracts/contracts/market_deploy/Address.sol\":8988:8998  returndata */\n      dup3\n        /* \"NFT-Contracts/contracts/market_deploy/Address.sol\":8988:9005  returndata.length */\n      mload\n        /* \"NFT-Contracts/contracts/market_deploy/Address.sol\":8988:9009  returndata.length > 0 */\n      gt\n        /* \"NFT-Contracts/contracts/market_deploy/Address.sol\":8984:9372  if (returndata.length > 0) {\r... */\n      iszero\n      tag_394\n      jumpi\n        /* \"NFT-Contracts/contracts/market_deploy/Address.sol\":9220:9230  returndata */\n      dup2\n        /* \"NFT-Contracts/contracts/market_deploy/Address.sol\":9214:9231  mload(returndata) */\n      mload\n        /* \"NFT-Contracts/contracts/market_deploy/Address.sol\":9277:9292  returndata_size */\n      dup1\n        /* \"NFT-Contracts/contracts/market_deploy/Address.sol\":9264:9274  returndata */\n      dup4\n        /* \"NFT-Contracts/contracts/market_deploy/Address.sol\":9260:9262  32 */\n      0x20\n        /* \"NFT-Contracts/contracts/market_deploy/Address.sol\":9256:9275  add(32, returndata) */\n      add\n        /* \"NFT-Contracts/contracts/market_deploy/Address.sol\":9249:9293  revert(add(32, returndata), returndata_size) */\n      revert\n        /* \"NFT-Contracts/contracts/market_deploy/Address.sol\":8984:9372  if (returndata.length > 0) {\r... */\n    tag_394:\n        /* \"NFT-Contracts/contracts/market_deploy/Address.sol\":9347:9359  errorMessage */\n      dup1\n        /* \"NFT-Contracts/contracts/market_deploy/Address.sol\":9340:9360  revert(errorMessage) */\n      mload(0x40)\n      0x08c379a000000000000000000000000000000000000000000000000000000000\n      dup2\n      mstore\n      0x04\n      add\n      tag_396\n      swap2\n      swap1\n      tag_34\n      jump\t// in\n    tag_396:\n      mload(0x40)\n      dup1\n      swap2\n      sub\n      swap1\n      revert\n        /* \"#utility.yul\":7:417   */\n    tag_398:\n        /* \"#utility.yul\":84:89   */\n      0x00\n        /* \"#utility.yul\":109:174   */\n      tag_400\n        /* \"#utility.yul\":125:173   */\n      tag_401\n        /* \"#utility.yul\":166:172   */\n      dup5\n        /* \"#utility.yul\":125:173   */\n      tag_402\n      jump\t// in\n    tag_401:\n        /* \"#utility.yul\":109:174   */\n      tag_403\n      jump\t// in\n    tag_400:\n        /* \"#utility.yul\":100:174   */\n      swap1\n      pop\n        /* \"#utility.yul\":197:203   */\n      dup3\n        /* \"#utility.yul\":190:195   */\n      dup2\n        /* \"#utility.yul\":183:204   */\n      mstore\n        /* \"#utility.yul\":235:239   */\n      0x20\n        /* \"#utility.yul\":228:233   */\n      dup2\n        /* \"#utility.yul\":224:240   */\n      add\n        /* \"#utility.yul\":273:276   */\n      dup5\n        /* \"#utility.yul\":264:270   */\n      dup5\n        /* \"#utility.yul\":259:262   */\n      dup5\n        /* \"#utility.yul\":255:271   */\n      add\n        /* \"#utility.yul\":252:277   */\n      gt\n        /* \"#utility.yul\":249:361   */\n      iszero\n      tag_404\n      jumpi\n        /* \"#utility.yul\":280:359   */\n      tag_405\n      tag_406\n      jump\t// in\n    tag_405:\n        /* \"#utility.yul\":249:361   */\n    tag_404:\n        /* \"#utility.yul\":370:411   */\n      tag_407\n        /* \"#utility.yul\":404:410   */\n      dup5\n        /* \"#utility.yul\":399:402   */\n      dup3\n        /* \"#utility.yul\":394:397   */\n      dup6\n        /* \"#utility.yul\":370:411   */\n      tag_408\n      jump\t// in\n    tag_407:\n        /* \"#utility.yul\":90:417   */\n      pop\n        /* \"#utility.yul\":7:417   */\n      swap4\n      swap3\n      pop\n      pop\n      pop\n      jump\t// out\n        /* \"#utility.yul\":423:562   */\n    tag_409:\n        /* \"#utility.yul\":469:474   */\n      0x00\n        /* \"#utility.yul\":507:513   */\n      dup2\n        /* \"#utility.yul\":494:514   */\n      calldataload\n        /* \"#utility.yul\":485:514   */\n      swap1\n      pop\n        /* \"#utility.yul\":523:556   */\n      tag_411\n        /* \"#utility.yul\":550:555   */\n      dup2\n        /* \"#utility.yul\":523:556   */\n      tag_412\n      jump\t// in\n    tag_411:\n        /* \"#utility.yul\":423:562   */\n      swap3\n      swap2\n      pop\n      pop\n      jump\t// out\n        /* \"#utility.yul\":568:701   */\n    tag_413:\n        /* \"#utility.yul\":611:616   */\n      0x00\n        /* \"#utility.yul\":649:655   */\n      dup2\n        /* \"#utility.yul\":636:656   */\n      calldataload\n        /* \"#utility.yul\":627:656   */\n      swap1\n      pop\n        /* \"#utility.yul\":665:695   */\n      tag_415\n        /* \"#utility.yul\":689:694   */\n      dup2\n        /* \"#utility.yul\":665:695   */\n      tag_416\n      jump\t// in\n    tag_415:\n        /* \"#utility.yul\":568:701   */\n      swap3\n      swap2\n      pop\n      pop\n      jump\t// out\n        /* \"#utility.yul\":707:844   */\n    tag_417:\n        /* \"#utility.yul\":752:757   */\n      0x00\n        /* \"#utility.yul\":790:796   */\n      dup2\n        /* \"#utility.yul\":777:797   */\n      calldataload\n        /* \"#utility.yul\":768:797   */\n      swap1\n      pop\n        /* \"#utility.yul\":806:838   */\n      tag_419\n        /* \"#utility.yul\":832:837   */\n      dup2\n        /* \"#utility.yul\":806:838   */\n      tag_420\n      jump\t// in\n    tag_419:\n        /* \"#utility.yul\":707:844   */\n      swap3\n      swap2\n      pop\n      pop\n      jump\t// out\n        /* \"#utility.yul\":850:991   */\n    tag_421:\n        /* \"#utility.yul\":906:911   */\n      0x00\n        /* \"#utility.yul\":937:943   */\n      dup2\n        /* \"#utility.yul\":931:944   */\n      mload\n        /* \"#utility.yul\":922:944   */\n      swap1\n      pop\n        /* \"#utility.yul\":953:985   */\n      tag_423\n        /* \"#utility.yul\":979:984   */\n      dup2\n        /* \"#utility.yul\":953:985   */\n      tag_420\n      jump\t// in\n    tag_423:\n        /* \"#utility.yul\":850:991   */\n      swap3\n      swap2\n      pop\n      pop\n      jump\t// out\n        /* \"#utility.yul\":1010:1348   */\n    tag_424:\n        /* \"#utility.yul\":1065:1070   */\n      0x00\n        /* \"#utility.yul\":1114:1117   */\n      dup3\n        /* \"#utility.yul\":1107:1111   */\n      0x1f\n        /* \"#utility.yul\":1099:1105   */\n      dup4\n        /* \"#utility.yul\":1095:1112   */\n      add\n        /* \"#utility.yul\":1091:1118   */\n      slt\n        /* \"#utility.yul\":1081:1203   */\n      tag_426\n      jumpi\n        /* \"#utility.yul\":1122:1201   */\n      tag_427\n      tag_428\n      jump\t// in\n    tag_427:\n        /* \"#utility.yul\":1081:1203   */\n    tag_426:\n        /* \"#utility.yul\":1239:1245   */\n      dup2\n        /* \"#utility.yul\":1226:1246   */\n      calldataload\n        /* \"#utility.yul\":1264:1342   */\n      tag_429\n        /* \"#utility.yul\":1338:1341   */\n      dup5\n        /* \"#utility.yul\":1330:1336   */\n      dup3\n        /* \"#utility.yul\":1323:1327   */\n      0x20\n        /* \"#utility.yul\":1315:1321   */\n      dup7\n        /* \"#utility.yul\":1311:1328   */\n      add\n        /* \"#utility.yul\":1264:1342   */\n      tag_398\n      jump\t// in\n    tag_429:\n        /* \"#utility.yul\":1255:1342   */\n      swap2\n      pop\n        /* \"#utility.yul\":1071:1348   */\n      pop\n        /* \"#utility.yul\":1010:1348   */\n      swap3\n      swap2\n      pop\n      pop\n      jump\t// out\n        /* \"#utility.yul\":1354:1493   */\n    tag_430:\n        /* \"#utility.yul\":1400:1405   */\n      0x00\n        /* \"#utility.yul\":1438:1444   */\n      dup2\n        /* \"#utility.yul\":1425:1445   */\n      calldataload\n        /* \"#utility.yul\":1416:1445   */\n      swap1\n      pop\n        /* \"#utility.yul\":1454:1487   */\n      tag_432\n        /* \"#utility.yul\":1481:1486   */\n      dup2\n        /* \"#utility.yul\":1454:1487   */\n      tag_433\n      jump\t// in\n    tag_432:\n        /* \"#utility.yul\":1354:1493   */\n      swap3\n      swap2\n      pop\n      pop\n      jump\t// out\n        /* \"#utility.yul\":1499:1828   */\n    tag_73:\n        /* \"#utility.yul\":1558:1564   */\n      0x00\n        /* \"#utility.yul\":1607:1609   */\n      0x20\n        /* \"#utility.yul\":1595:1604   */\n      dup3\n        /* \"#utility.yul\":1586:1593   */\n      dup5\n        /* \"#utility.yul\":1582:1605   */\n      sub\n        /* \"#utility.yul\":1578:1610   */\n      slt\n        /* \"#utility.yul\":1575:1694   */\n      iszero\n      tag_435\n      jumpi\n        /* \"#utility.yul\":1613:1692   */\n      tag_436\n      tag_437\n      jump\t// in\n    tag_436:\n        /* \"#utility.yul\":1575:1694   */\n    tag_435:\n        /* \"#utility.yul\":1733:1734   */\n      0x00\n        /* \"#utility.yul\":1758:1811   */\n      tag_438\n        /* \"#utility.yul\":1803:1810   */\n      dup5\n        /* \"#utility.yul\":1794:1800   */\n      dup3\n        /* \"#utility.yul\":1783:1792   */\n      dup6\n        /* \"#utility.yul\":1779:1801   */\n      add\n        /* \"#utility.yul\":1758:1811   */\n      tag_409\n      jump\t// in\n    tag_438:\n        /* \"#utility.yul\":1748:1811   */\n      swap2\n      pop\n        /* \"#utility.yul\":1704:1821   */\n      pop\n        /* \"#utility.yul\":1499:1828   */\n      swap3\n      swap2\n      pop\n      pop\n      jump\t// out\n        /* \"#utility.yul\":1834:2308   */\n    tag_101:\n        /* \"#utility.yul\":1902:1908   */\n      0x00\n        /* \"#utility.yul\":1910:1916   */\n      dup1\n        /* \"#utility.yul\":1959:1961   */\n      0x40\n        /* \"#utility.yul\":1947:1956   */\n      dup4\n        /* \"#utility.yul\":1938:1945   */\n      dup6\n        /* \"#utility.yul\":1934:1957   */\n      sub\n        /* \"#utility.yul\":1930:1962   */\n      slt\n        /* \"#utility.yul\":1927:2046   */\n      iszero\n      tag_440\n      jumpi\n        /* \"#utility.yul\":1965:2044   */\n      tag_441\n      tag_437\n      jump\t// in\n    tag_441:\n        /* \"#utility.yul\":1927:2046   */\n    tag_440:\n        /* \"#utility.yul\":2085:2086   */\n      0x00\n        /* \"#utility.yul\":2110:2163   */\n      tag_442\n        /* \"#utility.yul\":2155:2162   */\n      dup6\n        /* \"#utility.yul\":2146:2152   */\n      dup3\n        /* \"#utility.yul\":2135:2144   */\n      dup7\n        /* \"#utility.yul\":2131:2153   */\n      add\n        /* \"#utility.yul\":2110:2163   */\n      tag_409\n      jump\t// in\n    tag_442:\n        /* \"#utility.yul\":2100:2163   */\n      swap3\n      pop\n        /* \"#utility.yul\":2056:2173   */\n      pop\n        /* \"#utility.yul\":2212:2214   */\n      0x20\n        /* \"#utility.yul\":2238:2291   */\n      tag_443\n        /* \"#utility.yul\":2283:2290   */\n      dup6\n        /* \"#utility.yul\":2274:2280   */\n      dup3\n        /* \"#utility.yul\":2263:2272   */\n      dup7\n        /* \"#utility.yul\":2259:2281   */\n      add\n        /* \"#utility.yul\":2238:2291   */\n      tag_409\n      jump\t// in\n    tag_443:\n        /* \"#utility.yul\":2228:2291   */\n      swap2\n      pop\n        /* \"#utility.yul\":2183:2301   */\n      pop\n        /* \"#utility.yul\":1834:2308   */\n      swap3\n      pop\n      swap3\n      swap1\n      pop\n      jump\t// out\n        /* \"#utility.yul\":2314:2933   */\n    tag_51:\n        /* \"#utility.yul\":2391:2397   */\n      0x00\n        /* \"#utility.yul\":2399:2405   */\n      dup1\n        /* \"#utility.yul\":2407:2413   */\n      0x00\n        /* \"#utility.yul\":2456:2458   */\n      0x60\n        /* \"#utility.yul\":2444:2453   */\n      dup5\n        /* \"#utility.yul\":2435:2442   */\n      dup7\n        /* \"#utility.yul\":2431:2454   */\n      sub\n        /* \"#utility.yul\":2427:2459   */\n      slt\n        /* \"#utility.yul\":2424:2543   */\n      iszero\n      tag_445\n      jumpi\n        /* \"#utility.yul\":2462:2541   */\n      tag_446\n      tag_437\n      jump\t// in\n    tag_446:\n        /* \"#utility.yul\":2424:2543   */\n    tag_445:\n        /* \"#utility.yul\":2582:2583   */\n      0x00\n        /* \"#utility.yul\":2607:2660   */\n      tag_447\n        /* \"#utility.yul\":2652:2659   */\n      dup7\n        /* \"#utility.yul\":2643:2649   */\n      dup3\n        /* \"#utility.yul\":2632:2641   */\n      dup8\n        /* \"#utility.yul\":2628:2650   */\n      add\n        /* \"#utility.yul\":2607:2660   */\n      tag_409\n      jump\t// in\n    tag_447:\n        /* \"#utility.yul\":2597:2660   */\n      swap4\n      pop\n        /* \"#utility.yul\":2553:2670   */\n      pop\n        /* \"#utility.yul\":2709:2711   */\n      0x20\n        /* \"#utility.yul\":2735:2788   */\n      tag_448\n        /* \"#utility.yul\":2780:2787   */\n      dup7\n        /* \"#utility.yul\":2771:2777   */\n      dup3\n        /* \"#utility.yul\":2760:2769   */\n      dup8\n        /* \"#utility.yul\":2756:2778   */\n      add\n        /* \"#utility.yul\":2735:2788   */\n      tag_409\n      jump\t// in\n    tag_448:\n        /* \"#utility.yul\":2725:2788   */\n      swap3\n      pop\n        /* \"#utility.yul\":2680:2798   */\n      pop\n        /* \"#utility.yul\":2837:2839   */\n      0x40\n        /* \"#utility.yul\":2863:2916   */\n      tag_449\n        /* \"#utility.yul\":2908:2915   */\n      dup7\n        /* \"#utility.yul\":2899:2905   */\n      dup3\n        /* \"#utility.yul\":2888:2897   */\n      dup8\n        /* \"#utility.yul\":2884:2906   */\n      add\n        /* \"#utility.yul\":2863:2916   */\n      tag_430\n      jump\t// in\n    tag_449:\n        /* \"#utility.yul\":2853:2916   */\n      swap2\n      pop\n        /* \"#utility.yul\":2808:2926   */\n      pop\n        /* \"#utility.yul\":2314:2933   */\n      swap3\n      pop\n      swap3\n      pop\n      swap3\n      jump\t// out\n        /* \"#utility.yul\":2939:3882   */\n    tag_85:\n        /* \"#utility.yul\":3034:3040   */\n      0x00\n        /* \"#utility.yul\":3042:3048   */\n      dup1\n        /* \"#utility.yul\":3050:3056   */\n      0x00\n        /* \"#utility.yul\":3058:3064   */\n      dup1\n        /* \"#utility.yul\":3107:3110   */\n      0x80\n        /* \"#utility.yul\":3095:3104   */\n      dup6\n        /* \"#utility.yul\":3086:3093   */\n      dup8\n        /* \"#utility.yul\":3082:3105   */\n      sub\n        /* \"#utility.yul\":3078:3111   */\n      slt\n        /* \"#utility.yul\":3075:3195   */\n      iszero\n      tag_451\n      jumpi\n        /* \"#utility.yul\":3114:3193   */\n      tag_452\n      tag_437\n      jump\t// in\n    tag_452:\n        /* \"#utility.yul\":3075:3195   */\n    tag_451:\n        /* \"#utility.yul\":3234:3235   */\n      0x00\n        /* \"#utility.yul\":3259:3312   */\n      tag_453\n        /* \"#utility.yul\":3304:3311   */\n      dup8\n        /* \"#utility.yul\":3295:3301   */\n      dup3\n        /* \"#utility.yul\":3284:3293   */\n      dup9\n        /* \"#utility.yul\":3280:3302   */\n      add\n        /* \"#utility.yul\":3259:3312   */\n      tag_409\n      jump\t// in\n    tag_453:\n        /* \"#utility.yul\":3249:3312   */\n      swap5\n      pop\n        /* \"#utility.yul\":3205:3322   */\n      pop\n        /* \"#utility.yul\":3361:3363   */\n      0x20\n        /* \"#utility.yul\":3387:3440   */\n      tag_454\n        /* \"#utility.yul\":3432:3439   */\n      dup8\n        /* \"#utility.yul\":3423:3429   */\n      dup3\n        /* \"#utility.yul\":3412:3421   */\n      dup9\n        /* \"#utility.yul\":3408:3430   */\n      add\n        /* \"#utility.yul\":3387:3440   */\n      tag_409\n      jump\t// in\n    tag_454:\n        /* \"#utility.yul\":3377:3440   */\n      swap4\n      pop\n        /* \"#utility.yul\":3332:3450   */\n      pop\n        /* \"#utility.yul\":3489:3491   */\n      0x40\n        /* \"#utility.yul\":3515:3568   */\n      tag_455\n        /* \"#utility.yul\":3560:3567   */\n      dup8\n        /* \"#utility.yul\":3551:3557   */\n      dup3\n        /* \"#utility.yul\":3540:3549   */\n      dup9\n        /* \"#utility.yul\":3536:3558   */\n      add\n        /* \"#utility.yul\":3515:3568   */\n      tag_430\n      jump\t// in\n    tag_455:\n        /* \"#utility.yul\":3505:3568   */\n      swap3\n      pop\n        /* \"#utility.yul\":3460:3578   */\n      pop\n        /* \"#utility.yul\":3645:3647   */\n      0x60\n        /* \"#utility.yul\":3634:3643   */\n      dup6\n        /* \"#utility.yul\":3630:3648   */\n      add\n        /* \"#utility.yul\":3617:3649   */\n      calldataload\n        /* \"#utility.yul\":3676:3694   */\n      0xffffffffffffffff\n        /* \"#utility.yul\":3668:3674   */\n      dup2\n        /* \"#utility.yul\":3665:3695   */\n      gt\n        /* \"#utility.yul\":3662:3779   */\n      iszero\n      tag_456\n      jumpi\n        /* \"#utility.yul\":3698:3777   */\n      tag_457\n      tag_458\n      jump\t// in\n    tag_457:\n        /* \"#utility.yul\":3662:3779   */\n    tag_456:\n        /* \"#utility.yul\":3803:3865   */\n      tag_459\n        /* \"#utility.yul\":3857:3864   */\n      dup8\n        /* \"#utility.yul\":3848:3854   */\n      dup3\n        /* \"#utility.yul\":3837:3846   */\n      dup9\n        /* \"#utility.yul\":3833:3855   */\n      add\n        /* \"#utility.yul\":3803:3865   */\n      tag_424\n      jump\t// in\n    tag_459:\n        /* \"#utility.yul\":3793:3865   */\n      swap2\n      pop\n        /* \"#utility.yul\":3588:3875   */\n      pop\n        /* \"#utility.yul\":2939:3882   */\n      swap3\n      swap6\n      swap2\n      swap5\n      pop\n      swap3\n      pop\n      jump\t// out\n        /* \"#utility.yul\":3888:4356   */\n    tag_81:\n        /* \"#utility.yul\":3953:3959   */\n      0x00\n        /* \"#utility.yul\":3961:3967   */\n      dup1\n        /* \"#utility.yul\":4010:4012   */\n      0x40\n        /* \"#utility.yul\":3998:4007   */\n      dup4\n        /* \"#utility.yul\":3989:3996   */\n      dup6\n        /* \"#utility.yul\":3985:4008   */\n      sub\n        /* \"#utility.yul\":3981:4013   */\n      slt\n        /* \"#utility.yul\":3978:4097   */\n      iszero\n      tag_461\n      jumpi\n        /* \"#utility.yul\":4016:4095   */\n      tag_462\n      tag_437\n      jump\t// in\n    tag_462:\n        /* \"#utility.yul\":3978:4097   */\n    tag_461:\n        /* \"#utility.yul\":4136:4137   */\n      0x00\n        /* \"#utility.yul\":4161:4214   */\n      tag_463\n        /* \"#utility.yul\":4206:4213   */\n      dup6\n        /* \"#utility.yul\":4197:4203   */\n      dup3\n        /* \"#utility.yul\":4186:4195   */\n      dup7\n        /* \"#utility.yul\":4182:4204   */\n      add\n        /* \"#utility.yul\":4161:4214   */\n      tag_409\n      jump\t// in\n    tag_463:\n        /* \"#utility.yul\":4151:4214   */\n      swap3\n      pop\n        /* \"#utility.yul\":4107:4224   */\n      pop\n        /* \"#utility.yul\":4263:4265   */\n      0x20\n        /* \"#utility.yul\":4289:4339   */\n      tag_464\n        /* \"#utility.yul\":4331:4338   */\n      dup6\n        /* \"#utility.yul\":4322:4328   */\n      dup3\n        /* \"#utility.yul\":4311:4320   */\n      dup7\n        /* \"#utility.yul\":4307:4329   */\n      add\n        /* \"#utility.yul\":4289:4339   */\n      tag_413\n      jump\t// in\n    tag_464:\n        /* \"#utility.yul\":4279:4339   */\n      swap2\n      pop\n        /* \"#utility.yul\":4234:4349   */\n      pop\n        /* \"#utility.yul\":3888:4356   */\n      swap3\n      pop\n      swap3\n      swap1\n      pop\n      jump\t// out\n        /* \"#utility.yul\":4362:4836   */\n    tag_43:\n        /* \"#utility.yul\":4430:4436   */\n      0x00\n        /* \"#utility.yul\":4438:4444   */\n      dup1\n        /* \"#utility.yul\":4487:4489   */\n      0x40\n        /* \"#utility.yul\":4475:4484   */\n      dup4\n        /* \"#utility.yul\":4466:4473   */\n      dup6\n        /* \"#utility.yul\":4462:4485   */\n      sub\n        /* \"#utility.yul\":4458:4490   */\n      slt\n        /* \"#utility.yul\":4455:4574   */\n      iszero\n      tag_466\n      jumpi\n        /* \"#utility.yul\":4493:4572   */\n      tag_467\n      tag_437\n      jump\t// in\n    tag_467:\n        /* \"#utility.yul\":4455:4574   */\n    tag_466:\n        /* \"#utility.yul\":4613:4614   */\n      0x00\n        /* \"#utility.yul\":4638:4691   */\n      tag_468\n        /* \"#utility.yul\":4683:4690   */\n      dup6\n        /* \"#utility.yul\":4674:4680   */\n      dup3\n        /* \"#utility.yul\":4663:4672   */\n      dup7\n        /* \"#utility.yul\":4659:4681   */\n      add\n        /* \"#utility.yul\":4638:4691   */\n      tag_409\n      jump\t// in\n    tag_468:\n        /* \"#utility.yul\":4628:4691   */\n      swap3\n      pop\n        /* \"#utility.yul\":4584:4701   */\n      pop\n        /* \"#utility.yul\":4740:4742   */\n      0x20\n        /* \"#utility.yul\":4766:4819   */\n      tag_469\n        /* \"#utility.yul\":4811:4818   */\n      dup6\n        /* \"#utility.yul\":4802:4808   */\n      dup3\n        /* \"#utility.yul\":4791:4800   */\n      dup7\n        /* \"#utility.yul\":4787:4809   */\n      add\n        /* \"#utility.yul\":4766:4819   */\n      tag_430\n      jump\t// in\n    tag_469:\n        /* \"#utility.yul\":4756:4819   */\n      swap2\n      pop\n        /* \"#utility.yul\":4711:4829   */\n      pop\n        /* \"#utility.yul\":4362:4836   */\n      swap3\n      pop\n      swap3\n      swap1\n      pop\n      jump\t// out\n        /* \"#utility.yul\":4842:5169   */\n    tag_27:\n        /* \"#utility.yul\":4900:4906   */\n      0x00\n        /* \"#utility.yul\":4949:4951   */\n      0x20\n        /* \"#utility.yul\":4937:4946   */\n      dup3\n        /* \"#utility.yul\":4928:4935   */\n      dup5\n        /* \"#utility.yul\":4924:4947   */\n      sub\n        /* \"#utility.yul\":4920:4952   */\n      slt\n        /* \"#utility.yul\":4917:5036   */\n      iszero\n      tag_471\n      jumpi\n        /* \"#utility.yul\":4955:5034   */\n      tag_472\n      tag_437\n      jump\t// in\n    tag_472:\n        /* \"#utility.yul\":4917:5036   */\n    tag_471:\n        /* \"#utility.yul\":5075:5076   */\n      0x00\n        /* \"#utility.yul\":5100:5152   */\n      tag_473\n        /* \"#utility.yul\":5144:5151   */\n      dup5\n        /* \"#utility.yul\":5135:5141   */\n      dup3\n        /* \"#utility.yul\":5124:5133   */\n      dup6\n        /* \"#utility.yul\":5120:5142   */\n      add\n        /* \"#utility.yul\":5100:5152   */\n      tag_417\n      jump\t// in\n    tag_473:\n        /* \"#utility.yul\":5090:5152   */\n      swap2\n      pop\n        /* \"#utility.yul\":5046:5162   */\n      pop\n        /* \"#utility.yul\":4842:5169   */\n      swap3\n      swap2\n      pop\n      pop\n      jump\t// out\n        /* \"#utility.yul\":5175:5524   */\n    tag_335:\n        /* \"#utility.yul\":5244:5250   */\n      0x00\n        /* \"#utility.yul\":5293:5295   */\n      0x20\n        /* \"#utility.yul\":5281:5290   */\n      dup3\n        /* \"#utility.yul\":5272:5279   */\n      dup5\n        /* \"#utility.yul\":5268:5291   */\n      sub\n        /* \"#utility.yul\":5264:5296   */\n      slt\n        /* \"#utility.yul\":5261:5380   */\n      iszero\n      tag_475\n      jumpi\n        /* \"#utility.yul\":5299:5378   */\n      tag_476\n      tag_437\n      jump\t// in\n    tag_476:\n        /* \"#utility.yul\":5261:5380   */\n    tag_475:\n        /* \"#utility.yul\":5419:5420   */\n      0x00\n        /* \"#utility.yul\":5444:5507   */\n      tag_477\n        /* \"#utility.yul\":5499:5506   */\n      dup5\n        /* \"#utility.yul\":5490:5496   */\n      dup3\n        /* \"#utility.yul\":5479:5488   */\n      dup6\n        /* \"#utility.yul\":5475:5497   */\n      add\n        /* \"#utility.yul\":5444:5507   */\n      tag_421\n      jump\t// in\n    tag_477:\n        /* \"#utility.yul\":5434:5507   */\n      swap2\n      pop\n        /* \"#utility.yul\":5390:5517   */\n      pop\n        /* \"#utility.yul\":5175:5524   */\n      swap3\n      swap2\n      pop\n      pop\n      jump\t// out\n        /* \"#utility.yul\":5530:5859   */\n    tag_37:\n        /* \"#utility.yul\":5589:5595   */\n      0x00\n        /* \"#utility.yul\":5638:5640   */\n      0x20\n        /* \"#utility.yul\":5626:5635   */\n      dup3\n        /* \"#utility.yul\":5617:5624   */\n      dup5\n        /* \"#utility.yul\":5613:5636   */\n      sub\n        /* \"#utility.yul\":5609:5641   */\n      slt\n        /* \"#utility.yul\":5606:5725   */\n      iszero\n      tag_479\n      jumpi\n        /* \"#utility.yul\":5644:5723   */\n      tag_480\n      tag_437\n      jump\t// in\n    tag_480:\n        /* \"#utility.yul\":5606:5725   */\n    tag_479:\n        /* \"#utility.yul\":5764:5765   */\n      0x00\n        /* \"#utility.yul\":5789:5842   */\n      tag_481\n        /* \"#utility.yul\":5834:5841   */\n      dup5\n        /* \"#utility.yul\":5825:5831   */\n      dup3\n        /* \"#utility.yul\":5814:5823   */\n      dup6\n        /* \"#utility.yul\":5810:5832   */\n      add\n        /* \"#utility.yul\":5789:5842   */\n      tag_430\n      jump\t// in\n    tag_481:\n        /* \"#utility.yul\":5779:5842   */\n      swap2\n      pop\n        /* \"#utility.yul\":5735:5852   */\n      pop\n        /* \"#utility.yul\":5530:5859   */\n      swap3\n      swap2\n      pop\n      pop\n      jump\t// out\n        /* \"#utility.yul\":5865:6007   */\n    tag_482:\n        /* \"#utility.yul\":5968:6000   */\n      tag_484\n        /* \"#utility.yul\":5994:5999   */\n      dup2\n        /* \"#utility.yul\":5968:6000   */\n      tag_485\n      jump\t// in\n    tag_484:\n        /* \"#utility.yul\":5963:5966   */\n      dup3\n        /* \"#utility.yul\":5956:6001   */\n      mstore\n        /* \"#utility.yul\":5865:6007   */\n      pop\n      pop\n      jump\t// out\n        /* \"#utility.yul\":6013:6131   */\n    tag_486:\n        /* \"#utility.yul\":6100:6124   */\n      tag_488\n        /* \"#utility.yul\":6118:6123   */\n      dup2\n        /* \"#utility.yul\":6100:6124   */\n      tag_489\n      jump\t// in\n    tag_488:\n        /* \"#utility.yul\":6095:6098   */\n      dup3\n        /* \"#utility.yul\":6088:6125   */\n      mstore\n        /* \"#utility.yul\":6013:6131   */\n      pop\n      pop\n      jump\t// out\n        /* \"#utility.yul\":6137:6246   */\n    tag_490:\n        /* \"#utility.yul\":6218:6239   */\n      tag_492\n        /* \"#utility.yul\":6233:6238   */\n      dup2\n        /* \"#utility.yul\":6218:6239   */\n      tag_493\n      jump\t// in\n    tag_492:\n        /* \"#utility.yul\":6213:6216   */\n      dup3\n        /* \"#utility.yul\":6206:6240   */\n      mstore\n        /* \"#utility.yul\":6137:6246   */\n      pop\n      pop\n      jump\t// out\n        /* \"#utility.yul\":6252:6612   */\n    tag_494:\n        /* \"#utility.yul\":6338:6341   */\n      0x00\n        /* \"#utility.yul\":6366:6404   */\n      tag_496\n        /* \"#utility.yul\":6398:6403   */\n      dup3\n        /* \"#utility.yul\":6366:6404   */\n      tag_497\n      jump\t// in\n    tag_496:\n        /* \"#utility.yul\":6420:6490   */\n      tag_498\n        /* \"#utility.yul\":6483:6489   */\n      dup2\n        /* \"#utility.yul\":6478:6481   */\n      dup6\n        /* \"#utility.yul\":6420:6490   */\n      tag_499\n      jump\t// in\n    tag_498:\n        /* \"#utility.yul\":6413:6490   */\n      swap4\n      pop\n        /* \"#utility.yul\":6499:6551   */\n      tag_500\n        /* \"#utility.yul\":6544:6550   */\n      dup2\n        /* \"#utility.yul\":6539:6542   */\n      dup6\n        /* \"#utility.yul\":6532:6536   */\n      0x20\n        /* \"#utility.yul\":6525:6530   */\n      dup7\n        /* \"#utility.yul\":6521:6537   */\n      add\n        /* \"#utility.yul\":6499:6551   */\n      tag_501\n      jump\t// in\n    tag_500:\n        /* \"#utility.yul\":6576:6605   */\n      tag_502\n        /* \"#utility.yul\":6598:6604   */\n      dup2\n        /* \"#utility.yul\":6576:6605   */\n      tag_503\n      jump\t// in\n    tag_502:\n        /* \"#utility.yul\":6571:6574   */\n      dup5\n        /* \"#utility.yul\":6567:6606   */\n      add\n        /* \"#utility.yul\":6560:6606   */\n      swap2\n      pop\n        /* \"#utility.yul\":6342:6612   */\n      pop\n        /* \"#utility.yul\":6252:6612   */\n      swap3\n      swap2\n      pop\n      pop\n      jump\t// out\n        /* \"#utility.yul\":6618:6991   */\n    tag_504:\n        /* \"#utility.yul\":6722:6725   */\n      0x00\n        /* \"#utility.yul\":6750:6788   */\n      tag_506\n        /* \"#utility.yul\":6782:6787   */\n      dup3\n        /* \"#utility.yul\":6750:6788   */\n      tag_497\n      jump\t// in\n    tag_506:\n        /* \"#utility.yul\":6804:6892   */\n      tag_507\n        /* \"#utility.yul\":6885:6891   */\n      dup2\n        /* \"#utility.yul\":6880:6883   */\n      dup6\n        /* \"#utility.yul\":6804:6892   */\n      tag_508\n      jump\t// in\n    tag_507:\n        /* \"#utility.yul\":6797:6892   */\n      swap4\n      pop\n        /* \"#utility.yul\":6901:6953   */\n      tag_509\n        /* \"#utility.yul\":6946:6952   */\n      dup2\n        /* \"#utility.yul\":6941:6944   */\n      dup6\n        /* \"#utility.yul\":6934:6938   */\n      0x20\n        /* \"#utility.yul\":6927:6932   */\n      dup7\n        /* \"#utility.yul\":6923:6939   */\n      add\n        /* \"#utility.yul\":6901:6953   */\n      tag_501\n      jump\t// in\n    tag_509:\n        /* \"#utility.yul\":6978:6984   */\n      dup1\n        /* \"#utility.yul\":6973:6976   */\n      dup5\n        /* \"#utility.yul\":6969:6985   */\n      add\n        /* \"#utility.yul\":6962:6985   */\n      swap2\n      pop\n        /* \"#utility.yul\":6726:6991   */\n      pop\n        /* \"#utility.yul\":6618:6991   */\n      swap3\n      swap2\n      pop\n      pop\n      jump\t// out\n        /* \"#utility.yul\":6997:7361   */\n    tag_510:\n        /* \"#utility.yul\":7085:7088   */\n      0x00\n        /* \"#utility.yul\":7113:7152   */\n      tag_512\n        /* \"#utility.yul\":7146:7151   */\n      dup3\n        /* \"#utility.yul\":7113:7152   */\n      tag_513\n      jump\t// in\n    tag_512:\n        /* \"#utility.yul\":7168:7239   */\n      tag_514\n        /* \"#utility.yul\":7232:7238   */\n      dup2\n        /* \"#utility.yul\":7227:7230   */\n      dup6\n        /* \"#utility.yul\":7168:7239   */\n      tag_515\n      jump\t// in\n    tag_514:\n        /* \"#utility.yul\":7161:7239   */\n      swap4\n      pop\n        /* \"#utility.yul\":7248:7300   */\n      tag_516\n        /* \"#utility.yul\":7293:7299   */\n      dup2\n        /* \"#utility.yul\":7288:7291   */\n      dup6\n        /* \"#utility.yul\":7281:7285   */\n      0x20\n        /* \"#utility.yul\":7274:7279   */\n      dup7\n        /* \"#utility.yul\":7270:7286   */\n      add\n        /* \"#utility.yul\":7248:7300   */\n      tag_501\n      jump\t// in\n    tag_516:\n        /* \"#utility.yul\":7325:7354   */\n      tag_517\n        /* \"#utility.yul\":7347:7353   */\n      dup2\n        /* \"#utility.yul\":7325:7354   */\n      tag_503\n      jump\t// in\n    tag_517:\n        /* \"#utility.yul\":7320:7323   */\n      dup5\n        /* \"#utility.yul\":7316:7355   */\n      add\n        /* \"#utility.yul\":7309:7355   */\n      swap2\n      pop\n        /* \"#utility.yul\":7089:7361   */\n      pop\n        /* \"#utility.yul\":6997:7361   */\n      swap3\n      swap2\n      pop\n      pop\n      jump\t// out\n        /* \"#utility.yul\":7367:7744   */\n    tag_518:\n        /* \"#utility.yul\":7473:7476   */\n      0x00\n        /* \"#utility.yul\":7501:7540   */\n      tag_520\n        /* \"#utility.yul\":7534:7539   */\n      dup3\n        /* \"#utility.yul\":7501:7540   */\n      tag_513\n      jump\t// in\n    tag_520:\n        /* \"#utility.yul\":7556:7645   */\n      tag_521\n        /* \"#utility.yul\":7638:7644   */\n      dup2\n        /* \"#utility.yul\":7633:7636   */\n      dup6\n        /* \"#utility.yul\":7556:7645   */\n      tag_522\n      jump\t// in\n    tag_521:\n        /* \"#utility.yul\":7549:7645   */\n      swap4\n      pop\n        /* \"#utility.yul\":7654:7706   */\n      tag_523\n        /* \"#utility.yul\":7699:7705   */\n      dup2\n        /* \"#utility.yul\":7694:7697   */\n      dup6\n        /* \"#utility.yul\":7687:7691   */\n      0x20\n        /* \"#utility.yul\":7680:7685   */\n      dup7\n        /* \"#utility.yul\":7676:7692   */\n      add\n        /* \"#utility.yul\":7654:7706   */\n      tag_501\n      jump\t// in\n    tag_523:\n        /* \"#utility.yul\":7731:7737   */\n      dup1\n        /* \"#utility.yul\":7726:7729   */\n      dup5\n        /* \"#utility.yul\":7722:7738   */\n      add\n        /* \"#utility.yul\":7715:7738   */\n      swap2\n      pop\n        /* \"#utility.yul\":7477:7744   */\n      pop\n        /* \"#utility.yul\":7367:7744   */\n      swap3\n      swap2\n      pop\n      pop\n      jump\t// out\n        /* \"#utility.yul\":7750:8116   */\n    tag_524:\n        /* \"#utility.yul\":7892:7895   */\n      0x00\n        /* \"#utility.yul\":7913:7980   */\n      tag_526\n        /* \"#utility.yul\":7977:7979   */\n      0x22\n        /* \"#utility.yul\":7972:7975   */\n      dup4\n        /* \"#utility.yul\":7913:7980   */\n      tag_515\n      jump\t// in\n    tag_526:\n        /* \"#utility.yul\":7906:7980   */\n      swap2\n      pop\n        /* \"#utility.yul\":7989:8082   */\n      tag_527\n        /* \"#utility.yul\":8078:8081   */\n      dup3\n        /* \"#utility.yul\":7989:8082   */\n      tag_528\n      jump\t// in\n    tag_527:\n        /* \"#utility.yul\":8107:8109   */\n      0x40\n        /* \"#utility.yul\":8102:8105   */\n      dup3\n        /* \"#utility.yul\":8098:8110   */\n      add\n        /* \"#utility.yul\":8091:8110   */\n      swap1\n      pop\n        /* \"#utility.yul\":7750:8116   */\n      swap2\n      swap1\n      pop\n      jump\t// out\n        /* \"#utility.yul\":8122:8488   */\n    tag_529:\n        /* \"#utility.yul\":8264:8267   */\n      0x00\n        /* \"#utility.yul\":8285:8352   */\n      tag_531\n        /* \"#utility.yul\":8349:8351   */\n      0x32\n        /* \"#utility.yul\":8344:8347   */\n      dup4\n        /* \"#utility.yul\":8285:8352   */\n      tag_515\n      jump\t// in\n    tag_531:\n        /* \"#utility.yul\":8278:8352   */\n      swap2\n      pop\n        /* \"#utility.yul\":8361:8454   */\n      tag_532\n        /* \"#utility.yul\":8450:8453   */\n      dup3\n        /* \"#utility.yul\":8361:8454   */\n      tag_533\n      jump\t// in\n    tag_532:\n        /* \"#utility.yul\":8479:8481   */\n      0x40\n        /* \"#utility.yul\":8474:8477   */\n      dup3\n        /* \"#utility.yul\":8470:8482   */\n      add\n        /* \"#utility.yul\":8463:8482   */\n      swap1\n      pop\n        /* \"#utility.yul\":8122:8488   */\n      swap2\n      swap1\n      pop\n      jump\t// out\n        /* \"#utility.yul\":8494:8860   */\n    tag_534:\n        /* \"#utility.yul\":8636:8639   */\n      0x00\n        /* \"#utility.yul\":8657:8724   */\n      tag_536\n        /* \"#utility.yul\":8721:8723   */\n      0x24\n        /* \"#utility.yul\":8716:8719   */\n      dup4\n        /* \"#utility.yul\":8657:8724   */\n      tag_515\n      jump\t// in\n    tag_536:\n        /* \"#utility.yul\":8650:8724   */\n      swap2\n      pop\n        /* \"#utility.yul\":8733:8826   */\n      tag_537\n        /* \"#utility.yul\":8822:8825   */\n      dup3\n        /* \"#utility.yul\":8733:8826   */\n      tag_538\n      jump\t// in\n    tag_537:\n        /* \"#utility.yul\":8851:8853   */\n      0x40\n        /* \"#utility.yul\":8846:8849   */\n      dup3\n        /* \"#utility.yul\":8842:8854   */\n      add\n        /* \"#utility.yul\":8835:8854   */\n      swap1\n      pop\n        /* \"#utility.yul\":8494:8860   */\n      swap2\n      swap1\n      pop\n      jump\t// out\n        /* \"#utility.yul\":8866:9232   */\n    tag_539:\n        /* \"#utility.yul\":9008:9011   */\n      0x00\n        /* \"#utility.yul\":9029:9096   */\n      tag_541\n        /* \"#utility.yul\":9093:9095   */\n      0x19\n        /* \"#utility.yul\":9088:9091   */\n      dup4\n        /* \"#utility.yul\":9029:9096   */\n      tag_515\n      jump\t// in\n    tag_541:\n        /* \"#utility.yul\":9022:9096   */\n      swap2\n      pop\n        /* \"#utility.yul\":9105:9198   */\n      tag_542\n        /* \"#utility.yul\":9194:9197   */\n      dup3\n        /* \"#utility.yul\":9105:9198   */\n      tag_543\n      jump\t// in\n    tag_542:\n        /* \"#utility.yul\":9223:9225   */\n      0x20\n        /* \"#utility.yul\":9218:9221   */\n      dup3\n        /* \"#utility.yul\":9214:9226   */\n      add\n        /* \"#utility.yul\":9207:9226   */\n      swap1\n      pop\n        /* \"#utility.yul\":8866:9232   */\n      swap2\n      swap1\n      pop\n      jump\t// out\n        /* \"#utility.yul\":9238:9604   */\n    tag_544:\n        /* \"#utility.yul\":9380:9383   */\n      0x00\n        /* \"#utility.yul\":9401:9468   */\n      tag_546\n        /* \"#utility.yul\":9465:9467   */\n      0x26\n        /* \"#utility.yul\":9460:9463   */\n      dup4\n        /* \"#utility.yul\":9401:9468   */\n      tag_515\n      jump\t// in\n    tag_546:\n        /* \"#utility.yul\":9394:9468   */\n      swap2\n      pop\n        /* \"#utility.yul\":9477:9570   */\n      tag_547\n        /* \"#utility.yul\":9566:9569   */\n      dup3\n        /* \"#utility.yul\":9477:9570   */\n      tag_548\n      jump\t// in\n    tag_547:\n        /* \"#utility.yul\":9595:9597   */\n      0x40\n        /* \"#utility.yul\":9590:9593   */\n      dup3\n        /* \"#utility.yul\":9586:9598   */\n      add\n        /* \"#utility.yul\":9579:9598   */\n      swap1\n      pop\n        /* \"#utility.yul\":9238:9604   */\n      swap2\n      swap1\n      pop\n      jump\t// out\n        /* \"#utility.yul\":9610:9976   */\n    tag_549:\n        /* \"#utility.yul\":9752:9755   */\n      0x00\n        /* \"#utility.yul\":9773:9840   */\n      tag_551\n        /* \"#utility.yul\":9837:9839   */\n      0x2c\n        /* \"#utility.yul\":9832:9835   */\n      dup4\n        /* \"#utility.yul\":9773:9840   */\n      tag_515\n      jump\t// in\n    tag_551:\n        /* \"#utility.yul\":9766:9840   */\n      swap2\n      pop\n        /* \"#utility.yul\":9849:9942   */\n      tag_552\n        /* \"#utility.yul\":9938:9941   */\n      dup3\n        /* \"#utility.yul\":9849:9942   */\n      tag_553\n      jump\t// in\n    tag_552:\n        /* \"#utility.yul\":9967:9969   */\n      0x40\n        /* \"#utility.yul\":9962:9965   */\n      dup3\n        /* \"#utility.yul\":9958:9970   */\n      add\n        /* \"#utility.yul\":9951:9970   */\n      swap1\n      pop\n        /* \"#utility.yul\":9610:9976   */\n      swap2\n      swap1\n      pop\n      jump\t// out\n        /* \"#utility.yul\":9982:10348   */\n    tag_554:\n        /* \"#utility.yul\":10124:10127   */\n      0x00\n        /* \"#utility.yul\":10145:10212   */\n      tag_556\n        /* \"#utility.yul\":10209:10211   */\n      0x38\n        /* \"#utility.yul\":10204:10207   */\n      dup4\n        /* \"#utility.yul\":10145:10212   */\n      tag_515\n      jump\t// in\n    tag_556:\n        /* \"#utility.yul\":10138:10212   */\n      swap2\n      pop\n        /* \"#utility.yul\":10221:10314   */\n      tag_557\n        /* \"#utility.yul\":10310:10313   */\n      dup3\n        /* \"#utility.yul\":10221:10314   */\n      tag_558\n      jump\t// in\n    tag_557:\n        /* \"#utility.yul\":10339:10341   */\n      0x40\n        /* \"#utility.yul\":10334:10337   */\n      dup3\n        /* \"#utility.yul\":10330:10342   */\n      add\n        /* \"#utility.yul\":10323:10342   */\n      swap1\n      pop\n        /* \"#utility.yul\":9982:10348   */\n      swap2\n      swap1\n      pop\n      jump\t// out\n        /* \"#utility.yul\":10354:10720   */\n    tag_559:\n        /* \"#utility.yul\":10496:10499   */\n      0x00\n        /* \"#utility.yul\":10517:10584   */\n      tag_561\n        /* \"#utility.yul\":10581:10583   */\n      0x2a\n        /* \"#utility.yul\":10576:10579   */\n      dup4\n        /* \"#utility.yul\":10517:10584   */\n      tag_515\n      jump\t// in\n    tag_561:\n        /* \"#utility.yul\":10510:10584   */\n      swap2\n      pop\n        /* \"#utility.yul\":10593:10686   */\n      tag_562\n        /* \"#utility.yul\":10682:10685   */\n      dup3\n        /* \"#utility.yul\":10593:10686   */\n      tag_563\n      jump\t// in\n    tag_562:\n        /* \"#utility.yul\":10711:10713   */\n      0x40\n        /* \"#utility.yul\":10706:10709   */\n      dup3\n        /* \"#utility.yul\":10702:10714   */\n      add\n        /* \"#utility.yul\":10695:10714   */\n      swap1\n      pop\n        /* \"#utility.yul\":10354:10720   */\n      swap2\n      swap1\n      pop\n      jump\t// out\n        /* \"#utility.yul\":10726:11092   */\n    tag_564:\n        /* \"#utility.yul\":10868:10871   */\n      0x00\n        /* \"#utility.yul\":10889:10956   */\n      tag_566\n        /* \"#utility.yul\":10953:10955   */\n      0x22\n        /* \"#utility.yul\":10948:10951   */\n      dup4\n        /* \"#utility.yul\":10889:10956   */\n      tag_515\n      jump\t// in\n    tag_566:\n        /* \"#utility.yul\":10882:10956   */\n      swap2\n      pop\n        /* \"#utility.yul\":10965:11058   */\n      tag_567\n        /* \"#utility.yul\":11054:11057   */\n      dup3\n        /* \"#utility.yul\":10965:11058   */\n      tag_568\n      jump\t// in\n    tag_567:\n        /* \"#utility.yul\":11083:11085   */\n      0x40\n        /* \"#utility.yul\":11078:11081   */\n      dup3\n        /* \"#utility.yul\":11074:11086   */\n      add\n        /* \"#utility.yul\":11067:11086   */\n      swap1\n      pop\n        /* \"#utility.yul\":10726:11092   */\n      swap2\n      swap1\n      pop\n      jump\t// out\n        /* \"#utility.yul\":11098:11464   */\n    tag_569:\n        /* \"#utility.yul\":11240:11243   */\n      0x00\n        /* \"#utility.yul\":11261:11328   */\n      tag_571\n        /* \"#utility.yul\":11325:11327   */\n      0x2c\n        /* \"#utility.yul\":11320:11323   */\n      dup4\n        /* \"#utility.yul\":11261:11328   */\n      tag_515\n      jump\t// in\n    tag_571:\n        /* \"#utility.yul\":11254:11328   */\n      swap2\n      pop\n        /* \"#utility.yul\":11337:11430   */\n      tag_572\n        /* \"#utility.yul\":11426:11429   */\n      dup3\n        /* \"#utility.yul\":11337:11430   */\n      tag_573\n      jump\t// in\n    tag_572:\n        /* \"#utility.yul\":11455:11457   */\n      0x40\n        /* \"#utility.yul\":11450:11453   */\n      dup3\n        /* \"#utility.yul\":11446:11458   */\n      add\n        /* \"#utility.yul\":11439:11458   */\n      swap1\n      pop\n        /* \"#utility.yul\":11098:11464   */\n      swap2\n      swap1\n      pop\n      jump\t// out\n        /* \"#utility.yul\":11470:11836   */\n    tag_574:\n        /* \"#utility.yul\":11612:11615   */\n      0x00\n        /* \"#utility.yul\":11633:11700   */\n      tag_576\n        /* \"#utility.yul\":11697:11699   */\n      0x29\n        /* \"#utility.yul\":11692:11695   */\n      dup4\n        /* \"#utility.yul\":11633:11700   */\n      tag_515\n      jump\t// in\n    tag_576:\n        /* \"#utility.yul\":11626:11700   */\n      swap2\n      pop\n        /* \"#utility.yul\":11709:11802   */\n      tag_577\n        /* \"#utility.yul\":11798:11801   */\n      dup3\n        /* \"#utility.yul\":11709:11802   */\n      tag_578\n      jump\t// in\n    tag_577:\n        /* \"#utility.yul\":11827:11829   */\n      0x40\n        /* \"#utility.yul\":11822:11825   */\n      dup3\n        /* \"#utility.yul\":11818:11830   */\n      add\n        /* \"#utility.yul\":11811:11830   */\n      swap1\n      pop\n        /* \"#utility.yul\":11470:11836   */\n      swap2\n      swap1\n      pop\n      jump\t// out\n        /* \"#utility.yul\":11842:12208   */\n    tag_579:\n        /* \"#utility.yul\":11984:11987   */\n      0x00\n        /* \"#utility.yul\":12005:12072   */\n      tag_581\n        /* \"#utility.yul\":12069:12071   */\n      0x2f\n        /* \"#utility.yul\":12064:12067   */\n      dup4\n        /* \"#utility.yul\":12005:12072   */\n      tag_515\n      jump\t// in\n    tag_581:\n        /* \"#utility.yul\":11998:12072   */\n      swap2\n      pop\n        /* \"#utility.yul\":12081:12174   */\n      tag_582\n        /* \"#utility.yul\":12170:12173   */\n      dup3\n        /* \"#utility.yul\":12081:12174   */\n      tag_583\n      jump\t// in\n    tag_582:\n        /* \"#utility.yul\":12199:12201   */\n      0x40\n        /* \"#utility.yul\":12194:12197   */\n      dup3\n        /* \"#utility.yul\":12190:12202   */\n      add\n        /* \"#utility.yul\":12183:12202   */\n      swap1\n      pop\n        /* \"#utility.yul\":11842:12208   */\n      swap2\n      swap1\n      pop\n      jump\t// out\n        /* \"#utility.yul\":12214:12580   */\n    tag_584:\n        /* \"#utility.yul\":12356:12359   */\n      0x00\n        /* \"#utility.yul\":12377:12444   */\n      tag_586\n        /* \"#utility.yul\":12441:12443   */\n      0x21\n        /* \"#utility.yul\":12436:12439   */\n      dup4\n        /* \"#utility.yul\":12377:12444   */\n      tag_515\n      jump\t// in\n    tag_586:\n        /* \"#utility.yul\":12370:12444   */\n      swap2\n      pop\n        /* \"#utility.yul\":12453:12546   */\n      tag_587\n        /* \"#utility.yul\":12542:12545   */\n      dup3\n        /* \"#utility.yul\":12453:12546   */\n      tag_588\n      jump\t// in\n    tag_587:\n        /* \"#utility.yul\":12571:12573   */\n      0x40\n        /* \"#utility.yul\":12566:12569   */\n      dup3\n        /* \"#utility.yul\":12562:12574   */\n      add\n        /* \"#utility.yul\":12555:12574   */\n      swap1\n      pop\n        /* \"#utility.yul\":12214:12580   */\n      swap2\n      swap1\n      pop\n      jump\t// out\n        /* \"#utility.yul\":12586:12952   */\n    tag_589:\n        /* \"#utility.yul\":12728:12731   */\n      0x00\n        /* \"#utility.yul\":12749:12816   */\n      tag_591\n        /* \"#utility.yul\":12813:12815   */\n      0x31\n        /* \"#utility.yul\":12808:12811   */\n      dup4\n        /* \"#utility.yul\":12749:12816   */\n      tag_515\n      jump\t// in\n    tag_591:\n        /* \"#utility.yul\":12742:12816   */\n      swap2\n      pop\n        /* \"#utility.yul\":12825:12918   */\n      tag_592\n        /* \"#utility.yul\":12914:12917   */\n      dup3\n        /* \"#utility.yul\":12825:12918   */\n      tag_593\n      jump\t// in\n    tag_592:\n        /* \"#utility.yul\":12943:12945   */\n      0x40\n        /* \"#utility.yul\":12938:12941   */\n      dup3\n        /* \"#utility.yul\":12934:12946   */\n      add\n        /* \"#utility.yul\":12927:12946   */\n      swap1\n      pop\n        /* \"#utility.yul\":12586:12952   */\n      swap2\n      swap1\n      pop\n      jump\t// out\n        /* \"#utility.yul\":12958:13324   */\n    tag_594:\n        /* \"#utility.yul\":13100:13103   */\n      0x00\n        /* \"#utility.yul\":13121:13188   */\n      tag_596\n        /* \"#utility.yul\":13185:13187   */\n      0x1d\n        /* \"#utility.yul\":13180:13183   */\n      dup4\n        /* \"#utility.yul\":13121:13188   */\n      tag_515\n      jump\t// in\n    tag_596:\n        /* \"#utility.yul\":13114:13188   */\n      swap2\n      pop\n        /* \"#utility.yul\":13197:13290   */\n      tag_597\n        /* \"#utility.yul\":13286:13289   */\n      dup3\n        /* \"#utility.yul\":13197:13290   */\n      tag_598\n      jump\t// in\n    tag_597:\n        /* \"#utility.yul\":13315:13317   */\n      0x20\n        /* \"#utility.yul\":13310:13313   */\n      dup3\n        /* \"#utility.yul\":13306:13318   */\n      add\n        /* \"#utility.yul\":13299:13318   */\n      swap1\n      pop\n        /* \"#utility.yul\":12958:13324   */\n      swap2\n      swap1\n      pop\n      jump\t// out\n        /* \"#utility.yul\":13330:13448   */\n    tag_599:\n        /* \"#utility.yul\":13417:13441   */\n      tag_601\n        /* \"#utility.yul\":13435:13440   */\n      dup2\n        /* \"#utility.yul\":13417:13441   */\n      tag_602\n      jump\t// in\n    tag_601:\n        /* \"#utility.yul\":13412:13415   */\n      dup3\n        /* \"#utility.yul\":13405:13442   */\n      mstore\n        /* \"#utility.yul\":13330:13448   */\n      pop\n      pop\n      jump\t// out\n        /* \"#utility.yul\":13454:13725   */\n    tag_377:\n        /* \"#utility.yul\":13584:13587   */\n      0x00\n        /* \"#utility.yul\":13606:13699   */\n      tag_604\n        /* \"#utility.yul\":13695:13698   */\n      dup3\n        /* \"#utility.yul\":13686:13692   */\n      dup5\n        /* \"#utility.yul\":13606:13699   */\n      tag_504\n      jump\t// in\n    tag_604:\n        /* \"#utility.yul\":13599:13699   */\n      swap2\n      pop\n        /* \"#utility.yul\":13716:13719   */\n      dup2\n        /* \"#utility.yul\":13709:13719   */\n      swap1\n      pop\n        /* \"#utility.yul\":13454:13725   */\n      swap3\n      swap2\n      pop\n      pop\n      jump\t// out\n        /* \"#utility.yul\":13731:14166   */\n    tag_204:\n        /* \"#utility.yul\":13911:13914   */\n      0x00\n        /* \"#utility.yul\":13933:14028   */\n      tag_606\n        /* \"#utility.yul\":14024:14027   */\n      dup3\n        /* \"#utility.yul\":14015:14021   */\n      dup6\n        /* \"#utility.yul\":13933:14028   */\n      tag_518\n      jump\t// in\n    tag_606:\n        /* \"#utility.yul\":13926:14028   */\n      swap2\n      pop\n        /* \"#utility.yul\":14045:14140   */\n      tag_607\n        /* \"#utility.yul\":14136:14139   */\n      dup3\n        /* \"#utility.yul\":14127:14133   */\n      dup5\n        /* \"#utility.yul\":14045:14140   */\n      tag_518\n      jump\t// in\n    tag_607:\n        /* \"#utility.yul\":14038:14140   */\n      swap2\n      pop\n        /* \"#utility.yul\":14157:14160   */\n      dup2\n        /* \"#utility.yul\":14150:14160   */\n      swap1\n      pop\n        /* \"#utility.yul\":13731:14166   */\n      swap4\n      swap3\n      pop\n      pop\n      pop\n      jump\t// out\n        /* \"#utility.yul\":14172:14394   */\n    tag_40:\n        /* \"#utility.yul\":14265:14269   */\n      0x00\n        /* \"#utility.yul\":14303:14305   */\n      0x20\n        /* \"#utility.yul\":14292:14301   */\n      dup3\n        /* \"#utility.yul\":14288:14306   */\n      add\n        /* \"#utility.yul\":14280:14306   */\n      swap1\n      pop\n        /* \"#utility.yul\":14316:14387   */\n      tag_609\n        /* \"#utility.yul\":14384:14385   */\n      0x00\n        /* \"#utility.yul\":14373:14382   */\n      dup4\n        /* \"#utility.yul\":14369:14386   */\n      add\n        /* \"#utility.yul\":14360:14366   */\n      dup5\n        /* \"#utility.yul\":14316:14387   */\n      tag_486\n      jump\t// in\n    tag_609:\n        /* \"#utility.yul\":14172:14394   */\n      swap3\n      swap2\n      pop\n      pop\n      jump\t// out\n        /* \"#utility.yul\":14400:15072   */\n    tag_332:\n        /* \"#utility.yul\":14611:14615   */\n      0x00\n        /* \"#utility.yul\":14649:14652   */\n      0x80\n        /* \"#utility.yul\":14638:14647   */\n      dup3\n        /* \"#utility.yul\":14634:14653   */\n      add\n        /* \"#utility.yul\":14626:14653   */\n      swap1\n      pop\n        /* \"#utility.yul\":14663:14750   */\n      tag_611\n        /* \"#utility.yul\":14747:14748   */\n      0x00\n        /* \"#utility.yul\":14736:14745   */\n      dup4\n        /* \"#utility.yul\":14732:14749   */\n      add\n        /* \"#utility.yul\":14723:14729   */\n      dup8\n        /* \"#utility.yul\":14663:14750   */\n      tag_482\n      jump\t// in\n    tag_611:\n        /* \"#utility.yul\":14760:14832   */\n      tag_612\n        /* \"#utility.yul\":14828:14830   */\n      0x20\n        /* \"#utility.yul\":14817:14826   */\n      dup4\n        /* \"#utility.yul\":14813:14831   */\n      add\n        /* \"#utility.yul\":14804:14810   */\n      dup7\n        /* \"#utility.yul\":14760:14832   */\n      tag_486\n      jump\t// in\n    tag_612:\n        /* \"#utility.yul\":14842:14914   */\n      tag_613\n        /* \"#utility.yul\":14910:14912   */\n      0x40\n        /* \"#utility.yul\":14899:14908   */\n      dup4\n        /* \"#utility.yul\":14895:14913   */\n      add\n        /* \"#utility.yul\":14886:14892   */\n      dup6\n        /* \"#utility.yul\":14842:14914   */\n      tag_599\n      jump\t// in\n    tag_613:\n        /* \"#utility.yul\":14961:14970   */\n      dup2\n        /* \"#utility.yul\":14955:14959   */\n      dup2\n        /* \"#utility.yul\":14951:14971   */\n      sub\n        /* \"#utility.yul\":14946:14948   */\n      0x60\n        /* \"#utility.yul\":14935:14944   */\n      dup4\n        /* \"#utility.yul\":14931:14949   */\n      add\n        /* \"#utility.yul\":14924:14972   */\n      mstore\n        /* \"#utility.yul\":14989:15065   */\n      tag_614\n        /* \"#utility.yul\":15060:15064   */\n      dup2\n        /* \"#utility.yul\":15051:15057   */\n      dup5\n        /* \"#utility.yul\":14989:15065   */\n      tag_494\n      jump\t// in\n    tag_614:\n        /* \"#utility.yul\":14981:15065   */\n      swap1\n      pop\n        /* \"#utility.yul\":14400:15072   */\n      swap6\n      swap5\n      pop\n      pop\n      pop\n      pop\n      pop\n      jump\t// out\n        /* \"#utility.yul\":15078:15288   */\n    tag_30:\n        /* \"#utility.yul\":15165:15169   */\n      0x00\n        /* \"#utility.yul\":15203:15205   */\n      0x20\n        /* \"#utility.yul\":15192:15201   */\n      dup3\n        /* \"#utility.yul\":15188:15206   */\n      add\n        /* \"#utility.yul\":15180:15206   */\n      swap1\n      pop\n        /* \"#utility.yul\":15216:15281   */\n      tag_616\n        /* \"#utility.yul\":15278:15279   */\n      0x00\n        /* \"#utility.yul\":15267:15276   */\n      dup4\n        /* \"#utility.yul\":15263:15280   */\n      add\n        /* \"#utility.yul\":15254:15260   */\n      dup5\n        /* \"#utility.yul\":15216:15281   */\n      tag_490\n      jump\t// in\n    tag_616:\n        /* \"#utility.yul\":15078:15288   */\n      swap3\n      swap2\n      pop\n      pop\n      jump\t// out\n        /* \"#utility.yul\":15294:15607   */\n    tag_34:\n        /* \"#utility.yul\":15407:15411   */\n      0x00\n        /* \"#utility.yul\":15445:15447   */\n      0x20\n        /* \"#utility.yul\":15434:15443   */\n      dup3\n        /* \"#utility.yul\":15430:15448   */\n      add\n        /* \"#utility.yul\":15422:15448   */\n      swap1\n      pop\n        /* \"#utility.yul\":15494:15503   */\n      dup2\n        /* \"#utility.yul\":15488:15492   */\n      dup2\n        /* \"#utility.yul\":15484:15504   */\n      sub\n        /* \"#utility.yul\":15480:15481   */\n      0x00\n        /* \"#utility.yul\":15469:15478   */\n      dup4\n        /* \"#utility.yul\":15465:15482   */\n      add\n        /* \"#utility.yul\":15458:15505   */\n      mstore\n        /* \"#utility.yul\":15522:15600   */\n      tag_618\n        /* \"#utility.yul\":15595:15599   */\n      dup2\n        /* \"#utility.yul\":15586:15592   */\n      dup5\n        /* \"#utility.yul\":15522:15600   */\n      tag_510\n      jump\t// in\n    tag_618:\n        /* \"#utility.yul\":15514:15600   */\n      swap1\n      pop\n        /* \"#utility.yul\":15294:15607   */\n      swap3\n      swap2\n      pop\n      pop\n      jump\t// out\n        /* \"#utility.yul\":15613:16032   */\n    tag_306:\n        /* \"#utility.yul\":15779:15783   */\n      0x00\n        /* \"#utility.yul\":15817:15819   */\n      0x20\n        /* \"#utility.yul\":15806:15815   */\n      dup3\n        /* \"#utility.yul\":15802:15820   */\n      add\n        /* \"#utility.yul\":15794:15820   */\n      swap1\n      pop\n        /* \"#utility.yul\":15866:15875   */\n      dup2\n        /* \"#utility.yul\":15860:15864   */\n      dup2\n        /* \"#utility.yul\":15856:15876   */\n      sub\n        /* \"#utility.yul\":15852:15853   */\n      0x00\n        /* \"#utility.yul\":15841:15850   */\n      dup4\n        /* \"#utility.yul\":15837:15854   */\n      add\n        /* \"#utility.yul\":15830:15877   */\n      mstore\n        /* \"#utility.yul\":15894:16025   */\n      tag_620\n        /* \"#utility.yul\":16020:16024   */\n      dup2\n        /* \"#utility.yul\":15894:16025   */\n      tag_524\n      jump\t// in\n    tag_620:\n        /* \"#utility.yul\":15886:16025   */\n      swap1\n      pop\n        /* \"#utility.yul\":15613:16032   */\n      swap2\n      swap1\n      pop\n      jump\t// out\n        /* \"#utility.yul\":16038:16457   */\n    tag_264:\n        /* \"#utility.yul\":16204:16208   */\n      0x00\n        /* \"#utility.yul\":16242:16244   */\n      0x20\n        /* \"#utility.yul\":16231:16240   */\n      dup3\n        /* \"#utility.yul\":16227:16245   */\n      add\n        /* \"#utility.yul\":16219:16245   */\n      swap1\n      pop\n        /* \"#utility.yul\":16291:16300   */\n      dup2\n        /* \"#utility.yul\":16285:16289   */\n      dup2\n        /* \"#utility.yul\":16281:16301   */\n      sub\n        /* \"#utility.yul\":16277:16278   */\n      0x00\n        /* \"#utility.yul\":16266:16275   */\n      dup4\n        /* \"#utility.yul\":16262:16279   */\n      add\n        /* \"#utility.yul\":16255:16302   */\n      mstore\n        /* \"#utility.yul\":16319:16450   */\n      tag_622\n        /* \"#utility.yul\":16445:16449   */\n      dup2\n        /* \"#utility.yul\":16319:16450   */\n      tag_529\n      jump\t// in\n    tag_622:\n        /* \"#utility.yul\":16311:16450   */\n      swap1\n      pop\n        /* \"#utility.yul\":16038:16457   */\n      swap2\n      swap1\n      pop\n      jump\t// out\n        /* \"#utility.yul\":16463:16882   */\n    tag_236:\n        /* \"#utility.yul\":16629:16633   */\n      0x00\n        /* \"#utility.yul\":16667:16669   */\n      0x20\n        /* \"#utility.yul\":16656:16665   */\n      dup3\n        /* \"#utility.yul\":16652:16670   */\n      add\n        /* \"#utility.yul\":16644:16670   */\n      swap1\n      pop\n        /* \"#utility.yul\":16716:16725   */\n      dup2\n        /* \"#utility.yul\":16710:16714   */\n      dup2\n        /* \"#utility.yul\":16706:16726   */\n      sub\n        /* \"#utility.yul\":16702:16703   */\n      0x00\n        /* \"#utility.yul\":16691:16700   */\n      dup4\n        /* \"#utility.yul\":16687:16704   */\n      add\n        /* \"#utility.yul\":16680:16727   */\n      mstore\n        /* \"#utility.yul\":16744:16875   */\n      tag_624\n        /* \"#utility.yul\":16870:16874   */\n      dup2\n        /* \"#utility.yul\":16744:16875   */\n      tag_534\n      jump\t// in\n    tag_624:\n        /* \"#utility.yul\":16736:16875   */\n      swap1\n      pop\n        /* \"#utility.yul\":16463:16882   */\n      swap2\n      swap1\n      pop\n      jump\t// out\n        /* \"#utility.yul\":16888:17307   */\n    tag_178:\n        /* \"#utility.yul\":17054:17058   */\n      0x00\n        /* \"#utility.yul\":17092:17094   */\n      0x20\n        /* \"#utility.yul\":17081:17090   */\n      dup3\n        /* \"#utility.yul\":17077:17095   */\n      add\n        /* \"#utility.yul\":17069:17095   */\n      swap1\n      pop\n        /* \"#utility.yul\":17141:17150   */\n      dup2\n        /* \"#utility.yul\":17135:17139   */\n      dup2\n        /* \"#utility.yul\":17131:17151   */\n      sub\n        /* \"#utility.yul\":17127:17128   */\n      0x00\n        /* \"#utility.yul\":17116:17125   */\n      dup4\n        /* \"#utility.yul\":17112:17129   */\n      add\n        /* \"#utility.yul\":17105:17152   */\n      mstore\n        /* \"#utility.yul\":17169:17300   */\n      tag_626\n        /* \"#utility.yul\":17295:17299   */\n      dup2\n        /* \"#utility.yul\":17169:17300   */\n      tag_539\n      jump\t// in\n    tag_626:\n        /* \"#utility.yul\":17161:17300   */\n      swap1\n      pop\n        /* \"#utility.yul\":16888:17307   */\n      swap2\n      swap1\n      pop\n      jump\t// out\n        /* \"#utility.yul\":17313:17732   */\n    tag_375:\n        /* \"#utility.yul\":17479:17483   */\n      0x00\n        /* \"#utility.yul\":17517:17519   */\n      0x20\n        /* \"#utility.yul\":17506:17515   */\n      dup3\n        /* \"#utility.yul\":17502:17520   */\n      add\n        /* \"#utility.yul\":17494:17520   */\n      swap1\n      pop\n        /* \"#utility.yul\":17566:17575   */\n      dup2\n        /* \"#utility.yul\":17560:17564   */\n      dup2\n        /* \"#utility.yul\":17556:17576   */\n      sub\n        /* \"#utility.yul\":17552:17553   */\n      0x00\n        /* \"#utility.yul\":17541:17550   */\n      dup4\n        /* \"#utility.yul\":17537:17554   */\n      add\n        /* \"#utility.yul\":17530:17577   */\n      mstore\n        /* \"#utility.yul\":17594:17725   */\n      tag_628\n        /* \"#utility.yul\":17720:17724   */\n      dup2\n        /* \"#utility.yul\":17594:17725   */\n      tag_544\n      jump\t// in\n    tag_628:\n        /* \"#utility.yul\":17586:17725   */\n      swap1\n      pop\n        /* \"#utility.yul\":17313:17732   */\n      swap2\n      swap1\n      pop\n      jump\t// out\n        /* \"#utility.yul\":17738:18157   */\n    tag_223:\n        /* \"#utility.yul\":17904:17908   */\n      0x00\n        /* \"#utility.yul\":17942:17944   */\n      0x20\n        /* \"#utility.yul\":17931:17940   */\n      dup3\n        /* \"#utility.yul\":17927:17945   */\n      add\n        /* \"#utility.yul\":17919:17945   */\n      swap1\n      pop\n        /* \"#utility.yul\":17991:18000   */\n      dup2\n        /* \"#utility.yul\":17985:17989   */\n      dup2\n        /* \"#utility.yul\":17981:18001   */\n      sub\n        /* \"#utility.yul\":17977:17978   */\n      0x00\n        /* \"#utility.yul\":17966:17975   */\n      dup4\n        /* \"#utility.yul\":17962:17979   */\n      add\n        /* \"#utility.yul\":17955:18002   */\n      mstore\n        /* \"#utility.yul\":18019:18150   */\n      tag_630\n        /* \"#utility.yul\":18145:18149   */\n      dup2\n        /* \"#utility.yul\":18019:18150   */\n      tag_549\n      jump\t// in\n    tag_630:\n        /* \"#utility.yul\":18011:18150   */\n      swap1\n      pop\n        /* \"#utility.yul\":17738:18157   */\n      swap2\n      swap1\n      pop\n      jump\t// out\n        /* \"#utility.yul\":18163:18582   */\n    tag_130:\n        /* \"#utility.yul\":18329:18333   */\n      0x00\n        /* \"#utility.yul\":18367:18369   */\n      0x20\n        /* \"#utility.yul\":18356:18365   */\n      dup3\n        /* \"#utility.yul\":18352:18370   */\n      add\n        /* \"#utility.yul\":18344:18370   */\n      swap1\n      pop\n        /* \"#utility.yul\":18416:18425   */\n      dup2\n        /* \"#utility.yul\":18410:18414   */\n      dup2\n        /* \"#utility.yul\":18406:18426   */\n      sub\n        /* \"#utility.yul\":18402:18403   */\n      0x00\n        /* \"#utility.yul\":18391:18400   */\n      dup4\n        /* \"#utility.yul\":18387:18404   */\n      add\n        /* \"#utility.yul\":18380:18427   */\n      mstore\n        /* \"#utility.yul\":18444:18575   */\n      tag_632\n        /* \"#utility.yul\":18570:18574   */\n      dup2\n        /* \"#utility.yul\":18444:18575   */\n      tag_554\n      jump\t// in\n    tag_632:\n        /* \"#utility.yul\":18436:18575   */\n      swap1\n      pop\n        /* \"#utility.yul\":18163:18582   */\n      swap2\n      swap1\n      pop\n      jump\t// out\n        /* \"#utility.yul\":18588:19007   */\n    tag_165:\n        /* \"#utility.yul\":18754:18758   */\n      0x00\n        /* \"#utility.yul\":18792:18794   */\n      0x20\n        /* \"#utility.yul\":18781:18790   */\n      dup3\n        /* \"#utility.yul\":18777:18795   */\n      add\n        /* \"#utility.yul\":18769:18795   */\n      swap1\n      pop\n        /* \"#utility.yul\":18841:18850   */\n      dup2\n        /* \"#utility.yul\":18835:18839   */\n      dup2\n        /* \"#utility.yul\":18831:18851   */\n      sub\n        /* \"#utility.yul\":18827:18828   */\n      0x00\n        /* \"#utility.yul\":18816:18825   */\n      dup4\n        /* \"#utility.yul\":18812:18829   */\n      add\n        /* \"#utility.yul\":18805:18852   */\n      mstore\n        /* \"#utility.yul\":18869:19000   */\n      tag_634\n        /* \"#utility.yul\":18995:18999   */\n      dup2\n        /* \"#utility.yul\":18869:19000   */\n      tag_559\n      jump\t// in\n    tag_634:\n        /* \"#utility.yul\":18861:19000   */\n      swap1\n      pop\n        /* \"#utility.yul\":18588:19007   */\n      swap2\n      swap1\n      pop\n      jump\t// out\n        /* \"#utility.yul\":19013:19432   */\n    tag_313:\n        /* \"#utility.yul\":19179:19183   */\n      0x00\n        /* \"#utility.yul\":19217:19219   */\n      0x20\n        /* \"#utility.yul\":19206:19215   */\n      dup3\n        /* \"#utility.yul\":19202:19220   */\n      add\n        /* \"#utility.yul\":19194:19220   */\n      swap1\n      pop\n        /* \"#utility.yul\":19266:19275   */\n      dup2\n        /* \"#utility.yul\":19260:19264   */\n      dup2\n        /* \"#utility.yul\":19256:19276   */\n      sub\n        /* \"#utility.yul\":19252:19253   */\n      0x00\n        /* \"#utility.yul\":19241:19250   */\n      dup4\n        /* \"#utility.yul\":19237:19254   */\n      add\n        /* \"#utility.yul\":19230:19277   */\n      mstore\n        /* \"#utility.yul\":19294:19425   */\n      tag_636\n        /* \"#utility.yul\":19420:19424   */\n      dup2\n        /* \"#utility.yul\":19294:19425   */\n      tag_564\n      jump\t// in\n    tag_636:\n        /* \"#utility.yul\":19286:19425   */\n      swap1\n      pop\n        /* \"#utility.yul\":19013:19432   */\n      swap2\n      swap1\n      pop\n      jump\t// out\n        /* \"#utility.yul\":19438:19857   */\n    tag_117:\n        /* \"#utility.yul\":19604:19608   */\n      0x00\n        /* \"#utility.yul\":19642:19644   */\n      0x20\n        /* \"#utility.yul\":19631:19640   */\n      dup3\n        /* \"#utility.yul\":19627:19645   */\n      add\n        /* \"#utility.yul\":19619:19645   */\n      swap1\n      pop\n        /* \"#utility.yul\":19691:19700   */\n      dup2\n        /* \"#utility.yul\":19685:19689   */\n      dup2\n        /* \"#utility.yul\":19681:19701   */\n      sub\n        /* \"#utility.yul\":19677:19678   */\n      0x00\n        /* \"#utility.yul\":19666:19675   */\n      dup4\n        /* \"#utility.yul\":19662:19679   */\n      add\n        /* \"#utility.yul\":19655:19702   */\n      mstore\n        /* \"#utility.yul\":19719:19850   */\n      tag_638\n        /* \"#utility.yul\":19845:19849   */\n      dup2\n        /* \"#utility.yul\":19719:19850   */\n      tag_569\n      jump\t// in\n    tag_638:\n        /* \"#utility.yul\":19711:19850   */\n      swap1\n      pop\n        /* \"#utility.yul\":19438:19857   */\n      swap2\n      swap1\n      pop\n      jump\t// out\n        /* \"#utility.yul\":19863:20282   */\n    tag_233:\n        /* \"#utility.yul\":20029:20033   */\n      0x00\n        /* \"#utility.yul\":20067:20069   */\n      0x20\n        /* \"#utility.yul\":20056:20065   */\n      dup3\n        /* \"#utility.yul\":20052:20070   */\n      add\n        /* \"#utility.yul\":20044:20070   */\n      swap1\n      pop\n        /* \"#utility.yul\":20116:20125   */\n      dup2\n        /* \"#utility.yul\":20110:20114   */\n      dup2\n        /* \"#utility.yul\":20106:20126   */\n      sub\n        /* \"#utility.yul\":20102:20103   */\n      0x00\n        /* \"#utility.yul\":20091:20100   */\n      dup4\n        /* \"#utility.yul\":20087:20104   */\n      add\n        /* \"#utility.yul\":20080:20127   */\n      mstore\n        /* \"#utility.yul\":20144:20275   */\n      tag_640\n        /* \"#utility.yul\":20270:20274   */\n      dup2\n        /* \"#utility.yul\":20144:20275   */\n      tag_574\n      jump\t// in\n    tag_640:\n        /* \"#utility.yul\":20136:20275   */\n      swap1\n      pop\n        /* \"#utility.yul\":19863:20282   */\n      swap2\n      swap1\n      pop\n      jump\t// out\n        /* \"#utility.yul\":20288:20707   */\n    tag_194:\n        /* \"#utility.yul\":20454:20458   */\n      0x00\n        /* \"#utility.yul\":20492:20494   */\n      0x20\n        /* \"#utility.yul\":20481:20490   */\n      dup3\n        /* \"#utility.yul\":20477:20495   */\n      add\n        /* \"#utility.yul\":20469:20495   */\n      swap1\n      pop\n        /* \"#utility.yul\":20541:20550   */\n      dup2\n        /* \"#utility.yul\":20535:20539   */\n      dup2\n        /* \"#utility.yul\":20531:20551   */\n      sub\n        /* \"#utility.yul\":20527:20528   */\n      0x00\n        /* \"#utility.yul\":20516:20525   */\n      dup4\n        /* \"#utility.yul\":20512:20529   */\n      add\n        /* \"#utility.yul\":20505:20552   */\n      mstore\n        /* \"#utility.yul\":20569:20700   */\n      tag_642\n        /* \"#utility.yul\":20695:20699   */\n      dup2\n        /* \"#utility.yul\":20569:20700   */\n      tag_579\n      jump\t// in\n    tag_642:\n        /* \"#utility.yul\":20561:20700   */\n      swap1\n      pop\n        /* \"#utility.yul\":20288:20707   */\n      swap2\n      swap1\n      pop\n      jump\t// out\n        /* \"#utility.yul\":20713:21132   */\n    tag_122:\n        /* \"#utility.yul\":20879:20883   */\n      0x00\n        /* \"#utility.yul\":20917:20919   */\n      0x20\n        /* \"#utility.yul\":20906:20915   */\n      dup3\n        /* \"#utility.yul\":20902:20920   */\n      add\n        /* \"#utility.yul\":20894:20920   */\n      swap1\n      pop\n        /* \"#utility.yul\":20966:20975   */\n      dup2\n        /* \"#utility.yul\":20960:20964   */\n      dup2\n        /* \"#utility.yul\":20956:20976   */\n      sub\n        /* \"#utility.yul\":20952:20953   */\n      0x00\n        /* \"#utility.yul\":20941:20950   */\n      dup4\n        /* \"#utility.yul\":20937:20954   */\n      add\n        /* \"#utility.yul\":20930:20977   */\n      mstore\n        /* \"#utility.yul\":20994:21125   */\n      tag_644\n        /* \"#utility.yul\":21120:21124   */\n      dup2\n        /* \"#utility.yul\":20994:21125   */\n      tag_584\n      jump\t// in\n    tag_644:\n        /* \"#utility.yul\":20986:21125   */\n      swap1\n      pop\n        /* \"#utility.yul\":20713:21132   */\n      swap2\n      swap1\n      pop\n      jump\t// out\n        /* \"#utility.yul\":21138:21557   */\n    tag_142:\n        /* \"#utility.yul\":21304:21308   */\n      0x00\n        /* \"#utility.yul\":21342:21344   */\n      0x20\n        /* \"#utility.yul\":21331:21340   */\n      dup3\n        /* \"#utility.yul\":21327:21345   */\n      add\n        /* \"#utility.yul\":21319:21345   */\n      swap1\n      pop\n        /* \"#utility.yul\":21391:21400   */\n      dup2\n        /* \"#utility.yul\":21385:21389   */\n      dup2\n        /* \"#utility.yul\":21381:21401   */\n      sub\n        /* \"#utility.yul\":21377:21378   */\n      0x00\n        /* \"#utility.yul\":21366:21375   */\n      dup4\n        /* \"#utility.yul\":21362:21379   */\n      add\n        /* \"#utility.yul\":21355:21402   */\n      mstore\n        /* \"#utility.yul\":21419:21550   */\n      tag_646\n        /* \"#utility.yul\":21545:21549   */\n      dup2\n        /* \"#utility.yul\":21419:21550   */\n      tag_589\n      jump\t// in\n    tag_646:\n        /* \"#utility.yul\":21411:21550   */\n      swap1\n      pop\n        /* \"#utility.yul\":21138:21557   */\n      swap2\n      swap1\n      pop\n      jump\t// out\n        /* \"#utility.yul\":21563:21982   */\n    tag_389:\n        /* \"#utility.yul\":21729:21733   */\n      0x00\n        /* \"#utility.yul\":21767:21769   */\n      0x20\n        /* \"#utility.yul\":21756:21765   */\n      dup3\n        /* \"#utility.yul\":21752:21770   */\n      add\n        /* \"#utility.yul\":21744:21770   */\n      swap1\n      pop\n        /* \"#utility.yul\":21816:21825   */\n      dup2\n        /* \"#utility.yul\":21810:21814   */\n      dup2\n        /* \"#utility.yul\":21806:21826   */\n      sub\n        /* \"#utility.yul\":21802:21803   */\n      0x00\n        /* \"#utility.yul\":21791:21800   */\n      dup4\n        /* \"#utility.yul\":21787:21804   */\n      add\n        /* \"#utility.yul\":21780:21827   */\n      mstore\n        /* \"#utility.yul\":21844:21975   */\n      tag_648\n        /* \"#utility.yul\":21970:21974   */\n      dup2\n        /* \"#utility.yul\":21844:21975   */\n      tag_594\n      jump\t// in\n    tag_648:\n        /* \"#utility.yul\":21836:21975   */\n      swap1\n      pop\n        /* \"#utility.yul\":21563:21982   */\n      swap2\n      swap1\n      pop\n      jump\t// out\n        /* \"#utility.yul\":21988:22210   */\n    tag_48:\n        /* \"#utility.yul\":22081:22085   */\n      0x00\n        /* \"#utility.yul\":22119:22121   */\n      0x20\n        /* \"#utility.yul\":22108:22117   */\n      dup3\n        /* \"#utility.yul\":22104:22122   */\n      add\n        /* \"#utility.yul\":22096:22122   */\n      swap1\n      pop\n        /* \"#utility.yul\":22132:22203   */\n      tag_650\n        /* \"#utility.yul\":22200:22201   */\n      0x00\n        /* \"#utility.yul\":22189:22198   */\n      dup4\n        /* \"#utility.yul\":22185:22202   */\n      add\n        /* \"#utility.yul\":22176:22182   */\n      dup5\n        /* \"#utility.yul\":22132:22203   */\n      tag_599\n      jump\t// in\n    tag_650:\n        /* \"#utility.yul\":21988:22210   */\n      swap3\n      swap2\n      pop\n      pop\n      jump\t// out\n        /* \"#utility.yul\":22216:22345   */\n    tag_403:\n        /* \"#utility.yul\":22250:22256   */\n      0x00\n        /* \"#utility.yul\":22277:22297   */\n      tag_652\n      tag_653\n      jump\t// in\n    tag_652:\n        /* \"#utility.yul\":22267:22297   */\n      swap1\n      pop\n        /* \"#utility.yul\":22306:22339   */\n      tag_654\n        /* \"#utility.yul\":22334:22338   */\n      dup3\n        /* \"#utility.yul\":22326:22332   */\n      dup3\n        /* \"#utility.yul\":22306:22339   */\n      tag_655\n      jump\t// in\n    tag_654:\n        /* \"#utility.yul\":22216:22345   */\n      swap2\n      swap1\n      pop\n      jump\t// out\n        /* \"#utility.yul\":22351:22426   */\n    tag_653:\n        /* \"#utility.yul\":22384:22390   */\n      0x00\n        /* \"#utility.yul\":22417:22419   */\n      0x40\n        /* \"#utility.yul\":22411:22420   */\n      mload\n        /* \"#utility.yul\":22401:22420   */\n      swap1\n      pop\n        /* \"#utility.yul\":22351:22426   */\n      swap1\n      jump\t// out\n        /* \"#utility.yul\":22432:22739   */\n    tag_402:\n        /* \"#utility.yul\":22493:22497   */\n      0x00\n        /* \"#utility.yul\":22583:22601   */\n      0xffffffffffffffff\n        /* \"#utility.yul\":22575:22581   */\n      dup3\n        /* \"#utility.yul\":22572:22602   */\n      gt\n        /* \"#utility.yul\":22569:22625   */\n      iszero\n      tag_658\n      jumpi\n        /* \"#utility.yul\":22605:22623   */\n      tag_659\n      tag_275\n      jump\t// in\n    tag_659:\n        /* \"#utility.yul\":22569:22625   */\n    tag_658:\n        /* \"#utility.yul\":22643:22672   */\n      tag_660\n        /* \"#utility.yul\":22665:22671   */\n      dup3\n        /* \"#utility.yul\":22643:22672   */\n      tag_503\n      jump\t// in\n    tag_660:\n        /* \"#utility.yul\":22635:22672   */\n      swap1\n      pop\n        /* \"#utility.yul\":22727:22731   */\n      0x20\n        /* \"#utility.yul\":22721:22725   */\n      dup2\n        /* \"#utility.yul\":22717:22732   */\n      add\n        /* \"#utility.yul\":22709:22732   */\n      swap1\n      pop\n        /* \"#utility.yul\":22432:22739   */\n      swap2\n      swap1\n      pop\n      jump\t// out\n        /* \"#utility.yul\":22745:22843   */\n    tag_497:\n        /* \"#utility.yul\":22796:22802   */\n      0x00\n        /* \"#utility.yul\":22830:22835   */\n      dup2\n        /* \"#utility.yul\":22824:22836   */\n      mload\n        /* \"#utility.yul\":22814:22836   */\n      swap1\n      pop\n        /* \"#utility.yul\":22745:22843   */\n      swap2\n      swap1\n      pop\n      jump\t// out\n        /* \"#utility.yul\":22849:22948   */\n    tag_513:\n        /* \"#utility.yul\":22901:22907   */\n      0x00\n        /* \"#utility.yul\":22935:22940   */\n      dup2\n        /* \"#utility.yul\":22929:22941   */\n      mload\n        /* \"#utility.yul\":22919:22941   */\n      swap1\n      pop\n        /* \"#utility.yul\":22849:22948   */\n      swap2\n      swap1\n      pop\n      jump\t// out\n        /* \"#utility.yul\":22954:23122   */\n    tag_499:\n        /* \"#utility.yul\":23037:23048   */\n      0x00\n        /* \"#utility.yul\":23071:23077   */\n      dup3\n        /* \"#utility.yul\":23066:23069   */\n      dup3\n        /* \"#utility.yul\":23059:23078   */\n      mstore\n        /* \"#utility.yul\":23111:23115   */\n      0x20\n        /* \"#utility.yul\":23106:23109   */\n      dup3\n        /* \"#utility.yul\":23102:23116   */\n      add\n        /* \"#utility.yul\":23087:23116   */\n      swap1\n      pop\n        /* \"#utility.yul\":22954:23122   */\n      swap3\n      swap2\n      pop\n      pop\n      jump\t// out\n        /* \"#utility.yul\":23128:23275   */\n    tag_508:\n        /* \"#utility.yul\":23229:23240   */\n      0x00\n        /* \"#utility.yul\":23266:23269   */\n      dup2\n        /* \"#utility.yul\":23251:23269   */\n      swap1\n      pop\n        /* \"#utility.yul\":23128:23275   */\n      swap3\n      swap2\n      pop\n      pop\n      jump\t// out\n        /* \"#utility.yul\":23281:23450   */\n    tag_515:\n        /* \"#utility.yul\":23365:23376   */\n      0x00\n        /* \"#utility.yul\":23399:23405   */\n      dup3\n        /* \"#utility.yul\":23394:23397   */\n      dup3\n        /* \"#utility.yul\":23387:23406   */\n      mstore\n        /* \"#utility.yul\":23439:23443   */\n      0x20\n        /* \"#utility.yul\":23434:23437   */\n      dup3\n        /* \"#utility.yul\":23430:23444   */\n      add\n        /* \"#utility.yul\":23415:23444   */\n      swap1\n      pop\n        /* \"#utility.yul\":23281:23450   */\n      swap3\n      swap2\n      pop\n      pop\n      jump\t// out\n        /* \"#utility.yul\":23456:23604   */\n    tag_522:\n        /* \"#utility.yul\":23558:23569   */\n      0x00\n        /* \"#utility.yul\":23595:23598   */\n      dup2\n        /* \"#utility.yul\":23580:23598   */\n      swap1\n      pop\n        /* \"#utility.yul\":23456:23604   */\n      swap3\n      swap2\n      pop\n      pop\n      jump\t// out\n        /* \"#utility.yul\":23610:23915   */\n    tag_284:\n        /* \"#utility.yul\":23650:23653   */\n      0x00\n        /* \"#utility.yul\":23669:23689   */\n      tag_668\n        /* \"#utility.yul\":23687:23688   */\n      dup3\n        /* \"#utility.yul\":23669:23689   */\n      tag_602\n      jump\t// in\n    tag_668:\n        /* \"#utility.yul\":23664:23689   */\n      swap2\n      pop\n        /* \"#utility.yul\":23703:23723   */\n      tag_669\n        /* \"#utility.yul\":23721:23722   */\n      dup4\n        /* \"#utility.yul\":23703:23723   */\n      tag_602\n      jump\t// in\n    tag_669:\n        /* \"#utility.yul\":23698:23723   */\n      swap3\n      pop\n        /* \"#utility.yul\":23857:23858   */\n      dup3\n        /* \"#utility.yul\":23789:23855   */\n      0xffffffffffffffffffffffffffffffffffffffffffffffffffffffffffffffff\n        /* \"#utility.yul\":23785:23859   */\n      sub\n        /* \"#utility.yul\":23782:23783   */\n      dup3\n        /* \"#utility.yul\":23779:23860   */\n      gt\n        /* \"#utility.yul\":23776:23883   */\n      iszero\n      tag_670\n      jumpi\n        /* \"#utility.yul\":23863:23881   */\n      tag_671\n      tag_672\n      jump\t// in\n    tag_671:\n        /* \"#utility.yul\":23776:23883   */\n    tag_670:\n        /* \"#utility.yul\":23907:23908   */\n      dup3\n        /* \"#utility.yul\":23904:23905   */\n      dup3\n        /* \"#utility.yul\":23900:23909   */\n      add\n        /* \"#utility.yul\":23893:23909   */\n      swap1\n      pop\n        /* \"#utility.yul\":23610:23915   */\n      swap3\n      swap2\n      pop\n      pop\n      jump\t// out\n        /* \"#utility.yul\":23921:24106   */\n    tag_272:\n        /* \"#utility.yul\":23961:23962   */\n      0x00\n        /* \"#utility.yul\":23978:23998   */\n      tag_674\n        /* \"#utility.yul\":23996:23997   */\n      dup3\n        /* \"#utility.yul\":23978:23998   */\n      tag_602\n      jump\t// in\n    tag_674:\n        /* \"#utility.yul\":23973:23998   */\n      swap2\n      pop\n        /* \"#utility.yul\":24012:24032   */\n      tag_675\n        /* \"#utility.yul\":24030:24031   */\n      dup4\n        /* \"#utility.yul\":24012:24032   */\n      tag_602\n      jump\t// in\n    tag_675:\n        /* \"#utility.yul\":24007:24032   */\n      swap3\n      pop\n        /* \"#utility.yul\":24051:24052   */\n      dup3\n        /* \"#utility.yul\":24041:24076   */\n      tag_676\n      jumpi\n        /* \"#utility.yul\":24056:24074   */\n      tag_677\n      tag_678\n      jump\t// in\n    tag_677:\n        /* \"#utility.yul\":24041:24076   */\n    tag_676:\n        /* \"#utility.yul\":24098:24099   */\n      dup3\n        /* \"#utility.yul\":24095:24096   */\n      dup3\n        /* \"#utility.yul\":24091:24100   */\n      div\n        /* \"#utility.yul\":24086:24100   */\n      swap1\n      pop\n        /* \"#utility.yul\":23921:24106   */\n      swap3\n      swap2\n      pop\n      pop\n      jump\t// out\n        /* \"#utility.yul\":24112:24303   */\n    tag_280:\n        /* \"#utility.yul\":24152:24156   */\n      0x00\n        /* \"#utility.yul\":24172:24192   */\n      tag_680\n        /* \"#utility.yul\":24190:24191   */\n      dup3\n        /* \"#utility.yul\":24172:24192   */\n      tag_602\n      jump\t// in\n    tag_680:\n        /* \"#utility.yul\":24167:24192   */\n      swap2\n      pop\n        /* \"#utility.yul\":24206:24226   */\n      tag_681\n        /* \"#utility.yul\":24224:24225   */\n      dup4\n        /* \"#utility.yul\":24206:24226   */\n      tag_602\n      jump\t// in\n    tag_681:\n        /* \"#utility.yul\":24201:24226   */\n      swap3\n      pop\n        /* \"#utility.yul\":24245:24246   */\n      dup3\n        /* \"#utility.yul\":24242:24243   */\n      dup3\n        /* \"#utility.yul\":24239:24247   */\n      lt\n        /* \"#utility.yul\":24236:24270   */\n      iszero\n      tag_682\n      jumpi\n        /* \"#utility.yul\":24250:24268   */\n      tag_683\n      tag_672\n      jump\t// in\n    tag_683:\n        /* \"#utility.yul\":24236:24270   */\n    tag_682:\n        /* \"#utility.yul\":24295:24296   */\n      dup3\n        /* \"#utility.yul\":24292:24293   */\n      dup3\n        /* \"#utility.yul\":24288:24297   */\n      sub\n        /* \"#utility.yul\":24280:24297   */\n      swap1\n      pop\n        /* \"#utility.yul\":24112:24303   */\n      swap3\n      swap2\n      pop\n      pop\n      jump\t// out\n        /* \"#utility.yul\":24309:24405   */\n    tag_489:\n        /* \"#utility.yul\":24346:24353   */\n      0x00\n        /* \"#utility.yul\":24375:24399   */\n      tag_685\n        /* \"#utility.yul\":24393:24398   */\n      dup3\n        /* \"#utility.yul\":24375:24399   */\n      tag_686\n      jump\t// in\n    tag_685:\n        /* \"#utility.yul\":24364:24399   */\n      swap1\n      pop\n        /* \"#utility.yul\":24309:24405   */\n      swap2\n      swap1\n      pop\n      jump\t// out\n        /* \"#utility.yul\":24411:24515   */\n    tag_485:\n        /* \"#utility.yul\":24456:24463   */\n      0x00\n        /* \"#utility.yul\":24485:24509   */\n      tag_688\n        /* \"#utility.yul\":24503:24508   */\n      dup3\n        /* \"#utility.yul\":24485:24509   */\n      tag_686\n      jump\t// in\n    tag_688:\n        /* \"#utility.yul\":24474:24509   */\n      swap1\n      pop\n        /* \"#utility.yul\":24411:24515   */\n      swap2\n      swap1\n      pop\n      jump\t// out\n        /* \"#utility.yul\":24521:24611   */\n    tag_493:\n        /* \"#utility.yul\":24555:24562   */\n      0x00\n        /* \"#utility.yul\":24598:24603   */\n      dup2\n        /* \"#utility.yul\":24591:24604   */\n      iszero\n        /* \"#utility.yul\":24584:24605   */\n      iszero\n        /* \"#utility.yul\":24573:24605   */\n      swap1\n      pop\n        /* \"#utility.yul\":24521:24611   */\n      swap2\n      swap1\n      pop\n      jump\t// out\n        /* \"#utility.yul\":24617:24766   */\n    tag_690:\n        /* \"#utility.yul\":24653:24660   */\n      0x00\n        /* \"#utility.yul\":24693:24759   */\n      0xffffffff00000000000000000000000000000000000000000000000000000000\n        /* \"#utility.yul\":24686:24691   */\n      dup3\n        /* \"#utility.yul\":24682:24760   */\n      and\n        /* \"#utility.yul\":24671:24760   */\n      swap1\n      pop\n        /* \"#utility.yul\":24617:24766   */\n      swap2\n      swap1\n      pop\n      jump\t// out\n        /* \"#utility.yul\":24772:24898   */\n    tag_686:\n        /* \"#utility.yul\":24809:24816   */\n      0x00\n        /* \"#utility.yul\":24849:24891   */\n      0xffffffffffffffffffffffffffffffffffffffff\n        /* \"#utility.yul\":24842:24847   */\n      dup3\n        /* \"#utility.yul\":24838:24892   */\n      and\n        /* \"#utility.yul\":24827:24892   */\n      swap1\n      pop\n        /* \"#utility.yul\":24772:24898   */\n      swap2\n      swap1\n      pop\n      jump\t// out\n        /* \"#utility.yul\":24904:24981   */\n    tag_602:\n        /* \"#utility.yul\":24941:24948   */\n      0x00\n        /* \"#utility.yul\":24970:24975   */\n      dup2\n        /* \"#utility.yul\":24959:24975   */\n      swap1\n      pop\n        /* \"#utility.yul\":24904:24981   */\n      swap2\n      swap1\n      pop\n      jump\t// out\n        /* \"#utility.yul\":24987:25141   */\n    tag_408:\n        /* \"#utility.yul\":25071:25077   */\n      dup3\n        /* \"#utility.yul\":25066:25069   */\n      dup2\n        /* \"#utility.yul\":25061:25064   */\n      dup4\n        /* \"#utility.yul\":25048:25078   */\n      calldatacopy\n        /* \"#utility.yul\":25133:25134   */\n      0x00\n        /* \"#utility.yul\":25124:25130   */\n      dup4\n        /* \"#utility.yul\":25119:25122   */\n      dup4\n        /* \"#utility.yul\":25115:25131   */\n      add\n        /* \"#utility.yul\":25108:25135   */\n      mstore\n        /* \"#utility.yul\":24987:25141   */\n      pop\n      pop\n      pop\n      jump\t// out\n        /* \"#utility.yul\":25147:25454   */\n    tag_501:\n        /* \"#utility.yul\":25215:25216   */\n      0x00\n        /* \"#utility.yul\":25225:25338   */\n    tag_696:\n        /* \"#utility.yul\":25239:25245   */\n      dup4\n        /* \"#utility.yul\":25236:25237   */\n      dup2\n        /* \"#utility.yul\":25233:25246   */\n      lt\n        /* \"#utility.yul\":25225:25338   */\n      iszero\n      tag_698\n      jumpi\n        /* \"#utility.yul\":25324:25325   */\n      dup1\n        /* \"#utility.yul\":25319:25322   */\n      dup3\n        /* \"#utility.yul\":25315:25326   */\n      add\n        /* \"#utility.yul\":25309:25327   */\n      mload\n        /* \"#utility.yul\":25305:25306   */\n      dup2\n        /* \"#utility.yul\":25300:25303   */\n      dup5\n        /* \"#utility.yul\":25296:25307   */\n      add\n        /* \"#utility.yul\":25289:25328   */\n      mstore\n        /* \"#utility.yul\":25261:25263   */\n      0x20\n        /* \"#utility.yul\":25258:25259   */\n      dup2\n        /* \"#utility.yul\":25254:25264   */\n      add\n        /* \"#utility.yul\":25249:25264   */\n      swap1\n      pop\n        /* \"#utility.yul\":25225:25338   */\n      jump(tag_696)\n    tag_698:\n        /* \"#utility.yul\":25356:25362   */\n      dup4\n        /* \"#utility.yul\":25353:25354   */\n      dup2\n        /* \"#utility.yul\":25350:25363   */\n      gt\n        /* \"#utility.yul\":25347:25448   */\n      iszero\n      tag_699\n      jumpi\n        /* \"#utility.yul\":25436:25437   */\n      0x00\n        /* \"#utility.yul\":25427:25433   */\n      dup5\n        /* \"#utility.yul\":25422:25425   */\n      dup5\n        /* \"#utility.yul\":25418:25434   */\n      add\n        /* \"#utility.yul\":25411:25438   */\n      mstore\n        /* \"#utility.yul\":25347:25448   */\n    tag_699:\n        /* \"#utility.yul\":25196:25454   */\n      pop\n        /* \"#utility.yul\":25147:25454   */\n      pop\n      pop\n      pop\n      jump\t// out\n        /* \"#utility.yul\":25460:25780   */\n    tag_107:\n        /* \"#utility.yul\":25504:25510   */\n      0x00\n        /* \"#utility.yul\":25541:25542   */\n      0x02\n        /* \"#utility.yul\":25535:25539   */\n      dup3\n        /* \"#utility.yul\":25531:25543   */\n      div\n        /* \"#utility.yul\":25521:25543   */\n      swap1\n      pop\n        /* \"#utility.yul\":25588:25589   */\n      0x01\n        /* \"#utility.yul\":25582:25586   */\n      dup3\n        /* \"#utility.yul\":25578:25590   */\n      and\n        /* \"#utility.yul\":25609:25627   */\n      dup1\n        /* \"#utility.yul\":25599:25680   */\n      tag_701\n      jumpi\n        /* \"#utility.yul\":25665:25669   */\n      0x7f\n        /* \"#utility.yul\":25657:25663   */\n      dup3\n        /* \"#utility.yul\":25653:25670   */\n      and\n        /* \"#utility.yul\":25643:25670   */\n      swap2\n      pop\n        /* \"#utility.yul\":25599:25680   */\n    tag_701:\n        /* \"#utility.yul\":25727:25729   */\n      0x20\n        /* \"#utility.yul\":25719:25725   */\n      dup3\n        /* \"#utility.yul\":25716:25730   */\n      lt\n        /* \"#utility.yul\":25696:25714   */\n      dup2\n        /* \"#utility.yul\":25693:25731   */\n      eq\n        /* \"#utility.yul\":25690:25774   */\n      iszero\n      tag_702\n      jumpi\n        /* \"#utility.yul\":25746:25764   */\n      tag_703\n      tag_704\n      jump\t// in\n    tag_703:\n        /* \"#utility.yul\":25690:25774   */\n    tag_702:\n        /* \"#utility.yul\":25511:25780   */\n      pop\n        /* \"#utility.yul\":25460:25780   */\n      swap2\n      swap1\n      pop\n      jump\t// out\n        /* \"#utility.yul\":25786:26067   */\n    tag_655:\n        /* \"#utility.yul\":25869:25896   */\n      tag_706\n        /* \"#utility.yul\":25891:25895   */\n      dup3\n        /* \"#utility.yul\":25869:25896   */\n      tag_503\n      jump\t// in\n    tag_706:\n        /* \"#utility.yul\":25861:25867   */\n      dup2\n        /* \"#utility.yul\":25857:25897   */\n      add\n        /* \"#utility.yul\":25999:26005   */\n      dup2\n        /* \"#utility.yul\":25987:25997   */\n      dup2\n        /* \"#utility.yul\":25984:26006   */\n      lt\n        /* \"#utility.yul\":25963:25981   */\n      0xffffffffffffffff\n        /* \"#utility.yul\":25951:25961   */\n      dup3\n        /* \"#utility.yul\":25948:25982   */\n      gt\n        /* \"#utility.yul\":25945:26007   */\n      or\n        /* \"#utility.yul\":25942:26030   */\n      iszero\n      tag_707\n      jumpi\n        /* \"#utility.yul\":26010:26028   */\n      tag_708\n      tag_275\n      jump\t// in\n    tag_708:\n        /* \"#utility.yul\":25942:26030   */\n    tag_707:\n        /* \"#utility.yul\":26050:26060   */\n      dup1\n        /* \"#utility.yul\":26046:26048   */\n      0x40\n        /* \"#utility.yul\":26039:26061   */\n      mstore\n        /* \"#utility.yul\":25829:26067   */\n      pop\n        /* \"#utility.yul\":25786:26067   */\n      pop\n      pop\n      jump\t// out\n        /* \"#utility.yul\":26073:26306   */\n    tag_270:\n        /* \"#utility.yul\":26112:26115   */\n      0x00\n        /* \"#utility.yul\":26135:26159   */\n      tag_710\n        /* \"#utility.yul\":26153:26158   */\n      dup3\n        /* \"#utility.yul\":26135:26159   */\n      tag_602\n      jump\t// in\n    tag_710:\n        /* \"#utility.yul\":26126:26159   */\n      swap2\n      pop\n        /* \"#utility.yul\":26181:26247   */\n      0xffffffffffffffffffffffffffffffffffffffffffffffffffffffffffffffff\n        /* \"#utility.yul\":26174:26179   */\n      dup3\n        /* \"#utility.yul\":26171:26248   */\n      eq\n        /* \"#utility.yul\":26168:26271   */\n      iszero\n      tag_711\n      jumpi\n        /* \"#utility.yul\":26251:26269   */\n      tag_712\n      tag_672\n      jump\t// in\n    tag_712:\n        /* \"#utility.yul\":26168:26271   */\n    tag_711:\n        /* \"#utility.yul\":26298:26299   */\n      0x01\n        /* \"#utility.yul\":26291:26296   */\n      dup3\n        /* \"#utility.yul\":26287:26300   */\n      add\n        /* \"#utility.yul\":26280:26300   */\n      swap1\n      pop\n        /* \"#utility.yul\":26073:26306   */\n      swap2\n      swap1\n      pop\n      jump\t// out\n        /* \"#utility.yul\":26312:26488   */\n    tag_282:\n        /* \"#utility.yul\":26344:26345   */\n      0x00\n        /* \"#utility.yul\":26361:26381   */\n      tag_714\n        /* \"#utility.yul\":26379:26380   */\n      dup3\n        /* \"#utility.yul\":26361:26381   */\n      tag_602\n      jump\t// in\n    tag_714:\n        /* \"#utility.yul\":26356:26381   */\n      swap2\n      pop\n        /* \"#utility.yul\":26395:26415   */\n      tag_715\n        /* \"#utility.yul\":26413:26414   */\n      dup4\n        /* \"#utility.yul\":26395:26415   */\n      tag_602\n      jump\t// in\n    tag_715:\n        /* \"#utility.yul\":26390:26415   */\n      swap3\n      pop\n        /* \"#utility.yul\":26434:26435   */\n      dup3\n        /* \"#utility.yul\":26424:26459   */\n      tag_716\n      jumpi\n        /* \"#utility.yul\":26439:26457   */\n      tag_717\n      tag_678\n      jump\t// in\n    tag_717:\n        /* \"#utility.yul\":26424:26459   */\n    tag_716:\n        /* \"#utility.yul\":26480:26481   */\n      dup3\n        /* \"#utility.yul\":26477:26478   */\n      dup3\n        /* \"#utility.yul\":26473:26482   */\n      mod\n        /* \"#utility.yul\":26468:26482   */\n      swap1\n      pop\n        /* \"#utility.yul\":26312:26488   */\n      swap3\n      swap2\n      pop\n      pop\n      jump\t// out\n        /* \"#utility.yul\":26494:26674   */\n    tag_672:\n        /* \"#utility.yul\":26542:26619   */\n      0x4e487b7100000000000000000000000000000000000000000000000000000000\n        /* \"#utility.yul\":26539:26540   */\n      0x00\n        /* \"#utility.yul\":26532:26620   */\n      mstore\n        /* \"#utility.yul\":26639:26643   */\n      0x11\n        /* \"#utility.yul\":26636:26637   */\n      0x04\n        /* \"#utility.yul\":26629:26644   */\n      mstore\n        /* \"#utility.yul\":26663:26667   */\n      0x24\n        /* \"#utility.yul\":26660:26661   */\n      0x00\n        /* \"#utility.yul\":26653:26668   */\n      revert\n        /* \"#utility.yul\":26680:26860   */\n    tag_678:\n        /* \"#utility.yul\":26728:26805   */\n      0x4e487b7100000000000000000000000000000000000000000000000000000000\n        /* \"#utility.yul\":26725:26726   */\n      0x00\n        /* \"#utility.yul\":26718:26806   */\n      mstore\n        /* \"#utility.yul\":26825:26829   */\n      0x12\n        /* \"#utility.yul\":26822:26823   */\n      0x04\n        /* \"#utility.yul\":26815:26830   */\n      mstore\n        /* \"#utility.yul\":26849:26853   */\n      0x24\n        /* \"#utility.yul\":26846:26847   */\n      0x00\n        /* \"#utility.yul\":26839:26854   */\n      revert\n        /* \"#utility.yul\":26866:27046   */\n    tag_704:\n        /* \"#utility.yul\":26914:26991   */\n      0x4e487b7100000000000000000000000000000000000000000000000000000000\n        /* \"#utility.yul\":26911:26912   */\n      0x00\n        /* \"#utility.yul\":26904:26992   */\n      mstore\n        /* \"#utility.yul\":27011:27015   */\n      0x22\n        /* \"#utility.yul\":27008:27009   */\n      0x04\n        /* \"#utility.yul\":27001:27016   */\n      mstore\n        /* \"#utility.yul\":27035:27039   */\n      0x24\n        /* \"#utility.yul\":27032:27033   */\n      0x00\n        /* \"#utility.yul\":27025:27040   */\n      revert\n        /* \"#utility.yul\":27052:27232   */\n    tag_350:\n        /* \"#utility.yul\":27100:27177   */\n      0x4e487b7100000000000000000000000000000000000000000000000000000000\n        /* \"#utility.yul\":27097:27098   */\n      0x00\n        /* \"#utility.yul\":27090:27178   */\n      mstore\n        /* \"#utility.yul\":27197:27201   */\n      0x31\n        /* \"#utility.yul\":27194:27195   */\n      0x04\n        /* \"#utility.yul\":27187:27202   */\n      mstore\n        /* \"#utility.yul\":27221:27225   */\n      0x24\n        /* \"#utility.yul\":27218:27219   */\n      0x00\n        /* \"#utility.yul\":27211:27226   */\n      revert\n        /* \"#utility.yul\":27238:27418   */\n    tag_287:\n        /* \"#utility.yul\":27286:27363   */\n      0x4e487b7100000000000000000000000000000000000000000000000000000000\n        /* \"#utility.yul\":27283:27284   */\n      0x00\n        /* \"#utility.yul\":27276:27364   */\n      mstore\n        /* \"#utility.yul\":27383:27387   */\n      0x32\n        /* \"#utility.yul\":27380:27381   */\n      0x04\n        /* \"#utility.yul\":27373:27388   */\n      mstore\n        /* \"#utility.yul\":27407:27411   */\n      0x24\n        /* \"#utility.yul\":27404:27405   */\n      0x00\n        /* \"#utility.yul\":27397:27412   */\n      revert\n        /* \"#utility.yul\":27424:27604   */\n    tag_275:\n        /* \"#utility.yul\":27472:27549   */\n      0x4e487b7100000000000000000000000000000000000000000000000000000000\n        /* \"#utility.yul\":27469:27470   */\n      0x00\n        /* \"#utility.yul\":27462:27550   */\n      mstore\n        /* \"#utility.yul\":27569:27573   */\n      0x41\n        /* \"#utility.yul\":27566:27567   */\n      0x04\n        /* \"#utility.yul\":27559:27574   */\n      mstore\n        /* \"#utility.yul\":27593:27597   */\n      0x24\n        /* \"#utility.yul\":27590:27591   */\n      0x00\n        /* \"#utility.yul\":27583:27598   */\n      revert\n        /* \"#utility.yul\":27610:27727   */\n    tag_428:\n        /* \"#utility.yul\":27719:27720   */\n      0x00\n        /* \"#utility.yul\":27716:27717   */\n      dup1\n        /* \"#utility.yul\":27709:27721   */\n      revert\n        /* \"#utility.yul\":27733:27850   */\n    tag_406:\n        /* \"#utility.yul\":27842:27843   */\n      0x00\n        /* \"#utility.yul\":27839:27840   */\n      dup1\n        /* \"#utility.yul\":27832:27844   */\n      revert\n        /* \"#utility.yul\":27856:27973   */\n    tag_458:\n        /* \"#utility.yul\":27965:27966   */\n      0x00\n        /* \"#utility.yul\":27962:27963   */\n      dup1\n        /* \"#utility.yul\":27955:27967   */\n      revert\n        /* \"#utility.yul\":27979:28096   */\n    tag_437:\n        /* \"#utility.yul\":28088:28089   */\n      0x00\n        /* \"#utility.yul\":28085:28086   */\n      dup1\n        /* \"#utility.yul\":28078:28090   */\n      revert\n        /* \"#utility.yul\":28102:28204   */\n    tag_503:\n        /* \"#utility.yul\":28143:28149   */\n      0x00\n        /* \"#utility.yul\":28194:28196   */\n      0x1f\n        /* \"#utility.yul\":28190:28197   */\n      not\n        /* \"#utility.yul\":28185:28187   */\n      0x1f\n        /* \"#utility.yul\":28178:28183   */\n      dup4\n        /* \"#utility.yul\":28174:28188   */\n      add\n        /* \"#utility.yul\":28170:28198   */\n      and\n        /* \"#utility.yul\":28160:28198   */\n      swap1\n      pop\n        /* \"#utility.yul\":28102:28204   */\n      swap2\n      swap1\n      pop\n      jump\t// out\n        /* \"#utility.yul\":28210:28431   */\n    tag_528:\n        /* \"#utility.yul\":28350:28384   */\n      0x456e756d657261626c655365743a20696e646578206f7574206f6620626f756e\n        /* \"#utility.yul\":28346:28347   */\n      0x00\n        /* \"#utility.yul\":28338:28344   */\n      dup3\n        /* \"#utility.yul\":28334:28348   */\n      add\n        /* \"#utility.yul\":28327:28385   */\n      mstore\n        /* \"#utility.yul\":28419:28423   */\n      0x6473000000000000000000000000000000000000000000000000000000000000\n        /* \"#utility.yul\":28414:28416   */\n      0x20\n        /* \"#utility.yul\":28406:28412   */\n      dup3\n        /* \"#utility.yul\":28402:28417   */\n      add\n        /* \"#utility.yul\":28395:28424   */\n      mstore\n        /* \"#utility.yul\":28210:28431   */\n      pop\n      jump\t// out\n        /* \"#utility.yul\":28437:28674   */\n    tag_533:\n        /* \"#utility.yul\":28577:28611   */\n      0x4552433732313a207472616e7366657220746f206e6f6e204552433732315265\n        /* \"#utility.yul\":28573:28574   */\n      0x00\n        /* \"#utility.yul\":28565:28571   */\n      dup3\n        /* \"#utility.yul\":28561:28575   */\n      add\n        /* \"#utility.yul\":28554:28612   */\n      mstore\n        /* \"#utility.yul\":28646:28666   */\n      0x63656976657220696d706c656d656e7465720000000000000000000000000000\n        /* \"#utility.yul\":28641:28643   */\n      0x20\n        /* \"#utility.yul\":28633:28639   */\n      dup3\n        /* \"#utility.yul\":28629:28644   */\n      add\n        /* \"#utility.yul\":28622:28667   */\n      mstore\n        /* \"#utility.yul\":28437:28674   */\n      pop\n      jump\t// out\n        /* \"#utility.yul\":28680:28903   */\n    tag_538:\n        /* \"#utility.yul\":28820:28854   */\n      0x4552433732313a207472616e7366657220746f20746865207a65726f20616464\n        /* \"#utility.yul\":28816:28817   */\n      0x00\n        /* \"#utility.yul\":28808:28814   */\n      dup3\n        /* \"#utility.yul\":28804:28818   */\n      add\n        /* \"#utility.yul\":28797:28855   */\n      mstore\n        /* \"#utility.yul\":28889:28895   */\n      0x7265737300000000000000000000000000000000000000000000000000000000\n        /* \"#utility.yul\":28884:28886   */\n      0x20\n        /* \"#utility.yul\":28876:28882   */\n      dup3\n        /* \"#utility.yul\":28872:28887   */\n      add\n        /* \"#utility.yul\":28865:28896   */\n      mstore\n        /* \"#utility.yul\":28680:28903   */\n      pop\n      jump\t// out\n        /* \"#utility.yul\":28909:29084   */\n    tag_543:\n        /* \"#utility.yul\":29049:29076   */\n      0x4552433732313a20617070726f766520746f2063616c6c657200000000000000\n        /* \"#utility.yul\":29045:29046   */\n      0x00\n        /* \"#utility.yul\":29037:29043   */\n      dup3\n        /* \"#utility.yul\":29033:29047   */\n      add\n        /* \"#utility.yul\":29026:29077   */\n      mstore\n        /* \"#utility.yul\":28909:29084   */\n      pop\n      jump\t// out\n        /* \"#utility.yul\":29090:29315   */\n    tag_548:\n        /* \"#utility.yul\":29230:29264   */\n      0x416464726573733a20696e73756666696369656e742062616c616e636520666f\n        /* \"#utility.yul\":29226:29227   */\n      0x00\n        /* \"#utility.yul\":29218:29224   */\n      dup3\n        /* \"#utility.yul\":29214:29228   */\n      add\n        /* \"#utility.yul\":29207:29265   */\n      mstore\n        /* \"#utility.yul\":29299:29307   */\n      0x722063616c6c0000000000000000000000000000000000000000000000000000\n        /* \"#utility.yul\":29294:29296   */\n      0x20\n        /* \"#utility.yul\":29286:29292   */\n      dup3\n        /* \"#utility.yul\":29282:29297   */\n      add\n        /* \"#utility.yul\":29275:29308   */\n      mstore\n        /* \"#utility.yul\":29090:29315   */\n      pop\n      jump\t// out\n        /* \"#utility.yul\":29321:29552   */\n    tag_553:\n        /* \"#utility.yul\":29461:29495   */\n      0x4552433732313a206f70657261746f7220717565727920666f72206e6f6e6578\n        /* \"#utility.yul\":29457:29458   */\n      0x00\n        /* \"#utility.yul\":29449:29455   */\n      dup3\n        /* \"#utility.yul\":29445:29459   */\n      add\n        /* \"#utility.yul\":29438:29496   */\n      mstore\n        /* \"#utility.yul\":29530:29544   */\n      0x697374656e7420746f6b656e0000000000000000000000000000000000000000\n        /* \"#utility.yul\":29525:29527   */\n      0x20\n        /* \"#utility.yul\":29517:29523   */\n      dup3\n        /* \"#utility.yul\":29513:29528   */\n      add\n        /* \"#utility.yul\":29506:29545   */\n      mstore\n        /* \"#utility.yul\":29321:29552   */\n      pop\n      jump\t// out\n        /* \"#utility.yul\":29558:29801   */\n    tag_558:\n        /* \"#utility.yul\":29698:29732   */\n      0x4552433732313a20617070726f76652063616c6c6572206973206e6f74206f77\n        /* \"#utility.yul\":29694:29695   */\n      0x00\n        /* \"#utility.yul\":29686:29692   */\n      dup3\n        /* \"#utility.yul\":29682:29696   */\n      add\n        /* \"#utility.yul\":29675:29733   */\n      mstore\n        /* \"#utility.yul\":29767:29793   */\n      0x6e6572206e6f7220617070726f76656420666f7220616c6c0000000000000000\n        /* \"#utility.yul\":29762:29764   */\n      0x20\n        /* \"#utility.yul\":29754:29760   */\n      dup3\n        /* \"#utility.yul\":29750:29765   */\n      add\n        /* \"#utility.yul\":29743:29794   */\n      mstore\n        /* \"#utility.yul\":29558:29801   */\n      pop\n      jump\t// out\n        /* \"#utility.yul\":29807:30036   */\n    tag_563:\n        /* \"#utility.yul\":29947:29981   */\n      0x4552433732313a2062616c616e636520717565727920666f7220746865207a65\n        /* \"#utility.yul\":29943:29944   */\n      0x00\n        /* \"#utility.yul\":29935:29941   */\n      dup3\n        /* \"#utility.yul\":29931:29945   */\n      add\n        /* \"#utility.yul\":29924:29982   */\n      mstore\n        /* \"#utility.yul\":30016:30028   */\n      0x726f206164647265737300000000000000000000000000000000000000000000\n        /* \"#utility.yul\":30011:30013   */\n      0x20\n        /* \"#utility.yul\":30003:30009   */\n      dup3\n        /* \"#utility.yul\":29999:30014   */\n      add\n        /* \"#utility.yul\":29992:30029   */\n      mstore\n        /* \"#utility.yul\":29807:30036   */\n      pop\n      jump\t// out\n        /* \"#utility.yul\":30042:30263   */\n    tag_568:\n        /* \"#utility.yul\":30182:30216   */\n      0x456e756d657261626c654d61703a20696e646578206f7574206f6620626f756e\n        /* \"#utility.yul\":30178:30179   */\n      0x00\n        /* \"#utility.yul\":30170:30176   */\n      dup3\n        /* \"#utility.yul\":30166:30180   */\n      add\n        /* \"#utility.yul\":30159:30217   */\n      mstore\n        /* \"#utility.yul\":30251:30255   */\n      0x6473000000000000000000000000000000000000000000000000000000000000\n        /* \"#utility.yul\":30246:30248   */\n      0x20\n        /* \"#utility.yul\":30238:30244   */\n      dup3\n        /* \"#utility.yul\":30234:30249   */\n      add\n        /* \"#utility.yul\":30227:30256   */\n      mstore\n        /* \"#utility.yul\":30042:30263   */\n      pop\n      jump\t// out\n        /* \"#utility.yul\":30269:30500   */\n    tag_573:\n        /* \"#utility.yul\":30409:30443   */\n      0x4552433732313a20617070726f76656420717565727920666f72206e6f6e6578\n        /* \"#utility.yul\":30405:30406   */\n      0x00\n        /* \"#utility.yul\":30397:30403   */\n      dup3\n        /* \"#utility.yul\":30393:30407   */\n      add\n        /* \"#utility.yul\":30386:30444   */\n      mstore\n        /* \"#utility.yul\":30478:30492   */\n      0x697374656e7420746f6b656e0000000000000000000000000000000000000000\n        /* \"#utility.yul\":30473:30475   */\n      0x20\n        /* \"#utility.yul\":30465:30471   */\n      dup3\n        /* \"#utility.yul\":30461:30476   */\n      add\n        /* \"#utility.yul\":30454:30493   */\n      mstore\n        /* \"#utility.yul\":30269:30500   */\n      pop\n      jump\t// out\n        /* \"#utility.yul\":30506:30734   */\n    tag_578:\n        /* \"#utility.yul\":30646:30680   */\n      0x4552433732313a207472616e73666572206f6620746f6b656e20746861742069\n        /* \"#utility.yul\":30642:30643   */\n      0x00\n        /* \"#utility.yul\":30634:30640   */\n      dup3\n        /* \"#utility.yul\":30630:30644   */\n      add\n        /* \"#utility.yul\":30623:30681   */\n      mstore\n        /* \"#utility.yul\":30715:30726   */\n      0x73206e6f74206f776e0000000000000000000000000000000000000000000000\n        /* \"#utility.yul\":30710:30712   */\n      0x20\n        /* \"#utility.yul\":30702:30708   */\n      dup3\n        /* \"#utility.yul\":30698:30713   */\n      add\n        /* \"#utility.yul\":30691:30727   */\n      mstore\n        /* \"#utility.yul\":30506:30734   */\n      pop\n      jump\t// out\n        /* \"#utility.yul\":30740:30974   */\n    tag_583:\n        /* \"#utility.yul\":30880:30914   */\n      0x4552433732314d657461646174613a2055524920717565727920666f72206e6f\n        /* \"#utility.yul\":30876:30877   */\n      0x00\n        /* \"#utility.yul\":30868:30874   */\n      dup3\n        /* \"#utility.yul\":30864:30878   */\n      add\n        /* \"#utility.yul\":30857:30915   */\n      mstore\n        /* \"#utility.yul\":30949:30966   */\n      0x6e6578697374656e7420746f6b656e0000000000000000000000000000000000\n        /* \"#utility.yul\":30944:30946   */\n      0x20\n        /* \"#utility.yul\":30936:30942   */\n      dup3\n        /* \"#utility.yul\":30932:30947   */\n      add\n        /* \"#utility.yul\":30925:30967   */\n      mstore\n        /* \"#utility.yul\":30740:30974   */\n      pop\n      jump\t// out\n        /* \"#utility.yul\":30980:31200   */\n    tag_588:\n        /* \"#utility.yul\":31120:31154   */\n      0x4552433732313a20617070726f76616c20746f2063757272656e74206f776e65\n        /* \"#utility.yul\":31116:31117   */\n      0x00\n        /* \"#utility.yul\":31108:31114   */\n      dup3\n        /* \"#utility.yul\":31104:31118   */\n      add\n        /* \"#utility.yul\":31097:31155   */\n      mstore\n        /* \"#utility.yul\":31189:31192   */\n      0x7200000000000000000000000000000000000000000000000000000000000000\n        /* \"#utility.yul\":31184:31186   */\n      0x20\n        /* \"#utility.yul\":31176:31182   */\n      dup3\n        /* \"#utility.yul\":31172:31187   */\n      add\n        /* \"#utility.yul\":31165:31193   */\n      mstore\n        /* \"#utility.yul\":30980:31200   */\n      pop\n      jump\t// out\n        /* \"#utility.yul\":31206:31442   */\n    tag_593:\n        /* \"#utility.yul\":31346:31380   */\n      0x4552433732313a207472616e736665722063616c6c6572206973206e6f74206f\n        /* \"#utility.yul\":31342:31343   */\n      0x00\n        /* \"#utility.yul\":31334:31340   */\n      dup3\n        /* \"#utility.yul\":31330:31344   */\n      add\n        /* \"#utility.yul\":31323:31381   */\n      mstore\n        /* \"#utility.yul\":31415:31434   */\n      0x776e6572206e6f7220617070726f766564000000000000000000000000000000\n        /* \"#utility.yul\":31410:31412   */\n      0x20\n        /* \"#utility.yul\":31402:31408   */\n      dup3\n        /* \"#utility.yul\":31398:31413   */\n      add\n        /* \"#utility.yul\":31391:31435   */\n      mstore\n        /* \"#utility.yul\":31206:31442   */\n      pop\n      jump\t// out\n        /* \"#utility.yul\":31448:31627   */\n    tag_598:\n        /* \"#utility.yul\":31588:31619   */\n      0x416464726573733a2063616c6c20746f206e6f6e2d636f6e7472616374000000\n        /* \"#utility.yul\":31584:31585   */\n      0x00\n        /* \"#utility.yul\":31576:31582   */\n      dup3\n        /* \"#utility.yul\":31572:31586   */\n      add\n        /* \"#utility.yul\":31565:31620   */\n      mstore\n        /* \"#utility.yul\":31448:31627   */\n      pop\n      jump\t// out\n        /* \"#utility.yul\":31633:31755   */\n    tag_412:\n        /* \"#utility.yul\":31706:31730   */\n      tag_745\n        /* \"#utility.yul\":31724:31729   */\n      dup2\n        /* \"#utility.yul\":31706:31730   */\n      tag_489\n      jump\t// in\n    tag_745:\n        /* \"#utility.yul\":31699:31704   */\n      dup2\n        /* \"#utility.yul\":31696:31731   */\n      eq\n        /* \"#utility.yul\":31686:31749   */\n      tag_746\n      jumpi\n        /* \"#utility.yul\":31745:31746   */\n      0x00\n        /* \"#utility.yul\":31742:31743   */\n      dup1\n        /* \"#utility.yul\":31735:31747   */\n      revert\n        /* \"#utility.yul\":31686:31749   */\n    tag_746:\n        /* \"#utility.yul\":31633:31755   */\n      pop\n      jump\t// out\n        /* \"#utility.yul\":31761:31877   */\n    tag_416:\n        /* \"#utility.yul\":31831:31852   */\n      tag_748\n        /* \"#utility.yul\":31846:31851   */\n      dup2\n        /* \"#utility.yul\":31831:31852   */\n      tag_493\n      jump\t// in\n    tag_748:\n        /* \"#utility.yul\":31824:31829   */\n      dup2\n        /* \"#utility.yul\":31821:31853   */\n      eq\n        /* \"#utility.yul\":31811:31871   */\n      tag_749\n      jumpi\n        /* \"#utility.yul\":31867:31868   */\n      0x00\n        /* \"#utility.yul\":31864:31865   */\n      dup1\n        /* \"#utility.yul\":31857:31869   */\n      revert\n        /* \"#utility.yul\":31811:31871   */\n    tag_749:\n        /* \"#utility.yul\":31761:31877   */\n      pop\n      jump\t// out\n        /* \"#utility.yul\":31883:32003   */\n    tag_420:\n        /* \"#utility.yul\":31955:31978   */\n      tag_751\n        /* \"#utility.yul\":31972:31977   */\n      dup2\n        /* \"#utility.yul\":31955:31978   */\n      tag_690\n      jump\t// in\n    tag_751:\n        /* \"#utility.yul\":31948:31953   */\n      dup2\n        /* \"#utility.yul\":31945:31979   */\n      eq\n        /* \"#utility.yul\":31935:31997   */\n      tag_752\n      jumpi\n        /* \"#utility.yul\":31993:31994   */\n      0x00\n        /* \"#utility.yul\":31990:31991   */\n      dup1\n        /* \"#utility.yul\":31983:31995   */\n      revert\n        /* \"#utility.yul\":31935:31997   */\n    tag_752:\n        /* \"#utility.yul\":31883:32003   */\n      pop\n      jump\t// out\n        /* \"#utility.yul\":32009:32131   */\n    tag_433:\n        /* \"#utility.yul\":32082:32106   */\n      tag_754\n        /* \"#utility.yul\":32100:32105   */\n      dup2\n        /* \"#utility.yul\":32082:32106   */\n      tag_602\n      jump\t// in\n    tag_754:\n        /* \"#utility.yul\":32075:32080   */\n      dup2\n        /* \"#utility.yul\":32072:32107   */\n      eq\n        /* \"#utility.yul\":32062:32125   */\n      tag_755\n      jumpi\n        /* \"#utility.yul\":32121:32122   */\n      0x00\n        /* \"#utility.yul\":32118:32119   */\n      dup1\n        /* \"#utility.yul\":32111:32123   */\n      revert\n        /* \"#utility.yul\":32062:32125   */\n    tag_755:\n        /* \"#utility.yul\":32009:32131   */\n      pop\n      jump\t// out\n    stop\n    data_1e766a06da43a53d0f4c380e06e5a342e14d5af1bf8501996c844905530ca84e 4552433732313a207472616e7366657220746f206e6f6e20455243373231526563656976657220696d706c656d656e746572\n    data_7481f3df2a424c0755a1ad2356614e9a5a358d461ea2eae1f89cb21cbad00397 4552433732313a206f776e657220717565727920666f72206e6f6e6578697374656e7420746f6b656e\n\n    auxdata: 0xa264697066735822122037569f1f4fe5e5060b2e610d7131798dcd07387636bca7cdb0f8004e2b7ef2f464736f6c63430008070033\n}\n",
				"bytecode": {
					"linkReferences": {},
					"object": "60806040526040518060600160405280602281526020016200349960229139600b908051906020019062000035929190620001db565b503480156200004357600080fd5b50604051620034bb380380620034bb833981810160405281019062000069919062000309565b620000816301ffc9a760e01b6200010360201b60201c565b816006908051906020019062000099929190620001db565b508060079080519060200190620000b2929190620001db565b50620000cb6380ac58cd60e01b6200010360201b60201c565b620000e3635b5e139f60e01b6200010360201b60201c565b620000fb63780e9d6360e01b6200010360201b60201c565b505062000595565b63ffffffff60e01b817bffffffffffffffffffffffffffffffffffffffffffffffffffffffff191614156200016f576040517f08c379a00000000000000000000000000000000000000000000000000000000081526004016200016690620003b5565b60405180910390fd5b6001600080837bffffffffffffffffffffffffffffffffffffffffffffffffffffffff19167bffffffffffffffffffffffffffffffffffffffffffffffffffffffff1916815260200190815260200160002060006101000a81548160ff02191690831515021790555050565b828054620001e9906200047d565b90600052602060002090601f0160209004810192826200020d576000855562000259565b82601f106200022857805160ff191683800117855562000259565b8280016001018555821562000259579182015b82811115620002585782518255916020019190600101906200023b565b5b5090506200026891906200026c565b5090565b5b80821115620002875760008160009055506001016200026d565b5090565b6000620002a26200029c8462000400565b620003d7565b905082815260208101848484011115620002c157620002c06200054c565b5b620002ce84828562000447565b509392505050565b600082601f830112620002ee57620002ed62000547565b5b8151620003008482602086016200028b565b91505092915050565b6000806040838503121562000323576200032262000556565b5b600083015167ffffffffffffffff81111562000344576200034362000551565b5b6200035285828601620002d6565b925050602083015167ffffffffffffffff81111562000376576200037562000551565b5b6200038485828601620002d6565b9150509250929050565b60006200039d601c8362000436565b9150620003aa826200056c565b602082019050919050565b60006020820190508181036000830152620003d0816200038e565b9050919050565b6000620003e3620003f6565b9050620003f18282620004b3565b919050565b6000604051905090565b600067ffffffffffffffff8211156200041e576200041d62000518565b5b62000429826200055b565b9050602081019050919050565b600082825260208201905092915050565b60005b83811015620004675780820151818401526020810190506200044a565b8381111562000477576000848401525b50505050565b600060028204905060018216806200049657607f821691505b60208210811415620004ad57620004ac620004e9565b5b50919050565b620004be826200055b565b810181811067ffffffffffffffff82111715620004e057620004df62000518565b5b80604052505050565b7f4e487b7100000000000000000000000000000000000000000000000000000000600052602260045260246000fd5b7f4e487b7100000000000000000000000000000000000000000000000000000000600052604160045260246000fd5b600080fd5b600080fd5b600080fd5b600080fd5b6000601f19601f8301169050919050565b7f4552433136353a20696e76616c696420696e7465726661636520696400000000600082015250565b612ef480620005a56000396000f3fe608060405234801561001057600080fd5b50600436106101215760003560e01c80636352211e116100ad578063b88d4fde11610071578063b88d4fde1461032e578063c57dc2351461034a578063c87b56dd1461037a578063d48e638a146103aa578063e985e9c5146103da57610121565b80636352211e146102765780636c0360eb146102a657806370a08231146102c457806395d89b41146102f4578063a22cb4651461031257610121565b806318160ddd116100f457806318160ddd146101c057806323b872dd146101de5780632f745c59146101fa57806342842e0e1461022a5780634f6ccce71461024657610121565b806301ffc9a71461012657806306fdde0314610156578063081812fc14610174578063095ea7b3146101a4575b600080fd5b610140600480360381019061013b9190611ef1565b61040a565b60405161014d9190612337565b60405180910390f35b61015e610471565b60405161016b9190612352565b60405180910390f35b61018e60048036038101906101899190611f4b565b610503565b60405161019b91906122d0565b60405180910390f35b6101be60048036038101906101b99190611eb1565b610588565b005b6101c86106a0565b6040516101d59190612554565b60405180910390f35b6101f860048036038101906101f39190611d9b565b6106b1565b005b610214600480360381019061020f9190611eb1565b610711565b6040516102219190612554565b60405180910390f35b610244600480360381019061023f9190611d9b565b61076c565b005b610260600480360381019061025b9190611f4b565b61078c565b60405161026d9190612554565b60405180910390f35b610290600480360381019061028b9190611f4b565b6107af565b60405161029d91906122d0565b60405180910390f35b6102ae6107e6565b6040516102bb9190612352565b60405180910390f35b6102de60048036038101906102d99190611d2e565b610878565b6040516102eb9190612554565b60405180910390f35b6102fc610937565b6040516103099190612352565b60405180910390f35b61032c60048036038101906103279190611e71565b6109c9565b005b61034860048036038101906103439190611dee565b610b4a565b005b610364600480360381019061035f9190611f4b565b610bac565b6040516103719190612554565b60405180910390f35b610394600480360381019061038f9190611f4b565b610bc9565b6040516103a19190612352565b60405180910390f35b6103c460048036038101906103bf9190611f4b565b610d3c565b6040516103d191906122d0565b60405180910390f35b6103f460048036038101906103ef9190611d5b565b610d79565b6040516104019190612337565b60405180910390f35b6000806000837bffffffffffffffffffffffffffffffffffffffffffffffffffffffff19167bffffffffffffffffffffffffffffffffffffffffffffffffffffffff1916815260200190815260200160002060009054906101000a900460ff169050919050565b60606006805461048090612796565b80601f01602080910402602001604051908101604052809291908181526020018280546104ac90612796565b80156104f95780601f106104ce576101008083540402835291602001916104f9565b820191906000526020600020905b8154815290600101906020018083116104dc57829003601f168201915b5050505050905090565b600061050e82610e0d565b61054d576040517f08c379a000000000000000000000000000000000000000000000000000000000815260040161054490612494565b60405180910390fd5b6004600083815260200190815260200160002060009054906101000a900473ffffffffffffffffffffffffffffffffffffffff169050919050565b6000610593826107af565b90508073ffffffffffffffffffffffffffffffffffffffff168373ffffffffffffffffffffffffffffffffffffffff161415610604576040517f08c379a00000000000000000000000000000000000000000000000000000000081526004016105fb906124f4565b60405180910390fd5b8073ffffffffffffffffffffffffffffffffffffffff16610623610e2a565b73ffffffffffffffffffffffffffffffffffffffff16148061065257506106518161064c610e2a565b610d79565b5b610691576040517f08c379a000000000000000000000000000000000000000000000000000000000815260040161068890612434565b60405180910390fd5b61069b8383610e32565b505050565b60006106ac6002610eeb565b905090565b6106c26106bc610e2a565b82610f00565b610701576040517f08c379a00000000000000000000000000000000000000000000000000000000081526004016106f890612514565b60405180910390fd5b61070c838383610fde565b505050565b600061076482600160008673ffffffffffffffffffffffffffffffffffffffff1673ffffffffffffffffffffffffffffffffffffffff1681526020019081526020016000206111f390919063ffffffff16565b905092915050565b61078783838360405180602001604052806000815250610b4a565b505050565b6000806107a383600261120d90919063ffffffff16565b50905080915050919050565b60006107df82604051806060016040528060298152602001612e966029913960026112399092919063ffffffff16565b9050919050565b6060600b80546107f590612796565b80601f016020809104026020016040519081016040528092919081815260200182805461082190612796565b801561086e5780601f106108435761010080835404028352916020019161086e565b820191906000526020600020905b81548152906001019060200180831161085157829003601f168201915b5050505050905090565b60008073ffffffffffffffffffffffffffffffffffffffff168273ffffffffffffffffffffffffffffffffffffffff1614156108e9576040517f08c379a00000000000000000000000000000000000000000000000000000000081526004016108e090612454565b60405180910390fd5b610930600160008473ffffffffffffffffffffffffffffffffffffffff1673ffffffffffffffffffffffffffffffffffffffff168152602001908152602001600020611258565b9050919050565b60606007805461094690612796565b80601f016020809104026020016040519081016040528092919081815260200182805461097290612796565b80156109bf5780601f10610994576101008083540402835291602001916109bf565b820191906000526020600020905b8154815290600101906020018083116109a257829003601f168201915b5050505050905090565b6109d1610e2a565b73ffffffffffffffffffffffffffffffffffffffff168273ffffffffffffffffffffffffffffffffffffffff161415610a3f576040517f08c379a0000000000000000000000000000000000000000000000000000000008152600401610a36906123d4565b60405180910390fd5b8060056000610a4c610e2a565b73ffffffffffffffffffffffffffffffffffffffff1673ffffffffffffffffffffffffffffffffffffffff16815260200190815260200160002060008473ffffffffffffffffffffffffffffffffffffffff1673ffffffffffffffffffffffffffffffffffffffff16815260200190815260200160002060006101000a81548160ff0219169083151502179055508173ffffffffffffffffffffffffffffffffffffffff16610af9610e2a565b73ffffffffffffffffffffffffffffffffffffffff167f17307eab39ab6107e8899845ad3d59bd9653f200f220920489ca2b5937696c3183604051610b3e9190612337565b60405180910390a35050565b610b5b610b55610e2a565b83610f00565b610b9a576040517f08c379a0000000000000000000000000000000000000000000000000000000008152600401610b9190612514565b60405180910390fd5b610ba68484848461126d565b50505050565b600060096000838152602001908152602001600020549050919050565b6060610bd482610e0d565b610c13576040517f08c379a0000000000000000000000000000000000000000000000000000000008152600401610c0a906124d4565b60405180910390fd5b6000600860008481526020019081526020016000208054610c3390612796565b80601f0160208091040260200160405190810160405280929190818152602001828054610c5f90612796565b8015610cac5780601f10610c8157610100808354040283529160200191610cac565b820191906000526020600020905b815481529060010190602001808311610c8f57829003601f168201915b505050505090506000610cbd6107e6565b9050600081511415610cd3578192505050610d37565b600082511115610d08578082604051602001610cf09291906122ac565b60405160208183030381529060405292505050610d37565b80610d12856112c9565b604051602001610d239291906122ac565b604051602081830303815290604052925050505b919050565b6000600a600083815260200190815260200160002060009054906101000a900473ffffffffffffffffffffffffffffffffffffffff169050919050565b6000600560008473ffffffffffffffffffffffffffffffffffffffff1673ffffffffffffffffffffffffffffffffffffffff16815260200190815260200160002060008373ffffffffffffffffffffffffffffffffffffffff1673ffffffffffffffffffffffffffffffffffffffff16815260200190815260200160002060009054906101000a900460ff16905092915050565b6000610e2382600261142a90919063ffffffff16565b9050919050565b600033905090565b816004600083815260200190815260200160002060006101000a81548173ffffffffffffffffffffffffffffffffffffffff021916908373ffffffffffffffffffffffffffffffffffffffff160217905550808273ffffffffffffffffffffffffffffffffffffffff16610ea5836107af565b73ffffffffffffffffffffffffffffffffffffffff167f8c5be1e5ebec7d5bd14f71427d1e84f3dd0314c0f7b2291e5b200ac8c7c3b92560405160405180910390a45050565b6000610ef982600001611444565b9050919050565b6000610f0b82610e0d565b610f4a576040517f08c379a0000000000000000000000000000000000000000000000000000000008152600401610f4190612414565b60405180910390fd5b6000610f55836107af565b90508073ffffffffffffffffffffffffffffffffffffffff168473ffffffffffffffffffffffffffffffffffffffff161480610fc457508373ffffffffffffffffffffffffffffffffffffffff16610fac84610503565b73ffffffffffffffffffffffffffffffffffffffff16145b80610fd55750610fd48185610d79565b5b91505092915050565b8273ffffffffffffffffffffffffffffffffffffffff16610ffe826107af565b73ffffffffffffffffffffffffffffffffffffffff1614611054576040517f08c379a000000000000000000000000000000000000000000000000000000000815260040161104b906124b4565b60405180910390fd5b600073ffffffffffffffffffffffffffffffffffffffff168273ffffffffffffffffffffffffffffffffffffffff1614156110c4576040517f08c379a00000000000000000000000000000000000000000000000000000000081526004016110bb906123b4565b60405180910390fd5b6110cf838383611455565b6110da600082610e32565b61112b81600160008673ffffffffffffffffffffffffffffffffffffffff1673ffffffffffffffffffffffffffffffffffffffff16815260200190815260200160002061145a90919063ffffffff16565b61117c81600160008573ffffffffffffffffffffffffffffffffffffffff1673ffffffffffffffffffffffffffffffffffffffff16815260200190815260200160002061146f90919063ffffffff16565b611192818360026114849092919063ffffffff16565b50808273ffffffffffffffffffffffffffffffffffffffff168473ffffffffffffffffffffffffffffffffffffffff167fddf252ad1be2c89b69c2b068fc378daa952ba7f163c4a11628f55a4df523b3ef60405160405180910390a4505050565b600061120283600001836114b9565b60001c905092915050565b600080600080611220866000018661152d565b915091508160001c8160001c9350935050509250929050565b600061124c846000018460001b846115b7565b60001c90509392505050565b600061126682600001611658565b9050919050565b611278848484610fde565b61128484848484611669565b6112c3576040517f08c379a00000000000000000000000000000000000000000000000000000000081526004016112ba90612394565b60405180910390fd5b50505050565b60606000821415611311576040518060400160405280600181526020017f30000000000000000000000000000000000000000000000000000000000000008152509050611425565b600082905060005b6000821461134357808061132c906127f9565b915050600a8261133c9190612669565b9150611319565b60008167ffffffffffffffff81111561135f5761135e61295e565b5b6040519080825280601f01601f1916602001820160405280156113915781602001600182028036833780820191505090505b5090505b6000851461141e576001826113aa919061269a565b9150600a856113b99190612842565b60306113c59190612613565b60f81b8183815181106113db576113da61292f565b5b60200101907effffffffffffffffffffffffffffffffffffffffffffffffffffffffffffff1916908160001a905350600a856114179190612669565b9450611395565b8093505050505b919050565b600061143c836000018360001b6117cd565b905092915050565b600081600001805490509050919050565b505050565b61146a826000018260001b6117f0565b505050565b61147f826000018260001b611908565b505050565b60006114b0846000018460001b8473ffffffffffffffffffffffffffffffffffffffff1660001b611978565b90509392505050565b600081836000018054905011611504576040517f08c379a00000000000000000000000000000000000000000000000000000000081526004016114fb90612374565b60405180910390fd5b82600001828154811061151a5761151961292f565b5b9060005260206000200154905092915050565b60008082846000018054905011611579576040517f08c379a000000000000000000000000000000000000000000000000000000000815260040161157090612474565b60405180910390fd5b60008460000184815481106115915761159061292f565b5b906000526020600020906002020190508060000154816001015492509250509250929050565b60008084600101600085815260200190815260200160002054905060008114158390611619576040517f08c379a00000000000000000000000000000000000000000000000000000000081526004016116109190612352565b60405180910390fd5b508460000160018261162b919061269a565b8154811061163c5761163b61292f565b5b9060005260206000209060020201600101549150509392505050565b600081600001805490509050919050565b600061168a8473ffffffffffffffffffffffffffffffffffffffff16611a64565b61169757600190506117c5565b600061175e63150b7a0260e01b6116ac610e2a565b8887876040516024016116c294939291906122eb565b604051602081830303815290604052907bffffffffffffffffffffffffffffffffffffffffffffffffffffffff19166020820180517bffffffffffffffffffffffffffffffffffffffffffffffffffffffff8381831617835250505050604051806060016040528060328152602001612e64603291398773ffffffffffffffffffffffffffffffffffffffff16611a879092919063ffffffff16565b90506000818060200190518101906117769190611f1e565b905063150b7a0260e01b7bffffffffffffffffffffffffffffffffffffffffffffffffffffffff1916817bffffffffffffffffffffffffffffffffffffffffffffffffffffffff191614925050505b949350505050565b600080836001016000848152602001908152602001600020541415905092915050565b600080836001016000848152602001908152602001600020549050600081146118fc576000600182611822919061269a565b905060006001866000018054905061183a919061269a565b905060008660000182815481106118545761185361292f565b5b90600052602060002001549050808760000184815481106118785761187761292f565b5b90600052602060002001819055506001836118939190612613565b87600101600083815260200190815260200160002081905550866000018054806118c0576118bf612900565b5b60019003818190600052602060002001600090559055866001016000878152602001908152602001600020600090556001945050505050611902565b60009150505b92915050565b60006119148383611a9f565b61196d578260000182908060018154018082558091505060019003906000526020600020016000909190919091505582600001805490508360010160008481526020019081526020016000208190555060019050611972565b600090505b92915050565b6000808460010160008581526020019081526020016000205490506000811415611a1f57846000016040518060400160405280868152602001858152509080600181540180825580915050600190039060005260206000209060020201600090919091909150600082015181600001556020820151816001015550508460000180549050856001016000868152602001908152602001600020819055506001915050611a5d565b8285600001600183611a31919061269a565b81548110611a4257611a4161292f565b5b90600052602060002090600202016001018190555060009150505b9392505050565b6000808273ffffffffffffffffffffffffffffffffffffffff163b119050919050565b6060611a968484600085611ac2565b90509392505050565b600080836001016000848152602001908152602001600020541415905092915050565b606082471015611b07576040517f08c379a0000000000000000000000000000000000000000000000000000000008152600401611afe906123f4565b60405180910390fd5b6000808673ffffffffffffffffffffffffffffffffffffffff168587604051611b309190612295565b60006040518083038185875af1925050503d8060008114611b6d576040519150601f19603f3d011682016040523d82523d6000602084013e611b72565b606091505b5091509150611b8387838387611b8f565b92505050949350505050565b60608315611bf257600083511415611bea57611baa85611a64565b611be9576040517f08c379a0000000000000000000000000000000000000000000000000000000008152600401611be090612534565b60405180910390fd5b5b829050611bfd565b611bfc8383611c05565b5b949350505050565b600082511115611c185781518083602001fd5b806040517f08c379a0000000000000000000000000000000000000000000000000000000008152600401611c4c9190612352565b60405180910390fd5b6000611c68611c6384612594565b61256f565b905082815260208101848484011115611c8457611c83612992565b5b611c8f848285612754565b509392505050565b600081359050611ca681612e07565b92915050565b600081359050611cbb81612e1e565b92915050565b600081359050611cd081612e35565b92915050565b600081519050611ce581612e35565b92915050565b600082601f830112611d0057611cff61298d565b5b8135611d10848260208601611c55565b91505092915050565b600081359050611d2881612e4c565b92915050565b600060208284031215611d4457611d4361299c565b5b6000611d5284828501611c97565b91505092915050565b60008060408385031215611d7257611d7161299c565b5b6000611d8085828601611c97565b9250506020611d9185828601611c97565b9150509250929050565b600080600060608486031215611db457611db361299c565b5b6000611dc286828701611c97565b9350506020611dd386828701611c97565b9250506040611de486828701611d19565b9150509250925092565b60008060008060808587031215611e0857611e0761299c565b5b6000611e1687828801611c97565b9450506020611e2787828801611c97565b9350506040611e3887828801611d19565b925050606085013567ffffffffffffffff811115611e5957611e58612997565b5b611e6587828801611ceb565b91505092959194509250565b60008060408385031215611e8857611e8761299c565b5b6000611e9685828601611c97565b9250506020611ea785828601611cac565b9150509250929050565b60008060408385031215611ec857611ec761299c565b5b6000611ed685828601611c97565b9250506020611ee785828601611d19565b9150509250929050565b600060208284031215611f0757611f0661299c565b5b6000611f1584828501611cc1565b91505092915050565b600060208284031215611f3457611f3361299c565b5b6000611f4284828501611cd6565b91505092915050565b600060208284031215611f6157611f6061299c565b5b6000611f6f84828501611d19565b91505092915050565b611f81816126e0565b82525050565b611f90816126ce565b82525050565b611f9f816126f2565b82525050565b6000611fb0826125c5565b611fba81856125db565b9350611fca818560208601612763565b611fd3816129a1565b840191505092915050565b6000611fe9826125c5565b611ff381856125ec565b9350612003818560208601612763565b80840191505092915050565b600061201a826125d0565b61202481856125f7565b9350612034818560208601612763565b61203d816129a1565b840191505092915050565b6000612053826125d0565b61205d8185612608565b935061206d818560208601612763565b80840191505092915050565b60006120866022836125f7565b9150612091826129b2565b604082019050919050565b60006120a96032836125f7565b91506120b482612a01565b604082019050919050565b60006120cc6024836125f7565b91506120d782612a50565b604082019050919050565b60006120ef6019836125f7565b91506120fa82612a9f565b602082019050919050565b60006121126026836125f7565b915061211d82612ac8565b604082019050919050565b6000612135602c836125f7565b915061214082612b17565b604082019050919050565b60006121586038836125f7565b915061216382612b66565b604082019050919050565b600061217b602a836125f7565b915061218682612bb5565b604082019050919050565b600061219e6022836125f7565b91506121a982612c04565b604082019050919050565b60006121c1602c836125f7565b91506121cc82612c53565b604082019050919050565b60006121e46029836125f7565b91506121ef82612ca2565b604082019050919050565b6000612207602f836125f7565b915061221282612cf1565b604082019050919050565b600061222a6021836125f7565b915061223582612d40565b604082019050919050565b600061224d6031836125f7565b915061225882612d8f565b604082019050919050565b6000612270601d836125f7565b915061227b82612dde565b602082019050919050565b61228f8161274a565b82525050565b60006122a18284611fde565b915081905092915050565b60006122b88285612048565b91506122c48284612048565b91508190509392505050565b60006020820190506122e56000830184611f87565b92915050565b60006080820190506123006000830187611f78565b61230d6020830186611f87565b61231a6040830185612286565b818103606083015261232c8184611fa5565b905095945050505050565b600060208201905061234c6000830184611f96565b92915050565b6000602082019050818103600083015261236c818461200f565b905092915050565b6000602082019050818103600083015261238d81612079565b9050919050565b600060208201905081810360008301526123ad8161209c565b9050919050565b600060208201905081810360008301526123cd816120bf565b9050919050565b600060208201905081810360008301526123ed816120e2565b9050919050565b6000602082019050818103600083015261240d81612105565b9050919050565b6000602082019050818103600083015261242d81612128565b9050919050565b6000602082019050818103600083015261244d8161214b565b9050919050565b6000602082019050818103600083015261246d8161216e565b9050919050565b6000602082019050818103600083015261248d81612191565b9050919050565b600060208201905081810360008301526124ad816121b4565b9050919050565b600060208201905081810360008301526124cd816121d7565b9050919050565b600060208201905081810360008301526124ed816121fa565b9050919050565b6000602082019050818103600083015261250d8161221d565b9050919050565b6000602082019050818103600083015261252d81612240565b9050919050565b6000602082019050818103600083015261254d81612263565b9050919050565b60006020820190506125696000830184612286565b92915050565b600061257961258a565b905061258582826127c8565b919050565b6000604051905090565b600067ffffffffffffffff8211156125af576125ae61295e565b5b6125b8826129a1565b9050602081019050919050565b600081519050919050565b600081519050919050565b600082825260208201905092915050565b600081905092915050565b600082825260208201905092915050565b600081905092915050565b600061261e8261274a565b91506126298361274a565b9250827fffffffffffffffffffffffffffffffffffffffffffffffffffffffffffffffff0382111561265e5761265d612873565b5b828201905092915050565b60006126748261274a565b915061267f8361274a565b92508261268f5761268e6128a2565b5b828204905092915050565b60006126a58261274a565b91506126b08361274a565b9250828210156126c3576126c2612873565b5b828203905092915050565b60006126d98261272a565b9050919050565b60006126eb8261272a565b9050919050565b60008115159050919050565b60007fffffffff0000000000000000000000000000000000000000000000000000000082169050919050565b600073ffffffffffffffffffffffffffffffffffffffff82169050919050565b6000819050919050565b82818337600083830152505050565b60005b83811015612781578082015181840152602081019050612766565b83811115612790576000848401525b50505050565b600060028204905060018216806127ae57607f821691505b602082108114156127c2576127c16128d1565b5b50919050565b6127d1826129a1565b810181811067ffffffffffffffff821117156127f0576127ef61295e565b5b80604052505050565b60006128048261274a565b91507fffffffffffffffffffffffffffffffffffffffffffffffffffffffffffffffff82141561283757612836612873565b5b600182019050919050565b600061284d8261274a565b91506128588361274a565b925082612868576128676128a2565b5b828206905092915050565b7f4e487b7100000000000000000000000000000000000000000000000000000000600052601160045260246000fd5b7f4e487b7100000000000000000000000000000000000000000000000000000000600052601260045260246000fd5b7f4e487b7100000000000000000000000000000000000000000000000000000000600052602260045260246000fd5b7f4e487b7100000000000000000000000000000000000000000000000000000000600052603160045260246000fd5b7f4e487b7100000000000000000000000000000000000000000000000000000000600052603260045260246000fd5b7f4e487b7100000000000000000000000000000000000000000000000000000000600052604160045260246000fd5b600080fd5b600080fd5b600080fd5b600080fd5b6000601f19601f8301169050919050565b7f456e756d657261626c655365743a20696e646578206f7574206f6620626f756e60008201527f6473000000000000000000000000000000000000000000000000000000000000602082015250565b7f4552433732313a207472616e7366657220746f206e6f6e20455243373231526560008201527f63656976657220696d706c656d656e7465720000000000000000000000000000602082015250565b7f4552433732313a207472616e7366657220746f20746865207a65726f2061646460008201527f7265737300000000000000000000000000000000000000000000000000000000602082015250565b7f4552433732313a20617070726f766520746f2063616c6c657200000000000000600082015250565b7f416464726573733a20696e73756666696369656e742062616c616e636520666f60008201527f722063616c6c0000000000000000000000000000000000000000000000000000602082015250565b7f4552433732313a206f70657261746f7220717565727920666f72206e6f6e657860008201527f697374656e7420746f6b656e0000000000000000000000000000000000000000602082015250565b7f4552433732313a20617070726f76652063616c6c6572206973206e6f74206f7760008201527f6e6572206e6f7220617070726f76656420666f7220616c6c0000000000000000602082015250565b7f4552433732313a2062616c616e636520717565727920666f7220746865207a6560008201527f726f206164647265737300000000000000000000000000000000000000000000602082015250565b7f456e756d657261626c654d61703a20696e646578206f7574206f6620626f756e60008201527f6473000000000000000000000000000000000000000000000000000000000000602082015250565b7f4552433732313a20617070726f76656420717565727920666f72206e6f6e657860008201527f697374656e7420746f6b656e0000000000000000000000000000000000000000602082015250565b7f4552433732313a207472616e73666572206f6620746f6b656e2074686174206960008201527f73206e6f74206f776e0000000000000000000000000000000000000000000000602082015250565b7f4552433732314d657461646174613a2055524920717565727920666f72206e6f60008201527f6e6578697374656e7420746f6b656e0000000000000000000000000000000000602082015250565b7f4552433732313a20617070726f76616c20746f2063757272656e74206f776e6560008201527f7200000000000000000000000000000000000000000000000000000000000000602082015250565b7f4552433732313a207472616e736665722063616c6c6572206973206e6f74206f60008201527f776e6572206e6f7220617070726f766564000000000000000000000000000000602082015250565b7f416464726573733a2063616c6c20746f206e6f6e2d636f6e7472616374000000600082015250565b612e10816126ce565b8114612e1b57600080fd5b50565b612e27816126f2565b8114612e3257600080fd5b50565b612e3e816126fe565b8114612e4957600080fd5b50565b612e558161274a565b8114612e6057600080fd5b5056fe4552433732313a207472616e7366657220746f206e6f6e20455243373231526563656976657220696d706c656d656e7465724552433732313a206f776e657220717565727920666f72206e6f6e6578697374656e7420746f6b656ea264697066735822122037569f1f4fe5e5060b2e610d7131798dcd07387636bca7cdb0f8004e2b7ef2f464736f6c6343000807003368747470733a2f2f676174657761792e70696e6174612e636c6f75642f697066732f",
					"opcodes": "PUSH1 0x80 PUSH1 0x40 MSTORE PUSH1 0x40 MLOAD DUP1 PUSH1 0x60 ADD PUSH1 0x40 MSTORE DUP1 PUSH1 0x22 DUP2 MSTORE PUSH1 0x20 ADD PUSH3 0x3499 PUSH1 0x22 SWAP2 CODECOPY PUSH1 0xB SWAP1 DUP1 MLOAD SWAP1 PUSH1 0x20 ADD SWAP1 PUSH3 0x35 SWAP3 SWAP2 SWAP1 PUSH3 0x1DB JUMP JUMPDEST POP CALLVALUE DUP1 ISZERO PUSH3 0x43 JUMPI PUSH1 0x0 DUP1 REVERT JUMPDEST POP PUSH1 0x40 MLOAD PUSH3 0x34BB CODESIZE SUB DUP1 PUSH3 0x34BB DUP4 CODECOPY DUP2 DUP2 ADD PUSH1 0x40 MSTORE DUP2 ADD SWAP1 PUSH3 0x69 SWAP2 SWAP1 PUSH3 0x309 JUMP JUMPDEST PUSH3 0x81 PUSH4 0x1FFC9A7 PUSH1 0xE0 SHL PUSH3 0x103 PUSH1 0x20 SHL PUSH1 0x20 SHR JUMP JUMPDEST DUP2 PUSH1 0x6 SWAP1 DUP1 MLOAD SWAP1 PUSH1 0x20 ADD SWAP1 PUSH3 0x99 SWAP3 SWAP2 SWAP1 PUSH3 0x1DB JUMP JUMPDEST POP DUP1 PUSH1 0x7 SWAP1 DUP1 MLOAD SWAP1 PUSH1 0x20 ADD SWAP1 PUSH3 0xB2 SWAP3 SWAP2 SWAP1 PUSH3 0x1DB JUMP JUMPDEST POP PUSH3 0xCB PUSH4 0x80AC58CD PUSH1 0xE0 SHL PUSH3 0x103 PUSH1 0x20 SHL PUSH1 0x20 SHR JUMP JUMPDEST PUSH3 0xE3 PUSH4 0x5B5E139F PUSH1 0xE0 SHL PUSH3 0x103 PUSH1 0x20 SHL PUSH1 0x20 SHR JUMP JUMPDEST PUSH3 0xFB PUSH4 0x780E9D63 PUSH1 0xE0 SHL PUSH3 0x103 PUSH1 0x20 SHL PUSH1 0x20 SHR JUMP JUMPDEST POP POP PUSH3 0x595 JUMP JUMPDEST PUSH4 0xFFFFFFFF PUSH1 0xE0 SHL DUP2 PUSH28 0xFFFFFFFFFFFFFFFFFFFFFFFFFFFFFFFFFFFFFFFFFFFFFFFFFFFFFFFF NOT AND EQ ISZERO PUSH3 0x16F JUMPI PUSH1 0x40 MLOAD PUSH32 0x8C379A000000000000000000000000000000000000000000000000000000000 DUP2 MSTORE PUSH1 0x4 ADD PUSH3 0x166 SWAP1 PUSH3 0x3B5 JUMP JUMPDEST PUSH1 0x40 MLOAD DUP1 SWAP2 SUB SWAP1 REVERT JUMPDEST PUSH1 0x1 PUSH1 0x0 DUP1 DUP4 PUSH28 0xFFFFFFFFFFFFFFFFFFFFFFFFFFFFFFFFFFFFFFFFFFFFFFFFFFFFFFFF NOT AND PUSH28 0xFFFFFFFFFFFFFFFFFFFFFFFFFFFFFFFFFFFFFFFFFFFFFFFFFFFFFFFF NOT AND DUP2 MSTORE PUSH1 0x20 ADD SWAP1 DUP2 MSTORE PUSH1 0x20 ADD PUSH1 0x0 KECCAK256 PUSH1 0x0 PUSH2 0x100 EXP DUP2 SLOAD DUP2 PUSH1 0xFF MUL NOT AND SWAP1 DUP4 ISZERO ISZERO MUL OR SWAP1 SSTORE POP POP JUMP JUMPDEST DUP3 DUP1 SLOAD PUSH3 0x1E9 SWAP1 PUSH3 0x47D JUMP JUMPDEST SWAP1 PUSH1 0x0 MSTORE PUSH1 0x20 PUSH1 0x0 KECCAK256 SWAP1 PUSH1 0x1F ADD PUSH1 0x20 SWAP1 DIV DUP2 ADD SWAP3 DUP3 PUSH3 0x20D JUMPI PUSH1 0x0 DUP6 SSTORE PUSH3 0x259 JUMP JUMPDEST DUP3 PUSH1 0x1F LT PUSH3 0x228 JUMPI DUP1 MLOAD PUSH1 0xFF NOT AND DUP4 DUP1 ADD OR DUP6 SSTORE PUSH3 0x259 JUMP JUMPDEST DUP3 DUP1 ADD PUSH1 0x1 ADD DUP6 SSTORE DUP3 ISZERO PUSH3 0x259 JUMPI SWAP2 DUP3 ADD JUMPDEST DUP3 DUP2 GT ISZERO PUSH3 0x258 JUMPI DUP3 MLOAD DUP3 SSTORE SWAP2 PUSH1 0x20 ADD SWAP2 SWAP1 PUSH1 0x1 ADD SWAP1 PUSH3 0x23B JUMP JUMPDEST JUMPDEST POP SWAP1 POP PUSH3 0x268 SWAP2 SWAP1 PUSH3 0x26C JUMP JUMPDEST POP SWAP1 JUMP JUMPDEST JUMPDEST DUP1 DUP3 GT ISZERO PUSH3 0x287 JUMPI PUSH1 0x0 DUP2 PUSH1 0x0 SWAP1 SSTORE POP PUSH1 0x1 ADD PUSH3 0x26D JUMP JUMPDEST POP SWAP1 JUMP JUMPDEST PUSH1 0x0 PUSH3 0x2A2 PUSH3 0x29C DUP5 PUSH3 0x400 JUMP JUMPDEST PUSH3 0x3D7 JUMP JUMPDEST SWAP1 POP DUP3 DUP2 MSTORE PUSH1 0x20 DUP2 ADD DUP5 DUP5 DUP5 ADD GT ISZERO PUSH3 0x2C1 JUMPI PUSH3 0x2C0 PUSH3 0x54C JUMP JUMPDEST JUMPDEST PUSH3 0x2CE DUP5 DUP3 DUP6 PUSH3 0x447 JUMP JUMPDEST POP SWAP4 SWAP3 POP POP POP JUMP JUMPDEST PUSH1 0x0 DUP3 PUSH1 0x1F DUP4 ADD SLT PUSH3 0x2EE JUMPI PUSH3 0x2ED PUSH3 0x547 JUMP JUMPDEST JUMPDEST DUP2 MLOAD PUSH3 0x300 DUP5 DUP3 PUSH1 0x20 DUP7 ADD PUSH3 0x28B JUMP JUMPDEST SWAP2 POP POP SWAP3 SWAP2 POP POP JUMP JUMPDEST PUSH1 0x0 DUP1 PUSH1 0x40 DUP4 DUP6 SUB SLT ISZERO PUSH3 0x323 JUMPI PUSH3 0x322 PUSH3 0x556 JUMP JUMPDEST JUMPDEST PUSH1 0x0 DUP4 ADD MLOAD PUSH8 0xFFFFFFFFFFFFFFFF DUP2 GT ISZERO PUSH3 0x344 JUMPI PUSH3 0x343 PUSH3 0x551 JUMP JUMPDEST JUMPDEST PUSH3 0x352 DUP6 DUP3 DUP7 ADD PUSH3 0x2D6 JUMP JUMPDEST SWAP3 POP POP PUSH1 0x20 DUP4 ADD MLOAD PUSH8 0xFFFFFFFFFFFFFFFF DUP2 GT ISZERO PUSH3 0x376 JUMPI PUSH3 0x375 PUSH3 0x551 JUMP JUMPDEST JUMPDEST PUSH3 0x384 DUP6 DUP3 DUP7 ADD PUSH3 0x2D6 JUMP JUMPDEST SWAP2 POP POP SWAP3 POP SWAP3 SWAP1 POP JUMP JUMPDEST PUSH1 0x0 PUSH3 0x39D PUSH1 0x1C DUP4 PUSH3 0x436 JUMP JUMPDEST SWAP2 POP PUSH3 0x3AA DUP3 PUSH3 0x56C JUMP JUMPDEST PUSH1 0x20 DUP3 ADD SWAP1 POP SWAP2 SWAP1 POP JUMP JUMPDEST PUSH1 0x0 PUSH1 0x20 DUP3 ADD SWAP1 POP DUP2 DUP2 SUB PUSH1 0x0 DUP4 ADD MSTORE PUSH3 0x3D0 DUP2 PUSH3 0x38E JUMP JUMPDEST SWAP1 POP SWAP2 SWAP1 POP JUMP JUMPDEST PUSH1 0x0 PUSH3 0x3E3 PUSH3 0x3F6 JUMP JUMPDEST SWAP1 POP PUSH3 0x3F1 DUP3 DUP3 PUSH3 0x4B3 JUMP JUMPDEST SWAP2 SWAP1 POP JUMP JUMPDEST PUSH1 0x0 PUSH1 0x40 MLOAD SWAP1 POP SWAP1 JUMP JUMPDEST PUSH1 0x0 PUSH8 0xFFFFFFFFFFFFFFFF DUP3 GT ISZERO PUSH3 0x41E JUMPI PUSH3 0x41D PUSH3 0x518 JUMP JUMPDEST JUMPDEST PUSH3 0x429 DUP3 PUSH3 0x55B JUMP JUMPDEST SWAP1 POP PUSH1 0x20 DUP2 ADD SWAP1 POP SWAP2 SWAP1 POP JUMP JUMPDEST PUSH1 0x0 DUP3 DUP3 MSTORE PUSH1 0x20 DUP3 ADD SWAP1 POP SWAP3 SWAP2 POP POP JUMP JUMPDEST PUSH1 0x0 JUMPDEST DUP4 DUP2 LT ISZERO PUSH3 0x467 JUMPI DUP1 DUP3 ADD MLOAD DUP2 DUP5 ADD MSTORE PUSH1 0x20 DUP2 ADD SWAP1 POP PUSH3 0x44A JUMP JUMPDEST DUP4 DUP2 GT ISZERO PUSH3 0x477 JUMPI PUSH1 0x0 DUP5 DUP5 ADD MSTORE JUMPDEST POP POP POP POP JUMP JUMPDEST PUSH1 0x0 PUSH1 0x2 DUP3 DIV SWAP1 POP PUSH1 0x1 DUP3 AND DUP1 PUSH3 0x496 JUMPI PUSH1 0x7F DUP3 AND SWAP2 POP JUMPDEST PUSH1 0x20 DUP3 LT DUP2 EQ ISZERO PUSH3 0x4AD JUMPI PUSH3 0x4AC PUSH3 0x4E9 JUMP JUMPDEST JUMPDEST POP SWAP2 SWAP1 POP JUMP JUMPDEST PUSH3 0x4BE DUP3 PUSH3 0x55B JUMP JUMPDEST DUP2 ADD DUP2 DUP2 LT PUSH8 0xFFFFFFFFFFFFFFFF DUP3 GT OR ISZERO PUSH3 0x4E0 JUMPI PUSH3 0x4DF PUSH3 0x518 JUMP JUMPDEST JUMPDEST DUP1 PUSH1 0x40 MSTORE POP POP POP JUMP JUMPDEST PUSH32 0x4E487B7100000000000000000000000000000000000000000000000000000000 PUSH1 0x0 MSTORE PUSH1 0x22 PUSH1 0x4 MSTORE PUSH1 0x24 PUSH1 0x0 REVERT JUMPDEST PUSH32 0x4E487B7100000000000000000000000000000000000000000000000000000000 PUSH1 0x0 MSTORE PUSH1 0x41 PUSH1 0x4 MSTORE PUSH1 0x24 PUSH1 0x0 REVERT JUMPDEST PUSH1 0x0 DUP1 REVERT JUMPDEST PUSH1 0x0 DUP1 REVERT JUMPDEST PUSH1 0x0 DUP1 REVERT JUMPDEST PUSH1 0x0 DUP1 REVERT JUMPDEST PUSH1 0x0 PUSH1 0x1F NOT PUSH1 0x1F DUP4 ADD AND SWAP1 POP SWAP2 SWAP1 POP JUMP JUMPDEST PUSH32 0x4552433136353A20696E76616C696420696E7465726661636520696400000000 PUSH1 0x0 DUP3 ADD MSTORE POP JUMP JUMPDEST PUSH2 0x2EF4 DUP1 PUSH3 0x5A5 PUSH1 0x0 CODECOPY PUSH1 0x0 RETURN INVALID PUSH1 0x80 PUSH1 0x40 MSTORE CALLVALUE DUP1 ISZERO PUSH2 0x10 JUMPI PUSH1 0x0 DUP1 REVERT JUMPDEST POP PUSH1 0x4 CALLDATASIZE LT PUSH2 0x121 JUMPI PUSH1 0x0 CALLDATALOAD PUSH1 0xE0 SHR DUP1 PUSH4 0x6352211E GT PUSH2 0xAD JUMPI DUP1 PUSH4 0xB88D4FDE GT PUSH2 0x71 JUMPI DUP1 PUSH4 0xB88D4FDE EQ PUSH2 0x32E JUMPI DUP1 PUSH4 0xC57DC235 EQ PUSH2 0x34A JUMPI DUP1 PUSH4 0xC87B56DD EQ PUSH2 0x37A JUMPI DUP1 PUSH4 0xD48E638A EQ PUSH2 0x3AA JUMPI DUP1 PUSH4 0xE985E9C5 EQ PUSH2 0x3DA JUMPI PUSH2 0x121 JUMP JUMPDEST DUP1 PUSH4 0x6352211E EQ PUSH2 0x276 JUMPI DUP1 PUSH4 0x6C0360EB EQ PUSH2 0x2A6 JUMPI DUP1 PUSH4 0x70A08231 EQ PUSH2 0x2C4 JUMPI DUP1 PUSH4 0x95D89B41 EQ PUSH2 0x2F4 JUMPI DUP1 PUSH4 0xA22CB465 EQ PUSH2 0x312 JUMPI PUSH2 0x121 JUMP JUMPDEST DUP1 PUSH4 0x18160DDD GT PUSH2 0xF4 JUMPI DUP1 PUSH4 0x18160DDD EQ PUSH2 0x1C0 JUMPI DUP1 PUSH4 0x23B872DD EQ PUSH2 0x1DE JUMPI DUP1 PUSH4 0x2F745C59 EQ PUSH2 0x1FA JUMPI DUP1 PUSH4 0x42842E0E EQ PUSH2 0x22A JUMPI DUP1 PUSH4 0x4F6CCCE7 EQ PUSH2 0x246 JUMPI PUSH2 0x121 JUMP JUMPDEST DUP1 PUSH4 0x1FFC9A7 EQ PUSH2 0x126 JUMPI DUP1 PUSH4 0x6FDDE03 EQ PUSH2 0x156 JUMPI DUP1 PUSH4 0x81812FC EQ PUSH2 0x174 JUMPI DUP1 PUSH4 0x95EA7B3 EQ PUSH2 0x1A4 JUMPI JUMPDEST PUSH1 0x0 DUP1 REVERT JUMPDEST PUSH2 0x140 PUSH1 0x4 DUP1 CALLDATASIZE SUB DUP2 ADD SWAP1 PUSH2 0x13B SWAP2 SWAP1 PUSH2 0x1EF1 JUMP JUMPDEST PUSH2 0x40A JUMP JUMPDEST PUSH1 0x40 MLOAD PUSH2 0x14D SWAP2 SWAP1 PUSH2 0x2337 JUMP JUMPDEST PUSH1 0x40 MLOAD DUP1 SWAP2 SUB SWAP1 RETURN JUMPDEST PUSH2 0x15E PUSH2 0x471 JUMP JUMPDEST PUSH1 0x40 MLOAD PUSH2 0x16B SWAP2 SWAP1 PUSH2 0x2352 JUMP JUMPDEST PUSH1 0x40 MLOAD DUP1 SWAP2 SUB SWAP1 RETURN JUMPDEST PUSH2 0x18E PUSH1 0x4 DUP1 CALLDATASIZE SUB DUP2 ADD SWAP1 PUSH2 0x189 SWAP2 SWAP1 PUSH2 0x1F4B JUMP JUMPDEST PUSH2 0x503 JUMP JUMPDEST PUSH1 0x40 MLOAD PUSH2 0x19B SWAP2 SWAP1 PUSH2 0x22D0 JUMP JUMPDEST PUSH1 0x40 MLOAD DUP1 SWAP2 SUB SWAP1 RETURN JUMPDEST PUSH2 0x1BE PUSH1 0x4 DUP1 CALLDATASIZE SUB DUP2 ADD SWAP1 PUSH2 0x1B9 SWAP2 SWAP1 PUSH2 0x1EB1 JUMP JUMPDEST PUSH2 0x588 JUMP JUMPDEST STOP JUMPDEST PUSH2 0x1C8 PUSH2 0x6A0 JUMP JUMPDEST PUSH1 0x40 MLOAD PUSH2 0x1D5 SWAP2 SWAP1 PUSH2 0x2554 JUMP JUMPDEST PUSH1 0x40 MLOAD DUP1 SWAP2 SUB SWAP1 RETURN JUMPDEST PUSH2 0x1F8 PUSH1 0x4 DUP1 CALLDATASIZE SUB DUP2 ADD SWAP1 PUSH2 0x1F3 SWAP2 SWAP1 PUSH2 0x1D9B JUMP JUMPDEST PUSH2 0x6B1 JUMP JUMPDEST STOP JUMPDEST PUSH2 0x214 PUSH1 0x4 DUP1 CALLDATASIZE SUB DUP2 ADD SWAP1 PUSH2 0x20F SWAP2 SWAP1 PUSH2 0x1EB1 JUMP JUMPDEST PUSH2 0x711 JUMP JUMPDEST PUSH1 0x40 MLOAD PUSH2 0x221 SWAP2 SWAP1 PUSH2 0x2554 JUMP JUMPDEST PUSH1 0x40 MLOAD DUP1 SWAP2 SUB SWAP1 RETURN JUMPDEST PUSH2 0x244 PUSH1 0x4 DUP1 CALLDATASIZE SUB DUP2 ADD SWAP1 PUSH2 0x23F SWAP2 SWAP1 PUSH2 0x1D9B JUMP JUMPDEST PUSH2 0x76C JUMP JUMPDEST STOP JUMPDEST PUSH2 0x260 PUSH1 0x4 DUP1 CALLDATASIZE SUB DUP2 ADD SWAP1 PUSH2 0x25B SWAP2 SWAP1 PUSH2 0x1F4B JUMP JUMPDEST PUSH2 0x78C JUMP JUMPDEST PUSH1 0x40 MLOAD PUSH2 0x26D SWAP2 SWAP1 PUSH2 0x2554 JUMP JUMPDEST PUSH1 0x40 MLOAD DUP1 SWAP2 SUB SWAP1 RETURN JUMPDEST PUSH2 0x290 PUSH1 0x4 DUP1 CALLDATASIZE SUB DUP2 ADD SWAP1 PUSH2 0x28B SWAP2 SWAP1 PUSH2 0x1F4B JUMP JUMPDEST PUSH2 0x7AF JUMP JUMPDEST PUSH1 0x40 MLOAD PUSH2 0x29D SWAP2 SWAP1 PUSH2 0x22D0 JUMP JUMPDEST PUSH1 0x40 MLOAD DUP1 SWAP2 SUB SWAP1 RETURN JUMPDEST PUSH2 0x2AE PUSH2 0x7E6 JUMP JUMPDEST PUSH1 0x40 MLOAD PUSH2 0x2BB SWAP2 SWAP1 PUSH2 0x2352 JUMP JUMPDEST PUSH1 0x40 MLOAD DUP1 SWAP2 SUB SWAP1 RETURN JUMPDEST PUSH2 0x2DE PUSH1 0x4 DUP1 CALLDATASIZE SUB DUP2 ADD SWAP1 PUSH2 0x2D9 SWAP2 SWAP1 PUSH2 0x1D2E JUMP JUMPDEST PUSH2 0x878 JUMP JUMPDEST PUSH1 0x40 MLOAD PUSH2 0x2EB SWAP2 SWAP1 PUSH2 0x2554 JUMP JUMPDEST PUSH1 0x40 MLOAD DUP1 SWAP2 SUB SWAP1 RETURN JUMPDEST PUSH2 0x2FC PUSH2 0x937 JUMP JUMPDEST PUSH1 0x40 MLOAD PUSH2 0x309 SWAP2 SWAP1 PUSH2 0x2352 JUMP JUMPDEST PUSH1 0x40 MLOAD DUP1 SWAP2 SUB SWAP1 RETURN JUMPDEST PUSH2 0x32C PUSH1 0x4 DUP1 CALLDATASIZE SUB DUP2 ADD SWAP1 PUSH2 0x327 SWAP2 SWAP1 PUSH2 0x1E71 JUMP JUMPDEST PUSH2 0x9C9 JUMP JUMPDEST STOP JUMPDEST PUSH2 0x348 PUSH1 0x4 DUP1 CALLDATASIZE SUB DUP2 ADD SWAP1 PUSH2 0x343 SWAP2 SWAP1 PUSH2 0x1DEE JUMP JUMPDEST PUSH2 0xB4A JUMP JUMPDEST STOP JUMPDEST PUSH2 0x364 PUSH1 0x4 DUP1 CALLDATASIZE SUB DUP2 ADD SWAP1 PUSH2 0x35F SWAP2 SWAP1 PUSH2 0x1F4B JUMP JUMPDEST PUSH2 0xBAC JUMP JUMPDEST PUSH1 0x40 MLOAD PUSH2 0x371 SWAP2 SWAP1 PUSH2 0x2554 JUMP JUMPDEST PUSH1 0x40 MLOAD DUP1 SWAP2 SUB SWAP1 RETURN JUMPDEST PUSH2 0x394 PUSH1 0x4 DUP1 CALLDATASIZE SUB DUP2 ADD SWAP1 PUSH2 0x38F SWAP2 SWAP1 PUSH2 0x1F4B JUMP JUMPDEST PUSH2 0xBC9 JUMP JUMPDEST PUSH1 0x40 MLOAD PUSH2 0x3A1 SWAP2 SWAP1 PUSH2 0x2352 JUMP JUMPDEST PUSH1 0x40 MLOAD DUP1 SWAP2 SUB SWAP1 RETURN JUMPDEST PUSH2 0x3C4 PUSH1 0x4 DUP1 CALLDATASIZE SUB DUP2 ADD SWAP1 PUSH2 0x3BF SWAP2 SWAP1 PUSH2 0x1F4B JUMP JUMPDEST PUSH2 0xD3C JUMP JUMPDEST PUSH1 0x40 MLOAD PUSH2 0x3D1 SWAP2 SWAP1 PUSH2 0x22D0 JUMP JUMPDEST PUSH1 0x40 MLOAD DUP1 SWAP2 SUB SWAP1 RETURN JUMPDEST PUSH2 0x3F4 PUSH1 0x4 DUP1 CALLDATASIZE SUB DUP2 ADD SWAP1 PUSH2 0x3EF SWAP2 SWAP1 PUSH2 0x1D5B JUMP JUMPDEST PUSH2 0xD79 JUMP JUMPDEST PUSH1 0x40 MLOAD PUSH2 0x401 SWAP2 SWAP1 PUSH2 0x2337 JUMP JUMPDEST PUSH1 0x40 MLOAD DUP1 SWAP2 SUB SWAP1 RETURN JUMPDEST PUSH1 0x0 DUP1 PUSH1 0x0 DUP4 PUSH28 0xFFFFFFFFFFFFFFFFFFFFFFFFFFFFFFFFFFFFFFFFFFFFFFFFFFFFFFFF NOT AND PUSH28 0xFFFFFFFFFFFFFFFFFFFFFFFFFFFFFFFFFFFFFFFFFFFFFFFFFFFFFFFF NOT AND DUP2 MSTORE PUSH1 0x20 ADD SWAP1 DUP2 MSTORE PUSH1 0x20 ADD PUSH1 0x0 KECCAK256 PUSH1 0x0 SWAP1 SLOAD SWAP1 PUSH2 0x100 EXP SWAP1 DIV PUSH1 0xFF AND SWAP1 POP SWAP2 SWAP1 POP JUMP JUMPDEST PUSH1 0x60 PUSH1 0x6 DUP1 SLOAD PUSH2 0x480 SWAP1 PUSH2 0x2796 JUMP JUMPDEST DUP1 PUSH1 0x1F ADD PUSH1 0x20 DUP1 SWAP2 DIV MUL PUSH1 0x20 ADD PUSH1 0x40 MLOAD SWAP1 DUP2 ADD PUSH1 0x40 MSTORE DUP1 SWAP3 SWAP2 SWAP1 DUP2 DUP2 MSTORE PUSH1 0x20 ADD DUP3 DUP1 SLOAD PUSH2 0x4AC SWAP1 PUSH2 0x2796 JUMP JUMPDEST DUP1 ISZERO PUSH2 0x4F9 JUMPI DUP1 PUSH1 0x1F LT PUSH2 0x4CE JUMPI PUSH2 0x100 DUP1 DUP4 SLOAD DIV MUL DUP4 MSTORE SWAP2 PUSH1 0x20 ADD SWAP2 PUSH2 0x4F9 JUMP JUMPDEST DUP3 ADD SWAP2 SWAP1 PUSH1 0x0 MSTORE PUSH1 0x20 PUSH1 0x0 KECCAK256 SWAP1 JUMPDEST DUP2 SLOAD DUP2 MSTORE SWAP1 PUSH1 0x1 ADD SWAP1 PUSH1 0x20 ADD DUP1 DUP4 GT PUSH2 0x4DC JUMPI DUP3 SWAP1 SUB PUSH1 0x1F AND DUP3 ADD SWAP2 JUMPDEST POP POP POP POP POP SWAP1 POP SWAP1 JUMP JUMPDEST PUSH1 0x0 PUSH2 0x50E DUP3 PUSH2 0xE0D JUMP JUMPDEST PUSH2 0x54D JUMPI PUSH1 0x40 MLOAD PUSH32 0x8C379A000000000000000000000000000000000000000000000000000000000 DUP2 MSTORE PUSH1 0x4 ADD PUSH2 0x544 SWAP1 PUSH2 0x2494 JUMP JUMPDEST PUSH1 0x40 MLOAD DUP1 SWAP2 SUB SWAP1 REVERT JUMPDEST PUSH1 0x4 PUSH1 0x0 DUP4 DUP2 MSTORE PUSH1 0x20 ADD SWAP1 DUP2 MSTORE PUSH1 0x20 ADD PUSH1 0x0 KECCAK256 PUSH1 0x0 SWAP1 SLOAD SWAP1 PUSH2 0x100 EXP SWAP1 DIV PUSH20 0xFFFFFFFFFFFFFFFFFFFFFFFFFFFFFFFFFFFFFFFF AND SWAP1 POP SWAP2 SWAP1 POP JUMP JUMPDEST PUSH1 0x0 PUSH2 0x593 DUP3 PUSH2 0x7AF JUMP JUMPDEST SWAP1 POP DUP1 PUSH20 0xFFFFFFFFFFFFFFFFFFFFFFFFFFFFFFFFFFFFFFFF AND DUP4 PUSH20 0xFFFFFFFFFFFFFFFFFFFFFFFFFFFFFFFFFFFFFFFF AND EQ ISZERO PUSH2 0x604 JUMPI PUSH1 0x40 MLOAD PUSH32 0x8C379A000000000000000000000000000000000000000000000000000000000 DUP2 MSTORE PUSH1 0x4 ADD PUSH2 0x5FB SWAP1 PUSH2 0x24F4 JUMP JUMPDEST PUSH1 0x40 MLOAD DUP1 SWAP2 SUB SWAP1 REVERT JUMPDEST DUP1 PUSH20 0xFFFFFFFFFFFFFFFFFFFFFFFFFFFFFFFFFFFFFFFF AND PUSH2 0x623 PUSH2 0xE2A JUMP JUMPDEST PUSH20 0xFFFFFFFFFFFFFFFFFFFFFFFFFFFFFFFFFFFFFFFF AND EQ DUP1 PUSH2 0x652 JUMPI POP PUSH2 0x651 DUP2 PUSH2 0x64C PUSH2 0xE2A JUMP JUMPDEST PUSH2 0xD79 JUMP JUMPDEST JUMPDEST PUSH2 0x691 JUMPI PUSH1 0x40 MLOAD PUSH32 0x8C379A000000000000000000000000000000000000000000000000000000000 DUP2 MSTORE PUSH1 0x4 ADD PUSH2 0x688 SWAP1 PUSH2 0x2434 JUMP JUMPDEST PUSH1 0x40 MLOAD DUP1 SWAP2 SUB SWAP1 REVERT JUMPDEST PUSH2 0x69B DUP4 DUP4 PUSH2 0xE32 JUMP JUMPDEST POP POP POP JUMP JUMPDEST PUSH1 0x0 PUSH2 0x6AC PUSH1 0x2 PUSH2 0xEEB JUMP JUMPDEST SWAP1 POP SWAP1 JUMP JUMPDEST PUSH2 0x6C2 PUSH2 0x6BC PUSH2 0xE2A JUMP JUMPDEST DUP3 PUSH2 0xF00 JUMP JUMPDEST PUSH2 0x701 JUMPI PUSH1 0x40 MLOAD PUSH32 0x8C379A000000000000000000000000000000000000000000000000000000000 DUP2 MSTORE PUSH1 0x4 ADD PUSH2 0x6F8 SWAP1 PUSH2 0x2514 JUMP JUMPDEST PUSH1 0x40 MLOAD DUP1 SWAP2 SUB SWAP1 REVERT JUMPDEST PUSH2 0x70C DUP4 DUP4 DUP4 PUSH2 0xFDE JUMP JUMPDEST POP POP POP JUMP JUMPDEST PUSH1 0x0 PUSH2 0x764 DUP3 PUSH1 0x1 PUSH1 0x0 DUP7 PUSH20 0xFFFFFFFFFFFFFFFFFFFFFFFFFFFFFFFFFFFFFFFF AND PUSH20 0xFFFFFFFFFFFFFFFFFFFFFFFFFFFFFFFFFFFFFFFF AND DUP2 MSTORE PUSH1 0x20 ADD SWAP1 DUP2 MSTORE PUSH1 0x20 ADD PUSH1 0x0 KECCAK256 PUSH2 0x11F3 SWAP1 SWAP2 SWAP1 PUSH4 0xFFFFFFFF AND JUMP JUMPDEST SWAP1 POP SWAP3 SWAP2 POP POP JUMP JUMPDEST PUSH2 0x787 DUP4 DUP4 DUP4 PUSH1 0x40 MLOAD DUP1 PUSH1 0x20 ADD PUSH1 0x40 MSTORE DUP1 PUSH1 0x0 DUP2 MSTORE POP PUSH2 0xB4A JUMP JUMPDEST POP POP POP JUMP JUMPDEST PUSH1 0x0 DUP1 PUSH2 0x7A3 DUP4 PUSH1 0x2 PUSH2 0x120D SWAP1 SWAP2 SWAP1 PUSH4 0xFFFFFFFF AND JUMP JUMPDEST POP SWAP1 POP DUP1 SWAP2 POP POP SWAP2 SWAP1 POP JUMP JUMPDEST PUSH1 0x0 PUSH2 0x7DF DUP3 PUSH1 0x40 MLOAD DUP1 PUSH1 0x60 ADD PUSH1 0x40 MSTORE DUP1 PUSH1 0x29 DUP2 MSTORE PUSH1 0x20 ADD PUSH2 0x2E96 PUSH1 0x29 SWAP2 CODECOPY PUSH1 0x2 PUSH2 0x1239 SWAP1 SWAP3 SWAP2 SWAP1 PUSH4 0xFFFFFFFF AND JUMP JUMPDEST SWAP1 POP SWAP2 SWAP1 POP JUMP JUMPDEST PUSH1 0x60 PUSH1 0xB DUP1 SLOAD PUSH2 0x7F5 SWAP1 PUSH2 0x2796 JUMP JUMPDEST DUP1 PUSH1 0x1F ADD PUSH1 0x20 DUP1 SWAP2 DIV MUL PUSH1 0x20 ADD PUSH1 0x40 MLOAD SWAP1 DUP2 ADD PUSH1 0x40 MSTORE DUP1 SWAP3 SWAP2 SWAP1 DUP2 DUP2 MSTORE PUSH1 0x20 ADD DUP3 DUP1 SLOAD PUSH2 0x821 SWAP1 PUSH2 0x2796 JUMP JUMPDEST DUP1 ISZERO PUSH2 0x86E JUMPI DUP1 PUSH1 0x1F LT PUSH2 0x843 JUMPI PUSH2 0x100 DUP1 DUP4 SLOAD DIV MUL DUP4 MSTORE SWAP2 PUSH1 0x20 ADD SWAP2 PUSH2 0x86E JUMP JUMPDEST DUP3 ADD SWAP2 SWAP1 PUSH1 0x0 MSTORE PUSH1 0x20 PUSH1 0x0 KECCAK256 SWAP1 JUMPDEST DUP2 SLOAD DUP2 MSTORE SWAP1 PUSH1 0x1 ADD SWAP1 PUSH1 0x20 ADD DUP1 DUP4 GT PUSH2 0x851 JUMPI DUP3 SWAP1 SUB PUSH1 0x1F AND DUP3 ADD SWAP2 JUMPDEST POP POP POP POP POP SWAP1 POP SWAP1 JUMP JUMPDEST PUSH1 0x0 DUP1 PUSH20 0xFFFFFFFFFFFFFFFFFFFFFFFFFFFFFFFFFFFFFFFF AND DUP3 PUSH20 0xFFFFFFFFFFFFFFFFFFFFFFFFFFFFFFFFFFFFFFFF AND EQ ISZERO PUSH2 0x8E9 JUMPI PUSH1 0x40 MLOAD PUSH32 0x8C379A000000000000000000000000000000000000000000000000000000000 DUP2 MSTORE PUSH1 0x4 ADD PUSH2 0x8E0 SWAP1 PUSH2 0x2454 JUMP JUMPDEST PUSH1 0x40 MLOAD DUP1 SWAP2 SUB SWAP1 REVERT JUMPDEST PUSH2 0x930 PUSH1 0x1 PUSH1 0x0 DUP5 PUSH20 0xFFFFFFFFFFFFFFFFFFFFFFFFFFFFFFFFFFFFFFFF AND PUSH20 0xFFFFFFFFFFFFFFFFFFFFFFFFFFFFFFFFFFFFFFFF AND DUP2 MSTORE PUSH1 0x20 ADD SWAP1 DUP2 MSTORE PUSH1 0x20 ADD PUSH1 0x0 KECCAK256 PUSH2 0x1258 JUMP JUMPDEST SWAP1 POP SWAP2 SWAP1 POP JUMP JUMPDEST PUSH1 0x60 PUSH1 0x7 DUP1 SLOAD PUSH2 0x946 SWAP1 PUSH2 0x2796 JUMP JUMPDEST DUP1 PUSH1 0x1F ADD PUSH1 0x20 DUP1 SWAP2 DIV MUL PUSH1 0x20 ADD PUSH1 0x40 MLOAD SWAP1 DUP2 ADD PUSH1 0x40 MSTORE DUP1 SWAP3 SWAP2 SWAP1 DUP2 DUP2 MSTORE PUSH1 0x20 ADD DUP3 DUP1 SLOAD PUSH2 0x972 SWAP1 PUSH2 0x2796 JUMP JUMPDEST DUP1 ISZERO PUSH2 0x9BF JUMPI DUP1 PUSH1 0x1F LT PUSH2 0x994 JUMPI PUSH2 0x100 DUP1 DUP4 SLOAD DIV MUL DUP4 MSTORE SWAP2 PUSH1 0x20 ADD SWAP2 PUSH2 0x9BF JUMP JUMPDEST DUP3 ADD SWAP2 SWAP1 PUSH1 0x0 MSTORE PUSH1 0x20 PUSH1 0x0 KECCAK256 SWAP1 JUMPDEST DUP2 SLOAD DUP2 MSTORE SWAP1 PUSH1 0x1 ADD SWAP1 PUSH1 0x20 ADD DUP1 DUP4 GT PUSH2 0x9A2 JUMPI DUP3 SWAP1 SUB PUSH1 0x1F AND DUP3 ADD SWAP2 JUMPDEST POP POP POP POP POP SWAP1 POP SWAP1 JUMP JUMPDEST PUSH2 0x9D1 PUSH2 0xE2A JUMP JUMPDEST PUSH20 0xFFFFFFFFFFFFFFFFFFFFFFFFFFFFFFFFFFFFFFFF AND DUP3 PUSH20 0xFFFFFFFFFFFFFFFFFFFFFFFFFFFFFFFFFFFFFFFF AND EQ ISZERO PUSH2 0xA3F JUMPI PUSH1 0x40 MLOAD PUSH32 0x8C379A000000000000000000000000000000000000000000000000000000000 DUP2 MSTORE PUSH1 0x4 ADD PUSH2 0xA36 SWAP1 PUSH2 0x23D4 JUMP JUMPDEST PUSH1 0x40 MLOAD DUP1 SWAP2 SUB SWAP1 REVERT JUMPDEST DUP1 PUSH1 0x5 PUSH1 0x0 PUSH2 0xA4C PUSH2 0xE2A JUMP JUMPDEST PUSH20 0xFFFFFFFFFFFFFFFFFFFFFFFFFFFFFFFFFFFFFFFF AND PUSH20 0xFFFFFFFFFFFFFFFFFFFFFFFFFFFFFFFFFFFFFFFF AND DUP2 MSTORE PUSH1 0x20 ADD SWAP1 DUP2 MSTORE PUSH1 0x20 ADD PUSH1 0x0 KECCAK256 PUSH1 0x0 DUP5 PUSH20 0xFFFFFFFFFFFFFFFFFFFFFFFFFFFFFFFFFFFFFFFF AND PUSH20 0xFFFFFFFFFFFFFFFFFFFFFFFFFFFFFFFFFFFFFFFF AND DUP2 MSTORE PUSH1 0x20 ADD SWAP1 DUP2 MSTORE PUSH1 0x20 ADD PUSH1 0x0 KECCAK256 PUSH1 0x0 PUSH2 0x100 EXP DUP2 SLOAD DUP2 PUSH1 0xFF MUL NOT AND SWAP1 DUP4 ISZERO ISZERO MUL OR SWAP1 SSTORE POP DUP2 PUSH20 0xFFFFFFFFFFFFFFFFFFFFFFFFFFFFFFFFFFFFFFFF AND PUSH2 0xAF9 PUSH2 0xE2A JUMP JUMPDEST PUSH20 0xFFFFFFFFFFFFFFFFFFFFFFFFFFFFFFFFFFFFFFFF AND PUSH32 0x17307EAB39AB6107E8899845AD3D59BD9653F200F220920489CA2B5937696C31 DUP4 PUSH1 0x40 MLOAD PUSH2 0xB3E SWAP2 SWAP1 PUSH2 0x2337 JUMP JUMPDEST PUSH1 0x40 MLOAD DUP1 SWAP2 SUB SWAP1 LOG3 POP POP JUMP JUMPDEST PUSH2 0xB5B PUSH2 0xB55 PUSH2 0xE2A JUMP JUMPDEST DUP4 PUSH2 0xF00 JUMP JUMPDEST PUSH2 0xB9A JUMPI PUSH1 0x40 MLOAD PUSH32 0x8C379A000000000000000000000000000000000000000000000000000000000 DUP2 MSTORE PUSH1 0x4 ADD PUSH2 0xB91 SWAP1 PUSH2 0x2514 JUMP JUMPDEST PUSH1 0x40 MLOAD DUP1 SWAP2 SUB SWAP1 REVERT JUMPDEST PUSH2 0xBA6 DUP5 DUP5 DUP5 DUP5 PUSH2 0x126D JUMP JUMPDEST POP POP POP POP JUMP JUMPDEST PUSH1 0x0 PUSH1 0x9 PUSH1 0x0 DUP4 DUP2 MSTORE PUSH1 0x20 ADD SWAP1 DUP2 MSTORE PUSH1 0x20 ADD PUSH1 0x0 KECCAK256 SLOAD SWAP1 POP SWAP2 SWAP1 POP JUMP JUMPDEST PUSH1 0x60 PUSH2 0xBD4 DUP3 PUSH2 0xE0D JUMP JUMPDEST PUSH2 0xC13 JUMPI PUSH1 0x40 MLOAD PUSH32 0x8C379A000000000000000000000000000000000000000000000000000000000 DUP2 MSTORE PUSH1 0x4 ADD PUSH2 0xC0A SWAP1 PUSH2 0x24D4 JUMP JUMPDEST PUSH1 0x40 MLOAD DUP1 SWAP2 SUB SWAP1 REVERT JUMPDEST PUSH1 0x0 PUSH1 0x8 PUSH1 0x0 DUP5 DUP2 MSTORE PUSH1 0x20 ADD SWAP1 DUP2 MSTORE PUSH1 0x20 ADD PUSH1 0x0 KECCAK256 DUP1 SLOAD PUSH2 0xC33 SWAP1 PUSH2 0x2796 JUMP JUMPDEST DUP1 PUSH1 0x1F ADD PUSH1 0x20 DUP1 SWAP2 DIV MUL PUSH1 0x20 ADD PUSH1 0x40 MLOAD SWAP1 DUP2 ADD PUSH1 0x40 MSTORE DUP1 SWAP3 SWAP2 SWAP1 DUP2 DUP2 MSTORE PUSH1 0x20 ADD DUP3 DUP1 SLOAD PUSH2 0xC5F SWAP1 PUSH2 0x2796 JUMP JUMPDEST DUP1 ISZERO PUSH2 0xCAC JUMPI DUP1 PUSH1 0x1F LT PUSH2 0xC81 JUMPI PUSH2 0x100 DUP1 DUP4 SLOAD DIV MUL DUP4 MSTORE SWAP2 PUSH1 0x20 ADD SWAP2 PUSH2 0xCAC JUMP JUMPDEST DUP3 ADD SWAP2 SWAP1 PUSH1 0x0 MSTORE PUSH1 0x20 PUSH1 0x0 KECCAK256 SWAP1 JUMPDEST DUP2 SLOAD DUP2 MSTORE SWAP1 PUSH1 0x1 ADD SWAP1 PUSH1 0x20 ADD DUP1 DUP4 GT PUSH2 0xC8F JUMPI DUP3 SWAP1 SUB PUSH1 0x1F AND DUP3 ADD SWAP2 JUMPDEST POP POP POP POP POP SWAP1 POP PUSH1 0x0 PUSH2 0xCBD PUSH2 0x7E6 JUMP JUMPDEST SWAP1 POP PUSH1 0x0 DUP2 MLOAD EQ ISZERO PUSH2 0xCD3 JUMPI DUP2 SWAP3 POP POP POP PUSH2 0xD37 JUMP JUMPDEST PUSH1 0x0 DUP3 MLOAD GT ISZERO PUSH2 0xD08 JUMPI DUP1 DUP3 PUSH1 0x40 MLOAD PUSH1 0x20 ADD PUSH2 0xCF0 SWAP3 SWAP2 SWAP1 PUSH2 0x22AC JUMP JUMPDEST PUSH1 0x40 MLOAD PUSH1 0x20 DUP2 DUP4 SUB SUB DUP2 MSTORE SWAP1 PUSH1 0x40 MSTORE SWAP3 POP POP POP PUSH2 0xD37 JUMP JUMPDEST DUP1 PUSH2 0xD12 DUP6 PUSH2 0x12C9 JUMP JUMPDEST PUSH1 0x40 MLOAD PUSH1 0x20 ADD PUSH2 0xD23 SWAP3 SWAP2 SWAP1 PUSH2 0x22AC JUMP JUMPDEST PUSH1 0x40 MLOAD PUSH1 0x20 DUP2 DUP4 SUB SUB DUP2 MSTORE SWAP1 PUSH1 0x40 MSTORE SWAP3 POP POP POP JUMPDEST SWAP2 SWAP1 POP JUMP JUMPDEST PUSH1 0x0 PUSH1 0xA PUSH1 0x0 DUP4 DUP2 MSTORE PUSH1 0x20 ADD SWAP1 DUP2 MSTORE PUSH1 0x20 ADD PUSH1 0x0 KECCAK256 PUSH1 0x0 SWAP1 SLOAD SWAP1 PUSH2 0x100 EXP SWAP1 DIV PUSH20 0xFFFFFFFFFFFFFFFFFFFFFFFFFFFFFFFFFFFFFFFF AND SWAP1 POP SWAP2 SWAP1 POP JUMP JUMPDEST PUSH1 0x0 PUSH1 0x5 PUSH1 0x0 DUP5 PUSH20 0xFFFFFFFFFFFFFFFFFFFFFFFFFFFFFFFFFFFFFFFF AND PUSH20 0xFFFFFFFFFFFFFFFFFFFFFFFFFFFFFFFFFFFFFFFF AND DUP2 MSTORE PUSH1 0x20 ADD SWAP1 DUP2 MSTORE PUSH1 0x20 ADD PUSH1 0x0 KECCAK256 PUSH1 0x0 DUP4 PUSH20 0xFFFFFFFFFFFFFFFFFFFFFFFFFFFFFFFFFFFFFFFF AND PUSH20 0xFFFFFFFFFFFFFFFFFFFFFFFFFFFFFFFFFFFFFFFF AND DUP2 MSTORE PUSH1 0x20 ADD SWAP1 DUP2 MSTORE PUSH1 0x20 ADD PUSH1 0x0 KECCAK256 PUSH1 0x0 SWAP1 SLOAD SWAP1 PUSH2 0x100 EXP SWAP1 DIV PUSH1 0xFF AND SWAP1 POP SWAP3 SWAP2 POP POP JUMP JUMPDEST PUSH1 0x0 PUSH2 0xE23 DUP3 PUSH1 0x2 PUSH2 0x142A SWAP1 SWAP2 SWAP1 PUSH4 0xFFFFFFFF AND JUMP JUMPDEST SWAP1 POP SWAP2 SWAP1 POP JUMP JUMPDEST PUSH1 0x0 CALLER SWAP1 POP SWAP1 JUMP JUMPDEST DUP2 PUSH1 0x4 PUSH1 0x0 DUP4 DUP2 MSTORE PUSH1 0x20 ADD SWAP1 DUP2 MSTORE PUSH1 0x20 ADD PUSH1 0x0 KECCAK256 PUSH1 0x0 PUSH2 0x100 EXP DUP2 SLOAD DUP2 PUSH20 0xFFFFFFFFFFFFFFFFFFFFFFFFFFFFFFFFFFFFFFFF MUL NOT AND SWAP1 DUP4 PUSH20 0xFFFFFFFFFFFFFFFFFFFFFFFFFFFFFFFFFFFFFFFF AND MUL OR SWAP1 SSTORE POP DUP1 DUP3 PUSH20 0xFFFFFFFFFFFFFFFFFFFFFFFFFFFFFFFFFFFFFFFF AND PUSH2 0xEA5 DUP4 PUSH2 0x7AF JUMP JUMPDEST PUSH20 0xFFFFFFFFFFFFFFFFFFFFFFFFFFFFFFFFFFFFFFFF AND PUSH32 0x8C5BE1E5EBEC7D5BD14F71427D1E84F3DD0314C0F7B2291E5B200AC8C7C3B925 PUSH1 0x40 MLOAD PUSH1 0x40 MLOAD DUP1 SWAP2 SUB SWAP1 LOG4 POP POP JUMP JUMPDEST PUSH1 0x0 PUSH2 0xEF9 DUP3 PUSH1 0x0 ADD PUSH2 0x1444 JUMP JUMPDEST SWAP1 POP SWAP2 SWAP1 POP JUMP JUMPDEST PUSH1 0x0 PUSH2 0xF0B DUP3 PUSH2 0xE0D JUMP JUMPDEST PUSH2 0xF4A JUMPI PUSH1 0x40 MLOAD PUSH32 0x8C379A000000000000000000000000000000000000000000000000000000000 DUP2 MSTORE PUSH1 0x4 ADD PUSH2 0xF41 SWAP1 PUSH2 0x2414 JUMP JUMPDEST PUSH1 0x40 MLOAD DUP1 SWAP2 SUB SWAP1 REVERT JUMPDEST PUSH1 0x0 PUSH2 0xF55 DUP4 PUSH2 0x7AF JUMP JUMPDEST SWAP1 POP DUP1 PUSH20 0xFFFFFFFFFFFFFFFFFFFFFFFFFFFFFFFFFFFFFFFF AND DUP5 PUSH20 0xFFFFFFFFFFFFFFFFFFFFFFFFFFFFFFFFFFFFFFFF AND EQ DUP1 PUSH2 0xFC4 JUMPI POP DUP4 PUSH20 0xFFFFFFFFFFFFFFFFFFFFFFFFFFFFFFFFFFFFFFFF AND PUSH2 0xFAC DUP5 PUSH2 0x503 JUMP JUMPDEST PUSH20 0xFFFFFFFFFFFFFFFFFFFFFFFFFFFFFFFFFFFFFFFF AND EQ JUMPDEST DUP1 PUSH2 0xFD5 JUMPI POP PUSH2 0xFD4 DUP2 DUP6 PUSH2 0xD79 JUMP JUMPDEST JUMPDEST SWAP2 POP POP SWAP3 SWAP2 POP POP JUMP JUMPDEST DUP3 PUSH20 0xFFFFFFFFFFFFFFFFFFFFFFFFFFFFFFFFFFFFFFFF AND PUSH2 0xFFE DUP3 PUSH2 0x7AF JUMP JUMPDEST PUSH20 0xFFFFFFFFFFFFFFFFFFFFFFFFFFFFFFFFFFFFFFFF AND EQ PUSH2 0x1054 JUMPI PUSH1 0x40 MLOAD PUSH32 0x8C379A000000000000000000000000000000000000000000000000000000000 DUP2 MSTORE PUSH1 0x4 ADD PUSH2 0x104B SWAP1 PUSH2 0x24B4 JUMP JUMPDEST PUSH1 0x40 MLOAD DUP1 SWAP2 SUB SWAP1 REVERT JUMPDEST PUSH1 0x0 PUSH20 0xFFFFFFFFFFFFFFFFFFFFFFFFFFFFFFFFFFFFFFFF AND DUP3 PUSH20 0xFFFFFFFFFFFFFFFFFFFFFFFFFFFFFFFFFFFFFFFF AND EQ ISZERO PUSH2 0x10C4 JUMPI PUSH1 0x40 MLOAD PUSH32 0x8C379A000000000000000000000000000000000000000000000000000000000 DUP2 MSTORE PUSH1 0x4 ADD PUSH2 0x10BB SWAP1 PUSH2 0x23B4 JUMP JUMPDEST PUSH1 0x40 MLOAD DUP1 SWAP2 SUB SWAP1 REVERT JUMPDEST PUSH2 0x10CF DUP4 DUP4 DUP4 PUSH2 0x1455 JUMP JUMPDEST PUSH2 0x10DA PUSH1 0x0 DUP3 PUSH2 0xE32 JUMP JUMPDEST PUSH2 0x112B DUP2 PUSH1 0x1 PUSH1 0x0 DUP7 PUSH20 0xFFFFFFFFFFFFFFFFFFFFFFFFFFFFFFFFFFFFFFFF AND PUSH20 0xFFFFFFFFFFFFFFFFFFFFFFFFFFFFFFFFFFFFFFFF AND DUP2 MSTORE PUSH1 0x20 ADD SWAP1 DUP2 MSTORE PUSH1 0x20 ADD PUSH1 0x0 KECCAK256 PUSH2 0x145A SWAP1 SWAP2 SWAP1 PUSH4 0xFFFFFFFF AND JUMP JUMPDEST PUSH2 0x117C DUP2 PUSH1 0x1 PUSH1 0x0 DUP6 PUSH20 0xFFFFFFFFFFFFFFFFFFFFFFFFFFFFFFFFFFFFFFFF AND PUSH20 0xFFFFFFFFFFFFFFFFFFFFFFFFFFFFFFFFFFFFFFFF AND DUP2 MSTORE PUSH1 0x20 ADD SWAP1 DUP2 MSTORE PUSH1 0x20 ADD PUSH1 0x0 KECCAK256 PUSH2 0x146F SWAP1 SWAP2 SWAP1 PUSH4 0xFFFFFFFF AND JUMP JUMPDEST PUSH2 0x1192 DUP2 DUP4 PUSH1 0x2 PUSH2 0x1484 SWAP1 SWAP3 SWAP2 SWAP1 PUSH4 0xFFFFFFFF AND JUMP JUMPDEST POP DUP1 DUP3 PUSH20 0xFFFFFFFFFFFFFFFFFFFFFFFFFFFFFFFFFFFFFFFF AND DUP5 PUSH20 0xFFFFFFFFFFFFFFFFFFFFFFFFFFFFFFFFFFFFFFFF AND PUSH32 0xDDF252AD1BE2C89B69C2B068FC378DAA952BA7F163C4A11628F55A4DF523B3EF PUSH1 0x40 MLOAD PUSH1 0x40 MLOAD DUP1 SWAP2 SUB SWAP1 LOG4 POP POP POP JUMP JUMPDEST PUSH1 0x0 PUSH2 0x1202 DUP4 PUSH1 0x0 ADD DUP4 PUSH2 0x14B9 JUMP JUMPDEST PUSH1 0x0 SHR SWAP1 POP SWAP3 SWAP2 POP POP JUMP JUMPDEST PUSH1 0x0 DUP1 PUSH1 0x0 DUP1 PUSH2 0x1220 DUP7 PUSH1 0x0 ADD DUP7 PUSH2 0x152D JUMP JUMPDEST SWAP2 POP SWAP2 POP DUP2 PUSH1 0x0 SHR DUP2 PUSH1 0x0 SHR SWAP4 POP SWAP4 POP POP POP SWAP3 POP SWAP3 SWAP1 POP JUMP JUMPDEST PUSH1 0x0 PUSH2 0x124C DUP5 PUSH1 0x0 ADD DUP5 PUSH1 0x0 SHL DUP5 PUSH2 0x15B7 JUMP JUMPDEST PUSH1 0x0 SHR SWAP1 POP SWAP4 SWAP3 POP POP POP JUMP JUMPDEST PUSH1 0x0 PUSH2 0x1266 DUP3 PUSH1 0x0 ADD PUSH2 0x1658 JUMP JUMPDEST SWAP1 POP SWAP2 SWAP1 POP JUMP JUMPDEST PUSH2 0x1278 DUP5 DUP5 DUP5 PUSH2 0xFDE JUMP JUMPDEST PUSH2 0x1284 DUP5 DUP5 DUP5 DUP5 PUSH2 0x1669 JUMP JUMPDEST PUSH2 0x12C3 JUMPI PUSH1 0x40 MLOAD PUSH32 0x8C379A000000000000000000000000000000000000000000000000000000000 DUP2 MSTORE PUSH1 0x4 ADD PUSH2 0x12BA SWAP1 PUSH2 0x2394 JUMP JUMPDEST PUSH1 0x40 MLOAD DUP1 SWAP2 SUB SWAP1 REVERT JUMPDEST POP POP POP POP JUMP JUMPDEST PUSH1 0x60 PUSH1 0x0 DUP3 EQ ISZERO PUSH2 0x1311 JUMPI PUSH1 0x40 MLOAD DUP1 PUSH1 0x40 ADD PUSH1 0x40 MSTORE DUP1 PUSH1 0x1 DUP2 MSTORE PUSH1 0x20 ADD PUSH32 0x3000000000000000000000000000000000000000000000000000000000000000 DUP2 MSTORE POP SWAP1 POP PUSH2 0x1425 JUMP JUMPDEST PUSH1 0x0 DUP3 SWAP1 POP PUSH1 0x0 JUMPDEST PUSH1 0x0 DUP3 EQ PUSH2 0x1343 JUMPI DUP1 DUP1 PUSH2 0x132C SWAP1 PUSH2 0x27F9 JUMP JUMPDEST SWAP2 POP POP PUSH1 0xA DUP3 PUSH2 0x133C SWAP2 SWAP1 PUSH2 0x2669 JUMP JUMPDEST SWAP2 POP PUSH2 0x1319 JUMP JUMPDEST PUSH1 0x0 DUP2 PUSH8 0xFFFFFFFFFFFFFFFF DUP2 GT ISZERO PUSH2 0x135F JUMPI PUSH2 0x135E PUSH2 0x295E JUMP JUMPDEST JUMPDEST PUSH1 0x40 MLOAD SWAP1 DUP1 DUP3 MSTORE DUP1 PUSH1 0x1F ADD PUSH1 0x1F NOT AND PUSH1 0x20 ADD DUP3 ADD PUSH1 0x40 MSTORE DUP1 ISZERO PUSH2 0x1391 JUMPI DUP2 PUSH1 0x20 ADD PUSH1 0x1 DUP3 MUL DUP1 CALLDATASIZE DUP4 CALLDATACOPY DUP1 DUP3 ADD SWAP2 POP POP SWAP1 POP JUMPDEST POP SWAP1 POP JUMPDEST PUSH1 0x0 DUP6 EQ PUSH2 0x141E JUMPI PUSH1 0x1 DUP3 PUSH2 0x13AA SWAP2 SWAP1 PUSH2 0x269A JUMP JUMPDEST SWAP2 POP PUSH1 0xA DUP6 PUSH2 0x13B9 SWAP2 SWAP1 PUSH2 0x2842 JUMP JUMPDEST PUSH1 0x30 PUSH2 0x13C5 SWAP2 SWAP1 PUSH2 0x2613 JUMP JUMPDEST PUSH1 0xF8 SHL DUP2 DUP4 DUP2 MLOAD DUP2 LT PUSH2 0x13DB JUMPI PUSH2 0x13DA PUSH2 0x292F JUMP JUMPDEST JUMPDEST PUSH1 0x20 ADD ADD SWAP1 PUSH31 0xFFFFFFFFFFFFFFFFFFFFFFFFFFFFFFFFFFFFFFFFFFFFFFFFFFFFFFFFFFFFFF NOT AND SWAP1 DUP2 PUSH1 0x0 BYTE SWAP1 MSTORE8 POP PUSH1 0xA DUP6 PUSH2 0x1417 SWAP2 SWAP1 PUSH2 0x2669 JUMP JUMPDEST SWAP5 POP PUSH2 0x1395 JUMP JUMPDEST DUP1 SWAP4 POP POP POP POP JUMPDEST SWAP2 SWAP1 POP JUMP JUMPDEST PUSH1 0x0 PUSH2 0x143C DUP4 PUSH1 0x0 ADD DUP4 PUSH1 0x0 SHL PUSH2 0x17CD JUMP JUMPDEST SWAP1 POP SWAP3 SWAP2 POP POP JUMP JUMPDEST PUSH1 0x0 DUP2 PUSH1 0x0 ADD DUP1 SLOAD SWAP1 POP SWAP1 POP SWAP2 SWAP1 POP JUMP JUMPDEST POP POP POP JUMP JUMPDEST PUSH2 0x146A DUP3 PUSH1 0x0 ADD DUP3 PUSH1 0x0 SHL PUSH2 0x17F0 JUMP JUMPDEST POP POP POP JUMP JUMPDEST PUSH2 0x147F DUP3 PUSH1 0x0 ADD DUP3 PUSH1 0x0 SHL PUSH2 0x1908 JUMP JUMPDEST POP POP POP JUMP JUMPDEST PUSH1 0x0 PUSH2 0x14B0 DUP5 PUSH1 0x0 ADD DUP5 PUSH1 0x0 SHL DUP5 PUSH20 0xFFFFFFFFFFFFFFFFFFFFFFFFFFFFFFFFFFFFFFFF AND PUSH1 0x0 SHL PUSH2 0x1978 JUMP JUMPDEST SWAP1 POP SWAP4 SWAP3 POP POP POP JUMP JUMPDEST PUSH1 0x0 DUP2 DUP4 PUSH1 0x0 ADD DUP1 SLOAD SWAP1 POP GT PUSH2 0x1504 JUMPI PUSH1 0x40 MLOAD PUSH32 0x8C379A000000000000000000000000000000000000000000000000000000000 DUP2 MSTORE PUSH1 0x4 ADD PUSH2 0x14FB SWAP1 PUSH2 0x2374 JUMP JUMPDEST PUSH1 0x40 MLOAD DUP1 SWAP2 SUB SWAP1 REVERT JUMPDEST DUP3 PUSH1 0x0 ADD DUP3 DUP2 SLOAD DUP2 LT PUSH2 0x151A JUMPI PUSH2 0x1519 PUSH2 0x292F JUMP JUMPDEST JUMPDEST SWAP1 PUSH1 0x0 MSTORE PUSH1 0x20 PUSH1 0x0 KECCAK256 ADD SLOAD SWAP1 POP SWAP3 SWAP2 POP POP JUMP JUMPDEST PUSH1 0x0 DUP1 DUP3 DUP5 PUSH1 0x0 ADD DUP1 SLOAD SWAP1 POP GT PUSH2 0x1579 JUMPI PUSH1 0x40 MLOAD PUSH32 0x8C379A000000000000000000000000000000000000000000000000000000000 DUP2 MSTORE PUSH1 0x4 ADD PUSH2 0x1570 SWAP1 PUSH2 0x2474 JUMP JUMPDEST PUSH1 0x40 MLOAD DUP1 SWAP2 SUB SWAP1 REVERT JUMPDEST PUSH1 0x0 DUP5 PUSH1 0x0 ADD DUP5 DUP2 SLOAD DUP2 LT PUSH2 0x1591 JUMPI PUSH2 0x1590 PUSH2 0x292F JUMP JUMPDEST JUMPDEST SWAP1 PUSH1 0x0 MSTORE PUSH1 0x20 PUSH1 0x0 KECCAK256 SWAP1 PUSH1 0x2 MUL ADD SWAP1 POP DUP1 PUSH1 0x0 ADD SLOAD DUP2 PUSH1 0x1 ADD SLOAD SWAP3 POP SWAP3 POP POP SWAP3 POP SWAP3 SWAP1 POP JUMP JUMPDEST PUSH1 0x0 DUP1 DUP5 PUSH1 0x1 ADD PUSH1 0x0 DUP6 DUP2 MSTORE PUSH1 0x20 ADD SWAP1 DUP2 MSTORE PUSH1 0x20 ADD PUSH1 0x0 KECCAK256 SLOAD SWAP1 POP PUSH1 0x0 DUP2 EQ ISZERO DUP4 SWAP1 PUSH2 0x1619 JUMPI PUSH1 0x40 MLOAD PUSH32 0x8C379A000000000000000000000000000000000000000000000000000000000 DUP2 MSTORE PUSH1 0x4 ADD PUSH2 0x1610 SWAP2 SWAP1 PUSH2 0x2352 JUMP JUMPDEST PUSH1 0x40 MLOAD DUP1 SWAP2 SUB SWAP1 REVERT JUMPDEST POP DUP5 PUSH1 0x0 ADD PUSH1 0x1 DUP3 PUSH2 0x162B SWAP2 SWAP1 PUSH2 0x269A JUMP JUMPDEST DUP2 SLOAD DUP2 LT PUSH2 0x163C JUMPI PUSH2 0x163B PUSH2 0x292F JUMP JUMPDEST JUMPDEST SWAP1 PUSH1 0x0 MSTORE PUSH1 0x20 PUSH1 0x0 KECCAK256 SWAP1 PUSH1 0x2 MUL ADD PUSH1 0x1 ADD SLOAD SWAP2 POP POP SWAP4 SWAP3 POP POP POP JUMP JUMPDEST PUSH1 0x0 DUP2 PUSH1 0x0 ADD DUP1 SLOAD SWAP1 POP SWAP1 POP SWAP2 SWAP1 POP JUMP JUMPDEST PUSH1 0x0 PUSH2 0x168A DUP5 PUSH20 0xFFFFFFFFFFFFFFFFFFFFFFFFFFFFFFFFFFFFFFFF AND PUSH2 0x1A64 JUMP JUMPDEST PUSH2 0x1697 JUMPI PUSH1 0x1 SWAP1 POP PUSH2 0x17C5 JUMP JUMPDEST PUSH1 0x0 PUSH2 0x175E PUSH4 0x150B7A02 PUSH1 0xE0 SHL PUSH2 0x16AC PUSH2 0xE2A JUMP JUMPDEST DUP9 DUP8 DUP8 PUSH1 0x40 MLOAD PUSH1 0x24 ADD PUSH2 0x16C2 SWAP5 SWAP4 SWAP3 SWAP2 SWAP1 PUSH2 0x22EB JUMP JUMPDEST PUSH1 0x40 MLOAD PUSH1 0x20 DUP2 DUP4 SUB SUB DUP2 MSTORE SWAP1 PUSH1 0x40 MSTORE SWAP1 PUSH28 0xFFFFFFFFFFFFFFFFFFFFFFFFFFFFFFFFFFFFFFFFFFFFFFFFFFFFFFFF NOT AND PUSH1 0x20 DUP3 ADD DUP1 MLOAD PUSH28 0xFFFFFFFFFFFFFFFFFFFFFFFFFFFFFFFFFFFFFFFFFFFFFFFFFFFFFFFF DUP4 DUP2 DUP4 AND OR DUP4 MSTORE POP POP POP POP PUSH1 0x40 MLOAD DUP1 PUSH1 0x60 ADD PUSH1 0x40 MSTORE DUP1 PUSH1 0x32 DUP2 MSTORE PUSH1 0x20 ADD PUSH2 0x2E64 PUSH1 0x32 SWAP2 CODECOPY DUP8 PUSH20 0xFFFFFFFFFFFFFFFFFFFFFFFFFFFFFFFFFFFFFFFF AND PUSH2 0x1A87 SWAP1 SWAP3 SWAP2 SWAP1 PUSH4 0xFFFFFFFF AND JUMP JUMPDEST SWAP1 POP PUSH1 0x0 DUP2 DUP1 PUSH1 0x20 ADD SWAP1 MLOAD DUP2 ADD SWAP1 PUSH2 0x1776 SWAP2 SWAP1 PUSH2 0x1F1E JUMP JUMPDEST SWAP1 POP PUSH4 0x150B7A02 PUSH1 0xE0 SHL PUSH28 0xFFFFFFFFFFFFFFFFFFFFFFFFFFFFFFFFFFFFFFFFFFFFFFFFFFFFFFFF NOT AND DUP2 PUSH28 0xFFFFFFFFFFFFFFFFFFFFFFFFFFFFFFFFFFFFFFFFFFFFFFFFFFFFFFFF NOT AND EQ SWAP3 POP POP POP JUMPDEST SWAP5 SWAP4 POP POP POP POP JUMP JUMPDEST PUSH1 0x0 DUP1 DUP4 PUSH1 0x1 ADD PUSH1 0x0 DUP5 DUP2 MSTORE PUSH1 0x20 ADD SWAP1 DUP2 MSTORE PUSH1 0x20 ADD PUSH1 0x0 KECCAK256 SLOAD EQ ISZERO SWAP1 POP SWAP3 SWAP2 POP POP JUMP JUMPDEST PUSH1 0x0 DUP1 DUP4 PUSH1 0x1 ADD PUSH1 0x0 DUP5 DUP2 MSTORE PUSH1 0x20 ADD SWAP1 DUP2 MSTORE PUSH1 0x20 ADD PUSH1 0x0 KECCAK256 SLOAD SWAP1 POP PUSH1 0x0 DUP2 EQ PUSH2 0x18FC JUMPI PUSH1 0x0 PUSH1 0x1 DUP3 PUSH2 0x1822 SWAP2 SWAP1 PUSH2 0x269A JUMP JUMPDEST SWAP1 POP PUSH1 0x0 PUSH1 0x1 DUP7 PUSH1 0x0 ADD DUP1 SLOAD SWAP1 POP PUSH2 0x183A SWAP2 SWAP1 PUSH2 0x269A JUMP JUMPDEST SWAP1 POP PUSH1 0x0 DUP7 PUSH1 0x0 ADD DUP3 DUP2 SLOAD DUP2 LT PUSH2 0x1854 JUMPI PUSH2 0x1853 PUSH2 0x292F JUMP JUMPDEST JUMPDEST SWAP1 PUSH1 0x0 MSTORE PUSH1 0x20 PUSH1 0x0 KECCAK256 ADD SLOAD SWAP1 POP DUP1 DUP8 PUSH1 0x0 ADD DUP5 DUP2 SLOAD DUP2 LT PUSH2 0x1878 JUMPI PUSH2 0x1877 PUSH2 0x292F JUMP JUMPDEST JUMPDEST SWAP1 PUSH1 0x0 MSTORE PUSH1 0x20 PUSH1 0x0 KECCAK256 ADD DUP2 SWAP1 SSTORE POP PUSH1 0x1 DUP4 PUSH2 0x1893 SWAP2 SWAP1 PUSH2 0x2613 JUMP JUMPDEST DUP8 PUSH1 0x1 ADD PUSH1 0x0 DUP4 DUP2 MSTORE PUSH1 0x20 ADD SWAP1 DUP2 MSTORE PUSH1 0x20 ADD PUSH1 0x0 KECCAK256 DUP2 SWAP1 SSTORE POP DUP7 PUSH1 0x0 ADD DUP1 SLOAD DUP1 PUSH2 0x18C0 JUMPI PUSH2 0x18BF PUSH2 0x2900 JUMP JUMPDEST JUMPDEST PUSH1 0x1 SWAP1 SUB DUP2 DUP2 SWAP1 PUSH1 0x0 MSTORE PUSH1 0x20 PUSH1 0x0 KECCAK256 ADD PUSH1 0x0 SWAP1 SSTORE SWAP1 SSTORE DUP7 PUSH1 0x1 ADD PUSH1 0x0 DUP8 DUP2 MSTORE PUSH1 0x20 ADD SWAP1 DUP2 MSTORE PUSH1 0x20 ADD PUSH1 0x0 KECCAK256 PUSH1 0x0 SWAP1 SSTORE PUSH1 0x1 SWAP5 POP POP POP POP POP PUSH2 0x1902 JUMP JUMPDEST PUSH1 0x0 SWAP2 POP POP JUMPDEST SWAP3 SWAP2 POP POP JUMP JUMPDEST PUSH1 0x0 PUSH2 0x1914 DUP4 DUP4 PUSH2 0x1A9F JUMP JUMPDEST PUSH2 0x196D JUMPI DUP3 PUSH1 0x0 ADD DUP3 SWAP1 DUP1 PUSH1 0x1 DUP2 SLOAD ADD DUP1 DUP3 SSTORE DUP1 SWAP2 POP POP PUSH1 0x1 SWAP1 SUB SWAP1 PUSH1 0x0 MSTORE PUSH1 0x20 PUSH1 0x0 KECCAK256 ADD PUSH1 0x0 SWAP1 SWAP2 SWAP1 SWAP2 SWAP1 SWAP2 POP SSTORE DUP3 PUSH1 0x0 ADD DUP1 SLOAD SWAP1 POP DUP4 PUSH1 0x1 ADD PUSH1 0x0 DUP5 DUP2 MSTORE PUSH1 0x20 ADD SWAP1 DUP2 MSTORE PUSH1 0x20 ADD PUSH1 0x0 KECCAK256 DUP2 SWAP1 SSTORE POP PUSH1 0x1 SWAP1 POP PUSH2 0x1972 JUMP JUMPDEST PUSH1 0x0 SWAP1 POP JUMPDEST SWAP3 SWAP2 POP POP JUMP JUMPDEST PUSH1 0x0 DUP1 DUP5 PUSH1 0x1 ADD PUSH1 0x0 DUP6 DUP2 MSTORE PUSH1 0x20 ADD SWAP1 DUP2 MSTORE PUSH1 0x20 ADD PUSH1 0x0 KECCAK256 SLOAD SWAP1 POP PUSH1 0x0 DUP2 EQ ISZERO PUSH2 0x1A1F JUMPI DUP5 PUSH1 0x0 ADD PUSH1 0x40 MLOAD DUP1 PUSH1 0x40 ADD PUSH1 0x40 MSTORE DUP1 DUP7 DUP2 MSTORE PUSH1 0x20 ADD DUP6 DUP2 MSTORE POP SWAP1 DUP1 PUSH1 0x1 DUP2 SLOAD ADD DUP1 DUP3 SSTORE DUP1 SWAP2 POP POP PUSH1 0x1 SWAP1 SUB SWAP1 PUSH1 0x0 MSTORE PUSH1 0x20 PUSH1 0x0 KECCAK256 SWAP1 PUSH1 0x2 MUL ADD PUSH1 0x0 SWAP1 SWAP2 SWAP1 SWAP2 SWAP1 SWAP2 POP PUSH1 0x0 DUP3 ADD MLOAD DUP2 PUSH1 0x0 ADD SSTORE PUSH1 0x20 DUP3 ADD MLOAD DUP2 PUSH1 0x1 ADD SSTORE POP POP DUP5 PUSH1 0x0 ADD DUP1 SLOAD SWAP1 POP DUP6 PUSH1 0x1 ADD PUSH1 0x0 DUP7 DUP2 MSTORE PUSH1 0x20 ADD SWAP1 DUP2 MSTORE PUSH1 0x20 ADD PUSH1 0x0 KECCAK256 DUP2 SWAP1 SSTORE POP PUSH1 0x1 SWAP2 POP POP PUSH2 0x1A5D JUMP JUMPDEST DUP3 DUP6 PUSH1 0x0 ADD PUSH1 0x1 DUP4 PUSH2 0x1A31 SWAP2 SWAP1 PUSH2 0x269A JUMP JUMPDEST DUP2 SLOAD DUP2 LT PUSH2 0x1A42 JUMPI PUSH2 0x1A41 PUSH2 0x292F JUMP JUMPDEST JUMPDEST SWAP1 PUSH1 0x0 MSTORE PUSH1 0x20 PUSH1 0x0 KECCAK256 SWAP1 PUSH1 0x2 MUL ADD PUSH1 0x1 ADD DUP2 SWAP1 SSTORE POP PUSH1 0x0 SWAP2 POP POP JUMPDEST SWAP4 SWAP3 POP POP POP JUMP JUMPDEST PUSH1 0x0 DUP1 DUP3 PUSH20 0xFFFFFFFFFFFFFFFFFFFFFFFFFFFFFFFFFFFFFFFF AND EXTCODESIZE GT SWAP1 POP SWAP2 SWAP1 POP JUMP JUMPDEST PUSH1 0x60 PUSH2 0x1A96 DUP5 DUP5 PUSH1 0x0 DUP6 PUSH2 0x1AC2 JUMP JUMPDEST SWAP1 POP SWAP4 SWAP3 POP POP POP JUMP JUMPDEST PUSH1 0x0 DUP1 DUP4 PUSH1 0x1 ADD PUSH1 0x0 DUP5 DUP2 MSTORE PUSH1 0x20 ADD SWAP1 DUP2 MSTORE PUSH1 0x20 ADD PUSH1 0x0 KECCAK256 SLOAD EQ ISZERO SWAP1 POP SWAP3 SWAP2 POP POP JUMP JUMPDEST PUSH1 0x60 DUP3 SELFBALANCE LT ISZERO PUSH2 0x1B07 JUMPI PUSH1 0x40 MLOAD PUSH32 0x8C379A000000000000000000000000000000000000000000000000000000000 DUP2 MSTORE PUSH1 0x4 ADD PUSH2 0x1AFE SWAP1 PUSH2 0x23F4 JUMP JUMPDEST PUSH1 0x40 MLOAD DUP1 SWAP2 SUB SWAP1 REVERT JUMPDEST PUSH1 0x0 DUP1 DUP7 PUSH20 0xFFFFFFFFFFFFFFFFFFFFFFFFFFFFFFFFFFFFFFFF AND DUP6 DUP8 PUSH1 0x40 MLOAD PUSH2 0x1B30 SWAP2 SWAP1 PUSH2 0x2295 JUMP JUMPDEST PUSH1 0x0 PUSH1 0x40 MLOAD DUP1 DUP4 SUB DUP2 DUP6 DUP8 GAS CALL SWAP3 POP POP POP RETURNDATASIZE DUP1 PUSH1 0x0 DUP2 EQ PUSH2 0x1B6D JUMPI PUSH1 0x40 MLOAD SWAP2 POP PUSH1 0x1F NOT PUSH1 0x3F RETURNDATASIZE ADD AND DUP3 ADD PUSH1 0x40 MSTORE RETURNDATASIZE DUP3 MSTORE RETURNDATASIZE PUSH1 0x0 PUSH1 0x20 DUP5 ADD RETURNDATACOPY PUSH2 0x1B72 JUMP JUMPDEST PUSH1 0x60 SWAP2 POP JUMPDEST POP SWAP2 POP SWAP2 POP PUSH2 0x1B83 DUP8 DUP4 DUP4 DUP8 PUSH2 0x1B8F JUMP JUMPDEST SWAP3 POP POP POP SWAP5 SWAP4 POP POP POP POP JUMP JUMPDEST PUSH1 0x60 DUP4 ISZERO PUSH2 0x1BF2 JUMPI PUSH1 0x0 DUP4 MLOAD EQ ISZERO PUSH2 0x1BEA JUMPI PUSH2 0x1BAA DUP6 PUSH2 0x1A64 JUMP JUMPDEST PUSH2 0x1BE9 JUMPI PUSH1 0x40 MLOAD PUSH32 0x8C379A000000000000000000000000000000000000000000000000000000000 DUP2 MSTORE PUSH1 0x4 ADD PUSH2 0x1BE0 SWAP1 PUSH2 0x2534 JUMP JUMPDEST PUSH1 0x40 MLOAD DUP1 SWAP2 SUB SWAP1 REVERT JUMPDEST JUMPDEST DUP3 SWAP1 POP PUSH2 0x1BFD JUMP JUMPDEST PUSH2 0x1BFC DUP4 DUP4 PUSH2 0x1C05 JUMP JUMPDEST JUMPDEST SWAP5 SWAP4 POP POP POP POP JUMP JUMPDEST PUSH1 0x0 DUP3 MLOAD GT ISZERO PUSH2 0x1C18 JUMPI DUP2 MLOAD DUP1 DUP4 PUSH1 0x20 ADD REVERT JUMPDEST DUP1 PUSH1 0x40 MLOAD PUSH32 0x8C379A000000000000000000000000000000000000000000000000000000000 DUP2 MSTORE PUSH1 0x4 ADD PUSH2 0x1C4C SWAP2 SWAP1 PUSH2 0x2352 JUMP JUMPDEST PUSH1 0x40 MLOAD DUP1 SWAP2 SUB SWAP1 REVERT JUMPDEST PUSH1 0x0 PUSH2 0x1C68 PUSH2 0x1C63 DUP5 PUSH2 0x2594 JUMP JUMPDEST PUSH2 0x256F JUMP JUMPDEST SWAP1 POP DUP3 DUP2 MSTORE PUSH1 0x20 DUP2 ADD DUP5 DUP5 DUP5 ADD GT ISZERO PUSH2 0x1C84 JUMPI PUSH2 0x1C83 PUSH2 0x2992 JUMP JUMPDEST JUMPDEST PUSH2 0x1C8F DUP5 DUP3 DUP6 PUSH2 0x2754 JUMP JUMPDEST POP SWAP4 SWAP3 POP POP POP JUMP JUMPDEST PUSH1 0x0 DUP2 CALLDATALOAD SWAP1 POP PUSH2 0x1CA6 DUP2 PUSH2 0x2E07 JUMP JUMPDEST SWAP3 SWAP2 POP POP JUMP JUMPDEST PUSH1 0x0 DUP2 CALLDATALOAD SWAP1 POP PUSH2 0x1CBB DUP2 PUSH2 0x2E1E JUMP JUMPDEST SWAP3 SWAP2 POP POP JUMP JUMPDEST PUSH1 0x0 DUP2 CALLDATALOAD SWAP1 POP PUSH2 0x1CD0 DUP2 PUSH2 0x2E35 JUMP JUMPDEST SWAP3 SWAP2 POP POP JUMP JUMPDEST PUSH1 0x0 DUP2 MLOAD SWAP1 POP PUSH2 0x1CE5 DUP2 PUSH2 0x2E35 JUMP JUMPDEST SWAP3 SWAP2 POP POP JUMP JUMPDEST PUSH1 0x0 DUP3 PUSH1 0x1F DUP4 ADD SLT PUSH2 0x1D00 JUMPI PUSH2 0x1CFF PUSH2 0x298D JUMP JUMPDEST JUMPDEST DUP2 CALLDATALOAD PUSH2 0x1D10 DUP5 DUP3 PUSH1 0x20 DUP7 ADD PUSH2 0x1C55 JUMP JUMPDEST SWAP2 POP POP SWAP3 SWAP2 POP POP JUMP JUMPDEST PUSH1 0x0 DUP2 CALLDATALOAD SWAP1 POP PUSH2 0x1D28 DUP2 PUSH2 0x2E4C JUMP JUMPDEST SWAP3 SWAP2 POP POP JUMP JUMPDEST PUSH1 0x0 PUSH1 0x20 DUP3 DUP5 SUB SLT ISZERO PUSH2 0x1D44 JUMPI PUSH2 0x1D43 PUSH2 0x299C JUMP JUMPDEST JUMPDEST PUSH1 0x0 PUSH2 0x1D52 DUP5 DUP3 DUP6 ADD PUSH2 0x1C97 JUMP JUMPDEST SWAP2 POP POP SWAP3 SWAP2 POP POP JUMP JUMPDEST PUSH1 0x0 DUP1 PUSH1 0x40 DUP4 DUP6 SUB SLT ISZERO PUSH2 0x1D72 JUMPI PUSH2 0x1D71 PUSH2 0x299C JUMP JUMPDEST JUMPDEST PUSH1 0x0 PUSH2 0x1D80 DUP6 DUP3 DUP7 ADD PUSH2 0x1C97 JUMP JUMPDEST SWAP3 POP POP PUSH1 0x20 PUSH2 0x1D91 DUP6 DUP3 DUP7 ADD PUSH2 0x1C97 JUMP JUMPDEST SWAP2 POP POP SWAP3 POP SWAP3 SWAP1 POP JUMP JUMPDEST PUSH1 0x0 DUP1 PUSH1 0x0 PUSH1 0x60 DUP5 DUP7 SUB SLT ISZERO PUSH2 0x1DB4 JUMPI PUSH2 0x1DB3 PUSH2 0x299C JUMP JUMPDEST JUMPDEST PUSH1 0x0 PUSH2 0x1DC2 DUP7 DUP3 DUP8 ADD PUSH2 0x1C97 JUMP JUMPDEST SWAP4 POP POP PUSH1 0x20 PUSH2 0x1DD3 DUP7 DUP3 DUP8 ADD PUSH2 0x1C97 JUMP JUMPDEST SWAP3 POP POP PUSH1 0x40 PUSH2 0x1DE4 DUP7 DUP3 DUP8 ADD PUSH2 0x1D19 JUMP JUMPDEST SWAP2 POP POP SWAP3 POP SWAP3 POP SWAP3 JUMP JUMPDEST PUSH1 0x0 DUP1 PUSH1 0x0 DUP1 PUSH1 0x80 DUP6 DUP8 SUB SLT ISZERO PUSH2 0x1E08 JUMPI PUSH2 0x1E07 PUSH2 0x299C JUMP JUMPDEST JUMPDEST PUSH1 0x0 PUSH2 0x1E16 DUP8 DUP3 DUP9 ADD PUSH2 0x1C97 JUMP JUMPDEST SWAP5 POP POP PUSH1 0x20 PUSH2 0x1E27 DUP8 DUP3 DUP9 ADD PUSH2 0x1C97 JUMP JUMPDEST SWAP4 POP POP PUSH1 0x40 PUSH2 0x1E38 DUP8 DUP3 DUP9 ADD PUSH2 0x1D19 JUMP JUMPDEST SWAP3 POP POP PUSH1 0x60 DUP6 ADD CALLDATALOAD PUSH8 0xFFFFFFFFFFFFFFFF DUP2 GT ISZERO PUSH2 0x1E59 JUMPI PUSH2 0x1E58 PUSH2 0x2997 JUMP JUMPDEST JUMPDEST PUSH2 0x1E65 DUP8 DUP3 DUP9 ADD PUSH2 0x1CEB JUMP JUMPDEST SWAP2 POP POP SWAP3 SWAP6 SWAP2 SWAP5 POP SWAP3 POP JUMP JUMPDEST PUSH1 0x0 DUP1 PUSH1 0x40 DUP4 DUP6 SUB SLT ISZERO PUSH2 0x1E88 JUMPI PUSH2 0x1E87 PUSH2 0x299C JUMP JUMPDEST JUMPDEST PUSH1 0x0 PUSH2 0x1E96 DUP6 DUP3 DUP7 ADD PUSH2 0x1C97 JUMP JUMPDEST SWAP3 POP POP PUSH1 0x20 PUSH2 0x1EA7 DUP6 DUP3 DUP7 ADD PUSH2 0x1CAC JUMP JUMPDEST SWAP2 POP POP SWAP3 POP SWAP3 SWAP1 POP JUMP JUMPDEST PUSH1 0x0 DUP1 PUSH1 0x40 DUP4 DUP6 SUB SLT ISZERO PUSH2 0x1EC8 JUMPI PUSH2 0x1EC7 PUSH2 0x299C JUMP JUMPDEST JUMPDEST PUSH1 0x0 PUSH2 0x1ED6 DUP6 DUP3 DUP7 ADD PUSH2 0x1C97 JUMP JUMPDEST SWAP3 POP POP PUSH1 0x20 PUSH2 0x1EE7 DUP6 DUP3 DUP7 ADD PUSH2 0x1D19 JUMP JUMPDEST SWAP2 POP POP SWAP3 POP SWAP3 SWAP1 POP JUMP JUMPDEST PUSH1 0x0 PUSH1 0x20 DUP3 DUP5 SUB SLT ISZERO PUSH2 0x1F07 JUMPI PUSH2 0x1F06 PUSH2 0x299C JUMP JUMPDEST JUMPDEST PUSH1 0x0 PUSH2 0x1F15 DUP5 DUP3 DUP6 ADD PUSH2 0x1CC1 JUMP JUMPDEST SWAP2 POP POP SWAP3 SWAP2 POP POP JUMP JUMPDEST PUSH1 0x0 PUSH1 0x20 DUP3 DUP5 SUB SLT ISZERO PUSH2 0x1F34 JUMPI PUSH2 0x1F33 PUSH2 0x299C JUMP JUMPDEST JUMPDEST PUSH1 0x0 PUSH2 0x1F42 DUP5 DUP3 DUP6 ADD PUSH2 0x1CD6 JUMP JUMPDEST SWAP2 POP POP SWAP3 SWAP2 POP POP JUMP JUMPDEST PUSH1 0x0 PUSH1 0x20 DUP3 DUP5 SUB SLT ISZERO PUSH2 0x1F61 JUMPI PUSH2 0x1F60 PUSH2 0x299C JUMP JUMPDEST JUMPDEST PUSH1 0x0 PUSH2 0x1F6F DUP5 DUP3 DUP6 ADD PUSH2 0x1D19 JUMP JUMPDEST SWAP2 POP POP SWAP3 SWAP2 POP POP JUMP JUMPDEST PUSH2 0x1F81 DUP2 PUSH2 0x26E0 JUMP JUMPDEST DUP3 MSTORE POP POP JUMP JUMPDEST PUSH2 0x1F90 DUP2 PUSH2 0x26CE JUMP JUMPDEST DUP3 MSTORE POP POP JUMP JUMPDEST PUSH2 0x1F9F DUP2 PUSH2 0x26F2 JUMP JUMPDEST DUP3 MSTORE POP POP JUMP JUMPDEST PUSH1 0x0 PUSH2 0x1FB0 DUP3 PUSH2 0x25C5 JUMP JUMPDEST PUSH2 0x1FBA DUP2 DUP6 PUSH2 0x25DB JUMP JUMPDEST SWAP4 POP PUSH2 0x1FCA DUP2 DUP6 PUSH1 0x20 DUP7 ADD PUSH2 0x2763 JUMP JUMPDEST PUSH2 0x1FD3 DUP2 PUSH2 0x29A1 JUMP JUMPDEST DUP5 ADD SWAP2 POP POP SWAP3 SWAP2 POP POP JUMP JUMPDEST PUSH1 0x0 PUSH2 0x1FE9 DUP3 PUSH2 0x25C5 JUMP JUMPDEST PUSH2 0x1FF3 DUP2 DUP6 PUSH2 0x25EC JUMP JUMPDEST SWAP4 POP PUSH2 0x2003 DUP2 DUP6 PUSH1 0x20 DUP7 ADD PUSH2 0x2763 JUMP JUMPDEST DUP1 DUP5 ADD SWAP2 POP POP SWAP3 SWAP2 POP POP JUMP JUMPDEST PUSH1 0x0 PUSH2 0x201A DUP3 PUSH2 0x25D0 JUMP JUMPDEST PUSH2 0x2024 DUP2 DUP6 PUSH2 0x25F7 JUMP JUMPDEST SWAP4 POP PUSH2 0x2034 DUP2 DUP6 PUSH1 0x20 DUP7 ADD PUSH2 0x2763 JUMP JUMPDEST PUSH2 0x203D DUP2 PUSH2 0x29A1 JUMP JUMPDEST DUP5 ADD SWAP2 POP POP SWAP3 SWAP2 POP POP JUMP JUMPDEST PUSH1 0x0 PUSH2 0x2053 DUP3 PUSH2 0x25D0 JUMP JUMPDEST PUSH2 0x205D DUP2 DUP6 PUSH2 0x2608 JUMP JUMPDEST SWAP4 POP PUSH2 0x206D DUP2 DUP6 PUSH1 0x20 DUP7 ADD PUSH2 0x2763 JUMP JUMPDEST DUP1 DUP5 ADD SWAP2 POP POP SWAP3 SWAP2 POP POP JUMP JUMPDEST PUSH1 0x0 PUSH2 0x2086 PUSH1 0x22 DUP4 PUSH2 0x25F7 JUMP JUMPDEST SWAP2 POP PUSH2 0x2091 DUP3 PUSH2 0x29B2 JUMP JUMPDEST PUSH1 0x40 DUP3 ADD SWAP1 POP SWAP2 SWAP1 POP JUMP JUMPDEST PUSH1 0x0 PUSH2 0x20A9 PUSH1 0x32 DUP4 PUSH2 0x25F7 JUMP JUMPDEST SWAP2 POP PUSH2 0x20B4 DUP3 PUSH2 0x2A01 JUMP JUMPDEST PUSH1 0x40 DUP3 ADD SWAP1 POP SWAP2 SWAP1 POP JUMP JUMPDEST PUSH1 0x0 PUSH2 0x20CC PUSH1 0x24 DUP4 PUSH2 0x25F7 JUMP JUMPDEST SWAP2 POP PUSH2 0x20D7 DUP3 PUSH2 0x2A50 JUMP JUMPDEST PUSH1 0x40 DUP3 ADD SWAP1 POP SWAP2 SWAP1 POP JUMP JUMPDEST PUSH1 0x0 PUSH2 0x20EF PUSH1 0x19 DUP4 PUSH2 0x25F7 JUMP JUMPDEST SWAP2 POP PUSH2 0x20FA DUP3 PUSH2 0x2A9F JUMP JUMPDEST PUSH1 0x20 DUP3 ADD SWAP1 POP SWAP2 SWAP1 POP JUMP JUMPDEST PUSH1 0x0 PUSH2 0x2112 PUSH1 0x26 DUP4 PUSH2 0x25F7 JUMP JUMPDEST SWAP2 POP PUSH2 0x211D DUP3 PUSH2 0x2AC8 JUMP JUMPDEST PUSH1 0x40 DUP3 ADD SWAP1 POP SWAP2 SWAP1 POP JUMP JUMPDEST PUSH1 0x0 PUSH2 0x2135 PUSH1 0x2C DUP4 PUSH2 0x25F7 JUMP JUMPDEST SWAP2 POP PUSH2 0x2140 DUP3 PUSH2 0x2B17 JUMP JUMPDEST PUSH1 0x40 DUP3 ADD SWAP1 POP SWAP2 SWAP1 POP JUMP JUMPDEST PUSH1 0x0 PUSH2 0x2158 PUSH1 0x38 DUP4 PUSH2 0x25F7 JUMP JUMPDEST SWAP2 POP PUSH2 0x2163 DUP3 PUSH2 0x2B66 JUMP JUMPDEST PUSH1 0x40 DUP3 ADD SWAP1 POP SWAP2 SWAP1 POP JUMP JUMPDEST PUSH1 0x0 PUSH2 0x217B PUSH1 0x2A DUP4 PUSH2 0x25F7 JUMP JUMPDEST SWAP2 POP PUSH2 0x2186 DUP3 PUSH2 0x2BB5 JUMP JUMPDEST PUSH1 0x40 DUP3 ADD SWAP1 POP SWAP2 SWAP1 POP JUMP JUMPDEST PUSH1 0x0 PUSH2 0x219E PUSH1 0x22 DUP4 PUSH2 0x25F7 JUMP JUMPDEST SWAP2 POP PUSH2 0x21A9 DUP3 PUSH2 0x2C04 JUMP JUMPDEST PUSH1 0x40 DUP3 ADD SWAP1 POP SWAP2 SWAP1 POP JUMP JUMPDEST PUSH1 0x0 PUSH2 0x21C1 PUSH1 0x2C DUP4 PUSH2 0x25F7 JUMP JUMPDEST SWAP2 POP PUSH2 0x21CC DUP3 PUSH2 0x2C53 JUMP JUMPDEST PUSH1 0x40 DUP3 ADD SWAP1 POP SWAP2 SWAP1 POP JUMP JUMPDEST PUSH1 0x0 PUSH2 0x21E4 PUSH1 0x29 DUP4 PUSH2 0x25F7 JUMP JUMPDEST SWAP2 POP PUSH2 0x21EF DUP3 PUSH2 0x2CA2 JUMP JUMPDEST PUSH1 0x40 DUP3 ADD SWAP1 POP SWAP2 SWAP1 POP JUMP JUMPDEST PUSH1 0x0 PUSH2 0x2207 PUSH1 0x2F DUP4 PUSH2 0x25F7 JUMP JUMPDEST SWAP2 POP PUSH2 0x2212 DUP3 PUSH2 0x2CF1 JUMP JUMPDEST PUSH1 0x40 DUP3 ADD SWAP1 POP SWAP2 SWAP1 POP JUMP JUMPDEST PUSH1 0x0 PUSH2 0x222A PUSH1 0x21 DUP4 PUSH2 0x25F7 JUMP JUMPDEST SWAP2 POP PUSH2 0x2235 DUP3 PUSH2 0x2D40 JUMP JUMPDEST PUSH1 0x40 DUP3 ADD SWAP1 POP SWAP2 SWAP1 POP JUMP JUMPDEST PUSH1 0x0 PUSH2 0x224D PUSH1 0x31 DUP4 PUSH2 0x25F7 JUMP JUMPDEST SWAP2 POP PUSH2 0x2258 DUP3 PUSH2 0x2D8F JUMP JUMPDEST PUSH1 0x40 DUP3 ADD SWAP1 POP SWAP2 SWAP1 POP JUMP JUMPDEST PUSH1 0x0 PUSH2 0x2270 PUSH1 0x1D DUP4 PUSH2 0x25F7 JUMP JUMPDEST SWAP2 POP PUSH2 0x227B DUP3 PUSH2 0x2DDE JUMP JUMPDEST PUSH1 0x20 DUP3 ADD SWAP1 POP SWAP2 SWAP1 POP JUMP JUMPDEST PUSH2 0x228F DUP2 PUSH2 0x274A JUMP JUMPDEST DUP3 MSTORE POP POP JUMP JUMPDEST PUSH1 0x0 PUSH2 0x22A1 DUP3 DUP5 PUSH2 0x1FDE JUMP JUMPDEST SWAP2 POP DUP2 SWAP1 POP SWAP3 SWAP2 POP POP JUMP JUMPDEST PUSH1 0x0 PUSH2 0x22B8 DUP3 DUP6 PUSH2 0x2048 JUMP JUMPDEST SWAP2 POP PUSH2 0x22C4 DUP3 DUP5 PUSH2 0x2048 JUMP JUMPDEST SWAP2 POP DUP2 SWAP1 POP SWAP4 SWAP3 POP POP POP JUMP JUMPDEST PUSH1 0x0 PUSH1 0x20 DUP3 ADD SWAP1 POP PUSH2 0x22E5 PUSH1 0x0 DUP4 ADD DUP5 PUSH2 0x1F87 JUMP JUMPDEST SWAP3 SWAP2 POP POP JUMP JUMPDEST PUSH1 0x0 PUSH1 0x80 DUP3 ADD SWAP1 POP PUSH2 0x2300 PUSH1 0x0 DUP4 ADD DUP8 PUSH2 0x1F78 JUMP JUMPDEST PUSH2 0x230D PUSH1 0x20 DUP4 ADD DUP7 PUSH2 0x1F87 JUMP JUMPDEST PUSH2 0x231A PUSH1 0x40 DUP4 ADD DUP6 PUSH2 0x2286 JUMP JUMPDEST DUP2 DUP2 SUB PUSH1 0x60 DUP4 ADD MSTORE PUSH2 0x232C DUP2 DUP5 PUSH2 0x1FA5 JUMP JUMPDEST SWAP1 POP SWAP6 SWAP5 POP POP POP POP POP JUMP JUMPDEST PUSH1 0x0 PUSH1 0x20 DUP3 ADD SWAP1 POP PUSH2 0x234C PUSH1 0x0 DUP4 ADD DUP5 PUSH2 0x1F96 JUMP JUMPDEST SWAP3 SWAP2 POP POP JUMP JUMPDEST PUSH1 0x0 PUSH1 0x20 DUP3 ADD SWAP1 POP DUP2 DUP2 SUB PUSH1 0x0 DUP4 ADD MSTORE PUSH2 0x236C DUP2 DUP5 PUSH2 0x200F JUMP JUMPDEST SWAP1 POP SWAP3 SWAP2 POP POP JUMP JUMPDEST PUSH1 0x0 PUSH1 0x20 DUP3 ADD SWAP1 POP DUP2 DUP2 SUB PUSH1 0x0 DUP4 ADD MSTORE PUSH2 0x238D DUP2 PUSH2 0x2079 JUMP JUMPDEST SWAP1 POP SWAP2 SWAP1 POP JUMP JUMPDEST PUSH1 0x0 PUSH1 0x20 DUP3 ADD SWAP1 POP DUP2 DUP2 SUB PUSH1 0x0 DUP4 ADD MSTORE PUSH2 0x23AD DUP2 PUSH2 0x209C JUMP JUMPDEST SWAP1 POP SWAP2 SWAP1 POP JUMP JUMPDEST PUSH1 0x0 PUSH1 0x20 DUP3 ADD SWAP1 POP DUP2 DUP2 SUB PUSH1 0x0 DUP4 ADD MSTORE PUSH2 0x23CD DUP2 PUSH2 0x20BF JUMP JUMPDEST SWAP1 POP SWAP2 SWAP1 POP JUMP JUMPDEST PUSH1 0x0 PUSH1 0x20 DUP3 ADD SWAP1 POP DUP2 DUP2 SUB PUSH1 0x0 DUP4 ADD MSTORE PUSH2 0x23ED DUP2 PUSH2 0x20E2 JUMP JUMPDEST SWAP1 POP SWAP2 SWAP1 POP JUMP JUMPDEST PUSH1 0x0 PUSH1 0x20 DUP3 ADD SWAP1 POP DUP2 DUP2 SUB PUSH1 0x0 DUP4 ADD MSTORE PUSH2 0x240D DUP2 PUSH2 0x2105 JUMP JUMPDEST SWAP1 POP SWAP2 SWAP1 POP JUMP JUMPDEST PUSH1 0x0 PUSH1 0x20 DUP3 ADD SWAP1 POP DUP2 DUP2 SUB PUSH1 0x0 DUP4 ADD MSTORE PUSH2 0x242D DUP2 PUSH2 0x2128 JUMP JUMPDEST SWAP1 POP SWAP2 SWAP1 POP JUMP JUMPDEST PUSH1 0x0 PUSH1 0x20 DUP3 ADD SWAP1 POP DUP2 DUP2 SUB PUSH1 0x0 DUP4 ADD MSTORE PUSH2 0x244D DUP2 PUSH2 0x214B JUMP JUMPDEST SWAP1 POP SWAP2 SWAP1 POP JUMP JUMPDEST PUSH1 0x0 PUSH1 0x20 DUP3 ADD SWAP1 POP DUP2 DUP2 SUB PUSH1 0x0 DUP4 ADD MSTORE PUSH2 0x246D DUP2 PUSH2 0x216E JUMP JUMPDEST SWAP1 POP SWAP2 SWAP1 POP JUMP JUMPDEST PUSH1 0x0 PUSH1 0x20 DUP3 ADD SWAP1 POP DUP2 DUP2 SUB PUSH1 0x0 DUP4 ADD MSTORE PUSH2 0x248D DUP2 PUSH2 0x2191 JUMP JUMPDEST SWAP1 POP SWAP2 SWAP1 POP JUMP JUMPDEST PUSH1 0x0 PUSH1 0x20 DUP3 ADD SWAP1 POP DUP2 DUP2 SUB PUSH1 0x0 DUP4 ADD MSTORE PUSH2 0x24AD DUP2 PUSH2 0x21B4 JUMP JUMPDEST SWAP1 POP SWAP2 SWAP1 POP JUMP JUMPDEST PUSH1 0x0 PUSH1 0x20 DUP3 ADD SWAP1 POP DUP2 DUP2 SUB PUSH1 0x0 DUP4 ADD MSTORE PUSH2 0x24CD DUP2 PUSH2 0x21D7 JUMP JUMPDEST SWAP1 POP SWAP2 SWAP1 POP JUMP JUMPDEST PUSH1 0x0 PUSH1 0x20 DUP3 ADD SWAP1 POP DUP2 DUP2 SUB PUSH1 0x0 DUP4 ADD MSTORE PUSH2 0x24ED DUP2 PUSH2 0x21FA JUMP JUMPDEST SWAP1 POP SWAP2 SWAP1 POP JUMP JUMPDEST PUSH1 0x0 PUSH1 0x20 DUP3 ADD SWAP1 POP DUP2 DUP2 SUB PUSH1 0x0 DUP4 ADD MSTORE PUSH2 0x250D DUP2 PUSH2 0x221D JUMP JUMPDEST SWAP1 POP SWAP2 SWAP1 POP JUMP JUMPDEST PUSH1 0x0 PUSH1 0x20 DUP3 ADD SWAP1 POP DUP2 DUP2 SUB PUSH1 0x0 DUP4 ADD MSTORE PUSH2 0x252D DUP2 PUSH2 0x2240 JUMP JUMPDEST SWAP1 POP SWAP2 SWAP1 POP JUMP JUMPDEST PUSH1 0x0 PUSH1 0x20 DUP3 ADD SWAP1 POP DUP2 DUP2 SUB PUSH1 0x0 DUP4 ADD MSTORE PUSH2 0x254D DUP2 PUSH2 0x2263 JUMP JUMPDEST SWAP1 POP SWAP2 SWAP1 POP JUMP JUMPDEST PUSH1 0x0 PUSH1 0x20 DUP3 ADD SWAP1 POP PUSH2 0x2569 PUSH1 0x0 DUP4 ADD DUP5 PUSH2 0x2286 JUMP JUMPDEST SWAP3 SWAP2 POP POP JUMP JUMPDEST PUSH1 0x0 PUSH2 0x2579 PUSH2 0x258A JUMP JUMPDEST SWAP1 POP PUSH2 0x2585 DUP3 DUP3 PUSH2 0x27C8 JUMP JUMPDEST SWAP2 SWAP1 POP JUMP JUMPDEST PUSH1 0x0 PUSH1 0x40 MLOAD SWAP1 POP SWAP1 JUMP JUMPDEST PUSH1 0x0 PUSH8 0xFFFFFFFFFFFFFFFF DUP3 GT ISZERO PUSH2 0x25AF JUMPI PUSH2 0x25AE PUSH2 0x295E JUMP JUMPDEST JUMPDEST PUSH2 0x25B8 DUP3 PUSH2 0x29A1 JUMP JUMPDEST SWAP1 POP PUSH1 0x20 DUP2 ADD SWAP1 POP SWAP2 SWAP1 POP JUMP JUMPDEST PUSH1 0x0 DUP2 MLOAD SWAP1 POP SWAP2 SWAP1 POP JUMP JUMPDEST PUSH1 0x0 DUP2 MLOAD SWAP1 POP SWAP2 SWAP1 POP JUMP JUMPDEST PUSH1 0x0 DUP3 DUP3 MSTORE PUSH1 0x20 DUP3 ADD SWAP1 POP SWAP3 SWAP2 POP POP JUMP JUMPDEST PUSH1 0x0 DUP2 SWAP1 POP SWAP3 SWAP2 POP POP JUMP JUMPDEST PUSH1 0x0 DUP3 DUP3 MSTORE PUSH1 0x20 DUP3 ADD SWAP1 POP SWAP3 SWAP2 POP POP JUMP JUMPDEST PUSH1 0x0 DUP2 SWAP1 POP SWAP3 SWAP2 POP POP JUMP JUMPDEST PUSH1 0x0 PUSH2 0x261E DUP3 PUSH2 0x274A JUMP JUMPDEST SWAP2 POP PUSH2 0x2629 DUP4 PUSH2 0x274A JUMP JUMPDEST SWAP3 POP DUP3 PUSH32 0xFFFFFFFFFFFFFFFFFFFFFFFFFFFFFFFFFFFFFFFFFFFFFFFFFFFFFFFFFFFFFFFF SUB DUP3 GT ISZERO PUSH2 0x265E JUMPI PUSH2 0x265D PUSH2 0x2873 JUMP JUMPDEST JUMPDEST DUP3 DUP3 ADD SWAP1 POP SWAP3 SWAP2 POP POP JUMP JUMPDEST PUSH1 0x0 PUSH2 0x2674 DUP3 PUSH2 0x274A JUMP JUMPDEST SWAP2 POP PUSH2 0x267F DUP4 PUSH2 0x274A JUMP JUMPDEST SWAP3 POP DUP3 PUSH2 0x268F JUMPI PUSH2 0x268E PUSH2 0x28A2 JUMP JUMPDEST JUMPDEST DUP3 DUP3 DIV SWAP1 POP SWAP3 SWAP2 POP POP JUMP JUMPDEST PUSH1 0x0 PUSH2 0x26A5 DUP3 PUSH2 0x274A JUMP JUMPDEST SWAP2 POP PUSH2 0x26B0 DUP4 PUSH2 0x274A JUMP JUMPDEST SWAP3 POP DUP3 DUP3 LT ISZERO PUSH2 0x26C3 JUMPI PUSH2 0x26C2 PUSH2 0x2873 JUMP JUMPDEST JUMPDEST DUP3 DUP3 SUB SWAP1 POP SWAP3 SWAP2 POP POP JUMP JUMPDEST PUSH1 0x0 PUSH2 0x26D9 DUP3 PUSH2 0x272A JUMP JUMPDEST SWAP1 POP SWAP2 SWAP1 POP JUMP JUMPDEST PUSH1 0x0 PUSH2 0x26EB DUP3 PUSH2 0x272A JUMP JUMPDEST SWAP1 POP SWAP2 SWAP1 POP JUMP JUMPDEST PUSH1 0x0 DUP2 ISZERO ISZERO SWAP1 POP SWAP2 SWAP1 POP JUMP JUMPDEST PUSH1 0x0 PUSH32 0xFFFFFFFF00000000000000000000000000000000000000000000000000000000 DUP3 AND SWAP1 POP SWAP2 SWAP1 POP JUMP JUMPDEST PUSH1 0x0 PUSH20 0xFFFFFFFFFFFFFFFFFFFFFFFFFFFFFFFFFFFFFFFF DUP3 AND SWAP1 POP SWAP2 SWAP1 POP JUMP JUMPDEST PUSH1 0x0 DUP2 SWAP1 POP SWAP2 SWAP1 POP JUMP JUMPDEST DUP3 DUP2 DUP4 CALLDATACOPY PUSH1 0x0 DUP4 DUP4 ADD MSTORE POP POP POP JUMP JUMPDEST PUSH1 0x0 JUMPDEST DUP4 DUP2 LT ISZERO PUSH2 0x2781 JUMPI DUP1 DUP3 ADD MLOAD DUP2 DUP5 ADD MSTORE PUSH1 0x20 DUP2 ADD SWAP1 POP PUSH2 0x2766 JUMP JUMPDEST DUP4 DUP2 GT ISZERO PUSH2 0x2790 JUMPI PUSH1 0x0 DUP5 DUP5 ADD MSTORE JUMPDEST POP POP POP POP JUMP JUMPDEST PUSH1 0x0 PUSH1 0x2 DUP3 DIV SWAP1 POP PUSH1 0x1 DUP3 AND DUP1 PUSH2 0x27AE JUMPI PUSH1 0x7F DUP3 AND SWAP2 POP JUMPDEST PUSH1 0x20 DUP3 LT DUP2 EQ ISZERO PUSH2 0x27C2 JUMPI PUSH2 0x27C1 PUSH2 0x28D1 JUMP JUMPDEST JUMPDEST POP SWAP2 SWAP1 POP JUMP JUMPDEST PUSH2 0x27D1 DUP3 PUSH2 0x29A1 JUMP JUMPDEST DUP2 ADD DUP2 DUP2 LT PUSH8 0xFFFFFFFFFFFFFFFF DUP3 GT OR ISZERO PUSH2 0x27F0 JUMPI PUSH2 0x27EF PUSH2 0x295E JUMP JUMPDEST JUMPDEST DUP1 PUSH1 0x40 MSTORE POP POP POP JUMP JUMPDEST PUSH1 0x0 PUSH2 0x2804 DUP3 PUSH2 0x274A JUMP JUMPDEST SWAP2 POP PUSH32 0xFFFFFFFFFFFFFFFFFFFFFFFFFFFFFFFFFFFFFFFFFFFFFFFFFFFFFFFFFFFFFFFF DUP3 EQ ISZERO PUSH2 0x2837 JUMPI PUSH2 0x2836 PUSH2 0x2873 JUMP JUMPDEST JUMPDEST PUSH1 0x1 DUP3 ADD SWAP1 POP SWAP2 SWAP1 POP JUMP JUMPDEST PUSH1 0x0 PUSH2 0x284D DUP3 PUSH2 0x274A JUMP JUMPDEST SWAP2 POP PUSH2 0x2858 DUP4 PUSH2 0x274A JUMP JUMPDEST SWAP3 POP DUP3 PUSH2 0x2868 JUMPI PUSH2 0x2867 PUSH2 0x28A2 JUMP JUMPDEST JUMPDEST DUP3 DUP3 MOD SWAP1 POP SWAP3 SWAP2 POP POP JUMP JUMPDEST PUSH32 0x4E487B7100000000000000000000000000000000000000000000000000000000 PUSH1 0x0 MSTORE PUSH1 0x11 PUSH1 0x4 MSTORE PUSH1 0x24 PUSH1 0x0 REVERT JUMPDEST PUSH32 0x4E487B7100000000000000000000000000000000000000000000000000000000 PUSH1 0x0 MSTORE PUSH1 0x12 PUSH1 0x4 MSTORE PUSH1 0x24 PUSH1 0x0 REVERT JUMPDEST PUSH32 0x4E487B7100000000000000000000000000000000000000000000000000000000 PUSH1 0x0 MSTORE PUSH1 0x22 PUSH1 0x4 MSTORE PUSH1 0x24 PUSH1 0x0 REVERT JUMPDEST PUSH32 0x4E487B7100000000000000000000000000000000000000000000000000000000 PUSH1 0x0 MSTORE PUSH1 0x31 PUSH1 0x4 MSTORE PUSH1 0x24 PUSH1 0x0 REVERT JUMPDEST PUSH32 0x4E487B7100000000000000000000000000000000000000000000000000000000 PUSH1 0x0 MSTORE PUSH1 0x32 PUSH1 0x4 MSTORE PUSH1 0x24 PUSH1 0x0 REVERT JUMPDEST PUSH32 0x4E487B7100000000000000000000000000000000000000000000000000000000 PUSH1 0x0 MSTORE PUSH1 0x41 PUSH1 0x4 MSTORE PUSH1 0x24 PUSH1 0x0 REVERT JUMPDEST PUSH1 0x0 DUP1 REVERT JUMPDEST PUSH1 0x0 DUP1 REVERT JUMPDEST PUSH1 0x0 DUP1 REVERT JUMPDEST PUSH1 0x0 DUP1 REVERT JUMPDEST PUSH1 0x0 PUSH1 0x1F NOT PUSH1 0x1F DUP4 ADD AND SWAP1 POP SWAP2 SWAP1 POP JUMP JUMPDEST PUSH32 0x456E756D657261626C655365743A20696E646578206F7574206F6620626F756E PUSH1 0x0 DUP3 ADD MSTORE PUSH32 0x6473000000000000000000000000000000000000000000000000000000000000 PUSH1 0x20 DUP3 ADD MSTORE POP JUMP JUMPDEST PUSH32 0x4552433732313A207472616E7366657220746F206E6F6E204552433732315265 PUSH1 0x0 DUP3 ADD MSTORE PUSH32 0x63656976657220696D706C656D656E7465720000000000000000000000000000 PUSH1 0x20 DUP3 ADD MSTORE POP JUMP JUMPDEST PUSH32 0x4552433732313A207472616E7366657220746F20746865207A65726F20616464 PUSH1 0x0 DUP3 ADD MSTORE PUSH32 0x7265737300000000000000000000000000000000000000000000000000000000 PUSH1 0x20 DUP3 ADD MSTORE POP JUMP JUMPDEST PUSH32 0x4552433732313A20617070726F766520746F2063616C6C657200000000000000 PUSH1 0x0 DUP3 ADD MSTORE POP JUMP JUMPDEST PUSH32 0x416464726573733A20696E73756666696369656E742062616C616E636520666F PUSH1 0x0 DUP3 ADD MSTORE PUSH32 0x722063616C6C0000000000000000000000000000000000000000000000000000 PUSH1 0x20 DUP3 ADD MSTORE POP JUMP JUMPDEST PUSH32 0x4552433732313A206F70657261746F7220717565727920666F72206E6F6E6578 PUSH1 0x0 DUP3 ADD MSTORE PUSH32 0x697374656E7420746F6B656E0000000000000000000000000000000000000000 PUSH1 0x20 DUP3 ADD MSTORE POP JUMP JUMPDEST PUSH32 0x4552433732313A20617070726F76652063616C6C6572206973206E6F74206F77 PUSH1 0x0 DUP3 ADD MSTORE PUSH32 0x6E6572206E6F7220617070726F76656420666F7220616C6C0000000000000000 PUSH1 0x20 DUP3 ADD MSTORE POP JUMP JUMPDEST PUSH32 0x4552433732313A2062616C616E636520717565727920666F7220746865207A65 PUSH1 0x0 DUP3 ADD MSTORE PUSH32 0x726F206164647265737300000000000000000000000000000000000000000000 PUSH1 0x20 DUP3 ADD MSTORE POP JUMP JUMPDEST PUSH32 0x456E756D657261626C654D61703A20696E646578206F7574206F6620626F756E PUSH1 0x0 DUP3 ADD MSTORE PUSH32 0x6473000000000000000000000000000000000000000000000000000000000000 PUSH1 0x20 DUP3 ADD MSTORE POP JUMP JUMPDEST PUSH32 0x4552433732313A20617070726F76656420717565727920666F72206E6F6E6578 PUSH1 0x0 DUP3 ADD MSTORE PUSH32 0x697374656E7420746F6B656E0000000000000000000000000000000000000000 PUSH1 0x20 DUP3 ADD MSTORE POP JUMP JUMPDEST PUSH32 0x4552433732313A207472616E73666572206F6620746F6B656E20746861742069 PUSH1 0x0 DUP3 ADD MSTORE PUSH32 0x73206E6F74206F776E0000000000000000000000000000000000000000000000 PUSH1 0x20 DUP3 ADD MSTORE POP JUMP JUMPDEST PUSH32 0x4552433732314D657461646174613A2055524920717565727920666F72206E6F PUSH1 0x0 DUP3 ADD MSTORE PUSH32 0x6E6578697374656E7420746F6B656E0000000000000000000000000000000000 PUSH1 0x20 DUP3 ADD MSTORE POP JUMP JUMPDEST PUSH32 0x4552433732313A20617070726F76616C20746F2063757272656E74206F776E65 PUSH1 0x0 DUP3 ADD MSTORE PUSH32 0x7200000000000000000000000000000000000000000000000000000000000000 PUSH1 0x20 DUP3 ADD MSTORE POP JUMP JUMPDEST PUSH32 0x4552433732313A207472616E736665722063616C6C6572206973206E6F74206F PUSH1 0x0 DUP3 ADD MSTORE PUSH32 0x776E6572206E6F7220617070726F766564000000000000000000000000000000 PUSH1 0x20 DUP3 ADD MSTORE POP JUMP JUMPDEST PUSH32 0x416464726573733A2063616C6C20746F206E6F6E2D636F6E7472616374000000 PUSH1 0x0 DUP3 ADD MSTORE POP JUMP JUMPDEST PUSH2 0x2E10 DUP2 PUSH2 0x26CE JUMP JUMPDEST DUP2 EQ PUSH2 0x2E1B JUMPI PUSH1 0x0 DUP1 REVERT JUMPDEST POP JUMP JUMPDEST PUSH2 0x2E27 DUP2 PUSH2 0x26F2 JUMP JUMPDEST DUP2 EQ PUSH2 0x2E32 JUMPI PUSH1 0x0 DUP1 REVERT JUMPDEST POP JUMP JUMPDEST PUSH2 0x2E3E DUP2 PUSH2 0x26FE JUMP JUMPDEST DUP2 EQ PUSH2 0x2E49 JUMPI PUSH1 0x0 DUP1 REVERT JUMPDEST POP JUMP JUMPDEST PUSH2 0x2E55 DUP2 PUSH2 0x274A JUMP JUMPDEST DUP2 EQ PUSH2 0x2E60 JUMPI PUSH1 0x0 DUP1 REVERT JUMPDEST POP JUMP INVALID GASLIMIT MSTORE NUMBER CALLDATACOPY ORIGIN BALANCE GASPRICE KECCAK256 PUSH21 0x72616E7366657220746F206E6F6E20455243373231 MSTORE PUSH6 0x636569766572 KECCAK256 PUSH10 0x6D706C656D656E746572 GASLIMIT MSTORE NUMBER CALLDATACOPY ORIGIN BALANCE GASPRICE KECCAK256 PUSH16 0x776E657220717565727920666F72206E PUSH16 0x6E6578697374656E7420746F6B656EA2 PUSH5 0x6970667358 0x22 SLT KECCAK256 CALLDATACOPY JUMP SWAP16 0x1F 0x4F 0xE5 0xE5 MOD SIGNEXTEND 0x2E PUSH2 0xD71 BALANCE PUSH26 0x8DCD07387636BCA7CDB0F8004E2B7EF2F464736F6C6343000807 STOP CALLER PUSH9 0x747470733A2F2F6761 PUSH21 0x657761792E70696E6174612E636C6F75642F697066 PUSH20 0x2F00000000000000000000000000000000000000 "
				},
				"gasEstimates": {
					"creation": {
						"codeDepositCost": "2404000",
						"executionCost": "infinite",
						"totalCost": "infinite"
					},
					"external": {
						"approve(address,uint256)": "infinite",
						"balanceOf(address)": "3052",
						"baseURI()": "infinite",
						"getApproved(uint256)": "infinite",
						"getCreator(uint256)": "2953",
						"isApprovedForAll(address,address)": "infinite",
						"name()": "infinite",
						"ownerOf(uint256)": "infinite",
						"royaltyFee(uint256)": "infinite",
						"safeTransferFrom(address,address,uint256)": "infinite",
						"safeTransferFrom(address,address,uint256,bytes)": "infinite",
						"setApprovalForAll(address,bool)": "infinite",
						"supportsInterface(bytes4)": "2870",
						"symbol()": "infinite",
						"tokenByIndex(uint256)": "infinite",
						"tokenOfOwnerByIndex(address,uint256)": "infinite",
						"tokenURI(uint256)": "infinite",
						"totalSupply()": "2566",
						"transferFrom(address,address,uint256)": "infinite"
					},
					"internal": {
						"_approve(address,uint256)": "infinite",
						"_beforeTokenTransfer(address,address,uint256)": "15",
						"_burn(uint256)": "infinite",
						"_checkOnERC721Received(address,address,uint256,bytes memory)": "infinite",
						"_exists(uint256)": "infinite",
						"_isApprovedOrOwner(address,uint256)": "infinite",
						"_mint(address,uint256,uint256)": "infinite",
						"_safeMint(address,uint256,uint256)": "infinite",
						"_safeMint(address,uint256,uint256,bytes memory)": "infinite",
						"_safeTransfer(address,address,uint256,bytes memory)": "infinite",
						"_setBaseURI(string memory)": "infinite",
						"_setTokenURI(uint256,string memory)": "infinite",
						"_transfer(address,address,uint256)": "infinite"
					}
				},
				"methodIdentifiers": {
					"approve(address,uint256)": "095ea7b3",
					"balanceOf(address)": "70a08231",
					"baseURI()": "6c0360eb",
					"getApproved(uint256)": "081812fc",
					"getCreator(uint256)": "d48e638a",
					"isApprovedForAll(address,address)": "e985e9c5",
					"name()": "06fdde03",
					"ownerOf(uint256)": "6352211e",
					"royaltyFee(uint256)": "c57dc235",
					"safeTransferFrom(address,address,uint256)": "42842e0e",
					"safeTransferFrom(address,address,uint256,bytes)": "b88d4fde",
					"setApprovalForAll(address,bool)": "a22cb465",
					"supportsInterface(bytes4)": "01ffc9a7",
					"symbol()": "95d89b41",
					"tokenByIndex(uint256)": "4f6ccce7",
					"tokenOfOwnerByIndex(address,uint256)": "2f745c59",
					"tokenURI(uint256)": "c87b56dd",
					"totalSupply()": "18160ddd",
					"transferFrom(address,address,uint256)": "23b872dd"
				}
			},
			"storageLayout": {
				"storage": [
					{
						"astId": 356,
						"contract": "NFT-Contracts/contracts/market_deploy/ERC721.sol:ERC721",
						"label": "_supportedInterfaces",
						"offset": 0,
						"slot": "0",
						"type": "t_mapping(t_bytes4,t_bool)"
					},
					{
						"astId": 441,
						"contract": "NFT-Contracts/contracts/market_deploy/ERC721.sol:ERC721",
						"label": "_holderTokens",
						"offset": 0,
						"slot": "1",
						"type": "t_mapping(t_address,t_struct(UintSet)2083_storage)"
					},
					{
						"astId": 444,
						"contract": "NFT-Contracts/contracts/market_deploy/ERC721.sol:ERC721",
						"label": "_tokenOwners",
						"offset": 0,
						"slot": "2",
						"type": "t_struct(UintToAddressMap)1658_storage"
					},
					{
						"astId": 448,
						"contract": "NFT-Contracts/contracts/market_deploy/ERC721.sol:ERC721",
						"label": "_tokenApprovals",
						"offset": 0,
						"slot": "4",
						"type": "t_mapping(t_uint256,t_address)"
					},
					{
						"astId": 454,
						"contract": "NFT-Contracts/contracts/market_deploy/ERC721.sol:ERC721",
						"label": "_operatorApprovals",
						"offset": 0,
						"slot": "5",
						"type": "t_mapping(t_address,t_mapping(t_address,t_bool))"
					},
					{
						"astId": 456,
						"contract": "NFT-Contracts/contracts/market_deploy/ERC721.sol:ERC721",
						"label": "_name",
						"offset": 0,
						"slot": "6",
						"type": "t_string_storage"
					},
					{
						"astId": 458,
						"contract": "NFT-Contracts/contracts/market_deploy/ERC721.sol:ERC721",
						"label": "_symbol",
						"offset": 0,
						"slot": "7",
						"type": "t_string_storage"
					},
					{
						"astId": 462,
						"contract": "NFT-Contracts/contracts/market_deploy/ERC721.sol:ERC721",
						"label": "_tokenURIs",
						"offset": 0,
						"slot": "8",
						"type": "t_mapping(t_uint256,t_string_storage)"
					},
					{
						"astId": 466,
						"contract": "NFT-Contracts/contracts/market_deploy/ERC721.sol:ERC721",
						"label": "_royaltyFee",
						"offset": 0,
						"slot": "9",
						"type": "t_mapping(t_uint256,t_uint256)"
					},
					{
						"astId": 470,
						"contract": "NFT-Contracts/contracts/market_deploy/ERC721.sol:ERC721",
						"label": "_creator",
						"offset": 0,
						"slot": "10",
						"type": "t_mapping(t_uint256,t_address)"
					},
					{
						"astId": 473,
						"contract": "NFT-Contracts/contracts/market_deploy/ERC721.sol:ERC721",
						"label": "_baseURI",
						"offset": 0,
						"slot": "11",
						"type": "t_string_storage"
					}
				],
				"types": {
					"t_address": {
						"encoding": "inplace",
						"label": "address",
						"numberOfBytes": "20"
					},
					"t_array(t_bytes32)dyn_storage": {
						"base": "t_bytes32",
						"encoding": "dynamic_array",
						"label": "bytes32[]",
						"numberOfBytes": "32"
					},
					"t_array(t_struct(MapEntry)1399_storage)dyn_storage": {
						"base": "t_struct(MapEntry)1399_storage",
						"encoding": "dynamic_array",
						"label": "struct EnumerableMap.MapEntry[]",
						"numberOfBytes": "32"
					},
					"t_bool": {
						"encoding": "inplace",
						"label": "bool",
						"numberOfBytes": "1"
					},
					"t_bytes32": {
						"encoding": "inplace",
						"label": "bytes32",
						"numberOfBytes": "32"
					},
					"t_bytes4": {
						"encoding": "inplace",
						"label": "bytes4",
						"numberOfBytes": "4"
					},
					"t_mapping(t_address,t_bool)": {
						"encoding": "mapping",
						"key": "t_address",
						"label": "mapping(address => bool)",
						"numberOfBytes": "32",
						"value": "t_bool"
					},
					"t_mapping(t_address,t_mapping(t_address,t_bool))": {
						"encoding": "mapping",
						"key": "t_address",
						"label": "mapping(address => mapping(address => bool))",
						"numberOfBytes": "32",
						"value": "t_mapping(t_address,t_bool)"
					},
					"t_mapping(t_address,t_struct(UintSet)2083_storage)": {
						"encoding": "mapping",
						"key": "t_address",
						"label": "mapping(address => struct EnumerableSet.UintSet)",
						"numberOfBytes": "32",
						"value": "t_struct(UintSet)2083_storage"
					},
					"t_mapping(t_bytes32,t_uint256)": {
						"encoding": "mapping",
						"key": "t_bytes32",
						"label": "mapping(bytes32 => uint256)",
						"numberOfBytes": "32",
						"value": "t_uint256"
					},
					"t_mapping(t_bytes4,t_bool)": {
						"encoding": "mapping",
						"key": "t_bytes4",
						"label": "mapping(bytes4 => bool)",
						"numberOfBytes": "32",
						"value": "t_bool"
					},
					"t_mapping(t_uint256,t_address)": {
						"encoding": "mapping",
						"key": "t_uint256",
						"label": "mapping(uint256 => address)",
						"numberOfBytes": "32",
						"value": "t_address"
					},
					"t_mapping(t_uint256,t_string_storage)": {
						"encoding": "mapping",
						"key": "t_uint256",
						"label": "mapping(uint256 => string)",
						"numberOfBytes": "32",
						"value": "t_string_storage"
					},
					"t_mapping(t_uint256,t_uint256)": {
						"encoding": "mapping",
						"key": "t_uint256",
						"label": "mapping(uint256 => uint256)",
						"numberOfBytes": "32",
						"value": "t_uint256"
					},
					"t_string_storage": {
						"encoding": "bytes",
						"label": "string",
						"numberOfBytes": "32"
					},
					"t_struct(Map)1408_storage": {
						"encoding": "inplace",
						"label": "struct EnumerableMap.Map",
						"members": [
							{
								"astId": 1403,
								"contract": "NFT-Contracts/contracts/market_deploy/ERC721.sol:ERC721",
								"label": "_entries",
								"offset": 0,
								"slot": "0",
								"type": "t_array(t_struct(MapEntry)1399_storage)dyn_storage"
							},
							{
								"astId": 1407,
								"contract": "NFT-Contracts/contracts/market_deploy/ERC721.sol:ERC721",
								"label": "_indexes",
								"offset": 0,
								"slot": "1",
								"type": "t_mapping(t_bytes32,t_uint256)"
							}
						],
						"numberOfBytes": "64"
					},
					"t_struct(MapEntry)1399_storage": {
						"encoding": "inplace",
						"label": "struct EnumerableMap.MapEntry",
						"members": [
							{
								"astId": 1396,
								"contract": "NFT-Contracts/contracts/market_deploy/ERC721.sol:ERC721",
								"label": "_key",
								"offset": 0,
								"slot": "0",
								"type": "t_bytes32"
							},
							{
								"astId": 1398,
								"contract": "NFT-Contracts/contracts/market_deploy/ERC721.sol:ERC721",
								"label": "_value",
								"offset": 0,
								"slot": "1",
								"type": "t_bytes32"
							}
						],
						"numberOfBytes": "64"
					},
					"t_struct(Set)1826_storage": {
						"encoding": "inplace",
						"label": "struct EnumerableSet.Set",
						"members": [
							{
								"astId": 1821,
								"contract": "NFT-Contracts/contracts/market_deploy/ERC721.sol:ERC721",
								"label": "_values",
								"offset": 0,
								"slot": "0",
								"type": "t_array(t_bytes32)dyn_storage"
							},
							{
								"astId": 1825,
								"contract": "NFT-Contracts/contracts/market_deploy/ERC721.sol:ERC721",
								"label": "_indexes",
								"offset": 0,
								"slot": "1",
								"type": "t_mapping(t_bytes32,t_uint256)"
							}
						],
						"numberOfBytes": "64"
					},
					"t_struct(UintSet)2083_storage": {
						"encoding": "inplace",
						"label": "struct EnumerableSet.UintSet",
						"members": [
							{
								"astId": 2082,
								"contract": "NFT-Contracts/contracts/market_deploy/ERC721.sol:ERC721",
								"label": "_inner",
								"offset": 0,
								"slot": "0",
								"type": "t_struct(Set)1826_storage"
							}
						],
						"numberOfBytes": "64"
					},
					"t_struct(UintToAddressMap)1658_storage": {
						"encoding": "inplace",
						"label": "struct EnumerableMap.UintToAddressMap",
						"members": [
							{
								"astId": 1657,
								"contract": "NFT-Contracts/contracts/market_deploy/ERC721.sol:ERC721",
								"label": "_inner",
								"offset": 0,
								"slot": "0",
								"type": "t_struct(Map)1408_storage"
							}
						],
						"numberOfBytes": "64"
					},
					"t_uint256": {
						"encoding": "inplace",
						"label": "uint256",
						"numberOfBytes": "32"
					}
				}
			},
			"userdoc": {
				"kind": "user",
				"methods": {
					"balanceOf(address)": {
						"notice": "Get the Token balance of an account's."
					},
					"isApprovedForAll(address,address)": {
						"notice": "Queries the approval status of an operator for a given owner."
					},
					"ownerOf(uint256)": {
						"notice": "Get the owner of tokenId."
					},
					"safeTransferFrom(address,address,uint256,bytes)": {
						"notice": "Transfers `_value` amount of an `_id` from the `_from` address to the `_to` address specified (with safety call)."
					},
					"setApprovalForAll(address,bool)": {
						"notice": "Enable or disable approval for a third party (\"operator\") to manage all of the caller's tokens."
					}
				},
				"version": 1
			}
		}
	}
}